{"hash": "ac16956de3c8a61408a33aff92b93780ae8e9c48ad65341ba14fa99584be7fa8", "blockhash": "00000000000000000004ffacab907a6b429b9a5745fa0b75af4234bf69dd7176", "vout": [{"scriptPubKey": {"reqSigs": 1, "hex": "76a914f6f259c975df50a8053b6cca8412d04093a4cbca88ac", "addresses": ["1PWjZ1ps88hmGVZavfyfC4cX2E3v16xU9X"], "asm": "OP_DUP OP_HASH160 f6f259c975df50a8053b6cca8412d04093a4cbca OP_EQUALVERIFY OP_CHECKSIG", "type": "pubkeyhash"}, "value": 0.5245124, "n": 0}], "hex": "010000000657f4228b0da3e2cecd4b618b20c0ce4e57da470876423fa8f9601368e6306044000000006a47304402205e0974c6b84fcbf3ee851b616d3f3180ff0d41e155b14f2635ea5582e4fddb7b0220039cb98b32d9be1cb5ea27d4eab3a5c6c20b6aab7c64b17ce3f84b49bd0e2169012103c4c1551354b54a71a6bff192ebf2e30bb268b555fb8b070dc9c9660ad2ea3a57ffffffff740845fc51934b7ac33424963e172a8ea0e299c034ea32abdec4dba2250503ce010000006a4730440220361c445cf94f165e19a9ad521841257cd7602c7685277d5b16734453c03949e302206fe43625a7542f0dad7ee79f50eeb3af1359c91c41ea8b558a06367c46d6711d012103c4c1551354b54a71a6bff192ebf2e30bb268b555fb8b070dc9c9660ad2ea3a57ffffffff407b34309891db048b66780ec51ba7bc97a78e793a27634b1273baa290dbcbb1000000006a473044022019da3635020d936408f986021d2c646819bef0c888503799cf56ed82e5589d970220171aa23958106f7dabd2e453853ff656678bfd8f088ac4f0d1cf9b40e3b5b1c2012103c4c1551354b54a71a6bff192ebf2e30bb268b555fb8b070dc9c9660ad2ea3a57ffffffffcee0cf5685047b857793e964f176d085120f21682db36a74524f5b9b2072faa3060000006a47304402207df9973ad9171c037865545aca99c7fbb8f10fed9918172982c3acf7bbebdb47022036c7822ada36c944ac5d3a68fe5fee0337ef4c7c8c870a5369d9bd3166fbbf2b012103c4c1551354b54a71a6bff192ebf2e30bb268b555fb8b070dc9c9660ad2ea3a57ffffffffe795704a0477d7e4602f45755c7b59851e9bd6e8237ca9b4a64849e910127d29010000006a47304402200ce86b0990b027dcbd60f44614981bb3176e0ed5644e5cd285f5ed327b9afcf0022043af458f7b3473aac6f2b0bc6438ff1cca709a69fddeae94a04746b533467231012103c4c1551354b54a71a6bff192ebf2e30bb268b555fb8b070dc9c9660ad2ea3a57ffffffff638622b794708e83088489dc8e02f6a7c8209dc71574b2a369f76503c5cb1bc2060000006a4730440220471b17a320203e2814c53f86f5000b336a60797950bcc9ae524f1f8a39ef44d10220280cc0abed587d5e71289dd36504e4350f0fbf3c53cacb3d7c411dd929901ce1012103c4c1551354b54a71a6bff192ebf2e30bb268b555fb8b070dc9c9660ad2ea3a57ffffffff01a8572003000000001976a914f6f259c975df50a8053b6cca8412d04093a4cbca88ac00000000", "vin": [{"sequence": 4294967295, "scriptSig": {"hex": "47304402205e0974c6b84fcbf3ee851b616d3f3180ff0d41e155b14f2635ea5582e4fddb7b0220039cb98b32d9be1cb5ea27d4eab3a5c6c20b6aab7c64b17ce3f84b49bd0e2169012103c4c1551354b54a71a6bff192ebf2e30bb268b555fb8b070dc9c9660ad2ea3a57", "asm": "304402205e0974c6b84fcbf3ee851b616d3f3180ff0d41e155b14f2635ea5582e4fddb7b0220039cb98b32d9be1cb5ea27d4eab3a5c6c20b6aab7c64b17ce3f84b49bd0e2169[ALL] 03c4c1551354b54a71a6bff192ebf2e30bb268b555fb8b070dc9c9660ad2ea3a57"}, "vout": 0, "txid": "446030e6681360f9a83f42760847da574ecec0208b614bcdcee2a30d8b22f457"}, {"sequence": 4294967295, "scriptSig": {"hex": "4730440220361c445cf94f165e19a9ad521841257cd7602c7685277d5b16734453c03949e302206fe43625a7542f0dad7ee79f50eeb3af1359c91c41ea8b558a06367c46d6711d012103c4c1551354b54a71a6bff192ebf2e30bb268b555fb8b070dc9c9660ad2ea3a57", "asm": "30440220361c445cf94f165e19a9ad521841257cd7602c7685277d5b16734453c03949e302206fe43625a7542f0dad7ee79f50eeb3af1359c91c41ea8b558a06367c46d6711d[ALL] 03c4c1551354b54a71a6bff192ebf2e30bb268b555fb8b070dc9c9660ad2ea3a57"}, "vout": 1, "txid": "ce030525a2dbc4deab32ea34c099e2a08e2a173e962434c37a4b9351fc450874"}, {"sequence": 4294967295, "scriptSig": {"hex": "473044022019da3635020d936408f986021d2c646819bef0c888503799cf56ed82e5589d970220171aa23958106f7dabd2e453853ff656678bfd8f088ac4f0d1cf9b40e3b5b1c2012103c4c1551354b54a71a6bff192ebf2e30bb268b555fb8b070dc9c9660ad2ea3a57", "asm": "3044022019da3635020d936408f986021d2c646819bef0c888503799cf56ed82e5589d970220171aa23958106f7dabd2e453853ff656678bfd8f088ac4f0d1cf9b40e3b5b1c2[ALL] 03c4c1551354b54a71a6bff192ebf2e30bb268b555fb8b070dc9c9660ad2ea3a57"}, "vout": 0, "txid": "b1cbdb90a2ba73124b63273a798ea797bca71bc50e78668b04db919830347b40"}, {"sequence": 4294967295, "scriptSig": {"hex": "47304402207df9973ad9171c037865545aca99c7fbb8f10fed9918172982c3acf7bbebdb47022036c7822ada36c944ac5d3a68fe5fee0337ef4c7c8c870a5369d9bd3166fbbf2b012103c4c1551354b54a71a6bff192ebf2e30bb268b555fb8b070dc9c9660ad2ea3a57", "asm": "304402207df9973ad9171c037865545aca99c7fbb8f10fed9918172982c3acf7bbebdb47022036c7822ada36c944ac5d3a68fe5fee0337ef4c7c8c870a5369d9bd3166fbbf2b[ALL] 03c4c1551354b54a71a6bff192ebf2e30bb268b555fb8b070dc9c9660ad2ea3a57"}, "vout": 6, "txid": "a3fa72209b5b4f52746ab32d68210f1285d076f164e99377857b048556cfe0ce"}, {"sequence": 4294967295, "scriptSig": {"hex": "47304402200ce86b0990b027dcbd60f44614981bb3176e0ed5644e5cd285f5ed327b9afcf0022043af458f7b3473aac6f2b0bc6438ff1cca709a69fddeae94a04746b533467231012103c4c1551354b54a71a6bff192ebf2e30bb268b555fb8b070dc9c9660ad2ea3a57", "asm": "304402200ce86b0990b027dcbd60f44614981bb3176e0ed5644e5cd285f5ed327b9afcf0022043af458f7b3473aac6f2b0bc6438ff1cca709a69fddeae94a04746b533467231[ALL] 03c4c1551354b54a71a6bff192ebf2e30bb268b555fb8b070dc9c9660ad2ea3a57"}, "vout": 1, "txid": "297d1210e94948a6b4a97c23e8d69b1e85597b5c75452f60e4d777044a7095e7"}, {"sequence": 4294967295, "scriptSig": {"hex": "4730440220471b17a320203e2814c53f86f5000b336a60797950bcc9ae524f1f8a39ef44d10220280cc0abed587d5e71289dd36504e4350f0fbf3c53cacb3d7c411dd929901ce1012103c4c1551354b54a71a6bff192ebf2e30bb268b555fb8b070dc9c9660ad2ea3a57", "asm": "30440220471b17a320203e2814c53f86f5000b336a60797950bcc9ae524f1f8a39ef44d10220280cc0abed587d5e71289dd36504e4350f0fbf3c53cacb3d7c411dd929901ce1[ALL] 03c4c1551354b54a71a6bff192ebf2e30bb268b555fb8b070dc9c9660ad2ea3a57"}, "vout": 6, "txid": "c21bcbc50365f769a3b27415c79d20c8a7f6028edc898408838e7094b7228663"}], "txid": "ac16956de3c8a61408a33aff92b93780ae8e9c48ad65341ba14fa99584be7fa8", "blocktime": 1537875543, "version": 1, "confirmations": 11464, "time": 1537875543, "locktime": 0, "vsize": 926, "size": 926}