{"hash": "6ba2f841c35bfc09e3aede19dc7431734deb17aeb98c32796d2fb7992ebab809", "blockhash": "0000000000000000000baef3f32e3676a92c3b2e5da21b426e4f302fc371ce76", "vout": [{"scriptPubKey": {"reqSigs": 1, "hex": "a91490e99e8d26d05ead3c05430c292a887bbff695f587", "addresses": ["3EuF6KjJawxTiUsea3Sc8hsLUGmVEf7Xg5"], "asm": "OP_HASH160 90e99e8d26d05ead3c05430c292a887bbff695f5 OP_EQUAL", "type": "scripthash"}, "value": 0.00118829, "n": 0}, {"scriptPubKey": {"type": "nulldata", "hex": "6a146f6d6e69000000000000001f0000000005f5e100", "asm": "OP_RETURN 6f6d6e69000000000000001f0000000005f5e100"}, "value": 0.0, "n": 1}, {"scriptPubKey": {"reqSigs": 1, "hex": "a91490e99e8d26d05ead3c05430c292a887bbff695f587", "addresses": ["3EuF6KjJawxTiUsea3Sc8hsLUGmVEf7Xg5"], "asm": "OP_HASH160 90e99e8d26d05ead3c05430c292a887bbff695f5 OP_EQUAL", "type": "scripthash"}, "value": 5.4e-06, "n": 2}], "hex": "01000000000102462326a07d08c0c55a93ab776c75c2573fba6b21deea1888941f8c60256d95980000000017160014f6e1792e7852ebd5ae795c2a25d579acdfadec2dffffffff462326a07d08c0c55a93ab776c75c2573fba6b21deea1888941f8c60256d95980200000017160014f6e1792e7852ebd5ae795c2a25d579acdfadec2dffffffff032dd001000000000017a91490e99e8d26d05ead3c05430c292a887bbff695f5870000000000000000166a146f6d6e69000000000000001f0000000005f5e1001c0200000000000017a91490e99e8d26d05ead3c05430c292a887bbff695f58702473044022074a5ec87cec4ba4e635f0db5a295113379a5f08710ac0738df3d7d0b05b0b3fe0220109e6002f7300510b80e565da817e06940696e1618f08d8ac9c3b8794e6eb1fa012103f1cf988013a33e053d1e9bd54c4798c1a6dc362a5b2798b5344049fca40e2db002483045022100a3e102d3c086128e416778eab6f94fef4a6f311cf859549e3f275b745ce62f82022035db087df168f0a2aefc9cddff79935c9e9d956eb9a7f3a334c44b5d3d39caeb012103f1cf988013a33e053d1e9bd54c4798c1a6dc362a5b2798b5344049fca40e2db000000000", "vin": [{"txinwitness": ["3044022074a5ec87cec4ba4e635f0db5a295113379a5f08710ac0738df3d7d0b05b0b3fe0220109e6002f7300510b80e565da817e06940696e1618f08d8ac9c3b8794e6eb1fa01", "03f1cf988013a33e053d1e9bd54c4798c1a6dc362a5b2798b5344049fca40e2db0"], "sequence": 4294967295, "scriptSig": {"hex": "160014f6e1792e7852ebd5ae795c2a25d579acdfadec2d", "asm": "0014f6e1792e7852ebd5ae795c2a25d579acdfadec2d"}, "vout": 0, "txid": "98956d25608c1f948818eade216bba3f57c2756c77ab935ac5c0087da0262346"}, {"txinwitness": ["3045022100a3e102d3c086128e416778eab6f94fef4a6f311cf859549e3f275b745ce62f82022035db087df168f0a2aefc9cddff79935c9e9d956eb9a7f3a334c44b5d3d39caeb01", "03f1cf988013a33e053d1e9bd54c4798c1a6dc362a5b2798b5344049fca40e2db0"], "sequence": 4294967295, "scriptSig": {"hex": "160014f6e1792e7852ebd5ae795c2a25d579acdfadec2d", "asm": "0014f6e1792e7852ebd5ae795c2a25d579acdfadec2d"}, "vout": 2, "txid": "98956d25608c1f948818eade216bba3f57c2756c77ab935ac5c0087da0262346"}], "txid": "ac1fd2d61179d3c1179a0ccb5a377f555df569024fc44385c0e375491e9303a8", "blocktime": 1537876114, "version": 1, "confirmations": 11460, "time": 1537876114, "locktime": 0, "vsize": 288, "size": 450}