{"hash": "ac1f6522c76faef31142dd804a1714beca56fadc8f1d92d23e7e8797b9e84f43", "blockhash": "00000000000000000017f5eb5941039fbcee6240d03bc1f2f8e35350df66a1d8", "vout": [{"scriptPubKey": {"type": "nulldata", "hex": "6a4c50000077f9000173c6785583fdcd5810d7b003d19ed074892d00f8e87af8e8e963c7cfd5b91c6ec5b79404a56ae471711b4400952f5baa18ec061413bf410ec9cc1d100759d4ba30d2c37bb011d97e02cf", "asm": "OP_RETURN 000077f9000173c6785583fdcd5810d7b003d19ed074892d00f8e87af8e8e963c7cfd5b91c6ec5b79404a56ae471711b4400952f5baa18ec061413bf410ec9cc1d100759d4ba30d2c37bb011d97e02cf"}, "value": 0.0, "n": 0}, {"scriptPubKey": {"reqSigs": 1, "hex": "76a9146e6bdca210b9f01073baf1180841b7048c01093188ac", "addresses": ["1B4rYUVHRwN5Ht8s2KCgz4oMzr4cVc73uj"], "asm": "OP_DUP OP_HASH160 6e6bdca210b9f01073baf1180841b7048c010931 OP_EQUALVERIFY OP_CHECKSIG", "type": "pubkeyhash"}, "value": 0.0063352, "n": 1}], "hex": "0100000001df60e110b8c68b9f66d02d8fa3e4b33a768ccf1d332f259817475905c7a57001010000006b483045022100ef567a0a7dfe8fe92c32545f9bd1f061eeb12b3d4e1ce55e530322aa86d92506022006c5a504b6e5398844c18322ef5b02292ed8241161218814f849bc60c15181840121036a3ddcaa63cfc4c58afe722e2bf2fddcfcd456e8c8ec6bd529466a678a6e2d2effffffff020000000000000000536a4c50000077f9000173c6785583fdcd5810d7b003d19ed074892d00f8e87af8e8e963c7cfd5b91c6ec5b79404a56ae471711b4400952f5baa18ec061413bf410ec9cc1d100759d4ba30d2c37bb011d97e02cfb0aa0900000000001976a9146e6bdca210b9f01073baf1180841b7048c01093188ac00000000", "vin": [{"sequence": 4294967295, "scriptSig": {"hex": "483045022100ef567a0a7dfe8fe92c32545f9bd1f061eeb12b3d4e1ce55e530322aa86d92506022006c5a504b6e5398844c18322ef5b02292ed8241161218814f849bc60c15181840121036a3ddcaa63cfc4c58afe722e2bf2fddcfcd456e8c8ec6bd529466a678a6e2d2e", "asm": "3045022100ef567a0a7dfe8fe92c32545f9bd1f061eeb12b3d4e1ce55e530322aa86d92506022006c5a504b6e5398844c18322ef5b02292ed8241161218814f849bc60c1518184[ALL] 036a3ddcaa63cfc4c58afe722e2bf2fddcfcd456e8c8ec6bd529466a678a6e2d2e"}, "vout": 1, "txid": "0170a5c70559471798252f331dcf8c763ab3e4a38f2dd0669f8bc6b810e160df"}], "txid": "ac1f6522c76faef31142dd804a1714beca56fadc8f1d92d23e7e8797b9e84f43", "blocktime": 1537874412, "version": 1, "confirmations": 11467, "time": 1537874412, "locktime": 0, "vsize": 284, "size": 284}