{"hash": "ac2237d4a2a8681ea6be5214d1fe9d490924dba8490f3464f4bc685be1485df4", "blockhash": "00000000000000000018f53835495a110e01622372bf6ae95dc86f2b0ab887b0", "vout": [{"scriptPubKey": {"reqSigs": 1, "hex": "a9146a983d395671c5a52a7261e4140e14778b14b15387", "addresses": ["3BQdve4W4d8r1HwtJqo6yKMPrXoacgCPAn"], "asm": "OP_HASH160 6a983d395671c5a52a7261e4140e14778b14b153 OP_EQUAL", "type": "scripthash"}, "value": 0.01619, "n": 0}, {"scriptPubKey": {"reqSigs": 1, "hex": "a914e370231feecbfc25e2e2423a5a79bf79bfdca59887", "addresses": ["3NRbeX3vD5VaVE4TDU9ivCDsEf7NPPte6J"], "asm": "OP_HASH160 e370231feecbfc25e2e2423a5a79bf79bfdca598 OP_EQUAL", "type": "scripthash"}, "value": 11.66784706, "n": 1}], "hex": "010000000156691e110b9bd1cd2930dcce2856bc7cb8382a1e1f0382abcec0dcfa5b56b6d401000000d90047304402206d65dc1f9270c7b5d6b8fba5fd9ac8e62332597f36d91790885eae80d36871b202206f9fdc103ec0bcf2bef82df24902ef2364a870abf2d870318f7006797e52d7e4014730440220507d502975f9e544180583d09fe52ed07a9e047eb83cf54d3bcf2a2f1089ff8e02200bfe05f1ce612f7ad370f432f53c9d06af7ea95a84dbb19f3dd2cf9be976820c014752210327881b6abce6535553a3ce21fad12a7d74fd237ce7c4cd270a267162344e3082210256141f8eb687f5a68c5cc65054652dc25116fa285e44d72b44368827ffe77d9a52aeffffffff0238b418000000000017a9146a983d395671c5a52a7261e4140e14778b14b15387c2b88b450000000017a914e370231feecbfc25e2e2423a5a79bf79bfdca5988700000000", "vin": [{"sequence": 4294967295, "scriptSig": {"hex": "0047304402206d65dc1f9270c7b5d6b8fba5fd9ac8e62332597f36d91790885eae80d36871b202206f9fdc103ec0bcf2bef82df24902ef2364a870abf2d870318f7006797e52d7e4014730440220507d502975f9e544180583d09fe52ed07a9e047eb83cf54d3bcf2a2f1089ff8e02200bfe05f1ce612f7ad370f432f53c9d06af7ea95a84dbb19f3dd2cf9be976820c014752210327881b6abce6535553a3ce21fad12a7d74fd237ce7c4cd270a267162344e3082210256141f8eb687f5a68c5cc65054652dc25116fa285e44d72b44368827ffe77d9a52ae", "asm": "0 304402206d65dc1f9270c7b5d6b8fba5fd9ac8e62332597f36d91790885eae80d36871b202206f9fdc103ec0bcf2bef82df24902ef2364a870abf2d870318f7006797e52d7e4[ALL] 30440220507d502975f9e544180583d09fe52ed07a9e047eb83cf54d3bcf2a2f1089ff8e02200bfe05f1ce612f7ad370f432f53c9d06af7ea95a84dbb19f3dd2cf9be976820c[ALL] 52210327881b6abce6535553a3ce21fad12a7d74fd237ce7c4cd270a267162344e3082210256141f8eb687f5a68c5cc65054652dc25116fa285e44d72b44368827ffe77d9a52ae"}, "vout": 1, "txid": "d4b6565bfadcc0ceab82031f1e2a38b87cbc5628cedc3029cdd19b0b111e6956"}], "txid": "ac2237d4a2a8681ea6be5214d1fe9d490924dba8490f3464f4bc685be1485df4", "blocktime": 1537870928, "version": 1, "confirmations": 11514, "time": 1537870928, "locktime": 0, "vsize": 332, "size": 332}