{"hash": "ac2517f3af4bcff6d356be2fefa783c6c51ba7ae191f4e6ebf3b1cc625e805d7", "blockhash": "0000000000000000001f0ddff1eddb255c1121bcd4da4f1bc9a0da00cae72433", "vout": [{"scriptPubKey": {"reqSigs": 1, "hex": "a91462d6bee5d4bd9e68eb38b8d35017ac3e47f0283387", "addresses": ["3AhdQ8pHoQHNKvLwjuLeUuB7N3N776iD5V"], "asm": "OP_HASH160 62d6bee5d4bd9e68eb38b8d35017ac3e47f02833 OP_EQUAL", "type": "scripthash"}, "value": 0.00468552, "n": 0}, {"scriptPubKey": {"reqSigs": 1, "hex": "76a914a4e6f0e9affdeaa75299850db3c44cf90146fd9688ac", "addresses": ["1G2vUXYyWFX4hjQ2rcSrNKzK4HdJDUZnG9"], "asm": "OP_DUP OP_HASH160 a4e6f0e9affdeaa75299850db3c44cf90146fd96 OP_EQUALVERIFY OP_CHECKSIG", "type": "pubkeyhash"}, "value": 0.01601459, "n": 1}], "hex": "0100000001278721bc8f49adb5596e1632c4af29691b714004e171852b0cc7333662a86243010000006b48304502210098701aed80bc7e5c6f5e493196a5d5f7426ad6f14d6a70d406bed361c036bbaa022002bd0a64bde3bc382ef4f575d3cc69ce7c6691e1b433c5cbe6a73567d7c4b6c00121023632b2de2bfac6384062037b79775abb10f046ee51dff918b45e4e19b3ef18b8ffffffff02482607000000000017a91462d6bee5d4bd9e68eb38b8d35017ac3e47f0283387b36f1800000000001976a914a4e6f0e9affdeaa75299850db3c44cf90146fd9688ac00000000", "vin": [{"sequence": 4294967295, "scriptSig": {"hex": "48304502210098701aed80bc7e5c6f5e493196a5d5f7426ad6f14d6a70d406bed361c036bbaa022002bd0a64bde3bc382ef4f575d3cc69ce7c6691e1b433c5cbe6a73567d7c4b6c00121023632b2de2bfac6384062037b79775abb10f046ee51dff918b45e4e19b3ef18b8", "asm": "304502210098701aed80bc7e5c6f5e493196a5d5f7426ad6f14d6a70d406bed361c036bbaa022002bd0a64bde3bc382ef4f575d3cc69ce7c6691e1b433c5cbe6a73567d7c4b6c0[ALL] 023632b2de2bfac6384062037b79775abb10f046ee51dff918b45e4e19b3ef18b8"}, "vout": 1, "txid": "4362a8623633c70c2b8571e10440711b6929afc432166e59b5ad498fbc218727"}], "txid": "ac2517f3af4bcff6d356be2fefa783c6c51ba7ae191f4e6ebf3b1cc625e805d7", "blocktime": 1537872018, "version": 1, "confirmations": 11489, "time": 1537872018, "locktime": 0, "vsize": 224, "size": 224}