{"hash": "ac29abb39cbedaa4249e80aae9f18b83d3ef8d355f1b171febd3fd59af73f80d", "blockhash": "0000000000000000000e13cef7c366c0283d82e591d1acd082e914b08063cdf1", "vout": [{"scriptPubKey": {"reqSigs": 1, "hex": "76a91452d988a06f7031186fa845299697e6dc59b128ce88ac", "addresses": ["18Z51EiHQrAPFEJpREUkoJHCpj47m8qqhd"], "asm": "OP_DUP OP_HASH160 52d988a06f7031186fa845299697e6dc59b128ce OP_EQUALVERIFY OP_CHECKSIG", "type": "pubkeyhash"}, "value": 0.026137, "n": 0}, {"scriptPubKey": {"reqSigs": 1, "hex": "76a914e3da36bddd229e1f34fc1c96195128186b38936088ac", "addresses": ["1MmmoJtv8L3ccac16Tb7HBzUfYnnFGxAvq"], "asm": "OP_DUP OP_HASH160 e3da36bddd229e1f34fc1c96195128186b389360 OP_EQUALVERIFY OP_CHECKSIG", "type": "pubkeyhash"}, "value": 0.038, "n": 1}, {"scriptPubKey": {"reqSigs": 1, "hex": "a9142b18b37ec65102a5236e5a584c0259dcf390de6987", "addresses": ["35cta4MdRvwqaAb24MxFZAphpfDnwx9oXL"], "asm": "OP_HASH160 2b18b37ec65102a5236e5a584c0259dcf390de69 OP_EQUAL", "type": "scripthash"}, "value": 3.58547851, "n": 2}, {"scriptPubKey": {"reqSigs": 1, "hex": "a9148ab3bf8862f936e0691ef49c60dc1f258996e5e387", "addresses": ["3ELQW8z8WdY3URfeimULrCL2qBY1HjPQPc"], "asm": "OP_HASH160 8ab3bf8862f936e0691ef49c60dc1f258996e5e3 OP_EQUAL", "type": "scripthash"}, "value": 9.9995, "n": 3}, {"scriptPubKey": {"reqSigs": 1, "hex": "76a91443849383122ebb8a28268a89700c9f723663b5b888ac", "addresses": ["17A16QmavnUfCW11DAApiJxp7ARnxN5pGX"], "asm": "OP_DUP OP_HASH160 43849383122ebb8a28268a89700c9f723663b5b8 OP_EQUALVERIFY OP_CHECKSIG", "type": "pubkeyhash"}, "value": 137.7972601, "n": 4}], "hex": "0200000001d45876f50a82041a12da48833a6688a1c13315756b175d5424134d87e35aa494020000008a47304402201e01881dae3827a30c88726a90b69070aacc43d4231d02ff9bdad7ff796604e20220588eb4964d529755eda5e83eb916e7f64c48d9160ef93156eec4b80067c33f950141047146f0e0fcb3139947cf0beb870fe251930ca10d4545793d31033e801b5219abf56c11a3cf3406ca590e4c14b0dab749d20862b3adc4709153c280c2a78be10cffffffff05c4e12700000000001976a91452d988a06f7031186fa845299697e6dc59b128ce88acc0fb3900000000001976a914e3da36bddd229e1f34fc1c96195128186b38936088ac8b015f150000000017a9142b18b37ec65102a5236e5a584c0259dcf390de6987b0069a3b0000000017a9148ab3bf8862f936e0691ef49c60dc1f258996e5e387baee5535030000001976a91443849383122ebb8a28268a89700c9f723663b5b888ac00000000", "vin": [{"sequence": 4294967295, "scriptSig": {"hex": "47304402201e01881dae3827a30c88726a90b69070aacc43d4231d02ff9bdad7ff796604e20220588eb4964d529755eda5e83eb916e7f64c48d9160ef93156eec4b80067c33f950141047146f0e0fcb3139947cf0beb870fe251930ca10d4545793d31033e801b5219abf56c11a3cf3406ca590e4c14b0dab749d20862b3adc4709153c280c2a78be10c", "asm": "304402201e01881dae3827a30c88726a90b69070aacc43d4231d02ff9bdad7ff796604e20220588eb4964d529755eda5e83eb916e7f64c48d9160ef93156eec4b80067c33f95[ALL] 047146f0e0fcb3139947cf0beb870fe251930ca10d4545793d31033e801b5219abf56c11a3cf3406ca590e4c14b0dab749d20862b3adc4709153c280c2a78be10c"}, "vout": 2, "txid": "94a45ae3874d1324545d176b751533c1a188663a8348da121a04820af57658d4"}], "txid": "ac29abb39cbedaa4249e80aae9f18b83d3ef8d355f1b171febd3fd59af73f80d", "blocktime": 1537871767, "version": 2, "confirmations": 11490, "time": 1537871767, "locktime": 0, "vsize": 355, "size": 355}