{"hash": "ba8cb1c7384f503987aa1cbca0cd6dedf1a5ee46ee288bdba46525332c5c0426", "blockhash": "0000000000000000001cda96e906b7601b7a6fb1a3b62bca570a9e5d8f4b3de1", "vout": [{"scriptPubKey": {"reqSigs": 1, "hex": "76a914e353ab04e9d7cec35ed8a06240595e190e4fa07b88ac", "addresses": ["1MizcuP2HfidhkfeysFtuppcwLqGanUKsr"], "asm": "OP_DUP OP_HASH160 e353ab04e9d7cec35ed8a06240595e190e4fa07b OP_EQUALVERIFY OP_CHECKSIG", "type": "pubkeyhash"}, "value": 0.05371779, "n": 0}, {"scriptPubKey": {"reqSigs": 1, "hex": "a9147b5833eb5ed2b2c6208789140b9344b3391397f287", "addresses": ["3CwChaTG2CHYUUirTy26nkcD6E3kkmDe6n"], "asm": "OP_HASH160 7b5833eb5ed2b2c6208789140b9344b3391397f2 OP_EQUAL", "type": "scripthash"}, "value": 41.56551036, "n": 1}], "hex": "02000000000101bd6ebb095928f5fc4194d5e2b236b6b8a146799e58b2c8a570d87a6527e14b3400000000171600148409e618aedc1f9866c26dae10e883e6de111462feffffff0283f75100000000001976a914e353ab04e9d7cec35ed8a06240595e190e4fa07b88ac7cefbff70000000017a9147b5833eb5ed2b2c6208789140b9344b3391397f28702473044022048693f86ffa53a8c1573d6429fbca3e83bf0165e2af0bf88554ab7db699182f7022020978fbb25f31a32c97d474fca58644c87efcaceb8d115236f7aadf2bb085bfa01210302a85d45db43525ae01ee1e847c2e4c3891f0d326f2f685531289f75f9880de913490800", "vin": [{"txinwitness": ["3044022048693f86ffa53a8c1573d6429fbca3e83bf0165e2af0bf88554ab7db699182f7022020978fbb25f31a32c97d474fca58644c87efcaceb8d115236f7aadf2bb085bfa01", "0302a85d45db43525ae01ee1e847c2e4c3891f0d326f2f685531289f75f9880de9"], "sequence": 4294967294, "scriptSig": {"hex": "1600148409e618aedc1f9866c26dae10e883e6de111462", "asm": "00148409e618aedc1f9866c26dae10e883e6de111462"}, "vout": 0, "txid": "344be127657ad870a5c8b2589e7946a1b8b636b2e2d59441fcf5285909bb6ebd"}], "txid": "ac2973527026bb5b6d468ebf5c6c8b3a220c6ffd97169348016eca5824b2a5d6", "blocktime": 1537873282, "version": 2, "confirmations": 11480, "time": 1537873282, "locktime": 542995, "vsize": 168, "size": 249}