{"hash": "ac2a21fd44189c58ac465cc6e630a62e89e7b3751388a5f9b173cd9b4bdbebd0", "blockhash": "000000000000000000022b45ed06c6f4ccd3cf7fb5ba4856ebd2e58215665228", "vout": [{"scriptPubKey": {"type": "nulldata", "hex": "6a4c5000007760000172dac894e56a771115d2ceea3a016b46dc7dc7d0968d120d670c1906f999943905847529ed097dd8ea8c866b9ee15baa07ad06126b00aec6aa311d100759d4ba30d2c37bb011d97e02cf", "asm": "OP_RETURN 00007760000172dac894e56a771115d2ceea3a016b46dc7dc7d0968d120d670c1906f999943905847529ed097dd8ea8c866b9ee15baa07ad06126b00aec6aa311d100759d4ba30d2c37bb011d97e02cf"}, "value": 0.0, "n": 0}, {"scriptPubKey": {"reqSigs": 1, "hex": "76a914b3834955efdb65c12990b046c5386f6284e6d35288ac", "addresses": ["1HNBEHKPZS7SeJimurhWdWH1hM1uQqGZzW"], "asm": "OP_DUP OP_HASH160 b3834955efdb65c12990b046c5386f6284e6d352 OP_EQUALVERIFY OP_CHECKSIG", "type": "pubkeyhash"}, "value": 0.00649761, "n": 1}], "hex": "0100000001f9c925c81f5fba40ed4367b98d08da49e9b0edbcd69cd448368abdbd5e6c543f010000006a473044022041cbbd99e5f4c7cb546610f57ae640d595c39b3f6c9db2d39a75c3ba2c833f7902207239f08a737ce54c03f7fedd8228a1e4ccf13849897d497da3ee4b2991c1870a012103aec7aff4409f45c956748628f290f531c57a00cda6ec4800cfb6ad862c89d41bffffffff020000000000000000536a4c5000007760000172dac894e56a771115d2ceea3a016b46dc7dc7d0968d120d670c1906f999943905847529ed097dd8ea8c866b9ee15baa07ad06126b00aec6aa311d100759d4ba30d2c37bb011d97e02cf21ea0900000000001976a914b3834955efdb65c12990b046c5386f6284e6d35288ac00000000", "vin": [{"sequence": 4294967295, "scriptSig": {"hex": "473044022041cbbd99e5f4c7cb546610f57ae640d595c39b3f6c9db2d39a75c3ba2c833f7902207239f08a737ce54c03f7fedd8228a1e4ccf13849897d497da3ee4b2991c1870a012103aec7aff4409f45c956748628f290f531c57a00cda6ec4800cfb6ad862c89d41b", "asm": "3044022041cbbd99e5f4c7cb546610f57ae640d595c39b3f6c9db2d39a75c3ba2c833f7902207239f08a737ce54c03f7fedd8228a1e4ccf13849897d497da3ee4b2991c1870a[ALL] 03aec7aff4409f45c956748628f290f531c57a00cda6ec4800cfb6ad862c89d41b"}, "vout": 1, "txid": "3f546c5ebdbd8a3648d49cd6bcedb0e949da088db96743ed40ba5f1fc825c9f9"}], "txid": "ac2a21fd44189c58ac465cc6e630a62e89e7b3751388a5f9b173cd9b4bdbebd0", "blocktime": 1537869901, "version": 1, "confirmations": 11523, "time": 1537869901, "locktime": 0, "vsize": 283, "size": 283}