{"hash": "e64faf1bdf0fb55199fb196b07eed792450a50c2ff966fecfe75ee1776e8c300", "blockhash": "0000000000000000001f0ddff1eddb255c1121bcd4da4f1bc9a0da00cae72433", "vout": [{"scriptPubKey": {"reqSigs": 1, "hex": "a9149f2cbcc52a2d033d0d8a744321129ed74e43579e87", "addresses": ["3GCexTD6spyxth7uE4UpK3Dwdjr64DZgKN"], "asm": "OP_HASH160 9f2cbcc52a2d033d0d8a744321129ed74e43579e OP_EQUAL", "type": "scripthash"}, "value": 0.00999295, "n": 0}, {"scriptPubKey": {"reqSigs": 1, "hex": "76a91498aa9f0db83323ca5c2d59ac9620c114c6cd32ca88ac", "addresses": ["1EvE78nRwSy3zKTMBem5Cth6bVMW77GhaA"], "asm": "OP_DUP OP_HASH160 98aa9f0db83323ca5c2d59ac9620c114c6cd32ca OP_EQUALVERIFY OP_CHECKSIG", "type": "pubkeyhash"}, "value": 0.0028563, "n": 1}], "hex": "020000000001025e8de6414fd19cdbd5947a2de15446af0ec63cfd15e9c265c05808f61723a20a000000001716001454b6b4430ad64634e8a484a9cfdec3b3ec8fa692feffffff5e8de6414fd19cdbd5947a2de15446af0ec63cfd15e9c265c05808f61723a20a0b000000171600143c01913108195c09a83a73dd3308ccaeabf20b79feffffff027f3f0f000000000017a9149f2cbcc52a2d033d0d8a744321129ed74e43579e87be5b0400000000001976a91498aa9f0db83323ca5c2d59ac9620c114c6cd32ca88ac02483045022100e1d542af734d2f2a531c336ee813c61fbd901176b89541e76243fbd3f0ab5390022051c5e09539562dc8b3649f6cefbacb28f69299f0285330043a4b2080ef878ea90121039d5ccb87c96bdc5bb5a7681bd65257ffabc7bcbcf43072a40468467395eb6ae002483045022100af886773b8e14b808ababe27377d1a21b8bc72afde85f7215621477a30309d9a02207fc0000ddf6203df7837b870837d5e72f354b4592ee8c8d20493951328d36e0e0121026ff206097e9e9deae01432b802b829522cf73fb8178ac39d2a09c3e56af849ad11490800", "vin": [{"txinwitness": ["3045022100e1d542af734d2f2a531c336ee813c61fbd901176b89541e76243fbd3f0ab5390022051c5e09539562dc8b3649f6cefbacb28f69299f0285330043a4b2080ef878ea901", "039d5ccb87c96bdc5bb5a7681bd65257ffabc7bcbcf43072a40468467395eb6ae0"], "sequence": 4294967294, "scriptSig": {"hex": "16001454b6b4430ad64634e8a484a9cfdec3b3ec8fa692", "asm": "001454b6b4430ad64634e8a484a9cfdec3b3ec8fa692"}, "vout": 0, "txid": "0aa22317f60858c065c2e915fd3cc60eaf4654e12d7a94d5db9cd14f41e68d5e"}, {"txinwitness": ["3045022100af886773b8e14b808ababe27377d1a21b8bc72afde85f7215621477a30309d9a02207fc0000ddf6203df7837b870837d5e72f354b4592ee8c8d20493951328d36e0e01", "026ff206097e9e9deae01432b802b829522cf73fb8178ac39d2a09c3e56af849ad"], "sequence": 4294967294, "scriptSig": {"hex": "1600143c01913108195c09a83a73dd3308ccaeabf20b79", "asm": "00143c01913108195c09a83a73dd3308ccaeabf20b79"}, "vout": 11, "txid": "0aa22317f60858c065c2e915fd3cc60eaf4654e12d7a94d5db9cd14f41e68d5e"}], "txid": "ac2c6d7adff07f7acfef49b913477da58f006bd280a48f84d909877965fd7d28", "blocktime": 1537872018, "version": 2, "confirmations": 11489, "time": 1537872018, "locktime": 542993, "vsize": 259, "size": 422}