{"hash": "0bc488262a5a38e78b032d37a86fee2b2ad9ee7c64d1b0d3e5209aff73577679", "blockhash": "0000000000000000000dcc0f55137456b1a82d3642486a52398922ac4d620174", "vout": [{"scriptPubKey": {"reqSigs": 1, "hex": "76a914b5b280018c453932f02a64bbcfca3e21e40666c088ac", "addresses": ["1HZj97ywk9m3kaxjKXiqZAQoxQU1wEFyaT"], "asm": "OP_DUP OP_HASH160 b5b280018c453932f02a64bbcfca3e21e40666c0 OP_EQUALVERIFY OP_CHECKSIG", "type": "pubkeyhash"}, "value": 0.08382, "n": 0}, {"scriptPubKey": {"reqSigs": 1, "hex": "a9141988a27e3c2df4ddee7fad5a2303d086179b2a3087", "addresses": ["3422VtS7UtCvXYxoXMVp6eZupR252z85oC"], "asm": "OP_HASH160 1988a27e3c2df4ddee7fad5a2303d086179b2a30 OP_EQUAL", "type": "scripthash"}, "value": 0.02593119, "n": 1}], "hex": "01000000000102a5f0b445b7f8e7c93fd4cc28da9d76ec5f503674bab26221d9842ad795b30fa302000000232200202035e78a6b34d583ad0a874b80ee41a0507b92cf0b671656108f594c7f75ca90ffffffff294c973ff84c4f6b942ebada59a4f6fe5a10dd64e1f7040252cff5a35e65c210020000002322002065d416c48a8072e0ac51c2d111eb194f009caef0332446c1bf2097316cf07fa9ffffffff0230e67f00000000001976a914b5b280018c453932f02a64bbcfca3e21e40666c088ac5f9127000000000017a9141988a27e3c2df4ddee7fad5a2303d086179b2a30870400483045022100a70072c3938560ba647cdf57b78dd3779b0e020a4b7c119c695575ca916f1e2d02206ea6952fe4eb43826443d1388ff632623086117c6c3cdfd4d270460be77b55e701483045022100845b870ef033495ec1cc161baabadbe98c6ff8e51af09134df87904e2ac7e44102201c702440177a1e84cb361d2e2e37e67f0d13a250ffc00871f99d3645b7895f9c01695221029103d1dfbbee9ea5249ee0b03ca59e08291ce34a7467513edf8ea767b5aa26382103dce07bea5905a1c3e70f86c1f74f0e98e7cf3b6f5d02226a4c531c9e930c613b210268d8878afaf4b55118519d8520fe0db27f9596a812d4378f4bf4a96a5333694653ae0400473044022033e748a81ad1eb87f9a25651ef3547ccd8f14ecaaf61508483e6614b7e95992e022056c8fe04f4d4d5098a110bef1f07c64ebe72e83f0438b048db13d6d631a7222c01483045022100a597e89ed8b4e0b18a035d1634c12efb76e327a737719c89655400c55394623c02203c3e480d6658897dfa1440ae8c9515ecb7447d6358af1dba0fafc01f418c2c510169522102f44abcf9e23c9a460da309ccca56c619c04eed3bde2c2cff5e7d78fbcd980b9c2103c9443cf3047bb6c2c82f1b0c44c36109cdc3d0d601d16d1189a1602bf8d1a0a02103bfe867059274412412e088af5572b92168c2ef495cfe6c9b7a753a009eb37c4853ae00000000", "vin": [{"txinwitness": ["", "3045022100a70072c3938560ba647cdf57b78dd3779b0e020a4b7c119c695575ca916f1e2d02206ea6952fe4eb43826443d1388ff632623086117c6c3cdfd4d270460be77b55e701", "3045022100845b870ef033495ec1cc161baabadbe98c6ff8e51af09134df87904e2ac7e44102201c702440177a1e84cb361d2e2e37e67f0d13a250ffc00871f99d3645b7895f9c01", "5221029103d1dfbbee9ea5249ee0b03ca59e08291ce34a7467513edf8ea767b5aa26382103dce07bea5905a1c3e70f86c1f74f0e98e7cf3b6f5d02226a4c531c9e930c613b210268d8878afaf4b55118519d8520fe0db27f9596a812d4378f4bf4a96a5333694653ae"], "sequence": 4294967295, "scriptSig": {"hex": "2200202035e78a6b34d583ad0a874b80ee41a0507b92cf0b671656108f594c7f75ca90", "asm": "00202035e78a6b34d583ad0a874b80ee41a0507b92cf0b671656108f594c7f75ca90"}, "vout": 2, "txid": "a30fb395d72a84d92162b2ba7436505fec769dda28ccd43fc9e7f8b745b4f0a5"}, {"txinwitness": ["", "3044022033e748a81ad1eb87f9a25651ef3547ccd8f14ecaaf61508483e6614b7e95992e022056c8fe04f4d4d5098a110bef1f07c64ebe72e83f0438b048db13d6d631a7222c01", "3045022100a597e89ed8b4e0b18a035d1634c12efb76e327a737719c89655400c55394623c02203c3e480d6658897dfa1440ae8c9515ecb7447d6358af1dba0fafc01f418c2c5101", "522102f44abcf9e23c9a460da309ccca56c619c04eed3bde2c2cff5e7d78fbcd980b9c2103c9443cf3047bb6c2c82f1b0c44c36109cdc3d0d601d16d1189a1602bf8d1a0a02103bfe867059274412412e088af5572b92168c2ef495cfe6c9b7a753a009eb37c4853ae"], "sequence": 4294967295, "scriptSig": {"hex": "22002065d416c48a8072e0ac51c2d111eb194f009caef0332446c1bf2097316cf07fa9", "asm": "002065d416c48a8072e0ac51c2d111eb194f009caef0332446c1bf2097316cf07fa9"}, "vout": 2, "txid": "10c2655ea3f5cf520204f7e164dd105afef6a459daba2e946b4f4cf83f974c29"}], "txid": "ac2ec81e46e95e414135d857314c7f2849a72953124f9dc42bf9e463d2a5032b", "blocktime": 1537870268, "version": 1, "confirmations": 11516, "time": 1537870268, "locktime": 0, "vsize": 356, "size": 737}