{"hash": "ac31aff9728082bbe0fa302202b4cd7d95b32d23414be1e1060e6ef713a728f7", "blockhash": "0000000000000000001e0dab787dd257d1dbfcb92a98c2207d5e1078be1f4165", "vout": [{"scriptPubKey": {"reqSigs": 1, "hex": "001498de433fe91ae6c336d00bf9628ff94b21e637cf", "addresses": ["bc1qnr0yx0lfrtnvxdksp0uk9rlefvs7vd70u5pdcd"], "asm": "0 98de433fe91ae6c336d00bf9628ff94b21e637cf", "type": "witness_v0_keyhash"}, "value": 0.00071323, "n": 0}, {"scriptPubKey": {"reqSigs": 1, "hex": "76a9149352302e929908434e4a71470affc14bc2151f7988ac", "addresses": ["1ERxnjh73uAW87JjJnhxUY1WykNC1gw1qC"], "asm": "OP_DUP OP_HASH160 9352302e929908434e4a71470affc14bc2151f79 OP_EQUALVERIFY OP_CHECKSIG", "type": "pubkeyhash"}, "value": 0.01731113, "n": 1}], "hex": "0100000001b2e28eba8a5b9aa1787c0f2c6c2b454a6a1c6909f1570bb4df8904b6b14a2885010000006b483045022100b56b6687cf6ca6527180dce8630871c409e31a534a17e23ffcf27fe572edd152022024234dcaab8eff165995c386114c7d6ae8fa153ac3f2d4cd4c3d3dea43a0179f012102e37178029da52a746763fde4255254f34fe61009e23479d4dd364506851e3482ffffffff029b1601000000000016001498de433fe91ae6c336d00bf9628ff94b21e637cf296a1a00000000001976a9149352302e929908434e4a71470affc14bc2151f7988ac00000000", "vin": [{"sequence": 4294967295, "scriptSig": {"hex": "483045022100b56b6687cf6ca6527180dce8630871c409e31a534a17e23ffcf27fe572edd152022024234dcaab8eff165995c386114c7d6ae8fa153ac3f2d4cd4c3d3dea43a0179f012102e37178029da52a746763fde4255254f34fe61009e23479d4dd364506851e3482", "asm": "3045022100b56b6687cf6ca6527180dce8630871c409e31a534a17e23ffcf27fe572edd152022024234dcaab8eff165995c386114c7d6ae8fa153ac3f2d4cd4c3d3dea43a0179f[ALL] 02e37178029da52a746763fde4255254f34fe61009e23479d4dd364506851e3482"}, "vout": 1, "txid": "85284ab1b60489dfb40b57f109691c6a4a452b6c2c0f7c78a19a5b8aba8ee2b2"}], "txid": "ac31aff9728082bbe0fa302202b4cd7d95b32d23414be1e1060e6ef713a728f7", "blocktime": 1537872475, "version": 1, "confirmations": 11487, "time": 1537872475, "locktime": 0, "vsize": 223, "size": 223}