{"hash": "ac3225e314180b0e5eaec7b3f171662c8d1925c6981587c1c79595504869c916", "blockhash": "0000000000000000000baef3f32e3676a92c3b2e5da21b426e4f302fc371ce76", "vout": [{"scriptPubKey": {"reqSigs": 1, "hex": "a91455d0c7c4f38070d379d7287f5fb31437a09730da87", "addresses": ["39WmUANEJEYkCTFbpFdev7iXziK442emdv"], "asm": "OP_HASH160 55d0c7c4f38070d379d7287f5fb31437a09730da OP_EQUAL", "type": "scripthash"}, "value": 0.00871552, "n": 0}, {"scriptPubKey": {"reqSigs": 1, "hex": "76a914b7888cc82fdecaf88856880550ac43fe948b8cae88ac", "addresses": ["1HjSEm71Kqt31Va9JhJk2SvztwotZkQJFN"], "asm": "OP_DUP OP_HASH160 b7888cc82fdecaf88856880550ac43fe948b8cae OP_EQUALVERIFY OP_CHECKSIG", "type": "pubkeyhash"}, "value": 0.01118375, "n": 1}], "hex": "02000000014e5d0c84f3b4d2cf4933e1e61cf547f2ccbb9a2affc9635f9a2ac7591f8178b2090000006b48304502210093eafa37993b97b2d95a786781b0c9c6289c5941410ac81fe81057deb2339b45022019afc057412150e60f9f150c22db3a4d7c771454a4543671dc69f7d907e693c40121036bf0c82655ac05fee218bfb1908dff7496e8be4a97350e41d488649338337efeffffffff02804c0d000000000017a91455d0c7c4f38070d379d7287f5fb31437a09730da87a7101100000000001976a914b7888cc82fdecaf88856880550ac43fe948b8cae88ac00000000", "vin": [{"sequence": 4294967295, "scriptSig": {"hex": "48304502210093eafa37993b97b2d95a786781b0c9c6289c5941410ac81fe81057deb2339b45022019afc057412150e60f9f150c22db3a4d7c771454a4543671dc69f7d907e693c40121036bf0c82655ac05fee218bfb1908dff7496e8be4a97350e41d488649338337efe", "asm": "304502210093eafa37993b97b2d95a786781b0c9c6289c5941410ac81fe81057deb2339b45022019afc057412150e60f9f150c22db3a4d7c771454a4543671dc69f7d907e693c4[ALL] 036bf0c82655ac05fee218bfb1908dff7496e8be4a97350e41d488649338337efe"}, "vout": 9, "txid": "b278811f59c72a9a5f63c9ff2a9abbccf247f51ce6e13349cfd2b4f3840c5d4e"}], "txid": "ac3225e314180b0e5eaec7b3f171662c8d1925c6981587c1c79595504869c916", "blocktime": 1537876114, "version": 2, "confirmations": 11459, "time": 1537876114, "locktime": 0, "vsize": 224, "size": 224}