{"hash": "ac36e0b6dabd14ec85dcae0a84094428d5dd1acad62c7377ee4ac8f7ea2b3c55", "blockhash": "0000000000000000001f0ddff1eddb255c1121bcd4da4f1bc9a0da00cae72433", "vout": [{"scriptPubKey": {"reqSigs": 1, "hex": "76a914397b80d7b06bd85410f9345c8af7ed3401a8076d88ac", "addresses": ["16EwU6RLW2d1q5e8KnRH9PK9YWJxTDw3co"], "asm": "OP_DUP OP_HASH160 397b80d7b06bd85410f9345c8af7ed3401a8076d OP_EQUALVERIFY OP_CHECKSIG", "type": "pubkeyhash"}, "value": 0.01050075, "n": 0}, {"scriptPubKey": {"reqSigs": 1, "hex": "a9141e735aed4c818c3831654058465625dc3a79841587", "addresses": ["34U2PKMiqxbafeYPgvP9zHWVYTYjuaVvrp"], "asm": "OP_HASH160 1e735aed4c818c3831654058465625dc3a798415 OP_EQUAL", "type": "scripthash"}, "value": 0.005097, "n": 1}], "hex": "02000000011013cc7fa8bad516c09800f68fb3ef7e5df145b3d9a17870281e55a156f536ff040000006b48304502210086eaa8a98007c38c27387d4270c0249efe473f776f763dd2ed7ebc10f7108ab902207526fa4ae6ecc68da8da3b66126498629a600fe0f5c04fb63b75d36a5cf355b101210370b8fc15f75a1844d839572db835bf162c61807e69875f677063b52815288162feffffff02db051000000000001976a914397b80d7b06bd85410f9345c8af7ed3401a8076d88ac04c707000000000017a9141e735aed4c818c3831654058465625dc3a7984158710490800", "vin": [{"sequence": 4294967294, "scriptSig": {"hex": "48304502210086eaa8a98007c38c27387d4270c0249efe473f776f763dd2ed7ebc10f7108ab902207526fa4ae6ecc68da8da3b66126498629a600fe0f5c04fb63b75d36a5cf355b101210370b8fc15f75a1844d839572db835bf162c61807e69875f677063b52815288162", "asm": "304502210086eaa8a98007c38c27387d4270c0249efe473f776f763dd2ed7ebc10f7108ab902207526fa4ae6ecc68da8da3b66126498629a600fe0f5c04fb63b75d36a5cf355b1[ALL] 0370b8fc15f75a1844d839572db835bf162c61807e69875f677063b52815288162"}, "vout": 4, "txid": "ff36f556a1551e287078a1d9b345f15d7eefb38ff60098c016d5baa87fcc1310"}], "txid": "ac36e0b6dabd14ec85dcae0a84094428d5dd1acad62c7377ee4ac8f7ea2b3c55", "blocktime": 1537872018, "version": 2, "confirmations": 11489, "time": 1537872018, "locktime": 542992, "vsize": 224, "size": 224}