{"hash": "a3d16ff0a06315d67ce9f4ab2d2a02a23e9f60a3d2d13b72563e837abbe3cab4", "blockhash": "000000000000000000022b45ed06c6f4ccd3cf7fb5ba4856ebd2e58215665228", "vout": [{"scriptPubKey": {"reqSigs": 1, "hex": "a9140c752838a7810117da9dcdc6d1f01e527fe9f69487", "addresses": ["32ptP4i3GBNvVkeeCVk9zSCFom33QZMbHT"], "asm": "OP_HASH160 0c752838a7810117da9dcdc6d1f01e527fe9f694 OP_EQUAL", "type": "scripthash"}, "value": 0.000425, "n": 0}, {"scriptPubKey": {"reqSigs": 1, "hex": "a914c3ebe879a4f4efa44a34c64b610969ede12f970d87", "addresses": ["3KYxJ8gXmcp6BS2gpzRdeiqcvipWGR6XqS"], "asm": "OP_HASH160 c3ebe879a4f4efa44a34c64b610969ede12f970d OP_EQUAL", "type": "scripthash"}, "value": 0.0028675, "n": 1}, {"scriptPubKey": {"reqSigs": 1, "hex": "76a914844a8e3461969fc9abc39ba31011c34b67bc2fc788ac", "addresses": ["1D4VWXc29bK4yNqA1JRkEHw5hfWX5oqipX"], "asm": "OP_DUP OP_HASH160 844a8e3461969fc9abc39ba31011c34b67bc2fc7 OP_EQUALVERIFY OP_CHECKSIG", "type": "pubkeyhash"}, "value": 0.0425, "n": 2}, {"scriptPubKey": {"reqSigs": 1, "hex": "a91485489c18aa6557a81b99e221948a4fba70a1705f87", "addresses": ["3Dqkn55fiFWFMFRrUFUmRrc7HKc7Hz5vnL"], "asm": "OP_HASH160 85489c18aa6557a81b99e221948a4fba70a1705f OP_EQUAL", "type": "scripthash"}, "value": 0.0425, "n": 3}], "hex": "0100000000010282263f6dd7b709671c872855c9247509494ce543a4a44877313914466fb7611a000000001716001447f582746cf3118ab5779d2556b2995e50ecb5fcfdffffffd2c686ed94084f658ef0f9158e3af107519cffe89f82c07b7ca851ff13c44f660300000017160014fcb2b5a0b908980cea23048591b6abf91334e347fdffffff0404a600000000000017a9140c752838a7810117da9dcdc6d1f01e527fe9f694871e6004000000000017a914c3ebe879a4f4efa44a34c64b610969ede12f970d8790d94000000000001976a914844a8e3461969fc9abc39ba31011c34b67bc2fc788ac90d940000000000017a91485489c18aa6557a81b99e221948a4fba70a1705f870247304402206a8f65d412ad01eb10454d4b3b2f9233e1032b230e1a938faf16a96da0b3324e02204a5dd926c33fa1e0451ead878fed94939ab3204064d277e9c86bed7288f5bbba012102eccc51790cf5bcc1b61c98ac2b4619785e3152535f61b16a90d6006133c33a60024830450221009afcb150680d4cb0aeb4561fcceed60455fe22e68536221544c82f0c86de50580220572513a1bc6a78702c4032fc8121c8a3b314c0540d1675192e7925111ab30d8b0121026c7bd0a068780189705219c919d4d956cedf87dc92732925a8c651f4462267d100000000", "vin": [{"txinwitness": ["304402206a8f65d412ad01eb10454d4b3b2f9233e1032b230e1a938faf16a96da0b3324e02204a5dd926c33fa1e0451ead878fed94939ab3204064d277e9c86bed7288f5bbba01", "02eccc51790cf5bcc1b61c98ac2b4619785e3152535f61b16a90d6006133c33a60"], "sequence": 4294967293, "scriptSig": {"hex": "16001447f582746cf3118ab5779d2556b2995e50ecb5fc", "asm": "001447f582746cf3118ab5779d2556b2995e50ecb5fc"}, "vout": 0, "txid": "1a61b76f461439317748a4a443e54c49097524c95528871c6709b7d76d3f2682"}, {"txinwitness": ["30450221009afcb150680d4cb0aeb4561fcceed60455fe22e68536221544c82f0c86de50580220572513a1bc6a78702c4032fc8121c8a3b314c0540d1675192e7925111ab30d8b01", "026c7bd0a068780189705219c919d4d956cedf87dc92732925a8c651f4462267d1"], "sequence": 4294967293, "scriptSig": {"hex": "160014fcb2b5a0b908980cea23048591b6abf91334e347", "asm": "0014fcb2b5a0b908980cea23048591b6abf91334e347"}, "vout": 3, "txid": "664fc413ff51a87c7bc0829fe8ff9c5107f13a8e15f9f08e654f0894ed86c6d2"}], "txid": "ac375ca591f2fcd17c01039b6d65e80c30d75613397f7fb224a8c61e9b0aed46", "blocktime": 1537869901, "version": 1, "confirmations": 11522, "time": 1537869901, "locktime": 0, "vsize": 323, "size": 485}