{"hash": "ac37ba0e7319b5c0f0b199091f4cf545542506103487f6d70d599c99ac0e2f20", "blockhash": "0000000000000000001cda96e906b7601b7a6fb1a3b62bca570a9e5d8f4b3de1", "vout": [{"scriptPubKey": {"reqSigs": 1, "hex": "76a914ae7dbbd827e3f52a8ac7186a09e52e862113973188ac", "addresses": ["1GudCWoMnZtuvXBEGqS4BphB3LcJ8oMMEj"], "asm": "OP_DUP OP_HASH160 ae7dbbd827e3f52a8ac7186a09e52e8621139731 OP_EQUALVERIFY OP_CHECKSIG", "type": "pubkeyhash"}, "value": 0.002085, "n": 0}, {"scriptPubKey": {"reqSigs": 1, "hex": "76a9145991f629c31477772c47a0d3be99950bb02108bc88ac", "addresses": ["19AbzfLKH4qEFhuijAKfhg8gEVSUFw1fRG"], "asm": "OP_DUP OP_HASH160 5991f629c31477772c47a0d3be99950bb02108bc OP_EQUALVERIFY OP_CHECKSIG", "type": "pubkeyhash"}, "value": 0.00999581, "n": 1}], "hex": "02000000033c12187747cf595335c329cc8f462a1e670b04bf5689f62feaeb20872004b1f70300000069463043021f06489ffd830b07b3709df27d1494f394aeb6ae78f2398644d5d5844099a4670220572d25bb386f2f33cec9ba050905ba6296f80ad211b48476aa07a20f83ad30820121035d54c970486c7a9134cc89bc923f7c101cd1f10cb045b3ba74637fd175555f7efeffffff411fdf98230e1dd14551dfaf94251d4ee6fcad104fc519384ec010760e9fc7de010000006b483045022100f27abdad49b755676059433796f93f0f751344adfed40f9fede793a71b89e70c02200dde8d12a947bc6366e0e86233b6d752fe210e4c2696ccd6346198e4cc1e6e3d01210264aae6641015ec6a73f573214fc92a6882529fa35a1aecebd769a5f4f0c9bf73feffffffeb86d4a05211d1a440efce3e51d6e899d294dab1e53d660769d7a273c59c2801000000006a473044022036505729115852add52336f882cdb3c706ed6e154a5e8b051e1b2ba980ac63c202206a021ea446a44d49073516c5451d9aefb73998a25ef445bf65beda49fc4eb291012102176a4102d966c9d21204f5e7aa846152338feaa36a39b6000d8e6ee777dd574efeffffff02742e0300000000001976a914ae7dbbd827e3f52a8ac7186a09e52e862113973188ac9d400f00000000001976a9145991f629c31477772c47a0d3be99950bb02108bc88ac0e490800", "vin": [{"sequence": 4294967294, "scriptSig": {"hex": "463043021f06489ffd830b07b3709df27d1494f394aeb6ae78f2398644d5d5844099a4670220572d25bb386f2f33cec9ba050905ba6296f80ad211b48476aa07a20f83ad30820121035d54c970486c7a9134cc89bc923f7c101cd1f10cb045b3ba74637fd175555f7e", "asm": "3043021f06489ffd830b07b3709df27d1494f394aeb6ae78f2398644d5d5844099a4670220572d25bb386f2f33cec9ba050905ba6296f80ad211b48476aa07a20f83ad3082[ALL] 035d54c970486c7a9134cc89bc923f7c101cd1f10cb045b3ba74637fd175555f7e"}, "vout": 3, "txid": "f7b104208720ebea2ff68956bf040b671e2a468fcc29c3355359cf477718123c"}, {"sequence": 4294967294, "scriptSig": {"hex": "483045022100f27abdad49b755676059433796f93f0f751344adfed40f9fede793a71b89e70c02200dde8d12a947bc6366e0e86233b6d752fe210e4c2696ccd6346198e4cc1e6e3d01210264aae6641015ec6a73f573214fc92a6882529fa35a1aecebd769a5f4f0c9bf73", "asm": "3045022100f27abdad49b755676059433796f93f0f751344adfed40f9fede793a71b89e70c02200dde8d12a947bc6366e0e86233b6d752fe210e4c2696ccd6346198e4cc1e6e3d[ALL] 0264aae6641015ec6a73f573214fc92a6882529fa35a1aecebd769a5f4f0c9bf73"}, "vout": 1, "txid": "dec79f0e7610c04e3819c54f10adfce64e1d2594afdf5145d11d0e2398df1f41"}, {"sequence": 4294967294, "scriptSig": {"hex": "473044022036505729115852add52336f882cdb3c706ed6e154a5e8b051e1b2ba980ac63c202206a021ea446a44d49073516c5451d9aefb73998a25ef445bf65beda49fc4eb291012102176a4102d966c9d21204f5e7aa846152338feaa36a39b6000d8e6ee777dd574e", "asm": "3044022036505729115852add52336f882cdb3c706ed6e154a5e8b051e1b2ba980ac63c202206a021ea446a44d49073516c5451d9aefb73998a25ef445bf65beda49fc4eb291[ALL] 02176a4102d966c9d21204f5e7aa846152338feaa36a39b6000d8e6ee777dd574e"}, "vout": 0, "txid": "01289cc573a2d76907663de5b1da94d299e8d6513eceef40a4d11152a0d486eb"}], "txid": "ac37ba0e7319b5c0f0b199091f4cf545542506103487f6d70d599c99ac0e2f20", "blocktime": 1537873282, "version": 2, "confirmations": 11485, "time": 1537873282, "locktime": 542990, "vsize": 519, "size": 519}