{"hash": "5e1b40b15cd7c32bb599a6d37071e2682499501c7ee26fd9c95be6a03f298e64", "blockhash": "0000000000000000001f76057863aec43deb6fa401d9628bb513d65a8098bfab", "vout": [{"scriptPubKey": {"reqSigs": 1, "hex": "76a91494a985705fe5227025194f1a38d96b810fe82b6088ac", "addresses": ["1EZ45w9WEhdJvZchUAbiSQkMbAJavmC5to"], "asm": "OP_DUP OP_HASH160 94a985705fe5227025194f1a38d96b810fe82b60 OP_EQUALVERIFY OP_CHECKSIG", "type": "pubkeyhash"}, "value": 0.00077813, "n": 0}, {"scriptPubKey": {"reqSigs": 1, "hex": "a91497cdce36dc14db499d5d6591b61baf0cf9c0f41e87", "addresses": ["3FXgW8R9eXhfytF4XQK1yQbrULA62WBbCr"], "asm": "OP_HASH160 97cdce36dc14db499d5d6591b61baf0cf9c0f41e OP_EQUAL", "type": "scripthash"}, "value": 0.00317808, "n": 1}], "hex": "010000000001011b42a56515d75fa80fbc6d96bcce3e51a4e94734d17a37495c32505df19bcf0a01000000171600149f0106ad514cc99cb3031a2205a3374737544fd3ffffffff02f52f0100000000001976a91494a985705fe5227025194f1a38d96b810fe82b6088ac70d904000000000017a91497cdce36dc14db499d5d6591b61baf0cf9c0f41e8702483045022100cb08ad3c8e7f4a2604ce30b22a69d316f1100ddb49342eda7312ed534272e4b102205a21f4525f2f64d927bfe387b99f150bd9d270948a23c579b5de1d6f8e373bef01210244a2034ed84aab57a4cc374965095b8b63dfbd477ffa8122f683d09a3c5c241500000000", "vin": [{"txinwitness": ["3045022100cb08ad3c8e7f4a2604ce30b22a69d316f1100ddb49342eda7312ed534272e4b102205a21f4525f2f64d927bfe387b99f150bd9d270948a23c579b5de1d6f8e373bef01", "0244a2034ed84aab57a4cc374965095b8b63dfbd477ffa8122f683d09a3c5c2415"], "sequence": 4294967295, "scriptSig": {"hex": "1600149f0106ad514cc99cb3031a2205a3374737544fd3", "asm": "00149f0106ad514cc99cb3031a2205a3374737544fd3"}, "vout": 1, "txid": "0acf9bf15d50325c49377ad13447e9a4513ecebc966dbc0fa85fd71565a5421b"}], "txid": "ac381baeee61b35d8cbde86f0be73ef6ffecb8e4b61d65912df6ec4bd5435d83", "blocktime": 1537873891, "version": 1, "confirmations": 11478, "time": 1537873891, "locktime": 0, "vsize": 168, "size": 250}