{"hash": "ac3c806377279047066aab7933d75cd436703d9adf73981d4584943a658b98b4", "blockhash": "0000000000000000001e0dab787dd257d1dbfcb92a98c2207d5e1078be1f4165", "vout": [{"scriptPubKey": {"reqSigs": 1, "hex": "76a91444da4f4944a984772bf241cf93c7565470438feb88ac", "addresses": ["17H4UUDFnEdYsLFJzCXqZhE1bbeq72g7jZ"], "asm": "OP_DUP OP_HASH160 44da4f4944a984772bf241cf93c7565470438feb OP_EQUALVERIFY OP_CHECKSIG", "type": "pubkeyhash"}, "value": 0.02468434, "n": 0}, {"scriptPubKey": {"reqSigs": 1, "hex": "76a914554591bfe5867e27de98dc4ab3055fba72b70e4288ac", "addresses": ["18msn4vftZurjDBTHzeQMaLU6efg6AnWAS"], "asm": "OP_DUP OP_HASH160 554591bfe5867e27de98dc4ab3055fba72b70e42 OP_EQUALVERIFY OP_CHECKSIG", "type": "pubkeyhash"}, "value": 0.30127572, "n": 1}], "hex": "01000000011ffab2051a51edfb9a9039ef5e2df9b338bddad72cfa21797c5ecf4a05bcb97e010000006b483045022100f13e460582d619825698ecc5ff004ed11bb4f0faf00003c29defaa80956dacb20220535e84abb910bf26dbc19e331adc6f12771a99eda1da8cc1e21bb1a690ff41ca012102ef3938bd4c9282324abaad036db6f99037a7dd4f93ff967bd9a2631bd4572fc0ffffffff0252aa2500000000001976a91444da4f4944a984772bf241cf93c7565470438feb88acd4b5cb01000000001976a914554591bfe5867e27de98dc4ab3055fba72b70e4288ac00000000", "vin": [{"sequence": 4294967295, "scriptSig": {"hex": "483045022100f13e460582d619825698ecc5ff004ed11bb4f0faf00003c29defaa80956dacb20220535e84abb910bf26dbc19e331adc6f12771a99eda1da8cc1e21bb1a690ff41ca012102ef3938bd4c9282324abaad036db6f99037a7dd4f93ff967bd9a2631bd4572fc0", "asm": "3045022100f13e460582d619825698ecc5ff004ed11bb4f0faf00003c29defaa80956dacb20220535e84abb910bf26dbc19e331adc6f12771a99eda1da8cc1e21bb1a690ff41ca[ALL] 02ef3938bd4c9282324abaad036db6f99037a7dd4f93ff967bd9a2631bd4572fc0"}, "vout": 1, "txid": "7eb9bc054acf5e7c7921fa2cd7dabd38b3f92d5eef39909afbed511a05b2fa1f"}], "txid": "ac3c806377279047066aab7933d75cd436703d9adf73981d4584943a658b98b4", "blocktime": 1537872475, "version": 1, "confirmations": 11487, "time": 1537872475, "locktime": 0, "vsize": 226, "size": 226}