{"hash": "ac409dda67f9a1c50c71db76b5610fe9e24a5ac86ed24d54de3809950413f189", "blockhash": "00000000000000000024a2167bbff67b0be802c0b01cdd79e6331c2be6459f87", "vout": [{"scriptPubKey": {"reqSigs": 1, "hex": "76a9143311d26993a27df57c0a68945526915ff35db66c88ac", "addresses": ["15f2p5CEAvMDiz46rHMZ1NsuqN53ZsRvv1"], "asm": "OP_DUP OP_HASH160 3311d26993a27df57c0a68945526915ff35db66c OP_EQUALVERIFY OP_CHECKSIG", "type": "pubkeyhash"}, "value": 0.01000664, "n": 0}, {"scriptPubKey": {"reqSigs": 1, "hex": "76a9149ac889f92f065b13fc5b7d7f3efbb882c8e1bb1388ac", "addresses": ["1F7RJEWo3fpnS6XvUzZQ75xZVVLSzUhEpy"], "asm": "OP_DUP OP_HASH160 9ac889f92f065b13fc5b7d7f3efbb882c8e1bb13 OP_EQUALVERIFY OP_CHECKSIG", "type": "pubkeyhash"}, "value": 0.01320696, "n": 1}], "hex": "0100000001ce5381dd71cceeba913b8c6e9bfdf3da603b1a3095c1849f63898229d0150444000000006b4830450221008701c661a1ac681f92370a83b328814c67d0ce2ac27b2686bd7e5f3a53d0944702200a2cad91a0a42d1f8d49ef471aa6f1d6b2e8fc18a7f4f3d94c0519e8c9f7da5f0121024f16c374d12ff7f51d5ffba27e77fcf20c28dc824b7f8624f9ba755d2cdcbd5afdffffff02d8440f00000000001976a9143311d26993a27df57c0a68945526915ff35db66c88acf8261400000000001976a9149ac889f92f065b13fc5b7d7f3efbb882c8e1bb1388ac0c490800", "vin": [{"sequence": 4294967293, "scriptSig": {"hex": "4830450221008701c661a1ac681f92370a83b328814c67d0ce2ac27b2686bd7e5f3a53d0944702200a2cad91a0a42d1f8d49ef471aa6f1d6b2e8fc18a7f4f3d94c0519e8c9f7da5f0121024f16c374d12ff7f51d5ffba27e77fcf20c28dc824b7f8624f9ba755d2cdcbd5a", "asm": "30450221008701c661a1ac681f92370a83b328814c67d0ce2ac27b2686bd7e5f3a53d0944702200a2cad91a0a42d1f8d49ef471aa6f1d6b2e8fc18a7f4f3d94c0519e8c9f7da5f[ALL] 024f16c374d12ff7f51d5ffba27e77fcf20c28dc824b7f8624f9ba755d2cdcbd5a"}, "vout": 0, "txid": "440415d0298289639f84c195301a3b60daf3fd9b6e8c3b91baeecc71dd8153ce"}], "txid": "ac409dda67f9a1c50c71db76b5610fe9e24a5ac86ed24d54de3809950413f189", "blocktime": 1537870564, "version": 1, "confirmations": 11515, "time": 1537870564, "locktime": 542988, "vsize": 226, "size": 226}