{"hash": "ac4110a8208a30b89bf80ab25178bafb84ed52117b0b9506af6ef9cce60bb18a", "blockhash": "0000000000000000001e0dab787dd257d1dbfcb92a98c2207d5e1078be1f4165", "vout": [{"scriptPubKey": {"type": "nulldata", "hex": "6a146f6d6e69000000000000001f00000066720b3000", "asm": "OP_RETURN 6f6d6e69000000000000001f00000066720b3000"}, "value": 0.0, "n": 0}, {"scriptPubKey": {"reqSigs": 1, "hex": "76a914a25dec4d0011064ef106a983c39c7a540699f22088ac", "addresses": ["1FoWyxwPXuj4C6abqwhjDWdz6D4PZgYRjA"], "asm": "OP_DUP OP_HASH160 a25dec4d0011064ef106a983c39c7a540699f220 OP_EQUALVERIFY OP_CHECKSIG", "type": "pubkeyhash"}, "value": 0.01995188, "n": 1}, {"scriptPubKey": {"reqSigs": 1, "hex": "76a91412553f67858857e9b9e6d45fde927f04462017d388ac", "addresses": ["12fwHZn73YRb1zD5zzV88jRGACK1HuCs9C"], "asm": "OP_DUP OP_HASH160 12553f67858857e9b9e6d45fde927f04462017d3 OP_EQUALVERIFY OP_CHECKSIG", "type": "pubkeyhash"}, "value": 5.46e-06, "n": 2}], "hex": "0100000001a44813c76173a4fe9689194c29809e35be05f1741d9b5e1e9e8bd44070ac1fea740000006b483045022100e5553d481f79345ab92e250fae592f5dfe95eeda729c57206cb367799ebe1999022070b207c4a7509cc94f05e30a3ced5e543720b8b307742b0ab9b51b8b39e43c03012103da5bac7b36d5aa38f531c6b9601e21bb598a4b6716ebed38b009a55dabde9440feffffff030000000000000000166a146f6d6e69000000000000001f00000066720b3000b4711e00000000001976a914a25dec4d0011064ef106a983c39c7a540699f22088ac22020000000000001976a91412553f67858857e9b9e6d45fde927f04462017d388ac12490800", "vin": [{"sequence": 4294967294, "scriptSig": {"hex": "483045022100e5553d481f79345ab92e250fae592f5dfe95eeda729c57206cb367799ebe1999022070b207c4a7509cc94f05e30a3ced5e543720b8b307742b0ab9b51b8b39e43c03012103da5bac7b36d5aa38f531c6b9601e21bb598a4b6716ebed38b009a55dabde9440", "asm": "3045022100e5553d481f79345ab92e250fae592f5dfe95eeda729c57206cb367799ebe1999022070b207c4a7509cc94f05e30a3ced5e543720b8b307742b0ab9b51b8b39e43c03[ALL] 03da5bac7b36d5aa38f531c6b9601e21bb598a4b6716ebed38b009a55dabde9440"}, "vout": 116, "txid": "ea1fac7040d48b9e1e5e9b1d74f105be359e80294c198996fea47361c71348a4"}], "txid": "ac4110a8208a30b89bf80ab25178bafb84ed52117b0b9506af6ef9cce60bb18a", "blocktime": 1537872475, "version": 1, "confirmations": 11486, "time": 1537872475, "locktime": 542994, "vsize": 257, "size": 257}