{"hash": "1864ace402638939ab8b86c68fed9e8f5da8e4b4ed55312930c6e23e8f2366fc", "blockhash": "0000000000000000000e13cef7c366c0283d82e591d1acd082e914b08063cdf1", "vout": [{"scriptPubKey": {"reqSigs": 1, "hex": "76a9147faa802d8930014942fadda0ca90cd5cc1da0cc888ac", "addresses": ["1Ce34xb96DdT5qmzvn737r3Wv9hp3zj7D7"], "asm": "OP_DUP OP_HASH160 7faa802d8930014942fadda0ca90cd5cc1da0cc8 OP_EQUALVERIFY OP_CHECKSIG", "type": "pubkeyhash"}, "value": 0.03588, "n": 0}, {"scriptPubKey": {"reqSigs": 1, "hex": "0014cee563863ad55d66ad68560f20bd8d20cec290ad", "addresses": ["bc1qemjk8p3664wkdttg2c8jp0vdyr8v9y9d4klc85"], "asm": "0 cee563863ad55d66ad68560f20bd8d20cec290ad", "type": "witness_v0_keyhash"}, "value": 2.15202069, "n": 1}], "hex": "01000000000101010cba6f59b80d39c7633daa710dd4fff6bd6e7b161686a333064d0425b697230100000000ffffffff02a0bf3600000000001976a9147faa802d8930014942fadda0ca90cd5cc1da0cc888ac15b9d30c00000000160014cee563863ad55d66ad68560f20bd8d20cec290ad0247304402204e42013fe057d4081279da623b32e6550bc62fde7bbe41c53890c936c580254002205792ec63786d838220fb6a69a7c2ea1624ccca10f5fd73740d5a11169acdd444012102ca40439ed88c009e1ca1e476cc4ac5201e13499523b92971d38671ce04dea6ff00000000", "vin": [{"txinwitness": ["304402204e42013fe057d4081279da623b32e6550bc62fde7bbe41c53890c936c580254002205792ec63786d838220fb6a69a7c2ea1624ccca10f5fd73740d5a11169acdd44401", "02ca40439ed88c009e1ca1e476cc4ac5201e13499523b92971d38671ce04dea6ff"], "sequence": 4294967295, "scriptSig": {"hex": "", "asm": ""}, "vout": 1, "txid": "2397b625044d0633a38616167b6ebdf6ffd40d71aa3d63c7390db8596fba0c01"}], "txid": "ac42acf520a566f29aacecb40b6b7916b2b15c84030ebc3fd15565ff55a9b649", "blocktime": 1537871767, "version": 1, "confirmations": 11495, "time": 1537871767, "locktime": 0, "vsize": 144, "size": 225}