{"hash": "1301d3a18700cbe0b2228d34a0d3434eadad4e9a6ad39bf139ba24baf95f4f54", "blockhash": "00000000000000000018f53835495a110e01622372bf6ae95dc86f2b0ab887b0", "vout": [{"scriptPubKey": {"reqSigs": 1, "hex": "a9140ca81d78656e4303fb8d22821c0735e696ec2fd787", "addresses": ["32qwRgunNEN7K9XDrh67xJ7dnLa2kpNZQe"], "asm": "OP_HASH160 0ca81d78656e4303fb8d22821c0735e696ec2fd7 OP_EQUAL", "type": "scripthash"}, "value": 0.00986303, "n": 0}, {"scriptPubKey": {"reqSigs": 1, "hex": "a9141ed2e603331ffb74ca73093b7d1abcca8225054a87", "addresses": ["34VzqnLD8zQ6FJPeti5gpkH8VTPf3nk56B"], "asm": "OP_HASH160 1ed2e603331ffb74ca73093b7d1abcca8225054a OP_EQUAL", "type": "scripthash"}, "value": 0.00977506, "n": 1}], "hex": "0200000000010474312c41dce2d1039306260267edc53c394eb389db9d583710ad902ab725d2db140000006b4830450221009137580bb05fcdda34a1158c3cb5ba1df9b3c53c3e20068dce4b99981c526b0102202aef2011a083a54a06df5ea7ef9aabb798d7075489fe6188c6c289a149c45cc00121026a4e17cb26840031fb8b7828eec257b6d94834c1d15edd825cda24bd1d2a23b6feffffff766e661cd95c377f43df3d25a276a9399f55e1ba35e73a916703495be4f521f41a00000017160014fcd8f1b1ea1b6fb58a9a09134492d09fb6955433feffffff7b8cf25aa304b0c64c5723170e200b03413ed19a11b18a2deaa92a1a5328931700000000171600146e50f3d71aa68a964f401dec58590ec3b018cca5feffffffb7ad33cc3ba552348136d3154dd19d51a8c7bd3390da380e3cafd1fa797b73850707000017160014a6087ce17f0c1ba5a3aac16aecba821aa5afd11efeffffff02bf0c0f000000000017a9140ca81d78656e4303fb8d22821c0735e696ec2fd78762ea0e000000000017a9141ed2e603331ffb74ca73093b7d1abcca8225054a870002473044022023974f8e0f53adf277c73460fd5f60b471305577aac9b0f96fe1083c9b1afd1702203a4b0ba54ecdbbf012d63d069cc737910dca0597a2e8e1cd46a9366fb846cdff0121033a56e079c88ee52a1fe71a316474379973a3e0254e5816f8a064ad8d6f163f780247304402206126e82d7873bf3ee7987186a69cdf8368ed9538a7fb6f60229dd4af14c5ffce02205fbcefc58482031169e570fd26097e37a493ac4ea139899c4e419a3065555a980121032444b519ee7680f6ec1c0e8f5c935fa6bf0d5bea42a4998ec27cf3d65ee8ba1b02483045022100af7c0367179213ab3adb19d31255b413641c4e75e4e15f43404127ed0d354e8c022047e206389495b447becf5033d9330876e33dd49bdc4102e8d976fc6b589b0abd01210218acaacb0715c22bf1936122ffeefbd3b57b7d3ce6c28b06094983539575e4760d490800", "vin": [{"sequence": 4294967294, "scriptSig": {"hex": "4830450221009137580bb05fcdda34a1158c3cb5ba1df9b3c53c3e20068dce4b99981c526b0102202aef2011a083a54a06df5ea7ef9aabb798d7075489fe6188c6c289a149c45cc00121026a4e17cb26840031fb8b7828eec257b6d94834c1d15edd825cda24bd1d2a23b6", "asm": "30450221009137580bb05fcdda34a1158c3cb5ba1df9b3c53c3e20068dce4b99981c526b0102202aef2011a083a54a06df5ea7ef9aabb798d7075489fe6188c6c289a149c45cc0[ALL] 026a4e17cb26840031fb8b7828eec257b6d94834c1d15edd825cda24bd1d2a23b6"}, "vout": 20, "txid": "dbd225b72a90ad1037589ddb89b34e393cc5ed670226069303d1e2dc412c3174"}, {"txinwitness": ["3044022023974f8e0f53adf277c73460fd5f60b471305577aac9b0f96fe1083c9b1afd1702203a4b0ba54ecdbbf012d63d069cc737910dca0597a2e8e1cd46a9366fb846cdff01", "033a56e079c88ee52a1fe71a316474379973a3e0254e5816f8a064ad8d6f163f78"], "sequence": 4294967294, "scriptSig": {"hex": "160014fcd8f1b1ea1b6fb58a9a09134492d09fb6955433", "asm": "0014fcd8f1b1ea1b6fb58a9a09134492d09fb6955433"}, "vout": 26, "txid": "f421f5e45b490367913ae735bae1559f39a976a2253ddf437f375cd91c666e76"}, {"txinwitness": ["304402206126e82d7873bf3ee7987186a69cdf8368ed9538a7fb6f60229dd4af14c5ffce02205fbcefc58482031169e570fd26097e37a493ac4ea139899c4e419a3065555a9801", "032444b519ee7680f6ec1c0e8f5c935fa6bf0d5bea42a4998ec27cf3d65ee8ba1b"], "sequence": 4294967294, "scriptSig": {"hex": "1600146e50f3d71aa68a964f401dec58590ec3b018cca5", "asm": "00146e50f3d71aa68a964f401dec58590ec3b018cca5"}, "vout": 0, "txid": "179328531a2aa9ea2d8ab1119ad13e41030b200e1723574cc6b004a35af28c7b"}, {"txinwitness": ["3045022100af7c0367179213ab3adb19d31255b413641c4e75e4e15f43404127ed0d354e8c022047e206389495b447becf5033d9330876e33dd49bdc4102e8d976fc6b589b0abd01", "0218acaacb0715c22bf1936122ffeefbd3b57b7d3ce6c28b06094983539575e476"], "sequence": 4294967294, "scriptSig": {"hex": "160014a6087ce17f0c1ba5a3aac16aecba821aa5afd11e", "asm": "0014a6087ce17f0c1ba5a3aac16aecba821aa5afd11e"}, "vout": 1799, "txid": "85737b79fad1af3c0e38da9033bdc7a8519dd14d15d336813452a53bcc33adb7"}], "txid": "ac4422324c32a7a51f91cdc21cb8fcdc55aeac3cb52c4d712d98273aa88ab4ba", "blocktime": 1537870928, "version": 2, "confirmations": 11512, "time": 1537870928, "locktime": 542989, "vsize": 496, "size": 739}