{"hash": "f9041034ff1e9cb09a2a2ac9bc0224d790b69574450c9b2c1bb88dbaa0fe26d2", "blockhash": "0000000000000000001e0dab787dd257d1dbfcb92a98c2207d5e1078be1f4165", "vout": [{"scriptPubKey": {"reqSigs": 1, "hex": "a914d6922d0058bb9a54be035a25fbd494532b01eb7387", "addresses": ["3MFZe4rCnvvtQw1XfNbxkzDV2bE78QQKgP"], "asm": "OP_HASH160 d6922d0058bb9a54be035a25fbd494532b01eb73 OP_EQUAL", "type": "scripthash"}, "value": 0.02144289, "n": 0}, {"scriptPubKey": {"reqSigs": 1, "hex": "76a9146e26d181664718569b79d11b647158bc6596389388ac", "addresses": ["1B3RqFV53dqvy4YfbcufyPVeJj9Wz13MgK"], "asm": "OP_DUP OP_HASH160 6e26d181664718569b79d11b647158bc65963893 OP_EQUALVERIFY OP_CHECKSIG", "type": "pubkeyhash"}, "value": 0.003, "n": 1}], "hex": "010000000001010c66ca2766aaf9e66ebe6df55606fa41409870edb8b33015bda162b48025399b0400000023220020f616936b1fb999465d580923722b70031069321c4926b8d04749c940ec6391c3ffffffff0221b820000000000017a914d6922d0058bb9a54be035a25fbd494532b01eb7387e0930400000000001976a9146e26d181664718569b79d11b647158bc6596389388ac04004730440220712303c13f33f6491000896d2e5e76af699aff2bb2cd67e5affef82fbec5e8f7022014025c53e7243cdc1f2b6a8ac553ce1750467dc3b9361b0adf9846f9db67e2d80147304402201f528297b8a67c6e34ab7db341f03f7163b23a2dcfb380a6eec9535d2b5315fd022059f3d688db60e66cf9e4fe47cc4d4da625b10f00e490f9f8ab905f14077adca30169522103f1fd5fd558311036dbf2376d79aed2f5aacb226de71014a96c4ec376c735befa2103bbfe9d3efa11b39d8c5c74ff5234d691c274770f05ec5a4022c14bba4a9e06532102ac396d7d80e10ea5bb76cf2234a9ea6c1c1cd13240851a2726859743931021d353ae13490800", "vin": [{"txinwitness": ["", "30440220712303c13f33f6491000896d2e5e76af699aff2bb2cd67e5affef82fbec5e8f7022014025c53e7243cdc1f2b6a8ac553ce1750467dc3b9361b0adf9846f9db67e2d801", "304402201f528297b8a67c6e34ab7db341f03f7163b23a2dcfb380a6eec9535d2b5315fd022059f3d688db60e66cf9e4fe47cc4d4da625b10f00e490f9f8ab905f14077adca301", "522103f1fd5fd558311036dbf2376d79aed2f5aacb226de71014a96c4ec376c735befa2103bbfe9d3efa11b39d8c5c74ff5234d691c274770f05ec5a4022c14bba4a9e06532102ac396d7d80e10ea5bb76cf2234a9ea6c1c1cd13240851a2726859743931021d353ae"], "sequence": 4294967295, "scriptSig": {"hex": "220020f616936b1fb999465d580923722b70031069321c4926b8d04749c940ec6391c3", "asm": "0020f616936b1fb999465d580923722b70031069321c4926b8d04749c940ec6391c3"}, "vout": 4, "txid": "9b392580b462a1bd1530b3b8ed70984041fa0656f56dbe6ee6f9aa6627ca660c"}], "txid": "ac4883b0e6c8d0ca77e720bb880910aa86521f50abf5bc60e0dcb541bde9f905", "blocktime": 1537872475, "version": 1, "confirmations": 11486, "time": 1537872475, "locktime": 542995, "vsize": 216, "size": 406}