{"hash": "8021f2040875d1820606436b5635f18ec30ded4222eb84c6bdd7d7421d15d2f5", "blockhash": "0000000000000000001e0dab787dd257d1dbfcb92a98c2207d5e1078be1f4165", "vout": [{"scriptPubKey": {"reqSigs": 1, "hex": "a914a87ed96335b68146d40497336fd0a52a82b1987d87", "addresses": ["3H3wQQWRRmxtRQL89D8tUTWWRVagwcWeo8"], "asm": "OP_HASH160 a87ed96335b68146d40497336fd0a52a82b1987d OP_EQUAL", "type": "scripthash"}, "value": 0.00538196, "n": 0}, {"scriptPubKey": {"reqSigs": 1, "hex": "a914fc728ea480dab48de1e3896b2010998cde2e172187", "addresses": ["3QhqSTZ9yTeKbq7E3yUBRDfGXBK2WL5aS4"], "asm": "OP_HASH160 fc728ea480dab48de1e3896b2010998cde2e1721 OP_EQUAL", "type": "scripthash"}, "value": 0.00070378, "n": 1}], "hex": "02000000000101435340e273f6ea7d5c05013d5a68d800ad50efa72433a99e1cc52cfc562e3f780100000017160014f61b32f88caf829bf760283f4d4932a5a2e1cbcafeffffff02543608000000000017a914a87ed96335b68146d40497336fd0a52a82b1987d87ea1201000000000017a914fc728ea480dab48de1e3896b2010998cde2e172187024730440220461eace1675b1b8439646ff6d52b676b76e0011c655dec138a31f42e05622812022053fbbda33f1641e30c096207ebdbbb9e7de33f134357a3e8b1f0d88e3010ba5c012102b3e80b66702362c2c88867944460fa5086902caf6ccd1da232302846fea3f2dec0480800", "vin": [{"txinwitness": ["30440220461eace1675b1b8439646ff6d52b676b76e0011c655dec138a31f42e05622812022053fbbda33f1641e30c096207ebdbbb9e7de33f134357a3e8b1f0d88e3010ba5c01", "02b3e80b66702362c2c88867944460fa5086902caf6ccd1da232302846fea3f2de"], "sequence": 4294967294, "scriptSig": {"hex": "160014f61b32f88caf829bf760283f4d4932a5a2e1cbca", "asm": "0014f61b32f88caf829bf760283f4d4932a5a2e1cbca"}, "vout": 1, "txid": "783f2e56fc2cc51c9ea93324a7ef50ad00d8685a3d01055c7deaf673e2405343"}], "txid": "ac4ed9deb50c699b508e0262638cca08a78a303c9146f72c21dcd5058198a419", "blocktime": 1537872475, "version": 2, "confirmations": 11487, "time": 1537872475, "locktime": 542912, "vsize": 166, "size": 247}