{"hash": "ac535bf85ae132b94d962a00efe4c57ebc5aa7288feaf3b73f22075f279885be", "blockhash": "0000000000000000001f76057863aec43deb6fa401d9628bb513d65a8098bfab", "vout": [{"scriptPubKey": {"reqSigs": 1, "hex": "a91404bb5bb0d44ae4b3dbbbe3649cee65db469249fc87", "addresses": ["32835BfhT8LNzWiVd2oSWCTfUzHCVYzXGa"], "asm": "OP_HASH160 04bb5bb0d44ae4b3dbbbe3649cee65db469249fc OP_EQUAL", "type": "scripthash"}, "value": 0.388146, "n": 0}, {"scriptPubKey": {"reqSigs": 1, "hex": "76a914a799138210fe5bc8c5a47427cf3c357666529b1788ac", "addresses": ["1GHBDxVWyWttW9qFdf1Emgz3MRQhf77Drd"], "asm": "OP_DUP OP_HASH160 a799138210fe5bc8c5a47427cf3c357666529b17 OP_EQUALVERIFY OP_CHECKSIG", "type": "pubkeyhash"}, "value": 14.49728583, "n": 1}], "hex": "01000000014572002e19fb23a3e45ec664ca68b418b6c1eb95d2b317f05e97fd72a67d3282010000008b483045022100c4bfe4da9468f3cbcdf8e4f19073808deb658b80bfe545d4de3c35136399d711022063b325c4e1a58e082ec5ed8d42c4c99c4b18c218e1619425d35438041079bb3d0141049c5251ac905c254f49de7d8b786abb05106d2ee95b0c257e8272e8fbd5ac274dd62796607c7347b23dbdd165faf9f45107bea6c6d3bd51e481eb149f96066e84fdffffff02884350020000000017a91404bb5bb0d44ae4b3dbbbe3649cee65db469249fc87471a6956000000001976a914a799138210fe5bc8c5a47427cf3c357666529b1788ac14490800", "vin": [{"sequence": 4294967293, "scriptSig": {"hex": "483045022100c4bfe4da9468f3cbcdf8e4f19073808deb658b80bfe545d4de3c35136399d711022063b325c4e1a58e082ec5ed8d42c4c99c4b18c218e1619425d35438041079bb3d0141049c5251ac905c254f49de7d8b786abb05106d2ee95b0c257e8272e8fbd5ac274dd62796607c7347b23dbdd165faf9f45107bea6c6d3bd51e481eb149f96066e84", "asm": "3045022100c4bfe4da9468f3cbcdf8e4f19073808deb658b80bfe545d4de3c35136399d711022063b325c4e1a58e082ec5ed8d42c4c99c4b18c218e1619425d35438041079bb3d[ALL] 049c5251ac905c254f49de7d8b786abb05106d2ee95b0c257e8272e8fbd5ac274dd62796607c7347b23dbdd165faf9f45107bea6c6d3bd51e481eb149f96066e84"}, "vout": 1, "txid": "82327da672fd975ef017b3d295ebc1b618b468ca64c65ee4a323fb192e007245"}], "txid": "ac535bf85ae132b94d962a00efe4c57ebc5aa7288feaf3b73f22075f279885be", "blocktime": 1537873891, "version": 1, "confirmations": 11477, "time": 1537873891, "locktime": 542996, "vsize": 256, "size": 256}