{"hash": "ac572fcab304442818395554f87d47379fc100659c5b81716cc149c6928825d1", "blockhash": "0000000000000000001cda96e906b7601b7a6fb1a3b62bca570a9e5d8f4b3de1", "vout": [{"scriptPubKey": {"reqSigs": 1, "hex": "76a91414df31c099b6204c93ae9bc5c35b1d0a5d49c6e388ac", "addresses": ["12uMtenuKzrSMNfRrccHy1qiPxMRJgwHd6"], "asm": "OP_DUP OP_HASH160 14df31c099b6204c93ae9bc5c35b1d0a5d49c6e3 OP_EQUALVERIFY OP_CHECKSIG", "type": "pubkeyhash"}, "value": 8.209e-05, "n": 0}, {"scriptPubKey": {"reqSigs": 1, "hex": "a9146980114aea026a9496f120ba8a911edb131c94ba87", "addresses": ["3BJrHyX5LT5HMqkWRLQRrwiQ3QZuPf8S2K"], "asm": "OP_HASH160 6980114aea026a9496f120ba8a911edb131c94ba OP_EQUAL", "type": "scripthash"}, "value": 0.0313, "n": 1}], "hex": "01000000016311b0653efb86c86b5da5ad35412dafd9e68a1d2dcf7712ece3a249eddafbec010000006a4730440220123dc91332fc687f23a0b744604f1f1c3ae4d866c0d5fbe76d052a1017bf70fd022052a5209f240060c3d2c8a3ba5713af5793fef33c2e2a6498320ca1658438e04301210263017702839ba21c0f2de530578a336e6e38ab292438ce0e46f3e1250241027cffffffff0211200000000000001976a91414df31c099b6204c93ae9bc5c35b1d0a5d49c6e388ac90c22f000000000017a9146980114aea026a9496f120ba8a911edb131c94ba8700000000", "vin": [{"sequence": 4294967295, "scriptSig": {"hex": "4730440220123dc91332fc687f23a0b744604f1f1c3ae4d866c0d5fbe76d052a1017bf70fd022052a5209f240060c3d2c8a3ba5713af5793fef33c2e2a6498320ca1658438e04301210263017702839ba21c0f2de530578a336e6e38ab292438ce0e46f3e1250241027c", "asm": "30440220123dc91332fc687f23a0b744604f1f1c3ae4d866c0d5fbe76d052a1017bf70fd022052a5209f240060c3d2c8a3ba5713af5793fef33c2e2a6498320ca1658438e043[ALL] 0263017702839ba21c0f2de530578a336e6e38ab292438ce0e46f3e1250241027c"}, "vout": 1, "txid": "ecfbdaed49a2e3ec1277cf2d1d8ae6d9af2d4135ada55d6bc886fb3e65b01163"}], "txid": "ac572fcab304442818395554f87d47379fc100659c5b81716cc149c6928825d1", "blocktime": 1537873282, "version": 1, "confirmations": 11482, "time": 1537873282, "locktime": 0, "vsize": 223, "size": 223}