{"hash": "5389d2198b6767b608de80120629ea1011dfd5b0f5fce3228428e65b2ae45887", "blockhash": "00000000000000000017f5eb5941039fbcee6240d03bc1f2f8e35350df66a1d8", "vout": [{"scriptPubKey": {"reqSigs": 1, "hex": "a9144b6fd4673632d85dcfdd46fe37f2dbc51e9b9f9887", "addresses": ["38ZtZzemQhY8fsMBSvqyCbN1qpWNxNjmwm"], "asm": "OP_HASH160 4b6fd4673632d85dcfdd46fe37f2dbc51e9b9f98 OP_EQUAL", "type": "scripthash"}, "value": 0.63029709, "n": 0}, {"scriptPubKey": {"reqSigs": 1, "hex": "a914cf2907822ea6ec09b4f48d036c3de8b4c539361287", "addresses": ["3LaNx29BCKZzRQreoRG4HSFytzwXAq3i1r"], "asm": "OP_HASH160 cf2907822ea6ec09b4f48d036c3de8b4c5393612 OP_EQUAL", "type": "scripthash"}, "value": 0.00574394, "n": 1}], "hex": "01000000000101d5aa3bc5f8f814667eb7309afdbdabc0ac4a5311d69bcacf850b12df65f160f901000000232200203d20ed9379f104c2dd9c21da323fa9dd86069341ff831dced922f6cc1ee03f68ffffffff02cdc1c1030000000017a9144b6fd4673632d85dcfdd46fe37f2dbc51e9b9f9887bac308000000000017a914cf2907822ea6ec09b4f48d036c3de8b4c539361287040047304402200fd32ec0fc6335436c1b34c58bd3f497b59d46c93862cde1ce6a20a75fcd92b702204c8de4cf360e9864ec3ff72c501a35aa0a246a41533d0e949b191f59c6f7d33c01483045022100fa73b324d3c0782808a8f756e818e5e0a89fcb0662a6e6a3b8b2270c0d008bd40220328e09cf3cd8e4f758ff3edb31c13cc0ad7c01188c937d17279044fe64b429780169522102561d425c7f8ec2d642f065948d3cd629f7c965e46151c89f4b72c700b64322eb21032c1783e00b2e86ac981d9016b2067709b87682cd56e4c197703a90c20a746ce521037fa9f3514d38083962146dcbff6ee8c169ef76fdd498c79fc6be64ec27c695ab53ae00000000", "vin": [{"txinwitness": ["", "304402200fd32ec0fc6335436c1b34c58bd3f497b59d46c93862cde1ce6a20a75fcd92b702204c8de4cf360e9864ec3ff72c501a35aa0a246a41533d0e949b191f59c6f7d33c01", "3045022100fa73b324d3c0782808a8f756e818e5e0a89fcb0662a6e6a3b8b2270c0d008bd40220328e09cf3cd8e4f758ff3edb31c13cc0ad7c01188c937d17279044fe64b4297801", "522102561d425c7f8ec2d642f065948d3cd629f7c965e46151c89f4b72c700b64322eb21032c1783e00b2e86ac981d9016b2067709b87682cd56e4c197703a90c20a746ce521037fa9f3514d38083962146dcbff6ee8c169ef76fdd498c79fc6be64ec27c695ab53ae"], "sequence": 4294967295, "scriptSig": {"hex": "2200203d20ed9379f104c2dd9c21da323fa9dd86069341ff831dced922f6cc1ee03f68", "asm": "00203d20ed9379f104c2dd9c21da323fa9dd86069341ff831dced922f6cc1ee03f68"}, "vout": 1, "txid": "f960f165df120b85cfca9bd611534aacc0abbdfd9a30b77e6614f8f8c53baad5"}], "txid": "ac5d5c25b237f6876049f07bd084f6d97c6402eeab24a1b05921588fba778191", "blocktime": 1537874412, "version": 1, "confirmations": 11467, "time": 1537874412, "locktime": 0, "vsize": 214, "size": 405}