{"hash": "ac6057de99d25313fee66ca2144f0ea710a565ff0bfb6008a68db356957294ec", "blockhash": "000000000000000000022b45ed06c6f4ccd3cf7fb5ba4856ebd2e58215665228", "vout": [{"scriptPubKey": {"reqSigs": 1, "hex": "2102ec0fa5a40f47fd4a38ea5c89e375ad0b6ddf4807c99733c9c3dc15fb978ee147ac", "addresses": ["178BewnLKcNCb7qvadgtHLJ5xkUgK9ifFY"], "asm": "02ec0fa5a40f47fd4a38ea5c89e375ad0b6ddf4807c99733c9c3dc15fb978ee147 OP_CHECKSIG", "type": "pubkey"}, "value": 0.0001, "n": 0}, {"scriptPubKey": {"reqSigs": 1, "hex": "2102ec0fa5a40f47fd4a38ea5c89e375ad0b6ddf4807c99733c9c3dc15fb978ee147ac", "addresses": ["178BewnLKcNCb7qvadgtHLJ5xkUgK9ifFY"], "asm": "02ec0fa5a40f47fd4a38ea5c89e375ad0b6ddf4807c99733c9c3dc15fb978ee147 OP_CHECKSIG", "type": "pubkey"}, "value": 0.0001, "n": 1}, {"scriptPubKey": {"reqSigs": 1, "hex": "2102ec0fa5a40f47fd4a38ea5c89e375ad0b6ddf4807c99733c9c3dc15fb978ee147ac", "addresses": ["178BewnLKcNCb7qvadgtHLJ5xkUgK9ifFY"], "asm": "02ec0fa5a40f47fd4a38ea5c89e375ad0b6ddf4807c99733c9c3dc15fb978ee147 OP_CHECKSIG", "type": "pubkey"}, "value": 0.0001, "n": 2}, {"scriptPubKey": {"reqSigs": 1, "hex": "2102ec0fa5a40f47fd4a38ea5c89e375ad0b6ddf4807c99733c9c3dc15fb978ee147ac", "addresses": ["178BewnLKcNCb7qvadgtHLJ5xkUgK9ifFY"], "asm": "02ec0fa5a40f47fd4a38ea5c89e375ad0b6ddf4807c99733c9c3dc15fb978ee147 OP_CHECKSIG", "type": "pubkey"}, "value": 0.0001, "n": 3}, {"scriptPubKey": {"reqSigs": 1, "hex": "2102ec0fa5a40f47fd4a38ea5c89e375ad0b6ddf4807c99733c9c3dc15fb978ee147ac", "addresses": ["178BewnLKcNCb7qvadgtHLJ5xkUgK9ifFY"], "asm": "02ec0fa5a40f47fd4a38ea5c89e375ad0b6ddf4807c99733c9c3dc15fb978ee147 OP_CHECKSIG", "type": "pubkey"}, "value": 0.0001, "n": 4}, {"scriptPubKey": {"reqSigs": 1, "hex": "2102ec0fa5a40f47fd4a38ea5c89e375ad0b6ddf4807c99733c9c3dc15fb978ee147ac", "addresses": ["178BewnLKcNCb7qvadgtHLJ5xkUgK9ifFY"], "asm": "02ec0fa5a40f47fd4a38ea5c89e375ad0b6ddf4807c99733c9c3dc15fb978ee147 OP_CHECKSIG", "type": "pubkey"}, "value": 0.0001, "n": 5}, {"scriptPubKey": {"reqSigs": 1, "hex": "2102ec0fa5a40f47fd4a38ea5c89e375ad0b6ddf4807c99733c9c3dc15fb978ee147ac", "addresses": ["178BewnLKcNCb7qvadgtHLJ5xkUgK9ifFY"], "asm": "02ec0fa5a40f47fd4a38ea5c89e375ad0b6ddf4807c99733c9c3dc15fb978ee147 OP_CHECKSIG", "type": "pubkey"}, "value": 0.0001, "n": 6}, {"scriptPubKey": {"reqSigs": 1, "hex": "2102ec0fa5a40f47fd4a38ea5c89e375ad0b6ddf4807c99733c9c3dc15fb978ee147ac", "addresses": ["178BewnLKcNCb7qvadgtHLJ5xkUgK9ifFY"], "asm": "02ec0fa5a40f47fd4a38ea5c89e375ad0b6ddf4807c99733c9c3dc15fb978ee147 OP_CHECKSIG", "type": "pubkey"}, "value": 0.0001, "n": 7}, {"scriptPubKey": {"reqSigs": 1, "hex": "2102ec0fa5a40f47fd4a38ea5c89e375ad0b6ddf4807c99733c9c3dc15fb978ee147ac", "addresses": ["178BewnLKcNCb7qvadgtHLJ5xkUgK9ifFY"], "asm": "02ec0fa5a40f47fd4a38ea5c89e375ad0b6ddf4807c99733c9c3dc15fb978ee147 OP_CHECKSIG", "type": "pubkey"}, "value": 0.0001, "n": 8}, {"scriptPubKey": {"reqSigs": 1, "hex": "2102ec0fa5a40f47fd4a38ea5c89e375ad0b6ddf4807c99733c9c3dc15fb978ee147ac", "addresses": ["178BewnLKcNCb7qvadgtHLJ5xkUgK9ifFY"], "asm": "02ec0fa5a40f47fd4a38ea5c89e375ad0b6ddf4807c99733c9c3dc15fb978ee147 OP_CHECKSIG", "type": "pubkey"}, "value": 0.0001, "n": 9}, {"scriptPubKey": {"reqSigs": 1, "hex": "2102ec0fa5a40f47fd4a38ea5c89e375ad0b6ddf4807c99733c9c3dc15fb978ee147ac", "addresses": ["178BewnLKcNCb7qvadgtHLJ5xkUgK9ifFY"], "asm": "02ec0fa5a40f47fd4a38ea5c89e375ad0b6ddf4807c99733c9c3dc15fb978ee147 OP_CHECKSIG", "type": "pubkey"}, "value": 0.0001, "n": 10}, {"scriptPubKey": {"reqSigs": 1, "hex": "2102ec0fa5a40f47fd4a38ea5c89e375ad0b6ddf4807c99733c9c3dc15fb978ee147ac", "addresses": ["178BewnLKcNCb7qvadgtHLJ5xkUgK9ifFY"], "asm": "02ec0fa5a40f47fd4a38ea5c89e375ad0b6ddf4807c99733c9c3dc15fb978ee147 OP_CHECKSIG", "type": "pubkey"}, "value": 0.0001, "n": 11}, {"scriptPubKey": {"reqSigs": 1, "hex": "76a914432c8f64747a2d6942e649dee834f1971642034e88ac", "addresses": ["178BewnLKcNCb7qvadgtHLJ5xkUgK9ifFY"], "asm": "OP_DUP OP_HASH160 432c8f64747a2d6942e649dee834f1971642034e OP_EQUALVERIFY OP_CHECKSIG", "type": "pubkeyhash"}, "value": 0.19364998, "n": 12}], "hex": "01000000015b5e78893a45f3ebfadc432a911e49e2b9a522bd947ce700d41a3e46bdf217000b0000006a47304402201187594f63dfbebc7320baa71ddd5d229c1a8f13744c385341d232b6b039cc8c02207b31a801bd68570b716452c91317da1691f9b60f41b212f918e8c6e8121bd5d7012102ec0fa5a40f47fd4a38ea5c89e375ad0b6ddf4807c99733c9c3dc15fb978ee147ffffffff0d1027000000000000232102ec0fa5a40f47fd4a38ea5c89e375ad0b6ddf4807c99733c9c3dc15fb978ee147ac1027000000000000232102ec0fa5a40f47fd4a38ea5c89e375ad0b6ddf4807c99733c9c3dc15fb978ee147ac1027000000000000232102ec0fa5a40f47fd4a38ea5c89e375ad0b6ddf4807c99733c9c3dc15fb978ee147ac1027000000000000232102ec0fa5a40f47fd4a38ea5c89e375ad0b6ddf4807c99733c9c3dc15fb978ee147ac1027000000000000232102ec0fa5a40f47fd4a38ea5c89e375ad0b6ddf4807c99733c9c3dc15fb978ee147ac1027000000000000232102ec0fa5a40f47fd4a38ea5c89e375ad0b6ddf4807c99733c9c3dc15fb978ee147ac1027000000000000232102ec0fa5a40f47fd4a38ea5c89e375ad0b6ddf4807c99733c9c3dc15fb978ee147ac1027000000000000232102ec0fa5a40f47fd4a38ea5c89e375ad0b6ddf4807c99733c9c3dc15fb978ee147ac1027000000000000232102ec0fa5a40f47fd4a38ea5c89e375ad0b6ddf4807c99733c9c3dc15fb978ee147ac1027000000000000232102ec0fa5a40f47fd4a38ea5c89e375ad0b6ddf4807c99733c9c3dc15fb978ee147ac1027000000000000232102ec0fa5a40f47fd4a38ea5c89e375ad0b6ddf4807c99733c9c3dc15fb978ee147ac1027000000000000232102ec0fa5a40f47fd4a38ea5c89e375ad0b6ddf4807c99733c9c3dc15fb978ee147ac867c2701000000001976a914432c8f64747a2d6942e649dee834f1971642034e88ac00000000", "vin": [{"sequence": 4294967295, "scriptSig": {"hex": "47304402201187594f63dfbebc7320baa71ddd5d229c1a8f13744c385341d232b6b039cc8c02207b31a801bd68570b716452c91317da1691f9b60f41b212f918e8c6e8121bd5d7012102ec0fa5a40f47fd4a38ea5c89e375ad0b6ddf4807c99733c9c3dc15fb978ee147", "asm": "304402201187594f63dfbebc7320baa71ddd5d229c1a8f13744c385341d232b6b039cc8c02207b31a801bd68570b716452c91317da1691f9b60f41b212f918e8c6e8121bd5d7[ALL] 02ec0fa5a40f47fd4a38ea5c89e375ad0b6ddf4807c99733c9c3dc15fb978ee147"}, "vout": 11, "txid": "0017f2bd463e1ad400e77c94bd22a5b9e2491e912a43dcfaebf3453a89785e5b"}], "txid": "ac6057de99d25313fee66ca2144f0ea710a565ff0bfb6008a68db356957294ec", "blocktime": 1537869901, "version": 1, "confirmations": 11522, "time": 1537869901, "locktime": 0, "vsize": 719, "size": 719}