{"hash": "2ea431c192f4342dcb930e219f0191223152ffeb3b9dd44bce1a46292f4cb198", "blockhash": "0000000000000000000baef3f32e3676a92c3b2e5da21b426e4f302fc371ce76", "vout": [{"scriptPubKey": {"reqSigs": 1, "hex": "76a9144404f4374aa547fbd218de92e3b376fc22475e0b88ac", "addresses": ["17CetFdZQr5md11m4Yfhzv86Yjw67iU8Kc"], "asm": "OP_DUP OP_HASH160 4404f4374aa547fbd218de92e3b376fc22475e0b OP_EQUALVERIFY OP_CHECKSIG", "type": "pubkeyhash"}, "value": 0.00188071, "n": 0}, {"scriptPubKey": {"reqSigs": 1, "hex": "a914a5c679defd49547b8133a1367eeadbdeaecec3da87", "addresses": ["3GoZBZ6F8g4UiCt7moPNLDX7KKwgtGgLUT"], "asm": "OP_HASH160 a5c679defd49547b8133a1367eeadbdeaecec3da OP_EQUAL", "type": "scripthash"}, "value": 0.28243951, "n": 1}], "hex": "0100000000010194d3f1c7900bc703a2c75c2eed433269533dcb8bc1aedd20f2768d48582383af01000000232200202d90cd274cea8141a030c0b79acc5b5c0b80b73d028692a1104913808bff6c09ffffffff02a7de0200000000001976a9144404f4374aa547fbd218de92e3b376fc22475e0b88aceff7ae010000000017a914a5c679defd49547b8133a1367eeadbdeaecec3da870400483045022100fdce4a5d758cb810d9e93c112ffff40fd94181b6ea73f9f29a999fa1aa2141d00220429a3747f5d93e0abdee98f0e21d255e8962cdad976727c62c6708a7b70321f901483045022100c6c80866a90a2d17a81a59f32402d25c930981a0008f62ec97906360eee9cea10220536aadc374cd1059109c42d96c3054ede47848a695ea542a37a48c4aac2a9293014752210295d70c0f10033e6e119fdc61ddd495bfe23995150af6df4688db5bf235f2853b21023e4b58fb2a91970de56515d11487aabd364f0404f1099bef70493cc56002342352ae00000000", "vin": [{"txinwitness": ["", "3045022100fdce4a5d758cb810d9e93c112ffff40fd94181b6ea73f9f29a999fa1aa2141d00220429a3747f5d93e0abdee98f0e21d255e8962cdad976727c62c6708a7b70321f901", "3045022100c6c80866a90a2d17a81a59f32402d25c930981a0008f62ec97906360eee9cea10220536aadc374cd1059109c42d96c3054ede47848a695ea542a37a48c4aac2a929301", "52210295d70c0f10033e6e119fdc61ddd495bfe23995150af6df4688db5bf235f2853b21023e4b58fb2a91970de56515d11487aabd364f0404f1099bef70493cc56002342352ae"], "sequence": 4294967295, "scriptSig": {"hex": "2200202d90cd274cea8141a030c0b79acc5b5c0b80b73d028692a1104913808bff6c09", "asm": "00202d90cd274cea8141a030c0b79acc5b5c0b80b73d028692a1104913808bff6c09"}, "vout": 1, "txid": "af832358488d76f220ddaec18bcb3d53693243ed2e5cc7a203c70b90c7f1d394"}], "txid": "ac61f29d47b7e51ff1898d9b30433bbd227b1b425b008f765dced6fcd87b5fc2", "blocktime": 1537876114, "version": 1, "confirmations": 11462, "time": 1537876114, "locktime": 0, "vsize": 208, "size": 374}