{"hash": "d23fca4308469b74c0fbffbc2db561240c6afdcc5866b737ec3d50be869aba75", "blockhash": "0000000000000000000e13cef7c366c0283d82e591d1acd082e914b08063cdf1", "vout": [{"scriptPubKey": {"reqSigs": 1, "hex": "0014b3bf9c588b4e32349b3aba464731b48bd2378f64", "addresses": ["bc1qkwleckytfcerfxe6hfrywvd530fr0rmyyy84y4"], "asm": "0 b3bf9c588b4e32349b3aba464731b48bd2378f64", "type": "witness_v0_keyhash"}, "value": 0.0078359, "n": 0}, {"scriptPubKey": {"reqSigs": 1, "hex": "76a9141dc4246f2e638e0e5ba5b26873edd8f4746675d588ac", "addresses": ["13iPZmgxNx6sNxDYGyVu36BRv9LXJoLYq7"], "asm": "OP_DUP OP_HASH160 1dc4246f2e638e0e5ba5b26873edd8f4746675d5 OP_EQUALVERIFY OP_CHECKSIG", "type": "pubkeyhash"}, "value": 0.05, "n": 1}], "hex": "01000000000101ffd647a9ae57795f52ec2b58fe43a3d188126d5be7482c63e53e99cac968d1e40200000017160014a91c8d09de6ea140f6b91d4c742d61c4a2fe3192ffffffff02e6f40b0000000000160014b3bf9c588b4e32349b3aba464731b48bd2378f64404b4c00000000001976a9141dc4246f2e638e0e5ba5b26873edd8f4746675d588ac02483045022100e78f80a5c0802892adfbd671dd67d634f729560d8f432a90d2bd092f8d093199022072b5901c9236ee524bee25dd591c6433f33fc412a49d3d26c4554e4543de1df4012102502193892068d7421e82c2f25edbfa4d33888fb7604c4d19a97a22b98053454d00000000", "vin": [{"txinwitness": ["3045022100e78f80a5c0802892adfbd671dd67d634f729560d8f432a90d2bd092f8d093199022072b5901c9236ee524bee25dd591c6433f33fc412a49d3d26c4554e4543de1df401", "02502193892068d7421e82c2f25edbfa4d33888fb7604c4d19a97a22b98053454d"], "sequence": 4294967295, "scriptSig": {"hex": "160014a91c8d09de6ea140f6b91d4c742d61c4a2fe3192", "asm": "0014a91c8d09de6ea140f6b91d4c742d61c4a2fe3192"}, "vout": 2, "txid": "e4d168c9ca993ee5632c48e75b6d1288d1a343fe582bec525f7957aea947d6ff"}], "txid": "ac676bb57558fd1a151a876cd3407325b69f884e06a8fc5ba458fda4d2a41af4", "blocktime": 1537871767, "version": 1, "confirmations": 11495, "time": 1537871767, "locktime": 0, "vsize": 167, "size": 249}