{"hash": "ac695304b6f2e68a8a2031d045daef6cd26ac5b55ca6dbc15039b8b24daf5812", "blockhash": "00000000000000000018f53835495a110e01622372bf6ae95dc86f2b0ab887b0", "vout": [{"scriptPubKey": {"reqSigs": 1, "hex": "76a914d243e6abb9a60fbff430b421d2df4b7d59ec186088ac", "addresses": ["1LAnF8h3qMGx3TSwNUHVneBZUEpwE4gu3D"], "asm": "OP_DUP OP_HASH160 d243e6abb9a60fbff430b421d2df4b7d59ec1860 OP_EQUALVERIFY OP_CHECKSIG", "type": "pubkeyhash"}, "value": 0.00076972, "n": 0}, {"scriptPubKey": {"reqSigs": 1, "hex": "76a9143851f34d13937b673a7d24a1950bb5b21ce94af388ac", "addresses": ["168o1kqNquEJeR9vosUB5fw4eAwcVAgh8P"], "asm": "OP_DUP OP_HASH160 3851f34d13937b673a7d24a1950bb5b21ce94af3 OP_EQUALVERIFY OP_CHECKSIG", "type": "pubkeyhash"}, "value": 5.46e-06, "n": 1}, {"scriptPubKey": {"type": "nulldata", "hex": "6a146f6d6e69000000000000001f00000018727cda00", "asm": "OP_RETURN 6f6d6e69000000000000001f00000018727cda00"}, "value": 0.0, "n": 2}], "hex": "0100000002356b0eb644394e44183c0bb611184bb02f7f9cac17310094d47c07cd4b415fc5020000006b483045022100a579f2ab3a36686b18067f4e973b2b3dbfae6d34c986c6ccc5ac7a1966bdcfde02202fb50d0b98d96add472c0057e3f6ff09f3dd287ef4a25d25d0c9a0e96e4effed012102c87639b545cfb993fea1ac4dc540b3d0ce4a640695c25dadd75d1f7e9d0b20d2ffffffffe37a470ed0226e9ac6dea39bb1b21c782b4148bbd0a2913c04883da74a0164cb000000006a473044022027138218c4cea3f8249b2c8ec882a91956fd0977b218a2a9ba993619e01c32c702201a95d61b9683f69b61171aaa2ccdb76d077b842a14bead17c5d4f99cb26973fc01210271977291b74f1f5f5c42157e8aae804664eaaeccfd097918450d37f28fb94d77ffffffff03ac2c0100000000001976a914d243e6abb9a60fbff430b421d2df4b7d59ec186088ac22020000000000001976a9143851f34d13937b673a7d24a1950bb5b21ce94af388ac0000000000000000166a146f6d6e69000000000000001f00000018727cda0000000000", "vin": [{"sequence": 4294967295, "scriptSig": {"hex": "483045022100a579f2ab3a36686b18067f4e973b2b3dbfae6d34c986c6ccc5ac7a1966bdcfde02202fb50d0b98d96add472c0057e3f6ff09f3dd287ef4a25d25d0c9a0e96e4effed012102c87639b545cfb993fea1ac4dc540b3d0ce4a640695c25dadd75d1f7e9d0b20d2", "asm": "3045022100a579f2ab3a36686b18067f4e973b2b3dbfae6d34c986c6ccc5ac7a1966bdcfde02202fb50d0b98d96add472c0057e3f6ff09f3dd287ef4a25d25d0c9a0e96e4effed[ALL] 02c87639b545cfb993fea1ac4dc540b3d0ce4a640695c25dadd75d1f7e9d0b20d2"}, "vout": 2, "txid": "c55f414bcd077cd494003117ac9c7f2fb04b1811b60b3c18444e3944b60e6b35"}, {"sequence": 4294967295, "scriptSig": {"hex": "473044022027138218c4cea3f8249b2c8ec882a91956fd0977b218a2a9ba993619e01c32c702201a95d61b9683f69b61171aaa2ccdb76d077b842a14bead17c5d4f99cb26973fc01210271977291b74f1f5f5c42157e8aae804664eaaeccfd097918450d37f28fb94d77", "asm": "3044022027138218c4cea3f8249b2c8ec882a91956fd0977b218a2a9ba993619e01c32c702201a95d61b9683f69b61171aaa2ccdb76d077b842a14bead17c5d4f99cb26973fc[ALL] 0271977291b74f1f5f5c42157e8aae804664eaaeccfd097918450d37f28fb94d77"}, "vout": 0, "txid": "cb64014aa73d88043c91a2d0bb48412b781cb2b19ba3dec69a6e22d00e477ae3"}], "txid": "ac695304b6f2e68a8a2031d045daef6cd26ac5b55ca6dbc15039b8b24daf5812", "blocktime": 1537870928, "version": 1, "confirmations": 11512, "time": 1537870928, "locktime": 0, "vsize": 404, "size": 404}