{"hash": "ac74828e8b573dd2ee13fbc8d82b8001d6ed27511fdf88ab07e5198df4a4ce6b", "blockhash": "0000000000000000001cda96e906b7601b7a6fb1a3b62bca570a9e5d8f4b3de1", "vout": [{"scriptPubKey": {"reqSigs": 1, "hex": "76a9144115903fa8b139879f7a44b1141efaac072b150888ac", "addresses": ["16w8kj4gkcJvKRmJmksVUnbgAoF7pXsFc3"], "asm": "OP_DUP OP_HASH160 4115903fa8b139879f7a44b1141efaac072b1508 OP_EQUALVERIFY OP_CHECKSIG", "type": "pubkeyhash"}, "value": 0.00012918, "n": 0}, {"scriptPubKey": {"reqSigs": 1, "hex": "a9147f914ef86d48186a3473aec948bb39da867c2ef287", "addresses": ["3DKXp7hRN8RWcuuavgK4g9UwZtTD3SUYMA"], "asm": "OP_HASH160 7f914ef86d48186a3473aec948bb39da867c2ef2 OP_EQUAL", "type": "scripthash"}, "value": 0.03689326, "n": 1}], "hex": "010000000109103af6dae9b41f71c9e629ace86be0da9090cdbec895b59c3bc21ac397f175010000006a4730440220676febdf3ce6a5c7f24638b528312bf636b8c68941daef254dc7a4d7a3b613a20220288fe1092d685881fdd9766e0a7276f0d4da031843e12a6f0c5ee7217bc2be050121024b37146925fb0478925471ef89801555768266e128aaf7dd02d0e89d570de3d3ffffffff0276320000000000001976a9144115903fa8b139879f7a44b1141efaac072b150888ac6e4b38000000000017a9147f914ef86d48186a3473aec948bb39da867c2ef28700000000", "vin": [{"sequence": 4294967295, "scriptSig": {"hex": "4730440220676febdf3ce6a5c7f24638b528312bf636b8c68941daef254dc7a4d7a3b613a20220288fe1092d685881fdd9766e0a7276f0d4da031843e12a6f0c5ee7217bc2be050121024b37146925fb0478925471ef89801555768266e128aaf7dd02d0e89d570de3d3", "asm": "30440220676febdf3ce6a5c7f24638b528312bf636b8c68941daef254dc7a4d7a3b613a20220288fe1092d685881fdd9766e0a7276f0d4da031843e12a6f0c5ee7217bc2be05[ALL] 024b37146925fb0478925471ef89801555768266e128aaf7dd02d0e89d570de3d3"}, "vout": 1, "txid": "75f197c31ac23b9cb595c8becd9090dae06be8ac29e6c9711fb4e9daf63a1009"}], "txid": "ac74828e8b573dd2ee13fbc8d82b8001d6ed27511fdf88ab07e5198df4a4ce6b", "blocktime": 1537873282, "version": 1, "confirmations": 11484, "time": 1537873282, "locktime": 0, "vsize": 223, "size": 223}