{"hash": "ac76489c3e405478f7406bf1437f0f6780365722278b0783742c7e35396dbb05", "blockhash": "0000000000000000001cda96e906b7601b7a6fb1a3b62bca570a9e5d8f4b3de1", "vout": [{"scriptPubKey": {"reqSigs": 1, "hex": "76a914eda544c978039021fc3b5bf9fb055ac0e553f14088ac", "addresses": ["1NfZ8XzX4CPDoi923SEovLR5oXsd7uV1Ab"], "asm": "OP_DUP OP_HASH160 eda544c978039021fc3b5bf9fb055ac0e553f140 OP_EQUALVERIFY OP_CHECKSIG", "type": "pubkeyhash"}, "value": 0.00153136, "n": 0}, {"scriptPubKey": {"reqSigs": 1, "hex": "76a914aff90134e122fdff3499826e80f429ed88abdd8188ac", "addresses": ["1H3TYipnTWjbWUacJfJVisN2ytw6MiMXS7"], "asm": "OP_DUP OP_HASH160 aff90134e122fdff3499826e80f429ed88abdd81 OP_EQUALVERIFY OP_CHECKSIG", "type": "pubkeyhash"}, "value": 0.05, "n": 1}], "hex": "0100000003912688c7b8eaf01b9384129d2109b1a2acdd4d8b992011dc8f44a2629296425a000000006b483045022100d9c1f2ca27fb66cd51cbe59801c7827441bc12752e4b1e3ed7e58c0865e1a676022067292b5d0371c10a4fea982a4ecc40dd7924b72d4d63abf3cb581566e55147130121038755f304e3e9dab6441e5d8347fc60f7574545dd5b2c584779424e0284bd7513fffffffff55a5e3c881829b3bc2fb4f7a0d4b4e84497f4a555604c0577626fa6cbd0859b000000006b483045022100d604f2e395bd38a6a3ff368842f478a6ebfb78ac47cf8f8c48a705dd0007ef2b022014bbbe8b30c8a55fb27b3e26b18e00ffd1f55943935a81abc10808b1645f8d19012103cedd6cb8b28c928a49f31f1cd31597b2e0b4e8673e7106089486269c2b942d35ffffffff1083f4d6795459501e4295081a6027adaa449508df56c35f55f54db1521653c0010000006b48304502210098cacd8dab5e0ab78d0cd5804cbffdff859b5c7f843189a7b371689eeb00eb7b02204146e88691510eebc255167d68c9a18259c2db2b1d975fa9dbcb098a21b35950012102698fa366152b0b692c5ea016090ee457eef060008e7f3916473de7473c38a104ffffffff0230560200000000001976a914eda544c978039021fc3b5bf9fb055ac0e553f14088ac404b4c00000000001976a914aff90134e122fdff3499826e80f429ed88abdd8188ac00000000", "vin": [{"sequence": 4294967295, "scriptSig": {"hex": "483045022100d9c1f2ca27fb66cd51cbe59801c7827441bc12752e4b1e3ed7e58c0865e1a676022067292b5d0371c10a4fea982a4ecc40dd7924b72d4d63abf3cb581566e55147130121038755f304e3e9dab6441e5d8347fc60f7574545dd5b2c584779424e0284bd7513", "asm": "3045022100d9c1f2ca27fb66cd51cbe59801c7827441bc12752e4b1e3ed7e58c0865e1a676022067292b5d0371c10a4fea982a4ecc40dd7924b72d4d63abf3cb581566e5514713[ALL] 038755f304e3e9dab6441e5d8347fc60f7574545dd5b2c584779424e0284bd7513"}, "vout": 0, "txid": "5a42969262a2448fdc1120998b4dddaca2b109219d1284931bf0eab8c7882691"}, {"sequence": 4294967295, "scriptSig": {"hex": "483045022100d604f2e395bd38a6a3ff368842f478a6ebfb78ac47cf8f8c48a705dd0007ef2b022014bbbe8b30c8a55fb27b3e26b18e00ffd1f55943935a81abc10808b1645f8d19012103cedd6cb8b28c928a49f31f1cd31597b2e0b4e8673e7106089486269c2b942d35", "asm": "3045022100d604f2e395bd38a6a3ff368842f478a6ebfb78ac47cf8f8c48a705dd0007ef2b022014bbbe8b30c8a55fb27b3e26b18e00ffd1f55943935a81abc10808b1645f8d19[ALL] 03cedd6cb8b28c928a49f31f1cd31597b2e0b4e8673e7106089486269c2b942d35"}, "vout": 0, "txid": "9b85d0cba66f6277054c6055a5f49744e8b4d4a0f7b42fbcb32918883c5e5af5"}, {"sequence": 4294967295, "scriptSig": {"hex": "48304502210098cacd8dab5e0ab78d0cd5804cbffdff859b5c7f843189a7b371689eeb00eb7b02204146e88691510eebc255167d68c9a18259c2db2b1d975fa9dbcb098a21b35950012102698fa366152b0b692c5ea016090ee457eef060008e7f3916473de7473c38a104", "asm": "304502210098cacd8dab5e0ab78d0cd5804cbffdff859b5c7f843189a7b371689eeb00eb7b02204146e88691510eebc255167d68c9a18259c2db2b1d975fa9dbcb098a21b35950[ALL] 02698fa366152b0b692c5ea016090ee457eef060008e7f3916473de7473c38a104"}, "vout": 1, "txid": "c0531652b14df5555fc356df089544aaad27601a0895421e50595479d6f48310"}], "txid": "ac76489c3e405478f7406bf1437f0f6780365722278b0783742c7e35396dbb05", "blocktime": 1537873282, "version": 1, "confirmations": 11481, "time": 1537873282, "locktime": 0, "vsize": 522, "size": 522}