{"hash": "ac80313acb39ec13dbefee9ed36637653c424cbfb404d762775c06c005b20ae9", "blockhash": "00000000000000000018f53835495a110e01622372bf6ae95dc86f2b0ab887b0", "vout": [{"scriptPubKey": {"reqSigs": 1, "hex": "76a914ff01e38f4e8da58c4f5025f4639322071bae0c1788ac", "addresses": ["1QFMaAHwTUGD1wfdRfSL15c5r72Shdj9Wf"], "asm": "OP_DUP OP_HASH160 ff01e38f4e8da58c4f5025f4639322071bae0c17 OP_EQUALVERIFY OP_CHECKSIG", "type": "pubkeyhash"}, "value": 0.0079074, "n": 0}, {"scriptPubKey": {"reqSigs": 1, "hex": "76a914389f1476a49f7d527acda97507f342947db8e0cb88ac", "addresses": ["16APQozTnqFG7Vb6FLVAuaS3sMfq7WqjdS"], "asm": "OP_DUP OP_HASH160 389f1476a49f7d527acda97507f342947db8e0cb OP_EQUALVERIFY OP_CHECKSIG", "type": "pubkeyhash"}, "value": 0.01833888, "n": 1}], "hex": "0100000001ca04697fe8dc76ea22f47fb43fb2d5ab09192561627f4fe731453529a69ebf87000000006b483045022100cd49044486f2f477b6ee4382ccb034df4640411c5308fd13c992574487f9650c02202ac0e9e71a0b2e62b68d3b66833e887632390069d92b544aa1693a106339dc570121029075c5d83e020812ccc77081ac8fe6e1c306e214f933991802043c24b056c2feffffffff02d4100c00000000001976a914ff01e38f4e8da58c4f5025f4639322071bae0c1788aca0fb1b00000000001976a914389f1476a49f7d527acda97507f342947db8e0cb88ac00000000", "vin": [{"sequence": 4294967295, "scriptSig": {"hex": "483045022100cd49044486f2f477b6ee4382ccb034df4640411c5308fd13c992574487f9650c02202ac0e9e71a0b2e62b68d3b66833e887632390069d92b544aa1693a106339dc570121029075c5d83e020812ccc77081ac8fe6e1c306e214f933991802043c24b056c2fe", "asm": "3045022100cd49044486f2f477b6ee4382ccb034df4640411c5308fd13c992574487f9650c02202ac0e9e71a0b2e62b68d3b66833e887632390069d92b544aa1693a106339dc57[ALL] 029075c5d83e020812ccc77081ac8fe6e1c306e214f933991802043c24b056c2fe"}, "vout": 0, "txid": "87bf9ea629354531e74f7f6261251909abd5b23fb47ff422ea76dce87f6904ca"}], "txid": "ac80313acb39ec13dbefee9ed36637653c424cbfb404d762775c06c005b20ae9", "blocktime": 1537870928, "version": 1, "confirmations": 11514, "time": 1537870928, "locktime": 0, "vsize": 226, "size": 226}