{"hash": "ac820a95e65b010f72afc853dd022c9cf86ba7d69fde3363b56b18286df9ad26", "blockhash": "00000000000000000004ffacab907a6b429b9a5745fa0b75af4234bf69dd7176", "vout": [{"scriptPubKey": {"reqSigs": 1, "hex": "76a9144dd481a5a3ffdaf21ba7f3a1377717bdbdba602688ac", "addresses": ["186XbyezA5TVmaiKzMxwTCvjtQn8iAEta8"], "asm": "OP_DUP OP_HASH160 4dd481a5a3ffdaf21ba7f3a1377717bdbdba6026 OP_EQUALVERIFY OP_CHECKSIG", "type": "pubkeyhash"}, "value": 0.005, "n": 0}, {"scriptPubKey": {"reqSigs": 1, "hex": "76a9142190860c670cb3c99a16754826640b623e8be30688ac", "addresses": ["144US1U2HAQ59dH1riDNtvryQMzVzQkhim"], "asm": "OP_DUP OP_HASH160 2190860c670cb3c99a16754826640b623e8be306 OP_EQUALVERIFY OP_CHECKSIG", "type": "pubkeyhash"}, "value": 0.00903504, "n": 1}], "hex": "020000000624e48eabda7b66f1f587bf3ed4ec5b6d9d0d230915c3664c9bcfc12eb534685f300000006b483045022100b5df73ba7fdbb40167254c54925a7b0303afe8f2cd399335152da3cf11996a3c02201dc50345f737b2663d57cee134b8204b3cdcdb1a93cb5ac99dba18e338ebd40e0121029ec53ec85ea0cf7b97c4f63163392a4ec6e3b6b5d59d1a0eaab660b3ec70ed0afeffffff4fcf7bd2f569a593734a2ea3819b4c8e80f9e2515503adde8bff7728a4537031620000006b4830450221008d122e2f56a061b35a76038b4b033f667a58882444d8f8a00ce64b2f7f71ad6c022078e2e315e5e4a19a372675dc60dd207dad764a259d879df1fa05c5f4f4043b9e01210292657307184273f0ec7cab31ed3b352023b7467b4cb291e2aa3b9401292079b8feffffff7f803f7e022f5381cb54a48f56fb174bb943e9639b68b1fe02838007b741ee9e160300006a47304402202c209b26dc8cad13e16c99f3a5191654581a3fdb9fc7a79010374e15816c7c8d02206cb604e6cbfde3a796579742c4a88222055dcb0dc5f341a5752c96039f21cbb40121036d456a17788908c5e114502cadd4a85bf83885964300234ca37a020f708c4ec6feffffff8b32c5a6456d46c3e1a2efcb33815dfda955bbf44ebe5f830067340a9801f212100000006b483045022100b4de74b0085128bea66af04f4b962608c16780eb412cd4d0e0a9a9b971c5548a02205c06447bee5293404b230e67ddc66f4586726aceea8be20555b5f6c8afb45c9d012103b462d47ad486e7ffce6b989f9f86e6163c6b4b04018b9750cf9b30ca1bff049cfeffffffb573a1af446da9e12e28c4ec23506ed737998460aa7d3df0c07ee54fc0318a58020000006a47304402206e83e3505dcadd0c51e6007729465386c0a20eed37b293f552c9645cf21b062102203b34782ad761740051f87263e3e3aa8a30dba09e201fa016cf3cce083829b560012102e991fd2c8e3c922dc3e2e468d41b1fccdd4a6332b4c5c0bc33065437a67e7af3feffffffc13c83bcc3caff127d10030d95e98053a99ff81984d208715be68eca5949a15d2c0000006b483045022100bde097b4f028e055a9da27a8aac1077f259a755d88304907964d688e4b25327202203ae45660ec3383f37fcbb40bc7d98da1f18b79ceffc0d593201cda2269fac7d5012102a2bc9ab5423fd1854d662d6845b1fee5203b17bce6cd1212d0564c3a4c21f3c5feffffff0220a10700000000001976a9144dd481a5a3ffdaf21ba7f3a1377717bdbdba602688ac50c90d00000000001976a9142190860c670cb3c99a16754826640b623e8be30688ac16490800", "vin": [{"sequence": 4294967294, "scriptSig": {"hex": "483045022100b5df73ba7fdbb40167254c54925a7b0303afe8f2cd399335152da3cf11996a3c02201dc50345f737b2663d57cee134b8204b3cdcdb1a93cb5ac99dba18e338ebd40e0121029ec53ec85ea0cf7b97c4f63163392a4ec6e3b6b5d59d1a0eaab660b3ec70ed0a", "asm": "3045022100b5df73ba7fdbb40167254c54925a7b0303afe8f2cd399335152da3cf11996a3c02201dc50345f737b2663d57cee134b8204b3cdcdb1a93cb5ac99dba18e338ebd40e[ALL] 029ec53ec85ea0cf7b97c4f63163392a4ec6e3b6b5d59d1a0eaab660b3ec70ed0a"}, "vout": 48, "txid": "5f6834b52ec1cf9b4c66c31509230d9d6d5becd43ebf87f5f1667bdaab8ee424"}, {"sequence": 4294967294, "scriptSig": {"hex": "4830450221008d122e2f56a061b35a76038b4b033f667a58882444d8f8a00ce64b2f7f71ad6c022078e2e315e5e4a19a372675dc60dd207dad764a259d879df1fa05c5f4f4043b9e01210292657307184273f0ec7cab31ed3b352023b7467b4cb291e2aa3b9401292079b8", "asm": "30450221008d122e2f56a061b35a76038b4b033f667a58882444d8f8a00ce64b2f7f71ad6c022078e2e315e5e4a19a372675dc60dd207dad764a259d879df1fa05c5f4f4043b9e[ALL] 0292657307184273f0ec7cab31ed3b352023b7467b4cb291e2aa3b9401292079b8"}, "vout": 98, "txid": "317053a42877ff8bdead035551e2f9808e4c9b81a32e4a7393a569f5d27bcf4f"}, {"sequence": 4294967294, "scriptSig": {"hex": "47304402202c209b26dc8cad13e16c99f3a5191654581a3fdb9fc7a79010374e15816c7c8d02206cb604e6cbfde3a796579742c4a88222055dcb0dc5f341a5752c96039f21cbb40121036d456a17788908c5e114502cadd4a85bf83885964300234ca37a020f708c4ec6", "asm": "304402202c209b26dc8cad13e16c99f3a5191654581a3fdb9fc7a79010374e15816c7c8d02206cb604e6cbfde3a796579742c4a88222055dcb0dc5f341a5752c96039f21cbb4[ALL] 036d456a17788908c5e114502cadd4a85bf83885964300234ca37a020f708c4ec6"}, "vout": 790, "txid": "9eee41b707808302feb1689b63e943b94b17fb568fa454cb81532f027e3f807f"}, {"sequence": 4294967294, "scriptSig": {"hex": "483045022100b4de74b0085128bea66af04f4b962608c16780eb412cd4d0e0a9a9b971c5548a02205c06447bee5293404b230e67ddc66f4586726aceea8be20555b5f6c8afb45c9d012103b462d47ad486e7ffce6b989f9f86e6163c6b4b04018b9750cf9b30ca1bff049c", "asm": "3045022100b4de74b0085128bea66af04f4b962608c16780eb412cd4d0e0a9a9b971c5548a02205c06447bee5293404b230e67ddc66f4586726aceea8be20555b5f6c8afb45c9d[ALL] 03b462d47ad486e7ffce6b989f9f86e6163c6b4b04018b9750cf9b30ca1bff049c"}, "vout": 16, "txid": "12f201980a346700835fbe4ef4bb55a9fd5d8133cbefa2e1c3466d45a6c5328b"}, {"sequence": 4294967294, "scriptSig": {"hex": "47304402206e83e3505dcadd0c51e6007729465386c0a20eed37b293f552c9645cf21b062102203b34782ad761740051f87263e3e3aa8a30dba09e201fa016cf3cce083829b560012102e991fd2c8e3c922dc3e2e468d41b1fccdd4a6332b4c5c0bc33065437a67e7af3", "asm": "304402206e83e3505dcadd0c51e6007729465386c0a20eed37b293f552c9645cf21b062102203b34782ad761740051f87263e3e3aa8a30dba09e201fa016cf3cce083829b560[ALL] 02e991fd2c8e3c922dc3e2e468d41b1fccdd4a6332b4c5c0bc33065437a67e7af3"}, "vout": 2, "txid": "588a31c04fe57ec0f03d7daa60849937d76e5023ecc4282ee1a96d44afa173b5"}, {"sequence": 4294967294, "scriptSig": {"hex": "483045022100bde097b4f028e055a9da27a8aac1077f259a755d88304907964d688e4b25327202203ae45660ec3383f37fcbb40bc7d98da1f18b79ceffc0d593201cda2269fac7d5012102a2bc9ab5423fd1854d662d6845b1fee5203b17bce6cd1212d0564c3a4c21f3c5", "asm": "3045022100bde097b4f028e055a9da27a8aac1077f259a755d88304907964d688e4b25327202203ae45660ec3383f37fcbb40bc7d98da1f18b79ceffc0d593201cda2269fac7d5[ALL] 02a2bc9ab5423fd1854d662d6845b1fee5203b17bce6cd1212d0564c3a4c21f3c5"}, "vout": 44, "txid": "5da14959ca8ee65b7108d28419f89fa95380e9950d03107d12ffcac3bc833cc1"}], "txid": "ac820a95e65b010f72afc853dd022c9cf86ba7d69fde3363b56b18286df9ad26", "blocktime": 1537875543, "version": 2, "confirmations": 11464, "time": 1537875543, "locktime": 542998, "vsize": 964, "size": 964}