{"hash": "46dcabd58fde62aa4bfbf76d339d879487953bb1c44f092268f2b3296abcc15c", "blockhash": "000000000000000000022b45ed06c6f4ccd3cf7fb5ba4856ebd2e58215665228", "vout": [{"scriptPubKey": {"reqSigs": 1, "hex": "76a91459fd94229d7f2a686c1e8ce0bae5e3f06153978988ac", "addresses": ["19Cpv2YXGgtzFwrAKyz6yWzwXRHYRfPWbW"], "asm": "OP_DUP OP_HASH160 59fd94229d7f2a686c1e8ce0bae5e3f061539789 OP_EQUALVERIFY OP_CHECKSIG", "type": "pubkeyhash"}, "value": 0.042, "n": 0}, {"scriptPubKey": {"reqSigs": 1, "hex": "00147ab1f350b826b51b60e0b97fefcc8021707284cf", "addresses": ["bc1q02clx59cy663kc8qh9l7lnyqy9c89px06fjs00"], "asm": "0 7ab1f350b826b51b60e0b97fefcc8021707284cf", "type": "witness_v0_keyhash"}, "value": 0.00480669, "n": 1}], "hex": "01000000000101880b70bcc73a172f6765b3e1ec9298c25d6c4d3321b9c66fab6ee7701416811801000000171600145fbcfa24912b998c63b82c60072ff10e319db0e3ffffffff0240164000000000001976a91459fd94229d7f2a686c1e8ce0bae5e3f06153978988ac9d550700000000001600147ab1f350b826b51b60e0b97fefcc8021707284cf02483045022100c9c787f68b815dbdfe3f5bcaaf43fcdc6a0be2888c02abc4fe3eaa9d9ff421c1022065e1569499a173ce3055e1588d5f4ff54a99b1356918cc40d60ab07d682dafcb012103aa65252b4740d7350a75a7e52adcbce4d10e94138df0524d4e71899daa05811c00000000", "vin": [{"txinwitness": ["3045022100c9c787f68b815dbdfe3f5bcaaf43fcdc6a0be2888c02abc4fe3eaa9d9ff421c1022065e1569499a173ce3055e1588d5f4ff54a99b1356918cc40d60ab07d682dafcb01", "03aa65252b4740d7350a75a7e52adcbce4d10e94138df0524d4e71899daa05811c"], "sequence": 4294967295, "scriptSig": {"hex": "1600145fbcfa24912b998c63b82c60072ff10e319db0e3", "asm": "00145fbcfa24912b998c63b82c60072ff10e319db0e3"}, "vout": 1, "txid": "1881161470e76eab6fc6b921334d6c5dc29892ece1b365672f173ac7bc700b88"}], "txid": "ac8409eda0aeb76756d26d071fa7484523dccad91298ee4132e32f8268d16aa2", "blocktime": 1537869901, "version": 1, "confirmations": 11523, "time": 1537869901, "locktime": 0, "vsize": 167, "size": 249}