{"hash": "ac884a519dafe5aec5fe2f686da6edd5d9b56c5cf75d87b9c9239b996e91b0d0", "blockhash": "0000000000000000000e13cef7c366c0283d82e591d1acd082e914b08063cdf1", "vout": [{"scriptPubKey": {"reqSigs": 1, "hex": "76a9148d886d0538386abc44ff8aa6f80f543cc64f264e88ac", "addresses": ["1DuMi5pVT867W5LgnwwRHmu7zQJADnzeSz"], "asm": "OP_DUP OP_HASH160 8d886d0538386abc44ff8aa6f80f543cc64f264e OP_EQUALVERIFY OP_CHECKSIG", "type": "pubkeyhash"}, "value": 0.00100228, "n": 0}, {"scriptPubKey": {"reqSigs": 1, "hex": "76a9142630bd363270eeb4e19f0f9279d4db9db62dd76f88ac", "addresses": ["14Uw4k3eAsauHMHv3yerXGfhTLmj52EpR6"], "asm": "OP_DUP OP_HASH160 2630bd363270eeb4e19f0f9279d4db9db62dd76f OP_EQUALVERIFY OP_CHECKSIG", "type": "pubkeyhash"}, "value": 0.096206, "n": 1}], "hex": "0100000002e29c2a211735290439df4b5da1a9c9cfbcc81a196ec2568b7140a53af7c04c2a160000006a47304402201bebec625884456579500e566e90ff6fe0472daf5ca5d118afc9fb070b4ce7e002207a0bb56002db0f9fa17691796db8320513c9ed604508075088b5a889d04a77a3012103f4cc1fb80a34d1a27642865e1d88811855f812a1daed9fb4be3e4686860f39a4ffffffff07803117643aa6573005d1a6d989b7470c4ab4d6d308e2eb0b1e8a77f5e6d99c0a0000006b483045022100a4f12076958104ab1caf51e2e3709cbf225a28ee8b6bdfa43bc69ea620b388e6022004d8e44dca1a0be8925afb2d2ac184e7d2d1738479d7c908fa08f1366af243fa012102afabf9d98d409fc1c49b80da776ae63c1389f755e7e0b759c1a103425beb5fc1ffffffff0284870100000000001976a9148d886d0538386abc44ff8aa6f80f543cc64f264e88ac78cc9200000000001976a9142630bd363270eeb4e19f0f9279d4db9db62dd76f88ac00000000", "vin": [{"sequence": 4294967295, "scriptSig": {"hex": "47304402201bebec625884456579500e566e90ff6fe0472daf5ca5d118afc9fb070b4ce7e002207a0bb56002db0f9fa17691796db8320513c9ed604508075088b5a889d04a77a3012103f4cc1fb80a34d1a27642865e1d88811855f812a1daed9fb4be3e4686860f39a4", "asm": "304402201bebec625884456579500e566e90ff6fe0472daf5ca5d118afc9fb070b4ce7e002207a0bb56002db0f9fa17691796db8320513c9ed604508075088b5a889d04a77a3[ALL] 03f4cc1fb80a34d1a27642865e1d88811855f812a1daed9fb4be3e4686860f39a4"}, "vout": 22, "txid": "2a4cc0f73aa540718b56c26e191ac8bccfc9a9a15d4bdf3904293517212a9ce2"}, {"sequence": 4294967295, "scriptSig": {"hex": "483045022100a4f12076958104ab1caf51e2e3709cbf225a28ee8b6bdfa43bc69ea620b388e6022004d8e44dca1a0be8925afb2d2ac184e7d2d1738479d7c908fa08f1366af243fa012102afabf9d98d409fc1c49b80da776ae63c1389f755e7e0b759c1a103425beb5fc1", "asm": "3045022100a4f12076958104ab1caf51e2e3709cbf225a28ee8b6bdfa43bc69ea620b388e6022004d8e44dca1a0be8925afb2d2ac184e7d2d1738479d7c908fa08f1366af243fa[ALL] 02afabf9d98d409fc1c49b80da776ae63c1389f755e7e0b759c1a103425beb5fc1"}, "vout": 10, "txid": "9cd9e6f5778a1e0bebe208d3d6b44a0c47b789d9a6d1053057a63a6417318007"}], "txid": "ac884a519dafe5aec5fe2f686da6edd5d9b56c5cf75d87b9c9239b996e91b0d0", "blocktime": 1537871767, "version": 1, "confirmations": 11495, "time": 1537871767, "locktime": 0, "vsize": 373, "size": 373}