{"hash": "8f6eaa3c31853379df45821cfe5244a2e39f8c1e50cc82f04d6d7df61b8eb44f", "blockhash": "0000000000000000001f76057863aec43deb6fa401d9628bb513d65a8098bfab", "vout": [{"scriptPubKey": {"reqSigs": 1, "hex": "0014fea136b86c5086bfe3663eec0cf2a727f8a9545d", "addresses": ["bc1ql6sndwrv2zrtlcmx8mkqeu48ylu2j4zacvjspv"], "asm": "0 fea136b86c5086bfe3663eec0cf2a727f8a9545d", "type": "witness_v0_keyhash"}, "value": 2.091e-05, "n": 0}, {"scriptPubKey": {"reqSigs": 1, "hex": "a914c8a30412d7ac5b4668fe165a86f4cacf20ad7a8487", "addresses": ["3KytMTHXqTrRCczboaCM34mKPRygoK3cHa"], "asm": "OP_HASH160 c8a30412d7ac5b4668fe165a86f4cacf20ad7a84 OP_EQUAL", "type": "scripthash"}, "value": 0.00717328, "n": 1}], "hex": "01000000000101fc2d37b484e18ee9b7fd4ad8557b96b85ec05072acf2e5f5610c6a965bf0f82f01000000171600143d3b09e5c82cee3555d36decf0e1fb90a534c3c9ffffffff022b08000000000000160014fea136b86c5086bfe3663eec0cf2a727f8a9545d10f20a000000000017a914c8a30412d7ac5b4668fe165a86f4cacf20ad7a84870247304402206697c7bed433d9ff30e1b1eee7d690054dd0c634f735b59032b66aeecd08c7c80220330ea88b0451b815db8ec285b177a2baea2dd5ee4de05ecbdc52da4148871503012103d827706168930269ab703f9ee57598d9d92cf89f815632ce9cb37a8e64433d7c00000000", "vin": [{"txinwitness": ["304402206697c7bed433d9ff30e1b1eee7d690054dd0c634f735b59032b66aeecd08c7c80220330ea88b0451b815db8ec285b177a2baea2dd5ee4de05ecbdc52da414887150301", "03d827706168930269ab703f9ee57598d9d92cf89f815632ce9cb37a8e64433d7c"], "sequence": 4294967295, "scriptSig": {"hex": "1600143d3b09e5c82cee3555d36decf0e1fb90a534c3c9", "asm": "00143d3b09e5c82cee3555d36decf0e1fb90a534c3c9"}, "vout": 1, "txid": "2ff8f05b966a0c61f5e5f2ac7250c05eb8967b55d84afdb7e98ee184b4372dfc"}], "txid": "ac886a4ae5019d0b3c20258cbe79db69e6506529cdf1c75d79d51b01d1eba7f2", "blocktime": 1537873891, "version": 1, "confirmations": 11478, "time": 1537873891, "locktime": 0, "vsize": 165, "size": 246}