{"hash": "ac8aaf63b6c9996c2886de283d8f781f79c901a39ffc51022311943c4fb1c140", "blockhash": "00000000000000000024a2167bbff67b0be802c0b01cdd79e6331c2be6459f87", "vout": [{"scriptPubKey": {"reqSigs": 1, "hex": "76a9143ed5d8bd7bcd7a5613b832c276c4b181ebbef07088ac", "addresses": ["16jF5DgPp4mcbi495GJc7qYUxo1dbUd9ww"], "asm": "OP_DUP OP_HASH160 3ed5d8bd7bcd7a5613b832c276c4b181ebbef070 OP_EQUALVERIFY OP_CHECKSIG", "type": "pubkeyhash"}, "value": 0.00312466, "n": 0}, {"scriptPubKey": {"reqSigs": 1, "hex": "76a9144ff83469085d6dcf68b852467774f13969a1768088ac", "addresses": ["18Hqiiqr5zU2EuTKNhWAHvx1XXdVJC9AZ3"], "asm": "OP_DUP OP_HASH160 4ff83469085d6dcf68b852467774f13969a17680 OP_EQUALVERIFY OP_CHECKSIG", "type": "pubkeyhash"}, "value": 0.6876778, "n": 1}], "hex": "01000000010330b418c0c81518d8fc4a436103081da158ea520ff539dc83ccc4a922fe6d4e010000006a4730440220145654a97d6b4c88e38eea75156378455b49d78cca90ccc316c6eaecfe97c77f0220394c990ab86081427bf6d233d7663831e59c6554d3b08961e04c6926e6ed35af012102a3f2fdb61c6ab8855c7f8262ccb6be1162aa476c229e9b99b690784fa7143dbfffffffff0292c40400000000001976a9143ed5d8bd7bcd7a5613b832c276c4b181ebbef07088ac24501904000000001976a9144ff83469085d6dcf68b852467774f13969a1768088ac00000000", "vin": [{"sequence": 4294967295, "scriptSig": {"hex": "4730440220145654a97d6b4c88e38eea75156378455b49d78cca90ccc316c6eaecfe97c77f0220394c990ab86081427bf6d233d7663831e59c6554d3b08961e04c6926e6ed35af012102a3f2fdb61c6ab8855c7f8262ccb6be1162aa476c229e9b99b690784fa7143dbf", "asm": "30440220145654a97d6b4c88e38eea75156378455b49d78cca90ccc316c6eaecfe97c77f0220394c990ab86081427bf6d233d7663831e59c6554d3b08961e04c6926e6ed35af[ALL] 02a3f2fdb61c6ab8855c7f8262ccb6be1162aa476c229e9b99b690784fa7143dbf"}, "vout": 1, "txid": "4e6dfe22a9c4cc83dc39f50f52ea58a11d080361434afcd81815c8c018b43003"}], "txid": "ac8aaf63b6c9996c2886de283d8f781f79c901a39ffc51022311943c4fb1c140", "blocktime": 1537870564, "version": 1, "confirmations": 11515, "time": 1537870564, "locktime": 0, "vsize": 225, "size": 225}