{"hash": "1be52170713d8841f6032a441e59e90b5919173fc4dda7856c74a1ccee8ebd0f", "blockhash": "00000000000000000017f5eb5941039fbcee6240d03bc1f2f8e35350df66a1d8", "vout": [{"scriptPubKey": {"reqSigs": 1, "hex": "76a9141bdcd386bdff1f6ddc86eaf35b7b28435565106188ac", "addresses": ["13YKnTZdnR16rRdcX7jb7W4pyNqR3ywVVP"], "asm": "OP_DUP OP_HASH160 1bdcd386bdff1f6ddc86eaf35b7b284355651061 OP_EQUALVERIFY OP_CHECKSIG", "type": "pubkeyhash"}, "value": 0.00013232, "n": 0}, {"scriptPubKey": {"reqSigs": 1, "hex": "a914412a5a9d44d5834123b7756088f409b7b3a36da687", "addresses": ["37daapNiiDgPEaARWMQCfhGXJo4yF1nTaW"], "asm": "OP_HASH160 412a5a9d44d5834123b7756088f409b7b3a36da6 OP_EQUAL", "type": "scripthash"}, "value": 0.00302921, "n": 1}], "hex": "010000000001018a32902c8407ba57fb62252976656bb0b06b59b61c880285125a665df5618222010000002322002083f5850b1b9ae687f7cf8d5c77fefcbd87cde420155cd43c20d50f5f293b7ed6ffffffff02b0330000000000001976a9141bdcd386bdff1f6ddc86eaf35b7b28435565106188ac499f04000000000017a914412a5a9d44d5834123b7756088f409b7b3a36da68704004730440220280ab46af9343829090574bef295c8af58fc91ca7f4142063aac724c912af443022063e3b81c6a1bb05247281c13765681debd815aa63fb05f8369060ce34455535001473044022007010d9ce5975d58dd2c5786d4f5ccc8d29978bc0afddfa6917acc60b32667cb02201037e848b6521739115ccf4474342f1b56c379685dad307bfe0b64e0f4a11d0f01475221020511070566b8412d1941b8dc0ded10caa6a6915b609dfa65bb8111255071d3a22103871fc2ca08e6950b38867e8e6a0e94ee625223d3aa0df5c65f414c6d784467e252ae00000000", "vin": [{"txinwitness": ["", "30440220280ab46af9343829090574bef295c8af58fc91ca7f4142063aac724c912af443022063e3b81c6a1bb05247281c13765681debd815aa63fb05f8369060ce34455535001", "3044022007010d9ce5975d58dd2c5786d4f5ccc8d29978bc0afddfa6917acc60b32667cb02201037e848b6521739115ccf4474342f1b56c379685dad307bfe0b64e0f4a11d0f01", "5221020511070566b8412d1941b8dc0ded10caa6a6915b609dfa65bb8111255071d3a22103871fc2ca08e6950b38867e8e6a0e94ee625223d3aa0df5c65f414c6d784467e252ae"], "sequence": 4294967295, "scriptSig": {"hex": "22002083f5850b1b9ae687f7cf8d5c77fefcbd87cde420155cd43c20d50f5f293b7ed6", "asm": "002083f5850b1b9ae687f7cf8d5c77fefcbd87cde420155cd43c20d50f5f293b7ed6"}, "vout": 1, "txid": "228261f55d665a128502881cb6596bb0b06b6576292562fb57ba07842c90328a"}], "txid": "ac8d04fa7b9e3dbf23681041cea55623e39de10a0fc321e513cdce2badacdea9", "blocktime": 1537874412, "version": 1, "confirmations": 11467, "time": 1537874412, "locktime": 0, "vsize": 207, "size": 372}