{"hash": "e050a6de2848a89c7eb1fcffc46369b7930080c3c7cff571a713f0423eea3b9b", "blockhash": "0000000000000000001cda96e906b7601b7a6fb1a3b62bca570a9e5d8f4b3de1", "vout": [{"scriptPubKey": {"reqSigs": 1, "hex": "76a914499a8aafecb8c10f90f839952d692047b0e7a1df88ac", "addresses": ["17iBTkeDAcueJZxZQJatB85uYH1GU78NZ1"], "asm": "OP_DUP OP_HASH160 499a8aafecb8c10f90f839952d692047b0e7a1df OP_EQUALVERIFY OP_CHECKSIG", "type": "pubkeyhash"}, "value": 0.002999, "n": 0}, {"scriptPubKey": {"reqSigs": 1, "hex": "a91434e0762ec45a0d39cb7b710ede630fa079f8816287", "addresses": ["36WbxPT3TxUkrMsLSg5bnFSJMgBiAbfAjS"], "asm": "OP_HASH160 34e0762ec45a0d39cb7b710ede630fa079f88162 OP_EQUAL", "type": "scripthash"}, "value": 0.192737, "n": 1}], "hex": "0100000000010140c099c5ebf276c37fab2b8a25c5ab710b75b98f400dbd4db6d91b667dba52fb0100000023220020ac609afcb95b7af4a307a14980cae49982dd5b43d479c08b3cdfe60316e5899cffffffff027c930400000000001976a914499a8aafecb8c10f90f839952d692047b0e7a1df88ace41726010000000017a91434e0762ec45a0d39cb7b710ede630fa079f881628704004730440220460165ceee1830a98b5d13bc1dd324fbdb61977a0550954ba08a569679c4a0a902200639e5dfdbed47ca357299c8c4548f5d672a628cd3e9cd92ea2ef07002e10b1001473044022040c84453c16edd2b1c5bfc1061176754ecc2f7434117d74487a217dd932ced69022005e2e6a5b37b90b1b296d9806e193b6fd8396f3259571bbe180a666f036110670169522102591f585d672ceefa76386e1bc6d36cb5859589ffcf93b60b6a2fbec0250b4d652102c210f6153a35c50a85ecb5a3bccd38658717256d8e5fab75be07695a2e07160521034d4c4a087fd191cce2d137aa82fb75b370f52ab0dc7dba58384b145d02fec6c453ae00000000", "vin": [{"txinwitness": ["", "30440220460165ceee1830a98b5d13bc1dd324fbdb61977a0550954ba08a569679c4a0a902200639e5dfdbed47ca357299c8c4548f5d672a628cd3e9cd92ea2ef07002e10b1001", "3044022040c84453c16edd2b1c5bfc1061176754ecc2f7434117d74487a217dd932ced69022005e2e6a5b37b90b1b296d9806e193b6fd8396f3259571bbe180a666f0361106701", "522102591f585d672ceefa76386e1bc6d36cb5859589ffcf93b60b6a2fbec0250b4d652102c210f6153a35c50a85ecb5a3bccd38658717256d8e5fab75be07695a2e07160521034d4c4a087fd191cce2d137aa82fb75b370f52ab0dc7dba58384b145d02fec6c453ae"], "sequence": 4294967295, "scriptSig": {"hex": "220020ac609afcb95b7af4a307a14980cae49982dd5b43d479c08b3cdfe60316e5899c", "asm": "0020ac609afcb95b7af4a307a14980cae49982dd5b43d479c08b3cdfe60316e5899c"}, "vout": 1, "txid": "fb52ba7d661bd9b64dbd0d408fb9750b71abc5258a2bab7fc376f2ebc599c040"}], "txid": "ac8e94d6c4ad63be7763671fe73da6944e618ef1fa947e9951ad6a5e0df1463f", "blocktime": 1537873282, "version": 1, "confirmations": 11485, "time": 1537873282, "locktime": 0, "vsize": 216, "size": 406}