{"hash": "ac8e5ee5eaa5ce4cb6c8525d296884404edeb8e3aaba8bde4a5b1ac98074c339", "blockhash": "00000000000000000004ffacab907a6b429b9a5745fa0b75af4234bf69dd7176", "vout": [{"scriptPubKey": {"reqSigs": 1, "hex": "76a9143f4f5347c45cd23bffd659375e53bac0f3ac3c6b88ac", "addresses": ["16mkbhsmUmfY7rHebxJgBBbTjQcedFTrxa"], "asm": "OP_DUP OP_HASH160 3f4f5347c45cd23bffd659375e53bac0f3ac3c6b OP_EQUALVERIFY OP_CHECKSIG", "type": "pubkeyhash"}, "value": 0.17953155, "n": 0}, {"scriptPubKey": {"reqSigs": 1, "hex": "76a914cafa5a6593fcad980e46e84906e384c31a8c6f6a88ac", "addresses": ["1KWFQbAEHmJx3azTktKnS9SdYvzQaunAHF"], "asm": "OP_DUP OP_HASH160 cafa5a6593fcad980e46e84906e384c31a8c6f6a OP_EQUALVERIFY OP_CHECKSIG", "type": "pubkeyhash"}, "value": 1.93913104, "n": 1}], "hex": "01000000013322084e1eec360481ffadeeed424708550c68620a1defa14463e9812c2e0265010000006b48304502210092b3467f96a4915cb371ed10474393dc5bcd43a2dd8ae45f339f24a49047263702203bc07130bdee89cfddd862df0690988320f61cd9ad388815c4701b6e37f02ce7012103c5b0df95c6a5dc3d45a09fca6009e12a06d589dc12b9b43f174e59f1a4404ff3ffffffff0283f11101000000001976a9143f4f5347c45cd23bffd659375e53bac0f3ac3c6b88ac10e18e0b000000001976a914cafa5a6593fcad980e46e84906e384c31a8c6f6a88ac00000000", "vin": [{"sequence": 4294967295, "scriptSig": {"hex": "48304502210092b3467f96a4915cb371ed10474393dc5bcd43a2dd8ae45f339f24a49047263702203bc07130bdee89cfddd862df0690988320f61cd9ad388815c4701b6e37f02ce7012103c5b0df95c6a5dc3d45a09fca6009e12a06d589dc12b9b43f174e59f1a4404ff3", "asm": "304502210092b3467f96a4915cb371ed10474393dc5bcd43a2dd8ae45f339f24a49047263702203bc07130bdee89cfddd862df0690988320f61cd9ad388815c4701b6e37f02ce7[ALL] 03c5b0df95c6a5dc3d45a09fca6009e12a06d589dc12b9b43f174e59f1a4404ff3"}, "vout": 1, "txid": "65022e2c81e96344a1ef1d0a62680c55084742edeeadff810436ec1e4e082233"}], "txid": "ac8e5ee5eaa5ce4cb6c8525d296884404edeb8e3aaba8bde4a5b1ac98074c339", "blocktime": 1537875543, "version": 1, "confirmations": 11464, "time": 1537875543, "locktime": 0, "vsize": 226, "size": 226}