{"hash": "637f3d0e45d0e04c257c549bec0ee8075df09bf5b36e83c5e89c231e4ff9bea9", "blockhash": "0000000000000000001f76057863aec43deb6fa401d9628bb513d65a8098bfab", "vout": [{"scriptPubKey": {"reqSigs": 1, "hex": "a9148d216ceaaa1b7b4dc8a179d9c9bdb0d7413cf1a087", "addresses": ["3EZFF2t1FU56Sag9Q6LmvM9xAzTwww2hmB"], "asm": "OP_HASH160 8d216ceaaa1b7b4dc8a179d9c9bdb0d7413cf1a0 OP_EQUAL", "type": "scripthash"}, "value": 0.09204491, "n": 0}, {"scriptPubKey": {"reqSigs": 1, "hex": "a91436d6f672da4491e30a4262a0d7088b4161b2298d87", "addresses": ["36gyvmjjoScqJBe8EB7HLGUD9BTz5SGm7C"], "asm": "OP_HASH160 36d6f672da4491e30a4262a0d7088b4161b2298d OP_EQUAL", "type": "scripthash"}, "value": 0.01095342, "n": 1}], "hex": "02000000000101f65aa13d2c19df078e89968178e5270782395f641216a453dcd249d72d5089dc0100000017160014722297da4b09cd191a032c8eec066379023b5ceffeffffff020b738c000000000017a9148d216ceaaa1b7b4dc8a179d9c9bdb0d7413cf1a087aeb610000000000017a91436d6f672da4491e30a4262a0d7088b4161b2298d8702483045022100e35afb23b46a5df956a2a04b3c7ed1e6d3888c7c86aa48ddc33b2def655a773c02203309305f54eb6657b1abaeb73a859ccc13f3c70572d7cb2bd1f3a86bec1ed6c401210330102d71b357e7f8026dfa5c58aef5eb28851ea76ffcdbfbbc9fb1a44495c41813490800", "vin": [{"txinwitness": ["3045022100e35afb23b46a5df956a2a04b3c7ed1e6d3888c7c86aa48ddc33b2def655a773c02203309305f54eb6657b1abaeb73a859ccc13f3c70572d7cb2bd1f3a86bec1ed6c401", "0330102d71b357e7f8026dfa5c58aef5eb28851ea76ffcdbfbbc9fb1a44495c418"], "sequence": 4294967294, "scriptSig": {"hex": "160014722297da4b09cd191a032c8eec066379023b5cef", "asm": "0014722297da4b09cd191a032c8eec066379023b5cef"}, "vout": 1, "txid": "dc89502dd749d2dc53a41612645f39820727e5788196898e07df192c3da15af6"}], "txid": "ac90b9cebc4e847204b376b7446f8d6ff32be4c8a76a7d3e16ab402396c5dad5", "blocktime": 1537873891, "version": 2, "confirmations": 11479, "time": 1537873891, "locktime": 542995, "vsize": 166, "size": 248}