{"hash": "575c60d63689be907372eef8672127f73693e88ad6fbb58f624e631b13d5ed67", "blockhash": "0000000000000000001cda96e906b7601b7a6fb1a3b62bca570a9e5d8f4b3de1", "vout": [{"scriptPubKey": {"reqSigs": 1, "hex": "a91441d07587c619b4b2a3d34b15aeb8139731edab4387", "addresses": ["37h1a1FWJWuj8mAeoC9YDPViMjfjpxtPWQ"], "asm": "OP_HASH160 41d07587c619b4b2a3d34b15aeb8139731edab43 OP_EQUAL", "type": "scripthash"}, "value": 0.00968509, "n": 0}, {"scriptPubKey": {"type": "nulldata", "hex": "6a4c4f41312d2032342f5365702f31382c204254432031303025202f2055534420302520726566545849443d3836303039373833366130316536376420646b65793d523865502361614f4423785223423758", "asm": "OP_RETURN 41312d2032342f5365702f31382c204254432031303025202f2055534420302520726566545849443d3836303039373833366130316536376420646b65793d523865502361614f4423785223423758"}, "value": 0.0, "n": 1}], "hex": "0200000000010161166a27f5d7f4324087926e6ff35babd8e513df3c54c5527de6016a839700860000000017160014446d16c665b451719337b64deb51f7468787fa86ffffffff023dc70e000000000017a91441d07587c619b4b2a3d34b15aeb8139731edab43870000000000000000526a4c4f41312d2032342f5365702f31382c204254432031303025202f2055534420302520726566545849443d3836303039373833366130316536376420646b65793d523865502361614f44237852234237580247304402202c1455e8105c79bee4ae25694ad727b8ba08a94504d4a740a94a3836499ff3c702206c217452adf7697bab8f1a94f3bad64c5eb61bea10d9c0b83dfda4382260d99001210223d4bd12808b9f4124032eb4a6d5ef6fd7008eb641f21bd624a34db5ec334a3800000000", "vin": [{"txinwitness": ["304402202c1455e8105c79bee4ae25694ad727b8ba08a94504d4a740a94a3836499ff3c702206c217452adf7697bab8f1a94f3bad64c5eb61bea10d9c0b83dfda4382260d99001", "0223d4bd12808b9f4124032eb4a6d5ef6fd7008eb641f21bd624a34db5ec334a38"], "sequence": 4294967295, "scriptSig": {"hex": "160014446d16c665b451719337b64deb51f7468787fa86", "asm": "0014446d16c665b451719337b64deb51f7468787fa86"}, "vout": 0, "txid": "860097836a01e67d52c5543cdf13e5d8ab5bf36f6e92874032f4d7f5276a1661"}], "txid": "ac941aec9b6f802150657e355afccfba9529f18ce64409f4041898f44371f974", "blocktime": 1537873282, "version": 2, "confirmations": 11480, "time": 1537873282, "locktime": 0, "vsize": 225, "size": 306}