{"hash": "ac96eeabfff46850641c79748c571229c67ed5f2f1fa7867212f275023d433a1", "blockhash": "0000000000000000000dcc0f55137456b1a82d3642486a52398922ac4d620174", "vout": [{"scriptPubKey": {"reqSigs": 1, "hex": "76a914d2ee5f5fe40088bc2dbf310f94159d87ac4564f988ac", "addresses": ["1LEJThbomv3rmJXyB8F2mH3sBPKciNv7rA"], "asm": "OP_DUP OP_HASH160 d2ee5f5fe40088bc2dbf310f94159d87ac4564f9 OP_EQUALVERIFY OP_CHECKSIG", "type": "pubkeyhash"}, "value": 0.001075, "n": 0}, {"scriptPubKey": {"type": "nulldata", "hex": "6a4c50000077730001ee7b645c8358686cfded758086aeaeacb577c031fc3a016b46dc7dc7d0964b64bfe9d87d04855645d1eaa33a6dce5baa091b0614226c0856bdd4bc9a9526289ac0f6612cd74e33776ee4", "asm": "OP_RETURN 000077730001ee7b645c8358686cfded758086aeaeacb577c031fc3a016b46dc7dc7d0964b64bfe9d87d04855645d1eaa33a6dce5baa091b0614226c0856bdd4bc9a9526289ac0f6612cd74e33776ee4"}, "value": 0.0, "n": 1}], "hex": "01000000017350ea96012c0618b65939177daec67854ece125ee3f5b54ae4eac2ca5ffd126010000006b483045022100b5399eb729d8ad53420b8cdbb8988892dd08826c670562e12b4e0035c963a6fb022016a0977993ffbd76f0d69028687d1238322f364d8036ec2aaaeba3b25a854a0d012103599d544b0d6c468ded574dee2ef7bf96d9648c9554d8cfbd678d90fdce4edd7bffffffff02eca30100000000001976a914d2ee5f5fe40088bc2dbf310f94159d87ac4564f988ac0000000000000000536a4c50000077730001ee7b645c8358686cfded758086aeaeacb577c031fc3a016b46dc7dc7d0964b64bfe9d87d04855645d1eaa33a6dce5baa091b0614226c0856bdd4bc9a9526289ac0f6612cd74e33776ee400000000", "vin": [{"sequence": 4294967295, "scriptSig": {"hex": "483045022100b5399eb729d8ad53420b8cdbb8988892dd08826c670562e12b4e0035c963a6fb022016a0977993ffbd76f0d69028687d1238322f364d8036ec2aaaeba3b25a854a0d012103599d544b0d6c468ded574dee2ef7bf96d9648c9554d8cfbd678d90fdce4edd7b", "asm": "3045022100b5399eb729d8ad53420b8cdbb8988892dd08826c670562e12b4e0035c963a6fb022016a0977993ffbd76f0d69028687d1238322f364d8036ec2aaaeba3b25a854a0d[ALL] 03599d544b0d6c468ded574dee2ef7bf96d9648c9554d8cfbd678d90fdce4edd7b"}, "vout": 1, "txid": "26d1ffa52cac4eae545b3fee25e1ec5478c6ae7d173959b618062c0196ea5073"}], "txid": "ac96eeabfff46850641c79748c571229c67ed5f2f1fa7867212f275023d433a1", "blocktime": 1537870268, "version": 1, "confirmations": 11518, "time": 1537870268, "locktime": 0, "vsize": 284, "size": 284}