{"hash": "ac9d7122f56976f95d6fd9ba45104558888c07ee4ae07198eecbb87440cd6037", "blockhash": "00000000000000000004ffacab907a6b429b9a5745fa0b75af4234bf69dd7176", "vout": [{"scriptPubKey": {"reqSigs": 1, "hex": "76a91492270ae70c147d2a70d5e68bd5a5c39fca0c2baa88ac", "addresses": ["1EKnRjZYgqDptu3XWRceAfjonAVH45Cpkp"], "asm": "OP_DUP OP_HASH160 92270ae70c147d2a70d5e68bd5a5c39fca0c2baa OP_EQUALVERIFY OP_CHECKSIG", "type": "pubkeyhash"}, "value": 0.002618, "n": 0}], "hex": "01000000010ffe490e2713847b39d9e1fc01920e29f14eb65701ee7b6154d033566c8dc176000000006a47304402204d7fe72f1abd58231c125f9110017740b1927624e76c866525c7b67faaecf22e022009127196543042e31ddd66fce11965cc7f9786b9c2a647fef5bde03e3467f4e9012103117fd54c74ebfa3341857292dc22a45a56249e6210b56ef446f06867974688b6ffffffff01a8fe0300000000001976a91492270ae70c147d2a70d5e68bd5a5c39fca0c2baa88ac00000000", "vin": [{"sequence": 4294967295, "scriptSig": {"hex": "47304402204d7fe72f1abd58231c125f9110017740b1927624e76c866525c7b67faaecf22e022009127196543042e31ddd66fce11965cc7f9786b9c2a647fef5bde03e3467f4e9012103117fd54c74ebfa3341857292dc22a45a56249e6210b56ef446f06867974688b6", "asm": "304402204d7fe72f1abd58231c125f9110017740b1927624e76c866525c7b67faaecf22e022009127196543042e31ddd66fce11965cc7f9786b9c2a647fef5bde03e3467f4e9[ALL] 03117fd54c74ebfa3341857292dc22a45a56249e6210b56ef446f06867974688b6"}, "vout": 0, "txid": "76c18d6c5633d054617bee0157b64ef1290e9201fce1d9397b8413270e49fe0f"}], "txid": "ac9d7122f56976f95d6fd9ba45104558888c07ee4ae07198eecbb87440cd6037", "blocktime": 1537875543, "version": 1, "confirmations": 11464, "time": 1537875543, "locktime": 0, "vsize": 191, "size": 191}