{"hash": "ac9e7d5690ca48268fbaa1e4130247dbcccb919c4c59054e0ddd8ff5efce2802", "blockhash": "0000000000000000001f76057863aec43deb6fa401d9628bb513d65a8098bfab", "vout": [{"scriptPubKey": {"reqSigs": 1, "hex": "76a9144f95891dd24d0c18005f92a3b038999c1b1af28788ac", "addresses": ["18FoX57vSuqHqmKinD5Lf2g9JsazVmnz7z"], "asm": "OP_DUP OP_HASH160 4f95891dd24d0c18005f92a3b038999c1b1af287 OP_EQUALVERIFY OP_CHECKSIG", "type": "pubkeyhash"}, "value": 0.15306688, "n": 0}, {"scriptPubKey": {"reqSigs": 1, "hex": "a9147db6b109d5b1fa2016e93cf64ea89b40149dcc9787", "addresses": ["3D9jF9ujXJmNjS4rm3scSsCm1wbbkqsAmx"], "asm": "OP_HASH160 7db6b109d5b1fa2016e93cf64ea89b40149dcc97 OP_EQUAL", "type": "scripthash"}, "value": 0.30094296, "n": 1}], "hex": "01000000021fc9d97772172b477bba2ccb0131bfab9c70fa8c89222e0e385ce348fdd37c45010000006b483045022100bb90b818787b65dff0d377ab992d1a9d877775c73d755c741a568c91f6192ff90220574c7244e561dd07a406039139d459e83ae72b976a13a6e2b3c8f04c8b229ee3012102e139fd899fa4a3b8766970dc0222cc9c7136fdca58e2a206f2f1b28640e2966ffdffffff3655c03b04cdaf604a6c059bc970fab49bb1c7d12383a7f68dfc2bd4d0c8f2f9010000006a473044022026c7f37ca06c248c12864516f047060bbff4834c97da28d2250d75c3fa2d832a022054af304c4f4b60140e56f9e35bda990810e8efd5ae425138f876a9e60e0e78150121025f6546331d4655d91ee8c6b117237400405bc8602eeb961e72c7c1fc9981860bfdffffff02c08fe900000000001976a9144f95891dd24d0c18005f92a3b038999c1b1af28788acd833cb010000000017a9147db6b109d5b1fa2016e93cf64ea89b40149dcc978714490800", "vin": [{"sequence": 4294967293, "scriptSig": {"hex": "483045022100bb90b818787b65dff0d377ab992d1a9d877775c73d755c741a568c91f6192ff90220574c7244e561dd07a406039139d459e83ae72b976a13a6e2b3c8f04c8b229ee3012102e139fd899fa4a3b8766970dc0222cc9c7136fdca58e2a206f2f1b28640e2966f", "asm": "3045022100bb90b818787b65dff0d377ab992d1a9d877775c73d755c741a568c91f6192ff90220574c7244e561dd07a406039139d459e83ae72b976a13a6e2b3c8f04c8b229ee3[ALL] 02e139fd899fa4a3b8766970dc0222cc9c7136fdca58e2a206f2f1b28640e2966f"}, "vout": 1, "txid": "457cd3fd48e35c380e2e22898cfa709cabbf3101cb2cba7b472b177277d9c91f"}, {"sequence": 4294967293, "scriptSig": {"hex": "473044022026c7f37ca06c248c12864516f047060bbff4834c97da28d2250d75c3fa2d832a022054af304c4f4b60140e56f9e35bda990810e8efd5ae425138f876a9e60e0e78150121025f6546331d4655d91ee8c6b117237400405bc8602eeb961e72c7c1fc9981860b", "asm": "3044022026c7f37ca06c248c12864516f047060bbff4834c97da28d2250d75c3fa2d832a022054af304c4f4b60140e56f9e35bda990810e8efd5ae425138f876a9e60e0e7815[ALL] 025f6546331d4655d91ee8c6b117237400405bc8602eeb961e72c7c1fc9981860b"}, "vout": 1, "txid": "f9f2c8d0d42bfc8df6a78323d1c7b19bb4fa70c99b056c4a60afcd043bc05536"}], "txid": "ac9e7d5690ca48268fbaa1e4130247dbcccb919c4c59054e0ddd8ff5efce2802", "blocktime": 1537873891, "version": 1, "confirmations": 11478, "time": 1537873891, "locktime": 542996, "vsize": 371, "size": 371}