{"hash": "ac9e03037d5fd7d4636e24e4ee6a7918482d7cf594cf2f0e78d7504c76e8cf5e", "blockhash": "00000000000000000017f5eb5941039fbcee6240d03bc1f2f8e35350df66a1d8", "vout": [{"scriptPubKey": {"reqSigs": 1, "hex": "76a9141c7e662b2e0f709d2c3d0a06b3adb2810bb1aa3688ac", "addresses": ["13bfLjbdgQipFG59KnjAbVDRwMyiHNTzuK"], "asm": "OP_DUP OP_HASH160 1c7e662b2e0f709d2c3d0a06b3adb2810bb1aa36 OP_EQUALVERIFY OP_CHECKSIG", "type": "pubkeyhash"}, "value": 0.00871981, "n": 0}, {"scriptPubKey": {"reqSigs": 1, "hex": "76a9142277a149329577d7c37d37898928199908300e9e88ac", "addresses": ["149FHZbSjSn2oXudApRDDbLnfRXTrcCity"], "asm": "OP_DUP OP_HASH160 2277a149329577d7c37d37898928199908300e9e OP_EQUALVERIFY OP_CHECKSIG", "type": "pubkeyhash"}, "value": 0.0465413, "n": 1}], "hex": "010000000196d4e3640c437e5dabcfabf17a2dc223fa04d870ffe10e9575f5d8925dd5b31d000000006a4730440220133154b196ca7868e33c69e038e4f9f0d3a186e28ad20da2ef40f8d0f1a38d8002204c04187787f7dbb40bae3253ecddefe083ad1f01ede067ad79f15e70df50d2c40121036cbda9c3bfefd4451419e9a323402676be6cf9e8cbec7c609bc684a3c920c1b5ffffffff022d4e0d00000000001976a9141c7e662b2e0f709d2c3d0a06b3adb2810bb1aa3688ac32044700000000001976a9142277a149329577d7c37d37898928199908300e9e88ac00000000", "vin": [{"sequence": 4294967295, "scriptSig": {"hex": "4730440220133154b196ca7868e33c69e038e4f9f0d3a186e28ad20da2ef40f8d0f1a38d8002204c04187787f7dbb40bae3253ecddefe083ad1f01ede067ad79f15e70df50d2c40121036cbda9c3bfefd4451419e9a323402676be6cf9e8cbec7c609bc684a3c920c1b5", "asm": "30440220133154b196ca7868e33c69e038e4f9f0d3a186e28ad20da2ef40f8d0f1a38d8002204c04187787f7dbb40bae3253ecddefe083ad1f01ede067ad79f15e70df50d2c4[ALL] 036cbda9c3bfefd4451419e9a323402676be6cf9e8cbec7c609bc684a3c920c1b5"}, "vout": 0, "txid": "1db3d55d92d8f575950ee1ff70d804fa23c22d7af1abcfab5d7e430c64e3d496"}], "txid": "ac9e03037d5fd7d4636e24e4ee6a7918482d7cf594cf2f0e78d7504c76e8cf5e", "blocktime": 1537874412, "version": 1, "confirmations": 11467, "time": 1537874412, "locktime": 0, "vsize": 225, "size": 225}