{"hash": "ac9f77ccf6e67df5225b5d650ccaea0fa92031c9128d04d071c4399c701db48c", "blockhash": "00000000000000000018f53835495a110e01622372bf6ae95dc86f2b0ab887b0", "vout": [{"scriptPubKey": {"reqSigs": 1, "hex": "a914930278750729387c28c05d3576cff54fdf6c588587", "addresses": ["3F6LDQ5L9oise6cgH6uG2hXKHEfiuPyXUj"], "asm": "OP_HASH160 930278750729387c28c05d3576cff54fdf6c5885 OP_EQUAL", "type": "scripthash"}, "value": 0.010007, "n": 0}, {"scriptPubKey": {"reqSigs": 1, "hex": "76a91477401a1f64215ddbaa4c86b0086a84bc7b0401d988ac", "addresses": ["1BsYCiWmN2EnKv4eWw3atsLiWfUeRPihj4"], "asm": "OP_DUP OP_HASH160 77401a1f64215ddbaa4c86b0086a84bc7b0401d9 OP_EQUALVERIFY OP_CHECKSIG", "type": "pubkeyhash"}, "value": 0.14403773, "n": 1}], "hex": "0100000001eadd232fb83a0607c57d38cc96e8b871afc8bc4d96cc4c52ac733847d47b1b39010000006b483045022100e162960ee5a8d42725131e6dc643ac5860fb3cd831561daf32f708f816244ade022030325efffe0aed50867135db7e7e2b6b9347d231b6ac164a3a8721e5d6df8bd101210305b2072d6346dc086f606a0fe3a33edb2e2ed8ad1a5bec49e0b2ef59c52c2254ffffffff02fc440f000000000017a914930278750729387c28c05d3576cff54fdf6c588587bdc8db00000000001976a91477401a1f64215ddbaa4c86b0086a84bc7b0401d988ac00000000", "vin": [{"sequence": 4294967295, "scriptSig": {"hex": "483045022100e162960ee5a8d42725131e6dc643ac5860fb3cd831561daf32f708f816244ade022030325efffe0aed50867135db7e7e2b6b9347d231b6ac164a3a8721e5d6df8bd101210305b2072d6346dc086f606a0fe3a33edb2e2ed8ad1a5bec49e0b2ef59c52c2254", "asm": "3045022100e162960ee5a8d42725131e6dc643ac5860fb3cd831561daf32f708f816244ade022030325efffe0aed50867135db7e7e2b6b9347d231b6ac164a3a8721e5d6df8bd1[ALL] 0305b2072d6346dc086f606a0fe3a33edb2e2ed8ad1a5bec49e0b2ef59c52c2254"}, "vout": 1, "txid": "391b7bd4473873ac524ccc964dbcc8af71b8e896cc387dc507063ab82f23ddea"}], "txid": "ac9f77ccf6e67df5225b5d650ccaea0fa92031c9128d04d071c4399c701db48c", "blocktime": 1537870928, "version": 1, "confirmations": 11514, "time": 1537870928, "locktime": 0, "vsize": 224, "size": 224}