{"hash": "5b84b3683d4a5cbe6c32217776818a1fbed1b1e326fa655d19aa4fe6a67d7f86", "blockhash": "0000000000000000000e13cef7c366c0283d82e591d1acd082e914b08063cdf1", "vout": [{"scriptPubKey": {"reqSigs": 1, "hex": "a91430897cc6c9d69f6a2c2f1c651d51f22219f1a4f687", "addresses": ["367f4YWz1VCFaqBqwbTrzwi2b1h2U3w1AF"], "asm": "OP_HASH160 30897cc6c9d69f6a2c2f1c651d51f22219f1a4f6 OP_EQUAL", "type": "scripthash"}, "value": 11.61401645, "n": 0}, {"scriptPubKey": {"reqSigs": 1, "hex": "a914c2be531cd92d55178f65f2888f06615d5c9373f787", "addresses": ["3KSj1kLVaxVQdRnfYMEyNsS6Ly9MRWmqcY"], "asm": "OP_HASH160 c2be531cd92d55178f65f2888f06615d5c9373f7 OP_EQUAL", "type": "scripthash"}, "value": 0.1, "n": 1}], "hex": "010000000001011d34d0a7114916814a755b8b2983b4f1066e9df97fefb0d65c29a2204e22b69a0000000023220020bcf9f822194145acea0f3235f4107b5bf1a91b6b9f8489f63bf79ec29b360913ffffffff022d9539450000000017a91430897cc6c9d69f6a2c2f1c651d51f22219f1a4f687809698000000000017a914c2be531cd92d55178f65f2888f06615d5c9373f78704004730440220743f86f139813d702e4654add753544ce8492c757885e15d95014a833331dce702200413a7ca636cc018aa94b578bb93f86c35052436c362f6fe1caf5f705217711701483045022100eec0923cd094c33c4fd9469101ba864d0a917f5f2f331077883f8b3e60b434d9022064b9aa0bf9d95b0ed4e602f2d1955239636809f405eaa03d1ee94b096c60170c01695221026c8f72b9e63db63907115e65d4da86eaae595b22fdc85ec75301bb4adbf203582103806535be3e3920e5eedee92de5714188fd6a784f2bf7b04f87de0b9c3ae1ecdb21024b23bfdce2afcae7e28c42f7f79aa100f22931712c52d7414a526ba494d44a2553ae00000000", "vin": [{"txinwitness": ["", "30440220743f86f139813d702e4654add753544ce8492c757885e15d95014a833331dce702200413a7ca636cc018aa94b578bb93f86c35052436c362f6fe1caf5f705217711701", "3045022100eec0923cd094c33c4fd9469101ba864d0a917f5f2f331077883f8b3e60b434d9022064b9aa0bf9d95b0ed4e602f2d1955239636809f405eaa03d1ee94b096c60170c01", "5221026c8f72b9e63db63907115e65d4da86eaae595b22fdc85ec75301bb4adbf203582103806535be3e3920e5eedee92de5714188fd6a784f2bf7b04f87de0b9c3ae1ecdb21024b23bfdce2afcae7e28c42f7f79aa100f22931712c52d7414a526ba494d44a2553ae"], "sequence": 4294967295, "scriptSig": {"hex": "220020bcf9f822194145acea0f3235f4107b5bf1a91b6b9f8489f63bf79ec29b360913", "asm": "0020bcf9f822194145acea0f3235f4107b5bf1a91b6b9f8489f63bf79ec29b360913"}, "vout": 0, "txid": "9ab6224e20a2295cd6b0ef7ff99d6e06f1b483298b5b754a81164911a7d0341d"}], "txid": "aca7ca934b393e5bcc3f2aadaaa5999bbbedff98f695c7b729b5cfdc2b22e936", "blocktime": 1537871767, "version": 1, "confirmations": 11493, "time": 1537871767, "locktime": 0, "vsize": 214, "size": 405}