{"hash": "aca9697324c19c60a382ecf4820559b497aab99df72dad457bc0f0d5839b4cad", "blockhash": "0000000000000000001cda96e906b7601b7a6fb1a3b62bca570a9e5d8f4b3de1", "vout": [{"scriptPubKey": {"reqSigs": 1, "hex": "76a914b624924977ffc98459e4892738b75afc7782395488ac", "addresses": ["1Hc5nwa9CECLJWwitvhKyG4xJtgpZGNEtC"], "asm": "OP_DUP OP_HASH160 b624924977ffc98459e4892738b75afc77823954 OP_EQUALVERIFY OP_CHECKSIG", "type": "pubkeyhash"}, "value": 0.00026983, "n": 0}, {"scriptPubKey": {"reqSigs": 1, "hex": "a914e1ac6dae26647bf2702c830ef3a1c3013857b5b987", "addresses": ["3NGGXF5Xnkxm3NdtierM53ByAF9iZ5TpJT"], "asm": "OP_HASH160 e1ac6dae26647bf2702c830ef3a1c3013857b5b9 OP_EQUAL", "type": "scripthash"}, "value": 0.0020145, "n": 1}], "hex": "010000000138b5c235c0e79484298f9978a3126ecfecbd6271a5afd7ada6d6b04613762cf5000000006b483045022100fc8d8fda361bf412a7ad84a054e5adb02cc7a141d1d42a6ae0bb091c634ee8b9022056486a1390213d6baa8933e193a2341ff355b84e9eaaa82da25695ef8c8576060121025f473d74f925fe54c53590159e0c38314ff7dace9dda9fe6d16b556d6dd1b386ffffffff0267690000000000001976a914b624924977ffc98459e4892738b75afc7782395488acea1203000000000017a914e1ac6dae26647bf2702c830ef3a1c3013857b5b98700000000", "vin": [{"sequence": 4294967295, "scriptSig": {"hex": "483045022100fc8d8fda361bf412a7ad84a054e5adb02cc7a141d1d42a6ae0bb091c634ee8b9022056486a1390213d6baa8933e193a2341ff355b84e9eaaa82da25695ef8c8576060121025f473d74f925fe54c53590159e0c38314ff7dace9dda9fe6d16b556d6dd1b386", "asm": "3045022100fc8d8fda361bf412a7ad84a054e5adb02cc7a141d1d42a6ae0bb091c634ee8b9022056486a1390213d6baa8933e193a2341ff355b84e9eaaa82da25695ef8c857606[ALL] 025f473d74f925fe54c53590159e0c38314ff7dace9dda9fe6d16b556d6dd1b386"}, "vout": 0, "txid": "f52c761346b0d6a6add7afa57162bdeccf6e12a378998f298494e7c035c2b538"}], "txid": "aca9697324c19c60a382ecf4820559b497aab99df72dad457bc0f0d5839b4cad", "blocktime": 1537873282, "version": 1, "confirmations": 11485, "time": 1537873282, "locktime": 0, "vsize": 224, "size": 224}