{"hash": "acaab99b3196941665e4340a5fe03d33bbfef06d7c092fb5996c25a102737555", "blockhash": "0000000000000000001cda96e906b7601b7a6fb1a3b62bca570a9e5d8f4b3de1", "vout": [{"scriptPubKey": {"reqSigs": 1, "hex": "76a914f3d0f8c03f0e2e8b199d628b05a8ba070c38b46e88ac", "addresses": ["1PEBYDsV4F9Z7Y4q7oLcsGhDRQSUbKesbr"], "asm": "OP_DUP OP_HASH160 f3d0f8c03f0e2e8b199d628b05a8ba070c38b46e OP_EQUALVERIFY OP_CHECKSIG", "type": "pubkeyhash"}, "value": 0.50822799, "n": 0}], "hex": "01000000054dfda835743b41b87c6bf94b2e17afc99aed05bd67f1ac2d98dbbfd397ad0fec010000006a47304402200cfeeadf6a2ee90fc899350bf9178d5526863b6cd2ec3afc3b644fffd9e1c27b0220060005c5386a8bf0e565e023aa3e2693135cd74f16156d0a310fa163093595120121022b25b0c2255357507047509ae9e1c9d910eff186255c6af75767d6548ec5858effffffff53b4f3903de88ef8dbd1a7a57e4c1b3b9afe0465f9a94fe08cf236c0908c8256010000006b483045022100dbbd2a570a02277f774c2d74ae4750ce6a339f4ea3f68d7cea316b50db237a6f022024a19749ba35ac19ad10c5c61df0863825163a750f7ae4a1966e8c197c0536e10121022b25b0c2255357507047509ae9e1c9d910eff186255c6af75767d6548ec5858effffffff77b85aeaa04d04478ad10dfaad7c2d1a6a3a166acb1c49a1a93b2b1fdc8160c1010000006a47304402206f1176487dadaf1eb455775774add5ec21b826cbc959cb0692c187ff492888e502205f7e1e289daacf01d6c764b54d4f3ab9947f14d54d7c67ea3dba00563cdf0a710121022b25b0c2255357507047509ae9e1c9d910eff186255c6af75767d6548ec5858effffffffb62010f3dd26d69f2a30d24ce4911e40bdeeebe6188e87d77d35fac080e5e996050000006b483045022100c4c2108b10b83d6dabdbe303ccfaa91f8e14ac1de411f650f635c5cad1d1bd2c02203261f4332acbdec8f6de4789ef7ca6f427c87ab53e32f26517d64b934f06f9a20121022b25b0c2255357507047509ae9e1c9d910eff186255c6af75767d6548ec5858effffffffd216db14b66adfaeee6d65f1688bc76ed8731d0c4ff79afbba221408988843a6030000006b4830450221008d2b0a575446ac99cf79350a234c81e62c8b7afe58820d061750ba6c38466cc602203e7a93413317fbde4a34d0775ed49fa2f455d730ab5a8d374e6a40617d9cd8a20121022b25b0c2255357507047509ae9e1c9d910eff186255c6af75767d6548ec5858effffffff018f7e0703000000001976a914f3d0f8c03f0e2e8b199d628b05a8ba070c38b46e88ac00000000", "vin": [{"sequence": 4294967295, "scriptSig": {"hex": "47304402200cfeeadf6a2ee90fc899350bf9178d5526863b6cd2ec3afc3b644fffd9e1c27b0220060005c5386a8bf0e565e023aa3e2693135cd74f16156d0a310fa163093595120121022b25b0c2255357507047509ae9e1c9d910eff186255c6af75767d6548ec5858e", "asm": "304402200cfeeadf6a2ee90fc899350bf9178d5526863b6cd2ec3afc3b644fffd9e1c27b0220060005c5386a8bf0e565e023aa3e2693135cd74f16156d0a310fa16309359512[ALL] 022b25b0c2255357507047509ae9e1c9d910eff186255c6af75767d6548ec5858e"}, "vout": 1, "txid": "ec0fad97d3bfdb982dacf167bd05ed9ac9af172e4bf96b7cb8413b7435a8fd4d"}, {"sequence": 4294967295, "scriptSig": {"hex": "483045022100dbbd2a570a02277f774c2d74ae4750ce6a339f4ea3f68d7cea316b50db237a6f022024a19749ba35ac19ad10c5c61df0863825163a750f7ae4a1966e8c197c0536e10121022b25b0c2255357507047509ae9e1c9d910eff186255c6af75767d6548ec5858e", "asm": "3045022100dbbd2a570a02277f774c2d74ae4750ce6a339f4ea3f68d7cea316b50db237a6f022024a19749ba35ac19ad10c5c61df0863825163a750f7ae4a1966e8c197c0536e1[ALL] 022b25b0c2255357507047509ae9e1c9d910eff186255c6af75767d6548ec5858e"}, "vout": 1, "txid": "56828c90c036f28ce04fa9f96504fe9a3b1b4c7ea5a7d1dbf88ee83d90f3b453"}, {"sequence": 4294967295, "scriptSig": {"hex": "47304402206f1176487dadaf1eb455775774add5ec21b826cbc959cb0692c187ff492888e502205f7e1e289daacf01d6c764b54d4f3ab9947f14d54d7c67ea3dba00563cdf0a710121022b25b0c2255357507047509ae9e1c9d910eff186255c6af75767d6548ec5858e", "asm": "304402206f1176487dadaf1eb455775774add5ec21b826cbc959cb0692c187ff492888e502205f7e1e289daacf01d6c764b54d4f3ab9947f14d54d7c67ea3dba00563cdf0a71[ALL] 022b25b0c2255357507047509ae9e1c9d910eff186255c6af75767d6548ec5858e"}, "vout": 1, "txid": "c16081dc1f2b3ba9a1491ccb6a163a6a1a2d7cadfa0dd18a47044da0ea5ab877"}, {"sequence": 4294967295, "scriptSig": {"hex": "483045022100c4c2108b10b83d6dabdbe303ccfaa91f8e14ac1de411f650f635c5cad1d1bd2c02203261f4332acbdec8f6de4789ef7ca6f427c87ab53e32f26517d64b934f06f9a20121022b25b0c2255357507047509ae9e1c9d910eff186255c6af75767d6548ec5858e", "asm": "3045022100c4c2108b10b83d6dabdbe303ccfaa91f8e14ac1de411f650f635c5cad1d1bd2c02203261f4332acbdec8f6de4789ef7ca6f427c87ab53e32f26517d64b934f06f9a2[ALL] 022b25b0c2255357507047509ae9e1c9d910eff186255c6af75767d6548ec5858e"}, "vout": 5, "txid": "96e9e580c0fa357dd7878e18e6ebeebd401e91e44cd2302a9fd626ddf31020b6"}, {"sequence": 4294967295, "scriptSig": {"hex": "4830450221008d2b0a575446ac99cf79350a234c81e62c8b7afe58820d061750ba6c38466cc602203e7a93413317fbde4a34d0775ed49fa2f455d730ab5a8d374e6a40617d9cd8a20121022b25b0c2255357507047509ae9e1c9d910eff186255c6af75767d6548ec5858e", "asm": "30450221008d2b0a575446ac99cf79350a234c81e62c8b7afe58820d061750ba6c38466cc602203e7a93413317fbde4a34d0775ed49fa2f455d730ab5a8d374e6a40617d9cd8a2[ALL] 022b25b0c2255357507047509ae9e1c9d910eff186255c6af75767d6548ec5858e"}, "vout": 3, "txid": "a6438898081422bafb9af74f0c1d73d86ec78b68f1656deeaedf6ab614db16d2"}], "txid": "acaab99b3196941665e4340a5fe03d33bbfef06d7c092fb5996c25a102737555", "blocktime": 1537873282, "version": 1, "confirmations": 11481, "time": 1537873282, "locktime": 0, "vsize": 782, "size": 782}