{"hash": "acab66fe7c8d7b00317f1e804a788a3497890c972db3c4b20d0d9cdea73c74af", "blockhash": "00000000000000000018f53835495a110e01622372bf6ae95dc86f2b0ab887b0", "vout": [{"scriptPubKey": {"reqSigs": 1, "hex": "76a91427cb7eea9a83b1c97364e20a2db0b00c32bb875988ac", "addresses": ["14dR8cgSP7Th653jfH7W8mvtuD6uu2BEBD"], "asm": "OP_DUP OP_HASH160 27cb7eea9a83b1c97364e20a2db0b00c32bb8759 OP_EQUALVERIFY OP_CHECKSIG", "type": "pubkeyhash"}, "value": 0.00881917, "n": 0}], "hex": "0100000001422bd3f9e068608771cfdb890611597611514094dd55d7a1978b60855da1c0ba000000006b483045022100ec698be7ce91a7114f1f2ca1a113a147cef1697d2ad656a52f99724fe2a917bb02206443fef8ff9d7b755c7280381662f77402473e75267cd7f0a6bad51d0a299d9c012102b4f086e0daaa55bbac6e03f867c58ec0af7be4078aa8e2a8aa777b27fb65a141ffffffff01fd740d00000000001976a91427cb7eea9a83b1c97364e20a2db0b00c32bb875988ac00000000", "vin": [{"sequence": 4294967295, "scriptSig": {"hex": "483045022100ec698be7ce91a7114f1f2ca1a113a147cef1697d2ad656a52f99724fe2a917bb02206443fef8ff9d7b755c7280381662f77402473e75267cd7f0a6bad51d0a299d9c012102b4f086e0daaa55bbac6e03f867c58ec0af7be4078aa8e2a8aa777b27fb65a141", "asm": "3045022100ec698be7ce91a7114f1f2ca1a113a147cef1697d2ad656a52f99724fe2a917bb02206443fef8ff9d7b755c7280381662f77402473e75267cd7f0a6bad51d0a299d9c[ALL] 02b4f086e0daaa55bbac6e03f867c58ec0af7be4078aa8e2a8aa777b27fb65a141"}, "vout": 0, "txid": "bac0a15d85608b97a1d755dd944051117659110689dbcf71876068e0f9d32b42"}], "txid": "acab66fe7c8d7b00317f1e804a788a3497890c972db3c4b20d0d9cdea73c74af", "blocktime": 1537870928, "version": 1, "confirmations": 11512, "time": 1537870928, "locktime": 0, "vsize": 192, "size": 192}