{"hash": "acacd4b454c70530532b2bfd04fa0dd3fb467ff0c14d58512e154021fd57bbfb", "blockhash": "0000000000000000001e0dab787dd257d1dbfcb92a98c2207d5e1078be1f4165", "vout": [{"scriptPubKey": {"reqSigs": 1, "hex": "76a914ba5a3f81ca5675b0a0507e50c5fd21a56afb26df88ac", "addresses": ["1HzLoE9E5tym55P7GahmfVVGT8B5bNa8kc"], "asm": "OP_DUP OP_HASH160 ba5a3f81ca5675b0a0507e50c5fd21a56afb26df OP_EQUALVERIFY OP_CHECKSIG", "type": "pubkeyhash"}, "value": 0.46866066, "n": 0}, {"scriptPubKey": {"reqSigs": 1, "hex": "76a914a6bd82795481379ea61bdf5da11afd6a1037ad9888ac", "addresses": ["1GCeCCxS6DsWgFUFRHpXBNwVCg5TaTJUX8"], "asm": "OP_DUP OP_HASH160 a6bd82795481379ea61bdf5da11afd6a1037ad98 OP_EQUALVERIFY OP_CHECKSIG", "type": "pubkeyhash"}, "value": 2.18783132, "n": 1}], "hex": "0100000001e548edb2bd86a02476b64ed39518ab4645124b71a33de43ebd41605b5bfb5dbd010000006a47304402206632b5d4d5cc737a140cd512e9c9fdc3db21c6e1e1fef8dc00d8433d00db0c2c02207cf8b1beebe62c8dc66aa1bccdde6790cb77660b63f805fc2113789073744683012102ca1d5084e91cdf36111f9b06a0563747a3b890ed16e1aae02783661037357633ffffffff02921ecb02000000001976a914ba5a3f81ca5675b0a0507e50c5fd21a56afb26df88ac9c5d0a0d000000001976a914a6bd82795481379ea61bdf5da11afd6a1037ad9888ac00000000", "vin": [{"sequence": 4294967295, "scriptSig": {"hex": "47304402206632b5d4d5cc737a140cd512e9c9fdc3db21c6e1e1fef8dc00d8433d00db0c2c02207cf8b1beebe62c8dc66aa1bccdde6790cb77660b63f805fc2113789073744683012102ca1d5084e91cdf36111f9b06a0563747a3b890ed16e1aae02783661037357633", "asm": "304402206632b5d4d5cc737a140cd512e9c9fdc3db21c6e1e1fef8dc00d8433d00db0c2c02207cf8b1beebe62c8dc66aa1bccdde6790cb77660b63f805fc2113789073744683[ALL] 02ca1d5084e91cdf36111f9b06a0563747a3b890ed16e1aae02783661037357633"}, "vout": 1, "txid": "bd5dfb5b5b6041bd3ee43da3714b124546ab1895d34eb67624a086bdb2ed48e5"}], "txid": "acacd4b454c70530532b2bfd04fa0dd3fb467ff0c14d58512e154021fd57bbfb", "blocktime": 1537872475, "version": 1, "confirmations": 11486, "time": 1537872475, "locktime": 0, "vsize": 225, "size": 225}