{"hash": "acb452885776e398cff20d86777fc7e0fe5681b812afe609c2b8a55035bda5a3", "blockhash": "0000000000000000000baef3f32e3676a92c3b2e5da21b426e4f302fc371ce76", "vout": [{"scriptPubKey": {"reqSigs": 1, "hex": "a91420ed583a068a68eedc2574e875f1ba6cf9b38b9087", "addresses": ["34h7sgCgDGidA5pMBTb4QW47TssC4XBpER"], "asm": "OP_HASH160 20ed583a068a68eedc2574e875f1ba6cf9b38b90 OP_EQUAL", "type": "scripthash"}, "value": 0.0027, "n": 0}, {"scriptPubKey": {"reqSigs": 1, "hex": "76a9140f58e86586c5ef1ccb8d16204729208ffadda6b088ac", "addresses": ["12Q9eJNzPkwawz1KmHhrPSPwLm2D5PhdrQ"], "asm": "OP_DUP OP_HASH160 0f58e86586c5ef1ccb8d16204729208ffadda6b0 OP_EQUALVERIFY OP_CHECKSIG", "type": "pubkeyhash"}, "value": 0.036, "n": 1}, {"scriptPubKey": {"reqSigs": 1, "hex": "a9140d0feb745e89e1a542096654c69be68c9069de0887", "addresses": ["32t5nAH8BRiGTTMA3cDfsZKMpQYZCN9TzQ"], "asm": "OP_HASH160 0d0feb745e89e1a542096654c69be68c9069de08 OP_EQUAL", "type": "scripthash"}, "value": 0.0035642, "n": 2}, {"scriptPubKey": {"reqSigs": 1, "hex": "76a914b98dec362562f42a391f166515b9c8543e32092588ac", "addresses": ["1Hv82T9Rt1tUXfqub6E1K5YWJGWGLy6JYp"], "asm": "OP_DUP OP_HASH160 b98dec362562f42a391f166515b9c8543e320925 OP_EQUALVERIFY OP_CHECKSIG", "type": "pubkeyhash"}, "value": 0.00262599, "n": 3}, {"scriptPubKey": {"reqSigs": 1, "hex": "76a914de9b06d14de57486f2449174f00573776e0f799d88ac", "addresses": ["1MJ2j2UsdVBuKjmUitWRjAFBSryMDMXcRe"], "asm": "OP_DUP OP_HASH160 de9b06d14de57486f2449174f00573776e0f799d OP_EQUALVERIFY OP_CHECKSIG", "type": "pubkeyhash"}, "value": 0.065, "n": 4}, {"scriptPubKey": {"reqSigs": 1, "hex": "76a9148c39ca72f83e1fc7506dacd14cd73f10654128bb88ac", "addresses": ["1DnSqEVUsDz7nGJy6BE5racKW1J9QhB9Fm"], "asm": "OP_DUP OP_HASH160 8c39ca72f83e1fc7506dacd14cd73f10654128bb OP_EQUALVERIFY OP_CHECKSIG", "type": "pubkeyhash"}, "value": 0.00997179, "n": 5}], "hex": "02000000045f06b88e6acd92174c2dbe9bc2005a94b50af54816d831c057b0a4a288017696210000006b483045022100d368b511a4a9a3d36e8a0b2bdc81260f7bbc61163fd5cf1a8d6d2d16fcb3ff9b022037c4ae643946a1e3297e855fdbdfe2aca48c3dbbfb1aa75c1514080955a3527f012102e5727b99d28a3aece64e8e3a8ef52e70bc25b7ed6c85b85a77cfb7ae19c28a36feffffff8062018982e14dbd0aea14a8c8338399b21a3a5dd822092610ea885f3a31653e000000006a47304402204631b12320ea9e0bd0871ead94d77774a412c0d9e59981d99febf9cc1d8dc4b70220701bfb3da457c838208c68ac31d53032b1662d6b03392a2f039fb083fe03e8820121034ab7baabd82b18e6b888535189a69bcdd91344164b95ca2ee5121fdfaae2487bfeffffff9968475105aba01d9b242b02e9eef69a0a26a928a683808b565414efc1cbc7efaf0000006b483045022100b3f0a9a403cff37409ed32ca6c1442fd18be71877b98293e3c25df4932372eca02203bfb2cafda6034cc41d537c2ad16688c92f87e2cf8f5777d165eab347371ce4601210259b5e9a939794289d81e3889439fc2e817c4a2cc00abe44144f7933e3d0b70cbfeffffffa48d71e5bbbefe59d9970043fefedfa9ca47fc700317e09c668258ab586e7293010000006b48304502210090ca83be84f6404b065b0a7dc4417fae044ea792bca8508323243aa1e9c66f50022013e0fe25065a5c9c1ee4b57988a80ffa3d69c6020818b743eb67c73c2afc9c70012103506c9b91801c5b6614e15f4c1ada38ddbc028f8ecc5379025802a9ebbcc99d4afeffffff06b01e04000000000017a91420ed583a068a68eedc2574e875f1ba6cf9b38b908780ee3600000000001976a9140f58e86586c5ef1ccb8d16204729208ffadda6b088ac447005000000000017a9140d0feb745e89e1a542096654c69be68c9069de0887c7010400000000001976a914b98dec362562f42a391f166515b9c8543e32092588aca02e6300000000001976a914de9b06d14de57486f2449174f00573776e0f799d88ac3b370f00000000001976a9148c39ca72f83e1fc7506dacd14cd73f10654128bb88ac17490800", "vin": [{"sequence": 4294967294, "scriptSig": {"hex": "483045022100d368b511a4a9a3d36e8a0b2bdc81260f7bbc61163fd5cf1a8d6d2d16fcb3ff9b022037c4ae643946a1e3297e855fdbdfe2aca48c3dbbfb1aa75c1514080955a3527f012102e5727b99d28a3aece64e8e3a8ef52e70bc25b7ed6c85b85a77cfb7ae19c28a36", "asm": "3045022100d368b511a4a9a3d36e8a0b2bdc81260f7bbc61163fd5cf1a8d6d2d16fcb3ff9b022037c4ae643946a1e3297e855fdbdfe2aca48c3dbbfb1aa75c1514080955a3527f[ALL] 02e5727b99d28a3aece64e8e3a8ef52e70bc25b7ed6c85b85a77cfb7ae19c28a36"}, "vout": 33, "txid": "96760188a2a4b057c031d81648f50ab5945a00c29bbe2d4c1792cd6a8eb8065f"}, {"sequence": 4294967294, "scriptSig": {"hex": "47304402204631b12320ea9e0bd0871ead94d77774a412c0d9e59981d99febf9cc1d8dc4b70220701bfb3da457c838208c68ac31d53032b1662d6b03392a2f039fb083fe03e8820121034ab7baabd82b18e6b888535189a69bcdd91344164b95ca2ee5121fdfaae2487b", "asm": "304402204631b12320ea9e0bd0871ead94d77774a412c0d9e59981d99febf9cc1d8dc4b70220701bfb3da457c838208c68ac31d53032b1662d6b03392a2f039fb083fe03e882[ALL] 034ab7baabd82b18e6b888535189a69bcdd91344164b95ca2ee5121fdfaae2487b"}, "vout": 0, "txid": "3e65313a5f88ea10260922d85d3a1ab2998333c8a814ea0abd4de18289016280"}, {"sequence": 4294967294, "scriptSig": {"hex": "483045022100b3f0a9a403cff37409ed32ca6c1442fd18be71877b98293e3c25df4932372eca02203bfb2cafda6034cc41d537c2ad16688c92f87e2cf8f5777d165eab347371ce4601210259b5e9a939794289d81e3889439fc2e817c4a2cc00abe44144f7933e3d0b70cb", "asm": "3045022100b3f0a9a403cff37409ed32ca6c1442fd18be71877b98293e3c25df4932372eca02203bfb2cafda6034cc41d537c2ad16688c92f87e2cf8f5777d165eab347371ce46[ALL] 0259b5e9a939794289d81e3889439fc2e817c4a2cc00abe44144f7933e3d0b70cb"}, "vout": 175, "txid": "efc7cbc1ef1454568b8083a628a9260a9af6eee9022b249b1da0ab0551476899"}, {"sequence": 4294967294, "scriptSig": {"hex": "48304502210090ca83be84f6404b065b0a7dc4417fae044ea792bca8508323243aa1e9c66f50022013e0fe25065a5c9c1ee4b57988a80ffa3d69c6020818b743eb67c73c2afc9c70012103506c9b91801c5b6614e15f4c1ada38ddbc028f8ecc5379025802a9ebbcc99d4a", "asm": "304502210090ca83be84f6404b065b0a7dc4417fae044ea792bca8508323243aa1e9c66f50022013e0fe25065a5c9c1ee4b57988a80ffa3d69c6020818b743eb67c73c2afc9c70[ALL] 03506c9b91801c5b6614e15f4c1ada38ddbc028f8ecc5379025802a9ebbcc99d4a"}, "vout": 1, "txid": "93726e58ab5882669ce0170370fc47caa9dffefe430097d959febebbe5718da4"}], "txid": "acb452885776e398cff20d86777fc7e0fe5681b812afe609c2b8a55035bda5a3", "blocktime": 1537876114, "version": 2, "confirmations": 11462, "time": 1537876114, "locktime": 542999, "vsize": 801, "size": 801}