{"hash": "acb7ca7ed7b49ef5cc9ed4ad64048119e6d5757e2af65d03a21a62b562df0b24", "blockhash": "0000000000000000001e0dab787dd257d1dbfcb92a98c2207d5e1078be1f4165", "vout": [{"scriptPubKey": {"reqSigs": 1, "hex": "a914e1b82e656c2b8fe289b61a90fb308a4822a3834f87", "addresses": ["3NGWbqoHLcYDDDvUvg5kG19Jp8TtsErnSa"], "asm": "OP_HASH160 e1b82e656c2b8fe289b61a90fb308a4822a3834f OP_EQUAL", "type": "scripthash"}, "value": 0.00412259, "n": 0}], "hex": "01000000014cbe21db8e99bd0d7d3c547c10266b183504c8307fb9d9508ea9edd278dde5e8010000006b483045022100b1d0b00fcdecb2d832d2215fee80c6b18b1910f4cf84cc4a2c6ffe62c128ccfe02200722916f3608959eca74f16dd84b6a1c8ac9bc5142f2b2544aef2cd87ff8a9a6012103ba1ecad6175f095ca20fc4ab8c70b37659cd09d039b27c3679a6a9ba44b9f778ffffffff01634a06000000000017a914e1b82e656c2b8fe289b61a90fb308a4822a3834f8700000000", "vin": [{"sequence": 4294967295, "scriptSig": {"hex": "483045022100b1d0b00fcdecb2d832d2215fee80c6b18b1910f4cf84cc4a2c6ffe62c128ccfe02200722916f3608959eca74f16dd84b6a1c8ac9bc5142f2b2544aef2cd87ff8a9a6012103ba1ecad6175f095ca20fc4ab8c70b37659cd09d039b27c3679a6a9ba44b9f778", "asm": "3045022100b1d0b00fcdecb2d832d2215fee80c6b18b1910f4cf84cc4a2c6ffe62c128ccfe02200722916f3608959eca74f16dd84b6a1c8ac9bc5142f2b2544aef2cd87ff8a9a6[ALL] 03ba1ecad6175f095ca20fc4ab8c70b37659cd09d039b27c3679a6a9ba44b9f778"}, "vout": 1, "txid": "e8e5dd78d2eda98e50d9b97f30c80435186b26107c543c7d0dbd998edb21be4c"}], "txid": "acb7ca7ed7b49ef5cc9ed4ad64048119e6d5757e2af65d03a21a62b562df0b24", "blocktime": 1537872475, "version": 1, "confirmations": 11486, "time": 1537872475, "locktime": 0, "vsize": 190, "size": 190}