{"hash": "acbd54c831901fe17aeb4f0cbb12c54b40870dc2839d86621c696765b53640ac", "blockhash": "00000000000000000018f53835495a110e01622372bf6ae95dc86f2b0ab887b0", "vout": [{"scriptPubKey": {"reqSigs": 1, "hex": "a914dd98d0befc7266a655556c3e803bebd31f2a38e787", "addresses": ["3MtiKjqbFmnQbp8JrZGq6bZppnDv7dShMa"], "asm": "OP_HASH160 dd98d0befc7266a655556c3e803bebd31f2a38e7 OP_EQUAL", "type": "scripthash"}, "value": 0.78, "n": 0}, {"scriptPubKey": {"reqSigs": 1, "hex": "76a914896fb01973325dde94c6fb21ff53d7b2ac26886488ac", "addresses": ["1DXhNVViVYu4xPGUu4pYH2cTr72UPMqKAt"], "asm": "OP_DUP OP_HASH160 896fb01973325dde94c6fb21ff53d7b2ac268864 OP_EQUALVERIFY OP_CHECKSIG", "type": "pubkeyhash"}, "value": 9.73260216, "n": 1}], "hex": "010000000638a757d3d77a484e127843d19b2cef0bfd52d83601c5faa85c56d8d95d614a71000000008a47304402202862bac04d8952bd7a558b007e030ed92537547e0997f2e83abd0db64c57ec6c022042faa9047c08d2c2d7cea2b1045a2b1c607fe892bf60b94eb996e75eef31e79b01410424cd257f85c56042860458a0e9231a11cf13c66d0a7ae7552540935dc6d92b7251da37f7117c0548805b1ef30cabcff10a66dc54ce0e328d32d7000c78ce4be4fdffffffcceb923599b70ea800a5289b9220e3eb42559c21a9f04d8712279d58246f5599000000008a47304402202b8af2a267aed85b8924ca182e0cf2c25c9aa3f7bd8fca223163d645f4a40cc302207ccb3d54bd7dbe48b76b66a2fea7228aeb00ced2474575b71aa0f9e7803611a901410424cd257f85c56042860458a0e9231a11cf13c66d0a7ae7552540935dc6d92b7251da37f7117c0548805b1ef30cabcff10a66dc54ce0e328d32d7000c78ce4be4fdffffff859a72c8d74d32997d6c920f71a0797b9cc888d215d1cf4748536d8e8695ea9f010000008a47304402201f28e69307d5392c0a3b9dd241fc2e0422d3bcffc2f56a55b4e6fb5c599e41ec0220407ac2995402ef3531ded259fec5d4528300e9888076961da7f65849fb21262c01410424cd257f85c56042860458a0e9231a11cf13c66d0a7ae7552540935dc6d92b7251da37f7117c0548805b1ef30cabcff10a66dc54ce0e328d32d7000c78ce4be4fdffffff53a8466230a2ba3f4d1d3c109c64865ceb5ad7e9ccc376894458e4c1373439be000000008a473044022060cb984d9f70e46913693a97d8f2499a54b94a73ed47e66e5f558c9cf248d5f302204f204fa39c28199fcdb19a2df53088a1c0fef5ad611c45b237377a11ea0377fb01410424cd257f85c56042860458a0e9231a11cf13c66d0a7ae7552540935dc6d92b7251da37f7117c0548805b1ef30cabcff10a66dc54ce0e328d32d7000c78ce4be4fdffffff51c8b3ae09c1702df45e9485ebb91cbb2430560e340bcc3a4b9a774248e50ec0000000008a4730440220719fb635bec48d4706abf3e1f9593cb63ae8cdade01b26869f6a05c2fc85be7702204a2c1230b996e23c305c86f8d077dba13fa046e11086fc1c8d556a3f6e7a279201410424cd257f85c56042860458a0e9231a11cf13c66d0a7ae7552540935dc6d92b7251da37f7117c0548805b1ef30cabcff10a66dc54ce0e328d32d7000c78ce4be4fdffffff94a59cf9b243ef52e3325abad533e37ab3f13b66c3f6468e0f89fbe9c0d3bcf7000000008a47304402201c63b3b391bd8620b22f0df3c3ddd877245f968e7e5451f8e626e7eafcc838c10220671414163d2fe25cacdd859ffee8cb1b0e37599e6cb3686f6b497977e7313d5a01410424cd257f85c56042860458a0e9231a11cf13c66d0a7ae7552540935dc6d92b7251da37f7117c0548805b1ef30cabcff10a66dc54ce0e328d32d7000c78ce4be4fdffffff02802fa6040000000017a914dd98d0befc7266a655556c3e803bebd31f2a38e787b8c5023a000000001976a914896fb01973325dde94c6fb21ff53d7b2ac26886488ac0e490800", "vin": [{"sequence": 4294967293, "scriptSig": {"hex": "47304402202862bac04d8952bd7a558b007e030ed92537547e0997f2e83abd0db64c57ec6c022042faa9047c08d2c2d7cea2b1045a2b1c607fe892bf60b94eb996e75eef31e79b01410424cd257f85c56042860458a0e9231a11cf13c66d0a7ae7552540935dc6d92b7251da37f7117c0548805b1ef30cabcff10a66dc54ce0e328d32d7000c78ce4be4", "asm": "304402202862bac04d8952bd7a558b007e030ed92537547e0997f2e83abd0db64c57ec6c022042faa9047c08d2c2d7cea2b1045a2b1c607fe892bf60b94eb996e75eef31e79b[ALL] 0424cd257f85c56042860458a0e9231a11cf13c66d0a7ae7552540935dc6d92b7251da37f7117c0548805b1ef30cabcff10a66dc54ce0e328d32d7000c78ce4be4"}, "vout": 0, "txid": "714a615dd9d8565ca8fac50136d852fd0bef2c9bd14378124e487ad7d357a738"}, {"sequence": 4294967293, "scriptSig": {"hex": "47304402202b8af2a267aed85b8924ca182e0cf2c25c9aa3f7bd8fca223163d645f4a40cc302207ccb3d54bd7dbe48b76b66a2fea7228aeb00ced2474575b71aa0f9e7803611a901410424cd257f85c56042860458a0e9231a11cf13c66d0a7ae7552540935dc6d92b7251da37f7117c0548805b1ef30cabcff10a66dc54ce0e328d32d7000c78ce4be4", "asm": "304402202b8af2a267aed85b8924ca182e0cf2c25c9aa3f7bd8fca223163d645f4a40cc302207ccb3d54bd7dbe48b76b66a2fea7228aeb00ced2474575b71aa0f9e7803611a9[ALL] 0424cd257f85c56042860458a0e9231a11cf13c66d0a7ae7552540935dc6d92b7251da37f7117c0548805b1ef30cabcff10a66dc54ce0e328d32d7000c78ce4be4"}, "vout": 0, "txid": "99556f24589d2712874df0a9219c5542ebe320929b28a500a80eb7993592ebcc"}, {"sequence": 4294967293, "scriptSig": {"hex": "47304402201f28e69307d5392c0a3b9dd241fc2e0422d3bcffc2f56a55b4e6fb5c599e41ec0220407ac2995402ef3531ded259fec5d4528300e9888076961da7f65849fb21262c01410424cd257f85c56042860458a0e9231a11cf13c66d0a7ae7552540935dc6d92b7251da37f7117c0548805b1ef30cabcff10a66dc54ce0e328d32d7000c78ce4be4", "asm": "304402201f28e69307d5392c0a3b9dd241fc2e0422d3bcffc2f56a55b4e6fb5c599e41ec0220407ac2995402ef3531ded259fec5d4528300e9888076961da7f65849fb21262c[ALL] 0424cd257f85c56042860458a0e9231a11cf13c66d0a7ae7552540935dc6d92b7251da37f7117c0548805b1ef30cabcff10a66dc54ce0e328d32d7000c78ce4be4"}, "vout": 1, "txid": "9fea95868e6d534847cfd115d288c89c7b79a0710f926c7d99324dd7c8729a85"}, {"sequence": 4294967293, "scriptSig": {"hex": "473044022060cb984d9f70e46913693a97d8f2499a54b94a73ed47e66e5f558c9cf248d5f302204f204fa39c28199fcdb19a2df53088a1c0fef5ad611c45b237377a11ea0377fb01410424cd257f85c56042860458a0e9231a11cf13c66d0a7ae7552540935dc6d92b7251da37f7117c0548805b1ef30cabcff10a66dc54ce0e328d32d7000c78ce4be4", "asm": "3044022060cb984d9f70e46913693a97d8f2499a54b94a73ed47e66e5f558c9cf248d5f302204f204fa39c28199fcdb19a2df53088a1c0fef5ad611c45b237377a11ea0377fb[ALL] 0424cd257f85c56042860458a0e9231a11cf13c66d0a7ae7552540935dc6d92b7251da37f7117c0548805b1ef30cabcff10a66dc54ce0e328d32d7000c78ce4be4"}, "vout": 0, "txid": "be393437c1e458448976c3cce9d75aeb5c86649c103c1d4d3fbaa2306246a853"}, {"sequence": 4294967293, "scriptSig": {"hex": "4730440220719fb635bec48d4706abf3e1f9593cb63ae8cdade01b26869f6a05c2fc85be7702204a2c1230b996e23c305c86f8d077dba13fa046e11086fc1c8d556a3f6e7a279201410424cd257f85c56042860458a0e9231a11cf13c66d0a7ae7552540935dc6d92b7251da37f7117c0548805b1ef30cabcff10a66dc54ce0e328d32d7000c78ce4be4", "asm": "30440220719fb635bec48d4706abf3e1f9593cb63ae8cdade01b26869f6a05c2fc85be7702204a2c1230b996e23c305c86f8d077dba13fa046e11086fc1c8d556a3f6e7a2792[ALL] 0424cd257f85c56042860458a0e9231a11cf13c66d0a7ae7552540935dc6d92b7251da37f7117c0548805b1ef30cabcff10a66dc54ce0e328d32d7000c78ce4be4"}, "vout": 0, "txid": "c00ee54842779a4b3acc0b340e563024bb1cb9eb85945ef42d70c109aeb3c851"}, {"sequence": 4294967293, "scriptSig": {"hex": "47304402201c63b3b391bd8620b22f0df3c3ddd877245f968e7e5451f8e626e7eafcc838c10220671414163d2fe25cacdd859ffee8cb1b0e37599e6cb3686f6b497977e7313d5a01410424cd257f85c56042860458a0e9231a11cf13c66d0a7ae7552540935dc6d92b7251da37f7117c0548805b1ef30cabcff10a66dc54ce0e328d32d7000c78ce4be4", "asm": "304402201c63b3b391bd8620b22f0df3c3ddd877245f968e7e5451f8e626e7eafcc838c10220671414163d2fe25cacdd859ffee8cb1b0e37599e6cb3686f6b497977e7313d5a[ALL] 0424cd257f85c56042860458a0e9231a11cf13c66d0a7ae7552540935dc6d92b7251da37f7117c0548805b1ef30cabcff10a66dc54ce0e328d32d7000c78ce4be4"}, "vout": 0, "txid": "f7bcd3c0e9fb890f8e46f6c3663bf1b37ae333d5ba5a32e352ef43b2f99ca594"}], "txid": "acbd54c831901fe17aeb4f0cbb12c54b40870dc2839d86621c696765b53640ac", "blocktime": 1537870928, "version": 1, "confirmations": 11512, "time": 1537870928, "locktime": 542990, "vsize": 1150, "size": 1150}