{"hash": "aa4f2cccb63c3635b977e23840a7f16c0b3ebd3d92861f667b2c78eb998b2d2e", "blockhash": "0000000000000000001f76057863aec43deb6fa401d9628bb513d65a8098bfab", "vout": [{"scriptPubKey": {"reqSigs": 1, "hex": "76a914ed1b384e2a1bef867e9652562e697637e21b0d5c88ac", "addresses": ["1NchkjqbeECmmU42d4Dey4Ft43Rf5bEYh3"], "asm": "OP_DUP OP_HASH160 ed1b384e2a1bef867e9652562e697637e21b0d5c OP_EQUALVERIFY OP_CHECKSIG", "type": "pubkeyhash"}, "value": 0.00076976, "n": 0}, {"scriptPubKey": {"reqSigs": 1, "hex": "0014213ecef269090de43885161be43d72d97f835013", "addresses": ["bc1qyylvaunfpyx7gwy9zcd7g0tjm9lcx5qnahruhl"], "asm": "0 213ecef269090de43885161be43d72d97f835013", "type": "witness_v0_keyhash"}, "value": 3.271e-05, "n": 1}], "hex": "01000000000101b97bff83339c7cec00c8c6482c43122c7f89bcf0c4b55d20b7c94270cf9586c40000000000ffffffff02b02c0100000000001976a914ed1b384e2a1bef867e9652562e697637e21b0d5c88acc70c000000000000160014213ecef269090de43885161be43d72d97f8350130248304502210088231b35b0929b612479ca0153553ab4c7f194f61e424128e43361a5ce71eee80220045e3c4ac1088f0fd9883387315251150d190a24cf208f83cc517afcfb20c08d01210385c8fce5cf67041b54e5a80674fd6857a4df35d2a551848bd88a27bc3e082bb800000000", "vin": [{"txinwitness": ["304502210088231b35b0929b612479ca0153553ab4c7f194f61e424128e43361a5ce71eee80220045e3c4ac1088f0fd9883387315251150d190a24cf208f83cc517afcfb20c08d01", "0385c8fce5cf67041b54e5a80674fd6857a4df35d2a551848bd88a27bc3e082bb8"], "sequence": 4294967295, "scriptSig": {"hex": "", "asm": ""}, "vout": 0, "txid": "c48695cf7042c9b7205db5c4f0bc897f2c12432c48c6c800ec7c9c3383ff7bb9"}], "txid": "acc29760fd1472527d31b4dd1b77a01d46b6c18c499ac01ac67c04432589d3ea", "blocktime": 1537873891, "version": 1, "confirmations": 11478, "time": 1537873891, "locktime": 0, "vsize": 144, "size": 226}