{"hash": "acbcb04caaf632eb7ae0deaa4015f98b75919545ff786773222b0973d2bcdc15", "blockhash": "0000000000000000000baef3f32e3676a92c3b2e5da21b426e4f302fc371ce76", "vout": [{"scriptPubKey": {"reqSigs": 1, "hex": "a9149955cfbd4823cfaedc3ddfcb92328d1b555970db87", "addresses": ["3Ffn7BQ7SQmf9nK9aPjTHVFobNa1XRVYbG"], "asm": "OP_HASH160 9955cfbd4823cfaedc3ddfcb92328d1b555970db OP_EQUAL", "type": "scripthash"}, "value": 0.00516137, "n": 0}, {"scriptPubKey": {"reqSigs": 1, "hex": "a9147f871472ed7e9b74cbef2b47f6e1ce36028ed34387", "addresses": ["3DKKZRMaDzntySDqbLLLnwMenDE7To22dK"], "asm": "OP_HASH160 7f871472ed7e9b74cbef2b47f6e1ce36028ed343 OP_EQUAL", "type": "scripthash"}, "value": 0.00997987, "n": 1}], "hex": "02000000000101508b9f0f9b8a14545b23a3b211723e720f94fbef55ada0f0c247373851a5a4c10f000000171600148807e7e825be2c74ae88e61fe41aeac8ed99eb44feffffff0229e007000000000017a9149955cfbd4823cfaedc3ddfcb92328d1b555970db87633a0f000000000017a9147f871472ed7e9b74cbef2b47f6e1ce36028ed343870247304402207a0d557c9baeedc537af5d2967ed65d1973a4af104962743348b0c65fb429c5e02207bc783eec08c7be1229174754d64233fa12bed67207155ec53e2943ddaba4b73012103438fe8b4033e2a8748b924f826ffa49b4f1267aa5ebb7e8eb72f03319299f91d17490800", "vin": [{"txinwitness": ["304402207a0d557c9baeedc537af5d2967ed65d1973a4af104962743348b0c65fb429c5e02207bc783eec08c7be1229174754d64233fa12bed67207155ec53e2943ddaba4b7301", "03438fe8b4033e2a8748b924f826ffa49b4f1267aa5ebb7e8eb72f03319299f91d"], "sequence": 4294967294, "scriptSig": {"hex": "1600148807e7e825be2c74ae88e61fe41aeac8ed99eb44", "asm": "00148807e7e825be2c74ae88e61fe41aeac8ed99eb44"}, "vout": 15, "txid": "c1a4a551383747c2f0a0ad55effb940f723e7211b2a3235b54148a9b0f9f8b50"}], "txid": "accc917de2422bb2aba2f1e9084fa195e26e483a21a2d65e0855458363531896", "blocktime": 1537876114, "version": 2, "confirmations": 11459, "time": 1537876114, "locktime": 542999, "vsize": 166, "size": 247}