{"hash": "accc1b80db27d3ce1e9ca21a2463c26f13ff5972da81e5563b3144bb04850a3e", "blockhash": "0000000000000000000e13cef7c366c0283d82e591d1acd082e914b08063cdf1", "vout": [{"scriptPubKey": {"reqSigs": 1, "hex": "a914ed2af56ce0e3c85f55e5b45681c8272706b6121c87", "addresses": ["3PK3Xq5suBbgxHTDPWscMydsuH63WxGCUt"], "asm": "OP_HASH160 ed2af56ce0e3c85f55e5b45681c8272706b6121c OP_EQUAL", "type": "scripthash"}, "value": 0.00249, "n": 0}, {"scriptPubKey": {"reqSigs": 1, "hex": "76a914f4980987786e661c1370344844f2da0f07aab16b88ac", "addresses": ["1PJJ1YDA56FFWkQKooXUPSFq5EyR9iS3Y9"], "asm": "OP_DUP OP_HASH160 f4980987786e661c1370344844f2da0f07aab16b OP_EQUALVERIFY OP_CHECKSIG", "type": "pubkeyhash"}, "value": 0.0108253, "n": 1}], "hex": "010000000192497b2e5b1c58db3fa849614ba8cbddf78ecd6a9cd4d75f7f46ff960a8af967010000006b4830450221009691e906604dbd30a9127cc6e8199282c3bb942e598458b61e2387d3fa6bd803022018eaa1ee282861ffbc9c38d5547d81b3f91844b1c7fee855d3bb525a8310b41601210370948e881e868b35262e44a3e2c47445c454c4bc8ada5c22648aba4d74791283ffffffff02a8cc03000000000017a914ed2af56ce0e3c85f55e5b45681c8272706b6121c87a2841000000000001976a914f4980987786e661c1370344844f2da0f07aab16b88ac00000000", "vin": [{"sequence": 4294967295, "scriptSig": {"hex": "4830450221009691e906604dbd30a9127cc6e8199282c3bb942e598458b61e2387d3fa6bd803022018eaa1ee282861ffbc9c38d5547d81b3f91844b1c7fee855d3bb525a8310b41601210370948e881e868b35262e44a3e2c47445c454c4bc8ada5c22648aba4d74791283", "asm": "30450221009691e906604dbd30a9127cc6e8199282c3bb942e598458b61e2387d3fa6bd803022018eaa1ee282861ffbc9c38d5547d81b3f91844b1c7fee855d3bb525a8310b416[ALL] 0370948e881e868b35262e44a3e2c47445c454c4bc8ada5c22648aba4d74791283"}, "vout": 1, "txid": "67f98a0a96ff467f5fd7d49c6acd8ef7ddcba84b6149a83fdb581c5b2e7b4992"}], "txid": "accc1b80db27d3ce1e9ca21a2463c26f13ff5972da81e5563b3144bb04850a3e", "blocktime": 1537871767, "version": 1, "confirmations": 11495, "time": 1537871767, "locktime": 0, "vsize": 224, "size": 224}