{"hash": "acd48715336916b46b81af1ad8ca6f0b9a6055b141ce2f722ae98322ce6695e6", "blockhash": "00000000000000000017f5eb5941039fbcee6240d03bc1f2f8e35350df66a1d8", "vout": [{"scriptPubKey": {"type": "nulldata", "hex": "6a4c50000077f9000173c6785583fdcd5810d7b003d19ed074892d00f8e87af8e8e963c7cfd5b91c6ec5b79404a56ae471711b4400952f5baa18ec061413bf410ec9ccbc9a9526289ac0f6612cd74e33776ee4", "asm": "OP_RETURN 000077f9000173c6785583fdcd5810d7b003d19ed074892d00f8e87af8e8e963c7cfd5b91c6ec5b79404a56ae471711b4400952f5baa18ec061413bf410ec9ccbc9a9526289ac0f6612cd74e33776ee4"}, "value": 0.0, "n": 0}, {"scriptPubKey": {"reqSigs": 1, "hex": "76a914ee65c9229af616f5fcd941b91e181366e0e3549688ac", "addresses": ["1NjXkrEvpiyq5fkyZp252FghRnKP4NnVeY"], "asm": "OP_DUP OP_HASH160 ee65c9229af616f5fcd941b91e181366e0e35496 OP_EQUALVERIFY OP_CHECKSIG", "type": "pubkeyhash"}, "value": 0.00102204, "n": 1}], "hex": "0100000001e28e74fadfb64e0d8ea0b3f97ba2df965d7cfceb4a0c3e8a9717284e97b45b5d010000006b483045022100a9a5c0c379163f0a6064ce6e2924e63be4312b5aaaafca36a085b38dbb025c1e022053188591ce1975407b2a8fe7e3885f673715cfda4653253180089784463609e501210329446ffbe37d908fdaf87c6ed1286ec6dc543094e1519fcef2d540a546dcf4c1ffffffff020000000000000000536a4c50000077f9000173c6785583fdcd5810d7b003d19ed074892d00f8e87af8e8e963c7cfd5b91c6ec5b79404a56ae471711b4400952f5baa18ec061413bf410ec9ccbc9a9526289ac0f6612cd74e33776ee43c8f0100000000001976a914ee65c9229af616f5fcd941b91e181366e0e3549688ac00000000", "vin": [{"sequence": 4294967295, "scriptSig": {"hex": "483045022100a9a5c0c379163f0a6064ce6e2924e63be4312b5aaaafca36a085b38dbb025c1e022053188591ce1975407b2a8fe7e3885f673715cfda4653253180089784463609e501210329446ffbe37d908fdaf87c6ed1286ec6dc543094e1519fcef2d540a546dcf4c1", "asm": "3045022100a9a5c0c379163f0a6064ce6e2924e63be4312b5aaaafca36a085b38dbb025c1e022053188591ce1975407b2a8fe7e3885f673715cfda4653253180089784463609e5[ALL] 0329446ffbe37d908fdaf87c6ed1286ec6dc543094e1519fcef2d540a546dcf4c1"}, "vout": 1, "txid": "5d5bb4974e2817978a3e0c4aebfc7c5d96dfa27bf9b3a08e0d4eb6dffa748ee2"}], "txid": "acd48715336916b46b81af1ad8ca6f0b9a6055b141ce2f722ae98322ce6695e6", "blocktime": 1537874412, "version": 1, "confirmations": 11467, "time": 1537874412, "locktime": 0, "vsize": 284, "size": 284}