{"hash": "eeab9250ab0268c326ffa529e6c0a39a77db9a2d0475e2b26bd97f78f3359cc2", "blockhash": "00000000000000000017f5eb5941039fbcee6240d03bc1f2f8e35350df66a1d8", "vout": [{"scriptPubKey": {"reqSigs": 1, "hex": "a91477ba435339ac6786a999583bcd9c6cb3b79541b687", "addresses": ["3Cc5U9hvCTwWjcRwWeLy7XDT7eGTQkaHCm"], "asm": "OP_HASH160 77ba435339ac6786a999583bcd9c6cb3b79541b6 OP_EQUAL", "type": "scripthash"}, "value": 0.0027876, "n": 0}, {"scriptPubKey": {"reqSigs": 1, "hex": "a914a1fd5136d24bd8872bbecc52d95f4a8756fbae0787", "addresses": ["3GTYBDf7ADVEeGeXGFgSSRvyCfaL1EQNEG"], "asm": "OP_HASH160 a1fd5136d24bd8872bbecc52d95f4a8756fbae07 OP_EQUAL", "type": "scripthash"}, "value": 0.01723269, "n": 1}], "hex": "020000000001029ef3849f05cccd95b4d07c347300ad95f04aef69f8043327f6e251bde451daa6010000001716001422f14aa94c1b2c7e87bf950103790fcd0af9bacbfeffffffd3a556442e27bb4d20e3043dca66d8dc4877f9d83a9514fe6b5e71611100b0130100000017160014455fec74ee04c931f62d0f99073dfcf58b983828feffffff02e84004000000000017a91477ba435339ac6786a999583bcd9c6cb3b79541b687854b1a000000000017a914a1fd5136d24bd8872bbecc52d95f4a8756fbae07870247304402205b94fd34fd4697de9f0b9fd9da000c34206a7c0bb4d100b1d42787f621504baa02205adf6d4a1867c32bc2e508082204937ab21bc61675c90e976023908de0499b36012103d57c732f5959574b2191480521b4720f361daf2e379edfd57bc8027cb854dbd102483045022100f0804d3f3a6644aeb93c14b47a47960addef76a88391389a416880f34eda445c022033641fbbc9bdb3220963f7c34c9b6f3e128e7046cba50b857d9287f9218e11f60121038a9a9e0c2d046e640dba9082a73e5d4b9659fc1d32527fad257a9566179cedd415490800", "vin": [{"txinwitness": ["304402205b94fd34fd4697de9f0b9fd9da000c34206a7c0bb4d100b1d42787f621504baa02205adf6d4a1867c32bc2e508082204937ab21bc61675c90e976023908de0499b3601", "03d57c732f5959574b2191480521b4720f361daf2e379edfd57bc8027cb854dbd1"], "sequence": 4294967294, "scriptSig": {"hex": "16001422f14aa94c1b2c7e87bf950103790fcd0af9bacb", "asm": "001422f14aa94c1b2c7e87bf950103790fcd0af9bacb"}, "vout": 1, "txid": "a6da51e4bd51e2f6273304f869ef4af095ad0073347cd0b495cdcc059f84f39e"}, {"txinwitness": ["3045022100f0804d3f3a6644aeb93c14b47a47960addef76a88391389a416880f34eda445c022033641fbbc9bdb3220963f7c34c9b6f3e128e7046cba50b857d9287f9218e11f601", "038a9a9e0c2d046e640dba9082a73e5d4b9659fc1d32527fad257a9566179cedd4"], "sequence": 4294967294, "scriptSig": {"hex": "160014455fec74ee04c931f62d0f99073dfcf58b983828", "asm": "0014455fec74ee04c931f62d0f99073dfcf58b983828"}, "vout": 1, "txid": "13b0001161715e6bfe14953ad8f97748dcd866ca3d04e3204dbb272e4456a5d3"}], "txid": "acd6a85636f14edc3ac1c8666ad9574b73290b191c1dd5424c4bc47d67c880b3", "blocktime": 1537874412, "version": 2, "confirmations": 11468, "time": 1537874412, "locktime": 542997, "vsize": 257, "size": 419}