{"hash": "acdd96b7cb81648d7cf889a25eadbc0003145ccadc96e1b1df18d37533e48e95", "blockhash": "000000000000000000022b45ed06c6f4ccd3cf7fb5ba4856ebd2e58215665228", "vout": [{"scriptPubKey": {"type": "nulldata", "hex": "6a4c500000775c00010f99ba3cf20259cb5014fffa3a016b46dc7dc7d0968d120d670c1906f999e00b6b3cf12aaa55f96e175ab0a415755baa06fe06128d3ff5472e161d100759d4ba30d2c37bb011d97e02cf", "asm": "OP_RETURN 0000775c00010f99ba3cf20259cb5014fffa3a016b46dc7dc7d0968d120d670c1906f999e00b6b3cf12aaa55f96e175ab0a415755baa06fe06128d3ff5472e161d100759d4ba30d2c37bb011d97e02cf"}, "value": 0.0, "n": 0}, {"scriptPubKey": {"reqSigs": 1, "hex": "76a91444f4ff903a2672f59b1fbdeb84c9a0cfac21daed88ac", "addresses": ["17HcSppH3KFTuzSspvWSE7byzTP81pkWZw"], "asm": "OP_DUP OP_HASH160 44f4ff903a2672f59b1fbdeb84c9a0cfac21daed OP_EQUALVERIFY OP_CHECKSIG", "type": "pubkeyhash"}, "value": 0.00650784, "n": 1}], "hex": "010000000154429ba29251d8119fe0fff8404cf34e19ee2a46a9499ecd037a9d7b73e6c874010000006b4830450221009dba5c29997d9f48fc529e1982b5e95dbea938cde5eace5c81d0b5fde80a62b902204c4bda11001130973bd53696a8766a3cd6572073fe61fc5b2edf8d03a5f0c1a001210331ba3c5a9c1dbb4b6c1b5701a7a4487449e5bd5505a064c0018f4dced114ae7fffffffff020000000000000000536a4c500000775c00010f99ba3cf20259cb5014fffa3a016b46dc7dc7d0968d120d670c1906f999e00b6b3cf12aaa55f96e175ab0a415755baa06fe06128d3ff5472e161d100759d4ba30d2c37bb011d97e02cf20ee0900000000001976a91444f4ff903a2672f59b1fbdeb84c9a0cfac21daed88ac00000000", "vin": [{"sequence": 4294967295, "scriptSig": {"hex": "4830450221009dba5c29997d9f48fc529e1982b5e95dbea938cde5eace5c81d0b5fde80a62b902204c4bda11001130973bd53696a8766a3cd6572073fe61fc5b2edf8d03a5f0c1a001210331ba3c5a9c1dbb4b6c1b5701a7a4487449e5bd5505a064c0018f4dced114ae7f", "asm": "30450221009dba5c29997d9f48fc529e1982b5e95dbea938cde5eace5c81d0b5fde80a62b902204c4bda11001130973bd53696a8766a3cd6572073fe61fc5b2edf8d03a5f0c1a0[ALL] 0331ba3c5a9c1dbb4b6c1b5701a7a4487449e5bd5505a064c0018f4dced114ae7f"}, "vout": 1, "txid": "74c8e6737b9d7a03cd9e49a9462aee194ef34c40f8ffe09f11d85192a29b4254"}], "txid": "acdd96b7cb81648d7cf889a25eadbc0003145ccadc96e1b1df18d37533e48e95", "blocktime": 1537869901, "version": 1, "confirmations": 11523, "time": 1537869901, "locktime": 0, "vsize": 284, "size": 284}