{"hash": "f64eb5ccbdea57bcbd2c75c5847d572b2532910946d26ce9561dc171e31d7fef", "blockhash": "000000000000000000022b45ed06c6f4ccd3cf7fb5ba4856ebd2e58215665228", "vout": [{"scriptPubKey": {"reqSigs": 1, "hex": "a914a2a1e05e8496805ed6235a1bc6bae228a7fe169687", "addresses": ["3GWwJzXb1Qq7KSHnw8NWno7iVEdW1PLmvi"], "asm": "OP_HASH160 a2a1e05e8496805ed6235a1bc6bae228a7fe1696 OP_EQUAL", "type": "scripthash"}, "value": 0.0015, "n": 0}], "hex": "010000000001020488e15ec0fc3a9b57cbe00bc0bceaa33e38e52f0928d6fa7a9d99d0401bb3ab01000000171600140e538dd7b8d444e943912dec82016243fc1a2c8cfdffffffa1b246f53b0dabb283505bf2f20f5627cb42e8dfb8c559ea9a54ea8b01c90f040000000017160014d1ad4d4fe333004c850cdbc766f297a5ec439b7bfdffffff01f04902000000000017a914a2a1e05e8496805ed6235a1bc6bae228a7fe16968702473044022022d26678cbe47195c123643f83223ccf155c33e432915a8bbe7c5a77fb3c3a9602201807a1727d96f9690974875dca4b068b7df2a94260d28734080039988d141eb3012102acf07e9bb0a7d68ea3b7c24edc4442dd9627b112a8cbb6d4fc302d293db21f0d02483045022100f9cdfd310731f9f43094e15077d66f26ede76bddf23f87170e63038e6f6f546902200ce28ae5450d9d4266048ef3fa3f394e5b80844f53b45adb9b7da05feb451c20012102e96e878f5b2e65dee8e7cacce1869630f76c105c6be14703632cd55d2a4bcfaa0b490800", "vin": [{"txinwitness": ["3044022022d26678cbe47195c123643f83223ccf155c33e432915a8bbe7c5a77fb3c3a9602201807a1727d96f9690974875dca4b068b7df2a94260d28734080039988d141eb301", "02acf07e9bb0a7d68ea3b7c24edc4442dd9627b112a8cbb6d4fc302d293db21f0d"], "sequence": 4294967293, "scriptSig": {"hex": "1600140e538dd7b8d444e943912dec82016243fc1a2c8c", "asm": "00140e538dd7b8d444e943912dec82016243fc1a2c8c"}, "vout": 1, "txid": "abb31b40d0999d7afad628092fe5383ea3eabcc00be0cb579b3afcc05ee18804"}, {"txinwitness": ["3045022100f9cdfd310731f9f43094e15077d66f26ede76bddf23f87170e63038e6f6f546902200ce28ae5450d9d4266048ef3fa3f394e5b80844f53b45adb9b7da05feb451c2001", "02e96e878f5b2e65dee8e7cacce1869630f76c105c6be14703632cd55d2a4bcfaa"], "sequence": 4294967293, "scriptSig": {"hex": "160014d1ad4d4fe333004c850cdbc766f297a5ec439b7b", "asm": "0014d1ad4d4fe333004c850cdbc766f297a5ec439b7b"}, "vout": 0, "txid": "040fc9018bea549aea59c5b8dfe842cb27560ff2f25b5083b2ab0d3bf546b2a1"}], "txid": "acdea00477a5ba9ba7565cc8ccc101e27007e424b0a2623c333e648a9b4fef9f", "blocktime": 1537869901, "version": 1, "confirmations": 11524, "time": 1537869901, "locktime": 542987, "vsize": 225, "size": 387}