{"hash": "62096b27c71887bf23a7eeea385b64a7dc9ac95c36fe2113298f328e2e5d1875", "blockhash": "0000000000000000001f0ddff1eddb255c1121bcd4da4f1bc9a0da00cae72433", "vout": [{"scriptPubKey": {"reqSigs": 1, "hex": "a9140df6a0b7dacb9cf8bed346b3a00c094f99749aea87", "addresses": ["32xrA39h2UHZYwFaeFMEbhfWijQFQ5A4gu"], "asm": "OP_HASH160 0df6a0b7dacb9cf8bed346b3a00c094f99749aea OP_EQUAL", "type": "scripthash"}, "value": 0.01000296, "n": 0}, {"scriptPubKey": {"reqSigs": 1, "hex": "76a914a9fe6a270995b7a90c7b76306e07a17d2f93509588ac", "addresses": ["1GVqyTfPwJju6kphWzMCGxDkzACUPEAk1a"], "asm": "OP_DUP OP_HASH160 a9fe6a270995b7a90c7b76306e07a17d2f935095 OP_EQUALVERIFY OP_CHECKSIG", "type": "pubkeyhash"}, "value": 0.00375, "n": 1}], "hex": "0200000000010285e42465a359ba24661b348e62234d6177c9adc5efd7d6b02ec187d49c1b68c01300000017160014bc7fa801c8601411a04691fb713a1f285e0f02ddfefffffff2abdcd192bb6b515f2130c0304fd4c7dac682f42708d9c461cd6c12fb77b1ca01000000171600140283396dd0c8ceeb11fcbc8ec88108347f96ae8afeffffff0268430f000000000017a9140df6a0b7dacb9cf8bed346b3a00c094f99749aea87d8b80500000000001976a914a9fe6a270995b7a90c7b76306e07a17d2f93509588ac024830450221008e9929adfcfdfdca75ff9c2e0a633f829ba0d19b7d060b0ecb0ea4fff0226cf0022030142e57977d8830de611badb2830caa4b274ccf4623360b52ac153909a623b50121029fa6bc19b2d93db05c9636dad17e96748e9a6c54816158d3cabe3ebae754623c02473044022100ec352f4245515f087d8dea83544ef203a86c21cf3c63e2c04eb033157172a127021f264f397fab947be6ab2cbcbb551d58a7d80488d7caf90aa1f0436fd315d20c01210241b95153f3d363206b8915152f462187bfa9f8c5aef2732659a2032dddfbc00a11490800", "vin": [{"txinwitness": ["30450221008e9929adfcfdfdca75ff9c2e0a633f829ba0d19b7d060b0ecb0ea4fff0226cf0022030142e57977d8830de611badb2830caa4b274ccf4623360b52ac153909a623b501", "029fa6bc19b2d93db05c9636dad17e96748e9a6c54816158d3cabe3ebae754623c"], "sequence": 4294967294, "scriptSig": {"hex": "160014bc7fa801c8601411a04691fb713a1f285e0f02dd", "asm": "0014bc7fa801c8601411a04691fb713a1f285e0f02dd"}, "vout": 19, "txid": "c0681b9cd487c12eb0d6d7efc5adc977614d23628e341b6624ba59a36524e485"}, {"txinwitness": ["3044022100ec352f4245515f087d8dea83544ef203a86c21cf3c63e2c04eb033157172a127021f264f397fab947be6ab2cbcbb551d58a7d80488d7caf90aa1f0436fd315d20c01", "0241b95153f3d363206b8915152f462187bfa9f8c5aef2732659a2032dddfbc00a"], "sequence": 4294967294, "scriptSig": {"hex": "1600140283396dd0c8ceeb11fcbc8ec88108347f96ae8a", "asm": "00140283396dd0c8ceeb11fcbc8ec88108347f96ae8a"}, "vout": 1, "txid": "cab177fb126ccd61c4d90827f482c6dac7d44f30c030215f516bbb92d1dcabf2"}], "txid": "ace0893ed00628006721248912811e646e7e34f50a53f27b52e2a6c7aec838e0", "blocktime": 1537872018, "version": 2, "confirmations": 11489, "time": 1537872018, "locktime": 542993, "vsize": 259, "size": 421}