{"hash": "ace1033657dcc7e7d5531116c559e1072c12b24e73534b7b61bb4f2d22b618b7", "blockhash": "0000000000000000001e0dab787dd257d1dbfcb92a98c2207d5e1078be1f4165", "vout": [{"scriptPubKey": {"reqSigs": 1, "hex": "76a9148737ff6f2a48caac9fad4972837b5554eef725fc88ac", "addresses": ["1DKyJh86ogmaYRNv7HJotpefEsAapS4TfX"], "asm": "OP_DUP OP_HASH160 8737ff6f2a48caac9fad4972837b5554eef725fc OP_EQUALVERIFY OP_CHECKSIG", "type": "pubkeyhash"}, "value": 0.04218604, "n": 0}, {"scriptPubKey": {"reqSigs": 1, "hex": "76a9147e96f3bed6b65a66407c7825f8271efa89579aa888ac", "addresses": ["1CYLyWVkq66RhMSwBSCTep2TU2GU181EFq"], "asm": "OP_DUP OP_HASH160 7e96f3bed6b65a66407c7825f8271efa89579aa8 OP_EQUALVERIFY OP_CHECKSIG", "type": "pubkeyhash"}, "value": 0.25944502, "n": 1}], "hex": "0100000001279e6c448a0e274f42f61960c391a84c3e5b8faf6cc643114fea898aa93273bb000000006a473044022003500407fa18a626754a172c27357bbd0114eb302b09fd99f949b60b632e10e802203babad386df2aeadf6d61413ddad5b064b12ed0898aaf8d88e233fd85b290ecf012102f8a81337eb4dcb9cf8a7fa64e985553b49141e73e8274c0700e00948aaebb624ffffffff02ec5e4000000000001976a9148737ff6f2a48caac9fad4972837b5554eef725fc88acb6e18b01000000001976a9147e96f3bed6b65a66407c7825f8271efa89579aa888ac00000000", "vin": [{"sequence": 4294967295, "scriptSig": {"hex": "473044022003500407fa18a626754a172c27357bbd0114eb302b09fd99f949b60b632e10e802203babad386df2aeadf6d61413ddad5b064b12ed0898aaf8d88e233fd85b290ecf012102f8a81337eb4dcb9cf8a7fa64e985553b49141e73e8274c0700e00948aaebb624", "asm": "3044022003500407fa18a626754a172c27357bbd0114eb302b09fd99f949b60b632e10e802203babad386df2aeadf6d61413ddad5b064b12ed0898aaf8d88e233fd85b290ecf[ALL] 02f8a81337eb4dcb9cf8a7fa64e985553b49141e73e8274c0700e00948aaebb624"}, "vout": 0, "txid": "bb7332a98a89ea4f1143c66caf8f5b3e4ca891c36019f6424f270e8a446c9e27"}], "txid": "ace1033657dcc7e7d5531116c559e1072c12b24e73534b7b61bb4f2d22b618b7", "blocktime": 1537872475, "version": 1, "confirmations": 11487, "time": 1537872475, "locktime": 0, "vsize": 225, "size": 225}