{"hash": "ace4b5a022428171bbaebbf8eb157ad534f24907cd4ee23182e823b440acd886", "blockhash": "0000000000000000000baef3f32e3676a92c3b2e5da21b426e4f302fc371ce76", "vout": [{"scriptPubKey": {"reqSigs": 1, "hex": "76a9140fb36d92e05210f69bb9bb84f431b5e064ba10ba88ac", "addresses": ["12S25knrtjiyxSzFMYThL3QfumMGeWRftm"], "asm": "OP_DUP OP_HASH160 0fb36d92e05210f69bb9bb84f431b5e064ba10ba OP_EQUALVERIFY OP_CHECKSIG", "type": "pubkeyhash"}, "value": 0.0219278, "n": 0}, {"scriptPubKey": {"type": "nulldata", "hex": "6a4c500000783200016bdc16db5ed6bde5cde210b227b7256b4774d339f6019d6ddc0f1b8ff117119dabc52cdcdc58877e3ad9ccbc02935baa1fa20614115bf0312004bc9a9526289ac0f6612cd74e33776ee4", "asm": "OP_RETURN 0000783200016bdc16db5ed6bde5cde210b227b7256b4774d339f6019d6ddc0f1b8ff117119dabc52cdcdc58877e3ad9ccbc02935baa1fa20614115bf0312004bc9a9526289ac0f6612cd74e33776ee4"}, "value": 0.0, "n": 1}], "hex": "0100000001386e31b80abe996b92983db080e98471ca9536432dd51462f83437ea3e5eff88000000006b483045022100e82ebbd1fd67443c2a40c8c64b360fcea130163a3b7c8b1b2b543cdf4410d69d02203f76b29c761b7e8e0d922e26f562c0624b0ba2704ab8e8f97f3d423b2506a33d0121032d520ec6989da0cc40b3cbf38f7d86bdee85b572c72505b60987426fb8e1e047ffffffff028c752100000000001976a9140fb36d92e05210f69bb9bb84f431b5e064ba10ba88ac0000000000000000536a4c500000783200016bdc16db5ed6bde5cde210b227b7256b4774d339f6019d6ddc0f1b8ff117119dabc52cdcdc58877e3ad9ccbc02935baa1fa20614115bf0312004bc9a9526289ac0f6612cd74e33776ee400000000", "vin": [{"sequence": 4294967295, "scriptSig": {"hex": "483045022100e82ebbd1fd67443c2a40c8c64b360fcea130163a3b7c8b1b2b543cdf4410d69d02203f76b29c761b7e8e0d922e26f562c0624b0ba2704ab8e8f97f3d423b2506a33d0121032d520ec6989da0cc40b3cbf38f7d86bdee85b572c72505b60987426fb8e1e047", "asm": "3045022100e82ebbd1fd67443c2a40c8c64b360fcea130163a3b7c8b1b2b543cdf4410d69d02203f76b29c761b7e8e0d922e26f562c0624b0ba2704ab8e8f97f3d423b2506a33d[ALL] 032d520ec6989da0cc40b3cbf38f7d86bdee85b572c72505b60987426fb8e1e047"}, "vout": 0, "txid": "88ff5e3eea3734f86214d52d433695ca7184e980b03d98926b99be0ab8316e38"}], "txid": "ace4b5a022428171bbaebbf8eb157ad534f24907cd4ee23182e823b440acd886", "blocktime": 1537876114, "version": 1, "confirmations": 11460, "time": 1537876114, "locktime": 0, "vsize": 284, "size": 284}