{"hash": "acebeb5b1a0447d4f972bddae6beaa9c5a189b94072d926c4fbcc27d506d9d87", "blockhash": "00000000000000000024a2167bbff67b0be802c0b01cdd79e6331c2be6459f87", "vout": [{"scriptPubKey": {"reqSigs": 1, "hex": "76a9143db5ac2f1ffff0f262d4a2937bb83a7599e88c9988ac", "addresses": ["16dHrY21vNqncoGrJimycBCS1c9Psmip2t"], "asm": "OP_DUP OP_HASH160 3db5ac2f1ffff0f262d4a2937bb83a7599e88c99 OP_EQUALVERIFY OP_CHECKSIG", "type": "pubkeyhash"}, "value": 0.05066261, "n": 0}, {"scriptPubKey": {"reqSigs": 1, "hex": "76a914cfc98be392930db9888f6203761b163ac92a038e88ac", "addresses": ["1KwgKQGRDymgGxFugYUw7G4E1BWCxHTjWD"], "asm": "OP_DUP OP_HASH160 cfc98be392930db9888f6203761b163ac92a038e OP_EQUALVERIFY OP_CHECKSIG", "type": "pubkeyhash"}, "value": 0.09169153, "n": 1}], "hex": "01000000013ac60cc3109188e678feab47c28ff36ee1d25f4826101116b6487e045461696e000000006b483045022100a540d5b848825e15d05541446793d7bb14f29870c2fcb16545d3fb7af711f2c302201672e19527566e019e7678e6e3958d87b601b1afcab4d4a363404ddee0fde21301210206d73f08e37edf2c8b1b0503c092770afb86065aca0f272c0a29932295d3ff4bfdffffff02154e4d00000000001976a9143db5ac2f1ffff0f262d4a2937bb83a7599e88c9988ac01e98b00000000001976a914cfc98be392930db9888f6203761b163ac92a038e88ac0d490800", "vin": [{"sequence": 4294967293, "scriptSig": {"hex": "483045022100a540d5b848825e15d05541446793d7bb14f29870c2fcb16545d3fb7af711f2c302201672e19527566e019e7678e6e3958d87b601b1afcab4d4a363404ddee0fde21301210206d73f08e37edf2c8b1b0503c092770afb86065aca0f272c0a29932295d3ff4b", "asm": "3045022100a540d5b848825e15d05541446793d7bb14f29870c2fcb16545d3fb7af711f2c302201672e19527566e019e7678e6e3958d87b601b1afcab4d4a363404ddee0fde213[ALL] 0206d73f08e37edf2c8b1b0503c092770afb86065aca0f272c0a29932295d3ff4b"}, "vout": 0, "txid": "6e696154047e48b616111026485fd2e16ef38fc247abfe78e6889110c30cc63a"}], "txid": "acebeb5b1a0447d4f972bddae6beaa9c5a189b94072d926c4fbcc27d506d9d87", "blocktime": 1537870564, "version": 1, "confirmations": 11515, "time": 1537870564, "locktime": 542989, "vsize": 226, "size": 226}