{"hash": "16011304f2ca61f4dab10caa2ecd4515a5e1d5da6cce7edb37969edfd6f85c2c", "blockhash": "0000000000000000001cda96e906b7601b7a6fb1a3b62bca570a9e5d8f4b3de1", "vout": [{"scriptPubKey": {"reqSigs": 1, "hex": "a914df302462104b6bb7820891fbf3f8c91c5aedf8c687", "addresses": ["3N38HJ5Cei2GHzRJw44QnU2SviFACfZX4d"], "asm": "OP_HASH160 df302462104b6bb7820891fbf3f8c91c5aedf8c6 OP_EQUAL", "type": "scripthash"}, "value": 0.09688729, "n": 0}, {"scriptPubKey": {"reqSigs": 1, "hex": "76a9143b9bb4d30f7e5b02f60363c77444717e08c1eaf088ac", "addresses": ["16SBPz71jxbRgb9XsjtRTd5csDfTsBM4RF"], "asm": "OP_DUP OP_HASH160 3b9bb4d30f7e5b02f60363c77444717e08c1eaf0 OP_EQUALVERIFY OP_CHECKSIG", "type": "pubkeyhash"}, "value": 0.00253359, "n": 1}], "hex": "02000000000101f0557da8d087c5699e89740c5d633241ebe7fab6478e5317943edbc7db6cbd3c0000000017160014b33234e3af796e0d450bce561e06ba106c3b9a30feffffff0299d693000000000017a914df302462104b6bb7820891fbf3f8c91c5aedf8c687afdd0300000000001976a9143b9bb4d30f7e5b02f60363c77444717e08c1eaf088ac02473044022031d50a138cfdcd08207b479d2bd1232eaf75ea0929bee3207afab7c974b8086f022076804c2eb56ef2272146aedaf25e063665dbffd03d28207cc53f7deee71bbbd1012103be3768d56204118a44fd1ba60e81244d226378cb67d9523960a4251ffce4623113490800", "vin": [{"txinwitness": ["3044022031d50a138cfdcd08207b479d2bd1232eaf75ea0929bee3207afab7c974b8086f022076804c2eb56ef2272146aedaf25e063665dbffd03d28207cc53f7deee71bbbd101", "03be3768d56204118a44fd1ba60e81244d226378cb67d9523960a4251ffce46231"], "sequence": 4294967294, "scriptSig": {"hex": "160014b33234e3af796e0d450bce561e06ba106c3b9a30", "asm": "0014b33234e3af796e0d450bce561e06ba106c3b9a30"}, "vout": 0, "txid": "3cbd6cdbc7db3e9417538e47b6fae7eb4132635d0c74899e69c587d0a87d55f0"}], "txid": "acf2487e367b2b45cb99436b5e7196626362008af06e5d28675804405da5e82a", "blocktime": 1537873282, "version": 2, "confirmations": 11481, "time": 1537873282, "locktime": 542995, "vsize": 168, "size": 249}