{"hash": "acf877fcf86e0c0e05157b2e0726380f05dbfad3934e705e9af9893c777578bc", "blockhash": "0000000000000000000e13cef7c366c0283d82e591d1acd082e914b08063cdf1", "vout": [{"scriptPubKey": {"reqSigs": 1, "hex": "76a91412c7f2bc894cef624b5a28ee5adc6776ea41e9d588ac", "addresses": ["12iJh6cHkZUcK6Q1RicSTsALQ9H4s8oxnP"], "asm": "OP_DUP OP_HASH160 12c7f2bc894cef624b5a28ee5adc6776ea41e9d5 OP_EQUALVERIFY OP_CHECKSIG", "type": "pubkeyhash"}, "value": 0.06268833, "n": 0}, {"scriptPubKey": {"reqSigs": 1, "hex": "76a914b03d49d993796652ee10ba5c4bae3a9d7d8bea2988ac", "addresses": ["1H4sMAHhDcGUBxBrtu31a9tFYT2aD7Kd7A"], "asm": "OP_DUP OP_HASH160 b03d49d993796652ee10ba5c4bae3a9d7d8bea29 OP_EQUALVERIFY OP_CHECKSIG", "type": "pubkeyhash"}, "value": 0.09947273, "n": 1}], "hex": "0100000001e7a27853a68cb8612363fa2f73203e6536998682a4572c4de326b741f134d6e4010000006a47304402200fb20b176c28d36eafbd41160d6cea44e4acc3d2000804254e9b332719ea919602200844e2983d63722c53310337dfad099e74c92d9ba03fdc1beb891f2bf7ea33f8012103356779e4abcbcc2e0486f210c697f4ec3ca394f45c6c6fe47882ccb039f8463fffffffff02a1a75f00000000001976a91412c7f2bc894cef624b5a28ee5adc6776ea41e9d588ac89c89700000000001976a914b03d49d993796652ee10ba5c4bae3a9d7d8bea2988ac00000000", "vin": [{"sequence": 4294967295, "scriptSig": {"hex": "47304402200fb20b176c28d36eafbd41160d6cea44e4acc3d2000804254e9b332719ea919602200844e2983d63722c53310337dfad099e74c92d9ba03fdc1beb891f2bf7ea33f8012103356779e4abcbcc2e0486f210c697f4ec3ca394f45c6c6fe47882ccb039f8463f", "asm": "304402200fb20b176c28d36eafbd41160d6cea44e4acc3d2000804254e9b332719ea919602200844e2983d63722c53310337dfad099e74c92d9ba03fdc1beb891f2bf7ea33f8[ALL] 03356779e4abcbcc2e0486f210c697f4ec3ca394f45c6c6fe47882ccb039f8463f"}, "vout": 1, "txid": "e4d634f141b726e34d2c57a482869936653e20732ffa632361b88ca65378a2e7"}], "txid": "acf877fcf86e0c0e05157b2e0726380f05dbfad3934e705e9af9893c777578bc", "blocktime": 1537871767, "version": 1, "confirmations": 11495, "time": 1537871767, "locktime": 0, "vsize": 225, "size": 225}