{"hash": "acfdf55fef1df02d0861c2bfa8194465cb6e85ac1832549fa328775b31c93364", "blockhash": "0000000000000000000e13cef7c366c0283d82e591d1acd082e914b08063cdf1", "vout": [{"scriptPubKey": {"reqSigs": 1, "hex": "76a914549bc0b56efeec6fa1323095d67b18e7730ede9288ac", "addresses": ["18iNM1Lc931JmSvQdD5ecqZsyuD6ggDfmL"], "asm": "OP_DUP OP_HASH160 549bc0b56efeec6fa1323095d67b18e7730ede92 OP_EQUALVERIFY OP_CHECKSIG", "type": "pubkeyhash"}, "value": 0.01563102, "n": 0}, {"scriptPubKey": {"reqSigs": 1, "hex": "76a914ada673f1db85aff86cddaaa51dd099d3b38e609488ac", "addresses": ["1GqBJYBK7JawVuZKdtdfgbjqYsc49Q1zPA"], "asm": "OP_DUP OP_HASH160 ada673f1db85aff86cddaaa51dd099d3b38e6094 OP_EQUALVERIFY OP_CHECKSIG", "type": "pubkeyhash"}, "value": 0.0295512, "n": 1}], "hex": "0100000001faf983982a1bc96b192e512e10731475fb8ecbd3d5724debb6c2e8ae69a32e8a010000006b4830450221008a72376e9c26a7cb0909c8447a760c2d327f1e3a720517f840cc5437c3238069022005410625b516d5f0e3834c4c8340b03e59d1a020d8727f4f7a3d01b8c151b7840121023b9e1d93fa1ba59012fd1be3bb9a3f1814d427abd4d769539ca63b5e649de4d1ffffffff02ded91700000000001976a914549bc0b56efeec6fa1323095d67b18e7730ede9288ac70172d00000000001976a914ada673f1db85aff86cddaaa51dd099d3b38e609488ac00000000", "vin": [{"sequence": 4294967295, "scriptSig": {"hex": "4830450221008a72376e9c26a7cb0909c8447a760c2d327f1e3a720517f840cc5437c3238069022005410625b516d5f0e3834c4c8340b03e59d1a020d8727f4f7a3d01b8c151b7840121023b9e1d93fa1ba59012fd1be3bb9a3f1814d427abd4d769539ca63b5e649de4d1", "asm": "30450221008a72376e9c26a7cb0909c8447a760c2d327f1e3a720517f840cc5437c3238069022005410625b516d5f0e3834c4c8340b03e59d1a020d8727f4f7a3d01b8c151b784[ALL] 023b9e1d93fa1ba59012fd1be3bb9a3f1814d427abd4d769539ca63b5e649de4d1"}, "vout": 1, "txid": "8a2ea369aee8c2b6eb4d72d5d3cb8efb751473102e512e196bc91b2a9883f9fa"}], "txid": "acfdf55fef1df02d0861c2bfa8194465cb6e85ac1832549fa328775b31c93364", "blocktime": 1537871767, "version": 1, "confirmations": 11495, "time": 1537871767, "locktime": 0, "vsize": 226, "size": 226}