{"hash": "ad02b107669fdc7573e8d4fe034b98191b0304f2061395491fe9ac2caa0b10cf", "blockhash": "00000000000000000024a2167bbff67b0be802c0b01cdd79e6331c2be6459f87", "vout": [{"scriptPubKey": {"reqSigs": 1, "hex": "76a914dfe76944cc61ad034eb7ce9b1f2bde354983c4f188ac", "addresses": ["1MQtuWcrS9azR7ZuTupJUc8TTSWiBGyPhv"], "asm": "OP_DUP OP_HASH160 dfe76944cc61ad034eb7ce9b1f2bde354983c4f1 OP_EQUALVERIFY OP_CHECKSIG", "type": "pubkeyhash"}, "value": 4e-05, "n": 0}, {"scriptPubKey": {"reqSigs": 1, "hex": "76a91479cb28b67949abfd0f9c2345c4967257a5e20f3a88ac", "addresses": ["1C6z8x2GHHfWFNvNBZKVfHZb26FovoMm2e"], "asm": "OP_DUP OP_HASH160 79cb28b67949abfd0f9c2345c4967257a5e20f3a OP_EQUALVERIFY OP_CHECKSIG", "type": "pubkeyhash"}, "value": 0.922, "n": 1}], "hex": "01000000057a0063c277804d6ac2b5df026170534112644c3cf7f2c37b25f6925d7bbce9000b0000006a47304402201faa6b65797f26d28d1bb07542bb2e47d8fb3de1d6d2120fd3b492d48767605a022043e8da16461d52cc193d302fc292d52de8752725c3f070ad9d050021c3be739a012102ec2b66c569ae986aaf8e78a8a859d891329092765f57155128610b005510b5f5ffffffffe80fe32e16689d1d88bdd2ecca87ab72af95e1d50da698492197da3672378e7b000000006a473044022021d1d41732ef5ef4430c012b1f85a962de88c2678977dbcbef8b199118a9db050220218e2c7c460253cae9f6834be85ba5151a47f790ed4dd49297c254aef3c9f4670121029b43ed1b4bb8617e7f7be2552d4dcfa3bf2869b6d9677927ba0fd24ace1a6740ffffffff162f8a989c30efe9283553e3b9c206f2d55481f21cd31372c4123b969ca9a4b5000000006a4730440220249320bc6974d256f06e5e0db6b550a543e04643da9a678dad0ca0d3af61533b022010a0ae7bad463a637119f669465622bfa9befcdc6c02a73ce0fe4fcf6070a4cc012102cbc858edb517af3ba1fc3e23b0e2d8f64052aa2ec21889b045ed09042887114bffffffffaa3a29e22d366f78042837ef047a07c60fb673b494fa5bbf6f44161dbd16b1c5000000006a47304402202c9292ee0d387b3d28648d2f34c2a758500fd2c8a4518b81c211d25240fea9860220586b210c618c13740144448bd1a51882fe2533dd966ae3ae659373a0f31783fd01210264c78a28bed89f2845187cfb59b02c044f1cd0809162248484c6a82f97032a1bffffffff496ef918e6f1d1c09ef64e48e01dfb40716b167184ffc5971f49638c75c841d3010000006a473044022018909bd8ef27142fad8b06befa3d1bc57825c6d4e4272fd4c0ca5d13fb1b8082022059077e0ca12e385c366d9958071a3c6d9bfe550e08fa948eabbf61c05022a0160121030c8d9dadba2573cf05918a2ca377c04f005f9b5679735acc5f7f5554667c1643ffffffff02a00f0000000000001976a914dfe76944cc61ad034eb7ce9b1f2bde354983c4f188ac40dc7e05000000001976a91479cb28b67949abfd0f9c2345c4967257a5e20f3a88ac00000000", "vin": [{"sequence": 4294967295, "scriptSig": {"hex": "47304402201faa6b65797f26d28d1bb07542bb2e47d8fb3de1d6d2120fd3b492d48767605a022043e8da16461d52cc193d302fc292d52de8752725c3f070ad9d050021c3be739a012102ec2b66c569ae986aaf8e78a8a859d891329092765f57155128610b005510b5f5", "asm": "304402201faa6b65797f26d28d1bb07542bb2e47d8fb3de1d6d2120fd3b492d48767605a022043e8da16461d52cc193d302fc292d52de8752725c3f070ad9d050021c3be739a[ALL] 02ec2b66c569ae986aaf8e78a8a859d891329092765f57155128610b005510b5f5"}, "vout": 11, "txid": "00e9bc7b5d92f6257bc3f2f73c4c64124153706102dfb5c26a4d8077c263007a"}, {"sequence": 4294967295, "scriptSig": {"hex": "473044022021d1d41732ef5ef4430c012b1f85a962de88c2678977dbcbef8b199118a9db050220218e2c7c460253cae9f6834be85ba5151a47f790ed4dd49297c254aef3c9f4670121029b43ed1b4bb8617e7f7be2552d4dcfa3bf2869b6d9677927ba0fd24ace1a6740", "asm": "3044022021d1d41732ef5ef4430c012b1f85a962de88c2678977dbcbef8b199118a9db050220218e2c7c460253cae9f6834be85ba5151a47f790ed4dd49297c254aef3c9f467[ALL] 029b43ed1b4bb8617e7f7be2552d4dcfa3bf2869b6d9677927ba0fd24ace1a6740"}, "vout": 0, "txid": "7b8e377236da97214998a60dd5e195af72ab87caecd2bd881d9d68162ee30fe8"}, {"sequence": 4294967295, "scriptSig": {"hex": "4730440220249320bc6974d256f06e5e0db6b550a543e04643da9a678dad0ca0d3af61533b022010a0ae7bad463a637119f669465622bfa9befcdc6c02a73ce0fe4fcf6070a4cc012102cbc858edb517af3ba1fc3e23b0e2d8f64052aa2ec21889b045ed09042887114b", "asm": "30440220249320bc6974d256f06e5e0db6b550a543e04643da9a678dad0ca0d3af61533b022010a0ae7bad463a637119f669465622bfa9befcdc6c02a73ce0fe4fcf6070a4cc[ALL] 02cbc858edb517af3ba1fc3e23b0e2d8f64052aa2ec21889b045ed09042887114b"}, "vout": 0, "txid": "b5a4a99c963b12c47213d31cf28154d5f206c2b9e3533528e9ef309c988a2f16"}, {"sequence": 4294967295, "scriptSig": {"hex": "47304402202c9292ee0d387b3d28648d2f34c2a758500fd2c8a4518b81c211d25240fea9860220586b210c618c13740144448bd1a51882fe2533dd966ae3ae659373a0f31783fd01210264c78a28bed89f2845187cfb59b02c044f1cd0809162248484c6a82f97032a1b", "asm": "304402202c9292ee0d387b3d28648d2f34c2a758500fd2c8a4518b81c211d25240fea9860220586b210c618c13740144448bd1a51882fe2533dd966ae3ae659373a0f31783fd[ALL] 0264c78a28bed89f2845187cfb59b02c044f1cd0809162248484c6a82f97032a1b"}, "vout": 0, "txid": "c5b116bd1d16446fbf5bfa94b473b60fc6077a04ef372804786f362de2293aaa"}, {"sequence": 4294967295, "scriptSig": {"hex": "473044022018909bd8ef27142fad8b06befa3d1bc57825c6d4e4272fd4c0ca5d13fb1b8082022059077e0ca12e385c366d9958071a3c6d9bfe550e08fa948eabbf61c05022a0160121030c8d9dadba2573cf05918a2ca377c04f005f9b5679735acc5f7f5554667c1643", "asm": "3044022018909bd8ef27142fad8b06befa3d1bc57825c6d4e4272fd4c0ca5d13fb1b8082022059077e0ca12e385c366d9958071a3c6d9bfe550e08fa948eabbf61c05022a016[ALL] 030c8d9dadba2573cf05918a2ca377c04f005f9b5679735acc5f7f5554667c1643"}, "vout": 1, "txid": "d341c8758c63491f97c5ff8471166b7140fb1de0484ef69ec0d1f1e618f96e49"}], "txid": "ad02b107669fdc7573e8d4fe034b98191b0304f2061395491fe9ac2caa0b10cf", "blocktime": 1537870564, "version": 1, "confirmations": 11515, "time": 1537870564, "locktime": 0, "vsize": 813, "size": 813}