{"hash": "ad07549ede38470b1fbebdb1c05e65a5b535d966518aa68552866fd743900973", "blockhash": "0000000000000000000e13cef7c366c0283d82e591d1acd082e914b08063cdf1", "vout": [{"scriptPubKey": {"reqSigs": 1, "hex": "76a91473664bf42a19e6624582c181272cebc3abe2bc7b88ac", "addresses": ["1BXBFm3jFg4p2d432HEuYhQKBv1hVQC5nb"], "asm": "OP_DUP OP_HASH160 73664bf42a19e6624582c181272cebc3abe2bc7b OP_EQUALVERIFY OP_CHECKSIG", "type": "pubkeyhash"}, "value": 0.02888396, "n": 0}, {"scriptPubKey": {"reqSigs": 1, "hex": "a914cf523ad9151e1ab89afe66924700a1d42e35e52987", "addresses": ["3LbEJgezK8oiKz9NmUgxiXRHhFtD4AjD37"], "asm": "OP_HASH160 cf523ad9151e1ab89afe66924700a1d42e35e529 OP_EQUAL", "type": "scripthash"}, "value": 0.09499769, "n": 1}], "hex": "01000000017f2d277cf8bc514ec02677f1c118359adcd0b445024bcbc8b06d07f717c4309a000000006b48304502210083dac198cc44108516d0e61f286cd61019519575b61acffaa190805264d9dbd702207ed5972923f8ef801cb514b8c12e3c759de29222dcda96c1920e18b64eb7c18301210232756ed99a084b77508a3ff3e7871eb070a0c7a885d5cf354ef3e912ddf34f28ffffffff02cc122c00000000001976a91473664bf42a19e6624582c181272cebc3abe2bc7b88ac79f490000000000017a914cf523ad9151e1ab89afe66924700a1d42e35e5298700000000", "vin": [{"sequence": 4294967295, "scriptSig": {"hex": "48304502210083dac198cc44108516d0e61f286cd61019519575b61acffaa190805264d9dbd702207ed5972923f8ef801cb514b8c12e3c759de29222dcda96c1920e18b64eb7c18301210232756ed99a084b77508a3ff3e7871eb070a0c7a885d5cf354ef3e912ddf34f28", "asm": "304502210083dac198cc44108516d0e61f286cd61019519575b61acffaa190805264d9dbd702207ed5972923f8ef801cb514b8c12e3c759de29222dcda96c1920e18b64eb7c183[ALL] 0232756ed99a084b77508a3ff3e7871eb070a0c7a885d5cf354ef3e912ddf34f28"}, "vout": 0, "txid": "9a30c417f7076db0c8cb4b0245b4d0dc9a3518c1f17726c04e51bcf87c272d7f"}], "txid": "ad07549ede38470b1fbebdb1c05e65a5b535d966518aa68552866fd743900973", "blocktime": 1537871767, "version": 1, "confirmations": 11493, "time": 1537871767, "locktime": 0, "vsize": 224, "size": 224}