{"hash": "ad0d9e82266d38f176766055dc0a7cfb4804ff05e29182923c24fd989e6d8ba4", "blockhash": "00000000000000000018f53835495a110e01622372bf6ae95dc86f2b0ab887b0", "vout": [{"scriptPubKey": {"reqSigs": 1, "hex": "a9142b295ea41dad73577006a1ae1e2067b132a38c4f87", "addresses": ["35dEYD5SfCGfseJoCXaJuzJWMwuj6K6vZo"], "asm": "OP_HASH160 2b295ea41dad73577006a1ae1e2067b132a38c4f OP_EQUAL", "type": "scripthash"}, "value": 0.00016, "n": 0}, {"scriptPubKey": {"reqSigs": 1, "hex": "76a914de9e7e90a94c10b6891b105e06e23eac8eae0f0588ac", "addresses": ["1MJ6syFyNDqDSaFB3gdLXaLqrP9MBpAdRB"], "asm": "OP_DUP OP_HASH160 de9e7e90a94c10b6891b105e06e23eac8eae0f05 OP_EQUALVERIFY OP_CHECKSIG", "type": "pubkeyhash"}, "value": 0.01432418, "n": 1}], "hex": "01000000019229c98478c0f94933a6117b647c2765338f9f97e71423050a3024d37286b2a15c0000006b483045022100837f070fd4c66adc89cdebe8dd2f5d1faa387fff78e677160b1e803920ab542e02205206d0321a78fcf4bb7618d533c516378f5e450e8df4e7a483fedf37de1957480121037061d21162b73f7c00d632e75d56b83e4cd37294cf8b6246708c3ea9d4fcff56ffffffff02803e00000000000017a9142b295ea41dad73577006a1ae1e2067b132a38c4f8762db1500000000001976a914de9e7e90a94c10b6891b105e06e23eac8eae0f0588ac00000000", "vin": [{"sequence": 4294967295, "scriptSig": {"hex": "483045022100837f070fd4c66adc89cdebe8dd2f5d1faa387fff78e677160b1e803920ab542e02205206d0321a78fcf4bb7618d533c516378f5e450e8df4e7a483fedf37de1957480121037061d21162b73f7c00d632e75d56b83e4cd37294cf8b6246708c3ea9d4fcff56", "asm": "3045022100837f070fd4c66adc89cdebe8dd2f5d1faa387fff78e677160b1e803920ab542e02205206d0321a78fcf4bb7618d533c516378f5e450e8df4e7a483fedf37de195748[ALL] 037061d21162b73f7c00d632e75d56b83e4cd37294cf8b6246708c3ea9d4fcff56"}, "vout": 92, "txid": "a1b28672d324300a052314e7979f8f3365277c647b11a63349f9c07884c92992"}], "txid": "ad0d9e82266d38f176766055dc0a7cfb4804ff05e29182923c24fd989e6d8ba4", "blocktime": 1537870928, "version": 1, "confirmations": 11512, "time": 1537870928, "locktime": 0, "vsize": 224, "size": 224}