{"hash": "ad0e8232fd28348e929a819616cbd3ecab8da2d1f7a07f14afe607592a9f0aa3", "blockhash": "0000000000000000000e13cef7c366c0283d82e591d1acd082e914b08063cdf1", "vout": [{"scriptPubKey": {"reqSigs": 1, "hex": "a9145f1295134f1f679f82d12f010d862066892b2ce487", "addresses": ["3AMiNtbA9go8XDiYUMM1mRSt1wNYagBsQv"], "asm": "OP_HASH160 5f1295134f1f679f82d12f010d862066892b2ce4 OP_EQUAL", "type": "scripthash"}, "value": 0.15817114, "n": 0}], "hex": "0100000002e05c5b066a7f16947cf29bc304db680b960a3fe1fc0c8d81717a937a00afb44d000000006a47304402204bcd1770b39455c61889252fbdd4f2b43b649dd5951c8177a473203c5c1c25f802204da70eb7d84a7afac7e0d048c5f990767c39a479a6a7ffdb01967a6f3ddc2a500121029f7c93228d1e7c5837ca0bf4d6e8ac4814205aa45c07e4ea18af7cafd3f30727ffffffff383f8dbe12242a9f51f1331c8d106e6738e03256b0bec98c6d759d7a8fa96b01010000006a47304402200b26486c3e74cd5fe675d1fbb5a7d5efaf130be64992d3510cbd6ee70c60be5002203f0e49e05278bdada516cf368dfa75b3171a1f043e3166a66998c1876e614a7c0121033eb0c5beef615964f064c45d993a0acbc3c82a1c55b95874972e18c819f2cc6effffffff019a59f1000000000017a9145f1295134f1f679f82d12f010d862066892b2ce48700000000", "vin": [{"sequence": 4294967295, "scriptSig": {"hex": "47304402204bcd1770b39455c61889252fbdd4f2b43b649dd5951c8177a473203c5c1c25f802204da70eb7d84a7afac7e0d048c5f990767c39a479a6a7ffdb01967a6f3ddc2a500121029f7c93228d1e7c5837ca0bf4d6e8ac4814205aa45c07e4ea18af7cafd3f30727", "asm": "304402204bcd1770b39455c61889252fbdd4f2b43b649dd5951c8177a473203c5c1c25f802204da70eb7d84a7afac7e0d048c5f990767c39a479a6a7ffdb01967a6f3ddc2a50[ALL] 029f7c93228d1e7c5837ca0bf4d6e8ac4814205aa45c07e4ea18af7cafd3f30727"}, "vout": 0, "txid": "4db4af007a937a71818d0cfce13f0a960b68db04c39bf27c94167f6a065b5ce0"}, {"sequence": 4294967295, "scriptSig": {"hex": "47304402200b26486c3e74cd5fe675d1fbb5a7d5efaf130be64992d3510cbd6ee70c60be5002203f0e49e05278bdada516cf368dfa75b3171a1f043e3166a66998c1876e614a7c0121033eb0c5beef615964f064c45d993a0acbc3c82a1c55b95874972e18c819f2cc6e", "asm": "304402200b26486c3e74cd5fe675d1fbb5a7d5efaf130be64992d3510cbd6ee70c60be5002203f0e49e05278bdada516cf368dfa75b3171a1f043e3166a66998c1876e614a7c[ALL] 033eb0c5beef615964f064c45d993a0acbc3c82a1c55b95874972e18c819f2cc6e"}, "vout": 1, "txid": "016ba98f7a9d756d8cc9beb05632e038676e108d1c33f1519f2a2412be8d3f38"}], "txid": "ad0e8232fd28348e929a819616cbd3ecab8da2d1f7a07f14afe607592a9f0aa3", "blocktime": 1537871767, "version": 1, "confirmations": 11490, "time": 1537871767, "locktime": 0, "vsize": 336, "size": 336}