{"hash": "0264aeb5b9dd282664d8a4910e3fb41161f68e6c38aff3ba04b9594cad76fe2c", "blockhash": "0000000000000000001e0dab787dd257d1dbfcb92a98c2207d5e1078be1f4165", "vout": [{"scriptPubKey": {"reqSigs": 1, "hex": "76a9145e277d617ae05c140de98e3073fa3d4b5ba9589b88ac", "addresses": ["19aqpq6jFexJuWh8gSbbmGVNYejup41gW7"], "asm": "OP_DUP OP_HASH160 5e277d617ae05c140de98e3073fa3d4b5ba9589b OP_EQUALVERIFY OP_CHECKSIG", "type": "pubkeyhash"}, "value": 0.0211424, "n": 0}, {"scriptPubKey": {"reqSigs": 1, "hex": "a91468d84692415a6a574977bca8df7a063fd55c966287", "addresses": ["3BFPHbEZX46PZ9rWayLZVvq8km12Gust1y"], "asm": "OP_HASH160 68d84692415a6a574977bca8df7a063fd55c9662 OP_EQUAL", "type": "scripthash"}, "value": 0.00998365, "n": 1}], "hex": "02000000000101e27628654c56d6072b4e6998aac9e76f2944aa1c217c81d807d79bc85e2d4488160000001716001458e883ecab248e9daee2f385f0e1146e4a15811cfeffffff02c0422000000000001976a9145e277d617ae05c140de98e3073fa3d4b5ba9589b88acdd3b0f000000000017a91468d84692415a6a574977bca8df7a063fd55c96628702483045022100cf503658b86ef92ee91b63fed5bc95ea3dbfe945badc3fd22327baf9b8bb2e21022019cd0e41eaf1bb6ba42ce8a503cd3e473a0c18b8a622510c635dca285c9f2cde012103874cf4ffc64cfeca1642ec1d75d2cf79197c9965ed6d307478b7f58a99d5705712490800", "vin": [{"txinwitness": ["3045022100cf503658b86ef92ee91b63fed5bc95ea3dbfe945badc3fd22327baf9b8bb2e21022019cd0e41eaf1bb6ba42ce8a503cd3e473a0c18b8a622510c635dca285c9f2cde01", "03874cf4ffc64cfeca1642ec1d75d2cf79197c9965ed6d307478b7f58a99d57057"], "sequence": 4294967294, "scriptSig": {"hex": "16001458e883ecab248e9daee2f385f0e1146e4a15811c", "asm": "001458e883ecab248e9daee2f385f0e1146e4a15811c"}, "vout": 22, "txid": "88442d5ec89bd707d8817c211caa44296fe7c9aa98694e2b07d6564c652876e2"}], "txid": "ad0f9178ecc5fb1379f14d7f64a9db66ae6c5102f6930e54618d575a23d9bfae", "blocktime": 1537872475, "version": 2, "confirmations": 11486, "time": 1537872475, "locktime": 542994, "vsize": 168, "size": 250}