{"hash": "ad10505154c9a72077d65bf4a21cd846261b000c07617909588cb0c6654b24d0", "blockhash": "0000000000000000000baef3f32e3676a92c3b2e5da21b426e4f302fc371ce76", "vout": [{"scriptPubKey": {"reqSigs": 1, "hex": "76a914dbb18f32a1ba7badbbd0cdee60d3c516c103c15288ac", "addresses": ["1M2dh41eh4Yx7RJuKGSanfgvHEGEzKdTbk"], "asm": "OP_DUP OP_HASH160 dbb18f32a1ba7badbbd0cdee60d3c516c103c152 OP_EQUALVERIFY OP_CHECKSIG", "type": "pubkeyhash"}, "value": 0.4195, "n": 0}, {"scriptPubKey": {"reqSigs": 1, "hex": "76a9140ef4ce9efb54c60a3f45afbffc65a76ba25bbc7a88ac", "addresses": ["12N5jBZSwzC6G3ba5T77p5kkif98ZGz6tF"], "asm": "OP_DUP OP_HASH160 0ef4ce9efb54c60a3f45afbffc65a76ba25bbc7a OP_EQUALVERIFY OP_CHECKSIG", "type": "pubkeyhash"}, "value": 0.16205351, "n": 1}], "hex": "02000000024a1e82a2f12c9f21f286052634c6513b4a39e773f0c63ea9b069d86187d65106010000006b483045022100d9d011fc3df02ef08476674146215d776fe2dbf33aecfbcea80a8614e003a3c902201a1fbf3e1dd5bedc575108c3bd7501991223b5c70031486ab88878ed71d14c420121032b8fb0a8a2cea48f2ac4a530f8b48467d9e8f0feb6e7a3e81623e1428ecd8df9feffffffcd5ce16bffddfcf8442237bb06faa98def74699a3b217415d43e8fb0a9cf01cf000000006a473044022077675dbddab7a81dd06f62324e5f6ef079f762811aef08a3b29ee4bacc82e5a6022067a0cac1a2b6136780910bb9dc47c36f8b0480d3b0c03991cf6e8df176ce23dd012103972eeab2dae391cdf33ef48120b8fe2ddccf96d0fe6b97ebe5154b265e4ed6c8feffffff02301b8002000000001976a914dbb18f32a1ba7badbbd0cdee60d3c516c103c15288ac2746f700000000001976a9140ef4ce9efb54c60a3f45afbffc65a76ba25bbc7a88ac00000000", "vin": [{"sequence": 4294967294, "scriptSig": {"hex": "483045022100d9d011fc3df02ef08476674146215d776fe2dbf33aecfbcea80a8614e003a3c902201a1fbf3e1dd5bedc575108c3bd7501991223b5c70031486ab88878ed71d14c420121032b8fb0a8a2cea48f2ac4a530f8b48467d9e8f0feb6e7a3e81623e1428ecd8df9", "asm": "3045022100d9d011fc3df02ef08476674146215d776fe2dbf33aecfbcea80a8614e003a3c902201a1fbf3e1dd5bedc575108c3bd7501991223b5c70031486ab88878ed71d14c42[ALL] 032b8fb0a8a2cea48f2ac4a530f8b48467d9e8f0feb6e7a3e81623e1428ecd8df9"}, "vout": 1, "txid": "0651d68761d869b0a93ec6f073e7394a3b51c634260586f2219f2cf1a2821e4a"}, {"sequence": 4294967294, "scriptSig": {"hex": "473044022077675dbddab7a81dd06f62324e5f6ef079f762811aef08a3b29ee4bacc82e5a6022067a0cac1a2b6136780910bb9dc47c36f8b0480d3b0c03991cf6e8df176ce23dd012103972eeab2dae391cdf33ef48120b8fe2ddccf96d0fe6b97ebe5154b265e4ed6c8", "asm": "3044022077675dbddab7a81dd06f62324e5f6ef079f762811aef08a3b29ee4bacc82e5a6022067a0cac1a2b6136780910bb9dc47c36f8b0480d3b0c03991cf6e8df176ce23dd[ALL] 03972eeab2dae391cdf33ef48120b8fe2ddccf96d0fe6b97ebe5154b265e4ed6c8"}, "vout": 0, "txid": "cf01cfa9b08f3ed41574213b9a6974ef8da9fa06bb372244f8fcddff6be15ccd"}], "txid": "ad10505154c9a72077d65bf4a21cd846261b000c07617909588cb0c6654b24d0", "blocktime": 1537876114, "version": 2, "confirmations": 11460, "time": 1537876114, "locktime": 0, "vsize": 373, "size": 373}