{"hash": "ad11238eec84e9a9055c75da970a0a9b4648c184705e9c4b55f38ec5688fcc85", "blockhash": "0000000000000000000baef3f32e3676a92c3b2e5da21b426e4f302fc371ce76", "vout": [{"scriptPubKey": {"reqSigs": 1, "hex": "a91429da29f096885fcadd472cb404dca481a29d6bcf87", "addresses": ["35WJyhPrkfAavL3heuUf8z7cWVLN5ALQwN"], "asm": "OP_HASH160 29da29f096885fcadd472cb404dca481a29d6bcf OP_EQUAL", "type": "scripthash"}, "value": 0.07809589, "n": 0}, {"scriptPubKey": {"reqSigs": 1, "hex": "76a914460a60bf82dc2a333e82288abf254f7902190b2288ac", "addresses": ["17PLjVvzEokbz6fFf1UwKkrkFhkGSauYu3"], "asm": "OP_DUP OP_HASH160 460a60bf82dc2a333e82288abf254f7902190b22 OP_EQUALVERIFY OP_CHECKSIG", "type": "pubkeyhash"}, "value": 0.00640502, "n": 1}], "hex": "0100000002850b729a901b6cecb74e9c941c180199d23f9b67619c24d4609c8aec74cc82191a0000006a47304402200ba0d59021db7085d6fec8243e4df558847d6dc456f9b8a54c93009273edb89f022072533b1309cb0ba0443b6826b7e44b777f26fed418e38657d904d8c507d0ded8012103fd481faa443d505b6bfcdb8c138bb3a646cbd405bc21983602e345dfabf032c9ffffffff3b1bab45af697b4b0208e166f8ee4fc911aca30380bde093f2d6d76146c9873e010000006b483045022100a87916b65711941b7db5b95841605fc131f19e5bfe6e39a3e277abd4e98f5318022062b266c7a5352bd4cbd0dc2d5165817fbf9c2b7e5be216e7aa86f69884c40421012102676962481b5c8816c0e8151eccb2c2105f95273fa2bed2b1cc51aef5e48f63d5ffffffff02352a77000000000017a91429da29f096885fcadd472cb404dca481a29d6bcf87f6c50900000000001976a914460a60bf82dc2a333e82288abf254f7902190b2288ac00000000", "vin": [{"sequence": 4294967295, "scriptSig": {"hex": "47304402200ba0d59021db7085d6fec8243e4df558847d6dc456f9b8a54c93009273edb89f022072533b1309cb0ba0443b6826b7e44b777f26fed418e38657d904d8c507d0ded8012103fd481faa443d505b6bfcdb8c138bb3a646cbd405bc21983602e345dfabf032c9", "asm": "304402200ba0d59021db7085d6fec8243e4df558847d6dc456f9b8a54c93009273edb89f022072533b1309cb0ba0443b6826b7e44b777f26fed418e38657d904d8c507d0ded8[ALL] 03fd481faa443d505b6bfcdb8c138bb3a646cbd405bc21983602e345dfabf032c9"}, "vout": 26, "txid": "1982cc74ec8a9c60d4249c61679b3fd29901181c949c4eb7ec6c1b909a720b85"}, {"sequence": 4294967295, "scriptSig": {"hex": "483045022100a87916b65711941b7db5b95841605fc131f19e5bfe6e39a3e277abd4e98f5318022062b266c7a5352bd4cbd0dc2d5165817fbf9c2b7e5be216e7aa86f69884c40421012102676962481b5c8816c0e8151eccb2c2105f95273fa2bed2b1cc51aef5e48f63d5", "asm": "3045022100a87916b65711941b7db5b95841605fc131f19e5bfe6e39a3e277abd4e98f5318022062b266c7a5352bd4cbd0dc2d5165817fbf9c2b7e5be216e7aa86f69884c40421[ALL] 02676962481b5c8816c0e8151eccb2c2105f95273fa2bed2b1cc51aef5e48f63d5"}, "vout": 1, "txid": "3e87c94661d7d6f293e0bd8003a3ac11c94feef866e108024b7b69af45ab1b3b"}], "txid": "ad11238eec84e9a9055c75da970a0a9b4648c184705e9c4b55f38ec5688fcc85", "blocktime": 1537876114, "version": 1, "confirmations": 11460, "time": 1537876114, "locktime": 0, "vsize": 371, "size": 371}