{"hash": "ad14eb6a2726ec1f083ac6303dc7fce9dbc8b3dbd109ea412965c3747427528a", "blockhash": "0000000000000000000e13cef7c366c0283d82e591d1acd082e914b08063cdf1", "vout": [{"scriptPubKey": {"reqSigs": 1, "hex": "76a9146b2c5129d6b5c1d29c14ab90ad7b5c8dfbf9891c88ac", "addresses": ["1AmgPjEL1JZzXevc1q7pdvULvgKtyCnvZQ"], "asm": "OP_DUP OP_HASH160 6b2c5129d6b5c1d29c14ab90ad7b5c8dfbf9891c OP_EQUALVERIFY OP_CHECKSIG", "type": "pubkeyhash"}, "value": 0.08053546, "n": 0}, {"scriptPubKey": {"reqSigs": 1, "hex": "a9144e7165c298bd1c9b222f602856ca2dd6476d9e0287", "addresses": ["38qnUW8KifPKmzr9LYvkP4FcBNnk2inVWN"], "asm": "OP_HASH160 4e7165c298bd1c9b222f602856ca2dd6476d9e02 OP_EQUAL", "type": "scripthash"}, "value": 0.18434274, "n": 1}], "hex": "0100000002cf44f90964c83d3e15172f369ac028c79cc466b74173a5b11eefc4b3eb066700000000006b48304502210099d682e9092a0331ea83cde72a02ef9e042f329998df36945e7b14e3ea3b56bd022045c84cc7cb44aa6d59e58d025700273167ee1cc2e08280c9a0f9583b4bbbf94b0121034f14434a099c1bd1a73468f4ac208ae0a803946fa08413be81898962a52e5eb2ffffffff74413324820cb8ae04dc50ac6c9bc718636cd04bb58f5cb785be3cd8f94d2f24000000006b483045022100cae6672b70808eee7bfe864b6f603f3e7e21b77c0634255d8e6392e1ca437970022058ded9d346fdf1d4bd2e6097c90f9f1ad3862b00d0d4335291d37404d3060ad8012102a7a5448de553db7fc920e8bd63e7e6a4503e980404a1ee9b67ce45f7f18e4c6affffffff022ae37a00000000001976a9146b2c5129d6b5c1d29c14ab90ad7b5c8dfbf9891c88ace24819010000000017a9144e7165c298bd1c9b222f602856ca2dd6476d9e028700000000", "vin": [{"sequence": 4294967295, "scriptSig": {"hex": "48304502210099d682e9092a0331ea83cde72a02ef9e042f329998df36945e7b14e3ea3b56bd022045c84cc7cb44aa6d59e58d025700273167ee1cc2e08280c9a0f9583b4bbbf94b0121034f14434a099c1bd1a73468f4ac208ae0a803946fa08413be81898962a52e5eb2", "asm": "304502210099d682e9092a0331ea83cde72a02ef9e042f329998df36945e7b14e3ea3b56bd022045c84cc7cb44aa6d59e58d025700273167ee1cc2e08280c9a0f9583b4bbbf94b[ALL] 034f14434a099c1bd1a73468f4ac208ae0a803946fa08413be81898962a52e5eb2"}, "vout": 0, "txid": "006706ebb3c4ef1eb1a57341b766c49cc728c09a362f17153e3dc86409f944cf"}, {"sequence": 4294967295, "scriptSig": {"hex": "483045022100cae6672b70808eee7bfe864b6f603f3e7e21b77c0634255d8e6392e1ca437970022058ded9d346fdf1d4bd2e6097c90f9f1ad3862b00d0d4335291d37404d3060ad8012102a7a5448de553db7fc920e8bd63e7e6a4503e980404a1ee9b67ce45f7f18e4c6a", "asm": "3045022100cae6672b70808eee7bfe864b6f603f3e7e21b77c0634255d8e6392e1ca437970022058ded9d346fdf1d4bd2e6097c90f9f1ad3862b00d0d4335291d37404d3060ad8[ALL] 02a7a5448de553db7fc920e8bd63e7e6a4503e980404a1ee9b67ce45f7f18e4c6a"}, "vout": 0, "txid": "242f4df9d83cbe85b75c8fb54bd06c6318c79b6cac50dc04aeb80c8224334174"}], "txid": "ad14eb6a2726ec1f083ac6303dc7fce9dbc8b3dbd109ea412965c3747427528a", "blocktime": 1537871767, "version": 1, "confirmations": 11493, "time": 1537871767, "locktime": 0, "vsize": 372, "size": 372}