{"hash": "43527663afaa71ae99f9b9b3f948dfeefa7ecd16a6785cb8d02622cd5fe3cc07", "blockhash": "0000000000000000000dcc0f55137456b1a82d3642486a52398922ac4d620174", "vout": [{"scriptPubKey": {"reqSigs": 1, "hex": "0014ba75bfdae6bfb77f8f897faaf62428c3a4f34061", "addresses": ["bc1qhf6mlkhxh7mhlruf0740vfpgcwj0xsrpxj0mfy"], "asm": "0 ba75bfdae6bfb77f8f897faaf62428c3a4f34061", "type": "witness_v0_keyhash"}, "value": 2.778e-05, "n": 0}, {"scriptPubKey": {"reqSigs": 1, "hex": "76a9141809e37bc506dc9212f24552b85c6a41ada377ce88ac", "addresses": ["13C74gET8o86FVDy7kF5yKzXuL9c3cZ3ah"], "asm": "OP_DUP OP_HASH160 1809e37bc506dc9212f24552b85c6a41ada377ce OP_EQUALVERIFY OP_CHECKSIG", "type": "pubkeyhash"}, "value": 0.00312, "n": 1}], "hex": "01000000000101197e8451f07b30d9e3bd56b34e3da15c863204aa8260fc077799a41e73ec09b300000000171600142c7286e566a300cab211841c05e28463bbc15879ffffffff02da0a000000000000160014ba75bfdae6bfb77f8f897faaf62428c3a4f34061c0c20400000000001976a9141809e37bc506dc9212f24552b85c6a41ada377ce88ac0247304402202cf905518d7e2a1df76dc7f896ad8d29869b067f3bd12e43ce31db0e6372c6f002207589948b9ea84aaa6d75462e10df5ddea7cd570b032cbb24b36594e427ec900c0121032c1ec1070038d788ecc96c5cad96a4bc3f9b0c9bd531a750ac6192767e26778e00000000", "vin": [{"txinwitness": ["304402202cf905518d7e2a1df76dc7f896ad8d29869b067f3bd12e43ce31db0e6372c6f002207589948b9ea84aaa6d75462e10df5ddea7cd570b032cbb24b36594e427ec900c01", "032c1ec1070038d788ecc96c5cad96a4bc3f9b0c9bd531a750ac6192767e26778e"], "sequence": 4294967295, "scriptSig": {"hex": "1600142c7286e566a300cab211841c05e28463bbc15879", "asm": "00142c7286e566a300cab211841c05e28463bbc15879"}, "vout": 0, "txid": "b309ec731ea4997707fc6082aa0432865ca13d4eb356bde3d9307bf051847e19"}], "txid": "ad15853d1e39a266a05a7e4e3c1b3f439963e80d9c42f15b91481c97de129cee", "blocktime": 1537870268, "version": 1, "confirmations": 11518, "time": 1537870268, "locktime": 0, "vsize": 167, "size": 248}