{"hash": "ad16dbe4f10078c71bb2110e9e452dac3d38ae3376a4b06253454299a1d78b86", "blockhash": "0000000000000000000baef3f32e3676a92c3b2e5da21b426e4f302fc371ce76", "vout": [{"scriptPubKey": {"reqSigs": 1, "hex": "76a914f9db4ff3e771f15bbcf6a5df98e185f53e6ee36388ac", "addresses": ["1Pn7yrT7yes2SfcWC5m7AMYQDNeU9njfnA"], "asm": "OP_DUP OP_HASH160 f9db4ff3e771f15bbcf6a5df98e185f53e6ee363 OP_EQUALVERIFY OP_CHECKSIG", "type": "pubkeyhash"}, "value": 0.00094004, "n": 0}, {"scriptPubKey": {"reqSigs": 1, "hex": "76a9144060940fecde9082f90f3336fcde7c2cc824eee188ac", "addresses": ["16sPwfGZCgEmXZXwdNtfP3da95Ff3fVTmd"], "asm": "OP_DUP OP_HASH160 4060940fecde9082f90f3336fcde7c2cc824eee1 OP_EQUALVERIFY OP_CHECKSIG", "type": "pubkeyhash"}, "value": 0.00352569, "n": 1}], "hex": "0100000001c3c8d16913d49a00a37bbaf0827061b45f656d6e8c892ea52fe837782153b430010000006a47304402200e4897e5776d1c9c0ce258fa88927a5fce67b71c9d433001ebe0274175f485f4022027dc42f9e52f9d2f2b338a567836399e477b45b545e40724956169a6a6007453012103ea8a4f6b9aa5a213d1d510035fdb41bf70bf2684e099dec9671d9b35a77be4efffffffff02346f0100000000001976a914f9db4ff3e771f15bbcf6a5df98e185f53e6ee36388ac39610500000000001976a9144060940fecde9082f90f3336fcde7c2cc824eee188ac00000000", "vin": [{"sequence": 4294967295, "scriptSig": {"hex": "47304402200e4897e5776d1c9c0ce258fa88927a5fce67b71c9d433001ebe0274175f485f4022027dc42f9e52f9d2f2b338a567836399e477b45b545e40724956169a6a6007453012103ea8a4f6b9aa5a213d1d510035fdb41bf70bf2684e099dec9671d9b35a77be4ef", "asm": "304402200e4897e5776d1c9c0ce258fa88927a5fce67b71c9d433001ebe0274175f485f4022027dc42f9e52f9d2f2b338a567836399e477b45b545e40724956169a6a6007453[ALL] 03ea8a4f6b9aa5a213d1d510035fdb41bf70bf2684e099dec9671d9b35a77be4ef"}, "vout": 1, "txid": "30b453217837e82fa52e898c6e6d655fb4617082f0ba7ba3009ad41369d1c8c3"}], "txid": "ad16dbe4f10078c71bb2110e9e452dac3d38ae3376a4b06253454299a1d78b86", "blocktime": 1537876114, "version": 1, "confirmations": 11460, "time": 1537876114, "locktime": 0, "vsize": 225, "size": 225}