{"hash": "ad1b98218bda3716f94ba98d4e5301550e63b6f609d881c5ba61324c2b192dfc", "blockhash": "0000000000000000001cda96e906b7601b7a6fb1a3b62bca570a9e5d8f4b3de1", "vout": [{"scriptPubKey": {"reqSigs": 1, "hex": "76a91416658fd842dd287a64074512b753e8bb71df147388ac", "addresses": ["133RXs8g6VLe61szJYjwPSydVMWprPbBEZ"], "asm": "OP_DUP OP_HASH160 16658fd842dd287a64074512b753e8bb71df1473 OP_EQUALVERIFY OP_CHECKSIG", "type": "pubkeyhash"}, "value": 0.000904, "n": 0}, {"scriptPubKey": {"type": "nulldata", "hex": "6a4c50000077c4000198821ccaf0374b3a05f819d1e5bf9ae76da98a211aaf6c953dd567cf27e7178290483b5de464d458b0b2bf01bb335baa12f606131900bbc36791bc9a9526289ac0f6612cd74e33776ee4", "asm": "OP_RETURN 000077c4000198821ccaf0374b3a05f819d1e5bf9ae76da98a211aaf6c953dd567cf27e7178290483b5de464d458b0b2bf01bb335baa12f606131900bbc36791bc9a9526289ac0f6612cd74e33776ee4"}, "value": 0.0, "n": 1}], "hex": "010000000134c03e2118cd21714d3013a17949cdf57cba13267089cea058586991fb0688ba000000006a4730440220048f63ebee4812a0a7c2858e46e2dbe47b6a7c43d246c61da65e0b2a4a58ecc002206dd08b171fba563ba36fca74582008f6432125c7bb6bf086c51be167752e2d32012103623d5833ab7e17367a2589fa71f22684b588e3599049fb6c2cb13c01d8c6d76dffffffff0220610100000000001976a91416658fd842dd287a64074512b753e8bb71df147388ac0000000000000000536a4c50000077c4000198821ccaf0374b3a05f819d1e5bf9ae76da98a211aaf6c953dd567cf27e7178290483b5de464d458b0b2bf01bb335baa12f606131900bbc36791bc9a9526289ac0f6612cd74e33776ee400000000", "vin": [{"sequence": 4294967295, "scriptSig": {"hex": "4730440220048f63ebee4812a0a7c2858e46e2dbe47b6a7c43d246c61da65e0b2a4a58ecc002206dd08b171fba563ba36fca74582008f6432125c7bb6bf086c51be167752e2d32012103623d5833ab7e17367a2589fa71f22684b588e3599049fb6c2cb13c01d8c6d76d", "asm": "30440220048f63ebee4812a0a7c2858e46e2dbe47b6a7c43d246c61da65e0b2a4a58ecc002206dd08b171fba563ba36fca74582008f6432125c7bb6bf086c51be167752e2d32[ALL] 03623d5833ab7e17367a2589fa71f22684b588e3599049fb6c2cb13c01d8c6d76d"}, "vout": 0, "txid": "ba8806fb91695858a0ce89702613ba7cf5cd4979a113304d7121cd18213ec034"}], "txid": "ad1b98218bda3716f94ba98d4e5301550e63b6f609d881c5ba61324c2b192dfc", "blocktime": 1537873282, "version": 1, "confirmations": 11484, "time": 1537873282, "locktime": 0, "vsize": 283, "size": 283}