{"hash": "ad21a64c0553f5863c441a05d7b2180dd385222e1daccdeae4c726398096f8a7", "blockhash": "00000000000000000018f53835495a110e01622372bf6ae95dc86f2b0ab887b0", "vout": [{"scriptPubKey": {"reqSigs": 1, "hex": "a914490a96688fc0bc0f8cf9724ae26e6f1762f7c60087", "addresses": ["38MDwBWiFohhYAqQMCfVdU3JqqueRwKo7T"], "asm": "OP_HASH160 490a96688fc0bc0f8cf9724ae26e6f1762f7c600 OP_EQUAL", "type": "scripthash"}, "value": 0.01187001, "n": 0}, {"scriptPubKey": {"reqSigs": 1, "hex": "76a914e93db9d04aff93f541d2e701891eda0212f4830888ac", "addresses": ["1NGGPUzfhD2b2Dr8khdQwNnEV3X7rFffpS"], "asm": "OP_DUP OP_HASH160 e93db9d04aff93f541d2e701891eda0212f48308 OP_EQUALVERIFY OP_CHECKSIG", "type": "pubkeyhash"}, "value": 0.0199789, "n": 1}], "hex": "010000000145db783621f1c8cf10deaa0739b475377e92b6896aa96ccef3dfae0bc20181cf000000006b483045022100f44cfaf1ab0515de9d480a961ece027f52e8e69e30b686a94121d2347d35ab77022075337ed10fa11d716de54ed171f4e8367f527cf6e6cc25434ee856b59809bafb012103e539692266b279589a035ee7ae295303f6edad57e4179ac6aeda915c61b1435affffffff02b91c12000000000017a914490a96688fc0bc0f8cf9724ae26e6f1762f7c60087427c1e00000000001976a914e93db9d04aff93f541d2e701891eda0212f4830888ac00000000", "vin": [{"sequence": 4294967295, "scriptSig": {"hex": "483045022100f44cfaf1ab0515de9d480a961ece027f52e8e69e30b686a94121d2347d35ab77022075337ed10fa11d716de54ed171f4e8367f527cf6e6cc25434ee856b59809bafb012103e539692266b279589a035ee7ae295303f6edad57e4179ac6aeda915c61b1435a", "asm": "3045022100f44cfaf1ab0515de9d480a961ece027f52e8e69e30b686a94121d2347d35ab77022075337ed10fa11d716de54ed171f4e8367f527cf6e6cc25434ee856b59809bafb[ALL] 03e539692266b279589a035ee7ae295303f6edad57e4179ac6aeda915c61b1435a"}, "vout": 0, "txid": "cf8101c20baedff3ce6ca96a89b6927e3775b43907aade10cfc8f1213678db45"}], "txid": "ad21a64c0553f5863c441a05d7b2180dd385222e1daccdeae4c726398096f8a7", "blocktime": 1537870928, "version": 1, "confirmations": 11512, "time": 1537870928, "locktime": 0, "vsize": 224, "size": 224}