{"hash": "ad2898cda83644bb58b144809d52814e12cb9fe3aa6f98273550b019fd53b60e", "blockhash": "0000000000000000000dcc0f55137456b1a82d3642486a52398922ac4d620174", "vout": [{"scriptPubKey": {"reqSigs": 1, "hex": "76a9143d23c0ab3397c892fffa452ebf96a42bbf63068288ac", "addresses": ["16aH3qXhA13BySej3XPKVqNVfv1HVfWezv"], "asm": "OP_DUP OP_HASH160 3d23c0ab3397c892fffa452ebf96a42bbf630682 OP_EQUALVERIFY OP_CHECKSIG", "type": "pubkeyhash"}, "value": 0.07807642, "n": 0}, {"scriptPubKey": {"reqSigs": 1, "hex": "76a91418649af0cfefd9aeaa7ca4a1a1cb41f4d4d67c2888ac", "addresses": ["13Dyjn9M55K4BQa4CZG2z1NXpZUJCVNGWV"], "asm": "OP_DUP OP_HASH160 18649af0cfefd9aeaa7ca4a1a1cb41f4d4d67c28 OP_EQUALVERIFY OP_CHECKSIG", "type": "pubkeyhash"}, "value": 0.360296, "n": 1}], "hex": "01000000013d8d3f555307d89fb13a87ef2f3bdadfd16fe4a67dcb592e052e99cb9efc6370010000006b4830450221009afb5cb8ccd3a6d073d94964a041bfbd3ee25ddecfa728a32e8dbeefc76a0fbb0220721d0feed499292a4cff02219b5dab827dbfa479b0a632b1a0f043622419d421012102baa1cfa8a0c6f27c509144bb138fcf0a268eccea063fcfda4a9c91a787f3e87fffffffff029a227700000000001976a9143d23c0ab3397c892fffa452ebf96a42bbf63068288aca0c42502000000001976a91418649af0cfefd9aeaa7ca4a1a1cb41f4d4d67c2888ac00000000", "vin": [{"sequence": 4294967295, "scriptSig": {"hex": "4830450221009afb5cb8ccd3a6d073d94964a041bfbd3ee25ddecfa728a32e8dbeefc76a0fbb0220721d0feed499292a4cff02219b5dab827dbfa479b0a632b1a0f043622419d421012102baa1cfa8a0c6f27c509144bb138fcf0a268eccea063fcfda4a9c91a787f3e87f", "asm": "30450221009afb5cb8ccd3a6d073d94964a041bfbd3ee25ddecfa728a32e8dbeefc76a0fbb0220721d0feed499292a4cff02219b5dab827dbfa479b0a632b1a0f043622419d421[ALL] 02baa1cfa8a0c6f27c509144bb138fcf0a268eccea063fcfda4a9c91a787f3e87f"}, "vout": 1, "txid": "7063fc9ecb992e052e59cb7da6e46fd1dfda3b2fef873ab19fd80753553f8d3d"}], "txid": "ad2898cda83644bb58b144809d52814e12cb9fe3aa6f98273550b019fd53b60e", "blocktime": 1537870268, "version": 1, "confirmations": 11518, "time": 1537870268, "locktime": 0, "vsize": 226, "size": 226}