{"hash": "ad328f9f4cf661227eb6b4772dc130b26b2f60f9321179087db7ab352912c17e", "blockhash": "0000000000000000001cda96e906b7601b7a6fb1a3b62bca570a9e5d8f4b3de1", "vout": [{"scriptPubKey": {"reqSigs": 1, "hex": "a9149f0d2b42e9e150d8e368560c8307040d0165ecdb87", "addresses": ["3GC193QMLXAyyS9weqmsqgo14aPFZrdPxY"], "asm": "OP_HASH160 9f0d2b42e9e150d8e368560c8307040d0165ecdb OP_EQUAL", "type": "scripthash"}, "value": 0.001133, "n": 0}, {"scriptPubKey": {"reqSigs": 1, "hex": "a914fd07ba3066b87f8c08de51073c5a9bd54792d1b287", "addresses": ["3Qkv8yk5SZdosEVFH7RBdexip8ykrD2pB6"], "asm": "OP_HASH160 fd07ba3066b87f8c08de51073c5a9bd54792d1b2 OP_EQUAL", "type": "scripthash"}, "value": 0.0189449, "n": 1}], "hex": "0100000001bc1bd5176f384e34ca64f8a941bbe62896676e61f2a054436f82f4b7bd0d9fd000000000fc00473044022054714bbe2c8f47e5f1800b48a479385ff16c73d9bada56e8e523651a8d7fdbd902207b7014ae36095c8c77207b5c21df9bb5288b0e7a5f8c3473f0038c72e8472273014730440220286bdec1621a9e630b168774064e95c9a4465ead90d889a96d60c9a7c6d8bf8f0220424222422a9771b17029bbe4e5fe871c81d964a63e0dd199b8b377be09e798d4014c69522103dff0f8ea3c99ee3c9acf5d1cd7cdb7ebb921dbcfa94a103cddc27bb0b45dd4f521035119cc8b661d8f13f24781790a6eec7aa7896067f94586b4fd5b072f1e702f7a2103b7f64fe1a246f77042a171a853981b17c1c22c6f25964cd6b9e8c8dcb4c40f9853aeffffffff0294ba01000000000017a9149f0d2b42e9e150d8e368560c8307040d0165ecdb875ae81c000000000017a914fd07ba3066b87f8c08de51073c5a9bd54792d1b28700000000", "vin": [{"sequence": 4294967295, "scriptSig": {"hex": "00473044022054714bbe2c8f47e5f1800b48a479385ff16c73d9bada56e8e523651a8d7fdbd902207b7014ae36095c8c77207b5c21df9bb5288b0e7a5f8c3473f0038c72e8472273014730440220286bdec1621a9e630b168774064e95c9a4465ead90d889a96d60c9a7c6d8bf8f0220424222422a9771b17029bbe4e5fe871c81d964a63e0dd199b8b377be09e798d4014c69522103dff0f8ea3c99ee3c9acf5d1cd7cdb7ebb921dbcfa94a103cddc27bb0b45dd4f521035119cc8b661d8f13f24781790a6eec7aa7896067f94586b4fd5b072f1e702f7a2103b7f64fe1a246f77042a171a853981b17c1c22c6f25964cd6b9e8c8dcb4c40f9853ae", "asm": "0 3044022054714bbe2c8f47e5f1800b48a479385ff16c73d9bada56e8e523651a8d7fdbd902207b7014ae36095c8c77207b5c21df9bb5288b0e7a5f8c3473f0038c72e8472273[ALL] 30440220286bdec1621a9e630b168774064e95c9a4465ead90d889a96d60c9a7c6d8bf8f0220424222422a9771b17029bbe4e5fe871c81d964a63e0dd199b8b377be09e798d4[ALL] 522103dff0f8ea3c99ee3c9acf5d1cd7cdb7ebb921dbcfa94a103cddc27bb0b45dd4f521035119cc8b661d8f13f24781790a6eec7aa7896067f94586b4fd5b072f1e702f7a2103b7f64fe1a246f77042a171a853981b17c1c22c6f25964cd6b9e8c8dcb4c40f9853ae"}, "vout": 0, "txid": "d09f0dbdb7f4826f4354a0f2616e679628e6bb41a9f864ca344e386f17d51bbc"}], "txid": "ad328f9f4cf661227eb6b4772dc130b26b2f60f9321179087db7ab352912c17e", "blocktime": 1537873282, "version": 1, "confirmations": 11480, "time": 1537873282, "locktime": 0, "vsize": 367, "size": 367}