{"hash": "6d67abb85ddbcf82a28bcde4aa2d22f3acc2630be9d96611073d311a782460c9", "blockhash": "00000000000000000004ffacab907a6b429b9a5745fa0b75af4234bf69dd7176", "vout": [{"scriptPubKey": {"reqSigs": 1, "hex": "a9142acb8bfd0a45103e7dc35c4caad7bfdc5600befa87", "addresses": ["35bJ9HKw14kSepWG5jVE5h3aHRDZs5Bffp"], "asm": "OP_HASH160 2acb8bfd0a45103e7dc35c4caad7bfdc5600befa OP_EQUAL", "type": "scripthash"}, "value": 0.00157137, "n": 0}, {"scriptPubKey": {"reqSigs": 1, "hex": "76a9146bb79eba3655a41ce36b88a6e6328e991820c11c88ac", "addresses": ["1ApZGfowa5DuztMitg7eZLhTKDJzoTFSDx"], "asm": "OP_DUP OP_HASH160 6bb79eba3655a41ce36b88a6e6328e991820c11c OP_EQUALVERIFY OP_CHECKSIG", "type": "pubkeyhash"}, "value": 0.002561, "n": 1}], "hex": "020000000001020097a6c6dab88cbb65802996ee66e0325c4dffea3b5f02d7d1c126426faf077a000000001716001457b70928a86f09394bfe0804447efb88d2d39f06fdfffffff36aec89d8fd1ace061204b179b7b25b99a16af40a091337134be8972ec017fa0000000017160014607dde951c102523348edb563b1122ba6e130f41fdffffff02d16502000000000017a9142acb8bfd0a45103e7dc35c4caad7bfdc5600befa8764e80300000000001976a9146bb79eba3655a41ce36b88a6e6328e991820c11c88ac024730440220773c7627d3f37980e3ede55c0d0323b2fb259b62e84978146f696108707e25f2022004d1170ad4b7087e974d75d7674ce2f09c95f0cfc069a23c5a0457a7ba79e14f0121021b6577cdfa308e4691fea003e09e25140248bc3f9b3a948ec1ac5b4e6769c1f702483045022100f85701e81453abf3d1ad2e20da83e6bbd6ebb766d1c74b3534dbbf8fdb8c54d7022013d3e13b2647a6272e42184e5d039ac8b36ee9bd21bb4402b353f84c592504820121031e94fbe16a9ca5eefd7d1adce0d0740969cb034903dd74a62557e0e0cacca96100000000", "vin": [{"txinwitness": ["30440220773c7627d3f37980e3ede55c0d0323b2fb259b62e84978146f696108707e25f2022004d1170ad4b7087e974d75d7674ce2f09c95f0cfc069a23c5a0457a7ba79e14f01", "021b6577cdfa308e4691fea003e09e25140248bc3f9b3a948ec1ac5b4e6769c1f7"], "sequence": 4294967293, "scriptSig": {"hex": "16001457b70928a86f09394bfe0804447efb88d2d39f06", "asm": "001457b70928a86f09394bfe0804447efb88d2d39f06"}, "vout": 0, "txid": "7a07af6f4226c1d1d7025f3beaff4d5c32e066ee96298065bb8cb8dac6a69700"}, {"txinwitness": ["3045022100f85701e81453abf3d1ad2e20da83e6bbd6ebb766d1c74b3534dbbf8fdb8c54d7022013d3e13b2647a6272e42184e5d039ac8b36ee9bd21bb4402b353f84c5925048201", "031e94fbe16a9ca5eefd7d1adce0d0740969cb034903dd74a62557e0e0cacca961"], "sequence": 4294967293, "scriptSig": {"hex": "160014607dde951c102523348edb563b1122ba6e130f41", "asm": "0014607dde951c102523348edb563b1122ba6e130f41"}, "vout": 0, "txid": "fa17c02e97e84b133713090af46aa1995bb2b779b1041206ce1afdd889ec6af3"}], "txid": "ad3826d1fa1fa73dc5eb0b6adaa626362a3af914375ba59d6b3dbd618de834b8", "blocktime": 1537875543, "version": 2, "confirmations": 11464, "time": 1537875543, "locktime": 0, "vsize": 259, "size": 421}