{"hash": "6fd401c67278c9989afba64ea337750f0e0c6e6c07b80763b1b5eeb5bf9267cb", "blockhash": "0000000000000000001e0dab787dd257d1dbfcb92a98c2207d5e1078be1f4165", "vout": [{"scriptPubKey": {"reqSigs": 1, "hex": "a9142256820ac06c8d99596031d70f8f758a5e4ccac587", "addresses": ["34paXkCN1NyS3B2rF9tvoqVQcn2EEBcXND"], "asm": "OP_HASH160 2256820ac06c8d99596031d70f8f758a5e4ccac5 OP_EQUAL", "type": "scripthash"}, "value": 0.008, "n": 0}, {"scriptPubKey": {"reqSigs": 1, "hex": "a914e944676933088d256fc36aed5a3227c02a38d50887", "addresses": ["3NxRK2gxrQAfUiipiV3nNNEiThpZ3fobcB"], "asm": "OP_HASH160 e944676933088d256fc36aed5a3227c02a38d508 OP_EQUAL", "type": "scripthash"}, "value": 0.0049561, "n": 1}], "hex": "01000000000101b1f1f0ca6869639cb2b5b5c690d9b999bc866673e01534383f8b945a99f8e00b0100000017160014cbc529c4ff35e6194c4dfc6ee8089cc520f05eceffffffff0200350c000000000017a9142256820ac06c8d99596031d70f8f758a5e4ccac587fa8f07000000000017a914e944676933088d256fc36aed5a3227c02a38d5088702483045022100d4b215b97d7917f45d651009d06ce9119c13ee923d90ec429f44323cc9607ce702205d6caa5245066b53cf6770d5f93354fd59c9a976dca55e5207abef4d0e24ee96012102f670e1d6d6b974a91bde2e6bd07dfe498b7e816dcef6a00016465faaf7103c3200000000", "vin": [{"txinwitness": ["3045022100d4b215b97d7917f45d651009d06ce9119c13ee923d90ec429f44323cc9607ce702205d6caa5245066b53cf6770d5f93354fd59c9a976dca55e5207abef4d0e24ee9601", "02f670e1d6d6b974a91bde2e6bd07dfe498b7e816dcef6a00016465faaf7103c32"], "sequence": 4294967295, "scriptSig": {"hex": "160014cbc529c4ff35e6194c4dfc6ee8089cc520f05ece", "asm": "0014cbc529c4ff35e6194c4dfc6ee8089cc520f05ece"}, "vout": 1, "txid": "0be0f8995a948b3f383415e0736686bc99b9d990c6b5b5b29c636968caf0f1b1"}], "txid": "ad3a56d4cb26f1ae69c15d24652ae25337a4b293bba00c09e2ee9356566c79e8", "blocktime": 1537872475, "version": 1, "confirmations": 11487, "time": 1537872475, "locktime": 0, "vsize": 166, "size": 248}