{"hash": "ad3b40bcf53ebc33432dd5aef6fcb8fe0de0f6d805dab3a5fb376f29ea4909ee", "blockhash": "0000000000000000000dcc0f55137456b1a82d3642486a52398922ac4d620174", "vout": [{"scriptPubKey": {"reqSigs": 1, "hex": "76a914cdd03bcb041cecec42109cad019beb477553cd8b88ac", "addresses": ["1KmEyeXo6814AHnKmnmY42WSDwsDNn1CWP"], "asm": "OP_DUP OP_HASH160 cdd03bcb041cecec42109cad019beb477553cd8b OP_EQUALVERIFY OP_CHECKSIG", "type": "pubkeyhash"}, "value": 0.00831682, "n": 0}, {"scriptPubKey": {"reqSigs": 1, "hex": "76a914243b7a81cf5b7a0cfe4644fcdd0e8ac1eb4d100c88ac", "addresses": ["14JaaYktcv1GgKsFNhvN9tESzwkaCNLHpN"], "asm": "OP_DUP OP_HASH160 243b7a81cf5b7a0cfe4644fcdd0e8ac1eb4d100c OP_EQUALVERIFY OP_CHECKSIG", "type": "pubkeyhash"}, "value": 1.61523222, "n": 1}], "hex": "01000000010ca21f6a48b2589086bf5afc36b213ac831a7f6f20e3650513d0372c52bab735010000006b483045022100dac0182ff562990e3c7ab5b2a6bee6244287112885811b45b97f78ce5e11ddbe022038efe104a0002dc3dbdbd5a9a0a3864c96d591c7c568a1c1324550f8a431c29601210345dda36efcae4d7fa14d8e0acafa1f8a63e225d21086843bd874c74f6c511e21ffffffff02c2b00c00000000001976a914cdd03bcb041cecec42109cad019beb477553cd8b88ac16a6a009000000001976a914243b7a81cf5b7a0cfe4644fcdd0e8ac1eb4d100c88ac00000000", "vin": [{"sequence": 4294967295, "scriptSig": {"hex": "483045022100dac0182ff562990e3c7ab5b2a6bee6244287112885811b45b97f78ce5e11ddbe022038efe104a0002dc3dbdbd5a9a0a3864c96d591c7c568a1c1324550f8a431c29601210345dda36efcae4d7fa14d8e0acafa1f8a63e225d21086843bd874c74f6c511e21", "asm": "3045022100dac0182ff562990e3c7ab5b2a6bee6244287112885811b45b97f78ce5e11ddbe022038efe104a0002dc3dbdbd5a9a0a3864c96d591c7c568a1c1324550f8a431c296[ALL] 0345dda36efcae4d7fa14d8e0acafa1f8a63e225d21086843bd874c74f6c511e21"}, "vout": 1, "txid": "35b7ba522c37d0130565e3206f7f1a83ac13b236fc5abf869058b2486a1fa20c"}], "txid": "ad3b40bcf53ebc33432dd5aef6fcb8fe0de0f6d805dab3a5fb376f29ea4909ee", "blocktime": 1537870268, "version": 1, "confirmations": 11518, "time": 1537870268, "locktime": 0, "vsize": 226, "size": 226}