{"hash": "ad4693639ebb80d312a7d8b66cb562f447908447cff463cf83ab5bacedf324bf", "blockhash": "00000000000000000017f5eb5941039fbcee6240d03bc1f2f8e35350df66a1d8", "vout": [{"scriptPubKey": {"reqSigs": 1, "hex": "76a914562b95854d3ae8509ba3c85cb92f97c83a7f167d88ac", "addresses": ["18rdKmjrg1EawxgiVT3ikLExj6GWS2MNCk"], "asm": "OP_DUP OP_HASH160 562b95854d3ae8509ba3c85cb92f97c83a7f167d OP_EQUALVERIFY OP_CHECKSIG", "type": "pubkeyhash"}, "value": 0.0004852, "n": 0}, {"scriptPubKey": {"reqSigs": 1, "hex": "a914512ff49471a2d2e5fd392401a7541269468bf11c87", "addresses": ["396J75eWrTwSBMH6Fj32tbYxUuX4oQfEzJ"], "asm": "OP_HASH160 512ff49471a2d2e5fd392401a7541269468bf11c OP_EQUAL", "type": "scripthash"}, "value": 0.0041448, "n": 1}], "hex": "010000000189c502bcff5474857019e8b60b7dc17969bb409344e5f006815889ce4c2c4bc4010000008b483045022100f9798e05a26d57ea8d98541f907e5737a7cb99de01fb7b7c9debf7612e482ffc02205d123fd2b5d769b2b260ceae60b517dc712a8c4cc387ada69cadbfdca4467aec0141047f858db7acaacae5c22db44a316d8c0065ce602dc5cb79b57ce8505b335f34afe5cae78ea05f2cbb424b4b28c660a2989d76fb3fa5692afd1ef7cbaa1045cb0affffffff0288bd0000000000001976a914562b95854d3ae8509ba3c85cb92f97c83a7f167d88ac105306000000000017a914512ff49471a2d2e5fd392401a7541269468bf11c8700000000", "vin": [{"sequence": 4294967295, "scriptSig": {"hex": "483045022100f9798e05a26d57ea8d98541f907e5737a7cb99de01fb7b7c9debf7612e482ffc02205d123fd2b5d769b2b260ceae60b517dc712a8c4cc387ada69cadbfdca4467aec0141047f858db7acaacae5c22db44a316d8c0065ce602dc5cb79b57ce8505b335f34afe5cae78ea05f2cbb424b4b28c660a2989d76fb3fa5692afd1ef7cbaa1045cb0a", "asm": "3045022100f9798e05a26d57ea8d98541f907e5737a7cb99de01fb7b7c9debf7612e482ffc02205d123fd2b5d769b2b260ceae60b517dc712a8c4cc387ada69cadbfdca4467aec[ALL] 047f858db7acaacae5c22db44a316d8c0065ce602dc5cb79b57ce8505b335f34afe5cae78ea05f2cbb424b4b28c660a2989d76fb3fa5692afd1ef7cbaa1045cb0a"}, "vout": 1, "txid": "c44b2c4cce89588106f0e5449340bb6979c17d0bb6e81970857454ffbc02c589"}], "txid": "ad4693639ebb80d312a7d8b66cb562f447908447cff463cf83ab5bacedf324bf", "blocktime": 1537874412, "version": 1, "confirmations": 11467, "time": 1537874412, "locktime": 0, "vsize": 256, "size": 256}