{"hash": "ad4aeabc7677238d090918fb7523e9d6a42ab465d63b4161b35d41fdf4179bdf", "blockhash": "00000000000000000004ffacab907a6b429b9a5745fa0b75af4234bf69dd7176", "vout": [{"scriptPubKey": {"reqSigs": 1, "hex": "a914c110a5b2cb9372f2c3cacab0eefb52f67498c1ca87", "addresses": ["3KHrHEosnfiV6974tiQPoyYcqQNeiXPvbE"], "asm": "OP_HASH160 c110a5b2cb9372f2c3cacab0eefb52f67498c1ca OP_EQUAL", "type": "scripthash"}, "value": 0.01, "n": 0}, {"scriptPubKey": {"reqSigs": 1, "hex": "76a914a13ba5c549c64f5599063090ff47e6d862e88a7e88ac", "addresses": ["1FhXFGaPX7eVCNJ4vgQG4rmPU2cqxb2xic"], "asm": "OP_DUP OP_HASH160 a13ba5c549c64f5599063090ff47e6d862e88a7e OP_EQUALVERIFY OP_CHECKSIG", "type": "pubkeyhash"}, "value": 0.064849, "n": 1}], "hex": "0100000001ee6baf14ac559a67ae187d10fd50ca08d8959403358bfd96e433affd2a56b90b010000006a47304402204162ee61cf9db208f4d7e055ccc225129e41506fd61512adaa17e109d33a3aef02204cc43fc548ace6bf36739b183a99e433a4277b90ba3c5ce19dabfa87180507f4012102b1dfe4bc5b51c00858d7f76932cd9c3a0d8c11600e1359554bd1081ee7a4204bfeffffff0240420f000000000017a914c110a5b2cb9372f2c3cacab0eefb52f67498c1ca87a4f36200000000001976a914a13ba5c549c64f5599063090ff47e6d862e88a7e88ac16490800", "vin": [{"sequence": 4294967294, "scriptSig": {"hex": "47304402204162ee61cf9db208f4d7e055ccc225129e41506fd61512adaa17e109d33a3aef02204cc43fc548ace6bf36739b183a99e433a4277b90ba3c5ce19dabfa87180507f4012102b1dfe4bc5b51c00858d7f76932cd9c3a0d8c11600e1359554bd1081ee7a4204b", "asm": "304402204162ee61cf9db208f4d7e055ccc225129e41506fd61512adaa17e109d33a3aef02204cc43fc548ace6bf36739b183a99e433a4277b90ba3c5ce19dabfa87180507f4[ALL] 02b1dfe4bc5b51c00858d7f76932cd9c3a0d8c11600e1359554bd1081ee7a4204b"}, "vout": 1, "txid": "0bb9562afdaf33e496fd8b35039495d808ca50fd107d18ae679a55ac14af6bee"}], "txid": "ad4aeabc7677238d090918fb7523e9d6a42ab465d63b4161b35d41fdf4179bdf", "blocktime": 1537875543, "version": 1, "confirmations": 11464, "time": 1537875543, "locktime": 542998, "vsize": 223, "size": 223}