{"hash": "ad4a6125daa61fa14c0c45f6d2251d2e1dfb23a6abc6010e82e5ca077c83127a", "blockhash": "0000000000000000000e13cef7c366c0283d82e591d1acd082e914b08063cdf1", "vout": [{"scriptPubKey": {"reqSigs": 1, "hex": "76a9148e4d298104abad5455789079e8d076ee2297890388ac", "addresses": ["1DyRPZPHXyBa6u5TT4ksfv8W1nU49wYmnZ"], "asm": "OP_DUP OP_HASH160 8e4d298104abad5455789079e8d076ee22978903 OP_EQUALVERIFY OP_CHECKSIG", "type": "pubkeyhash"}, "value": 0.2370132, "n": 0}], "hex": "010000000a2d4b849fd65697b6f320a2a202cfc408addd8b8b57c8b80df89b7eeb2e9f1f2c050000006b483045022100a86c3e02bd185b3f80b1e08afe8ec703d4bc00ecfe6e1cf2c7555529b26a270e02202052aa4d84f6c0bfd5f637b66bf1cb28ca8b5ed0f33e15a7f6a3247edd57c35601210215be2b5b9a84a5fd14c18582a1c8b0a40f54aba83db178c7556c52b7273b3e19ffffffff7e55c45c8b39ffae21a2b001cbf42f1b728c7835c072c5189fd8e36926c69ddf070000006b483045022100a0b4cca78dbc63327a33cdad7457dd4aab39c87925aab3712423bd8714a4d76a022074da28e93b2824dea182402886fd562a82954bdf514ce62fde23f0c207dc1f5b012103872311fc7ca9dcc37808bf3ae2b0e574cd733804032dd032a2c9f5ea997c3c72ffffffffce8d34b1236978fae91dd1ff1295145df89c8674672181a70a30e2bc32264ce9080000006a473044022050c401e27c7053aecb159c87defab749b773468e9830c56a97432839ae811bc3022010ec743a152aa9e83948231e3f5913746eaa53d4b9723a2498d1d1328266cdc501210352cc7972caac0ef856196b4993e9445af5d1abae1d5d44b4a28258e6d6976078ffffffffb6faf17a64efc0126a957fddb48bf0dcf7f28d87560840648a5200d999f86c87080000006a473044022005d450392b509997ea66fb5547fa6c76f84d14a8aa061f9a642b3430ae18f0a1022036ace2ad4bbaddf4fea703907bda4990e747778b666a30c236f7f2a65bfd2bff01210316b866c313c62734984a991a6205de7ffa1a6d7c8f80b9815c13b6855b20dbe9fffffffff148eae91bcc9882a704643eb688da90398eae713e556652fb8eed1347d6bd88010000006a47304402207b7250a215b33ee4590bd1dc8c3e7bab10341a911f87c546b783935b665f8c7e022010af0693f6b62d608a182c8413c7ceb3963803b912c38fb67e565f7b6f250ea90121021b4669bae469042766f2438803b54376bec52c80b59dac9bea4542bc19e05b33ffffffffc9542ac251d384e64bf153d5c4436debb886b9d9521b75e2dcf0230ce855f1ec090000006a47304402205860522f6d855c5aae7d126055ab3084a5b33a1e0c3a1016c499eefed3f06bbe022034d395b6a4592e1643f85eefc122eaf5249eef1e8800cfa3ccf4884d958d17c10121028600d64c1c3684d0f5ec3f2807c1b169be50152b40a2c7a964c3c9e60ec42a03ffffffff1c721222471e9a745c2677c7115cdcef682692dfb583d07335ccbc7992a416fa030000006a47304402207ddd3e2e4f659d72caf32d2c2de3cd54f07a9c7c5fa62e3ac7be86bf62866b2302200afd1884ab756c6a1eb8a3efce034e74d8bf41aebcca7b54fe1e8529e61bb0540121030dfbce0921c36d24165a94bd8680fef0bb408e3642af2e269d84b0f11b01f414ffffffff59cf02159e933a5968834d05352255180201589436c4df1467c1aa09dd7f73620c0000006a473044022068c8679b991f97c5f1ee40c24e9f2a33783f74734e4ca68f3a60e2a701c1ec1902200618634be93c28716872f5a4b5b96969425a208ca1ccb7ecfe73c7ef9978cafc012103cb5adc47efbf41eed39346ed6661e8da1d6b332db348762124fc81ebf7639771ffffffff21aadc884d8b203c770dbb30f10a33f793cdcd9a291308180a1c31d570292e43010000006b48304502210087223f4a66655b0a44272f6d1d5860b0bab6a4d2d73a10788484aa2a6f7d73a002204f7d3a98505c5469a824aaac8e73cdf9e6938270fcc4dd6534887e33107cf22a012103b87f73d78619b8ee4b0985338e0c190affb69eb23eaa49d064835efa0e6f4edeffffffff8d27a3be6dcbb95d9c69ce60fffa95f8d1ef967478cfb03577510b7944397a52070000006a47304402202a771c837c4a3edf07c9ef0649e811a2135079c097be79283a7c962386b6e21a02204935b5594c850be722ef2748a02e76201329e159ad37696e9295ff11ce9137470121037da54b9c35e010995903e1606e402cbc17bcf00ce1d70c824066ce7aa3a4c8d9ffffffff0148a76901000000001976a9148e4d298104abad5455789079e8d076ee2297890388ac00000000", "vin": [{"sequence": 4294967295, "scriptSig": {"hex": "483045022100a86c3e02bd185b3f80b1e08afe8ec703d4bc00ecfe6e1cf2c7555529b26a270e02202052aa4d84f6c0bfd5f637b66bf1cb28ca8b5ed0f33e15a7f6a3247edd57c35601210215be2b5b9a84a5fd14c18582a1c8b0a40f54aba83db178c7556c52b7273b3e19", "asm": "3045022100a86c3e02bd185b3f80b1e08afe8ec703d4bc00ecfe6e1cf2c7555529b26a270e02202052aa4d84f6c0bfd5f637b66bf1cb28ca8b5ed0f33e15a7f6a3247edd57c356[ALL] 0215be2b5b9a84a5fd14c18582a1c8b0a40f54aba83db178c7556c52b7273b3e19"}, "vout": 5, "txid": "2c1f9f2eeb7e9bf80db8c8578b8bddad08c4cf02a2a220f3b69756d69f844b2d"}, {"sequence": 4294967295, "scriptSig": {"hex": "483045022100a0b4cca78dbc63327a33cdad7457dd4aab39c87925aab3712423bd8714a4d76a022074da28e93b2824dea182402886fd562a82954bdf514ce62fde23f0c207dc1f5b012103872311fc7ca9dcc37808bf3ae2b0e574cd733804032dd032a2c9f5ea997c3c72", "asm": "3045022100a0b4cca78dbc63327a33cdad7457dd4aab39c87925aab3712423bd8714a4d76a022074da28e93b2824dea182402886fd562a82954bdf514ce62fde23f0c207dc1f5b[ALL] 03872311fc7ca9dcc37808bf3ae2b0e574cd733804032dd032a2c9f5ea997c3c72"}, "vout": 7, "txid": "df9dc62669e3d89f18c572c035788c721b2ff4cb01b0a221aeff398b5cc4557e"}, {"sequence": 4294967295, "scriptSig": {"hex": "473044022050c401e27c7053aecb159c87defab749b773468e9830c56a97432839ae811bc3022010ec743a152aa9e83948231e3f5913746eaa53d4b9723a2498d1d1328266cdc501210352cc7972caac0ef856196b4993e9445af5d1abae1d5d44b4a28258e6d6976078", "asm": "3044022050c401e27c7053aecb159c87defab749b773468e9830c56a97432839ae811bc3022010ec743a152aa9e83948231e3f5913746eaa53d4b9723a2498d1d1328266cdc5[ALL] 0352cc7972caac0ef856196b4993e9445af5d1abae1d5d44b4a28258e6d6976078"}, "vout": 8, "txid": "e94c2632bce2300aa781216774869cf85d149512ffd11de9fa786923b1348dce"}, {"sequence": 4294967295, "scriptSig": {"hex": "473044022005d450392b509997ea66fb5547fa6c76f84d14a8aa061f9a642b3430ae18f0a1022036ace2ad4bbaddf4fea703907bda4990e747778b666a30c236f7f2a65bfd2bff01210316b866c313c62734984a991a6205de7ffa1a6d7c8f80b9815c13b6855b20dbe9", "asm": "3044022005d450392b509997ea66fb5547fa6c76f84d14a8aa061f9a642b3430ae18f0a1022036ace2ad4bbaddf4fea703907bda4990e747778b666a30c236f7f2a65bfd2bff[ALL] 0316b866c313c62734984a991a6205de7ffa1a6d7c8f80b9815c13b6855b20dbe9"}, "vout": 8, "txid": "876cf899d900528a64400856878df2f7dcf08bb4dd7f956a12c0ef647af1fab6"}, {"sequence": 4294967295, "scriptSig": {"hex": "47304402207b7250a215b33ee4590bd1dc8c3e7bab10341a911f87c546b783935b665f8c7e022010af0693f6b62d608a182c8413c7ceb3963803b912c38fb67e565f7b6f250ea90121021b4669bae469042766f2438803b54376bec52c80b59dac9bea4542bc19e05b33", "asm": "304402207b7250a215b33ee4590bd1dc8c3e7bab10341a911f87c546b783935b665f8c7e022010af0693f6b62d608a182c8413c7ceb3963803b912c38fb67e565f7b6f250ea9[ALL] 021b4669bae469042766f2438803b54376bec52c80b59dac9bea4542bc19e05b33"}, "vout": 1, "txid": "88bdd64713ed8efb5266553e71ae8e3990da88b63e6404a78298cc1be9ea48f1"}, {"sequence": 4294967295, "scriptSig": {"hex": "47304402205860522f6d855c5aae7d126055ab3084a5b33a1e0c3a1016c499eefed3f06bbe022034d395b6a4592e1643f85eefc122eaf5249eef1e8800cfa3ccf4884d958d17c10121028600d64c1c3684d0f5ec3f2807c1b169be50152b40a2c7a964c3c9e60ec42a03", "asm": "304402205860522f6d855c5aae7d126055ab3084a5b33a1e0c3a1016c499eefed3f06bbe022034d395b6a4592e1643f85eefc122eaf5249eef1e8800cfa3ccf4884d958d17c1[ALL] 028600d64c1c3684d0f5ec3f2807c1b169be50152b40a2c7a964c3c9e60ec42a03"}, "vout": 9, "txid": "ecf155e80c23f0dce2751b52d9b986b8eb6d43c4d553f14be684d351c22a54c9"}, {"sequence": 4294967295, "scriptSig": {"hex": "47304402207ddd3e2e4f659d72caf32d2c2de3cd54f07a9c7c5fa62e3ac7be86bf62866b2302200afd1884ab756c6a1eb8a3efce034e74d8bf41aebcca7b54fe1e8529e61bb0540121030dfbce0921c36d24165a94bd8680fef0bb408e3642af2e269d84b0f11b01f414", "asm": "304402207ddd3e2e4f659d72caf32d2c2de3cd54f07a9c7c5fa62e3ac7be86bf62866b2302200afd1884ab756c6a1eb8a3efce034e74d8bf41aebcca7b54fe1e8529e61bb054[ALL] 030dfbce0921c36d24165a94bd8680fef0bb408e3642af2e269d84b0f11b01f414"}, "vout": 3, "txid": "fa16a49279bccc3573d083b5df922668efdc5c11c777265c749a1e472212721c"}, {"sequence": 4294967295, "scriptSig": {"hex": "473044022068c8679b991f97c5f1ee40c24e9f2a33783f74734e4ca68f3a60e2a701c1ec1902200618634be93c28716872f5a4b5b96969425a208ca1ccb7ecfe73c7ef9978cafc012103cb5adc47efbf41eed39346ed6661e8da1d6b332db348762124fc81ebf7639771", "asm": "3044022068c8679b991f97c5f1ee40c24e9f2a33783f74734e4ca68f3a60e2a701c1ec1902200618634be93c28716872f5a4b5b96969425a208ca1ccb7ecfe73c7ef9978cafc[ALL] 03cb5adc47efbf41eed39346ed6661e8da1d6b332db348762124fc81ebf7639771"}, "vout": 12, "txid": "62737fdd09aac16714dfc4369458010218552235054d8368593a939e1502cf59"}, {"sequence": 4294967295, "scriptSig": {"hex": "48304502210087223f4a66655b0a44272f6d1d5860b0bab6a4d2d73a10788484aa2a6f7d73a002204f7d3a98505c5469a824aaac8e73cdf9e6938270fcc4dd6534887e33107cf22a012103b87f73d78619b8ee4b0985338e0c190affb69eb23eaa49d064835efa0e6f4ede", "asm": "304502210087223f4a66655b0a44272f6d1d5860b0bab6a4d2d73a10788484aa2a6f7d73a002204f7d3a98505c5469a824aaac8e73cdf9e6938270fcc4dd6534887e33107cf22a[ALL] 03b87f73d78619b8ee4b0985338e0c190affb69eb23eaa49d064835efa0e6f4ede"}, "vout": 1, "txid": "432e2970d5311c0a180813299acdcd93f7330af130bb0d773c208b4d88dcaa21"}, {"sequence": 4294967295, "scriptSig": {"hex": "47304402202a771c837c4a3edf07c9ef0649e811a2135079c097be79283a7c962386b6e21a02204935b5594c850be722ef2748a02e76201329e159ad37696e9295ff11ce9137470121037da54b9c35e010995903e1606e402cbc17bcf00ce1d70c824066ce7aa3a4c8d9", "asm": "304402202a771c837c4a3edf07c9ef0649e811a2135079c097be79283a7c962386b6e21a02204935b5594c850be722ef2748a02e76201329e159ad37696e9295ff11ce913747[ALL] 037da54b9c35e010995903e1606e402cbc17bcf00ce1d70c824066ce7aa3a4c8d9"}, "vout": 7, "txid": "527a3944790b517735b0cf787496efd1f895faff60ce699c5db9cb6dbea3278d"}], "txid": "ad4a6125daa61fa14c0c45f6d2251d2e1dfb23a6abc6010e82e5ca077c83127a", "blocktime": 1537871767, "version": 1, "confirmations": 11495, "time": 1537871767, "locktime": 0, "vsize": 1517, "size": 1517}