{"hash": "ad52560af86ff3b74be51d8734e6083ff0ccf07e2efe5bd6a546054328be7d68", "blockhash": "0000000000000000001f0ddff1eddb255c1121bcd4da4f1bc9a0da00cae72433", "vout": [{"scriptPubKey": {"reqSigs": 1, "hex": "76a9149dcf96c41abe822ea5af1500fcbc8e816fc80c0a88ac", "addresses": ["1FPRmeeWW4Tf6Jyrugf6hMa9jxvLsshwoU"], "asm": "OP_DUP OP_HASH160 9dcf96c41abe822ea5af1500fcbc8e816fc80c0a OP_EQUALVERIFY OP_CHECKSIG", "type": "pubkeyhash"}, "value": 0.00435949, "n": 0}, {"scriptPubKey": {"reqSigs": 1, "hex": "a9141a69bf00728dd2bbf5a873ffdebae5d27bc6f0f787", "addresses": ["346gAu7ESfhyiRWMNdVe7es54KucB1ar5F"], "asm": "OP_HASH160 1a69bf00728dd2bbf5a873ffdebae5d27bc6f0f7 OP_EQUAL", "type": "scripthash"}, "value": 0.0117194, "n": 1}], "hex": "01000000017c609c1ea03224bc46e6815ae5be8458b4120a85fc1a101bfcecab446a2722a7af0000006b4830450221009181acfc7cf8ad791baac05a5935d5b881e1e5649fa8f06edb39b44920e7d6d4022066625cfd17a44494a00a987c57ee2abcf370063e5e50ec59d10e3478d5bc71970121027b67e20af4d00d39753ec4bd6d34b03154b5c8f77a1bdb5c50e5f22ded011a05ffffffff02eda60600000000001976a9149dcf96c41abe822ea5af1500fcbc8e816fc80c0a88ace4e111000000000017a9141a69bf00728dd2bbf5a873ffdebae5d27bc6f0f78700000000", "vin": [{"sequence": 4294967295, "scriptSig": {"hex": "4830450221009181acfc7cf8ad791baac05a5935d5b881e1e5649fa8f06edb39b44920e7d6d4022066625cfd17a44494a00a987c57ee2abcf370063e5e50ec59d10e3478d5bc71970121027b67e20af4d00d39753ec4bd6d34b03154b5c8f77a1bdb5c50e5f22ded011a05", "asm": "30450221009181acfc7cf8ad791baac05a5935d5b881e1e5649fa8f06edb39b44920e7d6d4022066625cfd17a44494a00a987c57ee2abcf370063e5e50ec59d10e3478d5bc7197[ALL] 027b67e20af4d00d39753ec4bd6d34b03154b5c8f77a1bdb5c50e5f22ded011a05"}, "vout": 175, "txid": "a722276a44abecfc1b101afc850a12b45884bee55a81e646bc2432a01e9c607c"}], "txid": "ad52560af86ff3b74be51d8734e6083ff0ccf07e2efe5bd6a546054328be7d68", "blocktime": 1537872018, "version": 1, "confirmations": 11489, "time": 1537872018, "locktime": 0, "vsize": 224, "size": 224}