{"hash": "77ac62aecf48de96a62291d6ba79e82e1cf286095593792939d9f8976804c139", "blockhash": "0000000000000000000dcc0f55137456b1a82d3642486a52398922ac4d620174", "vout": [{"scriptPubKey": {"reqSigs": 1, "hex": "a914670a5574af2962592a7a07aa2266af74e541296187", "addresses": ["3B5quJpk2mWprKLMKKdsT1K3Rx6uZQtRMJ"], "asm": "OP_HASH160 670a5574af2962592a7a07aa2266af74e5412961 OP_EQUAL", "type": "scripthash"}, "value": 0.01001648, "n": 0}, {"scriptPubKey": {"reqSigs": 1, "hex": "76a914b7be3e452735ba040850819d430ff8818ce1965488ac", "addresses": ["1HkYZSMkNV4ywdVnqj7msXkFFFCEFc9CtV"], "asm": "OP_DUP OP_HASH160 b7be3e452735ba040850819d430ff8818ce19654 OP_EQUALVERIFY OP_CHECKSIG", "type": "pubkeyhash"}, "value": 0.0029716, "n": 1}], "hex": "020000000001021be7c78cbc809775dad694d899e49f3771af19a998f82846a7b9b89c863781860f00000017160014c63118ecd1a8e1ce21ba23190efeca9b390c0c32feffffffc3e085bc1f37173c8d205c2a17834da2dbadb5d4b6eb7e3284223a08a6ad70c90100000017160014f1b40f611fed911d30ba79d97e262b7871dcb45afeffffff02b0480f000000000017a914670a5574af2962592a7a07aa2266af74e541296187c8880400000000001976a914b7be3e452735ba040850819d430ff8818ce1965488ac024830450221009972f8cbce71b6966db7c6088780224196baa667d1ae456568bc991e288d7bf6022060831ecbe7e0b167ba8a4d56257562e046886652524d2138bfbeb0d59a72abac012102892c7435aaac72e4f2b14832dd944e2a7b5ec1922702e2b3bba5d4b313242f400247304402200c63901056bfb5b2d094df9c4082992305a678988921b54cbfea914640c2f5b102200bfdd2601a382f0c0d7d0b8d2ea51da516b5df458f13d9b0f2c7b3e3048749b8012103bd8b6f7c41f94fb488182cf2e785150aa7ba244c9898ece9c4d867360bf649780c490800", "vin": [{"txinwitness": ["30450221009972f8cbce71b6966db7c6088780224196baa667d1ae456568bc991e288d7bf6022060831ecbe7e0b167ba8a4d56257562e046886652524d2138bfbeb0d59a72abac01", "02892c7435aaac72e4f2b14832dd944e2a7b5ec1922702e2b3bba5d4b313242f40"], "sequence": 4294967294, "scriptSig": {"hex": "160014c63118ecd1a8e1ce21ba23190efeca9b390c0c32", "asm": "0014c63118ecd1a8e1ce21ba23190efeca9b390c0c32"}, "vout": 15, "txid": "868137869cb8b9a74628f898a919af71379fe499d894d6da759780bc8cc7e71b"}, {"txinwitness": ["304402200c63901056bfb5b2d094df9c4082992305a678988921b54cbfea914640c2f5b102200bfdd2601a382f0c0d7d0b8d2ea51da516b5df458f13d9b0f2c7b3e3048749b801", "03bd8b6f7c41f94fb488182cf2e785150aa7ba244c9898ece9c4d867360bf64978"], "sequence": 4294967294, "scriptSig": {"hex": "160014f1b40f611fed911d30ba79d97e262b7871dcb45a", "asm": "0014f1b40f611fed911d30ba79d97e262b7871dcb45a"}, "vout": 1, "txid": "c970ada6083a2284327eebb6d4b5addba24d83172a5c208d3c17371fbc85e0c3"}], "txid": "ad57ccb7f32fcc7563bb4cd6b29af92048c702c9b63d9a33465611c27380471c", "blocktime": 1537870268, "version": 2, "confirmations": 11518, "time": 1537870268, "locktime": 542988, "vsize": 259, "size": 421}