{"hash": "ad5f5a7d30ff0584b29f13fd702d792431aefa82e2874b16b144506a76c8edeb", "blockhash": "0000000000000000001f76057863aec43deb6fa401d9628bb513d65a8098bfab", "vout": [{"scriptPubKey": {"reqSigs": 1, "hex": "a9142fa7db9754ef9c52969767586174139ac87fd25687", "addresses": ["362zmXGUGWCGiWgT3ebtniudB6j2Y7Rbu4"], "asm": "OP_HASH160 2fa7db9754ef9c52969767586174139ac87fd256 OP_EQUAL", "type": "scripthash"}, "value": 0.02733533, "n": 0}, {"scriptPubKey": {"reqSigs": 1, "hex": "76a9142c6fc330b7076feee766e27756ce1503e64ea06788ac", "addresses": ["153xcqHfcPMU8q98Yu3FEkh9qDLNuoVFcp"], "asm": "OP_DUP OP_HASH160 2c6fc330b7076feee766e27756ce1503e64ea067 OP_EQUALVERIFY OP_CHECKSIG", "type": "pubkeyhash"}, "value": 0.46695009, "n": 1}], "hex": "01000000012816071ad8c635840f8415dd4f2df2c750522accd8003e649b1846ecdf2ea2e5010000006b483045022100e2223581dc978748e91f8113598dd81ddf97a6a943bd524c88f68e3e665186fc0220644735868b85f1f1d188cec3b258d51b184317f4f2bae8fcc930d083f4f8f7f4012102e585833d177aa78862299c20abcba6eb3842f5bf827c7df54bb948d163c0bcf1ffffffff02ddb529000000000017a9142fa7db9754ef9c52969767586174139ac87fd256876182c802000000001976a9142c6fc330b7076feee766e27756ce1503e64ea06788ac00000000", "vin": [{"sequence": 4294967295, "scriptSig": {"hex": "483045022100e2223581dc978748e91f8113598dd81ddf97a6a943bd524c88f68e3e665186fc0220644735868b85f1f1d188cec3b258d51b184317f4f2bae8fcc930d083f4f8f7f4012102e585833d177aa78862299c20abcba6eb3842f5bf827c7df54bb948d163c0bcf1", "asm": "3045022100e2223581dc978748e91f8113598dd81ddf97a6a943bd524c88f68e3e665186fc0220644735868b85f1f1d188cec3b258d51b184317f4f2bae8fcc930d083f4f8f7f4[ALL] 02e585833d177aa78862299c20abcba6eb3842f5bf827c7df54bb948d163c0bcf1"}, "vout": 1, "txid": "e5a22edfec46189b643e00d8cc2a5250c7f22d4fdd15840f8435c6d81a071628"}], "txid": "ad5f5a7d30ff0584b29f13fd702d792431aefa82e2874b16b144506a76c8edeb", "blocktime": 1537873891, "version": 1, "confirmations": 11477, "time": 1537873891, "locktime": 0, "vsize": 224, "size": 224}