{"hash": "ad5f5345a9851f48ef2aa62f010b725eb47d41c4a8d964dd8e08ffe7f383eaec", "blockhash": "0000000000000000000baef3f32e3676a92c3b2e5da21b426e4f302fc371ce76", "vout": [{"scriptPubKey": {"reqSigs": 1, "hex": "76a91406d5fed39c43b78b0df311eeafebbc6ac91d446288ac", "addresses": ["1d9QpAYGBsa9ADQADtuWV6o8kVXjmRyUP"], "asm": "OP_DUP OP_HASH160 06d5fed39c43b78b0df311eeafebbc6ac91d4462 OP_EQUALVERIFY OP_CHECKSIG", "type": "pubkeyhash"}, "value": 0.00228, "n": 0}, {"scriptPubKey": {"reqSigs": 1, "hex": "76a914a20fdab156503635d549fe0884a9cd9886016f9a88ac", "addresses": ["1FmuTeiz9WbuURa8XKKuvJZjkx5wd6WSFM"], "asm": "OP_DUP OP_HASH160 a20fdab156503635d549fe0884a9cd9886016f9a OP_EQUALVERIFY OP_CHECKSIG", "type": "pubkeyhash"}, "value": 0.01019049, "n": 1}], "hex": "0200000001f133bb6a3814e0734657f2a8910af13894f577fae7c161d61debfe5dd8dfbb82010000006a47304402207c992f41fd5e3f29da2d36eec6dc9139a5093888a3ce7c8c7c776280d2c35dce022053444176e089952d474cdd31238aeebb00fa2b6195d259d3e554e4a17af04ba5012102074d64691c916fa619217e26773653ee34a973c234f9db1a8869d9c771d41f1ffeffffff02a07a0300000000001976a91406d5fed39c43b78b0df311eeafebbc6ac91d446288aca98c0f00000000001976a914a20fdab156503635d549fe0884a9cd9886016f9a88ac17490800", "vin": [{"sequence": 4294967294, "scriptSig": {"hex": "47304402207c992f41fd5e3f29da2d36eec6dc9139a5093888a3ce7c8c7c776280d2c35dce022053444176e089952d474cdd31238aeebb00fa2b6195d259d3e554e4a17af04ba5012102074d64691c916fa619217e26773653ee34a973c234f9db1a8869d9c771d41f1f", "asm": "304402207c992f41fd5e3f29da2d36eec6dc9139a5093888a3ce7c8c7c776280d2c35dce022053444176e089952d474cdd31238aeebb00fa2b6195d259d3e554e4a17af04ba5[ALL] 02074d64691c916fa619217e26773653ee34a973c234f9db1a8869d9c771d41f1f"}, "vout": 1, "txid": "82bbdfd85dfeeb1dd661c1e7fa77f59438f10a91a8f2574673e014386abb33f1"}], "txid": "ad5f5345a9851f48ef2aa62f010b725eb47d41c4a8d964dd8e08ffe7f383eaec", "blocktime": 1537876114, "version": 2, "confirmations": 11459, "time": 1537876114, "locktime": 542999, "vsize": 225, "size": 225}