{"hash": "ad619edb5ec86afe4e530526e1c12fdcd37bd975aa2364fadda3282cc339757c", "blockhash": "00000000000000000024a2167bbff67b0be802c0b01cdd79e6331c2be6459f87", "vout": [{"scriptPubKey": {"reqSigs": 1, "hex": "76a91445260299c0357f362a3272d62df67c4a166f613388ac", "addresses": ["17JdAEFPUASLvYpdX3FK5YGoQs2TXaVV6k"], "asm": "OP_DUP OP_HASH160 45260299c0357f362a3272d62df67c4a166f6133 OP_EQUALVERIFY OP_CHECKSIG", "type": "pubkeyhash"}, "value": 0.0100001, "n": 0}, {"scriptPubKey": {"reqSigs": 1, "hex": "76a914845c6962ab090627822527d4c7d32a3c6e95201588ac", "addresses": ["1D4ruCPqRD6VYxfAonpBvwxCNGbwfVewQj"], "asm": "OP_DUP OP_HASH160 845c6962ab090627822527d4c7d32a3c6e952015 OP_EQUALVERIFY OP_CHECKSIG", "type": "pubkeyhash"}, "value": 0.0123654, "n": 1}], "hex": "010000000718a54bac8d0d6d43fb30bc44c10dab436e54f6263aec1bfa3c26aeae42ec0e45170000006a47304402205eaa57ff27720ab94ea60374fd37a467e72dd80057ef7dd6463f971053652d2d02203a54f527c0e6f9e2ff89df868f38baf133d07559b141e3468229eedc33953dfa01210309433657ef23428572e4a540f03ddaf1c8cd8c41bec07a8a2a3c5266a3debad4feffffffc1d02f05339dfd473d29da197ffd4b0b690bcb0f633c68ebb484b4b9890f3a29000000006a47304402206dfeb80d9f446b5953dca833807c7af493d5029797f0ef14a4e769f3a2b2d49c022015dead1607e665336fe6f8a78be744625d381df0c36c444f48c9f9cd4e64b2e40121023c77754b64f7f9a6955bb070182744111b6447f2a0ebd3e241a066ebec2e4901feffffff2d8372c9332f818aefbc58602e5d68fd1f560cfebeb64a1948b8454c097710d3080000006b483045022100a7e2625bb76e219e86c57aefff8ff01f9a3ba2fafd31d6e902e2cdf6dc2ef84d022030f237411288ea11c5bfd1b70bb4d39c19994e2a04e242c73a2ff4c3413be69b012103a2e486473a1d0cf40f273cc13461ec7e1d8b8c5a43104b3499825cc20f1a72eefefffffff99067b3bc4fe95d17c061cc637c904762966aacffb1a5e4586b235a5536cd120c0000006a47304402207b8a41393f65c502eed4d463704c2d4bb3ecf9368ddd0cce5ec3f20828e91a52022053770a7ff0c70675a871a8920a055c24744e01d5dba1114b7476f13d483bae390121032dc11afdd669437f259c6e0db3bb3f2ad8081c7c3b999210ce7010eeda9c3e87feffffffada9874a1d372e9e54bde40bd64c5a9eafece1670b42369bfedc6eba875b0175030000006b48304502210092bc6bd3e77f491b8f5b6e3f2d170c817eba4fd9e8979478218da47faa284bcd02200fe5e808b7e773e4bad8c445e43a701559ea77b089317020280a9cb259bec041012103ca763fc7d27992e5aca91482b64134397c30c0ac2205ff8f518e8a7bd3b335e7feffffffb66ad87320964ea37b24796b43c50bbda9077819f1bd46c141e39c21317717e7070000006b483045022100e50befa6dc8579702428342e8fbc274297aa4459d143eca70c5234dd884655a502202d2c8a743c3261cf236d21054fe5a6a96d2a6612eaa0e0f2f025ea9e250eb5730121029544209e5b63ba9ec4d3e9edfded6f4b8c64a1140e14b1a1bfe737c6ac9a5c98feffffffde810ec124b18ff067f09dee233b7cdbe8297c529db4bc4edbb37c322cb25af9080000006a47304402200e24f7786dc2a422f78e8574d906a0f98e4ec1b49fb7be8e503922cc0d494114022055afcda24a2227c4b3a012de8a0395ed6b538de09dcdf8f5122392e9d57a76d4012103d3094a10c91aa986f6c1c03644df0c01a45706bb7c8729e9e4419572e04916bcfeffffff024a420f00000000001976a91445260299c0357f362a3272d62df67c4a166f613388ac3cde1200000000001976a914845c6962ab090627822527d4c7d32a3c6e95201588ac0d490800", "vin": [{"sequence": 4294967294, "scriptSig": {"hex": "47304402205eaa57ff27720ab94ea60374fd37a467e72dd80057ef7dd6463f971053652d2d02203a54f527c0e6f9e2ff89df868f38baf133d07559b141e3468229eedc33953dfa01210309433657ef23428572e4a540f03ddaf1c8cd8c41bec07a8a2a3c5266a3debad4", "asm": "304402205eaa57ff27720ab94ea60374fd37a467e72dd80057ef7dd6463f971053652d2d02203a54f527c0e6f9e2ff89df868f38baf133d07559b141e3468229eedc33953dfa[ALL] 0309433657ef23428572e4a540f03ddaf1c8cd8c41bec07a8a2a3c5266a3debad4"}, "vout": 23, "txid": "450eec42aeae263cfa1bec3a26f6546e43ab0dc144bc30fb436d0d8dac4ba518"}, {"sequence": 4294967294, "scriptSig": {"hex": "47304402206dfeb80d9f446b5953dca833807c7af493d5029797f0ef14a4e769f3a2b2d49c022015dead1607e665336fe6f8a78be744625d381df0c36c444f48c9f9cd4e64b2e40121023c77754b64f7f9a6955bb070182744111b6447f2a0ebd3e241a066ebec2e4901", "asm": "304402206dfeb80d9f446b5953dca833807c7af493d5029797f0ef14a4e769f3a2b2d49c022015dead1607e665336fe6f8a78be744625d381df0c36c444f48c9f9cd4e64b2e4[ALL] 023c77754b64f7f9a6955bb070182744111b6447f2a0ebd3e241a066ebec2e4901"}, "vout": 0, "txid": "293a0f89b9b484b4eb683c630fcb0b690b4bfd7f19da293d47fd9d33052fd0c1"}, {"sequence": 4294967294, "scriptSig": {"hex": "483045022100a7e2625bb76e219e86c57aefff8ff01f9a3ba2fafd31d6e902e2cdf6dc2ef84d022030f237411288ea11c5bfd1b70bb4d39c19994e2a04e242c73a2ff4c3413be69b012103a2e486473a1d0cf40f273cc13461ec7e1d8b8c5a43104b3499825cc20f1a72ee", "asm": "3045022100a7e2625bb76e219e86c57aefff8ff01f9a3ba2fafd31d6e902e2cdf6dc2ef84d022030f237411288ea11c5bfd1b70bb4d39c19994e2a04e242c73a2ff4c3413be69b[ALL] 03a2e486473a1d0cf40f273cc13461ec7e1d8b8c5a43104b3499825cc20f1a72ee"}, "vout": 8, "txid": "d31077094c45b848194ab6befe0c561ffd685d2e6058bcef8a812f33c972832d"}, {"sequence": 4294967294, "scriptSig": {"hex": "47304402207b8a41393f65c502eed4d463704c2d4bb3ecf9368ddd0cce5ec3f20828e91a52022053770a7ff0c70675a871a8920a055c24744e01d5dba1114b7476f13d483bae390121032dc11afdd669437f259c6e0db3bb3f2ad8081c7c3b999210ce7010eeda9c3e87", "asm": "304402207b8a41393f65c502eed4d463704c2d4bb3ecf9368ddd0cce5ec3f20828e91a52022053770a7ff0c70675a871a8920a055c24744e01d5dba1114b7476f13d483bae39[ALL] 032dc11afdd669437f259c6e0db3bb3f2ad8081c7c3b999210ce7010eeda9c3e87"}, "vout": 12, "txid": "12cd36555a236b58e4a5b1ffac6a966247907c63cc61c0175de94fbcb36790f9"}, {"sequence": 4294967294, "scriptSig": {"hex": "48304502210092bc6bd3e77f491b8f5b6e3f2d170c817eba4fd9e8979478218da47faa284bcd02200fe5e808b7e773e4bad8c445e43a701559ea77b089317020280a9cb259bec041012103ca763fc7d27992e5aca91482b64134397c30c0ac2205ff8f518e8a7bd3b335e7", "asm": "304502210092bc6bd3e77f491b8f5b6e3f2d170c817eba4fd9e8979478218da47faa284bcd02200fe5e808b7e773e4bad8c445e43a701559ea77b089317020280a9cb259bec041[ALL] 03ca763fc7d27992e5aca91482b64134397c30c0ac2205ff8f518e8a7bd3b335e7"}, "vout": 3, "txid": "75015b87ba6edcfe9b36420b67e1ecaf9e5a4cd60be4bd549e2e371d4a87a9ad"}, {"sequence": 4294967294, "scriptSig": {"hex": "483045022100e50befa6dc8579702428342e8fbc274297aa4459d143eca70c5234dd884655a502202d2c8a743c3261cf236d21054fe5a6a96d2a6612eaa0e0f2f025ea9e250eb5730121029544209e5b63ba9ec4d3e9edfded6f4b8c64a1140e14b1a1bfe737c6ac9a5c98", "asm": "3045022100e50befa6dc8579702428342e8fbc274297aa4459d143eca70c5234dd884655a502202d2c8a743c3261cf236d21054fe5a6a96d2a6612eaa0e0f2f025ea9e250eb573[ALL] 029544209e5b63ba9ec4d3e9edfded6f4b8c64a1140e14b1a1bfe737c6ac9a5c98"}, "vout": 7, "txid": "e7177731219ce341c146bdf1197807a9bd0bc5436b79247ba34e962073d86ab6"}, {"sequence": 4294967294, "scriptSig": {"hex": "47304402200e24f7786dc2a422f78e8574d906a0f98e4ec1b49fb7be8e503922cc0d494114022055afcda24a2227c4b3a012de8a0395ed6b538de09dcdf8f5122392e9d57a76d4012103d3094a10c91aa986f6c1c03644df0c01a45706bb7c8729e9e4419572e04916bc", "asm": "304402200e24f7786dc2a422f78e8574d906a0f98e4ec1b49fb7be8e503922cc0d494114022055afcda24a2227c4b3a012de8a0395ed6b538de09dcdf8f5122392e9d57a76d4[ALL] 03d3094a10c91aa986f6c1c03644df0c01a45706bb7c8729e9e4419572e04916bc"}, "vout": 8, "txid": "f95ab22c327cb3db4ebcb49d527c29e8db7c3b23ee9df067f08fb124c10e81de"}], "txid": "ad619edb5ec86afe4e530526e1c12fdcd37bd975aa2364fadda3282cc339757c", "blocktime": 1537870564, "version": 1, "confirmations": 11515, "time": 1537870564, "locktime": 542989, "vsize": 1110, "size": 1110}