{"hash": "f97e793c34454873793b11496e9e7231442ea7de636d4c00581960027baa45fa", "blockhash": "0000000000000000001cda96e906b7601b7a6fb1a3b62bca570a9e5d8f4b3de1", "vout": [{"scriptPubKey": {"reqSigs": 1, "hex": "76a914a0a84a805743304802c3b2ca1fc0aaec8114fcb388ac", "addresses": ["1FeUikxsRpyrPQ8ArHWse2AqnsdLp66vSe"], "asm": "OP_DUP OP_HASH160 a0a84a805743304802c3b2ca1fc0aaec8114fcb3 OP_EQUALVERIFY OP_CHECKSIG", "type": "pubkeyhash"}, "value": 0.0001394, "n": 0}, {"scriptPubKey": {"reqSigs": 1, "hex": "a91408c364340a91e77e4376b26fdad3b5aedc5661f787", "addresses": ["32VMQ7Th4qGhbDYY68FZrfSF9hTbsPivgt"], "asm": "OP_HASH160 08c364340a91e77e4376b26fdad3b5aedc5661f7 OP_EQUAL", "type": "scripthash"}, "value": 0.03227397, "n": 1}], "hex": "010000000001019dac8d398c20fc85f651ef9504d1e2cbe2a159d87f0b774b6f108a0e57a9e4eb010000002322002027561ef61439ff4994ea3793249bbb358319edb59fff63c1eeada48f299e81b5ffffffff0274360000000000001976a914a0a84a805743304802c3b2ca1fc0aaec8114fcb388ac053f31000000000017a91408c364340a91e77e4376b26fdad3b5aedc5661f7870400483045022100e8095d01bc751f854fd495f722cfe530685a4fb0d8fe0793a0df25d4ab532de102200991b9266f2691caa1d6f825b71b9b04016fb4a9a3f6f423ca07520a361baf430147304402201d1691057ff7903054b565f069dc4bc413a9e618412ab9884eb693d807cffaad022061225284ea14436c9befb49129afd696bee926cb3230057cfaabdbb06268228f0147522102f484437eae67e7d1f9cf7235bd52510c99f379408a1f6fe737011d4bc259358a2103871fc2ca08e6950b38867e8e6a0e94ee625223d3aa0df5c65f414c6d784467e252ae00000000", "vin": [{"txinwitness": ["", "3045022100e8095d01bc751f854fd495f722cfe530685a4fb0d8fe0793a0df25d4ab532de102200991b9266f2691caa1d6f825b71b9b04016fb4a9a3f6f423ca07520a361baf4301", "304402201d1691057ff7903054b565f069dc4bc413a9e618412ab9884eb693d807cffaad022061225284ea14436c9befb49129afd696bee926cb3230057cfaabdbb06268228f01", "522102f484437eae67e7d1f9cf7235bd52510c99f379408a1f6fe737011d4bc259358a2103871fc2ca08e6950b38867e8e6a0e94ee625223d3aa0df5c65f414c6d784467e252ae"], "sequence": 4294967295, "scriptSig": {"hex": "22002027561ef61439ff4994ea3793249bbb358319edb59fff63c1eeada48f299e81b5", "asm": "002027561ef61439ff4994ea3793249bbb358319edb59fff63c1eeada48f299e81b5"}, "vout": 1, "txid": "ebe4a9570e8a106f4b770b7fd859a1e2cbe2d10495ef51f685fc208c398dac9d"}], "txid": "ad71f96e5112e1256a916ed35a57933088edc88cfb5908097934fd867257fb88", "blocktime": 1537873282, "version": 1, "confirmations": 11484, "time": 1537873282, "locktime": 0, "vsize": 208, "size": 373}