{"hash": "a45405292f8b827218f24b983aaa06c2eec17a17ed04d8a3d39b62d813754682", "blockhash": "0000000000000000001cda96e906b7601b7a6fb1a3b62bca570a9e5d8f4b3de1", "vout": [{"scriptPubKey": {"reqSigs": 1, "hex": "76a9140dfa18026f859fc1addbcd4faff811c2caa462af88ac", "addresses": ["12GuPKFsCJBDPMgKMH197KEmiJACQ8bGA6"], "asm": "OP_DUP OP_HASH160 0dfa18026f859fc1addbcd4faff811c2caa462af OP_EQUALVERIFY OP_CHECKSIG", "type": "pubkeyhash"}, "value": 0.0020406, "n": 0}, {"scriptPubKey": {"reqSigs": 1, "hex": "a9145396446a71b46230312e2c430001b4fd1062299887", "addresses": ["39Jz2DYtVRbjLVWmMR1P5xWQdbeWM81w9S"], "asm": "OP_HASH160 5396446a71b46230312e2c430001b4fd10622998 OP_EQUAL", "type": "scripthash"}, "value": 0.01009464, "n": 1}], "hex": "020000000001021d23e38a6f56c321bbfd1f411f29ecac58569e305df2736cf35612385cf1f2130100000017160014ca93ae8dfa0588452e8c478f13e6806a831ccb5efeffffff7a0063c277804d6ac2b5df026170534112644c3cf7f2c37b25f6925d7bbce90008000000171600140e480e8a2e62f668a31b345a6a720fb55795b79dfeffffff021c1d0300000000001976a9140dfa18026f859fc1addbcd4faff811c2caa462af88ac38670f000000000017a9145396446a71b46230312e2c430001b4fd106229988702483045022100b0e18c1f954d707a7ecba8a9cec3782c0828d3d47f7340106c3e2239afd82ba5022047fd17428c6cd5f3d3649837c17fe0021d0376f55d193f611ff4894eff4d6be301210212d3b3f47ff0d9f3772eaa588465b53ff299d41252fa9c8ea476b7515e1c3c450247304402203d71ba89eb337f6c489164330bf70a33495edc8bf7c9b857fd20a985ef0573550220065b19d4bc0dfbf83122568e60ac22f43e9becfc09145392eecfe0a3a08c601d012102dbaff00d3a48211836416dbc94cd4395f4daa95c1a9748047a11d69d8a54e3fa13490800", "vin": [{"txinwitness": ["3045022100b0e18c1f954d707a7ecba8a9cec3782c0828d3d47f7340106c3e2239afd82ba5022047fd17428c6cd5f3d3649837c17fe0021d0376f55d193f611ff4894eff4d6be301", "0212d3b3f47ff0d9f3772eaa588465b53ff299d41252fa9c8ea476b7515e1c3c45"], "sequence": 4294967294, "scriptSig": {"hex": "160014ca93ae8dfa0588452e8c478f13e6806a831ccb5e", "asm": "0014ca93ae8dfa0588452e8c478f13e6806a831ccb5e"}, "vout": 1, "txid": "13f2f15c381256f36c73f25d309e5658acec291f411ffdbb21c3566f8ae3231d"}, {"txinwitness": ["304402203d71ba89eb337f6c489164330bf70a33495edc8bf7c9b857fd20a985ef0573550220065b19d4bc0dfbf83122568e60ac22f43e9becfc09145392eecfe0a3a08c601d01", "02dbaff00d3a48211836416dbc94cd4395f4daa95c1a9748047a11d69d8a54e3fa"], "sequence": 4294967294, "scriptSig": {"hex": "1600140e480e8a2e62f668a31b345a6a720fb55795b79d", "asm": "00140e480e8a2e62f668a31b345a6a720fb55795b79d"}, "vout": 8, "txid": "00e9bc7b5d92f6257bc3f2f73c4c64124153706102dfb5c26a4d8077c263007a"}], "txid": "ad73bac64e992c5422b897192e98902e2540a2d7f7689c5cc9517fb3a1561aab", "blocktime": 1537873282, "version": 2, "confirmations": 11484, "time": 1537873282, "locktime": 542995, "vsize": 259, "size": 421}