{"hash": "ad758a148a3e74861e4dc1b8575d9a3bf7a79055cd75b9625607fbe23b47e725", "blockhash": "0000000000000000000e13cef7c366c0283d82e591d1acd082e914b08063cdf1", "vout": [{"scriptPubKey": {"reqSigs": 1, "hex": "76a91485d90df20f53987c497328529b41afb8d2ad652288ac", "addresses": ["1DCitivKLr8f8z2i82bXTvvnXETRci8mTY"], "asm": "OP_DUP OP_HASH160 85d90df20f53987c497328529b41afb8d2ad6522 OP_EQUALVERIFY OP_CHECKSIG", "type": "pubkeyhash"}, "value": 0.01569684, "n": 0}], "hex": "01000000016afa964942024b231955faede8eefc1f10ae87af4d5dafe9319fdeac75b7eac9000000006b483045022100f949e249a8030d76cff07df5394eec4c447b569e32f3e14b5db9143e7ea4a3370220224421b6841bbc6692a3b7619e74e24faed1099354e7ce22a8211cc8a19ccb540121037733f916d9fbd08f2907a95387046d1e0f19aaa3d744718485190287cce63cddffffffff0194f31700000000001976a91485d90df20f53987c497328529b41afb8d2ad652288ac00000000", "vin": [{"sequence": 4294967295, "scriptSig": {"hex": "483045022100f949e249a8030d76cff07df5394eec4c447b569e32f3e14b5db9143e7ea4a3370220224421b6841bbc6692a3b7619e74e24faed1099354e7ce22a8211cc8a19ccb540121037733f916d9fbd08f2907a95387046d1e0f19aaa3d744718485190287cce63cdd", "asm": "3045022100f949e249a8030d76cff07df5394eec4c447b569e32f3e14b5db9143e7ea4a3370220224421b6841bbc6692a3b7619e74e24faed1099354e7ce22a8211cc8a19ccb54[ALL] 037733f916d9fbd08f2907a95387046d1e0f19aaa3d744718485190287cce63cdd"}, "vout": 0, "txid": "c9eab775acde9f31e9af5d4daf87ae101ffceee8edfa5519234b02424996fa6a"}], "txid": "ad758a148a3e74861e4dc1b8575d9a3bf7a79055cd75b9625607fbe23b47e725", "blocktime": 1537871767, "version": 1, "confirmations": 11495, "time": 1537871767, "locktime": 0, "vsize": 192, "size": 192}