{"hash": "ad792ec819a490e9c12f274df251b55a957c1223e152728f96f21e8859b7ad8a", "blockhash": "0000000000000000001f76057863aec43deb6fa401d9628bb513d65a8098bfab", "vout": [{"scriptPubKey": {"reqSigs": 1, "hex": "76a9141c0c4c5640dab7219ca1bf43c5d23f05a647376188ac", "addresses": ["13ZJes9MJZhCRPwJ4tkoiaS4RBuC5LoqcW"], "asm": "OP_DUP OP_HASH160 1c0c4c5640dab7219ca1bf43c5d23f05a6473761 OP_EQUALVERIFY OP_CHECKSIG", "type": "pubkeyhash"}, "value": 0.02696468, "n": 0}, {"scriptPubKey": {"reqSigs": 1, "hex": "76a914aa55b51ef707f6657d42d22e1ad22ac33bf8b8b588ac", "addresses": ["1GXeYg2jmwua65X79LwD6gjwbMnmiGKJbb"], "asm": "OP_DUP OP_HASH160 aa55b51ef707f6657d42d22e1ad22ac33bf8b8b5 OP_EQUALVERIFY OP_CHECKSIG", "type": "pubkeyhash"}, "value": 0.01, "n": 1}], "hex": "0200000001d1c9bf2c8a0a2094e0b280471ef2a513554b42b7b7c33888dd8de0b8fd046508000000006b483045022100e56ab0fcbf62c66a116230d1403c3b8bff50be01306a4bccb555327e8f67f182022073a71882319f2a1556fc5b6894d55f680900d5642ac686e8f8037d0f5d64be0e012103a306483a3ee373a99e5418f49e482a9b75bf88ece9dc2d3057bfc065f184b99cfeffffff0214252900000000001976a9141c0c4c5640dab7219ca1bf43c5d23f05a647376188ac40420f00000000001976a914aa55b51ef707f6657d42d22e1ad22ac33bf8b8b588ac14490800", "vin": [{"sequence": 4294967294, "scriptSig": {"hex": "483045022100e56ab0fcbf62c66a116230d1403c3b8bff50be01306a4bccb555327e8f67f182022073a71882319f2a1556fc5b6894d55f680900d5642ac686e8f8037d0f5d64be0e012103a306483a3ee373a99e5418f49e482a9b75bf88ece9dc2d3057bfc065f184b99c", "asm": "3045022100e56ab0fcbf62c66a116230d1403c3b8bff50be01306a4bccb555327e8f67f182022073a71882319f2a1556fc5b6894d55f680900d5642ac686e8f8037d0f5d64be0e[ALL] 03a306483a3ee373a99e5418f49e482a9b75bf88ece9dc2d3057bfc065f184b99c"}, "vout": 0, "txid": "086504fdb8e08ddd8838c3b7b7424b5513a5f21e4780b2e094200a8a2cbfc9d1"}], "txid": "ad792ec819a490e9c12f274df251b55a957c1223e152728f96f21e8859b7ad8a", "blocktime": 1537873891, "version": 2, "confirmations": 11479, "time": 1537873891, "locktime": 542996, "vsize": 226, "size": 226}