{"hash": "ad7e6431103eeda330577c40fb8ad9a2514775851f25648b3b88aa723681ba56", "blockhash": "0000000000000000001f76057863aec43deb6fa401d9628bb513d65a8098bfab", "vout": [{"scriptPubKey": {"reqSigs": 1, "hex": "a914cf0c2dd29994c457216f6c413a37ea7dd9cb348287", "addresses": ["3LZnPTsHcwXdtVuCNaMzsymNyzUug3UzEm"], "asm": "OP_HASH160 cf0c2dd29994c457216f6c413a37ea7dd9cb3482 OP_EQUAL", "type": "scripthash"}, "value": 0.01952523, "n": 0}, {"scriptPubKey": {"reqSigs": 1, "hex": "76a91481d670d46de465b039a7a49d22dbfafbc7912bbf88ac", "addresses": ["1CqX4MJZ1PaC7QcL5Zn8BpK4S6bRnqVu5A"], "asm": "OP_DUP OP_HASH160 81d670d46de465b039a7a49d22dbfafbc7912bbf OP_EQUALVERIFY OP_CHECKSIG", "type": "pubkeyhash"}, "value": 0.5208662, "n": 1}], "hex": "01000000011c2bfec5410bd71ae869a34185394f3ab5e201b980ceef1284328ec975f201c7010000006b483045022100ae170ef7847f195b0ce9c485b45a667f959e14ff17c60fa85fa97307cf10927702202801b623d2e81182d450abb8f2085dfca994f6309ca9c6d68641b16d3ff688f101210326b5f24c446252b1d9c73b214ab68b0fcbf266f534c17589cff96eabca70819fffffffff020bcb1d000000000017a914cf0c2dd29994c457216f6c413a37ea7dd9cb3482875cc71a03000000001976a91481d670d46de465b039a7a49d22dbfafbc7912bbf88ac00000000", "vin": [{"sequence": 4294967295, "scriptSig": {"hex": "483045022100ae170ef7847f195b0ce9c485b45a667f959e14ff17c60fa85fa97307cf10927702202801b623d2e81182d450abb8f2085dfca994f6309ca9c6d68641b16d3ff688f101210326b5f24c446252b1d9c73b214ab68b0fcbf266f534c17589cff96eabca70819f", "asm": "3045022100ae170ef7847f195b0ce9c485b45a667f959e14ff17c60fa85fa97307cf10927702202801b623d2e81182d450abb8f2085dfca994f6309ca9c6d68641b16d3ff688f1[ALL] 0326b5f24c446252b1d9c73b214ab68b0fcbf266f534c17589cff96eabca70819f"}, "vout": 1, "txid": "c701f275c98e328412efce80b901e2b53a4f398541a369e81ad70b41c5fe2b1c"}], "txid": "ad7e6431103eeda330577c40fb8ad9a2514775851f25648b3b88aa723681ba56", "blocktime": 1537873891, "version": 1, "confirmations": 11475, "time": 1537873891, "locktime": 0, "vsize": 224, "size": 224}