{"hash": "ad81e2033861ed459b860616dfb8587519da7c2b28238b9dcab1a2ad4dabca6e", "blockhash": "0000000000000000001f76057863aec43deb6fa401d9628bb513d65a8098bfab", "vout": [{"scriptPubKey": {"reqSigs": 1, "hex": "a9146b14342f920de0c7e0bfbb8eea6507a63133087587", "addresses": ["3BTCRrhpGSegpjqHZnpVm1DjSTKz7jJp9m"], "asm": "OP_HASH160 6b14342f920de0c7e0bfbb8eea6507a631330875 OP_EQUAL", "type": "scripthash"}, "value": 0.0236049, "n": 0}], "hex": "010000000131896fa1599215dd66c6c75ce7edc20937f21b56b20fc9218b96166d1f489eac000000006a47304402201c3157abd75f7718d0fd144a78027083acd708f2fe36888d5987f9d451799b2702200f8fd18c9e24607f1a5033cf1815f340f0c9180702a23bbcee98ef053329616a01210395f9e50eb4a2a7883d53c03f62a9d9448b1c0b5e4513bc1e549e8192308cfe7afdffffff01aa0424000000000017a9146b14342f920de0c7e0bfbb8eea6507a6313308758714490800", "vin": [{"sequence": 4294967293, "scriptSig": {"hex": "47304402201c3157abd75f7718d0fd144a78027083acd708f2fe36888d5987f9d451799b2702200f8fd18c9e24607f1a5033cf1815f340f0c9180702a23bbcee98ef053329616a01210395f9e50eb4a2a7883d53c03f62a9d9448b1c0b5e4513bc1e549e8192308cfe7a", "asm": "304402201c3157abd75f7718d0fd144a78027083acd708f2fe36888d5987f9d451799b2702200f8fd18c9e24607f1a5033cf1815f340f0c9180702a23bbcee98ef053329616a[ALL] 0395f9e50eb4a2a7883d53c03f62a9d9448b1c0b5e4513bc1e549e8192308cfe7a"}, "vout": 0, "txid": "ac9e481f6d16968b21c90fb2561bf23709c2ede75cc7c666dd159259a16f8931"}], "txid": "ad81e2033861ed459b860616dfb8587519da7c2b28238b9dcab1a2ad4dabca6e", "blocktime": 1537873891, "version": 1, "confirmations": 11477, "time": 1537873891, "locktime": 542996, "vsize": 189, "size": 189}