{"hash": "ad8357070bb9420a9f1bd0fe21da3e0bf7824f702e895ee58ce87d2fcc4e6f85", "blockhash": "00000000000000000018f53835495a110e01622372bf6ae95dc86f2b0ab887b0", "vout": [{"scriptPubKey": {"reqSigs": 1, "hex": "a914ed35cebe7f65b8c51b591b22c26fb1011ab3a4a787", "addresses": ["3PKGXdBvs57XKRJtYjqdeV8u1GtMm1serd"], "asm": "OP_HASH160 ed35cebe7f65b8c51b591b22c26fb1011ab3a4a7 OP_EQUAL", "type": "scripthash"}, "value": 0.00125, "n": 0}, {"scriptPubKey": {"reqSigs": 1, "hex": "76a914f8526a00b58c88f504e094fe2cc95480935d302288ac", "addresses": ["1Pe1Joe9XoHXLuyzepdaLiBw7PxxgkhVrM"], "asm": "OP_DUP OP_HASH160 f8526a00b58c88f504e094fe2cc95480935d3022 OP_EQUALVERIFY OP_CHECKSIG", "type": "pubkeyhash"}, "value": 0.00291184, "n": 1}], "hex": "01000000013cffe8047bb30793dca4c411d94576f85a4f851d9b4a3aa26731d8b1790d95e7010000006b483045022100ac15eddc932effbd07b3a1851921ca880ea22d4b49f811a81d5795a2bf81f19c02207afb4548cf1f3b7b545b39e3d77666bc776e6ddfd43e78215f32f55083cf82f2012103a74972a538c7b09031d936ce2a91fd43f3b2aea36ef97e0530479f29e7cb1c58ffffffff0248e801000000000017a914ed35cebe7f65b8c51b591b22c26fb1011ab3a4a78770710400000000001976a914f8526a00b58c88f504e094fe2cc95480935d302288ac00000000", "vin": [{"sequence": 4294967295, "scriptSig": {"hex": "483045022100ac15eddc932effbd07b3a1851921ca880ea22d4b49f811a81d5795a2bf81f19c02207afb4548cf1f3b7b545b39e3d77666bc776e6ddfd43e78215f32f55083cf82f2012103a74972a538c7b09031d936ce2a91fd43f3b2aea36ef97e0530479f29e7cb1c58", "asm": "3045022100ac15eddc932effbd07b3a1851921ca880ea22d4b49f811a81d5795a2bf81f19c02207afb4548cf1f3b7b545b39e3d77666bc776e6ddfd43e78215f32f55083cf82f2[ALL] 03a74972a538c7b09031d936ce2a91fd43f3b2aea36ef97e0530479f29e7cb1c58"}, "vout": 1, "txid": "e7950d79b1d83167a23a4a9b1d854f5af87645d911c4a4dc9307b37b04e8ff3c"}], "txid": "ad8357070bb9420a9f1bd0fe21da3e0bf7824f702e895ee58ce87d2fcc4e6f85", "blocktime": 1537870928, "version": 1, "confirmations": 11514, "time": 1537870928, "locktime": 0, "vsize": 224, "size": 224}