{"hash": "ad83672879f2671d0a292bc10b4a3cf738f6647bea69b030677dffe457463c3b", "blockhash": "0000000000000000001cda96e906b7601b7a6fb1a3b62bca570a9e5d8f4b3de1", "vout": [{"scriptPubKey": {"reqSigs": 1, "hex": "76a91410d3451b2ee8699a6786b520340b10e95e7e05ef88ac", "addresses": ["12XxuN2PfdJM8GaHmkjxbZuEbiCCw36z2t"], "asm": "OP_DUP OP_HASH160 10d3451b2ee8699a6786b520340b10e95e7e05ef OP_EQUALVERIFY OP_CHECKSIG", "type": "pubkeyhash"}, "value": 0.01076449, "n": 0}, {"scriptPubKey": {"reqSigs": 1, "hex": "a914af79a5b700a2487ef29ef828f8066475151596eb87", "addresses": ["3HgquKR24DESxsqMTL3rwCKQjsgxj5NRfN"], "asm": "OP_HASH160 af79a5b700a2487ef29ef828f8066475151596eb OP_EQUAL", "type": "scripthash"}, "value": 0.03122984, "n": 1}], "hex": "0100000001287a30e9f7f825f5c40e3e8e7e9dfac5d455534d88b02816a7b9747118219eff000000006b483045022100b41dd1c8228e217d3357c52e4aec32d825a46f0810ed8f218e56cf6e589d7a9602202f80a3a90fd514027f711635b6a3c7dc0d81f3ac260324f3f2b6d2796e8835df01210213c15ea707caa10524557d0dee0299f49d08443b5e67e3450ee32d46cea8eb9cffffffff02e16c1000000000001976a91410d3451b2ee8699a6786b520340b10e95e7e05ef88ac28a72f000000000017a914af79a5b700a2487ef29ef828f8066475151596eb8700000000", "vin": [{"sequence": 4294967295, "scriptSig": {"hex": "483045022100b41dd1c8228e217d3357c52e4aec32d825a46f0810ed8f218e56cf6e589d7a9602202f80a3a90fd514027f711635b6a3c7dc0d81f3ac260324f3f2b6d2796e8835df01210213c15ea707caa10524557d0dee0299f49d08443b5e67e3450ee32d46cea8eb9c", "asm": "3045022100b41dd1c8228e217d3357c52e4aec32d825a46f0810ed8f218e56cf6e589d7a9602202f80a3a90fd514027f711635b6a3c7dc0d81f3ac260324f3f2b6d2796e8835df[ALL] 0213c15ea707caa10524557d0dee0299f49d08443b5e67e3450ee32d46cea8eb9c"}, "vout": 0, "txid": "ff9e21187174b9a71628b0884d5355d4c5fa9d7e8e3e0ec4f525f8f7e9307a28"}], "txid": "ad83672879f2671d0a292bc10b4a3cf738f6647bea69b030677dffe457463c3b", "blocktime": 1537873282, "version": 1, "confirmations": 11485, "time": 1537873282, "locktime": 0, "vsize": 224, "size": 224}