{"hash": "ad847e784dc03ba2934bad12a99577c4b00879539304405bcd298fea26671ac4", "blockhash": "0000000000000000000dcc0f55137456b1a82d3642486a52398922ac4d620174", "vout": [{"scriptPubKey": {"reqSigs": 1, "hex": "76a9140cb4a1200e7e91856e7a96e4e7ca53afab46b30088ac", "addresses": ["12ABVeqc5BKriPVjmcEyVHUhWuoMh3ECyf"], "asm": "OP_DUP OP_HASH160 0cb4a1200e7e91856e7a96e4e7ca53afab46b300 OP_EQUALVERIFY OP_CHECKSIG", "type": "pubkeyhash"}, "value": 0.00647761, "n": 0}, {"scriptPubKey": {"type": "nulldata", "hex": "6a4c50000077730001ee7b645c8358686cfded758086aeaeacb577c031fc3a016b46dc7dc7d0964b64bfe9d87d04855645d1eaa33a6dce5baa091b0614226c0856bdd41d100759d4ba30d2c37bb011d97e02cf", "asm": "OP_RETURN 000077730001ee7b645c8358686cfded758086aeaeacb577c031fc3a016b46dc7dc7d0964b64bfe9d87d04855645d1eaa33a6dce5baa091b0614226c0856bdd41d100759d4ba30d2c37bb011d97e02cf"}, "value": 0.0, "n": 1}], "hex": "0100000001f7648e6b427a71cc14fd2657fe0d10a126629e10de46ffb2606a24c7c9731a1e000000006b483045022100831246091710c9f87bae06ea997641f5baefc232a138032b7e554d64db78c1c702202a8074bd2a95c3b0a9ab708f3d13990a692d2d2358f0e8fde04b8068bda0fa2601210239c6e8bb4ffb7049cc036406d31d626804dff530e118423a2cce51f48a1a84dcffffffff0251e20900000000001976a9140cb4a1200e7e91856e7a96e4e7ca53afab46b30088ac0000000000000000536a4c50000077730001ee7b645c8358686cfded758086aeaeacb577c031fc3a016b46dc7dc7d0964b64bfe9d87d04855645d1eaa33a6dce5baa091b0614226c0856bdd41d100759d4ba30d2c37bb011d97e02cf00000000", "vin": [{"sequence": 4294967295, "scriptSig": {"hex": "483045022100831246091710c9f87bae06ea997641f5baefc232a138032b7e554d64db78c1c702202a8074bd2a95c3b0a9ab708f3d13990a692d2d2358f0e8fde04b8068bda0fa2601210239c6e8bb4ffb7049cc036406d31d626804dff530e118423a2cce51f48a1a84dc", "asm": "3045022100831246091710c9f87bae06ea997641f5baefc232a138032b7e554d64db78c1c702202a8074bd2a95c3b0a9ab708f3d13990a692d2d2358f0e8fde04b8068bda0fa26[ALL] 0239c6e8bb4ffb7049cc036406d31d626804dff530e118423a2cce51f48a1a84dc"}, "vout": 0, "txid": "1e1a73c9c7246a60b2ff46de109e6226a1100dfe5726fd14cc717a426b8e64f7"}], "txid": "ad847e784dc03ba2934bad12a99577c4b00879539304405bcd298fea26671ac4", "blocktime": 1537870268, "version": 1, "confirmations": 11518, "time": 1537870268, "locktime": 0, "vsize": 284, "size": 284}