{"hash": "ad894d9167ec242c2d2cdc7d7ac68e07d814daca505a01e9271a6b6f7f320b41", "blockhash": "00000000000000000017f5eb5941039fbcee6240d03bc1f2f8e35350df66a1d8", "vout": [{"scriptPubKey": {"reqSigs": 1, "hex": "a91487748bc9cbc1a37f4324bf5a71a1fd5bdcf1d17c87", "addresses": ["3E3EmCgZfwyzvtKtPN2b3S8ei1JwiXABtN"], "asm": "OP_HASH160 87748bc9cbc1a37f4324bf5a71a1fd5bdcf1d17c OP_EQUAL", "type": "scripthash"}, "value": 0.00400612, "n": 0}, {"scriptPubKey": {"reqSigs": 1, "hex": "76a914d0f94820013e8804a18b52de51d50a59e949d6e288ac", "addresses": ["1L3xBJNhpJVEgbujfqqa6RYNeY84biartj"], "asm": "OP_DUP OP_HASH160 d0f94820013e8804a18b52de51d50a59e949d6e2 OP_EQUALVERIFY OP_CHECKSIG", "type": "pubkeyhash"}, "value": 0.02980554, "n": 1}], "hex": "010000000145757d6a161ce51878e746c41f11266e5ffe2a12ee6016b36ce702f7a059d26b010000006a4730440220275451a72f17e68380cdba742e5cdde48b073cb08c20704479284b21fa92bd9702206b02ea13e518f394887bf57033d16a25b5e16ccba6b2c15d482bbbbc01249e1c012102b7c7c5911e48a5f4396559cb5eead795860f3dd2458ba7171fdc0e8fc48479c6ffffffff02e41c06000000000017a91487748bc9cbc1a37f4324bf5a71a1fd5bdcf1d17c87ca7a2d00000000001976a914d0f94820013e8804a18b52de51d50a59e949d6e288ac00000000", "vin": [{"sequence": 4294967295, "scriptSig": {"hex": "4730440220275451a72f17e68380cdba742e5cdde48b073cb08c20704479284b21fa92bd9702206b02ea13e518f394887bf57033d16a25b5e16ccba6b2c15d482bbbbc01249e1c012102b7c7c5911e48a5f4396559cb5eead795860f3dd2458ba7171fdc0e8fc48479c6", "asm": "30440220275451a72f17e68380cdba742e5cdde48b073cb08c20704479284b21fa92bd9702206b02ea13e518f394887bf57033d16a25b5e16ccba6b2c15d482bbbbc01249e1c[ALL] 02b7c7c5911e48a5f4396559cb5eead795860f3dd2458ba7171fdc0e8fc48479c6"}, "vout": 1, "txid": "6bd259a0f702e76cb31660ee122afe5f6e26111fc446e77818e51c166a7d7545"}], "txid": "ad894d9167ec242c2d2cdc7d7ac68e07d814daca505a01e9271a6b6f7f320b41", "blocktime": 1537874412, "version": 1, "confirmations": 11468, "time": 1537874412, "locktime": 0, "vsize": 223, "size": 223}