{"hash": "01cc6a682dad8ba2db2badfd5ced7b780ffeabf2f51d72478c5aeb4848e28faa", "blockhash": "0000000000000000000e13cef7c366c0283d82e591d1acd082e914b08063cdf1", "vout": [{"scriptPubKey": {"reqSigs": 1, "hex": "76a914129f89983777a3d774808d6b94a01fad166eb77788ac", "addresses": ["12hUHK4FdQiLzEtBokjW4o4yRA9PFrdc6N"], "asm": "OP_DUP OP_HASH160 129f89983777a3d774808d6b94a01fad166eb777 OP_EQUALVERIFY OP_CHECKSIG", "type": "pubkeyhash"}, "value": 0.00288085, "n": 0}, {"scriptPubKey": {"reqSigs": 1, "hex": "a9140ebaf0b65cf9f100836d74d47286c5a4e97df8f487", "addresses": ["332uL4tm5WYcSd6ZEEcWpYVGDowR8tFQwq"], "asm": "OP_HASH160 0ebaf0b65cf9f100836d74d47286c5a4e97df8f4 OP_EQUAL", "type": "scripthash"}, "value": 0.01035029, "n": 1}], "hex": "0200000000010151345352a828be165d09e9cc02d0a9e965c3977e608e38e168d4b86aad99440a010000001716001482bd3797760cfc8b5891afd42d5ede5dbe00c395feffffff0255650400000000001976a914129f89983777a3d774808d6b94a01fad166eb77788ac15cb0f000000000017a9140ebaf0b65cf9f100836d74d47286c5a4e97df8f4870247304402206584a9634c1430e01e2873c6988c236fe8c657b68c5e61bb68fa64596d9ae61802204fc40d95143aaf9ac321bf68ad3c4c02b9755027fd42e93296ca4ec2b6825d7e012102a043080044bde1c49b1d738720f5679d32d8603bf2a310e43338763094dd5f880f490800", "vin": [{"txinwitness": ["304402206584a9634c1430e01e2873c6988c236fe8c657b68c5e61bb68fa64596d9ae61802204fc40d95143aaf9ac321bf68ad3c4c02b9755027fd42e93296ca4ec2b6825d7e01", "02a043080044bde1c49b1d738720f5679d32d8603bf2a310e43338763094dd5f88"], "sequence": 4294967294, "scriptSig": {"hex": "16001482bd3797760cfc8b5891afd42d5ede5dbe00c395", "asm": "001482bd3797760cfc8b5891afd42d5ede5dbe00c395"}, "vout": 1, "txid": "0a4499ad6ab8d468e1388e607e97c365e9a9d002cce9095d16be28a852533451"}], "txid": "ad8daea1d1c9a451c1c7650be381c5b2b0de8a28eb9d9d86c3d77a9dfc54bc3d", "blocktime": 1537871767, "version": 2, "confirmations": 11495, "time": 1537871767, "locktime": 542991, "vsize": 168, "size": 249}