{"hash": "b581f4e04a7a830e2276831c57cf0e9c9476370a5cb274b79234ea73dadcb059", "blockhash": "0000000000000000000e13cef7c366c0283d82e591d1acd082e914b08063cdf1", "vout": [{"scriptPubKey": {"reqSigs": 1, "hex": "0014dd60d5771dc57e8d260cd016553558a4d3908373", "addresses": ["bc1qm4sd2acac4lg6fsv6qt92d2c5nfepqmn76prz0"], "asm": "0 dd60d5771dc57e8d260cd016553558a4d3908373", "type": "witness_v0_keyhash"}, "value": 0.00236587, "n": 0}, {"scriptPubKey": {"reqSigs": 1, "hex": "76a91423043a1828390feba5b14a925cf06ecb4207e91a88ac", "addresses": ["14C9iQa5xQixNi4VdoGkgKoYBCeFVSPLVo"], "asm": "OP_DUP OP_HASH160 23043a1828390feba5b14a925cf06ecb4207e91a OP_EQUALVERIFY OP_CHECKSIG", "type": "pubkeyhash"}, "value": 0.00732825, "n": 1}], "hex": "010000000001017f803f7e022f5381cb54a48f56fb174bb943e9639b68b1fe02838007b741ee9ec5030000171600148da6cf3f67959fd7c0f99670c189e48cac2e2428ffffffff022b9c030000000000160014dd60d5771dc57e8d260cd016553558a4d3908373992e0b00000000001976a91423043a1828390feba5b14a925cf06ecb4207e91a88ac024730440220320b77dbf20390f29a52c63b138496d88f87979380eef27d8fb48b0b72ae4cfa022059f0e621d7f6a68372c80e80e74c053776195ebc565b89dbcaf6d1945c2e454a01210241e2ca1123de796aa49cdd7959d44cf876ecd25579643bdafef7a47f7d6d544000000000", "vin": [{"txinwitness": ["30440220320b77dbf20390f29a52c63b138496d88f87979380eef27d8fb48b0b72ae4cfa022059f0e621d7f6a68372c80e80e74c053776195ebc565b89dbcaf6d1945c2e454a01", "0241e2ca1123de796aa49cdd7959d44cf876ecd25579643bdafef7a47f7d6d5440"], "sequence": 4294967295, "scriptSig": {"hex": "1600148da6cf3f67959fd7c0f99670c189e48cac2e2428", "asm": "00148da6cf3f67959fd7c0f99670c189e48cac2e2428"}, "vout": 965, "txid": "9eee41b707808302feb1689b63e943b94b17fb568fa454cb81532f027e3f807f"}], "txid": "ad95b17e7877667424b36796e12d25b3e0ea9e6bee93b89ae5ffc608b2fe8a55", "blocktime": 1537871767, "version": 1, "confirmations": 11495, "time": 1537871767, "locktime": 0, "vsize": 167, "size": 248}