{"hash": "028025bc2a49aaf87cd71e274dbea17028135fbb949d3a769dab3e879fa081fe", "blockhash": "0000000000000000001f76057863aec43deb6fa401d9628bb513d65a8098bfab", "vout": [{"scriptPubKey": {"reqSigs": 1, "hex": "76a914d27248bd153555e26e69dccbd8d241fad4f99d5e88ac", "addresses": ["1LBjotMBFY1sdX51qPeVwiq8pJ4NXj5bzu"], "asm": "OP_DUP OP_HASH160 d27248bd153555e26e69dccbd8d241fad4f99d5e OP_EQUALVERIFY OP_CHECKSIG", "type": "pubkeyhash"}, "value": 1.55620065, "n": 0}, {"scriptPubKey": {"reqSigs": 1, "hex": "a9144d1ac4db9c98bfdeccc85394a4b3fec43919449287", "addresses": ["38ii2FnckgdGGDpT6qV6ne5VhHVbbAy5jj"], "asm": "OP_HASH160 4d1ac4db9c98bfdeccc85394a4b3fec439194492 OP_EQUAL", "type": "scripthash"}, "value": 7.40035574, "n": 1}], "hex": "02000000000101cbca7abab485f9a052184c0c82320f3aef0726c557e09ba7c850f864a98a57a5010000001716001483a4bfec70e0c53f71ef92d9076b4811dc0919c6feffffff02e1924609000000001976a914d27248bd153555e26e69dccbd8d241fad4f99d5e88acf60b1c2c0000000017a9144d1ac4db9c98bfdeccc85394a4b3fec4391944928702473044022063529953637f38d494b134c3cc207ec2ff7d0af4d6d80583eddc3bc9f1ca7b0d02207f8e62e75c37331a6a34c66b0007e804cf4ea700fb50e4257b7d580f4bc191da0121033c72b176304d6252d2e02cc338b52dc2fb9df2ccca63278259fcd6498001ab8e13490800", "vin": [{"txinwitness": ["3044022063529953637f38d494b134c3cc207ec2ff7d0af4d6d80583eddc3bc9f1ca7b0d02207f8e62e75c37331a6a34c66b0007e804cf4ea700fb50e4257b7d580f4bc191da01", "033c72b176304d6252d2e02cc338b52dc2fb9df2ccca63278259fcd6498001ab8e"], "sequence": 4294967294, "scriptSig": {"hex": "16001483a4bfec70e0c53f71ef92d9076b4811dc0919c6", "asm": "001483a4bfec70e0c53f71ef92d9076b4811dc0919c6"}, "vout": 1, "txid": "a5578aa964f850c8a79be057c52607ef3a0f32820c4c1852a0f985b4ba7acacb"}], "txid": "ad9a629a76509c67d9cbdf81f57f6b2101f519a14c182ad243a075aa3215d99d", "blocktime": 1537873891, "version": 2, "confirmations": 11476, "time": 1537873891, "locktime": 542995, "vsize": 168, "size": 249}