{"hash": "ad9dff3b3e22fd44e01c7f41d54c62747c1c8c2bacb2e6af9ce73e5d16ca350d", "blockhash": "0000000000000000000dcc0f55137456b1a82d3642486a52398922ac4d620174", "vout": [{"scriptPubKey": {"reqSigs": 1, "hex": "76a914871befe3932e80dfdf0ba66d9b0c9eba01ab14df88ac", "addresses": ["1DKPgzuxUYqfnZbsSwWLQPGAMsy16hptw3"], "asm": "OP_DUP OP_HASH160 871befe3932e80dfdf0ba66d9b0c9eba01ab14df OP_EQUALVERIFY OP_CHECKSIG", "type": "pubkeyhash"}, "value": 0.00637515, "n": 0}, {"scriptPubKey": {"reqSigs": 1, "hex": "76a91400b0d6ea114caf5d5241688f3614450fbeca711188ac", "addresses": ["114er2RQk3S23e45xQyKEV5msDkXDFrmxM"], "asm": "OP_DUP OP_HASH160 00b0d6ea114caf5d5241688f3614450fbeca7111 OP_EQUALVERIFY OP_CHECKSIG", "type": "pubkeyhash"}, "value": 0.0065, "n": 1}], "hex": "01000000014abb1c4cb94da66eb52e400d824a446a10d63de5f72c520f088b524efa9251c2070000006b48304502210080de8488a687f042a11c2dee8dbebca0c5569d1c1bf2c305fe3a2ae77b73f72f02200d189f537612c02680f505760dec5f5a02bb6ebbee3aa3be8b247f8c6c03c50b0121037f3539bb6e7543a89a6cedbee2f2a2fc330519a186d5e96ceb30f5a5743550ddffffffff024bba0900000000001976a914871befe3932e80dfdf0ba66d9b0c9eba01ab14df88ac10eb0900000000001976a91400b0d6ea114caf5d5241688f3614450fbeca711188ac00000000", "vin": [{"sequence": 4294967295, "scriptSig": {"hex": "48304502210080de8488a687f042a11c2dee8dbebca0c5569d1c1bf2c305fe3a2ae77b73f72f02200d189f537612c02680f505760dec5f5a02bb6ebbee3aa3be8b247f8c6c03c50b0121037f3539bb6e7543a89a6cedbee2f2a2fc330519a186d5e96ceb30f5a5743550dd", "asm": "304502210080de8488a687f042a11c2dee8dbebca0c5569d1c1bf2c305fe3a2ae77b73f72f02200d189f537612c02680f505760dec5f5a02bb6ebbee3aa3be8b247f8c6c03c50b[ALL] 037f3539bb6e7543a89a6cedbee2f2a2fc330519a186d5e96ceb30f5a5743550dd"}, "vout": 7, "txid": "c25192fa4e528b080f522cf7e53dd6106a444a820d402eb56ea64db94c1cbb4a"}], "txid": "ad9dff3b3e22fd44e01c7f41d54c62747c1c8c2bacb2e6af9ce73e5d16ca350d", "blocktime": 1537870268, "version": 1, "confirmations": 11516, "time": 1537870268, "locktime": 0, "vsize": 226, "size": 226}