{"hash": "569b3397551d17906b555b8fe2731fe2faaf6ce75584e45c4307f9094870fed5", "blockhash": "00000000000000000004ffacab907a6b429b9a5745fa0b75af4234bf69dd7176", "vout": [{"scriptPubKey": {"reqSigs": 1, "hex": "76a9148f74406875d28c50a5f5368ad61358e7614f24a488ac", "addresses": ["1E5WtjaWz7jSRzqib21zUKDpipG5BN7Dyq"], "asm": "OP_DUP OP_HASH160 8f74406875d28c50a5f5368ad61358e7614f24a4 OP_EQUALVERIFY OP_CHECKSIG", "type": "pubkeyhash"}, "value": 0.022999, "n": 0}, {"scriptPubKey": {"reqSigs": 1, "hex": "a9144d293bcdc8b44f39bc0c92eb41ca5b5ef1480d4687", "addresses": ["38j1MGxv8M2EzE5QVWzavCTicpwByECqCv"], "asm": "OP_HASH160 4d293bcdc8b44f39bc0c92eb41ca5b5ef1480d46 OP_EQUAL", "type": "scripthash"}, "value": 8.74757698, "n": 1}], "hex": "0200000000010122759b3e4e945d09f266feb50142585e98656ca224913af85bee31526bcd6b0701000000171600143ff816c3a02e013cd7ea4b2c204674768da8a76dffffffff02fc172300000000001976a9148f74406875d28c50a5f5368ad61358e7614f24a488ac42be23340000000017a9144d293bcdc8b44f39bc0c92eb41ca5b5ef1480d468702483045022100f486d271d8818099f2df0f967e42948982619b75afe2b8b166a2cecd7ce72f78022068c936579ceb7ed6c029f72f37966d7e91866de7786dff5a2a782e7d2f717d3001210306f6e5c3dfeb94059c2c436c189768eff8f584c499fad5bb8e2f7ab65449bdeb00000000", "vin": [{"txinwitness": ["3045022100f486d271d8818099f2df0f967e42948982619b75afe2b8b166a2cecd7ce72f78022068c936579ceb7ed6c029f72f37966d7e91866de7786dff5a2a782e7d2f717d3001", "0306f6e5c3dfeb94059c2c436c189768eff8f584c499fad5bb8e2f7ab65449bdeb"], "sequence": 4294967295, "scriptSig": {"hex": "1600143ff816c3a02e013cd7ea4b2c204674768da8a76d", "asm": "00143ff816c3a02e013cd7ea4b2c204674768da8a76d"}, "vout": 1, "txid": "076bcd6b5231ee5bf83a9124a26c65985e584201b5fe66f2095d944e3e9b7522"}], "txid": "ad9ffb3de0919b57b70694e7184c879edd4015f14b24d6a50aa66ebee029f351", "blocktime": 1537875543, "version": 2, "confirmations": 11464, "time": 1537875543, "locktime": 0, "vsize": 168, "size": 250}