{"hash": "ada1ebc42ac889277a2f0f1cb0a978b1b639738c37bc9ab2b726468a0b1dda6b", "blockhash": "00000000000000000024a2167bbff67b0be802c0b01cdd79e6331c2be6459f87", "vout": [{"scriptPubKey": {"reqSigs": 1, "hex": "76a914ffc3b6442f47434cf0c531415b7e66a51731fc7488ac", "addresses": ["1QKMmDxSWyzN3YnrRpAgotobPaJLsAecrD"], "asm": "OP_DUP OP_HASH160 ffc3b6442f47434cf0c531415b7e66a51731fc74 OP_EQUALVERIFY OP_CHECKSIG", "type": "pubkeyhash"}, "value": 0.0148176, "n": 0}, {"scriptPubKey": {"type": "nulldata", "hex": "6a4c500000777b0001964f2c680e7d576e9683a0f5bcbefa6b8351586b4e86aeaeacb577c031fcdc9390c47f37d723e84212e59a02b5255baa09ec0614bb3b86f21dffbc9a9526289ac0f6612cd74e33776ee4", "asm": "OP_RETURN 0000777b0001964f2c680e7d576e9683a0f5bcbefa6b8351586b4e86aeaeacb577c031fcdc9390c47f37d723e84212e59a02b5255baa09ec0614bb3b86f21dffbc9a9526289ac0f6612cd74e33776ee4"}, "value": 0.0, "n": 1}], "hex": "010000000105a6d04c12ab0bdc57c1289d070db60fcd1e5c34f2d70b37f1fdd17a09b55af1000000006b483045022100800a37202bd30f9d6b980e373119bb7b0eebf488943f91de9d9c0691b7c75117022075275786c7dab569ceb416be8fc46c861341b6bfa86f411195000f5a8f9cf297012102ffcdf4b31f211fb83d1158bf4f1c68ee4b4fab0ff9edfac07d7b0470c43e9342ffffffff02209c1600000000001976a914ffc3b6442f47434cf0c531415b7e66a51731fc7488ac0000000000000000536a4c500000777b0001964f2c680e7d576e9683a0f5bcbefa6b8351586b4e86aeaeacb577c031fcdc9390c47f37d723e84212e59a02b5255baa09ec0614bb3b86f21dffbc9a9526289ac0f6612cd74e33776ee400000000", "vin": [{"sequence": 4294967295, "scriptSig": {"hex": "483045022100800a37202bd30f9d6b980e373119bb7b0eebf488943f91de9d9c0691b7c75117022075275786c7dab569ceb416be8fc46c861341b6bfa86f411195000f5a8f9cf297012102ffcdf4b31f211fb83d1158bf4f1c68ee4b4fab0ff9edfac07d7b0470c43e9342", "asm": "3045022100800a37202bd30f9d6b980e373119bb7b0eebf488943f91de9d9c0691b7c75117022075275786c7dab569ceb416be8fc46c861341b6bfa86f411195000f5a8f9cf297[ALL] 02ffcdf4b31f211fb83d1158bf4f1c68ee4b4fab0ff9edfac07d7b0470c43e9342"}, "vout": 0, "txid": "f15ab5097ad1fdf1370bd7f2345c1ecd0fb60d079d28c157dc0bab124cd0a605"}], "txid": "ada1ebc42ac889277a2f0f1cb0a978b1b639738c37bc9ab2b726468a0b1dda6b", "blocktime": 1537870564, "version": 1, "confirmations": 11515, "time": 1537870564, "locktime": 0, "vsize": 284, "size": 284}