{"hash": "ada2cdd9131ddd30fc27508932e1860a0bb47fe390acb0c2823127c2a9340ad0", "blockhash": "000000000000000000205f8b0775d31398ef75b89a5e8ec8d2c57b4dc0ac4c20", "vout": [{"scriptPubKey": {"reqSigs": 1, "hex": "a91405d0fbfdd6c6a50196c564e883da93261eab551887", "addresses": ["32DmezM6weMdmwJnbTVXyuudjYw9VEQ4UJ"], "asm": "OP_HASH160 05d0fbfdd6c6a50196c564e883da93261eab5518 OP_EQUAL", "type": "scripthash"}, "value": 0.6, "n": 0}, {"scriptPubKey": {"reqSigs": 1, "hex": "76a914d96b239f698fc9651ec0e07312a8e03da81038a688ac", "addresses": ["1LpbynasVAgmLZhFgp2Xv8XR4BdNmzb3K7"], "asm": "OP_DUP OP_HASH160 d96b239f698fc9651ec0e07312a8e03da81038a6 OP_EQUALVERIFY OP_CHECKSIG", "type": "pubkeyhash"}, "value": 5.45142364, "n": 1}], "hex": "0100000001ed50fdb09f53011bed98ec288333ae8aea1cf36b93b2655aea640782d18585d2090000006a473044022039494c5498c9a9ae43db114aaf5d24457b3920687016270673011f38593526ef02201d03e9c6b7996344e091937b55c7b46bc2c5c863c49671b31a94c65d84ae105601210370898b14f28c03b4699c503db1fc87c0ff324f9d5eba0f9e3de18160b279749fffffffff02008793030000000017a91405d0fbfdd6c6a50196c564e883da93261eab5518875c367e20000000001976a914d96b239f698fc9651ec0e07312a8e03da81038a688ac00000000", "vin": [{"sequence": 4294967295, "scriptSig": {"hex": "473044022039494c5498c9a9ae43db114aaf5d24457b3920687016270673011f38593526ef02201d03e9c6b7996344e091937b55c7b46bc2c5c863c49671b31a94c65d84ae105601210370898b14f28c03b4699c503db1fc87c0ff324f9d5eba0f9e3de18160b279749f", "asm": "3044022039494c5498c9a9ae43db114aaf5d24457b3920687016270673011f38593526ef02201d03e9c6b7996344e091937b55c7b46bc2c5c863c49671b31a94c65d84ae1056[ALL] 0370898b14f28c03b4699c503db1fc87c0ff324f9d5eba0f9e3de18160b279749f"}, "vout": 9, "txid": "d28585d1820764ea5a65b2936bf31cea8aae338328ec98ed1b01539fb0fd50ed"}], "txid": "ada2cdd9131ddd30fc27508932e1860a0bb47fe390acb0c2823127c2a9340ad0", "blocktime": 1537871175, "version": 1, "confirmations": 11511, "time": 1537871175, "locktime": 0, "vsize": 223, "size": 223}