{"hash": "015f038f2388fddccf8d0368fe0e78a52a23a5f3e7c816698d2ce53b39b7e2bb", "blockhash": "00000000000000000018f53835495a110e01622372bf6ae95dc86f2b0ab887b0", "vout": [{"scriptPubKey": {"reqSigs": 1, "hex": "a91432ec153d333931b0670e7c4b6a28690f1619144d87", "addresses": ["36LGXU47Up23z3zf7z44SA4oRgXzQJrQTH"], "asm": "OP_HASH160 32ec153d333931b0670e7c4b6a28690f1619144d OP_EQUAL", "type": "scripthash"}, "value": 0.0113545, "n": 0}, {"scriptPubKey": {"reqSigs": 1, "hex": "76a914eb3257daa592b3f5165eb06509ca4f9f3829e8ae88ac", "addresses": ["1NSc6zAdG2NGbjPLQwAjAuqjHSoq5KECT7"], "asm": "OP_DUP OP_HASH160 eb3257daa592b3f5165eb06509ca4f9f3829e8ae OP_EQUALVERIFY OP_CHECKSIG", "type": "pubkeyhash"}, "value": 1.99, "n": 1}], "hex": "020000000001022902185006a0fa1b558b132aa5a0f440b45e7cbca14c906d482eb9521e9e160600000000171600140a36daf7daace2f36ae065c8cb504ff23d5539f8feffffff4088fc035f54223a8680277347524880cde5365dc20a3e0470c7f5369c3bd8cc000000006b483045022100c7aa106f1fd69e3df88bfdfa65b4d80006f211eaf9e8e0476e5c9d2c60bb3216022004f677611fda2d6da1f74476136e22c7fb06d64359a0065c0c47b4c5e983c7360121030ccb5a35c5245927d49f69570cb664d5e5fea11f255ef4ca15eb10a585fbeebffeffffff025a5311000000000017a91432ec153d333931b0670e7c4b6a28690f1619144d87c07fdc0b000000001976a914eb3257daa592b3f5165eb06509ca4f9f3829e8ae88ac02483045022100e028e9256aa730901715d7f5d3ebfabdd95c1536eba0baf51e22d0f8c1d9e75202203cb6ce98e879ab84006e78bd38deeeeb12774f60eab5355c98a6b4f44d038395012102edf2cc9c98b755d3062bcd69b5ee586ce4461b75e98bada59ef9d5a482ba3922000d490800", "vin": [{"txinwitness": ["3045022100e028e9256aa730901715d7f5d3ebfabdd95c1536eba0baf51e22d0f8c1d9e75202203cb6ce98e879ab84006e78bd38deeeeb12774f60eab5355c98a6b4f44d03839501", "02edf2cc9c98b755d3062bcd69b5ee586ce4461b75e98bada59ef9d5a482ba3922"], "sequence": 4294967294, "scriptSig": {"hex": "1600140a36daf7daace2f36ae065c8cb504ff23d5539f8", "asm": "00140a36daf7daace2f36ae065c8cb504ff23d5539f8"}, "vout": 0, "txid": "06169e1e52b92e486d904ca1bc7c5eb440f4a0a52a138b551bfaa00650180229"}, {"sequence": 4294967294, "scriptSig": {"hex": "483045022100c7aa106f1fd69e3df88bfdfa65b4d80006f211eaf9e8e0476e5c9d2c60bb3216022004f677611fda2d6da1f74476136e22c7fb06d64359a0065c0c47b4c5e983c7360121030ccb5a35c5245927d49f69570cb664d5e5fea11f255ef4ca15eb10a585fbeebf", "asm": "3045022100c7aa106f1fd69e3df88bfdfa65b4d80006f211eaf9e8e0476e5c9d2c60bb3216022004f677611fda2d6da1f74476136e22c7fb06d64359a0065c0c47b4c5e983c736[ALL] 030ccb5a35c5245927d49f69570cb664d5e5fea11f255ef4ca15eb10a585fbeebf"}, "vout": 0, "txid": "ccd83b9c36f5c770043e0ac25d36e5cd80485247732780863a22545f03fc8840"}], "txid": "ada56ce51fb31b81b2c234801d01bc9598c276bb02ac17f030832894900d12ff", "blocktime": 1537870928, "version": 2, "confirmations": 11512, "time": 1537870928, "locktime": 542989, "vsize": 316, "size": 399}