{"hash": "ada7ca331eb34bd228372b3cd33b521fa6d3e8bd478abb9a749b4a5ef6ce224f", "blockhash": "00000000000000000018f53835495a110e01622372bf6ae95dc86f2b0ab887b0", "vout": [{"scriptPubKey": {"reqSigs": 1, "hex": "76a914fa98112e203668435f27432643cf1bf05a3508e288ac", "addresses": ["1Pr26mQdKUDP9jQZqcMLu9RfYAjNfTFE5X"], "asm": "OP_DUP OP_HASH160 fa98112e203668435f27432643cf1bf05a3508e2 OP_EQUALVERIFY OP_CHECKSIG", "type": "pubkeyhash"}, "value": 0.0159429, "n": 0}], "hex": "01000000015f3b9835a28905dd7610d1855358575d9c438106bee5bf19f0036f27bcb9e40e010000006a47304402201a2e78ccf57eff5369405959be8cdd257818fd2975a39a051f6ed7368ef4979b022036e3afd4d6bf42135205b2e2f3591d1c153d26c8a39d6b4dd08a818651261c4b0121020eb7aa551c858b46df12700625376565cf5ccd1735b5fd545af35843b276233afeffffff01b2531800000000001976a914fa98112e203668435f27432643cf1bf05a3508e288ac0e490800", "vin": [{"sequence": 4294967294, "scriptSig": {"hex": "47304402201a2e78ccf57eff5369405959be8cdd257818fd2975a39a051f6ed7368ef4979b022036e3afd4d6bf42135205b2e2f3591d1c153d26c8a39d6b4dd08a818651261c4b0121020eb7aa551c858b46df12700625376565cf5ccd1735b5fd545af35843b276233a", "asm": "304402201a2e78ccf57eff5369405959be8cdd257818fd2975a39a051f6ed7368ef4979b022036e3afd4d6bf42135205b2e2f3591d1c153d26c8a39d6b4dd08a818651261c4b[ALL] 020eb7aa551c858b46df12700625376565cf5ccd1735b5fd545af35843b276233a"}, "vout": 1, "txid": "0ee4b9bc276f03f019bfe5be0681439c5d57585385d11076dd0589a235983b5f"}], "txid": "ada7ca331eb34bd228372b3cd33b521fa6d3e8bd478abb9a749b4a5ef6ce224f", "blocktime": 1537870928, "version": 1, "confirmations": 11512, "time": 1537870928, "locktime": 542990, "vsize": 191, "size": 191}