{"hash": "ada8ecc5c454739aa57c9dbc90a0675dce0041700fac2c89061e93e259041ac1", "blockhash": "00000000000000000017f5eb5941039fbcee6240d03bc1f2f8e35350df66a1d8", "vout": [{"scriptPubKey": {"reqSigs": 1, "hex": "a914ed70a72a8f4c9ba957358fd4a8f18e822d6092dd87", "addresses": ["3PLV2GtWY216rrd6ZzwDgrPBLnKG74uCuQ"], "asm": "OP_HASH160 ed70a72a8f4c9ba957358fd4a8f18e822d6092dd OP_EQUAL", "type": "scripthash"}, "value": 0.023, "n": 0}, {"scriptPubKey": {"reqSigs": 1, "hex": "76a914b14d19c98b3d4a39486f9aa5ba1db6935700580d88ac", "addresses": ["1HAUy1PdtnMWWqyjXnDHZE6TUaSGh5VpVP"], "asm": "OP_DUP OP_HASH160 b14d19c98b3d4a39486f9aa5ba1db6935700580d OP_EQUALVERIFY OP_CHECKSIG", "type": "pubkeyhash"}, "value": 0.05699322, "n": 1}], "hex": "0100000001002e45db0fbbe381ed2e3be162217726e2d8e7cac7fa49886ee5c30b124e3da0000000006b483045022100e9367ed5294b3a725d5c91057bae8589113aa1b16737cf8a2d032d32d56c50b102200450171110e646635f92e0e116b1d53ee0f7c7d53b6b5c9854a0b916ee32190b012102437a1fd48e4511d8404bd809c4d189646d11b6bb64bc7d1f8ea07be3b1fb0dbeffffffff02601823000000000017a914ed70a72a8f4c9ba957358fd4a8f18e822d6092dd87faf65600000000001976a914b14d19c98b3d4a39486f9aa5ba1db6935700580d88ac00000000", "vin": [{"sequence": 4294967295, "scriptSig": {"hex": "483045022100e9367ed5294b3a725d5c91057bae8589113aa1b16737cf8a2d032d32d56c50b102200450171110e646635f92e0e116b1d53ee0f7c7d53b6b5c9854a0b916ee32190b012102437a1fd48e4511d8404bd809c4d189646d11b6bb64bc7d1f8ea07be3b1fb0dbe", "asm": "3045022100e9367ed5294b3a725d5c91057bae8589113aa1b16737cf8a2d032d32d56c50b102200450171110e646635f92e0e116b1d53ee0f7c7d53b6b5c9854a0b916ee32190b[ALL] 02437a1fd48e4511d8404bd809c4d189646d11b6bb64bc7d1f8ea07be3b1fb0dbe"}, "vout": 0, "txid": "a03d4e120bc3e56e8849fac7cae7d8e226772162e13b2eed81e3bb0fdb452e00"}], "txid": "ada8ecc5c454739aa57c9dbc90a0675dce0041700fac2c89061e93e259041ac1", "blocktime": 1537874412, "version": 1, "confirmations": 11467, "time": 1537874412, "locktime": 0, "vsize": 224, "size": 224}