{"hash": "adb047085beb418e71e9b9b8cc674a7a84582435c2fc549c2d3500605cff987d", "blockhash": "000000000000000000022b45ed06c6f4ccd3cf7fb5ba4856ebd2e58215665228", "vout": [{"scriptPubKey": {"reqSigs": 1, "hex": "76a914507ad7c59bc4ea4370af24a8a7a3bb055b5734a088ac", "addresses": ["18LYDcqevUisgGNKwHGmTgQLb7QWpozKYE"], "asm": "OP_DUP OP_HASH160 507ad7c59bc4ea4370af24a8a7a3bb055b5734a0 OP_EQUALVERIFY OP_CHECKSIG", "type": "pubkeyhash"}, "value": 0.00023232, "n": 0}, {"scriptPubKey": {"reqSigs": 1, "hex": "a914511f299f96f3021216b05e148a66bd5aac65b9c187", "addresses": ["395wzJAn6wGqxC2xohFj6UxnxjJrM7jeCM"], "asm": "OP_HASH160 511f299f96f3021216b05e148a66bd5aac65b9c1 OP_EQUAL", "type": "scripthash"}, "value": 0.1014, "n": 1}], "hex": "010000000111d59f8288a4ff9cab38e1876465f2e4a3610deb3657e3f9a2b3257eaed13d64010000006a4730440220316cd1bdc52daa1ec33f19a6f7d9b25dd5b8cea7570fc7e27d262cd3e57fda6902200c15ecd21d8b1fa0aea63c7ca20368fb624905d651733f97466412c4f73b51e90121024bf93c133cae6cdd4f1cd1cfb325914f5a3a489eb9216cbb78188b8bf577f4d8ffffffff02c05a0000000000001976a914507ad7c59bc4ea4370af24a8a7a3bb055b5734a088ac60b99a000000000017a914511f299f96f3021216b05e148a66bd5aac65b9c18700000000", "vin": [{"sequence": 4294967295, "scriptSig": {"hex": "4730440220316cd1bdc52daa1ec33f19a6f7d9b25dd5b8cea7570fc7e27d262cd3e57fda6902200c15ecd21d8b1fa0aea63c7ca20368fb624905d651733f97466412c4f73b51e90121024bf93c133cae6cdd4f1cd1cfb325914f5a3a489eb9216cbb78188b8bf577f4d8", "asm": "30440220316cd1bdc52daa1ec33f19a6f7d9b25dd5b8cea7570fc7e27d262cd3e57fda6902200c15ecd21d8b1fa0aea63c7ca20368fb624905d651733f97466412c4f73b51e9[ALL] 024bf93c133cae6cdd4f1cd1cfb325914f5a3a489eb9216cbb78188b8bf577f4d8"}, "vout": 1, "txid": "643dd1ae7e25b3a2f9e35736eb0d61a3e4f2656487e138ab9cffa488829fd511"}], "txid": "adb047085beb418e71e9b9b8cc674a7a84582435c2fc549c2d3500605cff987d", "blocktime": 1537869901, "version": 1, "confirmations": 11522, "time": 1537869901, "locktime": 0, "vsize": 223, "size": 223}