{"hash": "d398a5f45673c24b9ebab19299ebf4f30e5a426bb90a205694e7127949d5efa8", "blockhash": "0000000000000000001cda96e906b7601b7a6fb1a3b62bca570a9e5d8f4b3de1", "vout": [{"scriptPubKey": {"reqSigs": 1, "hex": "a914df4c4a5590aa8d6bfe2857181d381263627b84cf87", "addresses": ["3N3i14zXnV6ZnWxuQ4XcFWdaRkLa2KX54Q"], "asm": "OP_HASH160 df4c4a5590aa8d6bfe2857181d381263627b84cf OP_EQUAL", "type": "scripthash"}, "value": 0.00472497, "n": 0}, {"scriptPubKey": {"reqSigs": 1, "hex": "a91428fa9c2d68acf2067c89d13f1354e22e81efddc387", "addresses": ["35RhAuifEaWLF7UaJ781Egge5DTjmEKKFw"], "asm": "OP_HASH160 28fa9c2d68acf2067c89d13f1354e22e81efddc3 OP_EQUAL", "type": "scripthash"}, "value": 0.0102692, "n": 1}], "hex": "02000000000101d1b2600a17491f080f355b1fb8b51e5ad4106def4a8cb80e37679faa70a204702100000017160014da64394c8fab9e520d79fdf2a08e72cbfdb55017feffffff02b13507000000000017a914df4c4a5590aa8d6bfe2857181d381263627b84cf8768ab0f000000000017a91428fa9c2d68acf2067c89d13f1354e22e81efddc38702483045022100cb9e1c85844a54f6ca4fbce2ac72c6fb3d332be483493b1a1c5276cd2e9da63d022071db8a142bb9a65e4787696763a23e7e2ed73e8fa50cf8db1f385eecd0b9b0780121023ecb3a5c454f5d81e67a87899685668f85cd7bbb67c6a71af1411c3f4117edf913490800", "vin": [{"txinwitness": ["3045022100cb9e1c85844a54f6ca4fbce2ac72c6fb3d332be483493b1a1c5276cd2e9da63d022071db8a142bb9a65e4787696763a23e7e2ed73e8fa50cf8db1f385eecd0b9b07801", "023ecb3a5c454f5d81e67a87899685668f85cd7bbb67c6a71af1411c3f4117edf9"], "sequence": 4294967294, "scriptSig": {"hex": "160014da64394c8fab9e520d79fdf2a08e72cbfdb55017", "asm": "0014da64394c8fab9e520d79fdf2a08e72cbfdb55017"}, "vout": 33, "txid": "7004a270aa9f67370eb88c4aef6d10d45a1eb5b81f5b350f081f49170a60b2d1"}], "txid": "adb57a4ef296778a31cad354027e85586fbe10df5798d05eda955f73181546c8", "blocktime": 1537873282, "version": 2, "confirmations": 11484, "time": 1537873282, "locktime": 542995, "vsize": 166, "size": 248}