{"hash": "adb729f5a67b84d323725552522b4c0ee46ea32c8e432a6ca7ac994580d0944b", "blockhash": "0000000000000000000baef3f32e3676a92c3b2e5da21b426e4f302fc371ce76", "vout": [{"scriptPubKey": {"reqSigs": 1, "hex": "a91433629e6e3c80b9634c130087b432a8d5c3c8e80e87", "addresses": ["36NiXVA8b2D7QoQ8L3kXnKPoianYe6eiES"], "asm": "OP_HASH160 33629e6e3c80b9634c130087b432a8d5c3c8e80e OP_EQUAL", "type": "scripthash"}, "value": 0.15895695, "n": 0}, {"scriptPubKey": {"reqSigs": 1, "hex": "a914e80f7e2fd9039a54c3fd82a4e2ef2d03ad841c5587", "addresses": ["3Nr3FWqNtpwH7PfEEdg7UmDnrvDKhUihkn"], "asm": "OP_HASH160 e80f7e2fd9039a54c3fd82a4e2ef2d03ad841c55 OP_EQUAL", "type": "scripthash"}, "value": 0.10420581, "n": 1}], "hex": "0100000001116d8e0e5e76deef93eff97356da26481c0319b6153751e8fb63b9eeadfc434730000000fdfd0000483045022100de050b2fe202c49824baf27917791f5f3d152d7ce30de735dd762523701195dc02202b391e855327b05e9d5e1718bb8a9c4f5e71a5c820c52a2d4d1cefdbc32b42e70147304402207329ad86b35468f9c44119cf03bb3dba2adb6812ecfa94a28bb1ed41999fb5c6022031e98ba88112ad2fafb83869cd736e4274312184528815e0a0146e1f632afd03014c69522102fb00f1760b9fc871d13db2b19c5ac65c5d1adf560ded13372c201c85b6afb98321033d77f220006acbd777104ba52aea5ef65574f3dbcd46662149c835d18a1ef6272102b3c22675d08be7fdd883661fdb1ffd0527b37b48f6988790db9f66b30ef4370653aeffffffff028f8cf2000000000017a91433629e6e3c80b9634c130087b432a8d5c3c8e80e8765019f000000000017a914e80f7e2fd9039a54c3fd82a4e2ef2d03ad841c558700000000", "vin": [{"sequence": 4294967295, "scriptSig": {"hex": "00483045022100de050b2fe202c49824baf27917791f5f3d152d7ce30de735dd762523701195dc02202b391e855327b05e9d5e1718bb8a9c4f5e71a5c820c52a2d4d1cefdbc32b42e70147304402207329ad86b35468f9c44119cf03bb3dba2adb6812ecfa94a28bb1ed41999fb5c6022031e98ba88112ad2fafb83869cd736e4274312184528815e0a0146e1f632afd03014c69522102fb00f1760b9fc871d13db2b19c5ac65c5d1adf560ded13372c201c85b6afb98321033d77f220006acbd777104ba52aea5ef65574f3dbcd46662149c835d18a1ef6272102b3c22675d08be7fdd883661fdb1ffd0527b37b48f6988790db9f66b30ef4370653ae", "asm": "0 3045022100de050b2fe202c49824baf27917791f5f3d152d7ce30de735dd762523701195dc02202b391e855327b05e9d5e1718bb8a9c4f5e71a5c820c52a2d4d1cefdbc32b42e7[ALL] 304402207329ad86b35468f9c44119cf03bb3dba2adb6812ecfa94a28bb1ed41999fb5c6022031e98ba88112ad2fafb83869cd736e4274312184528815e0a0146e1f632afd03[ALL] 522102fb00f1760b9fc871d13db2b19c5ac65c5d1adf560ded13372c201c85b6afb98321033d77f220006acbd777104ba52aea5ef65574f3dbcd46662149c835d18a1ef6272102b3c22675d08be7fdd883661fdb1ffd0527b37b48f6988790db9f66b30ef4370653ae"}, "vout": 48, "txid": "4743fcadeeb963fbe8513715b619031c4826da5673f9ef93efde765e0e8e6d11"}], "txid": "adb729f5a67b84d323725552522b4c0ee46ea32c8e432a6ca7ac994580d0944b", "blocktime": 1537876114, "version": 1, "confirmations": 11459, "time": 1537876114, "locktime": 0, "vsize": 370, "size": 370}