{"hash": "adb8edf102027af44bf2accc342df06dd04e235c1346c03fc81aed1bf97f3f21", "blockhash": "0000000000000000000dcc0f55137456b1a82d3642486a52398922ac4d620174", "vout": [{"scriptPubKey": {"reqSigs": 1, "hex": "76a91440c214937cc19f3da997632c628c288636390c6c88ac", "addresses": ["16uQkDeVc2xo8hmmvNN2UX1YCtnSVH2BiH"], "asm": "OP_DUP OP_HASH160 40c214937cc19f3da997632c628c288636390c6c OP_EQUALVERIFY OP_CHECKSIG", "type": "pubkeyhash"}, "value": 0.06230747, "n": 0}], "hex": "01000000010b527819eaffecc77f1f04657e1c8a3473b300db69d3a1670c383889b2db3b92010000006b483045022100f89ba2fb764d95df9099cd255543bd3ff38ff6316852e5cf84d4b1ff93b3850e022034db174fe5d365b1a55ea4f54a09641f38a0045326d48b96400e4bfee06287410121031db7ead3eb36eeb6ef8b5b6d6c6b62876a6c1be916ccc5bb2cd299bca3657458ffffffff01db125f00000000001976a91440c214937cc19f3da997632c628c288636390c6c88ac00000000", "vin": [{"sequence": 4294967295, "scriptSig": {"hex": "483045022100f89ba2fb764d95df9099cd255543bd3ff38ff6316852e5cf84d4b1ff93b3850e022034db174fe5d365b1a55ea4f54a09641f38a0045326d48b96400e4bfee06287410121031db7ead3eb36eeb6ef8b5b6d6c6b62876a6c1be916ccc5bb2cd299bca3657458", "asm": "3045022100f89ba2fb764d95df9099cd255543bd3ff38ff6316852e5cf84d4b1ff93b3850e022034db174fe5d365b1a55ea4f54a09641f38a0045326d48b96400e4bfee0628741[ALL] 031db7ead3eb36eeb6ef8b5b6d6c6b62876a6c1be916ccc5bb2cd299bca3657458"}, "vout": 1, "txid": "923bdbb28938380c67a1d369db00b373348a1c7e65041f7fc7ecffea1978520b"}], "txid": "adb8edf102027af44bf2accc342df06dd04e235c1346c03fc81aed1bf97f3f21", "blocktime": 1537870268, "version": 1, "confirmations": 11516, "time": 1537870268, "locktime": 0, "vsize": 192, "size": 192}