{"hash": "adba77401e8319705975ca6687e0cbbda590283ad767f44356e2421c5cda9ff7", "blockhash": "000000000000000000022b45ed06c6f4ccd3cf7fb5ba4856ebd2e58215665228", "vout": [{"scriptPubKey": {"reqSigs": 1, "hex": "76a914dc47803b2ddfda3c95d6320b211941108905b3d188ac", "addresses": ["1M5jKB1P9kNgeYc4tGz8Le8Lkhb24dW1jk"], "asm": "OP_DUP OP_HASH160 dc47803b2ddfda3c95d6320b211941108905b3d1 OP_EQUALVERIFY OP_CHECKSIG", "type": "pubkeyhash"}, "value": 0.08140196, "n": 0}, {"scriptPubKey": {"reqSigs": 1, "hex": "76a914e53b9b284cc26d482343880fd237e266b907174888ac", "addresses": ["1Mu59S5pBrMzDZPz9bHXdhy84Seri2mGRq"], "asm": "OP_DUP OP_HASH160 e53b9b284cc26d482343880fd237e266b9071748 OP_EQUALVERIFY OP_CHECKSIG", "type": "pubkeyhash"}, "value": 0.01546389, "n": 1}], "hex": "020000000121458cf98569b7ec82050f7775f16d9de3f64577d8094194ff3be7a164fa7da6000000006b483045022100da94da25e8f487e8638a2a7ee220c5573990d3c45242ef025091127b9d9610bc02205aa39643e1f36c7478d3b0dad0ce3f256c167ec2d10fe912bc547b35924ba1ca012103a811d64013a3c86ba411187e53ae695ddf9339fae1003ae5559f040128c50551feffffff02a4357c00000000001976a914dc47803b2ddfda3c95d6320b211941108905b3d188ac95981700000000001976a914e53b9b284cc26d482343880fd237e266b907174888ac0b490800", "vin": [{"sequence": 4294967294, "scriptSig": {"hex": "483045022100da94da25e8f487e8638a2a7ee220c5573990d3c45242ef025091127b9d9610bc02205aa39643e1f36c7478d3b0dad0ce3f256c167ec2d10fe912bc547b35924ba1ca012103a811d64013a3c86ba411187e53ae695ddf9339fae1003ae5559f040128c50551", "asm": "3045022100da94da25e8f487e8638a2a7ee220c5573990d3c45242ef025091127b9d9610bc02205aa39643e1f36c7478d3b0dad0ce3f256c167ec2d10fe912bc547b35924ba1ca[ALL] 03a811d64013a3c86ba411187e53ae695ddf9339fae1003ae5559f040128c50551"}, "vout": 0, "txid": "a67dfa64a1e73bff944109d87745f6e39d6df175770f0582ecb76985f98c4521"}], "txid": "adba77401e8319705975ca6687e0cbbda590283ad767f44356e2421c5cda9ff7", "blocktime": 1537869901, "version": 2, "confirmations": 11522, "time": 1537869901, "locktime": 542987, "vsize": 226, "size": 226}