{"hash": "adc0f8b627955ecbd64e8c7b0fe079fa927197bd5250e879d82e6f15ae9d3a51", "blockhash": "0000000000000000001cda96e906b7601b7a6fb1a3b62bca570a9e5d8f4b3de1", "vout": [{"scriptPubKey": {"reqSigs": 1, "hex": "76a9149ee7ed092f684d6f3382a31f662858c4ada6b58288ac", "addresses": ["1FVDbog7nqjdfb39SZpw8u6ZRoEMy6RUGa"], "asm": "OP_DUP OP_HASH160 9ee7ed092f684d6f3382a31f662858c4ada6b582 OP_EQUALVERIFY OP_CHECKSIG", "type": "pubkeyhash"}, "value": 0.0029062, "n": 0}, {"scriptPubKey": {"reqSigs": 1, "hex": "76a9149779ac54d5e4f30c8580a5af65829b90e70cb52888ac", "addresses": ["1Eovny42jaDLWCg4TX6Feje1ATS5MbcR94"], "asm": "OP_DUP OP_HASH160 9779ac54d5e4f30c8580a5af65829b90e70cb528 OP_EQUALVERIFY OP_CHECKSIG", "type": "pubkeyhash"}, "value": 0.075, "n": 1}], "hex": "01000000033d348eb3ad9c9b78ca95d39181751ad683d69f2bd6277543df5c405f3657dc10010000006a47304402207ce3b8e003c75b85121ee45cd2307cdc2e61373199c2400bfa56aa0c37a63328022067c8ddb1e5b67a742507be204e41bb3b99f5861317860e7f311639f0df4a201f0121035bb6bd33cbb57926beef9591454ec48798228b0ff8d12e6ece1704ed7c3937e9ffffffff12f7ce30474a95171b8619bbbff895f5e9e642765bf2dac0640bd11db04fa559010000006b4830450221008e92a81871b90f7ca2c2629ce0dd8d850cda5ea9a18a9d6cb1ee680d2639ca1f02204a5bb1f08034157afc6ffab4dcad1510a93ccdc2606a91427217337adab37abf0121035bb6bd33cbb57926beef9591454ec48798228b0ff8d12e6ece1704ed7c3937e9ffffffff28dfdac25013eba0d1644ce0ddf86ef2d6a5ed4390146aa6c6949a24c1f0215f010000006b483045022100dde2d70bb58ac154197c5d6099bbe553129be629acec3ed1f6594e771b5200c502200f9f4253ae777780cdd306851ae3e80909e22c0fba05110deb14ea535cc774d30121035bb6bd33cbb57926beef9591454ec48798228b0ff8d12e6ece1704ed7c3937e9ffffffff023c6f0400000000001976a9149ee7ed092f684d6f3382a31f662858c4ada6b58288ace0707200000000001976a9149779ac54d5e4f30c8580a5af65829b90e70cb52888ac00000000", "vin": [{"sequence": 4294967295, "scriptSig": {"hex": "47304402207ce3b8e003c75b85121ee45cd2307cdc2e61373199c2400bfa56aa0c37a63328022067c8ddb1e5b67a742507be204e41bb3b99f5861317860e7f311639f0df4a201f0121035bb6bd33cbb57926beef9591454ec48798228b0ff8d12e6ece1704ed7c3937e9", "asm": "304402207ce3b8e003c75b85121ee45cd2307cdc2e61373199c2400bfa56aa0c37a63328022067c8ddb1e5b67a742507be204e41bb3b99f5861317860e7f311639f0df4a201f[ALL] 035bb6bd33cbb57926beef9591454ec48798228b0ff8d12e6ece1704ed7c3937e9"}, "vout": 1, "txid": "10dc57365f405cdf437527d62b9fd683d61a758191d395ca789b9cadb38e343d"}, {"sequence": 4294967295, "scriptSig": {"hex": "4830450221008e92a81871b90f7ca2c2629ce0dd8d850cda5ea9a18a9d6cb1ee680d2639ca1f02204a5bb1f08034157afc6ffab4dcad1510a93ccdc2606a91427217337adab37abf0121035bb6bd33cbb57926beef9591454ec48798228b0ff8d12e6ece1704ed7c3937e9", "asm": "30450221008e92a81871b90f7ca2c2629ce0dd8d850cda5ea9a18a9d6cb1ee680d2639ca1f02204a5bb1f08034157afc6ffab4dcad1510a93ccdc2606a91427217337adab37abf[ALL] 035bb6bd33cbb57926beef9591454ec48798228b0ff8d12e6ece1704ed7c3937e9"}, "vout": 1, "txid": "59a54fb01dd10b64c0daf25b7642e6e9f595f8bfbb19861b17954a4730cef712"}, {"sequence": 4294967295, "scriptSig": {"hex": "483045022100dde2d70bb58ac154197c5d6099bbe553129be629acec3ed1f6594e771b5200c502200f9f4253ae777780cdd306851ae3e80909e22c0fba05110deb14ea535cc774d30121035bb6bd33cbb57926beef9591454ec48798228b0ff8d12e6ece1704ed7c3937e9", "asm": "3045022100dde2d70bb58ac154197c5d6099bbe553129be629acec3ed1f6594e771b5200c502200f9f4253ae777780cdd306851ae3e80909e22c0fba05110deb14ea535cc774d3[ALL] 035bb6bd33cbb57926beef9591454ec48798228b0ff8d12e6ece1704ed7c3937e9"}, "vout": 1, "txid": "5f21f0c1249a94c6a66a149043eda5d6f26ef8dde04c64d1a0eb1350c2dadf28"}], "txid": "adc0f8b627955ecbd64e8c7b0fe079fa927197bd5250e879d82e6f15ae9d3a51", "blocktime": 1537873282, "version": 1, "confirmations": 11484, "time": 1537873282, "locktime": 0, "vsize": 521, "size": 521}