{"hash": "adc04782480dba784b88096eed3fec09ca27d2165f7df3e1b07ee84b1571fe0b", "blockhash": "0000000000000000000e13cef7c366c0283d82e591d1acd082e914b08063cdf1", "vout": [{"scriptPubKey": {"reqSigs": 1, "hex": "76a91466d6e6ee7c8094e9c71e3a290f92f53ebb09d7bd88ac", "addresses": ["1ANmNE347zvK17ERjM14caWWhVkmCaAXyR"], "asm": "OP_DUP OP_HASH160 66d6e6ee7c8094e9c71e3a290f92f53ebb09d7bd OP_EQUALVERIFY OP_CHECKSIG", "type": "pubkeyhash"}, "value": 0.24713616, "n": 0}, {"scriptPubKey": {"reqSigs": 1, "hex": "76a91460a73d3b8169e7837381d60e481525cb53885fa488ac", "addresses": ["19p4DQ6t8h37oiLZfRrPWFd3QvWn1bopWE"], "asm": "OP_DUP OP_HASH160 60a73d3b8169e7837381d60e481525cb53885fa4 OP_EQUALVERIFY OP_CHECKSIG", "type": "pubkeyhash"}, "value": 0.172, "n": 1}], "hex": "0100000001797287761bcc2f121e4b25cf3edcd3b80d197653d1d820cef752660389f35fc6010000006b483045022100ad3c7bddc8d44e8237a68ec386d0b50d42f4b6b8d5b5f24dfc1fb39897739830022024341cb747d13c9782a163eec26439f2ddeb5d8cdbe1b7617d2fa615c1089571012102d94f77409f79f77a2d99a114dffbbbe0cb7571b5833246483753c0211e33a9a0ffffffff0290197901000000001976a91466d6e6ee7c8094e9c71e3a290f92f53ebb09d7bd88ac80730601000000001976a91460a73d3b8169e7837381d60e481525cb53885fa488ac00000000", "vin": [{"sequence": 4294967295, "scriptSig": {"hex": "483045022100ad3c7bddc8d44e8237a68ec386d0b50d42f4b6b8d5b5f24dfc1fb39897739830022024341cb747d13c9782a163eec26439f2ddeb5d8cdbe1b7617d2fa615c1089571012102d94f77409f79f77a2d99a114dffbbbe0cb7571b5833246483753c0211e33a9a0", "asm": "3045022100ad3c7bddc8d44e8237a68ec386d0b50d42f4b6b8d5b5f24dfc1fb39897739830022024341cb747d13c9782a163eec26439f2ddeb5d8cdbe1b7617d2fa615c1089571[ALL] 02d94f77409f79f77a2d99a114dffbbbe0cb7571b5833246483753c0211e33a9a0"}, "vout": 1, "txid": "c65ff389036652f7ce20d8d15376190db8d3dc3ecf254b1e122fcc1b76877279"}], "txid": "adc04782480dba784b88096eed3fec09ca27d2165f7df3e1b07ee84b1571fe0b", "blocktime": 1537871767, "version": 1, "confirmations": 11495, "time": 1537871767, "locktime": 0, "vsize": 226, "size": 226}