{"hash": "adc477cc97d66a1522d61c74b620e88acda6098624e8d5ca71b9f2ffca33e45e", "blockhash": "0000000000000000000e13cef7c366c0283d82e591d1acd082e914b08063cdf1", "vout": [{"scriptPubKey": {"reqSigs": 1, "hex": "76a9140ce0c32c60dfc4bc9672f581c569db41568da84388ac", "addresses": ["12B6N4tS5fSXdwZEVdqED95J7NtfZNe5Km"], "asm": "OP_DUP OP_HASH160 0ce0c32c60dfc4bc9672f581c569db41568da843 OP_EQUALVERIFY OP_CHECKSIG", "type": "pubkeyhash"}, "value": 2e-05, "n": 0}, {"scriptPubKey": {"type": "nulldata", "hex": "6a146f6d6e69000000000000001f00000018956a8080", "asm": "OP_RETURN 6f6d6e69000000000000001f00000018956a8080"}, "value": 0.0, "n": 1}, {"scriptPubKey": {"reqSigs": 1, "hex": "76a91456db2f63cf7c354311911b935d3b90b821f7511488ac", "addresses": ["18vFgkHbkWkar74Sn7Eyoyw6TBTPrv7rCG"], "asm": "OP_DUP OP_HASH160 56db2f63cf7c354311911b935d3b90b821f75114 OP_EQUALVERIFY OP_CHECKSIG", "type": "pubkeyhash"}, "value": 5.46e-06, "n": 2}], "hex": "01000000040b1b922118155718ce34e1b43b3db1e88d17710541b7177dab72f00955b76266000000006a47304402200771b665c51e3c3f533aa7b984d7c327de34eb4cd973d481e0dd492a5bf01f9202206adacbb3e3f07ed9660062096dcdcd865b896d0a294329e4fc433e10cb2d98a801210223308378bcfcc76022cfb97b1fa31abd5dd4764648808d5cd09950eb189e243effffffff8a1284b939ea6f11fe3d494eb434cdec0504b3c04f82117b20403cf5bdf63c0b090000006a4730440220224f8bb94f22711cca7683f213d1ef5a7e19185d69ca16d85cec141ff1aaa3c40220414ad7f2329c04da1c994e1af3fb534b5379a0b1aac14693e1222a7f3e9d4ea9012103b6164de8ba985b5b86130cbdd049e0722d1fc8d2bc410eed953c80482aa449a9ffffffff8a1284b939ea6f11fe3d494eb434cdec0504b3c04f82117b20403cf5bdf63c0b0a0000006b483045022100a1609235e6b17751cbfa6dcb35633521dcd8bca4729a16c396a90c64c9a044f002203daac9046f5c98ecaff5b3a53435012d8f3b53fcb1ebe57e5c8a000dc8af0e21012102f0b804c8e2444c40fbe8cff3b61316548eb974c2671a444499f782df97be8cffffffffff8a1284b939ea6f11fe3d494eb434cdec0504b3c04f82117b20403cf5bdf63c0b0c0000006b483045022100ca3dfd5130d3bb04db8e207aa34379a72e0265fe6d660ee3fea571a48f364951022033270b4e1f61540f4e88aad151ef04d8da097ce3343327d9dddaa6cf77228b7f012102f67b4a1997a5dd0670bc74bfb83127ca7cc34a10a9d2f85ec163c30245eb7d0effffffff03d0070000000000001976a9140ce0c32c60dfc4bc9672f581c569db41568da84388ac0000000000000000166a146f6d6e69000000000000001f00000018956a808022020000000000001976a91456db2f63cf7c354311911b935d3b90b821f7511488ac00000000", "vin": [{"sequence": 4294967295, "scriptSig": {"hex": "47304402200771b665c51e3c3f533aa7b984d7c327de34eb4cd973d481e0dd492a5bf01f9202206adacbb3e3f07ed9660062096dcdcd865b896d0a294329e4fc433e10cb2d98a801210223308378bcfcc76022cfb97b1fa31abd5dd4764648808d5cd09950eb189e243e", "asm": "304402200771b665c51e3c3f533aa7b984d7c327de34eb4cd973d481e0dd492a5bf01f9202206adacbb3e3f07ed9660062096dcdcd865b896d0a294329e4fc433e10cb2d98a8[ALL] 0223308378bcfcc76022cfb97b1fa31abd5dd4764648808d5cd09950eb189e243e"}, "vout": 0, "txid": "6662b75509f072ab7d17b7410571178de8b13d3bb4e134ce1857151821921b0b"}, {"sequence": 4294967295, "scriptSig": {"hex": "4730440220224f8bb94f22711cca7683f213d1ef5a7e19185d69ca16d85cec141ff1aaa3c40220414ad7f2329c04da1c994e1af3fb534b5379a0b1aac14693e1222a7f3e9d4ea9012103b6164de8ba985b5b86130cbdd049e0722d1fc8d2bc410eed953c80482aa449a9", "asm": "30440220224f8bb94f22711cca7683f213d1ef5a7e19185d69ca16d85cec141ff1aaa3c40220414ad7f2329c04da1c994e1af3fb534b5379a0b1aac14693e1222a7f3e9d4ea9[ALL] 03b6164de8ba985b5b86130cbdd049e0722d1fc8d2bc410eed953c80482aa449a9"}, "vout": 9, "txid": "0b3cf6bdf53c40207b11824fc0b30405eccd34b44e493dfe116fea39b984128a"}, {"sequence": 4294967295, "scriptSig": {"hex": "483045022100a1609235e6b17751cbfa6dcb35633521dcd8bca4729a16c396a90c64c9a044f002203daac9046f5c98ecaff5b3a53435012d8f3b53fcb1ebe57e5c8a000dc8af0e21012102f0b804c8e2444c40fbe8cff3b61316548eb974c2671a444499f782df97be8cff", "asm": "3045022100a1609235e6b17751cbfa6dcb35633521dcd8bca4729a16c396a90c64c9a044f002203daac9046f5c98ecaff5b3a53435012d8f3b53fcb1ebe57e5c8a000dc8af0e21[ALL] 02f0b804c8e2444c40fbe8cff3b61316548eb974c2671a444499f782df97be8cff"}, "vout": 10, "txid": "0b3cf6bdf53c40207b11824fc0b30405eccd34b44e493dfe116fea39b984128a"}, {"sequence": 4294967295, "scriptSig": {"hex": "483045022100ca3dfd5130d3bb04db8e207aa34379a72e0265fe6d660ee3fea571a48f364951022033270b4e1f61540f4e88aad151ef04d8da097ce3343327d9dddaa6cf77228b7f012102f67b4a1997a5dd0670bc74bfb83127ca7cc34a10a9d2f85ec163c30245eb7d0e", "asm": "3045022100ca3dfd5130d3bb04db8e207aa34379a72e0265fe6d660ee3fea571a48f364951022033270b4e1f61540f4e88aad151ef04d8da097ce3343327d9dddaa6cf77228b7f[ALL] 02f67b4a1997a5dd0670bc74bfb83127ca7cc34a10a9d2f85ec163c30245eb7d0e"}, "vout": 12, "txid": "0b3cf6bdf53c40207b11824fc0b30405eccd34b44e493dfe116fea39b984128a"}], "txid": "adc477cc97d66a1522d61c74b620e88acda6098624e8d5ca71b9f2ffca33e45e", "blocktime": 1537871767, "version": 1, "confirmations": 11495, "time": 1537871767, "locktime": 0, "vsize": 699, "size": 699}