{"hash": "adc947ed3530eb7e856e1d4697e8fb4a5f1274b79f581fdc8c64d5c2a44b0a8e", "blockhash": "0000000000000000001e0dab787dd257d1dbfcb92a98c2207d5e1078be1f4165", "vout": [{"scriptPubKey": {"reqSigs": 1, "hex": "a91464be3c9dfc1d3298c43069a5d70c78f92bb4847287", "addresses": ["3AshPcMbjjjewHoEzh9CNviCv2AX3DgtPK"], "asm": "OP_HASH160 64be3c9dfc1d3298c43069a5d70c78f92bb48472 OP_EQUAL", "type": "scripthash"}, "value": 0.0029901, "n": 0}, {"scriptPubKey": {"reqSigs": 1, "hex": "76a9142eff73a03ca0b26011420e68bc2257ce92f245e088ac", "addresses": ["15HW6vBf1FU22qQSsUYkPpr7hTAeQE6NTq"], "asm": "OP_DUP OP_HASH160 2eff73a03ca0b26011420e68bc2257ce92f245e0 OP_EQUALVERIFY OP_CHECKSIG", "type": "pubkeyhash"}, "value": 8.39e-05, "n": 1}], "hex": "0100000003388410767efa95452584d242ee4e7d643d9599b99daf61d63c76d5670a9bce7500000000d90047304402206b1510830f991ec6f7eebb230d565b43963cd80a2c07d2d15e2af7de8d5b1375022061ddde21b8ebc9295c86a7c3474b1bf86e1b91e272f130df9d69ce24205129c20147304402200489aca015fafbd88d0ee6571a24b17f21780b205d54944ec44ae6602878e8d8022025654503725347c4cfbe4faa6a06194775293c4dc726f832cd853bbd35343c98014752210211c95237cb7f0ebc598a7f55fdc4a57b70fe5dff39bd6940d4f6c1c56f442fcc2102907a54bed8ad74b3f35638c60114ca240a308cb986f3f2f306178869a8880b6152aeffffffffc704b8124177ada7d4f0351fceed469c92c0dc1e442167765c353eb989326d7200000000d90047304402201cda2ca0fefbc6cb3fc3c125a6b654b7e040c56a87c119006a1b3c0551f99cdc022033db49d620a5b7b6bf2bbc85e411bea28bb6ceba034b20dc741e5aae7ef4bd3501473044022015d9eca3fcf85a7a771267864d68f417bb648f189beb84e0cd26f57e3daefa9302202f03464bb444d6be0d271b6c5bef5cbf51ed0ca81e8e5c8f7535d0bc707e06c801475221028aae271c7642c3818f35efb3185f619a298c7dfa72f8d624d71c913b0972f6b62102907a54bed8ad74b3f35638c60114ca240a308cb986f3f2f306178869a8880b6152aeffffffff19b5c8fa7083bcd3c5ac476bf468e8f6c3b9cf6d6d9e68c5155ded3ee310399b010000006b48304502210086cae5a656601ec3d1613b7ff9dbcfbed38919b40c15bd008f205c0f7754876e022017cd93fb1208e02a139c1997c49c50583b119d210071564cde3977b17db0cbac012102111af2c56234b2ff100312a2fe7122d6a5081ca501465af411313f10b48bb9c5ffffffff02029004000000000017a91464be3c9dfc1d3298c43069a5d70c78f92bb4847287c6200000000000001976a9142eff73a03ca0b26011420e68bc2257ce92f245e088ac00000000", "vin": [{"sequence": 4294967295, "scriptSig": {"hex": "0047304402206b1510830f991ec6f7eebb230d565b43963cd80a2c07d2d15e2af7de8d5b1375022061ddde21b8ebc9295c86a7c3474b1bf86e1b91e272f130df9d69ce24205129c20147304402200489aca015fafbd88d0ee6571a24b17f21780b205d54944ec44ae6602878e8d8022025654503725347c4cfbe4faa6a06194775293c4dc726f832cd853bbd35343c98014752210211c95237cb7f0ebc598a7f55fdc4a57b70fe5dff39bd6940d4f6c1c56f442fcc2102907a54bed8ad74b3f35638c60114ca240a308cb986f3f2f306178869a8880b6152ae", "asm": "0 304402206b1510830f991ec6f7eebb230d565b43963cd80a2c07d2d15e2af7de8d5b1375022061ddde21b8ebc9295c86a7c3474b1bf86e1b91e272f130df9d69ce24205129c2[ALL] 304402200489aca015fafbd88d0ee6571a24b17f21780b205d54944ec44ae6602878e8d8022025654503725347c4cfbe4faa6a06194775293c4dc726f832cd853bbd35343c98[ALL] 52210211c95237cb7f0ebc598a7f55fdc4a57b70fe5dff39bd6940d4f6c1c56f442fcc2102907a54bed8ad74b3f35638c60114ca240a308cb986f3f2f306178869a8880b6152ae"}, "vout": 0, "txid": "75ce9b0a67d5763cd661af9db999953d647d4eee42d284254595fa7e76108438"}, {"sequence": 4294967295, "scriptSig": {"hex": "0047304402201cda2ca0fefbc6cb3fc3c125a6b654b7e040c56a87c119006a1b3c0551f99cdc022033db49d620a5b7b6bf2bbc85e411bea28bb6ceba034b20dc741e5aae7ef4bd3501473044022015d9eca3fcf85a7a771267864d68f417bb648f189beb84e0cd26f57e3daefa9302202f03464bb444d6be0d271b6c5bef5cbf51ed0ca81e8e5c8f7535d0bc707e06c801475221028aae271c7642c3818f35efb3185f619a298c7dfa72f8d624d71c913b0972f6b62102907a54bed8ad74b3f35638c60114ca240a308cb986f3f2f306178869a8880b6152ae", "asm": "0 304402201cda2ca0fefbc6cb3fc3c125a6b654b7e040c56a87c119006a1b3c0551f99cdc022033db49d620a5b7b6bf2bbc85e411bea28bb6ceba034b20dc741e5aae7ef4bd35[ALL] 3044022015d9eca3fcf85a7a771267864d68f417bb648f189beb84e0cd26f57e3daefa9302202f03464bb444d6be0d271b6c5bef5cbf51ed0ca81e8e5c8f7535d0bc707e06c8[ALL] 5221028aae271c7642c3818f35efb3185f619a298c7dfa72f8d624d71c913b0972f6b62102907a54bed8ad74b3f35638c60114ca240a308cb986f3f2f306178869a8880b6152ae"}, "vout": 0, "txid": "726d3289b93e355c766721441edcc0929c46edce1f35f0d4a7ad774112b804c7"}, {"sequence": 4294967295, "scriptSig": {"hex": "48304502210086cae5a656601ec3d1613b7ff9dbcfbed38919b40c15bd008f205c0f7754876e022017cd93fb1208e02a139c1997c49c50583b119d210071564cde3977b17db0cbac012102111af2c56234b2ff100312a2fe7122d6a5081ca501465af411313f10b48bb9c5", "asm": "304502210086cae5a656601ec3d1613b7ff9dbcfbed38919b40c15bd008f205c0f7754876e022017cd93fb1208e02a139c1997c49c50583b119d210071564cde3977b17db0cbac[ALL] 02111af2c56234b2ff100312a2fe7122d6a5081ca501465af411313f10b48bb9c5"}, "vout": 1, "txid": "9b3910e33eed5d15c5689e6d6dcfb9c3f6e868f46b47acc5d3bc8370fac8b519"}], "txid": "adc947ed3530eb7e856e1d4697e8fb4a5f1274b79f581fdc8c64d5c2a44b0a8e", "blocktime": 1537872475, "version": 1, "confirmations": 11486, "time": 1537872475, "locktime": 0, "vsize": 740, "size": 740}