{"hash": "adc993c1b3130ad23f4440af8eabb02c3bb3bf0d6aa97e375edb641c9e1d32a3", "blockhash": "00000000000000000017f5eb5941039fbcee6240d03bc1f2f8e35350df66a1d8", "vout": [{"scriptPubKey": {"reqSigs": 1, "hex": "76a914172819536fefe9a93ef23321109f401ef6796cb288ac", "addresses": ["137SaY1FmppzPvgvgtRWjwykaWJKvJ8AQc"], "asm": "OP_DUP OP_HASH160 172819536fefe9a93ef23321109f401ef6796cb2 OP_EQUALVERIFY OP_CHECKSIG", "type": "pubkeyhash"}, "value": 0.06404652, "n": 0}, {"scriptPubKey": {"reqSigs": 1, "hex": "76a914dc5648e9a1903c238981146b2fc89ced6605d69088ac", "addresses": ["1M632NrLi2EGyvsvDZHNVVNvrhXYQTNhRg"], "asm": "OP_DUP OP_HASH160 dc5648e9a1903c238981146b2fc89ced6605d690 OP_EQUALVERIFY OP_CHECKSIG", "type": "pubkeyhash"}, "value": 15.68, "n": 1}], "hex": "010000000665f767f0dd19258f22125793e4bb148e3e98cdc975e9c56c0a0e33fce219342a000000006b483045022100feb6dc5d2663699bdbd79af1d82f764f5940840427f9168b79fc406605ec6d9a022046e2ac655370e15c321a13c7fcb707a36ef700d4404b506e547d2eb40fcd7fc10121021c945c932a4ac4bb3357b7b3425510397c1fcc62a4ee44eba5a10c7a00a2ff7bffffffff102ffe4b3aa0fdefa757ed23e425fb3ae97825cf1085a92b9c154aac81b78b5a000000006b483045022100c3f8d42917f44b5b44b62a99fe413f965a1bff72b27bb8235934d439ba89772602202af0e6890a2ea45d40bac1b1dafe26ee1a97fd36e843936aedf3f7150c8768cf0121029d03a9ff80436a024bc91cc799f3e1855f7c6770c4a14af6336cfe1c79e8f6eeffffffffb6b355f707a05c42700b125cfa774e58a6a96fa89a306f05064260d967069372010000006a4730440220773b3bbbc604026e94956691cf2bf04ae291a9436ece47ae706f00b82ddd9bd502204fb01eec8df35bedc042fca438ff927db3feaadf72bf7e0ccf3d6ed16d9628bb0121026041279dc6dda04b6c45d19b6cfba1daf85e052fd9084c4306abd445802ee297ffffffff243bd2a461cb4c4de5fbd32f0150de16b8821f31a7938f7bd4bab7f2017630b3010000006a4730440220722274ee723511e9dc7ee0e44f525720be4784245c6c3e8d4df7023cc59bc53202201719e3aa6112851d3598c96570c8a9d589245b27aa882d7a038ddbb36c5e65a70121036954125bc650e61847cf262bd3ed6f6b711b379a9af65652e59fb0fa7ef3c346ffffffffbd38534ec7e3ae528fbc550d95e24153239351e02dec4c2fbb61a9e3aba162b6000000006b483045022100b6ad5589f8a40542bcd7bff707d6db578271920c5a898e775252358787e740f7022045093d9b164866947fbe361f629984729c2e7ff702d86b3b64ca805302abaee40121022d029c8b6572a13d10d48239893abda8b2d6678f1679d7ead6500a44cf9af9d4ffffffffb529d92117d52adf607fe560ade65d2dbd82d3c7ba7a4f76a53c53bbade566d1000000006a4730440220334f4355440927cd8ae3f2af698d3613b9cb86a8eb8f9fb27c90e020928f98700220085b3c47bb2d4f5a5d3b4dd392c42d79052782df7e1f77521447707baf5a1343012102ecf3cc5a1b18cdb8312787f50c08ab68764d033089e41baa25698d62e30a3316ffffffff022cba6100000000001976a914172819536fefe9a93ef23321109f401ef6796cb288ac00c8755d000000001976a914dc5648e9a1903c238981146b2fc89ced6605d69088ac00000000", "vin": [{"sequence": 4294967295, "scriptSig": {"hex": "483045022100feb6dc5d2663699bdbd79af1d82f764f5940840427f9168b79fc406605ec6d9a022046e2ac655370e15c321a13c7fcb707a36ef700d4404b506e547d2eb40fcd7fc10121021c945c932a4ac4bb3357b7b3425510397c1fcc62a4ee44eba5a10c7a00a2ff7b", "asm": "3045022100feb6dc5d2663699bdbd79af1d82f764f5940840427f9168b79fc406605ec6d9a022046e2ac655370e15c321a13c7fcb707a36ef700d4404b506e547d2eb40fcd7fc1[ALL] 021c945c932a4ac4bb3357b7b3425510397c1fcc62a4ee44eba5a10c7a00a2ff7b"}, "vout": 0, "txid": "2a3419e2fc330e0a6cc5e975c9cd983e8e14bbe4935712228f2519ddf067f765"}, {"sequence": 4294967295, "scriptSig": {"hex": "483045022100c3f8d42917f44b5b44b62a99fe413f965a1bff72b27bb8235934d439ba89772602202af0e6890a2ea45d40bac1b1dafe26ee1a97fd36e843936aedf3f7150c8768cf0121029d03a9ff80436a024bc91cc799f3e1855f7c6770c4a14af6336cfe1c79e8f6ee", "asm": "3045022100c3f8d42917f44b5b44b62a99fe413f965a1bff72b27bb8235934d439ba89772602202af0e6890a2ea45d40bac1b1dafe26ee1a97fd36e843936aedf3f7150c8768cf[ALL] 029d03a9ff80436a024bc91cc799f3e1855f7c6770c4a14af6336cfe1c79e8f6ee"}, "vout": 0, "txid": "5a8bb781ac4a159c2ba98510cf2578e93afb25e423ed57a7effda03a4bfe2f10"}, {"sequence": 4294967295, "scriptSig": {"hex": "4730440220773b3bbbc604026e94956691cf2bf04ae291a9436ece47ae706f00b82ddd9bd502204fb01eec8df35bedc042fca438ff927db3feaadf72bf7e0ccf3d6ed16d9628bb0121026041279dc6dda04b6c45d19b6cfba1daf85e052fd9084c4306abd445802ee297", "asm": "30440220773b3bbbc604026e94956691cf2bf04ae291a9436ece47ae706f00b82ddd9bd502204fb01eec8df35bedc042fca438ff927db3feaadf72bf7e0ccf3d6ed16d9628bb[ALL] 026041279dc6dda04b6c45d19b6cfba1daf85e052fd9084c4306abd445802ee297"}, "vout": 1, "txid": "72930667d9604206056f309aa86fa9a6584e77fa5c120b70425ca007f755b3b6"}, {"sequence": 4294967295, "scriptSig": {"hex": "4730440220722274ee723511e9dc7ee0e44f525720be4784245c6c3e8d4df7023cc59bc53202201719e3aa6112851d3598c96570c8a9d589245b27aa882d7a038ddbb36c5e65a70121036954125bc650e61847cf262bd3ed6f6b711b379a9af65652e59fb0fa7ef3c346", "asm": "30440220722274ee723511e9dc7ee0e44f525720be4784245c6c3e8d4df7023cc59bc53202201719e3aa6112851d3598c96570c8a9d589245b27aa882d7a038ddbb36c5e65a7[ALL] 036954125bc650e61847cf262bd3ed6f6b711b379a9af65652e59fb0fa7ef3c346"}, "vout": 1, "txid": "b3307601f2b7bad47b8f93a7311f82b816de50012fd3fbe54d4ccb61a4d23b24"}, {"sequence": 4294967295, "scriptSig": {"hex": "483045022100b6ad5589f8a40542bcd7bff707d6db578271920c5a898e775252358787e740f7022045093d9b164866947fbe361f629984729c2e7ff702d86b3b64ca805302abaee40121022d029c8b6572a13d10d48239893abda8b2d6678f1679d7ead6500a44cf9af9d4", "asm": "3045022100b6ad5589f8a40542bcd7bff707d6db578271920c5a898e775252358787e740f7022045093d9b164866947fbe361f629984729c2e7ff702d86b3b64ca805302abaee4[ALL] 022d029c8b6572a13d10d48239893abda8b2d6678f1679d7ead6500a44cf9af9d4"}, "vout": 0, "txid": "b662a1abe3a961bb2f4cec2de05193235341e2950d55bc8f52aee3c74e5338bd"}, {"sequence": 4294967295, "scriptSig": {"hex": "4730440220334f4355440927cd8ae3f2af698d3613b9cb86a8eb8f9fb27c90e020928f98700220085b3c47bb2d4f5a5d3b4dd392c42d79052782df7e1f77521447707baf5a1343012102ecf3cc5a1b18cdb8312787f50c08ab68764d033089e41baa25698d62e30a3316", "asm": "30440220334f4355440927cd8ae3f2af698d3613b9cb86a8eb8f9fb27c90e020928f98700220085b3c47bb2d4f5a5d3b4dd392c42d79052782df7e1f77521447707baf5a1343[ALL] 02ecf3cc5a1b18cdb8312787f50c08ab68764d033089e41baa25698d62e30a3316"}, "vout": 0, "txid": "d166e5adbb533ca5764f7abac7d382bd2d5de6ad60e57f60df2ad51721d929b5"}], "txid": "adc993c1b3130ad23f4440af8eabb02c3bb3bf0d6aa97e375edb641c9e1d32a3", "blocktime": 1537874412, "version": 1, "confirmations": 11467, "time": 1537874412, "locktime": 0, "vsize": 963, "size": 963}