{"hash": "adcb367f294bb57c5a6f82dfeaaa78b82ef0762e62e4ffd1b0e94ad785285881", "blockhash": "0000000000000000000e13cef7c366c0283d82e591d1acd082e914b08063cdf1", "vout": [{"scriptPubKey": {"reqSigs": 1, "hex": "76a914c9623a77433766ed8acbffaa252348ebd88f921388ac", "addresses": ["1KMpVaxrF5q3fKczH7x6uGYXrKAq4s9bFs"], "asm": "OP_DUP OP_HASH160 c9623a77433766ed8acbffaa252348ebd88f9213 OP_EQUALVERIFY OP_CHECKSIG", "type": "pubkeyhash"}, "value": 27.44514164, "n": 0}, {"scriptPubKey": {"reqSigs": 1, "hex": "76a9146b04486149fef3a58c61fc13366efbcfdd68762288ac", "addresses": ["1AkrS6Y9VDyjiiqYrB7KXtjEmaGN9SU1hP"], "asm": "OP_DUP OP_HASH160 6b04486149fef3a58c61fc13366efbcfdd687622 OP_EQUALVERIFY OP_CHECKSIG", "type": "pubkeyhash"}, "value": 0.00110717, "n": 1}, {"scriptPubKey": {"reqSigs": 1, "hex": "76a91402d001526f5099f0a816f398729d71f3551f6cc588ac", "addresses": ["1FsXqUjjiMhMnHASYXF8JbDV1JzxU6GyG"], "asm": "OP_DUP OP_HASH160 02d001526f5099f0a816f398729d71f3551f6cc5 OP_EQUALVERIFY OP_CHECKSIG", "type": "pubkeyhash"}, "value": 0.00113191, "n": 2}, {"scriptPubKey": {"reqSigs": 1, "hex": "76a9140758bc665752d4c281eebd6d873d470e58cafb1288ac", "addresses": ["1fr2pnBcRiFNQcRmV8ZLvpEU1qWSiEkU6"], "asm": "OP_DUP OP_HASH160 0758bc665752d4c281eebd6d873d470e58cafb12 OP_EQUALVERIFY OP_CHECKSIG", "type": "pubkeyhash"}, "value": 0.0010945, "n": 3}, {"scriptPubKey": {"reqSigs": 1, "hex": "a914e1ad0519c0fea7181215e118ba3b819e7982465387", "addresses": ["3NGHELiKiRYknisHgeQRPELgZ6eGHZoLJo"], "asm": "OP_HASH160 e1ad0519c0fea7181215e118ba3b819e79824653 OP_EQUAL", "type": "scripthash"}, "value": 0.00109624, "n": 4}, {"scriptPubKey": {"reqSigs": 1, "hex": "76a91409045e9ae9a082797a6760a3d1e84828de2d31a788ac", "addresses": ["1pgKL38VNwx6QP7owp564WJMiERJHJP5h"], "asm": "OP_DUP OP_HASH160 09045e9ae9a082797a6760a3d1e84828de2d31a7 OP_EQUALVERIFY OP_CHECKSIG", "type": "pubkeyhash"}, "value": 0.00113178, "n": 5}, {"scriptPubKey": {"reqSigs": 1, "hex": "76a91459d9cdaa5de7486ce66641a319bc07e6fc3bba7388ac", "addresses": ["19C64KPmKHKFXrGZPqQkCBFviZZUPtgY1k"], "asm": "OP_DUP OP_HASH160 59d9cdaa5de7486ce66641a319bc07e6fc3bba73 OP_EQUALVERIFY OP_CHECKSIG", "type": "pubkeyhash"}, "value": 0.00110551, "n": 6}, {"scriptPubKey": {"reqSigs": 1, "hex": "76a914890be901d7207f2b7434ce3aa4fd3d67dd67499a88ac", "addresses": ["1DVdqpGGMKxkZHssNtqaWcoEpdZCYQ8dAf"], "asm": "OP_DUP OP_HASH160 890be901d7207f2b7434ce3aa4fd3d67dd67499a OP_EQUALVERIFY OP_CHECKSIG", "type": "pubkeyhash"}, "value": 0.00113958, "n": 7}, {"scriptPubKey": {"reqSigs": 1, "hex": "76a914f328e3788b690cd87de708bfc8800e6d6861739388ac", "addresses": ["1PAiBbtqRRNPDPzr4MEnuyQYYCovw9FEWX"], "asm": "OP_DUP OP_HASH160 f328e3788b690cd87de708bfc8800e6d68617393 OP_EQUALVERIFY OP_CHECKSIG", "type": "pubkeyhash"}, "value": 0.00109155, "n": 8}, {"scriptPubKey": {"reqSigs": 1, "hex": "76a91498b882846f705f4dcc938bee8fc7db1b6b64be3288ac", "addresses": ["1EvWk8KWLPJ8Bj8F84XUW3TLSsaMS4GGEG"], "asm": "OP_DUP OP_HASH160 98b882846f705f4dcc938bee8fc7db1b6b64be32 OP_EQUALVERIFY OP_CHECKSIG", "type": "pubkeyhash"}, "value": 0.00114712, "n": 9}, {"scriptPubKey": {"reqSigs": 1, "hex": "76a914610c48369188fa74c780a2b954f66b0ed353b72a88ac", "addresses": ["19r9Fyw9dtRQdGp24jzeJkGF8qTJYkmFYk"], "asm": "OP_DUP OP_HASH160 610c48369188fa74c780a2b954f66b0ed353b72a OP_EQUALVERIFY OP_CHECKSIG", "type": "pubkeyhash"}, "value": 0.00112732, "n": 10}, {"scriptPubKey": {"reqSigs": 1, "hex": "76a91465914db6f01051ecd0e0630b2433d05ec2d8a53288ac", "addresses": ["1AG3KFA8WRt25nPDFAsb6BWvxye2nsSTCB"], "asm": "OP_DUP OP_HASH160 65914db6f01051ecd0e0630b2433d05ec2d8a532 OP_EQUALVERIFY OP_CHECKSIG", "type": "pubkeyhash"}, "value": 0.00113218, "n": 11}, {"scriptPubKey": {"reqSigs": 1, "hex": "a9148572889c1f9999cdf2530cdec6aed4504eb93a1087", "addresses": ["3DrczzaKf4rYmj1nshHC5Q9VBEnm5qF3mp"], "asm": "OP_HASH160 8572889c1f9999cdf2530cdec6aed4504eb93a10 OP_EQUAL", "type": "scripthash"}, "value": 0.00111108, "n": 12}, {"scriptPubKey": {"reqSigs": 1, "hex": "76a91413a4c0b6d2c799a331cd337a0a83e131ad4fd61688ac", "addresses": ["12nsCsRHLryKJns29yQVu7vGg62ykmJEsT"], "asm": "OP_DUP OP_HASH160 13a4c0b6d2c799a331cd337a0a83e131ad4fd616 OP_EQUALVERIFY OP_CHECKSIG", "type": "pubkeyhash"}, "value": 0.00110575, "n": 13}, {"scriptPubKey": {"reqSigs": 1, "hex": "76a9146508df3cee1c075443d4cb28ccea9a84bc4f5ea188ac", "addresses": ["1ADDspCroCdxjNsgETNGWAGPx6EeoGxsoE"], "asm": "OP_DUP OP_HASH160 6508df3cee1c075443d4cb28ccea9a84bc4f5ea1 OP_EQUALVERIFY OP_CHECKSIG", "type": "pubkeyhash"}, "value": 0.00110686, "n": 14}, {"scriptPubKey": {"reqSigs": 1, "hex": "76a91480dca4f0d287c452aa77f1ddcac60469004229ef88ac", "addresses": ["1CkMpBxnnSLXQZtVmETACSDd6zUFbkDdgq"], "asm": "OP_DUP OP_HASH160 80dca4f0d287c452aa77f1ddcac60469004229ef OP_EQUALVERIFY OP_CHECKSIG", "type": "pubkeyhash"}, "value": 0.00112355, "n": 15}, {"scriptPubKey": {"reqSigs": 1, "hex": "a914f7e82acdc466dbde5baadccc4b7568358e3e212487", "addresses": ["3QHpxBjZ9Gx4g97v8Z2f5z189ArVaBcgTk"], "asm": "OP_HASH160 f7e82acdc466dbde5baadccc4b7568358e3e2124 OP_EQUAL", "type": "scripthash"}, "value": 0.00114561, "n": 16}, {"scriptPubKey": {"reqSigs": 1, "hex": "76a914ee25ef11da98f29cf3c8a239f9920b3b8e8141ac88ac", "addresses": ["1NiDGM7sFpiEsPvKZtGenBYAkFAHzbCtNu"], "asm": "OP_DUP OP_HASH160 ee25ef11da98f29cf3c8a239f9920b3b8e8141ac OP_EQUALVERIFY OP_CHECKSIG", "type": "pubkeyhash"}, "value": 0.00109371, "n": 17}, {"scriptPubKey": {"reqSigs": 1, "hex": "a914d5291168f727b71c7bfede155833bb6b2283d1d287", "addresses": ["3M873rmQrpUYarD1G3mKKBpQSURm499s2R"], "asm": "OP_HASH160 d5291168f727b71c7bfede155833bb6b2283d1d2 OP_EQUAL", "type": "scripthash"}, "value": 0.00112157, "n": 18}, {"scriptPubKey": {"reqSigs": 1, "hex": "a9142039c82a0ccc04b4514a6b0361f73af499b681c787", "addresses": ["34dQmSPWK8NYVnrPEHfsPrvFeKissLwAeD"], "asm": "OP_HASH160 2039c82a0ccc04b4514a6b0361f73af499b681c7 OP_EQUAL", "type": "scripthash"}, "value": 0.00138077, "n": 19}, {"scriptPubKey": {"reqSigs": 1, "hex": "76a914f9609fef3f30d9636acd06e62748136ef1120c0588ac", "addresses": ["1Pjb1NW5533LTXgoHrKyhxX1iE3nsUCVDR"], "asm": "OP_DUP OP_HASH160 f9609fef3f30d9636acd06e62748136ef1120c05 OP_EQUALVERIFY OP_CHECKSIG", "type": "pubkeyhash"}, "value": 0.00112601, "n": 20}, {"scriptPubKey": {"reqSigs": 1, "hex": "76a9147160002dc8013e2d8ba8e90d529a95fce3787a7188ac", "addresses": ["1BLUMvVexoFnGK7s6ULiMp3KiF5qAK6PrK"], "asm": "OP_DUP OP_HASH160 7160002dc8013e2d8ba8e90d529a95fce3787a71 OP_EQUALVERIFY OP_CHECKSIG", "type": "pubkeyhash"}, "value": 0.00113807, "n": 21}, {"scriptPubKey": {"reqSigs": 1, "hex": "a914d4d51fd4af9927162e6330fe5f8086716267bd0387", "addresses": ["3M6NVMHHi8WzEkJmFQuMcb7ZXwCMzkFdrw"], "asm": "OP_HASH160 d4d51fd4af9927162e6330fe5f8086716267bd03 OP_EQUAL", "type": "scripthash"}, "value": 0.00110032, "n": 22}, {"scriptPubKey": {"reqSigs": 1, "hex": "76a9144efec67818f561503114e039d506c7de7c7c9c3f88ac", "addresses": ["18Cgv4R3zr7jq6x8ynE24py8pNqoKq439L"], "asm": "OP_DUP OP_HASH160 4efec67818f561503114e039d506c7de7c7c9c3f OP_EQUALVERIFY OP_CHECKSIG", "type": "pubkeyhash"}, "value": 0.00109582, "n": 23}, {"scriptPubKey": {"reqSigs": 1, "hex": "76a91473e00376be9936e90e31b3dfe8039fda344ce3fe88ac", "addresses": ["1BZh4o2FeE4dwwjYDgdU3xrE1XhAHqtPts"], "asm": "OP_DUP OP_HASH160 73e00376be9936e90e31b3dfe8039fda344ce3fe OP_EQUALVERIFY OP_CHECKSIG", "type": "pubkeyhash"}, "value": 0.00113396, "n": 24}, {"scriptPubKey": {"reqSigs": 1, "hex": "76a914771469cd316cf716c5518ab72df265f49bfdce4688ac", "addresses": ["1BrdsAjm1EKHVBcPaWjkzue2UjdNxXd3tZ"], "asm": "OP_DUP OP_HASH160 771469cd316cf716c5518ab72df265f49bfdce46 OP_EQUALVERIFY OP_CHECKSIG", "type": "pubkeyhash"}, "value": 0.00111709, "n": 25}, {"scriptPubKey": {"reqSigs": 1, "hex": "a914d47bdea4171cc76d8d6cbc5a1a345ad5d912b25987", "addresses": ["3M4XZq2UEoUmTH7Xc34nhuF6nskUTSJ6Cx"], "asm": "OP_HASH160 d47bdea4171cc76d8d6cbc5a1a345ad5d912b259 OP_EQUAL", "type": "scripthash"}, "value": 0.00111163, "n": 26}, {"scriptPubKey": {"reqSigs": 1, "hex": "76a914906751d334ac781d8ac16ef930ccf0dd8714316188ac", "addresses": ["1EAY5Q3NGwTPeTHmaqa1rhuZGX3RrRNwAE"], "asm": "OP_DUP OP_HASH160 906751d334ac781d8ac16ef930ccf0dd87143161 OP_EQUALVERIFY OP_CHECKSIG", "type": "pubkeyhash"}, "value": 0.00113703, "n": 27}, {"scriptPubKey": {"reqSigs": 1, "hex": "76a9142d4a67a26f44358b40bab6aaea383239fa160c9e88ac", "addresses": ["158UYNTs2oXi1yNPP6eRyzP824EXCEhsJj"], "asm": "OP_DUP OP_HASH160 2d4a67a26f44358b40bab6aaea383239fa160c9e OP_EQUALVERIFY OP_CHECKSIG", "type": "pubkeyhash"}, "value": 0.00111404, "n": 28}, {"scriptPubKey": {"reqSigs": 1, "hex": "76a914e9db64ed080475b802a491e3e76806b81f43dbee88ac", "addresses": ["1NKXGUb64Y7dWorYUjTdfeArsEwcJnF5ke"], "asm": "OP_DUP OP_HASH160 e9db64ed080475b802a491e3e76806b81f43dbee OP_EQUALVERIFY OP_CHECKSIG", "type": "pubkeyhash"}, "value": 0.00109892, "n": 29}, {"scriptPubKey": {"reqSigs": 1, "hex": "76a91454adfafd8a8274693863895483d177821b10c27d88ac", "addresses": ["18ikBVC3L5Ajeo7WoMqNhM5z3oJH8ducV6"], "asm": "OP_DUP OP_HASH160 54adfafd8a8274693863895483d177821b10c27d OP_EQUALVERIFY OP_CHECKSIG", "type": "pubkeyhash"}, "value": 0.00113693, "n": 30}, {"scriptPubKey": {"reqSigs": 1, "hex": "76a91447e6d2aae67e9d62b7acb827987b51a8919c23d888ac", "addresses": ["17ZBVUhiQsWY4bmbSw1FPVgPA8pzUNNswg"], "asm": "OP_DUP OP_HASH160 47e6d2aae67e9d62b7acb827987b51a8919c23d8 OP_EQUALVERIFY OP_CHECKSIG", "type": "pubkeyhash"}, "value": 0.00110599, "n": 31}, {"scriptPubKey": {"reqSigs": 1, "hex": "76a914f8925a5b401e569c0e9f48ccbfe5f673d8764ee388ac", "addresses": ["1PfKuMcy5JtV6osUQbPyaJxT179itLFuxN"], "asm": "OP_DUP OP_HASH160 f8925a5b401e569c0e9f48ccbfe5f673d8764ee3 OP_EQUALVERIFY OP_CHECKSIG", "type": "pubkeyhash"}, "value": 0.00111566, "n": 32}, {"scriptPubKey": {"reqSigs": 1, "hex": "76a9140779a38501fd95880abd95327869c9bded821e8288ac", "addresses": ["1gXSxAsc31v7bxuWY3vTrhYLrjGsQfnix"], "asm": "OP_DUP OP_HASH160 0779a38501fd95880abd95327869c9bded821e82 OP_EQUALVERIFY OP_CHECKSIG", "type": "pubkeyhash"}, "value": 0.00112771, "n": 33}, {"scriptPubKey": {"reqSigs": 1, "hex": "76a914341a832ef5fdef876b917d8ee57a0d694210076388ac", "addresses": ["15kVu6JkFdktTsRVcotaJBWqVDRB7vZ8Ee"], "asm": "OP_DUP OP_HASH160 341a832ef5fdef876b917d8ee57a0d6942100763 OP_EQUALVERIFY OP_CHECKSIG", "type": "pubkeyhash"}, "value": 0.00113484, "n": 34}, {"scriptPubKey": {"reqSigs": 1, "hex": "76a91479633bc5ab04fe3c651cccc814e3de3bfafdd6e488ac", "addresses": ["1C4qe5Lvdjbx7JjxoV4EMidYfoLi1zoYgL"], "asm": "OP_DUP OP_HASH160 79633bc5ab04fe3c651cccc814e3de3bfafdd6e4 OP_EQUALVERIFY OP_CHECKSIG", "type": "pubkeyhash"}, "value": 0.0011102, "n": 35}, {"scriptPubKey": {"reqSigs": 1, "hex": "76a9146efdd326cd0422546edb7eae92b9fd9d3d40166c88ac", "addresses": ["1B7sQABoATnpcqZpHA9ifDiFeaBB33FQXq"], "asm": "OP_DUP OP_HASH160 6efdd326cd0422546edb7eae92b9fd9d3d40166c OP_EQUALVERIFY OP_CHECKSIG", "type": "pubkeyhash"}, "value": 0.00114396, "n": 36}, {"scriptPubKey": {"reqSigs": 1, "hex": "76a9149d45f52541359b464265a5d02c3ea44c27cb99d488ac", "addresses": ["1FLatrgfXBMiX1otMyn1S9sYpF3uLqgrqq"], "asm": "OP_DUP OP_HASH160 9d45f52541359b464265a5d02c3ea44c27cb99d4 OP_EQUALVERIFY OP_CHECKSIG", "type": "pubkeyhash"}, "value": 0.00110704, "n": 37}, {"scriptPubKey": {"reqSigs": 1, "hex": "76a914a13dfd6018e7608cf991e0b9c55a80491da8a45488ac", "addresses": ["1Fha41TUBoxyj8p4W8uGeYCqpc6Lh2uYTb"], "asm": "OP_DUP OP_HASH160 a13dfd6018e7608cf991e0b9c55a80491da8a454 OP_EQUALVERIFY OP_CHECKSIG", "type": "pubkeyhash"}, "value": 0.00114351, "n": 38}, {"scriptPubKey": {"reqSigs": 1, "hex": "76a91491bf8bd92476fddf7364f924e6827a8626dbeda688ac", "addresses": ["1EHeSghMbanZhBTbVEypzRxRGN2JyhoFtm"], "asm": "OP_DUP OP_HASH160 91bf8bd92476fddf7364f924e6827a8626dbeda6 OP_EQUALVERIFY OP_CHECKSIG", "type": "pubkeyhash"}, "value": 0.00111011, "n": 39}, {"scriptPubKey": {"reqSigs": 1, "hex": "a9148941011731e7d8732e32cf50d46a313c0b34b87e87", "addresses": ["3ECkNQ8qnCNaGZTNLXwswg4nejCf4yLLXK"], "asm": "OP_HASH160 8941011731e7d8732e32cf50d46a313c0b34b87e OP_EQUAL", "type": "scripthash"}, "value": 0.00114362, "n": 40}, {"scriptPubKey": {"reqSigs": 1, "hex": "a9148575bfc68fd21670ef965dbe63ad089a01c356a587", "addresses": ["3DrgrQibaZWW9zZ1nHLdGVxvYdkz6sKvia"], "asm": "OP_HASH160 8575bfc68fd21670ef965dbe63ad089a01c356a5 OP_EQUAL", "type": "scripthash"}, "value": 0.00110499, "n": 41}, {"scriptPubKey": {"reqSigs": 1, "hex": "76a9146efcd4721b2c8937b3ebac17cf660ba51fb97bb388ac", "addresses": ["1B7rD2eakzKTGhpRKDU48oTkfymNpSxbMs"], "asm": "OP_DUP OP_HASH160 6efcd4721b2c8937b3ebac17cf660ba51fb97bb3 OP_EQUALVERIFY OP_CHECKSIG", "type": "pubkeyhash"}, "value": 0.00112871, "n": 42}, {"scriptPubKey": {"reqSigs": 1, "hex": "a914f2ee46aa1e114f216108b409e085355d5d7fd1c787", "addresses": ["3PqWtg9URscnMi2CnuGw2NEextGLqQHrHV"], "asm": "OP_HASH160 f2ee46aa1e114f216108b409e085355d5d7fd1c7 OP_EQUAL", "type": "scripthash"}, "value": 0.00110335, "n": 43}, {"scriptPubKey": {"reqSigs": 1, "hex": "a914ea1a924174d0cbb39f09d9c754d99965c941176887", "addresses": ["3P2qse2LkYqjzQKumWE4cszHvV2t677arW"], "asm": "OP_HASH160 ea1a924174d0cbb39f09d9c754d99965c9411768 OP_EQUAL", "type": "scripthash"}, "value": 0.00109257, "n": 44}, {"scriptPubKey": {"reqSigs": 1, "hex": "76a914992e63dc3e849bcdc752ce9446636e94bc3f191688ac", "addresses": ["1ExwxbBLN3QpP36F566rN1cnSMFvycWeY5"], "asm": "OP_DUP OP_HASH160 992e63dc3e849bcdc752ce9446636e94bc3f1916 OP_EQUALVERIFY OP_CHECKSIG", "type": "pubkeyhash"}, "value": 0.00113041, "n": 45}, {"scriptPubKey": {"reqSigs": 1, "hex": "76a914ae1c4269c3a5acc29fb99147567d717733ed456088ac", "addresses": ["1GscRsv7UHpEvPCWY1j6ifpPpzB6YsuWXe"], "asm": "OP_DUP OP_HASH160 ae1c4269c3a5acc29fb99147567d717733ed4560 OP_EQUALVERIFY OP_CHECKSIG", "type": "pubkeyhash"}, "value": 0.00109833, "n": 46}, {"scriptPubKey": {"reqSigs": 1, "hex": "a9147e2a2b3a1b3e74d672218869289c484d091f90b687", "addresses": ["3DC7af7B2rj4GxUaiGw5m47J1AdeZGx5Ep"], "asm": "OP_HASH160 7e2a2b3a1b3e74d672218869289c484d091f90b6 OP_EQUAL", "type": "scripthash"}, "value": 0.00111132, "n": 47}, {"scriptPubKey": {"reqSigs": 1, "hex": "a914f28f3eb46150e00e78040d413385391d66b8cf8887", "addresses": ["3PoZ3oLBkjzKx9fWiK3623YzDu8DSSpDkD"], "asm": "OP_HASH160 f28f3eb46150e00e78040d413385391d66b8cf88 OP_EQUAL", "type": "scripthash"}, "value": 0.00113567, "n": 48}, {"scriptPubKey": {"reqSigs": 1, "hex": "a91499f7744c222d1311d718f437678ea525c4af683187", "addresses": ["3Fj7kKTbuDsDPZBpBPi4HiAghA5TgNeD8c"], "asm": "OP_HASH160 99f7744c222d1311d718f437678ea525c4af6831 OP_EQUAL", "type": "scripthash"}, "value": 0.00112812, "n": 49}, {"scriptPubKey": {"reqSigs": 1, "hex": "76a9140673c4cf7e73deaf929f5fc1e1fee1f48cb9068688ac", "addresses": ["1b7jueBekYc1Sr6K42QCdyGLSWqcm541B"], "asm": "OP_DUP OP_HASH160 0673c4cf7e73deaf929f5fc1e1fee1f48cb90686 OP_EQUALVERIFY OP_CHECKSIG", "type": "pubkeyhash"}, "value": 0.00111, "n": 50}, {"scriptPubKey": {"reqSigs": 1, "hex": "76a914cd0479336317f061b4d5f9211be702870fccfb5d88ac", "addresses": ["1Kh2t9RrrW1zi8Z4fCiRHxi3oVjKbQCbeK"], "asm": "OP_DUP OP_HASH160 cd0479336317f061b4d5f9211be702870fccfb5d OP_EQUALVERIFY OP_CHECKSIG", "type": "pubkeyhash"}, "value": 0.00109327, "n": 51}, {"scriptPubKey": {"reqSigs": 1, "hex": "76a91466ade241e08a60e42f9bff44ed249014f92f7ab888ac", "addresses": ["1AMvEE7p3r5J1PMqVDB4JwRrhcquPr6HkA"], "asm": "OP_DUP OP_HASH160 66ade241e08a60e42f9bff44ed249014f92f7ab8 OP_EQUALVERIFY OP_CHECKSIG", "type": "pubkeyhash"}, "value": 0.00110426, "n": 52}, {"scriptPubKey": {"reqSigs": 1, "hex": "a9143c3c6cad17fcb5023774540477d309476dfa43e887", "addresses": ["37BWrRTmY7CNdA2WRXcrDwpY6r8iXot43b"], "asm": "OP_HASH160 3c3c6cad17fcb5023774540477d309476dfa43e8 OP_EQUAL", "type": "scripthash"}, "value": 0.00112036, "n": 53}, {"scriptPubKey": {"reqSigs": 1, "hex": "76a914c56792668ee56582aef911be4052b61481504af288ac", "addresses": ["1JznC6GSCBCm3U5pRtWS628nU5HoDc5eKs"], "asm": "OP_DUP OP_HASH160 c56792668ee56582aef911be4052b61481504af2 OP_EQUALVERIFY OP_CHECKSIG", "type": "pubkeyhash"}, "value": 0.00111425, "n": 54}, {"scriptPubKey": {"reqSigs": 1, "hex": "76a914f16ff2da1f9b1e43475a9d4738abb591bcd7e2a488ac", "addresses": ["1P1bxZRfm59qrU2dBF7L3xbidP98L9hKM4"], "asm": "OP_DUP OP_HASH160 f16ff2da1f9b1e43475a9d4738abb591bcd7e2a4 OP_EQUALVERIFY OP_CHECKSIG", "type": "pubkeyhash"}, "value": 0.00113757, "n": 55}, {"scriptPubKey": {"reqSigs": 1, "hex": "76a914db33f0d4318af764f441938789967d1ec2df088688ac", "addresses": ["1Lz3CvARSQtxDZHid5HNtzjxGReFf1UK3D"], "asm": "OP_DUP OP_HASH160 db33f0d4318af764f441938789967d1ec2df0886 OP_EQUALVERIFY OP_CHECKSIG", "type": "pubkeyhash"}, "value": 0.00110017, "n": 56}, {"scriptPubKey": {"reqSigs": 1, "hex": "76a9143649b13fd2dcb4531c102d3ea7da0e10a1645de388ac", "addresses": ["15x3mbXBEhf9LzFpfm1J7sbotroSFHAwwx"], "asm": "OP_DUP OP_HASH160 3649b13fd2dcb4531c102d3ea7da0e10a1645de3 OP_EQUALVERIFY OP_CHECKSIG", "type": "pubkeyhash"}, "value": 0.00113564, "n": 57}, {"scriptPubKey": {"reqSigs": 1, "hex": "a9147e0648fedad7e7d900261dc3d9424b66d172bac487", "addresses": ["3DBNbQwDVKkXPzDLYhkqp59z6HnTkCQegP"], "asm": "OP_HASH160 7e0648fedad7e7d900261dc3d9424b66d172bac4 OP_EQUAL", "type": "scripthash"}, "value": 0.00112901, "n": 58}, {"scriptPubKey": {"reqSigs": 1, "hex": "a91416fdd18b62f12882ab2102fc03664f2958fc486287", "addresses": ["33narPGyrAgZMdAyydHkLqhaRbqi894vEf"], "asm": "OP_HASH160 16fdd18b62f12882ab2102fc03664f2958fc4862 OP_EQUAL", "type": "scripthash"}, "value": 0.00109751, "n": 59}, {"scriptPubKey": {"reqSigs": 1, "hex": "76a91479901e954f7b6a009026533d3a427824bccb0f2588ac", "addresses": ["1C5mQoqUmU1en8CgPQHWNpp3KG6iEzKFXW"], "asm": "OP_DUP OP_HASH160 79901e954f7b6a009026533d3a427824bccb0f25 OP_EQUALVERIFY OP_CHECKSIG", "type": "pubkeyhash"}, "value": 0.00109225, "n": 60}, {"scriptPubKey": {"reqSigs": 1, "hex": "a9141aa048fee660dccb02fd5522fe851adedaa1077f87", "addresses": ["347oWLZYM1PB59pZsrF8WwCYtwx952Hm53"], "asm": "OP_HASH160 1aa048fee660dccb02fd5522fe851adedaa1077f OP_EQUAL", "type": "scripthash"}, "value": 0.00113099, "n": 61}, {"scriptPubKey": {"reqSigs": 1, "hex": "76a91404bb7ed33b245c78b88023d9421470fa7251326b88ac", "addresses": ["1S2KBFtE9k5ZYppBUcj1GG6sXd8RP93wv"], "asm": "OP_DUP OP_HASH160 04bb7ed33b245c78b88023d9421470fa7251326b OP_EQUALVERIFY OP_CHECKSIG", "type": "pubkeyhash"}, "value": 0.0011118, "n": 62}, {"scriptPubKey": {"reqSigs": 1, "hex": "76a9149ca5d44629b0206d69b27bddc8cdf62dd9f7fd2d88ac", "addresses": ["1FHH4wXL5jx9LCJpfjrwGNHe13yarkh4rd"], "asm": "OP_DUP OP_HASH160 9ca5d44629b0206d69b27bddc8cdf62dd9f7fd2d OP_EQUALVERIFY OP_CHECKSIG", "type": "pubkeyhash"}, "value": 0.0011093, "n": 63}, {"scriptPubKey": {"reqSigs": 1, "hex": "76a9149af1e0d55cc00e8963d8c49983891537eb8dc34488ac", "addresses": ["1F8GpYBssF1etb4qu9KWkbDWyNNqWpAFEj"], "asm": "OP_DUP OP_HASH160 9af1e0d55cc00e8963d8c49983891537eb8dc344 OP_EQUALVERIFY OP_CHECKSIG", "type": "pubkeyhash"}, "value": 0.00112682, "n": 64}, {"scriptPubKey": {"reqSigs": 1, "hex": "76a9146ec1ce321bf9998ee520534a5ed53814b2efba7f88ac", "addresses": ["1B6dVwXwGNn1h3JfJ5G3gSB65SgvvmrWz8"], "asm": "OP_DUP OP_HASH160 6ec1ce321bf9998ee520534a5ed53814b2efba7f OP_EQUALVERIFY OP_CHECKSIG", "type": "pubkeyhash"}, "value": 0.00110054, "n": 65}, {"scriptPubKey": {"reqSigs": 1, "hex": "a91427af7d6ca1ad42668852b1dce417b55f050618fd87", "addresses": ["35JrWHBgG1uTE7tq9vj1WWVFNfHGc8hZEE"], "asm": "OP_HASH160 27af7d6ca1ad42668852b1dce417b55f050618fd OP_EQUAL", "type": "scripthash"}, "value": 0.00109152, "n": 66}, {"scriptPubKey": {"reqSigs": 1, "hex": "76a914121aa334ed23ea866f120f619deeb110a9b381cd88ac", "addresses": ["12ej5G85W4AoCg7q3Z6kD7KyqPEgLa5SzJ"], "asm": "OP_DUP OP_HASH160 121aa334ed23ea866f120f619deeb110a9b381cd OP_EQUALVERIFY OP_CHECKSIG", "type": "pubkeyhash"}, "value": 0.00114462, "n": 67}, {"scriptPubKey": {"reqSigs": 1, "hex": "76a914f8db70ad70a07ad82b3ea5350fc9e587a081ac8488ac", "addresses": ["1PgqTYUNVVNhQLWkvQw9mzDpA9WJ5NRfND"], "asm": "OP_DUP OP_HASH160 f8db70ad70a07ad82b3ea5350fc9e587a081ac84 OP_EQUALVERIFY OP_CHECKSIG", "type": "pubkeyhash"}, "value": 0.00110947, "n": 68}, {"scriptPubKey": {"reqSigs": 1, "hex": "76a914896ca3aeab741cdf0e8bf6d57623ca602b5444ab88ac", "addresses": ["1DXdigJ7P6xkyR2S2HUtB1Ety1kT9dRXZC"], "asm": "OP_DUP OP_HASH160 896ca3aeab741cdf0e8bf6d57623ca602b5444ab OP_EQUALVERIFY OP_CHECKSIG", "type": "pubkeyhash"}, "value": 0.00112012, "n": 69}, {"scriptPubKey": {"reqSigs": 1, "hex": "76a9141b9085d781fb0a9ba5015a0771c2746f6342699c88ac", "addresses": ["13WkNoTU61M3Gd6UuP83aQsa5hLk82vPCP"], "asm": "OP_DUP OP_HASH160 1b9085d781fb0a9ba5015a0771c2746f6342699c OP_EQUALVERIFY OP_CHECKSIG", "type": "pubkeyhash"}, "value": 0.00110368, "n": 70}, {"scriptPubKey": {"reqSigs": 1, "hex": "76a914d9563642a79190dd07fcd641888602a520e7baf588ac", "addresses": ["1LpAujrPHfpbzdraCz3oH4etip3E9YGuL5"], "asm": "OP_DUP OP_HASH160 d9563642a79190dd07fcd641888602a520e7baf5 OP_EQUALVERIFY OP_CHECKSIG", "type": "pubkeyhash"}, "value": 0.0011248, "n": 71}, {"scriptPubKey": {"reqSigs": 1, "hex": "76a914db2cfd98b2f462192f6766dedfb5082d4d1dad0888ac", "addresses": ["1Lytt1mrfiXVXRufnpLjryrUPh5XJLvm4N"], "asm": "OP_DUP OP_HASH160 db2cfd98b2f462192f6766dedfb5082d4d1dad08 OP_EQUALVERIFY OP_CHECKSIG", "type": "pubkeyhash"}, "value": 0.00113144, "n": 72}, {"scriptPubKey": {"reqSigs": 1, "hex": "a9144a1331689c76a20194db6f812813b84b7f8b3d2987", "addresses": ["38SgvHuskLtUQEiUbZDxpmtWNxLSLjCekc"], "asm": "OP_HASH160 4a1331689c76a20194db6f812813b84b7f8b3d29 OP_EQUAL", "type": "scripthash"}, "value": 0.00109306, "n": 73}, {"scriptPubKey": {"reqSigs": 1, "hex": "76a9143c0e9e449e5f63f6b2c5cc7fa5338174af6bdb6188ac", "addresses": ["16UZ4CkSH5W7Zn15q6Y7xgAAQtVctjE8M4"], "asm": "OP_DUP OP_HASH160 3c0e9e449e5f63f6b2c5cc7fa5338174af6bdb61 OP_EQUALVERIFY OP_CHECKSIG", "type": "pubkeyhash"}, "value": 0.00110974, "n": 74}, {"scriptPubKey": {"reqSigs": 1, "hex": "a91476c131ae4bb158bf37928f5cf21cf4e549f1761c87", "addresses": ["3CWw6YCeYXt5VzsdD5c5GUZRBY2yUahscg"], "asm": "OP_HASH160 76c131ae4bb158bf37928f5cf21cf4e549f1761c OP_EQUAL", "type": "scripthash"}, "value": 0.00113382, "n": 75}, {"scriptPubKey": {"reqSigs": 1, "hex": "76a91403727a272f023da299dbd05454a14c538fe53ccb88ac", "addresses": ["1KEAb7AQVMHnfKEUwUx5Zjs14hYGhPDWD"], "asm": "OP_DUP OP_HASH160 03727a272f023da299dbd05454a14c538fe53ccb OP_EQUALVERIFY OP_CHECKSIG", "type": "pubkeyhash"}, "value": 0.00109167, "n": 76}, {"scriptPubKey": {"reqSigs": 1, "hex": "a9147b9baf33b44bebef003e58db9ffc0104731d007787", "addresses": ["3CxbYHAJCQfrSPkDFTwoKjCKQoCir7M95N"], "asm": "OP_HASH160 7b9baf33b44bebef003e58db9ffc0104731d0077 OP_EQUAL", "type": "scripthash"}, "value": 0.00110219, "n": 77}, {"scriptPubKey": {"reqSigs": 1, "hex": "76a9141fdecb9f6d94cc0ac509042fca083a4e819c298788ac", "addresses": ["13uWr3UNQJCB1TB6LGEyRRdbdN4D7n4N8d"], "asm": "OP_DUP OP_HASH160 1fdecb9f6d94cc0ac509042fca083a4e819c2987 OP_EQUALVERIFY OP_CHECKSIG", "type": "pubkeyhash"}, "value": 0.00113307, "n": 78}, {"scriptPubKey": {"reqSigs": 1, "hex": "a9145f0519e3fe03e56c46f135de7921b5e78722b10f87", "addresses": ["3AMSECbVp2Biz8SgoaxQRSnYzdvatbFYjK"], "asm": "OP_HASH160 5f0519e3fe03e56c46f135de7921b5e78722b10f OP_EQUAL", "type": "scripthash"}, "value": 0.00109206, "n": 79}, {"scriptPubKey": {"reqSigs": 1, "hex": "76a91435f41746daeb61db039842562dc2690989f6ab7d88ac", "addresses": ["15vHDuJet4Kd4fbJkTEgWm9H4iFi7cbnB9"], "asm": "OP_DUP OP_HASH160 35f41746daeb61db039842562dc2690989f6ab7d OP_EQUALVERIFY OP_CHECKSIG", "type": "pubkeyhash"}, "value": 0.00113674, "n": 80}, {"scriptPubKey": {"reqSigs": 1, "hex": "76a914228f43dec3d2b6073a68a3367c26bb58334357c088ac", "addresses": ["149jbkuzqq6pWPWC4zLqCgpFe348LNmXcB"], "asm": "OP_DUP OP_HASH160 228f43dec3d2b6073a68a3367c26bb58334357c0 OP_EQUALVERIFY OP_CHECKSIG", "type": "pubkeyhash"}, "value": 0.00109703, "n": 81}, {"scriptPubKey": {"reqSigs": 1, "hex": "76a9147522bdb073c97611c3c2fc70949abb105bca2e3488ac", "addresses": ["1BgMgHnJbnkgsvsnBWNhAKKV3rbUMfXuD7"], "asm": "OP_DUP OP_HASH160 7522bdb073c97611c3c2fc70949abb105bca2e34 OP_EQUALVERIFY OP_CHECKSIG", "type": "pubkeyhash"}, "value": 0.00113533, "n": 82}, {"scriptPubKey": {"reqSigs": 1, "hex": "76a9140f27d4f8e49da5a65fbecc8e3993427374fa897a88ac", "addresses": ["12P8rSyyeJuF88gaCCXTjvdt19eaZrxKCH"], "asm": "OP_DUP OP_HASH160 0f27d4f8e49da5a65fbecc8e3993427374fa897a OP_EQUALVERIFY OP_CHECKSIG", "type": "pubkeyhash"}, "value": 0.00109299, "n": 83}, {"scriptPubKey": {"reqSigs": 1, "hex": "76a91470f9ef01fcb75201634e81315f25bfa1045ed9ef88ac", "addresses": ["1BJN6BJcN9GVNChuj42QyYF7MyM95dQsq6"], "asm": "OP_DUP OP_HASH160 70f9ef01fcb75201634e81315f25bfa1045ed9ef OP_EQUALVERIFY OP_CHECKSIG", "type": "pubkeyhash"}, "value": 0.00110486, "n": 84}, {"scriptPubKey": {"reqSigs": 1, "hex": "76a9149a1d81210d995f1ff078ad634f2e0aad6cf0015d88ac", "addresses": ["1F3tQYZw2ABYpvo1tC2biHT2ZV84bGQVcE"], "asm": "OP_DUP OP_HASH160 9a1d81210d995f1ff078ad634f2e0aad6cf0015d OP_EQUALVERIFY OP_CHECKSIG", "type": "pubkeyhash"}, "value": 0.00113744, "n": 85}, {"scriptPubKey": {"reqSigs": 1, "hex": "76a914ad96a9b25280365e9e910684b8e8d4b6834737ad88ac", "addresses": ["1GprPRm4zjAVJnYv5LJ4ZTKJ5hu3GkLKyo"], "asm": "OP_DUP OP_HASH160 ad96a9b25280365e9e910684b8e8d4b6834737ad OP_EQUALVERIFY OP_CHECKSIG", "type": "pubkeyhash"}, "value": 0.00110888, "n": 86}, {"scriptPubKey": {"reqSigs": 1, "hex": "a9140d8ff6a2eee73a098a64f81de11d20f5f7bfaeb287", "addresses": ["32vjAns9UsN36UQVgY9HhwkYATnyQgjboc"], "asm": "OP_HASH160 0d8ff6a2eee73a098a64f81de11d20f5f7bfaeb2 OP_EQUAL", "type": "scripthash"}, "value": 0.00110291, "n": 87}, {"scriptPubKey": {"reqSigs": 1, "hex": "a91471d5871e8d5098e943c8ba819d934762fa04348a87", "addresses": ["3C4v5Pk3JJjcEMDTPJubh6xaPQWnCnktmR"], "asm": "OP_HASH160 71d5871e8d5098e943c8ba819d934762fa04348a OP_EQUAL", "type": "scripthash"}, "value": 0.00112787, "n": 88}, {"scriptPubKey": {"reqSigs": 1, "hex": "76a914ffad756cc9e26c6a0be9dd89d9fe1e639a1cf16788ac", "addresses": ["1QJu73CY2nQTij8enPqDCUeu922dZ7XNyU"], "asm": "OP_DUP OP_HASH160 ffad756cc9e26c6a0be9dd89d9fe1e639a1cf167 OP_EQUALVERIFY OP_CHECKSIG", "type": "pubkeyhash"}, "value": 0.00113141, "n": 89}, {"scriptPubKey": {"reqSigs": 1, "hex": "76a91402d4a516908caebfb00657f447932dfc2ea699c288ac", "addresses": ["1Fy6D6r9ZyVQToa6DZmPrkSJMbJBEuGZf"], "asm": "OP_DUP OP_HASH160 02d4a516908caebfb00657f447932dfc2ea699c2 OP_EQUALVERIFY OP_CHECKSIG", "type": "pubkeyhash"}, "value": 0.00112443, "n": 90}, {"scriptPubKey": {"reqSigs": 1, "hex": "a9141361acfefebaa796e1a722127cea14564ff7688b87", "addresses": ["33TVmpVotLAtRJPdz3PSxZs6RUnQJHssCX"], "asm": "OP_HASH160 1361acfefebaa796e1a722127cea14564ff7688b OP_EQUAL", "type": "scripthash"}, "value": 0.00112981, "n": 91}, {"scriptPubKey": {"reqSigs": 1, "hex": "76a91494a3daccd2afc85ffbc21dbf4f334992c8ed964288ac", "addresses": ["1EYwJDRaeHmVvfKMvmMGXBd1Q78ez2KU4n"], "asm": "OP_DUP OP_HASH160 94a3daccd2afc85ffbc21dbf4f334992c8ed9642 OP_EQUALVERIFY OP_CHECKSIG", "type": "pubkeyhash"}, "value": 0.00112211, "n": 92}, {"scriptPubKey": {"reqSigs": 1, "hex": "76a91450d83ed8b5cb8fb04c63701167f14920488078e788ac", "addresses": ["18NU7M7ZjEyfv8inJTxZ2RriNFuXCnh4dz"], "asm": "OP_DUP OP_HASH160 50d83ed8b5cb8fb04c63701167f14920488078e7 OP_EQUALVERIFY OP_CHECKSIG", "type": "pubkeyhash"}, "value": 0.00113895, "n": 93}, {"scriptPubKey": {"reqSigs": 1, "hex": "76a914ce45e048ed39ab42880e20cc9088650b96f15fe888ac", "addresses": ["1KofubUtX83Ss6VGVcBC7ZGd6UKcyCkUje"], "asm": "OP_DUP OP_HASH160 ce45e048ed39ab42880e20cc9088650b96f15fe8 OP_EQUALVERIFY OP_CHECKSIG", "type": "pubkeyhash"}, "value": 0.00110644, "n": 94}, {"scriptPubKey": {"reqSigs": 1, "hex": "76a914934141a3f16734f0d3f65321cbaf934717df901388ac", "addresses": ["1ERcWJ3G48tyaA7dQ9Gr98bdgBneY5QAdB"], "asm": "OP_DUP OP_HASH160 934141a3f16734f0d3f65321cbaf934717df9013 OP_EQUALVERIFY OP_CHECKSIG", "type": "pubkeyhash"}, "value": 0.00112075, "n": 95}, {"scriptPubKey": {"reqSigs": 1, "hex": "a9147cbff6e48bba92d1de8d0576cfc101d2e99a107e87", "addresses": ["3D4dgFceYSjH1ePJnhZw44rr9CERqUdGSL"], "asm": "OP_HASH160 7cbff6e48bba92d1de8d0576cfc101d2e99a107e OP_EQUAL", "type": "scripthash"}, "value": 0.00114319, "n": 96}, {"scriptPubKey": {"reqSigs": 1, "hex": "a9140584d46fe273ca7771d3a4a5091c8b98beab9b4987", "addresses": ["32CCRgUeAy9mvW5oNx9nLL59273EEsemD1"], "asm": "OP_HASH160 0584d46fe273ca7771d3a4a5091c8b98beab9b49 OP_EQUAL", "type": "scripthash"}, "value": 0.00113543, "n": 97}, {"scriptPubKey": {"reqSigs": 1, "hex": "a914d650331318036e5141a0ff786868d5f9fdc1d19d87", "addresses": ["3MECbxMG7D2rf2TGSoK7XCnEzu9bqF8NC5"], "asm": "OP_HASH160 d650331318036e5141a0ff786868d5f9fdc1d19d OP_EQUAL", "type": "scripthash"}, "value": 0.00111249, "n": 98}, {"scriptPubKey": {"reqSigs": 1, "hex": "76a914661236c2c9a2b42dd571c428b8d48a5733c8fccd88ac", "addresses": ["1AJhk6JFrTZkTe7caqccNo6k73Xogzozas"], "asm": "OP_DUP OP_HASH160 661236c2c9a2b42dd571c428b8d48a5733c8fccd OP_EQUALVERIFY OP_CHECKSIG", "type": "pubkeyhash"}, "value": 0.00112594, "n": 99}, {"scriptPubKey": {"reqSigs": 1, "hex": "76a9149435748c77682e9047b8f559a39040c0b65a284088ac", "addresses": ["1EWf3XdPs2EitQ8kTWVQUyMsY2wgDVgZuE"], "asm": "OP_DUP OP_HASH160 9435748c77682e9047b8f559a39040c0b65a2840 OP_EQUALVERIFY OP_CHECKSIG", "type": "pubkeyhash"}, "value": 0.00111342, "n": 100}], "hex": "0200000001f4db5643e3f96a5b8a18793aebda1e13355deb7c0168c4bdc5d0ed295b95cd681b0000006a47304402200f37729dfe7e30e046d0141ab06bb28a2026c2c28ab5542e85128b0b4ca2f24302200b8087e1ca0053920cc13d7776145130f8b43430d049464fedf950478f2d3c030121032e99ac0f99668c63f77596ec50309f91eba187ec09377aa8439f35d8097a3da1feffffff6574f695a3000000001976a914c9623a77433766ed8acbffaa252348ebd88f921388ac7db00100000000001976a9146b04486149fef3a58c61fc13366efbcfdd68762288ac27ba0100000000001976a91402d001526f5099f0a816f398729d71f3551f6cc588ac8aab0100000000001976a9140758bc665752d4c281eebd6d873d470e58cafb1288ac38ac01000000000017a914e1ad0519c0fea7181215e118ba3b819e79824653871aba0100000000001976a91409045e9ae9a082797a6760a3d1e84828de2d31a788acd7af0100000000001976a91459d9cdaa5de7486ce66641a319bc07e6fc3bba7388ac26bd0100000000001976a914890be901d7207f2b7434ce3aa4fd3d67dd67499a88ac63aa0100000000001976a914f328e3788b690cd87de708bfc8800e6d6861739388ac18c00100000000001976a91498b882846f705f4dcc938bee8fc7db1b6b64be3288ac5cb80100000000001976a914610c48369188fa74c780a2b954f66b0ed353b72a88ac42ba0100000000001976a91465914db6f01051ecd0e0630b2433d05ec2d8a53288ac04b201000000000017a9148572889c1f9999cdf2530cdec6aed4504eb93a1087efaf0100000000001976a91413a4c0b6d2c799a331cd337a0a83e131ad4fd61688ac5eb00100000000001976a9146508df3cee1c075443d4cb28ccea9a84bc4f5ea188ace3b60100000000001976a91480dca4f0d287c452aa77f1ddcac60469004229ef88ac81bf01000000000017a914f7e82acdc466dbde5baadccc4b7568358e3e2124873bab0100000000001976a914ee25ef11da98f29cf3c8a239f9920b3b8e8141ac88ac1db601000000000017a914d5291168f727b71c7bfede155833bb6b2283d1d2875d1b02000000000017a9142039c82a0ccc04b4514a6b0361f73af499b681c787d9b70100000000001976a914f9609fef3f30d9636acd06e62748136ef1120c0588ac8fbc0100000000001976a9147160002dc8013e2d8ba8e90d529a95fce3787a7188acd0ad01000000000017a914d4d51fd4af9927162e6330fe5f8086716267bd03870eac0100000000001976a9144efec67818f561503114e039d506c7de7c7c9c3f88acf4ba0100000000001976a91473e00376be9936e90e31b3dfe8039fda344ce3fe88ac5db40100000000001976a914771469cd316cf716c5518ab72df265f49bfdce4688ac3bb201000000000017a914d47bdea4171cc76d8d6cbc5a1a345ad5d912b2598727bc0100000000001976a914906751d334ac781d8ac16ef930ccf0dd8714316188ac2cb30100000000001976a9142d4a67a26f44358b40bab6aaea383239fa160c9e88ac44ad0100000000001976a914e9db64ed080475b802a491e3e76806b81f43dbee88ac1dbc0100000000001976a91454adfafd8a8274693863895483d177821b10c27d88ac07b00100000000001976a91447e6d2aae67e9d62b7acb827987b51a8919c23d888acceb30100000000001976a914f8925a5b401e569c0e9f48ccbfe5f673d8764ee388ac83b80100000000001976a9140779a38501fd95880abd95327869c9bded821e8288ac4cbb0100000000001976a914341a832ef5fdef876b917d8ee57a0d694210076388acacb10100000000001976a91479633bc5ab04fe3c651cccc814e3de3bfafdd6e488acdcbe0100000000001976a9146efdd326cd0422546edb7eae92b9fd9d3d40166c88ac70b00100000000001976a9149d45f52541359b464265a5d02c3ea44c27cb99d488acafbe0100000000001976a914a13dfd6018e7608cf991e0b9c55a80491da8a45488aca3b10100000000001976a91491bf8bd92476fddf7364f924e6827a8626dbeda688acbabe01000000000017a9148941011731e7d8732e32cf50d46a313c0b34b87e87a3af01000000000017a9148575bfc68fd21670ef965dbe63ad089a01c356a587e7b80100000000001976a9146efcd4721b2c8937b3ebac17cf660ba51fb97bb388acffae01000000000017a914f2ee46aa1e114f216108b409e085355d5d7fd1c787c9aa01000000000017a914ea1a924174d0cbb39f09d9c754d99965c94117688791b90100000000001976a914992e63dc3e849bcdc752ce9446636e94bc3f191688ac09ad0100000000001976a914ae1c4269c3a5acc29fb99147567d717733ed456088ac1cb201000000000017a9147e2a2b3a1b3e74d672218869289c484d091f90b6879fbb01000000000017a914f28f3eb46150e00e78040d413385391d66b8cf8887acb801000000000017a91499f7744c222d1311d718f437678ea525c4af68318798b10100000000001976a9140673c4cf7e73deaf929f5fc1e1fee1f48cb9068688ac0fab0100000000001976a914cd0479336317f061b4d5f9211be702870fccfb5d88ac5aaf0100000000001976a91466ade241e08a60e42f9bff44ed249014f92f7ab888aca4b501000000000017a9143c3c6cad17fcb5023774540477d309476dfa43e88741b30100000000001976a914c56792668ee56582aef911be4052b61481504af288ac5dbc0100000000001976a914f16ff2da1f9b1e43475a9d4738abb591bcd7e2a488acc1ad0100000000001976a914db33f0d4318af764f441938789967d1ec2df088688ac9cbb0100000000001976a9143649b13fd2dcb4531c102d3ea7da0e10a1645de388ac05b901000000000017a9147e0648fedad7e7d900261dc3d9424b66d172bac487b7ac01000000000017a91416fdd18b62f12882ab2102fc03664f2958fc486287a9aa0100000000001976a91479901e954f7b6a009026533d3a427824bccb0f2588accbb901000000000017a9141aa048fee660dccb02fd5522fe851adedaa1077f874cb20100000000001976a91404bb7ed33b245c78b88023d9421470fa7251326b88ac52b10100000000001976a9149ca5d44629b0206d69b27bddc8cdf62dd9f7fd2d88ac2ab80100000000001976a9149af1e0d55cc00e8963d8c49983891537eb8dc34488ace6ad0100000000001976a9146ec1ce321bf9998ee520534a5ed53814b2efba7f88ac60aa01000000000017a91427af7d6ca1ad42668852b1dce417b55f050618fd871ebf0100000000001976a914121aa334ed23ea866f120f619deeb110a9b381cd88ac63b10100000000001976a914f8db70ad70a07ad82b3ea5350fc9e587a081ac8488ac8cb50100000000001976a914896ca3aeab741cdf0e8bf6d57623ca602b5444ab88ac20af0100000000001976a9141b9085d781fb0a9ba5015a0771c2746f6342699c88ac60b70100000000001976a914d9563642a79190dd07fcd641888602a520e7baf588acf8b90100000000001976a914db2cfd98b2f462192f6766dedfb5082d4d1dad0888acfaaa01000000000017a9144a1331689c76a20194db6f812813b84b7f8b3d29877eb10100000000001976a9143c0e9e449e5f63f6b2c5cc7fa5338174af6bdb6188ace6ba01000000000017a91476c131ae4bb158bf37928f5cf21cf4e549f1761c876faa0100000000001976a91403727a272f023da299dbd05454a14c538fe53ccb88ac8bae01000000000017a9147b9baf33b44bebef003e58db9ffc0104731d0077879bba0100000000001976a9141fdecb9f6d94cc0ac509042fca083a4e819c298788ac96aa01000000000017a9145f0519e3fe03e56c46f135de7921b5e78722b10f870abc0100000000001976a91435f41746daeb61db039842562dc2690989f6ab7d88ac87ac0100000000001976a914228f43dec3d2b6073a68a3367c26bb58334357c088ac7dbb0100000000001976a9147522bdb073c97611c3c2fc70949abb105bca2e3488acf3aa0100000000001976a9140f27d4f8e49da5a65fbecc8e3993427374fa897a88ac96af0100000000001976a91470f9ef01fcb75201634e81315f25bfa1045ed9ef88ac50bc0100000000001976a9149a1d81210d995f1ff078ad634f2e0aad6cf0015d88ac28b10100000000001976a914ad96a9b25280365e9e910684b8e8d4b6834737ad88acd3ae01000000000017a9140d8ff6a2eee73a098a64f81de11d20f5f7bfaeb28793b801000000000017a91471d5871e8d5098e943c8ba819d934762fa04348a87f5b90100000000001976a914ffad756cc9e26c6a0be9dd89d9fe1e639a1cf16788ac3bb70100000000001976a91402d4a516908caebfb00657f447932dfc2ea699c288ac55b901000000000017a9141361acfefebaa796e1a722127cea14564ff7688b8753b60100000000001976a91494a3daccd2afc85ffbc21dbf4f334992c8ed964288ace7bc0100000000001976a91450d83ed8b5cb8fb04c63701167f14920488078e788ac34b00100000000001976a914ce45e048ed39ab42880e20cc9088650b96f15fe888accbb50100000000001976a914934141a3f16734f0d3f65321cbaf934717df901388ac8fbe01000000000017a9147cbff6e48bba92d1de8d0576cfc101d2e99a107e8787bb01000000000017a9140584d46fe273ca7771d3a4a5091c8b98beab9b498791b201000000000017a914d650331318036e5141a0ff786868d5f9fdc1d19d87d2b70100000000001976a914661236c2c9a2b42dd571c428b8d48a5733c8fccd88aceeb20100000000001976a9149435748c77682e9047b8f559a39040c0b65a284088ac10490800", "vin": [{"sequence": 4294967294, "scriptSig": {"hex": "47304402200f37729dfe7e30e046d0141ab06bb28a2026c2c28ab5542e85128b0b4ca2f24302200b8087e1ca0053920cc13d7776145130f8b43430d049464fedf950478f2d3c030121032e99ac0f99668c63f77596ec50309f91eba187ec09377aa8439f35d8097a3da1", "asm": "304402200f37729dfe7e30e046d0141ab06bb28a2026c2c28ab5542e85128b0b4ca2f24302200b8087e1ca0053920cc13d7776145130f8b43430d049464fedf950478f2d3c03[ALL] 032e99ac0f99668c63f77596ec50309f91eba187ec09377aa8439f35d8097a3da1"}, "vout": 27, "txid": "68cd955b29edd0c5bdc468017ceb5d35131edaeb3a79188a5b6af9e34356dbf4"}], "txid": "adcb367f294bb57c5a6f82dfeaaa78b82ef0762e62e4ffd1b0e94ad785285881", "blocktime": 1537871767, "version": 2, "confirmations": 11495, "time": 1537871767, "locktime": 542992, "vsize": 3533, "size": 3533}