{"hash": "adcc6fae88653970e3970e6cb0e9c8e8435eddc451127503607ed77932bccbcc", "blockhash": "0000000000000000000dcc0f55137456b1a82d3642486a52398922ac4d620174", "vout": [{"scriptPubKey": {"reqSigs": 1, "hex": "76a914fe32ba2da9f43882e52b3b8f2bcf12acdbb9842d88ac", "addresses": ["1QB5QKNMGoP6ZQkoEf7JBzFz8Y2y2gYDNo"], "asm": "OP_DUP OP_HASH160 fe32ba2da9f43882e52b3b8f2bcf12acdbb9842d OP_EQUALVERIFY OP_CHECKSIG", "type": "pubkeyhash"}, "value": 0.00399617, "n": 0}, {"scriptPubKey": {"reqSigs": 1, "hex": "76a914e8384d50e376e62877b15c4bdbaff3282f911fb688ac", "addresses": ["1NAsDSMzmQUUrxpHtCQSzUhqrbhgE2W2Ff"], "asm": "OP_DUP OP_HASH160 e8384d50e376e62877b15c4bdbaff3282f911fb6 OP_EQUALVERIFY OP_CHECKSIG", "type": "pubkeyhash"}, "value": 0.00593999, "n": 1}], "hex": "0100000001da462141c67842e6a690b37c6be0385ad0d169e02454cf32612adf30e4d9b301010000006b483045022100e4082276811df82477c998b6089f060d7b1716434b1fd1f766e47005e0c6ed76022050e0d8face16597abefdf3abe21aeb6d155345d3db78a9be12b5ea973ba5dbf101210332d60ecfb23feb4d22edcf4e86c382cf3c812038f164ea7c44c2ded9ba333faeffffffff0201190600000000001976a914fe32ba2da9f43882e52b3b8f2bcf12acdbb9842d88ac4f100900000000001976a914e8384d50e376e62877b15c4bdbaff3282f911fb688ac00000000", "vin": [{"sequence": 4294967295, "scriptSig": {"hex": "483045022100e4082276811df82477c998b6089f060d7b1716434b1fd1f766e47005e0c6ed76022050e0d8face16597abefdf3abe21aeb6d155345d3db78a9be12b5ea973ba5dbf101210332d60ecfb23feb4d22edcf4e86c382cf3c812038f164ea7c44c2ded9ba333fae", "asm": "3045022100e4082276811df82477c998b6089f060d7b1716434b1fd1f766e47005e0c6ed76022050e0d8face16597abefdf3abe21aeb6d155345d3db78a9be12b5ea973ba5dbf1[ALL] 0332d60ecfb23feb4d22edcf4e86c382cf3c812038f164ea7c44c2ded9ba333fae"}, "vout": 1, "txid": "01b3d9e430df2a6132cf5424e069d1d05a38e06b7cb390a6e64278c6412146da"}], "txid": "adcc6fae88653970e3970e6cb0e9c8e8435eddc451127503607ed77932bccbcc", "blocktime": 1537870268, "version": 1, "confirmations": 11518, "time": 1537870268, "locktime": 0, "vsize": 226, "size": 226}