{"hash": "a27a5532f44d0d204f1b64394d16825523dfbb9fa7223540d8ade2d0a5df7e3a", "blockhash": "0000000000000000001f76057863aec43deb6fa401d9628bb513d65a8098bfab", "vout": [{"scriptPubKey": {"reqSigs": 1, "hex": "a914751ce8962bd1011ba5adc562285901e2c4cb3fd287", "addresses": ["3CNFcb6FaN45Cy885Vk2BvofBTmQCYyxFr"], "asm": "OP_HASH160 751ce8962bd1011ba5adc562285901e2c4cb3fd2 OP_EQUAL", "type": "scripthash"}, "value": 0.01414194, "n": 0}, {"scriptPubKey": {"reqSigs": 1, "hex": "a9143d5e61d1458befcf122b1c9eebd5f2d54352469c87", "addresses": ["37HWD2cd3pgaqoubvcvWHif1eWSF8tXqMj"], "asm": "OP_HASH160 3d5e61d1458befcf122b1c9eebd5f2d54352469c OP_EQUAL", "type": "scripthash"}, "value": 0.0031, "n": 1}], "hex": "02000000000101b2adddfa14e11e5c4b9bb5512f49e6989b167a397b3803d0ec280360fee73770010000001716001445ad06fd4587075ffbc18097685d00e8e11ad619feffffff02329415000000000017a914751ce8962bd1011ba5adc562285901e2c4cb3fd287f0ba04000000000017a9143d5e61d1458befcf122b1c9eebd5f2d54352469c870247304402202e47082fa83e7bd8c452a51a583a9008a44e6e071e664aa9779068fc0062c6f702204e5e1b5c0c3fef15701590d08625722eb3426b137e2f287c80ca7562e964fc2401210253f6cffeb9c5923b12364fdd524d2483a47248495685a21ff566748d4b827b3f14490800", "vin": [{"txinwitness": ["304402202e47082fa83e7bd8c452a51a583a9008a44e6e071e664aa9779068fc0062c6f702204e5e1b5c0c3fef15701590d08625722eb3426b137e2f287c80ca7562e964fc2401", "0253f6cffeb9c5923b12364fdd524d2483a47248495685a21ff566748d4b827b3f"], "sequence": 4294967294, "scriptSig": {"hex": "16001445ad06fd4587075ffbc18097685d00e8e11ad619", "asm": "001445ad06fd4587075ffbc18097685d00e8e11ad619"}, "vout": 1, "txid": "7037e7fe600328ecd003387b397a169b98e6492f51b59b4b5c1ee114faddadb2"}], "txid": "adcdef5d4f93979ba41bab24184eadf9f39c4480cb4cbcb398a03634ec73c616", "blocktime": 1537873891, "version": 2, "confirmations": 11479, "time": 1537873891, "locktime": 542996, "vsize": 166, "size": 247}