{"hash": "add0efbe8a77e3ef70467cbb7a130fedf6a056f82022700062f7c7f8e86039a0", "blockhash": "0000000000000000001f0ddff1eddb255c1121bcd4da4f1bc9a0da00cae72433", "vout": [{"scriptPubKey": {"reqSigs": 1, "hex": "76a9146f0e634f0834b40dd4a47bea9bb0480b30c1cab988ac", "addresses": ["1B8DEz4CVnTZwvtaT6Gib4qLYPrkcgYW4w"], "asm": "OP_DUP OP_HASH160 6f0e634f0834b40dd4a47bea9bb0480b30c1cab9 OP_EQUALVERIFY OP_CHECKSIG", "type": "pubkeyhash"}, "value": 0.126286, "n": 0}, {"scriptPubKey": {"reqSigs": 1, "hex": "a914bd63bb95f20af3cf3aff0d10e3e6d708982e0c2d87", "addresses": ["3JxR7MSATxivufwQvJJEqNFcVkuNNXKiM7"], "asm": "OP_HASH160 bd63bb95f20af3cf3aff0d10e3e6d708982e0c2d OP_EQUAL", "type": "scripthash"}, "value": 0.078501, "n": 1}], "hex": "0200000001445c01691c575a38cfa8e2d5a8e11b034b6a33c74d31d69a4d683487417c6b38020000006a473044022024933efb4c43d8b23132672838e0169aa8bcc6e1ccd69027ed2f92190275694702206d5d2bc2b6747bc97de27bfb81007ab7397a4e069a1a3d8f60846bc4cc4c16a50121035bfc0b137e014d75b14e8b3eb24ead32543073a721266e156a6af74d82b2e177fdffffff0278b2c000000000001976a9146f0e634f0834b40dd4a47bea9bb0480b30c1cab988ac74c877000000000017a914bd63bb95f20af3cf3aff0d10e3e6d708982e0c2d8711490800", "vin": [{"sequence": 4294967293, "scriptSig": {"hex": "473044022024933efb4c43d8b23132672838e0169aa8bcc6e1ccd69027ed2f92190275694702206d5d2bc2b6747bc97de27bfb81007ab7397a4e069a1a3d8f60846bc4cc4c16a50121035bfc0b137e014d75b14e8b3eb24ead32543073a721266e156a6af74d82b2e177", "asm": "3044022024933efb4c43d8b23132672838e0169aa8bcc6e1ccd69027ed2f92190275694702206d5d2bc2b6747bc97de27bfb81007ab7397a4e069a1a3d8f60846bc4cc4c16a5[ALL] 035bfc0b137e014d75b14e8b3eb24ead32543073a721266e156a6af74d82b2e177"}, "vout": 2, "txid": "386b7c418734684d9ad6314dc7336a4b031be1a8d5e2a8cf385a571c69015c44"}], "txid": "add0efbe8a77e3ef70467cbb7a130fedf6a056f82022700062f7c7f8e86039a0", "blocktime": 1537872018, "version": 2, "confirmations": 11489, "time": 1537872018, "locktime": 542993, "vsize": 223, "size": 223}