{"hash": "add159a5c3e1b9f260dbcfb045949588308f1b634e9838889c66e999c79312c4", "blockhash": "0000000000000000001f0ddff1eddb255c1121bcd4da4f1bc9a0da00cae72433", "vout": [{"scriptPubKey": {"reqSigs": 1, "hex": "a9148cb8a21c685faf958d82e2ed314f7ea908fe047a87", "addresses": ["3EX5hwdyQrM3n4xfVeAfr9DqvArVRXZD83"], "asm": "OP_HASH160 8cb8a21c685faf958d82e2ed314f7ea908fe047a OP_EQUAL", "type": "scripthash"}, "value": 0.00054, "n": 0}, {"scriptPubKey": {"reqSigs": 1, "hex": "76a914c5321fffe61860e0616512f7f90575b88ee0652088ac", "addresses": ["1JygAY7vnh2M6KZjDVCiFa6HWTFk2K7swa"], "asm": "OP_DUP OP_HASH160 c5321fffe61860e0616512f7f90575b88ee06520 OP_EQUALVERIFY OP_CHECKSIG", "type": "pubkeyhash"}, "value": 0.00257636, "n": 1}], "hex": "01000000016adb7e09dbfbb3f3a904a9bb228d22aebffb3305be3398d533c1a5a52ea0faf8010000006b483045022100c66da7a8a33f99674a72c78eab3a4a7a9dfbc7be10d13b099849bccbc0d17b5502204cd74c80f31ee2c40312eb59ec468589312c3bee56c06c6d94931510fdbf1db6012103478bf8d822f262322519967dc6305a601f4ce4ae05ef8c3fdfff3509e3ddc89affffffff02f0d200000000000017a9148cb8a21c685faf958d82e2ed314f7ea908fe047a8764ee0300000000001976a914c5321fffe61860e0616512f7f90575b88ee0652088ac00000000", "vin": [{"sequence": 4294967295, "scriptSig": {"hex": "483045022100c66da7a8a33f99674a72c78eab3a4a7a9dfbc7be10d13b099849bccbc0d17b5502204cd74c80f31ee2c40312eb59ec468589312c3bee56c06c6d94931510fdbf1db6012103478bf8d822f262322519967dc6305a601f4ce4ae05ef8c3fdfff3509e3ddc89a", "asm": "3045022100c66da7a8a33f99674a72c78eab3a4a7a9dfbc7be10d13b099849bccbc0d17b5502204cd74c80f31ee2c40312eb59ec468589312c3bee56c06c6d94931510fdbf1db6[ALL] 03478bf8d822f262322519967dc6305a601f4ce4ae05ef8c3fdfff3509e3ddc89a"}, "vout": 1, "txid": "f8faa02ea5a5c133d59833be0533fbbfae228d22bba904a9f3b3fbdb097edb6a"}], "txid": "add159a5c3e1b9f260dbcfb045949588308f1b634e9838889c66e999c79312c4", "blocktime": 1537872018, "version": 1, "confirmations": 11489, "time": 1537872018, "locktime": 0, "vsize": 224, "size": 224}