{"hash": "51859a7bdf417bac2f7a8e03a7d88c9cc05a768e6b5abad891cf34df51bca4b4", "blockhash": "0000000000000000001cda96e906b7601b7a6fb1a3b62bca570a9e5d8f4b3de1", "vout": [{"scriptPubKey": {"reqSigs": 1, "hex": "76a91423b6eb29cc99e0e93c8aaed968ef98372b60fb8e88ac", "addresses": ["14Fqn84G98BEMxwuvJDVekDtqdHP1zw36v"], "asm": "OP_DUP OP_HASH160 23b6eb29cc99e0e93c8aaed968ef98372b60fb8e OP_EQUALVERIFY OP_CHECKSIG", "type": "pubkeyhash"}, "value": 0.03287638, "n": 0}, {"scriptPubKey": {"reqSigs": 1, "hex": "0014d5fc4f6a766caad89e7c5d94e232d03a0f114a68", "addresses": ["bc1q6h7y76nkdj4d38nutk2wyvks8g83zjngk6d0u4"], "asm": "0 d5fc4f6a766caad89e7c5d94e232d03a0f114a68", "type": "witness_v0_keyhash"}, "value": 0.47633019, "n": 1}], "hex": "01000000000101aef48a0b84ea479e31538e46d6dedb530aae54fa8fc64842b2e152041e458df10100000000ffffffff02562a3200000000001976a91423b6eb29cc99e0e93c8aaed968ef98372b60fb8e88ac7bd2d60200000000160014d5fc4f6a766caad89e7c5d94e232d03a0f114a6802483045022100ea9df4e4c63db1cb75f76c99de2c8f9f4f363d4c1e2a6588fcbf21adb97f0fef0220574c4473a8fc3d6d74168535197a97deee766bdf3e0280e0dcfdb09cf2c55fdd012102857bc0ff609b11854e1466620c5433ba1251444b173839f87b95b15cff3c0d0600000000", "vin": [{"txinwitness": ["3045022100ea9df4e4c63db1cb75f76c99de2c8f9f4f363d4c1e2a6588fcbf21adb97f0fef0220574c4473a8fc3d6d74168535197a97deee766bdf3e0280e0dcfdb09cf2c55fdd01", "02857bc0ff609b11854e1466620c5433ba1251444b173839f87b95b15cff3c0d06"], "sequence": 4294967295, "scriptSig": {"hex": "", "asm": ""}, "vout": 1, "txid": "f18d451e0452e1b24248c68ffa54ae0a53dbded6468e53319e47ea840b8af4ae"}], "txid": "add2fd5a34eccd9f97249981ea99380293a18f9ee2f28983b2fcc20bf1d06d49", "blocktime": 1537873282, "version": 1, "confirmations": 11484, "time": 1537873282, "locktime": 0, "vsize": 144, "size": 226}