{"hash": "add2e5615710264bf30e44c12da3f0e53cf606bd00317287e4da722392313d7c", "blockhash": "0000000000000000000baef3f32e3676a92c3b2e5da21b426e4f302fc371ce76", "vout": [{"scriptPubKey": {"reqSigs": 1, "hex": "a9148ac4d2e21da98cb53ecedd5fb53ea573e99dff5287", "addresses": ["3ELkxa5ZEgUFPLTcPxdU6Bp143zX58fPFm"], "asm": "OP_HASH160 8ac4d2e21da98cb53ecedd5fb53ea573e99dff52 OP_EQUAL", "type": "scripthash"}, "value": 0.01467838, "n": 0}, {"scriptPubKey": {"reqSigs": 1, "hex": "76a9141996ed21492d2dfb4894e5d14b23b386b09f860488ac", "addresses": ["13LJhLccTDm9jKBz91AyJy2Lh35g2aX6CG"], "asm": "OP_DUP OP_HASH160 1996ed21492d2dfb4894e5d14b23b386b09f8604 OP_EQUALVERIFY OP_CHECKSIG", "type": "pubkeyhash"}, "value": 51.61593064, "n": 1}], "hex": "0100000001be763e54ec287141a01cb84b9875a51ebade78ad1529f6c6af10c1bf9808c89d000000006a473044022076446af91377f106fb62159e96afbacd2e91201a630381bd9cb2d5ae7a53750502207ecd3a62b362770b5876673d2f6be2d0e4c74fa3b42ccfc7f8af530d7a55d175012103b92438efcd171bdfcda34c816a6a495b52161bc4f454481b4622fdfb9b82e698ffffffff02be6516000000000017a9148ac4d2e21da98cb53ecedd5fb53ea573e99dff5287e8a8a733010000001976a9141996ed21492d2dfb4894e5d14b23b386b09f860488ac00000000", "vin": [{"sequence": 4294967295, "scriptSig": {"hex": "473044022076446af91377f106fb62159e96afbacd2e91201a630381bd9cb2d5ae7a53750502207ecd3a62b362770b5876673d2f6be2d0e4c74fa3b42ccfc7f8af530d7a55d175012103b92438efcd171bdfcda34c816a6a495b52161bc4f454481b4622fdfb9b82e698", "asm": "3044022076446af91377f106fb62159e96afbacd2e91201a630381bd9cb2d5ae7a53750502207ecd3a62b362770b5876673d2f6be2d0e4c74fa3b42ccfc7f8af530d7a55d175[ALL] 03b92438efcd171bdfcda34c816a6a495b52161bc4f454481b4622fdfb9b82e698"}, "vout": 0, "txid": "9dc80898bfc110afc6f62915ad78deba1ea575984bb81ca0417128ec543e76be"}], "txid": "add2e5615710264bf30e44c12da3f0e53cf606bd00317287e4da722392313d7c", "blocktime": 1537876114, "version": 1, "confirmations": 11459, "time": 1537876114, "locktime": 0, "vsize": 223, "size": 223}