{"hash": "add31c189e5e645e4c8daeb22ac23d03e1240f613693b521fd93c86921effff3", "blockhash": "0000000000000000001f0ddff1eddb255c1121bcd4da4f1bc9a0da00cae72433", "vout": [{"scriptPubKey": {"reqSigs": 1, "hex": "76a91481397f6f1878e3c5399e2cbd8c1ef09cf0563dea88ac", "addresses": ["1CnH3mEB3gmsnMhBHzLBryBm3pw7hk2SEG"], "asm": "OP_DUP OP_HASH160 81397f6f1878e3c5399e2cbd8c1ef09cf0563dea OP_EQUALVERIFY OP_CHECKSIG", "type": "pubkeyhash"}, "value": 0.00105, "n": 0}, {"scriptPubKey": {"reqSigs": 1, "hex": "76a9143d20e3b9cebd1d834b1a1353fdeadc14923eefd388ac", "addresses": ["16aDcufGKMcQqR4VZwc5VnD917wHPA1VFG"], "asm": "OP_DUP OP_HASH160 3d20e3b9cebd1d834b1a1353fdeadc14923eefd3 OP_EQUALVERIFY OP_CHECKSIG", "type": "pubkeyhash"}, "value": 1.28372708, "n": 1}], "hex": "0100000001e45bdb154b67ba24029b79e49c9e203c6c053d7f78d0af45406b924555633e8d010000006b483045022100d0df8819d635e87f1dfd05e0b53d4f33b30410b589d36ac5a6de44ecfde5a117022050a54e7fb869c9d11b9b912d738e8fb701f4d5185c588dbd44ee1e24af88c38a012103aa21e6b23f2e47dc44524407716205b4f14c313511145acbbff6cb4c444b34f7ffffffff02289a0100000000001976a91481397f6f1878e3c5399e2cbd8c1ef09cf0563dea88ace4cfa607000000001976a9143d20e3b9cebd1d834b1a1353fdeadc14923eefd388ac00000000", "vin": [{"sequence": 4294967295, "scriptSig": {"hex": "483045022100d0df8819d635e87f1dfd05e0b53d4f33b30410b589d36ac5a6de44ecfde5a117022050a54e7fb869c9d11b9b912d738e8fb701f4d5185c588dbd44ee1e24af88c38a012103aa21e6b23f2e47dc44524407716205b4f14c313511145acbbff6cb4c444b34f7", "asm": "3045022100d0df8819d635e87f1dfd05e0b53d4f33b30410b589d36ac5a6de44ecfde5a117022050a54e7fb869c9d11b9b912d738e8fb701f4d5185c588dbd44ee1e24af88c38a[ALL] 03aa21e6b23f2e47dc44524407716205b4f14c313511145acbbff6cb4c444b34f7"}, "vout": 1, "txid": "8d3e635545926b4045afd0787f3d056c3c209e9ce4799b0224ba674b15db5be4"}], "txid": "add31c189e5e645e4c8daeb22ac23d03e1240f613693b521fd93c86921effff3", "blocktime": 1537872018, "version": 1, "confirmations": 11489, "time": 1537872018, "locktime": 0, "vsize": 226, "size": 226}