{"hash": "56441139d58ba8dab3489693f0ca740dfd86834a02c01984814489f90d64ee56", "blockhash": "0000000000000000001f0ddff1eddb255c1121bcd4da4f1bc9a0da00cae72433", "vout": [{"scriptPubKey": {"reqSigs": 1, "hex": "a91469f3740e09560f0dd78294cc3f7ce3dbb450ecae87", "addresses": ["3BMEX7wcxRyNEAS3KNEdS6ZCtWstyFj4AJ"], "asm": "OP_HASH160 69f3740e09560f0dd78294cc3f7ce3dbb450ecae OP_EQUAL", "type": "scripthash"}, "value": 0.01460553, "n": 0}, {"scriptPubKey": {"reqSigs": 1, "hex": "76a91456174be7cc77a237ecf2c51b4df4d5b3e6e803a688ac", "addresses": ["18rD2Agpkv8nDtvrigdSCSNnZ87a4GL5y4"], "asm": "OP_DUP OP_HASH160 56174be7cc77a237ecf2c51b4df4d5b3e6e803a6 OP_EQUALVERIFY OP_CHECKSIG", "type": "pubkeyhash"}, "value": 0.25031763, "n": 1}, {"scriptPubKey": {"reqSigs": 1, "hex": "a914d7416a58e7b9fb2a8c5f0d51061c81298d94dca187", "addresses": ["3MKBZvum96sgMGi1CZHuUMBXvKk1rQ5Gue"], "asm": "OP_HASH160 d7416a58e7b9fb2a8c5f0d51061c81298d94dca1 OP_EQUAL", "type": "scripthash"}, "value": 0.04967682, "n": 2}, {"scriptPubKey": {"reqSigs": 1, "hex": "76a914708e8509b56e7ec7ad4c7da531999e764699c2b788ac", "addresses": ["1BG9QvhqadhkC1NnJaKrEsUGwTsgxbWqEv"], "asm": "OP_DUP OP_HASH160 708e8509b56e7ec7ad4c7da531999e764699c2b7 OP_EQUALVERIFY OP_CHECKSIG", "type": "pubkeyhash"}, "value": 0.12535317, "n": 3}, {"scriptPubKey": {"reqSigs": 1, "hex": "76a914827271b2e4184b89487838f5ef7b33beac64e61688ac", "addresses": ["1Ctjwf3WyN9vzFqiX1Mrt3y7aUdLFMiwes"], "asm": "OP_DUP OP_HASH160 827271b2e4184b89487838f5ef7b33beac64e616 OP_EQUALVERIFY OP_CHECKSIG", "type": "pubkeyhash"}, "value": 0.1252544, "n": 4}, {"scriptPubKey": {"reqSigs": 1, "hex": "76a914ffd637776abd4dde80d0d259297e8864fa4e11dc88ac", "addresses": ["1QKjvxCKBUTd7vn8F4L8CicuchbJVX1MFr"], "asm": "OP_DUP OP_HASH160 ffd637776abd4dde80d0d259297e8864fa4e11dc OP_EQUALVERIFY OP_CHECKSIG", "type": "pubkeyhash"}, "value": 0.04984117, "n": 5}, {"scriptPubKey": {"reqSigs": 1, "hex": "a9141d250c324cd252727046475c13835a2fbc4cf0bb87", "addresses": ["34M7uDqcoH7XJP7WPNkYVaGAXFzXJnxNgo"], "asm": "OP_HASH160 1d250c324cd252727046475c13835a2fbc4cf0bb OP_EQUAL", "type": "scripthash"}, "value": 0.00870454, "n": 6}], "hex": "02000000000101f651e219b52be72ff415091bb1b02c82609035ff6c7cf7cd366a955e2c73d6783c000000171600149071e3182c8bb31fb5625bd8e528edfd00f10544ffffffff07494916000000000017a91469f3740e09560f0dd78294cc3f7ce3dbb450ecae8753f47d01000000001976a91456174be7cc77a237ecf2c51b4df4d5b3e6e803a688ac02cd4b000000000017a914d7416a58e7b9fb2a8c5f0d51061c81298d94dca1871546bf00000000001976a914708e8509b56e7ec7ad4c7da531999e764699c2b788ac801fbf00000000001976a914827271b2e4184b89487838f5ef7b33beac64e61688ac350d4c00000000001976a914ffd637776abd4dde80d0d259297e8864fa4e11dc88ac36480d000000000017a9141d250c324cd252727046475c13835a2fbc4cf0bb870247304402206f4babeb50295bb3e22ca5833c1c3b387f7dc9c5ade205d51acb01897f35a4f4022037c7cc9adc3f4429742aea9e78c3d66f768515faf2e19ed4958fdc8d8a899b90012103d70dc638c5ec877b21b1e5bf5200ae704539b3eb1322e580d2205dabf7b63c1f00000000", "vin": [{"txinwitness": ["304402206f4babeb50295bb3e22ca5833c1c3b387f7dc9c5ade205d51acb01897f35a4f4022037c7cc9adc3f4429742aea9e78c3d66f768515faf2e19ed4958fdc8d8a899b9001", "03d70dc638c5ec877b21b1e5bf5200ae704539b3eb1322e580d2205dabf7b63c1f"], "sequence": 4294967295, "scriptSig": {"hex": "1600149071e3182c8bb31fb5625bd8e528edfd00f10544", "asm": "00149071e3182c8bb31fb5625bd8e528edfd00f10544"}, "vout": 60, "txid": "78d6732c5e956a36cdf77c6cff359060822cb0b11b0915f42fe72bb519e251f6"}], "txid": "add566af1c7dfdd54983642584efa1e5b1631baefab551f83b30d9c16368354d", "blocktime": 1537872018, "version": 2, "confirmations": 11489, "time": 1537872018, "locktime": 0, "vsize": 334, "size": 415}