{"hash": "add78b50d0bdb49e51e8c726b0b3fca7ee31f8c86d8da4838cac832b05ee7b18", "blockhash": "0000000000000000001e0dab787dd257d1dbfcb92a98c2207d5e1078be1f4165", "vout": [{"scriptPubKey": {"reqSigs": 1, "hex": "a9146420b56d5f7de5f3e976ecb168170e7ee575496387", "addresses": ["3ApSgNFG15qrEyBR88jwc5SgpXEFKqJfHu"], "asm": "OP_HASH160 6420b56d5f7de5f3e976ecb168170e7ee5754963 OP_EQUAL", "type": "scripthash"}, "value": 0.0023433, "n": 0}, {"scriptPubKey": {"reqSigs": 1, "hex": "76a91480047d8893819a590e84ff46a700d26be85d2a6a88ac", "addresses": ["1CftsYvLx8iKcEXMvT3eWVTbJQP6TrRVxZ"], "asm": "OP_DUP OP_HASH160 80047d8893819a590e84ff46a700d26be85d2a6a OP_EQUALVERIFY OP_CHECKSIG", "type": "pubkeyhash"}, "value": 0.00387817, "n": 1}], "hex": "010000000122c23fe4724da188476dee6b4ab9da34fcabac65e40aa4e74ba1535187715668000000006b483045022100dab839ce4fd51bcfbd2e9bea81fc64b18f961bff5c981c2d97bb9e5e82ef51b602206d1ec6525db07d65914dfac9f57f09a212d703d251ffb64ca7793ff89f7a98000121036572ce7d1896cd5cfcbe2a931ee4a79be120d40eb50745dcf144a7dfe238f5deffffffff025a9303000000000017a9146420b56d5f7de5f3e976ecb168170e7ee575496387e9ea0500000000001976a91480047d8893819a590e84ff46a700d26be85d2a6a88ac00000000", "vin": [{"sequence": 4294967295, "scriptSig": {"hex": "483045022100dab839ce4fd51bcfbd2e9bea81fc64b18f961bff5c981c2d97bb9e5e82ef51b602206d1ec6525db07d65914dfac9f57f09a212d703d251ffb64ca7793ff89f7a98000121036572ce7d1896cd5cfcbe2a931ee4a79be120d40eb50745dcf144a7dfe238f5de", "asm": "3045022100dab839ce4fd51bcfbd2e9bea81fc64b18f961bff5c981c2d97bb9e5e82ef51b602206d1ec6525db07d65914dfac9f57f09a212d703d251ffb64ca7793ff89f7a9800[ALL] 036572ce7d1896cd5cfcbe2a931ee4a79be120d40eb50745dcf144a7dfe238f5de"}, "vout": 0, "txid": "685671875153a14be7a40ae465acabfc34dab94a6bee6d4788a14d72e43fc222"}], "txid": "add78b50d0bdb49e51e8c726b0b3fca7ee31f8c86d8da4838cac832b05ee7b18", "blocktime": 1537872475, "version": 1, "confirmations": 11486, "time": 1537872475, "locktime": 0, "vsize": 224, "size": 224}