{"hash": "add8957aa7e9188e140454f00bbdf9474ea9211b471c618f76b8515963715d23", "blockhash": "0000000000000000000dcc0f55137456b1a82d3642486a52398922ac4d620174", "vout": [{"scriptPubKey": {"reqSigs": 1, "hex": "76a9141e58284a6f1e4c2dda3de0266ecf8550453eb63288ac", "addresses": ["13mSt3B1osnBkA6ojiJxm37WzpqRky78vN"], "asm": "OP_DUP OP_HASH160 1e58284a6f1e4c2dda3de0266ecf8550453eb632 OP_EQUALVERIFY OP_CHECKSIG", "type": "pubkeyhash"}, "value": 1.79074383, "n": 0}, {"scriptPubKey": {"reqSigs": 1, "hex": "a91469f3754845bf1f45080b7ce8ff7e737a94dcc03987", "addresses": ["3BMEXTGM4BFaURom8cgVSgu7B1oR2k7t9t"], "asm": "OP_HASH160 69f3754845bf1f45080b7ce8ff7e737a94dcc039 OP_EQUAL", "type": "scripthash"}, "value": 0.1309677, "n": 1}], "hex": "02000000015161fe49ed357613ab7a55db4c5d2a37a5f078a7b1b0f554e24f077d04fab90a010000006b483045022100940b8e07e43af8844e779108ef578b9ffa08bd80787d1747864ab7a3f433cb260220505a309d8c4d52564cdd50ec4545cc5d0a3fcd92685d0d913fb47a51e1774fae01210288508d7c5038a728748b5311bba084c2e22ec461445004d2d064a58594d535d0feffffff024f75ac0a000000001976a9141e58284a6f1e4c2dda3de0266ecf8550453eb63288ac42d7c7000000000017a91469f3754845bf1f45080b7ce8ff7e737a94dcc039870c490800", "vin": [{"sequence": 4294967294, "scriptSig": {"hex": "483045022100940b8e07e43af8844e779108ef578b9ffa08bd80787d1747864ab7a3f433cb260220505a309d8c4d52564cdd50ec4545cc5d0a3fcd92685d0d913fb47a51e1774fae01210288508d7c5038a728748b5311bba084c2e22ec461445004d2d064a58594d535d0", "asm": "3045022100940b8e07e43af8844e779108ef578b9ffa08bd80787d1747864ab7a3f433cb260220505a309d8c4d52564cdd50ec4545cc5d0a3fcd92685d0d913fb47a51e1774fae[ALL] 0288508d7c5038a728748b5311bba084c2e22ec461445004d2d064a58594d535d0"}, "vout": 1, "txid": "0ab9fa047d074fe254f5b0b1a778f0a5372a5d4cdb557aab137635ed49fe6151"}], "txid": "add8957aa7e9188e140454f00bbdf9474ea9211b471c618f76b8515963715d23", "blocktime": 1537870268, "version": 2, "confirmations": 11518, "time": 1537870268, "locktime": 542988, "vsize": 224, "size": 224}