{"hash": "313d01ca427dde484d0f20855c2d5c0cef9196979c600a2eb1d03b5acdc9160c", "blockhash": "0000000000000000000baef3f32e3676a92c3b2e5da21b426e4f302fc371ce76", "vout": [{"scriptPubKey": {"reqSigs": 1, "hex": "a914691a826329150e4e827dff6ddff33f2158c4a68687", "addresses": ["3BGkdaxAEDhfH9HyY1PBPY4QH7a4oQnATE"], "asm": "OP_HASH160 691a826329150e4e827dff6ddff33f2158c4a686 OP_EQUAL", "type": "scripthash"}, "value": 0.00234291, "n": 0}], "hex": "01000000000102e26877c477bd12055888e7d800771726b2656d1db8298b92f3e92401f8e3eba00000000023220020690ee5fec4202d0531ea200844f2f30143431f0f361467665d9a61a57c60d7abffffffffe84291e2cede1f4d43d36b87ea0155a783c039abfeaa2fe83924f5352a177c2a00000000232200209f241a08fffe64f88ac2c5f4850b14d524ebaf0548fda723f4db542fe0088756ffffffff01339303000000000017a914691a826329150e4e827dff6ddff33f2158c4a686870400483045022100ca69b4a8bb6c6b9df72156d9fe46f1263a04c3a743471c2bf4b3f839137cdaf80220040394a0448c24aa04ebf47c5849edff788c7e1c3fb001b01298b9e0790b0616014730440220208df9edd3cc355304579d9b9db3611c6466d62eaaf9ce2c6e483a354b9cd72c02207352df94ccdebc08db2c241ab671df9231ba57e1d7bdd53c52b3a538aff6a3f2016952210351ea5ebc8907e6ec7e3f98b7859d64589c50625f6825454835bf3bb2c0f918b82103d4930c43fff75f5ca9600d81ed6fb7b8b30c4e756c9d7d1e0ff5681148259fe621025240af5bd581b9365a93f65e93a41e14007afa41667ec9137f19d31fe80650cf53ae0400483045022100b81cdbdd005a0e444c851811080d8fdf731b7fbec6c77b7476b3ff127f2214e202202114aa8603c297d5e681100f07697cb3d45ec17438c1eb0f6263ea3e67099f58014730440220532bfac5f940d43a0ba4772853734b75c4664f28392501fc3abfcd4f241c7a30022032080bd69f51b2b7d90b734310dba0a5cf8ba8669f5b4956474661d623492cbf01695221037a352f72549c60bcc9f5273acd834af6c6c671fe0e52ea2ed461eb93cc9db22e21032775fb18c4fe91e23096227ad72cc2cf0ee82626fe47bcc678c17731ed615ce6210382418bbcbc2ef7e11ef4ebbe8dfd70653afaf6a608b6ee0f6845d4e42d3a1ddb53ae18490800", "vin": [{"txinwitness": ["", "3045022100ca69b4a8bb6c6b9df72156d9fe46f1263a04c3a743471c2bf4b3f839137cdaf80220040394a0448c24aa04ebf47c5849edff788c7e1c3fb001b01298b9e0790b061601", "30440220208df9edd3cc355304579d9b9db3611c6466d62eaaf9ce2c6e483a354b9cd72c02207352df94ccdebc08db2c241ab671df9231ba57e1d7bdd53c52b3a538aff6a3f201", "52210351ea5ebc8907e6ec7e3f98b7859d64589c50625f6825454835bf3bb2c0f918b82103d4930c43fff75f5ca9600d81ed6fb7b8b30c4e756c9d7d1e0ff5681148259fe621025240af5bd581b9365a93f65e93a41e14007afa41667ec9137f19d31fe80650cf53ae"], "sequence": 4294967295, "scriptSig": {"hex": "220020690ee5fec4202d0531ea200844f2f30143431f0f361467665d9a61a57c60d7ab", "asm": "0020690ee5fec4202d0531ea200844f2f30143431f0f361467665d9a61a57c60d7ab"}, "vout": 0, "txid": "a0ebe3f80124e9f3928b29b81d6d65b226177700d8e788580512bd77c47768e2"}, {"txinwitness": ["", "3045022100b81cdbdd005a0e444c851811080d8fdf731b7fbec6c77b7476b3ff127f2214e202202114aa8603c297d5e681100f07697cb3d45ec17438c1eb0f6263ea3e67099f5801", "30440220532bfac5f940d43a0ba4772853734b75c4664f28392501fc3abfcd4f241c7a30022032080bd69f51b2b7d90b734310dba0a5cf8ba8669f5b4956474661d623492cbf01", "5221037a352f72549c60bcc9f5273acd834af6c6c671fe0e52ea2ed461eb93cc9db22e21032775fb18c4fe91e23096227ad72cc2cf0ee82626fe47bcc678c17731ed615ce6210382418bbcbc2ef7e11ef4ebbe8dfd70653afaf6a608b6ee0f6845d4e42d3a1ddb53ae"], "sequence": 4294967295, "scriptSig": {"hex": "2200209f241a08fffe64f88ac2c5f4850b14d524ebaf0548fda723f4db542fe0088756", "asm": "00209f241a08fffe64f88ac2c5f4850b14d524ebaf0548fda723f4db542fe0088756"}, "vout": 0, "txid": "2a7c172a35f52439e82faafeab39c083a75501ea876bd3434d1fdecee29142e8"}], "txid": "add9891307dc4b283b1f771a52015be467bee507954002f8d0dd4e9ef4189e03", "blocktime": 1537876114, "version": 1, "confirmations": 11460, "time": 1537876114, "locktime": 543000, "vsize": 321, "size": 702}