{"hash": "adda1499f7b4ab283729cf7478a2e6764224878d182c8e5d0a3fde4d00389882", "blockhash": "00000000000000000018f53835495a110e01622372bf6ae95dc86f2b0ab887b0", "vout": [{"scriptPubKey": {"reqSigs": 1, "hex": "76a914ae6f2dc2daf490a8a794a440c36cf4686bbb02d188ac", "addresses": ["1GuKmDQALxfd5D2JdGqGorSEKptnG4akLV"], "asm": "OP_DUP OP_HASH160 ae6f2dc2daf490a8a794a440c36cf4686bbb02d1 OP_EQUALVERIFY OP_CHECKSIG", "type": "pubkeyhash"}, "value": 0.01003875, "n": 0}, {"scriptPubKey": {"reqSigs": 1, "hex": "76a914be8002c06dbe972ea7f97f7fd830591003e44e4f88ac", "addresses": ["1JNGjnrLqHy5yhfSiADzy3GYpHmWH5fGhg"], "asm": "OP_DUP OP_HASH160 be8002c06dbe972ea7f97f7fd830591003e44e4f OP_EQUALVERIFY OP_CHECKSIG", "type": "pubkeyhash"}, "value": 0.00234623, "n": 1}], "hex": "02000000024496a034454891956db8007cdd5d7d596dcdbd7b3085eef33b233b689b52ad99010000006a4730440220795d1faa30d4cb7d0c3c35c6a9088c8c255182cf54a2fdfa24627cd2106706d402203cae40d5fcdc1dbc8138e9c4c2503086aa56cb3462af448c25580f4e1cb3aad0012102a5a413c33ad95714e36b10608b71221394fa90ee7906777912ca9f0d2fd05beafeffffff4619ee38a17e3fee8ee7a618d155a21cfb005defd5a33f0d7542480e3edf48b4010000006b483045022100ac686a5f68cbaa8c747a6685e0c67277232ff916363819c1a29b1ee2dfd9d6780220266f8e11262439f925f27afc046cafb12a645f16da93130efcfc8773c0e45a44012103c27222235b17af928f3c6693242686976c2351863d29b1fb0a56244cdff244d9feffffff0263510f00000000001976a914ae6f2dc2daf490a8a794a440c36cf4686bbb02d188ac7f940300000000001976a914be8002c06dbe972ea7f97f7fd830591003e44e4f88acca480800", "vin": [{"sequence": 4294967294, "scriptSig": {"hex": "4730440220795d1faa30d4cb7d0c3c35c6a9088c8c255182cf54a2fdfa24627cd2106706d402203cae40d5fcdc1dbc8138e9c4c2503086aa56cb3462af448c25580f4e1cb3aad0012102a5a413c33ad95714e36b10608b71221394fa90ee7906777912ca9f0d2fd05bea", "asm": "30440220795d1faa30d4cb7d0c3c35c6a9088c8c255182cf54a2fdfa24627cd2106706d402203cae40d5fcdc1dbc8138e9c4c2503086aa56cb3462af448c25580f4e1cb3aad0[ALL] 02a5a413c33ad95714e36b10608b71221394fa90ee7906777912ca9f0d2fd05bea"}, "vout": 1, "txid": "99ad529b683b233bf3ee85307bbdcd6d597d5ddd7c00b86d9591484534a09644"}, {"sequence": 4294967294, "scriptSig": {"hex": "483045022100ac686a5f68cbaa8c747a6685e0c67277232ff916363819c1a29b1ee2dfd9d6780220266f8e11262439f925f27afc046cafb12a645f16da93130efcfc8773c0e45a44012103c27222235b17af928f3c6693242686976c2351863d29b1fb0a56244cdff244d9", "asm": "3045022100ac686a5f68cbaa8c747a6685e0c67277232ff916363819c1a29b1ee2dfd9d6780220266f8e11262439f925f27afc046cafb12a645f16da93130efcfc8773c0e45a44[ALL] 03c27222235b17af928f3c6693242686976c2351863d29b1fb0a56244cdff244d9"}, "vout": 1, "txid": "b448df3e0e4842750d3fa3d5ef5d00fb1ca255d118a6e78eee3f7ea138ee1946"}], "txid": "adda1499f7b4ab283729cf7478a2e6764224878d182c8e5d0a3fde4d00389882", "blocktime": 1537870928, "version": 2, "confirmations": 11514, "time": 1537870928, "locktime": 542922, "vsize": 373, "size": 373}