{"hash": "7e3eeb28b21741b7673a06feefa218e8838533c98b1f4b6f8e6101cb7d8ff258", "blockhash": "0000000000000000001e0dab787dd257d1dbfcb92a98c2207d5e1078be1f4165", "vout": [{"scriptPubKey": {"reqSigs": 1, "hex": "a914e9ee614c14341c2a5b8603797a048c64da19995887", "addresses": ["3P1vwBFwoG26bQLnXAnJK4gbsvn3eTsW3a"], "asm": "OP_HASH160 e9ee614c14341c2a5b8603797a048c64da199958 OP_EQUAL", "type": "scripthash"}, "value": 0.08423899, "n": 0}, {"scriptPubKey": {"reqSigs": 1, "hex": "a914e8f25b5b8a63472ecd5359a2545636838c6b2e0287", "addresses": ["3Nvj2JGtAm1LWkCPcP22mR68gfR91cZFAw"], "asm": "OP_HASH160 e8f25b5b8a63472ecd5359a2545636838c6b2e02 OP_EQUAL", "type": "scripthash"}, "value": 0.01774322, "n": 1}], "hex": "010000000001015685dd29048cbc827a4933fc25efabfab0b22ede8cd54b9af97713064d8a5dc2010000002322002091b054fca67174e7b1a23a134891a50bddb323f43aec78fd3d9d1a16240ed44dffffffff02db8980000000000017a914e9ee614c14341c2a5b8603797a048c64da19995887f2121b000000000017a914e8f25b5b8a63472ecd5359a2545636838c6b2e02870400483045022100e0a2274bcfa9d851f61479e076ed80c3e0c9cfd56aefaa1034e559aeb4754a7d02200c41f4eec0156c450697b226ce0fc3501ca9aee531b75382877af0339f60383401473044022052ae032164036a6e34f36ae06f89e0daf5852f14f2992043245f630da12404cb02200ff4579c89146219cd737fe71ae7067ea88ca23e2ed06f055ce69815efece2f60169522103998a056104f1cdec2a31799bfc445977b73e7a81cc0e6a226478fa364e79034621020044adf055c428074bc9e91cea7beb81e106fcc7d1eb9da505783afbf3b4d3b12102f89c26c396eb687680dce312050779f829342a72d3d9bd45795bebe09acf610c53ae00000000", "vin": [{"txinwitness": ["", "3045022100e0a2274bcfa9d851f61479e076ed80c3e0c9cfd56aefaa1034e559aeb4754a7d02200c41f4eec0156c450697b226ce0fc3501ca9aee531b75382877af0339f60383401", "3044022052ae032164036a6e34f36ae06f89e0daf5852f14f2992043245f630da12404cb02200ff4579c89146219cd737fe71ae7067ea88ca23e2ed06f055ce69815efece2f601", "522103998a056104f1cdec2a31799bfc445977b73e7a81cc0e6a226478fa364e79034621020044adf055c428074bc9e91cea7beb81e106fcc7d1eb9da505783afbf3b4d3b12102f89c26c396eb687680dce312050779f829342a72d3d9bd45795bebe09acf610c53ae"], "sequence": 4294967295, "scriptSig": {"hex": "22002091b054fca67174e7b1a23a134891a50bddb323f43aec78fd3d9d1a16240ed44d", "asm": "002091b054fca67174e7b1a23a134891a50bddb323f43aec78fd3d9d1a16240ed44d"}, "vout": 1, "txid": "c25d8a4d061377f99a4bd58cde2eb2b0faabef25fc33497a82bc8c0429dd8556"}], "txid": "ade4c2ede4ae5b1d332c3daa3ea3bb22961bc8affb654c0642820457e7b38a01", "blocktime": 1537872475, "version": 1, "confirmations": 11486, "time": 1537872475, "locktime": 0, "vsize": 214, "size": 405}