{"hash": "adea44515d1bf03b2b012ad30d503dff89c261f1af47ea7b0a738c029eacb11b", "blockhash": "0000000000000000001f0ddff1eddb255c1121bcd4da4f1bc9a0da00cae72433", "vout": [{"scriptPubKey": {"reqSigs": 1, "hex": "76a91472edf68c748fa1dbc4660e9cc7e9b8ec26e1f6f188ac", "addresses": ["1BUh6qLU7jJ5FKcXog8RaM3DermKbskaWt"], "asm": "OP_DUP OP_HASH160 72edf68c748fa1dbc4660e9cc7e9b8ec26e1f6f1 OP_EQUALVERIFY OP_CHECKSIG", "type": "pubkeyhash"}, "value": 1.674e-05, "n": 0}, {"scriptPubKey": {"reqSigs": 1, "hex": "76a914136f8c8ced73ed95cff296548795d8acda2826f488ac", "addresses": ["12mmUD197PqumzENXH1YZKqEYkpVPP4fZa"], "asm": "OP_DUP OP_HASH160 136f8c8ced73ed95cff296548795d8acda2826f4 OP_EQUALVERIFY OP_CHECKSIG", "type": "pubkeyhash"}, "value": 0.07748946, "n": 1}], "hex": "010000000271461ff4f25a229da1cae9e307563ad731961e1166d6bdf434fcab73c2bca9ae000000006a47304402205b6950cb7d58e93868d301eaab3652610ea27e0ca5299bdb5e24f17503105fa2022036b2ff917445329a043cd88f84db5abb6c711d7667c6a8f252abd6e3b41a18dc0121029d232e676c0ae5cd5270777d141baf0c84d9f1aa51871e0cf3e7abfb6e664347ffffffff3324fdab3b8c45d0aec5498fbb67c66488e5dc11c58c57e4f2d4e0ce24d945d5000000006b483045022100b98dd35ec460d5734bf5f6c7fedfc09b627832d365618254ef03a07b345fec2702207245f197c41ef42421e67eb13877a334b1dee1606aaf4f88cb84860cb5e78ef501210286c08da77010a2baac201fb77f31d406f31609f28c99c5ad9d5cd77cf87f3a0fffffffff028a060000000000001976a91472edf68c748fa1dbc4660e9cc7e9b8ec26e1f6f188ac523d7600000000001976a914136f8c8ced73ed95cff296548795d8acda2826f488ac00000000", "vin": [{"sequence": 4294967295, "scriptSig": {"hex": "47304402205b6950cb7d58e93868d301eaab3652610ea27e0ca5299bdb5e24f17503105fa2022036b2ff917445329a043cd88f84db5abb6c711d7667c6a8f252abd6e3b41a18dc0121029d232e676c0ae5cd5270777d141baf0c84d9f1aa51871e0cf3e7abfb6e664347", "asm": "304402205b6950cb7d58e93868d301eaab3652610ea27e0ca5299bdb5e24f17503105fa2022036b2ff917445329a043cd88f84db5abb6c711d7667c6a8f252abd6e3b41a18dc[ALL] 029d232e676c0ae5cd5270777d141baf0c84d9f1aa51871e0cf3e7abfb6e664347"}, "vout": 0, "txid": "aea9bcc273abfc34f4bdd666111e9631d73a5607e3e9caa19d225af2f41f4671"}, {"sequence": 4294967295, "scriptSig": {"hex": "483045022100b98dd35ec460d5734bf5f6c7fedfc09b627832d365618254ef03a07b345fec2702207245f197c41ef42421e67eb13877a334b1dee1606aaf4f88cb84860cb5e78ef501210286c08da77010a2baac201fb77f31d406f31609f28c99c5ad9d5cd77cf87f3a0f", "asm": "3045022100b98dd35ec460d5734bf5f6c7fedfc09b627832d365618254ef03a07b345fec2702207245f197c41ef42421e67eb13877a334b1dee1606aaf4f88cb84860cb5e78ef5[ALL] 0286c08da77010a2baac201fb77f31d406f31609f28c99c5ad9d5cd77cf87f3a0f"}, "vout": 0, "txid": "d545d924cee0d4f2e4578cc511dce58864c667bb8f49c5aed0458c3babfd2433"}], "txid": "adea44515d1bf03b2b012ad30d503dff89c261f1af47ea7b0a738c029eacb11b", "blocktime": 1537872018, "version": 1, "confirmations": 11489, "time": 1537872018, "locktime": 0, "vsize": 373, "size": 373}