{"hash": "adf198393ebc6205daa8850ba976b2cd594721752e17ffe091e8eff1c6ad4642", "blockhash": "0000000000000000001f76057863aec43deb6fa401d9628bb513d65a8098bfab", "vout": [{"scriptPubKey": {"type": "nulldata", "hex": "6a4c50000077df0001cee0ca792d4372e1e5bab9477af8e8e963c7cfd5b95b23cc0f42c2fc38c56c56a870d38cbba081e492a10e12ce2e5baa169606127773b48f52d61d100759d4ba30d2c37bb011d97e02cf", "asm": "OP_RETURN 000077df0001cee0ca792d4372e1e5bab9477af8e8e963c7cfd5b95b23cc0f42c2fc38c56c56a870d38cbba081e492a10e12ce2e5baa169606127773b48f52d61d100759d4ba30d2c37bb011d97e02cf"}, "value": 0.0, "n": 0}, {"scriptPubKey": {"reqSigs": 1, "hex": "76a914a5653b93fdbdca87e00056b5932d0b1d49b9b8cc88ac", "addresses": ["1G5XmRfMnTNvR1eV1CFHS9YHgnQckZrfJ7"], "asm": "OP_DUP OP_HASH160 a5653b93fdbdca87e00056b5932d0b1d49b9b8cc OP_EQUALVERIFY OP_CHECKSIG", "type": "pubkeyhash"}, "value": 0.00642145, "n": 1}], "hex": "0100000001a31e53b8de0a0825867be5242fb97977d2e74f13347b4db9bb11914a2c195bf5010000006a4730440220594078f76a65345dc4339a3883c1b95b1b9df9cf73e9efea864e990cc3920c69022039cb8be11f1646066d8ca4ff75c00507d4bb0e03bdf836ff728aaf38b0e0faea01210252397cdb2a9fabd48620317bf4410c10c4ec7e6afcc267c45eef30a10a05e8c4ffffffff020000000000000000536a4c50000077df0001cee0ca792d4372e1e5bab9477af8e8e963c7cfd5b95b23cc0f42c2fc38c56c56a870d38cbba081e492a10e12ce2e5baa169606127773b48f52d61d100759d4ba30d2c37bb011d97e02cf61cc0900000000001976a914a5653b93fdbdca87e00056b5932d0b1d49b9b8cc88ac00000000", "vin": [{"sequence": 4294967295, "scriptSig": {"hex": "4730440220594078f76a65345dc4339a3883c1b95b1b9df9cf73e9efea864e990cc3920c69022039cb8be11f1646066d8ca4ff75c00507d4bb0e03bdf836ff728aaf38b0e0faea01210252397cdb2a9fabd48620317bf4410c10c4ec7e6afcc267c45eef30a10a05e8c4", "asm": "30440220594078f76a65345dc4339a3883c1b95b1b9df9cf73e9efea864e990cc3920c69022039cb8be11f1646066d8ca4ff75c00507d4bb0e03bdf836ff728aaf38b0e0faea[ALL] 0252397cdb2a9fabd48620317bf4410c10c4ec7e6afcc267c45eef30a10a05e8c4"}, "vout": 1, "txid": "f55b192c4a9111bbb94d7b34134fe7d27779b92f24e57b8625080adeb8531ea3"}], "txid": "adf198393ebc6205daa8850ba976b2cd594721752e17ffe091e8eff1c6ad4642", "blocktime": 1537873891, "version": 1, "confirmations": 11478, "time": 1537873891, "locktime": 0, "vsize": 283, "size": 283}