{"hash": "adf29def3c5602a116f18556dd4bb57dfeef09bf903abfeeac83d3703fc98346", "blockhash": "00000000000000000018f53835495a110e01622372bf6ae95dc86f2b0ab887b0", "vout": [{"scriptPubKey": {"reqSigs": 1, "hex": "76a914350ee862ff797bf53a028baa5d4428b602bcbd0988ac", "addresses": ["15qYfydXrNuQDVbKN4jkdG4ZcYiw8EHthX"], "asm": "OP_DUP OP_HASH160 350ee862ff797bf53a028baa5d4428b602bcbd09 OP_EQUALVERIFY OP_CHECKSIG", "type": "pubkeyhash"}, "value": 0.01003496, "n": 0}, {"scriptPubKey": {"reqSigs": 1, "hex": "76a914ca6403bf1afa4d85bd6da313affa8a5cafb7fd5588ac", "addresses": ["1KT9JtXZnXcMmZ9UGZCVZVdDw6qMsqLLkY"], "asm": "OP_DUP OP_HASH160 ca6403bf1afa4d85bd6da313affa8a5cafb7fd55 OP_EQUALVERIFY OP_CHECKSIG", "type": "pubkeyhash"}, "value": 0.0002, "n": 1}], "hex": "01000000028a619804e49999ec84be4fd5b41e291e9ba92e0bab4584bd5b9eb4e79612a36a000000006b48304502210091dbcd7929f1f93eb390e9f2d54c7a108671888d5a0bdfb29d139ed73010c21302202e6d535ee26134d7cdd28d1b5577345090a16ea0b3f4476f07ae757c436d914001210324f35cf245806dacda6ab2b296e2bfa4a1a486dfa30b607f2db7a117be9a03bcfeffffff8a619804e49999ec84be4fd5b41e291e9ba92e0bab4584bd5b9eb4e79612a36a010000006a47304402206cd9845623e12b1b57d874159bc985a9b8c0069ae97a8569c531b1ad2e8e2a2902203fac14b43a1b86fae6b84a25c2ce383e2c336bf9c64f498cd77556c09a19af10012103b4de050d40c5af4fa3c58de085e26df319841a984519c77c97dbbc9f15da3534feffffff02e84f0f00000000001976a914350ee862ff797bf53a028baa5d4428b602bcbd0988ac204e0000000000001976a914ca6403bf1afa4d85bd6da313affa8a5cafb7fd5588acf9480800", "vin": [{"sequence": 4294967294, "scriptSig": {"hex": "48304502210091dbcd7929f1f93eb390e9f2d54c7a108671888d5a0bdfb29d139ed73010c21302202e6d535ee26134d7cdd28d1b5577345090a16ea0b3f4476f07ae757c436d914001210324f35cf245806dacda6ab2b296e2bfa4a1a486dfa30b607f2db7a117be9a03bc", "asm": "304502210091dbcd7929f1f93eb390e9f2d54c7a108671888d5a0bdfb29d139ed73010c21302202e6d535ee26134d7cdd28d1b5577345090a16ea0b3f4476f07ae757c436d9140[ALL] 0324f35cf245806dacda6ab2b296e2bfa4a1a486dfa30b607f2db7a117be9a03bc"}, "vout": 0, "txid": "6aa31296e7b49e5bbd8445ab0b2ea99b1e291eb4d54fbe84ec9999e40498618a"}, {"sequence": 4294967294, "scriptSig": {"hex": "47304402206cd9845623e12b1b57d874159bc985a9b8c0069ae97a8569c531b1ad2e8e2a2902203fac14b43a1b86fae6b84a25c2ce383e2c336bf9c64f498cd77556c09a19af10012103b4de050d40c5af4fa3c58de085e26df319841a984519c77c97dbbc9f15da3534", "asm": "304402206cd9845623e12b1b57d874159bc985a9b8c0069ae97a8569c531b1ad2e8e2a2902203fac14b43a1b86fae6b84a25c2ce383e2c336bf9c64f498cd77556c09a19af10[ALL] 03b4de050d40c5af4fa3c58de085e26df319841a984519c77c97dbbc9f15da3534"}, "vout": 1, "txid": "6aa31296e7b49e5bbd8445ab0b2ea99b1e291eb4d54fbe84ec9999e40498618a"}], "txid": "adf29def3c5602a116f18556dd4bb57dfeef09bf903abfeeac83d3703fc98346", "blocktime": 1537870928, "version": 1, "confirmations": 11512, "time": 1537870928, "locktime": 542969, "vsize": 373, "size": 373}