{"hash": "6090405b243f704d9ac9f4759b043dbb1dad1f9d8332cf08a55779c1b7439e6d", "blockhash": "0000000000000000000baef3f32e3676a92c3b2e5da21b426e4f302fc371ce76", "vout": [{"scriptPubKey": {"reqSigs": 1, "hex": "a9140c36dfbfc857a570126ee027dac13ce83ad5965287", "addresses": ["32obmZQLZKRHWSNi8KMGrLfZDA3Usw6wVS"], "asm": "OP_HASH160 0c36dfbfc857a570126ee027dac13ce83ad59652 OP_EQUAL", "type": "scripthash"}, "value": 0.02, "n": 0}, {"scriptPubKey": {"reqSigs": 1, "hex": "a9140a9c3366f0400aac16ddfb251955f73340af25b487", "addresses": ["32f7oUyfAfY7wVjbar13WJiCn2mUbTQHDt"], "asm": "OP_HASH160 0a9c3366f0400aac16ddfb251955f73340af25b4 OP_EQUAL", "type": "scripthash"}, "value": 0.00998166, "n": 1}], "hex": "0200000000010442a2f61ee93745bdaacb23e7929edce925697952a024bcd51f05513ad86e4b750100000017160014ebc732b9e458eddfcce6912ce275d57c73e9bfa8fdffffff4c1e6ef45bb7dbc8701c504bfac52e63a3dbdbc84f7b0b88eb0f432507717bcd0100000017160014a019dd94ec6d98a98f4f07f673973f0060671b54fdffffff9b257f418e01873a4474c4a75f65ae18020afe491f85e3e0b53a2c40e22556f50000000017160014d47e4387d187143daeb81310000050f4acfd9a59fdfffffffd32f178df250eb26de545c8c9fd7134081bad479bbd45f9587aa9233d6c8bec01000000171600143104ad8be616c63b5e7a73818f5f0b26f0b9fd12fdffffff0280841e000000000017a9140c36dfbfc857a570126ee027dac13ce83ad5965287163b0f000000000017a9140a9c3366f0400aac16ddfb251955f73340af25b48702483045022100e73e014d2675e0ca21dcc44a0d8d004cec68edd58231cad87f278fb710770ac702207b39ee041c3ce61e4f8d558658abd5967bbe6758a8945e5d09e9c08de1eff8240121027f1bde0ae64c5632fc9efba1df9fd491f2ef07b4e47adaabb39733f355d4898002483045022100af90c64c7a3ef01ca3d4f5fa3ed8d4ca2603605762faf2dab6c6c893b17ef45c0220691547bce60949348e953946f8638650f2aa0f6fc2e0297701ae1361e931ac640121037dc46eda05ccee1676bf54e5119196aad7e6b7ed50d6b5ab8983eef066ba21020247304402207c88060a692b83408b81158eacdade7a044e76ea91c8096aa5d9a79bf6bf02040220116bdb7fb96ebf997fc06efce552d55e319d09ef435fc9ad2811df90262f7b55012103b8fd1bf679e433c1e9098ba671a93d9e11084cdfb6e44a8ad191b788d810dd6d0247304402206796f95ec1f160bf5b557374ba43d6779fc28b35e8fc277794e40e99f1f0b22402201c91419fcd437fd995e80d0f9a6971914ef9a9014765a02a16e945f17f0c43df012102b055bea5d9038e64e6a0f7039da588fa3d1b777ca1303b778e4ad697bfe6416916490800", "vin": [{"txinwitness": ["3045022100e73e014d2675e0ca21dcc44a0d8d004cec68edd58231cad87f278fb710770ac702207b39ee041c3ce61e4f8d558658abd5967bbe6758a8945e5d09e9c08de1eff82401", "027f1bde0ae64c5632fc9efba1df9fd491f2ef07b4e47adaabb39733f355d48980"], "sequence": 4294967293, "scriptSig": {"hex": "160014ebc732b9e458eddfcce6912ce275d57c73e9bfa8", "asm": "0014ebc732b9e458eddfcce6912ce275d57c73e9bfa8"}, "vout": 1, "txid": "754b6ed83a51051fd5bc24a052796925e9dc9e92e723cbaabd4537e91ef6a242"}, {"txinwitness": ["3045022100af90c64c7a3ef01ca3d4f5fa3ed8d4ca2603605762faf2dab6c6c893b17ef45c0220691547bce60949348e953946f8638650f2aa0f6fc2e0297701ae1361e931ac6401", "037dc46eda05ccee1676bf54e5119196aad7e6b7ed50d6b5ab8983eef066ba2102"], "sequence": 4294967293, "scriptSig": {"hex": "160014a019dd94ec6d98a98f4f07f673973f0060671b54", "asm": "0014a019dd94ec6d98a98f4f07f673973f0060671b54"}, "vout": 1, "txid": "cd7b710725430feb880b7b4fc8dbdba3632ec5fa4b501c70c8dbb75bf46e1e4c"}, {"txinwitness": ["304402207c88060a692b83408b81158eacdade7a044e76ea91c8096aa5d9a79bf6bf02040220116bdb7fb96ebf997fc06efce552d55e319d09ef435fc9ad2811df90262f7b5501", "03b8fd1bf679e433c1e9098ba671a93d9e11084cdfb6e44a8ad191b788d810dd6d"], "sequence": 4294967293, "scriptSig": {"hex": "160014d47e4387d187143daeb81310000050f4acfd9a59", "asm": "0014d47e4387d187143daeb81310000050f4acfd9a59"}, "vout": 0, "txid": "f55625e2402c3ab5e0e3851f49fe0a0218ae655fa7c474443a87018e417f259b"}, {"txinwitness": ["304402206796f95ec1f160bf5b557374ba43d6779fc28b35e8fc277794e40e99f1f0b22402201c91419fcd437fd995e80d0f9a6971914ef9a9014765a02a16e945f17f0c43df01", "02b055bea5d9038e64e6a0f7039da588fa3d1b777ca1303b778e4ad697bfe64169"], "sequence": 4294967293, "scriptSig": {"hex": "1600143104ad8be616c63b5e7a73818f5f0b26f0b9fd12", "asm": "00143104ad8be616c63b5e7a73818f5f0b26f0b9fd12"}, "vout": 1, "txid": "ec8b6c3d23a97a58f945bd9b47ad1b083471fdc9c845e56db20e25df78f132fd"}], "txid": "adf637070fbc7a275466390732d4841c8f1bebe550dc4f246e3a95e130c628f2", "blocktime": 1537876114, "version": 2, "confirmations": 11460, "time": 1537876114, "locktime": 542998, "vsize": 438, "size": 762}