{"hash": "adf7ca2a6725b40f6f31b4410b44e586d1ac958fc3943b919b9b8e0376b08a55", "blockhash": "00000000000000000004ffacab907a6b429b9a5745fa0b75af4234bf69dd7176", "vout": [{"scriptPubKey": {"reqSigs": 1, "hex": "76a91469d3cc5a2ac7aae023a2538f6b6fbf6159c66c6988ac", "addresses": ["1AeZg9GsyvsJegDw6FaKS2taWhq36w9T4V"], "asm": "OP_DUP OP_HASH160 69d3cc5a2ac7aae023a2538f6b6fbf6159c66c69 OP_EQUALVERIFY OP_CHECKSIG", "type": "pubkeyhash"}, "value": 0.00853758, "n": 0}, {"scriptPubKey": {"type": "nulldata", "hex": "6a146f6d6e69000000000000001f00000130ddaa8d40", "asm": "OP_RETURN 6f6d6e69000000000000001f00000130ddaa8d40"}, "value": 0.0, "n": 1}, {"scriptPubKey": {"reqSigs": 1, "hex": "76a914ddd3250608554a391f6f914ae78e9c9a89636db888ac", "addresses": ["1MDuGyrCWatzieLo56WYHyTmyQPjq36MS4"], "asm": "OP_DUP OP_HASH160 ddd3250608554a391f6f914ae78e9c9a89636db8 OP_EQUALVERIFY OP_CHECKSIG", "type": "pubkeyhash"}, "value": 5.46e-06, "n": 2}], "hex": "0100000002c26fb3531151d67b8fd3d063ff8814980cd5336057a6e1ff8c9d7fd5b90077c2020000006b483045022100d8404b4c4d28429d9d656e171d9c70b5d2a2b23575a2b539b9524b93dcab30800220158b1b83d63dae9e77cc7e2eef10bd5df24401062ac80e91e48042e5499cf67401210326a4358bff07ed795c1443ec56bee68e807664de3ef2694f6d4780428cece48cffffffff471b03a3374c46aa95ac25269f0fce123ea7c9cfcd971f1099b4e60adaa51250000000006b4830450221008ad61204b92d2ca4709d9c9013a08c6e877d5b04e0e9c8cf57dda18c35f976e702203b151618f3c6fc5c705076c20f4a51b47d9ed84b4b696fc440175a8ce3c9726e01210326a4358bff07ed795c1443ec56bee68e807664de3ef2694f6d4780428cece48cffffffff03fe060d00000000001976a91469d3cc5a2ac7aae023a2538f6b6fbf6159c66c6988ac0000000000000000166a146f6d6e69000000000000001f00000130ddaa8d4022020000000000001976a914ddd3250608554a391f6f914ae78e9c9a89636db888ac00000000", "vin": [{"sequence": 4294967295, "scriptSig": {"hex": "483045022100d8404b4c4d28429d9d656e171d9c70b5d2a2b23575a2b539b9524b93dcab30800220158b1b83d63dae9e77cc7e2eef10bd5df24401062ac80e91e48042e5499cf67401210326a4358bff07ed795c1443ec56bee68e807664de3ef2694f6d4780428cece48c", "asm": "3045022100d8404b4c4d28429d9d656e171d9c70b5d2a2b23575a2b539b9524b93dcab30800220158b1b83d63dae9e77cc7e2eef10bd5df24401062ac80e91e48042e5499cf674[ALL] 0326a4358bff07ed795c1443ec56bee68e807664de3ef2694f6d4780428cece48c"}, "vout": 2, "txid": "c27700b9d57f9d8cffe1a6576033d50c981488ff63d0d38f7bd6511153b36fc2"}, {"sequence": 4294967295, "scriptSig": {"hex": "4830450221008ad61204b92d2ca4709d9c9013a08c6e877d5b04e0e9c8cf57dda18c35f976e702203b151618f3c6fc5c705076c20f4a51b47d9ed84b4b696fc440175a8ce3c9726e01210326a4358bff07ed795c1443ec56bee68e807664de3ef2694f6d4780428cece48c", "asm": "30450221008ad61204b92d2ca4709d9c9013a08c6e877d5b04e0e9c8cf57dda18c35f976e702203b151618f3c6fc5c705076c20f4a51b47d9ed84b4b696fc440175a8ce3c9726e[ALL] 0326a4358bff07ed795c1443ec56bee68e807664de3ef2694f6d4780428cece48c"}, "vout": 0, "txid": "5012a5da0ae6b499101f97cdcfc9a73e12ce0f9f2625ac95aa464c37a3031b47"}], "txid": "adf7ca2a6725b40f6f31b4410b44e586d1ac958fc3943b919b9b8e0376b08a55", "blocktime": 1537875543, "version": 1, "confirmations": 11464, "time": 1537875543, "locktime": 0, "vsize": 405, "size": 405}