{"hash": "adfc49c210542e8862cfe0e0f814ac2e0717f4f131eb08f52ca34be611ac771c", "blockhash": "0000000000000000001f76057863aec43deb6fa401d9628bb513d65a8098bfab", "vout": [{"scriptPubKey": {"reqSigs": 1, "hex": "a914f7bfc8de12e8e48604fdefc92b546f4a7d431aad87", "addresses": ["3QGzaMcPzKvLswuybdQ2gHjS8pGzfKiW4x"], "asm": "OP_HASH160 f7bfc8de12e8e48604fdefc92b546f4a7d431aad OP_EQUAL", "type": "scripthash"}, "value": 4.097e-05, "n": 0}, {"scriptPubKey": {"reqSigs": 1, "hex": "a9147374e81129f5871332c940aa749d3f9fc83fda7287", "addresses": ["3CDVgQoCT2cGagFsLUrFhDDzgEaF9Fj9gV"], "asm": "OP_HASH160 7374e81129f5871332c940aa749d3f9fc83fda72 OP_EQUAL", "type": "scripthash"}, "value": 4.153e-05, "n": 1}, {"scriptPubKey": {"reqSigs": 1, "hex": "76a9148d22286adcb2da3e1c3c924cf98a84b97821192188ac", "addresses": ["1DsFCNzmCMvmdEVoddMkKRoNUUbxmviGMr"], "asm": "OP_DUP OP_HASH160 8d22286adcb2da3e1c3c924cf98a84b978211921 OP_EQUALVERIFY OP_CHECKSIG", "type": "pubkeyhash"}, "value": 0.0045307, "n": 2}], "hex": "0100000002d1b03337de97fd69911479caf56ad592d453a3230a5fd2571d49fe73b3b24cf001000000fdfe0000483045022100ecf76f32c7c3c0696fc635c944e0dad21d061336de193b2925b45c123ed84fea0220407f7920868075d9d2da133b172ca8bbb117c86e142af66d0a816f26394025f501483045022100c54c115822af567d5ce734fcafd00ad65431c52affd19cfd4e644f1dc49a11310220624058c223c3b35773668b7692493c9e7f39d09de4113b23be732c4e5c4dbdd6014c6952210290bc45449fced2dab5bc29d9213307c0726cd49fc5119d0db3706e08883d30002102bd32b6f6357228006e82d55c18d3ff3cb19ce79ecf7128d7701bc18aa50d2fe72102d75c24cb60f05f2164c4ddab122bb871c7f07e073f81bf40e4f77840cc893a5253ae33030000598cc2b6c877113626aab10f612c6dac980279d1175f3ddea12e3e22a9b7ccab020000006a473044022038a44cf1b3f7e8240de4a2f929e36b5943eac6fa19ba2f44cc6dd0230a368c6002206f8c8969a724e58304d4adab89a62a0312fa9ad8859a1a6bbd056f0e578ee30b012102cb83b66ac4239da628b0e4f1b7d1f0a4b0edbb7ba7ac6ca26c3cd8ffe23de4cbffffffff03011000000000000017a914f7bfc8de12e8e48604fdefc92b546f4a7d431aad87391000000000000017a9147374e81129f5871332c940aa749d3f9fc83fda7287cee90600000000001976a9148d22286adcb2da3e1c3c924cf98a84b97821192188ac00000000", "vin": [{"sequence": 819, "scriptSig": {"hex": "00483045022100ecf76f32c7c3c0696fc635c944e0dad21d061336de193b2925b45c123ed84fea0220407f7920868075d9d2da133b172ca8bbb117c86e142af66d0a816f26394025f501483045022100c54c115822af567d5ce734fcafd00ad65431c52affd19cfd4e644f1dc49a11310220624058c223c3b35773668b7692493c9e7f39d09de4113b23be732c4e5c4dbdd6014c6952210290bc45449fced2dab5bc29d9213307c0726cd49fc5119d0db3706e08883d30002102bd32b6f6357228006e82d55c18d3ff3cb19ce79ecf7128d7701bc18aa50d2fe72102d75c24cb60f05f2164c4ddab122bb871c7f07e073f81bf40e4f77840cc893a5253ae", "asm": "0 3045022100ecf76f32c7c3c0696fc635c944e0dad21d061336de193b2925b45c123ed84fea0220407f7920868075d9d2da133b172ca8bbb117c86e142af66d0a816f26394025f5[ALL] 3045022100c54c115822af567d5ce734fcafd00ad65431c52affd19cfd4e644f1dc49a11310220624058c223c3b35773668b7692493c9e7f39d09de4113b23be732c4e5c4dbdd6[ALL] 52210290bc45449fced2dab5bc29d9213307c0726cd49fc5119d0db3706e08883d30002102bd32b6f6357228006e82d55c18d3ff3cb19ce79ecf7128d7701bc18aa50d2fe72102d75c24cb60f05f2164c4ddab122bb871c7f07e073f81bf40e4f77840cc893a5253ae"}, "vout": 1, "txid": "f04cb2b373fe491d57d25f0a23a353d492d56af5ca79149169fd97de3733b0d1"}, {"sequence": 4294967295, "scriptSig": {"hex": "473044022038a44cf1b3f7e8240de4a2f929e36b5943eac6fa19ba2f44cc6dd0230a368c6002206f8c8969a724e58304d4adab89a62a0312fa9ad8859a1a6bbd056f0e578ee30b012102cb83b66ac4239da628b0e4f1b7d1f0a4b0edbb7ba7ac6ca26c3cd8ffe23de4cb", "asm": "3044022038a44cf1b3f7e8240de4a2f929e36b5943eac6fa19ba2f44cc6dd0230a368c6002206f8c8969a724e58304d4adab89a62a0312fa9ad8859a1a6bbd056f0e578ee30b[ALL] 02cb83b66ac4239da628b0e4f1b7d1f0a4b0edbb7ba7ac6ca26c3cd8ffe23de4cb"}, "vout": 2, "txid": "abccb7a9223e2ea1de3d5f17d1790298ac6d2c610fb1aa26361177c8b6c28c59"}], "txid": "adfc49c210542e8862cfe0e0f814ac2e0717f4f131eb08f52ca34be611ac771c", "blocktime": 1537873891, "version": 1, "confirmations": 11475, "time": 1537873891, "locktime": 0, "vsize": 552, "size": 552}