{"hash": "ae0119f36e7681235a410cc261b6af2ed915e7f2b4b8d8684926a8e490aa8cdd", "blockhash": "000000000000000000022b45ed06c6f4ccd3cf7fb5ba4856ebd2e58215665228", "vout": [{"scriptPubKey": {"reqSigs": 1, "hex": "76a914c1348f0f878fcfeb3aa8ea0276779f95158394ab88ac", "addresses": ["1JcaNsjzkpdvZtY9ocBtjznAUTcuftXc1Y"], "asm": "OP_DUP OP_HASH160 c1348f0f878fcfeb3aa8ea0276779f95158394ab OP_EQUALVERIFY OP_CHECKSIG", "type": "pubkeyhash"}, "value": 0.00647309, "n": 0}, {"scriptPubKey": {"type": "nulldata", "hex": "6a4c5000007768000194c239d3a5f2a0c06b3229de86aeaeacb577c031fc3a016b46dc7dc7d0962a9932beb338e338719ea3d50aae3e445baa0825061322343b0066701d100759d4ba30d2c37bb011d97e02cf", "asm": "OP_RETURN 00007768000194c239d3a5f2a0c06b3229de86aeaeacb577c031fc3a016b46dc7dc7d0962a9932beb338e338719ea3d50aae3e445baa0825061322343b0066701d100759d4ba30d2c37bb011d97e02cf"}, "value": 0.0, "n": 1}], "hex": "010000000167c5961493774ca95f4ed8873176c29b2c356e1ce426c8abcad2ef6f6f8e1cfe000000006b48304502210097804949b4ad3470463aec670f70434a108d2903d05273deb37c16741b82d22202202df22fb8d7a8dd11a7c25b69e7a455c3e6485d5a50fc62f6b8298104baddeb710121033e274dbd1e1e54e0899a1c4694b3d16151276bb6da7a85b0a1f8cfb886efb355ffffffff028de00900000000001976a914c1348f0f878fcfeb3aa8ea0276779f95158394ab88ac0000000000000000536a4c5000007768000194c239d3a5f2a0c06b3229de86aeaeacb577c031fc3a016b46dc7dc7d0962a9932beb338e338719ea3d50aae3e445baa0825061322343b0066701d100759d4ba30d2c37bb011d97e02cf00000000", "vin": [{"sequence": 4294967295, "scriptSig": {"hex": "48304502210097804949b4ad3470463aec670f70434a108d2903d05273deb37c16741b82d22202202df22fb8d7a8dd11a7c25b69e7a455c3e6485d5a50fc62f6b8298104baddeb710121033e274dbd1e1e54e0899a1c4694b3d16151276bb6da7a85b0a1f8cfb886efb355", "asm": "304502210097804949b4ad3470463aec670f70434a108d2903d05273deb37c16741b82d22202202df22fb8d7a8dd11a7c25b69e7a455c3e6485d5a50fc62f6b8298104baddeb71[ALL] 033e274dbd1e1e54e0899a1c4694b3d16151276bb6da7a85b0a1f8cfb886efb355"}, "vout": 0, "txid": "fe1c8e6f6fefd2caabc826e41c6e352c9bc2763187d84e5fa94c77931496c567"}], "txid": "ae0119f36e7681235a410cc261b6af2ed915e7f2b4b8d8684926a8e490aa8cdd", "blocktime": 1537869901, "version": 1, "confirmations": 11523, "time": 1537869901, "locktime": 0, "vsize": 284, "size": 284}