{"hash": "ae07e41fa2076c2db5852374e230a46a497d6b8728c9c56d147dec25c887bfd3", "blockhash": "0000000000000000000dcc0f55137456b1a82d3642486a52398922ac4d620174", "vout": [{"scriptPubKey": {"reqSigs": 1, "hex": "76a914753211a630f035bc35c8008b06acaed8f73e256588ac", "addresses": ["1Bgg3J8D7J5rCCSCCCJvGGBBzDuaPYC28v"], "asm": "OP_DUP OP_HASH160 753211a630f035bc35c8008b06acaed8f73e2565 OP_EQUALVERIFY OP_CHECKSIG", "type": "pubkeyhash"}, "value": 0.01154875, "n": 0}], "hex": "010000000136a48b3077279085e04be46eacfc90410c1e30d854109122d21a9ba1d7930c15330000006a473044022001efbf96163bab848d1be44a2318c7212b8bae77089fccbcee2c2586b3abe26102202e664827be9c4ad3a86916fb9599796204362199efdde4e70019ecd45068f77c0121024e301131fda89ba4538c44c2a123361fedb51dbb80ef8e6e7d8f4d3e74ece8dbfdffffff013b9f1100000000001976a914753211a630f035bc35c8008b06acaed8f73e256588ac0c490800", "vin": [{"sequence": 4294967293, "scriptSig": {"hex": "473044022001efbf96163bab848d1be44a2318c7212b8bae77089fccbcee2c2586b3abe26102202e664827be9c4ad3a86916fb9599796204362199efdde4e70019ecd45068f77c0121024e301131fda89ba4538c44c2a123361fedb51dbb80ef8e6e7d8f4d3e74ece8db", "asm": "3044022001efbf96163bab848d1be44a2318c7212b8bae77089fccbcee2c2586b3abe26102202e664827be9c4ad3a86916fb9599796204362199efdde4e70019ecd45068f77c[ALL] 024e301131fda89ba4538c44c2a123361fedb51dbb80ef8e6e7d8f4d3e74ece8db"}, "vout": 51, "txid": "150c93d7a19b1ad222911054d8301e0c4190fcac6ee44be085902777308ba436"}], "txid": "ae07e41fa2076c2db5852374e230a46a497d6b8728c9c56d147dec25c887bfd3", "blocktime": 1537870268, "version": 1, "confirmations": 11519, "time": 1537870268, "locktime": 542988, "vsize": 191, "size": 191}