{"hash": "ae089f64c640b989e7c5e74cc241e40ddd8d44b38e6c9e5b48e9ab7e94586cb4", "blockhash": "00000000000000000017f5eb5941039fbcee6240d03bc1f2f8e35350df66a1d8", "vout": [{"scriptPubKey": {"reqSigs": 1, "hex": "a914aa17f5c17a7ea39a6f33ccfaac5d533d32046c6587", "addresses": ["3HCPVvXo5jx8wAVUDtwdhB3sL9BZencHJ3"], "asm": "OP_HASH160 aa17f5c17a7ea39a6f33ccfaac5d533d32046c65 OP_EQUAL", "type": "scripthash"}, "value": 0.00250094, "n": 0}], "hex": "01000000041fc349f3720d1acd4bfa56d6c5973789072bd6d88a526c7d7f50589de0a55700010000006a47304402206be618cde3a828bee535324695c37abc715c118945c4ab8f87f28228af0dbf5102201ea6bc1aa6a1083280436799bf13699b5770b7c4d72d2d59b13f8f594e7746ba0121034eec24afac7bdeb90cd8938a053959a692c1e5e61a54757a2a6e098f07698775ffffffff44a35d5011926fdaaf960bd13386750cfb6fb55df7ad3db2df8801a502cac150000000006b483045022100bf5592164ac1361a249d7ea2a37f8c9babe10441699b197b0bc87659e6e7f1200220254695cb94b9154ecf18b5120c87769fbdfc9620ad0ba4bf516bc30e415906d30121020f3f679f009c3ed031bdd013ba84618496e24d11b9700608229890436b3c1b2fffffffff39c9ba67208317d1d92217cc657171376b2297aaaea3c2ce4f9d4fc72f2fcab2000000006b4830450221008d5dc87e8b9f0a071c83dd96c7c8f4040033fb7be97a0456b2a759b8439843a50220059a64834c8bd0c4c8f1102722ace0748423fdb64a96b24f817f6870715bb0c901210397324fbbffcfcb2fcb8e35600de4640618b23d64caacc63a6cd2759f6b394109ffffffff655fb48af81e6fe4a45d4cd9d1d3411fd4e11d1b1f29029e93fa7681a58370fb000000006b4830450221008529c216edfe95d73cd618931b19091bb7ea694dfeb311e7ebf6a4f431632f8802202af0c13fabc8fafe80b701fa90d4257d77080976ea96bffc89411cb0cc8d73dc012103548ce699731d7e74a1966e3d7c042d90f8b490ebf0b0dd31c73ecab1552f10c3ffffffff01eed003000000000017a914aa17f5c17a7ea39a6f33ccfaac5d533d32046c658700000000", "vin": [{"sequence": 4294967295, "scriptSig": {"hex": "47304402206be618cde3a828bee535324695c37abc715c118945c4ab8f87f28228af0dbf5102201ea6bc1aa6a1083280436799bf13699b5770b7c4d72d2d59b13f8f594e7746ba0121034eec24afac7bdeb90cd8938a053959a692c1e5e61a54757a2a6e098f07698775", "asm": "304402206be618cde3a828bee535324695c37abc715c118945c4ab8f87f28228af0dbf5102201ea6bc1aa6a1083280436799bf13699b5770b7c4d72d2d59b13f8f594e7746ba[ALL] 034eec24afac7bdeb90cd8938a053959a692c1e5e61a54757a2a6e098f07698775"}, "vout": 1, "txid": "0057a5e09d58507f7d6c528ad8d62b07893797c5d656fa4bcd1a0d72f349c31f"}, {"sequence": 4294967295, "scriptSig": {"hex": "483045022100bf5592164ac1361a249d7ea2a37f8c9babe10441699b197b0bc87659e6e7f1200220254695cb94b9154ecf18b5120c87769fbdfc9620ad0ba4bf516bc30e415906d30121020f3f679f009c3ed031bdd013ba84618496e24d11b9700608229890436b3c1b2f", "asm": "3045022100bf5592164ac1361a249d7ea2a37f8c9babe10441699b197b0bc87659e6e7f1200220254695cb94b9154ecf18b5120c87769fbdfc9620ad0ba4bf516bc30e415906d3[ALL] 020f3f679f009c3ed031bdd013ba84618496e24d11b9700608229890436b3c1b2f"}, "vout": 0, "txid": "50c1ca02a50188dfb23dadf75db56ffb0c758633d10b96afda6f9211505da344"}, {"sequence": 4294967295, "scriptSig": {"hex": "4830450221008d5dc87e8b9f0a071c83dd96c7c8f4040033fb7be97a0456b2a759b8439843a50220059a64834c8bd0c4c8f1102722ace0748423fdb64a96b24f817f6870715bb0c901210397324fbbffcfcb2fcb8e35600de4640618b23d64caacc63a6cd2759f6b394109", "asm": "30450221008d5dc87e8b9f0a071c83dd96c7c8f4040033fb7be97a0456b2a759b8439843a50220059a64834c8bd0c4c8f1102722ace0748423fdb64a96b24f817f6870715bb0c9[ALL] 0397324fbbffcfcb2fcb8e35600de4640618b23d64caacc63a6cd2759f6b394109"}, "vout": 0, "txid": "b2ca2f2fc74f9d4fcec2a3aeaa97226b37717165cc1722d9d117832067bac939"}, {"sequence": 4294967295, "scriptSig": {"hex": "4830450221008529c216edfe95d73cd618931b19091bb7ea694dfeb311e7ebf6a4f431632f8802202af0c13fabc8fafe80b701fa90d4257d77080976ea96bffc89411cb0cc8d73dc012103548ce699731d7e74a1966e3d7c042d90f8b490ebf0b0dd31c73ecab1552f10c3", "asm": "30450221008529c216edfe95d73cd618931b19091bb7ea694dfeb311e7ebf6a4f431632f8802202af0c13fabc8fafe80b701fa90d4257d77080976ea96bffc89411cb0cc8d73dc[ALL] 03548ce699731d7e74a1966e3d7c042d90f8b490ebf0b0dd31c73ecab1552f10c3"}, "vout": 0, "txid": "fb7083a58176fa939e02291f1b1de1d41f41d3d1d94c5da4e46f1ef88ab45f65"}], "txid": "ae089f64c640b989e7c5e74cc241e40ddd8d44b38e6c9e5b48e9ab7e94586cb4", "blocktime": 1537874412, "version": 1, "confirmations": 11467, "time": 1537874412, "locktime": 0, "vsize": 633, "size": 633}