{"hash": "d6efc7d36d34b8208c682ec37cd5c1e20b4173e01015db3eda0340a0cb619dcd", "blockhash": "000000000000000000022b45ed06c6f4ccd3cf7fb5ba4856ebd2e58215665228", "vout": [{"scriptPubKey": {"reqSigs": 1, "hex": "76a91493385140921365703fccab06f9b51f0610d3245f88ac", "addresses": ["1ERRoCbv2XmgNgQmGdX91VEcZaxNVmFzot"], "asm": "OP_DUP OP_HASH160 93385140921365703fccab06f9b51f0610d3245f OP_EQUALVERIFY OP_CHECKSIG", "type": "pubkeyhash"}, "value": 0.18153994, "n": 0}, {"scriptPubKey": {"reqSigs": 1, "hex": "a9140bb5292962035d85b678ff0ea2cec462c0c7127387", "addresses": ["32kvNvfcUm2pTkHoJj1dAug1bjDB1j5X6s"], "asm": "OP_HASH160 0bb5292962035d85b678ff0ea2cec462c0c71273 OP_EQUAL", "type": "scripthash"}, "value": 0.01006005, "n": 1}], "hex": "02000000000104356452d48924bf4bc1e5f765f6e7027c186f1c64f6b509e1353da22d99cfc25b0000000017160014f5464c9c0d7712920a49377da881c4f618172244feffffff47d4259efaf954bfbd42afa0be4137c5dd94bd1ec1ff0c0b2cb19cfc1db325e1000000001716001477ec8387930480e900fdd45f33eb6659d085fadafeffffff91ac2fc69ddd750c95fc29dc18378e6cc2821634e562d6fe881d8d7f3df5134100000000171600140acad28755d02652bf85fa757de574fb09060f44fefffffffdb3a5ad1923a88de49af9dd0839c959e33e4fbf311484feba06b9fdf0cb32b604000000171600140ad070c5d59d63b3252a9f1a1d50ca587f95bd46feffffff020a021501000000001976a91493385140921365703fccab06f9b51f0610d3245f88acb5590f000000000017a9140bb5292962035d85b678ff0ea2cec462c0c712738702483045022100fb680fea716a3608ad66e20a059289fbf91505b4f4509f8981e945bddeedeea302204a0dcca5284f03bce7bd9d4cb0e97e78ec87559319e8734b1d1607f9fe0009d4012102acec9d04a906dc84af5c0763ff443c7bca4e8387058c1f55ffbe9190eb15f59a02483045022100973a6ae0d5bea9593742348b9857af8a32839cfa1142440fd503a4fc03ae7c250220145995cd5e40f4eb88ed73a32eaaa730b238242e19d75eff7811b9817665842d012103af0e7e1f8c45747c5aa1d2a5359a71159bd9e5ec139f48626d6ea0f1698627c50247304402200a2d3eb13124b6dc8d82fcc1a2dd47b00cbeb2812a481feacf02bb025ca43d3c022077a8c65476643bf9d6e5c73a2ae9a6734cd1eeab7c9f434e01ef315aa54db7a6012102b377a3e3b4933d65b79a8a08c943f22a2aa4cfe5f04ad4e29f486ff743e651ca02483045022100dd976a5a6b428c15f8f81ed76bcaacd7e865b752e2534c1ba8f342490feddf2e02202f2a004c529c534cc953ebf37dc2d5796e0683bd8b7a054c9bbe47780cd99df5012102e922172c111abd863e28b3d64603383af222879ec5746c9891f058efaa159a9dd1480800", "vin": [{"txinwitness": ["3045022100fb680fea716a3608ad66e20a059289fbf91505b4f4509f8981e945bddeedeea302204a0dcca5284f03bce7bd9d4cb0e97e78ec87559319e8734b1d1607f9fe0009d401", "02acec9d04a906dc84af5c0763ff443c7bca4e8387058c1f55ffbe9190eb15f59a"], "sequence": 4294967294, "scriptSig": {"hex": "160014f5464c9c0d7712920a49377da881c4f618172244", "asm": "0014f5464c9c0d7712920a49377da881c4f618172244"}, "vout": 0, "txid": "5bc2cf992da23d35e109b5f6641c6f187c02e7f665f7e5c14bbf2489d4526435"}, {"txinwitness": ["3045022100973a6ae0d5bea9593742348b9857af8a32839cfa1142440fd503a4fc03ae7c250220145995cd5e40f4eb88ed73a32eaaa730b238242e19d75eff7811b9817665842d01", "03af0e7e1f8c45747c5aa1d2a5359a71159bd9e5ec139f48626d6ea0f1698627c5"], "sequence": 4294967294, "scriptSig": {"hex": "16001477ec8387930480e900fdd45f33eb6659d085fada", "asm": "001477ec8387930480e900fdd45f33eb6659d085fada"}, "vout": 0, "txid": "e125b31dfc9cb12c0b0cffc11ebd94ddc53741bea0af42bdbf54f9fa9e25d447"}, {"txinwitness": ["304402200a2d3eb13124b6dc8d82fcc1a2dd47b00cbeb2812a481feacf02bb025ca43d3c022077a8c65476643bf9d6e5c73a2ae9a6734cd1eeab7c9f434e01ef315aa54db7a601", "02b377a3e3b4933d65b79a8a08c943f22a2aa4cfe5f04ad4e29f486ff743e651ca"], "sequence": 4294967294, "scriptSig": {"hex": "1600140acad28755d02652bf85fa757de574fb09060f44", "asm": "00140acad28755d02652bf85fa757de574fb09060f44"}, "vout": 0, "txid": "4113f53d7f8d1d88fed662e5341682c26c8e3718dc29fc950c75dd9dc62fac91"}, {"txinwitness": ["3045022100dd976a5a6b428c15f8f81ed76bcaacd7e865b752e2534c1ba8f342490feddf2e02202f2a004c529c534cc953ebf37dc2d5796e0683bd8b7a054c9bbe47780cd99df501", "02e922172c111abd863e28b3d64603383af222879ec5746c9891f058efaa159a9d"], "sequence": 4294967294, "scriptSig": {"hex": "1600140ad070c5d59d63b3252a9f1a1d50ca587f95bd46", "asm": "00140ad070c5d59d63b3252a9f1a1d50ca587f95bd46"}, "vout": 4, "txid": "b632cbf0fdb906bafe841431bf4f3ee359c93908ddf99ae48da82319ada5b3fd"}], "txid": "ae0ebd37582c963379c76860e50d2d5fbd06bfed6d36578584320b715cc2bb62", "blocktime": 1537869901, "version": 2, "confirmations": 11524, "time": 1537869901, "locktime": 542929, "vsize": 441, "size": 765}