{"hash": "ae0ff9c33ac5ce7ab2e564d9b73ca5f3f717af7d712ba688c30cb65f139a9197", "blockhash": "0000000000000000000dcc0f55137456b1a82d3642486a52398922ac4d620174", "vout": [{"scriptPubKey": {"reqSigs": 1, "hex": "76a914e43275a0fc7b5e4fdd1625fdeac03591edd155a388ac", "addresses": ["1MobWizZAZiGwjsnPZvtk1eZfe1gCvBLyH"], "asm": "OP_DUP OP_HASH160 e43275a0fc7b5e4fdd1625fdeac03591edd155a3 OP_EQUALVERIFY OP_CHECKSIG", "type": "pubkeyhash"}, "value": 0.04920075, "n": 0}, {"scriptPubKey": {"reqSigs": 1, "hex": "76a914dc42c3270f844aad7ea18509f43c09b96bd7477b88ac", "addresses": ["1M5ddvvKqn8kwkrNdGmQosUt4T1X6azLzb"], "asm": "OP_DUP OP_HASH160 dc42c3270f844aad7ea18509f43c09b96bd7477b OP_EQUALVERIFY OP_CHECKSIG", "type": "pubkeyhash"}, "value": 11.1392171, "n": 1}], "hex": "0200000001f3d43af07abee3f2409a4910484794e255b350937b4be26baa9b339e44bd514f010000006b483045022100da9bede59586c160bcd365791711242c2fadab4b414d233adcafe2bd8601168f022054cc0a7a23bc80a434a3b30c82f863a716d4804eb598bc3d02d52918501ff01b012103a7aca0ae99b27fa68ba444ad45a2a6f5430df6e71b96d1c7d1e4e902e018976dffffffff020b134b00000000001976a914e43275a0fc7b5e4fdd1625fdeac03591edd155a388acae186542000000001976a914dc42c3270f844aad7ea18509f43c09b96bd7477b88ac00000000", "vin": [{"sequence": 4294967295, "scriptSig": {"hex": "483045022100da9bede59586c160bcd365791711242c2fadab4b414d233adcafe2bd8601168f022054cc0a7a23bc80a434a3b30c82f863a716d4804eb598bc3d02d52918501ff01b012103a7aca0ae99b27fa68ba444ad45a2a6f5430df6e71b96d1c7d1e4e902e018976d", "asm": "3045022100da9bede59586c160bcd365791711242c2fadab4b414d233adcafe2bd8601168f022054cc0a7a23bc80a434a3b30c82f863a716d4804eb598bc3d02d52918501ff01b[ALL] 03a7aca0ae99b27fa68ba444ad45a2a6f5430df6e71b96d1c7d1e4e902e018976d"}, "vout": 1, "txid": "4f51bd449e339baa6be24b7b9350b355e294474810499a40f2e3be7af03ad4f3"}], "txid": "ae0ff9c33ac5ce7ab2e564d9b73ca5f3f717af7d712ba688c30cb65f139a9197", "blocktime": 1537870268, "version": 2, "confirmations": 11518, "time": 1537870268, "locktime": 0, "vsize": 226, "size": 226}