{"hash": "ae1318c6b5639341584d86a2e40e54e048c1270d344f119f4498d6a6c241553a", "blockhash": "00000000000000000017f5eb5941039fbcee6240d03bc1f2f8e35350df66a1d8", "vout": [{"scriptPubKey": {"reqSigs": 1, "hex": "76a91456c893f06fa72752f9a0ddc4643cd3d5e3e26efe88ac", "addresses": ["18usPtpGekum4cDiz6s3EysYp9BZMAAVFk"], "asm": "OP_DUP OP_HASH160 56c893f06fa72752f9a0ddc4643cd3d5e3e26efe OP_EQUALVERIFY OP_CHECKSIG", "type": "pubkeyhash"}, "value": 0.00089031, "n": 0}, {"scriptPubKey": {"reqSigs": 1, "hex": "76a914b5d53f640aca538bc22a34ee3ee9e2837ec99d7388ac", "addresses": ["1HaSmRh7SiWTKnbiSKAGt1RYmkivKdkRV9"], "asm": "OP_DUP OP_HASH160 b5d53f640aca538bc22a34ee3ee9e2837ec99d73 OP_EQUALVERIFY OP_CHECKSIG", "type": "pubkeyhash"}, "value": 0.008, "n": 1}], "hex": "01000000011af811b436018a071b2019c986de3a74ce526ac5304331889bc2a24179a0ad8a000000006b483045022100f83b0ad1f39e731bff5528a3c9585a5e70c06b371aa041b623dc73e13965319102202338121d47b8c19dd194a623cdaab385fc92d1333511111048b026d2e89e9e800121020730dc0c3c2ab978efaa39608efde182c06fe394e5e086855420707f979432cfffffffff02c75b0100000000001976a91456c893f06fa72752f9a0ddc4643cd3d5e3e26efe88ac00350c00000000001976a914b5d53f640aca538bc22a34ee3ee9e2837ec99d7388ac00000000", "vin": [{"sequence": 4294967295, "scriptSig": {"hex": "483045022100f83b0ad1f39e731bff5528a3c9585a5e70c06b371aa041b623dc73e13965319102202338121d47b8c19dd194a623cdaab385fc92d1333511111048b026d2e89e9e800121020730dc0c3c2ab978efaa39608efde182c06fe394e5e086855420707f979432cf", "asm": "3045022100f83b0ad1f39e731bff5528a3c9585a5e70c06b371aa041b623dc73e13965319102202338121d47b8c19dd194a623cdaab385fc92d1333511111048b026d2e89e9e80[ALL] 020730dc0c3c2ab978efaa39608efde182c06fe394e5e086855420707f979432cf"}, "vout": 0, "txid": "8aada07941a2c29b88314330c56a52ce743ade86c919201b078a0136b411f81a"}], "txid": "ae1318c6b5639341584d86a2e40e54e048c1270d344f119f4498d6a6c241553a", "blocktime": 1537874412, "version": 1, "confirmations": 11468, "time": 1537874412, "locktime": 0, "vsize": 226, "size": 226}