{"hash": "ae14489c03edc0da628528e99f42dde684caca81e7d85eaf1dfad1dae0c0d18e", "blockhash": "0000000000000000000dcc0f55137456b1a82d3642486a52398922ac4d620174", "vout": [{"scriptPubKey": {"reqSigs": 1, "hex": "76a914375dd1a6e9ac447662522684cffcba4637752adf88ac", "addresses": ["163kZCwNKJAK2aBVSnWyDrMDc5owRpmCMQ"], "asm": "OP_DUP OP_HASH160 375dd1a6e9ac447662522684cffcba4637752adf OP_EQUALVERIFY OP_CHECKSIG", "type": "pubkeyhash"}, "value": 0.00488, "n": 0}, {"scriptPubKey": {"reqSigs": 1, "hex": "76a914935edd29e36f2c72ee50d192735f32daf266cef588ac", "addresses": ["1ESDyTfpPCaF2uzXxYnKK6hDwArziSsJLj"], "asm": "OP_DUP OP_HASH160 935edd29e36f2c72ee50d192735f32daf266cef5 OP_EQUALVERIFY OP_CHECKSIG", "type": "pubkeyhash"}, "value": 0.1372809, "n": 1}], "hex": "0100000001226fcdda8400596322eb592a7fedce5a9e992d55e3735e14efe6ce74cf2665bf010000006a473044022005e1cea3cf48c58966f20d2beb7eabecbad7fa8b44be6471d8a0ff0b24f4f17502201b486ef7e8546570d72f931c8dd8c3b74ebf2028e98e7304ffa55795f0c0dfa40121032cb397297604c84832043c5146677c3bad56ce2b6dae1565b12d8f61522651ceffffffff0240720700000000001976a914375dd1a6e9ac447662522684cffcba4637752adf88ac5a79d100000000001976a914935edd29e36f2c72ee50d192735f32daf266cef588ac00000000", "vin": [{"sequence": 4294967295, "scriptSig": {"hex": "473044022005e1cea3cf48c58966f20d2beb7eabecbad7fa8b44be6471d8a0ff0b24f4f17502201b486ef7e8546570d72f931c8dd8c3b74ebf2028e98e7304ffa55795f0c0dfa40121032cb397297604c84832043c5146677c3bad56ce2b6dae1565b12d8f61522651ce", "asm": "3044022005e1cea3cf48c58966f20d2beb7eabecbad7fa8b44be6471d8a0ff0b24f4f17502201b486ef7e8546570d72f931c8dd8c3b74ebf2028e98e7304ffa55795f0c0dfa4[ALL] 032cb397297604c84832043c5146677c3bad56ce2b6dae1565b12d8f61522651ce"}, "vout": 1, "txid": "bf6526cf74cee6ef145e73e3552d999e5aceed7f2a59eb2263590084dacd6f22"}], "txid": "ae14489c03edc0da628528e99f42dde684caca81e7d85eaf1dfad1dae0c0d18e", "blocktime": 1537870268, "version": 1, "confirmations": 11516, "time": 1537870268, "locktime": 0, "vsize": 225, "size": 225}