{"hash": "ae14bf3f3dd5304373b4be1cc15a662cff0a723e9afcbb2f48524460465a3048", "blockhash": "0000000000000000001e0dab787dd257d1dbfcb92a98c2207d5e1078be1f4165", "vout": [{"scriptPubKey": {"type": "nulldata", "hex": "6a4c50000077b300016b8f3cf39184de0b947a3080e5bf9ae76da98a211aaf6c953dd567cf27e796fe12dd60444d70a456a6a613807c935baa11a006119d6c7391326d1d100759d4ba30d2c37bb011d97e02cf", "asm": "OP_RETURN 000077b300016b8f3cf39184de0b947a3080e5bf9ae76da98a211aaf6c953dd567cf27e796fe12dd60444d70a456a6a613807c935baa11a006119d6c7391326d1d100759d4ba30d2c37bb011d97e02cf"}, "value": 0.0, "n": 0}, {"scriptPubKey": {"reqSigs": 1, "hex": "76a91457dad97633d182b516d50db8c3d58c73072b938988ac", "addresses": ["191XxckDqg5tYpPCVWZ9H2U29JSdqJTnTm"], "asm": "OP_DUP OP_HASH160 57dad97633d182b516d50db8c3d58c73072b9389 OP_EQUALVERIFY OP_CHECKSIG", "type": "pubkeyhash"}, "value": 0.00640341, "n": 1}], "hex": "0100000001be02521844404a6ed39f084a326632958d2cef51d3c9f891064cd732103fa95d000000006a473044022009a854a6abc685b12f2e476755fafbce21a0f0cb92c39a12afb6dbc95de8475102201ee2e651cb84025dab671c89bea7eae74bbdf562bb44d0e098914a30655775ea01210394b807926a608d37313f24be5bc0f1314a6f9ad1d37e9f28388f5ba2469ae07dffffffff020000000000000000536a4c50000077b300016b8f3cf39184de0b947a3080e5bf9ae76da98a211aaf6c953dd567cf27e796fe12dd60444d70a456a6a613807c935baa11a006119d6c7391326d1d100759d4ba30d2c37bb011d97e02cf55c50900000000001976a91457dad97633d182b516d50db8c3d58c73072b938988ac00000000", "vin": [{"sequence": 4294967295, "scriptSig": {"hex": "473044022009a854a6abc685b12f2e476755fafbce21a0f0cb92c39a12afb6dbc95de8475102201ee2e651cb84025dab671c89bea7eae74bbdf562bb44d0e098914a30655775ea01210394b807926a608d37313f24be5bc0f1314a6f9ad1d37e9f28388f5ba2469ae07d", "asm": "3044022009a854a6abc685b12f2e476755fafbce21a0f0cb92c39a12afb6dbc95de8475102201ee2e651cb84025dab671c89bea7eae74bbdf562bb44d0e098914a30655775ea[ALL] 0394b807926a608d37313f24be5bc0f1314a6f9ad1d37e9f28388f5ba2469ae07d"}, "vout": 0, "txid": "5da93f1032d74c0691f8c9d351ef2c8d953266324a089fd36e4a4044185202be"}], "txid": "ae14bf3f3dd5304373b4be1cc15a662cff0a723e9afcbb2f48524460465a3048", "blocktime": 1537872475, "version": 1, "confirmations": 11486, "time": 1537872475, "locktime": 0, "vsize": 283, "size": 283}