{"hash": "4b943722678961607d53c11a92424a80a35198cf0d992a793499f626ab89dbf6", "blockhash": "0000000000000000000dcc0f55137456b1a82d3642486a52398922ac4d620174", "vout": [{"scriptPubKey": {"reqSigs": 1, "hex": "a914a06ab6af4161527245fce1aa220ea6059ae013f687", "addresses": ["3GKDspzpAbheqZ3RzUaGqvjXqvuWmTyGAF"], "asm": "OP_HASH160 a06ab6af4161527245fce1aa220ea6059ae013f6 OP_EQUAL", "type": "scripthash"}, "value": 0.49, "n": 0}, {"scriptPubKey": {"reqSigs": 1, "hex": "a914750ca0004cfbb232d54874dd31df380a7544165387", "addresses": ["3CMv7BtjkKUrZW49GxDcq1wavLddyGvyXM"], "asm": "OP_HASH160 750ca0004cfbb232d54874dd31df380a75441653 OP_EQUAL", "type": "scripthash"}, "value": 0.19155092, "n": 1}], "hex": "01000000000103caf0239f9da2029dc077f25fc470350f316bc9e8f9b67382ab95fcd527ebdd5701000000232200207760b91b3cb43e09df0a628cab01ede8a55ef85da46b6d42f0046222178be934ffffffff2659f77c6a7f35e11f3f64c9804bebd93a11884128c520d0c9ce6f1252855f080100000023220020002b509b9009a4d287ea5f7c3d0740eba3044885524e20b2f1c635a48f636859ffffffffdb5dc118c431f07bea0914932bf030d2ce8ebf5241723bb28d33f7414f2f13ca0100000023220020cabce0521dc3f9251de0df2015f8720f4ec7cc5ac653d39e5f38fcc6f96be94fffffffff0240aeeb020000000017a914a06ab6af4161527245fce1aa220ea6059ae013f687944824010000000017a914750ca0004cfbb232d54874dd31df380a7544165387040047304402200d38698f6154d578615da7b35a67902e6ce30415a4da9188eb4465ca4799623b02207bf23a586f8d374c8f9226d38f6dbd7d2f4731254ec24a8e0d434ae41c251c3101483045022100d03a06197e536db79a4a86f582169370b22d51b06eeb9375ca09ea72d22e77320220484e48ff25660cff9916f72cc3df923fdd8d7af6b5588b7ca7ea161172e384710147522102e49bd2f2147b20ca209c86f7f24054bcd541d0af7165b178bd0fe2236e451d12210390304e500c10bec2e53a45195fe9746581d06ace05f3df5b7cf28a7e2c89e8ba52ae040047304402202547f952c6a7e8acbc4505ba86f0f421a2b4030a60df54d1048c61be908b024f02205686a3f168144e3ebd37e4e8c7f5979a5f9f11b6e7cca3fdab6366106b1a64fd014730440220284b16ed5fd3d898def73374688d979176c9a2673087e588e6ee3b86e0cca6070220379fccc700d1b734ba1f8798ed04152b245eb3be0b0c1df4e778c3eadf9a9a0501475221038af2edfd3a23c19f336c0b57b36cfa85a21f29867cea025b074663b845170f6b210390304e500c10bec2e53a45195fe9746581d06ace05f3df5b7cf28a7e2c89e8ba52ae0400483045022100b73490b9fc94058c5003574a605bfb32b5e2aa7c7cb609f11262108bf5856f830220702813e470634441f45e27908caa0d33e067b4d06d74af103a08c739ab1595a80147304402206bb07cd531e1b998880c0440d13eb6122b70a755708e97241ff300158a83f33702200c32a981bb5f11370610dc09bd9c80afd69255dba29d8d22dd4c6dcd07e76b9d0147522102b7a6907512bbf322927dc1498a6bbd3858ad589494bb5effacbb2844645fa419210390304e500c10bec2e53a45195fe9746581d06ace05f3df5b7cf28a7e2c89e8ba52ae00000000", "vin": [{"txinwitness": ["", "304402200d38698f6154d578615da7b35a67902e6ce30415a4da9188eb4465ca4799623b02207bf23a586f8d374c8f9226d38f6dbd7d2f4731254ec24a8e0d434ae41c251c3101", "3045022100d03a06197e536db79a4a86f582169370b22d51b06eeb9375ca09ea72d22e77320220484e48ff25660cff9916f72cc3df923fdd8d7af6b5588b7ca7ea161172e3847101", "522102e49bd2f2147b20ca209c86f7f24054bcd541d0af7165b178bd0fe2236e451d12210390304e500c10bec2e53a45195fe9746581d06ace05f3df5b7cf28a7e2c89e8ba52ae"], "sequence": 4294967295, "scriptSig": {"hex": "2200207760b91b3cb43e09df0a628cab01ede8a55ef85da46b6d42f0046222178be934", "asm": "00207760b91b3cb43e09df0a628cab01ede8a55ef85da46b6d42f0046222178be934"}, "vout": 1, "txid": "57ddeb27d5fc95ab8273b6f9e8c96b310f3570c45ff277c09d02a29d9f23f0ca"}, {"txinwitness": ["", "304402202547f952c6a7e8acbc4505ba86f0f421a2b4030a60df54d1048c61be908b024f02205686a3f168144e3ebd37e4e8c7f5979a5f9f11b6e7cca3fdab6366106b1a64fd01", "30440220284b16ed5fd3d898def73374688d979176c9a2673087e588e6ee3b86e0cca6070220379fccc700d1b734ba1f8798ed04152b245eb3be0b0c1df4e778c3eadf9a9a0501", "5221038af2edfd3a23c19f336c0b57b36cfa85a21f29867cea025b074663b845170f6b210390304e500c10bec2e53a45195fe9746581d06ace05f3df5b7cf28a7e2c89e8ba52ae"], "sequence": 4294967295, "scriptSig": {"hex": "220020002b509b9009a4d287ea5f7c3d0740eba3044885524e20b2f1c635a48f636859", "asm": "0020002b509b9009a4d287ea5f7c3d0740eba3044885524e20b2f1c635a48f636859"}, "vout": 1, "txid": "085f8552126fcec9d020c5284188113ad9eb4b80c9643f1fe1357f6a7cf75926"}, {"txinwitness": ["", "3045022100b73490b9fc94058c5003574a605bfb32b5e2aa7c7cb609f11262108bf5856f830220702813e470634441f45e27908caa0d33e067b4d06d74af103a08c739ab1595a801", "304402206bb07cd531e1b998880c0440d13eb6122b70a755708e97241ff300158a83f33702200c32a981bb5f11370610dc09bd9c80afd69255dba29d8d22dd4c6dcd07e76b9d01", "522102b7a6907512bbf322927dc1498a6bbd3858ad589494bb5effacbb2844645fa419210390304e500c10bec2e53a45195fe9746581d06ace05f3df5b7cf28a7e2c89e8ba52ae"], "sequence": 4294967295, "scriptSig": {"hex": "220020cabce0521dc3f9251de0df2015f8720f4ec7cc5ac653d39e5f38fcc6f96be94f", "asm": "0020cabce0521dc3f9251de0df2015f8720f4ec7cc5ac653d39e5f38fcc6f96be94f"}, "vout": 1, "txid": "ca132f4f41f7338db23b724152bf8eced230f02b931409ea7bf031c418c15ddb"}], "txid": "ae182f992d112912013daf9bf757d2d6343e8122684ab8e7761e83577c636b72", "blocktime": 1537870268, "version": 1, "confirmations": 11518, "time": 1537870268, "locktime": 0, "vsize": 467, "size": 960}