{"hash": "38444fa82ae0b7d821a12bf3064225be0c4e21e646a367772a6b9a320b7252a8", "blockhash": "0000000000000000000baef3f32e3676a92c3b2e5da21b426e4f302fc371ce76", "vout": [{"scriptPubKey": {"reqSigs": 1, "hex": "a9141840d07bba3f94502ff99787a726441342fbed5b87", "addresses": ["33uFnXiCvMW9E8sHA3to1gPvLpw5UEXWhC"], "asm": "OP_HASH160 1840d07bba3f94502ff99787a726441342fbed5b OP_EQUAL", "type": "scripthash"}, "value": 0.00014375, "n": 0}, {"scriptPubKey": {"reqSigs": 1, "hex": "a9140be7846be16b05bea00dbec2fcd7e045a793cb1787", "addresses": ["32mxhko5mJHfkbkDPpz7SfdJwEJi21P1WK"], "asm": "OP_HASH160 0be7846be16b05bea00dbec2fcd7e045a793cb17 OP_EQUAL", "type": "scripthash"}, "value": 0.1790055, "n": 1}], "hex": "0100000000010108813550512ced587ab8d71434e4c71eab4d1d9c16f9d008b7792e9d1d426f7701000000232200202c66ece6da72bcbfeadf83a91236f4891c13e14d8ecebdcaa81666fc1aa73a31ffffffff02273800000000000017a9141840d07bba3f94502ff99787a726441342fbed5b87062411010000000017a9140be7846be16b05bea00dbec2fcd7e045a793cb17870400473044022033f8447f1947d609274733f3f366ffe142a886e26272a172c4de912470660af502202c161af384af36397f2bff6ee92aa392c33d2f9d1eb4c0dcb5ab34ecbba7d58201483045022100819152e6ffbfbf77879d11f3757846ad82fe3d660c46035d5dc8a0b5abe765b602201d0ae96df4d0c3581ccb2a430b314120d9e2e89d6c2810fd9aeaa72edd47fb0d01475221029e6fbb942d34a473faaa5557c1bfe08d72102f0b9754ad140fd369d7a3ba3cdc2103871fc2ca08e6950b38867e8e6a0e94ee625223d3aa0df5c65f414c6d784467e252ae00000000", "vin": [{"txinwitness": ["", "3044022033f8447f1947d609274733f3f366ffe142a886e26272a172c4de912470660af502202c161af384af36397f2bff6ee92aa392c33d2f9d1eb4c0dcb5ab34ecbba7d58201", "3045022100819152e6ffbfbf77879d11f3757846ad82fe3d660c46035d5dc8a0b5abe765b602201d0ae96df4d0c3581ccb2a430b314120d9e2e89d6c2810fd9aeaa72edd47fb0d01", "5221029e6fbb942d34a473faaa5557c1bfe08d72102f0b9754ad140fd369d7a3ba3cdc2103871fc2ca08e6950b38867e8e6a0e94ee625223d3aa0df5c65f414c6d784467e252ae"], "sequence": 4294967295, "scriptSig": {"hex": "2200202c66ece6da72bcbfeadf83a91236f4891c13e14d8ecebdcaa81666fc1aa73a31", "asm": "00202c66ece6da72bcbfeadf83a91236f4891c13e14d8ecebdcaa81666fc1aa73a31"}, "vout": 1, "txid": "776f421d9d2e79b708d0f9169c1d4dab1ec7e43414d7b87a58ed2c5150358108"}], "txid": "ae19fbcaab1fa2ceb6881588e595c359c02a66fb9a359957fc5e8b603f4042a1", "blocktime": 1537876114, "version": 1, "confirmations": 11460, "time": 1537876114, "locktime": 0, "vsize": 206, "size": 371}