{"hash": "c6e80dd4a051376b67ec41423d7080f15001eac461dd2a49dba224cbe530c198", "blockhash": "00000000000000000017f5eb5941039fbcee6240d03bc1f2f8e35350df66a1d8", "vout": [{"scriptPubKey": {"reqSigs": 1, "hex": "76a914116bc0ba6f1d422ddaa42fb3f524c57690e872bb88ac", "addresses": ["12b7a4UvGS8VyNjkvxyUg7SDuDBbfxqt4E"], "asm": "OP_DUP OP_HASH160 116bc0ba6f1d422ddaa42fb3f524c57690e872bb OP_EQUALVERIFY OP_CHECKSIG", "type": "pubkeyhash"}, "value": 0.0005, "n": 0}, {"scriptPubKey": {"reqSigs": 1, "hex": "a9149b349039045e24dc09fda4b02b9f855bcef350d187", "addresses": ["3FqfdSjN29ZqjS49sXAkcbrdjUJeFDDCb8"], "asm": "OP_HASH160 9b349039045e24dc09fda4b02b9f855bcef350d1 OP_EQUAL", "type": "scripthash"}, "value": 0.01996688, "n": 1}], "hex": "02000000000101f9f427c52f16d2462890c6c966ec768804ddf67c32f186db74b9bcfc8911254c0000000017160014f7450cae9ad8f61d8ed51d9cf0243a0da54f02f3feffffff0250c30000000000001976a914116bc0ba6f1d422ddaa42fb3f524c57690e872bb88ac90771e000000000017a9149b349039045e24dc09fda4b02b9f855bcef350d18702483045022100f2b3218616f8ccab11f0578a6093c0d453159d8028b78f3e01daa542d3dec7a9022047bf9ba40d851850496a3ba446b25f6de77cfdb461d42a1f62305c3e653fab9b012102b19add46f88ff4718b1542798ac48849a7fe2a848b75fd871d6c61a44491d62715490800", "vin": [{"txinwitness": ["3045022100f2b3218616f8ccab11f0578a6093c0d453159d8028b78f3e01daa542d3dec7a9022047bf9ba40d851850496a3ba446b25f6de77cfdb461d42a1f62305c3e653fab9b01", "02b19add46f88ff4718b1542798ac48849a7fe2a848b75fd871d6c61a44491d627"], "sequence": 4294967294, "scriptSig": {"hex": "160014f7450cae9ad8f61d8ed51d9cf0243a0da54f02f3", "asm": "0014f7450cae9ad8f61d8ed51d9cf0243a0da54f02f3"}, "vout": 0, "txid": "4c251189fcbcb974db86f1327cf6dd048876ec66c9c6902846d2162fc527f4f9"}], "txid": "ae1d2e84a82fe8bbdff299359c07eee78d078db951e9adfc73319d3504b4e48c", "blocktime": 1537874412, "version": 2, "confirmations": 11468, "time": 1537874412, "locktime": 542997, "vsize": 168, "size": 250}