{"hash": "ae209433b8c5feff41eb9c0f1cc54c8a1e4e7fceb911389a8bcf4a18c8856478", "blockhash": "0000000000000000001e0dab787dd257d1dbfcb92a98c2207d5e1078be1f4165", "vout": [{"scriptPubKey": {"reqSigs": 1, "hex": "a9140863ebf3898ce93e0c8e957b194612e66b788b4087", "addresses": ["32TP2kxmLhuAr4Jnn9TTyScSujNftVrXMN"], "asm": "OP_HASH160 0863ebf3898ce93e0c8e957b194612e66b788b40 OP_EQUAL", "type": "scripthash"}, "value": 1.275e-05, "n": 0}], "hex": "01000000014670c18b7a2f5be82ddb64026b6ed5327a18eda86f1a6fb18086d8d83a237cad000000006b483045022100a452511f1ee84058fa1d44ae497eb3ad5ccaa16c00ef9234f33f43fc5b7d2244022065ee9beb4235357fe5e918988fd00586edf9703cfb85248cb048c4a46b00b77b012102bc4a67179fc34d274d40c754ee669d942dbf22b35ef08062e37922fae70fc037ffffffff01fb0400000000000017a9140863ebf3898ce93e0c8e957b194612e66b788b408700000000", "vin": [{"sequence": 4294967295, "scriptSig": {"hex": "483045022100a452511f1ee84058fa1d44ae497eb3ad5ccaa16c00ef9234f33f43fc5b7d2244022065ee9beb4235357fe5e918988fd00586edf9703cfb85248cb048c4a46b00b77b012102bc4a67179fc34d274d40c754ee669d942dbf22b35ef08062e37922fae70fc037", "asm": "3045022100a452511f1ee84058fa1d44ae497eb3ad5ccaa16c00ef9234f33f43fc5b7d2244022065ee9beb4235357fe5e918988fd00586edf9703cfb85248cb048c4a46b00b77b[ALL] 02bc4a67179fc34d274d40c754ee669d942dbf22b35ef08062e37922fae70fc037"}, "vout": 0, "txid": "ad7c233ad8d88680b16f1a6fa8ed187a32d56e6b0264db2de85b2f7a8bc17046"}], "txid": "ae209433b8c5feff41eb9c0f1cc54c8a1e4e7fceb911389a8bcf4a18c8856478", "blocktime": 1537872475, "version": 1, "confirmations": 11487, "time": 1537872475, "locktime": 0, "vsize": 190, "size": 190}