{"hash": "3f40a1d68ac978ec15612038406ba5e9898e1a15d848c37aa647e23438ec6479", "blockhash": "00000000000000000024a2167bbff67b0be802c0b01cdd79e6331c2be6459f87", "vout": [{"scriptPubKey": {"reqSigs": 1, "hex": "a9143588010761de2b3200f8fac23a777d4e941033f887", "addresses": ["36a4fSDpsKAoXtXkUCFnqfkkQkMQ9RpW9m"], "asm": "OP_HASH160 3588010761de2b3200f8fac23a777d4e941033f8 OP_EQUAL", "type": "scripthash"}, "value": 0.0100648, "n": 0}, {"scriptPubKey": {"reqSigs": 1, "hex": "a91469f374f3aae0ae89f609b550e06438806aa4569287", "addresses": ["3BMEXN4bsrb3F4vvoQVcA1Nju5RqaoANcN"], "asm": "OP_HASH160 69f374f3aae0ae89f609b550e06438806aa45692 OP_EQUAL", "type": "scripthash"}, "value": 0.00167309, "n": 1}], "hex": "02000000000102b4b067302d47cc09b1f59d87c4d1cef7a21f79cc7b11a857aa61949612b912c70100000017160014137861a4ad3011053dd4dcbd5176128b297e1bb9fdffffffe66965adf427c2278141513a2cc4813844cddea32bedbf8d968df4a425833b02010000001716001409ab8498f9e75afee26552720c135d5f8bfbff44fdffffff02905b0f000000000017a9143588010761de2b3200f8fac23a777d4e941033f8878d8d02000000000017a91469f374f3aae0ae89f609b550e06438806aa45692870247304402203f9b5e0be3f7a37fdd96ccee90f5e046795ca7461e1c702fdd413d718d594c63022062efda986b162ab91c489c13998eb2f52fe1e9b8657a0eab63a70a84dc4518a001210258ac7e377bfd6cb2dda3c1c7b34e6556a5befd719cb803ea2f56d2ac12b2fb900247304402200a008d5b0911daeac6f8575661d7c4b248d8d902d943b975fce04f74b96ed546022013c77ccf5f4b2c337f6411e55d4c4a57fc4e040b0aa7d63df5d6f54cf8c450bb01210243481d2b9ce2e60cb8241493ccd4f038f908da41f9facfd144d1fe31ef17210600000000", "vin": [{"txinwitness": ["304402203f9b5e0be3f7a37fdd96ccee90f5e046795ca7461e1c702fdd413d718d594c63022062efda986b162ab91c489c13998eb2f52fe1e9b8657a0eab63a70a84dc4518a001", "0258ac7e377bfd6cb2dda3c1c7b34e6556a5befd719cb803ea2f56d2ac12b2fb90"], "sequence": 4294967293, "scriptSig": {"hex": "160014137861a4ad3011053dd4dcbd5176128b297e1bb9", "asm": "0014137861a4ad3011053dd4dcbd5176128b297e1bb9"}, "vout": 1, "txid": "c712b912969461aa57a8117bcc791fa2f7ced1c4879df5b109cc472d3067b0b4"}, {"txinwitness": ["304402200a008d5b0911daeac6f8575661d7c4b248d8d902d943b975fce04f74b96ed546022013c77ccf5f4b2c337f6411e55d4c4a57fc4e040b0aa7d63df5d6f54cf8c450bb01", "0243481d2b9ce2e60cb8241493ccd4f038f908da41f9facfd144d1fe31ef172106"], "sequence": 4294967293, "scriptSig": {"hex": "16001409ab8498f9e75afee26552720c135d5f8bfbff44", "asm": "001409ab8498f9e75afee26552720c135d5f8bfbff44"}, "vout": 1, "txid": "023b8325a4f48d968dbfed2ba3decd443881c42c3a51418127c227f4ad6569e6"}], "txid": "ae235c25225c0be04bdd87dce8725680196fc1a23b71e7060f78af59da3b0257", "blocktime": 1537870564, "version": 2, "confirmations": 11515, "time": 1537870564, "locktime": 0, "vsize": 256, "size": 418}