{"hash": "ae23d40abfcd0da406cdc38f1882e33a4b7429a8db8300240a9098be0b6a1cc4", "blockhash": "0000000000000000000baef3f32e3676a92c3b2e5da21b426e4f302fc371ce76", "vout": [{"scriptPubKey": {"reqSigs": 1, "hex": "a914042d1819d9a7c83410e3d3302fa045323f59d50887", "addresses": ["3256eWNLfFukeaURQshJQwLcY8mVZg7Bif"], "asm": "OP_HASH160 042d1819d9a7c83410e3d3302fa045323f59d508 OP_EQUAL", "type": "scripthash"}, "value": 0.001568, "n": 0}, {"scriptPubKey": {"reqSigs": 1, "hex": "76a9144ce258f0145d0ad14ee1ca8ba00d895f102035e988ac", "addresses": ["181XWUSWbYeAuYHxVdfg21Z2Jeoe56ogBn"], "asm": "OP_DUP OP_HASH160 4ce258f0145d0ad14ee1ca8ba00d895f102035e9 OP_EQUALVERIFY OP_CHECKSIG", "type": "pubkeyhash"}, "value": 0.22190516, "n": 1}], "hex": "01000000015a53610b3b333550c336be2bc8508bce86f24e3c01bf2d940aaab9bc463860bf010000006a47304402203aeed0a784054bea20450ab30376014e2a333822bfc6339acd922a99ad7f686402207f6ac4a27ad024ae7d4a70caeb3401391185f0fd2ee18701e6311a50c137e7e8012102c18b0e47ab8dc6c0a5eeabc43b8f6370cfd1b611beb85442825c656f991cc5caffffffff02806402000000000017a914042d1819d9a7c83410e3d3302fa045323f59d50887b4995201000000001976a9144ce258f0145d0ad14ee1ca8ba00d895f102035e988ac00000000", "vin": [{"sequence": 4294967295, "scriptSig": {"hex": "47304402203aeed0a784054bea20450ab30376014e2a333822bfc6339acd922a99ad7f686402207f6ac4a27ad024ae7d4a70caeb3401391185f0fd2ee18701e6311a50c137e7e8012102c18b0e47ab8dc6c0a5eeabc43b8f6370cfd1b611beb85442825c656f991cc5ca", "asm": "304402203aeed0a784054bea20450ab30376014e2a333822bfc6339acd922a99ad7f686402207f6ac4a27ad024ae7d4a70caeb3401391185f0fd2ee18701e6311a50c137e7e8[ALL] 02c18b0e47ab8dc6c0a5eeabc43b8f6370cfd1b611beb85442825c656f991cc5ca"}, "vout": 1, "txid": "bf603846bcb9aa0a942dbf013c4ef286ce8b50c82bbe36c35035333b0b61535a"}], "txid": "ae23d40abfcd0da406cdc38f1882e33a4b7429a8db8300240a9098be0b6a1cc4", "blocktime": 1537876114, "version": 1, "confirmations": 11460, "time": 1537876114, "locktime": 0, "vsize": 223, "size": 223}