{"hash": "3e54480277427cde306c8ab94ebfb1fd9af2f3b42a36999c889cc0590ab7ad03", "blockhash": "0000000000000000001e0dab787dd257d1dbfcb92a98c2207d5e1078be1f4165", "vout": [{"scriptPubKey": {"reqSigs": 1, "hex": "a91491822e009e56a199b563ab9d8acabd0c3171fbd787", "addresses": ["3ExPrQLD3UeJY4gxtQx8G5mwCCsRkzA8a6"], "asm": "OP_HASH160 91822e009e56a199b563ab9d8acabd0c3171fbd7 OP_EQUAL", "type": "scripthash"}, "value": 0.021834, "n": 0}, {"scriptPubKey": {"reqSigs": 1, "hex": "a9140e490dd54f21e2c4bf5cd9f3ed7827986d63699d87", "addresses": ["32zYu7VgzWM2bEiu85z98f9c9vEWh7kvtC"], "asm": "OP_HASH160 0e490dd54f21e2c4bf5cd9f3ed7827986d63699d OP_EQUAL", "type": "scripthash"}, "value": 0.00814172, "n": 1}], "hex": "020000000001010464fa81d42e80a9611b6298c85dfe8bd4d1c79452b7ee57f8c77a7f7e4f7f6001000000171600147c83a9ace5a73c54449f00bd75af716a45cd17c8ffffffff02e85021000000000017a91491822e009e56a199b563ab9d8acabd0c3171fbd7875c6c0c000000000017a9140e490dd54f21e2c4bf5cd9f3ed7827986d63699d8702483045022100b850e9a8d6081d345ff0fa4f1b208af1028f7ac26df3258579ec4d5873e3e3800220194f112a6e59cc6ab4be7f2fabeab44294aaf3e45e83acc9f05a9bbdda105eaa0121039f94bf95dafabb72c994e8bed182ddbd49319a54042812ce8ce47ad140fba87b00000000", "vin": [{"txinwitness": ["3045022100b850e9a8d6081d345ff0fa4f1b208af1028f7ac26df3258579ec4d5873e3e3800220194f112a6e59cc6ab4be7f2fabeab44294aaf3e45e83acc9f05a9bbdda105eaa01", "039f94bf95dafabb72c994e8bed182ddbd49319a54042812ce8ce47ad140fba87b"], "sequence": 4294967295, "scriptSig": {"hex": "1600147c83a9ace5a73c54449f00bd75af716a45cd17c8", "asm": "00147c83a9ace5a73c54449f00bd75af716a45cd17c8"}, "vout": 1, "txid": "607f4f7e7f7ac7f857eeb75294c7d1d48bfe5dc898621b61a9802ed481fa6404"}], "txid": "ae235120dd3a9add6ede2358027359062d87418be6cce26b965aaba97c418d89", "blocktime": 1537872475, "version": 2, "confirmations": 11486, "time": 1537872475, "locktime": 0, "vsize": 166, "size": 248}