{"hash": "ae2607ed333f327f18fcb8504ef93ae1a7d85a6e10061d8a7e8c578f107f2d1f", "blockhash": "0000000000000000001f76057863aec43deb6fa401d9628bb513d65a8098bfab", "vout": [{"scriptPubKey": {"reqSigs": 1, "hex": "76a914cafc0bb2e55adb7a2b47facc391c39cf4d56e3bc88ac", "addresses": ["1KWHSC8WtrWb8jbNUQEHgZwjAFYjHFiuyD"], "asm": "OP_DUP OP_HASH160 cafc0bb2e55adb7a2b47facc391c39cf4d56e3bc OP_EQUALVERIFY OP_CHECKSIG", "type": "pubkeyhash"}, "value": 0.1957408, "n": 0}, {"scriptPubKey": {"reqSigs": 1, "hex": "a914f9c568129e0facc2aa66fc3ee1fe03491e22740987", "addresses": ["3QTgfMbka1zjjpDsZA4zK3yxHK3gqWAyEr"], "asm": "OP_HASH160 f9c568129e0facc2aa66fc3ee1fe03491e227409 OP_EQUAL", "type": "scripthash"}, "value": 0.00263, "n": 1}], "hex": "01000000018ae51f89d9f144e17fe646a7a1250b3b0a9257dd4ed7d6a6588c27f9d1d391ef000000006b4830450221008cd81b603f12b0552081b9413e963362b1843bce374d04fcb12b917e90c1532f02200f618b497c20b2b39e587b5b4506951ac7687eb5d140d22e7fb094947d5a1dd50121031fa43e7313621515f03516a4f5dee6b2d15febd1eca65d1d181bb3303a51eaedfeffffff0240ad2a01000000001976a914cafc0bb2e55adb7a2b47facc391c39cf4d56e3bc88ac580304000000000017a914f9c568129e0facc2aa66fc3ee1fe03491e22740987cd480800", "vin": [{"sequence": 4294967294, "scriptSig": {"hex": "4830450221008cd81b603f12b0552081b9413e963362b1843bce374d04fcb12b917e90c1532f02200f618b497c20b2b39e587b5b4506951ac7687eb5d140d22e7fb094947d5a1dd50121031fa43e7313621515f03516a4f5dee6b2d15febd1eca65d1d181bb3303a51eaed", "asm": "30450221008cd81b603f12b0552081b9413e963362b1843bce374d04fcb12b917e90c1532f02200f618b497c20b2b39e587b5b4506951ac7687eb5d140d22e7fb094947d5a1dd5[ALL] 031fa43e7313621515f03516a4f5dee6b2d15febd1eca65d1d181bb3303a51eaed"}, "vout": 0, "txid": "ef91d3d1f9278c58a6d6d74edd57920a3b0b25a1a746e67fe144f1d9891fe58a"}], "txid": "ae2607ed333f327f18fcb8504ef93ae1a7d85a6e10061d8a7e8c578f107f2d1f", "blocktime": 1537873891, "version": 1, "confirmations": 11474, "time": 1537873891, "locktime": 542925, "vsize": 224, "size": 224}