{"hash": "ae297ec064d8c9bb869be9e5980381dfc31125cbdad8ecca359d4094b17a259a", "blockhash": "0000000000000000000e13cef7c366c0283d82e591d1acd082e914b08063cdf1", "vout": [{"scriptPubKey": {"reqSigs": 1, "hex": "76a9147143b86c85e95ac6076a218a62be4535500ebb6088ac", "addresses": ["1BKtUyScWoHVQQDDu98LafCyptdhPwzGyv"], "asm": "OP_DUP OP_HASH160 7143b86c85e95ac6076a218a62be4535500ebb60 OP_EQUALVERIFY OP_CHECKSIG", "type": "pubkeyhash"}, "value": 0.02289, "n": 0}, {"scriptPubKey": {"reqSigs": 1, "hex": "a914e370231feecbfc25e2e2423a5a79bf79bfdca59887", "addresses": ["3NRbeX3vD5VaVE4TDU9ivCDsEf7NPPte6J"], "asm": "OP_HASH160 e370231feecbfc25e2e2423a5a79bf79bfdca598 OP_EQUAL", "type": "scripthash"}, "value": 3.38959391, "n": 1}], "hex": "0100000001f129bef74a5dc2bea87219efd3573ea52c15aabcd020bbb3e7366657c017d39101000000d90047304402201c7acbd1f6b6f41c67e5a2c46780fe0ea170a8bc470150733d4aac28d977029e02204eb2e8bce4bd78af711e91e2dc57d5e94ddd372d9a4419d934e6d8356697e957014730440220524a99c7aac78bf4961a004ddaf413c499d2ac5f05753a2368a84b994b184ee602207690c947b9c808292fa270f83d1e28871a7aeaa2f217616d66ec6119698501b5014752210327881b6abce6535553a3ce21fad12a7d74fd237ce7c4cd270a267162344e3082210256141f8eb687f5a68c5cc65054652dc25116fa285e44d72b44368827ffe77d9a52aeffffffff0268ed2200000000001976a9147143b86c85e95ac6076a218a62be4535500ebb6088ac1f1c34140000000017a914e370231feecbfc25e2e2423a5a79bf79bfdca5988700000000", "vin": [{"sequence": 4294967295, "scriptSig": {"hex": "0047304402201c7acbd1f6b6f41c67e5a2c46780fe0ea170a8bc470150733d4aac28d977029e02204eb2e8bce4bd78af711e91e2dc57d5e94ddd372d9a4419d934e6d8356697e957014730440220524a99c7aac78bf4961a004ddaf413c499d2ac5f05753a2368a84b994b184ee602207690c947b9c808292fa270f83d1e28871a7aeaa2f217616d66ec6119698501b5014752210327881b6abce6535553a3ce21fad12a7d74fd237ce7c4cd270a267162344e3082210256141f8eb687f5a68c5cc65054652dc25116fa285e44d72b44368827ffe77d9a52ae", "asm": "0 304402201c7acbd1f6b6f41c67e5a2c46780fe0ea170a8bc470150733d4aac28d977029e02204eb2e8bce4bd78af711e91e2dc57d5e94ddd372d9a4419d934e6d8356697e957[ALL] 30440220524a99c7aac78bf4961a004ddaf413c499d2ac5f05753a2368a84b994b184ee602207690c947b9c808292fa270f83d1e28871a7aeaa2f217616d66ec6119698501b5[ALL] 52210327881b6abce6535553a3ce21fad12a7d74fd237ce7c4cd270a267162344e3082210256141f8eb687f5a68c5cc65054652dc25116fa285e44d72b44368827ffe77d9a52ae"}, "vout": 1, "txid": "91d317c0576636e7b3bb20d0bcaa152ca53e57d3ef1972a8bec25d4af7be29f1"}], "txid": "ae297ec064d8c9bb869be9e5980381dfc31125cbdad8ecca359d4094b17a259a", "blocktime": 1537871767, "version": 1, "confirmations": 11495, "time": 1537871767, "locktime": 0, "vsize": 334, "size": 334}