{"hash": "ae2b774c69f34b6bd7cb53d3ee191cf53b634e2080a1bc7b481401c431466804", "blockhash": "0000000000000000000e13cef7c366c0283d82e591d1acd082e914b08063cdf1", "vout": [{"scriptPubKey": {"reqSigs": 1, "hex": "76a914dfc0359c2bc5dbda14d47c4fd4115ff386cf223988ac", "addresses": ["1MQ5wiuCHfATAsAZ1wjPn7opjmQM7hiLfe"], "asm": "OP_DUP OP_HASH160 dfc0359c2bc5dbda14d47c4fd4115ff386cf2239 OP_EQUALVERIFY OP_CHECKSIG", "type": "pubkeyhash"}, "value": 0.00060078, "n": 0}, {"scriptPubKey": {"reqSigs": 1, "hex": "76a9142720c515abb2a98e48314a5001d31165bc85553988ac", "addresses": ["14ZtcNY5r9M7izuFYVCFQ4F6ES4vcpQj24"], "asm": "OP_DUP OP_HASH160 2720c515abb2a98e48314a5001d31165bc855539 OP_EQUALVERIFY OP_CHECKSIG", "type": "pubkeyhash"}, "value": 0.005017, "n": 1}], "hex": "0100000001fe599621e91d9c677b1b31b4ebda2807746583ca69b2103a754bf45171ead0ab010000006b483045022100baafb15508b80b4818377ebb056f9088794c9149dcc024444135c7239fc1b11b022072b4670cc80cef92ec72d07d2f55f60cff37cb4e60cea05f48dec796a6035d11012103c9746fbe2a5815f7bb0a4dc8f02555aed6cbf4a06a6a8e15472e91c033eab9a9ffffffff02aeea0000000000001976a914dfc0359c2bc5dbda14d47c4fd4115ff386cf223988acc4a70700000000001976a9142720c515abb2a98e48314a5001d31165bc85553988ac00000000", "vin": [{"sequence": 4294967295, "scriptSig": {"hex": "483045022100baafb15508b80b4818377ebb056f9088794c9149dcc024444135c7239fc1b11b022072b4670cc80cef92ec72d07d2f55f60cff37cb4e60cea05f48dec796a6035d11012103c9746fbe2a5815f7bb0a4dc8f02555aed6cbf4a06a6a8e15472e91c033eab9a9", "asm": "3045022100baafb15508b80b4818377ebb056f9088794c9149dcc024444135c7239fc1b11b022072b4670cc80cef92ec72d07d2f55f60cff37cb4e60cea05f48dec796a6035d11[ALL] 03c9746fbe2a5815f7bb0a4dc8f02555aed6cbf4a06a6a8e15472e91c033eab9a9"}, "vout": 1, "txid": "abd0ea7151f44b753a10b269ca8365740728daebb4311b7b679c1de9219659fe"}], "txid": "ae2b774c69f34b6bd7cb53d3ee191cf53b634e2080a1bc7b481401c431466804", "blocktime": 1537871767, "version": 1, "confirmations": 11495, "time": 1537871767, "locktime": 0, "vsize": 226, "size": 226}