{"hash": "ae32ee235e25cc93cb5ba1fc74c5fcd8c2897abeb3bfd5c58c5872ab1b2b14cb", "blockhash": "00000000000000000004ffacab907a6b429b9a5745fa0b75af4234bf69dd7176", "vout": [{"scriptPubKey": {"type": "nulldata", "hex": "6a146f6d6e69000000000000001f0000014b09e24a00", "asm": "OP_RETURN 6f6d6e69000000000000001f0000014b09e24a00"}, "value": 0.0, "n": 0}, {"scriptPubKey": {"reqSigs": 1, "hex": "76a9143a444c123787cfffef84370a48161b29e517d1c788ac", "addresses": ["16K61Vk1g4m6mv327SVeFRvamut4MEB9rJ"], "asm": "OP_DUP OP_HASH160 3a444c123787cfffef84370a48161b29e517d1c7 OP_EQUALVERIFY OP_CHECKSIG", "type": "pubkeyhash"}, "value": 5.46e-06, "n": 1}, {"scriptPubKey": {"reqSigs": 1, "hex": "76a914a25dec4d0011064ef106a983c39c7a540699f22088ac", "addresses": ["1FoWyxwPXuj4C6abqwhjDWdz6D4PZgYRjA"], "asm": "OP_DUP OP_HASH160 a25dec4d0011064ef106a983c39c7a540699f220 OP_EQUALVERIFY OP_CHECKSIG", "type": "pubkeyhash"}, "value": 0.01980784, "n": 2}], "hex": "010000000156780bfad305aeaf7a8d64be59297a3e00c53b86f1c1c9404506054e3573d4c9000000006b483045022100ede096836b76161603abfa581c3fd4977ca8d7fcf75b187c8a3f38587815b4a30220374ba9bc6e3082d1920b05574a912fa1225e951d6eb8bd0a8761befd2c5491d6012103da5bac7b36d5aa38f531c6b9601e21bb598a4b6716ebed38b009a55dabde9440feffffff030000000000000000166a146f6d6e69000000000000001f0000014b09e24a0022020000000000001976a9143a444c123787cfffef84370a48161b29e517d1c788ac70391e00000000001976a914a25dec4d0011064ef106a983c39c7a540699f22088ac16490800", "vin": [{"sequence": 4294967294, "scriptSig": {"hex": "483045022100ede096836b76161603abfa581c3fd4977ca8d7fcf75b187c8a3f38587815b4a30220374ba9bc6e3082d1920b05574a912fa1225e951d6eb8bd0a8761befd2c5491d6012103da5bac7b36d5aa38f531c6b9601e21bb598a4b6716ebed38b009a55dabde9440", "asm": "3045022100ede096836b76161603abfa581c3fd4977ca8d7fcf75b187c8a3f38587815b4a30220374ba9bc6e3082d1920b05574a912fa1225e951d6eb8bd0a8761befd2c5491d6[ALL] 03da5bac7b36d5aa38f531c6b9601e21bb598a4b6716ebed38b009a55dabde9440"}, "vout": 0, "txid": "c9d473354e05064540c9c1f1863bc5003e7a2959be648d7aafae05d3fa0b7856"}], "txid": "ae32ee235e25cc93cb5ba1fc74c5fcd8c2897abeb3bfd5c58c5872ab1b2b14cb", "blocktime": 1537875543, "version": 1, "confirmations": 11464, "time": 1537875543, "locktime": 542998, "vsize": 257, "size": 257}