{"hash": "ae35993ca1d316eb9bddecf8673c8c2fa0a6f0a2f1a7d28ad3f5b9650cc32531", "blockhash": "0000000000000000000baef3f32e3676a92c3b2e5da21b426e4f302fc371ce76", "vout": [{"scriptPubKey": {"reqSigs": 1, "hex": "a91418b771c2b1e2ce250e778bb3845960ca4015541e87", "addresses": ["33whu5y5iAiBwxUF9Yh3eZSxfBFLVRu1J4"], "asm": "OP_HASH160 18b771c2b1e2ce250e778bb3845960ca4015541e OP_EQUAL", "type": "scripthash"}, "value": 0.00408413, "n": 0}, {"scriptPubKey": {"reqSigs": 1, "hex": "76a914f904a469ee1de97166d636ac0e185353c468309d88ac", "addresses": ["1PhgpKEWG3EXkSPjv4EVu8mDAXEM4ZkpDh"], "asm": "OP_DUP OP_HASH160 f904a469ee1de97166d636ac0e185353c468309d OP_EQUALVERIFY OP_CHECKSIG", "type": "pubkeyhash"}, "value": 0.16515902, "n": 1}], "hex": "01000000017a9fee996980dc768148062eea756a8d5e8edc8e1c69b188cfe60db284389993010000006a47304402202f4161f41b0da56cd458bda8cff1cbaa2134ef662822ceff6ba7d84547e1d097022036f7d146514a02bce3a99781616e4adc112e039a3bd164227b130a2fc3912e310121031ca0f8a9ce2e9ce259a875b1697bbb9dfea908457cb3ffed0703baf5fa7301b1ffffffff025d3b06000000000017a91418b771c2b1e2ce250e778bb3845960ca4015541e873e03fc00000000001976a914f904a469ee1de97166d636ac0e185353c468309d88ac00000000", "vin": [{"sequence": 4294967295, "scriptSig": {"hex": "47304402202f4161f41b0da56cd458bda8cff1cbaa2134ef662822ceff6ba7d84547e1d097022036f7d146514a02bce3a99781616e4adc112e039a3bd164227b130a2fc3912e310121031ca0f8a9ce2e9ce259a875b1697bbb9dfea908457cb3ffed0703baf5fa7301b1", "asm": "304402202f4161f41b0da56cd458bda8cff1cbaa2134ef662822ceff6ba7d84547e1d097022036f7d146514a02bce3a99781616e4adc112e039a3bd164227b130a2fc3912e31[ALL] 031ca0f8a9ce2e9ce259a875b1697bbb9dfea908457cb3ffed0703baf5fa7301b1"}, "vout": 1, "txid": "93993884b20de6cf88b1691c8edc8e5e8d6a75ea2e06488176dc806999ee9f7a"}], "txid": "ae35993ca1d316eb9bddecf8673c8c2fa0a6f0a2f1a7d28ad3f5b9650cc32531", "blocktime": 1537876114, "version": 1, "confirmations": 11459, "time": 1537876114, "locktime": 0, "vsize": 223, "size": 223}