{"hash": "ae3613d6fea764e8f8af4c95f459bda58358fa51d4beea1ec91f28707f6c3d95", "blockhash": "00000000000000000018f53835495a110e01622372bf6ae95dc86f2b0ab887b0", "vout": [{"scriptPubKey": {"reqSigs": 1, "hex": "76a914ac50ad9f53f7a7ab0de55f1f7bd5c146a87029e088ac", "addresses": ["1Gi7scgt19CidGz8ZpHTrtsMUfXLS6Wt8Q"], "asm": "OP_DUP OP_HASH160 ac50ad9f53f7a7ab0de55f1f7bd5c146a87029e0 OP_EQUALVERIFY OP_CHECKSIG", "type": "pubkeyhash"}, "value": 0.08594557, "n": 0}, {"scriptPubKey": {"type": "nulldata", "hex": "6a146f6d6e69000000000000001f0000015d3ef79800", "asm": "OP_RETURN 6f6d6e69000000000000001f0000015d3ef79800"}, "value": 0.0, "n": 1}, {"scriptPubKey": {"reqSigs": 1, "hex": "76a914ac50ad9f53f7a7ab0de55f1f7bd5c146a87029e088ac", "addresses": ["1Gi7scgt19CidGz8ZpHTrtsMUfXLS6Wt8Q"], "asm": "OP_DUP OP_HASH160 ac50ad9f53f7a7ab0de55f1f7bd5c146a87029e0 OP_EQUALVERIFY OP_CHECKSIG", "type": "pubkeyhash"}, "value": 5.46e-06, "n": 2}], "hex": "0100000003772c43bc1e749c2d2676d5184705e01b58ea35ab976bbca74dd46a34e6aacc05010000006a47304402206d5d5ce2f8b7b9daceb2c13207520c458445cafebb45a0ea6d5de9d1da0319c6022047ee0cada209f0dcd89831978cfece2e9818e2278863fa9f7db9a4a5bd53f73d0121029ce0fc832c6d2e5307e5c6e8d4bbaee748e9fe1908893336683124ad7c3a4267ffffffff87bafd1e695c90db0bf911699694e7a5b8cbc31b6f148616b566500c5dc8cca0000000006b483045022100ba719cb08d9567c3ebe1c031759f7e2989ab338fccc84bd5b1bb675a294d1ce8022040d86205a0efc49aa0bbd79b15f1f87fe4caed7dab200544c0731e058bf626290121035261cbee3658f2d5eda72974ecb86224ec61e3b879b7a7e0f69e87ddfd028580ffffffff87bafd1e695c90db0bf911699694e7a5b8cbc31b6f148616b566500c5dc8cca0020000006b483045022100e6fe4a5bce9dd4c055123951e5c42489d6212acaaf05246e7cdab2e75e205ba80220035e3674ccc03c4fb4a82e024dfea2b4fa890c3505b845c48783c2eceb5e62c10121035261cbee3658f2d5eda72974ecb86224ec61e3b879b7a7e0f69e87ddfd028580ffffffff037d248300000000001976a914ac50ad9f53f7a7ab0de55f1f7bd5c146a87029e088ac0000000000000000166a146f6d6e69000000000000001f0000015d3ef7980022020000000000001976a914ac50ad9f53f7a7ab0de55f1f7bd5c146a87029e088ac00000000", "vin": [{"sequence": 4294967295, "scriptSig": {"hex": "47304402206d5d5ce2f8b7b9daceb2c13207520c458445cafebb45a0ea6d5de9d1da0319c6022047ee0cada209f0dcd89831978cfece2e9818e2278863fa9f7db9a4a5bd53f73d0121029ce0fc832c6d2e5307e5c6e8d4bbaee748e9fe1908893336683124ad7c3a4267", "asm": "304402206d5d5ce2f8b7b9daceb2c13207520c458445cafebb45a0ea6d5de9d1da0319c6022047ee0cada209f0dcd89831978cfece2e9818e2278863fa9f7db9a4a5bd53f73d[ALL] 029ce0fc832c6d2e5307e5c6e8d4bbaee748e9fe1908893336683124ad7c3a4267"}, "vout": 1, "txid": "05ccaae6346ad44da7bc6b97ab35ea581be0054718d576262d9c741ebc432c77"}, {"sequence": 4294967295, "scriptSig": {"hex": "483045022100ba719cb08d9567c3ebe1c031759f7e2989ab338fccc84bd5b1bb675a294d1ce8022040d86205a0efc49aa0bbd79b15f1f87fe4caed7dab200544c0731e058bf626290121035261cbee3658f2d5eda72974ecb86224ec61e3b879b7a7e0f69e87ddfd028580", "asm": "3045022100ba719cb08d9567c3ebe1c031759f7e2989ab338fccc84bd5b1bb675a294d1ce8022040d86205a0efc49aa0bbd79b15f1f87fe4caed7dab200544c0731e058bf62629[ALL] 035261cbee3658f2d5eda72974ecb86224ec61e3b879b7a7e0f69e87ddfd028580"}, "vout": 0, "txid": "a0ccc85d0c5066b51686146f1bc3cbb8a5e794966911f90bdb905c691efdba87"}, {"sequence": 4294967295, "scriptSig": {"hex": "483045022100e6fe4a5bce9dd4c055123951e5c42489d6212acaaf05246e7cdab2e75e205ba80220035e3674ccc03c4fb4a82e024dfea2b4fa890c3505b845c48783c2eceb5e62c10121035261cbee3658f2d5eda72974ecb86224ec61e3b879b7a7e0f69e87ddfd028580", "asm": "3045022100e6fe4a5bce9dd4c055123951e5c42489d6212acaaf05246e7cdab2e75e205ba80220035e3674ccc03c4fb4a82e024dfea2b4fa890c3505b845c48783c2eceb5e62c1[ALL] 035261cbee3658f2d5eda72974ecb86224ec61e3b879b7a7e0f69e87ddfd028580"}, "vout": 2, "txid": "a0ccc85d0c5066b51686146f1bc3cbb8a5e794966911f90bdb905c691efdba87"}], "txid": "ae3613d6fea764e8f8af4c95f459bda58358fa51d4beea1ec91f28707f6c3d95", "blocktime": 1537870928, "version": 1, "confirmations": 11512, "time": 1537870928, "locktime": 0, "vsize": 552, "size": 552}