{"hash": "ae38f2e929d21998942185bfda82a8c606f85898edfdeee932532bcdef4c53a8", "blockhash": "0000000000000000001cda96e906b7601b7a6fb1a3b62bca570a9e5d8f4b3de1", "vout": [{"scriptPubKey": {"reqSigs": 1, "hex": "76a91416c4341c0a438f62e709686352c83dc067288f0f88ac", "addresses": ["135NugZdocoG5w4Wktekadthyo5h8dEWt3"], "asm": "OP_DUP OP_HASH160 16c4341c0a438f62e709686352c83dc067288f0f OP_EQUALVERIFY OP_CHECKSIG", "type": "pubkeyhash"}, "value": 4.888e-05, "n": 0}, {"scriptPubKey": {"reqSigs": 1, "hex": "76a914f530b5c1095e8ee2002e9518ab1e4920f150e29a88ac", "addresses": ["1PMSuRmL7mGAkEiHM3dLydozYN1wytNbbd"], "asm": "OP_DUP OP_HASH160 f530b5c1095e8ee2002e9518ab1e4920f150e29a OP_EQUALVERIFY OP_CHECKSIG", "type": "pubkeyhash"}, "value": 0.004, "n": 1}], "hex": "01000000036744bdd451e7c291eeb6b1145448457c89212feb8eec718699a1860e1effa906370000006a4730440220678efe130954458bf241e11086ac5e5e9a56ebc01d88bf994e642196792052d802201295256a758c59ed3c53dbf493c7313e340b262bceb960f87c72ebece6652c8701210390386196cbde3c6097113461803d7c9bd008b751660efefaf01602a0c2b5092bffffffff8a0c27626223688d26de4725fc31db3690baca8808be341f9dc18c0cd5a4402d000000006a47304402200dfeabd09571384bdafb2e89dac0927a56f558d7bee924e570fb901d2734047002206cc7d5dbc37de0640e297a0050d2fe0c5259babfb2dff1f485056b2cfc0fe19f01210295ff1a09407f32b8ee5deb9b74aa55c1aa5b84ce411e32bfea5c0163503c286fffffffff71d5f77e1aae6e4d08e7362ed4221b3cd9dabd2b9816dd1e1a1fb28a4f4e8688000000006a4730440220176e2961311653f5d837009b532099d666f4c4df18d1b0d2b7ef53bf5313cdc602203a52370165f691802255632523badb494eb76c3e6b0bda4bd26762add84ab8850121038ba05c220eacaf41dc4ac3818cac1fca90464dd7340eb94e5e6eefa318771bc9ffffffff0218130000000000001976a91416c4341c0a438f62e709686352c83dc067288f0f88ac801a0600000000001976a914f530b5c1095e8ee2002e9518ab1e4920f150e29a88ac00000000", "vin": [{"sequence": 4294967295, "scriptSig": {"hex": "4730440220678efe130954458bf241e11086ac5e5e9a56ebc01d88bf994e642196792052d802201295256a758c59ed3c53dbf493c7313e340b262bceb960f87c72ebece6652c8701210390386196cbde3c6097113461803d7c9bd008b751660efefaf01602a0c2b5092b", "asm": "30440220678efe130954458bf241e11086ac5e5e9a56ebc01d88bf994e642196792052d802201295256a758c59ed3c53dbf493c7313e340b262bceb960f87c72ebece6652c87[ALL] 0390386196cbde3c6097113461803d7c9bd008b751660efefaf01602a0c2b5092b"}, "vout": 55, "txid": "06a9ff1e0e86a1998671ec8eeb2f21897c45485414b1b6ee91c2e751d4bd4467"}, {"sequence": 4294967295, "scriptSig": {"hex": "47304402200dfeabd09571384bdafb2e89dac0927a56f558d7bee924e570fb901d2734047002206cc7d5dbc37de0640e297a0050d2fe0c5259babfb2dff1f485056b2cfc0fe19f01210295ff1a09407f32b8ee5deb9b74aa55c1aa5b84ce411e32bfea5c0163503c286f", "asm": "304402200dfeabd09571384bdafb2e89dac0927a56f558d7bee924e570fb901d2734047002206cc7d5dbc37de0640e297a0050d2fe0c5259babfb2dff1f485056b2cfc0fe19f[ALL] 0295ff1a09407f32b8ee5deb9b74aa55c1aa5b84ce411e32bfea5c0163503c286f"}, "vout": 0, "txid": "2d40a4d50c8cc19d1f34be0888caba9036db31fc2547de268d68236262270c8a"}, {"sequence": 4294967295, "scriptSig": {"hex": "4730440220176e2961311653f5d837009b532099d666f4c4df18d1b0d2b7ef53bf5313cdc602203a52370165f691802255632523badb494eb76c3e6b0bda4bd26762add84ab8850121038ba05c220eacaf41dc4ac3818cac1fca90464dd7340eb94e5e6eefa318771bc9", "asm": "30440220176e2961311653f5d837009b532099d666f4c4df18d1b0d2b7ef53bf5313cdc602203a52370165f691802255632523badb494eb76c3e6b0bda4bd26762add84ab885[ALL] 038ba05c220eacaf41dc4ac3818cac1fca90464dd7340eb94e5e6eefa318771bc9"}, "vout": 0, "txid": "88864e4f8ab21f1a1edd16982bbddad93c1b22d42e36e7084d6eae1a7ef7d571"}], "txid": "ae38f2e929d21998942185bfda82a8c606f85898edfdeee932532bcdef4c53a8", "blocktime": 1537873282, "version": 1, "confirmations": 11484, "time": 1537873282, "locktime": 0, "vsize": 519, "size": 519}