{"hash": "e7026b69690f09516dbef6782279e24d2b5773ad302b67f146c6045021fb72f9", "blockhash": "0000000000000000001f76057863aec43deb6fa401d9628bb513d65a8098bfab", "vout": [{"scriptPubKey": {"reqSigs": 1, "hex": "a914447fa3b5d23ed5bc460b5271f839ca0d9c0f4cc587", "addresses": ["37wCn8pgZjsFEUJ4moeHxN8qoSAnwc72Bm"], "asm": "OP_HASH160 447fa3b5d23ed5bc460b5271f839ca0d9c0f4cc5 OP_EQUAL", "type": "scripthash"}, "value": 0.00999748, "n": 0}, {"scriptPubKey": {"reqSigs": 1, "hex": "76a9144956d7be9fb313391d855dec5099f5d74310a10088ac", "addresses": ["17gnMwk5vyyopBRWesMQ6sZMe3RSer8J5W"], "asm": "OP_DUP OP_HASH160 4956d7be9fb313391d855dec5099f5d74310a100 OP_EQUALVERIFY OP_CHECKSIG", "type": "pubkeyhash"}, "value": 0.062405, "n": 1}], "hex": "020000000001026e26d2f75811f2c00d4801704b9ddfb4a7dd003be3bf8e6bba730e5fc557989401000000171600144cdd52733c9d77b65209c9b37b097987a8eed925feffffff85116401ba3af42c52b58a2197c7bde7afe8c98d1f70d2c5442f9618ecb63dc900000000171600147bcd7571fba281b22e4d9deb322244019de7a22ffeffffff0244410f000000000017a914447fa3b5d23ed5bc460b5271f839ca0d9c0f4cc587f4385f00000000001976a9144956d7be9fb313391d855dec5099f5d74310a10088ac02483045022100865e16d84ef59fe3cd471f5d19cfbee3c5159fccf8525655fe96912f0bdb16fd02203715b3289eda6ed492105cbe2953d61cb736a294b54bf9f0a734cc328b71d62301210336480a4598434cd57ed8191c71e126b5a65828ced17906e9920df391f5696966024830450221009037077e2cf2b20ea8e45d5b183ace7826da9da5b5c604a71611f5c8e7a14c59022036fba76b65a2ca20f25cca700040a36e79b2dca5ee22e5f98d63359208681f070121033f3f7f1e97aaf97ff5dace89aa74c7a70a4d824cda1e66dd84b69e01574f76e114490800", "vin": [{"txinwitness": ["3045022100865e16d84ef59fe3cd471f5d19cfbee3c5159fccf8525655fe96912f0bdb16fd02203715b3289eda6ed492105cbe2953d61cb736a294b54bf9f0a734cc328b71d62301", "0336480a4598434cd57ed8191c71e126b5a65828ced17906e9920df391f5696966"], "sequence": 4294967294, "scriptSig": {"hex": "1600144cdd52733c9d77b65209c9b37b097987a8eed925", "asm": "00144cdd52733c9d77b65209c9b37b097987a8eed925"}, "vout": 1, "txid": "949857c55f0e73ba6b8ebfe33b00dda7b4df9d4b7001480dc0f21158f7d2266e"}, {"txinwitness": ["30450221009037077e2cf2b20ea8e45d5b183ace7826da9da5b5c604a71611f5c8e7a14c59022036fba76b65a2ca20f25cca700040a36e79b2dca5ee22e5f98d63359208681f0701", "033f3f7f1e97aaf97ff5dace89aa74c7a70a4d824cda1e66dd84b69e01574f76e1"], "sequence": 4294967294, "scriptSig": {"hex": "1600147bcd7571fba281b22e4d9deb322244019de7a22f", "asm": "00147bcd7571fba281b22e4d9deb322244019de7a22f"}, "vout": 0, "txid": "c93db6ec18962f44c5d2701f8dc9e8afe7bdc797218ab5522cf43aba01641185"}], "txid": "ae3a08dad9e2bba84e3ac892029b817d2232634fbde80c541e4ed4f5a2c33ac6", "blocktime": 1537873891, "version": 2, "confirmations": 11479, "time": 1537873891, "locktime": 542996, "vsize": 259, "size": 422}