{"hash": "ae3bda55bbe77d18c4b407109d0ec0f55c4212fe0077bd0c6ca50c03c29730d4", "blockhash": "0000000000000000000baef3f32e3676a92c3b2e5da21b426e4f302fc371ce76", "vout": [{"scriptPubKey": {"reqSigs": 1, "hex": "76a91449d5efa557d2f9ce1c90f40ccde9666b0192f4ed88ac", "addresses": ["17jQcYeQGas4aopgM3Dvy8MP8B3KZ85JPs"], "asm": "OP_DUP OP_HASH160 49d5efa557d2f9ce1c90f40ccde9666b0192f4ed OP_EQUALVERIFY OP_CHECKSIG", "type": "pubkeyhash"}, "value": 0.0015535, "n": 0}], "hex": "0100000001c2b106dfb1bed0171624c869835d5742449a45060ab87bbb11421da6a5591848000000006a47304402206e03adf8bffe03b525646d23dc849a2eb3863e0b4fae9f1899deed2120b7cfb502202ce7ae500dbbd20de506f2c090dde3c6548c22795e945dc870167854b050eba70121030eecceec3979d1d9c38cb94b27f6edea9a15d894738c73d1d80d1bfb5ac27641ffffffff01d65e0200000000001976a91449d5efa557d2f9ce1c90f40ccde9666b0192f4ed88ac00000000", "vin": [{"sequence": 4294967295, "scriptSig": {"hex": "47304402206e03adf8bffe03b525646d23dc849a2eb3863e0b4fae9f1899deed2120b7cfb502202ce7ae500dbbd20de506f2c090dde3c6548c22795e945dc870167854b050eba70121030eecceec3979d1d9c38cb94b27f6edea9a15d894738c73d1d80d1bfb5ac27641", "asm": "304402206e03adf8bffe03b525646d23dc849a2eb3863e0b4fae9f1899deed2120b7cfb502202ce7ae500dbbd20de506f2c090dde3c6548c22795e945dc870167854b050eba7[ALL] 030eecceec3979d1d9c38cb94b27f6edea9a15d894738c73d1d80d1bfb5ac27641"}, "vout": 0, "txid": "481859a5a61d4211bb7bb80a06459a4442575d8369c8241617d0beb1df06b1c2"}], "txid": "ae3bda55bbe77d18c4b407109d0ec0f55c4212fe0077bd0c6ca50c03c29730d4", "blocktime": 1537876114, "version": 1, "confirmations": 11460, "time": 1537876114, "locktime": 0, "vsize": 191, "size": 191}