{"hash": "ee15d5a70c10c85c448f3e4a3a1fafb570f449e4b3d20c23fbe0d23cce975fa8", "blockhash": "0000000000000000000e13cef7c366c0283d82e591d1acd082e914b08063cdf1", "vout": [{"scriptPubKey": {"reqSigs": 1, "hex": "a9141a951e5e7dff25babc3b5cf34e38a00e6c25e92687", "addresses": ["347a8UXLFeUxAHA3PwnMHsxoBHxNC5imMv"], "asm": "OP_HASH160 1a951e5e7dff25babc3b5cf34e38a00e6c25e926 OP_EQUAL", "type": "scripthash"}, "value": 0.01017718, "n": 0}, {"scriptPubKey": {"reqSigs": 1, "hex": "76a914f1eedb44830b3290348a2c9e2831f639bd1ac94188ac", "addresses": ["1P4DzGpJjFe4E9aHHDM3LomYCbjAZP7gja"], "asm": "OP_DUP OP_HASH160 f1eedb44830b3290348a2c9e2831f639bd1ac941 OP_EQUALVERIFY OP_CHECKSIG", "type": "pubkeyhash"}, "value": 0.0024646, "n": 1}], "hex": "0200000000010237e7726423259ca2fcbd8ad01828ec4580265d94561f79eae8e17f667530e6910100000017160014208c4f4a3acb6e11226d63dcaa4915e05ba3436efefffffff083f92aa4aee4d1279bbdc91fd63ab3b89288423eee595cfe2a584e3873babb0000000017160014402862fa708f264c42115039afb45d99f7aefa63feffffff0276870f000000000017a9141a951e5e7dff25babc3b5cf34e38a00e6c25e92687bcc20300000000001976a914f1eedb44830b3290348a2c9e2831f639bd1ac94188ac024830450221008a65c45be6a35f1dbd5f18807ed7b4b6380701a388f0399dcbb54b5d54c8c643022005237286c45a5c9b7fa44d17f253c9a569c762a1f8d2842a472d419268042a0101210289b8409bc50101a5cc7f74f76e2a4096fa7fdc2723af2936be516876caa3bfb102483045022100b8b35bb7455be2a085ff3560e338699a254defdc06718a02c92b7a3a46e7843b022066413ea0cebbb8415686c6b8842060ca69cdd5dad0233cf00deba463c114be410121026bd84f8d5b849e0c07eca606e642cd4f4ee0b3a59d190b7c4b84490871b2165210490800", "vin": [{"txinwitness": ["30450221008a65c45be6a35f1dbd5f18807ed7b4b6380701a388f0399dcbb54b5d54c8c643022005237286c45a5c9b7fa44d17f253c9a569c762a1f8d2842a472d419268042a0101", "0289b8409bc50101a5cc7f74f76e2a4096fa7fdc2723af2936be516876caa3bfb1"], "sequence": 4294967294, "scriptSig": {"hex": "160014208c4f4a3acb6e11226d63dcaa4915e05ba3436e", "asm": "0014208c4f4a3acb6e11226d63dcaa4915e05ba3436e"}, "vout": 1, "txid": "91e63075667fe1e8ea791f56945d268045ec2818d08abdfca29c25236472e737"}, {"txinwitness": ["3045022100b8b35bb7455be2a085ff3560e338699a254defdc06718a02c92b7a3a46e7843b022066413ea0cebbb8415686c6b8842060ca69cdd5dad0233cf00deba463c114be4101", "026bd84f8d5b849e0c07eca606e642cd4f4ee0b3a59d190b7c4b84490871b21652"], "sequence": 4294967294, "scriptSig": {"hex": "160014402862fa708f264c42115039afb45d99f7aefa63", "asm": "0014402862fa708f264c42115039afb45d99f7aefa63"}, "vout": 0, "txid": "bbba73384e582afe5c59ee3e428892b8b33ad61fc9bd9b27d1e4aea42af983f0"}], "txid": "ae3d89e50062cdf021a0255c43895865d57c4a537303352a01bf4584cf2bfd97", "blocktime": 1537871767, "version": 2, "confirmations": 11495, "time": 1537871767, "locktime": 542992, "vsize": 259, "size": 422}