{"hash": "ae430b14412a5c63ec6fd5797ae015f6f82f471831378c9e939e7243d876a5a7", "blockhash": "00000000000000000024a2167bbff67b0be802c0b01cdd79e6331c2be6459f87", "vout": [{"scriptPubKey": {"reqSigs": 1, "hex": "76a9141628fa5823c4d8cce58aff0a9a2ca0750f10afdc88ac", "addresses": ["132AxR5hdyBNnaYEfdu4VjNKHdi4o4ajgQ"], "asm": "OP_DUP OP_HASH160 1628fa5823c4d8cce58aff0a9a2ca0750f10afdc OP_EQUALVERIFY OP_CHECKSIG", "type": "pubkeyhash"}, "value": 0.00223065, "n": 0}], "hex": "01000000027f63ae82eaeb60c9e40d9891bea425e55677143f195c9c8c8a503561f2186777000000006b483045022100e2576daa02b09bf7737d032baf4821dd79a479cb0a2ccd0a02dfa5d2d0b9213202202983b7b4e70b93f22cc151b923af2baaa548197a074d276d1a2a0f6fc8e3ccf2012102c7cc2eb1d39219764119564d06aa3cf28cc45ab64bb2a1b8c79ec62b8029fff8ffffffffaf62b4775bfb7c67d6fb1d52900e8eacd0ad305a8cc00fba82e9ad5fae395380000000006b483045022100f5da76bb29c71f8556c897804ab44fdcd2e9f77ae06d80fd6fb315641ccd4be6022003a22a86bffe82155f7846fd38349f35b1c843fda8c8c2982dc8f6237b7d9bf10121031f8d970517d5c4d74286436e1532c3c295c36ff058a9cf69a5ade59cd4e61bfbffffffff0159670300000000001976a9141628fa5823c4d8cce58aff0a9a2ca0750f10afdc88ac00000000", "vin": [{"sequence": 4294967295, "scriptSig": {"hex": "483045022100e2576daa02b09bf7737d032baf4821dd79a479cb0a2ccd0a02dfa5d2d0b9213202202983b7b4e70b93f22cc151b923af2baaa548197a074d276d1a2a0f6fc8e3ccf2012102c7cc2eb1d39219764119564d06aa3cf28cc45ab64bb2a1b8c79ec62b8029fff8", "asm": "3045022100e2576daa02b09bf7737d032baf4821dd79a479cb0a2ccd0a02dfa5d2d0b9213202202983b7b4e70b93f22cc151b923af2baaa548197a074d276d1a2a0f6fc8e3ccf2[ALL] 02c7cc2eb1d39219764119564d06aa3cf28cc45ab64bb2a1b8c79ec62b8029fff8"}, "vout": 0, "txid": "776718f26135508a8c9c5c193f147756e525a4be91980de4c960ebea82ae637f"}, {"sequence": 4294967295, "scriptSig": {"hex": "483045022100f5da76bb29c71f8556c897804ab44fdcd2e9f77ae06d80fd6fb315641ccd4be6022003a22a86bffe82155f7846fd38349f35b1c843fda8c8c2982dc8f6237b7d9bf10121031f8d970517d5c4d74286436e1532c3c295c36ff058a9cf69a5ade59cd4e61bfb", "asm": "3045022100f5da76bb29c71f8556c897804ab44fdcd2e9f77ae06d80fd6fb315641ccd4be6022003a22a86bffe82155f7846fd38349f35b1c843fda8c8c2982dc8f6237b7d9bf1[ALL] 031f8d970517d5c4d74286436e1532c3c295c36ff058a9cf69a5ade59cd4e61bfb"}, "vout": 0, "txid": "805339ae5fade982ba0fc08c5a30add0ac8e0e90521dfbd6677cfb5b77b462af"}], "txid": "ae430b14412a5c63ec6fd5797ae015f6f82f471831378c9e939e7243d876a5a7", "blocktime": 1537870564, "version": 1, "confirmations": 11515, "time": 1537870564, "locktime": 0, "vsize": 340, "size": 340}