{"hash": "ae4420c5dbdb6f03cc52b3ebcccfda30395503c46f45e3b5a0535ce956a0d038", "blockhash": "0000000000000000000dcc0f55137456b1a82d3642486a52398922ac4d620174", "vout": [{"scriptPubKey": {"reqSigs": 1, "hex": "76a914096ac440365ab05fa424e3438999bf1bee842f6f88ac", "addresses": ["1rnz11mCLPk95hcYzEkuKuw8UwWi9NQUh"], "asm": "OP_DUP OP_HASH160 096ac440365ab05fa424e3438999bf1bee842f6f OP_EQUALVERIFY OP_CHECKSIG", "type": "pubkeyhash"}, "value": 6.44e-06, "n": 0}, {"scriptPubKey": {"reqSigs": 1, "hex": "a914953c3fd122cf9400bac9d6d3f8829ac7522b247c87", "addresses": ["3FJ6nKXNkGwa42nXbhsWqVchSg8wmKtP8j"], "asm": "OP_HASH160 953c3fd122cf9400bac9d6d3f8829ac7522b247c OP_EQUAL", "type": "scripthash"}, "value": 0.03068, "n": 1}], "hex": "0100000001476c4f47191a2d62754349a10ba5fac707e3a4f136ea84c49904be82ab06297f060000006b4830450221009e62a7559134cd2d4763462c45657d7aba7696a7162aac9cd7e61eddd81a71620220194d9a7bb4f2c69dd5866fa3e16fddd45d2b70dd735bd05032f5842a0b73eb190121038cacc2d7b3ea335c6a2e3159ccbb5f7fe4dde649631fd2da8d000c07ba441f96ffffffff0284020000000000001976a914096ac440365ab05fa424e3438999bf1bee842f6f88ac60d02e000000000017a914953c3fd122cf9400bac9d6d3f8829ac7522b247c8700000000", "vin": [{"sequence": 4294967295, "scriptSig": {"hex": "4830450221009e62a7559134cd2d4763462c45657d7aba7696a7162aac9cd7e61eddd81a71620220194d9a7bb4f2c69dd5866fa3e16fddd45d2b70dd735bd05032f5842a0b73eb190121038cacc2d7b3ea335c6a2e3159ccbb5f7fe4dde649631fd2da8d000c07ba441f96", "asm": "30450221009e62a7559134cd2d4763462c45657d7aba7696a7162aac9cd7e61eddd81a71620220194d9a7bb4f2c69dd5866fa3e16fddd45d2b70dd735bd05032f5842a0b73eb19[ALL] 038cacc2d7b3ea335c6a2e3159ccbb5f7fe4dde649631fd2da8d000c07ba441f96"}, "vout": 6, "txid": "7f2906ab82be0499c484ea36f1a4e307c7faa50ba1494375622d1a19474f6c47"}], "txid": "ae4420c5dbdb6f03cc52b3ebcccfda30395503c46f45e3b5a0535ce956a0d038", "blocktime": 1537870268, "version": 1, "confirmations": 11516, "time": 1537870268, "locktime": 0, "vsize": 224, "size": 224}