{"hash": "ae49392d15f0af15ec30e5973ff3ef95e4100af4441707e83a915de207e565c9", "blockhash": "0000000000000000001f76057863aec43deb6fa401d9628bb513d65a8098bfab", "vout": [{"scriptPubKey": {"reqSigs": 1, "hex": "a914fb68fc52d4a6205ade7e7e74c171ae6145baa0c287", "addresses": ["3QcMJDuJckbSDbNeWQWYMQkmN58yRAYRt2"], "asm": "OP_HASH160 fb68fc52d4a6205ade7e7e74c171ae6145baa0c2 OP_EQUAL", "type": "scripthash"}, "value": 0.084801, "n": 0}], "hex": "010000000117f10afe5693e3514b9b93173700610af0e6c3fc4dff033205e96381324946f1000000006a47304402207a1c69acb9ffe398ddf1cf5501677be024551771fe79472a55c83659452e9b6002201e035002bab65a0e6451805c8788651bbe9c9dfaa3f511bf8e2e59a6f47d987501210336120a959f7f9e9bc2c832439d16c18b4a6156edbabedf26a550809f47ec05d0ffffffff01646581000000000017a914fb68fc52d4a6205ade7e7e74c171ae6145baa0c28700000000", "vin": [{"sequence": 4294967295, "scriptSig": {"hex": "47304402207a1c69acb9ffe398ddf1cf5501677be024551771fe79472a55c83659452e9b6002201e035002bab65a0e6451805c8788651bbe9c9dfaa3f511bf8e2e59a6f47d987501210336120a959f7f9e9bc2c832439d16c18b4a6156edbabedf26a550809f47ec05d0", "asm": "304402207a1c69acb9ffe398ddf1cf5501677be024551771fe79472a55c83659452e9b6002201e035002bab65a0e6451805c8788651bbe9c9dfaa3f511bf8e2e59a6f47d9875[ALL] 0336120a959f7f9e9bc2c832439d16c18b4a6156edbabedf26a550809f47ec05d0"}, "vout": 0, "txid": "f14649328163e9053203ff4dfcc3e6f00a61003717939b4b51e39356fe0af117"}], "txid": "ae49392d15f0af15ec30e5973ff3ef95e4100af4441707e83a915de207e565c9", "blocktime": 1537873891, "version": 1, "confirmations": 11474, "time": 1537873891, "locktime": 0, "vsize": 189, "size": 189}