{"hash": "d9ad12e85e0e837a73ab9717d3b38390f2f2e4930b4c0c0fa486db231b5b3623", "blockhash": "00000000000000000017f5eb5941039fbcee6240d03bc1f2f8e35350df66a1d8", "vout": [{"scriptPubKey": {"reqSigs": 1, "hex": "a9141fb93dba28fbb90c549b1de2f024a5ecf7da62d787", "addresses": ["34aknGa7fvCdkG6Cy3CUxP83QDFbjmnEgV"], "asm": "OP_HASH160 1fb93dba28fbb90c549b1de2f024a5ecf7da62d7 OP_EQUAL", "type": "scripthash"}, "value": 0.00156177, "n": 0}, {"scriptPubKey": {"reqSigs": 1, "hex": "00147b1abfedbfdfb0980bb3cc932358774b842b129a", "addresses": ["bc1q0vdtlmdlm7cfszanejfjxkrhfwzzky56e0d3s2"], "asm": "0 7b1abfedbfdfb0980bb3cc932358774b842b129a", "type": "witness_v0_keyhash"}, "value": 0.00012786, "n": 1}], "hex": "010000000001013540ecd9e8c4a8f9244cb005e3958627e0f2b2727426c7818e5f6b04e9f5894f00000000171600145bc6ae449dd1f922c97d42501f9b6273ac7debc7ffffffff02116202000000000017a9141fb93dba28fbb90c549b1de2f024a5ecf7da62d787f2310000000000001600147b1abfedbfdfb0980bb3cc932358774b842b129a0247304402206522f8fac6fa1caae0b82cedfaf9293742aa51a30c3184479771d68db9d1f5eb0220032b7e70e2aef01045e5104dcdfcfe73ece0204509a7720568f1eb81e7c92b0201210363e9db3c0b8652363de504834c3b7f74e03bf8b52ddcd4bb1dc85bcb06f8d02a00000000", "vin": [{"txinwitness": ["304402206522f8fac6fa1caae0b82cedfaf9293742aa51a30c3184479771d68db9d1f5eb0220032b7e70e2aef01045e5104dcdfcfe73ece0204509a7720568f1eb81e7c92b0201", "0363e9db3c0b8652363de504834c3b7f74e03bf8b52ddcd4bb1dc85bcb06f8d02a"], "sequence": 4294967295, "scriptSig": {"hex": "1600145bc6ae449dd1f922c97d42501f9b6273ac7debc7", "asm": "00145bc6ae449dd1f922c97d42501f9b6273ac7debc7"}, "vout": 0, "txid": "4f89f5e9046b5f8e81c7267472b2f2e0278695e305b04c24f9a8c4e8d9ec4035"}], "txid": "ae4e7aa535a1e220832e8c374cf916c2236d843a4cdbf8f3358fe4065ef92971", "blocktime": 1537874412, "version": 1, "confirmations": 11468, "time": 1537874412, "locktime": 0, "vsize": 165, "size": 246}