{"hash": "339143b328ca335352050e26f72e3ce6b64569bb98cfb6deb0ce00b927cfb5ae", "blockhash": "0000000000000000001cda96e906b7601b7a6fb1a3b62bca570a9e5d8f4b3de1", "vout": [{"scriptPubKey": {"reqSigs": 1, "hex": "76a914604475c9b5e450d8c2ac6e479281e40ebc0a027f88ac", "addresses": ["19n1t7EbtV3Jj918zFdUr4gPx1wQFruwF6"], "asm": "OP_DUP OP_HASH160 604475c9b5e450d8c2ac6e479281e40ebc0a027f OP_EQUALVERIFY OP_CHECKSIG", "type": "pubkeyhash"}, "value": 0.0075, "n": 0}, {"scriptPubKey": {"reqSigs": 1, "hex": "76a9144164c0e28b9e474163deedf6fec4f9d83550225b88ac", "addresses": ["16xmcwdVeTZxm8zFQJJ779DXKgzV2FKYFg"], "asm": "OP_DUP OP_HASH160 4164c0e28b9e474163deedf6fec4f9d83550225b OP_EQUALVERIFY OP_CHECKSIG", "type": "pubkeyhash"}, "value": 0.011, "n": 1}, {"scriptPubKey": {"reqSigs": 1, "hex": "a9149bc691a915e29df41fa1fb6bd1ef67dfa40b685387", "addresses": ["3FtgY6KTbtEA5C7sGvKVhcGsTxfnvyf6vs"], "asm": "OP_HASH160 9bc691a915e29df41fa1fb6bd1ef67dfa40b6853 OP_EQUAL", "type": "scripthash"}, "value": 1.0, "n": 2}, {"scriptPubKey": {"reqSigs": 1, "hex": "a914f7a5c7e164b62d4723ffb81592a3a0ea3ccf607d87", "addresses": ["3QGTRaPx74Q1GRVfprF7URPkkwBxdA3sA2"], "asm": "OP_HASH160 f7a5c7e164b62d4723ffb81592a3a0ea3ccf607d OP_EQUAL", "type": "scripthash"}, "value": 25.05462622, "n": 3}], "hex": "0100000000010ac118e2dfea61fe56aefd754fedb594543624b9fa9eb160ad99e94e32058e31f10000000017160014fe6e10d55c903f44f60521083f9f68601dabe0ccffffffffb1345c8094d244372288acb7ab2e2c7cad4842a3807f23c6836fcf8d933d65660d00000017160014570461ce563c1909b04486668aae16d84aef45abffffffff2b78ab02bac278876f813347dbb0a98e053b30ce796cfdeadf164a59732e7a5700000000171600142d557487123caa7c8118d028a6daaada3f472323ffffffffd4840b945293cbe24132a3eeb1edc56f4632968e5269c4c12225722d8ee3ce3d0100000017160014567b90d24aa5d07241f8d18212116d17bfce299cffffffff9cf626c8a4016456c46d3421c0ac5b5f149ef1715f1ed620cc761ec123fd94d700000000171600146aef7c8e9886836b08ce2da167841eed5e9944f0ffffffff7d4c0a88a33242634e31837f3605af1f2613223c236e3e438cc3e16830462edd000000001716001482da15517dce1cbff65542ecb3d895ca8791c0bcffffffff13694a61a5d9d6983221f4620b2af5a38161c3d0b4efe51d601df4799ddbca860100000017160014f86ab39884f82e684126e1e87aef50ebac1dd49bffffffffdd17c2ef28e3dbdb40a2ac7662a27d1fceb4324f823a140619251d760a9458c80200000017160014000b814f2c1a19852357ed615a08ec572a781ed1ffffffffd4dc657685ba422fe358a92f93f478e0251000e7b65fca89c429dca5789f005a0200000017160014000b814f2c1a19852357ed615a08ec572a781ed1ffffffffbf3960569d2ae38099e0aaed260d43c10c8656037c8fbf1ea2211a5d3ee4ffb00200000017160014000b814f2c1a19852357ed615a08ec572a781ed1ffffffff04b0710b00000000001976a914604475c9b5e450d8c2ac6e479281e40ebc0a027f88ace0c81000000000001976a9144164c0e28b9e474163deedf6fec4f9d83550225b88ac00e1f5050000000017a9149bc691a915e29df41fa1fb6bd1ef67dfa40b6853875e5356950000000017a914f7a5c7e164b62d4723ffb81592a3a0ea3ccf607d87024730440220497b5bc63be713d9ccd464c801eade8ef48e672d1b1008b64c99feff9af760030220161c1bbdb46f0e413fe108d65e713bbcdf8ad89b0e62def58780f296f3540c39012102cd93e78b443841e89536a7e499fce8d2c6a0766925ac245992d0513db6dcdb340247304402201a2c39916c2a44486a3f7bda8930fcf4981aff7766d666cc79656bdd0114b2da02200c560b218c74e5a9c5ebaaca75cb54f1724fbf04f304be509ec0f686f3ad854c0121031b0cc9a9473418504a349f93a38deffcb050d40df1d46b02e71519a4fc8a90440248304502210094661a6ea4fdb0ee79b9ac67929ef60783f2ef9ded1c73af56ed0ce08b36a9320220572afd44db7ac137b6ffa27b93f37aee5ae5a5eb2d00c8e88fcfcce419a92fed0121031456076fba2195878bd5aea0ad8903a3db6ab7f68e6f389c264c9e657f39d4e202473044022037b2ca5f203db097ebecbbdf458fae33dbc66435aa71c252d70d8552d3717367022060d07c0ef7dbcdf43a96005595bc25fdaac9be8e9a0d2634dd0c8d57026271e7012103a2c6293ae08e06d759b2a6371d040a479c4d45c3dd06b6ab4de67b08c58d9ca10247304402201540e69275e8cbc724cbb3e9e1e0e6e970b975bdff57e85676685976be21fc3f02202e2c6e589b613e94625b54414a520d7c5c030faf4c5346d7219c918c367ca38b0121021fb432be3481e93ea9a87da7fabe112bf4dc476e94e3dd49625ed73d43d2209f02483045022100c0006ecd4b30229a3284d24b3a299060fcff97f471439dd5b0196c8ca8e625740220578681d4a85ad65840318528c07e0ae47255ba993b370f7ada4fe36f342c921a012103f97a7429d76ac3e7102509a7a3fe59749f53e53d376826b6947cc18168a91fbf02483045022100d8bc13b1f2a34dc84380303acb05b2be90a5ab0b832a0b783e7e54ca5eec0d310220018bf421d4a98c81cab6e4135a93f09fa3f2f9268070c1494ca4cec9e5da0353012103d22381018772b2fd8d3e3cd570790cba07f50716d9ea91593c1a2868c5e5cc3e0247304402207b736663dfa38d223fcd52c13bcd82451cbaaa4f31951430bb975756f3b1cda402207df8dfb9e15967d5477c716a877c806511802007933d42788899e65d4166d596012102aad79950b2c2af3689e8644c89e9d10dff06c2d8926200496b92e9f7ccb0304c0247304402205b52b42102bd2f7d574998e3b868fe9f52603e18a10353583ff3bd5a1469aca002207bf6b20a1243b0e1b3bc315fb2aafc395c67f2a5f1d3ae60c28a79fd4a0792e4012102aad79950b2c2af3689e8644c89e9d10dff06c2d8926200496b92e9f7ccb0304c02483045022100d81eb0aac69a28cd8371f9d61174f9ee72e03b1da0a8a2197e72bf87875281a902204ae012583b269a156efdaa6905fb2bf91cea45fb4857c1fad64af7b317063a15012102aad79950b2c2af3689e8644c89e9d10dff06c2d8926200496b92e9f7ccb0304c00000000", "vin": [{"txinwitness": ["30440220497b5bc63be713d9ccd464c801eade8ef48e672d1b1008b64c99feff9af760030220161c1bbdb46f0e413fe108d65e713bbcdf8ad89b0e62def58780f296f3540c3901", "02cd93e78b443841e89536a7e499fce8d2c6a0766925ac245992d0513db6dcdb34"], "sequence": 4294967295, "scriptSig": {"hex": "160014fe6e10d55c903f44f60521083f9f68601dabe0cc", "asm": "0014fe6e10d55c903f44f60521083f9f68601dabe0cc"}, "vout": 0, "txid": "f1318e05324ee999ad60b19efab924365494b5ed4f75fdae56fe61eadfe218c1"}, {"txinwitness": ["304402201a2c39916c2a44486a3f7bda8930fcf4981aff7766d666cc79656bdd0114b2da02200c560b218c74e5a9c5ebaaca75cb54f1724fbf04f304be509ec0f686f3ad854c01", "031b0cc9a9473418504a349f93a38deffcb050d40df1d46b02e71519a4fc8a9044"], "sequence": 4294967295, "scriptSig": {"hex": "160014570461ce563c1909b04486668aae16d84aef45ab", "asm": "0014570461ce563c1909b04486668aae16d84aef45ab"}, "vout": 13, "txid": "66653d938dcf6f83c6237f80a34248ad7c2c2eabb7ac88223744d294805c34b1"}, {"txinwitness": ["304502210094661a6ea4fdb0ee79b9ac67929ef60783f2ef9ded1c73af56ed0ce08b36a9320220572afd44db7ac137b6ffa27b93f37aee5ae5a5eb2d00c8e88fcfcce419a92fed01", "031456076fba2195878bd5aea0ad8903a3db6ab7f68e6f389c264c9e657f39d4e2"], "sequence": 4294967295, "scriptSig": {"hex": "1600142d557487123caa7c8118d028a6daaada3f472323", "asm": "00142d557487123caa7c8118d028a6daaada3f472323"}, "vout": 0, "txid": "577a2e73594a16dfeafd6c79ce303b058ea9b0db4733816f8778c2ba02ab782b"}, {"txinwitness": ["3044022037b2ca5f203db097ebecbbdf458fae33dbc66435aa71c252d70d8552d3717367022060d07c0ef7dbcdf43a96005595bc25fdaac9be8e9a0d2634dd0c8d57026271e701", "03a2c6293ae08e06d759b2a6371d040a479c4d45c3dd06b6ab4de67b08c58d9ca1"], "sequence": 4294967295, "scriptSig": {"hex": "160014567b90d24aa5d07241f8d18212116d17bfce299c", "asm": "0014567b90d24aa5d07241f8d18212116d17bfce299c"}, "vout": 1, "txid": "3dcee38e2d722522c1c469528e9632466fc5edb1eea33241e2cb9352940b84d4"}, {"txinwitness": ["304402201540e69275e8cbc724cbb3e9e1e0e6e970b975bdff57e85676685976be21fc3f02202e2c6e589b613e94625b54414a520d7c5c030faf4c5346d7219c918c367ca38b01", "021fb432be3481e93ea9a87da7fabe112bf4dc476e94e3dd49625ed73d43d2209f"], "sequence": 4294967295, "scriptSig": {"hex": "1600146aef7c8e9886836b08ce2da167841eed5e9944f0", "asm": "00146aef7c8e9886836b08ce2da167841eed5e9944f0"}, "vout": 0, "txid": "d794fd23c11e76cc20d61e5f71f19e145f5bacc021346dc4566401a4c826f69c"}, {"txinwitness": ["3045022100c0006ecd4b30229a3284d24b3a299060fcff97f471439dd5b0196c8ca8e625740220578681d4a85ad65840318528c07e0ae47255ba993b370f7ada4fe36f342c921a01", "03f97a7429d76ac3e7102509a7a3fe59749f53e53d376826b6947cc18168a91fbf"], "sequence": 4294967295, "scriptSig": {"hex": "16001482da15517dce1cbff65542ecb3d895ca8791c0bc", "asm": "001482da15517dce1cbff65542ecb3d895ca8791c0bc"}, "vout": 0, "txid": "dd2e463068e1c38c433e6e233c2213261faf05367f83314e634232a3880a4c7d"}, {"txinwitness": ["3045022100d8bc13b1f2a34dc84380303acb05b2be90a5ab0b832a0b783e7e54ca5eec0d310220018bf421d4a98c81cab6e4135a93f09fa3f2f9268070c1494ca4cec9e5da035301", "03d22381018772b2fd8d3e3cd570790cba07f50716d9ea91593c1a2868c5e5cc3e"], "sequence": 4294967295, "scriptSig": {"hex": "160014f86ab39884f82e684126e1e87aef50ebac1dd49b", "asm": "0014f86ab39884f82e684126e1e87aef50ebac1dd49b"}, "vout": 1, "txid": "86cadb9d79f41d601de5efb4d0c36181a3f52a0b62f4213298d6d9a5614a6913"}, {"txinwitness": ["304402207b736663dfa38d223fcd52c13bcd82451cbaaa4f31951430bb975756f3b1cda402207df8dfb9e15967d5477c716a877c806511802007933d42788899e65d4166d59601", "02aad79950b2c2af3689e8644c89e9d10dff06c2d8926200496b92e9f7ccb0304c"], "sequence": 4294967295, "scriptSig": {"hex": "160014000b814f2c1a19852357ed615a08ec572a781ed1", "asm": "0014000b814f2c1a19852357ed615a08ec572a781ed1"}, "vout": 2, "txid": "c858940a761d251906143a824f32b4ce1f7da26276aca240dbdbe328efc217dd"}, {"txinwitness": ["304402205b52b42102bd2f7d574998e3b868fe9f52603e18a10353583ff3bd5a1469aca002207bf6b20a1243b0e1b3bc315fb2aafc395c67f2a5f1d3ae60c28a79fd4a0792e401", "02aad79950b2c2af3689e8644c89e9d10dff06c2d8926200496b92e9f7ccb0304c"], "sequence": 4294967295, "scriptSig": {"hex": "160014000b814f2c1a19852357ed615a08ec572a781ed1", "asm": "0014000b814f2c1a19852357ed615a08ec572a781ed1"}, "vout": 2, "txid": "5a009f78a5dc29c489ca5fb6e7001025e078f4932fa958e32f42ba857665dcd4"}, {"txinwitness": ["3045022100d81eb0aac69a28cd8371f9d61174f9ee72e03b1da0a8a2197e72bf87875281a902204ae012583b269a156efdaa6905fb2bf91cea45fb4857c1fad64af7b317063a1501", "02aad79950b2c2af3689e8644c89e9d10dff06c2d8926200496b92e9f7ccb0304c"], "sequence": 4294967295, "scriptSig": {"hex": "160014000b814f2c1a19852357ed615a08ec572a781ed1", "asm": "0014000b814f2c1a19852357ed615a08ec572a781ed1"}, "vout": 2, "txid": "b0ffe43e5d1a21a21ebf8f7c0356860cc1430d26edaae09980e32a9d566039bf"}], "txid": "ae50401f8990dad48f4fca5672114fe19fc98b78b2dd766c7e188bd7339d86b8", "blocktime": 1537873282, "version": 1, "confirmations": 11484, "time": 1537873282, "locktime": 0, "vsize": 1051, "size": 1858}