{"hash": "ae51021ed92d770d6c968a5c0dc75619f9747e352b03f9a96d2a9c39c32c356f", "blockhash": "0000000000000000001cda96e906b7601b7a6fb1a3b62bca570a9e5d8f4b3de1", "vout": [{"scriptPubKey": {"reqSigs": 1, "hex": "76a914afaa1295b2661e0180e892d6fb15ed133efde97188ac", "addresses": ["1H1pzRSwgS9jDgnfhFNqHVG41Z6geUrQgj"], "asm": "OP_DUP OP_HASH160 afaa1295b2661e0180e892d6fb15ed133efde971 OP_EQUALVERIFY OP_CHECKSIG", "type": "pubkeyhash"}, "value": 0.00339916, "n": 0}, {"scriptPubKey": {"reqSigs": 1, "hex": "a914219bbe2e639b1b6760ef70436532ebae1cf3a4a987", "addresses": ["34kio5cAMyqfmnkrmGtHUDFPMzQHbJFjW5"], "asm": "OP_HASH160 219bbe2e639b1b6760ef70436532ebae1cf3a4a9 OP_EQUAL", "type": "scripthash"}, "value": 0.0197, "n": 1}], "hex": "0100000001ffd647a9ae57795f52ec2b58fe43a3d188126d5be7482c63e53e99cac968d1e40e0000006a473044022067f497541b9c069a746f3d4b493cafd5f4536f7707cf4cebcc19e82fb8729a8d0220142cc80a1bfa4b01910e32a68adb044fbd03c8b64d14d601a5e8895d3704cbee01210283d896eff6ef056f5de0dffc06e1ffacf93ad595df760ea188c97dbb89e732d6fdffffff02cc2f0500000000001976a914afaa1295b2661e0180e892d6fb15ed133efde97188ac500f1e000000000017a914219bbe2e639b1b6760ef70436532ebae1cf3a4a98713490800", "vin": [{"sequence": 4294967293, "scriptSig": {"hex": "473044022067f497541b9c069a746f3d4b493cafd5f4536f7707cf4cebcc19e82fb8729a8d0220142cc80a1bfa4b01910e32a68adb044fbd03c8b64d14d601a5e8895d3704cbee01210283d896eff6ef056f5de0dffc06e1ffacf93ad595df760ea188c97dbb89e732d6", "asm": "3044022067f497541b9c069a746f3d4b493cafd5f4536f7707cf4cebcc19e82fb8729a8d0220142cc80a1bfa4b01910e32a68adb044fbd03c8b64d14d601a5e8895d3704cbee[ALL] 0283d896eff6ef056f5de0dffc06e1ffacf93ad595df760ea188c97dbb89e732d6"}, "vout": 14, "txid": "e4d168c9ca993ee5632c48e75b6d1288d1a343fe582bec525f7957aea947d6ff"}], "txid": "ae51021ed92d770d6c968a5c0dc75619f9747e352b03f9a96d2a9c39c32c356f", "blocktime": 1537873282, "version": 1, "confirmations": 11485, "time": 1537873282, "locktime": 542995, "vsize": 223, "size": 223}