{"hash": "ae53c0e6c190e8beba3132faf430cff7b425f9db116fc6283526e8eb64b04bef", "blockhash": "000000000000000000022b45ed06c6f4ccd3cf7fb5ba4856ebd2e58215665228", "vout": [{"scriptPubKey": {"reqSigs": 1, "hex": "76a914217f35a81d13a628fc72591f95d49bec4dba2a5c88ac", "addresses": ["1447h1UJyevRvMQqC4vPBFrBK6bnZ3UbZf"], "asm": "OP_DUP OP_HASH160 217f35a81d13a628fc72591f95d49bec4dba2a5c OP_EQUALVERIFY OP_CHECKSIG", "type": "pubkeyhash"}, "value": 0.95391087, "n": 0}, {"scriptPubKey": {"reqSigs": 1, "hex": "a914327c00310ca604da8176686f1dbd724d72d1433b87", "addresses": ["36HxFrje9dyYZwgiv9cRamAUWGbYGs5Xnx"], "asm": "OP_HASH160 327c00310ca604da8176686f1dbd724d72d1433b OP_EQUAL", "type": "scripthash"}, "value": 0.01006166, "n": 1}], "hex": "02000000017e2efd29ee8ffffbca2db5c1ded137e0764f2b355b401e04e153c98eeca70d06010000006b483045022100d45729e0e2b699376d506e0b41cfe9d1ad0b028d5c285834a0acbefce202e691022045f52c5592bc573353e1886931e002e2da47861098c91119a32e3b19d4c667ec012102c9a85d736646d1f9a78345cc3bc6e5c8e3c640f32293942ff1b4ebe61e605ef7ffffffff026f8daf05000000001976a914217f35a81d13a628fc72591f95d49bec4dba2a5c88ac565a0f000000000017a914327c00310ca604da8176686f1dbd724d72d1433b8700000000", "vin": [{"sequence": 4294967295, "scriptSig": {"hex": "483045022100d45729e0e2b699376d506e0b41cfe9d1ad0b028d5c285834a0acbefce202e691022045f52c5592bc573353e1886931e002e2da47861098c91119a32e3b19d4c667ec012102c9a85d736646d1f9a78345cc3bc6e5c8e3c640f32293942ff1b4ebe61e605ef7", "asm": "3045022100d45729e0e2b699376d506e0b41cfe9d1ad0b028d5c285834a0acbefce202e691022045f52c5592bc573353e1886931e002e2da47861098c91119a32e3b19d4c667ec[ALL] 02c9a85d736646d1f9a78345cc3bc6e5c8e3c640f32293942ff1b4ebe61e605ef7"}, "vout": 1, "txid": "060da7ec8ec953e1041e405b352b4f76e037d1dec1b52dcafbff8fee29fd2e7e"}], "txid": "ae53c0e6c190e8beba3132faf430cff7b425f9db116fc6283526e8eb64b04bef", "blocktime": 1537869901, "version": 2, "confirmations": 11522, "time": 1537869901, "locktime": 0, "vsize": 224, "size": 224}