{"hash": "ae567d4e2aca2193fe555ec6756074be4cd9f2d7e2c0afba6ded045e5c120323", "blockhash": "0000000000000000000e13cef7c366c0283d82e591d1acd082e914b08063cdf1", "vout": [{"scriptPubKey": {"reqSigs": 1, "hex": "76a91484469d5efe452d6a12f3f711faa4563dc728aee588ac", "addresses": ["1D4Qnii8FLxARsovjWYMjq5o3hNxLKExWs"], "asm": "OP_DUP OP_HASH160 84469d5efe452d6a12f3f711faa4563dc728aee5 OP_EQUALVERIFY OP_CHECKSIG", "type": "pubkeyhash"}, "value": 0.00237218, "n": 0}], "hex": "0100000001f109ea9cc320dd768a4be1b49e11eb5311b87eb72451624f4b27fa2c184063d3000000006a4730440220102a38f722a34e886cd18e3eb0fc9f6ca828f1484b4993b02b061f408141b340022008189a1a453491128f3f50c7dc26517296ec8ab8d4a5718791c6a6d98fba58a7012102d914b2a19a0d75094b5aba80c3874e1a36f005266e3b8a2625007cfa4dcdccc4ffffffff01a29e0300000000001976a91484469d5efe452d6a12f3f711faa4563dc728aee588ac00000000", "vin": [{"sequence": 4294967295, "scriptSig": {"hex": "4730440220102a38f722a34e886cd18e3eb0fc9f6ca828f1484b4993b02b061f408141b340022008189a1a453491128f3f50c7dc26517296ec8ab8d4a5718791c6a6d98fba58a7012102d914b2a19a0d75094b5aba80c3874e1a36f005266e3b8a2625007cfa4dcdccc4", "asm": "30440220102a38f722a34e886cd18e3eb0fc9f6ca828f1484b4993b02b061f408141b340022008189a1a453491128f3f50c7dc26517296ec8ab8d4a5718791c6a6d98fba58a7[ALL] 02d914b2a19a0d75094b5aba80c3874e1a36f005266e3b8a2625007cfa4dcdccc4"}, "vout": 0, "txid": "d36340182cfa274b4f625124b77eb81153eb119eb4e14b8a76dd20c39cea09f1"}], "txid": "ae567d4e2aca2193fe555ec6756074be4cd9f2d7e2c0afba6ded045e5c120323", "blocktime": 1537871767, "version": 1, "confirmations": 11491, "time": 1537871767, "locktime": 0, "vsize": 191, "size": 191}