{"hash": "ae5e63000a0cd3b8e98288653e6eb3754eb411cfe8bc0ab16b30e572650e79ce", "blockhash": "0000000000000000001cda96e906b7601b7a6fb1a3b62bca570a9e5d8f4b3de1", "vout": [{"scriptPubKey": {"reqSigs": 1, "hex": "a9141d1059d34d53fc2cc604ed9868ad3be0a055d34587", "addresses": ["34Lh7BjiKi555WN4BbMHDbXSqU8rb5n7Qv"], "asm": "OP_HASH160 1d1059d34d53fc2cc604ed9868ad3be0a055d345 OP_EQUAL", "type": "scripthash"}, "value": 0.07479889, "n": 0}, {"scriptPubKey": {"reqSigs": 1, "hex": "76a914008539ec349f8d18a20a1d72e0ce749d9e92b86b88ac", "addresses": ["113kbivhHTP4Pq7nPXou1cjaRy7gmVoJu7"], "asm": "OP_DUP OP_HASH160 008539ec349f8d18a20a1d72e0ce749d9e92b86b OP_EQUALVERIFY OP_CHECKSIG", "type": "pubkeyhash"}, "value": 0.01135097, "n": 1}], "hex": "01000000018232ad090b4896c22fb351fb7f9d87ea3a58ab34c8f65e2ee96f0bb3c20bc9ba01000000da0047304402203d110f44109c28f031df3fae203d73021e4fc9b977c7339c3a3a51a60c1368760220225dcd4b895de23ff11aba5ed1175f287e2965f269645e3b8bceae7a3426c77e01483045022100ec60896055d3d3105d23f0a2225b7a2c3913d83aa20f34a34e75d55c2ee0a52f0220487e3bd9108a3074068f1d7d2533d4716d7bd7f869bda89e91e5fb33c93b58910147522102907a54bed8ad74b3f35638c60114ca240a308cb986f3f2f306178869a8880b612102a58e28ea19117128ffd126f44cd47031373bbc010dcf9c39c64c23286f18ec6952aeffffffff02512272000000000017a9141d1059d34d53fc2cc604ed9868ad3be0a055d34587f9511100000000001976a914008539ec349f8d18a20a1d72e0ce749d9e92b86b88ac00000000", "vin": [{"sequence": 4294967295, "scriptSig": {"hex": "0047304402203d110f44109c28f031df3fae203d73021e4fc9b977c7339c3a3a51a60c1368760220225dcd4b895de23ff11aba5ed1175f287e2965f269645e3b8bceae7a3426c77e01483045022100ec60896055d3d3105d23f0a2225b7a2c3913d83aa20f34a34e75d55c2ee0a52f0220487e3bd9108a3074068f1d7d2533d4716d7bd7f869bda89e91e5fb33c93b58910147522102907a54bed8ad74b3f35638c60114ca240a308cb986f3f2f306178869a8880b612102a58e28ea19117128ffd126f44cd47031373bbc010dcf9c39c64c23286f18ec6952ae", "asm": "0 304402203d110f44109c28f031df3fae203d73021e4fc9b977c7339c3a3a51a60c1368760220225dcd4b895de23ff11aba5ed1175f287e2965f269645e3b8bceae7a3426c77e[ALL] 3045022100ec60896055d3d3105d23f0a2225b7a2c3913d83aa20f34a34e75d55c2ee0a52f0220487e3bd9108a3074068f1d7d2533d4716d7bd7f869bda89e91e5fb33c93b5891[ALL] 522102907a54bed8ad74b3f35638c60114ca240a308cb986f3f2f306178869a8880b612102a58e28ea19117128ffd126f44cd47031373bbc010dcf9c39c64c23286f18ec6952ae"}, "vout": 1, "txid": "bac90bc2b30b6fe92e5ef6c834ab583aea879d7ffb51b32fc296480b09ad3282"}], "txid": "ae5e63000a0cd3b8e98288653e6eb3754eb411cfe8bc0ab16b30e572650e79ce", "blocktime": 1537873282, "version": 1, "confirmations": 11484, "time": 1537873282, "locktime": 0, "vsize": 335, "size": 335}