{"hash": "ae61af5c240ff1893283224d0b336d0b2d7fb74810b10b50527b77fd82e3a86a", "blockhash": "0000000000000000001e0dab787dd257d1dbfcb92a98c2207d5e1078be1f4165", "vout": [{"scriptPubKey": {"reqSigs": 1, "hex": "76a914882cc4f54c2ea08d18892bb11ab27fc43e466e7188ac", "addresses": ["1DR2XiiEjs91cTtp1LxyqEKm5ihNABmRZ7"], "asm": "OP_DUP OP_HASH160 882cc4f54c2ea08d18892bb11ab27fc43e466e71 OP_EQUALVERIFY OP_CHECKSIG", "type": "pubkeyhash"}, "value": 0.11225002, "n": 0}, {"scriptPubKey": {"type": "nulldata", "hex": "6a146f6d6e69000000000000001f00000000389fd980", "asm": "OP_RETURN 6f6d6e69000000000000001f00000000389fd980"}, "value": 0.0, "n": 1}, {"scriptPubKey": {"reqSigs": 1, "hex": "76a9143c4f86bb2d18c19f0afde122b645b9867df787d688ac", "addresses": ["16Vtp6RnFtc89PHhoiWBVeEf7VyNHn3gQA"], "asm": "OP_DUP OP_HASH160 3c4f86bb2d18c19f0afde122b645b9867df787d6 OP_EQUALVERIFY OP_CHECKSIG", "type": "pubkeyhash"}, "value": 5.46e-06, "n": 2}], "hex": "0100000001df2aab39ba9efeebe3531fe28657ac3cf738cbe3c914ec65af3a0889568a3a69020000006b4830450221008411a362e791d14f8d0fcdc8602f92a2f27672f10eff00c34288c5b949a3f9c202206520f179acd16acc71686edb952466aafa1e42b7bc24ec36f845a529f0c3ca6b012102d7800c61a710c2c233322b2fbdcbbd492c162678a6cf6e859c3b7322e14189eefeffffff03aa47ab00000000001976a914882cc4f54c2ea08d18892bb11ab27fc43e466e7188ac0000000000000000166a146f6d6e69000000000000001f00000000389fd98022020000000000001976a9143c4f86bb2d18c19f0afde122b645b9867df787d688ac12490800", "vin": [{"sequence": 4294967294, "scriptSig": {"hex": "4830450221008411a362e791d14f8d0fcdc8602f92a2f27672f10eff00c34288c5b949a3f9c202206520f179acd16acc71686edb952466aafa1e42b7bc24ec36f845a529f0c3ca6b012102d7800c61a710c2c233322b2fbdcbbd492c162678a6cf6e859c3b7322e14189ee", "asm": "30450221008411a362e791d14f8d0fcdc8602f92a2f27672f10eff00c34288c5b949a3f9c202206520f179acd16acc71686edb952466aafa1e42b7bc24ec36f845a529f0c3ca6b[ALL] 02d7800c61a710c2c233322b2fbdcbbd492c162678a6cf6e859c3b7322e14189ee"}, "vout": 2, "txid": "693a8a5689083aaf65ec14c9e3cb38f73cac5786e21f53e3ebfe9eba39ab2adf"}], "txid": "ae61af5c240ff1893283224d0b336d0b2d7fb74810b10b50527b77fd82e3a86a", "blocktime": 1537872475, "version": 1, "confirmations": 11486, "time": 1537872475, "locktime": 542994, "vsize": 257, "size": 257}