{"hash": "78b3ffc59efe7beacbcc0001f1caeee2e5762a57bf83b0817595ef50d3dc3057", "blockhash": "0000000000000000000dcc0f55137456b1a82d3642486a52398922ac4d620174", "vout": [{"scriptPubKey": {"reqSigs": 1, "hex": "0014f2b362148fa652264b9e0299086df3664ebc441b", "addresses": ["bc1q72eky9y05efzvju7q2vssm0nve8tc3qm50pn4w"], "asm": "0 f2b362148fa652264b9e0299086df3664ebc441b", "type": "witness_v0_keyhash"}, "value": 0.00027064, "n": 0}, {"scriptPubKey": {"reqSigs": 1, "hex": "76a9145fb43ab715778ad9d594f6a3be7af30741b9c6c388ac", "addresses": ["19j36nBrhrStputfT86rDQoPmdu2DoLhK6"], "asm": "OP_DUP OP_HASH160 5fb43ab715778ad9d594f6a3be7af30741b9c6c3 OP_EQUALVERIFY OP_CHECKSIG", "type": "pubkeyhash"}, "value": 0.0156312, "n": 1}], "hex": "010000000001014b63e42418fa0d88a0d07698b8db7a0f70192a81a63cfc6e1d12b10601ea2c07000000001716001405967afe37bfa192a6efeb804692a3ae1fe2565cffffffff02b869000000000000160014f2b362148fa652264b9e0299086df3664ebc441bf0d91700000000001976a9145fb43ab715778ad9d594f6a3be7af30741b9c6c388ac02483045022100d1febc722b4db176c2e6fc5a31004f52cdc7010fa6939fd2b24dc3048e731bbe022014a3229958e074ae5f4068643b8eb4eb7c3384fc8a532964a4003f18b0d10df40121029853c43c7d350beb6976b976df626bc9ad93dcbeb5f3bbc17c2934d8e009cc1f00000000", "vin": [{"txinwitness": ["3045022100d1febc722b4db176c2e6fc5a31004f52cdc7010fa6939fd2b24dc3048e731bbe022014a3229958e074ae5f4068643b8eb4eb7c3384fc8a532964a4003f18b0d10df401", "029853c43c7d350beb6976b976df626bc9ad93dcbeb5f3bbc17c2934d8e009cc1f"], "sequence": 4294967295, "scriptSig": {"hex": "16001405967afe37bfa192a6efeb804692a3ae1fe2565c", "asm": "001405967afe37bfa192a6efeb804692a3ae1fe2565c"}, "vout": 0, "txid": "072cea0106b1121d6efc3ca6812a19700f7adbb89876d0a0880dfa1824e4634b"}], "txid": "ae624a8f4bdcdcbfded225ce1911fbec7c669495ccc70fabdacf60e49ec3c423", "blocktime": 1537870268, "version": 1, "confirmations": 11518, "time": 1537870268, "locktime": 0, "vsize": 167, "size": 249}