{"hash": "88c52c043748225a1519e23cdc67fb182a52d69d6691f2518f61bf7ac0d28724", "blockhash": "0000000000000000000dcc0f55137456b1a82d3642486a52398922ac4d620174", "vout": [{"scriptPubKey": {"reqSigs": 1, "hex": "76a914658bc2e4001cfacc64a3e041943e921b3086737588ac", "addresses": ["1AFvgAG4FN8fhtp3ZtSF8hsmKvPTDiB4RV"], "asm": "OP_DUP OP_HASH160 658bc2e4001cfacc64a3e041943e921b30867375 OP_EQUALVERIFY OP_CHECKSIG", "type": "pubkeyhash"}, "value": 3.43e-05, "n": 0}, {"scriptPubKey": {"reqSigs": 1, "hex": "a9148ddb66c3371910a0ef8f38021cc4094e61e69f3a87", "addresses": ["3Ed62sPENkraPwpovPty9YMFGJ8FtTyv63"], "asm": "OP_HASH160 8ddb66c3371910a0ef8f38021cc4094e61e69f3a OP_EQUAL", "type": "scripthash"}, "value": 0.02300776, "n": 1}], "hex": "010000000001012db806316487a99c2ef202b29b38f7ac64706a8d8e62f09c6b6554d9b9546ee30100000023220020fdd23d707f55451c4e006c77b5e8df35a185a8e99f9bda70bf0ded7913bb1eb3ffffffff02660d0000000000001976a914658bc2e4001cfacc64a3e041943e921b3086737588ac681b23000000000017a9148ddb66c3371910a0ef8f38021cc4094e61e69f3a870400483045022100c2015c903e9db3d28bfacdbf9a30299a0f1941cf7cb8d9b57290a1eef2c7453102201d6e05157c809472e68fedcfe9146953305e1903186c816cf6f53d832eb3786101483045022100ca97f47b017f2843292cfbe0ffbd52a21c7b8dc86f0870177b961c44ff7cd06702207e36d1dc4bf99c69eed578459ea60e95faafc03a2cdc81ebfb68c3dadb58364a014752210286c104577b978160849865bc23f9a6df9b53d41c8ffb486754b97b2a474a181c2103148c80a5bdfddb05ff5bcffc397c8ca748d8b435ec6a175bc9d7bfc7fc6f853752ae00000000", "vin": [{"txinwitness": ["", "3045022100c2015c903e9db3d28bfacdbf9a30299a0f1941cf7cb8d9b57290a1eef2c7453102201d6e05157c809472e68fedcfe9146953305e1903186c816cf6f53d832eb3786101", "3045022100ca97f47b017f2843292cfbe0ffbd52a21c7b8dc86f0870177b961c44ff7cd06702207e36d1dc4bf99c69eed578459ea60e95faafc03a2cdc81ebfb68c3dadb58364a01", "52210286c104577b978160849865bc23f9a6df9b53d41c8ffb486754b97b2a474a181c2103148c80a5bdfddb05ff5bcffc397c8ca748d8b435ec6a175bc9d7bfc7fc6f853752ae"], "sequence": 4294967295, "scriptSig": {"hex": "220020fdd23d707f55451c4e006c77b5e8df35a185a8e99f9bda70bf0ded7913bb1eb3", "asm": "0020fdd23d707f55451c4e006c77b5e8df35a185a8e99f9bda70bf0ded7913bb1eb3"}, "vout": 1, "txid": "e36e54b9d954656b9cf0628e8d6a7064acf7389bb202f22e9ca987643106b82d"}], "txid": "ae6b1226595a6772ab016094978895a7a8eea260095bd89869ca41344f4dbd5c", "blocktime": 1537870268, "version": 1, "confirmations": 11518, "time": 1537870268, "locktime": 0, "vsize": 208, "size": 374}