{"hash": "6d1d65c4e72b8dc9bc7e103859e3d8fd6c31b88864c5b2b1cb2e4458d3a8527e", "blockhash": "0000000000000000001f76057863aec43deb6fa401d9628bb513d65a8098bfab", "vout": [{"scriptPubKey": {"reqSigs": 1, "hex": "76a9142986914cf4d739784470262471453ee7f190617a88ac", "addresses": ["14nZunVuq1sg4Mh8VeEB7YbjurQPeAKZtF"], "asm": "OP_DUP OP_HASH160 2986914cf4d739784470262471453ee7f190617a OP_EQUALVERIFY OP_CHECKSIG", "type": "pubkeyhash"}, "value": 0.0014157, "n": 0}, {"scriptPubKey": {"reqSigs": 1, "hex": "a914f5342287aaa57f5c05756dbd5ef14091cc70030f87", "addresses": ["3Q3XvwKWsx3ocmCXheK6pAo5ieooFx75hh"], "asm": "OP_HASH160 f5342287aaa57f5c05756dbd5ef14091cc70030f OP_EQUAL", "type": "scripthash"}, "value": 0.08620543, "n": 1}], "hex": "0100000000010170fdd38d3a37f0a0eefd05a7ec5b9e5512bfc6978a9a9bb5564ab68aec6876a801000000232200204fd7968ffe15cb453352a1e9ee2915eff8b6d6252d5a351f9092b82ca10eb12cffffffff0202290200000000001976a9142986914cf4d739784470262471453ee7f190617a88acff8983000000000017a914f5342287aaa57f5c05756dbd5ef14091cc70030f87040047304402206807bc3b588faf35ac3581dad6ce086c96e3ae1a498874a319369d9ef083f914022075cdb5abb3902c72f28447e5bc03c650f8ec632a7ea0e23268bb598eea531b4a01483045022100c43d2a7ae795ed9a5071c69ce38e9cf4e7430b47bcb23048e4d0dcf6c004ec0d02204ea71e519e532587d581f79ef19785e350d5610a898113c4b0955bfbfc7a7eaf0147522103b70e79262cbb7310fe069dea7c473b53276b75c67fb841ff66279f152a3fe0172103871fc2ca08e6950b38867e8e6a0e94ee625223d3aa0df5c65f414c6d784467e252ae00000000", "vin": [{"txinwitness": ["", "304402206807bc3b588faf35ac3581dad6ce086c96e3ae1a498874a319369d9ef083f914022075cdb5abb3902c72f28447e5bc03c650f8ec632a7ea0e23268bb598eea531b4a01", "3045022100c43d2a7ae795ed9a5071c69ce38e9cf4e7430b47bcb23048e4d0dcf6c004ec0d02204ea71e519e532587d581f79ef19785e350d5610a898113c4b0955bfbfc7a7eaf01", "522103b70e79262cbb7310fe069dea7c473b53276b75c67fb841ff66279f152a3fe0172103871fc2ca08e6950b38867e8e6a0e94ee625223d3aa0df5c65f414c6d784467e252ae"], "sequence": 4294967295, "scriptSig": {"hex": "2200204fd7968ffe15cb453352a1e9ee2915eff8b6d6252d5a351f9092b82ca10eb12c", "asm": "00204fd7968ffe15cb453352a1e9ee2915eff8b6d6252d5a351f9092b82ca10eb12c"}, "vout": 1, "txid": "a87668ec8ab64a56b59b9a8a97c6bf12559e5beca705fdeea0f0373a8dd3fd70"}], "txid": "ae6d90079993096e60660673825c3ba054dfa51323034506e7dafadc05c4b1ee", "blocktime": 1537873891, "version": 1, "confirmations": 11478, "time": 1537873891, "locktime": 0, "vsize": 208, "size": 373}