{"hash": "ae71963eaa03f6548c53a91cdf6d3149ad39199529457eaa92e8ea8099e5f467", "blockhash": "0000000000000000000baef3f32e3676a92c3b2e5da21b426e4f302fc371ce76", "vout": [{"scriptPubKey": {"reqSigs": 1, "hex": "a914eea2d6b0873d3dea5d90f94e92cbd2a5229d523087", "addresses": ["3PSopRem8VTpUKja1bYn8QgZL4LtLWTRjv"], "asm": "OP_HASH160 eea2d6b0873d3dea5d90f94e92cbd2a5229d5230 OP_EQUAL", "type": "scripthash"}, "value": 0.00725542, "n": 0}], "hex": "010000000391d092129c9925f38e3504de8886f36ea0f6d45d60fdab2c8d7704ab5e5c2de6010000006b483045022100a0bbac467566392a74b56b734410e2a978be7f6c206e2d6e99a43907df41d97b0220103abe04805a3a36515adc91633c8dac20e21401b1cd2492df9a7ab279ee754a012102467ceb89f0d4381bb70a3164a8a4b915e3ec89253da6b8126e4efbe8fdf8afb7ffffffff29e8883570e3895e1ff768e9d216b8663709e9c534a30b2f6068cc3703c27531010000006a47304402204dc5b909582619c58ddd91ed38e81b274dd62931b525936e802f2fa79513802202205a4fe2376b4b7284e7dbcae687d9f24b436e26a055f228c741d48616477e70fd01210282fc73b924463630e8e62e548f289d5dccfe79f2669b419037342e790a9d9f16ffffffffbc3cdf640b5aaabaf504b9807243bb43bd484f07edd094be5437b31b358d144d010000006b483045022100c5fe45d58a7074511355cea8804d6a5f962663c59bfd153e777304b007846b22022015a3f49a29aeb08612e17499ac1dd71d14302dc1625041779f91f5a9d3a1243d0121037ff8899c578bc50a3bb0cdbe9648101602472df79d09561a499d3c38709bd437ffffffff0126120b000000000017a914eea2d6b0873d3dea5d90f94e92cbd2a5229d52308700000000", "vin": [{"sequence": 4294967295, "scriptSig": {"hex": "483045022100a0bbac467566392a74b56b734410e2a978be7f6c206e2d6e99a43907df41d97b0220103abe04805a3a36515adc91633c8dac20e21401b1cd2492df9a7ab279ee754a012102467ceb89f0d4381bb70a3164a8a4b915e3ec89253da6b8126e4efbe8fdf8afb7", "asm": "3045022100a0bbac467566392a74b56b734410e2a978be7f6c206e2d6e99a43907df41d97b0220103abe04805a3a36515adc91633c8dac20e21401b1cd2492df9a7ab279ee754a[ALL] 02467ceb89f0d4381bb70a3164a8a4b915e3ec89253da6b8126e4efbe8fdf8afb7"}, "vout": 1, "txid": "e62d5c5eab04778d2cabfd605dd4f6a06ef38688de04358ef325999c1292d091"}, {"sequence": 4294967295, "scriptSig": {"hex": "47304402204dc5b909582619c58ddd91ed38e81b274dd62931b525936e802f2fa79513802202205a4fe2376b4b7284e7dbcae687d9f24b436e26a055f228c741d48616477e70fd01210282fc73b924463630e8e62e548f289d5dccfe79f2669b419037342e790a9d9f16", "asm": "304402204dc5b909582619c58ddd91ed38e81b274dd62931b525936e802f2fa79513802202205a4fe2376b4b7284e7dbcae687d9f24b436e26a055f228c741d48616477e70fd[ALL] 0282fc73b924463630e8e62e548f289d5dccfe79f2669b419037342e790a9d9f16"}, "vout": 1, "txid": "3175c20337cc68602f0ba334c5e9093766b816d2e968f71f5e89e3703588e829"}, {"sequence": 4294967295, "scriptSig": {"hex": "483045022100c5fe45d58a7074511355cea8804d6a5f962663c59bfd153e777304b007846b22022015a3f49a29aeb08612e17499ac1dd71d14302dc1625041779f91f5a9d3a1243d0121037ff8899c578bc50a3bb0cdbe9648101602472df79d09561a499d3c38709bd437", "asm": "3045022100c5fe45d58a7074511355cea8804d6a5f962663c59bfd153e777304b007846b22022015a3f49a29aeb08612e17499ac1dd71d14302dc1625041779f91f5a9d3a1243d[ALL] 037ff8899c578bc50a3bb0cdbe9648101602472df79d09561a499d3c38709bd437"}, "vout": 1, "txid": "4d148d351bb33754be94d0ed074f48bd43bb437280b904f5baaa5a0b64df3cbc"}], "txid": "ae71963eaa03f6548c53a91cdf6d3149ad39199529457eaa92e8ea8099e5f467", "blocktime": 1537876114, "version": 1, "confirmations": 11460, "time": 1537876114, "locktime": 0, "vsize": 485, "size": 485}