{"hash": "ae78d9cecf8c85e8bdf3088b3c764b7f061a3ffafb891ae37cb64ce1638d0e83", "blockhash": "0000000000000000001e0dab787dd257d1dbfcb92a98c2207d5e1078be1f4165", "vout": [{"scriptPubKey": {"reqSigs": 1, "hex": "76a9146213a7ebe01aada504a52df1c4b0663224c81de988ac", "addresses": ["19wamX4MUABA8JzD3Df1sLo6JeKyAqQiAT"], "asm": "OP_DUP OP_HASH160 6213a7ebe01aada504a52df1c4b0663224c81de9 OP_EQUALVERIFY OP_CHECKSIG", "type": "pubkeyhash"}, "value": 0.001503, "n": 0}, {"scriptPubKey": {"reqSigs": 1, "hex": "76a914f6d63d3dcfdba487c2c5ee1e5d31324b7c6d6e6788ac", "addresses": ["1PW9snyAfVtJsdazeRT7iFoLtLjhYmvjcE"], "asm": "OP_DUP OP_HASH160 f6d63d3dcfdba487c2c5ee1e5d31324b7c6d6e67 OP_EQUALVERIFY OP_CHECKSIG", "type": "pubkeyhash"}, "value": 0.00240189, "n": 1}], "hex": "0100000001479c8120cfc425970a7ffb83756a8a1f950ed3d58c53686a59f6bc51116c37a8010000006a473044022044b250766a4c2f9d67ede18328c4bd0dfef500e8ffe95f301aec7a07c526696202207e094944d0dba0d193d7e653694bf76e745aeddda4832c337f89d24d109d26ef012103da4f384760087ae8a05774dbb04ea9282a5e9a42b42a8b1cd1de08001892677fffffffff021c4b0200000000001976a9146213a7ebe01aada504a52df1c4b0663224c81de988ac3daa0300000000001976a914f6d63d3dcfdba487c2c5ee1e5d31324b7c6d6e6788ac00000000", "vin": [{"sequence": 4294967295, "scriptSig": {"hex": "473044022044b250766a4c2f9d67ede18328c4bd0dfef500e8ffe95f301aec7a07c526696202207e094944d0dba0d193d7e653694bf76e745aeddda4832c337f89d24d109d26ef012103da4f384760087ae8a05774dbb04ea9282a5e9a42b42a8b1cd1de08001892677f", "asm": "3044022044b250766a4c2f9d67ede18328c4bd0dfef500e8ffe95f301aec7a07c526696202207e094944d0dba0d193d7e653694bf76e745aeddda4832c337f89d24d109d26ef[ALL] 03da4f384760087ae8a05774dbb04ea9282a5e9a42b42a8b1cd1de08001892677f"}, "vout": 1, "txid": "a8376c1151bcf6596a68538cd5d30e951f8a6a7583fb7f0a9725c4cf20819c47"}], "txid": "ae78d9cecf8c85e8bdf3088b3c764b7f061a3ffafb891ae37cb64ce1638d0e83", "blocktime": 1537872475, "version": 1, "confirmations": 11487, "time": 1537872475, "locktime": 0, "vsize": 225, "size": 225}