{"hash": "cd8fb0ce2a05ca08c1bcd92373556841ee94a9dfea6b3a54675104edbc9f2292", "blockhash": "000000000000000000205f8b0775d31398ef75b89a5e8ec8d2c57b4dc0ac4c20", "vout": [{"scriptPubKey": {"reqSigs": 1, "hex": "a914d9ee3b6b98ceae7cfc10b92849f3d911a0b4f83487", "addresses": ["3MZKwpzGAgEZJ6bVcJiBiX3uXyuPcFNqR7"], "asm": "OP_HASH160 d9ee3b6b98ceae7cfc10b92849f3d911a0b4f834 OP_EQUAL", "type": "scripthash"}, "value": 0.005, "n": 0}, {"scriptPubKey": {"reqSigs": 1, "hex": "a914f49cbee6dd477f15c329617b7db4037f98916f0287", "addresses": ["3PzQaEUurR4DR74txDh8LmFJ3iLvszSxhe"], "asm": "OP_HASH160 f49cbee6dd477f15c329617b7db4037f98916f02 OP_EQUAL", "type": "scripthash"}, "value": 0.084, "n": 1}, {"scriptPubKey": {"reqSigs": 1, "hex": "76a9148c698d1328de66ff1884b21d1fd14bcd2545fd6588ac", "addresses": ["1DoS3g4PwCpAnHbtxmH2V7r4WpWwNeEZ49"], "asm": "OP_DUP OP_HASH160 8c698d1328de66ff1884b21d1fd14bcd2545fd65 OP_EQUALVERIFY OP_CHECKSIG", "type": "pubkeyhash"}, "value": 0.01, "n": 2}, {"scriptPubKey": {"reqSigs": 1, "hex": "a91477f85c2afa0b246ed191e618cc28b7d8b5d298a487", "addresses": ["3CdMrjEjMNXVYAJ4g7GTxFx74rrHxCvE6X"], "asm": "OP_HASH160 77f85c2afa0b246ed191e618cc28b7d8b5d298a4 OP_EQUAL", "type": "scripthash"}, "value": 0.0445, "n": 3}, {"scriptPubKey": {"reqSigs": 1, "hex": "a914c795a8d2a56968b2d9e1f4038950a837648851ee87", "addresses": ["3KtKgEsCrUzWB6npdTT1vL1zxsdm3Ekofp"], "asm": "OP_HASH160 c795a8d2a56968b2d9e1f4038950a837648851ee OP_EQUAL", "type": "scripthash"}, "value": 0.05, "n": 4}, {"scriptPubKey": {"reqSigs": 1, "hex": "a9142f14805e3fc8ce4de17c9cc05a821cb339eeffb287", "addresses": ["35yxF2PGUgsC5FAQr81i2wJic9Tp7J19cV"], "asm": "OP_HASH160 2f14805e3fc8ce4de17c9cc05a821cb339eeffb2 OP_EQUAL", "type": "scripthash"}, "value": 0.425, "n": 5}, {"scriptPubKey": {"reqSigs": 1, "hex": "a914ea645e5e20987adfaa9d5fa4a915d008965f102387", "addresses": ["3P4NHAbib3uvj6QNYmPWqEJMZnx4HzszTp"], "asm": "OP_HASH160 ea645e5e20987adfaa9d5fa4a915d008965f1023 OP_EQUAL", "type": "scripthash"}, "value": 0.01029782, "n": 6}], "hex": "0200000000012c7c005453de3dea1569057fb1f486644f9547015a27380bd60a18100641d9adab0000000017160014cee7b74631bce029b29c68f703dae40103d29bebffffffffc5e7d239ea1a4bd3d0e355383c37c63e61eefc6884acc11bc14298818bd470790500000017160014d211ea548f5eea5d63cd6f927457e35ed5f780faffffffff0c349b9f46ef0d00b9a8ca2b40185f1b56e9c8e9708acd8735ae05f2220c20fc1d0000001716001492cf7c2aeb9f427da428f9d7dad152b3a4891f14ffffffffc5e7d239ea1a4bd3d0e355383c37c63e61eefc6884acc11bc14298818bd470790300000017160014ff77141e6189ab7ec5673d045d868976a57427b6ffffffff2cc0b28b8f68fd8c425dbbd64be4897539a491256c2a55db632c8a8b788d014a0c000000171600143637bf337e48b0d87e06e24e3fac324c4e96d92effffffffa490f4631816b566020e856ab9fdebd225a03ccb17863d58ee6095fdccdaea560000000017160014f085ea1b88684de9999b8f7bdb4db5be4788d5ecffffffff7a0063c277804d6ac2b5df026170534112644c3cf7f2c37b25f6925d7bbce9000e00000017160014cdef62094e6e8403c1c943fbf687270bad41e6ccffffffff5fac39f75d58594b9ffc98c2eb4d88dbeec4f507f192d646f80df4b53e62cb9d130000001716001435cfadc8bceb4ab8362d1955767631b1bfad3c5effffffff9169127272b66845a607c2e7875e8cb603e396e006bc6481db041a78c34ee6110000000017160014ffc2ac780e6a5ca80f5d88abb211fae81bc67c6dffffffff63bb948cd2be021d2f5f978da555b6f46dd468c6363c3c9b186dda5350eafb5c0500000017160014c58596a40bb484f46a3d31a920c6baaec4411c09ffffffff2f061a085c7aa629b3441f76ba7724899769c96971285f5077fa65d1b17366bd0b00000017160014349fc45eecf5b83482f09b1b46002b4d5855c759ffffffffe211af7c4e9c8712417afd159cb318946491d226f3c1ab0bca7a3b6c302e76f80a00000017160014ea1970389284d0e2b3abb6eddd6d05caaf7df5ddffffffffd806391d52203081ab91d45528ce7e3253083f27dba81cf24c327041974862950f00000017160014cc081cb1912b38829fc15ab167233726a57c5086ffffffff0bfa6b4cf640c822838ea906d25d66d6adbd3dc72899491cd6acec5f65c240a1010000001716001427320a3d47c620612710f57cbd55fda1662c2024ffffffff476713e49cb99c02dda451bda87fc481fc1402ed0ca32839f7d6efd197b73df70400000017160014bbca4d7a1f6237574fc5e1bbdfc16e6478a399f8ffffffff476713e49cb99c02dda451bda87fc481fc1402ed0ca32839f7d6efd197b73df722000000171600142f3bb36e33e22eaf0cc55e0b3ae321a522e6337cffffffffe211af7c4e9c8712417afd159cb318946491d226f3c1ab0bca7a3b6c302e76f8090000001716001492099dc52c2b79647042c1010ae83b72f150a275ffffffffe211af7c4e9c8712417afd159cb318946491d226f3c1ab0bca7a3b6c302e76f80600000017160014726e528e9bcfe1a321390247f9ee206d0ad2141effffffff0179fd9e002978593004a1b60caf55093ac9e3d7134dd39147a62fb06ec39daf0000000017160014f8da75917d9f2ddd5965be283cd383738c42aba8ffffffff0c349b9f46ef0d00b9a8ca2b40185f1b56e9c8e9708acd8735ae05f2220c20fc1a000000171600146f73e988f027a369b284ad391180585056dc27edffffffff0bad862195a797e591653126f3dd6365b5eb89546cece46021c416f9617bf7850a00000017160014b58cebb1ceb6b2a7aa74ecec2399af8005926300ffffffff1e2ce5595e62914f36a881085fe0596f5bd4a4544141855e41cfdca434e05bc50200000017160014f5aec5f92e3c85071f5dff18b1f9504e60930a22ffffffff884cdef6dc4736808e637fd1e4d01c9216cff9f5330bd8529bd122268432f6411400000017160014664a26b8e4ad7eaba41b9800547063ed5442b9bcffffffff79d0f544500d90d70e8c74948b2cae05cbddf7ccb3ff029f55cd3be724c67da11000000017160014ddadb0905e153b14640c7b27158bbe1b417e3c7fffffffff86a9264b47055b215867d2ad23abb06a8152673748349413b2cd08393d9b547e1400000017160014e053b97d9ed9ad7f5e0fcca4113580813a029dc8ffffffff5369385bc68c3f374deffa79f66cd33204ad276093e327a0dd1df88167080a980000000017160014090220074fcde84cf816197ad28bf4fac659d4abffffffff1d553f180d2f8b5f7698753db504bdb08f3806731cede86716500f02a4f10f4d1300000017160014631387e7b280ea88238d506bdc5a2acd19923081ffffffff86a9264b47055b215867d2ad23abb06a8152673748349413b2cd08393d9b547e0c00000017160014c37a42345972c55a1335302269f8f8348c6965fdffffffffb627759848b0d0afb8cb2fc93c5bbe0fb2a298b77a04170272f60f5e75d0429a0e00000017160014349fc45eecf5b83482f09b1b46002b4d5855c759ffffffff8ec7e8e12b54d0be2d93f5ba419c9b2b3f0e355ea4b8624ca5d1f6f3e798bc0811000000171600145e90b8ed5fd2acbd7e2d37b9994f1c521808b94bffffffff809d4306e258dc26ea7724679c082ef3e68e5b30929ca52fcf3a7ab6cfc21a2f1900000017160014a07d098453109b8424c0e18fbc99ae470cea55a4ffffffffe211af7c4e9c8712417afd159cb318946491d226f3c1ab0bca7a3b6c302e76f80200000017160014eb498dcbb4be5a0069ed35d98cba53531569dec9ffffffffc5e7d239ea1a4bd3d0e355383c37c63e61eefc6884acc11bc14298818bd4707915000000171600140908c4ee7d2c43ba42a6756e0f1e09eb01de7c7dffffffff86a9264b47055b215867d2ad23abb06a8152673748349413b2cd08393d9b547e02000000171600141b7e440698ce64aa85f39cd8eb0fa503ff670404ffffffff4592d89b44489abcfe56e0fa85ec93e4ffb0addb930bbdd7adaef31e0d34e4670000000017160014b84ae36bf32ae300aebfca0d2d3b2e6a6a3a4b5effffffff42e05ba3fe2cc28e08c2ed4af3c722c985ae87ace4827d312bc6eb1823293c31000000001716001426a58c7af0c3d175965cbdeb37d51519ab48081affffffff4293a4a4c9750600ff480ca4bdd5a20eac1fae0fcc8fc0bf29f05ba3110ad97c0a00000017160014cb9fbbb64a8c0c10b32761a3eea70a65bb47b2e6ffffffffb627759848b0d0afb8cb2fc93c5bbe0fb2a298b77a04170272f60f5e75d0429a0a00000017160014bc3c748a6b9b9e0e1468fd23ae0f6eeaa71daaa1ffffffffc3499877edf0112ecc173fef1318c4f9db35f01570ce8d142180cb18e47f0d130000000017160014bb02d11136058f31b456d549ad7fedbaa40dc8dfffffffff86a9264b47055b215867d2ad23abb06a8152673748349413b2cd08393d9b547e160000001716001419c936701618c76462ff59e0ca7ca801c5992f03fffffffffd8698d0260801289ea1fbdb12418fefcc6beb864281932c026892cc3098d21a1d00000017160014ac59b483424812e85942783e50c972087328dbd6ffffffffb627759848b0d0afb8cb2fc93c5bbe0fb2a298b77a04170272f60f5e75d0429a09000000171600147e89099233f480e8c4604c23966e258403b49c38ffffffffe211af7c4e9c8712417afd159cb318946491d226f3c1ab0bca7a3b6c302e76f807000000171600140e0334d07e9c4a388f1c0e4a8391cdcfeb5e2af7ffffffff0bfa6b4cf640c822838ea906d25d66d6adbd3dc72899491cd6acec5f65c240a104000000171600142ce0f41f2b90d91e3bb180c18e337b6eb327aa38ffffffff0720a107000000000017a914d9ee3b6b98ceae7cfc10b92849f3d911a0b4f83487802c80000000000017a914f49cbee6dd477f15c329617b7db4037f98916f028740420f00000000001976a9148c698d1328de66ff1884b21d1fd14bcd2545fd6588acd0e643000000000017a91477f85c2afa0b246ed191e618cc28b7d8b5d298a487404b4c000000000017a914c795a8d2a56968b2d9e1f4038950a837648851ee87a07f88020000000017a9142f14805e3fc8ce4de17c9cc05a821cb339eeffb28796b60f000000000017a914ea645e5e20987adfaa9d5fa4a915d008965f10238702483045022100f1e32d9d62868e7a0e02b8bba6227eb7583abbf7b945a731e6fbfd5c02cf725a02203bf7e5d73a2efce923f1327724cfa6ae1149bdba88bd54d41e422d7b3a620d1401210252fb80cacd199fde2bb1cf55ddb286044f649eafd30f1970c2cac4435a990f78024730440220274184de82d44b62691ca31457a049c173eb95c9aaf78418fd057b8008aabe2c022026c3cfdb4d034ff521aba7f505466fe90197a159786a53b22f46a716084f5e43012103df8b9e0e6611b5ba04cbc93f2e564ef8b0f4720c99aeff57ccfd963429fd1ed602483045022100af0d619ae8f5e95e75509ca28d12a822e84ead50ae0c632e46eea3bf1ab4a1df02203aa5362ef1e6e234ed6e8dcaa8a942be263ebd11a460cb4b2b297efce5e9a3bf012103c651cf4a109f55058d1113314cc0ed2f46f61374ef3e6018742a36a1222310c20248304502210098ea64504fc685e4fe9f220120baec0f1cfefbd70ef81a83c6d9871da28f4cbf02200948fe4a614756e2feef6909af3aba81aa4120d2e5a8169cd4989e7b65f1b9bd012102409de8cbd635207a892c85f084f9c22b57bd1c1f805c5d39eca3e60267a90ecd0247304402204af17be9564d54b6b496dae8c19e334c46df79be9d92b2c739523f29a350c9bc02205feba80cbe69355418cbc14ca79471c4479dee202658886a49edc3c02f1dbb1101210397cec255fdaa97a17b6546b12b9a3d674b9135136c7ef657abecd82ffe9da88102483045022100c92b5fdf892d669e53609d4373ad0f668c204ea26aec4027b4f23dee220c481f022052aa02e1665c1fbc14fdfe2bcac4111e663ebcf9d599cd9566a473f88f61d6f6012103988f58d8e86d40460b7eb646d27f83bc815e403f9804648afa52d20f9935226402483045022100ea25799515a05e38e7457b25488b71af055675e5354d0da66242b067d997699802201430aa0f16b99a8effffe553e0517a300e6a08292846ce75aa97c25de96bf76301210353df2a727395c39ce7c9e142e0827d1599026e93fe3b654e7603f016caf2cf9102483045022100b07a6d7d8a35e09cd67bb9375487bd5ce5a6181aa130e54c61ef5be1133bf0c502202269166df600df3bda75815d8d3a7cd5bc0048b05dd32a328f9a7748b3e97bc6012103730e2e6c5bf20ee707afca5c3eb1c51eaec4da5f51379c9e703014bd569493960247304402200469c1ec039bcc53649a7ec53a18cfff6f140093055511cf0205ace634fb374d02204368aad46746e22d9aded2013bdea3da0f873f55c63065133a67f8444a1b287c01210364deb54ed19d79392ab6891083faa4c7a2494bd5ec4ebae12e87b157bdb96b2e02483045022100809060f2017e4294c23f62bf538e72392a300d9c781b11672986e5bb41c891e802201af242b1753a9c4a16c3cfe76ed19b8cbc6c4fae925ffc47c95904bdc6b532fa012103abcb7ed387fcc8794326a2eef0119cbffd9e3ff90c0882984f26b9f92dc2ff910248304502210097b38dadcdee17891b8137002a0db401a344651f266370ea0c94c61980455f15022079ac3b0e5c7f3eea29adbfcd5d462db90d73e3949a838e551778a16cf54110130121029b42c7622eed6a83af59dcbf5877cfafa81ae6e5f540638f5b7b9854a2ec465b02483045022100b6ade4b7c17e1eb952644255f3c40229b83ad671e111b48d8c49bc4af899d78002205868c7d6bc8b895db8d6de125dc93d59d96fc8e82a5e3d72d71daf73a7c5f6c701210295bf0be24251aa8ed6ed96396b59125f59d108cb4368cdc1cd194c7ba03fccca02483045022100d779271f79c1004d05dea164c8e29db1c883008d4d364055949fbb1508c481b30220195fa52dd60a03f4214966a48f714b5646565cd8cbc9a18e0f9a7b80a70f3db9012103ecf67eb1279b73b11cf9728b17404b81f966d703795ec929f37e4db1975d66c102473044022015fb9abc2e1420adbe95aa4207f744874b19271734399b204c6a7b878940986302204f82bff5381698f5cbeb7767800ce8d3d840a2344b9a503f5e8cdbaaad1d76c1012103db2f394c60f2c51f0ffca100892e88d4378af320cb81d78ff99d39e0f1913cab02483045022100d0bbf03138cfa0b4e9c7874cd5cf677d22e6c4a19e94d108f453dad60e8988ff022065c666d778ff9771a791a3692a93a5cca26d33bbc6100a4a549858cde5e34c72012103445bfa8c71063c0cefc51765c47f24f79806eeb85932569beaa2339ba219fb3402483045022100b5dec9298a42aee0905b680107685e22efc9cd2bc77054e3034471eb2276833c02201dfae77df345284b17d960a942793ea791f5f9dcaf4007640ed94a0635c015b2012103a8bdf3309c3dc36befe2fd9283b277ef2221cbe28018cd221c93bbc710718944024830450221008caad94fae3d674740bacf7393b8bcb14b3619782463b8d54745df7044e5f31802200c32e7233c9beb2823dcf23bb100f73a83082ab7c709d04de81305eb90c9f60a01210321d0bdf6cd499fa63b62e2463f1da8ac739e7b94c669b46ce93716ba25817f700247304402200f3beb249388a905b0fe75344ee4c6cd0c2e2745e66f51297540e148e2626df402203399934fbe7b23d9c506a0f67b4152400e6c5dbfdef4fd7bd8ce5df73ae701dd01210272b74d86cc12844b5ff88162c93149c5dccd1bef4822744d2498895631bc6ba902483045022100e60c7054e2f389469b66b96f48a9d9d65547a8f2712acbdfeaa07f7f1011babc02200460f09eecd09ade27326472d55fd53030b8190374e45800a3e80188a6a71a740121039046a2d524990ef4d2597e8dddfd236037f12c8e54bc5a7b83b543801549234b02483045022100f67d2d285237a11c2e01aea5e08f1f0824c295e4ea0074b83d278b564f2e499302203e43b1f7736678edb792ff099fbb431963e6e9b69a6d47445f60c737418516f20121035277898e3c842585760a4d27cbf8d96cd5fb0aca37af358d75d9a0cb1fde0bef02483045022100f6e59f1d4f44429852470d69656ab648f0039ae1207d1c710cf8321d0d8364e4022034e7579657fc755eddf775dafaeacd7783f1e60e7b94a504c12efd972f5d375201210214099c40fb21dfe8029ace5a9a1bcb32b5086cf394db688c0866e556f8b366000247304402201dd9489767c7950a46e8adcee7f3935d1f72fb0bcfbedf9e43f2353f762b49e702206ca81f8a335b1647af931aadd4782d55430087a903d32519583fef175ac01481012103a93a43acba7abfee6fe96245dbd69f648e27379bcb4273d10d361fc5b36e9b9f0247304402201110a7b6163f61274f20ce56412eb54f35d45aaa919ce1e0fa159e2cf913929802204699d37ebeae23d52a53ed5d11fb200c8f9ca10bb7356b9d8c8a491cb274c30e012102d21d505094a2b77749454ce080cd13460aeeb3960495408b2f2cfcc4b6ae91140247304402202cb75d14b7582b989be9ee00e9c06ca3cdeac9b08d342087a5c621142ed300e3022037930923af3e9922cd21e507f4da59c4289c054dde2a716ffb3b52b51d2b6c010121023b503e3ba0665085a3fdb6a45e2123bf156d848530cedaac9354a85b38e3f9b002473044022025b7345a87fc6d0baea5c58e924a878735299605af0413adb1e5c6e3deccfd4702205413f17f9cb27e9bba866e619101eede3c64ae2536eccfd046fc0d7eaf820ebf01210378aadcc15db14d516be78fda4ad1f83f25e8b2dbf01d899831e9bdeaf17f30750247304402205d687ddae78f9b741afde7929e2a843e1866614f8ce0e4d697a1e386d4ae627402201c1de049f8362f0d70ea25013fc3ece1b288ad9c5a05a34053dec095f3c368750121028ca772462352b491113cf5fba39f830cbdc3ee5c0b94c98361f415483d29a20202483045022100e5e64e3d0536f494d3b895b77a19222db5d84037f34104674cac1fc102d3e3ce02207876ebf05331662f66c417bbf9f3cb2b54d630255018d7269c1ba1764b7181a9012103b5e334499193388f5ee56cea05ab38e5dbaf95aa3e9543d785bf66a5c7d7298602473044022030f14aae6df0175b9b1743df35495097edb39f4c355367411ed38b933ad33d150220358a2a83df6f52b9ef2995213e6b5ac2bd85d924bd93a83e3e5e4e6f7567a0ca01210299f626a29fc3fb02d2acfdf71574f6482bafe5a2fd518451fe641af6d0aa83d402473044022028a6613edab82550c7e9ee42078eca5d07a6a44d9b40c6d7ceef08a0b331591f0220324072bae2bd6487bbf8030b2627dd34baa636652952cb81ea7d81ebb4272f370121029b42c7622eed6a83af59dcbf5877cfafa81ae6e5f540638f5b7b9854a2ec465b024730440220567a60af6dc39cf2fd9b376fa21091faf0d8c63ff8e9f09206ac80fd4bfe94750220240b445add46bc9ee0e1d4f1ff8dfa79ae72db0c2aad7d1c3e435fc252ef1f29012102dde43c0310145addb061a51a6e545deadcc3d8b69a32bcbc7d1e2dd915a479ca0247304402203d10698267bb01c31337cfb7db54774ebdaceb5ac3c4d8a70afb6b3fdd5cfd04022034e65b66d148494fb677302e7909f3cb4c96ac96e3bc52191f09d290d0f40565012103456029e79ed0f083a85d1ba0eb17aae90218fc82c72a3491e2c431d6c70e54dc02483045022100ff79dba72c8dc448d818a0d53acb4c5b5dd1bf2b7d7438b002fe027f745bb3a0022037548ed45d269d78189a7a416282cdbd5613ca878a8f13676f9e961142cc005401210299728b815964d8476a005644ddf76898c61ef320e85de06b6f2fb9c86c62555e0247304402204a8687dfb8aea9d535d78239f574dcf8fb3c1334a49b2a3405fe02124007b4a002206534d907c7feac72d7d7679469afcd934ec9d659020ed13ea92d3958ed5a244801210372dffb685900f3975b351aa899511187a65aaf98a6a13303d6ce0164b59a0be902473044022051bb3da919755d11ab37057e95918a89def26d99e10d926af996ea9b8d8c9a37022024b449190a0cfc524769ea397510cab208a869783de06256d3d3daa0225ac95e0121036a03a0dddd6f38affa17b4dd3ed308608522edbb38f455f7c2dde8c638ede7fa02483045022100a6951eab6afd28025fd2f0de79f62ecedeef39f8b7c60ae4e5408fd5169e976f0220529b5793ead204f68764e474631ebf5c1b99033fa330e13e1e48cf55c8483f9f0121024b13a1abf721d2484e890c4b461b083bfea54d7b6eeac6a63b7be9354bc9979b02483045022100e88d996ef09dfa738e5866f1710b0d744ff38c3ea3da707e562b490de8863e0e02204a48ba08c268c9facfaf11ffb06c032468b2c6934ec2282df4ae648f5ed1252c0121023b8a075d4e945188f13648bed71988d40e727a10f059243938377226524fdf0502483045022100bd886f3fcff7d8d4c41b22f20a6f802c0172af0db2e9a6b3c24885a4d2650c63022051af1a0f3f70484157a5e516aa206ab414546ea0f33c9f074ec45e09dfad8af6012103e8ac0a2536c33688dfe7425b41d6a282bad875448b886c7e433985ebdca2638102473044022077bd242aa0bd9b32e220b8300d9309e2d4c8c32ffc5116b1d477f91bb69ff5390220773ce315e98420f07955c52a99aa60be68ff3bab3d666d17f1b36c0cd7f8e523012103914f889e786a87a698e0413db2cc6158e4d1aa421a4076b06d48ac433793c834024730440220125eecdf22242c10364835bb1b3757f63f23c70b0b545e3756a2cd08759fab7502205e7c5467dc780fbb5beae204319e2e1dd1e1d4ab512d29263abc1d894276bd24012103b84f987945dd5f20d01240c20d03906403eef7b9b0dc76442d1d535fa88c662002473044022008ff8bf81a2d6d0636f73b00fc514a8074a4e29a388b5bdbf2092b5e3b97ebb902206270de5c73e3c101356322a8b2fa0ef550488113c09032b32dd0bb81245b054401210310120fe3c75e83f6b7a58e59c67aa6dfae7a271858479d5f97ec9f4e97a7b2ff0247304402203f7bbf571a72b803ee62886390a171e4d5aebe246faa02e48e139a1c589b1eee02202672214cb6f164f3414c57c78061b97c7f62c3c146e482705151c684950c8354012102fbd2170e529729a9d84e73c034c4352b238ae385289806658c40ae774fcce9fb0247304402206313a269e3ef6e406b9ab854b315fea136853859b94c0f2550f5598cf62a570a022052213d50d664f6557549c27b148d0a3905735dd4a7fcd42a5d406463d90fe688012102ac801e816d2e751b16606f7dc7ee44aafd9830c51c6d86f9970cae7e95cf901002483045022100fc659c164ab336d47d868e684defc7c191b7e4ca4a02071e488a2521e331e95f02203ecbaec80e4d40a1b885c1f3084579edf6239e593223087879b96ca40eb463ad012102dd7997207f7786e22d6aaa99a22a5f82db55cddaf2c51e92e7418f310a0c64a602483045022100a91cd1ec314f40139e6ee79a1877f3b894bc0b3b2a6f793e1954100aadeaddab022079ff4a372b5ac4bfcd894f4246c4c8421b7afdafd492ec7eb1dc7e945c8cb242012103280485816bf6dd95f01ec57973c8c23f34c87fe4251ce380ae3b8be97840907200000000", "vin": [{"txinwitness": ["3045022100f1e32d9d62868e7a0e02b8bba6227eb7583abbf7b945a731e6fbfd5c02cf725a02203bf7e5d73a2efce923f1327724cfa6ae1149bdba88bd54d41e422d7b3a620d1401", "0252fb80cacd199fde2bb1cf55ddb286044f649eafd30f1970c2cac4435a990f78"], "sequence": 4294967295, "scriptSig": {"hex": "160014cee7b74631bce029b29c68f703dae40103d29beb", "asm": "0014cee7b74631bce029b29c68f703dae40103d29beb"}, "vout": 0, "txid": "abadd9410610180ad60b38275a0147954f6486f4b17f056915ea3dde5354007c"}, {"txinwitness": ["30440220274184de82d44b62691ca31457a049c173eb95c9aaf78418fd057b8008aabe2c022026c3cfdb4d034ff521aba7f505466fe90197a159786a53b22f46a716084f5e4301", "03df8b9e0e6611b5ba04cbc93f2e564ef8b0f4720c99aeff57ccfd963429fd1ed6"], "sequence": 4294967295, "scriptSig": {"hex": "160014d211ea548f5eea5d63cd6f927457e35ed5f780fa", "asm": "0014d211ea548f5eea5d63cd6f927457e35ed5f780fa"}, "vout": 5, "txid": "7970d48b819842c11bc1ac8468fcee613ec6373c3855e3d0d34b1aea39d2e7c5"}, {"txinwitness": ["3045022100af0d619ae8f5e95e75509ca28d12a822e84ead50ae0c632e46eea3bf1ab4a1df02203aa5362ef1e6e234ed6e8dcaa8a942be263ebd11a460cb4b2b297efce5e9a3bf01", "03c651cf4a109f55058d1113314cc0ed2f46f61374ef3e6018742a36a1222310c2"], "sequence": 4294967295, "scriptSig": {"hex": "16001492cf7c2aeb9f427da428f9d7dad152b3a4891f14", "asm": "001492cf7c2aeb9f427da428f9d7dad152b3a4891f14"}, "vout": 29, "txid": "fc200c22f205ae3587cd8a70e9c8e9561b5f18402bcaa8b9000def469f9b340c"}, {"txinwitness": ["304502210098ea64504fc685e4fe9f220120baec0f1cfefbd70ef81a83c6d9871da28f4cbf02200948fe4a614756e2feef6909af3aba81aa4120d2e5a8169cd4989e7b65f1b9bd01", "02409de8cbd635207a892c85f084f9c22b57bd1c1f805c5d39eca3e60267a90ecd"], "sequence": 4294967295, "scriptSig": {"hex": "160014ff77141e6189ab7ec5673d045d868976a57427b6", "asm": "0014ff77141e6189ab7ec5673d045d868976a57427b6"}, "vout": 3, "txid": "7970d48b819842c11bc1ac8468fcee613ec6373c3855e3d0d34b1aea39d2e7c5"}, {"txinwitness": ["304402204af17be9564d54b6b496dae8c19e334c46df79be9d92b2c739523f29a350c9bc02205feba80cbe69355418cbc14ca79471c4479dee202658886a49edc3c02f1dbb1101", "0397cec255fdaa97a17b6546b12b9a3d674b9135136c7ef657abecd82ffe9da881"], "sequence": 4294967295, "scriptSig": {"hex": "1600143637bf337e48b0d87e06e24e3fac324c4e96d92e", "asm": "00143637bf337e48b0d87e06e24e3fac324c4e96d92e"}, "vout": 12, "txid": "4a018d788b8a2c63db552a6c2591a4397589e44bd6bb5d428cfd688f8bb2c02c"}, {"txinwitness": ["3045022100c92b5fdf892d669e53609d4373ad0f668c204ea26aec4027b4f23dee220c481f022052aa02e1665c1fbc14fdfe2bcac4111e663ebcf9d599cd9566a473f88f61d6f601", "03988f58d8e86d40460b7eb646d27f83bc815e403f9804648afa52d20f99352264"], "sequence": 4294967295, "scriptSig": {"hex": "160014f085ea1b88684de9999b8f7bdb4db5be4788d5ec", "asm": "0014f085ea1b88684de9999b8f7bdb4db5be4788d5ec"}, "vout": 0, "txid": "56eadaccfd9560ee583d8617cb3ca025d2ebfdb96a850e0266b5161863f490a4"}, {"txinwitness": ["3045022100ea25799515a05e38e7457b25488b71af055675e5354d0da66242b067d997699802201430aa0f16b99a8effffe553e0517a300e6a08292846ce75aa97c25de96bf76301", "0353df2a727395c39ce7c9e142e0827d1599026e93fe3b654e7603f016caf2cf91"], "sequence": 4294967295, "scriptSig": {"hex": "160014cdef62094e6e8403c1c943fbf687270bad41e6cc", "asm": "0014cdef62094e6e8403c1c943fbf687270bad41e6cc"}, "vout": 14, "txid": "00e9bc7b5d92f6257bc3f2f73c4c64124153706102dfb5c26a4d8077c263007a"}, {"txinwitness": ["3045022100b07a6d7d8a35e09cd67bb9375487bd5ce5a6181aa130e54c61ef5be1133bf0c502202269166df600df3bda75815d8d3a7cd5bc0048b05dd32a328f9a7748b3e97bc601", "03730e2e6c5bf20ee707afca5c3eb1c51eaec4da5f51379c9e703014bd56949396"], "sequence": 4294967295, "scriptSig": {"hex": "16001435cfadc8bceb4ab8362d1955767631b1bfad3c5e", "asm": "001435cfadc8bceb4ab8362d1955767631b1bfad3c5e"}, "vout": 19, "txid": "9dcb623eb5f40df846d692f107f5c4eedb884debc298fc9f4b59585df739ac5f"}, {"txinwitness": ["304402200469c1ec039bcc53649a7ec53a18cfff6f140093055511cf0205ace634fb374d02204368aad46746e22d9aded2013bdea3da0f873f55c63065133a67f8444a1b287c01", "0364deb54ed19d79392ab6891083faa4c7a2494bd5ec4ebae12e87b157bdb96b2e"], "sequence": 4294967295, "scriptSig": {"hex": "160014ffc2ac780e6a5ca80f5d88abb211fae81bc67c6d", "asm": "0014ffc2ac780e6a5ca80f5d88abb211fae81bc67c6d"}, "vout": 0, "txid": "11e64ec3781a04db8164bc06e096e303b68c5e87e7c207a64568b67272126991"}, {"txinwitness": ["3045022100809060f2017e4294c23f62bf538e72392a300d9c781b11672986e5bb41c891e802201af242b1753a9c4a16c3cfe76ed19b8cbc6c4fae925ffc47c95904bdc6b532fa01", "03abcb7ed387fcc8794326a2eef0119cbffd9e3ff90c0882984f26b9f92dc2ff91"], "sequence": 4294967295, "scriptSig": {"hex": "160014c58596a40bb484f46a3d31a920c6baaec4411c09", "asm": "0014c58596a40bb484f46a3d31a920c6baaec4411c09"}, "vout": 5, "txid": "5cfbea5053da6d189b3c3c36c668d46df4b655a58d975f2f1d02bed28c94bb63"}, {"txinwitness": ["304502210097b38dadcdee17891b8137002a0db401a344651f266370ea0c94c61980455f15022079ac3b0e5c7f3eea29adbfcd5d462db90d73e3949a838e551778a16cf541101301", "029b42c7622eed6a83af59dcbf5877cfafa81ae6e5f540638f5b7b9854a2ec465b"], "sequence": 4294967295, "scriptSig": {"hex": "160014349fc45eecf5b83482f09b1b46002b4d5855c759", "asm": "0014349fc45eecf5b83482f09b1b46002b4d5855c759"}, "vout": 11, "txid": "bd6673b1d165fa77505f287169c96997892477ba761f44b329a67a5c081a062f"}, {"txinwitness": ["3045022100b6ade4b7c17e1eb952644255f3c40229b83ad671e111b48d8c49bc4af899d78002205868c7d6bc8b895db8d6de125dc93d59d96fc8e82a5e3d72d71daf73a7c5f6c701", "0295bf0be24251aa8ed6ed96396b59125f59d108cb4368cdc1cd194c7ba03fccca"], "sequence": 4294967295, "scriptSig": {"hex": "160014ea1970389284d0e2b3abb6eddd6d05caaf7df5dd", "asm": "0014ea1970389284d0e2b3abb6eddd6d05caaf7df5dd"}, "vout": 10, "txid": "f8762e306c3b7aca0babc1f326d291649418b39c15fd7a4112879c4e7caf11e2"}, {"txinwitness": ["3045022100d779271f79c1004d05dea164c8e29db1c883008d4d364055949fbb1508c481b30220195fa52dd60a03f4214966a48f714b5646565cd8cbc9a18e0f9a7b80a70f3db901", "03ecf67eb1279b73b11cf9728b17404b81f966d703795ec929f37e4db1975d66c1"], "sequence": 4294967295, "scriptSig": {"hex": "160014cc081cb1912b38829fc15ab167233726a57c5086", "asm": "0014cc081cb1912b38829fc15ab167233726a57c5086"}, "vout": 15, "txid": "956248974170324cf21ca8db273f0853327ece2855d491ab813020521d3906d8"}, {"txinwitness": ["3044022015fb9abc2e1420adbe95aa4207f744874b19271734399b204c6a7b878940986302204f82bff5381698f5cbeb7767800ce8d3d840a2344b9a503f5e8cdbaaad1d76c101", "03db2f394c60f2c51f0ffca100892e88d4378af320cb81d78ff99d39e0f1913cab"], "sequence": 4294967295, "scriptSig": {"hex": "16001427320a3d47c620612710f57cbd55fda1662c2024", "asm": "001427320a3d47c620612710f57cbd55fda1662c2024"}, "vout": 1, "txid": "a140c2655fecacd61c499928c73dbdadd6665dd206a98e8322c840f64c6bfa0b"}, {"txinwitness": ["3045022100d0bbf03138cfa0b4e9c7874cd5cf677d22e6c4a19e94d108f453dad60e8988ff022065c666d778ff9771a791a3692a93a5cca26d33bbc6100a4a549858cde5e34c7201", "03445bfa8c71063c0cefc51765c47f24f79806eeb85932569beaa2339ba219fb34"], "sequence": 4294967295, "scriptSig": {"hex": "160014bbca4d7a1f6237574fc5e1bbdfc16e6478a399f8", "asm": "0014bbca4d7a1f6237574fc5e1bbdfc16e6478a399f8"}, "vout": 4, "txid": "f73db797d1efd6f73928a30ced0214fc81c47fa8bd51a4dd029cb99ce4136747"}, {"txinwitness": ["3045022100b5dec9298a42aee0905b680107685e22efc9cd2bc77054e3034471eb2276833c02201dfae77df345284b17d960a942793ea791f5f9dcaf4007640ed94a0635c015b201", "03a8bdf3309c3dc36befe2fd9283b277ef2221cbe28018cd221c93bbc710718944"], "sequence": 4294967295, "scriptSig": {"hex": "1600142f3bb36e33e22eaf0cc55e0b3ae321a522e6337c", "asm": "00142f3bb36e33e22eaf0cc55e0b3ae321a522e6337c"}, "vout": 34, "txid": "f73db797d1efd6f73928a30ced0214fc81c47fa8bd51a4dd029cb99ce4136747"}, {"txinwitness": ["30450221008caad94fae3d674740bacf7393b8bcb14b3619782463b8d54745df7044e5f31802200c32e7233c9beb2823dcf23bb100f73a83082ab7c709d04de81305eb90c9f60a01", "0321d0bdf6cd499fa63b62e2463f1da8ac739e7b94c669b46ce93716ba25817f70"], "sequence": 4294967295, "scriptSig": {"hex": "16001492099dc52c2b79647042c1010ae83b72f150a275", "asm": "001492099dc52c2b79647042c1010ae83b72f150a275"}, "vout": 9, "txid": "f8762e306c3b7aca0babc1f326d291649418b39c15fd7a4112879c4e7caf11e2"}, {"txinwitness": ["304402200f3beb249388a905b0fe75344ee4c6cd0c2e2745e66f51297540e148e2626df402203399934fbe7b23d9c506a0f67b4152400e6c5dbfdef4fd7bd8ce5df73ae701dd01", "0272b74d86cc12844b5ff88162c93149c5dccd1bef4822744d2498895631bc6ba9"], "sequence": 4294967295, "scriptSig": {"hex": "160014726e528e9bcfe1a321390247f9ee206d0ad2141e", "asm": "0014726e528e9bcfe1a321390247f9ee206d0ad2141e"}, "vout": 6, "txid": "f8762e306c3b7aca0babc1f326d291649418b39c15fd7a4112879c4e7caf11e2"}, {"txinwitness": ["3045022100e60c7054e2f389469b66b96f48a9d9d65547a8f2712acbdfeaa07f7f1011babc02200460f09eecd09ade27326472d55fd53030b8190374e45800a3e80188a6a71a7401", "039046a2d524990ef4d2597e8dddfd236037f12c8e54bc5a7b83b543801549234b"], "sequence": 4294967295, "scriptSig": {"hex": "160014f8da75917d9f2ddd5965be283cd383738c42aba8", "asm": "0014f8da75917d9f2ddd5965be283cd383738c42aba8"}, "vout": 0, "txid": "af9dc36eb02fa64791d34d13d7e3c93a0955af0cb6a10430597829009efd7901"}, {"txinwitness": ["3045022100f67d2d285237a11c2e01aea5e08f1f0824c295e4ea0074b83d278b564f2e499302203e43b1f7736678edb792ff099fbb431963e6e9b69a6d47445f60c737418516f201", "035277898e3c842585760a4d27cbf8d96cd5fb0aca37af358d75d9a0cb1fde0bef"], "sequence": 4294967295, "scriptSig": {"hex": "1600146f73e988f027a369b284ad391180585056dc27ed", "asm": "00146f73e988f027a369b284ad391180585056dc27ed"}, "vout": 26, "txid": "fc200c22f205ae3587cd8a70e9c8e9561b5f18402bcaa8b9000def469f9b340c"}, {"txinwitness": ["3045022100f6e59f1d4f44429852470d69656ab648f0039ae1207d1c710cf8321d0d8364e4022034e7579657fc755eddf775dafaeacd7783f1e60e7b94a504c12efd972f5d375201", "0214099c40fb21dfe8029ace5a9a1bcb32b5086cf394db688c0866e556f8b36600"], "sequence": 4294967295, "scriptSig": {"hex": "160014b58cebb1ceb6b2a7aa74ecec2399af8005926300", "asm": "0014b58cebb1ceb6b2a7aa74ecec2399af8005926300"}, "vout": 10, "txid": "85f77b61f916c42160e4ec6c5489ebb56563ddf326316591e597a7952186ad0b"}, {"txinwitness": ["304402201dd9489767c7950a46e8adcee7f3935d1f72fb0bcfbedf9e43f2353f762b49e702206ca81f8a335b1647af931aadd4782d55430087a903d32519583fef175ac0148101", "03a93a43acba7abfee6fe96245dbd69f648e27379bcb4273d10d361fc5b36e9b9f"], "sequence": 4294967295, "scriptSig": {"hex": "160014f5aec5f92e3c85071f5dff18b1f9504e60930a22", "asm": "0014f5aec5f92e3c85071f5dff18b1f9504e60930a22"}, "vout": 2, "txid": "c55be034a4dccf415e85414154a4d45b6f59e05f0881a8364f91625e59e52c1e"}, {"txinwitness": ["304402201110a7b6163f61274f20ce56412eb54f35d45aaa919ce1e0fa159e2cf913929802204699d37ebeae23d52a53ed5d11fb200c8f9ca10bb7356b9d8c8a491cb274c30e01", "02d21d505094a2b77749454ce080cd13460aeeb3960495408b2f2cfcc4b6ae9114"], "sequence": 4294967295, "scriptSig": {"hex": "160014664a26b8e4ad7eaba41b9800547063ed5442b9bc", "asm": "0014664a26b8e4ad7eaba41b9800547063ed5442b9bc"}, "vout": 20, "txid": "41f632842622d19b52d80b33f5f9cf16921cd0e4d17f638e803647dcf6de4c88"}, {"txinwitness": ["304402202cb75d14b7582b989be9ee00e9c06ca3cdeac9b08d342087a5c621142ed300e3022037930923af3e9922cd21e507f4da59c4289c054dde2a716ffb3b52b51d2b6c0101", "023b503e3ba0665085a3fdb6a45e2123bf156d848530cedaac9354a85b38e3f9b0"], "sequence": 4294967295, "scriptSig": {"hex": "160014ddadb0905e153b14640c7b27158bbe1b417e3c7f", "asm": "0014ddadb0905e153b14640c7b27158bbe1b417e3c7f"}, "vout": 16, "txid": "a17dc624e73bcd559f02ffb3ccf7ddcb05ae2c8b94748c0ed7900d5044f5d079"}, {"txinwitness": ["3044022025b7345a87fc6d0baea5c58e924a878735299605af0413adb1e5c6e3deccfd4702205413f17f9cb27e9bba866e619101eede3c64ae2536eccfd046fc0d7eaf820ebf01", "0378aadcc15db14d516be78fda4ad1f83f25e8b2dbf01d899831e9bdeaf17f3075"], "sequence": 4294967295, "scriptSig": {"hex": "160014e053b97d9ed9ad7f5e0fcca4113580813a029dc8", "asm": "0014e053b97d9ed9ad7f5e0fcca4113580813a029dc8"}, "vout": 20, "txid": "7e549b3d3908cdb213943448376752816ab0ab23add26758215b05474b26a986"}, {"txinwitness": ["304402205d687ddae78f9b741afde7929e2a843e1866614f8ce0e4d697a1e386d4ae627402201c1de049f8362f0d70ea25013fc3ece1b288ad9c5a05a34053dec095f3c3687501", "028ca772462352b491113cf5fba39f830cbdc3ee5c0b94c98361f415483d29a202"], "sequence": 4294967295, "scriptSig": {"hex": "160014090220074fcde84cf816197ad28bf4fac659d4ab", "asm": "0014090220074fcde84cf816197ad28bf4fac659d4ab"}, "vout": 0, "txid": "980a086781f81ddda027e3936027ad0432d36cf679faef4d373f8cc65b386953"}, {"txinwitness": ["3045022100e5e64e3d0536f494d3b895b77a19222db5d84037f34104674cac1fc102d3e3ce02207876ebf05331662f66c417bbf9f3cb2b54d630255018d7269c1ba1764b7181a901", "03b5e334499193388f5ee56cea05ab38e5dbaf95aa3e9543d785bf66a5c7d72986"], "sequence": 4294967295, "scriptSig": {"hex": "160014631387e7b280ea88238d506bdc5a2acd19923081", "asm": "0014631387e7b280ea88238d506bdc5a2acd19923081"}, "vout": 19, "txid": "4d0ff1a4020f501667e8ed1c7306388fb0bd04b53d7598765f8b2f0d183f551d"}, {"txinwitness": ["3044022030f14aae6df0175b9b1743df35495097edb39f4c355367411ed38b933ad33d150220358a2a83df6f52b9ef2995213e6b5ac2bd85d924bd93a83e3e5e4e6f7567a0ca01", "0299f626a29fc3fb02d2acfdf71574f6482bafe5a2fd518451fe641af6d0aa83d4"], "sequence": 4294967295, "scriptSig": {"hex": "160014c37a42345972c55a1335302269f8f8348c6965fd", "asm": "0014c37a42345972c55a1335302269f8f8348c6965fd"}, "vout": 12, "txid": "7e549b3d3908cdb213943448376752816ab0ab23add26758215b05474b26a986"}, {"txinwitness": ["3044022028a6613edab82550c7e9ee42078eca5d07a6a44d9b40c6d7ceef08a0b331591f0220324072bae2bd6487bbf8030b2627dd34baa636652952cb81ea7d81ebb4272f3701", "029b42c7622eed6a83af59dcbf5877cfafa81ae6e5f540638f5b7b9854a2ec465b"], "sequence": 4294967295, "scriptSig": {"hex": "160014349fc45eecf5b83482f09b1b46002b4d5855c759", "asm": "0014349fc45eecf5b83482f09b1b46002b4d5855c759"}, "vout": 14, "txid": "9a42d0755e0ff6720217047ab798a2b20fbe5b3cc92fcbb8afd0b048987527b6"}, {"txinwitness": ["30440220567a60af6dc39cf2fd9b376fa21091faf0d8c63ff8e9f09206ac80fd4bfe94750220240b445add46bc9ee0e1d4f1ff8dfa79ae72db0c2aad7d1c3e435fc252ef1f2901", "02dde43c0310145addb061a51a6e545deadcc3d8b69a32bcbc7d1e2dd915a479ca"], "sequence": 4294967295, "scriptSig": {"hex": "1600145e90b8ed5fd2acbd7e2d37b9994f1c521808b94b", "asm": "00145e90b8ed5fd2acbd7e2d37b9994f1c521808b94b"}, "vout": 17, "txid": "08bc98e7f3f6d1a54c62b8a45e350e3f2b9b9c41baf5932dbed0542be1e8c78e"}, {"txinwitness": ["304402203d10698267bb01c31337cfb7db54774ebdaceb5ac3c4d8a70afb6b3fdd5cfd04022034e65b66d148494fb677302e7909f3cb4c96ac96e3bc52191f09d290d0f4056501", "03456029e79ed0f083a85d1ba0eb17aae90218fc82c72a3491e2c431d6c70e54dc"], "sequence": 4294967295, "scriptSig": {"hex": "160014a07d098453109b8424c0e18fbc99ae470cea55a4", "asm": "0014a07d098453109b8424c0e18fbc99ae470cea55a4"}, "vout": 25, "txid": "2f1ac2cfb67a3acf2fa59c92305b8ee6f32e089c672477ea26dc58e206439d80"}, {"txinwitness": ["3045022100ff79dba72c8dc448d818a0d53acb4c5b5dd1bf2b7d7438b002fe027f745bb3a0022037548ed45d269d78189a7a416282cdbd5613ca878a8f13676f9e961142cc005401", "0299728b815964d8476a005644ddf76898c61ef320e85de06b6f2fb9c86c62555e"], "sequence": 4294967295, "scriptSig": {"hex": "160014eb498dcbb4be5a0069ed35d98cba53531569dec9", "asm": "0014eb498dcbb4be5a0069ed35d98cba53531569dec9"}, "vout": 2, "txid": "f8762e306c3b7aca0babc1f326d291649418b39c15fd7a4112879c4e7caf11e2"}, {"txinwitness": ["304402204a8687dfb8aea9d535d78239f574dcf8fb3c1334a49b2a3405fe02124007b4a002206534d907c7feac72d7d7679469afcd934ec9d659020ed13ea92d3958ed5a244801", "0372dffb685900f3975b351aa899511187a65aaf98a6a13303d6ce0164b59a0be9"], "sequence": 4294967295, "scriptSig": {"hex": "1600140908c4ee7d2c43ba42a6756e0f1e09eb01de7c7d", "asm": "00140908c4ee7d2c43ba42a6756e0f1e09eb01de7c7d"}, "vout": 21, "txid": "7970d48b819842c11bc1ac8468fcee613ec6373c3855e3d0d34b1aea39d2e7c5"}, {"txinwitness": ["3044022051bb3da919755d11ab37057e95918a89def26d99e10d926af996ea9b8d8c9a37022024b449190a0cfc524769ea397510cab208a869783de06256d3d3daa0225ac95e01", "036a03a0dddd6f38affa17b4dd3ed308608522edbb38f455f7c2dde8c638ede7fa"], "sequence": 4294967295, "scriptSig": {"hex": "1600141b7e440698ce64aa85f39cd8eb0fa503ff670404", "asm": "00141b7e440698ce64aa85f39cd8eb0fa503ff670404"}, "vout": 2, "txid": "7e549b3d3908cdb213943448376752816ab0ab23add26758215b05474b26a986"}, {"txinwitness": ["3045022100a6951eab6afd28025fd2f0de79f62ecedeef39f8b7c60ae4e5408fd5169e976f0220529b5793ead204f68764e474631ebf5c1b99033fa330e13e1e48cf55c8483f9f01", "024b13a1abf721d2484e890c4b461b083bfea54d7b6eeac6a63b7be9354bc9979b"], "sequence": 4294967295, "scriptSig": {"hex": "160014b84ae36bf32ae300aebfca0d2d3b2e6a6a3a4b5e", "asm": "0014b84ae36bf32ae300aebfca0d2d3b2e6a6a3a4b5e"}, "vout": 0, "txid": "67e4340d1ef3aeadd7bd0b93dbadb0ffe493ec85fae056febc9a48449bd89245"}, {"txinwitness": ["3045022100e88d996ef09dfa738e5866f1710b0d744ff38c3ea3da707e562b490de8863e0e02204a48ba08c268c9facfaf11ffb06c032468b2c6934ec2282df4ae648f5ed1252c01", "023b8a075d4e945188f13648bed71988d40e727a10f059243938377226524fdf05"], "sequence": 4294967295, "scriptSig": {"hex": "16001426a58c7af0c3d175965cbdeb37d51519ab48081a", "asm": "001426a58c7af0c3d175965cbdeb37d51519ab48081a"}, "vout": 0, "txid": "313c292318ebc62b317d82e4ac87ae85c922c7f34aedc2088ec22cfea35be042"}, {"txinwitness": ["3045022100bd886f3fcff7d8d4c41b22f20a6f802c0172af0db2e9a6b3c24885a4d2650c63022051af1a0f3f70484157a5e516aa206ab414546ea0f33c9f074ec45e09dfad8af601", "03e8ac0a2536c33688dfe7425b41d6a282bad875448b886c7e433985ebdca26381"], "sequence": 4294967295, "scriptSig": {"hex": "160014cb9fbbb64a8c0c10b32761a3eea70a65bb47b2e6", "asm": "0014cb9fbbb64a8c0c10b32761a3eea70a65bb47b2e6"}, "vout": 10, "txid": "7cd90a11a35bf029bfc08fcc0fae1fac0ea2d5bda40c48ff000675c9a4a49342"}, {"txinwitness": ["3044022077bd242aa0bd9b32e220b8300d9309e2d4c8c32ffc5116b1d477f91bb69ff5390220773ce315e98420f07955c52a99aa60be68ff3bab3d666d17f1b36c0cd7f8e52301", "03914f889e786a87a698e0413db2cc6158e4d1aa421a4076b06d48ac433793c834"], "sequence": 4294967295, "scriptSig": {"hex": "160014bc3c748a6b9b9e0e1468fd23ae0f6eeaa71daaa1", "asm": "0014bc3c748a6b9b9e0e1468fd23ae0f6eeaa71daaa1"}, "vout": 10, "txid": "9a42d0755e0ff6720217047ab798a2b20fbe5b3cc92fcbb8afd0b048987527b6"}, {"txinwitness": ["30440220125eecdf22242c10364835bb1b3757f63f23c70b0b545e3756a2cd08759fab7502205e7c5467dc780fbb5beae204319e2e1dd1e1d4ab512d29263abc1d894276bd2401", "03b84f987945dd5f20d01240c20d03906403eef7b9b0dc76442d1d535fa88c6620"], "sequence": 4294967295, "scriptSig": {"hex": "160014bb02d11136058f31b456d549ad7fedbaa40dc8df", "asm": "0014bb02d11136058f31b456d549ad7fedbaa40dc8df"}, "vout": 0, "txid": "130d7fe418cb8021148dce7015f035dbf9c41813ef3f17cc2e11f0ed779849c3"}, {"txinwitness": ["3044022008ff8bf81a2d6d0636f73b00fc514a8074a4e29a388b5bdbf2092b5e3b97ebb902206270de5c73e3c101356322a8b2fa0ef550488113c09032b32dd0bb81245b054401", "0310120fe3c75e83f6b7a58e59c67aa6dfae7a271858479d5f97ec9f4e97a7b2ff"], "sequence": 4294967295, "scriptSig": {"hex": "16001419c936701618c76462ff59e0ca7ca801c5992f03", "asm": "001419c936701618c76462ff59e0ca7ca801c5992f03"}, "vout": 22, "txid": "7e549b3d3908cdb213943448376752816ab0ab23add26758215b05474b26a986"}, {"txinwitness": ["304402203f7bbf571a72b803ee62886390a171e4d5aebe246faa02e48e139a1c589b1eee02202672214cb6f164f3414c57c78061b97c7f62c3c146e482705151c684950c835401", "02fbd2170e529729a9d84e73c034c4352b238ae385289806658c40ae774fcce9fb"], "sequence": 4294967295, "scriptSig": {"hex": "160014ac59b483424812e85942783e50c972087328dbd6", "asm": "0014ac59b483424812e85942783e50c972087328dbd6"}, "vout": 29, "txid": "1ad29830cc9268022c93814286eb6bccef8f4112dbfba19e28010826d09886fd"}, {"txinwitness": ["304402206313a269e3ef6e406b9ab854b315fea136853859b94c0f2550f5598cf62a570a022052213d50d664f6557549c27b148d0a3905735dd4a7fcd42a5d406463d90fe68801", "02ac801e816d2e751b16606f7dc7ee44aafd9830c51c6d86f9970cae7e95cf9010"], "sequence": 4294967295, "scriptSig": {"hex": "1600147e89099233f480e8c4604c23966e258403b49c38", "asm": "00147e89099233f480e8c4604c23966e258403b49c38"}, "vout": 9, "txid": "9a42d0755e0ff6720217047ab798a2b20fbe5b3cc92fcbb8afd0b048987527b6"}, {"txinwitness": ["3045022100fc659c164ab336d47d868e684defc7c191b7e4ca4a02071e488a2521e331e95f02203ecbaec80e4d40a1b885c1f3084579edf6239e593223087879b96ca40eb463ad01", "02dd7997207f7786e22d6aaa99a22a5f82db55cddaf2c51e92e7418f310a0c64a6"], "sequence": 4294967295, "scriptSig": {"hex": "1600140e0334d07e9c4a388f1c0e4a8391cdcfeb5e2af7", "asm": "00140e0334d07e9c4a388f1c0e4a8391cdcfeb5e2af7"}, "vout": 7, "txid": "f8762e306c3b7aca0babc1f326d291649418b39c15fd7a4112879c4e7caf11e2"}, {"txinwitness": ["3045022100a91cd1ec314f40139e6ee79a1877f3b894bc0b3b2a6f793e1954100aadeaddab022079ff4a372b5ac4bfcd894f4246c4c8421b7afdafd492ec7eb1dc7e945c8cb24201", "03280485816bf6dd95f01ec57973c8c23f34c87fe4251ce380ae3b8be978409072"], "sequence": 4294967295, "scriptSig": {"hex": "1600142ce0f41f2b90d91e3bb180c18e337b6eb327aa38", "asm": "00142ce0f41f2b90d91e3bb180c18e337b6eb327aa38"}, "vout": 4, "txid": "a140c2655fecacd61c499928c73dbdadd6665dd206a98e8322c840f64c6bfa0b"}], "txid": "ae811552a23c5f5547fa15cb0e047962c0cf9fe7d8a141bf40d4d62f4825d053", "blocktime": 1537871175, "version": 2, "confirmations": 11511, "time": 1537871175, "locktime": 0, "vsize": 4236, "size": 7785}