{"hash": "ae86a9ae7e09380d9ff2caca3b17796aef1acb69707ae7fe1bcaea5a333e380d", "blockhash": "0000000000000000000e13cef7c366c0283d82e591d1acd082e914b08063cdf1", "vout": [{"scriptPubKey": {"reqSigs": 1, "hex": "a914bc5ae9ec4eed80a7f4f19ed093e499dabcd0762387", "addresses": ["3JrwsQYj6d6qXVFT4u9GxaqmKL3a4frNpn"], "asm": "OP_HASH160 bc5ae9ec4eed80a7f4f19ed093e499dabcd07623 OP_EQUAL", "type": "scripthash"}, "value": 0.00250001, "n": 0}, {"scriptPubKey": {"reqSigs": 1, "hex": "76a914bba29bac83dcf350f59047ceaf8c5a894976842088ac", "addresses": ["1J78A5iF2hXqWjUmQ7GbwqTtHoDVHJELxk"], "asm": "OP_DUP OP_HASH160 bba29bac83dcf350f59047ceaf8c5a8949768420 OP_EQUALVERIFY OP_CHECKSIG", "type": "pubkeyhash"}, "value": 0.00447164, "n": 1}], "hex": "0100000001da37f39a0166e502d1e4a3b0c70a23dcf6bbab31d1b2747a2cdbd512581db4ff040000006a4730440220713a8e1ed570ece8a4eef7a5aab8fdd2afe804d251d1aa565e30eec7288025a902207112594a4e0ee6202ec437698d012a514541b6942205ca4dbd8992e5c46ae0e0012102703a2b359bd85443195d5e6771ef0f30094aec5feee8aca29ccabb776865591bffffffff0291d003000000000017a914bc5ae9ec4eed80a7f4f19ed093e499dabcd0762387bcd20600000000001976a914bba29bac83dcf350f59047ceaf8c5a894976842088ac00000000", "vin": [{"sequence": 4294967295, "scriptSig": {"hex": "4730440220713a8e1ed570ece8a4eef7a5aab8fdd2afe804d251d1aa565e30eec7288025a902207112594a4e0ee6202ec437698d012a514541b6942205ca4dbd8992e5c46ae0e0012102703a2b359bd85443195d5e6771ef0f30094aec5feee8aca29ccabb776865591b", "asm": "30440220713a8e1ed570ece8a4eef7a5aab8fdd2afe804d251d1aa565e30eec7288025a902207112594a4e0ee6202ec437698d012a514541b6942205ca4dbd8992e5c46ae0e0[ALL] 02703a2b359bd85443195d5e6771ef0f30094aec5feee8aca29ccabb776865591b"}, "vout": 4, "txid": "ffb41d5812d5db2c7a74b2d131abbbf6dc230ac7b0a3e4d102e566019af337da"}], "txid": "ae86a9ae7e09380d9ff2caca3b17796aef1acb69707ae7fe1bcaea5a333e380d", "blocktime": 1537871767, "version": 1, "confirmations": 11490, "time": 1537871767, "locktime": 0, "vsize": 223, "size": 223}