{"hash": "581e62d59bb736ebb38f46375cb8011c3d91cb41c8e5d1c78764a9e34c97bd6c", "blockhash": "00000000000000000024a2167bbff67b0be802c0b01cdd79e6331c2be6459f87", "vout": [{"scriptPubKey": {"reqSigs": 1, "hex": "76a914658bc2e4001cfacc64a3e041943e921b3086737588ac", "addresses": ["1AFvgAG4FN8fhtp3ZtSF8hsmKvPTDiB4RV"], "asm": "OP_DUP OP_HASH160 658bc2e4001cfacc64a3e041943e921b30867375 OP_EQUALVERIFY OP_CHECKSIG", "type": "pubkeyhash"}, "value": 3.412e-05, "n": 0}, {"scriptPubKey": {"reqSigs": 1, "hex": "a9148ddb66c3371910a0ef8f38021cc4094e61e69f3a87", "addresses": ["3Ed62sPENkraPwpovPty9YMFGJ8FtTyv63"], "asm": "OP_HASH160 8ddb66c3371910a0ef8f38021cc4094e61e69f3a OP_EQUAL", "type": "scripthash"}, "value": 0.00032833, "n": 1}], "hex": "010000000001016b1b9f971f0920dbc34ccf41586c9483040bd94177e82889d59764f517c07a8e0100000023220020fdd23d707f55451c4e006c77b5e8df35a185a8e99f9bda70bf0ded7913bb1eb3ffffffff02540d0000000000001976a914658bc2e4001cfacc64a3e041943e921b3086737588ac418000000000000017a9148ddb66c3371910a0ef8f38021cc4094e61e69f3a870400483045022100a8bc5b6e8bd6ed0927ddde3848defe94af3238386b84167f713d62c11c67b031022075c332dcf90804425ee98e3035a084852e09fdbd84417a2fe2dbfa0aeff0177c01483045022100954ee6672519013d917b1632e4524cb484816a3b4e571d3a2db8be837c64d10d0220080d625a42d602c1b16958e114e3f6d3c3da0b55ff06509fd73590d38bb9a7b3014752210286c104577b978160849865bc23f9a6df9b53d41c8ffb486754b97b2a474a181c2103148c80a5bdfddb05ff5bcffc397c8ca748d8b435ec6a175bc9d7bfc7fc6f853752ae00000000", "vin": [{"txinwitness": ["", "3045022100a8bc5b6e8bd6ed0927ddde3848defe94af3238386b84167f713d62c11c67b031022075c332dcf90804425ee98e3035a084852e09fdbd84417a2fe2dbfa0aeff0177c01", "3045022100954ee6672519013d917b1632e4524cb484816a3b4e571d3a2db8be837c64d10d0220080d625a42d602c1b16958e114e3f6d3c3da0b55ff06509fd73590d38bb9a7b301", "52210286c104577b978160849865bc23f9a6df9b53d41c8ffb486754b97b2a474a181c2103148c80a5bdfddb05ff5bcffc397c8ca748d8b435ec6a175bc9d7bfc7fc6f853752ae"], "sequence": 4294967295, "scriptSig": {"hex": "220020fdd23d707f55451c4e006c77b5e8df35a185a8e99f9bda70bf0ded7913bb1eb3", "asm": "0020fdd23d707f55451c4e006c77b5e8df35a185a8e99f9bda70bf0ded7913bb1eb3"}, "vout": 1, "txid": "8e7ac017f56497d58928e87741d90b0483946c5841cf4cc3db20091f979f1b6b"}], "txid": "ae92236345bbb90ed0573b5ef6095c7bbd64aaa417f85f7afc85b72af76cc6d6", "blocktime": 1537870564, "version": 1, "confirmations": 11515, "time": 1537870564, "locktime": 0, "vsize": 208, "size": 374}