{"hash": "de43d806b21dea5ea4c7938ad935570fedcc972a9685d7a6446156769638d35c", "blockhash": "00000000000000000017f5eb5941039fbcee6240d03bc1f2f8e35350df66a1d8", "vout": [{"scriptPubKey": {"reqSigs": 1, "hex": "76a914809ef0f0b0e6469eeb1749992cafa98ef11ad43488ac", "addresses": ["1Cj5tysek52iD1sKC69tcoA8bp6o3HBTY2"], "asm": "OP_DUP OP_HASH160 809ef0f0b0e6469eeb1749992cafa98ef11ad434 OP_EQUALVERIFY OP_CHECKSIG", "type": "pubkeyhash"}, "value": 0.0051316, "n": 0}, {"scriptPubKey": {"reqSigs": 1, "hex": "a914787457ec253a052042ccb5375fb76da9cfe2206c87", "addresses": ["3CfvPFKvZ2TGRNqoBj5pceoVs9MDar7s7G"], "asm": "OP_HASH160 787457ec253a052042ccb5375fb76da9cfe2206c OP_EQUAL", "type": "scripthash"}, "value": 0.00999623, "n": 1}], "hex": "0200000000010266300b9061168f391c0b75b11357881943aa3543eaa3e8649b10be9106413f680c00000017160014517bbceadcaea9b4d67b8bcc7a218c7edd5ed8a1fefffffff235f72c03dfc852bbe8d2f2fe04eb6fc38c54e015c154a813abfcdcefcba1f30100000017160014e68d672fe79c8d93d48b3d75a08ac53ba633c83bfeffffff0288d40700000000001976a914809ef0f0b0e6469eeb1749992cafa98ef11ad43488acc7400f000000000017a914787457ec253a052042ccb5375fb76da9cfe2206c8702483045022100f5e539c4f31af38c4933eb8661414cb738c4fe7ffe16884120c4ff1ba5e308f202200a54c44c0b09139845c7f8a73861adff03e876ed6ac5a4e13a9a37bbd71e2e24012102bb1c0a2939d7a132a3645c1214cbb55cc0f4c1322512836ed1ab829737b13a2e024830450221008ea3c77a033f7b5240fb4a88bc23d3c273e36cfd855bc1bd6d13c13e95d36c3d02205adbd993bd7296e09474561a84714614b01b62b7aaf3f978cdd6e153dc4f4c17012103363ec3aee986c347eb34ac4de0a149fc350d05dca5c8f2f0194559f257cc2ee815490800", "vin": [{"txinwitness": ["3045022100f5e539c4f31af38c4933eb8661414cb738c4fe7ffe16884120c4ff1ba5e308f202200a54c44c0b09139845c7f8a73861adff03e876ed6ac5a4e13a9a37bbd71e2e2401", "02bb1c0a2939d7a132a3645c1214cbb55cc0f4c1322512836ed1ab829737b13a2e"], "sequence": 4294967294, "scriptSig": {"hex": "160014517bbceadcaea9b4d67b8bcc7a218c7edd5ed8a1", "asm": "0014517bbceadcaea9b4d67b8bcc7a218c7edd5ed8a1"}, "vout": 12, "txid": "683f410691be109b64e8a3ea4335aa4319885713b1750b1c398f1661900b3066"}, {"txinwitness": ["30450221008ea3c77a033f7b5240fb4a88bc23d3c273e36cfd855bc1bd6d13c13e95d36c3d02205adbd993bd7296e09474561a84714614b01b62b7aaf3f978cdd6e153dc4f4c1701", "03363ec3aee986c347eb34ac4de0a149fc350d05dca5c8f2f0194559f257cc2ee8"], "sequence": 4294967294, "scriptSig": {"hex": "160014e68d672fe79c8d93d48b3d75a08ac53ba633c83b", "asm": "0014e68d672fe79c8d93d48b3d75a08ac53ba633c83b"}, "vout": 1, "txid": "f3a1cbefdcfcab13a854c115e0548cc36feb04fef2d2e8bb52c8df032cf735f2"}], "txid": "ae946b9880f3fa1eb8a019a22a244bd1ba2c9d6db71f754a46b0bf0e6ecdfb58", "blocktime": 1537874412, "version": 2, "confirmations": 11468, "time": 1537874412, "locktime": 542997, "vsize": 259, "size": 422}