{"hash": "e679fadd70a8d2729624531fcc31a9251b1096e3f1da2b0afa5ce00852a72ce2", "blockhash": "0000000000000000001cda96e906b7601b7a6fb1a3b62bca570a9e5d8f4b3de1", "vout": [{"scriptPubKey": {"reqSigs": 1, "hex": "a9146aafaf5743817b3833702b43fa3ea4045467dad787", "addresses": ["3BR81gR5KG5gT3WMZtyVm7jJhonrwgrufW"], "asm": "OP_HASH160 6aafaf5743817b3833702b43fa3ea4045467dad7 OP_EQUAL", "type": "scripthash"}, "value": 0.01315375, "n": 0}], "hex": "010000000001013c8a9ae73833c58efd3b023f62556ebe0140a4c30d88ff924bdd43caffd5d816010000001716001473434b29513906bd23d7d3b6b0dde040d402b3cfffffffff012f1214000000000017a9146aafaf5743817b3833702b43fa3ea4045467dad78702473044022077a3405fad6da2f57c3c5f6c6aa5a6d81e08c12cd5da1ae93e77fa7ba9cd98000220453e6f586f15a58d5f5f44887607a422bf35a5cd718ae6df9a6426aca8cb8f53012102cdff90d3da5712f0158d56725910aebcf696b5dfb9700688a34fd0033795b7c700000000", "vin": [{"txinwitness": ["3044022077a3405fad6da2f57c3c5f6c6aa5a6d81e08c12cd5da1ae93e77fa7ba9cd98000220453e6f586f15a58d5f5f44887607a422bf35a5cd718ae6df9a6426aca8cb8f5301", "02cdff90d3da5712f0158d56725910aebcf696b5dfb9700688a34fd0033795b7c7"], "sequence": 4294967295, "scriptSig": {"hex": "16001473434b29513906bd23d7d3b6b0dde040d402b3cf", "asm": "001473434b29513906bd23d7d3b6b0dde040d402b3cf"}, "vout": 1, "txid": "16d8d5ffca43dd4b92ff880dc3a44001be6e55623f023bfd8ec53338e79a8a3c"}], "txid": "ae9585bae72b720281abdae81438d374c9d96e17582e34f1006c2033867eea62", "blocktime": 1537873282, "version": 1, "confirmations": 11484, "time": 1537873282, "locktime": 0, "vsize": 134, "size": 215}