{"hash": "532dd55341f4bea908fadad6135d019cbb4060eb9e14cae9eb17d90d3958fe19", "blockhash": "0000000000000000001f76057863aec43deb6fa401d9628bb513d65a8098bfab", "vout": [{"scriptPubKey": {"reqSigs": 1, "hex": "a914efa280acc331667cce1951b504a4cfe51ce330fd87", "addresses": ["3PY66GkMivokcH6sGRHdsaDvKCcDFh8dVW"], "asm": "OP_HASH160 efa280acc331667cce1951b504a4cfe51ce330fd OP_EQUAL", "type": "scripthash"}, "value": 0.01005376, "n": 0}, {"scriptPubKey": {"reqSigs": 1, "hex": "a91473f21c88cc72c0ee608375c7bcfa61ad63016e6d87", "addresses": ["3CG5foZU4PGL5WYdt82ym9Uyd8dhsfB7oK"], "asm": "OP_HASH160 73f21c88cc72c0ee608375c7bcfa61ad63016e6d OP_EQUAL", "type": "scripthash"}, "value": 0.01210002, "n": 1}], "hex": "0200000000010276aed9158037d7ed44ab86b184d2cbbd87bec4dbea8fd7a6817ef00372371d1601000000171600143fe11feb70a94bd760799be656991051202d9c30fdffffffb805d7302d5aac43c8eeb5a457b23231cc022ef166978fd51d627e1245cbd0e601000000171600147d946d6e85f55d83b4e38131467c4eebe8fdd03ffdffffff0240570f000000000017a914efa280acc331667cce1951b504a4cfe51ce330fd87927612000000000017a91473f21c88cc72c0ee608375c7bcfa61ad63016e6d8702473044022079b3745d8c9652e7b307cacd797aeb5bb8505de8ce39768656d8aa806cb77265022063312e83d0af1f5f43ef804c0b5d10ab7558adf712a3aee452262adfb281d12c012102a7415c5b0a3b326b1670e3cb4fb7bb73b9ed1245d1ddbed85014486a51e3a29c0247304402200e257744b0ccc2ec84b783ad81f932e834a1fdef2c7803b3ce1077e9f20ec7d5022043d98f4c16361a1097c0cbc33ae299ea806645c2f4c12e1ab9101ac169179e800121034938e484805a14360ca971489897996d0146d492f89832165b525de3208a398f14490800", "vin": [{"txinwitness": ["3044022079b3745d8c9652e7b307cacd797aeb5bb8505de8ce39768656d8aa806cb77265022063312e83d0af1f5f43ef804c0b5d10ab7558adf712a3aee452262adfb281d12c01", "02a7415c5b0a3b326b1670e3cb4fb7bb73b9ed1245d1ddbed85014486a51e3a29c"], "sequence": 4294967293, "scriptSig": {"hex": "1600143fe11feb70a94bd760799be656991051202d9c30", "asm": "00143fe11feb70a94bd760799be656991051202d9c30"}, "vout": 1, "txid": "161d377203f07e81a6d78feadbc4be87bdcbd284b186ab44edd7378015d9ae76"}, {"txinwitness": ["304402200e257744b0ccc2ec84b783ad81f932e834a1fdef2c7803b3ce1077e9f20ec7d5022043d98f4c16361a1097c0cbc33ae299ea806645c2f4c12e1ab9101ac169179e8001", "034938e484805a14360ca971489897996d0146d492f89832165b525de3208a398f"], "sequence": 4294967293, "scriptSig": {"hex": "1600147d946d6e85f55d83b4e38131467c4eebe8fdd03f", "asm": "00147d946d6e85f55d83b4e38131467c4eebe8fdd03f"}, "vout": 1, "txid": "e6d0cb45127e621dd58f9766f12e02cc3132b257a4b5eec843ac5a2d30d705b8"}], "txid": "ae98325eede3026677d5d8a8e48e9c7e6289aae22f2d9712333ccc1a911e7e86", "blocktime": 1537873891, "version": 2, "confirmations": 11479, "time": 1537873891, "locktime": 542996, "vsize": 256, "size": 418}