{"hash": "9a18d3d507e4dd8dab8950c2f25895bd8ae909a6c7551a591d3e4422a72be57b", "blockhash": "0000000000000000001e0dab787dd257d1dbfcb92a98c2207d5e1078be1f4165", "vout": [{"scriptPubKey": {"reqSigs": 1, "hex": "a91498d67de3523ef339cab079911933670f83020c9487", "addresses": ["3Fd9arFkkRv4ZMaFkgknfGkomoNs5hEGq4"], "asm": "OP_HASH160 98d67de3523ef339cab079911933670f83020c94 OP_EQUAL", "type": "scripthash"}, "value": 0.01003042, "n": 0}, {"scriptPubKey": {"reqSigs": 1, "hex": "a91496e14a955a98be5c80b17c9750e103d5f98c275487", "addresses": ["3FSoAqPget1fvSg1mzznkAYBbK2qPSomr3"], "asm": "OP_HASH160 96e14a955a98be5c80b17c9750e103d5f98c2754 OP_EQUAL", "type": "scripthash"}, "value": 0.018, "n": 1}], "hex": "020000000001014328d55267d44028564541e7ca4aab202dce0ff978a9d8f1933a599e7a7e8a02000000001716001433ddeb11cb85b7d0a26981a8cde799d253f5d118feffffff02224e0f000000000017a91498d67de3523ef339cab079911933670f83020c948740771b000000000017a91496e14a955a98be5c80b17c9750e103d5f98c275487024830450221009ab4f69ea9713c1659e3c5b99ed23cdc1e5ea6a3483e0b6fe6806381814e53f4022075b8c7a362fe9be8e727f660391fd0e6aad6805ef4df9472a2c2adca63de0c5d012103e76e3f782f50f0504d4b85fcfe6d8231f549af0ee291309c80821f8f46b11dbd12490800", "vin": [{"txinwitness": ["30450221009ab4f69ea9713c1659e3c5b99ed23cdc1e5ea6a3483e0b6fe6806381814e53f4022075b8c7a362fe9be8e727f660391fd0e6aad6805ef4df9472a2c2adca63de0c5d01", "03e76e3f782f50f0504d4b85fcfe6d8231f549af0ee291309c80821f8f46b11dbd"], "sequence": 4294967294, "scriptSig": {"hex": "16001433ddeb11cb85b7d0a26981a8cde799d253f5d118", "asm": "001433ddeb11cb85b7d0a26981a8cde799d253f5d118"}, "vout": 0, "txid": "028a7e7a9e593a93f1d8a978f90fce2d20ab4acae74145562840d46752d52843"}], "txid": "ae9a36ea371db5820e2456044248a6c257801c7276764728636c1e408df4cda9", "blocktime": 1537872475, "version": 2, "confirmations": 11486, "time": 1537872475, "locktime": 542994, "vsize": 166, "size": 248}