{"hash": "465823112a596fad79f0c4b13580cd74cbfcda144fbb019dfdd79601b5cb15dc", "blockhash": "0000000000000000000baef3f32e3676a92c3b2e5da21b426e4f302fc371ce76", "vout": [{"scriptPubKey": {"reqSigs": 1, "hex": "a914a2087625b21a63934e10c9739de723b0d907bf6387", "addresses": ["3GTmXY51NoydBfEVASTCDTsrdEe5QboJcf"], "asm": "OP_HASH160 a2087625b21a63934e10c9739de723b0d907bf63 OP_EQUAL", "type": "scripthash"}, "value": 0.0071168, "n": 0}, {"scriptPubKey": {"reqSigs": 1, "hex": "a9145a4b618b3648f1af63ac31c493cad2abefa662ee87", "addresses": ["39vT3NfRj9Ew3N1N65K5yuTLhs372V4Kqd"], "asm": "OP_HASH160 5a4b618b3648f1af63ac31c493cad2abefa662ee OP_EQUAL", "type": "scripthash"}, "value": 0.16731728, "n": 1}], "hex": "02000000000101e6cdcddfdace2f4c099ec31ba8a7ebaa0fe578faa28d60a5a1b66c127c7b20e50100000017160014de6323b2f4bfdf984af96ca8f2c598115946753bffffffff0200dc0a000000000017a914a2087625b21a63934e10c9739de723b0d907bf6387504eff000000000017a9145a4b618b3648f1af63ac31c493cad2abefa662ee870247304402206c7ca0f8cce0b2739873b8fe8dbab2d7c079707ef5d901d34fdf90ad847dfd7102205ab19019d286254446b09983a4cffee2798dde0d2c31e21c3297ae241e882df70121029d0fd45782cf7c949b86cbd1c3888874c455ad32bf17d2810bd493fd4851bd0f00000000", "vin": [{"txinwitness": ["304402206c7ca0f8cce0b2739873b8fe8dbab2d7c079707ef5d901d34fdf90ad847dfd7102205ab19019d286254446b09983a4cffee2798dde0d2c31e21c3297ae241e882df701", "029d0fd45782cf7c949b86cbd1c3888874c455ad32bf17d2810bd493fd4851bd0f"], "sequence": 4294967295, "scriptSig": {"hex": "160014de6323b2f4bfdf984af96ca8f2c598115946753b", "asm": "0014de6323b2f4bfdf984af96ca8f2c598115946753b"}, "vout": 1, "txid": "e5207b7c126cb6a1a5608da2fa78e50faaeba7a81bc39e094c2fcedadfcdcde6"}], "txid": "ae9e04d84b8514d2b1fd34a24029ecef6c46980cb56f24144631d867dc2805c3", "blocktime": 1537876114, "version": 2, "confirmations": 11459, "time": 1537876114, "locktime": 0, "vsize": 166, "size": 247}