{"hash": "d6be696b4ec00a947ebc7341ab8344d12055a20bf31e5f13b0711f91ce50c65e", "blockhash": "0000000000000000001f76057863aec43deb6fa401d9628bb513d65a8098bfab", "vout": [{"scriptPubKey": {"reqSigs": 1, "hex": "76a91499bfa0bc37d94f726eadd6d0638309fb0ac7f30e88ac", "addresses": ["1F1wwtWJAKrekQ3GqwgvNsbd67Gzi4XoVg"], "asm": "OP_DUP OP_HASH160 99bfa0bc37d94f726eadd6d0638309fb0ac7f30e OP_EQUALVERIFY OP_CHECKSIG", "type": "pubkeyhash"}, "value": 0.0043446, "n": 0}, {"scriptPubKey": {"reqSigs": 1, "hex": "a914b10843dbfd118479b3684f705b62253a6908acd687", "addresses": ["3Hq5RmLZWb1vF1izB8KKWsXrnwbY4dVmu5"], "asm": "OP_HASH160 b10843dbfd118479b3684f705b62253a6908acd6 OP_EQUAL", "type": "scripthash"}, "value": 0.00998993, "n": 1}], "hex": "02000000000102b9a93b4ff472617cc611655998caa094abdf5973218a471fc88251f5fce77bb20000000017160014cbeda784e06698441b88688b1a83ef93c242d25cfefffffff497663a2afe4c584e93e10a64cc3cf633de5c33f3f9032b940196d622aa14141a00000017160014bb875b7b2fb593221d093a722c4b0873e0deae25feffffff021ca10600000000001976a91499bfa0bc37d94f726eadd6d0638309fb0ac7f30e88ac513e0f000000000017a914b10843dbfd118479b3684f705b62253a6908acd68702483045022100b1d939513f433149266a1286ee47ae766302345db076fab5b0a879c3f4a341f50220414817c282f0d033f857c16bd5707797bcda583dc4968d88559b67148fcd728e0121026905651ceb01e8f9866e8ec5585e0d9ed7f5707200fd6c437b82e4a3e67bc8fb02483045022100ecfe3a288c5a98195991f1e47ba691cf7c65f94d20de3e9a1bbe737890d89d5e0220150bdc87dc7db43cc124359068537d838362b11c71d0196c03ca3d4ba4581b11012103d4df205595548ac6ccec6d3c88e6ac94e79e4b7b79012c5240a76d8bf41e6fb114490800", "vin": [{"txinwitness": ["3045022100b1d939513f433149266a1286ee47ae766302345db076fab5b0a879c3f4a341f50220414817c282f0d033f857c16bd5707797bcda583dc4968d88559b67148fcd728e01", "026905651ceb01e8f9866e8ec5585e0d9ed7f5707200fd6c437b82e4a3e67bc8fb"], "sequence": 4294967294, "scriptSig": {"hex": "160014cbeda784e06698441b88688b1a83ef93c242d25c", "asm": "0014cbeda784e06698441b88688b1a83ef93c242d25c"}, "vout": 0, "txid": "b27be7fcf55182c81f478a217359dfab94a0ca98596511c67c6172f44f3ba9b9"}, {"txinwitness": ["3045022100ecfe3a288c5a98195991f1e47ba691cf7c65f94d20de3e9a1bbe737890d89d5e0220150bdc87dc7db43cc124359068537d838362b11c71d0196c03ca3d4ba4581b1101", "03d4df205595548ac6ccec6d3c88e6ac94e79e4b7b79012c5240a76d8bf41e6fb1"], "sequence": 4294967294, "scriptSig": {"hex": "160014bb875b7b2fb593221d093a722c4b0873e0deae25", "asm": "0014bb875b7b2fb593221d093a722c4b0873e0deae25"}, "vout": 26, "txid": "1414aa22d69601942b03f9f3335cde33f63ccc640ae1934e584cfe2a3a6697f4"}], "txid": "aea110a102cef5930aa4248b408a86fe27e62fc8ddafae826ca729f94cc91f8a", "blocktime": 1537873891, "version": 2, "confirmations": 11478, "time": 1537873891, "locktime": 542996, "vsize": 259, "size": 422}