{"hash": "d2f5dcc93809e5cf68bf8e4875220d455448bce075a9e990d581feda2ebf4a9b", "blockhash": "0000000000000000000baef3f32e3676a92c3b2e5da21b426e4f302fc371ce76", "vout": [{"scriptPubKey": {"reqSigs": 1, "hex": "a914c8948f84ab8bc2187580e4fb86ecf2a0a06e11cf87", "addresses": ["3Kyb35jwJ7YCiAF7JRfW5VZdpyywKap5YB"], "asm": "OP_HASH160 c8948f84ab8bc2187580e4fb86ecf2a0a06e11cf OP_EQUAL", "type": "scripthash"}, "value": 4.116e-05, "n": 0}, {"scriptPubKey": {"reqSigs": 1, "hex": "a9148ddb66c3371910a0ef8f38021cc4094e61e69f3a87", "addresses": ["3Ed62sPENkraPwpovPty9YMFGJ8FtTyv63"], "asm": "OP_HASH160 8ddb66c3371910a0ef8f38021cc4094e61e69f3a OP_EQUAL", "type": "scripthash"}, "value": 2.522e-05, "n": 1}], "hex": "01000000000102089365084ba1de50fe76aa287df078f709cd9c8824809f94c309abe7611ec4320100000023220020941cfaff8837763dc1f69ff82b6d6553fdea17a41cfc29a04403293eedd8ccc7ffffffffe6b1663b59cd241cdd4c650345f151a9c5e13b819cb151f6311eb1a17fabdd2b0100000023220020fdd23d707f55451c4e006c77b5e8df35a185a8e99f9bda70bf0ded7913bb1eb3ffffffff02141000000000000017a914c8948f84ab8bc2187580e4fb86ecf2a0a06e11cf87da0900000000000017a9148ddb66c3371910a0ef8f38021cc4094e61e69f3a870400473044022036ddf019d65b265a38358e2f96f9d2bbf32f3eea308e0a7d1778da52ccbb8b7902207fdcc83b1c40cd3da8cc272f4ac8e0849ea491bce565e985652431b8d48e35890147304402202977969ddf4d9547462cacf2b193a346802ac14d6881aafaa8f86aece02d560102203bbd5bef5b4528f063e119a97b69380aee9e78787121aeefcb44710fdcd081380147522102531db3a5883f29bab4241dd0cd726936667bcda445d89bdd22244e828b6993342103148c80a5bdfddb05ff5bcffc397c8ca748d8b435ec6a175bc9d7bfc7fc6f853752ae0400473044022063cb5ce90507fa664ceeb8e414fe616577bf995f0f7011bbd34eefaaaab041ac02205b7f441fcfee0106b4689472b2fd7126eca1c02ef14d251fb94308dc12000ad001473044022038e27ec0ed7d104a2356a5975f4e1fdc6f8f29d8fec8fd840729d400d7c57aff0220682e64ea066858bedc12a60344600ab45f9eb813bed4fe0ac14f23d13a5c0822014752210286c104577b978160849865bc23f9a6df9b53d41c8ffb486754b97b2a474a181c2103148c80a5bdfddb05ff5bcffc397c8ca748d8b435ec6a175bc9d7bfc7fc6f853752ae00000000", "vin": [{"txinwitness": ["", "3044022036ddf019d65b265a38358e2f96f9d2bbf32f3eea308e0a7d1778da52ccbb8b7902207fdcc83b1c40cd3da8cc272f4ac8e0849ea491bce565e985652431b8d48e358901", "304402202977969ddf4d9547462cacf2b193a346802ac14d6881aafaa8f86aece02d560102203bbd5bef5b4528f063e119a97b69380aee9e78787121aeefcb44710fdcd0813801", "522102531db3a5883f29bab4241dd0cd726936667bcda445d89bdd22244e828b6993342103148c80a5bdfddb05ff5bcffc397c8ca748d8b435ec6a175bc9d7bfc7fc6f853752ae"], "sequence": 4294967295, "scriptSig": {"hex": "220020941cfaff8837763dc1f69ff82b6d6553fdea17a41cfc29a04403293eedd8ccc7", "asm": "0020941cfaff8837763dc1f69ff82b6d6553fdea17a41cfc29a04403293eedd8ccc7"}, "vout": 1, "txid": "32c41e61e7ab09c3949f8024889ccd09f778f07d28aa76fe50dea14b08659308"}, {"txinwitness": ["", "3044022063cb5ce90507fa664ceeb8e414fe616577bf995f0f7011bbd34eefaaaab041ac02205b7f441fcfee0106b4689472b2fd7126eca1c02ef14d251fb94308dc12000ad001", "3044022038e27ec0ed7d104a2356a5975f4e1fdc6f8f29d8fec8fd840729d400d7c57aff0220682e64ea066858bedc12a60344600ab45f9eb813bed4fe0ac14f23d13a5c082201", "52210286c104577b978160849865bc23f9a6df9b53d41c8ffb486754b97b2a474a181c2103148c80a5bdfddb05ff5bcffc397c8ca748d8b435ec6a175bc9d7bfc7fc6f853752ae"], "sequence": 4294967295, "scriptSig": {"hex": "220020fdd23d707f55451c4e006c77b5e8df35a185a8e99f9bda70bf0ded7913bb1eb3", "asm": "0020fdd23d707f55451c4e006c77b5e8df35a185a8e99f9bda70bf0ded7913bb1eb3"}, "vout": 1, "txid": "2bddab7fa1b11e31f651b19c813be1c5a951f14503654cdd1c24cd593b66b1e6"}], "txid": "aeabc56d1be669af45e8089bd9b0a42ca5a1cce34da6c455b704291af92016cb", "blocktime": 1537876114, "version": 1, "confirmations": 11460, "time": 1537876114, "locktime": 0, "vsize": 336, "size": 664}