{"hash": "aeaee8786ceff88f6afc99d9bd86b43a5e479f724f7f721e326ecf9d00cfbf3a", "blockhash": "0000000000000000000e13cef7c366c0283d82e591d1acd082e914b08063cdf1", "vout": [{"scriptPubKey": {"reqSigs": 1, "hex": "a914e208c55445ae8df276d6e3fc2327090f8ee4e55187", "addresses": ["3NJB9JcYn63Q8CehMDFX2neyQqAY1hzGxM"], "asm": "OP_HASH160 e208c55445ae8df276d6e3fc2327090f8ee4e551 OP_EQUAL", "type": "scripthash"}, "value": 0.03260315, "n": 0}, {"scriptPubKey": {"reqSigs": 1, "hex": "76a914045318d25440a4b37318a7d7db17b0f25206b6cf88ac", "addresses": ["1PsFSpv4gTypeSYgq6HvQQm5fo6JzXUKA"], "asm": "OP_DUP OP_HASH160 045318d25440a4b37318a7d7db17b0f25206b6cf OP_EQUALVERIFY OP_CHECKSIG", "type": "pubkeyhash"}, "value": 0.02982378, "n": 1}], "hex": "0100000002ad8cacfeb5539f9bf553e43943aee863475efac54911fd68efeb66015fd9fbf8010000006a47304402204f411e1febd045f2c91109408a8aeed268e819be05da5709a53ead4d03ce1b1f022001f717884edc58fe63796646ba29cd5d99d2fec0e4c267f616ef04ee08f3181301210229b41c1818fd2a58dcaceb8b065a0011b77451351ba1df2ed8465dce5c1e550cffffffff4ddbb2f8d95affcb61d75c0b5389714cad56ec7b9f2af395b90c069d84d0a7b8010000006a47304402206551bb0b3c3e4512f680b8a53dc4b988a78673806b3ffd2ad5ce210d20ddf00602204e9af87d44cf76995974aa7459c1da4bd1a8ddfefb8f53d6a1d9ecb83a0237b201210229b41c1818fd2a58dcaceb8b065a0011b77451351ba1df2ed8465dce5c1e550cffffffff029bbf31000000000017a914e208c55445ae8df276d6e3fc2327090f8ee4e55187ea812d00000000001976a914045318d25440a4b37318a7d7db17b0f25206b6cf88ac00000000", "vin": [{"sequence": 4294967295, "scriptSig": {"hex": "47304402204f411e1febd045f2c91109408a8aeed268e819be05da5709a53ead4d03ce1b1f022001f717884edc58fe63796646ba29cd5d99d2fec0e4c267f616ef04ee08f3181301210229b41c1818fd2a58dcaceb8b065a0011b77451351ba1df2ed8465dce5c1e550c", "asm": "304402204f411e1febd045f2c91109408a8aeed268e819be05da5709a53ead4d03ce1b1f022001f717884edc58fe63796646ba29cd5d99d2fec0e4c267f616ef04ee08f31813[ALL] 0229b41c1818fd2a58dcaceb8b065a0011b77451351ba1df2ed8465dce5c1e550c"}, "vout": 1, "txid": "f8fbd95f0166ebef68fd1149c5fa5e4763e8ae4339e453f59b9f53b5feac8cad"}, {"sequence": 4294967295, "scriptSig": {"hex": "47304402206551bb0b3c3e4512f680b8a53dc4b988a78673806b3ffd2ad5ce210d20ddf00602204e9af87d44cf76995974aa7459c1da4bd1a8ddfefb8f53d6a1d9ecb83a0237b201210229b41c1818fd2a58dcaceb8b065a0011b77451351ba1df2ed8465dce5c1e550c", "asm": "304402206551bb0b3c3e4512f680b8a53dc4b988a78673806b3ffd2ad5ce210d20ddf00602204e9af87d44cf76995974aa7459c1da4bd1a8ddfefb8f53d6a1d9ecb83a0237b2[ALL] 0229b41c1818fd2a58dcaceb8b065a0011b77451351ba1df2ed8465dce5c1e550c"}, "vout": 1, "txid": "b8a7d0849d060cb995f32a9f7bec56ad4c7189530b5cd761cbff5ad9f8b2db4d"}], "txid": "aeaee8786ceff88f6afc99d9bd86b43a5e479f724f7f721e326ecf9d00cfbf3a", "blocktime": 1537871767, "version": 1, "confirmations": 11491, "time": 1537871767, "locktime": 0, "vsize": 370, "size": 370}