{"hash": "aeae0ca438eb46a00d1427b54d630f491ecacaa6f827a3a3a3550f8fd4a6be03", "blockhash": "0000000000000000000e13cef7c366c0283d82e591d1acd082e914b08063cdf1", "vout": [{"scriptPubKey": {"reqSigs": 1, "hex": "76a9140a40d0f4e136c638e05191e911602a36a75153ec88ac", "addresses": ["1wDQRuQnm44xzoXrTA1deX6tVQkvSJZcN"], "asm": "OP_DUP OP_HASH160 0a40d0f4e136c638e05191e911602a36a75153ec OP_EQUALVERIFY OP_CHECKSIG", "type": "pubkeyhash"}, "value": 0.0042401, "n": 0}, {"scriptPubKey": {"reqSigs": 1, "hex": "a914848fe48ea313013414c4d778cca96bc97d7e6e1087", "addresses": ["3DmwViH4rf8KhhAMWui5qS2agaZfn8sjfd"], "asm": "OP_HASH160 848fe48ea313013414c4d778cca96bc97d7e6e10 OP_EQUAL", "type": "scripthash"}, "value": 0.01938, "n": 1}], "hex": "01000000016c5dbff5b442e96021fa5e2b26d1a6e85abedf8d5c2a84fb2d68c02c6acd59e4090000006a47304402206a8e86b5c9f74e375b8ac5e2a08538d1e9df593a83b92c835f4093b87a995cc4022014506123a7079eebcc1af3aaa8809c15e9bc896df81b1393e4b85be68dd1decd012102f8c743fce0b606a68739039f934b95f51809d8185114ecc4fd41e8e8772f926fffffffff024a780600000000001976a9140a40d0f4e136c638e05191e911602a36a75153ec88ac50921d000000000017a914848fe48ea313013414c4d778cca96bc97d7e6e108700000000", "vin": [{"sequence": 4294967295, "scriptSig": {"hex": "47304402206a8e86b5c9f74e375b8ac5e2a08538d1e9df593a83b92c835f4093b87a995cc4022014506123a7079eebcc1af3aaa8809c15e9bc896df81b1393e4b85be68dd1decd012102f8c743fce0b606a68739039f934b95f51809d8185114ecc4fd41e8e8772f926f", "asm": "304402206a8e86b5c9f74e375b8ac5e2a08538d1e9df593a83b92c835f4093b87a995cc4022014506123a7079eebcc1af3aaa8809c15e9bc896df81b1393e4b85be68dd1decd[ALL] 02f8c743fce0b606a68739039f934b95f51809d8185114ecc4fd41e8e8772f926f"}, "vout": 9, "txid": "e459cd6a2cc0682dfb842a5c8ddfbe5ae8a6d1262b5efa2160e942b4f5bf5d6c"}], "txid": "aeae0ca438eb46a00d1427b54d630f491ecacaa6f827a3a3a3550f8fd4a6be03", "blocktime": 1537871767, "version": 1, "confirmations": 11495, "time": 1537871767, "locktime": 0, "vsize": 223, "size": 223}