{"hash": "e8158e486bb61ab4dabd27dc6f229042b12bda3939ab6ff9c8a3afe9bbc14a93", "blockhash": "0000000000000000000dcc0f55137456b1a82d3642486a52398922ac4d620174", "vout": [{"scriptPubKey": {"reqSigs": 1, "hex": "a91458081f0ab3ca9cc28b32418cec7507df3df89f2687", "addresses": ["39iV7hXvMiQkGXbMUuxCEq37C99Wm31Txr"], "asm": "OP_HASH160 58081f0ab3ca9cc28b32418cec7507df3df89f26 OP_EQUAL", "type": "scripthash"}, "value": 0.03951569, "n": 0}, {"scriptPubKey": {"reqSigs": 1, "hex": "a9144761ced71d93e5f58db30dddf9e6e3d4fb2a727387", "addresses": ["38CT4ypzhdyjFsi8e7CGBGvpB565Rm7XKy"], "asm": "OP_HASH160 4761ced71d93e5f58db30dddf9e6e3d4fb2a7273 OP_EQUAL", "type": "scripthash"}, "value": 3.30125244, "n": 1}], "hex": "02000000000101e630df388f39b1e7213891a82759e005c6bed13b1668699a1801e782c0e5974f0000000017160014b6c09c4facee3801751cc7f0cbd8dd5b8f75f867feffffff02d14b3c000000000017a91458081f0ab3ca9cc28b32418cec7507df3df89f2687bc4fad130000000017a9144761ced71d93e5f58db30dddf9e6e3d4fb2a72738702483045022100de6766149bf2d2f2000d8331aee97679249cc6869f279073efad9df7ad132ef40220087c18a1d5770b8d04f1b02bb48379c7ed47dc067dbdea7a4c620bcdf3f745c9012103c167b2d9152d9c8dd7197e1297dab7c8da7dd48ede5976a887391eefe0d735dc0c490800", "vin": [{"txinwitness": ["3045022100de6766149bf2d2f2000d8331aee97679249cc6869f279073efad9df7ad132ef40220087c18a1d5770b8d04f1b02bb48379c7ed47dc067dbdea7a4c620bcdf3f745c901", "03c167b2d9152d9c8dd7197e1297dab7c8da7dd48ede5976a887391eefe0d735dc"], "sequence": 4294967294, "scriptSig": {"hex": "160014b6c09c4facee3801751cc7f0cbd8dd5b8f75f867", "asm": "0014b6c09c4facee3801751cc7f0cbd8dd5b8f75f867"}, "vout": 0, "txid": "4f97e5c082e701189a6968163bd1bec605e05927a8913821e7b1398f38df30e6"}], "txid": "aeaf8d0917039870a02f79a827aeb3e712ec28ee2ffc2956899d7989109230eb", "blocktime": 1537870268, "version": 2, "confirmations": 11516, "time": 1537870268, "locktime": 542988, "vsize": 166, "size": 248}