{"hash": "aebbfae326a73d64ab1e0e7c03e77d1d1615363b6c6216c2aa4e78623110986e", "blockhash": "00000000000000000024a2167bbff67b0be802c0b01cdd79e6331c2be6459f87", "vout": [{"scriptPubKey": {"reqSigs": 1, "hex": "76a914d243e6abb9a60fbff430b421d2df4b7d59ec186088ac", "addresses": ["1LAnF8h3qMGx3TSwNUHVneBZUEpwE4gu3D"], "asm": "OP_DUP OP_HASH160 d243e6abb9a60fbff430b421d2df4b7d59ec1860 OP_EQUALVERIFY OP_CHECKSIG", "type": "pubkeyhash"}, "value": 0.00076972, "n": 0}, {"scriptPubKey": {"reqSigs": 1, "hex": "76a9143851f34d13937b673a7d24a1950bb5b21ce94af388ac", "addresses": ["168o1kqNquEJeR9vosUB5fw4eAwcVAgh8P"], "asm": "OP_DUP OP_HASH160 3851f34d13937b673a7d24a1950bb5b21ce94af3 OP_EQUALVERIFY OP_CHECKSIG", "type": "pubkeyhash"}, "value": 5.46e-06, "n": 1}, {"scriptPubKey": {"type": "nulldata", "hex": "6a146f6d6e69000000000000001f0000044c9727e600", "asm": "OP_RETURN 6f6d6e69000000000000001f0000044c9727e600"}, "value": 0.0, "n": 2}], "hex": "01000000027f57316d8f4036693052a82a8bd46418f72f2772cdb873280422e7b7e7664b64010000006b483045022100bc038cf089fa2bb81841a40a3042251dbc91a36c84f75de8dce757a24b1060d302204fc010f13d7b209d1921b8f479f548d6e07a8d8fd9b5fe35dd00db4d7d2426bf012103f3312dbefc162c2efbb19d3f7ca0ca7dbc7e2a7c752fb0634d4d59201106fe8fffffffff473300a3bd5d6f92e083c57a685e64117fbd8d4fe97df49f658ad40859d21c9a000000006a473044022076ead592f319b17bc39f974716941f733dd1c263834c726cd11123cde86a7c9602202c71c68a1546286481a28309d1ad261ce78b5f93fc08daf665bf46bcb39f971701210271977291b74f1f5f5c42157e8aae804664eaaeccfd097918450d37f28fb94d77ffffffff03ac2c0100000000001976a914d243e6abb9a60fbff430b421d2df4b7d59ec186088ac22020000000000001976a9143851f34d13937b673a7d24a1950bb5b21ce94af388ac0000000000000000166a146f6d6e69000000000000001f0000044c9727e60000000000", "vin": [{"sequence": 4294967295, "scriptSig": {"hex": "483045022100bc038cf089fa2bb81841a40a3042251dbc91a36c84f75de8dce757a24b1060d302204fc010f13d7b209d1921b8f479f548d6e07a8d8fd9b5fe35dd00db4d7d2426bf012103f3312dbefc162c2efbb19d3f7ca0ca7dbc7e2a7c752fb0634d4d59201106fe8f", "asm": "3045022100bc038cf089fa2bb81841a40a3042251dbc91a36c84f75de8dce757a24b1060d302204fc010f13d7b209d1921b8f479f548d6e07a8d8fd9b5fe35dd00db4d7d2426bf[ALL] 03f3312dbefc162c2efbb19d3f7ca0ca7dbc7e2a7c752fb0634d4d59201106fe8f"}, "vout": 1, "txid": "644b66e7b7e722042873b8cd72272ff71864d48b2aa852306936408f6d31577f"}, {"sequence": 4294967295, "scriptSig": {"hex": "473044022076ead592f319b17bc39f974716941f733dd1c263834c726cd11123cde86a7c9602202c71c68a1546286481a28309d1ad261ce78b5f93fc08daf665bf46bcb39f971701210271977291b74f1f5f5c42157e8aae804664eaaeccfd097918450d37f28fb94d77", "asm": "3044022076ead592f319b17bc39f974716941f733dd1c263834c726cd11123cde86a7c9602202c71c68a1546286481a28309d1ad261ce78b5f93fc08daf665bf46bcb39f9717[ALL] 0271977291b74f1f5f5c42157e8aae804664eaaeccfd097918450d37f28fb94d77"}, "vout": 0, "txid": "9a1cd25908d48a659ff47de94f8dbd7f11645e687ac583e0926f5dbda3003347"}], "txid": "aebbfae326a73d64ab1e0e7c03e77d1d1615363b6c6216c2aa4e78623110986e", "blocktime": 1537870564, "version": 1, "confirmations": 11515, "time": 1537870564, "locktime": 0, "vsize": 404, "size": 404}