{"hash": "18d7bfaf782fca8b13b7bfbb24c18f435f41d34c9a2611140f028ea3827667e4", "blockhash": "0000000000000000000baef3f32e3676a92c3b2e5da21b426e4f302fc371ce76", "vout": [{"scriptPubKey": {"reqSigs": 1, "hex": "76a914bdb8cbee92e0daafc927c643ba47a6a74186caf388ac", "addresses": ["1JJA69fk4Fy2LNUaPhAenTYjzAVv95XGFn"], "asm": "OP_DUP OP_HASH160 bdb8cbee92e0daafc927c643ba47a6a74186caf3 OP_EQUALVERIFY OP_CHECKSIG", "type": "pubkeyhash"}, "value": 0.02030298, "n": 0}, {"scriptPubKey": {"reqSigs": 1, "hex": "a914cfaabfe8c271f99a4364b5197ba50c6cddb7adb987", "addresses": ["3Ld4M9RPwEG3VeQbHcC1PsKUndQL7VYLZP"], "asm": "OP_HASH160 cfaabfe8c271f99a4364b5197ba50c6cddb7adb9 OP_EQUAL", "type": "scripthash"}, "value": 0.10626346, "n": 1}], "hex": "0100000000010173d4c69896e71a3ed8a54ff42e5eec8802de2326190bde4bb7f59028aab45d2d01000000232200202f7b4024602241b47d3306a6733d9889e4b6761d9f1cb82a18aa8b9ac4506e51ffffffff02dafa1e00000000001976a914bdb8cbee92e0daafc927c643ba47a6a74186caf388ac2a25a2000000000017a914cfaabfe8c271f99a4364b5197ba50c6cddb7adb9870400483045022100f762e54daec6643ce426374be26c7fcbc7c77b335344b0449942d1d9f5c4bb7f02203c587448bbe3ffe5061fe55e7eea6948b7fde3e5a51086d0fe3d71a542e08c280147304402200a8d6b3f38f09cc47b8d48938410b7be949910d86d487b54a8aa8bcc2f2e338c02204bd34239d66468a7cdb337d7acca670385e3f4893c142a4ce1d028e8b552fabc0147522102973cd851fecff3a20f08377b072729f303801eee1b7678668338adcaec770ec221033e4af03ed09dbd8a417ba042650d5bd1db7f14f271a8f660974e3abf1fdfa4da52ae00000000", "vin": [{"txinwitness": ["", "3045022100f762e54daec6643ce426374be26c7fcbc7c77b335344b0449942d1d9f5c4bb7f02203c587448bbe3ffe5061fe55e7eea6948b7fde3e5a51086d0fe3d71a542e08c2801", "304402200a8d6b3f38f09cc47b8d48938410b7be949910d86d487b54a8aa8bcc2f2e338c02204bd34239d66468a7cdb337d7acca670385e3f4893c142a4ce1d028e8b552fabc01", "522102973cd851fecff3a20f08377b072729f303801eee1b7678668338adcaec770ec221033e4af03ed09dbd8a417ba042650d5bd1db7f14f271a8f660974e3abf1fdfa4da52ae"], "sequence": 4294967295, "scriptSig": {"hex": "2200202f7b4024602241b47d3306a6733d9889e4b6761d9f1cb82a18aa8b9ac4506e51", "asm": "00202f7b4024602241b47d3306a6733d9889e4b6761d9f1cb82a18aa8b9ac4506e51"}, "vout": 1, "txid": "2d5db4aa2890f5b74bde0b192623de0288ec5e2ef44fa5d83e1ae79698c6d473"}], "txid": "aebb703151172a75edbaa8538e5eca0bc6456dc233de873d33d494285095dfee", "blocktime": 1537876114, "version": 1, "confirmations": 11462, "time": 1537876114, "locktime": 0, "vsize": 208, "size": 373}