{"hash": "aec02c7b57c0b07197efb8bb2769d6f9a2c226c050c5c978ecb9bf28f6c9b9df", "blockhash": "00000000000000000017f5eb5941039fbcee6240d03bc1f2f8e35350df66a1d8", "vout": [{"scriptPubKey": {"reqSigs": 1, "hex": "a91469f3748210476f7008d0bcd20be3890835080ff987", "addresses": ["3BMEXF5S3iyhzfR3tkwp29pTjyf9jwhq5e"], "asm": "OP_HASH160 69f3748210476f7008d0bcd20be3890835080ff9 OP_EQUAL", "type": "scripthash"}, "value": 0.5, "n": 0}, {"scriptPubKey": {"reqSigs": 1, "hex": "76a914f423dfee34e4833104508103d89e316b4a49314088ac", "addresses": ["1PFtrRjbq4aLfM7k4tyLZ3ZAuTsgLr6Q8Q"], "asm": "OP_DUP OP_HASH160 f423dfee34e4833104508103d89e316b4a493140 OP_EQUALVERIFY OP_CHECKSIG", "type": "pubkeyhash"}, "value": 0.0999, "n": 1}], "hex": "010000000136db4365f6099029a5392f637015b9b80def2e6d4667e804266d77980195ba93040000006a47304402206a959f992ba16243d22a3a7359657de3f991f051459f3c039672329224103e350220203c4b81f52daee0c2c37c4c07a39867daf8421a92552fffc3a7b66e46c1ae6c01210310bc3c218409dfe6539516352da823dd89337bee2c242d01cee88741d7f3997bffffffff0280f0fa020000000017a91469f3748210476f7008d0bcd20be3890835080ff987706f9800000000001976a914f423dfee34e4833104508103d89e316b4a49314088ac00000000", "vin": [{"sequence": 4294967295, "scriptSig": {"hex": "47304402206a959f992ba16243d22a3a7359657de3f991f051459f3c039672329224103e350220203c4b81f52daee0c2c37c4c07a39867daf8421a92552fffc3a7b66e46c1ae6c01210310bc3c218409dfe6539516352da823dd89337bee2c242d01cee88741d7f3997b", "asm": "304402206a959f992ba16243d22a3a7359657de3f991f051459f3c039672329224103e350220203c4b81f52daee0c2c37c4c07a39867daf8421a92552fffc3a7b66e46c1ae6c[ALL] 0310bc3c218409dfe6539516352da823dd89337bee2c242d01cee88741d7f3997b"}, "vout": 4, "txid": "93ba950198776d2604e867466d2eef0db8b91570632f39a5299009f66543db36"}], "txid": "aec02c7b57c0b07197efb8bb2769d6f9a2c226c050c5c978ecb9bf28f6c9b9df", "blocktime": 1537874412, "version": 1, "confirmations": 11466, "time": 1537874412, "locktime": 0, "vsize": 223, "size": 223}