{"hash": "aec47b11123ae1f3effc888ebcc706b6a0290ac48c26cdf885ac7cb17d5e0a85", "blockhash": "00000000000000000017f5eb5941039fbcee6240d03bc1f2f8e35350df66a1d8", "vout": [{"scriptPubKey": {"reqSigs": 1, "hex": "76a914bb6bbcf05d7a42b4799a09b40e50395d3128f36e88ac", "addresses": ["1J5zReH91WYgQ3QdJUeLVu23EYNiS79rYQ"], "asm": "OP_DUP OP_HASH160 bb6bbcf05d7a42b4799a09b40e50395d3128f36e OP_EQUALVERIFY OP_CHECKSIG", "type": "pubkeyhash"}, "value": 32.50232908, "n": 0}], "hex": "010000000198b5f5b2a8003635655bd845f685d5b17d606bea8c343a18fab223325d0441a3010000006b483045022100922da411ad7c7b7cbba1c34c627a640b11c75837c863085774cb898b7f86f2910220174d4ef3586cc863ea159ee393d5c5e11edcb03a55c8024d974e14324f7cebbb01210203dad6b932c660f5bfbb1fe37c335cb8038254fef12c591d8a898c11e63ff23bffffffff014c9ebac1000000001976a914bb6bbcf05d7a42b4799a09b40e50395d3128f36e88ac00000000", "vin": [{"sequence": 4294967295, "scriptSig": {"hex": "483045022100922da411ad7c7b7cbba1c34c627a640b11c75837c863085774cb898b7f86f2910220174d4ef3586cc863ea159ee393d5c5e11edcb03a55c8024d974e14324f7cebbb01210203dad6b932c660f5bfbb1fe37c335cb8038254fef12c591d8a898c11e63ff23b", "asm": "3045022100922da411ad7c7b7cbba1c34c627a640b11c75837c863085774cb898b7f86f2910220174d4ef3586cc863ea159ee393d5c5e11edcb03a55c8024d974e14324f7cebbb[ALL] 0203dad6b932c660f5bfbb1fe37c335cb8038254fef12c591d8a898c11e63ff23b"}, "vout": 1, "txid": "a341045d3223b2fa183a348cea6b607db1d585f645d85b65353600a8b2f5b598"}], "txid": "aec47b11123ae1f3effc888ebcc706b6a0290ac48c26cdf885ac7cb17d5e0a85", "blocktime": 1537874412, "version": 1, "confirmations": 11467, "time": 1537874412, "locktime": 0, "vsize": 192, "size": 192}