{"hash": "aed330841ef0282227ee56c0408efbaa4b0252b190d0be790ca615e2e831caaf", "blockhash": "0000000000000000001e0dab787dd257d1dbfcb92a98c2207d5e1078be1f4165", "vout": [{"scriptPubKey": {"reqSigs": 1, "hex": "76a91439d8e34330700cb8fea9cc4c1781a5396fc7566c88ac", "addresses": ["16GsLZRPTvbJdyBiizkSqSx2aYJfWs6y7i"], "asm": "OP_DUP OP_HASH160 39d8e34330700cb8fea9cc4c1781a5396fc7566c OP_EQUALVERIFY OP_CHECKSIG", "type": "pubkeyhash"}, "value": 0.04374467, "n": 0}, {"scriptPubKey": {"reqSigs": 1, "hex": "76a914eed992d1e3cb2c94495f4d643eca34a921be2dd488ac", "addresses": ["1NmvTvrTvgXrLAEQnS9NUdScS6mubuqdgs"], "asm": "OP_DUP OP_HASH160 eed992d1e3cb2c94495f4d643eca34a921be2dd4 OP_EQUALVERIFY OP_CHECKSIG", "type": "pubkeyhash"}, "value": 0.53874186, "n": 1}], "hex": "01000000014705f02535d291fff26b6b8fa52e7e54e31679a47d04b58ee8b154ad46780069010000006b48304502210081c13a40b88488487fb10fbaa26d45090cec9885c1d84ce5b9be42322b46fc2e02204feb8c42d12ab52ca8092f6d63c218f327a2c3ae60c715400608b4c99ce1168c01210206940a6b75c89561c931f7e862599de00d27cab68d729a9c281ba0b619c303e5ffffffff02c3bf4200000000001976a91439d8e34330700cb8fea9cc4c1781a5396fc7566c88ac0a0e3603000000001976a914eed992d1e3cb2c94495f4d643eca34a921be2dd488ac00000000", "vin": [{"sequence": 4294967295, "scriptSig": {"hex": "48304502210081c13a40b88488487fb10fbaa26d45090cec9885c1d84ce5b9be42322b46fc2e02204feb8c42d12ab52ca8092f6d63c218f327a2c3ae60c715400608b4c99ce1168c01210206940a6b75c89561c931f7e862599de00d27cab68d729a9c281ba0b619c303e5", "asm": "304502210081c13a40b88488487fb10fbaa26d45090cec9885c1d84ce5b9be42322b46fc2e02204feb8c42d12ab52ca8092f6d63c218f327a2c3ae60c715400608b4c99ce1168c[ALL] 0206940a6b75c89561c931f7e862599de00d27cab68d729a9c281ba0b619c303e5"}, "vout": 1, "txid": "69007846ad54b1e88eb5047da47916e3547e2ea58f6b6bf2ff91d23525f00547"}], "txid": "aed330841ef0282227ee56c0408efbaa4b0252b190d0be790ca615e2e831caaf", "blocktime": 1537872475, "version": 1, "confirmations": 11486, "time": 1537872475, "locktime": 0, "vsize": 226, "size": 226}