{"hash": "aed4d23a343668e41fafde1b9c75eaa022503f3073c285898827a4d6b7fb6e72", "blockhash": "0000000000000000001cda96e906b7601b7a6fb1a3b62bca570a9e5d8f4b3de1", "vout": [{"scriptPubKey": {"reqSigs": 1, "hex": "76a914e181224347406c212a22fcdafa81e4f2bfc566b488ac", "addresses": ["1MZMjYDmyGa4QMusrVRNwHQpyT2E8G2ACT"], "asm": "OP_DUP OP_HASH160 e181224347406c212a22fcdafa81e4f2bfc566b4 OP_EQUALVERIFY OP_CHECKSIG", "type": "pubkeyhash"}, "value": 0.00617356, "n": 0}, {"scriptPubKey": {"reqSigs": 1, "hex": "76a914dd3b43c37b5e7f72bd86de663d532dac074fe05a88ac", "addresses": ["1MAmLBLPWtZ6WY4XRQXAvKMVaqxDHVVq9q"], "asm": "OP_DUP OP_HASH160 dd3b43c37b5e7f72bd86de663d532dac074fe05a OP_EQUALVERIFY OP_CHECKSIG", "type": "pubkeyhash"}, "value": 0.02557439, "n": 1}], "hex": "010000000184fa5dbfc5ac4666d161a926371e71ec603fa40fc28b452820bd8c8be02af034010000006a473044022013b83f1149c101c521ae516ccb0cd6ef441593a31883d20e748484560e08c26002203d18156bac0242d08359c30cb60f1c8ab04d246364e6e31c3f94d4ea6f53451e012103d9186bdf554f477e9d5b5c13a5dc719570e5963f07b3fc2bc15fbe9d7f69207affffffff028c6b0900000000001976a914e181224347406c212a22fcdafa81e4f2bfc566b488acff052700000000001976a914dd3b43c37b5e7f72bd86de663d532dac074fe05a88ac00000000", "vin": [{"sequence": 4294967295, "scriptSig": {"hex": "473044022013b83f1149c101c521ae516ccb0cd6ef441593a31883d20e748484560e08c26002203d18156bac0242d08359c30cb60f1c8ab04d246364e6e31c3f94d4ea6f53451e012103d9186bdf554f477e9d5b5c13a5dc719570e5963f07b3fc2bc15fbe9d7f69207a", "asm": "3044022013b83f1149c101c521ae516ccb0cd6ef441593a31883d20e748484560e08c26002203d18156bac0242d08359c30cb60f1c8ab04d246364e6e31c3f94d4ea6f53451e[ALL] 03d9186bdf554f477e9d5b5c13a5dc719570e5963f07b3fc2bc15fbe9d7f69207a"}, "vout": 1, "txid": "34f02ae08b8cbd2028458bc20fa43f60ec711e3726a961d16646acc5bf5dfa84"}], "txid": "aed4d23a343668e41fafde1b9c75eaa022503f3073c285898827a4d6b7fb6e72", "blocktime": 1537873282, "version": 1, "confirmations": 11485, "time": 1537873282, "locktime": 0, "vsize": 225, "size": 225}