{"hash": "aed558947fb3e894b2c684d8836240a7be9164f3d9f4abffccd07f024a055c1c", "blockhash": "0000000000000000000dcc0f55137456b1a82d3642486a52398922ac4d620174", "vout": [{"scriptPubKey": {"reqSigs": 1, "hex": "76a914d243e6abb9a60fbff430b421d2df4b7d59ec186088ac", "addresses": ["1LAnF8h3qMGx3TSwNUHVneBZUEpwE4gu3D"], "asm": "OP_DUP OP_HASH160 d243e6abb9a60fbff430b421d2df4b7d59ec1860 OP_EQUALVERIFY OP_CHECKSIG", "type": "pubkeyhash"}, "value": 0.00076972, "n": 0}, {"scriptPubKey": {"reqSigs": 1, "hex": "76a9143851f34d13937b673a7d24a1950bb5b21ce94af388ac", "addresses": ["168o1kqNquEJeR9vosUB5fw4eAwcVAgh8P"], "asm": "OP_DUP OP_HASH160 3851f34d13937b673a7d24a1950bb5b21ce94af3 OP_EQUALVERIFY OP_CHECKSIG", "type": "pubkeyhash"}, "value": 5.46e-06, "n": 1}, {"scriptPubKey": {"type": "nulldata", "hex": "6a146f6d6e69000000000000001f0000006b4cab5240", "asm": "OP_RETURN 6f6d6e69000000000000001f0000006b4cab5240"}, "value": 0.0, "n": 2}], "hex": "01000000029b6482819636a4cf57f61788fc4509b2e0eebab20612c782af3e6ab9c863a320020000006b483045022100ccf5919123a807e5813ce6e3a34868cf2b4729546bf8fc90fa3299b30d5136c20220255731392b4fbac62e4f05de2d4f6bc17841403fd7cc3b790c355a735956c843012103025670dc24ec374d17d09bb7dbb410c38fd853b7adb95da9ae3b20d716c8bd4fffffffff8a23991b05e224a690e93ad24ab30ae4870dec7a433fd4ebcdd32cf27f49dcd6000000006b48304502210099bc266e0d5608f5314ced7fd42f1afadbf5e7715aebd0837a7787c8378448e302203ae69f7b42fb7ae38e4632fc3632c0b16d1781d5d8c2bd6b900b91eeaae502ef01210271977291b74f1f5f5c42157e8aae804664eaaeccfd097918450d37f28fb94d77ffffffff03ac2c0100000000001976a914d243e6abb9a60fbff430b421d2df4b7d59ec186088ac22020000000000001976a9143851f34d13937b673a7d24a1950bb5b21ce94af388ac0000000000000000166a146f6d6e69000000000000001f0000006b4cab524000000000", "vin": [{"sequence": 4294967295, "scriptSig": {"hex": "483045022100ccf5919123a807e5813ce6e3a34868cf2b4729546bf8fc90fa3299b30d5136c20220255731392b4fbac62e4f05de2d4f6bc17841403fd7cc3b790c355a735956c843012103025670dc24ec374d17d09bb7dbb410c38fd853b7adb95da9ae3b20d716c8bd4f", "asm": "3045022100ccf5919123a807e5813ce6e3a34868cf2b4729546bf8fc90fa3299b30d5136c20220255731392b4fbac62e4f05de2d4f6bc17841403fd7cc3b790c355a735956c843[ALL] 03025670dc24ec374d17d09bb7dbb410c38fd853b7adb95da9ae3b20d716c8bd4f"}, "vout": 2, "txid": "20a363c8b96a3eaf82c71206b2baeee0b20945fc8817f657cfa436968182649b"}, {"sequence": 4294967295, "scriptSig": {"hex": "48304502210099bc266e0d5608f5314ced7fd42f1afadbf5e7715aebd0837a7787c8378448e302203ae69f7b42fb7ae38e4632fc3632c0b16d1781d5d8c2bd6b900b91eeaae502ef01210271977291b74f1f5f5c42157e8aae804664eaaeccfd097918450d37f28fb94d77", "asm": "304502210099bc266e0d5608f5314ced7fd42f1afadbf5e7715aebd0837a7787c8378448e302203ae69f7b42fb7ae38e4632fc3632c0b16d1781d5d8c2bd6b900b91eeaae502ef[ALL] 0271977291b74f1f5f5c42157e8aae804664eaaeccfd097918450d37f28fb94d77"}, "vout": 0, "txid": "d6dc497ff22cd3cdebd43f437aec0d87e40ab34ad23ae990a624e2051b99238a"}], "txid": "aed558947fb3e894b2c684d8836240a7be9164f3d9f4abffccd07f024a055c1c", "blocktime": 1537870268, "version": 1, "confirmations": 11516, "time": 1537870268, "locktime": 0, "vsize": 405, "size": 405}