{"hash": "aed74e1d4f961e76cfdcd28cffead94a103b848db01b1ee52fda162444ed5188", "blockhash": "0000000000000000001cda96e906b7601b7a6fb1a3b62bca570a9e5d8f4b3de1", "vout": [{"scriptPubKey": {"reqSigs": 1, "hex": "76a914003dd3c9454e6d58781060b5369ad017a7c7afa988ac", "addresses": ["112H4qTL8S2xW7GsUpzbVwe6eZQ3oHaR6u"], "asm": "OP_DUP OP_HASH160 003dd3c9454e6d58781060b5369ad017a7c7afa9 OP_EQUALVERIFY OP_CHECKSIG", "type": "pubkeyhash"}, "value": 0.00031226, "n": 0}, {"scriptPubKey": {"reqSigs": 1, "hex": "76a914e1ef24ef30c070b6015ec00f333233db1d0eb9e588ac", "addresses": ["1MbdXCStyHnh8W56szpEpVKP1MWhcT1ywB"], "asm": "OP_DUP OP_HASH160 e1ef24ef30c070b6015ec00f333233db1d0eb9e5 OP_EQUALVERIFY OP_CHECKSIG", "type": "pubkeyhash"}, "value": 0.01020636, "n": 1}], "hex": "01000000017391091ef5b011fbd383e092b4aa5c5733cd8363e2f345665d74e9bc320a5082000000006a473044022068a068729986c3c2fc91dda9c9f890155bf8f155a9d758117bbf61a4fbe1bc6e02204ec29833a9ec99d35cf9d9629e8a05b626ed99b0cabe2d7f443f9ca251891e5c012102cc39ead087f8bc41b6b120024ead076c49e9b57ea7ad717791211433e14e4b7dffffffff02fa790000000000001976a914003dd3c9454e6d58781060b5369ad017a7c7afa988acdc920f00000000001976a914e1ef24ef30c070b6015ec00f333233db1d0eb9e588ac00000000", "vin": [{"sequence": 4294967295, "scriptSig": {"hex": "473044022068a068729986c3c2fc91dda9c9f890155bf8f155a9d758117bbf61a4fbe1bc6e02204ec29833a9ec99d35cf9d9629e8a05b626ed99b0cabe2d7f443f9ca251891e5c012102cc39ead087f8bc41b6b120024ead076c49e9b57ea7ad717791211433e14e4b7d", "asm": "3044022068a068729986c3c2fc91dda9c9f890155bf8f155a9d758117bbf61a4fbe1bc6e02204ec29833a9ec99d35cf9d9629e8a05b626ed99b0cabe2d7f443f9ca251891e5c[ALL] 02cc39ead087f8bc41b6b120024ead076c49e9b57ea7ad717791211433e14e4b7d"}, "vout": 0, "txid": "82500a32bce9745d6645f3e26383cd33575caab492e083d3fb11b0f51e099173"}], "txid": "aed74e1d4f961e76cfdcd28cffead94a103b848db01b1ee52fda162444ed5188", "blocktime": 1537873282, "version": 1, "confirmations": 11482, "time": 1537873282, "locktime": 0, "vsize": 225, "size": 225}