{"hash": "be0cb56fa6330f572be8b963b2bc04a9d50dafea0255bbab7a357ba867a706e2", "blockhash": "0000000000000000001f76057863aec43deb6fa401d9628bb513d65a8098bfab", "vout": [{"scriptPubKey": {"reqSigs": 1, "hex": "001431d7e366416afe6e9c241fab5d898eb155d0ff2a", "addresses": ["bc1qx8t7xejpdtlxa8pyr744mzvwk92aple2kf7mgu"], "asm": "0 31d7e366416afe6e9c241fab5d898eb155d0ff2a", "type": "witness_v0_keyhash"}, "value": 0.04002779, "n": 0}, {"scriptPubKey": {"reqSigs": 1, "hex": "a9147c7647dc4e98ba22ee6c2a112d07ad84c2e017cb87", "addresses": ["3D37Qcov4T41hEP9puYwnQAEeE22TQjUWf"], "asm": "OP_HASH160 7c7647dc4e98ba22ee6c2a112d07ad84c2e017cb OP_EQUAL", "type": "scripthash"}, "value": 0.0780884, "n": 1}], "hex": "01000000000101440d5301c4beb70f3fc122d3e3681cdbeb5e773a4cf1786e5f7184b1a31628080000000017160014840801386618f580a8a77dacf73dc9620d4fb9a8ffffffff02db133d000000000016001431d7e366416afe6e9c241fab5d898eb155d0ff2a482777000000000017a9147c7647dc4e98ba22ee6c2a112d07ad84c2e017cb8702483045022100defd02fc379da23d75b64912c6d04cbf2b709aee58d86e02314a27d7d142f9c6022070d84f6d89101144bb5a3a716eb7ee28afed27d8fbd7534af1d383bde56ae7c0012103e670c2b66543f8f257e54a9307718f8a4e0efdf29b862543e11d6d67825f56aa00000000", "vin": [{"txinwitness": ["3045022100defd02fc379da23d75b64912c6d04cbf2b709aee58d86e02314a27d7d142f9c6022070d84f6d89101144bb5a3a716eb7ee28afed27d8fbd7534af1d383bde56ae7c001", "03e670c2b66543f8f257e54a9307718f8a4e0efdf29b862543e11d6d67825f56aa"], "sequence": 4294967295, "scriptSig": {"hex": "160014840801386618f580a8a77dacf73dc9620d4fb9a8", "asm": "0014840801386618f580a8a77dacf73dc9620d4fb9a8"}, "vout": 0, "txid": "082816a3b184715f6e78f14c3a775eebdb1c68e3d322c13f0fb7bec401530d44"}], "txid": "aeda5492312dcba367f867b84684dd140adecdfe8b1a32b8a1489e403522263e", "blocktime": 1537873891, "version": 1, "confirmations": 11478, "time": 1537873891, "locktime": 0, "vsize": 165, "size": 247}