{"hash": "aedb77ce26f523906762c3f41c860aaf2a2cfffa1cb02140b21fa49ded184bf5", "blockhash": "00000000000000000004ffacab907a6b429b9a5745fa0b75af4234bf69dd7176", "vout": [{"scriptPubKey": {"reqSigs": 1, "hex": "76a9147ad1db93df26f8420015e427c5a7222300488fe488ac", "addresses": ["1CCQqaGr2CNggtajUgpjj7XtQfLDUQ6AHt"], "asm": "OP_DUP OP_HASH160 7ad1db93df26f8420015e427c5a7222300488fe4 OP_EQUALVERIFY OP_CHECKSIG", "type": "pubkeyhash"}, "value": 0.00250123, "n": 0}, {"scriptPubKey": {"reqSigs": 1, "hex": "76a914501fba4e0d009d7e1d894df56e7825e01a5d5b0588ac", "addresses": ["18Jf4q75B7LpcHtoMpn6vEUvbLmNL22dQv"], "asm": "OP_DUP OP_HASH160 501fba4e0d009d7e1d894df56e7825e01a5d5b05 OP_EQUALVERIFY OP_CHECKSIG", "type": "pubkeyhash"}, "value": 0.00264881, "n": 1}], "hex": "01000000013da56bdaabc6410434f91470bc039e40a14f7f5dd526960aed15b4b8ae0e7212010000006b48304502210081615f842d6be07c1772d6d8773244a89651fd64b5ecfec6fe910f82e818c50d022001f2f652cc2f25de05d014cf908ee2c418e34bae79922a67857fd142deaed3f0012103adf74d85c40be61f0d3ac5d1748fec88bc20c26c5c1484dc95699c6c84d2857cffffffff020bd10300000000001976a9147ad1db93df26f8420015e427c5a7222300488fe488acb10a0400000000001976a914501fba4e0d009d7e1d894df56e7825e01a5d5b0588ac00000000", "vin": [{"sequence": 4294967295, "scriptSig": {"hex": "48304502210081615f842d6be07c1772d6d8773244a89651fd64b5ecfec6fe910f82e818c50d022001f2f652cc2f25de05d014cf908ee2c418e34bae79922a67857fd142deaed3f0012103adf74d85c40be61f0d3ac5d1748fec88bc20c26c5c1484dc95699c6c84d2857c", "asm": "304502210081615f842d6be07c1772d6d8773244a89651fd64b5ecfec6fe910f82e818c50d022001f2f652cc2f25de05d014cf908ee2c418e34bae79922a67857fd142deaed3f0[ALL] 03adf74d85c40be61f0d3ac5d1748fec88bc20c26c5c1484dc95699c6c84d2857c"}, "vout": 1, "txid": "12720eaeb8b415ed0a9626d55d7f4fa1409e03bc7014f9340441c6abda6ba53d"}], "txid": "aedb77ce26f523906762c3f41c860aaf2a2cfffa1cb02140b21fa49ded184bf5", "blocktime": 1537875543, "version": 1, "confirmations": 11464, "time": 1537875543, "locktime": 0, "vsize": 226, "size": 226}