{"hash": "d13f9c867225b45ea12480838c57ae912839e12feb4f00dc5a3b15fa14b07d33", "blockhash": "000000000000000000205f8b0775d31398ef75b89a5e8ec8d2c57b4dc0ac4c20", "vout": [{"scriptPubKey": {"reqSigs": 1, "hex": "76a914d0effba39fbd68f49d6736348f8cc140a2a3ad3e88ac", "addresses": ["1L3m3D9iV3dVC8RE9mEx2rCMm9d2HL1aNB"], "asm": "OP_DUP OP_HASH160 d0effba39fbd68f49d6736348f8cc140a2a3ad3e OP_EQUALVERIFY OP_CHECKSIG", "type": "pubkeyhash"}, "value": 0.03565, "n": 0}], "hex": "01000000000101f207f396a4b3e73132aea8aa64eeca96edde41739664a213c9915f5bed5b352a0000000023220020444c45840ad55a4b33442104cda082c75b5fa6cbbd685322ec410e5f673a21b7ffffffff01c8653600000000001976a914d0effba39fbd68f49d6736348f8cc140a2a3ad3e88ac04004730440220064c7198d5c5f2b6c4963b298c6c2634cb76a2ca7c4e67d7038f0364b8757ca2022060663138f9ae22698ef9853b2c30e59cbc46dfd432b23182ece17be2251fcf8c014730440220463c46e3fafdb0ce7458e30263c732b4b2bcd5a4c6a3e44bd544c793c222dd8b02200d59104679d036de2d7fb2932fdbe2d37d941317b57a6a4105a0010430caa209016952210219bfabaad25324411538dea413d5e6ceaf3bf5b7677ca40b4b06701837a45b5b21036cc7887bdb1a74fcd78b2e3eec38e44d1b2c3aa46efcc5cbcbd98f94b77ea4392103e4c72ee001f4dcaa4c8334f627159006360d6774c11bafbb426a7d9b62dfef0f53ae00000000", "vin": [{"txinwitness": ["", "30440220064c7198d5c5f2b6c4963b298c6c2634cb76a2ca7c4e67d7038f0364b8757ca2022060663138f9ae22698ef9853b2c30e59cbc46dfd432b23182ece17be2251fcf8c01", "30440220463c46e3fafdb0ce7458e30263c732b4b2bcd5a4c6a3e44bd544c793c222dd8b02200d59104679d036de2d7fb2932fdbe2d37d941317b57a6a4105a0010430caa20901", "52210219bfabaad25324411538dea413d5e6ceaf3bf5b7677ca40b4b06701837a45b5b21036cc7887bdb1a74fcd78b2e3eec38e44d1b2c3aa46efcc5cbcbd98f94b77ea4392103e4c72ee001f4dcaa4c8334f627159006360d6774c11bafbb426a7d9b62dfef0f53ae"], "sequence": 4294967295, "scriptSig": {"hex": "220020444c45840ad55a4b33442104cda082c75b5fa6cbbd685322ec410e5f673a21b7", "asm": "0020444c45840ad55a4b33442104cda082c75b5fa6cbbd685322ec410e5f673a21b7"}, "vout": 0, "txid": "2a355bed5b5f91c913a264967341deed96caee64aaa8ae3231e7b3a496f307f2"}], "txid": "aede9c117376804b78e3c6e49319f224f815bc74ae09c0a01798dd7a67630575", "blocktime": 1537871175, "version": 1, "confirmations": 11511, "time": 1537871175, "locktime": 0, "vsize": 184, "size": 374}