{"hash": "aedf082def77f8ef27db0f5b26ea6bbe586e2304684438bdddc132c06b0b6362", "blockhash": "0000000000000000000baef3f32e3676a92c3b2e5da21b426e4f302fc371ce76", "vout": [{"scriptPubKey": {"reqSigs": 1, "hex": "76a91485860798c5012b6f5dfc97c90c7f994a023187f088ac", "addresses": ["1DB1S4PqYUa8hsLHAf2NA7BxbzyYKhtj6K"], "asm": "OP_DUP OP_HASH160 85860798c5012b6f5dfc97c90c7f994a023187f0 OP_EQUALVERIFY OP_CHECKSIG", "type": "pubkeyhash"}, "value": 0.01839792, "n": 0}, {"scriptPubKey": {"reqSigs": 1, "hex": "a9140588a48899fce2d4a9143467880bb6f00af2f58687", "addresses": ["32CGzc2ncNb3a1GpS3nAFbg2aq65w4Bj4v"], "asm": "OP_HASH160 0588a48899fce2d4a9143467880bb6f00af2f586 OP_EQUAL", "type": "scripthash"}, "value": 0.01093944, "n": 1}, {"scriptPubKey": {"reqSigs": 1, "hex": "76a91442c098cbbfb65d9f69487508535f7af44ce8fa8288ac", "addresses": ["175xKXTfcLiXgX7XqxLCaskBzW4Qs3nWAM"], "asm": "OP_DUP OP_HASH160 42c098cbbfb65d9f69487508535f7af44ce8fa82 OP_EQUALVERIFY OP_CHECKSIG", "type": "pubkeyhash"}, "value": 0.30855655, "n": 2}], "hex": "02000000016a9318fa754817106eaa11e77e4befc2eadd2e736d3561836241cf73bee44693020000006b483045022100ab1838869ec3ede5c47f7a82b768c3452218c0c9a28147743b0cf1c37a767ae2022016fb6b5963d0075aef252dbf20165a1fb8bbc688e417965700434dccf3535dba012102b8e1087c8ac0fa7a1b6ae0f6bec802651a26a5a7104a7ccedd28ce7520a17e92ffffffff03b0121c00000000001976a91485860798c5012b6f5dfc97c90c7f994a023187f088ac38b110000000000017a9140588a48899fce2d4a9143467880bb6f00af2f58687e7d1d601000000001976a91442c098cbbfb65d9f69487508535f7af44ce8fa8288ac00000000", "vin": [{"sequence": 4294967295, "scriptSig": {"hex": "483045022100ab1838869ec3ede5c47f7a82b768c3452218c0c9a28147743b0cf1c37a767ae2022016fb6b5963d0075aef252dbf20165a1fb8bbc688e417965700434dccf3535dba012102b8e1087c8ac0fa7a1b6ae0f6bec802651a26a5a7104a7ccedd28ce7520a17e92", "asm": "3045022100ab1838869ec3ede5c47f7a82b768c3452218c0c9a28147743b0cf1c37a767ae2022016fb6b5963d0075aef252dbf20165a1fb8bbc688e417965700434dccf3535dba[ALL] 02b8e1087c8ac0fa7a1b6ae0f6bec802651a26a5a7104a7ccedd28ce7520a17e92"}, "vout": 2, "txid": "9346e4be73cf41628361356d732eddeac2ef4b7ee711aa6e10174875fa18936a"}], "txid": "aedf082def77f8ef27db0f5b26ea6bbe586e2304684438bdddc132c06b0b6362", "blocktime": 1537876114, "version": 2, "confirmations": 11460, "time": 1537876114, "locktime": 0, "vsize": 258, "size": 258}