{"hash": "aee36153e3664844387ccec503941f97da7506db0b2d679dacb91f7651f161ba", "blockhash": "0000000000000000000dcc0f55137456b1a82d3642486a52398922ac4d620174", "vout": [{"scriptPubKey": {"reqSigs": 1, "hex": "76a914c0a095e731f1ff45f9618aebbdc678473aded26b88ac", "addresses": ["1JZX7WgKQSvYcFDngrziJEofxiBwavEB7p"], "asm": "OP_DUP OP_HASH160 c0a095e731f1ff45f9618aebbdc678473aded26b OP_EQUALVERIFY OP_CHECKSIG", "type": "pubkeyhash"}, "value": 1.17423734, "n": 0}, {"scriptPubKey": {"reqSigs": 1, "hex": "76a914fd6274cc980361d794f7b6be42a48219a90e64ae88ac", "addresses": ["1Q6muPoEvRYUTmgNi48yWUNaVrxoEyfscn"], "asm": "OP_DUP OP_HASH160 fd6274cc980361d794f7b6be42a48219a90e64ae OP_EQUALVERIFY OP_CHECKSIG", "type": "pubkeyhash"}, "value": 0.21407369, "n": 1}], "hex": "020000000460382c8ba48b036b7088a5aabba795409b07c0f73fc940c20de6353ba71c693b010000006a47304402204a7445422864c976ef2e0c567b7157f8d4d90694432d6e4089f905822cd7d8e702205e58b49642cb84b04427c1b2860a0bab4c1dc674c96b6e2f3d4da380453d13cb012102d361061258436367f6b2af9e87b35fa03227abf546ad71dd95cfc4a63086e952feffffffa884a4b2305431b6e0792fa7c656b1db1afdcf7782c41ddc8d6f359d452a01dd480000006a47304402203041b0e74549c47170d6e57055501ec998375042cf4d038d5f3a4541a1718d6102203c71ec2f0204e4f62ae94d2a4e89c673bc598976aaaf903a1bd69a889ed60a080121039fe2551a088a69b5b0d8d1c5b25d6bc1f8d8855c7eff521eaa68d59743d428a5feffffffcbd718e24e7b3c1f96da9e1f3b88b48b5a4b2c830ecd31ae705958db79b10581020000006a4730440220678864288886db05e23a553485efe923cb3d8b61d47b59c64765c1deaf0201360220018b89a27989773693c6eecdbb4eba46c9597349d2447a0a3236b132d0c510fa012103401de216d77bd40a66b3188ba102cda4220523594639bc1663378a47f15ff092feffffffe396b8270b3633e2582b7bd82f77441eff3ee8487a05e39a171dd1751d8d3f33000000006a47304402205c4a2ec3496c0b46152cd648c4798a08737068b489b40e4b062023670bd32fad022052c772e892c4b3eee294bc9cc550d608f00de4c80a70bbd05a34fbe7022565de012103abb83dcf9e314d3287757f21a89695b60865de5f7c1a588e79bcddfbe99ee77bfeffffff0276beff06000000001976a914c0a095e731f1ff45f9618aebbdc678473aded26b88ac89a64601000000001976a914fd6274cc980361d794f7b6be42a48219a90e64ae88ac0b490800", "vin": [{"sequence": 4294967294, "scriptSig": {"hex": "47304402204a7445422864c976ef2e0c567b7157f8d4d90694432d6e4089f905822cd7d8e702205e58b49642cb84b04427c1b2860a0bab4c1dc674c96b6e2f3d4da380453d13cb012102d361061258436367f6b2af9e87b35fa03227abf546ad71dd95cfc4a63086e952", "asm": "304402204a7445422864c976ef2e0c567b7157f8d4d90694432d6e4089f905822cd7d8e702205e58b49642cb84b04427c1b2860a0bab4c1dc674c96b6e2f3d4da380453d13cb[ALL] 02d361061258436367f6b2af9e87b35fa03227abf546ad71dd95cfc4a63086e952"}, "vout": 1, "txid": "3b691ca73b35e60dc240c93ff7c0079b4095a7bbaaa588706b038ba48b2c3860"}, {"sequence": 4294967294, "scriptSig": {"hex": "47304402203041b0e74549c47170d6e57055501ec998375042cf4d038d5f3a4541a1718d6102203c71ec2f0204e4f62ae94d2a4e89c673bc598976aaaf903a1bd69a889ed60a080121039fe2551a088a69b5b0d8d1c5b25d6bc1f8d8855c7eff521eaa68d59743d428a5", "asm": "304402203041b0e74549c47170d6e57055501ec998375042cf4d038d5f3a4541a1718d6102203c71ec2f0204e4f62ae94d2a4e89c673bc598976aaaf903a1bd69a889ed60a08[ALL] 039fe2551a088a69b5b0d8d1c5b25d6bc1f8d8855c7eff521eaa68d59743d428a5"}, "vout": 72, "txid": "dd012a459d356f8ddc1dc48277cffd1adbb156c6a72f79e0b6315430b2a484a8"}, {"sequence": 4294967294, "scriptSig": {"hex": "4730440220678864288886db05e23a553485efe923cb3d8b61d47b59c64765c1deaf0201360220018b89a27989773693c6eecdbb4eba46c9597349d2447a0a3236b132d0c510fa012103401de216d77bd40a66b3188ba102cda4220523594639bc1663378a47f15ff092", "asm": "30440220678864288886db05e23a553485efe923cb3d8b61d47b59c64765c1deaf0201360220018b89a27989773693c6eecdbb4eba46c9597349d2447a0a3236b132d0c510fa[ALL] 03401de216d77bd40a66b3188ba102cda4220523594639bc1663378a47f15ff092"}, "vout": 2, "txid": "8105b179db585970ae31cd0e832c4b5a8bb4883b1f9eda961f3c7b4ee218d7cb"}, {"sequence": 4294967294, "scriptSig": {"hex": "47304402205c4a2ec3496c0b46152cd648c4798a08737068b489b40e4b062023670bd32fad022052c772e892c4b3eee294bc9cc550d608f00de4c80a70bbd05a34fbe7022565de012103abb83dcf9e314d3287757f21a89695b60865de5f7c1a588e79bcddfbe99ee77b", "asm": "304402205c4a2ec3496c0b46152cd648c4798a08737068b489b40e4b062023670bd32fad022052c772e892c4b3eee294bc9cc550d608f00de4c80a70bbd05a34fbe7022565de[ALL] 03abb83dcf9e314d3287757f21a89695b60865de5f7c1a588e79bcddfbe99ee77b"}, "vout": 0, "txid": "333f8d1d75d11d179ae3057a48e83eff1e44772fd87b2b58e233360b27b896e3"}], "txid": "aee36153e3664844387ccec503941f97da7506db0b2d679dacb91f7651f161ba", "blocktime": 1537870268, "version": 2, "confirmations": 11519, "time": 1537870268, "locktime": 542987, "vsize": 666, "size": 666}