{"hash": "379d77cf71c0779f5c44b0ea9218bf75c9b2ab4a24c6a1619c48b8db2f2bafd3", "blockhash": "0000000000000000000baef3f32e3676a92c3b2e5da21b426e4f302fc371ce76", "vout": [{"scriptPubKey": {"reqSigs": 1, "hex": "a91490e99e8d26d05ead3c05430c292a887bbff695f587", "addresses": ["3EuF6KjJawxTiUsea3Sc8hsLUGmVEf7Xg5"], "asm": "OP_HASH160 90e99e8d26d05ead3c05430c292a887bbff695f5 OP_EQUAL", "type": "scripthash"}, "value": 0.00113865, "n": 0}, {"scriptPubKey": {"type": "nulldata", "hex": "6a146f6d6e69000000000000001f0000000005f5e100", "asm": "OP_RETURN 6f6d6e69000000000000001f0000000005f5e100"}, "value": 0.0, "n": 1}, {"scriptPubKey": {"reqSigs": 1, "hex": "a91490e99e8d26d05ead3c05430c292a887bbff695f587", "addresses": ["3EuF6KjJawxTiUsea3Sc8hsLUGmVEf7Xg5"], "asm": "OP_HASH160 90e99e8d26d05ead3c05430c292a887bbff695f5 OP_EQUAL", "type": "scripthash"}, "value": 5.4e-06, "n": 2}], "hex": "01000000000102c37d12befbe66b767f4cca332c4703028951ae84ba4c2df66abb6a688c35810d0000000017160014f6e1792e7852ebd5ae795c2a25d579acdfadec2dffffffffc37d12befbe66b767f4cca332c4703028951ae84ba4c2df66abb6a688c35810d0200000017160014f6e1792e7852ebd5ae795c2a25d579acdfadec2dffffffff03c9bc01000000000017a91490e99e8d26d05ead3c05430c292a887bbff695f5870000000000000000166a146f6d6e69000000000000001f0000000005f5e1001c0200000000000017a91490e99e8d26d05ead3c05430c292a887bbff695f587024730440220629a2f8cd697b85e5302bcff1dc3b22f8508f521a9255f68a58467cd365d7d45022054056c58cf71a6f65c0901d98c09a44c8a78a13ebc7c8f0f2983667e97bd0f04012103f1cf988013a33e053d1e9bd54c4798c1a6dc362a5b2798b5344049fca40e2db00247304402201748411e0923dd6cc56547bf93fd12fec7d9c83a6058780f4601fa857f6f2450022078e9b964623f037e6e45b7fff2b620acf9badf4c2ee4bbb0c0952e8f0d0d93d6012103f1cf988013a33e053d1e9bd54c4798c1a6dc362a5b2798b5344049fca40e2db000000000", "vin": [{"txinwitness": ["30440220629a2f8cd697b85e5302bcff1dc3b22f8508f521a9255f68a58467cd365d7d45022054056c58cf71a6f65c0901d98c09a44c8a78a13ebc7c8f0f2983667e97bd0f0401", "03f1cf988013a33e053d1e9bd54c4798c1a6dc362a5b2798b5344049fca40e2db0"], "sequence": 4294967295, "scriptSig": {"hex": "160014f6e1792e7852ebd5ae795c2a25d579acdfadec2d", "asm": "0014f6e1792e7852ebd5ae795c2a25d579acdfadec2d"}, "vout": 0, "txid": "0d81358c686abb6af62d4cba84ae51890203472c33ca4c7f766be6fbbe127dc3"}, {"txinwitness": ["304402201748411e0923dd6cc56547bf93fd12fec7d9c83a6058780f4601fa857f6f2450022078e9b964623f037e6e45b7fff2b620acf9badf4c2ee4bbb0c0952e8f0d0d93d601", "03f1cf988013a33e053d1e9bd54c4798c1a6dc362a5b2798b5344049fca40e2db0"], "sequence": 4294967295, "scriptSig": {"hex": "160014f6e1792e7852ebd5ae795c2a25d579acdfadec2d", "asm": "0014f6e1792e7852ebd5ae795c2a25d579acdfadec2d"}, "vout": 2, "txid": "0d81358c686abb6af62d4cba84ae51890203472c33ca4c7f766be6fbbe127dc3"}], "txid": "aee8509ade215d5bdd2cc72763c25b42947d6e7af7854fc59d25a22470c16fe0", "blocktime": 1537876114, "version": 1, "confirmations": 11460, "time": 1537876114, "locktime": 0, "vsize": 287, "size": 449}