{"hash": "0d51a84093de56948b2f44c17251347d35b3765892759fdd1e12cf5b2a55206d", "blockhash": "0000000000000000001e0dab787dd257d1dbfcb92a98c2207d5e1078be1f4165", "vout": [{"scriptPubKey": {"reqSigs": 1, "hex": "76a9141b50045d8c0edf965f19597ad06e877523c96bd588ac", "addresses": ["13VR6ryjF2y3qwpz8FGffAH5RRS3ihC6Ja"], "asm": "OP_DUP OP_HASH160 1b50045d8c0edf965f19597ad06e877523c96bd5 OP_EQUALVERIFY OP_CHECKSIG", "type": "pubkeyhash"}, "value": 8.882e-05, "n": 0}], "hex": "0100000000010111e58260a900e8b092bfe37f21d693af67442e54ac60dd1e3bffdd323c53ce8c0000000017160014002ee0313221fafcd616de8d37071a32625d8957ffffffff01b2220000000000001976a9141b50045d8c0edf965f19597ad06e877523c96bd588ac02483045022100ba3f03d4c4efd286ce649315f0e37be5e4afb20d0018a45ac9d9295813d70d8f02203ea5fd61497e349919b2d306bcf76ba35437a14eea78188a3a84d76ca0d66abe0121027d172fe82f6174c60cb0397fd9e358ef4bedea269248e6d3ae1855328f5db58f00000000", "vin": [{"txinwitness": ["3045022100ba3f03d4c4efd286ce649315f0e37be5e4afb20d0018a45ac9d9295813d70d8f02203ea5fd61497e349919b2d306bcf76ba35437a14eea78188a3a84d76ca0d66abe01", "027d172fe82f6174c60cb0397fd9e358ef4bedea269248e6d3ae1855328f5db58f"], "sequence": 4294967295, "scriptSig": {"hex": "160014002ee0313221fafcd616de8d37071a32625d8957", "asm": "0014002ee0313221fafcd616de8d37071a32625d8957"}, "vout": 0, "txid": "8cce533c32ddff3b1edd60ac542e4467af93d6217fe3bf92b0e800a96082e511"}], "txid": "aeeaaa1648eb7162eef92535f1da0d1b393fb951c612bf0cca9012462c8b38ba", "blocktime": 1537872475, "version": 1, "confirmations": 11486, "time": 1537872475, "locktime": 0, "vsize": 136, "size": 218}