{"hash": "aeea4ff6e9288e539cc7812c44662231899507ebf394763ea5e72e32fd9e5892", "blockhash": "0000000000000000000baef3f32e3676a92c3b2e5da21b426e4f302fc371ce76", "vout": [{"scriptPubKey": {"reqSigs": 1, "hex": "a914823b803a6debd8f5c13cac768c3f962b05e985c087", "addresses": ["3DZd3gAkzu71RMJt9ag6J5GXkbws2BLhF5"], "asm": "OP_HASH160 823b803a6debd8f5c13cac768c3f962b05e985c0 OP_EQUAL", "type": "scripthash"}, "value": 0.0014, "n": 0}, {"scriptPubKey": {"reqSigs": 1, "hex": "76a914dcc84fbabf90cf5c0c9308d2613aa06c621ffed188ac", "addresses": ["1M8Pd5yXjdFfZ1HLmg7AxLzEhpYNqyt9Vm"], "asm": "OP_DUP OP_HASH160 dcc84fbabf90cf5c0c9308d2613aa06c621ffed1 OP_EQUALVERIFY OP_CHECKSIG", "type": "pubkeyhash"}, "value": 0.0206097, "n": 1}], "hex": "0100000001f3544d5c2308a7fccbf87f00683b1bdaec3f3c555001f40659f30f382b0a727b010000006a473044022065d38b6d271f74fc42b5aaabd3ca49a57030f84794456cb7f15dc61421323c9b02207d570b21de2d4bb3b1c7e09b322d8938616de47ae3ccfc414ed45a4cb67d2ad00121038c61d30ea283f74bd9dbc402cc7252cb4dc231f3eb4b281569b78d23a38208e7ffffffff02e02202000000000017a914823b803a6debd8f5c13cac768c3f962b05e985c087aa721f00000000001976a914dcc84fbabf90cf5c0c9308d2613aa06c621ffed188ac00000000", "vin": [{"sequence": 4294967295, "scriptSig": {"hex": "473044022065d38b6d271f74fc42b5aaabd3ca49a57030f84794456cb7f15dc61421323c9b02207d570b21de2d4bb3b1c7e09b322d8938616de47ae3ccfc414ed45a4cb67d2ad00121038c61d30ea283f74bd9dbc402cc7252cb4dc231f3eb4b281569b78d23a38208e7", "asm": "3044022065d38b6d271f74fc42b5aaabd3ca49a57030f84794456cb7f15dc61421323c9b02207d570b21de2d4bb3b1c7e09b322d8938616de47ae3ccfc414ed45a4cb67d2ad0[ALL] 038c61d30ea283f74bd9dbc402cc7252cb4dc231f3eb4b281569b78d23a38208e7"}, "vout": 1, "txid": "7b720a2b380ff35906f40150553c3fecda1b3b68007ff8cbfca708235c4d54f3"}], "txid": "aeea4ff6e9288e539cc7812c44662231899507ebf394763ea5e72e32fd9e5892", "blocktime": 1537876114, "version": 1, "confirmations": 11460, "time": 1537876114, "locktime": 0, "vsize": 223, "size": 223}