{"hash": "b5b39818797cef69d7ea9dd9a134b5b8035890b1ee33f2dcce905fca445a33d7", "blockhash": "000000000000000000022b45ed06c6f4ccd3cf7fb5ba4856ebd2e58215665228", "vout": [{"scriptPubKey": {"reqSigs": 1, "hex": "a91469f374109a9e7c7aed69ef5dddd2e7c5ec69913f87", "addresses": ["3BMEX86n4mSuFL92z5Ui8FhHdVmcFgcwUN"], "asm": "OP_HASH160 69f374109a9e7c7aed69ef5dddd2e7c5ec69913f OP_EQUAL", "type": "scripthash"}, "value": 0.00314636, "n": 0}, {"scriptPubKey": {"reqSigs": 1, "hex": "0014116679b18540c6474658b3bffa77883377017306", "addresses": ["bc1qz9n8nvv9grryw3jckwll5augxdmszucxnved2f"], "asm": "0 116679b18540c6474658b3bffa77883377017306", "type": "witness_v0_keyhash"}, "value": 9.745e-05, "n": 1}], "hex": "01000000000101e95065b83891bdbca43a09218430bea7230ee6dcdcd29cda000b8b0884b1598e0000000000ffffffff020ccd04000000000017a91469f374109a9e7c7aed69ef5dddd2e7c5ec69913f871126000000000000160014116679b18540c6474658b3bffa7788337701730602483045022100e144bd4c1d22b8dbe52debad62c2242d2737ab35ff5c82941e766b585b3051d30220109372746db45331a5a04936c6fca0cbf632cd1a3e305aeb4b709743c27435cb01210291cb89b0ed764b06dec4ca972ab52dc6c75418a6b8b230ef94de0ed36d54bcab00000000", "vin": [{"txinwitness": ["3045022100e144bd4c1d22b8dbe52debad62c2242d2737ab35ff5c82941e766b585b3051d30220109372746db45331a5a04936c6fca0cbf632cd1a3e305aeb4b709743c27435cb01", "0291cb89b0ed764b06dec4ca972ab52dc6c75418a6b8b230ef94de0ed36d54bcab"], "sequence": 4294967295, "scriptSig": {"hex": "", "asm": ""}, "vout": 0, "txid": "8e59b184088b0b00da9cd2dcdce60e23a7be308421093aa4bcbd9138b86550e9"}], "txid": "aef495949107e0a900bba7b8c6248a9fa5a99701386e38b86c0d87c630025e59", "blocktime": 1537869901, "version": 1, "confirmations": 11523, "time": 1537869901, "locktime": 0, "vsize": 142, "size": 224}