{"hash": "aef497ae00112b0f95aa97983952f3c2eab41c9826b7fd4c109d5094f83ad73f", "blockhash": "00000000000000000017f5eb5941039fbcee6240d03bc1f2f8e35350df66a1d8", "vout": [{"scriptPubKey": {"reqSigs": 1, "hex": "a9142d5fe52d1bf12c7278223f693c4b07b23ae2289887", "addresses": ["35pwD6LPRtukJd6cZXSo4VVR1XUytvBViS"], "asm": "OP_HASH160 2d5fe52d1bf12c7278223f693c4b07b23ae22898 OP_EQUAL", "type": "scripthash"}, "value": 0.00358295, "n": 0}], "hex": "010000000178aeda69a748ea4e7039e03e28fb5b32c0f03d7cbac5d0c68abd124197c0f2dd0100000069463043022043cc6fa332e1d080479579932e17f4ce322696be80f509833115904b1200a133021f4f3fac5ebbb5555b7edaa3e8ba297a77cfbffb5c233b71f1898f2bb944bab50121024b66094ec321dd946ccf7cfe3ab79da748e42ecf1d42350f7bd7ea492b0a4720ffffffff01977705000000000017a9142d5fe52d1bf12c7278223f693c4b07b23ae228988700000000", "vin": [{"sequence": 4294967295, "scriptSig": {"hex": "463043022043cc6fa332e1d080479579932e17f4ce322696be80f509833115904b1200a133021f4f3fac5ebbb5555b7edaa3e8ba297a77cfbffb5c233b71f1898f2bb944bab50121024b66094ec321dd946ccf7cfe3ab79da748e42ecf1d42350f7bd7ea492b0a4720", "asm": "3043022043cc6fa332e1d080479579932e17f4ce322696be80f509833115904b1200a133021f4f3fac5ebbb5555b7edaa3e8ba297a77cfbffb5c233b71f1898f2bb944bab5[ALL] 024b66094ec321dd946ccf7cfe3ab79da748e42ecf1d42350f7bd7ea492b0a4720"}, "vout": 1, "txid": "ddf2c0974112bd8ac6d0c5ba7c3df0c0325bfb283ee039704eea48a769daae78"}], "txid": "aef497ae00112b0f95aa97983952f3c2eab41c9826b7fd4c109d5094f83ad73f", "blocktime": 1537874412, "version": 1, "confirmations": 11467, "time": 1537874412, "locktime": 0, "vsize": 188, "size": 188}