{"hash": "aef52d9c313ce12f1796dcac0134999e525a6d100bc81999b2b76651f0ecc130", "blockhash": "0000000000000000000e13cef7c366c0283d82e591d1acd082e914b08063cdf1", "vout": [{"scriptPubKey": {"reqSigs": 1, "hex": "76a914aea1b8084eb3bda7fb684d186888d67429f50ffd88ac", "addresses": ["1GvNJoaRNzUM2kLBhkQBSEKquTSf2b7yFb"], "asm": "OP_DUP OP_HASH160 aea1b8084eb3bda7fb684d186888d67429f50ffd OP_EQUALVERIFY OP_CHECKSIG", "type": "pubkeyhash"}, "value": 0.00360029, "n": 0}, {"scriptPubKey": {"reqSigs": 1, "hex": "76a91493edf54faf3533be698d8dfbab5fadf06aff6e6888ac", "addresses": ["1EVBPq2BQLfEogJussmkTeYRMiHfJVJtiU"], "asm": "OP_DUP OP_HASH160 93edf54faf3533be698d8dfbab5fadf06aff6e68 OP_EQUALVERIFY OP_CHECKSIG", "type": "pubkeyhash"}, "value": 0.01172208, "n": 1}], "hex": "01000000018199348ca4cac9fa2368c1331a426fe0a720d590e1247d7ca52500eb02617588000000006a47304402202c11a768e921feb24fff00b1c6ec068a79373f70ff8bb26486760afeb27db7c502204c98cd8490007ed313f04d1db31846ead00ddd9a9daf81e1cfcbed2b6e5ab68a012103c18725ba93814b99967c0888e64d369c1845828cba8e10a53d59a99a9ec95da4ffffffff025d7e0500000000001976a914aea1b8084eb3bda7fb684d186888d67429f50ffd88acf0e21100000000001976a91493edf54faf3533be698d8dfbab5fadf06aff6e6888ac00000000", "vin": [{"sequence": 4294967295, "scriptSig": {"hex": "47304402202c11a768e921feb24fff00b1c6ec068a79373f70ff8bb26486760afeb27db7c502204c98cd8490007ed313f04d1db31846ead00ddd9a9daf81e1cfcbed2b6e5ab68a012103c18725ba93814b99967c0888e64d369c1845828cba8e10a53d59a99a9ec95da4", "asm": "304402202c11a768e921feb24fff00b1c6ec068a79373f70ff8bb26486760afeb27db7c502204c98cd8490007ed313f04d1db31846ead00ddd9a9daf81e1cfcbed2b6e5ab68a[ALL] 03c18725ba93814b99967c0888e64d369c1845828cba8e10a53d59a99a9ec95da4"}, "vout": 0, "txid": "88756102eb0025a57c7d24e190d520a7e06f421a33c16823fac9caa48c349981"}], "txid": "aef52d9c313ce12f1796dcac0134999e525a6d100bc81999b2b76651f0ecc130", "blocktime": 1537871767, "version": 1, "confirmations": 11495, "time": 1537871767, "locktime": 0, "vsize": 225, "size": 225}