{"hash": "7235fbff978fd70f368a124ad9687524a99314c539511864f406e9ef23c1877c", "blockhash": "0000000000000000001cda96e906b7601b7a6fb1a3b62bca570a9e5d8f4b3de1", "vout": [{"scriptPubKey": {"reqSigs": 1, "hex": "a91469f375c0c65dc6db129ddd7a10b1be2f6955749387", "addresses": ["3BMEXag7txmcQujf7JYVRTkxJ1SSVmSBgz"], "asm": "OP_HASH160 69f375c0c65dc6db129ddd7a10b1be2f69557493 OP_EQUAL", "type": "scripthash"}, "value": 0.04226367, "n": 0}, {"scriptPubKey": {"reqSigs": 1, "hex": "00143b4c5b0a8ff45425063853d8d341306c31ba2801", "addresses": ["bc1q8dx9kz50732z2p3c20vdxsfsdscm52qp7tezkp"], "asm": "0 3b4c5b0a8ff45425063853d8d341306c31ba2801", "type": "witness_v0_keyhash"}, "value": 0.03199492, "n": 1}], "hex": "010000000001013066ce46f72d84a5852717565db0aa0489c0bb50db1ebfa5e87fc527aa40881d0100000000ffffffff023f7d40000000000017a91469f375c0c65dc6db129ddd7a10b1be2f695574938704d23000000000001600143b4c5b0a8ff45425063853d8d341306c31ba28010247304402200d4e7d4ac8046c2d83347977d994858f539d38d0a1239fabb01f7d34ba2d76a7022076d35df20863deb292934c25d71f3a77662d8d21de7b017eb2e805d4a7d7403401210257e7be9829261a1c0c16a734f9f2cb5df6228224ccbfcf01702d7dc5694bf50500000000", "vin": [{"txinwitness": ["304402200d4e7d4ac8046c2d83347977d994858f539d38d0a1239fabb01f7d34ba2d76a7022076d35df20863deb292934c25d71f3a77662d8d21de7b017eb2e805d4a7d7403401", "0257e7be9829261a1c0c16a734f9f2cb5df6228224ccbfcf01702d7dc5694bf505"], "sequence": 4294967295, "scriptSig": {"hex": "", "asm": ""}, "vout": 1, "txid": "1d8840aa27c57fe8a5bf1edb50bbc08904aab05d56172785a5842df746ce6630"}], "txid": "aef7b66b15392df7e9a1b15f42a541cd7717f1991ff6b818719485c55b5758a6", "blocktime": 1537873282, "version": 1, "confirmations": 11484, "time": 1537873282, "locktime": 0, "vsize": 142, "size": 223}