{"hash": "73baacd9b2173c591c7dda1c1627fc784f086cfd09fb9cbb4622fb185b716d29", "blockhash": "0000000000000000001cda96e906b7601b7a6fb1a3b62bca570a9e5d8f4b3de1", "vout": [{"scriptPubKey": {"reqSigs": 1, "hex": "76a914a8a68ef591f53761779541b9fcdff99d7086548d88ac", "addresses": ["1GNk3uogiarHpqsmm2wC7JHnTTorNVKogW"], "asm": "OP_DUP OP_HASH160 a8a68ef591f53761779541b9fcdff99d7086548d OP_EQUALVERIFY OP_CHECKSIG", "type": "pubkeyhash"}, "value": 0.001746, "n": 0}, {"scriptPubKey": {"reqSigs": 1, "hex": "a914c29fb5babd24dde0da0f3bf196b767916e32b7bd87", "addresses": ["3KS6LbWsgLxPnwXTbLwfFz2UKXChQXToPN"], "asm": "OP_HASH160 c29fb5babd24dde0da0f3bf196b767916e32b7bd OP_EQUAL", "type": "scripthash"}, "value": 0.00270804, "n": 1}], "hex": "01000000000101e08fe72c3b4faf4f248ad4076ee12ecb02cba34b085e568f3c6c4e555651801301000000171600141e37eed247904984f2c4e9dfcffd620121329198fdffffff0208aa0200000000001976a914a8a68ef591f53761779541b9fcdff99d7086548d88acd42104000000000017a914c29fb5babd24dde0da0f3bf196b767916e32b7bd8702483045022100b7fd4979df5f4bed5d101c4a609d20b1e683ad40b77d3f51fc96a594496ef062022054c736cea2f793c75c54fdaa973ef7d37f001cdf0954b09bf4a8d63c1698770d012103949c45d1a3d5c96515a4dad26e063f7775a1e625ac00709d61363328b8584b3c13490800", "vin": [{"txinwitness": ["3045022100b7fd4979df5f4bed5d101c4a609d20b1e683ad40b77d3f51fc96a594496ef062022054c736cea2f793c75c54fdaa973ef7d37f001cdf0954b09bf4a8d63c1698770d01", "03949c45d1a3d5c96515a4dad26e063f7775a1e625ac00709d61363328b8584b3c"], "sequence": 4294967293, "scriptSig": {"hex": "1600141e37eed247904984f2c4e9dfcffd620121329198", "asm": "00141e37eed247904984f2c4e9dfcffd620121329198"}, "vout": 1, "txid": "13805156554e6c3c8f565e084ba3cb02cb2ee16e07d48a244faf4f3b2ce78fe0"}], "txid": "aef9488b86199cc4d692be63864e522d1f9d3984abe67c6e9fe448f5e5490df4", "blocktime": 1537873282, "version": 1, "confirmations": 11481, "time": 1537873282, "locktime": 542995, "vsize": 168, "size": 250}