{"hash": "aefa94de34853b7ba0ec904a8f52158289664a5ca07ad1e633d7b6db5544af94", "blockhash": "0000000000000000000baef3f32e3676a92c3b2e5da21b426e4f302fc371ce76", "vout": [{"scriptPubKey": {"reqSigs": 1, "hex": "a914af4041cc6f34707caebc5ae8e1da35fbcfedbe5d87", "addresses": ["3Hff9meBotFWQP7ugcSs8epExL86BxDpWg"], "asm": "OP_HASH160 af4041cc6f34707caebc5ae8e1da35fbcfedbe5d OP_EQUAL", "type": "scripthash"}, "value": 0.78325219, "n": 0}, {"scriptPubKey": {"reqSigs": 1, "hex": "76a914ea95f876e2169e39a850b8364f62226dac6c497088ac", "addresses": ["1NPNn2VjbMcUA89rToqTRMnuB66zct3XRf"], "asm": "OP_DUP OP_HASH160 ea95f876e2169e39a850b8364f62226dac6c4970 OP_EQUALVERIFY OP_CHECKSIG", "type": "pubkeyhash"}, "value": 0.22353277, "n": 1}], "hex": "01000000022ba9b07b79866a7258dd83a2755ec1eda5c2bec3a05fc2b96f3790a411dc152b010000006b483045022100b9ec87a427278867734e0af214dd2b0bc1c38f28a97b81953af600601dbe46e202206aceba60bbee020e5e45e294bfaebde8278efe205eb785139d4cf96c8d0baf54012102691a43b9426beaac3172adca99016548d7c8a79ccfda5e71c1756615cd05d793ffffff0062d123481ec2fcd4aa03a3c1abfc456ebca44a30b4cc6dd289ce5b4b409918f8000000006b48304502210087de1aff02262d847896e10608e5438ee2286ada568b69dd4e322e0b6fd507b402201214c9ae041b0dc704ff1f2ecdb0e5e9733be065454ee9a942bfd708c51ed4760121031222b2b70a19521fd9bf2adaa797ca2006bd970157f61bd1d763af55142a8105ffffff0002e325ab040000000017a914af4041cc6f34707caebc5ae8e1da35fbcfedbe5d877d155501000000001976a914ea95f876e2169e39a850b8364f62226dac6c497088ac00000000", "vin": [{"sequence": 16777215, "scriptSig": {"hex": "483045022100b9ec87a427278867734e0af214dd2b0bc1c38f28a97b81953af600601dbe46e202206aceba60bbee020e5e45e294bfaebde8278efe205eb785139d4cf96c8d0baf54012102691a43b9426beaac3172adca99016548d7c8a79ccfda5e71c1756615cd05d793", "asm": "3045022100b9ec87a427278867734e0af214dd2b0bc1c38f28a97b81953af600601dbe46e202206aceba60bbee020e5e45e294bfaebde8278efe205eb785139d4cf96c8d0baf54[ALL] 02691a43b9426beaac3172adca99016548d7c8a79ccfda5e71c1756615cd05d793"}, "vout": 1, "txid": "2b15dc11a490376fb9c25fa0c3bec2a5edc15e75a283dd58726a86797bb0a92b"}, {"sequence": 16777215, "scriptSig": {"hex": "48304502210087de1aff02262d847896e10608e5438ee2286ada568b69dd4e322e0b6fd507b402201214c9ae041b0dc704ff1f2ecdb0e5e9733be065454ee9a942bfd708c51ed4760121031222b2b70a19521fd9bf2adaa797ca2006bd970157f61bd1d763af55142a8105", "asm": "304502210087de1aff02262d847896e10608e5438ee2286ada568b69dd4e322e0b6fd507b402201214c9ae041b0dc704ff1f2ecdb0e5e9733be065454ee9a942bfd708c51ed476[ALL] 031222b2b70a19521fd9bf2adaa797ca2006bd970157f61bd1d763af55142a8105"}, "vout": 0, "txid": "f81899404b5bce89d26dccb4304aa4bc6e45fcabc1a303aad4fcc21e4823d162"}], "txid": "aefa94de34853b7ba0ec904a8f52158289664a5ca07ad1e633d7b6db5544af94", "blocktime": 1537876114, "version": 1, "confirmations": 11460, "time": 1537876114, "locktime": 0, "vsize": 372, "size": 372}