{"hash": "2f1adffb5969d01f447907c068d064a51d06b2a2868b40881985be941f56a1ad", "blockhash": "0000000000000000001cda96e906b7601b7a6fb1a3b62bca570a9e5d8f4b3de1", "vout": [{"scriptPubKey": {"reqSigs": 1, "hex": "a914efdbc181f136c838e11b9a5cdb047b92f33d54e887", "addresses": ["3PZGgJEyaF5mSkjLadBNX8mwtzJUMEfWxz"], "asm": "OP_HASH160 efdbc181f136c838e11b9a5cdb047b92f33d54e8 OP_EQUAL", "type": "scripthash"}, "value": 0.61418392, "n": 0}, {"scriptPubKey": {"reqSigs": 1, "hex": "76a9141a6cb9b77c12afff7582d823427d2e0ef088075488ac", "addresses": ["13QipN9tXa8LGd3Chs1v2Weh4KEndNC8ch"], "asm": "OP_DUP OP_HASH160 1a6cb9b77c12afff7582d823427d2e0ef0880754 OP_EQUALVERIFY OP_CHECKSIG", "type": "pubkeyhash"}, "value": 0.0016, "n": 1}], "hex": "020000000001010a2323253967f9e71a708697a7942ffffb4205bd07d060bb8e7cfb99538e1475010000001716001496e8f73cd4001382f98b8d9aeceb5a1c77e8d407feffffff02982ba9030000000017a914efdbc181f136c838e11b9a5cdb047b92f33d54e88700710200000000001976a9141a6cb9b77c12afff7582d823427d2e0ef088075488ac0247304402207b375d5f963999bb049db79d11d730a236971d6a4188ac873477a9caeaa7f87e022004478fa4178a0b6172db42106180947c5fba23d6ce06e0d0cc303eb860265a4201210276c7bbdce88a9ae98336462c7148c5d303ce878a271e2e56ecb241c2df4a5dc713490800", "vin": [{"txinwitness": ["304402207b375d5f963999bb049db79d11d730a236971d6a4188ac873477a9caeaa7f87e022004478fa4178a0b6172db42106180947c5fba23d6ce06e0d0cc303eb860265a4201", "0276c7bbdce88a9ae98336462c7148c5d303ce878a271e2e56ecb241c2df4a5dc7"], "sequence": 4294967294, "scriptSig": {"hex": "16001496e8f73cd4001382f98b8d9aeceb5a1c77e8d407", "asm": "001496e8f73cd4001382f98b8d9aeceb5a1c77e8d407"}, "vout": 1, "txid": "75148e5399fb7c8ebb60d007bd0542fbff2f94a79786701ae7f967392523230a"}], "txid": "aefa28d316588a65e932b7f575faeb556dcf798ee35f8c5ed1a47846503c1495", "blocktime": 1537873282, "version": 2, "confirmations": 11484, "time": 1537873282, "locktime": 542995, "vsize": 168, "size": 249}