{"hash": "3f0c12d714f4bcca7c081c11fcbc7bfc14fc5130f64a2b012c739c12287ff8ed", "blockhash": "0000000000000000001f76057863aec43deb6fa401d9628bb513d65a8098bfab", "vout": [{"scriptPubKey": {"reqSigs": 1, "hex": "001403abdb675139fe284ee7fe21e42f0cd4820ef061", "addresses": ["bc1qqw4ake6388lzsnh8lcs7gtcv6jpqaurpp8hl0m"], "asm": "0 03abdb675139fe284ee7fe21e42f0cd4820ef061", "type": "witness_v0_keyhash"}, "value": 5.955e-05, "n": 0}, {"scriptPubKey": {"reqSigs": 1, "hex": "76a914bab6c3091a07519edfe2a31274de0fdfeabd7c7588ac", "addresses": ["1J2FdCRXZYH5c5d6V4CjqneM9o44KLSDZj"], "asm": "OP_DUP OP_HASH160 bab6c3091a07519edfe2a31274de0fdfeabd7c75 OP_EQUALVERIFY OP_CHECKSIG", "type": "pubkeyhash"}, "value": 0.0015636, "n": 1}], "hex": "010000000001019c94206581be3693b24f6e54b9f1828ebf2b7a7f03f57acb6d03c1874e0a6e300100000000ffffffff02431700000000000016001403abdb675139fe284ee7fe21e42f0cd4820ef061c8620200000000001976a914bab6c3091a07519edfe2a31274de0fdfeabd7c7588ac02483045022100cdf0d5e3bc3fa8aeacd85443357f58bf28239123040b5c4ccbf31207cdf0738b02200e4e301a7f01349c5b410ac645483ade8d94cff2a8dd7b3082413efca316cf68012103f0db48fb44bfa36ed219b9e8429e2891e41943b1e071b6163e3d94262050bcb000000000", "vin": [{"txinwitness": ["3045022100cdf0d5e3bc3fa8aeacd85443357f58bf28239123040b5c4ccbf31207cdf0738b02200e4e301a7f01349c5b410ac645483ade8d94cff2a8dd7b3082413efca316cf6801", "03f0db48fb44bfa36ed219b9e8429e2891e41943b1e071b6163e3d94262050bcb0"], "sequence": 4294967295, "scriptSig": {"hex": "", "asm": ""}, "vout": 1, "txid": "306e0a4e87c1036dcb7af5037f7a2bbf8e82f1b9546e4fb29336be816520949c"}], "txid": "aefd404cf2eba3644497078a18b6c1575423545948c444f5a6a23231e3d233b4", "blocktime": 1537873891, "version": 1, "confirmations": 11478, "time": 1537873891, "locktime": 0, "vsize": 144, "size": 226}