{"hash": "aefe8d15604516af5bc53500f00181419636ecd0af5ddb089b7a6c29fffea394", "blockhash": "0000000000000000001cda96e906b7601b7a6fb1a3b62bca570a9e5d8f4b3de1", "vout": [{"scriptPubKey": {"reqSigs": 1, "hex": "76a914e5b7858b632812775e92c60bdb28b7274e92adb288ac", "addresses": ["1MwdbEn1ijHAYw64RqZ2K4EY5E9aBTopAJ"], "asm": "OP_DUP OP_HASH160 e5b7858b632812775e92c60bdb28b7274e92adb2 OP_EQUALVERIFY OP_CHECKSIG", "type": "pubkeyhash"}, "value": 0.68687972, "n": 0}], "hex": "01000000025ffbdb047f58b85dd7f95a4c291a4c92c9efc224ba7f78920a068d8f40e4bf02020000006b483045022100fed01c7d7285399ccde976cb60c87e47532b4ce046ec4de47dd6a73da12c6666022026d7c2291d6b577f7c503c944dd05b2ff1647c0c15124b1762999ee10077464e0121034e04534027bb66bfcecf8675ba0721dde8c094d97a61a55e68c3dd1c16b5650cffffffff53d025482fd6d440bf41a1d8e79fcfc06279040ecb15fa47555f3ca2521581ae020000006b483045022100d8714684d750b53ea5f157480f4065d1ed0ec1bfea450def119b3c6e95d54361022003980a5d8a90adc2ecae2a54fa5e1b681f997ac6714c43683a84d5f58486440b012102d68ae88b5b294c2d46b9274537165a6e1eb43af8c28d3562a6fe82b7a64bf652ffffffff0164181804000000001976a914e5b7858b632812775e92c60bdb28b7274e92adb288ac00000000", "vin": [{"sequence": 4294967295, "scriptSig": {"hex": "483045022100fed01c7d7285399ccde976cb60c87e47532b4ce046ec4de47dd6a73da12c6666022026d7c2291d6b577f7c503c944dd05b2ff1647c0c15124b1762999ee10077464e0121034e04534027bb66bfcecf8675ba0721dde8c094d97a61a55e68c3dd1c16b5650c", "asm": "3045022100fed01c7d7285399ccde976cb60c87e47532b4ce046ec4de47dd6a73da12c6666022026d7c2291d6b577f7c503c944dd05b2ff1647c0c15124b1762999ee10077464e[ALL] 034e04534027bb66bfcecf8675ba0721dde8c094d97a61a55e68c3dd1c16b5650c"}, "vout": 2, "txid": "02bfe4408f8d060a92787fba24c2efc9924c1a294c5af9d75db8587f04dbfb5f"}, {"sequence": 4294967295, "scriptSig": {"hex": "483045022100d8714684d750b53ea5f157480f4065d1ed0ec1bfea450def119b3c6e95d54361022003980a5d8a90adc2ecae2a54fa5e1b681f997ac6714c43683a84d5f58486440b012102d68ae88b5b294c2d46b9274537165a6e1eb43af8c28d3562a6fe82b7a64bf652", "asm": "3045022100d8714684d750b53ea5f157480f4065d1ed0ec1bfea450def119b3c6e95d54361022003980a5d8a90adc2ecae2a54fa5e1b681f997ac6714c43683a84d5f58486440b[ALL] 02d68ae88b5b294c2d46b9274537165a6e1eb43af8c28d3562a6fe82b7a64bf652"}, "vout": 2, "txid": "ae811552a23c5f5547fa15cb0e047962c0cf9fe7d8a141bf40d4d62f4825d053"}], "txid": "aefe8d15604516af5bc53500f00181419636ecd0af5ddb089b7a6c29fffea394", "blocktime": 1537873282, "version": 1, "confirmations": 11483, "time": 1537873282, "locktime": 0, "vsize": 340, "size": 340}