{"hash": "af004bcfe029494c64441c65b522c355368de471a27d03e5125dd8d8247c4f36", "blockhash": "0000000000000000000baef3f32e3676a92c3b2e5da21b426e4f302fc371ce76", "vout": [{"scriptPubKey": {"type": "nulldata", "hex": "6a4c50000078080001990d277908cce9c0333419ac702940d64fa54d8eb2d19ed074892d00f8e85f129d8a3a213c51dc8285590798f4745baa1ade0613b2d236377c00bc9a9526289ac0f6612cd74e33776ee4", "asm": "OP_RETURN 000078080001990d277908cce9c0333419ac702940d64fa54d8eb2d19ed074892d00f8e85f129d8a3a213c51dc8285590798f4745baa1ade0613b2d236377c00bc9a9526289ac0f6612cd74e33776ee4"}, "value": 0.0, "n": 0}, {"scriptPubKey": {"reqSigs": 1, "hex": "76a91492e2a6f51543f71739a7509461ee522fef047e7f88ac", "addresses": ["1EPfB5SfGkeGDYb3KsNS8zVJeDux6Py1uu"], "asm": "OP_DUP OP_HASH160 92e2a6f51543f71739a7509461ee522fef047e7f OP_EQUALVERIFY OP_CHECKSIG", "type": "pubkeyhash"}, "value": 0.0008242, "n": 1}], "hex": "0100000001033c928d9894cef72448591382047d623cecf51e5c1536a1ed421db267dfc7e7010000006b4830450221008f6ba1ade58eb61a51411957e8ffc0b1d7bef4352bcdbf19ec559d87907f5d790220053a7e4151ce093af579491d9a9076e7b818f8a8e15405feba7eb380617108d201210320f50e20d31423cf6c6088b32d381448237077be413d9c964a691b7198279350ffffffff020000000000000000536a4c50000078080001990d277908cce9c0333419ac702940d64fa54d8eb2d19ed074892d00f8e85f129d8a3a213c51dc8285590798f4745baa1ade0613b2d236377c00bc9a9526289ac0f6612cd74e33776ee4f4410100000000001976a91492e2a6f51543f71739a7509461ee522fef047e7f88ac00000000", "vin": [{"sequence": 4294967295, "scriptSig": {"hex": "4830450221008f6ba1ade58eb61a51411957e8ffc0b1d7bef4352bcdbf19ec559d87907f5d790220053a7e4151ce093af579491d9a9076e7b818f8a8e15405feba7eb380617108d201210320f50e20d31423cf6c6088b32d381448237077be413d9c964a691b7198279350", "asm": "30450221008f6ba1ade58eb61a51411957e8ffc0b1d7bef4352bcdbf19ec559d87907f5d790220053a7e4151ce093af579491d9a9076e7b818f8a8e15405feba7eb380617108d2[ALL] 0320f50e20d31423cf6c6088b32d381448237077be413d9c964a691b7198279350"}, "vout": 1, "txid": "e7c7df67b21d42eda136155c1ef5ec3c627d048213594824f7ce94988d923c03"}], "txid": "af004bcfe029494c64441c65b522c355368de471a27d03e5125dd8d8247c4f36", "blocktime": 1537876114, "version": 1, "confirmations": 11460, "time": 1537876114, "locktime": 0, "vsize": 284, "size": 284}