{"hash": "af0566a7032f3a30beb11ce0f5fc5d9cbfe741fe6494074c6ac0bbce89834134", "blockhash": "0000000000000000000baef3f32e3676a92c3b2e5da21b426e4f302fc371ce76", "vout": [{"scriptPubKey": {"reqSigs": 1, "hex": "76a914c9e074250ab283ca29afd2dee353831f4326a75988ac", "addresses": ["1KQRhsgBCbaDSyp9Ax24Q3VDGJFC8DvdUP"], "asm": "OP_DUP OP_HASH160 c9e074250ab283ca29afd2dee353831f4326a759 OP_EQUALVERIFY OP_CHECKSIG", "type": "pubkeyhash"}, "value": 0.00100131, "n": 0}, {"scriptPubKey": {"reqSigs": 1, "hex": "76a9148b15e5c97ca2a5e6f42b51d48a327af4a37d012488ac", "addresses": ["1DgRA8w1e5eHAiFcQcoZAT35TotMpLrUem"], "asm": "OP_DUP OP_HASH160 8b15e5c97ca2a5e6f42b51d48a327af4a37d0124 OP_EQUALVERIFY OP_CHECKSIG", "type": "pubkeyhash"}, "value": 0.00197435, "n": 1}], "hex": "0100000001dbe05dc4b2614ff7caeeaec54e98deb4f1c7ce1f9a2ec057494e09e31a9fc41d010000006b483045022100e1e5027fd5eb847bd5b4fc043f96a73bd8e236b77378b329b7d1786ff618fd4302204729c6e567df37fe49e555d37fc36e4d31b4f020bac6e73e0886a2e0e082bdd901210306026c3b601f2e7d8db67cf834f6e22ddf003e2afca5604bcbbbd4b904b4fdb4ffffffff0223870100000000001976a914c9e074250ab283ca29afd2dee353831f4326a75988ac3b030300000000001976a9148b15e5c97ca2a5e6f42b51d48a327af4a37d012488ac00000000", "vin": [{"sequence": 4294967295, "scriptSig": {"hex": "483045022100e1e5027fd5eb847bd5b4fc043f96a73bd8e236b77378b329b7d1786ff618fd4302204729c6e567df37fe49e555d37fc36e4d31b4f020bac6e73e0886a2e0e082bdd901210306026c3b601f2e7d8db67cf834f6e22ddf003e2afca5604bcbbbd4b904b4fdb4", "asm": "3045022100e1e5027fd5eb847bd5b4fc043f96a73bd8e236b77378b329b7d1786ff618fd4302204729c6e567df37fe49e555d37fc36e4d31b4f020bac6e73e0886a2e0e082bdd9[ALL] 0306026c3b601f2e7d8db67cf834f6e22ddf003e2afca5604bcbbbd4b904b4fdb4"}, "vout": 1, "txid": "1dc49f1ae3094e4957c02e9a1fcec7f1b4de984ec5aeeecaf74f61b2c45de0db"}], "txid": "af0566a7032f3a30beb11ce0f5fc5d9cbfe741fe6494074c6ac0bbce89834134", "blocktime": 1537876114, "version": 1, "confirmations": 11459, "time": 1537876114, "locktime": 0, "vsize": 226, "size": 226}