{"hash": "af06dd9ee04352648e9cb6706fce3712759bc001bed12f6fe57508e6f9e2e591", "blockhash": "0000000000000000000e13cef7c366c0283d82e591d1acd082e914b08063cdf1", "vout": [{"scriptPubKey": {"reqSigs": 1, "hex": "a9140e6272297719ee2bc833c6353b9629946701d3ed87", "addresses": ["3315KNcwNoKUB8y2fns3uEEyj7AfiUBcGg"], "asm": "OP_HASH160 0e6272297719ee2bc833c6353b9629946701d3ed OP_EQUAL", "type": "scripthash"}, "value": 4.116e-05, "n": 0}, {"scriptPubKey": {"reqSigs": 1, "hex": "a914ffc7249215c30bf17c83ce72fc8f85d488e42c5587", "addresses": ["3R1So9a6XBA2eihGhp7swh5UoWchvy49gF"], "asm": "OP_HASH160 ffc7249215c30bf17c83ce72fc8f85d488e42c55 OP_EQUAL", "type": "scripthash"}, "value": 4.11e-05, "n": 1}, {"scriptPubKey": {"reqSigs": 1, "hex": "76a9144be716ffdfd7befa39b1c1db665b60f0340e469c88ac", "addresses": ["17vLWnsrdmrswAuHNWukwN27GuCAZQrbMH"], "asm": "OP_DUP OP_HASH160 4be716ffdfd7befa39b1c1db665b60f0340e469c OP_EQUALVERIFY OP_CHECKSIG", "type": "pubkeyhash"}, "value": 0.00253743, "n": 2}], "hex": "01000000033ba4cd6475b5571631c94ef1eda35e6a021ba55550aefb591e7c493534e859fc01000000fdfe00004830450221009e06f8b8a772f4ff1a6dc01a536bcbb04464804a3590f9e86a227b4e7c1dba49022022d863d2688fe50640e74e651b5a566336593b647c90d39aad12cd91cd10d10c01483045022100c04b3aa370092378ac2e08b807f4c89aec66769eb10979f8221f4be7e3ba4f24022053068b9ab86692236225bb99409e9ba018776ebe8621da29d278b60e2602d900014c695221028d00820136c8cda3a259d35131783e3848ef8a65de3d80595bdda54c8bef1a5f2102cb7bc760b6c605a83fcbe9a12a6f2852f0cd3c7a12a9fa7400c400a401deae2a21031901e340af66fe1625e7da00409c5c56efb868a8395ce9cd73d2166e71702f8253ae330300007fc9c2fcec47ac6b99e0738799efa0b0351b8c5f3757d594c6e1a6937d1a4e5600000000fdfd0000483045022100eae9fbb959ecbbac7ccf6bc11e41b44ab431d72bfc8213b66c10811d107f21fd02207379ea65aec65c1be76c56a2ff9e7abc9a6fccdbd8f178bee9dfb40965081c8b0147304402202c3ccec632c7e7cc3f1cc93a3a604fd6476b27213b1d0693146538035b2dad47022037e9583ae20fa7ca85a460bcd272fbfebcebc6d510ec4ab7362c352255b68615014c695221027ce662d60e4adc68370cd3c699d2d89c9418dfac197db62bf2f9094e062ea8eb2102daee7d3b690558b0c5def450b0ada2861a3b742c2576c7f29335e94e066de6922102e97b4a757c178d34d8ca922ab5e0532d9cac99afee2fe1854b28b8c31a3078ee53aeffffffff5e571e1cc5cff96a072786d0632ff1c522451919dfcc2680190f802c8ad03c57020000006b483045022100a4da1298abba79af083176774b47efbce6eacfe7839e14afa1d297b518aad09602205d0218d5f52e4255f0e4870a981c5f22b28d6cb00a36a3f65de49e2836b7ea82012102ba99300161bd59867da813310f767bb0a53c5b8f83f73ced5d678c492894fcf6ffffffff03141000000000000017a9140e6272297719ee2bc833c6353b9629946701d3ed870e1000000000000017a914ffc7249215c30bf17c83ce72fc8f85d488e42c55872fdf0300000000001976a9144be716ffdfd7befa39b1c1db665b60f0340e469c88ac00000000", "vin": [{"sequence": 819, "scriptSig": {"hex": "004830450221009e06f8b8a772f4ff1a6dc01a536bcbb04464804a3590f9e86a227b4e7c1dba49022022d863d2688fe50640e74e651b5a566336593b647c90d39aad12cd91cd10d10c01483045022100c04b3aa370092378ac2e08b807f4c89aec66769eb10979f8221f4be7e3ba4f24022053068b9ab86692236225bb99409e9ba018776ebe8621da29d278b60e2602d900014c695221028d00820136c8cda3a259d35131783e3848ef8a65de3d80595bdda54c8bef1a5f2102cb7bc760b6c605a83fcbe9a12a6f2852f0cd3c7a12a9fa7400c400a401deae2a21031901e340af66fe1625e7da00409c5c56efb868a8395ce9cd73d2166e71702f8253ae", "asm": "0 30450221009e06f8b8a772f4ff1a6dc01a536bcbb04464804a3590f9e86a227b4e7c1dba49022022d863d2688fe50640e74e651b5a566336593b647c90d39aad12cd91cd10d10c[ALL] 3045022100c04b3aa370092378ac2e08b807f4c89aec66769eb10979f8221f4be7e3ba4f24022053068b9ab86692236225bb99409e9ba018776ebe8621da29d278b60e2602d900[ALL] 5221028d00820136c8cda3a259d35131783e3848ef8a65de3d80595bdda54c8bef1a5f2102cb7bc760b6c605a83fcbe9a12a6f2852f0cd3c7a12a9fa7400c400a401deae2a21031901e340af66fe1625e7da00409c5c56efb868a8395ce9cd73d2166e71702f8253ae"}, "vout": 1, "txid": "fc59e83435497c1e59fbae5055a51b026a5ea3edf14ec9311657b57564cda43b"}, {"sequence": 4294967295, "scriptSig": {"hex": "00483045022100eae9fbb959ecbbac7ccf6bc11e41b44ab431d72bfc8213b66c10811d107f21fd02207379ea65aec65c1be76c56a2ff9e7abc9a6fccdbd8f178bee9dfb40965081c8b0147304402202c3ccec632c7e7cc3f1cc93a3a604fd6476b27213b1d0693146538035b2dad47022037e9583ae20fa7ca85a460bcd272fbfebcebc6d510ec4ab7362c352255b68615014c695221027ce662d60e4adc68370cd3c699d2d89c9418dfac197db62bf2f9094e062ea8eb2102daee7d3b690558b0c5def450b0ada2861a3b742c2576c7f29335e94e066de6922102e97b4a757c178d34d8ca922ab5e0532d9cac99afee2fe1854b28b8c31a3078ee53ae", "asm": "0 3045022100eae9fbb959ecbbac7ccf6bc11e41b44ab431d72bfc8213b66c10811d107f21fd02207379ea65aec65c1be76c56a2ff9e7abc9a6fccdbd8f178bee9dfb40965081c8b[ALL] 304402202c3ccec632c7e7cc3f1cc93a3a604fd6476b27213b1d0693146538035b2dad47022037e9583ae20fa7ca85a460bcd272fbfebcebc6d510ec4ab7362c352255b68615[ALL] 5221027ce662d60e4adc68370cd3c699d2d89c9418dfac197db62bf2f9094e062ea8eb2102daee7d3b690558b0c5def450b0ada2861a3b742c2576c7f29335e94e066de6922102e97b4a757c178d34d8ca922ab5e0532d9cac99afee2fe1854b28b8c31a3078ee53ae"}, "vout": 0, "txid": "564e1a7d93a6e1c694d557375f8c1b35b0a0ef998773e0996bac47ecfcc2c97f"}, {"sequence": 4294967295, "scriptSig": {"hex": "483045022100a4da1298abba79af083176774b47efbce6eacfe7839e14afa1d297b518aad09602205d0218d5f52e4255f0e4870a981c5f22b28d6cb00a36a3f65de49e2836b7ea82012102ba99300161bd59867da813310f767bb0a53c5b8f83f73ced5d678c492894fcf6", "asm": "3045022100a4da1298abba79af083176774b47efbce6eacfe7839e14afa1d297b518aad09602205d0218d5f52e4255f0e4870a981c5f22b28d6cb00a36a3f65de49e2836b7ea82[ALL] 02ba99300161bd59867da813310f767bb0a53c5b8f83f73ced5d678c492894fcf6"}, "vout": 2, "txid": "573cd08a2c800f198026ccdf19194522c5f12f63d08627076af9cfc51c1e575e"}], "txid": "af06dd9ee04352648e9cb6706fce3712759bc001bed12f6fe57508e6f9e2e591", "blocktime": 1537871767, "version": 1, "confirmations": 11491, "time": 1537871767, "locktime": 0, "vsize": 849, "size": 849}