{"hash": "af125cd55165527f9abc7369de79720aa35416dffd61160e37358bf4c9e0eebe", "blockhash": "0000000000000000001cda96e906b7601b7a6fb1a3b62bca570a9e5d8f4b3de1", "vout": [{"scriptPubKey": {"reqSigs": 1, "hex": "76a9148d33eede522809bf4caa7abf5fd8bbd0cb836a8f88ac", "addresses": ["1DscVRTimMDAvLrbg2xzjD7e6LM7FW1mbA"], "asm": "OP_DUP OP_HASH160 8d33eede522809bf4caa7abf5fd8bbd0cb836a8f OP_EQUALVERIFY OP_CHECKSIG", "type": "pubkeyhash"}, "value": 0.2660881, "n": 0}, {"scriptPubKey": {"reqSigs": 1, "hex": "76a914be56db5f32c35e6b32b874da9f07ab6a0291f8b788ac", "addresses": ["1JMRSNc1PCXefwLrhLCm8DK26okc4KXNAT"], "asm": "OP_DUP OP_HASH160 be56db5f32c35e6b32b874da9f07ab6a0291f8b7 OP_EQUALVERIFY OP_CHECKSIG", "type": "pubkeyhash"}, "value": 5.52401482, "n": 1}], "hex": "01000000013e2f7c8f3207c2c3c588f154936b9985bc77c91d7de026bbe5c461af53d58c5a010000006a4730440220209b4fbb0831696114c5839fd933c3f1ce822673132f5a8e98aa21c2709dbf7c02201e5043e5668e1f0a04a9746bb9426ae87638dab7bd6f1f9ae27eef51cca619f90121021bbf206ed1db6ea382f2ff67e6ad7d6ff69121c5113264a6f5b0c9877b8972cdffffffff02aa049601000000001976a9148d33eede522809bf4caa7abf5fd8bbd0cb836a8f88ac4afaec20000000001976a914be56db5f32c35e6b32b874da9f07ab6a0291f8b788ac00000000", "vin": [{"sequence": 4294967295, "scriptSig": {"hex": "4730440220209b4fbb0831696114c5839fd933c3f1ce822673132f5a8e98aa21c2709dbf7c02201e5043e5668e1f0a04a9746bb9426ae87638dab7bd6f1f9ae27eef51cca619f90121021bbf206ed1db6ea382f2ff67e6ad7d6ff69121c5113264a6f5b0c9877b8972cd", "asm": "30440220209b4fbb0831696114c5839fd933c3f1ce822673132f5a8e98aa21c2709dbf7c02201e5043e5668e1f0a04a9746bb9426ae87638dab7bd6f1f9ae27eef51cca619f9[ALL] 021bbf206ed1db6ea382f2ff67e6ad7d6ff69121c5113264a6f5b0c9877b8972cd"}, "vout": 1, "txid": "5a8cd553af61c4e5bb26e07d1dc977bc85996b9354f188c5c3c207328f7c2f3e"}], "txid": "af125cd55165527f9abc7369de79720aa35416dffd61160e37358bf4c9e0eebe", "blocktime": 1537873282, "version": 1, "confirmations": 11485, "time": 1537873282, "locktime": 0, "vsize": 225, "size": 225}