{"hash": "62aa622233a402a8d0e17f31eea2511ee65ff5b813e5c26ad293e463dc13051f", "blockhash": "0000000000000000001f76057863aec43deb6fa401d9628bb513d65a8098bfab", "vout": [{"scriptPubKey": {"reqSigs": 1, "hex": "76a91496947cf87aa8fc899230a4bd10b41787eff4c4ed88ac", "addresses": ["1EjCEuy9Y2aeM2GfitBemWJW3qtjJjkfsA"], "asm": "OP_DUP OP_HASH160 96947cf87aa8fc899230a4bd10b41787eff4c4ed OP_EQUALVERIFY OP_CHECKSIG", "type": "pubkeyhash"}, "value": 0.00874747, "n": 0}, {"scriptPubKey": {"reqSigs": 1, "hex": "0014c0bdac02a99d277fd0ef884993b2fd983f0fb174", "addresses": ["bc1qcz76cq4fn5nhl5803pye8vhanqlslvt5mzwzpt"], "asm": "0 c0bdac02a99d277fd0ef884993b2fd983f0fb174", "type": "witness_v0_keyhash"}, "value": 0.00038044, "n": 1}], "hex": "01000000000101efdc1e10c966b73b32a57a0bc2ab33f8978488f8c4cc73ce72e6fc56ef846bbebf01000017160014fa2aeac05d1c55bc05e4231c9c9edcb66e68ca59ffffffff02fb580d00000000001976a91496947cf87aa8fc899230a4bd10b41787eff4c4ed88ac9c94000000000000160014c0bdac02a99d277fd0ef884993b2fd983f0fb17402483045022100ecd9fb008b409bed29165c70283b530bb6393d76a8814324adfb6be69655da6502204490e3e5e7496cc3119c7cd6b0c286a7ed86d34023234a53275e6e606451eed30121031af69e27afac4cfeeb0700d7d104f64214ba676cebf4db3ecf27dfd02356237a00000000", "vin": [{"txinwitness": ["3045022100ecd9fb008b409bed29165c70283b530bb6393d76a8814324adfb6be69655da6502204490e3e5e7496cc3119c7cd6b0c286a7ed86d34023234a53275e6e606451eed301", "031af69e27afac4cfeeb0700d7d104f64214ba676cebf4db3ecf27dfd02356237a"], "sequence": 4294967295, "scriptSig": {"hex": "160014fa2aeac05d1c55bc05e4231c9c9edcb66e68ca59", "asm": "0014fa2aeac05d1c55bc05e4231c9c9edcb66e68ca59"}, "vout": 447, "txid": "be6b84ef56fce672ce73ccc4f8888497f833abc20b7aa5323bb766c9101edcef"}], "txid": "af12256f7eb31dce6190e7d118485ce346b927f0cfe9c166f375320b2e7c2008", "blocktime": 1537873891, "version": 1, "confirmations": 11478, "time": 1537873891, "locktime": 0, "vsize": 167, "size": 249}