{"hash": "af14126ba2eb874cff8ec5730e6d41b6d6114848865aa26363023977be6cb767", "blockhash": "00000000000000000024a2167bbff67b0be802c0b01cdd79e6331c2be6459f87", "vout": [{"scriptPubKey": {"reqSigs": 1, "hex": "76a9142360bb536de5b5a0953c8c678f73eab4d3a1443d88ac", "addresses": ["14E4Xkh95AE38G8LposECg252iDAZeE3XK"], "asm": "OP_DUP OP_HASH160 2360bb536de5b5a0953c8c678f73eab4d3a1443d OP_EQUALVERIFY OP_CHECKSIG", "type": "pubkeyhash"}, "value": 0.015598, "n": 0}, {"scriptPubKey": {"reqSigs": 1, "hex": "76a9148afddbd15d5031a00172799716cc79fd2818a6ce88ac", "addresses": ["1DfvMt9DafJXwfAGqEqdKcY4axjx3AyHwz"], "asm": "OP_DUP OP_HASH160 8afddbd15d5031a00172799716cc79fd2818a6ce OP_EQUALVERIFY OP_CHECKSIG", "type": "pubkeyhash"}, "value": 0.35217929, "n": 1}], "hex": "010000000178c6ba7cd3fd29ef9e1bb7c7af502fb3f38437e69228c7a7629496da8628f683000000006a473044022072be71ea7a2383082f5a9275765d5109478acf620d7f400f283f03b7257bba720220690a0a510f2f407938eb5c6c2c526bb4243041fbb0979958eac02db0fed28ade012103343241cafc66ebfb0d07b5ee171af8fd6b9c4ca0c27f8dc955c1eadbe5bd0cf6ffffffff02f8cc1700000000001976a9142360bb536de5b5a0953c8c678f73eab4d3a1443d88ac09621902000000001976a9148afddbd15d5031a00172799716cc79fd2818a6ce88ac00000000", "vin": [{"sequence": 4294967295, "scriptSig": {"hex": "473044022072be71ea7a2383082f5a9275765d5109478acf620d7f400f283f03b7257bba720220690a0a510f2f407938eb5c6c2c526bb4243041fbb0979958eac02db0fed28ade012103343241cafc66ebfb0d07b5ee171af8fd6b9c4ca0c27f8dc955c1eadbe5bd0cf6", "asm": "3044022072be71ea7a2383082f5a9275765d5109478acf620d7f400f283f03b7257bba720220690a0a510f2f407938eb5c6c2c526bb4243041fbb0979958eac02db0fed28ade[ALL] 03343241cafc66ebfb0d07b5ee171af8fd6b9c4ca0c27f8dc955c1eadbe5bd0cf6"}, "vout": 0, "txid": "83f62886da969462a7c72892e63784f3b32f50afc7b71b9eef29fdd37cbac678"}], "txid": "af14126ba2eb874cff8ec5730e6d41b6d6114848865aa26363023977be6cb767", "blocktime": 1537870564, "version": 1, "confirmations": 11515, "time": 1537870564, "locktime": 0, "vsize": 225, "size": 225}