{"hash": "af15a46caa4ba468e963eb0bd0222e82978adf13229fb9ec92447eabd00ec7f7", "blockhash": "0000000000000000000baef3f32e3676a92c3b2e5da21b426e4f302fc371ce76", "vout": [{"scriptPubKey": {"reqSigs": 1, "hex": "a9147defe54c290e7a047a9c4307fe7d2f96bda5437187", "addresses": ["3DAummUGwhMv7F48FYSEsW8j5pqxgBfgDA"], "asm": "OP_HASH160 7defe54c290e7a047a9c4307fe7d2f96bda54371 OP_EQUAL", "type": "scripthash"}, "value": 0.00105, "n": 0}, {"scriptPubKey": {"reqSigs": 1, "hex": "76a914e980406100f1b02d9023620d15858ca5a5fb144c88ac", "addresses": ["1NHe5mQK8w5uu6QxqnWsd6M8fPLPiYGWzA"], "asm": "OP_DUP OP_HASH160 e980406100f1b02d9023620d15858ca5a5fb144c OP_EQUALVERIFY OP_CHECKSIG", "type": "pubkeyhash"}, "value": 0.06700904, "n": 1}], "hex": "01000000015ec847b5d1785b7a7569ad769b50ffbe7aa266d97080e2f1fda0011257b6ed1b010000006a47304402205b732704a964d21ae8983c7e8e3df33da8375ed4de931b7c8e29b59d18cce4ff022004041a2d0cdf345701bef94f9284192cbaec2e733a3ef3ccfc4e7ee342a4c5b9012103ad603f5d3610dce0c476cc5ff31b70d340cb842f4285d362fdb63d990e4c8e16ffffffff02289a01000000000017a9147defe54c290e7a047a9c4307fe7d2f96bda5437187683f6600000000001976a914e980406100f1b02d9023620d15858ca5a5fb144c88ac00000000", "vin": [{"sequence": 4294967295, "scriptSig": {"hex": "47304402205b732704a964d21ae8983c7e8e3df33da8375ed4de931b7c8e29b59d18cce4ff022004041a2d0cdf345701bef94f9284192cbaec2e733a3ef3ccfc4e7ee342a4c5b9012103ad603f5d3610dce0c476cc5ff31b70d340cb842f4285d362fdb63d990e4c8e16", "asm": "304402205b732704a964d21ae8983c7e8e3df33da8375ed4de931b7c8e29b59d18cce4ff022004041a2d0cdf345701bef94f9284192cbaec2e733a3ef3ccfc4e7ee342a4c5b9[ALL] 03ad603f5d3610dce0c476cc5ff31b70d340cb842f4285d362fdb63d990e4c8e16"}, "vout": 1, "txid": "1bedb6571201a0fdf1e28070d966a27abeff509b76ad69757a5b78d1b547c85e"}], "txid": "af15a46caa4ba468e963eb0bd0222e82978adf13229fb9ec92447eabd00ec7f7", "blocktime": 1537876114, "version": 1, "confirmations": 11459, "time": 1537876114, "locktime": 0, "vsize": 223, "size": 223}