{"hash": "af16c9af801677a599548f1fbb308644646ca24fe133a6c3cac51cbeecc0624e", "blockhash": "0000000000000000001cda96e906b7601b7a6fb1a3b62bca570a9e5d8f4b3de1", "vout": [{"scriptPubKey": {"reqSigs": 1, "hex": "76a9142b930ec62609332bb5097302ac3f48f530c3357b88ac", "addresses": ["14yQDzrvLr1sTmhRcHTUBHyEJEqDmD8Rxj"], "asm": "OP_DUP OP_HASH160 2b930ec62609332bb5097302ac3f48f530c3357b OP_EQUALVERIFY OP_CHECKSIG", "type": "pubkeyhash"}, "value": 0.01943502, "n": 0}, {"scriptPubKey": {"type": "nulldata", "hex": "6a146f6d6e69000000000000001f0000000005f5e100", "asm": "OP_RETURN 6f6d6e69000000000000001f0000000005f5e100"}, "value": 0.0, "n": 1}, {"scriptPubKey": {"reqSigs": 1, "hex": "76a914802c2301f3bc892a092d70e6c890cdf7b20ac33e88ac", "addresses": ["1CgiNEJWrh7oAKfa7qBnP8j3DciZMjGDTM"], "asm": "OP_DUP OP_HASH160 802c2301f3bc892a092d70e6c890cdf7b20ac33e OP_EQUALVERIFY OP_CHECKSIG", "type": "pubkeyhash"}, "value": 5.46e-06, "n": 2}], "hex": "0100000003f0d9adb15ae8c6b07a21436fb71fedbdded68b331ab0043263c03939585beff5020000006a47304402207ba132f003f21d2a573772ffa6619758e294d579d4a5268c40723401a3d7a7aa02203d9257171f5b24b626cf92798fcbcac663ee4be38fe0398a3f394043cc162aa5012103b59ebe2948a010eb134f34071c98d0daa35d61f6e0661860bcdece4c3d39ae99ffffffffb4efb68df1a5bbc787c8a639a94c8dc583f126372ac1b31344c755faf3936511020000006b483045022100b078250169c547d7c1057da9766a598d5e8e767fe103d0e11ac5cebe83250a24022030e074cc50b61e2447adebc1727532162d38a0caf8d831e1c71bfd78d8325518012103b59ebe2948a010eb134f34071c98d0daa35d61f6e0661860bcdece4c3d39ae99fffffffff0d9adb15ae8c6b07a21436fb71fedbdded68b331ab0043263c03939585beff5000000006a47304402203ebe30b22a4a8a741e4668839775ed8fc9e7b2c3bf54811f6c04d40bdfa33c18022060cc33a470012bf2de4c965310320213b3c372e45b887a75cde2ec41c1edca3601210200241c40da2cf7b1e58f4b8f71eb29513a5525810f09466a9e7e7e183a4f8d6dffffffff03cea71d00000000001976a9142b930ec62609332bb5097302ac3f48f530c3357b88ac0000000000000000166a146f6d6e69000000000000001f0000000005f5e10022020000000000001976a914802c2301f3bc892a092d70e6c890cdf7b20ac33e88ac00000000", "vin": [{"sequence": 4294967295, "scriptSig": {"hex": "47304402207ba132f003f21d2a573772ffa6619758e294d579d4a5268c40723401a3d7a7aa02203d9257171f5b24b626cf92798fcbcac663ee4be38fe0398a3f394043cc162aa5012103b59ebe2948a010eb134f34071c98d0daa35d61f6e0661860bcdece4c3d39ae99", "asm": "304402207ba132f003f21d2a573772ffa6619758e294d579d4a5268c40723401a3d7a7aa02203d9257171f5b24b626cf92798fcbcac663ee4be38fe0398a3f394043cc162aa5[ALL] 03b59ebe2948a010eb134f34071c98d0daa35d61f6e0661860bcdece4c3d39ae99"}, "vout": 2, "txid": "f5ef5b583939c0633204b01a338bd6debded1fb76f43217ab0c6e85ab1add9f0"}, {"sequence": 4294967295, "scriptSig": {"hex": "483045022100b078250169c547d7c1057da9766a598d5e8e767fe103d0e11ac5cebe83250a24022030e074cc50b61e2447adebc1727532162d38a0caf8d831e1c71bfd78d8325518012103b59ebe2948a010eb134f34071c98d0daa35d61f6e0661860bcdece4c3d39ae99", "asm": "3045022100b078250169c547d7c1057da9766a598d5e8e767fe103d0e11ac5cebe83250a24022030e074cc50b61e2447adebc1727532162d38a0caf8d831e1c71bfd78d8325518[ALL] 03b59ebe2948a010eb134f34071c98d0daa35d61f6e0661860bcdece4c3d39ae99"}, "vout": 2, "txid": "116593f3fa55c74413b3c12a3726f183c58d4ca939a6c887c7bba5f18db6efb4"}, {"sequence": 4294967295, "scriptSig": {"hex": "47304402203ebe30b22a4a8a741e4668839775ed8fc9e7b2c3bf54811f6c04d40bdfa33c18022060cc33a470012bf2de4c965310320213b3c372e45b887a75cde2ec41c1edca3601210200241c40da2cf7b1e58f4b8f71eb29513a5525810f09466a9e7e7e183a4f8d6d", "asm": "304402203ebe30b22a4a8a741e4668839775ed8fc9e7b2c3bf54811f6c04d40bdfa33c18022060cc33a470012bf2de4c965310320213b3c372e45b887a75cde2ec41c1edca36[ALL] 0200241c40da2cf7b1e58f4b8f71eb29513a5525810f09466a9e7e7e183a4f8d6d"}, "vout": 0, "txid": "f5ef5b583939c0633204b01a338bd6debded1fb76f43217ab0c6e85ab1add9f0"}], "txid": "af16c9af801677a599548f1fbb308644646ca24fe133a6c3cac51cbeecc0624e", "blocktime": 1537873282, "version": 1, "confirmations": 11481, "time": 1537873282, "locktime": 0, "vsize": 551, "size": 551}