{"hash": "29af2abe9d9c6f45df5dbb6b1b3556e94707dbfd8846f5cd4cb64286a2f95078", "blockhash": "0000000000000000001f76057863aec43deb6fa401d9628bb513d65a8098bfab", "vout": [{"scriptPubKey": {"reqSigs": 1, "hex": "a9145f9448899f8f450061a5758a8b7691133839235287", "addresses": ["3AQPkg8NTmz1v1kfQCVA1jTa818HXCRPfz"], "asm": "OP_HASH160 5f9448899f8f450061a5758a8b76911338392352 OP_EQUAL", "type": "scripthash"}, "value": 0.00475059, "n": 0}, {"scriptPubKey": {"reqSigs": 1, "hex": "a914564972a10d5d575c37f5744497d45f1bd1c4d78987", "addresses": ["39ZG2HHsGpfZWhh1jRoB63fUNR1rK8Q98W"], "asm": "OP_HASH160 564972a10d5d575c37f5744497d45f1bd1c4d789 OP_EQUAL", "type": "scripthash"}, "value": 0.0241, "n": 1}, {"scriptPubKey": {"reqSigs": 1, "hex": "a914188a17cec64e3b9aa91d2624a0bfd0da944d9a6d87", "addresses": ["33vma1xyRmbKMhXKagiiaRJE3cUpY5xr9E"], "asm": "OP_HASH160 188a17cec64e3b9aa91d2624a0bfd0da944d9a6d OP_EQUAL", "type": "scripthash"}, "value": 0.119, "n": 2}, {"scriptPubKey": {"reqSigs": 1, "hex": "a9147abcaf344672d5d401c316e2317fb99aca6cd4ed87", "addresses": ["3CszPy7zrQLAm81M8QbKij5FQHQAQc7JFS"], "asm": "OP_HASH160 7abcaf344672d5d401c316e2317fb99aca6cd4ed OP_EQUAL", "type": "scripthash"}, "value": 0.013, "n": 3}, {"scriptPubKey": {"reqSigs": 1, "hex": "a91480a81ec36ade0447ee9e023f4e3550e79d66fcb287", "addresses": ["3DRHpHuCydD5Mqqj3Sv24u8vWbAmVUbQ13"], "asm": "OP_HASH160 80a81ec36ade0447ee9e023f4e3550e79d66fcb2 OP_EQUAL", "type": "scripthash"}, "value": 0.0115, "n": 4}, {"scriptPubKey": {"reqSigs": 1, "hex": "a9144225a5cfeeed1b4a06c8f94f6c7fbfce397cd0c987", "addresses": ["37imd1heBHfdLUX7QGdJ4NSKNw3gHUYjR8"], "asm": "OP_HASH160 4225a5cfeeed1b4a06c8f94f6c7fbfce397cd0c9 OP_EQUAL", "type": "scripthash"}, "value": 0.02374258, "n": 5}, {"scriptPubKey": {"reqSigs": 1, "hex": "a914ea645e5e20987adfaa9d5fa4a915d008965f102387", "addresses": ["3P4NHAbib3uvj6QNYmPWqEJMZnx4HzszTp"], "asm": "OP_HASH160 ea645e5e20987adfaa9d5fa4a915d008965f1023 OP_EQUAL", "type": "scripthash"}, "value": 0.01000973, "n": 6}], "hex": "0200000000011040f9e1c1c7ba3f8208bc4c2a914a1fcbfc360b5929bf5d08c3bb6e99dec3a3811200000017160014d7bae18181f8d9a0b2cb124c13f874fcf8fbc641ffffffff4457e967b61ed4e331423505142d1d124b7e049a5aa6eba692384f9154a2f5920900000017160014219229b034c82d3ee04e2d00d58cd26e0eaceea5ffffffff82acc83b87e82c1eed6a25f6668847c13b30d4196330481ed12e353138fb1c5e14000000171600148e5e1f4375c1251f3015ca559bf03f5ece33daa7ffffffff3db6600be34f1a73afe2151ea722e957d693f641329c73f5cbd8406b83aab53d01000000171600147423ceaf63b6e5eb7e0397e185807513b384ff4cffffffff7d4c0a88a33242634e31837f3605af1f2613223c236e3e438cc3e16830462edd0e00000017160014fd25e2252533f9995b1befdb6b9eb586a619239fffffffff4457e967b61ed4e331423505142d1d124b7e049a5aa6eba692384f9154a2f5921600000017160014fb5f06337e5aed86376438a70b0c8838260d1021fffffffff7b5f016728d761cc47ccf894ee28fa8c9452c8b5f5488ebdff0a753a78d4fd11a00000017160014d702ebf5c29c68bef8e9f6a4ecd6d829b1c1d41effffffff54a3932501e30382710d2d2fa1cf4610f3f58c8d560f0401b73b9455243db5610000000017160014d2aeee48e80e0081517d2e3b4c1161d007c03b3affffffffb836ed3ee7012e69a650d385fc46381e26f97bde1aa365cc53253885f36d756209000000171600144f64c77ac83e9924463bbadaac0797246fab5a0effffffff89f585ba93d78dc07b4b19c8aea34f9bc2eb46dceb5bc7e80ce20fb0166d2740000000001716001477a8e6df15d0678d49ca79b6db493f6a8a785fb4ffffffff8e3d72b355921573cc241d0b083085a45cf34a7a9a06665e5671eca2079549fa000000001716001470f31287f978fed6691a1accaa5e691dca64c699ffffffff40f9e1c1c7ba3f8208bc4c2a914a1fcbfc360b5929bf5d08c3bb6e99dec3a3810200000017160014c97acd6a031a6d24304e5d19ed4f8d950077b1f8ffffffff4eee10e4e1029d577982c697241b110ec74e631ec8378b12c8b2ff89949f2bfe0d000000171600143b7cebc4dd64be204d92d27ff8e14298a0320db7ffffffff3e0e1db2a426da51c8bf0b689a54694381fc6e0535ce921edc0686231b04416e0000000017160014a5046cd8a6fe08c7af2f2818b522bfcdc9d85eeaffffffff87e0662cac839d345eef42a20fa677b1ca0003faf7ada3e00ee0fa8f9053dd941a00000017160014f89dedff1784d3270e15519d62f2b35b88ac2134ffffffff4a67447a5f7e22c6330c5b909125c41810c9822806d44aef27097deea49110390000000017160014ffc2200d0a9a7e02365e8a7e3ea5587a1d97b449ffffffff07b33f07000000000017a9145f9448899f8f450061a5758a8b769113383923528710c624000000000017a914564972a10d5d575c37f5744497d45f1bd1c4d789876094b5000000000017a914188a17cec64e3b9aa91d2624a0bfd0da944d9a6d8720d613000000000017a9147abcaf344672d5d401c316e2317fb99aca6cd4ed87308c11000000000017a91480a81ec36ade0447ee9e023f4e3550e79d66fcb287723a24000000000017a9144225a5cfeeed1b4a06c8f94f6c7fbfce397cd0c9870d460f000000000017a914ea645e5e20987adfaa9d5fa4a915d008965f10238702473044022008b15e8f7efbc1b11e869a7860bc1ca5b258b28be9e8b8e14486d402fec4bd520220187417fe831b405a5cc98c6df02dfdf42a8b321d40ce08133a990c2ef43c5efb012102a96537041b609ecc12b6da7e2fc047345abc81c1f5bb79680900ebce692659890247304402201c491f8b0a4adeca98b1b4aa74f94a28a3d9c990bf198fc610c3f0b3cbaa7dd402205878bf6b7ab84161c7f56a1e778d60d0432384d8a53efa79acfa4350d5b8cc1701210269a7143e8ddd4e673aa88e2e091b9a203bc9acce68783764ae0368c6b915b21a02483045022100a524a4b0313b946daf487177e23519c611ba6560c01321fc97c1e85dba89193802205fa9ce5ef0f4e178aa1213e8b0935128a6e452aec3112ed8276ec7e7312f4f5501210343d28cb5f13a141fdb673cc9c13562948989ef00be3aa5d41eb303cbc696867902483045022100b3b2546d81b9d8bf730b6ccd37e6181274e69d6f24f9d02146452c0c6284106202207c0baa3126598a0eca713b9b754d37b27aaacf488d880adc5f907772ca50ac5b0121024b8a240b0530f25ee23fae81959637b6c15e7cce16388254f78d87f172183fdc02483045022100b2f9d3d9ce9b6c5f86939a14b1f4ca2b70f6a03d0ba9d08b81cde00b756e24a202201daf1500db3e0142a665853bf7ef4affcf2aa8c1f01c9c93e10c09ac1798bab50121026a0c64799fd1525613cea345783710057b03f87ec949f56c8ba99d7b849a070d02483045022100ce5355e24b0e6538c318f075bd1399917e57a7bea39482b8a0dcbfe7d87fb15802202ab524be7abc7c9710f7d2e9b033a62f8740972b0550cff7ea35a2e0cee63c0b012103de3250a36fac3bb19566da22b4187ca0bac70772d8616a0d93886649952f79c702483045022100ffadff9355162b08e840d85f284ee5db11e4252592a157b23be7924f0655108402204e0fceffab7e3fb99188f79802d602971dc5725c23065e6b3ed63d8366f547c2012103a6463c2c52107830775e02d57e459d629b77815ff8ce3b070cd577a13e4bcf030247304402204a08b02affb1901a544c3d4aaba0a7902e30080d51ac3d858601f30e2fadb53102200da6b5b28f4e98561bc6b4991f808bb0d3ec71b7d12dd1ced7b0cd359932ba5a012103dea3cdb88f970077569cb36c3cc427d04fe10949170036d27cf682bd6888441e02483045022100f0ccbb576c04a543f8a3c92615e1ce6c7154189e732307e7b7869974adeb0127022040ce08515915a17ee98ab8ef7e5d44bfb25c24e39cfd802966d9fdbb1fb7abd4012103908aadca628fb62272ab47f73df7985d29ddae7622b36c6636f94c5103ae03510247304402204da956d3b6b17ea817004446ddee7464e87acfcc8b1c540703de1821cbe870430220598d946a1749cd18c62475c8cf76c0690f5aa1b127a74bcf22db6882a2511199012102f6f0babe2ca3494055c17411ba3adfec69ab95fed5a4cb19ab2a8e14fe994b30024730440220619fb51a9fcf0df384d2b307c44d71d96417da4870c4a2dc8051678a73f0da2302203da877d5363353111288536b9b66cc91e9328d7370e9948acf7789191cecc6e2012102f41dd7d9e125972d2584fd87317947f78f21ee5c4d6e92cedd1aa43942d7b9db02483045022100b8671a2df4a7b55f5d960ee4edf0046c8fa841d451cc67a3258e2045cceea5a10220298fd17a0638030bf8a9d2c5f8a1e0855562562d68ef9e814a0490fd068012e501210297c53a221a965b4b6618b757e86c53d2583f1ecbe5f8e879f75251b80180b32802483045022100d15a473fc8d1e7e341ca467c1b0c3f436f6b1271349fdb6176d3666857e8a31302200b8464ccbcdb11611753b42e8653eab7ecbe46dcda422ede88ee38aa861c88400121020b213822fded245b79af46355452781b60b6d58d67bad95317d5d9ff54044d3e02483045022100f7d858fd0a965a682376b9ad450e4953fd801c1830d167446d7ab458baa3371702203bf27f7806f92757fb1a4555cfbe18c180598f7f71747030ef53c0debbf7754101210299eb78e018e1c3a605a3439818ab149a56e177292996cca4c7f85528811697040247304402200785ef671316fa2692fd80615f4165ca05e8a377e049208ebe8bfd44aff1807a02205342d069266547f5da87597e9c8576f71fb2a70cb5644700682fb9131811238601210363a547de10747bffdd6c302c83e42a28b5acc12a529fa93489e2f8414610c84902473044022057ca3087cb38a0e5714ac9670f84095d79ca1e81aa889ff35044c2d33b45680202204e3284725de9ade12d4eed5579fa4c370d747564fe6e8e08de2afdade3e0d0e8012102490237842ae00fee4df2e0e4254bf3b0141fb2c9d326bbc97b560ee06600e2ad00000000", "vin": [{"txinwitness": ["3044022008b15e8f7efbc1b11e869a7860bc1ca5b258b28be9e8b8e14486d402fec4bd520220187417fe831b405a5cc98c6df02dfdf42a8b321d40ce08133a990c2ef43c5efb01", "02a96537041b609ecc12b6da7e2fc047345abc81c1f5bb79680900ebce69265989"], "sequence": 4294967295, "scriptSig": {"hex": "160014d7bae18181f8d9a0b2cb124c13f874fcf8fbc641", "asm": "0014d7bae18181f8d9a0b2cb124c13f874fcf8fbc641"}, "vout": 18, "txid": "81a3c3de996ebbc3085dbf29590b36fccb1f4a912a4cbc08823fbac7c1e1f940"}, {"txinwitness": ["304402201c491f8b0a4adeca98b1b4aa74f94a28a3d9c990bf198fc610c3f0b3cbaa7dd402205878bf6b7ab84161c7f56a1e778d60d0432384d8a53efa79acfa4350d5b8cc1701", "0269a7143e8ddd4e673aa88e2e091b9a203bc9acce68783764ae0368c6b915b21a"], "sequence": 4294967295, "scriptSig": {"hex": "160014219229b034c82d3ee04e2d00d58cd26e0eaceea5", "asm": "0014219229b034c82d3ee04e2d00d58cd26e0eaceea5"}, "vout": 9, "txid": "92f5a254914f3892a6eba65a9a047e4b121d2d1405354231e3d41eb667e95744"}, {"txinwitness": ["3045022100a524a4b0313b946daf487177e23519c611ba6560c01321fc97c1e85dba89193802205fa9ce5ef0f4e178aa1213e8b0935128a6e452aec3112ed8276ec7e7312f4f5501", "0343d28cb5f13a141fdb673cc9c13562948989ef00be3aa5d41eb303cbc6968679"], "sequence": 4294967295, "scriptSig": {"hex": "1600148e5e1f4375c1251f3015ca559bf03f5ece33daa7", "asm": "00148e5e1f4375c1251f3015ca559bf03f5ece33daa7"}, "vout": 20, "txid": "5e1cfb3831352ed11e48306319d4303bc1478866f6256aed1e2ce8873bc8ac82"}, {"txinwitness": ["3045022100b3b2546d81b9d8bf730b6ccd37e6181274e69d6f24f9d02146452c0c6284106202207c0baa3126598a0eca713b9b754d37b27aaacf488d880adc5f907772ca50ac5b01", "024b8a240b0530f25ee23fae81959637b6c15e7cce16388254f78d87f172183fdc"], "sequence": 4294967295, "scriptSig": {"hex": "1600147423ceaf63b6e5eb7e0397e185807513b384ff4c", "asm": "00147423ceaf63b6e5eb7e0397e185807513b384ff4c"}, "vout": 1, "txid": "3db5aa836b40d8cbf5739c3241f693d657e922a71e15e2af731a4fe30b60b63d"}, {"txinwitness": ["3045022100b2f9d3d9ce9b6c5f86939a14b1f4ca2b70f6a03d0ba9d08b81cde00b756e24a202201daf1500db3e0142a665853bf7ef4affcf2aa8c1f01c9c93e10c09ac1798bab501", "026a0c64799fd1525613cea345783710057b03f87ec949f56c8ba99d7b849a070d"], "sequence": 4294967295, "scriptSig": {"hex": "160014fd25e2252533f9995b1befdb6b9eb586a619239f", "asm": "0014fd25e2252533f9995b1befdb6b9eb586a619239f"}, "vout": 14, "txid": "dd2e463068e1c38c433e6e233c2213261faf05367f83314e634232a3880a4c7d"}, {"txinwitness": ["3045022100ce5355e24b0e6538c318f075bd1399917e57a7bea39482b8a0dcbfe7d87fb15802202ab524be7abc7c9710f7d2e9b033a62f8740972b0550cff7ea35a2e0cee63c0b01", "03de3250a36fac3bb19566da22b4187ca0bac70772d8616a0d93886649952f79c7"], "sequence": 4294967295, "scriptSig": {"hex": "160014fb5f06337e5aed86376438a70b0c8838260d1021", "asm": "0014fb5f06337e5aed86376438a70b0c8838260d1021"}, "vout": 22, "txid": "92f5a254914f3892a6eba65a9a047e4b121d2d1405354231e3d41eb667e95744"}, {"txinwitness": ["3045022100ffadff9355162b08e840d85f284ee5db11e4252592a157b23be7924f0655108402204e0fceffab7e3fb99188f79802d602971dc5725c23065e6b3ed63d8366f547c201", "03a6463c2c52107830775e02d57e459d629b77815ff8ce3b070cd577a13e4bcf03"], "sequence": 4294967295, "scriptSig": {"hex": "160014d702ebf5c29c68bef8e9f6a4ecd6d829b1c1d41e", "asm": "0014d702ebf5c29c68bef8e9f6a4ecd6d829b1c1d41e"}, "vout": 26, "txid": "d14f8da753a7f0dfeb88545f8b2c45c9a88fe24e89cf7cc41c768d7216f0b5f7"}, {"txinwitness": ["304402204a08b02affb1901a544c3d4aaba0a7902e30080d51ac3d858601f30e2fadb53102200da6b5b28f4e98561bc6b4991f808bb0d3ec71b7d12dd1ced7b0cd359932ba5a01", "03dea3cdb88f970077569cb36c3cc427d04fe10949170036d27cf682bd6888441e"], "sequence": 4294967295, "scriptSig": {"hex": "160014d2aeee48e80e0081517d2e3b4c1161d007c03b3a", "asm": "0014d2aeee48e80e0081517d2e3b4c1161d007c03b3a"}, "vout": 0, "txid": "61b53d2455943bb701040f568d8cf5f31046cfa12f2d0d718203e3012593a354"}, {"txinwitness": ["3045022100f0ccbb576c04a543f8a3c92615e1ce6c7154189e732307e7b7869974adeb0127022040ce08515915a17ee98ab8ef7e5d44bfb25c24e39cfd802966d9fdbb1fb7abd401", "03908aadca628fb62272ab47f73df7985d29ddae7622b36c6636f94c5103ae0351"], "sequence": 4294967295, "scriptSig": {"hex": "1600144f64c77ac83e9924463bbadaac0797246fab5a0e", "asm": "00144f64c77ac83e9924463bbadaac0797246fab5a0e"}, "vout": 9, "txid": "62756df385382553cc65a31ade7bf9261e3846fc85d350a6692e01e73eed36b8"}, {"txinwitness": ["304402204da956d3b6b17ea817004446ddee7464e87acfcc8b1c540703de1821cbe870430220598d946a1749cd18c62475c8cf76c0690f5aa1b127a74bcf22db6882a251119901", "02f6f0babe2ca3494055c17411ba3adfec69ab95fed5a4cb19ab2a8e14fe994b30"], "sequence": 4294967295, "scriptSig": {"hex": "16001477a8e6df15d0678d49ca79b6db493f6a8a785fb4", "asm": "001477a8e6df15d0678d49ca79b6db493f6a8a785fb4"}, "vout": 0, "txid": "40276d16b00fe20ce8c75bebdc46ebc29b4fa3aec8194b7bc08dd793ba85f589"}, {"txinwitness": ["30440220619fb51a9fcf0df384d2b307c44d71d96417da4870c4a2dc8051678a73f0da2302203da877d5363353111288536b9b66cc91e9328d7370e9948acf7789191cecc6e201", "02f41dd7d9e125972d2584fd87317947f78f21ee5c4d6e92cedd1aa43942d7b9db"], "sequence": 4294967295, "scriptSig": {"hex": "16001470f31287f978fed6691a1accaa5e691dca64c699", "asm": "001470f31287f978fed6691a1accaa5e691dca64c699"}, "vout": 0, "txid": "fa499507a2ec71565e66069a7a4af35ca48530080b1d24cc73159255b3723d8e"}, {"txinwitness": ["3045022100b8671a2df4a7b55f5d960ee4edf0046c8fa841d451cc67a3258e2045cceea5a10220298fd17a0638030bf8a9d2c5f8a1e0855562562d68ef9e814a0490fd068012e501", "0297c53a221a965b4b6618b757e86c53d2583f1ecbe5f8e879f75251b80180b328"], "sequence": 4294967295, "scriptSig": {"hex": "160014c97acd6a031a6d24304e5d19ed4f8d950077b1f8", "asm": "0014c97acd6a031a6d24304e5d19ed4f8d950077b1f8"}, "vout": 2, "txid": "81a3c3de996ebbc3085dbf29590b36fccb1f4a912a4cbc08823fbac7c1e1f940"}, {"txinwitness": ["3045022100d15a473fc8d1e7e341ca467c1b0c3f436f6b1271349fdb6176d3666857e8a31302200b8464ccbcdb11611753b42e8653eab7ecbe46dcda422ede88ee38aa861c884001", "020b213822fded245b79af46355452781b60b6d58d67bad95317d5d9ff54044d3e"], "sequence": 4294967295, "scriptSig": {"hex": "1600143b7cebc4dd64be204d92d27ff8e14298a0320db7", "asm": "00143b7cebc4dd64be204d92d27ff8e14298a0320db7"}, "vout": 13, "txid": "fe2b9f9489ffb2c8128b37c81e634ec70e111b2497c68279579d02e1e410ee4e"}, {"txinwitness": ["3045022100f7d858fd0a965a682376b9ad450e4953fd801c1830d167446d7ab458baa3371702203bf27f7806f92757fb1a4555cfbe18c180598f7f71747030ef53c0debbf7754101", "0299eb78e018e1c3a605a3439818ab149a56e177292996cca4c7f8552881169704"], "sequence": 4294967295, "scriptSig": {"hex": "160014a5046cd8a6fe08c7af2f2818b522bfcdc9d85eea", "asm": "0014a5046cd8a6fe08c7af2f2818b522bfcdc9d85eea"}, "vout": 0, "txid": "6e41041b238606dc1e92ce35056efc814369549a680bbfc851da26a4b21d0e3e"}, {"txinwitness": ["304402200785ef671316fa2692fd80615f4165ca05e8a377e049208ebe8bfd44aff1807a02205342d069266547f5da87597e9c8576f71fb2a70cb5644700682fb9131811238601", "0363a547de10747bffdd6c302c83e42a28b5acc12a529fa93489e2f8414610c849"], "sequence": 4294967295, "scriptSig": {"hex": "160014f89dedff1784d3270e15519d62f2b35b88ac2134", "asm": "0014f89dedff1784d3270e15519d62f2b35b88ac2134"}, "vout": 26, "txid": "94dd53908ffae00ee0a3adf7fa0300cab177a60fa242ef5e349d83ac2c66e087"}, {"txinwitness": ["3044022057ca3087cb38a0e5714ac9670f84095d79ca1e81aa889ff35044c2d33b45680202204e3284725de9ade12d4eed5579fa4c370d747564fe6e8e08de2afdade3e0d0e801", "02490237842ae00fee4df2e0e4254bf3b0141fb2c9d326bbc97b560ee06600e2ad"], "sequence": 4294967295, "scriptSig": {"hex": "160014ffc2200d0a9a7e02365e8a7e3ea5587a1d97b449", "asm": "0014ffc2200d0a9a7e02365e8a7e3ea5587a1d97b449"}, "vout": 0, "txid": "391091a4ee7d0927ef4ad4062882c91018c42591905b0c33c6227e5f7a44674a"}], "txid": "af21a11af18d202707348d4652a945ef1da669ba6827da8c78812cd1b43c1441", "blocktime": 1537873891, "version": 2, "confirmations": 11475, "time": 1537873891, "locktime": 0, "vsize": 1689, "size": 2981}