{"hash": "af22523e32d789199dce44ef35fd0860cc8e1f3ef69491ddedf130cd47202e81", "blockhash": "0000000000000000001e0dab787dd257d1dbfcb92a98c2207d5e1078be1f4165", "vout": [{"scriptPubKey": {"reqSigs": 1, "hex": "76a914451b933ae97a7a365b94699e4424e202474f0c0c88ac", "addresses": ["17JQfBy1f2yXTwJ79NWw7aXMFVsEj1Gtpg"], "asm": "OP_DUP OP_HASH160 451b933ae97a7a365b94699e4424e202474f0c0c OP_EQUALVERIFY OP_CHECKSIG", "type": "pubkeyhash"}, "value": 0.011, "n": 0}, {"scriptPubKey": {"reqSigs": 1, "hex": "76a9142e3be7d20c727ad0dc58e23a0b53efe9683c2e4a88ac", "addresses": ["15DTr8p985dV7NLMztLUpu92KzMmgGBcd6"], "asm": "OP_DUP OP_HASH160 2e3be7d20c727ad0dc58e23a0b53efe9683c2e4a OP_EQUALVERIFY OP_CHECKSIG", "type": "pubkeyhash"}, "value": 0.05164604, "n": 1}], "hex": "0100000001e0edf1b3284dd630d225b2992af81e736258ed1455540b814fc04824009f5e71010000006b483045022100c2fe311d8acf58d895b1ba992c757b10863d5303337f2c8085a46acaa4b1a13902206406fdbe580dda116397a620e64023c96feb42edccf35a4bde26ff48e8f0655801210293d5658d01580ea371dcd4cae5915b5ed19411a3cf6323e33431a7369d58288cffffffff02e0c81000000000001976a914451b933ae97a7a365b94699e4424e202474f0c0c88ac3cce4e00000000001976a9142e3be7d20c727ad0dc58e23a0b53efe9683c2e4a88ac00000000", "vin": [{"sequence": 4294967295, "scriptSig": {"hex": "483045022100c2fe311d8acf58d895b1ba992c757b10863d5303337f2c8085a46acaa4b1a13902206406fdbe580dda116397a620e64023c96feb42edccf35a4bde26ff48e8f0655801210293d5658d01580ea371dcd4cae5915b5ed19411a3cf6323e33431a7369d58288c", "asm": "3045022100c2fe311d8acf58d895b1ba992c757b10863d5303337f2c8085a46acaa4b1a13902206406fdbe580dda116397a620e64023c96feb42edccf35a4bde26ff48e8f06558[ALL] 0293d5658d01580ea371dcd4cae5915b5ed19411a3cf6323e33431a7369d58288c"}, "vout": 1, "txid": "715e9f002448c04f810b545514ed5862731ef82a99b225d230d64d28b3f1ede0"}], "txid": "af22523e32d789199dce44ef35fd0860cc8e1f3ef69491ddedf130cd47202e81", "blocktime": 1537872475, "version": 1, "confirmations": 11487, "time": 1537872475, "locktime": 0, "vsize": 226, "size": 226}