{"hash": "af2441b0515002457341b4c349c4e047edd5b33be85d9fa68770885cb1df2055", "blockhash": "00000000000000000004ffacab907a6b429b9a5745fa0b75af4234bf69dd7176", "vout": [{"scriptPubKey": {"reqSigs": 1, "hex": "76a914af05983c1ac02445c94c384646eca1ba19e3e6b388ac", "addresses": ["1GxRxJ64vEGLvrrrBvVc485K2F97AfnYsQ"], "asm": "OP_DUP OP_HASH160 af05983c1ac02445c94c384646eca1ba19e3e6b3 OP_EQUALVERIFY OP_CHECKSIG", "type": "pubkeyhash"}, "value": 0.0429728, "n": 0}, {"scriptPubKey": {"reqSigs": 1, "hex": "a914c261c4a4c3b281f0de5d43410f7b6f8647ce4f2487", "addresses": ["3KQp8oqD25pHKSMMHF6oti7h6QD8SDdV4y"], "asm": "OP_HASH160 c261c4a4c3b281f0de5d43410f7b6f8647ce4f24 OP_EQUAL", "type": "scripthash"}, "value": 0.00406573, "n": 1}], "hex": "0100000001dfb67c30afc42d90e3a7655b7fb40191eb0bd7440e5bb7f00c7e88bc57b3c763000000006a47304402206a63baff244da78821a3fbdeae7cf37cbc04495ffd34249a28536abf9ca72a720220345ceb8a90c77603ea49d5b9aa67690de03db3f51b287645f8da3b7ee0b369d30121021f138d5d489cc7e706cfac49c70dfec2939fda339b5a982c460e8ebdb51ffb26ffffffff0240924100000000001976a914af05983c1ac02445c94c384646eca1ba19e3e6b388ac2d3406000000000017a914c261c4a4c3b281f0de5d43410f7b6f8647ce4f248700000000", "vin": [{"sequence": 4294967295, "scriptSig": {"hex": "47304402206a63baff244da78821a3fbdeae7cf37cbc04495ffd34249a28536abf9ca72a720220345ceb8a90c77603ea49d5b9aa67690de03db3f51b287645f8da3b7ee0b369d30121021f138d5d489cc7e706cfac49c70dfec2939fda339b5a982c460e8ebdb51ffb26", "asm": "304402206a63baff244da78821a3fbdeae7cf37cbc04495ffd34249a28536abf9ca72a720220345ceb8a90c77603ea49d5b9aa67690de03db3f51b287645f8da3b7ee0b369d3[ALL] 021f138d5d489cc7e706cfac49c70dfec2939fda339b5a982c460e8ebdb51ffb26"}, "vout": 0, "txid": "63c7b357bc887e0cf0b75b0e44d70beb9101b47f5b65a7e3902dc4af307cb6df"}], "txid": "af2441b0515002457341b4c349c4e047edd5b33be85d9fa68770885cb1df2055", "blocktime": 1537875543, "version": 1, "confirmations": 11464, "time": 1537875543, "locktime": 0, "vsize": 223, "size": 223}