{"hash": "af29fc69f311733ff4f26f1db86139e0a42f1f569e3be220c3e8257c6c130f0d", "blockhash": "0000000000000000001cda96e906b7601b7a6fb1a3b62bca570a9e5d8f4b3de1", "vout": [{"scriptPubKey": {"reqSigs": 1, "hex": "76a914c8dc922a6e051c85c9a7836782ea376e8d489aff88ac", "addresses": ["1KK4NuVbyPPy2CH9SASYxVbPFQU9ptm9kF"], "asm": "OP_DUP OP_HASH160 c8dc922a6e051c85c9a7836782ea376e8d489aff OP_EQUALVERIFY OP_CHECKSIG", "type": "pubkeyhash"}, "value": 0.00640332, "n": 0}, {"scriptPubKey": {"type": "nulldata", "hex": "6a4c50000077cd000130b58af5fc51d560943542cb5b23cc0f42c2fc38c5e5bf9ae76da98a211a88eef46fccee0464d8a3cff692f70d9a5baa14080613678e8ca912651d100759d4ba30d2c37bb011d97e02cf", "asm": "OP_RETURN 000077cd000130b58af5fc51d560943542cb5b23cc0f42c2fc38c5e5bf9ae76da98a211a88eef46fccee0464d8a3cff692f70d9a5baa14080613678e8ca912651d100759d4ba30d2c37bb011d97e02cf"}, "value": 0.0, "n": 1}], "hex": "0100000001daf910c5880504b046c32b80490694d321a7890f282fc8009901afb449ad6255010000006b483045022100b60a8ca3aff999a377309426d2ddb28e38c04d85c5300fa132f6f7001ccfcc5a0220459f76c434fec93a3665630d462e987548df5cdfe2f5c77a66239cfa72e4c3ea012102d379a4047984de69a90be46a5556e56984fd9c6430d39d1bd5bc96993fb8fa22ffffffff024cc50900000000001976a914c8dc922a6e051c85c9a7836782ea376e8d489aff88ac0000000000000000536a4c50000077cd000130b58af5fc51d560943542cb5b23cc0f42c2fc38c5e5bf9ae76da98a211a88eef46fccee0464d8a3cff692f70d9a5baa14080613678e8ca912651d100759d4ba30d2c37bb011d97e02cf00000000", "vin": [{"sequence": 4294967295, "scriptSig": {"hex": "483045022100b60a8ca3aff999a377309426d2ddb28e38c04d85c5300fa132f6f7001ccfcc5a0220459f76c434fec93a3665630d462e987548df5cdfe2f5c77a66239cfa72e4c3ea012102d379a4047984de69a90be46a5556e56984fd9c6430d39d1bd5bc96993fb8fa22", "asm": "3045022100b60a8ca3aff999a377309426d2ddb28e38c04d85c5300fa132f6f7001ccfcc5a0220459f76c434fec93a3665630d462e987548df5cdfe2f5c77a66239cfa72e4c3ea[ALL] 02d379a4047984de69a90be46a5556e56984fd9c6430d39d1bd5bc96993fb8fa22"}, "vout": 1, "txid": "5562ad49b4af019900c82f280f89a721d3940649802bc346b0040588c510f9da"}], "txid": "af29fc69f311733ff4f26f1db86139e0a42f1f569e3be220c3e8257c6c130f0d", "blocktime": 1537873282, "version": 1, "confirmations": 11484, "time": 1537873282, "locktime": 0, "vsize": 284, "size": 284}