{"hash": "af296762e802de9fd18334a8d8501a07113039e03a707e71dff8a1b4516a771a", "blockhash": "00000000000000000004ffacab907a6b429b9a5745fa0b75af4234bf69dd7176", "vout": [{"scriptPubKey": {"reqSigs": 1, "hex": "a914e18f18e1939c230ca421834d48c939313c38659487", "addresses": ["3NFfPGmyCofvUnBX3ZLsesGELFEJKyQiop"], "asm": "OP_HASH160 e18f18e1939c230ca421834d48c939313c386594 OP_EQUAL", "type": "scripthash"}, "value": 0.00209565, "n": 0}, {"scriptPubKey": {"reqSigs": 1, "hex": "76a914188b163f6426e2446c423ae7ca177d5eb2844c2e88ac", "addresses": ["13EmqXpworKi3LENcFtwK2o5voCddKHpN7"], "asm": "OP_DUP OP_HASH160 188b163f6426e2446c423ae7ca177d5eb2844c2e OP_EQUALVERIFY OP_CHECKSIG", "type": "pubkeyhash"}, "value": 0.03658897, "n": 1}], "hex": "0100000001ce4dd519bbadafff61313ded5db60a98fb971909c4cdb77c31e5404d6e36fe12010000006a47304402203b4b8d88914d0c2aa9bac41703ea2ddec5c409c9079bdb0334dbb30097ba6b1f022054eea0cef73aa23d336d3741082a362ce115573458a50f16eee2297877d2a67f01210223af823ded90595718840c4fe39ada5fb65892f44af498c49755cd1bcb710014ffffffff029d3203000000000017a914e18f18e1939c230ca421834d48c939313c3865948791d43700000000001976a914188b163f6426e2446c423ae7ca177d5eb2844c2e88ac00000000", "vin": [{"sequence": 4294967295, "scriptSig": {"hex": "47304402203b4b8d88914d0c2aa9bac41703ea2ddec5c409c9079bdb0334dbb30097ba6b1f022054eea0cef73aa23d336d3741082a362ce115573458a50f16eee2297877d2a67f01210223af823ded90595718840c4fe39ada5fb65892f44af498c49755cd1bcb710014", "asm": "304402203b4b8d88914d0c2aa9bac41703ea2ddec5c409c9079bdb0334dbb30097ba6b1f022054eea0cef73aa23d336d3741082a362ce115573458a50f16eee2297877d2a67f[ALL] 0223af823ded90595718840c4fe39ada5fb65892f44af498c49755cd1bcb710014"}, "vout": 1, "txid": "12fe366e4d40e5317cb7cdc4091997fb980ab65ded3d3161ffafadbb19d54dce"}], "txid": "af296762e802de9fd18334a8d8501a07113039e03a707e71dff8a1b4516a771a", "blocktime": 1537875543, "version": 1, "confirmations": 11464, "time": 1537875543, "locktime": 0, "vsize": 223, "size": 223}