{"hash": "9bc7cc3d955f924b7dc3c0dd813d5564c241c9c11998a2545573857f2b98df53", "blockhash": "0000000000000000000e13cef7c366c0283d82e591d1acd082e914b08063cdf1", "vout": [{"scriptPubKey": {"reqSigs": 1, "hex": "002058c8797f181e000075cb9a18a9662013b795012e86acc04d56a2d229e7b8d7c4", "addresses": ["bc1qtry8jlccrcqqqawtngv2je3qzwme2qfws6kvqn2k5tfzneac6lzqpgummp"], "asm": "0 58c8797f181e000075cb9a18a9662013b795012e86acc04d56a2d229e7b8d7c4", "type": "witness_v0_scripthash"}, "value": 0.00141372, "n": 0}], "hex": "01000000000101f20bf0184555064b8de876b47e358a89f5e3f82f941b68c5f6c98c5a9fb5fe3e040000001716001434ce4a09334d9ac0434604cab0ae263439e767a7ffffffff013c2802000000000022002058c8797f181e000075cb9a18a9662013b795012e86acc04d56a2d229e7b8d7c402473044022066d7486e40f69469f0c7b68f2e4a3f539cadd29eb44930aef7dfd0c13980ce5d02201f36d0b93dec5f4a3e4530c136326fc874b9e41827473ab966810fa3896ef994012102173f1206d7bc9b27b825b4bfd8f79dd170c1c27be518b4dfc8df3a6cf6e4ad2d00000000", "vin": [{"txinwitness": ["3044022066d7486e40f69469f0c7b68f2e4a3f539cadd29eb44930aef7dfd0c13980ce5d02201f36d0b93dec5f4a3e4530c136326fc874b9e41827473ab966810fa3896ef99401", "02173f1206d7bc9b27b825b4bfd8f79dd170c1c27be518b4dfc8df3a6cf6e4ad2d"], "sequence": 4294967295, "scriptSig": {"hex": "16001434ce4a09334d9ac0434604cab0ae263439e767a7", "asm": "001434ce4a09334d9ac0434604cab0ae263439e767a7"}, "vout": 4, "txid": "3efeb59f5a8cc9f6c5681b942ff8e3f5898a357eb476e88d4b06554518f00bf2"}], "txid": "af2b73bc127a91ad74a628808ef1b4972f83fa4ca2c0c84d67f3e0f35e68aafb", "blocktime": 1537871767, "version": 1, "confirmations": 11495, "time": 1537871767, "locktime": 0, "vsize": 145, "size": 226}