{"hash": "90038a663513904d3a1458dbe6b625eb7a413ecfda5bbee8d2e0c87e96250384", "blockhash": "00000000000000000004ffacab907a6b429b9a5745fa0b75af4234bf69dd7176", "vout": [{"scriptPubKey": {"reqSigs": 1, "hex": "a914ab60119dce52aa9950bbbfb7066bb34638da387087", "addresses": ["3HKAZKoW6yy2yiAwEV9MasH2QXKUu9oyd7"], "asm": "OP_HASH160 ab60119dce52aa9950bbbfb7066bb34638da3870 OP_EQUAL", "type": "scripthash"}, "value": 0.034499, "n": 0}, {"scriptPubKey": {"reqSigs": 1, "hex": "a9144d293bcdc8b44f39bc0c92eb41ca5b5ef1480d4687", "addresses": ["38j1MGxv8M2EzE5QVWzavCTicpwByECqCv"], "asm": "OP_HASH160 4d293bcdc8b44f39bc0c92eb41ca5b5ef1480d46 OP_EQUAL", "type": "scripthash"}, "value": 8.84319043, "n": 1}], "hex": "0200000000010103864a8b89f5e35f8c78ff4bade974c0f02594dfe3e1a853477486b1179d083201000000171600143ff816c3a02e013cd7ea4b2c204674768da8a76dffffffff022ca434000000000017a914ab60119dce52aa9950bbbfb7066bb34638da38708743a3b5340000000017a9144d293bcdc8b44f39bc0c92eb41ca5b5ef1480d4687024730440220086bef0a1860a2dddb129926fca38b25d8256001cc697c5c9f731cd22e8213310220568ab3bf28683a60550eaf59a779fb85abf8b5ed3978660270d17702aaf713fa01210306f6e5c3dfeb94059c2c436c189768eff8f584c499fad5bb8e2f7ab65449bdeb00000000", "vin": [{"txinwitness": ["30440220086bef0a1860a2dddb129926fca38b25d8256001cc697c5c9f731cd22e8213310220568ab3bf28683a60550eaf59a779fb85abf8b5ed3978660270d17702aaf713fa01", "0306f6e5c3dfeb94059c2c436c189768eff8f584c499fad5bb8e2f7ab65449bdeb"], "sequence": 4294967295, "scriptSig": {"hex": "1600143ff816c3a02e013cd7ea4b2c204674768da8a76d", "asm": "00143ff816c3a02e013cd7ea4b2c204674768da8a76d"}, "vout": 1, "txid": "32089d17b186744753a8e1e3df9425f0c074e9ad4bff788c5fe3f5898b4a8603"}], "txid": "af2bc2d198e98e7b9218986ff8e008aa318cf747d14e7d5dfeb06c919cf32a0e", "blocktime": 1537875543, "version": 2, "confirmations": 11464, "time": 1537875543, "locktime": 0, "vsize": 166, "size": 247}