{"hash": "9bb04da5dfd92294a6dd1f3efbdb97f2702686f2392e71569f0c11f3e4df7a2a", "blockhash": "00000000000000000017f5eb5941039fbcee6240d03bc1f2f8e35350df66a1d8", "vout": [{"scriptPubKey": {"reqSigs": 1, "hex": "a91489146dd42f36327cb55a42f5375c1b243e08a07387", "addresses": ["3EBpyFtxT5zqwyAQpeyTdCJGxskCzTjRod"], "asm": "OP_HASH160 89146dd42f36327cb55a42f5375c1b243e08a073 OP_EQUAL", "type": "scripthash"}, "value": 0.01, "n": 0}, {"scriptPubKey": {"reqSigs": 1, "hex": "a914b73f3b34be73cb47df8597847f3d0348ca7d5b3587", "addresses": ["3JPwL2xk8fNx67631ZuiRfU42ZTx5jbRqC"], "asm": "OP_HASH160 b73f3b34be73cb47df8597847f3d0348ca7d5b35 OP_EQUAL", "type": "scripthash"}, "value": 0.27512774, "n": 1}], "hex": "01000000000101bdc0bb0e451094cfc2fe870b66afa62b3951159110eecee84a2c984a529e2d5c01000000232200207e2a26fca423d11498c0984b284eea124b9ba90b912b4b6defa94ec6b2d06831ffffffff0240420f000000000017a91489146dd42f36327cb55a42f5375c1b243e08a07387c6cfa3010000000017a914b73f3b34be73cb47df8597847f3d0348ca7d5b35870400483045022100a6143e27c708268d7a8ea090c5b14dea44c989a63845dbf45067e48fb71849cc02206a71abbc9c883cbf61d9a96497090b794f8ef0c3c2161cc682badc81763152a801483045022100bc86603f43b86abbbda0f326e9ec4c06319a3b5ce7723100d01210fc9a90de170220276c9541fc0245a8a61ecc27dd162dc576f58e15e198718265db687663fcbb210147522102f4844214cdb38a4363093650bfb7b36f5c9ef122d83b73adc2dbbc1a73fe41d621038f2c7ecee34c843be9d886e50ce79e5dc40a1694c0417d60b35340f292ff73fc52ae00000000", "vin": [{"txinwitness": ["", "3045022100a6143e27c708268d7a8ea090c5b14dea44c989a63845dbf45067e48fb71849cc02206a71abbc9c883cbf61d9a96497090b794f8ef0c3c2161cc682badc81763152a801", "3045022100bc86603f43b86abbbda0f326e9ec4c06319a3b5ce7723100d01210fc9a90de170220276c9541fc0245a8a61ecc27dd162dc576f58e15e198718265db687663fcbb2101", "522102f4844214cdb38a4363093650bfb7b36f5c9ef122d83b73adc2dbbc1a73fe41d621038f2c7ecee34c843be9d886e50ce79e5dc40a1694c0417d60b35340f292ff73fc52ae"], "sequence": 4294967295, "scriptSig": {"hex": "2200207e2a26fca423d11498c0984b284eea124b9ba90b912b4b6defa94ec6b2d06831", "asm": "00207e2a26fca423d11498c0984b284eea124b9ba90b912b4b6defa94ec6b2d06831"}, "vout": 1, "txid": "5c2d9e524a982c4ae8ceee10911551392ba6af660b87fec2cf9410450ebbc0bd"}], "txid": "af2e9bce6e234dff374ef4b7fb2427ffec5274b0340c775634d0fd78317e3a44", "blocktime": 1537874412, "version": 1, "confirmations": 11468, "time": 1537874412, "locktime": 0, "vsize": 206, "size": 372}