{"hash": "af3791a2f2d243501c5c3e42ae2afd1ed2f8f5375df04adeebaecfd13bed4d3e", "blockhash": "0000000000000000001e0dab787dd257d1dbfcb92a98c2207d5e1078be1f4165", "vout": [{"scriptPubKey": {"reqSigs": 1, "hex": "a914170c98319a080bf3f8c71cc5e70d64858a18805287", "addresses": ["33ntZ38WVGaj5jgnTAQTKabsHEidpa8Dtf"], "asm": "OP_HASH160 170c98319a080bf3f8c71cc5e70d64858a188052 OP_EQUAL", "type": "scripthash"}, "value": 0.03484571, "n": 0}], "hex": "0100000004586348580e31c92360a315da0746594b5a41d2a13d27b904845900def71c4b36000000006b48304502210084d2238a85b1bc338cdc851110fd9ac281b517a148cf8b739c6c61b7a255c0a0022045c4d05f83462540217117ea6dbf5c41d38081069b94e03b1a838d5c170aa39c0121027a55d127bcc88ccfa1cea56304ba12002361896efa7fa21fd0bc90694583001dffffffff160f38dc7f759fcc46b8c04ffaeb1abb345f5527aec901c004067c804784736a000000006b483045022100da9297386ff9e80697c0c0de8ce1593532e205692e9881a1a4f707bea71fc971022044713995dd0efb7cb26095c0caf5b5adae6983209c771460b856380480f79ded012103b53f69d665e20d41a91a2bbd0f5c3a6d1be4dd35c6640a4fd22004bfe555e7b6ffffffff3b8d3edc65d2d0f00e85b6e449ecc6a888d959907fffd524f22676b1cca8f378000000006b48304502210080695547e156c78d427667ff83314c64404674ae9801a80790afedb0a2de8c130220278509bd618be0a5f19633b7431e6c41ed4c3735b3be11dbd4777e662366e3fe012103b097a86f79971b2e1dfa4be00e179dbc3f3d791376b9a1b0ccaaaf09fbc5581effffffffd043e4aa38296cc1fbbe2396753a79ba2a8f2a81b008f35bda82a1fcac8e04b3000000006b483045022100c02a7bad400986f272db3d1fc2e755a40cb30b1e16e2fe240b86cba2b4cafd3402207fd1105080775e03a45d2065f1baae53f2e525b5f7234a58bbbb94cbcbba58bd0121029b86dd345a3d8e732efde16f4923bd0987194c3014dc1675f8ddf6746d0d232cffffffff019b2b35000000000017a914170c98319a080bf3f8c71cc5e70d64858a1880528700000000", "vin": [{"sequence": 4294967295, "scriptSig": {"hex": "48304502210084d2238a85b1bc338cdc851110fd9ac281b517a148cf8b739c6c61b7a255c0a0022045c4d05f83462540217117ea6dbf5c41d38081069b94e03b1a838d5c170aa39c0121027a55d127bcc88ccfa1cea56304ba12002361896efa7fa21fd0bc90694583001d", "asm": "304502210084d2238a85b1bc338cdc851110fd9ac281b517a148cf8b739c6c61b7a255c0a0022045c4d05f83462540217117ea6dbf5c41d38081069b94e03b1a838d5c170aa39c[ALL] 027a55d127bcc88ccfa1cea56304ba12002361896efa7fa21fd0bc90694583001d"}, "vout": 0, "txid": "364b1cf7de00598404b9273da1d2415a4b594607da15a36023c9310e58486358"}, {"sequence": 4294967295, "scriptSig": {"hex": "483045022100da9297386ff9e80697c0c0de8ce1593532e205692e9881a1a4f707bea71fc971022044713995dd0efb7cb26095c0caf5b5adae6983209c771460b856380480f79ded012103b53f69d665e20d41a91a2bbd0f5c3a6d1be4dd35c6640a4fd22004bfe555e7b6", "asm": "3045022100da9297386ff9e80697c0c0de8ce1593532e205692e9881a1a4f707bea71fc971022044713995dd0efb7cb26095c0caf5b5adae6983209c771460b856380480f79ded[ALL] 03b53f69d665e20d41a91a2bbd0f5c3a6d1be4dd35c6640a4fd22004bfe555e7b6"}, "vout": 0, "txid": "6a738447807c0604c001c9ae27555f34bb1aebfa4fc0b846cc9f757fdc380f16"}, {"sequence": 4294967295, "scriptSig": {"hex": "48304502210080695547e156c78d427667ff83314c64404674ae9801a80790afedb0a2de8c130220278509bd618be0a5f19633b7431e6c41ed4c3735b3be11dbd4777e662366e3fe012103b097a86f79971b2e1dfa4be00e179dbc3f3d791376b9a1b0ccaaaf09fbc5581e", "asm": "304502210080695547e156c78d427667ff83314c64404674ae9801a80790afedb0a2de8c130220278509bd618be0a5f19633b7431e6c41ed4c3735b3be11dbd4777e662366e3fe[ALL] 03b097a86f79971b2e1dfa4be00e179dbc3f3d791376b9a1b0ccaaaf09fbc5581e"}, "vout": 0, "txid": "78f3a8ccb17626f224d5ff7f9059d988a8c6ec49e4b6850ef0d0d265dc3e8d3b"}, {"sequence": 4294967295, "scriptSig": {"hex": "483045022100c02a7bad400986f272db3d1fc2e755a40cb30b1e16e2fe240b86cba2b4cafd3402207fd1105080775e03a45d2065f1baae53f2e525b5f7234a58bbbb94cbcbba58bd0121029b86dd345a3d8e732efde16f4923bd0987194c3014dc1675f8ddf6746d0d232c", "asm": "3045022100c02a7bad400986f272db3d1fc2e755a40cb30b1e16e2fe240b86cba2b4cafd3402207fd1105080775e03a45d2065f1baae53f2e525b5f7234a58bbbb94cbcbba58bd[ALL] 029b86dd345a3d8e732efde16f4923bd0987194c3014dc1675f8ddf6746d0d232c"}, "vout": 0, "txid": "b3048eacfca182da5bf308b0812a8f2aba793a759623befbc16c2938aae443d0"}], "txid": "af3791a2f2d243501c5c3e42ae2afd1ed2f8f5375df04adeebaecfd13bed4d3e", "blocktime": 1537872475, "version": 1, "confirmations": 11486, "time": 1537872475, "locktime": 0, "vsize": 634, "size": 634}