{"hash": "af376a05b94a3aca558d5ad0a7a5d7efe8af42748d9f8fcea7bf4120bcef1dc6", "blockhash": "0000000000000000001cda96e906b7601b7a6fb1a3b62bca570a9e5d8f4b3de1", "vout": [{"scriptPubKey": {"type": "nulldata", "hex": "6a4c50000077c4000198821ccaf0374b3a05f819d1e5bf9ae76da98a211aaf6c953dd567cf27e7178290483b5de464d458b0b2bf01bb335baa12f606131900bbc367911d100759d4ba30d2c37bb011d97e02cf", "asm": "OP_RETURN 000077c4000198821ccaf0374b3a05f819d1e5bf9ae76da98a211aaf6c953dd567cf27e7178290483b5de464d458b0b2bf01bb335baa12f606131900bbc367911d100759d4ba30d2c37bb011d97e02cf"}, "value": 0.0, "n": 0}, {"scriptPubKey": {"reqSigs": 1, "hex": "76a9145120f252cfcb8032c26090b8a88a6828e0a7b23488ac", "addresses": ["18PyChygLvnM3cHHqkjpvEkLFvGRbbNyGf"], "asm": "OP_DUP OP_HASH160 5120f252cfcb8032c26090b8a88a6828e0a7b234 OP_EQUALVERIFY OP_CHECKSIG", "type": "pubkeyhash"}, "value": 0.00638587, "n": 1}], "hex": "01000000010aed6d60876ffddee45b9fa299e6bd1338237ad48ed99ddc63323d5c0c8d5f52000000006a47304402202b47f3300c451b61fc18727b49256ce61c395c37c41b9a002de0eba299c88af1022039a816a9a90dba5c9a8f578b31c4bd0eae344c1963a20bb379a663644f8572d0012103fd155831753d82c4b4fa3d32c1d000c2d7effc9772adc5b56a9966a00109ec33ffffffff020000000000000000536a4c50000077c4000198821ccaf0374b3a05f819d1e5bf9ae76da98a211aaf6c953dd567cf27e7178290483b5de464d458b0b2bf01bb335baa12f606131900bbc367911d100759d4ba30d2c37bb011d97e02cf7bbe0900000000001976a9145120f252cfcb8032c26090b8a88a6828e0a7b23488ac00000000", "vin": [{"sequence": 4294967295, "scriptSig": {"hex": "47304402202b47f3300c451b61fc18727b49256ce61c395c37c41b9a002de0eba299c88af1022039a816a9a90dba5c9a8f578b31c4bd0eae344c1963a20bb379a663644f8572d0012103fd155831753d82c4b4fa3d32c1d000c2d7effc9772adc5b56a9966a00109ec33", "asm": "304402202b47f3300c451b61fc18727b49256ce61c395c37c41b9a002de0eba299c88af1022039a816a9a90dba5c9a8f578b31c4bd0eae344c1963a20bb379a663644f8572d0[ALL] 03fd155831753d82c4b4fa3d32c1d000c2d7effc9772adc5b56a9966a00109ec33"}, "vout": 0, "txid": "525f8d0c5c3d3263dc9dd98ed47a233813bde699a29f5be4defd6f87606ded0a"}], "txid": "af376a05b94a3aca558d5ad0a7a5d7efe8af42748d9f8fcea7bf4120bcef1dc6", "blocktime": 1537873282, "version": 1, "confirmations": 11484, "time": 1537873282, "locktime": 0, "vsize": 283, "size": 283}