{"hash": "af3cfce04fb6fec73c7c3607b8c47079ea3370970a31d58ce428598861d4532f", "blockhash": "00000000000000000004ffacab907a6b429b9a5745fa0b75af4234bf69dd7176", "vout": [{"scriptPubKey": {"reqSigs": 1, "hex": "76a914d243e6abb9a60fbff430b421d2df4b7d59ec186088ac", "addresses": ["1LAnF8h3qMGx3TSwNUHVneBZUEpwE4gu3D"], "asm": "OP_DUP OP_HASH160 d243e6abb9a60fbff430b421d2df4b7d59ec1860 OP_EQUALVERIFY OP_CHECKSIG", "type": "pubkeyhash"}, "value": 0.00077314, "n": 0}, {"scriptPubKey": {"reqSigs": 1, "hex": "76a914ff2dafd979671e3119f277785b51cd5e1dc59cfa88ac", "addresses": ["1QGG3JM3rfQ6eJVW2t6pkXdYEGoXn6FnBy"], "asm": "OP_DUP OP_HASH160 ff2dafd979671e3119f277785b51cd5e1dc59cfa OP_EQUALVERIFY OP_CHECKSIG", "type": "pubkeyhash"}, "value": 5.46e-06, "n": 1}, {"scriptPubKey": {"type": "nulldata", "hex": "6a146f6d6e69000000000000001f0000008b94fc0b00", "asm": "OP_RETURN 6f6d6e69000000000000001f0000008b94fc0b00"}, "value": 0.0, "n": 2}], "hex": "01000000012722da336ab4369906e4aee8f807b68398159ccae3edd19fb4a7ce95c4588284000000006b483045022100e41a25b12aa371d6dcc9d26e62c7eb63989d766485c0b591d3b4a5324cb5c8aa02207cacbf9d1c158605224dfa590e330dc965547ffeafd9fa34e512dde23771cffa01210271977291b74f1f5f5c42157e8aae804664eaaeccfd097918450d37f28fb94d77ffffffff03022e0100000000001976a914d243e6abb9a60fbff430b421d2df4b7d59ec186088ac22020000000000001976a914ff2dafd979671e3119f277785b51cd5e1dc59cfa88ac0000000000000000166a146f6d6e69000000000000001f0000008b94fc0b0000000000", "vin": [{"sequence": 4294967295, "scriptSig": {"hex": "483045022100e41a25b12aa371d6dcc9d26e62c7eb63989d766485c0b591d3b4a5324cb5c8aa02207cacbf9d1c158605224dfa590e330dc965547ffeafd9fa34e512dde23771cffa01210271977291b74f1f5f5c42157e8aae804664eaaeccfd097918450d37f28fb94d77", "asm": "3045022100e41a25b12aa371d6dcc9d26e62c7eb63989d766485c0b591d3b4a5324cb5c8aa02207cacbf9d1c158605224dfa590e330dc965547ffeafd9fa34e512dde23771cffa[ALL] 0271977291b74f1f5f5c42157e8aae804664eaaeccfd097918450d37f28fb94d77"}, "vout": 0, "txid": "848258c495cea7b49fd1ede3ca9c159883b607f8e8aee4069936b46a33da2227"}], "txid": "af3cfce04fb6fec73c7c3607b8c47079ea3370970a31d58ce428598861d4532f", "blocktime": 1537875543, "version": 1, "confirmations": 11464, "time": 1537875543, "locktime": 0, "vsize": 257, "size": 257}