{"hash": "af3cac8a1da59222d198a944dd3005ae6926dc7ccb475db2b5e76cbea12d8e07", "blockhash": "0000000000000000001cda96e906b7601b7a6fb1a3b62bca570a9e5d8f4b3de1", "vout": [{"scriptPubKey": {"reqSigs": 1, "hex": "76a9144ef3b048b532dbc6fb80d2425cc2af604431a41c88ac", "addresses": ["18CTdkATSYVifawNCbDvyjBemdwN8LzHFo"], "asm": "OP_DUP OP_HASH160 4ef3b048b532dbc6fb80d2425cc2af604431a41c OP_EQUALVERIFY OP_CHECKSIG", "type": "pubkeyhash"}, "value": 0.00198344, "n": 0}, {"scriptPubKey": {"reqSigs": 1, "hex": "a914fc445aa9ee948ab8393d254a083becde8e85f45a87", "addresses": ["3Qgt6DRX87BqwPabdqrXG4g5dQ2HaBqtU7"], "asm": "OP_HASH160 fc445aa9ee948ab8393d254a083becde8e85f45a OP_EQUAL", "type": "scripthash"}, "value": 0.1005, "n": 1}], "hex": "010000000170b296b3cab38d24c94b8612d5b3d9e5e5ab4563a0640423ae650abe57d4f106010000006a47304402207dbf1571911de71dcd9a3c11d9dd1395a335f1819048d629ad8c01991f1436e50220367056a5a3d3d3e09e1050656bd11751751514a24396657d9a0ac5561d5da7830121036d1b51d34e4e71249d1b9d01a841e133e8ea84a6f66379bd5aa331dfc5eb488fffffffff02c8060300000000001976a9144ef3b048b532dbc6fb80d2425cc2af604431a41c88acd05999000000000017a914fc445aa9ee948ab8393d254a083becde8e85f45a8700000000", "vin": [{"sequence": 4294967295, "scriptSig": {"hex": "47304402207dbf1571911de71dcd9a3c11d9dd1395a335f1819048d629ad8c01991f1436e50220367056a5a3d3d3e09e1050656bd11751751514a24396657d9a0ac5561d5da7830121036d1b51d34e4e71249d1b9d01a841e133e8ea84a6f66379bd5aa331dfc5eb488f", "asm": "304402207dbf1571911de71dcd9a3c11d9dd1395a335f1819048d629ad8c01991f1436e50220367056a5a3d3d3e09e1050656bd11751751514a24396657d9a0ac5561d5da783[ALL] 036d1b51d34e4e71249d1b9d01a841e133e8ea84a6f66379bd5aa331dfc5eb488f"}, "vout": 1, "txid": "06f1d457be0a65ae230464a06345abe5e5d9b3d512864bc9248db3cab396b270"}], "txid": "af3cac8a1da59222d198a944dd3005ae6926dc7ccb475db2b5e76cbea12d8e07", "blocktime": 1537873282, "version": 1, "confirmations": 11484, "time": 1537873282, "locktime": 0, "vsize": 223, "size": 223}