{"hash": "6a34bad1377d3502c9944d3db0e8def577e80d9e16ff273d1105c39fceeb4413", "blockhash": "00000000000000000017f5eb5941039fbcee6240d03bc1f2f8e35350df66a1d8", "vout": [{"scriptPubKey": {"reqSigs": 1, "hex": "76a914707514f82285fbbd453e122656d653e8ee5c2b6f88ac", "addresses": ["1BFcwUmji4j541eH4G24j537XzvDe6Lr57"], "asm": "OP_DUP OP_HASH160 707514f82285fbbd453e122656d653e8ee5c2b6f OP_EQUALVERIFY OP_CHECKSIG", "type": "pubkeyhash"}, "value": 0.002133, "n": 0}, {"scriptPubKey": {"reqSigs": 1, "hex": "a9142dc538ce71cb10a50d79fee1183261a5aeb32cf087", "addresses": ["35s2bPoarLj4QBiUDCELzcdxvdESLJDA31"], "asm": "OP_HASH160 2dc538ce71cb10a50d79fee1183261a5aeb32cf0 OP_EQUAL", "type": "scripthash"}, "value": 0.02390574, "n": 1}], "hex": "010000000001012b99491810d2a8d77b2b3729c07fbcd32b50166270d9e1c208ee227cb3557c1f0100000023220020a43533702b8f918e85109c5bb0cb3d02adee351674fb390409f559de892642a5ffffffff0234410300000000001976a914707514f82285fbbd453e122656d653e8ee5c2b6f88ac2e7a24000000000017a9142dc538ce71cb10a50d79fee1183261a5aeb32cf0870400483045022100eb76bb6094422bc54d493ecd7b25e4c83047d45f3d02ded119b812a30b53bd34022052684f1c1a1a0d2a08b3a3bb1dc8476214779f8e4648c72d5d0c6f68eacb513b01483045022100acbe13f28760bbbeba65847deaced10464053c2edc80e7473b1a15381565d69802200440fb0f9d75a48938740fe95ca485296ca8ee07b8e83ba3ac09219dd6fe09f90147522103b365417e780d3880bb487601bec488db710283cefbf9f514ea1ec0c1ad1680d4210203c534d0fa987b3bd3c576fb75f2fc2fd33a71170864e7d6ef4934997f28cd7052ae00000000", "vin": [{"txinwitness": ["", "3045022100eb76bb6094422bc54d493ecd7b25e4c83047d45f3d02ded119b812a30b53bd34022052684f1c1a1a0d2a08b3a3bb1dc8476214779f8e4648c72d5d0c6f68eacb513b01", "3045022100acbe13f28760bbbeba65847deaced10464053c2edc80e7473b1a15381565d69802200440fb0f9d75a48938740fe95ca485296ca8ee07b8e83ba3ac09219dd6fe09f901", "522103b365417e780d3880bb487601bec488db710283cefbf9f514ea1ec0c1ad1680d4210203c534d0fa987b3bd3c576fb75f2fc2fd33a71170864e7d6ef4934997f28cd7052ae"], "sequence": 4294967295, "scriptSig": {"hex": "220020a43533702b8f918e85109c5bb0cb3d02adee351674fb390409f559de892642a5", "asm": "0020a43533702b8f918e85109c5bb0cb3d02adee351674fb390409f559de892642a5"}, "vout": 1, "txid": "1f7c55b37c22ee08c2e1d9706216502bd3bc7fc029372b7bd7a8d2101849992b"}], "txid": "af3e0b3f098c484d1803177187cd568d26c6568994dbf3a20b86b6a9ff0ed3b6", "blocktime": 1537874412, "version": 1, "confirmations": 11468, "time": 1537874412, "locktime": 0, "vsize": 208, "size": 374}