{"hash": "af44c70ba7551c5bcb774c45a0209fba8c6f6d2f9473f3b165867a356287bd2b", "blockhash": "0000000000000000001e0dab787dd257d1dbfcb92a98c2207d5e1078be1f4165", "vout": [{"scriptPubKey": {"reqSigs": 1, "hex": "76a914faebaa606426c1a25bbce9263f01679341ac2ddf88ac", "addresses": ["1PskFHaqaGE3eXuawQEcocK8o7v6u58uR9"], "asm": "OP_DUP OP_HASH160 faebaa606426c1a25bbce9263f01679341ac2ddf OP_EQUALVERIFY OP_CHECKSIG", "type": "pubkeyhash"}, "value": 0.00011302, "n": 0}, {"scriptPubKey": {"reqSigs": 1, "hex": "a9141e155d2e2ce771cdfad5348b161160fea4109f7487", "addresses": ["34S5nhEJLGdKtApfkPgTjTYPY4wVRYcSnU"], "asm": "OP_HASH160 1e155d2e2ce771cdfad5348b161160fea4109f74 OP_EQUAL", "type": "scripthash"}, "value": 0.09388131, "n": 1}], "hex": "0100000001c0517604ad5a6b01bf569297fe0ea712f21b346baaa3fc75ea625b7f5e4e96d4000000006b48304502210099f786127467232f4859691e3189ba45761d6b87156819e91d4b3fc202b900380220590210169fd3e459a076320a3f1619f380197549bf2a833af039a8455ae35e1a01210261fc62c949172d8ab28954117f01c46128c9b25207aaebef66398399352707a9ffffffff02262c0000000000001976a914faebaa606426c1a25bbce9263f01679341ac2ddf88ac63408f000000000017a9141e155d2e2ce771cdfad5348b161160fea4109f748700000000", "vin": [{"sequence": 4294967295, "scriptSig": {"hex": "48304502210099f786127467232f4859691e3189ba45761d6b87156819e91d4b3fc202b900380220590210169fd3e459a076320a3f1619f380197549bf2a833af039a8455ae35e1a01210261fc62c949172d8ab28954117f01c46128c9b25207aaebef66398399352707a9", "asm": "304502210099f786127467232f4859691e3189ba45761d6b87156819e91d4b3fc202b900380220590210169fd3e459a076320a3f1619f380197549bf2a833af039a8455ae35e1a[ALL] 0261fc62c949172d8ab28954117f01c46128c9b25207aaebef66398399352707a9"}, "vout": 0, "txid": "d4964e5e7f5b62ea75fca3aa6b341bf212a70efe979256bf016b5aad047651c0"}], "txid": "af44c70ba7551c5bcb774c45a0209fba8c6f6d2f9473f3b165867a356287bd2b", "blocktime": 1537872475, "version": 1, "confirmations": 11487, "time": 1537872475, "locktime": 0, "vsize": 224, "size": 224}