{"hash": "af44afa97dcd897959d6e5b11a228f52f8c960741f57c1630c60af650ba4d5d5", "blockhash": "000000000000000000022b45ed06c6f4ccd3cf7fb5ba4856ebd2e58215665228", "vout": [{"scriptPubKey": {"reqSigs": 1, "hex": "76a9144a6cfc90a4d1d5c1cce407f701b80d1ce85cde4288ac", "addresses": ["17nXZiXPWCvmqSHRJ5UCPgfKCp6sQvzpTF"], "asm": "OP_DUP OP_HASH160 4a6cfc90a4d1d5c1cce407f701b80d1ce85cde42 OP_EQUALVERIFY OP_CHECKSIG", "type": "pubkeyhash"}, "value": 0.00618284, "n": 0}], "hex": "01000000019045889900e94abc953c31d53569a3848c03373780f5a74d1764994d44cba206010000006a47304402201a0c5d691f18f1e59fad02667a3c6223809aa73a31a3f4a7c4d61ed94f19676902205e5010c2dee2348c17a2cd4de1699be28a3b0d60c0483607f0a5763b0f0a580e01210396c184345d1ac5577af15c59f80688146641ac2aeab8de5473c1d51d20b97de5ffffffff012c6f0900000000001976a9144a6cfc90a4d1d5c1cce407f701b80d1ce85cde4288ac00000000", "vin": [{"sequence": 4294967295, "scriptSig": {"hex": "47304402201a0c5d691f18f1e59fad02667a3c6223809aa73a31a3f4a7c4d61ed94f19676902205e5010c2dee2348c17a2cd4de1699be28a3b0d60c0483607f0a5763b0f0a580e01210396c184345d1ac5577af15c59f80688146641ac2aeab8de5473c1d51d20b97de5", "asm": "304402201a0c5d691f18f1e59fad02667a3c6223809aa73a31a3f4a7c4d61ed94f19676902205e5010c2dee2348c17a2cd4de1699be28a3b0d60c0483607f0a5763b0f0a580e[ALL] 0396c184345d1ac5577af15c59f80688146641ac2aeab8de5473c1d51d20b97de5"}, "vout": 1, "txid": "06a2cb444d9964174da7f5803737038c84a36935d5313c95bc4ae90099884590"}], "txid": "af44afa97dcd897959d6e5b11a228f52f8c960741f57c1630c60af650ba4d5d5", "blocktime": 1537869901, "version": 1, "confirmations": 11523, "time": 1537869901, "locktime": 0, "vsize": 191, "size": 191}