{"hash": "af4b69946343c9147f2e468454f5fb6ac55f1a589f6235dbcf31abae555da641", "blockhash": "000000000000000000022b45ed06c6f4ccd3cf7fb5ba4856ebd2e58215665228", "vout": [{"scriptPubKey": {"reqSigs": 1, "hex": "a9149abe7801fbe1f24a6c5beb816dfbc345f984972e87", "addresses": ["3FoEA65xxBKKbYqnXwzDWSbPzAjmj7jbyv"], "asm": "OP_HASH160 9abe7801fbe1f24a6c5beb816dfbc345f984972e OP_EQUAL", "type": "scripthash"}, "value": 0.00125, "n": 0}, {"scriptPubKey": {"reqSigs": 1, "hex": "76a9140aab9b04817a90730eb5f29cd095c96e2efb45c688ac", "addresses": ["1yRLHFC4NMvwiv74nSSf6Rkh4sfH4NfQ7"], "asm": "OP_DUP OP_HASH160 0aab9b04817a90730eb5f29cd095c96e2efb45c6 OP_EQUALVERIFY OP_CHECKSIG", "type": "pubkeyhash"}, "value": 0.04105632, "n": 1}], "hex": "01000000012b483def63f9d5bfe955f18910334505d7fe04dbcac1dd0640c584ba56a75ddc010000006a473044022067a72048a25d6046a9a28237af4e792e0898b7f5053b13bc32f146c14ab89fe702205fbe2fe0647aaaae0db643543b2d19ef981226bf23b2a3ed9e37ee66516a71aa01210367ece3e712b45c9d9d8b18372251c72c1d93ebbaa20bafcd4ab82ccc1fd6808bffffffff0248e801000000000017a9149abe7801fbe1f24a6c5beb816dfbc345f984972e87a0a53e00000000001976a9140aab9b04817a90730eb5f29cd095c96e2efb45c688ac00000000", "vin": [{"sequence": 4294967295, "scriptSig": {"hex": "473044022067a72048a25d6046a9a28237af4e792e0898b7f5053b13bc32f146c14ab89fe702205fbe2fe0647aaaae0db643543b2d19ef981226bf23b2a3ed9e37ee66516a71aa01210367ece3e712b45c9d9d8b18372251c72c1d93ebbaa20bafcd4ab82ccc1fd6808b", "asm": "3044022067a72048a25d6046a9a28237af4e792e0898b7f5053b13bc32f146c14ab89fe702205fbe2fe0647aaaae0db643543b2d19ef981226bf23b2a3ed9e37ee66516a71aa[ALL] 0367ece3e712b45c9d9d8b18372251c72c1d93ebbaa20bafcd4ab82ccc1fd6808b"}, "vout": 1, "txid": "dc5da756ba84c54006ddc1cadb04fed70545331089f155e9bfd5f963ef3d482b"}], "txid": "af4b69946343c9147f2e468454f5fb6ac55f1a589f6235dbcf31abae555da641", "blocktime": 1537869901, "version": 1, "confirmations": 11522, "time": 1537869901, "locktime": 0, "vsize": 223, "size": 223}