{"hash": "af4cb5d5f2328521963b30cb4e524ec1b14b9ea61164f17c8c87a34640d7c53b", "blockhash": "0000000000000000000baef3f32e3676a92c3b2e5da21b426e4f302fc371ce76", "vout": [{"scriptPubKey": {"reqSigs": 1, "hex": "76a914aa6d4d20c83754f5594639bc0cebb2d5a34a9af888ac", "addresses": ["1GY8ozr5BjuqZDmSpCDRFpQhYYm1xWxJTm"], "asm": "OP_DUP OP_HASH160 aa6d4d20c83754f5594639bc0cebb2d5a34a9af8 OP_EQUALVERIFY OP_CHECKSIG", "type": "pubkeyhash"}, "value": 0.01378084, "n": 0}, {"scriptPubKey": {"type": "nulldata", "hex": "6a4c500000781400015db435de848d4898009fffa1702940d64fa54d8eb2d19ed074892d00f8e8966f861419e591b40a61c2bfa2d1b1055baa1bca06151c4efe29a49fbc9a9526289ac0f6612cd74e33776ee4", "asm": "OP_RETURN 0000781400015db435de848d4898009fffa1702940d64fa54d8eb2d19ed074892d00f8e8966f861419e591b40a61c2bfa2d1b1055baa1bca06151c4efe29a49fbc9a9526289ac0f6612cd74e33776ee4"}, "value": 0.0, "n": 1}], "hex": "010000000157a96a8a78acc50a6cbbe2c824d5f5006d0c359facc2f212d99b5044a11eea56000000006a47304402204ce8a78e5536c4d330689de152aef44411cd12600f89848ba3d99ac38ed0416a02205aa7bee925cd3d7e6bc4f049926db1a8fb8b2b9bae27e568a7e8930a736ea5fe012102de9903516379fcd44e1c6d47cb2ffac43accd4c78406520e3d2687d69a35b64cffffffff0224071500000000001976a914aa6d4d20c83754f5594639bc0cebb2d5a34a9af888ac0000000000000000536a4c500000781400015db435de848d4898009fffa1702940d64fa54d8eb2d19ed074892d00f8e8966f861419e591b40a61c2bfa2d1b1055baa1bca06151c4efe29a49fbc9a9526289ac0f6612cd74e33776ee400000000", "vin": [{"sequence": 4294967295, "scriptSig": {"hex": "47304402204ce8a78e5536c4d330689de152aef44411cd12600f89848ba3d99ac38ed0416a02205aa7bee925cd3d7e6bc4f049926db1a8fb8b2b9bae27e568a7e8930a736ea5fe012102de9903516379fcd44e1c6d47cb2ffac43accd4c78406520e3d2687d69a35b64c", "asm": "304402204ce8a78e5536c4d330689de152aef44411cd12600f89848ba3d99ac38ed0416a02205aa7bee925cd3d7e6bc4f049926db1a8fb8b2b9bae27e568a7e8930a736ea5fe[ALL] 02de9903516379fcd44e1c6d47cb2ffac43accd4c78406520e3d2687d69a35b64c"}, "vout": 0, "txid": "56ea1ea144509bd912f2c2ac9f350c6d00f5d524c8e2bb6c0ac5ac788a6aa957"}], "txid": "af4cb5d5f2328521963b30cb4e524ec1b14b9ea61164f17c8c87a34640d7c53b", "blocktime": 1537876114, "version": 1, "confirmations": 11460, "time": 1537876114, "locktime": 0, "vsize": 283, "size": 283}