{"hash": "af4ddb764e7659390065653d217b3bcedeee27459bd1406b26a81fdc7c4b6ae0", "blockhash": "00000000000000000018f53835495a110e01622372bf6ae95dc86f2b0ab887b0", "vout": [{"scriptPubKey": {"reqSigs": 1, "hex": "76a914f352e362f0e5d719b243d120ed414e227815758a88ac", "addresses": ["1PBaVnp8M7QPa928djnXEnojktBPmBn1ok"], "asm": "OP_DUP OP_HASH160 f352e362f0e5d719b243d120ed414e227815758a OP_EQUALVERIFY OP_CHECKSIG", "type": "pubkeyhash"}, "value": 0.00056192, "n": 0}, {"scriptPubKey": {"reqSigs": 1, "hex": "a91494a6ee8544142a4caece2f4cd99f7108093e2eb687", "addresses": ["3FF1uZ5oEaSZYKCvGbywu39djsknrGeu96"], "asm": "OP_HASH160 94a6ee8544142a4caece2f4cd99f7108093e2eb6 OP_EQUAL", "type": "scripthash"}, "value": 0.18268814, "n": 1}], "hex": "020000000277fceafa4c5db7c7d76e2396f5a78a45138f11c673c6a693fbb36d624ef5cb9a010000006b483045022100bc073cd9124cc5acdbada498dac5253bf67ee581b311c36ed4fd34702ea8c43102201b3c5d40b7e2d21b85de24cc91fbf367ac1763b0fea4e2c0c1ae5c8f401ca69d01210294d50ceff013aa213c19f21defb6f73674af7eb9793e12e6c5473f36c02063e1feffffffecda5c53559e6925445ea226935ec40a6ac1b078c6122c49aca9d4ffc67e4758010000006b4830450221008f908abbbc1095a940684bfbc786be14e208026a0ed5151a569878c01ec99add02206b92d539af817291b89900f921988d1140a0d03244081e7984095e907d185d34012103aab7c7bb6211172d7df9026acf83dd00763fde008bf4c63c5cd906b8b36f01e7feffffff0280db0000000000001976a914f352e362f0e5d719b243d120ed414e227815758a88ac8ec216010000000017a91494a6ee8544142a4caece2f4cd99f7108093e2eb6870e490800", "vin": [{"sequence": 4294967294, "scriptSig": {"hex": "483045022100bc073cd9124cc5acdbada498dac5253bf67ee581b311c36ed4fd34702ea8c43102201b3c5d40b7e2d21b85de24cc91fbf367ac1763b0fea4e2c0c1ae5c8f401ca69d01210294d50ceff013aa213c19f21defb6f73674af7eb9793e12e6c5473f36c02063e1", "asm": "3045022100bc073cd9124cc5acdbada498dac5253bf67ee581b311c36ed4fd34702ea8c43102201b3c5d40b7e2d21b85de24cc91fbf367ac1763b0fea4e2c0c1ae5c8f401ca69d[ALL] 0294d50ceff013aa213c19f21defb6f73674af7eb9793e12e6c5473f36c02063e1"}, "vout": 1, "txid": "9acbf54e626db3fb93a6c673c6118f13458aa7f596236ed7c7b75d4cfaeafc77"}, {"sequence": 4294967294, "scriptSig": {"hex": "4830450221008f908abbbc1095a940684bfbc786be14e208026a0ed5151a569878c01ec99add02206b92d539af817291b89900f921988d1140a0d03244081e7984095e907d185d34012103aab7c7bb6211172d7df9026acf83dd00763fde008bf4c63c5cd906b8b36f01e7", "asm": "30450221008f908abbbc1095a940684bfbc786be14e208026a0ed5151a569878c01ec99add02206b92d539af817291b89900f921988d1140a0d03244081e7984095e907d185d34[ALL] 03aab7c7bb6211172d7df9026acf83dd00763fde008bf4c63c5cd906b8b36f01e7"}, "vout": 1, "txid": "58477ec6ffd4a9ac492c12c678b0c16a0ac45e9326a25e4425699e55535cdaec"}], "txid": "af4ddb764e7659390065653d217b3bcedeee27459bd1406b26a81fdc7c4b6ae0", "blocktime": 1537870928, "version": 2, "confirmations": 11512, "time": 1537870928, "locktime": 542990, "vsize": 372, "size": 372}