{"hash": "af51dc7040f8b3513821bfefd0693f35cb27011ae4ac7c151cabeaf7f4132b4f", "blockhash": "0000000000000000001cda96e906b7601b7a6fb1a3b62bca570a9e5d8f4b3de1", "vout": [{"scriptPubKey": {"reqSigs": 1, "hex": "76a914369f005934d4e62c2e331f3b4fe48a2e44c5a9de88ac", "addresses": ["15yoxy6Js1KiTpZmTqE3xdoNkzUK91SL77"], "asm": "OP_DUP OP_HASH160 369f005934d4e62c2e331f3b4fe48a2e44c5a9de OP_EQUALVERIFY OP_CHECKSIG", "type": "pubkeyhash"}, "value": 0.03854391, "n": 0}, {"scriptPubKey": {"reqSigs": 1, "hex": "76a914a64fff5db97cb65b0b724f1ce4268a09bce44f4588ac", "addresses": ["1GAP1ApNAiEYSTd9RixcLMFkjAWrEgmvvR"], "asm": "OP_DUP OP_HASH160 a64fff5db97cb65b0b724f1ce4268a09bce44f45 OP_EQUALVERIFY OP_CHECKSIG", "type": "pubkeyhash"}, "value": 0.06492267, "n": 1}], "hex": "01000000014ff13b8048aff9534259a8f788914ffa9566a098375cfceb36f2ac7711b87e36070000006a473044022009a38c98cfa2f242e0f9c38d4dcb129fdcebeebaff112866b0acf40ded9a55bd02201dcedec477d5b5bef3478d9b0a6a880a9beaebc925b95c62ba4be794bef442e20121028a6aa642c660c8a25530d9a096698e6d37a9996074d9239f28802edb45036d1fffffffff0237d03a00000000001976a914369f005934d4e62c2e331f3b4fe48a2e44c5a9de88ac6b106300000000001976a914a64fff5db97cb65b0b724f1ce4268a09bce44f4588ac00000000", "vin": [{"sequence": 4294967295, "scriptSig": {"hex": "473044022009a38c98cfa2f242e0f9c38d4dcb129fdcebeebaff112866b0acf40ded9a55bd02201dcedec477d5b5bef3478d9b0a6a880a9beaebc925b95c62ba4be794bef442e20121028a6aa642c660c8a25530d9a096698e6d37a9996074d9239f28802edb45036d1f", "asm": "3044022009a38c98cfa2f242e0f9c38d4dcb129fdcebeebaff112866b0acf40ded9a55bd02201dcedec477d5b5bef3478d9b0a6a880a9beaebc925b95c62ba4be794bef442e2[ALL] 028a6aa642c660c8a25530d9a096698e6d37a9996074d9239f28802edb45036d1f"}, "vout": 7, "txid": "367eb81177acf236ebfc5c3798a06695fa4f9188f7a8594253f9af48803bf14f"}], "txid": "af51dc7040f8b3513821bfefd0693f35cb27011ae4ac7c151cabeaf7f4132b4f", "blocktime": 1537873282, "version": 1, "confirmations": 11481, "time": 1537873282, "locktime": 0, "vsize": 225, "size": 225}