{"hash": "a90768f45d636ca2e4e816e05d05fda077f3df41991754601de25f62d2d0ee62", "blockhash": "0000000000000000000e13cef7c366c0283d82e591d1acd082e914b08063cdf1", "vout": [{"scriptPubKey": {"reqSigs": 1, "hex": "a91469f37683db5ce52587c6e0d7f53d6e6934d29f6d87", "addresses": ["3BMEXnft6QMRh9ieUhYJRG9fAhuGezFSXX"], "asm": "OP_HASH160 69f37683db5ce52587c6e0d7f53d6e6934d29f6d OP_EQUAL", "type": "scripthash"}, "value": 0.04061336, "n": 0}, {"scriptPubKey": {"reqSigs": 1, "hex": "a914eefa57408c2f7e985c86d7e7eef99433642b949687", "addresses": ["3PUceBgxBEBWMrPjwSvEuhYPgnfrUm3m9B"], "asm": "OP_HASH160 eefa57408c2f7e985c86d7e7eef99433642b9496 OP_EQUAL", "type": "scripthash"}, "value": 0.0028763, "n": 1}, {"scriptPubKey": {"reqSigs": 1, "hex": "76a9140abd0c189470b8c76d8469810098e8a1e5a8cc2e88ac", "addresses": ["1ynE9nhGsQWCrW5c5J4BtDc33TQHkhZJM"], "asm": "OP_DUP OP_HASH160 0abd0c189470b8c76d8469810098e8a1e5a8cc2e OP_EQUALVERIFY OP_CHECKSIG", "type": "pubkeyhash"}, "value": 0.05158889, "n": 2}, {"scriptPubKey": {"reqSigs": 1, "hex": "76a914e699f3f23c8a0275b061a5972fdfa7aec984e83688ac", "addresses": ["1N2JqxWYU8j3oCWzejp855qySA28P3mB5C"], "asm": "OP_DUP OP_HASH160 e699f3f23c8a0275b061a5972fdfa7aec984e836 OP_EQUALVERIFY OP_CHECKSIG", "type": "pubkeyhash"}, "value": 0.00941251, "n": 3}, {"scriptPubKey": {"reqSigs": 1, "hex": "a914905c29efe939122f4b0c0ecf25e97de09560dc8987", "addresses": ["3ErKdpc8HWTqWrajcqU6svDBVGoXxutezC"], "asm": "OP_HASH160 905c29efe939122f4b0c0ecf25e97de09560dc89 OP_EQUAL", "type": "scripthash"}, "value": 0.00355, "n": 4}, {"scriptPubKey": {"reqSigs": 1, "hex": "a914a88f5dc1f703d914442eb5d12fcf721e2e90bf5987", "addresses": ["3H4HC2pxuND71MAQ4zM8uimFtAjVgnC5uF"], "asm": "OP_HASH160 a88f5dc1f703d914442eb5d12fcf721e2e90bf59 OP_EQUAL", "type": "scripthash"}, "value": 0.00201569, "n": 5}, {"scriptPubKey": {"reqSigs": 1, "hex": "a9143dfefe1c9201dce6204472ad66cff6f736c6a1ba87", "addresses": ["37LpcSg9seKDjMdK2XFtbxfdPEjcL46MJn"], "asm": "OP_HASH160 3dfefe1c9201dce6204472ad66cff6f736c6a1ba OP_EQUAL", "type": "scripthash"}, "value": 0.00390765, "n": 6}, {"scriptPubKey": {"reqSigs": 1, "hex": "a91489973616eca1629f5d48f41d9b4fbada0091d20287", "addresses": ["3EEXeAkc68uqX31Dukbq6NgGvkefHHPmwg"], "asm": "OP_HASH160 89973616eca1629f5d48f41d9b4fbada0091d202 OP_EQUAL", "type": "scripthash"}, "value": 0.02486236, "n": 7}, {"scriptPubKey": {"reqSigs": 1, "hex": "a9148d259202d46da0d542411d00f5b946a2915f6c0087", "addresses": ["3EZLD2TSsg15rFwYS6iZa8mdN7ZihtwSoJ"], "asm": "OP_HASH160 8d259202d46da0d542411d00f5b946a2915f6c00 OP_EQUAL", "type": "scripthash"}, "value": 0.00133714, "n": 8}, {"scriptPubKey": {"reqSigs": 1, "hex": "76a91444b1ef9c27cc5d3ddba6c8e0486442a90d5c113f88ac", "addresses": ["17GE7FfcQyXhtsDwLhHuYGYbGwZdLxjr2H"], "asm": "OP_DUP OP_HASH160 44b1ef9c27cc5d3ddba6c8e0486442a90d5c113f OP_EQUALVERIFY OP_CHECKSIG", "type": "pubkeyhash"}, "value": 0.00285323, "n": 9}, {"scriptPubKey": {"reqSigs": 1, "hex": "a9148b56cafe3e55d9e51443bd24f73abef05beceecc87", "addresses": ["3EPmpgq38CVuu57vpushHstxQoNmE5FoRU"], "asm": "OP_HASH160 8b56cafe3e55d9e51443bd24f73abef05beceecc OP_EQUAL", "type": "scripthash"}, "value": 0.00348666, "n": 10}, {"scriptPubKey": {"reqSigs": 1, "hex": "a91454c8cb6484cc3ee380ac6761b81b262b6152e24f87", "addresses": ["39RKE6zYtYNgKMraqaHDwpzgWbvNXJ6NWQ"], "asm": "OP_HASH160 54c8cb6484cc3ee380ac6761b81b262b6152e24f OP_EQUAL", "type": "scripthash"}, "value": 0.00283018, "n": 11}, {"scriptPubKey": {"reqSigs": 1, "hex": "a914bd17c721a8dca1624dcad5f159c7b0dddab99e2287", "addresses": ["3Jvr7uycCbgVyK7PqgkXrhWw3bi1V1xzvC"], "asm": "OP_HASH160 bd17c721a8dca1624dcad5f159c7b0dddab99e22 OP_EQUAL", "type": "scripthash"}, "value": 0.00059246, "n": 12}, {"scriptPubKey": {"reqSigs": 1, "hex": "a914f5259e61a6d5252cb4f15973217927ce39fcd6d887", "addresses": ["3Q3EYLJyPYhZvRbXyFxzqyn5BMedNQhKgw"], "asm": "OP_HASH160 f5259e61a6d5252cb4f15973217927ce39fcd6d8 OP_EQUAL", "type": "scripthash"}, "value": 0.00017077, "n": 13}, {"scriptPubKey": {"reqSigs": 1, "hex": "a914be70484a12f1926db36faa7320240ccd25d02c0a87", "addresses": ["3K3xpWRTAUd45daKgKqxEytSxyskmzzLhV"], "asm": "OP_HASH160 be70484a12f1926db36faa7320240ccd25d02c0a OP_EQUAL", "type": "scripthash"}, "value": 0.00225415, "n": 14}, {"scriptPubKey": {"reqSigs": 1, "hex": "a914d041e32353f46430ad8590a4d9e96f79a92066fb87", "addresses": ["3LgBQNVgGHCWeqAtP3TJWpSdHkNym3aBoJ"], "asm": "OP_HASH160 d041e32353f46430ad8590a4d9e96f79a92066fb OP_EQUAL", "type": "scripthash"}, "value": 0.01920441, "n": 15}, {"scriptPubKey": {"reqSigs": 1, "hex": "a914789df44164354ffddfd8df4642ded7b95b9d243287", "addresses": ["3CgnEQddfXFf31aSbBReSm9xN9YnjpjC4k"], "asm": "OP_HASH160 789df44164354ffddfd8df4642ded7b95b9d2432 OP_EQUAL", "type": "scripthash"}, "value": 0.04495, "n": 16}, {"scriptPubKey": {"reqSigs": 1, "hex": "a9143cf9248c79db0421c2ec871eceab48371f4c5eea87", "addresses": ["37FQvoA49UwzxhyfAVF9GUDUsHAbzpwuH4"], "asm": "OP_HASH160 3cf9248c79db0421c2ec871eceab48371f4c5eea OP_EQUAL", "type": "scripthash"}, "value": 0.00392614, "n": 17}, {"scriptPubKey": {"reqSigs": 1, "hex": "76a91487e8bb7e7ce28c9739d2fa08f6fcfd2e793aaebb88ac", "addresses": ["1DPd2RofLfJNYAKDUcxbxS7joCZevnF8Yr"], "asm": "OP_DUP OP_HASH160 87e8bb7e7ce28c9739d2fa08f6fcfd2e793aaebb OP_EQUALVERIFY OP_CHECKSIG", "type": "pubkeyhash"}, "value": 0.09086644, "n": 18}, {"scriptPubKey": {"reqSigs": 1, "hex": "76a9145c332fa595925c4669b5fb8974eafb6f779ad0b888ac", "addresses": ["19QWV86iueo12zRLiuVqyTU2iQHzAMWeQv"], "asm": "OP_DUP OP_HASH160 5c332fa595925c4669b5fb8974eafb6f779ad0b8 OP_EQUALVERIFY OP_CHECKSIG", "type": "pubkeyhash"}, "value": 0.01245, "n": 19}, {"scriptPubKey": {"reqSigs": 1, "hex": "76a9149f5afdd793bc9288811b990743fda79f35ced56988ac", "addresses": ["1FXbShxfwd2qMGGEsG1Df1pdZ1iHEuTR2D"], "asm": "OP_DUP OP_HASH160 9f5afdd793bc9288811b990743fda79f35ced569 OP_EQUALVERIFY OP_CHECKSIG", "type": "pubkeyhash"}, "value": 0.00223781, "n": 20}, {"scriptPubKey": {"reqSigs": 1, "hex": "a914dbd1724e697d91a9ccaec186230d64c9c54a82ea87", "addresses": ["3MjJp9qZa1URx9bH2D4ZJJJ2CNQraYuM9H"], "asm": "OP_HASH160 dbd1724e697d91a9ccaec186230d64c9c54a82ea OP_EQUAL", "type": "scripthash"}, "value": 0.00938719, "n": 21}, {"scriptPubKey": {"reqSigs": 1, "hex": "a914ab5e390aedc61286b08e51385f61dbd16b530bbd87", "addresses": ["3HK8M4d6PViZZgMAkinVRW2qzypeKRdSaY"], "asm": "OP_HASH160 ab5e390aedc61286b08e51385f61dbd16b530bbd OP_EQUAL", "type": "scripthash"}, "value": 0.00754999, "n": 22}, {"scriptPubKey": {"reqSigs": 1, "hex": "76a91469cd93fd9d1d13dedaec85946d1efb180744122b88ac", "addresses": ["1AeSDxaPa7xuYCTVYC97duavaHMEqiZLBy"], "asm": "OP_DUP OP_HASH160 69cd93fd9d1d13dedaec85946d1efb180744122b OP_EQUALVERIFY OP_CHECKSIG", "type": "pubkeyhash"}, "value": 0.03514579, "n": 23}, {"scriptPubKey": {"reqSigs": 1, "hex": "76a9144ceacfc224823323efaf8847d7ffbd1be6e95eb888ac", "addresses": ["181heaBPPdmtsrS2XzVCGpCMbv2KgKEAD3"], "asm": "OP_DUP OP_HASH160 4ceacfc224823323efaf8847d7ffbd1be6e95eb8 OP_EQUALVERIFY OP_CHECKSIG", "type": "pubkeyhash"}, "value": 1.01115, "n": 24}, {"scriptPubKey": {"reqSigs": 1, "hex": "a9145cf40241bd32b9099bbf8717278275693570b7fe87", "addresses": ["3AAWQDpfws6BcLi1soKkxUxBJetVZHSV6b"], "asm": "OP_HASH160 5cf40241bd32b9099bbf8717278275693570b7fe OP_EQUAL", "type": "scripthash"}, "value": 0.1152892, "n": 25}, {"scriptPubKey": {"reqSigs": 1, "hex": "a914aacb74d18414bef82268a4988db0d6a53ce396d587", "addresses": ["3HG6XYjjXNTTFvYZoNH3jDSrr5aCvQGEXJ"], "asm": "OP_HASH160 aacb74d18414bef82268a4988db0d6a53ce396d5 OP_EQUAL", "type": "scripthash"}, "value": 0.00438859, "n": 26}, {"scriptPubKey": {"reqSigs": 1, "hex": "a914ca5125e3997a06eab3c1c9e915009de901d8efbf87", "addresses": ["3L8mdZBXtucroGmPpdvkWschTJXqg58ZDq"], "asm": "OP_HASH160 ca5125e3997a06eab3c1c9e915009de901d8efbf OP_EQUAL", "type": "scripthash"}, "value": 0.00687377, "n": 27}, {"scriptPubKey": {"reqSigs": 1, "hex": "76a914026c556843485df55d7c870a29da30e49dbf325288ac", "addresses": ["1Dp8Y54RULKrzVqx1yVAKcYKhkYCAuKhx"], "asm": "OP_DUP OP_HASH160 026c556843485df55d7c870a29da30e49dbf3252 OP_EQUALVERIFY OP_CHECKSIG", "type": "pubkeyhash"}, "value": 0.0034, "n": 28}, {"scriptPubKey": {"reqSigs": 1, "hex": "a9146e6251aa49a5bf143aefd2e9f5ddbc9693648d0887", "addresses": ["3Bkg2yAzKcwMznmUUfp4ubsgjJRbvCfpBL"], "asm": "OP_HASH160 6e6251aa49a5bf143aefd2e9f5ddbc9693648d08 OP_EQUAL", "type": "scripthash"}, "value": 0.00408803, "n": 29}, {"scriptPubKey": {"reqSigs": 1, "hex": "a914832d08af8a19bb5c8044048d8b5041e4f798583e87", "addresses": ["3DecPgj7Ev2tepANk8sHDPuSv5gJC26vcg"], "asm": "OP_HASH160 832d08af8a19bb5c8044048d8b5041e4f798583e OP_EQUAL", "type": "scripthash"}, "value": 0.00047559, "n": 30}], "hex": "02000000000102583e7e2dc603090d6a6d9dd62d1a5fd2487b06b9fbc32f31c6ef36bda364667d0d00000017160014c868050d4538e4831aab02b1fac58096514105a1feffffff82b912065947d7b51a26fbf4490b97da4f53c0238131563ed223a7914c75c2a7100000001716001423809642aca49ab1530e78be0f0099c4ad08189ffeffffff1f98f83d000000000017a91469f37683db5ce52587c6e0d7f53d6e6934d29f6d878e6304000000000017a914eefa57408c2f7e985c86d7e7eef99433642b949687e9b74e00000000001976a9140abd0c189470b8c76d8469810098e8a1e5a8cc2e88acc35c0e00000000001976a914e699f3f23c8a0275b061a5972fdfa7aec984e83688acb86a05000000000017a914905c29efe939122f4b0c0ecf25e97de09560dc8987611303000000000017a914a88f5dc1f703d914442eb5d12fcf721e2e90bf59876df605000000000017a9143dfefe1c9201dce6204472ad66cff6f736c6a1ba87dcef25000000000017a91489973616eca1629f5d48f41d9b4fbada0091d20287520a02000000000017a9148d259202d46da0d542411d00f5b946a2915f6c00878b5a0400000000001976a91444b1ef9c27cc5d3ddba6c8e0486442a90d5c113f88acfa5105000000000017a9148b56cafe3e55d9e51443bd24f73abef05beceecc878a5104000000000017a91454c8cb6484cc3ee380ac6761b81b262b6152e24f876ee700000000000017a914bd17c721a8dca1624dcad5f159c7b0dddab99e2287b54200000000000017a914f5259e61a6d5252cb4f15973217927ce39fcd6d887877003000000000017a914be70484a12f1926db36faa7320240ccd25d02c0a87b94d1d000000000017a914d041e32353f46430ad8590a4d9e96f79a92066fb87989644000000000017a914789df44164354ffddfd8df4642ded7b95b9d243287a6fd05000000000017a9143cf9248c79db0421c2ec871eceab48371f4c5eea87b4a68a00000000001976a91487e8bb7e7ce28c9739d2fa08f6fcfd2e793aaebb88ac48ff1200000000001976a9145c332fa595925c4669b5fb8974eafb6f779ad0b888ac256a0300000000001976a9149f5afdd793bc9288811b990743fda79f35ced56988acdf520e000000000017a914dbd1724e697d91a9ccaec186230d64c9c54a82ea8737850b000000000017a914ab5e390aedc61286b08e51385f61dbd16b530bbd87d3a03500000000001976a91469cd93fd9d1d13dedaec85946d1efb180744122b88ac78e40606000000001976a9144ceacfc224823323efaf8847d7ffbd1be6e95eb888acd8eaaf000000000017a9145cf40241bd32b9099bbf8717278275693570b7fe874bb206000000000017a914aacb74d18414bef82268a4988db0d6a53ce396d587117d0a000000000017a914ca5125e3997a06eab3c1c9e915009de901d8efbf8720300500000000001976a914026c556843485df55d7c870a29da30e49dbf325288ace33c06000000000017a9146e6251aa49a5bf143aefd2e9f5ddbc9693648d0887c7b900000000000017a914832d08af8a19bb5c8044048d8b5041e4f798583e8702483045022100fe37eb0859d59b18a5db3d7dd54467ad13f46ee33a66ed43a978b8816e4cd0b602203daa22a2f5334c8756fdc688eea3014cbfbff566c8a1bd456c4ef6e2621c252c012102fe743a53bbd4e5457cfef043ee61233f32eecd273f7918915ecf4114a82bf8d40247304402201707228e2a92c590799e805d5eace26fd2aa9b41d287449a26c82d2ed76dbc38022042d74eac829b5888561677597acf6cd304cfba59bb54af0ddbaf9a8a38bec5c2012103e5a54d4c1f053a88862b45f94aaf8febfd3e03659d857313a2e23c0c0b72cb0e10490800", "vin": [{"txinwitness": ["3045022100fe37eb0859d59b18a5db3d7dd54467ad13f46ee33a66ed43a978b8816e4cd0b602203daa22a2f5334c8756fdc688eea3014cbfbff566c8a1bd456c4ef6e2621c252c01", "02fe743a53bbd4e5457cfef043ee61233f32eecd273f7918915ecf4114a82bf8d4"], "sequence": 4294967294, "scriptSig": {"hex": "160014c868050d4538e4831aab02b1fac58096514105a1", "asm": "0014c868050d4538e4831aab02b1fac58096514105a1"}, "vout": 13, "txid": "7d6664a3bd36efc6312fc3fbb9067b48d25f1a2dd69d6d6a0d0903c62d7e3e58"}, {"txinwitness": ["304402201707228e2a92c590799e805d5eace26fd2aa9b41d287449a26c82d2ed76dbc38022042d74eac829b5888561677597acf6cd304cfba59bb54af0ddbaf9a8a38bec5c201", "03e5a54d4c1f053a88862b45f94aaf8febfd3e03659d857313a2e23c0c0b72cb0e"], "sequence": 4294967294, "scriptSig": {"hex": "16001423809642aca49ab1530e78be0f0099c4ad08189f", "asm": "001423809642aca49ab1530e78be0f0099c4ad08189f"}, "vout": 16, "txid": "a7c2754c91a723d23e56318123c0534fda970b49f4fb261ab5d747590612b982"}], "txid": "af52a0a29a677f21695158e5d700844df81e8159c46845cb21b5fa34b7aa3a19", "blocktime": 1537871767, "version": 2, "confirmations": 11490, "time": 1537871767, "locktime": 542992, "vsize": 1203, "size": 1365}