{"hash": "8e3968143e611824adfd74369f80aed987258666c092ca4b59f85b18dd44e841", "blockhash": "0000000000000000001e0dab787dd257d1dbfcb92a98c2207d5e1078be1f4165", "vout": [{"scriptPubKey": {"reqSigs": 1, "hex": "a9145f363a1fce75e083ec3be15fe23a6ecd95e7c71e87", "addresses": ["3ANT5Xdk2AQ9Xpmkaq5nshBo1QD7L8ibro"], "asm": "OP_HASH160 5f363a1fce75e083ec3be15fe23a6ecd95e7c71e OP_EQUAL", "type": "scripthash"}, "value": 0.04673501, "n": 0}, {"scriptPubKey": {"reqSigs": 1, "hex": "76a9147e1c9b6917aa656a3e4028e76f0ee65e056093ad88ac", "addresses": ["1CVpQpqqy3d3LhGmSDjE3Q3ixoEzmNnN4x"], "asm": "OP_DUP OP_HASH160 7e1c9b6917aa656a3e4028e76f0ee65e056093ad OP_EQUALVERIFY OP_CHECKSIG", "type": "pubkeyhash"}, "value": 0.001923, "n": 1}, {"scriptPubKey": {"reqSigs": 1, "hex": "a914aba304dca90cd2ef32ee4414b669664d0afd25c187", "addresses": ["3HLYm737Jtja4GKNYzntmiQnYS6rwTahCU"], "asm": "OP_HASH160 aba304dca90cd2ef32ee4414b669664d0afd25c1 OP_EQUAL", "type": "scripthash"}, "value": 2e-05, "n": 2}], "hex": "020000000001011864aca701865d070937a369cd7eef650aa8873521ad12fc4de786b28fe276e400000000171600140250e90a3bfba57fa618c7aa9f7f0192a49ae2d0feffffff03dd4f47000000000017a9145f363a1fce75e083ec3be15fe23a6ecd95e7c71e872cef0200000000001976a9147e1c9b6917aa656a3e4028e76f0ee65e056093ad88acd00700000000000017a914aba304dca90cd2ef32ee4414b669664d0afd25c1870248304502210094c99bc50ed6e98b3b5f7050f675758bbca74d6d2faf00dbcb9662eaeb06c7a7022044c0cfad861fc9e5a8207eca5eb205ee910db9216977b85b0e3bfcdee8cf8c3601210233ba55c8c8d29f88ff3eef2002f75dd045f6c85dad216eb1845c5fec5596846912490800", "vin": [{"txinwitness": ["304502210094c99bc50ed6e98b3b5f7050f675758bbca74d6d2faf00dbcb9662eaeb06c7a7022044c0cfad861fc9e5a8207eca5eb205ee910db9216977b85b0e3bfcdee8cf8c3601", "0233ba55c8c8d29f88ff3eef2002f75dd045f6c85dad216eb1845c5fec55968469"], "sequence": 4294967294, "scriptSig": {"hex": "1600140250e90a3bfba57fa618c7aa9f7f0192a49ae2d0", "asm": "00140250e90a3bfba57fa618c7aa9f7f0192a49ae2d0"}, "vout": 0, "txid": "e476e28fb286e74dfc12ad213587a80a65ef7ecd69a33709075d8601a7ac6418"}], "txid": "af53608ab72dc4db9aad208e571a908d6282679f8cce01bf3180900f3c4e9cf3", "blocktime": 1537872475, "version": 2, "confirmations": 11486, "time": 1537872475, "locktime": 542994, "vsize": 200, "size": 282}