{"hash": "60dd13c0b30c21c6c5a598988caa511175a1ad6d803aedb06ebcb16e7b77cca2", "blockhash": "0000000000000000000e13cef7c366c0283d82e591d1acd082e914b08063cdf1", "vout": [{"scriptPubKey": {"reqSigs": 1, "hex": "a914d07c5bf2f0a8a353cee30cd5e7bf0b29805b9b5287", "addresses": ["3LhPT56kKwcgbNMRB6xs4Hbcp5zpnx1Yb3"], "asm": "OP_HASH160 d07c5bf2f0a8a353cee30cd5e7bf0b29805b9b52 OP_EQUAL", "type": "scripthash"}, "value": 0.01016667, "n": 0}, {"scriptPubKey": {"reqSigs": 1, "hex": "a914bcde212b2009afe71180ff7f78be7ecfba697aaf87", "addresses": ["3Juf4SWLfrXKrsm6Sw2QZMnkudVmKJ5hGq"], "asm": "OP_HASH160 bcde212b2009afe71180ff7f78be7ecfba697aaf OP_EQUAL", "type": "scripthash"}, "value": 0.18739998, "n": 1}], "hex": "020000000001054a41a33c6d89ddc48a24489d088fa430cbd69ca4635fc4076c625a6d34e599790000000017160014dac987c4d3777a639ff2a38617b179fe2f41d2b4fdffffff6339eef00f5bdb037cba7a2689614e290c02ad09da3a0f637e2bc5da4a1abf80010000001716001481e7cbe3f1aa25694c180a3e5cc8772629fd5424fdffffffd411ec15e996e408db68b7dbe458027bdedaf1656639c2104b5044809be308710000000017160014851676aebbeceb62b25f6c8fb18548875ef16b22fdffffffe3f47746131b78bd245320429e1922ded8806b6b7ebc5753cc9de8cd998abbe101000000171600146bef4f3b1d03871b66602d6aff582fd34aa13123fdffffffe722207bab5eba0f2c214d0122dc0c3d1dc1e726359a5ce91c4ff2837a0533d50100000017160014ed99439d341d1275116195e8a26bdf84736a9f30fdffffff025b830f000000000017a914d07c5bf2f0a8a353cee30cd5e7bf0b29805b9b52871ef31d010000000017a914bcde212b2009afe71180ff7f78be7ecfba697aaf870247304402200d22246d313a740a514dda8d23e81389c878a854116c6e35d2c1f20852fd8a6902205cf4d96c1ba963b2c232c60d1e70390cac947fade0d3f80d5dfeefd73bc73c0a012103a1beaa7a15a3992c55fbc80506fc447038cbdffafe0ad32d173a8c5a9ea5a954024830450221009d679d4be0a7ed032efd770fca20b1ca2757781fd4817340672c6d8df27f12840220625f58a0ddbee119125a6f7f94695674e46c5437fe81f929c57d3bc71798254e01210305b9e68dfc47c3e51e4ce4e53516c68daa1f9ea78fdde4ad9cfb5028aefff3ef02473044022040fcb88bedeacddce6e735e51746f342ad092dc171b334e89eba922d63a7622e02207e909a1d1e13afc1bcac3da836b00f1f62e6b0dc6340636afb52cd0b6d39edae012102a153c13641eae037f48012991710f94db07b384e61342e2bfe6c224b6af1b0a1024830450221009af49cd713ad30c4cf57863a69347856e1b51953ca763ed4eab8c0efe1395ffd02207e04310668deea69cd528df1ae4ed1c4d096adfffdfee498c43fad7d700b31cc012102c26c10726c23301d55f8559dd429780ba39f3f5c29a66b7fd9c151a3f01c1dbf0247304402200fe0a3b63156a5bd90e04b3cd67b6bff7ffa830e46bbb7b80ece303515882cf30220601e88169b85a00893144102ba9418b59df1721813e8ddbc94dc25ef4fec1c65012103a898c0b80346f69aa9ce172c4873c43d25c78276b38065e431b7d378a844e0ed00000000", "vin": [{"txinwitness": ["304402200d22246d313a740a514dda8d23e81389c878a854116c6e35d2c1f20852fd8a6902205cf4d96c1ba963b2c232c60d1e70390cac947fade0d3f80d5dfeefd73bc73c0a01", "03a1beaa7a15a3992c55fbc80506fc447038cbdffafe0ad32d173a8c5a9ea5a954"], "sequence": 4294967293, "scriptSig": {"hex": "160014dac987c4d3777a639ff2a38617b179fe2f41d2b4", "asm": "0014dac987c4d3777a639ff2a38617b179fe2f41d2b4"}, "vout": 0, "txid": "7999e5346d5a626c07c45f63a49cd6cb30a48f089d48248ac4dd896d3ca3414a"}, {"txinwitness": ["30450221009d679d4be0a7ed032efd770fca20b1ca2757781fd4817340672c6d8df27f12840220625f58a0ddbee119125a6f7f94695674e46c5437fe81f929c57d3bc71798254e01", "0305b9e68dfc47c3e51e4ce4e53516c68daa1f9ea78fdde4ad9cfb5028aefff3ef"], "sequence": 4294967293, "scriptSig": {"hex": "16001481e7cbe3f1aa25694c180a3e5cc8772629fd5424", "asm": "001481e7cbe3f1aa25694c180a3e5cc8772629fd5424"}, "vout": 1, "txid": "80bf1a4adac52b7e630f3ada09ad020c294e6189267aba7c03db5b0ff0ee3963"}, {"txinwitness": ["3044022040fcb88bedeacddce6e735e51746f342ad092dc171b334e89eba922d63a7622e02207e909a1d1e13afc1bcac3da836b00f1f62e6b0dc6340636afb52cd0b6d39edae01", "02a153c13641eae037f48012991710f94db07b384e61342e2bfe6c224b6af1b0a1"], "sequence": 4294967293, "scriptSig": {"hex": "160014851676aebbeceb62b25f6c8fb18548875ef16b22", "asm": "0014851676aebbeceb62b25f6c8fb18548875ef16b22"}, "vout": 0, "txid": "7108e39b8044504b10c2396665f1dade7b0258e4dbb768db08e496e915ec11d4"}, {"txinwitness": ["30450221009af49cd713ad30c4cf57863a69347856e1b51953ca763ed4eab8c0efe1395ffd02207e04310668deea69cd528df1ae4ed1c4d096adfffdfee498c43fad7d700b31cc01", "02c26c10726c23301d55f8559dd429780ba39f3f5c29a66b7fd9c151a3f01c1dbf"], "sequence": 4294967293, "scriptSig": {"hex": "1600146bef4f3b1d03871b66602d6aff582fd34aa13123", "asm": "00146bef4f3b1d03871b66602d6aff582fd34aa13123"}, "vout": 1, "txid": "e1bb8a99cde89dcc5357bc7e6b6b80d8de22199e42205324bd781b134677f4e3"}, {"txinwitness": ["304402200fe0a3b63156a5bd90e04b3cd67b6bff7ffa830e46bbb7b80ece303515882cf30220601e88169b85a00893144102ba9418b59df1721813e8ddbc94dc25ef4fec1c6501", "03a898c0b80346f69aa9ce172c4873c43d25c78276b38065e431b7d378a844e0ed"], "sequence": 4294967293, "scriptSig": {"hex": "160014ed99439d341d1275116195e8a26bdf84736a9f30", "asm": "0014ed99439d341d1275116195e8a26bdf84736a9f30"}, "vout": 1, "txid": "d533057a83f24f1ce95c9a3526e7c11d3d0cdc22014d212c0fba5eab7b2022e7"}], "txid": "af5473b0c91f05f06a84d6741440211d0f3d48d435192716610f934cb4c8a2b0", "blocktime": 1537871767, "version": 2, "confirmations": 11495, "time": 1537871767, "locktime": 0, "vsize": 529, "size": 933}