{"hash": "af59671d9183c9561194c1b05bfd6b82516352cee50322d09e0c33136bdefdf5", "blockhash": "0000000000000000001cda96e906b7601b7a6fb1a3b62bca570a9e5d8f4b3de1", "vout": [{"scriptPubKey": {"reqSigs": 1, "hex": "76a91475350eed694b9b19a4a3252e3121d4924a26657988ac", "addresses": ["1Bgjd11bB3EU19BeyEUPFQtKPdJ3rxoDgs"], "asm": "OP_DUP OP_HASH160 75350eed694b9b19a4a3252e3121d4924a266579 OP_EQUALVERIFY OP_CHECKSIG", "type": "pubkeyhash"}, "value": 2.36022533, "n": 0}], "hex": "0100000001db1c6c51505ff79ffa59229e0fe8e6124bc7e3be9dd46c62a3f06a6d5124b97f0a0000006b483045022100e6f1048f96217d86c79bfccd830b643cdf5887f39c617ce18b6d65f2fd9b9d83022064e699281670186222a0e1917ae449f2f38364c69103ff312ab9b192eb35c7910121035f8db217f75cd2baaf2fc2707f9402cd72ac908fae9ebf1fb7cebae52bd8c3f4ffffffff01056b110e000000001976a91475350eed694b9b19a4a3252e3121d4924a26657988ac00000000", "vin": [{"sequence": 4294967295, "scriptSig": {"hex": "483045022100e6f1048f96217d86c79bfccd830b643cdf5887f39c617ce18b6d65f2fd9b9d83022064e699281670186222a0e1917ae449f2f38364c69103ff312ab9b192eb35c7910121035f8db217f75cd2baaf2fc2707f9402cd72ac908fae9ebf1fb7cebae52bd8c3f4", "asm": "3045022100e6f1048f96217d86c79bfccd830b643cdf5887f39c617ce18b6d65f2fd9b9d83022064e699281670186222a0e1917ae449f2f38364c69103ff312ab9b192eb35c791[ALL] 035f8db217f75cd2baaf2fc2707f9402cd72ac908fae9ebf1fb7cebae52bd8c3f4"}, "vout": 10, "txid": "7fb924516d6af0a3626cd49dbee3c74b12e6e80f9e2259fa9ff75f50516c1cdb"}], "txid": "af59671d9183c9561194c1b05bfd6b82516352cee50322d09e0c33136bdefdf5", "blocktime": 1537873282, "version": 1, "confirmations": 11480, "time": 1537873282, "locktime": 0, "vsize": 192, "size": 192}