{"hash": "af5f96df91a17ae18d61c106ec1bfb97a04e5c59474bceecc81df3520f6bab5c", "blockhash": "0000000000000000001cda96e906b7601b7a6fb1a3b62bca570a9e5d8f4b3de1", "vout": [{"scriptPubKey": {"reqSigs": 1, "hex": "76a91451d327a068ba7f3e46c90b1e806a2a7704f115a488ac", "addresses": ["18TegqAPCnPbumr6afiNXWUdt92Kou4Lp6"], "asm": "OP_DUP OP_HASH160 51d327a068ba7f3e46c90b1e806a2a7704f115a4 OP_EQUALVERIFY OP_CHECKSIG", "type": "pubkeyhash"}, "value": 0.01636905, "n": 0}, {"scriptPubKey": {"reqSigs": 1, "hex": "a9141041002f0a63796347d70b4e3cbf9c14dad1106987", "addresses": ["33AxbwbST1kKAmJyEbYxp8N5bta3xYjetM"], "asm": "OP_HASH160 1041002f0a63796347d70b4e3cbf9c14dad11069 OP_EQUAL", "type": "scripthash"}, "value": 0.15754861, "n": 1}], "hex": "010000000221261814cc9562899b62d1afc5df84729aa81ea648be89c594ce4c0327eb3937000000006a473044022077173f1c52635b1f75a81fd776bc23ae5bcab534631a7de893df1d980fa744d202206fdae58005e24210f77a1ebae8cb087ac6b39d0444ddca294ab445e3085642ca01210395f43c05ee67293432c60e5089568a46864ca9cf6102bba09e7d823d8ed77be9ffffffff864f40f61d272709d9539d4b7aee60eec2cd714f56d19ad627b98e8977edf2d04f0000006b483045022100b5eae94818c28c676124a78d246391b65adbe512dd6058838e2a4b16a91754d7022031484015c5c72bf5c4d53375062f18432ad24a9a60913c9ae6f59b7ef99b51770121031f47800d18f4035a8c1fc5876f471672e51f723eb3eb6042f32e40a99b07dc91ffffffff0229fa1800000000001976a91451d327a068ba7f3e46c90b1e806a2a7704f115a488ac6d66f0000000000017a9141041002f0a63796347d70b4e3cbf9c14dad110698700000000", "vin": [{"sequence": 4294967295, "scriptSig": {"hex": "473044022077173f1c52635b1f75a81fd776bc23ae5bcab534631a7de893df1d980fa744d202206fdae58005e24210f77a1ebae8cb087ac6b39d0444ddca294ab445e3085642ca01210395f43c05ee67293432c60e5089568a46864ca9cf6102bba09e7d823d8ed77be9", "asm": "3044022077173f1c52635b1f75a81fd776bc23ae5bcab534631a7de893df1d980fa744d202206fdae58005e24210f77a1ebae8cb087ac6b39d0444ddca294ab445e3085642ca[ALL] 0395f43c05ee67293432c60e5089568a46864ca9cf6102bba09e7d823d8ed77be9"}, "vout": 0, "txid": "3739eb27034cce94c589be48a61ea89a7284dfc5afd1629b896295cc14182621"}, {"sequence": 4294967295, "scriptSig": {"hex": "483045022100b5eae94818c28c676124a78d246391b65adbe512dd6058838e2a4b16a91754d7022031484015c5c72bf5c4d53375062f18432ad24a9a60913c9ae6f59b7ef99b51770121031f47800d18f4035a8c1fc5876f471672e51f723eb3eb6042f32e40a99b07dc91", "asm": "3045022100b5eae94818c28c676124a78d246391b65adbe512dd6058838e2a4b16a91754d7022031484015c5c72bf5c4d53375062f18432ad24a9a60913c9ae6f59b7ef99b5177[ALL] 031f47800d18f4035a8c1fc5876f471672e51f723eb3eb6042f32e40a99b07dc91"}, "vout": 79, "txid": "d0f2ed77898eb927d69ad1564f71cdc2ee60ee7a4b9d53d90927271df6404f86"}], "txid": "af5f96df91a17ae18d61c106ec1bfb97a04e5c59474bceecc81df3520f6bab5c", "blocktime": 1537873282, "version": 1, "confirmations": 11485, "time": 1537873282, "locktime": 0, "vsize": 371, "size": 371}