{"hash": "af6d13bb6b2336283898182f49d6e77928a66599830200559eb0425114adfc18", "blockhash": "00000000000000000018f53835495a110e01622372bf6ae95dc86f2b0ab887b0", "vout": [{"scriptPubKey": {"reqSigs": 1, "hex": "a914e75f51373d8e43d50c9239f9e5c17a6fa168607b87", "addresses": ["3NnQCcde6RgAU8MWKuxspEaS97w2T4vtZt"], "asm": "OP_HASH160 e75f51373d8e43d50c9239f9e5c17a6fa168607b OP_EQUAL", "type": "scripthash"}, "value": 5.46e-06, "n": 0}, {"scriptPubKey": {"reqSigs": 1, "hex": "76a914a520c86a08366941cd90d22e11ac1c7eefa2db3788ac", "addresses": ["1G47mSr3oANXMafVrR8UC4pzV7FEAzo3r9"], "asm": "OP_DUP OP_HASH160 a520c86a08366941cd90d22e11ac1c7eefa2db37 OP_EQUALVERIFY OP_CHECKSIG", "type": "pubkeyhash"}, "value": 1.07955111, "n": 1}, {"scriptPubKey": {"type": "nulldata", "hex": "6a146f6d6e69000000000000001f000000170cdc1e00", "asm": "OP_RETURN 6f6d6e69000000000000001f000000170cdc1e00"}, "value": 0.0, "n": 2}], "hex": "01000000011da91186f8eb5bc8420712560346a56a32c8a32d654725d9836e7718b020262c000000006a47304402207ef8fefd5051efc5b506613bb34c0b529f1feeddbec8c4247d0dcfd37045693902202a9b1fe53c7661746b758d6d3afd91470ae00fb9515e5f7a0dc87843845956f0012103f3f44c9e80e2cedc1a2909631a3adea8866ee32187f74d0912387359b0ff36a2ffffffff03220200000000000017a914e75f51373d8e43d50c9239f9e5c17a6fa168607b87a7436f06000000001976a914a520c86a08366941cd90d22e11ac1c7eefa2db3788ac0000000000000000166a146f6d6e69000000000000001f000000170cdc1e0000000000", "vin": [{"sequence": 4294967295, "scriptSig": {"hex": "47304402207ef8fefd5051efc5b506613bb34c0b529f1feeddbec8c4247d0dcfd37045693902202a9b1fe53c7661746b758d6d3afd91470ae00fb9515e5f7a0dc87843845956f0012103f3f44c9e80e2cedc1a2909631a3adea8866ee32187f74d0912387359b0ff36a2", "asm": "304402207ef8fefd5051efc5b506613bb34c0b529f1feeddbec8c4247d0dcfd37045693902202a9b1fe53c7661746b758d6d3afd91470ae00fb9515e5f7a0dc87843845956f0[ALL] 03f3f44c9e80e2cedc1a2909631a3adea8866ee32187f74d0912387359b0ff36a2"}, "vout": 0, "txid": "2c2620b018776e83d92547652da3c8326aa5460356120742c85bebf88611a91d"}], "txid": "af6d13bb6b2336283898182f49d6e77928a66599830200559eb0425114adfc18", "blocktime": 1537870928, "version": 1, "confirmations": 11512, "time": 1537870928, "locktime": 0, "vsize": 254, "size": 254}