{"hash": "af710a355e1c3eb8806fce176d123a2fde93d41b4688380e6fc2a0fd7c8be4c1", "blockhash": "000000000000000000022b45ed06c6f4ccd3cf7fb5ba4856ebd2e58215665228", "vout": [{"scriptPubKey": {"reqSigs": 1, "hex": "76a9143f9058b79ecf1c4110f1a38a5aed9336408c411088ac", "addresses": ["16o6VTeySGjdfATPrQqxdykf8Xgjd7YWap"], "asm": "OP_DUP OP_HASH160 3f9058b79ecf1c4110f1a38a5aed9336408c4110 OP_EQUALVERIFY OP_CHECKSIG", "type": "pubkeyhash"}, "value": 0.00126022, "n": 0}, {"scriptPubKey": {"reqSigs": 1, "hex": "76a914a4714f056484ff6ac89c5b97177e754f1ab2cf4e88ac", "addresses": ["1FzVZHXokiVEUdSPpPRa7B4sNMV699UwzR"], "asm": "OP_DUP OP_HASH160 a4714f056484ff6ac89c5b97177e754f1ab2cf4e OP_EQUALVERIFY OP_CHECKSIG", "type": "pubkeyhash"}, "value": 0.26255888, "n": 1}], "hex": "010000000cdb0522cba2a670f71ffb3b9e2053cd40e784026088cf11d2811336f621d99e05000000006a47304402200e7d4fb5e8f1bbe47b224e3a17182e1130b42ed1683024febb3b18b2ea13479e02203d73a6844361eb16391e0100d72230c4ba5b8084a409705d3556ad1b4e8c7530012102157fd0e2c71787b8307a8944b76912a8c184266b2cf57d2bda5ee7f1c86edcd3fdffffff6a48dc6e2f0e6e2a784a0a7cd63e98b0de316c619e62b0b39564267e65cab00f000000006b483045022100db3149554c98fea129ab044a92e5068351d59e4b1661e5534b355d094a00ddcc0220655a56576184d8255f479a59eefc1bebcf385c53a63da6b6b7d8ee42989e34ba012102942bdb970e207505af3832c3e39dbb2bd16a516db5015205c267ab7b3bea9653fdffffffc59fcdb562caf5d0d11ee7bce3c96232abd3eef7ed5dceffcc50b20227265727000000006b483045022100d2f568de17a0e128ffe1858c03a2f525b54e5d53caf2b9f7092c0b7b12550e9402204463c5b2a64d8ad7d3dedcf62d61d60be97f900046fa8d83a09938c755d2b7a10121039180229ed0ccc1a7bebb82b1adc2b36a0d0bf7c6103f6327579877910c129f51fdffffff62d9f64d5cac57a093b362ae504b5fcca7597b0cee123a92c5b9b81c5d2db629000000006a47304402202a4155d2c2ca6a1194682dd43d180e8026b62a3f87599c10ee59a11c8a5408bb022038fe4b8510dce987f9e967abed1547bec51998eab5d96b3c1a3d8e49832147be012103dc46c3193e3bbb0306a26a4c6138c34cc66d826122e25587a85962100dff3796fdffffff84bb6ce5aaca85bed19f7cba1e263bfcb5eff82777957c1ec5d0c345ac391732000000006a47304402202f0b03167a62a4affd1066278d3f3dc29fc07657d544789577eec56ab487ac49022016bbb0f98972fb174f101cd64c2c74113037318436fea20875e83d92de74e7a1012102c19b679d9b296de434f5cee82b1a6e5ac6c1af19abac43b1cdc34bc645b05cf2fdffffff5eb548e8473cd6cd1fe20465939db07d75e53d84613d832747f47c8700827636000000006b483045022100ab95882b60362e855dc4eab95d912eb135a964b7abff06f83755a3cdba1bbb3d0220373b9cefccea9c098619d6cf1bd5b8d4c47e4bcf565e6b84eb3c5efcb6481df201210298fd8fe5345bf81f3c4ab2276acd67f9da5e8b27f93eeb8d9f128e65178c78b0fdffffff90ecec6b88ed79d2b7fd16cb10ce66333a6fd60c3d95e950135d8011d1d77847000000006b4830450221008f64e34f7ed3796d272d6ed349d9fd5dfe4959acb1ee22dcc372a5d2b08c1bdf02202b67e743976d159ddad1eae5960f6b0c0e583501feb2f0be5d47d035c07ea7ce012103592c2871ff9f2d9f0b386f8d6ca21be6fa88b0ff1ab6b8ff828a412a485c3f30fdffffff4dbe2d769bac871983f045d0903447bfc06983ea867fafcd7a2f86c2c83aea5e000000006b4830450221008871bdea51ba1e1c0aa7da90708ae139923616347c9ce462236fedb1fbabfc7802202da9eeaacadc877421af294e29ebe5d127da61eb9c8244623a42c3a6549fa22e012102cfbf55f152f67b4ca78cc34e46259f3d5006a79dc41df19ae6f438cc590fa143fdffffffc768e9d4b4acbaeb55f894fd591019a70ac196bd0ada58ff21eb7d7273f9df72000000006b483045022100e44c130bcc26e5d873e167960b9c009243724861400176b50aa7aed884ff854e02200dd5e498dcccb1080ea8abf34bb6660d7af0a9cc49634ecc84c1215f1c8d8c480121036e5302521f73f92a1bb0c73891fe0ad825fb80be0b5d8ac27e13d9548c460807fdffffff78f1f934c75816bf981fe2101245874a43025378c8c755aa344870117d86468b000000006a473044022001aca2620a984816f7bcf07187b5cdc17eb1e9762a883bad2fb796a9fe3b31510220619498458767d7af24605dc7245484d74ff3c16a3e45b057a2f8d478a5fea099012103d68b7c69b123d8bfb325f36691b7b35d22a9be15edeec9f3707de8a8e2507debfdffffff03cb748004ca6e7472e9a323d5b9a9177be85c7dba09aeb6ad2abad74d477d96000000006a4730440220370062d7dc082de94b30cde2ecb091a6723a6e4236b27d77448d0ec531f1083c02200e270f08c51011b1abcae69fccb92bac47f9dfb9ce409c4474e31d3794038f57012102cfbf55f152f67b4ca78cc34e46259f3d5006a79dc41df19ae6f438cc590fa143fdfffffff71ab4e63905da88c920980372bc4d1aaf9a458b3db48e5c637f75213f01b7d6000000006b483045022100daebc5174693915a557ddffdd7f805bf0dbba194c4d70aa3500189e982cff85202203ffc346f0d60304202a68ca80d3bd66e729f68cc2fa0f481b31c606bbe6b58440121025234342ab578f3f270f4b407a987ea8e5b8674cb5bb55682d11f0babb94d8a17fdffffff0246ec0100000000001976a9143f9058b79ecf1c4110f1a38a5aed9336408c411088ac10a29001000000001976a914a4714f056484ff6ac89c5b97177e754f1ab2cf4e88ac0b490800", "vin": [{"sequence": 4294967293, "scriptSig": {"hex": "47304402200e7d4fb5e8f1bbe47b224e3a17182e1130b42ed1683024febb3b18b2ea13479e02203d73a6844361eb16391e0100d72230c4ba5b8084a409705d3556ad1b4e8c7530012102157fd0e2c71787b8307a8944b76912a8c184266b2cf57d2bda5ee7f1c86edcd3", "asm": "304402200e7d4fb5e8f1bbe47b224e3a17182e1130b42ed1683024febb3b18b2ea13479e02203d73a6844361eb16391e0100d72230c4ba5b8084a409705d3556ad1b4e8c7530[ALL] 02157fd0e2c71787b8307a8944b76912a8c184266b2cf57d2bda5ee7f1c86edcd3"}, "vout": 0, "txid": "059ed921f6361381d211cf88600284e740cd53209e3bfb1ff770a6a2cb2205db"}, {"sequence": 4294967293, "scriptSig": {"hex": "483045022100db3149554c98fea129ab044a92e5068351d59e4b1661e5534b355d094a00ddcc0220655a56576184d8255f479a59eefc1bebcf385c53a63da6b6b7d8ee42989e34ba012102942bdb970e207505af3832c3e39dbb2bd16a516db5015205c267ab7b3bea9653", "asm": "3045022100db3149554c98fea129ab044a92e5068351d59e4b1661e5534b355d094a00ddcc0220655a56576184d8255f479a59eefc1bebcf385c53a63da6b6b7d8ee42989e34ba[ALL] 02942bdb970e207505af3832c3e39dbb2bd16a516db5015205c267ab7b3bea9653"}, "vout": 0, "txid": "0fb0ca657e266495b3b0629e616c31deb0983ed67c0a4a782a6e0e2f6edc486a"}, {"sequence": 4294967293, "scriptSig": {"hex": "483045022100d2f568de17a0e128ffe1858c03a2f525b54e5d53caf2b9f7092c0b7b12550e9402204463c5b2a64d8ad7d3dedcf62d61d60be97f900046fa8d83a09938c755d2b7a10121039180229ed0ccc1a7bebb82b1adc2b36a0d0bf7c6103f6327579877910c129f51", "asm": "3045022100d2f568de17a0e128ffe1858c03a2f525b54e5d53caf2b9f7092c0b7b12550e9402204463c5b2a64d8ad7d3dedcf62d61d60be97f900046fa8d83a09938c755d2b7a1[ALL] 039180229ed0ccc1a7bebb82b1adc2b36a0d0bf7c6103f6327579877910c129f51"}, "vout": 0, "txid": "2757262702b250ccffce5dedf7eed3ab3262c9e3bce71ed1d0f5ca62b5cd9fc5"}, {"sequence": 4294967293, "scriptSig": {"hex": "47304402202a4155d2c2ca6a1194682dd43d180e8026b62a3f87599c10ee59a11c8a5408bb022038fe4b8510dce987f9e967abed1547bec51998eab5d96b3c1a3d8e49832147be012103dc46c3193e3bbb0306a26a4c6138c34cc66d826122e25587a85962100dff3796", "asm": "304402202a4155d2c2ca6a1194682dd43d180e8026b62a3f87599c10ee59a11c8a5408bb022038fe4b8510dce987f9e967abed1547bec51998eab5d96b3c1a3d8e49832147be[ALL] 03dc46c3193e3bbb0306a26a4c6138c34cc66d826122e25587a85962100dff3796"}, "vout": 0, "txid": "29b62d5d1cb8b9c5923a12ee0c7b59a7cc5f4b50ae62b393a057ac5c4df6d962"}, {"sequence": 4294967293, "scriptSig": {"hex": "47304402202f0b03167a62a4affd1066278d3f3dc29fc07657d544789577eec56ab487ac49022016bbb0f98972fb174f101cd64c2c74113037318436fea20875e83d92de74e7a1012102c19b679d9b296de434f5cee82b1a6e5ac6c1af19abac43b1cdc34bc645b05cf2", "asm": "304402202f0b03167a62a4affd1066278d3f3dc29fc07657d544789577eec56ab487ac49022016bbb0f98972fb174f101cd64c2c74113037318436fea20875e83d92de74e7a1[ALL] 02c19b679d9b296de434f5cee82b1a6e5ac6c1af19abac43b1cdc34bc645b05cf2"}, "vout": 0, "txid": "321739ac45c3d0c51e7c957727f8efb5fc3b261eba7c9fd1be85caaae56cbb84"}, {"sequence": 4294967293, "scriptSig": {"hex": "483045022100ab95882b60362e855dc4eab95d912eb135a964b7abff06f83755a3cdba1bbb3d0220373b9cefccea9c098619d6cf1bd5b8d4c47e4bcf565e6b84eb3c5efcb6481df201210298fd8fe5345bf81f3c4ab2276acd67f9da5e8b27f93eeb8d9f128e65178c78b0", "asm": "3045022100ab95882b60362e855dc4eab95d912eb135a964b7abff06f83755a3cdba1bbb3d0220373b9cefccea9c098619d6cf1bd5b8d4c47e4bcf565e6b84eb3c5efcb6481df2[ALL] 0298fd8fe5345bf81f3c4ab2276acd67f9da5e8b27f93eeb8d9f128e65178c78b0"}, "vout": 0, "txid": "36768200877cf44727833d61843de5757db09d936504e21fcdd63c47e848b55e"}, {"sequence": 4294967293, "scriptSig": {"hex": "4830450221008f64e34f7ed3796d272d6ed349d9fd5dfe4959acb1ee22dcc372a5d2b08c1bdf02202b67e743976d159ddad1eae5960f6b0c0e583501feb2f0be5d47d035c07ea7ce012103592c2871ff9f2d9f0b386f8d6ca21be6fa88b0ff1ab6b8ff828a412a485c3f30", "asm": "30450221008f64e34f7ed3796d272d6ed349d9fd5dfe4959acb1ee22dcc372a5d2b08c1bdf02202b67e743976d159ddad1eae5960f6b0c0e583501feb2f0be5d47d035c07ea7ce[ALL] 03592c2871ff9f2d9f0b386f8d6ca21be6fa88b0ff1ab6b8ff828a412a485c3f30"}, "vout": 0, "txid": "4778d7d111805d1350e9953d0cd66f3a3366ce10cb16fdb7d279ed886becec90"}, {"sequence": 4294967293, "scriptSig": {"hex": "4830450221008871bdea51ba1e1c0aa7da90708ae139923616347c9ce462236fedb1fbabfc7802202da9eeaacadc877421af294e29ebe5d127da61eb9c8244623a42c3a6549fa22e012102cfbf55f152f67b4ca78cc34e46259f3d5006a79dc41df19ae6f438cc590fa143", "asm": "30450221008871bdea51ba1e1c0aa7da90708ae139923616347c9ce462236fedb1fbabfc7802202da9eeaacadc877421af294e29ebe5d127da61eb9c8244623a42c3a6549fa22e[ALL] 02cfbf55f152f67b4ca78cc34e46259f3d5006a79dc41df19ae6f438cc590fa143"}, "vout": 0, "txid": "5eea3ac8c2862f7acdaf7f86ea8369c0bf473490d045f0831987ac9b762dbe4d"}, {"sequence": 4294967293, "scriptSig": {"hex": "483045022100e44c130bcc26e5d873e167960b9c009243724861400176b50aa7aed884ff854e02200dd5e498dcccb1080ea8abf34bb6660d7af0a9cc49634ecc84c1215f1c8d8c480121036e5302521f73f92a1bb0c73891fe0ad825fb80be0b5d8ac27e13d9548c460807", "asm": "3045022100e44c130bcc26e5d873e167960b9c009243724861400176b50aa7aed884ff854e02200dd5e498dcccb1080ea8abf34bb6660d7af0a9cc49634ecc84c1215f1c8d8c48[ALL] 036e5302521f73f92a1bb0c73891fe0ad825fb80be0b5d8ac27e13d9548c460807"}, "vout": 0, "txid": "72dff973727deb21ff58da0abd96c10aa7191059fd94f855ebbaacb4d4e968c7"}, {"sequence": 4294967293, "scriptSig": {"hex": "473044022001aca2620a984816f7bcf07187b5cdc17eb1e9762a883bad2fb796a9fe3b31510220619498458767d7af24605dc7245484d74ff3c16a3e45b057a2f8d478a5fea099012103d68b7c69b123d8bfb325f36691b7b35d22a9be15edeec9f3707de8a8e2507deb", "asm": "3044022001aca2620a984816f7bcf07187b5cdc17eb1e9762a883bad2fb796a9fe3b31510220619498458767d7af24605dc7245484d74ff3c16a3e45b057a2f8d478a5fea099[ALL] 03d68b7c69b123d8bfb325f36691b7b35d22a9be15edeec9f3707de8a8e2507deb"}, "vout": 0, "txid": "8b46867d11704834aa55c7c8785302434a87451210e21f98bf1658c734f9f178"}, {"sequence": 4294967293, "scriptSig": {"hex": "4730440220370062d7dc082de94b30cde2ecb091a6723a6e4236b27d77448d0ec531f1083c02200e270f08c51011b1abcae69fccb92bac47f9dfb9ce409c4474e31d3794038f57012102cfbf55f152f67b4ca78cc34e46259f3d5006a79dc41df19ae6f438cc590fa143", "asm": "30440220370062d7dc082de94b30cde2ecb091a6723a6e4236b27d77448d0ec531f1083c02200e270f08c51011b1abcae69fccb92bac47f9dfb9ce409c4474e31d3794038f57[ALL] 02cfbf55f152f67b4ca78cc34e46259f3d5006a79dc41df19ae6f438cc590fa143"}, "vout": 0, "txid": "967d474dd7ba2aadb6ae09ba7d5ce87b17a9b9d523a3e972746eca048074cb03"}, {"sequence": 4294967293, "scriptSig": {"hex": "483045022100daebc5174693915a557ddffdd7f805bf0dbba194c4d70aa3500189e982cff85202203ffc346f0d60304202a68ca80d3bd66e729f68cc2fa0f481b31c606bbe6b58440121025234342ab578f3f270f4b407a987ea8e5b8674cb5bb55682d11f0babb94d8a17", "asm": "3045022100daebc5174693915a557ddffdd7f805bf0dbba194c4d70aa3500189e982cff85202203ffc346f0d60304202a68ca80d3bd66e729f68cc2fa0f481b31c606bbe6b5844[ALL] 025234342ab578f3f270f4b407a987ea8e5b8674cb5bb55682d11f0babb94d8a17"}, "vout": 0, "txid": "d6b7013f21757f635c8eb43d8b459aaf1a4dbc72039820c988da0539e6b41af7"}], "txid": "af710a355e1c3eb8806fce176d123a2fde93d41b4688380e6fc2a0fd7c8be4c1", "blocktime": 1537869901, "version": 1, "confirmations": 11522, "time": 1537869901, "locktime": 542987, "vsize": 1849, "size": 1849}