{"hash": "af73f4130e689a9db8271f902b7462f25844b87661a66dc11976d5d17ada109c", "blockhash": "0000000000000000000baef3f32e3676a92c3b2e5da21b426e4f302fc371ce76", "vout": [{"scriptPubKey": {"reqSigs": 1, "hex": "76a914f9e70a5995653df8de2ed0bca09150b5cd90c58b88ac", "addresses": ["1PnN2jhi7RtN9VsuqMpsM8jFug6AyazJMY"], "asm": "OP_DUP OP_HASH160 f9e70a5995653df8de2ed0bca09150b5cd90c58b OP_EQUALVERIFY OP_CHECKSIG", "type": "pubkeyhash"}, "value": 0.00420916, "n": 0}, {"scriptPubKey": {"reqSigs": 1, "hex": "76a914398fc9b5bf7b655bb330bbd2c826883f84e77c3988ac", "addresses": ["16FMmVhajtNF9apRZzWiNU5BUFYhkwU3Gd"], "asm": "OP_DUP OP_HASH160 398fc9b5bf7b655bb330bbd2c826883f84e77c39 OP_EQUALVERIFY OP_CHECKSIG", "type": "pubkeyhash"}, "value": 0.08802069, "n": 1}], "hex": "0100000001377261c8ce6fa02e1cf73d40e4ddfcdd89a789a6b372c2d1195308621c6fd39d010000006b483045022100934085d7993e40498ab81744e9106973b4bda0745ffbba3a293dbf42bc96cb0f0220537caa91d1a47694ffb03e1ba3d70490bee710ca3fdc324868486fe35d8f9e9c012102c838a145270d4ca88baad5717b27b70022312136cb10bd50e89e7c99011f2fdaffffffff02346c0600000000001976a914f9e70a5995653df8de2ed0bca09150b5cd90c58b88ac154f8600000000001976a914398fc9b5bf7b655bb330bbd2c826883f84e77c3988ac00000000", "vin": [{"sequence": 4294967295, "scriptSig": {"hex": "483045022100934085d7993e40498ab81744e9106973b4bda0745ffbba3a293dbf42bc96cb0f0220537caa91d1a47694ffb03e1ba3d70490bee710ca3fdc324868486fe35d8f9e9c012102c838a145270d4ca88baad5717b27b70022312136cb10bd50e89e7c99011f2fda", "asm": "3045022100934085d7993e40498ab81744e9106973b4bda0745ffbba3a293dbf42bc96cb0f0220537caa91d1a47694ffb03e1ba3d70490bee710ca3fdc324868486fe35d8f9e9c[ALL] 02c838a145270d4ca88baad5717b27b70022312136cb10bd50e89e7c99011f2fda"}, "vout": 1, "txid": "9dd36f1c62085319d1c272b3a689a789ddfcdde4403df71c2ea06fcec8617237"}], "txid": "af73f4130e689a9db8271f902b7462f25844b87661a66dc11976d5d17ada109c", "blocktime": 1537876114, "version": 1, "confirmations": 11460, "time": 1537876114, "locktime": 0, "vsize": 226, "size": 226}