{"hash": "586ae5dc60063682d6e87f6c556f5c159ec86dc14de2f18549c6875aa5f27249", "blockhash": "000000000000000000022b45ed06c6f4ccd3cf7fb5ba4856ebd2e58215665228", "vout": [{"scriptPubKey": {"reqSigs": 1, "hex": "76a9145395b659d3df70e3bf4453c94504f30410f49b8b88ac", "addresses": ["18cxS7hQMBhF252uf2dzJrsMvd5fDeavUF"], "asm": "OP_DUP OP_HASH160 5395b659d3df70e3bf4453c94504f30410f49b8b OP_EQUALVERIFY OP_CHECKSIG", "type": "pubkeyhash"}, "value": 0.0044527, "n": 0}, {"scriptPubKey": {"reqSigs": 1, "hex": "a91428d1e67d4d61444ff86b5bb4cc17bef96ae8718087", "addresses": ["35QrQMC3j1pYRKzPQK3t89JWQjcazt95yV"], "asm": "OP_HASH160 28d1e67d4d61444ff86b5bb4cc17bef96ae87180 OP_EQUAL", "type": "scripthash"}, "value": 0.00999784, "n": 1}], "hex": "0200000000010205d50dade895751af7604f6f8d7c4afa481007b28bbb9df35301ff5fd39bbf2f0100000017160014da53b7d1b1231d6093e9ce2fc188de09ac17d79efefffffffcf6d58940f5de3699b19f0e5f564ab2b6c31af931d5aadda618f3c4d6a6ee331300000017160014bbe8f6300750f7839814f2fbf90f1b9d9a83ecebfeffffff0256cb0600000000001976a9145395b659d3df70e3bf4453c94504f30410f49b8b88ac68410f000000000017a91428d1e67d4d61444ff86b5bb4cc17bef96ae871808702483045022100937e2cda3af4a1ae85b7a07e70ca9b133a0e7ced7ec02ee4b58231258dffe68f022078d4396536477d8ff4824676b35fe96ba13983b85eeb284852ade7611925c9be012103e83cd62efeb7fab63f4df4c6c649d9e08c454bc34ce9148d41916c8ddb795b5c02483045022100c54f9d6923b620e202ebc768cd6ccd1f361036e48cd1e6b430574926a04d32bc02200e886b7e8f05b2b7bd3c041e10c2e575ef08d01fd43947998a16b131df0610d301210323c89ae0e76ff5290a46023b88f4a248df8060f0494bba509a09ba15741662f7ac480800", "vin": [{"txinwitness": ["3045022100937e2cda3af4a1ae85b7a07e70ca9b133a0e7ced7ec02ee4b58231258dffe68f022078d4396536477d8ff4824676b35fe96ba13983b85eeb284852ade7611925c9be01", "03e83cd62efeb7fab63f4df4c6c649d9e08c454bc34ce9148d41916c8ddb795b5c"], "sequence": 4294967294, "scriptSig": {"hex": "160014da53b7d1b1231d6093e9ce2fc188de09ac17d79e", "asm": "0014da53b7d1b1231d6093e9ce2fc188de09ac17d79e"}, "vout": 1, "txid": "2fbf9bd35fff0153f39dbb8bb2071048fa4a7c8d6f4f60f71a7595e8ad0dd505"}, {"txinwitness": ["3045022100c54f9d6923b620e202ebc768cd6ccd1f361036e48cd1e6b430574926a04d32bc02200e886b7e8f05b2b7bd3c041e10c2e575ef08d01fd43947998a16b131df0610d301", "0323c89ae0e76ff5290a46023b88f4a248df8060f0494bba509a09ba15741662f7"], "sequence": 4294967294, "scriptSig": {"hex": "160014bbe8f6300750f7839814f2fbf90f1b9d9a83eceb", "asm": "0014bbe8f6300750f7839814f2fbf90f1b9d9a83eceb"}, "vout": 19, "txid": "33eea6d6c4f318a6ddaad531f91ac3b6b24a565f0e9fb19936def54089d5f6fc"}], "txid": "af7326e4c7fc65fbc55985d6e48d61dde06c162099bf0be5bd0db1b1bf50ed0b", "blocktime": 1537869901, "version": 2, "confirmations": 11522, "time": 1537869901, "locktime": 542892, "vsize": 259, "size": 422}