{"hash": "af7a36eb7ed307fecf8b86dee2924207331d098754a79a8a9687e8387ba4abb1", "blockhash": "000000000000000000022b45ed06c6f4ccd3cf7fb5ba4856ebd2e58215665228", "vout": [{"scriptPubKey": {"reqSigs": 1, "hex": "76a9143f83e21eb0e6480de5fd764908b4191bdb2eb0ab88ac", "addresses": ["16nqZVnbVdy4eaLUMB8F9SCj1LjY4eS6Kt"], "asm": "OP_DUP OP_HASH160 3f83e21eb0e6480de5fd764908b4191bdb2eb0ab OP_EQUALVERIFY OP_CHECKSIG", "type": "pubkeyhash"}, "value": 0.00623567, "n": 0}], "hex": "01000000010cd4098b9a30bd26532ecd5867a41a979a328b1d064c5cc3ea9b5548626203de010000006a47304402203b8b768214a8395ad115b9f388693d2e8f11768cf87b321eaf83bc596956e0f9022074c89ac534619463d012358af4e5dd1337283165d311f95a762a80c04acbc188012103ee5bc70bbd99dc0aca9fa6a2d41d2168885ecc277f1f0da0ae6e3ec4511c259effffffff01cf830900000000001976a9143f83e21eb0e6480de5fd764908b4191bdb2eb0ab88ac00000000", "vin": [{"sequence": 4294967295, "scriptSig": {"hex": "47304402203b8b768214a8395ad115b9f388693d2e8f11768cf87b321eaf83bc596956e0f9022074c89ac534619463d012358af4e5dd1337283165d311f95a762a80c04acbc188012103ee5bc70bbd99dc0aca9fa6a2d41d2168885ecc277f1f0da0ae6e3ec4511c259e", "asm": "304402203b8b768214a8395ad115b9f388693d2e8f11768cf87b321eaf83bc596956e0f9022074c89ac534619463d012358af4e5dd1337283165d311f95a762a80c04acbc188[ALL] 03ee5bc70bbd99dc0aca9fa6a2d41d2168885ecc277f1f0da0ae6e3ec4511c259e"}, "vout": 1, "txid": "de03626248559beac35c4c061d8b329a971aa46758cd2e5326bd309a8b09d40c"}], "txid": "af7a36eb7ed307fecf8b86dee2924207331d098754a79a8a9687e8387ba4abb1", "blocktime": 1537869901, "version": 1, "confirmations": 11523, "time": 1537869901, "locktime": 0, "vsize": 191, "size": 191}