{"hash": "af7ee35df1c5d85e0e4f3ca252aa4e90f10deada5065dd222637f7939be05ac6", "blockhash": "0000000000000000001f76057863aec43deb6fa401d9628bb513d65a8098bfab", "vout": [{"scriptPubKey": {"reqSigs": 1, "hex": "76a914bdab9474e1063b14cb898a9878adc4fd973860a088ac", "addresses": ["1JHtFqYd7eGZZn6bxki7wFAJpZ1vUkxmXK"], "asm": "OP_DUP OP_HASH160 bdab9474e1063b14cb898a9878adc4fd973860a0 OP_EQUALVERIFY OP_CHECKSIG", "type": "pubkeyhash"}, "value": 0.00088643, "n": 0}, {"scriptPubKey": {"reqSigs": 1, "hex": "76a91497a5147dab7d29f9e79d4833fc0b403ad41dd6cb88ac", "addresses": ["1EppnvsbUwYSVNYukNgwwz98oEgYm6iFF7"], "asm": "OP_DUP OP_HASH160 97a5147dab7d29f9e79d4833fc0b403ad41dd6cb OP_EQUALVERIFY OP_CHECKSIG", "type": "pubkeyhash"}, "value": 0.02810383, "n": 1}], "hex": "010000000e8e0144224b5933d4dd0d2bb47b5fc6b4c47fe4517ca911c7ffbb928637c46705000000006b483045022100c864bfce6a4f1970ba68341a97157811fe8b3e6db421e1eeff2b761367e2490b02204d65f893e80ae962d22187659cdbba1e31508fc1fea6f80025fdc271e58f1fba012103f1f5594ff9229be01206e2901675f4d458d753c2ca282e57a288384ea4e7dbcfffffffff7ebfe2c47e195481230235e30110d41570511ce1208c34f0d81878357618140e000000006a47304402202bfb6fa2b62c8bb6b7163c561ac4d6efc9ff6f24fa925d43d8f78f71873a27030220510432528dad58d7116b9a2f51aa54224fd7492361a6f02a69b71f04d2cf02b1012102e82932a85c0d4bd084c161f47261cd925de267052630f12758854b9ca071952bffffffff17133de9b71815a75b0ba9749ca03f6dd0fdc64970bf0b1fbcbf71563f95ee21000000006a47304402200b105fb30d5a872b9f4ef397949d212a23c6ba878eb9728827881104c18eba4d02200c55cbc6dfc66a007241b9a30c12dbb11db2372e1ba394864f61ecbfe1e7bd80012102e82932a85c0d4bd084c161f47261cd925de267052630f12758854b9ca071952bffffffff304d15a0dac6fa22a72325b9a1fa24f17c7ef1ea29dee5e9c8910d2dcb0de437000000006a47304402206bf1e3bf0c928ea9a7a2d3d4f015cf2a626a0123bec5271b46a80906363a403f022056b181ace5a1e9327dc23eceb48330530a101a811882ec13634e18e67bbfb8ae0121037869660c9a126c87a2e2cb57c453039fb71245df29345c4be299f2e135a4c9f9ffffffffbbc28bc5385edf0cf9e3803cc2ed167a9c06293ba4782b7d41c06465ec988338000000006a47304402206f11a7f58f3f8e9d41169d2df6e72f82ce84a82c6fd318d7a0dfe6e1f5405bac022073042aee908c013bcba2aeb84764121f8f8fc9d332d992f9e39ae77520d689e0012102e82932a85c0d4bd084c161f47261cd925de267052630f12758854b9ca071952bffffffffa0df4ac551726fecac35befd832c796844f407edc7bacc43d6f2cb0bd240087a000000006b483045022100a935adb4c464454c15945b71059ba3c1274273e8206ebdb2261bc4a6d8a65c55022023cd680f7e56f85b9579034c4da54db9aecaf529f31fc023c6cf37bd89c63160012102e82932a85c0d4bd084c161f47261cd925de267052630f12758854b9ca071952bffffffff36c8b49ca9f5e1449184f58c9e1e266fdad1a579a351f7c75a3633745679d37d000000006b483045022100e322e94e23d575258821613b848973b8a68a2d0bb725fda02872e7d7d0613ca8022066ac2427bb36dbba3e03fdbc213584e89864a47298540f7856bfdda4436af4b001210382d0f66992c569a5bdbb73b61b3919a1b8ec474001691d4a025d6d137a058587ffffffff76e1a36a133a9f00274685d762bb76e2036333b568d721a8432bca796e40e67d000000006b483045022100f5c22a1a22946a728d547f55d743084dc559c6d92bb135d779f0f8374259498f022004eb34e51287aa8ff17ab63e314538f1dd4e753ced4d454d80a01439fb321710012103549e44dedd33f4a1af1e2b7ef4b9ec3b39e74b7145f8691681b4ccb884b452bbffffffffbbd0f951a27a41fa689fa58b70972208ea8d1c8f569e85ea452ac84f3e7cc182000000006a473044022036f5127b0664cb2e7e38f347e703a5dfb36a975e43be05b3b7493fc3ff23b83f02203964a814eee791ceb83dba267c21875b2105af78064f1b3ed235609172618786012103f1f5594ff9229be01206e2901675f4d458d753c2ca282e57a288384ea4e7dbcfffffffff4ca08cb54b302ccb1b937a94fc215c6b3683664243a5db2182a6c9236a7cfba1000000006a473044022036bf91aeccee7d8e99b58fc02764773219d6271bc36e7af1c5623726b9700dc10220724d7b26317ed94a76b1c96b200a7aec68da387e6480ac1f5f20614b42b9d2f2012102e82932a85c0d4bd084c161f47261cd925de267052630f12758854b9ca071952bffffffff1a7b473660625570eca6fe632e6b0081b258f2618c48d2f76cce11774adda5a8000000006a473044022000bcfa30888644cadb5f0883705ce8af475a7e2373fb258974201d7576c5e16102200c3302a58f94038260ccf06be493e9dee2807dd742693cdb6cb2ec2046ac6273012102e82932a85c0d4bd084c161f47261cd925de267052630f12758854b9ca071952bffffffffb5486853a430d82eeaf414521c45774d10f44748dca485b26bfd51a4d0eee4ae000000006a47304402202d226aa244246fd40ddd97b813602f02465f6d73330b45f35e7fe48465e081f102207ff8cbef1a6ec84f731c061cffcfd32af6f60b0345f76e32626d939d63985ffd012103f1f5594ff9229be01206e2901675f4d458d753c2ca282e57a288384ea4e7dbcfffffffffe50224216e865f44300cd68c0fa6632d85b4f9c438b580845d7b91d4a8a0feb0000000006b483045022100d016929cd205d016ba1880593ddd318991d7f0d39279e85bfa1231203a06f7c5022076ab8effd090650ea9019ac64a364f8bb2c1c9540634d4f91518b5ba9e8e09b3012102e82932a85c0d4bd084c161f47261cd925de267052630f12758854b9ca071952bffffffff94784539516107c49b784401426ccbe481685781031b23f69c48b425c0af09b5000000006b483045022100b3d9298465f5ad9b14c9a0ed93e17fd17c3933fcc84e5ff35e33d756b21aaeed022017ea94b454c67befff272e3c0d080ede0672096eeda43719704c2d58b8b10a9e0121037e6cb7693e7804b59d0aba7914333a71cd3bfb45b134b0e321dc93fae086b4feffffffff02435a0100000000001976a914bdab9474e1063b14cb898a9878adc4fd973860a088ac0fe22a00000000001976a91497a5147dab7d29f9e79d4833fc0b403ad41dd6cb88ac00000000", "vin": [{"sequence": 4294967295, "scriptSig": {"hex": "483045022100c864bfce6a4f1970ba68341a97157811fe8b3e6db421e1eeff2b761367e2490b02204d65f893e80ae962d22187659cdbba1e31508fc1fea6f80025fdc271e58f1fba012103f1f5594ff9229be01206e2901675f4d458d753c2ca282e57a288384ea4e7dbcf", "asm": "3045022100c864bfce6a4f1970ba68341a97157811fe8b3e6db421e1eeff2b761367e2490b02204d65f893e80ae962d22187659cdbba1e31508fc1fea6f80025fdc271e58f1fba[ALL] 03f1f5594ff9229be01206e2901675f4d458d753c2ca282e57a288384ea4e7dbcf"}, "vout": 0, "txid": "0567c4378692bbffc711a97c51e47fc4b4c65f7bb42b0dddd433594b2244018e"}, {"sequence": 4294967295, "scriptSig": {"hex": "47304402202bfb6fa2b62c8bb6b7163c561ac4d6efc9ff6f24fa925d43d8f78f71873a27030220510432528dad58d7116b9a2f51aa54224fd7492361a6f02a69b71f04d2cf02b1012102e82932a85c0d4bd084c161f47261cd925de267052630f12758854b9ca071952b", "asm": "304402202bfb6fa2b62c8bb6b7163c561ac4d6efc9ff6f24fa925d43d8f78f71873a27030220510432528dad58d7116b9a2f51aa54224fd7492361a6f02a69b71f04d2cf02b1[ALL] 02e82932a85c0d4bd084c161f47261cd925de267052630f12758854b9ca071952b"}, "vout": 0, "txid": "0e141876357818d8f0348c20e11c517015d41001e33502238154197ec4e2bf7e"}, {"sequence": 4294967295, "scriptSig": {"hex": "47304402200b105fb30d5a872b9f4ef397949d212a23c6ba878eb9728827881104c18eba4d02200c55cbc6dfc66a007241b9a30c12dbb11db2372e1ba394864f61ecbfe1e7bd80012102e82932a85c0d4bd084c161f47261cd925de267052630f12758854b9ca071952b", "asm": "304402200b105fb30d5a872b9f4ef397949d212a23c6ba878eb9728827881104c18eba4d02200c55cbc6dfc66a007241b9a30c12dbb11db2372e1ba394864f61ecbfe1e7bd80[ALL] 02e82932a85c0d4bd084c161f47261cd925de267052630f12758854b9ca071952b"}, "vout": 0, "txid": "21ee953f5671bfbc1f0bbf7049c6fdd06d3fa09c74a90b5ba71518b7e93d1317"}, {"sequence": 4294967295, "scriptSig": {"hex": "47304402206bf1e3bf0c928ea9a7a2d3d4f015cf2a626a0123bec5271b46a80906363a403f022056b181ace5a1e9327dc23eceb48330530a101a811882ec13634e18e67bbfb8ae0121037869660c9a126c87a2e2cb57c453039fb71245df29345c4be299f2e135a4c9f9", "asm": "304402206bf1e3bf0c928ea9a7a2d3d4f015cf2a626a0123bec5271b46a80906363a403f022056b181ace5a1e9327dc23eceb48330530a101a811882ec13634e18e67bbfb8ae[ALL] 037869660c9a126c87a2e2cb57c453039fb71245df29345c4be299f2e135a4c9f9"}, "vout": 0, "txid": "37e40dcb2d0d91c8e9e5de29eaf17e7cf124faa1b92523a722fac6daa0154d30"}, {"sequence": 4294967295, "scriptSig": {"hex": "47304402206f11a7f58f3f8e9d41169d2df6e72f82ce84a82c6fd318d7a0dfe6e1f5405bac022073042aee908c013bcba2aeb84764121f8f8fc9d332d992f9e39ae77520d689e0012102e82932a85c0d4bd084c161f47261cd925de267052630f12758854b9ca071952b", "asm": "304402206f11a7f58f3f8e9d41169d2df6e72f82ce84a82c6fd318d7a0dfe6e1f5405bac022073042aee908c013bcba2aeb84764121f8f8fc9d332d992f9e39ae77520d689e0[ALL] 02e82932a85c0d4bd084c161f47261cd925de267052630f12758854b9ca071952b"}, "vout": 0, "txid": "388398ec6564c0417d2b78a43b29069c7a16edc23c80e3f90cdf5e38c58bc2bb"}, {"sequence": 4294967295, "scriptSig": {"hex": "483045022100a935adb4c464454c15945b71059ba3c1274273e8206ebdb2261bc4a6d8a65c55022023cd680f7e56f85b9579034c4da54db9aecaf529f31fc023c6cf37bd89c63160012102e82932a85c0d4bd084c161f47261cd925de267052630f12758854b9ca071952b", "asm": "3045022100a935adb4c464454c15945b71059ba3c1274273e8206ebdb2261bc4a6d8a65c55022023cd680f7e56f85b9579034c4da54db9aecaf529f31fc023c6cf37bd89c63160[ALL] 02e82932a85c0d4bd084c161f47261cd925de267052630f12758854b9ca071952b"}, "vout": 0, "txid": "7a0840d20bcbf2d643ccbac7ed07f44468792c83fdbe35acec6f7251c54adfa0"}, {"sequence": 4294967295, "scriptSig": {"hex": "483045022100e322e94e23d575258821613b848973b8a68a2d0bb725fda02872e7d7d0613ca8022066ac2427bb36dbba3e03fdbc213584e89864a47298540f7856bfdda4436af4b001210382d0f66992c569a5bdbb73b61b3919a1b8ec474001691d4a025d6d137a058587", "asm": "3045022100e322e94e23d575258821613b848973b8a68a2d0bb725fda02872e7d7d0613ca8022066ac2427bb36dbba3e03fdbc213584e89864a47298540f7856bfdda4436af4b0[ALL] 0382d0f66992c569a5bdbb73b61b3919a1b8ec474001691d4a025d6d137a058587"}, "vout": 0, "txid": "7dd379567433365ac7f751a379a5d1da6f261e9e8cf5849144e1f5a99cb4c836"}, {"sequence": 4294967295, "scriptSig": {"hex": "483045022100f5c22a1a22946a728d547f55d743084dc559c6d92bb135d779f0f8374259498f022004eb34e51287aa8ff17ab63e314538f1dd4e753ced4d454d80a01439fb321710012103549e44dedd33f4a1af1e2b7ef4b9ec3b39e74b7145f8691681b4ccb884b452bb", "asm": "3045022100f5c22a1a22946a728d547f55d743084dc559c6d92bb135d779f0f8374259498f022004eb34e51287aa8ff17ab63e314538f1dd4e753ced4d454d80a01439fb321710[ALL] 03549e44dedd33f4a1af1e2b7ef4b9ec3b39e74b7145f8691681b4ccb884b452bb"}, "vout": 0, "txid": "7de6406e79ca2b43a821d768b5336303e276bb62d7854627009f3a136aa3e176"}, {"sequence": 4294967295, "scriptSig": {"hex": "473044022036f5127b0664cb2e7e38f347e703a5dfb36a975e43be05b3b7493fc3ff23b83f02203964a814eee791ceb83dba267c21875b2105af78064f1b3ed235609172618786012103f1f5594ff9229be01206e2901675f4d458d753c2ca282e57a288384ea4e7dbcf", "asm": "3044022036f5127b0664cb2e7e38f347e703a5dfb36a975e43be05b3b7493fc3ff23b83f02203964a814eee791ceb83dba267c21875b2105af78064f1b3ed235609172618786[ALL] 03f1f5594ff9229be01206e2901675f4d458d753c2ca282e57a288384ea4e7dbcf"}, "vout": 0, "txid": "82c17c3e4fc82a45ea859e568f1c8dea082297708ba59f68fa417aa251f9d0bb"}, {"sequence": 4294967295, "scriptSig": {"hex": "473044022036bf91aeccee7d8e99b58fc02764773219d6271bc36e7af1c5623726b9700dc10220724d7b26317ed94a76b1c96b200a7aec68da387e6480ac1f5f20614b42b9d2f2012102e82932a85c0d4bd084c161f47261cd925de267052630f12758854b9ca071952b", "asm": "3044022036bf91aeccee7d8e99b58fc02764773219d6271bc36e7af1c5623726b9700dc10220724d7b26317ed94a76b1c96b200a7aec68da387e6480ac1f5f20614b42b9d2f2[ALL] 02e82932a85c0d4bd084c161f47261cd925de267052630f12758854b9ca071952b"}, "vout": 0, "txid": "a1fb7c6a23c9a68221dba543426683366b5c21fc947a931bcb2c304bb58ca04c"}, {"sequence": 4294967295, "scriptSig": {"hex": "473044022000bcfa30888644cadb5f0883705ce8af475a7e2373fb258974201d7576c5e16102200c3302a58f94038260ccf06be493e9dee2807dd742693cdb6cb2ec2046ac6273012102e82932a85c0d4bd084c161f47261cd925de267052630f12758854b9ca071952b", "asm": "3044022000bcfa30888644cadb5f0883705ce8af475a7e2373fb258974201d7576c5e16102200c3302a58f94038260ccf06be493e9dee2807dd742693cdb6cb2ec2046ac6273[ALL] 02e82932a85c0d4bd084c161f47261cd925de267052630f12758854b9ca071952b"}, "vout": 0, "txid": "a8a5dd4a7711ce6cf7d2488c61f258b281006b2e63fea6ec7055626036477b1a"}, {"sequence": 4294967295, "scriptSig": {"hex": "47304402202d226aa244246fd40ddd97b813602f02465f6d73330b45f35e7fe48465e081f102207ff8cbef1a6ec84f731c061cffcfd32af6f60b0345f76e32626d939d63985ffd012103f1f5594ff9229be01206e2901675f4d458d753c2ca282e57a288384ea4e7dbcf", "asm": "304402202d226aa244246fd40ddd97b813602f02465f6d73330b45f35e7fe48465e081f102207ff8cbef1a6ec84f731c061cffcfd32af6f60b0345f76e32626d939d63985ffd[ALL] 03f1f5594ff9229be01206e2901675f4d458d753c2ca282e57a288384ea4e7dbcf"}, "vout": 0, "txid": "aee4eed0a451fd6bb285a4dc4847f4104d77451c5214f4ea2ed830a4536848b5"}, {"sequence": 4294967295, "scriptSig": {"hex": "483045022100d016929cd205d016ba1880593ddd318991d7f0d39279e85bfa1231203a06f7c5022076ab8effd090650ea9019ac64a364f8bb2c1c9540634d4f91518b5ba9e8e09b3012102e82932a85c0d4bd084c161f47261cd925de267052630f12758854b9ca071952b", "asm": "3045022100d016929cd205d016ba1880593ddd318991d7f0d39279e85bfa1231203a06f7c5022076ab8effd090650ea9019ac64a364f8bb2c1c9540634d4f91518b5ba9e8e09b3[ALL] 02e82932a85c0d4bd084c161f47261cd925de267052630f12758854b9ca071952b"}, "vout": 0, "txid": "b0fea0a8d4917b5d8480b538c4f9b4852d63a60f8cd60c30445f866e212402e5"}, {"sequence": 4294967295, "scriptSig": {"hex": "483045022100b3d9298465f5ad9b14c9a0ed93e17fd17c3933fcc84e5ff35e33d756b21aaeed022017ea94b454c67befff272e3c0d080ede0672096eeda43719704c2d58b8b10a9e0121037e6cb7693e7804b59d0aba7914333a71cd3bfb45b134b0e321dc93fae086b4fe", "asm": "3045022100b3d9298465f5ad9b14c9a0ed93e17fd17c3933fcc84e5ff35e33d756b21aaeed022017ea94b454c67befff272e3c0d080ede0672096eeda43719704c2d58b8b10a9e[ALL] 037e6cb7693e7804b59d0aba7914333a71cd3bfb45b134b0e321dc93fae086b4fe"}, "vout": 0, "txid": "b509afc025b4489cf6231b0381576881e4cb6c420144789bc407615139457894"}], "txid": "af7ee35df1c5d85e0e4f3ca252aa4e90f10deada5065dd222637f7939be05ac6", "blocktime": 1537873891, "version": 1, "confirmations": 11478, "time": 1537873891, "locktime": 0, "vsize": 2142, "size": 2142}