{"hash": "af804acb88b1b4c65d394fb7f1c9f8e1a919bc2c5e96f0bc17100375e5b0d69f", "blockhash": "00000000000000000017f5eb5941039fbcee6240d03bc1f2f8e35350df66a1d8", "vout": [{"scriptPubKey": {"reqSigs": 1, "hex": "76a9142bd2f0a51ca8eb550b2ef6754a16e67fdc99662088ac", "addresses": ["14zikcrdEPHZLgvAUitNj2GZqxvsveWfPa"], "asm": "OP_DUP OP_HASH160 2bd2f0a51ca8eb550b2ef6754a16e67fdc996620 OP_EQUALVERIFY OP_CHECKSIG", "type": "pubkeyhash"}, "value": 1.86, "n": 0}, {"scriptPubKey": {"reqSigs": 1, "hex": "76a9141d297fe9cec235079d8247b23cbad502176c5c7388ac", "addresses": ["13fCK1azWSgH8m5YGpRhnZfx5s2UkE4Wt7"], "asm": "OP_DUP OP_HASH160 1d297fe9cec235079d8247b23cbad502176c5c73 OP_EQUALVERIFY OP_CHECKSIG", "type": "pubkeyhash"}, "value": 0.37652, "n": 1}], "hex": "01000000038274e406fb70ac3402e54be837e7fb3ba03dd32e1f3dcfe9d13e4fcb46229ad7010000006a4730440220366eb3ee97256e428d22a71852800e28ea378eb5d75d093def06afaa10c227ca02202a25015055ad82a9e8203357bcf512e15e9e4c763dee722dd2c8884ac1248474012102a7e57bed111508a95b303251364696b863b6ba365293b30b70f681c7fed46283ffffffffbbe24ff55888f5c8bf113a65b6c9dee1ccdbe70ee1fe4d2548617f9210c4350a000000006b483045022100b8bd0a27a6d082e52b654b9271840c70f48de7673523cfdc1f3aa8e564ab26d302207d74f46aaae8969dd6ffa0ecbf395dccfba7769d4f49c58f14c6617fd4c557db01210347317b6628327c0ab8f23aecafb2c921dfea91d02fcc303ea2c752fb3947ff41ffffffff31f2a3162ace0dd0da2c3c9f08ab652dba7254cb085d3cc95eed34f6a7e412d1000000006b483045022100af877cceeca727f4f17608a62bc07ed82cabb14238296b2d049390386567ff5f02206ca5a063680ee7f7cb1c2114484353f60eeb84e1ea0be2303d97d7e5f4456bf10121037682dc06630fb85a649d292256e1606e470a07d6d6afacd8a7fd203785b62b85ffffffff028022160b000000001976a9142bd2f0a51ca8eb550b2ef6754a16e67fdc99662088ac20863e02000000001976a9141d297fe9cec235079d8247b23cbad502176c5c7388ac00000000", "vin": [{"sequence": 4294967295, "scriptSig": {"hex": "4730440220366eb3ee97256e428d22a71852800e28ea378eb5d75d093def06afaa10c227ca02202a25015055ad82a9e8203357bcf512e15e9e4c763dee722dd2c8884ac1248474012102a7e57bed111508a95b303251364696b863b6ba365293b30b70f681c7fed46283", "asm": "30440220366eb3ee97256e428d22a71852800e28ea378eb5d75d093def06afaa10c227ca02202a25015055ad82a9e8203357bcf512e15e9e4c763dee722dd2c8884ac1248474[ALL] 02a7e57bed111508a95b303251364696b863b6ba365293b30b70f681c7fed46283"}, "vout": 1, "txid": "d79a2246cb4f3ed1e9cf3d1f2ed33da03bfbe737e84be50234ac70fb06e47482"}, {"sequence": 4294967295, "scriptSig": {"hex": "483045022100b8bd0a27a6d082e52b654b9271840c70f48de7673523cfdc1f3aa8e564ab26d302207d74f46aaae8969dd6ffa0ecbf395dccfba7769d4f49c58f14c6617fd4c557db01210347317b6628327c0ab8f23aecafb2c921dfea91d02fcc303ea2c752fb3947ff41", "asm": "3045022100b8bd0a27a6d082e52b654b9271840c70f48de7673523cfdc1f3aa8e564ab26d302207d74f46aaae8969dd6ffa0ecbf395dccfba7769d4f49c58f14c6617fd4c557db[ALL] 0347317b6628327c0ab8f23aecafb2c921dfea91d02fcc303ea2c752fb3947ff41"}, "vout": 0, "txid": "0a35c410927f6148254dfee10ee7dbcce1dec9b6653a11bfc8f58858f54fe2bb"}, {"sequence": 4294967295, "scriptSig": {"hex": "483045022100af877cceeca727f4f17608a62bc07ed82cabb14238296b2d049390386567ff5f02206ca5a063680ee7f7cb1c2114484353f60eeb84e1ea0be2303d97d7e5f4456bf10121037682dc06630fb85a649d292256e1606e470a07d6d6afacd8a7fd203785b62b85", "asm": "3045022100af877cceeca727f4f17608a62bc07ed82cabb14238296b2d049390386567ff5f02206ca5a063680ee7f7cb1c2114484353f60eeb84e1ea0be2303d97d7e5f4456bf1[ALL] 037682dc06630fb85a649d292256e1606e470a07d6d6afacd8a7fd203785b62b85"}, "vout": 0, "txid": "d112e4a7f634ed5ec93c5d08cb5472ba2d65ab089f3c2cdad00dce2a16a3f231"}], "txid": "af804acb88b1b4c65d394fb7f1c9f8e1a919bc2c5e96f0bc17100375e5b0d69f", "blocktime": 1537874412, "version": 1, "confirmations": 11467, "time": 1537874412, "locktime": 0, "vsize": 521, "size": 521}