{"hash": "5cb51e12a4cc69608933e1fc33c7c5d460f7b302eaa2992001ef9b991fb60976", "blockhash": "00000000000000000017f5eb5941039fbcee6240d03bc1f2f8e35350df66a1d8", "vout": [{"scriptPubKey": {"reqSigs": 1, "hex": "a91454b3d662e3623b59ae087399ec8ce97ea76cd54f87", "addresses": ["39Qt7yvrhagnPH2yes51jCU57HGf75Hxtn"], "asm": "OP_HASH160 54b3d662e3623b59ae087399ec8ce97ea76cd54f OP_EQUAL", "type": "scripthash"}, "value": 0.01876515, "n": 0}, {"scriptPubKey": {"reqSigs": 1, "hex": "a914e3b79f23576e6df3c3a9f749d787652acfcafc4b87", "addresses": ["3NT5HLuRw353FtY9FU15oc4UBMbTCvsyyz"], "asm": "OP_HASH160 e3b79f23576e6df3c3a9f749d787652acfcafc4b OP_EQUAL", "type": "scripthash"}, "value": 0.04299435, "n": 1}], "hex": "02000000000101d03c22abed379aa7b0198e8798f25fb11386ca6f7f8fc566b8bddfea71a71a0c0100000017160014815486f44e811435fb8c557bee8ee4feab2b7b50feffffff0223a21c000000000017a91454b3d662e3623b59ae087399ec8ce97ea76cd54f87ab9a41000000000017a914e3b79f23576e6df3c3a9f749d787652acfcafc4b8702483045022100cb31e5a1aa2197a2c3e6282d0e9f295aa56bcc0c5f7143fb99a0bc842b982b400220578785bde50423340977d7b8312d57b3ad0116abe0c576cc22db656c5c86c4cf012103bc542e78c43d32e29a28b8a60ff48932a74d8fe388498c39b6b9ed0107539a7915490800", "vin": [{"txinwitness": ["3045022100cb31e5a1aa2197a2c3e6282d0e9f295aa56bcc0c5f7143fb99a0bc842b982b400220578785bde50423340977d7b8312d57b3ad0116abe0c576cc22db656c5c86c4cf01", "03bc542e78c43d32e29a28b8a60ff48932a74d8fe388498c39b6b9ed0107539a79"], "sequence": 4294967294, "scriptSig": {"hex": "160014815486f44e811435fb8c557bee8ee4feab2b7b50", "asm": "0014815486f44e811435fb8c557bee8ee4feab2b7b50"}, "vout": 1, "txid": "0c1aa771eadfbdb866c58f7f6fca8613b15ff298878e19b0a79a37edab223cd0"}], "txid": "af810d7e690f0ccfebd80ab081522b5c498fc976313b03ded429d3f86d5da1f4", "blocktime": 1537874412, "version": 2, "confirmations": 11468, "time": 1537874412, "locktime": 542997, "vsize": 166, "size": 248}