{"hash": "3cfbb2e35da384b66bd4a0cfb2a569a1b27560b4f72e4ee628b62861b9d9ad27", "blockhash": "0000000000000000000baef3f32e3676a92c3b2e5da21b426e4f302fc371ce76", "vout": [{"scriptPubKey": {"reqSigs": 1, "hex": "a914433d64f88408122f6167451536b3a43688ba0e2587", "addresses": ["37pYk9xb9NWqr6uGkaz89yfogNpBEXWtdZ"], "asm": "OP_HASH160 433d64f88408122f6167451536b3a43688ba0e25 OP_EQUAL", "type": "scripthash"}, "value": 0.01427073, "n": 0}, {"scriptPubKey": {"reqSigs": 1, "hex": "a914a5c679defd49547b8133a1367eeadbdeaecec3da87", "addresses": ["3GoZBZ6F8g4UiCt7moPNLDX7KKwgtGgLUT"], "asm": "OP_HASH160 a5c679defd49547b8133a1367eeadbdeaecec3da OP_EQUAL", "type": "scripthash"}, "value": 0.28432646, "n": 1}], "hex": "010000000001012a44fc4842847c5743002b7a37704fe72d05342a28cbbe16013615ebd99ab92a01000000232200202d90cd274cea8141a030c0b79acc5b5c0b80b73d028692a1104913808bff6c09ffffffff0281c615000000000017a914433d64f88408122f6167451536b3a43688ba0e258706d9b1010000000017a914a5c679defd49547b8133a1367eeadbdeaecec3da870400473044022008dc286c82367bb1dd5d36d87371640d7e8e2eb5fdc02bbce5db2046852451bd022010b340e057e13af879dfae237c7b0757dca50cb23448c9b67aa78cd2a937e2c301483045022100a45e3be9469dc7794b23f25f6a527885c4a3e19e49b225ebd07af0f6e39f2d3e02203a16468b7278fbdbd426b1223ed652feb07e559b8bc773a4683917901eb262fb014752210295d70c0f10033e6e119fdc61ddd495bfe23995150af6df4688db5bf235f2853b21023e4b58fb2a91970de56515d11487aabd364f0404f1099bef70493cc56002342352ae00000000", "vin": [{"txinwitness": ["", "3044022008dc286c82367bb1dd5d36d87371640d7e8e2eb5fdc02bbce5db2046852451bd022010b340e057e13af879dfae237c7b0757dca50cb23448c9b67aa78cd2a937e2c301", "3045022100a45e3be9469dc7794b23f25f6a527885c4a3e19e49b225ebd07af0f6e39f2d3e02203a16468b7278fbdbd426b1223ed652feb07e559b8bc773a4683917901eb262fb01", "52210295d70c0f10033e6e119fdc61ddd495bfe23995150af6df4688db5bf235f2853b21023e4b58fb2a91970de56515d11487aabd364f0404f1099bef70493cc56002342352ae"], "sequence": 4294967295, "scriptSig": {"hex": "2200202d90cd274cea8141a030c0b79acc5b5c0b80b73d028692a1104913808bff6c09", "asm": "00202d90cd274cea8141a030c0b79acc5b5c0b80b73d028692a1104913808bff6c09"}, "vout": 1, "txid": "2ab99ad9eb15360116becb282a34052de74f70377a2b0043577c844248fc442a"}], "txid": "af832358488d76f220ddaec18bcb3d53693243ed2e5cc7a203c70b90c7f1d394", "blocktime": 1537876114, "version": 1, "confirmations": 11462, "time": 1537876114, "locktime": 0, "vsize": 206, "size": 371}