{"hash": "1bc80bec2152378ff7419ba49f84491b88bd1dc4480e3bd35befde2bdbc7f2b8", "blockhash": "0000000000000000001e0dab787dd257d1dbfcb92a98c2207d5e1078be1f4165", "vout": [{"scriptPubKey": {"reqSigs": 1, "hex": "a914cd81d002f868e3adadc7b4c9351087456dd4b15f87", "addresses": ["3LRdxQK9MZVXKZi9PzAu6xXZ5HuE85qo62"], "asm": "OP_HASH160 cd81d002f868e3adadc7b4c9351087456dd4b15f OP_EQUAL", "type": "scripthash"}, "value": 0.07317532, "n": 0}, {"scriptPubKey": {"reqSigs": 1, "hex": "a91453d93d33585d810c27faa75d2304b47c67314bbe87", "addresses": ["39LNFVyyQkUWUBqfFkGqv8RknTwkgGVK9R"], "asm": "OP_HASH160 53d93d33585d810c27faa75d2304b47c67314bbe OP_EQUAL", "type": "scripthash"}, "value": 0.04476329, "n": 1}], "hex": "01000000000101ddfbdc87986f71fe4240645fbaf3d64d033fd4de6266de41b0749923428034620100000023220020f7aef3a48bdd0ec4e65942de047f2f305e21fb2d2aa1ab64d5583a554e782049ffffffff021ca86f000000000017a914cd81d002f868e3adadc7b4c9351087456dd4b15f87a94d44000000000017a91453d93d33585d810c27faa75d2304b47c67314bbe870400483045022100f65bb7fd299b40d507c4ccf1ed10d1e52178f15ba615feb310b0f2ef1c23a2c202205997a448968e669cf374af95618c655bfaa002f12cffeaeaa8bf853c4617304101483045022100eb2047922db51b53f218ed25deef376e59a920ae5e27c6b1fc2cc098b7abb4280220229042668c4c3fee603fed52636c96055d694f0800386d3c1179a0669b6785f5016952210369d60612b3e007df9e8f033478b101ce1fe790c6cf2e1d6c4ce5a920da31519d2103b515aeecaf2188d6d55b4d46c720971a6db7bf95aae9658666ba4986b70167792103c4791e90dc8f2033a3f9d544663d3179dc764ec70dc5b85d54b9ebf8018426bd53ae00000000", "vin": [{"txinwitness": ["", "3045022100f65bb7fd299b40d507c4ccf1ed10d1e52178f15ba615feb310b0f2ef1c23a2c202205997a448968e669cf374af95618c655bfaa002f12cffeaeaa8bf853c4617304101", "3045022100eb2047922db51b53f218ed25deef376e59a920ae5e27c6b1fc2cc098b7abb4280220229042668c4c3fee603fed52636c96055d694f0800386d3c1179a0669b6785f501", "52210369d60612b3e007df9e8f033478b101ce1fe790c6cf2e1d6c4ce5a920da31519d2103b515aeecaf2188d6d55b4d46c720971a6db7bf95aae9658666ba4986b70167792103c4791e90dc8f2033a3f9d544663d3179dc764ec70dc5b85d54b9ebf8018426bd53ae"], "sequence": 4294967295, "scriptSig": {"hex": "220020f7aef3a48bdd0ec4e65942de047f2f305e21fb2d2aa1ab64d5583a554e782049", "asm": "0020f7aef3a48bdd0ec4e65942de047f2f305e21fb2d2aa1ab64d5583a554e782049"}, "vout": 1, "txid": "62348042239974b041de6662ded43f034dd6f3ba5f644042fe716f9887dcfbdd"}], "txid": "af849bf79ce8e41c3a393679560c29cb00c73083513046de5362a5406332ad32", "blocktime": 1537872475, "version": 1, "confirmations": 11486, "time": 1537872475, "locktime": 0, "vsize": 214, "size": 406}