{"hash": "af859be9af62c5710f020e07409dca12ea17bab8395f03af34661a991696a815", "blockhash": "0000000000000000001e0dab787dd257d1dbfcb92a98c2207d5e1078be1f4165", "vout": [{"scriptPubKey": {"reqSigs": 1, "hex": "76a91482213915440647b1c2f97ad4df472c3e76e3ad0588ac", "addresses": ["1Cs4eK3dBevt6gdJTNcz5uD5gPEKwD6eEu"], "asm": "OP_DUP OP_HASH160 82213915440647b1c2f97ad4df472c3e76e3ad05 OP_EQUALVERIFY OP_CHECKSIG", "type": "pubkeyhash"}, "value": 3.967, "n": 0}, {"scriptPubKey": {"reqSigs": 1, "hex": "76a91426d65370c49a977952018e7124fee331073cbd7d88ac", "addresses": ["14YMRvBSb4WsCavdjHbUnCBkZxb2SLEfnm"], "asm": "OP_DUP OP_HASH160 26d65370c49a977952018e7124fee331073cbd7d OP_EQUALVERIFY OP_CHECKSIG", "type": "pubkeyhash"}, "value": 79.27479468, "n": 1}], "hex": "0100000001af913ac0eedc69528acd1dcd148999a6ac34829ac38a931c87fc3a5db5b13298010000006b483045022100e0e868f8becb16e80c3129f7e2aa99368fafca59304243aa83b094b4e358df9902200e8e0dcd9a56b59b2ab2a98ffbbcb4cd2c1e81f07f625fade2e3eeaf1d77a8b5012103c594fdeef3935109fa27ddfdb48d9969182d9b3057d02753cb921aa8703be5f6ffffffff026029a517000000001976a91482213915440647b1c2f97ad4df472c3e76e3ad0588acacbc83d8010000001976a91426d65370c49a977952018e7124fee331073cbd7d88ac00000000", "vin": [{"sequence": 4294967295, "scriptSig": {"hex": "483045022100e0e868f8becb16e80c3129f7e2aa99368fafca59304243aa83b094b4e358df9902200e8e0dcd9a56b59b2ab2a98ffbbcb4cd2c1e81f07f625fade2e3eeaf1d77a8b5012103c594fdeef3935109fa27ddfdb48d9969182d9b3057d02753cb921aa8703be5f6", "asm": "3045022100e0e868f8becb16e80c3129f7e2aa99368fafca59304243aa83b094b4e358df9902200e8e0dcd9a56b59b2ab2a98ffbbcb4cd2c1e81f07f625fade2e3eeaf1d77a8b5[ALL] 03c594fdeef3935109fa27ddfdb48d9969182d9b3057d02753cb921aa8703be5f6"}, "vout": 1, "txid": "9832b1b55d3afc871c938ac39a8234aca6998914cd1dcd8a5269dceec03a91af"}], "txid": "af859be9af62c5710f020e07409dca12ea17bab8395f03af34661a991696a815", "blocktime": 1537872475, "version": 1, "confirmations": 11486, "time": 1537872475, "locktime": 0, "vsize": 226, "size": 226}