{"hash": "b8fb29da518306d4246aaa0b3b79621e495fa3a20ec63aa0dcf88a9d455d655c", "blockhash": "0000000000000000000dcc0f55137456b1a82d3642486a52398922ac4d620174", "vout": [{"scriptPubKey": {"reqSigs": 1, "hex": "76a91428116970967d871197dfad5b5292ffa16933571b88ac", "addresses": ["14ertULwiEtdagJfnYvdKrGPawNp1ajLid"], "asm": "OP_DUP OP_HASH160 28116970967d871197dfad5b5292ffa16933571b OP_EQUALVERIFY OP_CHECKSIG", "type": "pubkeyhash"}, "value": 0.01, "n": 0}, {"scriptPubKey": {"reqSigs": 1, "hex": "a914be013753bcb1a0923fa98729c6092e5b93a3dec587", "addresses": ["3K1fmVKhnAzUB6GaBPWYqmBMvU3tCorAsX"], "asm": "OP_HASH160 be013753bcb1a0923fa98729c6092e5b93a3dec5 OP_EQUAL", "type": "scripthash"}, "value": 5.72894094, "n": 1}], "hex": "02000000000101a74fe7429df0d343bb868288d7e5699ff6021a35021acbb4373d32c8b7b86abd01000000171600144fb506f56af441d858b3ad10a7ef2629485f12b6feffffff0240420f00000000001976a91428116970967d871197dfad5b5292ffa16933571b88ac8eab25220000000017a914be013753bcb1a0923fa98729c6092e5b93a3dec587024730440220535ffca7de708db3f05c1297880791e978a80f9ddbfa5d717d216ac8f32a70a80220116d4c5be26f8975babbe96b7543768488be4264dd96870725abd3c2f418868001210242f182fa060d2e5d79cfe80ad23d8153a26ec1760e1b156ff6384e0d97a508200c490800", "vin": [{"txinwitness": ["30440220535ffca7de708db3f05c1297880791e978a80f9ddbfa5d717d216ac8f32a70a80220116d4c5be26f8975babbe96b7543768488be4264dd96870725abd3c2f418868001", "0242f182fa060d2e5d79cfe80ad23d8153a26ec1760e1b156ff6384e0d97a50820"], "sequence": 4294967294, "scriptSig": {"hex": "1600144fb506f56af441d858b3ad10a7ef2629485f12b6", "asm": "00144fb506f56af441d858b3ad10a7ef2629485f12b6"}, "vout": 1, "txid": "bd6ab8b7c8323d37b4cb1a02351a02f69f69e5d7888286bb43d3f09d42e74fa7"}], "txid": "af88108bf1d9ee27f470a44808df31d847e09c8bdd7ac9066af124e5c697f669", "blocktime": 1537870268, "version": 2, "confirmations": 11519, "time": 1537870268, "locktime": 542988, "vsize": 168, "size": 249}