{"hash": "af8c5fc91ffca5ed1380a88cca8a27aee8f09748029bd19515c9a456bd973b73", "blockhash": "0000000000000000000e13cef7c366c0283d82e591d1acd082e914b08063cdf1", "vout": [{"scriptPubKey": {"reqSigs": 1, "hex": "76a914c22993ab54dedfaa7a3b72ed8dc2b510b2fb676088ac", "addresses": ["1Jhdu2Q6Wz6yEbFYHCsSdP1X5jHwVsCmLb"], "asm": "OP_DUP OP_HASH160 c22993ab54dedfaa7a3b72ed8dc2b510b2fb6760 OP_EQUALVERIFY OP_CHECKSIG", "type": "pubkeyhash"}, "value": 0.019, "n": 0}, {"scriptPubKey": {"reqSigs": 1, "hex": "76a914a15d003eaabf3260d1949a0dead172990f52c92288ac", "addresses": ["1FiDChrfdxcoSA7GHaerKtcn8qnQH4kZ3b"], "asm": "OP_DUP OP_HASH160 a15d003eaabf3260d1949a0dead172990f52c922 OP_EQUALVERIFY OP_CHECKSIG", "type": "pubkeyhash"}, "value": 0.34830432, "n": 1}], "hex": "01000000013f0ec399efda0ad4e481b2e2614a2bd3855de91c471e0bdbbe82c5f81b1de542010000006b483045022100e0751f3762120f03784fc9114db2b7e0d58d843efca7aa3a8ce08784782ddd890220159f305f3c7edecbcbcddc5089d1fcd133c2326acb5136f2f7a37014d204f620012102a7ee72018c43f950847fb296295aa862c647c48b5779614e9bf527ce46104365ffffffff02e0fd1c00000000001976a914c22993ab54dedfaa7a3b72ed8dc2b510b2fb676088ac60781302000000001976a914a15d003eaabf3260d1949a0dead172990f52c92288ac00000000", "vin": [{"sequence": 4294967295, "scriptSig": {"hex": "483045022100e0751f3762120f03784fc9114db2b7e0d58d843efca7aa3a8ce08784782ddd890220159f305f3c7edecbcbcddc5089d1fcd133c2326acb5136f2f7a37014d204f620012102a7ee72018c43f950847fb296295aa862c647c48b5779614e9bf527ce46104365", "asm": "3045022100e0751f3762120f03784fc9114db2b7e0d58d843efca7aa3a8ce08784782ddd890220159f305f3c7edecbcbcddc5089d1fcd133c2326acb5136f2f7a37014d204f620[ALL] 02a7ee72018c43f950847fb296295aa862c647c48b5779614e9bf527ce46104365"}, "vout": 1, "txid": "42e51d1bf8c582bedb0b1e471ce95d85d32b4a61e2b281e4d40adaef99c30e3f"}], "txid": "af8c5fc91ffca5ed1380a88cca8a27aee8f09748029bd19515c9a456bd973b73", "blocktime": 1537871767, "version": 1, "confirmations": 11495, "time": 1537871767, "locktime": 0, "vsize": 226, "size": 226}