{"hash": "af9c0530353543dba35c87a8d547d0f3e5cdbad5145d8b40c0b0f6a4e3ba3ecb", "blockhash": "000000000000000000022b45ed06c6f4ccd3cf7fb5ba4856ebd2e58215665228", "vout": [{"scriptPubKey": {"type": "nulldata", "hex": "6a146f6d6e69000000000000001f00000230b3e7d200", "asm": "OP_RETURN 6f6d6e69000000000000001f00000230b3e7d200"}, "value": 0.0, "n": 0}, {"scriptPubKey": {"reqSigs": 1, "hex": "76a914684ebe747fdc4d70d0b6b0ad0b87aa668193b61488ac", "addresses": ["1AWXcBGMfGktTRX3t7v5W3oCwRF1QK2yZH"], "asm": "OP_DUP OP_HASH160 684ebe747fdc4d70d0b6b0ad0b87aa668193b614 OP_EQUALVERIFY OP_CHECKSIG", "type": "pubkeyhash"}, "value": 0.00398636, "n": 1}, {"scriptPubKey": {"reqSigs": 1, "hex": "76a914a25dec4d0011064ef106a983c39c7a540699f22088ac", "addresses": ["1FoWyxwPXuj4C6abqwhjDWdz6D4PZgYRjA"], "asm": "OP_DUP OP_HASH160 a25dec4d0011064ef106a983c39c7a540699f220 OP_EQUALVERIFY OP_CHECKSIG", "type": "pubkeyhash"}, "value": 5.46e-06, "n": 2}], "hex": "010000000962d762e509281ba050479d51af68ae576ee41e5c48bcbb5e39d7c1dbf4cb1c9b010000006a4730440220129564b332190dbfc9b14771d75a6456a54483d2e1c49e6cfa28d647db74fdab02206342a59f691e413600831ca4f8b560cfd45a54620e166cf3fc5ed87582706573012103668b32f08581d3b12358154097be7f9447e439cbcb354f2a221d3c2a831f1b9bfeffffff7cb064ce0b27bec0b38b4dbaf9537745d3ebb0b8ab735bb82963ffda601fb0e0010000006b4830450221008043e73360eceb4348e4faae6c95eb2e8279307098c7da111f9614ef73aec38602204ed44c91e9b255d76119ee7ea0d1fb4092fda8ec11569118dc167c0bddc83da0012103668b32f08581d3b12358154097be7f9447e439cbcb354f2a221d3c2a831f1b9bfeffffff80b59ef884ba483e49fc6b6b4ecde5d1b610a625416f3deaf551a97b93f8650b000000006b48304502210084b8860b0bc927ec192eb8c1018e44f8b21a9e5b2316b281b0d320e143253bd102202b43f672339242301f8ff1b1f06755affce0d58bdf3e3c970485ddf7db94daa6012103668b32f08581d3b12358154097be7f9447e439cbcb354f2a221d3c2a831f1b9bfeffffff8fc5ab55ab5e2c4be09149e3a548e6079da0cfeb5517924efa2274333be6232b000000006a47304402201dbcc70e9f8ad779e2c781b8508c193bd5e14a1e8b3f5697762fe4f1e0fb6677022012ce3f917e9a8514ba483d67006e3eb6cdee2f8ba0c255f4f03dfc7989e156d6012103668b32f08581d3b12358154097be7f9447e439cbcb354f2a221d3c2a831f1b9bfeffffff9a225ad8ac55ff03a4abba90500d4566eaf7d814a09b49ceb483637c3c5c3e22000000006a4730440220470272d7779a5a8797c1e693e01e9e208f93561b9ff1a620267691d0a094656902201b4ac999de6df3a62d059943d076a0dc9daeaf612432eb7200bb0ad2bec6b384012103668b32f08581d3b12358154097be7f9447e439cbcb354f2a221d3c2a831f1b9bfeffffffa0992971285c70919426ef037526cefdb91c2b0e8ebb5e6c4a21d2e0d28cf418010000006a47304402200a4d6c0a15c65b1870a586ab73dd16af98127514f97681732b3c2b89701aa5f2022062ec3fc1fd837955fef3f926ac54f4d3651c07ba500b1c0eb0528355a73a8bef012103668b32f08581d3b12358154097be7f9447e439cbcb354f2a221d3c2a831f1b9bfeffffffb8298f55db52b17710f43d9a396e4cd07c472d7b0a5954e972da3ed877f9716e010000006a473044022032b232776b9a88763c146414d6f16c73ed3b3d3de9fa5897bb7949e2e1c4eb3f02204990ad501a0db3e1091e8c85dd2a6fe74d47a4f31de3d29dcf77633ad7426e1e012103668b32f08581d3b12358154097be7f9447e439cbcb354f2a221d3c2a831f1b9bfeffffffb854d84ff1ae2b9c5d358a92e262f4aafb553889675869eb8442470bfcd142a0020000006a4730440220266f23b240328d97463689b9d6268cce3fd76379333d35836f488b0f75a668c9022021ce3ebe8e812f62280442d61d89a8e286f569bc1fa806b013f0d39802e8a687012103668b32f08581d3b12358154097be7f9447e439cbcb354f2a221d3c2a831f1b9bfeffffff58d4100f5394ef987a9d423316feb87870fe8718eda911dc1b287bb35e44b100000000006a47304402204ac25ad9a7be3e5c8424d4b69f5d525c430cfc2993c70c4ee5f3a4f39ce1ad6c02200971fc1d40df18151c66d5117d3607cdc092abc0f9b682db8967741030ff9a38012103668b32f08581d3b12358154097be7f9447e439cbcb354f2a221d3c2a831f1b9bfeffffff030000000000000000166a146f6d6e69000000000000001f00000230b3e7d2002c150600000000001976a914684ebe747fdc4d70d0b6b0ad0b87aa668193b61488ac22020000000000001976a914a25dec4d0011064ef106a983c39c7a540699f22088acd4480800", "vin": [{"sequence": 4294967294, "scriptSig": {"hex": "4730440220129564b332190dbfc9b14771d75a6456a54483d2e1c49e6cfa28d647db74fdab02206342a59f691e413600831ca4f8b560cfd45a54620e166cf3fc5ed87582706573012103668b32f08581d3b12358154097be7f9447e439cbcb354f2a221d3c2a831f1b9b", "asm": "30440220129564b332190dbfc9b14771d75a6456a54483d2e1c49e6cfa28d647db74fdab02206342a59f691e413600831ca4f8b560cfd45a54620e166cf3fc5ed87582706573[ALL] 03668b32f08581d3b12358154097be7f9447e439cbcb354f2a221d3c2a831f1b9b"}, "vout": 1, "txid": "9b1ccbf4dbc1d7395ebbbc485c1ee46e57ae68af519d4750a01b2809e562d762"}, {"sequence": 4294967294, "scriptSig": {"hex": "4830450221008043e73360eceb4348e4faae6c95eb2e8279307098c7da111f9614ef73aec38602204ed44c91e9b255d76119ee7ea0d1fb4092fda8ec11569118dc167c0bddc83da0012103668b32f08581d3b12358154097be7f9447e439cbcb354f2a221d3c2a831f1b9b", "asm": "30450221008043e73360eceb4348e4faae6c95eb2e8279307098c7da111f9614ef73aec38602204ed44c91e9b255d76119ee7ea0d1fb4092fda8ec11569118dc167c0bddc83da0[ALL] 03668b32f08581d3b12358154097be7f9447e439cbcb354f2a221d3c2a831f1b9b"}, "vout": 1, "txid": "e0b01f60daff6329b85b73abb8b0ebd3457753f9ba4d8bb3c0be270bce64b07c"}, {"sequence": 4294967294, "scriptSig": {"hex": "48304502210084b8860b0bc927ec192eb8c1018e44f8b21a9e5b2316b281b0d320e143253bd102202b43f672339242301f8ff1b1f06755affce0d58bdf3e3c970485ddf7db94daa6012103668b32f08581d3b12358154097be7f9447e439cbcb354f2a221d3c2a831f1b9b", "asm": "304502210084b8860b0bc927ec192eb8c1018e44f8b21a9e5b2316b281b0d320e143253bd102202b43f672339242301f8ff1b1f06755affce0d58bdf3e3c970485ddf7db94daa6[ALL] 03668b32f08581d3b12358154097be7f9447e439cbcb354f2a221d3c2a831f1b9b"}, "vout": 0, "txid": "0b65f8937ba951f5ea3d6f4125a610b6d1e5cd4e6b6bfc493e48ba84f89eb580"}, {"sequence": 4294967294, "scriptSig": {"hex": "47304402201dbcc70e9f8ad779e2c781b8508c193bd5e14a1e8b3f5697762fe4f1e0fb6677022012ce3f917e9a8514ba483d67006e3eb6cdee2f8ba0c255f4f03dfc7989e156d6012103668b32f08581d3b12358154097be7f9447e439cbcb354f2a221d3c2a831f1b9b", "asm": "304402201dbcc70e9f8ad779e2c781b8508c193bd5e14a1e8b3f5697762fe4f1e0fb6677022012ce3f917e9a8514ba483d67006e3eb6cdee2f8ba0c255f4f03dfc7989e156d6[ALL] 03668b32f08581d3b12358154097be7f9447e439cbcb354f2a221d3c2a831f1b9b"}, "vout": 0, "txid": "2b23e63b337422fa4e921755ebcfa09d07e648a5e34991e04b2c5eab55abc58f"}, {"sequence": 4294967294, "scriptSig": {"hex": "4730440220470272d7779a5a8797c1e693e01e9e208f93561b9ff1a620267691d0a094656902201b4ac999de6df3a62d059943d076a0dc9daeaf612432eb7200bb0ad2bec6b384012103668b32f08581d3b12358154097be7f9447e439cbcb354f2a221d3c2a831f1b9b", "asm": "30440220470272d7779a5a8797c1e693e01e9e208f93561b9ff1a620267691d0a094656902201b4ac999de6df3a62d059943d076a0dc9daeaf612432eb7200bb0ad2bec6b384[ALL] 03668b32f08581d3b12358154097be7f9447e439cbcb354f2a221d3c2a831f1b9b"}, "vout": 0, "txid": "223e5c3c7c6383b4ce499ba014d8f7ea66450d5090baaba403ff55acd85a229a"}, {"sequence": 4294967294, "scriptSig": {"hex": "47304402200a4d6c0a15c65b1870a586ab73dd16af98127514f97681732b3c2b89701aa5f2022062ec3fc1fd837955fef3f926ac54f4d3651c07ba500b1c0eb0528355a73a8bef012103668b32f08581d3b12358154097be7f9447e439cbcb354f2a221d3c2a831f1b9b", "asm": "304402200a4d6c0a15c65b1870a586ab73dd16af98127514f97681732b3c2b89701aa5f2022062ec3fc1fd837955fef3f926ac54f4d3651c07ba500b1c0eb0528355a73a8bef[ALL] 03668b32f08581d3b12358154097be7f9447e439cbcb354f2a221d3c2a831f1b9b"}, "vout": 1, "txid": "18f48cd2e0d2214a6c5ebb8e0e2b1cb9fdce267503ef269491705c28712999a0"}, {"sequence": 4294967294, "scriptSig": {"hex": "473044022032b232776b9a88763c146414d6f16c73ed3b3d3de9fa5897bb7949e2e1c4eb3f02204990ad501a0db3e1091e8c85dd2a6fe74d47a4f31de3d29dcf77633ad7426e1e012103668b32f08581d3b12358154097be7f9447e439cbcb354f2a221d3c2a831f1b9b", "asm": "3044022032b232776b9a88763c146414d6f16c73ed3b3d3de9fa5897bb7949e2e1c4eb3f02204990ad501a0db3e1091e8c85dd2a6fe74d47a4f31de3d29dcf77633ad7426e1e[ALL] 03668b32f08581d3b12358154097be7f9447e439cbcb354f2a221d3c2a831f1b9b"}, "vout": 1, "txid": "6e71f977d83eda72e954590a7b2d477cd04c6e399a3df41077b152db558f29b8"}, {"sequence": 4294967294, "scriptSig": {"hex": "4730440220266f23b240328d97463689b9d6268cce3fd76379333d35836f488b0f75a668c9022021ce3ebe8e812f62280442d61d89a8e286f569bc1fa806b013f0d39802e8a687012103668b32f08581d3b12358154097be7f9447e439cbcb354f2a221d3c2a831f1b9b", "asm": "30440220266f23b240328d97463689b9d6268cce3fd76379333d35836f488b0f75a668c9022021ce3ebe8e812f62280442d61d89a8e286f569bc1fa806b013f0d39802e8a687[ALL] 03668b32f08581d3b12358154097be7f9447e439cbcb354f2a221d3c2a831f1b9b"}, "vout": 2, "txid": "a042d1fc0b474284eb695867893855fbaaf462e2928a355d9c2baef14fd854b8"}, {"sequence": 4294967294, "scriptSig": {"hex": "47304402204ac25ad9a7be3e5c8424d4b69f5d525c430cfc2993c70c4ee5f3a4f39ce1ad6c02200971fc1d40df18151c66d5117d3607cdc092abc0f9b682db8967741030ff9a38012103668b32f08581d3b12358154097be7f9447e439cbcb354f2a221d3c2a831f1b9b", "asm": "304402204ac25ad9a7be3e5c8424d4b69f5d525c430cfc2993c70c4ee5f3a4f39ce1ad6c02200971fc1d40df18151c66d5117d3607cdc092abc0f9b682db8967741030ff9a38[ALL] 03668b32f08581d3b12358154097be7f9447e439cbcb354f2a221d3c2a831f1b9b"}, "vout": 0, "txid": "00b1445eb37b281bdc11a9ed1887fe7078b8fe1633429d7a98ef94530f10d458"}], "txid": "af9c0530353543dba35c87a8d547d0f3e5cdbad5145d8b40c0b0f6a4e3ba3ecb", "blocktime": 1537869901, "version": 1, "confirmations": 11524, "time": 1537869901, "locktime": 542932, "vsize": 1434, "size": 1434}