{"hash": "2b04e5908fbff11ac02db03e627047e7455f030e1b26512503a4dea17fa0bfa6", "blockhash": "0000000000000000001f0ddff1eddb255c1121bcd4da4f1bc9a0da00cae72433", "vout": [{"scriptPubKey": {"reqSigs": 1, "hex": "a91412473bdc1bc7119a2b762380b527538ff301bc3387", "addresses": ["33MfRQioNXLWuZJZTFvnbBHNpn2kDGDffU"], "asm": "OP_HASH160 12473bdc1bc7119a2b762380b527538ff301bc33 OP_EQUAL", "type": "scripthash"}, "value": 0.00147508, "n": 0}, {"scriptPubKey": {"reqSigs": 1, "hex": "76a91448dbfd92f9eda83803419c08171a5bef02c2ff4d88ac", "addresses": ["17eFC2Eri9wmEXumwoiYAWGvzbJkcxPF6k"], "asm": "OP_DUP OP_HASH160 48dbfd92f9eda83803419c08171a5bef02c2ff4d OP_EQUALVERIFY OP_CHECKSIG", "type": "pubkeyhash"}, "value": 0.00148404, "n": 1}], "hex": "0100000000010200f2d5a55e22637bace182cfc0763a71016a167812949625604bb9077c433b97010000002322002051c2323931272c605c7a85adf9fd5c6eef8fafd6ace2da24e5b3edca39c74efcffffffff3fa5d0d630178aab6d7a16724b1c6391bf4c0e7134588061fe4070d5bb6a567700000000fdfd000047304402205e7bc03ffadba9bfbd34affb718d526c230355bec77445f3b19e85e7c25815b302206c8e952ca54cc5215747fc8a60aa2574bd9139ed76938e6d2a48e341564d9b0501483045022100db07e7692aab78120d9aed5549e5539b721cee64c255860dea09ba92d09c1c57022001b39b3e74d970d019ffdfe0d4c4a74120aa4591500badfe3124197cbb8ada8e014c695221022bd309f7589e595c0d1b0bb743aa12790c9f47cf5e98ad6e6b0d0c28411c61572102b0c1b2c2e39d1a59caef61fef46ed66b943d9589296d85097891d5d8e989ba9b21037db63c31a3e303fc3e6d3ccef3a3f35d5e76423c84fac7f2e4c1237beab679b353aeffffffff02344002000000000017a91412473bdc1bc7119a2b762380b527538ff301bc3387b4430200000000001976a91448dbfd92f9eda83803419c08171a5bef02c2ff4d88ac0400473044022014b35281118f914027b019c54b953a7fc6c0cae55b46ff316a200bd8faf617c70220171e9219edcc6659d8e540a75fe42db45b4e5608717bf7b5d76fe3c30292f5bc01473044022066064eb7a86bd03eaa5cd888dc873edae131df9a4d8d7bc9a6bcdf45f36349ac0220399ac4ac966f0b6256b6c93617144c1c9ccadc94e7d5e754cd8f201ae070f94601695221020f7c03f2606f3c7c392ed2ebd8019e456c2f711551f6dcbb567b0733ed298bbf2102c9f22db9e0462761bd02ca9515e9288b747e8d4f24cce5bf26c64ebab0125c4f2103ecdfd3ce095257f6ac8b86ce213a65f5f725af67387fb8469038f46fe5eadb1c53ae0000000000", "vin": [{"txinwitness": ["", "3044022014b35281118f914027b019c54b953a7fc6c0cae55b46ff316a200bd8faf617c70220171e9219edcc6659d8e540a75fe42db45b4e5608717bf7b5d76fe3c30292f5bc01", "3044022066064eb7a86bd03eaa5cd888dc873edae131df9a4d8d7bc9a6bcdf45f36349ac0220399ac4ac966f0b6256b6c93617144c1c9ccadc94e7d5e754cd8f201ae070f94601", "5221020f7c03f2606f3c7c392ed2ebd8019e456c2f711551f6dcbb567b0733ed298bbf2102c9f22db9e0462761bd02ca9515e9288b747e8d4f24cce5bf26c64ebab0125c4f2103ecdfd3ce095257f6ac8b86ce213a65f5f725af67387fb8469038f46fe5eadb1c53ae"], "sequence": 4294967295, "scriptSig": {"hex": "22002051c2323931272c605c7a85adf9fd5c6eef8fafd6ace2da24e5b3edca39c74efc", "asm": "002051c2323931272c605c7a85adf9fd5c6eef8fafd6ace2da24e5b3edca39c74efc"}, "vout": 1, "txid": "973b437c07b94b602596941278166a01713a76c0cf82e1ac7b63225ea5d5f200"}, {"sequence": 4294967295, "scriptSig": {"hex": "0047304402205e7bc03ffadba9bfbd34affb718d526c230355bec77445f3b19e85e7c25815b302206c8e952ca54cc5215747fc8a60aa2574bd9139ed76938e6d2a48e341564d9b0501483045022100db07e7692aab78120d9aed5549e5539b721cee64c255860dea09ba92d09c1c57022001b39b3e74d970d019ffdfe0d4c4a74120aa4591500badfe3124197cbb8ada8e014c695221022bd309f7589e595c0d1b0bb743aa12790c9f47cf5e98ad6e6b0d0c28411c61572102b0c1b2c2e39d1a59caef61fef46ed66b943d9589296d85097891d5d8e989ba9b21037db63c31a3e303fc3e6d3ccef3a3f35d5e76423c84fac7f2e4c1237beab679b353ae", "asm": "0 304402205e7bc03ffadba9bfbd34affb718d526c230355bec77445f3b19e85e7c25815b302206c8e952ca54cc5215747fc8a60aa2574bd9139ed76938e6d2a48e341564d9b05[ALL] 3045022100db07e7692aab78120d9aed5549e5539b721cee64c255860dea09ba92d09c1c57022001b39b3e74d970d019ffdfe0d4c4a74120aa4591500badfe3124197cbb8ada8e[ALL] 5221022bd309f7589e595c0d1b0bb743aa12790c9f47cf5e98ad6e6b0d0c28411c61572102b0c1b2c2e39d1a59caef61fef46ed66b943d9589296d85097891d5d8e989ba9b21037db63c31a3e303fc3e6d3ccef3a3f35d5e76423c84fac7f2e4c1237beab679b353ae"}, "vout": 0, "txid": "77566abbd57040fe61805834710e4cbf91631c4b72167a6dab8a1730d6d0a53f"}], "txid": "afa0eb99ac1bc82f3edc91830856132a9572769e64c5b6b539dcd3ed36294690", "blocktime": 1537872018, "version": 1, "confirmations": 11489, "time": 1537872018, "locktime": 0, "vsize": 512, "size": 703}