{"hash": "a76eef186450d2a959b6432c9d7c77eba9937cc35a72d1eed54c293d7f241f7e", "blockhash": "0000000000000000001f76057863aec43deb6fa401d9628bb513d65a8098bfab", "vout": [{"scriptPubKey": {"reqSigs": 1, "hex": "76a914883cd7bc309577a626bb861eb6d620cfe11833a888ac", "addresses": ["1DRMnWs9gQrbbuckhfhfWU8XXFUYQjVdUd"], "asm": "OP_DUP OP_HASH160 883cd7bc309577a626bb861eb6d620cfe11833a8 OP_EQUALVERIFY OP_CHECKSIG", "type": "pubkeyhash"}, "value": 0.36209042, "n": 0}, {"scriptPubKey": {"reqSigs": 1, "hex": "00147f4e6c309802c734f94f58b757f714d52a80e60b", "addresses": ["bc1q0a8xcvycqtrnf720tzm40ac5654gpestz8tu3t"], "asm": "0 7f4e6c309802c734f94f58b757f714d52a80e60b", "type": "witness_v0_keyhash"}, "value": 0.02128729, "n": 1}], "hex": "01000000000101607285d20ec38f20883451932602ca248b928f54ad49357b0260e4fbea8711e00000000000ffffffff0292812802000000001976a914883cd7bc309577a626bb861eb6d620cfe11833a888ac597b2000000000001600147f4e6c309802c734f94f58b757f714d52a80e60b024830450221009e43e8f9975d1744e7d53bf3eff6cd569a1961f433cf0064bad31e51aa8c3d0502203ce2cf195806ff33a1ad5b47948474159abde4bbce286dfa7ce3b56a7595fdf5012103af6a2c7e48f47afcb5ec47c27819dfca917773f8b4a583d089d1a0f87e53f13700000000", "vin": [{"txinwitness": ["30450221009e43e8f9975d1744e7d53bf3eff6cd569a1961f433cf0064bad31e51aa8c3d0502203ce2cf195806ff33a1ad5b47948474159abde4bbce286dfa7ce3b56a7595fdf501", "03af6a2c7e48f47afcb5ec47c27819dfca917773f8b4a583d089d1a0f87e53f137"], "sequence": 4294967295, "scriptSig": {"hex": "", "asm": ""}, "vout": 0, "txid": "e01187eafbe460027b3549ad548f928b24ca022693513488208fc30ed2857260"}], "txid": "afa2ae2f1adfe0a0459d7c8737417447c3a851f20fc52cfd8846cc93b84cee8c", "blocktime": 1537873891, "version": 1, "confirmations": 11478, "time": 1537873891, "locktime": 0, "vsize": 144, "size": 226}