{"hash": "afa99c02c62c9a3e5d3776bd8a4dcb09e5e75bc76fa538b04ad064aa2815591c", "blockhash": "0000000000000000000dcc0f55137456b1a82d3642486a52398922ac4d620174", "vout": [{"scriptPubKey": {"type": "nulldata", "hex": "6a146f6d6e69000000000000001f000000004812b45d", "asm": "OP_RETURN 6f6d6e69000000000000001f000000004812b45d"}, "value": 0.0, "n": 0}, {"scriptPubKey": {"reqSigs": 1, "hex": "76a914f6e10ce0ba2160cbbe8b963b00435c42b178c30088ac", "addresses": ["1PWNpxetsJN7mxxFjMjYwcdnuA3Ha2Y2Sn"], "asm": "OP_DUP OP_HASH160 f6e10ce0ba2160cbbe8b963b00435c42b178c300 OP_EQUALVERIFY OP_CHECKSIG", "type": "pubkeyhash"}, "value": 5.46e-06, "n": 1}, {"scriptPubKey": {"reqSigs": 1, "hex": "76a914a25dec4d0011064ef106a983c39c7a540699f22088ac", "addresses": ["1FoWyxwPXuj4C6abqwhjDWdz6D4PZgYRjA"], "asm": "OP_DUP OP_HASH160 a25dec4d0011064ef106a983c39c7a540699f220 OP_EQUALVERIFY OP_CHECKSIG", "type": "pubkeyhash"}, "value": 0.01990415, "n": 2}], "hex": "01000000011fe093bb99328ce26b56b859c096a1c4b5890dd4dd8332e676d51ec1d2d66b32020000006a47304402207d7b1e309534738a26378f949f9f68f31d924a1607d5e24d6e2bc9d027b7e2f2022059c993d01f501ae9dc658a47be7af7090fea1c31e20308ddee8841e0e6d77a7a012103da5bac7b36d5aa38f531c6b9601e21bb598a4b6716ebed38b009a55dabde9440feffffff030000000000000000166a146f6d6e69000000000000001f000000004812b45d22020000000000001976a914f6e10ce0ba2160cbbe8b963b00435c42b178c30088ac0f5f1e00000000001976a914a25dec4d0011064ef106a983c39c7a540699f22088accc480800", "vin": [{"sequence": 4294967294, "scriptSig": {"hex": "47304402207d7b1e309534738a26378f949f9f68f31d924a1607d5e24d6e2bc9d027b7e2f2022059c993d01f501ae9dc658a47be7af7090fea1c31e20308ddee8841e0e6d77a7a012103da5bac7b36d5aa38f531c6b9601e21bb598a4b6716ebed38b009a55dabde9440", "asm": "304402207d7b1e309534738a26378f949f9f68f31d924a1607d5e24d6e2bc9d027b7e2f2022059c993d01f501ae9dc658a47be7af7090fea1c31e20308ddee8841e0e6d77a7a[ALL] 03da5bac7b36d5aa38f531c6b9601e21bb598a4b6716ebed38b009a55dabde9440"}, "vout": 2, "txid": "326bd6d2c11ed576e63283ddd40d89b5c4a196c059b8566be28c3299bb93e01f"}], "txid": "afa99c02c62c9a3e5d3776bd8a4dcb09e5e75bc76fa538b04ad064aa2815591c", "blocktime": 1537870268, "version": 1, "confirmations": 11516, "time": 1537870268, "locktime": 542924, "vsize": 256, "size": 256}