{"hash": "68ef34d9e3f471c855bab5c46ab87ffa4c3ea656c311aebf1f5d2be407026594", "blockhash": "0000000000000000001cda96e906b7601b7a6fb1a3b62bca570a9e5d8f4b3de1", "vout": [{"scriptPubKey": {"reqSigs": 1, "hex": "a9144409d556dea7ad8bef900251ecd9b4c2ceff414a87", "addresses": ["37tmepctNvW413ytbi3dL6sDZDiX9MPvr8"], "asm": "OP_HASH160 4409d556dea7ad8bef900251ecd9b4c2ceff414a OP_EQUAL", "type": "scripthash"}, "value": 0.00997723, "n": 0}, {"scriptPubKey": {"reqSigs": 1, "hex": "76a914b367b186e8c1bed2e1de49ea049ae3054e83d22788ac", "addresses": ["1HMcB5yvdMpRxujYBvrfd9he3ob59uQDoJ"], "asm": "OP_DUP OP_HASH160 b367b186e8c1bed2e1de49ea049ae3054e83d227 OP_EQUALVERIFY OP_CHECKSIG", "type": "pubkeyhash"}, "value": 0.00935173, "n": 1}], "hex": "020000000001072750163223eb145c8cb21a62de0f87d44c5f9c3def1f36a0f30c6178c2bca1fa61030000171600148752e504b8ff2dd22cbf44a477b08668fee5fb6bfeffffff2d1ccd3b39fb6d5a1b320362fc413274d45d243b7c050ebbd9cd1ebc291f813b06000000171600148af0fcdb5e54aa7220e7ee0ca6cc8bdb4cf5831ffeffffff4cfa8364d3c3ab5fb5fa4b19d8d2afe472d9c79ffd21f43b3025f2fd37c8bcc2000000006b483045022100df77aad2d8a08caad95a7d4c424a633c9e87430911e6400353d7329f13c39fed0220178784faaf720f19dfe0c9041c80ca610fbdcee9648a6bbc87e2233007adc16e012103441f8af349bfef8289ed95cd398a9c5e491acdd87af3b1ff7461c9aff39d2ad4feffffff5468f9906842a96ee611d4527de92f6bf08953316592be63ea7995a3bec9bc620400000017160014cf8d85a65207de79878e421f85ff185273238180feffffff89882a119e31086c3136a53473d74c048b0644eaec47aabdbf8db31160c8d18400000000171600147e1cb5242eafa3994bae7529a02f1a39b4f4478bfeffffffb7ad33cc3ba552348136d3154dd19d51a8c7bd3390da380e3cafd1fa797b73852f03000017160014e8f80d3d53bc76e31326548b7cebbbd19f355997feffffffe1599924edea0942e8586ddde20f462512c7473de0744d6ae231b9f9f3512e790800000017160014143c54ef6400a12d49d34ec5bc9e6a3f317320b2feffffff025b390f000000000017a9144409d556dea7ad8bef900251ecd9b4c2ceff414a8705450e00000000001976a914b367b186e8c1bed2e1de49ea049ae3054e83d22788ac02473044022075052fb3e0a552f54e67f9184177e838b4f87bb1b4009a4bcc46079d7da66d110220262012502effc392fd895960b44ab59e7ba5bd44732ff83cd3ab91f594900d4b01210230d9bfd694e8dbbee66dfa2a5e718762666968b23ef84a0676c7070d7db2a22a02473044022017d1fd7b9a0c953dc7faa0f7c505d5608389e29ecb4478f476c0df116cf0a51302206eafc999fc506327f1f472c882c37a7fe532e1d52b42b10e8d77b8d06694c6ec01210369c728f5135cea8813275b232c6ee5a1b7bf767e93e46971f21dc59984c81375000247304402202c33907a004643ca79c6f411cc90fd68fc978dc6bb9d3099725c17d3ac63ace9022047b4ca1784bc22ac3ecd6364ccb62d9d48db632baf2e660692d0385ca9d67adf012102d4cc1db265b6adebf7000a1b8721cbbf516ed28b2f3e97d980640bec07f230700247304402201fef380a1c476a90c4299a57456b57b2c66a22536ecebdf5842e68c6b82233c002203fc85266088426bebd0b6676c20d6b005821df7d2a1f727f119af20ac168ba110121038300433f05b733d327f5b649e9734fa683efb7fa0bae3d1083492b627b376843024730440220261600b1c1eff655ab8bcef87b90f0fb075104160784b637ed7f292565dd93f002203962fd73ebc164a9f75e0c2c57e4e717e99d5ef61b9d71631bc5679473c743c401210337dc128e54476d1ec261b6f1e33c605b191130ba1bb59c7d00a90bb3b3ec8b9702483045022100d27b77470e5bfef1a8f0cb515c3411f52242cd80010c5b03ef2145d090169dc20220471d165df1e07c9b7cb02c6e814bab939cd3037b32f67695295962db96949397012103bb7994ea34f8e25ffc2a38a39f065e57eb619ea27cf884c0bf674dea0b3ff13d13490800", "vin": [{"txinwitness": ["3044022075052fb3e0a552f54e67f9184177e838b4f87bb1b4009a4bcc46079d7da66d110220262012502effc392fd895960b44ab59e7ba5bd44732ff83cd3ab91f594900d4b01", "0230d9bfd694e8dbbee66dfa2a5e718762666968b23ef84a0676c7070d7db2a22a"], "sequence": 4294967294, "scriptSig": {"hex": "1600148752e504b8ff2dd22cbf44a477b08668fee5fb6b", "asm": "00148752e504b8ff2dd22cbf44a477b08668fee5fb6b"}, "vout": 865, "txid": "faa1bcc278610cf3a0361fef3d9c5f4cd4870fde621ab28c5c14eb2332165027"}, {"txinwitness": ["3044022017d1fd7b9a0c953dc7faa0f7c505d5608389e29ecb4478f476c0df116cf0a51302206eafc999fc506327f1f472c882c37a7fe532e1d52b42b10e8d77b8d06694c6ec01", "0369c728f5135cea8813275b232c6ee5a1b7bf767e93e46971f21dc59984c81375"], "sequence": 4294967294, "scriptSig": {"hex": "1600148af0fcdb5e54aa7220e7ee0ca6cc8bdb4cf5831f", "asm": "00148af0fcdb5e54aa7220e7ee0ca6cc8bdb4cf5831f"}, "vout": 6, "txid": "3b811f29bc1ecdd9bb0e057c3b245dd4743241fc6203321b5a6dfb393bcd1c2d"}, {"sequence": 4294967294, "scriptSig": {"hex": "483045022100df77aad2d8a08caad95a7d4c424a633c9e87430911e6400353d7329f13c39fed0220178784faaf720f19dfe0c9041c80ca610fbdcee9648a6bbc87e2233007adc16e012103441f8af349bfef8289ed95cd398a9c5e491acdd87af3b1ff7461c9aff39d2ad4", "asm": "3045022100df77aad2d8a08caad95a7d4c424a633c9e87430911e6400353d7329f13c39fed0220178784faaf720f19dfe0c9041c80ca610fbdcee9648a6bbc87e2233007adc16e[ALL] 03441f8af349bfef8289ed95cd398a9c5e491acdd87af3b1ff7461c9aff39d2ad4"}, "vout": 0, "txid": "c2bcc837fdf225303bf421fd9fc7d972e4afd2d8194bfab55fabc3d36483fa4c"}, {"txinwitness": ["304402202c33907a004643ca79c6f411cc90fd68fc978dc6bb9d3099725c17d3ac63ace9022047b4ca1784bc22ac3ecd6364ccb62d9d48db632baf2e660692d0385ca9d67adf01", "02d4cc1db265b6adebf7000a1b8721cbbf516ed28b2f3e97d980640bec07f23070"], "sequence": 4294967294, "scriptSig": {"hex": "160014cf8d85a65207de79878e421f85ff185273238180", "asm": "0014cf8d85a65207de79878e421f85ff185273238180"}, "vout": 4, "txid": "62bcc9bea39579ea63be9265315389f06b2fe97d52d411e66ea9426890f96854"}, {"txinwitness": ["304402201fef380a1c476a90c4299a57456b57b2c66a22536ecebdf5842e68c6b82233c002203fc85266088426bebd0b6676c20d6b005821df7d2a1f727f119af20ac168ba1101", "038300433f05b733d327f5b649e9734fa683efb7fa0bae3d1083492b627b376843"], "sequence": 4294967294, "scriptSig": {"hex": "1600147e1cb5242eafa3994bae7529a02f1a39b4f4478b", "asm": "00147e1cb5242eafa3994bae7529a02f1a39b4f4478b"}, "vout": 0, "txid": "84d1c86011b38dbfbdaa47ecea44068b044cd77334a536316c08319e112a8889"}, {"txinwitness": ["30440220261600b1c1eff655ab8bcef87b90f0fb075104160784b637ed7f292565dd93f002203962fd73ebc164a9f75e0c2c57e4e717e99d5ef61b9d71631bc5679473c743c401", "0337dc128e54476d1ec261b6f1e33c605b191130ba1bb59c7d00a90bb3b3ec8b97"], "sequence": 4294967294, "scriptSig": {"hex": "160014e8f80d3d53bc76e31326548b7cebbbd19f355997", "asm": "0014e8f80d3d53bc76e31326548b7cebbbd19f355997"}, "vout": 815, "txid": "85737b79fad1af3c0e38da9033bdc7a8519dd14d15d336813452a53bcc33adb7"}, {"txinwitness": ["3045022100d27b77470e5bfef1a8f0cb515c3411f52242cd80010c5b03ef2145d090169dc20220471d165df1e07c9b7cb02c6e814bab939cd3037b32f67695295962db9694939701", "03bb7994ea34f8e25ffc2a38a39f065e57eb619ea27cf884c0bf674dea0b3ff13d"], "sequence": 4294967294, "scriptSig": {"hex": "160014143c54ef6400a12d49d34ec5bc9e6a3f317320b2", "asm": "0014143c54ef6400a12d49d34ec5bc9e6a3f317320b2"}, "vout": 8, "txid": "792e51f3f9b931e26a4d74e03d47c71225460fe2dd6d58e84209eaed249959e1"}], "txid": "afb70ab63b14dcbc19af1649be6d3ed2eee6d91248de678dfe0274ee271122aa", "blocktime": 1537873282, "version": 2, "confirmations": 11484, "time": 1537873282, "locktime": 542995, "vsize": 770, "size": 1254}