{"hash": "afc1a1b606dee2b5ac2b45bc5833f512a5f666956bbbd6aecddf4da2773428bf", "blockhash": "0000000000000000000dcc0f55137456b1a82d3642486a52398922ac4d620174", "vout": [{"scriptPubKey": {"type": "nulldata", "hex": "6a4c50000077700001f1e0f3fd498128f625bc77ac86aeaeacb577c031fc3a016b46dc7dc7d096a94c0b9d4a75be2925b3093b19e1bfd95baa08d806139b5fe17228384bbf23acfcfaac8058b692fe6808c31d", "asm": "OP_RETURN 000077700001f1e0f3fd498128f625bc77ac86aeaeacb577c031fc3a016b46dc7dc7d096a94c0b9d4a75be2925b3093b19e1bfd95baa08d806139b5fe17228384bbf23acfcfaac8058b692fe6808c31d"}, "value": 0.0, "n": 0}, {"scriptPubKey": {"reqSigs": 1, "hex": "76a9140806852b87e2790d506c84640b0bee7d11eef9fd88ac", "addresses": ["1jSDZpEzFdmJY9sRfL2Jd1yAQVzMAZsrx"], "asm": "OP_DUP OP_HASH160 0806852b87e2790d506c84640b0bee7d11eef9fd OP_EQUALVERIFY OP_CHECKSIG", "type": "pubkeyhash"}, "value": 0.00036169, "n": 1}], "hex": "01000000013a47889091ae60e48c9dcdea1f9df53e7700bc8505517ac245c0fe9f20cdf4c5000000006b4830450221009cea1f1a9508fa3aec31ba0721ee6eba6205158cb50ce8334e0106eec9d6b5f702205742f19c2f89a57d1bfe5e72038a9548c0b82c2bc9e8ffcfe481f1c2c681ea7b012103cb3cf392073e134b6e50737e24605e0998a1069d171fc3fefbb80cc7ffe38101ffffffff020000000000000000536a4c50000077700001f1e0f3fd498128f625bc77ac86aeaeacb577c031fc3a016b46dc7dc7d096a94c0b9d4a75be2925b3093b19e1bfd95baa08d806139b5fe17228384bbf23acfcfaac8058b692fe6808c31d498d0000000000001976a9140806852b87e2790d506c84640b0bee7d11eef9fd88ac00000000", "vin": [{"sequence": 4294967295, "scriptSig": {"hex": "4830450221009cea1f1a9508fa3aec31ba0721ee6eba6205158cb50ce8334e0106eec9d6b5f702205742f19c2f89a57d1bfe5e72038a9548c0b82c2bc9e8ffcfe481f1c2c681ea7b012103cb3cf392073e134b6e50737e24605e0998a1069d171fc3fefbb80cc7ffe38101", "asm": "30450221009cea1f1a9508fa3aec31ba0721ee6eba6205158cb50ce8334e0106eec9d6b5f702205742f19c2f89a57d1bfe5e72038a9548c0b82c2bc9e8ffcfe481f1c2c681ea7b[ALL] 03cb3cf392073e134b6e50737e24605e0998a1069d171fc3fefbb80cc7ffe38101"}, "vout": 0, "txid": "c5f4cd209ffec045c27a510585bc00773ef59d1feacd9d8ce460ae919088473a"}], "txid": "afc1a1b606dee2b5ac2b45bc5833f512a5f666956bbbd6aecddf4da2773428bf", "blocktime": 1537870268, "version": 1, "confirmations": 11518, "time": 1537870268, "locktime": 0, "vsize": 284, "size": 284}