{"hash": "afc5ca8b4a6744f111d03ad0289d19bdb3255b334416e262d638b0b9a0aff822", "blockhash": "00000000000000000004ffacab907a6b429b9a5745fa0b75af4234bf69dd7176", "vout": [{"scriptPubKey": {"reqSigs": 1, "hex": "76a9149c23ea8de20b95c0ae49668598707d7f2faf322388ac", "addresses": ["1FEbSRsQsAbUXyMvBBMDaFajTWJXFFRDPn"], "asm": "OP_DUP OP_HASH160 9c23ea8de20b95c0ae49668598707d7f2faf3223 OP_EQUALVERIFY OP_CHECKSIG", "type": "pubkeyhash"}, "value": 0.00285631, "n": 0}, {"scriptPubKey": {"reqSigs": 1, "hex": "76a914f03d75227b6528cc82a5e605fe0d8646b451877888ac", "addresses": ["1NuGoBkBTmBNV2ABHfTUY4WyeR23MbR3NL"], "asm": "OP_DUP OP_HASH160 f03d75227b6528cc82a5e605fe0d8646b4518778 OP_EQUALVERIFY OP_CHECKSIG", "type": "pubkeyhash"}, "value": 0.00313846, "n": 1}], "hex": "0100000001a3060508d0bfb3afb28e2e0016013f2474ce45deeefc4187d7b058d656bdd700000000006a47304402202f16639bea43956f1e3a8c5664f018337c90ba99cac3b984e6e15f814ce23a04022079d665f8341e6e2518af5ac6199be93ab2dd35f03687a7cae40f6c2655b3fc75012103837158814c78a438dbf39be93d6f1d0c1c3c7b81f4dbb4dd4d259d9ccf0bcad3ffffffff02bf5b0400000000001976a9149c23ea8de20b95c0ae49668598707d7f2faf322388acf6c90400000000001976a914f03d75227b6528cc82a5e605fe0d8646b451877888ac00000000", "vin": [{"sequence": 4294967295, "scriptSig": {"hex": "47304402202f16639bea43956f1e3a8c5664f018337c90ba99cac3b984e6e15f814ce23a04022079d665f8341e6e2518af5ac6199be93ab2dd35f03687a7cae40f6c2655b3fc75012103837158814c78a438dbf39be93d6f1d0c1c3c7b81f4dbb4dd4d259d9ccf0bcad3", "asm": "304402202f16639bea43956f1e3a8c5664f018337c90ba99cac3b984e6e15f814ce23a04022079d665f8341e6e2518af5ac6199be93ab2dd35f03687a7cae40f6c2655b3fc75[ALL] 03837158814c78a438dbf39be93d6f1d0c1c3c7b81f4dbb4dd4d259d9ccf0bcad3"}, "vout": 0, "txid": "00d7bd56d658b0d78741fceede45ce74243f0116002e8eb2afb3bfd0080506a3"}], "txid": "afc5ca8b4a6744f111d03ad0289d19bdb3255b334416e262d638b0b9a0aff822", "blocktime": 1537875543, "version": 1, "confirmations": 11464, "time": 1537875543, "locktime": 0, "vsize": 225, "size": 225}