{"hash": "10a46e2928c48ef35d9e46c4f7c0f04c854b83a98b78647fac0b636f4ccf2874", "blockhash": "0000000000000000000e13cef7c366c0283d82e591d1acd082e914b08063cdf1", "vout": [{"scriptPubKey": {"reqSigs": 1, "hex": "a914b6221a9f75202cd9fda6ca5d670ebceaab4b713387", "addresses": ["3JJ3m3WRySwNvX8GragMXgGdA3epE625PA"], "asm": "OP_HASH160 b6221a9f75202cd9fda6ca5d670ebceaab4b7133 OP_EQUAL", "type": "scripthash"}, "value": 0.11254023, "n": 0}, {"scriptPubKey": {"reqSigs": 1, "hex": "76a9146790273a94ebe62860a3b256cef965f015c2e5a788ac", "addresses": ["1ASbHhfREYoU1sxpvcfPZEKP6JezKkhoGk"], "asm": "OP_DUP OP_HASH160 6790273a94ebe62860a3b256cef965f015c2e5a7 OP_EQUALVERIFY OP_CHECKSIG", "type": "pubkeyhash"}, "value": 0.680335, "n": 1}], "hex": "0100000000010581dc40fb4f4beaf3494d2fea447a848ba92e662da62e48598d4eafb7f251574f0000000023220020663ec8e072df7ba8f002451a48c8c8ef2af1dcdf990d37c19559730ee5a6071affffffff97d273c6e70d9bc7cdf9778aeeff110f4069c5323db957228da0b27541478b7d01000000232200205fcad7b6b2e87057addbb18c547629754437e1b7a204a46f8c99d3438baa2d4effffffff731479689372008de228411d60a7e15b7462f7e8a74cd9359122e76a5e17003101000000232200202781be1d6f824f3a3d4201265b5c535ffadeb61c5c7d458df5a3be1367bf1b19ffffffff971c6a853ad210e796d616717c05a50e886801ec1d50c8f4de2556bcef65fc170100000023220020f57b5f3c92d918181984af674fd64dd484c4435c1ec6ce85ab8c6c6316d618bdfffffffffa8c367aeb7051695b046ef180cad433b728539631617113dc2b0a455250e4e802000000232200205b66eb2de54315878754439ee7e62441dc77e3bf22888ad4d478948e1bcd5028ffffffff0207b9ab000000000017a914b6221a9f75202cd9fda6ca5d670ebceaab4b713387dc1b0e04000000001976a9146790273a94ebe62860a3b256cef965f015c2e5a788ac040047304402206388a5676ffcadd525a01a5a8bb5f893b7a85f151a7a02f936f128b79cf15b460220546445e9aee62411b196c35b17a87d82346f42e502ba6dff24fafe024bec965101483045022100a6b4500cfd9af6c6ab399866e7d86bd4d893041d1b3e4759c91ed75134a4dd3802207c624e9b7a8124b02c38b850d79bd034d62a6e32601104818d1c7523ba198db501695221032b19f7c1f1a5a9b904bd9f1644a0ae113cf9a86512d027a026bd41cc717dfbb32103bf7c113e46b36255e5e1f890fa1cb51a5283e8206378cca4ef0c7de482d9f87421031c286449ce04c2e35421a841af2467f8dbc70ef52aada71c8f4a69097d5bea6e53ae0400483045022100ddad9be5195290de75a26b2cfbefaa5750142965fa7ae909fb0b7833759c633002207ca56a88c335a74bf8984ac2ab60ffc45c2435984967691dae74f9e1e6607fb601483045022100976966bd74a10561941f4d145e6f2f4cd99f250009e6d15325802675865bbcb902205bdc83aecf0821df46a67521276ff91077116083c5677276568f64990acdea6b016952210389a0a850d12e73d4d716145f9a02b8dc20e34651fa59a9fc69c2a9cef3cf49b22102ee13049cfa5b3e35bed21ef958c985448681d4bca668bb2d2f34483401afc4c3210264c351b99102ddd525beca4b55f0662ba9428e33f7f71f22637f5e9c3576855753ae0400483045022100bb535e27c672d499cd255403dd91cf8b8bedf06359d5f5a3a3d81793da953e4402203cfadaff98c21d12cca71f040823589e135d6e55991cb30df1323f8a4f81bf72014730440220607f63f5ba35b7a6186a171a5b0413d8344724312d4c0d27285dab74ce7d91980220297389d94f1b0a181622bee19c1aad8d24d7025f51338aa645ab5af0446c1db7016952210290bca0e4db92a1c2dd4b587b8abda64139d039692ba11dcbdc105ca360d17ae92102fdfb4f814782cf819a552e141c07117a75b84c531e351d748cf5821ba3e2cf632103e0e62808fdcff3958ba35a9b0ade50698ceef5ca2d6a4374767a86f056e69b9053ae040047304402202919828cfab436196205f5fd04f9c8630df6707704b357937377f1641d09901a0220109eeb548c0a7f5d37a345563c2ac927d450d920609424eb5b55d4e84619686801473044022055977978e15f4f7180196eba78a067baa45a6142b7390921d8b47cbf9f9fc15902201e28a4410f7f2e6ea59979d2c40da062d4eb3b953d8eb18cd108118dd3a9bc1e01695221023bf2170e95707a627f49702c576244a5522038c9b70b71006e49a8f8b449646b210330c1c548d18f3ae03996bd26f895504cd80d5e2962a228b659252e03993c197b210218864f0f4439ae3c279e41240755d2c3c8601464265128858f08d7c6d7060bb853ae0400483045022100bb4f6374c22c5c2dd69ce64f17e639cc7b8ec2640f5d090155499c1e721376730220175effadbee9fd234200613770c8cf475866abffe69adbb5aa05b7b880bc803601483045022100f41f39b1d76747c814a3104e9c4791da9e43062ff8a7e636c092ee1c16db845602204ae60b85b11e2607fedc3291f375c7d67a4d8ea2e847d97d1377b8ce2a871ac20169522102812cea7630ab4a2565c5a6207b4bb0ac8723a68cc772799aa05025643bd7e988210356f0b33589796f8cb4427aa415a6daa6cd08b80ff8bdecab29dc76d5432f592821026cbddcec07f93c3f921fae7c568e8c2b6aed8f581376e9cfa609c9186487cd0153ae00000000", "vin": [{"txinwitness": ["", "304402206388a5676ffcadd525a01a5a8bb5f893b7a85f151a7a02f936f128b79cf15b460220546445e9aee62411b196c35b17a87d82346f42e502ba6dff24fafe024bec965101", "3045022100a6b4500cfd9af6c6ab399866e7d86bd4d893041d1b3e4759c91ed75134a4dd3802207c624e9b7a8124b02c38b850d79bd034d62a6e32601104818d1c7523ba198db501", "5221032b19f7c1f1a5a9b904bd9f1644a0ae113cf9a86512d027a026bd41cc717dfbb32103bf7c113e46b36255e5e1f890fa1cb51a5283e8206378cca4ef0c7de482d9f87421031c286449ce04c2e35421a841af2467f8dbc70ef52aada71c8f4a69097d5bea6e53ae"], "sequence": 4294967295, "scriptSig": {"hex": "220020663ec8e072df7ba8f002451a48c8c8ef2af1dcdf990d37c19559730ee5a6071a", "asm": "0020663ec8e072df7ba8f002451a48c8c8ef2af1dcdf990d37c19559730ee5a6071a"}, "vout": 0, "txid": "4f5751f2b7af4e8d59482ea62d662ea98b847a44ea2f4d49f3ea4b4ffb40dc81"}, {"txinwitness": ["", "3045022100ddad9be5195290de75a26b2cfbefaa5750142965fa7ae909fb0b7833759c633002207ca56a88c335a74bf8984ac2ab60ffc45c2435984967691dae74f9e1e6607fb601", "3045022100976966bd74a10561941f4d145e6f2f4cd99f250009e6d15325802675865bbcb902205bdc83aecf0821df46a67521276ff91077116083c5677276568f64990acdea6b01", "52210389a0a850d12e73d4d716145f9a02b8dc20e34651fa59a9fc69c2a9cef3cf49b22102ee13049cfa5b3e35bed21ef958c985448681d4bca668bb2d2f34483401afc4c3210264c351b99102ddd525beca4b55f0662ba9428e33f7f71f22637f5e9c3576855753ae"], "sequence": 4294967295, "scriptSig": {"hex": "2200205fcad7b6b2e87057addbb18c547629754437e1b7a204a46f8c99d3438baa2d4e", "asm": "00205fcad7b6b2e87057addbb18c547629754437e1b7a204a46f8c99d3438baa2d4e"}, "vout": 1, "txid": "7d8b474175b2a08d2257b93d32c569400f11ffee8a77f9cdc79b0de7c673d297"}, {"txinwitness": ["", "3045022100bb535e27c672d499cd255403dd91cf8b8bedf06359d5f5a3a3d81793da953e4402203cfadaff98c21d12cca71f040823589e135d6e55991cb30df1323f8a4f81bf7201", "30440220607f63f5ba35b7a6186a171a5b0413d8344724312d4c0d27285dab74ce7d91980220297389d94f1b0a181622bee19c1aad8d24d7025f51338aa645ab5af0446c1db701", "52210290bca0e4db92a1c2dd4b587b8abda64139d039692ba11dcbdc105ca360d17ae92102fdfb4f814782cf819a552e141c07117a75b84c531e351d748cf5821ba3e2cf632103e0e62808fdcff3958ba35a9b0ade50698ceef5ca2d6a4374767a86f056e69b9053ae"], "sequence": 4294967295, "scriptSig": {"hex": "2200202781be1d6f824f3a3d4201265b5c535ffadeb61c5c7d458df5a3be1367bf1b19", "asm": "00202781be1d6f824f3a3d4201265b5c535ffadeb61c5c7d458df5a3be1367bf1b19"}, "vout": 1, "txid": "3100175e6ae7229135d94ca7e8f762745be1a7601d4128e28d00729368791473"}, {"txinwitness": ["", "304402202919828cfab436196205f5fd04f9c8630df6707704b357937377f1641d09901a0220109eeb548c0a7f5d37a345563c2ac927d450d920609424eb5b55d4e84619686801", "3044022055977978e15f4f7180196eba78a067baa45a6142b7390921d8b47cbf9f9fc15902201e28a4410f7f2e6ea59979d2c40da062d4eb3b953d8eb18cd108118dd3a9bc1e01", "5221023bf2170e95707a627f49702c576244a5522038c9b70b71006e49a8f8b449646b210330c1c548d18f3ae03996bd26f895504cd80d5e2962a228b659252e03993c197b210218864f0f4439ae3c279e41240755d2c3c8601464265128858f08d7c6d7060bb853ae"], "sequence": 4294967295, "scriptSig": {"hex": "220020f57b5f3c92d918181984af674fd64dd484c4435c1ec6ce85ab8c6c6316d618bd", "asm": "0020f57b5f3c92d918181984af674fd64dd484c4435c1ec6ce85ab8c6c6316d618bd"}, "vout": 1, "txid": "17fc65efbc5625def4c8501dec0168880ea5057c7116d696e710d23a856a1c97"}, {"txinwitness": ["", "3045022100bb4f6374c22c5c2dd69ce64f17e639cc7b8ec2640f5d090155499c1e721376730220175effadbee9fd234200613770c8cf475866abffe69adbb5aa05b7b880bc803601", "3045022100f41f39b1d76747c814a3104e9c4791da9e43062ff8a7e636c092ee1c16db845602204ae60b85b11e2607fedc3291f375c7d67a4d8ea2e847d97d1377b8ce2a871ac201", "522102812cea7630ab4a2565c5a6207b4bb0ac8723a68cc772799aa05025643bd7e988210356f0b33589796f8cb4427aa415a6daa6cd08b80ff8bdecab29dc76d5432f592821026cbddcec07f93c3f921fae7c568e8c2b6aed8f581376e9cfa609c9186487cd0153ae"], "sequence": 4294967295, "scriptSig": {"hex": "2200205b66eb2de54315878754439ee7e62441dc77e3bf22888ad4d478948e1bcd5028", "asm": "00205b66eb2de54315878754439ee7e62441dc77e3bf22888ad4d478948e1bcd5028"}, "vout": 2, "txid": "e8e45052450a2bdc13716131965328b733d4ca80f16e045b695170eb7a368cfa"}], "txid": "afcd0d4bd0d27d9c090699bb5b1349783052b63201d9670c64f5cde94bf62c3f", "blocktime": 1537871767, "version": 1, "confirmations": 11495, "time": 1537871767, "locktime": 0, "vsize": 773, "size": 1724}