{"hash": "afce501310a943cb910b0d71f3906d919867040f18e9d867798b52c6a8814c23", "blockhash": "00000000000000000018f53835495a110e01622372bf6ae95dc86f2b0ab887b0", "vout": [{"scriptPubKey": {"reqSigs": 1, "hex": "76a9146affa38efd03883e1c8b8ad6fd17af3b2f974a8a88ac", "addresses": ["1AkksSJUB91WVQdgr9vkYhn1Mev9SJxteD"], "asm": "OP_DUP OP_HASH160 6affa38efd03883e1c8b8ad6fd17af3b2f974a8a OP_EQUALVERIFY OP_CHECKSIG", "type": "pubkeyhash"}, "value": 0.00225626, "n": 0}, {"scriptPubKey": {"reqSigs": 1, "hex": "76a914f25c5439711af2af33f02332f5b898cf0b1d99f888ac", "addresses": ["1P6V8ZAArx8uehV5DZmeW4zHb3joE7pqNF"], "asm": "OP_DUP OP_HASH160 f25c5439711af2af33f02332f5b898cf0b1d99f8 OP_EQUALVERIFY OP_CHECKSIG", "type": "pubkeyhash"}, "value": 0.0076188, "n": 1}], "hex": "01000000034c1aff2211f128cf9089d860fbb4ab02b480ffa62ee53ddd60740545a8809205000000006b483045022100eba0159a5ad11e1f9e5b0a618bc8063b1bd4e15cc77ad4356c62b9205720bd1902206ee6f389140a6ac012b9638fd873df574f1528aedea581f20572c454e85d34f60121031d5ba0fa9b372437d598bf83d03ed08e134c77c6a29f042bffe9db5e5331e237ffffffff4ceb98c772e930c9a06330283a72f01dc8c9194d23bc362588fefd2b6155f65e010000006b48304502210095184de2442c80f3990488279e921439b0d1ef3b9c3af1d87f11561bf6f3bb33022022d5bb71f409f359d85cda880e052f99535cd6bdca65d5353f16b82ff17c4cdd0121030e512b1cb241e9b80c48b144323d22db51ca0a9a32713fce35fdae7aad84cb32ffffffff084badf01327dc76fd8af8470532197603c07ff2e31ee3ba6d6573716cefb0e0010000006a473044022076f991a585657903df343ae38bb0698248f34a796901e5de886dcc2cb7c48c3102201dd183c295508eea1e2328f59c9c176b18a25a7284f423fce55d0ac376b7c3aa012102e4f319ce9219d716845221ff2807741ebecf85196be8ba84f448644f6c1e116affffffff025a710300000000001976a9146affa38efd03883e1c8b8ad6fd17af3b2f974a8a88ac18a00b00000000001976a914f25c5439711af2af33f02332f5b898cf0b1d99f888ac00000000", "vin": [{"sequence": 4294967295, "scriptSig": {"hex": "483045022100eba0159a5ad11e1f9e5b0a618bc8063b1bd4e15cc77ad4356c62b9205720bd1902206ee6f389140a6ac012b9638fd873df574f1528aedea581f20572c454e85d34f60121031d5ba0fa9b372437d598bf83d03ed08e134c77c6a29f042bffe9db5e5331e237", "asm": "3045022100eba0159a5ad11e1f9e5b0a618bc8063b1bd4e15cc77ad4356c62b9205720bd1902206ee6f389140a6ac012b9638fd873df574f1528aedea581f20572c454e85d34f6[ALL] 031d5ba0fa9b372437d598bf83d03ed08e134c77c6a29f042bffe9db5e5331e237"}, "vout": 0, "txid": "059280a845057460dd3de52ea6ff80b402abb4fb60d88990cf28f11122ff1a4c"}, {"sequence": 4294967295, "scriptSig": {"hex": "48304502210095184de2442c80f3990488279e921439b0d1ef3b9c3af1d87f11561bf6f3bb33022022d5bb71f409f359d85cda880e052f99535cd6bdca65d5353f16b82ff17c4cdd0121030e512b1cb241e9b80c48b144323d22db51ca0a9a32713fce35fdae7aad84cb32", "asm": "304502210095184de2442c80f3990488279e921439b0d1ef3b9c3af1d87f11561bf6f3bb33022022d5bb71f409f359d85cda880e052f99535cd6bdca65d5353f16b82ff17c4cdd[ALL] 030e512b1cb241e9b80c48b144323d22db51ca0a9a32713fce35fdae7aad84cb32"}, "vout": 1, "txid": "5ef655612bfdfe882536bc234d19c9c81df0723a283063a0c930e972c798eb4c"}, {"sequence": 4294967295, "scriptSig": {"hex": "473044022076f991a585657903df343ae38bb0698248f34a796901e5de886dcc2cb7c48c3102201dd183c295508eea1e2328f59c9c176b18a25a7284f423fce55d0ac376b7c3aa012102e4f319ce9219d716845221ff2807741ebecf85196be8ba84f448644f6c1e116a", "asm": "3044022076f991a585657903df343ae38bb0698248f34a796901e5de886dcc2cb7c48c3102201dd183c295508eea1e2328f59c9c176b18a25a7284f423fce55d0ac376b7c3aa[ALL] 02e4f319ce9219d716845221ff2807741ebecf85196be8ba84f448644f6c1e116a"}, "vout": 1, "txid": "e0b0ef6c7173656dbae31ee3f27fc0037619320547f88afd76dc2713f0ad4b08"}], "txid": "afce501310a943cb910b0d71f3906d919867040f18e9d867798b52c6a8814c23", "blocktime": 1537870928, "version": 1, "confirmations": 11514, "time": 1537870928, "locktime": 0, "vsize": 521, "size": 521}