{"hash": "afd5acb3340eac59cfbf6189ba4b56c7340ed137d7e526dfd30bbe1070d301f1", "blockhash": "000000000000000000022b45ed06c6f4ccd3cf7fb5ba4856ebd2e58215665228", "vout": [{"scriptPubKey": {"reqSigs": 1, "hex": "76a9148e201a13926236dcdc43c87f6181022a8fcab3c788ac", "addresses": ["1DxVQiYkUtThrxhtHQtaCsBY1ygGUvLffH"], "asm": "OP_DUP OP_HASH160 8e201a13926236dcdc43c87f6181022a8fcab3c7 OP_EQUALVERIFY OP_CHECKSIG", "type": "pubkeyhash"}, "value": 0.00549, "n": 0}], "hex": "01000000029e302a22e1937e039a28206f0d32b0a63df4d75dcf282600abeef076b7d2b4d3000000006a47304402207841b604316468e8caf39aa8ca7f1efde24488a95ebee9371a60e3b2e508f81e0220474af83dbc90bccc34797e107ff3d1601ac3345ea7e0d13609f5f281ce30459a012103d0ec41d07e7bd1d556de5bb7930ffdc08ac180567b972e3653ed403478498232ffffffffd93ccf3a4198e6267706bb1bbe8337fa2148ed3895679019dc0f0ea37fc217ec000000006b483045022100904a2d002fc78ffcaa1dfd504b07db194fbf6e10cdd4005aaa197b1ddff06c2f02200eacb5459edb27d1eea0b995b6b02e2b78968ed7dd78b2f93ea9ef60f922f58e0121036a276e472e3dd4451963ff708239677972672c1aa44af9fa68b3894090eb1449ffffffff0188600800000000001976a9148e201a13926236dcdc43c87f6181022a8fcab3c788ac00000000", "vin": [{"sequence": 4294967295, "scriptSig": {"hex": "47304402207841b604316468e8caf39aa8ca7f1efde24488a95ebee9371a60e3b2e508f81e0220474af83dbc90bccc34797e107ff3d1601ac3345ea7e0d13609f5f281ce30459a012103d0ec41d07e7bd1d556de5bb7930ffdc08ac180567b972e3653ed403478498232", "asm": "304402207841b604316468e8caf39aa8ca7f1efde24488a95ebee9371a60e3b2e508f81e0220474af83dbc90bccc34797e107ff3d1601ac3345ea7e0d13609f5f281ce30459a[ALL] 03d0ec41d07e7bd1d556de5bb7930ffdc08ac180567b972e3653ed403478498232"}, "vout": 0, "txid": "d3b4d2b776f0eeab002628cf5dd7f43da6b0320d6f20289a037e93e1222a309e"}, {"sequence": 4294967295, "scriptSig": {"hex": "483045022100904a2d002fc78ffcaa1dfd504b07db194fbf6e10cdd4005aaa197b1ddff06c2f02200eacb5459edb27d1eea0b995b6b02e2b78968ed7dd78b2f93ea9ef60f922f58e0121036a276e472e3dd4451963ff708239677972672c1aa44af9fa68b3894090eb1449", "asm": "3045022100904a2d002fc78ffcaa1dfd504b07db194fbf6e10cdd4005aaa197b1ddff06c2f02200eacb5459edb27d1eea0b995b6b02e2b78968ed7dd78b2f93ea9ef60f922f58e[ALL] 036a276e472e3dd4451963ff708239677972672c1aa44af9fa68b3894090eb1449"}, "vout": 0, "txid": "ec17c27fa30e0fdc1990679538ed4821fa3783be1bbb067726e698413acf3cd9"}], "txid": "afd5acb3340eac59cfbf6189ba4b56c7340ed137d7e526dfd30bbe1070d301f1", "blocktime": 1537869901, "version": 1, "confirmations": 11523, "time": 1537869901, "locktime": 0, "vsize": 339, "size": 339}