{"hash": "2b0fa90eabfb63929564f22aa7f5c13ccc07f74f7c9505dbeb207f0bbc55ee2e", "blockhash": "00000000000000000018f53835495a110e01622372bf6ae95dc86f2b0ab887b0", "vout": [{"scriptPubKey": {"reqSigs": 1, "hex": "76a9142115f51e0b1954f07f13767937c86af0f8d9c79d88ac", "addresses": ["141wbxtKn8PrWCrUjxFDGoto3fUZX2CuJV"], "asm": "OP_DUP OP_HASH160 2115f51e0b1954f07f13767937c86af0f8d9c79d OP_EQUALVERIFY OP_CHECKSIG", "type": "pubkeyhash"}, "value": 1e-05, "n": 0}, {"scriptPubKey": {"reqSigs": 1, "hex": "00144f4864e1e4ea7ced0f7b344d5d1773fec6b81e3c", "addresses": ["bc1qfayxfc0yaf7w6rmmx3x469mnlmrts83u7lzahf"], "asm": "0 4f4864e1e4ea7ced0f7b344d5d1773fec6b81e3c", "type": "witness_v0_keyhash"}, "value": 0.01233102, "n": 1}], "hex": "02000000000101a94c0add71bc968601aafbe6dc7be85e4039e5392a7d58b3e4b1b26cecadcf230100000000feffffff02e8030000000000001976a9142115f51e0b1954f07f13767937c86af0f8d9c79d88acced01200000000001600144f4864e1e4ea7ced0f7b344d5d1773fec6b81e3c02483045022100d5ac8b42c833e2a773e15bc3d1b599ec9ccd7fbd419776f22f3d95233f3cfe2a022038df07c3df99317e358c9e16ec76736d9372681f23ef53f390e549bf57ea97ff012102de2512da773ed6a2fc731ca7c986b17afea8bd4779e6185234afa0244c5528840e490800", "vin": [{"txinwitness": ["3045022100d5ac8b42c833e2a773e15bc3d1b599ec9ccd7fbd419776f22f3d95233f3cfe2a022038df07c3df99317e358c9e16ec76736d9372681f23ef53f390e549bf57ea97ff01", "02de2512da773ed6a2fc731ca7c986b17afea8bd4779e6185234afa0244c552884"], "sequence": 4294967294, "scriptSig": {"hex": "", "asm": ""}, "vout": 1, "txid": "23cfadec6cb2b1e4b3587d2a39e539405ee87bdce6fbaa018696bc71dd0a4ca9"}], "txid": "afd8a704d0b79395616bf103d9ae10147e9b02805231deab0332ff266122a7ef", "blocktime": 1537870928, "version": 2, "confirmations": 11514, "time": 1537870928, "locktime": 542990, "vsize": 144, "size": 226}