{"hash": "9853b27c4517541c6a533c314c991cb6d621bf2c574335622fc67e9b029c93bb", "blockhash": "00000000000000000017f5eb5941039fbcee6240d03bc1f2f8e35350df66a1d8", "vout": [{"scriptPubKey": {"reqSigs": 1, "hex": "76a914f0c86317d132286a7c4d2a309677b41af249097188ac", "addresses": ["1Nx9EBKKRU3YA5CohsAHS8ABo5mPDoUnwt"], "asm": "OP_DUP OP_HASH160 f0c86317d132286a7c4d2a309677b41af2490971 OP_EQUALVERIFY OP_CHECKSIG", "type": "pubkeyhash"}, "value": 0.0085031, "n": 0}, {"scriptPubKey": {"reqSigs": 1, "hex": "a914a017877b497083ad50ff8b141c2b1ff159da22bd87", "addresses": ["3GHWE5MMLQsuY3DqK312ybLXWtNw9vA7VC"], "asm": "OP_HASH160 a017877b497083ad50ff8b141c2b1ff159da22bd OP_EQUAL", "type": "scripthash"}, "value": 0.85430473, "n": 1}], "hex": "0200000000010190a259acab653476e6d5605fd0a503768aaf35dcab00cbbec97c5041a975f32801000000171600146ad1eddbecbf9cb99d1744a9f63a3a894b1ba468ffffffff0286f90c00000000001976a914f0c86317d132286a7c4d2a309677b41af249097188acc99017050000000017a914a017877b497083ad50ff8b141c2b1ff159da22bd870247304402204f3a4ef4afa057f73ff2d15cd5ab9805df32fde521c9a3569621531e1d815a9a0220447c80e7403290b27d26d35b40736f2e5d71a2fecf89abfe62d800d9723f83910121038a009f8bf37efeab2b792af517cb21a6449a8f9b0647b11a722c7e5997db12eb00000000", "vin": [{"txinwitness": ["304402204f3a4ef4afa057f73ff2d15cd5ab9805df32fde521c9a3569621531e1d815a9a0220447c80e7403290b27d26d35b40736f2e5d71a2fecf89abfe62d800d9723f839101", "038a009f8bf37efeab2b792af517cb21a6449a8f9b0647b11a722c7e5997db12eb"], "sequence": 4294967295, "scriptSig": {"hex": "1600146ad1eddbecbf9cb99d1744a9f63a3a894b1ba468", "asm": "00146ad1eddbecbf9cb99d1744a9f63a3a894b1ba468"}, "vout": 1, "txid": "28f375a941507cc9becb00abdc35af8a7603a5d05f60d5e6763465abac59a290"}], "txid": "afda85786654bedb5e8e4bdae9139310ccc4457afac4f826cdbc2d65f90d45e0", "blocktime": 1537874412, "version": 2, "confirmations": 11467, "time": 1537874412, "locktime": 0, "vsize": 168, "size": 249}