{"hash": "afdbf6cf4ab310b4a897860d4af1bdacfeef5ef35644dcf8f0afd445d3168769", "blockhash": "0000000000000000001f76057863aec43deb6fa401d9628bb513d65a8098bfab", "vout": [{"scriptPubKey": {"reqSigs": 1, "hex": "76a914c2c4c35fb63e2d798ebac00c3fc51a99deab4b2b88ac", "addresses": ["1JkqoZWQoh8B78w1mfC88kXD2XX98fi3gV"], "asm": "OP_DUP OP_HASH160 c2c4c35fb63e2d798ebac00c3fc51a99deab4b2b OP_EQUALVERIFY OP_CHECKSIG", "type": "pubkeyhash"}, "value": 0.07598294, "n": 0}, {"scriptPubKey": {"reqSigs": 1, "hex": "76a9146e78e835298263c63ab96bf57f43a19595694b0f88ac", "addresses": ["1B58AsXq25YwhQKbxZV5PNBfQ2BAi1SqLF"], "asm": "OP_DUP OP_HASH160 6e78e835298263c63ab96bf57f43a19595694b0f OP_EQUALVERIFY OP_CHECKSIG", "type": "pubkeyhash"}, "value": 0.15067478, "n": 1}], "hex": "0100000001188518bbc54f07942894f348214b8948884b66238d15ec719a3b3b4c381021dd010000006b483045022100cd8286d8218f3bdaee8e74561ee1872a3afc0ea98854c8ac1a351047084ea84202207b91e3a94c6954e9afde9bab4736acb8348eb2dd3c431219a3292793f9c07d220121032522148797fe2042082c6cf969d95a7c4d3391e38d150f4407e14f52855b2f62ffffffff02d6f07300000000001976a914c2c4c35fb63e2d798ebac00c3fc51a99deab4b2b88ac56e9e500000000001976a9146e78e835298263c63ab96bf57f43a19595694b0f88ac00000000", "vin": [{"sequence": 4294967295, "scriptSig": {"hex": "483045022100cd8286d8218f3bdaee8e74561ee1872a3afc0ea98854c8ac1a351047084ea84202207b91e3a94c6954e9afde9bab4736acb8348eb2dd3c431219a3292793f9c07d220121032522148797fe2042082c6cf969d95a7c4d3391e38d150f4407e14f52855b2f62", "asm": "3045022100cd8286d8218f3bdaee8e74561ee1872a3afc0ea98854c8ac1a351047084ea84202207b91e3a94c6954e9afde9bab4736acb8348eb2dd3c431219a3292793f9c07d22[ALL] 032522148797fe2042082c6cf969d95a7c4d3391e38d150f4407e14f52855b2f62"}, "vout": 1, "txid": "dd2110384c3b3b9a71ec158d23664b8848894b2148f3942894074fc5bb188518"}], "txid": "afdbf6cf4ab310b4a897860d4af1bdacfeef5ef35644dcf8f0afd445d3168769", "blocktime": 1537873891, "version": 1, "confirmations": 11478, "time": 1537873891, "locktime": 0, "vsize": 226, "size": 226}