{"hash": "65b0e0dca1f7270f22736587d428599faa0b1549d665f22c5c79a6a491a856b5", "blockhash": "00000000000000000017f5eb5941039fbcee6240d03bc1f2f8e35350df66a1d8", "vout": [{"scriptPubKey": {"reqSigs": 1, "hex": "76a914f40cc415de624ec5aa4dccfcba4ece1e59274da588ac", "addresses": ["1PFRAoTWEwHKSpScy6Em5sdD8u5we2aXZj"], "asm": "OP_DUP OP_HASH160 f40cc415de624ec5aa4dccfcba4ece1e59274da5 OP_EQUALVERIFY OP_CHECKSIG", "type": "pubkeyhash"}, "value": 0.02550945, "n": 0}, {"scriptPubKey": {"reqSigs": 1, "hex": "a9146c51ce55f196f61ee8a8d48e9197971123a116ed87", "addresses": ["3BZkuEyyB57iv8sxXz98GrCkzheSgYrMGY"], "asm": "OP_HASH160 6c51ce55f196f61ee8a8d48e9197971123a116ed OP_EQUAL", "type": "scripthash"}, "value": 0.02548245, "n": 1}], "hex": "02000000000101c51935762191588a88443325e4ea8a17e21c437691052a94fd2ae4cbdf772c1107000000171600144296bd98c6753cc98cec6a9314345699170e3b4cffffffff02a1ec2600000000001976a914f40cc415de624ec5aa4dccfcba4ece1e59274da588ac15e226000000000017a9146c51ce55f196f61ee8a8d48e9197971123a116ed870247304402204a0f3e19ac04c80fa9ae17bfd3e404ad3f008c8c752fbb7c77d829e09eefb5a20220696a6aeb78d122ba87d47882e6cb277fc6deedbc77e5f368e7293640ae3acd1a0121029df11ba4659978540472b6d8a128411c64a28bcddf40f8209e28ae1713077ef100000000", "vin": [{"txinwitness": ["304402204a0f3e19ac04c80fa9ae17bfd3e404ad3f008c8c752fbb7c77d829e09eefb5a20220696a6aeb78d122ba87d47882e6cb277fc6deedbc77e5f368e7293640ae3acd1a01", "029df11ba4659978540472b6d8a128411c64a28bcddf40f8209e28ae1713077ef1"], "sequence": 4294967295, "scriptSig": {"hex": "1600144296bd98c6753cc98cec6a9314345699170e3b4c", "asm": "00144296bd98c6753cc98cec6a9314345699170e3b4c"}, "vout": 7, "txid": "112c77dfcbe42afd942a059176431ce2178aeae4253344888a589121763519c5"}], "txid": "afe3b656016b5bb844e1715f98ae5f84540cae205d74cc8bf2a35aa15380eac9", "blocktime": 1537874412, "version": 2, "confirmations": 11467, "time": 1537874412, "locktime": 0, "vsize": 168, "size": 249}