{"hash": "afe74094d53c4e046de536ce9946cf10108bd5ff23e93720dad2e38878221878", "blockhash": "00000000000000000017f5eb5941039fbcee6240d03bc1f2f8e35350df66a1d8", "vout": [{"scriptPubKey": {"reqSigs": 1, "hex": "a9140feb569fd9c2746f8c4af756177262e32795c38f87", "addresses": ["339Bz21kUnnmeiddTZaSCF7R2c5NSRLWKY"], "asm": "OP_HASH160 0feb569fd9c2746f8c4af756177262e32795c38f OP_EQUAL", "type": "scripthash"}, "value": 0.02250897, "n": 0}, {"scriptPubKey": {"reqSigs": 1, "hex": "76a914d594c88acbfd18c353782fe37c02c9c12e2fbfc288ac", "addresses": ["1LUKAWYzZwTUXtGDZTqwgNgoKaP67hjjuT"], "asm": "OP_DUP OP_HASH160 d594c88acbfd18c353782fe37c02c9c12e2fbfc2 OP_EQUALVERIFY OP_CHECKSIG", "type": "pubkeyhash"}, "value": 0.02294085, "n": 1}], "hex": "010000000125dee573f3b0815afb625fc29d10a73a0fc61fae2b3d96f6e7a3b5537b76d3e1010000006a4730440220038689e901f32a965e85464186014195d562153fc99f3cc8a1b9d2c22e3a904402201f17678433ab14effd1fc8dbc652d6ea947ceaf16a48eed06f8f4cbb316719a001210365feadec64ba16bdd7f81db170d9860e90ee25dce4f5da07caab665f8ec8061bffffffff02915822000000000017a9140feb569fd9c2746f8c4af756177262e32795c38f8745012300000000001976a914d594c88acbfd18c353782fe37c02c9c12e2fbfc288ac00000000", "vin": [{"sequence": 4294967295, "scriptSig": {"hex": "4730440220038689e901f32a965e85464186014195d562153fc99f3cc8a1b9d2c22e3a904402201f17678433ab14effd1fc8dbc652d6ea947ceaf16a48eed06f8f4cbb316719a001210365feadec64ba16bdd7f81db170d9860e90ee25dce4f5da07caab665f8ec8061b", "asm": "30440220038689e901f32a965e85464186014195d562153fc99f3cc8a1b9d2c22e3a904402201f17678433ab14effd1fc8dbc652d6ea947ceaf16a48eed06f8f4cbb316719a0[ALL] 0365feadec64ba16bdd7f81db170d9860e90ee25dce4f5da07caab665f8ec8061b"}, "vout": 1, "txid": "e1d3767b53b5a3e7f6963d2bae1fc60f3aa7109dc25f62fb5a81b0f373e5de25"}], "txid": "afe74094d53c4e046de536ce9946cf10108bd5ff23e93720dad2e38878221878", "blocktime": 1537874412, "version": 1, "confirmations": 11467, "time": 1537874412, "locktime": 0, "vsize": 223, "size": 223}