{"hash": "aff2d1efef28048cd3b58a806e45936e484ff237a266d41e8571d040b38da7aa", "blockhash": "00000000000000000004ffacab907a6b429b9a5745fa0b75af4234bf69dd7176", "vout": [{"scriptPubKey": {"reqSigs": 1, "hex": "76a914765f15cfb20ffbc4c23191d259cda4af33b4b20988ac", "addresses": ["1BnteGkTG5swyxLPn87kuHAnxZWupsbbRj"], "asm": "OP_DUP OP_HASH160 765f15cfb20ffbc4c23191d259cda4af33b4b209 OP_EQUALVERIFY OP_CHECKSIG", "type": "pubkeyhash"}, "value": 0.9, "n": 0}, {"scriptPubKey": {"reqSigs": 1, "hex": "76a914bd0592d3063dfcf6a86baeaefa540f8b40eef61288ac", "addresses": ["1JETPWgcQr96L8K8cH2cWb76LuvMKAEf7J"], "asm": "OP_DUP OP_HASH160 bd0592d3063dfcf6a86baeaefa540f8b40eef612 OP_EQUALVERIFY OP_CHECKSIG", "type": "pubkeyhash"}, "value": 0.95996, "n": 1}], "hex": "01000000019fd6b0e575031017bcf0965e2cbc19a9e1f8c9f1b74f395dc6b4b188cb4a80af000000006a473044022049d36adeb4a6bbbe8999cac3d1a766ee6cdf6408e1d80280b29e057e7d1d536002206681a74d3f2ff21fe376f570a2b7274986f07520a311d993287e20c0a440086e01210351a01de8c206d6e1de4f2e48354013cbb207ad0ad51ef6adb35e67ccbae003c0ffffffff02804a5d05000000001976a914765f15cfb20ffbc4c23191d259cda4af33b4b20988ac60c8b805000000001976a914bd0592d3063dfcf6a86baeaefa540f8b40eef61288ac00000000", "vin": [{"sequence": 4294967295, "scriptSig": {"hex": "473044022049d36adeb4a6bbbe8999cac3d1a766ee6cdf6408e1d80280b29e057e7d1d536002206681a74d3f2ff21fe376f570a2b7274986f07520a311d993287e20c0a440086e01210351a01de8c206d6e1de4f2e48354013cbb207ad0ad51ef6adb35e67ccbae003c0", "asm": "3044022049d36adeb4a6bbbe8999cac3d1a766ee6cdf6408e1d80280b29e057e7d1d536002206681a74d3f2ff21fe376f570a2b7274986f07520a311d993287e20c0a440086e[ALL] 0351a01de8c206d6e1de4f2e48354013cbb207ad0ad51ef6adb35e67ccbae003c0"}, "vout": 0, "txid": "af804acb88b1b4c65d394fb7f1c9f8e1a919bc2c5e96f0bc17100375e5b0d69f"}], "txid": "aff2d1efef28048cd3b58a806e45936e484ff237a266d41e8571d040b38da7aa", "blocktime": 1537875543, "version": 1, "confirmations": 11464, "time": 1537875543, "locktime": 0, "vsize": 225, "size": 225}