{"hash": "aff30bfde1471c57e3a2a09c7c0662226d776b95319f8471d2b8b4f6d31b07b7", "blockhash": "0000000000000000000baef3f32e3676a92c3b2e5da21b426e4f302fc371ce76", "vout": [{"scriptPubKey": {"reqSigs": 1, "hex": "76a9146cd49dc429df53aa4fc5d522459a2a157fa3c31788ac", "addresses": ["1AvSgZDSEM33c9ytgH2zHS3YML2rtV1yMF"], "asm": "OP_DUP OP_HASH160 6cd49dc429df53aa4fc5d522459a2a157fa3c317 OP_EQUALVERIFY OP_CHECKSIG", "type": "pubkeyhash"}, "value": 0.327, "n": 0}, {"scriptPubKey": {"reqSigs": 1, "hex": "76a9147060e6bdc6e040923cf127c0362619a07180c5fb88ac", "addresses": ["1BFCmJr2PdYpZMm4jLk6i6KsmiUh3DGqB9"], "asm": "OP_DUP OP_HASH160 7060e6bdc6e040923cf127c0362619a07180c5fb OP_EQUALVERIFY OP_CHECKSIG", "type": "pubkeyhash"}, "value": 0.16750834, "n": 1}], "hex": "0200000001f30751ac92b7c4ae1511e72d82d1a44b57b426dc074afffffce4cea3e7c68169020000006b483045022100c26ff35b678389bc5da19eabe082fcb7c4427fd37c68f5e12120a7697bf4b8dc02207f288cbffa4c71669cfb8a88e69e2a4dbb23b9668fe20dc3e6a3764ee7d270a9012102e47eb4cd593b2b67e7230d46e450fdaf57c4dfd842ec0ebdd03879e324eb6594feffffff0260f6f201000000001976a9146cd49dc429df53aa4fc5d522459a2a157fa3c31788acf298ff00000000001976a9147060e6bdc6e040923cf127c0362619a07180c5fb88acf9480800", "vin": [{"sequence": 4294967294, "scriptSig": {"hex": "483045022100c26ff35b678389bc5da19eabe082fcb7c4427fd37c68f5e12120a7697bf4b8dc02207f288cbffa4c71669cfb8a88e69e2a4dbb23b9668fe20dc3e6a3764ee7d270a9012102e47eb4cd593b2b67e7230d46e450fdaf57c4dfd842ec0ebdd03879e324eb6594", "asm": "3045022100c26ff35b678389bc5da19eabe082fcb7c4427fd37c68f5e12120a7697bf4b8dc02207f288cbffa4c71669cfb8a88e69e2a4dbb23b9668fe20dc3e6a3764ee7d270a9[ALL] 02e47eb4cd593b2b67e7230d46e450fdaf57c4dfd842ec0ebdd03879e324eb6594"}, "vout": 2, "txid": "6981c6e7a3cee4fcffff4a07dc26b4574ba4d1822de71115aec4b792ac5107f3"}], "txid": "aff30bfde1471c57e3a2a09c7c0662226d776b95319f8471d2b8b4f6d31b07b7", "blocktime": 1537876114, "version": 2, "confirmations": 11459, "time": 1537876114, "locktime": 542969, "vsize": 226, "size": 226}