{"hash": "aff7ea29c6f3f9b0490f608a59fe86d585646b8d9f7e59a939bc385c645a9a97", "blockhash": "0000000000000000000baef3f32e3676a92c3b2e5da21b426e4f302fc371ce76", "vout": [{"scriptPubKey": {"type": "nulldata", "hex": "6a4c500000782c0001fcfeadaa728f5215ef12a2dc27b7256b4774d339f6019d6ddc0f1b8ff1172c36cb050dad65be226da76cb408f2565baa1f120614ffc1f48162ddbc9a9526289ac0f6612cd74e33776ee4", "asm": "OP_RETURN 0000782c0001fcfeadaa728f5215ef12a2dc27b7256b4774d339f6019d6ddc0f1b8ff1172c36cb050dad65be226da76cb408f2565baa1f120614ffc1f48162ddbc9a9526289ac0f6612cd74e33776ee4"}, "value": 0.0, "n": 0}, {"scriptPubKey": {"reqSigs": 1, "hex": "76a914f4b29ed33485872b95e9a512404de371e1bc246788ac", "addresses": ["1PJqra5VXz647s8TrA13EcLje6JEUTGopo"], "asm": "OP_DUP OP_HASH160 f4b29ed33485872b95e9a512404de371e1bc2467 OP_EQUALVERIFY OP_CHECKSIG", "type": "pubkeyhash"}, "value": 0.0007216, "n": 1}], "hex": "0100000001930e07faffab377e84155ba753d785131c017eb20288362cc6e8ed08aba01fef000000006a47304402201d23775e1cb364dc1743e3317cb8d7e566cfdab961aacc4d39a7087aff2794c102202bd9f6a760797739e895fbaf246f7538767926e8aa3d0a6411ff31e9229e3c460121028284fd88a76b7af5bae4427209b2c258a9b33cc0cf3dbe112b041ee4362e7678ffffffff020000000000000000536a4c500000782c0001fcfeadaa728f5215ef12a2dc27b7256b4774d339f6019d6ddc0f1b8ff1172c36cb050dad65be226da76cb408f2565baa1f120614ffc1f48162ddbc9a9526289ac0f6612cd74e33776ee4e0190100000000001976a914f4b29ed33485872b95e9a512404de371e1bc246788ac00000000", "vin": [{"sequence": 4294967295, "scriptSig": {"hex": "47304402201d23775e1cb364dc1743e3317cb8d7e566cfdab961aacc4d39a7087aff2794c102202bd9f6a760797739e895fbaf246f7538767926e8aa3d0a6411ff31e9229e3c460121028284fd88a76b7af5bae4427209b2c258a9b33cc0cf3dbe112b041ee4362e7678", "asm": "304402201d23775e1cb364dc1743e3317cb8d7e566cfdab961aacc4d39a7087aff2794c102202bd9f6a760797739e895fbaf246f7538767926e8aa3d0a6411ff31e9229e3c46[ALL] 028284fd88a76b7af5bae4427209b2c258a9b33cc0cf3dbe112b041ee4362e7678"}, "vout": 0, "txid": "ef1fa0ab08ede8c62c368802b27e011c1385d753a75b15847e37abfffa070e93"}], "txid": "aff7ea29c6f3f9b0490f608a59fe86d585646b8d9f7e59a939bc385c645a9a97", "blocktime": 1537876114, "version": 1, "confirmations": 11461, "time": 1537876114, "locktime": 0, "vsize": 283, "size": 283}