{"hash": "84ccc8ffa1f69e5e7e98426b04ee9c33489b03540ba1ce01c702a314fa7c285a", "blockhash": "00000000000000000024a2167bbff67b0be802c0b01cdd79e6331c2be6459f87", "vout": [{"scriptPubKey": {"reqSigs": 1, "hex": "00145fc2216c100d61bef296d97b6f130cbfa2bedbd5", "addresses": ["bc1qtlpzzmqsp4smau5km9ak7ycvh73tak74s0yrpv"], "asm": "0 5fc2216c100d61bef296d97b6f130cbfa2bedbd5", "type": "witness_v0_keyhash"}, "value": 0.12465761, "n": 0}, {"scriptPubKey": {"reqSigs": 1, "hex": "76a9142f3d496950b5313f2a4837c8a8e27a8dc33dbc8188ac", "addresses": ["15JnBJ7MSow6fdr3nZ7X4i1hPJjEQManD4"], "asm": "OP_DUP OP_HASH160 2f3d496950b5313f2a4837c8a8e27a8dc33dbc81 OP_EQUALVERIFY OP_CHECKSIG", "type": "pubkeyhash"}, "value": 0.03665009, "n": 1}], "hex": "010000000001010b21b64471402f9c8b69ac0dfb4960b4e58dc78f8919cae3b10198efd8a96b360100000000ffffffff026136be00000000001600145fc2216c100d61bef296d97b6f130cbfa2bedbd571ec3700000000001976a9142f3d496950b5313f2a4837c8a8e27a8dc33dbc8188ac02483045022100d751f46db9cfeede2c018b9979b086d55ace68faf6fdf37eab5cb358b6e4be14022023f9c9bad20d65d4e839e8a045a6f308600c653f3423b3e11cc54c7cd7e42f2e012103b3298c1e92eb616dccd0da3e01682d3292dd13bc147c660952a78ab2eaba478200000000", "vin": [{"txinwitness": ["3045022100d751f46db9cfeede2c018b9979b086d55ace68faf6fdf37eab5cb358b6e4be14022023f9c9bad20d65d4e839e8a045a6f308600c653f3423b3e11cc54c7cd7e42f2e01", "03b3298c1e92eb616dccd0da3e01682d3292dd13bc147c660952a78ab2eaba4782"], "sequence": 4294967295, "scriptSig": {"hex": "", "asm": ""}, "vout": 1, "txid": "366ba9d8ef9801b1e3ca19898fc78de5b46049fb0dac698b9c2f407144b6210b"}], "txid": "b00000fc36a8d9bfde42e463b422d87b734be60918da8887d944f892dee1cbe8", "blocktime": 1537870564, "version": 1, "confirmations": 11515, "time": 1537870564, "locktime": 0, "vsize": 144, "size": 226}