{"hash": "b0017a1b3464ca4621a4f5cf765e2a81afce04b2d81ff614b65b1b1df422b696", "blockhash": "0000000000000000001cda96e906b7601b7a6fb1a3b62bca570a9e5d8f4b3de1", "vout": [{"scriptPubKey": {"reqSigs": 1, "hex": "76a91458671fefeb2365a30b8921569d6f1a3d2ca386c388ac", "addresses": ["194S17ef9oTJYegUEvL9491QTS3rDB9eUX"], "asm": "OP_DUP OP_HASH160 58671fefeb2365a30b8921569d6f1a3d2ca386c3 OP_EQUALVERIFY OP_CHECKSIG", "type": "pubkeyhash"}, "value": 0.26564528, "n": 0}], "hex": "0100000003f4744de07d8f192a1178ebe5b72e5969e4862d447ec5949e8d9dac598fa0297e030000006b483045022100de72cb37d6464c417a73f2abca9a33eab86f1f98b47adad530d78389b65cbc4702202c5a66572509e904373e218a7d57daa37cbab6e7f2ff3dcfdac6512ee99ba1c1012102b5879bdccb0a36c28562529c4a764d18761fc93a16d13390f756394053e8f568ffffffff175d16578d00e57190b69ec474891fb4f0dd8294f8de904c4a98a2d2d003d499010000006a473044022075b77aee55ee193e020b2874e0327bab8c9ec7ebcb563d041c8b79a204d214a102203525ec79e679fc3bec731108ae7c4ff704d19e21cb7d51ea35f49863c3eedb1201210392ff724a57c0f2d57cb5df484bbe7d194f04d0a1eacc6c5d387498764e4459bfffffffff5537399f2a9ab75ef6d869968032426d0d530882d3d9980463c7885f4050add8040000006a47304402201b94e978341adf0a2e83ae4e5ce9ac7d08f5ba88892ddd387ff68d92bf3904070220178aa9357a504fa03120cbf136e6380c3e6e79d64b6ba94a2416ef92d1f93952012103894a8f3588f3dd8dfbc3d2834723dfe93fb342dc43eddbd889599adf17a3bfd5ffffffff01b0579501000000001976a91458671fefeb2365a30b8921569d6f1a3d2ca386c388ac00000000", "vin": [{"sequence": 4294967295, "scriptSig": {"hex": "483045022100de72cb37d6464c417a73f2abca9a33eab86f1f98b47adad530d78389b65cbc4702202c5a66572509e904373e218a7d57daa37cbab6e7f2ff3dcfdac6512ee99ba1c1012102b5879bdccb0a36c28562529c4a764d18761fc93a16d13390f756394053e8f568", "asm": "3045022100de72cb37d6464c417a73f2abca9a33eab86f1f98b47adad530d78389b65cbc4702202c5a66572509e904373e218a7d57daa37cbab6e7f2ff3dcfdac6512ee99ba1c1[ALL] 02b5879bdccb0a36c28562529c4a764d18761fc93a16d13390f756394053e8f568"}, "vout": 3, "txid": "7e29a08f59ac9d8d9e94c57e442d86e469592eb7e5eb78112a198f7de04d74f4"}, {"sequence": 4294967295, "scriptSig": {"hex": "473044022075b77aee55ee193e020b2874e0327bab8c9ec7ebcb563d041c8b79a204d214a102203525ec79e679fc3bec731108ae7c4ff704d19e21cb7d51ea35f49863c3eedb1201210392ff724a57c0f2d57cb5df484bbe7d194f04d0a1eacc6c5d387498764e4459bf", "asm": "3044022075b77aee55ee193e020b2874e0327bab8c9ec7ebcb563d041c8b79a204d214a102203525ec79e679fc3bec731108ae7c4ff704d19e21cb7d51ea35f49863c3eedb12[ALL] 0392ff724a57c0f2d57cb5df484bbe7d194f04d0a1eacc6c5d387498764e4459bf"}, "vout": 1, "txid": "99d403d0d2a2984a4c90def89482ddf0b41f8974c49eb69071e5008d57165d17"}, {"sequence": 4294967295, "scriptSig": {"hex": "47304402201b94e978341adf0a2e83ae4e5ce9ac7d08f5ba88892ddd387ff68d92bf3904070220178aa9357a504fa03120cbf136e6380c3e6e79d64b6ba94a2416ef92d1f93952012103894a8f3588f3dd8dfbc3d2834723dfe93fb342dc43eddbd889599adf17a3bfd5", "asm": "304402201b94e978341adf0a2e83ae4e5ce9ac7d08f5ba88892ddd387ff68d92bf3904070220178aa9357a504fa03120cbf136e6380c3e6e79d64b6ba94a2416ef92d1f93952[ALL] 03894a8f3588f3dd8dfbc3d2834723dfe93fb342dc43eddbd889599adf17a3bfd5"}, "vout": 4, "txid": "d8ad50405f88c7630498d9d38208530d6d4232809669d8f65eb79a2a9f393755"}], "txid": "b0017a1b3464ca4621a4f5cf765e2a81afce04b2d81ff614b65b1b1df422b696", "blocktime": 1537873282, "version": 1, "confirmations": 11483, "time": 1537873282, "locktime": 0, "vsize": 486, "size": 486}