{"hash": "b002f63416eafdc62342b921d8165a8932f0ba0aa9cfd74810bfd8311b00fee7", "blockhash": "000000000000000000022b45ed06c6f4ccd3cf7fb5ba4856ebd2e58215665228", "vout": [{"scriptPubKey": {"reqSigs": 1, "hex": "a914db168bef70aa0cab47c65c48417442738f7c802487", "addresses": ["3MfSv7zdrqQk7SXdN2Dvs3mzWj1w6wypeH"], "asm": "OP_HASH160 db168bef70aa0cab47c65c48417442738f7c8024 OP_EQUAL", "type": "scripthash"}, "value": 0.01264726, "n": 0}], "hex": "01000000022f38a3b20fa38a6d0c3a98b2509312389c3874a1510adde412ce666de3b6359b000000006a4730440220604ef46891ae819dbde8355ae79e86249e6e894c3569fdaeecff2306c7edba1a02206e3c7977d3a7da699519c03d1bd8fdd76d30a84778ef9c2be4f492a13e90c972012103f086b64af289d521b4c0a4f095c3fdbba04055203e1b00bda5d7d7a6e271c766ffffffff2fc4537e9d128bf87941941745c4ddfb55c9b528c5231fe1193b3d313aee38f0010000006a4730440220219110fce7609202f1381921a557686dd2f55e8bc994e78f169352555e56c906022016df1a835098d3ca5458831913a1c97a0e06878ee9e4f027847e06ca8087bb1501210256fc79d8203f96dd3cf8600b58eb3385d1e08980acba7384c74e23b715ad6141ffffffff01564c13000000000017a914db168bef70aa0cab47c65c48417442738f7c80248700000000", "vin": [{"sequence": 4294967295, "scriptSig": {"hex": "4730440220604ef46891ae819dbde8355ae79e86249e6e894c3569fdaeecff2306c7edba1a02206e3c7977d3a7da699519c03d1bd8fdd76d30a84778ef9c2be4f492a13e90c972012103f086b64af289d521b4c0a4f095c3fdbba04055203e1b00bda5d7d7a6e271c766", "asm": "30440220604ef46891ae819dbde8355ae79e86249e6e894c3569fdaeecff2306c7edba1a02206e3c7977d3a7da699519c03d1bd8fdd76d30a84778ef9c2be4f492a13e90c972[ALL] 03f086b64af289d521b4c0a4f095c3fdbba04055203e1b00bda5d7d7a6e271c766"}, "vout": 0, "txid": "9b35b6e36d66ce12e4dd0a51a174389c38129350b2983a0c6d8aa30fb2a3382f"}, {"sequence": 4294967295, "scriptSig": {"hex": "4730440220219110fce7609202f1381921a557686dd2f55e8bc994e78f169352555e56c906022016df1a835098d3ca5458831913a1c97a0e06878ee9e4f027847e06ca8087bb1501210256fc79d8203f96dd3cf8600b58eb3385d1e08980acba7384c74e23b715ad6141", "asm": "30440220219110fce7609202f1381921a557686dd2f55e8bc994e78f169352555e56c906022016df1a835098d3ca5458831913a1c97a0e06878ee9e4f027847e06ca8087bb15[ALL] 0256fc79d8203f96dd3cf8600b58eb3385d1e08980acba7384c74e23b715ad6141"}, "vout": 1, "txid": "f038ee3a313d3b19e11f23c528b5c955fbddc44517944179f88b129d7e53c42f"}], "txid": "b002f63416eafdc62342b921d8165a8932f0ba0aa9cfd74810bfd8311b00fee7", "blocktime": 1537869901, "version": 1, "confirmations": 11523, "time": 1537869901, "locktime": 0, "vsize": 336, "size": 336}