{"hash": "b0032b3745f823418cf1a9962a20e368d46d7d55e80d44ba89c79f4ebb380ff3", "blockhash": "0000000000000000001f76057863aec43deb6fa401d9628bb513d65a8098bfab", "vout": [{"scriptPubKey": {"reqSigs": 1, "hex": "76a914ac4c1c15853b3618afc5b448bbbc97e4670c61da88ac", "addresses": ["1Gi2QC1FoDhkxTYRu8cFW4zndqhSm1oAoF"], "asm": "OP_DUP OP_HASH160 ac4c1c15853b3618afc5b448bbbc97e4670c61da OP_EQUALVERIFY OP_CHECKSIG", "type": "pubkeyhash"}, "value": 0.00046684, "n": 0}, {"scriptPubKey": {"reqSigs": 1, "hex": "76a914fb65f270edbe265fce82fffdae92f4a53913fad688ac", "addresses": ["1PvGjZ7VMYokG17GxYic6j2UstKssPXsfa"], "asm": "OP_DUP OP_HASH160 fb65f270edbe265fce82fffdae92f4a53913fad6 OP_EQUALVERIFY OP_CHECKSIG", "type": "pubkeyhash"}, "value": 0.00015482, "n": 1}], "hex": "0100000001d567308f8d0646095c300efa1c44c8a981971d3a568f2c5df157cd4451b8c065010000006a473044022063d341c5002cab1556c64c21d808171b8e75039ca9c8d47420de32067949ff0e02205aead2b06a116f706e643421fd58dbcfa81e4cb4c9b49c075d96f0790c9385540121031d1b9d57d50b6fdeb702ec8064220c0ae78646db228349b21cdcb2b9409f0d0bffffffff025cb60000000000001976a914ac4c1c15853b3618afc5b448bbbc97e4670c61da88ac7a3c0000000000001976a914fb65f270edbe265fce82fffdae92f4a53913fad688ac00000000", "vin": [{"sequence": 4294967295, "scriptSig": {"hex": "473044022063d341c5002cab1556c64c21d808171b8e75039ca9c8d47420de32067949ff0e02205aead2b06a116f706e643421fd58dbcfa81e4cb4c9b49c075d96f0790c9385540121031d1b9d57d50b6fdeb702ec8064220c0ae78646db228349b21cdcb2b9409f0d0b", "asm": "3044022063d341c5002cab1556c64c21d808171b8e75039ca9c8d47420de32067949ff0e02205aead2b06a116f706e643421fd58dbcfa81e4cb4c9b49c075d96f0790c938554[ALL] 031d1b9d57d50b6fdeb702ec8064220c0ae78646db228349b21cdcb2b9409f0d0b"}, "vout": 1, "txid": "65c0b85144cd57f15d2c8f563a1d9781a9c8441cfa0e305c0946068d8f3067d5"}], "txid": "b0032b3745f823418cf1a9962a20e368d46d7d55e80d44ba89c79f4ebb380ff3", "blocktime": 1537873891, "version": 1, "confirmations": 11478, "time": 1537873891, "locktime": 0, "vsize": 225, "size": 225}