{"hash": "b00c47705616a51cf93619d130360afa3ed197f25912626fc3475e5cf71e8e64", "blockhash": "000000000000000000022b45ed06c6f4ccd3cf7fb5ba4856ebd2e58215665228", "vout": [{"scriptPubKey": {"type": "nulldata", "hex": "6a146f6d6e69000000000000001f000000012868b878", "asm": "OP_RETURN 6f6d6e69000000000000001f000000012868b878"}, "value": 0.0, "n": 0}, {"scriptPubKey": {"reqSigs": 1, "hex": "76a9141930f930beda82b9942a5188bd82b932f1e6e8cc88ac", "addresses": ["13JCZXafk1tS648WbiypdUED5dW8PRSyth"], "asm": "OP_DUP OP_HASH160 1930f930beda82b9942a5188bd82b932f1e6e8cc OP_EQUALVERIFY OP_CHECKSIG", "type": "pubkeyhash"}, "value": 5.46e-06, "n": 1}, {"scriptPubKey": {"reqSigs": 1, "hex": "76a9148c61fd6dce2a27afbd1f6a5ca9d5b3921457e80988ac", "addresses": ["1DoGzKS8J1VZW1MpDWJuFsgc3NUUmGCmny"], "asm": "OP_DUP OP_HASH160 8c61fd6dce2a27afbd1f6a5ca9d5b3921457e809 OP_EQUALVERIFY OP_CHECKSIG", "type": "pubkeyhash"}, "value": 9.989e-05, "n": 2}], "hex": "010000000141700d32f31e14dbe162fb9c030cc7bed9565231eb1292986cdbe2cee98869bf010000006a47304402206ec69e7ea8119c1c8b221e40c4684bf9ea6cea8a422069185bcb4c9565af37c7022037a321d0ebaada28e725ed14ec4e5eec2f5b96e7fed2c3f55487c13f6febad3e012103b38bf1e0cbe7349a00df6e56a9d23ceda38afa955923d3b81e186bc71d0aff15feffffff030000000000000000166a146f6d6e69000000000000001f000000012868b87822020000000000001976a9141930f930beda82b9942a5188bd82b932f1e6e8cc88ac05270000000000001976a9148c61fd6dce2a27afbd1f6a5ca9d5b3921457e80988ac0b490800", "vin": [{"sequence": 4294967294, "scriptSig": {"hex": "47304402206ec69e7ea8119c1c8b221e40c4684bf9ea6cea8a422069185bcb4c9565af37c7022037a321d0ebaada28e725ed14ec4e5eec2f5b96e7fed2c3f55487c13f6febad3e012103b38bf1e0cbe7349a00df6e56a9d23ceda38afa955923d3b81e186bc71d0aff15", "asm": "304402206ec69e7ea8119c1c8b221e40c4684bf9ea6cea8a422069185bcb4c9565af37c7022037a321d0ebaada28e725ed14ec4e5eec2f5b96e7fed2c3f55487c13f6febad3e[ALL] 03b38bf1e0cbe7349a00df6e56a9d23ceda38afa955923d3b81e186bc71d0aff15"}, "vout": 1, "txid": "bf6988e9cee2db6c989212eb315256d9bec70c039cfb62e1db141ef3320d7041"}], "txid": "b00c47705616a51cf93619d130360afa3ed197f25912626fc3475e5cf71e8e64", "blocktime": 1537869901, "version": 1, "confirmations": 11524, "time": 1537869901, "locktime": 542987, "vsize": 256, "size": 256}