{"hash": "ff5ca54ab3dc16874be1524d095d5eaa3ff8c15fcd8270e0ae2759a5570e9ed1", "blockhash": "0000000000000000000dcc0f55137456b1a82d3642486a52398922ac4d620174", "vout": [{"scriptPubKey": {"reqSigs": 1, "hex": "00141def028e12d4bfa4e63ed781e29b976a0514a65e", "addresses": ["bc1qrhhs9rsj6jl6fe3767q79xuhdgz3ffj7wqv9q6"], "asm": "0 1def028e12d4bfa4e63ed781e29b976a0514a65e", "type": "witness_v0_keyhash"}, "value": 2.028e-05, "n": 0}, {"scriptPubKey": {"reqSigs": 1, "hex": "a914072b5828049144600e755059b0ed86b98c70b1a587", "addresses": ["32LvaWGtbnycbdFbaNUAzfggG1PfpvzdbG"], "asm": "OP_HASH160 072b5828049144600e755059b0ed86b98c70b1a5 OP_EQUAL", "type": "scripthash"}, "value": 0.00078, "n": 1}], "hex": "01000000000101bd0cda1a82c47e85970b70e137a143feb7ba9a22a88490036bf1a9b56d3da2000100000000ffffffff02ec070000000000001600141def028e12d4bfa4e63ed781e29b976a0514a65eb03001000000000017a914072b5828049144600e755059b0ed86b98c70b1a58702483045022100e805ddb512650cd65ea10fdde8019a3b63d05764806d24c6486feabb9947f52102206b82f0c6673e40473d6b6ffb8412464fba3f3eacc8d821b95c3814774f897ff3012103cad4366bda46569c724e4655b63fb405d93afa8fd7ceb1dc3d2a04273a4e040e00000000", "vin": [{"txinwitness": ["3045022100e805ddb512650cd65ea10fdde8019a3b63d05764806d24c6486feabb9947f52102206b82f0c6673e40473d6b6ffb8412464fba3f3eacc8d821b95c3814774f897ff301", "03cad4366bda46569c724e4655b63fb405d93afa8fd7ceb1dc3d2a04273a4e040e"], "sequence": 4294967295, "scriptSig": {"hex": "", "asm": ""}, "vout": 1, "txid": "00a23d6db5a9f16b039084a8229abab7fe43a137e1700b97857ec4821ada0cbd"}], "txid": "b00ef0fcbcaf816223fe2985f87e4d6ec2eff6a3c4ffa6c2de4c5568d37e9dd8", "blocktime": 1537870268, "version": 1, "confirmations": 11518, "time": 1537870268, "locktime": 0, "vsize": 142, "size": 224}