{"hash": "b01448c68537c14765c795e286fa6c0cc0eeb7b1820cda1b01a548fd55420d1a", "blockhash": "0000000000000000000e13cef7c366c0283d82e591d1acd082e914b08063cdf1", "vout": [{"scriptPubKey": {"reqSigs": 1, "hex": "a9148ec784eed44a3e536ab6c56930c98b6609a56ef087", "addresses": ["3EhxtdEYZ9ifmUKq8UxbwJKtFX19nzCz8v"], "asm": "OP_HASH160 8ec784eed44a3e536ab6c56930c98b6609a56ef0 OP_EQUAL", "type": "scripthash"}, "value": 0.018, "n": 0}, {"scriptPubKey": {"reqSigs": 1, "hex": "76a9146b484bbb38bb51f3488e92051f885a48d5b68c8488ac", "addresses": ["1AnFujDa9qBkwy36vK21zrMAvCwwKmkhEs"], "asm": "OP_DUP OP_HASH160 6b484bbb38bb51f3488e92051f885a48d5b68c84 OP_EQUALVERIFY OP_CHECKSIG", "type": "pubkeyhash"}, "value": 0.441845, "n": 1}], "hex": "0100000001c409813fdcd7c5b6f560d37678079cc31c4c3dcf318608923593ee8c66c91661010000006a47304402202a932d442f30d1d153e2d50f54ee88f27a788ff5a993852b06fd88d1524e193602201c9428b52beba9319c1e858f84d7a371a7661bfafa2e0b399327a9419e543141012103fa750bba5c495aea3571c5f10b31da1800f68e107a59c0198fb1b5512d2abbb4ffffffff0240771b000000000017a9148ec784eed44a3e536ab6c56930c98b6609a56ef087b433a202000000001976a9146b484bbb38bb51f3488e92051f885a48d5b68c8488ac00000000", "vin": [{"sequence": 4294967295, "scriptSig": {"hex": "47304402202a932d442f30d1d153e2d50f54ee88f27a788ff5a993852b06fd88d1524e193602201c9428b52beba9319c1e858f84d7a371a7661bfafa2e0b399327a9419e543141012103fa750bba5c495aea3571c5f10b31da1800f68e107a59c0198fb1b5512d2abbb4", "asm": "304402202a932d442f30d1d153e2d50f54ee88f27a788ff5a993852b06fd88d1524e193602201c9428b52beba9319c1e858f84d7a371a7661bfafa2e0b399327a9419e543141[ALL] 03fa750bba5c495aea3571c5f10b31da1800f68e107a59c0198fb1b5512d2abbb4"}, "vout": 1, "txid": "6116c9668cee933592088631cf3d4c1cc39c077876d360f5b6c5d7dc3f8109c4"}], "txid": "b01448c68537c14765c795e286fa6c0cc0eeb7b1820cda1b01a548fd55420d1a", "blocktime": 1537871767, "version": 1, "confirmations": 11495, "time": 1537871767, "locktime": 0, "vsize": 223, "size": 223}