{"hash": "be9a899b40da1c4b263bd2640104a5762b15d488833bd6a1c4f4ff9950fc522c", "blockhash": "0000000000000000001e0dab787dd257d1dbfcb92a98c2207d5e1078be1f4165", "vout": [{"scriptPubKey": {"reqSigs": 1, "hex": "a914a0dcdf9de98f8cd8dd7718625661f337fd210b0587", "addresses": ["3GMadoAGEZnxjhCPEgBSsKbzJKCxkpajdt"], "asm": "OP_HASH160 a0dcdf9de98f8cd8dd7718625661f337fd210b05 OP_EQUAL", "type": "scripthash"}, "value": 0.00045795, "n": 0}, {"scriptPubKey": {"reqSigs": 1, "hex": "001444c87fe26a7ad93166dcd2ca46c6876fd1132f4d", "addresses": ["bc1qgny8lcn20tvnzeku6t9yd358dlg3xt6d2lvgls"], "asm": "0 44c87fe26a7ad93166dcd2ca46c6876fd1132f4d", "type": "witness_v0_keyhash"}, "value": 3.314e-05, "n": 1}], "hex": "01000000000101835a86e12923812e727b921575798aecef142b6f771813d80c6782f71cb37ad20100000000ffffffff02e3b200000000000017a914a0dcdf9de98f8cd8dd7718625661f337fd210b0587f20c00000000000016001444c87fe26a7ad93166dcd2ca46c6876fd1132f4d024730440220119eb2e3d107acfa994f182b3013f83e771404e0079cfcb2ab1f647e82fda85a02203e3bea4d87fcfd14c9f3e18d92aa1539eb809240c249d476e2adfa1aa4bd0a7f0121039b5ea85d651189072faa1cd084dea6b5a48cbdc54a51f08b5f869b6f89e837b900000000", "vin": [{"txinwitness": ["30440220119eb2e3d107acfa994f182b3013f83e771404e0079cfcb2ab1f647e82fda85a02203e3bea4d87fcfd14c9f3e18d92aa1539eb809240c249d476e2adfa1aa4bd0a7f01", "039b5ea85d651189072faa1cd084dea6b5a48cbdc54a51f08b5f869b6f89e837b9"], "sequence": 4294967295, "scriptSig": {"hex": "", "asm": ""}, "vout": 1, "txid": "d27ab31cf782670cd81318776f2b14efec8a797515927b722e812329e1865a83"}], "txid": "b01d9128846e2e23732e26db4cc1e801949c4a9f2adf703c0a396fdfd21d972e", "blocktime": 1537872475, "version": 1, "confirmations": 11486, "time": 1537872475, "locktime": 0, "vsize": 142, "size": 223}