{"hash": "f3aa08c6c4436480c5d527cdbd7e3d4b399ed15ab0e1ebbd88037057fb2e3486", "blockhash": "0000000000000000001cda96e906b7601b7a6fb1a3b62bca570a9e5d8f4b3de1", "vout": [{"scriptPubKey": {"reqSigs": 1, "hex": "0014aa5b9d5c6543f23223702ace1f78102ad35e938f", "addresses": ["bc1q4fde6hr9g0erygms9t8p77qs9tf4ayu0gszhju"], "asm": "0 aa5b9d5c6543f23223702ace1f78102ad35e938f", "type": "witness_v0_keyhash"}, "value": 0.01379721, "n": 0}, {"scriptPubKey": {"reqSigs": 1, "hex": "76a914c6057c9c1749425c1833d33f84a0ea8fe3efae5b88ac", "addresses": ["1K43ND7xnZ5i8dRP3d99dqj9zqTDVHfgAu"], "asm": "OP_DUP OP_HASH160 c6057c9c1749425c1833d33f84a0ea8fe3efae5b OP_EQUALVERIFY OP_CHECKSIG", "type": "pubkeyhash"}, "value": 0.01092, "n": 1}], "hex": "01000000000101b4b2fb6bf462ab7c3b28a251c6e2b9a2edf37c21129a28b4d9d1ad1dd4e6fc710000000000ffffffff02890d150000000000160014aa5b9d5c6543f23223702ace1f78102ad35e938fa0a91000000000001976a914c6057c9c1749425c1833d33f84a0ea8fe3efae5b88ac0247304402202ea6d8e1476ee0f308056a897e9d6170227c047e53d84fbca1588772e0ff2f0f02206c06f385a8cd460fff798f4a23dccaa570fa209a9f2b4db67efe3c1e22c6b6ea012102ca5c63865411578aa83368c4b25e19b22348c07904269d944ebee7fc6c27afc200000000", "vin": [{"txinwitness": ["304402202ea6d8e1476ee0f308056a897e9d6170227c047e53d84fbca1588772e0ff2f0f02206c06f385a8cd460fff798f4a23dccaa570fa209a9f2b4db67efe3c1e22c6b6ea01", "02ca5c63865411578aa83368c4b25e19b22348c07904269d944ebee7fc6c27afc2"], "sequence": 4294967295, "scriptSig": {"hex": "", "asm": ""}, "vout": 0, "txid": "71fce6d41dadd1d9b4289a12217cf3eda2b9e2c651a2283b7cab62f46bfbb2b4"}], "txid": "b01e0879f9086696fd1b9bcce41cd7d5745c649cc9bb7ab3efe03e988aa4ac86", "blocktime": 1537873282, "version": 1, "confirmations": 11484, "time": 1537873282, "locktime": 0, "vsize": 144, "size": 225}