{"hash": "b01e769a9b76bc5a1d344cf5d511e84f409f27e4eb5d7e8104fdc4163767da86", "blockhash": "0000000000000000000baef3f32e3676a92c3b2e5da21b426e4f302fc371ce76", "vout": [{"scriptPubKey": {"reqSigs": 1, "hex": "76a914d39d0eec099a4fd010f79adb2eaf61854d02d15d88ac", "addresses": ["1LHuj5VaDiVPXjdCat9mg5bkxHQaMxLXjZ"], "asm": "OP_DUP OP_HASH160 d39d0eec099a4fd010f79adb2eaf61854d02d15d OP_EQUALVERIFY OP_CHECKSIG", "type": "pubkeyhash"}, "value": 0.05018311, "n": 0}, {"scriptPubKey": {"reqSigs": 1, "hex": "76a914f5ebfe7d50b1d0f2426e09c4b025b2ec61b23f1d88ac", "addresses": ["1PRKGA3ePPtswjUnUQRmfTwwCTU2pQKJDu"], "asm": "OP_DUP OP_HASH160 f5ebfe7d50b1d0f2426e09c4b025b2ec61b23f1d OP_EQUALVERIFY OP_CHECKSIG", "type": "pubkeyhash"}, "value": 0.553, "n": 1}], "hex": "0100000003167c9521cbf07992fc3d64c9914ace7a1936442a51c8e943d971bc2b443a8442000000006a47304402202ddde459514cfa3afe228cbcf190aacafcd2758af7f83bc3cce691fd24303ad20220770b44843887086c455697850d10942991a6a98f989e51b8e3b82f18e576f840012102107147bbd02ade3c91063ec175e2e6c4c1ad38feff3fcbccf7b515d7c4f1be10ffffffffab978be4316f6188ffec80359e43c1cfdcccf9eab56af2b2763d6d9454b4085a010000006b4830450221008bee2d8679d785cd266033da8bf68fcafcc516e58921fe6bbd26cc1fe32b7acc022009d1e32567af01ff113dda6cf4ba260080b1b20959d735430f48887d2e13d56b012102e2aa2341615c87f56bb9881c70df8aab96c18016a02420c7e670bb120fb2fb4affffffff8aa1702b4b65d0c5aac081a2c71896718d27431b354391e9244813189641d3c6000000006a4730440220505975dae3f0af87f6f2ebf801075f6a65133b344cc8269f6c58b2884e9c2a31022061873efab6cb049a786fb67cff27913e9f2f0501afd5b1b4b9e9e3bbfbe7af01012102107147bbd02ade3c91063ec175e2e6c4c1ad38feff3fcbccf7b515d7c4f1be10ffffffff02c7924c00000000001976a914d39d0eec099a4fd010f79adb2eaf61854d02d15d88aca0cf4b03000000001976a914f5ebfe7d50b1d0f2426e09c4b025b2ec61b23f1d88ac00000000", "vin": [{"sequence": 4294967295, "scriptSig": {"hex": "47304402202ddde459514cfa3afe228cbcf190aacafcd2758af7f83bc3cce691fd24303ad20220770b44843887086c455697850d10942991a6a98f989e51b8e3b82f18e576f840012102107147bbd02ade3c91063ec175e2e6c4c1ad38feff3fcbccf7b515d7c4f1be10", "asm": "304402202ddde459514cfa3afe228cbcf190aacafcd2758af7f83bc3cce691fd24303ad20220770b44843887086c455697850d10942991a6a98f989e51b8e3b82f18e576f840[ALL] 02107147bbd02ade3c91063ec175e2e6c4c1ad38feff3fcbccf7b515d7c4f1be10"}, "vout": 0, "txid": "42843a442bbc71d943e9c8512a4436197ace4a91c9643dfc9279f0cb21957c16"}, {"sequence": 4294967295, "scriptSig": {"hex": "4830450221008bee2d8679d785cd266033da8bf68fcafcc516e58921fe6bbd26cc1fe32b7acc022009d1e32567af01ff113dda6cf4ba260080b1b20959d735430f48887d2e13d56b012102e2aa2341615c87f56bb9881c70df8aab96c18016a02420c7e670bb120fb2fb4a", "asm": "30450221008bee2d8679d785cd266033da8bf68fcafcc516e58921fe6bbd26cc1fe32b7acc022009d1e32567af01ff113dda6cf4ba260080b1b20959d735430f48887d2e13d56b[ALL] 02e2aa2341615c87f56bb9881c70df8aab96c18016a02420c7e670bb120fb2fb4a"}, "vout": 1, "txid": "5a08b454946d3d76b2f26ab5eaf9ccdccfc1439e3580ecff88616f31e48b97ab"}, {"sequence": 4294967295, "scriptSig": {"hex": "4730440220505975dae3f0af87f6f2ebf801075f6a65133b344cc8269f6c58b2884e9c2a31022061873efab6cb049a786fb67cff27913e9f2f0501afd5b1b4b9e9e3bbfbe7af01012102107147bbd02ade3c91063ec175e2e6c4c1ad38feff3fcbccf7b515d7c4f1be10", "asm": "30440220505975dae3f0af87f6f2ebf801075f6a65133b344cc8269f6c58b2884e9c2a31022061873efab6cb049a786fb67cff27913e9f2f0501afd5b1b4b9e9e3bbfbe7af01[ALL] 02107147bbd02ade3c91063ec175e2e6c4c1ad38feff3fcbccf7b515d7c4f1be10"}, "vout": 0, "txid": "c6d3419618134824e99143351b43278d719618c7a281c0aac5d0654b2b70a18a"}], "txid": "b01e769a9b76bc5a1d344cf5d511e84f409f27e4eb5d7e8104fdc4163767da86", "blocktime": 1537876114, "version": 1, "confirmations": 11460, "time": 1537876114, "locktime": 0, "vsize": 520, "size": 520}