{"hash": "fb60a3b5c5c8a9c67856a25ddd5061c63219b1ffc2febe3ba7f38c9a0648c381", "blockhash": "0000000000000000001cda96e906b7601b7a6fb1a3b62bca570a9e5d8f4b3de1", "vout": [{"scriptPubKey": {"reqSigs": 1, "hex": "a914e008b1df08008530ad7dc5a9eca978c4bb6a483587", "addresses": ["3N7bhe4GRDSE9rjUcb6AX3YCD1ooH3jw8T"], "asm": "OP_HASH160 e008b1df08008530ad7dc5a9eca978c4bb6a4835 OP_EQUAL", "type": "scripthash"}, "value": 1.52101232, "n": 0}, {"scriptPubKey": {"reqSigs": 1, "hex": "76a9141e88892d66d3c9aec78af341c1597933914c1df388ac", "addresses": ["13nSqS4JPurCb9S9ifwWAYPPjsb8XqNRyt"], "asm": "OP_DUP OP_HASH160 1e88892d66d3c9aec78af341c1597933914c1df3 OP_EQUALVERIFY OP_CHECKSIG", "type": "pubkeyhash"}, "value": 0.47798, "n": 1}], "hex": "010000000001019e9c80afa4a8845bc02a5125780b7b9eab8adefb00334c5426e4bd431522611a16000000232200201f6d5d3bc2af466ac87720e77719712cc5d544e3fac5a9454c8f8f11349be316ffffffff0270e110090000000017a914e008b1df08008530ad7dc5a9eca978c4bb6a483587f056d902000000001976a9141e88892d66d3c9aec78af341c1597933914c1df388ac0400473044022004c4432295428f9af7646843620ebe7884f379367ac3603ca4883c068a02b216022047481ee5ddfdeace107f137655a023024d2942bd3e8adc7cbb35fc1a3a8a8a9e0147304402203b84d897f586131954a9d97866b455b83b23a9a9d2a26e8c96c24b8de62b833e022072bb261cbd32f9a12dd09432f82b72670c180e5053a67ce1430b8904d531e59f016952210383de204f4d845b8eebe4e41564ba42fdfe8394f442256139a5699f1ebc8ced14210211198235cccf3b76b9c68895c786df3d644694417f054520103008a5d95fd8db2103a26a3257bbfdcc26fe5c41bf6cf5349e0bb681822eec31a56ded4ad1b068ae9d53ae14490800", "vin": [{"txinwitness": ["", "3044022004c4432295428f9af7646843620ebe7884f379367ac3603ca4883c068a02b216022047481ee5ddfdeace107f137655a023024d2942bd3e8adc7cbb35fc1a3a8a8a9e01", "304402203b84d897f586131954a9d97866b455b83b23a9a9d2a26e8c96c24b8de62b833e022072bb261cbd32f9a12dd09432f82b72670c180e5053a67ce1430b8904d531e59f01", "52210383de204f4d845b8eebe4e41564ba42fdfe8394f442256139a5699f1ebc8ced14210211198235cccf3b76b9c68895c786df3d644694417f054520103008a5d95fd8db2103a26a3257bbfdcc26fe5c41bf6cf5349e0bb681822eec31a56ded4ad1b068ae9d53ae"], "sequence": 4294967295, "scriptSig": {"hex": "2200201f6d5d3bc2af466ac87720e77719712cc5d544e3fac5a9454c8f8f11349be316", "asm": "00201f6d5d3bc2af466ac87720e77719712cc5d544e3fac5a9454c8f8f11349be316"}, "vout": 22, "txid": "1a61221543bde426544c3300fbde8aab9e7b0b7825512ac05b84a8a4af809c9e"}], "txid": "b01f4045c5dbdc4ebb62cf48b09d45eac51fbed62bee34892198570bd73fa3d9", "blocktime": 1537873282, "version": 1, "confirmations": 11484, "time": 1537873282, "locktime": 542996, "vsize": 216, "size": 406}