{"hash": "b022d48c1f15d3bda3d956f9a1c52f3d65ceb97a6a19bdd719774023caeed24a", "blockhash": "0000000000000000001cda96e906b7601b7a6fb1a3b62bca570a9e5d8f4b3de1", "vout": [{"scriptPubKey": {"reqSigs": 1, "hex": "76a914382ce655e1cdd01af2d9e46573e9fbd0bb749d3688ac", "addresses": ["1682dS3BbTDCgAgnRYMNhDwEGYjRpaS3h3"], "asm": "OP_DUP OP_HASH160 382ce655e1cdd01af2d9e46573e9fbd0bb749d36 OP_EQUALVERIFY OP_CHECKSIG", "type": "pubkeyhash"}, "value": 0.00328662, "n": 0}, {"scriptPubKey": {"type": "nulldata", "hex": "6a146f6d6e69000000000000001f00000004f79bebe0", "asm": "OP_RETURN 6f6d6e69000000000000001f00000004f79bebe0"}, "value": 0.0, "n": 1}, {"scriptPubKey": {"reqSigs": 1, "hex": "76a91499c8a914226a5acdbf1a76e5b688aca9b1e96d1088ac", "addresses": ["1F28mV3RUmWauiumzYoaNTUVdDCz9Z1V2i"], "asm": "OP_DUP OP_HASH160 99c8a914226a5acdbf1a76e5b688aca9b1e96d10 OP_EQUALVERIFY OP_CHECKSIG", "type": "pubkeyhash"}, "value": 5.46e-06, "n": 2}], "hex": "010000000393bd38ff7c95525a8c61ffb88002e0871292ed368416b12d637471f9960b3269020000006a47304402203419a2bacbbe06cd70baba44ffd94e717b245b0f274fa4f26d288378680ea71c02201352d7258ce6f0942a9da481665253a711e395f9c235eaf3a60c3600342cd3d40121026f851633e32a084f983e19db2a54f5da70f44acd74630e287b2354852da938ddffffffff52dd09ce35387b832295499be4d1f916f551e6e0b9cdc6048d175ff72b85f735010000006a473044022047ebb31739c558e0e84635b6937bb377816c4a729a48181c2f6cf5d538af510702204ea7fb8b950f47d3b32f3075c0d1301dd8467f7ce2ef003fed9e8f0f0c3da2b50121026f851633e32a084f983e19db2a54f5da70f44acd74630e287b2354852da938ddffffffff797ca28cfb5881bd2ebdb2df7ccb0c9dc535a40297b5f7340b84f6e9877d2670000000006a473044022055da64ae014bd1269831edccb7119816ca4faf130c3183acfb651a04140cd4e70220787a86715ae54bb21b509d0d328de6412b2ef7097620476becc381e301a8bd530121039000d0616967dd25f800d8a8f45648c89fb366c2caeefd348010ea3a8f9a69ffffffffff03d6030500000000001976a914382ce655e1cdd01af2d9e46573e9fbd0bb749d3688ac0000000000000000166a146f6d6e69000000000000001f00000004f79bebe022020000000000001976a91499c8a914226a5acdbf1a76e5b688aca9b1e96d1088ac00000000", "vin": [{"sequence": 4294967295, "scriptSig": {"hex": "47304402203419a2bacbbe06cd70baba44ffd94e717b245b0f274fa4f26d288378680ea71c02201352d7258ce6f0942a9da481665253a711e395f9c235eaf3a60c3600342cd3d40121026f851633e32a084f983e19db2a54f5da70f44acd74630e287b2354852da938dd", "asm": "304402203419a2bacbbe06cd70baba44ffd94e717b245b0f274fa4f26d288378680ea71c02201352d7258ce6f0942a9da481665253a711e395f9c235eaf3a60c3600342cd3d4[ALL] 026f851633e32a084f983e19db2a54f5da70f44acd74630e287b2354852da938dd"}, "vout": 2, "txid": "69320b96f97174632db1168436ed921287e00280b8ff618c5a52957cff38bd93"}, {"sequence": 4294967295, "scriptSig": {"hex": "473044022047ebb31739c558e0e84635b6937bb377816c4a729a48181c2f6cf5d538af510702204ea7fb8b950f47d3b32f3075c0d1301dd8467f7ce2ef003fed9e8f0f0c3da2b50121026f851633e32a084f983e19db2a54f5da70f44acd74630e287b2354852da938dd", "asm": "3044022047ebb31739c558e0e84635b6937bb377816c4a729a48181c2f6cf5d538af510702204ea7fb8b950f47d3b32f3075c0d1301dd8467f7ce2ef003fed9e8f0f0c3da2b5[ALL] 026f851633e32a084f983e19db2a54f5da70f44acd74630e287b2354852da938dd"}, "vout": 1, "txid": "35f7852bf75f178d04c6cdb9e0e651f516f9d1e49b499522837b3835ce09dd52"}, {"sequence": 4294967295, "scriptSig": {"hex": "473044022055da64ae014bd1269831edccb7119816ca4faf130c3183acfb651a04140cd4e70220787a86715ae54bb21b509d0d328de6412b2ef7097620476becc381e301a8bd530121039000d0616967dd25f800d8a8f45648c89fb366c2caeefd348010ea3a8f9a69ff", "asm": "3044022055da64ae014bd1269831edccb7119816ca4faf130c3183acfb651a04140cd4e70220787a86715ae54bb21b509d0d328de6412b2ef7097620476becc381e301a8bd53[ALL] 039000d0616967dd25f800d8a8f45648c89fb366c2caeefd348010ea3a8f9a69ff"}, "vout": 0, "txid": "70267d87e9f6840b34f7b59702a435c59d0ccb7cdfb2bd2ebd8158fb8ca27c79"}], "txid": "b022d48c1f15d3bda3d956f9a1c52f3d65ceb97a6a19bdd719774023caeed24a", "blocktime": 1537873282, "version": 1, "confirmations": 11484, "time": 1537873282, "locktime": 0, "vsize": 550, "size": 550}