{"hash": "23deb9eeb37998365a44c77f76478742b9d29e2512fdf538410f48a15f29b2b0", "blockhash": "0000000000000000001f76057863aec43deb6fa401d9628bb513d65a8098bfab", "vout": [{"scriptPubKey": {"reqSigs": 1, "hex": "a914ff3c6acb210d88cdbb56ac08b7b201ad894bea9a87", "addresses": ["3QxacKRknSTFETSDydP4aFFP2iyvJZFLv3"], "asm": "OP_HASH160 ff3c6acb210d88cdbb56ac08b7b201ad894bea9a OP_EQUAL", "type": "scripthash"}, "value": 0.0099835, "n": 0}, {"scriptPubKey": {"reqSigs": 1, "hex": "76a9148943c7f746460541aba9111d33949c8d66d911c988ac", "addresses": ["1DWnmo8VUKssSGGVq4bwkMqHjHL9LL8FLY"], "asm": "OP_DUP OP_HASH160 8943c7f746460541aba9111d33949c8d66d911c9 OP_EQUALVERIFY OP_CHECKSIG", "type": "pubkeyhash"}, "value": 0.0094929, "n": 1}], "hex": "020000000001016256d676396c48218e3644d7e114b29b79dc11f5fb45f2b359771fb108fd6d980000000017160014a913b70aeb15adc03a7edcc743c62b8bb66f912cfeffffff02ce3b0f000000000017a914ff3c6acb210d88cdbb56ac08b7b201ad894bea9a872a7c0e00000000001976a9148943c7f746460541aba9111d33949c8d66d911c988ac0247304402205143fcd7c08e49fd63869e4e6e1eebe8397b6240dd2f9e70b030a48e85d0794d02203de1e7880a758329554ca86bf2e065fe61bd69204c98fe3d358b55b3fa2be09a012103b25db86be961cb1a34a8e856375e0a488d24f97629aeb94d202f0a606661e7b214490800", "vin": [{"txinwitness": ["304402205143fcd7c08e49fd63869e4e6e1eebe8397b6240dd2f9e70b030a48e85d0794d02203de1e7880a758329554ca86bf2e065fe61bd69204c98fe3d358b55b3fa2be09a01", "03b25db86be961cb1a34a8e856375e0a488d24f97629aeb94d202f0a606661e7b2"], "sequence": 4294967294, "scriptSig": {"hex": "160014a913b70aeb15adc03a7edcc743c62b8bb66f912c", "asm": "0014a913b70aeb15adc03a7edcc743c62b8bb66f912c"}, "vout": 0, "txid": "986dfd08b11f7759b3f245fbf511dc799bb214e1d744368e21486c3976d65662"}], "txid": "b0242f1d78e8d6221a5c1321ee9cd8a0bd94655592e2ac1daf52b9cfd0bd5b53", "blocktime": 1537873891, "version": 2, "confirmations": 11475, "time": 1537873891, "locktime": 542996, "vsize": 168, "size": 249}