{"hash": "b0277083a84daa467bdfa597766816b539a2663cc279e02c9f9ca644957c71af", "blockhash": "0000000000000000001cda96e906b7601b7a6fb1a3b62bca570a9e5d8f4b3de1", "vout": [{"scriptPubKey": {"reqSigs": 1, "hex": "76a914d3858e428cf8b3d4a7a4f6abdcefdf13f628b0e488ac", "addresses": ["1LHRa6At8LCZNY7LhWh32SJ8fgvwaDpx6M"], "asm": "OP_DUP OP_HASH160 d3858e428cf8b3d4a7a4f6abdcefdf13f628b0e4 OP_EQUALVERIFY OP_CHECKSIG", "type": "pubkeyhash"}, "value": 0.19769902, "n": 0}], "hex": "01000000060e43724dae9b0c461cae36b02e6c4af1e61106d0e3ef7c092df7759c015c6b22010000006a47304402203f906b5feed1a42bf6b4c4fd7e762122caf8cb98ef258b43af84c58e9fe022eb022023ab336e7197ab4b0ef9faead87879232c90238fd2ca8b00f95b3ce2fd6c60ae0121025f510f796e283a71ff9cf7815b2faae7a80d2b52ac721646c5bfc23a7f134a85ffffffff332d0563073521f196af837d99345d628e80ecb781da6e527a936c4232447a49000000006a4730440220641e9ee42a33dc54f7ccea75cb381839a7dca920c5f2daf317e0a4f92d80f7ea022074c754a5a1b871d4128a2a5b6f68e540226f64046cfc83d5fed3d230bd9611520121025458a82e8c9510302ccb79e4012ae219bef015186ad5b128ab421544cc66cd25ffffffff53b1bcf22d0c3210f783b13901b33fd19b824253693df62cf48d7ec6412d974b010000006b483045022100c6888ff86743663c177cc037cb17c84f547dfe47fb9fed9932104eccf4f3b052022051dc97bd51df0d0e438ebc2ed61a86717e8b6c03680d88aa03469981963d567c0121025458a82e8c9510302ccb79e4012ae219bef015186ad5b128ab421544cc66cd25ffffffff4e0a5a949a41da9343358d4c25d782b7cfef83c24a8b23288c809ad2f3ec2e60000000006a47304402200c2716fd5d7ba4b39989a1da3a5639d4dbd633739d94debbc05b661203ed3593022033aeafcfaf62e35f33a6a44de56c12018b9673cd3043b36a5681dd8d0db24e6a0121025458a82e8c9510302ccb79e4012ae219bef015186ad5b128ab421544cc66cd25ffffffff0cb493d1162e581aff6caa56d922fbbf66aec400bfa335142e1bd1e8e4bdbb7f010000006a47304402205594630409ca051b1e4bb1ccca6a393182b8f9bfca86052709339c10d2304b4c02207a5247f0a6b1a4654b85da7ba09bcb1cb9bded803a4210af62fa3716288b36870121025458a82e8c9510302ccb79e4012ae219bef015186ad5b128ab421544cc66cd25ffffffff052f9d268505e2d8b89e53714dbc62b9054d8c58de298db0eefa108dd48df7cd010000006b483045022100f51699ea146b382d8c62a5ec3dd747ac4b7517e7c40138d3ea3a62574af89b4102204c85d2ffde26a893c7ee87e5a73ae6bb5e32526acc6f7974746cf41751d744760121025458a82e8c9510302ccb79e4012ae219bef015186ad5b128ab421544cc66cd25ffffffff012eaa2d01000000001976a914d3858e428cf8b3d4a7a4f6abdcefdf13f628b0e488ac00000000", "vin": [{"sequence": 4294967295, "scriptSig": {"hex": "47304402203f906b5feed1a42bf6b4c4fd7e762122caf8cb98ef258b43af84c58e9fe022eb022023ab336e7197ab4b0ef9faead87879232c90238fd2ca8b00f95b3ce2fd6c60ae0121025f510f796e283a71ff9cf7815b2faae7a80d2b52ac721646c5bfc23a7f134a85", "asm": "304402203f906b5feed1a42bf6b4c4fd7e762122caf8cb98ef258b43af84c58e9fe022eb022023ab336e7197ab4b0ef9faead87879232c90238fd2ca8b00f95b3ce2fd6c60ae[ALL] 025f510f796e283a71ff9cf7815b2faae7a80d2b52ac721646c5bfc23a7f134a85"}, "vout": 1, "txid": "226b5c019c75f72d097cefe3d00611e6f14a6c2eb036ae1c460c9bae4d72430e"}, {"sequence": 4294967295, "scriptSig": {"hex": "4730440220641e9ee42a33dc54f7ccea75cb381839a7dca920c5f2daf317e0a4f92d80f7ea022074c754a5a1b871d4128a2a5b6f68e540226f64046cfc83d5fed3d230bd9611520121025458a82e8c9510302ccb79e4012ae219bef015186ad5b128ab421544cc66cd25", "asm": "30440220641e9ee42a33dc54f7ccea75cb381839a7dca920c5f2daf317e0a4f92d80f7ea022074c754a5a1b871d4128a2a5b6f68e540226f64046cfc83d5fed3d230bd961152[ALL] 025458a82e8c9510302ccb79e4012ae219bef015186ad5b128ab421544cc66cd25"}, "vout": 0, "txid": "497a4432426c937a526eda81b7ec808e625d34997d83af96f121350763052d33"}, {"sequence": 4294967295, "scriptSig": {"hex": "483045022100c6888ff86743663c177cc037cb17c84f547dfe47fb9fed9932104eccf4f3b052022051dc97bd51df0d0e438ebc2ed61a86717e8b6c03680d88aa03469981963d567c0121025458a82e8c9510302ccb79e4012ae219bef015186ad5b128ab421544cc66cd25", "asm": "3045022100c6888ff86743663c177cc037cb17c84f547dfe47fb9fed9932104eccf4f3b052022051dc97bd51df0d0e438ebc2ed61a86717e8b6c03680d88aa03469981963d567c[ALL] 025458a82e8c9510302ccb79e4012ae219bef015186ad5b128ab421544cc66cd25"}, "vout": 1, "txid": "4b972d41c67e8df42cf63d695342829bd13fb30139b183f710320c2df2bcb153"}, {"sequence": 4294967295, "scriptSig": {"hex": "47304402200c2716fd5d7ba4b39989a1da3a5639d4dbd633739d94debbc05b661203ed3593022033aeafcfaf62e35f33a6a44de56c12018b9673cd3043b36a5681dd8d0db24e6a0121025458a82e8c9510302ccb79e4012ae219bef015186ad5b128ab421544cc66cd25", "asm": "304402200c2716fd5d7ba4b39989a1da3a5639d4dbd633739d94debbc05b661203ed3593022033aeafcfaf62e35f33a6a44de56c12018b9673cd3043b36a5681dd8d0db24e6a[ALL] 025458a82e8c9510302ccb79e4012ae219bef015186ad5b128ab421544cc66cd25"}, "vout": 0, "txid": "602eecf3d29a808c28238b4ac283efcfb782d7254c8d354393da419a945a0a4e"}, {"sequence": 4294967295, "scriptSig": {"hex": "47304402205594630409ca051b1e4bb1ccca6a393182b8f9bfca86052709339c10d2304b4c02207a5247f0a6b1a4654b85da7ba09bcb1cb9bded803a4210af62fa3716288b36870121025458a82e8c9510302ccb79e4012ae219bef015186ad5b128ab421544cc66cd25", "asm": "304402205594630409ca051b1e4bb1ccca6a393182b8f9bfca86052709339c10d2304b4c02207a5247f0a6b1a4654b85da7ba09bcb1cb9bded803a4210af62fa3716288b3687[ALL] 025458a82e8c9510302ccb79e4012ae219bef015186ad5b128ab421544cc66cd25"}, "vout": 1, "txid": "7fbbbde4e8d11b2e1435a3bf00c4ae66bffb22d956aa6cff1a582e16d193b40c"}, {"sequence": 4294967295, "scriptSig": {"hex": "483045022100f51699ea146b382d8c62a5ec3dd747ac4b7517e7c40138d3ea3a62574af89b4102204c85d2ffde26a893c7ee87e5a73ae6bb5e32526acc6f7974746cf41751d744760121025458a82e8c9510302ccb79e4012ae219bef015186ad5b128ab421544cc66cd25", "asm": "3045022100f51699ea146b382d8c62a5ec3dd747ac4b7517e7c40138d3ea3a62574af89b4102204c85d2ffde26a893c7ee87e5a73ae6bb5e32526acc6f7974746cf41751d74476[ALL] 025458a82e8c9510302ccb79e4012ae219bef015186ad5b128ab421544cc66cd25"}, "vout": 1, "txid": "cdf78dd48d10faeeb08d29de588c4d05b962bc4d71539eb8d8e20585269d2f05"}], "txid": "b0277083a84daa467bdfa597766816b539a2663cc279e02c9f9ca644957c71af", "blocktime": 1537873282, "version": 1, "confirmations": 11484, "time": 1537873282, "locktime": 0, "vsize": 928, "size": 928}