{"hash": "8d855719d4837352e2e39a9a6220051caf99021a93f199cdc67ab5ea0c3681d3", "blockhash": "0000000000000000001cda96e906b7601b7a6fb1a3b62bca570a9e5d8f4b3de1", "vout": [{"scriptPubKey": {"reqSigs": 1, "hex": "a914e27599ba66b07b9209b0ee009a60484c89a7ecd087", "addresses": ["3NLRWvWk85CAz6J6awJekh7D8A4guCrQQA"], "asm": "OP_HASH160 e27599ba66b07b9209b0ee009a60484c89a7ecd0 OP_EQUAL", "type": "scripthash"}, "value": 0.00465721, "n": 0}, {"scriptPubKey": {"reqSigs": 1, "hex": "76a9146abc2eaaf62633678ded4169901c3f6c2401de6588ac", "addresses": ["1AjN4UDLYcW8k6EcuswjN26Y2ZLDU2nEjZ"], "asm": "OP_DUP OP_HASH160 6abc2eaaf62633678ded4169901c3f6c2401de65 OP_EQUALVERIFY OP_CHECKSIG", "type": "pubkeyhash"}, "value": 0.06412687, "n": 1}, {"scriptPubKey": {"reqSigs": 1, "hex": "76a9140f7a9c3ea93e93e9b805c307eb92672bf1b4d88388ac", "addresses": ["12Qr1za9orxVMrAdruWTva3nvSXVnxtWHa"], "asm": "OP_DUP OP_HASH160 0f7a9c3ea93e93e9b805c307eb92672bf1b4d883 OP_EQUALVERIFY OP_CHECKSIG", "type": "pubkeyhash"}, "value": 0.01561219, "n": 2}, {"scriptPubKey": {"reqSigs": 1, "hex": "76a914e3263b49d9d1f12364bd6044bc56036e80701dcd88ac", "addresses": ["1Mi4BvZ7TcxSPuzhR4zNfmDY6sm99Y4s4j"], "asm": "OP_DUP OP_HASH160 e3263b49d9d1f12364bd6044bc56036e80701dcd OP_EQUALVERIFY OP_CHECKSIG", "type": "pubkeyhash"}, "value": 0.01561295, "n": 3}, {"scriptPubKey": {"reqSigs": 1, "hex": "76a914983bf6e925e04a7f209bd77aa71215ca2da1b55288ac", "addresses": ["1EswYZjakQDcbq2RVHcibR6LwrmGkjttDC"], "asm": "OP_DUP OP_HASH160 983bf6e925e04a7f209bd77aa71215ca2da1b552 OP_EQUALVERIFY OP_CHECKSIG", "type": "pubkeyhash"}, "value": 0.01561341, "n": 4}, {"scriptPubKey": {"reqSigs": 1, "hex": "a914e488a9b1352428a2a084ae60be7f2b0d30f4858b87", "addresses": ["3NXPhnNYxjsE4Y7V27AvkoPzZGWVx7azdN"], "asm": "OP_HASH160 e488a9b1352428a2a084ae60be7f2b0d30f4858b OP_EQUAL", "type": "scripthash"}, "value": 0.00187106, "n": 5}], "hex": "010000000001019805fd81a9ba62a6cde745ae5ec12d4099188ab76bdcc2472f1de88a33001c3f0100000017160014d9d5068ed13d476ff95216168a15c1200f1201cdffffffff06391b07000000000017a914e27599ba66b07b9209b0ee009a60484c89a7ecd0878fd96100000000001976a9146abc2eaaf62633678ded4169901c3f6c2401de6588ac83d21700000000001976a9140f7a9c3ea93e93e9b805c307eb92672bf1b4d88388accfd21700000000001976a914e3263b49d9d1f12364bd6044bc56036e80701dcd88acfdd21700000000001976a914983bf6e925e04a7f209bd77aa71215ca2da1b55288ace2da02000000000017a914e488a9b1352428a2a084ae60be7f2b0d30f4858b870247304402206075f27d28176755c3f4104b487499325900a1cc9702466c236363b545dee5d902206559a96fcfd25ef8662d600495024bf34b3a22e86ba86271b0480e5be735c6320121039c98b59c7a6e8fde2a9ef963b907ba07a97a9599cbebdcf20b72666699ffa12a00000000", "vin": [{"txinwitness": ["304402206075f27d28176755c3f4104b487499325900a1cc9702466c236363b545dee5d902206559a96fcfd25ef8662d600495024bf34b3a22e86ba86271b0480e5be735c63201", "039c98b59c7a6e8fde2a9ef963b907ba07a97a9599cbebdcf20b72666699ffa12a"], "sequence": 4294967295, "scriptSig": {"hex": "160014d9d5068ed13d476ff95216168a15c1200f1201cd", "asm": "0014d9d5068ed13d476ff95216168a15c1200f1201cd"}, "vout": 1, "txid": "3f1c00338ae81d2f47c2dc6bb78a1899402dc15eae45e7cda662baa981fd0598"}], "txid": "b02c8c206c33a7c73d0e44b0228c4e059742bc877f68913f3f0cab6bbe7a8383", "blocktime": 1537873282, "version": 1, "confirmations": 11484, "time": 1537873282, "locktime": 0, "vsize": 302, "size": 383}