{"hash": "07e062221578e4de3fb6409bbfe3df6623aa5582515d8e079b31f2a946b100c1", "blockhash": "0000000000000000001cda96e906b7601b7a6fb1a3b62bca570a9e5d8f4b3de1", "vout": [{"scriptPubKey": {"reqSigs": 1, "hex": "0014d761d176f8719153c3691ce4a5d2264394195dae", "addresses": ["bc1q6asazahcwxg48smfrnj2t53xgw2pjhdwchgek4"], "asm": "0 d761d176f8719153c3691ce4a5d2264394195dae", "type": "witness_v0_keyhash"}, "value": 1.537e-05, "n": 0}, {"scriptPubKey": {"reqSigs": 1, "hex": "a914b7ebaf6601b0680680a4c042280ad06147a4116987", "addresses": ["3JTVvLgAWB1bfqzpLmCsPyWub6xm5kEeaa"], "asm": "OP_HASH160 b7ebaf6601b0680680a4c042280ad06147a41169 OP_EQUAL", "type": "scripthash"}, "value": 0.0004, "n": 1}], "hex": "01000000000101df4ee325acb98f1557e3bbd4329a38de52eb3adc6e8d4113601dc907aa67acec0000000000ffffffff020106000000000000160014d761d176f8719153c3691ce4a5d2264394195dae409c00000000000017a914b7ebaf6601b0680680a4c042280ad06147a411698702483045022100a9befeb062e54068058206bf03f151f9453290fea252294bbb3401b12db7250f02202db3febbc2dbd12258c6742b54193685f1ed4ae0bc997291d30f599649330db8012103f71f5364de8d05a9c1385b1a9710c5eeaf76c231fbd1c9a24eb2a6a8a43e9eed00000000", "vin": [{"txinwitness": ["3045022100a9befeb062e54068058206bf03f151f9453290fea252294bbb3401b12db7250f02202db3febbc2dbd12258c6742b54193685f1ed4ae0bc997291d30f599649330db801", "03f71f5364de8d05a9c1385b1a9710c5eeaf76c231fbd1c9a24eb2a6a8a43e9eed"], "sequence": 4294967295, "scriptSig": {"hex": "", "asm": ""}, "vout": 0, "txid": "ecac67aa07c91d6013418d6edc3aeb52de389a32d4bbe357158fb9ac25e34edf"}], "txid": "b0315f573896cf7bc48815becd60ba0ac3b24890731e6195fdac54225c2ef789", "blocktime": 1537873282, "version": 1, "confirmations": 11484, "time": 1537873282, "locktime": 0, "vsize": 142, "size": 224}