{"hash": "b0401949b01404b58473e989ec9e6ef6129daf8635c5ff6adef4572205120d26", "blockhash": "000000000000000000022b45ed06c6f4ccd3cf7fb5ba4856ebd2e58215665228", "vout": [{"scriptPubKey": {"reqSigs": 1, "hex": "76a914b5dad547c5fe95306de9aed83cf490548688b27488ac", "addresses": ["1HaZTWnNepNACcYayVfWaE5j8RLhb51Tp6"], "asm": "OP_DUP OP_HASH160 b5dad547c5fe95306de9aed83cf490548688b274 OP_EQUALVERIFY OP_CHECKSIG", "type": "pubkeyhash"}, "value": 0.14169856, "n": 0}, {"scriptPubKey": {"reqSigs": 1, "hex": "a914cd0c02fd42f1283c7b4a9a0bc80a697037ceb73f87", "addresses": ["3LPCqTLfEhYJbMBTQjHMrvEmxP5s5XXi1c"], "asm": "OP_HASH160 cd0c02fd42f1283c7b4a9a0bc80a697037ceb73f OP_EQUAL", "type": "scripthash"}, "value": 0.11680115, "n": 1}], "hex": "01000000016af010d5d0e8a950ce0ca70a1dda2afebf7214f31df5c624c9c432f42f8b6c15010000006a47304402202d9df67c4a83c11280ab40be6b302ec18b5848f879f1fa5e1fb02c3e050e4a0802206964102f8f3763b2c076cb19d4b2a1bcc91ded86b1f1e3e3b53ef3bc7af805010121032ba6b4cd4762440ebf198b6a6b8c8537e31fd01e61e52eafbeedd270f6810804ffffffff020037d800000000001976a914b5dad547c5fe95306de9aed83cf490548688b27488ac7339b2000000000017a914cd0c02fd42f1283c7b4a9a0bc80a697037ceb73f8700000000", "vin": [{"sequence": 4294967295, "scriptSig": {"hex": "47304402202d9df67c4a83c11280ab40be6b302ec18b5848f879f1fa5e1fb02c3e050e4a0802206964102f8f3763b2c076cb19d4b2a1bcc91ded86b1f1e3e3b53ef3bc7af805010121032ba6b4cd4762440ebf198b6a6b8c8537e31fd01e61e52eafbeedd270f6810804", "asm": "304402202d9df67c4a83c11280ab40be6b302ec18b5848f879f1fa5e1fb02c3e050e4a0802206964102f8f3763b2c076cb19d4b2a1bcc91ded86b1f1e3e3b53ef3bc7af80501[ALL] 032ba6b4cd4762440ebf198b6a6b8c8537e31fd01e61e52eafbeedd270f6810804"}, "vout": 1, "txid": "156c8b2ff432c4c924c6f51df31472bffe2ada1d0aa70cce50a9e8d0d510f06a"}], "txid": "b0401949b01404b58473e989ec9e6ef6129daf8635c5ff6adef4572205120d26", "blocktime": 1537869901, "version": 1, "confirmations": 11522, "time": 1537869901, "locktime": 0, "vsize": 223, "size": 223}