{"hash": "b043eda3f9430da60cca89bdb71ec361cbb7c216ace8fda5775e69d4dcfecba6", "blockhash": "0000000000000000000e13cef7c366c0283d82e591d1acd082e914b08063cdf1", "vout": [{"scriptPubKey": {"reqSigs": 1, "hex": "76a91491acdb53dee6410c356c1bb8e38d080fd83602d788ac", "addresses": ["1EHG47YdrB1sxJnBtKy5vApuhVSs8RmMCY"], "asm": "OP_DUP OP_HASH160 91acdb53dee6410c356c1bb8e38d080fd83602d7 OP_EQUALVERIFY OP_CHECKSIG", "type": "pubkeyhash"}, "value": 0.0050085, "n": 0}, {"scriptPubKey": {"reqSigs": 1, "hex": "76a914ae2d96cedc72fcf1894b5b0c37317bdf9c5b143c88ac", "addresses": ["1GsyBxvp5SbANNRbLw3geRcfWftmCwBkW6"], "asm": "OP_DUP OP_HASH160 ae2d96cedc72fcf1894b5b0c37317bdf9c5b143c OP_EQUALVERIFY OP_CHECKSIG", "type": "pubkeyhash"}, "value": 0.0156828, "n": 1}], "hex": "0100000001c4c48139dd73609ed234a71bd32f267e01bd21310c1764a10c8d1fabd480654a010000006a473044022019d404dff6f1bc96b169baf24344e5da6ab366e497d763836c4320a3b15bcdc402202a0c07765841fd9b874ff26e25b3afbfd081ab21d9583b8706a51f03d6b1d339012103feaca9c2603d0ad4bc825521cbcd908520d8bdfd2009e553df84444728636fd4ffffffff0272a40700000000001976a91491acdb53dee6410c356c1bb8e38d080fd83602d788ac18ee1700000000001976a914ae2d96cedc72fcf1894b5b0c37317bdf9c5b143c88ac00000000", "vin": [{"sequence": 4294967295, "scriptSig": {"hex": "473044022019d404dff6f1bc96b169baf24344e5da6ab366e497d763836c4320a3b15bcdc402202a0c07765841fd9b874ff26e25b3afbfd081ab21d9583b8706a51f03d6b1d339012103feaca9c2603d0ad4bc825521cbcd908520d8bdfd2009e553df84444728636fd4", "asm": "3044022019d404dff6f1bc96b169baf24344e5da6ab366e497d763836c4320a3b15bcdc402202a0c07765841fd9b874ff26e25b3afbfd081ab21d9583b8706a51f03d6b1d339[ALL] 03feaca9c2603d0ad4bc825521cbcd908520d8bdfd2009e553df84444728636fd4"}, "vout": 1, "txid": "4a6580d4ab1f8d0ca164170c3121bd017e262fd31ba734d29e6073dd3981c4c4"}], "txid": "b043eda3f9430da60cca89bdb71ec361cbb7c216ace8fda5775e69d4dcfecba6", "blocktime": 1537871767, "version": 1, "confirmations": 11495, "time": 1537871767, "locktime": 0, "vsize": 225, "size": 225}