{"hash": "b046f609c07d3352b3d2902d815d733d0b8d197ba77537823598576bf42becb1", "blockhash": "000000000000000000022b45ed06c6f4ccd3cf7fb5ba4856ebd2e58215665228", "vout": [{"scriptPubKey": {"reqSigs": 1, "hex": "76a9142ffe692e4bd8fc233d062a126e2df04b5fe49df488ac", "addresses": ["15NmXnyX5rTVNsSNu1ehqtCvkPGXqc7gbj"], "asm": "OP_DUP OP_HASH160 2ffe692e4bd8fc233d062a126e2df04b5fe49df4 OP_EQUALVERIFY OP_CHECKSIG", "type": "pubkeyhash"}, "value": 0.0058827, "n": 0}, {"scriptPubKey": {"reqSigs": 1, "hex": "a914e2186ae993b70862cf8fa2ed42c1f546eded8eaf87", "addresses": ["3NJVtTrhq3AibQbW3ucSGQTKv7F3jhNMmC"], "asm": "OP_HASH160 e2186ae993b70862cf8fa2ed42c1f546eded8eaf OP_EQUAL", "type": "scripthash"}, "value": 0.0266599, "n": 1}], "hex": "0100000001154ffbc720d72cd7f4463d6af1b1b8dc8b830ab2e29d4988233b76f7460fdd02060000006b483045022100d113f5274fb303683d1db722190c36064199efe49c26421797cb2ce5390f0d8b0220240772ce32c3e8e31cf414c7cb88a323e907bd5410fe40bcf2c447704a73239e012102bac7e60a09a204acf9ffeb2a41d97fb905c7bdfe939cb36698a340841a704843ffffffff02eef90800000000001976a9142ffe692e4bd8fc233d062a126e2df04b5fe49df488ac06ae28000000000017a914e2186ae993b70862cf8fa2ed42c1f546eded8eaf8700000000", "vin": [{"sequence": 4294967295, "scriptSig": {"hex": "483045022100d113f5274fb303683d1db722190c36064199efe49c26421797cb2ce5390f0d8b0220240772ce32c3e8e31cf414c7cb88a323e907bd5410fe40bcf2c447704a73239e012102bac7e60a09a204acf9ffeb2a41d97fb905c7bdfe939cb36698a340841a704843", "asm": "3045022100d113f5274fb303683d1db722190c36064199efe49c26421797cb2ce5390f0d8b0220240772ce32c3e8e31cf414c7cb88a323e907bd5410fe40bcf2c447704a73239e[ALL] 02bac7e60a09a204acf9ffeb2a41d97fb905c7bdfe939cb36698a340841a704843"}, "vout": 6, "txid": "02dd0f46f7763b2388499de2b20a838bdcb8b1f16a3d46f4d72cd720c7fb4f15"}], "txid": "b046f609c07d3352b3d2902d815d733d0b8d197ba77537823598576bf42becb1", "blocktime": 1537869901, "version": 1, "confirmations": 11524, "time": 1537869901, "locktime": 0, "vsize": 224, "size": 224}