{"hash": "b1719269ba51b86cf87f1d8b745605b800f741b233080281a113f5ce018f0d29", "blockhash": "00000000000000000024a2167bbff67b0be802c0b01cdd79e6331c2be6459f87", "vout": [{"scriptPubKey": {"reqSigs": 1, "hex": "76a914b7be3e452735ba040850819d430ff8818ce1965488ac", "addresses": ["1HkYZSMkNV4ywdVnqj7msXkFFFCEFc9CtV"], "asm": "OP_DUP OP_HASH160 b7be3e452735ba040850819d430ff8818ce19654 OP_EQUALVERIFY OP_CHECKSIG", "type": "pubkeyhash"}, "value": 0.0053576, "n": 0}, {"scriptPubKey": {"reqSigs": 1, "hex": "a91401e424d1446878a3f1b08c4e5d9d7fb1f4088fdf87", "addresses": ["31s1uSpVeTyVnjnHfMJuCfpKxBJvbPq4dB"], "asm": "OP_HASH160 01e424d1446878a3f1b08c4e5d9d7fb1f4088fdf OP_EQUAL", "type": "scripthash"}, "value": 0.00999275, "n": 1}], "hex": "0200000000010204cb32c0c4a9249b999bc1cf12b9c6345ace446a23602d2819d6bcb5e9b7ab3200000000171600146f428c29a79e7cd935a54811e87c7f52a46ce3c5feffffff376bbdb8513a9414c99f8396bbd8a7a516c15496d9bfc5bcc022ec53156416310100000017160014f9016ae6a376f27de4d5e0ed2b68ca01131684fcfeffffff02d02c0800000000001976a914b7be3e452735ba040850819d430ff8818ce1965488ac6b3f0f000000000017a91401e424d1446878a3f1b08c4e5d9d7fb1f4088fdf87024730440220213183890c59875b0552189afe8ea5ff262b1904c9bfc2f635f3e68151cd29ff02202ca3698034f0b98447d481385cdf4b47e4e9007e604d8715dbe7df93d079615f012102fbe52bfba78b8b417418d632a524f7c45c46c6e524a8ee30e720357edfd8bf930247304402200decee6cae6b13866f19e9bf1f08631ee234cf274e262056fce649184cbb23e802203413712a4f12f6321c1290b5ddb9c30361ecf9f869669cfa4d32ae123ad97082012103184cdc78e165b3e24644bebb184275b753c96b8c3f4d4c91895a0198fd5778830d490800", "vin": [{"txinwitness": ["30440220213183890c59875b0552189afe8ea5ff262b1904c9bfc2f635f3e68151cd29ff02202ca3698034f0b98447d481385cdf4b47e4e9007e604d8715dbe7df93d079615f01", "02fbe52bfba78b8b417418d632a524f7c45c46c6e524a8ee30e720357edfd8bf93"], "sequence": 4294967294, "scriptSig": {"hex": "1600146f428c29a79e7cd935a54811e87c7f52a46ce3c5", "asm": "00146f428c29a79e7cd935a54811e87c7f52a46ce3c5"}, "vout": 0, "txid": "32abb7e9b5bcd619282d60236a44ce5a34c6b912cfc19b999b24a9c4c032cb04"}, {"txinwitness": ["304402200decee6cae6b13866f19e9bf1f08631ee234cf274e262056fce649184cbb23e802203413712a4f12f6321c1290b5ddb9c30361ecf9f869669cfa4d32ae123ad9708201", "03184cdc78e165b3e24644bebb184275b753c96b8c3f4d4c91895a0198fd577883"], "sequence": 4294967294, "scriptSig": {"hex": "160014f9016ae6a376f27de4d5e0ed2b68ca01131684fc", "asm": "0014f9016ae6a376f27de4d5e0ed2b68ca01131684fc"}, "vout": 1, "txid": "3116641553ec22c0bcc5bfd99654c116a5a7d8bb96839fc914943a51b8bd6b37"}], "txid": "b04b966e2ccd5b82e5b424cde960521dc9321783bad5415995bf1ae98437d92b", "blocktime": 1537870564, "version": 2, "confirmations": 11515, "time": 1537870564, "locktime": 542989, "vsize": 258, "size": 420}