{"hash": "5b2147b53c6a6e9ae1208dc85161e765f3aa1fa8152accea8a502a0712da9ddc", "blockhash": "0000000000000000001cda96e906b7601b7a6fb1a3b62bca570a9e5d8f4b3de1", "vout": [{"scriptPubKey": {"reqSigs": 1, "hex": "a914277c2021788fa8151bf0ec5e71745bd364f9819b87", "addresses": ["35HnyR8SU7yLX6HfzfEh2JMzTvTsz8aiuD"], "asm": "OP_HASH160 277c2021788fa8151bf0ec5e71745bd364f9819b OP_EQUAL", "type": "scripthash"}, "value": 0.01312255, "n": 0}, {"scriptPubKey": {"reqSigs": 1, "hex": "a914b0797e6cab3662bb35194c9b640a9d2b30f9625387", "addresses": ["3Hn8Pr3BkGdZum8S9ao1Uz8xp88MVWJn74"], "asm": "OP_HASH160 b0797e6cab3662bb35194c9b640a9d2b30f96253 OP_EQUAL", "type": "scripthash"}, "value": 0.66894906, "n": 1}], "hex": "0200000000010155f4ac60bc0563df5de06c3b938e6e83e58504d8072ec041a0b200c09cd5d11b01000000171600148c6e1e2bf6a0b0518e11cecd37eb03698f5a1b8affffffff02ff0514000000000017a914277c2021788fa8151bf0ec5e71745bd364f9819b873abcfc030000000017a914b0797e6cab3662bb35194c9b640a9d2b30f962538702483045022100e5fc91d6b1811c008251d36a65b32764d6c5219aac9b7ebddd8bc94d3e9036a102205a54308023db88885483c4b87dd605e346f223a5b0533c0635806b9a5fa249ef0121027e52f5eb5d34df92ead90e49265c64c4d25c3544c6936da3364227ccdeaa24ff00000000", "vin": [{"txinwitness": ["3045022100e5fc91d6b1811c008251d36a65b32764d6c5219aac9b7ebddd8bc94d3e9036a102205a54308023db88885483c4b87dd605e346f223a5b0533c0635806b9a5fa249ef01", "027e52f5eb5d34df92ead90e49265c64c4d25c3544c6936da3364227ccdeaa24ff"], "sequence": 4294967295, "scriptSig": {"hex": "1600148c6e1e2bf6a0b0518e11cecd37eb03698f5a1b8a", "asm": "00148c6e1e2bf6a0b0518e11cecd37eb03698f5a1b8a"}, "vout": 1, "txid": "1bd1d59cc000b2a041c02e07d80485e5836e8e933b6ce05ddf6305bc60acf455"}], "txid": "b056abbf5c908504e809ab79a919ab324b9899f1494f5e204905ab4b5255b350", "blocktime": 1537873282, "version": 2, "confirmations": 11484, "time": 1537873282, "locktime": 0, "vsize": 166, "size": 248}