{"hash": "f304b7adf7df7208b2706ca7773f140d21b0324aa84216db98fe5b9f2d0a3907", "blockhash": "00000000000000000004ffacab907a6b429b9a5745fa0b75af4234bf69dd7176", "vout": [{"scriptPubKey": {"reqSigs": 1, "hex": "a914c8f4d75c94b7ad1dd5c0561d85f385b42210280e87", "addresses": ["3L1aNn7NR29WpQt22EtLbKE7Uk2ARmTwNX"], "asm": "OP_HASH160 c8f4d75c94b7ad1dd5c0561d85f385b42210280e OP_EQUAL", "type": "scripthash"}, "value": 0.00999379, "n": 0}, {"scriptPubKey": {"reqSigs": 1, "hex": "76a914ecd3be48417e64da9512d7885a0e13f2ffb483eb88ac", "addresses": ["1NbE8TKDszXTvRvd47A3rLrAW5TaEdthUA"], "asm": "OP_DUP OP_HASH160 ecd3be48417e64da9512d7885a0e13f2ffb483eb OP_EQUALVERIFY OP_CHECKSIG", "type": "pubkeyhash"}, "value": 0.040818, "n": 1}], "hex": "02000000000101f13a6daaf095835d5b86180dccdd672b9d8be06ffe1d9851158696d09151f5aa1b0000001716001492ae19359900dcd22b3c200ef01aa82d7949d538feffffff02d33f0f000000000017a914c8f4d75c94b7ad1dd5c0561d85f385b42210280e8788483e00000000001976a914ecd3be48417e64da9512d7885a0e13f2ffb483eb88ac02483045022100d29bae761e4e651868c56e477f86677ca61bdf62caddab0e7382310c869865ee02207a8522c9fa149aed38e02967dcd7d674903b874d45bd64d9feac533c35fb96e7012103cb5dd32866bc28996f5a416e106e6f0c8fe666bee8ba70b9b34fb97b1d9272ac16490800", "vin": [{"txinwitness": ["3045022100d29bae761e4e651868c56e477f86677ca61bdf62caddab0e7382310c869865ee02207a8522c9fa149aed38e02967dcd7d674903b874d45bd64d9feac533c35fb96e701", "03cb5dd32866bc28996f5a416e106e6f0c8fe666bee8ba70b9b34fb97b1d9272ac"], "sequence": 4294967294, "scriptSig": {"hex": "16001492ae19359900dcd22b3c200ef01aa82d7949d538", "asm": "001492ae19359900dcd22b3c200ef01aa82d7949d538"}, "vout": 27, "txid": "aaf55191d096861551981dfe6fe08b9d2b67ddcc0d18865b5d8395f0aa6d3af1"}], "txid": "b05cc9cfd9ded510c49c7210b501f5276d43ffe5e19e0c83d504b1f55ec5c1f3", "blocktime": 1537875543, "version": 2, "confirmations": 11464, "time": 1537875543, "locktime": 542998, "vsize": 168, "size": 250}