{"hash": "b06c095f04a624aca24c06e86ff1294f62f77d67b9b009970bbdf2a92910bf9a", "blockhash": "00000000000000000017f5eb5941039fbcee6240d03bc1f2f8e35350df66a1d8", "vout": [{"scriptPubKey": {"reqSigs": 1, "hex": "76a914023bf5cf1568c730b4d1c0990bdec76fe088bcfc88ac", "addresses": ["1CpBVTy5M5FhqNPh6EcGQK5oRq3SNXuCm"], "asm": "OP_DUP OP_HASH160 023bf5cf1568c730b4d1c0990bdec76fe088bcfc OP_EQUALVERIFY OP_CHECKSIG", "type": "pubkeyhash"}, "value": 0.001354, "n": 0}, {"scriptPubKey": {"reqSigs": 1, "hex": "a914b2f059bf3550fbc07518b0cf3e74f7e46a68d58d87", "addresses": ["3J1A8YHWk1ZXmhGXXfqrZho4MMdSqWqMWA"], "asm": "OP_HASH160 b2f059bf3550fbc07518b0cf3e74f7e46a68d58d OP_EQUAL", "type": "scripthash"}, "value": 0.00627628, "n": 1}], "hex": "010000000145333c24eb36f5f41f8596ccd4a24ac3af4bb4ee91d37fd0ebc1fc2f54be77a500000000db00483045022100fa2b790a0a0855596d827e9b41b36d7844c04722781fea8648073a3c0dffae8502201c1d819f95c1e2955fc359af7098b45e3d9f29a4330a069ab315d4cbd57fd09101483045022100e6af0f9ea8e0ec6cf694c0943885e0a3c83e8e6cc31585172c4f8ba8e242267c02201a1e8e253b47715aa4ad957caf921f0e15ffeba357062c25e2acc2205910c1700147522103a902f467ac15cdefa81aa7637d6ef867068d81ee8571aa9de1b01e13ad62f0ef210346b81165f2f8917c10e0b2a3a8bc402cc9c6786322d17b9fbf252d9b2065feb752aeffffffff02e8100200000000001976a914023bf5cf1568c730b4d1c0990bdec76fe088bcfc88acac9309000000000017a914b2f059bf3550fbc07518b0cf3e74f7e46a68d58d8700000000", "vin": [{"sequence": 4294967295, "scriptSig": {"hex": "00483045022100fa2b790a0a0855596d827e9b41b36d7844c04722781fea8648073a3c0dffae8502201c1d819f95c1e2955fc359af7098b45e3d9f29a4330a069ab315d4cbd57fd09101483045022100e6af0f9ea8e0ec6cf694c0943885e0a3c83e8e6cc31585172c4f8ba8e242267c02201a1e8e253b47715aa4ad957caf921f0e15ffeba357062c25e2acc2205910c1700147522103a902f467ac15cdefa81aa7637d6ef867068d81ee8571aa9de1b01e13ad62f0ef210346b81165f2f8917c10e0b2a3a8bc402cc9c6786322d17b9fbf252d9b2065feb752ae", "asm": "0 3045022100fa2b790a0a0855596d827e9b41b36d7844c04722781fea8648073a3c0dffae8502201c1d819f95c1e2955fc359af7098b45e3d9f29a4330a069ab315d4cbd57fd091[ALL] 3045022100e6af0f9ea8e0ec6cf694c0943885e0a3c83e8e6cc31585172c4f8ba8e242267c02201a1e8e253b47715aa4ad957caf921f0e15ffeba357062c25e2acc2205910c170[ALL] 522103a902f467ac15cdefa81aa7637d6ef867068d81ee8571aa9de1b01e13ad62f0ef210346b81165f2f8917c10e0b2a3a8bc402cc9c6786322d17b9fbf252d9b2065feb752ae"}, "vout": 0, "txid": "a577be542ffcc1ebd07fd391eeb44bafc34aa2d4cc96851ff4f536eb243c3345"}], "txid": "b06c095f04a624aca24c06e86ff1294f62f77d67b9b009970bbdf2a92910bf9a", "blocktime": 1537874412, "version": 1, "confirmations": 11468, "time": 1537874412, "locktime": 0, "vsize": 336, "size": 336}