{"hash": "b0731946cfb16fa7065bd581dcd06e4fc85dc5c7f252efb35c4397577c910ccf", "blockhash": "0000000000000000001f0ddff1eddb255c1121bcd4da4f1bc9a0da00cae72433", "vout": [{"scriptPubKey": {"reqSigs": 1, "hex": "a9149b56b1b70a27dce23cdf518a91603dc2707ab26287", "addresses": ["3FrNWtvW8H5uVYaK4DdRt21ZdiVdkAVXuu"], "asm": "OP_HASH160 9b56b1b70a27dce23cdf518a91603dc2707ab262 OP_EQUAL", "type": "scripthash"}, "value": 0.0078095, "n": 0}, {"scriptPubKey": {"reqSigs": 1, "hex": "76a914d87cd51a3d24b145068636012b9d93c5aa1a252b88ac", "addresses": ["1LjgVwoEG3FG4b6MFG6GVN6c8qDgccyRoW"], "asm": "OP_DUP OP_HASH160 d87cd51a3d24b145068636012b9d93c5aa1a252b OP_EQUALVERIFY OP_CHECKSIG", "type": "pubkeyhash"}, "value": 0.01118372, "n": 1}], "hex": "0100000001377b665a7a4f13490338cb947825440549fe7b06ec2b7fdb8a9bd03a1528aec3000000006a4730440220744f1adae9bfabb74fbb30fef79ad5297132a0cd08256a321ec26ff4559314ab02201d3d00874963f7f72d7d7fb3835d2b5910a7639b1898e1a104af37d1fcb682dd01210274440946b7eda11ac16eb7c50d3057ebb8593f7f020cb98d1b0b0a04e31ab3adffffffff0296ea0b000000000017a9149b56b1b70a27dce23cdf518a91603dc2707ab26287a4101100000000001976a914d87cd51a3d24b145068636012b9d93c5aa1a252b88ac00000000", "vin": [{"sequence": 4294967295, "scriptSig": {"hex": "4730440220744f1adae9bfabb74fbb30fef79ad5297132a0cd08256a321ec26ff4559314ab02201d3d00874963f7f72d7d7fb3835d2b5910a7639b1898e1a104af37d1fcb682dd01210274440946b7eda11ac16eb7c50d3057ebb8593f7f020cb98d1b0b0a04e31ab3ad", "asm": "30440220744f1adae9bfabb74fbb30fef79ad5297132a0cd08256a321ec26ff4559314ab02201d3d00874963f7f72d7d7fb3835d2b5910a7639b1898e1a104af37d1fcb682dd[ALL] 0274440946b7eda11ac16eb7c50d3057ebb8593f7f020cb98d1b0b0a04e31ab3ad"}, "vout": 0, "txid": "c3ae28153ad09b8adb7f2bec067bfe490544257894cb380349134f7a5a667b37"}], "txid": "b0731946cfb16fa7065bd581dcd06e4fc85dc5c7f252efb35c4397577c910ccf", "blocktime": 1537872018, "version": 1, "confirmations": 11489, "time": 1537872018, "locktime": 0, "vsize": 223, "size": 223}