{"hash": "b07fc3c66ef06447d57480bcc0c614eaeea1419543b406a56bd2d3595482a4e8", "blockhash": "0000000000000000001cda96e906b7601b7a6fb1a3b62bca570a9e5d8f4b3de1", "vout": [{"scriptPubKey": {"reqSigs": 1, "hex": "76a9149a3af1369292ded0604d09faaa7b709d4a053b9f88ac", "addresses": ["1F4VfvPNkvfnsgzFEd7985S8EyUXEDaU6N"], "asm": "OP_DUP OP_HASH160 9a3af1369292ded0604d09faaa7b709d4a053b9f OP_EQUALVERIFY OP_CHECKSIG", "type": "pubkeyhash"}, "value": 6.906e-05, "n": 0}, {"scriptPubKey": {"reqSigs": 1, "hex": "76a9141bfd45f588d6b769cdbc1de9bc2b388fa0d6dd1888ac", "addresses": ["13Yzev5yfPEXpw3YGb9AQArAcsk1TMMrp8"], "asm": "OP_DUP OP_HASH160 1bfd45f588d6b769cdbc1de9bc2b388fa0d6dd18 OP_EQUALVERIFY OP_CHECKSIG", "type": "pubkeyhash"}, "value": 0.00234207, "n": 1}], "hex": "0100000001bdda60b2ca874dff3b6f0905d0a9a5cd241c77c303194754942a6856bb05af12140000006b483045022100afa5da0ec78c22f233ba6f65172b929faf7f7f2ff0d9356f30fc4e1f5809ab6e02200671f5ccf9a634a588c8cdc6bf5c98f7f477aa0476462af9ac5bbb2d4cd8fbbb01210375e001c0dc2109fc969a96cf8bd65ab542effa0565acb49129a86ee09f518233ffffffff02fa1a0000000000001976a9149a3af1369292ded0604d09faaa7b709d4a053b9f88acdf920300000000001976a9141bfd45f588d6b769cdbc1de9bc2b388fa0d6dd1888ac00000000", "vin": [{"sequence": 4294967295, "scriptSig": {"hex": "483045022100afa5da0ec78c22f233ba6f65172b929faf7f7f2ff0d9356f30fc4e1f5809ab6e02200671f5ccf9a634a588c8cdc6bf5c98f7f477aa0476462af9ac5bbb2d4cd8fbbb01210375e001c0dc2109fc969a96cf8bd65ab542effa0565acb49129a86ee09f518233", "asm": "3045022100afa5da0ec78c22f233ba6f65172b929faf7f7f2ff0d9356f30fc4e1f5809ab6e02200671f5ccf9a634a588c8cdc6bf5c98f7f477aa0476462af9ac5bbb2d4cd8fbbb[ALL] 0375e001c0dc2109fc969a96cf8bd65ab542effa0565acb49129a86ee09f518233"}, "vout": 20, "txid": "12af05bb56682a9454471903c3771c24cda5a9d005096f3bff4d87cab260dabd"}], "txid": "b07fc3c66ef06447d57480bcc0c614eaeea1419543b406a56bd2d3595482a4e8", "blocktime": 1537873282, "version": 1, "confirmations": 11484, "time": 1537873282, "locktime": 0, "vsize": 226, "size": 226}