{"hash": "1975f6608419447255d9ec0d90878d8140579f868c2eb98f030539096a97fca5", "blockhash": "0000000000000000001f76057863aec43deb6fa401d9628bb513d65a8098bfab", "vout": [{"scriptPubKey": {"reqSigs": 1, "hex": "a914b168df3686918870228337766bcdfab90ead533387", "addresses": ["3Hs5A8K5sZwAUoPU15Y5xLN2mJKrYabi4m"], "asm": "OP_HASH160 b168df3686918870228337766bcdfab90ead5333 OP_EQUAL", "type": "scripthash"}, "value": 0.0005946, "n": 0}, {"scriptPubKey": {"reqSigs": 1, "hex": "a914414cec0fc72a9410f6836edaf08de1aa3b2a321c87", "addresses": ["37eHzewnAFRR2SVZu8rZM3nBsmuE2XBU7D"], "asm": "OP_HASH160 414cec0fc72a9410f6836edaf08de1aa3b2a321c OP_EQUAL", "type": "scripthash"}, "value": 0.24901764, "n": 1}], "hex": "01000000000101dfa1ea8c385666164b1058d20765af657c1d33d7d03f13a02df77a26b59593830100000023220020ce74cde37cfb8dd71d0179287e12fc721ee236ce3c89c2745bcd365b39807eb3ffffffff0244e800000000000017a914b168df3686918870228337766bcdfab90ead53338784f87b010000000017a914414cec0fc72a9410f6836edaf08de1aa3b2a321c87040047304402204a0b3c57f9ce12e18219f4ace911c0a39e67135906edb84bf6dcf52025ed46af02202747495b673609fafb0a3a0c34e0b7d71f4b802c899a938c118448872f7ba0b9014730440220490b5e6ea92c3a0c12a161e0d39c60367388868909f11e9003e26d8ec1778ca202206abc7c75450009120f41b4feec17f4dad4832ee85629e87b12c043ee0109809e0147522103ada901d90d5a76319a60f228e0b1bbc84b1d9a87238550bae5d5d190067b66712103871fc2ca08e6950b38867e8e6a0e94ee625223d3aa0df5c65f414c6d784467e252ae00000000", "vin": [{"txinwitness": ["", "304402204a0b3c57f9ce12e18219f4ace911c0a39e67135906edb84bf6dcf52025ed46af02202747495b673609fafb0a3a0c34e0b7d71f4b802c899a938c118448872f7ba0b901", "30440220490b5e6ea92c3a0c12a161e0d39c60367388868909f11e9003e26d8ec1778ca202206abc7c75450009120f41b4feec17f4dad4832ee85629e87b12c043ee0109809e01", "522103ada901d90d5a76319a60f228e0b1bbc84b1d9a87238550bae5d5d190067b66712103871fc2ca08e6950b38867e8e6a0e94ee625223d3aa0df5c65f414c6d784467e252ae"], "sequence": 4294967295, "scriptSig": {"hex": "220020ce74cde37cfb8dd71d0179287e12fc721ee236ce3c89c2745bcd365b39807eb3", "asm": "0020ce74cde37cfb8dd71d0179287e12fc721ee236ce3c89c2745bcd365b39807eb3"}, "vout": 1, "txid": "839395b5267af72da0133fd0d7331d7c65af6507d258104b166656388ceaa1df"}], "txid": "b08664d21b1a262cd53b9c894ce0e82cfe953f8bb8556f4f03b10ad669b49d90", "blocktime": 1537873891, "version": 1, "confirmations": 11478, "time": 1537873891, "locktime": 0, "vsize": 205, "size": 370}