{"hash": "dc2d7f11fca0f01dab4a96d02d76bb9e112f2dc8818187d464242d7173475cbe", "blockhash": "0000000000000000001f0ddff1eddb255c1121bcd4da4f1bc9a0da00cae72433", "vout": [{"scriptPubKey": {"reqSigs": 1, "hex": "76a91402ce1549dac18c354ab4d511855f7888a4b7c92588ac", "addresses": ["1FqEHy2t3SSeKvqwcAzeyXbNzF2ByArbn"], "asm": "OP_DUP OP_HASH160 02ce1549dac18c354ab4d511855f7888a4b7c925 OP_EQUALVERIFY OP_CHECKSIG", "type": "pubkeyhash"}, "value": 0.0025, "n": 0}, {"scriptPubKey": {"reqSigs": 1, "hex": "a91491a1b255450b533571ff273491e4adce32ac65d787", "addresses": ["3Ey3cEgyoeHob1atjB5W5CJgdJku78U4Nr"], "asm": "OP_HASH160 91a1b255450b533571ff273491e4adce32ac65d7 OP_EQUAL", "type": "scripthash"}, "value": 0.01017836, "n": 1}], "hex": "02000000000101a9f0ce5f1e52fc41a64d169192d624ae054a94aa684b00bcd15a3d752e3e14818e00000017160014a2c7ed026c38bfeabe3a49c243642fcc7dd9ed11feffffff0290d00300000000001976a91402ce1549dac18c354ab4d511855f7888a4b7c92588acec870f000000000017a91491a1b255450b533571ff273491e4adce32ac65d78702483045022100a03e558592d90c7b633f41b9ed8bd8d6bdb705030929659a59ee49509be1a4eb022039200289ce328c0aee8a13ac3e36dca65d4b684a132f76a0d09b33b73461e0940121026ae2a88762ecf33ffcc0ba8a7d7292a1ff30fa7e94415f7ecd7da2fc35aa9d2211490800", "vin": [{"txinwitness": ["3045022100a03e558592d90c7b633f41b9ed8bd8d6bdb705030929659a59ee49509be1a4eb022039200289ce328c0aee8a13ac3e36dca65d4b684a132f76a0d09b33b73461e09401", "026ae2a88762ecf33ffcc0ba8a7d7292a1ff30fa7e94415f7ecd7da2fc35aa9d22"], "sequence": 4294967294, "scriptSig": {"hex": "160014a2c7ed026c38bfeabe3a49c243642fcc7dd9ed11", "asm": "0014a2c7ed026c38bfeabe3a49c243642fcc7dd9ed11"}, "vout": 142, "txid": "81143e2e753d5ad1bc004b68aa944a05ae24d69291164da641fc521e5fcef0a9"}], "txid": "b086e7c781f46d9bb82a08ff0599e9c9689aa7b127a90eeb10203a4410bbc298", "blocktime": 1537872018, "version": 2, "confirmations": 11489, "time": 1537872018, "locktime": 542993, "vsize": 168, "size": 250}