{"hash": "0f0724bc54693adfe67ed1e05002a38b28f5de47461e507423f922f2051e515d", "blockhash": "0000000000000000000dcc0f55137456b1a82d3642486a52398922ac4d620174", "vout": [{"scriptPubKey": {"reqSigs": 1, "hex": "002058c8797f181e000075cb9a18a9662013b795012e86acc04d56a2d229e7b8d7c4", "addresses": ["bc1qtry8jlccrcqqqawtngv2je3qzwme2qfws6kvqn2k5tfzneac6lzqpgummp"], "asm": "0 58c8797f181e000075cb9a18a9662013b795012e86acc04d56a2d229e7b8d7c4", "type": "witness_v0_scripthash"}, "value": 0.00119574, "n": 0}], "hex": "01000000000101655d0bf9665c67a9edf982b0a1b9a0a9ac0d2bd828c905708f7229d94900f0680200000017160014069dea42a6ddda7e465ffd7e402649363764bdd0ffffffff0116d301000000000022002058c8797f181e000075cb9a18a9662013b795012e86acc04d56a2d229e7b8d7c402483045022100da972b657db46b05332f78ec1a604a7f506ad94b4f682f767ae51d7b997b6aa5022044e7dcc07ce643693f39b7f42e1e0c12782dc9fa6329039c90fc0af43971329e01210387396bd9ea9a7de3d3fb6205b181cf728a0a8d6902ac3e8cc02ea4238b3acf9000000000", "vin": [{"txinwitness": ["3045022100da972b657db46b05332f78ec1a604a7f506ad94b4f682f767ae51d7b997b6aa5022044e7dcc07ce643693f39b7f42e1e0c12782dc9fa6329039c90fc0af43971329e01", "0387396bd9ea9a7de3d3fb6205b181cf728a0a8d6902ac3e8cc02ea4238b3acf90"], "sequence": 4294967295, "scriptSig": {"hex": "160014069dea42a6ddda7e465ffd7e402649363764bdd0", "asm": "0014069dea42a6ddda7e465ffd7e402649363764bdd0"}, "vout": 2, "txid": "68f00049d929728f7005c928d82b0daca9a0b9a1b082f9eda9675c66f90b5d65"}], "txid": "b088214f654973eafa6a49095944c1d0f18b1a9803250d6061139768263c8877", "blocktime": 1537870268, "version": 1, "confirmations": 11518, "time": 1537870268, "locktime": 0, "vsize": 145, "size": 227}