{"hash": "b08cf8c9168632c08ca0f6d50e7547c1fad71e16cd2b799f1de28f488189bc52", "blockhash": "0000000000000000001cda96e906b7601b7a6fb1a3b62bca570a9e5d8f4b3de1", "vout": [{"scriptPubKey": {"reqSigs": 1, "hex": "76a914c7a1e24ce292fe77d2a1e278fb698710f6f13d7188ac", "addresses": ["1KCZQ574UfT7nSsoczNoejuXLPiLKAS14k"], "asm": "OP_DUP OP_HASH160 c7a1e24ce292fe77d2a1e278fb698710f6f13d71 OP_EQUALVERIFY OP_CHECKSIG", "type": "pubkeyhash"}, "value": 4.42874063, "n": 0}], "hex": "0100000002f5fdde6b13330c9ed02203e5ce526351826bfd5bb0c1941156c983911d6759af000000006a4730440220432ac6af8dee33704845f57a1ca5797919c16a3ce4ba05e9e35704e202682a710220647e758584da2e823675b10531d32765e189ea77b8ea512ebb67cc6e7463529a01210326cb8c38667d74baa6e2e7dbe19f23808cd2023f596ad759410b27a6ab736217ffffffff45530136ff153692145a1b77297f688e3db53d59299e965938e24b33f3eeddce000000006b483045022100c223c046041ac7237029f29405d162ed9b83adb6731361aa3014552e0da176ed022053bbfa978ef130937e9167597683e9fc9636000375deed34f25357758ce72a5f0121038974f7e20781ce0a94ac1cc6723899301cf285c86d3dba8a1ca4bd6f8bad8168ffffffff01cfb8651a000000001976a914c7a1e24ce292fe77d2a1e278fb698710f6f13d7188ac00000000", "vin": [{"sequence": 4294967295, "scriptSig": {"hex": "4730440220432ac6af8dee33704845f57a1ca5797919c16a3ce4ba05e9e35704e202682a710220647e758584da2e823675b10531d32765e189ea77b8ea512ebb67cc6e7463529a01210326cb8c38667d74baa6e2e7dbe19f23808cd2023f596ad759410b27a6ab736217", "asm": "30440220432ac6af8dee33704845f57a1ca5797919c16a3ce4ba05e9e35704e202682a710220647e758584da2e823675b10531d32765e189ea77b8ea512ebb67cc6e7463529a[ALL] 0326cb8c38667d74baa6e2e7dbe19f23808cd2023f596ad759410b27a6ab736217"}, "vout": 0, "txid": "af59671d9183c9561194c1b05bfd6b82516352cee50322d09e0c33136bdefdf5"}, {"sequence": 4294967295, "scriptSig": {"hex": "483045022100c223c046041ac7237029f29405d162ed9b83adb6731361aa3014552e0da176ed022053bbfa978ef130937e9167597683e9fc9636000375deed34f25357758ce72a5f0121038974f7e20781ce0a94ac1cc6723899301cf285c86d3dba8a1ca4bd6f8bad8168", "asm": "3045022100c223c046041ac7237029f29405d162ed9b83adb6731361aa3014552e0da176ed022053bbfa978ef130937e9167597683e9fc9636000375deed34f25357758ce72a5f[ALL] 038974f7e20781ce0a94ac1cc6723899301cf285c86d3dba8a1ca4bd6f8bad8168"}, "vout": 0, "txid": "ceddeef3334be23859969e29593db53d8e687f29771b5a14923615ff36015345"}], "txid": "b08cf8c9168632c08ca0f6d50e7547c1fad71e16cd2b799f1de28f488189bc52", "blocktime": 1537873282, "version": 1, "confirmations": 11480, "time": 1537873282, "locktime": 0, "vsize": 339, "size": 339}