{"hash": "df9577f947a42042fee1e4bd72612eac503cc2211f726750210668cb57a388d5", "blockhash": "000000000000000000022b45ed06c6f4ccd3cf7fb5ba4856ebd2e58215665228", "vout": [{"scriptPubKey": {"reqSigs": 1, "hex": "76a91422c30f5de23f4ae2a3227d206efd1e1a460394d288ac", "addresses": ["14AoeXmUVrvSAEXNhwyy2YJVZNu91foit5"], "asm": "OP_DUP OP_HASH160 22c30f5de23f4ae2a3227d206efd1e1a460394d2 OP_EQUALVERIFY OP_CHECKSIG", "type": "pubkeyhash"}, "value": 3.44e-05, "n": 0}, {"scriptPubKey": {"reqSigs": 1, "hex": "a9141d7370ccde4590204155e4074f69743a8e4fac0287", "addresses": ["34Njp4ZKtmCDfqqps26wHBYQQGUo2pGkLi"], "asm": "OP_HASH160 1d7370ccde4590204155e4074f69743a8e4fac02 OP_EQUAL", "type": "scripthash"}, "value": 0.0004551, "n": 1}], "hex": "010000000001010d263b647faf21261a518e6222ecb873f6629f3a2a190a75711e9c8cd791169a0000000023220020f63dfc12340f6360d0251c22746d6b56093e3243e96ca012a65484a5d9cf0ec0ffffffff02700d0000000000001976a91422c30f5de23f4ae2a3227d206efd1e1a460394d288acc6b100000000000017a9141d7370ccde4590204155e4074f69743a8e4fac02870400473044022042dcaaed0aacd63b932ddbb7b5d0c0526d21127b57c62be6e80c59d9d0d0536c022031b36ff56e10cc5c57ef7f8f997ec57cf6a4b62a0b67f5a3f7ccff209fa7aa420147304402201231f2b2f3e0f62d42fe81a746b324ec11446e0dfb9efa5e562d314b82b1e9aa02207838e37bbcd83f0a6369556834cbe15fa3d25bb7b9df7fda3dd1e7fab4ca35060147522102097067a6a0cc130a9a6f6577b47bf369b840a79de31cd7457187994266b1bb7c2103338f346cab6ba87fe940591a03ac234be06520c5ab386d4b6632e8eef0d0db7652ae00000000", "vin": [{"txinwitness": ["", "3044022042dcaaed0aacd63b932ddbb7b5d0c0526d21127b57c62be6e80c59d9d0d0536c022031b36ff56e10cc5c57ef7f8f997ec57cf6a4b62a0b67f5a3f7ccff209fa7aa4201", "304402201231f2b2f3e0f62d42fe81a746b324ec11446e0dfb9efa5e562d314b82b1e9aa02207838e37bbcd83f0a6369556834cbe15fa3d25bb7b9df7fda3dd1e7fab4ca350601", "522102097067a6a0cc130a9a6f6577b47bf369b840a79de31cd7457187994266b1bb7c2103338f346cab6ba87fe940591a03ac234be06520c5ab386d4b6632e8eef0d0db7652ae"], "sequence": 4294967295, "scriptSig": {"hex": "220020f63dfc12340f6360d0251c22746d6b56093e3243e96ca012a65484a5d9cf0ec0", "asm": "0020f63dfc12340f6360d0251c22746d6b56093e3243e96ca012a65484a5d9cf0ec0"}, "vout": 0, "txid": "9a1691d78c9c1e71750a192a3a9f62f673b8ec22628e511a2621af7f643b260d"}], "txid": "b08d3b61e1b46182253d6c1469a15c4fbeaa2feff4d48ebc2ee99d2e347d0ed6", "blocktime": 1537869901, "version": 1, "confirmations": 11524, "time": 1537869901, "locktime": 0, "vsize": 207, "size": 372}