{"hash": "b08f554ff9d2c2ad677fa27cc460e0861c7269365d0437ba83598641243127ce", "blockhash": "0000000000000000000e13cef7c366c0283d82e591d1acd082e914b08063cdf1", "vout": [{"scriptPubKey": {"reqSigs": 1, "hex": "76a91430e2854d4a2890027e103402f5e1237f5a18208b88ac", "addresses": ["15TUo9HE7XFvmfoSKLEvpF64snDLuK24qH"], "asm": "OP_DUP OP_HASH160 30e2854d4a2890027e103402f5e1237f5a18208b OP_EQUALVERIFY OP_CHECKSIG", "type": "pubkeyhash"}, "value": 0.001838, "n": 0}, {"scriptPubKey": {"reqSigs": 1, "hex": "76a914bd3dc7b15156c6aec14d7a846e7264aace2d38a788ac", "addresses": ["1JFciovbWsxAbFWQadrx9kEZdMeczZ1DN5"], "asm": "OP_DUP OP_HASH160 bd3dc7b15156c6aec14d7a846e7264aace2d38a7 OP_EQUALVERIFY OP_CHECKSIG", "type": "pubkeyhash"}, "value": 0.00272848, "n": 1}], "hex": "0100000001c23b01c7e2198ef6fe0a4adf01a9762200d67a075b421ed4fe9e710a96a45c5d000000006b483045022100f0f7a69db02446b62005842d2375b122555964ef31ccded93e89fcda40b21b29022044198178647fa92e44f71af615596c50fde00b6ae6dfb50e1763ed4cf4e812a30121037e4a8012d5ca9773d81ff1c40d37d342647a4ad314762c58b1dd0f66880c3541ffffffff02f8cd0200000000001976a91430e2854d4a2890027e103402f5e1237f5a18208b88acd0290400000000001976a914bd3dc7b15156c6aec14d7a846e7264aace2d38a788ac00000000", "vin": [{"sequence": 4294967295, "scriptSig": {"hex": "483045022100f0f7a69db02446b62005842d2375b122555964ef31ccded93e89fcda40b21b29022044198178647fa92e44f71af615596c50fde00b6ae6dfb50e1763ed4cf4e812a30121037e4a8012d5ca9773d81ff1c40d37d342647a4ad314762c58b1dd0f66880c3541", "asm": "3045022100f0f7a69db02446b62005842d2375b122555964ef31ccded93e89fcda40b21b29022044198178647fa92e44f71af615596c50fde00b6ae6dfb50e1763ed4cf4e812a3[ALL] 037e4a8012d5ca9773d81ff1c40d37d342647a4ad314762c58b1dd0f66880c3541"}, "vout": 0, "txid": "5d5ca4960a719efed41e425b077ad6002276a901df4a0afef68e19e2c7013bc2"}], "txid": "b08f554ff9d2c2ad677fa27cc460e0861c7269365d0437ba83598641243127ce", "blocktime": 1537871767, "version": 1, "confirmations": 11495, "time": 1537871767, "locktime": 0, "vsize": 226, "size": 226}