{"hash": "b09148cbd2ed8d94e1ce81ad302c7a03a3101c7cc0d25500743041b24d6e9081", "blockhash": "0000000000000000001f0ddff1eddb255c1121bcd4da4f1bc9a0da00cae72433", "vout": [{"scriptPubKey": {"reqSigs": 1, "hex": "76a9141c4930ac34088f790a12119ac7a3eae6d933449788ac", "addresses": ["13aZbiD2HGpeRQXvFU1cdB3um4ZUFrjooH"], "asm": "OP_DUP OP_HASH160 1c4930ac34088f790a12119ac7a3eae6d9334497 OP_EQUALVERIFY OP_CHECKSIG", "type": "pubkeyhash"}, "value": 0.0009496, "n": 0}, {"scriptPubKey": {"type": "nulldata", "hex": "6a4c50000077a900013f28305dd15bb3407afe8d20af6c953dd567cf27e7e3ef3236678a6250975e4d5b8dfd28209081d9196931d189995baa10040612fa8b53ccfddcbc9a9526289ac0f6612cd74e33776ee4", "asm": "OP_RETURN 000077a900013f28305dd15bb3407afe8d20af6c953dd567cf27e7e3ef3236678a6250975e4d5b8dfd28209081d9196931d189995baa10040612fa8b53ccfddcbc9a9526289ac0f6612cd74e33776ee4"}, "value": 0.0, "n": 1}], "hex": "0100000001a99600a3b2564afded168eaffe6b2204cf05619e8bd10760106205f9048b5eb7000000006a473044022064160b2632e7af59da127e8919609ffbbd8756347b0e6c9c099f0004f62a997602201a24ce9c5cee71638cb6c42aa4c3fd1562d48867ddefd3ff7f9ce9c7090fc74c01210207030290fa883758e5cf5deb59dbb2ac767eadf60a6b84d167b1895d588de275ffffffff02f0720100000000001976a9141c4930ac34088f790a12119ac7a3eae6d933449788ac0000000000000000536a4c50000077a900013f28305dd15bb3407afe8d20af6c953dd567cf27e7e3ef3236678a6250975e4d5b8dfd28209081d9196931d189995baa10040612fa8b53ccfddcbc9a9526289ac0f6612cd74e33776ee400000000", "vin": [{"sequence": 4294967295, "scriptSig": {"hex": "473044022064160b2632e7af59da127e8919609ffbbd8756347b0e6c9c099f0004f62a997602201a24ce9c5cee71638cb6c42aa4c3fd1562d48867ddefd3ff7f9ce9c7090fc74c01210207030290fa883758e5cf5deb59dbb2ac767eadf60a6b84d167b1895d588de275", "asm": "3044022064160b2632e7af59da127e8919609ffbbd8756347b0e6c9c099f0004f62a997602201a24ce9c5cee71638cb6c42aa4c3fd1562d48867ddefd3ff7f9ce9c7090fc74c[ALL] 0207030290fa883758e5cf5deb59dbb2ac767eadf60a6b84d167b1895d588de275"}, "vout": 0, "txid": "b75e8b04f90562106007d18b9e6105cf04226bfeaf8e16edfd4a56b2a30096a9"}], "txid": "b09148cbd2ed8d94e1ce81ad302c7a03a3101c7cc0d25500743041b24d6e9081", "blocktime": 1537872018, "version": 1, "confirmations": 11489, "time": 1537872018, "locktime": 0, "vsize": 283, "size": 283}