{"hash": "030a8f7c27b6842d7d02a26bbe4b46c63d628303924dd4b40d6319a751c703f7", "blockhash": "0000000000000000001cda96e906b7601b7a6fb1a3b62bca570a9e5d8f4b3de1", "vout": [{"scriptPubKey": {"reqSigs": 1, "hex": "76a914e3263b49d9d1f12364bd6044bc56036e80701dcd88ac", "addresses": ["1Mi4BvZ7TcxSPuzhR4zNfmDY6sm99Y4s4j"], "asm": "OP_DUP OP_HASH160 e3263b49d9d1f12364bd6044bc56036e80701dcd OP_EQUALVERIFY OP_CHECKSIG", "type": "pubkeyhash"}, "value": 0.01561295, "n": 0}, {"scriptPubKey": {"reqSigs": 1, "hex": "76a914cd7f83974c53dc932efb7286358fc85a76edaeff88ac", "addresses": ["1KjaHA12km5P45LRknkQLAso9HdkxSU13x"], "asm": "OP_DUP OP_HASH160 cd7f83974c53dc932efb7286358fc85a76edaeff OP_EQUALVERIFY OP_CHECKSIG", "type": "pubkeyhash"}, "value": 0.63457817, "n": 1}, {"scriptPubKey": {"reqSigs": 1, "hex": "76a9146bad7acb30854f989bb9ecd8e9b30aafaf41143688ac", "addresses": ["1ApM873McPVJGCE8bo7wQm7VRLyTz3tqTW"], "asm": "OP_DUP OP_HASH160 6bad7acb30854f989bb9ecd8e9b30aafaf411436 OP_EQUALVERIFY OP_CHECKSIG", "type": "pubkeyhash"}, "value": 0.01029295, "n": 2}, {"scriptPubKey": {"reqSigs": 1, "hex": "76a914735745d5429a63514e74263a421036927228483d88ac", "addresses": ["1BWsFt35r3sh5bWT1hYWAcfxBqZmZzxHx4"], "asm": "OP_DUP OP_HASH160 735745d5429a63514e74263a421036927228483d OP_EQUALVERIFY OP_CHECKSIG", "type": "pubkeyhash"}, "value": 0.007, "n": 3}, {"scriptPubKey": {"reqSigs": 1, "hex": "76a914b3a21a0c28ef3b222cdff44a18ad2c2521982e1188ac", "addresses": ["1HNp9N9MkT4oSXsHw2DB1pexWZxEQQ7tJz"], "asm": "OP_DUP OP_HASH160 b3a21a0c28ef3b222cdff44a18ad2c2521982e11 OP_EQUALVERIFY OP_CHECKSIG", "type": "pubkeyhash"}, "value": 0.01561219, "n": 4}, {"scriptPubKey": {"reqSigs": 1, "hex": "a914e488a9b1352428a2a084ae60be7f2b0d30f4858b87", "addresses": ["3NXPhnNYxjsE4Y7V27AvkoPzZGWVx7azdN"], "asm": "OP_HASH160 e488a9b1352428a2a084ae60be7f2b0d30f4858b OP_EQUAL", "type": "scripthash"}, "value": 0.02449808, "n": 5}], "hex": "01000000000101bd575a266e90b1e4daf8404c5075da541bfdb26ae087cfaae50ab62e0051484e0000000017160014bbc462b1b6e2cb25b630b1c92ee3db1ce99becacffffffff06cfd21700000000001976a914e3263b49d9d1f12364bd6044bc56036e80701dcd88ac194ac803000000001976a914cd7f83974c53dc932efb7286358fc85a76edaeff88acafb40f00000000001976a9146bad7acb30854f989bb9ecd8e9b30aafaf41143688ac60ae0a00000000001976a914735745d5429a63514e74263a421036927228483d88ac83d21700000000001976a914b3a21a0c28ef3b222cdff44a18ad2c2521982e1188ac906125000000000017a914e488a9b1352428a2a084ae60be7f2b0d30f4858b870247304402201dbeeef3d879a0f53b185e45e2c194396574e13e8d6df5e3fdd4e0286494a5fa022020398afe0249130a95a058034e2c61a6c8336c3c338cce5ccc0f482c3f71dc1e012102fc5305cce45002ad72f6b0378af72a6896613e4355b6acab3137b95aa855119900000000", "vin": [{"txinwitness": ["304402201dbeeef3d879a0f53b185e45e2c194396574e13e8d6df5e3fdd4e0286494a5fa022020398afe0249130a95a058034e2c61a6c8336c3c338cce5ccc0f482c3f71dc1e01", "02fc5305cce45002ad72f6b0378af72a6896613e4355b6acab3137b95aa8551199"], "sequence": 4294967295, "scriptSig": {"hex": "160014bbc462b1b6e2cb25b630b1c92ee3db1ce99becac", "asm": "0014bbc462b1b6e2cb25b630b1c92ee3db1ce99becac"}, "vout": 0, "txid": "4e4851002eb60ae5aacf87e06ab2fd1b54da75504c40f8dae4b1906e265a57bd"}], "txid": "b09139dfb9e015ba1f5d51358cac59066f451cad6955d13f73495c34963a98c9", "blocktime": 1537873282, "version": 1, "confirmations": 11484, "time": 1537873282, "locktime": 0, "vsize": 304, "size": 385}