{"hash": "3851b6244996ad2db2f2cd664e8a790abe551579e529949ba5b387112ddb4dac", "blockhash": "0000000000000000000e13cef7c366c0283d82e591d1acd082e914b08063cdf1", "vout": [{"scriptPubKey": {"reqSigs": 1, "hex": "76a914658bc2e4001cfacc64a3e041943e921b3086737588ac", "addresses": ["1AFvgAG4FN8fhtp3ZtSF8hsmKvPTDiB4RV"], "asm": "OP_DUP OP_HASH160 658bc2e4001cfacc64a3e041943e921b30867375 OP_EQUALVERIFY OP_CHECKSIG", "type": "pubkeyhash"}, "value": 3.268e-05, "n": 0}, {"scriptPubKey": {"reqSigs": 1, "hex": "a914e8db75c900cf08f06518e96d167331f2a4abfb3387", "addresses": ["3NvFbQMAkkqEFj4i1sYPPLkSWzxTFUchjA"], "asm": "OP_HASH160 e8db75c900cf08f06518e96d167331f2a4abfb33 OP_EQUAL", "type": "scripthash"}, "value": 1.477e-05, "n": 1}], "hex": "010000000001018a747c516aa27fbfea1573aeebed4fc042cea803b39cd153afb67856c7abd25d0100000023220020941cfaff8837763dc1f69ff82b6d6553fdea17a41cfc29a04403293eedd8ccc7ffffffff02c40c0000000000001976a914658bc2e4001cfacc64a3e041943e921b3086737588acc50500000000000017a914e8db75c900cf08f06518e96d167331f2a4abfb33870400483045022100efd65115f251cb9c51d4dc35197ff88f806fc5e81b26fe3cd7b83e0fec41fdc802204509480ba3ed0148282645db2bac366dc6ce7022963beb3ebb49cff652df391b01473044022045336a8e6c555828207442e7f8b4fee1f49c961aae3209f54dc45c8a791eaa5d02201b5bdba792a5efa268cc9434f7a010b3e78a7f7989fdb1aa148283d1fc510abc0147522102531db3a5883f29bab4241dd0cd726936667bcda445d89bdd22244e828b6993342103148c80a5bdfddb05ff5bcffc397c8ca748d8b435ec6a175bc9d7bfc7fc6f853752ae00000000", "vin": [{"txinwitness": ["", "3045022100efd65115f251cb9c51d4dc35197ff88f806fc5e81b26fe3cd7b83e0fec41fdc802204509480ba3ed0148282645db2bac366dc6ce7022963beb3ebb49cff652df391b01", "3044022045336a8e6c555828207442e7f8b4fee1f49c961aae3209f54dc45c8a791eaa5d02201b5bdba792a5efa268cc9434f7a010b3e78a7f7989fdb1aa148283d1fc510abc01", "522102531db3a5883f29bab4241dd0cd726936667bcda445d89bdd22244e828b6993342103148c80a5bdfddb05ff5bcffc397c8ca748d8b435ec6a175bc9d7bfc7fc6f853752ae"], "sequence": 4294967295, "scriptSig": {"hex": "220020941cfaff8837763dc1f69ff82b6d6553fdea17a41cfc29a04403293eedd8ccc7", "asm": "0020941cfaff8837763dc1f69ff82b6d6553fdea17a41cfc29a04403293eedd8ccc7"}, "vout": 1, "txid": "5dd2abc75678b6af53d19cb303a8ce42c04fedebae7315eabf7fa26a517c748a"}], "txid": "b0928189d82db14f3eeacf9f3f38af16aaf6e073803e762d84acfd938e241b1b", "blocktime": 1537871767, "version": 1, "confirmations": 11495, "time": 1537871767, "locktime": 0, "vsize": 208, "size": 373}