{"hash": "b0998158be2799e541f6dce1dad2d696ace1a299397d31aeadcf8de29a09a09b", "blockhash": "0000000000000000001f76057863aec43deb6fa401d9628bb513d65a8098bfab", "vout": [{"scriptPubKey": {"reqSigs": 1, "hex": "a914818560217be000e2393549e148cda9e70957d4ae87", "addresses": ["3DVrsPA8L2E7HRcD4EaSbkJtzWYBZrMXRd"], "asm": "OP_HASH160 818560217be000e2393549e148cda9e70957d4ae OP_EQUAL", "type": "scripthash"}, "value": 0.000694, "n": 0}, {"scriptPubKey": {"reqSigs": 1, "hex": "76a9147914f0a1488e758d1e10965dc6c26e023e8d738288ac", "addresses": ["1C3Dr9SPKT4s8je3JPLH2FWi9MDE9Vhjap"], "asm": "OP_DUP OP_HASH160 7914f0a1488e758d1e10965dc6c26e023e8d7382 OP_EQUALVERIFY OP_CHECKSIG", "type": "pubkeyhash"}, "value": 0.64128102, "n": 1}], "hex": "01000000014b4fbec9dc7bd0c00fc3ddcccfa93490baa1a7eb688052f201c95f68610f2f18010000006a47304402203c5ae89220ba116c74e5b38bc9e4534d2126a805d23c98059dd3a5da90693c0602203afd419befbd649d624535f87e095d3cbc92d6e80dbf05b230a85d15f65b0946012102bb14f53cecbd845b4dae97d3dd52149001222c80bef240f3755d01d13d2d0939ffffffff02180f01000000000017a914818560217be000e2393549e148cda9e70957d4ae876684d203000000001976a9147914f0a1488e758d1e10965dc6c26e023e8d738288ac00000000", "vin": [{"sequence": 4294967295, "scriptSig": {"hex": "47304402203c5ae89220ba116c74e5b38bc9e4534d2126a805d23c98059dd3a5da90693c0602203afd419befbd649d624535f87e095d3cbc92d6e80dbf05b230a85d15f65b0946012102bb14f53cecbd845b4dae97d3dd52149001222c80bef240f3755d01d13d2d0939", "asm": "304402203c5ae89220ba116c74e5b38bc9e4534d2126a805d23c98059dd3a5da90693c0602203afd419befbd649d624535f87e095d3cbc92d6e80dbf05b230a85d15f65b0946[ALL] 02bb14f53cecbd845b4dae97d3dd52149001222c80bef240f3755d01d13d2d0939"}, "vout": 1, "txid": "182f0f61685fc901f2528068eba7a1ba9034a9cfccddc30fc0d07bdcc9be4f4b"}], "txid": "b0998158be2799e541f6dce1dad2d696ace1a299397d31aeadcf8de29a09a09b", "blocktime": 1537873891, "version": 1, "confirmations": 11478, "time": 1537873891, "locktime": 0, "vsize": 223, "size": 223}