{"hash": "b09ac2e5ee6462e44aeb9583387d54b63aea2ab0445a3cad551a02208c96cc36", "blockhash": "0000000000000000001f76057863aec43deb6fa401d9628bb513d65a8098bfab", "vout": [{"scriptPubKey": {"reqSigs": 1, "hex": "76a91488d924f51033b74a895863a5fb57fd545529df7d88ac", "addresses": ["1DUb2YYbQA1jjaNYzVXLZ7ZioEhLXtbUru"], "asm": "OP_DUP OP_HASH160 88d924f51033b74a895863a5fb57fd545529df7d OP_EQUALVERIFY OP_CHECKSIG", "type": "pubkeyhash"}, "value": 0.40275569, "n": 0}, {"scriptPubKey": {"type": "nulldata", "hex": "6a146f6d6e69000000000000001f00000036994a0900", "asm": "OP_RETURN 6f6d6e69000000000000001f00000036994a0900"}, "value": 0.0, "n": 1}, {"scriptPubKey": {"reqSigs": 1, "hex": "a91465e83e3ae6ce9f31021cf7d2f54026805a79c94a87", "addresses": ["3AyrPT7vurPuvLDaW2VH69p5wNy8Fizbsb"], "asm": "OP_HASH160 65e83e3ae6ce9f31021cf7d2f54026805a79c94a OP_EQUAL", "type": "scripthash"}, "value": 5.4e-06, "n": 2}], "hex": "0100000001734eb40c4a6e6d3a31ecce1b45b7f6f6a05c7a51d1c6298ed92baab18da02f22000000006a473044022016461526c7ae9c453ccf53817d069120c51159c67a53b0eb8a2e3e3fc4d7140802204ea51d7a06a03cef4ca140d841423825f99507e5852e702bb6247db6be57d8350121030888863fcb4cdf5b7d33b40e613af35df8f39d576e7972238b0d396cd3fcc3f2feffffff03718e6602000000001976a91488d924f51033b74a895863a5fb57fd545529df7d88ac0000000000000000166a146f6d6e69000000000000001f00000036994a09001c0200000000000017a91465e83e3ae6ce9f31021cf7d2f54026805a79c94a8714490800", "vin": [{"sequence": 4294967294, "scriptSig": {"hex": "473044022016461526c7ae9c453ccf53817d069120c51159c67a53b0eb8a2e3e3fc4d7140802204ea51d7a06a03cef4ca140d841423825f99507e5852e702bb6247db6be57d8350121030888863fcb4cdf5b7d33b40e613af35df8f39d576e7972238b0d396cd3fcc3f2", "asm": "3044022016461526c7ae9c453ccf53817d069120c51159c67a53b0eb8a2e3e3fc4d7140802204ea51d7a06a03cef4ca140d841423825f99507e5852e702bb6247db6be57d835[ALL] 030888863fcb4cdf5b7d33b40e613af35df8f39d576e7972238b0d396cd3fcc3f2"}, "vout": 0, "txid": "222fa08db1aa2bd98e29c6d1517a5ca0f6f6b7451bceec313a6d6e4a0cb44e73"}], "txid": "b09ac2e5ee6462e44aeb9583387d54b63aea2ab0445a3cad551a02208c96cc36", "blocktime": 1537873891, "version": 1, "confirmations": 11475, "time": 1537873891, "locktime": 542996, "vsize": 254, "size": 254}