{"hash": "b09a8f9d5ac9d01c4bb99586552333b81c63fe708833c9b2988658dc6f76eb93", "blockhash": "0000000000000000000e13cef7c366c0283d82e591d1acd082e914b08063cdf1", "vout": [{"scriptPubKey": {"type": "nulldata", "hex": "6a146f6d6e69000000000000001f00000f952ac43835", "asm": "OP_RETURN 6f6d6e69000000000000001f00000f952ac43835"}, "value": 0.0, "n": 0}, {"scriptPubKey": {"reqSigs": 1, "hex": "76a914cb71a5b80cfc05f2920248186c8d6a4a8f49ee8e88ac", "addresses": ["1KYiKJEfdJtap9QX2v9BXJMpz2SfU4pgZw"], "asm": "OP_DUP OP_HASH160 cb71a5b80cfc05f2920248186c8d6a4a8f49ee8e OP_EQUALVERIFY OP_CHECKSIG", "type": "pubkeyhash"}, "value": 5.46e-06, "n": 1}, {"scriptPubKey": {"reqSigs": 1, "hex": "76a9142f856ac236824a386a8a92e3852262ffdbdfe06c88ac", "addresses": ["15LGazdA4qhK6UpK51EtYtK8V2FNvpnwDr"], "asm": "OP_DUP OP_HASH160 2f856ac236824a386a8a92e3852262ffdbdfe06c OP_EQUALVERIFY OP_CHECKSIG", "type": "pubkeyhash"}, "value": 0.00268578, "n": 2}], "hex": "01000000011a2f38243940c150886d60c822a8ae064acf995f81b10b5fb9bab9734350d061000000006a473044022042e514d1d63284ea47db9913c5502c83d9498cc6e95fa89850a160377284f5c102201570ec5deb53afe626817581f1ab7398f614a9a80b4751894b84a4264e91b2b30121024b94cb6e1142960ccc94090145eaa5998723f57c91d235333e8e92f9c807c484feffffff030000000000000000166a146f6d6e69000000000000001f00000f952ac4383522020000000000001976a914cb71a5b80cfc05f2920248186c8d6a4a8f49ee8e88ac22190400000000001976a9142f856ac236824a386a8a92e3852262ffdbdfe06c88ac10490800", "vin": [{"sequence": 4294967294, "scriptSig": {"hex": "473044022042e514d1d63284ea47db9913c5502c83d9498cc6e95fa89850a160377284f5c102201570ec5deb53afe626817581f1ab7398f614a9a80b4751894b84a4264e91b2b30121024b94cb6e1142960ccc94090145eaa5998723f57c91d235333e8e92f9c807c484", "asm": "3044022042e514d1d63284ea47db9913c5502c83d9498cc6e95fa89850a160377284f5c102201570ec5deb53afe626817581f1ab7398f614a9a80b4751894b84a4264e91b2b3[ALL] 024b94cb6e1142960ccc94090145eaa5998723f57c91d235333e8e92f9c807c484"}, "vout": 0, "txid": "61d0504373b9bab95f0bb1815f99cf4a06aea822c8606d8850c1403924382f1a"}], "txid": "b09a8f9d5ac9d01c4bb99586552333b81c63fe708833c9b2988658dc6f76eb93", "blocktime": 1537871767, "version": 1, "confirmations": 11490, "time": 1537871767, "locktime": 542992, "vsize": 256, "size": 256}