{"hash": "b09d6b6a84637c3a3e30fc1f0e9ab5e611d4c23742d72996ad9b72eb5aea44e5", "blockhash": "0000000000000000000dcc0f55137456b1a82d3642486a52398922ac4d620174", "vout": [{"scriptPubKey": {"reqSigs": 1, "hex": "a914a4ebb0f677ef39642410ce00953d70db330c281c87", "addresses": ["3Gj367uPAm3wWpduAyXe1tqDST5fPHsr8n"], "asm": "OP_HASH160 a4ebb0f677ef39642410ce00953d70db330c281c OP_EQUAL", "type": "scripthash"}, "value": 4.35847334, "n": 0}, {"scriptPubKey": {"reqSigs": 1, "hex": "a91498067d933d641d6d53328e8042257810a277510e87", "addresses": ["3FYrQfv5Cew9cuykNQ47phjtoQZevzUXrh"], "asm": "OP_HASH160 98067d933d641d6d53328e8042257810a277510e OP_EQUAL", "type": "scripthash"}, "value": 2.25148584, "n": 1}], "hex": "01000000017675e8c8f1758a1b2cf92ad8d58aeb49255fc3c1f96e56a3c12b28cb77444c7400000000fdfe0000483045022100837f68c0e70fb80d57f34523d09925c998de4640d6f5d4c9cc169d047970858e02206e01dfef86b7c44b378d41c7ac219b982129c1b03f3c56af16c75b751bacdfba01483045022100f817211d7c4137afbd3e83ef581703e76e8e3f34f2c14883c987dcbc6e6d369902201674d1a8a6b1e2b00ad09ff5df69a766c50d8278cfe2e37e8be3874d41a0f5fc014c69522102d1c888d122bcc3cd37918eab303177040c65fb58eae6bdb14dd59b5d4134467d21025aff0b3cb4490f9877dc909b5bd7c8a6df062afd4aabadcfcd796c1cd224d2da21033facd254d434753bc13aaabc63c74c9490c1e071a231a4ad3a8241b4990fdbae53aeffffffff02a680fa190000000017a914a4ebb0f677ef39642410ce00953d70db330c281c87a87e6b0d0000000017a91498067d933d641d6d53328e8042257810a277510e8700000000", "vin": [{"sequence": 4294967295, "scriptSig": {"hex": "00483045022100837f68c0e70fb80d57f34523d09925c998de4640d6f5d4c9cc169d047970858e02206e01dfef86b7c44b378d41c7ac219b982129c1b03f3c56af16c75b751bacdfba01483045022100f817211d7c4137afbd3e83ef581703e76e8e3f34f2c14883c987dcbc6e6d369902201674d1a8a6b1e2b00ad09ff5df69a766c50d8278cfe2e37e8be3874d41a0f5fc014c69522102d1c888d122bcc3cd37918eab303177040c65fb58eae6bdb14dd59b5d4134467d21025aff0b3cb4490f9877dc909b5bd7c8a6df062afd4aabadcfcd796c1cd224d2da21033facd254d434753bc13aaabc63c74c9490c1e071a231a4ad3a8241b4990fdbae53ae", "asm": "0 3045022100837f68c0e70fb80d57f34523d09925c998de4640d6f5d4c9cc169d047970858e02206e01dfef86b7c44b378d41c7ac219b982129c1b03f3c56af16c75b751bacdfba[ALL] 3045022100f817211d7c4137afbd3e83ef581703e76e8e3f34f2c14883c987dcbc6e6d369902201674d1a8a6b1e2b00ad09ff5df69a766c50d8278cfe2e37e8be3874d41a0f5fc[ALL] 522102d1c888d122bcc3cd37918eab303177040c65fb58eae6bdb14dd59b5d4134467d21025aff0b3cb4490f9877dc909b5bd7c8a6df062afd4aabadcfcd796c1cd224d2da21033facd254d434753bc13aaabc63c74c9490c1e071a231a4ad3a8241b4990fdbae53ae"}, "vout": 0, "txid": "744c4477cb282bc1a3566ef9c1c35f2549eb8ad5d82af92c1b8a75f1c8e87576"}], "txid": "b09d6b6a84637c3a3e30fc1f0e9ab5e611d4c23742d72996ad9b72eb5aea44e5", "blocktime": 1537870268, "version": 1, "confirmations": 11516, "time": 1537870268, "locktime": 0, "vsize": 371, "size": 371}