{"hash": "b0a130688d475a86bd8b98e793fb703a983e9c007a995443add9c127fe3c5c1a", "blockhash": "0000000000000000001f76057863aec43deb6fa401d9628bb513d65a8098bfab", "vout": [{"scriptPubKey": {"reqSigs": 1, "hex": "76a914b3377fcc44cb5d463cbb95ddc94b9b731e48925288ac", "addresses": ["1HLcSVSicU8tNTMVBrf2YUji6hWbsxSco6"], "asm": "OP_DUP OP_HASH160 b3377fcc44cb5d463cbb95ddc94b9b731e489252 OP_EQUALVERIFY OP_CHECKSIG", "type": "pubkeyhash"}, "value": 0.046412, "n": 0}, {"scriptPubKey": {"reqSigs": 1, "hex": "76a914e8647d19d8db2d4b3ba1569e674ef8f8f6cf335888ac", "addresses": ["1NBn9aewoWohDNcATDQQV48rTAhfybrQMx"], "asm": "OP_DUP OP_HASH160 e8647d19d8db2d4b3ba1569e674ef8f8f6cf3358 OP_EQUALVERIFY OP_CHECKSIG", "type": "pubkeyhash"}, "value": 0.00322865, "n": 1}], "hex": "0100000002796f5a66c674f5c547f1566be6117da60314dc7925fa55205849609b0eb21167000000006a47304402200d023ce54ddd41522ce344b5dee59ada5da65559bd25717727c429c538c9bcd0022043ee0d22e2c08a0f9478ff929cbf6ff8916ea863a96cc774bdef7dcfb52ff46d012102697d2bfabacd0aed334dab06b1cca559b82451c294bd5ce36c022478be61a175ffffffff229de1ae14c35e1a8372b3b29e3e013a7bed678b119ab117a019377beb6afddf020000006a473044022015c9962d9480ed95e746495db1a1d0bb7fe33e5129b1f56b13f6e9c5c6eddb4302207d66afed5c5b2586d92268868730615f7808e41800705d81857247c38515fef7012103ea2ffce2b31cdabdfe304e99fc3a8e4a2ba297e3509ab925a3ad9f28cbc98457ffffffff02b0d14600000000001976a914b3377fcc44cb5d463cbb95ddc94b9b731e48925288ac31ed0400000000001976a914e8647d19d8db2d4b3ba1569e674ef8f8f6cf335888ac00000000", "vin": [{"sequence": 4294967295, "scriptSig": {"hex": "47304402200d023ce54ddd41522ce344b5dee59ada5da65559bd25717727c429c538c9bcd0022043ee0d22e2c08a0f9478ff929cbf6ff8916ea863a96cc774bdef7dcfb52ff46d012102697d2bfabacd0aed334dab06b1cca559b82451c294bd5ce36c022478be61a175", "asm": "304402200d023ce54ddd41522ce344b5dee59ada5da65559bd25717727c429c538c9bcd0022043ee0d22e2c08a0f9478ff929cbf6ff8916ea863a96cc774bdef7dcfb52ff46d[ALL] 02697d2bfabacd0aed334dab06b1cca559b82451c294bd5ce36c022478be61a175"}, "vout": 0, "txid": "6711b20e9b6049582055fa2579dc1403a67d11e66b56f147c5f574c6665a6f79"}, {"sequence": 4294967295, "scriptSig": {"hex": "473044022015c9962d9480ed95e746495db1a1d0bb7fe33e5129b1f56b13f6e9c5c6eddb4302207d66afed5c5b2586d92268868730615f7808e41800705d81857247c38515fef7012103ea2ffce2b31cdabdfe304e99fc3a8e4a2ba297e3509ab925a3ad9f28cbc98457", "asm": "3044022015c9962d9480ed95e746495db1a1d0bb7fe33e5129b1f56b13f6e9c5c6eddb4302207d66afed5c5b2586d92268868730615f7808e41800705d81857247c38515fef7[ALL] 03ea2ffce2b31cdabdfe304e99fc3a8e4a2ba297e3509ab925a3ad9f28cbc98457"}, "vout": 2, "txid": "dffd6aeb7b3719a017b19a118b67ed7b3a013e9eb2b372831a5ec314aee19d22"}], "txid": "b0a130688d475a86bd8b98e793fb703a983e9c007a995443add9c127fe3c5c1a", "blocktime": 1537873891, "version": 1, "confirmations": 11478, "time": 1537873891, "locktime": 0, "vsize": 372, "size": 372}