{"hash": "b0a24eca1c6017b8e3f5310afa959a60647546799c6300368ac70ba6a3042448", "blockhash": "0000000000000000000dcc0f55137456b1a82d3642486a52398922ac4d620174", "vout": [{"scriptPubKey": {"reqSigs": 1, "hex": "76a914525f0cf0c8ae45f266102d3d19da226c280276a088ac", "addresses": ["18WYGxZnvupA1iSCQ6WFFe4rsrebbmmRcu"], "asm": "OP_DUP OP_HASH160 525f0cf0c8ae45f266102d3d19da226c280276a0 OP_EQUALVERIFY OP_CHECKSIG", "type": "pubkeyhash"}, "value": 0.02942202, "n": 0}, {"scriptPubKey": {"reqSigs": 1, "hex": "76a914ec608fc2be961a9f89396f19f0f7b082e9c26c6188ac", "addresses": ["1NYr9VFoHYeFgSm7kWaw1SAE7yL1zdkywZ"], "asm": "OP_DUP OP_HASH160 ec608fc2be961a9f89396f19f0f7b082e9c26c61 OP_EQUALVERIFY OP_CHECKSIG", "type": "pubkeyhash"}, "value": 0.2487012, "n": 1}], "hex": "01000000014e55ccadc74dd4f056596972d779b9e66692c7d29057bae488a8430a1d9c11f3000000006a4730440220534e38363e92e771ee159b2569358306a6a6e9476b8d47e088f8ed19f2e5f99c02200d3840831f78f0acd59af367eb49cdef7469b9eeb33d1573cb85382db6b4dd65012102e1fed678ab4b7468ac2b848da5b3de8816a5dadb85a3ef7ec54edf058ec98957ffffffff02fae42c00000000001976a914525f0cf0c8ae45f266102d3d19da226c280276a088ace87c7b01000000001976a914ec608fc2be961a9f89396f19f0f7b082e9c26c6188ac00000000", "vin": [{"sequence": 4294967295, "scriptSig": {"hex": "4730440220534e38363e92e771ee159b2569358306a6a6e9476b8d47e088f8ed19f2e5f99c02200d3840831f78f0acd59af367eb49cdef7469b9eeb33d1573cb85382db6b4dd65012102e1fed678ab4b7468ac2b848da5b3de8816a5dadb85a3ef7ec54edf058ec98957", "asm": "30440220534e38363e92e771ee159b2569358306a6a6e9476b8d47e088f8ed19f2e5f99c02200d3840831f78f0acd59af367eb49cdef7469b9eeb33d1573cb85382db6b4dd65[ALL] 02e1fed678ab4b7468ac2b848da5b3de8816a5dadb85a3ef7ec54edf058ec98957"}, "vout": 0, "txid": "f3119c1d0a43a888e4ba5790d2c79266e6b979d772695956f0d44dc7adcc554e"}], "txid": "b0a24eca1c6017b8e3f5310afa959a60647546799c6300368ac70ba6a3042448", "blocktime": 1537870268, "version": 1, "confirmations": 11518, "time": 1537870268, "locktime": 0, "vsize": 225, "size": 225}