{"hash": "b0a4436aa365db8f4263d9924db7e2d1950e1462068031518c5105929127ab42", "blockhash": "0000000000000000001f76057863aec43deb6fa401d9628bb513d65a8098bfab", "vout": [{"scriptPubKey": {"reqSigs": 1, "hex": "76a914ce12149192d54902a5fc6e6756222313c1ff138988ac", "addresses": ["1KnbrmArP9adDqPnDHbzZSdAGEoE1cBsir"], "asm": "OP_DUP OP_HASH160 ce12149192d54902a5fc6e6756222313c1ff1389 OP_EQUALVERIFY OP_CHECKSIG", "type": "pubkeyhash"}, "value": 0.00051893, "n": 0}, {"scriptPubKey": {"reqSigs": 1, "hex": "76a9149bcf0b778beab5f9f8e87e75e8d8060a75e5dbe188ac", "addresses": ["1FCqmTa8NuFUBsMHDUEYbAFZs94x47qb1Y"], "asm": "OP_DUP OP_HASH160 9bcf0b778beab5f9f8e87e75e8d8060a75e5dbe1 OP_EQUALVERIFY OP_CHECKSIG", "type": "pubkeyhash"}, "value": 0.00468214, "n": 1}], "hex": "0100000002c72ead90d8aaca774576f5817c3fb7ec7b8e884e90d0394b2addb156b04351c4010000006b483045022100e6c7093c24ce66fcca2de6b69f28e1449639891678e974719c9cad47b7c69db80220776fc9453d5b42afba5610ccee984051739f0469d84531b231d8fc113a5c7fad0121020b7d276ef2cbf77267b5b00ae20e6ffeeb78df1540b0315544805f433971d5a5ffffffffc7182e49bf4a19ee6e065df4d81e54dd51f557755c8ecbda35e79fb29432edc8000000006a4730440220342f3959affd96271b3c0334f819d5754ab84a41b373a553e5e2552035eb60150220635e0ff7f24cc889b68dcf242072d4778296e853ea03c353d2ba30764ff479bd012103e2da8efcbf88bf3a9aa6c65bb6822e0219650fb65d5357e0a3b433a23a92912effffffff02b5ca0000000000001976a914ce12149192d54902a5fc6e6756222313c1ff138988acf6240700000000001976a9149bcf0b778beab5f9f8e87e75e8d8060a75e5dbe188ac00000000", "vin": [{"sequence": 4294967295, "scriptSig": {"hex": "483045022100e6c7093c24ce66fcca2de6b69f28e1449639891678e974719c9cad47b7c69db80220776fc9453d5b42afba5610ccee984051739f0469d84531b231d8fc113a5c7fad0121020b7d276ef2cbf77267b5b00ae20e6ffeeb78df1540b0315544805f433971d5a5", "asm": "3045022100e6c7093c24ce66fcca2de6b69f28e1449639891678e974719c9cad47b7c69db80220776fc9453d5b42afba5610ccee984051739f0469d84531b231d8fc113a5c7fad[ALL] 020b7d276ef2cbf77267b5b00ae20e6ffeeb78df1540b0315544805f433971d5a5"}, "vout": 1, "txid": "c45143b056b1dd2a4b39d0904e888e7becb73f7c81f5764577caaad890ad2ec7"}, {"sequence": 4294967295, "scriptSig": {"hex": "4730440220342f3959affd96271b3c0334f819d5754ab84a41b373a553e5e2552035eb60150220635e0ff7f24cc889b68dcf242072d4778296e853ea03c353d2ba30764ff479bd012103e2da8efcbf88bf3a9aa6c65bb6822e0219650fb65d5357e0a3b433a23a92912e", "asm": "30440220342f3959affd96271b3c0334f819d5754ab84a41b373a553e5e2552035eb60150220635e0ff7f24cc889b68dcf242072d4778296e853ea03c353d2ba30764ff479bd[ALL] 03e2da8efcbf88bf3a9aa6c65bb6822e0219650fb65d5357e0a3b433a23a92912e"}, "vout": 0, "txid": "c8ed3294b29fe735dacb8e5c7557f551dd541ed8f45d066eee194abf492e18c7"}], "txid": "b0a4436aa365db8f4263d9924db7e2d1950e1462068031518c5105929127ab42", "blocktime": 1537873891, "version": 1, "confirmations": 11478, "time": 1537873891, "locktime": 0, "vsize": 373, "size": 373}