{"hash": "b0a40bb3fb04562006d32814888ebf541e30beba557cc185e091b77ba218dbe0", "blockhash": "0000000000000000001f76057863aec43deb6fa401d9628bb513d65a8098bfab", "vout": [{"scriptPubKey": {"reqSigs": 1, "hex": "76a914a333799b60f5f7f06fc24131a2785c333c1ab21488ac", "addresses": ["1FsvopKqidLvKcNWkutxBSrW3gxnjWSJWA"], "asm": "OP_DUP OP_HASH160 a333799b60f5f7f06fc24131a2785c333c1ab214 OP_EQUALVERIFY OP_CHECKSIG", "type": "pubkeyhash"}, "value": 0.02367532, "n": 0}, {"scriptPubKey": {"reqSigs": 1, "hex": "76a91419ba38c2d0b4b3fb57872a8060126218e551b52b88ac", "addresses": ["13M2yi4Ki274RupcMpeEj93FCFYykvc6Wb"], "asm": "OP_DUP OP_HASH160 19ba38c2d0b4b3fb57872a8060126218e551b52b OP_EQUALVERIFY OP_CHECKSIG", "type": "pubkeyhash"}, "value": 0.62738677, "n": 1}], "hex": "01000000048a602de4a34852ee78ef7d70ddc3bc1ef3ca0f9a28c486d9cf4be353a3484830010000006b483045022100dca8d3044b947cdfab2b6458b22c8738e9f6d62ed30d5609a99e66e7f9f73571022051208363146d577a5f25dfa7f7f706ab9223d264334206b6177ec53518a3825e01210399eb0ea0a4dfe807c444e37d12d587f8a975dcd1a783730585aab2cf077919b1ffffffffa053fb092b684f0657d301021f8ad7d7bab5f73951d482b2a3f1dff5fe675bad000000006b483045022100fc47532b07c94fcf47afa41d76d7958db8176ae9a935562403a33122974d8a0802200d429693b4ca3809f5ecfa8e37b79752af0e211382a89a1dcbf6b8399056ef82012102868c9259fa0e2ce457397895c4b7d364046532a23ae2101919a5fa89557bc40fffffffff1bba2d57b660fa045d57cdf1d86e67c5ce9daa486625842cfb810ea349f81dc6010000006a473044022075fac762f0c455864ffdf0f95f5049df099979adb212cb31da460fff965047b0022030d0305f69d0463b399a91d9348ee963d022fa5c97ce685031da75f58edd27b101210230fe6539c936eadef785756ddeafe8e4ee37828a9fc43692a24739d76b9d3558ffffffffee0cacb27f7eef00ea025b7bf95d315089708571338651557534e7bf86d5e4ed000000006b4830450221009cd25773e122cece3470b45e61f52c0e68320a407e565466200690b4c4ce8808022067ebfa1a01e7e698d8a2f463408b083e2a66bcbdc4ce0334693d64e14291d7bd012102c65adf080e56974f3e85d94cb0813f434ada5da02a7c47dfc5594d3ad453c15bffffffff022c202400000000001976a914a333799b60f5f7f06fc24131a2785c333c1ab21488acf550bd03000000001976a91419ba38c2d0b4b3fb57872a8060126218e551b52b88ac00000000", "vin": [{"sequence": 4294967295, "scriptSig": {"hex": "483045022100dca8d3044b947cdfab2b6458b22c8738e9f6d62ed30d5609a99e66e7f9f73571022051208363146d577a5f25dfa7f7f706ab9223d264334206b6177ec53518a3825e01210399eb0ea0a4dfe807c444e37d12d587f8a975dcd1a783730585aab2cf077919b1", "asm": "3045022100dca8d3044b947cdfab2b6458b22c8738e9f6d62ed30d5609a99e66e7f9f73571022051208363146d577a5f25dfa7f7f706ab9223d264334206b6177ec53518a3825e[ALL] 0399eb0ea0a4dfe807c444e37d12d587f8a975dcd1a783730585aab2cf077919b1"}, "vout": 1, "txid": "304848a353e34bcfd986c4289a0fcaf31ebcc3dd707def78ee5248a3e42d608a"}, {"sequence": 4294967295, "scriptSig": {"hex": "483045022100fc47532b07c94fcf47afa41d76d7958db8176ae9a935562403a33122974d8a0802200d429693b4ca3809f5ecfa8e37b79752af0e211382a89a1dcbf6b8399056ef82012102868c9259fa0e2ce457397895c4b7d364046532a23ae2101919a5fa89557bc40f", "asm": "3045022100fc47532b07c94fcf47afa41d76d7958db8176ae9a935562403a33122974d8a0802200d429693b4ca3809f5ecfa8e37b79752af0e211382a89a1dcbf6b8399056ef82[ALL] 02868c9259fa0e2ce457397895c4b7d364046532a23ae2101919a5fa89557bc40f"}, "vout": 0, "txid": "ad5b67fef5dff1a3b282d45139f7b5bad7d78a1f0201d357064f682b09fb53a0"}, {"sequence": 4294967295, "scriptSig": {"hex": "473044022075fac762f0c455864ffdf0f95f5049df099979adb212cb31da460fff965047b0022030d0305f69d0463b399a91d9348ee963d022fa5c97ce685031da75f58edd27b101210230fe6539c936eadef785756ddeafe8e4ee37828a9fc43692a24739d76b9d3558", "asm": "3044022075fac762f0c455864ffdf0f95f5049df099979adb212cb31da460fff965047b0022030d0305f69d0463b399a91d9348ee963d022fa5c97ce685031da75f58edd27b1[ALL] 0230fe6539c936eadef785756ddeafe8e4ee37828a9fc43692a24739d76b9d3558"}, "vout": 1, "txid": "c61df849a30e81fb2c84256648aa9dcec5676ed8f1cd575d04fa60b6572dba1b"}, {"sequence": 4294967295, "scriptSig": {"hex": "4830450221009cd25773e122cece3470b45e61f52c0e68320a407e565466200690b4c4ce8808022067ebfa1a01e7e698d8a2f463408b083e2a66bcbdc4ce0334693d64e14291d7bd012102c65adf080e56974f3e85d94cb0813f434ada5da02a7c47dfc5594d3ad453c15b", "asm": "30450221009cd25773e122cece3470b45e61f52c0e68320a407e565466200690b4c4ce8808022067ebfa1a01e7e698d8a2f463408b083e2a66bcbdc4ce0334693d64e14291d7bd[ALL] 02c65adf080e56974f3e85d94cb0813f434ada5da02a7c47dfc5594d3ad453c15b"}, "vout": 0, "txid": "ede4d586bfe73475555186337185708950315df97b5b02ea00ef7e7fb2ac0cee"}], "txid": "b0a40bb3fb04562006d32814888ebf541e30beba557cc185e091b77ba218dbe0", "blocktime": 1537873891, "version": 1, "confirmations": 11475, "time": 1537873891, "locktime": 0, "vsize": 669, "size": 669}