{"hash": "8ba56b2dfe780fb71e5694bb75ccf305be3853b307465bd04182194304c124c0", "blockhash": "0000000000000000001f0ddff1eddb255c1121bcd4da4f1bc9a0da00cae72433", "vout": [{"scriptPubKey": {"reqSigs": 1, "hex": "a914275506e19e81b05de3229dbf3d12bdf2a7ecb67687", "addresses": ["35Gz8o9A7Qwwt5HgwvXU53jt1bkDpV2oxL"], "asm": "OP_HASH160 275506e19e81b05de3229dbf3d12bdf2a7ecb676 OP_EQUAL", "type": "scripthash"}, "value": 0.0457183, "n": 0}, {"scriptPubKey": {"reqSigs": 1, "hex": "a9143c73795e86e2ea580f95ff856fb59f24a17f947487", "addresses": ["37CeoLMsmeTxEfFxqLxeeakkYpgyBXsjem"], "asm": "OP_HASH160 3c73795e86e2ea580f95ff856fb59f24a17f9474 OP_EQUAL", "type": "scripthash"}, "value": 0.062, "n": 1}], "hex": "02000000000101117f6678c37d286c152990b8a55274b460986469a6805642007bb1a277f706c000000000171600147b3aa71baad1094823f8ad4b1193ce572aa7e3e4fdffffff02b6c245000000000017a914275506e19e81b05de3229dbf3d12bdf2a7ecb67687c09a5e000000000017a9143c73795e86e2ea580f95ff856fb59f24a17f94748702483045022100b6494a80cc261434db0724ded4fbb7f6e698b311e111b8a7010aa75f055b2afb022070d570c493cc58b3006cfbfc722ec1fa3e2b073a347079f561eb2d5186f35349012102f848dd2c06221ca81b3265db2a6e5da62eeff903b469b42086a9395f5ee93d3211490800", "vin": [{"txinwitness": ["3045022100b6494a80cc261434db0724ded4fbb7f6e698b311e111b8a7010aa75f055b2afb022070d570c493cc58b3006cfbfc722ec1fa3e2b073a347079f561eb2d5186f3534901", "02f848dd2c06221ca81b3265db2a6e5da62eeff903b469b42086a9395f5ee93d32"], "sequence": 4294967293, "scriptSig": {"hex": "1600147b3aa71baad1094823f8ad4b1193ce572aa7e3e4", "asm": "00147b3aa71baad1094823f8ad4b1193ce572aa7e3e4"}, "vout": 0, "txid": "c006f777a2b17b00425680a669649860b47452a5b89029156c287dc378667f11"}], "txid": "b0a920b982e60b8ed5e4f9407b470d51a51cd64025789d89a860b448a16f22e6", "blocktime": 1537872018, "version": 2, "confirmations": 11489, "time": 1537872018, "locktime": 542993, "vsize": 166, "size": 248}