{"hash": "f98be53f487d1d685ce1b83dcde466653200f9ce1e4fe65b2a215d7e80a2ce80", "blockhash": "0000000000000000001f76057863aec43deb6fa401d9628bb513d65a8098bfab", "vout": [{"scriptPubKey": {"reqSigs": 1, "hex": "76a914be99126afbc92d7f8741320dafeb43f289c56c3588ac", "addresses": ["1JNnm5EUA2bxvbqo61Jh5qAgFgsbW6VuJL"], "asm": "OP_DUP OP_HASH160 be99126afbc92d7f8741320dafeb43f289c56c35 OP_EQUALVERIFY OP_CHECKSIG", "type": "pubkeyhash"}, "value": 0.00793057, "n": 0}, {"scriptPubKey": {"reqSigs": 1, "hex": "a91430f8b9a6ff6dfd2820f4221813d459e3cac2d23f87", "addresses": ["369xKUtz6oAgJF6GexP3si97adcPddeuQY"], "asm": "OP_HASH160 30f8b9a6ff6dfd2820f4221813d459e3cac2d23f OP_EQUAL", "type": "scripthash"}, "value": 2.56412217, "n": 1}], "hex": "02000000000101ed6a4c63fd29322f804abfa72797c9f4417e6df4c18b7b545010e3981919365d0000000017160014689afac0a87f188d5b612b46c2f041df8c731912feffffff02e1190c00000000001976a914be99126afbc92d7f8741320dafeb43f289c56c3588ac398a480f0000000017a91430f8b9a6ff6dfd2820f4221813d459e3cac2d23f870247304402206eb1349283ba1d5adf7e5738090d7bb2c5b68d699b3d53149b00c530b667459502204b55884ecce49cef7904bde1b371735c4468409738611edf78ac3c8e5039ede4012102f9666fe2635f83246777cbf88b711ef84704b64accdfeb6051fafdca6f52f86a14490800", "vin": [{"txinwitness": ["304402206eb1349283ba1d5adf7e5738090d7bb2c5b68d699b3d53149b00c530b667459502204b55884ecce49cef7904bde1b371735c4468409738611edf78ac3c8e5039ede401", "02f9666fe2635f83246777cbf88b711ef84704b64accdfeb6051fafdca6f52f86a"], "sequence": 4294967294, "scriptSig": {"hex": "160014689afac0a87f188d5b612b46c2f041df8c731912", "asm": "0014689afac0a87f188d5b612b46c2f041df8c731912"}, "vout": 0, "txid": "5d36191998e31050547b8bc1f46d7e41f4c99727a7bf4a802f3229fd634c6aed"}], "txid": "b0aac0782a09ad6b76df1c0621a57101d6c356b630948596fe36309ca0c18a5d", "blocktime": 1537873891, "version": 2, "confirmations": 11478, "time": 1537873891, "locktime": 542996, "vsize": 168, "size": 249}