{"hash": "b0b01b5cb1be8d8857a2b5554d33f48e7cbf18110a9de896966a74919e35e362", "blockhash": "0000000000000000001f76057863aec43deb6fa401d9628bb513d65a8098bfab", "vout": [{"scriptPubKey": {"reqSigs": 1, "hex": "76a914200f6b667c4d95a4865f72720190d9f467ee43c088ac", "addresses": ["13vX6WNntB6zVtf7QxYdFU7fSTBypRH7JA"], "asm": "OP_DUP OP_HASH160 200f6b667c4d95a4865f72720190d9f467ee43c0 OP_EQUALVERIFY OP_CHECKSIG", "type": "pubkeyhash"}, "value": 0.000781, "n": 0}, {"scriptPubKey": {"reqSigs": 1, "hex": "76a914cbc7c1e874e0d95269b0f365c58d3e1b5a666a9688ac", "addresses": ["1KaVULJNQsCywHrDo7S2y22TiFDEepycyW"], "asm": "OP_DUP OP_HASH160 cbc7c1e874e0d95269b0f365c58d3e1b5a666a96 OP_EQUALVERIFY OP_CHECKSIG", "type": "pubkeyhash"}, "value": 0.00048561, "n": 1}], "hex": "010000000133b0f0615dd2fe7c2003acb983432b3a0ef3654808c1616b80133a0b47d07488000000006a47304402201ef952c22b3fc0db99d966197ca511e27f54cd4dff1551bce107acf0b28d6aec02201b560243cf046d5c582f44d2f87df3dbcf9cb8b5ca3151bfa48ad81929819d1f0121036993a81685a8cd24404ebb4665a7ced3b14f0447ab0cca39cfdf3b0e459131c3ffffffff0214310100000000001976a914200f6b667c4d95a4865f72720190d9f467ee43c088acb1bd0000000000001976a914cbc7c1e874e0d95269b0f365c58d3e1b5a666a9688ac00000000", "vin": [{"sequence": 4294967295, "scriptSig": {"hex": "47304402201ef952c22b3fc0db99d966197ca511e27f54cd4dff1551bce107acf0b28d6aec02201b560243cf046d5c582f44d2f87df3dbcf9cb8b5ca3151bfa48ad81929819d1f0121036993a81685a8cd24404ebb4665a7ced3b14f0447ab0cca39cfdf3b0e459131c3", "asm": "304402201ef952c22b3fc0db99d966197ca511e27f54cd4dff1551bce107acf0b28d6aec02201b560243cf046d5c582f44d2f87df3dbcf9cb8b5ca3151bfa48ad81929819d1f[ALL] 036993a81685a8cd24404ebb4665a7ced3b14f0447ab0cca39cfdf3b0e459131c3"}, "vout": 0, "txid": "8874d0470b3a13806b61c1084865f30e3a2b4383b9ac03207cfed25d61f0b033"}], "txid": "b0b01b5cb1be8d8857a2b5554d33f48e7cbf18110a9de896966a74919e35e362", "blocktime": 1537873891, "version": 1, "confirmations": 11478, "time": 1537873891, "locktime": 0, "vsize": 225, "size": 225}