{"hash": "f82f6f0eca1835fcbe3fdd3d421c82c9f2b5afe6b6553fdfea8a790ed1f2d5cc", "blockhash": "0000000000000000000e13cef7c366c0283d82e591d1acd082e914b08063cdf1", "vout": [{"scriptPubKey": {"reqSigs": 1, "hex": "76a914989ed7a09524089a66a0f9119aec7f90cba53e3988ac", "addresses": ["1EuyziRu6QhUSj7poT5SXM82fqGK8nmvS3"], "asm": "OP_DUP OP_HASH160 989ed7a09524089a66a0f9119aec7f90cba53e39 OP_EQUALVERIFY OP_CHECKSIG", "type": "pubkeyhash"}, "value": 0.00090605, "n": 0}, {"scriptPubKey": {"reqSigs": 1, "hex": "a9141ef8828e72d72a8314b0fdbc8ce10f0401d6c02387", "addresses": ["34Wmu5KFTd5pDR1V8Av7UaatVTurdjpoPU"], "asm": "OP_HASH160 1ef8828e72d72a8314b0fdbc8ce10f0401d6c023 OP_EQUAL", "type": "scripthash"}, "value": 0.00118708, "n": 1}], "hex": "01000000000101e44c8e5b238ad66a4d01b53b9a9630a6fe9efcc4f1851d0ee6c8f4c0bd57b5020100000023220020e0b6457c89caa8596820c62381c2009d628f3a36c52eadf413267f9bc6e1a31affffffff02ed610100000000001976a914989ed7a09524089a66a0f9119aec7f90cba53e3988acb4cf01000000000017a9141ef8828e72d72a8314b0fdbc8ce10f0401d6c0238704004830450221008939957cbd724cbcc8e4d0adc7606894d3712012600b489c6a96f0997cdf5820022064c911ff37e805647ab50bcb04d1693a9b38e5e3ea9f72fd31e52d8d1d8a1d5e01483045022100d0142fa292a0f9e91cec1d1ee856730de01b15065480d79cd09913f31699137102202f0bd79cd02b7a901e4e41f5bc7a0a36cb0cb44a9d0aec840c4b1d1b8835410f0147522102662df3c75a4f151bb0d69b086cd19ab6764e52eeb055398aa45f450439053f512103871fc2ca08e6950b38867e8e6a0e94ee625223d3aa0df5c65f414c6d784467e252ae00000000", "vin": [{"txinwitness": ["", "30450221008939957cbd724cbcc8e4d0adc7606894d3712012600b489c6a96f0997cdf5820022064c911ff37e805647ab50bcb04d1693a9b38e5e3ea9f72fd31e52d8d1d8a1d5e01", "3045022100d0142fa292a0f9e91cec1d1ee856730de01b15065480d79cd09913f31699137102202f0bd79cd02b7a901e4e41f5bc7a0a36cb0cb44a9d0aec840c4b1d1b8835410f01", "522102662df3c75a4f151bb0d69b086cd19ab6764e52eeb055398aa45f450439053f512103871fc2ca08e6950b38867e8e6a0e94ee625223d3aa0df5c65f414c6d784467e252ae"], "sequence": 4294967295, "scriptSig": {"hex": "220020e0b6457c89caa8596820c62381c2009d628f3a36c52eadf413267f9bc6e1a31a", "asm": "0020e0b6457c89caa8596820c62381c2009d628f3a36c52eadf413267f9bc6e1a31a"}, "vout": 1, "txid": "02b557bdc0f4c8e60e1d85f1c4fc9efea630969a3bb5014d6ad68a235b8e4ce4"}], "txid": "b0b01bb0362665624c3a0bb9a89255d4021b4f30af91c2ce6c86b10184550b1d", "blocktime": 1537871767, "version": 1, "confirmations": 11495, "time": 1537871767, "locktime": 0, "vsize": 208, "size": 374}