{"hash": "4123fa821ee9f3507756fc3631a2fd666eab017b2c09eea2f09b7e3e5e000072", "blockhash": "0000000000000000000baef3f32e3676a92c3b2e5da21b426e4f302fc371ce76", "vout": [{"scriptPubKey": {"reqSigs": 1, "hex": "a91436410476710fa8c648772ccc1e3bf7744c15d41487", "addresses": ["36dtJPkGKXSYrK3Mh3n8tGskycC5CfCMwS"], "asm": "OP_HASH160 36410476710fa8c648772ccc1e3bf7744c15d414 OP_EQUAL", "type": "scripthash"}, "value": 0.012401, "n": 0}, {"scriptPubKey": {"reqSigs": 1, "hex": "a9149fedd0435a5346d19e10dbf067501f04f6a02d3687", "addresses": ["3GGeFcpTvbKcU9so2Fz4C8o4V2C9Du9Ngp"], "asm": "OP_HASH160 9fedd0435a5346d19e10dbf067501f04f6a02d36 OP_EQUAL", "type": "scripthash"}, "value": 4.60544694, "n": 1}], "hex": "010000000001019688af4c5e61a9dd856d0b3962784abd5f94639db45be4dd96acd6d9758c107a0100000023220020bdce0b87be1099509aee666bf280d91936d77265b9626a3811efa68c794ec6d9ffffffff0224ec12000000000017a91436410476710fa8c648772ccc1e3bf7744c15d41487b65a731b0000000017a9149fedd0435a5346d19e10dbf067501f04f6a02d36870400483045022100e22dfbfd6b3e85f7e72099821c0a46f3e5793d3ec369ce60fd521b423eab87ea0220758148ebd86d8cc3877d15fc4dae4bb60b3615914b9ffbc7fcccfb3349410a3601483045022100bfd3ca0a402e17a2d0906cfea4db9d97ea7e0652a3786e0145ec718003376bdb02205638557e1fe5be30b11331ac94f74e226d12ea866ce305a52a464093b3f3aeb10147522103eb143395e1f431f678a743f1647f1b19b73b3255e6eb16378dc614c75af6729821022a8a912ad76544ca20f666a2071879d22db3f19b68028bfb6e15e148dbbe91a252ae00000000", "vin": [{"txinwitness": ["", "3045022100e22dfbfd6b3e85f7e72099821c0a46f3e5793d3ec369ce60fd521b423eab87ea0220758148ebd86d8cc3877d15fc4dae4bb60b3615914b9ffbc7fcccfb3349410a3601", "3045022100bfd3ca0a402e17a2d0906cfea4db9d97ea7e0652a3786e0145ec718003376bdb02205638557e1fe5be30b11331ac94f74e226d12ea866ce305a52a464093b3f3aeb101", "522103eb143395e1f431f678a743f1647f1b19b73b3255e6eb16378dc614c75af6729821022a8a912ad76544ca20f666a2071879d22db3f19b68028bfb6e15e148dbbe91a252ae"], "sequence": 4294967295, "scriptSig": {"hex": "220020bdce0b87be1099509aee666bf280d91936d77265b9626a3811efa68c794ec6d9", "asm": "0020bdce0b87be1099509aee666bf280d91936d77265b9626a3811efa68c794ec6d9"}, "vout": 1, "txid": "7a108c75d9d6ac96dde45bb49d63945fbd4a7862390b6d85dda9615e4caf8896"}], "txid": "b0bf1f7fd9e874429e43d9d32b532ab582312ad53e67c9c5044e1a93fea17177", "blocktime": 1537876114, "version": 1, "confirmations": 11460, "time": 1537876114, "locktime": 0, "vsize": 206, "size": 372}