{"hash": "46afb8bb41b1dae7302e77e56e11caaa1e3dc859f144f8a9ae4d3cad7463a19e", "blockhash": "00000000000000000024a2167bbff67b0be802c0b01cdd79e6331c2be6459f87", "vout": [{"scriptPubKey": {"reqSigs": 1, "hex": "a91469f373b748975f77ab6028e57548c78634b1139187", "addresses": ["3BMEX2cDTXXTaAeqL9kGroyH4HgaqULeW7"], "asm": "OP_HASH160 69f373b748975f77ab6028e57548c78634b11391 OP_EQUAL", "type": "scripthash"}, "value": 0.0332823, "n": 0}, {"scriptPubKey": {"reqSigs": 1, "hex": "a914474f4b12c5848288c93f4298b1b8268bb5a4855e87", "addresses": ["38C4tZBXVG6QtjXXLZ43ardFmuxefu6HYP"], "asm": "OP_HASH160 474f4b12c5848288c93f4298b1b8268bb5a4855e OP_EQUAL", "type": "scripthash"}, "value": 1.64720811, "n": 1}], "hex": "02000000000101ae4835c4ae09387328d439da64b01423a94b72113f9e89a111c72c47b0cda0c801000000171600143493fac61213abe839fab5ed53a9122fe1fe5e08feffffff02e6c832000000000017a91469f373b748975f77ab6028e57548c78634b1139187ab70d1090000000017a914474f4b12c5848288c93f4298b1b8268bb5a4855e8702473044022066f3f096a3aa06035ffa27d80373245dc79c3137b7e0331991771c9c327318fe0220252ac16fcd43637e02d0ba15718c86fa689e07537a9e3f1bbd29e8781bbc64cf012103a87fe307b3be827da344ee1cca62c9d1086dc984f4d3622e101016cd7ad302340c490800", "vin": [{"txinwitness": ["3044022066f3f096a3aa06035ffa27d80373245dc79c3137b7e0331991771c9c327318fe0220252ac16fcd43637e02d0ba15718c86fa689e07537a9e3f1bbd29e8781bbc64cf01", "03a87fe307b3be827da344ee1cca62c9d1086dc984f4d3622e101016cd7ad30234"], "sequence": 4294967294, "scriptSig": {"hex": "1600143493fac61213abe839fab5ed53a9122fe1fe5e08", "asm": "00143493fac61213abe839fab5ed53a9122fe1fe5e08"}, "vout": 1, "txid": "c8a0cdb0472cc711a1899e3f11724ba92314b064da39d428733809aec43548ae"}], "txid": "b0bf7e9d7e9850cc35bfedc6e5339c41281badbed1224fd1d4e034c57995c835", "blocktime": 1537870564, "version": 2, "confirmations": 11515, "time": 1537870564, "locktime": 542988, "vsize": 166, "size": 247}