{"hash": "8bebd1e57e74146df6b4d770584f2bee2e55bceaf784079ff4a813a5be721a23", "blockhash": "00000000000000000018f53835495a110e01622372bf6ae95dc86f2b0ab887b0", "vout": [{"scriptPubKey": {"reqSigs": 1, "hex": "a91457722de40ed426e2ac5432be4094aac576d2ef8687", "addresses": ["39fPVYgr7k7U2tEPHZaLgLwByA4WMeB3r1"], "asm": "OP_HASH160 57722de40ed426e2ac5432be4094aac576d2ef86 OP_EQUAL", "type": "scripthash"}, "value": 0.03, "n": 0}, {"scriptPubKey": {"reqSigs": 1, "hex": "a9140de60ed9d29ef7c8f20579fc970c7657ae4d3f0a87", "addresses": ["32xWJkMsHfmQ42yFJYDiXFS17C9RenqRoJ"], "asm": "OP_HASH160 0de60ed9d29ef7c8f20579fc970c7657ae4d3f0a OP_EQUAL", "type": "scripthash"}, "value": 0.10437735, "n": 1}], "hex": "01000000000102545269445347274e35d2122b96c82c9456e8e64d30b6657541a38ff4714b6c550100000023220020641644e17060a93cdcd072fda4b73b95619f2d22b23b25ffe15bbae16022d915ffffffffdcfdb07f306b491d8dd9fd59af3f9e5d3087397cb3565df8e7d73e1444099f1c0100000023220020d98f34b1e89c21024bec93b198e50e167e3383dc0bb71ba6f36707f6ab0f35f9ffffffff02c0c62d000000000017a91457722de40ed426e2ac5432be4094aac576d2ef868767449f000000000017a9140de60ed9d29ef7c8f20579fc970c7657ae4d3f0a870400483045022100d46cd9557d2b2ef096a29dc2a763d839619dd00f3921b5272368e5a47bd5cbba02204427a765a31f545d3f100e8aa06c2b1e4c40661d6d4b75c314fc62f09e88b1a2014730440220494418108cc1ce3800a0a27663f3bb754f8815c7e63626c8ac0307e996197a8202200fad852c5674d6b72b389aad2f4aa7901017085776e9a9804f7132ee669f5eeb01475221024ba052b27670e74c6f2ec6d94ab577adef904147171c59622d4bbf727457746721038f2c7ecee34c843be9d886e50ce79e5dc40a1694c0417d60b35340f292ff73fc52ae040047304402206f9e74dbad8b262eb6bc66b1e0b130a0e41c0146b51598a8e0d097288beaa2c30220038f65e0ed835324c819bd9823560090b1730b3fbb04f6b41c7c9e4aea30bf9f014730440220094a5eb48d3e832d7aa863c742adedd396ea672aa9e70cbd59d40042d301246b0220031b89e75d9ee60c131e3dbc22fda4c46f8337aef143b9f4c971d585d83f0a930147522102dc23be3a45982c708852a35de0d2826583bc72c45d52fa4356a49d4d6283330421038f2c7ecee34c843be9d886e50ce79e5dc40a1694c0417d60b35340f292ff73fc52ae00000000", "vin": [{"txinwitness": ["", "3045022100d46cd9557d2b2ef096a29dc2a763d839619dd00f3921b5272368e5a47bd5cbba02204427a765a31f545d3f100e8aa06c2b1e4c40661d6d4b75c314fc62f09e88b1a201", "30440220494418108cc1ce3800a0a27663f3bb754f8815c7e63626c8ac0307e996197a8202200fad852c5674d6b72b389aad2f4aa7901017085776e9a9804f7132ee669f5eeb01", "5221024ba052b27670e74c6f2ec6d94ab577adef904147171c59622d4bbf727457746721038f2c7ecee34c843be9d886e50ce79e5dc40a1694c0417d60b35340f292ff73fc52ae"], "sequence": 4294967295, "scriptSig": {"hex": "220020641644e17060a93cdcd072fda4b73b95619f2d22b23b25ffe15bbae16022d915", "asm": "0020641644e17060a93cdcd072fda4b73b95619f2d22b23b25ffe15bbae16022d915"}, "vout": 1, "txid": "556c4b71f48fa3417565b6304de6e856942cc8962b12d2354e27475344695254"}, {"txinwitness": ["", "304402206f9e74dbad8b262eb6bc66b1e0b130a0e41c0146b51598a8e0d097288beaa2c30220038f65e0ed835324c819bd9823560090b1730b3fbb04f6b41c7c9e4aea30bf9f01", "30440220094a5eb48d3e832d7aa863c742adedd396ea672aa9e70cbd59d40042d301246b0220031b89e75d9ee60c131e3dbc22fda4c46f8337aef143b9f4c971d585d83f0a9301", "522102dc23be3a45982c708852a35de0d2826583bc72c45d52fa4356a49d4d6283330421038f2c7ecee34c843be9d886e50ce79e5dc40a1694c0417d60b35340f292ff73fc52ae"], "sequence": 4294967295, "scriptSig": {"hex": "220020d98f34b1e89c21024bec93b198e50e167e3383dc0bb71ba6f36707f6ab0f35f9", "asm": "0020d98f34b1e89c21024bec93b198e50e167e3383dc0bb71ba6f36707f6ab0f35f9"}, "vout": 1, "txid": "1c9f0944143ed7e7f85d56b37c3987305d9e3faf59fdd98d1d496b307fb0fddc"}], "txid": "b0c23f677d1c97096e8fedf5324c49a2ef5a4e49c03d432db845c51e2ffff42e", "blocktime": 1537870928, "version": 1, "confirmations": 11514, "time": 1537870928, "locktime": 0, "vsize": 336, "size": 665}