{"hash": "b0c3981d25e1dff3a7fc10dc2d75134d456daeab71ba219676cf8bccea2e0a82", "blockhash": "0000000000000000001cda96e906b7601b7a6fb1a3b62bca570a9e5d8f4b3de1", "vout": [{"scriptPubKey": {"reqSigs": 1, "hex": "a9149bc82324fcad7fa33b9a6ee70909af45eb71f53e87", "addresses": ["3FtiR4R2yBQAiKJiajjb56tXFz88XtsqV1"], "asm": "OP_HASH160 9bc82324fcad7fa33b9a6ee70909af45eb71f53e OP_EQUAL", "type": "scripthash"}, "value": 0.07817, "n": 0}, {"scriptPubKey": {"reqSigs": 1, "hex": "76a914c59eb3c1b1fc0a24781887db2d21b74cb89c04bd88ac", "addresses": ["1K1vEcSKrR1PdWXYwrA8Nq5wzieJKNJgPS"], "asm": "OP_DUP OP_HASH160 c59eb3c1b1fc0a24781887db2d21b74cb89c04bd OP_EQUALVERIFY OP_CHECKSIG", "type": "pubkeyhash"}, "value": 0.99582053, "n": 1}], "hex": "01000000014c24c43b11c8513f4c43c1193c17b7ee90e4d9792eae5fa0f3068501d79093e5010000006a47304402203afc20a67c0a3602ebb710cfe31e4105e463158fad28d297a7d5012047794d860220783d2892f5564b70fc799ed0879eab2b298170e48b103aa6e8e4144d9b182b4701210268234ae34337710c5358e63714d1475c48123f91b36b1dda713ec2de6b48a971ffffffff02284777000000000017a9149bc82324fcad7fa33b9a6ee70909af45eb71f53e876580ef05000000001976a914c59eb3c1b1fc0a24781887db2d21b74cb89c04bd88ac00000000", "vin": [{"sequence": 4294967295, "scriptSig": {"hex": "47304402203afc20a67c0a3602ebb710cfe31e4105e463158fad28d297a7d5012047794d860220783d2892f5564b70fc799ed0879eab2b298170e48b103aa6e8e4144d9b182b4701210268234ae34337710c5358e63714d1475c48123f91b36b1dda713ec2de6b48a971", "asm": "304402203afc20a67c0a3602ebb710cfe31e4105e463158fad28d297a7d5012047794d860220783d2892f5564b70fc799ed0879eab2b298170e48b103aa6e8e4144d9b182b47[ALL] 0268234ae34337710c5358e63714d1475c48123f91b36b1dda713ec2de6b48a971"}, "vout": 1, "txid": "e59390d7018506f3a05fae2e79d9e490eeb7173c19c1434c3f51c8113bc4244c"}], "txid": "b0c3981d25e1dff3a7fc10dc2d75134d456daeab71ba219676cf8bccea2e0a82", "blocktime": 1537873282, "version": 1, "confirmations": 11484, "time": 1537873282, "locktime": 0, "vsize": 223, "size": 223}