{"hash": "e08e679d33569e7ce8d266164168e674c09fbfeeeb2e1b222829cea9f3dcd9ee", "blockhash": "0000000000000000001f76057863aec43deb6fa401d9628bb513d65a8098bfab", "vout": [{"scriptPubKey": {"reqSigs": 1, "hex": "76a914c1c850eb5af8178ff96c6c525219e19338b20b7388ac", "addresses": ["1JfdPEJLmAKrpnRbC7Xznjq3Ve4RHT7x6k"], "asm": "OP_DUP OP_HASH160 c1c850eb5af8178ff96c6c525219e19338b20b73 OP_EQUALVERIFY OP_CHECKSIG", "type": "pubkeyhash"}, "value": 0.1014, "n": 0}, {"scriptPubKey": {"reqSigs": 1, "hex": "00147caaf0570e6f5374990e1f145c41164b07431307", "addresses": ["bc1q0j40q4cwdafhfxgwru29csgkfvr5xyc8fc8hzu"], "asm": "0 7caaf0570e6f5374990e1f145c41164b07431307", "type": "witness_v0_keyhash"}, "value": 0.00631998, "n": 1}], "hex": "01000000000101988fbfcde9c2c8ac69150baac45ac0acffd9cfc91a7bc8f8f24545c2a0278a1f01000000171600145f3aaa4697a41047100220eac15401fb86c692d2ffffffff0260b99a00000000001976a914c1c850eb5af8178ff96c6c525219e19338b20b7388acbea40900000000001600147caaf0570e6f5374990e1f145c41164b0743130702483045022100c87bba81f6725dafc458d5d22ad177c57b7659f395aeaa4472ede642f10ee607022043caf4f155ccd458298ec50c9c2fc9facbd55e7dd57ec3d1f18be332747f79850121024affbcafdbc0b699fec890c02bf9461aaf9b72d787238a64115315d25afba1ed00000000", "vin": [{"txinwitness": ["3045022100c87bba81f6725dafc458d5d22ad177c57b7659f395aeaa4472ede642f10ee607022043caf4f155ccd458298ec50c9c2fc9facbd55e7dd57ec3d1f18be332747f798501", "024affbcafdbc0b699fec890c02bf9461aaf9b72d787238a64115315d25afba1ed"], "sequence": 4294967295, "scriptSig": {"hex": "1600145f3aaa4697a41047100220eac15401fb86c692d2", "asm": "00145f3aaa4697a41047100220eac15401fb86c692d2"}, "vout": 1, "txid": "1f8a27a0c24545f2f8c87b1ac9cfd9ffacc05ac4aa0b1569acc8c2e9cdbf8f98"}], "txid": "b0ca30c443eb1a03162cfc990c1df1b32235f78a970d3676ec521d93d44c3765", "blocktime": 1537873891, "version": 1, "confirmations": 11478, "time": 1537873891, "locktime": 0, "vsize": 167, "size": 249}