{"hash": "b33236b1f86b6858aa4a32553ec81e702d9a3b6db689636c38e87e8f9d1cc053", "blockhash": "0000000000000000001f0ddff1eddb255c1121bcd4da4f1bc9a0da00cae72433", "vout": [{"scriptPubKey": {"reqSigs": 1, "hex": "a9143871518ff440161a652d89d6b6b7111764a6d74287", "addresses": ["36qTWoQBs3gvxoeMnCeiL7Ei1snaFSaXBa"], "asm": "OP_HASH160 3871518ff440161a652d89d6b6b7111764a6d742 OP_EQUAL", "type": "scripthash"}, "value": 1.29161177, "n": 0}, {"scriptPubKey": {"reqSigs": 1, "hex": "76a91441088acc687116a566f08420aff30ed76182e78b88ac", "addresses": ["16vs9zRsz1CbCfYrMiSwiAV5uhVuFSbUZR"], "asm": "OP_DUP OP_HASH160 41088acc687116a566f08420aff30ed76182e78b OP_EQUALVERIFY OP_CHECKSIG", "type": "pubkeyhash"}, "value": 0.054, "n": 1}], "hex": "020000000001016957907c0061abaed980ae1a9326a02701ec94ee94797ce61799ebcb712763860000000017160014e54281071549c0a5006035b013d4855897118fa3ffffffff02d9d7b2070000000017a9143871518ff440161a652d89d6b6b7111764a6d74287c0655200000000001976a91441088acc687116a566f08420aff30ed76182e78b88ac0247304402201fbb258180050d9c7fd2858ba8e36a8fcef589551935ea50ee59472899b13901022052191dd6247f267279212597803dc0c5d7caa65a65ecd193ffd3c0cfca3affad0121032a12396d18f0a9073f5b86a02ce4e0b338c728de62bde8f5e19697eb3298fb6d00000000", "vin": [{"txinwitness": ["304402201fbb258180050d9c7fd2858ba8e36a8fcef589551935ea50ee59472899b13901022052191dd6247f267279212597803dc0c5d7caa65a65ecd193ffd3c0cfca3affad01", "032a12396d18f0a9073f5b86a02ce4e0b338c728de62bde8f5e19697eb3298fb6d"], "sequence": 4294967295, "scriptSig": {"hex": "160014e54281071549c0a5006035b013d4855897118fa3", "asm": "0014e54281071549c0a5006035b013d4855897118fa3"}, "vout": 0, "txid": "86632771cbeb9917e67c7994ee94ec0127a026931aae80d9aeab61007c905769"}], "txid": "b0cf4d8c610de7825cc4e1165246bc807b236c58f6eb7c53cbcc5333004fd29d", "blocktime": 1537872018, "version": 2, "confirmations": 11489, "time": 1537872018, "locktime": 0, "vsize": 168, "size": 249}