{"hash": "b0dd0bc9b2eb8c2438051229bd2a052dea84b8203a157bf0c7b6a4f53c28e99d", "blockhash": "0000000000000000000baef3f32e3676a92c3b2e5da21b426e4f302fc371ce76", "vout": [{"scriptPubKey": {"reqSigs": 1, "hex": "76a9143876c90d778f07aad0b31220c3f789771275781088ac", "addresses": ["169Z96TeYSe8NBApTjgYcAzQ4ZGAnr28oJ"], "asm": "OP_DUP OP_HASH160 3876c90d778f07aad0b31220c3f7897712757810 OP_EQUALVERIFY OP_CHECKSIG", "type": "pubkeyhash"}, "value": 0.00469885, "n": 0}, {"scriptPubKey": {"reqSigs": 1, "hex": "76a9149d2cebec6fa3dec27027116e9a7732477e94a77788ac", "addresses": ["1FL4uKkLfd7kN5Cgm3sSVAx5u6fENpyecj"], "asm": "OP_DUP OP_HASH160 9d2cebec6fa3dec27027116e9a7732477e94a777 OP_EQUALVERIFY OP_CHECKSIG", "type": "pubkeyhash"}, "value": 0.0328269, "n": 1}], "hex": "01000000014576c57fbb678f7ceff29298f0d95e45ceaa8c2cf70399c5c4df210ea24ada77010000006b483045022100f0db2bd2cc49947eb170982bad16f47c2301514692cd0e8f7eef28bfeedc6e980220387594bbb2ed7c5303dfd3e73de501ddae8a407c11b82dc6764049ce3ae82e1801210384250ddc087b4d2e46fee21914f588520843e82fd3467a6ad454532c6b7d8e21ffffffff027d2b0700000000001976a9143876c90d778f07aad0b31220c3f789771275781088ac02173200000000001976a9149d2cebec6fa3dec27027116e9a7732477e94a77788ac00000000", "vin": [{"sequence": 4294967295, "scriptSig": {"hex": "483045022100f0db2bd2cc49947eb170982bad16f47c2301514692cd0e8f7eef28bfeedc6e980220387594bbb2ed7c5303dfd3e73de501ddae8a407c11b82dc6764049ce3ae82e1801210384250ddc087b4d2e46fee21914f588520843e82fd3467a6ad454532c6b7d8e21", "asm": "3045022100f0db2bd2cc49947eb170982bad16f47c2301514692cd0e8f7eef28bfeedc6e980220387594bbb2ed7c5303dfd3e73de501ddae8a407c11b82dc6764049ce3ae82e18[ALL] 0384250ddc087b4d2e46fee21914f588520843e82fd3467a6ad454532c6b7d8e21"}, "vout": 1, "txid": "77da4aa20e21dfc4c59903f72c8caace455ed9f09892f2ef7c8f67bb7fc57645"}], "txid": "b0dd0bc9b2eb8c2438051229bd2a052dea84b8203a157bf0c7b6a4f53c28e99d", "blocktime": 1537876114, "version": 1, "confirmations": 11460, "time": 1537876114, "locktime": 0, "vsize": 226, "size": 226}