{"hash": "b0de7e560462fd6281f620627bc99a7a934e6768d47e2a765e9b94ab1181f14f", "blockhash": "0000000000000000000dcc0f55137456b1a82d3642486a52398922ac4d620174", "vout": [{"scriptPubKey": {"reqSigs": 1, "hex": "76a914bdde833ceef36643c35999298bfb689dc03406d488ac", "addresses": ["1JJwGhwLgaG4xqH3N9HN4ZcpwvCuJsqvY1"], "asm": "OP_DUP OP_HASH160 bdde833ceef36643c35999298bfb689dc03406d4 OP_EQUALVERIFY OP_CHECKSIG", "type": "pubkeyhash"}, "value": 0.00681052, "n": 0}, {"scriptPubKey": {"reqSigs": 1, "hex": "a914f8307d3fa7c4abbb95545ea39d1d67ef68689f4f87", "addresses": ["3QKKbD8nvXvES9rERuW671DZ7vGsUn35J6"], "asm": "OP_HASH160 f8307d3fa7c4abbb95545ea39d1d67ef68689f4f OP_EQUAL", "type": "scripthash"}, "value": 0.03153, "n": 1}], "hex": "0100000002def5e52590f79c98086700208bd7f8ca7a0b6aedd090c7a89aeba004f21e1d3a140000006b483045022100e223597155e0772d406c92b2e06528f9af624ae7c2b9901883b723f5159ac87002203ba666c8eb78a7a68689761924c054164cd642736d68702bedc8f59ef6664c17012102e1d15a2707a653b5c806d90ebca30df78d8b1979d409cff1695f9b7aa89ea960feffffff30a2b3962952db7bab8dfcf237b08a4892998dbd3202e0800e3af56f3ab073d7000000006b483045022100bc0d72b18ebb64ac0ca6b668304dd13485287f62acb59b99b9f4ab2657d7485a0220046f026dc3bc220212c1dfeefe258b758b2e41a410caa655aa3f6f3c05014e7c012103b242977c02b8448f31b47c7c9b72dcfef282519c314b03a22ae9cf3c43aea0b0feffffff025c640a00000000001976a914bdde833ceef36643c35999298bfb689dc03406d488ac681c30000000000017a914f8307d3fa7c4abbb95545ea39d1d67ef68689f4f870c490800", "vin": [{"sequence": 4294967294, "scriptSig": {"hex": "483045022100e223597155e0772d406c92b2e06528f9af624ae7c2b9901883b723f5159ac87002203ba666c8eb78a7a68689761924c054164cd642736d68702bedc8f59ef6664c17012102e1d15a2707a653b5c806d90ebca30df78d8b1979d409cff1695f9b7aa89ea960", "asm": "3045022100e223597155e0772d406c92b2e06528f9af624ae7c2b9901883b723f5159ac87002203ba666c8eb78a7a68689761924c054164cd642736d68702bedc8f59ef6664c17[ALL] 02e1d15a2707a653b5c806d90ebca30df78d8b1979d409cff1695f9b7aa89ea960"}, "vout": 20, "txid": "3a1d1ef204a0eb9aa8c790d0ed6a0b7acaf8d78b20006708989cf79025e5f5de"}, {"sequence": 4294967294, "scriptSig": {"hex": "483045022100bc0d72b18ebb64ac0ca6b668304dd13485287f62acb59b99b9f4ab2657d7485a0220046f026dc3bc220212c1dfeefe258b758b2e41a410caa655aa3f6f3c05014e7c012103b242977c02b8448f31b47c7c9b72dcfef282519c314b03a22ae9cf3c43aea0b0", "asm": "3045022100bc0d72b18ebb64ac0ca6b668304dd13485287f62acb59b99b9f4ab2657d7485a0220046f026dc3bc220212c1dfeefe258b758b2e41a410caa655aa3f6f3c05014e7c[ALL] 03b242977c02b8448f31b47c7c9b72dcfef282519c314b03a22ae9cf3c43aea0b0"}, "vout": 0, "txid": "d773b03a6ff53a0e80e00232bd8d9992488ab037f2fc8dab7bdb522996b3a230"}], "txid": "b0de7e560462fd6281f620627bc99a7a934e6768d47e2a765e9b94ab1181f14f", "blocktime": 1537870268, "version": 1, "confirmations": 11518, "time": 1537870268, "locktime": 542988, "vsize": 372, "size": 372}