{"hash": "b0e94a1bb371a04b9c8e51033d0ec610c8683048a01a27da377d31b0057ebc6f", "blockhash": "0000000000000000000e13cef7c366c0283d82e591d1acd082e914b08063cdf1", "vout": [{"scriptPubKey": {"reqSigs": 1, "hex": "a9149d82c7141c8f9d151aaf10286cc3d822d92487b787", "addresses": ["3G3rgFYcfDmpXXEweegAQUi24GTSQ2Jpbu"], "asm": "OP_HASH160 9d82c7141c8f9d151aaf10286cc3d822d92487b7 OP_EQUAL", "type": "scripthash"}, "value": 0.00107, "n": 0}, {"scriptPubKey": {"reqSigs": 1, "hex": "76a914f4980987786e661c1370344844f2da0f07aab16b88ac", "addresses": ["1PJJ1YDA56FFWkQKooXUPSFq5EyR9iS3Y9"], "asm": "OP_DUP OP_HASH160 f4980987786e661c1370344844f2da0f07aab16b OP_EQUALVERIFY OP_CHECKSIG", "type": "pubkeyhash"}, "value": 0.00231969, "n": 1}], "hex": "010000000192bf590e69225a14382fe5f3e50da8526cccfb3888c9d6a4908fbceb67b5f37c000000006a4730440220083ae5056aae6fb4d5c9ae88d7649b827c9a7ff7100288de238aa19038b9869f02201b42da0ba22948c869b499e32e39e1d7e0bfdb07cead164324620d81d8759a770121027b479b2c5aacab24d93b67a8cf2378fd5c102b339f1c4027aa66fb2b2538da16ffffffff02f8a101000000000017a9149d82c7141c8f9d151aaf10286cc3d822d92487b787218a0300000000001976a914f4980987786e661c1370344844f2da0f07aab16b88ac00000000", "vin": [{"sequence": 4294967295, "scriptSig": {"hex": "4730440220083ae5056aae6fb4d5c9ae88d7649b827c9a7ff7100288de238aa19038b9869f02201b42da0ba22948c869b499e32e39e1d7e0bfdb07cead164324620d81d8759a770121027b479b2c5aacab24d93b67a8cf2378fd5c102b339f1c4027aa66fb2b2538da16", "asm": "30440220083ae5056aae6fb4d5c9ae88d7649b827c9a7ff7100288de238aa19038b9869f02201b42da0ba22948c869b499e32e39e1d7e0bfdb07cead164324620d81d8759a77[ALL] 027b479b2c5aacab24d93b67a8cf2378fd5c102b339f1c4027aa66fb2b2538da16"}, "vout": 0, "txid": "7cf3b567ebbc8f90a4d6c98838fbcc6c52a80de5f3e52f38145a22690e59bf92"}], "txid": "b0e94a1bb371a04b9c8e51033d0ec610c8683048a01a27da377d31b0057ebc6f", "blocktime": 1537871767, "version": 1, "confirmations": 11493, "time": 1537871767, "locktime": 0, "vsize": 223, "size": 223}