{"hash": "b0ea1023b8b656c4a3043ee694b60e8879d177775227563a297ba14cb58f36e6", "blockhash": "00000000000000000004ffacab907a6b429b9a5745fa0b75af4234bf69dd7176", "vout": [{"scriptPubKey": {"reqSigs": 1, "hex": "76a914a05c797156e48280a0fa108905307fc2eb36da9e88ac", "addresses": ["1FcutvhUgE6CqcL3ucqq1t48uBhYKfpvRq"], "asm": "OP_DUP OP_HASH160 a05c797156e48280a0fa108905307fc2eb36da9e OP_EQUALVERIFY OP_CHECKSIG", "type": "pubkeyhash"}, "value": 0.001092, "n": 0}, {"scriptPubKey": {"reqSigs": 1, "hex": "76a914e980406100f1b02d9023620d15858ca5a5fb144c88ac", "addresses": ["1NHe5mQK8w5uu6QxqnWsd6M8fPLPiYGWzA"], "asm": "OP_DUP OP_HASH160 e980406100f1b02d9023620d15858ca5a5fb144c OP_EQUALVERIFY OP_CHECKSIG", "type": "pubkeyhash"}, "value": 0.07920064, "n": 1}], "hex": "01000000019902bbd32f27805766076354c26b0cbca91e907b386c9f6b31d8bc0d91ef12c1010000006b483045022100eb40e7aaadcfcf7dc2c80b1579d9cf039e47de8da704a6f59a153dd156dea9fd02200b613dda0188bef0e71c1ad98b3faa0eb07ee7719c11c3368242559520f10975012103ad603f5d3610dce0c476cc5ff31b70d340cb842f4285d362fdb63d990e4c8e16ffffffff0290aa0100000000001976a914a05c797156e48280a0fa108905307fc2eb36da9e88acc0d97800000000001976a914e980406100f1b02d9023620d15858ca5a5fb144c88ac00000000", "vin": [{"sequence": 4294967295, "scriptSig": {"hex": "483045022100eb40e7aaadcfcf7dc2c80b1579d9cf039e47de8da704a6f59a153dd156dea9fd02200b613dda0188bef0e71c1ad98b3faa0eb07ee7719c11c3368242559520f10975012103ad603f5d3610dce0c476cc5ff31b70d340cb842f4285d362fdb63d990e4c8e16", "asm": "3045022100eb40e7aaadcfcf7dc2c80b1579d9cf039e47de8da704a6f59a153dd156dea9fd02200b613dda0188bef0e71c1ad98b3faa0eb07ee7719c11c3368242559520f10975[ALL] 03ad603f5d3610dce0c476cc5ff31b70d340cb842f4285d362fdb63d990e4c8e16"}, "vout": 1, "txid": "c112ef910dbcd8316b9f6c387b901ea9bc0c6bc2546307665780272fd3bb0299"}], "txid": "b0ea1023b8b656c4a3043ee694b60e8879d177775227563a297ba14cb58f36e6", "blocktime": 1537875543, "version": 1, "confirmations": 11464, "time": 1537875543, "locktime": 0, "vsize": 226, "size": 226}