{"hash": "b0f30a41630e70f0e7982d035a2d7ff2725344b9ee7847c4855cbbe578c57abc", "blockhash": "0000000000000000001cda96e906b7601b7a6fb1a3b62bca570a9e5d8f4b3de1", "vout": [{"scriptPubKey": {"reqSigs": 1, "hex": "a914a049de766c4c80b6054a57d6d95922703fd6479b87", "addresses": ["3GJYXk8Cmm4RRtXAw79WEjn4dqSYvfXv4Y"], "asm": "OP_HASH160 a049de766c4c80b6054a57d6d95922703fd6479b OP_EQUAL", "type": "scripthash"}, "value": 0.02372953, "n": 0}, {"scriptPubKey": {"reqSigs": 1, "hex": "76a914084ff7109a5f8d834986df621b9a5706ca2fd34d88ac", "addresses": ["1kxCcCvmubYe2EGfZ6AAQSiRbNPzK4My8"], "asm": "OP_DUP OP_HASH160 084ff7109a5f8d834986df621b9a5706ca2fd34d OP_EQUALVERIFY OP_CHECKSIG", "type": "pubkeyhash"}, "value": 0.23253394, "n": 1}], "hex": "0100000001aa49606870d3615420fee76d5eb4aca2b9a371c8eab2cdfbdfae7e2f556bec56010000006a47304402200716de0cd47970885968cb2940e7b2a7f360334213589ada06d4db284c49c3c4022012323e129a6de45ee2f88d3fc4de392f3deb9ef7a18d07ececb515b1273b963c0121032570e8c53fc611b68e4ad3147196dd7124f61a007e15b80d4a518c7fe7e45833fdffffff02593524000000000017a914a049de766c4c80b6054a57d6d95922703fd6479b8792d16201000000001976a914084ff7109a5f8d834986df621b9a5706ca2fd34d88ac13490800", "vin": [{"sequence": 4294967293, "scriptSig": {"hex": "47304402200716de0cd47970885968cb2940e7b2a7f360334213589ada06d4db284c49c3c4022012323e129a6de45ee2f88d3fc4de392f3deb9ef7a18d07ececb515b1273b963c0121032570e8c53fc611b68e4ad3147196dd7124f61a007e15b80d4a518c7fe7e45833", "asm": "304402200716de0cd47970885968cb2940e7b2a7f360334213589ada06d4db284c49c3c4022012323e129a6de45ee2f88d3fc4de392f3deb9ef7a18d07ececb515b1273b963c[ALL] 032570e8c53fc611b68e4ad3147196dd7124f61a007e15b80d4a518c7fe7e45833"}, "vout": 1, "txid": "56ec6b552f7eaedffbcdb2eac871a3b9a2acb45e6de7fe205461d370686049aa"}], "txid": "b0f30a41630e70f0e7982d035a2d7ff2725344b9ee7847c4855cbbe578c57abc", "blocktime": 1537873282, "version": 1, "confirmations": 11485, "time": 1537873282, "locktime": 542995, "vsize": 223, "size": 223}