{"hash": "b0f489428ae70c3eaa8df850f271ddb5a063b8e95ff167c3b8c69f88a6a021a3", "blockhash": "00000000000000000004ffacab907a6b429b9a5745fa0b75af4234bf69dd7176", "vout": [{"scriptPubKey": {"reqSigs": 1, "hex": "a914d3569d16be86958591768bc4336eee6d9c7d69e187", "addresses": ["3LxUG3J4FRAhTJZDDFNzNj3Fs7v3nzXdxZ"], "asm": "OP_HASH160 d3569d16be86958591768bc4336eee6d9c7d69e1 OP_EQUAL", "type": "scripthash"}, "value": 0.00264314, "n": 0}, {"scriptPubKey": {"reqSigs": 1, "hex": "76a914685a46bd9514686589ef5c9e4b4e727602a94cbf88ac", "addresses": ["1AWmRTfd8yeGcjvzVoqH2QnNmcawjuZT3R"], "asm": "OP_DUP OP_HASH160 685a46bd9514686589ef5c9e4b4e727602a94cbf OP_EQUALVERIFY OP_CHECKSIG", "type": "pubkeyhash"}, "value": 0.04719871, "n": 1}], "hex": "01000000011a655f8c627b7f59d2d2bca62a28f740cc3352898e90fa54c296a2a8af4c6135010000006a473044022020ecd52ea1cbf87b5041e3e91fa6a6201d597a0b6f9428a70d563309ecea925d02202188a63a591d98b91d30644323e69cfeb0a98da0da3747744b39d895ca0581d10121038e945d41cf296cb2f27639e02d3679f18c546b8b1d6b5bfff25d2773d9f3497dffffffff027a0804000000000017a914d3569d16be86958591768bc4336eee6d9c7d69e187ff044800000000001976a914685a46bd9514686589ef5c9e4b4e727602a94cbf88ac00000000", "vin": [{"sequence": 4294967295, "scriptSig": {"hex": "473044022020ecd52ea1cbf87b5041e3e91fa6a6201d597a0b6f9428a70d563309ecea925d02202188a63a591d98b91d30644323e69cfeb0a98da0da3747744b39d895ca0581d10121038e945d41cf296cb2f27639e02d3679f18c546b8b1d6b5bfff25d2773d9f3497d", "asm": "3044022020ecd52ea1cbf87b5041e3e91fa6a6201d597a0b6f9428a70d563309ecea925d02202188a63a591d98b91d30644323e69cfeb0a98da0da3747744b39d895ca0581d1[ALL] 038e945d41cf296cb2f27639e02d3679f18c546b8b1d6b5bfff25d2773d9f3497d"}, "vout": 1, "txid": "35614cafa8a296c254fa908e895233cc40f7282aa6bcd2d2597f7b628c5f651a"}], "txid": "b0f489428ae70c3eaa8df850f271ddb5a063b8e95ff167c3b8c69f88a6a021a3", "blocktime": 1537875543, "version": 1, "confirmations": 11464, "time": 1537875543, "locktime": 0, "vsize": 223, "size": 223}