{"hash": "4e946632e0827dfeda05467885c33f77acb2a99577fcf0c7c9d3005c01d2046f", "blockhash": "0000000000000000000e13cef7c366c0283d82e591d1acd082e914b08063cdf1", "vout": [{"scriptPubKey": {"reqSigs": 1, "hex": "76a91469a5215673fef09ab4371799cd00a70d11335b1988ac", "addresses": ["1AdbmbJU6qb1RyrXyJ6889A9zbpmDNM7Ye"], "asm": "OP_DUP OP_HASH160 69a5215673fef09ab4371799cd00a70d11335b19 OP_EQUALVERIFY OP_CHECKSIG", "type": "pubkeyhash"}, "value": 0.0215559, "n": 0}, {"scriptPubKey": {"reqSigs": 1, "hex": "a914263af814c57ca099835a002034ed2a1007f658c787", "addresses": ["35BAF5MckPv4zJceHfibbTuZ4Nr1R3yvHR"], "asm": "OP_HASH160 263af814c57ca099835a002034ed2a1007f658c7 OP_EQUAL", "type": "scripthash"}, "value": 0.01257648, "n": 1}], "hex": "02000000000102228736cac0d642b3875e481aecad49e70bf84b6e859d488cff1dae2dbfe1b8190000000017160014eb99bffbcbd64b43bb59b903a0d5066420a64fabfdffffff4bd1cded9239a34802dff7e22d1b9175f9946e581a06fc3de913ff98dce825d700000000171600144adaebf8b441d8ec18cfbaaa19c6c23b750a642dfdffffff0246e42000000000001976a91469a5215673fef09ab4371799cd00a70d11335b1988acb03013000000000017a914263af814c57ca099835a002034ed2a1007f658c78702483045022100afa220fbce2e1e8c0aeba2edd81ec860b4fddacd701523d276c8b3d391859abd022061d0abba684259348cfc691787b1775cb8c9dc6bf283d1bbbd8c7a4a08abe35a01210284fd3b5f14363c951669ae199537ba578c03e7b7cdb635f8f1e3e39d36397fe20248304502210084de5f4bc492ef3655a42b90b3b21fe4a168d2423b7abeef148296ba8369b60e0220426829d5a2dfa2057b33064dfe2c5dd0343f4405f1273e67fd30f09a03ab45f20121024a8c53bea54078d43910005a3711d459d7a56f0af9c4916befaf02d2dc9f37a910490800", "vin": [{"txinwitness": ["3045022100afa220fbce2e1e8c0aeba2edd81ec860b4fddacd701523d276c8b3d391859abd022061d0abba684259348cfc691787b1775cb8c9dc6bf283d1bbbd8c7a4a08abe35a01", "0284fd3b5f14363c951669ae199537ba578c03e7b7cdb635f8f1e3e39d36397fe2"], "sequence": 4294967293, "scriptSig": {"hex": "160014eb99bffbcbd64b43bb59b903a0d5066420a64fab", "asm": "0014eb99bffbcbd64b43bb59b903a0d5066420a64fab"}, "vout": 0, "txid": "19b8e1bf2dae1dff8c489d856e4bf80be749adec1a485e87b342d6c0ca368722"}, {"txinwitness": ["304502210084de5f4bc492ef3655a42b90b3b21fe4a168d2423b7abeef148296ba8369b60e0220426829d5a2dfa2057b33064dfe2c5dd0343f4405f1273e67fd30f09a03ab45f201", "024a8c53bea54078d43910005a3711d459d7a56f0af9c4916befaf02d2dc9f37a9"], "sequence": 4294967293, "scriptSig": {"hex": "1600144adaebf8b441d8ec18cfbaaa19c6c23b750a642d", "asm": "00144adaebf8b441d8ec18cfbaaa19c6c23b750a642d"}, "vout": 0, "txid": "d725e8dc98ff13e93dfc061a586e94f975911b2de2f7df0248a33992edcdd14b"}], "txid": "b0f5150fc5e8626233fd0ab9a9ba277a13154360312e2ed57ae62e39afec6f3f", "blocktime": 1537871767, "version": 2, "confirmations": 11490, "time": 1537871767, "locktime": 542992, "vsize": 259, "size": 422}