{"hash": "b0f7e7f3f3ac499524e280164a56b3f2c216ef3db4731052e5d071876fb3481a", "blockhash": "00000000000000000017f5eb5941039fbcee6240d03bc1f2f8e35350df66a1d8", "vout": [{"scriptPubKey": {"reqSigs": 1, "hex": "a914137bd333bc2bf273cc7fd28bd30909360138ce3d87", "addresses": ["33U36hcBGHFhrd7UvfqYFxKFqKsb9SvYFg"], "asm": "OP_HASH160 137bd333bc2bf273cc7fd28bd30909360138ce3d OP_EQUAL", "type": "scripthash"}, "value": 0.007, "n": 0}, {"scriptPubKey": {"reqSigs": 1, "hex": "a91412bdcd7602cc6e0a94ccffdc1914060809ef59bc87", "addresses": ["33Q7TiD3CdryEUTMKbi7xYmk2bEAGh6AJ1"], "asm": "OP_HASH160 12bdcd7602cc6e0a94ccffdc1914060809ef59bc OP_EQUAL", "type": "scripthash"}, "value": 0.13817374, "n": 1}], "hex": "020000000146ac503ef76a601a714537bd19b1357adfee5b031e1e5e833776762b4dc77fcb01000000fdfd000047304402203137870790c2a64cb8b3a55680a178e561b5459697e75714e2f0a6c2db79fabf02204ee1b6a91a7e5179f01fbd7002c9bb27a5e0525eabbc3c0f7e068c2308f3858d0148304502210099f97c42bcf8634e6d1b84b018a262953fe58296a5d1b7beb9774b9f4a67572002203e604e2f8fac963787964b77c48bbdb07885c779e4b31604c57ae8e13f3b2d81014c69522102c943b2bfffb49875168c145dc2c9a34e6a6fd3711f5823f2cac816502fffbd90210211fe10d6fd10bf81e145ae96cb4717d8adb5781b6911401896958d901950088f2102310695df650c6d99fcb8a36cd47b6a75f86f52008ac736d4ba1540df0dc86b7353ae000000000260ae0a000000000017a914137bd333bc2bf273cc7fd28bd30909360138ce3d871ed6d2000000000017a91412bdcd7602cc6e0a94ccffdc1914060809ef59bc8700000000", "vin": [{"sequence": 0, "scriptSig": {"hex": "0047304402203137870790c2a64cb8b3a55680a178e561b5459697e75714e2f0a6c2db79fabf02204ee1b6a91a7e5179f01fbd7002c9bb27a5e0525eabbc3c0f7e068c2308f3858d0148304502210099f97c42bcf8634e6d1b84b018a262953fe58296a5d1b7beb9774b9f4a67572002203e604e2f8fac963787964b77c48bbdb07885c779e4b31604c57ae8e13f3b2d81014c69522102c943b2bfffb49875168c145dc2c9a34e6a6fd3711f5823f2cac816502fffbd90210211fe10d6fd10bf81e145ae96cb4717d8adb5781b6911401896958d901950088f2102310695df650c6d99fcb8a36cd47b6a75f86f52008ac736d4ba1540df0dc86b7353ae", "asm": "0 304402203137870790c2a64cb8b3a55680a178e561b5459697e75714e2f0a6c2db79fabf02204ee1b6a91a7e5179f01fbd7002c9bb27a5e0525eabbc3c0f7e068c2308f3858d[ALL] 304502210099f97c42bcf8634e6d1b84b018a262953fe58296a5d1b7beb9774b9f4a67572002203e604e2f8fac963787964b77c48bbdb07885c779e4b31604c57ae8e13f3b2d81[ALL] 522102c943b2bfffb49875168c145dc2c9a34e6a6fd3711f5823f2cac816502fffbd90210211fe10d6fd10bf81e145ae96cb4717d8adb5781b6911401896958d901950088f2102310695df650c6d99fcb8a36cd47b6a75f86f52008ac736d4ba1540df0dc86b7353ae"}, "vout": 1, "txid": "cb7fc74d2b767637835e1e1e035beedf7a35b119bd3745711a606af73e50ac46"}], "txid": "b0f7e7f3f3ac499524e280164a56b3f2c216ef3db4731052e5d071876fb3481a", "blocktime": 1537874412, "version": 2, "confirmations": 11467, "time": 1537874412, "locktime": 0, "vsize": 370, "size": 370}