{"hash": "b0f96241caa83760664b5856300b5a10448ff2cbf9c7999967c7082cb5dd9993", "blockhash": "0000000000000000001f0ddff1eddb255c1121bcd4da4f1bc9a0da00cae72433", "vout": [{"scriptPubKey": {"reqSigs": 1, "hex": "76a9142ed8090a69297d48a0c5321f1f902e2268fe6a2a88ac", "addresses": ["15GgtDpb71atq7LzDRyhK2kFXayso5Us1D"], "asm": "OP_DUP OP_HASH160 2ed8090a69297d48a0c5321f1f902e2268fe6a2a OP_EQUALVERIFY OP_CHECKSIG", "type": "pubkeyhash"}, "value": 0.00999, "n": 0}, {"scriptPubKey": {"reqSigs": 1, "hex": "76a914b1d4a869945857bf9ff35610a9e55814716a04f588ac", "addresses": ["1HDHMgWZyZzQRc9jRa1oLT2EKDwp3ggCc4"], "asm": "OP_DUP OP_HASH160 b1d4a869945857bf9ff35610a9e55814716a04f5 OP_EQUALVERIFY OP_CHECKSIG", "type": "pubkeyhash"}, "value": 0.00469311, "n": 1}], "hex": "0100000001fcb0f8f010c9e70a367092ed452385a0e304af92f1116b462fcf992365ed7b4e000000006b483045022100bb68dfa6baa66d7f0c4be3632883a4b97a0eeb17d2af3a7cf76bcb5ae440db21022038c4cb2692738290ab803eca617d4efa03d9ce6a243294d2a427e7437c0be881012102e603e2a159a635f017c8e9b1ed77b58722e6c01499c27d1c8e15516e52414165ffffffff02583e0f00000000001976a9142ed8090a69297d48a0c5321f1f902e2268fe6a2a88ac3f290700000000001976a914b1d4a869945857bf9ff35610a9e55814716a04f588ac00000000", "vin": [{"sequence": 4294967295, "scriptSig": {"hex": "483045022100bb68dfa6baa66d7f0c4be3632883a4b97a0eeb17d2af3a7cf76bcb5ae440db21022038c4cb2692738290ab803eca617d4efa03d9ce6a243294d2a427e7437c0be881012102e603e2a159a635f017c8e9b1ed77b58722e6c01499c27d1c8e15516e52414165", "asm": "3045022100bb68dfa6baa66d7f0c4be3632883a4b97a0eeb17d2af3a7cf76bcb5ae440db21022038c4cb2692738290ab803eca617d4efa03d9ce6a243294d2a427e7437c0be881[ALL] 02e603e2a159a635f017c8e9b1ed77b58722e6c01499c27d1c8e15516e52414165"}, "vout": 0, "txid": "4e7bed652399cf2f466b11f192af04e3a0852345ed9270360ae7c910f0f8b0fc"}], "txid": "b0f96241caa83760664b5856300b5a10448ff2cbf9c7999967c7082cb5dd9993", "blocktime": 1537872018, "version": 1, "confirmations": 11489, "time": 1537872018, "locktime": 0, "vsize": 226, "size": 226}