{"hash": "b0ffb0f941de518730fc136f6a6a8ad8d2e374984fb9142f34cbbc1f2d1c53f0", "blockhash": "0000000000000000001f0ddff1eddb255c1121bcd4da4f1bc9a0da00cae72433", "vout": [{"scriptPubKey": {"reqSigs": 1, "hex": "76a9148fb72410e8228ccf101f751de463221731869cbc88ac", "addresses": ["1E6u2HSJ1brKEQCDhufSWnpXtXGUiy4Aiv"], "asm": "OP_DUP OP_HASH160 8fb72410e8228ccf101f751de463221731869cbc OP_EQUALVERIFY OP_CHECKSIG", "type": "pubkeyhash"}, "value": 0.0002, "n": 0}, {"scriptPubKey": {"reqSigs": 1, "hex": "76a914f1e4a0c23042cc8fe1b44295b2c87368fe1b1aba88ac", "addresses": ["1P41jafnXX9t3h7NEA2ZJwt9nvWF6VBojE"], "asm": "OP_DUP OP_HASH160 f1e4a0c23042cc8fe1b44295b2c87368fe1b1aba OP_EQUALVERIFY OP_CHECKSIG", "type": "pubkeyhash"}, "value": 0.66078752, "n": 1}, {"scriptPubKey": {"type": "nulldata", "hex": "6a254d4700020489c5df6d3074535262a75f23114fb9b427d3194469a3e772d2d6dd7ecf8002d2", "asm": "OP_RETURN 4d4700020489c5df6d3074535262a75f23114fb9b427d3194469a3e772d2d6dd7ecf8002d2"}, "value": 0.0, "n": 2}], "hex": "01000000019ec72e067b400292d405df408be8420033a3652980d87badfef7a6c274a9f484010000006b483045022100e0c469358517386e93f4f6bd28f6f81277f084efdbfddcd9bb52034db76d086802206da0dffa75dbde29dc340338755e95f881f7e054f1b780caee580ddac04d55100121033ff37f08b4aef829d4fd8d9c6e20176af681280342230d036803a3848f41baedffffffff03204e0000000000001976a9148fb72410e8228ccf101f751de463221731869cbc88ac2048f003000000001976a914f1e4a0c23042cc8fe1b44295b2c87368fe1b1aba88ac0000000000000000276a254d4700020489c5df6d3074535262a75f23114fb9b427d3194469a3e772d2d6dd7ecf8002d200000000", "vin": [{"sequence": 4294967295, "scriptSig": {"hex": "483045022100e0c469358517386e93f4f6bd28f6f81277f084efdbfddcd9bb52034db76d086802206da0dffa75dbde29dc340338755e95f881f7e054f1b780caee580ddac04d55100121033ff37f08b4aef829d4fd8d9c6e20176af681280342230d036803a3848f41baed", "asm": "3045022100e0c469358517386e93f4f6bd28f6f81277f084efdbfddcd9bb52034db76d086802206da0dffa75dbde29dc340338755e95f881f7e054f1b780caee580ddac04d5510[ALL] 033ff37f08b4aef829d4fd8d9c6e20176af681280342230d036803a3848f41baed"}, "vout": 1, "txid": "84f4a974c2a6f7fead7bd8802965a3330042e88b40df05d49202407b062ec79e"}], "txid": "b0ffb0f941de518730fc136f6a6a8ad8d2e374984fb9142f34cbbc1f2d1c53f0", "blocktime": 1537872018, "version": 1, "confirmations": 11489, "time": 1537872018, "locktime": 0, "vsize": 274, "size": 274}