{"hash": "68a452009f35cfde6cdc7e4f1a283b6c00fb033502872e703096e3ccb0e79c06", "blockhash": "0000000000000000001cda96e906b7601b7a6fb1a3b62bca570a9e5d8f4b3de1", "vout": [{"scriptPubKey": {"type": "nulldata", "hex": "6a146f6d6e69000000000000001f0000000b866e0f00", "asm": "OP_RETURN 6f6d6e69000000000000001f0000000b866e0f00"}, "value": 0.0, "n": 0}, {"scriptPubKey": {"reqSigs": 1, "hex": "a914e818e90b8e6b38dba66f74b35cb708bbc73e2ea787", "addresses": ["3NrEXrB9qAxXYfRt6jKtBD8QzoU2qtNWDR"], "asm": "OP_HASH160 e818e90b8e6b38dba66f74b35cb708bbc73e2ea7 OP_EQUAL", "type": "scripthash"}, "value": 2.73e-05, "n": 1}, {"scriptPubKey": {"reqSigs": 1, "hex": "a914e818e90b8e6b38dba66f74b35cb708bbc73e2ea787", "addresses": ["3NrEXrB9qAxXYfRt6jKtBD8QzoU2qtNWDR"], "asm": "OP_HASH160 e818e90b8e6b38dba66f74b35cb708bbc73e2ea7 OP_EQUAL", "type": "scripthash"}, "value": 25.62888344, "n": 2}], "hex": "0100000000010252c0ea9c81ff05099567524e069aeb206895ebdf76c05b2dc03db8a6db01d73801000000171600143887342ed8b2d21cb3c8bcb1af3c98318630bc1effffffff2748a4e7fb8a0330cf9271061511047508d69a9a765f029d6913f80fb9b4f92d0200000017160014567b90d24aa5d07241f8d18212116d17bfce299cffffffff030000000000000000166a146f6d6e69000000000000001f0000000b866e0f00aa0a00000000000017a914e818e90b8e6b38dba66f74b35cb708bbc73e2ea7879892c2980000000017a914e818e90b8e6b38dba66f74b35cb708bbc73e2ea78702483045022100be741f6f38c19cee4f1bf26ac1b832c0a38c9ec31619716554dc9caf485b9f93022024126b26aa60e0124185dbec852c8a73f2de42e6a7fb5505bf8c1eb33dfe583a0121035e5a43f4ce66e9f707d7c624665ca91c6a2b578a4749f664cab6f830df2e69590247304402202d13b98a5b6685d238b629200a7b67726180d82b7acc3bc18b9e0fe93562bae402205de2cd796429f38c8d998e33dd28a16d8d33362065f3088453d7e267194fbde7012103a2c6293ae08e06d759b2a6371d040a479c4d45c3dd06b6ab4de67b08c58d9ca100000000", "vin": [{"txinwitness": ["3045022100be741f6f38c19cee4f1bf26ac1b832c0a38c9ec31619716554dc9caf485b9f93022024126b26aa60e0124185dbec852c8a73f2de42e6a7fb5505bf8c1eb33dfe583a01", "035e5a43f4ce66e9f707d7c624665ca91c6a2b578a4749f664cab6f830df2e6959"], "sequence": 4294967295, "scriptSig": {"hex": "1600143887342ed8b2d21cb3c8bcb1af3c98318630bc1e", "asm": "00143887342ed8b2d21cb3c8bcb1af3c98318630bc1e"}, "vout": 1, "txid": "38d701dba6b83dc02d5bc076dfeb956820eb9a064e5267950905ff819ceac052"}, {"txinwitness": ["304402202d13b98a5b6685d238b629200a7b67726180d82b7acc3bc18b9e0fe93562bae402205de2cd796429f38c8d998e33dd28a16d8d33362065f3088453d7e267194fbde701", "03a2c6293ae08e06d759b2a6371d040a479c4d45c3dd06b6ab4de67b08c58d9ca1"], "sequence": 4294967295, "scriptSig": {"hex": "160014567b90d24aa5d07241f8d18212116d17bfce299c", "asm": "0014567b90d24aa5d07241f8d18212116d17bfce299c"}, "vout": 2, "txid": "2df9b4b90ff813699d025f769a9ad60875041115067192cf30038afbe7a44827"}], "txid": "b0ffe43e5d1a21a21ebf8f7c0356860cc1430d26edaae09980e32a9d566039bf", "blocktime": 1537873282, "version": 1, "confirmations": 11484, "time": 1537873282, "locktime": 0, "vsize": 288, "size": 450}