{"hash": "ec264a25d5baac9daad33b8a9790592574f240347045daec6d0d026a31d90ded", "blockhash": "0000000000000000001cda96e906b7601b7a6fb1a3b62bca570a9e5d8f4b3de1", "vout": [{"scriptPubKey": {"reqSigs": 1, "hex": "a91466607dae6270a7eb242c9dca1edd3aa0f02256ca87", "addresses": ["3B2LSREbZrh3rojsuB4wKWMHJ7UT2tZGBs"], "asm": "OP_HASH160 66607dae6270a7eb242c9dca1edd3aa0f02256ca OP_EQUAL", "type": "scripthash"}, "value": 0.048587, "n": 0}, {"scriptPubKey": {"reqSigs": 1, "hex": "76a914ea70609a72cd96b63197a8177e2441e8ec7b588188ac", "addresses": ["1NNbk1EH6GTE8Ndm6tSFwMvWPo9y4TadRy"], "asm": "OP_DUP OP_HASH160 ea70609a72cd96b63197a8177e2441e8ec7b5881 OP_EQUALVERIFY OP_CHECKSIG", "type": "pubkeyhash"}, "value": 0.1994, "n": 1}], "hex": "010000000001014479c23c81aa5ff13c449df2133d578d0d1f6b5c8ac2d8386a605284373c104800000000232200205c61fc289ed905b02623bca93f27619315fe1fd1602b8a58a6eba8cb779a21eaffffffff024c234a000000000017a91466607dae6270a7eb242c9dca1edd3aa0f02256ca87a0423001000000001976a914ea70609a72cd96b63197a8177e2441e8ec7b588188ac0400483045022100f2ad5e750dd42c6a9bbee0968d1eecfdb8a6c15adedc3954f20b3d8ff3e78a66022004ede670a0a6f37326ad2c0d9cb3ac42acd1bf2a2da2fa74bd3effe9613368160147304402207ee2accda295918a0189457b9e441665d79f8ae5e034ec6b4d8f590cde19643502201ff13c79491d6e4e24446e0f5cf8455c2d6ae1ed11a3aab16fe3bfcbd435e63d01695221029048189874f524e2b295a1a5e662fae41211282256a02b489b0bace17dd6d8b32102c8a6556d42c827e9467f3e82dc3d3f92a03c96c8d6956523697eccec92571062210358d82d8e87aac22f278048b2d9aa24d101106d0fd07df24daf0f71b30f5c297e53ae00000000", "vin": [{"txinwitness": ["", "3045022100f2ad5e750dd42c6a9bbee0968d1eecfdb8a6c15adedc3954f20b3d8ff3e78a66022004ede670a0a6f37326ad2c0d9cb3ac42acd1bf2a2da2fa74bd3effe96133681601", "304402207ee2accda295918a0189457b9e441665d79f8ae5e034ec6b4d8f590cde19643502201ff13c79491d6e4e24446e0f5cf8455c2d6ae1ed11a3aab16fe3bfcbd435e63d01", "5221029048189874f524e2b295a1a5e662fae41211282256a02b489b0bace17dd6d8b32102c8a6556d42c827e9467f3e82dc3d3f92a03c96c8d6956523697eccec92571062210358d82d8e87aac22f278048b2d9aa24d101106d0fd07df24daf0f71b30f5c297e53ae"], "sequence": 4294967295, "scriptSig": {"hex": "2200205c61fc289ed905b02623bca93f27619315fe1fd1602b8a58a6eba8cb779a21ea", "asm": "00205c61fc289ed905b02623bca93f27619315fe1fd1602b8a58a6eba8cb779a21ea"}, "vout": 0, "txid": "48103c378452606a38d8c28a5c6b1f0d8d573d13f29d443cf15faa813cc27944"}], "txid": "b101b5e64847d0a06bfa0afce067cf917be8b25ce158d10b604c07574667082b", "blocktime": 1537873282, "version": 1, "confirmations": 11480, "time": 1537873282, "locktime": 0, "vsize": 216, "size": 407}