{"hash": "b102ca09862b0ae4f4df2d749635d11bc932e851622ac22012b59c28a31d49b8", "blockhash": "00000000000000000018f53835495a110e01622372bf6ae95dc86f2b0ab887b0", "vout": [{"scriptPubKey": {"reqSigs": 1, "hex": "76a914a25dec4d0011064ef106a983c39c7a540699f22088ac", "addresses": ["1FoWyxwPXuj4C6abqwhjDWdz6D4PZgYRjA"], "asm": "OP_DUP OP_HASH160 a25dec4d0011064ef106a983c39c7a540699f220 OP_EQUALVERIFY OP_CHECKSIG", "type": "pubkeyhash"}, "value": 0.01990376, "n": 0}, {"scriptPubKey": {"type": "nulldata", "hex": "6a146f6d6e69000000000000001f0000015d3ef79800", "asm": "OP_RETURN 6f6d6e69000000000000001f0000015d3ef79800"}, "value": 0.0, "n": 1}, {"scriptPubKey": {"reqSigs": 1, "hex": "76a91476173daff5dcb0b9ade9cf3ee411ca4de695370488ac", "addresses": ["1BmQaSuTtsX5d5Y5DgPXfcZxNdNAhG6qgj"], "asm": "OP_DUP OP_HASH160 76173daff5dcb0b9ade9cf3ee411ca4de6953704 OP_EQUALVERIFY OP_CHECKSIG", "type": "pubkeyhash"}, "value": 5.46e-06, "n": 2}], "hex": "01000000018101e0537db6603ca721b695536c37b0d96cb81fa481f72da27cceb4e77bb36c010000006a47304402203a7e420fcb106aff925fae97d17ee5138015561499dff3b2a111a28c6205155e02205a5257dc06e5d92f516939694f37ad4b3caab420e079f6023971469eda14fd78012103da5bac7b36d5aa38f531c6b9601e21bb598a4b6716ebed38b009a55dabde9440feffffff03e85e1e00000000001976a914a25dec4d0011064ef106a983c39c7a540699f22088ac0000000000000000166a146f6d6e69000000000000001f0000015d3ef7980022020000000000001976a91476173daff5dcb0b9ade9cf3ee411ca4de695370488acd1480800", "vin": [{"sequence": 4294967294, "scriptSig": {"hex": "47304402203a7e420fcb106aff925fae97d17ee5138015561499dff3b2a111a28c6205155e02205a5257dc06e5d92f516939694f37ad4b3caab420e079f6023971469eda14fd78012103da5bac7b36d5aa38f531c6b9601e21bb598a4b6716ebed38b009a55dabde9440", "asm": "304402203a7e420fcb106aff925fae97d17ee5138015561499dff3b2a111a28c6205155e02205a5257dc06e5d92f516939694f37ad4b3caab420e079f6023971469eda14fd78[ALL] 03da5bac7b36d5aa38f531c6b9601e21bb598a4b6716ebed38b009a55dabde9440"}, "vout": 1, "txid": "6cb37be7b4ce7ca22df781a41fb86cd9b0376c5395b621a73c60b67d53e00181"}], "txid": "b102ca09862b0ae4f4df2d749635d11bc932e851622ac22012b59c28a31d49b8", "blocktime": 1537870928, "version": 1, "confirmations": 11512, "time": 1537870928, "locktime": 542929, "vsize": 256, "size": 256}