{"hash": "2e191807123cac9401f759fd496fa1b53ca4856f669549dec52633b0492afea1", "blockhash": "0000000000000000000e13cef7c366c0283d82e591d1acd082e914b08063cdf1", "vout": [{"scriptPubKey": {"reqSigs": 1, "hex": "a9140294ffa9eedbb9a8e3dbc394e4336f89b7c1831a87", "addresses": ["31vfmY8wt7ebkGJEp9ZeQrzZNkTqytJiSP"], "asm": "OP_HASH160 0294ffa9eedbb9a8e3dbc394e4336f89b7c1831a OP_EQUAL", "type": "scripthash"}, "value": 0.0099914, "n": 0}, {"scriptPubKey": {"reqSigs": 1, "hex": "76a914e847d1a39f797caa2e72580d9cbdfbefaadf3efa88ac", "addresses": ["1NBBoa2rFXfSANt275EJhHgqAV1Tc5CQQ7"], "asm": "OP_DUP OP_HASH160 e847d1a39f797caa2e72580d9cbdfbefaadf3efa OP_EQUALVERIFY OP_CHECKSIG", "type": "pubkeyhash"}, "value": 0.00305967, "n": 1}], "hex": "020000000001045db4818944001738e35f06adb076704b7a666c75e69c5ee1b34fbcc78baa18760100000017160014cafa58c9dc4e48c858829c7dac3c47199520c2a2feffffff63a59247bf448697908e8e400ab2611c02668bc25d1853e0fbc8d12952864eca10000000171600144a31dc6f462c21de0f7f29d100bfb62ce95078f5feffffffa2f5a82fe9a8068cedf91c9b7bd09f14acf4087623b505e7fcf8065b9246daa702000000171600146d7386f5b204e89c7fbb51a5b5455c568dcd49ebfeffffffe211af7c4e9c8712417afd159cb318946491d226f3c1ab0bca7a3b6c302e76f80500000017160014aecdf0804fa3fa3e839ed122629e65e75b94cc59feffffff02e43e0f000000000017a9140294ffa9eedbb9a8e3dbc394e4336f89b7c1831a872fab0400000000001976a914e847d1a39f797caa2e72580d9cbdfbefaadf3efa88ac02473044022032fa09b92a73f4c8a6ec8c57c89f28127e7db79572b833a5228dceb0e10c627e02201ae3734bbe08632b1893b1f9fcf79d42d55e91873b7311cc36894790603ddf800121034064e6ca179a738ba614aec8f6c3fb3eaa80d0baaa6a239741e08212d4efc809024830450221009c87202052d17aa1789f0d21a0af308979d5e2b63821727cad4d7a297e51245802207b04f076160bef8d0fd915026a74a9b1124f4f9c08d102f9af3f1c4777ca90040121028124f4c8caf3958dac3f2df4552cfe124230dc9bdc2490bd06c5b55ddcb2331a02473044022060f5be7634b9ecb5963dae0ddfe0126f2b16c929c5b7c22779516cc4d5c6fb9102205a08379735ae9b094c3e024355a5e026f2ecaf40bfba335eddccfbf7bce0143a01210309ad2d849d7ca7e883a39283ca6af4b1773795ccd9ed7821aef0a509decc2a8e02483045022100d46e80ece56bce96cde506d6dc6305de083aa26e25688c053f19fcf208ec02c00220235b7e01a11b11405f0a3b0c42e047e55f84c57c90ebc5977cc9c8e2401f593001210338907ff8c7aa6107fe7c08fd7f335ffa61e3066885f6c7adbdf7acece5526d6d10490800", "vin": [{"txinwitness": ["3044022032fa09b92a73f4c8a6ec8c57c89f28127e7db79572b833a5228dceb0e10c627e02201ae3734bbe08632b1893b1f9fcf79d42d55e91873b7311cc36894790603ddf8001", "034064e6ca179a738ba614aec8f6c3fb3eaa80d0baaa6a239741e08212d4efc809"], "sequence": 4294967294, "scriptSig": {"hex": "160014cafa58c9dc4e48c858829c7dac3c47199520c2a2", "asm": "0014cafa58c9dc4e48c858829c7dac3c47199520c2a2"}, "vout": 1, "txid": "7618aa8bc7bc4fb3e15e9ce6756c667a4b7076b0ad065fe3381700448981b45d"}, {"txinwitness": ["30450221009c87202052d17aa1789f0d21a0af308979d5e2b63821727cad4d7a297e51245802207b04f076160bef8d0fd915026a74a9b1124f4f9c08d102f9af3f1c4777ca900401", "028124f4c8caf3958dac3f2df4552cfe124230dc9bdc2490bd06c5b55ddcb2331a"], "sequence": 4294967294, "scriptSig": {"hex": "1600144a31dc6f462c21de0f7f29d100bfb62ce95078f5", "asm": "00144a31dc6f462c21de0f7f29d100bfb62ce95078f5"}, "vout": 16, "txid": "ca4e865229d1c8fbe053185dc28b66021c61b20a408e8e90978644bf4792a563"}, {"txinwitness": ["3044022060f5be7634b9ecb5963dae0ddfe0126f2b16c929c5b7c22779516cc4d5c6fb9102205a08379735ae9b094c3e024355a5e026f2ecaf40bfba335eddccfbf7bce0143a01", "0309ad2d849d7ca7e883a39283ca6af4b1773795ccd9ed7821aef0a509decc2a8e"], "sequence": 4294967294, "scriptSig": {"hex": "1600146d7386f5b204e89c7fbb51a5b5455c568dcd49eb", "asm": "00146d7386f5b204e89c7fbb51a5b5455c568dcd49eb"}, "vout": 2, "txid": "a7da46925b06f8fce705b5237608f4ac149fd07b9b1cf9ed8c06a8e92fa8f5a2"}, {"txinwitness": ["3045022100d46e80ece56bce96cde506d6dc6305de083aa26e25688c053f19fcf208ec02c00220235b7e01a11b11405f0a3b0c42e047e55f84c57c90ebc5977cc9c8e2401f593001", "0338907ff8c7aa6107fe7c08fd7f335ffa61e3066885f6c7adbdf7acece5526d6d"], "sequence": 4294967294, "scriptSig": {"hex": "160014aecdf0804fa3fa3e839ed122629e65e75b94cc59", "asm": "0014aecdf0804fa3fa3e839ed122629e65e75b94cc59"}, "vout": 5, "txid": "f8762e306c3b7aca0babc1f326d291649418b39c15fd7a4112879c4e7caf11e2"}], "txid": "b108880bb143d2be359ec0f9a7bbf2976388fde51790e7bc59fd9ff9a31650e7", "blocktime": 1537871767, "version": 2, "confirmations": 11495, "time": 1537871767, "locktime": 542992, "vsize": 440, "size": 764}