{"hash": "b109b827c3c146ad2d267b9c9c52fb1c3d6a66be1d89db69290a6bce759a7bc1", "blockhash": "0000000000000000001e0dab787dd257d1dbfcb92a98c2207d5e1078be1f4165", "vout": [{"scriptPubKey": {"reqSigs": 1, "hex": "76a91465dc763ceeb2060056d044460c1b5d1fd307852588ac", "addresses": ["1AHbMLNQsJX8inVDTbryEaBxfgvqJcewHe"], "asm": "OP_DUP OP_HASH160 65dc763ceeb2060056d044460c1b5d1fd3078525 OP_EQUALVERIFY OP_CHECKSIG", "type": "pubkeyhash"}, "value": 0.0154638, "n": 0}, {"scriptPubKey": {"reqSigs": 1, "hex": "76a914e77e0207709c5eb1c7eb142ffa9bf0b9f217249588ac", "addresses": ["1N723VpxjjGUx4TDrkPkZdqEk6wnvUPWRn"], "asm": "OP_DUP OP_HASH160 e77e0207709c5eb1c7eb142ffa9bf0b9f2172495 OP_EQUALVERIFY OP_CHECKSIG", "type": "pubkeyhash"}, "value": 0.67755352, "n": 1}], "hex": "01000000013b1ce69b030a5b3f542d8c671ca2b8d183b09eb74a936c1f8a3b5f386e43825c010000006a47304402207d0f76d3fec4886f70668df1f159b9c1f8cfa3b6e95100d33f187e2cfd275072022027738ad04e644394a64746102f427c0c32175eaa18a0829d72f683c1b41d69a401210375e36224a34a721ba22d143e1f61a02d21e53896a3daaa391f3517eef7d0f600ffffffff028c981700000000001976a91465dc763ceeb2060056d044460c1b5d1fd307852588ac58dd0904000000001976a914e77e0207709c5eb1c7eb142ffa9bf0b9f217249588ac00000000", "vin": [{"sequence": 4294967295, "scriptSig": {"hex": "47304402207d0f76d3fec4886f70668df1f159b9c1f8cfa3b6e95100d33f187e2cfd275072022027738ad04e644394a64746102f427c0c32175eaa18a0829d72f683c1b41d69a401210375e36224a34a721ba22d143e1f61a02d21e53896a3daaa391f3517eef7d0f600", "asm": "304402207d0f76d3fec4886f70668df1f159b9c1f8cfa3b6e95100d33f187e2cfd275072022027738ad04e644394a64746102f427c0c32175eaa18a0829d72f683c1b41d69a4[ALL] 0375e36224a34a721ba22d143e1f61a02d21e53896a3daaa391f3517eef7d0f600"}, "vout": 1, "txid": "5c82436e385f3b8a1f6c934ab79eb083d1b8a21c678c2d543f5b0a039be61c3b"}], "txid": "b109b827c3c146ad2d267b9c9c52fb1c3d6a66be1d89db69290a6bce759a7bc1", "blocktime": 1537872475, "version": 1, "confirmations": 11487, "time": 1537872475, "locktime": 0, "vsize": 225, "size": 225}