{"hash": "dbf4896f21c88859d6311fa73065e40df8091ac9775e5333ba8408e6a5dea724", "blockhash": "0000000000000000000dcc0f55137456b1a82d3642486a52398922ac4d620174", "vout": [{"scriptPubKey": {"reqSigs": 1, "hex": "a91420d061d09392d6d8e441484a14cf19a90b90d82a87", "addresses": ["34gXBKj9RzYxyYV4sYiHFdhue3QwuyA7t2"], "asm": "OP_HASH160 20d061d09392d6d8e441484a14cf19a90b90d82a OP_EQUAL", "type": "scripthash"}, "value": 1.701e-05, "n": 0}, {"scriptPubKey": {"reqSigs": 1, "hex": "a91406c4a3ec5dec6f344ef765066ce661857e9c6a8687", "addresses": ["32JoYWBx7pzhZxap9jZmD8rzXNQCcYmnhA"], "asm": "OP_HASH160 06c4a3ec5dec6f344ef765066ce661857e9c6a86 OP_EQUAL", "type": "scripthash"}, "value": 0.01017305, "n": 1}], "hex": "0200000000010244e296453738925392fc0c16106ddc72c9e6d7d8b21ba5d6a51a27f7695db45200000000171600144922ca480c437d3b94da42c3c0bb25cf821479defeffffffedeee6089d15b49949de792e23fa4446ede1d600a02eb8adc0e6024c4968ff1500000000171600143bb9f04d72492eb6fe2d35e80944f7d260dcae47feffffff02a50600000000000017a91420d061d09392d6d8e441484a14cf19a90b90d82a87d9850f000000000017a91406c4a3ec5dec6f344ef765066ce661857e9c6a86870247304402206c5767cfbf2ea9eae8d0be94a96606c377a053f8d99b38efba05081f1d08923702203dcd06184eda13808ff1abe94303f0cdd94e8933600b3e474c39f4b54edcee3c01210239ec285992e4237961bc83baef1ee017733b272fef6bcaf2d4ceb7e55613d64802483045022100ef0a51741651b22e4faff5bd9f1e780e4d5e52b6348f0f0e1f84102f0e9b39c202204c1d84b30ed3d5861dd943f19df10daf0427378e8e949a3cc384b26209d0b4a0012103c2d8c9db6d3243f252e4d52a4ddcdc62bb17045a0b72deac4aa34538358d975d0c490800", "vin": [{"txinwitness": ["304402206c5767cfbf2ea9eae8d0be94a96606c377a053f8d99b38efba05081f1d08923702203dcd06184eda13808ff1abe94303f0cdd94e8933600b3e474c39f4b54edcee3c01", "0239ec285992e4237961bc83baef1ee017733b272fef6bcaf2d4ceb7e55613d648"], "sequence": 4294967294, "scriptSig": {"hex": "1600144922ca480c437d3b94da42c3c0bb25cf821479de", "asm": "00144922ca480c437d3b94da42c3c0bb25cf821479de"}, "vout": 0, "txid": "52b45d69f7271aa5d6a51bb2d8d7e6c972dc6d10160cfc92539238374596e244"}, {"txinwitness": ["3045022100ef0a51741651b22e4faff5bd9f1e780e4d5e52b6348f0f0e1f84102f0e9b39c202204c1d84b30ed3d5861dd943f19df10daf0427378e8e949a3cc384b26209d0b4a001", "03c2d8c9db6d3243f252e4d52a4ddcdc62bb17045a0b72deac4aa34538358d975d"], "sequence": 4294967294, "scriptSig": {"hex": "1600143bb9f04d72492eb6fe2d35e80944f7d260dcae47", "asm": "00143bb9f04d72492eb6fe2d35e80944f7d260dcae47"}, "vout": 0, "txid": "15ff68494c02e6c0adb82ea000d6e1ed4644fa232e79de4999b4159d08e6eeed"}], "txid": "b10a7e7c9643a1c1737bfab1b87ccd124f1fb1539d156b9e566555502b33e7fe", "blocktime": 1537870268, "version": 2, "confirmations": 11518, "time": 1537870268, "locktime": 542988, "vsize": 257, "size": 419}