{"hash": "b1142295b173f7c087188ea84ae4477bcb5750186feaa9cff44e851bba5081dc", "blockhash": "00000000000000000018f53835495a110e01622372bf6ae95dc86f2b0ab887b0", "vout": [{"scriptPubKey": {"reqSigs": 1, "hex": "a91487f9be3daae02eceb9bfffc65148318438cbf2d287", "addresses": ["3E5zKu1u9B6vFRU8z6zmm4FrUpRADv5ahn"], "asm": "OP_HASH160 87f9be3daae02eceb9bfffc65148318438cbf2d2 OP_EQUAL", "type": "scripthash"}, "value": 0.77202601, "n": 0}], "hex": "0100000003cb8982515ff82315f8c26afc41962ceacbfbec1a61e010f2b0a33948abfbe82d020000006a4730440220564994f662d1d75aea2eb456ef628f146c7727a13bd882580461d47449788288022014e6ba779de6c4883075fb5ef1b9f71de95e15c6a940cb4a3046fe0c03c2451b012103ed44e432581299cf7c59e674835d700bf4f987a5abdbc6326c0b1a4ca7ee4feaffffffff526d8fbbbb423f00405a6e2fbffc2e8b3b6a0b23f72153af471d091ce15e3f3d010000006b4830450221009ec72d37076fab222a7f937d86c7ce7ea70ce0ba2e29308bb0ec996894a5016c022036122ca1b296708bf7b7c2d87f3702e553ef5d9422d09f6e54d9c490d90a793a012103ed44e432581299cf7c59e674835d700bf4f987a5abdbc6326c0b1a4ca7ee4feafffffffff0474db7895bb5f8bb82daa52b23630ce958a2f0add015c6868856b9847596d5010000006a47304402206ab48e75c6f579b6bc1caa809d2126e4fb2699090702294516e00f6fa8448d690220066ec41a75a7d2874584e2a684d50618314dbb0249801b8409c2236cf220ede2012103ed44e432581299cf7c59e674835d700bf4f987a5abdbc6326c0b1a4ca7ee4feaffffffff01a9049a040000000017a91487f9be3daae02eceb9bfffc65148318438cbf2d28700000000", "vin": [{"sequence": 4294967295, "scriptSig": {"hex": "4730440220564994f662d1d75aea2eb456ef628f146c7727a13bd882580461d47449788288022014e6ba779de6c4883075fb5ef1b9f71de95e15c6a940cb4a3046fe0c03c2451b012103ed44e432581299cf7c59e674835d700bf4f987a5abdbc6326c0b1a4ca7ee4fea", "asm": "30440220564994f662d1d75aea2eb456ef628f146c7727a13bd882580461d47449788288022014e6ba779de6c4883075fb5ef1b9f71de95e15c6a940cb4a3046fe0c03c2451b[ALL] 03ed44e432581299cf7c59e674835d700bf4f987a5abdbc6326c0b1a4ca7ee4fea"}, "vout": 2, "txid": "2de8fbab4839a3b0f210e0611aecfbcbea2c9641fc6ac2f81523f85f518289cb"}, {"sequence": 4294967295, "scriptSig": {"hex": "4830450221009ec72d37076fab222a7f937d86c7ce7ea70ce0ba2e29308bb0ec996894a5016c022036122ca1b296708bf7b7c2d87f3702e553ef5d9422d09f6e54d9c490d90a793a012103ed44e432581299cf7c59e674835d700bf4f987a5abdbc6326c0b1a4ca7ee4fea", "asm": "30450221009ec72d37076fab222a7f937d86c7ce7ea70ce0ba2e29308bb0ec996894a5016c022036122ca1b296708bf7b7c2d87f3702e553ef5d9422d09f6e54d9c490d90a793a[ALL] 03ed44e432581299cf7c59e674835d700bf4f987a5abdbc6326c0b1a4ca7ee4fea"}, "vout": 1, "txid": "3d3f5ee11c091d47af5321f7230b6a3b8b2efcbf2f6e5a40003f42bbbb8f6d52"}, {"sequence": 4294967295, "scriptSig": {"hex": "47304402206ab48e75c6f579b6bc1caa809d2126e4fb2699090702294516e00f6fa8448d690220066ec41a75a7d2874584e2a684d50618314dbb0249801b8409c2236cf220ede2012103ed44e432581299cf7c59e674835d700bf4f987a5abdbc6326c0b1a4ca7ee4fea", "asm": "304402206ab48e75c6f579b6bc1caa809d2126e4fb2699090702294516e00f6fa8448d690220066ec41a75a7d2874584e2a684d50618314dbb0249801b8409c2236cf220ede2[ALL] 03ed44e432581299cf7c59e674835d700bf4f987a5abdbc6326c0b1a4ca7ee4fea"}, "vout": 1, "txid": "d5967584b9568886c615d0adf0a258e90c63232ba5da82bbf8b55b89b74d47f0"}], "txid": "b1142295b173f7c087188ea84ae4477bcb5750186feaa9cff44e851bba5081dc", "blocktime": 1537870928, "version": 1, "confirmations": 11512, "time": 1537870928, "locktime": 0, "vsize": 484, "size": 484}