{"hash": "b116cd1e50344fefec8cbf8eae70c62e0fd13f003a3dbc2a162e227d99250842", "blockhash": "00000000000000000004ffacab907a6b429b9a5745fa0b75af4234bf69dd7176", "vout": [{"scriptPubKey": {"reqSigs": 1, "hex": "76a914e25c3bc99f65f50a4ba8fd18dce23b955a88d0a988ac", "addresses": ["1MdtCrTeUeHFWB4RNykHYqypeDTgJgwVF4"], "asm": "OP_DUP OP_HASH160 e25c3bc99f65f50a4ba8fd18dce23b955a88d0a9 OP_EQUALVERIFY OP_CHECKSIG", "type": "pubkeyhash"}, "value": 5.46e-06, "n": 0}, {"scriptPubKey": {"reqSigs": 1, "hex": "76a9140a6b825daa1b89f8e100ed8eec6d79b592500f4988ac", "addresses": ["1x6YnuBVeeE65dQRZztRWgUPwyBjHCA5g"], "asm": "OP_DUP OP_HASH160 0a6b825daa1b89f8e100ed8eec6d79b592500f49 OP_EQUALVERIFY OP_CHECKSIG", "type": "pubkeyhash"}, "value": 0.44389068, "n": 1}, {"scriptPubKey": {"type": "nulldata", "hex": "6a146f6d6e69000000000000001f00000017833c1280", "asm": "OP_RETURN 6f6d6e69000000000000001f00000017833c1280"}, "value": 0.0, "n": 2}], "hex": "01000000011c0adb9aac5a2d4a0f91190b6ebc64943c9c591593b1275af688a2ea4be70c0b000000006b483045022100f4ce703a3b4cbd5a3b82b4179518549377b40c660393e1427368398d9af4424e02201020fa1e99c6889cb76313b0bf0d01a7711d3377ef35a1035cc52c0771764e4c012103fe02b06a6bfd9b5a83e0417430a3235a39a0b4c7973591ca27ac58f6474d9120ffffffff0322020000000000001976a914e25c3bc99f65f50a4ba8fd18dce23b955a88d0a988accc52a502000000001976a9140a6b825daa1b89f8e100ed8eec6d79b592500f4988ac0000000000000000166a146f6d6e69000000000000001f00000017833c128000000000", "vin": [{"sequence": 4294967295, "scriptSig": {"hex": "483045022100f4ce703a3b4cbd5a3b82b4179518549377b40c660393e1427368398d9af4424e02201020fa1e99c6889cb76313b0bf0d01a7711d3377ef35a1035cc52c0771764e4c012103fe02b06a6bfd9b5a83e0417430a3235a39a0b4c7973591ca27ac58f6474d9120", "asm": "3045022100f4ce703a3b4cbd5a3b82b4179518549377b40c660393e1427368398d9af4424e02201020fa1e99c6889cb76313b0bf0d01a7711d3377ef35a1035cc52c0771764e4c[ALL] 03fe02b06a6bfd9b5a83e0417430a3235a39a0b4c7973591ca27ac58f6474d9120"}, "vout": 0, "txid": "0b0ce74beaa288f65a27b19315599c3c9464bc6e0b19910f4a2d5aac9adb0a1c"}], "txid": "b116cd1e50344fefec8cbf8eae70c62e0fd13f003a3dbc2a162e227d99250842", "blocktime": 1537875543, "version": 1, "confirmations": 11464, "time": 1537875543, "locktime": 0, "vsize": 257, "size": 257}