{"hash": "b117358e647ce3fa6c2fd69fcfb5740add7a49e285abc70a602ac7ccbcfec9a1", "blockhash": "0000000000000000001cda96e906b7601b7a6fb1a3b62bca570a9e5d8f4b3de1", "vout": [{"scriptPubKey": {"reqSigs": 1, "hex": "a914ec8669e84dafc77a942d29f61263d4f287a86a9587", "addresses": ["3PFeR3UFbTvitWog12qFLeYozejnyefvpE"], "asm": "OP_HASH160 ec8669e84dafc77a942d29f61263d4f287a86a95 OP_EQUAL", "type": "scripthash"}, "value": 1.393e-05, "n": 0}, {"scriptPubKey": {"reqSigs": 1, "hex": "76a9146c6545ff506140419bd21435cbcd91c168c2d18288ac", "addresses": ["1At9JKVJ1UE98rV9uSxKjDV3hCjtBCjUki"], "asm": "OP_DUP OP_HASH160 6c6545ff506140419bd21435cbcd91c168c2d182 OP_EQUALVERIFY OP_CHECKSIG", "type": "pubkeyhash"}, "value": 0.00013524, "n": 1}], "hex": "01000000010fb418776c99468bc716bbc0e808594a9dce28dcd9d3d32a3749c097a79a669b000000006a4730440220044359756b1d2c72b52347184074df6684e2f0bbcee1e48587c0df51805d173a02205cb582321f4c1391b92bcc4193215917d8609d36fc13ef53ed8316fcda5b9ad7012103527a96eaebee98d8816dabd1962adf4c546e6549e4348b72108f9906b6b4a12fffffffff02710500000000000017a914ec8669e84dafc77a942d29f61263d4f287a86a9587d4340000000000001976a9146c6545ff506140419bd21435cbcd91c168c2d18288ac00000000", "vin": [{"sequence": 4294967295, "scriptSig": {"hex": "4730440220044359756b1d2c72b52347184074df6684e2f0bbcee1e48587c0df51805d173a02205cb582321f4c1391b92bcc4193215917d8609d36fc13ef53ed8316fcda5b9ad7012103527a96eaebee98d8816dabd1962adf4c546e6549e4348b72108f9906b6b4a12f", "asm": "30440220044359756b1d2c72b52347184074df6684e2f0bbcee1e48587c0df51805d173a02205cb582321f4c1391b92bcc4193215917d8609d36fc13ef53ed8316fcda5b9ad7[ALL] 03527a96eaebee98d8816dabd1962adf4c546e6549e4348b72108f9906b6b4a12f"}, "vout": 0, "txid": "9b669aa797c049372ad3d3d9dc28ce9d4a5908e8c0bb16c78b46996c7718b40f"}], "txid": "b117358e647ce3fa6c2fd69fcfb5740add7a49e285abc70a602ac7ccbcfec9a1", "blocktime": 1537873282, "version": 1, "confirmations": 11485, "time": 1537873282, "locktime": 0, "vsize": 223, "size": 223}