{"hash": "b11bb742d277c497e2351467ab61f1bbbf13fbde5f2c550fd48bc5e6291eb584", "blockhash": "0000000000000000000dcc0f55137456b1a82d3642486a52398922ac4d620174", "vout": [{"scriptPubKey": {"reqSigs": 1, "hex": "76a9142cd26d685c39fc6207b99b905d55f091dfd8cadf88ac", "addresses": ["155zpC4nMU2BxF3RYf1rT6UmBYQGCRJUed"], "asm": "OP_DUP OP_HASH160 2cd26d685c39fc6207b99b905d55f091dfd8cadf OP_EQUALVERIFY OP_CHECKSIG", "type": "pubkeyhash"}, "value": 0.004, "n": 0}, {"scriptPubKey": {"reqSigs": 1, "hex": "76a914b7b32ba3628a17fda52d25339b32edd519432d8388ac", "addresses": ["1HkKJ63KvH8UCFtJ1PD3yW3n7HXqaJjMMs"], "asm": "OP_DUP OP_HASH160 b7b32ba3628a17fda52d25339b32edd519432d83 OP_EQUALVERIFY OP_CHECKSIG", "type": "pubkeyhash"}, "value": 0.26081504, "n": 1}], "hex": "01000000019df19fe957516b5f7ce1fb36e94764c0f4e793b9a42e3d38723fccc8d114ef25010000006b483045022100d74f62d506907dd999887e2cdccd20c38c022367abdc38ae2ae1af2b3e5740bf022027024347c71dc50f106efe28a0ddffda04a25ff92fb47bf52ef410af65f8233d0121036c49c4e35846879845c315defd7c01a942bc0c7063b382ab6e5aea3e313eaa73ffffffff02801a0600000000001976a9142cd26d685c39fc6207b99b905d55f091dfd8cadf88ace0f88d01000000001976a914b7b32ba3628a17fda52d25339b32edd519432d8388ac00000000", "vin": [{"sequence": 4294967295, "scriptSig": {"hex": "483045022100d74f62d506907dd999887e2cdccd20c38c022367abdc38ae2ae1af2b3e5740bf022027024347c71dc50f106efe28a0ddffda04a25ff92fb47bf52ef410af65f8233d0121036c49c4e35846879845c315defd7c01a942bc0c7063b382ab6e5aea3e313eaa73", "asm": "3045022100d74f62d506907dd999887e2cdccd20c38c022367abdc38ae2ae1af2b3e5740bf022027024347c71dc50f106efe28a0ddffda04a25ff92fb47bf52ef410af65f8233d[ALL] 036c49c4e35846879845c315defd7c01a942bc0c7063b382ab6e5aea3e313eaa73"}, "vout": 1, "txid": "25ef14d1c8cc3f72383d2ea4b993e7f4c06447e936fbe17c5f6b5157e99ff19d"}], "txid": "b11bb742d277c497e2351467ab61f1bbbf13fbde5f2c550fd48bc5e6291eb584", "blocktime": 1537870268, "version": 1, "confirmations": 11517, "time": 1537870268, "locktime": 0, "vsize": 226, "size": 226}