{"hash": "8f785e51a429b69ea3e76146951710d3635a4aeb3394017c6dff8bfd194be4ef", "blockhash": "0000000000000000001cda96e906b7601b7a6fb1a3b62bca570a9e5d8f4b3de1", "vout": [{"scriptPubKey": {"reqSigs": 1, "hex": "76a91476846b400a6ab639740136508eaaad5da144587888ac", "addresses": ["1BofNGQefh7kyxFB6A83jkRovVHvKbFEFf"], "asm": "OP_DUP OP_HASH160 76846b400a6ab639740136508eaaad5da1445878 OP_EQUALVERIFY OP_CHECKSIG", "type": "pubkeyhash"}, "value": 0.0046046, "n": 0}, {"scriptPubKey": {"reqSigs": 1, "hex": "a914f3cd9dbd4ca58c1bc90d7e34f12adc6ced8b065c87", "addresses": ["3Pv8ScwYBgjQQh4MXUCvhMTpSokuY2wDhT"], "asm": "OP_HASH160 f3cd9dbd4ca58c1bc90d7e34f12adc6ced8b065c OP_EQUAL", "type": "scripthash"}, "value": 0.00999659, "n": 1}], "hex": "02000000000102c788a3f7421b30a871ddf0646c796293ac844a8d625748b9801aa76032de96620000000017160014df96f2029cd52b9f7f6f921fd206973e6359db41feffffffdf4d7db1cfc3d8b3746d397292c8f653a8d9b27fce49d7b73311adc5018b26260d0000001716001473ab9b93042b8e47b3875ded4565a3bf0e947df2feffffff02ac060700000000001976a91476846b400a6ab639740136508eaaad5da144587888aceb400f000000000017a914f3cd9dbd4ca58c1bc90d7e34f12adc6ced8b065c87024830450221009ee898982068693942645a9b73380851bd2206626bec25bcb1175f27646941f802202aef7384ac7766e69b17e0e5aa6eda5bb28a6a5d3abd694a74454c51940145e1012102651be4e235112b66af05dce3d7dcf715d02e89f84d9f424ab95e750f87b3babf0247304402206dfb825d64ff5e25a723635d551aa6a5b9977b1c076045f9c255de51b39bd9f30220687fe8474342e7070ce86f91e7bbfa81435a9ca8609eab951b0e282cbcf6c976012103b31e62c92e8581382c4261f1b00c9be7ed55d7deec05d6d55d71632397e7b4fb13490800", "vin": [{"txinwitness": ["30450221009ee898982068693942645a9b73380851bd2206626bec25bcb1175f27646941f802202aef7384ac7766e69b17e0e5aa6eda5bb28a6a5d3abd694a74454c51940145e101", "02651be4e235112b66af05dce3d7dcf715d02e89f84d9f424ab95e750f87b3babf"], "sequence": 4294967294, "scriptSig": {"hex": "160014df96f2029cd52b9f7f6f921fd206973e6359db41", "asm": "0014df96f2029cd52b9f7f6f921fd206973e6359db41"}, "vout": 0, "txid": "6296de3260a71a80b94857628d4a84ac9362796c64f0dd71a8301b42f7a388c7"}, {"txinwitness": ["304402206dfb825d64ff5e25a723635d551aa6a5b9977b1c076045f9c255de51b39bd9f30220687fe8474342e7070ce86f91e7bbfa81435a9ca8609eab951b0e282cbcf6c97601", "03b31e62c92e8581382c4261f1b00c9be7ed55d7deec05d6d55d71632397e7b4fb"], "sequence": 4294967294, "scriptSig": {"hex": "16001473ab9b93042b8e47b3875ded4565a3bf0e947df2", "asm": "001473ab9b93042b8e47b3875ded4565a3bf0e947df2"}, "vout": 13, "txid": "26268b01c5ad1133b7d749ce7fb2d9a853f6c89272396d74b3d8c3cfb17d4ddf"}], "txid": "b11e0a1f4f91815e70052a78cde6510ae5061ce8cb38cc0c32bcd4933af0a03c", "blocktime": 1537873282, "version": 2, "confirmations": 11485, "time": 1537873282, "locktime": 542995, "vsize": 259, "size": 421}