{"hash": "47fb76500fa62a28cbb9e2f70f67fbdf771fb1b6fb5178df6521551f6e4fd0c9", "blockhash": "0000000000000000000e13cef7c366c0283d82e591d1acd082e914b08063cdf1", "vout": [{"scriptPubKey": {"reqSigs": 1, "hex": "76a9143dc73f6b309914c920ebeff955be55c7a47e75e088ac", "addresses": ["16deugF43jgtNQo8bFBs2ME2qXQoMbuZa4"], "asm": "OP_DUP OP_HASH160 3dc73f6b309914c920ebeff955be55c7a47e75e0 OP_EQUALVERIFY OP_CHECKSIG", "type": "pubkeyhash"}, "value": 0.00183338, "n": 0}, {"scriptPubKey": {"reqSigs": 1, "hex": "001482b97dc49f2368d3c838dbcd90730fb72e38c6dc", "addresses": ["bc1qs2uhm3ylyd5d8jpcm0xequc0kuhr33kujpkmdw"], "asm": "0 82b97dc49f2368d3c838dbcd90730fb72e38c6dc", "type": "witness_v0_keyhash"}, "value": 2.672e-05, "n": 1}], "hex": "01000000000101e870bbea8bb93979f1564545ccde9aeccdb7d036581128f6581c976f01410a06140600001716001470af28d5aa087ba68e3fa76de948cb81260bd5d5ffffffff022acc0200000000001976a9143dc73f6b309914c920ebeff955be55c7a47e75e088ac700a00000000000016001482b97dc49f2368d3c838dbcd90730fb72e38c6dc024830450221009f4c0b334e039e074af7b78f9ba5d17b1d09e26c31a81880195361967603affe02205c251389450fee1550b2fe1304cb08c8855071c28f1909e54be40940ec49d155012102af6ced0504fb8ddf041f5c97265abb8ffd114e838f638e5b980b1857921bc82200000000", "vin": [{"txinwitness": ["30450221009f4c0b334e039e074af7b78f9ba5d17b1d09e26c31a81880195361967603affe02205c251389450fee1550b2fe1304cb08c8855071c28f1909e54be40940ec49d15501", "02af6ced0504fb8ddf041f5c97265abb8ffd114e838f638e5b980b1857921bc822"], "sequence": 4294967295, "scriptSig": {"hex": "16001470af28d5aa087ba68e3fa76de948cb81260bd5d5", "asm": "001470af28d5aa087ba68e3fa76de948cb81260bd5d5"}, "vout": 1556, "txid": "060a41016f971c58f628115836d0b7cdec9adecc454556f17939b98beabb70e8"}], "txid": "b1245a0baaa90ca1f2a1967390262994feabe2dcdff69b7d14d82cc311a5ca12", "blocktime": 1537871767, "version": 1, "confirmations": 11495, "time": 1537871767, "locktime": 0, "vsize": 167, "size": 249}