{"hash": "b131d864b6e1ef447a19a43cdccd28ac9fb6cb9ee4fefe13c59fe1c0af718728", "blockhash": "00000000000000000004ffacab907a6b429b9a5745fa0b75af4234bf69dd7176", "vout": [{"scriptPubKey": {"reqSigs": 1, "hex": "76a91405094fa781f50877473425461da1fa36c5e94f1188ac", "addresses": ["1TdXujU9gmAGTdQ1NT28DxEozzUQ1wsua"], "asm": "OP_DUP OP_HASH160 05094fa781f50877473425461da1fa36c5e94f11 OP_EQUALVERIFY OP_CHECKSIG", "type": "pubkeyhash"}, "value": 0.00981092, "n": 0}], "hex": "01000000018aa8d036c1a7b93c9d7398a9f13997becda25f2667274d36ded449ed70b955b4010000006a473044022044a45dae7a700cff62e7c50fc9c809cc0003f96177b642bbf256527eb8dedcda02201598fa092f1b708cc2233c7a68a15749b2468b3cb80127a810407996b3edbc500121032c0deca07be9b84c38e2a85da72d880ee8e701e1aff955c0cb276ea9c97a2155ffffffff0164f80e00000000001976a91405094fa781f50877473425461da1fa36c5e94f1188ac00000000", "vin": [{"sequence": 4294967295, "scriptSig": {"hex": "473044022044a45dae7a700cff62e7c50fc9c809cc0003f96177b642bbf256527eb8dedcda02201598fa092f1b708cc2233c7a68a15749b2468b3cb80127a810407996b3edbc500121032c0deca07be9b84c38e2a85da72d880ee8e701e1aff955c0cb276ea9c97a2155", "asm": "3044022044a45dae7a700cff62e7c50fc9c809cc0003f96177b642bbf256527eb8dedcda02201598fa092f1b708cc2233c7a68a15749b2468b3cb80127a810407996b3edbc50[ALL] 032c0deca07be9b84c38e2a85da72d880ee8e701e1aff955c0cb276ea9c97a2155"}, "vout": 1, "txid": "b455b970ed49d4de364d2767265fa2cdbe9739f1a998739d3cb9a7c136d0a88a"}], "txid": "b131d864b6e1ef447a19a43cdccd28ac9fb6cb9ee4fefe13c59fe1c0af718728", "blocktime": 1537875543, "version": 1, "confirmations": 11464, "time": 1537875543, "locktime": 0, "vsize": 191, "size": 191}