{"hash": "b1391beb8589bec57be415c56433c6d76dd1fc643af402474ea97ae43fe4bce7", "blockhash": "00000000000000000017f5eb5941039fbcee6240d03bc1f2f8e35350df66a1d8", "vout": [{"scriptPubKey": {"reqSigs": 1, "hex": "76a91475711ecf305b93296d934dc52a2f4412daeb11a988ac", "addresses": ["1BhyaBfHZaJgey4zGbueZrb5bVBXErbLu9"], "asm": "OP_DUP OP_HASH160 75711ecf305b93296d934dc52a2f4412daeb11a9 OP_EQUALVERIFY OP_CHECKSIG", "type": "pubkeyhash"}, "value": 0.09784919, "n": 0}, {"scriptPubKey": {"reqSigs": 1, "hex": "76a91449ebf48c90ea9d9c6d4755e0f0ed093593acfa8a88ac", "addresses": ["17jrzTsA16oBNdJqqchpsYEp1d8eaoKmR8"], "asm": "OP_DUP OP_HASH160 49ebf48c90ea9d9c6d4755e0f0ed093593acfa8a OP_EQUALVERIFY OP_CHECKSIG", "type": "pubkeyhash"}, "value": 0.19953855, "n": 1}], "hex": "01000000014862701d4b085eaf95602cfdcf0cecb83c263933d8a9546374ea1156573c7408010000006b483045022100e113b43a7cd4f3d4369818b65af79c77bb27fa3c08db43efc0535d19677c72a702202cb046182a19df549ea5582167d8d1ea9ea8eff3ad0bb383b511b0719f4a99e6012103da90114e6593749e3b0042e3ba3bf1a30a5405c7292fe4c94e65327c67596ddaffffffff02574e9500000000001976a91475711ecf305b93296d934dc52a2f4412daeb11a988acbf783001000000001976a91449ebf48c90ea9d9c6d4755e0f0ed093593acfa8a88ac00000000", "vin": [{"sequence": 4294967295, "scriptSig": {"hex": "483045022100e113b43a7cd4f3d4369818b65af79c77bb27fa3c08db43efc0535d19677c72a702202cb046182a19df549ea5582167d8d1ea9ea8eff3ad0bb383b511b0719f4a99e6012103da90114e6593749e3b0042e3ba3bf1a30a5405c7292fe4c94e65327c67596dda", "asm": "3045022100e113b43a7cd4f3d4369818b65af79c77bb27fa3c08db43efc0535d19677c72a702202cb046182a19df549ea5582167d8d1ea9ea8eff3ad0bb383b511b0719f4a99e6[ALL] 03da90114e6593749e3b0042e3ba3bf1a30a5405c7292fe4c94e65327c67596dda"}, "vout": 1, "txid": "08743c575611ea746354a9d83339263cb8ec0ccffd2c6095af5e084b1d706248"}], "txid": "b1391beb8589bec57be415c56433c6d76dd1fc643af402474ea97ae43fe4bce7", "blocktime": 1537874412, "version": 1, "confirmations": 11467, "time": 1537874412, "locktime": 0, "vsize": 226, "size": 226}