{"hash": "b13b762e87b7b744f00a8c25803c1e1eaa7f2b866e9739df2239391de3997c6e", "blockhash": "0000000000000000000e13cef7c366c0283d82e591d1acd082e914b08063cdf1", "vout": [{"scriptPubKey": {"reqSigs": 1, "hex": "76a91427aba22f51e9a8b0795e950ae476658e5ae3859088ac", "addresses": ["14ckxnjHQDBiw8W3o3Y4ZxyT9LVMJp7xH3"], "asm": "OP_DUP OP_HASH160 27aba22f51e9a8b0795e950ae476658e5ae38590 OP_EQUALVERIFY OP_CHECKSIG", "type": "pubkeyhash"}, "value": 0.00227032, "n": 0}, {"scriptPubKey": {"reqSigs": 1, "hex": "76a914864f3cd19fde987345cada64b27dc50eba9050d688ac", "addresses": ["1DFAUEFNQgbiyEcSZjKdoPSNQZMLLscNg1"], "asm": "OP_DUP OP_HASH160 864f3cd19fde987345cada64b27dc50eba9050d6 OP_EQUALVERIFY OP_CHECKSIG", "type": "pubkeyhash"}, "value": 0.055, "n": 1}], "hex": "0100000002ea0fe724dc23d7bf8ca4ff8610e4926da7342e7a948b8b3b4ea9186451bfba04000000006a47304402201595d0eb4d837455b76557647c39353a0b1c10e304a7c17cc8da2bd6a85ea8b002206547c194b326b49e3ac54e323d4a12418723782a37950160f6bd47b25089b000012102dae5463b1f4a7f395e02d5eea80249cf1f5c352d81dd7ba1b8055ed8333f40f1ffffffffc557cc0d01be0f2befde2a40472c33f743d517c62f51b50ab20e68a4eb2b407e010000006a4730440220204fe783943e26d4c76f84ecab6ac023e89de51fddf7145b8152ec4c999f0ac80220425b897ade77ae8fc31a60276522243629f0737e6825def9bb2ade9344f56fa2012103120e7c9ba9d61e94ad5ff6da69ff253400ae0ebad6f0cc170e8d6df45d843f62ffffffff02d8760300000000001976a91427aba22f51e9a8b0795e950ae476658e5ae3859088ac60ec5300000000001976a914864f3cd19fde987345cada64b27dc50eba9050d688ac00000000", "vin": [{"sequence": 4294967295, "scriptSig": {"hex": "47304402201595d0eb4d837455b76557647c39353a0b1c10e304a7c17cc8da2bd6a85ea8b002206547c194b326b49e3ac54e323d4a12418723782a37950160f6bd47b25089b000012102dae5463b1f4a7f395e02d5eea80249cf1f5c352d81dd7ba1b8055ed8333f40f1", "asm": "304402201595d0eb4d837455b76557647c39353a0b1c10e304a7c17cc8da2bd6a85ea8b002206547c194b326b49e3ac54e323d4a12418723782a37950160f6bd47b25089b000[ALL] 02dae5463b1f4a7f395e02d5eea80249cf1f5c352d81dd7ba1b8055ed8333f40f1"}, "vout": 0, "txid": "04babf516418a94e3b8b8b947a2e34a76d92e41086ffa48cbfd723dc24e70fea"}, {"sequence": 4294967295, "scriptSig": {"hex": "4730440220204fe783943e26d4c76f84ecab6ac023e89de51fddf7145b8152ec4c999f0ac80220425b897ade77ae8fc31a60276522243629f0737e6825def9bb2ade9344f56fa2012103120e7c9ba9d61e94ad5ff6da69ff253400ae0ebad6f0cc170e8d6df45d843f62", "asm": "30440220204fe783943e26d4c76f84ecab6ac023e89de51fddf7145b8152ec4c999f0ac80220425b897ade77ae8fc31a60276522243629f0737e6825def9bb2ade9344f56fa2[ALL] 03120e7c9ba9d61e94ad5ff6da69ff253400ae0ebad6f0cc170e8d6df45d843f62"}, "vout": 1, "txid": "7e402beba4680eb20ab5512fc617d543f7332c47402adeef2b0fbe010dcc57c5"}], "txid": "b13b762e87b7b744f00a8c25803c1e1eaa7f2b866e9739df2239391de3997c6e", "blocktime": 1537871767, "version": 1, "confirmations": 11495, "time": 1537871767, "locktime": 0, "vsize": 372, "size": 372}