{"hash": "24b176fa93431076b04b10f0c4f4b4a4d5771953a612214491128bd841279af4", "blockhash": "00000000000000000018f53835495a110e01622372bf6ae95dc86f2b0ab887b0", "vout": [{"scriptPubKey": {"reqSigs": 1, "hex": "0014a14a59dc9e4586fc14d09ef849656f2f30714519", "addresses": ["bc1q5999nhy7gkr0c9xsnmuyjet09uc8z3ge30p446"], "asm": "0 a14a59dc9e4586fc14d09ef849656f2f30714519", "type": "witness_v0_keyhash"}, "value": 6.85334634, "n": 0}, {"scriptPubKey": {"reqSigs": 1, "hex": "76a91414a6575181835295c63fde109fb68fb37f954e6a88ac", "addresses": ["12tBnRF68xCtqQ7zipjjEwvGm6AzGG2Bz8"], "asm": "OP_DUP OP_HASH160 14a6575181835295c63fde109fb68fb37f954e6a OP_EQUALVERIFY OP_CHECKSIG", "type": "pubkeyhash"}, "value": 0.03, "n": 1}], "hex": "02000000000101ca96575de4213b0008f702c045881cd67b9a4bc6cdbca768a46d68061c3caadd0000000000ffffffff026a60d92800000000160014a14a59dc9e4586fc14d09ef849656f2f30714519c0c62d00000000001976a91414a6575181835295c63fde109fb68fb37f954e6a88ac0247304402204e9486981ed6181701280853f89c637331c4f5d085657e94dfbfa08f12f03452022004f71fab0a4d2f9e9fa5053a96d1d458c39f371c44baa649f9add7ce707c08e3012102d13ba5aa966b61220a7de8f91e17c8950769b0f62e2556a191fd4be8c5b67cf400000000", "vin": [{"txinwitness": ["304402204e9486981ed6181701280853f89c637331c4f5d085657e94dfbfa08f12f03452022004f71fab0a4d2f9e9fa5053a96d1d458c39f371c44baa649f9add7ce707c08e301", "02d13ba5aa966b61220a7de8f91e17c8950769b0f62e2556a191fd4be8c5b67cf4"], "sequence": 4294967295, "scriptSig": {"hex": "", "asm": ""}, "vout": 0, "txid": "ddaa3c1c06686da468a7bccdc64b9a7bd61c8845c002f708003b21e45d5796ca"}], "txid": "b13c363b0ce36a995cc989839704dc78fd1e53b027fd03b85d0375f2d7fc10e0", "blocktime": 1537870928, "version": 2, "confirmations": 11512, "time": 1537870928, "locktime": 0, "vsize": 144, "size": 225}