{"hash": "e600ac2c93d5fe43f1da2b727dd4c81aa57904cfe88af213566af366514b6ee6", "blockhash": "0000000000000000001cda96e906b7601b7a6fb1a3b62bca570a9e5d8f4b3de1", "vout": [{"scriptPubKey": {"reqSigs": 1, "hex": "a9146c9b6b9967eb23217a6cdbd52acd0372d6dafe4f87", "addresses": ["3BbH645Sfm1jrnfW2y55J2S4pr43sEiXTc"], "asm": "OP_HASH160 6c9b6b9967eb23217a6cdbd52acd0372d6dafe4f OP_EQUAL", "type": "scripthash"}, "value": 0.02762484, "n": 0}, {"scriptPubKey": {"reqSigs": 1, "hex": "76a91469da64ea914d27649d5ca3eb09c52f0efce6949588ac", "addresses": ["1AehaSNqe8rL2QLVhuRLZV5XFWBsexXRJ8"], "asm": "OP_DUP OP_HASH160 69da64ea914d27649d5ca3eb09c52f0efce69495 OP_EQUALVERIFY OP_CHECKSIG", "type": "pubkeyhash"}, "value": 0.00317385, "n": 1}, {"scriptPubKey": {"reqSigs": 1, "hex": "76a91466818404893494cb087d2774bdbb741dc6cd7db088ac", "addresses": ["1AM15UYZLYQJv86L5uGVaS9tFouGj9jpGo"], "asm": "OP_DUP OP_HASH160 66818404893494cb087d2774bdbb741dc6cd7db0 OP_EQUALVERIFY OP_CHECKSIG", "type": "pubkeyhash"}, "value": 0.0221032, "n": 2}, {"scriptPubKey": {"reqSigs": 1, "hex": "a914809b865e7feb841e083d34590b45a5def56016b687", "addresses": ["3DR2jA1RWLEj2QWUP6FYZNgAvzvGXxSeA4"], "asm": "OP_HASH160 809b865e7feb841e083d34590b45a5def56016b6 OP_EQUAL", "type": "scripthash"}, "value": 1.39755468, "n": 3}], "hex": "02000000000101f5d1e4265795ac08463bdb25980a367c0b6d3d8766c4e69d2b2c6c79185ce64401000000171600145bc7a83f4beb2acce053f129517e5b264d7a1101feffffff04f4262a000000000017a9146c9b6b9967eb23217a6cdbd52acd0372d6dafe4f87c9d70400000000001976a91469da64ea914d27649d5ca3eb09c52f0efce6949588ac10ba2100000000001976a91466818404893494cb087d2774bdbb741dc6cd7db088accc7f54080000000017a914809b865e7feb841e083d34590b45a5def56016b68702483045022100a2e77f655a6f041d6a2e57d4dde45e3573510dc048df41bb069472af8eecadd8022077181b4174135a812fab64aaf32f5bb6b6805f13ee66d5b633514bf1e29a5f510121027910b99de2c31fd96d2e2de50a2795e4d31f3820008af9dd6396e1ba8324f4b613490800", "vin": [{"txinwitness": ["3045022100a2e77f655a6f041d6a2e57d4dde45e3573510dc048df41bb069472af8eecadd8022077181b4174135a812fab64aaf32f5bb6b6805f13ee66d5b633514bf1e29a5f5101", "027910b99de2c31fd96d2e2de50a2795e4d31f3820008af9dd6396e1ba8324f4b6"], "sequence": 4294967294, "scriptSig": {"hex": "1600145bc7a83f4beb2acce053f129517e5b264d7a1101", "asm": "00145bc7a83f4beb2acce053f129517e5b264d7a1101"}, "vout": 1, "txid": "44e65c18796c2c2b9de6c466873d6d0b7c360a9825db3b4608ac955726e4d1f5"}], "txid": "b146db59ce614b4abc24f200d219fc4c0cd755dfad4f3c67e1eb642b40152963", "blocktime": 1537873282, "version": 2, "confirmations": 11480, "time": 1537873282, "locktime": 542995, "vsize": 234, "size": 316}