{"hash": "b147c3470a6bcdb719e087c5651d2a3894872c3621931eadb9d9dd5b8cc91514", "blockhash": "00000000000000000004ffacab907a6b429b9a5745fa0b75af4234bf69dd7176", "vout": [{"scriptPubKey": {"reqSigs": 1, "hex": "a914a795cd46fe7235e8f5e2b7ddca4a9ae7aec60a6b87", "addresses": ["3Gy8DzgxYcj4P9AMEEvbFR46wxuXi34jRU"], "asm": "OP_HASH160 a795cd46fe7235e8f5e2b7ddca4a9ae7aec60a6b OP_EQUAL", "type": "scripthash"}, "value": 0.0021376, "n": 0}, {"scriptPubKey": {"reqSigs": 1, "hex": "76a914ea0e00a2ad8000fec1fce06bf0f54c2816e66e5788ac", "addresses": ["1NLZtoGwbSQY9KvFxYf6h6EyA2WQqyNBcW"], "asm": "OP_DUP OP_HASH160 ea0e00a2ad8000fec1fce06bf0f54c2816e66e57 OP_EQUALVERIFY OP_CHECKSIG", "type": "pubkeyhash"}, "value": 0.00759238, "n": 1}], "hex": "0100000001a4c48da45359b961064e65c2a58092f24c79bebda11b3375b3fc4a90c5508d5a010000006b483045022100d05830fe86733b5e8f2cdcf6dc74e1e87b84eae6d384bf87523c887682d57e2e0220637149191a4b0938ac66cf1d7d529e2987655e669a74c8bc051ca4582c9f6104012102a324306985c5999758bba3f1cd9bd0147f74e817c2a776f9e55206d93cf94b5affffffff02004303000000000017a914a795cd46fe7235e8f5e2b7ddca4a9ae7aec60a6b87c6950b00000000001976a914ea0e00a2ad8000fec1fce06bf0f54c2816e66e5788ac00000000", "vin": [{"sequence": 4294967295, "scriptSig": {"hex": "483045022100d05830fe86733b5e8f2cdcf6dc74e1e87b84eae6d384bf87523c887682d57e2e0220637149191a4b0938ac66cf1d7d529e2987655e669a74c8bc051ca4582c9f6104012102a324306985c5999758bba3f1cd9bd0147f74e817c2a776f9e55206d93cf94b5a", "asm": "3045022100d05830fe86733b5e8f2cdcf6dc74e1e87b84eae6d384bf87523c887682d57e2e0220637149191a4b0938ac66cf1d7d529e2987655e669a74c8bc051ca4582c9f6104[ALL] 02a324306985c5999758bba3f1cd9bd0147f74e817c2a776f9e55206d93cf94b5a"}, "vout": 1, "txid": "5a8d50c5904afcb375331ba1bdbe794cf29280a5c2654e0661b95953a48dc4a4"}], "txid": "b147c3470a6bcdb719e087c5651d2a3894872c3621931eadb9d9dd5b8cc91514", "blocktime": 1537875543, "version": 1, "confirmations": 11464, "time": 1537875543, "locktime": 0, "vsize": 224, "size": 224}