{"hash": "b14884305d84be20d6bdae70194df9ab8aec9fa86db1356ce67744b2cd567742", "blockhash": "000000000000000000022b45ed06c6f4ccd3cf7fb5ba4856ebd2e58215665228", "vout": [{"scriptPubKey": {"reqSigs": 1, "hex": "a9149b9c021271cc815419045ae0f0e89792d9ffc99287", "addresses": ["3FsoYuj3hwRB2Yb7vc1s4p38bE4hMpTga3"], "asm": "OP_HASH160 9b9c021271cc815419045ae0f0e89792d9ffc992 OP_EQUAL", "type": "scripthash"}, "value": 0.00705191, "n": 0}, {"scriptPubKey": {"reqSigs": 1, "hex": "76a914961ddf1285633c2c385b2759bac4f9034d654a9c88ac", "addresses": ["1Egk9GuLUfCn4T273MJMsA41qCqKSngfuL"], "asm": "OP_DUP OP_HASH160 961ddf1285633c2c385b2759bac4f9034d654a9c OP_EQUALVERIFY OP_CHECKSIG", "type": "pubkeyhash"}, "value": 0.00070318, "n": 1}], "hex": "0100000001b39204bb21bed82d8a72248a37052dcf8c0b914465cd93af262a6d714e1b411f010000006a4730440220615f157e90fe30df68a0fa0d13cf3649f64f1bec2ffb9c50d6c1b43d574ef87a02204128afdcd6cc1458f3f30278267fb29aaeeaafdb231682580ae3e2ecc2c637ef01210257006b6182e290c56d3266846dfc39eaa0b1ddef34b9e5338924bfb23c7241adffffffff02a7c20a000000000017a9149b9c021271cc815419045ae0f0e89792d9ffc99287ae120100000000001976a914961ddf1285633c2c385b2759bac4f9034d654a9c88ac00000000", "vin": [{"sequence": 4294967295, "scriptSig": {"hex": "4730440220615f157e90fe30df68a0fa0d13cf3649f64f1bec2ffb9c50d6c1b43d574ef87a02204128afdcd6cc1458f3f30278267fb29aaeeaafdb231682580ae3e2ecc2c637ef01210257006b6182e290c56d3266846dfc39eaa0b1ddef34b9e5338924bfb23c7241ad", "asm": "30440220615f157e90fe30df68a0fa0d13cf3649f64f1bec2ffb9c50d6c1b43d574ef87a02204128afdcd6cc1458f3f30278267fb29aaeeaafdb231682580ae3e2ecc2c637ef[ALL] 0257006b6182e290c56d3266846dfc39eaa0b1ddef34b9e5338924bfb23c7241ad"}, "vout": 1, "txid": "1f411b4e716d2a26af93cd6544910b8ccf2d05378a24728a2dd8be21bb0492b3"}], "txid": "b14884305d84be20d6bdae70194df9ab8aec9fa86db1356ce67744b2cd567742", "blocktime": 1537869901, "version": 1, "confirmations": 11522, "time": 1537869901, "locktime": 0, "vsize": 223, "size": 223}