{"hash": "b14ac519e25b362fe54c85bac4d7a3549eafd0af1178ce1f5be491a5ffb3c41f", "blockhash": "00000000000000000018f53835495a110e01622372bf6ae95dc86f2b0ab887b0", "vout": [{"scriptPubKey": {"reqSigs": 1, "hex": "a91464e17d37af264be3a6667309b69df80688e9e18587", "addresses": ["3AtRczA6J7JatFfit8jpPpVEU8QSABkma8"], "asm": "OP_HASH160 64e17d37af264be3a6667309b69df80688e9e185 OP_EQUAL", "type": "scripthash"}, "value": 0.80431874, "n": 0}], "hex": "01000000076a1911f967ff5f85b03c0f660ee2f469e66d0b8e7e03d5fee3a40927bc7cb00a100000006b4830450221008bd4ad33abf0f8995b5d409299272d70dfd33cd2968fcc68ba89be7e0afb7c33022031f66c3b2d401a05e506833eca97a7392648ec979020caa4b4903d7eac0cfc73012102855eda62335674477720ebfecc28cce0c8800acb6589406ff62cac02d5e18424ffffffff72a3b180dbe0a84c4c9e483e4e1f7f93eb398b60cc5ca7934c4314574725f73901000000694630430220360f822d23cf18995a5cb44fd6eaed90d8ce338e9ea4be335ae5d8fa78c8336b021f6b8ba5934e941fb920a11dca831ef7c38fd14c253def7027e422b6fa0e5bfb0121039e5065f67e458f0a92eed69bea8277c0960b5516cfc3c44e5286dbdcb274621bffffffff020555a80168fe99b43762f15b2aec5f1cdc598d4a83c77cde3b1fd5bd5e4350000000006b483045022100d59af6241b7b3c7b2aaa730b0a009eaac7bc5c320e933968c800fe52f0e608fe022027d10962ea200660440202ba1ef61acca177a42af853e415f103d293f58cfd9901210353bbb4d8a001edc9d0121d419dbe412488a192d3581080b161d3ab3455a59c4dffffffff4d0b56f17d53b8edae94743a7205ebd822a2625376e49f37700349e16066e952000000006a47304402204e71aa2b39f42f3675de342d985327afc5a53f6aac094a04ff1dc131d2ce0f5c02203bcd2abd4440fafe48a75a95065de3d10f8ef095562b9e026112860484c6c02a012103119a954c0318f25531ba17bc82f1804e26199d2ba9cae9bfee4e396cdd4aba60ffffffff4d0b56f17d53b8edae94743a7205ebd822a2625376e49f37700349e16066e952010000006b483045022100882d6f64a5a43d4605db15950e7c47a96dae77df8673f274e8672d75bad87abc022047b3ba1ecb1b25970d581b091e047947a37f2ccdcc41ab7d92c01baa893dea27012102d6d1aba27b1c800f7a2777f67bfc6c8f859cbfae65cc22b26659554d146042b6ffffffffa9d03548b47ef2d19c13063f07ca8278d23f36ea3e6564cf8cada650b3ca8fe6010000006a47304402206879907b0eeb9b5a3157beb4623e92b5fa0da5d2c480b0c9a2c37407af765bcc02201174c0d91cea3ef2e8bd63dba39786d6f86675b327691436e7df6512e414a91e012103044b0ccdf636e0bad51584738661ede7186c19db258d4d3af245002d266fc313ffffffff0bd45d7cc4b3be07acea24aa937cf9c206d6d22f2ddae404c3fcd2bb135878f7010000006a47304402202fcc501e31839d6cf954103bce1317aa9ed8aeae031f2acb00d8beb0ee4c6fdb0220514e33f0b4b6aaed68a29d6a32448f0ee38322a0d1f0f035c04e20b4ad017624012102dd349f3e6d862e857973511378c65c07e32139873995f04482143ca002ff3290ffffffff01024bcb040000000017a91464e17d37af264be3a6667309b69df80688e9e1858700000000", "vin": [{"sequence": 4294967295, "scriptSig": {"hex": "4830450221008bd4ad33abf0f8995b5d409299272d70dfd33cd2968fcc68ba89be7e0afb7c33022031f66c3b2d401a05e506833eca97a7392648ec979020caa4b4903d7eac0cfc73012102855eda62335674477720ebfecc28cce0c8800acb6589406ff62cac02d5e18424", "asm": "30450221008bd4ad33abf0f8995b5d409299272d70dfd33cd2968fcc68ba89be7e0afb7c33022031f66c3b2d401a05e506833eca97a7392648ec979020caa4b4903d7eac0cfc73[ALL] 02855eda62335674477720ebfecc28cce0c8800acb6589406ff62cac02d5e18424"}, "vout": 16, "txid": "0ab07cbc2709a4e3fed5037e8e0b6de669f4e20e660f3cb0855fff67f911196a"}, {"sequence": 4294967295, "scriptSig": {"hex": "4630430220360f822d23cf18995a5cb44fd6eaed90d8ce338e9ea4be335ae5d8fa78c8336b021f6b8ba5934e941fb920a11dca831ef7c38fd14c253def7027e422b6fa0e5bfb0121039e5065f67e458f0a92eed69bea8277c0960b5516cfc3c44e5286dbdcb274621b", "asm": "30430220360f822d23cf18995a5cb44fd6eaed90d8ce338e9ea4be335ae5d8fa78c8336b021f6b8ba5934e941fb920a11dca831ef7c38fd14c253def7027e422b6fa0e5bfb[ALL] 039e5065f67e458f0a92eed69bea8277c0960b5516cfc3c44e5286dbdcb274621b"}, "vout": 1, "txid": "39f725475714434c93a75ccc608b39eb937f1f4e3e489e4c4ca8e0db80b1a372"}, {"sequence": 4294967295, "scriptSig": {"hex": "483045022100d59af6241b7b3c7b2aaa730b0a009eaac7bc5c320e933968c800fe52f0e608fe022027d10962ea200660440202ba1ef61acca177a42af853e415f103d293f58cfd9901210353bbb4d8a001edc9d0121d419dbe412488a192d3581080b161d3ab3455a59c4d", "asm": "3045022100d59af6241b7b3c7b2aaa730b0a009eaac7bc5c320e933968c800fe52f0e608fe022027d10962ea200660440202ba1ef61acca177a42af853e415f103d293f58cfd99[ALL] 0353bbb4d8a001edc9d0121d419dbe412488a192d3581080b161d3ab3455a59c4d"}, "vout": 0, "txid": "50435ebdd51f3bde7cc7834a8d59dc1c5fec2a5bf16237b499fe6801a8550502"}, {"sequence": 4294967295, "scriptSig": {"hex": "47304402204e71aa2b39f42f3675de342d985327afc5a53f6aac094a04ff1dc131d2ce0f5c02203bcd2abd4440fafe48a75a95065de3d10f8ef095562b9e026112860484c6c02a012103119a954c0318f25531ba17bc82f1804e26199d2ba9cae9bfee4e396cdd4aba60", "asm": "304402204e71aa2b39f42f3675de342d985327afc5a53f6aac094a04ff1dc131d2ce0f5c02203bcd2abd4440fafe48a75a95065de3d10f8ef095562b9e026112860484c6c02a[ALL] 03119a954c0318f25531ba17bc82f1804e26199d2ba9cae9bfee4e396cdd4aba60"}, "vout": 0, "txid": "52e96660e1490370379fe4765362a222d8eb05723a7494aeedb8537df1560b4d"}, {"sequence": 4294967295, "scriptSig": {"hex": "483045022100882d6f64a5a43d4605db15950e7c47a96dae77df8673f274e8672d75bad87abc022047b3ba1ecb1b25970d581b091e047947a37f2ccdcc41ab7d92c01baa893dea27012102d6d1aba27b1c800f7a2777f67bfc6c8f859cbfae65cc22b26659554d146042b6", "asm": "3045022100882d6f64a5a43d4605db15950e7c47a96dae77df8673f274e8672d75bad87abc022047b3ba1ecb1b25970d581b091e047947a37f2ccdcc41ab7d92c01baa893dea27[ALL] 02d6d1aba27b1c800f7a2777f67bfc6c8f859cbfae65cc22b26659554d146042b6"}, "vout": 1, "txid": "52e96660e1490370379fe4765362a222d8eb05723a7494aeedb8537df1560b4d"}, {"sequence": 4294967295, "scriptSig": {"hex": "47304402206879907b0eeb9b5a3157beb4623e92b5fa0da5d2c480b0c9a2c37407af765bcc02201174c0d91cea3ef2e8bd63dba39786d6f86675b327691436e7df6512e414a91e012103044b0ccdf636e0bad51584738661ede7186c19db258d4d3af245002d266fc313", "asm": "304402206879907b0eeb9b5a3157beb4623e92b5fa0da5d2c480b0c9a2c37407af765bcc02201174c0d91cea3ef2e8bd63dba39786d6f86675b327691436e7df6512e414a91e[ALL] 03044b0ccdf636e0bad51584738661ede7186c19db258d4d3af245002d266fc313"}, "vout": 1, "txid": "e68fcab350a6ad8ccf64653eea363fd27882ca073f06139cd1f27eb44835d0a9"}, {"sequence": 4294967295, "scriptSig": {"hex": "47304402202fcc501e31839d6cf954103bce1317aa9ed8aeae031f2acb00d8beb0ee4c6fdb0220514e33f0b4b6aaed68a29d6a32448f0ee38322a0d1f0f035c04e20b4ad017624012102dd349f3e6d862e857973511378c65c07e32139873995f04482143ca002ff3290", "asm": "304402202fcc501e31839d6cf954103bce1317aa9ed8aeae031f2acb00d8beb0ee4c6fdb0220514e33f0b4b6aaed68a29d6a32448f0ee38322a0d1f0f035c04e20b4ad017624[ALL] 02dd349f3e6d862e857973511378c65c07e32139873995f04482143ca002ff3290"}, "vout": 1, "txid": "f7785813bbd2fcc304e4da2d2fd2d606c2f97c93aa24eaac07beb3c47c5dd40b"}], "txid": "b14ac519e25b362fe54c85bac4d7a3549eafd0af1178ce1f5be491a5ffb3c41f", "blocktime": 1537870928, "version": 1, "confirmations": 11514, "time": 1537870928, "locktime": 0, "vsize": 1073, "size": 1073}