{"hash": "c911dc975d21583b3a6bb86714d177206020a0328dc1b9a0344fcd3001736428", "blockhash": "00000000000000000024a2167bbff67b0be802c0b01cdd79e6331c2be6459f87", "vout": [{"scriptPubKey": {"reqSigs": 1, "hex": "a91452eba851cae7960fa5dacfbe526c90117286f0e687", "addresses": ["39FTe3VpAt7SFpbC9V7SAjrDpkXQkouCGX"], "asm": "OP_HASH160 52eba851cae7960fa5dacfbe526c90117286f0e6 OP_EQUAL", "type": "scripthash"}, "value": 0.00111352, "n": 0}, {"scriptPubKey": {"reqSigs": 1, "hex": "a91427f46680d2865a4a0a486d88b1358b8aa82d539487", "addresses": ["35LH4GCVaUqT5K81WDGJnDgcr8NfmfAvDr"], "asm": "OP_HASH160 27f46680d2865a4a0a486d88b1358b8aa82d5394 OP_EQUAL", "type": "scripthash"}, "value": 0.23727751, "n": 1}], "hex": "020000000001010996964a7bf7a444afae59877edbb3befdfc41ba46c62b3ad45674da7f9d58cf00000000171600144bc5e73da2e70d0efb90a2c63df3d08158970fb1feffffff02f8b201000000000017a91452eba851cae7960fa5dacfbe526c90117286f0e687870e6a010000000017a91427f46680d2865a4a0a486d88b1358b8aa82d53948702483045022100bb98dd81debae6f24bdc613aa61e3b62f91940d1df5b440c5fdf2b3702e9e0b1022062722d7268968ca52c86c24961b19c4cd6118ae45c1543ea85c974239825d18a01210279dd88a144f44421434e4fd642e13d1a969578ab42152fde2f333eb1466373b50d490800", "vin": [{"txinwitness": ["3045022100bb98dd81debae6f24bdc613aa61e3b62f91940d1df5b440c5fdf2b3702e9e0b1022062722d7268968ca52c86c24961b19c4cd6118ae45c1543ea85c974239825d18a01", "0279dd88a144f44421434e4fd642e13d1a969578ab42152fde2f333eb1466373b5"], "sequence": 4294967294, "scriptSig": {"hex": "1600144bc5e73da2e70d0efb90a2c63df3d08158970fb1", "asm": "00144bc5e73da2e70d0efb90a2c63df3d08158970fb1"}, "vout": 0, "txid": "cf589d7fda7456d43a2bc646ba41fcfdbeb3db7e8759aeaf44a4f77b4a969609"}], "txid": "b14d3312ec7434b94ad1ccd9f5950808a0263dbe695a42ed1e9737dc082a623b", "blocktime": 1537870564, "version": 2, "confirmations": 11515, "time": 1537870564, "locktime": 542989, "vsize": 166, "size": 248}