{"hash": "2d3408c55dd4bb5a5f3f8fb248b9ba8d452e8c3b1dd1dc21bb413d1331f59704", "blockhash": "00000000000000000017f5eb5941039fbcee6240d03bc1f2f8e35350df66a1d8", "vout": [{"scriptPubKey": {"reqSigs": 1, "hex": "a91498873460907776b0f21e4f164a942d67871e9ff287", "addresses": ["3FbWbt7sU37xRrM51aPVxeq8CjgyghL1Jt"], "asm": "OP_HASH160 98873460907776b0f21e4f164a942d67871e9ff2 OP_EQUAL", "type": "scripthash"}, "value": 7.39498264, "n": 0}, {"scriptPubKey": {"reqSigs": 1, "hex": "76a914f3733d12eae0f331643b5a977163dd350ca02e6588ac", "addresses": ["1PCFFXoHSj83B2xFerJvcr4nb3rCVQdWLc"], "asm": "OP_DUP OP_HASH160 f3733d12eae0f331643b5a977163dd350ca02e65 OP_EQUALVERIFY OP_CHECKSIG", "type": "pubkeyhash"}, "value": 0.00141651, "n": 1}], "hex": "02000000000101ec8d9eb6118bdf22249a7597d752c115b4f2cec1aaeb203284474f82604008a401000000171600147207071f9fe6c4f17eef3dc4093c16b43a8f3ad2feffffff0218d9132c0000000017a91498873460907776b0f21e4f164a942d67871e9ff28753290200000000001976a914f3733d12eae0f331643b5a977163dd350ca02e6588ac02483045022100ec68e8df3247e0744285062725948b2fe48516a4b6bcac38aa132d5a500b0b1b022014f48e4f86b5bc37c21d46bea5fced664b5b0efb2fca416a857274d76320ae1601210375de33486747a08085bc9127aa3d7edcd358e387742e35bc671c2f299ab395bb15490800", "vin": [{"txinwitness": ["3045022100ec68e8df3247e0744285062725948b2fe48516a4b6bcac38aa132d5a500b0b1b022014f48e4f86b5bc37c21d46bea5fced664b5b0efb2fca416a857274d76320ae1601", "0375de33486747a08085bc9127aa3d7edcd358e387742e35bc671c2f299ab395bb"], "sequence": 4294967294, "scriptSig": {"hex": "1600147207071f9fe6c4f17eef3dc4093c16b43a8f3ad2", "asm": "00147207071f9fe6c4f17eef3dc4093c16b43a8f3ad2"}, "vout": 1, "txid": "a4084060824f47843220ebaac1cef2b415c152d797759a2422df8b11b69e8dec"}], "txid": "b150e7a7aee49390ac70329e3eb50586b4a0b4ba4e14cf19e28fb968a2ae6ad0", "blocktime": 1537874412, "version": 2, "confirmations": 11467, "time": 1537874412, "locktime": 542997, "vsize": 168, "size": 250}