{"hash": "b15106ea229664f0ee0199139b58821d5c39b00daec540a8c140bed1d1cc45f6", "blockhash": "00000000000000000017f5eb5941039fbcee6240d03bc1f2f8e35350df66a1d8", "vout": [{"scriptPubKey": {"reqSigs": 1, "hex": "a914d71957e9a6b820917170af06dc340dcea96a09f287", "addresses": ["3MJMZgHng9Fcp7j4cFhqn1Ece9Yt1BFrEM"], "asm": "OP_HASH160 d71957e9a6b820917170af06dc340dcea96a09f2 OP_EQUAL", "type": "scripthash"}, "value": 0.00782558, "n": 0}, {"scriptPubKey": {"reqSigs": 1, "hex": "76a9140ace5d4d45e97e3ee945c68cd541bf9779cdb2bf88ac", "addresses": ["1z8yNbgb1seBBYqWFWgbZnxeCqsCBhoCy"], "asm": "OP_DUP OP_HASH160 0ace5d4d45e97e3ee945c68cd541bf9779cdb2bf OP_EQUALVERIFY OP_CHECKSIG", "type": "pubkeyhash"}, "value": 0.00865342, "n": 1}], "hex": "010000000151f259d8d7e242b651c8970f95be4a68ec23da7e8c0017a5913a4bab10cf37fb010000006b483045022100b9dce19b538acc5b5f52b00d1b3e3ae826c217ec7807425fa3c6c4d949b41a3602200e00daac6085d1a07b4c670f2b309e22422689e4533b3541bbcb766995c0cf84012102e3c92bb9a1aa3ebc9e1cc8d65eb46355b74d966e26497f55dddfc71616f0ded0ffffffff02def00b000000000017a914d71957e9a6b820917170af06dc340dcea96a09f2873e340d00000000001976a9140ace5d4d45e97e3ee945c68cd541bf9779cdb2bf88ac00000000", "vin": [{"sequence": 4294967295, "scriptSig": {"hex": "483045022100b9dce19b538acc5b5f52b00d1b3e3ae826c217ec7807425fa3c6c4d949b41a3602200e00daac6085d1a07b4c670f2b309e22422689e4533b3541bbcb766995c0cf84012102e3c92bb9a1aa3ebc9e1cc8d65eb46355b74d966e26497f55dddfc71616f0ded0", "asm": "3045022100b9dce19b538acc5b5f52b00d1b3e3ae826c217ec7807425fa3c6c4d949b41a3602200e00daac6085d1a07b4c670f2b309e22422689e4533b3541bbcb766995c0cf84[ALL] 02e3c92bb9a1aa3ebc9e1cc8d65eb46355b74d966e26497f55dddfc71616f0ded0"}, "vout": 1, "txid": "fb37cf10ab4b3a91a517008c7eda23ec684abe950f97c851b642e2d7d859f251"}], "txid": "b15106ea229664f0ee0199139b58821d5c39b00daec540a8c140bed1d1cc45f6", "blocktime": 1537874412, "version": 1, "confirmations": 11467, "time": 1537874412, "locktime": 0, "vsize": 224, "size": 224}