{"hash": "45894b4e33cba77acd1c1cb58f6fb3cb5cbd2fc96738e2282c3ad346f89fba61", "blockhash": "0000000000000000000dcc0f55137456b1a82d3642486a52398922ac4d620174", "vout": [{"scriptPubKey": {"reqSigs": 1, "hex": "76a914b8bfd5e83efdb130934576f2cb94c6b7d4f759bc88ac", "addresses": ["1Hqs9GSaTH3Sb7wqs3ZymDAMwtZHRo9J8r"], "asm": "OP_DUP OP_HASH160 b8bfd5e83efdb130934576f2cb94c6b7d4f759bc OP_EQUALVERIFY OP_CHECKSIG", "type": "pubkeyhash"}, "value": 0.00207009, "n": 0}, {"scriptPubKey": {"reqSigs": 1, "hex": "a914414cec0fc72a9410f6836edaf08de1aa3b2a321c87", "addresses": ["37eHzewnAFRR2SVZu8rZM3nBsmuE2XBU7D"], "asm": "OP_HASH160 414cec0fc72a9410f6836edaf08de1aa3b2a321c OP_EQUAL", "type": "scripthash"}, "value": 0.31364621, "n": 1}], "hex": "01000000000101b96650cbc72b6db8cd25d0ba38917154d3fd717981e3dea199b73528da0fd7060100000023220020ce74cde37cfb8dd71d0179287e12fc721ee236ce3c89c2745bcd365b39807eb3ffffffff02a1280300000000001976a914b8bfd5e83efdb130934576f2cb94c6b7d4f759bc88ac0d96de010000000017a914414cec0fc72a9410f6836edaf08de1aa3b2a321c870400473044022014357fdcc843ffb0bdc49dbbf15908ea2922e6ee8f40f9ce81c2d508bc982b5f02205e724b9832d808f0255ee86faf26eb09dbe89983044f4605a53080d700cb951401483045022100862453213f535a242a850b7bef01d9b03ec70ee611a61c64acbefcb5286daaf3022016df942d57e1a6579282cd181d1cee741c1e0460f1da53178edb3c8146ad7a0b0147522103ada901d90d5a76319a60f228e0b1bbc84b1d9a87238550bae5d5d190067b66712103871fc2ca08e6950b38867e8e6a0e94ee625223d3aa0df5c65f414c6d784467e252ae00000000", "vin": [{"txinwitness": ["", "3044022014357fdcc843ffb0bdc49dbbf15908ea2922e6ee8f40f9ce81c2d508bc982b5f02205e724b9832d808f0255ee86faf26eb09dbe89983044f4605a53080d700cb951401", "3045022100862453213f535a242a850b7bef01d9b03ec70ee611a61c64acbefcb5286daaf3022016df942d57e1a6579282cd181d1cee741c1e0460f1da53178edb3c8146ad7a0b01", "522103ada901d90d5a76319a60f228e0b1bbc84b1d9a87238550bae5d5d190067b66712103871fc2ca08e6950b38867e8e6a0e94ee625223d3aa0df5c65f414c6d784467e252ae"], "sequence": 4294967295, "scriptSig": {"hex": "220020ce74cde37cfb8dd71d0179287e12fc721ee236ce3c89c2745bcd365b39807eb3", "asm": "0020ce74cde37cfb8dd71d0179287e12fc721ee236ce3c89c2745bcd365b39807eb3"}, "vout": 1, "txid": "06d70fda2835b799a1dee3817971fdd354719138bad025cdb86d2bc7cb5066b9"}], "txid": "b15bbc98849de9fbb9d219699d86d0576a834762a1444f331411d5cba311823d", "blocktime": 1537870268, "version": 1, "confirmations": 11518, "time": 1537870268, "locktime": 0, "vsize": 208, "size": 373}