{"hash": "b165e8d482bd429254d96918ebaad3253f501762c34a68906392bc49b548b354", "blockhash": "0000000000000000000e13cef7c366c0283d82e591d1acd082e914b08063cdf1", "vout": [{"scriptPubKey": {"reqSigs": 1, "hex": "a9149398e00381a6d19faee736e8c9b811945c86dbb887", "addresses": ["3F9SPgqsXh5FpcGeB7G7n7ZiCvhDnTsckj"], "asm": "OP_HASH160 9398e00381a6d19faee736e8c9b811945c86dbb8 OP_EQUAL", "type": "scripthash"}, "value": 0.05235606, "n": 0}], "hex": "01000000010b2afe3e833b3fb0433bbe41363075f617fb8394da431b8c2a990f695fcee418000000006a473044022031dd90d7f61856ce9fe0f06e9f704f2848dcf841fc1ab9b5864a3743dfd88103022022733c0593e44e6b00748847c74a180386f9e5921c9033f081f000c79febeacf012103a454469ddfce1dbd3acac4858b1ec9febb7fc3f10dd2c914e31b809504a7e3baffffffff0196e34f000000000017a9149398e00381a6d19faee736e8c9b811945c86dbb88700000000", "vin": [{"sequence": 4294967295, "scriptSig": {"hex": "473044022031dd90d7f61856ce9fe0f06e9f704f2848dcf841fc1ab9b5864a3743dfd88103022022733c0593e44e6b00748847c74a180386f9e5921c9033f081f000c79febeacf012103a454469ddfce1dbd3acac4858b1ec9febb7fc3f10dd2c914e31b809504a7e3ba", "asm": "3044022031dd90d7f61856ce9fe0f06e9f704f2848dcf841fc1ab9b5864a3743dfd88103022022733c0593e44e6b00748847c74a180386f9e5921c9033f081f000c79febeacf[ALL] 03a454469ddfce1dbd3acac4858b1ec9febb7fc3f10dd2c914e31b809504a7e3ba"}, "vout": 0, "txid": "18e4ce5f690f992a8c1b43da9483fb17f675303641be3b43b03f3b833efe2a0b"}], "txid": "b165e8d482bd429254d96918ebaad3253f501762c34a68906392bc49b548b354", "blocktime": 1537871767, "version": 1, "confirmations": 11493, "time": 1537871767, "locktime": 0, "vsize": 189, "size": 189}