{"hash": "df164d832b825a343211476dc12af3aa997b30be383a42f11f48f42987e2f83f", "blockhash": "0000000000000000001e0dab787dd257d1dbfcb92a98c2207d5e1078be1f4165", "vout": [{"scriptPubKey": {"reqSigs": 1, "hex": "a9141988a27e3c2df4ddee7fad5a2303d086179b2a3087", "addresses": ["3422VtS7UtCvXYxoXMVp6eZupR252z85oC"], "asm": "OP_HASH160 1988a27e3c2df4ddee7fad5a2303d086179b2a30 OP_EQUAL", "type": "scripthash"}, "value": 0.41795415, "n": 0}, {"scriptPubKey": {"reqSigs": 1, "hex": "a9143a5e18065ef1909336f16b735a567d96630ffdff87", "addresses": ["371dqRc5UHH5bNNxvgXoLuN5VNGMKaJBpp"], "asm": "OP_HASH160 3a5e18065ef1909336f16b735a567d96630ffdff OP_EQUAL", "type": "scripthash"}, "value": 0.01352765, "n": 1}, {"scriptPubKey": {"reqSigs": 1, "hex": "a91407cf201bba1fdcd088e2885d56cc7cf009c334f187", "addresses": ["32QJnDKf7UZPPRG5uqWqYX1bJ682UZ8Tdi"], "asm": "OP_HASH160 07cf201bba1fdcd088e2885d56cc7cf009c334f1 OP_EQUAL", "type": "scripthash"}, "value": 0.002, "n": 2}], "hex": "010000000001011b3fe3816800a5b1cd4d934f83e351f353e7a5ecde7915df2caa8a8450444fa0010000002322002065d416c48a8072e0ac51c2d111eb194f009caef0332446c1bf2097316cf07fa9ffffffff0357bf7d020000000017a9141988a27e3c2df4ddee7fad5a2303d086179b2a30873da414000000000017a9143a5e18065ef1909336f16b735a567d96630ffdff87400d03000000000017a91407cf201bba1fdcd088e2885d56cc7cf009c334f18704004730440220406a20b6ee8cb880576807b7a126adcc90ddc08b0f4c9e1a1315747e7a73ca980220796065910d9c31e074f50c6481cb7903eb51c1822cb9b69e6d98e780462e2e1a01473044022028a33a062dd6286e2d7a1b2175e4071211ec64cec14fb4b7ae5e558cfa7cb79002205156a35bd1f1f106277df053ab7d92342fbdf6a0439285958838ae6c7433e63d0169522102f44abcf9e23c9a460da309ccca56c619c04eed3bde2c2cff5e7d78fbcd980b9c2103c9443cf3047bb6c2c82f1b0c44c36109cdc3d0d601d16d1189a1602bf8d1a0a02103bfe867059274412412e088af5572b92168c2ef495cfe6c9b7a753a009eb37c4853ae00000000", "vin": [{"txinwitness": ["", "30440220406a20b6ee8cb880576807b7a126adcc90ddc08b0f4c9e1a1315747e7a73ca980220796065910d9c31e074f50c6481cb7903eb51c1822cb9b69e6d98e780462e2e1a01", "3044022028a33a062dd6286e2d7a1b2175e4071211ec64cec14fb4b7ae5e558cfa7cb79002205156a35bd1f1f106277df053ab7d92342fbdf6a0439285958838ae6c7433e63d01", "522102f44abcf9e23c9a460da309ccca56c619c04eed3bde2c2cff5e7d78fbcd980b9c2103c9443cf3047bb6c2c82f1b0c44c36109cdc3d0d601d16d1189a1602bf8d1a0a02103bfe867059274412412e088af5572b92168c2ef495cfe6c9b7a753a009eb37c4853ae"], "sequence": 4294967295, "scriptSig": {"hex": "22002065d416c48a8072e0ac51c2d111eb194f009caef0332446c1bf2097316cf07fa9", "asm": "002065d416c48a8072e0ac51c2d111eb194f009caef0332446c1bf2097316cf07fa9"}, "vout": 1, "txid": "a04f4450848aaa2cdf1579deeca5e753f351e3834f934dcdb1a5006881e33f1b"}], "txid": "b16564b8cac246818530b0da338e750521ba311f27b6c2bc2323da6ec47da4be", "blocktime": 1537872475, "version": 1, "confirmations": 11486, "time": 1537872475, "locktime": 0, "vsize": 246, "size": 436}