{"hash": "b16668455bfc0bb4456b03dd2f0363b99d86886e622eea27a9ec3c217f2e21be", "blockhash": "0000000000000000000dcc0f55137456b1a82d3642486a52398922ac4d620174", "vout": [{"scriptPubKey": {"reqSigs": 1, "hex": "76a914e8779b6e99cdbab074fb696eee5151d3bb8741ba88ac", "addresses": ["1NCB3xRZ8n4dBSXJDjN8fLN1X1Bi1uSdZ5"], "asm": "OP_DUP OP_HASH160 e8779b6e99cdbab074fb696eee5151d3bb8741ba OP_EQUALVERIFY OP_CHECKSIG", "type": "pubkeyhash"}, "value": 0.009, "n": 0}, {"scriptPubKey": {"reqSigs": 1, "hex": "76a9143b35807d7db464c616a8187de4b699e1047a3b8688ac", "addresses": ["16Q4xhP3XQuoTwPQV1QHHkAWo4w9uMF5z8"], "asm": "OP_DUP OP_HASH160 3b35807d7db464c616a8187de4b699e1047a3b86 OP_EQUALVERIFY OP_CHECKSIG", "type": "pubkeyhash"}, "value": 0.19511866, "n": 1}], "hex": "0100000001d91cf0cd1c797757e3e3a8c904c46e57a96d163862c4a26efe7ec25bb9ab1bfe010000006a473044022031d07b2fe116e247fdaefbce23f8a0c9fe0d6b24f746cd3fe18af27c616c7ebf022078d43f6f85add8d9baeac70d2d935927d94ea9f33defdbda9355d3ba671ed39e0121030bbf88ea6fcf030683161158affb6921db7379d1e0c79529e73ac28ec18408e2ffffffff02a0bb0d00000000001976a914e8779b6e99cdbab074fb696eee5151d3bb8741ba88ac3aba2901000000001976a9143b35807d7db464c616a8187de4b699e1047a3b8688ac00000000", "vin": [{"sequence": 4294967295, "scriptSig": {"hex": "473044022031d07b2fe116e247fdaefbce23f8a0c9fe0d6b24f746cd3fe18af27c616c7ebf022078d43f6f85add8d9baeac70d2d935927d94ea9f33defdbda9355d3ba671ed39e0121030bbf88ea6fcf030683161158affb6921db7379d1e0c79529e73ac28ec18408e2", "asm": "3044022031d07b2fe116e247fdaefbce23f8a0c9fe0d6b24f746cd3fe18af27c616c7ebf022078d43f6f85add8d9baeac70d2d935927d94ea9f33defdbda9355d3ba671ed39e[ALL] 030bbf88ea6fcf030683161158affb6921db7379d1e0c79529e73ac28ec18408e2"}, "vout": 1, "txid": "fe1babb95bc27efe6ea2c46238166da9576ec404c9a8e3e35777791ccdf01cd9"}], "txid": "b16668455bfc0bb4456b03dd2f0363b99d86886e622eea27a9ec3c217f2e21be", "blocktime": 1537870268, "version": 1, "confirmations": 11518, "time": 1537870268, "locktime": 0, "vsize": 225, "size": 225}