{"hash": "b16c4e9b78d6eefb9a80e0c7df182fd7d9f86bf0626df83adb443d756b9d849b", "blockhash": "0000000000000000000baef3f32e3676a92c3b2e5da21b426e4f302fc371ce76", "vout": [{"scriptPubKey": {"reqSigs": 1, "hex": "a914254bddaf32b3c504bf47084c1c6121304efc3f0d87", "addresses": ["356DouBF9UGbCPttBJdaJKnoGNY8zPgiwy"], "asm": "OP_HASH160 254bddaf32b3c504bf47084c1c6121304efc3f0d OP_EQUAL", "type": "scripthash"}, "value": 0.0154, "n": 0}, {"scriptPubKey": {"reqSigs": 1, "hex": "a914e370231feecbfc25e2e2423a5a79bf79bfdca59887", "addresses": ["3NRbeX3vD5VaVE4TDU9ivCDsEf7NPPte6J"], "asm": "OP_HASH160 e370231feecbfc25e2e2423a5a79bf79bfdca598 OP_EQUAL", "type": "scripthash"}, "value": 0.32977752, "n": 1}], "hex": "0100000001a0efd0506fc8f2d68d1ecb5310cc1c4b37bf15c2aabb6f708eaabd236334a31001000000da00483045022100c2fa7c06b8530ef50b20dae244332fd8f85337b098712265b91f65061221653302204995804a9c3f0126edb06691963a69d3c6097c4587ac146ba2d9061fbb4fcb0001473044022022e7a8bc00109e7c4bec86deae53b4997b5869597a5d64d4756eca396d8f690e022041fa2f31f32409972b49a4d03057b46c3cd7bd6602c405ffa562091c2d59f2a2014752210327881b6abce6535553a3ce21fad12a7d74fd237ce7c4cd270a267162344e3082210256141f8eb687f5a68c5cc65054652dc25116fa285e44d72b44368827ffe77d9a52aeffffffff02a07f17000000000017a914254bddaf32b3c504bf47084c1c6121304efc3f0d875833f7010000000017a914e370231feecbfc25e2e2423a5a79bf79bfdca5988700000000", "vin": [{"sequence": 4294967295, "scriptSig": {"hex": "00483045022100c2fa7c06b8530ef50b20dae244332fd8f85337b098712265b91f65061221653302204995804a9c3f0126edb06691963a69d3c6097c4587ac146ba2d9061fbb4fcb0001473044022022e7a8bc00109e7c4bec86deae53b4997b5869597a5d64d4756eca396d8f690e022041fa2f31f32409972b49a4d03057b46c3cd7bd6602c405ffa562091c2d59f2a2014752210327881b6abce6535553a3ce21fad12a7d74fd237ce7c4cd270a267162344e3082210256141f8eb687f5a68c5cc65054652dc25116fa285e44d72b44368827ffe77d9a52ae", "asm": "0 3045022100c2fa7c06b8530ef50b20dae244332fd8f85337b098712265b91f65061221653302204995804a9c3f0126edb06691963a69d3c6097c4587ac146ba2d9061fbb4fcb00[ALL] 3044022022e7a8bc00109e7c4bec86deae53b4997b5869597a5d64d4756eca396d8f690e022041fa2f31f32409972b49a4d03057b46c3cd7bd6602c405ffa562091c2d59f2a2[ALL] 52210327881b6abce6535553a3ce21fad12a7d74fd237ce7c4cd270a267162344e3082210256141f8eb687f5a68c5cc65054652dc25116fa285e44d72b44368827ffe77d9a52ae"}, "vout": 1, "txid": "10a3346323bdaa8e706fbbaac215bf374b1ccc1053cb1e8dd6f2c86f50d0efa0"}], "txid": "b16c4e9b78d6eefb9a80e0c7df182fd7d9f86bf0626df83adb443d756b9d849b", "blocktime": 1537876114, "version": 1, "confirmations": 11460, "time": 1537876114, "locktime": 0, "vsize": 333, "size": 333}