{"hash": "b17993c2379aec634bb7ccbc060a28d7648805836fb1819e2c45dd507f4c1c57", "blockhash": "000000000000000000205f8b0775d31398ef75b89a5e8ec8d2c57b4dc0ac4c20", "vout": [{"scriptPubKey": {"reqSigs": 1, "hex": "76a914f5dfe56baafb3d7299a6d072e1c1b7df434d0ff388ac", "addresses": ["1PR4maVED11BMM2Hdn1o4tcPEWVyAW3E5Z"], "asm": "OP_DUP OP_HASH160 f5dfe56baafb3d7299a6d072e1c1b7df434d0ff3 OP_EQUALVERIFY OP_CHECKSIG", "type": "pubkeyhash"}, "value": 0.01313, "n": 0}, {"scriptPubKey": {"reqSigs": 1, "hex": "76a914ef9bbae3fcb452a51b2f4d72ff9a4fdd5363066588ac", "addresses": ["1Nqw4AJhSGVorK1dWhGarpRiBux1oF4jbB"], "asm": "OP_DUP OP_HASH160 ef9bbae3fcb452a51b2f4d72ff9a4fdd53630665 OP_EQUALVERIFY OP_CHECKSIG", "type": "pubkeyhash"}, "value": 0.01043701, "n": 1}], "hex": "0100000001cb4eb58f36d661ae0c907ef380c67fc529b4c2436884c71c80081267d28d5107010000006a47304402204d6207174644c4347a3d77971bfc000240e85c579c040b94ec10b0e4b1f8502b022050f55fec2dcab72d759c54342f08ac521f25b789f0e7b1feba9de0d0bcd1b3f30121032b6a6d5cf919577fbbc8f9a27495862155ac3960e7e58298a196d7b13a1c632cfeffffff02e8081400000000001976a914f5dfe56baafb3d7299a6d072e1c1b7df434d0ff388acf5ec0f00000000001976a914ef9bbae3fcb452a51b2f4d72ff9a4fdd5363066588ac0f490800", "vin": [{"sequence": 4294967294, "scriptSig": {"hex": "47304402204d6207174644c4347a3d77971bfc000240e85c579c040b94ec10b0e4b1f8502b022050f55fec2dcab72d759c54342f08ac521f25b789f0e7b1feba9de0d0bcd1b3f30121032b6a6d5cf919577fbbc8f9a27495862155ac3960e7e58298a196d7b13a1c632c", "asm": "304402204d6207174644c4347a3d77971bfc000240e85c579c040b94ec10b0e4b1f8502b022050f55fec2dcab72d759c54342f08ac521f25b789f0e7b1feba9de0d0bcd1b3f3[ALL] 032b6a6d5cf919577fbbc8f9a27495862155ac3960e7e58298a196d7b13a1c632c"}, "vout": 1, "txid": "07518dd2671208801cc7846843c2b429c57fc680f37e900cae61d6368fb54ecb"}], "txid": "b17993c2379aec634bb7ccbc060a28d7648805836fb1819e2c45dd507f4c1c57", "blocktime": 1537871175, "version": 1, "confirmations": 11510, "time": 1537871175, "locktime": 542991, "vsize": 225, "size": 225}