{"hash": "b17c59789bfe4f7833387350325655cf4a4691ebf4c8fdb090e1cbffdbef1457", "blockhash": "00000000000000000017f5eb5941039fbcee6240d03bc1f2f8e35350df66a1d8", "vout": [{"scriptPubKey": {"reqSigs": 1, "hex": "a9147e2bed8308faeaa3ca741134f1fdeb6523ee660387", "addresses": ["3DC9gsRFxdHtLpHkdJM4n34e7vJy7qCDry"], "asm": "OP_HASH160 7e2bed8308faeaa3ca741134f1fdeb6523ee6603 OP_EQUAL", "type": "scripthash"}, "value": 0.00458529, "n": 0}, {"scriptPubKey": {"reqSigs": 1, "hex": "a91448b499667ac7f0a7d7f90d63f9e16f19bac622ce87", "addresses": ["38KSvcJ3onT6kdjGuyjgspYQWYfudREPUk"], "asm": "OP_HASH160 48b499667ac7f0a7d7f90d63f9e16f19bac622ce OP_EQUAL", "type": "scripthash"}, "value": 0.0011345, "n": 1}, {"scriptPubKey": {"reqSigs": 1, "hex": "a91439eb4ce32f2231cb61e4a9c7946d75dfdb8d17a987", "addresses": ["36yGKS2xz6HuoB7oBDgRJhEvFaEf5MF2QT"], "asm": "OP_HASH160 39eb4ce32f2231cb61e4a9c7946d75dfdb8d17a9 OP_EQUAL", "type": "scripthash"}, "value": 0.00156, "n": 2}, {"scriptPubKey": {"reqSigs": 1, "hex": "76a9148fda2a30a1e8ce7e922abd9e38d7d810b70b0a1e88ac", "addresses": ["1E7cyniDoLWzq5zNd8iTJooJNyYdGwU5Xm"], "asm": "OP_DUP OP_HASH160 8fda2a30a1e8ce7e922abd9e38d7d810b70b0a1e OP_EQUALVERIFY OP_CHECKSIG", "type": "pubkeyhash"}, "value": 0.00578569, "n": 3}], "hex": "0100000001507bc80c5a6de475b3b9c357e2bc1205b37794fc3ad89fe0d0fc803d00beb77501000000fc0047304402201a9fb1aff38875d25ece2f29f024f2fcbc4aee1bcd587de09234a92b04d1e1910220118f7d2a727b0fb1185318626ff35da9529b43c242df1f9b736c1492af458c160147304402202a1838e93f5ca10937c5122b1b3bd1221b6b0490eafa4166609ec5baf895a799022046f2967a10a68149952227254d763e350aa955c024da3ec3f0a2d4a8ff4991ef014c6952210247c33b78d53e8c7ddabe43892105a2a7afc3de47855fd80da101435e068df03621038865def949a7cc7c1d58390063a5976ac85b49ede65c5e3cacaad698b10c6ec52103538f4ddbddc0bfc7b14b32acff73d1449eca0464d27e62efd4e7d7d3b0a5a7c353aeffffffff0421ff06000000000017a9147e2bed8308faeaa3ca741134f1fdeb6523ee6603872abb01000000000017a91448b499667ac7f0a7d7f90d63f9e16f19bac622ce87606102000000000017a91439eb4ce32f2231cb61e4a9c7946d75dfdb8d17a98709d40800000000001976a9148fda2a30a1e8ce7e922abd9e38d7d810b70b0a1e88ac00000000", "vin": [{"sequence": 4294967295, "scriptSig": {"hex": "0047304402201a9fb1aff38875d25ece2f29f024f2fcbc4aee1bcd587de09234a92b04d1e1910220118f7d2a727b0fb1185318626ff35da9529b43c242df1f9b736c1492af458c160147304402202a1838e93f5ca10937c5122b1b3bd1221b6b0490eafa4166609ec5baf895a799022046f2967a10a68149952227254d763e350aa955c024da3ec3f0a2d4a8ff4991ef014c6952210247c33b78d53e8c7ddabe43892105a2a7afc3de47855fd80da101435e068df03621038865def949a7cc7c1d58390063a5976ac85b49ede65c5e3cacaad698b10c6ec52103538f4ddbddc0bfc7b14b32acff73d1449eca0464d27e62efd4e7d7d3b0a5a7c353ae", "asm": "0 304402201a9fb1aff38875d25ece2f29f024f2fcbc4aee1bcd587de09234a92b04d1e1910220118f7d2a727b0fb1185318626ff35da9529b43c242df1f9b736c1492af458c16[ALL] 304402202a1838e93f5ca10937c5122b1b3bd1221b6b0490eafa4166609ec5baf895a799022046f2967a10a68149952227254d763e350aa955c024da3ec3f0a2d4a8ff4991ef[ALL] 52210247c33b78d53e8c7ddabe43892105a2a7afc3de47855fd80da101435e068df03621038865def949a7cc7c1d58390063a5976ac85b49ede65c5e3cacaad698b10c6ec52103538f4ddbddc0bfc7b14b32acff73d1449eca0464d27e62efd4e7d7d3b0a5a7c353ae"}, "vout": 1, "txid": "75b7be003d80fcd0e09fd83afc9477b30512bce257c3b9b375e46d5a0cc87b50"}], "txid": "b17c59789bfe4f7833387350325655cf4a4691ebf4c8fdb090e1cbffdbef1457", "blocktime": 1537874412, "version": 1, "confirmations": 11467, "time": 1537874412, "locktime": 0, "vsize": 433, "size": 433}