{"hash": "bed06836a03803a00e4376ad1fc65592f53480b8d43e4e9bf4d6b6e6850a74e9", "blockhash": "0000000000000000001e0dab787dd257d1dbfcb92a98c2207d5e1078be1f4165", "vout": [{"scriptPubKey": {"reqSigs": 1, "hex": "76a91435f441bee6ded0df52d87ae3dd5b5442b32b40b288ac", "addresses": ["15vHRRqvKisueUTkV3rGEu8BHwFtQjCwCx"], "asm": "OP_DUP OP_HASH160 35f441bee6ded0df52d87ae3dd5b5442b32b40b2 OP_EQUALVERIFY OP_CHECKSIG", "type": "pubkeyhash"}, "value": 0.008291, "n": 0}, {"scriptPubKey": {"reqSigs": 1, "hex": "a91425f638b513c3e75d5135cc60485699c1cc97acc787", "addresses": ["359jtQrdrHAJtAgiAxi1Z3um4227WbE9Aw"], "asm": "OP_HASH160 25f638b513c3e75d5135cc60485699c1cc97acc7 OP_EQUAL", "type": "scripthash"}, "value": 1.03065729, "n": 1}], "hex": "010000000001014cd81768c3b25c5453e9866446f8a37b9011a0f51f153d9c0f3e51dd8569d963000000002322002024644aec5eea85824915b3fa2796aa7f62a73c1ddc6e18711fd025c509e3a7ecffffffff02aca60c00000000001976a91435f441bee6ded0df52d87ae3dd5b5442b32b40b288ac81a824060000000017a91425f638b513c3e75d5135cc60485699c1cc97acc7870400483045022100b7a96cb9b8af98e54081afb60e8ae4eab81e17e234d6e5da238ef90434ccbb75022045c95f028180c76070f093dc2d148ab2bd2ea3ddb935a0b7c4f8da1d35fee05701473044022062c9895cc0af73859b99590ae5c1ed259f299ea26b3d90c0685c5e186168857a02205b85d12d3067d06d4537069323429c56c2257dc5df9fdb2225c0f07ff2df2b360147522102302bd54b9b392e01702a6dc187a7d980705a61ced41a506b18ff79c562499f6e2102323233173db696435aec5b35a509b03c6f719b7a38acef262648cf9518535adb52ae00000000", "vin": [{"txinwitness": ["", "3045022100b7a96cb9b8af98e54081afb60e8ae4eab81e17e234d6e5da238ef90434ccbb75022045c95f028180c76070f093dc2d148ab2bd2ea3ddb935a0b7c4f8da1d35fee05701", "3044022062c9895cc0af73859b99590ae5c1ed259f299ea26b3d90c0685c5e186168857a02205b85d12d3067d06d4537069323429c56c2257dc5df9fdb2225c0f07ff2df2b3601", "522102302bd54b9b392e01702a6dc187a7d980705a61ced41a506b18ff79c562499f6e2102323233173db696435aec5b35a509b03c6f719b7a38acef262648cf9518535adb52ae"], "sequence": 4294967295, "scriptSig": {"hex": "22002024644aec5eea85824915b3fa2796aa7f62a73c1ddc6e18711fd025c509e3a7ec", "asm": "002024644aec5eea85824915b3fa2796aa7f62a73c1ddc6e18711fd025c509e3a7ec"}, "vout": 0, "txid": "63d96985dd513e0f9c3d151ff5a011907ba3f8466486e953545cb2c36817d84c"}], "txid": "b1835c208114d6441cc81bc5ff13d4debb8b80af267bd7d9bb9da1d70e02eb04", "blocktime": 1537872475, "version": 1, "confirmations": 11487, "time": 1537872475, "locktime": 0, "vsize": 208, "size": 373}