{"hash": "b18802861e86450f3f5f36045cc6601a57bddc47cc9e97cdd9941fba66a2eb07", "blockhash": "00000000000000000017f5eb5941039fbcee6240d03bc1f2f8e35350df66a1d8", "vout": [{"scriptPubKey": {"reqSigs": 1, "hex": "76a9141c235d21c9e7c30f57ebcd5a52b009d04a39b83488ac", "addresses": ["13ZnHVUVbKW96jhMS8EdF1mnhb6qCpKdJY"], "asm": "OP_DUP OP_HASH160 1c235d21c9e7c30f57ebcd5a52b009d04a39b834 OP_EQUALVERIFY OP_CHECKSIG", "type": "pubkeyhash"}, "value": 0.02293407, "n": 0}], "hex": "01000000017818227888e3d2da2037e923ffd58b1010cf4699ce36e56d044e3cd59440e7af010000006b483045022100840ec6917ba750e79f703df32995520bd9aeeddea3272128495015c907f7b4fd02204d6080b33688659df4f65f4464e66a7ebec0d8336c2cf579c47f95e9e0edc345012102a00b9b3412c88fd7922f087d490f179cf256c41805e2da988d9da00979e187e6ffffffff019ffe2200000000001976a9141c235d21c9e7c30f57ebcd5a52b009d04a39b83488ac00000000", "vin": [{"sequence": 4294967295, "scriptSig": {"hex": "483045022100840ec6917ba750e79f703df32995520bd9aeeddea3272128495015c907f7b4fd02204d6080b33688659df4f65f4464e66a7ebec0d8336c2cf579c47f95e9e0edc345012102a00b9b3412c88fd7922f087d490f179cf256c41805e2da988d9da00979e187e6", "asm": "3045022100840ec6917ba750e79f703df32995520bd9aeeddea3272128495015c907f7b4fd02204d6080b33688659df4f65f4464e66a7ebec0d8336c2cf579c47f95e9e0edc345[ALL] 02a00b9b3412c88fd7922f087d490f179cf256c41805e2da988d9da00979e187e6"}, "vout": 1, "txid": "afe74094d53c4e046de536ce9946cf10108bd5ff23e93720dad2e38878221878"}], "txid": "b18802861e86450f3f5f36045cc6601a57bddc47cc9e97cdd9941fba66a2eb07", "blocktime": 1537874412, "version": 1, "confirmations": 11467, "time": 1537874412, "locktime": 0, "vsize": 192, "size": 192}