{"hash": "b18ddb7b01c46bb55e219d3d21290da958ee9dd7486fec75cd45c543ca8d6253", "blockhash": "0000000000000000001cda96e906b7601b7a6fb1a3b62bca570a9e5d8f4b3de1", "vout": [{"scriptPubKey": {"reqSigs": 1, "hex": "a9149eb7e940accc6ce19f78e7d3eebc617e82ab9e7d87", "addresses": ["3GAF1Du7Kh1YBo19H3LKqdTL31eL7sbuyu"], "asm": "OP_HASH160 9eb7e940accc6ce19f78e7d3eebc617e82ab9e7d OP_EQUAL", "type": "scripthash"}, "value": 2.84238823, "n": 0}], "hex": "0100000001d3e23f0398ebec049d4cd4d55e6f3431655452709e0d90b105bb996faeaaf692010000006b483045022100d813988f00d2108e83c74b2cffb13802a02fbf99c118b1ba185c08532f038ac802201994182e3d44a6272be9565162b120e02c4273aa5efe79bc8dda07a0dc15e11c01210329456a3da44f18226efab14f01f8db1ca81a2425d31ef87c22547dbe31560234ffffffff01e723f1100000000017a9149eb7e940accc6ce19f78e7d3eebc617e82ab9e7d8700000000", "vin": [{"sequence": 4294967295, "scriptSig": {"hex": "483045022100d813988f00d2108e83c74b2cffb13802a02fbf99c118b1ba185c08532f038ac802201994182e3d44a6272be9565162b120e02c4273aa5efe79bc8dda07a0dc15e11c01210329456a3da44f18226efab14f01f8db1ca81a2425d31ef87c22547dbe31560234", "asm": "3045022100d813988f00d2108e83c74b2cffb13802a02fbf99c118b1ba185c08532f038ac802201994182e3d44a6272be9565162b120e02c4273aa5efe79bc8dda07a0dc15e11c[ALL] 0329456a3da44f18226efab14f01f8db1ca81a2425d31ef87c22547dbe31560234"}, "vout": 1, "txid": "92f6aaae6f99bb05b1900d9e7052546531346f5ed5d44c9d04eceb98033fe2d3"}], "txid": "b18ddb7b01c46bb55e219d3d21290da958ee9dd7486fec75cd45c543ca8d6253", "blocktime": 1537873282, "version": 1, "confirmations": 11484, "time": 1537873282, "locktime": 0, "vsize": 190, "size": 190}