{"hash": "b18e2d932d8b23f03c0b46206081abd00f040f0c123b744b24a2c0e039727459", "blockhash": "0000000000000000001f0ddff1eddb255c1121bcd4da4f1bc9a0da00cae72433", "vout": [{"scriptPubKey": {"reqSigs": 1, "hex": "76a914bdf3a17538d4178940e4f282cecb6a28aab8fea988ac", "addresses": ["1JKNa1n4dtBBJTz1otMjodmkhF91cHrqpw"], "asm": "OP_DUP OP_HASH160 bdf3a17538d4178940e4f282cecb6a28aab8fea9 OP_EQUALVERIFY OP_CHECKSIG", "type": "pubkeyhash"}, "value": 0.00089095, "n": 0}, {"scriptPubKey": {"reqSigs": 1, "hex": "76a9145f9d91a9565de3d93325cfbe392769db45c6e3dc88ac", "addresses": ["19iZxJwLnJe91SY6BnxmnUC9wkye92U4RQ"], "asm": "OP_DUP OP_HASH160 5f9d91a9565de3d93325cfbe392769db45c6e3dc OP_EQUALVERIFY OP_CHECKSIG", "type": "pubkeyhash"}, "value": 0.04752617, "n": 1}], "hex": "0100000012490cf714183ee83db85a96ac21d201f7deebc880d7d46c1d37662947cb6b032e010000006b4830450221008d2df2149953337839d909a1a4bbb07935fce7b5b62c1868f2c6b3b78531184e022018265ccb5ebea5ed8fdf83ae90f5fb02096d5eadd8590b3364ce3206ae07b36b012103a364b2edb4bde51090f8b46b6471193ee7030be3184506602b6672c6310c8a81ffffffff64b1a4a8e5314dbe2bb235cf70847cea928080198ba9940c2f6c4bdca1d7422f010000006b48304502210082fd533f25bb2a6dfdb1cc24bd5c99ffa8c61e70958adcaa505b16f4788c43400220554ae1c2be76e19161d4dc4806f8b695b25d261d3c58bcbec6ced0e45c73722d012103a364b2edb4bde51090f8b46b6471193ee7030be3184506602b6672c6310c8a81ffffffff74580f0cdf3303cab69919f0ffe0c1099d91b1e869f85b578196bd5548bc133b010000006a47304402202f6b6b156f2e1fe2fcaec1a9663d2e2ade9d924f810976060045c14064a2b14c0220410ed7211a384cf51ce672b906cb45f58020087c2cb357a1a0f841381585fc4b012103a364b2edb4bde51090f8b46b6471193ee7030be3184506602b6672c6310c8a81ffffffff8d85d0a82be33b51d69f4e683d7bdb9bc1700293ed6fd582c42e57f935cdef4f000000006b483045022100f852c8ee85233d64587eabdeffa28f2babe84e4a6d284ae839828c1fc891f7340220408f5f2d8df8f5dc44aa1856b4f7f612ccec7475aa905751b8df0cda4323e6c80121021e792c680e664f4ce810a79cc5df6ab857e1daf14ff7d5b0028f1cdaa111f8b9ffffffff83e4b79a8d350773e6d6b3582beeacbc01969a0ba54649fbbf97e533bfde8a5f010000006b4830450221008896d07d456bae8febf8a669aecb2ef4815b083e7b14c07fcb46707668bdd6e30220551576da0d55292cdc3695540ce604662d63b9097768e8bccc17ddd20c7fc170012103a364b2edb4bde51090f8b46b6471193ee7030be3184506602b6672c6310c8a81ffffffff8abc2ef42d14f25e518c53cb4931ef7a9db64eb6288c70473b10f90c681e1067000000006a47304402201f72bfe6ffece1801641cda24098beaa2b59e277c12215f71c0956c0ee75c5800220387da6a07fbc3b6a205b6c7dcf7d60c17c784ce692d8eea32865c48548a1c982012103a364b2edb4bde51090f8b46b6471193ee7030be3184506602b6672c6310c8a81ffffffff233d1af233487920bba8873fc0093f6ea15447dedfc7a857982827f3a6f13d6b000000006a473044022006d9fbe0c72ed63029c8c9c9a8f7c6687f17cafb73d078c777ee3857b88410f2022032373b6ea3656d814f73c18845187c78aa76e3fcabdc0aeae9238f4de1ffa507012103a364b2edb4bde51090f8b46b6471193ee7030be3184506602b6672c6310c8a81ffffffffb7fbbaf46cdd959fd2aafca3f34ca783648414f370ab4c4f040bef0832a4b077010000006a473044022065eaf928fb88d9939a6afea04cf27e2f98374d8111a5447de05f6d2890b3847002207cc4678103b92605add5c8f64fe23fcc11dd38f8a36fcb9e4b805a72088c8078012103a364b2edb4bde51090f8b46b6471193ee7030be3184506602b6672c6310c8a81ffffffffb18ac8a7efdd16e4b7c52630711d09847bb87ccf78114f77ed561b18ea24867e000000006a473044022046e3df091a9d897953c2d08cf32e59e5cfb1dfbebea2d5dae155c1d432f82ae30220766da2164131c8bb4ac7dfc90bad729dfc4568a6f5294f3ad308758a9965eabe012103a364b2edb4bde51090f8b46b6471193ee7030be3184506602b6672c6310c8a81fffffffffbecb6ad7249b67f11afdfa1a8a1806e51d1c511fe9a9e7aa0de915ff64e048a010000006b48304502210099b19f248e994025c07acc824e130f88a0fc2f706b03e1dc533e89c9399adba5022058ba6cb0248cd4ca8f6fa777dca388b541bdd01b6234764ffaf5a84ef27315de012103a364b2edb4bde51090f8b46b6471193ee7030be3184506602b6672c6310c8a81ffffffff23747f65e54be2fd94a7ca9288417992f95e948fc3f28bbae31cb41aaf047c8c010000006b483045022100f18bc3cbc2d5f7d3f93d9d977d2d5aec42c85d0f3d75625534cb863b09bb8e0c022034950393ea8b6a8498d97fa67b4b0366127cf9586c39f68ba89b2e4e09aa8f00012103a364b2edb4bde51090f8b46b6471193ee7030be3184506602b6672c6310c8a81ffffffffad37983165a2489e58c4ecbf914e122797f7e9dd48909114ba0587b9a7161c9b010000006b483045022100ea0af56f71d5482fc3844812a3dc1bb5644bdc859770b471a95a546df3a1602302201102b63aaab2f8edd2e622f293fc9038705ac0aecf77dbd7730e87e30b731558012103a364b2edb4bde51090f8b46b6471193ee7030be3184506602b6672c6310c8a81ffffffff256cab48a189c085aa2d0cb8282186233bf79d04a073c210f1c696b2a5f4bca3000000006b483045022100bb44e4842aa6d42e6beea93813f45d0c5b492b9bd30216230b7ca97d798b5cbf022047d864e11efe29a1f18752e9c123925af103b8361e014928c86c4bc1adcbe781012103a364b2edb4bde51090f8b46b6471193ee7030be3184506602b6672c6310c8a81ffffffff1917fadfeba2ef7a98557a24b7e90573e87738f9651bb76b5e15340b41f812ad000000006b4830450221008c06443e160a7be5d20f6fee8c7c7726022e13c4a033be993e10d21e5186963602206b6e3163fb23718f6ea363284269d6a9d91743852bb0d83fa20c21bace8680cc012103a364b2edb4bde51090f8b46b6471193ee7030be3184506602b6672c6310c8a81ffffffffe722b694da083904b3f4d9710a37d8a70074aedfa78553fe72b5a77a7017d3b1000000006b48304502210081262d9dc12d59572a73280767bb1fc6a756f74ca11f4771971f88f1c979b3aa0220392c01e267d86530b0994643b21b95b4dcf2f834b510a79fe10a015fe96f82dd012103a364b2edb4bde51090f8b46b6471193ee7030be3184506602b6672c6310c8a81ffffffff815c4f5da7ec99c700872f5ff0cc9e18fa0b62903cf956c5b4621fd3cc85a2c0000000006a47304402204cf47a29c1fd7967b3f0fb6daa639823fc257244a0026927420c72575d20c93602203cd93ebfc29981405af68938a6d7302194da3f799c8383a3cb153253139a70e301210250cef010ebc1d7f62049592273f1a97d75f47bf6def66a3ae0a0722b8f509cadfffffffffdb852f4e411b08fc91502e199146b413242ea61e64925d5d0733131ff6842c7010000006a473044022043292be72e6615ce80a2671affbda56aad446af889101b4bdeb289847a9e3808022054c388fc729fbcac08b76063f180cc421ba69cb8c05c747394bb55a155a6c97d012103a364b2edb4bde51090f8b46b6471193ee7030be3184506602b6672c6310c8a81ffffffffc10d0ffb479a468afd7f1b859785a0b821323552532a94f1b0060630a41d39f8000000006b483045022100c4c0d74fc3c9d3f7261063ead1907914cb883d82f3b9244427db467537e6331f022007cfb75868aec4c8c19b9540314c657a18c8f77fd3d7a663950eac60107d483b012102f54cd69062a77972a18cd53c62cee231536df47efc9826e226f1e04bdf99edf6ffffffff02075c0100000000001976a914bdf3a17538d4178940e4f282cecb6a28aab8fea988ace9844800000000001976a9145f9d91a9565de3d93325cfbe392769db45c6e3dc88ac00000000", "vin": [{"sequence": 4294967295, "scriptSig": {"hex": "4830450221008d2df2149953337839d909a1a4bbb07935fce7b5b62c1868f2c6b3b78531184e022018265ccb5ebea5ed8fdf83ae90f5fb02096d5eadd8590b3364ce3206ae07b36b012103a364b2edb4bde51090f8b46b6471193ee7030be3184506602b6672c6310c8a81", "asm": "30450221008d2df2149953337839d909a1a4bbb07935fce7b5b62c1868f2c6b3b78531184e022018265ccb5ebea5ed8fdf83ae90f5fb02096d5eadd8590b3364ce3206ae07b36b[ALL] 03a364b2edb4bde51090f8b46b6471193ee7030be3184506602b6672c6310c8a81"}, "vout": 1, "txid": "2e036bcb472966371d6cd4d780c8ebdef701d221ac965ab83de83e1814f70c49"}, {"sequence": 4294967295, "scriptSig": {"hex": "48304502210082fd533f25bb2a6dfdb1cc24bd5c99ffa8c61e70958adcaa505b16f4788c43400220554ae1c2be76e19161d4dc4806f8b695b25d261d3c58bcbec6ced0e45c73722d012103a364b2edb4bde51090f8b46b6471193ee7030be3184506602b6672c6310c8a81", "asm": "304502210082fd533f25bb2a6dfdb1cc24bd5c99ffa8c61e70958adcaa505b16f4788c43400220554ae1c2be76e19161d4dc4806f8b695b25d261d3c58bcbec6ced0e45c73722d[ALL] 03a364b2edb4bde51090f8b46b6471193ee7030be3184506602b6672c6310c8a81"}, "vout": 1, "txid": "2f42d7a1dc4b6c2f0c94a98b19808092ea7c8470cf35b22bbe4d31e5a8a4b164"}, {"sequence": 4294967295, "scriptSig": {"hex": "47304402202f6b6b156f2e1fe2fcaec1a9663d2e2ade9d924f810976060045c14064a2b14c0220410ed7211a384cf51ce672b906cb45f58020087c2cb357a1a0f841381585fc4b012103a364b2edb4bde51090f8b46b6471193ee7030be3184506602b6672c6310c8a81", "asm": "304402202f6b6b156f2e1fe2fcaec1a9663d2e2ade9d924f810976060045c14064a2b14c0220410ed7211a384cf51ce672b906cb45f58020087c2cb357a1a0f841381585fc4b[ALL] 03a364b2edb4bde51090f8b46b6471193ee7030be3184506602b6672c6310c8a81"}, "vout": 1, "txid": "3b13bc4855bd9681575bf869e8b1919d09c1e0fff01999b6ca0333df0c0f5874"}, {"sequence": 4294967295, "scriptSig": {"hex": "483045022100f852c8ee85233d64587eabdeffa28f2babe84e4a6d284ae839828c1fc891f7340220408f5f2d8df8f5dc44aa1856b4f7f612ccec7475aa905751b8df0cda4323e6c80121021e792c680e664f4ce810a79cc5df6ab857e1daf14ff7d5b0028f1cdaa111f8b9", "asm": "3045022100f852c8ee85233d64587eabdeffa28f2babe84e4a6d284ae839828c1fc891f7340220408f5f2d8df8f5dc44aa1856b4f7f612ccec7475aa905751b8df0cda4323e6c8[ALL] 021e792c680e664f4ce810a79cc5df6ab857e1daf14ff7d5b0028f1cdaa111f8b9"}, "vout": 0, "txid": "4fefcd35f9572ec482d56fed930270c19bdb7b3d684e9fd6513be32ba8d0858d"}, {"sequence": 4294967295, "scriptSig": {"hex": "4830450221008896d07d456bae8febf8a669aecb2ef4815b083e7b14c07fcb46707668bdd6e30220551576da0d55292cdc3695540ce604662d63b9097768e8bccc17ddd20c7fc170012103a364b2edb4bde51090f8b46b6471193ee7030be3184506602b6672c6310c8a81", "asm": "30450221008896d07d456bae8febf8a669aecb2ef4815b083e7b14c07fcb46707668bdd6e30220551576da0d55292cdc3695540ce604662d63b9097768e8bccc17ddd20c7fc170[ALL] 03a364b2edb4bde51090f8b46b6471193ee7030be3184506602b6672c6310c8a81"}, "vout": 1, "txid": "5f8adebf33e597bffb4946a50b9a9601bcacee2b58b3d6e67307358d9ab7e483"}, {"sequence": 4294967295, "scriptSig": {"hex": "47304402201f72bfe6ffece1801641cda24098beaa2b59e277c12215f71c0956c0ee75c5800220387da6a07fbc3b6a205b6c7dcf7d60c17c784ce692d8eea32865c48548a1c982012103a364b2edb4bde51090f8b46b6471193ee7030be3184506602b6672c6310c8a81", "asm": "304402201f72bfe6ffece1801641cda24098beaa2b59e277c12215f71c0956c0ee75c5800220387da6a07fbc3b6a205b6c7dcf7d60c17c784ce692d8eea32865c48548a1c982[ALL] 03a364b2edb4bde51090f8b46b6471193ee7030be3184506602b6672c6310c8a81"}, "vout": 0, "txid": "67101e680cf9103b47708c28b64eb69d7aef3149cb538c515ef2142df42ebc8a"}, {"sequence": 4294967295, "scriptSig": {"hex": "473044022006d9fbe0c72ed63029c8c9c9a8f7c6687f17cafb73d078c777ee3857b88410f2022032373b6ea3656d814f73c18845187c78aa76e3fcabdc0aeae9238f4de1ffa507012103a364b2edb4bde51090f8b46b6471193ee7030be3184506602b6672c6310c8a81", "asm": "3044022006d9fbe0c72ed63029c8c9c9a8f7c6687f17cafb73d078c777ee3857b88410f2022032373b6ea3656d814f73c18845187c78aa76e3fcabdc0aeae9238f4de1ffa507[ALL] 03a364b2edb4bde51090f8b46b6471193ee7030be3184506602b6672c6310c8a81"}, "vout": 0, "txid": "6b3df1a6f327289857a8c7dfde4754a16e3f09c03f87a8bb20794833f21a3d23"}, {"sequence": 4294967295, "scriptSig": {"hex": "473044022065eaf928fb88d9939a6afea04cf27e2f98374d8111a5447de05f6d2890b3847002207cc4678103b92605add5c8f64fe23fcc11dd38f8a36fcb9e4b805a72088c8078012103a364b2edb4bde51090f8b46b6471193ee7030be3184506602b6672c6310c8a81", "asm": "3044022065eaf928fb88d9939a6afea04cf27e2f98374d8111a5447de05f6d2890b3847002207cc4678103b92605add5c8f64fe23fcc11dd38f8a36fcb9e4b805a72088c8078[ALL] 03a364b2edb4bde51090f8b46b6471193ee7030be3184506602b6672c6310c8a81"}, "vout": 1, "txid": "77b0a43208ef0b044f4cab70f314846483a74cf3a3fcaad29f95dd6cf4bafbb7"}, {"sequence": 4294967295, "scriptSig": {"hex": "473044022046e3df091a9d897953c2d08cf32e59e5cfb1dfbebea2d5dae155c1d432f82ae30220766da2164131c8bb4ac7dfc90bad729dfc4568a6f5294f3ad308758a9965eabe012103a364b2edb4bde51090f8b46b6471193ee7030be3184506602b6672c6310c8a81", "asm": "3044022046e3df091a9d897953c2d08cf32e59e5cfb1dfbebea2d5dae155c1d432f82ae30220766da2164131c8bb4ac7dfc90bad729dfc4568a6f5294f3ad308758a9965eabe[ALL] 03a364b2edb4bde51090f8b46b6471193ee7030be3184506602b6672c6310c8a81"}, "vout": 0, "txid": "7e8624ea181b56ed774f1178cf7cb87b84091d713026c5b7e416ddefa7c88ab1"}, {"sequence": 4294967295, "scriptSig": {"hex": "48304502210099b19f248e994025c07acc824e130f88a0fc2f706b03e1dc533e89c9399adba5022058ba6cb0248cd4ca8f6fa777dca388b541bdd01b6234764ffaf5a84ef27315de012103a364b2edb4bde51090f8b46b6471193ee7030be3184506602b6672c6310c8a81", "asm": "304502210099b19f248e994025c07acc824e130f88a0fc2f706b03e1dc533e89c9399adba5022058ba6cb0248cd4ca8f6fa777dca388b541bdd01b6234764ffaf5a84ef27315de[ALL] 03a364b2edb4bde51090f8b46b6471193ee7030be3184506602b6672c6310c8a81"}, "vout": 1, "txid": "8a044ef65f91dea07a9e9afe11c5d1516e80a1a8a1dfaf117fb64972adb6ecfb"}, {"sequence": 4294967295, "scriptSig": {"hex": "483045022100f18bc3cbc2d5f7d3f93d9d977d2d5aec42c85d0f3d75625534cb863b09bb8e0c022034950393ea8b6a8498d97fa67b4b0366127cf9586c39f68ba89b2e4e09aa8f00012103a364b2edb4bde51090f8b46b6471193ee7030be3184506602b6672c6310c8a81", "asm": "3045022100f18bc3cbc2d5f7d3f93d9d977d2d5aec42c85d0f3d75625534cb863b09bb8e0c022034950393ea8b6a8498d97fa67b4b0366127cf9586c39f68ba89b2e4e09aa8f00[ALL] 03a364b2edb4bde51090f8b46b6471193ee7030be3184506602b6672c6310c8a81"}, "vout": 1, "txid": "8c7c04af1ab41ce3ba8bf2c38f945ef99279418892caa794fde24be5657f7423"}, {"sequence": 4294967295, "scriptSig": {"hex": "483045022100ea0af56f71d5482fc3844812a3dc1bb5644bdc859770b471a95a546df3a1602302201102b63aaab2f8edd2e622f293fc9038705ac0aecf77dbd7730e87e30b731558012103a364b2edb4bde51090f8b46b6471193ee7030be3184506602b6672c6310c8a81", "asm": "3045022100ea0af56f71d5482fc3844812a3dc1bb5644bdc859770b471a95a546df3a1602302201102b63aaab2f8edd2e622f293fc9038705ac0aecf77dbd7730e87e30b731558[ALL] 03a364b2edb4bde51090f8b46b6471193ee7030be3184506602b6672c6310c8a81"}, "vout": 1, "txid": "9b1c16a7b98705ba14919048dde9f79727124e91bfecc4589e48a265319837ad"}, {"sequence": 4294967295, "scriptSig": {"hex": "483045022100bb44e4842aa6d42e6beea93813f45d0c5b492b9bd30216230b7ca97d798b5cbf022047d864e11efe29a1f18752e9c123925af103b8361e014928c86c4bc1adcbe781012103a364b2edb4bde51090f8b46b6471193ee7030be3184506602b6672c6310c8a81", "asm": "3045022100bb44e4842aa6d42e6beea93813f45d0c5b492b9bd30216230b7ca97d798b5cbf022047d864e11efe29a1f18752e9c123925af103b8361e014928c86c4bc1adcbe781[ALL] 03a364b2edb4bde51090f8b46b6471193ee7030be3184506602b6672c6310c8a81"}, "vout": 0, "txid": "a3bcf4a5b296c6f110c273a0049df73b23862128b80c2daa85c089a148ab6c25"}, {"sequence": 4294967295, "scriptSig": {"hex": "4830450221008c06443e160a7be5d20f6fee8c7c7726022e13c4a033be993e10d21e5186963602206b6e3163fb23718f6ea363284269d6a9d91743852bb0d83fa20c21bace8680cc012103a364b2edb4bde51090f8b46b6471193ee7030be3184506602b6672c6310c8a81", "asm": "30450221008c06443e160a7be5d20f6fee8c7c7726022e13c4a033be993e10d21e5186963602206b6e3163fb23718f6ea363284269d6a9d91743852bb0d83fa20c21bace8680cc[ALL] 03a364b2edb4bde51090f8b46b6471193ee7030be3184506602b6672c6310c8a81"}, "vout": 0, "txid": "ad12f8410b34155e6bb71b65f93877e87305e9b7247a55987aefa2ebdffa1719"}, {"sequence": 4294967295, "scriptSig": {"hex": "48304502210081262d9dc12d59572a73280767bb1fc6a756f74ca11f4771971f88f1c979b3aa0220392c01e267d86530b0994643b21b95b4dcf2f834b510a79fe10a015fe96f82dd012103a364b2edb4bde51090f8b46b6471193ee7030be3184506602b6672c6310c8a81", "asm": "304502210081262d9dc12d59572a73280767bb1fc6a756f74ca11f4771971f88f1c979b3aa0220392c01e267d86530b0994643b21b95b4dcf2f834b510a79fe10a015fe96f82dd[ALL] 03a364b2edb4bde51090f8b46b6471193ee7030be3184506602b6672c6310c8a81"}, "vout": 0, "txid": "b1d317707aa7b572fe5385a7dfae7400a7d8370a71d9f4b3043908da94b622e7"}, {"sequence": 4294967295, "scriptSig": {"hex": "47304402204cf47a29c1fd7967b3f0fb6daa639823fc257244a0026927420c72575d20c93602203cd93ebfc29981405af68938a6d7302194da3f799c8383a3cb153253139a70e301210250cef010ebc1d7f62049592273f1a97d75f47bf6def66a3ae0a0722b8f509cad", "asm": "304402204cf47a29c1fd7967b3f0fb6daa639823fc257244a0026927420c72575d20c93602203cd93ebfc29981405af68938a6d7302194da3f799c8383a3cb153253139a70e3[ALL] 0250cef010ebc1d7f62049592273f1a97d75f47bf6def66a3ae0a0722b8f509cad"}, "vout": 0, "txid": "c0a285ccd31f62b4c556f93c90620bfa189eccf05f2f8700c799eca75d4f5c81"}, {"sequence": 4294967295, "scriptSig": {"hex": "473044022043292be72e6615ce80a2671affbda56aad446af889101b4bdeb289847a9e3808022054c388fc729fbcac08b76063f180cc421ba69cb8c05c747394bb55a155a6c97d012103a364b2edb4bde51090f8b46b6471193ee7030be3184506602b6672c6310c8a81", "asm": "3044022043292be72e6615ce80a2671affbda56aad446af889101b4bdeb289847a9e3808022054c388fc729fbcac08b76063f180cc421ba69cb8c05c747394bb55a155a6c97d[ALL] 03a364b2edb4bde51090f8b46b6471193ee7030be3184506602b6672c6310c8a81"}, "vout": 1, "txid": "c74268ff313173d0d52549e661ea4232416b1499e10215c98fb011e4f452b8fd"}, {"sequence": 4294967295, "scriptSig": {"hex": "483045022100c4c0d74fc3c9d3f7261063ead1907914cb883d82f3b9244427db467537e6331f022007cfb75868aec4c8c19b9540314c657a18c8f77fd3d7a663950eac60107d483b012102f54cd69062a77972a18cd53c62cee231536df47efc9826e226f1e04bdf99edf6", "asm": "3045022100c4c0d74fc3c9d3f7261063ead1907914cb883d82f3b9244427db467537e6331f022007cfb75868aec4c8c19b9540314c657a18c8f77fd3d7a663950eac60107d483b[ALL] 02f54cd69062a77972a18cd53c62cee231536df47efc9826e226f1e04bdf99edf6"}, "vout": 0, "txid": "f8391da4300606b0f1942a5352353221b8a08597851b7ffd8a469a47fb0f0dc1"}], "txid": "b18e2d932d8b23f03c0b46206081abd00f040f0c123b744b24a2c0e039727459", "blocktime": 1537872018, "version": 1, "confirmations": 11489, "time": 1537872018, "locktime": 0, "vsize": 2735, "size": 2735}