{"hash": "fb03f54bb4397e63361195c370fb7dba8def0f578eec23391b209b01d1fed7cc", "blockhash": "0000000000000000001f76057863aec43deb6fa401d9628bb513d65a8098bfab", "vout": [{"scriptPubKey": {"reqSigs": 1, "hex": "76a914345fdd6abfff4946e1ae039db4bb241fa657ea4788ac", "addresses": ["15mvynaoKLR5VPTqC8cNqhSmowZRaebvAu"], "asm": "OP_DUP OP_HASH160 345fdd6abfff4946e1ae039db4bb241fa657ea47 OP_EQUALVERIFY OP_CHECKSIG", "type": "pubkeyhash"}, "value": 0.0009092, "n": 0}, {"scriptPubKey": {"reqSigs": 1, "hex": "a914414cec0fc72a9410f6836edaf08de1aa3b2a321c87", "addresses": ["37eHzewnAFRR2SVZu8rZM3nBsmuE2XBU7D"], "asm": "OP_HASH160 414cec0fc72a9410f6836edaf08de1aa3b2a321c OP_EQUAL", "type": "scripthash"}, "value": 0.2497934, "n": 1}], "hex": "0100000000010113fb8eadbd8052b3220ac8e7e153ce2cc5eb9e929333a8136f0f9046d4fc63910100000023220020ce74cde37cfb8dd71d0179287e12fc721ee236ce3c89c2745bcd365b39807eb3ffffffff0228630100000000001976a914345fdd6abfff4946e1ae039db4bb241fa657ea4788ac8c277d010000000017a914414cec0fc72a9410f6836edaf08de1aa3b2a321c870400483045022100b517860de0f96b12697f8faf8916826e29ee5d7a7665cab7569beb247b527b0c02203df29a921db593c39233e203634cfc8229769365149606e8cabc05b93a18fe34014730440220364abb6762d182c9a7138d5630fca3595d6f6f2e15fa5516b066dafed10115ac022046b9799e7f91ae7f647627c8de7a5e596dc82c94259580dcac80b10017eb1e220147522103ada901d90d5a76319a60f228e0b1bbc84b1d9a87238550bae5d5d190067b66712103871fc2ca08e6950b38867e8e6a0e94ee625223d3aa0df5c65f414c6d784467e252ae00000000", "vin": [{"txinwitness": ["", "3045022100b517860de0f96b12697f8faf8916826e29ee5d7a7665cab7569beb247b527b0c02203df29a921db593c39233e203634cfc8229769365149606e8cabc05b93a18fe3401", "30440220364abb6762d182c9a7138d5630fca3595d6f6f2e15fa5516b066dafed10115ac022046b9799e7f91ae7f647627c8de7a5e596dc82c94259580dcac80b10017eb1e2201", "522103ada901d90d5a76319a60f228e0b1bbc84b1d9a87238550bae5d5d190067b66712103871fc2ca08e6950b38867e8e6a0e94ee625223d3aa0df5c65f414c6d784467e252ae"], "sequence": 4294967295, "scriptSig": {"hex": "220020ce74cde37cfb8dd71d0179287e12fc721ee236ce3c89c2745bcd365b39807eb3", "asm": "0020ce74cde37cfb8dd71d0179287e12fc721ee236ce3c89c2745bcd365b39807eb3"}, "vout": 1, "txid": "9163fcd446900f6f13a83393929eebc52cce53e1e7c80a22b35280bdad8efb13"}], "txid": "b18f3644027bf1eb1fbdf787d4136d2fa55f16adc5234edbcdc77d0edc67e6ed", "blocktime": 1537873891, "version": 1, "confirmations": 11478, "time": 1537873891, "locktime": 0, "vsize": 208, "size": 373}