{"hash": "77ab0dabb62d0482e2f8f1f31f671289f822b9e23ac1f27249292407638276d3", "blockhash": "0000000000000000000dcc0f55137456b1a82d3642486a52398922ac4d620174", "vout": [{"scriptPubKey": {"reqSigs": 1, "hex": "a914f79802058f6c0326144d1994fcb6cf4869f013f787", "addresses": ["3QGAvcu39cfGDw7B9MZ18vP2fujo5Ja6zR"], "asm": "OP_HASH160 f79802058f6c0326144d1994fcb6cf4869f013f7 OP_EQUAL", "type": "scripthash"}, "value": 1.341415, "n": 0}, {"scriptPubKey": {"reqSigs": 1, "hex": "76a914f4d0f6b8050bbab3dddb41f1f85418110821fbbf88ac", "addresses": ["1PKUCs1QedgU5DoqwyLVNv8n5uUDYYBDG5"], "asm": "OP_DUP OP_HASH160 f4d0f6b8050bbab3dddb41f1f85418110821fbbf OP_EQUALVERIFY OP_CHECKSIG", "type": "pubkeyhash"}, "value": 0.0039, "n": 1}, {"scriptPubKey": {"reqSigs": 1, "hex": "a9140d86592fac97330d782ce09474308c9d1f30497687", "addresses": ["32vXej7XxUgiWcrobRzSkg9Do3rthnJyuQ"], "asm": "OP_HASH160 0d86592fac97330d782ce09474308c9d1f304976 OP_EQUAL", "type": "scripthash"}, "value": 0.0116958, "n": 2}, {"scriptPubKey": {"reqSigs": 1, "hex": "a9149314ed76ef1faee30c61d2f1cac7eedcb73390a487", "addresses": ["3F6iKpNxnhiUDWog3J4e9pSeKZytyQP2VW"], "asm": "OP_HASH160 9314ed76ef1faee30c61d2f1cac7eedcb73390a4 OP_EQUAL", "type": "scripthash"}, "value": 0.05177243, "n": 3}, {"scriptPubKey": {"reqSigs": 1, "hex": "a914e32ed8a143eda4b428d8ef75745f9c18759337b587", "addresses": ["3NQFS2B3FgWTPRKegU1q7onLmdbSkxsTGC"], "asm": "OP_HASH160 e32ed8a143eda4b428d8ef75745f9c18759337b5 OP_EQUAL", "type": "scripthash"}, "value": 0.02528, "n": 4}, {"scriptPubKey": {"reqSigs": 1, "hex": "a9141988a27e3c2df4ddee7fad5a2303d086179b2a3087", "addresses": ["3422VtS7UtCvXYxoXMVp6eZupR252z85oC"], "asm": "OP_HASH160 1988a27e3c2df4ddee7fad5a2303d086179b2a30 OP_EQUAL", "type": "scripthash"}, "value": 0.63387343, "n": 5}], "hex": "010000000001054cfec8c222143a044cf6b5e191e2de2836b290f2ac32739859395dd28b80ad34020000002322002065d416c48a8072e0ac51c2d111eb194f009caef0332446c1bf2097316cf07fa9ffffffff00f3274d1700652819da10532f2adb3eba7de6c41847e201de107aa1183a3a7f020000002322002065d416c48a8072e0ac51c2d111eb194f009caef0332446c1bf2097316cf07fa9ffffffffe54e9a175de1a3d4290a5229d10f39d79d697a5850257795924a884a51ff4bf3010000002322002065d416c48a8072e0ac51c2d111eb194f009caef0332446c1bf2097316cf07fa9ffffffff8adac8e54a2ae8a7f8c4e61562e35310021f059158129674587a8a624cf0984f010000002322002065d416c48a8072e0ac51c2d111eb194f009caef0332446c1bf2097316cf07fa9ffffffffb97f514a18f3dab635270024b093b7f1acaae4dbdb520f7b7cfa6b8eb21819ec000000002322002065d416c48a8072e0ac51c2d111eb194f009caef0332446c1bf2097316cf07fa9ffffffff063cd6fe070000000017a914f79802058f6c0326144d1994fcb6cf4869f013f78770f30500000000001976a914f4d0f6b8050bbab3dddb41f1f85418110821fbbf88acacd811000000000017a9140d86592fac97330d782ce09474308c9d1f304976879bff4e000000000017a9149314ed76ef1faee30c61d2f1cac7eedcb73390a487009326000000000017a914e32ed8a143eda4b428d8ef75745f9c18759337b587cf36c7030000000017a9141988a27e3c2df4ddee7fad5a2303d086179b2a30870400483045022100e8cea90263243bea8327b116b983d840456d24d10b833c1789325d4dc7460ac102200371d91662845af87b2f190671d0dea8bab45e9d167876674bc1719ec369f5d601483045022100f616374e339542f97dfcd7fbfe32ff0af7dd33858376a76aeb99a989ffa2127302204a37dd63fbc02d7a68219de65605f9dab855bc838764f72cfd70809cf8102f7a0169522102f44abcf9e23c9a460da309ccca56c619c04eed3bde2c2cff5e7d78fbcd980b9c2103c9443cf3047bb6c2c82f1b0c44c36109cdc3d0d601d16d1189a1602bf8d1a0a02103bfe867059274412412e088af5572b92168c2ef495cfe6c9b7a753a009eb37c4853ae0400483045022100afc18cb2795b5669fda9a3445910678b194840f2c921d6fb110ad8e0c25dd83a0220175565e5475151597a606979096603359069b02bf1ef1066fd2595fbad77267901473044022028a3591e9c5fbe0e4bde67e8dff390248071877ca9b408dc2f892a11ddf549e50220544e1daff207ddbd85e2a3af323c2353be8fb4d5f52bbd22dca79fff017dd1810169522102f44abcf9e23c9a460da309ccca56c619c04eed3bde2c2cff5e7d78fbcd980b9c2103c9443cf3047bb6c2c82f1b0c44c36109cdc3d0d601d16d1189a1602bf8d1a0a02103bfe867059274412412e088af5572b92168c2ef495cfe6c9b7a753a009eb37c4853ae040047304402207b3146d8ab51cdc778a5e5d3bba335cf324b2872718bfc94335f9ae6fec2efd702205c85a0ec704eb0a18f0e9e5a00df2ac0e1013fe9b3a93c6268d54d40c8558bf501483045022100ed1b95c48a32b1422e370c82141dfd160eb3d7036b77ba0d3ec45af88349fbf6022051fbc0b726fbd088d4a9cbdf8f17c462f539375bb0a29403b9da3de71cdbc6b60169522102f44abcf9e23c9a460da309ccca56c619c04eed3bde2c2cff5e7d78fbcd980b9c2103c9443cf3047bb6c2c82f1b0c44c36109cdc3d0d601d16d1189a1602bf8d1a0a02103bfe867059274412412e088af5572b92168c2ef495cfe6c9b7a753a009eb37c4853ae040047304402207be0eb29815a33938b8f64136f1b02d0004a746780d34f917820c8f03fc6f442022042a968bfcdacd7790dde2d2e24c48840a70e7f28fe52e9aa947070d6b989086a01483045022100d9024ad6e9cf2ab39745d9fea1d679a67812e01645e27efb395c83f51d2ff28802201e861ff084afa55917bd7d163c2b6115aec028b48b9084e95cbf132749470f9f0169522102f44abcf9e23c9a460da309ccca56c619c04eed3bde2c2cff5e7d78fbcd980b9c2103c9443cf3047bb6c2c82f1b0c44c36109cdc3d0d601d16d1189a1602bf8d1a0a02103bfe867059274412412e088af5572b92168c2ef495cfe6c9b7a753a009eb37c4853ae040047304402206620a7f1c9912dd7e86a4d08e9bd90d44056013768834af80f2de876e05d5125022015ec1780665573fefec6c12ef5b9901be84601aacc6147ea35eb6fe7e1af056d01473044022020419ce9b675e7d616aa8440541b296093c4f5694a0d680faf3a8a891541faa3022033f9644c8c29ed8ff332543f3bd7e98626d1d3955b064889f63a161abc7a98430169522102f44abcf9e23c9a460da309ccca56c619c04eed3bde2c2cff5e7d78fbcd980b9c2103c9443cf3047bb6c2c82f1b0c44c36109cdc3d0d601d16d1189a1602bf8d1a0a02103bfe867059274412412e088af5572b92168c2ef495cfe6c9b7a753a009eb37c4853ae00000000", "vin": [{"txinwitness": ["", "3045022100e8cea90263243bea8327b116b983d840456d24d10b833c1789325d4dc7460ac102200371d91662845af87b2f190671d0dea8bab45e9d167876674bc1719ec369f5d601", "3045022100f616374e339542f97dfcd7fbfe32ff0af7dd33858376a76aeb99a989ffa2127302204a37dd63fbc02d7a68219de65605f9dab855bc838764f72cfd70809cf8102f7a01", "522102f44abcf9e23c9a460da309ccca56c619c04eed3bde2c2cff5e7d78fbcd980b9c2103c9443cf3047bb6c2c82f1b0c44c36109cdc3d0d601d16d1189a1602bf8d1a0a02103bfe867059274412412e088af5572b92168c2ef495cfe6c9b7a753a009eb37c4853ae"], "sequence": 4294967295, "scriptSig": {"hex": "22002065d416c48a8072e0ac51c2d111eb194f009caef0332446c1bf2097316cf07fa9", "asm": "002065d416c48a8072e0ac51c2d111eb194f009caef0332446c1bf2097316cf07fa9"}, "vout": 2, "txid": "34ad808bd25d3959987332acf290b23628dee291e1b5f64c043a1422c2c8fe4c"}, {"txinwitness": ["", "3045022100afc18cb2795b5669fda9a3445910678b194840f2c921d6fb110ad8e0c25dd83a0220175565e5475151597a606979096603359069b02bf1ef1066fd2595fbad77267901", "3044022028a3591e9c5fbe0e4bde67e8dff390248071877ca9b408dc2f892a11ddf549e50220544e1daff207ddbd85e2a3af323c2353be8fb4d5f52bbd22dca79fff017dd18101", "522102f44abcf9e23c9a460da309ccca56c619c04eed3bde2c2cff5e7d78fbcd980b9c2103c9443cf3047bb6c2c82f1b0c44c36109cdc3d0d601d16d1189a1602bf8d1a0a02103bfe867059274412412e088af5572b92168c2ef495cfe6c9b7a753a009eb37c4853ae"], "sequence": 4294967295, "scriptSig": {"hex": "22002065d416c48a8072e0ac51c2d111eb194f009caef0332446c1bf2097316cf07fa9", "asm": "002065d416c48a8072e0ac51c2d111eb194f009caef0332446c1bf2097316cf07fa9"}, "vout": 2, "txid": "7f3a3a18a17a10de01e24718c4e67dba3edb2a2f5310da19286500174d27f300"}, {"txinwitness": ["", "304402207b3146d8ab51cdc778a5e5d3bba335cf324b2872718bfc94335f9ae6fec2efd702205c85a0ec704eb0a18f0e9e5a00df2ac0e1013fe9b3a93c6268d54d40c8558bf501", "3045022100ed1b95c48a32b1422e370c82141dfd160eb3d7036b77ba0d3ec45af88349fbf6022051fbc0b726fbd088d4a9cbdf8f17c462f539375bb0a29403b9da3de71cdbc6b601", "522102f44abcf9e23c9a460da309ccca56c619c04eed3bde2c2cff5e7d78fbcd980b9c2103c9443cf3047bb6c2c82f1b0c44c36109cdc3d0d601d16d1189a1602bf8d1a0a02103bfe867059274412412e088af5572b92168c2ef495cfe6c9b7a753a009eb37c4853ae"], "sequence": 4294967295, "scriptSig": {"hex": "22002065d416c48a8072e0ac51c2d111eb194f009caef0332446c1bf2097316cf07fa9", "asm": "002065d416c48a8072e0ac51c2d111eb194f009caef0332446c1bf2097316cf07fa9"}, "vout": 1, "txid": "f34bff514a884a9295772550587a699dd7390fd129520a29d4a3e15d179a4ee5"}, {"txinwitness": ["", "304402207be0eb29815a33938b8f64136f1b02d0004a746780d34f917820c8f03fc6f442022042a968bfcdacd7790dde2d2e24c48840a70e7f28fe52e9aa947070d6b989086a01", "3045022100d9024ad6e9cf2ab39745d9fea1d679a67812e01645e27efb395c83f51d2ff28802201e861ff084afa55917bd7d163c2b6115aec028b48b9084e95cbf132749470f9f01", "522102f44abcf9e23c9a460da309ccca56c619c04eed3bde2c2cff5e7d78fbcd980b9c2103c9443cf3047bb6c2c82f1b0c44c36109cdc3d0d601d16d1189a1602bf8d1a0a02103bfe867059274412412e088af5572b92168c2ef495cfe6c9b7a753a009eb37c4853ae"], "sequence": 4294967295, "scriptSig": {"hex": "22002065d416c48a8072e0ac51c2d111eb194f009caef0332446c1bf2097316cf07fa9", "asm": "002065d416c48a8072e0ac51c2d111eb194f009caef0332446c1bf2097316cf07fa9"}, "vout": 1, "txid": "4f98f04c628a7a587496125891051f021053e36215e6c4f8a7e82a4ae5c8da8a"}, {"txinwitness": ["", "304402206620a7f1c9912dd7e86a4d08e9bd90d44056013768834af80f2de876e05d5125022015ec1780665573fefec6c12ef5b9901be84601aacc6147ea35eb6fe7e1af056d01", "3044022020419ce9b675e7d616aa8440541b296093c4f5694a0d680faf3a8a891541faa3022033f9644c8c29ed8ff332543f3bd7e98626d1d3955b064889f63a161abc7a984301", "522102f44abcf9e23c9a460da309ccca56c619c04eed3bde2c2cff5e7d78fbcd980b9c2103c9443cf3047bb6c2c82f1b0c44c36109cdc3d0d601d16d1189a1602bf8d1a0a02103bfe867059274412412e088af5572b92168c2ef495cfe6c9b7a753a009eb37c4853ae"], "sequence": 4294967295, "scriptSig": {"hex": "22002065d416c48a8072e0ac51c2d111eb194f009caef0332446c1bf2097316cf07fa9", "asm": "002065d416c48a8072e0ac51c2d111eb194f009caef0332446c1bf2097316cf07fa9"}, "vout": 0, "txid": "ec1918b28e6bfa7c7b0f52dbdbe4aaacf1b793b024002735b6daf3184a517fb9"}], "txid": "b195722b248d5a1e2ad6eea14b2b90eebaa5a8dbe719beec6d48532914805ab5", "blocktime": 1537870268, "version": 1, "confirmations": 11516, "time": 1537870268, "locktime": 0, "vsize": 901, "size": 1851}