{"hash": "b19bb105a36fc3d6590c028951d87b257cd01b6c324c1aa081edc62a81f44337", "blockhash": "0000000000000000000e13cef7c366c0283d82e591d1acd082e914b08063cdf1", "vout": [{"scriptPubKey": {"reqSigs": 1, "hex": "76a914381e64e7f4a7d0629efce5aade86d84fc5c1293688ac", "addresses": ["167jFZqFJjcTNqEjThHJJk1iPNosyCBAKq"], "asm": "OP_DUP OP_HASH160 381e64e7f4a7d0629efce5aade86d84fc5c12936 OP_EQUALVERIFY OP_CHECKSIG", "type": "pubkeyhash"}, "value": 0.00186, "n": 0}, {"scriptPubKey": {"reqSigs": 1, "hex": "76a9142143117fc0fc5e43926967561da71d8c9be9d9de88ac", "addresses": ["142seKeMF7kC2VSwsVqPEx7HRxPv3wXL5D"], "asm": "OP_DUP OP_HASH160 2143117fc0fc5e43926967561da71d8c9be9d9de OP_EQUALVERIFY OP_CHECKSIG", "type": "pubkeyhash"}, "value": 0.02036709, "n": 1}], "hex": "010000000129bf1abc9279838dbd821845bc8cdbf37e88ddd799efc2598ef2aa397e590887000000006a47304402202271328e359891451f58a18d6c443093041f3cfa3f1aef84ef23957ea85c0804022029224ce5247bcf5725c152f0f47b6edde784b5103a00a5428e4a26f6706628d0012103c50451721e1b581a532119fb3f8fd0a3f413cd898a5c91af0934d6f16ef6e9faffffffff0290d60200000000001976a914381e64e7f4a7d0629efce5aade86d84fc5c1293688ace5131f00000000001976a9142143117fc0fc5e43926967561da71d8c9be9d9de88ac00000000", "vin": [{"sequence": 4294967295, "scriptSig": {"hex": "47304402202271328e359891451f58a18d6c443093041f3cfa3f1aef84ef23957ea85c0804022029224ce5247bcf5725c152f0f47b6edde784b5103a00a5428e4a26f6706628d0012103c50451721e1b581a532119fb3f8fd0a3f413cd898a5c91af0934d6f16ef6e9fa", "asm": "304402202271328e359891451f58a18d6c443093041f3cfa3f1aef84ef23957ea85c0804022029224ce5247bcf5725c152f0f47b6edde784b5103a00a5428e4a26f6706628d0[ALL] 03c50451721e1b581a532119fb3f8fd0a3f413cd898a5c91af0934d6f16ef6e9fa"}, "vout": 0, "txid": "8708597e39aaf28e59c2ef99d7dd887ef3db8cbc451882bd8d837992bc1abf29"}], "txid": "b19bb105a36fc3d6590c028951d87b257cd01b6c324c1aa081edc62a81f44337", "blocktime": 1537871767, "version": 1, "confirmations": 11495, "time": 1537871767, "locktime": 0, "vsize": 225, "size": 225}