{"hash": "6a2a0ddfbfc5d0d000068bf1ce5e7e6de381498b6763243a373629d89fc3bc58", "blockhash": "0000000000000000000e13cef7c366c0283d82e591d1acd082e914b08063cdf1", "vout": [{"scriptPubKey": {"reqSigs": 1, "hex": "a91414bdf8c527621b350af9521916a0d493a340751187", "addresses": ["33ah1rE5mNLMWUWEPondo32rdGo91u9zwy"], "asm": "OP_HASH160 14bdf8c527621b350af9521916a0d493a3407511 OP_EQUAL", "type": "scripthash"}, "value": 0.00059253, "n": 0}, {"scriptPubKey": {"reqSigs": 1, "hex": "a914b98673776cd3057785a26f8ce7f43a1c6ed031d287", "addresses": ["3JbyzrWk2xqPVTYYmMVY5uTjX2AnXyMWxo"], "asm": "OP_HASH160 b98673776cd3057785a26f8ce7f43a1c6ed031d2 OP_EQUAL", "type": "scripthash"}, "value": 0.0027096, "n": 1}, {"scriptPubKey": {"reqSigs": 1, "hex": "a91463f8c746dee865889f2c55421f6651c288816e6e87", "addresses": ["3AocqxoiNm7yQ78SDM4tAjURuR6s8oPzKr"], "asm": "OP_HASH160 63f8c746dee865889f2c55421f6651c288816e6e OP_EQUAL", "type": "scripthash"}, "value": 0.00271121, "n": 2}, {"scriptPubKey": {"reqSigs": 1, "hex": "a914b8f3a81dccf1f2f2b8a310585dcff7d3c7cd90f787", "addresses": ["3JYx9QTK8WSu6yaNUYQkviBipVCn57HioM"], "asm": "OP_HASH160 b8f3a81dccf1f2f2b8a310585dcff7d3c7cd90f7 OP_EQUAL", "type": "scripthash"}, "value": 0.00407234, "n": 3}, {"scriptPubKey": {"reqSigs": 1, "hex": "a9149368676c0dacd9e8a5970d84bbd76ff05ada999b87", "addresses": ["3F8SKroGdtAQgq5PCurrM94FF49MxrGb7h"], "asm": "OP_HASH160 9368676c0dacd9e8a5970d84bbd76ff05ada999b OP_EQUAL", "type": "scripthash"}, "value": 0.004388, "n": 4}, {"scriptPubKey": {"reqSigs": 1, "hex": "76a9147e2c58c4256ae6bfef3ed0bc00235861fd6174c688ac", "addresses": ["1CW9GSJtQYfwmWbQQyGQT6RxBVpKNeNTmG"], "asm": "OP_DUP OP_HASH160 7e2c58c4256ae6bfef3ed0bc00235861fd6174c6 OP_EQUALVERIFY OP_CHECKSIG", "type": "pubkeyhash"}, "value": 0.01172041, "n": 5}, {"scriptPubKey": {"reqSigs": 1, "hex": "a9147db2580cdba54c25a02440e67ce04cde1cf6113987", "addresses": ["3D9e35Rsjoo8ZG3cZPE3mqkDSeJqJzsyLL"], "asm": "OP_HASH160 7db2580cdba54c25a02440e67ce04cde1cf61139 OP_EQUAL", "type": "scripthash"}, "value": 0.00237826, "n": 6}, {"scriptPubKey": {"reqSigs": 1, "hex": "76a914353d0155b80a35c7a888b2954f567ab16df801bc88ac", "addresses": ["15rVttFT5VUCESaTNztqfoQfgaPnZfRnoB"], "asm": "OP_DUP OP_HASH160 353d0155b80a35c7a888b2954f567ab16df801bc OP_EQUALVERIFY OP_CHECKSIG", "type": "pubkeyhash"}, "value": 0.00222152, "n": 7}, {"scriptPubKey": {"reqSigs": 1, "hex": "a9142a1036740913057e807d6e8763c4ef0e6fb1354587", "addresses": ["35XRj5Z94GemhQW1EDMzAf5owiEez37DW8"], "asm": "OP_HASH160 2a1036740913057e807d6e8763c4ef0e6fb13545 OP_EQUAL", "type": "scripthash"}, "value": 0.005192, "n": 8}, {"scriptPubKey": {"reqSigs": 1, "hex": "a9144b10c99e4a69105aec9abcb4b6176a1a0f4e7a9587", "addresses": ["38XviMNEgi3Ka6UVQgAzfeXNfbhxKcgv7o"], "asm": "OP_HASH160 4b10c99e4a69105aec9abcb4b6176a1a0f4e7a95 OP_EQUAL", "type": "scripthash"}, "value": 0.0028516, "n": 9}, {"scriptPubKey": {"reqSigs": 1, "hex": "a91409bf6c5c163887bd1702b7a16839db5563d2a89a87", "addresses": ["32aZKbLms7kz1e9BqWjCDihjtVWnAnTyf2"], "asm": "OP_HASH160 09bf6c5c163887bd1702b7a16839db5563d2a89a OP_EQUAL", "type": "scripthash"}, "value": 0.00497092, "n": 10}, {"scriptPubKey": {"reqSigs": 1, "hex": "76a9146d911d18f601772acb04a6392a581732eab5a2b988ac", "addresses": ["1AzLVaqy15S7wP7omrWHUT51ofC1BK7Xo5"], "asm": "OP_DUP OP_HASH160 6d911d18f601772acb04a6392a581732eab5a2b9 OP_EQUALVERIFY OP_CHECKSIG", "type": "pubkeyhash"}, "value": 0.004, "n": 11}, {"scriptPubKey": {"reqSigs": 1, "hex": "a914b34cdde786fbb31527a4c5013730c2037f53f8d987", "addresses": ["3J34xgU3tVdge2S8gLkrBjTY7yZZqPGMqn"], "asm": "OP_HASH160 b34cdde786fbb31527a4c5013730c2037f53f8d9 OP_EQUAL", "type": "scripthash"}, "value": 0.00335909, "n": 12}, {"scriptPubKey": {"reqSigs": 1, "hex": "76a914698629c0c4fd46c537008b46d30024c927a3d8f888ac", "addresses": ["1AcxfxYWgSZzy6QNewoNMo4ubkLPb9k4gV"], "asm": "OP_DUP OP_HASH160 698629c0c4fd46c537008b46d30024c927a3d8f8 OP_EQUALVERIFY OP_CHECKSIG", "type": "pubkeyhash"}, "value": 0.01022688, "n": 13}, {"scriptPubKey": {"reqSigs": 1, "hex": "a914e98fd9fb58cf17ba5ff38f9cb89614c62ef29b8987", "addresses": ["3NyyhDYZSCyHUHDeo8gjsq4mxqYWfneKxP"], "asm": "OP_HASH160 e98fd9fb58cf17ba5ff38f9cb89614c62ef29b89 OP_EQUAL", "type": "scripthash"}, "value": 0.00761684, "n": 14}, {"scriptPubKey": {"reqSigs": 1, "hex": "a914c6a5766d3a7d4477ced369559de79a98d40095dc87", "addresses": ["3KoMw4yvy4sS1isiUXz2cmYga4VXiecQau"], "asm": "OP_HASH160 c6a5766d3a7d4477ced369559de79a98d40095dc OP_EQUAL", "type": "scripthash"}, "value": 0.00954364, "n": 15}, {"scriptPubKey": {"reqSigs": 1, "hex": "76a914bee1b574a7445b77bd089843bb4c4ec9107ce05e88ac", "addresses": ["1JQHmyKAhmy1BWA9WMiunoXJdLsSTZvoLb"], "asm": "OP_DUP OP_HASH160 bee1b574a7445b77bd089843bb4c4ec9107ce05e OP_EQUALVERIFY OP_CHECKSIG", "type": "pubkeyhash"}, "value": 0.13618201, "n": 16}, {"scriptPubKey": {"reqSigs": 1, "hex": "a914d66ccd632668ce33afb8ec086f7d52cb9af122fc87", "addresses": ["3MEnsK1n5UvQ1YcLRCepGA1DbC7G9qAWqc"], "asm": "OP_HASH160 d66ccd632668ce33afb8ec086f7d52cb9af122fc OP_EQUAL", "type": "scripthash"}, "value": 0.00225415, "n": 17}, {"scriptPubKey": {"reqSigs": 1, "hex": "a9149965acb970d7e22cd50a3fe9905fa740b6f9062887", "addresses": ["3Fg77NmZcVEFy7RjPnfzGM9y3w6XiriUbw"], "asm": "OP_HASH160 9965acb970d7e22cd50a3fe9905fa740b6f90628 OP_EQUAL", "type": "scripthash"}, "value": 22.48351736, "n": 18}, {"scriptPubKey": {"reqSigs": 1, "hex": "a9140ad2b5e0aa52904763d3f57f0d5f3d3c66d7131387", "addresses": ["32gF6t5QxeLaRnBWT5fMB3pouZ5xy24MvL"], "asm": "OP_HASH160 0ad2b5e0aa52904763d3f57f0d5f3d3c66d71313 OP_EQUAL", "type": "scripthash"}, "value": 0.0023879, "n": 19}, {"scriptPubKey": {"reqSigs": 1, "hex": "a914af19d599d58f232e0ac9da7d080c16f54a98e75487", "addresses": ["3Hes87oms9atqnf66EpbweEYWQHu8cixrA"], "asm": "OP_HASH160 af19d599d58f232e0ac9da7d080c16f54a98e754 OP_EQUAL", "type": "scripthash"}, "value": 0.00773923, "n": 20}, {"scriptPubKey": {"reqSigs": 1, "hex": "76a9145afcab8d6d56a3307607582c52b83cd51a0d1edf88ac", "addresses": ["19J6W6Pae5K6xapH9zDw5Sjmo5NU1YXsXD"], "asm": "OP_DUP OP_HASH160 5afcab8d6d56a3307607582c52b83cd51a0d1edf OP_EQUALVERIFY OP_CHECKSIG", "type": "pubkeyhash"}, "value": 0.0008, "n": 21}, {"scriptPubKey": {"reqSigs": 1, "hex": "a9140a89f9b81a10630522dbb160286cbbcecb25600187", "addresses": ["32ejyAYsD4Jk6BN7YkZ3D42GyVJo7uJ3wm"], "asm": "OP_HASH160 0a89f9b81a10630522dbb160286cbbcecb256001 OP_EQUAL", "type": "scripthash"}, "value": 0.480961, "n": 22}, {"scriptPubKey": {"reqSigs": 1, "hex": "76a914aed9cba77b19605238d188e9a2c30587b818adb688ac", "addresses": ["1GwXV5TQgB7FBpQYXV12Se1wC7Pau25vzU"], "asm": "OP_DUP OP_HASH160 aed9cba77b19605238d188e9a2c30587b818adb6 OP_EQUALVERIFY OP_CHECKSIG", "type": "pubkeyhash"}, "value": 0.00048393, "n": 23}, {"scriptPubKey": {"reqSigs": 1, "hex": "a9146c633d7ea8367bc7c018c767fbec8ad3c8a4ae0d87", "addresses": ["3Ba7nbK2hQ9kDP1mrMXjMqMpkii2vsJ6xx"], "asm": "OP_HASH160 6c633d7ea8367bc7c018c767fbec8ad3c8a4ae0d OP_EQUAL", "type": "scripthash"}, "value": 0.003794, "n": 24}, {"scriptPubKey": {"reqSigs": 1, "hex": "a9142c4ccb5c928251a82533e14e0bbd73d8393eeb2987", "addresses": ["35jFekY7vKDEHRw95MTYNcjKTYiM6bqZau"], "asm": "OP_HASH160 2c4ccb5c928251a82533e14e0bbd73d8393eeb29 OP_EQUAL", "type": "scripthash"}, "value": 0.01264361, "n": 25}, {"scriptPubKey": {"reqSigs": 1, "hex": "a9149699f62d3acd1f80cae0b2349bfb4342de93cdb187", "addresses": ["3FRKim22xLms6AePdrpPDbJKU9kQhZMSvH"], "asm": "OP_HASH160 9699f62d3acd1f80cae0b2349bfb4342de93cdb1 OP_EQUAL", "type": "scripthash"}, "value": 0.00375808, "n": 26}, {"scriptPubKey": {"reqSigs": 1, "hex": "a914867d8e66909179ac0e8efc9bf447f41218509c2787", "addresses": ["3Dx8t3smyNDKLRFoduoLc8o7LFb1V5ngDn"], "asm": "OP_HASH160 867d8e66909179ac0e8efc9bf447f41218509c27 OP_EQUAL", "type": "scripthash"}, "value": 0.00371872, "n": 27}, {"scriptPubKey": {"reqSigs": 1, "hex": "a914d446b81c554d8f4c54123b6c0b5989f00511437f87", "addresses": ["3M3RtsDwiX1yxt6QX8af38QavgDrBgM1gb"], "asm": "OP_HASH160 d446b81c554d8f4c54123b6c0b5989f00511437f OP_EQUAL", "type": "scripthash"}, "value": 0.00014484, "n": 28}, {"scriptPubKey": {"reqSigs": 1, "hex": "a914d9021c75ae6976ebaf774fe2f717c6d99fd9987187", "addresses": ["3MUT5rhSNTsBmzb5enuZ6TzfhGCMStW68i"], "asm": "OP_HASH160 d9021c75ae6976ebaf774fe2f717c6d99fd99871 OP_EQUAL", "type": "scripthash"}, "value": 0.0079544, "n": 29}, {"scriptPubKey": {"reqSigs": 1, "hex": "a914454ff6c8ebe6253fe97c0597aae94434dfddd47787", "addresses": ["381WLmz5t4572HkV28nkeWSVFnxrq1Mx4P"], "asm": "OP_HASH160 454ff6c8ebe6253fe97c0597aae94434dfddd477 OP_EQUAL", "type": "scripthash"}, "value": 0.004, "n": 30}, {"scriptPubKey": {"reqSigs": 1, "hex": "76a91408bb15b0fa889c0632a710f8e3eb20c90120d7f288ac", "addresses": ["1oAXQmCLyUsK5K4wGFmvDShHGtdF67eFJ"], "asm": "OP_DUP OP_HASH160 08bb15b0fa889c0632a710f8e3eb20c90120d7f2 OP_EQUALVERIFY OP_CHECKSIG", "type": "pubkeyhash"}, "value": 0.01147672, "n": 31}, {"scriptPubKey": {"reqSigs": 1, "hex": "a9148f930a67577840dfa36c478d53f7e636b0a9944487", "addresses": ["3EnAhYAssTm6zCCaALJg7SrYBsJ8pyEwWD"], "asm": "OP_HASH160 8f930a67577840dfa36c478d53f7e636b0a99444 OP_EQUAL", "type": "scripthash"}, "value": 0.01098499, "n": 32}], "hex": "0200000000010166b59140a9c683683094a5b27a43cbec611ae88e91fe3a8bd186a56f604e47781300000017160014c8e75ba4789a4036912f3c10e21614dd13ae7c9efeffffff2175e700000000000017a91414bdf8c527621b350af9521916a0d493a340751187702204000000000017a914b98673776cd3057785a26f8ce7f43a1c6ed031d287112304000000000017a91463f8c746dee865889f2c55421f6651c288816e6e87c23606000000000017a914b8f3a81dccf1f2f2b8a310585dcff7d3c7cd90f78710b206000000000017a9149368676c0dacd9e8a5970d84bbd76ff05ada999b8749e21100000000001976a9147e2c58c4256ae6bfef3ed0bc00235861fd6174c688ac02a103000000000017a9147db2580cdba54c25a02440e67ce04cde1cf6113987c8630300000000001976a914353d0155b80a35c7a888b2954f567ab16df801bc88ac20ec07000000000017a9142a1036740913057e807d6e8763c4ef0e6fb1354587e85904000000000017a9144b10c99e4a69105aec9abcb4b6176a1a0f4e7a9587c49507000000000017a91409bf6c5c163887bd1702b7a16839db5563d2a89a87801a0600000000001976a9146d911d18f601772acb04a6392a581732eab5a2b988ac252005000000000017a914b34cdde786fbb31527a4c5013730c2037f53f8d987e09a0f00000000001976a914698629c0c4fd46c537008b46d30024c927a3d8f888ac549f0b000000000017a914e98fd9fb58cf17ba5ff38f9cb89614c62ef29b8987fc8f0e000000000017a914c6a5766d3a7d4477ced369559de79a98d40095dc8719cccf00000000001976a914bee1b574a7445b77bd089843bb4c4ec9107ce05e88ac877003000000000017a914d66ccd632668ce33afb8ec086f7d52cb9af122fc87f81f03860000000017a9149965acb970d7e22cd50a3fe9905fa740b6f9062887c6a403000000000017a9140ad2b5e0aa52904763d3f57f0d5f3d3c66d713138723cf0b000000000017a914af19d599d58f232e0ac9da7d080c16f54a98e7548780380100000000001976a9145afcab8d6d56a3307607582c52b83cd51a0d1edf88ac64e3dd020000000017a9140a89f9b81a10630522dbb160286cbbcecb2560018709bd0000000000001976a914aed9cba77b19605238d188e9a2c30587b818adb688ac08ca05000000000017a9146c633d7ea8367bc7c018c767fbec8ad3c8a4ae0d87e94a13000000000017a9142c4ccb5c928251a82533e14e0bbd73d8393eeb298700bc05000000000017a9149699f62d3acd1f80cae0b2349bfb4342de93cdb187a0ac05000000000017a914867d8e66909179ac0e8efc9bf447f41218509c2787943800000000000017a914d446b81c554d8f4c54123b6c0b5989f00511437f8730230c000000000017a914d9021c75ae6976ebaf774fe2f717c6d99fd9987187801a06000000000017a914454ff6c8ebe6253fe97c0597aae94434dfddd4778718831100000000001976a91408bb15b0fa889c0632a710f8e3eb20c90120d7f288ac03c310000000000017a9148f930a67577840dfa36c478d53f7e636b0a994448702483045022100b4efc45b34aeb4259450962d697ec3d07874b8a87a41afff926740d060b7f24602205710d90404971c288e0bd7983ad3b45035a5029c7314b9fcf6e7cfb55c3fab09012103051a20946a5616aa5fd00335a79f2e4c7eaf1d3291c3143876655cfc2b55c48f10490800", "vin": [{"txinwitness": ["3045022100b4efc45b34aeb4259450962d697ec3d07874b8a87a41afff926740d060b7f24602205710d90404971c288e0bd7983ad3b45035a5029c7314b9fcf6e7cfb55c3fab0901", "03051a20946a5616aa5fd00335a79f2e4c7eaf1d3291c3143876655cfc2b55c48f"], "sequence": 4294967294, "scriptSig": {"hex": "160014c8e75ba4789a4036912f3c10e21614dd13ae7c9e", "asm": "0014c8e75ba4789a4036912f3c10e21614dd13ae7c9e"}, "vout": 19, "txid": "78474e606fa586d18b3afe918ee81a61eccb437ab2a594306883c6a94091b566"}], "txid": "b1a3b80d4a6330103e3ac4a4699314db8a109aaaa6c3e5d92911259dc0cfb470", "blocktime": 1537871767, "version": 2, "confirmations": 11490, "time": 1537871767, "locktime": 542992, "vsize": 1174, "size": 1256}