{"hash": "9e646ce1711cbb06e76c103e5240c1294ce103fccd8107654e2a278fd1e6177f", "blockhash": "0000000000000000001e0dab787dd257d1dbfcb92a98c2207d5e1078be1f4165", "vout": [{"scriptPubKey": {"reqSigs": 1, "hex": "76a9142d7bedbafa2b8b9457a4c1002baabe795f64a32388ac", "addresses": ["159VsM12asDU9WESwiSN1TmpqbUPZGqviJ"], "asm": "OP_DUP OP_HASH160 2d7bedbafa2b8b9457a4c1002baabe795f64a323 OP_EQUALVERIFY OP_CHECKSIG", "type": "pubkeyhash"}, "value": 0.0027536, "n": 0}, {"scriptPubKey": {"reqSigs": 1, "hex": "a914bec49e591f140ad6287d0f8dba5aeb9048c72c0b87", "addresses": ["3K5hrHe6FBHHbYTr3zRBo52NhYAUYjUWnM"], "asm": "OP_HASH160 bec49e591f140ad6287d0f8dba5aeb9048c72c0b OP_EQUAL", "type": "scripthash"}, "value": 0.01002209, "n": 1}], "hex": "0200000000010287411bbf370b413f6c573b6a07490daaa2401274364cbe6a13cc73716a3e0ae90e000000171600145df545f0c70a069cef65ca132d2c6e0063588fb5feffffffcafa218bab4079b0bc2372bd4767817999091f75155668a60df489833117175d0100000017160014f068be7f1333b65906fd5acb4ec8c1c23c8b6899feffffff02a0330400000000001976a9142d7bedbafa2b8b9457a4c1002baabe795f64a32388ace14a0f000000000017a914bec49e591f140ad6287d0f8dba5aeb9048c72c0b8702483045022100e91160e3312b5196d772bb88a6424a2c6ad9f489be7806e7854b38efd3d83423022004e9050f31d74186dd37aac4899cfda4d18c74151cafe5ef14efbc8e68b3156e0121039ffb630e9efbc35faa0401959cd405cf74148b795719c8288cc37147d579eb6b0247304402203d755e192ea5dd7e4294e2f3f93b6158197ed4d8bbbbc4d32124992f68ac218702205ff181d77658dac60e3830f9c16afa61ba79c50d5cfe023fa982b0e2301c444c0121037dd99779c39ae78677d595d7c1c1cc9dc3ab420a9f1daa179b03fc502739141712490800", "vin": [{"txinwitness": ["3045022100e91160e3312b5196d772bb88a6424a2c6ad9f489be7806e7854b38efd3d83423022004e9050f31d74186dd37aac4899cfda4d18c74151cafe5ef14efbc8e68b3156e01", "039ffb630e9efbc35faa0401959cd405cf74148b795719c8288cc37147d579eb6b"], "sequence": 4294967294, "scriptSig": {"hex": "1600145df545f0c70a069cef65ca132d2c6e0063588fb5", "asm": "00145df545f0c70a069cef65ca132d2c6e0063588fb5"}, "vout": 14, "txid": "e90a3e6a7173cc136abe4c36741240a2aa0d49076a3b576c3f410b37bf1b4187"}, {"txinwitness": ["304402203d755e192ea5dd7e4294e2f3f93b6158197ed4d8bbbbc4d32124992f68ac218702205ff181d77658dac60e3830f9c16afa61ba79c50d5cfe023fa982b0e2301c444c01", "037dd99779c39ae78677d595d7c1c1cc9dc3ab420a9f1daa179b03fc5027391417"], "sequence": 4294967294, "scriptSig": {"hex": "160014f068be7f1333b65906fd5acb4ec8c1c23c8b6899", "asm": "0014f068be7f1333b65906fd5acb4ec8c1c23c8b6899"}, "vout": 1, "txid": "5d1717318389f40da6685615751f099979816747bd7223bcb07940ab8b21faca"}], "txid": "b1a8d3f410f45dc2bb0c6ab2ac04006d91e64eb9e44035142600d1295256890d", "blocktime": 1537872475, "version": 2, "confirmations": 11487, "time": 1537872475, "locktime": 542994, "vsize": 259, "size": 421}