{"hash": "b1aafc87092ec9823f351bda39359ef1f57d882519d5c2f554f30bc1c254dc72", "blockhash": "0000000000000000000dcc0f55137456b1a82d3642486a52398922ac4d620174", "vout": [{"scriptPubKey": {"reqSigs": 1, "hex": "21020e46e79a2a8d12b9b5d12c7a91adb4e454edfae43c0a0cb805427d2ac7613fd9ac", "addresses": ["1P3rU1Nk1pmc2BiWC8dEy9bZa1ZbMp5jfg"], "asm": "020e46e79a2a8d12b9b5d12c7a91adb4e454edfae43c0a0cb805427d2ac7613fd9 OP_CHECKSIG", "type": "pubkey"}, "value": 0.000988, "n": 0}, {"scriptPubKey": {"type": "nulldata", "hex": "6a2840682b5374d5704ed7be759efbd6ee4a7b467f98fe1013745696064602000000caa30f004b4d4400", "asm": "OP_RETURN 40682b5374d5704ed7be759efbd6ee4a7b467f98fe1013745696064602000000caa30f004b4d4400"}, "value": 0.0, "n": 1}], "hex": "010000000d4feaa026277708c4eccc6278b66de0bc514508bacc3b418dce636273d112b5ac0400000049483045022100f7b70ae8fec986a24251c16f0d36d48c7f051fe482d7ddfd1860d5229543047b02207f71321298de258da917701b360a837ced65c268ef44a92b64b09706d850bfe401ffffffff00533f45f2114826b84aad73faf53c925debcba930841a3044c7c9087497ee4c0b0000004847304402201be4a3c83e6655e196eff36269449e50d901f50df132cefba2058f03b39470980220703ac907326c7fce6ad18f92cc76ff7356ce5f0f57cb191804168d78edf5c75b01ffffffff0e78e22c5eda4b2b73396935733b588fbeab9a77cc0743bdf44103965bd20aea0200000049483045022100fa75268ffad39fd4b4ccb4996fc9282e5c8341281f3e8da256c5adf6cadf1a2f022045db4b28c2973c2a95d05286c28b2157b20bd461b598244476109338addee77101ffffffff4cc7d91317e92a706f49a227aac69bf68d81d84972154b8b1753a7d1b2e3d690000000004847304402207018a6307051fb5629e88513abc5b62461a664ec1b6ec8d74ecb1ccbcb75aa56022073e5e4cd2c2b4996a7fd29015e591ee2361daaba4641a66fe71b8c197068478101ffffffffec94729556b38da60860fb0bff65a510a70e4f14a26ce6fe1353d299de5760ac0400000048473044022027c305c32905b85993570cb537a5952f7a640e11f56a2d013fc2fad917eac8490220401fcd83c5eefc86fb369e0480d319bd74ed40f9e669288061c40d1299c73bc601fffffffffc9ba16bfd77f98bd9d91bb9f2576d4978f5f961141adf3a6c74e38331f2ea9910000000484730440220325ba0642cbd431008bcff9c68157e3c16f4603df813c4bc9968111bd271b37502202d7efe7502f0d287aa2d730c4fd8fbb3865dad8e7507b2587468620d7a99c83001ffffffff6f11c91d50af68f8b4cb55eef0afb5b53380d2426b6be924bca4aa6e7158438b030000004948304502210083511ed20fcf30d66bf154ae5610083ec3d352031e7d39e4fce322e61b1f0e98022059524ff9ab53c2b77ed5791498b3a71361d9330948d2874bb435e252613dc70301ffffffffe0b915302b850dd587a409a7fa470fa5d56cc3226a7a2fa60176c70b15ae1da82c000000484730440220231df88b24d872dcb730d9442c77a2c19aa97940687125a85901e7933b1d720b022078e007750c7287f4806ad1133c346e71c075fe60e32ecb52871f87c43d3ad92901ffffffff33f584267a487a22a939249f5539249d638140e24298debb3925dd15c693ac4d1b00000049483045022100b1f7fa3197b1fac36749e5bab36aed63e211448311a624efe289cdcdf2f0308902200a0396a80948a17179d9181f17e7c408a3992d7584b8448007b6c9aefab289a901ffffffff84557df324ddbdb432a441ea27b9574f2483fa66a23546c034600d40e6cd0ed60f00000049483045022100b66715d0edb3a2424f0ca07dbbd8f29571c8d3ed0111ecd8554381d1c7babf31022008bbc5d5ccbf5b256875f5feac7396ca0a3c7eea4720479e20331336df4baa0d01ffffffffba5a40f44e1d621fee3cf5955636dcf318a491676f68af82bf1faa0ea74588731300000049483045022100fcfa5da50a9befa9a8f559ad5688ad44578ade221f156cad273c4f745374783a02202750ddacf1a1c35d54653e8fefd9b202fa6f84c4e377ed14f3117afb26ade65f01ffffffffab3f531f71e63ec86166f76aab83ab7a0f30a4711220040d3340e16592f0681b010000004847304402200dbe32b27c7603ca5afcdb20206458b5c11bd26854bceef1a2ea18f6129ebaa502201db181ec8dec16c88905b972e7c1d516e6436f9daea02b9d9aaaeba96fe38d2201ffffffffecc01008f1a4557ab8f8267846f276493ff544bd017dbdbf245a06a50bc366e31200000049483045022100a83b1a6431a87ebd7d8beaeac2b5575961bb3e126eb0c834a864e10f8a9e18dc0220646b2b07abaa1f84bb28bcb7b14cf86c1b8d7d6cc1ad0f14c4dbc53382c745f901ffffffff02f0810100000000002321020e46e79a2a8d12b9b5d12c7a91adb4e454edfae43c0a0cb805427d2ac7613fd9ac00000000000000002a6a2840682b5374d5704ed7be759efbd6ee4a7b467f98fe1013745696064602000000caa30f004b4d440000000000", "vin": [{"sequence": 4294967295, "scriptSig": {"hex": "483045022100f7b70ae8fec986a24251c16f0d36d48c7f051fe482d7ddfd1860d5229543047b02207f71321298de258da917701b360a837ced65c268ef44a92b64b09706d850bfe401", "asm": "3045022100f7b70ae8fec986a24251c16f0d36d48c7f051fe482d7ddfd1860d5229543047b02207f71321298de258da917701b360a837ced65c268ef44a92b64b09706d850bfe4[ALL]"}, "vout": 4, "txid": "acb512d1736263ce8d413bccba084551bce06db67862ccecc408772726a0ea4f"}, {"sequence": 4294967295, "scriptSig": {"hex": "47304402201be4a3c83e6655e196eff36269449e50d901f50df132cefba2058f03b39470980220703ac907326c7fce6ad18f92cc76ff7356ce5f0f57cb191804168d78edf5c75b01", "asm": "304402201be4a3c83e6655e196eff36269449e50d901f50df132cefba2058f03b39470980220703ac907326c7fce6ad18f92cc76ff7356ce5f0f57cb191804168d78edf5c75b[ALL]"}, "vout": 11, "txid": "4cee977408c9c744301a8430a9cbeb5d923cf5fa73ad4ab8264811f2453f5300"}, {"sequence": 4294967295, "scriptSig": {"hex": "483045022100fa75268ffad39fd4b4ccb4996fc9282e5c8341281f3e8da256c5adf6cadf1a2f022045db4b28c2973c2a95d05286c28b2157b20bd461b598244476109338addee77101", "asm": "3045022100fa75268ffad39fd4b4ccb4996fc9282e5c8341281f3e8da256c5adf6cadf1a2f022045db4b28c2973c2a95d05286c28b2157b20bd461b598244476109338addee771[ALL]"}, "vout": 2, "txid": "ea0ad25b960341f4bd4307cc779aabbe8f583b73356939732b4bda5e2ce2780e"}, {"sequence": 4294967295, "scriptSig": {"hex": "47304402207018a6307051fb5629e88513abc5b62461a664ec1b6ec8d74ecb1ccbcb75aa56022073e5e4cd2c2b4996a7fd29015e591ee2361daaba4641a66fe71b8c197068478101", "asm": "304402207018a6307051fb5629e88513abc5b62461a664ec1b6ec8d74ecb1ccbcb75aa56022073e5e4cd2c2b4996a7fd29015e591ee2361daaba4641a66fe71b8c1970684781[ALL]"}, "vout": 0, "txid": "90d6e3b2d1a753178b4b157249d8818df69bc6aa27a2496f702ae91713d9c74c"}, {"sequence": 4294967295, "scriptSig": {"hex": "473044022027c305c32905b85993570cb537a5952f7a640e11f56a2d013fc2fad917eac8490220401fcd83c5eefc86fb369e0480d319bd74ed40f9e669288061c40d1299c73bc601", "asm": "3044022027c305c32905b85993570cb537a5952f7a640e11f56a2d013fc2fad917eac8490220401fcd83c5eefc86fb369e0480d319bd74ed40f9e669288061c40d1299c73bc6[ALL]"}, "vout": 4, "txid": "ac6057de99d25313fee66ca2144f0ea710a565ff0bfb6008a68db356957294ec"}, {"sequence": 4294967295, "scriptSig": {"hex": "4730440220325ba0642cbd431008bcff9c68157e3c16f4603df813c4bc9968111bd271b37502202d7efe7502f0d287aa2d730c4fd8fbb3865dad8e7507b2587468620d7a99c83001", "asm": "30440220325ba0642cbd431008bcff9c68157e3c16f4603df813c4bc9968111bd271b37502202d7efe7502f0d287aa2d730c4fd8fbb3865dad8e7507b2587468620d7a99c830[ALL]"}, "vout": 16, "txid": "99eaf23183e3746c3adf1a1461f9f578496d57f2b91bd9d98bf977fd6ba19bfc"}, {"sequence": 4294967295, "scriptSig": {"hex": "48304502210083511ed20fcf30d66bf154ae5610083ec3d352031e7d39e4fce322e61b1f0e98022059524ff9ab53c2b77ed5791498b3a71361d9330948d2874bb435e252613dc70301", "asm": "304502210083511ed20fcf30d66bf154ae5610083ec3d352031e7d39e4fce322e61b1f0e98022059524ff9ab53c2b77ed5791498b3a71361d9330948d2874bb435e252613dc703[ALL]"}, "vout": 3, "txid": "8b4358716eaaa4bc24e96b6b42d28033b5b5aff0ee55cbb4f868af501dc9116f"}, {"sequence": 4294967295, "scriptSig": {"hex": "4730440220231df88b24d872dcb730d9442c77a2c19aa97940687125a85901e7933b1d720b022078e007750c7287f4806ad1133c346e71c075fe60e32ecb52871f87c43d3ad92901", "asm": "30440220231df88b24d872dcb730d9442c77a2c19aa97940687125a85901e7933b1d720b022078e007750c7287f4806ad1133c346e71c075fe60e32ecb52871f87c43d3ad929[ALL]"}, "vout": 44, "txid": "a81dae150bc77601a62f7a6a22c36cd5a50f47faa709a487d50d852b3015b9e0"}, {"sequence": 4294967295, "scriptSig": {"hex": "483045022100b1f7fa3197b1fac36749e5bab36aed63e211448311a624efe289cdcdf2f0308902200a0396a80948a17179d9181f17e7c408a3992d7584b8448007b6c9aefab289a901", "asm": "3045022100b1f7fa3197b1fac36749e5bab36aed63e211448311a624efe289cdcdf2f0308902200a0396a80948a17179d9181f17e7c408a3992d7584b8448007b6c9aefab289a9[ALL]"}, "vout": 27, "txid": "4dac93c615dd2539bbde9842e24081639d2439559f2439a9227a487a2684f533"}, {"sequence": 4294967295, "scriptSig": {"hex": "483045022100b66715d0edb3a2424f0ca07dbbd8f29571c8d3ed0111ecd8554381d1c7babf31022008bbc5d5ccbf5b256875f5feac7396ca0a3c7eea4720479e20331336df4baa0d01", "asm": "3045022100b66715d0edb3a2424f0ca07dbbd8f29571c8d3ed0111ecd8554381d1c7babf31022008bbc5d5ccbf5b256875f5feac7396ca0a3c7eea4720479e20331336df4baa0d[ALL]"}, "vout": 15, "txid": "d60ecde6400d6034c04635a266fa83244f57b927ea41a432b4bddd24f37d5584"}, {"sequence": 4294967295, "scriptSig": {"hex": "483045022100fcfa5da50a9befa9a8f559ad5688ad44578ade221f156cad273c4f745374783a02202750ddacf1a1c35d54653e8fefd9b202fa6f84c4e377ed14f3117afb26ade65f01", "asm": "3045022100fcfa5da50a9befa9a8f559ad5688ad44578ade221f156cad273c4f745374783a02202750ddacf1a1c35d54653e8fefd9b202fa6f84c4e377ed14f3117afb26ade65f[ALL]"}, "vout": 19, "txid": "738845a70eaa1fbf82af686f6791a418f3dc365695f53cee1f621d4ef4405aba"}, {"sequence": 4294967295, "scriptSig": {"hex": "47304402200dbe32b27c7603ca5afcdb20206458b5c11bd26854bceef1a2ea18f6129ebaa502201db181ec8dec16c88905b972e7c1d516e6436f9daea02b9d9aaaeba96fe38d2201", "asm": "304402200dbe32b27c7603ca5afcdb20206458b5c11bd26854bceef1a2ea18f6129ebaa502201db181ec8dec16c88905b972e7c1d516e6436f9daea02b9d9aaaeba96fe38d22[ALL]"}, "vout": 1, "txid": "1b68f09265e140330d04201271a4300f7aab83ab6af76661c83ee6711f533fab"}, {"sequence": 4294967295, "scriptSig": {"hex": "483045022100a83b1a6431a87ebd7d8beaeac2b5575961bb3e126eb0c834a864e10f8a9e18dc0220646b2b07abaa1f84bb28bcb7b14cf86c1b8d7d6cc1ad0f14c4dbc53382c745f901", "asm": "3045022100a83b1a6431a87ebd7d8beaeac2b5575961bb3e126eb0c834a864e10f8a9e18dc0220646b2b07abaa1f84bb28bcb7b14cf86c1b8d7d6cc1ad0f14c4dbc53382c745f9[ALL]"}, "vout": 18, "txid": "e366c30ba5065a24bfbd7d01bd44f53f4976f2467826f8b87a55a4f10810c0ec"}], "txid": "b1aafc87092ec9823f351bda39359ef1f57d882519d5c2f554f30bc1c254dc72", "blocktime": 1537870268, "version": 1, "confirmations": 11516, "time": 1537870268, "locktime": 0, "vsize": 1581, "size": 1581}