{"hash": "93f99745defcd78e4bb68e2d25309d72a7fbcbafdfbf09344386e14ccadcdff9", "blockhash": "0000000000000000000baef3f32e3676a92c3b2e5da21b426e4f302fc371ce76", "vout": [{"scriptPubKey": {"reqSigs": 1, "hex": "76a91482ab7c75f117cfdbfaa7fbb488b148aaecda561d88ac", "addresses": ["1CuvH1N3Hw67GDrYBU6E8M9GjQduoSrG7V"], "asm": "OP_DUP OP_HASH160 82ab7c75f117cfdbfaa7fbb488b148aaecda561d OP_EQUALVERIFY OP_CHECKSIG", "type": "pubkeyhash"}, "value": 0.0064741, "n": 0}, {"scriptPubKey": {"reqSigs": 1, "hex": "a914c3aac73b19a6df3a3a68ef69a8e9f79c8dff9a9c87", "addresses": ["3KXcGqASXznMituPhPnV7BkSc6CHZRLykC"], "asm": "OP_HASH160 c3aac73b19a6df3a3a68ef69a8e9f79c8dff9a9c OP_EQUAL", "type": "scripthash"}, "value": 0.01706586, "n": 1}], "hex": "010000000001037c3a4695a0d78beb777d1e16df8d4ed4aea2b9378d3636b78383ad36241c620101000000232200200b5c15b2a266c1fd9e615145cf3cd379109fe761c2844ebebbc12b381bddc9faffffffffbcdbcdadcf152b124a8790f108a6fe4fe6b8b178b5e594a28f1a5e82c2287c6101000000232200200b5c15b2a266c1fd9e615145cf3cd379109fe761c2844ebebbc12b381bddc9faffffffff69b8636d74db133316ab79ab28ee3b3dafc1a52293bd8b4e030b19e3a255eac901000000232200200b5c15b2a266c1fd9e615145cf3cd379109fe761c2844ebebbc12b381bddc9faffffffff02f2e00900000000001976a91482ab7c75f117cfdbfaa7fbb488b148aaecda561d88ac5a0a1a000000000017a914c3aac73b19a6df3a3a68ef69a8e9f79c8dff9a9c8704004730440220072116114b94411bc64fd476e907799293081619d2a132064b5e8e6b465d34b902200f99b5c61230d62347f0fc0c1be685520c93504ae6faf8b38a6e530c9bc1311b01483045022100b54e674123b0550590a138497d8c02b732c39657d4d4616e925a654b94ba917402205de4b79458403c5951d467548161d0b776d12dcf11de62d60e60fc3d16b0cfe10147522102b590b6826675da568b914aa494372424b69f5fe06067fd7fa568cc41070c8e6b21024c55499905a522129124e75484b7ddea868aee9a7f01d75add901db6cf9b589f52ae040047304402202eb297d08bd179dfc3e1970bb95e1bb7610f03309c486bac960125ca2069f00f0220367b54147ea53c26ccc7bf296d25a69d2f16bd613649e1c330d78ce92437e14701483045022100ad691954dc1ad613a4b2337b3ea91b94563bdbbfefe3cb76f4732d145f12488b022004408e7258e48f150aed7578fb2fc7cabcd6825394d3ddb1195ed15256a992360147522102b590b6826675da568b914aa494372424b69f5fe06067fd7fa568cc41070c8e6b21024c55499905a522129124e75484b7ddea868aee9a7f01d75add901db6cf9b589f52ae04004830450221009ffa4ad6c82ca04627bb478ee2751e9f644e658cfb05296bdcd5b14cc3dd5d9102206d2e13679e430c9fad4e53d69455083bf2c7e338cafc2036614cbda49466e88e01483045022100d47cc648029e5b6c0ce6d8c9ec0b3b4829bc1fadc6f9155880377fca27467a2502200b078842f4c6708338580ff0907885a0d8a51dc76417f91d5a9c74b801b167090147522102b590b6826675da568b914aa494372424b69f5fe06067fd7fa568cc41070c8e6b21024c55499905a522129124e75484b7ddea868aee9a7f01d75add901db6cf9b589f52ae00000000", "vin": [{"txinwitness": ["", "30440220072116114b94411bc64fd476e907799293081619d2a132064b5e8e6b465d34b902200f99b5c61230d62347f0fc0c1be685520c93504ae6faf8b38a6e530c9bc1311b01", "3045022100b54e674123b0550590a138497d8c02b732c39657d4d4616e925a654b94ba917402205de4b79458403c5951d467548161d0b776d12dcf11de62d60e60fc3d16b0cfe101", "522102b590b6826675da568b914aa494372424b69f5fe06067fd7fa568cc41070c8e6b21024c55499905a522129124e75484b7ddea868aee9a7f01d75add901db6cf9b589f52ae"], "sequence": 4294967295, "scriptSig": {"hex": "2200200b5c15b2a266c1fd9e615145cf3cd379109fe761c2844ebebbc12b381bddc9fa", "asm": "00200b5c15b2a266c1fd9e615145cf3cd379109fe761c2844ebebbc12b381bddc9fa"}, "vout": 1, "txid": "01621c2436ad8383b736368d37b9a2aed44e8ddf161e7d77eb8bd7a095463a7c"}, {"txinwitness": ["", "304402202eb297d08bd179dfc3e1970bb95e1bb7610f03309c486bac960125ca2069f00f0220367b54147ea53c26ccc7bf296d25a69d2f16bd613649e1c330d78ce92437e14701", "3045022100ad691954dc1ad613a4b2337b3ea91b94563bdbbfefe3cb76f4732d145f12488b022004408e7258e48f150aed7578fb2fc7cabcd6825394d3ddb1195ed15256a9923601", "522102b590b6826675da568b914aa494372424b69f5fe06067fd7fa568cc41070c8e6b21024c55499905a522129124e75484b7ddea868aee9a7f01d75add901db6cf9b589f52ae"], "sequence": 4294967295, "scriptSig": {"hex": "2200200b5c15b2a266c1fd9e615145cf3cd379109fe761c2844ebebbc12b381bddc9fa", "asm": "00200b5c15b2a266c1fd9e615145cf3cd379109fe761c2844ebebbc12b381bddc9fa"}, "vout": 1, "txid": "617c28c2825e1a8fa294e5b578b1b8e64ffea608f190874a122b15cfadcddbbc"}, {"txinwitness": ["", "30450221009ffa4ad6c82ca04627bb478ee2751e9f644e658cfb05296bdcd5b14cc3dd5d9102206d2e13679e430c9fad4e53d69455083bf2c7e338cafc2036614cbda49466e88e01", "3045022100d47cc648029e5b6c0ce6d8c9ec0b3b4829bc1fadc6f9155880377fca27467a2502200b078842f4c6708338580ff0907885a0d8a51dc76417f91d5a9c74b801b1670901", "522102b590b6826675da568b914aa494372424b69f5fe06067fd7fa568cc41070c8e6b21024c55499905a522129124e75484b7ddea868aee9a7f01d75add901db6cf9b589f52ae"], "sequence": 4294967295, "scriptSig": {"hex": "2200200b5c15b2a266c1fd9e615145cf3cd379109fe761c2844ebebbc12b381bddc9fa", "asm": "00200b5c15b2a266c1fd9e615145cf3cd379109fe761c2844ebebbc12b381bddc9fa"}, "vout": 1, "txid": "c9ea55a2e3190b034e8bbd9322a5c1af3d3bee28ab79ab163313db746d63b869"}], "txid": "b1b4550e30c3f381c7fc5b3880c448c9be13ba60b7d5c299ed4a8223e19d2edc", "blocktime": 1537876114, "version": 1, "confirmations": 11459, "time": 1537876114, "locktime": 0, "vsize": 469, "size": 964}