{"hash": "b1b73bda13ca2fe2305a203d87eec8dd3f35cc9f64bb498640b077396579248b", "blockhash": "0000000000000000000baef3f32e3676a92c3b2e5da21b426e4f302fc371ce76", "vout": [{"scriptPubKey": {"type": "nulldata", "hex": "6a146f6d6e69000000000000001f00000001283c2e80", "asm": "OP_RETURN 6f6d6e69000000000000001f00000001283c2e80"}, "value": 0.0, "n": 0}, {"scriptPubKey": {"reqSigs": 1, "hex": "76a91488d924f51033b74a895863a5fb57fd545529df7d88ac", "addresses": ["1DUb2YYbQA1jjaNYzVXLZ7ZioEhLXtbUru"], "asm": "OP_DUP OP_HASH160 88d924f51033b74a895863a5fb57fd545529df7d OP_EQUALVERIFY OP_CHECKSIG", "type": "pubkeyhash"}, "value": 5.46e-06, "n": 1}, {"scriptPubKey": {"reqSigs": 1, "hex": "76a914916475a8f2e92489796e6d682c167374a52ef1c888ac", "addresses": ["1EFmKsYUsSChHNwMddsKgx4s5Yjbm13JUz"], "asm": "OP_DUP OP_HASH160 916475a8f2e92489796e6d682c167374a52ef1c8 OP_EQUALVERIFY OP_CHECKSIG", "type": "pubkeyhash"}, "value": 0.00495957, "n": 2}], "hex": "01000000017649e4973d5ebc685de850290be0967449c748218f6ea515af1221e4841e451b000000006a473044022038cc5d92f0aafc0595c6da15456aab6de4db06f47fe0fd0409d4a285e543b5bc022079bef6bf8e4e5b7292a326c31f4a287248d90ebf1562516b6779c151c79df461012103d4fdb0b8b5bcc013d31142bc1301dd00869c8a594776f4064ad330ae9b41bcd2feffffff030000000000000000166a146f6d6e69000000000000001f00000001283c2e8022020000000000001976a91488d924f51033b74a895863a5fb57fd545529df7d88ac55910700000000001976a914916475a8f2e92489796e6d682c167374a52ef1c888ac17490800", "vin": [{"sequence": 4294967294, "scriptSig": {"hex": "473044022038cc5d92f0aafc0595c6da15456aab6de4db06f47fe0fd0409d4a285e543b5bc022079bef6bf8e4e5b7292a326c31f4a287248d90ebf1562516b6779c151c79df461012103d4fdb0b8b5bcc013d31142bc1301dd00869c8a594776f4064ad330ae9b41bcd2", "asm": "3044022038cc5d92f0aafc0595c6da15456aab6de4db06f47fe0fd0409d4a285e543b5bc022079bef6bf8e4e5b7292a326c31f4a287248d90ebf1562516b6779c151c79df461[ALL] 03d4fdb0b8b5bcc013d31142bc1301dd00869c8a594776f4064ad330ae9b41bcd2"}, "vout": 0, "txid": "1b451e84e42112af15a56e8f2148c7497496e00b2950e85d68bc5e3d97e44976"}], "txid": "b1b73bda13ca2fe2305a203d87eec8dd3f35cc9f64bb498640b077396579248b", "blocktime": 1537876114, "version": 1, "confirmations": 11459, "time": 1537876114, "locktime": 542999, "vsize": 256, "size": 256}