{"hash": "b1b8f8a94e8a940b0d341795f77f7b09a56af680d7223965212eefd39fdfff70", "blockhash": "00000000000000000017f5eb5941039fbcee6240d03bc1f2f8e35350df66a1d8", "vout": [{"scriptPubKey": {"reqSigs": 1, "hex": "a91482fb34ae681478fb3cf370e8d59d6847e927aae487", "addresses": ["3DdahZmMgUpQZP7oX7aeD1KjjBkdUoPBEy"], "asm": "OP_HASH160 82fb34ae681478fb3cf370e8d59d6847e927aae4 OP_EQUAL", "type": "scripthash"}, "value": 0.01010272, "n": 0}], "hex": "01000000016ec607cda0a4203339bcc1eedb149c091e6232e44da89997dc4c0c98860d1596000000006b483045022100885fba40758d2a7f17a8e396f5cf53654c04f58dcbde2ab5ff4c4c56aff30306022004f18f52be696344f76fbb877664722b100f348d196f413d8f5c6fb1392434020121031aa77a8262f7f8571ac1493392075736e9aec30dfe135569f97d8a64eed3ede5ffffffff01606a0f000000000017a91482fb34ae681478fb3cf370e8d59d6847e927aae48700000000", "vin": [{"sequence": 4294967295, "scriptSig": {"hex": "483045022100885fba40758d2a7f17a8e396f5cf53654c04f58dcbde2ab5ff4c4c56aff30306022004f18f52be696344f76fbb877664722b100f348d196f413d8f5c6fb1392434020121031aa77a8262f7f8571ac1493392075736e9aec30dfe135569f97d8a64eed3ede5", "asm": "3045022100885fba40758d2a7f17a8e396f5cf53654c04f58dcbde2ab5ff4c4c56aff30306022004f18f52be696344f76fbb877664722b100f348d196f413d8f5c6fb139243402[ALL] 031aa77a8262f7f8571ac1493392075736e9aec30dfe135569f97d8a64eed3ede5"}, "vout": 0, "txid": "96150d86980c4cdc9799a84de432621e099c14dbeec1bc393320a4a0cd07c66e"}], "txid": "b1b8f8a94e8a940b0d341795f77f7b09a56af680d7223965212eefd39fdfff70", "blocktime": 1537874412, "version": 1, "confirmations": 11467, "time": 1537874412, "locktime": 0, "vsize": 190, "size": 190}