{"hash": "b1b9439ebd580775897cd1e77ce10fda4c0b1a47554ac1d87eb7749045e0a204", "blockhash": "0000000000000000001e0dab787dd257d1dbfcb92a98c2207d5e1078be1f4165", "vout": [{"scriptPubKey": {"reqSigs": 1, "hex": "76a91464b48ea7eb90ea0a70433290a637ad8b5a3f4d8988ac", "addresses": ["1ABUsXCbpJ8aDy1QnjCmehGUUyKUrVYpSR"], "asm": "OP_DUP OP_HASH160 64b48ea7eb90ea0a70433290a637ad8b5a3f4d89 OP_EQUALVERIFY OP_CHECKSIG", "type": "pubkeyhash"}, "value": 0.00641916, "n": 0}, {"scriptPubKey": {"type": "nulldata", "hex": "6a4c50000077b80001d8782b4521fa6c105ee2d4e1e5bf9ae76da98a211aaf6c953dd567cf27e7687699f44b3929a18b4d3e54c8cd77e05baa11ea061244bbaf03be301d100759d4ba30d2c37bb011d97e02cf", "asm": "OP_RETURN 000077b80001d8782b4521fa6c105ee2d4e1e5bf9ae76da98a211aaf6c953dd567cf27e7687699f44b3929a18b4d3e54c8cd77e05baa11ea061244bbaf03be301d100759d4ba30d2c37bb011d97e02cf"}, "value": 0.0, "n": 1}], "hex": "0100000001681c848843616961abba269c93cc1ae57454f9dd2a5bfaa3a4cec14b6cee221a010000006a4730440220283019c7b315d60ee3eaba795f1d9f6ea82ce4366ccf505637ebc49fa6a48b4e02207c2dc4604852897d884a26f78ea93adf1cf8ed196ff896272601fb67da6b9c64012103513f266a5597533be0cff53bd5aad6cc408ee5cfd4e219647c7b2b4b96d13a5cffffffff027ccb0900000000001976a91464b48ea7eb90ea0a70433290a637ad8b5a3f4d8988ac0000000000000000536a4c50000077b80001d8782b4521fa6c105ee2d4e1e5bf9ae76da98a211aaf6c953dd567cf27e7687699f44b3929a18b4d3e54c8cd77e05baa11ea061244bbaf03be301d100759d4ba30d2c37bb011d97e02cf00000000", "vin": [{"sequence": 4294967295, "scriptSig": {"hex": "4730440220283019c7b315d60ee3eaba795f1d9f6ea82ce4366ccf505637ebc49fa6a48b4e02207c2dc4604852897d884a26f78ea93adf1cf8ed196ff896272601fb67da6b9c64012103513f266a5597533be0cff53bd5aad6cc408ee5cfd4e219647c7b2b4b96d13a5c", "asm": "30440220283019c7b315d60ee3eaba795f1d9f6ea82ce4366ccf505637ebc49fa6a48b4e02207c2dc4604852897d884a26f78ea93adf1cf8ed196ff896272601fb67da6b9c64[ALL] 03513f266a5597533be0cff53bd5aad6cc408ee5cfd4e219647c7b2b4b96d13a5c"}, "vout": 1, "txid": "1a22ee6c4bc1cea4a3fa5b2addf95474e51acc939c26baab6169614388841c68"}], "txid": "b1b9439ebd580775897cd1e77ce10fda4c0b1a47554ac1d87eb7749045e0a204", "blocktime": 1537872475, "version": 1, "confirmations": 11486, "time": 1537872475, "locktime": 0, "vsize": 283, "size": 283}