{"hash": "b1c3d7918f3a19a1021a1a0536bbc392e2772f26343106a80659e7d34ac8adcc", "blockhash": "0000000000000000001cda96e906b7601b7a6fb1a3b62bca570a9e5d8f4b3de1", "vout": [{"scriptPubKey": {"reqSigs": 1, "hex": "a9141ef55e8a2887f688c30b41c65455519574f9e19c87", "addresses": ["34Wi8rcY7CduF7RM8FaYqGTsuD2Lg8ZWBc"], "asm": "OP_HASH160 1ef55e8a2887f688c30b41c65455519574f9e19c OP_EQUAL", "type": "scripthash"}, "value": 0.1413371, "n": 0}], "hex": "0100000004dcc03f2baf6de0e96dd97d257a1ffcfc5c3f22d1288e5d1ce55fb530f8b0ab51000000006b483045022100be954d6a4c1b66266f4d01f6e24c923176e445388c3bd5c6ee733db8a402a73e0220705de6136b9a82c652fbf98263a201453d44c66b403923b54f70cae5664f8130012103e2580f9c5dee7dd874ed671b01fa54ff58535f1a449cae78e08a24e6b23c4127ffffffff9b918f55398647faaf9cc5e8c538f20bdd6efd41be58d225c2565ca90df51077040000006a47304402205f807dfb368934d59e441cd040bf259e0361848257ed16d1ba1c56cb64b1840a02200c8ade78fdcb79dc3882caf51aa99ef75016bc25d2f04dc678300ee9ae3d53b7012102335e9372e5e3893d8f7124f31e9d6b97a001782b0727fa8d8747b30d40d6ed27ffffffffb7ec3608b9cc89f955fb5102e570799e8671bb0a66aea303c1b65fd196db7094000000006a473044022007313087ac3f26b777b32577aa766136871c331483e9d65166516ad2496adf7f02206559cbaf1b8bd29883e16196d3290ad4b6f9d7c8e19ab09aca15d1143b7dc6f9012102087f8942263ca78b1dca1c5df03bb210ce203c300df597fba561c27b7dee7cd9ffffffff0127929dd3e0f0d4651860e36a3cd3739252efa3d4d7b00b5049fff81de529ec000000006a473044022069c6b491af392d34a367c3765367c0867c477456b241ddd6e8043af3657d07060220360460bec0a0d7fd82c068cad6d7143ff8cc5601a2268f5a6421b2644d463a41012103e2580f9c5dee7dd874ed671b01fa54ff58535f1a449cae78e08a24e6b23c4127ffffffff01cea9d7000000000017a9141ef55e8a2887f688c30b41c65455519574f9e19c8700000000", "vin": [{"sequence": 4294967295, "scriptSig": {"hex": "483045022100be954d6a4c1b66266f4d01f6e24c923176e445388c3bd5c6ee733db8a402a73e0220705de6136b9a82c652fbf98263a201453d44c66b403923b54f70cae5664f8130012103e2580f9c5dee7dd874ed671b01fa54ff58535f1a449cae78e08a24e6b23c4127", "asm": "3045022100be954d6a4c1b66266f4d01f6e24c923176e445388c3bd5c6ee733db8a402a73e0220705de6136b9a82c652fbf98263a201453d44c66b403923b54f70cae5664f8130[ALL] 03e2580f9c5dee7dd874ed671b01fa54ff58535f1a449cae78e08a24e6b23c4127"}, "vout": 0, "txid": "51abb0f830b55fe51c5d8e28d1223f5cfcfc1f7a257dd96de9e06daf2b3fc0dc"}, {"sequence": 4294967295, "scriptSig": {"hex": "47304402205f807dfb368934d59e441cd040bf259e0361848257ed16d1ba1c56cb64b1840a02200c8ade78fdcb79dc3882caf51aa99ef75016bc25d2f04dc678300ee9ae3d53b7012102335e9372e5e3893d8f7124f31e9d6b97a001782b0727fa8d8747b30d40d6ed27", "asm": "304402205f807dfb368934d59e441cd040bf259e0361848257ed16d1ba1c56cb64b1840a02200c8ade78fdcb79dc3882caf51aa99ef75016bc25d2f04dc678300ee9ae3d53b7[ALL] 02335e9372e5e3893d8f7124f31e9d6b97a001782b0727fa8d8747b30d40d6ed27"}, "vout": 4, "txid": "7710f50da95c56c225d258be41fd6edd0bf238c5e8c59caffa478639558f919b"}, {"sequence": 4294967295, "scriptSig": {"hex": "473044022007313087ac3f26b777b32577aa766136871c331483e9d65166516ad2496adf7f02206559cbaf1b8bd29883e16196d3290ad4b6f9d7c8e19ab09aca15d1143b7dc6f9012102087f8942263ca78b1dca1c5df03bb210ce203c300df597fba561c27b7dee7cd9", "asm": "3044022007313087ac3f26b777b32577aa766136871c331483e9d65166516ad2496adf7f02206559cbaf1b8bd29883e16196d3290ad4b6f9d7c8e19ab09aca15d1143b7dc6f9[ALL] 02087f8942263ca78b1dca1c5df03bb210ce203c300df597fba561c27b7dee7cd9"}, "vout": 0, "txid": "9470db96d15fb6c103a3ae660abb71869e7970e50251fb55f989ccb90836ecb7"}, {"sequence": 4294967295, "scriptSig": {"hex": "473044022069c6b491af392d34a367c3765367c0867c477456b241ddd6e8043af3657d07060220360460bec0a0d7fd82c068cad6d7143ff8cc5601a2268f5a6421b2644d463a41012103e2580f9c5dee7dd874ed671b01fa54ff58535f1a449cae78e08a24e6b23c4127", "asm": "3044022069c6b491af392d34a367c3765367c0867c477456b241ddd6e8043af3657d07060220360460bec0a0d7fd82c068cad6d7143ff8cc5601a2268f5a6421b2644d463a41[ALL] 03e2580f9c5dee7dd874ed671b01fa54ff58535f1a449cae78e08a24e6b23c4127"}, "vout": 0, "txid": "ec29e51df8ff49500bb0d7d4a3ef529273d33c6ae3601865d4f0e0d39d922701"}], "txid": "b1c3d7918f3a19a1021a1a0536bbc392e2772f26343106a80659e7d34ac8adcc", "blocktime": 1537873282, "version": 1, "confirmations": 11484, "time": 1537873282, "locktime": 0, "vsize": 631, "size": 631}