{"hash": "de66c47bf123d86dca7d3d5f2c029b0f6735cac76ce6604d0b445a973454d949", "blockhash": "00000000000000000018f53835495a110e01622372bf6ae95dc86f2b0ab887b0", "vout": [{"scriptPubKey": {"reqSigs": 1, "hex": "76a914fd26c7b6d78c7fd3ee304592c84d85cb346119c788ac", "addresses": ["1Q5YR2PpBptLBJ76EAZkfxcrw4Kp2aYW7a"], "asm": "OP_DUP OP_HASH160 fd26c7b6d78c7fd3ee304592c84d85cb346119c7 OP_EQUALVERIFY OP_CHECKSIG", "type": "pubkeyhash"}, "value": 0.02279277, "n": 0}, {"scriptPubKey": {"reqSigs": 1, "hex": "a914414cec0fc72a9410f6836edaf08de1aa3b2a321c87", "addresses": ["37eHzewnAFRR2SVZu8rZM3nBsmuE2XBU7D"], "asm": "OP_HASH160 414cec0fc72a9410f6836edaf08de1aa3b2a321c OP_EQUAL", "type": "scripthash"}, "value": 0.26528296, "n": 1}], "hex": "0100000000010148b88a4ddd8572699c02ba209d5d3fe9b71ed3d3cdb2b9ddf2ef3e21701c635f0100000023220020ce74cde37cfb8dd71d0179287e12fc721ee236ce3c89c2745bcd365b39807eb3ffffffff026dc72200000000001976a914fd26c7b6d78c7fd3ee304592c84d85cb346119c788ac28ca94010000000017a914414cec0fc72a9410f6836edaf08de1aa3b2a321c870400473044022055419b79260931ca62ed42b307ef161a4d3ea810af5ee144d6c4434f4a18cd9102203bda34cf3f6c3f928222499bdeeb8a8dde54ffee72d7e4b21f811a5f375107d001483045022100c037726898097f3c8d649c96d8cce2994223bfad740c20e7aa6068c7fba6ea8f02206905c4618ceed4e852ed994faab807ab421d59df68d021d76b44fadb4ceb2eb50147522103ada901d90d5a76319a60f228e0b1bbc84b1d9a87238550bae5d5d190067b66712103871fc2ca08e6950b38867e8e6a0e94ee625223d3aa0df5c65f414c6d784467e252ae00000000", "vin": [{"txinwitness": ["", "3044022055419b79260931ca62ed42b307ef161a4d3ea810af5ee144d6c4434f4a18cd9102203bda34cf3f6c3f928222499bdeeb8a8dde54ffee72d7e4b21f811a5f375107d001", "3045022100c037726898097f3c8d649c96d8cce2994223bfad740c20e7aa6068c7fba6ea8f02206905c4618ceed4e852ed994faab807ab421d59df68d021d76b44fadb4ceb2eb501", "522103ada901d90d5a76319a60f228e0b1bbc84b1d9a87238550bae5d5d190067b66712103871fc2ca08e6950b38867e8e6a0e94ee625223d3aa0df5c65f414c6d784467e252ae"], "sequence": 4294967295, "scriptSig": {"hex": "220020ce74cde37cfb8dd71d0179287e12fc721ee236ce3c89c2745bcd365b39807eb3", "asm": "0020ce74cde37cfb8dd71d0179287e12fc721ee236ce3c89c2745bcd365b39807eb3"}, "vout": 1, "txid": "5f631c70213eeff2ddb9b2cdd3d31eb7e93f5d9d20ba029c697285dd4d8ab848"}], "txid": "b1c70ac4eaeb2bb83966419b8bc375ab4ad77176143cfc08b729e009a474038b", "blocktime": 1537870928, "version": 1, "confirmations": 11514, "time": 1537870928, "locktime": 0, "vsize": 208, "size": 373}