{"hash": "329c261cfe1e8df92fd353958996a7ebe709994712731a24d70e4ae75deb3874", "blockhash": "0000000000000000001e0dab787dd257d1dbfcb92a98c2207d5e1078be1f4165", "vout": [{"scriptPubKey": {"reqSigs": 1, "hex": "a914027f280b38008f2d9ff3cc947547bd18d8ff0efe87", "addresses": ["31vDbukze4Uzj5UCsgcUJTLDaChmHWGriT"], "asm": "OP_HASH160 027f280b38008f2d9ff3cc947547bd18d8ff0efe OP_EQUAL", "type": "scripthash"}, "value": 0.08439626, "n": 0}, {"scriptPubKey": {"reqSigs": 1, "hex": "76a91454b6e6d03e7d1a1976837056c6f70afbbf36ff8488ac", "addresses": ["18ivsLmKEF57bdAPFySe7MUZHqxW4gpxUr"], "asm": "OP_DUP OP_HASH160 54b6e6d03e7d1a1976837056c6f70afbbf36ff84 OP_EQUALVERIFY OP_CHECKSIG", "type": "pubkeyhash"}, "value": 0.114, "n": 1}], "hex": "01000000000101705da9051f7b8131b606cf942d6c7314a006f26be78e611d0e76e900f735c2160100000017160014b660784ed9d10d581b5557d58805bccf76cc83b2fdffffff024ac780000000000017a914027f280b38008f2d9ff3cc947547bd18d8ff0efe8740f3ad00000000001976a91454b6e6d03e7d1a1976837056c6f70afbbf36ff8488ac02473044022013c3312cf0b2d1293f296a6a008ddb943dde27180cd86526e24d337140606cc2022067b5aab43c634d592ff939677e4ed7244717c66dbcab616cf19df6207101671c012102de3695cceb9d0f9275a8abb466f3cdd2a020c3a97552273f27a5047e31a005ff00000000", "vin": [{"txinwitness": ["3044022013c3312cf0b2d1293f296a6a008ddb943dde27180cd86526e24d337140606cc2022067b5aab43c634d592ff939677e4ed7244717c66dbcab616cf19df6207101671c01", "02de3695cceb9d0f9275a8abb466f3cdd2a020c3a97552273f27a5047e31a005ff"], "sequence": 4294967293, "scriptSig": {"hex": "160014b660784ed9d10d581b5557d58805bccf76cc83b2", "asm": "0014b660784ed9d10d581b5557d58805bccf76cc83b2"}, "vout": 1, "txid": "16c235f700e9760e1d618ee76bf206a014736c2d94cf06b631817b1f05a95d70"}], "txid": "b1cae5eaf7f2c3abcd47ed2312dbd044c58bb1065c6ba2aee152e3d9997ba565", "blocktime": 1537872475, "version": 1, "confirmations": 11486, "time": 1537872475, "locktime": 0, "vsize": 168, "size": 249}