{"hash": "b1cf7e8cddf22f5c73fce6db23cff799e917d0bfd9389d206f074e345571f1c3", "blockhash": "00000000000000000018f53835495a110e01622372bf6ae95dc86f2b0ab887b0", "vout": [{"scriptPubKey": {"reqSigs": 1, "hex": "a91485cb0315945a61ce9d071a46b168c12fe2d1ea0d87", "addresses": ["3DtSzaghUm1V3jDjcTFSLrBmEJF9KzWSbN"], "asm": "OP_HASH160 85cb0315945a61ce9d071a46b168c12fe2d1ea0d OP_EQUAL", "type": "scripthash"}, "value": 0.0007, "n": 0}, {"scriptPubKey": {"reqSigs": 1, "hex": "76a914fc56bf1079ae144e647123bd93b3106d7aae5cba88ac", "addresses": ["1Q1FCapBXmZF59C8tVNCTePAjbspkeDo5c"], "asm": "OP_DUP OP_HASH160 fc56bf1079ae144e647123bd93b3106d7aae5cba OP_EQUALVERIFY OP_CHECKSIG", "type": "pubkeyhash"}, "value": 0.0011361, "n": 1}], "hex": "0100000001c3a6f73c58325f79b86fe5307cfd8a8407e6380345b5131bf797e91708b5d504010000006b483045022100b9aac789c11f745c7b974d1a0b0601539a9ecc3606d87ab8122864a5d07114d802206cb11ec0df04ee7d485a190bcd9a2de3ae3c3d736b14e998d1b806a0a55120cb012102bc45cccac30dad359d47be6ac6f1ede6261c7db2b0e0264b0bcab4a942a94030fdffffff02701101000000000017a91485cb0315945a61ce9d071a46b168c12fe2d1ea0d87cabb0100000000001976a914fc56bf1079ae144e647123bd93b3106d7aae5cba88ac0e490800", "vin": [{"sequence": 4294967293, "scriptSig": {"hex": "483045022100b9aac789c11f745c7b974d1a0b0601539a9ecc3606d87ab8122864a5d07114d802206cb11ec0df04ee7d485a190bcd9a2de3ae3c3d736b14e998d1b806a0a55120cb012102bc45cccac30dad359d47be6ac6f1ede6261c7db2b0e0264b0bcab4a942a94030", "asm": "3045022100b9aac789c11f745c7b974d1a0b0601539a9ecc3606d87ab8122864a5d07114d802206cb11ec0df04ee7d485a190bcd9a2de3ae3c3d736b14e998d1b806a0a55120cb[ALL] 02bc45cccac30dad359d47be6ac6f1ede6261c7db2b0e0264b0bcab4a942a94030"}, "vout": 1, "txid": "04d5b50817e997f71b13b5450338e607848afd7c30e56fb8795f32583cf7a6c3"}], "txid": "b1cf7e8cddf22f5c73fce6db23cff799e917d0bfd9389d206f074e345571f1c3", "blocktime": 1537870928, "version": 1, "confirmations": 11512, "time": 1537870928, "locktime": 542990, "vsize": 224, "size": 224}