{"hash": "b1d21898ba054986388954e7a19ba2b106789a754756898e9f70661ccfada818", "blockhash": "0000000000000000001f76057863aec43deb6fa401d9628bb513d65a8098bfab", "vout": [{"scriptPubKey": {"type": "nulldata", "hex": "6a146f6d6e69000000000000001f0000000119780bba", "asm": "OP_RETURN 6f6d6e69000000000000001f0000000119780bba"}, "value": 0.0, "n": 0}, {"scriptPubKey": {"reqSigs": 1, "hex": "76a914a25dec4d0011064ef106a983c39c7a540699f22088ac", "addresses": ["1FoWyxwPXuj4C6abqwhjDWdz6D4PZgYRjA"], "asm": "OP_DUP OP_HASH160 a25dec4d0011064ef106a983c39c7a540699f220 OP_EQUALVERIFY OP_CHECKSIG", "type": "pubkeyhash"}, "value": 0.01985564, "n": 1}, {"scriptPubKey": {"reqSigs": 1, "hex": "76a914c35a66622f05915d5b196ee35bbed0187847db1e88ac", "addresses": ["1Jow4WGPzQ5y7LzbKZYbsU6eKEZQV5aWTs"], "asm": "OP_DUP OP_HASH160 c35a66622f05915d5b196ee35bbed0187847db1e OP_EQUALVERIFY OP_CHECKSIG", "type": "pubkeyhash"}, "value": 5.46e-06, "n": 2}], "hex": "010000000161432572313005f6b79e746a9e4870d9b8c6b8df158c8e476c9d157d6322812f010000006a473044022077e3b53214262698f3a1ee1ed79d9cdd9768f38c88decf4c713d33c6ceed188c02207d36274d449498149db1827adc3bdb83c007881afa4d3a97050ce037cb252ba5012103da5bac7b36d5aa38f531c6b9601e21bb598a4b6716ebed38b009a55dabde9440feffffff030000000000000000166a146f6d6e69000000000000001f0000000119780bba1c4c1e00000000001976a914a25dec4d0011064ef106a983c39c7a540699f22088ac22020000000000001976a914c35a66622f05915d5b196ee35bbed0187847db1e88ac14490800", "vin": [{"sequence": 4294967294, "scriptSig": {"hex": "473044022077e3b53214262698f3a1ee1ed79d9cdd9768f38c88decf4c713d33c6ceed188c02207d36274d449498149db1827adc3bdb83c007881afa4d3a97050ce037cb252ba5012103da5bac7b36d5aa38f531c6b9601e21bb598a4b6716ebed38b009a55dabde9440", "asm": "3044022077e3b53214262698f3a1ee1ed79d9cdd9768f38c88decf4c713d33c6ceed188c02207d36274d449498149db1827adc3bdb83c007881afa4d3a97050ce037cb252ba5[ALL] 03da5bac7b36d5aa38f531c6b9601e21bb598a4b6716ebed38b009a55dabde9440"}, "vout": 1, "txid": "2f8122637d159d6c478e8c15dfb8c6b8d970489e6a749eb7f605303172254361"}], "txid": "b1d21898ba054986388954e7a19ba2b106789a754756898e9f70661ccfada818", "blocktime": 1537873891, "version": 1, "confirmations": 11475, "time": 1537873891, "locktime": 542996, "vsize": 256, "size": 256}