{"hash": "c0a8648eeffe8c9d14db3326eabaf5faab253c287912d974fbed79a4a01b1419", "blockhash": "0000000000000000000e13cef7c366c0283d82e591d1acd082e914b08063cdf1", "vout": [{"scriptPubKey": {"reqSigs": 1, "hex": "76a914c7a90145dd527a6d6e3bf457774ebf59e7098b4788ac", "addresses": ["1KChvr3a5Wg8nLVwrzdesydpi5N8V7gB5k"], "asm": "OP_DUP OP_HASH160 c7a90145dd527a6d6e3bf457774ebf59e7098b47 OP_EQUALVERIFY OP_CHECKSIG", "type": "pubkeyhash"}, "value": 0.00108105, "n": 0}, {"scriptPubKey": {"reqSigs": 1, "hex": "00145a593a54dc69d0647ee9714d7d2ad95df45f9c88", "addresses": ["bc1qtfvn54xud8gxglhfw9xh62keth69l8yg06c9yw"], "asm": "0 5a593a54dc69d0647ee9714d7d2ad95df45f9c88", "type": "witness_v0_keyhash"}, "value": 1.376e-05, "n": 1}], "hex": "010000000001011518ba007fd20f34418055a22e80350f6a1ba801a48cb577c4a25e961fc38fb30000000000ffffffff0249a60100000000001976a914c7a90145dd527a6d6e3bf457774ebf59e7098b4788ac60050000000000001600145a593a54dc69d0647ee9714d7d2ad95df45f9c880248304502210092d8c1fc57b2eae884f4e382bbb79eccf2557640f050d934ac94df5560a310ed0220576255bad4af52d6d2827801151d4b7848e8222348a67aadb577d18a017a64ca012103947228c2bb830fb52a6fa01ad24b61fdf9052123b666e054e6a5e4307bcb16f400000000", "vin": [{"txinwitness": ["304502210092d8c1fc57b2eae884f4e382bbb79eccf2557640f050d934ac94df5560a310ed0220576255bad4af52d6d2827801151d4b7848e8222348a67aadb577d18a017a64ca01", "03947228c2bb830fb52a6fa01ad24b61fdf9052123b666e054e6a5e4307bcb16f4"], "sequence": 4294967295, "scriptSig": {"hex": "", "asm": ""}, "vout": 0, "txid": "b38fc31f965ea2c477b58ca401a81b6a0f35802ea2558041340fd27f00ba1815"}], "txid": "b1d44be71fd00fac2e9e774fc03f76981d87e73dbc72373c6f14708df46bb541", "blocktime": 1537871767, "version": 1, "confirmations": 11495, "time": 1537871767, "locktime": 0, "vsize": 144, "size": 226}