{"hash": "b1d64a723682e89aff6a4c19a7e4c8d7a6ac6e798605591f053e62c6174f1435", "blockhash": "0000000000000000001f0ddff1eddb255c1121bcd4da4f1bc9a0da00cae72433", "vout": [{"scriptPubKey": {"reqSigs": 1, "hex": "76a9149e3c6ebe5bfdf3b984ce993311cb5f7585c6d0f088ac", "addresses": ["1FRgAEt5TPsTg1KyGLjiQuitdZCe19GPtY"], "asm": "OP_DUP OP_HASH160 9e3c6ebe5bfdf3b984ce993311cb5f7585c6d0f0 OP_EQUALVERIFY OP_CHECKSIG", "type": "pubkeyhash"}, "value": 0.00406605, "n": 0}, {"scriptPubKey": {"reqSigs": 1, "hex": "a91453105376507d60a30839d552579695933c8b95a387", "addresses": ["39GDZpP4N1hK38Yjx8V1FL6TEioWkx5usS"], "asm": "OP_HASH160 53105376507d60a30839d552579695933c8b95a3 OP_EQUAL", "type": "scripthash"}, "value": 0.00567976, "n": 1}], "hex": "010000000138b8305ed02083c9763ce16dfde82e6293bc0e0632dc32798f2f5d58599d2a2b00000000fdfd0000483045022100d7f4a405535f06f420f6fe62ac892e2aedfc87a8baf64419a8669f6865d942ab022036ed0e430d6b6383db9c73e032fd33a1f7763c0686366dcf224fb752a6075c1001473044022038b61b512dcee597e0e070bee46d08ebecbaef6756c4b8c46e4e4874637ee93d02201b58e7f61a3b8ab49f91655e0d223151affa0bf27990131c4d72f2b12cf7b989014c695221022e1344d00cc6528925a61e08c81ef4b5d202d8d1b7ccc1ca28106b1843ce6f78210289783bb1dee4cabbcad86b6cc087db85f7e87c3dbdf2e21258aca6e41bca238e2103a65663dfea3a74be6c45103d0f895b8d02dd5f5d009a5d2877c9f4e6004f808853aeffffffff024d340600000000001976a9149e3c6ebe5bfdf3b984ce993311cb5f7585c6d0f088aca8aa08000000000017a91453105376507d60a30839d552579695933c8b95a38700000000", "vin": [{"sequence": 4294967295, "scriptSig": {"hex": "00483045022100d7f4a405535f06f420f6fe62ac892e2aedfc87a8baf64419a8669f6865d942ab022036ed0e430d6b6383db9c73e032fd33a1f7763c0686366dcf224fb752a6075c1001473044022038b61b512dcee597e0e070bee46d08ebecbaef6756c4b8c46e4e4874637ee93d02201b58e7f61a3b8ab49f91655e0d223151affa0bf27990131c4d72f2b12cf7b989014c695221022e1344d00cc6528925a61e08c81ef4b5d202d8d1b7ccc1ca28106b1843ce6f78210289783bb1dee4cabbcad86b6cc087db85f7e87c3dbdf2e21258aca6e41bca238e2103a65663dfea3a74be6c45103d0f895b8d02dd5f5d009a5d2877c9f4e6004f808853ae", "asm": "0 3045022100d7f4a405535f06f420f6fe62ac892e2aedfc87a8baf64419a8669f6865d942ab022036ed0e430d6b6383db9c73e032fd33a1f7763c0686366dcf224fb752a6075c10[ALL] 3044022038b61b512dcee597e0e070bee46d08ebecbaef6756c4b8c46e4e4874637ee93d02201b58e7f61a3b8ab49f91655e0d223151affa0bf27990131c4d72f2b12cf7b989[ALL] 5221022e1344d00cc6528925a61e08c81ef4b5d202d8d1b7ccc1ca28106b1843ce6f78210289783bb1dee4cabbcad86b6cc087db85f7e87c3dbdf2e21258aca6e41bca238e2103a65663dfea3a74be6c45103d0f895b8d02dd5f5d009a5d2877c9f4e6004f808853ae"}, "vout": 0, "txid": "2b2a9d59585d2f8f7932dc32060ebc93622ee8fd6de13c76c98320d05e30b838"}], "txid": "b1d64a723682e89aff6a4c19a7e4c8d7a6ac6e798605591f053e62c6174f1435", "blocktime": 1537872018, "version": 1, "confirmations": 11489, "time": 1537872018, "locktime": 0, "vsize": 372, "size": 372}