{"hash": "b1d8b75cf7e71023508c151baf574ea5eb0e22bdf90d29c9bdc64d578aeaf5b2", "blockhash": "0000000000000000001cda96e906b7601b7a6fb1a3b62bca570a9e5d8f4b3de1", "vout": [{"scriptPubKey": {"reqSigs": 1, "hex": "76a914b5c1ed2841798875d4089335878b98ca5cb0696f88ac", "addresses": ["1Ha3cxtAUChcqfXfat5BbPuyq5kZvEGPwE"], "asm": "OP_DUP OP_HASH160 b5c1ed2841798875d4089335878b98ca5cb0696f OP_EQUALVERIFY OP_CHECKSIG", "type": "pubkeyhash"}, "value": 0.0156118, "n": 0}, {"scriptPubKey": {"reqSigs": 1, "hex": "76a914c6c455f99784df790046b68559226766650be76888ac", "addresses": ["1K7yzdsZoqsTih8iBSRhNhP4qJ2r6NNgXB"], "asm": "OP_DUP OP_HASH160 c6c455f99784df790046b68559226766650be768 OP_EQUALVERIFY OP_CHECKSIG", "type": "pubkeyhash"}, "value": 0.0861416, "n": 1}], "hex": "0100000001a0a4e200faeeeb0dd3bba4ee7efa49312d74a0789e3d697c19208da2140f2294010000006a473044022065d053131535baf1e6c5a11a60961f49c99f7d26f96cf6c9a504fb0ff8748bad02203c49a13a9b1b234af2c055580113d837e29abb330c637281fe839f5d92b002c3012103a97916871f76bfe05d0990a24fa44de65b66b9e6e64c70600ec4f49c3a88b4acffffffff025cd21700000000001976a914b5c1ed2841798875d4089335878b98ca5cb0696f88ac10718300000000001976a914c6c455f99784df790046b68559226766650be76888ac00000000", "vin": [{"sequence": 4294967295, "scriptSig": {"hex": "473044022065d053131535baf1e6c5a11a60961f49c99f7d26f96cf6c9a504fb0ff8748bad02203c49a13a9b1b234af2c055580113d837e29abb330c637281fe839f5d92b002c3012103a97916871f76bfe05d0990a24fa44de65b66b9e6e64c70600ec4f49c3a88b4ac", "asm": "3044022065d053131535baf1e6c5a11a60961f49c99f7d26f96cf6c9a504fb0ff8748bad02203c49a13a9b1b234af2c055580113d837e29abb330c637281fe839f5d92b002c3[ALL] 03a97916871f76bfe05d0990a24fa44de65b66b9e6e64c70600ec4f49c3a88b4ac"}, "vout": 1, "txid": "94220f14a28d20197c693d9e78a0742d3149fa7eeea4bbd30debeefa00e2a4a0"}], "txid": "b1d8b75cf7e71023508c151baf574ea5eb0e22bdf90d29c9bdc64d578aeaf5b2", "blocktime": 1537873282, "version": 1, "confirmations": 11484, "time": 1537873282, "locktime": 0, "vsize": 225, "size": 225}