{"hash": "b1da92e3521bbb24f362ed4471cf9c73e20d1c56c424680766886deafcb14b45", "blockhash": "00000000000000000004ffacab907a6b429b9a5745fa0b75af4234bf69dd7176", "vout": [{"scriptPubKey": {"reqSigs": 1, "hex": "76a9144ab81e93692d4f9b23e0a525129f9fe3cc76b36288ac", "addresses": ["17p5a3DVASV9tQP6s5qvbncexttXCUEP57"], "asm": "OP_DUP OP_HASH160 4ab81e93692d4f9b23e0a525129f9fe3cc76b362 OP_EQUALVERIFY OP_CHECKSIG", "type": "pubkeyhash"}, "value": 0.005457, "n": 0}], "hex": "01000000013e070c871d70ffe13701f7e5d60c83616f4e20388eb9527266ee4d200888bc4d000000006b483045022100b2bc7207db059f7d3c0a53a456986ad7615a6aaf09c97cbb457ec407c895c85c022040ba695e6aac711dfc4e6e4ba529c64d7957c6d5f2d13086e4b0e126c9cd39900121022bbf6e03e693ca09f8b6843d04b1a8946ebdf87bd98860ae0de2f27703b28ec6ffffffff01a4530800000000001976a9144ab81e93692d4f9b23e0a525129f9fe3cc76b36288ac00000000", "vin": [{"sequence": 4294967295, "scriptSig": {"hex": "483045022100b2bc7207db059f7d3c0a53a456986ad7615a6aaf09c97cbb457ec407c895c85c022040ba695e6aac711dfc4e6e4ba529c64d7957c6d5f2d13086e4b0e126c9cd39900121022bbf6e03e693ca09f8b6843d04b1a8946ebdf87bd98860ae0de2f27703b28ec6", "asm": "3045022100b2bc7207db059f7d3c0a53a456986ad7615a6aaf09c97cbb457ec407c895c85c022040ba695e6aac711dfc4e6e4ba529c64d7957c6d5f2d13086e4b0e126c9cd3990[ALL] 022bbf6e03e693ca09f8b6843d04b1a8946ebdf87bd98860ae0de2f27703b28ec6"}, "vout": 0, "txid": "4dbc8808204dee667252b98e38204e6f61830cd6e5f70137e1ff701d870c073e"}], "txid": "b1da92e3521bbb24f362ed4471cf9c73e20d1c56c424680766886deafcb14b45", "blocktime": 1537875543, "version": 1, "confirmations": 11464, "time": 1537875543, "locktime": 0, "vsize": 192, "size": 192}