{"hash": "b1ded84670aa1db7b634e960d1a2987101f3f3facd7f64e05ce88c49283ffe37", "blockhash": "0000000000000000000baef3f32e3676a92c3b2e5da21b426e4f302fc371ce76", "vout": [{"scriptPubKey": {"reqSigs": 1, "hex": "76a914cc0b29f2c564edd00524460f7633e2278c1781ae88ac", "addresses": ["1KbtDp6i4eRz4cPqRMK7tmDavDGet5Cgqf"], "asm": "OP_DUP OP_HASH160 cc0b29f2c564edd00524460f7633e2278c1781ae OP_EQUALVERIFY OP_CHECKSIG", "type": "pubkeyhash"}, "value": 1.56200766, "n": 0}], "hex": "0100000001eb6df499abdbd246caa9276d83d28001069e80d55cf9268a1725ef27333e00f4010000006a47304402200f942b99d5d0fae5868f5d8cf4e911abe4233378b413e0af1b31620dfa71f17802202de84866e66f0670324336fbab06bb39fd9b3e0685febe45d4bb321ea584f6b0012102f39e796e0853173ae26765ef2df9fdccb2513ad6c324a7dea771723779adcacaffffffff013e6f4f09000000001976a914cc0b29f2c564edd00524460f7633e2278c1781ae88ac00000000", "vin": [{"sequence": 4294967295, "scriptSig": {"hex": "47304402200f942b99d5d0fae5868f5d8cf4e911abe4233378b413e0af1b31620dfa71f17802202de84866e66f0670324336fbab06bb39fd9b3e0685febe45d4bb321ea584f6b0012102f39e796e0853173ae26765ef2df9fdccb2513ad6c324a7dea771723779adcaca", "asm": "304402200f942b99d5d0fae5868f5d8cf4e911abe4233378b413e0af1b31620dfa71f17802202de84866e66f0670324336fbab06bb39fd9b3e0685febe45d4bb321ea584f6b0[ALL] 02f39e796e0853173ae26765ef2df9fdccb2513ad6c324a7dea771723779adcaca"}, "vout": 1, "txid": "f4003e3327ef25178a26f95cd5809e060180d2836d27a9ca46d2dbab99f46deb"}], "txid": "b1ded84670aa1db7b634e960d1a2987101f3f3facd7f64e05ce88c49283ffe37", "blocktime": 1537876114, "version": 1, "confirmations": 11460, "time": 1537876114, "locktime": 0, "vsize": 191, "size": 191}