{"hash": "b1e48ee4639fa2e79f7c57a70ce071c759bb89bcb692324a36ddadea62e73d4f", "blockhash": "0000000000000000001cda96e906b7601b7a6fb1a3b62bca570a9e5d8f4b3de1", "vout": [{"scriptPubKey": {"reqSigs": 1, "hex": "76a914710ef572625a9fc275347518243aa87c3e7f8f6f88ac", "addresses": ["1BJoH2nohpjGmcDPpvMP3D9fnfFRvJ4Ljr"], "asm": "OP_DUP OP_HASH160 710ef572625a9fc275347518243aa87c3e7f8f6f OP_EQUALVERIFY OP_CHECKSIG", "type": "pubkeyhash"}, "value": 0.00010169, "n": 0}, {"scriptPubKey": {"type": "nulldata", "hex": "6a4c50000077d500017b7451d3863b8d420c7093555b23cc0f42c2fc38c5e5bf9ae76da98a211a5bd994bab65537662fb9fa51cd26c93f5baa151f0612d711973bc7824bbf23acfcfaac8058b692fe6808c31d", "asm": "OP_RETURN 000077d500017b7451d3863b8d420c7093555b23cc0f42c2fc38c5e5bf9ae76da98a211a5bd994bab65537662fb9fa51cd26c93f5baa151f0612d711973bc7824bbf23acfcfaac8058b692fe6808c31d"}, "value": 0.0, "n": 1}], "hex": "0100000001893c5e60357df97646111ab244a1b2267809931e9fb7ec68954b11125a8b0be7010000006a47304402204e876c8b5fb5ed36898f71eddd0b9866f69a3cb9ea2e6e8fd2c9b85396e6541802203b24b9eaf0795ec5e348f5da945cc6add1e8af38c0f01568a24da57ee4ecdd23012102e763d0323cece083a549f71b846b20b61248b68226dbe6ab55973df0cacfe2b5ffffffff02b9270000000000001976a914710ef572625a9fc275347518243aa87c3e7f8f6f88ac0000000000000000536a4c50000077d500017b7451d3863b8d420c7093555b23cc0f42c2fc38c5e5bf9ae76da98a211a5bd994bab65537662fb9fa51cd26c93f5baa151f0612d711973bc7824bbf23acfcfaac8058b692fe6808c31d00000000", "vin": [{"sequence": 4294967295, "scriptSig": {"hex": "47304402204e876c8b5fb5ed36898f71eddd0b9866f69a3cb9ea2e6e8fd2c9b85396e6541802203b24b9eaf0795ec5e348f5da945cc6add1e8af38c0f01568a24da57ee4ecdd23012102e763d0323cece083a549f71b846b20b61248b68226dbe6ab55973df0cacfe2b5", "asm": "304402204e876c8b5fb5ed36898f71eddd0b9866f69a3cb9ea2e6e8fd2c9b85396e6541802203b24b9eaf0795ec5e348f5da945cc6add1e8af38c0f01568a24da57ee4ecdd23[ALL] 02e763d0323cece083a549f71b846b20b61248b68226dbe6ab55973df0cacfe2b5"}, "vout": 1, "txid": "e70b8b5a12114b9568ecb79f1e93097826b2a144b21a114676f97d35605e3c89"}], "txid": "b1e48ee4639fa2e79f7c57a70ce071c759bb89bcb692324a36ddadea62e73d4f", "blocktime": 1537873282, "version": 1, "confirmations": 11484, "time": 1537873282, "locktime": 0, "vsize": 283, "size": 283}