{"hash": "b1e669255833b0b483e6e8743fbb2770eae980ab6a77c600f8b295bf671692d0", "blockhash": "0000000000000000000e13cef7c366c0283d82e591d1acd082e914b08063cdf1", "vout": [{"scriptPubKey": {"reqSigs": 1, "hex": "76a914b2d50d0dfdfd0466400a8b91077c6ac65d45c39a88ac", "addresses": ["1HJaWBvvs7LjUCzNiPfXeC8RzqgA1rye1e"], "asm": "OP_DUP OP_HASH160 b2d50d0dfdfd0466400a8b91077c6ac65d45c39a OP_EQUALVERIFY OP_CHECKSIG", "type": "pubkeyhash"}, "value": 0.00064248, "n": 0}, {"scriptPubKey": {"reqSigs": 1, "hex": "a9147bc86756165d23b3356b21ddca21e225143d530887", "addresses": ["3CyX7RqoSd7Gf58rK6QrvxkpprJNdHRGFz"], "asm": "OP_HASH160 7bc86756165d23b3356b21ddca21e225143d5308 OP_EQUAL", "type": "scripthash"}, "value": 0.00683, "n": 1}], "hex": "01000000014bb32cf1525ad3863055859580ae6aa4f31feac1f9592b52c7689ded89d6878a000000006a473044022025b2a33c3c6f696941dd9b0bc33e7de4005b7daff8b15d650c4e1fb3a9e726cd02204fda178c4afe510c68a07a944f2d7f939ef20011a04436d28083e5aaa3f3a1fd012103d39ac0ef2d61a9ce29659e2101fd45513355fb525562a12087784b7ab41347adffffffff02f8fa0000000000001976a914b2d50d0dfdfd0466400a8b91077c6ac65d45c39a88acf86b0a000000000017a9147bc86756165d23b3356b21ddca21e225143d53088700000000", "vin": [{"sequence": 4294967295, "scriptSig": {"hex": "473044022025b2a33c3c6f696941dd9b0bc33e7de4005b7daff8b15d650c4e1fb3a9e726cd02204fda178c4afe510c68a07a944f2d7f939ef20011a04436d28083e5aaa3f3a1fd012103d39ac0ef2d61a9ce29659e2101fd45513355fb525562a12087784b7ab41347ad", "asm": "3044022025b2a33c3c6f696941dd9b0bc33e7de4005b7daff8b15d650c4e1fb3a9e726cd02204fda178c4afe510c68a07a944f2d7f939ef20011a04436d28083e5aaa3f3a1fd[ALL] 03d39ac0ef2d61a9ce29659e2101fd45513355fb525562a12087784b7ab41347ad"}, "vout": 0, "txid": "8a87d689ed9d68c7522b59f9c1ea1ff3a46aae809585553086d35a52f12cb34b"}], "txid": "b1e669255833b0b483e6e8743fbb2770eae980ab6a77c600f8b295bf671692d0", "blocktime": 1537871767, "version": 1, "confirmations": 11492, "time": 1537871767, "locktime": 0, "vsize": 223, "size": 223}