{"hash": "1500ff157232c7cdb452c1f34bd0e46ef6cdffc3aacbe408abf2c1d4e59d891c", "blockhash": "0000000000000000001cda96e906b7601b7a6fb1a3b62bca570a9e5d8f4b3de1", "vout": [{"scriptPubKey": {"reqSigs": 1, "hex": "a914dfb1c4df833089cc72f9df4cd7b2d07e508e1e5787", "addresses": ["3N5oZvxMTirdtGxp4BaGE7YadSq1uK2yFT"], "asm": "OP_HASH160 dfb1c4df833089cc72f9df4cd7b2d07e508e1e57 OP_EQUAL", "type": "scripthash"}, "value": 0.01494758, "n": 0}, {"scriptPubKey": {"reqSigs": 1, "hex": "0014189abff4724a069b6d2946f7dd6a61fb04ea44c8", "addresses": ["bc1qrzdtlarjfgrfkmffgmma66nplvzw53xgpkdnya"], "asm": "0 189abff4724a069b6d2946f7dd6a61fb04ea44c8", "type": "witness_v0_keyhash"}, "value": 0.0001126, "n": 1}], "hex": "01000000000101e2795640b476f82b18c61ab51c3101890de7e0c05270610289306741e8fcbb8e00000000171600143c7196cfccb5bf8653a949a38fa21a8133afa062ffffffff02e6ce16000000000017a914dfb1c4df833089cc72f9df4cd7b2d07e508e1e5787fc2b000000000000160014189abff4724a069b6d2946f7dd6a61fb04ea44c802473044022015299ba43d0106a47d88946a70a6621dd5be89c7ec2183e75ca2a43acaa3727f02202b6e9c45a53c520a1570db1ef4e74c46e8fbab9a07187fbf7ef76895ccfdbda20121026e9905a0f3d52470702ff07ebf94e853ee64268cd83901e19fea9786986c970900000000", "vin": [{"txinwitness": ["3044022015299ba43d0106a47d88946a70a6621dd5be89c7ec2183e75ca2a43acaa3727f02202b6e9c45a53c520a1570db1ef4e74c46e8fbab9a07187fbf7ef76895ccfdbda201", "026e9905a0f3d52470702ff07ebf94e853ee64268cd83901e19fea9786986c9709"], "sequence": 4294967295, "scriptSig": {"hex": "1600143c7196cfccb5bf8653a949a38fa21a8133afa062", "asm": "00143c7196cfccb5bf8653a949a38fa21a8133afa062"}, "vout": 0, "txid": "8ebbfce84167308902617052c0e0e70d8901311cb51ac6182bf876b4405679e2"}], "txid": "b1eb01ce0cf8bfe4b6d62081f8af15e0bb49aa5cfb211cf02868146a4fa3cde6", "blocktime": 1537873282, "version": 1, "confirmations": 11484, "time": 1537873282, "locktime": 0, "vsize": 165, "size": 246}