{"hash": "b1f1b19b47b32df685bdc911e3979cecc57f1ec43a9d0d74b83c4f628cbd8cad", "blockhash": "00000000000000000024a2167bbff67b0be802c0b01cdd79e6331c2be6459f87", "vout": [{"scriptPubKey": {"reqSigs": 1, "hex": "76a9145b27c858e9751a374079d596fdf2623bb3efddf888ac", "addresses": ["19Jz9bqDV5cwVu8eDWzqU6oh5rwD6ki3nS"], "asm": "OP_DUP OP_HASH160 5b27c858e9751a374079d596fdf2623bb3efddf8 OP_EQUALVERIFY OP_CHECKSIG", "type": "pubkeyhash"}, "value": 0.1200483, "n": 0}, {"scriptPubKey": {"reqSigs": 1, "hex": "76a914e47dcb7bdf99b0ef6ea785e59396fa598198342c88ac", "addresses": ["1Mq9m7oohQzwUuK6xMQ9Erk9WTR9SSEue9"], "asm": "OP_DUP OP_HASH160 e47dcb7bdf99b0ef6ea785e59396fa598198342c OP_EQUALVERIFY OP_CHECKSIG", "type": "pubkeyhash"}, "value": 0.023511, "n": 1}], "hex": "0100000001c36a65b7ad7ccedaf04d7c656be44544f5093c4961ceb2c7f38ac45da0290aae010000006b483045022100e1232dc4b962b3ab9b218d2a82e7e4b026803deb43f56925313077d236e08acd02204a821bbfdbd9e6fc125fce75491ee00a06db2f4bde4b6b5b23260ea863fa2bcc012102a7b353035d9fd6f17de3a7f9159e8fd83ba8d30f7b7055a23bfc99f834cd86f1ffffffff02de2db700000000001976a9145b27c858e9751a374079d596fdf2623bb3efddf888acfcdf2300000000001976a914e47dcb7bdf99b0ef6ea785e59396fa598198342c88ac00000000", "vin": [{"sequence": 4294967295, "scriptSig": {"hex": "483045022100e1232dc4b962b3ab9b218d2a82e7e4b026803deb43f56925313077d236e08acd02204a821bbfdbd9e6fc125fce75491ee00a06db2f4bde4b6b5b23260ea863fa2bcc012102a7b353035d9fd6f17de3a7f9159e8fd83ba8d30f7b7055a23bfc99f834cd86f1", "asm": "3045022100e1232dc4b962b3ab9b218d2a82e7e4b026803deb43f56925313077d236e08acd02204a821bbfdbd9e6fc125fce75491ee00a06db2f4bde4b6b5b23260ea863fa2bcc[ALL] 02a7b353035d9fd6f17de3a7f9159e8fd83ba8d30f7b7055a23bfc99f834cd86f1"}, "vout": 1, "txid": "ae0a29a05dc48af3c7b2ce61493c09f54445e46b657c4df0dace7cadb7656ac3"}], "txid": "b1f1b19b47b32df685bdc911e3979cecc57f1ec43a9d0d74b83c4f628cbd8cad", "blocktime": 1537870564, "version": 1, "confirmations": 11515, "time": 1537870564, "locktime": 0, "vsize": 226, "size": 226}