{"hash": "b1f2ef543c0e5e001f15b998853f47f81abe075a4ae2ceb87b048287f4ae612d", "blockhash": "00000000000000000004ffacab907a6b429b9a5745fa0b75af4234bf69dd7176", "vout": [{"scriptPubKey": {"reqSigs": 1, "hex": "76a9148cc457cd92586c53973062686eb069e033631c0388ac", "addresses": ["1DqJp1LCojGwiMw4WduN648BPABJJkDW6N"], "asm": "OP_DUP OP_HASH160 8cc457cd92586c53973062686eb069e033631c03 OP_EQUALVERIFY OP_CHECKSIG", "type": "pubkeyhash"}, "value": 0.5339661, "n": 0}], "hex": "01000000011add6f3020f22f5a17ea7522de6bb5b1568f914c25d948980bb18732a375f198000000006b483045022100f65467c51c07320a4b2f37aa238f860895c1578909c67ceab673b0a7eb7b0f7b02202f7bee8c7f5cd314b5a07dbf4ab53d70655f22d84ce37a5fa1c420243ee1def5012102bff071ea2b2cc80ab25be1ac0bbba3bb76c6ed1cf5a18c56a71c7503e8be703effffffff0182c42e03000000001976a9148cc457cd92586c53973062686eb069e033631c0388ac00000000", "vin": [{"sequence": 4294967295, "scriptSig": {"hex": "483045022100f65467c51c07320a4b2f37aa238f860895c1578909c67ceab673b0a7eb7b0f7b02202f7bee8c7f5cd314b5a07dbf4ab53d70655f22d84ce37a5fa1c420243ee1def5012102bff071ea2b2cc80ab25be1ac0bbba3bb76c6ed1cf5a18c56a71c7503e8be703e", "asm": "3045022100f65467c51c07320a4b2f37aa238f860895c1578909c67ceab673b0a7eb7b0f7b02202f7bee8c7f5cd314b5a07dbf4ab53d70655f22d84ce37a5fa1c420243ee1def5[ALL] 02bff071ea2b2cc80ab25be1ac0bbba3bb76c6ed1cf5a18c56a71c7503e8be703e"}, "vout": 0, "txid": "98f175a33287b10b9848d9254c918f56b1b56bde2275ea175a2ff220306fdd1a"}], "txid": "b1f2ef543c0e5e001f15b998853f47f81abe075a4ae2ceb87b048287f4ae612d", "blocktime": 1537875543, "version": 1, "confirmations": 11464, "time": 1537875543, "locktime": 0, "vsize": 192, "size": 192}