{"hash": "e5f7de295a5d64a8d92f5808e98ee38fb748ef990b4fee9069a0ab194d7c950a", "blockhash": "0000000000000000001e0dab787dd257d1dbfcb92a98c2207d5e1078be1f4165", "vout": [{"scriptPubKey": {"reqSigs": 1, "hex": "a9146db447e55b0e0731a0531cdca786dfccdc0000c587", "addresses": ["3Bh5Yaw7rFhDTTzM1SECPS6gbhxfHQ4za9"], "asm": "OP_HASH160 6db447e55b0e0731a0531cdca786dfccdc0000c5 OP_EQUAL", "type": "scripthash"}, "value": 0.00015486, "n": 0}, {"scriptPubKey": {"reqSigs": 1, "hex": "a914f5342287aaa57f5c05756dbd5ef14091cc70030f87", "addresses": ["3Q3XvwKWsx3ocmCXheK6pAo5ieooFx75hh"], "asm": "OP_HASH160 f5342287aaa57f5c05756dbd5ef14091cc70030f OP_EQUAL", "type": "scripthash"}, "value": 0.10208231, "n": 1}], "hex": "010000000001012d6648a8d0b0d96de5837a1e1f19b8687ad763ed5660a1a88c8a90d400d3057401000000232200204fd7968ffe15cb453352a1e9ee2915eff8b6d6252d5a351f9092b82ca10eb12cffffffff027e3c00000000000017a9146db447e55b0e0731a0531cdca786dfccdc0000c587e7c39b000000000017a914f5342287aaa57f5c05756dbd5ef14091cc70030f870400483045022100aced1557a81495d5ecb60ed0f51517124db1d7ea6eab47f1bd82868e8b4070b10220613ef37e0eb362d5c9f5b1dba1f32b53c8dc6cc1d169c38f097be7d3a355651c0147304402201c2f1a72db754109b6c627315aea2c4c78c86237a043f9138ff080276b0a084a022074169b00fd2ecce3c41b1e4f09c65e558c300de353e804e8dce3f543e822d8d40147522103b70e79262cbb7310fe069dea7c473b53276b75c67fb841ff66279f152a3fe0172103871fc2ca08e6950b38867e8e6a0e94ee625223d3aa0df5c65f414c6d784467e252ae00000000", "vin": [{"txinwitness": ["", "3045022100aced1557a81495d5ecb60ed0f51517124db1d7ea6eab47f1bd82868e8b4070b10220613ef37e0eb362d5c9f5b1dba1f32b53c8dc6cc1d169c38f097be7d3a355651c01", "304402201c2f1a72db754109b6c627315aea2c4c78c86237a043f9138ff080276b0a084a022074169b00fd2ecce3c41b1e4f09c65e558c300de353e804e8dce3f543e822d8d401", "522103b70e79262cbb7310fe069dea7c473b53276b75c67fb841ff66279f152a3fe0172103871fc2ca08e6950b38867e8e6a0e94ee625223d3aa0df5c65f414c6d784467e252ae"], "sequence": 4294967295, "scriptSig": {"hex": "2200204fd7968ffe15cb453352a1e9ee2915eff8b6d6252d5a351f9092b82ca10eb12c", "asm": "00204fd7968ffe15cb453352a1e9ee2915eff8b6d6252d5a351f9092b82ca10eb12c"}, "vout": 1, "txid": "7405d300d4908a8ca8a16056ed63d77a68b8191f1e7a83e56dd9b0d0a848662d"}], "txid": "b1f48409a2993aea44439e7b0b2110fb7852e4de769bb71a371e03a6a56178b7", "blocktime": 1537872475, "version": 1, "confirmations": 11487, "time": 1537872475, "locktime": 0, "vsize": 206, "size": 371}