{"hash": "5e42dbe8942212ee4474a62c2238f0c9b42735b0dac403a9ceef45f3b8382108", "blockhash": "000000000000000000022b45ed06c6f4ccd3cf7fb5ba4856ebd2e58215665228", "vout": [{"scriptPubKey": {"reqSigs": 1, "hex": "a914c751fe50cab0230092f550178c345c1d2484acf287", "addresses": ["3KrvcikmXVFAZLhTskDpYqmhQrLrMDCusm"], "asm": "OP_HASH160 c751fe50cab0230092f550178c345c1d2484acf2 OP_EQUAL", "type": "scripthash"}, "value": 0.01039127, "n": 0}, {"scriptPubKey": {"reqSigs": 1, "hex": "76a9149e13987671dc6e2f15c92c294037fe48fb89493388ac", "addresses": ["1FQqEqHBtbxJGctpQnjEqsypA7PbC7FoNy"], "asm": "OP_DUP OP_HASH160 9e13987671dc6e2f15c92c294037fe48fb894933 OP_EQUALVERIFY OP_CHECKSIG", "type": "pubkeyhash"}, "value": 0.00199, "n": 1}], "hex": "02000000000102305ee7ef07e6d1de43e93f356f4ada5879bd9df329533ac27c5918860d13de990e00000017160014313ed58daae622f08493e7c69974a72a15c0659cfeffffff68cbc28eeb3e84965f807802b72491bbe245ca31b1577d784ce16eca882ab9400000000017160014afcaa4b4719f6fabcedc2e27afb2664fbba29b31feffffff0217db0f000000000017a914c751fe50cab0230092f550178c345c1d2484acf28758090300000000001976a9149e13987671dc6e2f15c92c294037fe48fb89493388ac0247304402207430e805bb519b54961cfc17ae7422ea76a44e67cb1cbb499c27102a1d2c58a302205f861cf36c79991888cb06146b28efd208e5c2cc481b7598a20765f396178616012103ce21da0e578755fa9bb9e6f9d8432e2dca24a0b1b173177155ec909edf5c346c024830450221009f6e3d25a21d8455034ef674b41de52d66ead2158c7c8efed37dfe05b66c3393022012264132f2285d38d748e032a55b63067e579c21854cd02cfe044d42f41ce5d3012102ddf25247dbedf8771618e7a69b15450ca0c9216bb2c9904fa06adcd9b1cf67d108490800", "vin": [{"txinwitness": ["304402207430e805bb519b54961cfc17ae7422ea76a44e67cb1cbb499c27102a1d2c58a302205f861cf36c79991888cb06146b28efd208e5c2cc481b7598a20765f39617861601", "03ce21da0e578755fa9bb9e6f9d8432e2dca24a0b1b173177155ec909edf5c346c"], "sequence": 4294967294, "scriptSig": {"hex": "160014313ed58daae622f08493e7c69974a72a15c0659c", "asm": "0014313ed58daae622f08493e7c69974a72a15c0659c"}, "vout": 14, "txid": "99de130d8618597cc23a5329f39dbd7958da4a6f353fe943ded1e607efe75e30"}, {"txinwitness": ["30450221009f6e3d25a21d8455034ef674b41de52d66ead2158c7c8efed37dfe05b66c3393022012264132f2285d38d748e032a55b63067e579c21854cd02cfe044d42f41ce5d301", "02ddf25247dbedf8771618e7a69b15450ca0c9216bb2c9904fa06adcd9b1cf67d1"], "sequence": 4294967294, "scriptSig": {"hex": "160014afcaa4b4719f6fabcedc2e27afb2664fbba29b31", "asm": "0014afcaa4b4719f6fabcedc2e27afb2664fbba29b31"}, "vout": 0, "txid": "40b92a88ca6ee14c787d57b131ca45e2bb9124b70278805f96843eeb8ec2cb68"}], "txid": "b1fa63cad1b52768ce0f6f35075a38b194249e1d377d7ce1b632044d96afac5f", "blocktime": 1537869901, "version": 2, "confirmations": 11522, "time": 1537869901, "locktime": 542984, "vsize": 259, "size": 421}