{"hash": "b981b6f095531fa0d402fbe4d9f4d52e0163e3acad9db6c6bd2b5fee73903b2e", "blockhash": "00000000000000000018f53835495a110e01622372bf6ae95dc86f2b0ab887b0", "vout": [{"scriptPubKey": {"reqSigs": 1, "hex": "a9145483ceb9a95520c25e839c6f622efe74131191d887", "addresses": ["39PtaocsidtBq9SJbtigDqUYBogqt5y64J"], "asm": "OP_HASH160 5483ceb9a95520c25e839c6f622efe74131191d8 OP_EQUAL", "type": "scripthash"}, "value": 0.02200883, "n": 0}], "hex": "0100000000010135a36a9a087b89b72139bcd9701b2f9176aee8029661929d28f662a3d1fe0f460100000017160014d649da77c50fb80f2b4debc0b61518009129b466ffffffff01339521000000000017a9145483ceb9a95520c25e839c6f622efe74131191d88702483045022100e8aca24923d7dd76d372d2165a13154b64ff4456759cd210f102c72c512502c102203a67b388dd7c43cffdf34a47569d9d9de95eaa1c6fb0638f9aaccbc5bf8adf22012103226c9646fe6d6442a0df59deb6664cba0dc9df068298d29432a3fd9c96ba275500000000", "vin": [{"txinwitness": ["3045022100e8aca24923d7dd76d372d2165a13154b64ff4456759cd210f102c72c512502c102203a67b388dd7c43cffdf34a47569d9d9de95eaa1c6fb0638f9aaccbc5bf8adf2201", "03226c9646fe6d6442a0df59deb6664cba0dc9df068298d29432a3fd9c96ba2755"], "sequence": 4294967295, "scriptSig": {"hex": "160014d649da77c50fb80f2b4debc0b61518009129b466", "asm": "0014d649da77c50fb80f2b4debc0b61518009129b466"}, "vout": 1, "txid": "460ffed1a362f6289d92619602e8ae76912f1b70d9bc3921b7897b089a6aa335"}], "txid": "b207033d939290dc3fcefcc563028b8976144bcf9c2c892c76cd851e55728ee8", "blocktime": 1537870928, "version": 1, "confirmations": 11512, "time": 1537870928, "locktime": 0, "vsize": 134, "size": 216}