{"hash": "d106766fa752213009364c9ece84ca4eda4e96fd27a2d747ada963f6406c99db", "blockhash": "00000000000000000017f5eb5941039fbcee6240d03bc1f2f8e35350df66a1d8", "vout": [{"scriptPubKey": {"reqSigs": 1, "hex": "a91440a65efaed541499c7aa3d7e8f6111a9e59e084a87", "addresses": ["37arUUtvtnweucHyqgD7NmJRrfZJB3EoJU"], "asm": "OP_HASH160 40a65efaed541499c7aa3d7e8f6111a9e59e084a OP_EQUAL", "type": "scripthash"}, "value": 0.57370371, "n": 0}, {"scriptPubKey": {"reqSigs": 1, "hex": "a9144e0e3c9631c1340c1d592b7c26e22b8ce2dfe4a787", "addresses": ["38ojggpvWjvc2wXLg6C3LxYS8kDwNxSUtF"], "asm": "OP_HASH160 4e0e3c9631c1340c1d592b7c26e22b8ce2dfe4a7 OP_EQUAL", "type": "scripthash"}, "value": 0.05, "n": 1}], "hex": "0200000000010156184c69e03073b9305dae5f5cb80c51bdc6b3cfdcaaee30459a9ba2611c29630100000017160014b125d9c76f422ada48b599dfa5625baa4b9bf39efeffffff0203676b030000000017a91440a65efaed541499c7aa3d7e8f6111a9e59e084a87404b4c000000000017a9144e0e3c9631c1340c1d592b7c26e22b8ce2dfe4a78702483045022100b63146ac5c1495ce2ed707789d1d1b041ba646693e999144f5ae5f4c02e89faa022019aa523547153e13187ba7b66abd79f4e55b77ac5d9100e0a689f112097002fe0121031e73a4c1339845be2939a5be5a538e85948350b55ec832c8671c4a427a42ba6915490800", "vin": [{"txinwitness": ["3045022100b63146ac5c1495ce2ed707789d1d1b041ba646693e999144f5ae5f4c02e89faa022019aa523547153e13187ba7b66abd79f4e55b77ac5d9100e0a689f112097002fe01", "031e73a4c1339845be2939a5be5a538e85948350b55ec832c8671c4a427a42ba69"], "sequence": 4294967294, "scriptSig": {"hex": "160014b125d9c76f422ada48b599dfa5625baa4b9bf39e", "asm": "0014b125d9c76f422ada48b599dfa5625baa4b9bf39e"}, "vout": 1, "txid": "63291c61a29b9a4530eeaadccfb3c6bd510cb85c5fae5d30b97330e0694c1856"}], "txid": "b20b7d429659c5559123ff7daf0d35da6bbb99fff3a812c0944df966f8de5d06", "blocktime": 1537874412, "version": 2, "confirmations": 11468, "time": 1537874412, "locktime": 542997, "vsize": 166, "size": 248}