{"hash": "b210003a2e11d3ab0f522fad88a47bee544c9d072c98a38144f92cb6a863e328", "blockhash": "0000000000000000000e13cef7c366c0283d82e591d1acd082e914b08063cdf1", "vout": [{"scriptPubKey": {"reqSigs": 1, "hex": "a914b555755269f1e34afd79658cc94d240f2975a41487", "addresses": ["3JDpc1bTeVH5sW8rwZ58xThKUkneuUmz6J"], "asm": "OP_HASH160 b555755269f1e34afd79658cc94d240f2975a414 OP_EQUAL", "type": "scripthash"}, "value": 0.02531, "n": 0}, {"scriptPubKey": {"reqSigs": 1, "hex": "76a914c497bccd0df127f0549a627b4b0dca2137cb7e9a88ac", "addresses": ["1JvVDWK37RxMQcYFhENMsQCFFK1SEaS25R"], "asm": "OP_DUP OP_HASH160 c497bccd0df127f0549a627b4b0dca2137cb7e9a OP_EQUALVERIFY OP_CHECKSIG", "type": "pubkeyhash"}, "value": 0.585379, "n": 1}], "hex": "0100000001674e5dccccb1cba099dc2ceba00283caa4381d68d582153c64410e78cad9a3a5010000006b483045022100a36ccfc564bfdb157fe1df5e91bc7f32e4b952d7d1ddb64c700cd553bc2f946202200dab138e439fe46e8fb2187139500ccc49cce76c08111cf03e4e9d2bb9a926750121025de53d212670f44e61579e7c6932c1f8dc1e28c40011eb9057fb4597cf20e7a1feffffff02b89e26000000000017a914b555755269f1e34afd79658cc94d240f2975a41487ac377d03000000001976a914c497bccd0df127f0549a627b4b0dca2137cb7e9a88ac10490800", "vin": [{"sequence": 4294967294, "scriptSig": {"hex": "483045022100a36ccfc564bfdb157fe1df5e91bc7f32e4b952d7d1ddb64c700cd553bc2f946202200dab138e439fe46e8fb2187139500ccc49cce76c08111cf03e4e9d2bb9a926750121025de53d212670f44e61579e7c6932c1f8dc1e28c40011eb9057fb4597cf20e7a1", "asm": "3045022100a36ccfc564bfdb157fe1df5e91bc7f32e4b952d7d1ddb64c700cd553bc2f946202200dab138e439fe46e8fb2187139500ccc49cce76c08111cf03e4e9d2bb9a92675[ALL] 025de53d212670f44e61579e7c6932c1f8dc1e28c40011eb9057fb4597cf20e7a1"}, "vout": 1, "txid": "a5a3d9ca780e41643c1582d5681d38a4ca8302a0eb2cdc99a0cbb1cccc5d4e67"}], "txid": "b210003a2e11d3ab0f522fad88a47bee544c9d072c98a38144f92cb6a863e328", "blocktime": 1537871767, "version": 1, "confirmations": 11490, "time": 1537871767, "locktime": 542992, "vsize": 224, "size": 224}