{"hash": "b210390247d586cc5b44a6d2fe9fd3639b943549770554efb1c5f71fe40a7f69", "blockhash": "0000000000000000001cda96e906b7601b7a6fb1a3b62bca570a9e5d8f4b3de1", "vout": [{"scriptPubKey": {"reqSigs": 1, "hex": "76a91475c4dfa0ee3b8ebf067d3bf63c8b0fa1f3c0692f88ac", "addresses": ["1BjhuTaJwjZwjmeeQBAWrUBz8jMhQzZ6Kz"], "asm": "OP_DUP OP_HASH160 75c4dfa0ee3b8ebf067d3bf63c8b0fa1f3c0692f OP_EQUALVERIFY OP_CHECKSIG", "type": "pubkeyhash"}, "value": 0.00031226, "n": 0}, {"scriptPubKey": {"reqSigs": 1, "hex": "76a914238201c9f22b3562e2091779aafdde9f4954533e88ac", "addresses": ["14EkPkxgFMuZ3eZJSzS58YBXRWRC3b9Qkw"], "asm": "OP_DUP OP_HASH160 238201c9f22b3562e2091779aafdde9f4954533e OP_EQUALVERIFY OP_CHECKSIG", "type": "pubkeyhash"}, "value": 0.06639143, "n": 1}], "hex": "0200000001f0ad9194ef595ea1a095b497a67aa4d41ef6350b29cf873dcd4b07cc1538678b010000006a47304402201c384145a52649617e2b0757de5b21bc0036d3810f1dff4b75cbb3cf0c74b7f9022032823ada49bad1fa9f3e3488f185363e40fd37cfeeb3e8a2671c6fbe03b362b00121021f0f84f493e3573a8418aff4efbc291b991b143e68023064d68656cb6da6679dffffffff02fa790000000000001976a91475c4dfa0ee3b8ebf067d3bf63c8b0fa1f3c0692f88ac274e6500000000001976a914238201c9f22b3562e2091779aafdde9f4954533e88ac00000000", "vin": [{"sequence": 4294967295, "scriptSig": {"hex": "47304402201c384145a52649617e2b0757de5b21bc0036d3810f1dff4b75cbb3cf0c74b7f9022032823ada49bad1fa9f3e3488f185363e40fd37cfeeb3e8a2671c6fbe03b362b00121021f0f84f493e3573a8418aff4efbc291b991b143e68023064d68656cb6da6679d", "asm": "304402201c384145a52649617e2b0757de5b21bc0036d3810f1dff4b75cbb3cf0c74b7f9022032823ada49bad1fa9f3e3488f185363e40fd37cfeeb3e8a2671c6fbe03b362b0[ALL] 021f0f84f493e3573a8418aff4efbc291b991b143e68023064d68656cb6da6679d"}, "vout": 1, "txid": "8b673815cc074bcd3d87cf290b35f61ed4a47aa697b495a0a15e59ef9491adf0"}], "txid": "b210390247d586cc5b44a6d2fe9fd3639b943549770554efb1c5f71fe40a7f69", "blocktime": 1537873282, "version": 2, "confirmations": 11484, "time": 1537873282, "locktime": 0, "vsize": 225, "size": 225}