{"hash": "f3ecc2530820d0e42fd149fa2adb2ec53addb9b1c33b78d05813f61768beb2b2", "blockhash": "000000000000000000205f8b0775d31398ef75b89a5e8ec8d2c57b4dc0ac4c20", "vout": [{"scriptPubKey": {"reqSigs": 1, "hex": "a914ca80a197259c32bf176d272eb0911c0f000e5f6487", "addresses": ["3L9kWkGbXoW3XB2VKVdRSvedhbKqbezmDB"], "asm": "OP_HASH160 ca80a197259c32bf176d272eb0911c0f000e5f64 OP_EQUAL", "type": "scripthash"}, "value": 0.00355211, "n": 0}, {"scriptPubKey": {"reqSigs": 1, "hex": "a9145f0b2b15975bed61675e40830d7553823d590f8887", "addresses": ["3AMZVkikYKxUvKZuDP9TjinxD5m1smyttc"], "asm": "OP_HASH160 5f0b2b15975bed61675e40830d7553823d590f88 OP_EQUAL", "type": "scripthash"}, "value": 0.61461008, "n": 1}], "hex": "0200000000010165dab8ed5aae2670789979e3636c591fe7735ea6c4887149d163c5b6cfcabd640000000017160014ceff82b86cdce26c0304d2b68327b11b747428e9ffffffff028b6b05000000000017a914ca80a197259c32bf176d272eb0911c0f000e5f648710d2a9030000000017a9145f0b2b15975bed61675e40830d7553823d590f888702483045022100aad8b8bde965cfa20d2bcd5fee41395bb61f4f0eec511a4c806eb0f66f47c80802200547174f651ab7d07a4af814a8063c2da30d8186acf11ba0e0be8a30aabee74301210287ff061eb2fe659d3a4582d3e12dd254901c96c1c89266207dd2e57d7effe7b200000000", "vin": [{"txinwitness": ["3045022100aad8b8bde965cfa20d2bcd5fee41395bb61f4f0eec511a4c806eb0f66f47c80802200547174f651ab7d07a4af814a8063c2da30d8186acf11ba0e0be8a30aabee74301", "0287ff061eb2fe659d3a4582d3e12dd254901c96c1c89266207dd2e57d7effe7b2"], "sequence": 4294967295, "scriptSig": {"hex": "160014ceff82b86cdce26c0304d2b68327b11b747428e9", "asm": "0014ceff82b86cdce26c0304d2b68327b11b747428e9"}, "vout": 0, "txid": "64bdcacfb6c563d1497188c4a65e73e71f596c63e37999787026ae5aedb8da65"}], "txid": "b2158dc194417ca4209ad591c5fb6d848b11dd2ff5a39f7071170ec3c47d55d9", "blocktime": 1537871175, "version": 2, "confirmations": 11510, "time": 1537871175, "locktime": 0, "vsize": 166, "size": 248}