{"hash": "b21baec397cb31aacd249e78fd0a394d4d4148c0afa0e6dbf3215cc52962ab81", "blockhash": "0000000000000000000dcc0f55137456b1a82d3642486a52398922ac4d620174", "vout": [{"scriptPubKey": {"reqSigs": 1, "hex": "76a9140e5c404af189fee51f5687e29b77aef0b884fc9688ac", "addresses": ["12JvyQdfHjrPb6WY2yiz4ckmTyiUxpc2sN"], "asm": "OP_DUP OP_HASH160 0e5c404af189fee51f5687e29b77aef0b884fc96 OP_EQUALVERIFY OP_CHECKSIG", "type": "pubkeyhash"}, "value": 0.009768, "n": 0}, {"scriptPubKey": {"reqSigs": 1, "hex": "76a9147b728b8fb35acc03b5bb95dd5d5bfca8ce127b3688ac", "addresses": ["1CFjLLHUpEViM5HyHcHiQeFmyp8GiDbYfo"], "asm": "OP_DUP OP_HASH160 7b728b8fb35acc03b5bb95dd5d5bfca8ce127b36 OP_EQUALVERIFY OP_CHECKSIG", "type": "pubkeyhash"}, "value": 0.0111893, "n": 1}], "hex": "010000000191a198c03105da43cafbd272cdd905f3c3235670bd1133bdc524385bcf5b4db4400000006a47304402202eeb14f9ed19e1b9110e0278e6e0d90cabcc637f0090b491ec0a4ab81de70b2502204d433194e865255847275609f546d219c615455e5a19bfcdcd99b68a56506b1f012102dd30ffa8d4942de90fc813de77e9a334a27d9f3551d3cfa76b9f121ba925690cfdffffff02a0e70e00000000001976a9140e5c404af189fee51f5687e29b77aef0b884fc9688acd2121100000000001976a9147b728b8fb35acc03b5bb95dd5d5bfca8ce127b3688ac0c490800", "vin": [{"sequence": 4294967293, "scriptSig": {"hex": "47304402202eeb14f9ed19e1b9110e0278e6e0d90cabcc637f0090b491ec0a4ab81de70b2502204d433194e865255847275609f546d219c615455e5a19bfcdcd99b68a56506b1f012102dd30ffa8d4942de90fc813de77e9a334a27d9f3551d3cfa76b9f121ba925690c", "asm": "304402202eeb14f9ed19e1b9110e0278e6e0d90cabcc637f0090b491ec0a4ab81de70b2502204d433194e865255847275609f546d219c615455e5a19bfcdcd99b68a56506b1f[ALL] 02dd30ffa8d4942de90fc813de77e9a334a27d9f3551d3cfa76b9f121ba925690c"}, "vout": 64, "txid": "b44d5bcf5b3824c5bd3311bd705623c3f305d9cd72d2fbca43da0531c098a191"}], "txid": "b21baec397cb31aacd249e78fd0a394d4d4148c0afa0e6dbf3215cc52962ab81", "blocktime": 1537870268, "version": 1, "confirmations": 11516, "time": 1537870268, "locktime": 542988, "vsize": 225, "size": 225}