{"hash": "c4a3570e93405f78c12b38174a40fb0d60faa9f3f9e094cc52af7c860964e057", "blockhash": "0000000000000000001f76057863aec43deb6fa401d9628bb513d65a8098bfab", "vout": [{"scriptPubKey": {"reqSigs": 1, "hex": "76a914d042e5d6192b9fb4060a6a7dd02b8b084a6bd48a88ac", "addresses": ["1KzBh3PhEgsm2jxP9mK7TdAY2XEo4yijKr"], "asm": "OP_DUP OP_HASH160 d042e5d6192b9fb4060a6a7dd02b8b084a6bd48a OP_EQUALVERIFY OP_CHECKSIG", "type": "pubkeyhash"}, "value": 0.004858, "n": 0}, {"scriptPubKey": {"reqSigs": 1, "hex": "a91427a49a4be0707d8d7f6c43100e264fdf4ecff9ae87", "addresses": ["35JdTpfdot7q4LJt66NaNLGAWUEiXG75vE"], "asm": "OP_HASH160 27a49a4be0707d8d7f6c43100e264fdf4ecff9ae OP_EQUAL", "type": "scripthash"}, "value": 0.92856583, "n": 1}], "hex": "010000000001012fac7989bac2f5f4fd1395b5834fe8961e4cc3e5450beb211b5c97b5a8488e110100000023220020f7c2374310841987b30c5f958b7ba35662ef32784d120f9af158134bac1206feffffffff02a8690700000000001976a914d042e5d6192b9fb4060a6a7dd02b8b084a6bd48a88ac07e188050000000017a91427a49a4be0707d8d7f6c43100e264fdf4ecff9ae87040047304402207070b9ea9482cf4ebbb73816d72886038b10b141c9dfa31f955e7cd5c06975ed02201435abe1e2e4d22c96e43f4e83c5098ffdf0972c5394efccad494eda2b2f252901473044022062e38fbb453523a6c08c89d46904a12cb6aa9cf21d73cb19abdefcb3f802588e02204e4f87d2660c72ac056fc5d2947c859fde23ace719e7e4959a09159af4b05b43014752210274544b5e9f4fa6f5743b672133a8b9ab1021cbf04bff5ddb7520584a7622f134210238ed8ce664fdfaea67173f75f7d7667ddff50c2398048160c1c1b362bb0bb3e352ae00000000", "vin": [{"txinwitness": ["", "304402207070b9ea9482cf4ebbb73816d72886038b10b141c9dfa31f955e7cd5c06975ed02201435abe1e2e4d22c96e43f4e83c5098ffdf0972c5394efccad494eda2b2f252901", "3044022062e38fbb453523a6c08c89d46904a12cb6aa9cf21d73cb19abdefcb3f802588e02204e4f87d2660c72ac056fc5d2947c859fde23ace719e7e4959a09159af4b05b4301", "52210274544b5e9f4fa6f5743b672133a8b9ab1021cbf04bff5ddb7520584a7622f134210238ed8ce664fdfaea67173f75f7d7667ddff50c2398048160c1c1b362bb0bb3e352ae"], "sequence": 4294967295, "scriptSig": {"hex": "220020f7c2374310841987b30c5f958b7ba35662ef32784d120f9af158134bac1206fe", "asm": "0020f7c2374310841987b30c5f958b7ba35662ef32784d120f9af158134bac1206fe"}, "vout": 1, "txid": "118e48a8b5975c1b21eb0b45e5c34c1e96e84f83b59513fdf4f5c2ba8979ac2f"}], "txid": "b21ba829bb6810847e76287fb0147b3cafb76bae9360c1761269458c4ef677ba", "blocktime": 1537873891, "version": 1, "confirmations": 11478, "time": 1537873891, "locktime": 0, "vsize": 207, "size": 372}