{"hash": "82c236debf8567b928a784f57c426640b37c1f13377571cd3d4b180c16c5fb3c", "blockhash": "0000000000000000000e13cef7c366c0283d82e591d1acd082e914b08063cdf1", "vout": [{"scriptPubKey": {"reqSigs": 1, "hex": "a91414848c209ef035ea0346fffd4ae0b01aa9378bcc87", "addresses": ["33ZWDw5nueDMXXqLE6XG7zwmFoW8JNTZXB"], "asm": "OP_HASH160 14848c209ef035ea0346fffd4ae0b01aa9378bcc OP_EQUAL", "type": "scripthash"}, "value": 10.66335471, "n": 0}, {"scriptPubKey": {"reqSigs": 1, "hex": "76a914b069ca12704167c184d2b411b4f811d7adba46d988ac", "addresses": ["1H5nf8oszKKjGwAEnvf9PFitQmSuvZTZnK"], "asm": "OP_DUP OP_HASH160 b069ca12704167c184d2b411b4f811d7adba46d9 OP_EQUALVERIFY OP_CHECKSIG", "type": "pubkeyhash"}, "value": 0.059511, "n": 1}], "hex": "02000000000101b213bfb8f6f5fc46575460e0c21315e58d00a2cba527abb1994e381def439ecb0000000017160014fcea57ff296af328fe60ca7ccb4f47a6d46c3206feffffff02effc8e3f0000000017a91414848c209ef035ea0346fffd4ae0b01aa9378bcc877cce5a00000000001976a914b069ca12704167c184d2b411b4f811d7adba46d988ac02483045022100ca60c2ec5ecc9464af306a2258d013d6c8a157530968f0bf7c906f1c57326fa7022037cf7a72bb4c8dac4172bffcf9b36a909af94ece55fb52843e1c6456e3655be6012102a92a762cd3c59e46301762b53dc5c6273b63077f8a47652aecb93449ceba0f3c10490800", "vin": [{"txinwitness": ["3045022100ca60c2ec5ecc9464af306a2258d013d6c8a157530968f0bf7c906f1c57326fa7022037cf7a72bb4c8dac4172bffcf9b36a909af94ece55fb52843e1c6456e3655be601", "02a92a762cd3c59e46301762b53dc5c6273b63077f8a47652aecb93449ceba0f3c"], "sequence": 4294967294, "scriptSig": {"hex": "160014fcea57ff296af328fe60ca7ccb4f47a6d46c3206", "asm": "0014fcea57ff296af328fe60ca7ccb4f47a6d46c3206"}, "vout": 0, "txid": "cb9e43ef1d384e99b1ab27a5cba2008de51513c2e060545746fcf5f6b8bf13b2"}], "txid": "b2220f0599a0242a7819289e861b6222398fab53f2b041927dbcb8a1862cfaf9", "blocktime": 1537871767, "version": 2, "confirmations": 11495, "time": 1537871767, "locktime": 542992, "vsize": 168, "size": 250}