{"hash": "3bb0549f10573c0a09b2c36d08d8a48ae069e32a34e39dc7deb9bfd240d59132", "blockhash": "0000000000000000000e13cef7c366c0283d82e591d1acd082e914b08063cdf1", "vout": [{"scriptPubKey": {"reqSigs": 1, "hex": "76a9149a1b8f9b1fa2d2297863adb1cb11c71df455684888ac", "addresses": ["1F3r5We2zwNiSzG6GQUTTWnnPMCz2HJbJu"], "asm": "OP_DUP OP_HASH160 9a1b8f9b1fa2d2297863adb1cb11c71df4556848 OP_EQUALVERIFY OP_CHECKSIG", "type": "pubkeyhash"}, "value": 2.745e-05, "n": 0}, {"scriptPubKey": {"reqSigs": 1, "hex": "a914e8db75c900cf08f06518e96d167331f2a4abfb3387", "addresses": ["3NvFbQMAkkqEFj4i1sYPPLkSWzxTFUchjA"], "asm": "OP_HASH160 e8db75c900cf08f06518e96d167331f2a4abfb33 OP_EQUAL", "type": "scripthash"}, "value": 3.063e-05, "n": 1}], "hex": "010000000001016e4c97e7281b76f79f203a7cd222d1286fe01fd52d8e31bdb24bb5ee8449e7c20000000023220020941cfaff8837763dc1f69ff82b6d6553fdea17a41cfc29a04403293eedd8ccc7ffffffff02b90a0000000000001976a9149a1b8f9b1fa2d2297863adb1cb11c71df455684888acf70b00000000000017a914e8db75c900cf08f06518e96d167331f2a4abfb3387040047304402203f36f2ebf28b391ad45cb9c0aa44c3213d87993d8960d052922ae45cb5603fdd022074a6d9d941d331572443601d4de3bab5775666e15fab57e882dc8eb63c86b39a01483045022100e27cea5a357250d8098f2b4a3b195d8c08ded7980f5fb7e2c50e1e25701b72e402207ffd699927f17a876b94a04cb2ef434d1244e38fbf9dfa5b65e36533a49981050147522102531db3a5883f29bab4241dd0cd726936667bcda445d89bdd22244e828b6993342103148c80a5bdfddb05ff5bcffc397c8ca748d8b435ec6a175bc9d7bfc7fc6f853752ae00000000", "vin": [{"txinwitness": ["", "304402203f36f2ebf28b391ad45cb9c0aa44c3213d87993d8960d052922ae45cb5603fdd022074a6d9d941d331572443601d4de3bab5775666e15fab57e882dc8eb63c86b39a01", "3045022100e27cea5a357250d8098f2b4a3b195d8c08ded7980f5fb7e2c50e1e25701b72e402207ffd699927f17a876b94a04cb2ef434d1244e38fbf9dfa5b65e36533a499810501", "522102531db3a5883f29bab4241dd0cd726936667bcda445d89bdd22244e828b6993342103148c80a5bdfddb05ff5bcffc397c8ca748d8b435ec6a175bc9d7bfc7fc6f853752ae"], "sequence": 4294967295, "scriptSig": {"hex": "220020941cfaff8837763dc1f69ff82b6d6553fdea17a41cfc29a04403293eedd8ccc7", "asm": "0020941cfaff8837763dc1f69ff82b6d6553fdea17a41cfc29a04403293eedd8ccc7"}, "vout": 0, "txid": "c2e74984eeb54bb2bd318e2dd51fe06f28d122d27c3a209ff7761b28e7974c6e"}], "txid": "b226cbdb2df154a1a593caee198fbecafea4961fd275b8694d6c6fcdcd361e78", "blocktime": 1537871767, "version": 1, "confirmations": 11495, "time": 1537871767, "locktime": 0, "vsize": 208, "size": 373}