{"hash": "b22860bcb2f15eb8f744e4d7ff3125d217461a9b04ce3fb7cb356adf2a50a703", "blockhash": "00000000000000000017f5eb5941039fbcee6240d03bc1f2f8e35350df66a1d8", "vout": [{"scriptPubKey": {"reqSigs": 1, "hex": "76a91460a19f9da0ccc1004cae57b0a95474952ec3e89488ac", "addresses": ["19owVDNYNUStdsAF2SsYtVkVzhH5w2NWZg"], "asm": "OP_DUP OP_HASH160 60a19f9da0ccc1004cae57b0a95474952ec3e894 OP_EQUALVERIFY OP_CHECKSIG", "type": "pubkeyhash"}, "value": 0.0001, "n": 0}, {"scriptPubKey": {"reqSigs": 1, "hex": "76a9144db1fddac1cbc4a6a05762f811a18e0e4557365488ac", "addresses": ["185pFr37PzgYxyWi2jtGoQWSoVUrz242N7"], "asm": "OP_DUP OP_HASH160 4db1fddac1cbc4a6a05762f811a18e0e45573654 OP_EQUALVERIFY OP_CHECKSIG", "type": "pubkeyhash"}, "value": 0.0008692, "n": 1}], "hex": "010000000130a9ce98748212aac6882a2a2093039047d85876a849cd51d709ac00fc931f7a000000006b483045022100d03cdf39a56d66af0e80c343ba0fb801fed678825a8e2d4e16fcd9408889c1ee022049363ff99ebe2fd00c41bde681001029c0a1af799c15f16574d930d8841a7346012102d86a4f00e8be840fbfae51ad8546d93b5731549f369ff9a53eb1c1f995ecb6c6ffffffff0210270000000000001976a91460a19f9da0ccc1004cae57b0a95474952ec3e89488ac88530100000000001976a9144db1fddac1cbc4a6a05762f811a18e0e4557365488ac00000000", "vin": [{"sequence": 4294967295, "scriptSig": {"hex": "483045022100d03cdf39a56d66af0e80c343ba0fb801fed678825a8e2d4e16fcd9408889c1ee022049363ff99ebe2fd00c41bde681001029c0a1af799c15f16574d930d8841a7346012102d86a4f00e8be840fbfae51ad8546d93b5731549f369ff9a53eb1c1f995ecb6c6", "asm": "3045022100d03cdf39a56d66af0e80c343ba0fb801fed678825a8e2d4e16fcd9408889c1ee022049363ff99ebe2fd00c41bde681001029c0a1af799c15f16574d930d8841a7346[ALL] 02d86a4f00e8be840fbfae51ad8546d93b5731549f369ff9a53eb1c1f995ecb6c6"}, "vout": 0, "txid": "7a1f93fc00ac09d751cd49a87658d847900393202a2a88c6aa12827498cea930"}], "txid": "b22860bcb2f15eb8f744e4d7ff3125d217461a9b04ce3fb7cb356adf2a50a703", "blocktime": 1537874412, "version": 1, "confirmations": 11467, "time": 1537874412, "locktime": 0, "vsize": 226, "size": 226}