{"hash": "b22f0d0cb3ca05f7133c76e2742d2e2ba209c7816366470d28956c7a2a604682", "blockhash": "0000000000000000001cda96e906b7601b7a6fb1a3b62bca570a9e5d8f4b3de1", "vout": [{"scriptPubKey": {"reqSigs": 1, "hex": "76a91485080f4d1fdc3ed14cea15daecbb872806cd695a88ac", "addresses": ["1D8QXWwEmzouwEYQ14b2dup5KctuppFhfp"], "asm": "OP_DUP OP_HASH160 85080f4d1fdc3ed14cea15daecbb872806cd695a OP_EQUALVERIFY OP_CHECKSIG", "type": "pubkeyhash"}, "value": 0.00146191, "n": 0}, {"scriptPubKey": {"reqSigs": 1, "hex": "a914058928135cc2c732bddbe83f97416fe43c714a0987", "addresses": ["32CHcJkAgtHDLYK5rmvs5Nvn2s25BmhDsc"], "asm": "OP_HASH160 058928135cc2c732bddbe83f97416fe43c714a09 OP_EQUAL", "type": "scripthash"}, "value": 0.052, "n": 1}], "hex": "0100000002970ed796df137a78f2a8fe45a85a64a4b9947f0bfac74fd809a51c387b7f853e000000006a473044022020d86d8b0e306fe5c3834acf0e2895cabe5845d9c6db1dbd551b14310ac0a121022033da547b09e9521acc6d82c927e8ef8dd3d407da310dbc3cb84d9512ca36396401210370a19db48f190836aa082523d8d10a19d90c466d4f0f55876842c9fc7e234266ffffffffd372761480a6f8ce0af632cbc5932e8b125a86ffe7085c87135d38db1d686d8d000000006b483045022100d46ce93d5436dd1ad3ce86134fa301c49729cc88059d07cb00a6b20b1513f63b0220028c5c6367179b104e60d50fdc89a1fa557bd2cd2c9038f10c5c0f51561a116f012102d29f39dff60d382cd62f3c425bb8489198248a2d0ce0188187cfe6815af845c5ffffffff020f3b0200000000001976a91485080f4d1fdc3ed14cea15daecbb872806cd695a88ac80584f000000000017a914058928135cc2c732bddbe83f97416fe43c714a098700000000", "vin": [{"sequence": 4294967295, "scriptSig": {"hex": "473044022020d86d8b0e306fe5c3834acf0e2895cabe5845d9c6db1dbd551b14310ac0a121022033da547b09e9521acc6d82c927e8ef8dd3d407da310dbc3cb84d9512ca36396401210370a19db48f190836aa082523d8d10a19d90c466d4f0f55876842c9fc7e234266", "asm": "3044022020d86d8b0e306fe5c3834acf0e2895cabe5845d9c6db1dbd551b14310ac0a121022033da547b09e9521acc6d82c927e8ef8dd3d407da310dbc3cb84d9512ca363964[ALL] 0370a19db48f190836aa082523d8d10a19d90c466d4f0f55876842c9fc7e234266"}, "vout": 0, "txid": "3e857f7b381ca509d84fc7fa0b7f94b9a4645aa845fea8f2787a13df96d70e97"}, {"sequence": 4294967295, "scriptSig": {"hex": "483045022100d46ce93d5436dd1ad3ce86134fa301c49729cc88059d07cb00a6b20b1513f63b0220028c5c6367179b104e60d50fdc89a1fa557bd2cd2c9038f10c5c0f51561a116f012102d29f39dff60d382cd62f3c425bb8489198248a2d0ce0188187cfe6815af845c5", "asm": "3045022100d46ce93d5436dd1ad3ce86134fa301c49729cc88059d07cb00a6b20b1513f63b0220028c5c6367179b104e60d50fdc89a1fa557bd2cd2c9038f10c5c0f51561a116f[ALL] 02d29f39dff60d382cd62f3c425bb8489198248a2d0ce0188187cfe6815af845c5"}, "vout": 0, "txid": "8d6d681ddb385d13875c08e7ff865a128b2e93c5cb32f60acef8a680147672d3"}], "txid": "b22f0d0cb3ca05f7133c76e2742d2e2ba209c7816366470d28956c7a2a604682", "blocktime": 1537873282, "version": 1, "confirmations": 11481, "time": 1537873282, "locktime": 0, "vsize": 371, "size": 371}