{"hash": "8ce1824ce539f174bf5fe96f0e628e97cfd33158635f75324e59b56d0693d0f4", "blockhash": "00000000000000000018f53835495a110e01622372bf6ae95dc86f2b0ab887b0", "vout": [{"scriptPubKey": {"reqSigs": 1, "hex": "a9142383b96a56a66cd1fdfd58c7a5cdd44f6a0d731a87", "addresses": ["34voNcyrJ862R7cHBcKE5VfPbjbWKTZoWm"], "asm": "OP_HASH160 2383b96a56a66cd1fdfd58c7a5cdd44f6a0d731a OP_EQUAL", "type": "scripthash"}, "value": 0.08240321, "n": 0}, {"scriptPubKey": {"reqSigs": 1, "hex": "a914c68d2073edebe0d0a82559d5ca35bf0f1f2988f387", "addresses": ["3KnrnBjv6i6kkDGh6Y2f9E8orwLKkQvPRx"], "asm": "OP_HASH160 c68d2073edebe0d0a82559d5ca35bf0f1f2988f3 OP_EQUAL", "type": "scripthash"}, "value": 0.39153487, "n": 1}], "hex": "02000000000101bda9ce045ddb716d4437bda1aa822ae6114a83fa125d231d8af3396cc27b5ec9010000001716001484879128d8f98d9b17e94241478e12d8037a85bcffffffff02c1bc7d000000000017a9142383b96a56a66cd1fdfd58c7a5cdd44f6a0d731a874f6f55020000000017a914c68d2073edebe0d0a82559d5ca35bf0f1f2988f3870247304402201d87cc0474af7fdd58ea44a28c0dd8a44d69f4c8c3a9f1d4a73e3f0e0c2d787402207d0130bf2ba057bd7c06aff42e578b8ab06833afac268016479faa0e9a37a8c301210296244ba77a8f43cc8f8e27b30b3b346eb42ec13a01b768f8a7adfc5cfd26656f00000000", "vin": [{"txinwitness": ["304402201d87cc0474af7fdd58ea44a28c0dd8a44d69f4c8c3a9f1d4a73e3f0e0c2d787402207d0130bf2ba057bd7c06aff42e578b8ab06833afac268016479faa0e9a37a8c301", "0296244ba77a8f43cc8f8e27b30b3b346eb42ec13a01b768f8a7adfc5cfd26656f"], "sequence": 4294967295, "scriptSig": {"hex": "16001484879128d8f98d9b17e94241478e12d8037a85bc", "asm": "001484879128d8f98d9b17e94241478e12d8037a85bc"}, "vout": 1, "txid": "c95e7bc26c39f38a1d235d12fa834a11e62a82aaa1bd37446d71db5d04cea9bd"}], "txid": "b23613aeda2cdd29b1cb3153914f26bf1e86501253e49217af497329bbe6ee18", "blocktime": 1537870928, "version": 2, "confirmations": 11512, "time": 1537870928, "locktime": 0, "vsize": 166, "size": 247}