{"hash": "f5eb32a74512480befa90484a465e2b7d3d6e50639409c9b729e10526af10972", "blockhash": "0000000000000000001cda96e906b7601b7a6fb1a3b62bca570a9e5d8f4b3de1", "vout": [{"scriptPubKey": {"reqSigs": 1, "hex": "76a914edf10a7fac6b32e24daa5305c723f3de58db1bc888ac", "addresses": ["1Nh7uHdvY6fNwtQtM1G5EZAFPLC33B59rB"], "asm": "OP_DUP OP_HASH160 edf10a7fac6b32e24daa5305c723f3de58db1bc8 OP_EQUALVERIFY OP_CHECKSIG", "type": "pubkeyhash"}, "value": 12.64129665, "n": 0}, {"scriptPubKey": {"type": "nulldata", "hex": "6a24aa21a9ed45597b90095c132d12e603411e4b1445aa500a39f5114cb17194b06f1425aadc", "asm": "OP_RETURN aa21a9ed45597b90095c132d12e603411e4b1445aa500a39f5114cb17194b06f1425aadc"}, "value": 0.0, "n": 1}], "hex": "010000000001010000000000000000000000000000000000000000000000000000000000000000ffffffff5103144908184d696e656420627920416e74506f6f6c37380c205baa1582fabe6d6db0cd614c254fc6c87c44e0cb1eefce6724bd3b83b6bc17af08148c533e26e4030400000000000000bb620000006d0200ffffffff028116594b000000001976a914edf10a7fac6b32e24daa5305c723f3de58db1bc888ac0000000000000000266a24aa21a9ed45597b90095c132d12e603411e4b1445aa500a39f5114cb17194b06f1425aadc0120000000000000000000000000000000000000000000000000000000000000000000000000", "vin": [{"coinbase": "03144908184d696e656420627920416e74506f6f6c37380c205baa1582fabe6d6db0cd614c254fc6c87c44e0cb1eefce6724bd3b83b6bc17af08148c533e26e4030400000000000000bb620000006d0200", "sequence": 4294967295}], "txid": "b2399a959b827f87b7cd1afab96e8e904e2be0fa84a60601acd8dd5081fa9e4f", "blocktime": 1537873282, "version": 1, "confirmations": 11480, "time": 1537873282, "locktime": 0, "vsize": 222, "size": 249}