{"hash": "b239dc23d371bc3b21646e10f04d47d5be90a6d970b41b211577bcef9ca9129b", "blockhash": "0000000000000000001cda96e906b7601b7a6fb1a3b62bca570a9e5d8f4b3de1", "vout": [{"scriptPubKey": {"reqSigs": 1, "hex": "76a9145af90d4e18413b258631d3caf99069d9cddc035d88ac", "addresses": ["19J2AhZ3YG1yFPacQ3AG76Z5gyERQP5F1s"], "asm": "OP_DUP OP_HASH160 5af90d4e18413b258631d3caf99069d9cddc035d OP_EQUALVERIFY OP_CHECKSIG", "type": "pubkeyhash"}, "value": 0.009387, "n": 0}, {"scriptPubKey": {"reqSigs": 1, "hex": "76a914c756fc8a0413f537d6d4fc745984145925492ea088ac", "addresses": ["1KB1g6rTG5sDaDmLfMFmrMPkiEA1PbcCeM"], "asm": "OP_DUP OP_HASH160 c756fc8a0413f537d6d4fc745984145925492ea0 OP_EQUALVERIFY OP_CHECKSIG", "type": "pubkeyhash"}, "value": 0.00075553, "n": 1}], "hex": "0100000001e92127d863577f9c136815ede1387e6be906bb02c37733680f21531f14987e23000000006b4830450221008f04cf4fa7d4c2ce95ff457c260409577e639695168820a2298045a3b9dd777202205f0b89e5402fa5bb05855856c26574f86b4888e0e2b5334ffbdec646a4e9253f012103cc79d0b4de19f1bcc93d54e0ecef5a51b59a426bb660895bb7766865d2c65a1effffffff02cc520e00000000001976a9145af90d4e18413b258631d3caf99069d9cddc035d88ac21270100000000001976a914c756fc8a0413f537d6d4fc745984145925492ea088ac00000000", "vin": [{"sequence": 4294967295, "scriptSig": {"hex": "4830450221008f04cf4fa7d4c2ce95ff457c260409577e639695168820a2298045a3b9dd777202205f0b89e5402fa5bb05855856c26574f86b4888e0e2b5334ffbdec646a4e9253f012103cc79d0b4de19f1bcc93d54e0ecef5a51b59a426bb660895bb7766865d2c65a1e", "asm": "30450221008f04cf4fa7d4c2ce95ff457c260409577e639695168820a2298045a3b9dd777202205f0b89e5402fa5bb05855856c26574f86b4888e0e2b5334ffbdec646a4e9253f[ALL] 03cc79d0b4de19f1bcc93d54e0ecef5a51b59a426bb660895bb7766865d2c65a1e"}, "vout": 0, "txid": "237e98141f53210f683377c302bb06e96b7e38e1ed1568139c7f5763d82721e9"}], "txid": "b239dc23d371bc3b21646e10f04d47d5be90a6d970b41b211577bcef9ca9129b", "blocktime": 1537873282, "version": 1, "confirmations": 11485, "time": 1537873282, "locktime": 0, "vsize": 226, "size": 226}