{"hash": "b239f94dffe7315998b0ead222db9f5b055ae1cae7bdf9db9676ec1f863aefee", "blockhash": "00000000000000000004ffacab907a6b429b9a5745fa0b75af4234bf69dd7176", "vout": [{"scriptPubKey": {"reqSigs": 1, "hex": "76a9149dda2bf85df3dcacf065898f91727b442a5c10ee88ac", "addresses": ["1FPeSxW3ndr1LRq5KP4NKh7WNvf6kB2U5k"], "asm": "OP_DUP OP_HASH160 9dda2bf85df3dcacf065898f91727b442a5c10ee OP_EQUALVERIFY OP_CHECKSIG", "type": "pubkeyhash"}, "value": 0.03252272, "n": 0}, {"scriptPubKey": {"reqSigs": 1, "hex": "76a91489f61b9983caf0266337e1cb1f2c6459d04f57f888ac", "addresses": ["1DaUQ9mshXsfZrwDsVH2gf7AcBTcLiZ1UT"], "asm": "OP_DUP OP_HASH160 89f61b9983caf0266337e1cb1f2c6459d04f57f8 OP_EQUALVERIFY OP_CHECKSIG", "type": "pubkeyhash"}, "value": 0.1172328, "n": 1}], "hex": "0100000001e0057d1b6cb6d94e04274d4c52bfe0af13dbffafac753c868ee80503dee8eab8010000006b483045022100e27420faf1498071898a59bf5f1f6cd83c8da4296f0966f96f5660509d5a58bf022054a07e0ef485209932a5cf08f0c1d70c9fe009df8f06ada65db07bc5266437c301210369408c0360cf58836456a76aa5298166bbcf7dd583142a9e9000a73f59b1a203ffffffff0230a03100000000001976a9149dda2bf85df3dcacf065898f91727b442a5c10ee88ac10e2b200000000001976a91489f61b9983caf0266337e1cb1f2c6459d04f57f888ac00000000", "vin": [{"sequence": 4294967295, "scriptSig": {"hex": "483045022100e27420faf1498071898a59bf5f1f6cd83c8da4296f0966f96f5660509d5a58bf022054a07e0ef485209932a5cf08f0c1d70c9fe009df8f06ada65db07bc5266437c301210369408c0360cf58836456a76aa5298166bbcf7dd583142a9e9000a73f59b1a203", "asm": "3045022100e27420faf1498071898a59bf5f1f6cd83c8da4296f0966f96f5660509d5a58bf022054a07e0ef485209932a5cf08f0c1d70c9fe009df8f06ada65db07bc5266437c3[ALL] 0369408c0360cf58836456a76aa5298166bbcf7dd583142a9e9000a73f59b1a203"}, "vout": 1, "txid": "b8eae8de0305e88e863c75acafffdb13afe0bf524c4d27044ed9b66c1b7d05e0"}], "txid": "b239f94dffe7315998b0ead222db9f5b055ae1cae7bdf9db9676ec1f863aefee", "blocktime": 1537875543, "version": 1, "confirmations": 11464, "time": 1537875543, "locktime": 0, "vsize": 226, "size": 226}