{"hash": "b23ae48cc8e8a81b44457dbcbd6c5979182b1549d738a56e79725356635a6a5c", "blockhash": "0000000000000000000baef3f32e3676a92c3b2e5da21b426e4f302fc371ce76", "vout": [{"scriptPubKey": {"reqSigs": 1, "hex": "a914193ef7c1ce41d7fa0a64d976ebc2e79e98e9794f87", "addresses": ["33zWFRFrvvL81r1JqbNAHKpkPeaZaaYw7b"], "asm": "OP_HASH160 193ef7c1ce41d7fa0a64d976ebc2e79e98e9794f OP_EQUAL", "type": "scripthash"}, "value": 0.01348131, "n": 0}], "hex": "01000000018afb83d44ed8a27f50b517e5fe8fd8def2b0c59c0714d326489943c2859c34290c0000006b483045022100df2b9366e187f2cafa6093b459fef50e3f7b212c45c51d34e86c395015b2701c02207064b28d602e17ca0f7e909491b7f2e78936ce2eeca053a0a25d170a06f9ef130121024e36eec42643a73764393cd55ab20bea38835f402879bac37f56d43e307af647ffffffff01239214000000000017a914193ef7c1ce41d7fa0a64d976ebc2e79e98e9794f8700000000", "vin": [{"sequence": 4294967295, "scriptSig": {"hex": "483045022100df2b9366e187f2cafa6093b459fef50e3f7b212c45c51d34e86c395015b2701c02207064b28d602e17ca0f7e909491b7f2e78936ce2eeca053a0a25d170a06f9ef130121024e36eec42643a73764393cd55ab20bea38835f402879bac37f56d43e307af647", "asm": "3045022100df2b9366e187f2cafa6093b459fef50e3f7b212c45c51d34e86c395015b2701c02207064b28d602e17ca0f7e909491b7f2e78936ce2eeca053a0a25d170a06f9ef13[ALL] 024e36eec42643a73764393cd55ab20bea38835f402879bac37f56d43e307af647"}, "vout": 12, "txid": "29349c85c243994826d314079cc5b0f2ded88ffee517b5507fa2d84ed483fb8a"}], "txid": "b23ae48cc8e8a81b44457dbcbd6c5979182b1549d738a56e79725356635a6a5c", "blocktime": 1537876114, "version": 1, "confirmations": 11459, "time": 1537876114, "locktime": 0, "vsize": 190, "size": 190}