{"hash": "b2442fdd5c029fe957ff8338e496e82b6e425e3dfb7d86a56cf4e15374c8ddd5", "blockhash": "0000000000000000000e13cef7c366c0283d82e591d1acd082e914b08063cdf1", "vout": [{"scriptPubKey": {"reqSigs": 1, "hex": "a9146ca2298a975dca2f4eb4fdefb012929661413f3287", "addresses": ["3BbRAVaaAUZRWKyk1HyNXtAhnmsyQPk689"], "asm": "OP_HASH160 6ca2298a975dca2f4eb4fdefb012929661413f32 OP_EQUAL", "type": "scripthash"}, "value": 100.0, "n": 0}, {"scriptPubKey": {"reqSigs": 1, "hex": "a91490c04eee58ad8bb65e3b01dbdb2bf17e98c7c0ec87", "addresses": ["3EtPbz2J8aNNHTGzncLx4HSzJNZqA1VUNW"], "asm": "OP_HASH160 90c04eee58ad8bb65e3b01dbdb2bf17e98c7c0ec OP_EQUAL", "type": "scripthash"}, "value": 3.88251105, "n": 1}], "hex": "01000000071b922fcd7a7e6df6d1f4001c5bde824256fcb8fb79561bace61f12281a45c60a010000006f004730440220482bb18022349a0c1a62d7bf2b6aac8c005657ddc980898e30bf75c3beffc695022046bbfc258e4d37616a80524889691872fcb24904959b22891ec142162bcefaab0125512103eabd0bfec2a9d92259aa31cafbd7e9bf557596c8c13676c78eb345118874091a51aeffffffff7801d6474b216d59bea398c32c840f3de4ee5215367e86a72b8b2c7569102e5d000000006f0047304402200a8e56b5d6ecf73b7f3e6468686f25a736d2c3c282114228fb1cf28fba4117be02207c5be784f9c0bb1615e798e51e7abb26905d271362414cd63b476c09f3c5e1ad0125512103eabd0bfec2a9d92259aa31cafbd7e9bf557596c8c13676c78eb345118874091a51aeffffffffb777b7e58b9bdedd382f6436a3297af4a2688981c8305c33a02485e2d4e7a925010000006f004730440220440aa6e3e17a306411f5d5a978b97ab81063aad7cbccdf169fd1d4ab32e82e6d02200b1f121c7251e1a9def51594925600776f070786f4ecc3a9fbc0c30b28bdcdb70125512103eabd0bfec2a9d92259aa31cafbd7e9bf557596c8c13676c78eb345118874091a51aeffffffffe6700b31055d50595a9484c2833bae1424cba3c9c7a2feacdb9c28964fb3e77f000000006f0047304402207d05076934fbc062c0cc6d85bfaad6ca3b19bdc2514c5ee385c08510870b1b3402202ae27dbe55755b749c7c7dbf37bb92c02eba4258163005d91f226d61f780e4d60125512103eabd0bfec2a9d92259aa31cafbd7e9bf557596c8c13676c78eb345118874091a51aeffffffff78a1270ef7e1c43a6048dc44b50369ba92dbe0e4ecaac9499f3e8ba115d4f71e000000007000483045022100d37dc397bd89b7a7cbc8a2adc9ee7095864e8b2915760ebf54395d153c54d31102204293fc3b5b7e905272fb36373fceba22d7133f037c0bc3c5300198941c9fca8c0125512103eabd0bfec2a9d92259aa31cafbd7e9bf557596c8c13676c78eb345118874091a51aeffffffffc276bfc3a0ebeaa5d5a6090e560ddee241654b0fb1b31cce74886f308d69bcb900000000700048304502210091f3603ed9c2448c16bc858cc10b9d45762bccb925bb275e42c39ea7d23e96720220443dd0b2b9cdf150a35e30a1418ff195ef5a76d7540fbcba3d6ed587b33b3d3a0125512103bc9515cf995daca18583006a37e8b6ea90e2b3a5d0cfb2ed84eab55bf5723bc151aeffffffff75fe07f5a3e2d1a87cfac394a456a25d0a28785a0099e0d88da635e1b67c87360000000070004830450221008bc347beeb93a991789227b6a737999fca6ca5487aa4d76304c7e3971ea55775022001f7227a3f1f25d721fae3b62b4c680be35055dfb44d077dcb94c8d80bb042ab0125512103eabd0bfec2a9d92259aa31cafbd7e9bf557596c8c13676c78eb345118874091a51aeffffffff0200e40b540200000017a9146ca2298a975dca2f4eb4fdefb012929661413f3287e13d24170000000017a91490c04eee58ad8bb65e3b01dbdb2bf17e98c7c0ec8700000000", "vin": [{"sequence": 4294967295, "scriptSig": {"hex": "004730440220482bb18022349a0c1a62d7bf2b6aac8c005657ddc980898e30bf75c3beffc695022046bbfc258e4d37616a80524889691872fcb24904959b22891ec142162bcefaab0125512103eabd0bfec2a9d92259aa31cafbd7e9bf557596c8c13676c78eb345118874091a51ae", "asm": "0 30440220482bb18022349a0c1a62d7bf2b6aac8c005657ddc980898e30bf75c3beffc695022046bbfc258e4d37616a80524889691872fcb24904959b22891ec142162bcefaab[ALL] 512103eabd0bfec2a9d92259aa31cafbd7e9bf557596c8c13676c78eb345118874091a51ae"}, "vout": 1, "txid": "0ac6451a28121fe6ac1b5679fbb8fc564282de5b1c00f4d1f66d7e7acd2f921b"}, {"sequence": 4294967295, "scriptSig": {"hex": "0047304402200a8e56b5d6ecf73b7f3e6468686f25a736d2c3c282114228fb1cf28fba4117be02207c5be784f9c0bb1615e798e51e7abb26905d271362414cd63b476c09f3c5e1ad0125512103eabd0bfec2a9d92259aa31cafbd7e9bf557596c8c13676c78eb345118874091a51ae", "asm": "0 304402200a8e56b5d6ecf73b7f3e6468686f25a736d2c3c282114228fb1cf28fba4117be02207c5be784f9c0bb1615e798e51e7abb26905d271362414cd63b476c09f3c5e1ad[ALL] 512103eabd0bfec2a9d92259aa31cafbd7e9bf557596c8c13676c78eb345118874091a51ae"}, "vout": 0, "txid": "5d2e1069752c8b2ba7867e361552eee43d0f842cc398a3be596d214b47d60178"}, {"sequence": 4294967295, "scriptSig": {"hex": "004730440220440aa6e3e17a306411f5d5a978b97ab81063aad7cbccdf169fd1d4ab32e82e6d02200b1f121c7251e1a9def51594925600776f070786f4ecc3a9fbc0c30b28bdcdb70125512103eabd0bfec2a9d92259aa31cafbd7e9bf557596c8c13676c78eb345118874091a51ae", "asm": "0 30440220440aa6e3e17a306411f5d5a978b97ab81063aad7cbccdf169fd1d4ab32e82e6d02200b1f121c7251e1a9def51594925600776f070786f4ecc3a9fbc0c30b28bdcdb7[ALL] 512103eabd0bfec2a9d92259aa31cafbd7e9bf557596c8c13676c78eb345118874091a51ae"}, "vout": 1, "txid": "25a9e7d4e28524a0335c30c8818968a2f47a29a336642f38ddde9b8be5b777b7"}, {"sequence": 4294967295, "scriptSig": {"hex": "0047304402207d05076934fbc062c0cc6d85bfaad6ca3b19bdc2514c5ee385c08510870b1b3402202ae27dbe55755b749c7c7dbf37bb92c02eba4258163005d91f226d61f780e4d60125512103eabd0bfec2a9d92259aa31cafbd7e9bf557596c8c13676c78eb345118874091a51ae", "asm": "0 304402207d05076934fbc062c0cc6d85bfaad6ca3b19bdc2514c5ee385c08510870b1b3402202ae27dbe55755b749c7c7dbf37bb92c02eba4258163005d91f226d61f780e4d6[ALL] 512103eabd0bfec2a9d92259aa31cafbd7e9bf557596c8c13676c78eb345118874091a51ae"}, "vout": 0, "txid": "7fe7b34f96289cdbacfea2c7c9a3cb2414ae3b83c284945a59505d05310b70e6"}, {"sequence": 4294967295, "scriptSig": {"hex": "00483045022100d37dc397bd89b7a7cbc8a2adc9ee7095864e8b2915760ebf54395d153c54d31102204293fc3b5b7e905272fb36373fceba22d7133f037c0bc3c5300198941c9fca8c0125512103eabd0bfec2a9d92259aa31cafbd7e9bf557596c8c13676c78eb345118874091a51ae", "asm": "0 3045022100d37dc397bd89b7a7cbc8a2adc9ee7095864e8b2915760ebf54395d153c54d31102204293fc3b5b7e905272fb36373fceba22d7133f037c0bc3c5300198941c9fca8c[ALL] 512103eabd0bfec2a9d92259aa31cafbd7e9bf557596c8c13676c78eb345118874091a51ae"}, "vout": 0, "txid": "1ef7d415a18b3e9f49c9aaece4e0db92ba6903b544dc48603ac4e1f70e27a178"}, {"sequence": 4294967295, "scriptSig": {"hex": "0048304502210091f3603ed9c2448c16bc858cc10b9d45762bccb925bb275e42c39ea7d23e96720220443dd0b2b9cdf150a35e30a1418ff195ef5a76d7540fbcba3d6ed587b33b3d3a0125512103bc9515cf995daca18583006a37e8b6ea90e2b3a5d0cfb2ed84eab55bf5723bc151ae", "asm": "0 304502210091f3603ed9c2448c16bc858cc10b9d45762bccb925bb275e42c39ea7d23e96720220443dd0b2b9cdf150a35e30a1418ff195ef5a76d7540fbcba3d6ed587b33b3d3a[ALL] 512103bc9515cf995daca18583006a37e8b6ea90e2b3a5d0cfb2ed84eab55bf5723bc151ae"}, "vout": 0, "txid": "b9bc698d306f8874ce1cb3b10f4b6541e2de0d560e09a6d5a5eaeba0c3bf76c2"}, {"sequence": 4294967295, "scriptSig": {"hex": "004830450221008bc347beeb93a991789227b6a737999fca6ca5487aa4d76304c7e3971ea55775022001f7227a3f1f25d721fae3b62b4c680be35055dfb44d077dcb94c8d80bb042ab0125512103eabd0bfec2a9d92259aa31cafbd7e9bf557596c8c13676c78eb345118874091a51ae", "asm": "0 30450221008bc347beeb93a991789227b6a737999fca6ca5487aa4d76304c7e3971ea55775022001f7227a3f1f25d721fae3b62b4c680be35055dfb44d077dcb94c8d80bb042ab[ALL] 512103eabd0bfec2a9d92259aa31cafbd7e9bf557596c8c13676c78eb345118874091a51ae"}, "vout": 0, "txid": "36877cb6e135a68dd8e099005a78280a5da256a494c3fa7ca8d1e2a3f507fe75"}], "txid": "b2442fdd5c029fe957ff8338e496e82b6e425e3dfb7d86a56cf4e15374c8ddd5", "blocktime": 1537871767, "version": 1, "confirmations": 11490, "time": 1537871767, "locktime": 0, "vsize": 1141, "size": 1141}