{"hash": "777d1560c08365e673f8f1e3ac70555d88976e8885d054f2babccbb72d8b3cf8", "blockhash": "00000000000000000018f53835495a110e01622372bf6ae95dc86f2b0ab887b0", "vout": [{"scriptPubKey": {"reqSigs": 1, "hex": "a914776c256b3ca8b06cba5251ca875bc44cb3b650fc87", "addresses": ["3CaTtVtypas3UfzZrg3NAiTunC64nFKi9j"], "asm": "OP_HASH160 776c256b3ca8b06cba5251ca875bc44cb3b650fc OP_EQUAL", "type": "scripthash"}, "value": 0.25378511, "n": 0}, {"scriptPubKey": {"reqSigs": 1, "hex": "76a914ee5cc33b5428d23c0aa084275081a044186f406b88ac", "addresses": ["1NjLwv7ayRvyEotSchfViVgkt8ARFA5hrq"], "asm": "OP_DUP OP_HASH160 ee5cc33b5428d23c0aa084275081a044186f406b OP_EQUALVERIFY OP_CHECKSIG", "type": "pubkeyhash"}, "value": 0.00077995, "n": 1}, {"scriptPubKey": {"reqSigs": 1, "hex": "a9141988a27e3c2df4ddee7fad5a2303d086179b2a3087", "addresses": ["3422VtS7UtCvXYxoXMVp6eZupR252z85oC"], "asm": "OP_HASH160 1988a27e3c2df4ddee7fad5a2303d086179b2a30 OP_EQUAL", "type": "scripthash"}, "value": 0.85048168, "n": 2}], "hex": "010000000001015911befb94502507f4e39dd4ed360dbd43e37b62998585ee71e5f58e36d5a708010000002322002065d416c48a8072e0ac51c2d111eb194f009caef0332446c1bf2097316cf07fa9ffffffff03cf3e83010000000017a914776c256b3ca8b06cba5251ca875bc44cb3b650fc87ab300100000000001976a914ee5cc33b5428d23c0aa084275081a044186f406b88ac68bb11050000000017a9141988a27e3c2df4ddee7fad5a2303d086179b2a3087040047304402206513017fee117ba419c4d089fc84866cb57e32f9121a160c33ea7425c51e860202207fcedef9815489335f1cef7a67c7d08b96232c28a60659f2c8953c984e3293510147304402207c714d7443ee5b1424377759b7bc9961f7e3a028431ed7b3c2f75af1204d1bcc02206e18ce57e63a7eddfc18e90ebae9ad30d273e81c174afa02b76d17fc158e3f490169522102f44abcf9e23c9a460da309ccca56c619c04eed3bde2c2cff5e7d78fbcd980b9c2103c9443cf3047bb6c2c82f1b0c44c36109cdc3d0d601d16d1189a1602bf8d1a0a02103bfe867059274412412e088af5572b92168c2ef495cfe6c9b7a753a009eb37c4853ae00000000", "vin": [{"txinwitness": ["", "304402206513017fee117ba419c4d089fc84866cb57e32f9121a160c33ea7425c51e860202207fcedef9815489335f1cef7a67c7d08b96232c28a60659f2c8953c984e32935101", "304402207c714d7443ee5b1424377759b7bc9961f7e3a028431ed7b3c2f75af1204d1bcc02206e18ce57e63a7eddfc18e90ebae9ad30d273e81c174afa02b76d17fc158e3f4901", "522102f44abcf9e23c9a460da309ccca56c619c04eed3bde2c2cff5e7d78fbcd980b9c2103c9443cf3047bb6c2c82f1b0c44c36109cdc3d0d601d16d1189a1602bf8d1a0a02103bfe867059274412412e088af5572b92168c2ef495cfe6c9b7a753a009eb37c4853ae"], "sequence": 4294967295, "scriptSig": {"hex": "22002065d416c48a8072e0ac51c2d111eb194f009caef0332446c1bf2097316cf07fa9", "asm": "002065d416c48a8072e0ac51c2d111eb194f009caef0332446c1bf2097316cf07fa9"}, "vout": 1, "txid": "08a7d5368ef5e571ee858599627be343bd0d36edd49de3f407255094fbbe1159"}], "txid": "b2449681eb0529dfe7b75a422280e0c98be4fb2c836305d810912da127121e29", "blocktime": 1537870928, "version": 1, "confirmations": 11512, "time": 1537870928, "locktime": 0, "vsize": 248, "size": 438}