{"hash": "b249e4a6f18814c193789dacdf571664d12bee4192aa57872258fb88f3ad452a", "blockhash": "0000000000000000000e13cef7c366c0283d82e591d1acd082e914b08063cdf1", "vout": [{"scriptPubKey": {"reqSigs": 1, "hex": "76a9141dd2bc7f762cdded390ebaf547d5c7bb339dbdb688ac", "addresses": ["13ih3nCWpS9YbW8Yt55mdBk2r2swDzeoUS"], "asm": "OP_DUP OP_HASH160 1dd2bc7f762cdded390ebaf547d5c7bb339dbdb6 OP_EQUALVERIFY OP_CHECKSIG", "type": "pubkeyhash"}, "value": 0.01611272, "n": 0}, {"scriptPubKey": {"reqSigs": 1, "hex": "76a9140e4eb14d96286a466124371046736c349f63590888ac", "addresses": ["12JejLsedrGTcSFWazhoR2K1USopXvwQWS"], "asm": "OP_DUP OP_HASH160 0e4eb14d96286a466124371046736c349f635908 OP_EQUALVERIFY OP_CHECKSIG", "type": "pubkeyhash"}, "value": 0.02844579, "n": 1}], "hex": "0100000001ffb4e9ad00ce97e7d6dbef4f1de9704ffe40fc7f9df1b8ed385a04147764776b000000006b483045022100b3131363a88ee528df32b0dfb47dec45eac07038589c076e41f63a2390ec9d35022054728d8c5e7ed0a95a7bc6a53edeedf78266ccacc9761e2cd97aa80552c9afed01210385f4d7bc5539c853a431d1464aa1d40ee6fa14cb1fded6d2b2eae1ea23e2d278ffffffff0208961800000000001976a9141dd2bc7f762cdded390ebaf547d5c7bb339dbdb688aca3672b00000000001976a9140e4eb14d96286a466124371046736c349f63590888ac00000000", "vin": [{"sequence": 4294967295, "scriptSig": {"hex": "483045022100b3131363a88ee528df32b0dfb47dec45eac07038589c076e41f63a2390ec9d35022054728d8c5e7ed0a95a7bc6a53edeedf78266ccacc9761e2cd97aa80552c9afed01210385f4d7bc5539c853a431d1464aa1d40ee6fa14cb1fded6d2b2eae1ea23e2d278", "asm": "3045022100b3131363a88ee528df32b0dfb47dec45eac07038589c076e41f63a2390ec9d35022054728d8c5e7ed0a95a7bc6a53edeedf78266ccacc9761e2cd97aa80552c9afed[ALL] 0385f4d7bc5539c853a431d1464aa1d40ee6fa14cb1fded6d2b2eae1ea23e2d278"}, "vout": 0, "txid": "6b77647714045a38edb8f19d7ffc40fe4f70e91d4fefdbd6e797ce00ade9b4ff"}], "txid": "b249e4a6f18814c193789dacdf571664d12bee4192aa57872258fb88f3ad452a", "blocktime": 1537871767, "version": 1, "confirmations": 11491, "time": 1537871767, "locktime": 0, "vsize": 226, "size": 226}