{"hash": "681f89ab0bab93856d6295fd5ff8b88fe49af3e8c24f1562cf30c923aef2f19c", "blockhash": "0000000000000000000e13cef7c366c0283d82e591d1acd082e914b08063cdf1", "vout": [{"scriptPubKey": {"reqSigs": 1, "hex": "76a914658bc2e4001cfacc64a3e041943e921b3086737588ac", "addresses": ["1AFvgAG4FN8fhtp3ZtSF8hsmKvPTDiB4RV"], "asm": "OP_DUP OP_HASH160 658bc2e4001cfacc64a3e041943e921b30867375 OP_EQUALVERIFY OP_CHECKSIG", "type": "pubkeyhash"}, "value": 3.27e-05, "n": 0}, {"scriptPubKey": {"reqSigs": 1, "hex": "a914e8db75c900cf08f06518e96d167331f2a4abfb3387", "addresses": ["3NvFbQMAkkqEFj4i1sYPPLkSWzxTFUchjA"], "asm": "OP_HASH160 e8db75c900cf08f06518e96d167331f2a4abfb33 OP_EQUAL", "type": "scripthash"}, "value": 0.0004568, "n": 1}], "hex": "0100000000010123b226b5767953d30de0a5c51a0d8b73076f9a03ed2e575bae251e8112a742220000000023220020941cfaff8837763dc1f69ff82b6d6553fdea17a41cfc29a04403293eedd8ccc7ffffffff02c60c0000000000001976a914658bc2e4001cfacc64a3e041943e921b3086737588ac70b200000000000017a914e8db75c900cf08f06518e96d167331f2a4abfb33870400483045022100e982da5047d00713840383057c18498c3c79968f6b06f4e704a33e9c0eb6b6140220054f7cdcd6aed142fb4d42f47b7154e1067713a242fc4316aa2a347b93b9dfcb01483045022100f1fc22282edff15e7a8d89d876a8805b3a1cf81c473abe9a054ad2d4a200fc9802207bf8012f157b164d7bcaa7b542ffe5d42c14bb033462968a076d6fb532f3e87e0147522102531db3a5883f29bab4241dd0cd726936667bcda445d89bdd22244e828b6993342103148c80a5bdfddb05ff5bcffc397c8ca748d8b435ec6a175bc9d7bfc7fc6f853752ae00000000", "vin": [{"txinwitness": ["", "3045022100e982da5047d00713840383057c18498c3c79968f6b06f4e704a33e9c0eb6b6140220054f7cdcd6aed142fb4d42f47b7154e1067713a242fc4316aa2a347b93b9dfcb01", "3045022100f1fc22282edff15e7a8d89d876a8805b3a1cf81c473abe9a054ad2d4a200fc9802207bf8012f157b164d7bcaa7b542ffe5d42c14bb033462968a076d6fb532f3e87e01", "522102531db3a5883f29bab4241dd0cd726936667bcda445d89bdd22244e828b6993342103148c80a5bdfddb05ff5bcffc397c8ca748d8b435ec6a175bc9d7bfc7fc6f853752ae"], "sequence": 4294967295, "scriptSig": {"hex": "220020941cfaff8837763dc1f69ff82b6d6553fdea17a41cfc29a04403293eedd8ccc7", "asm": "0020941cfaff8837763dc1f69ff82b6d6553fdea17a41cfc29a04403293eedd8ccc7"}, "vout": 0, "txid": "2242a712811e25ae5b572eed039a6f07738b0d1ac5a5e00dd3537976b526b223"}], "txid": "b24a0577b04172515aac00919b0e74d9cb36f647324a07b96baed3dbea83e7fd", "blocktime": 1537871767, "version": 1, "confirmations": 11495, "time": 1537871767, "locktime": 0, "vsize": 208, "size": 374}