{"hash": "b24ebbd2da3e3e5739b3dbee2cb5efe92511ce0944f3fbfe25e604983f654797", "blockhash": "00000000000000000017f5eb5941039fbcee6240d03bc1f2f8e35350df66a1d8", "vout": [{"scriptPubKey": {"reqSigs": 1, "hex": "a914e691099cc11b9d9cb7b631e493673c1c8934b23f87", "addresses": ["3Ni963sLZD1KdLSwbJu7zPjYreQXf82qB1"], "asm": "OP_HASH160 e691099cc11b9d9cb7b631e493673c1c8934b23f OP_EQUAL", "type": "scripthash"}, "value": 0.00127899, "n": 0}, {"scriptPubKey": {"reqSigs": 1, "hex": "76a9148b15e5c97ca2a5e6f42b51d48a327af4a37d012488ac", "addresses": ["1DgRA8w1e5eHAiFcQcoZAT35TotMpLrUem"], "asm": "OP_DUP OP_HASH160 8b15e5c97ca2a5e6f42b51d48a327af4a37d0124 OP_EQUALVERIFY OP_CHECKSIG", "type": "pubkeyhash"}, "value": 0.00463173, "n": 1}], "hex": "0100000001282390a00a74de3069403cffaa85ccc857944eb2c90eefa13f407d8b87080d84010000006b483045022100a760abcf5c509613a558bf63a013dddd1d9d02e5770b941f907b8409601bc414022020b160e46e199525b9aeefbc934fb7a18f91ff5798906b9084056cbb0521718b01210306026c3b601f2e7d8db67cf834f6e22ddf003e2afca5604bcbbbd4b904b4fdb4ffffffff029bf301000000000017a914e691099cc11b9d9cb7b631e493673c1c8934b23f8745110700000000001976a9148b15e5c97ca2a5e6f42b51d48a327af4a37d012488ac00000000", "vin": [{"sequence": 4294967295, "scriptSig": {"hex": "483045022100a760abcf5c509613a558bf63a013dddd1d9d02e5770b941f907b8409601bc414022020b160e46e199525b9aeefbc934fb7a18f91ff5798906b9084056cbb0521718b01210306026c3b601f2e7d8db67cf834f6e22ddf003e2afca5604bcbbbd4b904b4fdb4", "asm": "3045022100a760abcf5c509613a558bf63a013dddd1d9d02e5770b941f907b8409601bc414022020b160e46e199525b9aeefbc934fb7a18f91ff5798906b9084056cbb0521718b[ALL] 0306026c3b601f2e7d8db67cf834f6e22ddf003e2afca5604bcbbbd4b904b4fdb4"}, "vout": 1, "txid": "840d08878b7d403fa1ef0ec9b24e9457c8cc85aaff3c406930de740aa0902328"}], "txid": "b24ebbd2da3e3e5739b3dbee2cb5efe92511ce0944f3fbfe25e604983f654797", "blocktime": 1537874412, "version": 1, "confirmations": 11466, "time": 1537874412, "locktime": 0, "vsize": 224, "size": 224}