{"hash": "b251c0504455890e738bcb69908c6b40db9fbc65e600fb0675a18d3bcf51cc58", "blockhash": "000000000000000000022b45ed06c6f4ccd3cf7fb5ba4856ebd2e58215665228", "vout": [{"scriptPubKey": {"reqSigs": 1, "hex": "76a914f0abe3af2dd59ca6a6709bab791a1fa98a031c2388ac", "addresses": ["1NwZ68ArCrZRZPkfhoyJGqbWiTG74xBhAe"], "asm": "OP_DUP OP_HASH160 f0abe3af2dd59ca6a6709bab791a1fa98a031c23 OP_EQUALVERIFY OP_CHECKSIG", "type": "pubkeyhash"}, "value": 0.00468342, "n": 0}, {"scriptPubKey": {"reqSigs": 1, "hex": "76a914923666f7011f6df8fb3bc1d1af6d5f9dd6c43a3388ac", "addresses": ["1EL6pwTB1iJf3qA41iuWakob2qL195LuSQ"], "asm": "OP_DUP OP_HASH160 923666f7011f6df8fb3bc1d1af6d5f9dd6c43a33 OP_EQUALVERIFY OP_CHECKSIG", "type": "pubkeyhash"}, "value": 0.01879713, "n": 1}], "hex": "0100000001b73e6ef9b566a6c50642faad7eaf99f6bc27922025beec1a0beb788370a6f0b2000000006b483045022100e569ae4313e2f6029f216a5f6f9ce0a5f35404bf3b4aed991e92cb23f16bc6470220612eaf37018aad54d171cc9699ce4f729cb7b1c0d99ecb772b543dfe824dda90012103cfa429945a9bb0b3295cc014cee22c3691c789d923aba3c1337cbc339da0001bffffffff0276250700000000001976a914f0abe3af2dd59ca6a6709bab791a1fa98a031c2388aca1ae1c00000000001976a914923666f7011f6df8fb3bc1d1af6d5f9dd6c43a3388ac00000000", "vin": [{"sequence": 4294967295, "scriptSig": {"hex": "483045022100e569ae4313e2f6029f216a5f6f9ce0a5f35404bf3b4aed991e92cb23f16bc6470220612eaf37018aad54d171cc9699ce4f729cb7b1c0d99ecb772b543dfe824dda90012103cfa429945a9bb0b3295cc014cee22c3691c789d923aba3c1337cbc339da0001b", "asm": "3045022100e569ae4313e2f6029f216a5f6f9ce0a5f35404bf3b4aed991e92cb23f16bc6470220612eaf37018aad54d171cc9699ce4f729cb7b1c0d99ecb772b543dfe824dda90[ALL] 03cfa429945a9bb0b3295cc014cee22c3691c789d923aba3c1337cbc339da0001b"}, "vout": 0, "txid": "b2f0a6708378eb0b1aecbe25209227bcf699af7eadfa4206c5a666b5f96e3eb7"}], "txid": "b251c0504455890e738bcb69908c6b40db9fbc65e600fb0675a18d3bcf51cc58", "blocktime": 1537869901, "version": 1, "confirmations": 11524, "time": 1537869901, "locktime": 0, "vsize": 226, "size": 226}