{"hash": "468ef3ce1c1d9da6285ee476360e3c5b8336343ea27567b96c0d4dc26e752fe3", "blockhash": "00000000000000000017f5eb5941039fbcee6240d03bc1f2f8e35350df66a1d8", "vout": [{"scriptPubKey": {"reqSigs": 1, "hex": "a914eec48f98b09536cd2f79de0d07b9a86d4ffac9a087", "addresses": ["3PTWDVUegj6ffyMRKyWDfmXj6v3ciLnzV6"], "asm": "OP_HASH160 eec48f98b09536cd2f79de0d07b9a86d4ffac9a0 OP_EQUAL", "type": "scripthash"}, "value": 0.01063, "n": 0}, {"scriptPubKey": {"reqSigs": 1, "hex": "a91409909e98fb1274c64a1e1de7719e7334f10a5edd87", "addresses": ["32ZbFcNrZsZqnWQEEy4oj3pYd9SJYUfYRH"], "asm": "OP_HASH160 09909e98fb1274c64a1e1de7719e7334f10a5edd OP_EQUAL", "type": "scripthash"}, "value": 0.01372327, "n": 1}], "hex": "0200000000010208e0541b728660216632537a03f611ec16d2edf5d2c13c2a7685fc39ec853bea0100000017160014fe6d325b338543a0797b657fce2034cd63d88470feffffffef8a419920d3176ae148dc73624c0105d14ed7e2d07ca7978993f217c214aec80100000017160014e4d06f4cc720d5c63e25dfc601744d895a1baae6feffffff02583810000000000017a914eec48f98b09536cd2f79de0d07b9a86d4ffac9a087a7f014000000000017a91409909e98fb1274c64a1e1de7719e7334f10a5edd8702473044022072392c6690e725594052d58223ad996bb43b793c2e9a23498c2ba3764ecda5a9022028f1502e67a0e23a4d9e2603186652a97469de9e2e85e53deb02db7e82d0b90e012103fa36719fd87a5bd2b147795cb55a4122713ee192381d6111cf5ce419fec9e7f902473044022021c9771a20a0192a65acdbb6d0afcaefb60f686399d165b94b65f4775829ed3f022012ba146f25a6599fc55158ca56fa9f656b086c7a9fa6ecfbe03cdbf020d9919b012102563f048a6f7fffb9edc51cc97096bf44b31cb7cf39d1763a4dc1e67e9fabb46815490800", "vin": [{"txinwitness": ["3044022072392c6690e725594052d58223ad996bb43b793c2e9a23498c2ba3764ecda5a9022028f1502e67a0e23a4d9e2603186652a97469de9e2e85e53deb02db7e82d0b90e01", "03fa36719fd87a5bd2b147795cb55a4122713ee192381d6111cf5ce419fec9e7f9"], "sequence": 4294967294, "scriptSig": {"hex": "160014fe6d325b338543a0797b657fce2034cd63d88470", "asm": "0014fe6d325b338543a0797b657fce2034cd63d88470"}, "vout": 1, "txid": "ea3b85ec39fc85762a3cc1d2f5edd216ec11f6037a533266216086721b54e008"}, {"txinwitness": ["3044022021c9771a20a0192a65acdbb6d0afcaefb60f686399d165b94b65f4775829ed3f022012ba146f25a6599fc55158ca56fa9f656b086c7a9fa6ecfbe03cdbf020d9919b01", "02563f048a6f7fffb9edc51cc97096bf44b31cb7cf39d1763a4dc1e67e9fabb468"], "sequence": 4294967294, "scriptSig": {"hex": "160014e4d06f4cc720d5c63e25dfc601744d895a1baae6", "asm": "0014e4d06f4cc720d5c63e25dfc601744d895a1baae6"}, "vout": 1, "txid": "c8ae14c217f2938997a77cd0e2d74ed105014c6273dc48e16a17d32099418aef"}], "txid": "b251feb5cde2d87b3ca3a5b8c09e8e84e10d88c44a8187a74c729381f91d0df5", "blocktime": 1537874412, "version": 2, "confirmations": 11468, "time": 1537874412, "locktime": 542997, "vsize": 256, "size": 418}