{"hash": "b2556717882efbd154173a345ac011b3e4bf52b62905ee9d40e306f5af773f29", "blockhash": "0000000000000000001f76057863aec43deb6fa401d9628bb513d65a8098bfab", "vout": [{"scriptPubKey": {"reqSigs": 1, "hex": "a9148172eb0bc1322cd41775b1de4a69a8376f29dce587", "addresses": ["3DVUkwdo8b7ddh375tjWS4jbmceqEraQAu"], "asm": "OP_HASH160 8172eb0bc1322cd41775b1de4a69a8376f29dce5 OP_EQUAL", "type": "scripthash"}, "value": 0.04932506, "n": 0}, {"scriptPubKey": {"reqSigs": 1, "hex": "76a9144a0f1e2f2b0d7daeec5265f10bbbbe08ed725e8988ac", "addresses": ["17kb7c9ndg7ioSuzMWEHWECdEVUegNkcGc"], "asm": "OP_DUP OP_HASH160 4a0f1e2f2b0d7daeec5265f10bbbbe08ed725e89 OP_EQUALVERIFY OP_CHECKSIG", "type": "pubkeyhash"}, "value": 0.00678983, "n": 1}], "hex": "010000000122658ddc1b75b3727494320a13c9cb5a3d9995e2677c00e6f82e0e4d342477bb000000006b483045022100a00ee323c06b041e7e6d667d697cc556a0ab9465fe7e5ca40b2d95f4839f51b002207e36ae45e4744bcc180740b2ae2736584c83738ed2393cca4e5df7ed2272ba8501210363e1776495149c5a4e92acf453a3caa19000fc804e4ba2024b600ba25e09c943ffffffff029a434b000000000017a9148172eb0bc1322cd41775b1de4a69a8376f29dce587475c0a00000000001976a9144a0f1e2f2b0d7daeec5265f10bbbbe08ed725e8988ac00000000", "vin": [{"sequence": 4294967295, "scriptSig": {"hex": "483045022100a00ee323c06b041e7e6d667d697cc556a0ab9465fe7e5ca40b2d95f4839f51b002207e36ae45e4744bcc180740b2ae2736584c83738ed2393cca4e5df7ed2272ba8501210363e1776495149c5a4e92acf453a3caa19000fc804e4ba2024b600ba25e09c943", "asm": "3045022100a00ee323c06b041e7e6d667d697cc556a0ab9465fe7e5ca40b2d95f4839f51b002207e36ae45e4744bcc180740b2ae2736584c83738ed2393cca4e5df7ed2272ba85[ALL] 0363e1776495149c5a4e92acf453a3caa19000fc804e4ba2024b600ba25e09c943"}, "vout": 0, "txid": "bb7724344d0e2ef8e6007c67e295993d5acbc9130a32947472b3751bdc8d6522"}], "txid": "b2556717882efbd154173a345ac011b3e4bf52b62905ee9d40e306f5af773f29", "blocktime": 1537873891, "version": 1, "confirmations": 11475, "time": 1537873891, "locktime": 0, "vsize": 224, "size": 224}