{"hash": "b263c9b90e8d770b44555b3afe3bf5880d07d98d0332a8d6cfccbaf9d023213b", "blockhash": "00000000000000000017f5eb5941039fbcee6240d03bc1f2f8e35350df66a1d8", "vout": [{"scriptPubKey": {"reqSigs": 1, "hex": "76a914a80bbec9272da60d93a0bd1a88522b2c5370201f88ac", "addresses": ["1GKYbJXpCavZ6uNT7V1WTWv55EtgkC8Axc"], "asm": "OP_DUP OP_HASH160 a80bbec9272da60d93a0bd1a88522b2c5370201f OP_EQUALVERIFY OP_CHECKSIG", "type": "pubkeyhash"}, "value": 0.01, "n": 0}, {"scriptPubKey": {"reqSigs": 1, "hex": "76a914653c987ac291247489430f047fdb3394c34fc4b888ac", "addresses": ["1AEHqdh18ySSrfi8DCE3kVc9pJGoC6CE4z"], "asm": "OP_DUP OP_HASH160 653c987ac291247489430f047fdb3394c34fc4b8 OP_EQUALVERIFY OP_CHECKSIG", "type": "pubkeyhash"}, "value": 0.02184713, "n": 1}], "hex": "0100000001ac1aa07b6efed6d6e63ccc13cdab69bafe63b23536b2a2eb9b22e005ab826db1000000006a473044022033c220f5317319b88b377090a7218f32a13626389ea33c065d6a8965dc8fb76b0220042ec0d05c71505c9e32197d17696384d8003509441779cb222826452f29224f012103e7d6b6bdc81a28f2903efcfd99c2c9b36dc67df871c511c095f3bd9273829a6effffffff0240420f00000000001976a914a80bbec9272da60d93a0bd1a88522b2c5370201f88ac09562100000000001976a914653c987ac291247489430f047fdb3394c34fc4b888ac00000000", "vin": [{"sequence": 4294967295, "scriptSig": {"hex": "473044022033c220f5317319b88b377090a7218f32a13626389ea33c065d6a8965dc8fb76b0220042ec0d05c71505c9e32197d17696384d8003509441779cb222826452f29224f012103e7d6b6bdc81a28f2903efcfd99c2c9b36dc67df871c511c095f3bd9273829a6e", "asm": "3044022033c220f5317319b88b377090a7218f32a13626389ea33c065d6a8965dc8fb76b0220042ec0d05c71505c9e32197d17696384d8003509441779cb222826452f29224f[ALL] 03e7d6b6bdc81a28f2903efcfd99c2c9b36dc67df871c511c095f3bd9273829a6e"}, "vout": 0, "txid": "b16d82ab05e0229beba2b23635b263feba69abcd13cc3ce6d6d6fe6e7ba01aac"}], "txid": "b263c9b90e8d770b44555b3afe3bf5880d07d98d0332a8d6cfccbaf9d023213b", "blocktime": 1537874412, "version": 1, "confirmations": 11467, "time": 1537874412, "locktime": 0, "vsize": 225, "size": 225}