{"hash": "4a16ef2578728f23d75022ecaa3759ddba6baf98c4d299fec43cc96dc0d8ac50", "blockhash": "0000000000000000000e13cef7c366c0283d82e591d1acd082e914b08063cdf1", "vout": [{"scriptPubKey": {"reqSigs": 1, "hex": "a914e63404ee692267a9a523d7088c76ad9f29f656f287", "addresses": ["3NgDf2VPgdvyMy6dhemTpQwkfrGanqwBp2"], "asm": "OP_HASH160 e63404ee692267a9a523d7088c76ad9f29f656f2 OP_EQUAL", "type": "scripthash"}, "value": 0.0101095, "n": 0}, {"scriptPubKey": {"reqSigs": 1, "hex": "76a9142e1b944fe7ffbe969fc1df8d662fd7b5d6303c9b88ac", "addresses": ["15Co856cRnFRCKwSSzECoyT3ozVhuFoJZ6"], "asm": "OP_DUP OP_HASH160 2e1b944fe7ffbe969fc1df8d662fd7b5d6303c9b OP_EQUALVERIFY OP_CHECKSIG", "type": "pubkeyhash"}, "value": 0.0028566, "n": 1}], "hex": "02000000000102465e1673eed036122d4b2e3e9bfb88b698bb371acda276752b4f861fe5e05b0c01000000171600141cf1d431661e86e937f3eae7c916d93310aded10feffffffd13733bd37d5e3e7169343e565ba24505617655663a4c06c9d6bccb3be73d11e150000001716001432e76f381eef58b7793d5f555813d36b17ae45e8feffffff02066d0f000000000017a914e63404ee692267a9a523d7088c76ad9f29f656f287dc5b0400000000001976a9142e1b944fe7ffbe969fc1df8d662fd7b5d6303c9b88ac0247304402203ecff6e0862eff0371fecec5addf83c10b55c3a10574b718104742a0beb15dde02200087b84ac5b2be4d5977d0dc294cb6bcb835bd6ea475f49dc9a4c80dbd78b2d301210330aa9da3ce4ed60bd5b5f071d00a111d27642db738e2824b8380c638d0c3dd5402483045022100c55877eeb259e2fa612dbf831bd330f6bfd77b574829e3d4127d330b486390d202206f4bcb74f2fa9f93cbf71b81337571d71f0d4695eba437d40ec6330f96964d8e01210383179b501de5ad1658abedd0be73f06f1e5901fe3b6d6502ecbfa86bad4c03a510490800", "vin": [{"txinwitness": ["304402203ecff6e0862eff0371fecec5addf83c10b55c3a10574b718104742a0beb15dde02200087b84ac5b2be4d5977d0dc294cb6bcb835bd6ea475f49dc9a4c80dbd78b2d301", "0330aa9da3ce4ed60bd5b5f071d00a111d27642db738e2824b8380c638d0c3dd54"], "sequence": 4294967294, "scriptSig": {"hex": "1600141cf1d431661e86e937f3eae7c916d93310aded10", "asm": "00141cf1d431661e86e937f3eae7c916d93310aded10"}, "vout": 1, "txid": "0c5be0e51f864f2b7576a2cd1a37bb98b688fb9b3e2e4b2d1236d0ee73165e46"}, {"txinwitness": ["3045022100c55877eeb259e2fa612dbf831bd330f6bfd77b574829e3d4127d330b486390d202206f4bcb74f2fa9f93cbf71b81337571d71f0d4695eba437d40ec6330f96964d8e01", "0383179b501de5ad1658abedd0be73f06f1e5901fe3b6d6502ecbfa86bad4c03a5"], "sequence": 4294967294, "scriptSig": {"hex": "16001432e76f381eef58b7793d5f555813d36b17ae45e8", "asm": "001432e76f381eef58b7793d5f555813d36b17ae45e8"}, "vout": 21, "txid": "1ed173beb3cc6b9d6cc0a463566517565024ba65e5439316e7e3d537bd3337d1"}], "txid": "b26bc6acb0942033d885df73d85dc48cd986e001d86695df14ab1a4087b577fc", "blocktime": 1537871767, "version": 2, "confirmations": 11495, "time": 1537871767, "locktime": 542992, "vsize": 259, "size": 421}