{"hash": "28ec605356818016697a6e26998dc9efc29cacada3a12f000ce39c4a5e57b962", "blockhash": "0000000000000000000dcc0f55137456b1a82d3642486a52398922ac4d620174", "vout": [{"scriptPubKey": {"reqSigs": 1, "hex": "76a9146da5ff93870712bb02a6556e1fa1c5ad05865ee488ac", "addresses": ["1AzmWgFUNESZ9Aw18LVTQKooqgQ8PcsgAj"], "asm": "OP_DUP OP_HASH160 6da5ff93870712bb02a6556e1fa1c5ad05865ee4 OP_EQUALVERIFY OP_CHECKSIG", "type": "pubkeyhash"}, "value": 0.00343107, "n": 0}, {"scriptPubKey": {"reqSigs": 1, "hex": "00143815ef0f72dba2110979585df2003ed63b9e2fc1", "addresses": ["bc1q8q277rmjmw3pzztetpwlyqp76caeut7pd6eypn"], "asm": "0 3815ef0f72dba2110979585df2003ed63b9e2fc1", "type": "witness_v0_keyhash"}, "value": 1.6e-05, "n": 1}], "hex": "010000000001010230c6631e4e1ad0be6ab0a6a27e8cb1964aff6ebc958afb6e4f06e598c407f40100000000ffffffff02433c0500000000001976a9146da5ff93870712bb02a6556e1fa1c5ad05865ee488ac40060000000000001600143815ef0f72dba2110979585df2003ed63b9e2fc102473044022025fa4b21f2a9e861b325c0bbc21446ba7903575cc9e8be2384e825d88633ed1b022002fcd29e13499d05142afce3035a093f6806e497698e2454b63bc082f15db546012102626f83ac49e3e30015c58382f1d7a2b24375e4e57ef1aea344f83e2b012cc8b100000000", "vin": [{"txinwitness": ["3044022025fa4b21f2a9e861b325c0bbc21446ba7903575cc9e8be2384e825d88633ed1b022002fcd29e13499d05142afce3035a093f6806e497698e2454b63bc082f15db54601", "02626f83ac49e3e30015c58382f1d7a2b24375e4e57ef1aea344f83e2b012cc8b1"], "sequence": 4294967295, "scriptSig": {"hex": "", "asm": ""}, "vout": 1, "txid": "f407c498e5064f6efb8a95bc6eff4a96b18c7ea2a6b06abed01a4e1e63c63002"}], "txid": "b26efae92598c19c75dfabf10fc4c3db998d4c82d4bd0b1978c21a3bfea29e37", "blocktime": 1537870268, "version": 1, "confirmations": 11518, "time": 1537870268, "locktime": 0, "vsize": 144, "size": 225}