{"hash": "f7f70272cf741ef434babd04dc07582ddae75548c4d3f138f4569c682f90b948", "blockhash": "0000000000000000000baef3f32e3676a92c3b2e5da21b426e4f302fc371ce76", "vout": [{"scriptPubKey": {"reqSigs": 1, "hex": "76a9149db9cf0b61a54609c40afcdbda3780639bac06da88ac", "addresses": ["1FNygLYDs4m8aypChK7hYn5RoNWbz3bs9p"], "asm": "OP_DUP OP_HASH160 9db9cf0b61a54609c40afcdbda3780639bac06da OP_EQUALVERIFY OP_CHECKSIG", "type": "pubkeyhash"}, "value": 0.00341086, "n": 0}, {"scriptPubKey": {"reqSigs": 1, "hex": "a9149649ad6d2730bb28020a268d9d80df10a9f74ad487", "addresses": ["3FPfYWwfMfKMGY7fuPHvz2b73RhTNGzsm3"], "asm": "OP_HASH160 9649ad6d2730bb28020a268d9d80df10a9f74ad4 OP_EQUAL", "type": "scripthash"}, "value": 13.79251202, "n": 1}], "hex": "01000000000101d79a970114bdbc46eec53b214ca2a0359c483c813ceaaba44fe34c9c5267b08701000000232200207768efcc1e5eb3d28410fac3f45831004c860cc24cddd940a616b34324823fceffffffff025e340500000000001976a9149db9cf0b61a54609c40afcdbda3780639bac06da88ac02b435520000000017a9149649ad6d2730bb28020a268d9d80df10a9f74ad4870400483045022100fefb15a886d09b09fdb4810b9a4cfd1f1e560c1d8bc4c137aa5006d787a9532e02207b715b58dc5c3e9813408829c9331ea9fa6c6f2fb4451eac0390dac13f3a41c501483045022100ecd44aec130f2fba1de604a5b58c01c2f7ceeb84ee09ce3dbdd09b95baccbf9802201f6de5a4a47fcb30e793da727fd08a85dd9c83baf15eaea3911483afa3f053980147522102529d5d1f6733ab45d9d50e07db42c7f6b967ae321c38b726c2247f149959b8262103d0c936a5988dd8421c63240496b723b0ec42400c38b9350e32c2eb4f47d8796952ae00000000", "vin": [{"txinwitness": ["", "3045022100fefb15a886d09b09fdb4810b9a4cfd1f1e560c1d8bc4c137aa5006d787a9532e02207b715b58dc5c3e9813408829c9331ea9fa6c6f2fb4451eac0390dac13f3a41c501", "3045022100ecd44aec130f2fba1de604a5b58c01c2f7ceeb84ee09ce3dbdd09b95baccbf9802201f6de5a4a47fcb30e793da727fd08a85dd9c83baf15eaea3911483afa3f0539801", "522102529d5d1f6733ab45d9d50e07db42c7f6b967ae321c38b726c2247f149959b8262103d0c936a5988dd8421c63240496b723b0ec42400c38b9350e32c2eb4f47d8796952ae"], "sequence": 4294967295, "scriptSig": {"hex": "2200207768efcc1e5eb3d28410fac3f45831004c860cc24cddd940a616b34324823fce", "asm": "00207768efcc1e5eb3d28410fac3f45831004c860cc24cddd940a616b34324823fce"}, "vout": 1, "txid": "87b067529c4ce34fa4abea3c813c489c35a0a24c213bc5ee46bcbd1401979ad7"}], "txid": "b270a6ff4d0c7fa0e6294dbc96550eec6ab11765bab400e25376944efdf71852", "blocktime": 1537876114, "version": 1, "confirmations": 11462, "time": 1537876114, "locktime": 0, "vsize": 208, "size": 374}