{"hash": "b273ce950548450cae3567eed3f42f2a09d8ec9e03d32733e28b1055c8ac5210", "blockhash": "0000000000000000000e13cef7c366c0283d82e591d1acd082e914b08063cdf1", "vout": [{"scriptPubKey": {"type": "nulldata", "hex": "6a146f6d6e69000000000000001f000000b329c62f00", "asm": "OP_RETURN 6f6d6e69000000000000001f000000b329c62f00"}, "value": 0.0, "n": 0}, {"scriptPubKey": {"reqSigs": 1, "hex": "76a914540401629a12c9c111d597103c84083f282c929888ac", "addresses": ["18fEZR3do5DtawScXoNntoDQ9a8RYHqyB3"], "asm": "OP_DUP OP_HASH160 540401629a12c9c111d597103c84083f282c9298 OP_EQUALVERIFY OP_CHECKSIG", "type": "pubkeyhash"}, "value": 0.00403047, "n": 1}, {"scriptPubKey": {"reqSigs": 1, "hex": "76a914a25dec4d0011064ef106a983c39c7a540699f22088ac", "addresses": ["1FoWyxwPXuj4C6abqwhjDWdz6D4PZgYRjA"], "asm": "OP_DUP OP_HASH160 a25dec4d0011064ef106a983c39c7a540699f220 OP_EQUALVERIFY OP_CHECKSIG", "type": "pubkeyhash"}, "value": 5.46e-06, "n": 2}], "hex": "0100000003be6c70ca428976d37e9cd4a1f4f69abd02aad94c0c2aa72a9b365a0d30a524db010000006a4730440220778b622f2c43b9d9ad32ec430702508255004d22bef63a6b7bf67a0f674fe62202207d4ffd67c9128f1b8373b8de362aa4ce4e2c78e7098f61e7622189aca8ac278001210219d41de7527db516574cda8166ffc2f30264509de0c732d1638ef4af490f55a3feffffff66eef16d99a691aa7f6d26dc27a90c354d005e8155ceee57a6ee1d6c54341822010000006b483045022100f82ccf561f551711218b59155a304156c98ddff5d1cf80b405f3ab9bfb6adf7202205e1444325798ad637bf427a1e4598cc70f270aec48e841e973a1a2fb5e99ce7301210219d41de7527db516574cda8166ffc2f30264509de0c732d1638ef4af490f55a3feffffffd05d117f2acf8fb07b4b05d2e2beaf13b8710cde78de33b43c13db9478818d30020000006b483045022100b3b3cf29077d549a8b6b3d864050b04120d7f04658a2fd76bd11911f17a926900220189c47095d7bf2f310fa5aeff41f976c86beac68a81db2176aac8bcf65070c9d01210219d41de7527db516574cda8166ffc2f30264509de0c732d1638ef4af490f55a3feffffff030000000000000000166a146f6d6e69000000000000001f000000b329c62f0067260600000000001976a914540401629a12c9c111d597103c84083f282c929888ac22020000000000001976a914a25dec4d0011064ef106a983c39c7a540699f22088ac10490800", "vin": [{"sequence": 4294967294, "scriptSig": {"hex": "4730440220778b622f2c43b9d9ad32ec430702508255004d22bef63a6b7bf67a0f674fe62202207d4ffd67c9128f1b8373b8de362aa4ce4e2c78e7098f61e7622189aca8ac278001210219d41de7527db516574cda8166ffc2f30264509de0c732d1638ef4af490f55a3", "asm": "30440220778b622f2c43b9d9ad32ec430702508255004d22bef63a6b7bf67a0f674fe62202207d4ffd67c9128f1b8373b8de362aa4ce4e2c78e7098f61e7622189aca8ac2780[ALL] 0219d41de7527db516574cda8166ffc2f30264509de0c732d1638ef4af490f55a3"}, "vout": 1, "txid": "db24a5300d5a369b2aa72a0c4cd9aa02bd9af6f4a1d49c7ed3768942ca706cbe"}, {"sequence": 4294967294, "scriptSig": {"hex": "483045022100f82ccf561f551711218b59155a304156c98ddff5d1cf80b405f3ab9bfb6adf7202205e1444325798ad637bf427a1e4598cc70f270aec48e841e973a1a2fb5e99ce7301210219d41de7527db516574cda8166ffc2f30264509de0c732d1638ef4af490f55a3", "asm": "3045022100f82ccf561f551711218b59155a304156c98ddff5d1cf80b405f3ab9bfb6adf7202205e1444325798ad637bf427a1e4598cc70f270aec48e841e973a1a2fb5e99ce73[ALL] 0219d41de7527db516574cda8166ffc2f30264509de0c732d1638ef4af490f55a3"}, "vout": 1, "txid": "221834546c1deea657eece55815e004d350ca927dc266d7faa91a6996df1ee66"}, {"sequence": 4294967294, "scriptSig": {"hex": "483045022100b3b3cf29077d549a8b6b3d864050b04120d7f04658a2fd76bd11911f17a926900220189c47095d7bf2f310fa5aeff41f976c86beac68a81db2176aac8bcf65070c9d01210219d41de7527db516574cda8166ffc2f30264509de0c732d1638ef4af490f55a3", "asm": "3045022100b3b3cf29077d549a8b6b3d864050b04120d7f04658a2fd76bd11911f17a926900220189c47095d7bf2f310fa5aeff41f976c86beac68a81db2176aac8bcf65070c9d[ALL] 0219d41de7527db516574cda8166ffc2f30264509de0c732d1638ef4af490f55a3"}, "vout": 2, "txid": "308d817894db133cb433de78de0c71b813afbee2d2054b7bb08fcf2a7f115dd0"}], "txid": "b273ce950548450cae3567eed3f42f2a09d8ec9e03d32733e28b1055c8ac5210", "blocktime": 1537871767, "version": 1, "confirmations": 11495, "time": 1537871767, "locktime": 542992, "vsize": 552, "size": 552}