{"hash": "f2946eb6364ae6039756aea424c5068782f3418cfc204946b560b4492678ab5b", "blockhash": "0000000000000000000e13cef7c366c0283d82e591d1acd082e914b08063cdf1", "vout": [{"scriptPubKey": {"reqSigs": 1, "hex": "76a9145ff22c39d49c9299e9c4dfbeff8e2dec8e2b643888ac", "addresses": ["19kKJgZTjSdRKsogEqRxty1VrCR7pfACzh"], "asm": "OP_DUP OP_HASH160 5ff22c39d49c9299e9c4dfbeff8e2dec8e2b6438 OP_EQUALVERIFY OP_CHECKSIG", "type": "pubkeyhash"}, "value": 0.01824147, "n": 0}, {"scriptPubKey": {"reqSigs": 1, "hex": "a914f6369f7fa0a593b86416e5da8c4a10f691b269f387", "addresses": ["3Q8sb1W8HCSscKH8SmrVraBe8EW3V1KDuk"], "asm": "OP_HASH160 f6369f7fa0a593b86416e5da8c4a10f691b269f3 OP_EQUAL", "type": "scripthash"}, "value": 0.21187415, "n": 1}], "hex": "010000000001013940d3536619d22bff399d04eab2ebf8d9e48aca821143439b7680378382806b0100000023220020cc2498da00b50093878de05b90d1cb6884416d9384f5feb6fc1516aeeebb3ab8ffffffff0293d51b00000000001976a9145ff22c39d49c9299e9c4dfbeff8e2dec8e2b643888ac574b43010000000017a914f6369f7fa0a593b86416e5da8c4a10f691b269f3870400483045022100924d6d4e3720b6a8427f85439bf0f4100b0e6a31985bd340ccd1323cf2c170c302202a821810b41410b6deb3c6fac106517a51778be4b13a494df0ef5069ca3faf8e01483045022100be5a87748fee54f9d739708b76c0319f0f622eb3cd9f86d52a5c872fb12f4b30022052065e37917769406e2f3578dfb822e3989a8c2ff646c4dae6f597fbe5bafe2601695221020ad2a8888b24a47f068d2623721a57ec2857c63d867d365e686c268199ea1c642103debebb91299d0736579979eb218fbd62bd819b20b99dc0851d1257e528f05e8b2103e043afd8c9720de098d5cbcf3d3316eceda48881a11bcaee12359120e43834be53ae00000000", "vin": [{"txinwitness": ["", "3045022100924d6d4e3720b6a8427f85439bf0f4100b0e6a31985bd340ccd1323cf2c170c302202a821810b41410b6deb3c6fac106517a51778be4b13a494df0ef5069ca3faf8e01", "3045022100be5a87748fee54f9d739708b76c0319f0f622eb3cd9f86d52a5c872fb12f4b30022052065e37917769406e2f3578dfb822e3989a8c2ff646c4dae6f597fbe5bafe2601", "5221020ad2a8888b24a47f068d2623721a57ec2857c63d867d365e686c268199ea1c642103debebb91299d0736579979eb218fbd62bd819b20b99dc0851d1257e528f05e8b2103e043afd8c9720de098d5cbcf3d3316eceda48881a11bcaee12359120e43834be53ae"], "sequence": 4294967295, "scriptSig": {"hex": "220020cc2498da00b50093878de05b90d1cb6884416d9384f5feb6fc1516aeeebb3ab8", "asm": "0020cc2498da00b50093878de05b90d1cb6884416d9384f5feb6fc1516aeeebb3ab8"}, "vout": 1, "txid": "6b8082833780769b43431182ca8ae4d9f8ebb2ea049d39ff2bd2196653d34039"}], "txid": "b277926eacf1e462785c30c645fd7aa9e4a04bb7df7c1978aa606106cde3350d", "blocktime": 1537871767, "version": 1, "confirmations": 11493, "time": 1537871767, "locktime": 0, "vsize": 216, "size": 408}