{"hash": "f803a04e0c8d7f77b1ef5976aabea00d42535423aeb79a410e4828d11124e286", "blockhash": "0000000000000000000e13cef7c366c0283d82e591d1acd082e914b08063cdf1", "vout": [{"scriptPubKey": {"reqSigs": 1, "hex": "a914c7ffb4ea96c2b6150dbde81627a30d923424a9f287", "addresses": ["3KvWiXmb2NMrnkv2edGGoanFGT2CU1S4G9"], "asm": "OP_HASH160 c7ffb4ea96c2b6150dbde81627a30d923424a9f2 OP_EQUAL", "type": "scripthash"}, "value": 0.01008029, "n": 0}, {"scriptPubKey": {"reqSigs": 1, "hex": "76a9146bf5d825fdc826a564706de3e597daf6a5aaf14b88ac", "addresses": ["1Aqqp6BYo68MNUBoX7myFDEicK2Xk7yxRH"], "asm": "OP_DUP OP_HASH160 6bf5d825fdc826a564706de3e597daf6a5aaf14b OP_EQUALVERIFY OP_CHECKSIG", "type": "pubkeyhash"}, "value": 0.0036936, "n": 1}], "hex": "020000000001025c7155f3e1bf7c0a1f9ce19b337c9f77751622256cc2a2d19101ba3e5766018e010000001716001407732d6c66bc3b8b2951d688572e608569920546feffffffb676a74cf51b4132214b863ff757b76b51c105ba90c052bff48425b10d7371120000000017160014b6a7403fe4aa362ac4523c309b7dfdd2a3eaa75efeffffff029d610f000000000017a914c7ffb4ea96c2b6150dbde81627a30d923424a9f287d0a20500000000001976a9146bf5d825fdc826a564706de3e597daf6a5aaf14b88ac02483045022100f6c9aced363844a483bb5ed4a7ec80695da707a1a88335eecb00b545e5ecc7fa022055ddc85280ce90ad469a07f0cc77db6b34435d75479b94646a1fe63aa6cdd73701210264ce065212db4a743a51a576107ea82e34299695d558542d1dd6e9099207257b02473044022066177fd4224f35e320b02f23a7b6c153cbabdf07c5b0d9859acf012134b47df3022024b55f0f87da8245c162eb2c1bfd39f4fd3264cc4290b90f351db9bce439d5e301210301c501ba4c648c8463337f136965073691ef050fc345531768583bf7f6fe77a410490800", "vin": [{"txinwitness": ["3045022100f6c9aced363844a483bb5ed4a7ec80695da707a1a88335eecb00b545e5ecc7fa022055ddc85280ce90ad469a07f0cc77db6b34435d75479b94646a1fe63aa6cdd73701", "0264ce065212db4a743a51a576107ea82e34299695d558542d1dd6e9099207257b"], "sequence": 4294967294, "scriptSig": {"hex": "16001407732d6c66bc3b8b2951d688572e608569920546", "asm": "001407732d6c66bc3b8b2951d688572e608569920546"}, "vout": 1, "txid": "8e0166573eba0191d1a2c26c25221675779f7c339be19c1f0a7cbfe1f355715c"}, {"txinwitness": ["3044022066177fd4224f35e320b02f23a7b6c153cbabdf07c5b0d9859acf012134b47df3022024b55f0f87da8245c162eb2c1bfd39f4fd3264cc4290b90f351db9bce439d5e301", "0301c501ba4c648c8463337f136965073691ef050fc345531768583bf7f6fe77a4"], "sequence": 4294967294, "scriptSig": {"hex": "160014b6a7403fe4aa362ac4523c309b7dfdd2a3eaa75e", "asm": "0014b6a7403fe4aa362ac4523c309b7dfdd2a3eaa75e"}, "vout": 0, "txid": "1271730db12584f4bf52c090ba05c1516bb757f73f864b2132411bf54ca776b6"}], "txid": "b27be7fcf55182c81f478a217359dfab94a0ca98596511c67c6172f44f3ba9b9", "blocktime": 1537871767, "version": 2, "confirmations": 11495, "time": 1537871767, "locktime": 542992, "vsize": 259, "size": 421}