{"hash": "b284ad3f621cfd1dd2440231213987b5bb083f6e9b6256305eb3861a63d445f9", "blockhash": "0000000000000000001f76057863aec43deb6fa401d9628bb513d65a8098bfab", "vout": [{"scriptPubKey": {"reqSigs": 1, "hex": "76a91414a48b067ca3073441055f266ecc1f09f52c563188ac", "addresses": ["12t9dVPHMLeJeGSmX9AKeCJEJ5arx2ySck"], "asm": "OP_DUP OP_HASH160 14a48b067ca3073441055f266ecc1f09f52c5631 OP_EQUALVERIFY OP_CHECKSIG", "type": "pubkeyhash"}, "value": 0.0005848, "n": 0}, {"scriptPubKey": {"type": "nulldata", "hex": "6a4c50000077e4000167df72fb503605953f25f60a7af8e8e963c7cfd5b95b23cc0f42c2fc38c5f5201554d03010031cbc1a7f37323a855baa17330612509c148db582bc9a9526289ac0f6612cd74e33776ee4", "asm": "OP_RETURN 000077e4000167df72fb503605953f25f60a7af8e8e963c7cfd5b95b23cc0f42c2fc38c5f5201554d03010031cbc1a7f37323a855baa17330612509c148db582bc9a9526289ac0f6612cd74e33776ee4"}, "value": 0.0, "n": 1}], "hex": "01000000010e245462a670fb537da1b57706e337d525448ef34a1d9b3a37a1662e09942616000000006b483045022100c25cfb8a1ea017b6b90565d715dee8128d078f4ddbcf03b02be2fe360ec4839e02206ff37cf5128de724bc40225e50fd20d66336f40062a7bb27f1802afd4103454c01210282174d7b017e5cccc48b771fd48ae8ecb10b754d686ce8814f65615b8538a839ffffffff0270e40000000000001976a91414a48b067ca3073441055f266ecc1f09f52c563188ac0000000000000000536a4c50000077e4000167df72fb503605953f25f60a7af8e8e963c7cfd5b95b23cc0f42c2fc38c5f5201554d03010031cbc1a7f37323a855baa17330612509c148db582bc9a9526289ac0f6612cd74e33776ee400000000", "vin": [{"sequence": 4294967295, "scriptSig": {"hex": "483045022100c25cfb8a1ea017b6b90565d715dee8128d078f4ddbcf03b02be2fe360ec4839e02206ff37cf5128de724bc40225e50fd20d66336f40062a7bb27f1802afd4103454c01210282174d7b017e5cccc48b771fd48ae8ecb10b754d686ce8814f65615b8538a839", "asm": "3045022100c25cfb8a1ea017b6b90565d715dee8128d078f4ddbcf03b02be2fe360ec4839e02206ff37cf5128de724bc40225e50fd20d66336f40062a7bb27f1802afd4103454c[ALL] 0282174d7b017e5cccc48b771fd48ae8ecb10b754d686ce8814f65615b8538a839"}, "vout": 0, "txid": "162694092e66a1373a9b1d4af38e4425d537e30677b5a17d53fb70a66254240e"}], "txid": "b284ad3f621cfd1dd2440231213987b5bb083f6e9b6256305eb3861a63d445f9", "blocktime": 1537873891, "version": 1, "confirmations": 11478, "time": 1537873891, "locktime": 0, "vsize": 284, "size": 284}