{"hash": "b285d6c53b7ef73ec51153a5dd5b52619eeb48d84174b0b47b89bd7bd8cec6de", "blockhash": "0000000000000000000baef3f32e3676a92c3b2e5da21b426e4f302fc371ce76", "vout": [{"scriptPubKey": {"reqSigs": 1, "hex": "a91469f373f21ba274c5b6eca6eb3f099dab32b8201787", "addresses": ["3BMEX6E1jGkijFHUwgEGCFLvhizhTXZDPh"], "asm": "OP_HASH160 69f373f21ba274c5b6eca6eb3f099dab32b82017 OP_EQUAL", "type": "scripthash"}, "value": 0.01425394, "n": 0}], "hex": "01000000023d1611c2ba87b80cd116116112391811eeda70eb1a090cd5331da02f82542edb000000006a47304402203dc9de35dddf7eb74ad71855428d45c16366567f0e40dd0242edb7931166076f022002ac8b6550577bbac3cb6aa182c802747c3852dd02fd8b1df2cf233728d323a1012103df8bdbe898c88d685e19364c661e3a3f840852bf9cbc35c692ea02aa91cef5c8ffffffffaa99615be0bbe6016c5d0006d9181603e361fd2395dbc8dffaa13b4ad8453658360000006b483045022100830aeffbe1be2885d6ec97b40d6517e10c2279cfccc4e83e43d1d53e6e72f4bf02207a54266ec4a7ecda8ec2f8087b4ef4689d1c1ea2960479398a7149be7436c07e012102f8d1568149434458af9765daa85cbed1b2bbd61e99f5f6e0e32e6d68aab09cc4ffffffff01f2bf15000000000017a91469f373f21ba274c5b6eca6eb3f099dab32b820178700000000", "vin": [{"sequence": 4294967295, "scriptSig": {"hex": "47304402203dc9de35dddf7eb74ad71855428d45c16366567f0e40dd0242edb7931166076f022002ac8b6550577bbac3cb6aa182c802747c3852dd02fd8b1df2cf233728d323a1012103df8bdbe898c88d685e19364c661e3a3f840852bf9cbc35c692ea02aa91cef5c8", "asm": "304402203dc9de35dddf7eb74ad71855428d45c16366567f0e40dd0242edb7931166076f022002ac8b6550577bbac3cb6aa182c802747c3852dd02fd8b1df2cf233728d323a1[ALL] 03df8bdbe898c88d685e19364c661e3a3f840852bf9cbc35c692ea02aa91cef5c8"}, "vout": 0, "txid": "db2e54822fa01d33d50c091aeb70daee11183912611116d10cb887bac211163d"}, {"sequence": 4294967295, "scriptSig": {"hex": "483045022100830aeffbe1be2885d6ec97b40d6517e10c2279cfccc4e83e43d1d53e6e72f4bf02207a54266ec4a7ecda8ec2f8087b4ef4689d1c1ea2960479398a7149be7436c07e012102f8d1568149434458af9765daa85cbed1b2bbd61e99f5f6e0e32e6d68aab09cc4", "asm": "3045022100830aeffbe1be2885d6ec97b40d6517e10c2279cfccc4e83e43d1d53e6e72f4bf02207a54266ec4a7ecda8ec2f8087b4ef4689d1c1ea2960479398a7149be7436c07e[ALL] 02f8d1568149434458af9765daa85cbed1b2bbd61e99f5f6e0e32e6d68aab09cc4"}, "vout": 54, "txid": "583645d84a3ba1fadfc8db9523fd61e3031618d906005d6c01e6bbe05b6199aa"}], "txid": "b285d6c53b7ef73ec51153a5dd5b52619eeb48d84174b0b47b89bd7bd8cec6de", "blocktime": 1537876114, "version": 1, "confirmations": 11460, "time": 1537876114, "locktime": 0, "vsize": 337, "size": 337}