{"hash": "b28672d2210fcd00c55ac5ec976e4efefee80527bb9634183b83d9158662779a", "blockhash": "00000000000000000004ffacab907a6b429b9a5745fa0b75af4234bf69dd7176", "vout": [{"scriptPubKey": {"reqSigs": 1, "hex": "a914e72c39be355c6c4cf26b3c8ab43e39520205f05487", "addresses": ["3NmLzhgfaWfzwtwgXfdaBCTLLPTAKN7Efc"], "asm": "OP_HASH160 e72c39be355c6c4cf26b3c8ab43e39520205f054 OP_EQUAL", "type": "scripthash"}, "value": 0.00931444, "n": 0}, {"scriptPubKey": {"reqSigs": 1, "hex": "76a914c0293bbcbff5fa63bd5394cae5520874c557f59488ac", "addresses": ["1JX48mwEsNnnKF7xj91GTGLMoJCQBkfRXz"], "asm": "OP_DUP OP_HASH160 c0293bbcbff5fa63bd5394cae5520874c557f594 OP_EQUALVERIFY OP_CHECKSIG", "type": "pubkeyhash"}, "value": 0.0433775, "n": 1}], "hex": "0100000001fc451a804e2957ec19399e7653d7a4960529ab16a768b960ec91962028f34b21010000006a4730440220734252339d5a62058138b4bee87ea40cee9e58fdee2168635f1434ee36f18c3a022028eccd6c53a8bb5083de6b86ad6af91e432410e03fddb9914cf15a995bc2bcd6012102494e92e96d723cad6a11e6e05273bf01254151e1986c2b696320e2fbb2e66a58ffffffff0274360e000000000017a914e72c39be355c6c4cf26b3c8ab43e39520205f0548756304200000000001976a914c0293bbcbff5fa63bd5394cae5520874c557f59488ac00000000", "vin": [{"sequence": 4294967295, "scriptSig": {"hex": "4730440220734252339d5a62058138b4bee87ea40cee9e58fdee2168635f1434ee36f18c3a022028eccd6c53a8bb5083de6b86ad6af91e432410e03fddb9914cf15a995bc2bcd6012102494e92e96d723cad6a11e6e05273bf01254151e1986c2b696320e2fbb2e66a58", "asm": "30440220734252339d5a62058138b4bee87ea40cee9e58fdee2168635f1434ee36f18c3a022028eccd6c53a8bb5083de6b86ad6af91e432410e03fddb9914cf15a995bc2bcd6[ALL] 02494e92e96d723cad6a11e6e05273bf01254151e1986c2b696320e2fbb2e66a58"}, "vout": 1, "txid": "214bf328209691ec60b968a716ab290596a4d753769e3919ec57294e801a45fc"}], "txid": "b28672d2210fcd00c55ac5ec976e4efefee80527bb9634183b83d9158662779a", "blocktime": 1537875543, "version": 1, "confirmations": 11464, "time": 1537875543, "locktime": 0, "vsize": 223, "size": 223}