{"hash": "b29132c34eb72d6a6dbc0136efbcecd34898ff3dbe56a854eb31b0bb143d893c", "blockhash": "0000000000000000001cda96e906b7601b7a6fb1a3b62bca570a9e5d8f4b3de1", "vout": [{"scriptPubKey": {"reqSigs": 1, "hex": "76a914d374b5b4f29d10187d7bd64a755c284c58ad370188ac", "addresses": ["1LH5Pcf24hDQHrW2sV5JGXqMxHmtKW7bvm"], "asm": "OP_DUP OP_HASH160 d374b5b4f29d10187d7bd64a755c284c58ad3701 OP_EQUALVERIFY OP_CHECKSIG", "type": "pubkeyhash"}, "value": 0.03284987, "n": 0}, {"scriptPubKey": {"reqSigs": 1, "hex": "76a91436faa650cc2dad0ed9c83d30bf94c06d1c7ea30088ac", "addresses": ["161hkob9PGSRTLAMq5NGYMxdbPy9ZtUZmu"], "asm": "OP_DUP OP_HASH160 36faa650cc2dad0ed9c83d30bf94c06d1c7ea300 OP_EQUALVERIFY OP_CHECKSIG", "type": "pubkeyhash"}, "value": 0.02189104, "n": 1}], "hex": "010000000170ca314ed9fc796aebed01a6b87078f05b516dfdc59da3e23828effb3d17cd81100000006b483045022100867c90dfb12d4689c0865227c90a9cfa71a8501fe5190b78df633005b332d26d022005f2139d478192d5cac388246d4f9217b7a7c83eaabbca96921a76fad5273738012103973c110f025d101f398f3c7e09132c9057f9f10d7cc2ac04a08fea6a3160119dffffffff02fb1f3200000000001976a914d374b5b4f29d10187d7bd64a755c284c58ad370188ac30672100000000001976a91436faa650cc2dad0ed9c83d30bf94c06d1c7ea30088ac00000000", "vin": [{"sequence": 4294967295, "scriptSig": {"hex": "483045022100867c90dfb12d4689c0865227c90a9cfa71a8501fe5190b78df633005b332d26d022005f2139d478192d5cac388246d4f9217b7a7c83eaabbca96921a76fad5273738012103973c110f025d101f398f3c7e09132c9057f9f10d7cc2ac04a08fea6a3160119d", "asm": "3045022100867c90dfb12d4689c0865227c90a9cfa71a8501fe5190b78df633005b332d26d022005f2139d478192d5cac388246d4f9217b7a7c83eaabbca96921a76fad5273738[ALL] 03973c110f025d101f398f3c7e09132c9057f9f10d7cc2ac04a08fea6a3160119d"}, "vout": 16, "txid": "81cd173dfbef2838e2a39dc5fd6d515bf07870b8a601edeb6a79fcd94e31ca70"}], "txid": "b29132c34eb72d6a6dbc0136efbcecd34898ff3dbe56a854eb31b0bb143d893c", "blocktime": 1537873282, "version": 1, "confirmations": 11485, "time": 1537873282, "locktime": 0, "vsize": 226, "size": 226}