{"hash": "b292f95897cd547c7caab12af859dbdd7688a8774eca61e1046c6bfba297e2f7", "blockhash": "000000000000000000022b45ed06c6f4ccd3cf7fb5ba4856ebd2e58215665228", "vout": [{"scriptPubKey": {"reqSigs": 1, "hex": "76a914c90c4b4e03ec31072cbfdaab00727c1afe1191c988ac", "addresses": ["1KL3YmismwrSYH6ZSyuzpYsbVcYjx8sdvc"], "asm": "OP_DUP OP_HASH160 c90c4b4e03ec31072cbfdaab00727c1afe1191c9 OP_EQUALVERIFY OP_CHECKSIG", "type": "pubkeyhash"}, "value": 4.69, "n": 0}, {"scriptPubKey": {"reqSigs": 1, "hex": "76a91432b3e7fba4bfd313abced54fcc9cb97bb2880b1b88ac", "addresses": ["15d6Jh9sqYv5MxfjGNdGLdQ1VqBZpgQx6X"], "asm": "OP_DUP OP_HASH160 32b3e7fba4bfd313abced54fcc9cb97bb2880b1b OP_EQUALVERIFY OP_CHECKSIG", "type": "pubkeyhash"}, "value": 1.7517, "n": 1}], "hex": "01000000040a512ad24dcd25fd6b36a99aed780a7bd0785df42d47c68fc32fb1301726c46e010000006b483045022100954a2e327d9df484b902f54e09e6203453e89fdc59e2e971aaba160b85be27980220576ad1079529be59727d4cf4d7c1aa0cbed3246ce5ebe3f037cff568a975596c01210221ae50a0a24c04dabe698479edfe92fb24b9b5afad813eac85fcfcd56f8182dffffffffff75a6e4c70bc913558325226800d87d220af61321f1b550b52af679c5984515f000000006a473044022052daaf1a547315625f9beed38071feb48496da331029af680c7e78ddf06e569402201fadb1851f2da91ac04e920d08b4e49a64384de2c631e28ebdd243b161cdd11c012103cf01920c5bfb3b8e6de63eda21d9d45551698f076414728f7685caf9ddeed2adffffffffa29cde75d17f043bd40f0989ef45ce6847dfa1d226bbc47f25c0355bffe43cec000000006a4730440220226f7b2c1d6312930fd286f0328cc64a91736a51bff7a4f907543179ef05cff0022038dede317e451cf9d6e257cd564f11dd3e080fcde1d11bf3d1e5fc7b81208766012103939e6784a9c44d813550b722d9024d635d0601ec801bf0b402ec2bee3cb132ccffffffff0a512ad24dcd25fd6b36a99aed780a7bd0785df42d47c68fc32fb1301726c46e000000006b483045022100f344209a7970fbe01bf30afc15579a60a452030c0959f9ff376840d5348c9577022078eee0a652bf2104dd513c64ee28ada419307d56af6853a8fa79bc3ee6ada9c8012102545d1f2029fb458645f56b16e8994c58ac90e785286980ff2eb09d997da45b73ffffffff02405ff41b000000001976a914c90c4b4e03ec31072cbfdaab00727c1afe1191c988acd0e1700a000000001976a91432b3e7fba4bfd313abced54fcc9cb97bb2880b1b88ac00000000", "vin": [{"sequence": 4294967295, "scriptSig": {"hex": "483045022100954a2e327d9df484b902f54e09e6203453e89fdc59e2e971aaba160b85be27980220576ad1079529be59727d4cf4d7c1aa0cbed3246ce5ebe3f037cff568a975596c01210221ae50a0a24c04dabe698479edfe92fb24b9b5afad813eac85fcfcd56f8182df", "asm": "3045022100954a2e327d9df484b902f54e09e6203453e89fdc59e2e971aaba160b85be27980220576ad1079529be59727d4cf4d7c1aa0cbed3246ce5ebe3f037cff568a975596c[ALL] 0221ae50a0a24c04dabe698479edfe92fb24b9b5afad813eac85fcfcd56f8182df"}, "vout": 1, "txid": "6ec4261730b12fc38fc6472df45d78d07b0a78ed9aa9366bfd25cd4dd22a510a"}, {"sequence": 4294967295, "scriptSig": {"hex": "473044022052daaf1a547315625f9beed38071feb48496da331029af680c7e78ddf06e569402201fadb1851f2da91ac04e920d08b4e49a64384de2c631e28ebdd243b161cdd11c012103cf01920c5bfb3b8e6de63eda21d9d45551698f076414728f7685caf9ddeed2ad", "asm": "3044022052daaf1a547315625f9beed38071feb48496da331029af680c7e78ddf06e569402201fadb1851f2da91ac04e920d08b4e49a64384de2c631e28ebdd243b161cdd11c[ALL] 03cf01920c5bfb3b8e6de63eda21d9d45551698f076414728f7685caf9ddeed2ad"}, "vout": 0, "txid": "5f5184599c67af520b551b1f3261af20d2870d80265232583591bc704c6e5af7"}, {"sequence": 4294967295, "scriptSig": {"hex": "4730440220226f7b2c1d6312930fd286f0328cc64a91736a51bff7a4f907543179ef05cff0022038dede317e451cf9d6e257cd564f11dd3e080fcde1d11bf3d1e5fc7b81208766012103939e6784a9c44d813550b722d9024d635d0601ec801bf0b402ec2bee3cb132cc", "asm": "30440220226f7b2c1d6312930fd286f0328cc64a91736a51bff7a4f907543179ef05cff0022038dede317e451cf9d6e257cd564f11dd3e080fcde1d11bf3d1e5fc7b81208766[ALL] 03939e6784a9c44d813550b722d9024d635d0601ec801bf0b402ec2bee3cb132cc"}, "vout": 0, "txid": "ec3ce4ff5b35c0257fc4bb26d2a1df4768ce45ef89090fd43b047fd175de9ca2"}, {"sequence": 4294967295, "scriptSig": {"hex": "483045022100f344209a7970fbe01bf30afc15579a60a452030c0959f9ff376840d5348c9577022078eee0a652bf2104dd513c64ee28ada419307d56af6853a8fa79bc3ee6ada9c8012102545d1f2029fb458645f56b16e8994c58ac90e785286980ff2eb09d997da45b73", "asm": "3045022100f344209a7970fbe01bf30afc15579a60a452030c0959f9ff376840d5348c9577022078eee0a652bf2104dd513c64ee28ada419307d56af6853a8fa79bc3ee6ada9c8[ALL] 02545d1f2029fb458645f56b16e8994c58ac90e785286980ff2eb09d997da45b73"}, "vout": 0, "txid": "6ec4261730b12fc38fc6472df45d78d07b0a78ed9aa9366bfd25cd4dd22a510a"}], "txid": "b292f95897cd547c7caab12af859dbdd7688a8774eca61e1046c6bfba297e2f7", "blocktime": 1537869901, "version": 1, "confirmations": 11522, "time": 1537869901, "locktime": 0, "vsize": 668, "size": 668}