{"hash": "b29656a099ab5c476bae43dfc277ec392b51edfb84a61b19aff5d0850a27a893", "blockhash": "0000000000000000001f76057863aec43deb6fa401d9628bb513d65a8098bfab", "vout": [{"scriptPubKey": {"reqSigs": 1, "hex": "76a9148336e71e10fe8ddfea01a435b89d36c7c48de6ce88ac", "addresses": ["1CxoHqv8k523VzV6tvJ7XMHg7FWTrXQZ9X"], "asm": "OP_DUP OP_HASH160 8336e71e10fe8ddfea01a435b89d36c7c48de6ce OP_EQUALVERIFY OP_CHECKSIG", "type": "pubkeyhash"}, "value": 0.00543775, "n": 0}, {"scriptPubKey": {"reqSigs": 1, "hex": "76a914670d7a7e4da6bdafc8be1bbb053b709b100f84d688ac", "addresses": ["1APtkG73gnbEYWi4MrFBrGpdSK8jbEo4bC"], "asm": "OP_DUP OP_HASH160 670d7a7e4da6bdafc8be1bbb053b709b100f84d6 OP_EQUALVERIFY OP_CHECKSIG", "type": "pubkeyhash"}, "value": 0.00312883, "n": 1}], "hex": "010000000188206abbbe675fc0a8c8e94d97eee9428e163543d9603c0e2240c6babf26817f000000006b4830450221008c3e1526746a77827357829c60e0bd4440b268c19d2827c4e70a0b53f1c928c902205349b3c6371ba7645a1e06ce1caa6366e88812035a6bc11d20336250d261a93d01210355af24eef417041b798b89d3a7038be87800d2360a3485c29a7ec4d23f355f4dffffffff021f4c0800000000001976a9148336e71e10fe8ddfea01a435b89d36c7c48de6ce88ac33c60400000000001976a914670d7a7e4da6bdafc8be1bbb053b709b100f84d688ac00000000", "vin": [{"sequence": 4294967295, "scriptSig": {"hex": "4830450221008c3e1526746a77827357829c60e0bd4440b268c19d2827c4e70a0b53f1c928c902205349b3c6371ba7645a1e06ce1caa6366e88812035a6bc11d20336250d261a93d01210355af24eef417041b798b89d3a7038be87800d2360a3485c29a7ec4d23f355f4d", "asm": "30450221008c3e1526746a77827357829c60e0bd4440b268c19d2827c4e70a0b53f1c928c902205349b3c6371ba7645a1e06ce1caa6366e88812035a6bc11d20336250d261a93d[ALL] 0355af24eef417041b798b89d3a7038be87800d2360a3485c29a7ec4d23f355f4d"}, "vout": 0, "txid": "7f8126bfbac640220e3c60d94335168e42e9ee974de9c8a8c05f67bebb6a2088"}], "txid": "b29656a099ab5c476bae43dfc277ec392b51edfb84a61b19aff5d0850a27a893", "blocktime": 1537873891, "version": 1, "confirmations": 11475, "time": 1537873891, "locktime": 0, "vsize": 226, "size": 226}