{"hash": "b29c3183e28b09bb42559870b233d16f489fb655f87d86a4d1b89afe25fbe7e9", "blockhash": "000000000000000000022b45ed06c6f4ccd3cf7fb5ba4856ebd2e58215665228", "vout": [{"scriptPubKey": {"reqSigs": 1, "hex": "76a914199a23bdcf63e62fc258499380a097f48971fa4388ac", "addresses": ["13LNYc2kNHUytXPHeRzjGQXhfYFaSXHVzA"], "asm": "OP_DUP OP_HASH160 199a23bdcf63e62fc258499380a097f48971fa43 OP_EQUALVERIFY OP_CHECKSIG", "type": "pubkeyhash"}, "value": 0.00024566, "n": 0}, {"scriptPubKey": {"type": "nulldata", "hex": "6a146f6d6e69000000000000001f0000001571ef8af4", "asm": "OP_RETURN 6f6d6e69000000000000001f0000001571ef8af4"}, "value": 0.0, "n": 1}, {"scriptPubKey": {"reqSigs": 1, "hex": "76a9140ea2c16f9786cdfea33384770c72f226ae93ef3f88ac", "addresses": ["12LPS9L3BtpHJxCw7CBABQHFsKc7wFRjAR"], "asm": "OP_DUP OP_HASH160 0ea2c16f9786cdfea33384770c72f226ae93ef3f OP_EQUALVERIFY OP_CHECKSIG", "type": "pubkeyhash"}, "value": 5.46e-06, "n": 2}], "hex": "01000000022b4800264a0c488335d9d8141f500d8911cd91788e1fda9c5238c14bfe949730000000006b483045022100f068e95e811e268eb766c8f2c419903c756b83c6aab0464673bbf987584da99602205f2b17fe9aaa28dbe42362c097411377f827471ff004c0b7f8b217d17fa14430012102a17ada87d38d946e1a21504aa792b66d26391fd93c7a48bc297e7510e43231dffeffffffd394c2a5ac45e1fac868d559901f217672214ad35af8f85cfbb15fa90e757f6b010000006a47304402203d061404d6aa976fe55aa3d46d9a37d39f17e6418341380d61d377ee099efc6d02203ff0054943d8c83b21c3b1217ef4c47ea1e41ca716b489fe6706e5fe0f5c8191012102a17ada87d38d946e1a21504aa792b66d26391fd93c7a48bc297e7510e43231dffeffffff03f65f0000000000001976a914199a23bdcf63e62fc258499380a097f48971fa4388ac0000000000000000166a146f6d6e69000000000000001f0000001571ef8af422020000000000001976a9140ea2c16f9786cdfea33384770c72f226ae93ef3f88ac0b490800", "vin": [{"sequence": 4294967294, "scriptSig": {"hex": "483045022100f068e95e811e268eb766c8f2c419903c756b83c6aab0464673bbf987584da99602205f2b17fe9aaa28dbe42362c097411377f827471ff004c0b7f8b217d17fa14430012102a17ada87d38d946e1a21504aa792b66d26391fd93c7a48bc297e7510e43231df", "asm": "3045022100f068e95e811e268eb766c8f2c419903c756b83c6aab0464673bbf987584da99602205f2b17fe9aaa28dbe42362c097411377f827471ff004c0b7f8b217d17fa14430[ALL] 02a17ada87d38d946e1a21504aa792b66d26391fd93c7a48bc297e7510e43231df"}, "vout": 0, "txid": "309794fe4bc138529cda1f8e7891cd11890d501f14d8d93583480c4a2600482b"}, {"sequence": 4294967294, "scriptSig": {"hex": "47304402203d061404d6aa976fe55aa3d46d9a37d39f17e6418341380d61d377ee099efc6d02203ff0054943d8c83b21c3b1217ef4c47ea1e41ca716b489fe6706e5fe0f5c8191012102a17ada87d38d946e1a21504aa792b66d26391fd93c7a48bc297e7510e43231df", "asm": "304402203d061404d6aa976fe55aa3d46d9a37d39f17e6418341380d61d377ee099efc6d02203ff0054943d8c83b21c3b1217ef4c47ea1e41ca716b489fe6706e5fe0f5c8191[ALL] 02a17ada87d38d946e1a21504aa792b66d26391fd93c7a48bc297e7510e43231df"}, "vout": 1, "txid": "6b7f750ea95fb1fb5cf8f85ad34a217276211f9059d568c8fae145aca5c294d3"}], "txid": "b29c3183e28b09bb42559870b233d16f489fb655f87d86a4d1b89afe25fbe7e9", "blocktime": 1537869901, "version": 1, "confirmations": 11522, "time": 1537869901, "locktime": 542987, "vsize": 404, "size": 404}