{"hash": "b2a480aa1ebeba4fe419e0ac824ffb081bff0cafab9cc97175ca8e9241e5e0be", "blockhash": "0000000000000000001f76057863aec43deb6fa401d9628bb513d65a8098bfab", "vout": [{"scriptPubKey": {"reqSigs": 1, "hex": "76a914d243e6abb9a60fbff430b421d2df4b7d59ec186088ac", "addresses": ["1LAnF8h3qMGx3TSwNUHVneBZUEpwE4gu3D"], "asm": "OP_DUP OP_HASH160 d243e6abb9a60fbff430b421d2df4b7d59ec1860 OP_EQUALVERIFY OP_CHECKSIG", "type": "pubkeyhash"}, "value": 0.00076972, "n": 0}, {"scriptPubKey": {"reqSigs": 1, "hex": "76a9143851f34d13937b673a7d24a1950bb5b21ce94af388ac", "addresses": ["168o1kqNquEJeR9vosUB5fw4eAwcVAgh8P"], "asm": "OP_DUP OP_HASH160 3851f34d13937b673a7d24a1950bb5b21ce94af3 OP_EQUALVERIFY OP_CHECKSIG", "type": "pubkeyhash"}, "value": 5.46e-06, "n": 1}, {"scriptPubKey": {"type": "nulldata", "hex": "6a146f6d6e69000000000000001f000001d1a94a2000", "asm": "OP_RETURN 6f6d6e69000000000000001f000001d1a94a2000"}, "value": 0.0, "n": 2}], "hex": "0100000002ab6c7b9977fc1966f1cfac3ee01d2068bf1158fd59c27aa3e189bd96ff10ac98010000006b483045022100fc5f51e97f256f8c0c92c11d19314da6bca272f535dcf707ea0e2b0a96d8ca2502201f587ec4cb3410edf9285768ce879b530ea978ecd8fedcfe8952166d3ee87687012103476ea371cfacc7c6d28ca8df4c97c73e7c189bfe92aef4575d0d76ddf97d3fc9ffffffff45e6b58cd165f0e6668f7b2af0794c368ee86594e0bacf85d2b28b6981122f7c000000006b483045022100e5832789090722c30590e1b01d9488619c1e3f44a8743d5e1cd6fcd048b84e37022057422f9ca44eb9f9d58ceb02ddc9bc48435fc16ce2664748f90ec8d5dcb4018301210271977291b74f1f5f5c42157e8aae804664eaaeccfd097918450d37f28fb94d77ffffffff03ac2c0100000000001976a914d243e6abb9a60fbff430b421d2df4b7d59ec186088ac22020000000000001976a9143851f34d13937b673a7d24a1950bb5b21ce94af388ac0000000000000000166a146f6d6e69000000000000001f000001d1a94a200000000000", "vin": [{"sequence": 4294967295, "scriptSig": {"hex": "483045022100fc5f51e97f256f8c0c92c11d19314da6bca272f535dcf707ea0e2b0a96d8ca2502201f587ec4cb3410edf9285768ce879b530ea978ecd8fedcfe8952166d3ee87687012103476ea371cfacc7c6d28ca8df4c97c73e7c189bfe92aef4575d0d76ddf97d3fc9", "asm": "3045022100fc5f51e97f256f8c0c92c11d19314da6bca272f535dcf707ea0e2b0a96d8ca2502201f587ec4cb3410edf9285768ce879b530ea978ecd8fedcfe8952166d3ee87687[ALL] 03476ea371cfacc7c6d28ca8df4c97c73e7c189bfe92aef4575d0d76ddf97d3fc9"}, "vout": 1, "txid": "98ac10ff96bd89e1a37ac259fd5811bf68201de03eaccff16619fc77997b6cab"}, {"sequence": 4294967295, "scriptSig": {"hex": "483045022100e5832789090722c30590e1b01d9488619c1e3f44a8743d5e1cd6fcd048b84e37022057422f9ca44eb9f9d58ceb02ddc9bc48435fc16ce2664748f90ec8d5dcb4018301210271977291b74f1f5f5c42157e8aae804664eaaeccfd097918450d37f28fb94d77", "asm": "3045022100e5832789090722c30590e1b01d9488619c1e3f44a8743d5e1cd6fcd048b84e37022057422f9ca44eb9f9d58ceb02ddc9bc48435fc16ce2664748f90ec8d5dcb40183[ALL] 0271977291b74f1f5f5c42157e8aae804664eaaeccfd097918450d37f28fb94d77"}, "vout": 0, "txid": "7c2f1281698bb2d285cfbae09465e88e364c79f02a7b8f66e6f065d18cb5e645"}], "txid": "b2a480aa1ebeba4fe419e0ac824ffb081bff0cafab9cc97175ca8e9241e5e0be", "blocktime": 1537873891, "version": 1, "confirmations": 11475, "time": 1537873891, "locktime": 0, "vsize": 405, "size": 405}