{"hash": "c5bb75b9d874e9ecb92d290e94f188b665eb468fe4276da73e2064307dbe9cda", "blockhash": "0000000000000000000dcc0f55137456b1a82d3642486a52398922ac4d620174", "vout": [{"scriptPubKey": {"reqSigs": 1, "hex": "76a914dd3ed3e7abd5eb91de0defbbb8c5e0ba6cf9924688ac", "addresses": ["1MAqbk7kFNUFxYUM4h7NNRiBGskdiJL8qV"], "asm": "OP_DUP OP_HASH160 dd3ed3e7abd5eb91de0defbbb8c5e0ba6cf99246 OP_EQUALVERIFY OP_CHECKSIG", "type": "pubkeyhash"}, "value": 0.000312, "n": 0}, {"scriptPubKey": {"reqSigs": 1, "hex": "0014a100ce458624f4f37ff8f6866ee048fde2ee8044", "addresses": ["bc1q5yqvu3vxyn60xllc76rxaczglh3waqzypfmmeg"], "asm": "0 a100ce458624f4f37ff8f6866ee048fde2ee8044", "type": "witness_v0_keyhash"}, "value": 1.318e-05, "n": 1}], "hex": "01000000000101e9ae164a48c541d259876df9c8ff0497e6fd7bba3d9865e2fb455f003f5d7461000000001716001425172b2b713f052e6ced60b6978ce49d1d4efb60ffffffff02e0790000000000001976a914dd3ed3e7abd5eb91de0defbbb8c5e0ba6cf9924688ac2605000000000000160014a100ce458624f4f37ff8f6866ee048fde2ee804402473044022066fe71518a4345686e2d0f7e0521c23bc4dc3e8e5dafdf6d7d566e926db97acf02205b209361e42f707fa025dc9f4ca83b04f5ff4693bebf1d4e54a50b4b7c850e6e012102b7177fab647d8550ea03bf40c2d2ced8de49e40c0fe2a2196bbe61e24a1d132b00000000", "vin": [{"txinwitness": ["3044022066fe71518a4345686e2d0f7e0521c23bc4dc3e8e5dafdf6d7d566e926db97acf02205b209361e42f707fa025dc9f4ca83b04f5ff4693bebf1d4e54a50b4b7c850e6e01", "02b7177fab647d8550ea03bf40c2d2ced8de49e40c0fe2a2196bbe61e24a1d132b"], "sequence": 4294967295, "scriptSig": {"hex": "16001425172b2b713f052e6ced60b6978ce49d1d4efb60", "asm": "001425172b2b713f052e6ced60b6978ce49d1d4efb60"}, "vout": 0, "txid": "61745d3f005f45fbe265983dba7bfde69704ffc8f96d8759d241c5484a16aee9"}], "txid": "b2a930a5381cf910f5a6af01f6befcd8a53544ac38ed5cda54ab47aa2ec113fe", "blocktime": 1537870268, "version": 1, "confirmations": 11518, "time": 1537870268, "locktime": 0, "vsize": 167, "size": 248}