{"hash": "b2ad86a392859e7f3da70703c4841b7e3f02860307b0aab075989b5d9446e068", "blockhash": "0000000000000000000e13cef7c366c0283d82e591d1acd082e914b08063cdf1", "vout": [{"scriptPubKey": {"reqSigs": 1, "hex": "76a914185b9903786a4fd4501bfd87185bad53bb484e4f88ac", "addresses": ["13DnwvcUk6aXmAqUfisnsRvbnV43Ekv33u"], "asm": "OP_DUP OP_HASH160 185b9903786a4fd4501bfd87185bad53bb484e4f OP_EQUALVERIFY OP_CHECKSIG", "type": "pubkeyhash"}, "value": 0.00396362, "n": 0}, {"scriptPubKey": {"reqSigs": 1, "hex": "76a914a281e6cfe40e8dc3913a4fabe387a847ad32280788ac", "addresses": ["1FpG5oKVDy1NyfhFocqtTfLqTufP1XiqsB"], "asm": "OP_DUP OP_HASH160 a281e6cfe40e8dc3913a4fabe387a847ad322807 OP_EQUALVERIFY OP_CHECKSIG", "type": "pubkeyhash"}, "value": 0.01163488, "n": 1}], "hex": "01000000010b6bfd77892092e4121dea85e14d53e7abf543ea2d25254e8169a782951592f3010000006a47304402206c3b75738e06f3f68502390d3d9c3dc2aae8853d739b0ffbbb77b20cf769a90202200df6c488ee72929f5038cc728013f53926c78d22ea7399befb70b6d82811b255012102d0e570fbbe7a2dad64073bee009f6d77154922b9438c5447f18f1d02b69f2134fdffffff024a0c0600000000001976a914185b9903786a4fd4501bfd87185bad53bb484e4f88ace0c01100000000001976a914a281e6cfe40e8dc3913a4fabe387a847ad32280788ac10490800", "vin": [{"sequence": 4294967293, "scriptSig": {"hex": "47304402206c3b75738e06f3f68502390d3d9c3dc2aae8853d739b0ffbbb77b20cf769a90202200df6c488ee72929f5038cc728013f53926c78d22ea7399befb70b6d82811b255012102d0e570fbbe7a2dad64073bee009f6d77154922b9438c5447f18f1d02b69f2134", "asm": "304402206c3b75738e06f3f68502390d3d9c3dc2aae8853d739b0ffbbb77b20cf769a90202200df6c488ee72929f5038cc728013f53926c78d22ea7399befb70b6d82811b255[ALL] 02d0e570fbbe7a2dad64073bee009f6d77154922b9438c5447f18f1d02b69f2134"}, "vout": 1, "txid": "f392159582a769814e25252dea43f5abe7534de185ea1d12e492208977fd6b0b"}], "txid": "b2ad86a392859e7f3da70703c4841b7e3f02860307b0aab075989b5d9446e068", "blocktime": 1537871767, "version": 1, "confirmations": 11495, "time": 1537871767, "locktime": 542992, "vsize": 225, "size": 225}