{"hash": "b2b19a4def72662b07613c2f8d4f8306b8d8b63b80fd4037b50bff88ef946139", "blockhash": "00000000000000000017f5eb5941039fbcee6240d03bc1f2f8e35350df66a1d8", "vout": [{"scriptPubKey": {"reqSigs": 1, "hex": "76a914d4154273aba4433971eb7803053649f5950da56c88ac", "addresses": ["1LLPiownXQxhqxgoKyh7i91Xupk4c9tMhg"], "asm": "OP_DUP OP_HASH160 d4154273aba4433971eb7803053649f5950da56c OP_EQUALVERIFY OP_CHECKSIG", "type": "pubkeyhash"}, "value": 0.00043721, "n": 0}], "hex": "0100000002e462992268a3f1a9975861c437890be0ec4cb9dd5738556fbf0d3d7be1238b3a000000006a473044022006afb78ea8db216109e54c98bf08d79658ffdd3e8334c6899fc8100856b4483f0220463a4b18101ef8201e76cbb2c37141dc3a4c98d18291fea01a5f3cf036eece810121020d4ec728942a10cdd2783dd0faeec2e419359f9ff27919a9060d5ccd1b31154ffeffffffde3731bf3e0ec4e378095a6ea59a4998f1d675e164b9e96a6f12d11bbe0d4045000000006b48304502210090407975c78d9e9c475a2f9529857f0e720010335003f9b5d83362c82fed55310220772110221699fac13a100a217d2e08e7eb968abf075c595d29808dceabb16bb8012103dabe11d7408950a15153d6556fca2f65a833ebaef05246ed3aacaa9b54ea3ca8feffffff01c9aa0000000000001976a914d4154273aba4433971eb7803053649f5950da56c88ac15490800", "vin": [{"sequence": 4294967294, "scriptSig": {"hex": "473044022006afb78ea8db216109e54c98bf08d79658ffdd3e8334c6899fc8100856b4483f0220463a4b18101ef8201e76cbb2c37141dc3a4c98d18291fea01a5f3cf036eece810121020d4ec728942a10cdd2783dd0faeec2e419359f9ff27919a9060d5ccd1b31154f", "asm": "3044022006afb78ea8db216109e54c98bf08d79658ffdd3e8334c6899fc8100856b4483f0220463a4b18101ef8201e76cbb2c37141dc3a4c98d18291fea01a5f3cf036eece81[ALL] 020d4ec728942a10cdd2783dd0faeec2e419359f9ff27919a9060d5ccd1b31154f"}, "vout": 0, "txid": "3a8b23e17b3d0dbf6f553857ddb94cece00b8937c4615897a9f1a368229962e4"}, {"sequence": 4294967294, "scriptSig": {"hex": "48304502210090407975c78d9e9c475a2f9529857f0e720010335003f9b5d83362c82fed55310220772110221699fac13a100a217d2e08e7eb968abf075c595d29808dceabb16bb8012103dabe11d7408950a15153d6556fca2f65a833ebaef05246ed3aacaa9b54ea3ca8", "asm": "304502210090407975c78d9e9c475a2f9529857f0e720010335003f9b5d83362c82fed55310220772110221699fac13a100a217d2e08e7eb968abf075c595d29808dceabb16bb8[ALL] 03dabe11d7408950a15153d6556fca2f65a833ebaef05246ed3aacaa9b54ea3ca8"}, "vout": 0, "txid": "45400dbe1bd1126f6ae9b964e175d6f198499aa56e5a0978e3c40e3ebf3137de"}], "txid": "b2b19a4def72662b07613c2f8d4f8306b8d8b63b80fd4037b50bff88ef946139", "blocktime": 1537874412, "version": 1, "confirmations": 11467, "time": 1537874412, "locktime": 542997, "vsize": 339, "size": 339}