{"hash": "b2c2cbea9065c0b879d76c032c3adedfa2b405939e544e69aac0b33a6e4eab79", "blockhash": "0000000000000000000e13cef7c366c0283d82e591d1acd082e914b08063cdf1", "vout": [{"scriptPubKey": {"reqSigs": 1, "hex": "76a914cff5fb750bc48054d02902548ea80e9c040dd15a88ac", "addresses": ["1KxbYrdBbHaSSVtJozW36sP7DdAtGLL68y"], "asm": "OP_DUP OP_HASH160 cff5fb750bc48054d02902548ea80e9c040dd15a OP_EQUALVERIFY OP_CHECKSIG", "type": "pubkeyhash"}, "value": 0.0364528, "n": 0}, {"scriptPubKey": {"type": "nulldata", "hex": "6a146f6d6e69000000000000001f00000009d141f9ea", "asm": "OP_RETURN 6f6d6e69000000000000001f00000009d141f9ea"}, "value": 0.0, "n": 1}, {"scriptPubKey": {"reqSigs": 1, "hex": "76a914b2e4f724cc7509f1dde96c06cc346a1988b99db988ac", "addresses": ["1HJuZwamMswxqVw5HqRSRX4UHe8e1JCngd"], "asm": "OP_DUP OP_HASH160 b2e4f724cc7509f1dde96c06cc346a1988b99db9 OP_EQUALVERIFY OP_CHECKSIG", "type": "pubkeyhash"}, "value": 5.46e-06, "n": 2}], "hex": "0100000001280fb1d6f6217d931c1c6bf4bcbb67b5286fa37780c08fffdf768a3b28abe876000000006b483045022100cf4761909ae1f66331541b6a7c86c084d4ff9a3037fbc5e81a763ab29a58a9ac0220621a01dcb911fed886d3b688d00dd2a6639b125e42d6a55de335a9847e1ccf0b0121034c9ee28259d5e83fc3b92adc9f2d784bb204330205de629c33336451f91808faffffffff03609f3700000000001976a914cff5fb750bc48054d02902548ea80e9c040dd15a88ac0000000000000000166a146f6d6e69000000000000001f00000009d141f9ea22020000000000001976a914b2e4f724cc7509f1dde96c06cc346a1988b99db988ac00000000", "vin": [{"sequence": 4294967295, "scriptSig": {"hex": "483045022100cf4761909ae1f66331541b6a7c86c084d4ff9a3037fbc5e81a763ab29a58a9ac0220621a01dcb911fed886d3b688d00dd2a6639b125e42d6a55de335a9847e1ccf0b0121034c9ee28259d5e83fc3b92adc9f2d784bb204330205de629c33336451f91808fa", "asm": "3045022100cf4761909ae1f66331541b6a7c86c084d4ff9a3037fbc5e81a763ab29a58a9ac0220621a01dcb911fed886d3b688d00dd2a6639b125e42d6a55de335a9847e1ccf0b[ALL] 034c9ee28259d5e83fc3b92adc9f2d784bb204330205de629c33336451f91808fa"}, "vout": 0, "txid": "76e8ab283b8a76dfff8fc08077a36f28b567bbbcf46b1c1c937d21f6d6b10f28"}], "txid": "b2c2cbea9065c0b879d76c032c3adedfa2b405939e544e69aac0b33a6e4eab79", "blocktime": 1537871767, "version": 1, "confirmations": 11490, "time": 1537871767, "locktime": 0, "vsize": 257, "size": 257}