{"hash": "b2c27beca37fa1cc5b66e72eed8e8987a14accde472b2865719ef9a5f8c0a5a3", "blockhash": "0000000000000000001f76057863aec43deb6fa401d9628bb513d65a8098bfab", "vout": [{"scriptPubKey": {"reqSigs": 1, "hex": "76a91412a1e0cf92b2b77ddd98ebd0b28eb19996cf1dc788ac", "addresses": ["12hX5wpdk5BXFEQN7i7BXLsgUdeeRQR7uH"], "asm": "OP_DUP OP_HASH160 12a1e0cf92b2b77ddd98ebd0b28eb19996cf1dc7 OP_EQUALVERIFY OP_CHECKSIG", "type": "pubkeyhash"}, "value": 0.007082, "n": 0}], "hex": "0100000001e08c1c9856f2ddb8342ac4b78b4fecb8a61a5fe32a611363e9193fb71c89ae78070000006b483045022100e0c4f5465ce54569c26b9185ed602ae2a5c18f8ad3a978a213e39606c8e84ec1022023d1dfc3f5685a71ec4d9bad67c5bf6396f3af436a88c9f16b31d1cd15f30903012103680b70942120c81ca13101255c12a3b39d943be1634f60ea819a3946e56742b2ffffffff0168ce0a00000000001976a91412a1e0cf92b2b77ddd98ebd0b28eb19996cf1dc788ac00000000", "vin": [{"sequence": 4294967295, "scriptSig": {"hex": "483045022100e0c4f5465ce54569c26b9185ed602ae2a5c18f8ad3a978a213e39606c8e84ec1022023d1dfc3f5685a71ec4d9bad67c5bf6396f3af436a88c9f16b31d1cd15f30903012103680b70942120c81ca13101255c12a3b39d943be1634f60ea819a3946e56742b2", "asm": "3045022100e0c4f5465ce54569c26b9185ed602ae2a5c18f8ad3a978a213e39606c8e84ec1022023d1dfc3f5685a71ec4d9bad67c5bf6396f3af436a88c9f16b31d1cd15f30903[ALL] 03680b70942120c81ca13101255c12a3b39d943be1634f60ea819a3946e56742b2"}, "vout": 7, "txid": "78ae891cb73f19e96313612ae35f1aa6b8ec4f8bb7c42a34b8ddf256981c8ce0"}], "txid": "b2c27beca37fa1cc5b66e72eed8e8987a14accde472b2865719ef9a5f8c0a5a3", "blocktime": 1537873891, "version": 1, "confirmations": 11478, "time": 1537873891, "locktime": 0, "vsize": 192, "size": 192}