{"hash": "b2c706527970ecc8fd83cb860ba54939b9854a206758a2c6c9e523a6de20f153", "blockhash": "0000000000000000001f76057863aec43deb6fa401d9628bb513d65a8098bfab", "vout": [{"scriptPubKey": {"reqSigs": 1, "hex": "76a9141e466c937554bf806d9541e2a209cf99ba68eca988ac", "addresses": ["13m5duiYqxdB8PVSqFVtPhwAMRWou9z814"], "asm": "OP_DUP OP_HASH160 1e466c937554bf806d9541e2a209cf99ba68eca9 OP_EQUALVERIFY OP_CHECKSIG", "type": "pubkeyhash"}, "value": 0.00699392, "n": 0}], "hex": "0100000001520c007e6074eec9a2b7858aaba1f3a988e2423a36a546ebe3d0aeebbec8c103010000006a473044022072f50d843efd3cc4f85793eb3c3ff1b9d1f60940f4608974932415bd8cd508e102203422747f190535b4ef3f77c38ee7e27f95c8dd4fe91476807fde76f22f1966b20121036607fa19b377a99b81d489eb21e9c17e5bddf837d4973ac9daef270ddb1eff57fdffffff0100ac0a00000000001976a9141e466c937554bf806d9541e2a209cf99ba68eca988ac14490800", "vin": [{"sequence": 4294967293, "scriptSig": {"hex": "473044022072f50d843efd3cc4f85793eb3c3ff1b9d1f60940f4608974932415bd8cd508e102203422747f190535b4ef3f77c38ee7e27f95c8dd4fe91476807fde76f22f1966b20121036607fa19b377a99b81d489eb21e9c17e5bddf837d4973ac9daef270ddb1eff57", "asm": "3044022072f50d843efd3cc4f85793eb3c3ff1b9d1f60940f4608974932415bd8cd508e102203422747f190535b4ef3f77c38ee7e27f95c8dd4fe91476807fde76f22f1966b2[ALL] 036607fa19b377a99b81d489eb21e9c17e5bddf837d4973ac9daef270ddb1eff57"}, "vout": 1, "txid": "03c1c8beebaed0e3eb46a5363a42e288a9f3a1ab8a85b7a2c9ee74607e000c52"}], "txid": "b2c706527970ecc8fd83cb860ba54939b9854a206758a2c6c9e523a6de20f153", "blocktime": 1537873891, "version": 1, "confirmations": 11478, "time": 1537873891, "locktime": 542996, "vsize": 191, "size": 191}