{"hash": "aa674c8d4b400d5d3b7412d9332175747367e23c87f22fda2481f7a723a636a5", "blockhash": "0000000000000000000baef3f32e3676a92c3b2e5da21b426e4f302fc371ce76", "vout": [{"scriptPubKey": {"reqSigs": 1, "hex": "a914156410b5df50a02cc79b8e022923bc810f10c86c87", "addresses": ["33e7zEFx3JMMUeW5ZGEQBSEE4ayt354SVL"], "asm": "OP_HASH160 156410b5df50a02cc79b8e022923bc810f10c86c OP_EQUAL", "type": "scripthash"}, "value": 0.00999036, "n": 0}, {"scriptPubKey": {"reqSigs": 1, "hex": "76a9146f104673df188baf5ac223568c5c6a735de7282688ac", "addresses": ["1B8FW7dT4b5aKLhNtrwBpJ3tUwUNPw6adC"], "asm": "OP_DUP OP_HASH160 6f104673df188baf5ac223568c5c6a735de72826 OP_EQUALVERIFY OP_CHECKSIG", "type": "pubkeyhash"}, "value": 0.0048236, "n": 1}], "hex": "020000000001027c05bafd8235974a796c1553824f65445bb3072ee619bcaec2d4dd3dfedb130a0100000017160014edafdae9f280cb43ce2f463e310e3928415bff6cfeffffffd16b81e1c91fb86918d405f4ba16dfd92d55459c5c2149b5d5d3c715f434027b07000000171600149331fb8b322559d8bf94f7d1e95310956d23af1bfeffffff027c3e0f000000000017a914156410b5df50a02cc79b8e022923bc810f10c86c87385c0700000000001976a9146f104673df188baf5ac223568c5c6a735de7282688ac02473044022016f2dcc0ae2317f7d385faff409506ea2aff5ff9a4c3776915766cb21047057d02206603109fb54fc96063fdbf848db73ee0ad1b5ec6e67db224cbc4d21e1969f8c7012102baafde86282fca8f43a731bcdbd4812de9c2952cff0ec0d28ac5956247269c0002483045022100e7eb78dc83a2bbe19e0eb0fd6b8c261ca0149d6a5307b889b1f5d1fed4d40398022020aab989b6318c9e7e6b8ff8b9b28e4257839c8b0104c3075c16ceab7e4681730121033dee885a80e457b770f76e2998eb93e9971e7f57e0031ea86f6ffd0efad9bf0517490800", "vin": [{"txinwitness": ["3044022016f2dcc0ae2317f7d385faff409506ea2aff5ff9a4c3776915766cb21047057d02206603109fb54fc96063fdbf848db73ee0ad1b5ec6e67db224cbc4d21e1969f8c701", "02baafde86282fca8f43a731bcdbd4812de9c2952cff0ec0d28ac5956247269c00"], "sequence": 4294967294, "scriptSig": {"hex": "160014edafdae9f280cb43ce2f463e310e3928415bff6c", "asm": "0014edafdae9f280cb43ce2f463e310e3928415bff6c"}, "vout": 1, "txid": "0a13dbfe3dddd4c2aebc19e62e07b35b44654f8253156c794a973582fdba057c"}, {"txinwitness": ["3045022100e7eb78dc83a2bbe19e0eb0fd6b8c261ca0149d6a5307b889b1f5d1fed4d40398022020aab989b6318c9e7e6b8ff8b9b28e4257839c8b0104c3075c16ceab7e46817301", "033dee885a80e457b770f76e2998eb93e9971e7f57e0031ea86f6ffd0efad9bf05"], "sequence": 4294967294, "scriptSig": {"hex": "1600149331fb8b322559d8bf94f7d1e95310956d23af1b", "asm": "00149331fb8b322559d8bf94f7d1e95310956d23af1b"}, "vout": 7, "txid": "7b0234f415c7d3d5b549215c9c45552dd9df16baf405d41869b81fc9e1816bd1"}], "txid": "b2c7af6005bed6724566fb0ef7dfd80b2a026e4886d0e91c194756a8fd67e5f1", "blocktime": 1537876114, "version": 2, "confirmations": 11462, "time": 1537876114, "locktime": 542999, "vsize": 259, "size": 421}