{"hash": "b2c8260cbba78bbb1b506c44d6cde7fd4185a2bfb74b728dc87ff9a22835e153", "blockhash": "0000000000000000001cda96e906b7601b7a6fb1a3b62bca570a9e5d8f4b3de1", "vout": [{"scriptPubKey": {"reqSigs": 1, "hex": "a91423cdf4135d98d862aa749aaec0333c93466b19ab87", "addresses": ["34xLJ9njmeRA9wLqriwm7jinMTpXBs79Xb"], "asm": "OP_HASH160 23cdf4135d98d862aa749aaec0333c93466b19ab OP_EQUAL", "type": "scripthash"}, "value": 0.00468965, "n": 0}, {"scriptPubKey": {"reqSigs": 1, "hex": "76a914e59cb81ee49e9daed21d90c1080b371596f308a388ac", "addresses": ["1Mw5UyMMCEXMtVK6y83Krq4yEWmUWoESSA"], "asm": "OP_DUP OP_HASH160 e59cb81ee49e9daed21d90c1080b371596f308a3 OP_EQUALVERIFY OP_CHECKSIG", "type": "pubkeyhash"}, "value": 0.00219573, "n": 1}], "hex": "01000000022b3c3b87f27c06e217284c85e4e54840ca79a66a4fef3e7b3b3347f3baa2628b000000006b483045022100e7779827a27f7a366a2581784393a92e1d2c29368bdfd150967f129ed5e70dd7022066822ed5b7ca9a18d82631b4568f5aa7fee3d5d76ca1b79f056904d1239776d6012103f59d9b5a03efb3b033bae534f4f93c4f4345d584efcbbbc62ef06ae28d8bbe70ffffffffebd2ec784bc05dd17c88e30ad0547f82a4f2cb3b34341dda3a496aea304d5993010000006b483045022100e8d4e3e88d01820f00e15feae0de75f942fe880c79a6dd03fa352024b13c9e9502207fc05a61456672d4989393b8819251ad38c5f3f8cc01394c5414c82b0d4c900a012102cd9297574b3c69634a4f8e037eb8b7f2be9fedd3e58d3ca71b2c0525a4500dcbffffffff02e52707000000000017a91423cdf4135d98d862aa749aaec0333c93466b19ab87b5590300000000001976a914e59cb81ee49e9daed21d90c1080b371596f308a388ac00000000", "vin": [{"sequence": 4294967295, "scriptSig": {"hex": "483045022100e7779827a27f7a366a2581784393a92e1d2c29368bdfd150967f129ed5e70dd7022066822ed5b7ca9a18d82631b4568f5aa7fee3d5d76ca1b79f056904d1239776d6012103f59d9b5a03efb3b033bae534f4f93c4f4345d584efcbbbc62ef06ae28d8bbe70", "asm": "3045022100e7779827a27f7a366a2581784393a92e1d2c29368bdfd150967f129ed5e70dd7022066822ed5b7ca9a18d82631b4568f5aa7fee3d5d76ca1b79f056904d1239776d6[ALL] 03f59d9b5a03efb3b033bae534f4f93c4f4345d584efcbbbc62ef06ae28d8bbe70"}, "vout": 0, "txid": "8b62a2baf347333b7b3eef4f6aa679ca4048e5e4854c2817e2067cf2873b3c2b"}, {"sequence": 4294967295, "scriptSig": {"hex": "483045022100e8d4e3e88d01820f00e15feae0de75f942fe880c79a6dd03fa352024b13c9e9502207fc05a61456672d4989393b8819251ad38c5f3f8cc01394c5414c82b0d4c900a012102cd9297574b3c69634a4f8e037eb8b7f2be9fedd3e58d3ca71b2c0525a4500dcb", "asm": "3045022100e8d4e3e88d01820f00e15feae0de75f942fe880c79a6dd03fa352024b13c9e9502207fc05a61456672d4989393b8819251ad38c5f3f8cc01394c5414c82b0d4c900a[ALL] 02cd9297574b3c69634a4f8e037eb8b7f2be9fedd3e58d3ca71b2c0525a4500dcb"}, "vout": 1, "txid": "93594d30ea6a493ada1d34343bcbf2a4827f54d00ae3887cd15dc04b78ecd2eb"}], "txid": "b2c8260cbba78bbb1b506c44d6cde7fd4185a2bfb74b728dc87ff9a22835e153", "blocktime": 1537873282, "version": 1, "confirmations": 11483, "time": 1537873282, "locktime": 0, "vsize": 372, "size": 372}