{"hash": "b2cb5b579cc7da49cced1b5abacbc9057631a83dcd3b7a5dc9d976e0a5677b82", "blockhash": "0000000000000000001f76057863aec43deb6fa401d9628bb513d65a8098bfab", "vout": [{"scriptPubKey": {"reqSigs": 1, "hex": "76a9149fe42147b623017f2a00a03386a5100a3b2a3b3b88ac", "addresses": ["1FaRjFaYsWbi6yBKM5y6rD2NoAXS3ew8wn"], "asm": "OP_DUP OP_HASH160 9fe42147b623017f2a00a03386a5100a3b2a3b3b OP_EQUALVERIFY OP_CHECKSIG", "type": "pubkeyhash"}, "value": 0.0020531, "n": 0}, {"scriptPubKey": {"reqSigs": 1, "hex": "76a914bbb3772c5c8e7784461e880770c12d10faca683f88ac", "addresses": ["1J7UMMc86A7hZrpG3PscG5z8j5MaqfsmLU"], "asm": "OP_DUP OP_HASH160 bbb3772c5c8e7784461e880770c12d10faca683f OP_EQUALVERIFY OP_CHECKSIG", "type": "pubkeyhash"}, "value": 0.00377737, "n": 1}], "hex": "01000000017f2924a0caf4c81489f0c03a78a5497f954df9a4b54b062d8a2332f0754fb124010000006a473044022005a5ef2f90202cd956e2969c263fc37ddbcd57f74e82b72c8083ba5ba984b19c02203047aa46c00d2fdeb46ced35190a63c5b4671b56e9e740514e708102aad29640012103702410f6257c1027d2291b6df6ff99190367d34489c21340b6be7a03b7d0a450ffffffff02fe210300000000001976a9149fe42147b623017f2a00a03386a5100a3b2a3b3b88ac89c30500000000001976a914bbb3772c5c8e7784461e880770c12d10faca683f88ac00000000", "vin": [{"sequence": 4294967295, "scriptSig": {"hex": "473044022005a5ef2f90202cd956e2969c263fc37ddbcd57f74e82b72c8083ba5ba984b19c02203047aa46c00d2fdeb46ced35190a63c5b4671b56e9e740514e708102aad29640012103702410f6257c1027d2291b6df6ff99190367d34489c21340b6be7a03b7d0a450", "asm": "3044022005a5ef2f90202cd956e2969c263fc37ddbcd57f74e82b72c8083ba5ba984b19c02203047aa46c00d2fdeb46ced35190a63c5b4671b56e9e740514e708102aad29640[ALL] 03702410f6257c1027d2291b6df6ff99190367d34489c21340b6be7a03b7d0a450"}, "vout": 1, "txid": "24b14f75f032238a2d064bb5a4f94d957f49a5783ac0f08914c8f4caa024297f"}], "txid": "b2cb5b579cc7da49cced1b5abacbc9057631a83dcd3b7a5dc9d976e0a5677b82", "blocktime": 1537873891, "version": 1, "confirmations": 11478, "time": 1537873891, "locktime": 0, "vsize": 225, "size": 225}