{"hash": "3ca515de5830b77efbb61245b2546c784a820703978b6271c87ded6a845e3512", "blockhash": "0000000000000000000dcc0f55137456b1a82d3642486a52398922ac4d620174", "vout": [{"scriptPubKey": {"reqSigs": 1, "hex": "a914f368697d992f55ca048654908caa494b0b54386c87", "addresses": ["3Pt3CqUP3srsWEouXJnCuhwaKbC9RfndZD"], "asm": "OP_HASH160 f368697d992f55ca048654908caa494b0b54386c OP_EQUAL", "type": "scripthash"}, "value": 0.00051183, "n": 0}, {"scriptPubKey": {"reqSigs": 1, "hex": "a9140be7846be16b05bea00dbec2fcd7e045a793cb1787", "addresses": ["32mxhko5mJHfkbkDPpz7SfdJwEJi21P1WK"], "asm": "OP_HASH160 0be7846be16b05bea00dbec2fcd7e045a793cb17 OP_EQUAL", "type": "scripthash"}, "value": 0.20297453, "n": 1}], "hex": "010000000001016a509c91cf2ee8ec20138b23bd241a36fcd4c375782be6a14bc7ea70a96e304401000000232200202c66ece6da72bcbfeadf83a91236f4891c13e14d8ecebdcaa81666fc1aa73a31ffffffff02efc700000000000017a914f368697d992f55ca048654908caa494b0b54386c87edb635010000000017a9140be7846be16b05bea00dbec2fcd7e045a793cb17870400473044022024f725dc409a99b55a4ee05f7f2dddfabf28bb2016a03b6e69b669fd76ba6a4502206f404316ab817283712e00b592c7fd2e01b1baff76bb25cb54e730a43affe9050147304402205f0a896db3e7aa15afab1ebded7741d8080ba6e54cb0e20c2a504aa0dbbbbbeb022033bd6279fa065ce65c1ee81e03dfd1b8c91be8e497d6730ac4fcc45db05f624201475221029e6fbb942d34a473faaa5557c1bfe08d72102f0b9754ad140fd369d7a3ba3cdc2103871fc2ca08e6950b38867e8e6a0e94ee625223d3aa0df5c65f414c6d784467e252ae00000000", "vin": [{"txinwitness": ["", "3044022024f725dc409a99b55a4ee05f7f2dddfabf28bb2016a03b6e69b669fd76ba6a4502206f404316ab817283712e00b592c7fd2e01b1baff76bb25cb54e730a43affe90501", "304402205f0a896db3e7aa15afab1ebded7741d8080ba6e54cb0e20c2a504aa0dbbbbbeb022033bd6279fa065ce65c1ee81e03dfd1b8c91be8e497d6730ac4fcc45db05f624201", "5221029e6fbb942d34a473faaa5557c1bfe08d72102f0b9754ad140fd369d7a3ba3cdc2103871fc2ca08e6950b38867e8e6a0e94ee625223d3aa0df5c65f414c6d784467e252ae"], "sequence": 4294967295, "scriptSig": {"hex": "2200202c66ece6da72bcbfeadf83a91236f4891c13e14d8ecebdcaa81666fc1aa73a31", "asm": "00202c66ece6da72bcbfeadf83a91236f4891c13e14d8ecebdcaa81666fc1aa73a31"}, "vout": 1, "txid": "44306ea970eac74ba1e62b7875c3d4fc361a24bd238b1320ece82ecf919c506a"}], "txid": "b2d09342b549d9f5eaa5b17e85636b027bbcfa6f09ca847a94c15fb80a122d74", "blocktime": 1537870268, "version": 1, "confirmations": 11518, "time": 1537870268, "locktime": 0, "vsize": 205, "size": 370}