{"hash": "8ba346f8e2e9c28b7c7abc024f4afd3a9875c66f1970bcfc479edfd4cad6c15a", "blockhash": "000000000000000000022b45ed06c6f4ccd3cf7fb5ba4856ebd2e58215665228", "vout": [{"scriptPubKey": {"reqSigs": 1, "hex": "a91446e387c30c944c25037f1daf76c0ba2e2ce6980687", "addresses": ["389qo4BWnTMqhAE1aRp6x8MAZ8DfmXD5i7"], "asm": "OP_HASH160 46e387c30c944c25037f1daf76c0ba2e2ce69806 OP_EQUAL", "type": "scripthash"}, "value": 0.012, "n": 0}], "hex": "0100000000010573d6c10d57067cdbee9c3ecd0381204579ed81b03e2c134dfa7f77689f92459a0000000017160014449a3acbd7e70f92bc631c68a3f72bdbd56b305ffdffffffd48bf20d64689df26fbc95d1053d0bcafcb2766f998cf2fe86874770af7937df01000000171600147be469b163bfd4934657daf60a6788330b2d3e99fdffffffe1ab20e7c5e83c0f123140091c62b0909de0e99cbc5920de7d7b740c6dea75660100000017160014433d7682b773debee6cf402c78d842ea1b6bb6a5fdffffffd39ec86bd67c9196a2960e89e338da76b2091ef536283059d1fdd4b5f2936c170300000017160014a3157929675d927788e4ce614b5d4bb59c661faefdffffff47ef8e8475a605985ba3f491367517b6398e33b78ac9a4589fbb9a392a0a2df60200000017160014dd2a242663a757519ef74db957f705e28d558c7afdffffff01804f12000000000017a91446e387c30c944c25037f1daf76c0ba2e2ce69806870247304402203b97e745615986bd1347709c184ebfc94ba8dd48e1839582133c5980ca0d0220022037b89834586b08a933958f0aed666b4ec6f67d059984cdf9d9ee8d7285b2ec9c012102b717745fa66239903c6279bfa5a5ff92444ea40b505702e5872201bae148ae9d0247304402206fdaa7b63e54dc4b19872a627e4153195a4f8e4291d739b48773733cb32182a5022037dab80762cfa717ecf1832380ddc51f3e0e06c4482b4361250475c453e3db8b012103ab23bcdff36dca7224f12409214518d4b9f4b007c6155855019e9d1e613c83f602483045022100f30a87c8df268ebf176c47eb4779f65b85193bc052593fe9b6c8a1a0b4c815e402204b59a03d2b72e0d77863cc341ae68fb86b2bb3e8a1e32639b76e6a01dea172bb012102396ed509e20cb7c33bce5e69894ae89fbe1fdc7f8fcd210546b4ddd7461d820d02483045022100e32bd52a4fbb32eb75679a4d730309bff52c9f980c18a1195e36fa9287fd28d202202e72b5d0a2bd50845914f5daa43f606971153e3eb01d138c568dcf001f0584a4012103e9de6cb0fdbb19df9a708180509ad1f4473d419a4bcc9f7d3b02b850c43c338f0247304402207ce7274d1b02ae2834932a948c78ec2181628fc80b26f0576f1b37bf407c5c3a0220450258668b96cdd4c51924852a9fb399d4dc3f2d754d7aaa9752e96dedafc09c012103a0f521d8583535009a1b1deba6fca8c6f57d4aa9983494cd6c8c663c8eec94890b490800", "vin": [{"txinwitness": ["304402203b97e745615986bd1347709c184ebfc94ba8dd48e1839582133c5980ca0d0220022037b89834586b08a933958f0aed666b4ec6f67d059984cdf9d9ee8d7285b2ec9c01", "02b717745fa66239903c6279bfa5a5ff92444ea40b505702e5872201bae148ae9d"], "sequence": 4294967293, "scriptSig": {"hex": "160014449a3acbd7e70f92bc631c68a3f72bdbd56b305f", "asm": "0014449a3acbd7e70f92bc631c68a3f72bdbd56b305f"}, "vout": 0, "txid": "9a45929f68777ffa4d132c3eb081ed7945208103cd3e9ceedb7c06570dc1d673"}, {"txinwitness": ["304402206fdaa7b63e54dc4b19872a627e4153195a4f8e4291d739b48773733cb32182a5022037dab80762cfa717ecf1832380ddc51f3e0e06c4482b4361250475c453e3db8b01", "03ab23bcdff36dca7224f12409214518d4b9f4b007c6155855019e9d1e613c83f6"], "sequence": 4294967293, "scriptSig": {"hex": "1600147be469b163bfd4934657daf60a6788330b2d3e99", "asm": "00147be469b163bfd4934657daf60a6788330b2d3e99"}, "vout": 1, "txid": "df3779af70478786fef28c996f76b2fcca0b3d05d195bc6ff29d68640df28bd4"}, {"txinwitness": ["3045022100f30a87c8df268ebf176c47eb4779f65b85193bc052593fe9b6c8a1a0b4c815e402204b59a03d2b72e0d77863cc341ae68fb86b2bb3e8a1e32639b76e6a01dea172bb01", "02396ed509e20cb7c33bce5e69894ae89fbe1fdc7f8fcd210546b4ddd7461d820d"], "sequence": 4294967293, "scriptSig": {"hex": "160014433d7682b773debee6cf402c78d842ea1b6bb6a5", "asm": "0014433d7682b773debee6cf402c78d842ea1b6bb6a5"}, "vout": 1, "txid": "6675ea6d0c747b7dde2059bc9ce9e09d90b0621c094031120f3ce8c5e720abe1"}, {"txinwitness": ["3045022100e32bd52a4fbb32eb75679a4d730309bff52c9f980c18a1195e36fa9287fd28d202202e72b5d0a2bd50845914f5daa43f606971153e3eb01d138c568dcf001f0584a401", "03e9de6cb0fdbb19df9a708180509ad1f4473d419a4bcc9f7d3b02b850c43c338f"], "sequence": 4294967293, "scriptSig": {"hex": "160014a3157929675d927788e4ce614b5d4bb59c661fae", "asm": "0014a3157929675d927788e4ce614b5d4bb59c661fae"}, "vout": 3, "txid": "176c93f2b5d4fdd159302836f51e09b276da38e3890e96a296917cd66bc89ed3"}, {"txinwitness": ["304402207ce7274d1b02ae2834932a948c78ec2181628fc80b26f0576f1b37bf407c5c3a0220450258668b96cdd4c51924852a9fb399d4dc3f2d754d7aaa9752e96dedafc09c01", "03a0f521d8583535009a1b1deba6fca8c6f57d4aa9983494cd6c8c663c8eec9489"], "sequence": 4294967293, "scriptSig": {"hex": "160014dd2a242663a757519ef74db957f705e28d558c7a", "asm": "0014dd2a242663a757519ef74db957f705e28d558c7a"}, "vout": 2, "txid": "f62d0a2a399abb9f58a4c98ab7338e39b617753691f4a35b9805a675848eef47"}], "txid": "b2d503d8c4be2facebb4c6008fe181f95f9b23cde6a9420bf64da615f46c162c", "blocktime": 1537869901, "version": 1, "confirmations": 11524, "time": 1537869901, "locktime": 542987, "vsize": 497, "size": 901}