{"hash": "b2d65344d00088887f277f6d082f2d509ab11d4d1fb4408e6ebfa65c5f974c2e", "blockhash": "0000000000000000000baef3f32e3676a92c3b2e5da21b426e4f302fc371ce76", "vout": [{"scriptPubKey": {"reqSigs": 1, "hex": "76a9147508b3c36b5a23d7e8af6a1ff3db25cb91aaef5d88ac", "addresses": ["1BfpV5rRd2Y3Yy3iCcQ5rUaciTov5NNbvq"], "asm": "OP_DUP OP_HASH160 7508b3c36b5a23d7e8af6a1ff3db25cb91aaef5d OP_EQUALVERIFY OP_CHECKSIG", "type": "pubkeyhash"}, "value": 0.010434, "n": 0}, {"scriptPubKey": {"reqSigs": 1, "hex": "76a914dc57ea735a5e7f3873d190e4ae19147df17702ee88ac", "addresses": ["1M64yhfddsV6hbNoWvKYJ14RcMQsm8EVfp"], "asm": "OP_DUP OP_HASH160 dc57ea735a5e7f3873d190e4ae19147df17702ee OP_EQUALVERIFY OP_CHECKSIG", "type": "pubkeyhash"}, "value": 0.0328836, "n": 1}], "hex": "0100000001ded87d62ec1ff36741bae2d2d69168bc1cf5c6c867f23966d68c2a17a0fc1ccd000000006b483045022100a9898c70892dc93f89186ba346ef0a72d1d8b1ecf69965487895af827f464f83022059ad28fbaad36a6af11c6fe5645effc805d777aea59eb479bd951c91441a8182012103b83d415f99527b32192a61677d5e7241c3e119ac496d6e2b57c94fa2dd34e1fffeffffff02c8eb0f00000000001976a9147508b3c36b5a23d7e8af6a1ff3db25cb91aaef5d88ac282d3200000000001976a914dc57ea735a5e7f3873d190e4ae19147df17702ee88ac17490800", "vin": [{"sequence": 4294967294, "scriptSig": {"hex": "483045022100a9898c70892dc93f89186ba346ef0a72d1d8b1ecf69965487895af827f464f83022059ad28fbaad36a6af11c6fe5645effc805d777aea59eb479bd951c91441a8182012103b83d415f99527b32192a61677d5e7241c3e119ac496d6e2b57c94fa2dd34e1ff", "asm": "3045022100a9898c70892dc93f89186ba346ef0a72d1d8b1ecf69965487895af827f464f83022059ad28fbaad36a6af11c6fe5645effc805d777aea59eb479bd951c91441a8182[ALL] 03b83d415f99527b32192a61677d5e7241c3e119ac496d6e2b57c94fa2dd34e1ff"}, "vout": 0, "txid": "cd1cfca0172a8cd66639f267c8c6f51cbc6891d6d2e2ba4167f31fec627dd8de"}], "txid": "b2d65344d00088887f277f6d082f2d509ab11d4d1fb4408e6ebfa65c5f974c2e", "blocktime": 1537876114, "version": 1, "confirmations": 11459, "time": 1537876114, "locktime": 542999, "vsize": 226, "size": 226}