{"hash": "b2da12d4244134d410e3963b39804719653c57e68dc88f3d2fb297febe7473a9", "blockhash": "000000000000000000022b45ed06c6f4ccd3cf7fb5ba4856ebd2e58215665228", "vout": [{"scriptPubKey": {"reqSigs": 1, "hex": "76a914750b464f0b5430e71acc3deea615a3d17b65851c88ac", "addresses": ["1BfsZpZvTTgs8ue4SW1SMQt2Q19QWdZ45S"], "asm": "OP_DUP OP_HASH160 750b464f0b5430e71acc3deea615a3d17b65851c OP_EQUALVERIFY OP_CHECKSIG", "type": "pubkeyhash"}, "value": 5.46e-06, "n": 0}, {"scriptPubKey": {"reqSigs": 1, "hex": "a9143f4eecba122ad73039d481c8d37f99cb4f887cd887", "addresses": ["37Tm3Qz8Zw2VJrheUUhArDAoq58S6YrS3g"], "asm": "OP_HASH160 3f4eecba122ad73039d481c8d37f99cb4f887cd8 OP_EQUAL", "type": "scripthash"}, "value": 0.99997454, "n": 1}, {"scriptPubKey": {"type": "nulldata", "hex": "6a146f6d6e69000000000000001f000002880e8e13c0", "asm": "OP_RETURN 6f6d6e69000000000000001f000002880e8e13c0"}, "value": 0.0, "n": 2}], "hex": "010000000110aa9a58ae6c88ab7d23f88f31d44881a7856b157504f722922bbddc5de8d7aa00000000fdfe0000483045022100bd68eebc3a15898162ebdbc37b94f47c916ee49a2183f417eff92f049e9aa9ec02207f63a8e5cff525d0112f3f2895323b3e8695d1f86df533e7f7023d56f4b8ddd401483045022100b1f62c133b7575ee747c7c6331ce6299ed1b8556c5f4624f34aa49aef13c349a02206cdd6e51559ebc7748fd3bbf0464af3c416b4a5d6e007900656510f656d58de2014c6952210246ccf4de0c54cc7f3354cdd993c2c50cf965fd82238b89659fbd73a1b4bf05a121024fc59f72272a897fe43803374969f396058152fe4765a8d15216f94624257b1b21022593bc69ecbf3bbcc3c58082267cb49dadaf4ca8dbf1b2297338a9d628c4297653aeffffffff0322020000000000001976a914750b464f0b5430e71acc3deea615a3d17b65851c88ac0ed7f5050000000017a9143f4eecba122ad73039d481c8d37f99cb4f887cd8870000000000000000166a146f6d6e69000000000000001f000002880e8e13c000000000", "vin": [{"sequence": 4294967295, "scriptSig": {"hex": "00483045022100bd68eebc3a15898162ebdbc37b94f47c916ee49a2183f417eff92f049e9aa9ec02207f63a8e5cff525d0112f3f2895323b3e8695d1f86df533e7f7023d56f4b8ddd401483045022100b1f62c133b7575ee747c7c6331ce6299ed1b8556c5f4624f34aa49aef13c349a02206cdd6e51559ebc7748fd3bbf0464af3c416b4a5d6e007900656510f656d58de2014c6952210246ccf4de0c54cc7f3354cdd993c2c50cf965fd82238b89659fbd73a1b4bf05a121024fc59f72272a897fe43803374969f396058152fe4765a8d15216f94624257b1b21022593bc69ecbf3bbcc3c58082267cb49dadaf4ca8dbf1b2297338a9d628c4297653ae", "asm": "0 3045022100bd68eebc3a15898162ebdbc37b94f47c916ee49a2183f417eff92f049e9aa9ec02207f63a8e5cff525d0112f3f2895323b3e8695d1f86df533e7f7023d56f4b8ddd4[ALL] 3045022100b1f62c133b7575ee747c7c6331ce6299ed1b8556c5f4624f34aa49aef13c349a02206cdd6e51559ebc7748fd3bbf0464af3c416b4a5d6e007900656510f656d58de2[ALL] 52210246ccf4de0c54cc7f3354cdd993c2c50cf965fd82238b89659fbd73a1b4bf05a121024fc59f72272a897fe43803374969f396058152fe4765a8d15216f94624257b1b21022593bc69ecbf3bbcc3c58082267cb49dadaf4ca8dbf1b2297338a9d628c4297653ae"}, "vout": 0, "txid": "aad7e85ddcbd2b9222f70475156b85a78148d4318ff8237dab886cae589aaa10"}], "txid": "b2da12d4244134d410e3963b39804719653c57e68dc88f3d2fb297febe7473a9", "blocktime": 1537869901, "version": 1, "confirmations": 11522, "time": 1537869901, "locktime": 0, "vsize": 404, "size": 404}