{"hash": "b2de41d6b2427c7f8748c9b5b0d765c20ffaad17c0475e5c22f66f7a448d5682", "blockhash": "0000000000000000001f76057863aec43deb6fa401d9628bb513d65a8098bfab", "vout": [{"scriptPubKey": {"type": "nulldata", "hex": "6a146f6d6e69000000000000001f000000112ed2a200", "asm": "OP_RETURN 6f6d6e69000000000000001f000000112ed2a200"}, "value": 0.0, "n": 0}, {"scriptPubKey": {"reqSigs": 1, "hex": "76a914311501b7076dd9d5be36416376c217bafbd6bd7e88ac", "addresses": ["15UXGyJXomEF2FMFGNwa1yiBY4mRda62KQ"], "asm": "OP_DUP OP_HASH160 311501b7076dd9d5be36416376c217bafbd6bd7e OP_EQUALVERIFY OP_CHECKSIG", "type": "pubkeyhash"}, "value": 0.00361238, "n": 1}], "hex": "01000000023e0e7c17f55566b4b2fd51b2edcb4c553eef6f9c123f538eb9001801d4120aa6020000006a473044022076f502a06c72a700d115dc718e4338b6869fcaec55b0bdd9389075316348cdd9022032e2ffcc3bfbca24584c96040bf4444db5a7f4ed97b116879384adbc5ced23ac012102cf1a6d6ddcb86f6b73cbb716add6474067b95eafa1a987910102aa4998df40b8ffffffffa7134e671caad4860ea88f2e99602399e64fd43b1366ad7e8a4d79b7a10215ab010000006b4830450221009c0e4b3ce7f0c7bf38bfb88800d665f7a7bb06285d4693431446231f0e7de5b0022036d6e090d1e467f66447446f374e980487d5b46236f8e9f9899114deab2850c3012103ace9f4487b96c5599fbcabf506252f4a3512e1c0760a70ac1ebbd1a46e8d52daffffffff020000000000000000166a146f6d6e69000000000000001f000000112ed2a20016830500000000001976a914311501b7076dd9d5be36416376c217bafbd6bd7e88ac00000000", "vin": [{"sequence": 4294967295, "scriptSig": {"hex": "473044022076f502a06c72a700d115dc718e4338b6869fcaec55b0bdd9389075316348cdd9022032e2ffcc3bfbca24584c96040bf4444db5a7f4ed97b116879384adbc5ced23ac012102cf1a6d6ddcb86f6b73cbb716add6474067b95eafa1a987910102aa4998df40b8", "asm": "3044022076f502a06c72a700d115dc718e4338b6869fcaec55b0bdd9389075316348cdd9022032e2ffcc3bfbca24584c96040bf4444db5a7f4ed97b116879384adbc5ced23ac[ALL] 02cf1a6d6ddcb86f6b73cbb716add6474067b95eafa1a987910102aa4998df40b8"}, "vout": 2, "txid": "a60a12d4011800b98e533f129c6fef3e554ccbedb251fdb2b46655f5177c0e3e"}, {"sequence": 4294967295, "scriptSig": {"hex": "4830450221009c0e4b3ce7f0c7bf38bfb88800d665f7a7bb06285d4693431446231f0e7de5b0022036d6e090d1e467f66447446f374e980487d5b46236f8e9f9899114deab2850c3012103ace9f4487b96c5599fbcabf506252f4a3512e1c0760a70ac1ebbd1a46e8d52da", "asm": "30450221009c0e4b3ce7f0c7bf38bfb88800d665f7a7bb06285d4693431446231f0e7de5b0022036d6e090d1e467f66447446f374e980487d5b46236f8e9f9899114deab2850c3[ALL] 03ace9f4487b96c5599fbcabf506252f4a3512e1c0760a70ac1ebbd1a46e8d52da"}, "vout": 1, "txid": "ab1502a1b7794d8a7ead66133bd44fe6992360992e8fa80e86d4aa1c674e13a7"}], "txid": "b2de41d6b2427c7f8748c9b5b0d765c20ffaad17c0475e5c22f66f7a448d5682", "blocktime": 1537873891, "version": 1, "confirmations": 11475, "time": 1537873891, "locktime": 0, "vsize": 370, "size": 370}