{"hash": "b2e0cddf552fe826daea4ae334df9179bfabf0c8288b5a384edfc57b0bc01c9d", "blockhash": "0000000000000000001f76057863aec43deb6fa401d9628bb513d65a8098bfab", "vout": [{"scriptPubKey": {"reqSigs": 1, "hex": "76a9144a1cc4bccb4ee1e92694fdc279ca1a93d127221588ac", "addresses": ["17ksU4qwxcEQhr7jhjZY7TzxLCA3ZL4MEu"], "asm": "OP_DUP OP_HASH160 4a1cc4bccb4ee1e92694fdc279ca1a93d1272215 OP_EQUALVERIFY OP_CHECKSIG", "type": "pubkeyhash"}, "value": 0.0147378, "n": 0}, {"scriptPubKey": {"type": "nulldata", "hex": "6a4c50000077df0001cee0ca792d4372e1e5bab9477af8e8e963c7cfd5b95b23cc0f42c2fc38c56c56a870d38cbba081e492a10e12ce2e5baa169606127773b48f52d6bc9a9526289ac0f6612cd74e33776ee4", "asm": "OP_RETURN 000077df0001cee0ca792d4372e1e5bab9477af8e8e963c7cfd5b95b23cc0f42c2fc38c56c56a870d38cbba081e492a10e12ce2e5baa169606127773b48f52d6bc9a9526289ac0f6612cd74e33776ee4"}, "value": 0.0, "n": 1}], "hex": "0100000001d01f04ea18bf85b92315678cc897748e456f8e12de56b7d27f41c580ecebc299000000006a473044022028a43133926a8497a524a9071a89b51f5ad1487b8dfbb7e55776d5d04470fbf5022036644babc3a6d683b9f026b9457105866bd0eff5f7be1ee3f7a285acd1833ca3012102590d9c62bb13c55ea0bdeec81e1d9d4758a750f39e61a4ffc0bc224099d7a447ffffffff02f47c1600000000001976a9144a1cc4bccb4ee1e92694fdc279ca1a93d127221588ac0000000000000000536a4c50000077df0001cee0ca792d4372e1e5bab9477af8e8e963c7cfd5b95b23cc0f42c2fc38c56c56a870d38cbba081e492a10e12ce2e5baa169606127773b48f52d6bc9a9526289ac0f6612cd74e33776ee400000000", "vin": [{"sequence": 4294967295, "scriptSig": {"hex": "473044022028a43133926a8497a524a9071a89b51f5ad1487b8dfbb7e55776d5d04470fbf5022036644babc3a6d683b9f026b9457105866bd0eff5f7be1ee3f7a285acd1833ca3012102590d9c62bb13c55ea0bdeec81e1d9d4758a750f39e61a4ffc0bc224099d7a447", "asm": "3044022028a43133926a8497a524a9071a89b51f5ad1487b8dfbb7e55776d5d04470fbf5022036644babc3a6d683b9f026b9457105866bd0eff5f7be1ee3f7a285acd1833ca3[ALL] 02590d9c62bb13c55ea0bdeec81e1d9d4758a750f39e61a4ffc0bc224099d7a447"}, "vout": 0, "txid": "99c2ebec80c5417fd2b756de128e6f458e7497c88c671523b985bf18ea041fd0"}], "txid": "b2e0cddf552fe826daea4ae334df9179bfabf0c8288b5a384edfc57b0bc01c9d", "blocktime": 1537873891, "version": 1, "confirmations": 11478, "time": 1537873891, "locktime": 0, "vsize": 283, "size": 283}