{"hash": "b2e5f8e63756cfe018310a11d265f2e9144ce804bcdf4c00a6c32a87eb1aab1d", "blockhash": "0000000000000000000dcc0f55137456b1a82d3642486a52398922ac4d620174", "vout": [{"scriptPubKey": {"reqSigs": 1, "hex": "76a914a1984530b74ccbdf5def8222476ab2d35b95573b88ac", "addresses": ["1FjSCouzLic99x1vtbhsC4QRmk2qUMQSzo"], "asm": "OP_DUP OP_HASH160 a1984530b74ccbdf5def8222476ab2d35b95573b OP_EQUALVERIFY OP_CHECKSIG", "type": "pubkeyhash"}, "value": 4.884e-05, "n": 0}, {"scriptPubKey": {"reqSigs": 1, "hex": "a91499250b0c11b06f2488b44876c04c978e4aa2464e87", "addresses": ["3FemghPca8BM65mi6z6aTB2zwBLSgd9HKJ"], "asm": "OP_HASH160 99250b0c11b06f2488b44876c04c978e4aa2464e OP_EQUAL", "type": "scripthash"}, "value": 0.00141806, "n": 1}], "hex": "0100000002591a33bc50006745fe4e69a019a31b227341d089d90e4d7809dfc2dc8de00f7f000000006b483045022100d05ccbfa9906365aa210e9d80993f2ec3d75b1ff85706be10347e300c9fa0db3022017a8d19a82ad01af96b270571193b75a515b5baa7467b00678495fb1343d6d680121032d3a2eed589d36c91db0d6e41ca443a931ebf86e8e7d1ac48fb3b809c1853ec7ffffffff0f22c423374916de07e2c05c9406c8ab6d7d5697afbf6b01b90422b8bf6c05ea000000006a473044022063c21b0095f29963d4284456d8759a646eb21d6a7eedfe4aa3bdf5728db496a002202d2019aa836e4b7ffd1c2a474f0bd57404230d4d94d220bb3bf07f329002cd260121034b23d29a6f7926bb3006585b510589d1aeed83118b5b95c245a532cf8209ca78ffffffff0214130000000000001976a914a1984530b74ccbdf5def8222476ab2d35b95573b88acee2902000000000017a91499250b0c11b06f2488b44876c04c978e4aa2464e8700000000", "vin": [{"sequence": 4294967295, "scriptSig": {"hex": "483045022100d05ccbfa9906365aa210e9d80993f2ec3d75b1ff85706be10347e300c9fa0db3022017a8d19a82ad01af96b270571193b75a515b5baa7467b00678495fb1343d6d680121032d3a2eed589d36c91db0d6e41ca443a931ebf86e8e7d1ac48fb3b809c1853ec7", "asm": "3045022100d05ccbfa9906365aa210e9d80993f2ec3d75b1ff85706be10347e300c9fa0db3022017a8d19a82ad01af96b270571193b75a515b5baa7467b00678495fb1343d6d68[ALL] 032d3a2eed589d36c91db0d6e41ca443a931ebf86e8e7d1ac48fb3b809c1853ec7"}, "vout": 0, "txid": "7f0fe08ddcc2df09784d0ed989d04173221ba319a0694efe45670050bc331a59"}, {"sequence": 4294967295, "scriptSig": {"hex": "473044022063c21b0095f29963d4284456d8759a646eb21d6a7eedfe4aa3bdf5728db496a002202d2019aa836e4b7ffd1c2a474f0bd57404230d4d94d220bb3bf07f329002cd260121034b23d29a6f7926bb3006585b510589d1aeed83118b5b95c245a532cf8209ca78", "asm": "3044022063c21b0095f29963d4284456d8759a646eb21d6a7eedfe4aa3bdf5728db496a002202d2019aa836e4b7ffd1c2a474f0bd57404230d4d94d220bb3bf07f329002cd26[ALL] 034b23d29a6f7926bb3006585b510589d1aeed83118b5b95c245a532cf8209ca78"}, "vout": 0, "txid": "ea056cbfb82204b9016bbfaf97567d6dabc806945cc0e207de16493723c4220f"}], "txid": "b2e5f8e63756cfe018310a11d265f2e9144ce804bcdf4c00a6c32a87eb1aab1d", "blocktime": 1537870268, "version": 1, "confirmations": 11518, "time": 1537870268, "locktime": 0, "vsize": 371, "size": 371}