{"hash": "66525a6be4db8397bc9fc29a1201d6809821ae931bb10ff32708b86e4656c1fb", "blockhash": "00000000000000000024a2167bbff67b0be802c0b01cdd79e6331c2be6459f87", "vout": [{"scriptPubKey": {"reqSigs": 1, "hex": "a9148e27c942530283708f56e6530cef9a72ec13b84987", "addresses": ["3EefYB7KQNgXUQ5E8VRhc9NG92tRamCkGB"], "asm": "OP_HASH160 8e27c942530283708f56e6530cef9a72ec13b849 OP_EQUAL", "type": "scripthash"}, "value": 0.001, "n": 0}, {"scriptPubKey": {"reqSigs": 1, "hex": "a914d3557f9d5cee9a1094e2e379691e3336a37afcd887", "addresses": ["3LxSvZQZQM1kAY98KuqYRwPUYHGtdZVe5u"], "asm": "OP_HASH160 d3557f9d5cee9a1094e2e379691e3336a37afcd8 OP_EQUAL", "type": "scripthash"}, "value": 0.00052054, "n": 1}, {"scriptPubKey": {"reqSigs": 1, "hex": "a9141988a27e3c2df4ddee7fad5a2303d086179b2a3087", "addresses": ["3422VtS7UtCvXYxoXMVp6eZupR252z85oC"], "asm": "OP_HASH160 1988a27e3c2df4ddee7fad5a2303d086179b2a30 OP_EQUAL", "type": "scripthash"}, "value": 1.00370621, "n": 2}], "hex": "01000000000101008d2b0bc356892ad86d24989637428ac67c510256a5152fd25039eb55826135010000002322002065d416c48a8072e0ac51c2d111eb194f009caef0332446c1bf2097316cf07fa9ffffffff03a08601000000000017a9148e27c942530283708f56e6530cef9a72ec13b8498756cb00000000000017a914d3557f9d5cee9a1094e2e379691e3336a37afcd887bd88fb050000000017a9141988a27e3c2df4ddee7fad5a2303d086179b2a30870400483045022100c1c74a05d2001bec1e7e1f83060e2d34b2a0dfd57e62eb0c8d6874ad2995a044022032862d1b9c52503ab2a2c0707dd1f8166be36a619ee2c0c18ab4b5b1e7f8e6a9014730440220597eb0a720c40b85064945c9a393405a9da8ba10a20a4da7a7815add75bc07a902203c7d3fb14dc141902211ea0040845fd8ebdd63d805fc37dcf5b28c2c73b384c60169522102f44abcf9e23c9a460da309ccca56c619c04eed3bde2c2cff5e7d78fbcd980b9c2103c9443cf3047bb6c2c82f1b0c44c36109cdc3d0d601d16d1189a1602bf8d1a0a02103bfe867059274412412e088af5572b92168c2ef495cfe6c9b7a753a009eb37c4853ae00000000", "vin": [{"txinwitness": ["", "3045022100c1c74a05d2001bec1e7e1f83060e2d34b2a0dfd57e62eb0c8d6874ad2995a044022032862d1b9c52503ab2a2c0707dd1f8166be36a619ee2c0c18ab4b5b1e7f8e6a901", "30440220597eb0a720c40b85064945c9a393405a9da8ba10a20a4da7a7815add75bc07a902203c7d3fb14dc141902211ea0040845fd8ebdd63d805fc37dcf5b28c2c73b384c601", "522102f44abcf9e23c9a460da309ccca56c619c04eed3bde2c2cff5e7d78fbcd980b9c2103c9443cf3047bb6c2c82f1b0c44c36109cdc3d0d601d16d1189a1602bf8d1a0a02103bfe867059274412412e088af5572b92168c2ef495cfe6c9b7a753a009eb37c4853ae"], "sequence": 4294967295, "scriptSig": {"hex": "22002065d416c48a8072e0ac51c2d111eb194f009caef0332446c1bf2097316cf07fa9", "asm": "002065d416c48a8072e0ac51c2d111eb194f009caef0332446c1bf2097316cf07fa9"}, "vout": 1, "txid": "35618255eb3950d22f15a55602517cc68a42379698246dd82a8956c30b2b8d00"}], "txid": "b2e6695de8d41a8fd280527fd66b1bacf57a67933a18276d48b8d7841ebb6674", "blocktime": 1537870564, "version": 1, "confirmations": 11515, "time": 1537870564, "locktime": 0, "vsize": 246, "size": 437}