{"hash": "b2e64d3f627282ef4c186d25f9adbb687c56a9435bc327f63b072ab11f727bd8", "blockhash": "0000000000000000001f0ddff1eddb255c1121bcd4da4f1bc9a0da00cae72433", "vout": [{"scriptPubKey": {"reqSigs": 1, "hex": "76a9149d25c8ff46a596cd0aa4b988df1ce0cbf5885e6488ac", "addresses": ["1FKvMUZsoy9gFyMnvaraGHcG899TVshpok"], "asm": "OP_DUP OP_HASH160 9d25c8ff46a596cd0aa4b988df1ce0cbf5885e64 OP_EQUALVERIFY OP_CHECKSIG", "type": "pubkeyhash"}, "value": 0.0002, "n": 0}, {"scriptPubKey": {"reqSigs": 1, "hex": "76a914f1e4a0c23042cc8fe1b44295b2c87368fe1b1aba88ac", "addresses": ["1P41jafnXX9t3h7NEA2ZJwt9nvWF6VBojE"], "asm": "OP_DUP OP_HASH160 f1e4a0c23042cc8fe1b44295b2c87368fe1b1aba OP_EQUALVERIFY OP_CHECKSIG", "type": "pubkeyhash"}, "value": 0.66048752, "n": 1}, {"scriptPubKey": {"type": "nulldata", "hex": "6a254d47ffff0489c5df6d3074535262a75f23114fb9b427d3194469a3e772d2d6dd7ecf8002d2", "asm": "OP_RETURN 4d47ffff0489c5df6d3074535262a75f23114fb9b427d3194469a3e772d2d6dd7ecf8002d2"}, "value": 0.0, "n": 2}], "hex": "0100000001f0531c2d1fbccb342f14b94f9874e3d2d88a6a6a6f13fc308751de41f9b0ffb0010000006a47304402203fc0bfc39d375afa3a7723cdf228533047b1a117b632ee9aaa60dc6f0bd7653602204676956331e1e7459b44010fc5724d2b1eab2fef4524904619207317a10677a20121033ff37f08b4aef829d4fd8d9c6e20176af681280342230d036803a3848f41baedffffffff03204e0000000000001976a9149d25c8ff46a596cd0aa4b988df1ce0cbf5885e6488acf0d2ef03000000001976a914f1e4a0c23042cc8fe1b44295b2c87368fe1b1aba88ac0000000000000000276a254d47ffff0489c5df6d3074535262a75f23114fb9b427d3194469a3e772d2d6dd7ecf8002d200000000", "vin": [{"sequence": 4294967295, "scriptSig": {"hex": "47304402203fc0bfc39d375afa3a7723cdf228533047b1a117b632ee9aaa60dc6f0bd7653602204676956331e1e7459b44010fc5724d2b1eab2fef4524904619207317a10677a20121033ff37f08b4aef829d4fd8d9c6e20176af681280342230d036803a3848f41baed", "asm": "304402203fc0bfc39d375afa3a7723cdf228533047b1a117b632ee9aaa60dc6f0bd7653602204676956331e1e7459b44010fc5724d2b1eab2fef4524904619207317a10677a2[ALL] 033ff37f08b4aef829d4fd8d9c6e20176af681280342230d036803a3848f41baed"}, "vout": 1, "txid": "b0ffb0f941de518730fc136f6a6a8ad8d2e374984fb9142f34cbbc1f2d1c53f0"}], "txid": "b2e64d3f627282ef4c186d25f9adbb687c56a9435bc327f63b072ab11f727bd8", "blocktime": 1537872018, "version": 1, "confirmations": 11489, "time": 1537872018, "locktime": 0, "vsize": 273, "size": 273}