{"hash": "77d93cdf2f2eedfcb33acc99e33ab8b6e73f506d17a2fc92116df7501ff595ab", "blockhash": "00000000000000000017f5eb5941039fbcee6240d03bc1f2f8e35350df66a1d8", "vout": [{"scriptPubKey": {"reqSigs": 1, "hex": "a914b6d17f916c1b3458699d20952ce70b4fa9d544aa87", "addresses": ["3JMfsew9oLM76C9Uj9rCVbR85A6wBDDppG"], "asm": "OP_HASH160 b6d17f916c1b3458699d20952ce70b4fa9d544aa OP_EQUAL", "type": "scripthash"}, "value": 0.18260994, "n": 0}, {"scriptPubKey": {"reqSigs": 1, "hex": "a914c21c19aef3c867fb11ae60b08d7d8d95a417fdfb87", "addresses": ["3KPNgCma6eGfq67uYbfo42wNcyxcgJFLLy"], "asm": "OP_HASH160 c21c19aef3c867fb11ae60b08d7d8d95a417fdfb OP_EQUAL", "type": "scripthash"}, "value": 0.03721279, "n": 1}, {"scriptPubKey": {"reqSigs": 1, "hex": "a9144705e5ccf5039ff1c5bb1eb4bfdfc010088f11b887", "addresses": ["38AYxwV9utQLDvTfExRiJSvrC2UBnY49B3"], "asm": "OP_HASH160 4705e5ccf5039ff1c5bb1eb4bfdfc010088f11b8 OP_EQUAL", "type": "scripthash"}, "value": 0.0034142, "n": 2}, {"scriptPubKey": {"reqSigs": 1, "hex": "a9143c31ae00ffe6f70c0a73795b4e949463f50e4c1c87", "addresses": ["37BHyrpkragifU8xt9XofoDmVbQ63cuC82"], "asm": "OP_HASH160 3c31ae00ffe6f70c0a73795b4e949463f50e4c1c OP_EQUAL", "type": "scripthash"}, "value": 0.0108875, "n": 3}, {"scriptPubKey": {"reqSigs": 1, "hex": "76a91489981e0896aa699b830e3151c8396b12f7a6b3bf88ac", "addresses": ["1DYXoaVDRUbgjYf5dmazwJ7XrHwfzAhjf4"], "asm": "OP_DUP OP_HASH160 89981e0896aa699b830e3151c8396b12f7a6b3bf OP_EQUALVERIFY OP_CHECKSIG", "type": "pubkeyhash"}, "value": 0.00852495, "n": 4}, {"scriptPubKey": {"reqSigs": 1, "hex": "a91449e5bee48fe965ecf4f8a1b722c70cb6b8e0121d87", "addresses": ["38RkUZF6FwporryHNZFN9pbKxhLNEsMao2"], "asm": "OP_HASH160 49e5bee48fe965ecf4f8a1b722c70cb6b8e0121d OP_EQUAL", "type": "scripthash"}, "value": 6.39037272, "n": 5}, {"scriptPubKey": {"reqSigs": 1, "hex": "a914431f88b47e1432f6b0f86610a369c86fc79b044a87", "addresses": ["37ovyRAQvK6vVJjyUEAYZWdboch4hfnDhX"], "asm": "OP_HASH160 431f88b47e1432f6b0f86610a369c86fc79b044a OP_EQUAL", "type": "scripthash"}, "value": 0.0028355, "n": 6}, {"scriptPubKey": {"reqSigs": 1, "hex": "a914125a0de2360faea54a1f0efd30a1efcb9ca8ed6687", "addresses": ["33N3y5GskRkXxuLZSrU1ZcUAGcC8bKHCrX"], "asm": "OP_HASH160 125a0de2360faea54a1f0efd30a1efcb9ca8ed66 OP_EQUAL", "type": "scripthash"}, "value": 0.00665011, "n": 7}, {"scriptPubKey": {"reqSigs": 1, "hex": "a9146b406e74bd9fa4490e17eb04685c1467eb1e6c1187", "addresses": ["3BU7Qr42sNB54Mn5YSV4XPqRQLqeKcyQpX"], "asm": "OP_HASH160 6b406e74bd9fa4490e17eb04685c1467eb1e6c11 OP_EQUAL", "type": "scripthash"}, "value": 0.0026236, "n": 8}, {"scriptPubKey": {"reqSigs": 1, "hex": "a914223ebe3bea60b3b0362e0ed9067623e40c9c1af387", "addresses": ["34p64XsgSecto2XrevL4JKitJuJsYGxX2d"], "asm": "OP_HASH160 223ebe3bea60b3b0362e0ed9067623e40c9c1af3 OP_EQUAL", "type": "scripthash"}, "value": 0.00360263, "n": 9}, {"scriptPubKey": {"reqSigs": 1, "hex": "a91422e6b4292ea7aff9a5463811004740083fe9371e87", "addresses": ["34sZGeHy2D2HCfJyLqMYb2ge9771SRVRUM"], "asm": "OP_HASH160 22e6b4292ea7aff9a5463811004740083fe9371e OP_EQUAL", "type": "scripthash"}, "value": 0.00237494, "n": 10}, {"scriptPubKey": {"reqSigs": 1, "hex": "a91491177f11baacab14d0270f53b9345f3e30602bed87", "addresses": ["3EvC3v2uKSzKPeozKLpLHdP3zqNtmTfm3t"], "asm": "OP_HASH160 91177f11baacab14d0270f53b9345f3e30602bed OP_EQUAL", "type": "scripthash"}, "value": 0.00571834, "n": 11}, {"scriptPubKey": {"reqSigs": 1, "hex": "76a9141ce559f9681b5909d855c44afa5fabfee81681ea88ac", "addresses": ["13dnfzS1nkSdosx3PVWij5XUfDXFDr3JjP"], "asm": "OP_DUP OP_HASH160 1ce559f9681b5909d855c44afa5fabfee81681ea OP_EQUALVERIFY OP_CHECKSIG", "type": "pubkeyhash"}, "value": 0.0001, "n": 12}, {"scriptPubKey": {"reqSigs": 1, "hex": "a91434d4d45e6b9d97875936952e98c5ed04e4c6ae0787", "addresses": ["36WN2BBh3JkmFw8YCpqELtPBUwmCR56M4h"], "asm": "OP_HASH160 34d4d45e6b9d97875936952e98c5ed04e4c6ae07 OP_EQUAL", "type": "scripthash"}, "value": 0.00271817, "n": 13}, {"scriptPubKey": {"reqSigs": 1, "hex": "a914ef6b49eecce6d455d43bde073f2ecbe8b3c9ec1d87", "addresses": ["3PWwwwvSvVb3AHowrjzMDPxqW6LdYTXzoC"], "asm": "OP_HASH160 ef6b49eecce6d455d43bde073f2ecbe8b3c9ec1d OP_EQUAL", "type": "scripthash"}, "value": 0.00222114, "n": 14}, {"scriptPubKey": {"reqSigs": 1, "hex": "a9144541d25cb4e12168f8730e7ef8ee9d9b0d01dab287", "addresses": ["381DQ9sjGTQCBkfwrWmbxzs47Zdeat1A4s"], "asm": "OP_HASH160 4541d25cb4e12168f8730e7ef8ee9d9b0d01dab2 OP_EQUAL", "type": "scripthash"}, "value": 0.0019996, "n": 15}, {"scriptPubKey": {"reqSigs": 1, "hex": "a9146dc9087155856f1ce4103a24251080a8f8ed24f187", "addresses": ["3BhWQUBpUnRqPVmYidmTMyeU9dDPNDygcN"], "asm": "OP_HASH160 6dc9087155856f1ce4103a24251080a8f8ed24f1 OP_EQUAL", "type": "scripthash"}, "value": 0.00214949, "n": 16}, {"scriptPubKey": {"reqSigs": 1, "hex": "a914aa47356e680951b45cc92ab1d6d63955a0d828dc87", "addresses": ["3HDN6phekKDwHMvwkkt6BbdCqcbY7eDgGv"], "asm": "OP_HASH160 aa47356e680951b45cc92ab1d6d63955a0d828dc OP_EQUAL", "type": "scripthash"}, "value": 0.00594609, "n": 17}, {"scriptPubKey": {"reqSigs": 1, "hex": "76a91401aa20dfe1b3941ae61ff54a991a1b5e3d67a29288ac", "addresses": ["19oUvSeTesSXx65qFtdDW8G7c2V2o9Nd5"], "asm": "OP_DUP OP_HASH160 01aa20dfe1b3941ae61ff54a991a1b5e3d67a292 OP_EQUALVERIFY OP_CHECKSIG", "type": "pubkeyhash"}, "value": 0.0119, "n": 18}, {"scriptPubKey": {"reqSigs": 1, "hex": "a914e71098535de51fa51f5bdf52dfecd4f5b3adf43f87", "addresses": ["3Nkmtu6FT3gmg4P6HKrsqpLXZiQLUXjGHu"], "asm": "OP_HASH160 e71098535de51fa51f5bdf52dfecd4f5b3adf43f OP_EQUAL", "type": "scripthash"}, "value": 0.00237179, "n": 19}, {"scriptPubKey": {"reqSigs": 1, "hex": "a914bcc31f160830613503a1859be832a25bbf1513b987", "addresses": ["3Ju6ht8ysDSxpYm4iMv688F2V8etWqvWBi"], "asm": "OP_HASH160 bcc31f160830613503a1859be832a25bbf1513b9 OP_EQUAL", "type": "scripthash"}, "value": 0.0048565, "n": 20}, {"scriptPubKey": {"reqSigs": 1, "hex": "76a91413a9174abaa14fa629ef2f0ac31a5e7dc202181c88ac", "addresses": ["12nxQHxMHW7jYNpnFYfVG9QBTQyEv31fzr"], "asm": "OP_DUP OP_HASH160 13a9174abaa14fa629ef2f0ac31a5e7dc202181c OP_EQUALVERIFY OP_CHECKSIG", "type": "pubkeyhash"}, "value": 0.253, "n": 21}, {"scriptPubKey": {"reqSigs": 1, "hex": "a914835a0476201a6f72807f648d3224b4aa60bd589487", "addresses": ["3DfYHCD2b1PSGh69VEm3wSCjCBu8AYuRYJ"], "asm": "OP_HASH160 835a0476201a6f72807f648d3224b4aa60bd5894 OP_EQUAL", "type": "scripthash"}, "value": 0.0001, "n": 22}, {"scriptPubKey": {"reqSigs": 1, "hex": "a91427a7e13563db44560c201deb00a4163dc50a9d5487", "addresses": ["35JhPWgnDK64fWZsqhKkxJVeeNJqw2HwRh"], "asm": "OP_HASH160 27a7e13563db44560c201deb00a4163dc50a9d54 OP_EQUAL", "type": "scripthash"}, "value": 0.0072943, "n": 23}], "hex": "02000000000101d1ed1f85eb99c6f98b159ee21776505c959f2868fd84c4dc76a94ffb0f2e393e2d00000017160014ba02d8542c840295a9477811b00085b50ab8fff5feffffff1802a416010000000017a914b6d17f916c1b3458699d20952ce70b4fa9d544aa873fc838000000000017a914c21c19aef3c867fb11ae60b08d7d8d95a417fdfb87ac3505000000000017a9144705e5ccf5039ff1c5bb1eb4bfdfc010088f11b887ee9c10000000000017a9143c31ae00ffe6f70c0a73795b4e949463f50e4c1c870f020d00000000001976a91489981e0896aa699b830e3151c8396b12f7a6b3bf88ac58ef16260000000017a91449e5bee48fe965ecf4f8a1b722c70cb6b8e0121d879e5304000000000017a914431f88b47e1432f6b0f86610a369c86fc79b044a87b3250a000000000017a914125a0de2360faea54a1f0efd30a1efcb9ca8ed6687d80004000000000017a9146b406e74bd9fa4490e17eb04685c1467eb1e6c1187477f05000000000017a914223ebe3bea60b3b0362e0ed9067623e40c9c1af387b69f03000000000017a91422e6b4292ea7aff9a5463811004740083fe9371e87bab908000000000017a91491177f11baacab14d0270f53b9345f3e30602bed8710270000000000001976a9141ce559f9681b5909d855c44afa5fabfee81681ea88acc92504000000000017a91434d4d45e6b9d97875936952e98c5ed04e4c6ae0787a26303000000000017a914ef6b49eecce6d455d43bde073f2ecbe8b3c9ec1d87180d03000000000017a9144541d25cb4e12168f8730e7ef8ee9d9b0d01dab287a54703000000000017a9146dc9087155856f1ce4103a24251080a8f8ed24f187b11209000000000017a914aa47356e680951b45cc92ab1d6d63955a0d828dc8770281200000000001976a91401aa20dfe1b3941ae61ff54a991a1b5e3d67a29288ac7b9e03000000000017a914e71098535de51fa51f5bdf52dfecd4f5b3adf43f87126907000000000017a914bcc31f160830613503a1859be832a25bbf1513b987200c8201000000001976a91413a9174abaa14fa629ef2f0ac31a5e7dc202181c88ac102700000000000017a914835a0476201a6f72807f648d3224b4aa60bd58948756210b000000000017a91427a7e13563db44560c201deb00a4163dc50a9d54870247304402204505804250e0698e4edd34bb38e3033f45d18c1dfbf78795350d4611806e16170220733fc2173f6739c7dd0025a072a98a63b8a5270cd576bca4a8e2495f846c971d012103ac0d294e18ade1023f0b0cfce47ed1e07ff439f493539c369c9a4412e708e19015490800", "vin": [{"txinwitness": ["304402204505804250e0698e4edd34bb38e3033f45d18c1dfbf78795350d4611806e16170220733fc2173f6739c7dd0025a072a98a63b8a5270cd576bca4a8e2495f846c971d01", "03ac0d294e18ade1023f0b0cfce47ed1e07ff439f493539c369c9a4412e708e190"], "sequence": 4294967294, "scriptSig": {"hex": "160014ba02d8542c840295a9477811b00085b50ab8fff5", "asm": "0014ba02d8542c840295a9477811b00085b50ab8fff5"}, "vout": 45, "txid": "3e392e0ffb4fa976dcc484fd68289f955c507617e29e158bf9c699eb851fedd1"}], "txid": "b2ea17ddc20c162f68207e5691396a146661572deb718c0ee14cfafc5cca2b2d", "blocktime": 1537874412, "version": 2, "confirmations": 11467, "time": 1537874412, "locktime": 542997, "vsize": 878, "size": 959}