{"hash": "b2ee43cb06325b64615fb1856c07f404316bb24ecc33f1a6c67ba162a200da39", "blockhash": "00000000000000000018f53835495a110e01622372bf6ae95dc86f2b0ab887b0", "vout": [{"scriptPubKey": {"reqSigs": 1, "hex": "76a914dd9f9f7cd3bf52985e7de44bb7509fc0c160df8088ac", "addresses": ["1MCqZCJcVghccuTxpTnKTQvKKvAnmQkZkS"], "asm": "OP_DUP OP_HASH160 dd9f9f7cd3bf52985e7de44bb7509fc0c160df80 OP_EQUALVERIFY OP_CHECKSIG", "type": "pubkeyhash"}, "value": 1.2e-05, "n": 0}, {"scriptPubKey": {"reqSigs": 1, "hex": "76a9140c153bcca8283462a38e4d101bcd5e0305704b3f88ac", "addresses": ["126tYdzTrbqA5UfNZEpscaeJ6RKGDMhtYE"], "asm": "OP_DUP OP_HASH160 0c153bcca8283462a38e4d101bcd5e0305704b3f OP_EQUALVERIFY OP_CHECKSIG", "type": "pubkeyhash"}, "value": 0.0118, "n": 1}], "hex": "010000000295222afa206c1bf909a5d33e7210771f7f8e64b0cee398e18748a7139855a51a000000006a47304402204bddb78a92f8be8b8e600659e511bafd6e9b6f68cd7e30b99b4902c343829ad4022074e1a5143ff01c36892d888ec117672b0023ee0124cf5f26b41efc49453e4ccb012103a3879413f3b111879033e9c66eb058cf0169a73f77f7e96a0236d15aaa6ae022fdffffff47ff1f2aa374a39873d5763e1684b39437a9e8a87fc7ead727e3cd467c8ad760000000006a473044022025459eea1183df4309086c7aa4b63d0715326c9178de598e9532a58d6282843402202abe197bb2386ed4a57cfc275fc71f8ead4756e91c93317598ac82b9aae004040121024f280fb2a2de91f4a17b23e081b640d6b352ed85417ad9de55e1096f1f02fb1efdffffff02b0040000000000001976a914dd9f9f7cd3bf52985e7de44bb7509fc0c160df8088ac60011200000000001976a9140c153bcca8283462a38e4d101bcd5e0305704b3f88ac0d490800", "vin": [{"sequence": 4294967293, "scriptSig": {"hex": "47304402204bddb78a92f8be8b8e600659e511bafd6e9b6f68cd7e30b99b4902c343829ad4022074e1a5143ff01c36892d888ec117672b0023ee0124cf5f26b41efc49453e4ccb012103a3879413f3b111879033e9c66eb058cf0169a73f77f7e96a0236d15aaa6ae022", "asm": "304402204bddb78a92f8be8b8e600659e511bafd6e9b6f68cd7e30b99b4902c343829ad4022074e1a5143ff01c36892d888ec117672b0023ee0124cf5f26b41efc49453e4ccb[ALL] 03a3879413f3b111879033e9c66eb058cf0169a73f77f7e96a0236d15aaa6ae022"}, "vout": 0, "txid": "1aa5559813a74887e198e3ceb0648e7f1f7710723ed3a509f91b6c20fa2a2295"}, {"sequence": 4294967293, "scriptSig": {"hex": "473044022025459eea1183df4309086c7aa4b63d0715326c9178de598e9532a58d6282843402202abe197bb2386ed4a57cfc275fc71f8ead4756e91c93317598ac82b9aae004040121024f280fb2a2de91f4a17b23e081b640d6b352ed85417ad9de55e1096f1f02fb1e", "asm": "3044022025459eea1183df4309086c7aa4b63d0715326c9178de598e9532a58d6282843402202abe197bb2386ed4a57cfc275fc71f8ead4756e91c93317598ac82b9aae00404[ALL] 024f280fb2a2de91f4a17b23e081b640d6b352ed85417ad9de55e1096f1f02fb1e"}, "vout": 0, "txid": "60d78a7c46cde327d7eac77fa8e8a93794b384163e76d57398a374a32a1fff47"}], "txid": "b2ee43cb06325b64615fb1856c07f404316bb24ecc33f1a6c67ba162a200da39", "blocktime": 1537870928, "version": 1, "confirmations": 11514, "time": 1537870928, "locktime": 542989, "vsize": 372, "size": 372}