{"hash": "b30774fd13ff37e927bca60ecedd6b39164d4b1900fdb499c53d145f24d0a8d4", "blockhash": "00000000000000000024a2167bbff67b0be802c0b01cdd79e6331c2be6459f87", "vout": [{"scriptPubKey": {"reqSigs": 1, "hex": "76a914d243e6abb9a60fbff430b421d2df4b7d59ec186088ac", "addresses": ["1LAnF8h3qMGx3TSwNUHVneBZUEpwE4gu3D"], "asm": "OP_DUP OP_HASH160 d243e6abb9a60fbff430b421d2df4b7d59ec1860 OP_EQUALVERIFY OP_CHECKSIG", "type": "pubkeyhash"}, "value": 0.00077314, "n": 0}, {"scriptPubKey": {"reqSigs": 1, "hex": "a914eecf2ea3a0c2cd19294e0f989b8a8a6f2dd372c087", "addresses": ["3PTiwUD5AWHEiWvtdWPgceMfUvavoupTVm"], "asm": "OP_HASH160 eecf2ea3a0c2cd19294e0f989b8a8a6f2dd372c0 OP_EQUAL", "type": "scripthash"}, "value": 5.46e-06, "n": 1}, {"scriptPubKey": {"type": "nulldata", "hex": "6a146f6d6e69000000000000001f0000005b6d249d20", "asm": "OP_RETURN 6f6d6e69000000000000001f0000005b6d249d20"}, "value": 0.0, "n": 2}], "hex": "01000000011016627ba51549c7434d5941da076f459defd238c8de99436319598097c15072000000006a473044022016503be8231dd8308a95801a7e75b945e6fdd7f533fc2fc5dbe9546903f90041022041f0924bbdf3ff4a9043cf4294dfb1c8eea102dc6c023396d0c2180febc82a1a01210271977291b74f1f5f5c42157e8aae804664eaaeccfd097918450d37f28fb94d77ffffffff03022e0100000000001976a914d243e6abb9a60fbff430b421d2df4b7d59ec186088ac220200000000000017a914eecf2ea3a0c2cd19294e0f989b8a8a6f2dd372c0870000000000000000166a146f6d6e69000000000000001f0000005b6d249d2000000000", "vin": [{"sequence": 4294967295, "scriptSig": {"hex": "473044022016503be8231dd8308a95801a7e75b945e6fdd7f533fc2fc5dbe9546903f90041022041f0924bbdf3ff4a9043cf4294dfb1c8eea102dc6c023396d0c2180febc82a1a01210271977291b74f1f5f5c42157e8aae804664eaaeccfd097918450d37f28fb94d77", "asm": "3044022016503be8231dd8308a95801a7e75b945e6fdd7f533fc2fc5dbe9546903f90041022041f0924bbdf3ff4a9043cf4294dfb1c8eea102dc6c023396d0c2180febc82a1a[ALL] 0271977291b74f1f5f5c42157e8aae804664eaaeccfd097918450d37f28fb94d77"}, "vout": 0, "txid": "7250c197805919634399dec838d2ef9d456f07da41594d43c74915a57b621610"}], "txid": "b30774fd13ff37e927bca60ecedd6b39164d4b1900fdb499c53d145f24d0a8d4", "blocktime": 1537870564, "version": 1, "confirmations": 11515, "time": 1537870564, "locktime": 0, "vsize": 254, "size": 254}