{"hash": "b30c5351b450e3d20f086272c287f368bfc836d0aad4108a0360386519fe9b95", "blockhash": "0000000000000000001f76057863aec43deb6fa401d9628bb513d65a8098bfab", "vout": [{"scriptPubKey": {"reqSigs": 1, "hex": "76a914bb01ec16284bbe828cc1040443d0761ed9e72c1d88ac", "addresses": ["1J3ofRwWLB2AcpJGzd82sRuLKgTWVuSWco"], "asm": "OP_DUP OP_HASH160 bb01ec16284bbe828cc1040443d0761ed9e72c1d OP_EQUALVERIFY OP_CHECKSIG", "type": "pubkeyhash"}, "value": 0.00998197, "n": 0}, {"scriptPubKey": {"reqSigs": 1, "hex": "a914be86be1845006e8200bae36a90bde0e9af2deb2587", "addresses": ["3K4Rj4vxKGURVPYYVVFFoKsAfWLtagH19P"], "asm": "OP_HASH160 be86be1845006e8200bae36a90bde0e9af2deb25 OP_EQUAL", "type": "scripthash"}, "value": 0.18384891, "n": 1}], "hex": "02000000047e167c7b9bbceeeadf0b4f3dad0e7328e49276851006fb16136d3949b0d05528010000006b483045022100eddb1d7367d8cb1392aed6958a08d4e139f2a59c7a78a658c494827b478bbdb00220659f1159921972b1c2cf60f0e2b56f12be412e0385a197c05d879238aeb4a1ae0121022c57f8a7acc2c1b026f52c50c63be4f9742cba8977d9b03c55a8342156a0c451feffffffb7e342ac80ed1b693b387be905bb9b8556254217056503dce188da38e4ea31d5000000006b4830450221008f304696e38b3d5a266e0c97f9d5714e89516f90634d93ac1a0224dbc6654316022011ccfeaa24a8b7f88a3687249346d1d1115e3b16f41d798d93dd8b8b95d6a64601210316ce094d1933f0696074434848389cbd8ec4fb329ffa54579e3cfea8237fde52fefffffffde0c72014bd837014fba4c1be49fdc363b205c92dbce54740bb98203ef271e4000000006b483045022100edc22b8fe988f55b2402584d4c729977518cc527fff539911ee52b9d1ec2aad002206e93be301ee6bedf59cec3b402d09a938fe4778b0f86f890c530f72ef50ba5dc012102a9a88284231f695715cc932ef3803e2c23ed60bc40838684de73c32fefa92f08feffffff8349f675b0f4887b785fd33adbf33bc392c8555944291278f4cf69a979b987b21a0000006a47304402207a8202c0976efd25327e6cb57c37510dcb96cb0484671bb8d5dcc1dfb5cd4c9d022065dd61a4574df950d91a966dff020523b737cfd5d36e2f0fad867e742775ea46012103ee1c8656a533f9678684583fbe8ec88e19d1ec04d1fc8a2853625d473f882c62feffffff02353b0f00000000001976a914bb01ec16284bbe828cc1040443d0761ed9e72c1d88acfb8718010000000017a914be86be1845006e8200bae36a90bde0e9af2deb258713490800", "vin": [{"sequence": 4294967294, "scriptSig": {"hex": "483045022100eddb1d7367d8cb1392aed6958a08d4e139f2a59c7a78a658c494827b478bbdb00220659f1159921972b1c2cf60f0e2b56f12be412e0385a197c05d879238aeb4a1ae0121022c57f8a7acc2c1b026f52c50c63be4f9742cba8977d9b03c55a8342156a0c451", "asm": "3045022100eddb1d7367d8cb1392aed6958a08d4e139f2a59c7a78a658c494827b478bbdb00220659f1159921972b1c2cf60f0e2b56f12be412e0385a197c05d879238aeb4a1ae[ALL] 022c57f8a7acc2c1b026f52c50c63be4f9742cba8977d9b03c55a8342156a0c451"}, "vout": 1, "txid": "2855d0b049396d1316fb0610857692e428730ead3d4f0bdfeaeebc9b7b7c167e"}, {"sequence": 4294967294, "scriptSig": {"hex": "4830450221008f304696e38b3d5a266e0c97f9d5714e89516f90634d93ac1a0224dbc6654316022011ccfeaa24a8b7f88a3687249346d1d1115e3b16f41d798d93dd8b8b95d6a64601210316ce094d1933f0696074434848389cbd8ec4fb329ffa54579e3cfea8237fde52", "asm": "30450221008f304696e38b3d5a266e0c97f9d5714e89516f90634d93ac1a0224dbc6654316022011ccfeaa24a8b7f88a3687249346d1d1115e3b16f41d798d93dd8b8b95d6a646[ALL] 0316ce094d1933f0696074434848389cbd8ec4fb329ffa54579e3cfea8237fde52"}, "vout": 0, "txid": "d531eae438da88e1dc03650517422556859bbb05e97b383b691bed80ac42e3b7"}, {"sequence": 4294967294, "scriptSig": {"hex": "483045022100edc22b8fe988f55b2402584d4c729977518cc527fff539911ee52b9d1ec2aad002206e93be301ee6bedf59cec3b402d09a938fe4778b0f86f890c530f72ef50ba5dc012102a9a88284231f695715cc932ef3803e2c23ed60bc40838684de73c32fefa92f08", "asm": "3045022100edc22b8fe988f55b2402584d4c729977518cc527fff539911ee52b9d1ec2aad002206e93be301ee6bedf59cec3b402d09a938fe4778b0f86f890c530f72ef50ba5dc[ALL] 02a9a88284231f695715cc932ef3803e2c23ed60bc40838684de73c32fefa92f08"}, "vout": 0, "txid": "e471f23e2098bb4047e5bc2dc905b263c3fd49bec1a4fb147083bd1420c7e0fd"}, {"sequence": 4294967294, "scriptSig": {"hex": "47304402207a8202c0976efd25327e6cb57c37510dcb96cb0484671bb8d5dcc1dfb5cd4c9d022065dd61a4574df950d91a966dff020523b737cfd5d36e2f0fad867e742775ea46012103ee1c8656a533f9678684583fbe8ec88e19d1ec04d1fc8a2853625d473f882c62", "asm": "304402207a8202c0976efd25327e6cb57c37510dcb96cb0484671bb8d5dcc1dfb5cd4c9d022065dd61a4574df950d91a966dff020523b737cfd5d36e2f0fad867e742775ea46[ALL] 03ee1c8656a533f9678684583fbe8ec88e19d1ec04d1fc8a2853625d473f882c62"}, "vout": 26, "txid": "b287b979a969cff4781229445955c892c33bf3db3ad35f787b88f4b075f64983"}], "txid": "b30c5351b450e3d20f086272c287f368bfc836d0aad4108a0360386519fe9b95", "blocktime": 1537873891, "version": 2, "confirmations": 11478, "time": 1537873891, "locktime": 542995, "vsize": 667, "size": 667}