{"hash": "65808b26f3487c03945e28c5d214c4c4f6a97df253418e9a481a2bac1d241a11", "blockhash": "0000000000000000000baef3f32e3676a92c3b2e5da21b426e4f302fc371ce76", "vout": [{"scriptPubKey": {"reqSigs": 1, "hex": "76a914ef56a2ceea7307dd44dbfb72a98238d010d397e788ac", "addresses": ["1NpWHRNVPCLTSB5zcYwJ7G3aB9gWgqLceX"], "asm": "OP_DUP OP_HASH160 ef56a2ceea7307dd44dbfb72a98238d010d397e7 OP_EQUALVERIFY OP_CHECKSIG", "type": "pubkeyhash"}, "value": 0.038804, "n": 0}, {"scriptPubKey": {"reqSigs": 1, "hex": "a9149fedd0435a5346d19e10dbf067501f04f6a02d3687", "addresses": ["3GGeFcpTvbKcU9so2Fz4C8o4V2C9Du9Ngp"], "asm": "OP_HASH160 9fedd0435a5346d19e10dbf067501f04f6a02d36 OP_EQUAL", "type": "scripthash"}, "value": 4.3447613, "n": 1}], "hex": "01000000000101d4ae18c5a5eaaef2b0bffd6b3d512282200b00f1698cf8093b162459cb29e76b0100000023220020bdce0b87be1099509aee666bf280d91936d77265b9626a3811efa68c794ec6d9ffffffff02d0353b00000000001976a914ef56a2ceea7307dd44dbfb72a98238d010d397e788ac6294e5190000000017a9149fedd0435a5346d19e10dbf067501f04f6a02d36870400483045022100b9bcb139d6ebb2f9b68068847824fee9b421c92d91db725a4880d9d93f7ff6160220469ace86a146af805a8b25db041dc6e9a19ee8e856c5c8a7cf068fc0b036829e01483045022100d88b9fdbe9b6e5808917c3caf25cb8aa220b9ebb3cbb78c95cfc08efc08225350220450d9d3e8b52a0fbb1dcea06c3a59b00d808ced591ecb15c9db08b1aa509e4b80147522103eb143395e1f431f678a743f1647f1b19b73b3255e6eb16378dc614c75af6729821022a8a912ad76544ca20f666a2071879d22db3f19b68028bfb6e15e148dbbe91a252ae00000000", "vin": [{"txinwitness": ["", "3045022100b9bcb139d6ebb2f9b68068847824fee9b421c92d91db725a4880d9d93f7ff6160220469ace86a146af805a8b25db041dc6e9a19ee8e856c5c8a7cf068fc0b036829e01", "3045022100d88b9fdbe9b6e5808917c3caf25cb8aa220b9ebb3cbb78c95cfc08efc08225350220450d9d3e8b52a0fbb1dcea06c3a59b00d808ced591ecb15c9db08b1aa509e4b801", "522103eb143395e1f431f678a743f1647f1b19b73b3255e6eb16378dc614c75af6729821022a8a912ad76544ca20f666a2071879d22db3f19b68028bfb6e15e148dbbe91a252ae"], "sequence": 4294967295, "scriptSig": {"hex": "220020bdce0b87be1099509aee666bf280d91936d77265b9626a3811efa68c794ec6d9", "asm": "0020bdce0b87be1099509aee666bf280d91936d77265b9626a3811efa68c794ec6d9"}, "vout": 1, "txid": "6be729cb5924163b09f88c69f1000b208222513d6bfdbfb0f2aeeaa5c518aed4"}], "txid": "b315da0498c03260442796cddbd4e5cde9be30c669d53ce469e2af03ef81d40b", "blocktime": 1537876114, "version": 1, "confirmations": 11462, "time": 1537876114, "locktime": 0, "vsize": 208, "size": 374}