{"hash": "ae1b594a7ea523e5a4969357ce3f6e16757a44a1d01e11a28e97cb7fd12594be", "blockhash": "0000000000000000000baef3f32e3676a92c3b2e5da21b426e4f302fc371ce76", "vout": [{"scriptPubKey": {"reqSigs": 1, "hex": "76a914212c0a97bf7b67cedcd3657d235068582833d05a88ac", "addresses": ["142Q4Nyw4LyPkzEQ8zwG5kT2DrUC5GKL3P"], "asm": "OP_DUP OP_HASH160 212c0a97bf7b67cedcd3657d235068582833d05a OP_EQUALVERIFY OP_CHECKSIG", "type": "pubkeyhash"}, "value": 2.10047672, "n": 0}], "hex": "010000000001023e7b15248f45e1cf87b53c4ca7c856c059bf881a98efbfa084a0041de9306a310100000017160014ce82ae63cec84794cfcd82fd09abde147d586256ffffffff6efd20ae30f44ced4a15cf74e47f1a85e12588d0a98653ea040e67694184d1ab0000000017160014d1d99e947560c1eda41bbec46abb8d126752ec73ffffffff01b812850c000000001976a914212c0a97bf7b67cedcd3657d235068582833d05a88ac0247304402206daeb1ed0b1baf3765d1e0d33c19fd014bdeabbe19deb5c7a8c2f3044dc1547402205820603b1b4996d951040eaa812eb689b44c7b52df7b6c5acf3944a3e9abc3e9012103d5bc09134d7e2d52d9b5c758295308dd33b34f39b93273a63645dd61d42a65620248304502210091b98154d50f21b2818ed4f3d73b58d9490f5fddf981bdc8c8d3498e7b09daa30220341d1cde75332e5289aff84f059062e43cc32f3e7cd49a2fe8e716a66e72bd89012102c0aedf1c2c692e3d8d6682418ff5e6a83f6a4c3b226cee96c92a9d0d6867314b00000000", "vin": [{"txinwitness": ["304402206daeb1ed0b1baf3765d1e0d33c19fd014bdeabbe19deb5c7a8c2f3044dc1547402205820603b1b4996d951040eaa812eb689b44c7b52df7b6c5acf3944a3e9abc3e901", "03d5bc09134d7e2d52d9b5c758295308dd33b34f39b93273a63645dd61d42a6562"], "sequence": 4294967295, "scriptSig": {"hex": "160014ce82ae63cec84794cfcd82fd09abde147d586256", "asm": "0014ce82ae63cec84794cfcd82fd09abde147d586256"}, "vout": 1, "txid": "316a30e91d04a084a0bfef981a88bf59c056c8a74c3cb587cfe1458f24157b3e"}, {"txinwitness": ["304502210091b98154d50f21b2818ed4f3d73b58d9490f5fddf981bdc8c8d3498e7b09daa30220341d1cde75332e5289aff84f059062e43cc32f3e7cd49a2fe8e716a66e72bd8901", "02c0aedf1c2c692e3d8d6682418ff5e6a83f6a4c3b226cee96c92a9d0d6867314b"], "sequence": 4294967295, "scriptSig": {"hex": "160014d1d99e947560c1eda41bbec46abb8d126752ec73", "asm": "0014d1d99e947560c1eda41bbec46abb8d126752ec73"}, "vout": 0, "txid": "abd1844169670e04ea5386a9d08825e1851a7fe474cf154aed4cf430ae20fd6e"}], "txid": "b31702ec97918b7b2a0a96f253150c1eab6fca32cfd2651f4eeda1121d16600a", "blocktime": 1537876114, "version": 1, "confirmations": 11460, "time": 1537876114, "locktime": 0, "vsize": 227, "size": 389}