{"hash": "b318353381d78ddc81fa88e108f08ece62ba665d5d284cd15b92e7eba3730d08", "blockhash": "0000000000000000000dcc0f55137456b1a82d3642486a52398922ac4d620174", "vout": [{"scriptPubKey": {"reqSigs": 1, "hex": "76a914a7cb35cefb2cc3b9ff7e3f1a75ca13f4cc02ee2d88ac", "addresses": ["1GJDHKyd58t8xbhEzwYUFX5T9a52tAMU9x"], "asm": "OP_DUP OP_HASH160 a7cb35cefb2cc3b9ff7e3f1a75ca13f4cc02ee2d OP_EQUALVERIFY OP_CHECKSIG", "type": "pubkeyhash"}, "value": 1.85871591, "n": 0}, {"scriptPubKey": {"reqSigs": 1, "hex": "a9146bdb657c3642714338089c6c927b17bfc62547dc87", "addresses": ["3BXK3zzB6J86eMmFev1kEqhCBaJYjP3STg"], "asm": "OP_HASH160 6bdb657c3642714338089c6c927b17bfc62547dc OP_EQUAL", "type": "scripthash"}, "value": 0.00944616, "n": 1}], "hex": "01000000054ba4b8e1c7bfb2f992add5b671c201bf6dca7340310eb4f626cd19b9e1698fc109000000fdfd0000483045022100a37fa665e42c54cecae7ac190d658eab30ddf6dae6e0ecc0e380d9717a57a81102200ee5507512dfde03b1a368940e8d8af386d0b2d3faff8f710ce617791987454f01473044022057779893aa676b70a772149d66c98eefd7c30916c2c6ca31782ac8ed5691ce0702203a3ad805103ac0b98b592c38277bef8317d0acc77981466686fc3463f1374696014c69522102579d366bf91c62e2d7128915aff09db103b0ae1ff872ab06ecb5885cf49ed117210271acd5b616df6c154e551f53109208b4457d71935b6a6b4aca906d951187d0dd210226595604bfdec740f86e64e79370ad0e3b3f4efa4dc44314c525393e9d0c8ab353aeffffffff21a16cf3da827653460abc992c94b89a799c47f5e8d96960e23103ff43c5b10c00000000fc0047304402206e7a6b617f6367a398b0224a57e6a8051921a65874c50564226339937ea7ddba02205aeff65c5074d28f1d8b42a5db30843d523fd55acf182dfc75e86ecef261e0540147304402200beb506d068d034c24e7526f39928d497a54325c76f27312cd6e9ea0a5a0337e02202c0f432e2ee498efbe0d2652c20dddc3251d976ff9080439e6baebd0a06b8939014c69522102f73321d083524ba2f7d3aff8e5c6cb3107060c513c31dbd2910d79d0316b48f321023faf4b183c50a762c121ed97bcab3687ef871b5fe79225285a37f0abf1e59e38210378c05c779a8b1e980570fec1a6e966a4eecdea69024e7773ecbd824f01a7f65e53aeffffffffc9042c8550b4134080bf2f58428d5e0bb6da12faa999b04a07f6398f5dd0d11500000000fdfd0000473044022036f3e302acfcedb44d0adb6a8cb420b83c29daab0c91f7831f848a08277cc9ee022040133e210e53e64dc9360e82ea92d80ad03b332f2e648fe5e888a70d5817c0f101483045022100b7dd51b4864f388f1040a85a43acfafba300c166b3291b0eced8714c5586e969022011ad78949a503c257d3026848395851de50d5c5ea95fcaed492b8ddded2e362b014c6952210229a9bacb04e2f6b792056998e6fc00ecc21afad4be2ebfeb0e0c7fa2b1b044c021021491e2fc9d047318827baf4d31a56657bf0fda56746d0aa1b526b3e3658c29a32103d583cf50bfcfc9805d5afeb6b856ab4494db2c09e7bb1b16fc4b03fc1c87e72e53aeffffffffd05b46bb4b3a1501cb3d79bf5c9e3e883c270f07b780f73e521e6b59420a2ea101000000fc00473044022024f8597ddaa779f33dc9e99a02cb5dff62c035460312381994aeff56b04ca45e02202cdbd5ecb80bb931e54da6ee3d99e74dc886f5b942e04ea6db7176890e84cdbc0147304402200ee57bc90875f57c672c713f3835d9021563d1532957807d51cec7f633d623a3022004de7c61cd2befdc6f50b2cf7d862ad379a34b4377a25e306fb3fe7a0431e748014c695221026e67853f91a97c498279c168e5ac1f55127b37c80d8e0f49ef32eee83af39550210345ace83aaed91e157c4a9763d7ba31afcf2a050387f313dad3ffb011e9d3c8a921024a55d74685a980c545551ceed52a2a2891744b4e9b3bb935fe6fa6ec08bd8c2553aeffffffffd9728611f1b2c8f30bc6adf830177bc11767d8911b047f6a81b609b57d30052200000000fdfe0000483045022100ead0d0c2f93ecadb63a8cd5e43fc0272fbe1ec9f7f5c7947657247dbd13e240b02207d9a89c6b3d4ad70e151b09edb5f05b91454cf4d993b83b0fff9f4f6fcdad2dc01483045022100a63bef1a2190c2edf186b1ece40f3ec59d4c6b839bad77920fc7d5aac27e91a702205ae69f13559c3c638b1f786fe10bf92af435948dc165780772f048bfdb56dad4014c695221035836eda1932352b9833738129f84f482d43ef97fb378131cf301c818930569d82103e97840176b315d426e07c0e4436cd2579b5ee672fbfc8e3a1a5d5622c4e89bdd210258a8b3d617d2e47ca8b42908429ff4bea1379397525f716fdb7523e41d869fc853aeffffffff02e72c140b000000001976a914a7cb35cefb2cc3b9ff7e3f1a75ca13f4cc02ee2d88ace8690e000000000017a9146bdb657c3642714338089c6c927b17bfc62547dc8700000000", "vin": [{"sequence": 4294967295, "scriptSig": {"hex": "00483045022100a37fa665e42c54cecae7ac190d658eab30ddf6dae6e0ecc0e380d9717a57a81102200ee5507512dfde03b1a368940e8d8af386d0b2d3faff8f710ce617791987454f01473044022057779893aa676b70a772149d66c98eefd7c30916c2c6ca31782ac8ed5691ce0702203a3ad805103ac0b98b592c38277bef8317d0acc77981466686fc3463f1374696014c69522102579d366bf91c62e2d7128915aff09db103b0ae1ff872ab06ecb5885cf49ed117210271acd5b616df6c154e551f53109208b4457d71935b6a6b4aca906d951187d0dd210226595604bfdec740f86e64e79370ad0e3b3f4efa4dc44314c525393e9d0c8ab353ae", "asm": "0 3045022100a37fa665e42c54cecae7ac190d658eab30ddf6dae6e0ecc0e380d9717a57a81102200ee5507512dfde03b1a368940e8d8af386d0b2d3faff8f710ce617791987454f[ALL] 3044022057779893aa676b70a772149d66c98eefd7c30916c2c6ca31782ac8ed5691ce0702203a3ad805103ac0b98b592c38277bef8317d0acc77981466686fc3463f1374696[ALL] 522102579d366bf91c62e2d7128915aff09db103b0ae1ff872ab06ecb5885cf49ed117210271acd5b616df6c154e551f53109208b4457d71935b6a6b4aca906d951187d0dd210226595604bfdec740f86e64e79370ad0e3b3f4efa4dc44314c525393e9d0c8ab353ae"}, "vout": 9, "txid": "c18f69e1b919cd26f6b40e314073ca6dbf01c271b6d5ad92f9b2bfc7e1b8a44b"}, {"sequence": 4294967295, "scriptSig": {"hex": "0047304402206e7a6b617f6367a398b0224a57e6a8051921a65874c50564226339937ea7ddba02205aeff65c5074d28f1d8b42a5db30843d523fd55acf182dfc75e86ecef261e0540147304402200beb506d068d034c24e7526f39928d497a54325c76f27312cd6e9ea0a5a0337e02202c0f432e2ee498efbe0d2652c20dddc3251d976ff9080439e6baebd0a06b8939014c69522102f73321d083524ba2f7d3aff8e5c6cb3107060c513c31dbd2910d79d0316b48f321023faf4b183c50a762c121ed97bcab3687ef871b5fe79225285a37f0abf1e59e38210378c05c779a8b1e980570fec1a6e966a4eecdea69024e7773ecbd824f01a7f65e53ae", "asm": "0 304402206e7a6b617f6367a398b0224a57e6a8051921a65874c50564226339937ea7ddba02205aeff65c5074d28f1d8b42a5db30843d523fd55acf182dfc75e86ecef261e054[ALL] 304402200beb506d068d034c24e7526f39928d497a54325c76f27312cd6e9ea0a5a0337e02202c0f432e2ee498efbe0d2652c20dddc3251d976ff9080439e6baebd0a06b8939[ALL] 522102f73321d083524ba2f7d3aff8e5c6cb3107060c513c31dbd2910d79d0316b48f321023faf4b183c50a762c121ed97bcab3687ef871b5fe79225285a37f0abf1e59e38210378c05c779a8b1e980570fec1a6e966a4eecdea69024e7773ecbd824f01a7f65e53ae"}, "vout": 0, "txid": "0cb1c543ff0331e26069d9e8f5479c799ab8942c99bc0a46537682daf36ca121"}, {"sequence": 4294967295, "scriptSig": {"hex": "00473044022036f3e302acfcedb44d0adb6a8cb420b83c29daab0c91f7831f848a08277cc9ee022040133e210e53e64dc9360e82ea92d80ad03b332f2e648fe5e888a70d5817c0f101483045022100b7dd51b4864f388f1040a85a43acfafba300c166b3291b0eced8714c5586e969022011ad78949a503c257d3026848395851de50d5c5ea95fcaed492b8ddded2e362b014c6952210229a9bacb04e2f6b792056998e6fc00ecc21afad4be2ebfeb0e0c7fa2b1b044c021021491e2fc9d047318827baf4d31a56657bf0fda56746d0aa1b526b3e3658c29a32103d583cf50bfcfc9805d5afeb6b856ab4494db2c09e7bb1b16fc4b03fc1c87e72e53ae", "asm": "0 3044022036f3e302acfcedb44d0adb6a8cb420b83c29daab0c91f7831f848a08277cc9ee022040133e210e53e64dc9360e82ea92d80ad03b332f2e648fe5e888a70d5817c0f1[ALL] 3045022100b7dd51b4864f388f1040a85a43acfafba300c166b3291b0eced8714c5586e969022011ad78949a503c257d3026848395851de50d5c5ea95fcaed492b8ddded2e362b[ALL] 52210229a9bacb04e2f6b792056998e6fc00ecc21afad4be2ebfeb0e0c7fa2b1b044c021021491e2fc9d047318827baf4d31a56657bf0fda56746d0aa1b526b3e3658c29a32103d583cf50bfcfc9805d5afeb6b856ab4494db2c09e7bb1b16fc4b03fc1c87e72e53ae"}, "vout": 0, "txid": "15d1d05d8f39f6074ab099a9fa12dab60b5e8d42582fbf804013b450852c04c9"}, {"sequence": 4294967295, "scriptSig": {"hex": "00473044022024f8597ddaa779f33dc9e99a02cb5dff62c035460312381994aeff56b04ca45e02202cdbd5ecb80bb931e54da6ee3d99e74dc886f5b942e04ea6db7176890e84cdbc0147304402200ee57bc90875f57c672c713f3835d9021563d1532957807d51cec7f633d623a3022004de7c61cd2befdc6f50b2cf7d862ad379a34b4377a25e306fb3fe7a0431e748014c695221026e67853f91a97c498279c168e5ac1f55127b37c80d8e0f49ef32eee83af39550210345ace83aaed91e157c4a9763d7ba31afcf2a050387f313dad3ffb011e9d3c8a921024a55d74685a980c545551ceed52a2a2891744b4e9b3bb935fe6fa6ec08bd8c2553ae", "asm": "0 3044022024f8597ddaa779f33dc9e99a02cb5dff62c035460312381994aeff56b04ca45e02202cdbd5ecb80bb931e54da6ee3d99e74dc886f5b942e04ea6db7176890e84cdbc[ALL] 304402200ee57bc90875f57c672c713f3835d9021563d1532957807d51cec7f633d623a3022004de7c61cd2befdc6f50b2cf7d862ad379a34b4377a25e306fb3fe7a0431e748[ALL] 5221026e67853f91a97c498279c168e5ac1f55127b37c80d8e0f49ef32eee83af39550210345ace83aaed91e157c4a9763d7ba31afcf2a050387f313dad3ffb011e9d3c8a921024a55d74685a980c545551ceed52a2a2891744b4e9b3bb935fe6fa6ec08bd8c2553ae"}, "vout": 1, "txid": "a12e0a42596b1e523ef780b7070f273c883e9e5cbf793dcb01153a4bbb465bd0"}, {"sequence": 4294967295, "scriptSig": {"hex": "00483045022100ead0d0c2f93ecadb63a8cd5e43fc0272fbe1ec9f7f5c7947657247dbd13e240b02207d9a89c6b3d4ad70e151b09edb5f05b91454cf4d993b83b0fff9f4f6fcdad2dc01483045022100a63bef1a2190c2edf186b1ece40f3ec59d4c6b839bad77920fc7d5aac27e91a702205ae69f13559c3c638b1f786fe10bf92af435948dc165780772f048bfdb56dad4014c695221035836eda1932352b9833738129f84f482d43ef97fb378131cf301c818930569d82103e97840176b315d426e07c0e4436cd2579b5ee672fbfc8e3a1a5d5622c4e89bdd210258a8b3d617d2e47ca8b42908429ff4bea1379397525f716fdb7523e41d869fc853ae", "asm": "0 3045022100ead0d0c2f93ecadb63a8cd5e43fc0272fbe1ec9f7f5c7947657247dbd13e240b02207d9a89c6b3d4ad70e151b09edb5f05b91454cf4d993b83b0fff9f4f6fcdad2dc[ALL] 3045022100a63bef1a2190c2edf186b1ece40f3ec59d4c6b839bad77920fc7d5aac27e91a702205ae69f13559c3c638b1f786fe10bf92af435948dc165780772f048bfdb56dad4[ALL] 5221035836eda1932352b9833738129f84f482d43ef97fb378131cf301c818930569d82103e97840176b315d426e07c0e4436cd2579b5ee672fbfc8e3a1a5d5622c4e89bdd210258a8b3d617d2e47ca8b42908429ff4bea1379397525f716fdb7523e41d869fc853ae"}, "vout": 0, "txid": "2205307db509b6816a7f041b91d86717c17b1730f8adc60bf3c8b2f1118672d9"}], "txid": "b318353381d78ddc81fa88e108f08ece62ba665d5d284cd15b92e7eba3730d08", "blocktime": 1537870268, "version": 1, "confirmations": 11516, "time": 1537870268, "locktime": 0, "vsize": 1551, "size": 1551}