{"hash": "843ae690572a131ba164eeaaaa2ac9b9752599822f0c65a48279d71e68abce0d", "blockhash": "0000000000000000001cda96e906b7601b7a6fb1a3b62bca570a9e5d8f4b3de1", "vout": [{"scriptPubKey": {"reqSigs": 1, "hex": "a914c6a5766d3a7d4477ced369559de79a98d40095dc87", "addresses": ["3KoMw4yvy4sS1isiUXz2cmYga4VXiecQau"], "asm": "OP_HASH160 c6a5766d3a7d4477ced369559de79a98d40095dc OP_EQUAL", "type": "scripthash"}, "value": 0.00171884, "n": 0}, {"scriptPubKey": {"reqSigs": 1, "hex": "a914f5a776d5fe59103ada6b7fe66410b0bbe9093bd787", "addresses": ["3Q5v6AB8reiinwMg3AWyZeYaHfcDudBKsH"], "asm": "OP_HASH160 f5a776d5fe59103ada6b7fe66410b0bbe9093bd7 OP_EQUAL", "type": "scripthash"}, "value": 0.00196182, "n": 1}, {"scriptPubKey": {"reqSigs": 1, "hex": "a91436d12ca48e09c0c01aeee06132dcf89846f3a18887", "addresses": ["36grzbPXxFjSfoFH23ST2kbc6WJoa6mqbR"], "asm": "OP_HASH160 36d12ca48e09c0c01aeee06132dcf89846f3a188 OP_EQUAL", "type": "scripthash"}, "value": 0.003241, "n": 2}, {"scriptPubKey": {"reqSigs": 1, "hex": "a9141988a27e3c2df4ddee7fad5a2303d086179b2a3087", "addresses": ["3422VtS7UtCvXYxoXMVp6eZupR252z85oC"], "asm": "OP_HASH160 1988a27e3c2df4ddee7fad5a2303d086179b2a30 OP_EQUAL", "type": "scripthash"}, "value": 0.1797216, "n": 3}], "hex": "010000000001013ad3d953610410aef95cb670d334c28a7004ed65f50464e446d6d1ebdb2e9746020000002322002065d416c48a8072e0ac51c2d111eb194f009caef0332446c1bf2097316cf07fa9ffffffff046c9f02000000000017a914c6a5766d3a7d4477ced369559de79a98d40095dc8756fe02000000000017a914f5a776d5fe59103ada6b7fe66410b0bbe9093bd78704f204000000000017a91436d12ca48e09c0c01aeee06132dcf89846f3a18887c03b12010000000017a9141988a27e3c2df4ddee7fad5a2303d086179b2a30870400483045022100cd5cd53c2ffd30545ee7cc93e8721a2ad7eddb4850fd5cb9e2040fcdb068a6280220362000d5e180fdf9c1bf48c1cb5e6183bb5ac67d1c345fdd027eaec61919466f01473044022000bd2cca486729190ea16c3deb5e9be3a8bf231ae16dbba2105225495b7faed402205bae300ae19a9c2da47f3375fe7c4155ca3f6a3f3eeb022b079f26d8d6968cd60169522102f44abcf9e23c9a460da309ccca56c619c04eed3bde2c2cff5e7d78fbcd980b9c2103c9443cf3047bb6c2c82f1b0c44c36109cdc3d0d601d16d1189a1602bf8d1a0a02103bfe867059274412412e088af5572b92168c2ef495cfe6c9b7a753a009eb37c4853ae00000000", "vin": [{"txinwitness": ["", "3045022100cd5cd53c2ffd30545ee7cc93e8721a2ad7eddb4850fd5cb9e2040fcdb068a6280220362000d5e180fdf9c1bf48c1cb5e6183bb5ac67d1c345fdd027eaec61919466f01", "3044022000bd2cca486729190ea16c3deb5e9be3a8bf231ae16dbba2105225495b7faed402205bae300ae19a9c2da47f3375fe7c4155ca3f6a3f3eeb022b079f26d8d6968cd601", "522102f44abcf9e23c9a460da309ccca56c619c04eed3bde2c2cff5e7d78fbcd980b9c2103c9443cf3047bb6c2c82f1b0c44c36109cdc3d0d601d16d1189a1602bf8d1a0a02103bfe867059274412412e088af5572b92168c2ef495cfe6c9b7a753a009eb37c4853ae"], "sequence": 4294967295, "scriptSig": {"hex": "22002065d416c48a8072e0ac51c2d111eb194f009caef0332446c1bf2097316cf07fa9", "asm": "002065d416c48a8072e0ac51c2d111eb194f009caef0332446c1bf2097316cf07fa9"}, "vout": 2, "txid": "46972edbebd1d646e46404f565ed04708ac234d370b65cf9ae10046153d9d33a"}], "txid": "b3253c56f581536565db66b5f365a12f69881abff130c44760f2231d9b22eb1f", "blocktime": 1537873282, "version": 1, "confirmations": 11483, "time": 1537873282, "locktime": 0, "vsize": 278, "size": 469}