{"hash": "b3274fb2dd15080c90839676fd392479db98dcd199ffc8fb752335a745eda9e4", "blockhash": "0000000000000000000baef3f32e3676a92c3b2e5da21b426e4f302fc371ce76", "vout": [{"scriptPubKey": {"reqSigs": 1, "hex": "a91469f37601817c4ad6dad6679c85180bb5dd63615587", "addresses": ["3BMEXeeyyvLhVimtmwKejQbdcXgUDDTbGW"], "asm": "OP_HASH160 69f37601817c4ad6dad6679c85180bb5dd636155 OP_EQUAL", "type": "scripthash"}, "value": 0.001, "n": 0}, {"scriptPubKey": {"reqSigs": 1, "hex": "76a9141ac72af29d4ccd4ba4194c86c677c6da1a00dd6488ac", "addresses": ["13SbAQaNddp4j952hEiDQz3HVqBfNRvYgk"], "asm": "OP_DUP OP_HASH160 1ac72af29d4ccd4ba4194c86c677c6da1a00dd64 OP_EQUALVERIFY OP_CHECKSIG", "type": "pubkeyhash"}, "value": 0.05864717, "n": 1}], "hex": "010000000195f5aa449ab1db681705a1b12f95959591f35badf70dbc68138d8380c9a6a5de010000006b483045022100a4e10e3d2ae515390b1466599628ef8a0472b377c0377aa9c4d640c1edfd0aa902207c281cc287a37f6fdc786b7a50b547a1f027e30708bcb0fc9330374abd6c3f730121029097ea4cad7ca57df04f50b5264890f9ee025a4cc48a4837e35567a5c0a54a9bffffffff02a08601000000000017a91469f37601817c4ad6dad6679c85180bb5dd636155870d7d5900000000001976a9141ac72af29d4ccd4ba4194c86c677c6da1a00dd6488ac00000000", "vin": [{"sequence": 4294967295, "scriptSig": {"hex": "483045022100a4e10e3d2ae515390b1466599628ef8a0472b377c0377aa9c4d640c1edfd0aa902207c281cc287a37f6fdc786b7a50b547a1f027e30708bcb0fc9330374abd6c3f730121029097ea4cad7ca57df04f50b5264890f9ee025a4cc48a4837e35567a5c0a54a9b", "asm": "3045022100a4e10e3d2ae515390b1466599628ef8a0472b377c0377aa9c4d640c1edfd0aa902207c281cc287a37f6fdc786b7a50b547a1f027e30708bcb0fc9330374abd6c3f73[ALL] 029097ea4cad7ca57df04f50b5264890f9ee025a4cc48a4837e35567a5c0a54a9b"}, "vout": 1, "txid": "dea5a6c980838d1368bc0df7ad5bf3919595952fb1a1051768dbb19a44aaf595"}], "txid": "b3274fb2dd15080c90839676fd392479db98dcd199ffc8fb752335a745eda9e4", "blocktime": 1537876114, "version": 1, "confirmations": 11460, "time": 1537876114, "locktime": 0, "vsize": 224, "size": 224}