{"hash": "b32952a149aed45508dfae1672f1755442e2df2330767899cd49d1c85d0c6d40", "blockhash": "0000000000000000001f0ddff1eddb255c1121bcd4da4f1bc9a0da00cae72433", "vout": [{"scriptPubKey": {"reqSigs": 1, "hex": "76a91470825e013d19ddcf15bec15846c57b8bced84e3788ac", "addresses": ["1BFtrZKnAaZJ25jEeRwGkP5Dg76SFSeBw8"], "asm": "OP_DUP OP_HASH160 70825e013d19ddcf15bec15846c57b8bced84e37 OP_EQUALVERIFY OP_CHECKSIG", "type": "pubkeyhash"}, "value": 0.09823771, "n": 0}, {"scriptPubKey": {"reqSigs": 1, "hex": "76a9148cd1e3beafb9d22e76b9d1dc0f10caf75ed2126c88ac", "addresses": ["1Dqb3F7USEP1Ar7SGUzSgp7efnPiYqUR2R"], "asm": "OP_DUP OP_HASH160 8cd1e3beafb9d22e76b9d1dc0f10caf75ed2126c OP_EQUALVERIFY OP_CHECKSIG", "type": "pubkeyhash"}, "value": 3e-05, "n": 1}], "hex": "01000000013c85b4d34c8b9f359f2eb284da339b7e969675745090ca63a957e40faff002c5010000006a473044022025b64c33d7cb582713f8ef5821b910a70d7f4c5691369b4cc3d3a394dec2d696022016ff626fa2711c1a8c97d9e4f615497af94ed689df346ea4f0522f7bcf1d1a6f012102c19388b410f261abb45e640e656fa25ef585248892ff558445a5f593f2e133bcfeffffff021be69500000000001976a91470825e013d19ddcf15bec15846c57b8bced84e3788acb80b0000000000001976a9148cd1e3beafb9d22e76b9d1dc0f10caf75ed2126c88ac11490800", "vin": [{"sequence": 4294967294, "scriptSig": {"hex": "473044022025b64c33d7cb582713f8ef5821b910a70d7f4c5691369b4cc3d3a394dec2d696022016ff626fa2711c1a8c97d9e4f615497af94ed689df346ea4f0522f7bcf1d1a6f012102c19388b410f261abb45e640e656fa25ef585248892ff558445a5f593f2e133bc", "asm": "3044022025b64c33d7cb582713f8ef5821b910a70d7f4c5691369b4cc3d3a394dec2d696022016ff626fa2711c1a8c97d9e4f615497af94ed689df346ea4f0522f7bcf1d1a6f[ALL] 02c19388b410f261abb45e640e656fa25ef585248892ff558445a5f593f2e133bc"}, "vout": 1, "txid": "c502f0af0fe457a963ca9050747596967e9b33da84b22e9f359f8b4cd3b4853c"}], "txid": "b32952a149aed45508dfae1672f1755442e2df2330767899cd49d1c85d0c6d40", "blocktime": 1537872018, "version": 1, "confirmations": 11489, "time": 1537872018, "locktime": 542993, "vsize": 225, "size": 225}