{"hash": "b331315748f652a68fd0f7aadee3a66da7babf14bf630cfe4085a0054115a791", "blockhash": "00000000000000000018f53835495a110e01622372bf6ae95dc86f2b0ab887b0", "vout": [{"scriptPubKey": {"reqSigs": 1, "hex": "76a914b2ede9df218287500348dbbc6767feb4b0aa37d888ac", "addresses": ["1HK6HfrJnZCgTXdqtcV5EBGABePSsrbGQL"], "asm": "OP_DUP OP_HASH160 b2ede9df218287500348dbbc6767feb4b0aa37d8 OP_EQUALVERIFY OP_CHECKSIG", "type": "pubkeyhash"}, "value": 0.000922, "n": 0}, {"scriptPubKey": {"reqSigs": 1, "hex": "76a914a68f0ea2316a1b67fdea6776c9cd08851b57d6cd88ac", "addresses": ["1GBgYdXUEufmWDCGt79rTYCm3trY7DH53x"], "asm": "OP_DUP OP_HASH160 a68f0ea2316a1b67fdea6776c9cd08851b57d6cd OP_EQUALVERIFY OP_CHECKSIG", "type": "pubkeyhash"}, "value": 0.00410121, "n": 1}], "hex": "010000000107b9640081c980c2e4794d8be603ff6e1913d06bb22d68136dde2e93786ac68b000000006a47304402205f8ce9d3ab837d8648b9aeb9b375943508e4338522b0bd76f38ae4ad73327bec0220230834780c8d3a20749735c64a4169637be64955bbe21673cc4a74ce9642c90d012102453366f0bd4e9f588e6b45d7cd8f264ce5d96b2b5f9d79bd14c1d3a51b509d2ffeffffff0228680100000000001976a914b2ede9df218287500348dbbc6767feb4b0aa37d888ac09420600000000001976a914a68f0ea2316a1b67fdea6776c9cd08851b57d6cd88ac0e490800", "vin": [{"sequence": 4294967294, "scriptSig": {"hex": "47304402205f8ce9d3ab837d8648b9aeb9b375943508e4338522b0bd76f38ae4ad73327bec0220230834780c8d3a20749735c64a4169637be64955bbe21673cc4a74ce9642c90d012102453366f0bd4e9f588e6b45d7cd8f264ce5d96b2b5f9d79bd14c1d3a51b509d2f", "asm": "304402205f8ce9d3ab837d8648b9aeb9b375943508e4338522b0bd76f38ae4ad73327bec0220230834780c8d3a20749735c64a4169637be64955bbe21673cc4a74ce9642c90d[ALL] 02453366f0bd4e9f588e6b45d7cd8f264ce5d96b2b5f9d79bd14c1d3a51b509d2f"}, "vout": 0, "txid": "8bc66a78932ede6d13682db26bd013196eff03e68b4d79e4c280c9810064b907"}], "txid": "b331315748f652a68fd0f7aadee3a66da7babf14bf630cfe4085a0054115a791", "blocktime": 1537870928, "version": 1, "confirmations": 11514, "time": 1537870928, "locktime": 542990, "vsize": 225, "size": 225}