{"hash": "b3388267fec0dcb811c43c1434c7f4f2514b05257a8aa48bc36bdec8c6b51d04", "blockhash": "0000000000000000001cda96e906b7601b7a6fb1a3b62bca570a9e5d8f4b3de1", "vout": [{"scriptPubKey": {"reqSigs": 1, "hex": "a914621971faa632082b57d38eb068ce6a55e77e6fe687", "addresses": ["3AdidJrxDpuEBtyJ2q9RwXirZpc1hyZUYg"], "asm": "OP_HASH160 621971faa632082b57d38eb068ce6a55e77e6fe6 OP_EQUAL", "type": "scripthash"}, "value": 0.0019266, "n": 0}, {"scriptPubKey": {"reqSigs": 1, "hex": "76a914310d63e4bd88887464107ced69d3dfe8532fe3f688ac", "addresses": ["15UN9mXdXkSX76ZP8TkyZXtw21sKfUFeU8"], "asm": "OP_DUP OP_HASH160 310d63e4bd88887464107ced69d3dfe8532fe3f6 OP_EQUALVERIFY OP_CHECKSIG", "type": "pubkeyhash"}, "value": 0.00586646, "n": 1}], "hex": "0100000001dcda017633a3f1c2a75ef6a0941ae5b6e0e9d1c89b76055ea58babbe0354a2a1000000006b483045022100b344f6925f08d13516acedf07ce62ea5db9fd44f5398f2c722155007e5c86b320220231d1b7461c270f98da2a2f84a48e6e0c7b7979b0311f3b9361bcf1f76d55d590121027166a298a2608cf2b8a5c30e806e274ec0c2400c815303b7bbd0ba23b03ad619ffffffff0294f002000000000017a914621971faa632082b57d38eb068ce6a55e77e6fe68796f30800000000001976a914310d63e4bd88887464107ced69d3dfe8532fe3f688ac00000000", "vin": [{"sequence": 4294967295, "scriptSig": {"hex": "483045022100b344f6925f08d13516acedf07ce62ea5db9fd44f5398f2c722155007e5c86b320220231d1b7461c270f98da2a2f84a48e6e0c7b7979b0311f3b9361bcf1f76d55d590121027166a298a2608cf2b8a5c30e806e274ec0c2400c815303b7bbd0ba23b03ad619", "asm": "3045022100b344f6925f08d13516acedf07ce62ea5db9fd44f5398f2c722155007e5c86b320220231d1b7461c270f98da2a2f84a48e6e0c7b7979b0311f3b9361bcf1f76d55d59[ALL] 027166a298a2608cf2b8a5c30e806e274ec0c2400c815303b7bbd0ba23b03ad619"}, "vout": 0, "txid": "a1a25403beab8ba55e05769bc8d1e9e0b6e51a94a0f65ea7c2f1a3337601dadc"}], "txid": "b3388267fec0dcb811c43c1434c7f4f2514b05257a8aa48bc36bdec8c6b51d04", "blocktime": 1537873282, "version": 1, "confirmations": 11484, "time": 1537873282, "locktime": 0, "vsize": 224, "size": 224}