{"hash": "b74dc8d99642937c70f671763c6b259612f3e79b6a4edd087c2b5490dd669f66", "blockhash": "0000000000000000001cda96e906b7601b7a6fb1a3b62bca570a9e5d8f4b3de1", "vout": [{"scriptPubKey": {"reqSigs": 1, "hex": "a914edfe81527a29a3725617177ccaab825fc620091c87", "addresses": ["3PPQxLTyCg1LhPFYHL31FE2HcPuDGaUUfn"], "asm": "OP_HASH160 edfe81527a29a3725617177ccaab825fc620091c OP_EQUAL", "type": "scripthash"}, "value": 0.00020597, "n": 0}, {"scriptPubKey": {"reqSigs": 1, "hex": "a914414cec0fc72a9410f6836edaf08de1aa3b2a321c87", "addresses": ["37eHzewnAFRR2SVZu8rZM3nBsmuE2XBU7D"], "asm": "OP_HASH160 414cec0fc72a9410f6836edaf08de1aa3b2a321c OP_EQUAL", "type": "scripthash"}, "value": 0.25177949, "n": 1}], "hex": "010000000001015d8e1b663c463fe46c75b179944f44ec6063c53a47bf23b2054c13bcef48e4290100000023220020ce74cde37cfb8dd71d0179287e12fc721ee236ce3c89c2745bcd365b39807eb3ffffffff02755000000000000017a914edfe81527a29a3725617177ccaab825fc620091c875d2f80010000000017a914414cec0fc72a9410f6836edaf08de1aa3b2a321c87040046304302205e8d88e4c28a74b9687635de5793f00e7ec07f7fc15e270d56d2f8e955e76faf021f5ea61130208213f667c3f40d1a2756131f25a77c52a5a299f0bcf6e0a0c84a01483045022100ea954f51b1ce4dbbffff8ce160ad8abb87eacef7796b6d50e37ba94a823faa9b0220747dbcfbed069849b5ce535d4fdee343245937ee83e8d523478e1c60a0129f720147522103ada901d90d5a76319a60f228e0b1bbc84b1d9a87238550bae5d5d190067b66712103871fc2ca08e6950b38867e8e6a0e94ee625223d3aa0df5c65f414c6d784467e252ae00000000", "vin": [{"txinwitness": ["", "304302205e8d88e4c28a74b9687635de5793f00e7ec07f7fc15e270d56d2f8e955e76faf021f5ea61130208213f667c3f40d1a2756131f25a77c52a5a299f0bcf6e0a0c84a01", "3045022100ea954f51b1ce4dbbffff8ce160ad8abb87eacef7796b6d50e37ba94a823faa9b0220747dbcfbed069849b5ce535d4fdee343245937ee83e8d523478e1c60a0129f7201", "522103ada901d90d5a76319a60f228e0b1bbc84b1d9a87238550bae5d5d190067b66712103871fc2ca08e6950b38867e8e6a0e94ee625223d3aa0df5c65f414c6d784467e252ae"], "sequence": 4294967295, "scriptSig": {"hex": "220020ce74cde37cfb8dd71d0179287e12fc721ee236ce3c89c2745bcd365b39807eb3", "asm": "0020ce74cde37cfb8dd71d0179287e12fc721ee236ce3c89c2745bcd365b39807eb3"}, "vout": 1, "txid": "29e448efbc134c05b223bf473ac56360ec444f9479b1756ce43f463c661b8e5d"}], "txid": "b33ea82518cddddc4a5d6d2e0883f29bbd8c478d3f0c9d2d6c5cc9f870019aa5", "blocktime": 1537873282, "version": 1, "confirmations": 11484, "time": 1537873282, "locktime": 0, "vsize": 205, "size": 370}