{"hash": "b3465bb85700cef8911e33f0adc0894b3a21886e5ec44b29b1a6cf56896f8bb9", "blockhash": "0000000000000000000e13cef7c366c0283d82e591d1acd082e914b08063cdf1", "vout": [{"scriptPubKey": {"reqSigs": 1, "hex": "76a91425176e13fa6d324ba74bf33e9183bf4c2382e87888ac", "addresses": ["14P853SjinTLUQoYCrnaxSu29gBHD1oMWz"], "asm": "OP_DUP OP_HASH160 25176e13fa6d324ba74bf33e9183bf4c2382e878 OP_EQUALVERIFY OP_CHECKSIG", "type": "pubkeyhash"}, "value": 0.056, "n": 0}, {"scriptPubKey": {"reqSigs": 1, "hex": "76a91431616045d9680de60028247283478fa449d2bc1088ac", "addresses": ["15W6mD2Ydr9i96CsoF3MgpwKeb8cnWkDTW"], "asm": "OP_DUP OP_HASH160 31616045d9680de60028247283478fa449d2bc10 OP_EQUALVERIFY OP_CHECKSIG", "type": "pubkeyhash"}, "value": 0.01081114, "n": 1}], "hex": "010000000147f00ba8dbc5aff2f8ad3d399f130f3d0b4a2b307ec16ca04427184db2c6f292010000006b483045022100ec031c659eac50bef14742e54b877982b11fcc37f0c2a3dcabb0c1ef673910b70220794fe71545497a27191db673023c4d7a45020c4d78eb9dc426061adc9078222401210332ffce63e2e055c986bccaa390cb79d7c828168ee3b206097fcf9e066e9c3d3dffffffff0200735500000000001976a91425176e13fa6d324ba74bf33e9183bf4c2382e87888ac1a7f1000000000001976a91431616045d9680de60028247283478fa449d2bc1088ac00000000", "vin": [{"sequence": 4294967295, "scriptSig": {"hex": "483045022100ec031c659eac50bef14742e54b877982b11fcc37f0c2a3dcabb0c1ef673910b70220794fe71545497a27191db673023c4d7a45020c4d78eb9dc426061adc9078222401210332ffce63e2e055c986bccaa390cb79d7c828168ee3b206097fcf9e066e9c3d3d", "asm": "3045022100ec031c659eac50bef14742e54b877982b11fcc37f0c2a3dcabb0c1ef673910b70220794fe71545497a27191db673023c4d7a45020c4d78eb9dc426061adc90782224[ALL] 0332ffce63e2e055c986bccaa390cb79d7c828168ee3b206097fcf9e066e9c3d3d"}, "vout": 1, "txid": "92f2c6b24d182744a06cc17e302b4a0b3d0f139f393dadf8f2afc5dba80bf047"}], "txid": "b3465bb85700cef8911e33f0adc0894b3a21886e5ec44b29b1a6cf56896f8bb9", "blocktime": 1537871767, "version": 1, "confirmations": 11491, "time": 1537871767, "locktime": 0, "vsize": 226, "size": 226}