{"hash": "b347bfa81a62f503f975a6a4b3082ce2859be89db2c2d5c4ad4ecd5450cfc26a", "blockhash": "0000000000000000001cda96e906b7601b7a6fb1a3b62bca570a9e5d8f4b3de1", "vout": [{"scriptPubKey": {"reqSigs": 1, "hex": "76a914d99956e0baa4aa4f220ea61f8ba596e2ae4c096d88ac", "addresses": ["1LqZKqKo1BwmY6CuAaHUxJKBGTCt7V1gRv"], "asm": "OP_DUP OP_HASH160 d99956e0baa4aa4f220ea61f8ba596e2ae4c096d OP_EQUALVERIFY OP_CHECKSIG", "type": "pubkeyhash"}, "value": 0.0001912, "n": 0}, {"scriptPubKey": {"reqSigs": 1, "hex": "a91477133fd3ccc8faf9170113a9d5788ee7675a741587", "addresses": ["3CYdPqZpwQvJpZR9Cq3Ck3WgdgoJP6mMBh"], "asm": "OP_HASH160 77133fd3ccc8faf9170113a9d5788ee7675a7415 OP_EQUAL", "type": "scripthash"}, "value": 0.014389, "n": 1}], "hex": "0100000001a143a8d4afef23004d78d6c80d645f7d722fdb878ba47988de0248cad4129c62010000006a4730440220134b47264f47eaf8ed7f747648ab2574260bf8409980e98c593fcbf7f63bf84002201c6e3b1f74fdce10fcd1cd4160566f6271373d0e7f6fa63de9b82df4f99a1f7801210319dde27484f6a659e43657af8014e5e43ba4bb1936b81ec642f71b3829753cf1fdffffff02b04a0000000000001976a914d99956e0baa4aa4f220ea61f8ba596e2ae4c096d88acb4f415000000000017a91477133fd3ccc8faf9170113a9d5788ee7675a74158713490800", "vin": [{"sequence": 4294967293, "scriptSig": {"hex": "4730440220134b47264f47eaf8ed7f747648ab2574260bf8409980e98c593fcbf7f63bf84002201c6e3b1f74fdce10fcd1cd4160566f6271373d0e7f6fa63de9b82df4f99a1f7801210319dde27484f6a659e43657af8014e5e43ba4bb1936b81ec642f71b3829753cf1", "asm": "30440220134b47264f47eaf8ed7f747648ab2574260bf8409980e98c593fcbf7f63bf84002201c6e3b1f74fdce10fcd1cd4160566f6271373d0e7f6fa63de9b82df4f99a1f78[ALL] 0319dde27484f6a659e43657af8014e5e43ba4bb1936b81ec642f71b3829753cf1"}, "vout": 1, "txid": "629c12d4ca4802de8879a48b87db2f727d5f640dc8d6784d0023efafd4a843a1"}], "txid": "b347bfa81a62f503f975a6a4b3082ce2859be89db2c2d5c4ad4ecd5450cfc26a", "blocktime": 1537873282, "version": 1, "confirmations": 11480, "time": 1537873282, "locktime": 542995, "vsize": 223, "size": 223}