{"hash": "0e2b3b259f67bc4850007ea311fdb03f05505ee526354e125c8ded8ded3916e5", "blockhash": "00000000000000000017f5eb5941039fbcee6240d03bc1f2f8e35350df66a1d8", "vout": [{"scriptPubKey": {"reqSigs": 1, "hex": "a914d86f3067fad59d13859a230f88dd632c9285b0f587", "addresses": ["3MRR5XpukhSLmJjmR4Yef7at4QZNsd9YWN"], "asm": "OP_HASH160 d86f3067fad59d13859a230f88dd632c9285b0f5 OP_EQUAL", "type": "scripthash"}, "value": 0.004, "n": 0}, {"scriptPubKey": {"reqSigs": 1, "hex": "a91425fc54ad6f329203f38456d3cfc071b9994b603c87", "addresses": ["359sCtd2fHPvbtQcgFk8akPeBbcQ2Kjff8"], "asm": "OP_HASH160 25fc54ad6f329203f38456d3cfc071b9994b603c OP_EQUAL", "type": "scripthash"}, "value": 0.01869216, "n": 1}], "hex": "0200000000010117c9dfd5076d1369c8d2596eb15c01dbace9e8863926935cb85e2f65fecb130800000000171600149d91d80a261f6b70a906b785a14ce8ad0a0c1fbdfeffffff02801a06000000000017a914d86f3067fad59d13859a230f88dd632c9285b0f587a0851c000000000017a91425fc54ad6f329203f38456d3cfc071b9994b603c870247304402206765f75c80393666a35490d77dcc6c5f65a225b80ae89aff3de3161bf05c19d002204d989334359afa7728c84b7ce2b2070a27cb6e3431e7e1c00f0b6912777c20fb0121020fb537ea8c1d0dc88f3ff10bb3649aa9a39a2e4ea8d539ca79a99779abddf35015490800", "vin": [{"txinwitness": ["304402206765f75c80393666a35490d77dcc6c5f65a225b80ae89aff3de3161bf05c19d002204d989334359afa7728c84b7ce2b2070a27cb6e3431e7e1c00f0b6912777c20fb01", "020fb537ea8c1d0dc88f3ff10bb3649aa9a39a2e4ea8d539ca79a99779abddf350"], "sequence": 4294967294, "scriptSig": {"hex": "1600149d91d80a261f6b70a906b785a14ce8ad0a0c1fbd", "asm": "00149d91d80a261f6b70a906b785a14ce8ad0a0c1fbd"}, "vout": 0, "txid": "0813cbfe652f5eb85c93263986e8e9acdb015cb16e59d2c869136d07d5dfc917"}], "txid": "b34d77d4e7ab873f8bad1a38cdf1e24472c408f68d6e9d02f126068f2f18cbab", "blocktime": 1537874412, "version": 2, "confirmations": 11468, "time": 1537874412, "locktime": 542997, "vsize": 166, "size": 247}