{"hash": "758069419e1ebe763659e76514b3baa53d55bcecb6f6122ba89af7d9b0b8cc35", "blockhash": "00000000000000000024a2167bbff67b0be802c0b01cdd79e6331c2be6459f87", "vout": [{"scriptPubKey": {"reqSigs": 1, "hex": "76a9147c154ed1dc59609e3d26abb2df2ea3d587cd8c4188ac", "addresses": ["1CK6KHY6MHgYvmRQ4PAafKYDrg1ejbH1cE"], "asm": "OP_DUP OP_HASH160 7c154ed1dc59609e3d26abb2df2ea3d587cd8c41 OP_EQUALVERIFY OP_CHECKSIG", "type": "pubkeyhash"}, "value": 12.60894315, "n": 0}, {"scriptPubKey": {"type": "nulldata", "hex": "6a4c2952534b424c4f434b3a13c2c09f40478c47b4f4f900667b78ef806d155d6e6b30d14000d4d8917bcc23", "asm": "OP_RETURN 52534b424c4f434b3a13c2c09f40478c47b4f4f900667b78ef806d155d6e6b30d14000d4d8917bcc23"}, "value": 0.0, "n": 1}, {"scriptPubKey": {"type": "nulldata", "hex": "6a24aa21a9eda8e1d5980c2a92482b715fb6af507feabca8a1d2355a754fc68f9a9c642b488e", "asm": "OP_RETURN aa21a9eda8e1d5980c2a92482b715fb6af507feabca8a1d2355a754fc68f9a9c642b488e"}, "value": 0.0, "n": 2}], "hex": "010000000001010000000000000000000000000000000000000000000000000000000000000000ffffffff45030e4908fabe6d6da0d1a99bd332e888c520ec7bebfa02445b0dd8f744cde8522f6a1b7a2e94d51801000000000000000d65060099eff960570100d7ca032f736c7573682f00000000036bb8274b000000001976a9147c154ed1dc59609e3d26abb2df2ea3d587cd8c4188ac00000000000000002c6a4c2952534b424c4f434b3a13c2c09f40478c47b4f4f900667b78ef806d155d6e6b30d14000d4d8917bcc230000000000000000266a24aa21a9eda8e1d5980c2a92482b715fb6af507feabca8a1d2355a754fc68f9a9c642b488e0120000000000000000000000000000000000000000000000000000000000000000000000000", "vin": [{"coinbase": "030e4908fabe6d6da0d1a99bd332e888c520ec7bebfa02445b0dd8f744cde8522f6a1b7a2e94d51801000000000000000d65060099eff960570100d7ca032f736c7573682f", "sequence": 0}], "txid": "b3564deed1ca1eebe90b4913adbfd339c6fd297c1d46944575bbaa840f63ce80", "blocktime": 1537870564, "version": 1, "confirmations": 11515, "time": 1537870564, "locktime": 0, "vsize": 263, "size": 290}