{"hash": "528f23e88c4c8deafae2a0fe4c10611e79da867581280c550429f9e8c787e981", "blockhash": "000000000000000000022b45ed06c6f4ccd3cf7fb5ba4856ebd2e58215665228", "vout": [{"scriptPubKey": {"reqSigs": 1, "hex": "a91408102462aa71400541336efca77f6305e8c24f1687", "addresses": ["32Refeqv34Jk8LzdRJVGCw4ZvqWhWC8dxM"], "asm": "OP_HASH160 08102462aa71400541336efca77f6305e8c24f16 OP_EQUAL", "type": "scripthash"}, "value": 0.02759427, "n": 0}, {"scriptPubKey": {"reqSigs": 1, "hex": "00149ea7fd775f99b2fee35fb84084a8f903ad1662dd", "addresses": ["bc1qn6nl6a6lnxe0ac6lhpqgf28eqwk3vckaxug3mc"], "asm": "0 9ea7fd775f99b2fee35fb84084a8f903ad1662dd", "type": "witness_v0_keyhash"}, "value": 0.00236915, "n": 1}], "hex": "01000000000101ea81e483b55b4a9e8342fd994823dcb2f5a47707b6dc599430ae843eb45725710000000000ffffffff02031b2a000000000017a91408102462aa71400541336efca77f6305e8c24f1687739d0300000000001600149ea7fd775f99b2fee35fb84084a8f903ad1662dd024830450221008eaba6a8d34cf6d938bf0f394f099408c0d35427b1c89239d1b575029fb18aea02205709da74373c4dd7ec8f8298488f92c4351a1506bbe2de2b1c52a3bc6ebabd4b0121038bf953ec68a00bb2a4630b6b0e3b8b9d9aede63fa012dc6a964234502562788b00000000", "vin": [{"txinwitness": ["30450221008eaba6a8d34cf6d938bf0f394f099408c0d35427b1c89239d1b575029fb18aea02205709da74373c4dd7ec8f8298488f92c4351a1506bbe2de2b1c52a3bc6ebabd4b01", "038bf953ec68a00bb2a4630b6b0e3b8b9d9aede63fa012dc6a964234502562788b"], "sequence": 4294967295, "scriptSig": {"hex": "", "asm": ""}, "vout": 0, "txid": "712557b43e84ae309459dcb60777a4f5b2dc234899fd42839e4a5bb583e481ea"}], "txid": "b3577f1b319f11d23ca6bc0d7027f81f6aa2274057b4dd8ad5b0abaa0f9c6f98", "blocktime": 1537869901, "version": 1, "confirmations": 11523, "time": 1537869901, "locktime": 0, "vsize": 142, "size": 224}