{"hash": "b35bf557460bdf7325e6f6733726cf5dcdd69222242864155ce2049c42a2d131", "blockhash": "0000000000000000000dcc0f55137456b1a82d3642486a52398922ac4d620174", "vout": [{"scriptPubKey": {"type": "nulldata", "hex": "6a146f6d6e69000000000000001f00000074bdc04220", "asm": "OP_RETURN 6f6d6e69000000000000001f00000074bdc04220"}, "value": 0.0, "n": 0}, {"scriptPubKey": {"reqSigs": 1, "hex": "76a914a25dec4d0011064ef106a983c39c7a540699f22088ac", "addresses": ["1FoWyxwPXuj4C6abqwhjDWdz6D4PZgYRjA"], "asm": "OP_DUP OP_HASH160 a25dec4d0011064ef106a983c39c7a540699f220 OP_EQUALVERIFY OP_CHECKSIG", "type": "pubkeyhash"}, "value": 5.46e-06, "n": 1}, {"scriptPubKey": {"reqSigs": 1, "hex": "76a914a0306c3e8eb53f7905e324ed5a315e1f9c739c8988ac", "addresses": ["1Fc18As3KtFCwXdDrGnanBLVw25oMbpMpC"], "asm": "OP_DUP OP_HASH160 a0306c3e8eb53f7905e324ed5a315e1f9c739c89 OP_EQUALVERIFY OP_CHECKSIG", "type": "pubkeyhash"}, "value": 0.00491979, "n": 2}], "hex": "010000000109da9d1c5f0e32ad40efede3d16d026a592787a129d08bba414919e22c8cb3e8000000006b483045022100a008818ce595a440dd6a859e5df286e0aee19a73c9dd4396474572d27de6c2e80220652739f85ff491bd74042a7e6c2b8805978ae31632e9c86779769236c669c31f01210364892a2488c2159e4423e5027b8ee0f70a1f7d133cf6d99b1b243a7ab5caba9dfeffffff030000000000000000166a146f6d6e69000000000000001f00000074bdc0422022020000000000001976a914a25dec4d0011064ef106a983c39c7a540699f22088accb810700000000001976a914a0306c3e8eb53f7905e324ed5a315e1f9c739c8988ac0b490800", "vin": [{"sequence": 4294967294, "scriptSig": {"hex": "483045022100a008818ce595a440dd6a859e5df286e0aee19a73c9dd4396474572d27de6c2e80220652739f85ff491bd74042a7e6c2b8805978ae31632e9c86779769236c669c31f01210364892a2488c2159e4423e5027b8ee0f70a1f7d133cf6d99b1b243a7ab5caba9d", "asm": "3045022100a008818ce595a440dd6a859e5df286e0aee19a73c9dd4396474572d27de6c2e80220652739f85ff491bd74042a7e6c2b8805978ae31632e9c86779769236c669c31f[ALL] 0364892a2488c2159e4423e5027b8ee0f70a1f7d133cf6d99b1b243a7ab5caba9d"}, "vout": 0, "txid": "e8b38c2ce2194941ba8bd029a18727596a026dd1e3edef40ad320e5f1c9dda09"}], "txid": "b35bf557460bdf7325e6f6733726cf5dcdd69222242864155ce2049c42a2d131", "blocktime": 1537870268, "version": 1, "confirmations": 11518, "time": 1537870268, "locktime": 542987, "vsize": 257, "size": 257}