{"hash": "f677273b967e2cbca6b88c4aa56edf22d3f2f0e3eeb3a140ec4312c32c8d8b99", "blockhash": "0000000000000000001f76057863aec43deb6fa401d9628bb513d65a8098bfab", "vout": [{"scriptPubKey": {"reqSigs": 1, "hex": "a91490e99e8d26d05ead3c05430c292a887bbff695f587", "addresses": ["3EuF6KjJawxTiUsea3Sc8hsLUGmVEf7Xg5"], "asm": "OP_HASH160 90e99e8d26d05ead3c05430c292a887bbff695f5 OP_EQUAL", "type": "scripthash"}, "value": 0.00137444, "n": 0}, {"scriptPubKey": {"type": "nulldata", "hex": "6a146f6d6e69000000000000001f0000000005f5e100", "asm": "OP_RETURN 6f6d6e69000000000000001f0000000005f5e100"}, "value": 0.0, "n": 1}, {"scriptPubKey": {"reqSigs": 1, "hex": "a91490e99e8d26d05ead3c05430c292a887bbff695f587", "addresses": ["3EuF6KjJawxTiUsea3Sc8hsLUGmVEf7Xg5"], "asm": "OP_HASH160 90e99e8d26d05ead3c05430c292a887bbff695f5 OP_EQUAL", "type": "scripthash"}, "value": 5.4e-06, "n": 2}], "hex": "0100000000010277249e2eb630579832b55653bf4f72edde42773e7e0a84bdf4a7f3adae3d82850000000017160014f6e1792e7852ebd5ae795c2a25d579acdfadec2dffffffff77249e2eb630579832b55653bf4f72edde42773e7e0a84bdf4a7f3adae3d82850200000017160014f6e1792e7852ebd5ae795c2a25d579acdfadec2dffffffff03e41802000000000017a91490e99e8d26d05ead3c05430c292a887bbff695f5870000000000000000166a146f6d6e69000000000000001f0000000005f5e1001c0200000000000017a91490e99e8d26d05ead3c05430c292a887bbff695f587024730440220618cf3d1526b028f01028295d300306eef5d27e0fc1eaa93d6bd264f5ae6b56802202270a17d9b5c3258bef29cded90bc705b7e9f7e6b827ac43d81f83400360d959012103f1cf988013a33e053d1e9bd54c4798c1a6dc362a5b2798b5344049fca40e2db00247304402204382eae42ee36b0cd2914c9edfd0913ae7292e4aa38329da491a146ea9e0beb702206d05c1623ae7ae3a0b3ed1b5220328d7cf5f3fd710541580031073a338741788012103f1cf988013a33e053d1e9bd54c4798c1a6dc362a5b2798b5344049fca40e2db000000000", "vin": [{"txinwitness": ["30440220618cf3d1526b028f01028295d300306eef5d27e0fc1eaa93d6bd264f5ae6b56802202270a17d9b5c3258bef29cded90bc705b7e9f7e6b827ac43d81f83400360d95901", "03f1cf988013a33e053d1e9bd54c4798c1a6dc362a5b2798b5344049fca40e2db0"], "sequence": 4294967295, "scriptSig": {"hex": "160014f6e1792e7852ebd5ae795c2a25d579acdfadec2d", "asm": "0014f6e1792e7852ebd5ae795c2a25d579acdfadec2d"}, "vout": 0, "txid": "85823daeadf3a7f4bd840a7e3e7742deed724fbf5356b532985730b62e9e2477"}, {"txinwitness": ["304402204382eae42ee36b0cd2914c9edfd0913ae7292e4aa38329da491a146ea9e0beb702206d05c1623ae7ae3a0b3ed1b5220328d7cf5f3fd710541580031073a33874178801", "03f1cf988013a33e053d1e9bd54c4798c1a6dc362a5b2798b5344049fca40e2db0"], "sequence": 4294967295, "scriptSig": {"hex": "160014f6e1792e7852ebd5ae795c2a25d579acdfadec2d", "asm": "0014f6e1792e7852ebd5ae795c2a25d579acdfadec2d"}, "vout": 2, "txid": "85823daeadf3a7f4bd840a7e3e7742deed724fbf5356b532985730b62e9e2477"}], "txid": "b35c41f55f0074ea2e7e812634dc0cf6d4a67ba9942d59d882cbfdb04c743ea8", "blocktime": 1537873891, "version": 1, "confirmations": 11478, "time": 1537873891, "locktime": 0, "vsize": 287, "size": 449}