{"hash": "4e26dda732b39515496292b19274770ab0858ad563dab129147f2d6ff0fbed4f", "blockhash": "000000000000000000022b45ed06c6f4ccd3cf7fb5ba4856ebd2e58215665228", "vout": [{"scriptPubKey": {"reqSigs": 1, "hex": "a9146eb130812678ec44a6888e09c2c299f9f1dc66f787", "addresses": ["3BnJWz6zDpQX1535fJSvjoae2vQKi6vKiy"], "asm": "OP_HASH160 6eb130812678ec44a6888e09c2c299f9f1dc66f7 OP_EQUAL", "type": "scripthash"}, "value": 0.000144, "n": 0}, {"scriptPubKey": {"reqSigs": 1, "hex": "a91412f9b4e02974a257342d460cb2f7166af29bd5c287", "addresses": ["33RMDuq28w6nSbWWRR5BGLWHJuxFQL7h1P"], "asm": "OP_HASH160 12f9b4e02974a257342d460cb2f7166af29bd5c2 OP_EQUAL", "type": "scripthash"}, "value": 0.00977973, "n": 1}], "hex": "010000000001015b5c2796f589aab221cb61c3a950941ed0d0629f4d6e0f709e31a2720bb0a2590100000023220020ad492e875d7c95138ba6e0caa519741d36f0a90673cc6a4fc26381d0e5021ca4ffffffff02403800000000000017a9146eb130812678ec44a6888e09c2c299f9f1dc66f78735ec0e000000000017a91412f9b4e02974a257342d460cb2f7166af29bd5c2870400473044022046901940e1ab99cb41d683c624fc268e9d88a5a001508825218ab727b502d8ac022050fcc63d48270fc514671a4243594165a4bde43e47fce4ba46e88ac11617ebed01483045022100fc75bd002f7289d6f0215eb7b959464ad89048bed73cb8ac792eb0efbbc0a38202203bea56fa0c2ada20b08e2d7a28d9dedeb63fee538592f6930c721cfcef81bc3a0147522103640a9f73a29d741d866be0951a8155edfbc347af6805af3d069ace2bdcc00e832102726ff74b232948bf3b0b4302934f660ce5f3375e3c0ec0ccd022a4260517f25a52ae00000000", "vin": [{"txinwitness": ["", "3044022046901940e1ab99cb41d683c624fc268e9d88a5a001508825218ab727b502d8ac022050fcc63d48270fc514671a4243594165a4bde43e47fce4ba46e88ac11617ebed01", "3045022100fc75bd002f7289d6f0215eb7b959464ad89048bed73cb8ac792eb0efbbc0a38202203bea56fa0c2ada20b08e2d7a28d9dedeb63fee538592f6930c721cfcef81bc3a01", "522103640a9f73a29d741d866be0951a8155edfbc347af6805af3d069ace2bdcc00e832102726ff74b232948bf3b0b4302934f660ce5f3375e3c0ec0ccd022a4260517f25a52ae"], "sequence": 4294967295, "scriptSig": {"hex": "220020ad492e875d7c95138ba6e0caa519741d36f0a90673cc6a4fc26381d0e5021ca4", "asm": "0020ad492e875d7c95138ba6e0caa519741d36f0a90673cc6a4fc26381d0e5021ca4"}, "vout": 1, "txid": "59a2b00b72a2319e700f6e4d9f62d0d01e9450a9c361cb21b2aa89f596275c5b"}], "txid": "b36296ae23411d82eb4013f9a777cc90c966c8c3b6b8e0b85dafd93f4ffb723a", "blocktime": 1537869901, "version": 1, "confirmations": 11524, "time": 1537869901, "locktime": 0, "vsize": 206, "size": 371}