{"hash": "b367a8fb467a263c7d464d1a030ffec3e3581a8707aa5e76ca083eba5f04567c", "blockhash": "00000000000000000004ffacab907a6b429b9a5745fa0b75af4234bf69dd7176", "vout": [{"scriptPubKey": {"reqSigs": 1, "hex": "a91457952dfe277a16c2e0f38f994eaacffd475834f387", "addresses": ["39g7RRAY9sqEtf7UEGkr3NbWnVXFG38Gq6"], "asm": "OP_HASH160 57952dfe277a16c2e0f38f994eaacffd475834f3 OP_EQUAL", "type": "scripthash"}, "value": 0.0074506, "n": 0}, {"scriptPubKey": {"reqSigs": 1, "hex": "76a914ad6826481633aae37fec3a6c32a39261c4f283ad88ac", "addresses": ["1GotfdA5YHnF9Ya2v4DP8gfy1i1ehrhA9M"], "asm": "OP_DUP OP_HASH160 ad6826481633aae37fec3a6c32a39261c4f283ad OP_EQUALVERIFY OP_CHECKSIG", "type": "pubkeyhash"}, "value": 0.05796165, "n": 1}], "hex": "0100000001565659378b6f0317def115ed09f7c18d7059683c1b63893c44b2613800c57a14010000006a4730440220798d5d8dc1ba80560d9accddba3faca6737ac192c3f6d73fed530a6d0d299e1102203df07cb8b25985c263cd5ec8d834f361b677f8c8a83635a3f49bdd7c9287c99f0121035b8656e945d41fd574428d32ddc51f2b9285dc8e25866796ee6975461ffe3c53ffffffff02645e0b000000000017a91457952dfe277a16c2e0f38f994eaacffd475834f38745715800000000001976a914ad6826481633aae37fec3a6c32a39261c4f283ad88ac00000000", "vin": [{"sequence": 4294967295, "scriptSig": {"hex": "4730440220798d5d8dc1ba80560d9accddba3faca6737ac192c3f6d73fed530a6d0d299e1102203df07cb8b25985c263cd5ec8d834f361b677f8c8a83635a3f49bdd7c9287c99f0121035b8656e945d41fd574428d32ddc51f2b9285dc8e25866796ee6975461ffe3c53", "asm": "30440220798d5d8dc1ba80560d9accddba3faca6737ac192c3f6d73fed530a6d0d299e1102203df07cb8b25985c263cd5ec8d834f361b677f8c8a83635a3f49bdd7c9287c99f[ALL] 035b8656e945d41fd574428d32ddc51f2b9285dc8e25866796ee6975461ffe3c53"}, "vout": 1, "txid": "147ac5003861b2443c89631b3c6859708dc1f709ed15f1de17036f8b37595656"}], "txid": "b367a8fb467a263c7d464d1a030ffec3e3581a8707aa5e76ca083eba5f04567c", "blocktime": 1537875543, "version": 1, "confirmations": 11464, "time": 1537875543, "locktime": 0, "vsize": 223, "size": 223}