{"hash": "b369bc06572940b841d786b313526cb65e8b823438d7852c8c22dd470d4009dd", "blockhash": "0000000000000000001f0ddff1eddb255c1121bcd4da4f1bc9a0da00cae72433", "vout": [{"scriptPubKey": {"reqSigs": 1, "hex": "76a914ddb06b9463aab7647505a48cc5f0f15acfec8e5a88ac", "addresses": ["1MDBgHfAPfbrrpdjYBzwgYbJdW8Srgh7Qe"], "asm": "OP_DUP OP_HASH160 ddb06b9463aab7647505a48cc5f0f15acfec8e5a OP_EQUALVERIFY OP_CHECKSIG", "type": "pubkeyhash"}, "value": 0.0002, "n": 0}, {"scriptPubKey": {"reqSigs": 1, "hex": "76a914f1e4a0c23042cc8fe1b44295b2c87368fe1b1aba88ac", "addresses": ["1P41jafnXX9t3h7NEA2ZJwt9nvWF6VBojE"], "asm": "OP_DUP OP_HASH160 f1e4a0c23042cc8fe1b44295b2c87368fe1b1aba OP_EQUALVERIFY OP_CHECKSIG", "type": "pubkeyhash"}, "value": 0.66258752, "n": 1}, {"scriptPubKey": {"type": "nulldata", "hex": "6a254d4700010489c5df6d3074535262a75f23114fb9b427d3194469a3e772d2d6dd7ecf8002d2", "asm": "OP_RETURN 4d4700010489c5df6d3074535262a75f23114fb9b427d3194469a3e772d2d6dd7ecf8002d2"}, "value": 0.0, "n": 2}], "hex": "0100000001f63fd20ab969e7a87c8b8fe3a1b8ba4e93f0fd679a610b6285b7136f48df05c0010000006a47304402204111da15c0d13a2b366d118100ca61323cdd4e47bfd4e9550b75e63174db3e66022045640389a0c30904ff0b9b4e7bec981361113fdcb370d0fc4abc533a4eda64e30121033ff37f08b4aef829d4fd8d9c6e20176af681280342230d036803a3848f41baedffffffff03204e0000000000001976a914ddb06b9463aab7647505a48cc5f0f15acfec8e5a88ac4007f303000000001976a914f1e4a0c23042cc8fe1b44295b2c87368fe1b1aba88ac0000000000000000276a254d4700010489c5df6d3074535262a75f23114fb9b427d3194469a3e772d2d6dd7ecf8002d200000000", "vin": [{"sequence": 4294967295, "scriptSig": {"hex": "47304402204111da15c0d13a2b366d118100ca61323cdd4e47bfd4e9550b75e63174db3e66022045640389a0c30904ff0b9b4e7bec981361113fdcb370d0fc4abc533a4eda64e30121033ff37f08b4aef829d4fd8d9c6e20176af681280342230d036803a3848f41baed", "asm": "304402204111da15c0d13a2b366d118100ca61323cdd4e47bfd4e9550b75e63174db3e66022045640389a0c30904ff0b9b4e7bec981361113fdcb370d0fc4abc533a4eda64e3[ALL] 033ff37f08b4aef829d4fd8d9c6e20176af681280342230d036803a3848f41baed"}, "vout": 1, "txid": "c005df486f13b785620b619a67fdf0934ebab8a1e38f8b7ca8e769b90ad23ff6"}], "txid": "b369bc06572940b841d786b313526cb65e8b823438d7852c8c22dd470d4009dd", "blocktime": 1537872018, "version": 1, "confirmations": 11489, "time": 1537872018, "locktime": 0, "vsize": 273, "size": 273}