{"hash": "b36de44bb14735ee9ca1191a4045b99835a4576c617b870241c674bb084a2738", "blockhash": "0000000000000000000e13cef7c366c0283d82e591d1acd082e914b08063cdf1", "vout": [{"scriptPubKey": {"reqSigs": 1, "hex": "76a91446205c2d1b14ab5f13d5ccf20697ac0d885c3b8188ac", "addresses": ["17Po4qziJyvYwhFSGhptbPG3DZL3VhweY7"], "asm": "OP_DUP OP_HASH160 46205c2d1b14ab5f13d5ccf20697ac0d885c3b81 OP_EQUALVERIFY OP_CHECKSIG", "type": "pubkeyhash"}, "value": 0.01017409, "n": 0}, {"scriptPubKey": {"reqSigs": 1, "hex": "76a91434940bc5fee6f15c1f14a2c7c764a7f5ee41e75c88ac", "addresses": ["15o1VPfyGBSR7X82gqqdhcBJNB7Ao1YPns"], "asm": "OP_DUP OP_HASH160 34940bc5fee6f15c1f14a2c7c764a7f5ee41e75c OP_EQUALVERIFY OP_CHECKSIG", "type": "pubkeyhash"}, "value": 0.11012722, "n": 1}], "hex": "0100000001dab9b607eb8e4d402fb67eae4eb2e8e373839776cc92778119580e1980b1132c010000006a4730440220313404e06fc5a83d6b791572fd5c5a2ff20d6646cd86e767613b9687ec662723022037a7d080b3efa25e55b10cab617a7a2981fe38e5c4e73661a74831f65aa46bf9012102bbe2aba865761df2bcb0579272d64db460f15e02f1879bb840218c8f38869e9affffffff0241860f00000000001976a91446205c2d1b14ab5f13d5ccf20697ac0d885c3b8188ac720aa800000000001976a91434940bc5fee6f15c1f14a2c7c764a7f5ee41e75c88ac00000000", "vin": [{"sequence": 4294967295, "scriptSig": {"hex": "4730440220313404e06fc5a83d6b791572fd5c5a2ff20d6646cd86e767613b9687ec662723022037a7d080b3efa25e55b10cab617a7a2981fe38e5c4e73661a74831f65aa46bf9012102bbe2aba865761df2bcb0579272d64db460f15e02f1879bb840218c8f38869e9a", "asm": "30440220313404e06fc5a83d6b791572fd5c5a2ff20d6646cd86e767613b9687ec662723022037a7d080b3efa25e55b10cab617a7a2981fe38e5c4e73661a74831f65aa46bf9[ALL] 02bbe2aba865761df2bcb0579272d64db460f15e02f1879bb840218c8f38869e9a"}, "vout": 1, "txid": "2c13b180190e5819817792cc76978373e3e8b24eae7eb62f404d8eeb07b6b9da"}], "txid": "b36de44bb14735ee9ca1191a4045b99835a4576c617b870241c674bb084a2738", "blocktime": 1537871767, "version": 1, "confirmations": 11490, "time": 1537871767, "locktime": 0, "vsize": 225, "size": 225}