{"hash": "b372955fcd39364d6d8bece280f03c8505ab560b478e75f93520f0b83d10999f", "blockhash": "0000000000000000001f76057863aec43deb6fa401d9628bb513d65a8098bfab", "vout": [{"scriptPubKey": {"reqSigs": 1, "hex": "a914660970561cce0446fc4d62996cbe9b930d77de7c87", "addresses": ["3AzY9vwHuW7kVseBbYJJB3zyyQmv1pjH8o"], "asm": "OP_HASH160 660970561cce0446fc4d62996cbe9b930d77de7c OP_EQUAL", "type": "scripthash"}, "value": 0.17729967, "n": 0}, {"scriptPubKey": {"reqSigs": 1, "hex": "76a9146c599a207154725ae82371106f4f742c77b3138888ac", "addresses": ["1AsuKNusbo29JSATAqnwoJcUXVhiH3sPSC"], "asm": "OP_DUP OP_HASH160 6c599a207154725ae82371106f4f742c77b31388 OP_EQUALVERIFY OP_CHECKSIG", "type": "pubkeyhash"}, "value": 0.00268187, "n": 1}], "hex": "0100000003abc598b7d155f23d951563d8e6553ef74a9d0e0b3410d59dd3ed69768a1fe681000000006b483045022100886e67a3c439f37b877b6ddc8ba40af780f82e260a52c4078fe0854e3376407302204acb37c5bfd182ffeca8afaa66f06e70e39824f9237de650a2af323e9d350a5d012102a4f3ab1c2e4c1781725fb11db4bf8ef6675ec9257a783549e58dd2db58c5ceefffffffffea1cd2eeb321daa0cbe50c5d7c04cb9f2ea442fc819253816ca74917be7fc137000000006b483045022100ce1370077ee025da5ab49bb59c5c8ea7fdb17e5e41bb88d2cfebccb0209559de02201fe1cd44a634d3ae845b3406c0216152d9d13653097884ba345dd14b4f5e4f4a01210340d297f6f47ec073d4cbe5d9f43f6121450e98776d9ce7b89273c5d6921cbe22ffffffff7dd86d933c7412beba935c4d245c15a1e82113906b11e1191507812c65487e67000000006b483045022100fd00e68f58e898eb07f3ea262d73687da71bca7e5ee081083d7f82905a9f5f2002201ccb2c4cabdab4550af1410d1fd915335921452061ebb54828bc3983c7a9ec030121030df85d838e9d26293d8d475b04ef06ad22dd53b47a37c9bc57c9337bb5eabb2effffffff02af890e010000000017a914660970561cce0446fc4d62996cbe9b930d77de7c879b170400000000001976a9146c599a207154725ae82371106f4f742c77b3138888ac00000000", "vin": [{"sequence": 4294967295, "scriptSig": {"hex": "483045022100886e67a3c439f37b877b6ddc8ba40af780f82e260a52c4078fe0854e3376407302204acb37c5bfd182ffeca8afaa66f06e70e39824f9237de650a2af323e9d350a5d012102a4f3ab1c2e4c1781725fb11db4bf8ef6675ec9257a783549e58dd2db58c5ceef", "asm": "3045022100886e67a3c439f37b877b6ddc8ba40af780f82e260a52c4078fe0854e3376407302204acb37c5bfd182ffeca8afaa66f06e70e39824f9237de650a2af323e9d350a5d[ALL] 02a4f3ab1c2e4c1781725fb11db4bf8ef6675ec9257a783549e58dd2db58c5ceef"}, "vout": 0, "txid": "81e61f8a7669edd39dd510340b0e9d4af73e55e6d86315953df255d1b798c5ab"}, {"sequence": 4294967295, "scriptSig": {"hex": "483045022100ce1370077ee025da5ab49bb59c5c8ea7fdb17e5e41bb88d2cfebccb0209559de02201fe1cd44a634d3ae845b3406c0216152d9d13653097884ba345dd14b4f5e4f4a01210340d297f6f47ec073d4cbe5d9f43f6121450e98776d9ce7b89273c5d6921cbe22", "asm": "3045022100ce1370077ee025da5ab49bb59c5c8ea7fdb17e5e41bb88d2cfebccb0209559de02201fe1cd44a634d3ae845b3406c0216152d9d13653097884ba345dd14b4f5e4f4a[ALL] 0340d297f6f47ec073d4cbe5d9f43f6121450e98776d9ce7b89273c5d6921cbe22"}, "vout": 0, "txid": "37c17fbe1749a76c81539281fc42a42e9fcb047c5d0ce5cba0da21b3eed21cea"}, {"sequence": 4294967295, "scriptSig": {"hex": "483045022100fd00e68f58e898eb07f3ea262d73687da71bca7e5ee081083d7f82905a9f5f2002201ccb2c4cabdab4550af1410d1fd915335921452061ebb54828bc3983c7a9ec030121030df85d838e9d26293d8d475b04ef06ad22dd53b47a37c9bc57c9337bb5eabb2e", "asm": "3045022100fd00e68f58e898eb07f3ea262d73687da71bca7e5ee081083d7f82905a9f5f2002201ccb2c4cabdab4550af1410d1fd915335921452061ebb54828bc3983c7a9ec03[ALL] 030df85d838e9d26293d8d475b04ef06ad22dd53b47a37c9bc57c9337bb5eabb2e"}, "vout": 0, "txid": "677e48652c81071519e1116b901321e8a1155c244d5c93babe12743c936dd87d"}], "txid": "b372955fcd39364d6d8bece280f03c8505ab560b478e75f93520f0b83d10999f", "blocktime": 1537873891, "version": 1, "confirmations": 11478, "time": 1537873891, "locktime": 0, "vsize": 520, "size": 520}