{"hash": "dbdb156b7ca4def32fd1dfc19788cb12d3816cebd94e1ce4eee513aaf47eead3", "blockhash": "00000000000000000017f5eb5941039fbcee6240d03bc1f2f8e35350df66a1d8", "vout": [{"scriptPubKey": {"reqSigs": 1, "hex": "a914a93b6087aada5e5619bcd84bc9eba45a067dabad87", "addresses": ["3H7qFZ6m6d5zJqBpXMPLCraSt8KAfCnPTU"], "asm": "OP_HASH160 a93b6087aada5e5619bcd84bc9eba45a067dabad OP_EQUAL", "type": "scripthash"}, "value": 0.00030333, "n": 0}, {"scriptPubKey": {"reqSigs": 1, "hex": "a914a5860254c638bc97961657d0a0ada49a5060fe2a87", "addresses": ["3GnDxK2oNmJMdMw4AkgzJBGorU2p7gBg99"], "asm": "OP_HASH160 a5860254c638bc97961657d0a0ada49a5060fe2a OP_EQUAL", "type": "scripthash"}, "value": 0.00260831, "n": 1}], "hex": "020000000001017f803f7e022f5381cb54a48f56fb174bb943e9639b68b1fe02838007b741ee9eb7030000171600147af517877d617387cc7e3b5acedb445ef2a7cccbfdffffff027d7600000000000017a914a93b6087aada5e5619bcd84bc9eba45a067dabad87dffa03000000000017a914a5860254c638bc97961657d0a0ada49a5060fe2a8702473044022019a9e6fe7c8aff3026596184c475586dfa9e8f2bb57ad9cd9fe6b3669e53d5de02206d6c7720e64fb1633c7d1206033176d0ee8db72e9cea59ce1d106dcd14fd2ebe0121028abd4e856eda50008b7bc6093f3b23871cc529889caf4e592c2857f7dc63e3a615490800", "vin": [{"txinwitness": ["3044022019a9e6fe7c8aff3026596184c475586dfa9e8f2bb57ad9cd9fe6b3669e53d5de02206d6c7720e64fb1633c7d1206033176d0ee8db72e9cea59ce1d106dcd14fd2ebe01", "028abd4e856eda50008b7bc6093f3b23871cc529889caf4e592c2857f7dc63e3a6"], "sequence": 4294967293, "scriptSig": {"hex": "1600147af517877d617387cc7e3b5acedb445ef2a7cccb", "asm": "00147af517877d617387cc7e3b5acedb445ef2a7cccb"}, "vout": 951, "txid": "9eee41b707808302feb1689b63e943b94b17fb568fa454cb81532f027e3f807f"}], "txid": "b3798493bb5b86f7bbc91fd6982701154c9e08a83bf426d11d84860568d5c7c2", "blocktime": 1537874412, "version": 2, "confirmations": 11468, "time": 1537874412, "locktime": 542997, "vsize": 166, "size": 247}