{"hash": "b37f56ec93c3bb10b8bce78d65ef58fdebb8cc0e97df2e6c177b09091269b386", "blockhash": "0000000000000000001f76057863aec43deb6fa401d9628bb513d65a8098bfab", "vout": [{"scriptPubKey": {"reqSigs": 1, "hex": "a914769ec8812d23e3104d6020863714e072b7e0a09b87", "addresses": ["3CWDsda8gRRehQZZV5K1oocwP1fLkj8QZL"], "asm": "OP_HASH160 769ec8812d23e3104d6020863714e072b7e0a09b OP_EQUAL", "type": "scripthash"}, "value": 0.04804, "n": 0}, {"scriptPubKey": {"reqSigs": 1, "hex": "a914e370231feecbfc25e2e2423a5a79bf79bfdca59887", "addresses": ["3NRbeX3vD5VaVE4TDU9ivCDsEf7NPPte6J"], "asm": "OP_HASH160 e370231feecbfc25e2e2423a5a79bf79bfdca598 OP_EQUAL", "type": "scripthash"}, "value": 11.44316656, "n": 1}], "hex": "0100000001773058dc2b513440a37a7a8afb2ad080971fea3d4cc0398949d3e2699e74515301000000db00483045022100e9315d9ba2e66b4cb360b1154856a2ac7ed0523372773e9cd3c6c9c45adabf3b022046aa212e4ccc6971dcd5a0edb31c69725eac279042efa311aa5a25185bf32e8b01483045022100a49625cb890cd23341e9d186cfdd9a52d6d8fbbed4824ef72db30106610b058b02205be96793fdce4c1dbf5185635140d67c68580b32f15e356ba88045c0e064f51e014752210327881b6abce6535553a3ce21fad12a7d74fd237ce7c4cd270a267162344e3082210256141f8eb687f5a68c5cc65054652dc25116fa285e44d72b44368827ffe77d9a52aeffffffff02a04d49000000000017a914769ec8812d23e3104d6020863714e072b7e0a09b87f0e234440000000017a914e370231feecbfc25e2e2423a5a79bf79bfdca5988700000000", "vin": [{"sequence": 4294967295, "scriptSig": {"hex": "00483045022100e9315d9ba2e66b4cb360b1154856a2ac7ed0523372773e9cd3c6c9c45adabf3b022046aa212e4ccc6971dcd5a0edb31c69725eac279042efa311aa5a25185bf32e8b01483045022100a49625cb890cd23341e9d186cfdd9a52d6d8fbbed4824ef72db30106610b058b02205be96793fdce4c1dbf5185635140d67c68580b32f15e356ba88045c0e064f51e014752210327881b6abce6535553a3ce21fad12a7d74fd237ce7c4cd270a267162344e3082210256141f8eb687f5a68c5cc65054652dc25116fa285e44d72b44368827ffe77d9a52ae", "asm": "0 3045022100e9315d9ba2e66b4cb360b1154856a2ac7ed0523372773e9cd3c6c9c45adabf3b022046aa212e4ccc6971dcd5a0edb31c69725eac279042efa311aa5a25185bf32e8b[ALL] 3045022100a49625cb890cd23341e9d186cfdd9a52d6d8fbbed4824ef72db30106610b058b02205be96793fdce4c1dbf5185635140d67c68580b32f15e356ba88045c0e064f51e[ALL] 52210327881b6abce6535553a3ce21fad12a7d74fd237ce7c4cd270a267162344e3082210256141f8eb687f5a68c5cc65054652dc25116fa285e44d72b44368827ffe77d9a52ae"}, "vout": 1, "txid": "5351749e69e2d3498939c04c3dea1f9780d02afb8a7a7aa34034512bdc583077"}], "txid": "b37f56ec93c3bb10b8bce78d65ef58fdebb8cc0e97df2e6c177b09091269b386", "blocktime": 1537873891, "version": 1, "confirmations": 11478, "time": 1537873891, "locktime": 0, "vsize": 334, "size": 334}