{"hash": "b37f3f68807b5be9e31bfe3c0668eef27e21bba594b846bc28f10679cc97b6ab", "blockhash": "000000000000000000022b45ed06c6f4ccd3cf7fb5ba4856ebd2e58215665228", "vout": [{"scriptPubKey": {"type": "nulldata", "hex": "6a4c500000775e00014ae76bf6c396ca8820a62f823a016b46dc7dc7d0968d120d670c1906f999efba76399c5eb4f36fa48c81abd119e25baa076b061235257653f2e21d100759d4ba30d2c37bb011d97e02cf", "asm": "OP_RETURN 0000775e00014ae76bf6c396ca8820a62f823a016b46dc7dc7d0968d120d670c1906f999efba76399c5eb4f36fa48c81abd119e25baa076b061235257653f2e21d100759d4ba30d2c37bb011d97e02cf"}, "value": 0.0, "n": 0}, {"scriptPubKey": {"reqSigs": 1, "hex": "76a914432600fe5630766e12064d02124d3d094715ef7c88ac", "addresses": ["1783oQhSVhMi4vhYnUu8ZGWnNjYgB65zXF"], "asm": "OP_DUP OP_HASH160 432600fe5630766e12064d02124d3d094715ef7c OP_EQUALVERIFY OP_CHECKSIG", "type": "pubkeyhash"}, "value": 0.00649341, "n": 1}], "hex": "0100000001c89c556ee0494bf6f1d89589f038454e89bc37e189a348e46e973c44f5bd68bc000000006a4730440220210f02ec04a38b6e752cc863ae585088f68567aa244a018298d8618eef00144002201b6f49cf3d99022753d4865fd314c4ab1330b4874637297ffeba4ea9433d3ecb0121039b72fa4c2e4b788fe7f2902fff1f30cfc6bf46e01c27a0d4e4964cc280528fb9ffffffff020000000000000000536a4c500000775e00014ae76bf6c396ca8820a62f823a016b46dc7dc7d0968d120d670c1906f999efba76399c5eb4f36fa48c81abd119e25baa076b061235257653f2e21d100759d4ba30d2c37bb011d97e02cf7de80900000000001976a914432600fe5630766e12064d02124d3d094715ef7c88ac00000000", "vin": [{"sequence": 4294967295, "scriptSig": {"hex": "4730440220210f02ec04a38b6e752cc863ae585088f68567aa244a018298d8618eef00144002201b6f49cf3d99022753d4865fd314c4ab1330b4874637297ffeba4ea9433d3ecb0121039b72fa4c2e4b788fe7f2902fff1f30cfc6bf46e01c27a0d4e4964cc280528fb9", "asm": "30440220210f02ec04a38b6e752cc863ae585088f68567aa244a018298d8618eef00144002201b6f49cf3d99022753d4865fd314c4ab1330b4874637297ffeba4ea9433d3ecb[ALL] 039b72fa4c2e4b788fe7f2902fff1f30cfc6bf46e01c27a0d4e4964cc280528fb9"}, "vout": 0, "txid": "bc68bdf5443c976ee448a389e137bc894e4538f08995d8f1f64b49e06e559cc8"}], "txid": "b37f3f68807b5be9e31bfe3c0668eef27e21bba594b846bc28f10679cc97b6ab", "blocktime": 1537869901, "version": 1, "confirmations": 11523, "time": 1537869901, "locktime": 0, "vsize": 283, "size": 283}