{"hash": "b38090fef845e62d6e94d106db1e9ded3db969b48a8dfbfb7c07844af8fe3503", "blockhash": "00000000000000000004ffacab907a6b429b9a5745fa0b75af4234bf69dd7176", "vout": [{"scriptPubKey": {"reqSigs": 1, "hex": "a914c927026a8ca520d2b962fceda3746ecc1d9f516787", "addresses": ["3L2cUXQDVWiEPfN7nJRnS2GPbqifmx8yqL"], "asm": "OP_HASH160 c927026a8ca520d2b962fceda3746ecc1d9f5167 OP_EQUAL", "type": "scripthash"}, "value": 4.7883798, "n": 0}, {"scriptPubKey": {"reqSigs": 1, "hex": "a914127483a1d16dc965edc082cf59e6ce1d2599942d87", "addresses": ["33NbfYXcppPbT2gteBWHzPrfWnuyu6WC5q"], "asm": "OP_HASH160 127483a1d16dc965edc082cf59e6ce1d2599942d OP_EQUAL", "type": "scripthash"}, "value": 0.01156629, "n": 1}], "hex": "0100000001e1aa23b9ab0d9eee3ddd281dd50fbf36f748ff3cc80c5985668b5ef9ed81478d32000000fdfd0000483045022100d41af4c1d031836aad127ea773c695cbb76ba1959704b31b86657aa24226fe5802202cc317651ed9af95501eb12da509ff303f60b5c8f453e9af7a6f5d77bdff3546014730440220670bbdf71245c1d35cf2931de0e2fafeb27fbbb36f6e12be0ded7f7215ea9da502206801cada551f8cb9dc63fc849883ce4c3f7a1fc1ed56b7ca6824b3911ecded09014c6952210312ae275d6cffb21af89b6b24e69f1fc9d2de296e0a0314272725d312bad26f1e210341bb692fd7cf9bb56372b6dc32e893dd5dc71cd9c1bb9723f22b7b6d151acfea2103a4879818abef8eb6910a537b4a6d34b589f397db99a77a3cfe4fb725d8c33e0953aeffffffff02dc7c8a1c0000000017a914c927026a8ca520d2b962fceda3746ecc1d9f51678715a611000000000017a914127483a1d16dc965edc082cf59e6ce1d2599942d8700000000", "vin": [{"sequence": 4294967295, "scriptSig": {"hex": "00483045022100d41af4c1d031836aad127ea773c695cbb76ba1959704b31b86657aa24226fe5802202cc317651ed9af95501eb12da509ff303f60b5c8f453e9af7a6f5d77bdff3546014730440220670bbdf71245c1d35cf2931de0e2fafeb27fbbb36f6e12be0ded7f7215ea9da502206801cada551f8cb9dc63fc849883ce4c3f7a1fc1ed56b7ca6824b3911ecded09014c6952210312ae275d6cffb21af89b6b24e69f1fc9d2de296e0a0314272725d312bad26f1e210341bb692fd7cf9bb56372b6dc32e893dd5dc71cd9c1bb9723f22b7b6d151acfea2103a4879818abef8eb6910a537b4a6d34b589f397db99a77a3cfe4fb725d8c33e0953ae", "asm": "0 3045022100d41af4c1d031836aad127ea773c695cbb76ba1959704b31b86657aa24226fe5802202cc317651ed9af95501eb12da509ff303f60b5c8f453e9af7a6f5d77bdff3546[ALL] 30440220670bbdf71245c1d35cf2931de0e2fafeb27fbbb36f6e12be0ded7f7215ea9da502206801cada551f8cb9dc63fc849883ce4c3f7a1fc1ed56b7ca6824b3911ecded09[ALL] 52210312ae275d6cffb21af89b6b24e69f1fc9d2de296e0a0314272725d312bad26f1e210341bb692fd7cf9bb56372b6dc32e893dd5dc71cd9c1bb9723f22b7b6d151acfea2103a4879818abef8eb6910a537b4a6d34b589f397db99a77a3cfe4fb725d8c33e0953ae"}, "vout": 50, "txid": "8d4781edf95e8b6685590cc83cff48f736bf0fd51d28dd3dee9e0dabb923aae1"}], "txid": "b38090fef845e62d6e94d106db1e9ded3db969b48a8dfbfb7c07844af8fe3503", "blocktime": 1537875543, "version": 1, "confirmations": 11464, "time": 1537875543, "locktime": 0, "vsize": 370, "size": 370}