{"hash": "b382e7528615b18549d697fa7b25b0f15fb594f9364cfa5fbe767f5983c4938e", "blockhash": "00000000000000000024a2167bbff67b0be802c0b01cdd79e6331c2be6459f87", "vout": [{"scriptPubKey": {"reqSigs": 1, "hex": "76a91429b4cb71c1b040450190fc72ab697ed5348c402988ac", "addresses": ["14oXHhgKJ8GkZNycFuZVUSGbzhtGCPPzGB"], "asm": "OP_DUP OP_HASH160 29b4cb71c1b040450190fc72ab697ed5348c4029 OP_EQUALVERIFY OP_CHECKSIG", "type": "pubkeyhash"}, "value": 0.0113887, "n": 0}, {"scriptPubKey": {"reqSigs": 1, "hex": "76a9148cc147c309f00d001cae40962de8eb21f619450a88ac", "addresses": ["1DqF9D5m2KLKXcbMJDcorS56EzuJkAUdya"], "asm": "OP_DUP OP_HASH160 8cc147c309f00d001cae40962de8eb21f619450a OP_EQUALVERIFY OP_CHECKSIG", "type": "pubkeyhash"}, "value": 0.01017776, "n": 1}], "hex": "01000000062352ed870b57dc957e76cd49036cac8ef8fe3032a9b09a3de612d3b7b3b726ed010000006b483045022100e28587119ec092424af26a05d6717b6e814aae10389f41545a63f52698d6fe500220408f90899baea829fe1ec402f9a73851a5f073713a6cb35e1610000def29efbe012103cda3efdf93e7f75f5408a73c22809d3ee48b7bc8c913b69e174ff46427d5dc40feffffff0096967e75ba9ca5ac4bf54e40e07b5f6847b5b5960e78b67029bbb5a645198d0e0000006a47304402205a5613df431d4de11e006f504f94d70cb5d4707b73b287311a7624cc77ba7d94022011add19782c0396f3eb0b4269b1c88486ecc683a9ffc900d68591ac20428f2030121024cb54edb80efb24791673e09cceed5f00802983d3352c44aad7510141ae707bbfeffffff50c9363240af1b6c2847b6f9acaa864f94a047fc369502e328b72a422719a009000000006b48304502210092b3ffa79bac3b1bdfe365a31cb4373b4621fc48ae77d9f10adde15af639e08202204ffad841f8488fa070fa613ccaba81554a865b7fb13a2541832c36e4c54a31b4012102d9a1d6992b38595b7526eefefcf2b32ac8bfd2447c44628d2cdc4443a21be8b9feffffff9000840a454e0455830b9a4c94afea7469bf9a587dac7afbfacba922e52a709a190000006a47304402203714a2777e84932ed3e48859cd45202563a0cbb0874106bdd9ea80ae794f345d0220131c126401cd5fee04745385e3960a85639c79b86ff07b1eabbc360d9c0d01d6012102f1f0bb03c2b0d526ee5aaba236679a2d634f90a8486aabd00be3e155dcc63580feffffffabe1d5eb354e739db1c1742a3a7cfd830a6e3d63d1b93078d544e64f0c4b28c0170000006a473044022056764de9d0d37eb53a8dc85044d2fd6074ef265ae138f254c21cc979789c92a9022040d0037d142c6a0fb88de921b5ec5bb39a8027fccb08a3306eb3e1a815c39d61012102188cb618d88626dad2d290a9f586b8bc354c71b3bbc17fe1bc3229ca4cb81815feffffff4d06ca0a93c6c5ca7b2e5a404c2d0f36c4c34ad570027ec6d24a4b883e883846010000006a47304402206f732bf98dbee5936ab221ce62b23f0655ddd6373c15bde2dfae5782213b86c302204b18c0bce8179fd275e894a936b1083e3c79da3d547a8fbe23100aede6067e89012103d8d77bc45737a18f1249f738fc3effaefaf5b3c6fa7a3274fba1e8991cddc88dfeffffff02b6601100000000001976a91429b4cb71c1b040450190fc72ab697ed5348c402988acb0870f00000000001976a9148cc147c309f00d001cae40962de8eb21f619450a88ac0d490800", "vin": [{"sequence": 4294967294, "scriptSig": {"hex": "483045022100e28587119ec092424af26a05d6717b6e814aae10389f41545a63f52698d6fe500220408f90899baea829fe1ec402f9a73851a5f073713a6cb35e1610000def29efbe012103cda3efdf93e7f75f5408a73c22809d3ee48b7bc8c913b69e174ff46427d5dc40", "asm": "3045022100e28587119ec092424af26a05d6717b6e814aae10389f41545a63f52698d6fe500220408f90899baea829fe1ec402f9a73851a5f073713a6cb35e1610000def29efbe[ALL] 03cda3efdf93e7f75f5408a73c22809d3ee48b7bc8c913b69e174ff46427d5dc40"}, "vout": 1, "txid": "ed26b7b3b7d312e63d9ab0a93230fef88eac6c0349cd767e95dc570b87ed5223"}, {"sequence": 4294967294, "scriptSig": {"hex": "47304402205a5613df431d4de11e006f504f94d70cb5d4707b73b287311a7624cc77ba7d94022011add19782c0396f3eb0b4269b1c88486ecc683a9ffc900d68591ac20428f2030121024cb54edb80efb24791673e09cceed5f00802983d3352c44aad7510141ae707bb", "asm": "304402205a5613df431d4de11e006f504f94d70cb5d4707b73b287311a7624cc77ba7d94022011add19782c0396f3eb0b4269b1c88486ecc683a9ffc900d68591ac20428f203[ALL] 024cb54edb80efb24791673e09cceed5f00802983d3352c44aad7510141ae707bb"}, "vout": 14, "txid": "8d1945a6b5bb2970b6780e96b5b547685f7be0404ef54baca59cba757e969600"}, {"sequence": 4294967294, "scriptSig": {"hex": "48304502210092b3ffa79bac3b1bdfe365a31cb4373b4621fc48ae77d9f10adde15af639e08202204ffad841f8488fa070fa613ccaba81554a865b7fb13a2541832c36e4c54a31b4012102d9a1d6992b38595b7526eefefcf2b32ac8bfd2447c44628d2cdc4443a21be8b9", "asm": "304502210092b3ffa79bac3b1bdfe365a31cb4373b4621fc48ae77d9f10adde15af639e08202204ffad841f8488fa070fa613ccaba81554a865b7fb13a2541832c36e4c54a31b4[ALL] 02d9a1d6992b38595b7526eefefcf2b32ac8bfd2447c44628d2cdc4443a21be8b9"}, "vout": 0, "txid": "09a01927422ab728e3029536fc47a0944f86aaacf9b647286c1baf403236c950"}, {"sequence": 4294967294, "scriptSig": {"hex": "47304402203714a2777e84932ed3e48859cd45202563a0cbb0874106bdd9ea80ae794f345d0220131c126401cd5fee04745385e3960a85639c79b86ff07b1eabbc360d9c0d01d6012102f1f0bb03c2b0d526ee5aaba236679a2d634f90a8486aabd00be3e155dcc63580", "asm": "304402203714a2777e84932ed3e48859cd45202563a0cbb0874106bdd9ea80ae794f345d0220131c126401cd5fee04745385e3960a85639c79b86ff07b1eabbc360d9c0d01d6[ALL] 02f1f0bb03c2b0d526ee5aaba236679a2d634f90a8486aabd00be3e155dcc63580"}, "vout": 25, "txid": "9a702ae522a9cbfafb7aac7d589abf6974eaaf944c9a0b8355044e450a840090"}, {"sequence": 4294967294, "scriptSig": {"hex": "473044022056764de9d0d37eb53a8dc85044d2fd6074ef265ae138f254c21cc979789c92a9022040d0037d142c6a0fb88de921b5ec5bb39a8027fccb08a3306eb3e1a815c39d61012102188cb618d88626dad2d290a9f586b8bc354c71b3bbc17fe1bc3229ca4cb81815", "asm": "3044022056764de9d0d37eb53a8dc85044d2fd6074ef265ae138f254c21cc979789c92a9022040d0037d142c6a0fb88de921b5ec5bb39a8027fccb08a3306eb3e1a815c39d61[ALL] 02188cb618d88626dad2d290a9f586b8bc354c71b3bbc17fe1bc3229ca4cb81815"}, "vout": 23, "txid": "c0284b0c4fe644d57830b9d1633d6e0a83fd7c3a2a74c1b19d734e35ebd5e1ab"}, {"sequence": 4294967294, "scriptSig": {"hex": "47304402206f732bf98dbee5936ab221ce62b23f0655ddd6373c15bde2dfae5782213b86c302204b18c0bce8179fd275e894a936b1083e3c79da3d547a8fbe23100aede6067e89012103d8d77bc45737a18f1249f738fc3effaefaf5b3c6fa7a3274fba1e8991cddc88d", "asm": "304402206f732bf98dbee5936ab221ce62b23f0655ddd6373c15bde2dfae5782213b86c302204b18c0bce8179fd275e894a936b1083e3c79da3d547a8fbe23100aede6067e89[ALL] 03d8d77bc45737a18f1249f738fc3effaefaf5b3c6fa7a3274fba1e8991cddc88d"}, "vout": 1, "txid": "4638883e884b4ad2c67e0270d54ac3c4360f2d4c405a2e7bcac5c6930aca064d"}], "txid": "b382e7528615b18549d697fa7b25b0f15fb594f9364cfa5fbe767f5983c4938e", "blocktime": 1537870564, "version": 1, "confirmations": 11515, "time": 1537870564, "locktime": 542989, "vsize": 962, "size": 962}