{"hash": "b383e7c2b1c5f2fb1c76b9fd959233b3d71b2b6e534ad71e04273fdc5a6d7c86", "blockhash": "0000000000000000001f0ddff1eddb255c1121bcd4da4f1bc9a0da00cae72433", "vout": [{"scriptPubKey": {"reqSigs": 1, "hex": "76a9147441e47db674151cf31f1782659892b6769c9f9288ac", "addresses": ["1BbiKYhQgeFyA9ePt52v9s4ejLME1Ms5zG"], "asm": "OP_DUP OP_HASH160 7441e47db674151cf31f1782659892b6769c9f92 OP_EQUALVERIFY OP_CHECKSIG", "type": "pubkeyhash"}, "value": 0.0438342, "n": 0}, {"scriptPubKey": {"reqSigs": 1, "hex": "a91486032fd0ec9fadc321e344b0f63824c9914cf15b87", "addresses": ["3DucHfqpraF918oHc1UDMyRtMcsBrZB1tv"], "asm": "OP_HASH160 86032fd0ec9fadc321e344b0f63824c9914cf15b OP_EQUAL", "type": "scripthash"}, "value": 0.11174542, "n": 1}], "hex": "01000000014fe213eabe0b4e14fe8b01db4170f69869f07b583b2c6303ff9e6a7bdc2c285f010000006a47304402203dc8516f25a20fa8ef4220c20c4894c64aa0446f51d202985b2e4fce12bdaa47022078bcffc7460a733a04fb30d1457943229d9ce164525a49b0c56734558e20a7530121030325060ec9bf63b238ad426dca27f6751798f16ceadd4503d5468963e48022a9ffffffff02bce24200000000001976a9147441e47db674151cf31f1782659892b6769c9f9288ac8e82aa000000000017a91486032fd0ec9fadc321e344b0f63824c9914cf15b8700000000", "vin": [{"sequence": 4294967295, "scriptSig": {"hex": "47304402203dc8516f25a20fa8ef4220c20c4894c64aa0446f51d202985b2e4fce12bdaa47022078bcffc7460a733a04fb30d1457943229d9ce164525a49b0c56734558e20a7530121030325060ec9bf63b238ad426dca27f6751798f16ceadd4503d5468963e48022a9", "asm": "304402203dc8516f25a20fa8ef4220c20c4894c64aa0446f51d202985b2e4fce12bdaa47022078bcffc7460a733a04fb30d1457943229d9ce164525a49b0c56734558e20a753[ALL] 030325060ec9bf63b238ad426dca27f6751798f16ceadd4503d5468963e48022a9"}, "vout": 1, "txid": "5f282cdc7b6a9eff03632c3b587bf06998f67041db018bfe144e0bbeea13e24f"}], "txid": "b383e7c2b1c5f2fb1c76b9fd959233b3d71b2b6e534ad71e04273fdc5a6d7c86", "blocktime": 1537872018, "version": 1, "confirmations": 11489, "time": 1537872018, "locktime": 0, "vsize": 223, "size": 223}