{"hash": "e31a910a26e91c30bfed1538c224142a7d6dc04908f2dd168f5d4d84642af14d", "blockhash": "0000000000000000000baef3f32e3676a92c3b2e5da21b426e4f302fc371ce76", "vout": [{"scriptPubKey": {"reqSigs": 1, "hex": "a914116dbfe38473defcde03c44b33d31411ab25f6dd87", "addresses": ["33HAtLaVXHRW4ktrGtMH7mQAqprLxpd83h"], "asm": "OP_HASH160 116dbfe38473defcde03c44b33d31411ab25f6dd OP_EQUAL", "type": "scripthash"}, "value": 1.02303544, "n": 0}, {"scriptPubKey": {"reqSigs": 1, "hex": "a91463f0ab5a1d58ac58e01ab7ac637abd46c755002287", "addresses": ["3AoT8Xw4V7iFjpwyBEzvF5TZ6L2v4fEube"], "asm": "OP_HASH160 63f0ab5a1d58ac58e01ab7ac637abd46c7550022 OP_EQUAL", "type": "scripthash"}, "value": 0.008, "n": 1}], "hex": "020000000001018144156d0372ac6378ff8c0678cd182d943773583a831e54eccec6261ff2c2e901000000171600141d4b9c135f8d623dfe993c724c3343dcb138d457ffffffff02380719060000000017a914116dbfe38473defcde03c44b33d31411ab25f6dd8700350c000000000017a91463f0ab5a1d58ac58e01ab7ac637abd46c75500228702483045022100e4ef9dbbd002d277c587b8e30fb5febd8521c4a20d94d6eca55cf133e679b729022050f060dd147568c17f937e798b5b8e77ce5f9dd754400d87b70ade1de38ec40c012103344324023591270e36f79429783286f5fb93b78d8b511fef4f174551981c086d00000000", "vin": [{"txinwitness": ["3045022100e4ef9dbbd002d277c587b8e30fb5febd8521c4a20d94d6eca55cf133e679b729022050f060dd147568c17f937e798b5b8e77ce5f9dd754400d87b70ade1de38ec40c01", "03344324023591270e36f79429783286f5fb93b78d8b511fef4f174551981c086d"], "sequence": 4294967295, "scriptSig": {"hex": "1600141d4b9c135f8d623dfe993c724c3343dcb138d457", "asm": "00141d4b9c135f8d623dfe993c724c3343dcb138d457"}, "vout": 1, "txid": "e9c2f21f26c6ceec541e833a587337942d18cd78068cff7863ac72036d154481"}], "txid": "b38326a4b77215fe8f41bb776903f681a802599d1c1896ae55667b1a6233d69e", "blocktime": 1537876114, "version": 2, "confirmations": 11460, "time": 1537876114, "locktime": 0, "vsize": 166, "size": 248}