{"hash": "b3846c7b934a15d8c678fa37088d4d21f7e9d528fc4e044c720dc29831a300dd", "blockhash": "0000000000000000001cda96e906b7601b7a6fb1a3b62bca570a9e5d8f4b3de1", "vout": [{"scriptPubKey": {"reqSigs": 1, "hex": "76a914692190cd5688530e6281507b0729c3eaf44bb7af88ac", "addresses": ["1AatAKkVu5LMs7hR5HAMcvX26EENwZ1Akw"], "asm": "OP_DUP OP_HASH160 692190cd5688530e6281507b0729c3eaf44bb7af OP_EQUALVERIFY OP_CHECKSIG", "type": "pubkeyhash"}, "value": 0.00843882, "n": 0}, {"scriptPubKey": {"reqSigs": 1, "hex": "76a91410ad01a47c71842f5db6c0a67ae8bd6aa1e3438588ac", "addresses": ["12XB4mRCgVAyGGr3rpgyawbNaz5oQ9UEXW"], "asm": "OP_DUP OP_HASH160 10ad01a47c71842f5db6c0a67ae8bd6aa1e34385 OP_EQUALVERIFY OP_CHECKSIG", "type": "pubkeyhash"}, "value": 0.0027272, "n": 1}], "hex": "0100000002b0b4ec15f0f89f6a335d28b5379c546be884060ea98c20a9e2bf56041c393b2d000000006b483045022100cf2d56e2d631437a2e4c6a2648edd515d7e231b75fd1a157e4f5bfa4da421043022020041c94e07ee21df2cb96c6b9f18a6bc4dff0f2555ebba502493ad8f0450d0c012102d3b80bf7d5bdc370ef8302699328be2bcec53a963401dc8beae094f057eb6baffffffffff6372047e5c3c4a18db2558715d07d99fead35ac260d0270bb13d2e6118781b0050000006b483045022100ff17eae5509cf3385ff7cdab36f5dbfdc40e52e0baec4cdbd4e8a5e1530f4ff8022045b17f7a885e1d113f81e89a08088bdfd78ea0c1f9a51f3780a3c5468087b5360121027bcee38b4e6d8160570c9ab4e66617789e6a54f1c1f3770fdde2f0539dd3c123ffffffff026ae00c00000000001976a914692190cd5688530e6281507b0729c3eaf44bb7af88ac50290400000000001976a91410ad01a47c71842f5db6c0a67ae8bd6aa1e3438588ac00000000", "vin": [{"sequence": 4294967295, "scriptSig": {"hex": "483045022100cf2d56e2d631437a2e4c6a2648edd515d7e231b75fd1a157e4f5bfa4da421043022020041c94e07ee21df2cb96c6b9f18a6bc4dff0f2555ebba502493ad8f0450d0c012102d3b80bf7d5bdc370ef8302699328be2bcec53a963401dc8beae094f057eb6baf", "asm": "3045022100cf2d56e2d631437a2e4c6a2648edd515d7e231b75fd1a157e4f5bfa4da421043022020041c94e07ee21df2cb96c6b9f18a6bc4dff0f2555ebba502493ad8f0450d0c[ALL] 02d3b80bf7d5bdc370ef8302699328be2bcec53a963401dc8beae094f057eb6baf"}, "vout": 0, "txid": "2d3b391c0456bfe2a9208ca90e0684e86b549c37b5285d336a9ff8f015ecb4b0"}, {"sequence": 4294967295, "scriptSig": {"hex": "483045022100ff17eae5509cf3385ff7cdab36f5dbfdc40e52e0baec4cdbd4e8a5e1530f4ff8022045b17f7a885e1d113f81e89a08088bdfd78ea0c1f9a51f3780a3c5468087b5360121027bcee38b4e6d8160570c9ab4e66617789e6a54f1c1f3770fdde2f0539dd3c123", "asm": "3045022100ff17eae5509cf3385ff7cdab36f5dbfdc40e52e0baec4cdbd4e8a5e1530f4ff8022045b17f7a885e1d113f81e89a08088bdfd78ea0c1f9a51f3780a3c5468087b536[ALL] 027bcee38b4e6d8160570c9ab4e66617789e6a54f1c1f3770fdde2f0539dd3c123"}, "vout": 5, "txid": "b0818711e6d213bb70020d26ac35adfe997dd0158755b28da1c4c3e5472037f6"}], "txid": "b3846c7b934a15d8c678fa37088d4d21f7e9d528fc4e044c720dc29831a300dd", "blocktime": 1537873282, "version": 1, "confirmations": 11481, "time": 1537873282, "locktime": 0, "vsize": 374, "size": 374}