{"hash": "b384afc10a2e8ada781232d5f3e25f45b9befc5d46f416d2e4f0b02a926eff70", "blockhash": "00000000000000000017f5eb5941039fbcee6240d03bc1f2f8e35350df66a1d8", "vout": [{"scriptPubKey": {"reqSigs": 1, "hex": "76a9143c7118fce7c3db2e77c1f0d7fc4ca28cc50ee15588ac", "addresses": ["16Wb2fq5KuvcwXD4PGpR94b5mHLP1jTv9G"], "asm": "OP_DUP OP_HASH160 3c7118fce7c3db2e77c1f0d7fc4ca28cc50ee155 OP_EQUALVERIFY OP_CHECKSIG", "type": "pubkeyhash"}, "value": 0.00635999, "n": 0}, {"scriptPubKey": {"type": "nulldata", "hex": "6a4c50000077f100015fa7ffcbabf70d374b7ef707d19ed074892d00f8e87af8e8e963c7cfd5b92d1bcfb58c88dea69206b844d2cc2ec85baa183606137e70c931546d1d100759d4ba30d2c37bb011d97e02cf", "asm": "OP_RETURN 000077f100015fa7ffcbabf70d374b7ef707d19ed074892d00f8e87af8e8e963c7cfd5b92d1bcfb58c88dea69206b844d2cc2ec85baa183606137e70c931546d1d100759d4ba30d2c37bb011d97e02cf"}, "value": 0.0, "n": 1}], "hex": "01000000019ec50913191adeb6474d780c99dc21d9c25c75d42d179aa74e05f403fb42f185010000006b4830450221009b601af98fd097caf627a3aeab37d6f0281558503a886244308f8fdd9778ba9a022062d1cd48e0371961931bba176f636f23014213325288f89b1eb787299fc832520121036d1bb2faa5e116903f9e181e811470240ef2c573ec08106f4fee5981ec7844a1ffffffff025fb40900000000001976a9143c7118fce7c3db2e77c1f0d7fc4ca28cc50ee15588ac0000000000000000536a4c50000077f100015fa7ffcbabf70d374b7ef707d19ed074892d00f8e87af8e8e963c7cfd5b92d1bcfb58c88dea69206b844d2cc2ec85baa183606137e70c931546d1d100759d4ba30d2c37bb011d97e02cf00000000", "vin": [{"sequence": 4294967295, "scriptSig": {"hex": "4830450221009b601af98fd097caf627a3aeab37d6f0281558503a886244308f8fdd9778ba9a022062d1cd48e0371961931bba176f636f23014213325288f89b1eb787299fc832520121036d1bb2faa5e116903f9e181e811470240ef2c573ec08106f4fee5981ec7844a1", "asm": "30450221009b601af98fd097caf627a3aeab37d6f0281558503a886244308f8fdd9778ba9a022062d1cd48e0371961931bba176f636f23014213325288f89b1eb787299fc83252[ALL] 036d1bb2faa5e116903f9e181e811470240ef2c573ec08106f4fee5981ec7844a1"}, "vout": 1, "txid": "85f142fb03f4054ea79a172dd4755cc2d921dc990c784d47b6de1a191309c59e"}], "txid": "b384afc10a2e8ada781232d5f3e25f45b9befc5d46f416d2e4f0b02a926eff70", "blocktime": 1537874412, "version": 1, "confirmations": 11467, "time": 1537874412, "locktime": 0, "vsize": 284, "size": 284}