{"hash": "b38ae3fa79d7561d3677869a16a012247ab54725c1eac15c06cf7c45a7ef2a31", "blockhash": "0000000000000000000dcc0f55137456b1a82d3642486a52398922ac4d620174", "vout": [{"scriptPubKey": {"reqSigs": 1, "hex": "76a9140622adb546a824116e093df51cc8e49df1808c8f88ac", "addresses": ["1ZSbfCqSQzxy9CPXr2qZT4oFNZ52rZx35"], "asm": "OP_DUP OP_HASH160 0622adb546a824116e093df51cc8e49df1808c8f OP_EQUALVERIFY OP_CHECKSIG", "type": "pubkeyhash"}, "value": 0.01776576, "n": 0}, {"scriptPubKey": {"reqSigs": 1, "hex": "76a914f81418c38707e25d2e9132135dad0e346e49417388ac", "addresses": ["1PcievL6FwNAFk19H5MfTCnDJNw8zSpJHX"], "asm": "OP_DUP OP_HASH160 f81418c38707e25d2e9132135dad0e346e494173 OP_EQUALVERIFY OP_CHECKSIG", "type": "pubkeyhash"}, "value": 0.1115506, "n": 1}], "hex": "0100000001cfa4928e35db2d31cb0ef39bdfc3d71931c35d85137604a11d13992f5e53afd1010000006a47304402202b476f7b6ac86edccacbeb1b2fe63166c36c0a2fbe5641653bd3e74d8d2c4f3e022027771b7775792c3282388b7ed60f24d80763e289ec5d3313507349ee0aba946b012103118193ff740779adeabc19637f6af55d4046e66690c1f058baa5753e1f6dc336ffffffff02c01b1b00000000001976a9140622adb546a824116e093df51cc8e49df1808c8f88ac7436aa00000000001976a914f81418c38707e25d2e9132135dad0e346e49417388ac00000000", "vin": [{"sequence": 4294967295, "scriptSig": {"hex": "47304402202b476f7b6ac86edccacbeb1b2fe63166c36c0a2fbe5641653bd3e74d8d2c4f3e022027771b7775792c3282388b7ed60f24d80763e289ec5d3313507349ee0aba946b012103118193ff740779adeabc19637f6af55d4046e66690c1f058baa5753e1f6dc336", "asm": "304402202b476f7b6ac86edccacbeb1b2fe63166c36c0a2fbe5641653bd3e74d8d2c4f3e022027771b7775792c3282388b7ed60f24d80763e289ec5d3313507349ee0aba946b[ALL] 03118193ff740779adeabc19637f6af55d4046e66690c1f058baa5753e1f6dc336"}, "vout": 1, "txid": "d1af535e2f99131da1047613855dc33119d7c3df9bf30ecb312ddb358e92a4cf"}], "txid": "b38ae3fa79d7561d3677869a16a012247ab54725c1eac15c06cf7c45a7ef2a31", "blocktime": 1537870268, "version": 1, "confirmations": 11518, "time": 1537870268, "locktime": 0, "vsize": 225, "size": 225}