{"hash": "b38d98d1c35bc6307dd4b7016abe6c1d2ff816fb89bb310789bcb68d791d4c3a", "blockhash": "0000000000000000001cda96e906b7601b7a6fb1a3b62bca570a9e5d8f4b3de1", "vout": [{"scriptPubKey": {"reqSigs": 1, "hex": "76a9145703921e0f41a59ee186c1cd942b52505eff633488ac", "addresses": ["18w64nsB797kyPty5sUY6fHrCZuVuzziE1"], "asm": "OP_DUP OP_HASH160 5703921e0f41a59ee186c1cd942b52505eff6334 OP_EQUALVERIFY OP_CHECKSIG", "type": "pubkeyhash"}, "value": 0.005, "n": 0}, {"scriptPubKey": {"reqSigs": 1, "hex": "76a914519c59e69f990208d282d456c9e38813531403ca88ac", "addresses": ["18SX31VAWZfjaL2fQEtgJsrVPD4gkA5sDU"], "asm": "OP_DUP OP_HASH160 519c59e69f990208d282d456c9e38813531403ca OP_EQUALVERIFY OP_CHECKSIG", "type": "pubkeyhash"}, "value": 0.005, "n": 1}, {"scriptPubKey": {"reqSigs": 1, "hex": "76a914ebff5c786e26c9b000be10b8c62bd8a7e55b241588ac", "addresses": ["1NWqhtX5ySrDPcUPcd133tmBsQPpxbNgJ6"], "asm": "OP_DUP OP_HASH160 ebff5c786e26c9b000be10b8c62bd8a7e55b2415 OP_EQUALVERIFY OP_CHECKSIG", "type": "pubkeyhash"}, "value": 0.005, "n": 2}, {"scriptPubKey": {"reqSigs": 1, "hex": "76a914513d9057450310969291a801aa7bc875b882b97b88ac", "addresses": ["18QZV4xgQ6kX8YxL2SNGrRjKqpQNb5383i"], "asm": "OP_DUP OP_HASH160 513d9057450310969291a801aa7bc875b882b97b OP_EQUALVERIFY OP_CHECKSIG", "type": "pubkeyhash"}, "value": 0.005, "n": 3}, {"scriptPubKey": {"reqSigs": 1, "hex": "76a914284eacef15d1996e00bba593e9a0a5d8f923f6ac88ac", "addresses": ["14g8H9Nkyi2bEUkkdtf6R2foky24YpUSEb"], "asm": "OP_DUP OP_HASH160 284eacef15d1996e00bba593e9a0a5d8f923f6ac OP_EQUALVERIFY OP_CHECKSIG", "type": "pubkeyhash"}, "value": 0.00924502, "n": 4}, {"scriptPubKey": {"reqSigs": 1, "hex": "76a91456db2f63cf7c354311911b935d3b90b821f7511488ac", "addresses": ["18vFgkHbkWkar74Sn7Eyoyw6TBTPrv7rCG"], "asm": "OP_DUP OP_HASH160 56db2f63cf7c354311911b935d3b90b821f75114 OP_EQUALVERIFY OP_CHECKSIG", "type": "pubkeyhash"}, "value": 0.005, "n": 5}, {"scriptPubKey": {"reqSigs": 1, "hex": "76a91455305d43476ef601a59a1512835c62f6c260c4d688ac", "addresses": ["18mSNiZfbAQ8WzmnAZuCEQyseYFQsRSsGJ"], "asm": "OP_DUP OP_HASH160 55305d43476ef601a59a1512835c62f6c260c4d6 OP_EQUALVERIFY OP_CHECKSIG", "type": "pubkeyhash"}, "value": 0.005, "n": 6}, {"scriptPubKey": {"reqSigs": 1, "hex": "76a9142622e8a2bd97dbfbacffb39b6cbb75f55f83117988ac", "addresses": ["14UeVnsTinW1Vp4cmNufCqc5o3qFe71etp"], "asm": "OP_DUP OP_HASH160 2622e8a2bd97dbfbacffb39b6cbb75f55f831179 OP_EQUALVERIFY OP_CHECKSIG", "type": "pubkeyhash"}, "value": 0.005, "n": 7}, {"scriptPubKey": {"reqSigs": 1, "hex": "76a91455c4ae917ba82a1d1de1f110314515470b51fa0d88ac", "addresses": ["18pW41EkUS3HU7mtCPUoiuY3EBDYmr58di"], "asm": "OP_DUP OP_HASH160 55c4ae917ba82a1d1de1f110314515470b51fa0d OP_EQUALVERIFY OP_CHECKSIG", "type": "pubkeyhash"}, "value": 0.005, "n": 8}], "hex": "02000000031c63acd24186a777f4d76468955d6e3dbb513c322ebcd279252a3cb2b34270d5010000006b483045022100e9a2cd4ed5c0e7e90cd7e1e412742aa07459427a9d8284bc23c502306714030b02207ae83b899286e50c568fae03635dc4dedef6c57d8f0adf25615d2eb345f69841012102dc6dd50d327b095df6bc5e7af6387e6788ab32b3f362839cbb5d2078da39957cfeffffff7f803f7e022f5381cb54a48f56fb174bb943e9639b68b1fe02838007b741ee9e8d0300006b483045022100b1add35105016872bf1504b2e9680029f90b9579a954a8b1e5045999540daf390220347b0e4c42fe3ebcb1ec10997d8c8b123ae0a98e6c2b33ade4343d5e5c217e71012102f60dbb8080f178c0485db8a83a3e0e7e0756f82e4171d95c0dc1f1593381c532feffffff9704c013638d4e99b47b5e27a4c04a264d717d04bbf2a5215ef70f3c6cdcd2d8010000006a47304402205579cb4ba365334a506f9729037e910fe4e8b335cee2025aecd9a7bcee1d315102200855a35b58562a68292015c2e2b8523b9df9a75472eefaf919cdc9392efd151b0121033013b0ff1d939db66614554b96df2410e05d590e1c2248a909c14e67c573ed65feffffff0920a10700000000001976a9145703921e0f41a59ee186c1cd942b52505eff633488ac20a10700000000001976a914519c59e69f990208d282d456c9e38813531403ca88ac20a10700000000001976a914ebff5c786e26c9b000be10b8c62bd8a7e55b241588ac20a10700000000001976a914513d9057450310969291a801aa7bc875b882b97b88ac561b0e00000000001976a914284eacef15d1996e00bba593e9a0a5d8f923f6ac88ac20a10700000000001976a91456db2f63cf7c354311911b935d3b90b821f7511488ac20a10700000000001976a91455305d43476ef601a59a1512835c62f6c260c4d688ac20a10700000000001976a9142622e8a2bd97dbfbacffb39b6cbb75f55f83117988ac20a10700000000001976a91455c4ae917ba82a1d1de1f110314515470b51fa0d88ac13490800", "vin": [{"sequence": 4294967294, "scriptSig": {"hex": "483045022100e9a2cd4ed5c0e7e90cd7e1e412742aa07459427a9d8284bc23c502306714030b02207ae83b899286e50c568fae03635dc4dedef6c57d8f0adf25615d2eb345f69841012102dc6dd50d327b095df6bc5e7af6387e6788ab32b3f362839cbb5d2078da39957c", "asm": "3045022100e9a2cd4ed5c0e7e90cd7e1e412742aa07459427a9d8284bc23c502306714030b02207ae83b899286e50c568fae03635dc4dedef6c57d8f0adf25615d2eb345f69841[ALL] 02dc6dd50d327b095df6bc5e7af6387e6788ab32b3f362839cbb5d2078da39957c"}, "vout": 1, "txid": "d57042b3b23c2a2579d2bc2e323c51bb3d6e5d956864d7f477a78641d2ac631c"}, {"sequence": 4294967294, "scriptSig": {"hex": "483045022100b1add35105016872bf1504b2e9680029f90b9579a954a8b1e5045999540daf390220347b0e4c42fe3ebcb1ec10997d8c8b123ae0a98e6c2b33ade4343d5e5c217e71012102f60dbb8080f178c0485db8a83a3e0e7e0756f82e4171d95c0dc1f1593381c532", "asm": "3045022100b1add35105016872bf1504b2e9680029f90b9579a954a8b1e5045999540daf390220347b0e4c42fe3ebcb1ec10997d8c8b123ae0a98e6c2b33ade4343d5e5c217e71[ALL] 02f60dbb8080f178c0485db8a83a3e0e7e0756f82e4171d95c0dc1f1593381c532"}, "vout": 909, "txid": "9eee41b707808302feb1689b63e943b94b17fb568fa454cb81532f027e3f807f"}, {"sequence": 4294967294, "scriptSig": {"hex": "47304402205579cb4ba365334a506f9729037e910fe4e8b335cee2025aecd9a7bcee1d315102200855a35b58562a68292015c2e2b8523b9df9a75472eefaf919cdc9392efd151b0121033013b0ff1d939db66614554b96df2410e05d590e1c2248a909c14e67c573ed65", "asm": "304402205579cb4ba365334a506f9729037e910fe4e8b335cee2025aecd9a7bcee1d315102200855a35b58562a68292015c2e2b8523b9df9a75472eefaf919cdc9392efd151b[ALL] 033013b0ff1d939db66614554b96df2410e05d590e1c2248a909c14e67c573ed65"}, "vout": 1, "txid": "d8d2dc6c3c0ff75e21a5f2bb047d714d264ac0a4275e7bb4994e8d6313c00497"}], "txid": "b38d98d1c35bc6307dd4b7016abe6c1d2ff816fb89bb310789bcb68d791d4c3a", "blocktime": 1537873282, "version": 2, "confirmations": 11480, "time": 1537873282, "locktime": 542995, "vsize": 759, "size": 759}