{"hash": "e61def7dbc8931337b54da40b07ba12884ab0909e061a86b25229b2f9c680d51", "blockhash": "00000000000000000024a2167bbff67b0be802c0b01cdd79e6331c2be6459f87", "vout": [{"scriptPubKey": {"reqSigs": 1, "hex": "76a914545b21f868c2e8ce3878ed89c8b6b67e6ceee01088ac", "addresses": ["18h2w8DurusAyuV8HawBHpP9ySbESFA3ua"], "asm": "OP_DUP OP_HASH160 545b21f868c2e8ce3878ed89c8b6b67e6ceee010 OP_EQUALVERIFY OP_CHECKSIG", "type": "pubkeyhash"}, "value": 0.0621, "n": 0}, {"scriptPubKey": {"reqSigs": 1, "hex": "a9142e83c0654d72528fbbff02e28960dc9ada41f2d187", "addresses": ["35vxqdFZy9KwNwUQabQ3AuxsajT3HuVz9q"], "asm": "OP_HASH160 2e83c0654d72528fbbff02e28960dc9ada41f2d1 OP_EQUAL", "type": "scripthash"}, "value": 0.05888752, "n": 1}], "hex": "010000000001014cd1798984c4b1d2636ad2c0858f5d1cebb7a207192509a24accc5f2ddb6dd3a0100000023220020fb4fc606dcb3a3054bf1dd38acc1f3542c7bf0e39dadd3772f87d6fbf4e00ff2ffffffff02d0c15e00000000001976a914545b21f868c2e8ce3878ed89c8b6b67e6ceee01088acf0da59000000000017a9142e83c0654d72528fbbff02e28960dc9ada41f2d1870400483045022100b4897aa7f1d1fd0b1f34c4f0b1126336eb8296c4df548052b9d691551a5b5bb2022022840bfa581b4f0493b40de25ddbc5e2488639039fbf721897a7dc204a6e2fa901483045022100ec89ef177454d66c253d46d8169c1916e4e906404f2b7e85d1e12d3c8930643502200ba37e8359ebcec634a996de1291bb90742c89e15b0f0f3246df546d08b531b70147522102f34ac2787cea2b952feb80c4d8b2cacad4fdea1047d6075ca4c9ff265965bb6a2103775727e939d2d52832d787818e9cc31e086ea173bbfa7d8248bbfa2aaee3bde052ae00000000", "vin": [{"txinwitness": ["", "3045022100b4897aa7f1d1fd0b1f34c4f0b1126336eb8296c4df548052b9d691551a5b5bb2022022840bfa581b4f0493b40de25ddbc5e2488639039fbf721897a7dc204a6e2fa901", "3045022100ec89ef177454d66c253d46d8169c1916e4e906404f2b7e85d1e12d3c8930643502200ba37e8359ebcec634a996de1291bb90742c89e15b0f0f3246df546d08b531b701", "522102f34ac2787cea2b952feb80c4d8b2cacad4fdea1047d6075ca4c9ff265965bb6a2103775727e939d2d52832d787818e9cc31e086ea173bbfa7d8248bbfa2aaee3bde052ae"], "sequence": 4294967295, "scriptSig": {"hex": "220020fb4fc606dcb3a3054bf1dd38acc1f3542c7bf0e39dadd3772f87d6fbf4e00ff2", "asm": "0020fb4fc606dcb3a3054bf1dd38acc1f3542c7bf0e39dadd3772f87d6fbf4e00ff2"}, "vout": 1, "txid": "3addb6ddf2c5cc4aa209251907a2b7eb1c5d8f85c0d26a63d2b1c4848979d14c"}], "txid": "b39a0021dcf79f83455bd1128b4fff2299ecf4ffd98712d0fb96aafca6a9b4b1", "blocktime": 1537870564, "version": 1, "confirmations": 11515, "time": 1537870564, "locktime": 0, "vsize": 208, "size": 374}