{"hash": "b39fb2b0427b39bd3d77bc43d42c0b5e8e83e077602541c0bb792dce0d96f238", "blockhash": "0000000000000000001cda96e906b7601b7a6fb1a3b62bca570a9e5d8f4b3de1", "vout": [{"scriptPubKey": {"reqSigs": 1, "hex": "76a91404804e0773fa686554b392f4e01180294d07601f88ac", "addresses": ["1QoQYPb5JiKyeK2jj47Rv9YTRGn6FVFCX"], "asm": "OP_DUP OP_HASH160 04804e0773fa686554b392f4e01180294d07601f OP_EQUALVERIFY OP_CHECKSIG", "type": "pubkeyhash"}, "value": 0.01076, "n": 0}], "hex": "01000000016156f28031c0257a64bb46e7e36a03e05b1a1f47d2d908aac2d42e1d7d5ff2c9040000006b483045022100c8ad0d5a729524ae4aaadb2e5d44e618d8e593eb8e93118995d33de3d238903d02207c990cd2cb8281a99b299fd558483429ce81caa255534b2e7f3fc2322b4dd5ed012103531dfe6c33893820d70e1762292c3b9e2e8f9a4b656ce6c459f282fa308bdbedffffffff01206b1000000000001976a91404804e0773fa686554b392f4e01180294d07601f88ac00000000", "vin": [{"sequence": 4294967295, "scriptSig": {"hex": "483045022100c8ad0d5a729524ae4aaadb2e5d44e618d8e593eb8e93118995d33de3d238903d02207c990cd2cb8281a99b299fd558483429ce81caa255534b2e7f3fc2322b4dd5ed012103531dfe6c33893820d70e1762292c3b9e2e8f9a4b656ce6c459f282fa308bdbed", "asm": "3045022100c8ad0d5a729524ae4aaadb2e5d44e618d8e593eb8e93118995d33de3d238903d02207c990cd2cb8281a99b299fd558483429ce81caa255534b2e7f3fc2322b4dd5ed[ALL] 03531dfe6c33893820d70e1762292c3b9e2e8f9a4b656ce6c459f282fa308bdbed"}, "vout": 4, "txid": "c9f25f7d1d2ed4c2aa08d9d2471f1a5be0036ae3e746bb647a25c03180f25661"}], "txid": "b39fb2b0427b39bd3d77bc43d42c0b5e8e83e077602541c0bb792dce0d96f238", "blocktime": 1537873282, "version": 1, "confirmations": 11481, "time": 1537873282, "locktime": 0, "vsize": 192, "size": 192}