{"hash": "b3a009529d4aa84a0ff2f4073856fdc1c2f55c04e7d2f8966856041f488ab7d7", "blockhash": "0000000000000000001e0dab787dd257d1dbfcb92a98c2207d5e1078be1f4165", "vout": [{"scriptPubKey": {"reqSigs": 1, "hex": "0014a5b8c50c57c035ce96d001f5109f68bb789a6839", "addresses": ["bc1q5kuv2rzhcq6ua9ksq863p8mghduf56pegf7wx9"], "asm": "0 a5b8c50c57c035ce96d001f5109f68bb789a6839", "type": "witness_v0_keyhash"}, "value": 0.00414714, "n": 0}, {"scriptPubKey": {"reqSigs": 1, "hex": "76a914f0d53beeedfde8f987ca79d04a55450c7819c81088ac", "addresses": ["1NxQcoi5o3MhuyaagdcTdr1UoFo2QyzFxK"], "asm": "OP_DUP OP_HASH160 f0d53beeedfde8f987ca79d04a55450c7819c810 OP_EQUALVERIFY OP_CHECKSIG", "type": "pubkeyhash"}, "value": 0.08992203, "n": 1}], "hex": "01000000012f2d2c6a502112af60efeaa3547dad3b124962ce8b3480c1aeb5e8e7c9ff4eee3e0000006a473044022065a90ea3727cd2f36a033f03c919802bb9bf60becd8c91e54f6a9c297aba1b9c02200d8df649b328016af414df707d63cba702772f7e4732cb5ac4856b2b2456d5930121024140f3d1d93f1ae78d8a3db27aaf575454cde5f08d97c789adfab92e96f7836bffffffff02fa53060000000000160014a5b8c50c57c035ce96d001f5109f68bb789a6839cb358900000000001976a914f0d53beeedfde8f987ca79d04a55450c7819c81088ac00000000", "vin": [{"sequence": 4294967295, "scriptSig": {"hex": "473044022065a90ea3727cd2f36a033f03c919802bb9bf60becd8c91e54f6a9c297aba1b9c02200d8df649b328016af414df707d63cba702772f7e4732cb5ac4856b2b2456d5930121024140f3d1d93f1ae78d8a3db27aaf575454cde5f08d97c789adfab92e96f7836b", "asm": "3044022065a90ea3727cd2f36a033f03c919802bb9bf60becd8c91e54f6a9c297aba1b9c02200d8df649b328016af414df707d63cba702772f7e4732cb5ac4856b2b2456d593[ALL] 024140f3d1d93f1ae78d8a3db27aaf575454cde5f08d97c789adfab92e96f7836b"}, "vout": 62, "txid": "ee4effc9e7e8b5aec180348bce6249123bad7d54a3eaef60af1221506a2c2d2f"}], "txid": "b3a009529d4aa84a0ff2f4073856fdc1c2f55c04e7d2f8966856041f488ab7d7", "blocktime": 1537872475, "version": 1, "confirmations": 11486, "time": 1537872475, "locktime": 0, "vsize": 222, "size": 222}