{"hash": "b3a4e448e30edd42012060527133b17b586aa07dec4f4682199664461cb2ad99", "blockhash": "0000000000000000001cda96e906b7601b7a6fb1a3b62bca570a9e5d8f4b3de1", "vout": [{"scriptPubKey": {"reqSigs": 1, "hex": "a9144ca509af3e25d336f4c40c540997c9b66988607f87", "addresses": ["38gGz9njJmGJPBcRkBzyfxUBW9s1TXgpBo"], "asm": "OP_HASH160 4ca509af3e25d336f4c40c540997c9b66988607f OP_EQUAL", "type": "scripthash"}, "value": 0.003118, "n": 0}, {"scriptPubKey": {"reqSigs": 1, "hex": "76a91448102f614fc1487687d7cd46c283ebf475290d2888ac", "addresses": ["17a33NWG21Wu5sdsLbEHFX9U92CD8Fndpg"], "asm": "OP_DUP OP_HASH160 48102f614fc1487687d7cd46c283ebf475290d28 OP_EQUALVERIFY OP_CHECKSIG", "type": "pubkeyhash"}, "value": 0.00025732, "n": 1}], "hex": "0100000001497919a4010e576262c6397b432191885e3d909cb61c2b1f477148e51ffa1afa010000006b483045022100b832cc78a4ab1dcbc8f3c0128ac614e646edd73b1350b084cd1d05d7356f1a9d0220226dd806b0e19a53c2a02ac21466764b16b4f75b4ad00c0ef250b7817a9c0d26012103b49a348f9b287a646716c159bf557eed7189609bef0f614cf07e75458a3e95c9ffffffff02f8c104000000000017a9144ca509af3e25d336f4c40c540997c9b66988607f8784640000000000001976a91448102f614fc1487687d7cd46c283ebf475290d2888ac00000000", "vin": [{"sequence": 4294967295, "scriptSig": {"hex": "483045022100b832cc78a4ab1dcbc8f3c0128ac614e646edd73b1350b084cd1d05d7356f1a9d0220226dd806b0e19a53c2a02ac21466764b16b4f75b4ad00c0ef250b7817a9c0d26012103b49a348f9b287a646716c159bf557eed7189609bef0f614cf07e75458a3e95c9", "asm": "3045022100b832cc78a4ab1dcbc8f3c0128ac614e646edd73b1350b084cd1d05d7356f1a9d0220226dd806b0e19a53c2a02ac21466764b16b4f75b4ad00c0ef250b7817a9c0d26[ALL] 03b49a348f9b287a646716c159bf557eed7189609bef0f614cf07e75458a3e95c9"}, "vout": 1, "txid": "fa1afa1fe54871471f2b1cb69c903d5e889121437b39c66262570e01a4197949"}], "txid": "b3a4e448e30edd42012060527133b17b586aa07dec4f4682199664461cb2ad99", "blocktime": 1537873282, "version": 1, "confirmations": 11485, "time": 1537873282, "locktime": 0, "vsize": 224, "size": 224}