{"hash": "b3a6c18e6fceab35b84cd9ea77878e0eaa81c1613be87ec4d2e3757c7c45a552", "blockhash": "0000000000000000001cda96e906b7601b7a6fb1a3b62bca570a9e5d8f4b3de1", "vout": [{"scriptPubKey": {"reqSigs": 1, "hex": "76a914838b6700d8cd7a20ab6c4c09e1bf1d4cf6c54e9388ac", "addresses": ["1CzYWya1kh7hbBAEvE17ND4VHZsF5a3FLx"], "asm": "OP_DUP OP_HASH160 838b6700d8cd7a20ab6c4c09e1bf1d4cf6c54e93 OP_EQUALVERIFY OP_CHECKSIG", "type": "pubkeyhash"}, "value": 0.01327268, "n": 0}, {"scriptPubKey": {"reqSigs": 1, "hex": "76a91449e5bb5c15a878cb93b140f357f3ecb732333a8c88ac", "addresses": ["17jjY48pf13YK7As5ZNPCe9DfSXW6LUZYZ"], "asm": "OP_DUP OP_HASH160 49e5bb5c15a878cb93b140f357f3ecb732333a8c OP_EQUALVERIFY OP_CHECKSIG", "type": "pubkeyhash"}, "value": 0.18672159, "n": 1}], "hex": "01000000012d86202d2171b6b3fcfa71421322b08eddb5a69908bed1ce5ecaa4330e2a3028000000006a4730440220025bb2351456216fba37e5ed4993d113ff286628ef30fdb7f0ee104e881a2879022063891274bb28e770c357e76ba0939f7d8f0e97afb3cbcdf9071312a4aa7989de0121023176ef6cc9dd78d0f6a8c73f254cdb9f54bd43ce1ace1f064ef8bf88e1c582aeffffffff02a4401400000000001976a914838b6700d8cd7a20ab6c4c09e1bf1d4cf6c54e9388ac1fea1c01000000001976a91449e5bb5c15a878cb93b140f357f3ecb732333a8c88ac00000000", "vin": [{"sequence": 4294967295, "scriptSig": {"hex": "4730440220025bb2351456216fba37e5ed4993d113ff286628ef30fdb7f0ee104e881a2879022063891274bb28e770c357e76ba0939f7d8f0e97afb3cbcdf9071312a4aa7989de0121023176ef6cc9dd78d0f6a8c73f254cdb9f54bd43ce1ace1f064ef8bf88e1c582ae", "asm": "30440220025bb2351456216fba37e5ed4993d113ff286628ef30fdb7f0ee104e881a2879022063891274bb28e770c357e76ba0939f7d8f0e97afb3cbcdf9071312a4aa7989de[ALL] 023176ef6cc9dd78d0f6a8c73f254cdb9f54bd43ce1ace1f064ef8bf88e1c582ae"}, "vout": 0, "txid": "28302a0e33a4ca5eced1be0899a6b5dd8eb022134271fafcb3b671212d20862d"}], "txid": "b3a6c18e6fceab35b84cd9ea77878e0eaa81c1613be87ec4d2e3757c7c45a552", "blocktime": 1537873282, "version": 1, "confirmations": 11485, "time": 1537873282, "locktime": 0, "vsize": 225, "size": 225}