{"hash": "b3a802cc0f34107a369585993326699249982ad6dab6b97599423b229226bd2f", "blockhash": "00000000000000000004ffacab907a6b429b9a5745fa0b75af4234bf69dd7176", "vout": [{"scriptPubKey": {"reqSigs": 1, "hex": "76a914d243e6abb9a60fbff430b421d2df4b7d59ec186088ac", "addresses": ["1LAnF8h3qMGx3TSwNUHVneBZUEpwE4gu3D"], "asm": "OP_DUP OP_HASH160 d243e6abb9a60fbff430b421d2df4b7d59ec1860 OP_EQUALVERIFY OP_CHECKSIG", "type": "pubkeyhash"}, "value": 0.00076972, "n": 0}, {"scriptPubKey": {"reqSigs": 1, "hex": "76a9143851f34d13937b673a7d24a1950bb5b21ce94af388ac", "addresses": ["168o1kqNquEJeR9vosUB5fw4eAwcVAgh8P"], "asm": "OP_DUP OP_HASH160 3851f34d13937b673a7d24a1950bb5b21ce94af3 OP_EQUALVERIFY OP_CHECKSIG", "type": "pubkeyhash"}, "value": 5.46e-06, "n": 1}, {"scriptPubKey": {"type": "nulldata", "hex": "6a146f6d6e69000000000000001f00000246139ca800", "asm": "OP_RETURN 6f6d6e69000000000000001f00000246139ca800"}, "value": 0.0, "n": 2}], "hex": "010000000200b01e776a47479de38af5a9b028d8842a6b08c9b6542be4624f51bc071dd46e020000006a47304402203362a2570ded196c7c1bb7a9b1b02181821a14dd032e31fe0c18eb411b0781fa02200fbaaeade1facc5b9eeb9916b4c3fb07ae9a7836a9fb28e236c6d556af6e2cdb012103a3b285a75753306329c33361d5ef718dc598b89eadbc560a590011de9b2d3c3cffffffff4b28e72f570a5a81863c94728729487e56fd6b017478fc3062702438a4121000000000006a47304402206257f3d86258bc50815f72ff2b478de760d615a1597ad05e340decdbca204a2d022001173f39d0278156ea9506285df2861f1b5274128aaa3e60fb30861a90c02de701210271977291b74f1f5f5c42157e8aae804664eaaeccfd097918450d37f28fb94d77ffffffff03ac2c0100000000001976a914d243e6abb9a60fbff430b421d2df4b7d59ec186088ac22020000000000001976a9143851f34d13937b673a7d24a1950bb5b21ce94af388ac0000000000000000166a146f6d6e69000000000000001f00000246139ca80000000000", "vin": [{"sequence": 4294967295, "scriptSig": {"hex": "47304402203362a2570ded196c7c1bb7a9b1b02181821a14dd032e31fe0c18eb411b0781fa02200fbaaeade1facc5b9eeb9916b4c3fb07ae9a7836a9fb28e236c6d556af6e2cdb012103a3b285a75753306329c33361d5ef718dc598b89eadbc560a590011de9b2d3c3c", "asm": "304402203362a2570ded196c7c1bb7a9b1b02181821a14dd032e31fe0c18eb411b0781fa02200fbaaeade1facc5b9eeb9916b4c3fb07ae9a7836a9fb28e236c6d556af6e2cdb[ALL] 03a3b285a75753306329c33361d5ef718dc598b89eadbc560a590011de9b2d3c3c"}, "vout": 2, "txid": "6ed41d07bc514f62e42b54b6c9086b2a84d828b0a9f58ae39d47476a771eb000"}, {"sequence": 4294967295, "scriptSig": {"hex": "47304402206257f3d86258bc50815f72ff2b478de760d615a1597ad05e340decdbca204a2d022001173f39d0278156ea9506285df2861f1b5274128aaa3e60fb30861a90c02de701210271977291b74f1f5f5c42157e8aae804664eaaeccfd097918450d37f28fb94d77", "asm": "304402206257f3d86258bc50815f72ff2b478de760d615a1597ad05e340decdbca204a2d022001173f39d0278156ea9506285df2861f1b5274128aaa3e60fb30861a90c02de7[ALL] 0271977291b74f1f5f5c42157e8aae804664eaaeccfd097918450d37f28fb94d77"}, "vout": 0, "txid": "001012a43824706230fc7874016bfd567e48298772943c86815a0a572fe7284b"}], "txid": "b3a802cc0f34107a369585993326699249982ad6dab6b97599423b229226bd2f", "blocktime": 1537875543, "version": 1, "confirmations": 11464, "time": 1537875543, "locktime": 0, "vsize": 403, "size": 403}