{"hash": "d46e8519e561216059c30f93c4ae728ec92cd00e20e1801d1b22eb6bb87413ad", "blockhash": "0000000000000000000baef3f32e3676a92c3b2e5da21b426e4f302fc371ce76", "vout": [{"scriptPubKey": {"reqSigs": 1, "hex": "a914f7f67cdb1e3bc89f827ec2420b83e96e2f9dee4987", "addresses": ["3QJ87C8oU5tZHkA6pH4JFMEBZUeSv9JntK"], "asm": "OP_HASH160 f7f67cdb1e3bc89f827ec2420b83e96e2f9dee49 OP_EQUAL", "type": "scripthash"}, "value": 0.00056508, "n": 0}, {"scriptPubKey": {"reqSigs": 1, "hex": "a9140be7846be16b05bea00dbec2fcd7e045a793cb1787", "addresses": ["32mxhko5mJHfkbkDPpz7SfdJwEJi21P1WK"], "asm": "OP_HASH160 0be7846be16b05bea00dbec2fcd7e045a793cb17 OP_EQUAL", "type": "scripthash"}, "value": 0.17842806, "n": 1}], "hex": "01000000000101a142403f608b5efc5799359afb662ac059c395e5881588b6cea21fabcafb19ae01000000232200202c66ece6da72bcbfeadf83a91236f4891c13e14d8ecebdcaa81666fc1aa73a31ffffffff02bcdc00000000000017a914f7f67cdb1e3bc89f827ec2420b83e96e2f9dee4987764210010000000017a9140be7846be16b05bea00dbec2fcd7e045a793cb1787040047304402201e23314ff7d102ca8eaa419643c7ed7795dd7b6f69dc894ae01ce88209849c9802205839364ba116ddf8fc24a7d4f319c280afcfa5c32da2381c5db1149bd94c39ae014730440220330e977f3df18a5cc81bb14e41069b930c0a721af11ece94067ad355ed416850022002cbee319ecc8f07a8a5330e801bb0ef2543620b65e8d562e692603fb783869101475221029e6fbb942d34a473faaa5557c1bfe08d72102f0b9754ad140fd369d7a3ba3cdc2103871fc2ca08e6950b38867e8e6a0e94ee625223d3aa0df5c65f414c6d784467e252ae00000000", "vin": [{"txinwitness": ["", "304402201e23314ff7d102ca8eaa419643c7ed7795dd7b6f69dc894ae01ce88209849c9802205839364ba116ddf8fc24a7d4f319c280afcfa5c32da2381c5db1149bd94c39ae01", "30440220330e977f3df18a5cc81bb14e41069b930c0a721af11ece94067ad355ed416850022002cbee319ecc8f07a8a5330e801bb0ef2543620b65e8d562e692603fb783869101", "5221029e6fbb942d34a473faaa5557c1bfe08d72102f0b9754ad140fd369d7a3ba3cdc2103871fc2ca08e6950b38867e8e6a0e94ee625223d3aa0df5c65f414c6d784467e252ae"], "sequence": 4294967295, "scriptSig": {"hex": "2200202c66ece6da72bcbfeadf83a91236f4891c13e14d8ecebdcaa81666fc1aa73a31", "asm": "00202c66ece6da72bcbfeadf83a91236f4891c13e14d8ecebdcaa81666fc1aa73a31"}, "vout": 1, "txid": "ae19fbcaab1fa2ceb6881588e595c359c02a66fb9a359957fc5e8b603f4042a1"}], "txid": "b3b2fa85764c1736883d259b0c1f4b859ffe46b04bcd32324ec06c01882ca45f", "blocktime": 1537876114, "version": 1, "confirmations": 11460, "time": 1537876114, "locktime": 0, "vsize": 205, "size": 370}