{"hash": "b3b2f875f8f2a3b240d198794ac81c56a9a039e55a53b0ea7c18cae8ea65d2b4", "blockhash": "0000000000000000000e13cef7c366c0283d82e591d1acd082e914b08063cdf1", "vout": [{"scriptPubKey": {"reqSigs": 1, "hex": "76a914cb8e4aa8f77d9eaba448848003b6520ffa13627c88ac", "addresses": ["1KZJdYDA7gWqcTx86CvdxzfsGbi2cwDKHe"], "asm": "OP_DUP OP_HASH160 cb8e4aa8f77d9eaba448848003b6520ffa13627c OP_EQUALVERIFY OP_CHECKSIG", "type": "pubkeyhash"}, "value": 0.0294124, "n": 0}], "hex": "0100000002a1f4566c517e5dfed0fac193989502255b73624c77d98f2c97fd01807f5ada04000000006a47304402202250fe2e90fcdb522ecacd834891a36adc70dd0c6e1d58cb49321eab78f3028b022010db5a81621057c3b6218acf9eefebf6ae8e716fe966991404e5afd359b6556401210263d9dff80f9a3b6744c57527a2c4bc6539abb84a51a8985754bfb2b173815592ffffffffca4490e841f183d2286c8c6280f8c6f2cef61ad6318c99def459cdac6fa9033e000000006a4730440220438b4e033c6f41fe62f787d8c358a015c9a27b068046ae271891301efd80b9ec022055f2055e5614e4d51ec07f881808ac07412122271aa043c0dc3458fc4816c42b012103b386e61c8ad8ef1a2d74622e6aa0342d7194bc8899800e180ebc5155909de1a2ffffffff0138e12c00000000001976a914cb8e4aa8f77d9eaba448848003b6520ffa13627c88ac00000000", "vin": [{"sequence": 4294967295, "scriptSig": {"hex": "47304402202250fe2e90fcdb522ecacd834891a36adc70dd0c6e1d58cb49321eab78f3028b022010db5a81621057c3b6218acf9eefebf6ae8e716fe966991404e5afd359b6556401210263d9dff80f9a3b6744c57527a2c4bc6539abb84a51a8985754bfb2b173815592", "asm": "304402202250fe2e90fcdb522ecacd834891a36adc70dd0c6e1d58cb49321eab78f3028b022010db5a81621057c3b6218acf9eefebf6ae8e716fe966991404e5afd359b65564[ALL] 0263d9dff80f9a3b6744c57527a2c4bc6539abb84a51a8985754bfb2b173815592"}, "vout": 0, "txid": "04da5a7f8001fd972c8fd9774c62735b2502959893c1fad0fe5d7e516c56f4a1"}, {"sequence": 4294967295, "scriptSig": {"hex": "4730440220438b4e033c6f41fe62f787d8c358a015c9a27b068046ae271891301efd80b9ec022055f2055e5614e4d51ec07f881808ac07412122271aa043c0dc3458fc4816c42b012103b386e61c8ad8ef1a2d74622e6aa0342d7194bc8899800e180ebc5155909de1a2", "asm": "30440220438b4e033c6f41fe62f787d8c358a015c9a27b068046ae271891301efd80b9ec022055f2055e5614e4d51ec07f881808ac07412122271aa043c0dc3458fc4816c42b[ALL] 03b386e61c8ad8ef1a2d74622e6aa0342d7194bc8899800e180ebc5155909de1a2"}, "vout": 0, "txid": "3e03a96faccd59f4de998c31d61af6cef2c6f880628c6c28d283f141e89044ca"}], "txid": "b3b2f875f8f2a3b240d198794ac81c56a9a039e55a53b0ea7c18cae8ea65d2b4", "blocktime": 1537871767, "version": 1, "confirmations": 11495, "time": 1537871767, "locktime": 0, "vsize": 338, "size": 338}