{"hash": "b3b501f32e919986614df1f3da83e4728b9b42106fe3b0007bf112048c2c0745", "blockhash": "00000000000000000004ffacab907a6b429b9a5745fa0b75af4234bf69dd7176", "vout": [{"scriptPubKey": {"reqSigs": 1, "hex": "a914c927026a8ca520d2b962fceda3746ecc1d9f516787", "addresses": ["3L2cUXQDVWiEPfN7nJRnS2GPbqifmx8yqL"], "asm": "OP_HASH160 c927026a8ca520d2b962fceda3746ecc1d9f5167 OP_EQUAL", "type": "scripthash"}, "value": 0.53731023, "n": 0}, {"scriptPubKey": {"reqSigs": 1, "hex": "76a9145c7d056b69f335c788d5055eff556fd75917add188ac", "addresses": ["19S2wGkePHsro2W5HH7QRdAPURxmVbsN26"], "asm": "OP_DUP OP_HASH160 5c7d056b69f335c788d5055eff556fd75917add1 OP_EQUALVERIFY OP_CHECKSIG", "type": "pubkeyhash"}, "value": 0.0353281, "n": 1}], "hex": "010000000115bca7169becd776360852bb4099deb4aa6ecf79ed197693e59184be320d1e3c00000000fdfd000047304402202421dcf24414293258202a9d95e613f5f8e12363665fee5f501830a6dd6d46be02206a3f3a6f36d8e2ac830a6722600012810760cd858e2a2aa32187ddcd2872f461014830450221009395d334bb41261e996657a2d29ab375966c084b576b604d28c4e3771a59eea502206b07809a49338bca05a6953fa0eb3268412884920787bf25bc278def2dcddb34014c6952210312ae275d6cffb21af89b6b24e69f1fc9d2de296e0a0314272725d312bad26f1e210341bb692fd7cf9bb56372b6dc32e893dd5dc71cd9c1bb9723f22b7b6d151acfea2103a4879818abef8eb6910a537b4a6d34b589f397db99a77a3cfe4fb725d8c33e0953aeffffffff02cfde33030000000017a914c927026a8ca520d2b962fceda3746ecc1d9f5167870ae83500000000001976a9145c7d056b69f335c788d5055eff556fd75917add188ac00000000", "vin": [{"sequence": 4294967295, "scriptSig": {"hex": "0047304402202421dcf24414293258202a9d95e613f5f8e12363665fee5f501830a6dd6d46be02206a3f3a6f36d8e2ac830a6722600012810760cd858e2a2aa32187ddcd2872f461014830450221009395d334bb41261e996657a2d29ab375966c084b576b604d28c4e3771a59eea502206b07809a49338bca05a6953fa0eb3268412884920787bf25bc278def2dcddb34014c6952210312ae275d6cffb21af89b6b24e69f1fc9d2de296e0a0314272725d312bad26f1e210341bb692fd7cf9bb56372b6dc32e893dd5dc71cd9c1bb9723f22b7b6d151acfea2103a4879818abef8eb6910a537b4a6d34b589f397db99a77a3cfe4fb725d8c33e0953ae", "asm": "0 304402202421dcf24414293258202a9d95e613f5f8e12363665fee5f501830a6dd6d46be02206a3f3a6f36d8e2ac830a6722600012810760cd858e2a2aa32187ddcd2872f461[ALL] 30450221009395d334bb41261e996657a2d29ab375966c084b576b604d28c4e3771a59eea502206b07809a49338bca05a6953fa0eb3268412884920787bf25bc278def2dcddb34[ALL] 52210312ae275d6cffb21af89b6b24e69f1fc9d2de296e0a0314272725d312bad26f1e210341bb692fd7cf9bb56372b6dc32e893dd5dc71cd9c1bb9723f22b7b6d151acfea2103a4879818abef8eb6910a537b4a6d34b589f397db99a77a3cfe4fb725d8c33e0953ae"}, "vout": 0, "txid": "3c1e0d32be8491e5937619ed79cf6eaab4de9940bb52083676d7ec9b16a7bc15"}], "txid": "b3b501f32e919986614df1f3da83e4728b9b42106fe3b0007bf112048c2c0745", "blocktime": 1537875543, "version": 1, "confirmations": 11464, "time": 1537875543, "locktime": 0, "vsize": 372, "size": 372}