{"hash": "e4d1c49581c253effda60e920fae601608119bf15d2973aad6163b95e81e3aa3", "blockhash": "0000000000000000000baef3f32e3676a92c3b2e5da21b426e4f302fc371ce76", "vout": [{"scriptPubKey": {"reqSigs": 1, "hex": "76a914a645b33c7f1567d77f9b2e425b9c6becdc32607c88ac", "addresses": ["1GAAfhHf3nsgEtcrXNM6xjfD9hg8cg8zTH"], "asm": "OP_DUP OP_HASH160 a645b33c7f1567d77f9b2e425b9c6becdc32607c OP_EQUALVERIFY OP_CHECKSIG", "type": "pubkeyhash"}, "value": 0.0028706, "n": 0}, {"scriptPubKey": {"reqSigs": 1, "hex": "a9140f6717a2d11d9d80f6d6458cacfdc1b041518cf187", "addresses": ["336TZQFirWdMCwWfAbYtwY6TjQoUEzDW6g"], "asm": "OP_HASH160 0f6717a2d11d9d80f6d6458cacfdc1b041518cf1 OP_EQUAL", "type": "scripthash"}, "value": 0.01065167, "n": 1}], "hex": "0200000000010291569c22928bcdcee92222a5e661c8ad5fc8703a62683f3f354c61fce71434aa00000000171600147dce373f37addd31e03a202e90b0d35c38a69b0ffeffffffdf06fd82b6cf84e177d1b6ad94465f8d4aaf5ad26d218e364a0827d3394275f5010000001716001461c7704e0f0c9bd257ae7e2836d6be22c0a102d3feffffff0254610400000000001976a914a645b33c7f1567d77f9b2e425b9c6becdc32607c88accf4010000000000017a9140f6717a2d11d9d80f6d6458cacfdc1b041518cf187024730440220458448e74210765f21149cfe817b0237cce58d13a4058d6629ace9da95c862c202205cd78dce4eea61c5db61a057767f564dc27a4f221c22ea76fa3ac1ad0cf877a20121031c22a69c1a42f6d5fbac6a50f1b5ca33702665a965c8698cf9a4d8e2178755030247304402203a7820250e8512e0399aae092f3bb9d082055556f5e42cb3f162c094a1f243130220370409f7532d71cb492df8d881bb3cb0e30debb0f210b36223abd8a156dde71b012103af95ddbfde43d68e152aef658790e25b11e9d97cd1243033baf3d93758a2f11117490800", "vin": [{"txinwitness": ["30440220458448e74210765f21149cfe817b0237cce58d13a4058d6629ace9da95c862c202205cd78dce4eea61c5db61a057767f564dc27a4f221c22ea76fa3ac1ad0cf877a201", "031c22a69c1a42f6d5fbac6a50f1b5ca33702665a965c8698cf9a4d8e217875503"], "sequence": 4294967294, "scriptSig": {"hex": "1600147dce373f37addd31e03a202e90b0d35c38a69b0f", "asm": "00147dce373f37addd31e03a202e90b0d35c38a69b0f"}, "vout": 0, "txid": "aa3414e7fc614c353f3f68623a70c85fadc861e6a52222e9cecd8b92229c5691"}, {"txinwitness": ["304402203a7820250e8512e0399aae092f3bb9d082055556f5e42cb3f162c094a1f243130220370409f7532d71cb492df8d881bb3cb0e30debb0f210b36223abd8a156dde71b01", "03af95ddbfde43d68e152aef658790e25b11e9d97cd1243033baf3d93758a2f111"], "sequence": 4294967294, "scriptSig": {"hex": "16001461c7704e0f0c9bd257ae7e2836d6be22c0a102d3", "asm": "001461c7704e0f0c9bd257ae7e2836d6be22c0a102d3"}, "vout": 1, "txid": "f5754239d327084a368e216dd25aaf4a8d5f4694adb6d177e184cfb682fd06df"}], "txid": "b3b76695297b5733d307e59de547ebb57220360a6b8b2dbe144dd3abbd91cd58", "blocktime": 1537876114, "version": 2, "confirmations": 11461, "time": 1537876114, "locktime": 542999, "vsize": 258, "size": 420}