{"hash": "b3b84cf23a308b5c548769bd25324a58970b96ff28850d41fa425423c3c56b22", "blockhash": "0000000000000000000e13cef7c366c0283d82e591d1acd082e914b08063cdf1", "vout": [{"scriptPubKey": {"reqSigs": 1, "hex": "a9141351df4715bf9f0327bef33d4b9e6939ad95bf5387", "addresses": ["33TAqmTAgszpkHBoYv8Hdahq8C6cuGpAoK"], "asm": "OP_HASH160 1351df4715bf9f0327bef33d4b9e6939ad95bf53 OP_EQUAL", "type": "scripthash"}, "value": 0.16201217, "n": 0}, {"scriptPubKey": {"reqSigs": 1, "hex": "a91406d98c6ffd97ac68d5ebcddbfb89e65c0068ea4087", "addresses": ["32KEbEbvJdHST775JySghhzMfL9EksWsqC"], "asm": "OP_HASH160 06d98c6ffd97ac68d5ebcddbfb89e65c0068ea40 OP_EQUAL", "type": "scripthash"}, "value": 0.01239852, "n": 1}], "hex": "0200000001265e7a3758296b4143c9a752f5d674412e5224dc3194130da4e5f6f7e7d2ab1e000000006a47304402202d6d8ce21fc0c036a16344c75457813474683a943c5fe4306b5ab3eab559099c022036df10152c6a344980b442fea4a14037782b46338ed3168dd4dbcccb76c304fa012103ca3bd9793b86e63b52237654f63f95cd7a8f7eb8567ca36ecdfde567332d37e9feffffff020136f7000000000017a9141351df4715bf9f0327bef33d4b9e6939ad95bf53872ceb12000000000017a91406d98c6ffd97ac68d5ebcddbfb89e65c0068ea40870f490800", "vin": [{"sequence": 4294967294, "scriptSig": {"hex": "47304402202d6d8ce21fc0c036a16344c75457813474683a943c5fe4306b5ab3eab559099c022036df10152c6a344980b442fea4a14037782b46338ed3168dd4dbcccb76c304fa012103ca3bd9793b86e63b52237654f63f95cd7a8f7eb8567ca36ecdfde567332d37e9", "asm": "304402202d6d8ce21fc0c036a16344c75457813474683a943c5fe4306b5ab3eab559099c022036df10152c6a344980b442fea4a14037782b46338ed3168dd4dbcccb76c304fa[ALL] 03ca3bd9793b86e63b52237654f63f95cd7a8f7eb8567ca36ecdfde567332d37e9"}, "vout": 0, "txid": "1eabd2e7f7f6e5a40d139431dc24522e4174d6f552a7c943416b2958377a5e26"}], "txid": "b3b84cf23a308b5c548769bd25324a58970b96ff28850d41fa425423c3c56b22", "blocktime": 1537871767, "version": 2, "confirmations": 11491, "time": 1537871767, "locktime": 542991, "vsize": 221, "size": 221}