{"hash": "b9adbe7930e115be87316a3d7751161f89b98fb1d89b174f4efafdc4bb8a0d83", "blockhash": "0000000000000000000e13cef7c366c0283d82e591d1acd082e914b08063cdf1", "vout": [{"scriptPubKey": {"reqSigs": 1, "hex": "a91469f374dc5bdae6fbdcacffe603ef2d593a4281bd87", "addresses": ["3BMEXLdUJLUhML2iZqgcRhHKAscr3SSiuX"], "asm": "OP_HASH160 69f374dc5bdae6fbdcacffe603ef2d593a4281bd OP_EQUAL", "type": "scripthash"}, "value": 0.068943, "n": 0}, {"scriptPubKey": {"reqSigs": 1, "hex": "a914dee0a1cc9f055700143e0f4ecee53180ab3530dc87", "addresses": ["3N1V2qWA5hpScEmS72pMooYRmXUiLmwPQQ"], "asm": "OP_HASH160 dee0a1cc9f055700143e0f4ecee53180ab3530dc OP_EQUAL", "type": "scripthash"}, "value": 0.47920239, "n": 1}], "hex": "0200000000010171f9d7954c29ccaef5cd8e61e0152b3cb4a0b22b453c8edc6431b952ac82c6280100000017160014cb5dbe423de4d42b6425c6921084c6197a5d2937ffffffff02dc3269000000000017a91469f374dc5bdae6fbdcacffe603ef2d593a4281bd876f34db020000000017a914dee0a1cc9f055700143e0f4ecee53180ab3530dc8702483045022100fe5d4f0f8e82078a009cd7f5502feb3e472f40fb87f5d6a62e3dfa93f5e7795d0220525bd37e7ebdbe3d53c696bcab1854be7783f5ea4199db31754154a3bcda548e012102acecad485eda786cbe0422823b7594aea6854abb5ec85e267f1c4b87f3f758f700000000", "vin": [{"txinwitness": ["3045022100fe5d4f0f8e82078a009cd7f5502feb3e472f40fb87f5d6a62e3dfa93f5e7795d0220525bd37e7ebdbe3d53c696bcab1854be7783f5ea4199db31754154a3bcda548e01", "02acecad485eda786cbe0422823b7594aea6854abb5ec85e267f1c4b87f3f758f7"], "sequence": 4294967295, "scriptSig": {"hex": "160014cb5dbe423de4d42b6425c6921084c6197a5d2937", "asm": "0014cb5dbe423de4d42b6425c6921084c6197a5d2937"}, "vout": 1, "txid": "28c682ac52b93164dc8e3c452bb2a0b43c2b15e0618ecdf5aecc294c95d7f971"}], "txid": "b3bc377f137a33b32d78ea874078aba3ab6aacfe38cfd2050e39d23d16350b4a", "blocktime": 1537871767, "version": 2, "confirmations": 11490, "time": 1537871767, "locktime": 0, "vsize": 166, "size": 248}