{"hash": "b3bfb470bbc26de1e7f7ad6292ff9b69422c53d8d57ee2cc32655da4689aab21", "blockhash": "0000000000000000001f76057863aec43deb6fa401d9628bb513d65a8098bfab", "vout": [{"scriptPubKey": {"reqSigs": 1, "hex": "76a914f5c450a9082915f090b1be915f323669c2cb046888ac", "addresses": ["1PQVjD93EHUFiNPj8VMjxYe8nxmVHYeW9v"], "asm": "OP_DUP OP_HASH160 f5c450a9082915f090b1be915f323669c2cb0468 OP_EQUALVERIFY OP_CHECKSIG", "type": "pubkeyhash"}, "value": 0.00636794, "n": 0}, {"scriptPubKey": {"type": "nulldata", "hex": "6a4c50000077d800010e0e7dff8cbfd771d8f827995b23cc0f42c2fc38c5e5bf9ae76da98a211a9b9a00f305af959bb1524a8c64273df45baa15970612b77f0da053e21d100759d4ba30d2c37bb011d97e02cf", "asm": "OP_RETURN 000077d800010e0e7dff8cbfd771d8f827995b23cc0f42c2fc38c5e5bf9ae76da98a211a9b9a00f305af959bb1524a8c64273df45baa15970612b77f0da053e21d100759d4ba30d2c37bb011d97e02cf"}, "value": 0.0, "n": 1}], "hex": "0100000001e96a00a111288b8aff1aa1363df257da798ef18b2dfa8e1947780028fceedd71000000006b483045022100c3dce3bbbed16aa2389ec1ff0c5e1629c9ebf4ab48d18df74147028f13cba90a02203fdcc475890fd3160dbd991d375c3cc3dab80b622edec0bc839d14d4e11269450121030e844fd998224a918ba6b47eeed471c035787e4be31696c577ab2defff81e57bffffffff027ab70900000000001976a914f5c450a9082915f090b1be915f323669c2cb046888ac0000000000000000536a4c50000077d800010e0e7dff8cbfd771d8f827995b23cc0f42c2fc38c5e5bf9ae76da98a211a9b9a00f305af959bb1524a8c64273df45baa15970612b77f0da053e21d100759d4ba30d2c37bb011d97e02cf00000000", "vin": [{"sequence": 4294967295, "scriptSig": {"hex": "483045022100c3dce3bbbed16aa2389ec1ff0c5e1629c9ebf4ab48d18df74147028f13cba90a02203fdcc475890fd3160dbd991d375c3cc3dab80b622edec0bc839d14d4e11269450121030e844fd998224a918ba6b47eeed471c035787e4be31696c577ab2defff81e57b", "asm": "3045022100c3dce3bbbed16aa2389ec1ff0c5e1629c9ebf4ab48d18df74147028f13cba90a02203fdcc475890fd3160dbd991d375c3cc3dab80b622edec0bc839d14d4e1126945[ALL] 030e844fd998224a918ba6b47eeed471c035787e4be31696c577ab2defff81e57b"}, "vout": 0, "txid": "71ddeefc28007847198efa2d8bf18e79da57f23d36a11aff8a8b2811a1006ae9"}], "txid": "b3bfb470bbc26de1e7f7ad6292ff9b69422c53d8d57ee2cc32655da4689aab21", "blocktime": 1537873891, "version": 1, "confirmations": 11478, "time": 1537873891, "locktime": 0, "vsize": 284, "size": 284}