{"hash": "a76169e92cbb4a6e766d4296c82bfcffe7701e22973a060e6d95bea94e769873", "blockhash": "0000000000000000001f76057863aec43deb6fa401d9628bb513d65a8098bfab", "vout": [{"scriptPubKey": {"reqSigs": 1, "hex": "a91436fe3f25afea06ae7053bcb8afeb6b84f4ab4bda87", "addresses": ["36hnzGfMpMu3ZvmGNrxLgJmfzT6WeUSSJR"], "asm": "OP_HASH160 36fe3f25afea06ae7053bcb8afeb6b84f4ab4bda OP_EQUAL", "type": "scripthash"}, "value": 0.1, "n": 0}, {"scriptPubKey": {"reqSigs": 1, "hex": "a9142d8428dff7995ec7604cb886d723805e2943566987", "addresses": ["35qgenpWJtAJYLPfmkrK76ByP87moDSA9C"], "asm": "OP_HASH160 2d8428dff7995ec7604cb886d723805e29435669 OP_EQUAL", "type": "scripthash"}, "value": 0.54642955, "n": 1}], "hex": "01000000000101c02a5a67127d27907017b69dd2779bbb010b28eb15f6725c9cd61ad937d94e270000000017160014b4a4dbb8dc17fa5c6c870a1e0afb253d9385eae7ffffff0002809698000000000017a91436fe3f25afea06ae7053bcb8afeb6b84f4ab4bda870bc941030000000017a9142d8428dff7995ec7604cb886d723805e29435669870247304402206e64e9bc024f4ea68cdd89c15cde2914f6909778a6a9f95a40a39a4a1cb0415002206a3c47f80baae3923aa5ae8a34bcb68a69c27a8fb293dfce170d849dc0ec36020121024e82dd720e39ebd826f6a328cc689d09d390bde41ebb8d5cc903d6c718865dab00000000", "vin": [{"txinwitness": ["304402206e64e9bc024f4ea68cdd89c15cde2914f6909778a6a9f95a40a39a4a1cb0415002206a3c47f80baae3923aa5ae8a34bcb68a69c27a8fb293dfce170d849dc0ec360201", "024e82dd720e39ebd826f6a328cc689d09d390bde41ebb8d5cc903d6c718865dab"], "sequence": 16777215, "scriptSig": {"hex": "160014b4a4dbb8dc17fa5c6c870a1e0afb253d9385eae7", "asm": "0014b4a4dbb8dc17fa5c6c870a1e0afb253d9385eae7"}, "vout": 0, "txid": "274ed937d91ad69c5c72f615eb280b01bb9b77d29db6177090277d12675a2ac0"}], "txid": "b3e57ceb43dc14b8815a815888cd3fd950a4afe8c6ad6e2b933e73c9973b6479", "blocktime": 1537873891, "version": 1, "confirmations": 11478, "time": 1537873891, "locktime": 0, "vsize": 166, "size": 247}