{"hash": "94dd1c57caa686a7d75d6222c196375fbc75a8dd4ea3bce413cb4467b60b1793", "blockhash": "00000000000000000024a2167bbff67b0be802c0b01cdd79e6331c2be6459f87", "vout": [{"scriptPubKey": {"reqSigs": 1, "hex": "76a9146bf5d825fdc826a564706de3e597daf6a5aaf14b88ac", "addresses": ["1Aqqp6BYo68MNUBoX7myFDEicK2Xk7yxRH"], "asm": "OP_DUP OP_HASH160 6bf5d825fdc826a564706de3e597daf6a5aaf14b OP_EQUALVERIFY OP_CHECKSIG", "type": "pubkeyhash"}, "value": 0.00314329, "n": 0}, {"scriptPubKey": {"reqSigs": 1, "hex": "a9147d7b17c27f02d761b54cba7c1d08f4ba4cf0b83b87", "addresses": ["3D8VrAHzGxcGJ6WKaHpSxpF5xe5NSr9C3M"], "asm": "OP_HASH160 7d7b17c27f02d761b54cba7c1d08f4ba4cf0b83b OP_EQUAL", "type": "scripthash"}, "value": 0.01019533, "n": 1}], "hex": "0200000000010196863bf3d52ee0a0ab144dff268cbb098c1ef4c6ced4e190c2b1e57b4a6a27ca00000000171600146c734ffecb36caaef893d407d9a7d623beeaaefdfeffffff02d9cb0400000000001976a9146bf5d825fdc826a564706de3e597daf6a5aaf14b88ac8d8e0f000000000017a9147d7b17c27f02d761b54cba7c1d08f4ba4cf0b83b8702483045022100c8e200f47a31f628720024e94e47681d9742206b9745559fc44cf7b66f4944ec0220798370982ac08ca4b1b9bdfda59b4b6c5899c39f274a3fff1b70a5cd7067e612012103061571582c27358e44e56c2249631dd912a1ccd11b2ad7ab2c13b566af24e4340d490800", "vin": [{"txinwitness": ["3045022100c8e200f47a31f628720024e94e47681d9742206b9745559fc44cf7b66f4944ec0220798370982ac08ca4b1b9bdfda59b4b6c5899c39f274a3fff1b70a5cd7067e61201", "03061571582c27358e44e56c2249631dd912a1ccd11b2ad7ab2c13b566af24e434"], "sequence": 4294967294, "scriptSig": {"hex": "1600146c734ffecb36caaef893d407d9a7d623beeaaefd", "asm": "00146c734ffecb36caaef893d407d9a7d623beeaaefd"}, "vout": 0, "txid": "ca276a4a7be5b1c290e1d4cec6f41e8c09bb8c26ff4d14aba0e02ed5f33b8696"}], "txid": "b3f69b7b85fa3f69fbcbcf96d6579e6945afa5b6aae3e2f36e48ca3b03020245", "blocktime": 1537870564, "version": 2, "confirmations": 11515, "time": 1537870564, "locktime": 542989, "vsize": 168, "size": 250}