{"hash": "d9353cd15d3e39eca86285562b1d88ba0c244bf7b11425bc2f2cc2009347e533", "blockhash": "0000000000000000001f76057863aec43deb6fa401d9628bb513d65a8098bfab", "vout": [{"scriptPubKey": {"reqSigs": 1, "hex": "a9141fe30d3afa104f7a801304737b5eb7c7965508c187", "addresses": ["34bcsKPaVM4hyhTJdnWSMF9eMfzbKGsewQ"], "asm": "OP_HASH160 1fe30d3afa104f7a801304737b5eb7c7965508c1 OP_EQUAL", "type": "scripthash"}, "value": 1.63870465, "n": 0}, {"scriptPubKey": {"reqSigs": 1, "hex": "a91469f376363050095f17bc4d43c5076997381a559c87", "addresses": ["3BMEXhtsqugRiA7CbXyfwA1Knmk7gCutso"], "asm": "OP_HASH160 69f376363050095f17bc4d43c5076997381a559c OP_EQUAL", "type": "scripthash"}, "value": 0.08797285, "n": 1}], "hex": "020000000001016472cd512df7fa626e19d0922feb37c21e6e13a3a148d054d9788d19cddef1b70100000017160014ab14a5b334ce66cb4619ccb620b3e68bd678c674feffffff020177c4090000000017a9141fe30d3afa104f7a801304737b5eb7c7965508c187653c86000000000017a91469f376363050095f17bc4d43c5076997381a559c87024730440220731207a281dbcdf8da26586bd71fd001d8d7fb6e654623e87cdcc800b2c4565a022038754f476bad98eba2a633184df72a1dadbaffa0e742b175f355193fc328b202012103221c1d6d180d6d7b6c81dddc122d6086262400742abfedf9249abcfac5ef5bec14490800", "vin": [{"txinwitness": ["30440220731207a281dbcdf8da26586bd71fd001d8d7fb6e654623e87cdcc800b2c4565a022038754f476bad98eba2a633184df72a1dadbaffa0e742b175f355193fc328b20201", "03221c1d6d180d6d7b6c81dddc122d6086262400742abfedf9249abcfac5ef5bec"], "sequence": 4294967294, "scriptSig": {"hex": "160014ab14a5b334ce66cb4619ccb620b3e68bd678c674", "asm": "0014ab14a5b334ce66cb4619ccb620b3e68bd678c674"}, "vout": 1, "txid": "b7f1decd198d78d954d048a1a3136e1ec237eb2f92d0196e62faf72d51cd7264"}], "txid": "b3fb26b20897b66a08d60c6c3236390438a2ca476c5ffe71907cf7a5681ef138", "blocktime": 1537873891, "version": 2, "confirmations": 11474, "time": 1537873891, "locktime": 542996, "vsize": 166, "size": 247}