{"hash": "618be0c840f90bb872946e969f508a990e814c4e04b19fb90c36dd286b11f7f9", "blockhash": "0000000000000000000e13cef7c366c0283d82e591d1acd082e914b08063cdf1", "vout": [{"scriptPubKey": {"reqSigs": 1, "hex": "76a91484034cb673027eda6254b8387340780628d2c17188ac", "addresses": ["1D329az6hY7KDv4ntvSL68edHHtyQ7d45m"], "asm": "OP_DUP OP_HASH160 84034cb673027eda6254b8387340780628d2c171 OP_EQUALVERIFY OP_CHECKSIG", "type": "pubkeyhash"}, "value": 0.0062, "n": 0}, {"scriptPubKey": {"reqSigs": 1, "hex": "a9140c54f418c67f6428670a594c0ae6ef9b6dc644fb87", "addresses": ["32pDoX2nzS1udBKLoPVsWNzuuZ9ucvsZot"], "asm": "OP_HASH160 0c54f418c67f6428670a594c0ae6ef9b6dc644fb OP_EQUAL", "type": "scripthash"}, "value": 0.66983336, "n": 1}], "hex": "0100000000010279e22f1c80b3975e289f649533427c78f14741f64523bcac14c4c14c2dfcb6e90100000023220020f5eb56df3204d9e5d5157043a58587753d4aa9fe2ac0f1823e6ebd2d64eaa69dffffffff27b953fab5f190fc8a5cd0cb32220ebb0c131abf38d7ec7822e1ca8344b25f8a01000000232200209e9da6891fa95d32e450594cd220706e7ae21de4b263650083984ffd27c02864ffffffff02e0750900000000001976a91484034cb673027eda6254b8387340780628d2c17188aca815fe030000000017a9140c54f418c67f6428670a594c0ae6ef9b6dc644fb870400483045022100bb1c31054ddaa68f1e6dc286ab348e1127aceec43e0216b3c20f2de137b43db0022009bdb478a2ad99f7381dfecc1f1f006037de5a63040718aaf8407c688325565301483045022100889700cc5e147b7b3463824cb0435c7ae2b96b4f7548962a7fca83fc39247c2602203ffedba2fea84dafbb9a948b82d000603b26dee39f88417e556c85be2874506d0147522103883bf9fea325b1ffd39f08046134e252ae9ea3114b67db25fc5fc13bdf88ba762103d9d2be3f5a20e2bda8a215b3765d46030eae17d676a304cec3e22e5fcb12136f52ae040047304402207f4501e924977d69001f597b4c635f3db638edb51eab17bd6395f5e48552d11c022066738bfddd72f866d3fe93dfd0139a7c53eba2804ec6c1ce614fbfa92af9d0200147304402202a1af200cdf31729fcfcacc48e527e0831047a507e3c989f0d27e9b28a5c50fe02201b953ba1624f23a6b61328f6cfff251f390ba0a2539881c62b6782b8ac6f0556014752210248e0a896ac9c991f101c01d620d5c4c1cbd328bc1fe3e9bc1c16537b8779371b2103d9d2be3f5a20e2bda8a215b3765d46030eae17d676a304cec3e22e5fcb12136f52ae00000000", "vin": [{"txinwitness": ["", "3045022100bb1c31054ddaa68f1e6dc286ab348e1127aceec43e0216b3c20f2de137b43db0022009bdb478a2ad99f7381dfecc1f1f006037de5a63040718aaf8407c688325565301", "3045022100889700cc5e147b7b3463824cb0435c7ae2b96b4f7548962a7fca83fc39247c2602203ffedba2fea84dafbb9a948b82d000603b26dee39f88417e556c85be2874506d01", "522103883bf9fea325b1ffd39f08046134e252ae9ea3114b67db25fc5fc13bdf88ba762103d9d2be3f5a20e2bda8a215b3765d46030eae17d676a304cec3e22e5fcb12136f52ae"], "sequence": 4294967295, "scriptSig": {"hex": "220020f5eb56df3204d9e5d5157043a58587753d4aa9fe2ac0f1823e6ebd2d64eaa69d", "asm": "0020f5eb56df3204d9e5d5157043a58587753d4aa9fe2ac0f1823e6ebd2d64eaa69d"}, "vout": 1, "txid": "e9b6fc2d4cc1c414acbc2345f64147f1787c423395649f285e97b3801c2fe279"}, {"txinwitness": ["", "304402207f4501e924977d69001f597b4c635f3db638edb51eab17bd6395f5e48552d11c022066738bfddd72f866d3fe93dfd0139a7c53eba2804ec6c1ce614fbfa92af9d02001", "304402202a1af200cdf31729fcfcacc48e527e0831047a507e3c989f0d27e9b28a5c50fe02201b953ba1624f23a6b61328f6cfff251f390ba0a2539881c62b6782b8ac6f055601", "52210248e0a896ac9c991f101c01d620d5c4c1cbd328bc1fe3e9bc1c16537b8779371b2103d9d2be3f5a20e2bda8a215b3765d46030eae17d676a304cec3e22e5fcb12136f52ae"], "sequence": 4294967295, "scriptSig": {"hex": "2200209e9da6891fa95d32e450594cd220706e7ae21de4b263650083984ffd27c02864", "asm": "00209e9da6891fa95d32e450594cd220706e7ae21de4b263650083984ffd27c02864"}, "vout": 1, "txid": "8a5fb24483cae12278ecd738bf1a130cbb0e2232cbd05c8afc90f1b5fa53b927"}], "txid": "b3fb3e67c67cae85bec2128602586544cd0787eb0cb2b9a82c3b93235f5e6c8c", "blocktime": 1537871767, "version": 1, "confirmations": 11495, "time": 1537871767, "locktime": 0, "vsize": 338, "size": 668}