{"hash": "b3ff4c62b27f75d057b074897f1086f810917ccfb9a984a07b511b4c59132cd9", "blockhash": "00000000000000000004ffacab907a6b429b9a5745fa0b75af4234bf69dd7176", "vout": [{"scriptPubKey": {"reqSigs": 1, "hex": "a9140899eaacf8f0f5f885286920034d8ba910fc6c4487", "addresses": ["32UViQ4DnQmEDTwGVjbzn2MazMTGQkoXpe"], "asm": "OP_HASH160 0899eaacf8f0f5f885286920034d8ba910fc6c44 OP_EQUAL", "type": "scripthash"}, "value": 0.003339, "n": 0}, {"scriptPubKey": {"reqSigs": 1, "hex": "76a914a903419e116ebb6ec3a50512e9683ded9bb6082888ac", "addresses": ["1GQf6fzbhkfdjYdXHB46hrbVSNhLJXT3MD"], "asm": "OP_DUP OP_HASH160 a903419e116ebb6ec3a50512e9683ded9bb60828 OP_EQUALVERIFY OP_CHECKSIG", "type": "pubkeyhash"}, "value": 0.0080325, "n": 1}], "hex": "0100000001cace422e605ee661956b65da2139aee661d5e3074b682bf49f50f5548d1155bc000000006b483045022100e804e72cf6ce326714446abf99ba689c554dabb2fadc4f0cece9ec03232233c2022028bc16e94dac49390f947c14f3b55d355a1b6d960a184d50dfd11c319ad445be012102414f1676fa711595683b2e00d1a407a344e629b31f9939f52a3154a9fa42fb1b00000000024c1805000000000017a9140899eaacf8f0f5f885286920034d8ba910fc6c4487b2410c00000000001976a914a903419e116ebb6ec3a50512e9683ded9bb6082888ac00000000", "vin": [{"sequence": 0, "scriptSig": {"hex": "483045022100e804e72cf6ce326714446abf99ba689c554dabb2fadc4f0cece9ec03232233c2022028bc16e94dac49390f947c14f3b55d355a1b6d960a184d50dfd11c319ad445be012102414f1676fa711595683b2e00d1a407a344e629b31f9939f52a3154a9fa42fb1b", "asm": "3045022100e804e72cf6ce326714446abf99ba689c554dabb2fadc4f0cece9ec03232233c2022028bc16e94dac49390f947c14f3b55d355a1b6d960a184d50dfd11c319ad445be[ALL] 02414f1676fa711595683b2e00d1a407a344e629b31f9939f52a3154a9fa42fb1b"}, "vout": 0, "txid": "bc55118d54f5509ff42b684b07e3d561e6ae3921da656b9561e65e602e42ceca"}], "txid": "b3ff4c62b27f75d057b074897f1086f810917ccfb9a984a07b511b4c59132cd9", "blocktime": 1537875543, "version": 1, "confirmations": 11464, "time": 1537875543, "locktime": 0, "vsize": 224, "size": 224}