{"hash": "b402710edcc4a03689e521e583a51f8ed3ea844b95918355cbb63f3ab76cd3e6", "blockhash": "0000000000000000001f76057863aec43deb6fa401d9628bb513d65a8098bfab", "vout": [{"scriptPubKey": {"reqSigs": 1, "hex": "76a914f6ca3889cf7d66f0318ba4340ba289bf106744ec88ac", "addresses": ["1PVuUk1GjqAARY64YG4orSi8FaTbRRydDJ"], "asm": "OP_DUP OP_HASH160 f6ca3889cf7d66f0318ba4340ba289bf106744ec OP_EQUALVERIFY OP_CHECKSIG", "type": "pubkeyhash"}, "value": 0.00929973, "n": 0}, {"scriptPubKey": {"reqSigs": 1, "hex": "76a91443f64a64ee30e2b3519b46af4db6b4507efff86788ac", "addresses": ["17CMKRaMe3o1NpyiXJ3kwUtLLCgBDnGJ1n"], "asm": "OP_DUP OP_HASH160 43f64a64ee30e2b3519b46af4db6b4507efff867 OP_EQUALVERIFY OP_CHECKSIG", "type": "pubkeyhash"}, "value": 0.007818, "n": 1}], "hex": "0100000001769d2462036eca844b856bd672074a3480cefd77d64b2a01b41cc428c82586dc000000006a47304402200091a832ce047cd97e00df263d6cbb231854a6fce7746d0a347c6b3b4f9ab3a80220052b9c3fd5c234ee1e9227c948e9e07f676d380b2e95eae208f96c6947373cb0012102dc8ff364b7d77147cdf7864a6fbdf2a2a96590a1a5167af5f6f8eb8ffd9bfc53ffffffff02b5300e00000000001976a914f6ca3889cf7d66f0318ba4340ba289bf106744ec88ace8ed0b00000000001976a91443f64a64ee30e2b3519b46af4db6b4507efff86788ac00000000", "vin": [{"sequence": 4294967295, "scriptSig": {"hex": "47304402200091a832ce047cd97e00df263d6cbb231854a6fce7746d0a347c6b3b4f9ab3a80220052b9c3fd5c234ee1e9227c948e9e07f676d380b2e95eae208f96c6947373cb0012102dc8ff364b7d77147cdf7864a6fbdf2a2a96590a1a5167af5f6f8eb8ffd9bfc53", "asm": "304402200091a832ce047cd97e00df263d6cbb231854a6fce7746d0a347c6b3b4f9ab3a80220052b9c3fd5c234ee1e9227c948e9e07f676d380b2e95eae208f96c6947373cb0[ALL] 02dc8ff364b7d77147cdf7864a6fbdf2a2a96590a1a5167af5f6f8eb8ffd9bfc53"}, "vout": 0, "txid": "dc8625c828c41cb4012a4bd677fdce80344a0772d66b854b84ca6e0362249d76"}], "txid": "b402710edcc4a03689e521e583a51f8ed3ea844b95918355cbb63f3ab76cd3e6", "blocktime": 1537873891, "version": 1, "confirmations": 11478, "time": 1537873891, "locktime": 0, "vsize": 225, "size": 225}