{"hash": "b407f486c4cc7b8e961a7a990cc2177f1dd3d055093f5a1ed74a2051f8bf38c0", "blockhash": "00000000000000000017f5eb5941039fbcee6240d03bc1f2f8e35350df66a1d8", "vout": [{"scriptPubKey": {"reqSigs": 1, "hex": "76a9147dbf8c1509f13c37ebcb70b4eb88d241f989c32588ac", "addresses": ["1CTtvurdHUquTYVFw2dLqQT7QrLdKTiPYS"], "asm": "OP_DUP OP_HASH160 7dbf8c1509f13c37ebcb70b4eb88d241f989c325 OP_EQUALVERIFY OP_CHECKSIG", "type": "pubkeyhash"}, "value": 0.00193528, "n": 0}, {"scriptPubKey": {"reqSigs": 1, "hex": "76a914c4f5c817f5e65f580ec45a11ef9b907d9a6d9ade88ac", "addresses": ["1JxRsogLoczn83d1MYcN31pCCm5HmBfk6J"], "asm": "OP_DUP OP_HASH160 c4f5c817f5e65f580ec45a11ef9b907d9a6d9ade OP_EQUALVERIFY OP_CHECKSIG", "type": "pubkeyhash"}, "value": 0.00468926, "n": 1}], "hex": "0100000001c4bb142f176eb550412d446ead6da06e5b9e2b3c5ef5929426b7008999373ca7010000006b483045022100a6f786307741b5114f2eae259bb5f0f158de264a5a22213b4f03615496c5e5e502201e92363e04bf752542f71a9f630699ccd1fba1d3bf0087e684bc76a2151696fc0121036d85d4ac010ed46593531fd258ae96faa26b2ae887801b0c445b0f5c0f6a4c50ffffffff02f8f30200000000001976a9147dbf8c1509f13c37ebcb70b4eb88d241f989c32588acbe270700000000001976a914c4f5c817f5e65f580ec45a11ef9b907d9a6d9ade88ac00000000", "vin": [{"sequence": 4294967295, "scriptSig": {"hex": "483045022100a6f786307741b5114f2eae259bb5f0f158de264a5a22213b4f03615496c5e5e502201e92363e04bf752542f71a9f630699ccd1fba1d3bf0087e684bc76a2151696fc0121036d85d4ac010ed46593531fd258ae96faa26b2ae887801b0c445b0f5c0f6a4c50", "asm": "3045022100a6f786307741b5114f2eae259bb5f0f158de264a5a22213b4f03615496c5e5e502201e92363e04bf752542f71a9f630699ccd1fba1d3bf0087e684bc76a2151696fc[ALL] 036d85d4ac010ed46593531fd258ae96faa26b2ae887801b0c445b0f5c0f6a4c50"}, "vout": 1, "txid": "a73c37998900b7269492f55e3c2b9e5b6ea06dad6e442d4150b56e172f14bbc4"}], "txid": "b407f486c4cc7b8e961a7a990cc2177f1dd3d055093f5a1ed74a2051f8bf38c0", "blocktime": 1537874412, "version": 1, "confirmations": 11468, "time": 1537874412, "locktime": 0, "vsize": 226, "size": 226}