{"hash": "b40f51a10c5e24e1283a55582010bec1bb4362bfc82d40229186df65f1149c0d", "blockhash": "0000000000000000000dcc0f55137456b1a82d3642486a52398922ac4d620174", "vout": [{"scriptPubKey": {"reqSigs": 1, "hex": "a914e5751b00342ebfe2397da3f4f2bd89875186a7ba87", "addresses": ["3NcGx6yGRh1BgyjDdBULkDdXCUVhzcLkaA"], "asm": "OP_HASH160 e5751b00342ebfe2397da3f4f2bd89875186a7ba OP_EQUAL", "type": "scripthash"}, "value": 0.00062117, "n": 0}, {"scriptPubKey": {"reqSigs": 1, "hex": "76a91404804e0773fa686554b392f4e01180294d07601f88ac", "addresses": ["1QoQYPb5JiKyeK2jj47Rv9YTRGn6FVFCX"], "asm": "OP_DUP OP_HASH160 04804e0773fa686554b392f4e01180294d07601f OP_EQUALVERIFY OP_CHECKSIG", "type": "pubkeyhash"}, "value": 0.016751, "n": 1}], "hex": "0100000001eec8ba50d181bc15e84199837e4a712bc2ec0db66fd5243df38086c8c741ae34010000006b483045022100c0010434b51ed620044cac1f639dab5048a70b2d28a814fb3d831827f619786002200431c99e5b79572af96728ea56412ee7ea508a9e0cacba2f0a49881161568cf0012102355ec030075ff36cd91b814894ce05a2ca712f97366a0713ffb58ca01059bb88ffffffff02a5f200000000000017a914e5751b00342ebfe2397da3f4f2bd89875186a7ba875c8f1900000000001976a91404804e0773fa686554b392f4e01180294d07601f88ac00000000", "vin": [{"sequence": 4294967295, "scriptSig": {"hex": "483045022100c0010434b51ed620044cac1f639dab5048a70b2d28a814fb3d831827f619786002200431c99e5b79572af96728ea56412ee7ea508a9e0cacba2f0a49881161568cf0012102355ec030075ff36cd91b814894ce05a2ca712f97366a0713ffb58ca01059bb88", "asm": "3045022100c0010434b51ed620044cac1f639dab5048a70b2d28a814fb3d831827f619786002200431c99e5b79572af96728ea56412ee7ea508a9e0cacba2f0a49881161568cf0[ALL] 02355ec030075ff36cd91b814894ce05a2ca712f97366a0713ffb58ca01059bb88"}, "vout": 1, "txid": "34ae41c7c88680f33d24d56fb60decc22b714a7e839941e815bc81d150bac8ee"}], "txid": "b40f51a10c5e24e1283a55582010bec1bb4362bfc82d40229186df65f1149c0d", "blocktime": 1537870268, "version": 1, "confirmations": 11516, "time": 1537870268, "locktime": 0, "vsize": 224, "size": 224}