{"hash": "b414bdc9e443a0c1b0227400c779b041e7a7fb4029a667a02ca9f0ad3f708ab7", "blockhash": "00000000000000000017f5eb5941039fbcee6240d03bc1f2f8e35350df66a1d8", "vout": [{"scriptPubKey": {"reqSigs": 1, "hex": "76a91489cadf329c1669dd5def2a308976523a71275f0c88ac", "addresses": ["1DZac4n77MTzrHQeyw726isGJ79g2PDaRm"], "asm": "OP_DUP OP_HASH160 89cadf329c1669dd5def2a308976523a71275f0c OP_EQUALVERIFY OP_CHECKSIG", "type": "pubkeyhash"}, "value": 0.693, "n": 0}, {"scriptPubKey": {"reqSigs": 1, "hex": "76a914021c410870d298f65f32af2525f1676d1cc1c90b88ac", "addresses": ["1CACWVN7qpGZTUxmoSvQGgHEEXvvukWAg"], "asm": "OP_DUP OP_HASH160 021c410870d298f65f32af2525f1676d1cc1c90b OP_EQUALVERIFY OP_CHECKSIG", "type": "pubkeyhash"}, "value": 4.21806, "n": 1}], "hex": "010000000134febe2c68afc2c19bf237a65fca85f1950fb7d7515d777636cbd40333e5d499010000006b483045022100c34a9931bfaf1ec3016660438168c903fbcca7d4fc3a7f98cd0eed78d02caeab022039c6b79a675aee6895ca95bfdd499426836efe83135490063a58e4fc9d7399ae012102d741b16878f93612aef9493ffedbef09bd938db25dda1ed96692aacb6bc95840ffffffff02206f2104000000001976a91489cadf329c1669dd5def2a308976523a71275f0c88acb03f2419000000001976a914021c410870d298f65f32af2525f1676d1cc1c90b88ac00000000", "vin": [{"sequence": 4294967295, "scriptSig": {"hex": "483045022100c34a9931bfaf1ec3016660438168c903fbcca7d4fc3a7f98cd0eed78d02caeab022039c6b79a675aee6895ca95bfdd499426836efe83135490063a58e4fc9d7399ae012102d741b16878f93612aef9493ffedbef09bd938db25dda1ed96692aacb6bc95840", "asm": "3045022100c34a9931bfaf1ec3016660438168c903fbcca7d4fc3a7f98cd0eed78d02caeab022039c6b79a675aee6895ca95bfdd499426836efe83135490063a58e4fc9d7399ae[ALL] 02d741b16878f93612aef9493ffedbef09bd938db25dda1ed96692aacb6bc95840"}, "vout": 1, "txid": "99d4e53303d4cb3676775d51d7b70f95f185ca5fa637f29bc1c2af682cbefe34"}], "txid": "b414bdc9e443a0c1b0227400c779b041e7a7fb4029a667a02ca9f0ad3f708ab7", "blocktime": 1537874412, "version": 1, "confirmations": 11467, "time": 1537874412, "locktime": 0, "vsize": 226, "size": 226}