{"hash": "b75ee75f3836f5030ea071b97907338687c90c091036ee368469025c3ebe09a7", "blockhash": "0000000000000000000dcc0f55137456b1a82d3642486a52398922ac4d620174", "vout": [{"scriptPubKey": {"reqSigs": 1, "hex": "a914d97158c1457a762caeadf2ad8d0959e83328d1ab87", "addresses": ["3MWkLdwPSiLyAui6WzKb3nwsTDDniHuYi9"], "asm": "OP_HASH160 d97158c1457a762caeadf2ad8d0959e83328d1ab OP_EQUAL", "type": "scripthash"}, "value": 0.0046452, "n": 0}, {"scriptPubKey": {"reqSigs": 1, "hex": "a914627aa52932456d89054bd84f86246af3b71b93a887", "addresses": ["3Afj4stdiLG9EktGrMbm252ySonnhYaz8v"], "asm": "OP_HASH160 627aa52932456d89054bd84f86246af3b71b93a8 OP_EQUAL", "type": "scripthash"}, "value": 0.52678187, "n": 1}], "hex": "01000000000101dc01cd9829d5903e381abec4ebf757ea47ef55c0a3a06061b4682c769c1f21ec01000000232200205fdd641234b13964b223bd85ad2a4a667ca2099df3d42a1d3b45706a8d81abf0ffffffff02881607000000000017a914d97158c1457a762caeadf2ad8d0959e83328d1ab872bce23030000000017a914627aa52932456d89054bd84f86246af3b71b93a8870400483045022100845b91d6baef98dcb4107fc103a1008f53f03c56e853e51fdcc613ca6e496aae02201b5a93922097a18f7da03e613bc9eaa9166a557402c749ad97fbafba993b08bf01483045022100fe3a795f0f21a91ce3c83a6472af1a41442fb2e319eb4956bdaa33f762895483022002230ba7c7fc7a59d52c511686c642b9d3fafcb0d16f168494a0015ba4d4a4100147522103dcde3832fa56def7b4e783faad1b8af85c3cdd74a5ff4f3c7c216b1075c18da12103c70ae8ded79be1afda73b9ce5ea14a3878908ee160d66a9a717e792bb6db276952ae00000000", "vin": [{"txinwitness": ["", "3045022100845b91d6baef98dcb4107fc103a1008f53f03c56e853e51fdcc613ca6e496aae02201b5a93922097a18f7da03e613bc9eaa9166a557402c749ad97fbafba993b08bf01", "3045022100fe3a795f0f21a91ce3c83a6472af1a41442fb2e319eb4956bdaa33f762895483022002230ba7c7fc7a59d52c511686c642b9d3fafcb0d16f168494a0015ba4d4a41001", "522103dcde3832fa56def7b4e783faad1b8af85c3cdd74a5ff4f3c7c216b1075c18da12103c70ae8ded79be1afda73b9ce5ea14a3878908ee160d66a9a717e792bb6db276952ae"], "sequence": 4294967295, "scriptSig": {"hex": "2200205fdd641234b13964b223bd85ad2a4a667ca2099df3d42a1d3b45706a8d81abf0", "asm": "00205fdd641234b13964b223bd85ad2a4a667ca2099df3d42a1d3b45706a8d81abf0"}, "vout": 1, "txid": "ec211f9c762c68b46160a0a3c055ef47ea57f7ebc4be1a383e90d52998cd01dc"}], "txid": "b415f83443734fff7412a42d285260e0b41df9a3d146913013077ef7fd66acaa", "blocktime": 1537870268, "version": 1, "confirmations": 11518, "time": 1537870268, "locktime": 0, "vsize": 206, "size": 372}