{"hash": "b41da477b14c8fc7b96ce313c7c66eada6ea604b9ba138cf29dc125a99a7e944", "blockhash": "0000000000000000000e13cef7c366c0283d82e591d1acd082e914b08063cdf1", "vout": [{"scriptPubKey": {"reqSigs": 1, "hex": "76a914eaaca83f4c7fba616e1f6750c1bf88c36c960c1288ac", "addresses": ["1NPqxKgAiqrjzTrceNbWQyfu22upQwjd1m"], "asm": "OP_DUP OP_HASH160 eaaca83f4c7fba616e1f6750c1bf88c36c960c12 OP_EQUALVERIFY OP_CHECKSIG", "type": "pubkeyhash"}, "value": 0.12087528, "n": 0}, {"scriptPubKey": {"reqSigs": 1, "hex": "76a9141cbe801b4fbb22a934d85f846fe668192a85a79288ac", "addresses": ["13cz8aC4RusiwggCAJntpLjhtC9Q8h9oNd"], "asm": "OP_DUP OP_HASH160 1cbe801b4fbb22a934d85f846fe668192a85a792 OP_EQUALVERIFY OP_CHECKSIG", "type": "pubkeyhash"}, "value": 0.07912911, "n": 1}], "hex": "0200000002b7ad33cc3ba552348136d3154dd19d51a8c7bd3390da380e3cafd1fa797b7385890300006b4830450221009797a37af3d4adb45593fee9f2783a6aa7bfa97d85a2b00e49bb736c3195ca1a022013a51d1b6ca7b267a11eda3454f7247ad459b95abf752eb4d26b3416c4eeb7790121029ab6eae8790688e290d519e1d5a956d7550ed2562a418ba10892672bbe31d90dffffffffebafb2da1b6a63ab275d365f620b36fa1c2d72bdeff76f09f2cc2e8569b73d87010000006b483045022100b80e97ce38e0ca5252983d6c7780d7613e1274a7a867abecd550ec5f7327e7ce02205843c10d2b9d5c8aa64148add5c67d6f600d6a56f8bafe0ab9dc6bb829c62928012103ee29d2838f76b1bed5427f211254cc82c42c3ae1280c68e2fcd6c229765be6f6ffffffff02e870b800000000001976a914eaaca83f4c7fba616e1f6750c1bf88c36c960c1288accfbd7800000000001976a9141cbe801b4fbb22a934d85f846fe668192a85a79288ac00000000", "vin": [{"sequence": 4294967295, "scriptSig": {"hex": "4830450221009797a37af3d4adb45593fee9f2783a6aa7bfa97d85a2b00e49bb736c3195ca1a022013a51d1b6ca7b267a11eda3454f7247ad459b95abf752eb4d26b3416c4eeb7790121029ab6eae8790688e290d519e1d5a956d7550ed2562a418ba10892672bbe31d90d", "asm": "30450221009797a37af3d4adb45593fee9f2783a6aa7bfa97d85a2b00e49bb736c3195ca1a022013a51d1b6ca7b267a11eda3454f7247ad459b95abf752eb4d26b3416c4eeb779[ALL] 029ab6eae8790688e290d519e1d5a956d7550ed2562a418ba10892672bbe31d90d"}, "vout": 905, "txid": "85737b79fad1af3c0e38da9033bdc7a8519dd14d15d336813452a53bcc33adb7"}, {"sequence": 4294967295, "scriptSig": {"hex": "483045022100b80e97ce38e0ca5252983d6c7780d7613e1274a7a867abecd550ec5f7327e7ce02205843c10d2b9d5c8aa64148add5c67d6f600d6a56f8bafe0ab9dc6bb829c62928012103ee29d2838f76b1bed5427f211254cc82c42c3ae1280c68e2fcd6c229765be6f6", "asm": "3045022100b80e97ce38e0ca5252983d6c7780d7613e1274a7a867abecd550ec5f7327e7ce02205843c10d2b9d5c8aa64148add5c67d6f600d6a56f8bafe0ab9dc6bb829c62928[ALL] 03ee29d2838f76b1bed5427f211254cc82c42c3ae1280c68e2fcd6c229765be6f6"}, "vout": 1, "txid": "873db769852eccf2096ff7efbd722d1cfa360b625f365d27ab636a1bdab2afeb"}], "txid": "b41da477b14c8fc7b96ce313c7c66eada6ea604b9ba138cf29dc125a99a7e944", "blocktime": 1537871767, "version": 2, "confirmations": 11491, "time": 1537871767, "locktime": 0, "vsize": 374, "size": 374}