{"hash": "b41fb3bbb69768c9b27b2f57cc97d0d191687dbc3cc3c9403b8ef51a603c5540", "blockhash": "0000000000000000000baef3f32e3676a92c3b2e5da21b426e4f302fc371ce76", "vout": [{"scriptPubKey": {"reqSigs": 1, "hex": "a914eb947cf7730ce37d49eba2e9352718296d22988687", "addresses": ["3PAebm7uWYtTWhwXsXnTA4A8BaCn7aX9HY"], "asm": "OP_HASH160 eb947cf7730ce37d49eba2e9352718296d229886 OP_EQUAL", "type": "scripthash"}, "value": 0.11915079, "n": 0}, {"scriptPubKey": {"reqSigs": 1, "hex": "76a9144763c6c6aefd2b499976819a115045631681572388ac", "addresses": ["17WUWDDNZSBradRLuW3PnxQBs632LCXW1n"], "asm": "OP_DUP OP_HASH160 4763c6c6aefd2b499976819a1150456316815723 OP_EQUALVERIFY OP_CHECKSIG", "type": "pubkeyhash"}, "value": 0.37698618, "n": 1}], "hex": "0100000002395a25d1dad433d2a6163b4cc8aa29f9bcef87a1f84382cde03b1d9d3e41e216010000006b483045022100b709394e2e592c3ce2235de8ea6a6153daee02f074cc89210c1df437227d34290220772a99891769f07ad5bdb25c0328510888530065a89c44e7786ad590bae47cb9012103c8d9b3d94eee67b6b75c3ad7dbc99752849a1cba9c9fe5f9149371c33bcb032bffffffffd3b7f5e3cc907471118236e140915f935597962c2479251e52f46e0d15244bab010000006a473044022015cbe169a4d4e57c102dabaae61d5a6f5afdf836ce2daa74970a8cc2b9f3d57f022045b3d30102f076b6b7751135c4eaeada97dce8cb4808ee7ab2a7378e5a25835e012102284956d3d3937bbd7ff250b9e7683ab1fb45fb121f8bf0c9786f486973b49b82ffffffff0247cfb5000000000017a914eb947cf7730ce37d49eba2e9352718296d229886873a3c3f02000000001976a9144763c6c6aefd2b499976819a115045631681572388ac00000000", "vin": [{"sequence": 4294967295, "scriptSig": {"hex": "483045022100b709394e2e592c3ce2235de8ea6a6153daee02f074cc89210c1df437227d34290220772a99891769f07ad5bdb25c0328510888530065a89c44e7786ad590bae47cb9012103c8d9b3d94eee67b6b75c3ad7dbc99752849a1cba9c9fe5f9149371c33bcb032b", "asm": "3045022100b709394e2e592c3ce2235de8ea6a6153daee02f074cc89210c1df437227d34290220772a99891769f07ad5bdb25c0328510888530065a89c44e7786ad590bae47cb9[ALL] 03c8d9b3d94eee67b6b75c3ad7dbc99752849a1cba9c9fe5f9149371c33bcb032b"}, "vout": 1, "txid": "16e2413e9d1d3be0cd8243f8a187efbcf929aac84c3b16a6d233d4dad1255a39"}, {"sequence": 4294967295, "scriptSig": {"hex": "473044022015cbe169a4d4e57c102dabaae61d5a6f5afdf836ce2daa74970a8cc2b9f3d57f022045b3d30102f076b6b7751135c4eaeada97dce8cb4808ee7ab2a7378e5a25835e012102284956d3d3937bbd7ff250b9e7683ab1fb45fb121f8bf0c9786f486973b49b82", "asm": "3044022015cbe169a4d4e57c102dabaae61d5a6f5afdf836ce2daa74970a8cc2b9f3d57f022045b3d30102f076b6b7751135c4eaeada97dce8cb4808ee7ab2a7378e5a25835e[ALL] 02284956d3d3937bbd7ff250b9e7683ab1fb45fb121f8bf0c9786f486973b49b82"}, "vout": 1, "txid": "ab4b24150d6ef4521e2579242c969755935f9140e1368211717490cce3f5b7d3"}], "txid": "b41fb3bbb69768c9b27b2f57cc97d0d191687dbc3cc3c9403b8ef51a603c5540", "blocktime": 1537876114, "version": 1, "confirmations": 11460, "time": 1537876114, "locktime": 0, "vsize": 371, "size": 371}