{"hash": "b4210ceb2713ba3410e4131b5743140e933d3958f61dae5dd5481365ab52864b", "blockhash": "0000000000000000000baef3f32e3676a92c3b2e5da21b426e4f302fc371ce76", "vout": [{"scriptPubKey": {"reqSigs": 1, "hex": "a9147f0e916c3c5192b1740356453869babd0653549f87", "addresses": ["3DGqC7V6kNHHtz5FzyMNjuvvkbjEj75YQg"], "asm": "OP_HASH160 7f0e916c3c5192b1740356453869babd0653549f OP_EQUAL", "type": "scripthash"}, "value": 100.0, "n": 0}, {"scriptPubKey": {"reqSigs": 1, "hex": "76a914787d72d5717adad2508220b17806a61f794579ad88ac", "addresses": ["1Bz6NLfbQjjP6kSXtkBo1WZ5aW32zBonEU"], "asm": "OP_DUP OP_HASH160 787d72d5717adad2508220b17806a61f794579ad OP_EQUALVERIFY OP_CHECKSIG", "type": "pubkeyhash"}, "value": 8.9999, "n": 1}], "hex": "01000000065b74d8e1e22b89b7dce1a44c95b27cad5c799908b6b04f2daf8ba3376ab2be6a000000008a47304402200b3b44396fa0bbe0a52ad23ce9366656cd8b0b2b3f22f6631892cb2a362c15a102204cc262829687e20ba47ab0716544ea7201b9059f5a0b08737be8f3c6e7b9463a014104aa3e54aab369973e9e36945fadd1e677f2c3198973c2691cf8f2f694b963cae44b4feee6cee0a058e8d9145656793d6d224d292b33332f01bc0fb64a29cf1f82ffffffffa48efbcfddd040848a5d944641a2d1307436fafd096e62c81e8f60b1fc38cda1010000006a4730440220104a0f056e13d469bd4c7bb560383aee4491a3335fbe61ec5bcf5e6dbb41b58202202cd141a283e3bd6457308b3b1fe12e264eabe16767f1b060216490f49c85e2700121028102b50350b7d8b866bc4a9ccba52a23dc377434b63d0eb0abd6f0c8e2bec261ffffffffda2ae1c873e395340306d82612525239da39b45ade016c7d72986473b03000df010000006a47304402200e33d38399df4f5cc30eafb793f15c4e604233087aa7d3e86c1aa2bbe902c18f0220264924d37d59055a20b130131009b60d0877ddbfdd909bc3742fca984b15e990012103f87d1e945a8ef35f06fc756b90bf6587ebe1d05baf5e725d6327d99e154a7624ffffffff64ac1d657878c4c96bab67f58d7b5c4a028dfc43bd8985acf573b708b4444500000000008a47304402204459b81f5fc380aaf301bde1baff20c3dbb31a2d23074fc410d895c9c1164af602200f94dc1a6404a0f5983d4814e7ebe9dbb05505ebb36e7b36c2bdb856745b1fb1014104cc6a20de07436cfdbc84f9c47a769f217a9fc015a4a2004da273badc3c03716d5f8b034bab98a65e7b3bc18ec6ae11a6c9102168330eaf8b958ce991dd3df25effffffffdd372499b53e877d669e28db39f05cc97380f4a3ed05397b848232b3d7624897010000006a47304402202b6858cc25f03784423622a135f26a4cfd878e1388492229094492f54c66f7f6022022d412b478986be2531f48d6b66d82be00866e3ae39b43dd69837990e090f9cc0121023e73cd7e597a91efdc68e2891919d1bf9ad482faa92e7e51ffb9e673bf3b8832ffffffffdd372499b53e877d669e28db39f05cc97380f4a3ed05397b848232b3d7624897020000006b483045022100cb5b83b75b375f0be1c2f3b641b6dbe3d5868ec52d523c0b8e5d3ef9bdca86460220728318c5573bda001d29c117804f3d8341b014a5347ed2c1554692d29eb1ec15012103553d49b09061b5f1f756ec258180fc1478a93d4e06ed38d3e90aab674049e974ffffffff0200e40b540200000017a9147f0e916c3c5192b1740356453869babd0653549f87f0c1a435000000001976a914787d72d5717adad2508220b17806a61f794579ad88ac00000000", "vin": [{"sequence": 4294967295, "scriptSig": {"hex": "47304402200b3b44396fa0bbe0a52ad23ce9366656cd8b0b2b3f22f6631892cb2a362c15a102204cc262829687e20ba47ab0716544ea7201b9059f5a0b08737be8f3c6e7b9463a014104aa3e54aab369973e9e36945fadd1e677f2c3198973c2691cf8f2f694b963cae44b4feee6cee0a058e8d9145656793d6d224d292b33332f01bc0fb64a29cf1f82", "asm": "304402200b3b44396fa0bbe0a52ad23ce9366656cd8b0b2b3f22f6631892cb2a362c15a102204cc262829687e20ba47ab0716544ea7201b9059f5a0b08737be8f3c6e7b9463a[ALL] 04aa3e54aab369973e9e36945fadd1e677f2c3198973c2691cf8f2f694b963cae44b4feee6cee0a058e8d9145656793d6d224d292b33332f01bc0fb64a29cf1f82"}, "vout": 0, "txid": "6abeb26a37a38baf2d4fb0b60899795cad7cb2954ca4e1dcb7892be2e1d8745b"}, {"sequence": 4294967295, "scriptSig": {"hex": "4730440220104a0f056e13d469bd4c7bb560383aee4491a3335fbe61ec5bcf5e6dbb41b58202202cd141a283e3bd6457308b3b1fe12e264eabe16767f1b060216490f49c85e2700121028102b50350b7d8b866bc4a9ccba52a23dc377434b63d0eb0abd6f0c8e2bec261", "asm": "30440220104a0f056e13d469bd4c7bb560383aee4491a3335fbe61ec5bcf5e6dbb41b58202202cd141a283e3bd6457308b3b1fe12e264eabe16767f1b060216490f49c85e270[ALL] 028102b50350b7d8b866bc4a9ccba52a23dc377434b63d0eb0abd6f0c8e2bec261"}, "vout": 1, "txid": "a1cd38fcb1608f1ec8626e09fdfa367430d1a24146945d8a8440d0ddcffb8ea4"}, {"sequence": 4294967295, "scriptSig": {"hex": "47304402200e33d38399df4f5cc30eafb793f15c4e604233087aa7d3e86c1aa2bbe902c18f0220264924d37d59055a20b130131009b60d0877ddbfdd909bc3742fca984b15e990012103f87d1e945a8ef35f06fc756b90bf6587ebe1d05baf5e725d6327d99e154a7624", "asm": "304402200e33d38399df4f5cc30eafb793f15c4e604233087aa7d3e86c1aa2bbe902c18f0220264924d37d59055a20b130131009b60d0877ddbfdd909bc3742fca984b15e990[ALL] 03f87d1e945a8ef35f06fc756b90bf6587ebe1d05baf5e725d6327d99e154a7624"}, "vout": 1, "txid": "df0030b0736498727d6c01de5ab439da3952521226d806033495e373c8e12ada"}, {"sequence": 4294967295, "scriptSig": {"hex": "47304402204459b81f5fc380aaf301bde1baff20c3dbb31a2d23074fc410d895c9c1164af602200f94dc1a6404a0f5983d4814e7ebe9dbb05505ebb36e7b36c2bdb856745b1fb1014104cc6a20de07436cfdbc84f9c47a769f217a9fc015a4a2004da273badc3c03716d5f8b034bab98a65e7b3bc18ec6ae11a6c9102168330eaf8b958ce991dd3df25e", "asm": "304402204459b81f5fc380aaf301bde1baff20c3dbb31a2d23074fc410d895c9c1164af602200f94dc1a6404a0f5983d4814e7ebe9dbb05505ebb36e7b36c2bdb856745b1fb1[ALL] 04cc6a20de07436cfdbc84f9c47a769f217a9fc015a4a2004da273badc3c03716d5f8b034bab98a65e7b3bc18ec6ae11a6c9102168330eaf8b958ce991dd3df25e"}, "vout": 0, "txid": "004544b408b773f5ac8589bd43fc8d024a5c7b8df567ab6bc9c47878651dac64"}, {"sequence": 4294967295, "scriptSig": {"hex": "47304402202b6858cc25f03784423622a135f26a4cfd878e1388492229094492f54c66f7f6022022d412b478986be2531f48d6b66d82be00866e3ae39b43dd69837990e090f9cc0121023e73cd7e597a91efdc68e2891919d1bf9ad482faa92e7e51ffb9e673bf3b8832", "asm": "304402202b6858cc25f03784423622a135f26a4cfd878e1388492229094492f54c66f7f6022022d412b478986be2531f48d6b66d82be00866e3ae39b43dd69837990e090f9cc[ALL] 023e73cd7e597a91efdc68e2891919d1bf9ad482faa92e7e51ffb9e673bf3b8832"}, "vout": 1, "txid": "974862d7b33282847b3905eda3f48073c95cf039db289e667d873eb5992437dd"}, {"sequence": 4294967295, "scriptSig": {"hex": "483045022100cb5b83b75b375f0be1c2f3b641b6dbe3d5868ec52d523c0b8e5d3ef9bdca86460220728318c5573bda001d29c117804f3d8341b014a5347ed2c1554692d29eb1ec15012103553d49b09061b5f1f756ec258180fc1478a93d4e06ed38d3e90aab674049e974", "asm": "3045022100cb5b83b75b375f0be1c2f3b641b6dbe3d5868ec52d523c0b8e5d3ef9bdca86460220728318c5573bda001d29c117804f3d8341b014a5347ed2c1554692d29eb1ec15[ALL] 03553d49b09061b5f1f756ec258180fc1478a93d4e06ed38d3e90aab674049e974"}, "vout": 2, "txid": "974862d7b33282847b3905eda3f48073c95cf039db289e667d873eb5992437dd"}], "txid": "b4210ceb2713ba3410e4131b5743140e933d3958f61dae5dd5481365ab52864b", "blocktime": 1537876114, "version": 1, "confirmations": 11460, "time": 1537876114, "locktime": 0, "vsize": 1023, "size": 1023}