{"hash": "f42686452c0505c471d896dce7151dd5524c5ed4df229a9ff1a053aa64c3d4ff", "blockhash": "000000000000000000022b45ed06c6f4ccd3cf7fb5ba4856ebd2e58215665228", "vout": [{"scriptPubKey": {"reqSigs": 1, "hex": "a9142786e0cac973c7a7b975b78a1439a0c769604d2087", "addresses": ["35J1rX5bZtZVpfovSkRT9bsRoWQNdsdvkR"], "asm": "OP_HASH160 2786e0cac973c7a7b975b78a1439a0c769604d20 OP_EQUAL", "type": "scripthash"}, "value": 0.0024586, "n": 0}, {"scriptPubKey": {"reqSigs": 1, "hex": "a9141a201e280d27be7e01d4e1d6a3390e5f90ec736787", "addresses": ["3459y7dWDKLpzjhcNp4zqggiTd5K6ca9pQ"], "asm": "OP_HASH160 1a201e280d27be7e01d4e1d6a3390e5f90ec7367 OP_EQUAL", "type": "scripthash"}, "value": 0.0100998, "n": 1}], "hex": "020000000001026c388dd61853ce629578c03388aaaf991886cfe63a7f399c50638f3e37e695a40100000017160014ce5cc5719d7b260013b04ae313f46d3609ab7c1bfeffffffa68e8df02a020e34127c1c803d26b2a8ac57632cf0fe0c185925ca2d541af57900000000171600141066d99a1316633cc388295f6e1d8401c66678c4feffffff0264c003000000000017a9142786e0cac973c7a7b975b78a1439a0c769604d20873c690f000000000017a9141a201e280d27be7e01d4e1d6a3390e5f90ec73678702473044022052f8fff3030712cf5ba95e52fd770016edc2fb0380a208642484117c32652d62022052e401ba76f10ef221d401882dc7f75be0ffbf2d63e55458855ef952aba3e59e012102bc8a460fc77afde95b125e9117ea9cb8cf3a3d80ba77251e4e0b761dd6baa29a0247304402202b2592c8489d74e7e081b36cb63086e67ed54be8d09011e540b6e1162787fad5022040116aa3170c79d85795e793f298efb61637970695c6649aa1d2f9c5bff5201c0121031a073f17574bd758ade7f87fa7dfcbf73d97172d863d3273e678bc77c307936e0b490800", "vin": [{"txinwitness": ["3044022052f8fff3030712cf5ba95e52fd770016edc2fb0380a208642484117c32652d62022052e401ba76f10ef221d401882dc7f75be0ffbf2d63e55458855ef952aba3e59e01", "02bc8a460fc77afde95b125e9117ea9cb8cf3a3d80ba77251e4e0b761dd6baa29a"], "sequence": 4294967294, "scriptSig": {"hex": "160014ce5cc5719d7b260013b04ae313f46d3609ab7c1b", "asm": "0014ce5cc5719d7b260013b04ae313f46d3609ab7c1b"}, "vout": 1, "txid": "a495e6373e8f63509c397f3ae6cf861899afaa8833c0789562ce5318d68d386c"}, {"txinwitness": ["304402202b2592c8489d74e7e081b36cb63086e67ed54be8d09011e540b6e1162787fad5022040116aa3170c79d85795e793f298efb61637970695c6649aa1d2f9c5bff5201c01", "031a073f17574bd758ade7f87fa7dfcbf73d97172d863d3273e678bc77c307936e"], "sequence": 4294967294, "scriptSig": {"hex": "1600141066d99a1316633cc388295f6e1d8401c66678c4", "asm": "00141066d99a1316633cc388295f6e1d8401c66678c4"}, "vout": 0, "txid": "79f51a542dca2559180cfef02c6357aca8b2263d801c7c12340e022af08d8ea6"}], "txid": "b42a498a3516f6e8e1dbd3d1f8e5d92baa01b858f60cba61d77d1da4dc0163c0", "blocktime": 1537869901, "version": 2, "confirmations": 11524, "time": 1537869901, "locktime": 542987, "vsize": 256, "size": 418}