{"hash": "b42e4b4b9367e632c894f42c430fc8f7cc7def5d57b38881292f6a90a5cf1487", "blockhash": "00000000000000000017f5eb5941039fbcee6240d03bc1f2f8e35350df66a1d8", "vout": [{"scriptPubKey": {"reqSigs": 1, "hex": "a91421ecbd898a3def3f390ad72017b054fc0c72550887", "addresses": ["34nPptETP8LQWW3HvcVZ2Z6fGSmRn2NVYr"], "asm": "OP_HASH160 21ecbd898a3def3f390ad72017b054fc0c725508 OP_EQUAL", "type": "scripthash"}, "value": 0.00780485, "n": 0}, {"scriptPubKey": {"reqSigs": 1, "hex": "76a9143211b3de600c633a25a1241a43c4ee9b8b2ee12188ac", "addresses": ["15ZjzbFeXWEqcpQQzrSaQkDVYe9ZJe5Mok"], "asm": "OP_DUP OP_HASH160 3211b3de600c633a25a1241a43c4ee9b8b2ee121 OP_EQUALVERIFY OP_CHECKSIG", "type": "pubkeyhash"}, "value": 0.00809149, "n": 1}], "hex": "0100000001a8b4077298970dfdc2c46ee88d5668d32d77ec4ebc1d3f155bef15c907efb366010000006b483045022100d809f8c14750c0aa424a7e9dd142890e28b773d74b81e49b08e24e685b8cbe5902201ef1b357e5eec0557f3d0b86acfcd4265d56ab901fcdbfe97e208d0a709bc533012102f2a6b8f6674d7ae0c2e18b99397ed55414d59426e75959ec8b2f2056f83a6ad1ffffffff02c5e80b000000000017a91421ecbd898a3def3f390ad72017b054fc0c72550887bd580c00000000001976a9143211b3de600c633a25a1241a43c4ee9b8b2ee12188ac00000000", "vin": [{"sequence": 4294967295, "scriptSig": {"hex": "483045022100d809f8c14750c0aa424a7e9dd142890e28b773d74b81e49b08e24e685b8cbe5902201ef1b357e5eec0557f3d0b86acfcd4265d56ab901fcdbfe97e208d0a709bc533012102f2a6b8f6674d7ae0c2e18b99397ed55414d59426e75959ec8b2f2056f83a6ad1", "asm": "3045022100d809f8c14750c0aa424a7e9dd142890e28b773d74b81e49b08e24e685b8cbe5902201ef1b357e5eec0557f3d0b86acfcd4265d56ab901fcdbfe97e208d0a709bc533[ALL] 02f2a6b8f6674d7ae0c2e18b99397ed55414d59426e75959ec8b2f2056f83a6ad1"}, "vout": 1, "txid": "66b3ef07c915ef5b153f1dbc4eec772dd368568de86ec4c2fd0d97987207b4a8"}], "txid": "b42e4b4b9367e632c894f42c430fc8f7cc7def5d57b38881292f6a90a5cf1487", "blocktime": 1537874412, "version": 1, "confirmations": 11467, "time": 1537874412, "locktime": 0, "vsize": 224, "size": 224}