{"hash": "667405aebd72c411f577333a5baef555224d79a0c328869e81c30b22b5f0e78f", "blockhash": "00000000000000000018f53835495a110e01622372bf6ae95dc86f2b0ab887b0", "vout": [{"scriptPubKey": {"reqSigs": 1, "hex": "76a914b6ef6c4414c18b38ad173389eea270e985ee141a88ac", "addresses": ["1HgGoJutzMgmK1FhcALu6DQZk5C8WsLhyw"], "asm": "OP_DUP OP_HASH160 b6ef6c4414c18b38ad173389eea270e985ee141a OP_EQUALVERIFY OP_CHECKSIG", "type": "pubkeyhash"}, "value": 0.01460562, "n": 0}], "hex": "0200000000010407ceba81f5043c38f8d1d060bdbdbb9c0b5f3fe562ec1465aabeeeac4816fd5800000000171600145db29d0fb673a7226242fab31337572204e5a369feffffff8cac689170be8c971e5b40ab48ba9f9083702057be548f87be537529ce67eaf8000000001716001463521f6718460127d2a8eff15b1860d7f8b738b9feffffff8f3bdeb0f31d28d2f38c36bead6598818dccb3630336d870e644e1dff02c820e0100000017160014e19ab19737fdea811e1936fef710092d16337f85feffffffd154df4ccf4b3f47c6bb2c04bd135364a3683b759194c505c09cc2baf97e8ff001000000171600148d059f93d491544eb158d11a1f55c017eb439655feffffff0152491600000000001976a914b6ef6c4414c18b38ad173389eea270e985ee141a88ac02473044022035d42765d57bc25b89108a7c8305447d2f1aead7777ee238ee6ab2f34885b74802204416fd586e4b7558c83aa5ca342449c822641d067955acba7f74b263cb7d31020121034e3fe181d60890b56362d5dcc4afefe87a457c936b4616b627d5606e58e0635002473044022055d55f6cc94f9efa1a1c07c0f9b5cf9fcfc62b1bfc6d124271c84cd55fbe3f7702206652856050c163db46b26950c257005f3516987d265c7182c89a7464cd769593012103158b4479e4fab503b287dfad370e4550e7aad37603359a5354e8580b6a888a840247304402206365ef8c8ef514c5ec53943a5699cd48db736a63665f72fa0c3eb3a06dd3db5302204e060977c6923abd70404123018a2a79e0dc1b3d2f8d7e3020289deca7fba339012102ae7c4bd96757afdb3809c2927a745e35513435bb5bb21469a21c41196ad5810902483045022100f9d6cee9bd49a15d71cabdcb40392598c31007f0795fd54c63ff778b23945cc902202dbcee25cbee99f49d07a7335f4660eb47afbdd533a64aba63d1ab9e4b61eb540121031a22a2072e098e7d2d218134f117398d5bbebfbf466e5cb094f1c6a4232947d7d3480800", "vin": [{"txinwitness": ["3044022035d42765d57bc25b89108a7c8305447d2f1aead7777ee238ee6ab2f34885b74802204416fd586e4b7558c83aa5ca342449c822641d067955acba7f74b263cb7d310201", "034e3fe181d60890b56362d5dcc4afefe87a457c936b4616b627d5606e58e06350"], "sequence": 4294967294, "scriptSig": {"hex": "1600145db29d0fb673a7226242fab31337572204e5a369", "asm": "00145db29d0fb673a7226242fab31337572204e5a369"}, "vout": 0, "txid": "58fd1648aceebeaa6514ec62e53f5f0b9cbbbdbd60d0d1f8383c04f581bace07"}, {"txinwitness": ["3044022055d55f6cc94f9efa1a1c07c0f9b5cf9fcfc62b1bfc6d124271c84cd55fbe3f7702206652856050c163db46b26950c257005f3516987d265c7182c89a7464cd76959301", "03158b4479e4fab503b287dfad370e4550e7aad37603359a5354e8580b6a888a84"], "sequence": 4294967294, "scriptSig": {"hex": "16001463521f6718460127d2a8eff15b1860d7f8b738b9", "asm": "001463521f6718460127d2a8eff15b1860d7f8b738b9"}, "vout": 0, "txid": "f8ea67ce297553be878f54be57207083909fba48ab405b1e978cbe709168ac8c"}, {"txinwitness": ["304402206365ef8c8ef514c5ec53943a5699cd48db736a63665f72fa0c3eb3a06dd3db5302204e060977c6923abd70404123018a2a79e0dc1b3d2f8d7e3020289deca7fba33901", "02ae7c4bd96757afdb3809c2927a745e35513435bb5bb21469a21c41196ad58109"], "sequence": 4294967294, "scriptSig": {"hex": "160014e19ab19737fdea811e1936fef710092d16337f85", "asm": "0014e19ab19737fdea811e1936fef710092d16337f85"}, "vout": 1, "txid": "0e822cf0dfe144e670d8360363b3cc8d819865adbe368cf3d2281df3b0de3b8f"}, {"txinwitness": ["3045022100f9d6cee9bd49a15d71cabdcb40392598c31007f0795fd54c63ff778b23945cc902202dbcee25cbee99f49d07a7335f4660eb47afbdd533a64aba63d1ab9e4b61eb5401", "031a22a2072e098e7d2d218134f117398d5bbebfbf466e5cb094f1c6a4232947d7"], "sequence": 4294967294, "scriptSig": {"hex": "1600148d059f93d491544eb158d11a1f55c017eb439655", "asm": "00148d059f93d491544eb158d11a1f55c017eb439655"}, "vout": 1, "txid": "f08f7ef9bac29cc005c59491753b68a3645313bd042cbbc6473f4bcf4cdf54d1"}], "txid": "b42fa32821c061b808c51915ba55c36fd8a431f403d7398bae297062a76fe3d5", "blocktime": 1537870928, "version": 2, "confirmations": 11512, "time": 1537870928, "locktime": 542931, "vsize": 408, "size": 731}