{"hash": "ee7860e552a482616f070dd652716f97eefaa054066f598be4840cd1fd4d05be", "blockhash": "00000000000000000017f5eb5941039fbcee6240d03bc1f2f8e35350df66a1d8", "vout": [{"scriptPubKey": {"reqSigs": 1, "hex": "76a9141d42fe86701cd414a274ee68e14afeae31a18e8388ac", "addresses": ["13firQTQtCjD6GJNDaQVxNKVhMUW217R7D"], "asm": "OP_DUP OP_HASH160 1d42fe86701cd414a274ee68e14afeae31a18e83 OP_EQUALVERIFY OP_CHECKSIG", "type": "pubkeyhash"}, "value": 0.00013043, "n": 0}, {"scriptPubKey": {"reqSigs": 1, "hex": "a914414cec0fc72a9410f6836edaf08de1aa3b2a321c87", "addresses": ["37eHzewnAFRR2SVZu8rZM3nBsmuE2XBU7D"], "asm": "OP_HASH160 414cec0fc72a9410f6836edaf08de1aa3b2a321c OP_EQUAL", "type": "scripthash"}, "value": 0.2476658, "n": 1}], "hex": "0100000000010132bb5672bb6185f08e6135a2407a7042363d72aaaeb6b936a0fd29f0a010b8d90100000023220020ce74cde37cfb8dd71d0179287e12fc721ee236ce3c89c2745bcd365b39807eb3ffffffff02f3320000000000001976a9141d42fe86701cd414a274ee68e14afeae31a18e8388ac74e879010000000017a914414cec0fc72a9410f6836edaf08de1aa3b2a321c87040047304402207abf7290ec939c6249ced58c53813c3b9fb916fd6a3939e5edb41e29367323cc022033e53f4934d09e82248d50ca4af61dde4dfb3e7a5424075bab3f10d12c9802b101483045022100fa2858b27fa09f4e1ead777ef032809903c7ea1d392feb280cccea041fd03c22022075ea5e3021cb55e8cff1e2cbc523002667a132b7cb3b2b8458073bd664a3993e0147522103ada901d90d5a76319a60f228e0b1bbc84b1d9a87238550bae5d5d190067b66712103871fc2ca08e6950b38867e8e6a0e94ee625223d3aa0df5c65f414c6d784467e252ae00000000", "vin": [{"txinwitness": ["", "304402207abf7290ec939c6249ced58c53813c3b9fb916fd6a3939e5edb41e29367323cc022033e53f4934d09e82248d50ca4af61dde4dfb3e7a5424075bab3f10d12c9802b101", "3045022100fa2858b27fa09f4e1ead777ef032809903c7ea1d392feb280cccea041fd03c22022075ea5e3021cb55e8cff1e2cbc523002667a132b7cb3b2b8458073bd664a3993e01", "522103ada901d90d5a76319a60f228e0b1bbc84b1d9a87238550bae5d5d190067b66712103871fc2ca08e6950b38867e8e6a0e94ee625223d3aa0df5c65f414c6d784467e252ae"], "sequence": 4294967295, "scriptSig": {"hex": "220020ce74cde37cfb8dd71d0179287e12fc721ee236ce3c89c2745bcd365b39807eb3", "asm": "0020ce74cde37cfb8dd71d0179287e12fc721ee236ce3c89c2745bcd365b39807eb3"}, "vout": 1, "txid": "d9b810a0f029fda036b9b6aeaa723d3642707a40a235618ef08561bb7256bb32"}], "txid": "b4330550d1a82a805a37b8046b2495f836be591ffb0fb0a9c6017d5ae8a35719", "blocktime": 1537874412, "version": 1, "confirmations": 11468, "time": 1537874412, "locktime": 0, "vsize": 208, "size": 373}