{"hash": "2edae8df8a343a064ab8b7ab514b128dface392d516c14e931afa2784934f7fe", "blockhash": "0000000000000000000e13cef7c366c0283d82e591d1acd082e914b08063cdf1", "vout": [{"scriptPubKey": {"reqSigs": 1, "hex": "0014873a5fe459772c669fc5a19880a414b4d9839535", "addresses": ["bc1qsua9lezewukxd8795xvgpfq5knvc89f4zwnwmv"], "asm": "0 873a5fe459772c669fc5a19880a414b4d9839535", "type": "witness_v0_keyhash"}, "value": 1.69143507, "n": 0}, {"scriptPubKey": {"reqSigs": 1, "hex": "76a9140cdbfa58ae773a91202e930094dc0f6912b286d688ac", "addresses": ["12AzddrpMCnexHc24wCtomibbC7dJbrmHr"], "asm": "OP_DUP OP_HASH160 0cdbfa58ae773a91202e930094dc0f6912b286d6 OP_EQUALVERIFY OP_CHECKSIG", "type": "pubkeyhash"}, "value": 0.00672004, "n": 1}], "hex": "010000000001014bc436ed630983b71dbb2cb36b85193fa632d0b53d67317924709112b37242ac0000000000ffffffff02d3ec140a00000000160014873a5fe459772c669fc5a19880a414b4d983953504410a00000000001976a9140cdbfa58ae773a91202e930094dc0f6912b286d688ac02473044022076ee57ed0b1fb058e9faa8202b2e27116b7c5e4ed24a596efbb1949f9b3b55060220361da09b00b25bf2fa2ab1d60208b187295e4fa49dfc823a28270fcea863fbd1012103e510046cd9ecbf170ccc9993635456b868c988291596064ef1cd153378dd304a00000000", "vin": [{"txinwitness": ["3044022076ee57ed0b1fb058e9faa8202b2e27116b7c5e4ed24a596efbb1949f9b3b55060220361da09b00b25bf2fa2ab1d60208b187295e4fa49dfc823a28270fcea863fbd101", "03e510046cd9ecbf170ccc9993635456b868c988291596064ef1cd153378dd304a"], "sequence": 4294967295, "scriptSig": {"hex": "", "asm": ""}, "vout": 0, "txid": "ac4272b3129170247931673db5d032a63f19856bb32cbb1db7830963ed36c44b"}], "txid": "b438a878993a3eaf32bf2e7a732524da0877ff57ed4fee1c5e5ac92b3112ae62", "blocktime": 1537871767, "version": 1, "confirmations": 11495, "time": 1537871767, "locktime": 0, "vsize": 144, "size": 225}