{"hash": "b43982d222f5c1657b82c198b36ed23e116240b7aa19324142952c83ed5bba79", "blockhash": "0000000000000000001cda96e906b7601b7a6fb1a3b62bca570a9e5d8f4b3de1", "vout": [{"scriptPubKey": {"reqSigs": 1, "hex": "a914288e0687132e27d74da2f49052dd1f033477a28a87", "addresses": ["35PT6Kc9uMCsnDFVCzWQUxFWazGrvRxWeh"], "asm": "OP_HASH160 288e0687132e27d74da2f49052dd1f033477a28a OP_EQUAL", "type": "scripthash"}, "value": 0.001785, "n": 0}, {"scriptPubKey": {"reqSigs": 1, "hex": "76a914e349bc52d6b8100b58d3fce45135a91c5c128a1d88ac", "addresses": ["1MiningDkXkhKaXBTMKXfLemnk1YY5rbkT"], "asm": "OP_DUP OP_HASH160 e349bc52d6b8100b58d3fce45135a91c5c128a1d OP_EQUALVERIFY OP_CHECKSIG", "type": "pubkeyhash"}, "value": 0.5634288, "n": 1}], "hex": "02000000019db7446043a442038f8569caa9fcef778bca2a9ed556dcdb5464bdd7fac3fc61010000008a4730440220546e54924824fb36c1786311f21d3b5d7f06aec177287cb35f7acbfdc52c08a102203ba371e954bfd36ae24fbc3c436a0f029a0d2139f014137bd75bfb5ff4c37b43014104ae414abde7876c34e01694b38b2341d10b9b4c8db18a66262bd8df26bcb57893885c9fe8b79aa25330d5f05bb5aa9ab636a908a72e27956572b44190b22809beffffffff0244b902000000000017a914288e0687132e27d74da2f49052dd1f033477a28a8760b95b03000000001976a914e349bc52d6b8100b58d3fce45135a91c5c128a1d88ac00000000", "vin": [{"sequence": 4294967295, "scriptSig": {"hex": "4730440220546e54924824fb36c1786311f21d3b5d7f06aec177287cb35f7acbfdc52c08a102203ba371e954bfd36ae24fbc3c436a0f029a0d2139f014137bd75bfb5ff4c37b43014104ae414abde7876c34e01694b38b2341d10b9b4c8db18a66262bd8df26bcb57893885c9fe8b79aa25330d5f05bb5aa9ab636a908a72e27956572b44190b22809be", "asm": "30440220546e54924824fb36c1786311f21d3b5d7f06aec177287cb35f7acbfdc52c08a102203ba371e954bfd36ae24fbc3c436a0f029a0d2139f014137bd75bfb5ff4c37b43[ALL] 04ae414abde7876c34e01694b38b2341d10b9b4c8db18a66262bd8df26bcb57893885c9fe8b79aa25330d5f05bb5aa9ab636a908a72e27956572b44190b22809be"}, "vout": 1, "txid": "61fcc3fad7bd6454dbdc56d59e2aca8b77effca9ca69858f0342a4436044b79d"}], "txid": "b43982d222f5c1657b82c198b36ed23e116240b7aa19324142952c83ed5bba79", "blocktime": 1537873282, "version": 2, "confirmations": 11484, "time": 1537873282, "locktime": 0, "vsize": 255, "size": 255}