{"hash": "b43f3669c65fda9638ea8c13ab04bc9de992bf4772715e5923a804adce00363f", "blockhash": "000000000000000000022b45ed06c6f4ccd3cf7fb5ba4856ebd2e58215665228", "vout": [{"scriptPubKey": {"reqSigs": 1, "hex": "76a91410af41f2d783e0f8e5e3cfdc59d3e5f55d0e82f688ac", "addresses": ["12XDmBXzsCgtVnFufp9Da4zYwQgJwFGtBW"], "asm": "OP_DUP OP_HASH160 10af41f2d783e0f8e5e3cfdc59d3e5f55d0e82f6 OP_EQUALVERIFY OP_CHECKSIG", "type": "pubkeyhash"}, "value": 2.937e-05, "n": 0}, {"scriptPubKey": {"reqSigs": 1, "hex": "a9149a95c40868a3781671ebea7c17d1b8938b15c57087", "addresses": ["3FnPPzXP1CqwP3KC79p4wUDuVughjSe7Ah"], "asm": "OP_HASH160 9a95c40868a3781671ebea7c17d1b8938b15c570 OP_EQUAL", "type": "scripthash"}, "value": 0.04678742, "n": 1}], "hex": "0100000001c5d42eaba0521e464c855f60ad5b04553408add09c3bdc002305d657a6e5078a010000006b483045022100deea3a7f37a16f61461a01e9cd4da3f42b2801e6d586c52f93ddfe96d91299a7022056d91d65939069417b1d474773b879211878a756ca88cd6798924801ed934a2001210223b5e5ee58cc491886b127f8737a258c188d2afad068132a3016e044db98119affffffff02790b0000000000001976a91410af41f2d783e0f8e5e3cfdc59d3e5f55d0e82f688ac566447000000000017a9149a95c40868a3781671ebea7c17d1b8938b15c5708700000000", "vin": [{"sequence": 4294967295, "scriptSig": {"hex": "483045022100deea3a7f37a16f61461a01e9cd4da3f42b2801e6d586c52f93ddfe96d91299a7022056d91d65939069417b1d474773b879211878a756ca88cd6798924801ed934a2001210223b5e5ee58cc491886b127f8737a258c188d2afad068132a3016e044db98119a", "asm": "3045022100deea3a7f37a16f61461a01e9cd4da3f42b2801e6d586c52f93ddfe96d91299a7022056d91d65939069417b1d474773b879211878a756ca88cd6798924801ed934a20[ALL] 0223b5e5ee58cc491886b127f8737a258c188d2afad068132a3016e044db98119a"}, "vout": 1, "txid": "8a07e5a657d6052300dc3b9cd0ad083455045bad605f854c461e52a0ab2ed4c5"}], "txid": "b43f3669c65fda9638ea8c13ab04bc9de992bf4772715e5923a804adce00363f", "blocktime": 1537869901, "version": 1, "confirmations": 11523, "time": 1537869901, "locktime": 0, "vsize": 224, "size": 224}