{"hash": "b442b8aa79ce2dbc53a567f6e0d22d5bd5ab81cf613a60e60d4c7753e6b0c7d5", "blockhash": "0000000000000000001cda96e906b7601b7a6fb1a3b62bca570a9e5d8f4b3de1", "vout": [{"scriptPubKey": {"reqSigs": 1, "hex": "76a9148925924207f1fd4ff7c756f2dc287974e293709488ac", "addresses": ["1DWAanM9K8PJoEY5iPvZn6vFTcyAP5i6VF"], "asm": "OP_DUP OP_HASH160 8925924207f1fd4ff7c756f2dc287974e2937094 OP_EQUALVERIFY OP_CHECKSIG", "type": "pubkeyhash"}, "value": 0.00017992, "n": 0}, {"scriptPubKey": {"reqSigs": 1, "hex": "76a91454a5846dc4c450cc240982b4d58c69e1abe5c1c388ac", "addresses": ["18ia3TXbFpT8uPEUqHxXFNuC8AUhknLjyx"], "asm": "OP_DUP OP_HASH160 54a5846dc4c450cc240982b4d58c69e1abe5c1c3 OP_EQUALVERIFY OP_CHECKSIG", "type": "pubkeyhash"}, "value": 0.0090825, "n": 1}], "hex": "010000000159f1da212009ff2d376a296e99361e3aff76f2e89f17fea0f5c3bb1398548ffe000000006b483045022100b97d8cbab9402d5f712ab16d914bc396dd0a20a7708ee6e86e632dacab26c54f02203623198fc50011df48533f931d87d290ba9eed2a4528d69b638914bdb51dbd70012103bc664897b5fbd35f2ecb9043abe6a1644912c36574bc61dd40af71ddf820376bffffffff0248460000000000001976a9148925924207f1fd4ff7c756f2dc287974e293709488acdadb0d00000000001976a91454a5846dc4c450cc240982b4d58c69e1abe5c1c388ac00000000", "vin": [{"sequence": 4294967295, "scriptSig": {"hex": "483045022100b97d8cbab9402d5f712ab16d914bc396dd0a20a7708ee6e86e632dacab26c54f02203623198fc50011df48533f931d87d290ba9eed2a4528d69b638914bdb51dbd70012103bc664897b5fbd35f2ecb9043abe6a1644912c36574bc61dd40af71ddf820376b", "asm": "3045022100b97d8cbab9402d5f712ab16d914bc396dd0a20a7708ee6e86e632dacab26c54f02203623198fc50011df48533f931d87d290ba9eed2a4528d69b638914bdb51dbd70[ALL] 03bc664897b5fbd35f2ecb9043abe6a1644912c36574bc61dd40af71ddf820376b"}, "vout": 0, "txid": "fe8f549813bbc3f5a0fe179fe8f276ff3a1e36996e296a372dff092021daf159"}], "txid": "b442b8aa79ce2dbc53a567f6e0d22d5bd5ab81cf613a60e60d4c7753e6b0c7d5", "blocktime": 1537873282, "version": 1, "confirmations": 11483, "time": 1537873282, "locktime": 0, "vsize": 226, "size": 226}