{"hash": "b44363836a9d88b9b4a8623044ee1f8e9710a2ab567eb5b265e137534150fcd7", "blockhash": "0000000000000000001f76057863aec43deb6fa401d9628bb513d65a8098bfab", "vout": [{"scriptPubKey": {"type": "nulldata", "hex": "6a4c50000077e10001641c419f27e126dedfaea5697af8e8e963c7cfd5b95b23cc0f42c2fc38c5c2c16449240a893a75963896c982b8645baa16a606127c767211c7691d100759d4ba30d2c37bb011d97e02cf", "asm": "OP_RETURN 000077e10001641c419f27e126dedfaea5697af8e8e963c7cfd5b95b23cc0f42c2fc38c5c2c16449240a893a75963896c982b8645baa16a606127c767211c7691d100759d4ba30d2c37bb011d97e02cf"}, "value": 0.0, "n": 0}, {"scriptPubKey": {"reqSigs": 1, "hex": "76a914da0627d2ad3f33fb5b9b391ba32a53a9542ff87088ac", "addresses": ["1LsogWrYjjPA9KFGViPeFjPdzndhfrjaz7"], "asm": "OP_DUP OP_HASH160 da0627d2ad3f33fb5b9b391ba32a53a9542ff870 OP_EQUALVERIFY OP_CHECKSIG", "type": "pubkeyhash"}, "value": 0.00636784, "n": 1}], "hex": "0100000001ec0bc3bccd6e8672b7d180863436dbca3dab16a34ba65d28226e27f1ecd73e57010000006a4730440220712e3b4e3be51194fefb988d31bd181039c25fc2da5339fc77a3592b1e31292c022035dcab3ff478d066e24f7a493393cc35a57cf96bdc9e31901357bd36722d42bf0121031b042cd382a1af0988a37c51e7cdebc6d06a2074cc80f13dbff20eec202615ebffffffff020000000000000000536a4c50000077e10001641c419f27e126dedfaea5697af8e8e963c7cfd5b95b23cc0f42c2fc38c5c2c16449240a893a75963896c982b8645baa16a606127c767211c7691d100759d4ba30d2c37bb011d97e02cf70b70900000000001976a914da0627d2ad3f33fb5b9b391ba32a53a9542ff87088ac00000000", "vin": [{"sequence": 4294967295, "scriptSig": {"hex": "4730440220712e3b4e3be51194fefb988d31bd181039c25fc2da5339fc77a3592b1e31292c022035dcab3ff478d066e24f7a493393cc35a57cf96bdc9e31901357bd36722d42bf0121031b042cd382a1af0988a37c51e7cdebc6d06a2074cc80f13dbff20eec202615eb", "asm": "30440220712e3b4e3be51194fefb988d31bd181039c25fc2da5339fc77a3592b1e31292c022035dcab3ff478d066e24f7a493393cc35a57cf96bdc9e31901357bd36722d42bf[ALL] 031b042cd382a1af0988a37c51e7cdebc6d06a2074cc80f13dbff20eec202615eb"}, "vout": 1, "txid": "573ed7ecf1276e22285da64ba316ab3dcadb36348680d1b772866ecdbcc30bec"}], "txid": "b44363836a9d88b9b4a8623044ee1f8e9710a2ab567eb5b265e137534150fcd7", "blocktime": 1537873891, "version": 1, "confirmations": 11478, "time": 1537873891, "locktime": 0, "vsize": 283, "size": 283}