{"hash": "b448f7457a6ac587faa16f632da2f858fa22ecb04a911085213d14e6ce406a92", "blockhash": "0000000000000000001f76057863aec43deb6fa401d9628bb513d65a8098bfab", "vout": [{"scriptPubKey": {"reqSigs": 1, "hex": "a9142bc78f4b6c8c762951b5fb9433b0551b3cfb237587", "addresses": ["35gW3SrcfUVDECYtLNHYprGmaiNM3WVLKJ"], "asm": "OP_HASH160 2bc78f4b6c8c762951b5fb9433b0551b3cfb2375 OP_EQUAL", "type": "scripthash"}, "value": 0.0036364, "n": 0}, {"scriptPubKey": {"reqSigs": 1, "hex": "76a914c8501f45c0a52818e516b5387d8dc3bcf3e03bae88ac", "addresses": ["1KGA8MNWyE5641hFjxCgruaaZzvQxsU1vj"], "asm": "OP_DUP OP_HASH160 c8501f45c0a52818e516b5387d8dc3bcf3e03bae OP_EQUALVERIFY OP_CHECKSIG", "type": "pubkeyhash"}, "value": 0.00561709, "n": 1}], "hex": "0100000001446841fc687a6367ba4b604f0d10335e14b79930afb785a0e868e13e82605311010000006a47304402202b2149707a7826a48fdcc6ac330bc8dfedd196da72a46f5952eb063166ba1b280220750f2e520b2819fe192f5afbee1c8bb4b9f1f6e330439dcfab6f1caaa4c3e55d012103431048abdd894b83b6bde7acbf78f15153a887959858d515ece9e6e1df975f47ffffffff02788c05000000000017a9142bc78f4b6c8c762951b5fb9433b0551b3cfb2375872d920800000000001976a914c8501f45c0a52818e516b5387d8dc3bcf3e03bae88ac00000000", "vin": [{"sequence": 4294967295, "scriptSig": {"hex": "47304402202b2149707a7826a48fdcc6ac330bc8dfedd196da72a46f5952eb063166ba1b280220750f2e520b2819fe192f5afbee1c8bb4b9f1f6e330439dcfab6f1caaa4c3e55d012103431048abdd894b83b6bde7acbf78f15153a887959858d515ece9e6e1df975f47", "asm": "304402202b2149707a7826a48fdcc6ac330bc8dfedd196da72a46f5952eb063166ba1b280220750f2e520b2819fe192f5afbee1c8bb4b9f1f6e330439dcfab6f1caaa4c3e55d[ALL] 03431048abdd894b83b6bde7acbf78f15153a887959858d515ece9e6e1df975f47"}, "vout": 1, "txid": "115360823ee168e8a085b7af3099b7145e33100d4f604bba67637a68fc416844"}], "txid": "b448f7457a6ac587faa16f632da2f858fa22ecb04a911085213d14e6ce406a92", "blocktime": 1537873891, "version": 1, "confirmations": 11475, "time": 1537873891, "locktime": 0, "vsize": 223, "size": 223}