{"hash": "269732f9c46b9b48188bc7f26876cfc3d70b7376b194a4763cb9521e01969fcb", "blockhash": "0000000000000000000e13cef7c366c0283d82e591d1acd082e914b08063cdf1", "vout": [{"scriptPubKey": {"reqSigs": 1, "hex": "0014626a96e863e2e39ac364796c758fc9f1822552cb", "addresses": ["bc1qvf4fd6rrut3e4smy09k8tr7f7xpz25ktg53nt3"], "asm": "0 626a96e863e2e39ac364796c758fc9f1822552cb", "type": "witness_v0_keyhash"}, "value": 3.426e-05, "n": 0}, {"scriptPubKey": {"reqSigs": 1, "hex": "76a914f5f460624a63f9a6b3cdb8f9dfab1496a6a2506f88ac", "addresses": ["1PRVJaNQu6VJfnHnaK9VQiobP7n8cwG1uy"], "asm": "OP_DUP OP_HASH160 f5f460624a63f9a6b3cdb8f9dfab1496a6a2506f OP_EQUALVERIFY OP_CHECKSIG", "type": "pubkeyhash"}, "value": 0.00203776, "n": 1}], "hex": "0100000000010165d8e12d0d0cce72198cc07ca5a83b4cfc222de22fa05e6889925f990ded2cc00100000000ffffffff02620d000000000000160014626a96e863e2e39ac364796c758fc9f1822552cb001c0300000000001976a914f5f460624a63f9a6b3cdb8f9dfab1496a6a2506f88ac0247304402202a70c9918f7f5dcccb390ecfeb2a0310d74598d0c6aebca41f3c0e26bc14a9ee0220572fd2db3933e363cdb1a198228340f972f62198a3e6e3898bc7c9837666c0bc0121027c15298ca4f44cb436110baa608758fd378fa7a3b4b41dc3ffa8ab2e645b063000000000", "vin": [{"txinwitness": ["304402202a70c9918f7f5dcccb390ecfeb2a0310d74598d0c6aebca41f3c0e26bc14a9ee0220572fd2db3933e363cdb1a198228340f972f62198a3e6e3898bc7c9837666c0bc01", "027c15298ca4f44cb436110baa608758fd378fa7a3b4b41dc3ffa8ab2e645b0630"], "sequence": 4294967295, "scriptSig": {"hex": "", "asm": ""}, "vout": 1, "txid": "c02ced0d995f9289685ea02fe22d22fc4c3ba8a57cc08c1972ce0c0d2de1d865"}], "txid": "b44873c9c986ead6102cb81d1caf63e100893a40bf51e76ca4de389f35ef5afa", "blocktime": 1537871767, "version": 1, "confirmations": 11495, "time": 1537871767, "locktime": 0, "vsize": 144, "size": 225}