{"hash": "b455b970ed49d4de364d2767265fa2cdbe9739f1a998739d3cb9a7c136d0a88a", "blockhash": "00000000000000000004ffacab907a6b429b9a5745fa0b75af4234bf69dd7176", "vout": [{"scriptPubKey": {"reqSigs": 1, "hex": "76a9143d856e29d23f23eff28d851e940b051fa71db1d388ac", "addresses": ["16cJ4bzCiBhPMdLPnoNHe1QTgyWYH5vBqJ"], "asm": "OP_DUP OP_HASH160 3d856e29d23f23eff28d851e940b051fa71db1d3 OP_EQUALVERIFY OP_CHECKSIG", "type": "pubkeyhash"}, "value": 0.00431764, "n": 0}, {"scriptPubKey": {"reqSigs": 1, "hex": "76a91490e104c02d1c377a3671b9ccdca952b6dde54d3888ac", "addresses": ["1ED3sBrCbpVFEz445FStFs4KXTkhVqWZJd"], "asm": "OP_DUP OP_HASH160 90e104c02d1c377a3671b9ccdca952b6dde54d38 OP_EQUALVERIFY OP_CHECKSIG", "type": "pubkeyhash"}, "value": 0.01, "n": 1}], "hex": "010000000191dde626b5dcda0120ac355d580210e4724534590b3b2e6fa756c776869ffa1e000000006a473044022026804783e952d8ce80cda509bd713c59a4dcac563f4e580cfb014dd543ec2e6802200a16aca35e1559a1f3bb57dde5bf8a0c367256ff8f15dd6024a949254d7ef46601210380db2e8683a1baba697b1a45ae437504fab9dda6d7151bcd1877d2c1f4348e51ffffffff0294960600000000001976a9143d856e29d23f23eff28d851e940b051fa71db1d388ac40420f00000000001976a91490e104c02d1c377a3671b9ccdca952b6dde54d3888ac00000000", "vin": [{"sequence": 4294967295, "scriptSig": {"hex": "473044022026804783e952d8ce80cda509bd713c59a4dcac563f4e580cfb014dd543ec2e6802200a16aca35e1559a1f3bb57dde5bf8a0c367256ff8f15dd6024a949254d7ef46601210380db2e8683a1baba697b1a45ae437504fab9dda6d7151bcd1877d2c1f4348e51", "asm": "3044022026804783e952d8ce80cda509bd713c59a4dcac563f4e580cfb014dd543ec2e6802200a16aca35e1559a1f3bb57dde5bf8a0c367256ff8f15dd6024a949254d7ef466[ALL] 0380db2e8683a1baba697b1a45ae437504fab9dda6d7151bcd1877d2c1f4348e51"}, "vout": 0, "txid": "1efa9f8676c756a76f2e3b0b59344572e41002585d35ac2001dadcb526e6dd91"}], "txid": "b455b970ed49d4de364d2767265fa2cdbe9739f1a998739d3cb9a7c136d0a88a", "blocktime": 1537875543, "version": 1, "confirmations": 11464, "time": 1537875543, "locktime": 0, "vsize": 225, "size": 225}