{"hash": "b456ca6927f8ef42890becf2ee40ecacc6297710d6d9199bd3f5b57fb954b4e1", "blockhash": "0000000000000000001f76057863aec43deb6fa401d9628bb513d65a8098bfab", "vout": [{"scriptPubKey": {"reqSigs": 1, "hex": "76a914e25a054a7a0ea4d8515a31a8d832c5a1b231912388ac", "addresses": ["1MdqZ6m78ftZrPhba9G1DhKbE6ZQC4oqzR"], "asm": "OP_DUP OP_HASH160 e25a054a7a0ea4d8515a31a8d832c5a1b2319123 OP_EQUALVERIFY OP_CHECKSIG", "type": "pubkeyhash"}, "value": 0.01283749, "n": 0}, {"scriptPubKey": {"reqSigs": 1, "hex": "76a9148659df39ddee15bdb160620ae60cd8f46e53e69188ac", "addresses": ["1DFPD7weD9nmwyybyocYt9B2JTtMMvKWbo"], "asm": "OP_DUP OP_HASH160 8659df39ddee15bdb160620ae60cd8f46e53e691 OP_EQUALVERIFY OP_CHECKSIG", "type": "pubkeyhash"}, "value": 0.002096, "n": 1}], "hex": "0100000001ff56b6f39248bebab90b3176ca62ca15d0ae5aa98f2f793c501bc9e76872d1d6000000006a47304402201d7f6a58226ad700498a929987d98a01e16d32541efbd884499ee51171179f1c022076c283e0315a7ef8153fe12bee28192e229d30a5ee7c786980fbb1fb50a07d400121026f8a79bc6fc512c4168c57cad97194b618458a5f88ff291f224d8ab2cc9c1441ffffffff02a5961300000000001976a914e25a054a7a0ea4d8515a31a8d832c5a1b231912388acc0320300000000001976a9148659df39ddee15bdb160620ae60cd8f46e53e69188ac00000000", "vin": [{"sequence": 4294967295, "scriptSig": {"hex": "47304402201d7f6a58226ad700498a929987d98a01e16d32541efbd884499ee51171179f1c022076c283e0315a7ef8153fe12bee28192e229d30a5ee7c786980fbb1fb50a07d400121026f8a79bc6fc512c4168c57cad97194b618458a5f88ff291f224d8ab2cc9c1441", "asm": "304402201d7f6a58226ad700498a929987d98a01e16d32541efbd884499ee51171179f1c022076c283e0315a7ef8153fe12bee28192e229d30a5ee7c786980fbb1fb50a07d40[ALL] 026f8a79bc6fc512c4168c57cad97194b618458a5f88ff291f224d8ab2cc9c1441"}, "vout": 0, "txid": "d6d17268e7c91b503c792f8fa95aaed015ca62ca76310bb9babe4892f3b656ff"}], "txid": "b456ca6927f8ef42890becf2ee40ecacc6297710d6d9199bd3f5b57fb954b4e1", "blocktime": 1537873891, "version": 1, "confirmations": 11478, "time": 1537873891, "locktime": 0, "vsize": 225, "size": 225}