{"hash": "b457ba44a70b358e9bded5ef1e84c3d3986e914cb686087b0631691c3d2ad775", "blockhash": "0000000000000000001cda96e906b7601b7a6fb1a3b62bca570a9e5d8f4b3de1", "vout": [{"scriptPubKey": {"reqSigs": 1, "hex": "a914787a464e1886d44bcd8660da60f556fd6948833387", "addresses": ["3Cg3VMTh5CMM92xFyhN4rFmxb26u3PTcGH"], "asm": "OP_HASH160 787a464e1886d44bcd8660da60f556fd69488333 OP_EQUAL", "type": "scripthash"}, "value": 0.0095, "n": 0}, {"scriptPubKey": {"reqSigs": 1, "hex": "a914e370231feecbfc25e2e2423a5a79bf79bfdca59887", "addresses": ["3NRbeX3vD5VaVE4TDU9ivCDsEf7NPPte6J"], "asm": "OP_HASH160 e370231feecbfc25e2e2423a5a79bf79bfdca598 OP_EQUAL", "type": "scripthash"}, "value": 11.54610676, "n": 1}], "hex": "010000000121e6878bf3a181c8ac3fdd8dfaa63d717952e2d75c38d942d2c21ceb4d3b2b9b01000000d90047304402200a1a3eff7c0eed5e2dd43c57ec1e245c9f1e93d5e642ff3c72523da97efc74010220526789bda174ceb00a8083a7f2acf31692990e243657e6825644f7b5ecca0f9b01473044022059d381a8382155fef99fdea82076aa04e2f896ad3abb8e0e44d79d9b3c5825880220347651e3c1154ad397e42937ced7e9418ec134977b687f17f8f32ff5a55bd808014752210327881b6abce6535553a3ce21fad12a7d74fd237ce7c4cd270a267162344e3082210256141f8eb687f5a68c5cc65054652dc25116fa285e44d72b44368827ffe77d9a52aeffffffff02f07e0e000000000017a914787a464e1886d44bcd8660da60f556fd6948833387f4f5d1440000000017a914e370231feecbfc25e2e2423a5a79bf79bfdca5988700000000", "vin": [{"sequence": 4294967295, "scriptSig": {"hex": "0047304402200a1a3eff7c0eed5e2dd43c57ec1e245c9f1e93d5e642ff3c72523da97efc74010220526789bda174ceb00a8083a7f2acf31692990e243657e6825644f7b5ecca0f9b01473044022059d381a8382155fef99fdea82076aa04e2f896ad3abb8e0e44d79d9b3c5825880220347651e3c1154ad397e42937ced7e9418ec134977b687f17f8f32ff5a55bd808014752210327881b6abce6535553a3ce21fad12a7d74fd237ce7c4cd270a267162344e3082210256141f8eb687f5a68c5cc65054652dc25116fa285e44d72b44368827ffe77d9a52ae", "asm": "0 304402200a1a3eff7c0eed5e2dd43c57ec1e245c9f1e93d5e642ff3c72523da97efc74010220526789bda174ceb00a8083a7f2acf31692990e243657e6825644f7b5ecca0f9b[ALL] 3044022059d381a8382155fef99fdea82076aa04e2f896ad3abb8e0e44d79d9b3c5825880220347651e3c1154ad397e42937ced7e9418ec134977b687f17f8f32ff5a55bd808[ALL] 52210327881b6abce6535553a3ce21fad12a7d74fd237ce7c4cd270a267162344e3082210256141f8eb687f5a68c5cc65054652dc25116fa285e44d72b44368827ffe77d9a52ae"}, "vout": 1, "txid": "9b2b3b4deb1cc2d242d9385cd7e25279713da6fa8ddd3facc881a1f38b87e621"}], "txid": "b457ba44a70b358e9bded5ef1e84c3d3986e914cb686087b0631691c3d2ad775", "blocktime": 1537873282, "version": 1, "confirmations": 11484, "time": 1537873282, "locktime": 0, "vsize": 332, "size": 332}