{"hash": "4545c4ab34e089003ff6f53987dc2965cff1e9329bca31558afb8538964db442", "blockhash": "0000000000000000000e13cef7c366c0283d82e591d1acd082e914b08063cdf1", "vout": [{"scriptPubKey": {"reqSigs": 1, "hex": "0014acbe55365b6b542a2d65e0b0c36261f20d4dc591", "addresses": ["bc1q4jl92djmdd2z5tt9uzcvxcnp7gx5m3v37yhmcv"], "asm": "0 acbe55365b6b542a2d65e0b0c36261f20d4dc591", "type": "witness_v0_keyhash"}, "value": 1.187e-05, "n": 0}, {"scriptPubKey": {"reqSigs": 1, "hex": "76a9143144cfa6b12f0afc37e43433528d4c05983fb3e788ac", "addresses": ["15VWYUvBVYuvuTNUYxLJHhK3KYydvX5qb1"], "asm": "OP_DUP OP_HASH160 3144cfa6b12f0afc37e43433528d4c05983fb3e7 OP_EQUALVERIFY OP_CHECKSIG", "type": "pubkeyhash"}, "value": 0.00075, "n": 1}], "hex": "010000000001010c3a9db473f4be3ff8599f13d433c0123ab75a76c93343ab6880cab6d39db1630000000017160014e5da0c381ba93ae7d56f377125b84267a4af6f40ffffffff02a304000000000000160014acbe55365b6b542a2d65e0b0c36261f20d4dc591f8240100000000001976a9143144cfa6b12f0afc37e43433528d4c05983fb3e788ac02483045022100a70f353bdd2fec8b45fbcdfd9ee21c91e061c9a708352e0c97ad4fecd5dce2870220082a58479e1fe9856612134f6b6adb768b21326eb23dfac16d69cb104428af9a012103059f71994e1fa484ed94d776e1380947da63edad2484ce67bba05f3eb363733400000000", "vin": [{"txinwitness": ["3045022100a70f353bdd2fec8b45fbcdfd9ee21c91e061c9a708352e0c97ad4fecd5dce2870220082a58479e1fe9856612134f6b6adb768b21326eb23dfac16d69cb104428af9a01", "03059f71994e1fa484ed94d776e1380947da63edad2484ce67bba05f3eb3637334"], "sequence": 4294967295, "scriptSig": {"hex": "160014e5da0c381ba93ae7d56f377125b84267a4af6f40", "asm": "0014e5da0c381ba93ae7d56f377125b84267a4af6f40"}, "vout": 0, "txid": "63b19dd3b6ca8068ab4333c9765ab73a12c033d4139f59f83fbef473b49d3a0c"}], "txid": "b45de80c723b48e329507257939e8709ec3aea7df014e78c97741c43e4b7ae7d", "blocktime": 1537871767, "version": 1, "confirmations": 11495, "time": 1537871767, "locktime": 0, "vsize": 167, "size": 249}