{"hash": "b4603125fd825995c8678676ad78601e069b13013c5cc86b700c0240e54c0003", "blockhash": "0000000000000000001f0ddff1eddb255c1121bcd4da4f1bc9a0da00cae72433", "vout": [{"scriptPubKey": {"reqSigs": 1, "hex": "76a914a2cd19c496ced18d8c049558f4f1f99e81e3c8e988ac", "addresses": ["1FqpAikruh2BJMr8dZjaBegQ2Mehb4Jc6t"], "asm": "OP_DUP OP_HASH160 a2cd19c496ced18d8c049558f4f1f99e81e3c8e9 OP_EQUALVERIFY OP_CHECKSIG", "type": "pubkeyhash"}, "value": 0.000731, "n": 0}, {"scriptPubKey": {"reqSigs": 1, "hex": "76a914b9c0a40761fa6b425dd7351a0bfeebaaa389790a88ac", "addresses": ["1HwAnQJRvHV4A4cgP9aSKa2n7NAQB3jo14"], "asm": "OP_DUP OP_HASH160 b9c0a40761fa6b425dd7351a0bfeebaaa389790a OP_EQUALVERIFY OP_CHECKSIG", "type": "pubkeyhash"}, "value": 0.009239, "n": 1}], "hex": "0100000001212affd168bff6074eafd89cb51e407d6483497b7261dbebd21c662b4da7c3c4010000006b483045022100da92591e2d48f1c4da8d21326904e230d9eaa25e3248c42b3ab5cacf506728d302204aeba26e360b2253f7e0d00ea95eb779337600540b2a4e9801699c83c705b5d2012102da10c54c179ec4baef68153420f5ae56ae5241730c5e9b19441dd33156563566ffffffff028c1d0100000000001976a914a2cd19c496ced18d8c049558f4f1f99e81e3c8e988acfc180e00000000001976a914b9c0a40761fa6b425dd7351a0bfeebaaa389790a88ac00000000", "vin": [{"sequence": 4294967295, "scriptSig": {"hex": "483045022100da92591e2d48f1c4da8d21326904e230d9eaa25e3248c42b3ab5cacf506728d302204aeba26e360b2253f7e0d00ea95eb779337600540b2a4e9801699c83c705b5d2012102da10c54c179ec4baef68153420f5ae56ae5241730c5e9b19441dd33156563566", "asm": "3045022100da92591e2d48f1c4da8d21326904e230d9eaa25e3248c42b3ab5cacf506728d302204aeba26e360b2253f7e0d00ea95eb779337600540b2a4e9801699c83c705b5d2[ALL] 02da10c54c179ec4baef68153420f5ae56ae5241730c5e9b19441dd33156563566"}, "vout": 1, "txid": "c4c3a74d2b661cd2ebdb61727b4983647d401eb59cd8af4e07f6bf68d1ff2a21"}], "txid": "b4603125fd825995c8678676ad78601e069b13013c5cc86b700c0240e54c0003", "blocktime": 1537872018, "version": 1, "confirmations": 11489, "time": 1537872018, "locktime": 0, "vsize": 226, "size": 226}