{"hash": "b46515b49df23853d698f925242012c7623c1104887a6118e8008f9fe34f392f", "blockhash": "0000000000000000000e13cef7c366c0283d82e591d1acd082e914b08063cdf1", "vout": [{"scriptPubKey": {"reqSigs": 1, "hex": "76a9149c70b89f6ae4ba412793d5ee3ab2b9671b03c34688ac", "addresses": ["1FGBSvyaQGSMwC47hBBk4fr66bsv1N8rXt"], "asm": "OP_DUP OP_HASH160 9c70b89f6ae4ba412793d5ee3ab2b9671b03c346 OP_EQUALVERIFY OP_CHECKSIG", "type": "pubkeyhash"}, "value": 2.773e-05, "n": 0}, {"scriptPubKey": {"reqSigs": 1, "hex": "76a9149b08fc1b4c7a56288f6b3ed464edce2a0e01386088ac", "addresses": ["1F8kW1TqCHyLiN8H2LyTyUWQS5qyryybxX"], "asm": "OP_DUP OP_HASH160 9b08fc1b4c7a56288f6b3ed464edce2a0e013860 OP_EQUALVERIFY OP_CHECKSIG", "type": "pubkeyhash"}, "value": 0.249968, "n": 1}], "hex": "010000000a365d53356305f558c9d7b3c4d9a22e253cdc03ee05848938fa615dea7131ab271a0000006b483045022100be9d63405a8433352ff23194bb10a26a0d510fa55d73cca4b6e0dc97df1dd309022041538dc99aecc467e9b228c280802c1cc4539a11043456bfd5dac3e1fbf87323012102f5a6c632fd57e0f925ddac75abb7ad94333fc84e4c9b58a13fe3a2c073cfb132ffffffff71bb27fa982f3ef9d194f679a5cc0b2c487bfcf08e4279ce9c0d22f9c8659b2f000000006b483045022100a6018dd52dc05ff572b6105b7b2c714bf0a61f1133401f0b8a17c190d2837b1502201aacb58d6999da900e2350361233196dda0cdb4f1341d10fcedb4072df273047012102f5a6c632fd57e0f925ddac75abb7ad94333fc84e4c9b58a13fe3a2c073cfb132ffffffffd8011e291361efdbb69453f16abe3aea5e8270abe8032d177306856bc4d3953d000000006a47304402207d42e0a5aa6f6e13fdd41f4d651658ecbc25ef476bc640f4fc14776c5d6f350a0220522a278a3cc3ba82719e627903738d3f4e35d003c01411a99d2b1fda64367daa012102f5a6c632fd57e0f925ddac75abb7ad94333fc84e4c9b58a13fe3a2c073cfb132ffffffff28a62daa70755b9cf62fb307025f940bf6b74f884604386f0f6a129c65a44b53010000006a47304402204873dfa0d743e1d2f954fb65c29a1feedf1b45f3fb28a6421548b2c72417c784022068abff8e74c5c801cb1d7579ebcbd7dc2f4d17f65cfdb7c0ad13b10c5af5f1fe012103749cd8802517d9e0da7156086cc3f76a96a1d4ff9bd9c4eee47cbb7ca8143558ffffffff5d8f88298651a055d559740f00adf51ef6d09dbcbe2e0c28bc4696d04931036a010000006b483045022100d48f7dbbd956746e9b6c0ae3bd9d76986095acf9fd9bf671e1630fb2e42dfe130220176c4646c16d9e30096cf5618a0930bffb9e75c6ef64dd75c92dd88532189c38012102707376ac0a4e0ec3d6cd8854070ada59dff0fcd33a5ec058e9c242c650c8ccaaffffffff7cb5c5ab92d39fd5816510abb15238051e89eeb1e8a224e43f939ca3dcedaa9a010000006a473044022059bb0c980b06df873b1b93d1ae9018aa38ce705b82f2568998aeafb9d6490356022038a035be9bac8f512b3688c1f6734c820b79186f4bd6e7922c4f129443ec48ae0121021bdcdfd89bd93fc7adc3af6d57114b60823ddb6b6e6cc1e331ece11436174867ffffffff0bfa6b4cf640c822838ea906d25d66d6adbd3dc72899491cd6acec5f65c240a1180000006a47304402205727f6405cfb9e9d1c463a17fd08dadf0006747eca712323073095d11433a62c02204568112964432eddec9c2d6e40aa4404999a50611a8d58f0958dd37fa644542f012102f5a6c632fd57e0f925ddac75abb7ad94333fc84e4c9b58a13fe3a2c073cfb132ffffffff2f39f9e9a77a34835c67bdcfdd54d7acbd73da80ef112caddf6e07464e1939c6000000006b4830450221009533fc3a005cc2d84305010e980ac79677da61755edd170a87f8310f43335edd02200b0d75f4471472b7e0989f15a94b279b7ea911a6f04b9574b180b3ba594b0e50012103da089d6ed59741f8bbe2051c8bc9da775859cf08020515a5d8d30fe151a9da2fffffffff94081a3c3b869ced4b6710f72de231d2cce0560aaa3ffcc8d434bf7f2762b4c7000000006b4830450221008ef69294b5407f797f9392d00a6f2db69eaa586ba01313dcbe91b3f61ed5ad400220351ac82b1e5e24fb704ef22dbd5fd935b85c3fc3b2849b8b054f330fe9d0b3df012102208a5c4b9472c1c3f237874f46555f39f5a95ec27527a5b82452fdffb3c69da1ffffffff004361c6a1cca74572f3a28326545fad347bc7e55b5f149755767fc0ebf721c8010000006a47304402200bee097408c2596eeba118623c02e80bfeda0f33cdc224ed8581f4acaadeb995022020ffa7494751e0991b220799e196a5fea7d7c781f8aa0ed5033919a6bcfa603c012102fe0f4da2cc57e7f7a59d1e08ef35046e04e22f1005ca9bd2b26756bd5fa2a42dffffffff02d50a0000000000001976a9149c70b89f6ae4ba412793d5ee3ab2b9671b03c34688acc06b7d01000000001976a9149b08fc1b4c7a56288f6b3ed464edce2a0e01386088ac00000000", "vin": [{"sequence": 4294967295, "scriptSig": {"hex": "483045022100be9d63405a8433352ff23194bb10a26a0d510fa55d73cca4b6e0dc97df1dd309022041538dc99aecc467e9b228c280802c1cc4539a11043456bfd5dac3e1fbf87323012102f5a6c632fd57e0f925ddac75abb7ad94333fc84e4c9b58a13fe3a2c073cfb132", "asm": "3045022100be9d63405a8433352ff23194bb10a26a0d510fa55d73cca4b6e0dc97df1dd309022041538dc99aecc467e9b228c280802c1cc4539a11043456bfd5dac3e1fbf87323[ALL] 02f5a6c632fd57e0f925ddac75abb7ad94333fc84e4c9b58a13fe3a2c073cfb132"}, "vout": 26, "txid": "27ab3171ea5d61fa38898405ee03dc3c252ea2d9c4b3d7c958f5056335535d36"}, {"sequence": 4294967295, "scriptSig": {"hex": "483045022100a6018dd52dc05ff572b6105b7b2c714bf0a61f1133401f0b8a17c190d2837b1502201aacb58d6999da900e2350361233196dda0cdb4f1341d10fcedb4072df273047012102f5a6c632fd57e0f925ddac75abb7ad94333fc84e4c9b58a13fe3a2c073cfb132", "asm": "3045022100a6018dd52dc05ff572b6105b7b2c714bf0a61f1133401f0b8a17c190d2837b1502201aacb58d6999da900e2350361233196dda0cdb4f1341d10fcedb4072df273047[ALL] 02f5a6c632fd57e0f925ddac75abb7ad94333fc84e4c9b58a13fe3a2c073cfb132"}, "vout": 0, "txid": "2f9b65c8f9220d9cce79428ef0fc7b482c0bcca579f694d1f93e2f98fa27bb71"}, {"sequence": 4294967295, "scriptSig": {"hex": "47304402207d42e0a5aa6f6e13fdd41f4d651658ecbc25ef476bc640f4fc14776c5d6f350a0220522a278a3cc3ba82719e627903738d3f4e35d003c01411a99d2b1fda64367daa012102f5a6c632fd57e0f925ddac75abb7ad94333fc84e4c9b58a13fe3a2c073cfb132", "asm": "304402207d42e0a5aa6f6e13fdd41f4d651658ecbc25ef476bc640f4fc14776c5d6f350a0220522a278a3cc3ba82719e627903738d3f4e35d003c01411a99d2b1fda64367daa[ALL] 02f5a6c632fd57e0f925ddac75abb7ad94333fc84e4c9b58a13fe3a2c073cfb132"}, "vout": 0, "txid": "3d95d3c46b850673172d03e8ab70825eea3abe6af15394b6dbef6113291e01d8"}, {"sequence": 4294967295, "scriptSig": {"hex": "47304402204873dfa0d743e1d2f954fb65c29a1feedf1b45f3fb28a6421548b2c72417c784022068abff8e74c5c801cb1d7579ebcbd7dc2f4d17f65cfdb7c0ad13b10c5af5f1fe012103749cd8802517d9e0da7156086cc3f76a96a1d4ff9bd9c4eee47cbb7ca8143558", "asm": "304402204873dfa0d743e1d2f954fb65c29a1feedf1b45f3fb28a6421548b2c72417c784022068abff8e74c5c801cb1d7579ebcbd7dc2f4d17f65cfdb7c0ad13b10c5af5f1fe[ALL] 03749cd8802517d9e0da7156086cc3f76a96a1d4ff9bd9c4eee47cbb7ca8143558"}, "vout": 1, "txid": "534ba4659c126a0f6f380446884fb7f60b945f0207b32ff69c5b7570aa2da628"}, {"sequence": 4294967295, "scriptSig": {"hex": "483045022100d48f7dbbd956746e9b6c0ae3bd9d76986095acf9fd9bf671e1630fb2e42dfe130220176c4646c16d9e30096cf5618a0930bffb9e75c6ef64dd75c92dd88532189c38012102707376ac0a4e0ec3d6cd8854070ada59dff0fcd33a5ec058e9c242c650c8ccaa", "asm": "3045022100d48f7dbbd956746e9b6c0ae3bd9d76986095acf9fd9bf671e1630fb2e42dfe130220176c4646c16d9e30096cf5618a0930bffb9e75c6ef64dd75c92dd88532189c38[ALL] 02707376ac0a4e0ec3d6cd8854070ada59dff0fcd33a5ec058e9c242c650c8ccaa"}, "vout": 1, "txid": "6a033149d09646bc280c2ebebc9dd0f61ef5ad000f7459d555a0518629888f5d"}, {"sequence": 4294967295, "scriptSig": {"hex": "473044022059bb0c980b06df873b1b93d1ae9018aa38ce705b82f2568998aeafb9d6490356022038a035be9bac8f512b3688c1f6734c820b79186f4bd6e7922c4f129443ec48ae0121021bdcdfd89bd93fc7adc3af6d57114b60823ddb6b6e6cc1e331ece11436174867", "asm": "3044022059bb0c980b06df873b1b93d1ae9018aa38ce705b82f2568998aeafb9d6490356022038a035be9bac8f512b3688c1f6734c820b79186f4bd6e7922c4f129443ec48ae[ALL] 021bdcdfd89bd93fc7adc3af6d57114b60823ddb6b6e6cc1e331ece11436174867"}, "vout": 1, "txid": "9aaaeddca39c933fe424a2e8b1ee891e053852b1ab106581d59fd392abc5b57c"}, {"sequence": 4294967295, "scriptSig": {"hex": "47304402205727f6405cfb9e9d1c463a17fd08dadf0006747eca712323073095d11433a62c02204568112964432eddec9c2d6e40aa4404999a50611a8d58f0958dd37fa644542f012102f5a6c632fd57e0f925ddac75abb7ad94333fc84e4c9b58a13fe3a2c073cfb132", "asm": "304402205727f6405cfb9e9d1c463a17fd08dadf0006747eca712323073095d11433a62c02204568112964432eddec9c2d6e40aa4404999a50611a8d58f0958dd37fa644542f[ALL] 02f5a6c632fd57e0f925ddac75abb7ad94333fc84e4c9b58a13fe3a2c073cfb132"}, "vout": 24, "txid": "a140c2655fecacd61c499928c73dbdadd6665dd206a98e8322c840f64c6bfa0b"}, {"sequence": 4294967295, "scriptSig": {"hex": "4830450221009533fc3a005cc2d84305010e980ac79677da61755edd170a87f8310f43335edd02200b0d75f4471472b7e0989f15a94b279b7ea911a6f04b9574b180b3ba594b0e50012103da089d6ed59741f8bbe2051c8bc9da775859cf08020515a5d8d30fe151a9da2f", "asm": "30450221009533fc3a005cc2d84305010e980ac79677da61755edd170a87f8310f43335edd02200b0d75f4471472b7e0989f15a94b279b7ea911a6f04b9574b180b3ba594b0e50[ALL] 03da089d6ed59741f8bbe2051c8bc9da775859cf08020515a5d8d30fe151a9da2f"}, "vout": 0, "txid": "c639194e46076edfad2c11ef80da73bdacd754ddcfbd675c83347aa7e9f9392f"}, {"sequence": 4294967295, "scriptSig": {"hex": "4830450221008ef69294b5407f797f9392d00a6f2db69eaa586ba01313dcbe91b3f61ed5ad400220351ac82b1e5e24fb704ef22dbd5fd935b85c3fc3b2849b8b054f330fe9d0b3df012102208a5c4b9472c1c3f237874f46555f39f5a95ec27527a5b82452fdffb3c69da1", "asm": "30450221008ef69294b5407f797f9392d00a6f2db69eaa586ba01313dcbe91b3f61ed5ad400220351ac82b1e5e24fb704ef22dbd5fd935b85c3fc3b2849b8b054f330fe9d0b3df[ALL] 02208a5c4b9472c1c3f237874f46555f39f5a95ec27527a5b82452fdffb3c69da1"}, "vout": 0, "txid": "c7b462277fbf34d4c8fc3faa0a56e0ccd231e22df710674bed9c863b3c1a0894"}, {"sequence": 4294967295, "scriptSig": {"hex": "47304402200bee097408c2596eeba118623c02e80bfeda0f33cdc224ed8581f4acaadeb995022020ffa7494751e0991b220799e196a5fea7d7c781f8aa0ed5033919a6bcfa603c012102fe0f4da2cc57e7f7a59d1e08ef35046e04e22f1005ca9bd2b26756bd5fa2a42d", "asm": "304402200bee097408c2596eeba118623c02e80bfeda0f33cdc224ed8581f4acaadeb995022020ffa7494751e0991b220799e196a5fea7d7c781f8aa0ed5033919a6bcfa603c[ALL] 02fe0f4da2cc57e7f7a59d1e08ef35046e04e22f1005ca9bd2b26756bd5fa2a42d"}, "vout": 1, "txid": "c821f7ebc07f765597145f5be5c77b34ad5f542683a2f37245a7cca1c6614300"}], "txid": "b46515b49df23853d698f925242012c7623c1104887a6118e8008f9fe34f392f", "blocktime": 1537871767, "version": 1, "confirmations": 11491, "time": 1537871767, "locktime": 0, "vsize": 1553, "size": 1553}