{"hash": "50003ebf0bd41c3dd9ccb11f776457caf621799c94c20da8799bd074e1bddd7c", "blockhash": "0000000000000000001f76057863aec43deb6fa401d9628bb513d65a8098bfab", "vout": [{"scriptPubKey": {"reqSigs": 1, "hex": "a91461538883f3b5bac01586ebb1462eeda37476174e87", "addresses": ["3AZdY9KLUX3qjCrBqqB5Mj948YURBqRg9b"], "asm": "OP_HASH160 61538883f3b5bac01586ebb1462eeda37476174e OP_EQUAL", "type": "scripthash"}, "value": 0.05185252, "n": 0}, {"scriptPubKey": {"type": "nulldata", "hex": "6a20a39bf14b74ff9da1d0401ce535086b84d69c89ace424c827182fecda2705f2e7", "asm": "OP_RETURN a39bf14b74ff9da1d0401ce535086b84d69c89ace424c827182fecda2705f2e7"}, "value": 0.0, "n": 1}], "hex": "010000000001015aab349cfbbd9dacfe0b7f3ec7f728c6e4d0053bdc71db106218856908eab60300000000171600149027f6dbabadb192bf28db3c163835da14cc416afdffffff02e41e4f000000000017a91461538883f3b5bac01586ebb1462eeda37476174e870000000000000000226a20a39bf14b74ff9da1d0401ce535086b84d69c89ace424c827182fecda2705f2e70247304402207b8c74029b3348a203ba1034df989d8a7b9d03671fd3963f6b59649a2ca09052022035fe702fe38bcc692785205431cb2f55f70fb46751e25ad787403a3cd71e1171012102eaeef0a09ce84f771003b42a233683415a64412d6751d24d2c08313c4f2dc7c114490800", "vin": [{"txinwitness": ["304402207b8c74029b3348a203ba1034df989d8a7b9d03671fd3963f6b59649a2ca09052022035fe702fe38bcc692785205431cb2f55f70fb46751e25ad787403a3cd71e117101", "02eaeef0a09ce84f771003b42a233683415a64412d6751d24d2c08313c4f2dc7c1"], "sequence": 4294967293, "scriptSig": {"hex": "1600149027f6dbabadb192bf28db3c163835da14cc416a", "asm": "00149027f6dbabadb192bf28db3c163835da14cc416a"}, "vout": 0, "txid": "03b6ea086985186210db71dc3b05d0e4c628f7c73e7f0bfeac9dbdfb9c34ab5a"}], "txid": "b4671b2a76f9832d24de08807b187906e9a0f9c09ffae5d5406a4431a63eba14", "blocktime": 1537873891, "version": 1, "confirmations": 11479, "time": 1537873891, "locktime": 542996, "vsize": 177, "size": 258}