{"hash": "b467009e0c7dd38ad940a7546085074bfba709d604f19866c218b06b570fecfb", "blockhash": "0000000000000000000e13cef7c366c0283d82e591d1acd082e914b08063cdf1", "vout": [{"scriptPubKey": {"reqSigs": 1, "hex": "76a9149c5d8811e6609d96c7569bb219d324e3033333e788ac", "addresses": ["1FFnTcN3DPmRUffezTVs6NRPji8JJsdSjn"], "asm": "OP_DUP OP_HASH160 9c5d8811e6609d96c7569bb219d324e3033333e7 OP_EQUALVERIFY OP_CHECKSIG", "type": "pubkeyhash"}, "value": 1.175e-05, "n": 0}, {"scriptPubKey": {"reqSigs": 1, "hex": "76a914f32b69211bea4466ea25b55963a793cee450fcfa88ac", "addresses": ["1PAmCqkCYa7oj3CARG6QXixNxeCASuATYP"], "asm": "OP_DUP OP_HASH160 f32b69211bea4466ea25b55963a793cee450fcfa OP_EQUALVERIFY OP_CHECKSIG", "type": "pubkeyhash"}, "value": 0.00025, "n": 1}], "hex": "01000000012c655363456a87e9466de8a8a5184411113cf8d5a0811aea4f4bb835228d6070000000006b483045022100963417d15941c4c3e2be22e9e6dbe2c9613b6ed512c46dbcb6f806de083c2d650220053cdb6c8a262734b5a91d3b0a1955a5f3254d80c8f2acba501585b4ac99ef03012102278d2115f4179cf7f0974cb9ec9539a5fb61388135211550234b505c16fbc8b2ffffffff0297040000000000001976a9149c5d8811e6609d96c7569bb219d324e3033333e788aca8610000000000001976a914f32b69211bea4466ea25b55963a793cee450fcfa88ac00000000", "vin": [{"sequence": 4294967295, "scriptSig": {"hex": "483045022100963417d15941c4c3e2be22e9e6dbe2c9613b6ed512c46dbcb6f806de083c2d650220053cdb6c8a262734b5a91d3b0a1955a5f3254d80c8f2acba501585b4ac99ef03012102278d2115f4179cf7f0974cb9ec9539a5fb61388135211550234b505c16fbc8b2", "asm": "3045022100963417d15941c4c3e2be22e9e6dbe2c9613b6ed512c46dbcb6f806de083c2d650220053cdb6c8a262734b5a91d3b0a1955a5f3254d80c8f2acba501585b4ac99ef03[ALL] 02278d2115f4179cf7f0974cb9ec9539a5fb61388135211550234b505c16fbc8b2"}, "vout": 0, "txid": "70608d2235b84b4fea1a81a0d5f83c11114418a5a8e86d46e9876a456353652c"}], "txid": "b467009e0c7dd38ad940a7546085074bfba709d604f19866c218b06b570fecfb", "blocktime": 1537871767, "version": 1, "confirmations": 11495, "time": 1537871767, "locktime": 0, "vsize": 226, "size": 226}