{"hash": "b46c5aff5bad3e7819629ea1b210707b843f9a43d612106da66b7412d74f6ad9", "blockhash": "0000000000000000000baef3f32e3676a92c3b2e5da21b426e4f302fc371ce76", "vout": [{"scriptPubKey": {"reqSigs": 1, "hex": "76a91480a6aec73337828cdcd51bb3b20c071aca8bc5a788ac", "addresses": ["1CjFAseTU8R7cpFen1njxmmr9akcFVdYp9"], "asm": "OP_DUP OP_HASH160 80a6aec73337828cdcd51bb3b20c071aca8bc5a7 OP_EQUALVERIFY OP_CHECKSIG", "type": "pubkeyhash"}, "value": 0.0139, "n": 0}, {"scriptPubKey": {"reqSigs": 1, "hex": "a914e370231feecbfc25e2e2423a5a79bf79bfdca59887", "addresses": ["3NRbeX3vD5VaVE4TDU9ivCDsEf7NPPte6J"], "asm": "OP_HASH160 e370231feecbfc25e2e2423a5a79bf79bfdca598 OP_EQUAL", "type": "scripthash"}, "value": 8.95296064, "n": 1}], "hex": "010000000104f29667f201e527fa06fc36823bbae3960dffe5559815ba70f0b756a03db51601000000db00483045022100e7702055c25c41826cc6df665b416f0a45d377f0aa6c7bdcb86f2a6bfae5e69902206cd1c3a8afb1d693b6240cac09e095697b27dc51035d4cb075caad4ffb706a2401483045022100987761754b4d5e7d9cd6e40fad9867c8226cb91b10ef9723bd8d3eb224568f6f022062b9582e5f585ff2c9505a3e57a22171e7a5d8341089d8e3f06adb3cb561ee66014752210327881b6abce6535553a3ce21fad12a7d74fd237ce7c4cd270a267162344e3082210256141f8eb687f5a68c5cc65054652dc25116fa285e44d72b44368827ffe77d9a52aeffffffff02b0351500000000001976a91480a6aec73337828cdcd51bb3b20c071aca8bc5a788ac40225d350000000017a914e370231feecbfc25e2e2423a5a79bf79bfdca5988700000000", "vin": [{"sequence": 4294967295, "scriptSig": {"hex": "00483045022100e7702055c25c41826cc6df665b416f0a45d377f0aa6c7bdcb86f2a6bfae5e69902206cd1c3a8afb1d693b6240cac09e095697b27dc51035d4cb075caad4ffb706a2401483045022100987761754b4d5e7d9cd6e40fad9867c8226cb91b10ef9723bd8d3eb224568f6f022062b9582e5f585ff2c9505a3e57a22171e7a5d8341089d8e3f06adb3cb561ee66014752210327881b6abce6535553a3ce21fad12a7d74fd237ce7c4cd270a267162344e3082210256141f8eb687f5a68c5cc65054652dc25116fa285e44d72b44368827ffe77d9a52ae", "asm": "0 3045022100e7702055c25c41826cc6df665b416f0a45d377f0aa6c7bdcb86f2a6bfae5e69902206cd1c3a8afb1d693b6240cac09e095697b27dc51035d4cb075caad4ffb706a24[ALL] 3045022100987761754b4d5e7d9cd6e40fad9867c8226cb91b10ef9723bd8d3eb224568f6f022062b9582e5f585ff2c9505a3e57a22171e7a5d8341089d8e3f06adb3cb561ee66[ALL] 52210327881b6abce6535553a3ce21fad12a7d74fd237ce7c4cd270a267162344e3082210256141f8eb687f5a68c5cc65054652dc25116fa285e44d72b44368827ffe77d9a52ae"}, "vout": 1, "txid": "16b53da056b7f070ba159855e5ff0d96e3ba3b8236fc06fa27e501f26796f204"}], "txid": "b46c5aff5bad3e7819629ea1b210707b843f9a43d612106da66b7412d74f6ad9", "blocktime": 1537876114, "version": 1, "confirmations": 11460, "time": 1537876114, "locktime": 0, "vsize": 336, "size": 336}