{"hash": "b4761e6e86a536481c90ad473adf93419e82cab553f1bef1169be022877a254f", "blockhash": "00000000000000000024a2167bbff67b0be802c0b01cdd79e6331c2be6459f87", "vout": [{"scriptPubKey": {"reqSigs": 1, "hex": "a914668c9ccfab8f9b8bc83820b210b664ec0f317a2987", "addresses": ["3B3FJ3M7UCvGDzJMCZVSP9ZrX8sSaGZ6aF"], "asm": "OP_HASH160 668c9ccfab8f9b8bc83820b210b664ec0f317a29 OP_EQUAL", "type": "scripthash"}, "value": 0.00671765, "n": 0}], "hex": "010000000381ebc5a39a9ef7924be36b0f66c47239d65c82892013c619fe87abca0147e3ba010000006a47304402203750f42f1919355ecb6f4a34d7238aec4df26e9759bcb928ba3d792696c4b0010220310b263288fe4760a92592549310fb6fef3543fc89ea6214c336d58483da092b012102118b6aa3dc6014da9f591ea35fc0ab55d5bd3506ee37e6e0322ed59a53fb96d0ffffffff85db1f8b0115018b2c9352c8358b4323461ecf3ffb7ad3e57179acd24822cc97010000006a4730440220717c937b70cf28911907c23cda1c523ac3dccac0aa4beb7250a950596d3a20900220292764732bfe071f30df3b7f9b804a2b1607707724b986d2064fe5478dae95c30121020c659255eead6e0ced9dc89215bb3f368e8d54743bbc99edf5f3ba328124f568ffffffff9f170acd42ec5de6e0e270f8b43d07e96a4c1e3f66e3abf44950239092ad5c13010000006a47304402204d319b02bdd87246fd65f7a3efe7cf6b90ca0f3390a5da227d25daa1f942f45b02201e0bad45913ee1d389c560c0d6a581733f185c5bc5e74db91e986ffc613338ec01210348471329590667277c4b1f0b0319d28b2dc5dcb37238d409dc1567035a4b20f9ffffffff0115400a000000000017a914668c9ccfab8f9b8bc83820b210b664ec0f317a298700000000", "vin": [{"sequence": 4294967295, "scriptSig": {"hex": "47304402203750f42f1919355ecb6f4a34d7238aec4df26e9759bcb928ba3d792696c4b0010220310b263288fe4760a92592549310fb6fef3543fc89ea6214c336d58483da092b012102118b6aa3dc6014da9f591ea35fc0ab55d5bd3506ee37e6e0322ed59a53fb96d0", "asm": "304402203750f42f1919355ecb6f4a34d7238aec4df26e9759bcb928ba3d792696c4b0010220310b263288fe4760a92592549310fb6fef3543fc89ea6214c336d58483da092b[ALL] 02118b6aa3dc6014da9f591ea35fc0ab55d5bd3506ee37e6e0322ed59a53fb96d0"}, "vout": 1, "txid": "bae34701caab87fe19c6132089825cd63972c4660f6be34b92f79e9aa3c5eb81"}, {"sequence": 4294967295, "scriptSig": {"hex": "4730440220717c937b70cf28911907c23cda1c523ac3dccac0aa4beb7250a950596d3a20900220292764732bfe071f30df3b7f9b804a2b1607707724b986d2064fe5478dae95c30121020c659255eead6e0ced9dc89215bb3f368e8d54743bbc99edf5f3ba328124f568", "asm": "30440220717c937b70cf28911907c23cda1c523ac3dccac0aa4beb7250a950596d3a20900220292764732bfe071f30df3b7f9b804a2b1607707724b986d2064fe5478dae95c3[ALL] 020c659255eead6e0ced9dc89215bb3f368e8d54743bbc99edf5f3ba328124f568"}, "vout": 1, "txid": "97cc2248d2ac7971e5d37afb3fcf1e4623438b35c852932c8b0115018b1fdb85"}, {"sequence": 4294967295, "scriptSig": {"hex": "47304402204d319b02bdd87246fd65f7a3efe7cf6b90ca0f3390a5da227d25daa1f942f45b02201e0bad45913ee1d389c560c0d6a581733f185c5bc5e74db91e986ffc613338ec01210348471329590667277c4b1f0b0319d28b2dc5dcb37238d409dc1567035a4b20f9", "asm": "304402204d319b02bdd87246fd65f7a3efe7cf6b90ca0f3390a5da227d25daa1f942f45b02201e0bad45913ee1d389c560c0d6a581733f185c5bc5e74db91e986ffc613338ec[ALL] 0348471329590667277c4b1f0b0319d28b2dc5dcb37238d409dc1567035a4b20f9"}, "vout": 1, "txid": "135cad9290235049f4abe3663f1e4c6ae9073db4f870e2e0e65dec42cd0a179f"}], "txid": "b4761e6e86a536481c90ad473adf93419e82cab553f1bef1169be022877a254f", "blocktime": 1537870564, "version": 1, "confirmations": 11515, "time": 1537870564, "locktime": 0, "vsize": 483, "size": 483}