{"hash": "b476a082c4dbe30d24dec45d1781e47301922353e4464d45b1ae6496c3228632", "blockhash": "0000000000000000000e13cef7c366c0283d82e591d1acd082e914b08063cdf1", "vout": [{"scriptPubKey": {"reqSigs": 1, "hex": "76a9144c3e88bb090def11ff328c42ac36d3db06e634d888ac", "addresses": ["17x9GXSWh9pSXt72qH4JJqjRnTohCAN61i"], "asm": "OP_DUP OP_HASH160 4c3e88bb090def11ff328c42ac36d3db06e634d8 OP_EQUALVERIFY OP_CHECKSIG", "type": "pubkeyhash"}, "value": 0.02024, "n": 0}, {"scriptPubKey": {"reqSigs": 1, "hex": "76a9141694060ed14123c1b5d592594e15ea6115f4f15388ac", "addresses": ["134PC5v1D64S3P7Be66cDwfDAGA7TkiFMW"], "asm": "OP_DUP OP_HASH160 1694060ed14123c1b5d592594e15ea6115f4f153 OP_EQUALVERIFY OP_CHECKSIG", "type": "pubkeyhash"}, "value": 0.01564416, "n": 1}], "hex": "01000000018fb4268c9aeda7cd5d30c579cc251559403fca32955780dcd1c91899da70523b000000006a4730440220420446b8ba430056e7c4dea4047313aa5f959875d1f8d0b27a5f4c23ce85e033022059c8f4c5ad82700a152dfaaddda77b73c5e2ea37a52d3b6e35dba7a5dd68774f012103e5755cedb7ed885af0f4d16569c14ddf9f8cf26f9649f5c12a350d6431b1c8a7ffffffff0240e21e00000000001976a9144c3e88bb090def11ff328c42ac36d3db06e634d888ac00df1700000000001976a9141694060ed14123c1b5d592594e15ea6115f4f15388ac00000000", "vin": [{"sequence": 4294967295, "scriptSig": {"hex": "4730440220420446b8ba430056e7c4dea4047313aa5f959875d1f8d0b27a5f4c23ce85e033022059c8f4c5ad82700a152dfaaddda77b73c5e2ea37a52d3b6e35dba7a5dd68774f012103e5755cedb7ed885af0f4d16569c14ddf9f8cf26f9649f5c12a350d6431b1c8a7", "asm": "30440220420446b8ba430056e7c4dea4047313aa5f959875d1f8d0b27a5f4c23ce85e033022059c8f4c5ad82700a152dfaaddda77b73c5e2ea37a52d3b6e35dba7a5dd68774f[ALL] 03e5755cedb7ed885af0f4d16569c14ddf9f8cf26f9649f5c12a350d6431b1c8a7"}, "vout": 0, "txid": "3b5270da9918c9d1dc80579532ca3f40591525cc79c5305dcda7ed9a8c26b48f"}], "txid": "b476a082c4dbe30d24dec45d1781e47301922353e4464d45b1ae6496c3228632", "blocktime": 1537871767, "version": 1, "confirmations": 11495, "time": 1537871767, "locktime": 0, "vsize": 225, "size": 225}