{"hash": "b47718f5f1a92f14268500b46fd488ec299c1d146b43c14dce8b1a309a7bb220", "blockhash": "0000000000000000001f76057863aec43deb6fa401d9628bb513d65a8098bfab", "vout": [{"scriptPubKey": {"type": "nulldata", "hex": "6a146f6d6e69000000000000001f000000e8d4a51000", "asm": "OP_RETURN 6f6d6e69000000000000001f000000e8d4a51000"}, "value": 0.0, "n": 0}, {"scriptPubKey": {"reqSigs": 1, "hex": "76a9140d588c978760459b6520464f7b71fe4022201d9388ac", "addresses": ["12DZrzxEpad8uP413qWyesNt26hSpbJnxk"], "asm": "OP_DUP OP_HASH160 0d588c978760459b6520464f7b71fe4022201d93 OP_EQUALVERIFY OP_CHECKSIG", "type": "pubkeyhash"}, "value": 0.00498065, "n": 1}, {"scriptPubKey": {"reqSigs": 1, "hex": "76a914a25dec4d0011064ef106a983c39c7a540699f22088ac", "addresses": ["1FoWyxwPXuj4C6abqwhjDWdz6D4PZgYRjA"], "asm": "OP_DUP OP_HASH160 a25dec4d0011064ef106a983c39c7a540699f220 OP_EQUALVERIFY OP_CHECKSIG", "type": "pubkeyhash"}, "value": 5.46e-06, "n": 2}], "hex": "0100000002a5f1378b3b68b30b4e292c64f39913bf33ea3dddf84b0aee0bf96392cea3a0f7020000006a47304402206c0731adc4a330898a0896488ed06580334eae69e0175cbb931db3c6a251fd7d02204b392582279bf3b8237f29002dc2060df4df503f0d886671f809c2bdcd2c8245012103049d55470faa71a7be7f0c3b04e425301cc182055bab9630604be9f5067596ddfeffffff4d96260d1131cbc42c8648d786961e184f3abe14b4234ad0073c668c8bb1d05a020000006b4830450221008c6a527436315bdca0695ebd5721b79333948c596cb2936d4bccc477ec9266e0022035dee6e53199be74dd75598a91aa149a32a4d574c1d6977587a6332834041a97012103049d55470faa71a7be7f0c3b04e425301cc182055bab9630604be9f5067596ddfeffffff030000000000000000166a146f6d6e69000000000000001f000000e8d4a5100091990700000000001976a9140d588c978760459b6520464f7b71fe4022201d9388ac22020000000000001976a914a25dec4d0011064ef106a983c39c7a540699f22088ac13490800", "vin": [{"sequence": 4294967294, "scriptSig": {"hex": "47304402206c0731adc4a330898a0896488ed06580334eae69e0175cbb931db3c6a251fd7d02204b392582279bf3b8237f29002dc2060df4df503f0d886671f809c2bdcd2c8245012103049d55470faa71a7be7f0c3b04e425301cc182055bab9630604be9f5067596dd", "asm": "304402206c0731adc4a330898a0896488ed06580334eae69e0175cbb931db3c6a251fd7d02204b392582279bf3b8237f29002dc2060df4df503f0d886671f809c2bdcd2c8245[ALL] 03049d55470faa71a7be7f0c3b04e425301cc182055bab9630604be9f5067596dd"}, "vout": 2, "txid": "f7a0a3ce9263f90bee0a4bf8dd3dea33bf1399f3642c294e0bb3683b8b37f1a5"}, {"sequence": 4294967294, "scriptSig": {"hex": "4830450221008c6a527436315bdca0695ebd5721b79333948c596cb2936d4bccc477ec9266e0022035dee6e53199be74dd75598a91aa149a32a4d574c1d6977587a6332834041a97012103049d55470faa71a7be7f0c3b04e425301cc182055bab9630604be9f5067596dd", "asm": "30450221008c6a527436315bdca0695ebd5721b79333948c596cb2936d4bccc477ec9266e0022035dee6e53199be74dd75598a91aa149a32a4d574c1d6977587a6332834041a97[ALL] 03049d55470faa71a7be7f0c3b04e425301cc182055bab9630604be9f5067596dd"}, "vout": 2, "txid": "5ad0b18b8c663c07d04a23b414be3a4f181e9686d748862cc4cb31110d26964d"}], "txid": "b47718f5f1a92f14268500b46fd488ec299c1d146b43c14dce8b1a309a7bb220", "blocktime": 1537873891, "version": 1, "confirmations": 11478, "time": 1537873891, "locktime": 542995, "vsize": 404, "size": 404}