{"hash": "33a13a2f4a48574bd48b453384533f9fe80049a76ef265993a64236e2b2e770e", "blockhash": "0000000000000000000e13cef7c366c0283d82e591d1acd082e914b08063cdf1", "vout": [{"scriptPubKey": {"reqSigs": 1, "hex": "a914b44337f216fcdcf0a5895a72e8c4169a68ef293e87", "addresses": ["3J8A5VuG2KUQmCweiwHBDfv67VqWTciCM2"], "asm": "OP_HASH160 b44337f216fcdcf0a5895a72e8c4169a68ef293e OP_EQUAL", "type": "scripthash"}, "value": 0.01186759, "n": 0}], "hex": "01000000000101004a4f0b4bfa4cf85d8bdbad0500b76aa9391d06ec58a940e7856562476cf24e0000000017160014d23117bd1d8e083ba76caf495063f1e1b68f5e4dffffffff01c71b12000000000017a914b44337f216fcdcf0a5895a72e8c4169a68ef293e8702483045022100db4b24e772fa9b62a45beb4133d68ccb9df1ed7ec3f5cfebff90bd56712141ea022065c3452242b673f99d0b48307041f9ddbb74e80999f07b9f6dcad8e6c6e8e43c0121027935bd37bdb8cbe881e7abe75c211336bcbcbe2ebb06bf68a80250564cc9804d00000000", "vin": [{"txinwitness": ["3045022100db4b24e772fa9b62a45beb4133d68ccb9df1ed7ec3f5cfebff90bd56712141ea022065c3452242b673f99d0b48307041f9ddbb74e80999f07b9f6dcad8e6c6e8e43c01", "027935bd37bdb8cbe881e7abe75c211336bcbcbe2ebb06bf68a80250564cc9804d"], "sequence": 4294967295, "scriptSig": {"hex": "160014d23117bd1d8e083ba76caf495063f1e1b68f5e4d", "asm": "0014d23117bd1d8e083ba76caf495063f1e1b68f5e4d"}, "vout": 0, "txid": "4ef26c47626585e740a958ec061d39a96ab70005addb8b5df84cfa4b0b4f4a00"}], "txid": "b47d62586e41297495ab634dcb3b854e7c345263dba8954b8b5e57816bbd0be5", "blocktime": 1537871767, "version": 1, "confirmations": 11495, "time": 1537871767, "locktime": 0, "vsize": 134, "size": 216}