{"hash": "15f3063c70b7b777fc04e5cec757629428dcdc3806b0bc7474ca4ae11a430e7d", "blockhash": "000000000000000000022b45ed06c6f4ccd3cf7fb5ba4856ebd2e58215665228", "vout": [{"scriptPubKey": {"reqSigs": 1, "hex": "76a914f91f2c06d14fb599a4bb435f2838af79b9afe5b688ac", "addresses": ["1PiEbdhuAMCZ4UR4P6QH37Hye3pscLsSxS"], "asm": "OP_DUP OP_HASH160 f91f2c06d14fb599a4bb435f2838af79b9afe5b6 OP_EQUALVERIFY OP_CHECKSIG", "type": "pubkeyhash"}, "value": 0.00105, "n": 0}, {"scriptPubKey": {"reqSigs": 1, "hex": "a914627aa52932456d89054bd84f86246af3b71b93a887", "addresses": ["3Afj4stdiLG9EktGrMbm252ySonnhYaz8v"], "asm": "OP_HASH160 627aa52932456d89054bd84f86246af3b71b93a8 OP_EQUAL", "type": "scripthash"}, "value": 0.80547638, "n": 1}], "hex": "010000000001015aa40bf0c80458c59c2c54709ee7b0536653fd4ad85cd7d678673a267d444a3101000000232200205fdd641234b13964b223bd85ad2a4a667ca2099df3d42a1d3b45706a8d81abf0ffffffff02289a0100000000001976a914f91f2c06d14fb599a4bb435f2838af79b9afe5b688ac360fcd040000000017a914627aa52932456d89054bd84f86246af3b71b93a887040048304502210084cf765321c126c9b65a04691874c2613da831a3347cbcadbfb9f5a29a4b870202207bbce24458ecf07c55732263159905a2abefbf255a3dad385136b1faaf7055fb01483045022100fc68c4f7e8c4495f3a71dabd75a39c51f709ffb5b1ad350304c371f69eab4e8a02200a145fde9b58bffb199c97d09a775e963e6ac44cf4643ff907bcdedaf1eb10c50147522103dcde3832fa56def7b4e783faad1b8af85c3cdd74a5ff4f3c7c216b1075c18da12103c70ae8ded79be1afda73b9ce5ea14a3878908ee160d66a9a717e792bb6db276952ae00000000", "vin": [{"txinwitness": ["", "304502210084cf765321c126c9b65a04691874c2613da831a3347cbcadbfb9f5a29a4b870202207bbce24458ecf07c55732263159905a2abefbf255a3dad385136b1faaf7055fb01", "3045022100fc68c4f7e8c4495f3a71dabd75a39c51f709ffb5b1ad350304c371f69eab4e8a02200a145fde9b58bffb199c97d09a775e963e6ac44cf4643ff907bcdedaf1eb10c501", "522103dcde3832fa56def7b4e783faad1b8af85c3cdd74a5ff4f3c7c216b1075c18da12103c70ae8ded79be1afda73b9ce5ea14a3878908ee160d66a9a717e792bb6db276952ae"], "sequence": 4294967295, "scriptSig": {"hex": "2200205fdd641234b13964b223bd85ad2a4a667ca2099df3d42a1d3b45706a8d81abf0", "asm": "00205fdd641234b13964b223bd85ad2a4a667ca2099df3d42a1d3b45706a8d81abf0"}, "vout": 1, "txid": "314a447d263a6778d6d75cd84afd536653b0e79e70542c9cc55804c8f00ba45a"}], "txid": "b47db1697e41b47e61eede26103572305f5b9daa016bb653e5eba8b7d98e1e05", "blocktime": 1537869901, "version": 1, "confirmations": 11523, "time": 1537869901, "locktime": 0, "vsize": 208, "size": 374}