{"hash": "3873054987c58334773a23c4c50e7e904cc8e35ea6e0824864cfaf24f8257604", "blockhash": "0000000000000000001f0ddff1eddb255c1121bcd4da4f1bc9a0da00cae72433", "vout": [{"scriptPubKey": {"reqSigs": 1, "hex": "a914955f7dfbb098f0e0f994e4aa6e8d88e8c2eb415287", "addresses": ["3FJq131QvYseQuTnoduRb6cLTeDZHJko4w"], "asm": "OP_HASH160 955f7dfbb098f0e0f994e4aa6e8d88e8c2eb4152 OP_EQUAL", "type": "scripthash"}, "value": 0.1000626, "n": 0}, {"scriptPubKey": {"reqSigs": 1, "hex": "76a914fa8d994dfdc55a42a20ef0916453b939f1ca7bf988ac", "addresses": ["1PqoZREuLp7p47oKofbVo8f4UStfquj75k"], "asm": "OP_DUP OP_HASH160 fa8d994dfdc55a42a20ef0916453b939f1ca7bf9 OP_EQUALVERIFY OP_CHECKSIG", "type": "pubkeyhash"}, "value": 0.0309293, "n": 1}], "hex": "0200000000010186e86d434e5989840163435bae3d65f15222a5443678aa1767484fb1c6296ddd0100000017160014483de4c54ecccbee71467dbc5d097decf86bcf54feffffff02f4ae98000000000017a914955f7dfbb098f0e0f994e4aa6e8d88e8c2eb415287c2312f00000000001976a914fa8d994dfdc55a42a20ef0916453b939f1ca7bf988ac0247304402206c4bbc82f68c9362365332446f7a55bc29abf69f538d5d32cd1147905fce77ec02202684d6478f66daea1d6fed778e59367ffbf0832fe9a3e191ec2bb50352d622ba01210299fa4b05c8b2fa8f519b227fad27abe586dcddcdbea3061c5ae9cedcd60600a011490800", "vin": [{"txinwitness": ["304402206c4bbc82f68c9362365332446f7a55bc29abf69f538d5d32cd1147905fce77ec02202684d6478f66daea1d6fed778e59367ffbf0832fe9a3e191ec2bb50352d622ba01", "0299fa4b05c8b2fa8f519b227fad27abe586dcddcdbea3061c5ae9cedcd60600a0"], "sequence": 4294967294, "scriptSig": {"hex": "160014483de4c54ecccbee71467dbc5d097decf86bcf54", "asm": "0014483de4c54ecccbee71467dbc5d097decf86bcf54"}, "vout": 1, "txid": "dd6d29c6b14f486717aa783644a52252f1653dae5b4363018489594e436de886"}], "txid": "b480174eaa8623992566e0b37570ba9909562f6442d740f0f2e9e64148efc24e", "blocktime": 1537872018, "version": 2, "confirmations": 11489, "time": 1537872018, "locktime": 542993, "vsize": 168, "size": 249}