{"hash": "1d95fd5e38d3ce17528cd002e223708478799143b539fd56bf9a4e7543201af4", "blockhash": "00000000000000000004ffacab907a6b429b9a5745fa0b75af4234bf69dd7176", "vout": [{"scriptPubKey": {"reqSigs": 1, "hex": "a914b75d2aeaa3de67e8e81ddad613de9fe0488c820987", "addresses": ["3JQZC3rZBUZYWpWjsSqAszTKJLzgteYmqJ"], "asm": "OP_HASH160 b75d2aeaa3de67e8e81ddad613de9fe0488c8209 OP_EQUAL", "type": "scripthash"}, "value": 0.045, "n": 0}, {"scriptPubKey": {"reqSigs": 1, "hex": "76a914d9aef41024b25d5c1378dc79544e62ed56dc42e888ac", "addresses": ["1Lr1DbqFQV1PVs9vg7CbAG5ZPAQQqrUg87"], "asm": "OP_DUP OP_HASH160 d9aef41024b25d5c1378dc79544e62ed56dc42e8 OP_EQUALVERIFY OP_CHECKSIG", "type": "pubkeyhash"}, "value": 0.042, "n": 1}, {"scriptPubKey": {"reqSigs": 1, "hex": "76a914a03f3f16e852b798c2705dc44a720fe1563b1cd888ac", "addresses": ["1FcJt8hhHAFrmZaL8nXE2RpE3sJTZFyKMf"], "asm": "OP_DUP OP_HASH160 a03f3f16e852b798c2705dc44a720fe1563b1cd8 OP_EQUALVERIFY OP_CHECKSIG", "type": "pubkeyhash"}, "value": 0.0032108, "n": 2}, {"scriptPubKey": {"reqSigs": 1, "hex": "a9141ba4c0c5017cb4da5231f5fa6eafccd7ba62c10487", "addresses": ["34DBXxnqyYVJLC3t3sWdgnyk216Yuz1kyj"], "asm": "OP_HASH160 1ba4c0c5017cb4da5231f5fa6eafccd7ba62c104 OP_EQUAL", "type": "scripthash"}, "value": 0.11661442, "n": 3}, {"scriptPubKey": {"reqSigs": 1, "hex": "76a914104cdf9c0ad2ef55ca8d08bf36de281be08ff20b88ac", "addresses": ["12VBuLFgqbA3x7F5egKtYiw9D3A32TKaHz"], "asm": "OP_DUP OP_HASH160 104cdf9c0ad2ef55ca8d08bf36de281be08ff20b OP_EQUALVERIFY OP_CHECKSIG", "type": "pubkeyhash"}, "value": 0.0017033, "n": 4}, {"scriptPubKey": {"reqSigs": 1, "hex": "76a9143cf725559921340adad34444ab3feed8f53f581b88ac", "addresses": ["16ZMcWDHQ1c2e2xFY3URr3We1jqRowW64S"], "asm": "OP_DUP OP_HASH160 3cf725559921340adad34444ab3feed8f53f581b OP_EQUALVERIFY OP_CHECKSIG", "type": "pubkeyhash"}, "value": 0.42716395, "n": 5}, {"scriptPubKey": {"reqSigs": 1, "hex": "76a914bc650e036566d807705e9cde518c4578100157fb88ac", "addresses": ["1JB96UHmGq3xH6DJuQ5yTTq6LapVfwAbuq"], "asm": "OP_DUP OP_HASH160 bc650e036566d807705e9cde518c4578100157fb OP_EQUALVERIFY OP_CHECKSIG", "type": "pubkeyhash"}, "value": 0.00829671, "n": 6}, {"scriptPubKey": {"reqSigs": 1, "hex": "a914b7008ae834f375094f35fba22dafddeeb1c202d187", "addresses": ["3JNeEMEPjnf2JV8atguWwPZH2VGcTBSiQK"], "asm": "OP_HASH160 b7008ae834f375094f35fba22dafddeeb1c202d1 OP_EQUAL", "type": "scripthash"}, "value": 0.19564487, "n": 7}], "hex": "010000000001049efd1d9b13a0ef8bbd04e9e6b1c96d6a106db619b4d5428d8bb8a90a2d6fd5a50300000023220020ce2a50647b513eaf36dc516f24ec8b5636120bee7437a6eb12f1cd9e1256b808ffffffff9efd1d9b13a0ef8bbd04e9e6b1c96d6a106db619b4d5428d8bb8a90a2d6fd5a502000000232200203f2c90c5f3510844444455cc89bef6d0ff0974abfb307f40796de2b7d42c16daffffffff9efd1d9b13a0ef8bbd04e9e6b1c96d6a106db619b4d5428d8bb8a90a2d6fd5a500000000232200206d188c4e69b5c16e8bc78a42b170e98a31683bb59e3dee8b943fda492e566932ffffffff9efd1d9b13a0ef8bbd04e9e6b1c96d6a106db619b4d5428d8bb8a90a2d6fd5a5050000002322002065439076da36459ea3a9471e33876293f6488cc38ee7265de91098806385bae8ffffffff0820aa44000000000017a914b75d2aeaa3de67e8e81ddad613de9fe0488c82098740164000000000001976a914d9aef41024b25d5c1378dc79544e62ed56dc42e888ac38e60400000000001976a914a03f3f16e852b798c2705dc44a720fe1563b1cd888ac82f0b1000000000017a9141ba4c0c5017cb4da5231f5fa6eafccd7ba62c104875a990200000000001976a914104cdf9c0ad2ef55ca8d08bf36de281be08ff20b88acebcc8b02000000001976a9143cf725559921340adad34444ab3feed8f53f581b88ace7a80c00000000001976a914bc650e036566d807705e9cde518c4578100157fb88acc7872a010000000017a914b7008ae834f375094f35fba22dafddeeb1c202d1870400483045022100bc3205ed14b58fbc34d49d29493c7f367eac6b8cc78445efd87f02720971fcdc022075661b176f504990ebd7989adcea90c4fd7082c1d3067f32308c8d8262033cd20147304402204f051b81f4a68ddc7703a220fe603f846c7c76c45b0a29254aead9e51104d7d302207d7b64ccb540f259b2d7b9677249392a93250e2abf21d5c8082ff675309e010c01695221036211ecd1fda852aca3e446aebebe2bc83a6b8d30f8934bece11de47ede5e41eb2102a7b1f29ee4df4867a10b6a86eb7fc6f0303ec52ccaab241cd5727a3da3423bf92102c72ae586d5eb496186f7d1e03632ec2726c280fb28dc6a52da2f20a9943c6f3e53ae0400483045022100f9b8311cde26d42227feffa675cc1eaff4728f677b4ebc7d3b99814c4df5cf3e02206b3ce5566f7f4cbf959382eeea2e834f168967628b5f48cc5cab5399d28fc6740148304502210097b1031e0815a7a1affd7aa4d9271212e895a5015f3abc75024130f8f0499a9902205bd0ca941cc304036f30d23576d680666085c3b114960cdd626d0d8ac14544ec0169522102ccef6ad0b0050d20a48ebe3bdf7d8452cea320ea1de92d9e8e5628241dc461f32103d6e3346c722c4a74821259f129030b4a2fb8c86969c5fff38f393a46928f91c421033cfb3b964fc99b51c06e3c53ebd000697123a6f228e191ea3599a1c81485374653ae0400483045022100d7662a96c342739309c7325581e14be79db7f57332db0c01db48715d54fa3db002207b3d9e2b3fa2c0624e68c1d0c1cf4e39e93641db56158991c4fa91dc814fbff2014830450221009b003b5fe6968e603604766edb8affb8bda69b29b2d17968dcef8e4055a00a1c02206d2892ff735b33786800d684f06bdba5f457460e14eabf12ac5f0d16293baa8e01695221032baaf5cea0768aa25ba4961484d9cf66c25440826150acad49a94156a65cb7e72103a5210592c70af458146179c09d022cd6c260248726cd16c01610480ed7c2057d21031e067f0bb3ed3bb0118924b2ecf387d80729e6b4c529b9413340431fc3dd37b753ae04004730440220133a60b1a5202bdaedd787d16b894fadc1bc23bae45639ba4d29512ba6cbaa2b02203a3bf40bb0fa4b0eab62cc4cfe76b21f8097f3b3bb64383ca406eb3e808671970147304402207a4a434ef259c7b4232d7f8c2c006dc44c361281bacfb2fd28093821e8f3b5d50220278d36c7117074eec018eb1c729d67938dcc971612cf92c264ae65692ee67dea016952210385d80c55ef08ff1def169c6f1147545896b8344869b5b1bed329681dbf16bd4321035ba7dac61c4d244d8e4bfb1fc29e6c8423a2382a27fa588dd4449bfc9e094faa2103d1802eeddd5f4f5e88ec5c82b715b3abca283ec5ba760ee2db59554b0580436253ae00000000", "vin": [{"txinwitness": ["", "3045022100bc3205ed14b58fbc34d49d29493c7f367eac6b8cc78445efd87f02720971fcdc022075661b176f504990ebd7989adcea90c4fd7082c1d3067f32308c8d8262033cd201", "304402204f051b81f4a68ddc7703a220fe603f846c7c76c45b0a29254aead9e51104d7d302207d7b64ccb540f259b2d7b9677249392a93250e2abf21d5c8082ff675309e010c01", "5221036211ecd1fda852aca3e446aebebe2bc83a6b8d30f8934bece11de47ede5e41eb2102a7b1f29ee4df4867a10b6a86eb7fc6f0303ec52ccaab241cd5727a3da3423bf92102c72ae586d5eb496186f7d1e03632ec2726c280fb28dc6a52da2f20a9943c6f3e53ae"], "sequence": 4294967295, "scriptSig": {"hex": "220020ce2a50647b513eaf36dc516f24ec8b5636120bee7437a6eb12f1cd9e1256b808", "asm": "0020ce2a50647b513eaf36dc516f24ec8b5636120bee7437a6eb12f1cd9e1256b808"}, "vout": 3, "txid": "a5d56f2d0aa9b88b8d42d5b419b66d106a6dc9b1e6e904bd8befa0139b1dfd9e"}, {"txinwitness": ["", "3045022100f9b8311cde26d42227feffa675cc1eaff4728f677b4ebc7d3b99814c4df5cf3e02206b3ce5566f7f4cbf959382eeea2e834f168967628b5f48cc5cab5399d28fc67401", "304502210097b1031e0815a7a1affd7aa4d9271212e895a5015f3abc75024130f8f0499a9902205bd0ca941cc304036f30d23576d680666085c3b114960cdd626d0d8ac14544ec01", "522102ccef6ad0b0050d20a48ebe3bdf7d8452cea320ea1de92d9e8e5628241dc461f32103d6e3346c722c4a74821259f129030b4a2fb8c86969c5fff38f393a46928f91c421033cfb3b964fc99b51c06e3c53ebd000697123a6f228e191ea3599a1c81485374653ae"], "sequence": 4294967295, "scriptSig": {"hex": "2200203f2c90c5f3510844444455cc89bef6d0ff0974abfb307f40796de2b7d42c16da", "asm": "00203f2c90c5f3510844444455cc89bef6d0ff0974abfb307f40796de2b7d42c16da"}, "vout": 2, "txid": "a5d56f2d0aa9b88b8d42d5b419b66d106a6dc9b1e6e904bd8befa0139b1dfd9e"}, {"txinwitness": ["", "3045022100d7662a96c342739309c7325581e14be79db7f57332db0c01db48715d54fa3db002207b3d9e2b3fa2c0624e68c1d0c1cf4e39e93641db56158991c4fa91dc814fbff201", "30450221009b003b5fe6968e603604766edb8affb8bda69b29b2d17968dcef8e4055a00a1c02206d2892ff735b33786800d684f06bdba5f457460e14eabf12ac5f0d16293baa8e01", "5221032baaf5cea0768aa25ba4961484d9cf66c25440826150acad49a94156a65cb7e72103a5210592c70af458146179c09d022cd6c260248726cd16c01610480ed7c2057d21031e067f0bb3ed3bb0118924b2ecf387d80729e6b4c529b9413340431fc3dd37b753ae"], "sequence": 4294967295, "scriptSig": {"hex": "2200206d188c4e69b5c16e8bc78a42b170e98a31683bb59e3dee8b943fda492e566932", "asm": "00206d188c4e69b5c16e8bc78a42b170e98a31683bb59e3dee8b943fda492e566932"}, "vout": 0, "txid": "a5d56f2d0aa9b88b8d42d5b419b66d106a6dc9b1e6e904bd8befa0139b1dfd9e"}, {"txinwitness": ["", "30440220133a60b1a5202bdaedd787d16b894fadc1bc23bae45639ba4d29512ba6cbaa2b02203a3bf40bb0fa4b0eab62cc4cfe76b21f8097f3b3bb64383ca406eb3e8086719701", "304402207a4a434ef259c7b4232d7f8c2c006dc44c361281bacfb2fd28093821e8f3b5d50220278d36c7117074eec018eb1c729d67938dcc971612cf92c264ae65692ee67dea01", "52210385d80c55ef08ff1def169c6f1147545896b8344869b5b1bed329681dbf16bd4321035ba7dac61c4d244d8e4bfb1fc29e6c8423a2382a27fa588dd4449bfc9e094faa2103d1802eeddd5f4f5e88ec5c82b715b3abca283ec5ba760ee2db59554b0580436253ae"], "sequence": 4294967295, "scriptSig": {"hex": "22002065439076da36459ea3a9471e33876293f6488cc38ee7265de91098806385bae8", "asm": "002065439076da36459ea3a9471e33876293f6488cc38ee7265de91098806385bae8"}, "vout": 5, "txid": "a5d56f2d0aa9b88b8d42d5b419b66d106a6dc9b1e6e904bd8befa0139b1dfd9e"}], "txid": "b4837b78ac7c11d9b92deeca64cf6386d22d4879de01de751ec6659ad6c3c008", "blocktime": 1537875543, "version": 1, "confirmations": 11464, "time": 1537875543, "locktime": 0, "vsize": 834, "size": 1595}