{"hash": "b4831c9dd538a0ce5e51668eb5af53784895269998bb573175e0538ad7fcbd9b", "blockhash": "00000000000000000024a2167bbff67b0be802c0b01cdd79e6331c2be6459f87", "vout": [{"scriptPubKey": {"reqSigs": 1, "hex": "76a91432a9d9caa377324d609ffce9598365975920057988ac", "addresses": ["15ctG2eYvEZbjRe3c5pmohy5nCmx22eh2f"], "asm": "OP_DUP OP_HASH160 32a9d9caa377324d609ffce95983659759200579 OP_EQUALVERIFY OP_CHECKSIG", "type": "pubkeyhash"}, "value": 0.02473174, "n": 0}, {"scriptPubKey": {"reqSigs": 1, "hex": "76a9141d96c41d625fba5a2ef4e3203c068ba8e2153a2788ac", "addresses": ["13hTCyTsikyvJrvh9zwtkULhsTMd9EaTtm"], "asm": "OP_DUP OP_HASH160 1d96c41d625fba5a2ef4e3203c068ba8e2153a27 OP_EQUALVERIFY OP_CHECKSIG", "type": "pubkeyhash"}, "value": 0.0857966, "n": 1}], "hex": "0100000001dc7ca3c015c63c2e0c9e97fb386323ff9ff97b27ffe07ba0b6356101d684fded010000006a47304402207c6f4270a319b280481792ad04a2e8c5a08c81f09310c8125415488159bb9db902203c7180107abea70ede2e6674d6d6392070d3de0ab6f3d2f64d01b0e0f9564e5001210387dfc3308f18e341888d087a97e1859d214de0b82c01a4c2c7562b44d17e7004ffffffff02d6bc2500000000001976a91432a9d9caa377324d609ffce9598365975920057988ac4cea8200000000001976a9141d96c41d625fba5a2ef4e3203c068ba8e2153a2788ac00000000", "vin": [{"sequence": 4294967295, "scriptSig": {"hex": "47304402207c6f4270a319b280481792ad04a2e8c5a08c81f09310c8125415488159bb9db902203c7180107abea70ede2e6674d6d6392070d3de0ab6f3d2f64d01b0e0f9564e5001210387dfc3308f18e341888d087a97e1859d214de0b82c01a4c2c7562b44d17e7004", "asm": "304402207c6f4270a319b280481792ad04a2e8c5a08c81f09310c8125415488159bb9db902203c7180107abea70ede2e6674d6d6392070d3de0ab6f3d2f64d01b0e0f9564e50[ALL] 0387dfc3308f18e341888d087a97e1859d214de0b82c01a4c2c7562b44d17e7004"}, "vout": 1, "txid": "edfd84d6016135b6a07be0ff277bf99fff236338fb979e0c2e3cc615c0a37cdc"}], "txid": "b4831c9dd538a0ce5e51668eb5af53784895269998bb573175e0538ad7fcbd9b", "blocktime": 1537870564, "version": 1, "confirmations": 11515, "time": 1537870564, "locktime": 0, "vsize": 225, "size": 225}