{"hash": "b48894c5e3ebb58b2b77bb34e5e34c8b422599ec674ed47d084117c5bd040b6d", "blockhash": "0000000000000000001e0dab787dd257d1dbfcb92a98c2207d5e1078be1f4165", "vout": [{"scriptPubKey": {"reqSigs": 1, "hex": "76a9147af81610be5938bf5cc40106b3de95afb9288f9e88ac", "addresses": ["1CDCdjapPu4Gr3tUaDPidYsjmRuvjMjSMJ"], "asm": "OP_DUP OP_HASH160 7af81610be5938bf5cc40106b3de95afb9288f9e OP_EQUALVERIFY OP_CHECKSIG", "type": "pubkeyhash"}, "value": 0.00294766, "n": 0}], "hex": "01000000015d0c81f12093aef0849a8a3b331e7123ecab4a1404c3fab3a1d65683e5d1c529160000006b483045022100a403b0e211c9788a35a9c4637d41bef3b524e0c37f431d5fc3726fb3fc4ebd8d0220071e39807c80cc68fbaec7921a1a7361e09123c9ed76828791cc9f50ed19837e0121028d4fd9432f2050fa509ee40fed9d5ae6ec4c349196697fca27caef628944408affffffff016e7f0400000000001976a9147af81610be5938bf5cc40106b3de95afb9288f9e88ac00000000", "vin": [{"sequence": 4294967295, "scriptSig": {"hex": "483045022100a403b0e211c9788a35a9c4637d41bef3b524e0c37f431d5fc3726fb3fc4ebd8d0220071e39807c80cc68fbaec7921a1a7361e09123c9ed76828791cc9f50ed19837e0121028d4fd9432f2050fa509ee40fed9d5ae6ec4c349196697fca27caef628944408a", "asm": "3045022100a403b0e211c9788a35a9c4637d41bef3b524e0c37f431d5fc3726fb3fc4ebd8d0220071e39807c80cc68fbaec7921a1a7361e09123c9ed76828791cc9f50ed19837e[ALL] 028d4fd9432f2050fa509ee40fed9d5ae6ec4c349196697fca27caef628944408a"}, "vout": 22, "txid": "29c5d1e58356d6a1b3fac304144aabec23711e333b8a9a84f0ae9320f1810c5d"}], "txid": "b48894c5e3ebb58b2b77bb34e5e34c8b422599ec674ed47d084117c5bd040b6d", "blocktime": 1537872475, "version": 1, "confirmations": 11486, "time": 1537872475, "locktime": 0, "vsize": 192, "size": 192}