{"hash": "de1a9c7f24e3238ca73b6c54dc025fc975152804aa63022929112b3c884d6dda", "blockhash": "000000000000000000205f8b0775d31398ef75b89a5e8ec8d2c57b4dc0ac4c20", "vout": [{"scriptPubKey": {"reqSigs": 1, "hex": "a91427a0eaceb6ee473cd9d34b43a9a5a3796a9c28bf87", "addresses": ["35JZ3kR8VLxoQUtnKeYuNrNuU3ivfM9m9q"], "asm": "OP_HASH160 27a0eaceb6ee473cd9d34b43a9a5a3796a9c28bf OP_EQUAL", "type": "scripthash"}, "value": 0.01886099, "n": 0}, {"scriptPubKey": {"reqSigs": 1, "hex": "a914014fc3b0740d0d0e3a740c126bd2e645f32e4e5987", "addresses": ["31ox9s4sLTwpZwX8Uwwtjc8hXFfwerdE9j"], "asm": "OP_HASH160 014fc3b0740d0d0e3a740c126bd2e645f32e4e59 OP_EQUAL", "type": "scripthash"}, "value": 0.0054, "n": 1}], "hex": "0200000000010277491cc140291ccc1eb7957220a3bad8958773d73d6d0ff2bf960b726146c944000000001716001428c8a766f64f22e858439d5a97647ec7f6736cc4feffffff8335276945df9574529877a7f178e61466c2cc1918830bce63fe4f837e0e6f2c01000000171600142207be05e546b2fb8d80a5e2b650b702b37706b9feffffff0293c71c000000000017a91427a0eaceb6ee473cd9d34b43a9a5a3796a9c28bf87603d08000000000017a914014fc3b0740d0d0e3a740c126bd2e645f32e4e59870247304402201399659a0b68d259bd2c52ca853ba203a1f917a8828f184e7a4a09d91e420de1022036e1c275af7c1317023f8e55b32b2e9657300a6b289d6833831bcd39d12a2dfd01210338b30c7814a4074049e4887aef5d40b761ac0180a18290d195a03e74d35000bf024730440220031afe2719cb300ce88348fe4f9f3276f0f73c3337e14049812f2e84eafc0859022017df004cffb9fb63dc968d5fc1e07eb92ad8a862b387fbda7483d77ee0696b00012102e0e3259b95a71fbcbc5f615464a2f9f75b0765c1ea7f6aadee86bab1fb7ee7a10f490800", "vin": [{"txinwitness": ["304402201399659a0b68d259bd2c52ca853ba203a1f917a8828f184e7a4a09d91e420de1022036e1c275af7c1317023f8e55b32b2e9657300a6b289d6833831bcd39d12a2dfd01", "0338b30c7814a4074049e4887aef5d40b761ac0180a18290d195a03e74d35000bf"], "sequence": 4294967294, "scriptSig": {"hex": "16001428c8a766f64f22e858439d5a97647ec7f6736cc4", "asm": "001428c8a766f64f22e858439d5a97647ec7f6736cc4"}, "vout": 0, "txid": "44c94661720b96bff20f6d3dd7738795d8baa3207295b71ecc1c2940c11c4977"}, {"txinwitness": ["30440220031afe2719cb300ce88348fe4f9f3276f0f73c3337e14049812f2e84eafc0859022017df004cffb9fb63dc968d5fc1e07eb92ad8a862b387fbda7483d77ee0696b0001", "02e0e3259b95a71fbcbc5f615464a2f9f75b0765c1ea7f6aadee86bab1fb7ee7a1"], "sequence": 4294967294, "scriptSig": {"hex": "1600142207be05e546b2fb8d80a5e2b650b702b37706b9", "asm": "00142207be05e546b2fb8d80a5e2b650b702b37706b9"}, "vout": 1, "txid": "2c6f0e7e834ffe63ce0b831819ccc26614e678f1a77798527495df4569273583"}], "txid": "b48b34528556f59606c82ce21450e1713fb90d187efaa06d02cb77847aa83041", "blocktime": 1537871175, "version": 2, "confirmations": 11511, "time": 1537871175, "locktime": 542991, "vsize": 256, "size": 418}