{"hash": "42ffbef2f80c39ae109b46d5a340b3bd9f5dfd4facba698b110981c8b6657d62", "blockhash": "00000000000000000004ffacab907a6b429b9a5745fa0b75af4234bf69dd7176", "vout": [{"scriptPubKey": {"reqSigs": 1, "hex": "76a91485db7cab769f93a69785c13cc1e0df51be1f9d8b88ac", "addresses": ["1DCmojk8DoVM3CmvYCzyJbGfcHzZstF2vU"], "asm": "OP_DUP OP_HASH160 85db7cab769f93a69785c13cc1e0df51be1f9d8b OP_EQUALVERIFY OP_CHECKSIG", "type": "pubkeyhash"}, "value": 2.594e-05, "n": 0}, {"scriptPubKey": {"reqSigs": 1, "hex": "a9148ddb66c3371910a0ef8f38021cc4094e61e69f3a87", "addresses": ["3Ed62sPENkraPwpovPty9YMFGJ8FtTyv63"], "asm": "OP_HASH160 8ddb66c3371910a0ef8f38021cc4094e61e69f3a OP_EQUAL", "type": "scripthash"}, "value": 0.00035763, "n": 1}], "hex": "0100000000010138d8cf6cff1b84c557c2a331e9b50c44181e8e0d81c612598e8d2c69bf25b1f30100000023220020fdd23d707f55451c4e006c77b5e8df35a185a8e99f9bda70bf0ded7913bb1eb3ffffffff02220a0000000000001976a91485db7cab769f93a69785c13cc1e0df51be1f9d8b88acb38b00000000000017a9148ddb66c3371910a0ef8f38021cc4094e61e69f3a870400483045022100ca22fb3e3626e004f53401b08d026ceba067c65132dc88812e719b4a8bf6281602204823beb82a0952ea703f15ecc5f20f89b540405982ac0dba90e751db23bda7e701473044022033f19d0a247cb243900ea2e30b049e00f01c0bdba58475f675d2b90da5709bcb02206618f84b04e03c6605619e9bee1ebe311a36942fbb1620b35e73cc939a0350c0014752210286c104577b978160849865bc23f9a6df9b53d41c8ffb486754b97b2a474a181c2103148c80a5bdfddb05ff5bcffc397c8ca748d8b435ec6a175bc9d7bfc7fc6f853752ae00000000", "vin": [{"txinwitness": ["", "3045022100ca22fb3e3626e004f53401b08d026ceba067c65132dc88812e719b4a8bf6281602204823beb82a0952ea703f15ecc5f20f89b540405982ac0dba90e751db23bda7e701", "3044022033f19d0a247cb243900ea2e30b049e00f01c0bdba58475f675d2b90da5709bcb02206618f84b04e03c6605619e9bee1ebe311a36942fbb1620b35e73cc939a0350c001", "52210286c104577b978160849865bc23f9a6df9b53d41c8ffb486754b97b2a474a181c2103148c80a5bdfddb05ff5bcffc397c8ca748d8b435ec6a175bc9d7bfc7fc6f853752ae"], "sequence": 4294967295, "scriptSig": {"hex": "220020fdd23d707f55451c4e006c77b5e8df35a185a8e99f9bda70bf0ded7913bb1eb3", "asm": "0020fdd23d707f55451c4e006c77b5e8df35a185a8e99f9bda70bf0ded7913bb1eb3"}, "vout": 1, "txid": "f3b125bf692c8d8e5912c6810d8e1e18440cb5e931a3c257c5841bff6ccfd838"}], "txid": "b48d19ae5248e117af0adf9364c28f349954a2fb62b39bf872610fa9650c6aaf", "blocktime": 1537875543, "version": 1, "confirmations": 11464, "time": 1537875543, "locktime": 0, "vsize": 208, "size": 373}