{"hash": "2ea313806be190f88774b52fac40b0164632a209f50257dc9f46d0fd3158aba9", "blockhash": "00000000000000000017f5eb5941039fbcee6240d03bc1f2f8e35350df66a1d8", "vout": [{"scriptPubKey": {"reqSigs": 1, "hex": "76a9142ac657a6800ff8d4ce29bc051b3543968808bfe588ac", "addresses": ["14uAz8PNapgyCpRngQTZ1yxExTCQy6Ubic"], "asm": "OP_DUP OP_HASH160 2ac657a6800ff8d4ce29bc051b3543968808bfe5 OP_EQUALVERIFY OP_CHECKSIG", "type": "pubkeyhash"}, "value": 0.022945, "n": 0}, {"scriptPubKey": {"reqSigs": 1, "hex": "a914610b961b5bda04478cfc7d111257fb446722d01587", "addresses": ["3AY9MBhoiAgKmojfdESmcsVmYbXkujHfuZ"], "asm": "OP_HASH160 610b961b5bda04478cfc7d111257fb446722d015 OP_EQUAL", "type": "scripthash"}, "value": 0.01284176, "n": 1}], "hex": "010000000001010a9ee5ea5e73fc6a577c72e6d73e449b90e43181a3b882083c3ece2c3cf2ff6e0600000023220020747f48e50e93b9c3b23f07dc2eb112538514c8b9fa008aca4b9753221b3652b9ffffffff02e4022300000000001976a9142ac657a6800ff8d4ce29bc051b3543968808bfe588ac509813000000000017a914610b961b5bda04478cfc7d111257fb446722d015870400483045022100e2164b92147903414593233257a43c1d59865914f3c847667830f5c5b8845ce80220258fcae6f788b5ccca34d5a3f4a2613be4d61334ac998020816440a2b9c226500147304402202bcbea13f933998da5d796f645d85dbc089ba1e91defb884d446b94295084a2002201b7c3a2d8f8af7eb7fa1fd35b0494cd823001f765b9b4f5af37d2bd4ab5b62cd0147522103a1acfa6f00b4207d4a3ce7bdf7f3b78ce0a1e0836a53a79748c960146255d377210361ca49a579e0f2f9afb50157f27f2f712f3f5dbc2415c6ccd087306d04e870cb52ae00000000", "vin": [{"txinwitness": ["", "3045022100e2164b92147903414593233257a43c1d59865914f3c847667830f5c5b8845ce80220258fcae6f788b5ccca34d5a3f4a2613be4d61334ac998020816440a2b9c2265001", "304402202bcbea13f933998da5d796f645d85dbc089ba1e91defb884d446b94295084a2002201b7c3a2d8f8af7eb7fa1fd35b0494cd823001f765b9b4f5af37d2bd4ab5b62cd01", "522103a1acfa6f00b4207d4a3ce7bdf7f3b78ce0a1e0836a53a79748c960146255d377210361ca49a579e0f2f9afb50157f27f2f712f3f5dbc2415c6ccd087306d04e870cb52ae"], "sequence": 4294967295, "scriptSig": {"hex": "220020747f48e50e93b9c3b23f07dc2eb112538514c8b9fa008aca4b9753221b3652b9", "asm": "0020747f48e50e93b9c3b23f07dc2eb112538514c8b9fa008aca4b9753221b3652b9"}, "vout": 6, "txid": "6efff23c2cce3e3c0882b8a38131e4909b443ed7e6727c576afc735eeae59e0a"}], "txid": "b48ffe316777ca50349475a6bbf3ec4f287654b773e664fbe8e77083d5bed63a", "blocktime": 1537874412, "version": 1, "confirmations": 11468, "time": 1537874412, "locktime": 0, "vsize": 208, "size": 373}