{"hash": "b4903f80ffee9a4cd3da4e9cc0045489ac789b8ebde53fa4aeae8d41bee7cf87", "blockhash": "0000000000000000001cda96e906b7601b7a6fb1a3b62bca570a9e5d8f4b3de1", "vout": [{"scriptPubKey": {"reqSigs": 1, "hex": "a914376e4a8c2f4049cd55c5d5c5695577d1ac1c5e5a87", "addresses": ["36k7DG7ncF3z91ZUz7dHDhjWBDVEWfrJg9"], "asm": "OP_HASH160 376e4a8c2f4049cd55c5d5c5695577d1ac1c5e5a OP_EQUAL", "type": "scripthash"}, "value": 0.07, "n": 0}], "hex": "010000000124757bcc6534fb47e5a22c14e2308d120ebed984d305c95370c000883360d8e9010000006b4830450221009571eabda8f6cff4174f5be25adb7700808bd9005e595e9e4e05064b6a021f66022011c58d5e1d4d4f461abbc2e318ca5ccf618478af724839cf0ae9b8bf1aa338e00121030aab997db8eae848781927f771d43221011190271a66d45695af049adb8b1552ffffffff01c0cf6a000000000017a914376e4a8c2f4049cd55c5d5c5695577d1ac1c5e5a8700000000", "vin": [{"sequence": 4294967295, "scriptSig": {"hex": "4830450221009571eabda8f6cff4174f5be25adb7700808bd9005e595e9e4e05064b6a021f66022011c58d5e1d4d4f461abbc2e318ca5ccf618478af724839cf0ae9b8bf1aa338e00121030aab997db8eae848781927f771d43221011190271a66d45695af049adb8b1552", "asm": "30450221009571eabda8f6cff4174f5be25adb7700808bd9005e595e9e4e05064b6a021f66022011c58d5e1d4d4f461abbc2e318ca5ccf618478af724839cf0ae9b8bf1aa338e0[ALL] 030aab997db8eae848781927f771d43221011190271a66d45695af049adb8b1552"}, "vout": 1, "txid": "e9d860338800c07053c905d384d9be0e128d30e2142ca2e547fb3465cc7b7524"}], "txid": "b4903f80ffee9a4cd3da4e9cc0045489ac789b8ebde53fa4aeae8d41bee7cf87", "blocktime": 1537873282, "version": 1, "confirmations": 11480, "time": 1537873282, "locktime": 0, "vsize": 190, "size": 190}