{"hash": "b4920ece2ffcc7756ba0f66688eb19dc6374ece2509943918913eda02fe2f703", "blockhash": "0000000000000000001f76057863aec43deb6fa401d9628bb513d65a8098bfab", "vout": [{"scriptPubKey": {"reqSigs": 1, "hex": "76a914891fb806ea9e0a6713683d9a2a6ff5a4985780c688ac", "addresses": ["1DW3a9SRAv78NmtqbY9Dw2CAggXX4qVA96"], "asm": "OP_DUP OP_HASH160 891fb806ea9e0a6713683d9a2a6ff5a4985780c6 OP_EQUALVERIFY OP_CHECKSIG", "type": "pubkeyhash"}, "value": 0.10896685, "n": 0}, {"scriptPubKey": {"reqSigs": 1, "hex": "76a914a86ac9cd2b514abc5ed4a0b326383fafea95bd7188ac", "addresses": ["1GMWT1T7CWZUcwm2rYqPMiGN8o9uHQh5bt"], "asm": "OP_DUP OP_HASH160 a86ac9cd2b514abc5ed4a0b326383fafea95bd71 OP_EQUALVERIFY OP_CHECKSIG", "type": "pubkeyhash"}, "value": 0.15, "n": 1}], "hex": "0100000001e55978f2f0c4bbeb6a4e0084c48b13fb1fcb8c081e97cd8278201f526dc4e8d0000000006b483045022100f5434d323155b173c5efd1bd8c9a3bb53cf886896027fa68a99b492f3661030c0220375cc0226a56def7b058331b2bd75d89d2fb6d63a2fb4de635bf7f5b88a08552012102c5a9674f2a9c1adc0fdf638b9d28240d23f6df82b84a06804c4f10270c48dabfffffffff022d45a600000000001976a914891fb806ea9e0a6713683d9a2a6ff5a4985780c688acc0e1e400000000001976a914a86ac9cd2b514abc5ed4a0b326383fafea95bd7188ac00000000", "vin": [{"sequence": 4294967295, "scriptSig": {"hex": "483045022100f5434d323155b173c5efd1bd8c9a3bb53cf886896027fa68a99b492f3661030c0220375cc0226a56def7b058331b2bd75d89d2fb6d63a2fb4de635bf7f5b88a08552012102c5a9674f2a9c1adc0fdf638b9d28240d23f6df82b84a06804c4f10270c48dabf", "asm": "3045022100f5434d323155b173c5efd1bd8c9a3bb53cf886896027fa68a99b492f3661030c0220375cc0226a56def7b058331b2bd75d89d2fb6d63a2fb4de635bf7f5b88a08552[ALL] 02c5a9674f2a9c1adc0fdf638b9d28240d23f6df82b84a06804c4f10270c48dabf"}, "vout": 0, "txid": "d0e8c46d521f207882cd971e088ccb1ffb138bc484004e6aebbbc4f0f27859e5"}], "txid": "b4920ece2ffcc7756ba0f66688eb19dc6374ece2509943918913eda02fe2f703", "blocktime": 1537873891, "version": 1, "confirmations": 11475, "time": 1537873891, "locktime": 0, "vsize": 226, "size": 226}