{"hash": "b493913f09ead380096994f9b87fa6ff5d9774f3fd9da39c6d6a6c659cd19ccf", "blockhash": "0000000000000000001f0ddff1eddb255c1121bcd4da4f1bc9a0da00cae72433", "vout": [{"scriptPubKey": {"reqSigs": 1, "hex": "76a914730618133ce409b6698b82ea1f279ad7fde42b6a88ac", "addresses": ["1BVC1Uxg3aaQE7a1w2rpdftJ2wgbCMYkLa"], "asm": "OP_DUP OP_HASH160 730618133ce409b6698b82ea1f279ad7fde42b6a OP_EQUALVERIFY OP_CHECKSIG", "type": "pubkeyhash"}, "value": 0.0148062, "n": 0}, {"scriptPubKey": {"type": "nulldata", "hex": "6a4c50000077a70001bce166cdd5c3a8a548e45712af6c953dd567cf27e7e3ef3236678a62509738897a2b0c6b1d23b3efafcc8f3883695baa0f96061395acacf5c719bc9a9526289ac0f6612cd74e33776ee4", "asm": "OP_RETURN 000077a70001bce166cdd5c3a8a548e45712af6c953dd567cf27e7e3ef3236678a62509738897a2b0c6b1d23b3efafcc8f3883695baa0f96061395acacf5c719bc9a9526289ac0f6612cd74e33776ee4"}, "value": 0.0, "n": 1}], "hex": "010000000176067322425b0495c0b579249062d2a7916845c5ef08960a16de760386be2e00000000006b483045022100e1a880aeefea9f19fb6e999087d95a648e4d513d73cc62ae7a36abd2f54e704902201c25a929ce54692b481a267f28773df73557f97e56e293034e6902909759aab8012103476e711dcffbd92b13fd8b4986c3a977c8e0b7b769e81228ffaede0216776946ffffffff02ac971600000000001976a914730618133ce409b6698b82ea1f279ad7fde42b6a88ac0000000000000000536a4c50000077a70001bce166cdd5c3a8a548e45712af6c953dd567cf27e7e3ef3236678a62509738897a2b0c6b1d23b3efafcc8f3883695baa0f96061395acacf5c719bc9a9526289ac0f6612cd74e33776ee400000000", "vin": [{"sequence": 4294967295, "scriptSig": {"hex": "483045022100e1a880aeefea9f19fb6e999087d95a648e4d513d73cc62ae7a36abd2f54e704902201c25a929ce54692b481a267f28773df73557f97e56e293034e6902909759aab8012103476e711dcffbd92b13fd8b4986c3a977c8e0b7b769e81228ffaede0216776946", "asm": "3045022100e1a880aeefea9f19fb6e999087d95a648e4d513d73cc62ae7a36abd2f54e704902201c25a929ce54692b481a267f28773df73557f97e56e293034e6902909759aab8[ALL] 03476e711dcffbd92b13fd8b4986c3a977c8e0b7b769e81228ffaede0216776946"}, "vout": 0, "txid": "002ebe860376de160a9608efc5456891a7d262902479b5c095045b4222730676"}], "txid": "b493913f09ead380096994f9b87fa6ff5d9774f3fd9da39c6d6a6c659cd19ccf", "blocktime": 1537872018, "version": 1, "confirmations": 11489, "time": 1537872018, "locktime": 0, "vsize": 284, "size": 284}