{"hash": "b49797d4e339174b6073819ab5fb6e57cbd51f7d0dfa0bf41ae2a65c89521d32", "blockhash": "0000000000000000001cda96e906b7601b7a6fb1a3b62bca570a9e5d8f4b3de1", "vout": [{"scriptPubKey": {"reqSigs": 1, "hex": "76a91400f870e8c417732598432e67c292adb353b25a4e88ac", "addresses": ["1168czEvSRLwzkpVTM1TWKjbxjVQ7WWqjq"], "asm": "OP_DUP OP_HASH160 00f870e8c417732598432e67c292adb353b25a4e OP_EQUALVERIFY OP_CHECKSIG", "type": "pubkeyhash"}, "value": 0.02, "n": 0}, {"scriptPubKey": {"reqSigs": 1, "hex": "76a914446d8260a4a313f85a07252ee88180234cba4c3388ac", "addresses": ["17Ep8tDrfrGnnc74xgeaLtNwAQGyokcsJK"], "asm": "OP_DUP OP_HASH160 446d8260a4a313f85a07252ee88180234cba4c33 OP_EQUALVERIFY OP_CHECKSIG", "type": "pubkeyhash"}, "value": 0.05107284, "n": 1}], "hex": "01000000017c51977df84581752834cb6faf6f75d61a97a0c84697a3e1ffd7f6dcbbff122b000000006a473044022070ec5287e78ba2d8d42c18e45dfcc15953b9c7c3dc864f417d4bd63eb2bea9b402201f47476b66abfc9b4c2aff74a0912310678bb29e1597dc00080423e45482951b0121033a5e8949937c161e05c859a419aa3fb1b367db0e86ba7e32b5709a9139d44f7cfdffffff0280841e00000000001976a91400f870e8c417732598432e67c292adb353b25a4e88ac54ee4d00000000001976a914446d8260a4a313f85a07252ee88180234cba4c3388ac13490800", "vin": [{"sequence": 4294967293, "scriptSig": {"hex": "473044022070ec5287e78ba2d8d42c18e45dfcc15953b9c7c3dc864f417d4bd63eb2bea9b402201f47476b66abfc9b4c2aff74a0912310678bb29e1597dc00080423e45482951b0121033a5e8949937c161e05c859a419aa3fb1b367db0e86ba7e32b5709a9139d44f7c", "asm": "3044022070ec5287e78ba2d8d42c18e45dfcc15953b9c7c3dc864f417d4bd63eb2bea9b402201f47476b66abfc9b4c2aff74a0912310678bb29e1597dc00080423e45482951b[ALL] 033a5e8949937c161e05c859a419aa3fb1b367db0e86ba7e32b5709a9139d44f7c"}, "vout": 0, "txid": "2b12ffbbdcf6d7ffe1a39746c8a0971ad6756faf6fcb3428758145f87d97517c"}], "txid": "b49797d4e339174b6073819ab5fb6e57cbd51f7d0dfa0bf41ae2a65c89521d32", "blocktime": 1537873282, "version": 1, "confirmations": 11485, "time": 1537873282, "locktime": 542995, "vsize": 225, "size": 225}