{"hash": "b4a76ac54e9874b2fdfe35ccc92225671c721ede882c6bcb870beeafb40315d4", "blockhash": "0000000000000000000e13cef7c366c0283d82e591d1acd082e914b08063cdf1", "vout": [{"scriptPubKey": {"reqSigs": 1, "hex": "76a9146833f50d6c16cf550c2ce15c7a273b81d5cb723388ac", "addresses": ["1AVyX197sXDm1p6CukY9hyE7RaDHPmjK51"], "asm": "OP_DUP OP_HASH160 6833f50d6c16cf550c2ce15c7a273b81d5cb7233 OP_EQUALVERIFY OP_CHECKSIG", "type": "pubkeyhash"}, "value": 0.17179992, "n": 0}, {"scriptPubKey": {"reqSigs": 1, "hex": "a914af589e026d1e628fc2b8b9921b9dd99e339ce36b87", "addresses": ["3HgALM4phjMNZW4fefWw396XheEQLgrGLa"], "asm": "OP_HASH160 af589e026d1e628fc2b8b9921b9dd99e339ce36b OP_EQUAL", "type": "scripthash"}, "value": 0.0079, "n": 1}], "hex": "0100000001db209c408f0911b29343e21af0c2b64d538ee58009293dcad23bcb5c77ac3d18010000006a473044022050da2d701d94f3d5ec467616970b316c2febe1913814829cd2064f9ffdb7275602206e7b592662ef65a6e2baaad5aa0dcc8673d117297215aca606da9aa00c4e806c0121030cc687ba4bb203c0bc6ddf4614e646c5ec7fd8d81b28ea87014e6744bb5d2202ffffffff0258250601000000001976a9146833f50d6c16cf550c2ce15c7a273b81d5cb723388acf00d0c000000000017a914af589e026d1e628fc2b8b9921b9dd99e339ce36b8700000000", "vin": [{"sequence": 4294967295, "scriptSig": {"hex": "473044022050da2d701d94f3d5ec467616970b316c2febe1913814829cd2064f9ffdb7275602206e7b592662ef65a6e2baaad5aa0dcc8673d117297215aca606da9aa00c4e806c0121030cc687ba4bb203c0bc6ddf4614e646c5ec7fd8d81b28ea87014e6744bb5d2202", "asm": "3044022050da2d701d94f3d5ec467616970b316c2febe1913814829cd2064f9ffdb7275602206e7b592662ef65a6e2baaad5aa0dcc8673d117297215aca606da9aa00c4e806c[ALL] 030cc687ba4bb203c0bc6ddf4614e646c5ec7fd8d81b28ea87014e6744bb5d2202"}, "vout": 1, "txid": "183dac775ccb3bd2ca3d290980e58e534db6c2f01ae24393b211098f409c20db"}], "txid": "b4a76ac54e9874b2fdfe35ccc92225671c721ede882c6bcb870beeafb40315d4", "blocktime": 1537871767, "version": 1, "confirmations": 11495, "time": 1537871767, "locktime": 0, "vsize": 223, "size": 223}