{"hash": "28ba2bc44053f47a7f9f41bc0b62307a2de63a0c332b699d7933a4249b0a7154", "blockhash": "00000000000000000018f53835495a110e01622372bf6ae95dc86f2b0ab887b0", "vout": [{"scriptPubKey": {"reqSigs": 1, "hex": "a9148afed233d7570af17771fd14b8cf9488ead2942787", "addresses": ["3EMxSJBRkkPHQGeX9rspGheFNLEcmzBQbD"], "asm": "OP_HASH160 8afed233d7570af17771fd14b8cf9488ead29427 OP_EQUAL", "type": "scripthash"}, "value": 0.0293601, "n": 0}, {"scriptPubKey": {"reqSigs": 1, "hex": "0014e6c0c56bbf7ff09c8180608bb1ed5cb8d29261e1", "addresses": ["bc1qumqv26al0lcfeqvqvz9mrm2uhrffyc0p2lyp7f"], "asm": "0 e6c0c56bbf7ff09c8180608bb1ed5cb8d29261e1", "type": "witness_v0_keyhash"}, "value": 0.00191669, "n": 1}], "hex": "01000000000101c71c1e277b0fe13df30b8648d0c81254950b112bd198d64cfba618ccbf60e9d50100000017160014cda1ed578ceb0f61a6e6ef6aa3082a117f098328ffffffff02cacc2c000000000017a9148afed233d7570af17771fd14b8cf9488ead2942787b5ec020000000000160014e6c0c56bbf7ff09c8180608bb1ed5cb8d29261e10247304402207a7e1b5e2ddc464bb1f2badda4246b4888d7d0367d17c090a357962b71fbdb040220716093135601dd27bb84602326fcb542d152a9489f402c94569aa23ff25bf273012103b8e8cf0771053fb4c8d013965972b05ca419778eab5e906da9531b502e574f1300000000", "vin": [{"txinwitness": ["304402207a7e1b5e2ddc464bb1f2badda4246b4888d7d0367d17c090a357962b71fbdb040220716093135601dd27bb84602326fcb542d152a9489f402c94569aa23ff25bf27301", "03b8e8cf0771053fb4c8d013965972b05ca419778eab5e906da9531b502e574f13"], "sequence": 4294967295, "scriptSig": {"hex": "160014cda1ed578ceb0f61a6e6ef6aa3082a117f098328", "asm": "0014cda1ed578ceb0f61a6e6ef6aa3082a117f098328"}, "vout": 1, "txid": "d5e960bfcc18a6fb4cd698d12b110b955412c8d048860bf33de10f7b271e1cc7"}], "txid": "b4ac6f2c8ca523128dca0663f5708065a12e01e6610520c1d072efdb9b23809f", "blocktime": 1537870928, "version": 1, "confirmations": 11512, "time": 1537870928, "locktime": 0, "vsize": 165, "size": 246}