{"hash": "b4ad8cb14a4b37bdc2b9be468e0e47876956d8e07dfa4b009e03e202e20fff64", "blockhash": "0000000000000000000baef3f32e3676a92c3b2e5da21b426e4f302fc371ce76", "vout": [{"scriptPubKey": {"reqSigs": 1, "hex": "76a9147d497e06537c7d08c8273f56587cfcfaa01ff23d88ac", "addresses": ["1CRTWK7JFQVXiC9yTcLqCP7VgfB7xgqB1g"], "asm": "OP_DUP OP_HASH160 7d497e06537c7d08c8273f56587cfcfaa01ff23d OP_EQUALVERIFY OP_CHECKSIG", "type": "pubkeyhash"}, "value": 0.00015535, "n": 0}, {"scriptPubKey": {"reqSigs": 1, "hex": "76a9140c88a3a32dabb04c67fe78a897c4ba5aed837fef88ac", "addresses": ["129GoAKL4hgQGs4z5WQwXcXx8jTqRaqBoj"], "asm": "OP_DUP OP_HASH160 0c88a3a32dabb04c67fe78a897c4ba5aed837fef OP_EQUALVERIFY OP_CHECKSIG", "type": "pubkeyhash"}, "value": 0.00024, "n": 1}], "hex": "010000000138f44c8f155eb9b7114322270a9f4b21c61a8a78fdc44e552c9c8a51d30ae769010000006a47304402204447f98d41863bb93315bb14d5df0068248a2a4160db75de8316fc5fe4de1b8302200cf98b5fd32a8e1a2e4429f942f97cf5750c5dc23c7d02140e8ee061943c802b012102bde80f3c0d2799ef9020ada85d806898277abc20dca9ff25e1355745f9bd0cecffffffff02af3c0000000000001976a9147d497e06537c7d08c8273f56587cfcfaa01ff23d88acc05d0000000000001976a9140c88a3a32dabb04c67fe78a897c4ba5aed837fef88ac00000000", "vin": [{"sequence": 4294967295, "scriptSig": {"hex": "47304402204447f98d41863bb93315bb14d5df0068248a2a4160db75de8316fc5fe4de1b8302200cf98b5fd32a8e1a2e4429f942f97cf5750c5dc23c7d02140e8ee061943c802b012102bde80f3c0d2799ef9020ada85d806898277abc20dca9ff25e1355745f9bd0cec", "asm": "304402204447f98d41863bb93315bb14d5df0068248a2a4160db75de8316fc5fe4de1b8302200cf98b5fd32a8e1a2e4429f942f97cf5750c5dc23c7d02140e8ee061943c802b[ALL] 02bde80f3c0d2799ef9020ada85d806898277abc20dca9ff25e1355745f9bd0cec"}, "vout": 1, "txid": "69e70ad3518a9c2c554ec4fd788a1ac6214b9f0a27224311b7b95e158f4cf438"}], "txid": "b4ad8cb14a4b37bdc2b9be468e0e47876956d8e07dfa4b009e03e202e20fff64", "blocktime": 1537876114, "version": 1, "confirmations": 11459, "time": 1537876114, "locktime": 0, "vsize": 225, "size": 225}