{"hash": "b4b84bc0f42f0a091fe4e24eacc5afb4d6da14332630424543414de107c5a15b", "blockhash": "000000000000000000022b45ed06c6f4ccd3cf7fb5ba4856ebd2e58215665228", "vout": [{"scriptPubKey": {"reqSigs": 1, "hex": "76a914d243e6abb9a60fbff430b421d2df4b7d59ec186088ac", "addresses": ["1LAnF8h3qMGx3TSwNUHVneBZUEpwE4gu3D"], "asm": "OP_DUP OP_HASH160 d243e6abb9a60fbff430b421d2df4b7d59ec1860 OP_EQUALVERIFY OP_CHECKSIG", "type": "pubkeyhash"}, "value": 0.00076972, "n": 0}, {"scriptPubKey": {"reqSigs": 1, "hex": "76a9143851f34d13937b673a7d24a1950bb5b21ce94af388ac", "addresses": ["168o1kqNquEJeR9vosUB5fw4eAwcVAgh8P"], "asm": "OP_DUP OP_HASH160 3851f34d13937b673a7d24a1950bb5b21ce94af3 OP_EQUALVERIFY OP_CHECKSIG", "type": "pubkeyhash"}, "value": 5.46e-06, "n": 1}, {"scriptPubKey": {"type": "nulldata", "hex": "6a146f6d6e69000000000000001f0000001247063340", "asm": "OP_RETURN 6f6d6e69000000000000001f0000001247063340"}, "value": 0.0, "n": 2}], "hex": "010000000242a4d5463f823d05c1ef2c3e8b1b3dc4bf4fba93827c2629ecff0e12b148d185010000006b483045022100fbfd2fef92a7af7f5fd5dfa3f941fcf57451f6188dc3fffb33b3666b29266c6d02205749a32a94db07621b0bdf79226c00e601831ed85ae865ccc34585a6f7aee2ee012103a56a5c73c20e17323c980838f9c3d318ad18e1f874c3b589e16906d7ada2d5bfffffffff5619d757eb9c2ba6e0711d88c3a359da678b729fe919394560abd7ad574e5f93000000006b48304502210085a997cb11e881933a4d544285e7aa6d248f9c438bc634472b86b4a10526e62402205cae07460f17200cc448e50067cd7094519f1686c734f3d4862bf5df8f05cbe501210271977291b74f1f5f5c42157e8aae804664eaaeccfd097918450d37f28fb94d77ffffffff03ac2c0100000000001976a914d243e6abb9a60fbff430b421d2df4b7d59ec186088ac22020000000000001976a9143851f34d13937b673a7d24a1950bb5b21ce94af388ac0000000000000000166a146f6d6e69000000000000001f000000124706334000000000", "vin": [{"sequence": 4294967295, "scriptSig": {"hex": "483045022100fbfd2fef92a7af7f5fd5dfa3f941fcf57451f6188dc3fffb33b3666b29266c6d02205749a32a94db07621b0bdf79226c00e601831ed85ae865ccc34585a6f7aee2ee012103a56a5c73c20e17323c980838f9c3d318ad18e1f874c3b589e16906d7ada2d5bf", "asm": "3045022100fbfd2fef92a7af7f5fd5dfa3f941fcf57451f6188dc3fffb33b3666b29266c6d02205749a32a94db07621b0bdf79226c00e601831ed85ae865ccc34585a6f7aee2ee[ALL] 03a56a5c73c20e17323c980838f9c3d318ad18e1f874c3b589e16906d7ada2d5bf"}, "vout": 1, "txid": "85d148b1120effec29267c8293ba4fbfc43d1b8b3e2cefc1053d823f46d5a442"}, {"sequence": 4294967295, "scriptSig": {"hex": "48304502210085a997cb11e881933a4d544285e7aa6d248f9c438bc634472b86b4a10526e62402205cae07460f17200cc448e50067cd7094519f1686c734f3d4862bf5df8f05cbe501210271977291b74f1f5f5c42157e8aae804664eaaeccfd097918450d37f28fb94d77", "asm": "304502210085a997cb11e881933a4d544285e7aa6d248f9c438bc634472b86b4a10526e62402205cae07460f17200cc448e50067cd7094519f1686c734f3d4862bf5df8f05cbe5[ALL] 0271977291b74f1f5f5c42157e8aae804664eaaeccfd097918450d37f28fb94d77"}, "vout": 0, "txid": "935f4e57add7ab60453919e99f728b67da59a3c3881d71e0a62b9ceb57d71956"}], "txid": "b4b84bc0f42f0a091fe4e24eacc5afb4d6da14332630424543414de107c5a15b", "blocktime": 1537869901, "version": 1, "confirmations": 11522, "time": 1537869901, "locktime": 0, "vsize": 405, "size": 405}