{"hash": "b4c04adf9e0960b1f3393d7170b3db683e7e861b00e933539bbb2cbff9dcdd9b", "blockhash": "0000000000000000000baef3f32e3676a92c3b2e5da21b426e4f302fc371ce76", "vout": [{"scriptPubKey": {"reqSigs": 1, "hex": "76a914883146ca461ef0d08ad3b40e43dd746b75037d7788ac", "addresses": ["1DR7vt9XTfMzVN2wUbMeLrNifFpvap3JXJ"], "asm": "OP_DUP OP_HASH160 883146ca461ef0d08ad3b40e43dd746b75037d77 OP_EQUALVERIFY OP_CHECKSIG", "type": "pubkeyhash"}, "value": 0.03610959, "n": 0}, {"scriptPubKey": {"reqSigs": 1, "hex": "76a91476ad90dcc91a1277dea6432ee7831762e79c6f2288ac", "addresses": ["1BpWfCqC3kWt4PbwDFRQRbyjcZyjLNcVuK"], "asm": "OP_DUP OP_HASH160 76ad90dcc91a1277dea6432ee7831762e79c6f22 OP_EQUALVERIFY OP_CHECKSIG", "type": "pubkeyhash"}, "value": 0.07657911, "n": 1}], "hex": "01000000011ebc5db789b373e41f474b0dc37106757ac505287e1c7ca3073045f9150ee138000000006a473044022028d8a37d11ed03cbac9a0d72e11dc30c907ec2686ec4b37f587e0a68d7354e01022047fb5005ffcd96ea380465ee088386661184875d236d8b068a80b982091bfa50012102d333a0f188b3943b3b3b3b12041cb223929269a6a972a07610ce8aab3971ce99fdffffff024f193700000000001976a914883146ca461ef0d08ad3b40e43dd746b75037d7788acb7d97400000000001976a91476ad90dcc91a1277dea6432ee7831762e79c6f2288ac17490800", "vin": [{"sequence": 4294967293, "scriptSig": {"hex": "473044022028d8a37d11ed03cbac9a0d72e11dc30c907ec2686ec4b37f587e0a68d7354e01022047fb5005ffcd96ea380465ee088386661184875d236d8b068a80b982091bfa50012102d333a0f188b3943b3b3b3b12041cb223929269a6a972a07610ce8aab3971ce99", "asm": "3044022028d8a37d11ed03cbac9a0d72e11dc30c907ec2686ec4b37f587e0a68d7354e01022047fb5005ffcd96ea380465ee088386661184875d236d8b068a80b982091bfa50[ALL] 02d333a0f188b3943b3b3b3b12041cb223929269a6a972a07610ce8aab3971ce99"}, "vout": 0, "txid": "38e10e15f9453007a37c1c7e2805c57a750671c30d4b471fe473b389b75dbc1e"}], "txid": "b4c04adf9e0960b1f3393d7170b3db683e7e861b00e933539bbb2cbff9dcdd9b", "blocktime": 1537876114, "version": 1, "confirmations": 11460, "time": 1537876114, "locktime": 542999, "vsize": 225, "size": 225}