{"hash": "b4c72f6ff62b9f1051499c74441d17b1410679e8e5324301769cb4194ba2cfd6", "blockhash": "0000000000000000001f76057863aec43deb6fa401d9628bb513d65a8098bfab", "vout": [{"scriptPubKey": {"reqSigs": 1, "hex": "76a914491ba2e0524760f81135a999f866f7248834b0e988ac", "addresses": ["17fZSCmcgMNEniJ9zVtcTqfB4JLLPjayKp"], "asm": "OP_DUP OP_HASH160 491ba2e0524760f81135a999f866f7248834b0e9 OP_EQUALVERIFY OP_CHECKSIG", "type": "pubkeyhash"}, "value": 0.00062436, "n": 0}, {"scriptPubKey": {"reqSigs": 1, "hex": "76a9145f7feb34a22fff6c4c7eeae76bd4f985ab09464c88ac", "addresses": ["19hxSBCz281RqvUe6f8GSAiPpGNGzocgev"], "asm": "OP_DUP OP_HASH160 5f7feb34a22fff6c4c7eeae76bd4f985ab09464c OP_EQUALVERIFY OP_CHECKSIG", "type": "pubkeyhash"}, "value": 0.46882824, "n": 1}], "hex": "0100000001cedd6b090875fd9966dae8fce0fd2488c81f5c568860d9aef6327cd3abfbcf08010000006b483045022100834523d9560b32af4a1843adcfa8f7dfccc4826f70a0c9192e46ef2bfa6b454a02203b3caa7f1da622d7b39f57554e0c8d3aaa59a118c63944788759ec4e18cfe08201210211959c4ef410ba7a16ef426d498aa5250108fa2dfea2d70f9abd383fc2cc0daaffffffff02e4f30000000000001976a914491ba2e0524760f81135a999f866f7248834b0e988ac0860cb02000000001976a9145f7feb34a22fff6c4c7eeae76bd4f985ab09464c88ac00000000", "vin": [{"sequence": 4294967295, "scriptSig": {"hex": "483045022100834523d9560b32af4a1843adcfa8f7dfccc4826f70a0c9192e46ef2bfa6b454a02203b3caa7f1da622d7b39f57554e0c8d3aaa59a118c63944788759ec4e18cfe08201210211959c4ef410ba7a16ef426d498aa5250108fa2dfea2d70f9abd383fc2cc0daa", "asm": "3045022100834523d9560b32af4a1843adcfa8f7dfccc4826f70a0c9192e46ef2bfa6b454a02203b3caa7f1da622d7b39f57554e0c8d3aaa59a118c63944788759ec4e18cfe082[ALL] 0211959c4ef410ba7a16ef426d498aa5250108fa2dfea2d70f9abd383fc2cc0daa"}, "vout": 1, "txid": "08cffbabd37c32f6aed96088565c1fc88824fde0fce8da6699fd7508096bddce"}], "txid": "b4c72f6ff62b9f1051499c74441d17b1410679e8e5324301769cb4194ba2cfd6", "blocktime": 1537873891, "version": 1, "confirmations": 11478, "time": 1537873891, "locktime": 0, "vsize": 226, "size": 226}