{"hash": "b4d22c21f9612fe1a324c13f416b8eff10f0b654665591fc399695fd004468fa", "blockhash": "0000000000000000000e13cef7c366c0283d82e591d1acd082e914b08063cdf1", "vout": [{"scriptPubKey": {"reqSigs": 1, "hex": "76a9146aa90bc4381b2949cc7970a02c826965c106fb3c88ac", "addresses": ["1Aiy8rVxAzHS45ShzoiRewvuqUeFokwB56"], "asm": "OP_DUP OP_HASH160 6aa90bc4381b2949cc7970a02c826965c106fb3c OP_EQUALVERIFY OP_CHECKSIG", "type": "pubkeyhash"}, "value": 0.99998663, "n": 0}], "hex": "0100000001c7b41560acbf3c0853e8cc923368f271ddaff931ffa4557992fd7cf96040d74b000000008b483045022100ea6f0692f251866e70f6590f0e0001542ebad50da137d0d105bde0685bc6673402205ef810f891782b2110b42a3ef4564d2c837d8e261e4ae0a2d5e550e14c803b24014104ae3d8ad13a19de1607f8a7ffcad951771edfe82925eb1547d0ba3124909c11a48162578d5c07fcb9ee1d34895ba1d0a06b130972ae533d0d5b47a1aeca934cc7ffffffff01c7dbf505000000001976a9146aa90bc4381b2949cc7970a02c826965c106fb3c88ac00000000", "vin": [{"sequence": 4294967295, "scriptSig": {"hex": "483045022100ea6f0692f251866e70f6590f0e0001542ebad50da137d0d105bde0685bc6673402205ef810f891782b2110b42a3ef4564d2c837d8e261e4ae0a2d5e550e14c803b24014104ae3d8ad13a19de1607f8a7ffcad951771edfe82925eb1547d0ba3124909c11a48162578d5c07fcb9ee1d34895ba1d0a06b130972ae533d0d5b47a1aeca934cc7", "asm": "3045022100ea6f0692f251866e70f6590f0e0001542ebad50da137d0d105bde0685bc6673402205ef810f891782b2110b42a3ef4564d2c837d8e261e4ae0a2d5e550e14c803b24[ALL] 04ae3d8ad13a19de1607f8a7ffcad951771edfe82925eb1547d0ba3124909c11a48162578d5c07fcb9ee1d34895ba1d0a06b130972ae533d0d5b47a1aeca934cc7"}, "vout": 0, "txid": "4bd74060f97cfd927955a4ff31f9afdd71f2683392cce853083cbfac6015b4c7"}], "txid": "b4d22c21f9612fe1a324c13f416b8eff10f0b654665591fc399695fd004468fa", "blocktime": 1537871767, "version": 1, "confirmations": 11493, "time": 1537871767, "locktime": 0, "vsize": 224, "size": 224}