{"hash": "b4d5278bca5ec1cda7ce4e6af9fb834614f191791b4db77b7d2000097338fafb", "blockhash": "00000000000000000024a2167bbff67b0be802c0b01cdd79e6331c2be6459f87", "vout": [{"scriptPubKey": {"reqSigs": 1, "hex": "a914536a48430a01c7236a0a122272d826b39a2c419687", "addresses": ["39J5L62UoCcrZoJ5jcFVWoFpzW6Q49RGHf"], "asm": "OP_HASH160 536a48430a01c7236a0a122272d826b39a2c4196 OP_EQUAL", "type": "scripthash"}, "value": 0.00072068, "n": 0}], "hex": "01000000011409d8bf8517c78f208c447f91a606e267fa7568b355e61c7b5a9ba63f6617e2010000006a47304402205be69ca41b08b8ecd6a1542d1530638946ae2b0d1459c4ee9360ffd5c343686002202856870ea3906a9a06c421b1bf51303f995bc1fce73ea941c2cb960a64917411012103d7150a20efd645962ec04f66675017e77a3a1a8324619b6c97fe0a8d1855c251ffffffff01841901000000000017a914536a48430a01c7236a0a122272d826b39a2c41968700000000", "vin": [{"sequence": 4294967295, "scriptSig": {"hex": "47304402205be69ca41b08b8ecd6a1542d1530638946ae2b0d1459c4ee9360ffd5c343686002202856870ea3906a9a06c421b1bf51303f995bc1fce73ea941c2cb960a64917411012103d7150a20efd645962ec04f66675017e77a3a1a8324619b6c97fe0a8d1855c251", "asm": "304402205be69ca41b08b8ecd6a1542d1530638946ae2b0d1459c4ee9360ffd5c343686002202856870ea3906a9a06c421b1bf51303f995bc1fce73ea941c2cb960a64917411[ALL] 03d7150a20efd645962ec04f66675017e77a3a1a8324619b6c97fe0a8d1855c251"}, "vout": 1, "txid": "e217663fa69b5a7b1ce655b36875fa67e206a6917f448c208fc71785bfd80914"}], "txid": "b4d5278bca5ec1cda7ce4e6af9fb834614f191791b4db77b7d2000097338fafb", "blocktime": 1537870564, "version": 1, "confirmations": 11515, "time": 1537870564, "locktime": 0, "vsize": 189, "size": 189}