{"hash": "11738b6b0af9b4ee599f68256f43a025c72ca3800244d78288a9aa68c36fa8ef", "blockhash": "0000000000000000001cda96e906b7601b7a6fb1a3b62bca570a9e5d8f4b3de1", "vout": [{"scriptPubKey": {"reqSigs": 1, "hex": "001442e532368c0651115ddff316916bee1f19c8061b", "addresses": ["bc1qgtjnyd5vqeg3zhwl7vtfz6lwruvuspsmt20jz2"], "asm": "0 42e532368c0651115ddff316916bee1f19c8061b", "type": "witness_v0_keyhash"}, "value": 0.00047083, "n": 0}, {"scriptPubKey": {"reqSigs": 1, "hex": "76a91462f9a19bb360a0c3c690c954a73ac93b0defb7bb88ac", "addresses": ["1A2LGV8JrkBhHwfUaMMLy55eF2uQ2wYnWE"], "asm": "OP_DUP OP_HASH160 62f9a19bb360a0c3c690c954a73ac93b0defb7bb OP_EQUALVERIFY OP_CHECKSIG", "type": "pubkeyhash"}, "value": 0.010543, "n": 1}], "hex": "01000000000101b41c843e27f5fb428b40e4ec26b178a8dc98a6261707b657836f801eb24ed1b51500000017160014b0db9005e5c01d6d15f3c95e42384e43fb7a647affffffff02ebb700000000000016001442e532368c0651115ddff316916bee1f19c8061b5c161000000000001976a91462f9a19bb360a0c3c690c954a73ac93b0defb7bb88ac02483045022100d4e1841295c426e2d17419982d9d0d7b2fcf3e16fedd8acddc1f9644214eb19f022018765e3387b495949157f3b820b939da0e0ddfd0ef0fc603710f74b038a108280121037c4eb2fe4080297878d18bec64b47c2740b26471e1f9a5102cfb01d10879750a00000000", "vin": [{"txinwitness": ["3045022100d4e1841295c426e2d17419982d9d0d7b2fcf3e16fedd8acddc1f9644214eb19f022018765e3387b495949157f3b820b939da0e0ddfd0ef0fc603710f74b038a1082801", "037c4eb2fe4080297878d18bec64b47c2740b26471e1f9a5102cfb01d10879750a"], "sequence": 4294967295, "scriptSig": {"hex": "160014b0db9005e5c01d6d15f3c95e42384e43fb7a647a", "asm": "0014b0db9005e5c01d6d15f3c95e42384e43fb7a647a"}, "vout": 21, "txid": "b5d14eb21e806f8357b6071726a698dca878b126ece4408b42fbf5273e841cb4"}], "txid": "b4d6111a6c903fd7b6a7b52f4f6eeecde88c26cc35831e875773d29a8137bbc6", "blocktime": 1537873282, "version": 1, "confirmations": 11484, "time": 1537873282, "locktime": 0, "vsize": 167, "size": 249}