{"hash": "b4d9e1b980f7e40e68729943f7b6e783bf8a18ee1590c70ce57446baf7717611", "blockhash": "0000000000000000000e13cef7c366c0283d82e591d1acd082e914b08063cdf1", "vout": [{"scriptPubKey": {"reqSigs": 1, "hex": "76a9141480ff85e36f9028e86ce013f6f7c5be9bf2078e88ac", "addresses": ["12sR3nVKG8rk7DJR1VjKLSZ6juqnqCcfan"], "asm": "OP_DUP OP_HASH160 1480ff85e36f9028e86ce013f6f7c5be9bf2078e OP_EQUALVERIFY OP_CHECKSIG", "type": "pubkeyhash"}, "value": 0.002613, "n": 0}, {"scriptPubKey": {"reqSigs": 1, "hex": "76a914ec04ce7c9615bb804a48f6b96b2a18c924fdb50188ac", "addresses": ["1NWxEEu2soBT28nBFAwn5TnM9ZFkKHiprH"], "asm": "OP_DUP OP_HASH160 ec04ce7c9615bb804a48f6b96b2a18c924fdb501 OP_EQUALVERIFY OP_CHECKSIG", "type": "pubkeyhash"}, "value": 0.03977853, "n": 1}], "hex": "01000000013971489aede507ed15425a2f0d1cf338177de7939c763a37c0d1487fa74209ed010000006a473044022062a19e73698b40b4025a9848be1c4997c98cf7d3746a6f2792e72b637b6291a7022029b4a780011bcf24726543c8fc50f2d2ffa0714f9a827e597b9d6976c775924d012103a958ba274789f211d94f98d7e0c53a35129fc3913b01f5b9bfbbd7d467efe748ffffffff02b4fc0300000000001976a9141480ff85e36f9028e86ce013f6f7c5be9bf2078e88ac7db23c00000000001976a914ec04ce7c9615bb804a48f6b96b2a18c924fdb50188ac00000000", "vin": [{"sequence": 4294967295, "scriptSig": {"hex": "473044022062a19e73698b40b4025a9848be1c4997c98cf7d3746a6f2792e72b637b6291a7022029b4a780011bcf24726543c8fc50f2d2ffa0714f9a827e597b9d6976c775924d012103a958ba274789f211d94f98d7e0c53a35129fc3913b01f5b9bfbbd7d467efe748", "asm": "3044022062a19e73698b40b4025a9848be1c4997c98cf7d3746a6f2792e72b637b6291a7022029b4a780011bcf24726543c8fc50f2d2ffa0714f9a827e597b9d6976c775924d[ALL] 03a958ba274789f211d94f98d7e0c53a35129fc3913b01f5b9bfbbd7d467efe748"}, "vout": 1, "txid": "ed0942a77f48d1c0373a769c93e77d1738f31c0d2f5a4215ed07e5ed9a487139"}], "txid": "b4d9e1b980f7e40e68729943f7b6e783bf8a18ee1590c70ce57446baf7717611", "blocktime": 1537871767, "version": 1, "confirmations": 11491, "time": 1537871767, "locktime": 0, "vsize": 225, "size": 225}