{"hash": "993c4bfccb43d500aa5e2c5f7956c9129d0ed4b021eb511e2fbe1c66f2653033", "blockhash": "0000000000000000001f76057863aec43deb6fa401d9628bb513d65a8098bfab", "vout": [{"scriptPubKey": {"reqSigs": 1, "hex": "76a91478909ee1deae18f2319bf9e51418bcbe1eb0e3ac88ac", "addresses": ["1BzVLSNcwznjoynyuFgMXwaGeevycLgDEN"], "asm": "OP_DUP OP_HASH160 78909ee1deae18f2319bf9e51418bcbe1eb0e3ac OP_EQUALVERIFY OP_CHECKSIG", "type": "pubkeyhash"}, "value": 0.00054889, "n": 0}, {"scriptPubKey": {"reqSigs": 1, "hex": "a914bbfef2fa19ca578eccde5a88ea6b4b580c62be0a87", "addresses": ["3Jq3hbHw78KepnnFy231m2bRtfYYgdwEr1"], "asm": "OP_HASH160 bbfef2fa19ca578eccde5a88ea6b4b580c62be0a OP_EQUAL", "type": "scripthash"}, "value": 0.050413, "n": 1}], "hex": "020000000001018c4b0665f74b0619a2a4c58198022e527a2e21b558a8401e891a97b0a923fb47000000001716001467544eafc5d9a67041fd199adbb147fc95de216ffeffffff0269d60000000000001976a91478909ee1deae18f2319bf9e51418bcbe1eb0e3ac88ac94ec4c000000000017a914bbfef2fa19ca578eccde5a88ea6b4b580c62be0a870247304402202dbad3acc534a1ca2839c6ffce9be2fcdab4aa539e88bc0f5dae9a7dab294fab02201ca095c8bad73a714414c90fcd42b79a6bda96afb6ad60527bb5f007a79cb54c012103290c08fe960bcb6c76fa478936e12fb0a132254475ada536a5553f815ed8484614490800", "vin": [{"txinwitness": ["304402202dbad3acc534a1ca2839c6ffce9be2fcdab4aa539e88bc0f5dae9a7dab294fab02201ca095c8bad73a714414c90fcd42b79a6bda96afb6ad60527bb5f007a79cb54c01", "03290c08fe960bcb6c76fa478936e12fb0a132254475ada536a5553f815ed84846"], "sequence": 4294967294, "scriptSig": {"hex": "16001467544eafc5d9a67041fd199adbb147fc95de216f", "asm": "001467544eafc5d9a67041fd199adbb147fc95de216f"}, "vout": 0, "txid": "47fb23a9b0971a891e40a858b5212e7a522e029881c5a4a219064bf765064b8c"}], "txid": "b4da8c62fa0fed1d69004bd5c45dd0b8c9d86c39b5fa2f4a932403f03ae64955", "blocktime": 1537873891, "version": 2, "confirmations": 11478, "time": 1537873891, "locktime": 542996, "vsize": 168, "size": 249}