{"hash": "2b7d73308c4ece100bddfa45250dd5e4502cae603c6f640fbbd0163578ca4167", "blockhash": "00000000000000000024a2167bbff67b0be802c0b01cdd79e6331c2be6459f87", "vout": [{"scriptPubKey": {"reqSigs": 1, "hex": "76a914367caf71c9216ed5dfed99cf56115fea31e5717688ac", "addresses": ["15y6reZ1mCQxFiWqtqYx35hS9zVhzmprcm"], "asm": "OP_DUP OP_HASH160 367caf71c9216ed5dfed99cf56115fea31e57176 OP_EQUALVERIFY OP_CHECKSIG", "type": "pubkeyhash"}, "value": 0.00049342, "n": 0}, {"scriptPubKey": {"reqSigs": 1, "hex": "a91418c020eadd70986e5a2392ca8cef705bf6a7fcd787", "addresses": ["33wtJUYYuRYx25ZspXbSUyyzoPwzBETW13"], "asm": "OP_HASH160 18c020eadd70986e5a2392ca8cef705bf6a7fcd7 OP_EQUAL", "type": "scripthash"}, "value": 0.00255034, "n": 1}], "hex": "01000000000101775922ce5cf2b5cd6901a1a34f82d10a53e96168bafb41e0289fb1df1edcf9ec0a0000002322002034d286ccab95ac2830f1056ba57f00e0448d1d5ecf2fff624cf6f42fa30a8290ffffffff02bec00000000000001976a914367caf71c9216ed5dfed99cf56115fea31e5717688ac3ae403000000000017a91418c020eadd70986e5a2392ca8cef705bf6a7fcd787040047304402200cc59f7bc1c4ac7a5126c9c26d0854e680fc1f09032866d76cb807f1add3bfb7022029bdc472ccccc9b66809ae43907ddaf643e149c6015349e0e6dbed89319d136b0147304402205239323032b6e8bb5d52d9c7cd9a37a990fd5555dd1dfd2984a3b58e72aa629e02203de61b53a9e22dd4bd179914100a075f671d46190547b744ad5a7d71018020da014752210348e3cf19d1b9cafc84385efb67f6683c8f43574f31fab2ae0219a9b9d14edd212103871fc2ca08e6950b38867e8e6a0e94ee625223d3aa0df5c65f414c6d784467e252ae00000000", "vin": [{"txinwitness": ["", "304402200cc59f7bc1c4ac7a5126c9c26d0854e680fc1f09032866d76cb807f1add3bfb7022029bdc472ccccc9b66809ae43907ddaf643e149c6015349e0e6dbed89319d136b01", "304402205239323032b6e8bb5d52d9c7cd9a37a990fd5555dd1dfd2984a3b58e72aa629e02203de61b53a9e22dd4bd179914100a075f671d46190547b744ad5a7d71018020da01", "52210348e3cf19d1b9cafc84385efb67f6683c8f43574f31fab2ae0219a9b9d14edd212103871fc2ca08e6950b38867e8e6a0e94ee625223d3aa0df5c65f414c6d784467e252ae"], "sequence": 4294967295, "scriptSig": {"hex": "22002034d286ccab95ac2830f1056ba57f00e0448d1d5ecf2fff624cf6f42fa30a8290", "asm": "002034d286ccab95ac2830f1056ba57f00e0448d1d5ecf2fff624cf6f42fa30a8290"}, "vout": 10, "txid": "ecf9dc1edfb19f28e041fbba6861e9530ad1824fa3a10169cdb5f25cce225977"}], "txid": "b4db54e92f31d384a793c5e76a6ad6799aa5efc5c96e42c7464b6bac9e480034", "blocktime": 1537870564, "version": 1, "confirmations": 11515, "time": 1537870564, "locktime": 0, "vsize": 207, "size": 372}