{"hash": "b4e41e28ab251a0a5d2d8aea88d73fb03012eaa2b41cf2a07c6199d133292309", "blockhash": "0000000000000000001f76057863aec43deb6fa401d9628bb513d65a8098bfab", "vout": [{"scriptPubKey": {"type": "nulldata", "hex": "6a4c50000077e00001b15f0a0b270be8f1c94f23bb7af8e8e963c7cfd5b95b23cc0f42c2fc38c5da02c0d93ca171c0d941a9a1deb0e2735baa169c0612408b743db2c71d100759d4ba30d2c37bb011d97e02cf", "asm": "OP_RETURN 000077e00001b15f0a0b270be8f1c94f23bb7af8e8e963c7cfd5b95b23cc0f42c2fc38c5da02c0d93ca171c0d941a9a1deb0e2735baa169c0612408b743db2c71d100759d4ba30d2c37bb011d97e02cf"}, "value": 0.0, "n": 0}, {"scriptPubKey": {"reqSigs": 1, "hex": "76a914f0c1e830cee0dee2489a7169028a43b2de52217588ac", "addresses": ["1Nx1Tw9GTeXYesRKEJWdwTNrfXZxEHr4oD"], "asm": "OP_DUP OP_HASH160 f0c1e830cee0dee2489a7169028a43b2de522175 OP_EQUALVERIFY OP_CHECKSIG", "type": "pubkeyhash"}, "value": 0.00638332, "n": 1}], "hex": "0100000001094c9cd15f4d33fa8370ed2dcbd877e2aa69eeca45cda88430cd4ccbffd0997a000000006b4830450221008b4c95bb839baefe2e6c3ca7fdace362f14c45b94025857c72bb6aae57a603f4022040100c95b1fb4bfb11aec1b228afcfecc6f9ba340711e1b97dcd6878b917ac3f012102a60f487b375fa21e8c7035041a2798ee0e045d0a112a3d1ba555a8cc87a0e4d1ffffffff020000000000000000536a4c50000077e00001b15f0a0b270be8f1c94f23bb7af8e8e963c7cfd5b95b23cc0f42c2fc38c5da02c0d93ca171c0d941a9a1deb0e2735baa169c0612408b743db2c71d100759d4ba30d2c37bb011d97e02cf7cbd0900000000001976a914f0c1e830cee0dee2489a7169028a43b2de52217588ac00000000", "vin": [{"sequence": 4294967295, "scriptSig": {"hex": "4830450221008b4c95bb839baefe2e6c3ca7fdace362f14c45b94025857c72bb6aae57a603f4022040100c95b1fb4bfb11aec1b228afcfecc6f9ba340711e1b97dcd6878b917ac3f012102a60f487b375fa21e8c7035041a2798ee0e045d0a112a3d1ba555a8cc87a0e4d1", "asm": "30450221008b4c95bb839baefe2e6c3ca7fdace362f14c45b94025857c72bb6aae57a603f4022040100c95b1fb4bfb11aec1b228afcfecc6f9ba340711e1b97dcd6878b917ac3f[ALL] 02a60f487b375fa21e8c7035041a2798ee0e045d0a112a3d1ba555a8cc87a0e4d1"}, "vout": 0, "txid": "7a99d0ffcb4ccd3084a8cd45caee69aae277d8cb2ded7083fa334d5fd19c4c09"}], "txid": "b4e41e28ab251a0a5d2d8aea88d73fb03012eaa2b41cf2a07c6199d133292309", "blocktime": 1537873891, "version": 1, "confirmations": 11478, "time": 1537873891, "locktime": 0, "vsize": 284, "size": 284}