{"hash": "b4e5ff68fd94f8c9cebb070550e02e45034161961f9f5f17a2fda7e65bbcf257", "blockhash": "0000000000000000000dcc0f55137456b1a82d3642486a52398922ac4d620174", "vout": [{"scriptPubKey": {"type": "nulldata", "hex": "6a146f6d6e69000000000000001f00000012d13012c0", "asm": "OP_RETURN 6f6d6e69000000000000001f00000012d13012c0"}, "value": 0.0, "n": 0}, {"scriptPubKey": {"reqSigs": 1, "hex": "76a9142585bf83c3d6b8d7c0880a51aa470d41800c2d7688ac", "addresses": ["14RQE5aXMzroZEQkAu4XqLvf6SatfKpyaC"], "asm": "OP_DUP OP_HASH160 2585bf83c3d6b8d7c0880a51aa470d41800c2d76 OP_EQUALVERIFY OP_CHECKSIG", "type": "pubkeyhash"}, "value": 5.46e-06, "n": 1}, {"scriptPubKey": {"reqSigs": 1, "hex": "76a91458f32143a95cd11ee5f37e5d1dff6f9fbafa660b88ac", "addresses": ["197Kir2psnjrTFwx8R9cUnmVCUFeUgCNxS"], "asm": "OP_DUP OP_HASH160 58f32143a95cd11ee5f37e5d1dff6f9fbafa660b OP_EQUALVERIFY OP_CHECKSIG", "type": "pubkeyhash"}, "value": 0.91709841, "n": 2}], "hex": "0100000001e44034d080cf9ceb1c0abf62671d51b768d8a4e80fea7069bafd789ba4b16bcc000000006a4730440220600e5d2ce487c3bb9aa9117f0a0ce1d8aa28c8eaead1f72e33c1574eb89ed1c4022067f06d61ce3f7c84484db88d2bf1d7172bd65ff179a0f9b3eca40b8e4d6aa5d501210251e12972b557d5dbac73bfd2470adeac64ac46202389f0ef2db7231f645a0aeafeffffff030000000000000000166a146f6d6e69000000000000001f00000012d13012c022020000000000001976a9142585bf83c3d6b8d7c0880a51aa470d41800c2d7688ac91617705000000001976a91458f32143a95cd11ee5f37e5d1dff6f9fbafa660b88ac0c490800", "vin": [{"sequence": 4294967294, "scriptSig": {"hex": "4730440220600e5d2ce487c3bb9aa9117f0a0ce1d8aa28c8eaead1f72e33c1574eb89ed1c4022067f06d61ce3f7c84484db88d2bf1d7172bd65ff179a0f9b3eca40b8e4d6aa5d501210251e12972b557d5dbac73bfd2470adeac64ac46202389f0ef2db7231f645a0aea", "asm": "30440220600e5d2ce487c3bb9aa9117f0a0ce1d8aa28c8eaead1f72e33c1574eb89ed1c4022067f06d61ce3f7c84484db88d2bf1d7172bd65ff179a0f9b3eca40b8e4d6aa5d5[ALL] 0251e12972b557d5dbac73bfd2470adeac64ac46202389f0ef2db7231f645a0aea"}, "vout": 0, "txid": "cc6bb1a49b78fdba6970ea0fe8a4d868b7511d6762bf0a1ceb9ccf80d03440e4"}], "txid": "b4e5ff68fd94f8c9cebb070550e02e45034161961f9f5f17a2fda7e65bbcf257", "blocktime": 1537870268, "version": 1, "confirmations": 11517, "time": 1537870268, "locktime": 542988, "vsize": 256, "size": 256}