{"hash": "abdea37f4a4413a37bc50e160599a7080f2eb5b91c58ae39d95afbebdbb6d92c", "blockhash": "00000000000000000018f53835495a110e01622372bf6ae95dc86f2b0ab887b0", "vout": [{"scriptPubKey": {"reqSigs": 1, "hex": "76a9149e0cee591a8127f18e5c9662617f1fc2a0e1e45988ac", "addresses": ["1FQhFmu7JhQ6DCRzaQHBMkiFXq5Kn44uJy"], "asm": "OP_DUP OP_HASH160 9e0cee591a8127f18e5c9662617f1fc2a0e1e459 OP_EQUALVERIFY OP_CHECKSIG", "type": "pubkeyhash"}, "value": 0.0282035, "n": 0}, {"scriptPubKey": {"reqSigs": 1, "hex": "a914cfb456d114127771d23ee164c0d6b7d58c1b0d1287", "addresses": ["3LdFqSBKMsfvQ4PCTnUNRB2LxQACz52j8t"], "asm": "OP_HASH160 cfb456d114127771d23ee164c0d6b7d58c1b0d12 OP_EQUAL", "type": "scripthash"}, "value": 0.00998234, "n": 1}], "hex": "0200000000010181a567fb48f7d56138436ffedc8a72919ff6627e96d21ac0d0ee2686ffcfe01b000000001716001431d0a3e2a8f2b9711ccab6e09849fae6b19b8243feffffff02fe082b00000000001976a9149e0cee591a8127f18e5c9662617f1fc2a0e1e45988ac5a3b0f000000000017a914cfb456d114127771d23ee164c0d6b7d58c1b0d12870247304402201625096deae9c18804288bae6d85664342ad75974742ba5a8ce10c93e31105a002207b84d88ffe73366120e22ef72acf2a300449a270ce0180c7e6cadc0fdae06ab90121021611ab5ca18fb493742209a8a9b629fba5bb7a45cbc7e1a7590b4f39359a560d0e490800", "vin": [{"txinwitness": ["304402201625096deae9c18804288bae6d85664342ad75974742ba5a8ce10c93e31105a002207b84d88ffe73366120e22ef72acf2a300449a270ce0180c7e6cadc0fdae06ab901", "021611ab5ca18fb493742209a8a9b629fba5bb7a45cbc7e1a7590b4f39359a560d"], "sequence": 4294967294, "scriptSig": {"hex": "16001431d0a3e2a8f2b9711ccab6e09849fae6b19b8243", "asm": "001431d0a3e2a8f2b9711ccab6e09849fae6b19b8243"}, "vout": 0, "txid": "1be0cfff8626eed0c01ad2967e62f69f91728adcfe6f433861d5f748fb67a581"}], "txid": "b4f09f1a7e48beff8460f9c361c518aeea52476c850693db90450735e31a1e9f", "blocktime": 1537870928, "version": 2, "confirmations": 11512, "time": 1537870928, "locktime": 542990, "vsize": 168, "size": 249}