{"hash": "b4f18779e53cafeb46ee5d23a0b61fd224400304e0a43da0e85382605cbee4a9", "blockhash": "00000000000000000024a2167bbff67b0be802c0b01cdd79e6331c2be6459f87", "vout": [{"scriptPubKey": {"reqSigs": 1, "hex": "76a91457fb25738a05f95f7c5a8a28dca35ed8169c592488ac", "addresses": ["192Cee6usGZ7SphJN668oCmya6ifqeDjmH"], "asm": "OP_DUP OP_HASH160 57fb25738a05f95f7c5a8a28dca35ed8169c5924 OP_EQUALVERIFY OP_CHECKSIG", "type": "pubkeyhash"}, "value": 0.012, "n": 0}, {"scriptPubKey": {"reqSigs": 1, "hex": "76a9143123bd6fb63b2ef2d251a8677108102b5ec4467d88ac", "addresses": ["15Upvf8ddCcADrPdFUPvHhGS5yMLXg8KLy"], "asm": "OP_DUP OP_HASH160 3123bd6fb63b2ef2d251a8677108102b5ec4467d OP_EQUALVERIFY OP_CHECKSIG", "type": "pubkeyhash"}, "value": 1.53320357, "n": 1}], "hex": "01000000010d2fcd2014f9d90a9aee78d76b730def2193337933809d9a1692bab4c22e5d04010000006b483045022100f3bf3a297f78d62f3ff0fdb43af3d1d76d138ad90b0ffca5ae3499456c59cee0022053279d3462db4062c20e856c9c8d4236acca05a546293c20c520d382aac44310012103d0441adecbc74a9a66fb9fb58d837ebbc5f80bf126b199a32e8276dea26929cdffffffff02804f1200000000001976a91457fb25738a05f95f7c5a8a28dca35ed8169c592488aca57b2309000000001976a9143123bd6fb63b2ef2d251a8677108102b5ec4467d88ac00000000", "vin": [{"sequence": 4294967295, "scriptSig": {"hex": "483045022100f3bf3a297f78d62f3ff0fdb43af3d1d76d138ad90b0ffca5ae3499456c59cee0022053279d3462db4062c20e856c9c8d4236acca05a546293c20c520d382aac44310012103d0441adecbc74a9a66fb9fb58d837ebbc5f80bf126b199a32e8276dea26929cd", "asm": "3045022100f3bf3a297f78d62f3ff0fdb43af3d1d76d138ad90b0ffca5ae3499456c59cee0022053279d3462db4062c20e856c9c8d4236acca05a546293c20c520d382aac44310[ALL] 03d0441adecbc74a9a66fb9fb58d837ebbc5f80bf126b199a32e8276dea26929cd"}, "vout": 1, "txid": "045d2ec2b4ba92169a9d803379339321ef0d736bd778ee9a0ad9f91420cd2f0d"}], "txid": "b4f18779e53cafeb46ee5d23a0b61fd224400304e0a43da0e85382605cbee4a9", "blocktime": 1537870564, "version": 1, "confirmations": 11515, "time": 1537870564, "locktime": 0, "vsize": 226, "size": 226}