{"hash": "aedfd15b95cbec03b8c1d0e2e3b590664b1a7dd645d46e0c487ae2c5d8a45582", "blockhash": "00000000000000000017f5eb5941039fbcee6240d03bc1f2f8e35350df66a1d8", "vout": [{"scriptPubKey": {"reqSigs": 1, "hex": "00141c5d3b09056378f963d618f551ef983adee1878b", "addresses": ["bc1qr3wnkzg9vdu0jc7krr64rmuc8t0wrputt7qnf7"], "asm": "0 1c5d3b09056378f963d618f551ef983adee1878b", "type": "witness_v0_keyhash"}, "value": 0.32762688, "n": 0}, {"scriptPubKey": {"reqSigs": 1, "hex": "76a91489a4e5b316add67cbf56ee3543b6314bda81157888ac", "addresses": ["1DYo7YXR7fpAQ1SkyxdALtzEtBC7zDCXUT"], "asm": "OP_DUP OP_HASH160 89a4e5b316add67cbf56ee3543b6314bda811578 OP_EQUALVERIFY OP_CHECKSIG", "type": "pubkeyhash"}, "value": 0.3, "n": 1}], "hex": "01000000000101a3d48979b0da5761c3a0235a27ad8d8eadff244b92d2351ae736b348232027e10000000000ffffffff0240ebf301000000001600141c5d3b09056378f963d618f551ef983adee1878b80c3c901000000001976a91489a4e5b316add67cbf56ee3543b6314bda81157888ac0247304402201b6fbeea43edeca5708ee3009150c47c34a0dc96e11614aed58d3098f0c985e5022036e514b39e894975a27d44ee5c93518eab88224487d266c462b26af8dc89d6ff0121033d825d95b0e81c3d34f647cc5fbcbd34577afa64718e4c5a000324224370a8f200000000", "vin": [{"txinwitness": ["304402201b6fbeea43edeca5708ee3009150c47c34a0dc96e11614aed58d3098f0c985e5022036e514b39e894975a27d44ee5c93518eab88224487d266c462b26af8dc89d6ff01", "033d825d95b0e81c3d34f647cc5fbcbd34577afa64718e4c5a000324224370a8f2"], "sequence": 4294967295, "scriptSig": {"hex": "", "asm": ""}, "vout": 0, "txid": "e127202348b336e71a35d2924b24ffad8e8dad275a23a0c36157dab07989d4a3"}], "txid": "b4f292b4dbf22a0b18a086cfcd240feca32f618539b9d8a6cf4d6a11e3d74076", "blocktime": 1537874412, "version": 1, "confirmations": 11467, "time": 1537874412, "locktime": 0, "vsize": 144, "size": 225}