{"hash": "b4f3e08ff5fb10b8003ad06a6f1813deb489d33d21d7733843c9a8803cf3b7be", "blockhash": "0000000000000000000baef3f32e3676a92c3b2e5da21b426e4f302fc371ce76", "vout": [{"scriptPubKey": {"reqSigs": 1, "hex": "a914e15efbb97af6104f8eb13b3e68fae38b2d6a35cb87", "addresses": ["3NEfkG5wruGFZKgKV4bj4GFtk465Gkfw8F"], "asm": "OP_HASH160 e15efbb97af6104f8eb13b3e68fae38b2d6a35cb OP_EQUAL", "type": "scripthash"}, "value": 0.01, "n": 0}, {"scriptPubKey": {"reqSigs": 1, "hex": "76a914af502133254d446def569cc9acd1cd3e2b4c8bd088ac", "addresses": ["1GyyF5ZGgK6rg2tmPjUkwikXwbjffvNTAJ"], "asm": "OP_DUP OP_HASH160 af502133254d446def569cc9acd1cd3e2b4c8bd0 OP_EQUALVERIFY OP_CHECKSIG", "type": "pubkeyhash"}, "value": 0.7899872, "n": 1}, {"scriptPubKey": {"reqSigs": 1, "hex": "a914c6a2c860a1dfa0bf896c4768464df667566ac47e87", "addresses": ["3KoJisJjkCb4hRnpgBpvc2NZWWtax7orEv"], "asm": "OP_HASH160 c6a2c860a1dfa0bf896c4768464df667566ac47e OP_EQUAL", "type": "scripthash"}, "value": 1.0, "n": 2}], "hex": "0100000001f30c0a5071e6ad547207017aa3bb35a3bb95f25cc8cba042950066f7f9c14be3080000006b483045022100da63e70ae791ad7a214edae5b24203bb42a91b62f51fb1125b3a3410900fda320220201a7e488576a65f9ca5911f2e649275fd45a6dfbc0e940f33f4754a8e353f230121036c9f22da5263836648a3db76611792c6577a43b11479fb4a9304bfff39311b09fdffffff0340420f000000000017a914e15efbb97af6104f8eb13b3e68fae38b2d6a35cb87c06cb504000000001976a914af502133254d446def569cc9acd1cd3e2b4c8bd088ac00e1f5050000000017a914c6a2c860a1dfa0bf896c4768464df667566ac47e8715490800", "vin": [{"sequence": 4294967293, "scriptSig": {"hex": "483045022100da63e70ae791ad7a214edae5b24203bb42a91b62f51fb1125b3a3410900fda320220201a7e488576a65f9ca5911f2e649275fd45a6dfbc0e940f33f4754a8e353f230121036c9f22da5263836648a3db76611792c6577a43b11479fb4a9304bfff39311b09", "asm": "3045022100da63e70ae791ad7a214edae5b24203bb42a91b62f51fb1125b3a3410900fda320220201a7e488576a65f9ca5911f2e649275fd45a6dfbc0e940f33f4754a8e353f23[ALL] 036c9f22da5263836648a3db76611792c6577a43b11479fb4a9304bfff39311b09"}, "vout": 8, "txid": "e34bc1f9f766009542a0cbc85cf295bba335bba37a01077254ade671500a0cf3"}], "txid": "b4f3e08ff5fb10b8003ad06a6f1813deb489d33d21d7733843c9a8803cf3b7be", "blocktime": 1537876114, "version": 1, "confirmations": 11460, "time": 1537876114, "locktime": 542997, "vsize": 256, "size": 256}