{"hash": "b4f75625afaa675a784211aace878d6ee316e10353a005daa1c1166b19e51892", "blockhash": "00000000000000000018f53835495a110e01622372bf6ae95dc86f2b0ab887b0", "vout": [{"scriptPubKey": {"reqSigs": 1, "hex": "76a9145add6f173f26ac9470e033f904755d94391d64be88ac", "addresses": ["19HT5mP9KKE7egnsWvA3C2C1qmNqCUDBvP"], "asm": "OP_DUP OP_HASH160 5add6f173f26ac9470e033f904755d94391d64be OP_EQUALVERIFY OP_CHECKSIG", "type": "pubkeyhash"}, "value": 0.00248403, "n": 0}, {"scriptPubKey": {"reqSigs": 1, "hex": "a91465ad18268e182e11c8456aa06cb93b1b897180ba87", "addresses": ["3AxdXix7PqhAnnm28SQvYibLNudNsMcS2M"], "asm": "OP_HASH160 65ad18268e182e11c8456aa06cb93b1b897180ba OP_EQUAL", "type": "scripthash"}, "value": 0.00919351, "n": 1}], "hex": "0100000001abab8fc76aa4f67203f46c368ed3e32866a971332925b522351b28b4e094a6c9010000006b483045022100d4b39c1bdf5c1c54f7ef3137ebadc21538ad1f9d99c18760ce34c8341a87f9a502204ec1acfec01d071a78a244e4a028caaf7f83d3ee280196ff0b1ebca726aac98501210262052c44227d60be85c84c027898b2dec5ee517a38267abad5737a9d97f0105bfdffffff0253ca0300000000001976a9145add6f173f26ac9470e033f904755d94391d64be88ac37070e000000000017a91465ad18268e182e11c8456aa06cb93b1b897180ba870e490800", "vin": [{"sequence": 4294967293, "scriptSig": {"hex": "483045022100d4b39c1bdf5c1c54f7ef3137ebadc21538ad1f9d99c18760ce34c8341a87f9a502204ec1acfec01d071a78a244e4a028caaf7f83d3ee280196ff0b1ebca726aac98501210262052c44227d60be85c84c027898b2dec5ee517a38267abad5737a9d97f0105b", "asm": "3045022100d4b39c1bdf5c1c54f7ef3137ebadc21538ad1f9d99c18760ce34c8341a87f9a502204ec1acfec01d071a78a244e4a028caaf7f83d3ee280196ff0b1ebca726aac985[ALL] 0262052c44227d60be85c84c027898b2dec5ee517a38267abad5737a9d97f0105b"}, "vout": 1, "txid": "c9a694e0b4281b3522b525293371a96628e3d38e366cf40372f6a46ac78fabab"}], "txid": "b4f75625afaa675a784211aace878d6ee316e10353a005daa1c1166b19e51892", "blocktime": 1537870928, "version": 1, "confirmations": 11514, "time": 1537870928, "locktime": 542990, "vsize": 224, "size": 224}