{"hash": "b4fab713006e1501ef377337ece4d60211fb8fdca022a911b724958558cae2a6", "blockhash": "0000000000000000001f76057863aec43deb6fa401d9628bb513d65a8098bfab", "vout": [{"scriptPubKey": {"reqSigs": 1, "hex": "a914d535e6851e6113b1ea6abe0463f098dbb95fdc6687", "addresses": ["3M8NRUSJesN5F9EYcnxScvYKuMhMikaGxe"], "asm": "OP_HASH160 d535e6851e6113b1ea6abe0463f098dbb95fdc66 OP_EQUAL", "type": "scripthash"}, "value": 0.043574, "n": 0}, {"scriptPubKey": {"reqSigs": 1, "hex": "76a914e1d35b96ec948687b2c4d675ce339bd795a829f688ac", "addresses": ["1Mb4EZKfWkvxKp2C1mVULjxP4zNNqYmUUv"], "asm": "OP_DUP OP_HASH160 e1d35b96ec948687b2c4d675ce339bd795a829f6 OP_EQUALVERIFY OP_CHECKSIG", "type": "pubkeyhash"}, "value": 0.026153, "n": 1}], "hex": "01000000025033126a4f809ec6eb27b99f85a57d16645c61ac41e38450a60eea386ecc9b7c000000006b483045022100a4f9d375b2aa8cff7f9a3f0f088cbccfa9486606fb758b743ef8254ece713b2302202afddff1322ad21ed5e74daec46566a6f58df999859ac2dc248ac2ea7f494b8b01210297de483c39c8e5b9e0b23a963945352c1b4801f7ebc69cd7189f9a3d4558c4d6ffffffff13fd1a09ee46d8fd20439dcf49651aecfa911b9a2db80f39e2d1fadedf0690dc010000006b483045022100e3a7e4b137bb95817e66f1127df809b60b581ca41b70b63d9144966003de171a022016b87741bc1ff9d6683b44a5972d4e5fb4b1fa1578f96da5fad311b27060fb130121035c129c8d971cf75f99d9d9b73f46d850991dd54d78f0990891b77664a3966570ffffffff02187d42000000000017a914d535e6851e6113b1ea6abe0463f098dbb95fdc668704e82700000000001976a914e1d35b96ec948687b2c4d675ce339bd795a829f688ac00000000", "vin": [{"sequence": 4294967295, "scriptSig": {"hex": "483045022100a4f9d375b2aa8cff7f9a3f0f088cbccfa9486606fb758b743ef8254ece713b2302202afddff1322ad21ed5e74daec46566a6f58df999859ac2dc248ac2ea7f494b8b01210297de483c39c8e5b9e0b23a963945352c1b4801f7ebc69cd7189f9a3d4558c4d6", "asm": "3045022100a4f9d375b2aa8cff7f9a3f0f088cbccfa9486606fb758b743ef8254ece713b2302202afddff1322ad21ed5e74daec46566a6f58df999859ac2dc248ac2ea7f494b8b[ALL] 0297de483c39c8e5b9e0b23a963945352c1b4801f7ebc69cd7189f9a3d4558c4d6"}, "vout": 0, "txid": "7c9bcc6e38ea0ea65084e341ac615c64167da5859fb927ebc69e804f6a123350"}, {"sequence": 4294967295, "scriptSig": {"hex": "483045022100e3a7e4b137bb95817e66f1127df809b60b581ca41b70b63d9144966003de171a022016b87741bc1ff9d6683b44a5972d4e5fb4b1fa1578f96da5fad311b27060fb130121035c129c8d971cf75f99d9d9b73f46d850991dd54d78f0990891b77664a3966570", "asm": "3045022100e3a7e4b137bb95817e66f1127df809b60b581ca41b70b63d9144966003de171a022016b87741bc1ff9d6683b44a5972d4e5fb4b1fa1578f96da5fad311b27060fb13[ALL] 035c129c8d971cf75f99d9d9b73f46d850991dd54d78f0990891b77664a3966570"}, "vout": 1, "txid": "dc9006dfdefad1e2390fb82d9a1b91faec1a6549cf9d4320fdd846ee091afd13"}], "txid": "b4fab713006e1501ef377337ece4d60211fb8fdca022a911b724958558cae2a6", "blocktime": 1537873891, "version": 1, "confirmations": 11477, "time": 1537873891, "locktime": 0, "vsize": 372, "size": 372}