{"hash": "b4fb82bd19b68cdc1792151c777ac4466cab9f3edf764041d1ec271445a7e12b", "blockhash": "00000000000000000004ffacab907a6b429b9a5745fa0b75af4234bf69dd7176", "vout": [{"scriptPubKey": {"type": "nulldata", "hex": "6a146f6d6e69000000000000001f00000004cbdb0e00", "asm": "OP_RETURN 6f6d6e69000000000000001f00000004cbdb0e00"}, "value": 0.0, "n": 0}, {"scriptPubKey": {"reqSigs": 1, "hex": "a914b90ae0387729ff16515bc1bf945f075b7a33159287", "addresses": ["3JZRxhaiDAQAJtxMmS4oWbN1sd2YuLrTzd"], "asm": "OP_HASH160 b90ae0387729ff16515bc1bf945f075b7a331592 OP_EQUAL", "type": "scripthash"}, "value": 5.4e-06, "n": 1}, {"scriptPubKey": {"reqSigs": 1, "hex": "76a91426e0a8ea8d1387efba48fc0d183b3ed649959ace88ac", "addresses": ["14YZovqDsfqDJaJv382PdLaksgkemhCyGS"], "asm": "OP_DUP OP_HASH160 26e0a8ea8d1387efba48fc0d183b3ed649959ace OP_EQUALVERIFY OP_CHECKSIG", "type": "pubkeyhash"}, "value": 0.00495962, "n": 2}], "hex": "010000000193b058f87ee65b44d612a39be0f997b957d30541aa146b7d604f1804df2ee2a2040000006a4730440220173ccb4e3ffaf62da12eb850fddbc74c61775948141aecdbb01cb7813a2f823c02200499d3036960364078e59e2b859e9137e7a90339e5475f8f42f2b9ea780dad3c01210300ad58c2ce4171397bbc53c5da61c5347b01e260ca09ecaa8321d48b0df1a222feffffff030000000000000000166a146f6d6e69000000000000001f00000004cbdb0e001c0200000000000017a914b90ae0387729ff16515bc1bf945f075b7a331592875a910700000000001976a91426e0a8ea8d1387efba48fc0d183b3ed649959ace88ac16490800", "vin": [{"sequence": 4294967294, "scriptSig": {"hex": "4730440220173ccb4e3ffaf62da12eb850fddbc74c61775948141aecdbb01cb7813a2f823c02200499d3036960364078e59e2b859e9137e7a90339e5475f8f42f2b9ea780dad3c01210300ad58c2ce4171397bbc53c5da61c5347b01e260ca09ecaa8321d48b0df1a222", "asm": "30440220173ccb4e3ffaf62da12eb850fddbc74c61775948141aecdbb01cb7813a2f823c02200499d3036960364078e59e2b859e9137e7a90339e5475f8f42f2b9ea780dad3c[ALL] 0300ad58c2ce4171397bbc53c5da61c5347b01e260ca09ecaa8321d48b0df1a222"}, "vout": 4, "txid": "a2e22edf04184f607d6b14aa4105d357b997f9e09ba312d6445be67ef858b093"}], "txid": "b4fb82bd19b68cdc1792151c777ac4466cab9f3edf764041d1ec271445a7e12b", "blocktime": 1537875543, "version": 1, "confirmations": 11464, "time": 1537875543, "locktime": 542998, "vsize": 254, "size": 254}