{"hash": "b319561554fd1a86cd320226d9d4cfc409e006cf898afbcec25d7fd4f3eac9b3", "blockhash": "000000000000000000022b45ed06c6f4ccd3cf7fb5ba4856ebd2e58215665228", "vout": [{"scriptPubKey": {"reqSigs": 1, "hex": "a914a8996302d1485378b68808227e07f3cdd154673b87", "addresses": ["3H4VCGda7hTiY8Y2yT2UvokLHLjh8SyZU8"], "asm": "OP_HASH160 a8996302d1485378b68808227e07f3cdd154673b OP_EQUAL", "type": "scripthash"}, "value": 0.04576776, "n": 0}, {"scriptPubKey": {"reqSigs": 1, "hex": "a91469cbd4577301ca3fec62fd01dbef22e49094ba5787", "addresses": ["3BLR41FJHpCJA3neyNZ2Xkt4jZk8Damt54"], "asm": "OP_HASH160 69cbd4577301ca3fec62fd01dbef22e49094ba57 OP_EQUAL", "type": "scripthash"}, "value": 1.83049915, "n": 1}], "hex": "02000000000101f728f32f0c63008201d9c37459ec02c999fb1cc2a1bac318467e4fe49372473c01000000171600145026b428960ad1f43d95646473ca0de252f1a473feffffff0208d645000000000017a914a8996302d1485378b68808227e07f3cdd154673b87bb1ee90a0000000017a91469cbd4577301ca3fec62fd01dbef22e49094ba57870247304402207c3782a0e691982564ffb0463b96ac6566765c21011f9334c806a78174223e0f022079ccea646ed83b5c52691d1df79396a2cfb7e7fc62730df028a6b0a13f097d20012102c6a20ccd7895e3b292c55e778e421cf531127981e971cc7c5870a7adb036cf700b490800", "vin": [{"txinwitness": ["304402207c3782a0e691982564ffb0463b96ac6566765c21011f9334c806a78174223e0f022079ccea646ed83b5c52691d1df79396a2cfb7e7fc62730df028a6b0a13f097d2001", "02c6a20ccd7895e3b292c55e778e421cf531127981e971cc7c5870a7adb036cf70"], "sequence": 4294967294, "scriptSig": {"hex": "1600145026b428960ad1f43d95646473ca0de252f1a473", "asm": "00145026b428960ad1f43d95646473ca0de252f1a473"}, "vout": 1, "txid": "3c477293e44f7e4618c3baa1c21cfb99c902ec5974c3d9018200630c2ff328f7"}], "txid": "b4fc5173d721df1bc9a92123f167e41f2c4aee4e9984f4e0b7922d1d9caeec4d", "blocktime": 1537869901, "version": 2, "confirmations": 11523, "time": 1537869901, "locktime": 542987, "vsize": 166, "size": 247}