{"hash": "b4fe766194d8ba955951970f389eb8f85ea2943b6b839ce36fa87c6dc47d63f4", "blockhash": "0000000000000000001cda96e906b7601b7a6fb1a3b62bca570a9e5d8f4b3de1", "vout": [{"scriptPubKey": {"reqSigs": 1, "hex": "a914151805f9304390cfd295c85491f79daf4220d41387", "addresses": ["33cYtk2bjR5n6pYMGarKVjhFMz8RC5iEjA"], "asm": "OP_HASH160 151805f9304390cfd295c85491f79daf4220d413 OP_EQUAL", "type": "scripthash"}, "value": 9.43e-05, "n": 0}], "hex": "01000000016c8f578c4a5bddfbc210da04aeadd45197e44111a3b9e6c31461e520c779894c250000006b483045022100bcd912a3658108465b411944e3d21b47c765614bf3137fadae3d47fa5b32adda02207c118753fa63343937cec051bf961dcf9a2f4a7f926b4e37cf6a1ee04df3b7cb0121035f9e1d1293e160537e2d54220e2cd51a79a699a2b0cf61aff691bca571d5e567ffffffff01d62400000000000017a914151805f9304390cfd295c85491f79daf4220d4138700000000", "vin": [{"sequence": 4294967295, "scriptSig": {"hex": "483045022100bcd912a3658108465b411944e3d21b47c765614bf3137fadae3d47fa5b32adda02207c118753fa63343937cec051bf961dcf9a2f4a7f926b4e37cf6a1ee04df3b7cb0121035f9e1d1293e160537e2d54220e2cd51a79a699a2b0cf61aff691bca571d5e567", "asm": "3045022100bcd912a3658108465b411944e3d21b47c765614bf3137fadae3d47fa5b32adda02207c118753fa63343937cec051bf961dcf9a2f4a7f926b4e37cf6a1ee04df3b7cb[ALL] 035f9e1d1293e160537e2d54220e2cd51a79a699a2b0cf61aff691bca571d5e567"}, "vout": 37, "txid": "4c8979c720e56114c3e6b9a31141e49751d4adae04da10c2fbdd5b4a8c578f6c"}], "txid": "b4fe766194d8ba955951970f389eb8f85ea2943b6b839ce36fa87c6dc47d63f4", "blocktime": 1537873282, "version": 1, "confirmations": 11484, "time": 1537873282, "locktime": 0, "vsize": 190, "size": 190}