{"hash": "b504dab6849087becc6832fc61eed7db824e306859f49264d579f6a744c1dba8", "blockhash": "00000000000000000024a2167bbff67b0be802c0b01cdd79e6331c2be6459f87", "vout": [{"scriptPubKey": {"reqSigs": 1, "hex": "a9147923eacf4ec446caed2b8f90627714ceb3b86da387", "addresses": ["3CjYiKy5RPREngiJgMkWAHGQf13KamYZaX"], "asm": "OP_HASH160 7923eacf4ec446caed2b8f90627714ceb3b86da3 OP_EQUAL", "type": "scripthash"}, "value": 0.000834, "n": 0}], "hex": "01000000015a56cc04b6ca94bb5e74d469f3cbf5ec5d407dddf1b647a28d9d725bb8fcb81a090000006b483045022100d6d8ebc1726a4f73f0e07a18d4f9c5c0dc1d1a87808b42369daf3036e62fcd720220142e8ac5c4560c50aa09ba6e6cd42f9956dfcd743cec2e3f48d43e3154642bf1012102cdd97b84b71fcd7e4dc3a82168fb733804540ea48e3e4d88e1cd470648ab3788ffffffff01c84501000000000017a9147923eacf4ec446caed2b8f90627714ceb3b86da38700000000", "vin": [{"sequence": 4294967295, "scriptSig": {"hex": "483045022100d6d8ebc1726a4f73f0e07a18d4f9c5c0dc1d1a87808b42369daf3036e62fcd720220142e8ac5c4560c50aa09ba6e6cd42f9956dfcd743cec2e3f48d43e3154642bf1012102cdd97b84b71fcd7e4dc3a82168fb733804540ea48e3e4d88e1cd470648ab3788", "asm": "3045022100d6d8ebc1726a4f73f0e07a18d4f9c5c0dc1d1a87808b42369daf3036e62fcd720220142e8ac5c4560c50aa09ba6e6cd42f9956dfcd743cec2e3f48d43e3154642bf1[ALL] 02cdd97b84b71fcd7e4dc3a82168fb733804540ea48e3e4d88e1cd470648ab3788"}, "vout": 9, "txid": "1ab8fcb85b729d8da247b6f1dd7d405decf5cbf369d4745ebb94cab604cc565a"}], "txid": "b504dab6849087becc6832fc61eed7db824e306859f49264d579f6a744c1dba8", "blocktime": 1537870564, "version": 1, "confirmations": 11515, "time": 1537870564, "locktime": 0, "vsize": 190, "size": 190}