{"hash": "b506e994580883d73cc214681263bd6ff7a740887a09ad18150fff05d8fe8dcc", "blockhash": "0000000000000000001e0dab787dd257d1dbfcb92a98c2207d5e1078be1f4165", "vout": [{"scriptPubKey": {"reqSigs": 1, "hex": "76a91447978d5ad3e9725f3ec7543a6e224d48fa51cea888ac", "addresses": ["17XYXeehkeo77J8ZjhLt6uuaAyoUpLVRv5"], "asm": "OP_DUP OP_HASH160 47978d5ad3e9725f3ec7543a6e224d48fa51cea8 OP_EQUALVERIFY OP_CHECKSIG", "type": "pubkeyhash"}, "value": 0.00046233, "n": 0}, {"scriptPubKey": {"reqSigs": 1, "hex": "76a91465b004d42fab52b96fe4bec0c83baf27063e65b288ac", "addresses": ["1AGg7P2r9NpHA7tCHm1G3Xpb9AjPD9XArb"], "asm": "OP_DUP OP_HASH160 65b004d42fab52b96fe4bec0c83baf27063e65b2 OP_EQUALVERIFY OP_CHECKSIG", "type": "pubkeyhash"}, "value": 0.00780999, "n": 1}], "hex": "010000000160dbcca62acc12df6a29d23b3695de57795b576ca0a18536915a3a4aa88beb81010000006b483045022100a6605e1231ba6e60b647a564d4d7fcaea279a660aa0c73627155086891cf1cc4022055b74650440d2cc00bbf840101c2165215927075b29adbab22d8e2db39628fde012102fba882ac74da45167ca9e255a6cceb7c6e075554175fd0e2d35cbf084e71d4beffffffff0299b40000000000001976a91447978d5ad3e9725f3ec7543a6e224d48fa51cea888acc7ea0b00000000001976a91465b004d42fab52b96fe4bec0c83baf27063e65b288ac00000000", "vin": [{"sequence": 4294967295, "scriptSig": {"hex": "483045022100a6605e1231ba6e60b647a564d4d7fcaea279a660aa0c73627155086891cf1cc4022055b74650440d2cc00bbf840101c2165215927075b29adbab22d8e2db39628fde012102fba882ac74da45167ca9e255a6cceb7c6e075554175fd0e2d35cbf084e71d4be", "asm": "3045022100a6605e1231ba6e60b647a564d4d7fcaea279a660aa0c73627155086891cf1cc4022055b74650440d2cc00bbf840101c2165215927075b29adbab22d8e2db39628fde[ALL] 02fba882ac74da45167ca9e255a6cceb7c6e075554175fd0e2d35cbf084e71d4be"}, "vout": 1, "txid": "81eb8ba84a3a5a913685a1a06c575b7957de95363bd2296adf12cc2aa6ccdb60"}], "txid": "b506e994580883d73cc214681263bd6ff7a740887a09ad18150fff05d8fe8dcc", "blocktime": 1537872475, "version": 1, "confirmations": 11487, "time": 1537872475, "locktime": 0, "vsize": 226, "size": 226}