{"hash": "cb2b2c1e0c0335035ce0edb9ce49f76f37f4295a15cec12e56f965e547294769", "blockhash": "00000000000000000024a2167bbff67b0be802c0b01cdd79e6331c2be6459f87", "vout": [{"scriptPubKey": {"reqSigs": 1, "hex": "76a914e340f2a407404cf5a2935fdbefe6422d3aa7d82288ac", "addresses": ["1MicCCXs2j5EMyHAPfMEhSuzUBSC53Sszj"], "asm": "OP_DUP OP_HASH160 e340f2a407404cf5a2935fdbefe6422d3aa7d822 OP_EQUALVERIFY OP_CHECKSIG", "type": "pubkeyhash"}, "value": 0.0020356, "n": 0}, {"scriptPubKey": {"reqSigs": 1, "hex": "a9144fd7469d75b5dada7e91dfa1e34966800d9d509787", "addresses": ["38yBCKrmR1Jvgj8x9WZ5Wj75my5mhuKAjp"], "asm": "OP_HASH160 4fd7469d75b5dada7e91dfa1e34966800d9d5097 OP_EQUAL", "type": "scripthash"}, "value": 0.01000184, "n": 1}], "hex": "02000000000102b083b6745af1e61ced8d2631cdab8c3db1f470f9b009739394a7703cb52fed8f010000001716001431af74efdff68495f7d19b5eae908acdea1fa331feffffffc07516bee2a5dd4987ae86dec4f006b5216c157ef2f86dd5434c9e900e242b440000000017160014a05bdc01518351ebb0df8088a6ca43ffc1cb1f90feffffff02281b0300000000001976a914e340f2a407404cf5a2935fdbefe6422d3aa7d82288acf8420f000000000017a9144fd7469d75b5dada7e91dfa1e34966800d9d50978702483045022100be4f742530031a18f5eab646098a46404788f36f8608bf7336e538362282bda202200af59d6a2b59f3d7317e35cfb9fadfa493587ffd82332818ae48ff546414232a01210382b6e248c65cc110b24803201948960044a0cfff891f8b352e6cb6b1597481d302483045022100a980f2c3a898dc2924eb8f4c808e23214548b58ba89d9b5d7011dfdb24da8fd1022007ebee26e854d3fa93e5336ce044d2f145ea8a490e157f850788274ae03ad5cb012103968cc076df8baba7e46caba78a8720e6cc11c8fcb78f36dc7948c83dd521eefb0d490800", "vin": [{"txinwitness": ["3045022100be4f742530031a18f5eab646098a46404788f36f8608bf7336e538362282bda202200af59d6a2b59f3d7317e35cfb9fadfa493587ffd82332818ae48ff546414232a01", "0382b6e248c65cc110b24803201948960044a0cfff891f8b352e6cb6b1597481d3"], "sequence": 4294967294, "scriptSig": {"hex": "16001431af74efdff68495f7d19b5eae908acdea1fa331", "asm": "001431af74efdff68495f7d19b5eae908acdea1fa331"}, "vout": 1, "txid": "8fed2fb53c70a794937309b0f970f4b13d8cabcd31268ded1ce6f15a74b683b0"}, {"txinwitness": ["3045022100a980f2c3a898dc2924eb8f4c808e23214548b58ba89d9b5d7011dfdb24da8fd1022007ebee26e854d3fa93e5336ce044d2f145ea8a490e157f850788274ae03ad5cb01", "03968cc076df8baba7e46caba78a8720e6cc11c8fcb78f36dc7948c83dd521eefb"], "sequence": 4294967294, "scriptSig": {"hex": "160014a05bdc01518351ebb0df8088a6ca43ffc1cb1f90", "asm": "0014a05bdc01518351ebb0df8088a6ca43ffc1cb1f90"}, "vout": 0, "txid": "442b240e909e4c43d56df8f27e156c21b506f0c4de86ae8749dda5e2be1675c0"}], "txid": "b508ddbc419bce84d8a67534d891ff5550f183a88afd3ca9f6d7c2109b756af0", "blocktime": 1537870564, "version": 2, "confirmations": 11515, "time": 1537870564, "locktime": 542989, "vsize": 259, "size": 422}