{"hash": "b50e03fc48d29aa86d189405ada8f73dcd8dd999a2a2dcbed9abcb96a95178a7", "blockhash": "0000000000000000000e13cef7c366c0283d82e591d1acd082e914b08063cdf1", "vout": [{"scriptPubKey": {"reqSigs": 1, "hex": "76a91451dabedceab88672ea057c1066f992ced11ef13188ac", "addresses": ["18TonFGvuDBYasnooKHaWa2kjdVZBnDZkP"], "asm": "OP_DUP OP_HASH160 51dabedceab88672ea057c1066f992ced11ef131 OP_EQUALVERIFY OP_CHECKSIG", "type": "pubkeyhash"}, "value": 0.0064682, "n": 0}, {"scriptPubKey": {"type": "nulldata", "hex": "6a4c500000779300017408c2422a3447f127938381e3ef3236678a625097bcbefa6b8351586b4e5e8873b762a885c851f2c443d8dabebe5baa0cd1061501fa992e3d731d100759d4ba30d2c37bb011d97e02cf", "asm": "OP_RETURN 0000779300017408c2422a3447f127938381e3ef3236678a625097bcbefa6b8351586b4e5e8873b762a885c851f2c443d8dabebe5baa0cd1061501fa992e3d731d100759d4ba30d2c37bb011d97e02cf"}, "value": 0.0, "n": 1}], "hex": "0100000001cd717bb8215046c9fbf9ac8ee141ae68fd278aaf4e7556404224b14f174a411a000000006b483045022100cc37fbe29f7ad78f92c3296da1d80dbf54b8b599dcf8759b94a628ba305beced02204eafa04066c9b58411243633730382b13dcd9d8b0666e5f8940903c8ae4cbed7012103367b6c13c84a6a2e1d1fd947fc417f6a7d1f592549163f616a70d7072957e42effffffff02a4de0900000000001976a91451dabedceab88672ea057c1066f992ced11ef13188ac0000000000000000536a4c500000779300017408c2422a3447f127938381e3ef3236678a625097bcbefa6b8351586b4e5e8873b762a885c851f2c443d8dabebe5baa0cd1061501fa992e3d731d100759d4ba30d2c37bb011d97e02cf00000000", "vin": [{"sequence": 4294967295, "scriptSig": {"hex": "483045022100cc37fbe29f7ad78f92c3296da1d80dbf54b8b599dcf8759b94a628ba305beced02204eafa04066c9b58411243633730382b13dcd9d8b0666e5f8940903c8ae4cbed7012103367b6c13c84a6a2e1d1fd947fc417f6a7d1f592549163f616a70d7072957e42e", "asm": "3045022100cc37fbe29f7ad78f92c3296da1d80dbf54b8b599dcf8759b94a628ba305beced02204eafa04066c9b58411243633730382b13dcd9d8b0666e5f8940903c8ae4cbed7[ALL] 03367b6c13c84a6a2e1d1fd947fc417f6a7d1f592549163f616a70d7072957e42e"}, "vout": 0, "txid": "1a414a174fb124424056754eaf8a27fd68ae41e18eacf9fbc9465021b87b71cd"}], "txid": "b50e03fc48d29aa86d189405ada8f73dcd8dd999a2a2dcbed9abcb96a95178a7", "blocktime": 1537871767, "version": 1, "confirmations": 11495, "time": 1537871767, "locktime": 0, "vsize": 284, "size": 284}