{"hash": "b50fe6ca438d265bd3c5fb464baa5f6e10f21e5fecc4b27f9b32f7f939d56e50", "blockhash": "00000000000000000004ffacab907a6b429b9a5745fa0b75af4234bf69dd7176", "vout": [{"scriptPubKey": {"reqSigs": 1, "hex": "a9141ea1bff00953d7a9c4798b1a4fbde07972c20e4b87", "addresses": ["34UyxsLnd66iSzz3KDy4PqVNft6KQ88JQU"], "asm": "OP_HASH160 1ea1bff00953d7a9c4798b1a4fbde07972c20e4b OP_EQUAL", "type": "scripthash"}, "value": 0.031842, "n": 0}], "hex": "010000000113c030f72b2795d2ea7b96120be4962ae41248d801c1c841c2b915b2d4b8d497000000006a4730440220175a00b16bbe4a258862515d8afaa847f88f5881ed188cec052435cec0cfa76102202b07a5ffb979933084ff266377613ef9967c72987eba3150a4fa36c2f11f65730121021713447d1ad7c596596b7a7e61beabc0b400725aee9051986592e4e75efeee37ffffffff01489630000000000017a9141ea1bff00953d7a9c4798b1a4fbde07972c20e4b8700000000", "vin": [{"sequence": 4294967295, "scriptSig": {"hex": "4730440220175a00b16bbe4a258862515d8afaa847f88f5881ed188cec052435cec0cfa76102202b07a5ffb979933084ff266377613ef9967c72987eba3150a4fa36c2f11f65730121021713447d1ad7c596596b7a7e61beabc0b400725aee9051986592e4e75efeee37", "asm": "30440220175a00b16bbe4a258862515d8afaa847f88f5881ed188cec052435cec0cfa76102202b07a5ffb979933084ff266377613ef9967c72987eba3150a4fa36c2f11f6573[ALL] 021713447d1ad7c596596b7a7e61beabc0b400725aee9051986592e4e75efeee37"}, "vout": 0, "txid": "97d4b8d4b215b9c241c8c101d84812e42a96e40b12967bead295272bf730c013"}], "txid": "b50fe6ca438d265bd3c5fb464baa5f6e10f21e5fecc4b27f9b32f7f939d56e50", "blocktime": 1537875543, "version": 1, "confirmations": 11464, "time": 1537875543, "locktime": 0, "vsize": 189, "size": 189}