{"hash": "b511ee4dbf945d8d8267e21004ef2155eaaa16b93672a69b428ed5e4e6550498", "blockhash": "0000000000000000000dcc0f55137456b1a82d3642486a52398922ac4d620174", "vout": [{"scriptPubKey": {"reqSigs": 1, "hex": "76a91444d99f92f839e0492c29f8d3a9eac6148fbf3ab388ac", "addresses": ["17H3enBRdFyH1xRp9fWiV9YJ8HQ7z2KHrh"], "asm": "OP_DUP OP_HASH160 44d99f92f839e0492c29f8d3a9eac6148fbf3ab3 OP_EQUALVERIFY OP_CHECKSIG", "type": "pubkeyhash"}, "value": 0.0315, "n": 0}, {"scriptPubKey": {"reqSigs": 1, "hex": "a914e370231feecbfc25e2e2423a5a79bf79bfdca59887", "addresses": ["3NRbeX3vD5VaVE4TDU9ivCDsEf7NPPte6J"], "asm": "OP_HASH160 e370231feecbfc25e2e2423a5a79bf79bfdca598 OP_EQUAL", "type": "scripthash"}, "value": 11.69683716, "n": 1}], "hex": "01000000018d00801f13b813a4879761ed82e1e90d6fad9ad2573e6fba594d1e64dc8a5c3401000000da00483045022100a9fddc5fe80bf7e5b22c9d4a945dca11bfb6ad288dd24de98c65d873362ebb7c02202c484d494d6c9d57fa52b0bbe210ef0dd6944f1dc14b0565733d256ccca1e99801473044022050c318e80c1a9a2aa726c9e1af609672612cfe478bb9473c39c45e8eea7b49a8022068388976b18a79bb7d52284d8c78057298d1f5dcdd4e6b55fcb31db5b84d9085014752210327881b6abce6535553a3ce21fad12a7d74fd237ce7c4cd270a267162344e3082210256141f8eb687f5a68c5cc65054652dc25116fa285e44d72b44368827ffe77d9a52aeffffffff02b0103000000000001976a91444d99f92f839e0492c29f8d3a9eac6148fbf3ab388ac04f5b7450000000017a914e370231feecbfc25e2e2423a5a79bf79bfdca5988700000000", "vin": [{"sequence": 4294967295, "scriptSig": {"hex": "00483045022100a9fddc5fe80bf7e5b22c9d4a945dca11bfb6ad288dd24de98c65d873362ebb7c02202c484d494d6c9d57fa52b0bbe210ef0dd6944f1dc14b0565733d256ccca1e99801473044022050c318e80c1a9a2aa726c9e1af609672612cfe478bb9473c39c45e8eea7b49a8022068388976b18a79bb7d52284d8c78057298d1f5dcdd4e6b55fcb31db5b84d9085014752210327881b6abce6535553a3ce21fad12a7d74fd237ce7c4cd270a267162344e3082210256141f8eb687f5a68c5cc65054652dc25116fa285e44d72b44368827ffe77d9a52ae", "asm": "0 3045022100a9fddc5fe80bf7e5b22c9d4a945dca11bfb6ad288dd24de98c65d873362ebb7c02202c484d494d6c9d57fa52b0bbe210ef0dd6944f1dc14b0565733d256ccca1e998[ALL] 3044022050c318e80c1a9a2aa726c9e1af609672612cfe478bb9473c39c45e8eea7b49a8022068388976b18a79bb7d52284d8c78057298d1f5dcdd4e6b55fcb31db5b84d9085[ALL] 52210327881b6abce6535553a3ce21fad12a7d74fd237ce7c4cd270a267162344e3082210256141f8eb687f5a68c5cc65054652dc25116fa285e44d72b44368827ffe77d9a52ae"}, "vout": 1, "txid": "345c8adc641e4d59ba6f3e57d29aad6f0de9e182ed619787a413b8131f80008d"}], "txid": "b511ee4dbf945d8d8267e21004ef2155eaaa16b93672a69b428ed5e4e6550498", "blocktime": 1537870268, "version": 1, "confirmations": 11518, "time": 1537870268, "locktime": 0, "vsize": 335, "size": 335}