{"hash": "b513154a721ee9629be27b7c14a4eb686423f38349c683b39f7a6008859797f8", "blockhash": "0000000000000000000baef3f32e3676a92c3b2e5da21b426e4f302fc371ce76", "vout": [{"scriptPubKey": {"reqSigs": 1, "hex": "76a91427cb7eea9a83b1c97364e20a2db0b00c32bb875988ac", "addresses": ["14dR8cgSP7Th653jfH7W8mvtuD6uu2BEBD"], "asm": "OP_DUP OP_HASH160 27cb7eea9a83b1c97364e20a2db0b00c32bb8759 OP_EQUALVERIFY OP_CHECKSIG", "type": "pubkeyhash"}, "value": 0.00195303, "n": 0}, {"scriptPubKey": {"reqSigs": 1, "hex": "76a9146677df0ffe25787593d66e2f129d36e01df9323788ac", "addresses": ["1ALoXNefb9qobKbG949vKatCNeHvrmLtic"], "asm": "OP_DUP OP_HASH160 6677df0ffe25787593d66e2f129d36e01df93237 OP_EQUALVERIFY OP_CHECKSIG", "type": "pubkeyhash"}, "value": 0.00021355, "n": 1}], "hex": "0100000001b2ea0be2f11c656346353c35bf30c0db5a937f393e1dca7a88581f6d44e808ff000000006a4730440220269d5df24510e36be0b93c2a2d674374897e5edb2459e76849f956b2c48891f402200face6881a5177d72006540597ae752af4277817d890a0fec92dc926a77bbf550121027e61ce6c6b3c24293b9a9d07562a31fc244c1211ec49164339997948036f3e1cffffffff02e7fa0200000000001976a91427cb7eea9a83b1c97364e20a2db0b00c32bb875988ac6b530000000000001976a9146677df0ffe25787593d66e2f129d36e01df9323788ac00000000", "vin": [{"sequence": 4294967295, "scriptSig": {"hex": "4730440220269d5df24510e36be0b93c2a2d674374897e5edb2459e76849f956b2c48891f402200face6881a5177d72006540597ae752af4277817d890a0fec92dc926a77bbf550121027e61ce6c6b3c24293b9a9d07562a31fc244c1211ec49164339997948036f3e1c", "asm": "30440220269d5df24510e36be0b93c2a2d674374897e5edb2459e76849f956b2c48891f402200face6881a5177d72006540597ae752af4277817d890a0fec92dc926a77bbf55[ALL] 027e61ce6c6b3c24293b9a9d07562a31fc244c1211ec49164339997948036f3e1c"}, "vout": 0, "txid": "ff08e8446d1f58887aca1d3e397f935adbc030bf353c354663651cf1e20beab2"}], "txid": "b513154a721ee9629be27b7c14a4eb686423f38349c683b39f7a6008859797f8", "blocktime": 1537876114, "version": 1, "confirmations": 11459, "time": 1537876114, "locktime": 0, "vsize": 225, "size": 225}