{"hash": "efb7c3264282e8f9386837fda39c1b2fbcbf40b37d8c376d4197b5705eb1bc0d", "blockhash": "0000000000000000000dcc0f55137456b1a82d3642486a52398922ac4d620174", "vout": [{"scriptPubKey": {"reqSigs": 1, "hex": "002037895daf60093df22cca6718ae99da00fbc27eecefe2d7de965679f49ef0cee2", "addresses": ["bc1qx7y4mtmqpy7lytx2vuv2axw6qrauylhval3d0h5k2eulf8hsem3qs0f66d"], "asm": "0 37895daf60093df22cca6718ae99da00fbc27eecefe2d7de965679f49ef0cee2", "type": "witness_v0_scripthash"}, "value": 0.005, "n": 0}, {"scriptPubKey": {"reqSigs": 1, "hex": "0014c1e58b7907eb012cb57e1aa2e38a6b14ea3aae87", "addresses": ["bc1qc8jck7g8avqjedt7r23w8zntzn4r4t58v9dmez"], "asm": "0 c1e58b7907eb012cb57e1aa2e38a6b14ea3aae87", "type": "witness_v0_keyhash"}, "value": 0.1041346, "n": 1}], "hex": "0100000000010145664f1dfc37711340a86d2ff87cd70df392386bd00b98bad1c7c9fdea154a330100000000ffffffff0220a107000000000022002037895daf60093df22cca6718ae99da00fbc27eecefe2d7de965679f49ef0cee294e59e0000000000160014c1e58b7907eb012cb57e1aa2e38a6b14ea3aae870247304402203b6bdb23bcd844094b3ceee6b6ee8e7356dbd1f19884f232340c572018124dbd022071733cff8b918ae340d7d3ba60837303966105de6840058fd1ecfc6815b8b91f012102d882196d7b7ad1ff5eab5984322aeaa6bb4b7056f2218e460b93de2f14db8a3d00000000", "vin": [{"txinwitness": ["304402203b6bdb23bcd844094b3ceee6b6ee8e7356dbd1f19884f232340c572018124dbd022071733cff8b918ae340d7d3ba60837303966105de6840058fd1ecfc6815b8b91f01", "02d882196d7b7ad1ff5eab5984322aeaa6bb4b7056f2218e460b93de2f14db8a3d"], "sequence": 4294967295, "scriptSig": {"hex": "", "asm": ""}, "vout": 1, "txid": "334a15eafdc9c7d1ba980bd06b3892f30dd77cf82f6da840137137fc1d4f6645"}], "txid": "b52052d1abc777edc51faacb91be66d5b2d5d75a24a9c207c26169aa170be017", "blocktime": 1537870268, "version": 1, "confirmations": 11519, "time": 1537870268, "locktime": 0, "vsize": 153, "size": 234}