{"hash": "38fae3b88323f2d0c14201ccd276720c9ccd22362dcfae7a6bec5ced5501a777", "blockhash": "0000000000000000000dcc0f55137456b1a82d3642486a52398922ac4d620174", "vout": [{"scriptPubKey": {"reqSigs": 1, "hex": "a914d1c9b01e57c16ac82bdc3f4c8b6489b213e5b1a587", "addresses": ["3LpGmAL4HV6a2Nwk8yVQLBrmD9Tyv8Euk9"], "asm": "OP_HASH160 d1c9b01e57c16ac82bdc3f4c8b6489b213e5b1a5 OP_EQUAL", "type": "scripthash"}, "value": 2.00272547, "n": 0}, {"scriptPubKey": {"reqSigs": 1, "hex": "76a914ff9149f91e5a9b88794a8e698acdbe452acb589488ac", "addresses": ["1QJKMmgxXaVAtkUJYKC2bjd7kXqLWpwt2v"], "asm": "OP_DUP OP_HASH160 ff9149f91e5a9b88794a8e698acdbe452acb5894 OP_EQUALVERIFY OP_CHECKSIG", "type": "pubkeyhash"}, "value": 0.043, "n": 1}], "hex": "0200000000010139ed765ebc178ad31d46543ca05c1dc76d55492523e970728239004679efb7ca0100000017160014270d15487e872455ff114fe40c5089c1618bb628ffffffff02a3eaef0b0000000017a914d1c9b01e57c16ac82bdc3f4c8b6489b213e5b1a587e09c4100000000001976a914ff9149f91e5a9b88794a8e698acdbe452acb589488ac0247304402205e0a619b7c81b099528975b18d1441923af2810c84beb0b3d13a7a535588f82802205eab8cbbbab86c35477b7f146101bf72f363d97b235806abb4cfd3cef3ecaad00121033d60dad4f4c40909c417c49be2ee75a46424452a8dde55bd35afbf8d5748c88d00000000", "vin": [{"txinwitness": ["304402205e0a619b7c81b099528975b18d1441923af2810c84beb0b3d13a7a535588f82802205eab8cbbbab86c35477b7f146101bf72f363d97b235806abb4cfd3cef3ecaad001", "033d60dad4f4c40909c417c49be2ee75a46424452a8dde55bd35afbf8d5748c88d"], "sequence": 4294967295, "scriptSig": {"hex": "160014270d15487e872455ff114fe40c5089c1618bb628", "asm": "0014270d15487e872455ff114fe40c5089c1618bb628"}, "vout": 1, "txid": "cab7ef79460039827270e9232549556dc71d5ca03c54461dd38a17bc5e76ed39"}], "txid": "b521bcec8c4477cc9f1eb1f259156424dbedd2e3e82b49c3db8ab8ce126beff2", "blocktime": 1537870268, "version": 2, "confirmations": 11517, "time": 1537870268, "locktime": 0, "vsize": 168, "size": 249}