{"hash": "b529030c65bd026651ba64909c2491dc80ac815497dac6fe9f5513122ad8b382", "blockhash": "00000000000000000004ffacab907a6b429b9a5745fa0b75af4234bf69dd7176", "vout": [{"scriptPubKey": {"reqSigs": 1, "hex": "a9144f46ef653c4f3d29e875b96ba72c903d0c2eb8ed87", "addresses": ["38vCHMjBe7FVhYkcUnQu31XEV6N8esbTko"], "asm": "OP_HASH160 4f46ef653c4f3d29e875b96ba72c903d0c2eb8ed OP_EQUAL", "type": "scripthash"}, "value": 0.025973, "n": 0}, {"scriptPubKey": {"reqSigs": 1, "hex": "76a914492018157e188793957160eace5656f9d512fe4988ac", "addresses": ["17femwUdxCh8YxjhVRf2VW4AeNnuFnQsQP"], "asm": "OP_DUP OP_HASH160 492018157e188793957160eace5656f9d512fe49 OP_EQUALVERIFY OP_CHECKSIG", "type": "pubkeyhash"}, "value": 0.223303, "n": 1}], "hex": "0200000001f9ba8ce89fc23c5fc3f8595f86255079bb48e34897bfd8f29e6a11834c81e6c6020000006a47304402204651ed2d9d720b8ed2c48b98d524acb9725796003fcd9bcbb4121b5a50dc5f0602204ae8ca801e5c674966f403599170530cb1752925c46c3ad3ec260572d1fd7756012102b3c6fb83adcb65990ee5a237ac6d65b8654661a62266894232e9967d1856e91efeffffff02b4a127000000000017a9144f46ef653c4f3d29e875b96ba72c903d0c2eb8ed87bcbb5401000000001976a914492018157e188793957160eace5656f9d512fe4988acfb480800", "vin": [{"sequence": 4294967294, "scriptSig": {"hex": "47304402204651ed2d9d720b8ed2c48b98d524acb9725796003fcd9bcbb4121b5a50dc5f0602204ae8ca801e5c674966f403599170530cb1752925c46c3ad3ec260572d1fd7756012102b3c6fb83adcb65990ee5a237ac6d65b8654661a62266894232e9967d1856e91e", "asm": "304402204651ed2d9d720b8ed2c48b98d524acb9725796003fcd9bcbb4121b5a50dc5f0602204ae8ca801e5c674966f403599170530cb1752925c46c3ad3ec260572d1fd7756[ALL] 02b3c6fb83adcb65990ee5a237ac6d65b8654661a62266894232e9967d1856e91e"}, "vout": 2, "txid": "c6e6814c83116a9ef2d8bf9748e348bb795025865f59f8c35f3cc29fe88cbaf9"}], "txid": "b529030c65bd026651ba64909c2491dc80ac815497dac6fe9f5513122ad8b382", "blocktime": 1537875543, "version": 2, "confirmations": 11464, "time": 1537875543, "locktime": 542971, "vsize": 223, "size": 223}