{"hash": "b52a2a00ee766c48c03a495d963bb65aeff0cf870c06d2fd46ce304289f1c535", "blockhash": "0000000000000000001cda96e906b7601b7a6fb1a3b62bca570a9e5d8f4b3de1", "vout": [{"scriptPubKey": {"reqSigs": 1, "hex": "76a91482ff32c3fdd1767ec57c2155492df619619c987988ac", "addresses": ["1CweZRm7jsAEdCPbt8aSHLf6g9axrUBwRf"], "asm": "OP_DUP OP_HASH160 82ff32c3fdd1767ec57c2155492df619619c9879 OP_EQUALVERIFY OP_CHECKSIG", "type": "pubkeyhash"}, "value": 0.0653, "n": 0}, {"scriptPubKey": {"reqSigs": 1, "hex": "a9144a244bf1f4fea078b531c7fdbea8421552986d1187", "addresses": ["38T3Qg8K8nhHqu1uKG51dGQBgG3QFkivCw"], "asm": "OP_HASH160 4a244bf1f4fea078b531c7fdbea8421552986d11 OP_EQUAL", "type": "scripthash"}, "value": 0.00976053, "n": 1}], "hex": "020000000404ba284f2ea3b8d0fe0d534df50557fa7a3e3067da8d42d2bd7fffa59a60e03b000000006a47304402205612681d174a8de79031b76ed4c33236de478689d32b188c0ef4cccb8c2dc0670220635c543005c3c501ecf86e403972d82b2ac7bf9bb52561b33c23b491b97693d7012102c6a2bd93b872c476ecbeee39efdfd1d1cf3bb748f8aa1932ddddc5d432ba5e3bfeffffff2d1ccd3b39fb6d5a1b320362fc413274d45d243b7c050ebbd9cd1ebc291f813b0c0000006b483045022100f6521e59dac35865ebe527f1251263932eab491e6d011e623953befdb7cd2e3802204bdd65581894d7ffddea7fac8f1ec92ae247c68d3346a23f49fac46ca4ff50930121025c8a86725772cef78f7cee3c5cabd8bab3b4e28687c0d573df20d3f65e9c819afeffffff3f1ea2b98e3d0ea501d82489a31fe180b7035a011f7711cb46eef1d13ba7f2fb000000006b483045022100a51f67aadd1437dbe348ecb2947a6ec4611502c06ffed46967a788c93d29a8b202207c9d076d9e0721e2a7f33918323182083de7fa9e9edfaf07ba4d031e147b1c5f012102c6a2bd93b872c476ecbeee39efdfd1d1cf3bb748f8aa1932ddddc5d432ba5e3bfeffffff872465fe77f1875272903d8fb9799016e5eb47aa54b818d2d77cc9e0a5ef022f020000006b483045022100ff50ab15f1b16cd874ee121c2cca0bff5b48c5c76ae4e058eb2e0538876e383902201aa5f5088c29cf8d8344c96d3e659caf932f9ce694c3db1e87c9cfb7a715719b012103903d5fbee409a9d9cadd751b19d948cdf2c9343b939bafc5c76ec7236a308b3dfeffffff02d0a36300000000001976a91482ff32c3fdd1767ec57c2155492df619619c987988acb5e40e000000000017a9144a244bf1f4fea078b531c7fdbea8421552986d11870f490800", "vin": [{"sequence": 4294967294, "scriptSig": {"hex": "47304402205612681d174a8de79031b76ed4c33236de478689d32b188c0ef4cccb8c2dc0670220635c543005c3c501ecf86e403972d82b2ac7bf9bb52561b33c23b491b97693d7012102c6a2bd93b872c476ecbeee39efdfd1d1cf3bb748f8aa1932ddddc5d432ba5e3b", "asm": "304402205612681d174a8de79031b76ed4c33236de478689d32b188c0ef4cccb8c2dc0670220635c543005c3c501ecf86e403972d82b2ac7bf9bb52561b33c23b491b97693d7[ALL] 02c6a2bd93b872c476ecbeee39efdfd1d1cf3bb748f8aa1932ddddc5d432ba5e3b"}, "vout": 0, "txid": "3be0609aa5ff7fbdd2428dda67303e7afa5705f54d530dfed0b8a32e4f28ba04"}, {"sequence": 4294967294, "scriptSig": {"hex": "483045022100f6521e59dac35865ebe527f1251263932eab491e6d011e623953befdb7cd2e3802204bdd65581894d7ffddea7fac8f1ec92ae247c68d3346a23f49fac46ca4ff50930121025c8a86725772cef78f7cee3c5cabd8bab3b4e28687c0d573df20d3f65e9c819a", "asm": "3045022100f6521e59dac35865ebe527f1251263932eab491e6d011e623953befdb7cd2e3802204bdd65581894d7ffddea7fac8f1ec92ae247c68d3346a23f49fac46ca4ff5093[ALL] 025c8a86725772cef78f7cee3c5cabd8bab3b4e28687c0d573df20d3f65e9c819a"}, "vout": 12, "txid": "3b811f29bc1ecdd9bb0e057c3b245dd4743241fc6203321b5a6dfb393bcd1c2d"}, {"sequence": 4294967294, "scriptSig": {"hex": "483045022100a51f67aadd1437dbe348ecb2947a6ec4611502c06ffed46967a788c93d29a8b202207c9d076d9e0721e2a7f33918323182083de7fa9e9edfaf07ba4d031e147b1c5f012102c6a2bd93b872c476ecbeee39efdfd1d1cf3bb748f8aa1932ddddc5d432ba5e3b", "asm": "3045022100a51f67aadd1437dbe348ecb2947a6ec4611502c06ffed46967a788c93d29a8b202207c9d076d9e0721e2a7f33918323182083de7fa9e9edfaf07ba4d031e147b1c5f[ALL] 02c6a2bd93b872c476ecbeee39efdfd1d1cf3bb748f8aa1932ddddc5d432ba5e3b"}, "vout": 0, "txid": "fbf2a73bd1f1ee46cb11771f015a03b780e11fa38924d801a50e3d8eb9a21e3f"}, {"sequence": 4294967294, "scriptSig": {"hex": "483045022100ff50ab15f1b16cd874ee121c2cca0bff5b48c5c76ae4e058eb2e0538876e383902201aa5f5088c29cf8d8344c96d3e659caf932f9ce694c3db1e87c9cfb7a715719b012103903d5fbee409a9d9cadd751b19d948cdf2c9343b939bafc5c76ec7236a308b3d", "asm": "3045022100ff50ab15f1b16cd874ee121c2cca0bff5b48c5c76ae4e058eb2e0538876e383902201aa5f5088c29cf8d8344c96d3e659caf932f9ce694c3db1e87c9cfb7a715719b[ALL] 03903d5fbee409a9d9cadd751b19d948cdf2c9343b939bafc5c76ec7236a308b3d"}, "vout": 2, "txid": "2f02efa5e0c97cd7d218b854aa47ebe5169079b98f3d90725287f177fe652487"}], "txid": "b52a2a00ee766c48c03a495d963bb65aeff0cf870c06d2fd46ce304289f1c535", "blocktime": 1537873282, "version": 2, "confirmations": 11480, "time": 1537873282, "locktime": 542991, "vsize": 667, "size": 667}