{"hash": "b52cf272ee94992412c0886b136778f4d1e15fe9050869f93d899b453b26a640", "blockhash": "0000000000000000001cda96e906b7601b7a6fb1a3b62bca570a9e5d8f4b3de1", "vout": [{"scriptPubKey": {"reqSigs": 1, "hex": "76a9142340ebdd36a1b09ebeb049445db53eea9342599f88ac", "addresses": ["14DQRXdfMUaRuyG1xQvB5UdY1gXmVY5Cxu"], "asm": "OP_DUP OP_HASH160 2340ebdd36a1b09ebeb049445db53eea9342599f OP_EQUALVERIFY OP_CHECKSIG", "type": "pubkeyhash"}, "value": 0.01394575, "n": 0}, {"scriptPubKey": {"reqSigs": 1, "hex": "76a9145e6782bf5699ecbfdf6458f754de7e682101ea3688ac", "addresses": ["19cAX5rwPBFVs1h4A2dJdvQ2EujXYYCUw5"], "asm": "OP_DUP OP_HASH160 5e6782bf5699ecbfdf6458f754de7e682101ea36 OP_EQUALVERIFY OP_CHECKSIG", "type": "pubkeyhash"}, "value": 3.7261, "n": 1}], "hex": "0100000004452575d351a72d50ac06228135387f8c31fe1e68cd87402624bb9b8f0224f95c010000006a47304402200935a8adce84f855fc2ea157b2c9a9edd8a5215e65289d2540f3bcf0b38c9bda022014ed51dab4c54f06e271fdcbda96ce4f5f0ab5f502ce35414f9a08d9d8a5a657012102e8b8f2a6fee4c386972b5696c1c7565d380aec4fddcfcd61e44dbbabb40d38a1ffffffffd17270791f1417fb5302b598c3093605f9e23a1cebbd7d4588967dcb58bbd56d000000006b4830450221008dd149ef16d1ba9afaf1024d2897aeacea8a09840604bdefd2a6dab66221586e02207fc62d7d5feda40204c2c75aa4873c93e50b79c3691880a7c893775ab0d92da7012103634558a0275e53e6f360a0a4413995453e8c2e600b21ec469f8ce98e504bc9a7ffffffff33f35f18985a44bbbd43a712c01e29884dec24539600bc24ede1ca94eac77d89000000006a473044022036da61423af8155223309e26b229a7563d8d85802545668222a190f4ab2334e102204dc2a7e1121afd3396ee91615cb759b87db0814aec8ead1e7b78e4542f06c2280121035c914cd6aaddf5a1741ea7222916dbf2b811655a625056ec41e8e4ce24f1e55bffffffffb1b70d4e9b1fd7ef6cc8d08fd5718ba3e2d2183dd0e4a2a2aa958fd08bd6b390000000006a47304402206ffdd3c0f2593c6654f65db05d349a6668b914c72b415106ccf9b9274fb588a5022043d49d6e277fefa7b75a58edc885060596f39b4637fa3a5b29ff897031bd7f68012103a160513fd3902bc87e9469f14c4146dc39fe7b872c150c8ff520865b772b8dafffffffff028f471500000000001976a9142340ebdd36a1b09ebeb049445db53eea9342599f88acd0933516000000001976a9145e6782bf5699ecbfdf6458f754de7e682101ea3688ac00000000", "vin": [{"sequence": 4294967295, "scriptSig": {"hex": "47304402200935a8adce84f855fc2ea157b2c9a9edd8a5215e65289d2540f3bcf0b38c9bda022014ed51dab4c54f06e271fdcbda96ce4f5f0ab5f502ce35414f9a08d9d8a5a657012102e8b8f2a6fee4c386972b5696c1c7565d380aec4fddcfcd61e44dbbabb40d38a1", "asm": "304402200935a8adce84f855fc2ea157b2c9a9edd8a5215e65289d2540f3bcf0b38c9bda022014ed51dab4c54f06e271fdcbda96ce4f5f0ab5f502ce35414f9a08d9d8a5a657[ALL] 02e8b8f2a6fee4c386972b5696c1c7565d380aec4fddcfcd61e44dbbabb40d38a1"}, "vout": 1, "txid": "5cf924028f9bbb24264087cd681efe318c7f3835812206ac502da751d3752545"}, {"sequence": 4294967295, "scriptSig": {"hex": "4830450221008dd149ef16d1ba9afaf1024d2897aeacea8a09840604bdefd2a6dab66221586e02207fc62d7d5feda40204c2c75aa4873c93e50b79c3691880a7c893775ab0d92da7012103634558a0275e53e6f360a0a4413995453e8c2e600b21ec469f8ce98e504bc9a7", "asm": "30450221008dd149ef16d1ba9afaf1024d2897aeacea8a09840604bdefd2a6dab66221586e02207fc62d7d5feda40204c2c75aa4873c93e50b79c3691880a7c893775ab0d92da7[ALL] 03634558a0275e53e6f360a0a4413995453e8c2e600b21ec469f8ce98e504bc9a7"}, "vout": 0, "txid": "6dd5bb58cb7d9688457dbdeb1c3ae2f9053609c398b50253fb17141f797072d1"}, {"sequence": 4294967295, "scriptSig": {"hex": "473044022036da61423af8155223309e26b229a7563d8d85802545668222a190f4ab2334e102204dc2a7e1121afd3396ee91615cb759b87db0814aec8ead1e7b78e4542f06c2280121035c914cd6aaddf5a1741ea7222916dbf2b811655a625056ec41e8e4ce24f1e55b", "asm": "3044022036da61423af8155223309e26b229a7563d8d85802545668222a190f4ab2334e102204dc2a7e1121afd3396ee91615cb759b87db0814aec8ead1e7b78e4542f06c228[ALL] 035c914cd6aaddf5a1741ea7222916dbf2b811655a625056ec41e8e4ce24f1e55b"}, "vout": 0, "txid": "897dc7ea94cae1ed24bc00965324ec4d88291ec012a743bdbb445a98185ff333"}, {"sequence": 4294967295, "scriptSig": {"hex": "47304402206ffdd3c0f2593c6654f65db05d349a6668b914c72b415106ccf9b9274fb588a5022043d49d6e277fefa7b75a58edc885060596f39b4637fa3a5b29ff897031bd7f68012103a160513fd3902bc87e9469f14c4146dc39fe7b872c150c8ff520865b772b8daf", "asm": "304402206ffdd3c0f2593c6654f65db05d349a6668b914c72b415106ccf9b9274fb588a5022043d49d6e277fefa7b75a58edc885060596f39b4637fa3a5b29ff897031bd7f68[ALL] 03a160513fd3902bc87e9469f14c4146dc39fe7b872c150c8ff520865b772b8daf"}, "vout": 0, "txid": "90b3d68bd08f95aaa2a2e4d03d18d2e2a38b71d58fd0c86cefd71f9b4e0db7b1"}], "txid": "b52cf272ee94992412c0886b136778f4d1e15fe9050869f93d899b453b26a640", "blocktime": 1537873282, "version": 1, "confirmations": 11482, "time": 1537873282, "locktime": 0, "vsize": 667, "size": 667}