{"hash": "b5324b7855a2c1b8234a1175eb514627bf5e04e4f1f26acb6316b5e023fffdb7", "blockhash": "0000000000000000000e13cef7c366c0283d82e591d1acd082e914b08063cdf1", "vout": [{"scriptPubKey": {"reqSigs": 1, "hex": "76a914a6425f0dddb9327262e9d9922677a960e300eacb88ac", "addresses": ["1GA6gQNfCJCESrMa8YfzsNo4RhdSjJGVXa"], "asm": "OP_DUP OP_HASH160 a6425f0dddb9327262e9d9922677a960e300eacb OP_EQUALVERIFY OP_CHECKSIG", "type": "pubkeyhash"}, "value": 5.356e-05, "n": 0}, {"scriptPubKey": {"reqSigs": 1, "hex": "a914ef06a3f0b17561157cc384dc27b4735fcaed8b6287", "addresses": ["3PUsNmq1hsMQHKd8g98jQecALdvtCpgCbV"], "asm": "OP_HASH160 ef06a3f0b17561157cc384dc27b4735fcaed8b62 OP_EQUAL", "type": "scripthash"}, "value": 0.00235, "n": 1}], "hex": "01000000024c04124e69a29c6fe811b4162ac69648f6c4990e6e0fc3eaec6ae6250bcf4d51000000006b483045022100bf720ec3f48f536741e1ba52c1856e4e6efc9d0ba511b1b187e84ba40a9a067f0220386cf2864d69ffd8adfb6d6714b61b47a0bf51502fe131350557663875f7e95b0121039d93def06c6d8eb0bb28f13755fabda33966fabb76320f5695c7965b09bc88c8ffffffffbe2281dc4c56ddea5d463f221df18de0d8b51de0a33610deb5242546eef5b8c5010000006b483045022100e619801d825800eff9179685235dc2988db906b573573e241b6dc763692c1198022071ccd1102798d8a0f0200492e6203c6fa3f057a8888764d688f9d1fa595de6f30121028408b43df3c8b863763e8deb8f2c55aed74b7064e58ecea06484a6c7d403af39ffffffff02ec140000000000001976a914a6425f0dddb9327262e9d9922677a960e300eacb88acf89503000000000017a914ef06a3f0b17561157cc384dc27b4735fcaed8b628700000000", "vin": [{"sequence": 4294967295, "scriptSig": {"hex": "483045022100bf720ec3f48f536741e1ba52c1856e4e6efc9d0ba511b1b187e84ba40a9a067f0220386cf2864d69ffd8adfb6d6714b61b47a0bf51502fe131350557663875f7e95b0121039d93def06c6d8eb0bb28f13755fabda33966fabb76320f5695c7965b09bc88c8", "asm": "3045022100bf720ec3f48f536741e1ba52c1856e4e6efc9d0ba511b1b187e84ba40a9a067f0220386cf2864d69ffd8adfb6d6714b61b47a0bf51502fe131350557663875f7e95b[ALL] 039d93def06c6d8eb0bb28f13755fabda33966fabb76320f5695c7965b09bc88c8"}, "vout": 0, "txid": "514dcf0b25e66aeceac30f6e0e99c4f64896c62a16b411e86f9ca2694e12044c"}, {"sequence": 4294967295, "scriptSig": {"hex": "483045022100e619801d825800eff9179685235dc2988db906b573573e241b6dc763692c1198022071ccd1102798d8a0f0200492e6203c6fa3f057a8888764d688f9d1fa595de6f30121028408b43df3c8b863763e8deb8f2c55aed74b7064e58ecea06484a6c7d403af39", "asm": "3045022100e619801d825800eff9179685235dc2988db906b573573e241b6dc763692c1198022071ccd1102798d8a0f0200492e6203c6fa3f057a8888764d688f9d1fa595de6f3[ALL] 028408b43df3c8b863763e8deb8f2c55aed74b7064e58ecea06484a6c7d403af39"}, "vout": 1, "txid": "c5b8f5ee462524b5de1036a3e01db5d8e08df11d223f465deadd564cdc8122be"}], "txid": "b5324b7855a2c1b8234a1175eb514627bf5e04e4f1f26acb6316b5e023fffdb7", "blocktime": 1537871767, "version": 1, "confirmations": 11491, "time": 1537871767, "locktime": 0, "vsize": 372, "size": 372}