{"hash": "b5331756cf7bdd80a1942c154a13ae1d1610ca01c4ee012d86abe017a80afe87", "blockhash": "0000000000000000000e13cef7c366c0283d82e591d1acd082e914b08063cdf1", "vout": [{"scriptPubKey": {"reqSigs": 1, "hex": "a9146cdbb6dbd5fa0f8a0913c7ad9ef3982e90501eee87", "addresses": ["3Bcc7H5h9oZC1XdL3S7iC7Q6WWFL9FeVWz"], "asm": "OP_HASH160 6cdbb6dbd5fa0f8a0913c7ad9ef3982e90501eee OP_EQUAL", "type": "scripthash"}, "value": 0.01033, "n": 0}, {"scriptPubKey": {"reqSigs": 1, "hex": "a914e370231feecbfc25e2e2423a5a79bf79bfdca59887", "addresses": ["3NRbeX3vD5VaVE4TDU9ivCDsEf7NPPte6J"], "asm": "OP_HASH160 e370231feecbfc25e2e2423a5a79bf79bfdca598 OP_EQUAL", "type": "scripthash"}, "value": 0.5551984, "n": 1}], "hex": "010000000182fb01136c439668c6fabe9408d009b2445c9ffe9cd752a91b5005cac0ba042a01000000db00483045022100fa498df708c8c0b40cf41be7b25bdc0bcf51c5bccef0e836ebd38ca38381c3ee0220185c84dd157239c77c695d03ad0502480c3ff198f4f1696a243440a4a252662b01483045022100f936693343cf8961679524926bef3839cf6b8dbc9c92beddc461d182571725e20220406b52e3a6a581cfd58b724a5f835e85d4d4f1292adbc9f2ceabeee73d357471014752210327881b6abce6535553a3ce21fad12a7d74fd237ce7c4cd270a267162344e3082210256141f8eb687f5a68c5cc65054652dc25116fa285e44d72b44368827ffe77d9a52aeffffffff0228c30f000000000017a9146cdbb6dbd5fa0f8a0913c7ad9ef3982e90501eee87602a4f030000000017a914e370231feecbfc25e2e2423a5a79bf79bfdca5988700000000", "vin": [{"sequence": 4294967295, "scriptSig": {"hex": "00483045022100fa498df708c8c0b40cf41be7b25bdc0bcf51c5bccef0e836ebd38ca38381c3ee0220185c84dd157239c77c695d03ad0502480c3ff198f4f1696a243440a4a252662b01483045022100f936693343cf8961679524926bef3839cf6b8dbc9c92beddc461d182571725e20220406b52e3a6a581cfd58b724a5f835e85d4d4f1292adbc9f2ceabeee73d357471014752210327881b6abce6535553a3ce21fad12a7d74fd237ce7c4cd270a267162344e3082210256141f8eb687f5a68c5cc65054652dc25116fa285e44d72b44368827ffe77d9a52ae", "asm": "0 3045022100fa498df708c8c0b40cf41be7b25bdc0bcf51c5bccef0e836ebd38ca38381c3ee0220185c84dd157239c77c695d03ad0502480c3ff198f4f1696a243440a4a252662b[ALL] 3045022100f936693343cf8961679524926bef3839cf6b8dbc9c92beddc461d182571725e20220406b52e3a6a581cfd58b724a5f835e85d4d4f1292adbc9f2ceabeee73d357471[ALL] 52210327881b6abce6535553a3ce21fad12a7d74fd237ce7c4cd270a267162344e3082210256141f8eb687f5a68c5cc65054652dc25116fa285e44d72b44368827ffe77d9a52ae"}, "vout": 1, "txid": "2a04bac0ca05501ba952d79cfe9f5c44b209d00894befac66896436c1301fb82"}], "txid": "b5331756cf7bdd80a1942c154a13ae1d1610ca01c4ee012d86abe017a80afe87", "blocktime": 1537871767, "version": 1, "confirmations": 11495, "time": 1537871767, "locktime": 0, "vsize": 334, "size": 334}