{"hash": "38f753d94aaa323836fdcff27d3c69e5d86a4d22a338fdf20e18f9044bac962b", "blockhash": "0000000000000000000e13cef7c366c0283d82e591d1acd082e914b08063cdf1", "vout": [{"scriptPubKey": {"reqSigs": 1, "hex": "76a9149310b26a069b44c215a1550ce8f7defecd0da3af88ac", "addresses": ["1EQcLKgeEmTUNUAjwuRgPb74YtnSrHNeSP"], "asm": "OP_DUP OP_HASH160 9310b26a069b44c215a1550ce8f7defecd0da3af OP_EQUALVERIFY OP_CHECKSIG", "type": "pubkeyhash"}, "value": 0.0021, "n": 0}, {"scriptPubKey": {"reqSigs": 1, "hex": "a9141988a27e3c2df4ddee7fad5a2303d086179b2a3087", "addresses": ["3422VtS7UtCvXYxoXMVp6eZupR252z85oC"], "asm": "OP_HASH160 1988a27e3c2df4ddee7fad5a2303d086179b2a30 OP_EQUAL", "type": "scripthash"}, "value": 2.52721546, "n": 1}], "hex": "0100000000010164369dfa59f613761fc8c4c6120e54f769a4a79b5ac22ac9cff9abd520428ba6010000002322002065d416c48a8072e0ac51c2d111eb194f009caef0332446c1bf2097316cf07fa9ffffffff0250340300000000001976a9149310b26a069b44c215a1550ce8f7defecd0da3af88ac8a39100f0000000017a9141988a27e3c2df4ddee7fad5a2303d086179b2a30870400483045022100fe7a999b36c3c6c7b592926e641b935cfdcd7a353b656222e7499130e4262ab702205dcbd03b7ee58a37b08271fbd962652131c19ebd8cb0b86faadac5186eb1416b01483045022100b4e692845fba509dfedcf6991134039ff8526ee9cbba175c2cd292b29457a7ab022035e19eb81983f86179a2864002d8e32a7a62069790273d03592fbf24d58ed9300169522102f44abcf9e23c9a460da309ccca56c619c04eed3bde2c2cff5e7d78fbcd980b9c2103c9443cf3047bb6c2c82f1b0c44c36109cdc3d0d601d16d1189a1602bf8d1a0a02103bfe867059274412412e088af5572b92168c2ef495cfe6c9b7a753a009eb37c4853ae00000000", "vin": [{"txinwitness": ["", "3045022100fe7a999b36c3c6c7b592926e641b935cfdcd7a353b656222e7499130e4262ab702205dcbd03b7ee58a37b08271fbd962652131c19ebd8cb0b86faadac5186eb1416b01", "3045022100b4e692845fba509dfedcf6991134039ff8526ee9cbba175c2cd292b29457a7ab022035e19eb81983f86179a2864002d8e32a7a62069790273d03592fbf24d58ed93001", "522102f44abcf9e23c9a460da309ccca56c619c04eed3bde2c2cff5e7d78fbcd980b9c2103c9443cf3047bb6c2c82f1b0c44c36109cdc3d0d601d16d1189a1602bf8d1a0a02103bfe867059274412412e088af5572b92168c2ef495cfe6c9b7a753a009eb37c4853ae"], "sequence": 4294967295, "scriptSig": {"hex": "22002065d416c48a8072e0ac51c2d111eb194f009caef0332446c1bf2097316cf07fa9", "asm": "002065d416c48a8072e0ac51c2d111eb194f009caef0332446c1bf2097316cf07fa9"}, "vout": 1, "txid": "a68b4220d5abf9cfc92ac25a9ba7a469f7540e12c6c4c81f7613f659fa9d3664"}], "txid": "b5354541d2b5b999078cf6bd5f38f01ce64da9baf9d61af99929935309c80bb8", "blocktime": 1537871767, "version": 1, "confirmations": 11491, "time": 1537871767, "locktime": 0, "vsize": 216, "size": 408}