{"hash": "322cf68d15806e7a33ef8288be89cf550455a6ac6767c92eb9a9f42f369fccb5", "blockhash": "00000000000000000004ffacab907a6b429b9a5745fa0b75af4234bf69dd7176", "vout": [{"scriptPubKey": {"reqSigs": 1, "hex": "76a9141fc04cf20eae456935c0d3eb4e6fd248e536e84688ac", "addresses": ["13ttKE2A2Z358Tv9aaUR3s9dPGz3dXxJ1K"], "asm": "OP_DUP OP_HASH160 1fc04cf20eae456935c0d3eb4e6fd248e536e846 OP_EQUALVERIFY OP_CHECKSIG", "type": "pubkeyhash"}, "value": 0.0154, "n": 0}, {"scriptPubKey": {"reqSigs": 1, "hex": "a91447fbec537adb7788c60ad4c9cb3bc80cc68037f487", "addresses": ["38Fdh6EERuwfAonLJq9Yg9XmKEvpirJuYh"], "asm": "OP_HASH160 47fbec537adb7788c60ad4c9cb3bc80cc68037f4 OP_EQUAL", "type": "scripthash"}, "value": 0.00984583, "n": 1}], "hex": "02000000000103745cb697de252e9c366abb93aab1e6ba3df9f7f8a1944c0550ecf3e263b1cc2c010000001716001406282dd8879239b03264eecc0800a6fb33eb617dfeffffff7dc03c91e678e62e8006366796a67ceaf73ca38af00580e5193f8eb302f239bb00000000171600143d73bbff8ddf8bd156f10889f2add6086005d604fefffffffa8c367aeb7051695b046ef180cad433b728539631617113dc2b0a455250e4e80400000017160014b0fcbf444477bbf136a436c351958996554e6d55feffffff02a07f1700000000001976a9141fc04cf20eae456935c0d3eb4e6fd248e536e84688ac07060f000000000017a91447fbec537adb7788c60ad4c9cb3bc80cc68037f48702483045022100dce4c747d7d053bacb8bbadf95d6b8242ba1a2922101570900c4f2693fcbf14702206ad94b66d4081bc818f7e8f19ee3284fb3f5fd455b297d25a129f85608aeabf301210298f54e261dd91bd4651231b1482abb2226ccffadc2abad776fdf01cb779ac24902483045022100f3b7065adc1fa24c3e8d5d8c2a6b2fb5ab4a82777b6bcaef8a04bb77c8a19403022069ca6a880b6f3adf191b22566aebd03d42385748579ad3f20af8eab428f5e1d6012103f99119fac30a249c485cbd820691bea0cdf07f7035f38baea521ab830dfba0ba0247304402204ea64a6838f7545959be575c9229c8fd0345121ee04b860d7d95665d44baf3f9022074104c445e19d25e1bb7ba16a8ce231d6ed040415ff87c14d4b05c490fa6000b012103b3a2e98fd269ac4b570da036e236762abad168fb298f10a4ffd60d0e95e340ed16490800", "vin": [{"txinwitness": ["3045022100dce4c747d7d053bacb8bbadf95d6b8242ba1a2922101570900c4f2693fcbf14702206ad94b66d4081bc818f7e8f19ee3284fb3f5fd455b297d25a129f85608aeabf301", "0298f54e261dd91bd4651231b1482abb2226ccffadc2abad776fdf01cb779ac249"], "sequence": 4294967294, "scriptSig": {"hex": "16001406282dd8879239b03264eecc0800a6fb33eb617d", "asm": "001406282dd8879239b03264eecc0800a6fb33eb617d"}, "vout": 1, "txid": "2cccb163e2f3ec50054c94a1f8f7f93dbae6b1aa93bb6a369c2e25de97b65c74"}, {"txinwitness": ["3045022100f3b7065adc1fa24c3e8d5d8c2a6b2fb5ab4a82777b6bcaef8a04bb77c8a19403022069ca6a880b6f3adf191b22566aebd03d42385748579ad3f20af8eab428f5e1d601", "03f99119fac30a249c485cbd820691bea0cdf07f7035f38baea521ab830dfba0ba"], "sequence": 4294967294, "scriptSig": {"hex": "1600143d73bbff8ddf8bd156f10889f2add6086005d604", "asm": "00143d73bbff8ddf8bd156f10889f2add6086005d604"}, "vout": 0, "txid": "bb39f202b38e3f19e58005f08aa33cf7ea7ca696673606802ee678e6913cc07d"}, {"txinwitness": ["304402204ea64a6838f7545959be575c9229c8fd0345121ee04b860d7d95665d44baf3f9022074104c445e19d25e1bb7ba16a8ce231d6ed040415ff87c14d4b05c490fa6000b01", "03b3a2e98fd269ac4b570da036e236762abad168fb298f10a4ffd60d0e95e340ed"], "sequence": 4294967294, "scriptSig": {"hex": "160014b0fcbf444477bbf136a436c351958996554e6d55", "asm": "0014b0fcbf444477bbf136a436c351958996554e6d55"}, "vout": 4, "txid": "e8e45052450a2bdc13716131965328b733d4ca80f16e045b695170eb7a368cfa"}], "txid": "b5384e402eb0fafeecff1384983481b7c5370c3926af343170ed4d25339628b2", "blocktime": 1537875543, "version": 2, "confirmations": 11464, "time": 1537875543, "locktime": 542998, "vsize": 350, "size": 593}