{"hash": "b5400869d19a210269a741abf3d72681195ad3ad3621002608dd9dba5189d464", "blockhash": "0000000000000000001cda96e906b7601b7a6fb1a3b62bca570a9e5d8f4b3de1", "vout": [{"scriptPubKey": {"reqSigs": 1, "hex": "76a914d0fc50e87ce2e37d46b224d06901bc4bb40a912b88ac", "addresses": ["1L41p8NPsSYQp6M3SiBcsvKzfmQyTyEM4D"], "asm": "OP_DUP OP_HASH160 d0fc50e87ce2e37d46b224d06901bc4bb40a912b OP_EQUALVERIFY OP_CHECKSIG", "type": "pubkeyhash"}, "value": 0.007808, "n": 0}, {"scriptPubKey": {"reqSigs": 1, "hex": "76a91487f7e3e0c156c8167efb3e1d3a82f3e38b7e0e8488ac", "addresses": ["1DPwBcBTqPZdEN6pUHcxjHJQyNePdDJthr"], "asm": "OP_DUP OP_HASH160 87f7e3e0c156c8167efb3e1d3a82f3e38b7e0e84 OP_EQUALVERIFY OP_CHECKSIG", "type": "pubkeyhash"}, "value": 0.02690968, "n": 1}], "hex": "0100000001cea48611b88d1d704323d928fb4143d3134e95c55c59ef3affa0f309e641d87a010000006b483045022100a5d656624f1e61e8f8bc050c18540d92502eef5c7693eaf8ef347b100404143602205ee4ce40e0b4c4e9e3a56e13cab28101e22e679f92f9e3684e1f77a0f7ca4ee9012103ba9464023fb7bef792739aba7e3c6f5e190668161777780381065ea07138cad5ffffffff0200ea0b00000000001976a914d0fc50e87ce2e37d46b224d06901bc4bb40a912b88ac980f2900000000001976a91487f7e3e0c156c8167efb3e1d3a82f3e38b7e0e8488ac00000000", "vin": [{"sequence": 4294967295, "scriptSig": {"hex": "483045022100a5d656624f1e61e8f8bc050c18540d92502eef5c7693eaf8ef347b100404143602205ee4ce40e0b4c4e9e3a56e13cab28101e22e679f92f9e3684e1f77a0f7ca4ee9012103ba9464023fb7bef792739aba7e3c6f5e190668161777780381065ea07138cad5", "asm": "3045022100a5d656624f1e61e8f8bc050c18540d92502eef5c7693eaf8ef347b100404143602205ee4ce40e0b4c4e9e3a56e13cab28101e22e679f92f9e3684e1f77a0f7ca4ee9[ALL] 03ba9464023fb7bef792739aba7e3c6f5e190668161777780381065ea07138cad5"}, "vout": 1, "txid": "7ad841e609f3a0ff3aef595cc5954e13d34341fb28d92343701d8db81186a4ce"}], "txid": "b5400869d19a210269a741abf3d72681195ad3ad3621002608dd9dba5189d464", "blocktime": 1537873282, "version": 1, "confirmations": 11485, "time": 1537873282, "locktime": 0, "vsize": 226, "size": 226}