{"hash": "8d33b1884927e716dab839d0c51a92780b1cf31366971ac07f64391263954f95", "blockhash": "0000000000000000001e0dab787dd257d1dbfcb92a98c2207d5e1078be1f4165", "vout": [{"scriptPubKey": {"reqSigs": 1, "hex": "76a9143bb45d373207855b689b404367f0fd0e08dcd24788ac", "addresses": ["16SgwEkF4uFmnBuKUUcW26J5sBWkx4hiSq"], "asm": "OP_DUP OP_HASH160 3bb45d373207855b689b404367f0fd0e08dcd247 OP_EQUALVERIFY OP_CHECKSIG", "type": "pubkeyhash"}, "value": 0.2, "n": 0}, {"scriptPubKey": {"reqSigs": 1, "hex": "a914d783a532a1ab697b51cd072ed600ea77c4bb4a9b87", "addresses": ["3MLYufRo2XmhJR7ZknbWj2AQrdzQc8pVjp"], "asm": "OP_HASH160 d783a532a1ab697b51cd072ed600ea77c4bb4a9b OP_EQUAL", "type": "scripthash"}, "value": 0.02892079, "n": 1}], "hex": "0100000000010a24b90207fc5a02213e85cf1f192f4dcb57afae53f44c64738d820677baed2d300300000017160014a183629f1774dab51d55d92c2eb0433741e11924ffffffff24b90207fc5a02213e85cf1f192f4dcb57afae53f44c64738d820677baed2d300800000017160014f8b28aa47e1feee0b622e0ebc0d4deffeadc2e84ffffffff24b90207fc5a02213e85cf1f192f4dcb57afae53f44c64738d820677baed2d300b00000017160014994d456c52f16d0ecae04e79f5b90ad886e9f561ffffffffc13c83bcc3caff127d10030d95e98053a99ff81984d208715be68eca5949a15d000000001716001412685fdddaf0371cee2f2febd4f225fb63ac4c8bffffffffc13c83bcc3caff127d10030d95e98053a99ff81984d208715be68eca5949a15d3e000000171600145b9be50984267478e7c87d1979b078bbd9715740ffffffffa085c72df82fa1e48e8f9ab324a7fe888d68da12c1422fec28deff87e7843f580100000017160014ebfd06342e3280389df5d4a5cc7e75726e935da7ffffffff19947e15aecdb2bdd354df4d89eb0388de6cb6f3d703b613784281028fe5e3320200000017160014000b814f2c1a19852357ed615a08ec572a781ed1fffffffffb6596ac5c21be367ef75ad1601db6ff629944171323290605369295837d43730200000017160014000b814f2c1a19852357ed615a08ec572a781ed1ffffffffb26e04960849a875c2b7a392653dd1148befd077f68d0aca27476c60dde3c2f00300000017160014567b90d24aa5d07241f8d18212116d17bfce299cffffffff0a288d9a96ee8c14264e8554b941022fc68903f07ea6b1ea1280fbe1daeda2030100000017160014315d3c18605e585522f3caac3ed83d747e3e8123ffffffff02002d3101000000001976a9143bb45d373207855b689b404367f0fd0e08dcd24788ac2f212c000000000017a914d783a532a1ab697b51cd072ed600ea77c4bb4a9b8702483045022100d5c7950d87a5ebc76278425bc8dda3c6aa33caa8ea951936c12281dcffc62e610220032fad020ac00075ac3a18d89f68d10d944aac34329097c8f515e8531580c074012103de5a976d848e80c84b40826f98586585138dd9f362108eecacca41943673151d0247304402205d3faac6e25346aa32cd70a4d95ada78c21c21d7c0fe319fe11777d2d0141da802201ffbef32353d47a2ae4b87453a6612944592836fb31a07b829c00c98c49ca5ec012103d93f40bb230bbc086d57af47444c54a763d48ce2580c70deaf00cabc400839d00247304402200be2429217bf024b1e7d7413c32f039b5d96733cc291ca43bed2421f478b1eb2022009e6bc2e1e4e5ececcfaf9474b3c19c087c8ecb2261016254de55b39ddadc8b201210366fb1e075e26c18030ebef843d46e5e528cad06590395531cf615bdf6596251d02483045022100c2173296e5cbbe08bfe8d8711efcfd4a32061e7f54832abbeaecd9003eabe2480220684026a9d8095e93a19134c6bcfe3b17e3df159d4dbe553309ae4fe8df9b01380121036a668f386c81f8c1403af703604215882b01ee76708232df354c00cdf432ed690247304402206393da91ed3d9b83f9144f6a4c4ae2e1e330dc8947b47c389b456fcbe10e847d022047f9f5ad21f98ac4ed0f667ac9b24fbb328d57b5755a945ecb55448b059611c30121036cdeba563c69dc383edf400144b6de8307d86756e43ebec69bca88794b7e07d10247304402202a8bc68f1f91a6d88335cd8e3578f24d0378159b9010182e9c4400ee068b43cb02204a62da60f1d07e7e9b032ce167826bc75f55d4fbec15cf55e7f01dd34a11b1dd012103812235511343376167d5c2489cf3824e67f598c3785bbc15f254fe73d138b0490247304402205ec4bf8b779eaa9981505bddfaae21630a30e36310a1bc20f15f98025707c09a022001fa5a0c782b137cc45b75be4059f3502dab5733e5949c08327435f55e8e51d3012102aad79950b2c2af3689e8644c89e9d10dff06c2d8926200496b92e9f7ccb0304c0247304402201e7f516f7632a6b75e39091825790efca3b332272ea114ad519b3e70a01f9c38022019238ac6bfa6ebf071a30f97d8c1f0916e0b9680eed99e0528f7150140d326a5012102aad79950b2c2af3689e8644c89e9d10dff06c2d8926200496b92e9f7ccb0304c02473044022008ef440806017a886b3eb3e4915755a90c8096fe68bcfbb636dcf4f76311715402201eafc74b0b8b427a37502e3ce98bb170b76fea2433632873258417a9768cb65b012103a2c6293ae08e06d759b2a6371d040a479c4d45c3dd06b6ab4de67b08c58d9ca10247304402201d57645a99f44986b7cf348f77787f68f688adb893aad39be0135b81a8223c1d02200b1e1ad124d7c5449ba3627804dcabafc5da149332c8f4268581a22bfd4cc48e0121038074db6a05d1d0ca77d52702ab4b053001fc2b5f96d54e6e19c00987a4939f3400000000", "vin": [{"txinwitness": ["3045022100d5c7950d87a5ebc76278425bc8dda3c6aa33caa8ea951936c12281dcffc62e610220032fad020ac00075ac3a18d89f68d10d944aac34329097c8f515e8531580c07401", "03de5a976d848e80c84b40826f98586585138dd9f362108eecacca41943673151d"], "sequence": 4294967295, "scriptSig": {"hex": "160014a183629f1774dab51d55d92c2eb0433741e11924", "asm": "0014a183629f1774dab51d55d92c2eb0433741e11924"}, "vout": 3, "txid": "302dedba7706828d73644cf453aeaf57cb4d2f191fcf853e21025afc0702b924"}, {"txinwitness": ["304402205d3faac6e25346aa32cd70a4d95ada78c21c21d7c0fe319fe11777d2d0141da802201ffbef32353d47a2ae4b87453a6612944592836fb31a07b829c00c98c49ca5ec01", "03d93f40bb230bbc086d57af47444c54a763d48ce2580c70deaf00cabc400839d0"], "sequence": 4294967295, "scriptSig": {"hex": "160014f8b28aa47e1feee0b622e0ebc0d4deffeadc2e84", "asm": "0014f8b28aa47e1feee0b622e0ebc0d4deffeadc2e84"}, "vout": 8, "txid": "302dedba7706828d73644cf453aeaf57cb4d2f191fcf853e21025afc0702b924"}, {"txinwitness": ["304402200be2429217bf024b1e7d7413c32f039b5d96733cc291ca43bed2421f478b1eb2022009e6bc2e1e4e5ececcfaf9474b3c19c087c8ecb2261016254de55b39ddadc8b201", "0366fb1e075e26c18030ebef843d46e5e528cad06590395531cf615bdf6596251d"], "sequence": 4294967295, "scriptSig": {"hex": "160014994d456c52f16d0ecae04e79f5b90ad886e9f561", "asm": "0014994d456c52f16d0ecae04e79f5b90ad886e9f561"}, "vout": 11, "txid": "302dedba7706828d73644cf453aeaf57cb4d2f191fcf853e21025afc0702b924"}, {"txinwitness": ["3045022100c2173296e5cbbe08bfe8d8711efcfd4a32061e7f54832abbeaecd9003eabe2480220684026a9d8095e93a19134c6bcfe3b17e3df159d4dbe553309ae4fe8df9b013801", "036a668f386c81f8c1403af703604215882b01ee76708232df354c00cdf432ed69"], "sequence": 4294967295, "scriptSig": {"hex": "16001412685fdddaf0371cee2f2febd4f225fb63ac4c8b", "asm": "001412685fdddaf0371cee2f2febd4f225fb63ac4c8b"}, "vout": 0, "txid": "5da14959ca8ee65b7108d28419f89fa95380e9950d03107d12ffcac3bc833cc1"}, {"txinwitness": ["304402206393da91ed3d9b83f9144f6a4c4ae2e1e330dc8947b47c389b456fcbe10e847d022047f9f5ad21f98ac4ed0f667ac9b24fbb328d57b5755a945ecb55448b059611c301", "036cdeba563c69dc383edf400144b6de8307d86756e43ebec69bca88794b7e07d1"], "sequence": 4294967295, "scriptSig": {"hex": "1600145b9be50984267478e7c87d1979b078bbd9715740", "asm": "00145b9be50984267478e7c87d1979b078bbd9715740"}, "vout": 62, "txid": "5da14959ca8ee65b7108d28419f89fa95380e9950d03107d12ffcac3bc833cc1"}, {"txinwitness": ["304402202a8bc68f1f91a6d88335cd8e3578f24d0378159b9010182e9c4400ee068b43cb02204a62da60f1d07e7e9b032ce167826bc75f55d4fbec15cf55e7f01dd34a11b1dd01", "03812235511343376167d5c2489cf3824e67f598c3785bbc15f254fe73d138b049"], "sequence": 4294967295, "scriptSig": {"hex": "160014ebfd06342e3280389df5d4a5cc7e75726e935da7", "asm": "0014ebfd06342e3280389df5d4a5cc7e75726e935da7"}, "vout": 1, "txid": "583f84e787ffde28ec2f42c112da688d88fea724b39a8f8ee4a12ff82dc785a0"}, {"txinwitness": ["304402205ec4bf8b779eaa9981505bddfaae21630a30e36310a1bc20f15f98025707c09a022001fa5a0c782b137cc45b75be4059f3502dab5733e5949c08327435f55e8e51d301", "02aad79950b2c2af3689e8644c89e9d10dff06c2d8926200496b92e9f7ccb0304c"], "sequence": 4294967295, "scriptSig": {"hex": "160014000b814f2c1a19852357ed615a08ec572a781ed1", "asm": "0014000b814f2c1a19852357ed615a08ec572a781ed1"}, "vout": 2, "txid": "32e3e58f0281427813b603d7f3b66cde8803eb894ddf54d3bdb2cdae157e9419"}, {"txinwitness": ["304402201e7f516f7632a6b75e39091825790efca3b332272ea114ad519b3e70a01f9c38022019238ac6bfa6ebf071a30f97d8c1f0916e0b9680eed99e0528f7150140d326a501", "02aad79950b2c2af3689e8644c89e9d10dff06c2d8926200496b92e9f7ccb0304c"], "sequence": 4294967295, "scriptSig": {"hex": "160014000b814f2c1a19852357ed615a08ec572a781ed1", "asm": "0014000b814f2c1a19852357ed615a08ec572a781ed1"}, "vout": 2, "txid": "73437d83959236050629231317449962ffb61d60d15af77e36be215cac9665fb"}, {"txinwitness": ["3044022008ef440806017a886b3eb3e4915755a90c8096fe68bcfbb636dcf4f76311715402201eafc74b0b8b427a37502e3ce98bb170b76fea2433632873258417a9768cb65b01", "03a2c6293ae08e06d759b2a6371d040a479c4d45c3dd06b6ab4de67b08c58d9ca1"], "sequence": 4294967295, "scriptSig": {"hex": "160014567b90d24aa5d07241f8d18212116d17bfce299c", "asm": "0014567b90d24aa5d07241f8d18212116d17bfce299c"}, "vout": 3, "txid": "f0c2e3dd606c4727ca0a8df677d0ef8b14d13d6592a3b7c275a8490896046eb2"}, {"txinwitness": ["304402201d57645a99f44986b7cf348f77787f68f688adb893aad39be0135b81a8223c1d02200b1e1ad124d7c5449ba3627804dcabafc5da149332c8f4268581a22bfd4cc48e01", "038074db6a05d1d0ca77d52702ab4b053001fc2b5f96d54e6e19c00987a4939f34"], "sequence": 4294967295, "scriptSig": {"hex": "160014315d3c18605e585522f3caac3ed83d747e3e8123", "asm": "0014315d3c18605e585522f3caac3ed83d747e3e8123"}, "vout": 1, "txid": "03a2eddae1fb8012eab1a67ef00389c62f0241b954854e26148cee969a8d280a"}], "txid": "b54330efeb008d2f72de679ef7c3db1d952e28cb5e3498e3ce3f5c60ef0673d5", "blocktime": 1537872475, "version": 1, "confirmations": 11486, "time": 1537872475, "locktime": 0, "vsize": 985, "size": 1790}