{"hash": "b5460cbbd464d6ba6cbc4ed2148a24427851905031c25b6367ef40eb548e7cba", "blockhash": "0000000000000000001f76057863aec43deb6fa401d9628bb513d65a8098bfab", "vout": [{"scriptPubKey": {"reqSigs": 1, "hex": "a91411d0390d02c570c67ef4e16c3eb41bfb96efaf2787", "addresses": ["33KCrP8qA5MLcGGb5UXLbnw29Xc2rU4Xtv"], "asm": "OP_HASH160 11d0390d02c570c67ef4e16c3eb41bfb96efaf27 OP_EQUAL", "type": "scripthash"}, "value": 0.00680924, "n": 0}, {"scriptPubKey": {"reqSigs": 1, "hex": "a914099a86392fbb4c2986b179370509e16f00a861e787", "addresses": ["32Zo7onjxF9RtJmYxdMVtqK5s1S8qCCgdF"], "asm": "OP_HASH160 099a86392fbb4c2986b179370509e16f00a861e7 OP_EQUAL", "type": "scripthash"}, "value": 0.03315609, "n": 1}, {"scriptPubKey": {"reqSigs": 1, "hex": "a9143839484fc562c145357f8c171b24c99ec8c3b2f587", "addresses": ["36pJPLnFVTLdE5RvnambbYfg3HRMdr2A9Q"], "asm": "OP_HASH160 3839484fc562c145357f8c171b24c99ec8c3b2f5 OP_EQUAL", "type": "scripthash"}, "value": 0.03, "n": 2}, {"scriptPubKey": {"reqSigs": 1, "hex": "76a91408fa51d2436b4f71962a6c42b240191d27a005e088ac", "addresses": ["1pUH3h1u3qikWgsrWGxbrSuArfXYvGbvS"], "asm": "OP_DUP OP_HASH160 08fa51d2436b4f71962a6c42b240191d27a005e0 OP_EQUALVERIFY OP_CHECKSIG", "type": "pubkeyhash"}, "value": 5.69924824, "n": 3}], "hex": "0100000014f4558d5dfcab6b98a4a1214529114335a71ef989afae39d166a831078f425e9b030000006b483045022100853759f75baf8d048146b4c2ad95123c61a5f563a1663da538d2fd1511066dab02207df7dc9b504f97545a048aa4e85fd38d949e0cec0f7b289a5be65b790f727e440121022d3cc263ee7b349a08e67b1414d3bc01443e5fe258ecd42bdabe9adc43d95483ffffffff3163848cdff51598485a0594436dea5ad1e8cc67c9dc1c9ff5c58949475eb5cd340000006a47304402206836a35baf43bfc6277fded4c428a2d14883a6386d815ff70d62f0ca5e1969e002206ebfefada05cb3cc49e942f424e2683082d8f4d583df3113da6b20f8f45e8923012102e071493a6512a4ae19007da022b88f3375069a6d108d65c7b5ebac8f376c3332ffffffff265cdd7c1c24c2ce6299d55b287f543e923817e80c53bf122f43382273309a5a2b0000006a47304402203b92ee935eba0b35512c8a5e6f45d53e8b6fd40c8aad3e61af07d4299c1b288d02203507cec5950bd83641ef3dac97d7950f374bff93babd73367e635035c6a8101e01210214a3030be9f9bd4dffa5d8f8fc22c18436c9d911b8cd74a605de808fe9086143ffffffff265cdd7c1c24c2ce6299d55b287f543e923817e80c53bf122f43382273309a5a550000006a473044022023f264a17468588c9567e9c219b8c0f4a26f459360f64ffefd4a2b789c0aa398022019a101cd65a7dc6e9cc8d55e7554614d60c377d267b9c9c66c2c9c862253244e012103cb7e0dad866c90e642dd270d806527e6a5c9409ebeff99b432b759dcb454e106ffffffff265cdd7c1c24c2ce6299d55b287f543e923817e80c53bf122f43382273309a5a150000006b483045022100a2cc371e7d4b5ca4c70318434b3be71ba4edfe8b8f09950f5a7952c71af1e99b0220010319df1c0df6fb0a69f2318bbd6de894a498f693a44341e07c96deae2ac720012103407289619c0065a5e02f5ec32b823f45a157b30799d9b723054d39b83d33d75effffffff2f56a5f8e2dc93d6be06931c29baecd0c5a5ea885bd4699158c728085ca9bd46640000006a473044022008691c606cca1ceb96a0650c2519e90d09287235cfa628db3723c1dcced67e0802203f80aed0aa30c13221ebe2e6e5676f998878b7bed57afc9e6dc9b54c1bc53dc60121022e9d2cd49b40691a70cf70e9ed78c1c72e2a398350b5c57cbbe350fef68119d1ffffffff2f56a5f8e2dc93d6be06931c29baecd0c5a5ea885bd4699158c728085ca9bd46520000006a47304402200df309ff994fa9246958f3f2d9d4803899c4e403abc8968839862d09b0f5c906022042423250e486c314c57b4b3df13151f20c06aa605edeb0d72157c067f293b8b6012102f20c02d3fd0841f26f09d987f617ef24030164498a5c1b3fcbd029a9601c23b6ffffffff2f56a5f8e2dc93d6be06931c29baecd0c5a5ea885bd4699158c728085ca9bd46500000006a473044022054c479483a6fc8d62b7ff34e80e5fc543d94aca727c712157a6a9b5e90e218710220786aec1f10baf8d5e7b1f1d4cb2849771d6c110344cbe3b572848e878be693dd012103b553444ff38c9b82aa56c265c8fe94659b06bc5e272b632b72fc5c2e24d3df77ffffffff2f56a5f8e2dc93d6be06931c29baecd0c5a5ea885bd4699158c728085ca9bd46220000006b483045022100d37a724176d116307ab3f31d49a10a5202f68333d257772b6098dcb060ea754302202ee95cd79336cea360f566636fd655d0e7abf85f7b840de0b381c2fffef1e5fd01210227531547cc0cadd775ad695776d197efdc75615f7540aa9f840c06e6e0161956ffffffff2f56a5f8e2dc93d6be06931c29baecd0c5a5ea885bd4699158c728085ca9bd46330000006a473044022007c4700c02284c893920fb95e2b42c8186a99ab6b2153d856f74637e21cfde12022014c146945c96f10445a454246726ce10b9d9a1837eca4e63da828dbf78f8daa5012103ed1ff29689d4f3190aab6340c0798677f4cf1f0843639ea36c3271da6e7b7a51ffffffff2f56a5f8e2dc93d6be06931c29baecd0c5a5ea885bd4699158c728085ca9bd464e0000006a47304402205a6de9a2f54823c7ff71ca2631b4a08fc0c4f2c098a5899f24bb06ce2cdaa52d02206e5dbb76779ae112f787acd64342d96ed4e13a1dc8597c36e862c07e7d53fb9a012102dc44e34ad62c459897bf4dae1d453385d0e2faaf892e6ee7a45bc8f4e73d4b83ffffffff2f56a5f8e2dc93d6be06931c29baecd0c5a5ea885bd4699158c728085ca9bd46270000006b483045022100e4662397cf550a6635ea22b38300f69c83b03b05f898de8c9cc942c434e4b4200220289f893215769cb76150ad24981f86d60c66770fbfb43a3c87553069f8e41d5001210340d5b8bf3f4616c8dd5928ab4de968d8778c75ebb8b2677a541046ce5a5077bfffffffff2f56a5f8e2dc93d6be06931c29baecd0c5a5ea885bd4699158c728085ca9bd46100000006b483045022100a42a3b609c00747935d34ff695bc0e5ad60c78babfb3af6bfe39b7d4ca2cd55002201a16b03f03d6b930f629acfd272ed8eee78962c42560f2368ceccf769bd4ba5e012103e99dbc77f7814358eb9371706c62e7121a33f9cee0f2826dae0506ffd53f397fffffffff0ec924edfe60b9ca9c197302e2f793d0b9a9336873c29b63fc4a77edf3246a43190000006a47304402204b0e297c277606bb4f9c60d01a11e61a8c7b7b2e97ed44ba880be09c6abd9eb102201357365da91962c0d486a4330e187f1d34aa9147d8f82fabaed41d117e8648bb012102520ad81b5f4ba00f6a0d8cb9d3ecec8377e0590140a1f7b0ef10acfdf9d59ca0ffffffff0ec924edfe60b9ca9c197302e2f793d0b9a9336873c29b63fc4a77edf3246a433a0000006a473044022028bd11dff13e93ef2aad1b85f7f1957ef73038a1ba7b353a1723779482ec1fe002205ba424ae449ccc6510ecb23c58cdc88e7700438e33636f796f6ff52627d4ab9b01210333d5ffe3514e5101b485006015871a1cc823da82c16fd3fe89cf8bd5adb165d5ffffffff0ec924edfe60b9ca9c197302e2f793d0b9a9336873c29b63fc4a77edf3246a43220000006b483045022100bd782ae1110f620ff4389ba02f1ff2e643e86b6c7188c5a57f8204a3bae206eb022029dc79dd2e543bfb40ddd06d8c4539bebf74bb13d3c684620561050a59c20b2a012103d7fa1c9d754372133cd0b8e82593837a25d084c74e9c6b95eb1fc00e506f25e5ffffffff0ec924edfe60b9ca9c197302e2f793d0b9a9336873c29b63fc4a77edf3246a43020000006b483045022100c3320d771f7de914c147e9c19e958e6626cba62c790265ae743aa62d04895b3e02202ef773a952af640dd4bdd353eb531326b4769d21338f3d2b68a275f8da1367c6012102ce1598d4a02bd57c44f0ac9ef413dffab961eaf311406b151757dccea5871ff5ffffffff0ec924edfe60b9ca9c197302e2f793d0b9a9336873c29b63fc4a77edf3246a43010000006a473044022038739f1f16e4e8d320a4f3cc009d7b433c6bd45ce5d4abc622a90a75f567be880220184225c7e0add477ef24ed5291618e0b1234693c7ebff851abb06bf22978a2270121030a80f209616dac48b3eb323c05b680b7e83d3974f0259de116368660e7f0b360ffffffff0ec924edfe60b9ca9c197302e2f793d0b9a9336873c29b63fc4a77edf3246a43520000006b483045022100bb2a8d05d5d6f1f6f53258caa4cf27e548e34ac2132005e7a056c018e16d21c202206aac03d79a31f20576ffcf8867b560eff643f2b236ea1c7c186c83793fc0ef9f01210219f6673b2e8382b10ab423020d3517a801e64a1bff07fe515779ed324d1f217fffffffff0df57283c6570cf1d1842598dbce594cf4ce614deea7aa33bbead76557328b765e0000006b483045022100e075578fba51a4bf8571cdad50695bad6e3d191dd6a962088cd5f6b01c0592ed0220128fd458bad616940d3fbc6cf718ffa4522528e5f8c58297c979960f24bc06d9012102f0c9d8cdc9399d2a31d3a02774070fe99ea15026210605632147d96f4fe804acffffffff04dc630a000000000017a91411d0390d02c570c67ef4e16c3eb41bfb96efaf2787999732000000000017a914099a86392fbb4c2986b179370509e16f00a861e787c0c62d000000000017a9143839484fc562c145357f8c171b24c99ec8c3b2f587d85cf821000000001976a91408fa51d2436b4f71962a6c42b240191d27a005e088ac00000000", "vin": [{"sequence": 4294967295, "scriptSig": {"hex": "483045022100853759f75baf8d048146b4c2ad95123c61a5f563a1663da538d2fd1511066dab02207df7dc9b504f97545a048aa4e85fd38d949e0cec0f7b289a5be65b790f727e440121022d3cc263ee7b349a08e67b1414d3bc01443e5fe258ecd42bdabe9adc43d95483", "asm": "3045022100853759f75baf8d048146b4c2ad95123c61a5f563a1663da538d2fd1511066dab02207df7dc9b504f97545a048aa4e85fd38d949e0cec0f7b289a5be65b790f727e44[ALL] 022d3cc263ee7b349a08e67b1414d3bc01443e5fe258ecd42bdabe9adc43d95483"}, "vout": 3, "txid": "9b5e428f0731a866d139aeaf89f91ea7354311294521a1a4986babfc5d8d55f4"}, {"sequence": 4294967295, "scriptSig": {"hex": "47304402206836a35baf43bfc6277fded4c428a2d14883a6386d815ff70d62f0ca5e1969e002206ebfefada05cb3cc49e942f424e2683082d8f4d583df3113da6b20f8f45e8923012102e071493a6512a4ae19007da022b88f3375069a6d108d65c7b5ebac8f376c3332", "asm": "304402206836a35baf43bfc6277fded4c428a2d14883a6386d815ff70d62f0ca5e1969e002206ebfefada05cb3cc49e942f424e2683082d8f4d583df3113da6b20f8f45e8923[ALL] 02e071493a6512a4ae19007da022b88f3375069a6d108d65c7b5ebac8f376c3332"}, "vout": 52, "txid": "cdb55e474989c5f59f1cdcc967cce8d15aea6d4394055a489815f5df8c846331"}, {"sequence": 4294967295, "scriptSig": {"hex": "47304402203b92ee935eba0b35512c8a5e6f45d53e8b6fd40c8aad3e61af07d4299c1b288d02203507cec5950bd83641ef3dac97d7950f374bff93babd73367e635035c6a8101e01210214a3030be9f9bd4dffa5d8f8fc22c18436c9d911b8cd74a605de808fe9086143", "asm": "304402203b92ee935eba0b35512c8a5e6f45d53e8b6fd40c8aad3e61af07d4299c1b288d02203507cec5950bd83641ef3dac97d7950f374bff93babd73367e635035c6a8101e[ALL] 0214a3030be9f9bd4dffa5d8f8fc22c18436c9d911b8cd74a605de808fe9086143"}, "vout": 43, "txid": "5a9a30732238432f12bf530ce81738923e547f285bd59962cec2241c7cdd5c26"}, {"sequence": 4294967295, "scriptSig": {"hex": "473044022023f264a17468588c9567e9c219b8c0f4a26f459360f64ffefd4a2b789c0aa398022019a101cd65a7dc6e9cc8d55e7554614d60c377d267b9c9c66c2c9c862253244e012103cb7e0dad866c90e642dd270d806527e6a5c9409ebeff99b432b759dcb454e106", "asm": "3044022023f264a17468588c9567e9c219b8c0f4a26f459360f64ffefd4a2b789c0aa398022019a101cd65a7dc6e9cc8d55e7554614d60c377d267b9c9c66c2c9c862253244e[ALL] 03cb7e0dad866c90e642dd270d806527e6a5c9409ebeff99b432b759dcb454e106"}, "vout": 85, "txid": "5a9a30732238432f12bf530ce81738923e547f285bd59962cec2241c7cdd5c26"}, {"sequence": 4294967295, "scriptSig": {"hex": "483045022100a2cc371e7d4b5ca4c70318434b3be71ba4edfe8b8f09950f5a7952c71af1e99b0220010319df1c0df6fb0a69f2318bbd6de894a498f693a44341e07c96deae2ac720012103407289619c0065a5e02f5ec32b823f45a157b30799d9b723054d39b83d33d75e", "asm": "3045022100a2cc371e7d4b5ca4c70318434b3be71ba4edfe8b8f09950f5a7952c71af1e99b0220010319df1c0df6fb0a69f2318bbd6de894a498f693a44341e07c96deae2ac720[ALL] 03407289619c0065a5e02f5ec32b823f45a157b30799d9b723054d39b83d33d75e"}, "vout": 21, "txid": "5a9a30732238432f12bf530ce81738923e547f285bd59962cec2241c7cdd5c26"}, {"sequence": 4294967295, "scriptSig": {"hex": "473044022008691c606cca1ceb96a0650c2519e90d09287235cfa628db3723c1dcced67e0802203f80aed0aa30c13221ebe2e6e5676f998878b7bed57afc9e6dc9b54c1bc53dc60121022e9d2cd49b40691a70cf70e9ed78c1c72e2a398350b5c57cbbe350fef68119d1", "asm": "3044022008691c606cca1ceb96a0650c2519e90d09287235cfa628db3723c1dcced67e0802203f80aed0aa30c13221ebe2e6e5676f998878b7bed57afc9e6dc9b54c1bc53dc6[ALL] 022e9d2cd49b40691a70cf70e9ed78c1c72e2a398350b5c57cbbe350fef68119d1"}, "vout": 100, "txid": "46bda95c0828c7589169d45b88eaa5c5d0ecba291c9306bed693dce2f8a5562f"}, {"sequence": 4294967295, "scriptSig": {"hex": "47304402200df309ff994fa9246958f3f2d9d4803899c4e403abc8968839862d09b0f5c906022042423250e486c314c57b4b3df13151f20c06aa605edeb0d72157c067f293b8b6012102f20c02d3fd0841f26f09d987f617ef24030164498a5c1b3fcbd029a9601c23b6", "asm": "304402200df309ff994fa9246958f3f2d9d4803899c4e403abc8968839862d09b0f5c906022042423250e486c314c57b4b3df13151f20c06aa605edeb0d72157c067f293b8b6[ALL] 02f20c02d3fd0841f26f09d987f617ef24030164498a5c1b3fcbd029a9601c23b6"}, "vout": 82, "txid": "46bda95c0828c7589169d45b88eaa5c5d0ecba291c9306bed693dce2f8a5562f"}, {"sequence": 4294967295, "scriptSig": {"hex": "473044022054c479483a6fc8d62b7ff34e80e5fc543d94aca727c712157a6a9b5e90e218710220786aec1f10baf8d5e7b1f1d4cb2849771d6c110344cbe3b572848e878be693dd012103b553444ff38c9b82aa56c265c8fe94659b06bc5e272b632b72fc5c2e24d3df77", "asm": "3044022054c479483a6fc8d62b7ff34e80e5fc543d94aca727c712157a6a9b5e90e218710220786aec1f10baf8d5e7b1f1d4cb2849771d6c110344cbe3b572848e878be693dd[ALL] 03b553444ff38c9b82aa56c265c8fe94659b06bc5e272b632b72fc5c2e24d3df77"}, "vout": 80, "txid": "46bda95c0828c7589169d45b88eaa5c5d0ecba291c9306bed693dce2f8a5562f"}, {"sequence": 4294967295, "scriptSig": {"hex": "483045022100d37a724176d116307ab3f31d49a10a5202f68333d257772b6098dcb060ea754302202ee95cd79336cea360f566636fd655d0e7abf85f7b840de0b381c2fffef1e5fd01210227531547cc0cadd775ad695776d197efdc75615f7540aa9f840c06e6e0161956", "asm": "3045022100d37a724176d116307ab3f31d49a10a5202f68333d257772b6098dcb060ea754302202ee95cd79336cea360f566636fd655d0e7abf85f7b840de0b381c2fffef1e5fd[ALL] 0227531547cc0cadd775ad695776d197efdc75615f7540aa9f840c06e6e0161956"}, "vout": 34, "txid": "46bda95c0828c7589169d45b88eaa5c5d0ecba291c9306bed693dce2f8a5562f"}, {"sequence": 4294967295, "scriptSig": {"hex": "473044022007c4700c02284c893920fb95e2b42c8186a99ab6b2153d856f74637e21cfde12022014c146945c96f10445a454246726ce10b9d9a1837eca4e63da828dbf78f8daa5012103ed1ff29689d4f3190aab6340c0798677f4cf1f0843639ea36c3271da6e7b7a51", "asm": "3044022007c4700c02284c893920fb95e2b42c8186a99ab6b2153d856f74637e21cfde12022014c146945c96f10445a454246726ce10b9d9a1837eca4e63da828dbf78f8daa5[ALL] 03ed1ff29689d4f3190aab6340c0798677f4cf1f0843639ea36c3271da6e7b7a51"}, "vout": 51, "txid": "46bda95c0828c7589169d45b88eaa5c5d0ecba291c9306bed693dce2f8a5562f"}, {"sequence": 4294967295, "scriptSig": {"hex": "47304402205a6de9a2f54823c7ff71ca2631b4a08fc0c4f2c098a5899f24bb06ce2cdaa52d02206e5dbb76779ae112f787acd64342d96ed4e13a1dc8597c36e862c07e7d53fb9a012102dc44e34ad62c459897bf4dae1d453385d0e2faaf892e6ee7a45bc8f4e73d4b83", "asm": "304402205a6de9a2f54823c7ff71ca2631b4a08fc0c4f2c098a5899f24bb06ce2cdaa52d02206e5dbb76779ae112f787acd64342d96ed4e13a1dc8597c36e862c07e7d53fb9a[ALL] 02dc44e34ad62c459897bf4dae1d453385d0e2faaf892e6ee7a45bc8f4e73d4b83"}, "vout": 78, "txid": "46bda95c0828c7589169d45b88eaa5c5d0ecba291c9306bed693dce2f8a5562f"}, {"sequence": 4294967295, "scriptSig": {"hex": "483045022100e4662397cf550a6635ea22b38300f69c83b03b05f898de8c9cc942c434e4b4200220289f893215769cb76150ad24981f86d60c66770fbfb43a3c87553069f8e41d5001210340d5b8bf3f4616c8dd5928ab4de968d8778c75ebb8b2677a541046ce5a5077bf", "asm": "3045022100e4662397cf550a6635ea22b38300f69c83b03b05f898de8c9cc942c434e4b4200220289f893215769cb76150ad24981f86d60c66770fbfb43a3c87553069f8e41d50[ALL] 0340d5b8bf3f4616c8dd5928ab4de968d8778c75ebb8b2677a541046ce5a5077bf"}, "vout": 39, "txid": "46bda95c0828c7589169d45b88eaa5c5d0ecba291c9306bed693dce2f8a5562f"}, {"sequence": 4294967295, "scriptSig": {"hex": "483045022100a42a3b609c00747935d34ff695bc0e5ad60c78babfb3af6bfe39b7d4ca2cd55002201a16b03f03d6b930f629acfd272ed8eee78962c42560f2368ceccf769bd4ba5e012103e99dbc77f7814358eb9371706c62e7121a33f9cee0f2826dae0506ffd53f397f", "asm": "3045022100a42a3b609c00747935d34ff695bc0e5ad60c78babfb3af6bfe39b7d4ca2cd55002201a16b03f03d6b930f629acfd272ed8eee78962c42560f2368ceccf769bd4ba5e[ALL] 03e99dbc77f7814358eb9371706c62e7121a33f9cee0f2826dae0506ffd53f397f"}, "vout": 16, "txid": "46bda95c0828c7589169d45b88eaa5c5d0ecba291c9306bed693dce2f8a5562f"}, {"sequence": 4294967295, "scriptSig": {"hex": "47304402204b0e297c277606bb4f9c60d01a11e61a8c7b7b2e97ed44ba880be09c6abd9eb102201357365da91962c0d486a4330e187f1d34aa9147d8f82fabaed41d117e8648bb012102520ad81b5f4ba00f6a0d8cb9d3ecec8377e0590140a1f7b0ef10acfdf9d59ca0", "asm": "304402204b0e297c277606bb4f9c60d01a11e61a8c7b7b2e97ed44ba880be09c6abd9eb102201357365da91962c0d486a4330e187f1d34aa9147d8f82fabaed41d117e8648bb[ALL] 02520ad81b5f4ba00f6a0d8cb9d3ecec8377e0590140a1f7b0ef10acfdf9d59ca0"}, "vout": 25, "txid": "436a24f3ed774afc639bc2736833a9b9d093f7e20273199ccab960feed24c90e"}, {"sequence": 4294967295, "scriptSig": {"hex": "473044022028bd11dff13e93ef2aad1b85f7f1957ef73038a1ba7b353a1723779482ec1fe002205ba424ae449ccc6510ecb23c58cdc88e7700438e33636f796f6ff52627d4ab9b01210333d5ffe3514e5101b485006015871a1cc823da82c16fd3fe89cf8bd5adb165d5", "asm": "3044022028bd11dff13e93ef2aad1b85f7f1957ef73038a1ba7b353a1723779482ec1fe002205ba424ae449ccc6510ecb23c58cdc88e7700438e33636f796f6ff52627d4ab9b[ALL] 0333d5ffe3514e5101b485006015871a1cc823da82c16fd3fe89cf8bd5adb165d5"}, "vout": 58, "txid": "436a24f3ed774afc639bc2736833a9b9d093f7e20273199ccab960feed24c90e"}, {"sequence": 4294967295, "scriptSig": {"hex": "483045022100bd782ae1110f620ff4389ba02f1ff2e643e86b6c7188c5a57f8204a3bae206eb022029dc79dd2e543bfb40ddd06d8c4539bebf74bb13d3c684620561050a59c20b2a012103d7fa1c9d754372133cd0b8e82593837a25d084c74e9c6b95eb1fc00e506f25e5", "asm": "3045022100bd782ae1110f620ff4389ba02f1ff2e643e86b6c7188c5a57f8204a3bae206eb022029dc79dd2e543bfb40ddd06d8c4539bebf74bb13d3c684620561050a59c20b2a[ALL] 03d7fa1c9d754372133cd0b8e82593837a25d084c74e9c6b95eb1fc00e506f25e5"}, "vout": 34, "txid": "436a24f3ed774afc639bc2736833a9b9d093f7e20273199ccab960feed24c90e"}, {"sequence": 4294967295, "scriptSig": {"hex": "483045022100c3320d771f7de914c147e9c19e958e6626cba62c790265ae743aa62d04895b3e02202ef773a952af640dd4bdd353eb531326b4769d21338f3d2b68a275f8da1367c6012102ce1598d4a02bd57c44f0ac9ef413dffab961eaf311406b151757dccea5871ff5", "asm": "3045022100c3320d771f7de914c147e9c19e958e6626cba62c790265ae743aa62d04895b3e02202ef773a952af640dd4bdd353eb531326b4769d21338f3d2b68a275f8da1367c6[ALL] 02ce1598d4a02bd57c44f0ac9ef413dffab961eaf311406b151757dccea5871ff5"}, "vout": 2, "txid": "436a24f3ed774afc639bc2736833a9b9d093f7e20273199ccab960feed24c90e"}, {"sequence": 4294967295, "scriptSig": {"hex": "473044022038739f1f16e4e8d320a4f3cc009d7b433c6bd45ce5d4abc622a90a75f567be880220184225c7e0add477ef24ed5291618e0b1234693c7ebff851abb06bf22978a2270121030a80f209616dac48b3eb323c05b680b7e83d3974f0259de116368660e7f0b360", "asm": "3044022038739f1f16e4e8d320a4f3cc009d7b433c6bd45ce5d4abc622a90a75f567be880220184225c7e0add477ef24ed5291618e0b1234693c7ebff851abb06bf22978a227[ALL] 030a80f209616dac48b3eb323c05b680b7e83d3974f0259de116368660e7f0b360"}, "vout": 1, "txid": "436a24f3ed774afc639bc2736833a9b9d093f7e20273199ccab960feed24c90e"}, {"sequence": 4294967295, "scriptSig": {"hex": "483045022100bb2a8d05d5d6f1f6f53258caa4cf27e548e34ac2132005e7a056c018e16d21c202206aac03d79a31f20576ffcf8867b560eff643f2b236ea1c7c186c83793fc0ef9f01210219f6673b2e8382b10ab423020d3517a801e64a1bff07fe515779ed324d1f217f", "asm": "3045022100bb2a8d05d5d6f1f6f53258caa4cf27e548e34ac2132005e7a056c018e16d21c202206aac03d79a31f20576ffcf8867b560eff643f2b236ea1c7c186c83793fc0ef9f[ALL] 0219f6673b2e8382b10ab423020d3517a801e64a1bff07fe515779ed324d1f217f"}, "vout": 82, "txid": "436a24f3ed774afc639bc2736833a9b9d093f7e20273199ccab960feed24c90e"}, {"sequence": 4294967295, "scriptSig": {"hex": "483045022100e075578fba51a4bf8571cdad50695bad6e3d191dd6a962088cd5f6b01c0592ed0220128fd458bad616940d3fbc6cf718ffa4522528e5f8c58297c979960f24bc06d9012102f0c9d8cdc9399d2a31d3a02774070fe99ea15026210605632147d96f4fe804ac", "asm": "3045022100e075578fba51a4bf8571cdad50695bad6e3d191dd6a962088cd5f6b01c0592ed0220128fd458bad616940d3fbc6cf718ffa4522528e5f8c58297c979960f24bc06d9[ALL] 02f0c9d8cdc9399d2a31d3a02774070fe99ea15026210605632147d96f4fe804ac"}, "vout": 94, "txid": "768b325765d7eabb33aaa7ee4d61cef44c59cedb982584d1f10c57c68372f50d"}], "txid": "b5460cbbd464d6ba6cbc4ed2148a24427851905031c25b6367ef40eb548e7cba", "blocktime": 1537873891, "version": 1, "confirmations": 11474, "time": 1537873891, "locktime": 0, "vsize": 3089, "size": 3089}