{"hash": "6dd63f0c2d4d9a09d4ba5df9e422cf1be35a2516f8c485a8e408c7ddac71cc17", "blockhash": "000000000000000000022b45ed06c6f4ccd3cf7fb5ba4856ebd2e58215665228", "vout": [{"scriptPubKey": {"reqSigs": 1, "hex": "76a914f947bc6679b9cd698ca823e37367f7b1362356fd88ac", "addresses": ["1Pj5C4qc5s2AAYsyKPk5fW3oGQPxK8nvAm"], "asm": "OP_DUP OP_HASH160 f947bc6679b9cd698ca823e37367f7b1362356fd OP_EQUALVERIFY OP_CHECKSIG", "type": "pubkeyhash"}, "value": 0.00078009, "n": 0}, {"scriptPubKey": {"reqSigs": 1, "hex": "a91422adeebe724e3bd9e7560c05ebe69396f7e0c49e87", "addresses": ["34rPG7bFv64Btoeg9jZWisDXL38MvtHsKB"], "asm": "OP_HASH160 22adeebe724e3bd9e7560c05ebe69396f7e0c49e OP_EQUAL", "type": "scripthash"}, "value": 0.00781, "n": 1}, {"scriptPubKey": {"reqSigs": 1, "hex": "76a91402cbb85c254715d2ad051e2a6a12af4f75d0354588ac", "addresses": ["1FnQ7HA36PywaPe4f1anSwi6fh8p4YJeW"], "asm": "OP_DUP OP_HASH160 02cbb85c254715d2ad051e2a6a12af4f75d03545 OP_EQUALVERIFY OP_CHECKSIG", "type": "pubkeyhash"}, "value": 0.015449, "n": 2}, {"scriptPubKey": {"reqSigs": 1, "hex": "76a9148b6f2807e547202a4b67666b15712ba1dc92a18c88ac", "addresses": ["1DiG5wn818YT7YxTRHSUexJgDJqacWq94c"], "asm": "OP_DUP OP_HASH160 8b6f2807e547202a4b67666b15712ba1dc92a18c OP_EQUALVERIFY OP_CHECKSIG", "type": "pubkeyhash"}, "value": 0.17436, "n": 3}, {"scriptPubKey": {"reqSigs": 1, "hex": "a9141988a27e3c2df4ddee7fad5a2303d086179b2a3087", "addresses": ["3422VtS7UtCvXYxoXMVp6eZupR252z85oC"], "asm": "OP_HASH160 1988a27e3c2df4ddee7fad5a2303d086179b2a30 OP_EQUAL", "type": "scripthash"}, "value": 2.0948727, "n": 4}], "hex": "01000000000101baaa8e6e933e0a42233d6227363a249ce614588d3af7ef37025619f6348bc280010000002322002065d416c48a8072e0ac51c2d111eb194f009caef0332446c1bf2097316cf07fa9ffffffff05b9300100000000001976a914f947bc6679b9cd698ca823e37367f7b1362356fd88acc8ea0b000000000017a91422adeebe724e3bd9e7560c05ebe69396f7e0c49e87c4921700000000001976a91402cbb85c254715d2ad051e2a6a12af4f75d0354588ac600d0a01000000001976a9148b6f2807e547202a4b67666b15712ba1dc92a18c88aca6857c0c0000000017a9141988a27e3c2df4ddee7fad5a2303d086179b2a30870400483045022100b8aec56c7a07464977c316c51e53d3ea801fd0ac9ab461f25544d71ff781023002206311bf8bedeb84a7d2c39421da331829f4bf64c98c9656650ac64895c5dfb8aa01483045022100b4f5d6b5efdb65ffe93ddfab491e16a88dfa5fe0134b4497b5f910db5815ced902203f13ba6858ce1fce126c922a5553edee4abf3986d75d99e831e930d3d4f43f8c0169522102f44abcf9e23c9a460da309ccca56c619c04eed3bde2c2cff5e7d78fbcd980b9c2103c9443cf3047bb6c2c82f1b0c44c36109cdc3d0d601d16d1189a1602bf8d1a0a02103bfe867059274412412e088af5572b92168c2ef495cfe6c9b7a753a009eb37c4853ae00000000", "vin": [{"txinwitness": ["", "3045022100b8aec56c7a07464977c316c51e53d3ea801fd0ac9ab461f25544d71ff781023002206311bf8bedeb84a7d2c39421da331829f4bf64c98c9656650ac64895c5dfb8aa01", "3045022100b4f5d6b5efdb65ffe93ddfab491e16a88dfa5fe0134b4497b5f910db5815ced902203f13ba6858ce1fce126c922a5553edee4abf3986d75d99e831e930d3d4f43f8c01", "522102f44abcf9e23c9a460da309ccca56c619c04eed3bde2c2cff5e7d78fbcd980b9c2103c9443cf3047bb6c2c82f1b0c44c36109cdc3d0d601d16d1189a1602bf8d1a0a02103bfe867059274412412e088af5572b92168c2ef495cfe6c9b7a753a009eb37c4853ae"], "sequence": 4294967295, "scriptSig": {"hex": "22002065d416c48a8072e0ac51c2d111eb194f009caef0332446c1bf2097316cf07fa9", "asm": "002065d416c48a8072e0ac51c2d111eb194f009caef0332446c1bf2097316cf07fa9"}, "vout": 1, "txid": "80c28b34f619560237eff73a8d5814e69c243a3627623d23420a3e936e8eaaba"}], "txid": "b548d80e7c0b6649295ed70d50a5452b5a74b2d8c92d7cf9876db37aca30be26", "blocktime": 1537869901, "version": 1, "confirmations": 11522, "time": 1537869901, "locktime": 0, "vsize": 316, "size": 508}