{"hash": "b54e122f39587f504af0d2bdd3c8e9c9dd8b8e78e4a177f4a00e40e1b0f06881", "blockhash": "0000000000000000000baef3f32e3676a92c3b2e5da21b426e4f302fc371ce76", "vout": [{"scriptPubKey": {"type": "nulldata", "hex": "6a146f6d6e690000000000000027000000a441405660", "asm": "OP_RETURN 6f6d6e690000000000000027000000a441405660"}, "value": 0.0, "n": 0}, {"scriptPubKey": {"reqSigs": 1, "hex": "76a9146270b789c6abc97df2cc6d91725b3b3c845c83b688ac", "addresses": ["19yWFWawyQxFmkXbjP3E94v7ftBdevz4fH"], "asm": "OP_DUP OP_HASH160 6270b789c6abc97df2cc6d91725b3b3c845c83b6 OP_EQUALVERIFY OP_CHECKSIG", "type": "pubkeyhash"}, "value": 0.00495957, "n": 1}, {"scriptPubKey": {"reqSigs": 1, "hex": "76a91488d924f51033b74a895863a5fb57fd545529df7d88ac", "addresses": ["1DUb2YYbQA1jjaNYzVXLZ7ZioEhLXtbUru"], "asm": "OP_DUP OP_HASH160 88d924f51033b74a895863a5fb57fd545529df7d OP_EQUALVERIFY OP_CHECKSIG", "type": "pubkeyhash"}, "value": 5.46e-06, "n": 2}], "hex": "010000000175945be6c82f903e150c089b0ebf60801b5d70314ab5b95651587167f65fb368000000006a47304402204aeffae5f49555fe9be8e2c3db217fe1445a32622491d3ca6a0e8aa5c2f219c5022001bf132bfb48bdafb6e9dbd42e529d99dff816fd3ba004215c89f98181e9580f0121020b35f673e185703638f197acbfef13dd24bf1f7032deb5a123ea9b74ff1df421feffffff030000000000000000166a146f6d6e690000000000000027000000a44140566055910700000000001976a9146270b789c6abc97df2cc6d91725b3b3c845c83b688ac22020000000000001976a91488d924f51033b74a895863a5fb57fd545529df7d88ac17490800", "vin": [{"sequence": 4294967294, "scriptSig": {"hex": "47304402204aeffae5f49555fe9be8e2c3db217fe1445a32622491d3ca6a0e8aa5c2f219c5022001bf132bfb48bdafb6e9dbd42e529d99dff816fd3ba004215c89f98181e9580f0121020b35f673e185703638f197acbfef13dd24bf1f7032deb5a123ea9b74ff1df421", "asm": "304402204aeffae5f49555fe9be8e2c3db217fe1445a32622491d3ca6a0e8aa5c2f219c5022001bf132bfb48bdafb6e9dbd42e529d99dff816fd3ba004215c89f98181e9580f[ALL] 020b35f673e185703638f197acbfef13dd24bf1f7032deb5a123ea9b74ff1df421"}, "vout": 0, "txid": "68b35ff66771585156b9b54a31705d1b8060bf0e9b080c153e902fc8e65b9475"}], "txid": "b54e122f39587f504af0d2bdd3c8e9c9dd8b8e78e4a177f4a00e40e1b0f06881", "blocktime": 1537876114, "version": 1, "confirmations": 11459, "time": 1537876114, "locktime": 542999, "vsize": 256, "size": 256}