{"hash": "b54e64da0836d3de24c6f0544c89af339420b5c4cec925408220bfae4fbf5527", "blockhash": "0000000000000000000baef3f32e3676a92c3b2e5da21b426e4f302fc371ce76", "vout": [{"scriptPubKey": {"reqSigs": 1, "hex": "76a9147bd6259defc099ed6c332d100e73d676d8fc6dbc88ac", "addresses": ["1CHnenZJRYBNKDS7ZhPzyb6uNmhFDQwEDo"], "asm": "OP_DUP OP_HASH160 7bd6259defc099ed6c332d100e73d676d8fc6dbc OP_EQUALVERIFY OP_CHECKSIG", "type": "pubkeyhash"}, "value": 0.00110844, "n": 0}, {"scriptPubKey": {"type": "nulldata", "hex": "6a4c50000078310001d75e35aaba5f9ef370ee0d8227b7256b4774d339f6019d6ddc0f1b8ff117e83132d6b50bbefcaa751ee9699ba1f85baa1f870613f3f75e0aa540bc9a9526289ac0f6612cd74e33776ee4", "asm": "OP_RETURN 000078310001d75e35aaba5f9ef370ee0d8227b7256b4774d339f6019d6ddc0f1b8ff117e83132d6b50bbefcaa751ee9699ba1f85baa1f870613f3f75e0aa540bc9a9526289ac0f6612cd74e33776ee4"}, "value": 0.0, "n": 1}], "hex": "0100000001995500cfce8208afa54615d455d84f12e61359a025b626624f5ae6f93cb51249010000006b483045022100d84adfa2cf2cd72f66bd2070703d4e613b2be912380db0eed1c07785c2b9593502205ee23885b38e173ef9c235b65b8f7bb4dbc9c25d06aaa095ce34ed2dd0d13363012102f0655feca7bb99066ea78ed7e7152e3de816dd55a5de98412d5929b37d13e655ffffffff02fcb00100000000001976a9147bd6259defc099ed6c332d100e73d676d8fc6dbc88ac0000000000000000536a4c50000078310001d75e35aaba5f9ef370ee0d8227b7256b4774d339f6019d6ddc0f1b8ff117e83132d6b50bbefcaa751ee9699ba1f85baa1f870613f3f75e0aa540bc9a9526289ac0f6612cd74e33776ee400000000", "vin": [{"sequence": 4294967295, "scriptSig": {"hex": "483045022100d84adfa2cf2cd72f66bd2070703d4e613b2be912380db0eed1c07785c2b9593502205ee23885b38e173ef9c235b65b8f7bb4dbc9c25d06aaa095ce34ed2dd0d13363012102f0655feca7bb99066ea78ed7e7152e3de816dd55a5de98412d5929b37d13e655", "asm": "3045022100d84adfa2cf2cd72f66bd2070703d4e613b2be912380db0eed1c07785c2b9593502205ee23885b38e173ef9c235b65b8f7bb4dbc9c25d06aaa095ce34ed2dd0d13363[ALL] 02f0655feca7bb99066ea78ed7e7152e3de816dd55a5de98412d5929b37d13e655"}, "vout": 1, "txid": "4912b53cf9e65a4f6226b625a05913e6124fd855d41546a5af0882cecf005599"}], "txid": "b54e64da0836d3de24c6f0544c89af339420b5c4cec925408220bfae4fbf5527", "blocktime": 1537876114, "version": 1, "confirmations": 11461, "time": 1537876114, "locktime": 0, "vsize": 284, "size": 284}