{"hash": "0e96aa79d1c7177d058d61717cc5b9d35079db4835e55b510987a96ca3a31fc5", "blockhash": "0000000000000000000e13cef7c366c0283d82e591d1acd082e914b08063cdf1", "vout": [{"scriptPubKey": {"reqSigs": 1, "hex": "76a9142e1b944fe7ffbe969fc1df8d662fd7b5d6303c9b88ac", "addresses": ["15Co856cRnFRCKwSSzECoyT3ozVhuFoJZ6"], "asm": "OP_DUP OP_HASH160 2e1b944fe7ffbe969fc1df8d662fd7b5d6303c9b OP_EQUALVERIFY OP_CHECKSIG", "type": "pubkeyhash"}, "value": 0.0024616, "n": 0}, {"scriptPubKey": {"reqSigs": 1, "hex": "a914360ed9902a66b06fb9d9574eb01bebc39e5cb1f187", "addresses": ["36crCgtyvmMmFBZWqhYDhKkZmpSvvq8Xo2"], "asm": "OP_HASH160 360ed9902a66b06fb9d9574eb01bebc39e5cb1f1 OP_EQUAL", "type": "scripthash"}, "value": 0.01028174, "n": 1}], "hex": "02000000000102622d9da05f6fbee28d26285dd9138e11c2d9b4b7610a0fe7bd48787beb18a6fd09000000171600141ab3a419c13fe29359f10523964b562a60722d93feffffffedb034bafb7f7e61e0cd7c22c00b0f091c029640b49b0ab9b1257a4070630b0801000000171600143a4167e8dd034dada701ed160646c67b6e981b69feffffff0290c10300000000001976a9142e1b944fe7ffbe969fc1df8d662fd7b5d6303c9b88ac4eb00f000000000017a914360ed9902a66b06fb9d9574eb01bebc39e5cb1f18702483045022100ba97c5d755283219210bd8b3c8c7f8aaf4b787bfa332124068b780c0eac787f502202f95b2a39eaed2692ce8eadff026d99a50b43ead7947d7e3abf9e029735d150c01210238918065842b7557161553cc487a02090eac8532e06cd4b05af7ac6df5f947190247304402201c2d09d686c3f1ce10dfdec2f534946459eb8ec6c833c7d275f74d530a16483302202a39660ab2b9795f6e3040d962efcf2fc4e11a8eceafe65b3c3b6624ec0f8bb6012102026f14132a7ad510c2a9b0b3442a56ce80e9c1886d760bf3170e44c4a5cb9e4710490800", "vin": [{"txinwitness": ["3045022100ba97c5d755283219210bd8b3c8c7f8aaf4b787bfa332124068b780c0eac787f502202f95b2a39eaed2692ce8eadff026d99a50b43ead7947d7e3abf9e029735d150c01", "0238918065842b7557161553cc487a02090eac8532e06cd4b05af7ac6df5f94719"], "sequence": 4294967294, "scriptSig": {"hex": "1600141ab3a419c13fe29359f10523964b562a60722d93", "asm": "00141ab3a419c13fe29359f10523964b562a60722d93"}, "vout": 9, "txid": "fda618eb7b7848bde70f0a61b7b4d9c2118e13d95d28268de2be6f5fa09d2d62"}, {"txinwitness": ["304402201c2d09d686c3f1ce10dfdec2f534946459eb8ec6c833c7d275f74d530a16483302202a39660ab2b9795f6e3040d962efcf2fc4e11a8eceafe65b3c3b6624ec0f8bb601", "02026f14132a7ad510c2a9b0b3442a56ce80e9c1886d760bf3170e44c4a5cb9e47"], "sequence": 4294967294, "scriptSig": {"hex": "1600143a4167e8dd034dada701ed160646c67b6e981b69", "asm": "00143a4167e8dd034dada701ed160646c67b6e981b69"}, "vout": 1, "txid": "080b6370407a25b1b90a9bb44096021c090f0bc0227ccde0617e7ffbba34b0ed"}], "txid": "b54e85a8e8eb8f8976a4ef95d8ab6972979530761bf2af31c989b642a66148b4", "blocktime": 1537871767, "version": 2, "confirmations": 11495, "time": 1537871767, "locktime": 542992, "vsize": 259, "size": 421}