{"hash": "b5572733a86f84eb36bb6ef1cda595e44426551746e694b7377f7a1598c31e53", "blockhash": "0000000000000000000e13cef7c366c0283d82e591d1acd082e914b08063cdf1", "vout": [{"scriptPubKey": {"reqSigs": 1, "hex": "a91496a40c5d80db5cce6b0f2e074ce33aaad02e02ca87", "addresses": ["3FRXobQxwhXDrvheejxDcMUmvDzgDsCtRV"], "asm": "OP_HASH160 96a40c5d80db5cce6b0f2e074ce33aaad02e02ca OP_EQUAL", "type": "scripthash"}, "value": 0.01489598, "n": 0}, {"scriptPubKey": {"reqSigs": 1, "hex": "76a9146586ced214191eaee684bf8787713d2671eff5aa88ac", "addresses": ["1AFpjzWNNtmMamjbbSSNLiVdktzrYMspCQ"], "asm": "OP_DUP OP_HASH160 6586ced214191eaee684bf8787713d2671eff5aa OP_EQUALVERIFY OP_CHECKSIG", "type": "pubkeyhash"}, "value": 0.32703464, "n": 1}], "hex": "020000000146d4225582630fc0653d1b95f8bbd4d1f44b968948d48ee8e0e713243287365e010000006b483045022100f7071f1d8f07276c5b890cfcf45c21e4cc398c890434c6e1f7869eccf3d04ac6022048026a592c5d52a5dd176f48e38a94bb849072084a684500517ed533f05ace5301210210dac65f236a05432a1dbd2f909aa1c6e1870304203e734e8d07db9b57443d46ffffffff02beba16000000000017a91496a40c5d80db5cce6b0f2e074ce33aaad02e02ca87e803f301000000001976a9146586ced214191eaee684bf8787713d2671eff5aa88ac00000000", "vin": [{"sequence": 4294967295, "scriptSig": {"hex": "483045022100f7071f1d8f07276c5b890cfcf45c21e4cc398c890434c6e1f7869eccf3d04ac6022048026a592c5d52a5dd176f48e38a94bb849072084a684500517ed533f05ace5301210210dac65f236a05432a1dbd2f909aa1c6e1870304203e734e8d07db9b57443d46", "asm": "3045022100f7071f1d8f07276c5b890cfcf45c21e4cc398c890434c6e1f7869eccf3d04ac6022048026a592c5d52a5dd176f48e38a94bb849072084a684500517ed533f05ace53[ALL] 0210dac65f236a05432a1dbd2f909aa1c6e1870304203e734e8d07db9b57443d46"}, "vout": 1, "txid": "5e3687322413e7e0e88ed44889964bf4d1d4bbf8951b3d65c00f63825522d446"}], "txid": "b5572733a86f84eb36bb6ef1cda595e44426551746e694b7377f7a1598c31e53", "blocktime": 1537871767, "version": 2, "confirmations": 11490, "time": 1537871767, "locktime": 0, "vsize": 224, "size": 224}