{"hash": "b558c0f0afed0a0b424d1c824be202bef7e352ccc937c38f8c3bb731c6ed943f", "blockhash": "0000000000000000001cda96e906b7601b7a6fb1a3b62bca570a9e5d8f4b3de1", "vout": [{"scriptPubKey": {"reqSigs": 1, "hex": "76a914cec32a5512a087814a59d0e10f7889069021c5e488ac", "addresses": ["1KrFzqxPGotSJ8y6N3oQYNpg7LVjYh5i3g"], "asm": "OP_DUP OP_HASH160 cec32a5512a087814a59d0e10f7889069021c5e4 OP_EQUALVERIFY OP_CHECKSIG", "type": "pubkeyhash"}, "value": 0.01714502, "n": 0}, {"scriptPubKey": {"reqSigs": 1, "hex": "00142d95255077409c13f0c6814d67beba3631e1c5e4", "addresses": ["bc1q9k2j25rhgzwp8uxxs9xk0046xcc7r30ytkamrg"], "asm": "0 2d95255077409c13f0c6814d67beba3631e1c5e4", "type": "witness_v0_keyhash"}, "value": 0.00411889, "n": 1}], "hex": "01000000010d3988778ebde01363f3fa7c70a733a355ccbdc3a18283761612b2fd05d24f23290000006a47304402202ff77534d2e980de671a30559d0fea74f25884c0db5deea5240b9916bc624e7402200eb6b600ac24bbbf05dffb0545750173441ff55366af2a4d791f24a1ee077b9a01210243cd2aff0351803e7842b262d573c94f3662e619c3512323404db25dd9a8c451ffffffff0246291a00000000001976a914cec32a5512a087814a59d0e10f7889069021c5e488acf1480600000000001600142d95255077409c13f0c6814d67beba3631e1c5e400000000", "vin": [{"sequence": 4294967295, "scriptSig": {"hex": "47304402202ff77534d2e980de671a30559d0fea74f25884c0db5deea5240b9916bc624e7402200eb6b600ac24bbbf05dffb0545750173441ff55366af2a4d791f24a1ee077b9a01210243cd2aff0351803e7842b262d573c94f3662e619c3512323404db25dd9a8c451", "asm": "304402202ff77534d2e980de671a30559d0fea74f25884c0db5deea5240b9916bc624e7402200eb6b600ac24bbbf05dffb0545750173441ff55366af2a4d791f24a1ee077b9a[ALL] 0243cd2aff0351803e7842b262d573c94f3662e619c3512323404db25dd9a8c451"}, "vout": 41, "txid": "234fd205fdb21216768382a1c3bdcc55a333a7707cfaf36313e0bd8e7788390d"}], "txid": "b558c0f0afed0a0b424d1c824be202bef7e352ccc937c38f8c3bb731c6ed943f", "blocktime": 1537873282, "version": 1, "confirmations": 11484, "time": 1537873282, "locktime": 0, "vsize": 222, "size": 222}