{"hash": "b559b39865f6ba4c4a56ec98cfe64eaf8c2bcf15b832e21245e0f418275e2bcf", "blockhash": "00000000000000000024a2167bbff67b0be802c0b01cdd79e6331c2be6459f87", "vout": [{"scriptPubKey": {"reqSigs": 1, "hex": "76a9148d3f90b8ef227880b9ed6542a429837eea9d6aa588ac", "addresses": ["1DsrReMguehMBUZDNQ7RjhdGSiY5nmcq97"], "asm": "OP_DUP OP_HASH160 8d3f90b8ef227880b9ed6542a429837eea9d6aa5 OP_EQUALVERIFY OP_CHECKSIG", "type": "pubkeyhash"}, "value": 0.00034608, "n": 0}, {"scriptPubKey": {"reqSigs": 1, "hex": "76a91400bbe9050e543ae35e9a7eeaf7d73b6dad42ece588ac", "addresses": ["114t7ET8xbudZfWH1Kpuca2oKNpKB6E9Uw"], "asm": "OP_DUP OP_HASH160 00bbe9050e543ae35e9a7eeaf7d73b6dad42ece5 OP_EQUALVERIFY OP_CHECKSIG", "type": "pubkeyhash"}, "value": 0.00980494, "n": 1}], "hex": "0100000006fb566998872832eec751fb03017fb00f3a45f9e79591dc65d0c88bd58164f041030000006a47304402202e3fc9c725f454f6bf4fc86a8551626a8170c2abe25981bba67df3d3a79b4f3302207a4a6742a44102aa6c8ecdb2aa3fd1e2a2274869a551a79712763676c576e8ae012102fa727fc665b712f3eed198324682ee2bad8ff26275e9977d90cec65bca02a0d2fffffffffb566998872832eec751fb03017fb00f3a45f9e79591dc65d0c88bd58164f0410b0000006b483045022100f5ae93dd7409b3077ce45c44ac7f098f5dd1078e4b4c852ec9e3dc2952da405002207baea042c8884d75f52bc5da9389a325181262dfba4f410a7ba61b223882627c012102fa727fc665b712f3eed198324682ee2bad8ff26275e9977d90cec65bca02a0d2ffffffff2e7512872b98854e3e3d2f6b729b2e61bd64641b90b6d46ee2c3e7f15cdafe5e080000006b483045022100af8613b8199472fc05ef477ad1ce9ae5a078e7af115f3e7f10d4300ad1d654fe02204659380c9eef3a8b534f421c85bb500cbfe2bc33bd52017f4923966f32f0945f012102bbf585d90dffb8dbd3f40ebb8b0cead42fefd30becc17bb177201852c9845d5fffffffff2e7512872b98854e3e3d2f6b729b2e61bd64641b90b6d46ee2c3e7f15cdafe5e0a0000006a4730440220159250f1f4543aac3543ed5ed92315cdd493c4b74953d0f3c6fcdf95f5f111070220576124a33d8373ddc4cc7dafb8d99e5a992e79b9a8d7391b9582330061a2565f012102bbf585d90dffb8dbd3f40ebb8b0cead42fefd30becc17bb177201852c9845d5fffffffffea871ca3cbf3ccd987c7578841eaa9694e3fea76fac199e577d00b27d626c989060000006b483045022100a4f42e87ef10ec3f461a4c840eab424501dbd803a125d4a3f2352fa90f7a31f0022050482755ced74763c19622ed9c0f5336903969497fd40b04c1fc181e9846127e012102bbf585d90dffb8dbd3f40ebb8b0cead42fefd30becc17bb177201852c9845d5fffffffff8f931930e72b971c9a219eec8d6ddd69a3fa54fcd8763624c7616117bf69ebf6040000006b483045022100eee1ec0b402263acb881c2a7a7726ae5b19400dfcda96bcee6c477ba065275e702205c78147b7d2259a6e29030a1e969d3b01377c73a1b35e0e2916056f398f2810f0121020210e412c846e9910fbb7c05ed7e6505b7e4f50cba3e604962b0ceea05e13c41ffffffff0230870000000000001976a9148d3f90b8ef227880b9ed6542a429837eea9d6aa588ac0ef60e00000000001976a91400bbe9050e543ae35e9a7eeaf7d73b6dad42ece588ac00000000", "vin": [{"sequence": 4294967295, "scriptSig": {"hex": "47304402202e3fc9c725f454f6bf4fc86a8551626a8170c2abe25981bba67df3d3a79b4f3302207a4a6742a44102aa6c8ecdb2aa3fd1e2a2274869a551a79712763676c576e8ae012102fa727fc665b712f3eed198324682ee2bad8ff26275e9977d90cec65bca02a0d2", "asm": "304402202e3fc9c725f454f6bf4fc86a8551626a8170c2abe25981bba67df3d3a79b4f3302207a4a6742a44102aa6c8ecdb2aa3fd1e2a2274869a551a79712763676c576e8ae[ALL] 02fa727fc665b712f3eed198324682ee2bad8ff26275e9977d90cec65bca02a0d2"}, "vout": 3, "txid": "41f06481d58bc8d065dc9195e7f9453a0fb07f0103fb51c7ee322887986956fb"}, {"sequence": 4294967295, "scriptSig": {"hex": "483045022100f5ae93dd7409b3077ce45c44ac7f098f5dd1078e4b4c852ec9e3dc2952da405002207baea042c8884d75f52bc5da9389a325181262dfba4f410a7ba61b223882627c012102fa727fc665b712f3eed198324682ee2bad8ff26275e9977d90cec65bca02a0d2", "asm": "3045022100f5ae93dd7409b3077ce45c44ac7f098f5dd1078e4b4c852ec9e3dc2952da405002207baea042c8884d75f52bc5da9389a325181262dfba4f410a7ba61b223882627c[ALL] 02fa727fc665b712f3eed198324682ee2bad8ff26275e9977d90cec65bca02a0d2"}, "vout": 11, "txid": "41f06481d58bc8d065dc9195e7f9453a0fb07f0103fb51c7ee322887986956fb"}, {"sequence": 4294967295, "scriptSig": {"hex": "483045022100af8613b8199472fc05ef477ad1ce9ae5a078e7af115f3e7f10d4300ad1d654fe02204659380c9eef3a8b534f421c85bb500cbfe2bc33bd52017f4923966f32f0945f012102bbf585d90dffb8dbd3f40ebb8b0cead42fefd30becc17bb177201852c9845d5f", "asm": "3045022100af8613b8199472fc05ef477ad1ce9ae5a078e7af115f3e7f10d4300ad1d654fe02204659380c9eef3a8b534f421c85bb500cbfe2bc33bd52017f4923966f32f0945f[ALL] 02bbf585d90dffb8dbd3f40ebb8b0cead42fefd30becc17bb177201852c9845d5f"}, "vout": 8, "txid": "5efeda5cf1e7c3e26ed4b6901b6464bd612e9b726b2f3d3e4e85982b8712752e"}, {"sequence": 4294967295, "scriptSig": {"hex": "4730440220159250f1f4543aac3543ed5ed92315cdd493c4b74953d0f3c6fcdf95f5f111070220576124a33d8373ddc4cc7dafb8d99e5a992e79b9a8d7391b9582330061a2565f012102bbf585d90dffb8dbd3f40ebb8b0cead42fefd30becc17bb177201852c9845d5f", "asm": "30440220159250f1f4543aac3543ed5ed92315cdd493c4b74953d0f3c6fcdf95f5f111070220576124a33d8373ddc4cc7dafb8d99e5a992e79b9a8d7391b9582330061a2565f[ALL] 02bbf585d90dffb8dbd3f40ebb8b0cead42fefd30becc17bb177201852c9845d5f"}, "vout": 10, "txid": "5efeda5cf1e7c3e26ed4b6901b6464bd612e9b726b2f3d3e4e85982b8712752e"}, {"sequence": 4294967295, "scriptSig": {"hex": "483045022100a4f42e87ef10ec3f461a4c840eab424501dbd803a125d4a3f2352fa90f7a31f0022050482755ced74763c19622ed9c0f5336903969497fd40b04c1fc181e9846127e012102bbf585d90dffb8dbd3f40ebb8b0cead42fefd30becc17bb177201852c9845d5f", "asm": "3045022100a4f42e87ef10ec3f461a4c840eab424501dbd803a125d4a3f2352fa90f7a31f0022050482755ced74763c19622ed9c0f5336903969497fd40b04c1fc181e9846127e[ALL] 02bbf585d90dffb8dbd3f40ebb8b0cead42fefd30becc17bb177201852c9845d5f"}, "vout": 6, "txid": "89c926d6270bd077e599c1fa76ea3f4e69a9ea418857c787d9ccf3cba31c87ea"}, {"sequence": 4294967295, "scriptSig": {"hex": "483045022100eee1ec0b402263acb881c2a7a7726ae5b19400dfcda96bcee6c477ba065275e702205c78147b7d2259a6e29030a1e969d3b01377c73a1b35e0e2916056f398f2810f0121020210e412c846e9910fbb7c05ed7e6505b7e4f50cba3e604962b0ceea05e13c41", "asm": "3045022100eee1ec0b402263acb881c2a7a7726ae5b19400dfcda96bcee6c477ba065275e702205c78147b7d2259a6e29030a1e969d3b01377c73a1b35e0e2916056f398f2810f[ALL] 020210e412c846e9910fbb7c05ed7e6505b7e4f50cba3e604962b0ceea05e13c41"}, "vout": 4, "txid": "f6eb69bf176161c7243676d8fc54faa369dd6d8dec9e219a1c972be73019938f"}], "txid": "b559b39865f6ba4c4a56ec98cfe64eaf8c2bcf15b832e21245e0f418275e2bcf", "blocktime": 1537870564, "version": 1, "confirmations": 11515, "time": 1537870564, "locktime": 0, "vsize": 964, "size": 964}