{"hash": "abc9603d3dc2c30822eadac89189520f116a56aa08d897b00e3ab28d39375f30", "blockhash": "0000000000000000000dcc0f55137456b1a82d3642486a52398922ac4d620174", "vout": [{"scriptPubKey": {"reqSigs": 1, "hex": "001433cc3f847f196188e10f4d8879ea714c7d8f8040", "addresses": ["bc1qx0xrlprlr9sc3cg0fky8n6n3f37clqzqd0pjsz"], "asm": "0 33cc3f847f196188e10f4d8879ea714c7d8f8040", "type": "witness_v0_keyhash"}, "value": 0.01105021, "n": 0}, {"scriptPubKey": {"reqSigs": 1, "hex": "a914bdfc294f5217d37ad342705c3c9c38d271bfd90b87", "addresses": ["3K1ZiH7VUBy5cCzS6nEenYRWWdZJMSRoit"], "asm": "OP_HASH160 bdfc294f5217d37ad342705c3c9c38d271bfd90b OP_EQUAL", "type": "scripthash"}, "value": 0.02251279, "n": 1}], "hex": "0100000000010179cf1fb994bed9eb0810f773dc117e6d5d983c095910e25e6a3fa7a992dfaa56010000001716001421e30899e0dccb85e4215624575b5e3d2b074f10ffffffff027ddc10000000000016001433cc3f847f196188e10f4d8879ea714c7d8f80400f5a22000000000017a914bdfc294f5217d37ad342705c3c9c38d271bfd90b87024730440220676c9d422ad5534d305cdd786519ef467e75a4dbfd3f5bdf85702e84e0cfafc702204e9696c00b0d67c6546ec128899e83490c74b14629613ac555c62509ca7a851d012102d106b381bc0067ea3fe4488a6c03a130cc20c5e15a780066e9818471fad30ba000000000", "vin": [{"txinwitness": ["30440220676c9d422ad5534d305cdd786519ef467e75a4dbfd3f5bdf85702e84e0cfafc702204e9696c00b0d67c6546ec128899e83490c74b14629613ac555c62509ca7a851d01", "02d106b381bc0067ea3fe4488a6c03a130cc20c5e15a780066e9818471fad30ba0"], "sequence": 4294967295, "scriptSig": {"hex": "16001421e30899e0dccb85e4215624575b5e3d2b074f10", "asm": "001421e30899e0dccb85e4215624575b5e3d2b074f10"}, "vout": 1, "txid": "56aadf92a9a73f6a5ee21059093c985d6d7e11dc73f71008ebd9be94b91fcf79"}], "txid": "b55d2a7f73b8f034720d93c1b3d748c3dc545072885ff0700e4237396e17dab0", "blocktime": 1537870268, "version": 1, "confirmations": 11518, "time": 1537870268, "locktime": 0, "vsize": 165, "size": 246}