{"hash": "ad15288129ca577d488550186221fd10b16b6365d13a2df4f2d52bb1359c792d", "blockhash": "0000000000000000000baef3f32e3676a92c3b2e5da21b426e4f302fc371ce76", "vout": [{"scriptPubKey": {"reqSigs": 1, "hex": "a91490e99e8d26d05ead3c05430c292a887bbff695f587", "addresses": ["3EuF6KjJawxTiUsea3Sc8hsLUGmVEf7Xg5"], "asm": "OP_HASH160 90e99e8d26d05ead3c05430c292a887bbff695f5 OP_EQUAL", "type": "scripthash"}, "value": 0.0009525, "n": 0}, {"scriptPubKey": {"type": "nulldata", "hex": "6a146f6d6e69000000000000001f0000000005f5e100", "asm": "OP_RETURN 6f6d6e69000000000000001f0000000005f5e100"}, "value": 0.0, "n": 1}, {"scriptPubKey": {"reqSigs": 1, "hex": "a91490e99e8d26d05ead3c05430c292a887bbff695f587", "addresses": ["3EuF6KjJawxTiUsea3Sc8hsLUGmVEf7Xg5"], "asm": "OP_HASH160 90e99e8d26d05ead3c05430c292a887bbff695f5 OP_EQUAL", "type": "scripthash"}, "value": 5.4e-06, "n": 2}], "hex": "010000000001023e5c51391d43d61bad2582f87754e7304cd9c862ae7882543bd8160858c35d900000000017160014f6e1792e7852ebd5ae795c2a25d579acdfadec2dffffffff3e5c51391d43d61bad2582f87754e7304cd9c862ae7882543bd8160858c35d900200000017160014f6e1792e7852ebd5ae795c2a25d579acdfadec2dffffffff03127401000000000017a91490e99e8d26d05ead3c05430c292a887bbff695f5870000000000000000166a146f6d6e69000000000000001f0000000005f5e1001c0200000000000017a91490e99e8d26d05ead3c05430c292a887bbff695f58702483045022100ed25ea10b117da050369f99524840eb6bfc356f58507ad6918d1536aaca279f602201ec8f3112df45249006bd428d4e3a2c89d03fb9f7c8d35435369c5e057731c64012103f1cf988013a33e053d1e9bd54c4798c1a6dc362a5b2798b5344049fca40e2db002483045022100e78a570c8d4cf4b3885622afb63f8b2608aa7c53e5ea16a7c89d8d8460740642022063a48475f684d531f72249fae9b6caaa1781a2ab9373d0345ef097e2c229bc21012103f1cf988013a33e053d1e9bd54c4798c1a6dc362a5b2798b5344049fca40e2db000000000", "vin": [{"txinwitness": ["3045022100ed25ea10b117da050369f99524840eb6bfc356f58507ad6918d1536aaca279f602201ec8f3112df45249006bd428d4e3a2c89d03fb9f7c8d35435369c5e057731c6401", "03f1cf988013a33e053d1e9bd54c4798c1a6dc362a5b2798b5344049fca40e2db0"], "sequence": 4294967295, "scriptSig": {"hex": "160014f6e1792e7852ebd5ae795c2a25d579acdfadec2d", "asm": "0014f6e1792e7852ebd5ae795c2a25d579acdfadec2d"}, "vout": 0, "txid": "905dc3580816d83b548278ae62c8d94c30e75477f88225ad1bd6431d39515c3e"}, {"txinwitness": ["3045022100e78a570c8d4cf4b3885622afb63f8b2608aa7c53e5ea16a7c89d8d8460740642022063a48475f684d531f72249fae9b6caaa1781a2ab9373d0345ef097e2c229bc2101", "03f1cf988013a33e053d1e9bd54c4798c1a6dc362a5b2798b5344049fca40e2db0"], "sequence": 4294967295, "scriptSig": {"hex": "160014f6e1792e7852ebd5ae795c2a25d579acdfadec2d", "asm": "0014f6e1792e7852ebd5ae795c2a25d579acdfadec2d"}, "vout": 2, "txid": "905dc3580816d83b548278ae62c8d94c30e75477f88225ad1bd6431d39515c3e"}], "txid": "b55ffcb37c3e926a85f4d646220630aefec92c3775489cd91e8a4bb142bc16aa", "blocktime": 1537876114, "version": 1, "confirmations": 11460, "time": 1537876114, "locktime": 0, "vsize": 288, "size": 451}