{"hash": "b560bdfe817d356bfe720ee624d93ef6deb7afb4b871436e9b05a49f49120555", "blockhash": "0000000000000000000baef3f32e3676a92c3b2e5da21b426e4f302fc371ce76", "vout": [{"scriptPubKey": {"type": "nulldata", "hex": "6a4c500000780f0001cadb011974be18250fff683e702940d64fa54d8eb2d19ed074892d00f8e818cb3efb7ddcc43ac3e4b5401afb02785baa1b6506143df9d84da2ddbc9a9526289ac0f6612cd74e33776ee4", "asm": "OP_RETURN 0000780f0001cadb011974be18250fff683e702940d64fa54d8eb2d19ed074892d00f8e818cb3efb7ddcc43ac3e4b5401afb02785baa1b6506143df9d84da2ddbc9a9526289ac0f6612cd74e33776ee4"}, "value": 0.0, "n": 0}, {"scriptPubKey": {"reqSigs": 1, "hex": "76a9147cc9d8f9734b17af65a06fb8645ab94ea7740ad888ac", "addresses": ["1CNpbQG99tJ6aq9vQTSYDpVbRJCjKg1Lxq"], "asm": "OP_DUP OP_HASH160 7cc9d8f9734b17af65a06fb8645ab94ea7740ad8 OP_EQUALVERIFY OP_CHECKSIG", "type": "pubkeyhash"}, "value": 0.000505, "n": 1}], "hex": "010000000168ebfea691dd27ae2430f291f001b28e416ca6c70a9185c220eb56347cb353bf000000006a47304402204d2556e2fe8d84231fd2efff396c6152e63972f03f106386f15e0304074b5e6502204106865666af7cf1b413aaaf0985c6ee505c45a74d6c4cb5bc7619d46d89f2cc012102304fcf749dc67e3ace543b00f0afa5ffca277fb53c3fa2c2dc2f793f24eb410dffffffff020000000000000000536a4c500000780f0001cadb011974be18250fff683e702940d64fa54d8eb2d19ed074892d00f8e818cb3efb7ddcc43ac3e4b5401afb02785baa1b6506143df9d84da2ddbc9a9526289ac0f6612cd74e33776ee444c50000000000001976a9147cc9d8f9734b17af65a06fb8645ab94ea7740ad888ac00000000", "vin": [{"sequence": 4294967295, "scriptSig": {"hex": "47304402204d2556e2fe8d84231fd2efff396c6152e63972f03f106386f15e0304074b5e6502204106865666af7cf1b413aaaf0985c6ee505c45a74d6c4cb5bc7619d46d89f2cc012102304fcf749dc67e3ace543b00f0afa5ffca277fb53c3fa2c2dc2f793f24eb410d", "asm": "304402204d2556e2fe8d84231fd2efff396c6152e63972f03f106386f15e0304074b5e6502204106865666af7cf1b413aaaf0985c6ee505c45a74d6c4cb5bc7619d46d89f2cc[ALL] 02304fcf749dc67e3ace543b00f0afa5ffca277fb53c3fa2c2dc2f793f24eb410d"}, "vout": 0, "txid": "bf53b37c3456eb20c285910ac7a66c418eb201f091f23024ae27dd91a6feeb68"}], "txid": "b560bdfe817d356bfe720ee624d93ef6deb7afb4b871436e9b05a49f49120555", "blocktime": 1537876114, "version": 1, "confirmations": 11460, "time": 1537876114, "locktime": 0, "vsize": 283, "size": 283}