{"hash": "b565d504128f98431bfa09d8e647c8b5459229c99cbc9248fa595a545fafd214", "blockhash": "0000000000000000001cda96e906b7601b7a6fb1a3b62bca570a9e5d8f4b3de1", "vout": [{"scriptPubKey": {"reqSigs": 1, "hex": "76a9145ffed296a62fc2707584a3a47d9703ab4ff0639288ac", "addresses": ["19kaTcLjTwXvuqVDfYtNqumscXDXNken8m"], "asm": "OP_DUP OP_HASH160 5ffed296a62fc2707584a3a47d9703ab4ff06392 OP_EQUALVERIFY OP_CHECKSIG", "type": "pubkeyhash"}, "value": 2.18099436, "n": 0}], "hex": "0100000001e1969028cbf3f1997a3502eac27608414637da6ec3b89eb309b3011e837e2797000000006a47304402207c456174987eeeea6625126c14a8b55843c4cc3ccb64930c648a5af2e05abe6802203ed7df18e859bc003b1be7d0b84560913adb0eb926bdfa7d74aab3939055574801210309346ad4ee539b05796fc0de23c5bd103359a051dca0db5dde21ee1463fb295afdffffff01eceeff0c000000001976a9145ffed296a62fc2707584a3a47d9703ab4ff0639288ac25990700", "vin": [{"sequence": 4294967293, "scriptSig": {"hex": "47304402207c456174987eeeea6625126c14a8b55843c4cc3ccb64930c648a5af2e05abe6802203ed7df18e859bc003b1be7d0b84560913adb0eb926bdfa7d74aab3939055574801210309346ad4ee539b05796fc0de23c5bd103359a051dca0db5dde21ee1463fb295a", "asm": "304402207c456174987eeeea6625126c14a8b55843c4cc3ccb64930c648a5af2e05abe6802203ed7df18e859bc003b1be7d0b84560913adb0eb926bdfa7d74aab39390555748[ALL] 0309346ad4ee539b05796fc0de23c5bd103359a051dca0db5dde21ee1463fb295a"}, "vout": 0, "txid": "97277e831e01b309b39eb8c36eda3746410876c2ea02357a99f1f3cb289096e1"}], "txid": "b565d504128f98431bfa09d8e647c8b5459229c99cbc9248fa595a545fafd214", "blocktime": 1537873282, "version": 1, "confirmations": 11484, "time": 1537873282, "locktime": 497957, "vsize": 191, "size": 191}