{"hash": "b5673535d66b62e68d8e1b12ad3e1bbfafb7e507ca513a10c2de7095904a17ce", "blockhash": "000000000000000000205f8b0775d31398ef75b89a5e8ec8d2c57b4dc0ac4c20", "vout": [{"scriptPubKey": {"reqSigs": 1, "hex": "76a914351442a97c91241d5376a01deb4e081d6420daa988ac", "addresses": ["15qf5tHR6a1XcwRd4oUQJUmqV11aoGh2M1"], "asm": "OP_DUP OP_HASH160 351442a97c91241d5376a01deb4e081d6420daa9 OP_EQUALVERIFY OP_CHECKSIG", "type": "pubkeyhash"}, "value": 0.00312269, "n": 0}, {"scriptPubKey": {"reqSigs": 1, "hex": "76a914730f95bbb144ddbb2b3a15d6b5cdb54201694bdb88ac", "addresses": ["1BVPNvFA3nWVoaecVh3tZ4p37hHDVeDsfX"], "asm": "OP_DUP OP_HASH160 730f95bbb144ddbb2b3a15d6b5cdb54201694bdb OP_EQUALVERIFY OP_CHECKSIG", "type": "pubkeyhash"}, "value": 0.0468668, "n": 1}], "hex": "0100000001013c66751748b216b4b899a8f4e4bb085a3da920e850996b5d1539e45ac986d0000000006b483045022100c7d8fe0a34d13d93747bca264e17e9d86e67f030a92d9ba475103e5d4ed37dc6022057d07f19bf89c93ed195f1ee826ab46cfd800174d347cd3d71a35bc483f77bd6012102da4e162d5279575c609d8d076174ef54052a9800b53d8184d6ba1bac640d14daffffffff02cdc30400000000001976a914351442a97c91241d5376a01deb4e081d6420daa988ac58834700000000001976a914730f95bbb144ddbb2b3a15d6b5cdb54201694bdb88ac00000000", "vin": [{"sequence": 4294967295, "scriptSig": {"hex": "483045022100c7d8fe0a34d13d93747bca264e17e9d86e67f030a92d9ba475103e5d4ed37dc6022057d07f19bf89c93ed195f1ee826ab46cfd800174d347cd3d71a35bc483f77bd6012102da4e162d5279575c609d8d076174ef54052a9800b53d8184d6ba1bac640d14da", "asm": "3045022100c7d8fe0a34d13d93747bca264e17e9d86e67f030a92d9ba475103e5d4ed37dc6022057d07f19bf89c93ed195f1ee826ab46cfd800174d347cd3d71a35bc483f77bd6[ALL] 02da4e162d5279575c609d8d076174ef54052a9800b53d8184d6ba1bac640d14da"}, "vout": 0, "txid": "d086c95ae439155d6b9950e820a93d5a08bbe4f4a899b8b416b2481775663c01"}], "txid": "b5673535d66b62e68d8e1b12ad3e1bbfafb7e507ca513a10c2de7095904a17ce", "blocktime": 1537871175, "version": 1, "confirmations": 11511, "time": 1537871175, "locktime": 0, "vsize": 226, "size": 226}