{"hash": "04ccdae05f6bdf12f0ad533b90990a708ee32a6ec35d8d34cf588bd7400e17a9", "blockhash": "00000000000000000018f53835495a110e01622372bf6ae95dc86f2b0ab887b0", "vout": [{"scriptPubKey": {"reqSigs": 1, "hex": "76a914052e8df65179b918f9e216828e4d0a956ae78b6988ac", "addresses": ["1UQ9dGTALte69u1Zj56PZ43msk36SM5dj"], "asm": "OP_DUP OP_HASH160 052e8df65179b918f9e216828e4d0a956ae78b69 OP_EQUALVERIFY OP_CHECKSIG", "type": "pubkeyhash"}, "value": 0.00399836, "n": 0}], "hex": "0100000000010400f8681c988a9c1581ba9ad2f4502f30543adaf7d893f0f0cc7df4c68894ce4000000000171600146510506bc9e578808e529bbf5b8f2c2e3b94337cfdffffffdd72463e027fa8587ab6a77fad7015ccff18bca6c2b738b47a7febc4dde2798c0100000017160014b787d76e5c81650eae09b169d5e366a1453736f3fdffffff53e86a98dc92facff20f577b6f2cb7e22d8da7be3b4d286fdbb8f4c815ed5add00000000171600140aae41ee50ff7df42f20c395248c517681fd153ffdffffffc56e5ee76e8522f0d58844a0d45ffb59d0dbcf18b5b21a5cc6b24a5d6b038df3080000001716001418dd472e826ce4461245e7c90e6fc5cf2d8fb1fefdffffff01dc190600000000001976a914052e8df65179b918f9e216828e4d0a956ae78b6988ac02483045022100e4bc5e4de9ec42afb976b9762bf56eaa4da677e80993e1f455833f22e43b4acb0220565c7880c847d5bb13d08da71898f53aa0fadb9a5b00fff6b0516ea68c41c67d01210395418fb1ee386d1c65e37210828e4af8406fb8151ecc61210a26bf63e55f70a402483045022100987960c9ceaca54dd1ed32698e84a033532b23f8994bc0ef55b022f7d53c4b2502201286d68701a2874cd2a4a6615f513c109815585073fa292ca67e87f4449fb11f01210387fd8ea2f6dccbfef3c1c94cbf59a8f6c29ff8b119af26d52b38c6594d1e669902483045022100ce8cab5183a4e1b68ca86a99aff95d0e5e4554375f983cd911f45f094fca329a02200c6f691ade1f800c982d265b956757411c12fe0042afaba91f26cdb70141c24c012103579b780127bbac1d7448c16065b298dace9e85ad0f4e27fa867d9cf1cf4638240247304402207745b6ac77ed0754f4b1977afb778d5ecf143f8706e0dbd08baf0413b4599044022043ebb7420aaa2b5f5e5a4ec15e6ffbd99bdebcbed2799e8c507bfaafb0e88fca012102a591638cf8d1abba57dbfe8e6e63c83d7cbc87454d2b1798bc5f7fb64775a6d40d490800", "vin": [{"txinwitness": ["3045022100e4bc5e4de9ec42afb976b9762bf56eaa4da677e80993e1f455833f22e43b4acb0220565c7880c847d5bb13d08da71898f53aa0fadb9a5b00fff6b0516ea68c41c67d01", "0395418fb1ee386d1c65e37210828e4af8406fb8151ecc61210a26bf63e55f70a4"], "sequence": 4294967293, "scriptSig": {"hex": "1600146510506bc9e578808e529bbf5b8f2c2e3b94337c", "asm": "00146510506bc9e578808e529bbf5b8f2c2e3b94337c"}, "vout": 0, "txid": "40ce9488c6f47dccf0f093d8f7da3a54302f50f4d29aba81159c8a981c68f800"}, {"txinwitness": ["3045022100987960c9ceaca54dd1ed32698e84a033532b23f8994bc0ef55b022f7d53c4b2502201286d68701a2874cd2a4a6615f513c109815585073fa292ca67e87f4449fb11f01", "0387fd8ea2f6dccbfef3c1c94cbf59a8f6c29ff8b119af26d52b38c6594d1e6699"], "sequence": 4294967293, "scriptSig": {"hex": "160014b787d76e5c81650eae09b169d5e366a1453736f3", "asm": "0014b787d76e5c81650eae09b169d5e366a1453736f3"}, "vout": 1, "txid": "8c79e2ddc4eb7f7ab438b7c2a6bc18ffcc1570ad7fa7b67a58a87f023e4672dd"}, {"txinwitness": ["3045022100ce8cab5183a4e1b68ca86a99aff95d0e5e4554375f983cd911f45f094fca329a02200c6f691ade1f800c982d265b956757411c12fe0042afaba91f26cdb70141c24c01", "03579b780127bbac1d7448c16065b298dace9e85ad0f4e27fa867d9cf1cf463824"], "sequence": 4294967293, "scriptSig": {"hex": "1600140aae41ee50ff7df42f20c395248c517681fd153f", "asm": "00140aae41ee50ff7df42f20c395248c517681fd153f"}, "vout": 0, "txid": "dd5aed15c8f4b8db6f284d3bbea78d2de2b72c6f7b570ff2cffa92dc986ae853"}, {"txinwitness": ["304402207745b6ac77ed0754f4b1977afb778d5ecf143f8706e0dbd08baf0413b4599044022043ebb7420aaa2b5f5e5a4ec15e6ffbd99bdebcbed2799e8c507bfaafb0e88fca01", "02a591638cf8d1abba57dbfe8e6e63c83d7cbc87454d2b1798bc5f7fb64775a6d4"], "sequence": 4294967293, "scriptSig": {"hex": "16001418dd472e826ce4461245e7c90e6fc5cf2d8fb1fe", "asm": "001418dd472e826ce4461245e7c90e6fc5cf2d8fb1fe"}, "vout": 8, "txid": "f38d036b5d4ab2c65c1ab2b518cfdbd059fb5fd4a04488d5f022856ee75e6ec5"}], "txid": "b56d2df302f9710fc8d7621b177f9983ff10c9592fabfb7c37bbea457ae63658", "blocktime": 1537870928, "version": 1, "confirmations": 11514, "time": 1537870928, "locktime": 542989, "vsize": 409, "size": 733}