{"hash": "b56dd68ca3d6204aa07bdf8132a9b8d2796fc8d0b62516383c7c4f5d36a02596", "blockhash": "0000000000000000001f76057863aec43deb6fa401d9628bb513d65a8098bfab", "vout": [{"scriptPubKey": {"reqSigs": 1, "hex": "76a914e74f1080303d5d68594fbc660ae955db60cb76f588ac", "addresses": ["1N63ooqZDGx1HW6VCgQBc3UnAU94QkFWcG"], "asm": "OP_DUP OP_HASH160 e74f1080303d5d68594fbc660ae955db60cb76f5 OP_EQUALVERIFY OP_CHECKSIG", "type": "pubkeyhash"}, "value": 0.04162898, "n": 0}, {"scriptPubKey": {"reqSigs": 1, "hex": "76a914f7c7be3e7fdfbee922da3ff4999ecc464022fca788ac", "addresses": ["1Pb9BnB7DJ4dzbBxRZG2Kq3CJxB2Z2AyU6"], "asm": "OP_DUP OP_HASH160 f7c7be3e7fdfbee922da3ff4999ecc464022fca7 OP_EQUALVERIFY OP_CHECKSIG", "type": "pubkeyhash"}, "value": 0.01562227, "n": 1}], "hex": "010000000291d75161983cabc0ec83c37c4712398bb3e691d9c39a5373c35164ff526ee05e010000006b483045022100d31b7939fe78015de2a47313b86354034ea9d2f4463966923a0d2762fde558090220381de913209438644c5188cdd7a835c27c2854eea397faae61632c12e18b59730121029823a482243a67a1f91c8fd82f9696dc7db4b5bb690ac604b5ce33f221444795ffffffff9ee84721699abb18aa3337f12f7882c5dc5fc59f661ba5614d13360a64e1d5e6000000006b483045022100b0d995a3b998fc4a5e5e0c6933303531691d32233f9e585eb46c0010227bdaa302207200fbd787577e9c11b394d63ea78e329e67477636b7b5a598ff0943aaa1463e012102429457b8c73773ac7da9936abb2c526cda29571c288404d5a97b4a11415b21deffffffff0252853f00000000001976a914e74f1080303d5d68594fbc660ae955db60cb76f588ac73d61700000000001976a914f7c7be3e7fdfbee922da3ff4999ecc464022fca788ac00000000", "vin": [{"sequence": 4294967295, "scriptSig": {"hex": "483045022100d31b7939fe78015de2a47313b86354034ea9d2f4463966923a0d2762fde558090220381de913209438644c5188cdd7a835c27c2854eea397faae61632c12e18b59730121029823a482243a67a1f91c8fd82f9696dc7db4b5bb690ac604b5ce33f221444795", "asm": "3045022100d31b7939fe78015de2a47313b86354034ea9d2f4463966923a0d2762fde558090220381de913209438644c5188cdd7a835c27c2854eea397faae61632c12e18b5973[ALL] 029823a482243a67a1f91c8fd82f9696dc7db4b5bb690ac604b5ce33f221444795"}, "vout": 1, "txid": "5ee06e52ff6451c373539ac3d991e6b38b3912477cc383ecc0ab3c986151d791"}, {"sequence": 4294967295, "scriptSig": {"hex": "483045022100b0d995a3b998fc4a5e5e0c6933303531691d32233f9e585eb46c0010227bdaa302207200fbd787577e9c11b394d63ea78e329e67477636b7b5a598ff0943aaa1463e012102429457b8c73773ac7da9936abb2c526cda29571c288404d5a97b4a11415b21de", "asm": "3045022100b0d995a3b998fc4a5e5e0c6933303531691d32233f9e585eb46c0010227bdaa302207200fbd787577e9c11b394d63ea78e329e67477636b7b5a598ff0943aaa1463e[ALL] 02429457b8c73773ac7da9936abb2c526cda29571c288404d5a97b4a11415b21de"}, "vout": 0, "txid": "e6d5e1640a36134d61a51b669fc55fdcc582782ff13733aa18bb9a692147e89e"}], "txid": "b56dd68ca3d6204aa07bdf8132a9b8d2796fc8d0b62516383c7c4f5d36a02596", "blocktime": 1537873891, "version": 1, "confirmations": 11475, "time": 1537873891, "locktime": 0, "vsize": 374, "size": 374}