{"hash": "b575710e0e03596473ada4bdb6463642bc719278be54718b335c9d8acd490af7", "blockhash": "0000000000000000000baef3f32e3676a92c3b2e5da21b426e4f302fc371ce76", "vout": [{"scriptPubKey": {"type": "nulldata", "hex": "6a4c500000780c0001af18bbb6b60d906915dcded9702940d64fa54d8eb2d19ed074892d00f8e87cf19688baef4b8ec9b59be24ceed4295baa1b1d061410c316130dfc1d100759d4ba30d2c37bb011d97e02cf", "asm": "OP_RETURN 0000780c0001af18bbb6b60d906915dcded9702940d64fa54d8eb2d19ed074892d00f8e87cf19688baef4b8ec9b59be24ceed4295baa1b1d061410c316130dfc1d100759d4ba30d2c37bb011d97e02cf"}, "value": 0.0, "n": 0}, {"scriptPubKey": {"reqSigs": 1, "hex": "76a914a85637716a38c5e1d51e9072627f3bf35462169b88ac", "addresses": ["1GM5ofHd9KqhNdWX6SxWerdepr1uYugu6R"], "asm": "OP_DUP OP_HASH160 a85637716a38c5e1d51e9072627f3bf35462169b OP_EQUALVERIFY OP_CHECKSIG", "type": "pubkeyhash"}, "value": 0.0063152, "n": 1}], "hex": "0100000001f7ebbc534ae04191935399cd9174b0a0ae4019acf73e8178603a9d8eac1d764c000000006b483045022100cc4a554adbc09884312160beabf52864af8d1021b2dadddf5f09a71653f16f1b0220751012d9d22a398e476caf4ce3d11095d3faf2ab6a5ec1a28275cce301b5549d01210287c82cb881d5586755df5c1dc6e60730d79a297f4e181f52efdeaaa67b14fe5dffffffff020000000000000000536a4c500000780c0001af18bbb6b60d906915dcded9702940d64fa54d8eb2d19ed074892d00f8e87cf19688baef4b8ec9b59be24ceed4295baa1b1d061410c316130dfc1d100759d4ba30d2c37bb011d97e02cfe0a20900000000001976a914a85637716a38c5e1d51e9072627f3bf35462169b88ac00000000", "vin": [{"sequence": 4294967295, "scriptSig": {"hex": "483045022100cc4a554adbc09884312160beabf52864af8d1021b2dadddf5f09a71653f16f1b0220751012d9d22a398e476caf4ce3d11095d3faf2ab6a5ec1a28275cce301b5549d01210287c82cb881d5586755df5c1dc6e60730d79a297f4e181f52efdeaaa67b14fe5d", "asm": "3045022100cc4a554adbc09884312160beabf52864af8d1021b2dadddf5f09a71653f16f1b0220751012d9d22a398e476caf4ce3d11095d3faf2ab6a5ec1a28275cce301b5549d[ALL] 0287c82cb881d5586755df5c1dc6e60730d79a297f4e181f52efdeaaa67b14fe5d"}, "vout": 0, "txid": "4c761dac8e9d3a6078813ef7ac1940aea0b07491cd9953939141e04a53bcebf7"}], "txid": "b575710e0e03596473ada4bdb6463642bc719278be54718b335c9d8acd490af7", "blocktime": 1537876114, "version": 1, "confirmations": 11463, "time": 1537876114, "locktime": 0, "vsize": 284, "size": 284}