{"hash": "b57910852e3c7006c312a71e34eec6e8e7b52c920c8371ea0f42b3053d3bc872", "blockhash": "00000000000000000024a2167bbff67b0be802c0b01cdd79e6331c2be6459f87", "vout": [{"scriptPubKey": {"reqSigs": 1, "hex": "a914a6e419271aaf4a133f8923230c080e5be176858187", "addresses": ["3GuTLw1hvoZbpttU6rBWuSVM1aVDNoLedS"], "asm": "OP_HASH160 a6e419271aaf4a133f8923230c080e5be1768581 OP_EQUAL", "type": "scripthash"}, "value": 0.01541616, "n": 0}, {"scriptPubKey": {"reqSigs": 1, "hex": "76a91483557d12f0f8549d66a62ba30a02d444d66a364588ac", "addresses": ["1CyRvypyqBa96ocnPW1JTMnAeYtuVnZCzf"], "asm": "OP_DUP OP_HASH160 83557d12f0f8549d66a62ba30a02d444d66a3645 OP_EQUALVERIFY OP_CHECKSIG", "type": "pubkeyhash"}, "value": 108.521794, "n": 1}], "hex": "01000000019bcc24fa15078f5dcc386ea3e79195ce3e2deb7c4e71304d3176997d207df141000000006a47304402206d2b440a5dd2ccb5c9bc4ec70e47a0405ae3f7f52461324c19c81b5bce2c1172022033815032fba3ccd1b1e2041f7303c5cbf77fe7ce2da893d78f5a9d98f02911a60121038f659da5275653a4c54b501dbb429da9e7ab602d9995cae82fcb022d737fe7cfffffffff02f08517000000000017a914a6e419271aaf4a133f8923230c080e5be176858187c81dd786020000001976a91483557d12f0f8549d66a62ba30a02d444d66a364588ac00000000", "vin": [{"sequence": 4294967295, "scriptSig": {"hex": "47304402206d2b440a5dd2ccb5c9bc4ec70e47a0405ae3f7f52461324c19c81b5bce2c1172022033815032fba3ccd1b1e2041f7303c5cbf77fe7ce2da893d78f5a9d98f02911a60121038f659da5275653a4c54b501dbb429da9e7ab602d9995cae82fcb022d737fe7cf", "asm": "304402206d2b440a5dd2ccb5c9bc4ec70e47a0405ae3f7f52461324c19c81b5bce2c1172022033815032fba3ccd1b1e2041f7303c5cbf77fe7ce2da893d78f5a9d98f02911a6[ALL] 038f659da5275653a4c54b501dbb429da9e7ab602d9995cae82fcb022d737fe7cf"}, "vout": 0, "txid": "41f17d207d9976314d30714e7ceb2d3ece9591e7a36e38cc5d8f0715fa24cc9b"}], "txid": "b57910852e3c7006c312a71e34eec6e8e7b52c920c8371ea0f42b3053d3bc872", "blocktime": 1537870564, "version": 1, "confirmations": 11515, "time": 1537870564, "locktime": 0, "vsize": 223, "size": 223}