{"hash": "b57a478a81f3202c3fad04171a59edda0afdadd030245ddf1c7a8290e95f6fc9", "blockhash": "0000000000000000001f76057863aec43deb6fa401d9628bb513d65a8098bfab", "vout": [{"scriptPubKey": {"reqSigs": 1, "hex": "a914d1371b825ba8bfc5c9c7a22d5b037ceb0d92c46687", "addresses": ["3LmFAZzRDdhu6j4t2DcRn2cWZDT9wsbWhD"], "asm": "OP_HASH160 d1371b825ba8bfc5c9c7a22d5b037ceb0d92c466 OP_EQUAL", "type": "scripthash"}, "value": 0.0001, "n": 0}, {"scriptPubKey": {"reqSigs": 1, "hex": "76a91460923db0572f10ff150e8dfca2462efaabcb2e5388ac", "addresses": ["19od4RAQTMtdDaBwG1csn2cfLJ5qwbQEv2"], "asm": "OP_DUP OP_HASH160 60923db0572f10ff150e8dfca2462efaabcb2e53 OP_EQUALVERIFY OP_CHECKSIG", "type": "pubkeyhash"}, "value": 0.29391707, "n": 1}], "hex": "0100000001cb58b4af0e4dd6fb0aac06ee7faf5bef265b98bda055258deb8fb1f7416ff8aa010000006b483045022100d46b48d0c6742f539690d90de46bece30537907b1fd0bd0db52cb8fd21f2c4cd02207fc536403317826b9832a78ab6cbbee7f5710c185dc0100996c6b4f9540737c701210247d31f9bec0d537418034149f1167f065ff4c96c21ae4eac88dabf44f1cd7917ffffffff02102700000000000017a914d1371b825ba8bfc5c9c7a22d5b037ceb0d92c466875b7bc001000000001976a91460923db0572f10ff150e8dfca2462efaabcb2e5388ac00000000", "vin": [{"sequence": 4294967295, "scriptSig": {"hex": "483045022100d46b48d0c6742f539690d90de46bece30537907b1fd0bd0db52cb8fd21f2c4cd02207fc536403317826b9832a78ab6cbbee7f5710c185dc0100996c6b4f9540737c701210247d31f9bec0d537418034149f1167f065ff4c96c21ae4eac88dabf44f1cd7917", "asm": "3045022100d46b48d0c6742f539690d90de46bece30537907b1fd0bd0db52cb8fd21f2c4cd02207fc536403317826b9832a78ab6cbbee7f5710c185dc0100996c6b4f9540737c7[ALL] 0247d31f9bec0d537418034149f1167f065ff4c96c21ae4eac88dabf44f1cd7917"}, "vout": 1, "txid": "aaf86f41f7b18feb8d2555a0bd985b26ef5baf7fee06ac0afbd64d0eafb458cb"}], "txid": "b57a478a81f3202c3fad04171a59edda0afdadd030245ddf1c7a8290e95f6fc9", "blocktime": 1537873891, "version": 1, "confirmations": 11478, "time": 1537873891, "locktime": 0, "vsize": 224, "size": 224}