{"hash": "b57ccefea45bf1d5c02c37c4cc08eda867a6e1bf249189cf4f568f9d9b00588b", "blockhash": "0000000000000000001f76057863aec43deb6fa401d9628bb513d65a8098bfab", "vout": [{"scriptPubKey": {"reqSigs": 1, "hex": "76a9142c9621fb77551ab791bda6f19815d85e7e72bb3f88ac", "addresses": ["154kar6MXCAMEJWjAqjwd7yRmUioPj3PTc"], "asm": "OP_DUP OP_HASH160 2c9621fb77551ab791bda6f19815d85e7e72bb3f OP_EQUALVERIFY OP_CHECKSIG", "type": "pubkeyhash"}, "value": 0.01559956, "n": 0}, {"scriptPubKey": {"reqSigs": 1, "hex": "76a914d280a0ecb4db9d637d68f0ed0fac7e692eca07a588ac", "addresses": ["1LC2zZJpR9RmYqw3qrJd6uBfrtp3PatvCF"], "asm": "OP_DUP OP_HASH160 d280a0ecb4db9d637d68f0ed0fac7e692eca07a5 OP_EQUALVERIFY OP_CHECKSIG", "type": "pubkeyhash"}, "value": 0.10360488, "n": 1}], "hex": "010000000100bbff3a5690390b8f31bb8c9299ff248db962c576ba4b8e3d8e05cc98883327000000006b483045022100e25fadf668beb86c1f9ef33c055d7a7c304bc30a3196686b0da0a1e73e40fd69022047af23a07bf4579925b5693f82f27ea2a48e78ad0d3caa68315e5bc0c82cc9d901210237e0e1d334755f3b2d09fcd4f9d2f037e62181f4737122ad6f56f27ad9b465dbffffffff0294cd1700000000001976a9142c9621fb77551ab791bda6f19815d85e7e72bb3f88aca8169e00000000001976a914d280a0ecb4db9d637d68f0ed0fac7e692eca07a588ac00000000", "vin": [{"sequence": 4294967295, "scriptSig": {"hex": "483045022100e25fadf668beb86c1f9ef33c055d7a7c304bc30a3196686b0da0a1e73e40fd69022047af23a07bf4579925b5693f82f27ea2a48e78ad0d3caa68315e5bc0c82cc9d901210237e0e1d334755f3b2d09fcd4f9d2f037e62181f4737122ad6f56f27ad9b465db", "asm": "3045022100e25fadf668beb86c1f9ef33c055d7a7c304bc30a3196686b0da0a1e73e40fd69022047af23a07bf4579925b5693f82f27ea2a48e78ad0d3caa68315e5bc0c82cc9d9[ALL] 0237e0e1d334755f3b2d09fcd4f9d2f037e62181f4737122ad6f56f27ad9b465db"}, "vout": 0, "txid": "27338898cc058e3d8e4bba76c562b98d24ff99928cbb318f0b3990563affbb00"}], "txid": "b57ccefea45bf1d5c02c37c4cc08eda867a6e1bf249189cf4f568f9d9b00588b", "blocktime": 1537873891, "version": 1, "confirmations": 11474, "time": 1537873891, "locktime": 0, "vsize": 226, "size": 226}