{"hash": "b585b48bb9a9f51c78091dc9f0439ffdbeb505941f9019cffac6ec1fd616f6c0", "blockhash": "0000000000000000000e13cef7c366c0283d82e591d1acd082e914b08063cdf1", "vout": [{"scriptPubKey": {"reqSigs": 1, "hex": "76a914d8c3180c0741828251618f462702a033a5bfc9b988ac", "addresses": ["1Lm8foNZr15PRmztmEuXwERPFH7C9VLFmX"], "asm": "OP_DUP OP_HASH160 d8c3180c0741828251618f462702a033a5bfc9b9 OP_EQUALVERIFY OP_CHECKSIG", "type": "pubkeyhash"}, "value": 0.05002568, "n": 0}, {"scriptPubKey": {"reqSigs": 1, "hex": "76a914594f4af959f800d198b90e1a60e797b7d8e9f0d388ac", "addresses": ["199E8SQ96co8REJsoaBtZYZzunTPeK5yGr"], "asm": "OP_DUP OP_HASH160 594f4af959f800d198b90e1a60e797b7d8e9f0d3 OP_EQUALVERIFY OP_CHECKSIG", "type": "pubkeyhash"}, "value": 0.41221007, "n": 1}], "hex": "0100000001f34d11834b370f48ef28fa9965c8997f54c8e1c74d99b67c87c97149b528d172010000006b4830450221008805aa85d1f4336019023f00fe3a2aee208bc1120485e88e5f9a5ab8b77056e902207cce238791e0d1dee3fb438cc044106efe90109ba36d48dfa7cc7ae5728368c70121021eec83ceadcec47dc37f2868026b28fbc26eac9d7c33d7d6de5f558aee1e80aaffffffff0248554c00000000001976a914d8c3180c0741828251618f462702a033a5bfc9b988ac8ffb7402000000001976a914594f4af959f800d198b90e1a60e797b7d8e9f0d388ac00000000", "vin": [{"sequence": 4294967295, "scriptSig": {"hex": "4830450221008805aa85d1f4336019023f00fe3a2aee208bc1120485e88e5f9a5ab8b77056e902207cce238791e0d1dee3fb438cc044106efe90109ba36d48dfa7cc7ae5728368c70121021eec83ceadcec47dc37f2868026b28fbc26eac9d7c33d7d6de5f558aee1e80aa", "asm": "30450221008805aa85d1f4336019023f00fe3a2aee208bc1120485e88e5f9a5ab8b77056e902207cce238791e0d1dee3fb438cc044106efe90109ba36d48dfa7cc7ae5728368c7[ALL] 021eec83ceadcec47dc37f2868026b28fbc26eac9d7c33d7d6de5f558aee1e80aa"}, "vout": 1, "txid": "72d128b54971c9877cb6994dc7e1c8547f99c86599fa28ef480f374b83114df3"}], "txid": "b585b48bb9a9f51c78091dc9f0439ffdbeb505941f9019cffac6ec1fd616f6c0", "blocktime": 1537871767, "version": 1, "confirmations": 11493, "time": 1537871767, "locktime": 0, "vsize": 226, "size": 226}