{"hash": "b590d32bce28ee53a9a8869f945ee92f32a6fbbfd6e7c24655def3fa8033ea61", "blockhash": "0000000000000000000e13cef7c366c0283d82e591d1acd082e914b08063cdf1", "vout": [{"scriptPubKey": {"reqSigs": 1, "hex": "76a914baad8543ffd7b1c765467ee7aac6e84529515c6588ac", "addresses": ["1J24Z6raRTjprnNgLyATjsQYNxsugJaner"], "asm": "OP_DUP OP_HASH160 baad8543ffd7b1c765467ee7aac6e84529515c65 OP_EQUALVERIFY OP_CHECKSIG", "type": "pubkeyhash"}, "value": 0.11360005, "n": 0}, {"scriptPubKey": {"reqSigs": 1, "hex": "76a9143aa58a56b0ca457df4e2105d26045355c407acaf88ac", "addresses": ["16M6W5HBpVXbY11stCkJT5NhNRjyqpqNuk"], "asm": "OP_DUP OP_HASH160 3aa58a56b0ca457df4e2105d26045355c407acaf OP_EQUALVERIFY OP_CHECKSIG", "type": "pubkeyhash"}, "value": 0.01844312, "n": 1}], "hex": "01000000011b83e2b8b1025cfc4f271902c3956931c75271ec70e518e9fe107ea7a7ced112010000006a47304402200e19530f6352e43aa094cee1f9225e6a8f0176b62f7a46877044ebd772b12c95022003e43218ec1a0ea8be20455e434d42233df001b06a1f95d6b6a1461d9cf255e5012102e8404f4501aeb17d726aedfe1c9c8ef52f801a8f3262c8cec39a0bd6b62600f2ffffffff020557ad00000000001976a914baad8543ffd7b1c765467ee7aac6e84529515c6588ac58241c00000000001976a9143aa58a56b0ca457df4e2105d26045355c407acaf88ac00000000", "vin": [{"sequence": 4294967295, "scriptSig": {"hex": "47304402200e19530f6352e43aa094cee1f9225e6a8f0176b62f7a46877044ebd772b12c95022003e43218ec1a0ea8be20455e434d42233df001b06a1f95d6b6a1461d9cf255e5012102e8404f4501aeb17d726aedfe1c9c8ef52f801a8f3262c8cec39a0bd6b62600f2", "asm": "304402200e19530f6352e43aa094cee1f9225e6a8f0176b62f7a46877044ebd772b12c95022003e43218ec1a0ea8be20455e434d42233df001b06a1f95d6b6a1461d9cf255e5[ALL] 02e8404f4501aeb17d726aedfe1c9c8ef52f801a8f3262c8cec39a0bd6b62600f2"}, "vout": 1, "txid": "12d1cea7a77e10fee918e570ec7152c7316995c30219274ffc5c02b1b8e2831b"}], "txid": "b590d32bce28ee53a9a8869f945ee92f32a6fbbfd6e7c24655def3fa8033ea61", "blocktime": 1537871767, "version": 1, "confirmations": 11490, "time": 1537871767, "locktime": 0, "vsize": 225, "size": 225}