{"hash": "3529281e87b7b9199915bb8e24401e507b19992439c35e00d4c1f878bc061730", "blockhash": "0000000000000000001f76057863aec43deb6fa401d9628bb513d65a8098bfab", "vout": [{"scriptPubKey": {"reqSigs": 1, "hex": "76a9140a3195c50a139c1268b517078c4818eb7c3cee7288ac", "addresses": ["1vuA9XxA95fff3zonS6wemPTWBvQ16vN9"], "asm": "OP_DUP OP_HASH160 0a3195c50a139c1268b517078c4818eb7c3cee72 OP_EQUALVERIFY OP_CHECKSIG", "type": "pubkeyhash"}, "value": 0.0029503, "n": 0}, {"scriptPubKey": {"reqSigs": 1, "hex": "a914b5109f5e3fc4261ac09159aeafbc58916cac9dae87", "addresses": ["3JCQ9DeNWTsqUViJXcDyd9krTb5atuXDqt"], "asm": "OP_HASH160 b5109f5e3fc4261ac09159aeafbc58916cac9dae OP_EQUAL", "type": "scripthash"}, "value": 0.01031894, "n": 1}], "hex": "0200000000010240f9e1c1c7ba3f8208bc4c2a914a1fcbfc360b5929bf5d08c3bb6e99dec3a38107000000171600145b6dbd86634f6e979e5aaa9b225edd24b4a28407feffffffd57a800bccefd10f39e8ebf95b250dfe6a7849297402ec2844c5391ae0b706c709000000171600140ef51fa0b4a2a8e05068ff9f360da7fe36bc6b5afeffffff0276800400000000001976a9140a3195c50a139c1268b517078c4818eb7c3cee7288acd6be0f000000000017a914b5109f5e3fc4261ac09159aeafbc58916cac9dae87024730440220728df0442f6ad3e8d1774a7645919c492628574fd9373e8c17c110f80b1c0ef702202d7ba3e927fce63850d6a037aeacd749925344b8c1944bfdcbaa4792038cd8c901210264e8f92c2b7643c965365e4195b2675dbb8db0211e4edf86b19287d2da1c6c6402483045022100f88099e0675d416f9fe7a3fc2044a844e6f5592ba3d205b0df5ca161f7b23f2002205462077f5d749668b63fbc050afc49c131c6a21d19e19c218ac15cc495a18503012102d023bd4614d27bad34374cdbbebbf11b8205fa93628e7ff76d3152555fbe523514490800", "vin": [{"txinwitness": ["30440220728df0442f6ad3e8d1774a7645919c492628574fd9373e8c17c110f80b1c0ef702202d7ba3e927fce63850d6a037aeacd749925344b8c1944bfdcbaa4792038cd8c901", "0264e8f92c2b7643c965365e4195b2675dbb8db0211e4edf86b19287d2da1c6c64"], "sequence": 4294967294, "scriptSig": {"hex": "1600145b6dbd86634f6e979e5aaa9b225edd24b4a28407", "asm": "00145b6dbd86634f6e979e5aaa9b225edd24b4a28407"}, "vout": 7, "txid": "81a3c3de996ebbc3085dbf29590b36fccb1f4a912a4cbc08823fbac7c1e1f940"}, {"txinwitness": ["3045022100f88099e0675d416f9fe7a3fc2044a844e6f5592ba3d205b0df5ca161f7b23f2002205462077f5d749668b63fbc050afc49c131c6a21d19e19c218ac15cc495a1850301", "02d023bd4614d27bad34374cdbbebbf11b8205fa93628e7ff76d3152555fbe5235"], "sequence": 4294967294, "scriptSig": {"hex": "1600140ef51fa0b4a2a8e05068ff9f360da7fe36bc6b5a", "asm": "00140ef51fa0b4a2a8e05068ff9f360da7fe36bc6b5a"}, "vout": 9, "txid": "c706b7e01a39c54428ec02742949786afe0d255bf9ebe8390fd1efcc0b807ad5"}], "txid": "b590406aa99240aae7e500540b51db0eb5bdec216cacc1f9fd39a1857aa88f84", "blocktime": 1537873891, "version": 2, "confirmations": 11478, "time": 1537873891, "locktime": 542996, "vsize": 259, "size": 421}