{"hash": "b594676059baecbc6f8b058423a28b09aecf55f1eccf60b65ac5b7b4bc214bd7", "blockhash": "0000000000000000001cda96e906b7601b7a6fb1a3b62bca570a9e5d8f4b3de1", "vout": [{"scriptPubKey": {"reqSigs": 1, "hex": "a914f12afbb828985ddbf5a9533790e351d4a7661d6887", "addresses": ["3PgCGJfo6X6htH3qanR1BcTvexw8m5LDWr"], "asm": "OP_HASH160 f12afbb828985ddbf5a9533790e351d4a7661d68 OP_EQUAL", "type": "scripthash"}, "value": 0.0036, "n": 0}, {"scriptPubKey": {"reqSigs": 1, "hex": "76a914747ba7678f299cfac586309607e7506d90c47aaa88ac", "addresses": ["1BcuWsuCQj1XirSmpBN1FQy1j3WTaUX7hU"], "asm": "OP_DUP OP_HASH160 747ba7678f299cfac586309607e7506d90c47aaa OP_EQUALVERIFY OP_CHECKSIG", "type": "pubkeyhash"}, "value": 0.00738132, "n": 1}], "hex": "01000000019f652083bb5e525f463e414eb702be84337850c033c2a4d785e82ab753b8ac14000000006a47304402202321dfd83cb09d079ff80fa5c0a986a6a18aca0e7162c6a4052f307dbb0ade28022027323ce0e89c1a89359333be1cea03e6665587e66ddbdd7d2f3d8efb9aff2f7e01210317c0270fa71c7a561ca053aa55b94dd5c00ffd4ffc5156cb7ddce8c81a7a5b11ffffffff02407e05000000000017a914f12afbb828985ddbf5a9533790e351d4a7661d688754430b00000000001976a914747ba7678f299cfac586309607e7506d90c47aaa88ac00000000", "vin": [{"sequence": 4294967295, "scriptSig": {"hex": "47304402202321dfd83cb09d079ff80fa5c0a986a6a18aca0e7162c6a4052f307dbb0ade28022027323ce0e89c1a89359333be1cea03e6665587e66ddbdd7d2f3d8efb9aff2f7e01210317c0270fa71c7a561ca053aa55b94dd5c00ffd4ffc5156cb7ddce8c81a7a5b11", "asm": "304402202321dfd83cb09d079ff80fa5c0a986a6a18aca0e7162c6a4052f307dbb0ade28022027323ce0e89c1a89359333be1cea03e6665587e66ddbdd7d2f3d8efb9aff2f7e[ALL] 0317c0270fa71c7a561ca053aa55b94dd5c00ffd4ffc5156cb7ddce8c81a7a5b11"}, "vout": 0, "txid": "14acb853b72ae885d7a4c233c050783384be02b74e413e465f525ebb8320659f"}], "txid": "b594676059baecbc6f8b058423a28b09aecf55f1eccf60b65ac5b7b4bc214bd7", "blocktime": 1537873282, "version": 1, "confirmations": 11482, "time": 1537873282, "locktime": 0, "vsize": 223, "size": 223}