{"hash": "bdd9118bfa05c8cbf32df96d5bd3b23dec5916fe3111444cf562139a490fc6e9", "blockhash": "0000000000000000000e13cef7c366c0283d82e591d1acd082e914b08063cdf1", "vout": [{"scriptPubKey": {"reqSigs": 1, "hex": "76a9145f93530797c10438c666e5965651679cc216a8dc88ac", "addresses": ["19iMgVteggasMA3RTCAWDHQVWprDmSVFTP"], "asm": "OP_DUP OP_HASH160 5f93530797c10438c666e5965651679cc216a8dc OP_EQUALVERIFY OP_CHECKSIG", "type": "pubkeyhash"}, "value": 0.0024686, "n": 0}, {"scriptPubKey": {"reqSigs": 1, "hex": "a914253dbc1694036f9b396ab496c681367bd3a1b9be87", "addresses": ["355vt3ZbfUNY4KYSxsSP9bGkpiUzfTkyoo"], "asm": "OP_HASH160 253dbc1694036f9b396ab496c681367bd3a1b9be OP_EQUAL", "type": "scripthash"}, "value": 0.01023619, "n": 1}], "hex": "020000000001022ebf52954502753b3a736b7390ca6d1bfd8589fb13d1335674ec8b4da461b88f0100000017160014a507713c925150c7cd6cb6c9e4859142fd0edd70feffffffbf34756785a2065b9e0699a6d8e5f414d86e0ca5aaa726de9ad19818c62581e81100000017160014ff2fe54fd643658eddec5063024e6f5ee4270979feffffff024cc40300000000001976a9145f93530797c10438c666e5965651679cc216a8dc88ac839e0f000000000017a914253dbc1694036f9b396ab496c681367bd3a1b9be870247304402206b557c58bbceb6bf6a575603ade2af2968d72f6c5927228ea11f677101f2bca002204b2cadd8e52e165a6469bf1435d26fbf0a41efcd8aa95da1e2ffb01554e56e1b0121031b3b780a00cb5df31d5964875ab7ffdc52a9a34724ee7b93542d4c2b3f26aa900247304402206dc298f179280007b97f305e9e81e3c6f823cec68313dd18e03e56d9c848b948022042e40dd8ba71c55d4e08be973fb288ed250c606df3f5e17c114b69c7fa0666e501210289d5e349634dad255923d146b8abe9f93182e782660955dd359befac896772d110490800", "vin": [{"txinwitness": ["304402206b557c58bbceb6bf6a575603ade2af2968d72f6c5927228ea11f677101f2bca002204b2cadd8e52e165a6469bf1435d26fbf0a41efcd8aa95da1e2ffb01554e56e1b01", "031b3b780a00cb5df31d5964875ab7ffdc52a9a34724ee7b93542d4c2b3f26aa90"], "sequence": 4294967294, "scriptSig": {"hex": "160014a507713c925150c7cd6cb6c9e4859142fd0edd70", "asm": "0014a507713c925150c7cd6cb6c9e4859142fd0edd70"}, "vout": 1, "txid": "8fb861a44d8bec745633d113fb8985fd1b6dca90736b733a3b7502459552bf2e"}, {"txinwitness": ["304402206dc298f179280007b97f305e9e81e3c6f823cec68313dd18e03e56d9c848b948022042e40dd8ba71c55d4e08be973fb288ed250c606df3f5e17c114b69c7fa0666e501", "0289d5e349634dad255923d146b8abe9f93182e782660955dd359befac896772d1"], "sequence": 4294967294, "scriptSig": {"hex": "160014ff2fe54fd643658eddec5063024e6f5ee4270979", "asm": "0014ff2fe54fd643658eddec5063024e6f5ee4270979"}, "vout": 17, "txid": "e88125c61898d19ade26a7aaa50c6ed814f4e5d8a699069e5b06a285677534bf"}], "txid": "b59785ab9ab28116c1f857da1b140aebdd4d10ad8c3947b77fa3e48cb080b5bf", "blocktime": 1537871767, "version": 2, "confirmations": 11495, "time": 1537871767, "locktime": 542992, "vsize": 258, "size": 420}