{"hash": "b59861d0d1ba286d1fe6c59b6c906e4a323a9cbf3acc4e418816859be58c6220", "blockhash": "00000000000000000004ffacab907a6b429b9a5745fa0b75af4234bf69dd7176", "vout": [{"scriptPubKey": {"reqSigs": 1, "hex": "76a914277b981416da65461a2d8355832294a16513515a88ac", "addresses": ["14bmQwvekQHTpRWoH9CAJGMaaNY2ns8zjN"], "asm": "OP_DUP OP_HASH160 277b981416da65461a2d8355832294a16513515a OP_EQUALVERIFY OP_CHECKSIG", "type": "pubkeyhash"}, "value": 0.00591404, "n": 0}, {"scriptPubKey": {"reqSigs": 1, "hex": "76a914da2065b6971863acae1b7dca79041112be2ca3bf88ac", "addresses": ["1LtM7poHbwYkzzZKnp9Y7K5hkN21LZTSWq"], "asm": "OP_DUP OP_HASH160 da2065b6971863acae1b7dca79041112be2ca3bf OP_EQUALVERIFY OP_CHECKSIG", "type": "pubkeyhash"}, "value": 0.05883672, "n": 1}], "hex": "0100000001df3b8b3c08da4c3ce0e30a926425b32a8da5cf57399db8dc1a06c4764a1235c5010000006b483045022100bd7f32ac8aa756da7151eed4c01ef8074876e40feceaf9c2489cf149a009d44b02206d67695021dad9befbb13b885bd2e6664870906161982ed993b469277a7dc64601210309838f7d80155c493f577038cb8d69c3e5730ccdb1d9cc49a15293967b8dfa2affffffff022c060900000000001976a914277b981416da65461a2d8355832294a16513515a88ac18c75900000000001976a914da2065b6971863acae1b7dca79041112be2ca3bf88ac00000000", "vin": [{"sequence": 4294967295, "scriptSig": {"hex": "483045022100bd7f32ac8aa756da7151eed4c01ef8074876e40feceaf9c2489cf149a009d44b02206d67695021dad9befbb13b885bd2e6664870906161982ed993b469277a7dc64601210309838f7d80155c493f577038cb8d69c3e5730ccdb1d9cc49a15293967b8dfa2a", "asm": "3045022100bd7f32ac8aa756da7151eed4c01ef8074876e40feceaf9c2489cf149a009d44b02206d67695021dad9befbb13b885bd2e6664870906161982ed993b469277a7dc646[ALL] 0309838f7d80155c493f577038cb8d69c3e5730ccdb1d9cc49a15293967b8dfa2a"}, "vout": 1, "txid": "c535124a76c4061adcb89d3957cfa58d2ab32564920ae3e03c4cda083c8b3bdf"}], "txid": "b59861d0d1ba286d1fe6c59b6c906e4a323a9cbf3acc4e418816859be58c6220", "blocktime": 1537875543, "version": 1, "confirmations": 11464, "time": 1537875543, "locktime": 0, "vsize": 226, "size": 226}