{"hash": "b59c62a796c51e03f732825f199e62d7171934b18f27bd34c04d1f61fad7724e", "blockhash": "000000000000000000022b45ed06c6f4ccd3cf7fb5ba4856ebd2e58215665228", "vout": [{"scriptPubKey": {"reqSigs": 1, "hex": "76a9149ed0ca8b4b46c802972565c804c288367ca62ce088ac", "addresses": ["1FUjtNmQzhDiowRLkew3BQFKthHndmnvxA"], "asm": "OP_DUP OP_HASH160 9ed0ca8b4b46c802972565c804c288367ca62ce0 OP_EQUALVERIFY OP_CHECKSIG", "type": "pubkeyhash"}, "value": 0.01970898, "n": 0}, {"scriptPubKey": {"reqSigs": 1, "hex": "76a914bd913d205630bf1ec60c0248e63e2bbcb30c24ad88ac", "addresses": ["1JHLhd8XW1Uox6yWiz2ShgDcetnUXPHRNB"], "asm": "OP_DUP OP_HASH160 bd913d205630bf1ec60c0248e63e2bbcb30c24ad OP_EQUALVERIFY OP_CHECKSIG", "type": "pubkeyhash"}, "value": 0.03, "n": 1}], "hex": "0100000001ace510ac5c1befbc01bbbfc6c5e7f0f91717d8a730fdffc4a27b0e7bf7f464df000000006b483045022100c59ee8f98adfe2514f03f0cd7738f8a8718d9a760c6f3f565665e9bf2ad2f989022016adeba93381a8cc896e927e2ced3bf4d3ba78d07ea8f791ff7dc9d97c79007d01210298096cc52a596be131cc6813b41dc0e1fb585c8eef694137376e230141ab2ee0ffffffff02d2121e00000000001976a9149ed0ca8b4b46c802972565c804c288367ca62ce088acc0c62d00000000001976a914bd913d205630bf1ec60c0248e63e2bbcb30c24ad88ac00000000", "vin": [{"sequence": 4294967295, "scriptSig": {"hex": "483045022100c59ee8f98adfe2514f03f0cd7738f8a8718d9a760c6f3f565665e9bf2ad2f989022016adeba93381a8cc896e927e2ced3bf4d3ba78d07ea8f791ff7dc9d97c79007d01210298096cc52a596be131cc6813b41dc0e1fb585c8eef694137376e230141ab2ee0", "asm": "3045022100c59ee8f98adfe2514f03f0cd7738f8a8718d9a760c6f3f565665e9bf2ad2f989022016adeba93381a8cc896e927e2ced3bf4d3ba78d07ea8f791ff7dc9d97c79007d[ALL] 0298096cc52a596be131cc6813b41dc0e1fb585c8eef694137376e230141ab2ee0"}, "vout": 0, "txid": "df64f4f77b0e7ba2c4fffd30a7d81717f9f0e7c5c6bfbb01bcef1b5cac10e5ac"}], "txid": "b59c62a796c51e03f732825f199e62d7171934b18f27bd34c04d1f61fad7724e", "blocktime": 1537869901, "version": 1, "confirmations": 11524, "time": 1537869901, "locktime": 0, "vsize": 226, "size": 226}