{"hash": "b59fc0c764225a1587e6b2f5283693ee3c78d6859877d0b7805899f041a131c2", "blockhash": "0000000000000000000e13cef7c366c0283d82e591d1acd082e914b08063cdf1", "vout": [{"scriptPubKey": {"reqSigs": 1, "hex": "76a914017dc4f411df0d949bfdb807583386eec83fa3f688ac", "addresses": ["18tLoNDo7RjKDzF4MySjftfoz2B8u5idT"], "asm": "OP_DUP OP_HASH160 017dc4f411df0d949bfdb807583386eec83fa3f6 OP_EQUALVERIFY OP_CHECKSIG", "type": "pubkeyhash"}, "value": 0.01890096, "n": 0}], "hex": "010000000144fc52451d9832afee5e3bf1d0042678650ecbbf6ccfdefc120b1113887c7407000000006a4730440220759805c60b15e91f993e920bd612e512d6e27e428d3f83915d71aba9533636f602203342e7b9c33b168ebde3e5082c47f6ba5303fc6d967674200e659d2fb3ecee9d012102f2b935c9c099cedc3f18c926d9aed77c42833fe5aa8eecb2203ef30b5e6b214fffffffff0130d71c00000000001976a914017dc4f411df0d949bfdb807583386eec83fa3f688ac00000000", "vin": [{"sequence": 4294967295, "scriptSig": {"hex": "4730440220759805c60b15e91f993e920bd612e512d6e27e428d3f83915d71aba9533636f602203342e7b9c33b168ebde3e5082c47f6ba5303fc6d967674200e659d2fb3ecee9d012102f2b935c9c099cedc3f18c926d9aed77c42833fe5aa8eecb2203ef30b5e6b214f", "asm": "30440220759805c60b15e91f993e920bd612e512d6e27e428d3f83915d71aba9533636f602203342e7b9c33b168ebde3e5082c47f6ba5303fc6d967674200e659d2fb3ecee9d[ALL] 02f2b935c9c099cedc3f18c926d9aed77c42833fe5aa8eecb2203ef30b5e6b214f"}, "vout": 0, "txid": "07747c8813110b12fcdecf6cbfcb0e65782604d0f13b5eeeaf32981d4552fc44"}], "txid": "b59fc0c764225a1587e6b2f5283693ee3c78d6859877d0b7805899f041a131c2", "blocktime": 1537871767, "version": 1, "confirmations": 11493, "time": 1537871767, "locktime": 0, "vsize": 191, "size": 191}