{"hash": "e1a6f64c7ac3ade9cb215138824bd57651460b1997a8fb083d943a3a7b5ad507", "blockhash": "00000000000000000024a2167bbff67b0be802c0b01cdd79e6331c2be6459f87", "vout": [{"scriptPubKey": {"reqSigs": 1, "hex": "a9141b6bd14d97ee32d3830f281939b98f3eb339e95087", "addresses": ["34C1L29okGr8Z3W4xQUTsuEkSfQ3ca5RVV"], "asm": "OP_HASH160 1b6bd14d97ee32d3830f281939b98f3eb339e950 OP_EQUAL", "type": "scripthash"}, "value": 0.24587968, "n": 0}, {"scriptPubKey": {"reqSigs": 1, "hex": "a91423ea9aa441ce9fe818defa4f90bfc85fd6e8927487", "addresses": ["34xvcqLow2G2Y12nTajZoTUPLmCig9F45H"], "asm": "OP_HASH160 23ea9aa441ce9fe818defa4f90bfc85fd6e89274 OP_EQUAL", "type": "scripthash"}, "value": 1.00790294, "n": 1}, {"scriptPubKey": {"reqSigs": 1, "hex": "a914b1dc59ebfbd77e738c979804d9c1a558e379865887", "addresses": ["3HuTVmhY1HNi6Urmsa2uZ14e3g8E9peDud"], "asm": "OP_HASH160 b1dc59ebfbd77e738c979804d9c1a558e3798658 OP_EQUAL", "type": "scripthash"}, "value": 2.7335169, "n": 2}, {"scriptPubKey": {"reqSigs": 1, "hex": "a9142baf1076a2c47d177e1b7cfa165142b7c6955dd187", "addresses": ["35fzhUSj294zamuRv68WQ8LEjoFEdfJ9A2"], "asm": "OP_HASH160 2baf1076a2c47d177e1b7cfa165142b7c6955dd1 OP_EQUAL", "type": "scripthash"}, "value": 0.1102864, "n": 3}, {"scriptPubKey": {"reqSigs": 1, "hex": "a91469f375a9ac71fe1f4da66ca53efef8fe7a360a3787", "addresses": ["3BMEXZFjE7JUSCJK9Gg61pFcM7xKqRBgyQ"], "asm": "OP_HASH160 69f375a9ac71fe1f4da66ca53efef8fe7a360a37 OP_EQUAL", "type": "scripthash"}, "value": 0.10903427, "n": 4}], "hex": "01000000000102de4d5337b9019c79063540263803c3f9481077cf6013c8989665e22791fa22100100000023220020e006c84a7db7458db6d79f0a15d90b0f1d6d8d336d65cab61480075989a65e8bfffffffff6e360f7a43037efa2c767655c90a21100465637914506198e4af3926f24f43500000000232200203f483753bb2f6596a1e8b9bc43fc2c8562ec6df0228596429259cc9034e16d22ffffffff05c02e77010000000017a9141b6bd14d97ee32d3830f281939b98f3eb339e9508716f001060000000017a91423ea9aa441ce9fe818defa4f90bfc85fd6e89274870a044b100000000017a914b1dc59ebfbd77e738c979804d9c1a558e379865887a048a8000000000017a9142baf1076a2c47d177e1b7cfa165142b7c6955dd187835fa6000000000017a91469f375a9ac71fe1f4da66ca53efef8fe7a360a3787040047304402205512362da3d84b97fb623db61577a77b608d04d5c546f8b2a6a2638fd9ffac6e022079a1902050a222f5ead4e079a7911fac02ba99fd4318902f9c1ef4e115a18b8301483045022100ad3e540353d91c4ba3c76fdb1033af36b0a9d2c10b03b71621d8d8f5db293bfd0220117a0b54fb5414f3cf6a915e3e4195f5723ae2ee4257b6503bb9f052200db249016952210313fe557e8fec8c252ef5fcd58e415804d184e4a2ea5c1df2031977916c08396c2103d4f92944e3ab9f6365c43b20f6f588cc9bbb8770216c7e6f2cebd01af10a8264210202ccb5b27f729375e23910e99e56b496b85d994af2d75dc5878079c8678dae3053ae04004830450221008d7d608f2aa6059885ea236d8700f4730f5b3e6cbbac303b6c2db16a654a107d02202e79578fce162716cb10eb501dcb3dc9e38a024989ef4b9c990ba84b59573d540147304402201fccc613a1d6c7ec1de559ce6681ce5d3a9176f48443819f997ac3467bea06d20220167076a7b6db7ddcbe67d004522d50dc9b996ede77f80a297326f3c7aafed4930169522103bc3de202e34f7a0ff8a6bf6e9622f775860063400abd47d7940811d49a0095db210297063cd2243d0e3cb1f535bb8e18c20e2386f3d7c66d65264e98c3204de3e6502103f1b6c39606369313f169d1c8845f486c75b882c6fb24fc390be02cf2dc15214053ae00000000", "vin": [{"txinwitness": ["", "304402205512362da3d84b97fb623db61577a77b608d04d5c546f8b2a6a2638fd9ffac6e022079a1902050a222f5ead4e079a7911fac02ba99fd4318902f9c1ef4e115a18b8301", "3045022100ad3e540353d91c4ba3c76fdb1033af36b0a9d2c10b03b71621d8d8f5db293bfd0220117a0b54fb5414f3cf6a915e3e4195f5723ae2ee4257b6503bb9f052200db24901", "52210313fe557e8fec8c252ef5fcd58e415804d184e4a2ea5c1df2031977916c08396c2103d4f92944e3ab9f6365c43b20f6f588cc9bbb8770216c7e6f2cebd01af10a8264210202ccb5b27f729375e23910e99e56b496b85d994af2d75dc5878079c8678dae3053ae"], "sequence": 4294967295, "scriptSig": {"hex": "220020e006c84a7db7458db6d79f0a15d90b0f1d6d8d336d65cab61480075989a65e8b", "asm": "0020e006c84a7db7458db6d79f0a15d90b0f1d6d8d336d65cab61480075989a65e8b"}, "vout": 1, "txid": "1022fa9127e2659698c81360cf771048f9c3033826403506799c01b937534dde"}, {"txinwitness": ["", "30450221008d7d608f2aa6059885ea236d8700f4730f5b3e6cbbac303b6c2db16a654a107d02202e79578fce162716cb10eb501dcb3dc9e38a024989ef4b9c990ba84b59573d5401", "304402201fccc613a1d6c7ec1de559ce6681ce5d3a9176f48443819f997ac3467bea06d20220167076a7b6db7ddcbe67d004522d50dc9b996ede77f80a297326f3c7aafed49301", "522103bc3de202e34f7a0ff8a6bf6e9622f775860063400abd47d7940811d49a0095db210297063cd2243d0e3cb1f535bb8e18c20e2386f3d7c66d65264e98c3204de3e6502103f1b6c39606369313f169d1c8845f486c75b882c6fb24fc390be02cf2dc15214053ae"], "sequence": 4294967295, "scriptSig": {"hex": "2200203f483753bb2f6596a1e8b9bc43fc2c8562ec6df0228596429259cc9034e16d22", "asm": "00203f483753bb2f6596a1e8b9bc43fc2c8562ec6df0228596429259cc9034e16d22"}, "vout": 0, "txid": "35f4246f92f34a8e190645913756460011a2905c6567c7a2ef3730a4f760e3f6"}], "txid": "b59f9558384feb5017fbe85d3fea4bd3981b1918d756126ee53366431ca121d6", "blocktime": 1537870564, "version": 1, "confirmations": 11515, "time": 1537870564, "locktime": 0, "vsize": 449, "size": 830}