{"hash": "b5a1abd40bcb944784c9d3933144d9b4e27566d390470cfccbbcbe79ce7e8f6e", "blockhash": "0000000000000000001f76057863aec43deb6fa401d9628bb513d65a8098bfab", "vout": [{"scriptPubKey": {"reqSigs": 1, "hex": "76a91485de6617d78e774fb3eddcc0cbd61e8f4378c15288ac", "addresses": ["1DCqJ45VuqJi16HvgP3yEfLeSgAe4t3eC5"], "asm": "OP_DUP OP_HASH160 85de6617d78e774fb3eddcc0cbd61e8f4378c152 OP_EQUALVERIFY OP_CHECKSIG", "type": "pubkeyhash"}, "value": 0.0861119, "n": 0}, {"scriptPubKey": {"type": "nulldata", "hex": "6a146f6d6e69000000000000001f000000034a73b980", "asm": "OP_RETURN 6f6d6e69000000000000001f000000034a73b980"}, "value": 0.0, "n": 1}, {"scriptPubKey": {"reqSigs": 1, "hex": "76a9140fb63d0aa4d3d112b0a728f8249d69942cf63cd488ac", "addresses": ["12S5T2YAKG5aWcPYug1VJybiXN3sMfRwWA"], "asm": "OP_DUP OP_HASH160 0fb63d0aa4d3d112b0a728f8249d69942cf63cd4 OP_EQUALVERIFY OP_CHECKSIG", "type": "pubkeyhash"}, "value": 5.46e-06, "n": 2}], "hex": "0100000001b4f3aa66d9ded551011467b34d714decf9d954d55f53860722753a3cb961fa9f000000006b483045022100afd8401a55b583d35238930036270d36defd472df4dbc3812f04dfd383a0c53202206ce3c8097a242af6b2c17ef3db74762c63a1d63d49fdd4dfb71f93883fa623190121026b49e67d6682b3163ef692f64536154c4d87c85d1aef69b89e3075dbea672995ffffffff0376658300000000001976a91485de6617d78e774fb3eddcc0cbd61e8f4378c15288ac0000000000000000166a146f6d6e69000000000000001f000000034a73b98022020000000000001976a9140fb63d0aa4d3d112b0a728f8249d69942cf63cd488ac00000000", "vin": [{"sequence": 4294967295, "scriptSig": {"hex": "483045022100afd8401a55b583d35238930036270d36defd472df4dbc3812f04dfd383a0c53202206ce3c8097a242af6b2c17ef3db74762c63a1d63d49fdd4dfb71f93883fa623190121026b49e67d6682b3163ef692f64536154c4d87c85d1aef69b89e3075dbea672995", "asm": "3045022100afd8401a55b583d35238930036270d36defd472df4dbc3812f04dfd383a0c53202206ce3c8097a242af6b2c17ef3db74762c63a1d63d49fdd4dfb71f93883fa62319[ALL] 026b49e67d6682b3163ef692f64536154c4d87c85d1aef69b89e3075dbea672995"}, "vout": 0, "txid": "9ffa61b93c3a75220786535fd554d9f9ec4d714db367140151d5ded966aaf3b4"}], "txid": "b5a1abd40bcb944784c9d3933144d9b4e27566d390470cfccbbcbe79ce7e8f6e", "blocktime": 1537873891, "version": 1, "confirmations": 11474, "time": 1537873891, "locktime": 0, "vsize": 257, "size": 257}