{"hash": "b5a4b64cd476f2696696dc8af8724de33597adb2de52edbdb942b7a3303a1798", "blockhash": "0000000000000000000baef3f32e3676a92c3b2e5da21b426e4f302fc371ce76", "vout": [{"scriptPubKey": {"reqSigs": 1, "hex": "76a9144b7481eaaabcf59e9efe7139c6f04889c605e0f588ac", "addresses": ["17syFUE3HaJT7tYXsoM2p114UuCn6SbPLM"], "asm": "OP_DUP OP_HASH160 4b7481eaaabcf59e9efe7139c6f04889c605e0f5 OP_EQUALVERIFY OP_CHECKSIG", "type": "pubkeyhash"}, "value": 0.00856079, "n": 0}, {"scriptPubKey": {"reqSigs": 1, "hex": "76a914c7ac4dedc1806fa824449f7ab0f10bf0ad753af088ac", "addresses": ["1KCmt6UqLUhUwHYK9mw3rWbNL3NUqp1MmF"], "asm": "OP_DUP OP_HASH160 c7ac4dedc1806fa824449f7ab0f10bf0ad753af0 OP_EQUALVERIFY OP_CHECKSIG", "type": "pubkeyhash"}, "value": 0.17, "n": 1}], "hex": "01000000023f2af0ac5a3a813e1cf33399198f15c33314def3e1e65b970a857e75c3902103000000006a47304402201bca855f1ac66c6c5dcc3bd7d4a6e68d2f034a7aff46d4d9cab1601d3cc6a44602207f9e5c6da68c353551a2645d6f9970089243e0e559a19b054b3f6da3cddcd10001210220007a85c1f1695133eb868b6689f8f70b90652c719e3fbd3ecc94a7aa0d56adffffffff911eead9fbebdad74a20a263241b2c0f0614e07eb112013356f39261d188c762010000006b48304502210096bb6fa76600982a941a39b15c697b1815573568a0a374d9032f8a6387b9d42102204274328c522ebe1df3eaa15d352e3eb7d8d92a64a748c276d2c4278f842f2551012103b37d1c60a8fb0fac1b88b548eadac005882ca0dcdebef144efdfcef98627d29fffffffff020f100d00000000001976a9144b7481eaaabcf59e9efe7139c6f04889c605e0f588ac40660301000000001976a914c7ac4dedc1806fa824449f7ab0f10bf0ad753af088ac00000000", "vin": [{"sequence": 4294967295, "scriptSig": {"hex": "47304402201bca855f1ac66c6c5dcc3bd7d4a6e68d2f034a7aff46d4d9cab1601d3cc6a44602207f9e5c6da68c353551a2645d6f9970089243e0e559a19b054b3f6da3cddcd10001210220007a85c1f1695133eb868b6689f8f70b90652c719e3fbd3ecc94a7aa0d56ad", "asm": "304402201bca855f1ac66c6c5dcc3bd7d4a6e68d2f034a7aff46d4d9cab1601d3cc6a44602207f9e5c6da68c353551a2645d6f9970089243e0e559a19b054b3f6da3cddcd100[ALL] 0220007a85c1f1695133eb868b6689f8f70b90652c719e3fbd3ecc94a7aa0d56ad"}, "vout": 0, "txid": "032190c3757e850a975be6e1f3de1433c3158f199933f31c3e813a5aacf02a3f"}, {"sequence": 4294967295, "scriptSig": {"hex": "48304502210096bb6fa76600982a941a39b15c697b1815573568a0a374d9032f8a6387b9d42102204274328c522ebe1df3eaa15d352e3eb7d8d92a64a748c276d2c4278f842f2551012103b37d1c60a8fb0fac1b88b548eadac005882ca0dcdebef144efdfcef98627d29f", "asm": "304502210096bb6fa76600982a941a39b15c697b1815573568a0a374d9032f8a6387b9d42102204274328c522ebe1df3eaa15d352e3eb7d8d92a64a748c276d2c4278f842f2551[ALL] 03b37d1c60a8fb0fac1b88b548eadac005882ca0dcdebef144efdfcef98627d29f"}, "vout": 1, "txid": "62c788d16192f356330112b17ee014060f2c1b2463a2204ad7daebfbd9ea1e91"}], "txid": "b5a4b64cd476f2696696dc8af8724de33597adb2de52edbdb942b7a3303a1798", "blocktime": 1537876114, "version": 1, "confirmations": 11459, "time": 1537876114, "locktime": 0, "vsize": 373, "size": 373}