{"hash": "fd6c99dbf390e74d378aac7ff51b3faf9ed7deda1b6e20f56218dcf883b0ffc9", "blockhash": "0000000000000000000e13cef7c366c0283d82e591d1acd082e914b08063cdf1", "vout": [{"scriptPubKey": {"reqSigs": 1, "hex": "76a914911a61ae0b6625f6cc5379ad3f828a4a1e4ae77988ac", "addresses": ["1EEEaqdciNZSjvcPNK6ym3JAyKeaCSpAKk"], "asm": "OP_DUP OP_HASH160 911a61ae0b6625f6cc5379ad3f828a4a1e4ae779 OP_EQUALVERIFY OP_CHECKSIG", "type": "pubkeyhash"}, "value": 0.178, "n": 0}, {"scriptPubKey": {"reqSigs": 1, "hex": "76a9140d286f86d32feb44c6ffd1d908049f9c90df6fb488ac", "addresses": ["12CaE1heNsvebHYBU56NpDf8nyqoYGoTrg"], "asm": "OP_DUP OP_HASH160 0d286f86d32feb44c6ffd1d908049f9c90df6fb4 OP_EQUALVERIFY OP_CHECKSIG", "type": "pubkeyhash"}, "value": 0.132, "n": 1}, {"scriptPubKey": {"reqSigs": 1, "hex": "a91486c3fd19c6c9a0b596046179f8c72dcbdf95c96387", "addresses": ["3DybFnF6r6riDz1W1wSmv2rvjo8NCGH4xi"], "asm": "OP_HASH160 86c3fd19c6c9a0b596046179f8c72dcbdf95c963 OP_EQUAL", "type": "scripthash"}, "value": 31.60218057, "n": 2}], "hex": "0100000000010179197ffab68013d6ac8be1e097144b4c8bb1f7f13d6637a1f15fe6f5b5acf2a2040000001716001431a2ce0c031351dd9c5dad168af8b76d65147419ffffffff03409b0f01000000001976a914911a61ae0b6625f6cc5379ad3f828a4a1e4ae77988ac806ac900000000001976a9140d286f86d32feb44c6ffd1d908049f9c90df6fb488acc9195dbc0000000017a91486c3fd19c6c9a0b596046179f8c72dcbdf95c96387024830450221009633fe8fee48ad06c54f350c427d95f5c02379831868634c975c47b882afcf16022058ed0ce1bb35d7e00ad0e3fc56f35647d8fae262514fc8a62f96654b2ed921fd01210221a47cdb1df834e604d49ce29497c00a12d0daec0ae8a10a6ce689780b05085300000000", "vin": [{"txinwitness": ["30450221009633fe8fee48ad06c54f350c427d95f5c02379831868634c975c47b882afcf16022058ed0ce1bb35d7e00ad0e3fc56f35647d8fae262514fc8a62f96654b2ed921fd01", "0221a47cdb1df834e604d49ce29497c00a12d0daec0ae8a10a6ce689780b050853"], "sequence": 4294967295, "scriptSig": {"hex": "16001431a2ce0c031351dd9c5dad168af8b76d65147419", "asm": "001431a2ce0c031351dd9c5dad168af8b76d65147419"}, "vout": 4, "txid": "a2f2acb5f5e65ff1a137663df1f7b18b4c4b1497e0e18bacd61380b6fa7f1979"}], "txid": "b5af087d5dc6c8387036fd366a11a4ba086c0f45cd87d837ed73825d88fce423", "blocktime": 1537871767, "version": 1, "confirmations": 11493, "time": 1537871767, "locktime": 0, "vsize": 202, "size": 284}