{"hash": "a8fb83e7f6388b760d3ef083274e5145df6e63ce965e58b2c15ff75bc924c974", "blockhash": "0000000000000000000dcc0f55137456b1a82d3642486a52398922ac4d620174", "vout": [{"scriptPubKey": {"reqSigs": 1, "hex": "76a914ffb68f8e54e5b2054f36f4b91746bd7fb9b6a1c888ac", "addresses": ["1QK61TkDdac7w8srthHH5qpiuPJNWLaucz"], "asm": "OP_DUP OP_HASH160 ffb68f8e54e5b2054f36f4b91746bd7fb9b6a1c8 OP_EQUALVERIFY OP_CHECKSIG", "type": "pubkeyhash"}, "value": 0.13130361, "n": 0}, {"scriptPubKey": {"reqSigs": 1, "hex": "a9140473ddd824727265a25d77b5ccdee7791f9fb3f087", "addresses": ["326ZRrxVyTEU8uF9QMhpLnptLNSjx4K9aP"], "asm": "OP_HASH160 0473ddd824727265a25d77b5ccdee7791f9fb3f0 OP_EQUAL", "type": "scripthash"}, "value": 0.15847723, "n": 1}], "hex": "02000000000101cec5c2ffec2e2dbf80e8f8aa360bb1c121ac2c2e22534c2fe707f6cf72ed291e0000000017160014edf2cad88943b54d59b6ca963dfe5884ec3cf080feffffff02795ac800000000001976a914ffb68f8e54e5b2054f36f4b91746bd7fb9b6a1c888ac2bd1f1000000000017a9140473ddd824727265a25d77b5ccdee7791f9fb3f0870247304402205fcb46138e62bb33526928eafea8e9ece1cc06a474e1a6ff183ca8c05bf3825b02205ff2fea33d4669f9df677b8cff8421a5bc6678c2fca05eb8fd60ca45271b601901210216e55cd59757ee1b22558bfa032f61254bc134f547e8948f089d88e76dcfd6b40c490800", "vin": [{"txinwitness": ["304402205fcb46138e62bb33526928eafea8e9ece1cc06a474e1a6ff183ca8c05bf3825b02205ff2fea33d4669f9df677b8cff8421a5bc6678c2fca05eb8fd60ca45271b601901", "0216e55cd59757ee1b22558bfa032f61254bc134f547e8948f089d88e76dcfd6b4"], "sequence": 4294967294, "scriptSig": {"hex": "160014edf2cad88943b54d59b6ca963dfe5884ec3cf080", "asm": "0014edf2cad88943b54d59b6ca963dfe5884ec3cf080"}, "vout": 0, "txid": "1e29ed72cff607e72f4c53222e2cac21c1b10b36aaf8e880bf2d2eecffc2c5ce"}], "txid": "b5b08c7526af6a021074be9a4a587711a7c9e679600b078b732fcc93fbec6a55", "blocktime": 1537870268, "version": 2, "confirmations": 11516, "time": 1537870268, "locktime": 542988, "vsize": 168, "size": 249}