{"hash": "b5b0cbb7b72d2ee799312c3a2982a0321d5d48a6a6891a7d85bd0467bf4c270f", "blockhash": "00000000000000000004ffacab907a6b429b9a5745fa0b75af4234bf69dd7176", "vout": [{"scriptPubKey": {"reqSigs": 1, "hex": "76a914f5561f88316bda36926093f34d9674ba5a8d666a88ac", "addresses": ["1PNDiwbfzp4q3hvbvh4sQvHt2tPhJLmYeJ"], "asm": "OP_DUP OP_HASH160 f5561f88316bda36926093f34d9674ba5a8d666a OP_EQUALVERIFY OP_CHECKSIG", "type": "pubkeyhash"}, "value": 0.001, "n": 0}, {"scriptPubKey": {"reqSigs": 1, "hex": "76a914e980406100f1b02d9023620d15858ca5a5fb144c88ac", "addresses": ["1NHe5mQK8w5uu6QxqnWsd6M8fPLPiYGWzA"], "asm": "OP_DUP OP_HASH160 e980406100f1b02d9023620d15858ca5a5fb144c OP_EQUALVERIFY OP_CHECKSIG", "type": "pubkeyhash"}, "value": 0.07580009, "n": 1}], "hex": "010000000174a4dbdd98de68162e50aec78c3c9d400164207b39106468956aa48af40517e0010000006a473044022009de038a0c4109247c20bf4d1aaadf0e1487737ef9583b43878d07a09e07985302206fa3c6d922911485fbd54a02e9a13cedd19ffb5f36044538dc4402b91e071d2a012103ad603f5d3610dce0c476cc5ff31b70d340cb842f4285d362fdb63d990e4c8e16ffffffff02a0860100000000001976a914f5561f88316bda36926093f34d9674ba5a8d666a88ac69a97300000000001976a914e980406100f1b02d9023620d15858ca5a5fb144c88ac00000000", "vin": [{"sequence": 4294967295, "scriptSig": {"hex": "473044022009de038a0c4109247c20bf4d1aaadf0e1487737ef9583b43878d07a09e07985302206fa3c6d922911485fbd54a02e9a13cedd19ffb5f36044538dc4402b91e071d2a012103ad603f5d3610dce0c476cc5ff31b70d340cb842f4285d362fdb63d990e4c8e16", "asm": "3044022009de038a0c4109247c20bf4d1aaadf0e1487737ef9583b43878d07a09e07985302206fa3c6d922911485fbd54a02e9a13cedd19ffb5f36044538dc4402b91e071d2a[ALL] 03ad603f5d3610dce0c476cc5ff31b70d340cb842f4285d362fdb63d990e4c8e16"}, "vout": 1, "txid": "e01705f48aa46a95686410397b206401409d3c8cc7ae502e1668de98dddba474"}], "txid": "b5b0cbb7b72d2ee799312c3a2982a0321d5d48a6a6891a7d85bd0467bf4c270f", "blocktime": 1537875543, "version": 1, "confirmations": 11464, "time": 1537875543, "locktime": 0, "vsize": 225, "size": 225}