{"hash": "b5b188f0a74a1f7ef97efcb855627ae7068d448333d65e63780a4833019a3907", "blockhash": "0000000000000000001cda96e906b7601b7a6fb1a3b62bca570a9e5d8f4b3de1", "vout": [{"scriptPubKey": {"reqSigs": 1, "hex": "76a914a25dec4d0011064ef106a983c39c7a540699f22088ac", "addresses": ["1FoWyxwPXuj4C6abqwhjDWdz6D4PZgYRjA"], "asm": "OP_DUP OP_HASH160 a25dec4d0011064ef106a983c39c7a540699f220 OP_EQUALVERIFY OP_CHECKSIG", "type": "pubkeyhash"}, "value": 0.0198558, "n": 0}, {"scriptPubKey": {"type": "nulldata", "hex": "6a146f6d6e69000000000000001f000000399ac90080", "asm": "OP_RETURN 6f6d6e69000000000000001f000000399ac90080"}, "value": 0.0, "n": 1}, {"scriptPubKey": {"reqSigs": 1, "hex": "76a9149a2a11b02b8cc4d213356e1aa48f85c6d334bc3688ac", "addresses": ["1F49TZ81NByJNJEjvjni4KkmJBiUFGcGeK"], "asm": "OP_DUP OP_HASH160 9a2a11b02b8cc4d213356e1aa48f85c6d334bc36 OP_EQUALVERIFY OP_CHECKSIG", "type": "pubkeyhash"}, "value": 5.46e-06, "n": 2}], "hex": "01000000018d392b40b65a7e17fdfdc3717b426728fa4e892e7a06b801892432fc680c56e0020000006b483045022100aacb12a92c1743e2911c4b4114251c7b31a92d1ece75d911c7714d6dec52e12202205ae140e86d8d6fb11f469ca37e39cb144442ebe9e12521f402c1e38f2f885a58012103da5bac7b36d5aa38f531c6b9601e21bb598a4b6716ebed38b009a55dabde9440feffffff032c4c1e00000000001976a914a25dec4d0011064ef106a983c39c7a540699f22088ac0000000000000000166a146f6d6e69000000000000001f000000399ac9008022020000000000001976a9149a2a11b02b8cc4d213356e1aa48f85c6d334bc3688ac13490800", "vin": [{"sequence": 4294967294, "scriptSig": {"hex": "483045022100aacb12a92c1743e2911c4b4114251c7b31a92d1ece75d911c7714d6dec52e12202205ae140e86d8d6fb11f469ca37e39cb144442ebe9e12521f402c1e38f2f885a58012103da5bac7b36d5aa38f531c6b9601e21bb598a4b6716ebed38b009a55dabde9440", "asm": "3045022100aacb12a92c1743e2911c4b4114251c7b31a92d1ece75d911c7714d6dec52e12202205ae140e86d8d6fb11f469ca37e39cb144442ebe9e12521f402c1e38f2f885a58[ALL] 03da5bac7b36d5aa38f531c6b9601e21bb598a4b6716ebed38b009a55dabde9440"}, "vout": 2, "txid": "e0560c68fc32248901b8067a2e894efa2867427b71c3fdfd177e5ab6402b398d"}], "txid": "b5b188f0a74a1f7ef97efcb855627ae7068d448333d65e63780a4833019a3907", "blocktime": 1537873282, "version": 1, "confirmations": 11481, "time": 1537873282, "locktime": 542995, "vsize": 257, "size": 257}