{"hash": "6c19df86ad7cd086be4ea9ae3a5d7d9bc6bf8f6d5947a1a0c432c9f09b156f36", "blockhash": "00000000000000000024a2167bbff67b0be802c0b01cdd79e6331c2be6459f87", "vout": [{"scriptPubKey": {"reqSigs": 1, "hex": "a91401c04807308a10f62c22ad21e61a1aaf7ff906a387", "addresses": ["31rGwgKJibQBi2A4Vr88yP2cT7AEA8Bm35"], "asm": "OP_HASH160 01c04807308a10f62c22ad21e61a1aaf7ff906a3 OP_EQUAL", "type": "scripthash"}, "value": 0.001, "n": 0}, {"scriptPubKey": {"reqSigs": 1, "hex": "a91444f34f5196fbe32d907f33ff43c694d602ccf58987", "addresses": ["37ybM3ypJFLdT2YN8Tac4geHw2oyXavFnz"], "asm": "OP_HASH160 44f34f5196fbe32d907f33ff43c694d602ccf589 OP_EQUAL", "type": "scripthash"}, "value": 0.00075792, "n": 1}], "hex": "02000000000101742cf9a468471b55c04697b50eca4b28216b926ad1003574697c2de5e6fd80d801000000171600149087096d63ab366a028678abe0569ae0d93b18ecffffffff02a08601000000000017a91401c04807308a10f62c22ad21e61a1aaf7ff906a387102801000000000017a91444f34f5196fbe32d907f33ff43c694d602ccf5898702483045022100e0dc7dd43d1d82e10f603664016bcba42df34385ad1499e1285e61df1dbd9f49022004d61d90a93fba26d080638386867e099405bfb860df93b4af7956aa02babf3f012102ae03d932750d8e9ca098002c27d3f52930d9d70daa4c6b9b26d0a5710e2e5ae400000000", "vin": [{"txinwitness": ["3045022100e0dc7dd43d1d82e10f603664016bcba42df34385ad1499e1285e61df1dbd9f49022004d61d90a93fba26d080638386867e099405bfb860df93b4af7956aa02babf3f01", "02ae03d932750d8e9ca098002c27d3f52930d9d70daa4c6b9b26d0a5710e2e5ae4"], "sequence": 4294967295, "scriptSig": {"hex": "1600149087096d63ab366a028678abe0569ae0d93b18ec", "asm": "00149087096d63ab366a028678abe0569ae0d93b18ec"}, "vout": 1, "txid": "d880fde6e52d7c69743500d16a926b21284bca0eb59746c0551b4768a4f92c74"}], "txid": "b5b960c369df7ef6e562a770de837f17529a63f0e4e01a12d0d1383abc1dc1fa", "blocktime": 1537870564, "version": 2, "confirmations": 11515, "time": 1537870564, "locktime": 0, "vsize": 166, "size": 248}