{"hash": "b5bb65e5ecf1dc230918e2552566b665eb183410a053c839e8dd157f95b2f36f", "blockhash": "00000000000000000024a2167bbff67b0be802c0b01cdd79e6331c2be6459f87", "vout": [{"scriptPubKey": {"reqSigs": 1, "hex": "76a9146e06d903f02490f8362d0f05f93e0daeacc1b75088ac", "addresses": ["1B2mXtZfCDYDDgKBGXeDLnvGXVoBztNK6C"], "asm": "OP_DUP OP_HASH160 6e06d903f02490f8362d0f05f93e0daeacc1b750 OP_EQUALVERIFY OP_CHECKSIG", "type": "pubkeyhash"}, "value": 0.00156241, "n": 0}, {"scriptPubKey": {"reqSigs": 1, "hex": "76a914cabdd16dcc8006ffb34bd02c6b1926ce4c7e911b88ac", "addresses": ["1KUztYPqnsiQQmLwTWhSoDEBAciDF3SVzr"], "asm": "OP_DUP OP_HASH160 cabdd16dcc8006ffb34bd02c6b1926ce4c7e911b OP_EQUALVERIFY OP_CHECKSIG", "type": "pubkeyhash"}, "value": 0.0303457, "n": 1}], "hex": "010000000141e546fd1d967372be8c0760081c729c2620fa8796e4df565f63e38f3c37aff9010000006a4730440220613e7d8753406438b7fd5ae2946709f9dc5bd98e76ab8893a71c37b90efb10b702204a592a324d43d6850073f3eadb22a3290c172c182c45ab584065150132655cfe012103400324e5487ec97e9851208d00f95fd5d6a4db43fe659b348c4dcb88c470c74affffffff0251620200000000001976a9146e06d903f02490f8362d0f05f93e0daeacc1b75088acca4d2e00000000001976a914cabdd16dcc8006ffb34bd02c6b1926ce4c7e911b88ac00000000", "vin": [{"sequence": 4294967295, "scriptSig": {"hex": "4730440220613e7d8753406438b7fd5ae2946709f9dc5bd98e76ab8893a71c37b90efb10b702204a592a324d43d6850073f3eadb22a3290c172c182c45ab584065150132655cfe012103400324e5487ec97e9851208d00f95fd5d6a4db43fe659b348c4dcb88c470c74a", "asm": "30440220613e7d8753406438b7fd5ae2946709f9dc5bd98e76ab8893a71c37b90efb10b702204a592a324d43d6850073f3eadb22a3290c172c182c45ab584065150132655cfe[ALL] 03400324e5487ec97e9851208d00f95fd5d6a4db43fe659b348c4dcb88c470c74a"}, "vout": 1, "txid": "f9af373c8fe3635f56dfe49687fa20269c721c0860078cbe7273961dfd46e541"}], "txid": "b5bb65e5ecf1dc230918e2552566b665eb183410a053c839e8dd157f95b2f36f", "blocktime": 1537870564, "version": 1, "confirmations": 11515, "time": 1537870564, "locktime": 0, "vsize": 225, "size": 225}