{"hash": "b5c80f7994b397c47cbbe7e6450863c96c98db78d480b8f4341a7dce09bda16e", "blockhash": "0000000000000000001f76057863aec43deb6fa401d9628bb513d65a8098bfab", "vout": [{"scriptPubKey": {"reqSigs": 1, "hex": "76a9144946d8b8cd253c447b9c9c8f309469e6fb2ed73f88ac", "addresses": ["17gTCWZGGzcXg8q74JsqjBs5QML2NAcmnE"], "asm": "OP_DUP OP_HASH160 4946d8b8cd253c447b9c9c8f309469e6fb2ed73f OP_EQUALVERIFY OP_CHECKSIG", "type": "pubkeyhash"}, "value": 0.00998362, "n": 0}, {"scriptPubKey": {"reqSigs": 1, "hex": "76a914ac6c53d7e0e46272ba5d574a73e4d2d0f010cef588ac", "addresses": ["1Gigziu4k46pfhwz8PHfUgd3VMT5kbpZUC"], "asm": "OP_DUP OP_HASH160 ac6c53d7e0e46272ba5d574a73e4d2d0f010cef5 OP_EQUALVERIFY OP_CHECKSIG", "type": "pubkeyhash"}, "value": 0.00791296, "n": 1}], "hex": "0200000004c8fb149b6033133ac263b0dfc8e805de0678d8a8a12cf00434b3f54627821c24000000006a4730440220783bdadd0e1d982c5f785dc8ed2f897639ebdce5d166dba5d9a12f03a7f529c602204e36c2c234cc6a5662d9c13477421303cb6bbd563fb3eb1150704ffcbafb51be012103c10c5aae844a77c7b785102441f44ae1e6404664e6a3cd3759bfd3e524366e34feffffff0497cac5dc8e1747b478dfeb97ba0b4af2a8ef560946a2aa431b1e602c3f8a52000000006a4730440220433e0bb586a59be3d7de5d8207c62a32a30f834aff2e9f852f2d44b1dd880acb02205f7e6c7da80585ba7418c9dab278da024a3c91ce7c482d402362b0778e55c67701210343c6f06932616c79f016987b72223f200f3ecb0e5873063a42b1b2580e7ce19ffeffffff68dd308626b03c82f65309baba276fc57ee03cc168284f3712d2ff10b0cee59a040000006a47304402202fbb48586d34512ff66f404c1f614abe1fa44e758c59691dceee8d82cbd996dc02206973625db407f721c1c49a7cf0ad32d2355f5e16cbeecf68d06b551e359aa74e0121034115d9fac98ec0ec5da1cd770e1ad746e826e9388ff9161e83137bb2402b3dfafeffffff4fce689288b2c147d7606950a2146c43f9e4fe348d3f6caffaa559260517ba3e010000006946304302202021c1992df1757638d2bfef74b71e448c0962a32e06e5915a0c799bd2b99ace021f72ecc2e7bcc302657a516b8c674a49d886e097063590751ae582cf35b8faca0121026fab9a6fc64cb7ab284c3e4cb9325951bf8173fbb77c0347af4b1dc87192123dfeffffff02da3b0f00000000001976a9144946d8b8cd253c447b9c9c8f309469e6fb2ed73f88ac00130c00000000001976a914ac6c53d7e0e46272ba5d574a73e4d2d0f010cef588ac13490800", "vin": [{"sequence": 4294967294, "scriptSig": {"hex": "4730440220783bdadd0e1d982c5f785dc8ed2f897639ebdce5d166dba5d9a12f03a7f529c602204e36c2c234cc6a5662d9c13477421303cb6bbd563fb3eb1150704ffcbafb51be012103c10c5aae844a77c7b785102441f44ae1e6404664e6a3cd3759bfd3e524366e34", "asm": "30440220783bdadd0e1d982c5f785dc8ed2f897639ebdce5d166dba5d9a12f03a7f529c602204e36c2c234cc6a5662d9c13477421303cb6bbd563fb3eb1150704ffcbafb51be[ALL] 03c10c5aae844a77c7b785102441f44ae1e6404664e6a3cd3759bfd3e524366e34"}, "vout": 0, "txid": "241c822746f5b33404f02ca1a8d87806de05e8c8dfb063c23a1333609b14fbc8"}, {"sequence": 4294967294, "scriptSig": {"hex": "4730440220433e0bb586a59be3d7de5d8207c62a32a30f834aff2e9f852f2d44b1dd880acb02205f7e6c7da80585ba7418c9dab278da024a3c91ce7c482d402362b0778e55c67701210343c6f06932616c79f016987b72223f200f3ecb0e5873063a42b1b2580e7ce19f", "asm": "30440220433e0bb586a59be3d7de5d8207c62a32a30f834aff2e9f852f2d44b1dd880acb02205f7e6c7da80585ba7418c9dab278da024a3c91ce7c482d402362b0778e55c677[ALL] 0343c6f06932616c79f016987b72223f200f3ecb0e5873063a42b1b2580e7ce19f"}, "vout": 0, "txid": "528a3f2c601e1b43aaa2460956efa8f24a0bba97ebdf78b447178edcc5ca9704"}, {"sequence": 4294967294, "scriptSig": {"hex": "47304402202fbb48586d34512ff66f404c1f614abe1fa44e758c59691dceee8d82cbd996dc02206973625db407f721c1c49a7cf0ad32d2355f5e16cbeecf68d06b551e359aa74e0121034115d9fac98ec0ec5da1cd770e1ad746e826e9388ff9161e83137bb2402b3dfa", "asm": "304402202fbb48586d34512ff66f404c1f614abe1fa44e758c59691dceee8d82cbd996dc02206973625db407f721c1c49a7cf0ad32d2355f5e16cbeecf68d06b551e359aa74e[ALL] 034115d9fac98ec0ec5da1cd770e1ad746e826e9388ff9161e83137bb2402b3dfa"}, "vout": 4, "txid": "9ae5ceb010ffd212374f2868c13ce07ec56f27baba0953f6823cb0268630dd68"}, {"sequence": 4294967294, "scriptSig": {"hex": "46304302202021c1992df1757638d2bfef74b71e448c0962a32e06e5915a0c799bd2b99ace021f72ecc2e7bcc302657a516b8c674a49d886e097063590751ae582cf35b8faca0121026fab9a6fc64cb7ab284c3e4cb9325951bf8173fbb77c0347af4b1dc87192123d", "asm": "304302202021c1992df1757638d2bfef74b71e448c0962a32e06e5915a0c799bd2b99ace021f72ecc2e7bcc302657a516b8c674a49d886e097063590751ae582cf35b8faca[ALL] 026fab9a6fc64cb7ab284c3e4cb9325951bf8173fbb77c0347af4b1dc87192123d"}, "vout": 1, "txid": "3eba17052659a5faaf6c3f8d34fee4f9436c14a2506960d747c1b2889268ce4f"}], "txid": "b5c80f7994b397c47cbbe7e6450863c96c98db78d480b8f4341a7dce09bda16e", "blocktime": 1537873891, "version": 2, "confirmations": 11478, "time": 1537873891, "locktime": 542995, "vsize": 665, "size": 665}