{"hash": "209f156e5a6a936183a9be97c85f45191c77a28cf2eb853dd1cdb9c8dcbb255a", "blockhash": "00000000000000000024a2167bbff67b0be802c0b01cdd79e6331c2be6459f87", "vout": [{"scriptPubKey": {"reqSigs": 1, "hex": "a914cdedd87572ab385bc09901733967721c7092167787", "addresses": ["3LTsNfdx1LGZTwMpX1awUgHKcK2ezR9JtQ"], "asm": "OP_HASH160 cdedd87572ab385bc09901733967721c70921677 OP_EQUAL", "type": "scripthash"}, "value": 0.00996776, "n": 0}, {"scriptPubKey": {"reqSigs": 1, "hex": "a914fbdddc6b5afbea0ec02a2ef42c4b3f7f46ba54cd87", "addresses": ["3QemJsDasNWd7Kg3PYMgU3tFNf7bxCTAHT"], "asm": "OP_HASH160 fbdddc6b5afbea0ec02a2ef42c4b3f7f46ba54cd OP_EQUAL", "type": "scripthash"}, "value": 0.031, "n": 1}], "hex": "0200000000010315aaa76b8673551af2ddeabbb898b73af9ac82e8eba9e0b87a9e1ce1e25b8e960500000017160014fa6c36d61274495d80e95bb704894f1dfc65795ffeffffff87c59fc7a993b2c6a4c40cb89880e0dbb66b2c9ba465bbddac5988ac875dd08100000000171600141236f4ce0db088c463d5905d30dcc052727c46b7feffffffa32e53a7999200cdb27583f50db8de75bad35f0dc8157b5065d6528ed17432bf000000001716001417fe52593f809240172a1f953c28bd2a89ef0c12feffffff02a8350f000000000017a914cdedd87572ab385bc09901733967721c7092167787604d2f000000000017a914fbdddc6b5afbea0ec02a2ef42c4b3f7f46ba54cd8702483045022100924a2663b999c6f2691bb0d6f424b80fe947fef3feecf34385fec2e83ea9e1a30220680ee3015cac263d1813ccf3b254520c6cd58eefe6c33273819f427a393918a601210361f1043acab0e53daac168c2f5098abc4d856a3352885995197b0f5c00b820120247304402203f4b64fa7e07b67f17e8817a8e87fcdc36955dfad4f3547aa33c695eccdff53302201ede89017bbb5cf90fdbc62952999a2ec05d3c58e6a5edcf487bcf80eb6c1951012102df7c8c82005b1fecb5f72487bb7f228271d1b7fcf774cfaeffcd8df4f871584502483045022100a75a2db49b034d6507674f960aacb9837613a52c3216ae44f57a4b40032e01770220720e537c8a10e90c4400ddfb23cc928d7322969c27166752bcd6224fd7a591a1012102ce4e1de3a83409046fddd29c3f7452068e1a9194a76fae0fa3914ec4160ffde00d490800", "vin": [{"txinwitness": ["3045022100924a2663b999c6f2691bb0d6f424b80fe947fef3feecf34385fec2e83ea9e1a30220680ee3015cac263d1813ccf3b254520c6cd58eefe6c33273819f427a393918a601", "0361f1043acab0e53daac168c2f5098abc4d856a3352885995197b0f5c00b82012"], "sequence": 4294967294, "scriptSig": {"hex": "160014fa6c36d61274495d80e95bb704894f1dfc65795f", "asm": "0014fa6c36d61274495d80e95bb704894f1dfc65795f"}, "vout": 5, "txid": "968e5be2e11c9e7ab8e0a9ebe882acf93ab798b8bbeaddf21a5573866ba7aa15"}, {"txinwitness": ["304402203f4b64fa7e07b67f17e8817a8e87fcdc36955dfad4f3547aa33c695eccdff53302201ede89017bbb5cf90fdbc62952999a2ec05d3c58e6a5edcf487bcf80eb6c195101", "02df7c8c82005b1fecb5f72487bb7f228271d1b7fcf774cfaeffcd8df4f8715845"], "sequence": 4294967294, "scriptSig": {"hex": "1600141236f4ce0db088c463d5905d30dcc052727c46b7", "asm": "00141236f4ce0db088c463d5905d30dcc052727c46b7"}, "vout": 0, "txid": "81d05d87ac8859acddbb65a49b2c6bb6dbe08098b80cc4a4c6b293a9c79fc587"}, {"txinwitness": ["3045022100a75a2db49b034d6507674f960aacb9837613a52c3216ae44f57a4b40032e01770220720e537c8a10e90c4400ddfb23cc928d7322969c27166752bcd6224fd7a591a101", "02ce4e1de3a83409046fddd29c3f7452068e1a9194a76fae0fa3914ec4160ffde0"], "sequence": 4294967294, "scriptSig": {"hex": "16001417fe52593f809240172a1f953c28bd2a89ef0c12", "asm": "001417fe52593f809240172a1f953c28bd2a89ef0c12"}, "vout": 0, "txid": "bf3274d18e52d665507b15c80d5fd3ba75deb80df58375b2cd009299a7532ea3"}], "txid": "b5c88b8e2fc63d264e4c9568a6c59fa8e89efb449ae79efd54944981cbd323c5", "blocktime": 1537870564, "version": 2, "confirmations": 11515, "time": 1537870564, "locktime": 542989, "vsize": 348, "size": 591}