{"hash": "aff290ee23334b5429bed2b34e50ce0d4a2883a7595c70d7b1e870b9395e676f", "blockhash": "0000000000000000000dcc0f55137456b1a82d3642486a52398922ac4d620174", "vout": [{"scriptPubKey": {"reqSigs": 1, "hex": "00148bb86e6544e79765f32ada0700a7669924dfdf43", "addresses": ["bc1q3wuxue2yu7tktue2mgrspfmxnyjdlh6rzqm3hg"], "asm": "0 8bb86e6544e79765f32ada0700a7669924dfdf43", "type": "witness_v0_keyhash"}, "value": 0.00585589, "n": 0}, {"scriptPubKey": {"reqSigs": 1, "hex": "a9147ff37d92622230220624fca45934304b198da57087", "addresses": ["3DMZRvXryxU4tVch85hkyZsz5k8Sgo5XHJ"], "asm": "OP_HASH160 7ff37d92622230220624fca45934304b198da570 OP_EQUAL", "type": "scripthash"}, "value": 0.00936, "n": 1}], "hex": "010000000001015cfd6c0b0714ecef2f817e9edad443428b17ad39417a0cfde8776e8ff4834d8f0100000000ffffffff0275ef0800000000001600148bb86e6544e79765f32ada0700a7669924dfdf4340480e000000000017a9147ff37d92622230220624fca45934304b198da5708702483045022100c5034ddb4dd6b563093e9aad9dae2aa2ff9bcc10b843197af2649641e25b183d02202a6749555bf1a75a839c14b65c6fcbb86664e43d6b5a1a38f45df987be6222050121038cf9b9f877fd79c592238f3fc8f44d6e7f49f6577d2078395494da71cf865d4100000000", "vin": [{"txinwitness": ["3045022100c5034ddb4dd6b563093e9aad9dae2aa2ff9bcc10b843197af2649641e25b183d02202a6749555bf1a75a839c14b65c6fcbb86664e43d6b5a1a38f45df987be62220501", "038cf9b9f877fd79c592238f3fc8f44d6e7f49f6577d2078395494da71cf865d41"], "sequence": 4294967295, "scriptSig": {"hex": "", "asm": ""}, "vout": 1, "txid": "8f4d83f48f6e77e8fd0c7a4139ad178b4243d4da9e7e812fefec14070b6cfd5c"}], "txid": "b5cc2e85bb686c2f5df93e26d5e529f37e611b05208c2e294ebb22995f492e34", "blocktime": 1537870268, "version": 1, "confirmations": 11518, "time": 1537870268, "locktime": 0, "vsize": 142, "size": 224}