{"hash": "b5cc3abcafb1f4878db8dfa81a7ed5845fe256ead8ac39ad68dad8d71570342e", "blockhash": "0000000000000000001e0dab787dd257d1dbfcb92a98c2207d5e1078be1f4165", "vout": [{"scriptPubKey": {"reqSigs": 1, "hex": "76a914e340e96521c053dae8b9550e87545e2149d5419188ac", "addresses": ["1Mic9gzJWjb1gKejo9SRYdtmbZZvNdtCv3"], "asm": "OP_DUP OP_HASH160 e340e96521c053dae8b9550e87545e2149d54191 OP_EQUALVERIFY OP_CHECKSIG", "type": "pubkeyhash"}, "value": 0.01560425, "n": 0}, {"scriptPubKey": {"reqSigs": 1, "hex": "76a914381da498541fa675c6886f49982515893fe3b2ca88ac", "addresses": ["167iMNW9GntAoDxZeLDz7ze13tMYfj7cc2"], "asm": "OP_DUP OP_HASH160 381da498541fa675c6886f49982515893fe3b2ca OP_EQUALVERIFY OP_CHECKSIG", "type": "pubkeyhash"}, "value": 8.275e-05, "n": 1}], "hex": "0100000001eba0928a6267a17a32855f76d1a856364ce208d1177e47fd62820d8ca30a7cfd000000006a47304402202ac44669e0ce663bda44699131067a517cb56c53dd8d120f5195e74b9706fb9302205fb8b151e18a6f7f9b78678a57b62972268a2955cd3e5f18f6df1d895abd39f3012103b0617d8f347d21146ba3bc567d6f25241a2d8948a5d83a26a6095c4a18dcc9e3ffffffff0269cf1700000000001976a914e340e96521c053dae8b9550e87545e2149d5419188ac53200000000000001976a914381da498541fa675c6886f49982515893fe3b2ca88ac00000000", "vin": [{"sequence": 4294967295, "scriptSig": {"hex": "47304402202ac44669e0ce663bda44699131067a517cb56c53dd8d120f5195e74b9706fb9302205fb8b151e18a6f7f9b78678a57b62972268a2955cd3e5f18f6df1d895abd39f3012103b0617d8f347d21146ba3bc567d6f25241a2d8948a5d83a26a6095c4a18dcc9e3", "asm": "304402202ac44669e0ce663bda44699131067a517cb56c53dd8d120f5195e74b9706fb9302205fb8b151e18a6f7f9b78678a57b62972268a2955cd3e5f18f6df1d895abd39f3[ALL] 03b0617d8f347d21146ba3bc567d6f25241a2d8948a5d83a26a6095c4a18dcc9e3"}, "vout": 0, "txid": "fd7c0aa38c0d8262fd477e17d108e24c3656a8d1765f85327aa167628a92a0eb"}], "txid": "b5cc3abcafb1f4878db8dfa81a7ed5845fe256ead8ac39ad68dad8d71570342e", "blocktime": 1537872475, "version": 1, "confirmations": 11486, "time": 1537872475, "locktime": 0, "vsize": 225, "size": 225}