{"hash": "84ad3dc73323d675e2806367de8d0ac2a6c71d20cade2346280e0f6b8eb5dc0d", "blockhash": "0000000000000000000e13cef7c366c0283d82e591d1acd082e914b08063cdf1", "vout": [{"scriptPubKey": {"reqSigs": 1, "hex": "76a9145d0af442a21f4c19f5aa3eb29273694ca368ddf788ac", "addresses": ["19UxxwwrVUmBcmLPwgHRinejh7fXu3kekw"], "asm": "OP_DUP OP_HASH160 5d0af442a21f4c19f5aa3eb29273694ca368ddf7 OP_EQUALVERIFY OP_CHECKSIG", "type": "pubkeyhash"}, "value": 0.00465807, "n": 0}, {"scriptPubKey": {"reqSigs": 1, "hex": "a914f9f668467e1e3af0e082c8ceced275b028351d1887", "addresses": ["3QUhMzQq756c947eWVBAb2js133dGVe1GF"], "asm": "OP_HASH160 f9f668467e1e3af0e082c8ceced275b028351d18 OP_EQUAL", "type": "scripthash"}, "value": 0.01010369, "n": 1}], "hex": "02000000000103476713e49cb99c02dda451bda87fc481fc1402ed0ca32839f7d6efd197b73df7150000001716001413458e3a7dc2199196110b2455087d5a19f60ec9feffffff6e2ef4021fd6a0e4c7b50b9714121c47e74d42c330eb131443b61b84d816bac508000000171600140bf3c40bdfc9c6b7b65db7d8048391c7965b439afeffffffda30ee8428f335423633b036fcc49707c2f5de07df22311372b42428f145611c0100000017160014cafa58c9dc4e48c858829c7dac3c47199520c2a2feffffff028f1b0700000000001976a9145d0af442a21f4c19f5aa3eb29273694ca368ddf788acc16a0f000000000017a914f9f668467e1e3af0e082c8ceced275b028351d188702483045022100d483f8d55eaa4e7263641befd174596305f8e6922adfa20833f3c0d44a448d8f022016b9f9f2e1333099f06fa16a785a991152df5dc1bc68a2978141811ec9e5d3a00121024cfabadc06781f424aa7fc02f085dddbf2bc04459a289c4721e878daafde88370247304402202e2123e78ad80ac423319bb8fcffb60b90a8444b734eb72a1ea1a938c4d8db90022025b87c686c9cf56633536283059977d873585bf8867a67ad244a7a33398eb84a0121033ef83c1b917e257cf84160c5fe56357393c224110985264ddcdad2c0841f59f90247304402203e54c6e0aa6b374a9084bb502796f4922de853ae7065cde6351f0209c1b7c47902205b4ce82f8b1272e3192a5d8b8052c9b0efba8fe9b134e50e0cf111719dfaf71d0121034064e6ca179a738ba614aec8f6c3fb3eaa80d0baaa6a239741e08212d4efc80910490800", "vin": [{"txinwitness": ["3045022100d483f8d55eaa4e7263641befd174596305f8e6922adfa20833f3c0d44a448d8f022016b9f9f2e1333099f06fa16a785a991152df5dc1bc68a2978141811ec9e5d3a001", "024cfabadc06781f424aa7fc02f085dddbf2bc04459a289c4721e878daafde8837"], "sequence": 4294967294, "scriptSig": {"hex": "16001413458e3a7dc2199196110b2455087d5a19f60ec9", "asm": "001413458e3a7dc2199196110b2455087d5a19f60ec9"}, "vout": 21, "txid": "f73db797d1efd6f73928a30ced0214fc81c47fa8bd51a4dd029cb99ce4136747"}, {"txinwitness": ["304402202e2123e78ad80ac423319bb8fcffb60b90a8444b734eb72a1ea1a938c4d8db90022025b87c686c9cf56633536283059977d873585bf8867a67ad244a7a33398eb84a01", "033ef83c1b917e257cf84160c5fe56357393c224110985264ddcdad2c0841f59f9"], "sequence": 4294967294, "scriptSig": {"hex": "1600140bf3c40bdfc9c6b7b65db7d8048391c7965b439a", "asm": "00140bf3c40bdfc9c6b7b65db7d8048391c7965b439a"}, "vout": 8, "txid": "c5ba16d8841bb6431413eb30c3424de7471c1214970bb5c7e4a0d61f02f42e6e"}, {"txinwitness": ["304402203e54c6e0aa6b374a9084bb502796f4922de853ae7065cde6351f0209c1b7c47902205b4ce82f8b1272e3192a5d8b8052c9b0efba8fe9b134e50e0cf111719dfaf71d01", "034064e6ca179a738ba614aec8f6c3fb3eaa80d0baaa6a239741e08212d4efc809"], "sequence": 4294967294, "scriptSig": {"hex": "160014cafa58c9dc4e48c858829c7dac3c47199520c2a2", "asm": "0014cafa58c9dc4e48c858829c7dac3c47199520c2a2"}, "vout": 1, "txid": "1c6145f12824b472133122df07def5c20797c4fc36b033364235f32884ee30da"}], "txid": "b5cd2a032a0a1d409dc29224e378e76e6305a239f1179f8eaa89fa424b5e17c3", "blocktime": 1537871767, "version": 2, "confirmations": 11495, "time": 1537871767, "locktime": 542992, "vsize": 349, "size": 592}