{"hash": "b5eab86f83505a27a6496f06d58dc99f99e0bc3120c12f45481b070237bb8ccf", "blockhash": "00000000000000000017f5eb5941039fbcee6240d03bc1f2f8e35350df66a1d8", "vout": [{"scriptPubKey": {"reqSigs": 1, "hex": "a914800f8ad08ac7b85456c9ac91c7e28f66e97c1e5087", "addresses": ["3DN92zVnwEprwKi7n5btMWwvKUiRrbRHLs"], "asm": "OP_HASH160 800f8ad08ac7b85456c9ac91c7e28f66e97c1e50 OP_EQUAL", "type": "scripthash"}, "value": 0.00531827, "n": 0}, {"scriptPubKey": {"reqSigs": 1, "hex": "76a9143349c2c1f31c0fddbdfdabaeb79f4ce89443061c88ac", "addresses": ["15gBpmkmnmB3hVAQ9x9ffbFoGJ5LQCcHPe"], "asm": "OP_DUP OP_HASH160 3349c2c1f31c0fddbdfdabaeb79f4ce89443061c OP_EQUALVERIFY OP_CHECKSIG", "type": "pubkeyhash"}, "value": 0.00983906, "n": 1}], "hex": "0100000001e8ac4d234fb22173b093e65140789deb8cbe167d4066cc3355e19c0575b2be78010000006a47304402200a0c16b5472f268ecfbbf34bef5318d81ab3466b300e086840665a07681486a4022065feca7f06aba36aaabaa78925ce690f8fc348448a3cf34f5ce624f87c96b550012102ae0c3d4dc3cdb388d5e6eba4c9e5361869f6930178ddd0159a7460743d853c42ffffffff02731d08000000000017a914800f8ad08ac7b85456c9ac91c7e28f66e97c1e508762030f00000000001976a9143349c2c1f31c0fddbdfdabaeb79f4ce89443061c88ac00000000", "vin": [{"sequence": 4294967295, "scriptSig": {"hex": "47304402200a0c16b5472f268ecfbbf34bef5318d81ab3466b300e086840665a07681486a4022065feca7f06aba36aaabaa78925ce690f8fc348448a3cf34f5ce624f87c96b550012102ae0c3d4dc3cdb388d5e6eba4c9e5361869f6930178ddd0159a7460743d853c42", "asm": "304402200a0c16b5472f268ecfbbf34bef5318d81ab3466b300e086840665a07681486a4022065feca7f06aba36aaabaa78925ce690f8fc348448a3cf34f5ce624f87c96b550[ALL] 02ae0c3d4dc3cdb388d5e6eba4c9e5361869f6930178ddd0159a7460743d853c42"}, "vout": 1, "txid": "78beb275059ce15533cc66407d16be8ceb9d784051e693b07321b24f234dace8"}], "txid": "b5eab86f83505a27a6496f06d58dc99f99e0bc3120c12f45481b070237bb8ccf", "blocktime": 1537874412, "version": 1, "confirmations": 11468, "time": 1537874412, "locktime": 0, "vsize": 223, "size": 223}