{"hash": "b5ea024acb22770c9c40aa86eb11fd1953c8f50479dc0da222ac3a967f9c2c5c", "blockhash": "0000000000000000000e13cef7c366c0283d82e591d1acd082e914b08063cdf1", "vout": [{"scriptPubKey": {"reqSigs": 1, "hex": "76a914ce6d370e4bbd8034ea18def4c46ae5835b56b5c088ac", "addresses": ["1KpV2uvzC7eRVp79RSkk2KMBb1MbZFSEEM"], "asm": "OP_DUP OP_HASH160 ce6d370e4bbd8034ea18def4c46ae5835b56b5c0 OP_EQUALVERIFY OP_CHECKSIG", "type": "pubkeyhash"}, "value": 2.39075948, "n": 0}, {"scriptPubKey": {"reqSigs": 1, "hex": "76a9141e71519d19e98403934d95120ad5c6251c98b5e088ac", "addresses": ["13my2HSP4FTXdtT1aRY5kg91cqi6acBPZ6"], "asm": "OP_DUP OP_HASH160 1e71519d19e98403934d95120ad5c6251c98b5e0 OP_EQUALVERIFY OP_CHECKSIG", "type": "pubkeyhash"}, "value": 7.6014197, "n": 1}], "hex": "01000000023dd246aa0a4aac15b0b25e14f291f9e3ff039f0efb3b6333841f5c3c54349a11000000006a4730440220229674801829aea1a502f3985f0cac17d2b29de67177830686e47b6f41c95ce2022010ca08fa6114f909ea22567b1455631c41a3deccdb7ea299da8e322afeb49951012102d0d820287ec5ab1ec28fd736c1d4c2519527ebc50277791135222164c8ba2c0bffffffffcb5ae322477262227ab7125efb354f44daa420f1da60134186c895369b1ce78b010000006a473044022009adede26e5e4e4102f273a4bcb94dc89650f7377e27edb5ccc57607df8919a502205ee4da39c1a9d59b5b719317636f0d676ca87a8d4c90222d1a0388fb39298c2f0121037169dea305cb0b6d99762428a694e5961c52c95e34583fed9908eaa4daf40eb6ffffffff026c02400e000000001976a914ce6d370e4bbd8034ea18def4c46ae5835b56b5c088ac92d84e2d000000001976a9141e71519d19e98403934d95120ad5c6251c98b5e088ac00000000", "vin": [{"sequence": 4294967295, "scriptSig": {"hex": "4730440220229674801829aea1a502f3985f0cac17d2b29de67177830686e47b6f41c95ce2022010ca08fa6114f909ea22567b1455631c41a3deccdb7ea299da8e322afeb49951012102d0d820287ec5ab1ec28fd736c1d4c2519527ebc50277791135222164c8ba2c0b", "asm": "30440220229674801829aea1a502f3985f0cac17d2b29de67177830686e47b6f41c95ce2022010ca08fa6114f909ea22567b1455631c41a3deccdb7ea299da8e322afeb49951[ALL] 02d0d820287ec5ab1ec28fd736c1d4c2519527ebc50277791135222164c8ba2c0b"}, "vout": 0, "txid": "119a34543c5c1f8433633bfb0e9f03ffe3f991f2145eb2b015ac4a0aaa46d23d"}, {"sequence": 4294967295, "scriptSig": {"hex": "473044022009adede26e5e4e4102f273a4bcb94dc89650f7377e27edb5ccc57607df8919a502205ee4da39c1a9d59b5b719317636f0d676ca87a8d4c90222d1a0388fb39298c2f0121037169dea305cb0b6d99762428a694e5961c52c95e34583fed9908eaa4daf40eb6", "asm": "3044022009adede26e5e4e4102f273a4bcb94dc89650f7377e27edb5ccc57607df8919a502205ee4da39c1a9d59b5b719317636f0d676ca87a8d4c90222d1a0388fb39298c2f[ALL] 037169dea305cb0b6d99762428a694e5961c52c95e34583fed9908eaa4daf40eb6"}, "vout": 1, "txid": "8be71c9b3695c886411360daf120a4da444f35fb5e12b77a2262724722e35acb"}], "txid": "b5ea024acb22770c9c40aa86eb11fd1953c8f50479dc0da222ac3a967f9c2c5c", "blocktime": 1537871767, "version": 1, "confirmations": 11495, "time": 1537871767, "locktime": 0, "vsize": 372, "size": 372}