{"hash": "b5ebca92900612820ec1cd017bace36f0b919fd1e391eda0540c2d5de838b563", "blockhash": "00000000000000000004ffacab907a6b429b9a5745fa0b75af4234bf69dd7176", "vout": [{"scriptPubKey": {"reqSigs": 1, "hex": "a91401536f64da28617234bb859d8f5c71e46dcabceb87", "addresses": ["31p2YukGcPCrGwKNfabFnTfozGdDc5DdDy"], "asm": "OP_HASH160 01536f64da28617234bb859d8f5c71e46dcabceb OP_EQUAL", "type": "scripthash"}, "value": 0.03585277, "n": 0}], "hex": "01000000019ed9779b04e208d82cbd8ca791a1cff89043255a8dc0e56e0cb3514b6cd348ba000000006a473044022019baff4e271a1df4c115239ef35fdee77c1484e2bef927dfe238362c5002418202203bc2075b80ed1b0bd823974b027169d2d8489a47c0571bfb98a6595ab20a25d101210245faa7708f3420f25d5f058d0256fdb6b45fd04680dbb4ec8d33a55d2e1ce92fffffffff01fdb436000000000017a91401536f64da28617234bb859d8f5c71e46dcabceb8700000000", "vin": [{"sequence": 4294967295, "scriptSig": {"hex": "473044022019baff4e271a1df4c115239ef35fdee77c1484e2bef927dfe238362c5002418202203bc2075b80ed1b0bd823974b027169d2d8489a47c0571bfb98a6595ab20a25d101210245faa7708f3420f25d5f058d0256fdb6b45fd04680dbb4ec8d33a55d2e1ce92f", "asm": "3044022019baff4e271a1df4c115239ef35fdee77c1484e2bef927dfe238362c5002418202203bc2075b80ed1b0bd823974b027169d2d8489a47c0571bfb98a6595ab20a25d1[ALL] 0245faa7708f3420f25d5f058d0256fdb6b45fd04680dbb4ec8d33a55d2e1ce92f"}, "vout": 0, "txid": "ba48d36c4b51b30c6ee5c08d5a254390f8cfa191a78cbd2cd808e2049b77d99e"}], "txid": "b5ebca92900612820ec1cd017bace36f0b919fd1e391eda0540c2d5de838b563", "blocktime": 1537875543, "version": 1, "confirmations": 11464, "time": 1537875543, "locktime": 0, "vsize": 189, "size": 189}