{"hash": "95b7a5a2ea5c04bde33a80ccb9ba9fde7a96ae039b79969215fd0d80a3569072", "blockhash": "0000000000000000000e13cef7c366c0283d82e591d1acd082e914b08063cdf1", "vout": [{"scriptPubKey": {"reqSigs": 1, "hex": "a91407ef07dba779eed052e2145a1e4436a54c96b21387", "addresses": ["32Qy12ife1ybbyJ2SMm5uqVsXTmFzMXzPc"], "asm": "OP_HASH160 07ef07dba779eed052e2145a1e4436a54c96b213 OP_EQUAL", "type": "scripthash"}, "value": 0.00313123, "n": 0}], "hex": "010000000001014728852dfcb00c8033dc65f91afc57e415573bb99590f281af6bdf7e4331746b7901000017160014577cde808fa6add43505249fde17ce7a3ef53b5fffffffff0123c704000000000017a91407ef07dba779eed052e2145a1e4436a54c96b213870247304402201b05c25c39b6ee7353299d331112144ccbee690fa153ece8eb0a14ab01b8d202022041636bf3f10190220337f04187c9db55f9c8e74eb609e83b8eefb9109514c4fb0121032a02d8b2340ef03c9d791e00a311d2e79fbb1a7132369a7857f54891af65111300000000", "vin": [{"txinwitness": ["304402201b05c25c39b6ee7353299d331112144ccbee690fa153ece8eb0a14ab01b8d202022041636bf3f10190220337f04187c9db55f9c8e74eb609e83b8eefb9109514c4fb01", "032a02d8b2340ef03c9d791e00a311d2e79fbb1a7132369a7857f54891af651113"], "sequence": 4294967295, "scriptSig": {"hex": "160014577cde808fa6add43505249fde17ce7a3ef53b5f", "asm": "0014577cde808fa6add43505249fde17ce7a3ef53b5f"}, "vout": 377, "txid": "6b7431437edf6baf81f29095b93b5715e457fc1af965dc33800cb0fc2d852847"}], "txid": "b5eded133ca84a47b0e573ac4d20bd2917f5581aabebc0ee1ccfde4a6a86aad8", "blocktime": 1537871767, "version": 1, "confirmations": 11495, "time": 1537871767, "locktime": 0, "vsize": 134, "size": 215}