{"hash": "ddc0672d597d0570a471596c01ffced1c4385f8033a1e646a2ed8693d3437f0d", "blockhash": "0000000000000000000dcc0f55137456b1a82d3642486a52398922ac4d620174", "vout": [{"scriptPubKey": {"reqSigs": 1, "hex": "a9143344d8edf413179dc8817ae11f73bbc7a632ccda87", "addresses": ["36N6rvieibakJoSmJ4j29D5wncdPj1ATDD"], "asm": "OP_HASH160 3344d8edf413179dc8817ae11f73bbc7a632ccda OP_EQUAL", "type": "scripthash"}, "value": 0.99661018, "n": 0}, {"scriptPubKey": {"reqSigs": 1, "hex": "76a9147d9f7e5dfa386cac07219dfb299bf044c0cd6ced88ac", "addresses": ["1CTEXnpE1ThAkdjZC8zoNThaZiZXesWtbw"], "asm": "OP_DUP OP_HASH160 7d9f7e5dfa386cac07219dfb299bf044c0cd6ced OP_EQUALVERIFY OP_CHECKSIG", "type": "pubkeyhash"}, "value": 0.00338925, "n": 1}, {"scriptPubKey": {"reqSigs": 1, "hex": "76a91498647674a0ae154339c0da80f681f68a00b0ea0f88ac", "addresses": ["1Etn4Rx8HuknntsQGTU6pUwjP5Az3aj49t"], "asm": "OP_DUP OP_HASH160 98647674a0ae154339c0da80f681f68a00b0ea0f OP_EQUALVERIFY OP_CHECKSIG", "type": "pubkeyhash"}, "value": 0.00610029, "n": 2}], "hex": "0200000000010139ec558f02a57584f6839bb4090d2ebdc1709b4948a2dc74a0cb9cb50db09cf600000000171600143348df9d8b8b5caa24ec3e396526e46677edbfb7fdffffff03dab4f0050000000017a9143344d8edf413179dc8817ae11f73bbc7a632ccda87ed2b0500000000001976a9147d9f7e5dfa386cac07219dfb299bf044c0cd6ced88aced4e0900000000001976a91498647674a0ae154339c0da80f681f68a00b0ea0f88ac02483045022100ce6308cd1d173510b0f0b6444a9257d0ff54bfbbf13bd2c8e84395c7f136616902207167dd59f5fcbde015ac0575fd7cfc4655b61dddb0984e397bc62541d3be0700012103bb7be13b72555ad177ab36b04189833ad9c7acff3b32c51987749377668a82c40c490800", "vin": [{"txinwitness": ["3045022100ce6308cd1d173510b0f0b6444a9257d0ff54bfbbf13bd2c8e84395c7f136616902207167dd59f5fcbde015ac0575fd7cfc4655b61dddb0984e397bc62541d3be070001", "03bb7be13b72555ad177ab36b04189833ad9c7acff3b32c51987749377668a82c4"], "sequence": 4294967293, "scriptSig": {"hex": "1600143348df9d8b8b5caa24ec3e396526e46677edbfb7", "asm": "00143348df9d8b8b5caa24ec3e396526e46677edbfb7"}, "vout": 0, "txid": "f69cb00db59ccba074dca248499b70c1bd2e0d09b49b83f68475a5028f55ec39"}], "txid": "b5f14d9759a9299ac88c9c33309a0964a218703ee0cce88aaa30f7c3ff69acb5", "blocktime": 1537870268, "version": 2, "confirmations": 11518, "time": 1537870268, "locktime": 542988, "vsize": 202, "size": 284}