{"hash": "b5f18f4d3513a3304b3871783e9c3ff05d6f2c6e6ba6440a12b67644cc8c7a25", "blockhash": "0000000000000000000baef3f32e3676a92c3b2e5da21b426e4f302fc371ce76", "vout": [{"scriptPubKey": {"reqSigs": 1, "hex": "a9146e4c56f1ecc0807ac02517c1b4faf6305bff3c0287", "addresses": ["3BkDhpFdQqUTY43Z3dAyzS8yDeDkZppfW9"], "asm": "OP_HASH160 6e4c56f1ecc0807ac02517c1b4faf6305bff3c02 OP_EQUAL", "type": "scripthash"}, "value": 0.0020108, "n": 0}], "hex": "0100000001b23527600302af85a58b4649e61345a8070292e8f2d86068aa307f5927e84f4a010000006b4830450221009e7bbaa4fa9fd86f02e74f602936d63e3213180846059a46b781073ac275166a022079789d596e064fa8eab6f044b2679be0519fffdd561b16a5590ada065ce0cd2801210345aac8ab462982c003eabc3dc31e44d57f61870f155e7229156c0a78c4e137deffffffff01781103000000000017a9146e4c56f1ecc0807ac02517c1b4faf6305bff3c028700000000", "vin": [{"sequence": 4294967295, "scriptSig": {"hex": "4830450221009e7bbaa4fa9fd86f02e74f602936d63e3213180846059a46b781073ac275166a022079789d596e064fa8eab6f044b2679be0519fffdd561b16a5590ada065ce0cd2801210345aac8ab462982c003eabc3dc31e44d57f61870f155e7229156c0a78c4e137de", "asm": "30450221009e7bbaa4fa9fd86f02e74f602936d63e3213180846059a46b781073ac275166a022079789d596e064fa8eab6f044b2679be0519fffdd561b16a5590ada065ce0cd28[ALL] 0345aac8ab462982c003eabc3dc31e44d57f61870f155e7229156c0a78c4e137de"}, "vout": 1, "txid": "4a4fe827597f30aa6860d8f2e8920207a84513e649468ba585af0203602735b2"}], "txid": "b5f18f4d3513a3304b3871783e9c3ff05d6f2c6e6ba6440a12b67644cc8c7a25", "blocktime": 1537876114, "version": 1, "confirmations": 11459, "time": 1537876114, "locktime": 0, "vsize": 190, "size": 190}