{"hash": "b5fb17b2f3f984c4fe1ccd92124b854e21a06b24bad99f3350f46b3c7ad2510d", "blockhash": "0000000000000000001e0dab787dd257d1dbfcb92a98c2207d5e1078be1f4165", "vout": [{"scriptPubKey": {"reqSigs": 1, "hex": "a914f6ea098911676bd26bb5ed5feb7d56dbc6c3a86d87", "addresses": ["3QCaWviyeWrgw7Ubu7T6MBd3YhAYu7JkVB"], "asm": "OP_HASH160 f6ea098911676bd26bb5ed5feb7d56dbc6c3a86d OP_EQUAL", "type": "scripthash"}, "value": 0.00099093, "n": 0}], "hex": "01000000017d04f9523a04d8c065db51aa546cbe46b5f9cc670ee217b7a6cdbc6ddcebea20000000006b483045022100a54bdaeefeb78241464af669f35cfd048e9738033d937d113da8d419120e92ee022070917d1b8068a8f625e1619cf2fcbec862d65e0a3b48d7f6fb147dc99a06225d01210392d83bd27764931b41af1ec4069236a2afe2f7fc9ac52371cc3abd55a99c7556fdffffff01158301000000000017a914f6ea098911676bd26bb5ed5feb7d56dbc6c3a86d8712490800", "vin": [{"sequence": 4294967293, "scriptSig": {"hex": "483045022100a54bdaeefeb78241464af669f35cfd048e9738033d937d113da8d419120e92ee022070917d1b8068a8f625e1619cf2fcbec862d65e0a3b48d7f6fb147dc99a06225d01210392d83bd27764931b41af1ec4069236a2afe2f7fc9ac52371cc3abd55a99c7556", "asm": "3045022100a54bdaeefeb78241464af669f35cfd048e9738033d937d113da8d419120e92ee022070917d1b8068a8f625e1619cf2fcbec862d65e0a3b48d7f6fb147dc99a06225d[ALL] 0392d83bd27764931b41af1ec4069236a2afe2f7fc9ac52371cc3abd55a99c7556"}, "vout": 0, "txid": "20eaebdc6dbccda6b717e20e67ccf9b546be6c54aa51db65c0d8043a52f9047d"}], "txid": "b5fb17b2f3f984c4fe1ccd92124b854e21a06b24bad99f3350f46b3c7ad2510d", "blocktime": 1537872475, "version": 1, "confirmations": 11488, "time": 1537872475, "locktime": 542994, "vsize": 190, "size": 190}