{"hash": "cd522231d798d9e1a0dfb61811cd2ff09d4293d0ff57831eb35bb46f80ff1dd3", "blockhash": "000000000000000000022b45ed06c6f4ccd3cf7fb5ba4856ebd2e58215665228", "vout": [{"scriptPubKey": {"reqSigs": 1, "hex": "a914cfaabfe8c271f99a4364b5197ba50c6cddb7adb987", "addresses": ["3Ld4M9RPwEG3VeQbHcC1PsKUndQL7VYLZP"], "asm": "OP_HASH160 cfaabfe8c271f99a4364b5197ba50c6cddb7adb9 OP_EQUAL", "type": "scripthash"}, "value": 0.01550853, "n": 0}, {"scriptPubKey": {"reqSigs": 1, "hex": "a9142ec736b2fd1ce9cf8835d2029441c78be8e81b7a87", "addresses": ["35xMeyaZb7YEDVX6PYniM8ycqCHFUJbMDM"], "asm": "OP_HASH160 2ec736b2fd1ce9cf8835d2029441c78be8e81b7a OP_EQUAL", "type": "scripthash"}, "value": 0.00630754, "n": 1}], "hex": "01000000000101a766537d0e1def668f512fbd7a5b8d64605b7ace788def71cc99ebfcdc26e6140100000023220020b35356b7d538be7d762fc2c3d9e9537fefb9d098cc1aaef8b022eb72104cc2d8ffffffff0205aa17000000000017a914cfaabfe8c271f99a4364b5197ba50c6cddb7adb987e29f09000000000017a9142ec736b2fd1ce9cf8835d2029441c78be8e81b7a8704004730440220191c0c55fc717e0e7842f7537c9544bb8f4a508449db3ef9d82b27a42a9c4e5002200dcb9945497f31ee1942fd4327c7a8afa2def9c4bceccf4f0a8a8631a45f10b3014830450221008f94ed866397698f3437280f6edaa1194d62037891691b71418b19d21fe4404f022028019530199085d297a3c60eac99b357fff819286a8d5b0c76540f33e1f5a9a10147522102711a83dd06272bd1b6f154eca718f71487085e20395b6d571f4c5b23912b275f21033e4af03ed09dbd8a417ba042650d5bd1db7f14f271a8f660974e3abf1fdfa4da52ae00000000", "vin": [{"txinwitness": ["", "30440220191c0c55fc717e0e7842f7537c9544bb8f4a508449db3ef9d82b27a42a9c4e5002200dcb9945497f31ee1942fd4327c7a8afa2def9c4bceccf4f0a8a8631a45f10b301", "30450221008f94ed866397698f3437280f6edaa1194d62037891691b71418b19d21fe4404f022028019530199085d297a3c60eac99b357fff819286a8d5b0c76540f33e1f5a9a101", "522102711a83dd06272bd1b6f154eca718f71487085e20395b6d571f4c5b23912b275f21033e4af03ed09dbd8a417ba042650d5bd1db7f14f271a8f660974e3abf1fdfa4da52ae"], "sequence": 4294967295, "scriptSig": {"hex": "220020b35356b7d538be7d762fc2c3d9e9537fefb9d098cc1aaef8b022eb72104cc2d8", "asm": "0020b35356b7d538be7d762fc2c3d9e9537fefb9d098cc1aaef8b022eb72104cc2d8"}, "vout": 1, "txid": "14e626dcfceb99cc71ef8d78ce7a5b60648d5b7abd2f518f66ef1d0e7d5366a7"}], "txid": "b5ff1e4bd647f3b1bc5f944f5a4b987dda3b4a29ca399847999d06f1f8ceb36f", "blocktime": 1537869901, "version": 1, "confirmations": 11524, "time": 1537869901, "locktime": 0, "vsize": 206, "size": 371}