{"hash": "b60051c7abccbb44f74252b61c54b3fa403e91a2524483c2e14911578ae445df", "blockhash": "0000000000000000001e0dab787dd257d1dbfcb92a98c2207d5e1078be1f4165", "vout": [{"scriptPubKey": {"reqSigs": 1, "hex": "76a914cf809368734783b874cb1e44585f3bccee3e0a7988ac", "addresses": ["1KvAuK9ptoNTveFeDHSS6nbaMw8CfnkVR3"], "asm": "OP_DUP OP_HASH160 cf809368734783b874cb1e44585f3bccee3e0a79 OP_EQUALVERIFY OP_CHECKSIG", "type": "pubkeyhash"}, "value": 4.286e-05, "n": 0}], "hex": "0100000001fb69ac89bad41dd1f3258396640ecb62f6d95406a9970ee5458a7def6965ab53010000006a47304402205d7822362dd4e9729b31063fa46ca8cb6f81457c2876cf77050c99308aee685f02202cea1dbbcefd8077518b1472df58c3f8847326f2a3217e58e8a6b40c79ec00b50121020a73f862e88c00577609d7aceacdb229dd12d4899c4c2de5d3d16d391594d5b4ffffffff01be100000000000001976a914cf809368734783b874cb1e44585f3bccee3e0a7988ac00000000", "vin": [{"sequence": 4294967295, "scriptSig": {"hex": "47304402205d7822362dd4e9729b31063fa46ca8cb6f81457c2876cf77050c99308aee685f02202cea1dbbcefd8077518b1472df58c3f8847326f2a3217e58e8a6b40c79ec00b50121020a73f862e88c00577609d7aceacdb229dd12d4899c4c2de5d3d16d391594d5b4", "asm": "304402205d7822362dd4e9729b31063fa46ca8cb6f81457c2876cf77050c99308aee685f02202cea1dbbcefd8077518b1472df58c3f8847326f2a3217e58e8a6b40c79ec00b5[ALL] 020a73f862e88c00577609d7aceacdb229dd12d4899c4c2de5d3d16d391594d5b4"}, "vout": 1, "txid": "53ab6569ef7d8a45e50e97a90654d9f662cb0e64968325f3d11dd4ba89ac69fb"}], "txid": "b60051c7abccbb44f74252b61c54b3fa403e91a2524483c2e14911578ae445df", "blocktime": 1537872475, "version": 1, "confirmations": 11487, "time": 1537872475, "locktime": 0, "vsize": 191, "size": 191}