{"hash": "b601dcee6a0e6db7eddb92ae4a660e5e612f8c9040f8b072a61f04959b201a10", "blockhash": "00000000000000000004ffacab907a6b429b9a5745fa0b75af4234bf69dd7176", "vout": [{"scriptPubKey": {"type": "nulldata", "hex": "6a33bd09c651dd62671a01d51e17daf48297ea3bd54842576c00c2be5829ccbda55036e534bf4aed5fe91b90c6443852b494bf21ba", "asm": "OP_RETURN bd09c651dd62671a01d51e17daf48297ea3bd54842576c00c2be5829ccbda55036e534bf4aed5fe91b90c6443852b494bf21ba"}, "value": 0.0, "n": 0}, {"scriptPubKey": {"reqSigs": 1, "hex": "76a914777dd7bd7fb1bea3219259636c48440b3218f6fd88ac", "addresses": ["1BtpAXzZuN5bANnAapMWCZ3rQVLWmMFbxB"], "asm": "OP_DUP OP_HASH160 777dd7bd7fb1bea3219259636c48440b3218f6fd OP_EQUALVERIFY OP_CHECKSIG", "type": "pubkeyhash"}, "value": 0.00381365, "n": 1}], "hex": "010000000142e75c0bf8ae795e51e4ec19f8ad41dc5ea967af63e8931bc8fd222058707749010000006a47304402206f7a64b297c679bcc11d9780db0342ea64e7f26dd1e86b9a841d934b277a819e0220388bbf856c6d716f8aa071d073cc2d7758658146cc80a5f9a15c7b6c6f509bb701210283eb2c18d1af341e4e6627db8de4c51a7a9b9bd8634bb01ab40cf2d586c4fe92ffffffff020000000000000000356a33bd09c651dd62671a01d51e17daf48297ea3bd54842576c00c2be5829ccbda55036e534bf4aed5fe91b90c6443852b494bf21bab5d10500000000001976a914777dd7bd7fb1bea3219259636c48440b3218f6fd88ac00000000", "vin": [{"sequence": 4294967295, "scriptSig": {"hex": "47304402206f7a64b297c679bcc11d9780db0342ea64e7f26dd1e86b9a841d934b277a819e0220388bbf856c6d716f8aa071d073cc2d7758658146cc80a5f9a15c7b6c6f509bb701210283eb2c18d1af341e4e6627db8de4c51a7a9b9bd8634bb01ab40cf2d586c4fe92", "asm": "304402206f7a64b297c679bcc11d9780db0342ea64e7f26dd1e86b9a841d934b277a819e0220388bbf856c6d716f8aa071d073cc2d7758658146cc80a5f9a15c7b6c6f509bb7[ALL] 0283eb2c18d1af341e4e6627db8de4c51a7a9b9bd8634bb01ab40cf2d586c4fe92"}, "vout": 1, "txid": "497770582022fdc81b93e863af67a95edc41adf819ece4515e79aef80b5ce742"}], "txid": "b601dcee6a0e6db7eddb92ae4a660e5e612f8c9040f8b072a61f04959b201a10", "blocktime": 1537875543, "version": 1, "confirmations": 11464, "time": 1537875543, "locktime": 0, "vsize": 253, "size": 253}