{"hash": "b609d52c2722541a1cdd4ba9b1a0a0ec5630c6b422e989b74b8e46ca8d7ae6a0", "blockhash": "0000000000000000001cda96e906b7601b7a6fb1a3b62bca570a9e5d8f4b3de1", "vout": [{"scriptPubKey": {"reqSigs": 1, "hex": "a91481896a4138ebbdd31372bb62d899920010d230b887", "addresses": ["3DVwi4AroyCmopALEjefGvhk777ecmjcgf"], "asm": "OP_HASH160 81896a4138ebbdd31372bb62d899920010d230b8 OP_EQUAL", "type": "scripthash"}, "value": 0.0028677, "n": 0}, {"scriptPubKey": {"reqSigs": 1, "hex": "76a9140ebc6197bfa94e3516f72d047110034d4bd3f53288ac", "addresses": ["12Lv8eFxefMdvngH54Rppj1m2fEQmXB9YB"], "asm": "OP_DUP OP_HASH160 0ebc6197bfa94e3516f72d047110034d4bd3f532 OP_EQUALVERIFY OP_CHECKSIG", "type": "pubkeyhash"}, "value": 0.07498799, "n": 1}], "hex": "0100000001e988741169f667be5a0a495aa6d89f71f8f7a88d43194d9c68fdd4d3fe6ee738010000006b483045022100d8b886b7d3222de77bbab8ed9851adc35002d4fe86c9136f89404d4df938f23e0220673c1c85d0838b129f3f5885df234c834013cf04d32a40308e9e349a9b51cd5601210305aa61f03090df02a8b6af174e0cb3f404e72ccccf526f91107c521ca8817fa4ffffffff02326004000000000017a91481896a4138ebbdd31372bb62d899920010d230b8872f6c7200000000001976a9140ebc6197bfa94e3516f72d047110034d4bd3f53288ac00000000", "vin": [{"sequence": 4294967295, "scriptSig": {"hex": "483045022100d8b886b7d3222de77bbab8ed9851adc35002d4fe86c9136f89404d4df938f23e0220673c1c85d0838b129f3f5885df234c834013cf04d32a40308e9e349a9b51cd5601210305aa61f03090df02a8b6af174e0cb3f404e72ccccf526f91107c521ca8817fa4", "asm": "3045022100d8b886b7d3222de77bbab8ed9851adc35002d4fe86c9136f89404d4df938f23e0220673c1c85d0838b129f3f5885df234c834013cf04d32a40308e9e349a9b51cd56[ALL] 0305aa61f03090df02a8b6af174e0cb3f404e72ccccf526f91107c521ca8817fa4"}, "vout": 1, "txid": "38e76efed3d4fd689c4d19438da8f7f8719fd8a65a490a5abe67f669117488e9"}], "txid": "b609d52c2722541a1cdd4ba9b1a0a0ec5630c6b422e989b74b8e46ca8d7ae6a0", "blocktime": 1537873282, "version": 1, "confirmations": 11482, "time": 1537873282, "locktime": 0, "vsize": 224, "size": 224}