{"hash": "70b14c0bd2e829f702a17746305abd7a22addf982d01cc933b949d9c38a9000b", "blockhash": "0000000000000000001cda96e906b7601b7a6fb1a3b62bca570a9e5d8f4b3de1", "vout": [{"scriptPubKey": {"reqSigs": 1, "hex": "76a914eddfb9395db2e6affa76766037458aec634cff2e88ac", "addresses": ["1NgmA3k7ak5B7WydLVVsmQE7dDb7uSwh3W"], "asm": "OP_DUP OP_HASH160 eddfb9395db2e6affa76766037458aec634cff2e OP_EQUALVERIFY OP_CHECKSIG", "type": "pubkeyhash"}, "value": 0.08779153, "n": 0}, {"scriptPubKey": {"reqSigs": 1, "hex": "a914759abcbc748bd6fb0691a22f1a341e45f271dec387", "addresses": ["3CQrMKYeLA8kCF9kk47evsdx4AkcicdhFq"], "asm": "OP_HASH160 759abcbc748bd6fb0691a22f1a341e45f271dec3 OP_EQUAL", "type": "scripthash"}, "value": 0.91044606, "n": 1}], "hex": "01000000000101ea2d41230ca1246223e83116760f6ebdd1aa33b736619a1d58faeedb7429c96f00000000232200209cf7f9589fe130d78793782fd94368887fc67907ce045cf454010791a690e88affffffff0291f58500000000001976a914eddfb9395db2e6affa76766037458aec634cff2e88acfe3a6d050000000017a914759abcbc748bd6fb0691a22f1a341e45f271dec3870400473044022062808b5a0e411c44cc241c0615929a710fc08939ce30ee7c6bdc7b7fac96e02302200a37016968dc342e193a3995e548460d7e4dec5174a71477d1ffa76c8dca1c2c014730440220796af5d93bca093598208b70840a5d80100d3df843e1f0ae8a70128ca52fd8430220060fad5a810de29db9ae69f165603ef099e1636e9d4006eb85890bc89961e19e01695221030c1f3c0db3d521cc15f3d6272a80e23542df2479db21c5a9b8747e22860e3f0621026c9dd858b67415de704bf49f5b98fc3b7f00b67463408ee014c142355160b3ed2103e0d759b60d1076ac1b9aa015d0b857f79cd99a06f703c9756df45776c9135ee653ae00000000", "vin": [{"txinwitness": ["", "3044022062808b5a0e411c44cc241c0615929a710fc08939ce30ee7c6bdc7b7fac96e02302200a37016968dc342e193a3995e548460d7e4dec5174a71477d1ffa76c8dca1c2c01", "30440220796af5d93bca093598208b70840a5d80100d3df843e1f0ae8a70128ca52fd8430220060fad5a810de29db9ae69f165603ef099e1636e9d4006eb85890bc89961e19e01", "5221030c1f3c0db3d521cc15f3d6272a80e23542df2479db21c5a9b8747e22860e3f0621026c9dd858b67415de704bf49f5b98fc3b7f00b67463408ee014c142355160b3ed2103e0d759b60d1076ac1b9aa015d0b857f79cd99a06f703c9756df45776c9135ee653ae"], "sequence": 4294967295, "scriptSig": {"hex": "2200209cf7f9589fe130d78793782fd94368887fc67907ce045cf454010791a690e88a", "asm": "00209cf7f9589fe130d78793782fd94368887fc67907ce045cf454010791a690e88a"}, "vout": 0, "txid": "6fc92974dbeefa581d9a6136b733aad1bd6e0f761631e8236224a10c23412dea"}], "txid": "b60d15a92ea4737aa42cb410c50b017734a3ee6f9359f38f2d85a0be23d76f42", "blocktime": 1537873282, "version": 1, "confirmations": 11484, "time": 1537873282, "locktime": 0, "vsize": 216, "size": 406}