{"hash": "70d5795fa90a34fc236aaaaa92bda141077bf0a7c00ca7de3984db6ab62726b5", "blockhash": "0000000000000000001f76057863aec43deb6fa401d9628bb513d65a8098bfab", "vout": [{"scriptPubKey": {"reqSigs": 1, "hex": "00142ef9ab56f4d54e07294bd9a15b7253ed5badcc58", "addresses": ["bc1q9mu6k4h5648qw22tmxs4kujna4d6mnzcy3qkuq"], "asm": "0 2ef9ab56f4d54e07294bd9a15b7253ed5badcc58", "type": "witness_v0_keyhash"}, "value": 0.01389495, "n": 0}, {"scriptPubKey": {"reqSigs": 1, "hex": "a91469f3747ee8df3fa77b21cabcaa700bcf1329c49a87", "addresses": ["3BMEXEtBdeZmbRjxA987SqSAFRScV5rCZK"], "asm": "OP_HASH160 69f3747ee8df3fa77b21cabcaa700bcf1329c49a OP_EQUAL", "type": "scripthash"}, "value": 0.41683017, "n": 1}], "hex": "01000000000101ca62e1fcc28b53a54c503e2bbdf3f5a1fb0b5021cf6f2ecf774fb95caf7466680000000000ffffffff02b7331500000000001600142ef9ab56f4d54e07294bd9a15b7253ed5badcc5849087c020000000017a91469f3747ee8df3fa77b21cabcaa700bcf1329c49a870247304402202fd1a4c6c1f7c5c0fae28b73dc6dab06b1c049b9ad65fad05b83f6451905dc6a02200b1357b2351cc2a452322b99027014ad7c81b60dc884dbedaf22e5b7b38e48b2012103d3401670c0c3aa1ded592916bbf2323262919c98c308c8521e631ae4ef6fa5ac00000000", "vin": [{"txinwitness": ["304402202fd1a4c6c1f7c5c0fae28b73dc6dab06b1c049b9ad65fad05b83f6451905dc6a02200b1357b2351cc2a452322b99027014ad7c81b60dc884dbedaf22e5b7b38e48b201", "03d3401670c0c3aa1ded592916bbf2323262919c98c308c8521e631ae4ef6fa5ac"], "sequence": 4294967295, "scriptSig": {"hex": "", "asm": ""}, "vout": 0, "txid": "686674af5cb94f77cf2e6fcf21500bfba1f5f3bd2b3e504ca5538bc2fce162ca"}], "txid": "b617b343a5717fd9be8a82400946b6569a5050afd410db4e598616dc3df29791", "blocktime": 1537873891, "version": 1, "confirmations": 11478, "time": 1537873891, "locktime": 0, "vsize": 142, "size": 223}