{"hash": "c2ceaa33050110c10f3a89ff9daac71ce549727fc697af5b083d7f40fca47305", "blockhash": "00000000000000000024a2167bbff67b0be802c0b01cdd79e6331c2be6459f87", "vout": [{"scriptPubKey": {"reqSigs": 1, "hex": "00141ea68d660dba874746b5d404655feccf25ad0be5", "addresses": ["bc1qr6ng6esdh2r5w3446szx2hlveuj66zl9vv7j27"], "asm": "0 1ea68d660dba874746b5d404655feccf25ad0be5", "type": "witness_v0_keyhash"}, "value": 0.00199112, "n": 0}, {"scriptPubKey": {"reqSigs": 1, "hex": "a91469f376093dc5da0157b76432e0d5a298a91cc21b87", "addresses": ["3BMEXf8a8Qqc5eFZ7U1jXazjXCHFbyY2UJ"], "asm": "OP_HASH160 69f376093dc5da0157b76432e0d5a298a91cc21b OP_EQUAL", "type": "scripthash"}, "value": 0.0196554, "n": 1}], "hex": "01000000000101d9ed52223219e9b80fe182db72a25b7c49b67f3fb52cc6a65c68a40b838e8b9505000000171600141b04983a2de27caee7a3ee2cf4d2b57131322675ffffffff02c8090300000000001600141ea68d660dba874746b5d404655feccf25ad0be5e4fd1d000000000017a91469f376093dc5da0157b76432e0d5a298a91cc21b870247304402206b59f72d06ed89c7b3b2d2bf1b7f8a5dab513ba15a99857768e12cc3d801cd7c0220652cb84b647fdc9c74154892eef439466c5134f4d8ba646fe0021f45c77794fb0121023aa93339241978a7ff7f046c6c756fbb46d42f1fddd7069b1be8a9a0c803847c00000000", "vin": [{"txinwitness": ["304402206b59f72d06ed89c7b3b2d2bf1b7f8a5dab513ba15a99857768e12cc3d801cd7c0220652cb84b647fdc9c74154892eef439466c5134f4d8ba646fe0021f45c77794fb01", "023aa93339241978a7ff7f046c6c756fbb46d42f1fddd7069b1be8a9a0c803847c"], "sequence": 4294967295, "scriptSig": {"hex": "1600141b04983a2de27caee7a3ee2cf4d2b57131322675", "asm": "00141b04983a2de27caee7a3ee2cf4d2b57131322675"}, "vout": 5, "txid": "958b8e830ba4685ca6c62cb53f7fb6497c5ba272db82e10fb8e919322252edd9"}], "txid": "b61cab112bc686bb28080abc14b56df00e042086ab5cb533379508c03dda41e1", "blocktime": 1537870564, "version": 1, "confirmations": 11515, "time": 1537870564, "locktime": 0, "vsize": 165, "size": 246}