{"hash": "da15931dfbcc840a69ac3b8b8047e3e0ac855fb5741d4e09e72e93b67d890eed", "blockhash": "0000000000000000000baef3f32e3676a92c3b2e5da21b426e4f302fc371ce76", "vout": [{"scriptPubKey": {"reqSigs": 1, "hex": "76a9148b1421eeceb33849e1a75d6e07eff421a9513d1388ac", "addresses": ["1DgP3Vv5WhoKjriPPhHSE4YK3gcdcPMFpY"], "asm": "OP_DUP OP_HASH160 8b1421eeceb33849e1a75d6e07eff421a9513d13 OP_EQUALVERIFY OP_CHECKSIG", "type": "pubkeyhash"}, "value": 0.00930865, "n": 0}, {"scriptPubKey": {"reqSigs": 1, "hex": "a914a5c679defd49547b8133a1367eeadbdeaecec3da87", "addresses": ["3GoZBZ6F8g4UiCt7moPNLDX7KKwgtGgLUT"], "asm": "OP_HASH160 a5c679defd49547b8133a1367eeadbdeaecec3da OP_EQUAL", "type": "scripthash"}, "value": 0.26690407, "n": 1}], "hex": "0100000000010115fc5552369088876282739febfc4e6fb7099a3e5f75edbff7777d204a720de401000000232200202d90cd274cea8141a030c0b79acc5b5c0b80b73d028692a1104913808bff6c09ffffffff0231340e00000000001976a9148b1421eeceb33849e1a75d6e07eff421a9513d1388ac674397010000000017a914a5c679defd49547b8133a1367eeadbdeaecec3da870400483045022100fd9ba75ababf54f03d67f8bfa46591a6584c47e29d081d8cc061be738afd543f022028310e3b5b27520b157be67e83ff0c5dfdc74b5d418bacfe2630f57df13eaa5c0147304402206f481ad81037b4ee09cfb616c292fa3b8bd61c31973ffb8d242176cae08cc77d02200eca880f9c5c6d5a140832a75eb5bbc38cae850e8152bb26ff7371416d238976014752210295d70c0f10033e6e119fdc61ddd495bfe23995150af6df4688db5bf235f2853b21023e4b58fb2a91970de56515d11487aabd364f0404f1099bef70493cc56002342352ae00000000", "vin": [{"txinwitness": ["", "3045022100fd9ba75ababf54f03d67f8bfa46591a6584c47e29d081d8cc061be738afd543f022028310e3b5b27520b157be67e83ff0c5dfdc74b5d418bacfe2630f57df13eaa5c01", "304402206f481ad81037b4ee09cfb616c292fa3b8bd61c31973ffb8d242176cae08cc77d02200eca880f9c5c6d5a140832a75eb5bbc38cae850e8152bb26ff7371416d23897601", "52210295d70c0f10033e6e119fdc61ddd495bfe23995150af6df4688db5bf235f2853b21023e4b58fb2a91970de56515d11487aabd364f0404f1099bef70493cc56002342352ae"], "sequence": 4294967295, "scriptSig": {"hex": "2200202d90cd274cea8141a030c0b79acc5b5c0b80b73d028692a1104913808bff6c09", "asm": "00202d90cd274cea8141a030c0b79acc5b5c0b80b73d028692a1104913808bff6c09"}, "vout": 1, "txid": "e40d724a207d77f7bfed755f3e9a09b76f4efceb9f738262878890365255fc15"}], "txid": "b61cf5a75475dbcc46d5a973cc094a1a7f5e0795222e7716e7f7d4becfca641a", "blocktime": 1537876114, "version": 1, "confirmations": 11462, "time": 1537876114, "locktime": 0, "vsize": 208, "size": 373}