{"hash": "b62819750d9fcc3758eabd86c9795d620dc2d765dfd40bb9cd0b3d3e8c3a64be", "blockhash": "0000000000000000000dcc0f55137456b1a82d3642486a52398922ac4d620174", "vout": [{"scriptPubKey": {"reqSigs": 1, "hex": "76a9144f9dd9ec82776635b87f8d80d6c1fc5de61e1cf288ac", "addresses": ["18FyUrTkRE9cCLXX1x78XzCRQ8T87vSkG4"], "asm": "OP_DUP OP_HASH160 4f9dd9ec82776635b87f8d80d6c1fc5de61e1cf2 OP_EQUALVERIFY OP_CHECKSIG", "type": "pubkeyhash"}, "value": 0.034657, "n": 0}, {"scriptPubKey": {"reqSigs": 1, "hex": "76a914c78d7e0224de99c32093b37f5a4a3da3e86ed1c188ac", "addresses": ["1KC8yE7Uo3x99mkTcuk8UKffTSCqQwSDce"], "asm": "OP_DUP OP_HASH160 c78d7e0224de99c32093b37f5a4a3da3e86ed1c1 OP_EQUALVERIFY OP_CHECKSIG", "type": "pubkeyhash"}, "value": 0.14122001, "n": 1}], "hex": "010000000175a9a734f10ea5df5802def469cd2f7897b3c08aa2b3a6d12edb92d102d1340a010000006a47304402206c843b0dd296c375ab186943cf4522103fab516e35159cd8f29e7748f017179a02202dc8c6ca7447f205b71284213bd30cc84299324c25dff023d36656f4d37a4fd20121034649e90d320ac4bbd64ac00d5704cad87b27677d838f831a7e92c70f360af57afdffffff02e4e13400000000001976a9144f9dd9ec82776635b87f8d80d6c1fc5de61e1cf288ac117cd700000000001976a914c78d7e0224de99c32093b37f5a4a3da3e86ed1c188ac0c490800", "vin": [{"sequence": 4294967293, "scriptSig": {"hex": "47304402206c843b0dd296c375ab186943cf4522103fab516e35159cd8f29e7748f017179a02202dc8c6ca7447f205b71284213bd30cc84299324c25dff023d36656f4d37a4fd20121034649e90d320ac4bbd64ac00d5704cad87b27677d838f831a7e92c70f360af57a", "asm": "304402206c843b0dd296c375ab186943cf4522103fab516e35159cd8f29e7748f017179a02202dc8c6ca7447f205b71284213bd30cc84299324c25dff023d36656f4d37a4fd2[ALL] 034649e90d320ac4bbd64ac00d5704cad87b27677d838f831a7e92c70f360af57a"}, "vout": 1, "txid": "0a34d102d192db2ed1a6b3a28ac0b397782fcd69f4de0258dfa50ef134a7a975"}], "txid": "b62819750d9fcc3758eabd86c9795d620dc2d765dfd40bb9cd0b3d3e8c3a64be", "blocktime": 1537870268, "version": 1, "confirmations": 11516, "time": 1537870268, "locktime": 542988, "vsize": 225, "size": 225}