{"hash": "b62ff1ae5f9ac9f9af2407a500a873451761a16fbb26a8274bbd213c61e19dae", "blockhash": "0000000000000000001cda96e906b7601b7a6fb1a3b62bca570a9e5d8f4b3de1", "vout": [{"scriptPubKey": {"reqSigs": 1, "hex": "76a9143f2fafd6f7bc30b8527d3aaf7b176e77e687e72588ac", "addresses": ["16m6hRnnBPq5upYynKEKeXJ56fSYkuzB1S"], "asm": "OP_DUP OP_HASH160 3f2fafd6f7bc30b8527d3aaf7b176e77e687e725 OP_EQUALVERIFY OP_CHECKSIG", "type": "pubkeyhash"}, "value": 0.00638106, "n": 0}, {"scriptPubKey": {"type": "nulldata", "hex": "6a4c50000077cf0001b1b02ff17b58618c774e48ff5b23cc0f42c2fc38c5e5bf9ae76da98a211ae7a78624fdbcdcbd42117f7e4e16711b5baa143b0613884ab21119dc1d100759d4ba30d2c37bb011d97e02cf", "asm": "OP_RETURN 000077cf0001b1b02ff17b58618c774e48ff5b23cc0f42c2fc38c5e5bf9ae76da98a211ae7a78624fdbcdcbd42117f7e4e16711b5baa143b0613884ab21119dc1d100759d4ba30d2c37bb011d97e02cf"}, "value": 0.0, "n": 1}], "hex": "0100000001c1817a7807585ca5305a10122a2f55ba43d13d6f43637c9882661ebf78843cd0010000006a473044022018f609187cbdf5ca35c5878fd5ed58b08c1e6bdc7d52d0eac57aa3717c0a86d2022024ed9d7cf669df610b2ee76b9f63f0201aed11acaaf207c2d7b7da72768db4b7012102efded259e647df614403dd124e149c99debc887ee6e1b67192ec0ca28815f339ffffffff029abc0900000000001976a9143f2fafd6f7bc30b8527d3aaf7b176e77e687e72588ac0000000000000000536a4c50000077cf0001b1b02ff17b58618c774e48ff5b23cc0f42c2fc38c5e5bf9ae76da98a211ae7a78624fdbcdcbd42117f7e4e16711b5baa143b0613884ab21119dc1d100759d4ba30d2c37bb011d97e02cf00000000", "vin": [{"sequence": 4294967295, "scriptSig": {"hex": "473044022018f609187cbdf5ca35c5878fd5ed58b08c1e6bdc7d52d0eac57aa3717c0a86d2022024ed9d7cf669df610b2ee76b9f63f0201aed11acaaf207c2d7b7da72768db4b7012102efded259e647df614403dd124e149c99debc887ee6e1b67192ec0ca28815f339", "asm": "3044022018f609187cbdf5ca35c5878fd5ed58b08c1e6bdc7d52d0eac57aa3717c0a86d2022024ed9d7cf669df610b2ee76b9f63f0201aed11acaaf207c2d7b7da72768db4b7[ALL] 02efded259e647df614403dd124e149c99debc887ee6e1b67192ec0ca28815f339"}, "vout": 1, "txid": "d03c8478bf1e6682987c63436f3dd143ba552f2a12105a30a55c5807787a81c1"}], "txid": "b62ff1ae5f9ac9f9af2407a500a873451761a16fbb26a8274bbd213c61e19dae", "blocktime": 1537873282, "version": 1, "confirmations": 11484, "time": 1537873282, "locktime": 0, "vsize": 283, "size": 283}