{"hash": "09c4481992fd728f9dc00dad9e73ac78a8d891eecfc3d4100231cdcf6fa172da", "blockhash": "0000000000000000001f0ddff1eddb255c1121bcd4da4f1bc9a0da00cae72433", "vout": [{"scriptPubKey": {"reqSigs": 1, "hex": "a9140f9bfbcb1989ce914d2c6f9ad85408a6a3529c7287", "addresses": ["337YvMDysgpACJYJ1w9atcJXghfxkRFR6c"], "asm": "OP_HASH160 0f9bfbcb1989ce914d2c6f9ad85408a6a3529c72 OP_EQUAL", "type": "scripthash"}, "value": 0.00101713, "n": 0}, {"scriptPubKey": {"reqSigs": 1, "hex": "a914050995de1723a86889b16669bcdfa87621fe598587", "addresses": ["329enWWSgLxGkqDCuAFSqvKRznCpCpargE"], "asm": "OP_HASH160 050995de1723a86889b16669bcdfa87621fe5985 OP_EQUAL", "type": "scripthash"}, "value": 0.05482613, "n": 1}], "hex": "010000000001015a56cc04b6ca94bb5e74d469f3cbf5ec5d407dddf1b647a28d9d725bb8fcb81a070000002322002018dd772bb2dc9fb5aa4a13f11a9d2c78ed560cf2a0daeda7e1f5758590f8d3c7ffffffff02518d01000000000017a9140f9bfbcb1989ce914d2c6f9ad85408a6a3529c728775a853000000000017a914050995de1723a86889b16669bcdfa87621fe5985870400473044022059555d671c69f9261581c62c161cfce493e49a3e851533a3ac21e4ca76f2f7bc02205d3bbfc747ed5a31e0d427316a93a09d1408a73a1a600696238aa425a6e7f24b01483045022100c3af11adf4f28d718400fd80af2d04daa50da94aa9e8830295f294420c2c4ba902206517bf3cf3e7eb0671a2234fea3d768aeda288d313a1e3a10ad575c95e9775e60147522102484fc77d9e8b8b2ef802cda9e6a6c8f6170bf4fb09806f1667e7aea3ace553c321030580d373ab00643a581abb399b43fa66d7b6fc29624eb75b2d5ec8d99faa163f52ae00000000", "vin": [{"txinwitness": ["", "3044022059555d671c69f9261581c62c161cfce493e49a3e851533a3ac21e4ca76f2f7bc02205d3bbfc747ed5a31e0d427316a93a09d1408a73a1a600696238aa425a6e7f24b01", "3045022100c3af11adf4f28d718400fd80af2d04daa50da94aa9e8830295f294420c2c4ba902206517bf3cf3e7eb0671a2234fea3d768aeda288d313a1e3a10ad575c95e9775e601", "522102484fc77d9e8b8b2ef802cda9e6a6c8f6170bf4fb09806f1667e7aea3ace553c321030580d373ab00643a581abb399b43fa66d7b6fc29624eb75b2d5ec8d99faa163f52ae"], "sequence": 4294967295, "scriptSig": {"hex": "22002018dd772bb2dc9fb5aa4a13f11a9d2c78ed560cf2a0daeda7e1f5758590f8d3c7", "asm": "002018dd772bb2dc9fb5aa4a13f11a9d2c78ed560cf2a0daeda7e1f5758590f8d3c7"}, "vout": 7, "txid": "1ab8fcb85b729d8da247b6f1dd7d405decf5cbf369d4745ebb94cab604cc565a"}], "txid": "b633e3db2fc4655ad4b48e58dd1bac39d7a3ace96027765db2327b28bb5f80a8", "blocktime": 1537872018, "version": 1, "confirmations": 11489, "time": 1537872018, "locktime": 0, "vsize": 206, "size": 371}