{"hash": "b63b30d83b1c6602a2db0134da122296ea5825f27f74667291180b85798ab8c2", "blockhash": "0000000000000000001f76057863aec43deb6fa401d9628bb513d65a8098bfab", "vout": [{"scriptPubKey": {"reqSigs": 1, "hex": "76a914e247d05b24ca6f2146994b0e562932b765e6316588ac", "addresses": ["1MdTk55RKqhRVYqajvHbTY1pYWgbh8kyKH"], "asm": "OP_DUP OP_HASH160 e247d05b24ca6f2146994b0e562932b765e63165 OP_EQUALVERIFY OP_CHECKSIG", "type": "pubkeyhash"}, "value": 0.01291409, "n": 0}, {"scriptPubKey": {"reqSigs": 1, "hex": "a9145c187a5f98e7d25667dcf9ee79bb51db130bb54887", "addresses": ["3A5yQxLUXrxQDfQqaep6xpsV16DDRxzukn"], "asm": "OP_HASH160 5c187a5f98e7d25667dcf9ee79bb51db130bb548 OP_EQUAL", "type": "scripthash"}, "value": 0.0788103, "n": 1}], "hex": "01000000014cdcdc536d247b6c3029cd011bf150056f79e55be49232f72a1cac02c0f0cf61000000006a4730440220494bb2f1f5d210b129c7958ce9e3208b9360f30ba30617ae50a666dc9575171b022038c125b73aa15e31d54412f40b3606883042df94ded63f07e3dcc16e9ca4923d01210219ce392c362519887f9bfe8411bf43513405c2656d684c629321f774824cf70fffffffff0291b41300000000001976a914e247d05b24ca6f2146994b0e562932b765e6316588ac464178000000000017a9145c187a5f98e7d25667dcf9ee79bb51db130bb5488700000000", "vin": [{"sequence": 4294967295, "scriptSig": {"hex": "4730440220494bb2f1f5d210b129c7958ce9e3208b9360f30ba30617ae50a666dc9575171b022038c125b73aa15e31d54412f40b3606883042df94ded63f07e3dcc16e9ca4923d01210219ce392c362519887f9bfe8411bf43513405c2656d684c629321f774824cf70f", "asm": "30440220494bb2f1f5d210b129c7958ce9e3208b9360f30ba30617ae50a666dc9575171b022038c125b73aa15e31d54412f40b3606883042df94ded63f07e3dcc16e9ca4923d[ALL] 0219ce392c362519887f9bfe8411bf43513405c2656d684c629321f774824cf70f"}, "vout": 0, "txid": "61cff0c002ac1c2af73292e45be5796f0550f11b01cd29306c7b246d53dcdc4c"}], "txid": "b63b30d83b1c6602a2db0134da122296ea5825f27f74667291180b85798ab8c2", "blocktime": 1537873891, "version": 1, "confirmations": 11478, "time": 1537873891, "locktime": 0, "vsize": 223, "size": 223}