{"hash": "cbbeafce47dec85714889f5921739a0e8f9185ecc9b72c9fa85ded1dc9fb0765", "blockhash": "00000000000000000004ffacab907a6b429b9a5745fa0b75af4234bf69dd7176", "vout": [{"scriptPubKey": {"reqSigs": 1, "hex": "a9144daca8489da3073736f270029082133cfbcf379f87", "addresses": ["38minkvz7KnPigYzgJYgN1U7JuxWR69M3V"], "asm": "OP_HASH160 4daca8489da3073736f270029082133cfbcf379f OP_EQUAL", "type": "scripthash"}, "value": 0.065, "n": 0}, {"scriptPubKey": {"reqSigs": 1, "hex": "a91460ae512a2d1bb3e456aac5b113c413e6e5f32d9e87", "addresses": ["3AWDcijmqdgb4Hxpra3p2k8nfm76UFCDed"], "asm": "OP_HASH160 60ae512a2d1bb3e456aac5b113c413e6e5f32d9e OP_EQUAL", "type": "scripthash"}, "value": 1.46940082, "n": 1}], "hex": "0100000000010179bd2d0ea5b52c224d4afb90d06e9be49262e31801b44570418cdf13a00b37a1010000001716001477e99dd7a32a59ac5363f1a4ae92ef9abf52562effffffff02a02e63000000000017a9144daca8489da3073736f270029082133cfbcf379f87b220c2080000000017a91460ae512a2d1bb3e456aac5b113c413e6e5f32d9e870248304502210095bf0b0db1951b3d3c5ee3cc63a57c6a4735c36247c93afd97e41ce28f0a567f022067a984014ed6772b234a73ede250bc77722b00902c7cf53f2030dab0a0a303f70121039491c9e6aac0909a55af38b9cc363993844c9da2ec40369f8d70b851cf8e2c9d00000000", "vin": [{"txinwitness": ["304502210095bf0b0db1951b3d3c5ee3cc63a57c6a4735c36247c93afd97e41ce28f0a567f022067a984014ed6772b234a73ede250bc77722b00902c7cf53f2030dab0a0a303f701", "039491c9e6aac0909a55af38b9cc363993844c9da2ec40369f8d70b851cf8e2c9d"], "sequence": 4294967295, "scriptSig": {"hex": "16001477e99dd7a32a59ac5363f1a4ae92ef9abf52562e", "asm": "001477e99dd7a32a59ac5363f1a4ae92ef9abf52562e"}, "vout": 1, "txid": "a1370ba013df8c417045b40118e36292e49b6ed090fb4a4d222cb5a50e2dbd79"}], "txid": "b63d2fd04a04523a1d119c5ff1ad703db2054b971118ad19e031df728d7db80c", "blocktime": 1537875543, "version": 1, "confirmations": 11464, "time": 1537875543, "locktime": 0, "vsize": 166, "size": 248}