{"hash": "1c008215140412f792319234c3e3fca7178bb715faf75caf57e8582649bb2cfe", "blockhash": "0000000000000000000e13cef7c366c0283d82e591d1acd082e914b08063cdf1", "vout": [{"scriptPubKey": {"reqSigs": 1, "hex": "a914de4c2edab7ad0e5ad0e8e0b2ab662f2badaca05587", "addresses": ["3MxRCRHMhaRFsqVoRZnYNaRvCYbxan1WL1"], "asm": "OP_HASH160 de4c2edab7ad0e5ad0e8e0b2ab662f2badaca055 OP_EQUAL", "type": "scripthash"}, "value": 0.01043531, "n": 0}, {"scriptPubKey": {"reqSigs": 1, "hex": "76a91450b2adcfbb103870b0a2f1cef02d0c548466a09688ac", "addresses": ["18Mh7BJRdMn2f1t6Rn81dVyfQDxoNaKyNz"], "asm": "OP_DUP OP_HASH160 50b2adcfbb103870b0a2f1cef02d0c548466a096 OP_EQUALVERIFY OP_CHECKSIG", "type": "pubkeyhash"}, "value": 0.0021186, "n": 1}], "hex": "0200000000010231f558f3065f7b5408d3696504a6b6426dda14adfb8adf9545a28f1fd95dae1b0000000017160014740e215675639596dc9ff16782a3f37f4f83dc5ffeffffffcbe7084546657802179ca5fd284c0808a64079d1c7d7f88835cacd53746946a8010000001716001437a56b22a2864630269dc5b738ad8bc94c47de3efeffffff024bec0f000000000017a914de4c2edab7ad0e5ad0e8e0b2ab662f2badaca05587943b0300000000001976a91450b2adcfbb103870b0a2f1cef02d0c548466a09688ac02483045022100b1bc41cfbd04c607af5a6f66a8d8fadc2c8fd62aab80428413ef5c6cad2456670220554aa5d40fc5672d96d4c5c36b45ab1556dba1113888600aa53edcb3c17d11b8012103b4fd6a4543a7699ed761e03606dfdb5a58de2964504e827bb1bbdf2300fff9d802473044022049b99dbaa63993e50ef072a841b9f0a4825696bcf8a736b8f027ede07b6a6d4402201d3c271e7807f4ab5516cbdb356df9734656028f22275fe76b8190b9ccd541090121036f6a4470fb1df08d773239bc4b168b8e8f9d4e841e8d8c7df40f6a55be17c6b010490800", "vin": [{"txinwitness": ["3045022100b1bc41cfbd04c607af5a6f66a8d8fadc2c8fd62aab80428413ef5c6cad2456670220554aa5d40fc5672d96d4c5c36b45ab1556dba1113888600aa53edcb3c17d11b801", "03b4fd6a4543a7699ed761e03606dfdb5a58de2964504e827bb1bbdf2300fff9d8"], "sequence": 4294967294, "scriptSig": {"hex": "160014740e215675639596dc9ff16782a3f37f4f83dc5f", "asm": "0014740e215675639596dc9ff16782a3f37f4f83dc5f"}, "vout": 0, "txid": "1bae5dd91f8fa24595df8afbad14da6d42b6a6046569d308547b5f06f358f531"}, {"txinwitness": ["3044022049b99dbaa63993e50ef072a841b9f0a4825696bcf8a736b8f027ede07b6a6d4402201d3c271e7807f4ab5516cbdb356df9734656028f22275fe76b8190b9ccd5410901", "036f6a4470fb1df08d773239bc4b168b8e8f9d4e841e8d8c7df40f6a55be17c6b0"], "sequence": 4294967294, "scriptSig": {"hex": "16001437a56b22a2864630269dc5b738ad8bc94c47de3e", "asm": "001437a56b22a2864630269dc5b738ad8bc94c47de3e"}, "vout": 1, "txid": "a846697453cdca3588f8d7c7d17940a608084c28fda59c17027865464508e7cb"}], "txid": "b642e20e1cdc572443d219ad8dfa1acb80127abe82c67327efa36708c328c643", "blocktime": 1537871767, "version": 2, "confirmations": 11495, "time": 1537871767, "locktime": 542992, "vsize": 259, "size": 421}