{"hash": "b644569a5248cb6dd02c6cf6d11c460d4c6238f1973cb209f22b8ed1afaf0519", "blockhash": "0000000000000000000dcc0f55137456b1a82d3642486a52398922ac4d620174", "vout": [{"scriptPubKey": {"reqSigs": 1, "hex": "76a9147cc28b3c295472c012a1154f9b8ffec2024998b288ac", "addresses": ["1CNfqw8GQJWu2QnDy7yzV3yfGUgtUheMhd"], "asm": "OP_DUP OP_HASH160 7cc28b3c295472c012a1154f9b8ffec2024998b2 OP_EQUALVERIFY OP_CHECKSIG", "type": "pubkeyhash"}, "value": 0.028, "n": 0}, {"scriptPubKey": {"reqSigs": 1, "hex": "76a914ace9c98c092d3af77c5048cef4705419fdd8eb0d88ac", "addresses": ["1GmHHpbvKYyXNKH1VW7cWpPw6gGMhabAHz"], "asm": "OP_DUP OP_HASH160 ace9c98c092d3af77c5048cef4705419fdd8eb0d OP_EQUALVERIFY OP_CHECKSIG", "type": "pubkeyhash"}, "value": 1.58722649, "n": 1}], "hex": "0100000001ee0949ea296f37fba5b3da05d8f6e00dfeb8fcf6aed52d4333bc3ef5bc403bad010000006b483045022100a264a19d3bf2766cb32f5e3a66ca7b7c31f87d157a33986d2fe667d8b0abe0c10220716b04bf2d35524842eef0751f312afb4bb45fc2a1a9ebe191bc04491aa1705a012102600a079855e57a09f86a7a749d8f060926c00b2fc3b0c779c9e774b13e93230bffffffff0280b92a00000000001976a9147cc28b3c295472c012a1154f9b8ffec2024998b288ac59ea7509000000001976a914ace9c98c092d3af77c5048cef4705419fdd8eb0d88ac00000000", "vin": [{"sequence": 4294967295, "scriptSig": {"hex": "483045022100a264a19d3bf2766cb32f5e3a66ca7b7c31f87d157a33986d2fe667d8b0abe0c10220716b04bf2d35524842eef0751f312afb4bb45fc2a1a9ebe191bc04491aa1705a012102600a079855e57a09f86a7a749d8f060926c00b2fc3b0c779c9e774b13e93230b", "asm": "3045022100a264a19d3bf2766cb32f5e3a66ca7b7c31f87d157a33986d2fe667d8b0abe0c10220716b04bf2d35524842eef0751f312afb4bb45fc2a1a9ebe191bc04491aa1705a[ALL] 02600a079855e57a09f86a7a749d8f060926c00b2fc3b0c779c9e774b13e93230b"}, "vout": 1, "txid": "ad3b40bcf53ebc33432dd5aef6fcb8fe0de0f6d805dab3a5fb376f29ea4909ee"}], "txid": "b644569a5248cb6dd02c6cf6d11c460d4c6238f1973cb209f22b8ed1afaf0519", "blocktime": 1537870268, "version": 1, "confirmations": 11518, "time": 1537870268, "locktime": 0, "vsize": 226, "size": 226}