{"hash": "b64629cfa7b60e228232d573ffdd2ed7308e00a1b0a25857f04515b50624a34c", "blockhash": "0000000000000000001e0dab787dd257d1dbfcb92a98c2207d5e1078be1f4165", "vout": [{"scriptPubKey": {"reqSigs": 1, "hex": "76a91469d2814f0c6de478d0a642588346035e4cb6f88088ac", "addresses": ["1AeY8J3QkgvyNApmH994ihjCRXndtVBVCJ"], "asm": "OP_DUP OP_HASH160 69d2814f0c6de478d0a642588346035e4cb6f880 OP_EQUALVERIFY OP_CHECKSIG", "type": "pubkeyhash"}, "value": 0.00738808, "n": 0}, {"scriptPubKey": {"reqSigs": 1, "hex": "a914f23b9d24dbb7d16710e9fac6da5ffcaa013e649187", "addresses": ["3Pmps1VALBZWgbgBM7r75EwBsVFhFZkn8k"], "asm": "OP_HASH160 f23b9d24dbb7d16710e9fac6da5ffcaa013e6491 OP_EQUAL", "type": "scripthash"}, "value": 0.468296, "n": 1}], "hex": "010000000172a2dc1aae5aba23ab7bb042e79ef385668a52f9533065dee4d8c4da70e8a3c61e0000006a47304402206909a6830ae3752ab940a6b5484c3da2eb12f3feb7b0e8eab41464d6f55671fd022024d6594a6ac0e1115322e058d64205d7539875f71d884c29354e95c53f940443012102e64e8de58cd551a18a49ba7782a52eae49a5a438853ca9b5cdd0af0af6ddd35bffffffff02f8450b00000000001976a91469d2814f0c6de478d0a642588346035e4cb6f88088ac2090ca020000000017a914f23b9d24dbb7d16710e9fac6da5ffcaa013e64918700000000", "vin": [{"sequence": 4294967295, "scriptSig": {"hex": "47304402206909a6830ae3752ab940a6b5484c3da2eb12f3feb7b0e8eab41464d6f55671fd022024d6594a6ac0e1115322e058d64205d7539875f71d884c29354e95c53f940443012102e64e8de58cd551a18a49ba7782a52eae49a5a438853ca9b5cdd0af0af6ddd35b", "asm": "304402206909a6830ae3752ab940a6b5484c3da2eb12f3feb7b0e8eab41464d6f55671fd022024d6594a6ac0e1115322e058d64205d7539875f71d884c29354e95c53f940443[ALL] 02e64e8de58cd551a18a49ba7782a52eae49a5a438853ca9b5cdd0af0af6ddd35b"}, "vout": 30, "txid": "c6a3e870dac4d8e4de653053f9528a6685f39ee742b07bab23ba5aae1adca272"}], "txid": "b64629cfa7b60e228232d573ffdd2ed7308e00a1b0a25857f04515b50624a34c", "blocktime": 1537872475, "version": 1, "confirmations": 11486, "time": 1537872475, "locktime": 0, "vsize": 223, "size": 223}