{"hash": "4d38c00ba4b7fff7d441d9dcde987483280a5519a6d353fd52df0fe149c3a29c", "blockhash": "00000000000000000017f5eb5941039fbcee6240d03bc1f2f8e35350df66a1d8", "vout": [{"scriptPubKey": {"reqSigs": 1, "hex": "001475f960e6b078ed2ac207337ff3ff3713bed23f9e", "addresses": ["bc1qwhukpe4s0rkj4ss8xdll8lehzwldy0u7t76eqe"], "asm": "0 75f960e6b078ed2ac207337ff3ff3713bed23f9e", "type": "witness_v0_keyhash"}, "value": 0.00935744, "n": 0}, {"scriptPubKey": {"reqSigs": 1, "hex": "a9145a1932082cad1ddc26d5b1668d55acb26da5124e87", "addresses": ["39uQvRCwr15Kq2USG2wcGTfSgX3fJ8Rm1e"], "asm": "OP_HASH160 5a1932082cad1ddc26d5b1668d55acb26da5124e OP_EQUAL", "type": "scripthash"}, "value": 0.0547, "n": 1}], "hex": "010000000001018f1cd98e4a382f8c5961fc5b4d71f86de81321b1e8d4362cafa8b7f2430f0a050100000000ffffffff0240470e000000000016001475f960e6b078ed2ac207337ff3ff3713bed23f9e307753000000000017a9145a1932082cad1ddc26d5b1668d55acb26da5124e8702483045022100cc474ddb6e79985fb3911e027dbb50519eefad11c6e2585c69222a3a176b1dda02204cf012e042d1657c2d5da2bfc8695732e50561198bc56214f0ff7172a87579ee01210245e88ece624fdf3318474f0fc098d853977e0c43252d6710c5187c1e8f6ef56200000000", "vin": [{"txinwitness": ["3045022100cc474ddb6e79985fb3911e027dbb50519eefad11c6e2585c69222a3a176b1dda02204cf012e042d1657c2d5da2bfc8695732e50561198bc56214f0ff7172a87579ee01", "0245e88ece624fdf3318474f0fc098d853977e0c43252d6710c5187c1e8f6ef562"], "sequence": 4294967295, "scriptSig": {"hex": "", "asm": ""}, "vout": 1, "txid": "050a0f43f2b7a8af2c36d4e8b12113e86df8714d5bfc61598c2f384a8ed91c8f"}], "txid": "b652c0a5f2e1ca9a50ed1f87586d43591928824db80b07d9f4ea6bb7c602f5a8", "blocktime": 1537874412, "version": 1, "confirmations": 11468, "time": 1537874412, "locktime": 0, "vsize": 142, "size": 224}