{"hash": "b6563645fcf41a42188bcc1408bf70f2f0f1720063eba3c70fbe4afa52207043", "blockhash": "0000000000000000001e0dab787dd257d1dbfcb92a98c2207d5e1078be1f4165", "vout": [{"scriptPubKey": {"reqSigs": 1, "hex": "76a9148e2145c3cb054a5f6d4e89e55efe0f3ac07c06d988ac", "addresses": ["1DxWp4CD2SfTxPQfyfC7Lca6Kf6ysgA3YR"], "asm": "OP_DUP OP_HASH160 8e2145c3cb054a5f6d4e89e55efe0f3ac07c06d9 OP_EQUALVERIFY OP_CHECKSIG", "type": "pubkeyhash"}, "value": 0.00351569, "n": 0}], "hex": "0100000001786bcc0a0819f06cb2d0d6d5f5a38e20416eb87b4ec80b08830e2a3e4870610d030000006b483045022100cc59cdd9cf78541224767f209e51e075b1d4a65086d8697cc2092c865ce88419022006fc6712e1b1e0b430f125471b348b9ea2a9c0feb23b8922a523da0047217f8b012103c73656375923d8c39fb0f98608c89f131fd57384e9b809818e5e15d25ff2385fffffffff01515d0500000000001976a9148e2145c3cb054a5f6d4e89e55efe0f3ac07c06d988ac00000000", "vin": [{"sequence": 4294967295, "scriptSig": {"hex": "483045022100cc59cdd9cf78541224767f209e51e075b1d4a65086d8697cc2092c865ce88419022006fc6712e1b1e0b430f125471b348b9ea2a9c0feb23b8922a523da0047217f8b012103c73656375923d8c39fb0f98608c89f131fd57384e9b809818e5e15d25ff2385f", "asm": "3045022100cc59cdd9cf78541224767f209e51e075b1d4a65086d8697cc2092c865ce88419022006fc6712e1b1e0b430f125471b348b9ea2a9c0feb23b8922a523da0047217f8b[ALL] 03c73656375923d8c39fb0f98608c89f131fd57384e9b809818e5e15d25ff2385f"}, "vout": 3, "txid": "0d6170483e2a0e83080bc84e7bb86e41208ea3f5d5d6d0b26cf019080acc6b78"}], "txid": "b6563645fcf41a42188bcc1408bf70f2f0f1720063eba3c70fbe4afa52207043", "blocktime": 1537872475, "version": 1, "confirmations": 11487, "time": 1537872475, "locktime": 0, "vsize": 192, "size": 192}