{"hash": "b6591e84c7a8c15c875421cf82088f023bcc7a210ef681885fa17e096799b40c", "blockhash": "0000000000000000001e0dab787dd257d1dbfcb92a98c2207d5e1078be1f4165", "vout": [{"scriptPubKey": {"reqSigs": 1, "hex": "a914052868d97571c1a043c208b70ee75e0050038e9287", "addresses": ["32AHiD55DMQHQs3EFq4ENcknATiQBmrHYh"], "asm": "OP_HASH160 052868d97571c1a043c208b70ee75e0050038e92 OP_EQUAL", "type": "scripthash"}, "value": 0.02658, "n": 0}, {"scriptPubKey": {"reqSigs": 1, "hex": "0014d7decd0e3494c29aa19b2cd401d220f11db50e4d", "addresses": ["bc1q6l0v6r35jnpf4gvm9n2qr53q7ywm2rjddsqnce"], "asm": "0 d7decd0e3494c29aa19b2cd401d220f11db50e4d", "type": "witness_v0_keyhash"}, "value": 0.00069481, "n": 1}], "hex": "0100000001727430b31c6637e7744b8c0343abf787209a1bf89311974bc37d9c03cd6f366f0d0000006a4730440220164fa8d84ee6d1fff74fb9da9689e511930c8d2650a2083c2edc697f33027418022018b0ba4afd32fea2d89fd87bc49ec3c30e0a51676f036a5d3d5de0a306c28ad901210277258e51de95e091595469d224dfbdb1f5ae91eeb3f25017529479f11099a9b8ffffffff02d08e28000000000017a914052868d97571c1a043c208b70ee75e0050038e9287690f010000000000160014d7decd0e3494c29aa19b2cd401d220f11db50e4d00000000", "vin": [{"sequence": 4294967295, "scriptSig": {"hex": "4730440220164fa8d84ee6d1fff74fb9da9689e511930c8d2650a2083c2edc697f33027418022018b0ba4afd32fea2d89fd87bc49ec3c30e0a51676f036a5d3d5de0a306c28ad901210277258e51de95e091595469d224dfbdb1f5ae91eeb3f25017529479f11099a9b8", "asm": "30440220164fa8d84ee6d1fff74fb9da9689e511930c8d2650a2083c2edc697f33027418022018b0ba4afd32fea2d89fd87bc49ec3c30e0a51676f036a5d3d5de0a306c28ad9[ALL] 0277258e51de95e091595469d224dfbdb1f5ae91eeb3f25017529479f11099a9b8"}, "vout": 13, "txid": "6f366fcd039c7dc34b971193f81b9a2087f7ab43038c4b74e737661cb3307472"}], "txid": "b6591e84c7a8c15c875421cf82088f023bcc7a210ef681885fa17e096799b40c", "blocktime": 1537872475, "version": 1, "confirmations": 11486, "time": 1537872475, "locktime": 0, "vsize": 220, "size": 220}