{"hash": "b65d5c6892c28fad5e6d466a1b3fbc831a01ced19b6e0f667f2c09a750d7ae05", "blockhash": "0000000000000000001e0dab787dd257d1dbfcb92a98c2207d5e1078be1f4165", "vout": [{"scriptPubKey": {"reqSigs": 1, "hex": "a9149e023b8a664a0236b5971d197482250f59058c6c87", "addresses": ["3G6VMyXRPiHHgp5T6YyYVoZkVcRLqEf23e"], "asm": "OP_HASH160 9e023b8a664a0236b5971d197482250f59058c6c OP_EQUAL", "type": "scripthash"}, "value": 0.1, "n": 0}, {"scriptPubKey": {"reqSigs": 1, "hex": "a91469f374d835d54cc4953b46509d9882ea61957d0787", "addresses": ["3BMEXLNg9S8T9aSpiAJLrG5m7Ne5NMtztF"], "asm": "OP_HASH160 69f374d835d54cc4953b46509d9882ea61957d07 OP_EQUAL", "type": "scripthash"}, "value": 0.0301, "n": 1}, {"scriptPubKey": {"reqSigs": 1, "hex": "a91425a91a5b409acf744e25fedec0dc8e83c20d27b887", "addresses": ["3589W7xWx5A6SosKzdpxAA8xkpkbtYDuAN"], "asm": "OP_HASH160 25a91a5b409acf744e25fedec0dc8e83c20d27b8 OP_EQUAL", "type": "scripthash"}, "value": 0.23896169, "n": 2}, {"scriptPubKey": {"reqSigs": 1, "hex": "76a914f0a03f0cb70085dc7f3fbf2bbffd2a1628742b2288ac", "addresses": ["1NwK99W4H1hoaSiHhskLZCejoYkrBa5NVx"], "asm": "OP_DUP OP_HASH160 f0a03f0cb70085dc7f3fbf2bbffd2a1628742b22 OP_EQUALVERIFY OP_CHECKSIG", "type": "pubkeyhash"}, "value": 1.25931852, "n": 3}], "hex": "02000000011390f79a4ca3adc3719949a2ae19c17e1ec5000f2af504ccd65ce9f9813f8073000000006b483045022100d287723328b78c77e827560cc420506f91c0107b81d9b8a5fd9e30fd8285c11d022026f946da946527a1e8f025fddeccc60597a4ecf46bf781907ce0e5c6fad0ddab012102a4195a215fd1a923c01e402244d1669861d701f2b3514ea98a330ff6b2e132f0ffffffff04809698000000000017a9149e023b8a664a0236b5971d197482250f59058c6c87d0ed2d000000000017a91469f374d835d54cc4953b46509d9882ea61957d078769a06c010000000017a91425a91a5b409acf744e25fedec0dc8e83c20d27b8874c918107000000001976a914f0a03f0cb70085dc7f3fbf2bbffd2a1628742b2288ac00000000", "vin": [{"sequence": 4294967295, "scriptSig": {"hex": "483045022100d287723328b78c77e827560cc420506f91c0107b81d9b8a5fd9e30fd8285c11d022026f946da946527a1e8f025fddeccc60597a4ecf46bf781907ce0e5c6fad0ddab012102a4195a215fd1a923c01e402244d1669861d701f2b3514ea98a330ff6b2e132f0", "asm": "3045022100d287723328b78c77e827560cc420506f91c0107b81d9b8a5fd9e30fd8285c11d022026f946da946527a1e8f025fddeccc60597a4ecf46bf781907ce0e5c6fad0ddab[ALL] 02a4195a215fd1a923c01e402244d1669861d701f2b3514ea98a330ff6b2e132f0"}, "vout": 0, "txid": "73803f81f9e95cd6cc04f52a0f00c51e7ec119aea2499971c3ada34c9af79013"}], "txid": "b65d5c6892c28fad5e6d466a1b3fbc831a01ced19b6e0f667f2c09a750d7ae05", "blocktime": 1537872475, "version": 2, "confirmations": 11486, "time": 1537872475, "locktime": 0, "vsize": 288, "size": 288}