{"hash": "7d84151d8625fda596af3f428b471114219985d8e8bd8fd5854617ad42026837", "blockhash": "0000000000000000000baef3f32e3676a92c3b2e5da21b426e4f302fc371ce76", "vout": [{"scriptPubKey": {"reqSigs": 1, "hex": "002058c8797f181e000075cb9a18a9662013b795012e86acc04d56a2d229e7b8d7c4", "addresses": ["bc1qtry8jlccrcqqqawtngv2je3qzwme2qfws6kvqn2k5tfzneac6lzqpgummp"], "asm": "0 58c8797f181e000075cb9a18a9662013b795012e86acc04d56a2d229e7b8d7c4", "type": "witness_v0_scripthash"}, "value": 0.00018864, "n": 0}], "hex": "01000000000101b7c32f857fa7ba18bb23fd32db38174ec0d8b55b0a82554f3dea138f4f5cdc5100000000171600144a74f1d672750ba1aabb8f209e87b7a4219343dfffffffff01b04900000000000022002058c8797f181e000075cb9a18a9662013b795012e86acc04d56a2d229e7b8d7c4024830450221008cb70c95f247f68a2308663db7d00ec05f87abcde553a59353777c13b95b7e37022058b32497dd9fef35136c1bed5adefc337b795725c92a6aec2c3d4605a13007db0121034af69028a4fee9b5504b86285f0c67253736b51d0db59293097a8dff4b5f86ca00000000", "vin": [{"txinwitness": ["30450221008cb70c95f247f68a2308663db7d00ec05f87abcde553a59353777c13b95b7e37022058b32497dd9fef35136c1bed5adefc337b795725c92a6aec2c3d4605a13007db01", "034af69028a4fee9b5504b86285f0c67253736b51d0db59293097a8dff4b5f86ca"], "sequence": 4294967295, "scriptSig": {"hex": "1600144a74f1d672750ba1aabb8f209e87b7a4219343df", "asm": "00144a74f1d672750ba1aabb8f209e87b7a4219343df"}, "vout": 0, "txid": "51dc5c4f8f13ea3d4f55820a5bb5d8c04e1738db32fd23bb18baa77f852fc3b7"}], "txid": "b65e2796385ef0e99ad5021ba9afe84b0459e6c3eb0f2edda1c73ddf63cb74b4", "blocktime": 1537876114, "version": 1, "confirmations": 11460, "time": 1537876114, "locktime": 0, "vsize": 145, "size": 227}