{"hash": "b6643287496a6a82ed5ce420f12132df895af1f1f1228d900c2aadf97b80d05a", "blockhash": "0000000000000000000dcc0f55137456b1a82d3642486a52398922ac4d620174", "vout": [{"scriptPubKey": {"reqSigs": 1, "hex": "76a914444ef9cb1dd6a7edfe4d9a3e0a37958be8f2f7ce88ac", "addresses": ["17EBZNpRC8XoSQfyCgMUeXrouiVbL2p5Wx"], "asm": "OP_DUP OP_HASH160 444ef9cb1dd6a7edfe4d9a3e0a37958be8f2f7ce OP_EQUALVERIFY OP_CHECKSIG", "type": "pubkeyhash"}, "value": 0.00106035, "n": 0}], "hex": "010000000242aec0fa89939133e048dd43e253ed1952fabdbeca69cd2ef1a3e405f94fd746110000006a47304402204937e4e71119a50e26ae8e5676e3b3fc60ad03b4b63cc7431b1816f8de0b19db02204b514d057fc7e63e42c3ae76c725508f3c3dcdbe9b6a232d4cf24ee71a3e7f8c012103bae059643235821a556230bd167257ce4b00d2f97f2a6f512cccea53e0e94247ffffffff3fce5f47b046b2c1df243ffa2ec1f298ed722b4e97d1706e4a4a241e40ff1095000000006a473044022020c73b3f3944eb6fb2d94e2ff8425d4ca8cbc73d0a7c8da990add02661b4b12b022001e3651eca236cee28ae329c3b9a8c6cd24f3216dab49e9a507b2f59fa282de801210254efeb66c2ec51c42549239308edac71b54738b5b5005c55796ec22ffd2d938affffffff01339e0100000000001976a914444ef9cb1dd6a7edfe4d9a3e0a37958be8f2f7ce88ac00000000", "vin": [{"sequence": 4294967295, "scriptSig": {"hex": "47304402204937e4e71119a50e26ae8e5676e3b3fc60ad03b4b63cc7431b1816f8de0b19db02204b514d057fc7e63e42c3ae76c725508f3c3dcdbe9b6a232d4cf24ee71a3e7f8c012103bae059643235821a556230bd167257ce4b00d2f97f2a6f512cccea53e0e94247", "asm": "304402204937e4e71119a50e26ae8e5676e3b3fc60ad03b4b63cc7431b1816f8de0b19db02204b514d057fc7e63e42c3ae76c725508f3c3dcdbe9b6a232d4cf24ee71a3e7f8c[ALL] 03bae059643235821a556230bd167257ce4b00d2f97f2a6f512cccea53e0e94247"}, "vout": 17, "txid": "46d74ff905e4a3f12ecd69cabebdfa5219ed53e243dd48e033919389fac0ae42"}, {"sequence": 4294967295, "scriptSig": {"hex": "473044022020c73b3f3944eb6fb2d94e2ff8425d4ca8cbc73d0a7c8da990add02661b4b12b022001e3651eca236cee28ae329c3b9a8c6cd24f3216dab49e9a507b2f59fa282de801210254efeb66c2ec51c42549239308edac71b54738b5b5005c55796ec22ffd2d938a", "asm": "3044022020c73b3f3944eb6fb2d94e2ff8425d4ca8cbc73d0a7c8da990add02661b4b12b022001e3651eca236cee28ae329c3b9a8c6cd24f3216dab49e9a507b2f59fa282de8[ALL] 0254efeb66c2ec51c42549239308edac71b54738b5b5005c55796ec22ffd2d938a"}, "vout": 0, "txid": "9510ff401e244a4a6e70d1974e2b72ed98f2c12efa3f24dfc1b246b0475fce3f"}], "txid": "b6643287496a6a82ed5ce420f12132df895af1f1f1228d900c2aadf97b80d05a", "blocktime": 1537870268, "version": 1, "confirmations": 11517, "time": 1537870268, "locktime": 0, "vsize": 338, "size": 338}