{"hash": "07fe94e687d194fe10d508995c3fcdf469ee152e3b6f7cbcc6dfc9e10cde66d8", "blockhash": "0000000000000000000baef3f32e3676a92c3b2e5da21b426e4f302fc371ce76", "vout": [{"scriptPubKey": {"reqSigs": 1, "hex": "a9147484537cd9b70bf1404ad938096a94f173372bcf87", "addresses": ["3CK6pyahGqJmiXyFuCMcnHUq29RUjDdYeH"], "asm": "OP_HASH160 7484537cd9b70bf1404ad938096a94f173372bcf OP_EQUAL", "type": "scripthash"}, "value": 0.00023561, "n": 0}, {"scriptPubKey": {"reqSigs": 1, "hex": "a914bddce1db77593a7ac8d67f0d488c4311d5103ffa87", "addresses": ["3JzvEy64J63pDv7KjyKsVzupMgKcwdgQU4"], "asm": "OP_HASH160 bddce1db77593a7ac8d67f0d488c4311d5103ffa OP_EQUAL", "type": "scripthash"}, "value": 0.00014277, "n": 1}], "hex": "020000000001019c17c338a1c1b73f6f54ef447526573662cbf2c30b7d41a25a5d652596d21d010100000017160014394c1d55120fea8442873d75d93263e22518f914ffffffff02095c00000000000017a9147484537cd9b70bf1404ad938096a94f173372bcf87c53700000000000017a914bddce1db77593a7ac8d67f0d488c4311d5103ffa870247304402200674dc84e80598bab76e6a3ccca8704ee89b5a3d7f4ddbcbc8cde282221ddc5e022056da298c92cc5fc7975616d5f9777e7dc70cff57c93f659d668d273a184f14fb012103e196163b6d30d0fef27eff5bae2754a7ccba75d466b78c87116b6535bacce31b00000000", "vin": [{"txinwitness": ["304402200674dc84e80598bab76e6a3ccca8704ee89b5a3d7f4ddbcbc8cde282221ddc5e022056da298c92cc5fc7975616d5f9777e7dc70cff57c93f659d668d273a184f14fb01", "03e196163b6d30d0fef27eff5bae2754a7ccba75d466b78c87116b6535bacce31b"], "sequence": 4294967295, "scriptSig": {"hex": "160014394c1d55120fea8442873d75d93263e22518f914", "asm": "0014394c1d55120fea8442873d75d93263e22518f914"}, "vout": 1, "txid": "011dd29625655d5aa2417d0bc3f2cb623657267544ef546f3fb7c1a138c3179c"}], "txid": "b666f989fad690fd76bf448f58db955190ee436951d985f630e2634fce92d032", "blocktime": 1537876114, "version": 2, "confirmations": 11462, "time": 1537876114, "locktime": 0, "vsize": 166, "size": 247}