{"hash": "310b43abcc5efbf45988e25c9ba330a481d312d0305fdf73a4e3009491971522", "blockhash": "00000000000000000017f5eb5941039fbcee6240d03bc1f2f8e35350df66a1d8", "vout": [{"scriptPubKey": {"reqSigs": 1, "hex": "a914c03e2984512524b443c3dd8ac823119e2e8fb08687", "addresses": ["3KDW8Uj6wY2wYGZ8S8FeLGbmRs3AL2jrLE"], "asm": "OP_HASH160 c03e2984512524b443c3dd8ac823119e2e8fb086 OP_EQUAL", "type": "scripthash"}, "value": 0.010565, "n": 0}, {"scriptPubKey": {"reqSigs": 1, "hex": "76a914f004e324498b0db981c14ae3ea5991c4da1b82b688ac", "addresses": ["1Nt72cYwfTxe1QBaWA8SqkLXbhYAH24DbQ"], "asm": "OP_DUP OP_HASH160 f004e324498b0db981c14ae3ea5991c4da1b82b6 OP_EQUALVERIFY OP_CHECKSIG", "type": "pubkeyhash"}, "value": 0.02717, "n": 1}], "hex": "020000000001039a1bf39df686a40ee9165e1237981ee7bcbe7bf1b9b484f270c304593036416b0100000017160014d92e12b9879e4f5aa1933194ab2be53f6536e271fdffffffde2400bbc1e5a38d7e23946fdb421dfe35fcf8607497e9174e64f07b84a375210100000017160014b7afe65388795498c5455760372d650a23cac78cfdffffffdf14e279e5f67c3dc94d2113116b23c87adf16be988984db90f210ea3877296301000000171600148373dd04e5be49b504742ffe2a7787b50988b8fcfdffffff02f41e10000000000017a914c03e2984512524b443c3dd8ac823119e2e8fb0868748752900000000001976a914f004e324498b0db981c14ae3ea5991c4da1b82b688ac02473044022021937700444a945dbf4ef9236289e1f4db211c6d46e9b0b1c943a322c69ae02e02207f1b7f16e20d0266cbc33df1c714ff361c5ccd62714fda0b49ab6aa9f8b27ca2012103e50e1c4c7f90db4ccb90f7c5553818900fa48a989c14929e02e4182d904cfa8702483045022100bbf97f8dc669838b40691a3e9eaed7b92035e5f4bd8bc3ead49d6e5d7edf05b00220610da98bcf66df5295d6c014ca08ce19ea2b6387c56df38194e63aaf126726c701210219837d609571f27e4a932d0ac7ac9568133f8bd987992c73bf0cd980e4fd9b980247304402206fc51f7ff9f3e1d2da6650a6ca8274de5d106d8b30b06b3c176ca0f4745d9405022039e2299ed894499b9e8788ded6fca1c47792f0711cce9ef6d396fa67db5abaa5012102e3eac86f13be47cad119c32de960cd005b6bb04a6dd1101657abdf3bf48ebafe15490800", "vin": [{"txinwitness": ["3044022021937700444a945dbf4ef9236289e1f4db211c6d46e9b0b1c943a322c69ae02e02207f1b7f16e20d0266cbc33df1c714ff361c5ccd62714fda0b49ab6aa9f8b27ca201", "03e50e1c4c7f90db4ccb90f7c5553818900fa48a989c14929e02e4182d904cfa87"], "sequence": 4294967293, "scriptSig": {"hex": "160014d92e12b9879e4f5aa1933194ab2be53f6536e271", "asm": "0014d92e12b9879e4f5aa1933194ab2be53f6536e271"}, "vout": 1, "txid": "6b4136305904c370f284b4b9f17bbebce71e9837125e16e90ea486f69df31b9a"}, {"txinwitness": ["3045022100bbf97f8dc669838b40691a3e9eaed7b92035e5f4bd8bc3ead49d6e5d7edf05b00220610da98bcf66df5295d6c014ca08ce19ea2b6387c56df38194e63aaf126726c701", "0219837d609571f27e4a932d0ac7ac9568133f8bd987992c73bf0cd980e4fd9b98"], "sequence": 4294967293, "scriptSig": {"hex": "160014b7afe65388795498c5455760372d650a23cac78c", "asm": "0014b7afe65388795498c5455760372d650a23cac78c"}, "vout": 1, "txid": "2175a3847bf0644e17e9977460f8fc35fe1d42db6f94237e8da3e5c1bb0024de"}, {"txinwitness": ["304402206fc51f7ff9f3e1d2da6650a6ca8274de5d106d8b30b06b3c176ca0f4745d9405022039e2299ed894499b9e8788ded6fca1c47792f0711cce9ef6d396fa67db5abaa501", "02e3eac86f13be47cad119c32de960cd005b6bb04a6dd1101657abdf3bf48ebafe"], "sequence": 4294967293, "scriptSig": {"hex": "1600148373dd04e5be49b504742ffe2a7787b50988b8fc", "asm": "00148373dd04e5be49b504742ffe2a7787b50988b8fc"}, "vout": 1, "txid": "63297738ea10f290db848998be16df7ac8236b1113214dc93d7cf6e579e214df"}], "txid": "b667cd3ba6d4728e9f585abb004cab3ddba9c6924a8b8f63fee7bdc629621cc6", "blocktime": 1537874412, "version": 2, "confirmations": 11466, "time": 1537874412, "locktime": 542997, "vsize": 349, "size": 592}