{"hash": "274587a58b67ca258a343379ac536b70f5b539bfd41a74af64cdc3c1664613b4", "blockhash": "0000000000000000000baef3f32e3676a92c3b2e5da21b426e4f302fc371ce76", "vout": [{"scriptPubKey": {"reqSigs": 1, "hex": "a914e45d6637dd4da6bba9abcb53bc712dce1eb1a3a887", "addresses": ["3NWVsn3qWt1VqmCCwPZgbi9dCepr4Zbb39"], "asm": "OP_HASH160 e45d6637dd4da6bba9abcb53bc712dce1eb1a3a8 OP_EQUAL", "type": "scripthash"}, "value": 4.09893391, "n": 0}, {"scriptPubKey": {"reqSigs": 1, "hex": "76a914c5a4e0e20285b97ce3cf027df7c81509dc485af088ac", "addresses": ["1K23dkGgRTZ2wmbhKo7eLrYBJe1jddtwKg"], "asm": "OP_DUP OP_HASH160 c5a4e0e20285b97ce3cf027df7c81509dc485af0 OP_EQUALVERIFY OP_CHECKSIG", "type": "pubkeyhash"}, "value": 0.022, "n": 1}], "hex": "0200000000010174e1c3fed55fe539eef3ab67af136e3e9c88f684f5ca865f99977407afc5fe3101000000171600143cfaa1385018cd24a5e89c8d91643505e6311dbdfeffffff020f7a6e180000000017a914e45d6637dd4da6bba9abcb53bc712dce1eb1a3a887c0912100000000001976a914c5a4e0e20285b97ce3cf027df7c81509dc485af088ac0247304402207d18845ab142dc569762ab02a428f4d1de9b4f2185c63b8b1f4720058c307b7302207792d5b160fdda8f5274afb447abf2a29023bc5b39625cf149dad799f27299d0012103daece2b79c466aaefaf84ae8c72768a1357de08ea501f2ec228f422b7e41600e17490800", "vin": [{"txinwitness": ["304402207d18845ab142dc569762ab02a428f4d1de9b4f2185c63b8b1f4720058c307b7302207792d5b160fdda8f5274afb447abf2a29023bc5b39625cf149dad799f27299d001", "03daece2b79c466aaefaf84ae8c72768a1357de08ea501f2ec228f422b7e41600e"], "sequence": 4294967294, "scriptSig": {"hex": "1600143cfaa1385018cd24a5e89c8d91643505e6311dbd", "asm": "00143cfaa1385018cd24a5e89c8d91643505e6311dbd"}, "vout": 1, "txid": "31fec5af077497995f86caf584f6889c3e6e13af67abf3ee39e55fd5fec3e174"}], "txid": "b66cc226b0d75a2bd5b7927e6aab6dc463af8e51b0cd03c185a929542180fbd8", "blocktime": 1537876114, "version": 2, "confirmations": 11460, "time": 1537876114, "locktime": 542999, "vsize": 168, "size": 249}