{"hash": "b6707f65e4327404850f44e9c74819475eb06eebea026a4eddfa3b4fdc167b1e", "blockhash": "0000000000000000000dcc0f55137456b1a82d3642486a52398922ac4d620174", "vout": [{"scriptPubKey": {"reqSigs": 1, "hex": "76a91475e650a80935555f647dc1a262fb578db747beeb88ac", "addresses": ["1BkPy1teGDBUi1qbjHcJ7a1NofX5v7CoSu"], "asm": "OP_DUP OP_HASH160 75e650a80935555f647dc1a262fb578db747beeb OP_EQUALVERIFY OP_CHECKSIG", "type": "pubkeyhash"}, "value": 0.00047788, "n": 0}, {"scriptPubKey": {"reqSigs": 1, "hex": "76a914cd89bf3b57f8315a7ce68e3179968e3c5f86115388ac", "addresses": ["1KjnY9xrBADvGHotRW6k6GfCWQUjM1q1UH"], "asm": "OP_DUP OP_HASH160 cd89bf3b57f8315a7ce68e3179968e3c5f861153 OP_EQUALVERIFY OP_CHECKSIG", "type": "pubkeyhash"}, "value": 0.02, "n": 1}], "hex": "010000000c6c05c61f3f7796cb87d2dfd9b703bd2bf0a7d4b5f1f6461690124a4a690e4511d20800006a47304402201d639d51906c1b513cf9f32f435607237b2c14b079d46b4cc55d3a8c99156cc30220664bba633a7dfc4d2d232b08cb8bc6eb7d027fc9dd644486ecbac1fa785f0665012103bbba6fc05b209f737c9d2dbc7782c10f7c139b625f3d740ea24751341ccece78fffffffffa5ddbec35087f708b84ac28d4cbc8985e2d25b87d7ddc46903e52362a38ac22cd0800006a4730440220550a4006748c32491b351b856784fcb6f360cfcebcbd8622d5ab5e78cd8208850220394d6d4d3db2241ac05d98138e20eddd34de90401adcde8f5d9f8d51b3d43869012103bbba6fc05b209f737c9d2dbc7782c10f7c139b625f3d740ea24751341ccece78fffffffff59d6ca5953ccbbc339bdf144ac6dd63d5897f369a0b243442b95fbaea19b930000000006b4830450221009d4cd3bf012b0ecbec06f7db449c085a9fd2a877fe0605cdfa90395e0f00d59802205b859af4cf7a792bf4712c2686278d3e38bb53e90d70cdbfd872be6f94ae76c1012103ae4e83a0730d0e2ffd6715e007224b8cb1bf29042804708e2430f815e5d2db2affffffffa914d95b475c6ae0dda54cf790221282d317167033a50023dbe62a46c3014e345c0900006b483045022100dba2c79f12d4635384fee126d71e917ca46d78d733ae7bc6f615fe55fe895d650220127031cef2c2a929266035b4ed1a7d19ec16d0831a6e4e0e70484dd2dec33cb2012103bbba6fc05b209f737c9d2dbc7782c10f7c139b625f3d740ea24751341ccece78ffffffff903bba8ce7bd2607fed7d891cce3ad6711d58d71ea03932450b60709b22d6d623f0800006b4830450221009fd27cb7473833a1de7d9b1e4c2d1d6e82f3954a09053188cf864b67292808c102206cb633fbf65aac43ecff2b2cd4edf522b1462792f06645297f546f2174552381012103bbba6fc05b209f737c9d2dbc7782c10f7c139b625f3d740ea24751341ccece78ffffffffa1599414cb39978c01afe7af8e4f14ba64897aacafafa07e31cd179b43937186730800006b483045022100f02071f4db34aa850a31a2d0933c48faad67ec38b0a170810dc3331bd3b5e1b90220476b7a2ff34edd991cf321289ab577c704aa1b817896be7d7362c05aafafe70e012103bbba6fc05b209f737c9d2dbc7782c10f7c139b625f3d740ea24751341ccece78ffffffff722ae5582089f7659527c40118b875709e6158401b294ffc2589c0ce602d5b88000000006b483045022100f3bf5fc1d680ce9eb10204f166e56546c7748763e7bbd02f64db6705e5783f9a02207b297d0559bcf52e48a1782b6543e2c6a3d74e58973594399005eefbf1741e8f0121028a764b285528e0e6186060f46c1b0380912134a2b61121ffcdfc7fc4100796efffffffff6c258d19c1b2918dc88bcb03aa499547f25ed2dafd453299b888920fbbc553a5950800006b483045022100de636e7df061c4da7b8099799d8bc0e5a77a77c96c7559a043c3c212adc50cfc02205ec090c390f41922e9857a7cddeee037e96f0278c6cec405f2605d80b10485a2012103bbba6fc05b209f737c9d2dbc7782c10f7c139b625f3d740ea24751341ccece78ffffffff7be6f26be52a76d0a3bcde29af830c1327423c938b352c56e9f8a5473776e3b1ad0800006a473044022058ad9fb207fc51695d981779ac37b4f68267bf8e6037e8a3d91b858c1b0135e202200fba68bdba2f3a34a9e06f589addaac17fb062234f2c5a29e7386b7eef0b84d8012103bbba6fc05b209f737c9d2dbc7782c10f7c139b625f3d740ea24751341ccece78ffffffffef68efaf9a52795ada8428fad182ff72ccf7ccd78306438e3a1491cbb4c7bbcfa60800006a473044022022097d676cad6048c6a485763bd31bcb90a3d946a6fcbfca0ef4709fb8d6896602200570399d81cbc73461a01edeca75c5a0a7e0ceff4fde5a2532da264754b3a7ac012103bbba6fc05b209f737c9d2dbc7782c10f7c139b625f3d740ea24751341ccece78ffffffff38f2e0a33fc64968a2ff69ffe4729b0be42e7b37b8dab9b09572846006213be8600800006b483045022100ed75af588e653015d081f5298429259231d44506bce2c3a17226bb7a13574bfc02203e230615411e7cad1ab09c4388005cc2b467b4a93b2bcbe3123f4ab949b03bf2012103bbba6fc05b209f737c9d2dbc7782c10f7c139b625f3d740ea24751341ccece78ffffffff3b6c963ddf73322bf6010253d3c3e148d47090338a0b1c6f7e63884fab935df43b0900006a473044022049a7d978b511255836a72ba924f9670f0861f1466ac69cdf8d1da4286f06fd8f02206dca027edbc52f90fd8a4186cc02b278af6d3e7f46a750a0a0e78f9590eb022c012103bbba6fc05b209f737c9d2dbc7782c10f7c139b625f3d740ea24751341ccece78ffffffff02acba0000000000001976a91475e650a80935555f647dc1a262fb578db747beeb88ac80841e00000000001976a914cd89bf3b57f8315a7ce68e3179968e3c5f86115388ac00000000", "vin": [{"sequence": 4294967295, "scriptSig": {"hex": "47304402201d639d51906c1b513cf9f32f435607237b2c14b079d46b4cc55d3a8c99156cc30220664bba633a7dfc4d2d232b08cb8bc6eb7d027fc9dd644486ecbac1fa785f0665012103bbba6fc05b209f737c9d2dbc7782c10f7c139b625f3d740ea24751341ccece78", "asm": "304402201d639d51906c1b513cf9f32f435607237b2c14b079d46b4cc55d3a8c99156cc30220664bba633a7dfc4d2d232b08cb8bc6eb7d027fc9dd644486ecbac1fa785f0665[ALL] 03bbba6fc05b209f737c9d2dbc7782c10f7c139b625f3d740ea24751341ccece78"}, "vout": 2258, "txid": "11450e694a4a12901646f6f1b5d4a7f02bbd03b7d9dfd287cb96773f1fc6056c"}, {"sequence": 4294967295, "scriptSig": {"hex": "4730440220550a4006748c32491b351b856784fcb6f360cfcebcbd8622d5ab5e78cd8208850220394d6d4d3db2241ac05d98138e20eddd34de90401adcde8f5d9f8d51b3d43869012103bbba6fc05b209f737c9d2dbc7782c10f7c139b625f3d740ea24751341ccece78", "asm": "30440220550a4006748c32491b351b856784fcb6f360cfcebcbd8622d5ab5e78cd8208850220394d6d4d3db2241ac05d98138e20eddd34de90401adcde8f5d9f8d51b3d43869[ALL] 03bbba6fc05b209f737c9d2dbc7782c10f7c139b625f3d740ea24751341ccece78"}, "vout": 2253, "txid": "22ac382a36523e9046dc7d7db8252d5e98c8cbd428ac848b707f0835ecdb5dfa"}, {"sequence": 4294967295, "scriptSig": {"hex": "4830450221009d4cd3bf012b0ecbec06f7db449c085a9fd2a877fe0605cdfa90395e0f00d59802205b859af4cf7a792bf4712c2686278d3e38bb53e90d70cdbfd872be6f94ae76c1012103ae4e83a0730d0e2ffd6715e007224b8cb1bf29042804708e2430f815e5d2db2a", "asm": "30450221009d4cd3bf012b0ecbec06f7db449c085a9fd2a877fe0605cdfa90395e0f00d59802205b859af4cf7a792bf4712c2686278d3e38bb53e90d70cdbfd872be6f94ae76c1[ALL] 03ae4e83a0730d0e2ffd6715e007224b8cb1bf29042804708e2430f815e5d2db2a"}, "vout": 0, "txid": "30b919eaba5fb94234240b9a367f89d563ddc64a14df9b33bccb3c95a56c9df5"}, {"sequence": 4294967295, "scriptSig": {"hex": "483045022100dba2c79f12d4635384fee126d71e917ca46d78d733ae7bc6f615fe55fe895d650220127031cef2c2a929266035b4ed1a7d19ec16d0831a6e4e0e70484dd2dec33cb2012103bbba6fc05b209f737c9d2dbc7782c10f7c139b625f3d740ea24751341ccece78", "asm": "3045022100dba2c79f12d4635384fee126d71e917ca46d78d733ae7bc6f615fe55fe895d650220127031cef2c2a929266035b4ed1a7d19ec16d0831a6e4e0e70484dd2dec33cb2[ALL] 03bbba6fc05b209f737c9d2dbc7782c10f7c139b625f3d740ea24751341ccece78"}, "vout": 2396, "txid": "344e01c3462ae6db2300a533701617d382122290f74ca5dde06a5c475bd914a9"}, {"sequence": 4294967295, "scriptSig": {"hex": "4830450221009fd27cb7473833a1de7d9b1e4c2d1d6e82f3954a09053188cf864b67292808c102206cb633fbf65aac43ecff2b2cd4edf522b1462792f06645297f546f2174552381012103bbba6fc05b209f737c9d2dbc7782c10f7c139b625f3d740ea24751341ccece78", "asm": "30450221009fd27cb7473833a1de7d9b1e4c2d1d6e82f3954a09053188cf864b67292808c102206cb633fbf65aac43ecff2b2cd4edf522b1462792f06645297f546f2174552381[ALL] 03bbba6fc05b209f737c9d2dbc7782c10f7c139b625f3d740ea24751341ccece78"}, "vout": 2111, "txid": "626d2db20907b650249303ea718dd51167ade3cc91d8d7fe0726bde78cba3b90"}, {"sequence": 4294967295, "scriptSig": {"hex": "483045022100f02071f4db34aa850a31a2d0933c48faad67ec38b0a170810dc3331bd3b5e1b90220476b7a2ff34edd991cf321289ab577c704aa1b817896be7d7362c05aafafe70e012103bbba6fc05b209f737c9d2dbc7782c10f7c139b625f3d740ea24751341ccece78", "asm": "3045022100f02071f4db34aa850a31a2d0933c48faad67ec38b0a170810dc3331bd3b5e1b90220476b7a2ff34edd991cf321289ab577c704aa1b817896be7d7362c05aafafe70e[ALL] 03bbba6fc05b209f737c9d2dbc7782c10f7c139b625f3d740ea24751341ccece78"}, "vout": 2163, "txid": "867193439b17cd317ea0afafac7a8964ba144f8eafe7af018c9739cb149459a1"}, {"sequence": 4294967295, "scriptSig": {"hex": "483045022100f3bf5fc1d680ce9eb10204f166e56546c7748763e7bbd02f64db6705e5783f9a02207b297d0559bcf52e48a1782b6543e2c6a3d74e58973594399005eefbf1741e8f0121028a764b285528e0e6186060f46c1b0380912134a2b61121ffcdfc7fc4100796ef", "asm": "3045022100f3bf5fc1d680ce9eb10204f166e56546c7748763e7bbd02f64db6705e5783f9a02207b297d0559bcf52e48a1782b6543e2c6a3d74e58973594399005eefbf1741e8f[ALL] 028a764b285528e0e6186060f46c1b0380912134a2b61121ffcdfc7fc4100796ef"}, "vout": 0, "txid": "885b2d60cec08925fc4f291b4058619e7075b81801c4279565f7892058e52a72"}, {"sequence": 4294967295, "scriptSig": {"hex": "483045022100de636e7df061c4da7b8099799d8bc0e5a77a77c96c7559a043c3c212adc50cfc02205ec090c390f41922e9857a7cddeee037e96f0278c6cec405f2605d80b10485a2012103bbba6fc05b209f737c9d2dbc7782c10f7c139b625f3d740ea24751341ccece78", "asm": "3045022100de636e7df061c4da7b8099799d8bc0e5a77a77c96c7559a043c3c212adc50cfc02205ec090c390f41922e9857a7cddeee037e96f0278c6cec405f2605d80b10485a2[ALL] 03bbba6fc05b209f737c9d2dbc7782c10f7c139b625f3d740ea24751341ccece78"}, "vout": 2197, "txid": "a553c5bb0f9288b8993245fddad25ef2479549aa03cb8bc88d91b2c1198d256c"}, {"sequence": 4294967295, "scriptSig": {"hex": "473044022058ad9fb207fc51695d981779ac37b4f68267bf8e6037e8a3d91b858c1b0135e202200fba68bdba2f3a34a9e06f589addaac17fb062234f2c5a29e7386b7eef0b84d8012103bbba6fc05b209f737c9d2dbc7782c10f7c139b625f3d740ea24751341ccece78", "asm": "3044022058ad9fb207fc51695d981779ac37b4f68267bf8e6037e8a3d91b858c1b0135e202200fba68bdba2f3a34a9e06f589addaac17fb062234f2c5a29e7386b7eef0b84d8[ALL] 03bbba6fc05b209f737c9d2dbc7782c10f7c139b625f3d740ea24751341ccece78"}, "vout": 2221, "txid": "b1e3763747a5f8e9562c358b933c4227130c83af29debca3d0762ae56bf2e67b"}, {"sequence": 4294967295, "scriptSig": {"hex": "473044022022097d676cad6048c6a485763bd31bcb90a3d946a6fcbfca0ef4709fb8d6896602200570399d81cbc73461a01edeca75c5a0a7e0ceff4fde5a2532da264754b3a7ac012103bbba6fc05b209f737c9d2dbc7782c10f7c139b625f3d740ea24751341ccece78", "asm": "3044022022097d676cad6048c6a485763bd31bcb90a3d946a6fcbfca0ef4709fb8d6896602200570399d81cbc73461a01edeca75c5a0a7e0ceff4fde5a2532da264754b3a7ac[ALL] 03bbba6fc05b209f737c9d2dbc7782c10f7c139b625f3d740ea24751341ccece78"}, "vout": 2214, "txid": "cfbbc7b4cb91143a8e430683d7ccf7cc72ff82d1fa2884da5a79529aafef68ef"}, {"sequence": 4294967295, "scriptSig": {"hex": "483045022100ed75af588e653015d081f5298429259231d44506bce2c3a17226bb7a13574bfc02203e230615411e7cad1ab09c4388005cc2b467b4a93b2bcbe3123f4ab949b03bf2012103bbba6fc05b209f737c9d2dbc7782c10f7c139b625f3d740ea24751341ccece78", "asm": "3045022100ed75af588e653015d081f5298429259231d44506bce2c3a17226bb7a13574bfc02203e230615411e7cad1ab09c4388005cc2b467b4a93b2bcbe3123f4ab949b03bf2[ALL] 03bbba6fc05b209f737c9d2dbc7782c10f7c139b625f3d740ea24751341ccece78"}, "vout": 2144, "txid": "e83b210660847295b0b9dab8377b2ee40b9b72e4ff69ffa26849c63fa3e0f238"}, {"sequence": 4294967295, "scriptSig": {"hex": "473044022049a7d978b511255836a72ba924f9670f0861f1466ac69cdf8d1da4286f06fd8f02206dca027edbc52f90fd8a4186cc02b278af6d3e7f46a750a0a0e78f9590eb022c012103bbba6fc05b209f737c9d2dbc7782c10f7c139b625f3d740ea24751341ccece78", "asm": "3044022049a7d978b511255836a72ba924f9670f0861f1466ac69cdf8d1da4286f06fd8f02206dca027edbc52f90fd8a4186cc02b278af6d3e7f46a750a0a0e78f9590eb022c[ALL] 03bbba6fc05b209f737c9d2dbc7782c10f7c139b625f3d740ea24751341ccece78"}, "vout": 2363, "txid": "f45d93ab4f88637e6f1c0b8a339070d448e1c3d3530201f62b3273df3d966c3b"}], "txid": "b6707f65e4327404850f44e9c74819475eb06eebea026a4eddfa3b4fdc167b1e", "blocktime": 1537870268, "version": 1, "confirmations": 11518, "time": 1537870268, "locktime": 0, "vsize": 1849, "size": 1849}