{"hash": "d2cfa94c695e9185e942d55e53380f4a8a2eee76c1085983d409191eb742f188", "blockhash": "0000000000000000001f76057863aec43deb6fa401d9628bb513d65a8098bfab", "vout": [{"scriptPubKey": {"reqSigs": 1, "hex": "76a91428a10c59b3716e97e7b0a60d2591f94812287d0f88ac", "addresses": ["14hpxW5aiWmx1QdBcxFhiiBHsTwqRjZjwP"], "asm": "OP_DUP OP_HASH160 28a10c59b3716e97e7b0a60d2591f94812287d0f OP_EQUALVERIFY OP_CHECKSIG", "type": "pubkeyhash"}, "value": 0.0026336, "n": 0}, {"scriptPubKey": {"reqSigs": 1, "hex": "a9140d16277346156d395b97dd76a59b9ec22c106fc687", "addresses": ["32tDFLBinFDqbj13qS6VjbhztHEtADVYNn"], "asm": "OP_HASH160 0d16277346156d395b97dd76a59b9ec22c106fc6 OP_EQUAL", "type": "scripthash"}, "value": 0.01092022, "n": 1}], "hex": "02000000000102093503a18869faa9353069952992d17c9a0dd59de53240af23d702a0c51ef5160500000017160014976031a2bdda58b7818fb72f54662cf3678f5532feffffff111e6caa0a7d418cbbd7710c74599eae300b85d5315526b05996efb1cf980c040000000017160014109657baecab7c46b74a557b56f7d79a3b2efde0feffffff02c0040400000000001976a91428a10c59b3716e97e7b0a60d2591f94812287d0f88acb6a910000000000017a9140d16277346156d395b97dd76a59b9ec22c106fc68702483045022100cfcffdedae7c8ddd1dfdeffcf955414328daf9fe18224b5e7c73f9cb61fcdb040220115ab5896083c6800171e618198b9098b1d8acc36a165c064d8a3792555a55b401210288477445aba5fa1bc047cfbe28a60b544d54d4888543ceda7d3d74c53eaa61340247304402203d61a1a5a5125977f8d9d708e391144f087b3e7186a1155f3417e0441f32642802205cb67600f6efebc0e9dacbf0216d4d758ef7b2b14e48bbee241ebe447464304601210366cdf0590174bb11a69db863a9a9aabcb36daf28154310250a76b63d65c6eac114490800", "vin": [{"txinwitness": ["3045022100cfcffdedae7c8ddd1dfdeffcf955414328daf9fe18224b5e7c73f9cb61fcdb040220115ab5896083c6800171e618198b9098b1d8acc36a165c064d8a3792555a55b401", "0288477445aba5fa1bc047cfbe28a60b544d54d4888543ceda7d3d74c53eaa6134"], "sequence": 4294967294, "scriptSig": {"hex": "160014976031a2bdda58b7818fb72f54662cf3678f5532", "asm": "0014976031a2bdda58b7818fb72f54662cf3678f5532"}, "vout": 5, "txid": "16f51ec5a002d723af4032e59dd50d9a7cd1922995693035a9fa6988a1033509"}, {"txinwitness": ["304402203d61a1a5a5125977f8d9d708e391144f087b3e7186a1155f3417e0441f32642802205cb67600f6efebc0e9dacbf0216d4d758ef7b2b14e48bbee241ebe447464304601", "0366cdf0590174bb11a69db863a9a9aabcb36daf28154310250a76b63d65c6eac1"], "sequence": 4294967294, "scriptSig": {"hex": "160014109657baecab7c46b74a557b56f7d79a3b2efde0", "asm": "0014109657baecab7c46b74a557b56f7d79a3b2efde0"}, "vout": 0, "txid": "040c98cfb1ef9659b0265531d5850b30ae9e59740c71d7bb8c417d0aaa6c1e11"}], "txid": "b6727b62250f5d55e3760878aa5e2aa0faa2dd7db3294f35b8c3cadbd315b896", "blocktime": 1537873891, "version": 2, "confirmations": 11478, "time": 1537873891, "locktime": 542996, "vsize": 259, "size": 421}