{"hash": "b67c12e45f044f2450211594a79844fbf3ff85e1bacee666111d225ff9f78a68", "blockhash": "0000000000000000000baef3f32e3676a92c3b2e5da21b426e4f302fc371ce76", "vout": [{"scriptPubKey": {"reqSigs": 1, "hex": "76a914488c63767371927d18601f48f45b5103ae5d45cc88ac", "addresses": ["17cbqBJRha1nf4DHBtxV5vpT4enPrkPFHo"], "asm": "OP_DUP OP_HASH160 488c63767371927d18601f48f45b5103ae5d45cc OP_EQUALVERIFY OP_CHECKSIG", "type": "pubkeyhash"}, "value": 5.46e-06, "n": 0}, {"scriptPubKey": {"reqSigs": 1, "hex": "a9143f4eecba122ad73039d481c8d37f99cb4f887cd887", "addresses": ["37Tm3Qz8Zw2VJrheUUhArDAoq58S6YrS3g"], "asm": "OP_HASH160 3f4eecba122ad73039d481c8d37f99cb4f887cd8 OP_EQUAL", "type": "scripthash"}, "value": 0.99966902, "n": 1}, {"scriptPubKey": {"type": "nulldata", "hex": "6a146f6d6e69000000000000001f0000000b984fb200", "asm": "OP_RETURN 6f6d6e69000000000000001f0000000b984fb200"}, "value": 0.0, "n": 2}], "hex": "0100000001fe93fc9bad4173c86cda00b77f3b4493478272538c48b807658be25405841aa201000000fdfe0000483045022100fe4ba69e0d186341a7e4474b1373bbfe34b4144dc50ac7c0b263497ebffa44e7022048ab76ef943428103c3edeac42ea513c034a63e75e472bad5410d7414b76f86001483045022100f0bc766ce039425b60e361379a523d85a265632580b40003397cde98afcdff8302201df6132b7d8125e65dfed93ba579532ca1e61971a26c63a8e9bd1a7f0311d970014c6952210246ccf4de0c54cc7f3354cdd993c2c50cf965fd82238b89659fbd73a1b4bf05a121024fc59f72272a897fe43803374969f396058152fe4765a8d15216f94624257b1b21022593bc69ecbf3bbcc3c58082267cb49dadaf4ca8dbf1b2297338a9d628c4297653aeffffffff0322020000000000001976a914488c63767371927d18601f48f45b5103ae5d45cc88acb65ff5050000000017a9143f4eecba122ad73039d481c8d37f99cb4f887cd8870000000000000000166a146f6d6e69000000000000001f0000000b984fb20000000000", "vin": [{"sequence": 4294967295, "scriptSig": {"hex": "00483045022100fe4ba69e0d186341a7e4474b1373bbfe34b4144dc50ac7c0b263497ebffa44e7022048ab76ef943428103c3edeac42ea513c034a63e75e472bad5410d7414b76f86001483045022100f0bc766ce039425b60e361379a523d85a265632580b40003397cde98afcdff8302201df6132b7d8125e65dfed93ba579532ca1e61971a26c63a8e9bd1a7f0311d970014c6952210246ccf4de0c54cc7f3354cdd993c2c50cf965fd82238b89659fbd73a1b4bf05a121024fc59f72272a897fe43803374969f396058152fe4765a8d15216f94624257b1b21022593bc69ecbf3bbcc3c58082267cb49dadaf4ca8dbf1b2297338a9d628c4297653ae", "asm": "0 3045022100fe4ba69e0d186341a7e4474b1373bbfe34b4144dc50ac7c0b263497ebffa44e7022048ab76ef943428103c3edeac42ea513c034a63e75e472bad5410d7414b76f860[ALL] 3045022100f0bc766ce039425b60e361379a523d85a265632580b40003397cde98afcdff8302201df6132b7d8125e65dfed93ba579532ca1e61971a26c63a8e9bd1a7f0311d970[ALL] 52210246ccf4de0c54cc7f3354cdd993c2c50cf965fd82238b89659fbd73a1b4bf05a121024fc59f72272a897fe43803374969f396058152fe4765a8d15216f94624257b1b21022593bc69ecbf3bbcc3c58082267cb49dadaf4ca8dbf1b2297338a9d628c4297653ae"}, "vout": 1, "txid": "a21a840554e28b6507b8488c5372824793443b7fb700da6cc87341ad9bfc93fe"}], "txid": "b67c12e45f044f2450211594a79844fbf3ff85e1bacee666111d225ff9f78a68", "blocktime": 1537876114, "version": 1, "confirmations": 11460, "time": 1537876114, "locktime": 0, "vsize": 404, "size": 404}