{"hash": "b67d82be8c2560fab041385bb167b3478540331b3c65193c99dec08cbd680c24", "blockhash": "00000000000000000017f5eb5941039fbcee6240d03bc1f2f8e35350df66a1d8", "vout": [{"scriptPubKey": {"type": "nulldata", "hex": "6a146f6d6e69000000000000001f000000041ad47380", "asm": "OP_RETURN 6f6d6e69000000000000001f000000041ad47380"}, "value": 0.0, "n": 0}, {"scriptPubKey": {"reqSigs": 1, "hex": "76a914a25dec4d0011064ef106a983c39c7a540699f22088ac", "addresses": ["1FoWyxwPXuj4C6abqwhjDWdz6D4PZgYRjA"], "asm": "OP_DUP OP_HASH160 a25dec4d0011064ef106a983c39c7a540699f220 OP_EQUALVERIFY OP_CHECKSIG", "type": "pubkeyhash"}, "value": 0.01985651, "n": 1}, {"scriptPubKey": {"reqSigs": 1, "hex": "76a9149d6414eff81ea22991ec85cd0e2f3b4ba6a4335188ac", "addresses": ["1FMCyvU19D3FJqaNyTxQYHyNpXuur5u1gD"], "asm": "OP_DUP OP_HASH160 9d6414eff81ea22991ec85cd0e2f3b4ba6a43351 OP_EQUALVERIFY OP_CHECKSIG", "type": "pubkeyhash"}, "value": 5.46e-06, "n": 2}], "hex": "01000000016bd2a998d6273c064714f3341172e7b593cefdf9d076f03170645e0af770d1f5010000006a473044022000dabd6051084b2a9ce3bba072c7c7827ef291a5d620beca64155217e3739b51022016bc8892b30fe2159439ae1fdd7c2e5e4af1c2e6076c4de06821171169b1532b012103da5bac7b36d5aa38f531c6b9601e21bb598a4b6716ebed38b009a55dabde9440feffffff030000000000000000166a146f6d6e69000000000000001f000000041ad47380734c1e00000000001976a914a25dec4d0011064ef106a983c39c7a540699f22088ac22020000000000001976a9149d6414eff81ea22991ec85cd0e2f3b4ba6a4335188ace1480800", "vin": [{"sequence": 4294967294, "scriptSig": {"hex": "473044022000dabd6051084b2a9ce3bba072c7c7827ef291a5d620beca64155217e3739b51022016bc8892b30fe2159439ae1fdd7c2e5e4af1c2e6076c4de06821171169b1532b012103da5bac7b36d5aa38f531c6b9601e21bb598a4b6716ebed38b009a55dabde9440", "asm": "3044022000dabd6051084b2a9ce3bba072c7c7827ef291a5d620beca64155217e3739b51022016bc8892b30fe2159439ae1fdd7c2e5e4af1c2e6076c4de06821171169b1532b[ALL] 03da5bac7b36d5aa38f531c6b9601e21bb598a4b6716ebed38b009a55dabde9440"}, "vout": 1, "txid": "f5d170f70a5e647031f076d0f9fdce93b5e7721134f31447063c27d698a9d26b"}], "txid": "b67d82be8c2560fab041385bb167b3478540331b3c65193c99dec08cbd680c24", "blocktime": 1537874412, "version": 1, "confirmations": 11467, "time": 1537874412, "locktime": 542945, "vsize": 256, "size": 256}