{"hash": "b67e4794623aa96e6a825fee3e1919f849d8d459c35a0be30162df53512e415f", "blockhash": "00000000000000000004ffacab907a6b429b9a5745fa0b75af4234bf69dd7176", "vout": [{"scriptPubKey": {"reqSigs": 1, "hex": "76a9142d12204ce12fb6cebc3f7bb9738788e63d2c76c488ac", "addresses": ["157K84Y3worn6LzqxQVDr2AnxVjR4oy6rE"], "asm": "OP_DUP OP_HASH160 2d12204ce12fb6cebc3f7bb9738788e63d2c76c4 OP_EQUALVERIFY OP_CHECKSIG", "type": "pubkeyhash"}, "value": 0.12893009, "n": 0}, {"scriptPubKey": {"reqSigs": 1, "hex": "76a914fca18e369c884409a134c76885a0549bf760b76d88ac", "addresses": ["1Q2npR7DMj1C4AJFXPp1HeTj3B4cAV1vT9"], "asm": "OP_DUP OP_HASH160 fca18e369c884409a134c76885a0549bf760b76d OP_EQUALVERIFY OP_CHECKSIG", "type": "pubkeyhash"}, "value": 0.0589, "n": 1}], "hex": "010000000118c0f61e718033c097c9019efe77943b9d9727aa0307149f489f67838d6a1f55000000006a47304402202992dfff5cce7a621e62272ee2aac0a819e8828a153460c20095df21a11b9a8502204d55ac226fa55e7af9bcfbbe700bc12e2c619bf66a297d851919e5bc10e0e009012103a59a840e6e0646621cfe0c116d0ed7ff1890e81daee60837e34aa3a6568f2bd2ffffffff0251bbc400000000001976a9142d12204ce12fb6cebc3f7bb9738788e63d2c76c488acd0df5900000000001976a914fca18e369c884409a134c76885a0549bf760b76d88ac00000000", "vin": [{"sequence": 4294967295, "scriptSig": {"hex": "47304402202992dfff5cce7a621e62272ee2aac0a819e8828a153460c20095df21a11b9a8502204d55ac226fa55e7af9bcfbbe700bc12e2c619bf66a297d851919e5bc10e0e009012103a59a840e6e0646621cfe0c116d0ed7ff1890e81daee60837e34aa3a6568f2bd2", "asm": "304402202992dfff5cce7a621e62272ee2aac0a819e8828a153460c20095df21a11b9a8502204d55ac226fa55e7af9bcfbbe700bc12e2c619bf66a297d851919e5bc10e0e009[ALL] 03a59a840e6e0646621cfe0c116d0ed7ff1890e81daee60837e34aa3a6568f2bd2"}, "vout": 0, "txid": "551f6a8d83679f489f140703aa27979d3b9477fe9e01c997c03380711ef6c018"}], "txid": "b67e4794623aa96e6a825fee3e1919f849d8d459c35a0be30162df53512e415f", "blocktime": 1537875543, "version": 1, "confirmations": 11464, "time": 1537875543, "locktime": 0, "vsize": 225, "size": 225}