{"hash": "b682976658fbe32f3b54b5488b69b405f6a08175f88bd6dd3c5e1481924f360f", "blockhash": "0000000000000000001cda96e906b7601b7a6fb1a3b62bca570a9e5d8f4b3de1", "vout": [{"scriptPubKey": {"reqSigs": 1, "hex": "a914ac9c79fb80eb629062bcce59e2cc91caf768466e87", "addresses": ["3HRhbiUpe8PqoxSPzxtC1HBHHmLGRrjo3i"], "asm": "OP_HASH160 ac9c79fb80eb629062bcce59e2cc91caf768466e OP_EQUAL", "type": "scripthash"}, "value": 0.0027346, "n": 0}, {"scriptPubKey": {"reqSigs": 1, "hex": "76a914f67b7db5ad4566301eab32b3263f74cacf0bde2488ac", "addresses": ["1PUHAVwxwoZpi7SguY33jcJf9hFQC3GXtY"], "asm": "OP_DUP OP_HASH160 f67b7db5ad4566301eab32b3263f74cacf0bde24 OP_EQUALVERIFY OP_CHECKSIG", "type": "pubkeyhash"}, "value": 0.01267448, "n": 1}], "hex": "01000000019968446b87722f3f03c635e29474f4bb12214df93403b9b5c121b99805aa5665010000006a47304402203c89fd0de76cb4a5e410ca7d6543d3fac337490e79e49294d650442f565e922102203666b363ec3b2c09643c72e47903e3a3c52a660fe84a20ac91b38c47b0d015be0121037b2a8dee3f418fc771c2e03499a8408bf2e76d7742d3d2a3c00de153f4da22faffffffff02342c04000000000017a914ac9c79fb80eb629062bcce59e2cc91caf768466e87f8561300000000001976a914f67b7db5ad4566301eab32b3263f74cacf0bde2488ac00000000", "vin": [{"sequence": 4294967295, "scriptSig": {"hex": "47304402203c89fd0de76cb4a5e410ca7d6543d3fac337490e79e49294d650442f565e922102203666b363ec3b2c09643c72e47903e3a3c52a660fe84a20ac91b38c47b0d015be0121037b2a8dee3f418fc771c2e03499a8408bf2e76d7742d3d2a3c00de153f4da22fa", "asm": "304402203c89fd0de76cb4a5e410ca7d6543d3fac337490e79e49294d650442f565e922102203666b363ec3b2c09643c72e47903e3a3c52a660fe84a20ac91b38c47b0d015be[ALL] 037b2a8dee3f418fc771c2e03499a8408bf2e76d7742d3d2a3c00de153f4da22fa"}, "vout": 1, "txid": "6556aa0598b921c1b5b90334f94d2112bbf47494e235c6033f2f72876b446899"}], "txid": "b682976658fbe32f3b54b5488b69b405f6a08175f88bd6dd3c5e1481924f360f", "blocktime": 1537873282, "version": 1, "confirmations": 11485, "time": 1537873282, "locktime": 0, "vsize": 223, "size": 223}