{"hash": "b6846a28adc9d5a3a60a0cba121a56a40f407304e86308eeeb984900e8fc6015", "blockhash": "0000000000000000000e13cef7c366c0283d82e591d1acd082e914b08063cdf1", "vout": [{"scriptPubKey": {"reqSigs": 1, "hex": "a9141cf59cadd76df964f5ce7caaa3edfee4143fa06387", "addresses": ["34L95LYpP4CMwxxnAfEWoBWy7ZZCBR2tDC"], "asm": "OP_HASH160 1cf59cadd76df964f5ce7caaa3edfee4143fa063 OP_EQUAL", "type": "scripthash"}, "value": 0.00140544, "n": 0}, {"scriptPubKey": {"reqSigs": 1, "hex": "76a914d705e84eb0b3d67097976a794f0718a4ef17f6f688ac", "addresses": ["1LbwMhdBmLuPH4cwFKZw9iJiUMum6Vekhu"], "asm": "OP_DUP OP_HASH160 d705e84eb0b3d67097976a794f0718a4ef17f6f6 OP_EQUALVERIFY OP_CHECKSIG", "type": "pubkeyhash"}, "value": 0.11257241, "n": 1}], "hex": "0100000001cc489db0942300c37e225aff2504e6a6ad064cecc3d48564fa8995a45df3348e010000006a47304402202ad4594e4c67a0e8324c443abdbc236e880401eed3006364cfffec252307f82b02200fd96f75261a6b525c2d6359fd11100bbc65941bbb756efac082afa2509573790121020ec5240057505b977dd6c15647969f9a5fe73981e844bcba56e39426e3b8d25cffffffff02002502000000000017a9141cf59cadd76df964f5ce7caaa3edfee4143fa0638799c5ab00000000001976a914d705e84eb0b3d67097976a794f0718a4ef17f6f688ac00000000", "vin": [{"sequence": 4294967295, "scriptSig": {"hex": "47304402202ad4594e4c67a0e8324c443abdbc236e880401eed3006364cfffec252307f82b02200fd96f75261a6b525c2d6359fd11100bbc65941bbb756efac082afa2509573790121020ec5240057505b977dd6c15647969f9a5fe73981e844bcba56e39426e3b8d25c", "asm": "304402202ad4594e4c67a0e8324c443abdbc236e880401eed3006364cfffec252307f82b02200fd96f75261a6b525c2d6359fd11100bbc65941bbb756efac082afa250957379[ALL] 020ec5240057505b977dd6c15647969f9a5fe73981e844bcba56e39426e3b8d25c"}, "vout": 1, "txid": "8e34f35da49589fa6485d4c3ec4c06ada6e60425ff5a227ec3002394b09d48cc"}], "txid": "b6846a28adc9d5a3a60a0cba121a56a40f407304e86308eeeb984900e8fc6015", "blocktime": 1537871767, "version": 1, "confirmations": 11492, "time": 1537871767, "locktime": 0, "vsize": 223, "size": 223}