{"hash": "6b19d7602dcccd7fe57d8f937a319220657d6c4c34226319afb83ed6680addb0", "blockhash": "00000000000000000024a2167bbff67b0be802c0b01cdd79e6331c2be6459f87", "vout": [{"scriptPubKey": {"reqSigs": 1, "hex": "76a914e1a45b8665d800ba8abeaa7c24dd1d79dff2c82f88ac", "addresses": ["1Ma5vvWJ1rkx9co5BrHsmR9ko3Vy5YwMhb"], "asm": "OP_DUP OP_HASH160 e1a45b8665d800ba8abeaa7c24dd1d79dff2c82f OP_EQUALVERIFY OP_CHECKSIG", "type": "pubkeyhash"}, "value": 0.0007956, "n": 0}, {"scriptPubKey": {"reqSigs": 1, "hex": "0014e00b0fe8ef622e028120f33f09f7bd354eca783c", "addresses": ["bc1quq9sl680vghq9qfq7vlsnaaax48v57pu2vzwnc"], "asm": "0 e00b0fe8ef622e028120f33f09f7bd354eca783c", "type": "witness_v0_keyhash"}, "value": 2.556e-05, "n": 1}], "hex": "01000000000101ae4cf2ef5788d470abaccbccb576c59b89709aa48178477ea1431c24f4a8d7680100000000ffffffff02c8360100000000001976a914e1a45b8665d800ba8abeaa7c24dd1d79dff2c82f88acfc09000000000000160014e00b0fe8ef622e028120f33f09f7bd354eca783c0248304502210083b2f8da8c27629cb6c4d4c1b869f253c1bb36f521957ec85ee80c050dc5553e02200bbc7b9f52d0a368d5cfa64f05a7fe8f39fb2179a72c4b751ad9cf288bd428f2012103e33370654f4c6da5cf5602382476bef351cfe551754a181330de129ab1da09da00000000", "vin": [{"txinwitness": ["304502210083b2f8da8c27629cb6c4d4c1b869f253c1bb36f521957ec85ee80c050dc5553e02200bbc7b9f52d0a368d5cfa64f05a7fe8f39fb2179a72c4b751ad9cf288bd428f201", "03e33370654f4c6da5cf5602382476bef351cfe551754a181330de129ab1da09da"], "sequence": 4294967295, "scriptSig": {"hex": "", "asm": ""}, "vout": 1, "txid": "68d7a8f4241c43a17e477881a49a70899bc576b5cccbacab70d48857eff24cae"}], "txid": "b6889de5d9c903936555498bb45b1e966dba550ddb0c8da9777fcbb9b4c0ba43", "blocktime": 1537870564, "version": 1, "confirmations": 11515, "time": 1537870564, "locktime": 0, "vsize": 144, "size": 226}