{"hash": "7cd6cff87bc8575d003cfe31b8b2aae7ab51f6337e757e4e7a7d04b913e6fa51", "blockhash": "00000000000000000024a2167bbff67b0be802c0b01cdd79e6331c2be6459f87", "vout": [{"scriptPubKey": {"reqSigs": 1, "hex": "76a914fab9a6eeb3ea53ea6cedb73a4247181dd6d4509e88ac", "addresses": ["1PriLHqQT9LwTz5QNggTY8iw1L2BCH1Aqe"], "asm": "OP_DUP OP_HASH160 fab9a6eeb3ea53ea6cedb73a4247181dd6d4509e OP_EQUALVERIFY OP_CHECKSIG", "type": "pubkeyhash"}, "value": 0.0041586, "n": 0}, {"scriptPubKey": {"reqSigs": 1, "hex": "a91448231bdb3646482f813bb70086cc29c7404d25e687", "addresses": ["38GSdkxTm2a3pkqRtNKGCSfxKT8voTtTiN"], "asm": "OP_HASH160 48231bdb3646482f813bb70086cc29c7404d25e6 OP_EQUAL", "type": "scripthash"}, "value": 0.00999355, "n": 1}], "hex": "0200000000010237e0338d30027634bfb696b4049b6c6f684c9b0562a83cb9b7c33e4312bbd9db0a0000001716001425f43be7eaa05b049f1d1205a2290e2a7bae9e12feffffffb03f256eeb04feca9516cfc117e589c364b9cf1d76c20bbae28cc26ad1942d1b0100000017160014955b2e6e2bb7bc532da0df7ea21c675d0b1c396efeffffff0274580600000000001976a914fab9a6eeb3ea53ea6cedb73a4247181dd6d4509e88acbb3f0f000000000017a91448231bdb3646482f813bb70086cc29c7404d25e6870247304402200e2ca63279f5d78e2eac1b889225006d3570693038043d95ccb225b579fbd7dc02206f9316ca98ae64505fee4081d8bae6e30d00aff0f6e37c54c6092dc2f80cabcb0121032516b3253ef41f2bcd737fae1ec114df5ded5578fcaa7d47dcf995ad755a449002483045022100ed92aac20d0a54d7c3fda75253fbe8bfa9790e391308ff7ac34f1ed2283693d40220171ea3c713b5ad5a563e74459e7567022af0462d77455abc9f7a1bb30fa648b9012102dda5943adbc6508688fd3c6a854ee37a7d15c8b392e79edc8edcf8d7503fb71f0d490800", "vin": [{"txinwitness": ["304402200e2ca63279f5d78e2eac1b889225006d3570693038043d95ccb225b579fbd7dc02206f9316ca98ae64505fee4081d8bae6e30d00aff0f6e37c54c6092dc2f80cabcb01", "032516b3253ef41f2bcd737fae1ec114df5ded5578fcaa7d47dcf995ad755a4490"], "sequence": 4294967294, "scriptSig": {"hex": "16001425f43be7eaa05b049f1d1205a2290e2a7bae9e12", "asm": "001425f43be7eaa05b049f1d1205a2290e2a7bae9e12"}, "vout": 10, "txid": "dbd9bb12433ec3b7b93ca862059b4c686f6c9b04b496b6bf347602308d33e037"}, {"txinwitness": ["3045022100ed92aac20d0a54d7c3fda75253fbe8bfa9790e391308ff7ac34f1ed2283693d40220171ea3c713b5ad5a563e74459e7567022af0462d77455abc9f7a1bb30fa648b901", "02dda5943adbc6508688fd3c6a854ee37a7d15c8b392e79edc8edcf8d7503fb71f"], "sequence": 4294967294, "scriptSig": {"hex": "160014955b2e6e2bb7bc532da0df7ea21c675d0b1c396e", "asm": "0014955b2e6e2bb7bc532da0df7ea21c675d0b1c396e"}, "vout": 1, "txid": "1b2d94d16ac28ce2ba0bc2761dcfb964c389e517c1cf1695cafe04eb6e253fb0"}], "txid": "b68914b4ed3e0c6902740856e7e53724e749625c0f5e696764f540a45bcd1ae3", "blocktime": 1537870564, "version": 2, "confirmations": 11515, "time": 1537870564, "locktime": 542989, "vsize": 259, "size": 421}