{"hash": "4928b805bbeef5d0b840664457750b0e67de66542690cbdd6b3f14efc7cb8eec", "blockhash": "00000000000000000018f53835495a110e01622372bf6ae95dc86f2b0ab887b0", "vout": [{"scriptPubKey": {"reqSigs": 1, "hex": "76a914c8ab2a4f04fd04f313206b0f6ba1198c546a960588ac", "addresses": ["1KJ3C8yGSbXTirRkwbvUK17MrusBQrumm6"], "asm": "OP_DUP OP_HASH160 c8ab2a4f04fd04f313206b0f6ba1198c546a9605 OP_EQUALVERIFY OP_CHECKSIG", "type": "pubkeyhash"}, "value": 0.00327287, "n": 0}, {"scriptPubKey": {"reqSigs": 1, "hex": "001497e4a7d844a5b0a369cb51c2e3673a0293b31834", "addresses": ["bc1qjlj20kzy5kc2x6wt28pwxee6q2fmxxp5qru22p"], "asm": "0 97e4a7d844a5b0a369cb51c2e3673a0293b31834", "type": "witness_v0_keyhash"}, "value": 1.066e-05, "n": 1}], "hex": "0100000000010126239a2b83feaf13552cf113154cdc697cef121c44fca24f8e90bd7a37849a150000000000ffffffff0277fe0400000000001976a914c8ab2a4f04fd04f313206b0f6ba1198c546a960588ac2a0400000000000016001497e4a7d844a5b0a369cb51c2e3673a0293b3183402483045022100bcdda405f10311ae6d8a31a61a8c43e8971b83610f4256306f347ef09df6b8c902206ad00e69d2813e8f36fdf006d5dcd715d91d8d725334abafb1f4a6311e1601a1012102df3f0b270170029e2ef79670967c437171b45ed5f40eb6c6c8ba188806a4d30900000000", "vin": [{"txinwitness": ["3045022100bcdda405f10311ae6d8a31a61a8c43e8971b83610f4256306f347ef09df6b8c902206ad00e69d2813e8f36fdf006d5dcd715d91d8d725334abafb1f4a6311e1601a101", "02df3f0b270170029e2ef79670967c437171b45ed5f40eb6c6c8ba188806a4d309"], "sequence": 4294967295, "scriptSig": {"hex": "", "asm": ""}, "vout": 0, "txid": "159a84377abd908e4fa2fc441c12ef7c69dc4c1513f12c5513affe832b9a2326"}], "txid": "b68d6f1fd97d8bf239037af4181549eec71c7e6c0c1a939488d803a34e702657", "blocktime": 1537870928, "version": 1, "confirmations": 11514, "time": 1537870928, "locktime": 0, "vsize": 144, "size": 226}