{"hash": "b69834e9ae087dc0e9252efaf1768f00b1f1879e5509b22b46f669a301390f47", "blockhash": "0000000000000000001f76057863aec43deb6fa401d9628bb513d65a8098bfab", "vout": [{"scriptPubKey": {"reqSigs": 1, "hex": "a914217dac721fa5be56c63a5967afd2318bc451e22a87", "addresses": ["34k6mq6jFuTxQKJcFJtXbbPwRD7dRfG6sL"], "asm": "OP_HASH160 217dac721fa5be56c63a5967afd2318bc451e22a OP_EQUAL", "type": "scripthash"}, "value": 0.03790378, "n": 0}], "hex": "0100000001b005dc8a970d905ed4a464b3e575b9c88627fdd901d1fdf6e01543385a35bce9000000006a47304402203023104466fbc77af02985b29c5ea476f6bd38a1231e5b29fd2d3d45ade84fe1022070f2784dad3f63ee6bc1e20587f949cefbe02a2d3f347e94fb32453446ae466701210259ef3d050dfd00386e1b702f674fb0af37506c4c391de3b478016d98e7f75d63ffffffff012ad639000000000017a914217dac721fa5be56c63a5967afd2318bc451e22a8700000000", "vin": [{"sequence": 4294967295, "scriptSig": {"hex": "47304402203023104466fbc77af02985b29c5ea476f6bd38a1231e5b29fd2d3d45ade84fe1022070f2784dad3f63ee6bc1e20587f949cefbe02a2d3f347e94fb32453446ae466701210259ef3d050dfd00386e1b702f674fb0af37506c4c391de3b478016d98e7f75d63", "asm": "304402203023104466fbc77af02985b29c5ea476f6bd38a1231e5b29fd2d3d45ade84fe1022070f2784dad3f63ee6bc1e20587f949cefbe02a2d3f347e94fb32453446ae4667[ALL] 0259ef3d050dfd00386e1b702f674fb0af37506c4c391de3b478016d98e7f75d63"}, "vout": 0, "txid": "e9bc355a384315e0f6fdd101d9fd2786c8b975e5b364a4d45e900d978adc05b0"}], "txid": "b69834e9ae087dc0e9252efaf1768f00b1f1879e5509b22b46f669a301390f47", "blocktime": 1537873891, "version": 1, "confirmations": 11478, "time": 1537873891, "locktime": 0, "vsize": 189, "size": 189}