{"hash": "1f30b7200396432c0800a514c7b48e9c13805a3d3202791766e626b7aaa9b41a", "blockhash": "0000000000000000000dcc0f55137456b1a82d3642486a52398922ac4d620174", "vout": [{"scriptPubKey": {"reqSigs": 1, "hex": "76a9147abc365c618be9c66e0a7e078260893f260c6b3388ac", "addresses": ["1CBxudLNbwKMFS3VCsLkJ3xVe93p3YRiRV"], "asm": "OP_DUP OP_HASH160 7abc365c618be9c66e0a7e078260893f260c6b33 OP_EQUALVERIFY OP_CHECKSIG", "type": "pubkeyhash"}, "value": 0.0005445, "n": 0}, {"scriptPubKey": {"reqSigs": 1, "hex": "a9140be7846be16b05bea00dbec2fcd7e045a793cb1787", "addresses": ["32mxhko5mJHfkbkDPpz7SfdJwEJi21P1WK"], "asm": "OP_HASH160 0be7846be16b05bea00dbec2fcd7e045a793cb17 OP_EQUAL", "type": "scripthash"}, "value": 0.20229785, "n": 1}], "hex": "0100000000010100589f7534bc041cc387d2ed4427acebf18b887424b7f10fb7865581d58f71a601000000232200202c66ece6da72bcbfeadf83a91236f4891c13e14d8ecebdcaa81666fc1aa73a31ffffffff02b2d40000000000001976a9147abc365c618be9c66e0a7e078260893f260c6b3388ac99ae34010000000017a9140be7846be16b05bea00dbec2fcd7e045a793cb1787040047304402200acdc39540c94a954579b1ef23ef397a9dc31bb26e9a4574c6bfd69c6327aa8302204cd79b65d027d007f88013381e6b6fdbe40fc8fbe85b754b431e9197a23ab54c01483045022100d8e07dde624255f9ff43369a350f89c822cea8109edd5334119c967f6835b29e02202e65fc44702887d9eebcddb924991ffbdceffb571171972937c4d5e1cfc8105101475221029e6fbb942d34a473faaa5557c1bfe08d72102f0b9754ad140fd369d7a3ba3cdc2103871fc2ca08e6950b38867e8e6a0e94ee625223d3aa0df5c65f414c6d784467e252ae00000000", "vin": [{"txinwitness": ["", "304402200acdc39540c94a954579b1ef23ef397a9dc31bb26e9a4574c6bfd69c6327aa8302204cd79b65d027d007f88013381e6b6fdbe40fc8fbe85b754b431e9197a23ab54c01", "3045022100d8e07dde624255f9ff43369a350f89c822cea8109edd5334119c967f6835b29e02202e65fc44702887d9eebcddb924991ffbdceffb571171972937c4d5e1cfc8105101", "5221029e6fbb942d34a473faaa5557c1bfe08d72102f0b9754ad140fd369d7a3ba3cdc2103871fc2ca08e6950b38867e8e6a0e94ee625223d3aa0df5c65f414c6d784467e252ae"], "sequence": 4294967295, "scriptSig": {"hex": "2200202c66ece6da72bcbfeadf83a91236f4891c13e14d8ecebdcaa81666fc1aa73a31", "asm": "00202c66ece6da72bcbfeadf83a91236f4891c13e14d8ecebdcaa81666fc1aa73a31"}, "vout": 1, "txid": "a6718fd5815586b70ff1b72474888bf1ebac2744edd287c31c04bc34759f5800"}], "txid": "b698720e74135409e1c53ed11d553a67e925333dcd5a979f1a79e7a09a950cc2", "blocktime": 1537870268, "version": 1, "confirmations": 11518, "time": 1537870268, "locktime": 0, "vsize": 208, "size": 373}