{"hash": "b69efc434f619dd9569b995d76933f131d5c601b824877f741f6662557bb4535", "blockhash": "000000000000000000022b45ed06c6f4ccd3cf7fb5ba4856ebd2e58215665228", "vout": [{"scriptPubKey": {"type": "nulldata", "hex": "6a146f6d6e69000000000000001f00000053374327db", "asm": "OP_RETURN 6f6d6e69000000000000001f00000053374327db"}, "value": 0.0, "n": 0}, {"scriptPubKey": {"reqSigs": 1, "hex": "76a914a25dec4d0011064ef106a983c39c7a540699f22088ac", "addresses": ["1FoWyxwPXuj4C6abqwhjDWdz6D4PZgYRjA"], "asm": "OP_DUP OP_HASH160 a25dec4d0011064ef106a983c39c7a540699f220 OP_EQUALVERIFY OP_CHECKSIG", "type": "pubkeyhash"}, "value": 0.01995204, "n": 1}, {"scriptPubKey": {"reqSigs": 1, "hex": "76a914513d9057450310969291a801aa7bc875b882b97b88ac", "addresses": ["18QZV4xgQ6kX8YxL2SNGrRjKqpQNb5383i"], "asm": "OP_DUP OP_HASH160 513d9057450310969291a801aa7bc875b882b97b OP_EQUALVERIFY OP_CHECKSIG", "type": "pubkeyhash"}, "value": 5.46e-06, "n": 2}], "hex": "0100000001a44813c76173a4fe9689194c29809e35be05f1741d9b5e1e9e8bd44070ac1fea5d0000006a47304402207d6274d50c27f1aebe7d34cb18806817eb16bcc73eee80b423a309d97bcee253022065e5e5d1e5124f711cae86a62c40d661e296eed1f06d75ec5307ab6058dfe417012103da5bac7b36d5aa38f531c6b9601e21bb598a4b6716ebed38b009a55dabde9440feffffff030000000000000000166a146f6d6e69000000000000001f00000053374327dbc4711e00000000001976a914a25dec4d0011064ef106a983c39c7a540699f22088ac22020000000000001976a914513d9057450310969291a801aa7bc875b882b97b88ac0b490800", "vin": [{"sequence": 4294967294, "scriptSig": {"hex": "47304402207d6274d50c27f1aebe7d34cb18806817eb16bcc73eee80b423a309d97bcee253022065e5e5d1e5124f711cae86a62c40d661e296eed1f06d75ec5307ab6058dfe417012103da5bac7b36d5aa38f531c6b9601e21bb598a4b6716ebed38b009a55dabde9440", "asm": "304402207d6274d50c27f1aebe7d34cb18806817eb16bcc73eee80b423a309d97bcee253022065e5e5d1e5124f711cae86a62c40d661e296eed1f06d75ec5307ab6058dfe417[ALL] 03da5bac7b36d5aa38f531c6b9601e21bb598a4b6716ebed38b009a55dabde9440"}, "vout": 93, "txid": "ea1fac7040d48b9e1e5e9b1d74f105be359e80294c198996fea47361c71348a4"}], "txid": "b69efc434f619dd9569b995d76933f131d5c601b824877f741f6662557bb4535", "blocktime": 1537869901, "version": 1, "confirmations": 11522, "time": 1537869901, "locktime": 542987, "vsize": 256, "size": 256}