{"hash": "b69ee109373a1fb013808f98aadafdb15984264159d9037bb3ef098e8e9f2c57", "blockhash": "000000000000000000022b45ed06c6f4ccd3cf7fb5ba4856ebd2e58215665228", "vout": [{"scriptPubKey": {"reqSigs": 1, "hex": "76a91451bc54305aa27455096eb76c6a6eed4797ebd1c688ac", "addresses": ["18TBLri8XpiQzqKhm28wMhzjYrTR3zi5Dn"], "asm": "OP_DUP OP_HASH160 51bc54305aa27455096eb76c6a6eed4797ebd1c6 OP_EQUALVERIFY OP_CHECKSIG", "type": "pubkeyhash"}, "value": 0.00021848, "n": 0}, {"scriptPubKey": {"reqSigs": 1, "hex": "76a91482fd2e950160d9f5f32f128ac808c92dae5c844188ac", "addresses": ["1Cwc9L5oHRo5xV7MJZPFaUjnFaLbvGJjEg"], "asm": "OP_DUP OP_HASH160 82fd2e950160d9f5f32f128ac808c92dae5c8441 OP_EQUALVERIFY OP_CHECKSIG", "type": "pubkeyhash"}, "value": 5.057e-05, "n": 1}], "hex": "0100000001b73f8b13eb092713a9d2851649bc898246a94ddd51302336d4dc5bba27284c38010000006b483045022100bfe8ad512064c672a37614acdbf2a09657e509c96cc84cd2c4e991f08e3e81d202202ca989ccc5aa2199d1b1139ebf3c8e913c3d322de061c24bcb53f156f1e964970121025533fd6cc2e58ebcdd49ed89bb54ae31bf274ae1a35e92400483a4b0da47bbfeffffffff0258550000000000001976a91451bc54305aa27455096eb76c6a6eed4797ebd1c688acc1130000000000001976a91482fd2e950160d9f5f32f128ac808c92dae5c844188ac00000000", "vin": [{"sequence": 4294967295, "scriptSig": {"hex": "483045022100bfe8ad512064c672a37614acdbf2a09657e509c96cc84cd2c4e991f08e3e81d202202ca989ccc5aa2199d1b1139ebf3c8e913c3d322de061c24bcb53f156f1e964970121025533fd6cc2e58ebcdd49ed89bb54ae31bf274ae1a35e92400483a4b0da47bbfe", "asm": "3045022100bfe8ad512064c672a37614acdbf2a09657e509c96cc84cd2c4e991f08e3e81d202202ca989ccc5aa2199d1b1139ebf3c8e913c3d322de061c24bcb53f156f1e96497[ALL] 025533fd6cc2e58ebcdd49ed89bb54ae31bf274ae1a35e92400483a4b0da47bbfe"}, "vout": 1, "txid": "384c2827ba5bdcd436233051dd4da9468289bc491685d2a9132709eb138b3fb7"}], "txid": "b69ee109373a1fb013808f98aadafdb15984264159d9037bb3ef098e8e9f2c57", "blocktime": 1537869901, "version": 1, "confirmations": 11522, "time": 1537869901, "locktime": 0, "vsize": 226, "size": 226}