{"hash": "b6bd1eff72fc10d22d45980d0ba3df5f1651d0b3f41d28c22601bed459a4713a", "blockhash": "0000000000000000001e0dab787dd257d1dbfcb92a98c2207d5e1078be1f4165", "vout": [{"scriptPubKey": {"reqSigs": 1, "hex": "76a914302e2389d50ad20002aa705b138f1273a287499d88ac", "addresses": ["15PkhzPNBu6DTAgL7nH4M4GES5C5M7Uq6d"], "asm": "OP_DUP OP_HASH160 302e2389d50ad20002aa705b138f1273a287499d OP_EQUALVERIFY OP_CHECKSIG", "type": "pubkeyhash"}, "value": 8.702e-05, "n": 0}, {"scriptPubKey": {"reqSigs": 1, "hex": "a9141c7836ee4156163d8a2019afc18b5b1b47d8fe1387", "addresses": ["34HYra1dMWHE46PwewUnx9q3aiDQWCCEYQ"], "asm": "OP_HASH160 1c7836ee4156163d8a2019afc18b5b1b47d8fe13 OP_EQUAL", "type": "scripthash"}, "value": 0.0018292, "n": 1}], "hex": "0100000001f39c4e3c0f908031bf01ce8c9f6782628d901a578e20ad9adbc42db78a6053af010000006a47304402200b0af38303fdef8649188dc7775214c484c6de344ee3a42e77937b5686ddb27a02202e5890f30321ae5e0c56c088913e86620dedd4dc511a03cac72a3dadedc177bf01210290ac5d84c5c0f7b01b9f1917fed4e584bcb4c55322aec9ee4cd43ccbac41b7cfffffffff02fe210000000000001976a914302e2389d50ad20002aa705b138f1273a287499d88ac88ca02000000000017a9141c7836ee4156163d8a2019afc18b5b1b47d8fe138700000000", "vin": [{"sequence": 4294967295, "scriptSig": {"hex": "47304402200b0af38303fdef8649188dc7775214c484c6de344ee3a42e77937b5686ddb27a02202e5890f30321ae5e0c56c088913e86620dedd4dc511a03cac72a3dadedc177bf01210290ac5d84c5c0f7b01b9f1917fed4e584bcb4c55322aec9ee4cd43ccbac41b7cf", "asm": "304402200b0af38303fdef8649188dc7775214c484c6de344ee3a42e77937b5686ddb27a02202e5890f30321ae5e0c56c088913e86620dedd4dc511a03cac72a3dadedc177bf[ALL] 0290ac5d84c5c0f7b01b9f1917fed4e584bcb4c55322aec9ee4cd43ccbac41b7cf"}, "vout": 1, "txid": "af53608ab72dc4db9aad208e571a908d6282679f8cce01bf3180900f3c4e9cf3"}], "txid": "b6bd1eff72fc10d22d45980d0ba3df5f1651d0b3f41d28c22601bed459a4713a", "blocktime": 1537872475, "version": 1, "confirmations": 11487, "time": 1537872475, "locktime": 0, "vsize": 223, "size": 223}