{"hash": "b6c31de2a53485f899615f74a18fc16b2c86985f39e703df8318e067c3f4bf68", "blockhash": "0000000000000000000e13cef7c366c0283d82e591d1acd082e914b08063cdf1", "vout": [{"scriptPubKey": {"type": "nulldata", "hex": "6a4c500000779f00011bbada52bea64deb80d417c6af6c953dd567cf27e7e3ef3236678a6250976338b0447b36ee276d347b71a7e1b8ac5baa0e0e061705ecdd3a27bcbc9a9526289ac0f6612cd74e33776ee4", "asm": "OP_RETURN 0000779f00011bbada52bea64deb80d417c6af6c953dd567cf27e7e3ef3236678a6250976338b0447b36ee276d347b71a7e1b8ac5baa0e0e061705ecdd3a27bcbc9a9526289ac0f6612cd74e33776ee4"}, "value": 0.0, "n": 0}, {"scriptPubKey": {"reqSigs": 1, "hex": "76a9143cb61abd1814bc7c49377e5bd28ea2accb2ea8bd88ac", "addresses": ["16Y1hMDxnwECSM6t3mzeZsaPCBUjYDwyrH"], "asm": "OP_DUP OP_HASH160 3cb61abd1814bc7c49377e5bd28ea2accb2ea8bd OP_EQUALVERIFY OP_CHECKSIG", "type": "pubkeyhash"}, "value": 0.0010066, "n": 1}], "hex": "0100000001da70c166f7fefd4b9db8e1ac594cee5466ce451138477488dfc79adf7258551b000000006b48304502210088e632c077430be336282037cef35c6537ce8483ec25fc4f8afa4bf93f8e7b330220752d0cadc8201188726cf5b61a7ccb121f2ce2b2aa346bdf9ee57194f687f7690121035c85da5da3e431ede7038bdc0a9330c1166b3104be8a3144513e5bdf4711a127ffffffff020000000000000000536a4c500000779f00011bbada52bea64deb80d417c6af6c953dd567cf27e7e3ef3236678a6250976338b0447b36ee276d347b71a7e1b8ac5baa0e0e061705ecdd3a27bcbc9a9526289ac0f6612cd74e33776ee434890100000000001976a9143cb61abd1814bc7c49377e5bd28ea2accb2ea8bd88ac00000000", "vin": [{"sequence": 4294967295, "scriptSig": {"hex": "48304502210088e632c077430be336282037cef35c6537ce8483ec25fc4f8afa4bf93f8e7b330220752d0cadc8201188726cf5b61a7ccb121f2ce2b2aa346bdf9ee57194f687f7690121035c85da5da3e431ede7038bdc0a9330c1166b3104be8a3144513e5bdf4711a127", "asm": "304502210088e632c077430be336282037cef35c6537ce8483ec25fc4f8afa4bf93f8e7b330220752d0cadc8201188726cf5b61a7ccb121f2ce2b2aa346bdf9ee57194f687f769[ALL] 035c85da5da3e431ede7038bdc0a9330c1166b3104be8a3144513e5bdf4711a127"}, "vout": 0, "txid": "1b555872df9ac7df887447381145ce6654ee4c59ace1b89d4bfdfef766c170da"}], "txid": "b6c31de2a53485f899615f74a18fc16b2c86985f39e703df8318e067c3f4bf68", "blocktime": 1537871767, "version": 1, "confirmations": 11493, "time": 1537871767, "locktime": 0, "vsize": 284, "size": 284}