{"hash": "06a32f67443bcce86a35741de3b7ca5ff29ccab443e5b69f58f6e2a5cc9e6c2b", "blockhash": "0000000000000000000e13cef7c366c0283d82e591d1acd082e914b08063cdf1", "vout": [{"scriptPubKey": {"reqSigs": 1, "hex": "76a91461d5dc53d9cab127432808cb68f0b974a48c971e88ac", "addresses": ["19vJjuZsd1Cz9QoCb6C6bxtWrb5EpBugh4"], "asm": "OP_DUP OP_HASH160 61d5dc53d9cab127432808cb68f0b974a48c971e OP_EQUALVERIFY OP_CHECKSIG", "type": "pubkeyhash"}, "value": 0.91999739, "n": 0}, {"scriptPubKey": {"reqSigs": 1, "hex": "a91487ac21396b18447b596b6b64757772eb8f834dc187", "addresses": ["3E4PMEAc4LnCxKE3GZo2HjBpG3tuXj8Z7x"], "asm": "OP_HASH160 87ac21396b18447b596b6b64757772eb8f834dc1 OP_EQUAL", "type": "scripthash"}, "value": 0.01002189, "n": 1}], "hex": "0200000000010321127ec83c82591671aa49d2e3b7913ff54bedda936ccfce9b9c7cb93504efda0200000017160014700154712c14af6a37e14f9807ed5d1c96345fc1feffffffda6cfdf1680f256153f84b898a0801f6fa883ddad86f870b5a928a40de82e1f20100000017160014bac4e421f279945326ff6906d36c7b6d12382175fefffffff76a0acf97e9e6def29ab29db1180fc6ad591fe549de0e6c766b565a8b125b2c01000000171600145b7693751108410fc7ce93c0719a26796a6ebcfefeffffff02fbcd7b05000000001976a91461d5dc53d9cab127432808cb68f0b974a48c971e88accd4a0f000000000017a91487ac21396b18447b596b6b64757772eb8f834dc18702483045022100fd1f9bfbc4ed6e12b8bc214ab33f3d57f4a888db6584c72c2ece9f56c3c8f7cc022047f08acf9718c08b6d6457e936fd21d9caf8d4d24e0c322267cf460aabdb5baf01210365d2107c9e3c769f83b8573a2dc94bb5fe1eb3b6e0d0199bd704a7d91e384fa702473044022064b2c0f4306d2a2e788b606376d09a947e5f2523f8a7e961d9c949151009ce5802202f41898b271986d1b5cf3d884c09761ba05aa70933e0877d43df1774ce40412b01210228ab8b4ed22e5a3d105e55f5e9a331942c9ef843d3d9f4d962f1995fab148b7e0247304402203bc43fcc45a6e6bbb28c164c4f1bf0e52622b15c82dd2e919293f9f774fb528702206a42531d64b3beca996573bd95b8941162db63d81343cf92aed7dacda0ff270c0121026fafef01deb0a08a88b8a5e324c0a2282fd836d7f9f4e26f92b6b43c9ba4ec3210490800", "vin": [{"txinwitness": ["3045022100fd1f9bfbc4ed6e12b8bc214ab33f3d57f4a888db6584c72c2ece9f56c3c8f7cc022047f08acf9718c08b6d6457e936fd21d9caf8d4d24e0c322267cf460aabdb5baf01", "0365d2107c9e3c769f83b8573a2dc94bb5fe1eb3b6e0d0199bd704a7d91e384fa7"], "sequence": 4294967294, "scriptSig": {"hex": "160014700154712c14af6a37e14f9807ed5d1c96345fc1", "asm": "0014700154712c14af6a37e14f9807ed5d1c96345fc1"}, "vout": 2, "txid": "daef0435b97c9c9bcecf6c93daed4bf53f91b7e3d249aa711659823cc87e1221"}, {"txinwitness": ["3044022064b2c0f4306d2a2e788b606376d09a947e5f2523f8a7e961d9c949151009ce5802202f41898b271986d1b5cf3d884c09761ba05aa70933e0877d43df1774ce40412b01", "0228ab8b4ed22e5a3d105e55f5e9a331942c9ef843d3d9f4d962f1995fab148b7e"], "sequence": 4294967294, "scriptSig": {"hex": "160014bac4e421f279945326ff6906d36c7b6d12382175", "asm": "0014bac4e421f279945326ff6906d36c7b6d12382175"}, "vout": 1, "txid": "f2e182de408a925a0b876fd8da3d88faf601088a894bf85361250f68f1fd6cda"}, {"txinwitness": ["304402203bc43fcc45a6e6bbb28c164c4f1bf0e52622b15c82dd2e919293f9f774fb528702206a42531d64b3beca996573bd95b8941162db63d81343cf92aed7dacda0ff270c01", "026fafef01deb0a08a88b8a5e324c0a2282fd836d7f9f4e26f92b6b43c9ba4ec32"], "sequence": 4294967294, "scriptSig": {"hex": "1600145b7693751108410fc7ce93c0719a26796a6ebcfe", "asm": "00145b7693751108410fc7ce93c0719a26796a6ebcfe"}, "vout": 1, "txid": "2c5b128b5a566b766c0ede49e51f59adc60f18b19db29af2dee6e997cf0a6af7"}], "txid": "b6c48e7d1f54acf379abd6044b8bc6240f9fae4be2d26c504040e4b543c00d99", "blocktime": 1537871767, "version": 2, "confirmations": 11495, "time": 1537871767, "locktime": 542992, "vsize": 349, "size": 592}