{"hash": "b6c9e39a75ab3938519728c0df2297b68397cc173813fb4712dfcbfe3edec872", "blockhash": "0000000000000000001cda96e906b7601b7a6fb1a3b62bca570a9e5d8f4b3de1", "vout": [{"scriptPubKey": {"reqSigs": 1, "hex": "76a9147b35537d9bcc6e0ac74846606defc92ea9e08ca188ac", "addresses": ["1CETzm5b1dMHLETobkfrniFLdMrYeQMZ6d"], "asm": "OP_DUP OP_HASH160 7b35537d9bcc6e0ac74846606defc92ea9e08ca1 OP_EQUALVERIFY OP_CHECKSIG", "type": "pubkeyhash"}, "value": 0.01331856, "n": 0}, {"scriptPubKey": {"reqSigs": 1, "hex": "a914729396954bb2e324519d3b6c6364d2986661901787", "addresses": ["3C8qm2CHy6BA1hw48cso3Qfv8Xkw126qeS"], "asm": "OP_HASH160 729396954bb2e324519d3b6c6364d29866619017 OP_EQUAL", "type": "scripthash"}, "value": 0.01606869, "n": 1}], "hex": "02000000028c5c3c268f8d52f634bdecaf7347cb975dcdac18a6cd3149177751cf89d73f1c000000006b4830450221009e7e28e8f68e1f886722dc01760187485a5c69f140c01908f3a59d0bfa09571f02206533fa2b7c45d4eca9ecd90fdbe9c1a582d4416366fa83b06a81b7d4727df213012103c6ad97d5227238d9f00c5e1b479143b4278c5f731e590a16b6f638e9b34aa1f1feffffffdd07fa7245ba80d39d4afa140dcf3411e4b7911b50030c03587e744bc2f983f4000000006b4830450221008591d86d30b003f14ceacb2246bdd4278b0d4a84dca0bd8485ffdbf602bba11d022047bcc5445c8b3da39aac3bc65366c47534da2b3d82534d9e551fc39e4fc7ae75012103b112a45993d4288eb1d48d1b8fec88e68a8230d6801c7b701dd48ab51308cb2cfeffffff0290521400000000001976a9147b35537d9bcc6e0ac74846606defc92ea9e08ca188acd58418000000000017a914729396954bb2e324519d3b6c6364d298666190178713490800", "vin": [{"sequence": 4294967294, "scriptSig": {"hex": "4830450221009e7e28e8f68e1f886722dc01760187485a5c69f140c01908f3a59d0bfa09571f02206533fa2b7c45d4eca9ecd90fdbe9c1a582d4416366fa83b06a81b7d4727df213012103c6ad97d5227238d9f00c5e1b479143b4278c5f731e590a16b6f638e9b34aa1f1", "asm": "30450221009e7e28e8f68e1f886722dc01760187485a5c69f140c01908f3a59d0bfa09571f02206533fa2b7c45d4eca9ecd90fdbe9c1a582d4416366fa83b06a81b7d4727df213[ALL] 03c6ad97d5227238d9f00c5e1b479143b4278c5f731e590a16b6f638e9b34aa1f1"}, "vout": 0, "txid": "1c3fd789cf5177174931cda618accd5d97cb4773afecbd34f6528d8f263c5c8c"}, {"sequence": 4294967294, "scriptSig": {"hex": "4830450221008591d86d30b003f14ceacb2246bdd4278b0d4a84dca0bd8485ffdbf602bba11d022047bcc5445c8b3da39aac3bc65366c47534da2b3d82534d9e551fc39e4fc7ae75012103b112a45993d4288eb1d48d1b8fec88e68a8230d6801c7b701dd48ab51308cb2c", "asm": "30450221008591d86d30b003f14ceacb2246bdd4278b0d4a84dca0bd8485ffdbf602bba11d022047bcc5445c8b3da39aac3bc65366c47534da2b3d82534d9e551fc39e4fc7ae75[ALL] 03b112a45993d4288eb1d48d1b8fec88e68a8230d6801c7b701dd48ab51308cb2c"}, "vout": 0, "txid": "f483f9c24b747e58030c03501b91b7e41134cf0d14fa4a9dd380ba4572fa07dd"}], "txid": "b6c9e39a75ab3938519728c0df2297b68397cc173813fb4712dfcbfe3edec872", "blocktime": 1537873282, "version": 2, "confirmations": 11480, "time": 1537873282, "locktime": 542995, "vsize": 372, "size": 372}