{"hash": "b6ca71e8fb905ddac93efe4a5f90552aa304a1b9ce009b1dc934cad47473ed95", "blockhash": "0000000000000000001f0ddff1eddb255c1121bcd4da4f1bc9a0da00cae72433", "vout": [{"scriptPubKey": {"type": "nulldata", "hex": "6a146f6d6e69000000000000001f0000002bf20d2730", "asm": "OP_RETURN 6f6d6e69000000000000001f0000002bf20d2730"}, "value": 0.0, "n": 0}, {"scriptPubKey": {"reqSigs": 1, "hex": "76a91438d80f8a8eae70ebd33a3d271433ff01277c013188ac", "addresses": ["16BZfuQxdVBUbfJesFGyEHghjTpgNPZ6eV"], "asm": "OP_DUP OP_HASH160 38d80f8a8eae70ebd33a3d271433ff01277c0131 OP_EQUALVERIFY OP_CHECKSIG", "type": "pubkeyhash"}, "value": 5.46e-06, "n": 1}, {"scriptPubKey": {"reqSigs": 1, "hex": "76a9140ea2c16f9786cdfea33384770c72f226ae93ef3f88ac", "addresses": ["12LPS9L3BtpHJxCw7CBABQHFsKc7wFRjAR"], "asm": "OP_DUP OP_HASH160 0ea2c16f9786cdfea33384770c72f226ae93ef3f OP_EQUALVERIFY OP_CHECKSIG", "type": "pubkeyhash"}, "value": 0.36167165, "n": 2}], "hex": "0100000001b9b06141d8223072caff14295ecfe075c0bbb9c6bad407f025c86d9bf47b1476000000006b483045022100d0ab86511bfe022dc86362be74f70628e8e2267a2cd5f28572da2a044636734902203b49eb21f41d868911143ec59ca28b82dc95697de23ef602c6f73931c4d2587a01210242604bdd2261b6188326b9f490e074dda990f5bb746eb9716e491b86b498f4c5feffffff030000000000000000166a146f6d6e69000000000000001f0000002bf20d273022020000000000001976a91438d80f8a8eae70ebd33a3d271433ff01277c013188acfddd2702000000001976a9140ea2c16f9786cdfea33384770c72f226ae93ef3f88ac11490800", "vin": [{"sequence": 4294967294, "scriptSig": {"hex": "483045022100d0ab86511bfe022dc86362be74f70628e8e2267a2cd5f28572da2a044636734902203b49eb21f41d868911143ec59ca28b82dc95697de23ef602c6f73931c4d2587a01210242604bdd2261b6188326b9f490e074dda990f5bb746eb9716e491b86b498f4c5", "asm": "3045022100d0ab86511bfe022dc86362be74f70628e8e2267a2cd5f28572da2a044636734902203b49eb21f41d868911143ec59ca28b82dc95697de23ef602c6f73931c4d2587a[ALL] 0242604bdd2261b6188326b9f490e074dda990f5bb746eb9716e491b86b498f4c5"}, "vout": 0, "txid": "76147bf49b6dc825f007d4bac6b9bbc075e0cf5e2914ffca723022d84161b0b9"}], "txid": "b6ca71e8fb905ddac93efe4a5f90552aa304a1b9ce009b1dc934cad47473ed95", "blocktime": 1537872018, "version": 1, "confirmations": 11489, "time": 1537872018, "locktime": 542993, "vsize": 257, "size": 257}