{"hash": "b6cf1bccf95fc0ebe7062e088c6bff9e5632f959cabdc86250fd9e2f52d5d929", "blockhash": "0000000000000000000baef3f32e3676a92c3b2e5da21b426e4f302fc371ce76", "vout": [{"scriptPubKey": {"reqSigs": 1, "hex": "a914802f8f126376931eb47d93f3391f75997b2e238387", "addresses": ["3DNoPYeuVrbGzzQgqhPMmRKYZnTYJSxk5c"], "asm": "OP_HASH160 802f8f126376931eb47d93f3391f75997b2e2383 OP_EQUAL", "type": "scripthash"}, "value": 0.001007, "n": 0}, {"scriptPubKey": {"reqSigs": 1, "hex": "76a914e980406100f1b02d9023620d15858ca5a5fb144c88ac", "addresses": ["1NHe5mQK8w5uu6QxqnWsd6M8fPLPiYGWzA"], "asm": "OP_DUP OP_HASH160 e980406100f1b02d9023620d15858ca5a5fb144c OP_EQUALVERIFY OP_CHECKSIG", "type": "pubkeyhash"}, "value": 0.06465384, "n": 1}], "hex": "01000000019886e04ee10e68bee50117073040c2b473eaf17758e75b8ee5e7a32b1423702a010000006b483045022100e31a0e3b0c371fea6878d955e2030bad136d2535caaa2ff5f418c20f485bb3af02205571f9081b935887c3db11460bcf07af082dfac5bd40807e5c79e48be16249ff012103ad603f5d3610dce0c476cc5ff31b70d340cb842f4285d362fdb63d990e4c8e16ffffffff025c8901000000000017a914802f8f126376931eb47d93f3391f75997b2e23838768a76200000000001976a914e980406100f1b02d9023620d15858ca5a5fb144c88ac00000000", "vin": [{"sequence": 4294967295, "scriptSig": {"hex": "483045022100e31a0e3b0c371fea6878d955e2030bad136d2535caaa2ff5f418c20f485bb3af02205571f9081b935887c3db11460bcf07af082dfac5bd40807e5c79e48be16249ff012103ad603f5d3610dce0c476cc5ff31b70d340cb842f4285d362fdb63d990e4c8e16", "asm": "3045022100e31a0e3b0c371fea6878d955e2030bad136d2535caaa2ff5f418c20f485bb3af02205571f9081b935887c3db11460bcf07af082dfac5bd40807e5c79e48be16249ff[ALL] 03ad603f5d3610dce0c476cc5ff31b70d340cb842f4285d362fdb63d990e4c8e16"}, "vout": 1, "txid": "2a7023142ba3e7e58e5be75877f1ea73b4c24030071701e5be680ee14ee08698"}], "txid": "b6cf1bccf95fc0ebe7062e088c6bff9e5632f959cabdc86250fd9e2f52d5d929", "blocktime": 1537876114, "version": 1, "confirmations": 11459, "time": 1537876114, "locktime": 0, "vsize": 224, "size": 224}