{"hash": "b6cf5e7a640cf58de2c56b1a6a51a4af97d6b46dd4b015e8031ac62f6117e794", "blockhash": "00000000000000000017f5eb5941039fbcee6240d03bc1f2f8e35350df66a1d8", "vout": [{"scriptPubKey": {"reqSigs": 1, "hex": "a9142c58ff251edd4cc4aa3d09f92bc4fb168ae31d1487", "addresses": ["35jWGadYi6zdgQD3xUBeD5CrhnAXco6W7Q"], "asm": "OP_HASH160 2c58ff251edd4cc4aa3d09f92bc4fb168ae31d14 OP_EQUAL", "type": "scripthash"}, "value": 500.0, "n": 0}, {"scriptPubKey": {"reqSigs": 1, "hex": "76a914bae025140c454518b8cba0c25d45a6dc87f4b9ce88ac", "addresses": ["1J37CY8hcdUXQ1KfBhMCsUVafa8XjDsdCn"], "asm": "OP_DUP OP_HASH160 bae025140c454518b8cba0c25d45a6dc87f4b9ce OP_EQUALVERIFY OP_CHECKSIG", "type": "pubkeyhash"}, "value": 33.90118195, "n": 1}], "hex": "01000000095a6bd24aeae3a443a546879cf807e4a5e43b21fa12ff40411d8e0e3237a56b29020000008b483045022100f4ba7c302e9b92eef97be6dca9efd3150bec8978532a4722bc8511ed5a8671fa02205df1a7f2b41c2fae2be775fd8d8676027e2095b64fa888fd91874ccd0c057589014104025a1cffe502a80dfa1f543ae14c082aff24d5ecadab160ca904d288eed8e3d8cacef0985f690868df4f416c3890909b4c0c843da153d41382ac20c80170240affffffffbcf0f311ebe6bd4d313a2455b712280b0dcf697a190abe796116692b4701860b010000006a4730440220058ba685f256ae306dfeeb3a0270f57c595f3fe6d8a6a0b584a1ac40291c3ae20220231dfc631600f7fc866301d29a0d52893345de774da77944d84e01b0c14a93670121033a5820d904111152b1967a00a0f8e2c3d89a855d8bc8f37235b27ae642102d0cffffffffaf80b0a152ab28884237dc8132efeacf5528541cd49c7c6ebff8928ed8fcd760030000006a473044022079f6f66fca2f8bb9cb3e0cc580e93c7a2925cab9f34289feb00fb50c21f592a20220333ed78e60a7c583c69babd87cc12beca60e17fe71580c596dfce5d22a77850a012103ecfded312dde794609c8a3b8c9bbbac6047df39ebb1ff873b0a22b273649e59cffffffff555b01c0ba194b44a9c8378ebf0ce7a8cc750455ba6db9bdd81a4f61cd542c18010000006b483045022100e1d66da0c0e540bd6091e3f8936efb41de2dc888bd8a2313edd2e3b176d8afaa0220269bec2eae1b57f9f0a43ee2edee66b409343a8ed03968136433ccb9e48f8cef0121033a5820d904111152b1967a00a0f8e2c3d89a855d8bc8f37235b27ae642102d0cffffffff1e13cfa8f9f9e1ab57d23c46489a716d09b7ea8c23e301bbefdb146bb7226239000000008a47304402204a2ceefe4545dc9a6c5fc73972adfb397b85d439631a3e6a3213a61c6034124c022043fe57e2edcf7aecb405c3de7df90b0594b1f2f0ff91c12aac1b4781aa30e740014104c55a7ab5d7078de1c6b9636cdc041d8a10d9a3021c0f707dc44482b907dfc0fd21760d9d8a8bcbb997609dd1ed30b84e35bae3d798c32714e5a43e6d108cd44effffffffac2805a3b6081ae1aeeaadb4bc93fb497b12d10ffb0b8b42510725a9f1ab314b010000006a473044022067c2850d9d578fdd6f8913d7579fc70e3b1430b22e3e5a7abae21e20bfda2eef02201c0e853b8dec20e3b913c020fed6f23f799c77659172abbdb4f23a1f060250100121033a5820d904111152b1967a00a0f8e2c3d89a855d8bc8f37235b27ae642102d0cffffffff48422781486a417865a2368275fdfb5b3a4c83c84dbe7e60236d244863923f8b000000008a473044022061fc66f0473a50e8e70e6ca1d567ca8e8c7f8c3e1c76b6ed14130c0ee36dc5f702205bc21b02d32742e3d0e345398aea93f0b724e394aa3530550f67cb97b82d13d201410451b3cea407121016e1a6e85f0b8eaf607d3e772f093aa93779377d58dd5ad02b2d33f28805ff12ab9ce0dc2d011522087327198ca9d758d0d82abfdd54f6fcbdffffffffeac0f35794b7d00fcbd8175377df9e2012f15a74caf07af905ca0cd9d1a00806010000008b483045022100fa9369f9dfc6628889b31e94a52efdeacfed930c94d49e3db6b30be57b5fbaa3022055b7ecffe7f1f428dcf4158ffd8e9964699fbd0a031db71d69bc5c7627bfc1b1014104025a1cffe502a80dfa1f543ae14c082aff24d5ecadab160ca904d288eed8e3d8cacef0985f690868df4f416c3890909b4c0c843da153d41382ac20c80170240affffffff0e4129447aa22f82746710153dc7be5ed8c82bbea39a7f32906b705efa1087dd010000008b483045022100893cff9e008696eb7768298e45a1b5b093e852585a3f41549e9874377e1c02bb022006c0d7d96bce6e25e10a4b6963b109425f7c39ba4a574b80731e710b272725fe014104025a1cffe502a80dfa1f543ae14c082aff24d5ecadab160ca904d288eed8e3d8cacef0985f690868df4f416c3890909b4c0c843da153d41382ac20c80170240affffffff0200743ba40b00000017a9142c58ff251edd4cc4aa3d09f92bc4fb168ae31d1487331911ca000000001976a914bae025140c454518b8cba0c25d45a6dc87f4b9ce88ac00000000", "vin": [{"sequence": 4294967295, "scriptSig": {"hex": "483045022100f4ba7c302e9b92eef97be6dca9efd3150bec8978532a4722bc8511ed5a8671fa02205df1a7f2b41c2fae2be775fd8d8676027e2095b64fa888fd91874ccd0c057589014104025a1cffe502a80dfa1f543ae14c082aff24d5ecadab160ca904d288eed8e3d8cacef0985f690868df4f416c3890909b4c0c843da153d41382ac20c80170240a", "asm": "3045022100f4ba7c302e9b92eef97be6dca9efd3150bec8978532a4722bc8511ed5a8671fa02205df1a7f2b41c2fae2be775fd8d8676027e2095b64fa888fd91874ccd0c057589[ALL] 04025a1cffe502a80dfa1f543ae14c082aff24d5ecadab160ca904d288eed8e3d8cacef0985f690868df4f416c3890909b4c0c843da153d41382ac20c80170240a"}, "vout": 2, "txid": "296ba537320e8e1d4140ff12fa213be4a5e407f89c8746a543a4e3ea4ad26b5a"}, {"sequence": 4294967295, "scriptSig": {"hex": "4730440220058ba685f256ae306dfeeb3a0270f57c595f3fe6d8a6a0b584a1ac40291c3ae20220231dfc631600f7fc866301d29a0d52893345de774da77944d84e01b0c14a93670121033a5820d904111152b1967a00a0f8e2c3d89a855d8bc8f37235b27ae642102d0c", "asm": "30440220058ba685f256ae306dfeeb3a0270f57c595f3fe6d8a6a0b584a1ac40291c3ae20220231dfc631600f7fc866301d29a0d52893345de774da77944d84e01b0c14a9367[ALL] 033a5820d904111152b1967a00a0f8e2c3d89a855d8bc8f37235b27ae642102d0c"}, "vout": 1, "txid": "0b8601472b69166179be0a197a69cf0d0b2812b755243a314dbde6eb11f3f0bc"}, {"sequence": 4294967295, "scriptSig": {"hex": "473044022079f6f66fca2f8bb9cb3e0cc580e93c7a2925cab9f34289feb00fb50c21f592a20220333ed78e60a7c583c69babd87cc12beca60e17fe71580c596dfce5d22a77850a012103ecfded312dde794609c8a3b8c9bbbac6047df39ebb1ff873b0a22b273649e59c", "asm": "3044022079f6f66fca2f8bb9cb3e0cc580e93c7a2925cab9f34289feb00fb50c21f592a20220333ed78e60a7c583c69babd87cc12beca60e17fe71580c596dfce5d22a77850a[ALL] 03ecfded312dde794609c8a3b8c9bbbac6047df39ebb1ff873b0a22b273649e59c"}, "vout": 3, "txid": "60d7fcd88e92f8bf6e7c9cd41c542855cfeaef3281dc37428828ab52a1b080af"}, {"sequence": 4294967295, "scriptSig": {"hex": "483045022100e1d66da0c0e540bd6091e3f8936efb41de2dc888bd8a2313edd2e3b176d8afaa0220269bec2eae1b57f9f0a43ee2edee66b409343a8ed03968136433ccb9e48f8cef0121033a5820d904111152b1967a00a0f8e2c3d89a855d8bc8f37235b27ae642102d0c", "asm": "3045022100e1d66da0c0e540bd6091e3f8936efb41de2dc888bd8a2313edd2e3b176d8afaa0220269bec2eae1b57f9f0a43ee2edee66b409343a8ed03968136433ccb9e48f8cef[ALL] 033a5820d904111152b1967a00a0f8e2c3d89a855d8bc8f37235b27ae642102d0c"}, "vout": 1, "txid": "182c54cd614f1ad8bdb96dba550475cca8e70cbf8e37c8a9444b19bac0015b55"}, {"sequence": 4294967295, "scriptSig": {"hex": "47304402204a2ceefe4545dc9a6c5fc73972adfb397b85d439631a3e6a3213a61c6034124c022043fe57e2edcf7aecb405c3de7df90b0594b1f2f0ff91c12aac1b4781aa30e740014104c55a7ab5d7078de1c6b9636cdc041d8a10d9a3021c0f707dc44482b907dfc0fd21760d9d8a8bcbb997609dd1ed30b84e35bae3d798c32714e5a43e6d108cd44e", "asm": "304402204a2ceefe4545dc9a6c5fc73972adfb397b85d439631a3e6a3213a61c6034124c022043fe57e2edcf7aecb405c3de7df90b0594b1f2f0ff91c12aac1b4781aa30e740[ALL] 04c55a7ab5d7078de1c6b9636cdc041d8a10d9a3021c0f707dc44482b907dfc0fd21760d9d8a8bcbb997609dd1ed30b84e35bae3d798c32714e5a43e6d108cd44e"}, "vout": 0, "txid": "396222b76b14dbefbb01e3238ceab7096d719a48463cd257abe1f9f9a8cf131e"}, {"sequence": 4294967295, "scriptSig": {"hex": "473044022067c2850d9d578fdd6f8913d7579fc70e3b1430b22e3e5a7abae21e20bfda2eef02201c0e853b8dec20e3b913c020fed6f23f799c77659172abbdb4f23a1f060250100121033a5820d904111152b1967a00a0f8e2c3d89a855d8bc8f37235b27ae642102d0c", "asm": "3044022067c2850d9d578fdd6f8913d7579fc70e3b1430b22e3e5a7abae21e20bfda2eef02201c0e853b8dec20e3b913c020fed6f23f799c77659172abbdb4f23a1f06025010[ALL] 033a5820d904111152b1967a00a0f8e2c3d89a855d8bc8f37235b27ae642102d0c"}, "vout": 1, "txid": "4b31abf1a9250751428b0bfb0fd1127b49fb93bcb4adeaaee11a08b6a30528ac"}, {"sequence": 4294967295, "scriptSig": {"hex": "473044022061fc66f0473a50e8e70e6ca1d567ca8e8c7f8c3e1c76b6ed14130c0ee36dc5f702205bc21b02d32742e3d0e345398aea93f0b724e394aa3530550f67cb97b82d13d201410451b3cea407121016e1a6e85f0b8eaf607d3e772f093aa93779377d58dd5ad02b2d33f28805ff12ab9ce0dc2d011522087327198ca9d758d0d82abfdd54f6fcbd", "asm": "3044022061fc66f0473a50e8e70e6ca1d567ca8e8c7f8c3e1c76b6ed14130c0ee36dc5f702205bc21b02d32742e3d0e345398aea93f0b724e394aa3530550f67cb97b82d13d2[ALL] 0451b3cea407121016e1a6e85f0b8eaf607d3e772f093aa93779377d58dd5ad02b2d33f28805ff12ab9ce0dc2d011522087327198ca9d758d0d82abfdd54f6fcbd"}, "vout": 0, "txid": "8b3f926348246d23607ebe4dc8834c3a5bfbfd758236a26578416a4881274248"}, {"sequence": 4294967295, "scriptSig": {"hex": "483045022100fa9369f9dfc6628889b31e94a52efdeacfed930c94d49e3db6b30be57b5fbaa3022055b7ecffe7f1f428dcf4158ffd8e9964699fbd0a031db71d69bc5c7627bfc1b1014104025a1cffe502a80dfa1f543ae14c082aff24d5ecadab160ca904d288eed8e3d8cacef0985f690868df4f416c3890909b4c0c843da153d41382ac20c80170240a", "asm": "3045022100fa9369f9dfc6628889b31e94a52efdeacfed930c94d49e3db6b30be57b5fbaa3022055b7ecffe7f1f428dcf4158ffd8e9964699fbd0a031db71d69bc5c7627bfc1b1[ALL] 04025a1cffe502a80dfa1f543ae14c082aff24d5ecadab160ca904d288eed8e3d8cacef0985f690868df4f416c3890909b4c0c843da153d41382ac20c80170240a"}, "vout": 1, "txid": "0608a0d1d90cca05f97af0ca745af112209edf775317d8cb0fd0b79457f3c0ea"}, {"sequence": 4294967295, "scriptSig": {"hex": "483045022100893cff9e008696eb7768298e45a1b5b093e852585a3f41549e9874377e1c02bb022006c0d7d96bce6e25e10a4b6963b109425f7c39ba4a574b80731e710b272725fe014104025a1cffe502a80dfa1f543ae14c082aff24d5ecadab160ca904d288eed8e3d8cacef0985f690868df4f416c3890909b4c0c843da153d41382ac20c80170240a", "asm": "3045022100893cff9e008696eb7768298e45a1b5b093e852585a3f41549e9874377e1c02bb022006c0d7d96bce6e25e10a4b6963b109425f7c39ba4a574b80731e710b272725fe[ALL] 04025a1cffe502a80dfa1f543ae14c082aff24d5ecadab160ca904d288eed8e3d8cacef0985f690868df4f416c3890909b4c0c843da153d41382ac20c80170240a"}, "vout": 1, "txid": "dd8710fa5e706b90327f9aa3be2bc8d85ebec73d15106774822fa27a4429410e"}], "txid": "b6cf5e7a640cf58de2c56b1a6a51a4af97d6b46dd4b015e8031ac62f6117e794", "blocktime": 1537874412, "version": 1, "confirmations": 11467, "time": 1537874412, "locktime": 0, "vsize": 1563, "size": 1563}