{"hash": "b6d15f00809e52d181b37064c571c88fd456d38ba48e22dd84ea480aba692735", "blockhash": "00000000000000000017f5eb5941039fbcee6240d03bc1f2f8e35350df66a1d8", "vout": [{"scriptPubKey": {"reqSigs": 1, "hex": "76a91460b83fa09fb95a98083f711bd1e76be0b79f506388ac", "addresses": ["19pQbEHUXmd71THkWXjoyjrPUAdJvbWH3u"], "asm": "OP_DUP OP_HASH160 60b83fa09fb95a98083f711bd1e76be0b79f5063 OP_EQUALVERIFY OP_CHECKSIG", "type": "pubkeyhash"}, "value": 0.0002016, "n": 0}, {"scriptPubKey": {"reqSigs": 1, "hex": "76a9140cacb59fc48e0f0bbb9af6fd630f020e9b3f4f1688ac", "addresses": ["12A21NF5byAFN56XRs2f1pTC1e9WHSrk8v"], "asm": "OP_DUP OP_HASH160 0cacb59fc48e0f0bbb9af6fd630f020e9b3f4f16 OP_EQUALVERIFY OP_CHECKSIG", "type": "pubkeyhash"}, "value": 0.0093846, "n": 1}], "hex": "010000000451dee80033e04d7a0c04a6bcb77bcf7dabc9f88e179e556ef7beeef8edec0011000000006a47304402200d0070d4c0d9e1017118c98847534ed37e443cb3ebaf093bce5dda7a18f3ac2a022030d0e4e914fb8ba5a3fb25487eb1376498ee42f7da258ab47ab296e1d053dd860121029ce3db38627ca8d75cbedb40219d4edcf177d2c982bdaead3e022f07dbf3ad76ffffffff62ee6ceb0e042a19fc2a895c8f290a3011fb858c487146cfde69e679fa2f5138000000006a4730440220100f4b0e36d0fb970b87c3efd2f90e5c10d54b9ef7ad02b0c7a96b2035032b58022049362598ca43c34d81e3b37f325652bc15f792f220a1172ab5c4c3cf9eff756d0121029ce3db38627ca8d75cbedb40219d4edcf177d2c982bdaead3e022f07dbf3ad76ffffffff26c54e2252f360f4405fae08b21e0c2d7febe8806c8ba61745b0e6625cd31f6f000000006b483045022100a5839a23e1aa75a249f843bfaa9ca46f1bc036540cbfad43e0a501a46cf739be022046c0be92ac24c706af197567c14f833a9bbb7b20368127d75163edc5b4712b710121029ce3db38627ca8d75cbedb40219d4edcf177d2c982bdaead3e022f07dbf3ad76ffffffff474ae5412bbbe313668aaa45ab20d35816b5ec246a82656f9edb9096e86dc87b000000006a47304402205a635440c1efb71464aa559cabe3edd5d61dc0aff4fc3cbb87aa6ed7f963e3980220044dfc6a723fc10d8aee4685231e4cd5e5aeed68c139c1edb35f06bfb54db2b90121029ce3db38627ca8d75cbedb40219d4edcf177d2c982bdaead3e022f07dbf3ad76ffffffff02c04e0000000000001976a91460b83fa09fb95a98083f711bd1e76be0b79f506388acdc510e00000000001976a9140cacb59fc48e0f0bbb9af6fd630f020e9b3f4f1688ac00000000", "vin": [{"sequence": 4294967295, "scriptSig": {"hex": "47304402200d0070d4c0d9e1017118c98847534ed37e443cb3ebaf093bce5dda7a18f3ac2a022030d0e4e914fb8ba5a3fb25487eb1376498ee42f7da258ab47ab296e1d053dd860121029ce3db38627ca8d75cbedb40219d4edcf177d2c982bdaead3e022f07dbf3ad76", "asm": "304402200d0070d4c0d9e1017118c98847534ed37e443cb3ebaf093bce5dda7a18f3ac2a022030d0e4e914fb8ba5a3fb25487eb1376498ee42f7da258ab47ab296e1d053dd86[ALL] 029ce3db38627ca8d75cbedb40219d4edcf177d2c982bdaead3e022f07dbf3ad76"}, "vout": 0, "txid": "1100ecedf8eebef76e559e178ef8c9ab7dcf7bb7bca6040c7a4de03300e8de51"}, {"sequence": 4294967295, "scriptSig": {"hex": "4730440220100f4b0e36d0fb970b87c3efd2f90e5c10d54b9ef7ad02b0c7a96b2035032b58022049362598ca43c34d81e3b37f325652bc15f792f220a1172ab5c4c3cf9eff756d0121029ce3db38627ca8d75cbedb40219d4edcf177d2c982bdaead3e022f07dbf3ad76", "asm": "30440220100f4b0e36d0fb970b87c3efd2f90e5c10d54b9ef7ad02b0c7a96b2035032b58022049362598ca43c34d81e3b37f325652bc15f792f220a1172ab5c4c3cf9eff756d[ALL] 029ce3db38627ca8d75cbedb40219d4edcf177d2c982bdaead3e022f07dbf3ad76"}, "vout": 0, "txid": "38512ffa79e669decf4671488c85fb11300a298f5c892afc192a040eeb6cee62"}, {"sequence": 4294967295, "scriptSig": {"hex": "483045022100a5839a23e1aa75a249f843bfaa9ca46f1bc036540cbfad43e0a501a46cf739be022046c0be92ac24c706af197567c14f833a9bbb7b20368127d75163edc5b4712b710121029ce3db38627ca8d75cbedb40219d4edcf177d2c982bdaead3e022f07dbf3ad76", "asm": "3045022100a5839a23e1aa75a249f843bfaa9ca46f1bc036540cbfad43e0a501a46cf739be022046c0be92ac24c706af197567c14f833a9bbb7b20368127d75163edc5b4712b71[ALL] 029ce3db38627ca8d75cbedb40219d4edcf177d2c982bdaead3e022f07dbf3ad76"}, "vout": 0, "txid": "6f1fd35c62e6b04517a68b6c80e8eb7f2d0c1eb208ae5f40f460f352224ec526"}, {"sequence": 4294967295, "scriptSig": {"hex": "47304402205a635440c1efb71464aa559cabe3edd5d61dc0aff4fc3cbb87aa6ed7f963e3980220044dfc6a723fc10d8aee4685231e4cd5e5aeed68c139c1edb35f06bfb54db2b90121029ce3db38627ca8d75cbedb40219d4edcf177d2c982bdaead3e022f07dbf3ad76", "asm": "304402205a635440c1efb71464aa559cabe3edd5d61dc0aff4fc3cbb87aa6ed7f963e3980220044dfc6a723fc10d8aee4685231e4cd5e5aeed68c139c1edb35f06bfb54db2b9[ALL] 029ce3db38627ca8d75cbedb40219d4edcf177d2c982bdaead3e022f07dbf3ad76"}, "vout": 0, "txid": "7bc86de89690db9e6f65826a24ecb51658d320ab45aa8a6613e3bb2b41e54a47"}], "txid": "b6d15f00809e52d181b37064c571c88fd456d38ba48e22dd84ea480aba692735", "blocktime": 1537874412, "version": 1, "confirmations": 11467, "time": 1537874412, "locktime": 0, "vsize": 667, "size": 667}