{"hash": "f9e86f90b35b54a1a58893fddd01fabcacdd2ffd0e645037741493b594393b54", "blockhash": "0000000000000000001f76057863aec43deb6fa401d9628bb513d65a8098bfab", "vout": [{"scriptPubKey": {"reqSigs": 1, "hex": "76a914f60e509beb7c5dbeaae1afa1209952f2e120742588ac", "addresses": ["1PS2NoinFTfFuAXQijLmzHnuczcXWnKhHg"], "asm": "OP_DUP OP_HASH160 f60e509beb7c5dbeaae1afa1209952f2e1207425 OP_EQUALVERIFY OP_CHECKSIG", "type": "pubkeyhash"}, "value": 0.0026276, "n": 0}, {"scriptPubKey": {"reqSigs": 1, "hex": "a914d5c894bd42e6971c7cd1bc9c6731d770e721c50187", "addresses": ["3MBQ91vYnXZpb2Y4qKPnix2uGjMF3Lf5NV"], "asm": "OP_HASH160 d5c894bd42e6971c7cd1bc9c6731d770e721c501 OP_EQUAL", "type": "scripthash"}, "value": 0.00999133, "n": 1}], "hex": "020000000001023be605ebecd7ecd3c48792598f4c78d69746ce30c74a97554d7752c32729af940100000017160014ae41d6791fc8696786cf68740402bda0646ac275feffffff575a2e3cec9ebebad4b39e767c945c560f76b801380e7da4c74a55e8a12582140000000017160014b7b3dab2893a963a9f5e499d20c3ecdbf33896d0feffffff0268020400000000001976a914f60e509beb7c5dbeaae1afa1209952f2e120742588acdd3e0f000000000017a914d5c894bd42e6971c7cd1bc9c6731d770e721c50187024730440220233a952fe5d19143dabaab478b0242b4d8e150a0742984ba5fb11946393c6d4a02202d91e4267ad904d765c3b15fc88d9a411a6b0f7d26b29ebae16adc533c6aa6ad012102c13c75e44ab8cadfa19bf254419b70ce4221a55b37bff1ec54397e63346f457f0247304402207f897c5af007c6c5d3472e24d996a8e1598040cf11927f32877ee0b5d678de0a022045e55c3bf356c18f400dbe3a30ea915795ba0d904ceb58f055f97b93c851f61d0121032a56c1662d93a450be71b0ec9f2d303a8db040ab899e7eb61f4054d7488071e4fb480800", "vin": [{"txinwitness": ["30440220233a952fe5d19143dabaab478b0242b4d8e150a0742984ba5fb11946393c6d4a02202d91e4267ad904d765c3b15fc88d9a411a6b0f7d26b29ebae16adc533c6aa6ad01", "02c13c75e44ab8cadfa19bf254419b70ce4221a55b37bff1ec54397e63346f457f"], "sequence": 4294967294, "scriptSig": {"hex": "160014ae41d6791fc8696786cf68740402bda0646ac275", "asm": "0014ae41d6791fc8696786cf68740402bda0646ac275"}, "vout": 1, "txid": "94af2927c352774d55974ac730ce4697d6784c8f599287c4d3ecd7eceb05e63b"}, {"txinwitness": ["304402207f897c5af007c6c5d3472e24d996a8e1598040cf11927f32877ee0b5d678de0a022045e55c3bf356c18f400dbe3a30ea915795ba0d904ceb58f055f97b93c851f61d01", "032a56c1662d93a450be71b0ec9f2d303a8db040ab899e7eb61f4054d7488071e4"], "sequence": 4294967294, "scriptSig": {"hex": "160014b7b3dab2893a963a9f5e499d20c3ecdbf33896d0", "asm": "0014b7b3dab2893a963a9f5e499d20c3ecdbf33896d0"}, "vout": 0, "txid": "148225a1e8554ac7a47d0e3801b8760f565c947c769eb3d4babe9eec3c2e5a57"}], "txid": "b6d27915b87810ffd1635a6ce9c3b8c944db1ad2e92db81df43f15e74a59e924", "blocktime": 1537873891, "version": 2, "confirmations": 11478, "time": 1537873891, "locktime": 542971, "vsize": 258, "size": 420}