{"hash": "b6dc7d5a15359807e2d88ee2e61e89f2bdf6775f3f290f6d5c0210d21786abca", "blockhash": "0000000000000000001f0ddff1eddb255c1121bcd4da4f1bc9a0da00cae72433", "vout": [{"scriptPubKey": {"reqSigs": 1, "hex": "a914e8bdbe0e3eec1d05c541f0649eaecdd0d6a742eb87", "addresses": ["3NudzahWdLG724PdPTNgxx1L9vdxdpF1Cr"], "asm": "OP_HASH160 e8bdbe0e3eec1d05c541f0649eaecdd0d6a742eb OP_EQUAL", "type": "scripthash"}, "value": 0.01836654, "n": 0}, {"scriptPubKey": {"reqSigs": 1, "hex": "76a9144bd7cc51dfad20ea3798e3561d8128585ad2d4dc88ac", "addresses": ["17v2CJd3d9ARXJ4CHAvH8QMKQPUiU8Pzvg"], "asm": "OP_DUP OP_HASH160 4bd7cc51dfad20ea3798e3561d8128585ad2d4dc OP_EQUALVERIFY OP_CHECKSIG", "type": "pubkeyhash"}, "value": 0.04429605, "n": 1}], "hex": "01000000018f56efb42ecc7a6ba759a1be30ea53daf83a53ecc9ebdda1e8bc68b54a713343000000006b483045022100ca6699ea79d37d079cbeec255b9aefefeb81421fd9d349c705328f5590b82402022069c5317073afeddd433812b3121b00831c3c951dce102788615ac273f06a9d29012102a142dbb90d4c7c43a163f3f7498b7ccd44466c6c62f2a121e43bb557451f87ccfeffffff026e061c000000000017a914e8bdbe0e3eec1d05c541f0649eaecdd0d6a742eb8725974300000000001976a9144bd7cc51dfad20ea3798e3561d8128585ad2d4dc88ac00000000", "vin": [{"sequence": 4294967294, "scriptSig": {"hex": "483045022100ca6699ea79d37d079cbeec255b9aefefeb81421fd9d349c705328f5590b82402022069c5317073afeddd433812b3121b00831c3c951dce102788615ac273f06a9d29012102a142dbb90d4c7c43a163f3f7498b7ccd44466c6c62f2a121e43bb557451f87cc", "asm": "3045022100ca6699ea79d37d079cbeec255b9aefefeb81421fd9d349c705328f5590b82402022069c5317073afeddd433812b3121b00831c3c951dce102788615ac273f06a9d29[ALL] 02a142dbb90d4c7c43a163f3f7498b7ccd44466c6c62f2a121e43bb557451f87cc"}, "vout": 0, "txid": "4333714ab568bce8a1ddebc9ec533af8da53ea30bea159a76b7acc2eb4ef568f"}], "txid": "b6dc7d5a15359807e2d88ee2e61e89f2bdf6775f3f290f6d5c0210d21786abca", "blocktime": 1537872018, "version": 1, "confirmations": 11489, "time": 1537872018, "locktime": 0, "vsize": 224, "size": 224}