{"hash": "b6e27f1752a254b373f54f6e3fd0f5ca05a7899d83e1c59fb5c174cd1e1a56da", "blockhash": "0000000000000000000e13cef7c366c0283d82e591d1acd082e914b08063cdf1", "vout": [{"scriptPubKey": {"reqSigs": 1, "hex": "76a914e4b42410e4c0324bc06e8dc0146ad6e4d9f80f8688ac", "addresses": ["1MrGs9RnSJtSrNMGB2weyTgXNL7BN1xXmG"], "asm": "OP_DUP OP_HASH160 e4b42410e4c0324bc06e8dc0146ad6e4d9f80f86 OP_EQUALVERIFY OP_CHECKSIG", "type": "pubkeyhash"}, "value": 0.05023136, "n": 0}, {"scriptPubKey": {"reqSigs": 1, "hex": "76a914b7000f21da0c51f57e60d21e549ff4cbb32b839988ac", "addresses": ["1HgcjDJEwe6KBTnEoXURL6UNscdpw9Vehm"], "asm": "OP_DUP OP_HASH160 b7000f21da0c51f57e60d21e549ff4cbb32b8399 OP_EQUALVERIFY OP_CHECKSIG", "type": "pubkeyhash"}, "value": 0.45259144, "n": 1}], "hex": "0100000001fb0a48a8d5cc9414df2967311f2e01842e3c1faf70ba786b101ab2fe4677304a010000006b483045022100b2a5e27305ab3c0eab548e2d008a26b941c295fba9a1f11019f79048b676a7e902202ceb93e6eb505b9f4e4f916bc1a9f2474d27d3ba7ae7e5185e800346cb9c12b7012103cd800f81d903544411cdc62af2f2fdef6ff55e37ae97454b628dfe16f214353effffffff02a0a54c00000000001976a914e4b42410e4c0324bc06e8dc0146ad6e4d9f80f8688ac8899b202000000001976a914b7000f21da0c51f57e60d21e549ff4cbb32b839988ac00000000", "vin": [{"sequence": 4294967295, "scriptSig": {"hex": "483045022100b2a5e27305ab3c0eab548e2d008a26b941c295fba9a1f11019f79048b676a7e902202ceb93e6eb505b9f4e4f916bc1a9f2474d27d3ba7ae7e5185e800346cb9c12b7012103cd800f81d903544411cdc62af2f2fdef6ff55e37ae97454b628dfe16f214353e", "asm": "3045022100b2a5e27305ab3c0eab548e2d008a26b941c295fba9a1f11019f79048b676a7e902202ceb93e6eb505b9f4e4f916bc1a9f2474d27d3ba7ae7e5185e800346cb9c12b7[ALL] 03cd800f81d903544411cdc62af2f2fdef6ff55e37ae97454b628dfe16f214353e"}, "vout": 1, "txid": "4a307746feb21a106b78ba70af1f3c2e84012e1f316729df1494ccd5a8480afb"}], "txid": "b6e27f1752a254b373f54f6e3fd0f5ca05a7899d83e1c59fb5c174cd1e1a56da", "blocktime": 1537871767, "version": 1, "confirmations": 11490, "time": 1537871767, "locktime": 0, "vsize": 226, "size": 226}