{"hash": "713833c074c25adebea66c76483d945e4ac5eeff4a6042420e1d48019f673430", "blockhash": "0000000000000000001e0dab787dd257d1dbfcb92a98c2207d5e1078be1f4165", "vout": [{"scriptPubKey": {"reqSigs": 1, "hex": "a914ff1a1ade7d459cf3aec00e4fd9eabc4b2e091a8587", "addresses": ["3QwsWGJsdGMnVZD7wAySSMLmH1LYX4A9Ab"], "asm": "OP_HASH160 ff1a1ade7d459cf3aec00e4fd9eabc4b2e091a85 OP_EQUAL", "type": "scripthash"}, "value": 6.81313581, "n": 0}, {"scriptPubKey": {"reqSigs": 1, "hex": "76a914b2531641b75ab3854dbfc08d865fa2d16e6f44d388ac", "addresses": ["1HFtp8QMEML45WPpmEyZmivAazyJKu5ATR"], "asm": "OP_DUP OP_HASH160 b2531641b75ab3854dbfc08d865fa2d16e6f44d3 OP_EQUALVERIFY OP_CHECKSIG", "type": "pubkeyhash"}, "value": 0.02169487, "n": 1}, {"scriptPubKey": {"reqSigs": 1, "hex": "76a914504a7457474bc3d0fafa9938aa4ee461725fa27388ac", "addresses": ["18KYFXuH5pSREr7fmVLLwmHMwgzCMGgsTd"], "asm": "OP_DUP OP_HASH160 504a7457474bc3d0fafa9938aa4ee461725fa273 OP_EQUALVERIFY OP_CHECKSIG", "type": "pubkeyhash"}, "value": 0.00369736, "n": 2}, {"scriptPubKey": {"reqSigs": 1, "hex": "76a914e050c7c5009238ebe767e0d6fa276f14bd1ab90588ac", "addresses": ["1MT58grT3HqzbLgqkB43uCrBDiFjcaU6SE"], "asm": "OP_DUP OP_HASH160 e050c7c5009238ebe767e0d6fa276f14bd1ab905 OP_EQUALVERIFY OP_CHECKSIG", "type": "pubkeyhash"}, "value": 0.05639017, "n": 3}, {"scriptPubKey": {"reqSigs": 1, "hex": "76a914b7303069821f70eaad7821747a5a0152ad14c5c588ac", "addresses": ["1HhcPLtvwgSQKTaVSgrEmnib7jYPRVf2F5"], "asm": "OP_DUP OP_HASH160 b7303069821f70eaad7821747a5a0152ad14c5c5 OP_EQUALVERIFY OP_CHECKSIG", "type": "pubkeyhash"}, "value": 0.13322313, "n": 4}, {"scriptPubKey": {"reqSigs": 1, "hex": "76a914aad2585f742c74b39c75cbe9bf1cdce1798b676788ac", "addresses": ["1GaDreqU4zu4LMjF6MKkEgdo1SQnwKNu6q"], "asm": "OP_DUP OP_HASH160 aad2585f742c74b39c75cbe9bf1cdce1798b6767 OP_EQUALVERIFY OP_CHECKSIG", "type": "pubkeyhash"}, "value": 2.13088068, "n": 5}, {"scriptPubKey": {"reqSigs": 1, "hex": "a91472be12e7aa5d1a86e3be72a516a51238f26acfbe87", "addresses": ["3C9ieyVi6ywWNgFenxZb1n8tvBzEMwpozZ"], "asm": "OP_HASH160 72be12e7aa5d1a86e3be72a516a51238f26acfbe OP_EQUAL", "type": "scripthash"}, "value": 0.037442, "n": 6}, {"scriptPubKey": {"reqSigs": 1, "hex": "76a914aad2585f742c74b39c75cbe9bf1cdce1798b676788ac", "addresses": ["1GaDreqU4zu4LMjF6MKkEgdo1SQnwKNu6q"], "asm": "OP_DUP OP_HASH160 aad2585f742c74b39c75cbe9bf1cdce1798b6767 OP_EQUALVERIFY OP_CHECKSIG", "type": "pubkeyhash"}, "value": 0.75892762, "n": 7}, {"scriptPubKey": {"reqSigs": 1, "hex": "76a914d04607e7c1580b241b596b160bb420ca3f8d9a5f88ac", "addresses": ["1KzFSjS2VcYRvZDY6dYCAUeQjEp7LjzRtF"], "asm": "OP_DUP OP_HASH160 d04607e7c1580b241b596b160bb420ca3f8d9a5f OP_EQUALVERIFY OP_CHECKSIG", "type": "pubkeyhash"}, "value": 0.012827, "n": 8}, {"scriptPubKey": {"reqSigs": 1, "hex": "76a9145fc50729192987778be166882954b002bb4e934088ac", "addresses": ["19jPDy71LTEYpi2GzSXsHedY9r6Edn41Y3"], "asm": "OP_DUP OP_HASH160 5fc50729192987778be166882954b002bb4e9340 OP_EQUALVERIFY OP_CHECKSIG", "type": "pubkeyhash"}, "value": 0.055, "n": 9}, {"scriptPubKey": {"reqSigs": 1, "hex": "76a9148417c7f2035a0760eec534f89f4f24464320b40f88ac", "addresses": ["1D3Sgf7APbAfeU1qZNW1XttGVNiXT8ksDd"], "asm": "OP_DUP OP_HASH160 8417c7f2035a0760eec534f89f4f24464320b40f OP_EQUALVERIFY OP_CHECKSIG", "type": "pubkeyhash"}, "value": 0.0086227, "n": 10}, {"scriptPubKey": {"reqSigs": 1, "hex": "a91445dd5ef464f1ae7732416e6e1915961cd417231c87", "addresses": ["384RjuDBvPnPumCg3t4iQdBZBmMzZAoP9v"], "asm": "OP_HASH160 45dd5ef464f1ae7732416e6e1915961cd417231c OP_EQUAL", "type": "scripthash"}, "value": 0.05384467, "n": 11}, {"scriptPubKey": {"reqSigs": 1, "hex": "76a914b028523a0008258f7e5dfca1ca9cb22e569a4b9f88ac", "addresses": ["1H4SEL2djGAEWvjCCBhY2fXjKD2i5Hizr1"], "asm": "OP_DUP OP_HASH160 b028523a0008258f7e5dfca1ca9cb22e569a4b9f OP_EQUALVERIFY OP_CHECKSIG", "type": "pubkeyhash"}, "value": 0.08052196, "n": 12}, {"scriptPubKey": {"reqSigs": 1, "hex": "76a914aad2585f742c74b39c75cbe9bf1cdce1798b676788ac", "addresses": ["1GaDreqU4zu4LMjF6MKkEgdo1SQnwKNu6q"], "asm": "OP_DUP OP_HASH160 aad2585f742c74b39c75cbe9bf1cdce1798b6767 OP_EQUALVERIFY OP_CHECKSIG", "type": "pubkeyhash"}, "value": 1.32807079, "n": 13}, {"scriptPubKey": {"reqSigs": 1, "hex": "76a914f0b2d14ff6e5b9810adbd8c0755c51f84aefe6ce88ac", "addresses": ["1NwhPWLWWAbs9vMgHwinrExKyRDYVueEPv"], "asm": "OP_DUP OP_HASH160 f0b2d14ff6e5b9810adbd8c0755c51f84aefe6ce OP_EQUALVERIFY OP_CHECKSIG", "type": "pubkeyhash"}, "value": 0.00756254, "n": 14}, {"scriptPubKey": {"reqSigs": 1, "hex": "76a914b361c2a5a9744a748b8ab818c960c5709f1db2bd88ac", "addresses": ["1HMV4r29nBsTDBMr9p9gut5U3L367bwrvY"], "asm": "OP_DUP OP_HASH160 b361c2a5a9744a748b8ab818c960c5709f1db2bd OP_EQUALVERIFY OP_CHECKSIG", "type": "pubkeyhash"}, "value": 0.0894087, "n": 15}], "hex": "01000000000101e1599924edea0942e8586ddde20f462512c7473de0744d6ae231b9f9f3512e7900000000232200205a4e731767e0c0cc399b9bbd8dcaf340cee695ca6ed7c4db7d8e2518d76da9efffffffff102d059c280000000017a914ff1a1ade7d459cf3aec00e4fd9eabc4b2e091a85878f1a2100000000001976a914b2531641b75ab3854dbfc08d865fa2d16e6f44d388ac48a40500000000001976a914504a7457474bc3d0fafa9938aa4ee461725fa27388ac690b5600000000001976a914e050c7c5009238ebe767e0d6fa276f14bd1ab90588ac4948cb00000000001976a914b7303069821f70eaad7821747a5a0152ad14c5c588ac4477b30c000000001976a914aad2585f742c74b39c75cbe9bf1cdce1798b676788acc82139000000000017a91472be12e7aa5d1a86e3be72a516a51238f26acfbe871a088604000000001976a914aad2585f742c74b39c75cbe9bf1cdce1798b676788ac8c921300000000001976a914d04607e7c1580b241b596b160bb420ca3f8d9a5f88ac60ec5300000000001976a9145fc50729192987778be166882954b002bb4e934088ac3e280d00000000001976a9148417c7f2035a0760eec534f89f4f24464320b40f88ac132952000000000017a91445dd5ef464f1ae7732416e6e1915961cd417231c87e4dd7a00000000001976a914b028523a0008258f7e5dfca1ca9cb22e569a4b9f88aca779ea07000000001976a914aad2585f742c74b39c75cbe9bf1cdce1798b676788ac1e8a0b00000000001976a914f0b2d14ff6e5b9810adbd8c0755c51f84aefe6ce88ac466d8800000000001976a914b361c2a5a9744a748b8ab818c960c5709f1db2bd88ac0400483045022100b86e8d086a6fb5da180444c0ac94b8da4242e149fdefcad41a84dd6a4d5d6d7f022013699970cd6b9abf4827bbe889eecd79a57f0d7d5514083630a18a330e12e82501483045022100becd8937a71a38bada8661a66f6b9d15c27dc119de95d555c4d39a84787705df02206f5acbafd4d1550644714151611cd0d70904cf7d36d6f70988ec67023cc34ac60169522102ae78dab1f116874ec315733bff6c9b1afccdc2edbd17101294bea4154b76b22b2102cb5e72d3c769ec89317798ee90463ebf1742aaecf2383609cc5c97a33b18df622103ebf7c75a1858f05a8d4b1b55c9e9b7d7a97e7c999362444e79057cf5eb75d96453ae00000000", "vin": [{"txinwitness": ["", "3045022100b86e8d086a6fb5da180444c0ac94b8da4242e149fdefcad41a84dd6a4d5d6d7f022013699970cd6b9abf4827bbe889eecd79a57f0d7d5514083630a18a330e12e82501", "3045022100becd8937a71a38bada8661a66f6b9d15c27dc119de95d555c4d39a84787705df02206f5acbafd4d1550644714151611cd0d70904cf7d36d6f70988ec67023cc34ac601", "522102ae78dab1f116874ec315733bff6c9b1afccdc2edbd17101294bea4154b76b22b2102cb5e72d3c769ec89317798ee90463ebf1742aaecf2383609cc5c97a33b18df622103ebf7c75a1858f05a8d4b1b55c9e9b7d7a97e7c999362444e79057cf5eb75d96453ae"], "sequence": 4294967295, "scriptSig": {"hex": "2200205a4e731767e0c0cc399b9bbd8dcaf340cee695ca6ed7c4db7d8e2518d76da9ef", "asm": "00205a4e731767e0c0cc399b9bbd8dcaf340cee695ca6ed7c4db7d8e2518d76da9ef"}, "vout": 0, "txid": "792e51f3f9b931e26a4d74e03d47c71225460fe2dd6d58e84209eaed249959e1"}], "txid": "b6e3ad76006ea72566c490d05159a4f67ab7ed3d9135cc8f60b077858d2fc483", "blocktime": 1537872475, "version": 1, "confirmations": 11486, "time": 1537872475, "locktime": 0, "vsize": 688, "size": 880}