{"hash": "b6e30ff848883b19fd87c29d9b18e3c80b4e0d840db7e47e32da3eb92ea3d414", "blockhash": "0000000000000000001e0dab787dd257d1dbfcb92a98c2207d5e1078be1f4165", "vout": [{"scriptPubKey": {"reqSigs": 1, "hex": "76a9141a57c90f19c555367359a9d7de227b96ea6be8c188ac", "addresses": ["13QHjRYbqh4WRo4DeoUyJbmQFcax1Mx32D"], "asm": "OP_DUP OP_HASH160 1a57c90f19c555367359a9d7de227b96ea6be8c1 OP_EQUALVERIFY OP_CHECKSIG", "type": "pubkeyhash"}, "value": 0.01849742, "n": 0}, {"scriptPubKey": {"reqSigs": 1, "hex": "76a914edd677986dc2d99c4d44bbd05f7529339c51633c88ac", "addresses": ["1Nga4uS3GzSfLdZeW5KsGBWNn6QBpLH36y"], "asm": "OP_DUP OP_HASH160 edd677986dc2d99c4d44bbd05f7529339c51633c OP_EQUALVERIFY OP_CHECKSIG", "type": "pubkeyhash"}, "value": 0.0221614, "n": 1}], "hex": "01000000016d9d2e0e5e2acb3c0518273080f5407c7c127c412277c8bfb65857ec3a130e36000000006a47304402203e8b309579b2b75feb712a8c9f00994f9c9017ad24feebcdaa245c3fbe989b4c0220625e9bf6806b6f5a3336a34bc4c7ffc6489293238fb3d7377415a24265b2d6a40121029d7d9a8a037b1f77923caa55acec61f9a63503ebf5c4893f25bf0c857f986090fdffffff028e391c00000000001976a9141a57c90f19c555367359a9d7de227b96ea6be8c188acccd02100000000001976a914edd677986dc2d99c4d44bbd05f7529339c51633c88ac11490800", "vin": [{"sequence": 4294967293, "scriptSig": {"hex": "47304402203e8b309579b2b75feb712a8c9f00994f9c9017ad24feebcdaa245c3fbe989b4c0220625e9bf6806b6f5a3336a34bc4c7ffc6489293238fb3d7377415a24265b2d6a40121029d7d9a8a037b1f77923caa55acec61f9a63503ebf5c4893f25bf0c857f986090", "asm": "304402203e8b309579b2b75feb712a8c9f00994f9c9017ad24feebcdaa245c3fbe989b4c0220625e9bf6806b6f5a3336a34bc4c7ffc6489293238fb3d7377415a24265b2d6a4[ALL] 029d7d9a8a037b1f77923caa55acec61f9a63503ebf5c4893f25bf0c857f986090"}, "vout": 0, "txid": "360e133aec5758b6bfc87722417c127c7c40f580302718053ccb2a5e0e2e9d6d"}], "txid": "b6e30ff848883b19fd87c29d9b18e3c80b4e0d840db7e47e32da3eb92ea3d414", "blocktime": 1537872475, "version": 1, "confirmations": 11486, "time": 1537872475, "locktime": 542993, "vsize": 225, "size": 225}