{"hash": "b6e8e2a2bbce63eff4159df2e987a82c5df5b879240a95a99416f6fd618ff440", "blockhash": "0000000000000000001f76057863aec43deb6fa401d9628bb513d65a8098bfab", "vout": [{"scriptPubKey": {"reqSigs": 1, "hex": "76a914f2c4201b16680dec4606069b753549ec1f0ff99288ac", "addresses": ["1P8dUTRZa1vYFy4RU51j6XJZP7C3cCXdai"], "asm": "OP_DUP OP_HASH160 f2c4201b16680dec4606069b753549ec1f0ff992 OP_EQUALVERIFY OP_CHECKSIG", "type": "pubkeyhash"}, "value": 0.00783855, "n": 0}, {"scriptPubKey": {"reqSigs": 1, "hex": "a9149ce73cb89faa2ff4da26652c21d962bb3fd5ad7787", "addresses": ["3FzeM7Putxshb5MVgHpatQKHyVbgNPMA7g"], "asm": "OP_HASH160 9ce73cb89faa2ff4da26652c21d962bb3fd5ad77 OP_EQUAL", "type": "scripthash"}, "value": 0.03125578, "n": 1}], "hex": "01000000010c61b6f383c7eebccb6807ab139315c4c4941ceaa6bcb4ae8d8524f86cab87130a0000006a47304402205d698a295d90c65de56d7430c646e4e2386142678dbe95ccd9278b7de77573a902203ffae9d212c6a435ec7d74d4e2d49bbce3e8d4905bf7e317e566c43feafed59e0121031ca88c6456259dd7fcd6bb36a448299ebd289c16fe22db22778cfbf3c1bf0813ffffffff02eff50b00000000001976a914f2c4201b16680dec4606069b753549ec1f0ff99288ac4ab12f000000000017a9149ce73cb89faa2ff4da26652c21d962bb3fd5ad778700000000", "vin": [{"sequence": 4294967295, "scriptSig": {"hex": "47304402205d698a295d90c65de56d7430c646e4e2386142678dbe95ccd9278b7de77573a902203ffae9d212c6a435ec7d74d4e2d49bbce3e8d4905bf7e317e566c43feafed59e0121031ca88c6456259dd7fcd6bb36a448299ebd289c16fe22db22778cfbf3c1bf0813", "asm": "304402205d698a295d90c65de56d7430c646e4e2386142678dbe95ccd9278b7de77573a902203ffae9d212c6a435ec7d74d4e2d49bbce3e8d4905bf7e317e566c43feafed59e[ALL] 031ca88c6456259dd7fcd6bb36a448299ebd289c16fe22db22778cfbf3c1bf0813"}, "vout": 10, "txid": "1387ab6cf824858daeb4bca6ea1c94c4c4159313ab0768cbbceec783f3b6610c"}], "txid": "b6e8e2a2bbce63eff4159df2e987a82c5df5b879240a95a99416f6fd618ff440", "blocktime": 1537873891, "version": 1, "confirmations": 11478, "time": 1537873891, "locktime": 0, "vsize": 223, "size": 223}