{"hash": "b6ee86845ddac66af55b6b5e8814930286ab3305bcbf14f72e9c170b71951558", "blockhash": "0000000000000000001cda96e906b7601b7a6fb1a3b62bca570a9e5d8f4b3de1", "vout": [{"scriptPubKey": {"reqSigs": 1, "hex": "a914ac7222f23f15fb5e98ad45dbf04b7f613f0ead8387", "addresses": ["3HQpst89ZGj41jeA42AtVBgy6grHCb5fQU"], "asm": "OP_HASH160 ac7222f23f15fb5e98ad45dbf04b7f613f0ead83 OP_EQUAL", "type": "scripthash"}, "value": 0.07818, "n": 0}], "hex": "01000000099faee2d77d61ad90ca14cc83bd2b852de5cb2123bb917f624737fcfc70ad390f000000006a4730440220147812dfd55b6a1abf3cecd334deb0e4fc70b9ae7a57bcabd8c39fbab0aef496022055f47469673efadbe49af8f595fddf1903cf194f6dce0f36e26783072478a0ee012103fb592d8e7dfc1659cf857d559eb1055999923d9f7b42996b74c14a3fb7ee14bdffffffff2aaa798768e4769d830bee7b1b6361e4542d934f6fa04900508b249ff4c71812000000006b483045022100c6559a18d202e59b1b0fa3922fcd6e6fe54da3c12023b771d216a02afdf4221402205964a51585d6ecc756a3e29f01257eb3c1d0426ac1e0b6a25839b4781411f3ec012103223d6d784752979eb33a9eb5249c4b66b4c3ad9757927cf78e5bef53926aaa64ffffffff7d5f08c826eb01e4046d970db0a9a2a995a572e64bbc51d78e0e5bd68d80603a000000006b483045022100a97d010fb27ccfffca84c681b8c5df13a7a1c5ad9ecaf27716fdd68e472db3dd022017ab123e664bd6f689b52ef3a0c3ffb9353c3ffd8c80bd6c14849932bc59883e012103d2f2eb798410c45d9001a2deeec99d633a2e235eeb25df2630df919a3ff2da4affffffff76273eb6ed029a93f749069d28f4d89be8e59a54725d65dc067f07ae28147441010000006b483045022100b073e66c22e09b234f72d1b3e374718018f6a0f695a4d283961ca6ac8bb6a1f702200a4348c31a7ebc640f7615357465bd17750f977d17027abfc1d6dbfdd2571b12012103d2f2eb798410c45d9001a2deeec99d633a2e235eeb25df2630df919a3ff2da4affffffff812a7e6c9884ad116077403ee36e9290efb131bc65004ba23f9418c8c53b7077000000006b483045022100cd4b71d0795552e82d19f57a78e8a663bc88e7dfa6ca8d1b1967e79b6547e6f2022032ffd2882e08095af3f9379728e391df609bc8bc421deb253b68f5da97a9f0ff012103f445a19e418a2b6894a7c4052d17e97a65d70c29f863a1d8c592f7c6d9e4fbcaffffffff3762eb634aa350112d199e0db5c83a1f3c1241d1dee18bb25c7b074a36483ba3000000006b483045022100a80c9b981e50101a88bb2c783df8e227afd8242347b25d906115b839c0343b4d02207f6c6e2d9757ec3698305c6cad93f8250b25e434d55f1ea105da7ff6d20bf6bf012102ceadce4e0c66069e29b848bd82ce99f7808911ebf5a8dc16b091cd2e8856b59dffffffff2889b7148dfe79b796d4a26d5255f23c92bda25de0b212c3648edb7765fa89ba000000006b483045022100e02e69711b214df1ba465480f2881e7927978dd841651494d92e29194fbaa0c7022041ecd2a7b0086060c6dd91cd052066dc2559a48e654edf95273a1c5919e41122012103d5c3dd1c68f35b15e04b3074235aca14e8c2427ba3ddcea6fd77fefa8366ae82ffffffff374cfcea78ee81cfeb4e8e738cc2b322aeddf8aa751a9b22fd6cc3d858439abb000000006b4830450221009c2a7fcd1b649c35cf25ff5b0e1c5b6e767c63a17fe5fa72a202e4fd361e043502201998b39f00f13360e2496ab034ffceafb76618ce3b0c75d0dc40eb86bc3a3dbf0121037d4026f2da29d09d473658254a4a6a3fa4e2dbcfa1fd5c9e0c93f467a36076a3ffffffffa6b7e77a2bf4e769637ecc456418265dd7ec79f6e423da991e274ae5e390a2f8000000006a47304402204df218c2df70c1a46dd4ae39d8a5f0b2e9d11eb3a40c7ff65e1760730baef990022011456149ae76b41444dccbb7d6b29785c9ff09963f17e9fd50f25c65bcbea67c0121025f6372fbb47cb1b605edec165a5638e61e730c7042ba35db4314a44f8ec44ec8ffffffff01104b77000000000017a914ac7222f23f15fb5e98ad45dbf04b7f613f0ead838700000000", "vin": [{"sequence": 4294967295, "scriptSig": {"hex": "4730440220147812dfd55b6a1abf3cecd334deb0e4fc70b9ae7a57bcabd8c39fbab0aef496022055f47469673efadbe49af8f595fddf1903cf194f6dce0f36e26783072478a0ee012103fb592d8e7dfc1659cf857d559eb1055999923d9f7b42996b74c14a3fb7ee14bd", "asm": "30440220147812dfd55b6a1abf3cecd334deb0e4fc70b9ae7a57bcabd8c39fbab0aef496022055f47469673efadbe49af8f595fddf1903cf194f6dce0f36e26783072478a0ee[ALL] 03fb592d8e7dfc1659cf857d559eb1055999923d9f7b42996b74c14a3fb7ee14bd"}, "vout": 0, "txid": "0f39ad70fcfc3747627f91bb2321cbe52d852bbd83cc14ca90ad617dd7e2ae9f"}, {"sequence": 4294967295, "scriptSig": {"hex": "483045022100c6559a18d202e59b1b0fa3922fcd6e6fe54da3c12023b771d216a02afdf4221402205964a51585d6ecc756a3e29f01257eb3c1d0426ac1e0b6a25839b4781411f3ec012103223d6d784752979eb33a9eb5249c4b66b4c3ad9757927cf78e5bef53926aaa64", "asm": "3045022100c6559a18d202e59b1b0fa3922fcd6e6fe54da3c12023b771d216a02afdf4221402205964a51585d6ecc756a3e29f01257eb3c1d0426ac1e0b6a25839b4781411f3ec[ALL] 03223d6d784752979eb33a9eb5249c4b66b4c3ad9757927cf78e5bef53926aaa64"}, "vout": 0, "txid": "1218c7f49f248b500049a06f4f932d54e461631b7bee0b839d76e4688779aa2a"}, {"sequence": 4294967295, "scriptSig": {"hex": "483045022100a97d010fb27ccfffca84c681b8c5df13a7a1c5ad9ecaf27716fdd68e472db3dd022017ab123e664bd6f689b52ef3a0c3ffb9353c3ffd8c80bd6c14849932bc59883e012103d2f2eb798410c45d9001a2deeec99d633a2e235eeb25df2630df919a3ff2da4a", "asm": "3045022100a97d010fb27ccfffca84c681b8c5df13a7a1c5ad9ecaf27716fdd68e472db3dd022017ab123e664bd6f689b52ef3a0c3ffb9353c3ffd8c80bd6c14849932bc59883e[ALL] 03d2f2eb798410c45d9001a2deeec99d633a2e235eeb25df2630df919a3ff2da4a"}, "vout": 0, "txid": "3a60808dd65b0e8ed751bc4be672a595a9a2a9b00d976d04e401eb26c8085f7d"}, {"sequence": 4294967295, "scriptSig": {"hex": "483045022100b073e66c22e09b234f72d1b3e374718018f6a0f695a4d283961ca6ac8bb6a1f702200a4348c31a7ebc640f7615357465bd17750f977d17027abfc1d6dbfdd2571b12012103d2f2eb798410c45d9001a2deeec99d633a2e235eeb25df2630df919a3ff2da4a", "asm": "3045022100b073e66c22e09b234f72d1b3e374718018f6a0f695a4d283961ca6ac8bb6a1f702200a4348c31a7ebc640f7615357465bd17750f977d17027abfc1d6dbfdd2571b12[ALL] 03d2f2eb798410c45d9001a2deeec99d633a2e235eeb25df2630df919a3ff2da4a"}, "vout": 1, "txid": "41741428ae077f06dc655d72549ae5e89bd8f4289d0649f7939a02edb63e2776"}, {"sequence": 4294967295, "scriptSig": {"hex": "483045022100cd4b71d0795552e82d19f57a78e8a663bc88e7dfa6ca8d1b1967e79b6547e6f2022032ffd2882e08095af3f9379728e391df609bc8bc421deb253b68f5da97a9f0ff012103f445a19e418a2b6894a7c4052d17e97a65d70c29f863a1d8c592f7c6d9e4fbca", "asm": "3045022100cd4b71d0795552e82d19f57a78e8a663bc88e7dfa6ca8d1b1967e79b6547e6f2022032ffd2882e08095af3f9379728e391df609bc8bc421deb253b68f5da97a9f0ff[ALL] 03f445a19e418a2b6894a7c4052d17e97a65d70c29f863a1d8c592f7c6d9e4fbca"}, "vout": 0, "txid": "77703bc5c818943fa24b0065bc31b1ef90926ee33e40776011ad84986c7e2a81"}, {"sequence": 4294967295, "scriptSig": {"hex": "483045022100a80c9b981e50101a88bb2c783df8e227afd8242347b25d906115b839c0343b4d02207f6c6e2d9757ec3698305c6cad93f8250b25e434d55f1ea105da7ff6d20bf6bf012102ceadce4e0c66069e29b848bd82ce99f7808911ebf5a8dc16b091cd2e8856b59d", "asm": "3045022100a80c9b981e50101a88bb2c783df8e227afd8242347b25d906115b839c0343b4d02207f6c6e2d9757ec3698305c6cad93f8250b25e434d55f1ea105da7ff6d20bf6bf[ALL] 02ceadce4e0c66069e29b848bd82ce99f7808911ebf5a8dc16b091cd2e8856b59d"}, "vout": 0, "txid": "a33b48364a077b5cb28be1ded141123c1f3ac8b50d9e192d1150a34a63eb6237"}, {"sequence": 4294967295, "scriptSig": {"hex": "483045022100e02e69711b214df1ba465480f2881e7927978dd841651494d92e29194fbaa0c7022041ecd2a7b0086060c6dd91cd052066dc2559a48e654edf95273a1c5919e41122012103d5c3dd1c68f35b15e04b3074235aca14e8c2427ba3ddcea6fd77fefa8366ae82", "asm": "3045022100e02e69711b214df1ba465480f2881e7927978dd841651494d92e29194fbaa0c7022041ecd2a7b0086060c6dd91cd052066dc2559a48e654edf95273a1c5919e41122[ALL] 03d5c3dd1c68f35b15e04b3074235aca14e8c2427ba3ddcea6fd77fefa8366ae82"}, "vout": 0, "txid": "ba89fa6577db8e64c312b2e05da2bd923cf255526da2d496b779fe8d14b78928"}, {"sequence": 4294967295, "scriptSig": {"hex": "4830450221009c2a7fcd1b649c35cf25ff5b0e1c5b6e767c63a17fe5fa72a202e4fd361e043502201998b39f00f13360e2496ab034ffceafb76618ce3b0c75d0dc40eb86bc3a3dbf0121037d4026f2da29d09d473658254a4a6a3fa4e2dbcfa1fd5c9e0c93f467a36076a3", "asm": "30450221009c2a7fcd1b649c35cf25ff5b0e1c5b6e767c63a17fe5fa72a202e4fd361e043502201998b39f00f13360e2496ab034ffceafb76618ce3b0c75d0dc40eb86bc3a3dbf[ALL] 037d4026f2da29d09d473658254a4a6a3fa4e2dbcfa1fd5c9e0c93f467a36076a3"}, "vout": 0, "txid": "bb9a4358d8c36cfd229b1a75aaf8ddae22b3c28c738e4eebcf81ee78eafc4c37"}, {"sequence": 4294967295, "scriptSig": {"hex": "47304402204df218c2df70c1a46dd4ae39d8a5f0b2e9d11eb3a40c7ff65e1760730baef990022011456149ae76b41444dccbb7d6b29785c9ff09963f17e9fd50f25c65bcbea67c0121025f6372fbb47cb1b605edec165a5638e61e730c7042ba35db4314a44f8ec44ec8", "asm": "304402204df218c2df70c1a46dd4ae39d8a5f0b2e9d11eb3a40c7ff65e1760730baef990022011456149ae76b41444dccbb7d6b29785c9ff09963f17e9fd50f25c65bcbea67c[ALL] 025f6372fbb47cb1b605edec165a5638e61e730c7042ba35db4314a44f8ec44ec8"}, "vout": 0, "txid": "f8a290e3e54a271e99da23e4f679ecd75d26186445cc7e6369e7f42b7ae7b7a6"}], "txid": "b6ee86845ddac66af55b6b5e8814930286ab3305bcbf14f72e9c170b71951558", "blocktime": 1537873282, "version": 1, "confirmations": 11484, "time": 1537873282, "locktime": 0, "vsize": 1372, "size": 1372}