{"hash": "1af2f197e2aaf74c6c2db51ffb12a6c7d8011134bf58e3147766d0ca2b307700", "blockhash": "0000000000000000000e13cef7c366c0283d82e591d1acd082e914b08063cdf1", "vout": [{"scriptPubKey": {"reqSigs": 1, "hex": "76a914895727119f0b36ab7ab677676e60766781fbdb3a88ac", "addresses": ["1DXBykXXHUiNRVAiHZ9nGGrGxRXanh6nuM"], "asm": "OP_DUP OP_HASH160 895727119f0b36ab7ab677676e60766781fbdb3a OP_EQUALVERIFY OP_CHECKSIG", "type": "pubkeyhash"}, "value": 0.001, "n": 0}], "hex": "010000000001022011469346f800ad041bb705aa2e46c109552ada667c05875ad5e0def4f5736d00000000fdfd0000473044022068f8f995fded10a8c87417c7c2b9c7ce5988f6089d036e76cc07e87dc7176726022031fa814beb9ab3ad51a0b66504d739e33d2183f7801d633eaba544a225732a2301483045022100be8d3af4d229d2d9ba270eb5f13ad4fc878193d6c32df85ff45e1d6080b261e80220222c2edaffba3759e30de4f9f72dc39a812a2ffbea4cce2961610f1ddd987dd9014c695221023e86f919b87ea8f708fb2d20968f18a6a0e69fb51713e08861600779f9e7d2e8210285d07440029f37bcaa254c35dc0078f7da855532423cbfdc9eaa028cb4caddb72102c3051d1a184a786da8b86a03d031cf88fd78e508b002f1d9e5c3be4cb9f062a853aefffffffffb62dfdb9f67e57d771c40653ebb42fcc0a2be53bb0f4e2acf92ea7cde91982f0000000023220020d2e5615da737bf1f649695cc0bc92e5211bbe5ac4b061ed98ea856f5b66b920fffffffff01a0860100000000001976a914895727119f0b36ab7ab677676e60766781fbdb3a88ac000400483045022100ed4858c866c8068f56ee21f1a07f825cbf022f92de868c791755c5d503785bfe02202eac56a3a6aca785267f2ea42f96958038237585752219aa29516c7a128dbf610147304402207ebfc7b72c9c8c9993512216690e1f0dd458a5b833fd0fcb709d64dec194c33a0220478823491ca90037f5dbff07925a5b7eee788f99a682f71a5ab5a652a8d2fc1c0169522102934cc01e9b4079647eb7b54ffd2f7045762f7e97bb15fbf638366cde7203474e2102cb5410b3c2574c5144750dfb6062b840ed6e50a08b654cb2b99010d8e33ee6312103a901cde0a32f4365ad86ce4fffc4b3d173af531763e4ba5db06436e80851aba053ae00000000", "vin": [{"sequence": 4294967295, "scriptSig": {"hex": "00473044022068f8f995fded10a8c87417c7c2b9c7ce5988f6089d036e76cc07e87dc7176726022031fa814beb9ab3ad51a0b66504d739e33d2183f7801d633eaba544a225732a2301483045022100be8d3af4d229d2d9ba270eb5f13ad4fc878193d6c32df85ff45e1d6080b261e80220222c2edaffba3759e30de4f9f72dc39a812a2ffbea4cce2961610f1ddd987dd9014c695221023e86f919b87ea8f708fb2d20968f18a6a0e69fb51713e08861600779f9e7d2e8210285d07440029f37bcaa254c35dc0078f7da855532423cbfdc9eaa028cb4caddb72102c3051d1a184a786da8b86a03d031cf88fd78e508b002f1d9e5c3be4cb9f062a853ae", "asm": "0 3044022068f8f995fded10a8c87417c7c2b9c7ce5988f6089d036e76cc07e87dc7176726022031fa814beb9ab3ad51a0b66504d739e33d2183f7801d633eaba544a225732a23[ALL] 3045022100be8d3af4d229d2d9ba270eb5f13ad4fc878193d6c32df85ff45e1d6080b261e80220222c2edaffba3759e30de4f9f72dc39a812a2ffbea4cce2961610f1ddd987dd9[ALL] 5221023e86f919b87ea8f708fb2d20968f18a6a0e69fb51713e08861600779f9e7d2e8210285d07440029f37bcaa254c35dc0078f7da855532423cbfdc9eaa028cb4caddb72102c3051d1a184a786da8b86a03d031cf88fd78e508b002f1d9e5c3be4cb9f062a853ae"}, "vout": 0, "txid": "6d73f5f4dee0d55a87057c66da2a5509c1462eaa05b71b04ad00f84693461120"}, {"txinwitness": ["", "3045022100ed4858c866c8068f56ee21f1a07f825cbf022f92de868c791755c5d503785bfe02202eac56a3a6aca785267f2ea42f96958038237585752219aa29516c7a128dbf6101", "304402207ebfc7b72c9c8c9993512216690e1f0dd458a5b833fd0fcb709d64dec194c33a0220478823491ca90037f5dbff07925a5b7eee788f99a682f71a5ab5a652a8d2fc1c01", "522102934cc01e9b4079647eb7b54ffd2f7045762f7e97bb15fbf638366cde7203474e2102cb5410b3c2574c5144750dfb6062b840ed6e50a08b654cb2b99010d8e33ee6312103a901cde0a32f4365ad86ce4fffc4b3d173af531763e4ba5db06436e80851aba053ae"], "sequence": 4294967295, "scriptSig": {"hex": "220020d2e5615da737bf1f649695cc0bc92e5211bbe5ac4b061ed98ea856f5b66b920f", "asm": "0020d2e5615da737bf1f649695cc0bc92e5211bbe5ac4b061ed98ea856f5b66b920f"}, "vout": 0, "txid": "2f9891de7cea92cf2a4e0fbb53bea2c0fc42bb3e65401c777de5679fdbdf62fb"}], "txid": "b6f27c7b355a846d0bca2cb6a81b553f35854c776018ab7d291bcb48f9bd840c", "blocktime": 1537871767, "version": 1, "confirmations": 11491, "time": 1537871767, "locktime": 0, "vsize": 480, "size": 672}