{"hash": "0d87b35e25df7149d24a5102a2c7594f97b78287668fb4899126c097d2d63700", "blockhash": "0000000000000000001f76057863aec43deb6fa401d9628bb513d65a8098bfab", "vout": [{"scriptPubKey": {"reqSigs": 1, "hex": "76a914631d4d29c55ef13b29eb055b3e142eaac697761b88ac", "addresses": ["1A34ztbB8UQ9cKkLin5Pr31sfd3E8kGqbH"], "asm": "OP_DUP OP_HASH160 631d4d29c55ef13b29eb055b3e142eaac697761b OP_EQUALVERIFY OP_CHECKSIG", "type": "pubkeyhash"}, "value": 0.16, "n": 0}, {"scriptPubKey": {"reqSigs": 1, "hex": "a914c5c6d30a03b911c9fdcc7839610c163f3b15450487", "addresses": ["3KimDtoE2AUjWDVr9cbygvv2x4bN9F9DLh"], "asm": "OP_HASH160 c5c6d30a03b911c9fdcc7839610c163f3b154504 OP_EQUAL", "type": "scripthash"}, "value": 4.65101348, "n": 1}], "hex": "02000000000101917bbb3dc0d1483656991e76f685afba5256b315593d765162c05b0ddafeb8760000000017160014d713842a7243cd4afe0412af581f4f4b230d63ecfeffffff020024f400000000001976a914631d4d29c55ef13b29eb055b3e142eaac697761b88ac24e2b81b0000000017a914c5c6d30a03b911c9fdcc7839610c163f3b154504870247304402201e04b793463084ffe5c4511c8745162a299e839423fefd5231a60af3295d4071022032abb90bddca5706f0d74efabf72b83234fdc70e7d8b9a1cfa733e7bc7f07a68012103468cc25e03c2a89cd633c02bc50f968310bf2f3e88170c10a68d7292910746bb14490800", "vin": [{"txinwitness": ["304402201e04b793463084ffe5c4511c8745162a299e839423fefd5231a60af3295d4071022032abb90bddca5706f0d74efabf72b83234fdc70e7d8b9a1cfa733e7bc7f07a6801", "03468cc25e03c2a89cd633c02bc50f968310bf2f3e88170c10a68d7292910746bb"], "sequence": 4294967294, "scriptSig": {"hex": "160014d713842a7243cd4afe0412af581f4f4b230d63ec", "asm": "0014d713842a7243cd4afe0412af581f4f4b230d63ec"}, "vout": 0, "txid": "76b8feda0d5bc06251763d5915b35652baaf85f6761e99563648d1c03dbb7b91"}], "txid": "b6f43dcc073cca14a8c8146d4f9db49d27de6943efaefcb2efd6882f87f8a43a", "blocktime": 1537873891, "version": 2, "confirmations": 11478, "time": 1537873891, "locktime": 542996, "vsize": 168, "size": 249}