{"hash": "4533e852b1ba4cbf8976d5c13e96129038f8202296900ecaa7ac33544773839e", "blockhash": "00000000000000000004ffacab907a6b429b9a5745fa0b75af4234bf69dd7176", "vout": [{"scriptPubKey": {"reqSigs": 1, "hex": "a9143554d289ad2d4130ff5827701ffe23e5aff7d0ef87", "addresses": ["36Z1MGva1fZGJXW1V6Ff8iFzj6RL9Quwq8"], "asm": "OP_HASH160 3554d289ad2d4130ff5827701ffe23e5aff7d0ef OP_EQUAL", "type": "scripthash"}, "value": 0.00321664, "n": 0}, {"scriptPubKey": {"reqSigs": 1, "hex": "a91439329bbd9cc82e8c03db2d99a630eb898949694387", "addresses": ["36uT4orog2Jie9ueGpf1CeMmqbAnmnVnEm"], "asm": "OP_HASH160 39329bbd9cc82e8c03db2d99a630eb8989496943 OP_EQUAL", "type": "scripthash"}, "value": 0.00774241, "n": 1}], "hex": "010000000001013d59d54b04786b6bc2aa2cdf7f609af44a9dfdce1206cd38b79977822d65692a01000000232200204dc1a06ffe8090e736c1e174194a955190b20b86689eaa7cd91b4715a7b1376bffffffff0280e804000000000017a9143554d289ad2d4130ff5827701ffe23e5aff7d0ef8761d00b000000000017a91439329bbd9cc82e8c03db2d99a630eb89894969438704004730440220507983689fc3ef5d156683bb391274a73b45361da72356b0b131ae0e5e1043490220289d822e8eba4ab3d819f8d249f3d738170fabb256964bd18b27ef9dfeec6ed901483045022100c541bc044803004dc01a7d1a72eb108b498769cbcf5dfc679bbfc8ced978340802206ce98a625f08e0b945b4ddd7ee02d5eaf900a5c9f6027ac2e6f4abb1469df12701475221021f765cad7ba81d9eab4e8528dc2870a0764ffa87961e10e66560c58404065d32210292d679353fa4a760eaad69284c09d063a1fd1a15ad8c70e83dbf86f7063f8c1852ae00000000", "vin": [{"txinwitness": ["", "30440220507983689fc3ef5d156683bb391274a73b45361da72356b0b131ae0e5e1043490220289d822e8eba4ab3d819f8d249f3d738170fabb256964bd18b27ef9dfeec6ed901", "3045022100c541bc044803004dc01a7d1a72eb108b498769cbcf5dfc679bbfc8ced978340802206ce98a625f08e0b945b4ddd7ee02d5eaf900a5c9f6027ac2e6f4abb1469df12701", "5221021f765cad7ba81d9eab4e8528dc2870a0764ffa87961e10e66560c58404065d32210292d679353fa4a760eaad69284c09d063a1fd1a15ad8c70e83dbf86f7063f8c1852ae"], "sequence": 4294967295, "scriptSig": {"hex": "2200204dc1a06ffe8090e736c1e174194a955190b20b86689eaa7cd91b4715a7b1376b", "asm": "00204dc1a06ffe8090e736c1e174194a955190b20b86689eaa7cd91b4715a7b1376b"}, "vout": 1, "txid": "2a69652d827799b738cd0612cefd9d4af49a607fdf2caac26b6b78044bd5593d"}], "txid": "b6f9f243d077fd609ee97c3e263dca92ed99ff85bfef9b2e4cf9791054d4ec42", "blocktime": 1537875543, "version": 1, "confirmations": 11464, "time": 1537875543, "locktime": 0, "vsize": 206, "size": 371}