{"hash": "b701cf57dbf8dcffb598edf4eb391f39f86c39c4ad8446be0fcb6bf08aab082e", "blockhash": "000000000000000000022b45ed06c6f4ccd3cf7fb5ba4856ebd2e58215665228", "vout": [{"scriptPubKey": {"reqSigs": 1, "hex": "76a9149ce1ef887ac037187e3a45d0d679b82b432f0d9188ac", "addresses": ["1FJX5DGdJPvck9Bm972GoMwqpkzXUPJePy"], "asm": "OP_DUP OP_HASH160 9ce1ef887ac037187e3a45d0d679b82b432f0d91 OP_EQUALVERIFY OP_CHECKSIG", "type": "pubkeyhash"}, "value": 0.0148404, "n": 0}, {"scriptPubKey": {"type": "nulldata", "hex": "6a4c500000775c00010f99ba3cf20259cb5014fffa3a016b46dc7dc7d0968d120d670c1906f999e00b6b3cf12aaa55f96e175ab0a415755baa06fe06128d3ff5472e16bc9a9526289ac0f6612cd74e33776ee4", "asm": "OP_RETURN 0000775c00010f99ba3cf20259cb5014fffa3a016b46dc7dc7d0968d120d670c1906f999e00b6b3cf12aaa55f96e175ab0a415755baa06fe06128d3ff5472e16bc9a9526289ac0f6612cd74e33776ee4"}, "value": 0.0, "n": 1}], "hex": "0100000001f2609baadf08d987e9f174082b87160ad717a8e7e3b482fa7be8527f955e9c7d010000006b483045022100ff74a903180c9f9d7d389ecfc689c810265552425efcb184648f7045af62da7d02205f0fbc6230d567a43caf2fec9ac738b5c86bc3ea88ceb70d9f90c6a642629e1e012103be8fa2cb3096d43b10068704f4049de00b32d63b7eafc8bbcc770695066142e9ffffffff0208a51600000000001976a9149ce1ef887ac037187e3a45d0d679b82b432f0d9188ac0000000000000000536a4c500000775c00010f99ba3cf20259cb5014fffa3a016b46dc7dc7d0968d120d670c1906f999e00b6b3cf12aaa55f96e175ab0a415755baa06fe06128d3ff5472e16bc9a9526289ac0f6612cd74e33776ee400000000", "vin": [{"sequence": 4294967295, "scriptSig": {"hex": "483045022100ff74a903180c9f9d7d389ecfc689c810265552425efcb184648f7045af62da7d02205f0fbc6230d567a43caf2fec9ac738b5c86bc3ea88ceb70d9f90c6a642629e1e012103be8fa2cb3096d43b10068704f4049de00b32d63b7eafc8bbcc770695066142e9", "asm": "3045022100ff74a903180c9f9d7d389ecfc689c810265552425efcb184648f7045af62da7d02205f0fbc6230d567a43caf2fec9ac738b5c86bc3ea88ceb70d9f90c6a642629e1e[ALL] 03be8fa2cb3096d43b10068704f4049de00b32d63b7eafc8bbcc770695066142e9"}, "vout": 1, "txid": "7d9c5e957f52e87bfa82b4e3e7a817d70a16872b0874f1e987d908dfaa9b60f2"}], "txid": "b701cf57dbf8dcffb598edf4eb391f39f86c39c4ad8446be0fcb6bf08aab082e", "blocktime": 1537869901, "version": 1, "confirmations": 11523, "time": 1537869901, "locktime": 0, "vsize": 284, "size": 284}