{"hash": "7a197a02b20a13d7c7484df6d487a90a52feb0cec06a8260ade2dbdeb81f6819", "blockhash": "0000000000000000001cda96e906b7601b7a6fb1a3b62bca570a9e5d8f4b3de1", "vout": [{"scriptPubKey": {"reqSigs": 1, "hex": "76a9142d000fa52d7215143cc471c937ef08a65e43dc2d88ac", "addresses": ["156wUsxo9phbV7LsabQDj29NotcGXutg23"], "asm": "OP_DUP OP_HASH160 2d000fa52d7215143cc471c937ef08a65e43dc2d OP_EQUALVERIFY OP_CHECKSIG", "type": "pubkeyhash"}, "value": 1.2, "n": 0}, {"scriptPubKey": {"reqSigs": 1, "hex": "a9145aa97e1feb93cb5a852912a4281b0da4af241d8987", "addresses": ["39xPnNBQCdsppJuDNAtjK31eJWpFqm32YQ"], "asm": "OP_HASH160 5aa97e1feb93cb5a852912a4281b0da4af241d89 OP_EQUAL", "type": "scripthash"}, "value": 2.8980904, "n": 1}], "hex": "0100000000010212c4f81bfe79073608c19b6137102af1071832f4524ae077eab8c791ce29ee540000000017160014ef6ec9f10fd936f5d5a9d5239a280bb1247152c8ffffff0028c3140a42b59eae35f1b252a34734d47a006f58709ef08d37924c0e8cfd26c10600000017160014fab3b65a6adfa808945bf56ae22aedaa45be4984ffffff0002000e2707000000001976a9142d000fa52d7215143cc471c937ef08a65e43dc2d88ac902246110000000017a9145aa97e1feb93cb5a852912a4281b0da4af241d898702483045022100d53b5653aa0f1fc332afc3bce218617407772b9e048d071dfd857289461a482902206fc2a8116c3c27ee2bcb7543aacd5569d94d15b29717e5461d84261cc3ebf8ad01210285811f381d1565353b7a8990d6491827c191f512083cdfd9078cded48772999802483045022100ced53b49df380ec51bdbcc2e334c79f04776555ebf16208c66720967bd04e69c02200fd8b0853433f26ea8d17ec69f1b867ef7a2e59d4c1460b3bcaa9e37073b47c301210359f5bfdf6b459d7ba36515eb6a1d9993c2e90c5715f913228f82fd80f161dea800000000", "vin": [{"txinwitness": ["3045022100d53b5653aa0f1fc332afc3bce218617407772b9e048d071dfd857289461a482902206fc2a8116c3c27ee2bcb7543aacd5569d94d15b29717e5461d84261cc3ebf8ad01", "0285811f381d1565353b7a8990d6491827c191f512083cdfd9078cded487729998"], "sequence": 16777215, "scriptSig": {"hex": "160014ef6ec9f10fd936f5d5a9d5239a280bb1247152c8", "asm": "0014ef6ec9f10fd936f5d5a9d5239a280bb1247152c8"}, "vout": 0, "txid": "54ee29ce91c7b8ea77e04a52f4321807f12a1037619bc108360779fe1bf8c412"}, {"txinwitness": ["3045022100ced53b49df380ec51bdbcc2e334c79f04776555ebf16208c66720967bd04e69c02200fd8b0853433f26ea8d17ec69f1b867ef7a2e59d4c1460b3bcaa9e37073b47c301", "0359f5bfdf6b459d7ba36515eb6a1d9993c2e90c5715f913228f82fd80f161dea8"], "sequence": 16777215, "scriptSig": {"hex": "160014fab3b65a6adfa808945bf56ae22aedaa45be4984", "asm": "0014fab3b65a6adfa808945bf56ae22aedaa45be4984"}, "vout": 6, "txid": "c126fd8c0e4c92378df09e70586f007ad43447a352b2f135ae9eb5420a14c328"}], "txid": "b70672a159261a9bdd4fcf85954f10e0eb9dcfa9e745c63e3e8e52539c0a1502", "blocktime": 1537873282, "version": 1, "confirmations": 11485, "time": 1537873282, "locktime": 0, "vsize": 259, "size": 422}