{"hash": "b709a8a5d79a6de7b5dac17237c108f09f47740f35708e7aa5a22c70803d93ab", "blockhash": "0000000000000000001cda96e906b7601b7a6fb1a3b62bca570a9e5d8f4b3de1", "vout": [{"scriptPubKey": {"reqSigs": 1, "hex": "a9141bada95e672546c606ff37db2cd1ac2acff4463487", "addresses": ["34DNCwcf59dEQh5WanCBtvNsKba5EuWrzk"], "asm": "OP_HASH160 1bada95e672546c606ff37db2cd1ac2acff44634 OP_EQUAL", "type": "scripthash"}, "value": 0.013279, "n": 0}, {"scriptPubKey": {"reqSigs": 1, "hex": "76a914a0b6e8e2638863870288d34d1f833125dfcd91f388ac", "addresses": ["1FenEUxDNH4h2ALvzvjyL3AkimdbGkWmxv"], "asm": "OP_DUP OP_HASH160 a0b6e8e2638863870288d34d1f833125dfcd91f3 OP_EQUALVERIFY OP_CHECKSIG", "type": "pubkeyhash"}, "value": 0.09736209, "n": 1}], "hex": "010000000143c0a584e9715c0e0d067384c067d79371122bf8fc8ee3965763b4ef28bdf171010000006a473044022040318864e687d4e19cdb7403cf1741e815056e3bea6b3ea7813ffb3894b249870220224f2257b73705ca1a790e952c2bc1869ecf16d8bd31190dc700735aad898ba8012103a5f9226ca29b2dc9938d87e1264bd97052c72ffbf7a45db687eb0cd0c28e080cffffffff021c4314000000000017a9141bada95e672546c606ff37db2cd1ac2acff446348711909400000000001976a914a0b6e8e2638863870288d34d1f833125dfcd91f388ac00000000", "vin": [{"sequence": 4294967295, "scriptSig": {"hex": "473044022040318864e687d4e19cdb7403cf1741e815056e3bea6b3ea7813ffb3894b249870220224f2257b73705ca1a790e952c2bc1869ecf16d8bd31190dc700735aad898ba8012103a5f9226ca29b2dc9938d87e1264bd97052c72ffbf7a45db687eb0cd0c28e080c", "asm": "3044022040318864e687d4e19cdb7403cf1741e815056e3bea6b3ea7813ffb3894b249870220224f2257b73705ca1a790e952c2bc1869ecf16d8bd31190dc700735aad898ba8[ALL] 03a5f9226ca29b2dc9938d87e1264bd97052c72ffbf7a45db687eb0cd0c28e080c"}, "vout": 1, "txid": "71f1bd28efb4635796e38efcf82b127193d767c08473060d0e5c71e984a5c043"}], "txid": "b709a8a5d79a6de7b5dac17237c108f09f47740f35708e7aa5a22c70803d93ab", "blocktime": 1537873282, "version": 1, "confirmations": 11481, "time": 1537873282, "locktime": 0, "vsize": 223, "size": 223}