{"hash": "b70963b2287cbe302191048f3644cd71b698664c906a501fdd9399e406bccf0e", "blockhash": "000000000000000000022b45ed06c6f4ccd3cf7fb5ba4856ebd2e58215665228", "vout": [{"scriptPubKey": {"type": "nulldata", "hex": "6a4c500000775d0001ed9450af33686c32afff12db3a016b46dc7dc7d0968d120d670c1906f9999b83e36bd8e2069279e2ab94d1401b075baa07590612c6622beb02001d100759d4ba30d2c37bb011d97e02cf", "asm": "OP_RETURN 0000775d0001ed9450af33686c32afff12db3a016b46dc7dc7d0968d120d670c1906f9999b83e36bd8e2069279e2ab94d1401b075baa07590612c6622beb02001d100759d4ba30d2c37bb011d97e02cf"}, "value": 0.0, "n": 0}, {"scriptPubKey": {"reqSigs": 1, "hex": "76a914286d723de276d285897411356fb642b2b81f080e88ac", "addresses": ["14gm98gaEBLuZs6H7imn7x3YdGyhrj51ux"], "asm": "OP_DUP OP_HASH160 286d723de276d285897411356fb642b2b81f080e OP_EQUALVERIFY OP_CHECKSIG", "type": "pubkeyhash"}, "value": 0.00649794, "n": 1}], "hex": "0100000001216a91ed60c56f1313e1d5e0fae74fbe17b3455ef616a95e3576c09f8712074d000000006a47304402206bef18609d43a091dce9b0f54c210a3c52849547dc6aa273e98c2307448cb61702204ce0e3e52c3e40a525388baf92e79e55999560292e5cdaa0162c22d415b137e40121039a5684229f844ac9904d2fdb0abf5b1228f572557908bb6cc2b96a4381148655ffffffff020000000000000000536a4c500000775d0001ed9450af33686c32afff12db3a016b46dc7dc7d0968d120d670c1906f9999b83e36bd8e2069279e2ab94d1401b075baa07590612c6622beb02001d100759d4ba30d2c37bb011d97e02cf42ea0900000000001976a914286d723de276d285897411356fb642b2b81f080e88ac00000000", "vin": [{"sequence": 4294967295, "scriptSig": {"hex": "47304402206bef18609d43a091dce9b0f54c210a3c52849547dc6aa273e98c2307448cb61702204ce0e3e52c3e40a525388baf92e79e55999560292e5cdaa0162c22d415b137e40121039a5684229f844ac9904d2fdb0abf5b1228f572557908bb6cc2b96a4381148655", "asm": "304402206bef18609d43a091dce9b0f54c210a3c52849547dc6aa273e98c2307448cb61702204ce0e3e52c3e40a525388baf92e79e55999560292e5cdaa0162c22d415b137e4[ALL] 039a5684229f844ac9904d2fdb0abf5b1228f572557908bb6cc2b96a4381148655"}, "vout": 0, "txid": "4d0712879fc076355ea916f65e45b317be4fe7fae0d5e113136fc560ed916a21"}], "txid": "b70963b2287cbe302191048f3644cd71b698664c906a501fdd9399e406bccf0e", "blocktime": 1537869901, "version": 1, "confirmations": 11523, "time": 1537869901, "locktime": 0, "vsize": 283, "size": 283}