{"hash": "96b829ed0130dd23f9036c7f4ee05fcde6b4d77d241e1a9b0e347ea60d3e4ccc", "blockhash": "000000000000000000022b45ed06c6f4ccd3cf7fb5ba4856ebd2e58215665228", "vout": [{"scriptPubKey": {"reqSigs": 1, "hex": "00143c4c404fa4e8305d2ab38bbfec7fd8d3c06ac7db", "addresses": ["bc1q83xyqnayaqc9624n3wl7cl7c60qx437mna6u3j"], "asm": "0 3c4c404fa4e8305d2ab38bbfec7fd8d3c06ac7db", "type": "witness_v0_keyhash"}, "value": 0.00384802, "n": 0}, {"scriptPubKey": {"reqSigs": 1, "hex": "a9142e73ab59f75a730ca12481824234d52ba5bade8f87", "addresses": ["35vdaDQVkmtApHPtKeRhrVk9zwqTKArw81"], "asm": "OP_HASH160 2e73ab59f75a730ca12481824234d52ba5bade8f OP_EQUAL", "type": "scripthash"}, "value": 0.00849, "n": 1}], "hex": "01000000000101ab12bf460a4ac66155988a73d02bfb4114ada6d3056d8ae9852fe0b8c3e524c20000000000ffffffff0222df0500000000001600143c4c404fa4e8305d2ab38bbfec7fd8d3c06ac7db68f40c000000000017a9142e73ab59f75a730ca12481824234d52ba5bade8f87024730440220225bea0dc8a977bb79e3b0aa704086b19568fee1cd5eb2e363dde78ee3cf48ca022048d613977e9b0d4a7277fc981ed5789f58cc7104aa8efabd29cdb4db270b7a3001210398e569a53388c27a465c43b2046b1396bb0bf60a27184a82109c3181712d8c3300000000", "vin": [{"txinwitness": ["30440220225bea0dc8a977bb79e3b0aa704086b19568fee1cd5eb2e363dde78ee3cf48ca022048d613977e9b0d4a7277fc981ed5789f58cc7104aa8efabd29cdb4db270b7a3001", "0398e569a53388c27a465c43b2046b1396bb0bf60a27184a82109c3181712d8c33"], "sequence": 4294967295, "scriptSig": {"hex": "", "asm": ""}, "vout": 0, "txid": "c224e5c3b8e02f85e98a6d05d3a6ad1441fb2bd0738a985561c64a0a46bf12ab"}], "txid": "b7138a22dea8b3be789bc7361504d467a76ea36123330edeeaf51d7eaf3a81af", "blocktime": 1537869901, "version": 1, "confirmations": 11523, "time": 1537869901, "locktime": 0, "vsize": 142, "size": 223}