{"hash": "b71522d06597855e7b7dfde5f4e79e1ec3f5e2a5fbe04d7a7f5fb29826e36e9f", "blockhash": "0000000000000000000dcc0f55137456b1a82d3642486a52398922ac4d620174", "vout": [{"scriptPubKey": {"reqSigs": 1, "hex": "a91416d6af63e84fc97759eef94a78d2a72182867c7587", "addresses": ["33mmyM7PH7FAzNntuRfSmbtX6bVpTpM7in"], "asm": "OP_HASH160 16d6af63e84fc97759eef94a78d2a72182867c75 OP_EQUAL", "type": "scripthash"}, "value": 0.16670659, "n": 0}], "hex": "010000000a63106975b228843b900f8a6445bbba93400db70758eb6ad19f7ecd2b7b1af00a010000006b483045022100b3224875b6f22ee750af6dc89c3485e8f7f8e8859dbc6d6d7eabe1c7066813cf02202764a37aab4e7401d1b362300ce2e2004a16accd651b85bfec0058aa427083df012103c8a3e9b82410f494f7b376dda9290e9d5ffe07f881268fd389b3c9e522d0f72effffffffa2b829fe22a559e1b8efb6dd835f79f42ac8f825b21801ee22c37d4b120c081a010000006b48304502210098d1e78089e533d1aed3d1c18ceaa365fc9dfbe041e082dbabec44c6f2ca943802202137916d63b2dd383077d20a794ffa5a5d5f56b7eeb48e62b2025984860a6375012102414382057689bd067ee132a927926be32922a9f2897b11429e26f042e7481831ffffffffadcbaafc5ccb3e998b945b1e0f526097124e3f3d03c1610556cc687063e4cc20010000006b4830450221008ec0926bfef6d4131a0c9319e36eed327c30818c6f86b649d757b1793d67b5b502207004536ff94e03b0150ff174030077cc7b4a38fee09e0a969ef7028e7c8aa6a3012102df8738e5424f305c540968050f0b9302b9631f5205b2ed86b4bcc6cf7788ad5effffffff3fd361d0a236d9851696ff81442f81e7431c9f6937354abbd3b7d2b88842db23000000006a4730440220479fd7783409911f4f2b5ec099fabcaeef7a5821c899b56911250282d6eb001a022011839851532b08398fee3a5b4424b415659065fcc16d9c615caea4954084b76d0121031a3f72ce8ebd66e08f45b20e537208828f08632d69de95f051b5936305b028e9ffffffffc8ba24db2c1b888424150673c239a67fc3a8c324b275f3ed7193f290b008743c000000006a473044022035a372503c49b165b0ec60e9a226bc892b0e5bb0adb50508dceb51aeedec834f0220052e875f88ef775034a9afef53e5d970455a9e4dac6a5fa7e95496a64c9e2eaa0121026660d915bce7d3c6f4cb9d28ebd8a5e0362862bd27a74e81acba766dacae7267ffffffffa6f553cb5ff6a97535363ed7ef2b451dd38cb04bb505aa25c4c132fbdb37d244000000006b483045022100e887832ecd34162f18a3104f14c5c5a144502b121cdb698e2fd6cbb3db92d21402202596cb831b9997d3b65b190eb17b06bf1ca75c596af725dc75be501a3643daed01210234f7ce928d139665f40d932e57c5668f3423ebd1084414e09a3d85188ce7285fffffffffca64d84cce815a9fcb038ba6b8554925d07674dac3f769ae007c81dd1caa9c59000000006b483045022100ca846eb9193a84d1220e93fbc27e964f941522b31d1b9d653a609178a6c2cf2a0220647fc2b0e04b30373d237576e7fe07784474ad3483b6a1b488c409dc1750114701210302fe99ac890f6f3e358498bdbfd00ac07498c7cd9f28784a66e37cbde664a81cfffffffffbd89476ee73d78ff41989418eea5aefba62a503b9b8f2d70592d763a160507b000000006b483045022100a5fe7514dbc401a468fb917c150802b1a831b3d62924c3306828c70620c6a3aa02205e85ca8e4d78897bb76cf19d3ebfe25e4e912b6d30c0e24ddeb2fee49d71337a012102cccd3001576340894a2d5334172a1979f8cf04a0a5aac0adb24a9b254259c6c8ffffffffaca0655365f5ec26aa89ec665d3d631d1f40f6bc505b99ed46458e60f6229290010000006b483045022100da59db1e1bca8794d187745d950038626ad758ac4c00f02d3cd15adef910f64e02203ceca2560aa78af99eef01eb64ea3350dce92652c152953b0bbb3d7d21afbf1a012103e2eda12b5b14ecf5942fb509f3a38fc0578eb0549fc5f584cf2ab2787a62000effffffffb884d28f24eaa3732f12164ba63770fa3a02e973f0f251841bbbaa5dae4145c8000000006b483045022100da0969807d092dc182c089e41fc6cbdfca82b9d0410a95afd3c38d835325502602200704bb1efb4ff518d2037d106c796b338c8c62d77f1c351ee0d567512b05e3e6012102e5dfb7259761995e1607128a97b8a4504cd0d594544ae5937be3e30a7837f139ffffffff01c35ffe000000000017a91416d6af63e84fc97759eef94a78d2a72182867c758700000000", "vin": [{"sequence": 4294967295, "scriptSig": {"hex": "483045022100b3224875b6f22ee750af6dc89c3485e8f7f8e8859dbc6d6d7eabe1c7066813cf02202764a37aab4e7401d1b362300ce2e2004a16accd651b85bfec0058aa427083df012103c8a3e9b82410f494f7b376dda9290e9d5ffe07f881268fd389b3c9e522d0f72e", "asm": "3045022100b3224875b6f22ee750af6dc89c3485e8f7f8e8859dbc6d6d7eabe1c7066813cf02202764a37aab4e7401d1b362300ce2e2004a16accd651b85bfec0058aa427083df[ALL] 03c8a3e9b82410f494f7b376dda9290e9d5ffe07f881268fd389b3c9e522d0f72e"}, "vout": 1, "txid": "0af01a7b2bcd7e9fd16aeb5807b70d4093babb45648a0f903b8428b275691063"}, {"sequence": 4294967295, "scriptSig": {"hex": "48304502210098d1e78089e533d1aed3d1c18ceaa365fc9dfbe041e082dbabec44c6f2ca943802202137916d63b2dd383077d20a794ffa5a5d5f56b7eeb48e62b2025984860a6375012102414382057689bd067ee132a927926be32922a9f2897b11429e26f042e7481831", "asm": "304502210098d1e78089e533d1aed3d1c18ceaa365fc9dfbe041e082dbabec44c6f2ca943802202137916d63b2dd383077d20a794ffa5a5d5f56b7eeb48e62b2025984860a6375[ALL] 02414382057689bd067ee132a927926be32922a9f2897b11429e26f042e7481831"}, "vout": 1, "txid": "1a080c124b7dc322ee0118b225f8c82af4795f83ddb6efb8e159a522fe29b8a2"}, {"sequence": 4294967295, "scriptSig": {"hex": "4830450221008ec0926bfef6d4131a0c9319e36eed327c30818c6f86b649d757b1793d67b5b502207004536ff94e03b0150ff174030077cc7b4a38fee09e0a969ef7028e7c8aa6a3012102df8738e5424f305c540968050f0b9302b9631f5205b2ed86b4bcc6cf7788ad5e", "asm": "30450221008ec0926bfef6d4131a0c9319e36eed327c30818c6f86b649d757b1793d67b5b502207004536ff94e03b0150ff174030077cc7b4a38fee09e0a969ef7028e7c8aa6a3[ALL] 02df8738e5424f305c540968050f0b9302b9631f5205b2ed86b4bcc6cf7788ad5e"}, "vout": 1, "txid": "20cce4637068cc560561c1033d3f4e129760520f1e5b948b993ecb5cfcaacbad"}, {"sequence": 4294967295, "scriptSig": {"hex": "4730440220479fd7783409911f4f2b5ec099fabcaeef7a5821c899b56911250282d6eb001a022011839851532b08398fee3a5b4424b415659065fcc16d9c615caea4954084b76d0121031a3f72ce8ebd66e08f45b20e537208828f08632d69de95f051b5936305b028e9", "asm": "30440220479fd7783409911f4f2b5ec099fabcaeef7a5821c899b56911250282d6eb001a022011839851532b08398fee3a5b4424b415659065fcc16d9c615caea4954084b76d[ALL] 031a3f72ce8ebd66e08f45b20e537208828f08632d69de95f051b5936305b028e9"}, "vout": 0, "txid": "23db4288b8d2b7d3bb4a3537699f1c43e7812f4481ff961685d936a2d061d33f"}, {"sequence": 4294967295, "scriptSig": {"hex": "473044022035a372503c49b165b0ec60e9a226bc892b0e5bb0adb50508dceb51aeedec834f0220052e875f88ef775034a9afef53e5d970455a9e4dac6a5fa7e95496a64c9e2eaa0121026660d915bce7d3c6f4cb9d28ebd8a5e0362862bd27a74e81acba766dacae7267", "asm": "3044022035a372503c49b165b0ec60e9a226bc892b0e5bb0adb50508dceb51aeedec834f0220052e875f88ef775034a9afef53e5d970455a9e4dac6a5fa7e95496a64c9e2eaa[ALL] 026660d915bce7d3c6f4cb9d28ebd8a5e0362862bd27a74e81acba766dacae7267"}, "vout": 0, "txid": "3c7408b090f29371edf375b224c3a8c37fa639c27306152484881b2cdb24bac8"}, {"sequence": 4294967295, "scriptSig": {"hex": "483045022100e887832ecd34162f18a3104f14c5c5a144502b121cdb698e2fd6cbb3db92d21402202596cb831b9997d3b65b190eb17b06bf1ca75c596af725dc75be501a3643daed01210234f7ce928d139665f40d932e57c5668f3423ebd1084414e09a3d85188ce7285f", "asm": "3045022100e887832ecd34162f18a3104f14c5c5a144502b121cdb698e2fd6cbb3db92d21402202596cb831b9997d3b65b190eb17b06bf1ca75c596af725dc75be501a3643daed[ALL] 0234f7ce928d139665f40d932e57c5668f3423ebd1084414e09a3d85188ce7285f"}, "vout": 0, "txid": "44d237dbfb32c1c425aa05b54bb08cd31d452befd73e363575a9f65fcb53f5a6"}, {"sequence": 4294967295, "scriptSig": {"hex": "483045022100ca846eb9193a84d1220e93fbc27e964f941522b31d1b9d653a609178a6c2cf2a0220647fc2b0e04b30373d237576e7fe07784474ad3483b6a1b488c409dc1750114701210302fe99ac890f6f3e358498bdbfd00ac07498c7cd9f28784a66e37cbde664a81c", "asm": "3045022100ca846eb9193a84d1220e93fbc27e964f941522b31d1b9d653a609178a6c2cf2a0220647fc2b0e04b30373d237576e7fe07784474ad3483b6a1b488c409dc17501147[ALL] 0302fe99ac890f6f3e358498bdbfd00ac07498c7cd9f28784a66e37cbde664a81c"}, "vout": 0, "txid": "599caa1cdd817c00ae69f7c3da7476d0254955b8a68b03cb9f5a81ce4cd864ca"}, {"sequence": 4294967295, "scriptSig": {"hex": "483045022100a5fe7514dbc401a468fb917c150802b1a831b3d62924c3306828c70620c6a3aa02205e85ca8e4d78897bb76cf19d3ebfe25e4e912b6d30c0e24ddeb2fee49d71337a012102cccd3001576340894a2d5334172a1979f8cf04a0a5aac0adb24a9b254259c6c8", "asm": "3045022100a5fe7514dbc401a468fb917c150802b1a831b3d62924c3306828c70620c6a3aa02205e85ca8e4d78897bb76cf19d3ebfe25e4e912b6d30c0e24ddeb2fee49d71337a[ALL] 02cccd3001576340894a2d5334172a1979f8cf04a0a5aac0adb24a9b254259c6c8"}, "vout": 0, "txid": "7b5060a163d79205d7f2b8b903a562baef5aea8e418919f48fd773ee7694d8fb"}, {"sequence": 4294967295, "scriptSig": {"hex": "483045022100da59db1e1bca8794d187745d950038626ad758ac4c00f02d3cd15adef910f64e02203ceca2560aa78af99eef01eb64ea3350dce92652c152953b0bbb3d7d21afbf1a012103e2eda12b5b14ecf5942fb509f3a38fc0578eb0549fc5f584cf2ab2787a62000e", "asm": "3045022100da59db1e1bca8794d187745d950038626ad758ac4c00f02d3cd15adef910f64e02203ceca2560aa78af99eef01eb64ea3350dce92652c152953b0bbb3d7d21afbf1a[ALL] 03e2eda12b5b14ecf5942fb509f3a38fc0578eb0549fc5f584cf2ab2787a62000e"}, "vout": 1, "txid": "909222f6608e4546ed995b50bcf6401f1d633d5d66ec89aa26ecf5655365a0ac"}, {"sequence": 4294967295, "scriptSig": {"hex": "483045022100da0969807d092dc182c089e41fc6cbdfca82b9d0410a95afd3c38d835325502602200704bb1efb4ff518d2037d106c796b338c8c62d77f1c351ee0d567512b05e3e6012102e5dfb7259761995e1607128a97b8a4504cd0d594544ae5937be3e30a7837f139", "asm": "3045022100da0969807d092dc182c089e41fc6cbdfca82b9d0410a95afd3c38d835325502602200704bb1efb4ff518d2037d106c796b338c8c62d77f1c351ee0d567512b05e3e6[ALL] 02e5dfb7259761995e1607128a97b8a4504cd0d594544ae5937be3e30a7837f139"}, "vout": 0, "txid": "c84541ae5daabb1b8451f2f073e9023afa7037a64b16122f73a3ea248fd284b8"}], "txid": "b71522d06597855e7b7dfde5f4e79e1ec3f5e2a5fbe04d7a7f5fb29826e36e9f", "blocktime": 1537870268, "version": 1, "confirmations": 11518, "time": 1537870268, "locktime": 0, "vsize": 1520, "size": 1520}