{"hash": "7976dbda70dfbf7f4ed2723d464adf21ab885d97e04c2b30f805db96d4f809b0", "blockhash": "000000000000000000022b45ed06c6f4ccd3cf7fb5ba4856ebd2e58215665228", "vout": [{"scriptPubKey": {"reqSigs": 1, "hex": "a91485db01d5c6c175e00c325d2abcd711a5d9fca00987", "addresses": ["3Dtn9wbCYxusdPgRk5f266FvXoKcKQCUNN"], "asm": "OP_HASH160 85db01d5c6c175e00c325d2abcd711a5d9fca009 OP_EQUAL", "type": "scripthash"}, "value": 0.04166251, "n": 0}], "hex": "010000000001022ec153ed2d169d9c3e81a2f97d20b0e0fd1e6045076299bd105ad6e934fcbcbc0100000000ffffffffd06a9d731d6a3e51da163a64272720359903cc5f20f0fafa1d2b619a5c52eb57010000006b4830450221009bb8a1349e7fe999cb20f50fce1326af330fb92b9d2d294850492c1059810937022015fdbf9ee80e3ac28be2b80426c17174de71886056cdfb5e05299a17cb46c910012103dc866f0ef1083dbb4b2058bdee80b514486788a1c01482fd5ccdcd2a6cae1ca6ffffffff016b923f000000000017a91485db01d5c6c175e00c325d2abcd711a5d9fca0098702473044022063e11e0decd73626b9ba9bb185139766e79610614a510ae99c7e6544e9cc8889022017277832cea9cae36e90a258120100838d0c790a03bdeab8d5444a258abf9ffb0121026029dc474e2900a9f6ba38f9bb428d4a9c65256b9fb66bad1f36d2472fc17bb30000000000", "vin": [{"txinwitness": ["3044022063e11e0decd73626b9ba9bb185139766e79610614a510ae99c7e6544e9cc8889022017277832cea9cae36e90a258120100838d0c790a03bdeab8d5444a258abf9ffb01", "026029dc474e2900a9f6ba38f9bb428d4a9c65256b9fb66bad1f36d2472fc17bb3"], "sequence": 4294967295, "scriptSig": {"hex": "", "asm": ""}, "vout": 1, "txid": "bcbcfc34e9d65a10bd99620745601efde0b0207df9a2813e9c9d162ded53c12e"}, {"sequence": 4294967295, "scriptSig": {"hex": "4830450221009bb8a1349e7fe999cb20f50fce1326af330fb92b9d2d294850492c1059810937022015fdbf9ee80e3ac28be2b80426c17174de71886056cdfb5e05299a17cb46c910012103dc866f0ef1083dbb4b2058bdee80b514486788a1c01482fd5ccdcd2a6cae1ca6", "asm": "30450221009bb8a1349e7fe999cb20f50fce1326af330fb92b9d2d294850492c1059810937022015fdbf9ee80e3ac28be2b80426c17174de71886056cdfb5e05299a17cb46c910[ALL] 03dc866f0ef1083dbb4b2058bdee80b514486788a1c01482fd5ccdcd2a6cae1ca6"}, "vout": 1, "txid": "57eb525c9a612b1dfafaf0205fcc039935202727643a16da513e6a1d739d6ad0"}], "txid": "b71a3dcef6ac695327f88e60621c8b59fe103eaef51a921bd537beb34644be34", "blocktime": 1537869901, "version": 1, "confirmations": 11523, "time": 1537869901, "locktime": 0, "vsize": 259, "size": 341}