{"hash": "b720f013caf4654dcec00c22c047a4f12b4b9c772833971b3a99a5b4d18619bd", "blockhash": "0000000000000000001e0dab787dd257d1dbfcb92a98c2207d5e1078be1f4165", "vout": [{"scriptPubKey": {"reqSigs": 1, "hex": "76a9143e852d8936f5fb24b1fa1249c5a9c1ecd7045ca088ac", "addresses": ["16haSFm1aaUctKWe4rt1MTf2EXjFD6ELGx"], "asm": "OP_DUP OP_HASH160 3e852d8936f5fb24b1fa1249c5a9c1ecd7045ca0 OP_EQUALVERIFY OP_CHECKSIG", "type": "pubkeyhash"}, "value": 0.0031745, "n": 0}, {"scriptPubKey": {"reqSigs": 1, "hex": "76a914afe9890e4ac11291598635e32f1e4974cb1ee09388ac", "addresses": ["1H391tmheVeiTYaY4ejqDa16BPU3ySEfFj"], "asm": "OP_DUP OP_HASH160 afe9890e4ac11291598635e32f1e4974cb1ee093 OP_EQUALVERIFY OP_CHECKSIG", "type": "pubkeyhash"}, "value": 0.00188968, "n": 1}, {"scriptPubKey": {"reqSigs": 1, "hex": "76a9142b6954b9f9a9009b8d795a73f4b62b663e6864c488ac", "addresses": ["14xYEmo2XkZwzaZEDG54e9MegDpsksqFms"], "asm": "OP_DUP OP_HASH160 2b6954b9f9a9009b8d795a73f4b62b663e6864c4 OP_EQUALVERIFY OP_CHECKSIG", "type": "pubkeyhash"}, "value": 0.00640181, "n": 2}, {"scriptPubKey": {"reqSigs": 1, "hex": "76a914e866bd30c770b20b58d73d5ba7fa80a895d2734d88ac", "addresses": ["1NBpqwN5A6Z5NafsCv4mHVgmZhfRyAow8S"], "asm": "OP_DUP OP_HASH160 e866bd30c770b20b58d73d5ba7fa80a895d2734d OP_EQUALVERIFY OP_CHECKSIG", "type": "pubkeyhash"}, "value": 0.00736523, "n": 3}, {"scriptPubKey": {"reqSigs": 1, "hex": "76a9144ae525dced92c13c12e9ef3820e7c7369182187288ac", "addresses": ["17q1WfufcsNncCa1v2nnNEJkC9NeCMiyS1"], "asm": "OP_DUP OP_HASH160 4ae525dced92c13c12e9ef3820e7c73691821872 OP_EQUALVERIFY OP_CHECKSIG", "type": "pubkeyhash"}, "value": 0.30931871, "n": 4}], "hex": "02000000017597c8abec5d8a50207a38f09f7e13bd5b0a8d0a0c3d485fcd213d1f4373fce9000000006a47304402207544ee82b8f3c4cd10ef9bb2f7693301ede4b724095a9a526118ceb8b5dad698022062731785c154ad95bd0baaeb6d9fc8780b865502cd254bf10c2644a777b562a6012103e265c45c3e93f6cbe38faa713db07b42d96d1f1933924a119f23276bbd21180bfeffffff050ad80400000000001976a9143e852d8936f5fb24b1fa1249c5a9c1ecd7045ca088ac28e20200000000001976a914afe9890e4ac11291598635e32f1e4974cb1ee09388acb5c40900000000001976a9142b6954b9f9a9009b8d795a73f4b62b663e6864c488ac0b3d0b00000000001976a914e866bd30c770b20b58d73d5ba7fa80a895d2734d88ac9ffbd701000000001976a9144ae525dced92c13c12e9ef3820e7c7369182187288acbd480800", "vin": [{"sequence": 4294967294, "scriptSig": {"hex": "47304402207544ee82b8f3c4cd10ef9bb2f7693301ede4b724095a9a526118ceb8b5dad698022062731785c154ad95bd0baaeb6d9fc8780b865502cd254bf10c2644a777b562a6012103e265c45c3e93f6cbe38faa713db07b42d96d1f1933924a119f23276bbd21180b", "asm": "304402207544ee82b8f3c4cd10ef9bb2f7693301ede4b724095a9a526118ceb8b5dad698022062731785c154ad95bd0baaeb6d9fc8780b865502cd254bf10c2644a777b562a6[ALL] 03e265c45c3e93f6cbe38faa713db07b42d96d1f1933924a119f23276bbd21180b"}, "vout": 0, "txid": "e9fc73431f3d21cd5f483d0c0a8d0a5bbd137e9ff0387a20508a5decabc89775"}], "txid": "b720f013caf4654dcec00c22c047a4f12b4b9c772833971b3a99a5b4d18619bd", "blocktime": 1537872475, "version": 2, "confirmations": 11486, "time": 1537872475, "locktime": 542909, "vsize": 327, "size": 327}