{"hash": "b72575b8e42e56cb3a641eba019e01d02ec2f900f4a56e1725570987592fc568", "blockhash": "0000000000000000001f76057863aec43deb6fa401d9628bb513d65a8098bfab", "vout": [{"scriptPubKey": {"reqSigs": 1, "hex": "76a9145e42006110763bc4750c652863c303d956825f3088ac", "addresses": ["19bPatvzd6p7xUiDGo2BfUsoatvbwUHLMj"], "asm": "OP_DUP OP_HASH160 5e42006110763bc4750c652863c303d956825f30 OP_EQUALVERIFY OP_CHECKSIG", "type": "pubkeyhash"}, "value": 0.00622829, "n": 0}], "hex": "0100000002f6682372907d723fe866310b506c444051bfbac69b401a6f1a2fa5e2f73833b1000000006a473044022043070281515e75960c40c7623a00da3886f186c4651b67371e323a42ef4972ef02203dc4972d251ab51a3c6456860f9b50e97b47ff0e1d128d18b7f46442151481e00121027143ab455a9e3044d6d64191ee99f55544880a7fb8edeab9964a398ea8d0b475fdfffffff35b32ae411d21ba6835eead327409e8798ba54d5b3cf4baa0eb75605f7da1d0000000006b483045022100c3cbf47299b82dc012d0a6e7309d31afb65e1f8e8b85844e285754d7718afb73022040231a26573494f978a6a264aad847fa31fabc4a79fa6560ea95f7c56880a7e80121039f2a8f06b99a0e6026e7d5f9eb3e92c49c21199edbd3bcefa51eedf1670601b0fdffffff01ed800900000000001976a9145e42006110763bc4750c652863c303d956825f3088ac14490800", "vin": [{"sequence": 4294967293, "scriptSig": {"hex": "473044022043070281515e75960c40c7623a00da3886f186c4651b67371e323a42ef4972ef02203dc4972d251ab51a3c6456860f9b50e97b47ff0e1d128d18b7f46442151481e00121027143ab455a9e3044d6d64191ee99f55544880a7fb8edeab9964a398ea8d0b475", "asm": "3044022043070281515e75960c40c7623a00da3886f186c4651b67371e323a42ef4972ef02203dc4972d251ab51a3c6456860f9b50e97b47ff0e1d128d18b7f46442151481e0[ALL] 027143ab455a9e3044d6d64191ee99f55544880a7fb8edeab9964a398ea8d0b475"}, "vout": 0, "txid": "b13338f7e2a52f1a6f1a409bc6babf5140446c500b3166e83f727d90722368f6"}, {"sequence": 4294967293, "scriptSig": {"hex": "483045022100c3cbf47299b82dc012d0a6e7309d31afb65e1f8e8b85844e285754d7718afb73022040231a26573494f978a6a264aad847fa31fabc4a79fa6560ea95f7c56880a7e80121039f2a8f06b99a0e6026e7d5f9eb3e92c49c21199edbd3bcefa51eedf1670601b0", "asm": "3045022100c3cbf47299b82dc012d0a6e7309d31afb65e1f8e8b85844e285754d7718afb73022040231a26573494f978a6a264aad847fa31fabc4a79fa6560ea95f7c56880a7e8[ALL] 039f2a8f06b99a0e6026e7d5f9eb3e92c49c21199edbd3bcefa51eedf1670601b0"}, "vout": 0, "txid": "d0a17d5f6075eba0baf43c5b4da58b79e8097432adee3568ba211d41ae325bf3"}], "txid": "b72575b8e42e56cb3a641eba019e01d02ec2f900f4a56e1725570987592fc568", "blocktime": 1537873891, "version": 1, "confirmations": 11477, "time": 1537873891, "locktime": 542996, "vsize": 339, "size": 339}