{"hash": "b72711c6e52ad3b63a782c121fa9f6dcc72c45a718c1552b2226ec467997af05", "blockhash": "00000000000000000024a2167bbff67b0be802c0b01cdd79e6331c2be6459f87", "vout": [{"scriptPubKey": {"reqSigs": 1, "hex": "76a9148b5bb18b679c83b63f5fad28e2ffeb2997f5675988ac", "addresses": ["1DhrmeHSoh83BVZHHfDqWNdVZ4HdxTEQfT"], "asm": "OP_DUP OP_HASH160 8b5bb18b679c83b63f5fad28e2ffeb2997f56759 OP_EQUALVERIFY OP_CHECKSIG", "type": "pubkeyhash"}, "value": 0.193, "n": 0}, {"scriptPubKey": {"reqSigs": 1, "hex": "76a914bea113cae21eeb2c598c97c8c4d3b7cbc8f3826988ac", "addresses": ["1JNxMJA4gPo1ResAu4vDF1a9g36PX4vthb"], "asm": "OP_DUP OP_HASH160 bea113cae21eeb2c598c97c8c4d3b7cbc8f38269 OP_EQUALVERIFY OP_CHECKSIG", "type": "pubkeyhash"}, "value": 0.49169322, "n": 1}], "hex": "0100000001ca7135648ffdda8cfcf91bd6cfdc1e30e5a1e2421d3684f48d80e2e3742acc19020000006a473044022079efb6ba474b9c15b813c03181061aacf423668caefa418f49abed4537c694560220062f78497835737fe2387fc694e64f8ab2a1d3b0c714f990d7bb35236dea70e40121027c51467a8fbec62f012dd4b0f7328df65f7bc123387f48b4f3c52fef42e2b13dffffffff02a07e2601000000001976a9148b5bb18b679c83b63f5fad28e2ffeb2997f5675988acaa43ee02000000001976a914bea113cae21eeb2c598c97c8c4d3b7cbc8f3826988ac00000000", "vin": [{"sequence": 4294967295, "scriptSig": {"hex": "473044022079efb6ba474b9c15b813c03181061aacf423668caefa418f49abed4537c694560220062f78497835737fe2387fc694e64f8ab2a1d3b0c714f990d7bb35236dea70e40121027c51467a8fbec62f012dd4b0f7328df65f7bc123387f48b4f3c52fef42e2b13d", "asm": "3044022079efb6ba474b9c15b813c03181061aacf423668caefa418f49abed4537c694560220062f78497835737fe2387fc694e64f8ab2a1d3b0c714f990d7bb35236dea70e4[ALL] 027c51467a8fbec62f012dd4b0f7328df65f7bc123387f48b4f3c52fef42e2b13d"}, "vout": 2, "txid": "19cc2a74e3e2808df484361d42e2a1e5301edccfd61bf9fc8cdafd8f643571ca"}], "txid": "b72711c6e52ad3b63a782c121fa9f6dcc72c45a718c1552b2226ec467997af05", "blocktime": 1537870564, "version": 1, "confirmations": 11515, "time": 1537870564, "locktime": 0, "vsize": 225, "size": 225}