{"hash": "b7273045df50675c303809ece26730bbbe44d9945407ba9c6979bb685d79735d", "blockhash": "0000000000000000000e13cef7c366c0283d82e591d1acd082e914b08063cdf1", "vout": [{"scriptPubKey": {"reqSigs": 1, "hex": "76a9147810e0eb7327bc2ad9408bd558c32841302064b888ac", "addresses": ["1BwrJmMtNrSjZj2RecxMLRyQDUhHGBDYwu"], "asm": "OP_DUP OP_HASH160 7810e0eb7327bc2ad9408bd558c32841302064b8 OP_EQUALVERIFY OP_CHECKSIG", "type": "pubkeyhash"}, "value": 0.00664473, "n": 0}, {"scriptPubKey": {"reqSigs": 1, "hex": "76a914a37815ff582528d13ae0d67bbe5678bee4f1abb688ac", "addresses": ["1FuLzz887aKhL77BS21dpX68319vkv2EKu"], "asm": "OP_DUP OP_HASH160 a37815ff582528d13ae0d67bbe5678bee4f1abb6 OP_EQUALVERIFY OP_CHECKSIG", "type": "pubkeyhash"}, "value": 0.15195153, "n": 1}], "hex": "0100000002959aa0f6489096769329e2f74ca7154edd1963ed0f5240c73447135445007e1d000000006a47304402205bf91188a9c20b7a31a2e08607d8669af5db48f8559c6b35e62c9f853c7855dc022051b30242b4ec735ba0f308e976ea88db4a0af8e3029bf4a07d7a63fdb279bdd80121034f14434a099c1bd1a73468f4ac208ae0a803946fa08413be81898962a52e5eb2ffffffff8a52277474c3652941ea09d1dbb3c8dbe9fcc73d30c63a081fec26276aeb14ad000000006a47304402206fe030f9451822c6fa44574f8f2e88a02276e9d2e08a11a205c4314c07d2f0470220665536301d1b6697297ffcd0f710549d3cc82eaa26dde2826ae6c292eb0ce4dd012103116fbea49a34954f954e5e2fa45ea267cb9d726f80d76d10c346d9ba22823a41ffffffff0299230a00000000001976a9147810e0eb7327bc2ad9408bd558c32841302064b888ac11dce700000000001976a914a37815ff582528d13ae0d67bbe5678bee4f1abb688ac00000000", "vin": [{"sequence": 4294967295, "scriptSig": {"hex": "47304402205bf91188a9c20b7a31a2e08607d8669af5db48f8559c6b35e62c9f853c7855dc022051b30242b4ec735ba0f308e976ea88db4a0af8e3029bf4a07d7a63fdb279bdd80121034f14434a099c1bd1a73468f4ac208ae0a803946fa08413be81898962a52e5eb2", "asm": "304402205bf91188a9c20b7a31a2e08607d8669af5db48f8559c6b35e62c9f853c7855dc022051b30242b4ec735ba0f308e976ea88db4a0af8e3029bf4a07d7a63fdb279bdd8[ALL] 034f14434a099c1bd1a73468f4ac208ae0a803946fa08413be81898962a52e5eb2"}, "vout": 0, "txid": "1d7e004554134734c740520fed6319dd4e15a74cf7e2299376969048f6a09a95"}, {"sequence": 4294967295, "scriptSig": {"hex": "47304402206fe030f9451822c6fa44574f8f2e88a02276e9d2e08a11a205c4314c07d2f0470220665536301d1b6697297ffcd0f710549d3cc82eaa26dde2826ae6c292eb0ce4dd012103116fbea49a34954f954e5e2fa45ea267cb9d726f80d76d10c346d9ba22823a41", "asm": "304402206fe030f9451822c6fa44574f8f2e88a02276e9d2e08a11a205c4314c07d2f0470220665536301d1b6697297ffcd0f710549d3cc82eaa26dde2826ae6c292eb0ce4dd[ALL] 03116fbea49a34954f954e5e2fa45ea267cb9d726f80d76d10c346d9ba22823a41"}, "vout": 0, "txid": "ad14eb6a2726ec1f083ac6303dc7fce9dbc8b3dbd109ea412965c3747427528a"}], "txid": "b7273045df50675c303809ece26730bbbe44d9945407ba9c6979bb685d79735d", "blocktime": 1537871767, "version": 1, "confirmations": 11493, "time": 1537871767, "locktime": 0, "vsize": 372, "size": 372}