{"hash": "b72bd39c96f9039f9d152be8c37ba3ad8803cee59d2ea03fd56d39f6ccf80e25", "blockhash": "0000000000000000001cda96e906b7601b7a6fb1a3b62bca570a9e5d8f4b3de1", "vout": [{"scriptPubKey": {"reqSigs": 1, "hex": "76a914a0d0d33eec92e708d5f3c1f68c65147330dfde8888ac", "addresses": ["1FfKH7zv2hsddCxSX6JsZDWHEKFhzStFVZ"], "asm": "OP_DUP OP_HASH160 a0d0d33eec92e708d5f3c1f68c65147330dfde88 OP_EQUALVERIFY OP_CHECKSIG", "type": "pubkeyhash"}, "value": 0.09367549, "n": 0}, {"scriptPubKey": {"reqSigs": 1, "hex": "76a91494b12747b87999bf1db7415c4d2647f5854c2bf288ac", "addresses": ["1EZDEECYqxi1uQiJ3vQvZUcVVATeb3SHQk"], "asm": "OP_DUP OP_HASH160 94b12747b87999bf1db7415c4d2647f5854c2bf2 OP_EQUALVERIFY OP_CHECKSIG", "type": "pubkeyhash"}, "value": 0.54997836, "n": 1}], "hex": "0100000001511bb5178d8358e836081d754b1f986277dd12e5f01faa3f60023c6065f38810010000006a473044022067fb16c4f67a6a369047fa7f5e75f56b4c433997e9e9e7b254833b0675079bda02206b6323667e39d6a15bd55c6b6f6da62c6d6ea4f85a8b0285e6370f2cfaf665350121026009b6da7a36d567a3cfb937993403bb67f8f9f80a6fe17e857f43925950648bffffffff02fdef8e00000000001976a914a0d0d33eec92e708d5f3c1f68c65147330dfde8888ac4c334703000000001976a91494b12747b87999bf1db7415c4d2647f5854c2bf288ac00000000", "vin": [{"sequence": 4294967295, "scriptSig": {"hex": "473044022067fb16c4f67a6a369047fa7f5e75f56b4c433997e9e9e7b254833b0675079bda02206b6323667e39d6a15bd55c6b6f6da62c6d6ea4f85a8b0285e6370f2cfaf665350121026009b6da7a36d567a3cfb937993403bb67f8f9f80a6fe17e857f43925950648b", "asm": "3044022067fb16c4f67a6a369047fa7f5e75f56b4c433997e9e9e7b254833b0675079bda02206b6323667e39d6a15bd55c6b6f6da62c6d6ea4f85a8b0285e6370f2cfaf66535[ALL] 026009b6da7a36d567a3cfb937993403bb67f8f9f80a6fe17e857f43925950648b"}, "vout": 1, "txid": "1088f365603c02603faa1ff0e512dd7762981f4b751d0836e858838d17b51b51"}], "txid": "b72bd39c96f9039f9d152be8c37ba3ad8803cee59d2ea03fd56d39f6ccf80e25", "blocktime": 1537873282, "version": 1, "confirmations": 11485, "time": 1537873282, "locktime": 0, "vsize": 225, "size": 225}