{"hash": "a3e4f7fb35666ec1cbea4d35f0d92478a872303fe935ea9f33e2b2abf28b343d", "blockhash": "00000000000000000017f5eb5941039fbcee6240d03bc1f2f8e35350df66a1d8", "vout": [{"scriptPubKey": {"reqSigs": 1, "hex": "a9144258b4f1d9cf772d5e5e8642ff3905551a7d02dd87", "addresses": ["37jpnfMi3Px1u4xYq7dWEFZMvoSFEvGapu"], "asm": "OP_HASH160 4258b4f1d9cf772d5e5e8642ff3905551a7d02dd OP_EQUAL", "type": "scripthash"}, "value": 0.01, "n": 0}, {"scriptPubKey": {"reqSigs": 1, "hex": "a914c0db4b5751b76fef728752d8687a447dffbbe4d187", "addresses": ["3KGkND9tpQhWSXdwsE2JueAF6vRNhz2iNP"], "asm": "OP_HASH160 c0db4b5751b76fef728752d8687a447dffbbe4d1 OP_EQUAL", "type": "scripthash"}, "value": 0.72463195, "n": 1}], "hex": "0100000000010118b8ce8067246de238f618d5e42293d7c4b7a2ce5c3482aaa5179ea05290decc01000000232200209e1b44ca0a86cd52b4ff5de4dfd4b4a2fa210028485bd1db62020e32d2cc7969ffffffff0240420f000000000017a9144258b4f1d9cf772d5e5e8642ff3905551a7d02dd875bb351040000000017a914c0db4b5751b76fef728752d8687a447dffbbe4d1870400483045022100edfd78189b99ea2e5a21d27c64d119c3d872dfeb623b61909b90e6db8d48eb2b0220363c1ab08ec10a9822638d3e3f186c7aad09efac56e6b15c3fd5f7968112a1ad0147304402204ab7b0450ec44156348f088d32c548d0e6195d00dff42a01af5955ca87960b1c022060d7e7506a79ccaf170db5a7b6c1bcbb5f22b1ffcea41084af8080eb56f46e4401475221026014a6bee2e74cf4622fd4e89ca3cbb673183c1856a81e9670172c348288446f21038f2c7ecee34c843be9d886e50ce79e5dc40a1694c0417d60b35340f292ff73fc52ae00000000", "vin": [{"txinwitness": ["", "3045022100edfd78189b99ea2e5a21d27c64d119c3d872dfeb623b61909b90e6db8d48eb2b0220363c1ab08ec10a9822638d3e3f186c7aad09efac56e6b15c3fd5f7968112a1ad01", "304402204ab7b0450ec44156348f088d32c548d0e6195d00dff42a01af5955ca87960b1c022060d7e7506a79ccaf170db5a7b6c1bcbb5f22b1ffcea41084af8080eb56f46e4401", "5221026014a6bee2e74cf4622fd4e89ca3cbb673183c1856a81e9670172c348288446f21038f2c7ecee34c843be9d886e50ce79e5dc40a1694c0417d60b35340f292ff73fc52ae"], "sequence": 4294967295, "scriptSig": {"hex": "2200209e1b44ca0a86cd52b4ff5de4dfd4b4a2fa210028485bd1db62020e32d2cc7969", "asm": "00209e1b44ca0a86cd52b4ff5de4dfd4b4a2fa210028485bd1db62020e32d2cc7969"}, "vout": 1, "txid": "ccde9052a09e17a5aa82345ccea2b7c4d79322e4d518f638e26d246780ceb818"}], "txid": "b72fd59b3727d3925eed669cd8a075a6997ca9b2c76949494061f7bc52aaefaa", "blocktime": 1537874412, "version": 1, "confirmations": 11468, "time": 1537874412, "locktime": 0, "vsize": 206, "size": 371}