{"hash": "2a77f4acdafee376d515dd637ed9a9a34017f9be88a13cec5218d2469ffc2c4f", "blockhash": "0000000000000000001cda96e906b7601b7a6fb1a3b62bca570a9e5d8f4b3de1", "vout": [{"scriptPubKey": {"reqSigs": 1, "hex": "76a9141358536e1dc58cffbf0fce6120ea23e68431649a88ac", "addresses": ["12mHedsvnUiR8wiFrr79Ha6JLfWiQA9p7T"], "asm": "OP_DUP OP_HASH160 1358536e1dc58cffbf0fce6120ea23e68431649a OP_EQUALVERIFY OP_CHECKSIG", "type": "pubkeyhash"}, "value": 0.00310715, "n": 0}, {"scriptPubKey": {"reqSigs": 1, "hex": "a914a772e23730a50f75a010be8071e59d338cf1130a87", "addresses": ["3GxQPqRY12NzrVjYLk49NGAtF3MXqH1BSP"], "asm": "OP_HASH160 a772e23730a50f75a010be8071e59d338cf1130a OP_EQUAL", "type": "scripthash"}, "value": 0.0800633, "n": 1}], "hex": "0100000000010120c13223705bd95a0d620a939d3b158c1af04a86f7f4ec9a0e2e28516d1e75700100000023220020a979d66f945b26cd33b529b808e399cd4f1d2215471884b53a0598f1e79623ebffffffff02bbbd0400000000001976a9141358536e1dc58cffbf0fce6120ea23e68431649a88acba2a7a000000000017a914a772e23730a50f75a010be8071e59d338cf1130a8704004730440220617c247d227b68b2a8bc0e180aad0711bc039128139e72f7b7f301d9ce374e7402207ed9cd3e31420ca708499c192fc9b81468a6d9cd1759608441308b45b397785201473044022076f2cfc498ed47e25d158e3400069a44a89da2e5807473bfd801d22fe9d2470802202df62dccc98df32ecc80b1038d7361f911d9665a1ae9b183506cde9c778512460147522103b45553bea2c01b57a1f68d0f8905cdd7b3e4cb1d9f5b8cbabaef4738804191e3210336f016b4e92ff8920f38bd5ba0e900da84d78ffcf59fe889515e852b01938abf52ae00000000", "vin": [{"txinwitness": ["", "30440220617c247d227b68b2a8bc0e180aad0711bc039128139e72f7b7f301d9ce374e7402207ed9cd3e31420ca708499c192fc9b81468a6d9cd1759608441308b45b397785201", "3044022076f2cfc498ed47e25d158e3400069a44a89da2e5807473bfd801d22fe9d2470802202df62dccc98df32ecc80b1038d7361f911d9665a1ae9b183506cde9c7785124601", "522103b45553bea2c01b57a1f68d0f8905cdd7b3e4cb1d9f5b8cbabaef4738804191e3210336f016b4e92ff8920f38bd5ba0e900da84d78ffcf59fe889515e852b01938abf52ae"], "sequence": 4294967295, "scriptSig": {"hex": "220020a979d66f945b26cd33b529b808e399cd4f1d2215471884b53a0598f1e79623eb", "asm": "0020a979d66f945b26cd33b529b808e399cd4f1d2215471884b53a0598f1e79623eb"}, "vout": 1, "txid": "70751e6d51282e0e9aecf4f7864af01a8c153b9d930a620d5ad95b702332c120"}], "txid": "b735c65ed6a4eb39437155423c4e3f326561936f5fb7e75b5fb8631c374eb724", "blocktime": 1537873282, "version": 1, "confirmations": 11484, "time": 1537873282, "locktime": 0, "vsize": 207, "size": 372}