{"hash": "8eeaf44f149ad7934d0f49d9671f046762600d02d05a19751545b1227fda969d", "blockhash": "0000000000000000000baef3f32e3676a92c3b2e5da21b426e4f302fc371ce76", "vout": [{"scriptPubKey": {"reqSigs": 1, "hex": "a91492f9097fa6e53eda3b9aed1cf83b8e26124ce7a287", "addresses": ["3F68uxBuY1Ay426L2K4rTM4DyG8dpmcexM"], "asm": "OP_HASH160 92f9097fa6e53eda3b9aed1cf83b8e26124ce7a2 OP_EQUAL", "type": "scripthash"}, "value": 0.023, "n": 0}, {"scriptPubKey": {"reqSigs": 1, "hex": "a9144f4b01460fb6b60cc0c9bb05f98612cc773a865b87", "addresses": ["38vHA8okWxLAvevuRZS8ZEgjmietGMHrz1"], "asm": "OP_HASH160 4f4b01460fb6b60cc0c9bb05f98612cc773a865b OP_EQUAL", "type": "scripthash"}, "value": 0.69614547, "n": 1}], "hex": "01000000000101c4ad46f4b9193591af005cb8893bb392432bb79c98478b1058aa146d2546c8800100000017160014b7616f7db3f30d41aafa0927c62e28deff055b01ffffffff02601823000000000017a91492f9097fa6e53eda3b9aed1cf83b8e26124ce7a287d33b26040000000017a9144f4b01460fb6b60cc0c9bb05f98612cc773a865b8702483045022100b57e2854f9ce889d853f0fd0fc04dc31f88a03e3c2ab636800db34e7032143eb0220616c72b2dd2a55394496f76c12b88f57334c6b92147324e1ecda5d588110b0f90121028762822fd2657e87f61848624d6b0d3e05ae664377b93609a261840886b3555800000000", "vin": [{"txinwitness": ["3045022100b57e2854f9ce889d853f0fd0fc04dc31f88a03e3c2ab636800db34e7032143eb0220616c72b2dd2a55394496f76c12b88f57334c6b92147324e1ecda5d588110b0f901", "028762822fd2657e87f61848624d6b0d3e05ae664377b93609a261840886b35558"], "sequence": 4294967295, "scriptSig": {"hex": "160014b7616f7db3f30d41aafa0927c62e28deff055b01", "asm": "0014b7616f7db3f30d41aafa0927c62e28deff055b01"}, "vout": 1, "txid": "80c846256d14aa58108b47989cb72b4392b33b89b85c00af913519b9f446adc4"}], "txid": "b7380704270ea1f558ab8e544f8868b74bcf099881008bed5fbe78b23011174c", "blocktime": 1537876114, "version": 1, "confirmations": 11460, "time": 1537876114, "locktime": 0, "vsize": 166, "size": 248}