{"hash": "b7407fccb4d3f9cd2cb6600c066d1df9c0384cbfd025e18b319fb0ce9f414abe", "blockhash": "00000000000000000018f53835495a110e01622372bf6ae95dc86f2b0ab887b0", "vout": [{"scriptPubKey": {"type": "nulldata", "hex": "6a4c50000077880001b8a47c9880c65efa6e67733fbcbefa6b8351586b4e86aeaeacb577c031fc802d33e46e26b0999c6db454cec3cc255baa0bc006141f93731ddc681d100759d4ba30d2c37bb011d97e02cf", "asm": "OP_RETURN 000077880001b8a47c9880c65efa6e67733fbcbefa6b8351586b4e86aeaeacb577c031fc802d33e46e26b0999c6db454cec3cc255baa0bc006141f93731ddc681d100759d4ba30d2c37bb011d97e02cf"}, "value": 0.0, "n": 0}, {"scriptPubKey": {"reqSigs": 1, "hex": "76a914a717ec9d98926d665190849d43fc17132dda355188ac", "addresses": ["1GEWWKnBoxr5zjtrAdVSPLLM7YDUkCp9im"], "asm": "OP_DUP OP_HASH160 a717ec9d98926d665190849d43fc17132dda3551 OP_EQUALVERIFY OP_CHECKSIG", "type": "pubkeyhash"}, "value": 0.00646916, "n": 1}], "hex": "01000000018f8adecf3e0cdf0eb5b2a38e501877937f36eeb88ee97ddc514560c72bbaf550010000006b483045022100a8a14b59021976550294a81ed751cc4e739749a6edc192db24158c081f7d048202200ff6a714110d8ccfc2064e0ec1960d50ec6c94e13da1e1c61201bfd177c16ac001210272a8d9d9a34083be13edc1d19220b44a9b6384fb9c955d4d70a78fe2146f5dbeffffffff020000000000000000536a4c50000077880001b8a47c9880c65efa6e67733fbcbefa6b8351586b4e86aeaeacb577c031fc802d33e46e26b0999c6db454cec3cc255baa0bc006141f93731ddc681d100759d4ba30d2c37bb011d97e02cf04df0900000000001976a914a717ec9d98926d665190849d43fc17132dda355188ac00000000", "vin": [{"sequence": 4294967295, "scriptSig": {"hex": "483045022100a8a14b59021976550294a81ed751cc4e739749a6edc192db24158c081f7d048202200ff6a714110d8ccfc2064e0ec1960d50ec6c94e13da1e1c61201bfd177c16ac001210272a8d9d9a34083be13edc1d19220b44a9b6384fb9c955d4d70a78fe2146f5dbe", "asm": "3045022100a8a14b59021976550294a81ed751cc4e739749a6edc192db24158c081f7d048202200ff6a714110d8ccfc2064e0ec1960d50ec6c94e13da1e1c61201bfd177c16ac0[ALL] 0272a8d9d9a34083be13edc1d19220b44a9b6384fb9c955d4d70a78fe2146f5dbe"}, "vout": 1, "txid": "50f5ba2bc7604551dc7de98eb8ee367f937718508ea3b2b50edf0c3ecfde8a8f"}], "txid": "b7407fccb4d3f9cd2cb6600c066d1df9c0384cbfd025e18b319fb0ce9f414abe", "blocktime": 1537870928, "version": 1, "confirmations": 11513, "time": 1537870928, "locktime": 0, "vsize": 284, "size": 284}