{"hash": "b74136f8787760ce274bad9c56aedbce55c2d2bd5822185b4c56cd5e9ae4c344", "blockhash": "0000000000000000000baef3f32e3676a92c3b2e5da21b426e4f302fc371ce76", "vout": [{"scriptPubKey": {"reqSigs": 1, "hex": "a914a1aa7dcdf2ae3e0c21cfb2487e5d45564bd61e1687", "addresses": ["3GRpxP1QducZprWvyUCGks57TZUzEnm1p4"], "asm": "OP_HASH160 a1aa7dcdf2ae3e0c21cfb2487e5d45564bd61e16 OP_EQUAL", "type": "scripthash"}, "value": 0.102195, "n": 0}], "hex": "0100000001bb6b85151240daa593b244bf5288e35b8c2a63a76f4f2c3b9adf4d1986b03a0e000000006a473044022012e0fa237f13419503620fbec83394a33ca3380c4bf1d3be605f776412e6077902206c44ea55defb322fedaee55ebe4c2efecc5424fc6d9785cdda93a5747dcb0fc30121023bcead2a7bba2c7ed03f42950f8be912597fa17cbc5fc7709d1ffb879cf2d7e3ffffffff01ecef9b000000000017a914a1aa7dcdf2ae3e0c21cfb2487e5d45564bd61e168700000000", "vin": [{"sequence": 4294967295, "scriptSig": {"hex": "473044022012e0fa237f13419503620fbec83394a33ca3380c4bf1d3be605f776412e6077902206c44ea55defb322fedaee55ebe4c2efecc5424fc6d9785cdda93a5747dcb0fc30121023bcead2a7bba2c7ed03f42950f8be912597fa17cbc5fc7709d1ffb879cf2d7e3", "asm": "3044022012e0fa237f13419503620fbec83394a33ca3380c4bf1d3be605f776412e6077902206c44ea55defb322fedaee55ebe4c2efecc5424fc6d9785cdda93a5747dcb0fc3[ALL] 023bcead2a7bba2c7ed03f42950f8be912597fa17cbc5fc7709d1ffb879cf2d7e3"}, "vout": 0, "txid": "0e3ab086194ddf9a3b2c4f6fa7632a8c5be38852bf44b293a5da401215856bbb"}], "txid": "b74136f8787760ce274bad9c56aedbce55c2d2bd5822185b4c56cd5e9ae4c344", "blocktime": 1537876114, "version": 1, "confirmations": 11459, "time": 1537876114, "locktime": 0, "vsize": 189, "size": 189}