{"hash": "b74252bd642562cbf4a0fe48821d65e4be3becd0dc1f9c84bca57ba041d78667", "blockhash": "0000000000000000000dcc0f55137456b1a82d3642486a52398922ac4d620174", "vout": [{"scriptPubKey": {"reqSigs": 1, "hex": "76a91454254e75049f1786cbc60c56c124fae21280e38388ac", "addresses": ["18fvTDMMEmxJnkrgCR5isbV38EBCKgjopJ"], "asm": "OP_DUP OP_HASH160 54254e75049f1786cbc60c56c124fae21280e383 OP_EQUALVERIFY OP_CHECKSIG", "type": "pubkeyhash"}, "value": 8.379e-05, "n": 0}, {"scriptPubKey": {"reqSigs": 1, "hex": "a91413c85e69bbc964ce6b78bd912db12748419f9bc987", "addresses": ["33Vco4Fc9nQ78gyPtKzSBVdUnWXihXfbAb"], "asm": "OP_HASH160 13c85e69bbc964ce6b78bd912db12748419f9bc9 OP_EQUAL", "type": "scripthash"}, "value": 0.01387032, "n": 1}], "hex": "01000000024e0cd75b5884459954003b474618adfb415c044e4ab7c16f9434b55890ae258a8a0000006b483045022100a95d2ca831f04747340304ce73307b13210502345dd58f33c653ef75d4c25a7602204ec88ca4075be9aa8c7dc7722d5e1050a9b0dc54536b986862fb12b979a037520121038d78da04c178018b8a7aefbf1f49a0566f3c4f550c41cc12e4cf8a80b631c1caffffffff7f6b7a2a1f3b988985dcf34387c33d03587093cea120d20ead8f4956429429f3000000006b483045022100db3cad2bb1cbb5b5101fdec04c6fc13f05545a403abba5d58edb4d02418630e10220070b5a316a8cc2eefdb9314888c8747ee1a3e54c1a8ddc653788087134b5896e012103a503ce8af91b3b53840f84ef62b04032f2a936ac961596c27672530e49ca9eb5ffffffff02bb200000000000001976a91454254e75049f1786cbc60c56c124fae21280e38388ac182a15000000000017a91413c85e69bbc964ce6b78bd912db12748419f9bc98700000000", "vin": [{"sequence": 4294967295, "scriptSig": {"hex": "483045022100a95d2ca831f04747340304ce73307b13210502345dd58f33c653ef75d4c25a7602204ec88ca4075be9aa8c7dc7722d5e1050a9b0dc54536b986862fb12b979a037520121038d78da04c178018b8a7aefbf1f49a0566f3c4f550c41cc12e4cf8a80b631c1ca", "asm": "3045022100a95d2ca831f04747340304ce73307b13210502345dd58f33c653ef75d4c25a7602204ec88ca4075be9aa8c7dc7722d5e1050a9b0dc54536b986862fb12b979a03752[ALL] 038d78da04c178018b8a7aefbf1f49a0566f3c4f550c41cc12e4cf8a80b631c1ca"}, "vout": 138, "txid": "8a25ae9058b534946fc1b74a4e045c41fbad1846473b0054994584585bd70c4e"}, {"sequence": 4294967295, "scriptSig": {"hex": "483045022100db3cad2bb1cbb5b5101fdec04c6fc13f05545a403abba5d58edb4d02418630e10220070b5a316a8cc2eefdb9314888c8747ee1a3e54c1a8ddc653788087134b5896e012103a503ce8af91b3b53840f84ef62b04032f2a936ac961596c27672530e49ca9eb5", "asm": "3045022100db3cad2bb1cbb5b5101fdec04c6fc13f05545a403abba5d58edb4d02418630e10220070b5a316a8cc2eefdb9314888c8747ee1a3e54c1a8ddc653788087134b5896e[ALL] 03a503ce8af91b3b53840f84ef62b04032f2a936ac961596c27672530e49ca9eb5"}, "vout": 0, "txid": "f329944256498fad0ed220a1ce937058033dc38743f3dc8589983b1f2a7a6b7f"}], "txid": "b74252bd642562cbf4a0fe48821d65e4be3becd0dc1f9c84bca57ba041d78667", "blocktime": 1537870268, "version": 1, "confirmations": 11518, "time": 1537870268, "locktime": 0, "vsize": 372, "size": 372}