{"hash": "b74d160b677907c78d659035618e4aee373122443fa28cf5b926eb9e17ae8dc3", "blockhash": "00000000000000000017f5eb5941039fbcee6240d03bc1f2f8e35350df66a1d8", "vout": [{"scriptPubKey": {"reqSigs": 1, "hex": "76a914c7d9fbe308d82c4810ccc6daf6d0f0c2ab4e60d588ac", "addresses": ["1KDibxt2Na82sF9h8B74YrtSXztAbGFLFR"], "asm": "OP_DUP OP_HASH160 c7d9fbe308d82c4810ccc6daf6d0f0c2ab4e60d5 OP_EQUALVERIFY OP_CHECKSIG", "type": "pubkeyhash"}, "value": 0.00588881, "n": 0}, {"scriptPubKey": {"reqSigs": 1, "hex": "76a91479cfb5ef035d8e26a5cac6149165be50ea3b0d7988ac", "addresses": ["1C75bCjwN7VeoYgWapK3XTXtHxvi4kR8ov"], "asm": "OP_DUP OP_HASH160 79cfb5ef035d8e26a5cac6149165be50ea3b0d79 OP_EQUALVERIFY OP_CHECKSIG", "type": "pubkeyhash"}, "value": 0.00725184, "n": 1}], "hex": "01000000016113dcf092f123377aed1f804c81051bd513a446ab0b831caf99d6ac0118a13d090000006a47304402204f7751351b23bc3241eaf4e76e2ad47dbe1dd0a7d55072e8432b311b4f64ced10220364cfb9b8d4c9e3ff6ac449d4a03e10058932ddf7f5e974a4a530bce5cbb41d50121039cca5acbf6b7f7b0430cf6b89dba8686b451d2d908ffb58cfe83246880739574fdffffff0251fc0800000000001976a914c7d9fbe308d82c4810ccc6daf6d0f0c2ab4e60d588acc0100b00000000001976a91479cfb5ef035d8e26a5cac6149165be50ea3b0d7988ac00000000", "vin": [{"sequence": 4294967293, "scriptSig": {"hex": "47304402204f7751351b23bc3241eaf4e76e2ad47dbe1dd0a7d55072e8432b311b4f64ced10220364cfb9b8d4c9e3ff6ac449d4a03e10058932ddf7f5e974a4a530bce5cbb41d50121039cca5acbf6b7f7b0430cf6b89dba8686b451d2d908ffb58cfe83246880739574", "asm": "304402204f7751351b23bc3241eaf4e76e2ad47dbe1dd0a7d55072e8432b311b4f64ced10220364cfb9b8d4c9e3ff6ac449d4a03e10058932ddf7f5e974a4a530bce5cbb41d5[ALL] 039cca5acbf6b7f7b0430cf6b89dba8686b451d2d908ffb58cfe83246880739574"}, "vout": 9, "txid": "3da11801acd699af1c830bab46a413d51b05814c801fed7a3723f192f0dc1361"}], "txid": "b74d160b677907c78d659035618e4aee373122443fa28cf5b926eb9e17ae8dc3", "blocktime": 1537874412, "version": 1, "confirmations": 11468, "time": 1537874412, "locktime": 0, "vsize": 225, "size": 225}