{"hash": "54685b890b2462415cf04a993b6caa82ba44b5f2f8ebd6cf3b46420800404516", "blockhash": "0000000000000000000baef3f32e3676a92c3b2e5da21b426e4f302fc371ce76", "vout": [{"scriptPubKey": {"reqSigs": 1, "hex": "a9146a9fe8dd81a7053a30239058baed6e92d188a42a87", "addresses": ["3BQo7bPHiaxXmUDMaGYBCvTynntgVpDoC9"], "asm": "OP_HASH160 6a9fe8dd81a7053a30239058baed6e92d188a42a OP_EQUAL", "type": "scripthash"}, "value": 0.00996831, "n": 0}, {"scriptPubKey": {"reqSigs": 1, "hex": "76a91416565bf6308c136ad81e0912b38325ad14a3754288ac", "addresses": ["1337KZjmMEvSAWwQ5GECYG9xhUiELZuSyi"], "asm": "OP_DUP OP_HASH160 16565bf6308c136ad81e0912b38325ad14a37542 OP_EQUALVERIFY OP_CHECKSIG", "type": "pubkeyhash"}, "value": 0.03, "n": 1}], "hex": "0200000000010351c12aef77f4e20c977075397680d1ad29f74ecb9be0cc876bcb50583656edf5000000006b483045022100cd5f80c47f973139258d6d3ac089600a79b85dae948ddd413f906c8951565947022059a6724c855b5f90ad6e48606f539fabdd0d7a1a561a08c07cda68b41eec96fb012103ed5f87c4fd74c6aa07a1d5fd4ca04b8c83c02109784207a59f49e71995f3f839feffffff90b3192188f877476175aa7f5225e761c8188f2d71b6df7613af4a3541ba990b0c000000171600147e29984d6e8724d7dff6811bbde77a045fc1be78feffffffb7ad33cc3ba552348136d3154dd19d51a8c7bd3390da380e3cafd1fa797b7385e70300006b483045022100ac8ad305f4525ffa416e49c8c33657040ecaf78dc0c9a270f09328279d41ee2802203258fe7a731ff9fb48525afc4268d60c5fa6f5e2077c2e1e0f7187d0fb03b98701210237c4582dc8fec25ca41240b82aa009071de21d460f827c3220400ca9c839eeb5feffffff02df350f000000000017a9146a9fe8dd81a7053a30239058baed6e92d188a42a87c0c62d00000000001976a91416565bf6308c136ad81e0912b38325ad14a3754288ac0002473044022044489cff01eb2f0826c3f3213c121cd93b45be401045359110f2557589884267022056043d276a32b5f37b3569857abef151f6ed1680ac473160c639e0c691d5013101210267b11fe6ddb5c3806d307f6399abfa95de1528d86f9c1238fec55c96a2c59cfc000c490800", "vin": [{"sequence": 4294967294, "scriptSig": {"hex": "483045022100cd5f80c47f973139258d6d3ac089600a79b85dae948ddd413f906c8951565947022059a6724c855b5f90ad6e48606f539fabdd0d7a1a561a08c07cda68b41eec96fb012103ed5f87c4fd74c6aa07a1d5fd4ca04b8c83c02109784207a59f49e71995f3f839", "asm": "3045022100cd5f80c47f973139258d6d3ac089600a79b85dae948ddd413f906c8951565947022059a6724c855b5f90ad6e48606f539fabdd0d7a1a561a08c07cda68b41eec96fb[ALL] 03ed5f87c4fd74c6aa07a1d5fd4ca04b8c83c02109784207a59f49e71995f3f839"}, "vout": 0, "txid": "f5ed56365850cb6b87cce09bcb4ef729add18076397570970ce2f477ef2ac151"}, {"txinwitness": ["3044022044489cff01eb2f0826c3f3213c121cd93b45be401045359110f2557589884267022056043d276a32b5f37b3569857abef151f6ed1680ac473160c639e0c691d5013101", "0267b11fe6ddb5c3806d307f6399abfa95de1528d86f9c1238fec55c96a2c59cfc"], "sequence": 4294967294, "scriptSig": {"hex": "1600147e29984d6e8724d7dff6811bbde77a045fc1be78", "asm": "00147e29984d6e8724d7dff6811bbde77a045fc1be78"}, "vout": 12, "txid": "0b99ba41354aaf1376dfb6712d8f18c861e725527faa75614777f8882119b390"}, {"sequence": 4294967294, "scriptSig": {"hex": "483045022100ac8ad305f4525ffa416e49c8c33657040ecaf78dc0c9a270f09328279d41ee2802203258fe7a731ff9fb48525afc4268d60c5fa6f5e2077c2e1e0f7187d0fb03b98701210237c4582dc8fec25ca41240b82aa009071de21d460f827c3220400ca9c839eeb5", "asm": "3045022100ac8ad305f4525ffa416e49c8c33657040ecaf78dc0c9a270f09328279d41ee2802203258fe7a731ff9fb48525afc4268d60c5fa6f5e2077c2e1e0f7187d0fb03b987[ALL] 0237c4582dc8fec25ca41240b82aa009071de21d460f827c3220400ca9c839eeb5"}, "vout": 999, "txid": "85737b79fad1af3c0e38da9033bdc7a8519dd14d15d336813452a53bcc33adb7"}], "txid": "b74d6b9daf30abb5c0157336a09349259fbdc9d376e96bfce1c6f1fe329c614c", "blocktime": 1537876114, "version": 2, "confirmations": 11460, "time": 1537876114, "locktime": 542988, "vsize": 464, "size": 547}