{"hash": "d02f25d1ee30fb89a3a8485392aae42774d0df4e828ccdb8b3fd519a1f40dd34", "blockhash": "0000000000000000000e13cef7c366c0283d82e591d1acd082e914b08063cdf1", "vout": [{"scriptPubKey": {"reqSigs": 1, "hex": "76a914e2e935237afbbfe00bd99aaa81246024105058c788ac", "addresses": ["1Mgo5uCE8xnPyzaSukNvFp2KYQNQKmaVky"], "asm": "OP_DUP OP_HASH160 e2e935237afbbfe00bd99aaa81246024105058c7 OP_EQUALVERIFY OP_CHECKSIG", "type": "pubkeyhash"}, "value": 0.0031106, "n": 0}, {"scriptPubKey": {"reqSigs": 1, "hex": "a914e3b7bdfd00d846144d2fe6daddf15af6ba5c7bd887", "addresses": ["3NT5RiYXG9TXds8Zxi2g6iAUG13LJKXiaL"], "asm": "OP_HASH160 e3b7bdfd00d846144d2fe6daddf15af6ba5c7bd8 OP_EQUAL", "type": "scripthash"}, "value": 0.01005746, "n": 1}], "hex": "02000000000102252167b58c104f5420daf40b275e949c76b9cc45fdb79a596ea6a393544dc7620000000017160014ba1f7e861267f24050a7acc7ab9fdcd95cb7f45cfeffffff5acb1111fed3377c98672b6e8a403002dfe81ce40dcd9466b93dcb2cc8cefd020100000017160014a1d85c22399ef91a10c7879109e9a235ec21ff07feffffff0214bf0400000000001976a914e2e935237afbbfe00bd99aaa81246024105058c788acb2580f000000000017a914e3b7bdfd00d846144d2fe6daddf15af6ba5c7bd887024730440220182f9f6c8731351d8744992b87edc330bfdb41f72e6e2781204425ea92a2cb71022050fa365dfdb1d9a3df78730b5b18c5c316b007966a53e8ed2dc1d4c2abc870b7012102b416f1441a2d15a8496b579e258e8f93f320943f39a985da09b2dacc6335d3e502483045022100ebf47108f05a624c421f6b7760c224378598ccbe61549c4da646a9cd4fe3cb6202203a991412578e709c28ba0a9e337b65b599ebe71dde28d8d9985a4c356f5c0e4b012102ac3e73c24dd04e7337f03efb46f10ee42a446c7c506a657e9ce2d0b794abebdf10490800", "vin": [{"txinwitness": ["30440220182f9f6c8731351d8744992b87edc330bfdb41f72e6e2781204425ea92a2cb71022050fa365dfdb1d9a3df78730b5b18c5c316b007966a53e8ed2dc1d4c2abc870b701", "02b416f1441a2d15a8496b579e258e8f93f320943f39a985da09b2dacc6335d3e5"], "sequence": 4294967294, "scriptSig": {"hex": "160014ba1f7e861267f24050a7acc7ab9fdcd95cb7f45c", "asm": "0014ba1f7e861267f24050a7acc7ab9fdcd95cb7f45c"}, "vout": 0, "txid": "62c74d5493a3a66e599ab7fd45ccb9769c945e270bf4da20544f108cb5672125"}, {"txinwitness": ["3045022100ebf47108f05a624c421f6b7760c224378598ccbe61549c4da646a9cd4fe3cb6202203a991412578e709c28ba0a9e337b65b599ebe71dde28d8d9985a4c356f5c0e4b01", "02ac3e73c24dd04e7337f03efb46f10ee42a446c7c506a657e9ce2d0b794abebdf"], "sequence": 4294967294, "scriptSig": {"hex": "160014a1d85c22399ef91a10c7879109e9a235ec21ff07", "asm": "0014a1d85c22399ef91a10c7879109e9a235ec21ff07"}, "vout": 1, "txid": "02fdcec82ccb3db96694cd0de41ce8df0230408a6e2b67987c37d3fe1111cb5a"}], "txid": "b74fd38826f6c5b7cf08451abd74c2e87fa038000438d90bd285748d03e289aa", "blocktime": 1537871767, "version": 2, "confirmations": 11495, "time": 1537871767, "locktime": 542992, "vsize": 259, "size": 421}