{"hash": "b752e7f7e14eeaf02da0f41c326ae060f528f594ae7a7834818beeda20ddd846", "blockhash": "0000000000000000001f76057863aec43deb6fa401d9628bb513d65a8098bfab", "vout": [{"scriptPubKey": {"reqSigs": 1, "hex": "a9141a77d6bbe4966c1ed14f36bf57c04d30fe9d546187", "addresses": ["346y45SpQtMmstco3FrzBvHt9JDt5rdCKQ"], "asm": "OP_HASH160 1a77d6bbe4966c1ed14f36bf57c04d30fe9d5461 OP_EQUAL", "type": "scripthash"}, "value": 0.01099799, "n": 0}], "hex": "01000000019f8d37b7318990b64b830fd03e1cb0316640c94a486b5e14f51d6c2eb2e5e295010000006b48304502210096de8415192320d90eb156be6b1458fd5fb55c766fd1bb4e7693310141a3eff50220292b61e528dc77c099b8b17ed4134922d7b14f48d8d31afb08789c9920831ffa012102dd8b43079e7e3c21fced2533d2c2db62a5f48bc9031f8d7b70d1104057a71968fdffffff0117c810000000000017a9141a77d6bbe4966c1ed14f36bf57c04d30fe9d54618714490800", "vin": [{"sequence": 4294967293, "scriptSig": {"hex": "48304502210096de8415192320d90eb156be6b1458fd5fb55c766fd1bb4e7693310141a3eff50220292b61e528dc77c099b8b17ed4134922d7b14f48d8d31afb08789c9920831ffa012102dd8b43079e7e3c21fced2533d2c2db62a5f48bc9031f8d7b70d1104057a71968", "asm": "304502210096de8415192320d90eb156be6b1458fd5fb55c766fd1bb4e7693310141a3eff50220292b61e528dc77c099b8b17ed4134922d7b14f48d8d31afb08789c9920831ffa[ALL] 02dd8b43079e7e3c21fced2533d2c2db62a5f48bc9031f8d7b70d1104057a71968"}, "vout": 1, "txid": "95e2e5b22e6c1df5145e6b484ac9406631b01c3ed00f834bb6908931b7378d9f"}], "txid": "b752e7f7e14eeaf02da0f41c326ae060f528f594ae7a7834818beeda20ddd846", "blocktime": 1537873891, "version": 1, "confirmations": 11479, "time": 1537873891, "locktime": 542996, "vsize": 190, "size": 190}