{"hash": "b75e8b04f90562106007d18b9e6105cf04226bfeaf8e16edfd4a56b2a30096a9", "blockhash": "0000000000000000000e13cef7c366c0283d82e591d1acd082e914b08063cdf1", "vout": [{"scriptPubKey": {"reqSigs": 1, "hex": "76a914165fe1259a25b6f86945ad912c33ed6630d32b8e88ac", "addresses": ["133Jj3WmEQyP7v7sbXggQY7HCup1TFj72W"], "asm": "OP_DUP OP_HASH160 165fe1259a25b6f86945ad912c33ed6630d32b8e OP_EQUALVERIFY OP_CHECKSIG", "type": "pubkeyhash"}, "value": 0.000961, "n": 0}, {"scriptPubKey": {"type": "nulldata", "hex": "6a4c50000077a50001cbb205e5d82553f51ee4a0c3af6c953dd567cf27e7e3ef3236678a6250971726b13df038a3ece4a19bad472bfa265baa0efa0614574a5cb5650dbc9a9526289ac0f6612cd74e33776ee4", "asm": "OP_RETURN 000077a50001cbb205e5d82553f51ee4a0c3af6c953dd567cf27e7e3ef3236678a6250971726b13df038a3ece4a19bad472bfa265baa0efa0614574a5cb5650dbc9a9526289ac0f6612cd74e33776ee4"}, "value": 0.0, "n": 1}], "hex": "01000000013255fda66a18fd74984a3180f031e364d42d70fbcc313c86d3e2f518a3c10c1e010000006b483045022100c3ce624abc52bba67e9d485cbf7b2bef26cec15c733c0326667bea226261d06c02206954624d13f4d92b7789e1896a5afda6fc4b58c2c656464b9fb47408e5830dbc0121021098b440dec5fdf502b9dbf5af5cadeaee33d99994104ee44ea15544449fe585ffffffff0264770100000000001976a914165fe1259a25b6f86945ad912c33ed6630d32b8e88ac0000000000000000536a4c50000077a50001cbb205e5d82553f51ee4a0c3af6c953dd567cf27e7e3ef3236678a6250971726b13df038a3ece4a19bad472bfa265baa0efa0614574a5cb5650dbc9a9526289ac0f6612cd74e33776ee400000000", "vin": [{"sequence": 4294967295, "scriptSig": {"hex": "483045022100c3ce624abc52bba67e9d485cbf7b2bef26cec15c733c0326667bea226261d06c02206954624d13f4d92b7789e1896a5afda6fc4b58c2c656464b9fb47408e5830dbc0121021098b440dec5fdf502b9dbf5af5cadeaee33d99994104ee44ea15544449fe585", "asm": "3045022100c3ce624abc52bba67e9d485cbf7b2bef26cec15c733c0326667bea226261d06c02206954624d13f4d92b7789e1896a5afda6fc4b58c2c656464b9fb47408e5830dbc[ALL] 021098b440dec5fdf502b9dbf5af5cadeaee33d99994104ee44ea15544449fe585"}, "vout": 1, "txid": "1e0cc1a318f5e2d3863c31ccfb702dd464e331f080314a9874fd186aa6fd5532"}], "txid": "b75e8b04f90562106007d18b9e6105cf04226bfeaf8e16edfd4a56b2a30096a9", "blocktime": 1537871767, "version": 1, "confirmations": 11493, "time": 1537871767, "locktime": 0, "vsize": 284, "size": 284}