{"hash": "b75f2f2d6b36809a7566dc8c9ac540548b541fc6c5c1953a47abe0d41ec301c8", "blockhash": "00000000000000000004ffacab907a6b429b9a5745fa0b75af4234bf69dd7176", "vout": [{"scriptPubKey": {"reqSigs": 1, "hex": "76a9142c3c0a5729620f5cbc93994bffec17bf4ecd14a388ac", "addresses": ["152tf7yAFLM3wQ8m4oijiqNuzKiBu7AhRw"], "asm": "OP_DUP OP_HASH160 2c3c0a5729620f5cbc93994bffec17bf4ecd14a3 OP_EQUALVERIFY OP_CHECKSIG", "type": "pubkeyhash"}, "value": 0.01558731, "n": 0}], "hex": "0200000001b38b4270c685391d19ea2f661dc0a6b06b4bd5dd241e8464df1c215b468e7ffe010000006b483045022100c093241d67a9a344939d8f6684d3947a8b9bd4f5011a57c021de54ed410a5e25022037d2528e448109960c2fd15f96c65aff2670d0ad9e6445bfba8fc22a2bf7e974012103fd414f4d8a2f70f836ea310e0f55603a408dc2a6b6f2ee1c89fe59fdb45e5ebeffffffff01cbc81700000000001976a9142c3c0a5729620f5cbc93994bffec17bf4ecd14a388ac00000000", "vin": [{"sequence": 4294967295, "scriptSig": {"hex": "483045022100c093241d67a9a344939d8f6684d3947a8b9bd4f5011a57c021de54ed410a5e25022037d2528e448109960c2fd15f96c65aff2670d0ad9e6445bfba8fc22a2bf7e974012103fd414f4d8a2f70f836ea310e0f55603a408dc2a6b6f2ee1c89fe59fdb45e5ebe", "asm": "3045022100c093241d67a9a344939d8f6684d3947a8b9bd4f5011a57c021de54ed410a5e25022037d2528e448109960c2fd15f96c65aff2670d0ad9e6445bfba8fc22a2bf7e974[ALL] 03fd414f4d8a2f70f836ea310e0f55603a408dc2a6b6f2ee1c89fe59fdb45e5ebe"}, "vout": 1, "txid": "fe7f8e465b211cdf64841e24ddd54b6bb0a6c01d662fea191d3985c670428bb3"}], "txid": "b75f2f2d6b36809a7566dc8c9ac540548b541fc6c5c1953a47abe0d41ec301c8", "blocktime": 1537875543, "version": 2, "confirmations": 11464, "time": 1537875543, "locktime": 0, "vsize": 192, "size": 192}