{"hash": "b7601e860195dc76adbf8a45b2c33bd3f5e4682bf511a1026f4dfc977eafc94d", "blockhash": "0000000000000000001f76057863aec43deb6fa401d9628bb513d65a8098bfab", "vout": [{"scriptPubKey": {"reqSigs": 1, "hex": "76a9147d9db809dcb57c88724e81fec1252813cff7201788ac", "addresses": ["1CTCQUr8s9YAZ7i3ixu8UKEFjUeoPgbBJv"], "asm": "OP_DUP OP_HASH160 7d9db809dcb57c88724e81fec1252813cff72017 OP_EQUALVERIFY OP_CHECKSIG", "type": "pubkeyhash"}, "value": 0.01011084, "n": 0}, {"scriptPubKey": {"reqSigs": 1, "hex": "76a91455dd9d2dde9e75e5fbd306553cc128fd251dd7bc88ac", "addresses": ["18q1vKGU1RwRKJmsSVKfYvAPYGXSTXBg6o"], "asm": "OP_DUP OP_HASH160 55dd9d2dde9e75e5fbd306553cc128fd251dd7bc OP_EQUALVERIFY OP_CHECKSIG", "type": "pubkeyhash"}, "value": 0.01278541, "n": 1}], "hex": "0200000003445c3574e1eba4c516560fad2372b271195d24fbcce38ad66a4a84a12d38136b010000006b48304502210094aeeceaefef9f3f3b216124a8f27ff5b4f4d0d662a7e46297ef3823c563f42102202961cb36649ba8dc1ac1e04e0163fdb23aa3bdb188a2097b9c48aea2caebaad301210316ce094d1933f0696074434848389cbd8ec4fb329ffa54579e3cfea8237fde52feffffff4ca160d279177b1d6315d35349fca8a3eb21e3dc32e443b3a6231ac4662c4165090000006b483045022100c5b3daded253dedc3d556c2c5094bb81242ce7c5cf57b19c6cba355cff74fdc802205e45ec2205769fe354eaac01ea9b0149c259e6ac50ca22d7b9d495f36337834d012102d64a9561612b332ab27cc764b68bb70401cec6a3423023c712f18cfc2e2226aefeffffff24488f07a8e6b212047e08ef0a7cc8667a431dc92dbc9e03b0d846d04068b6f2000000006a47304402203986673331a764c028ee294ee66139cb668d3d81f37678ff2840fef925e9d5ee02202652dd06d08e47d9163f9945ba7dae83b08b38681146764311c2416a92c4c05d01210362afb56cd830b6fe016308d94680a9216f133357586f2811c0044d4b3b2df12afeffffff028c6d0f00000000001976a9147d9db809dcb57c88724e81fec1252813cff7201788ac4d821300000000001976a91455dd9d2dde9e75e5fbd306553cc128fd251dd7bc88acd1480800", "vin": [{"sequence": 4294967294, "scriptSig": {"hex": "48304502210094aeeceaefef9f3f3b216124a8f27ff5b4f4d0d662a7e46297ef3823c563f42102202961cb36649ba8dc1ac1e04e0163fdb23aa3bdb188a2097b9c48aea2caebaad301210316ce094d1933f0696074434848389cbd8ec4fb329ffa54579e3cfea8237fde52", "asm": "304502210094aeeceaefef9f3f3b216124a8f27ff5b4f4d0d662a7e46297ef3823c563f42102202961cb36649ba8dc1ac1e04e0163fdb23aa3bdb188a2097b9c48aea2caebaad3[ALL] 0316ce094d1933f0696074434848389cbd8ec4fb329ffa54579e3cfea8237fde52"}, "vout": 1, "txid": "6b13382da1844a6ad68ae3ccfb245d1971b27223ad0f5616c5a4ebe174355c44"}, {"sequence": 4294967294, "scriptSig": {"hex": "483045022100c5b3daded253dedc3d556c2c5094bb81242ce7c5cf57b19c6cba355cff74fdc802205e45ec2205769fe354eaac01ea9b0149c259e6ac50ca22d7b9d495f36337834d012102d64a9561612b332ab27cc764b68bb70401cec6a3423023c712f18cfc2e2226ae", "asm": "3045022100c5b3daded253dedc3d556c2c5094bb81242ce7c5cf57b19c6cba355cff74fdc802205e45ec2205769fe354eaac01ea9b0149c259e6ac50ca22d7b9d495f36337834d[ALL] 02d64a9561612b332ab27cc764b68bb70401cec6a3423023c712f18cfc2e2226ae"}, "vout": 9, "txid": "65412c66c41a23a6b343e432dce321eba3a8fc4953d315631d7b1779d260a14c"}, {"sequence": 4294967294, "scriptSig": {"hex": "47304402203986673331a764c028ee294ee66139cb668d3d81f37678ff2840fef925e9d5ee02202652dd06d08e47d9163f9945ba7dae83b08b38681146764311c2416a92c4c05d01210362afb56cd830b6fe016308d94680a9216f133357586f2811c0044d4b3b2df12a", "asm": "304402203986673331a764c028ee294ee66139cb668d3d81f37678ff2840fef925e9d5ee02202652dd06d08e47d9163f9945ba7dae83b08b38681146764311c2416a92c4c05d[ALL] 0362afb56cd830b6fe016308d94680a9216f133357586f2811c0044d4b3b2df12a"}, "vout": 0, "txid": "f2b66840d046d8b0039ebc2dc91d437a66c87c0aef087e0412b2e6a8078f4824"}], "txid": "b7601e860195dc76adbf8a45b2c33bd3f5e4682bf511a1026f4dfc977eafc94d", "blocktime": 1537873891, "version": 2, "confirmations": 11478, "time": 1537873891, "locktime": 542929, "vsize": 521, "size": 521}