{"hash": "b763db8e27ba66197006ca967533847b67ca8bc68c86581e5c216ab0b00d8557", "blockhash": "0000000000000000000e13cef7c366c0283d82e591d1acd082e914b08063cdf1", "vout": [{"scriptPubKey": {"reqSigs": 1, "hex": "76a91491bb3c4e8e48392dd2a134aae22c3471842902d788ac", "addresses": ["1EHZHAviBBP8UbAowXbPUscGsfFKwsvxeM"], "asm": "OP_DUP OP_HASH160 91bb3c4e8e48392dd2a134aae22c3471842902d7 OP_EQUALVERIFY OP_CHECKSIG", "type": "pubkeyhash"}, "value": 0.17303913, "n": 0}], "hex": "010000000c61976582b2e7ed22c7469628ad67b2564596f80467d22133d921030d6dc9ff00000000006b483045022100df0904fd504e89f1f28456556e440dc1ce6401a1609fb4347846e9765fb74dbf022014be2ceb0e3dd74addd66086935b76b6b06ec51df8bfc49d433bfd9feb4af80b012103aa6b8af3885ab5b8b66371782a97897b0117d4abb449a0d1d7db03b691221119ffffffffd7e0e6db39056086a35ab54d20a75de1d0a2e1869e80af84c0067a8440f2073d000000006a47304402200600f76f542d33db8716ef933b3d0f264d91c1affb1fb9ec5c8761606ebbb0ec02204e318fab35313538cd0d16040a0d9f1ac1310948c397387f3eafda25d7292e8d012102a18be0e811d8748e0c66d4f0949facea946eabb4a78ed0a5e759b99c3a5904bcffffffff8cd870e67c815031add43b07a17272701cbcce59035b97f7fcde4ca724a06e3f000000006a47304402203649cb92fbb5d4778cc09f9e290306a2669b7f4c7ddf8245808cf61e1d59b9c602202549bbf9dde068f71b8916aa75203c96a5b2da2e48f0784e848338eb4f1e77e201210226699e3588a201e9e633cf070d0ae133b2d164704d761a9ae4d8611076e956c4ffffffff1dac70421442698e3036d25e2b4f71813043044a021132822b1b1ad90d57f85c000000006a473044022076bf743f859d691f803c0af31d2e0ca5b251bbe60e7f1a2c3095c52f76c294d102207c7811010fb5931961f930ed3631515d64ddefce00dfe3a4a8e355bb21c740580121039645c832136d700f6bb41f63295f5b4f6a524eb2536d706dfbe37799ed48b87dffffffff00420e81bfd760c505a480c2a1b42c4d2ee099be456295e6cdda9a87b10c8a82000000006b4830450221008058040efdb466e99451d8865970cfd3af23cc30baa3d3c1d54ef30afe0f9653022026801dfb31b423aac1ad7b840686f07cd3e8cb0fa0f1e85a570aaac8eeef30c901210295f11e9f525b7cb0fc32a0b65bd973832f236abaf2cadc9ee7561b6f7dd0c3a5ffffffffa21fe3c0969d27f018997310efbc478cc6d6312fe0ea4a3a7a1693d2abec6296000000006a473044022014c38bca6acf3cf522c507d86c525bce9ddc67b530ed76b12ce410e9e187ab7f02200671abf22a3513927a29e019326f5537b6fa0d2896d9da5c9fd1d3f7aa4588ad01210300e6767ec53e17ef396053ea7c5316b9e989af360866f82cb7d1f449f28110d0ffffffff96b52bbfdaab579565946a4c0b5fefe4faa9bfc22462d08e52fadc1adf3e24a4010000006a47304402201827eda0c52b77e7e762fecd5b14068dfe7c5c5bc2d115773daa0acdd33a407e02204b260ca5316e8a3d951a647c3eab16f1723daa4de495ea95f5e88b16d3c1b59b012103db784350392cf87d71b38a53f3cfcaa0b2abe145f778cfa113d374e073ea5f85ffffffffa336da2c6ec9afb54719073e60fa3c15cb389a4c99ec019f4379fb20daf4fda8010000006b4830450221009b9d3a08027122cfe4ef6c4441c0195894769b43ec61eaac4e7e1076e026ef5d02201712f0cca2095620b9fdce83f973ac85f08972783a31f7b4cbba43c4353cb7360121036735277b224ddc7920f16d7c6cabf0211040f4a5e81b36a3827c74036794092cffffffff7ccca5cff02ead368566a8870cf270388bee7b09cb0ca4a1ee6230cbe4d6ffaf000000006b483045022100ec7bd1f57fea91f583ba3947bf45b082cf33025ab483b022d84811cf5510b40a0220487a2fcebf11c51475c670d53d897ca08031fc70c6229c28174b3487b24aae0401210299ca0c40be22acba960563697c313ecd9387badae7e1fa3c1064e37a7d735d59ffffffff1c565544f06f6656f6c77a65200eebfc3b6a77d750d701946aee58c74a7e8eb0000000006a473044022060257a87b7f9e7d808deb9876eb3e75b5d7a8db5628e82ee5cacc640540edfe8022055569065d54f8d72af2ae1ffbd1ca02f3fa7d870914f4f074165d88e43f0ff6d0121029e34a1454b76891f35781bd4d0c64e1c9a087aad74bca12d8e442092b9e63ce5ffffffff4f95e6e6dced43fdd294c6ab576bb54eaa640f5c2c0b6c61b22490f3e6ab98b0000000006a47304402203acda0b173e5ff8cbff737d459045d01366bb9c20a6a79b20684506abf94fe0002203860f7d9a9d27ddd0e38a62e4cd21afabef503ac6f71175444a2da42881d5bba012103e29c408575c4b6c97832e7a1d094bdf8cd2d0e73f32e20b090dbb3e6805df42effffffffdd52214c3a990d3f71db0fb523532212e2f8a3cf5b82f421e4e33c2af3a984b9000000006a47304402206e4ed36fdfe09d835d439a8d64508ed092973f33b7645a47ccf488a318f08a8502201459ead3bb9322566cb07fc17fc14c170e9f82ba9d8fa937333e51f4179a2fcf012103440996db0ba2dd7e67ff90e0ad6539e05499dcb1ed77ab36bc112e0ce19e28feffffffff0169090801000000001976a91491bb3c4e8e48392dd2a134aae22c3471842902d788ac00000000", "vin": [{"sequence": 4294967295, "scriptSig": {"hex": "483045022100df0904fd504e89f1f28456556e440dc1ce6401a1609fb4347846e9765fb74dbf022014be2ceb0e3dd74addd66086935b76b6b06ec51df8bfc49d433bfd9feb4af80b012103aa6b8af3885ab5b8b66371782a97897b0117d4abb449a0d1d7db03b691221119", "asm": "3045022100df0904fd504e89f1f28456556e440dc1ce6401a1609fb4347846e9765fb74dbf022014be2ceb0e3dd74addd66086935b76b6b06ec51df8bfc49d433bfd9feb4af80b[ALL] 03aa6b8af3885ab5b8b66371782a97897b0117d4abb449a0d1d7db03b691221119"}, "vout": 0, "txid": "00ffc96d0d0321d93321d26704f8964556b267ad289646c722ede7b282659761"}, {"sequence": 4294967295, "scriptSig": {"hex": "47304402200600f76f542d33db8716ef933b3d0f264d91c1affb1fb9ec5c8761606ebbb0ec02204e318fab35313538cd0d16040a0d9f1ac1310948c397387f3eafda25d7292e8d012102a18be0e811d8748e0c66d4f0949facea946eabb4a78ed0a5e759b99c3a5904bc", "asm": "304402200600f76f542d33db8716ef933b3d0f264d91c1affb1fb9ec5c8761606ebbb0ec02204e318fab35313538cd0d16040a0d9f1ac1310948c397387f3eafda25d7292e8d[ALL] 02a18be0e811d8748e0c66d4f0949facea946eabb4a78ed0a5e759b99c3a5904bc"}, "vout": 0, "txid": "3d07f240847a06c084af809e86e1a2d0e15da7204db55aa386600539dbe6e0d7"}, {"sequence": 4294967295, "scriptSig": {"hex": "47304402203649cb92fbb5d4778cc09f9e290306a2669b7f4c7ddf8245808cf61e1d59b9c602202549bbf9dde068f71b8916aa75203c96a5b2da2e48f0784e848338eb4f1e77e201210226699e3588a201e9e633cf070d0ae133b2d164704d761a9ae4d8611076e956c4", "asm": "304402203649cb92fbb5d4778cc09f9e290306a2669b7f4c7ddf8245808cf61e1d59b9c602202549bbf9dde068f71b8916aa75203c96a5b2da2e48f0784e848338eb4f1e77e2[ALL] 0226699e3588a201e9e633cf070d0ae133b2d164704d761a9ae4d8611076e956c4"}, "vout": 0, "txid": "3f6ea024a74cdefcf7975b0359cebc1c707272a1073bd4ad3150817ce670d88c"}, {"sequence": 4294967295, "scriptSig": {"hex": "473044022076bf743f859d691f803c0af31d2e0ca5b251bbe60e7f1a2c3095c52f76c294d102207c7811010fb5931961f930ed3631515d64ddefce00dfe3a4a8e355bb21c740580121039645c832136d700f6bb41f63295f5b4f6a524eb2536d706dfbe37799ed48b87d", "asm": "3044022076bf743f859d691f803c0af31d2e0ca5b251bbe60e7f1a2c3095c52f76c294d102207c7811010fb5931961f930ed3631515d64ddefce00dfe3a4a8e355bb21c74058[ALL] 039645c832136d700f6bb41f63295f5b4f6a524eb2536d706dfbe37799ed48b87d"}, "vout": 0, "txid": "5cf8570dd91a1b2b823211024a04433081714f2b5ed236308e6942144270ac1d"}, {"sequence": 4294967295, "scriptSig": {"hex": "4830450221008058040efdb466e99451d8865970cfd3af23cc30baa3d3c1d54ef30afe0f9653022026801dfb31b423aac1ad7b840686f07cd3e8cb0fa0f1e85a570aaac8eeef30c901210295f11e9f525b7cb0fc32a0b65bd973832f236abaf2cadc9ee7561b6f7dd0c3a5", "asm": "30450221008058040efdb466e99451d8865970cfd3af23cc30baa3d3c1d54ef30afe0f9653022026801dfb31b423aac1ad7b840686f07cd3e8cb0fa0f1e85a570aaac8eeef30c9[ALL] 0295f11e9f525b7cb0fc32a0b65bd973832f236abaf2cadc9ee7561b6f7dd0c3a5"}, "vout": 0, "txid": "828a0cb1879adacde6956245be99e02e4d2cb4a1c280a405c560d7bf810e4200"}, {"sequence": 4294967295, "scriptSig": {"hex": "473044022014c38bca6acf3cf522c507d86c525bce9ddc67b530ed76b12ce410e9e187ab7f02200671abf22a3513927a29e019326f5537b6fa0d2896d9da5c9fd1d3f7aa4588ad01210300e6767ec53e17ef396053ea7c5316b9e989af360866f82cb7d1f449f28110d0", "asm": "3044022014c38bca6acf3cf522c507d86c525bce9ddc67b530ed76b12ce410e9e187ab7f02200671abf22a3513927a29e019326f5537b6fa0d2896d9da5c9fd1d3f7aa4588ad[ALL] 0300e6767ec53e17ef396053ea7c5316b9e989af360866f82cb7d1f449f28110d0"}, "vout": 0, "txid": "9662ecabd293167a3a4aeae02f31d6c68c47bcef10739918f0279d96c0e31fa2"}, {"sequence": 4294967295, "scriptSig": {"hex": "47304402201827eda0c52b77e7e762fecd5b14068dfe7c5c5bc2d115773daa0acdd33a407e02204b260ca5316e8a3d951a647c3eab16f1723daa4de495ea95f5e88b16d3c1b59b012103db784350392cf87d71b38a53f3cfcaa0b2abe145f778cfa113d374e073ea5f85", "asm": "304402201827eda0c52b77e7e762fecd5b14068dfe7c5c5bc2d115773daa0acdd33a407e02204b260ca5316e8a3d951a647c3eab16f1723daa4de495ea95f5e88b16d3c1b59b[ALL] 03db784350392cf87d71b38a53f3cfcaa0b2abe145f778cfa113d374e073ea5f85"}, "vout": 1, "txid": "a4243edf1adcfa528ed06224c2bfa9fae4ef5f0b4c6a94659557abdabf2bb596"}, {"sequence": 4294967295, "scriptSig": {"hex": "4830450221009b9d3a08027122cfe4ef6c4441c0195894769b43ec61eaac4e7e1076e026ef5d02201712f0cca2095620b9fdce83f973ac85f08972783a31f7b4cbba43c4353cb7360121036735277b224ddc7920f16d7c6cabf0211040f4a5e81b36a3827c74036794092c", "asm": "30450221009b9d3a08027122cfe4ef6c4441c0195894769b43ec61eaac4e7e1076e026ef5d02201712f0cca2095620b9fdce83f973ac85f08972783a31f7b4cbba43c4353cb736[ALL] 036735277b224ddc7920f16d7c6cabf0211040f4a5e81b36a3827c74036794092c"}, "vout": 1, "txid": "a8fdf4da20fb79439f01ec994c9a38cb153cfa603e071947b5afc96e2cda36a3"}, {"sequence": 4294967295, "scriptSig": {"hex": "483045022100ec7bd1f57fea91f583ba3947bf45b082cf33025ab483b022d84811cf5510b40a0220487a2fcebf11c51475c670d53d897ca08031fc70c6229c28174b3487b24aae0401210299ca0c40be22acba960563697c313ecd9387badae7e1fa3c1064e37a7d735d59", "asm": "3045022100ec7bd1f57fea91f583ba3947bf45b082cf33025ab483b022d84811cf5510b40a0220487a2fcebf11c51475c670d53d897ca08031fc70c6229c28174b3487b24aae04[ALL] 0299ca0c40be22acba960563697c313ecd9387badae7e1fa3c1064e37a7d735d59"}, "vout": 0, "txid": "afffd6e4cb3062eea1a40ccb097bee8b3870f20c87a8668536ad2ef0cfa5cc7c"}, {"sequence": 4294967295, "scriptSig": {"hex": "473044022060257a87b7f9e7d808deb9876eb3e75b5d7a8db5628e82ee5cacc640540edfe8022055569065d54f8d72af2ae1ffbd1ca02f3fa7d870914f4f074165d88e43f0ff6d0121029e34a1454b76891f35781bd4d0c64e1c9a087aad74bca12d8e442092b9e63ce5", "asm": "3044022060257a87b7f9e7d808deb9876eb3e75b5d7a8db5628e82ee5cacc640540edfe8022055569065d54f8d72af2ae1ffbd1ca02f3fa7d870914f4f074165d88e43f0ff6d[ALL] 029e34a1454b76891f35781bd4d0c64e1c9a087aad74bca12d8e442092b9e63ce5"}, "vout": 0, "txid": "b08e7e4ac758ee6a9401d750d7776a3bfceb0e20657ac7f656666ff04455561c"}, {"sequence": 4294967295, "scriptSig": {"hex": "47304402203acda0b173e5ff8cbff737d459045d01366bb9c20a6a79b20684506abf94fe0002203860f7d9a9d27ddd0e38a62e4cd21afabef503ac6f71175444a2da42881d5bba012103e29c408575c4b6c97832e7a1d094bdf8cd2d0e73f32e20b090dbb3e6805df42e", "asm": "304402203acda0b173e5ff8cbff737d459045d01366bb9c20a6a79b20684506abf94fe0002203860f7d9a9d27ddd0e38a62e4cd21afabef503ac6f71175444a2da42881d5bba[ALL] 03e29c408575c4b6c97832e7a1d094bdf8cd2d0e73f32e20b090dbb3e6805df42e"}, "vout": 0, "txid": "b098abe6f39024b2616c0b2c5c0f64aa4eb56b57abc694d2fd43eddce6e6954f"}, {"sequence": 4294967295, "scriptSig": {"hex": "47304402206e4ed36fdfe09d835d439a8d64508ed092973f33b7645a47ccf488a318f08a8502201459ead3bb9322566cb07fc17fc14c170e9f82ba9d8fa937333e51f4179a2fcf012103440996db0ba2dd7e67ff90e0ad6539e05499dcb1ed77ab36bc112e0ce19e28fe", "asm": "304402206e4ed36fdfe09d835d439a8d64508ed092973f33b7645a47ccf488a318f08a8502201459ead3bb9322566cb07fc17fc14c170e9f82ba9d8fa937333e51f4179a2fcf[ALL] 03440996db0ba2dd7e67ff90e0ad6539e05499dcb1ed77ab36bc112e0ce19e28fe"}, "vout": 0, "txid": "b984a9f32a3ce3e421f4825bcfa3f8e212225323b50fdb713f0d993a4c2152dd"}], "txid": "b763db8e27ba66197006ca967533847b67ca8bc68c86581e5c216ab0b00d8557", "blocktime": 1537871767, "version": 1, "confirmations": 11495, "time": 1537871767, "locktime": 0, "vsize": 1812, "size": 1812}