{"hash": "b766f3ca603233beefb1a59dfce9fd4c153cabc7529e46a6e4a6897d4ef694a6", "blockhash": "0000000000000000000dcc0f55137456b1a82d3642486a52398922ac4d620174", "vout": [{"scriptPubKey": {"type": "nulldata", "hex": "6a4c50000077720001a8d80c7dcecb5eb2c680378986aeaeacb577c031fc3a016b46dc7dc7d0967f080169445d6a745281f4863d1dda005baa090d0613e075cadb814cbc9a9526289ac0f6612cd74e33776ee4", "asm": "OP_RETURN 000077720001a8d80c7dcecb5eb2c680378986aeaeacb577c031fc3a016b46dc7dc7d0967f080169445d6a745281f4863d1dda005baa090d0613e075cadb814cbc9a9526289ac0f6612cd74e33776ee4"}, "value": 0.0, "n": 0}, {"scriptPubKey": {"reqSigs": 1, "hex": "76a914d426af27618402584c229c45d463131af630085a88ac", "addresses": ["1LLkbVbW1oujofrijqyMLHU1AW9yMsvv9u"], "asm": "OP_DUP OP_HASH160 d426af27618402584c229c45d463131af630085a OP_EQUALVERIFY OP_CHECKSIG", "type": "pubkeyhash"}, "value": 0.01421404, "n": 1}], "hex": "0100000001177d2dd8d8061ffdcb98631f1991b6ddd8d8da5a45e82fa08145c213bd7e0e2f010000006b483045022100c6bdd02489761f13f03e0374d070b52e75a1339652acc03eee57b2f23038a62802202d06dbe73e4cf91705eea29d3279b1b71534dc828ad4308aab5f5cf43e27131e012102bea1070c6bf5e7c1838099ddeb5ae5ba53765a0646c9c751dc32fc8086eae209ffffffff020000000000000000536a4c50000077720001a8d80c7dcecb5eb2c680378986aeaeacb577c031fc3a016b46dc7dc7d0967f080169445d6a745281f4863d1dda005baa090d0613e075cadb814cbc9a9526289ac0f6612cd74e33776ee45cb01500000000001976a914d426af27618402584c229c45d463131af630085a88ac00000000", "vin": [{"sequence": 4294967295, "scriptSig": {"hex": "483045022100c6bdd02489761f13f03e0374d070b52e75a1339652acc03eee57b2f23038a62802202d06dbe73e4cf91705eea29d3279b1b71534dc828ad4308aab5f5cf43e27131e012102bea1070c6bf5e7c1838099ddeb5ae5ba53765a0646c9c751dc32fc8086eae209", "asm": "3045022100c6bdd02489761f13f03e0374d070b52e75a1339652acc03eee57b2f23038a62802202d06dbe73e4cf91705eea29d3279b1b71534dc828ad4308aab5f5cf43e27131e[ALL] 02bea1070c6bf5e7c1838099ddeb5ae5ba53765a0646c9c751dc32fc8086eae209"}, "vout": 1, "txid": "2f0e7ebd13c24581a02fe8455adad8d8ddb691191f6398cbfd1f06d8d82d7d17"}], "txid": "b766f3ca603233beefb1a59dfce9fd4c153cabc7529e46a6e4a6897d4ef694a6", "blocktime": 1537870268, "version": 1, "confirmations": 11518, "time": 1537870268, "locktime": 0, "vsize": 284, "size": 284}