{"hash": "b7690fd100939ecd8f75242c8b6c92a84f5dc7d8511feb191b8e322ef4bbd836", "blockhash": "00000000000000000018f53835495a110e01622372bf6ae95dc86f2b0ab887b0", "vout": [{"scriptPubKey": {"reqSigs": 1, "hex": "76a91455de51ebf4b7d1ca3871aa3526d005c2858393c788ac", "addresses": ["18q2mNVCqhmpPoQsdnDjF8RQCGpTLUAKa6"], "asm": "OP_DUP OP_HASH160 55de51ebf4b7d1ca3871aa3526d005c2858393c7 OP_EQUALVERIFY OP_CHECKSIG", "type": "pubkeyhash"}, "value": 0.22758344, "n": 0}, {"scriptPubKey": {"reqSigs": 1, "hex": "a91469f3741fcab3ff45421653f9bc56a694f542b6a187", "addresses": ["3BMEX92wnPasmjq45WjZsEaxGbcRTV9tTX"], "asm": "OP_HASH160 69f3741fcab3ff45421653f9bc56a694f542b6a1 OP_EQUAL", "type": "scripthash"}, "value": 0.4, "n": 1}], "hex": "010000000225b627bbc646e7d9820126153a338a554def228c2b230953b006c2a494937770000000006b483045022100e30fc6aa1eaafb2e0df947e8646f18f783aecaa7dcbdd21d771762a83e409e8602205c2ff7dd480db9189b68f05d8c7335b22738d16baf2ba33f34e204afc7b93977012103a3e117f35fc3036924611ae82a7e1e6564987667129750d308977f2073c3eb4bffffffffe54f4e83e08bdb2872e00ec0db65dea05223bf64cf0d858e1284440ce3883d93010000006a47304402200d667df48fa101f9e178529892512c14e0f4e4d1c554b1a5f77e8d36644eff3102202a93b3c38599adbcb013bb8f75213e8a58e5c1866c1fa449bb0df393a4e8cf7f012103d5df56444798736d0aced8ba8fd4e410cf53ecdfd19bca36f79769e40a6959efffffffff02c8435b01000000001976a91455de51ebf4b7d1ca3871aa3526d005c2858393c788ac005a62020000000017a91469f3741fcab3ff45421653f9bc56a694f542b6a18700000000", "vin": [{"sequence": 4294967295, "scriptSig": {"hex": "483045022100e30fc6aa1eaafb2e0df947e8646f18f783aecaa7dcbdd21d771762a83e409e8602205c2ff7dd480db9189b68f05d8c7335b22738d16baf2ba33f34e204afc7b93977012103a3e117f35fc3036924611ae82a7e1e6564987667129750d308977f2073c3eb4b", "asm": "3045022100e30fc6aa1eaafb2e0df947e8646f18f783aecaa7dcbdd21d771762a83e409e8602205c2ff7dd480db9189b68f05d8c7335b22738d16baf2ba33f34e204afc7b93977[ALL] 03a3e117f35fc3036924611ae82a7e1e6564987667129750d308977f2073c3eb4b"}, "vout": 0, "txid": "70779394a4c206b05309232b8c22ef4d558a333a15260182d9e746c6bb27b625"}, {"sequence": 4294967295, "scriptSig": {"hex": "47304402200d667df48fa101f9e178529892512c14e0f4e4d1c554b1a5f77e8d36644eff3102202a93b3c38599adbcb013bb8f75213e8a58e5c1866c1fa449bb0df393a4e8cf7f012103d5df56444798736d0aced8ba8fd4e410cf53ecdfd19bca36f79769e40a6959ef", "asm": "304402200d667df48fa101f9e178529892512c14e0f4e4d1c554b1a5f77e8d36644eff3102202a93b3c38599adbcb013bb8f75213e8a58e5c1866c1fa449bb0df393a4e8cf7f[ALL] 03d5df56444798736d0aced8ba8fd4e410cf53ecdfd19bca36f79769e40a6959ef"}, "vout": 1, "txid": "933d88e30c4484128e850dcf64bf2352a0de65dbc00ee07228db8be0834e4fe5"}], "txid": "b7690fd100939ecd8f75242c8b6c92a84f5dc7d8511feb191b8e322ef4bbd836", "blocktime": 1537870928, "version": 1, "confirmations": 11514, "time": 1537870928, "locktime": 0, "vsize": 371, "size": 371}