{"hash": "042aa6be69947efbe02eef5c60ebd84f977e300014920d433c6b100ddce23db6", "blockhash": "0000000000000000001e0dab787dd257d1dbfcb92a98c2207d5e1078be1f4165", "vout": [{"scriptPubKey": {"reqSigs": 1, "hex": "a914718463b05b57debf3963c684bc11e7510863ebf987", "addresses": ["3C3EsoEsDfNwgZWiLas9e5t3zWVa1y4YSJ"], "asm": "OP_HASH160 718463b05b57debf3963c684bc11e7510863ebf9 OP_EQUAL", "type": "scripthash"}, "value": 0.09516, "n": 0}, {"scriptPubKey": {"reqSigs": 1, "hex": "00146b8894a2b0b9eeefe3d3ac94a959ff64c6461e9e", "addresses": ["bc1qdwyffg4sh8hwlc7n4j22jk0lvnryv8573xl4uj"], "asm": "0 6b8894a2b0b9eeefe3d3ac94a959ff64c6461e9e", "type": "witness_v0_keyhash"}, "value": 0.00070944, "n": 1}], "hex": "010000000001014280b3244ee3188680278f52f222c3a72776a8f833b0d301566dec7deb770ee90000000017160014175e1fb98e798dad3edffa19b94530ecd28cfef8ffffffff02e03391000000000017a914718463b05b57debf3963c684bc11e7510863ebf98720150100000000001600146b8894a2b0b9eeefe3d3ac94a959ff64c6461e9e02483045022100dd1829b0e90643a900b4923b613013d566f2ac07b6291dd546597682306c223f02207008c549e0052a4ca6fe181c8eb0a9c3c4c2413105855ac96b636421d219d41c0121034dfaa32965e35b939b7738471226c0cb76c9786d090b1277340e8c133bd6900e00000000", "vin": [{"txinwitness": ["3045022100dd1829b0e90643a900b4923b613013d566f2ac07b6291dd546597682306c223f02207008c549e0052a4ca6fe181c8eb0a9c3c4c2413105855ac96b636421d219d41c01", "034dfaa32965e35b939b7738471226c0cb76c9786d090b1277340e8c133bd6900e"], "sequence": 4294967295, "scriptSig": {"hex": "160014175e1fb98e798dad3edffa19b94530ecd28cfef8", "asm": "0014175e1fb98e798dad3edffa19b94530ecd28cfef8"}, "vout": 0, "txid": "e90e77eb7dec6d5601d3b033f8a87627a7c322f2528f27808618e34e24b38042"}], "txid": "b76b10f5edc3763b858df19884de5c493faa533b0b87471c155b7d3bd6d1c5db", "blocktime": 1537872475, "version": 1, "confirmations": 11486, "time": 1537872475, "locktime": 0, "vsize": 165, "size": 247}