{"hash": "b76b173808a1a03b808119243e36dddd821328e103194a1481740fd5a7e7c7fb", "blockhash": "0000000000000000000e13cef7c366c0283d82e591d1acd082e914b08063cdf1", "vout": [{"scriptPubKey": {"reqSigs": 1, "hex": "76a91443a1dd023301e463dc9e6d95df5cffb7a5fc838788ac", "addresses": ["17AcBK9eQUmuUqmmEKBP4bRZsGbwiGZXH3"], "asm": "OP_DUP OP_HASH160 43a1dd023301e463dc9e6d95df5cffb7a5fc8387 OP_EQUALVERIFY OP_CHECKSIG", "type": "pubkeyhash"}, "value": 0.005404, "n": 0}, {"scriptPubKey": {"reqSigs": 1, "hex": "a91445ef7bc855a53b3b665b076b7f1fcdd9169cbedf87", "addresses": ["384oSPQYF1iTsbJ41jkE4PC5yFeMaVkySr"], "asm": "OP_HASH160 45ef7bc855a53b3b665b076b7f1fcdd9169cbedf OP_EQUAL", "type": "scripthash"}, "value": 0.019, "n": 1}], "hex": "01000000022f42c7d462d0c04150ede300baebf4b04a18847020cea0d527cbbb48cc5f450e000000006a47304402202fc51ec9aabab79d44af7c2cd5fcf5aeda34ecf99810d7d803464a602c8411890220254e10eef5c6f68307a2ffe7f58ae3bd6f1c466314be6cf3d5ef27de139714d101210205470ac9664f0dec04eac21e7f99b770595c60b999af72096aa63ce94f136beaffffffff939fb5549b279985b15eaf4115d28b80c9226a06eb8ab652bd1ebfa5e3820c79010000006b483045022100a14006b510e244409282b86df794a6a0781145d7aa1eef8fff838f87b65eeca5022020ae7585e66dc00b62003c0b744cd635933224552ebc796f8e8d0f18c0e5baaf0121024d36ca36fa001b2623cae1c49b685a9b5df7590f4e81ca7d51b88c343fe85cfaffffffff02f03e0800000000001976a91443a1dd023301e463dc9e6d95df5cffb7a5fc838788ace0fd1c000000000017a91445ef7bc855a53b3b665b076b7f1fcdd9169cbedf8700000000", "vin": [{"sequence": 4294967295, "scriptSig": {"hex": "47304402202fc51ec9aabab79d44af7c2cd5fcf5aeda34ecf99810d7d803464a602c8411890220254e10eef5c6f68307a2ffe7f58ae3bd6f1c466314be6cf3d5ef27de139714d101210205470ac9664f0dec04eac21e7f99b770595c60b999af72096aa63ce94f136bea", "asm": "304402202fc51ec9aabab79d44af7c2cd5fcf5aeda34ecf99810d7d803464a602c8411890220254e10eef5c6f68307a2ffe7f58ae3bd6f1c466314be6cf3d5ef27de139714d1[ALL] 0205470ac9664f0dec04eac21e7f99b770595c60b999af72096aa63ce94f136bea"}, "vout": 0, "txid": "0e455fcc48bbcb27d5a0ce207084184ab0f4ebba00e3ed5041c0d062d4c7422f"}, {"sequence": 4294967295, "scriptSig": {"hex": "483045022100a14006b510e244409282b86df794a6a0781145d7aa1eef8fff838f87b65eeca5022020ae7585e66dc00b62003c0b744cd635933224552ebc796f8e8d0f18c0e5baaf0121024d36ca36fa001b2623cae1c49b685a9b5df7590f4e81ca7d51b88c343fe85cfa", "asm": "3045022100a14006b510e244409282b86df794a6a0781145d7aa1eef8fff838f87b65eeca5022020ae7585e66dc00b62003c0b744cd635933224552ebc796f8e8d0f18c0e5baaf[ALL] 024d36ca36fa001b2623cae1c49b685a9b5df7590f4e81ca7d51b88c343fe85cfa"}, "vout": 1, "txid": "790c82e3a5bf1ebd52b68aeb066a22c9808bd21541af5eb18599279b54b59f93"}], "txid": "b76b173808a1a03b808119243e36dddd821328e103194a1481740fd5a7e7c7fb", "blocktime": 1537871767, "version": 1, "confirmations": 11490, "time": 1537871767, "locktime": 0, "vsize": 371, "size": 371}