{"hash": "b76eded0a593a4c17c8567a543efa1852fab5e06f8ff26ee3d02feaf5687e335", "blockhash": "0000000000000000000dcc0f55137456b1a82d3642486a52398922ac4d620174", "vout": [{"scriptPubKey": {"reqSigs": 1, "hex": "76a91432934c434da4a2545c884d60da1ed87804f4dd0e88ac", "addresses": ["15cRF2h8gmQ7pUxmZm9knRu3UiTMmBK3cJ"], "asm": "OP_DUP OP_HASH160 32934c434da4a2545c884d60da1ed87804f4dd0e OP_EQUALVERIFY OP_CHECKSIG", "type": "pubkeyhash"}, "value": 0.78, "n": 0}, {"scriptPubKey": {"reqSigs": 1, "hex": "76a914cc6dbce30b645acf3d8205acccac0a34e60adef688ac", "addresses": ["1KdvJrRfTyNaSe12SKARtrC49vaGvnsQxQ"], "asm": "OP_DUP OP_HASH160 cc6dbce30b645acf3d8205acccac0a34e60adef6 OP_EQUALVERIFY OP_CHECKSIG", "type": "pubkeyhash"}, "value": 0.25972, "n": 1}], "hex": "0100000001802186c3250da1d7f4605b591c32939cfc13c9659b8c38b5f02d9716bc4832c0010000006a473044022079838178646c983542af754f91ef916f92f2b7ff5b54df7807959cd914c5ee7402204bd064c7665a9b1614ef2b1a301b3b4e347e01af6a4f1a025f833332ece9b973012103ab2616bb7a472ff68f0c044733459f44ef0c821494c55c84d286333b72b99eabffffffff02802fa604000000001976a91432934c434da4a2545c884d60da1ed87804f4dd0e88ac204d8c01000000001976a914cc6dbce30b645acf3d8205acccac0a34e60adef688ac00000000", "vin": [{"sequence": 4294967295, "scriptSig": {"hex": "473044022079838178646c983542af754f91ef916f92f2b7ff5b54df7807959cd914c5ee7402204bd064c7665a9b1614ef2b1a301b3b4e347e01af6a4f1a025f833332ece9b973012103ab2616bb7a472ff68f0c044733459f44ef0c821494c55c84d286333b72b99eab", "asm": "3044022079838178646c983542af754f91ef916f92f2b7ff5b54df7807959cd914c5ee7402204bd064c7665a9b1614ef2b1a301b3b4e347e01af6a4f1a025f833332ece9b973[ALL] 03ab2616bb7a472ff68f0c044733459f44ef0c821494c55c84d286333b72b99eab"}, "vout": 1, "txid": "c03248bc16972df0b5388c9b65c913fc9c93321c595b60f4d7a10d25c3862180"}], "txid": "b76eded0a593a4c17c8567a543efa1852fab5e06f8ff26ee3d02feaf5687e335", "blocktime": 1537870268, "version": 1, "confirmations": 11516, "time": 1537870268, "locktime": 0, "vsize": 225, "size": 225}