{"hash": "b7700605eaf6eaac2e01cfc8454218d3bef8115d2185e4ba28253606259b84d5", "blockhash": "0000000000000000001f76057863aec43deb6fa401d9628bb513d65a8098bfab", "vout": [{"scriptPubKey": {"reqSigs": 1, "hex": "76a914aa5a5d004e02301cc6691d87953b2182a25a9ac788ac", "addresses": ["1GXk8AR8fMDbX9LtBWaetyqmWSYXxofdin"], "asm": "OP_DUP OP_HASH160 aa5a5d004e02301cc6691d87953b2182a25a9ac7 OP_EQUALVERIFY OP_CHECKSIG", "type": "pubkeyhash"}, "value": 0.00038461, "n": 0}, {"scriptPubKey": {"reqSigs": 1, "hex": "76a914d0a272f53c65422cee732164e188b8f5e6b4ecde88ac", "addresses": ["1L2AA4RBJwhjo1Z2T6HD3nTvyNz8NaJ3E2"], "asm": "OP_DUP OP_HASH160 d0a272f53c65422cee732164e188b8f5e6b4ecde OP_EQUALVERIFY OP_CHECKSIG", "type": "pubkeyhash"}, "value": 0.00228776, "n": 1}], "hex": "0200000001b7deaea4c3b73fa0ab092bb24a063adbdb87966ab5ec49377f140b7403d56810010000006a473044022059414e32d9635415b84540bd6bf3b0b7842bc1e5d3f7cd965677effbd604391f02203327c5133fc80ea814a6ed80c6ed2cd3299b240f559d9f6a608491361268b4c0012103d99605a5841c30d04e62cc1293f9b04de43563cb546f33a2db7f8ed808c79aa6ffffffff023d960000000000001976a914aa5a5d004e02301cc6691d87953b2182a25a9ac788aca87d0300000000001976a914d0a272f53c65422cee732164e188b8f5e6b4ecde88ac00000000", "vin": [{"sequence": 4294967295, "scriptSig": {"hex": "473044022059414e32d9635415b84540bd6bf3b0b7842bc1e5d3f7cd965677effbd604391f02203327c5133fc80ea814a6ed80c6ed2cd3299b240f559d9f6a608491361268b4c0012103d99605a5841c30d04e62cc1293f9b04de43563cb546f33a2db7f8ed808c79aa6", "asm": "3044022059414e32d9635415b84540bd6bf3b0b7842bc1e5d3f7cd965677effbd604391f02203327c5133fc80ea814a6ed80c6ed2cd3299b240f559d9f6a608491361268b4c0[ALL] 03d99605a5841c30d04e62cc1293f9b04de43563cb546f33a2db7f8ed808c79aa6"}, "vout": 1, "txid": "1068d503740b147f3749ecb56a9687dbdb3a064ab22b09aba03fb7c3a4aedeb7"}], "txid": "b7700605eaf6eaac2e01cfc8454218d3bef8115d2185e4ba28253606259b84d5", "blocktime": 1537873891, "version": 2, "confirmations": 11478, "time": 1537873891, "locktime": 0, "vsize": 225, "size": 225}