{"hash": "b773ca30c4a3d2813c3aeb330a261340660635c7e53d0bb107199996c48306dd", "blockhash": "00000000000000000017f5eb5941039fbcee6240d03bc1f2f8e35350df66a1d8", "vout": [{"scriptPubKey": {"reqSigs": 1, "hex": "76a914ec3103cc1ccbcb7c6be5ae4603011677cd89337388ac", "addresses": ["1NXsBtB3yemjW1jgzmnx1FSLqtfG6qiTkv"], "asm": "OP_DUP OP_HASH160 ec3103cc1ccbcb7c6be5ae4603011677cd893373 OP_EQUALVERIFY OP_CHECKSIG", "type": "pubkeyhash"}, "value": 2.377e-05, "n": 0}, {"scriptPubKey": {"reqSigs": 1, "hex": "76a914ab2738ef4f960990710f4d5eef442854114888ae88ac", "addresses": ["1GbyY2MBZyRFiLZqvHYnsU9oBiqusxaeQG"], "asm": "OP_DUP OP_HASH160 ab2738ef4f960990710f4d5eef442854114888ae OP_EQUALVERIFY OP_CHECKSIG", "type": "pubkeyhash"}, "value": 1.9998, "n": 1}], "hex": "010000000c1ea9323cbb6047bcaf06af22eb1603545cbdb3148d3a4440b59fa91b7e085d03000000006a47304402201d0de7665ea02d25ee2deebad81d32066cde79f2e28a55092337c675840e463102205689dd375b3d07fe451fe64f65df2cd1ca024ae9c43227ef2a5dd2195e917bce0121030e88252f51c47b7ca48f11f5efe76c9dd2429562b1ef2d4a5d62aef4ff77527fffffffff68a00f7ffd988a032b89648ac6e4046de2234524c1d206f2440e6e5756f28326010000006b483045022100e430e7626cdb7a443429970e14ed2c464c524960524007e6dcd48eb24fa7c8b7022079a44005ed83762e5ac26113536b371f67b626e1ae725de293fb76a17d22ebc40121030e88252f51c47b7ca48f11f5efe76c9dd2429562b1ef2d4a5d62aef4ff77527fffffffff11890093a0c5cea3807a6e562892d361f4260dc07d01295094733b412a6fe92a000000006b483045022100f6061b86baab7d4e66e3d945d6f156aeec739379509d6b50744d177c2e494bac02206b67ad41c877855986168e771dcf584bedefeb5cc62992a5675f9098c86871350121030e88252f51c47b7ca48f11f5efe76c9dd2429562b1ef2d4a5d62aef4ff77527ffffffffff4161ea868ba5c9c9c7cab57dec1cd586f7ba370ab2c8e8179d03d012889f633010000006b483045022100bb3e3865aad6c885434c5332e9fa32623b25daceaa315190ecc18c047e77650102201a90ac6fe22ccbd67fbdad646c8b2641ccc97843cdd543584ada886341d4dd200121030e88252f51c47b7ca48f11f5efe76c9dd2429562b1ef2d4a5d62aef4ff77527fffffffff81b4bc6f5499014c5483336cde85fdab00c7199f39c72cbfc4f1e6670ebde758000000006a47304402206f73a89b182809c3e389774fe443743a4589731e5d7515c9a63bffcc4638c36b022065dad65e56f01911288f6ad0a34df868b4f36eebe771e32b9582fdbb02319f590121030e88252f51c47b7ca48f11f5efe76c9dd2429562b1ef2d4a5d62aef4ff77527fffffffff23ad8630bc03b220472f1f6492b041520b5a9308d2342e588ad5d0fd6ee48c79010000006b483045022100dfabbaeead66848099e702d6dc6301729457973d2bc07b3c1cf6b76e93c0347802200d05143f11565dc3cd6a62d06640f493fe73b1d9f3fa38892cd5bd4e680abe160121030e88252f51c47b7ca48f11f5efe76c9dd2429562b1ef2d4a5d62aef4ff77527fffffffff42ac46bbdde2f80bd373cd45b99117cf6a18ac85797915dfb8805d1ba523149b010000006a4730440220327a0119a50894d066f167951b502fc546403cb01db6efaca160bd8b2271e706022067e375935a2f2add7ac263cd20e25b204f9b4f300e35e54dafc30756bd9759c50121030e88252f51c47b7ca48f11f5efe76c9dd2429562b1ef2d4a5d62aef4ff77527fffffffff5efdc3d5810cd040c9347019a53d79e524efe58cdc78514720c6d0120339d8a3000000006a473044022028f551b5c3fb26ea5ccd2dba5550f2f201ad2d9fcbaf6c67b3987a95ec82f89c022060b35dcfb53e8edd85c8cf65f82126132519698f38a601edc84c56bcb8e221790121030e88252f51c47b7ca48f11f5efe76c9dd2429562b1ef2d4a5d62aef4ff77527fffffffffc4c323a18f26aa556d94884c4435c4d4604e7f474b04face8c147200cf2f67b5000000006b483045022100fde4fc8597d6d0061214634dcfdac4b5590e7261bd1cc802a68bdf52ffd9a74a0220675d6b82e22b735c801bc3b99543853342a2ff111d0ca66009983d1b86e01b990121030e88252f51c47b7ca48f11f5efe76c9dd2429562b1ef2d4a5d62aef4ff77527fffffffffcbed5cc681a90d7edd0fbe87787c30ab373b3298a6858f39b77644b774b1d7ca010000006b483045022100a1339c6e25b1e31f4ed3d8ab3a77f5ee84da9ec2153d194f516b7b6803e2653b02204d04be7e114f4c00d03c707e523094e100f05be7f95110d2dbefbb6a83f2a3330121030e88252f51c47b7ca48f11f5efe76c9dd2429562b1ef2d4a5d62aef4ff77527fffffffffa3245f19b42609928dd72abdf8829a2ddce7f689d4c687234aa2d64bbbfc6cd6010000006b483045022100b4db8eb9584e5f8f11091a4e461fd71fe4b8ce435794177b377ea6ba0b248eba02204ce9e7fc5edc4d194cda98ff942e3ce6bf7454891a1a83582267cb21e6abf5c00121030e88252f51c47b7ca48f11f5efe76c9dd2429562b1ef2d4a5d62aef4ff77527fffffffffcc58997104a7925b35f00d71c4ec4648cd292e7cbc658992aa79313f94761bea000000006b483045022100cf9a10f7ac3a67a83b247521ef9ae342a37b43e4cffc00f883d622270d89f01302202ce8a6770567473e4f7dda55056870b1204cc65cfd400814005b91f00386d7400121030e88252f51c47b7ca48f11f5efe76c9dd2429562b1ef2d4a5d62aef4ff77527fffffffff0249090000000000001976a914ec3103cc1ccbcb7c6be5ae4603011677cd89337388ace073eb0b000000001976a914ab2738ef4f960990710f4d5eef442854114888ae88ac00000000", "vin": [{"sequence": 4294967295, "scriptSig": {"hex": "47304402201d0de7665ea02d25ee2deebad81d32066cde79f2e28a55092337c675840e463102205689dd375b3d07fe451fe64f65df2cd1ca024ae9c43227ef2a5dd2195e917bce0121030e88252f51c47b7ca48f11f5efe76c9dd2429562b1ef2d4a5d62aef4ff77527f", "asm": "304402201d0de7665ea02d25ee2deebad81d32066cde79f2e28a55092337c675840e463102205689dd375b3d07fe451fe64f65df2cd1ca024ae9c43227ef2a5dd2195e917bce[ALL] 030e88252f51c47b7ca48f11f5efe76c9dd2429562b1ef2d4a5d62aef4ff77527f"}, "vout": 0, "txid": "035d087e1ba99fb540443a8d14b3bd5c540316eb22af06afbc4760bb3c32a91e"}, {"sequence": 4294967295, "scriptSig": {"hex": "483045022100e430e7626cdb7a443429970e14ed2c464c524960524007e6dcd48eb24fa7c8b7022079a44005ed83762e5ac26113536b371f67b626e1ae725de293fb76a17d22ebc40121030e88252f51c47b7ca48f11f5efe76c9dd2429562b1ef2d4a5d62aef4ff77527f", "asm": "3045022100e430e7626cdb7a443429970e14ed2c464c524960524007e6dcd48eb24fa7c8b7022079a44005ed83762e5ac26113536b371f67b626e1ae725de293fb76a17d22ebc4[ALL] 030e88252f51c47b7ca48f11f5efe76c9dd2429562b1ef2d4a5d62aef4ff77527f"}, "vout": 1, "txid": "2683f256576e0e44f206d2c1244523e26d04e4c68a64892b038a98fd7f0fa068"}, {"sequence": 4294967295, "scriptSig": {"hex": "483045022100f6061b86baab7d4e66e3d945d6f156aeec739379509d6b50744d177c2e494bac02206b67ad41c877855986168e771dcf584bedefeb5cc62992a5675f9098c86871350121030e88252f51c47b7ca48f11f5efe76c9dd2429562b1ef2d4a5d62aef4ff77527f", "asm": "3045022100f6061b86baab7d4e66e3d945d6f156aeec739379509d6b50744d177c2e494bac02206b67ad41c877855986168e771dcf584bedefeb5cc62992a5675f9098c8687135[ALL] 030e88252f51c47b7ca48f11f5efe76c9dd2429562b1ef2d4a5d62aef4ff77527f"}, "vout": 0, "txid": "2ae96f2a413b73945029017dc00d26f461d39228566e7a80a3cec5a093008911"}, {"sequence": 4294967295, "scriptSig": {"hex": "483045022100bb3e3865aad6c885434c5332e9fa32623b25daceaa315190ecc18c047e77650102201a90ac6fe22ccbd67fbdad646c8b2641ccc97843cdd543584ada886341d4dd200121030e88252f51c47b7ca48f11f5efe76c9dd2429562b1ef2d4a5d62aef4ff77527f", "asm": "3045022100bb3e3865aad6c885434c5332e9fa32623b25daceaa315190ecc18c047e77650102201a90ac6fe22ccbd67fbdad646c8b2641ccc97843cdd543584ada886341d4dd20[ALL] 030e88252f51c47b7ca48f11f5efe76c9dd2429562b1ef2d4a5d62aef4ff77527f"}, "vout": 1, "txid": "33f68928013dd079818e2cab70a37b6f58cdc1de57ab7c9c9c5cba68a81e16f4"}, {"sequence": 4294967295, "scriptSig": {"hex": "47304402206f73a89b182809c3e389774fe443743a4589731e5d7515c9a63bffcc4638c36b022065dad65e56f01911288f6ad0a34df868b4f36eebe771e32b9582fdbb02319f590121030e88252f51c47b7ca48f11f5efe76c9dd2429562b1ef2d4a5d62aef4ff77527f", "asm": "304402206f73a89b182809c3e389774fe443743a4589731e5d7515c9a63bffcc4638c36b022065dad65e56f01911288f6ad0a34df868b4f36eebe771e32b9582fdbb02319f59[ALL] 030e88252f51c47b7ca48f11f5efe76c9dd2429562b1ef2d4a5d62aef4ff77527f"}, "vout": 0, "txid": "58e7bd0e67e6f1c4bf2cc7399f19c700abfd85de6c3383544c0199546fbcb481"}, {"sequence": 4294967295, "scriptSig": {"hex": "483045022100dfabbaeead66848099e702d6dc6301729457973d2bc07b3c1cf6b76e93c0347802200d05143f11565dc3cd6a62d06640f493fe73b1d9f3fa38892cd5bd4e680abe160121030e88252f51c47b7ca48f11f5efe76c9dd2429562b1ef2d4a5d62aef4ff77527f", "asm": "3045022100dfabbaeead66848099e702d6dc6301729457973d2bc07b3c1cf6b76e93c0347802200d05143f11565dc3cd6a62d06640f493fe73b1d9f3fa38892cd5bd4e680abe16[ALL] 030e88252f51c47b7ca48f11f5efe76c9dd2429562b1ef2d4a5d62aef4ff77527f"}, "vout": 1, "txid": "798ce46efdd0d58a582e34d208935a0b5241b092641f2f4720b203bc3086ad23"}, {"sequence": 4294967295, "scriptSig": {"hex": "4730440220327a0119a50894d066f167951b502fc546403cb01db6efaca160bd8b2271e706022067e375935a2f2add7ac263cd20e25b204f9b4f300e35e54dafc30756bd9759c50121030e88252f51c47b7ca48f11f5efe76c9dd2429562b1ef2d4a5d62aef4ff77527f", "asm": "30440220327a0119a50894d066f167951b502fc546403cb01db6efaca160bd8b2271e706022067e375935a2f2add7ac263cd20e25b204f9b4f300e35e54dafc30756bd9759c5[ALL] 030e88252f51c47b7ca48f11f5efe76c9dd2429562b1ef2d4a5d62aef4ff77527f"}, "vout": 1, "txid": "9b1423a51b5d80b8df15797985ac186acf1791b945cd73d30bf8e2ddbb46ac42"}, {"sequence": 4294967295, "scriptSig": {"hex": "473044022028f551b5c3fb26ea5ccd2dba5550f2f201ad2d9fcbaf6c67b3987a95ec82f89c022060b35dcfb53e8edd85c8cf65f82126132519698f38a601edc84c56bcb8e221790121030e88252f51c47b7ca48f11f5efe76c9dd2429562b1ef2d4a5d62aef4ff77527f", "asm": "3044022028f551b5c3fb26ea5ccd2dba5550f2f201ad2d9fcbaf6c67b3987a95ec82f89c022060b35dcfb53e8edd85c8cf65f82126132519698f38a601edc84c56bcb8e22179[ALL] 030e88252f51c47b7ca48f11f5efe76c9dd2429562b1ef2d4a5d62aef4ff77527f"}, "vout": 0, "txid": "a3d8390312d0c620475178dc8ce5ef24e5793da5197034c940d00c81d5c3fd5e"}, {"sequence": 4294967295, "scriptSig": {"hex": "483045022100fde4fc8597d6d0061214634dcfdac4b5590e7261bd1cc802a68bdf52ffd9a74a0220675d6b82e22b735c801bc3b99543853342a2ff111d0ca66009983d1b86e01b990121030e88252f51c47b7ca48f11f5efe76c9dd2429562b1ef2d4a5d62aef4ff77527f", "asm": "3045022100fde4fc8597d6d0061214634dcfdac4b5590e7261bd1cc802a68bdf52ffd9a74a0220675d6b82e22b735c801bc3b99543853342a2ff111d0ca66009983d1b86e01b99[ALL] 030e88252f51c47b7ca48f11f5efe76c9dd2429562b1ef2d4a5d62aef4ff77527f"}, "vout": 0, "txid": "b5672fcf0072148ccefa044b477f4e60d4c435444c88946d55aa268fa123c3c4"}, {"sequence": 4294967295, "scriptSig": {"hex": "483045022100a1339c6e25b1e31f4ed3d8ab3a77f5ee84da9ec2153d194f516b7b6803e2653b02204d04be7e114f4c00d03c707e523094e100f05be7f95110d2dbefbb6a83f2a3330121030e88252f51c47b7ca48f11f5efe76c9dd2429562b1ef2d4a5d62aef4ff77527f", "asm": "3045022100a1339c6e25b1e31f4ed3d8ab3a77f5ee84da9ec2153d194f516b7b6803e2653b02204d04be7e114f4c00d03c707e523094e100f05be7f95110d2dbefbb6a83f2a333[ALL] 030e88252f51c47b7ca48f11f5efe76c9dd2429562b1ef2d4a5d62aef4ff77527f"}, "vout": 1, "txid": "cad7b174b74476b7398f85a698323b37ab307c7887be0fdd7e0da981c65cedcb"}, {"sequence": 4294967295, "scriptSig": {"hex": "483045022100b4db8eb9584e5f8f11091a4e461fd71fe4b8ce435794177b377ea6ba0b248eba02204ce9e7fc5edc4d194cda98ff942e3ce6bf7454891a1a83582267cb21e6abf5c00121030e88252f51c47b7ca48f11f5efe76c9dd2429562b1ef2d4a5d62aef4ff77527f", "asm": "3045022100b4db8eb9584e5f8f11091a4e461fd71fe4b8ce435794177b377ea6ba0b248eba02204ce9e7fc5edc4d194cda98ff942e3ce6bf7454891a1a83582267cb21e6abf5c0[ALL] 030e88252f51c47b7ca48f11f5efe76c9dd2429562b1ef2d4a5d62aef4ff77527f"}, "vout": 1, "txid": "d66cfcbb4bd6a24a2387c6d489f6e7dc2d9a82f8bd2ad78d920926b4195f24a3"}, {"sequence": 4294967295, "scriptSig": {"hex": "483045022100cf9a10f7ac3a67a83b247521ef9ae342a37b43e4cffc00f883d622270d89f01302202ce8a6770567473e4f7dda55056870b1204cc65cfd400814005b91f00386d7400121030e88252f51c47b7ca48f11f5efe76c9dd2429562b1ef2d4a5d62aef4ff77527f", "asm": "3045022100cf9a10f7ac3a67a83b247521ef9ae342a37b43e4cffc00f883d622270d89f01302202ce8a6770567473e4f7dda55056870b1204cc65cfd400814005b91f00386d740[ALL] 030e88252f51c47b7ca48f11f5efe76c9dd2429562b1ef2d4a5d62aef4ff77527f"}, "vout": 0, "txid": "ea1b76943f3179aa928965bc7c2e29cd4846ecc4710df0355b92a704719958cc"}], "txid": "b773ca30c4a3d2813c3aeb330a261340660635c7e53d0bb107199996c48306dd", "blocktime": 1537874412, "version": 1, "confirmations": 11467, "time": 1537874412, "locktime": 0, "vsize": 1850, "size": 1850}