{"hash": "b775c74810136c975aab4e6b98692c3484466d53916f5cf76ca2419dd47633c1", "blockhash": "000000000000000000205f8b0775d31398ef75b89a5e8ec8d2c57b4dc0ac4c20", "vout": [{"scriptPubKey": {"reqSigs": 1, "hex": "a9145814060157d9e1bcc7d2f05258318f685530285587", "addresses": ["39ijNgLgpDEewYyEfxCAsTWkgrtd3vQy1i"], "asm": "OP_HASH160 5814060157d9e1bcc7d2f05258318f6855302855 OP_EQUAL", "type": "scripthash"}, "value": 0.01836557, "n": 0}, {"scriptPubKey": {"reqSigs": 1, "hex": "76a9140c5be113540d1e4bfb77785a5f21f42025e9624888ac", "addresses": ["128MBBV9HvxDGVMT7qV9eeeVwAifYauNx2"], "asm": "OP_DUP OP_HASH160 0c5be113540d1e4bfb77785a5f21f42025e96248 OP_EQUALVERIFY OP_CHECKSIG", "type": "pubkeyhash"}, "value": 0.03416159, "n": 1}], "hex": "0100000001b375c96c8b1141e48fc646e7cce293062fd8477426eb0b2df8a39a07747964f2010000006b483045022100e977f547f1fe93d00c4d49dfe6a357970467ca1d5bbff88ed7eb0e10df7d5f6802204672bdf596848e9726d229cf6eea862649bd74ea1614534dbbb1f8c130cda4c7012102ba5a7c2ffd4f43e115b476384d1a4e1bb05fdc8547e8d268d5d74b0dfd1e947fffffffff020d061c000000000017a9145814060157d9e1bcc7d2f05258318f6855302855875f203400000000001976a9140c5be113540d1e4bfb77785a5f21f42025e9624888ac00000000", "vin": [{"sequence": 4294967295, "scriptSig": {"hex": "483045022100e977f547f1fe93d00c4d49dfe6a357970467ca1d5bbff88ed7eb0e10df7d5f6802204672bdf596848e9726d229cf6eea862649bd74ea1614534dbbb1f8c130cda4c7012102ba5a7c2ffd4f43e115b476384d1a4e1bb05fdc8547e8d268d5d74b0dfd1e947f", "asm": "3045022100e977f547f1fe93d00c4d49dfe6a357970467ca1d5bbff88ed7eb0e10df7d5f6802204672bdf596848e9726d229cf6eea862649bd74ea1614534dbbb1f8c130cda4c7[ALL] 02ba5a7c2ffd4f43e115b476384d1a4e1bb05fdc8547e8d268d5d74b0dfd1e947f"}, "vout": 1, "txid": "f2647974079aa3f82d0beb267447d82f0693e2cce746c68fe441118b6cc975b3"}], "txid": "b775c74810136c975aab4e6b98692c3484466d53916f5cf76ca2419dd47633c1", "blocktime": 1537871175, "version": 1, "confirmations": 11511, "time": 1537871175, "locktime": 0, "vsize": 224, "size": 224}