{"hash": "b779907eb19ec6f9e5313c214fdbe68b2e7a10774588ef1e62be746196324673", "blockhash": "0000000000000000000e13cef7c366c0283d82e591d1acd082e914b08063cdf1", "vout": [{"scriptPubKey": {"type": "nulldata", "hex": "6a146f6d6e69000000000000001f000000294c136a80", "asm": "OP_RETURN 6f6d6e69000000000000001f000000294c136a80"}, "value": 0.0, "n": 0}, {"scriptPubKey": {"reqSigs": 1, "hex": "76a914a25dec4d0011064ef106a983c39c7a540699f22088ac", "addresses": ["1FoWyxwPXuj4C6abqwhjDWdz6D4PZgYRjA"], "asm": "OP_DUP OP_HASH160 a25dec4d0011064ef106a983c39c7a540699f220 OP_EQUALVERIFY OP_CHECKSIG", "type": "pubkeyhash"}, "value": 5.46e-06, "n": 1}, {"scriptPubKey": {"reqSigs": 1, "hex": "76a91447ff50f0e73ff36e2f74229f639305ce41e3e46f88ac", "addresses": ["17ZgqJLMqjCA7mWmzccHkdsU9PwPd9vuKE"], "asm": "OP_DUP OP_HASH160 47ff50f0e73ff36e2f74229f639305ce41e3e46f OP_EQUALVERIFY OP_CHECKSIG", "type": "pubkeyhash"}, "value": 0.00418125, "n": 2}], "hex": "01000000122c1777a9d866453d41d860b198d16e6cf5cdb557a5efe7c0a823da6ff197c4cc020000006b483045022100d00c74ff4d5325aa1c2690583a609ea5befe71249d9fe22def7d406280ce80b3022071d1d23f507fa27ef5273f2832980124a76d620396bb8e058b7aab82b026cb2e01210304dcef10fbe221e84f6b703b7cbf0afc298af3d7cbc9698ea3aeb96b4ff37548feffffff2f37d3e5a672b494ddc4617e0466b7c55a85afc964c0474372b4f8cf9b820f55020000006a47304402205548fad29549235c95ed876d0247e5ac33a9759ae4898829220a5731f6fe63e5022000b5fcf0eee3cc1b5b98388ef6faa352fa274fbb90c328ac6f35fbab94cf1ce601210304dcef10fbe221e84f6b703b7cbf0afc298af3d7cbc9698ea3aeb96b4ff37548feffffff411c58ea18644844dc88c073f790f087f9d4bf577e54add31526dd7e5013388c020000006a47304402203ed38cfc7e0a0ef2c9a9e2db8a020432e856ba50f52b2314121ef6c67e2dc8ec0220037ac701dc861c3a72ac7b2d28687930674f5e41bf1b821f0103d81ee684480301210304dcef10fbe221e84f6b703b7cbf0afc298af3d7cbc9698ea3aeb96b4ff37548feffffff484b099cdcbc339beea706e33a958576d6d97ff6dfd4b6eb28e747e13be7865f020000006a473044022004070dff27917836bdc593d5e8331ebb2d4eb91107d0771014c0fdd434222ed8022007bccf837750fe7641fbea7539346234dd68c18f7d42c5d5b9889a1e22d6e2ec01210304dcef10fbe221e84f6b703b7cbf0afc298af3d7cbc9698ea3aeb96b4ff37548feffffff486d15fbcac49c4a000daf7d5be9e0d4a5151d6798ea58981c96360624f95a16020000006b483045022100e1e714285d79e7a3dffed648537c839706b3507f797103892e95df3a7b6abb9102207008b6457b51848c774ae3368cc0778d9a39ad98a4bc1558a6e1e6f4611dce5001210304dcef10fbe221e84f6b703b7cbf0afc298af3d7cbc9698ea3aeb96b4ff37548feffffff5f95166229bc075dfd6bacaae79f92549098e6b8a4fec467ab39256e93c87fcf010000006a47304402203f4f033514a9f8462fdd602a4962f6e713ad3a0c3b0bfcefc77d539b499d6c080220019c40ea92fcc44c193ab9b8bed0eeac94ab3167124c8af7fd5a65c63bd7953001210304dcef10fbe221e84f6b703b7cbf0afc298af3d7cbc9698ea3aeb96b4ff37548feffffff75191351bc56cc6f867f6f7f7b1b81ed3590291222733fdda2bf4258fbdeef63020000006a473044022049a279fe49ac6d6c4566cb644b1a0d57db2afdbbd937008aef947dfc839e05570220165b8e8ab5561723ad6afd5d637170b9beb03f58f52184a15f50d4fcdd5ee0a601210304dcef10fbe221e84f6b703b7cbf0afc298af3d7cbc9698ea3aeb96b4ff37548feffffff7cc26ba5afe7fc5f7b89088846ad7a9df5b16ae02f95f5b1db8c36ea25c39680010000006a473044022039df52e57f150786368a243dc16bbe517e588105debcca122b859a2a836b41cf022076336bc6920fa5d3e2931acbf67f6e3fdde72212f6816b43ddc620fb8837d7ea01210304dcef10fbe221e84f6b703b7cbf0afc298af3d7cbc9698ea3aeb96b4ff37548feffffff9d7c2a39a3f387cc9b420a4347e68be5be7dec951c2ec2d2c24367b04b340f52010000006b483045022100ec1ebee03c002118f828faaa359663118a1d527cb784defc7e591b906b76687d02204d2def37c8f64b53640deff77da51bdaf04ae8538d62c437c071b3798b19953201210304dcef10fbe221e84f6b703b7cbf0afc298af3d7cbc9698ea3aeb96b4ff37548feffffffb46a94ffe5a6d3cbe703e34c726c25db0687d8e571580200ad69666c4faba4b8020000006a4730440220480bc14b9df451f245d6cb389c56ab3a8125f02682fb80f370f241b273453c99022020cba0d34cd787a1e732d89a54f618dcd8daeb056c2d0090f39042f56be162e901210304dcef10fbe221e84f6b703b7cbf0afc298af3d7cbc9698ea3aeb96b4ff37548feffffffc656dbd959de643322de62da216f4dfd2354d4c9888ff00fa9ca249fd2693d18010000006a473044022017efc1a65352b2440e320d76f281ddfb68dd1a6fe76cbdfc1c6caf164050251702206d8ba6385bb23f1838f2fd0641e2c417a64fccb67a915c50ae6b0bba050e1a9101210304dcef10fbe221e84f6b703b7cbf0afc298af3d7cbc9698ea3aeb96b4ff37548feffffffcbe6b9939e05c305dadf913201aefb3277b3adf5acff1c451b6d09ad2d4039f7020000006a473044022014938b74e3eab03cc61ec242e144eac0a8a9826261e346221d7b2ae2e04ae271022074b8046d4db0049f188fa3031d52a29817f059eff39c215da3e597ca8c89b83301210304dcef10fbe221e84f6b703b7cbf0afc298af3d7cbc9698ea3aeb96b4ff37548feffffffcc23bf63b709962df2270db46886013d3f7c527ccdb7153154fee85adbe65bfd010000006b483045022100ccd55a219e4f99d5952fc146e4e1c29218e9d7b398b47f35c5752561f12f955202204ceeeaa4d5ad329e11eefadf16bfa08a08bf84ceb9f74339a7d77ed5fdc46fd501210304dcef10fbe221e84f6b703b7cbf0afc298af3d7cbc9698ea3aeb96b4ff37548feffffffceaa6044e984be6e184095220043ddee9ec4bad3c5ad78fd5fb1dc301688f06b020000006b483045022100b8d657b3bcab37539858c15ef0b5ce762e96b40992a98bf6a5d91b06927c1053022035ef33d3d68d32cf7b1f82a13512e6e71061ab475120b2000af5821998d96eb201210304dcef10fbe221e84f6b703b7cbf0afc298af3d7cbc9698ea3aeb96b4ff37548feffffffd2d631cbf6652393d4ac849ea4bbc92dd186feb057a141717f05187515f51452020000006a4730440220788761cc9364d94005da8966c2c82ec5a4157126a3a239000ade36d4ac19751a02204bfb13fef14788f4dedf2a3fa7c5c849b570c0c980a3893c053fa2ab23d46b2101210304dcef10fbe221e84f6b703b7cbf0afc298af3d7cbc9698ea3aeb96b4ff37548feffffffe361f055b8b44356de030b854614963c5e81485fb0a31244c6920fb254b0280b020000006b483045022100b47316fb67b2617f369e1c2bc26fa2606b4652ecc12ac0469b390beb26df1bc102204ea8674b85f1f339c1c149d0c35f0f0d3cb7f804092285c893b2af2c91a10bf201210304dcef10fbe221e84f6b703b7cbf0afc298af3d7cbc9698ea3aeb96b4ff37548feffffffe6544a5ca0c116b1577fad3d1d83c9519fdc1688d491cea8dc28e89148c37ab5000000006a473044022048cb2c4301119dfba4ea3261ecfd6b0f1d817e1b1a5d883215aa7c96a661bd5202206e1f9cadf6138d3d86aacfb1a0b94d251ccfed4fbecd1846b52d5805fe3c0c9401210304dcef10fbe221e84f6b703b7cbf0afc298af3d7cbc9698ea3aeb96b4ff37548feffffff16d1b84a22c9324ea2dededd5af4890db7c6e93a1f9e5542ef173be7b64da28d020000006b483045022100d205ef9560a19871965160dca0ea63d5c6520c36cbc74eb7d019882e1bb19eb3022015bf9294834674c28ac11518d106c770cfdc66d6164ad61a9e5c513d4ddd3e3201210304dcef10fbe221e84f6b703b7cbf0afc298af3d7cbc9698ea3aeb96b4ff37548feffffff030000000000000000166a146f6d6e69000000000000001f000000294c136a8022020000000000001976a914a25dec4d0011064ef106a983c39c7a540699f22088ac4d610600000000001976a91447ff50f0e73ff36e2f74229f639305ce41e3e46f88ac10490800", "vin": [{"sequence": 4294967294, "scriptSig": {"hex": "483045022100d00c74ff4d5325aa1c2690583a609ea5befe71249d9fe22def7d406280ce80b3022071d1d23f507fa27ef5273f2832980124a76d620396bb8e058b7aab82b026cb2e01210304dcef10fbe221e84f6b703b7cbf0afc298af3d7cbc9698ea3aeb96b4ff37548", "asm": "3045022100d00c74ff4d5325aa1c2690583a609ea5befe71249d9fe22def7d406280ce80b3022071d1d23f507fa27ef5273f2832980124a76d620396bb8e058b7aab82b026cb2e[ALL] 0304dcef10fbe221e84f6b703b7cbf0afc298af3d7cbc9698ea3aeb96b4ff37548"}, "vout": 2, "txid": "ccc497f16fda23a8c0e7efa557b5cdf56c6ed198b160d8413d4566d8a977172c"}, {"sequence": 4294967294, "scriptSig": {"hex": "47304402205548fad29549235c95ed876d0247e5ac33a9759ae4898829220a5731f6fe63e5022000b5fcf0eee3cc1b5b98388ef6faa352fa274fbb90c328ac6f35fbab94cf1ce601210304dcef10fbe221e84f6b703b7cbf0afc298af3d7cbc9698ea3aeb96b4ff37548", "asm": "304402205548fad29549235c95ed876d0247e5ac33a9759ae4898829220a5731f6fe63e5022000b5fcf0eee3cc1b5b98388ef6faa352fa274fbb90c328ac6f35fbab94cf1ce6[ALL] 0304dcef10fbe221e84f6b703b7cbf0afc298af3d7cbc9698ea3aeb96b4ff37548"}, "vout": 2, "txid": "550f829bcff8b4724347c064c9af855ac5b766047e61c4dd94b472a6e5d3372f"}, {"sequence": 4294967294, "scriptSig": {"hex": "47304402203ed38cfc7e0a0ef2c9a9e2db8a020432e856ba50f52b2314121ef6c67e2dc8ec0220037ac701dc861c3a72ac7b2d28687930674f5e41bf1b821f0103d81ee684480301210304dcef10fbe221e84f6b703b7cbf0afc298af3d7cbc9698ea3aeb96b4ff37548", "asm": "304402203ed38cfc7e0a0ef2c9a9e2db8a020432e856ba50f52b2314121ef6c67e2dc8ec0220037ac701dc861c3a72ac7b2d28687930674f5e41bf1b821f0103d81ee6844803[ALL] 0304dcef10fbe221e84f6b703b7cbf0afc298af3d7cbc9698ea3aeb96b4ff37548"}, "vout": 2, "txid": "8c3813507edd2615d3ad547e57bfd4f987f090f773c088dc44486418ea581c41"}, {"sequence": 4294967294, "scriptSig": {"hex": "473044022004070dff27917836bdc593d5e8331ebb2d4eb91107d0771014c0fdd434222ed8022007bccf837750fe7641fbea7539346234dd68c18f7d42c5d5b9889a1e22d6e2ec01210304dcef10fbe221e84f6b703b7cbf0afc298af3d7cbc9698ea3aeb96b4ff37548", "asm": "3044022004070dff27917836bdc593d5e8331ebb2d4eb91107d0771014c0fdd434222ed8022007bccf837750fe7641fbea7539346234dd68c18f7d42c5d5b9889a1e22d6e2ec[ALL] 0304dcef10fbe221e84f6b703b7cbf0afc298af3d7cbc9698ea3aeb96b4ff37548"}, "vout": 2, "txid": "5f86e73be147e728ebb6d4dff67fd9d67685953ae306a7ee9b33bcdc9c094b48"}, {"sequence": 4294967294, "scriptSig": {"hex": "483045022100e1e714285d79e7a3dffed648537c839706b3507f797103892e95df3a7b6abb9102207008b6457b51848c774ae3368cc0778d9a39ad98a4bc1558a6e1e6f4611dce5001210304dcef10fbe221e84f6b703b7cbf0afc298af3d7cbc9698ea3aeb96b4ff37548", "asm": "3045022100e1e714285d79e7a3dffed648537c839706b3507f797103892e95df3a7b6abb9102207008b6457b51848c774ae3368cc0778d9a39ad98a4bc1558a6e1e6f4611dce50[ALL] 0304dcef10fbe221e84f6b703b7cbf0afc298af3d7cbc9698ea3aeb96b4ff37548"}, "vout": 2, "txid": "165af9240636961c9858ea98671d15a5d4e0e95b7daf0d004a9cc4cafb156d48"}, {"sequence": 4294967294, "scriptSig": {"hex": "47304402203f4f033514a9f8462fdd602a4962f6e713ad3a0c3b0bfcefc77d539b499d6c080220019c40ea92fcc44c193ab9b8bed0eeac94ab3167124c8af7fd5a65c63bd7953001210304dcef10fbe221e84f6b703b7cbf0afc298af3d7cbc9698ea3aeb96b4ff37548", "asm": "304402203f4f033514a9f8462fdd602a4962f6e713ad3a0c3b0bfcefc77d539b499d6c080220019c40ea92fcc44c193ab9b8bed0eeac94ab3167124c8af7fd5a65c63bd79530[ALL] 0304dcef10fbe221e84f6b703b7cbf0afc298af3d7cbc9698ea3aeb96b4ff37548"}, "vout": 1, "txid": "cf7fc8936e2539ab67c4fea4b8e6989054929fe7aaac6bfd5d07bc296216955f"}, {"sequence": 4294967294, "scriptSig": {"hex": "473044022049a279fe49ac6d6c4566cb644b1a0d57db2afdbbd937008aef947dfc839e05570220165b8e8ab5561723ad6afd5d637170b9beb03f58f52184a15f50d4fcdd5ee0a601210304dcef10fbe221e84f6b703b7cbf0afc298af3d7cbc9698ea3aeb96b4ff37548", "asm": "3044022049a279fe49ac6d6c4566cb644b1a0d57db2afdbbd937008aef947dfc839e05570220165b8e8ab5561723ad6afd5d637170b9beb03f58f52184a15f50d4fcdd5ee0a6[ALL] 0304dcef10fbe221e84f6b703b7cbf0afc298af3d7cbc9698ea3aeb96b4ff37548"}, "vout": 2, "txid": "63efdefb5842bfa2dd3f732212299035ed811b7b7f6f7f866fcc56bc51131975"}, {"sequence": 4294967294, "scriptSig": {"hex": "473044022039df52e57f150786368a243dc16bbe517e588105debcca122b859a2a836b41cf022076336bc6920fa5d3e2931acbf67f6e3fdde72212f6816b43ddc620fb8837d7ea01210304dcef10fbe221e84f6b703b7cbf0afc298af3d7cbc9698ea3aeb96b4ff37548", "asm": "3044022039df52e57f150786368a243dc16bbe517e588105debcca122b859a2a836b41cf022076336bc6920fa5d3e2931acbf67f6e3fdde72212f6816b43ddc620fb8837d7ea[ALL] 0304dcef10fbe221e84f6b703b7cbf0afc298af3d7cbc9698ea3aeb96b4ff37548"}, "vout": 1, "txid": "8096c325ea368cdbb1f5952fe06ab1f59d7aad468808897b5ffce7afa56bc27c"}, {"sequence": 4294967294, "scriptSig": {"hex": "483045022100ec1ebee03c002118f828faaa359663118a1d527cb784defc7e591b906b76687d02204d2def37c8f64b53640deff77da51bdaf04ae8538d62c437c071b3798b19953201210304dcef10fbe221e84f6b703b7cbf0afc298af3d7cbc9698ea3aeb96b4ff37548", "asm": "3045022100ec1ebee03c002118f828faaa359663118a1d527cb784defc7e591b906b76687d02204d2def37c8f64b53640deff77da51bdaf04ae8538d62c437c071b3798b199532[ALL] 0304dcef10fbe221e84f6b703b7cbf0afc298af3d7cbc9698ea3aeb96b4ff37548"}, "vout": 1, "txid": "520f344bb06743c2d2c22e1c95ec7dbee58be647430a429bcc87f3a3392a7c9d"}, {"sequence": 4294967294, "scriptSig": {"hex": "4730440220480bc14b9df451f245d6cb389c56ab3a8125f02682fb80f370f241b273453c99022020cba0d34cd787a1e732d89a54f618dcd8daeb056c2d0090f39042f56be162e901210304dcef10fbe221e84f6b703b7cbf0afc298af3d7cbc9698ea3aeb96b4ff37548", "asm": "30440220480bc14b9df451f245d6cb389c56ab3a8125f02682fb80f370f241b273453c99022020cba0d34cd787a1e732d89a54f618dcd8daeb056c2d0090f39042f56be162e9[ALL] 0304dcef10fbe221e84f6b703b7cbf0afc298af3d7cbc9698ea3aeb96b4ff37548"}, "vout": 2, "txid": "b8a4ab4f6c6669ad00025871e5d88706db256c724ce303e7cbd3a6e5ff946ab4"}, {"sequence": 4294967294, "scriptSig": {"hex": "473044022017efc1a65352b2440e320d76f281ddfb68dd1a6fe76cbdfc1c6caf164050251702206d8ba6385bb23f1838f2fd0641e2c417a64fccb67a915c50ae6b0bba050e1a9101210304dcef10fbe221e84f6b703b7cbf0afc298af3d7cbc9698ea3aeb96b4ff37548", "asm": "3044022017efc1a65352b2440e320d76f281ddfb68dd1a6fe76cbdfc1c6caf164050251702206d8ba6385bb23f1838f2fd0641e2c417a64fccb67a915c50ae6b0bba050e1a91[ALL] 0304dcef10fbe221e84f6b703b7cbf0afc298af3d7cbc9698ea3aeb96b4ff37548"}, "vout": 1, "txid": "183d69d29f24caa90ff08f88c9d45423fd4d6f21da62de223364de59d9db56c6"}, {"sequence": 4294967294, "scriptSig": {"hex": "473044022014938b74e3eab03cc61ec242e144eac0a8a9826261e346221d7b2ae2e04ae271022074b8046d4db0049f188fa3031d52a29817f059eff39c215da3e597ca8c89b83301210304dcef10fbe221e84f6b703b7cbf0afc298af3d7cbc9698ea3aeb96b4ff37548", "asm": "3044022014938b74e3eab03cc61ec242e144eac0a8a9826261e346221d7b2ae2e04ae271022074b8046d4db0049f188fa3031d52a29817f059eff39c215da3e597ca8c89b833[ALL] 0304dcef10fbe221e84f6b703b7cbf0afc298af3d7cbc9698ea3aeb96b4ff37548"}, "vout": 2, "txid": "f739402dad096d1b451cffacf5adb37732fbae013291dfda05c3059e93b9e6cb"}, {"sequence": 4294967294, "scriptSig": {"hex": "483045022100ccd55a219e4f99d5952fc146e4e1c29218e9d7b398b47f35c5752561f12f955202204ceeeaa4d5ad329e11eefadf16bfa08a08bf84ceb9f74339a7d77ed5fdc46fd501210304dcef10fbe221e84f6b703b7cbf0afc298af3d7cbc9698ea3aeb96b4ff37548", "asm": "3045022100ccd55a219e4f99d5952fc146e4e1c29218e9d7b398b47f35c5752561f12f955202204ceeeaa4d5ad329e11eefadf16bfa08a08bf84ceb9f74339a7d77ed5fdc46fd5[ALL] 0304dcef10fbe221e84f6b703b7cbf0afc298af3d7cbc9698ea3aeb96b4ff37548"}, "vout": 1, "txid": "fd5be6db5ae8fe543115b7cd7c527c3f3d018668b40d27f22d9609b763bf23cc"}, {"sequence": 4294967294, "scriptSig": {"hex": "483045022100b8d657b3bcab37539858c15ef0b5ce762e96b40992a98bf6a5d91b06927c1053022035ef33d3d68d32cf7b1f82a13512e6e71061ab475120b2000af5821998d96eb201210304dcef10fbe221e84f6b703b7cbf0afc298af3d7cbc9698ea3aeb96b4ff37548", "asm": "3045022100b8d657b3bcab37539858c15ef0b5ce762e96b40992a98bf6a5d91b06927c1053022035ef33d3d68d32cf7b1f82a13512e6e71061ab475120b2000af5821998d96eb2[ALL] 0304dcef10fbe221e84f6b703b7cbf0afc298af3d7cbc9698ea3aeb96b4ff37548"}, "vout": 2, "txid": "6bf0881630dcb15ffd78adc5d3bac49eeedd4300229540186ebe84e94460aace"}, {"sequence": 4294967294, "scriptSig": {"hex": "4730440220788761cc9364d94005da8966c2c82ec5a4157126a3a239000ade36d4ac19751a02204bfb13fef14788f4dedf2a3fa7c5c849b570c0c980a3893c053fa2ab23d46b2101210304dcef10fbe221e84f6b703b7cbf0afc298af3d7cbc9698ea3aeb96b4ff37548", "asm": "30440220788761cc9364d94005da8966c2c82ec5a4157126a3a239000ade36d4ac19751a02204bfb13fef14788f4dedf2a3fa7c5c849b570c0c980a3893c053fa2ab23d46b21[ALL] 0304dcef10fbe221e84f6b703b7cbf0afc298af3d7cbc9698ea3aeb96b4ff37548"}, "vout": 2, "txid": "5214f5157518057f7141a157b0fe86d12dc9bba49e84acd4932365f6cb31d6d2"}, {"sequence": 4294967294, "scriptSig": {"hex": "483045022100b47316fb67b2617f369e1c2bc26fa2606b4652ecc12ac0469b390beb26df1bc102204ea8674b85f1f339c1c149d0c35f0f0d3cb7f804092285c893b2af2c91a10bf201210304dcef10fbe221e84f6b703b7cbf0afc298af3d7cbc9698ea3aeb96b4ff37548", "asm": "3045022100b47316fb67b2617f369e1c2bc26fa2606b4652ecc12ac0469b390beb26df1bc102204ea8674b85f1f339c1c149d0c35f0f0d3cb7f804092285c893b2af2c91a10bf2[ALL] 0304dcef10fbe221e84f6b703b7cbf0afc298af3d7cbc9698ea3aeb96b4ff37548"}, "vout": 2, "txid": "0b28b054b20f92c64412a3b05f48815e3c961446850b03de5643b4b855f061e3"}, {"sequence": 4294967294, "scriptSig": {"hex": "473044022048cb2c4301119dfba4ea3261ecfd6b0f1d817e1b1a5d883215aa7c96a661bd5202206e1f9cadf6138d3d86aacfb1a0b94d251ccfed4fbecd1846b52d5805fe3c0c9401210304dcef10fbe221e84f6b703b7cbf0afc298af3d7cbc9698ea3aeb96b4ff37548", "asm": "3044022048cb2c4301119dfba4ea3261ecfd6b0f1d817e1b1a5d883215aa7c96a661bd5202206e1f9cadf6138d3d86aacfb1a0b94d251ccfed4fbecd1846b52d5805fe3c0c94[ALL] 0304dcef10fbe221e84f6b703b7cbf0afc298af3d7cbc9698ea3aeb96b4ff37548"}, "vout": 0, "txid": "b57ac34891e828dca8ce91d48816dc9f51c9831d3dad7f57b116c1a05c4a54e6"}, {"sequence": 4294967294, "scriptSig": {"hex": "483045022100d205ef9560a19871965160dca0ea63d5c6520c36cbc74eb7d019882e1bb19eb3022015bf9294834674c28ac11518d106c770cfdc66d6164ad61a9e5c513d4ddd3e3201210304dcef10fbe221e84f6b703b7cbf0afc298af3d7cbc9698ea3aeb96b4ff37548", "asm": "3045022100d205ef9560a19871965160dca0ea63d5c6520c36cbc74eb7d019882e1bb19eb3022015bf9294834674c28ac11518d106c770cfdc66d6164ad61a9e5c513d4ddd3e32[ALL] 0304dcef10fbe221e84f6b703b7cbf0afc298af3d7cbc9698ea3aeb96b4ff37548"}, "vout": 2, "txid": "8da24db6e73b17ef42559e1f3ae9c6b70d89f45adddedea24e32c9224ab8d116"}], "txid": "b779907eb19ec6f9e5313c214fdbe68b2e7a10774588ef1e62be746196324673", "blocktime": 1537871767, "version": 1, "confirmations": 11495, "time": 1537871767, "locktime": 542992, "vsize": 2762, "size": 2762}