{"hash": "b77d33380a0a76fb2b17ed0c386dc878d2501db642a94b62ad5bcd70aa0d2d4c", "blockhash": "00000000000000000017f5eb5941039fbcee6240d03bc1f2f8e35350df66a1d8", "vout": [{"scriptPubKey": {"reqSigs": 1, "hex": "76a914e735bf7f81e03bfe0303ef0ab792d5616633a8fa88ac", "addresses": ["1N5XUnwXcnxKA3UQ9sinrz1gwVYnir9Kew"], "asm": "OP_DUP OP_HASH160 e735bf7f81e03bfe0303ef0ab792d5616633a8fa OP_EQUALVERIFY OP_CHECKSIG", "type": "pubkeyhash"}, "value": 0.01975912, "n": 0}, {"scriptPubKey": {"reqSigs": 1, "hex": "a9144ef07079acbf5552965a07c15bca39b25daaf42887", "addresses": ["38tQfXTP4KoztXH3inQhewocku6JHPwCzT"], "asm": "OP_HASH160 4ef07079acbf5552965a07c15bca39b25daaf428 OP_EQUAL", "type": "scripthash"}, "value": 0.00367233, "n": 1}], "hex": "010000000142527a3a3d94fcb7ddae02df73b733b9edfd970bc40e68e02eccee20ca789226010000006a4730440220022fbf5e93322c7ceb1d707aac51e4ef7c4a1b52c609317a96d0f3b8c71b169f0220102ac6ae41bbc6f0e9d7bbd2ea3beb74e9257f5b37ec4353cb2de2b359bfc80c012102a7bc360d09563becf3611676c135d559522d40e4ee1310e5947cc86e34d18f3bffffffff0268261e00000000001976a914e735bf7f81e03bfe0303ef0ab792d5616633a8fa88ac819a05000000000017a9144ef07079acbf5552965a07c15bca39b25daaf4288700000000", "vin": [{"sequence": 4294967295, "scriptSig": {"hex": "4730440220022fbf5e93322c7ceb1d707aac51e4ef7c4a1b52c609317a96d0f3b8c71b169f0220102ac6ae41bbc6f0e9d7bbd2ea3beb74e9257f5b37ec4353cb2de2b359bfc80c012102a7bc360d09563becf3611676c135d559522d40e4ee1310e5947cc86e34d18f3b", "asm": "30440220022fbf5e93322c7ceb1d707aac51e4ef7c4a1b52c609317a96d0f3b8c71b169f0220102ac6ae41bbc6f0e9d7bbd2ea3beb74e9257f5b37ec4353cb2de2b359bfc80c[ALL] 02a7bc360d09563becf3611676c135d559522d40e4ee1310e5947cc86e34d18f3b"}, "vout": 1, "txid": "269278ca20eecc2ee0680ec40b97fdedb933b773df02aeddb7fc943d3a7a5242"}], "txid": "b77d33380a0a76fb2b17ed0c386dc878d2501db642a94b62ad5bcd70aa0d2d4c", "blocktime": 1537874412, "version": 1, "confirmations": 11467, "time": 1537874412, "locktime": 0, "vsize": 223, "size": 223}