{"hash": "b77d83ee52a3885510231d7b0009eef50b09bb91a50537e5204ef1439269c1c0", "blockhash": "0000000000000000000dcc0f55137456b1a82d3642486a52398922ac4d620174", "vout": [{"scriptPubKey": {"reqSigs": 1, "hex": "76a91430ed46a54390fbf3b99e1ad10057e55c74ba19eb88ac", "addresses": ["15ThgRyJbtXWhnqVJmJtKEw5MpckHPGGq6"], "asm": "OP_DUP OP_HASH160 30ed46a54390fbf3b99e1ad10057e55c74ba19eb OP_EQUALVERIFY OP_CHECKSIG", "type": "pubkeyhash"}, "value": 0.00673246, "n": 0}, {"scriptPubKey": {"reqSigs": 1, "hex": "a914a10a7ffa2b290f2ce940aca5257bea77737ed4c087", "addresses": ["3GNXHyWMLYpE4AHg5ApmGM7V5yRUVGS8md"], "asm": "OP_HASH160 a10a7ffa2b290f2ce940aca5257bea77737ed4c0 OP_EQUAL", "type": "scripthash"}, "value": 0.00918137, "n": 1}], "hex": "0100000001c04f12e6664699c44063ad0f2f9507075b65bc9e6db4dadfed4eea250c08cf7d010000006a47304402205dc32c1d1663bb4b0fb952c7eda087a782907e1fda369a19ec3eb8ad9e79f6f6022038f1e8484efe711decce3f75a047dde448b309190b51d233c4169d0106c5b1730121028271bf3d538809bb3ecf601af40aab569011e34d4d35859d909d32e36e4d8da7ffffffff02de450a00000000001976a91430ed46a54390fbf3b99e1ad10057e55c74ba19eb88ac79020e000000000017a914a10a7ffa2b290f2ce940aca5257bea77737ed4c08700000000", "vin": [{"sequence": 4294967295, "scriptSig": {"hex": "47304402205dc32c1d1663bb4b0fb952c7eda087a782907e1fda369a19ec3eb8ad9e79f6f6022038f1e8484efe711decce3f75a047dde448b309190b51d233c4169d0106c5b1730121028271bf3d538809bb3ecf601af40aab569011e34d4d35859d909d32e36e4d8da7", "asm": "304402205dc32c1d1663bb4b0fb952c7eda087a782907e1fda369a19ec3eb8ad9e79f6f6022038f1e8484efe711decce3f75a047dde448b309190b51d233c4169d0106c5b173[ALL] 028271bf3d538809bb3ecf601af40aab569011e34d4d35859d909d32e36e4d8da7"}, "vout": 1, "txid": "7dcf080c25ea4eeddfdab46d9ebc655b0707952f0fad6340c4994666e6124fc0"}], "txid": "b77d83ee52a3885510231d7b0009eef50b09bb91a50537e5204ef1439269c1c0", "blocktime": 1537870268, "version": 1, "confirmations": 11516, "time": 1537870268, "locktime": 0, "vsize": 223, "size": 223}