{"hash": "b0998f893f5362bf65af5c9fc20d4a87849ea563f5e2fee7d9c266a4fcda65d0", "blockhash": "00000000000000000018f53835495a110e01622372bf6ae95dc86f2b0ab887b0", "vout": [{"scriptPubKey": {"reqSigs": 1, "hex": "76a914f0ca8abf29b3ef6399152adfaf49c1dcc5d5193888ac", "addresses": ["1NxBouMqFBvqudyMfKzsvraYCxvwupk3AN"], "asm": "OP_DUP OP_HASH160 f0ca8abf29b3ef6399152adfaf49c1dcc5d51938 OP_EQUALVERIFY OP_CHECKSIG", "type": "pubkeyhash"}, "value": 0.01073375, "n": 0}, {"scriptPubKey": {"reqSigs": 1, "hex": "76a914ecd536c7401a2f018de5da36e01ca77f19db070888ac", "addresses": ["1NbFte4ASySsZ7VH83yA4R3QoCxCy2Zkhg"], "asm": "OP_DUP OP_HASH160 ecd536c7401a2f018de5da36e01ca77f19db0708 OP_EQUALVERIFY OP_CHECKSIG", "type": "pubkeyhash"}, "value": 0.00283064, "n": 1}], "hex": "020000000001034b8d2c08d9a6888576e3711c897ac7eac576c50f609eccd925ed2b424068f98000000000171600142396ec9cdf259628a9d145a9e110c85592d3d996feffffff5537399f2a9ab75ef6d869968032426d0d530882d3d9980463c7885f4050add8030000006b483045022100c5f05b9a81e9a07236065f11576d98d3ce83740835d79a5b12d44c4030e3aef902207f74f0d43c88d424fe8e78e8bf2c06dfa52113d4d74c8792cd06cb8bcf6935ed012103c5f2517e7f90d406080bb4743d1a69fce8854240a29a80bb72c1aa1ef34f3a80feffffffbf47a9502a052e03ce518cf31650cee64df197e4d011a5a361414760927f543c0000000017160014c3a17ac510b5ad6f5a732ff402d1d3669b4df769feffffff02df601000000000001976a914f0ca8abf29b3ef6399152adfaf49c1dcc5d5193888acb8510400000000001976a914ecd536c7401a2f018de5da36e01ca77f19db070888ac02483045022100f51e51481710e105317b0d402b075e2f8c2a9998751e407b52ae50c7918e6265022052c0ae9d1605e2d928c0322c55ac9c28004edb14d6de531be6842fae84cf8d0d0121028a83b95ba67457cc1ff306236547c5e32b50dfff44e755b27fa808d11d6447e30002483045022100a3a92e432b3e3a9e76c3cd8dd2f2fcdbe400e168a62b2109d50a8c1c3687ab40022018ddec7ac468e814432d915579057c8f02bbf7bcc162b54d8a7d23faa5c6924e0121024b7f8dc41b10386504343e76c1473b1ba096859e2a5630bc56ac463caa3b2a980e490800", "vin": [{"txinwitness": ["3045022100f51e51481710e105317b0d402b075e2f8c2a9998751e407b52ae50c7918e6265022052c0ae9d1605e2d928c0322c55ac9c28004edb14d6de531be6842fae84cf8d0d01", "028a83b95ba67457cc1ff306236547c5e32b50dfff44e755b27fa808d11d6447e3"], "sequence": 4294967294, "scriptSig": {"hex": "1600142396ec9cdf259628a9d145a9e110c85592d3d996", "asm": "00142396ec9cdf259628a9d145a9e110c85592d3d996"}, "vout": 0, "txid": "80f96840422bed25d9cc9e600fc576c5eac77a891c71e3768588a6d9082c8d4b"}, {"sequence": 4294967294, "scriptSig": {"hex": "483045022100c5f05b9a81e9a07236065f11576d98d3ce83740835d79a5b12d44c4030e3aef902207f74f0d43c88d424fe8e78e8bf2c06dfa52113d4d74c8792cd06cb8bcf6935ed012103c5f2517e7f90d406080bb4743d1a69fce8854240a29a80bb72c1aa1ef34f3a80", "asm": "3045022100c5f05b9a81e9a07236065f11576d98d3ce83740835d79a5b12d44c4030e3aef902207f74f0d43c88d424fe8e78e8bf2c06dfa52113d4d74c8792cd06cb8bcf6935ed[ALL] 03c5f2517e7f90d406080bb4743d1a69fce8854240a29a80bb72c1aa1ef34f3a80"}, "vout": 3, "txid": "d8ad50405f88c7630498d9d38208530d6d4232809669d8f65eb79a2a9f393755"}, {"txinwitness": ["3045022100a3a92e432b3e3a9e76c3cd8dd2f2fcdbe400e168a62b2109d50a8c1c3687ab40022018ddec7ac468e814432d915579057c8f02bbf7bcc162b54d8a7d23faa5c6924e01", "024b7f8dc41b10386504343e76c1473b1ba096859e2a5630bc56ac463caa3b2a98"], "sequence": 4294967294, "scriptSig": {"hex": "160014c3a17ac510b5ad6f5a732ff402d1d3669b4df769", "asm": "0014c3a17ac510b5ad6f5a732ff402d1d3669b4df769"}, "vout": 0, "txid": "3c547f9260474161a3a511d0e497f14de6ce5016f38c51ce032e052a50a947bf"}], "txid": "b77fdc7e69cc71e00e6c6d42dbacb320cf2c584dffaeec01bc6b96531c1b3804", "blocktime": 1537870928, "version": 2, "confirmations": 11512, "time": 1537870928, "locktime": 542990, "vsize": 409, "size": 573}