{"hash": "b780450416f254a15f3461a9df352ece03a24685843f9c1d1b58162b70178121", "blockhash": "0000000000000000001e0dab787dd257d1dbfcb92a98c2207d5e1078be1f4165", "vout": [{"scriptPubKey": {"reqSigs": 1, "hex": "76a914f8bbc4b5351750d3f9e29909fe0e06460ec301ad88ac", "addresses": ["1PgBWx89Saf3vDz9tBHBegeyRj9ZjYCkKu"], "asm": "OP_DUP OP_HASH160 f8bbc4b5351750d3f9e29909fe0e06460ec301ad OP_EQUALVERIFY OP_CHECKSIG", "type": "pubkeyhash"}, "value": 0.00343446, "n": 0}, {"scriptPubKey": {"reqSigs": 1, "hex": "76a91488eeb0c2cf4d5f1a80e68e529a6648fafba3a56a88ac", "addresses": ["1DV2qbSGDguun8riVZTjthhAsMo9EZWkui"], "asm": "OP_DUP OP_HASH160 88eeb0c2cf4d5f1a80e68e529a6648fafba3a56a OP_EQUALVERIFY OP_CHECKSIG", "type": "pubkeyhash"}, "value": 0.01031124, "n": 1}], "hex": "0100000001adaeac115a8fc3359e7a50f05dbcfcbe0da4f3985c2a1f97c0309cd4625dc7c4010000006a473044022050f23baef5f6e5f2f7f88757ac9f5d651d4d00ab09132263c096acc213a5da9c022032bcd23e98cf586f757274100f3dfc8b77ba58420ea28a54a4b5e270183d1a530121023d1bd630c43e114f3df63a759059c1981975e2fe59ffee93e6f4d92a1c9ea5c8ffffffff02963d0500000000001976a914f8bbc4b5351750d3f9e29909fe0e06460ec301ad88acd4bb0f00000000001976a91488eeb0c2cf4d5f1a80e68e529a6648fafba3a56a88ac00000000", "vin": [{"sequence": 4294967295, "scriptSig": {"hex": "473044022050f23baef5f6e5f2f7f88757ac9f5d651d4d00ab09132263c096acc213a5da9c022032bcd23e98cf586f757274100f3dfc8b77ba58420ea28a54a4b5e270183d1a530121023d1bd630c43e114f3df63a759059c1981975e2fe59ffee93e6f4d92a1c9ea5c8", "asm": "3044022050f23baef5f6e5f2f7f88757ac9f5d651d4d00ab09132263c096acc213a5da9c022032bcd23e98cf586f757274100f3dfc8b77ba58420ea28a54a4b5e270183d1a53[ALL] 023d1bd630c43e114f3df63a759059c1981975e2fe59ffee93e6f4d92a1c9ea5c8"}, "vout": 1, "txid": "c4c75d62d49c30c0971f2a5c98f3a40dbefcbc5df0507a9e35c38f5a11acaead"}], "txid": "b780450416f254a15f3461a9df352ece03a24685843f9c1d1b58162b70178121", "blocktime": 1537872475, "version": 1, "confirmations": 11487, "time": 1537872475, "locktime": 0, "vsize": 225, "size": 225}