{"hash": "b7822cf980c1c6176555f530c66b114dcecaa905df37cd149af1e8f284c6fb6b", "blockhash": "0000000000000000000dcc0f55137456b1a82d3642486a52398922ac4d620174", "vout": [{"scriptPubKey": {"reqSigs": 1, "hex": "a914dc42fe7742da349c2b0e0c51632f350feab88ee787", "addresses": ["3Mmeqa7NcXjDo2mz2g9cfBYkhFZoidSaHD"], "asm": "OP_HASH160 dc42fe7742da349c2b0e0c51632f350feab88ee7 OP_EQUAL", "type": "scripthash"}, "value": 0.00127, "n": 0}, {"scriptPubKey": {"reqSigs": 1, "hex": "76a914e349bc52d6b8100b58d3fce45135a91c5c128a1d88ac", "addresses": ["1MiningDkXkhKaXBTMKXfLemnk1YY5rbkT"], "asm": "OP_DUP OP_HASH160 e349bc52d6b8100b58d3fce45135a91c5c128a1d OP_EQUALVERIFY OP_CHECKSIG", "type": "pubkeyhash"}, "value": 1.71551098, "n": 1}], "hex": "020000000166a0e8522eb1d26a885d34a71ce68d372c969421ddd542a58152010e38f61e8c010000008b48304502210092ac7f18e78d0291d39a5496f980d8f3443512d4b541863f4da673a26d674f0302207d2b5135439da38acead952fffe4d71e0c3edc6fcb4be97d1c4fdaec482f0155014104ae414abde7876c34e01694b38b2341d10b9b4c8db18a66262bd8df26bcb57893885c9fe8b79aa25330d5f05bb5aa9ab636a908a72e27956572b44190b22809beffffffff0218f001000000000017a914dc42fe7742da349c2b0e0c51632f350feab88ee7877aa9390a000000001976a914e349bc52d6b8100b58d3fce45135a91c5c128a1d88ac00000000", "vin": [{"sequence": 4294967295, "scriptSig": {"hex": "48304502210092ac7f18e78d0291d39a5496f980d8f3443512d4b541863f4da673a26d674f0302207d2b5135439da38acead952fffe4d71e0c3edc6fcb4be97d1c4fdaec482f0155014104ae414abde7876c34e01694b38b2341d10b9b4c8db18a66262bd8df26bcb57893885c9fe8b79aa25330d5f05bb5aa9ab636a908a72e27956572b44190b22809be", "asm": "304502210092ac7f18e78d0291d39a5496f980d8f3443512d4b541863f4da673a26d674f0302207d2b5135439da38acead952fffe4d71e0c3edc6fcb4be97d1c4fdaec482f0155[ALL] 04ae414abde7876c34e01694b38b2341d10b9b4c8db18a66262bd8df26bcb57893885c9fe8b79aa25330d5f05bb5aa9ab636a908a72e27956572b44190b22809be"}, "vout": 1, "txid": "8c1ef6380e015281a542d5dd2194962c378de61ca7345d886ad2b12e52e8a066"}], "txid": "b7822cf980c1c6176555f530c66b114dcecaa905df37cd149af1e8f284c6fb6b", "blocktime": 1537870268, "version": 2, "confirmations": 11518, "time": 1537870268, "locktime": 0, "vsize": 256, "size": 256}