{"hash": "b5d56bd5bce44167fa06322397ddc108df9fbfba69169790b0983cdd7f0815b0", "blockhash": "00000000000000000017f5eb5941039fbcee6240d03bc1f2f8e35350df66a1d8", "vout": [{"scriptPubKey": {"reqSigs": 1, "hex": "76a914467136a0855e2b00041b42b0bbcb1f078143f42188ac", "addresses": ["17RTvdfZRgr73EM9ZqGjAVAoC9uneNReh5"], "asm": "OP_DUP OP_HASH160 467136a0855e2b00041b42b0bbcb1f078143f421 OP_EQUALVERIFY OP_CHECKSIG", "type": "pubkeyhash"}, "value": 0.0466856, "n": 0}, {"scriptPubKey": {"reqSigs": 1, "hex": "a914cf773f0043a7ce3bc2e14eb34875e67e8e258a4f87", "addresses": ["3Lbzecj6DG8NE3DgR8k8k6su6zmFYKnVWR"], "asm": "OP_HASH160 cf773f0043a7ce3bc2e14eb34875e67e8e258a4f OP_EQUAL", "type": "scripthash"}, "value": 0.06249102, "n": 1}], "hex": "01000000000101fe97b07a4367699b64f5020032c8a8f214ce72f0027fa6dec96bf18df25654120100000017160014aba6b2eae3b90ed65c8549f4b34023cf30d553d1ffffffff02903c4700000000001976a914467136a0855e2b00041b42b0bbcb1f078143f42188ac8e5a5f000000000017a914cf773f0043a7ce3bc2e14eb34875e67e8e258a4f8702483045022100e8ce5d9eb325ff44cae8e22a3fd4d3f16f96851538038a488fc72a98777ff2f5022033d8ad9437984bf903ebc12b274c1c451b40ac309039b0bc8e68fb85d95429670121024030a9e95fd304b6d7e7e38b21e148398d06bc707b864901b2c86800bf3c5d0400000000", "vin": [{"txinwitness": ["3045022100e8ce5d9eb325ff44cae8e22a3fd4d3f16f96851538038a488fc72a98777ff2f5022033d8ad9437984bf903ebc12b274c1c451b40ac309039b0bc8e68fb85d954296701", "024030a9e95fd304b6d7e7e38b21e148398d06bc707b864901b2c86800bf3c5d04"], "sequence": 4294967295, "scriptSig": {"hex": "160014aba6b2eae3b90ed65c8549f4b34023cf30d553d1", "asm": "0014aba6b2eae3b90ed65c8549f4b34023cf30d553d1"}, "vout": 1, "txid": "125456f28df16bc9dea67f02f072ce14f2a8c8320002f5649b6967437ab097fe"}], "txid": "b783627f31a6bab2e182a592ba15289e7cfd44d2490e3a7d3eab52341ab775f1", "blocktime": 1537874412, "version": 1, "confirmations": 11468, "time": 1537874412, "locktime": 0, "vsize": 168, "size": 250}