{"hash": "501e703872b6d4303be6777ff5fc161a8f9fa9df158dd479ab9bcee3e42f9741", "blockhash": "0000000000000000000baef3f32e3676a92c3b2e5da21b426e4f302fc371ce76", "vout": [{"scriptPubKey": {"reqSigs": 1, "hex": "a914711da4b57cd9ae5e674a739a45111ff3ebc5148187", "addresses": ["3C17nsygMw8wV8FUVJ5tfBNFRhcgvhxz2w"], "asm": "OP_HASH160 711da4b57cd9ae5e674a739a45111ff3ebc51481 OP_EQUAL", "type": "scripthash"}, "value": 0.0200601, "n": 0}, {"scriptPubKey": {"reqSigs": 1, "hex": "a914e46450d211687616fbac184b46bdd0c90104081987", "addresses": ["3NWeALawft6tLp3yqHV1RvBr1kBprkZLn9"], "asm": "OP_HASH160 e46450d211687616fbac184b46bdd0c901040819 OP_EQUAL", "type": "scripthash"}, "value": 0.1448542, "n": 1}], "hex": "02000000000101b405c15e15700cf10beee148ff70acd428aa80a6f0087dcf4e0f3ea10275f23000000000171600141baea89ce884b889701f3a442dfe5253f525b98afdffffff02fa9b1e000000000017a914711da4b57cd9ae5e674a739a45111ff3ebc5148187ac07dd000000000017a914e46450d211687616fbac184b46bdd0c9010408198702473044022002b1e713e2a3141eb8638a323c228f6ce41059e25b5d002e216f32287ebc1649022052b3933d6b87640bbc6b8177911c53fd4196e466ea96b9449d5c4215e752231501210215a9b3031091724c647296282c3520de53e43fa252ed0b9ec9fda4fe686323b1f5480800", "vin": [{"txinwitness": ["3044022002b1e713e2a3141eb8638a323c228f6ce41059e25b5d002e216f32287ebc1649022052b3933d6b87640bbc6b8177911c53fd4196e466ea96b9449d5c4215e752231501", "0215a9b3031091724c647296282c3520de53e43fa252ed0b9ec9fda4fe686323b1"], "sequence": 4294967293, "scriptSig": {"hex": "1600141baea89ce884b889701f3a442dfe5253f525b98a", "asm": "00141baea89ce884b889701f3a442dfe5253f525b98a"}, "vout": 0, "txid": "30f27502a13e0f4ecf7d08f0a680aa28d4ac70ff48e1ee0bf10c70155ec105b4"}], "txid": "b78483aa21384cca59e816526f5dfd36572cee8145c4cda0a5f1032a3accdb1d", "blocktime": 1537876114, "version": 2, "confirmations": 11460, "time": 1537876114, "locktime": 542965, "vsize": 166, "size": 247}