{"hash": "b9a6e72b63107dbe47aba68a35f61e740832f4830a2be5da94d1eb433a442113", "blockhash": "0000000000000000000baef3f32e3676a92c3b2e5da21b426e4f302fc371ce76", "vout": [{"scriptPubKey": {"reqSigs": 1, "hex": "76a914ff80e6e079aad10a04f92640554515964c45d10488ac", "addresses": ["1QHyjBAMBLFvjxtV25GT11AgzMAaukSwKP"], "asm": "OP_DUP OP_HASH160 ff80e6e079aad10a04f92640554515964c45d104 OP_EQUALVERIFY OP_CHECKSIG", "type": "pubkeyhash"}, "value": 0.01053228, "n": 0}, {"scriptPubKey": {"reqSigs": 1, "hex": "a9149649ad6d2730bb28020a268d9d80df10a9f74ad487", "addresses": ["3FPfYWwfMfKMGY7fuPHvz2b73RhTNGzsm3"], "asm": "OP_HASH160 9649ad6d2730bb28020a268d9d80df10a9f74ad4 OP_EQUAL", "type": "scripthash"}, "value": 13.72007114, "n": 1}], "hex": "01000000000101a3d126ad63e86f0b14ee0ffaad9245cd2bdbfd38287b8ce44529e807421851d401000000232200207768efcc1e5eb3d28410fac3f45831004c860cc24cddd940a616b34324823fceffffffff022c121000000000001976a914ff80e6e079aad10a04f92640554515964c45d10488acca2ac7510000000017a9149649ad6d2730bb28020a268d9d80df10a9f74ad487040047304402205964f4f1f0060c738a883aaf965a5ceb0278a58139ef3661c8a96c64c1d81887022061e77e96ce16205bf0e07916d85c87a464953860133f75c8198f1dc4a61b77b8014730440220192884c5151fa3f49eaa3cabc9e4add584893071ff8f25f829497824252b2ba1022013d757efcdc2b9a06238139651489c354a7cfabf4b8eb84f7b64d6db06c1f7470147522102529d5d1f6733ab45d9d50e07db42c7f6b967ae321c38b726c2247f149959b8262103d0c936a5988dd8421c63240496b723b0ec42400c38b9350e32c2eb4f47d8796952ae00000000", "vin": [{"txinwitness": ["", "304402205964f4f1f0060c738a883aaf965a5ceb0278a58139ef3661c8a96c64c1d81887022061e77e96ce16205bf0e07916d85c87a464953860133f75c8198f1dc4a61b77b801", "30440220192884c5151fa3f49eaa3cabc9e4add584893071ff8f25f829497824252b2ba1022013d757efcdc2b9a06238139651489c354a7cfabf4b8eb84f7b64d6db06c1f74701", "522102529d5d1f6733ab45d9d50e07db42c7f6b967ae321c38b726c2247f149959b8262103d0c936a5988dd8421c63240496b723b0ec42400c38b9350e32c2eb4f47d8796952ae"], "sequence": 4294967295, "scriptSig": {"hex": "2200207768efcc1e5eb3d28410fac3f45831004c860cc24cddd940a616b34324823fce", "asm": "00207768efcc1e5eb3d28410fac3f45831004c860cc24cddd940a616b34324823fce"}, "vout": 1, "txid": "d451184207e82945e48c7b2838fddb2bcd4592adfa0fee140b6fe863ad26d1a3"}], "txid": "b78b93a9e93e594dfe3a34cfdc7aac947a5b84339e19c9a0bd80b2a623340890", "blocktime": 1537876114, "version": 1, "confirmations": 11462, "time": 1537876114, "locktime": 0, "vsize": 207, "size": 372}