{"hash": "b78e3d8043b18c2730624925ec4be5c8ee91ef89806aa0b852bb83e810e3dbfc", "blockhash": "0000000000000000000dcc0f55137456b1a82d3642486a52398922ac4d620174", "vout": [{"scriptPubKey": {"reqSigs": 1, "hex": "76a914ca7c93f5d3a5503af3c150544013610b596a574088ac", "addresses": ["1KTejaaBuQomzzR5rKLmAgdWJw4ZqpZNfg"], "asm": "OP_DUP OP_HASH160 ca7c93f5d3a5503af3c150544013610b596a5740 OP_EQUALVERIFY OP_CHECKSIG", "type": "pubkeyhash"}, "value": 0.0026, "n": 0}, {"scriptPubKey": {"reqSigs": 1, "hex": "76a9148eed3eb7412bdf9859c2e1b3f439e4bdf7678a0388ac", "addresses": ["1E2jAK16vruzGYGiFAfmPkDigLY2Uof2H4"], "asm": "OP_DUP OP_HASH160 8eed3eb7412bdf9859c2e1b3f439e4bdf7678a03 OP_EQUALVERIFY OP_CHECKSIG", "type": "pubkeyhash"}, "value": 0.0037324, "n": 1}], "hex": "0100000001dc23fa178fdb789330c161ebff1c34c5744e6973b16d13dca1478e7cbc9be9cb010000006b483045022100bfe240bee537c1b9a79c0a231b555ba4cf200fc60b1d580bee61878a19d0fd1402205ace90123f599db43872618846de927a4186b44157d3437bb5a61fd23e7a526a0121032c4a45a623b063ccbaf90c2bb450ee7b1354c0afaa8336fffcfc5102f4b71088fdffffff02a0f70300000000001976a914ca7c93f5d3a5503af3c150544013610b596a574088acf8b10500000000001976a9148eed3eb7412bdf9859c2e1b3f439e4bdf7678a0388ac0c490800", "vin": [{"sequence": 4294967293, "scriptSig": {"hex": "483045022100bfe240bee537c1b9a79c0a231b555ba4cf200fc60b1d580bee61878a19d0fd1402205ace90123f599db43872618846de927a4186b44157d3437bb5a61fd23e7a526a0121032c4a45a623b063ccbaf90c2bb450ee7b1354c0afaa8336fffcfc5102f4b71088", "asm": "3045022100bfe240bee537c1b9a79c0a231b555ba4cf200fc60b1d580bee61878a19d0fd1402205ace90123f599db43872618846de927a4186b44157d3437bb5a61fd23e7a526a[ALL] 032c4a45a623b063ccbaf90c2bb450ee7b1354c0afaa8336fffcfc5102f4b71088"}, "vout": 1, "txid": "cbe99bbc7c8e47a1dc136db173694e74c5341cffeb61c1309378db8f17fa23dc"}], "txid": "b78e3d8043b18c2730624925ec4be5c8ee91ef89806aa0b852bb83e810e3dbfc", "blocktime": 1537870268, "version": 1, "confirmations": 11516, "time": 1537870268, "locktime": 542988, "vsize": 226, "size": 226}