{"hash": "f7ad09f824ce65b020f1e98e28bebb4e1053a31734eee201eaa293792a1c873b", "blockhash": "00000000000000000018f53835495a110e01622372bf6ae95dc86f2b0ab887b0", "vout": [{"scriptPubKey": {"reqSigs": 1, "hex": "a91454d505c26e207e75166d52a175f7cbd9e26ffff587", "addresses": ["39RZsiiqrXZmuYPamexkjtSzdaPsCUnTpi"], "asm": "OP_HASH160 54d505c26e207e75166d52a175f7cbd9e26ffff5 OP_EQUAL", "type": "scripthash"}, "value": 1.71337136, "n": 0}, {"scriptPubKey": {"reqSigs": 1, "hex": "a91401ea02d47a917d1538d0951f64e6c7bbedab78a287", "addresses": ["31s8w7Fx1MQKbMfGK1VdS3G4TpppaPrDAa"], "asm": "OP_HASH160 01ea02d47a917d1538d0951f64e6c7bbedab78a2 OP_EQUAL", "type": "scripthash"}, "value": 0.0023716, "n": 1}], "hex": "010000000001014592d89b44489abcfe56e0fa85ec93e4ffb0addb930bbdd7adaef31e0d34e46701000000232200200bed1d6f594259ec273c5b5e6c8c00c41f409f0cfcc55dbeb450cefdc8cbd548ffffffff02b065360a0000000017a91454d505c26e207e75166d52a175f7cbd9e26ffff587689e03000000000017a91401ea02d47a917d1538d0951f64e6c7bbedab78a28704004730440220034c0925a7e215601ab97c4f713a25fb77a48737d97675aaba35bf3e0fc66e8a02206e7183019afac9ced579f9201f6ae60337aab69d67842089b53316c48c1793bd01473044022079e7073b4117a8995f688ef0492963499b72af6e92776e04c5329dcf8338d122022046f2761bc4cf68d8f0044a2c47400c25235c570e086dfa5ca50d63e2dabf6b1f0169522102063200ad3aad8def26f64a9cbe0a8c32d5bd600603e37e2abf767fc87a2fb79b2102bfd67e3b4457e8a68fce059f6936360cc12de775b7bd1723092f11087635975c2103c203d61c1dc551b9e6904bfc13292cbab5f9622119f5e00743ee89ef3b71fdf153ae00000000", "vin": [{"txinwitness": ["", "30440220034c0925a7e215601ab97c4f713a25fb77a48737d97675aaba35bf3e0fc66e8a02206e7183019afac9ced579f9201f6ae60337aab69d67842089b53316c48c1793bd01", "3044022079e7073b4117a8995f688ef0492963499b72af6e92776e04c5329dcf8338d122022046f2761bc4cf68d8f0044a2c47400c25235c570e086dfa5ca50d63e2dabf6b1f01", "522102063200ad3aad8def26f64a9cbe0a8c32d5bd600603e37e2abf767fc87a2fb79b2102bfd67e3b4457e8a68fce059f6936360cc12de775b7bd1723092f11087635975c2103c203d61c1dc551b9e6904bfc13292cbab5f9622119f5e00743ee89ef3b71fdf153ae"], "sequence": 4294967295, "scriptSig": {"hex": "2200200bed1d6f594259ec273c5b5e6c8c00c41f409f0cfcc55dbeb450cefdc8cbd548", "asm": "00200bed1d6f594259ec273c5b5e6c8c00c41f409f0cfcc55dbeb450cefdc8cbd548"}, "vout": 1, "txid": "67e4340d1ef3aeadd7bd0b93dbadb0ffe493ec85fae056febc9a48449bd89245"}], "txid": "b7906fb98f52ede5a3774e00c16722cc6a0c1f3e4af9eed652a7f2f52b00af5d", "blocktime": 1537870928, "version": 1, "confirmations": 11512, "time": 1537870928, "locktime": 0, "vsize": 214, "size": 404}