{"hash": "b79b8f8edc838756747ec879158f4ccb47bf8327281fec27e47462c53592419d", "blockhash": "0000000000000000000baef3f32e3676a92c3b2e5da21b426e4f302fc371ce76", "vout": [{"scriptPubKey": {"reqSigs": 1, "hex": "76a914bf45b81a217e9806e05a835f2af353092c758b6688ac", "addresses": ["1JSMap3AQoSKqidNexFwPiQYjaop6LrQWw"], "asm": "OP_DUP OP_HASH160 bf45b81a217e9806e05a835f2af353092c758b66 OP_EQUALVERIFY OP_CHECKSIG", "type": "pubkeyhash"}, "value": 0.00630719, "n": 0}, {"scriptPubKey": {"type": "nulldata", "hex": "6a4c500000782a000153859a53cab2d46ba22edb7b27b7256b4774d339f6019d6ddc0f1b8ff117eae40cebdb6a3375ae57fb1ddc5e1e0c5baa1ea20614346d0f2803d91d100759d4ba30d2c37bb011d97e02cf", "asm": "OP_RETURN 0000782a000153859a53cab2d46ba22edb7b27b7256b4774d339f6019d6ddc0f1b8ff117eae40cebdb6a3375ae57fb1ddc5e1e0c5baa1ea20614346d0f2803d91d100759d4ba30d2c37bb011d97e02cf"}, "value": 0.0, "n": 1}], "hex": "0100000001d401f6a41d3d8f17c0dcc585bc092e5c092311e4cca6a19c0410a6579f25c972000000006b483045022100aa5a7b52e016c44ed4099ab5f64cb472c2afaba9cc503cd84274b7aba03ad1ac02202edd0689a241c620ba9e827d1b92dae4142a3a17d63242821b84831d5603c48c01210312d03fadfb06e5630ad6b9665a88f3e89d1cf1f1a8fd39a6921b84724021b174ffffffff02bf9f0900000000001976a914bf45b81a217e9806e05a835f2af353092c758b6688ac0000000000000000536a4c500000782a000153859a53cab2d46ba22edb7b27b7256b4774d339f6019d6ddc0f1b8ff117eae40cebdb6a3375ae57fb1ddc5e1e0c5baa1ea20614346d0f2803d91d100759d4ba30d2c37bb011d97e02cf00000000", "vin": [{"sequence": 4294967295, "scriptSig": {"hex": "483045022100aa5a7b52e016c44ed4099ab5f64cb472c2afaba9cc503cd84274b7aba03ad1ac02202edd0689a241c620ba9e827d1b92dae4142a3a17d63242821b84831d5603c48c01210312d03fadfb06e5630ad6b9665a88f3e89d1cf1f1a8fd39a6921b84724021b174", "asm": "3045022100aa5a7b52e016c44ed4099ab5f64cb472c2afaba9cc503cd84274b7aba03ad1ac02202edd0689a241c620ba9e827d1b92dae4142a3a17d63242821b84831d5603c48c[ALL] 0312d03fadfb06e5630ad6b9665a88f3e89d1cf1f1a8fd39a6921b84724021b174"}, "vout": 0, "txid": "72c9259f57a610049ca1a6cce41123095c2e09bc85c5dcc0178f3d1da4f601d4"}], "txid": "b79b8f8edc838756747ec879158f4ccb47bf8327281fec27e47462c53592419d", "blocktime": 1537876114, "version": 1, "confirmations": 11462, "time": 1537876114, "locktime": 0, "vsize": 284, "size": 284}