{"hash": "b7ae9af50827dd5614662223e208f9862922a6e3cafbed0ef082e04214e486df", "blockhash": "0000000000000000000baef3f32e3676a92c3b2e5da21b426e4f302fc371ce76", "vout": [{"scriptPubKey": {"reqSigs": 1, "hex": "76a914d243e6abb9a60fbff430b421d2df4b7d59ec186088ac", "addresses": ["1LAnF8h3qMGx3TSwNUHVneBZUEpwE4gu3D"], "asm": "OP_DUP OP_HASH160 d243e6abb9a60fbff430b421d2df4b7d59ec1860 OP_EQUALVERIFY OP_CHECKSIG", "type": "pubkeyhash"}, "value": 0.00077314, "n": 0}, {"scriptPubKey": {"reqSigs": 1, "hex": "76a914ffc36dda45b23a9c85d8d30f877686d6dfce31db88ac", "addresses": ["1QKMRa2nWmsDPZqXcfqhQqEbWnFQZf3dRp"], "asm": "OP_DUP OP_HASH160 ffc36dda45b23a9c85d8d30f877686d6dfce31db OP_EQUALVERIFY OP_CHECKSIG", "type": "pubkeyhash"}, "value": 5.46e-06, "n": 1}, {"scriptPubKey": {"type": "nulldata", "hex": "6a146f6d6e69000000000000001f000000157adeb950", "asm": "OP_RETURN 6f6d6e69000000000000001f000000157adeb950"}, "value": 0.0, "n": 2}], "hex": "010000000187ab1512e7aad936babe08cc7803b649e6692c122fd75de52f1028b3e0f4dcb9000000006b483045022100e9b4eb644c295d6c7ba57c0d4948c5b054fe884a0fe37d844cb211d6be509615022049a400c35a10de7c029aa3da557f332e6bca14865fee2b67703c8f70aa1fd1c301210271977291b74f1f5f5c42157e8aae804664eaaeccfd097918450d37f28fb94d77ffffffff03022e0100000000001976a914d243e6abb9a60fbff430b421d2df4b7d59ec186088ac22020000000000001976a914ffc36dda45b23a9c85d8d30f877686d6dfce31db88ac0000000000000000166a146f6d6e69000000000000001f000000157adeb95000000000", "vin": [{"sequence": 4294967295, "scriptSig": {"hex": "483045022100e9b4eb644c295d6c7ba57c0d4948c5b054fe884a0fe37d844cb211d6be509615022049a400c35a10de7c029aa3da557f332e6bca14865fee2b67703c8f70aa1fd1c301210271977291b74f1f5f5c42157e8aae804664eaaeccfd097918450d37f28fb94d77", "asm": "3045022100e9b4eb644c295d6c7ba57c0d4948c5b054fe884a0fe37d844cb211d6be509615022049a400c35a10de7c029aa3da557f332e6bca14865fee2b67703c8f70aa1fd1c3[ALL] 0271977291b74f1f5f5c42157e8aae804664eaaeccfd097918450d37f28fb94d77"}, "vout": 0, "txid": "b9dcf4e0b328102fe55dd72f122c69e649b60378cc08beba36d9aae71215ab87"}], "txid": "b7ae9af50827dd5614662223e208f9862922a6e3cafbed0ef082e04214e486df", "blocktime": 1537876114, "version": 1, "confirmations": 11460, "time": 1537876114, "locktime": 0, "vsize": 257, "size": 257}