{"hash": "8a062b22d83ffb5c4e6082dc7cfbc29e3d2c0c8bc344fd3f0b9aa601638e917c", "blockhash": "0000000000000000001cda96e906b7601b7a6fb1a3b62bca570a9e5d8f4b3de1", "vout": [{"scriptPubKey": {"reqSigs": 1, "hex": "a9142b998e4944f58cebd762acde49a6058206c0537887", "addresses": ["35fYw36Hw6CcxWgJtmUnaPLe6cGpBgLx2W"], "asm": "OP_HASH160 2b998e4944f58cebd762acde49a6058206c05378 OP_EQUAL", "type": "scripthash"}, "value": 0.11, "n": 0}, {"scriptPubKey": {"reqSigs": 1, "hex": "a914ea645e5e20987adfaa9d5fa4a915d008965f102387", "addresses": ["3P4NHAbib3uvj6QNYmPWqEJMZnx4HzszTp"], "asm": "OP_HASH160 ea645e5e20987adfaa9d5fa4a915d008965f1023 OP_EQUAL", "type": "scripthash"}, "value": 0.01003451, "n": 1}], "hex": "0200000000010a2350060516c9c775f78bd78a4f04eb8675a2630238fdd274970eb712a3c3aa4a00000000171600147ccb0864a290e2cdb22db675f8911292b1a77646fffffffff45e9b3c46d625bf27707f65b451feef1614c7941cb3f238b0e8099593b03d420c000000171600140dc1b420120d0a32dbe253dec1bed0707cf217c3fffffffff45e9b3c46d625bf27707f65b451feef1614c7941cb3f238b0e8099593b03d420900000017160014b594aea98e0c6b738518917380a13a94ef5d24a8ffffffffe80fe32e16689d1d88bdd2ecca87ab72af95e1d50da698492197da3672378e7b1c00000017160014460a8e52d35a2a02cf8c2beaf759843278587cf6ffffffff90b3192188f877476175aa7f5225e761c8188f2d71b6df7613af4a3541ba990b0a00000017160014c0a62ea5f169d7f74629fcf3e9fc729437a5198fffffffff795d394f09ea541e9dbc76b74b9781e33a99c89f25c83a64ec1f85326a2ee1c50700000017160014f77edb2de6cb6f37611962cd73fb348d271a522dffffffffb627759848b0d0afb8cb2fc93c5bbe0fb2a298b77a04170272f60f5e75d0429a03000000171600142cb723bb1f9887d9939599148589fb6d28dcad5affffffff954e4134cd73541cf9d2e931d24dbf66f1b777fdb7f74f26db152ea9f4b977c30200000017160014d8551993a13268dd3b1ec11e813e5fd06aaf00f3ffffffff0193d6546e0b81e633b15c062b7b916ba90d806a1660455d478e965bbdb3e9c50f00000017160014a7b24ef0e4768dfd6ff3d32b609aa17013aec784ffffffff821329d35a9fb7afe47df6eb18c9eef847c39c132d0b56ee4458e2ffe0e0510c02000000171600144d50dce619c598732fae7c25b8fd4a9620f29bcfffffffff02c0d8a7000000000017a9142b998e4944f58cebd762acde49a6058206c0537887bb4f0f000000000017a914ea645e5e20987adfaa9d5fa4a915d008965f10238702473044022041ea3250a01d7cf35fcfa4f9f0b7cdb7009dd912777a46ea51b4b374da2fd6ee0220063d08cdb1b5b2dad03217455950be302ba0a45be56b072ff756137600eb763c012102e189d44e9bf6525570aac57ffe91495c8f5aec6f2545150fbe08e0fd41db7e3e02473044022004c4a31c6f7d3dd91b84ff397ed601875e2242443b9cef9d15f722e8b262ab41022011ad0494682f94c44852e40287cd1714e82711fa1a6f84d3bb67ad29289248660121021be6fa52cd070d02cfe04d3d9d4c02c5b7809adbd936e9135b3b6c4889b67cfe02483045022100f795da838725e2ecf7860dad709131cacdb5eb1cc74e0ad011905457282b6215022070d2b9085aacc02d5d318eeebac80f42aff30ce727bc0db45961db5b46be9be301210274142093d5de580c1aae8246b84af3a91ca515eb56167c85293da3ab1ca1610b0247304402206d647c1de90f72fd84825af5d36902a894cd9d8fb9576d20181080e2fd9596420220106d583b1909778e78250298077db1e5e2409e6265978a969c58f56acc26c512012102f1ed972f220df0e13dd2ca3044188b4f78f36803b5e25e124154dbfb73bcb542024730440220025ef8a5407b07dd9105e541de81be76f563235e1758416542f1cec6d4e5025a0220169334aeb56f33223a607038742434c0b4450413f228646e1154db75bfcbad6501210372ccdd2396da92ef9f9cab61a1fa1c1868b03759e0dd368ec13844f59c473b720247304402207ac1264e0adf9aef0cffc00380a16ad388d276b2436633db827f14e3f65815e002205e5369ea1533fd9e25ba93a0592d80411e7d394d6cce3d7e9250045d05be4da9012103ecacb0a43538969107aa485b4d91ff08d2793a0d938bd76e26cbc4cf9a555bcf024730440220648a84f87d7d9aba1f8e7d7283787108caed3889bc2735a0865b83a6dd12e092022021d690a56812b407b4f9b22b353438af6a419a3b3b7e2f5d6b78e20b102291e50121036be63ad69ca3d1a974b2faed9f8a61384331f1ff482c7b51d88cb93f23b8133002473044022066bfd58711a31ee6e3ea48701b8d133d40d2708f7ab75be80187c83c9d1368700220523c1f7d4d83ebab930c171112b5724eed70b9f177d7d4eed2a11c15cb4cef310121023106a0658a46543b2aed1e9074151b8e4c4915e19047465b231db22bedfe8edf02483045022100d581d217128afd6acce0087244eb2d8a36419091c1bcc9ca8c12b3c2a0510ee5022066a84f41d50e954897e447af8d3819917d866d383ae57c0a8e9b995b9051658f012103bbca76e434e981be6194e2df545ea263b548dc11c2c734c0cb9e21776352eb15024730440220500ab00657c9a9347870504a9a727f7e9291e1d7f46af426e60d5e0730e313ee02200adb9ddfad76dec93a0ed03ad0267eb4958b13af0f655e63735dcda48433f7900121021299e6cc9425411221912fe915f2ae52d69b65c2d3908b6029d609bce2d9799900000000", "vin": [{"txinwitness": ["3044022041ea3250a01d7cf35fcfa4f9f0b7cdb7009dd912777a46ea51b4b374da2fd6ee0220063d08cdb1b5b2dad03217455950be302ba0a45be56b072ff756137600eb763c01", "02e189d44e9bf6525570aac57ffe91495c8f5aec6f2545150fbe08e0fd41db7e3e"], "sequence": 4294967295, "scriptSig": {"hex": "1600147ccb0864a290e2cdb22db675f8911292b1a77646", "asm": "00147ccb0864a290e2cdb22db675f8911292b1a77646"}, "vout": 0, "txid": "4aaac3a312b70e9774d2fd380263a27586eb044f8ad78bf775c7c91605065023"}, {"txinwitness": ["3044022004c4a31c6f7d3dd91b84ff397ed601875e2242443b9cef9d15f722e8b262ab41022011ad0494682f94c44852e40287cd1714e82711fa1a6f84d3bb67ad292892486601", "021be6fa52cd070d02cfe04d3d9d4c02c5b7809adbd936e9135b3b6c4889b67cfe"], "sequence": 4294967295, "scriptSig": {"hex": "1600140dc1b420120d0a32dbe253dec1bed0707cf217c3", "asm": "00140dc1b420120d0a32dbe253dec1bed0707cf217c3"}, "vout": 12, "txid": "423db0939509e8b038f2b31c94c71416effe51b4657f7027bf25d6463c9b5ef4"}, {"txinwitness": ["3045022100f795da838725e2ecf7860dad709131cacdb5eb1cc74e0ad011905457282b6215022070d2b9085aacc02d5d318eeebac80f42aff30ce727bc0db45961db5b46be9be301", "0274142093d5de580c1aae8246b84af3a91ca515eb56167c85293da3ab1ca1610b"], "sequence": 4294967295, "scriptSig": {"hex": "160014b594aea98e0c6b738518917380a13a94ef5d24a8", "asm": "0014b594aea98e0c6b738518917380a13a94ef5d24a8"}, "vout": 9, "txid": "423db0939509e8b038f2b31c94c71416effe51b4657f7027bf25d6463c9b5ef4"}, {"txinwitness": ["304402206d647c1de90f72fd84825af5d36902a894cd9d8fb9576d20181080e2fd9596420220106d583b1909778e78250298077db1e5e2409e6265978a969c58f56acc26c51201", "02f1ed972f220df0e13dd2ca3044188b4f78f36803b5e25e124154dbfb73bcb542"], "sequence": 4294967295, "scriptSig": {"hex": "160014460a8e52d35a2a02cf8c2beaf759843278587cf6", "asm": "0014460a8e52d35a2a02cf8c2beaf759843278587cf6"}, "vout": 28, "txid": "7b8e377236da97214998a60dd5e195af72ab87caecd2bd881d9d68162ee30fe8"}, {"txinwitness": ["30440220025ef8a5407b07dd9105e541de81be76f563235e1758416542f1cec6d4e5025a0220169334aeb56f33223a607038742434c0b4450413f228646e1154db75bfcbad6501", "0372ccdd2396da92ef9f9cab61a1fa1c1868b03759e0dd368ec13844f59c473b72"], "sequence": 4294967295, "scriptSig": {"hex": "160014c0a62ea5f169d7f74629fcf3e9fc729437a5198f", "asm": "0014c0a62ea5f169d7f74629fcf3e9fc729437a5198f"}, "vout": 10, "txid": "0b99ba41354aaf1376dfb6712d8f18c861e725527faa75614777f8882119b390"}, {"txinwitness": ["304402207ac1264e0adf9aef0cffc00380a16ad388d276b2436633db827f14e3f65815e002205e5369ea1533fd9e25ba93a0592d80411e7d394d6cce3d7e9250045d05be4da901", "03ecacb0a43538969107aa485b4d91ff08d2793a0d938bd76e26cbc4cf9a555bcf"], "sequence": 4294967295, "scriptSig": {"hex": "160014f77edb2de6cb6f37611962cd73fb348d271a522d", "asm": "0014f77edb2de6cb6f37611962cd73fb348d271a522d"}, "vout": 7, "txid": "c5e12e6a32851fec643ac8259fc8993ae381974bb776bc9d1e54ea094f395d79"}, {"txinwitness": ["30440220648a84f87d7d9aba1f8e7d7283787108caed3889bc2735a0865b83a6dd12e092022021d690a56812b407b4f9b22b353438af6a419a3b3b7e2f5d6b78e20b102291e501", "036be63ad69ca3d1a974b2faed9f8a61384331f1ff482c7b51d88cb93f23b81330"], "sequence": 4294967295, "scriptSig": {"hex": "1600142cb723bb1f9887d9939599148589fb6d28dcad5a", "asm": "00142cb723bb1f9887d9939599148589fb6d28dcad5a"}, "vout": 3, "txid": "9a42d0755e0ff6720217047ab798a2b20fbe5b3cc92fcbb8afd0b048987527b6"}, {"txinwitness": ["3044022066bfd58711a31ee6e3ea48701b8d133d40d2708f7ab75be80187c83c9d1368700220523c1f7d4d83ebab930c171112b5724eed70b9f177d7d4eed2a11c15cb4cef3101", "023106a0658a46543b2aed1e9074151b8e4c4915e19047465b231db22bedfe8edf"], "sequence": 4294967295, "scriptSig": {"hex": "160014d8551993a13268dd3b1ec11e813e5fd06aaf00f3", "asm": "0014d8551993a13268dd3b1ec11e813e5fd06aaf00f3"}, "vout": 2, "txid": "c377b9f4a92e15db264ff7b7fd77b7f166bf4dd231e9d2f91c5473cd34414e95"}, {"txinwitness": ["3045022100d581d217128afd6acce0087244eb2d8a36419091c1bcc9ca8c12b3c2a0510ee5022066a84f41d50e954897e447af8d3819917d866d383ae57c0a8e9b995b9051658f01", "03bbca76e434e981be6194e2df545ea263b548dc11c2c734c0cb9e21776352eb15"], "sequence": 4294967295, "scriptSig": {"hex": "160014a7b24ef0e4768dfd6ff3d32b609aa17013aec784", "asm": "0014a7b24ef0e4768dfd6ff3d32b609aa17013aec784"}, "vout": 15, "txid": "c5e9b3bd5b968e475d4560166a800da96b917b2b065cb133e6810b6e54d69301"}, {"txinwitness": ["30440220500ab00657c9a9347870504a9a727f7e9291e1d7f46af426e60d5e0730e313ee02200adb9ddfad76dec93a0ed03ad0267eb4958b13af0f655e63735dcda48433f79001", "021299e6cc9425411221912fe915f2ae52d69b65c2d3908b6029d609bce2d97999"], "sequence": 4294967295, "scriptSig": {"hex": "1600144d50dce619c598732fae7c25b8fd4a9620f29bcf", "asm": "00144d50dce619c598732fae7c25b8fd4a9620f29bcf"}, "vout": 2, "txid": "0c51e0e0ffe25844ee560b2d139cc347f8eec918ebf67de4afb79f5ad3291382"}], "txid": "b7b0ae9c4fc722a09d7b9422f3ad6ccb8affb6863b0655b6325bc8c09e3e93df", "blocktime": 1537873282, "version": 2, "confirmations": 11480, "time": 1537873282, "locktime": 0, "vsize": 983, "size": 1788}