{"hash": "2b2c40809dd6a449937a3a376edb142841f414371bafe6fd96f0927baef4ef19", "blockhash": "00000000000000000024a2167bbff67b0be802c0b01cdd79e6331c2be6459f87", "vout": [{"scriptPubKey": {"reqSigs": 1, "hex": "a91494c9b17645644b20ce96a31238a2004ac9a7366087", "addresses": ["3FFjYpnK2qdaCvs1tfwKEqxTzhugbBi8Rm"], "asm": "OP_HASH160 94c9b17645644b20ce96a31238a2004ac9a73660 OP_EQUAL", "type": "scripthash"}, "value": 0.098784, "n": 0}], "hex": "010000000001028629b82dae9939e226459d5eef4f967baaab9701965873b5ccb4bd44bfd668e20800000017160014bdfdac52979677b77f4dfcb9df286d7eb9bd73b7ffffff00fabd0541469e7442dafb7d0ecf4516db6b09f19dd844d142d326df5259db74fe0500000017160014bdfdac52979677b77f4dfcb9df286d7eb9bd73b7ffffff000180bb96000000000017a91494c9b17645644b20ce96a31238a2004ac9a736608702483045022100e0de28a4628a61c3a79548d0d6e3eb0d5d6e5a8e6519480ea48d0cd0d6303863022029500c3cf5eea3889d7dbaebd7447e82446d1a698d962b8c274f9d9b391480e9012102e659366bc9cc38fc2107ec947c2ba06c6fe67487d09a94c80f06fc9ffd1f01b80247304402200a1ae2b26eaca9f627bb837410588aa0e908d904d94bcf81065302eee9ef3f4b022002a75a9d149a23781ba2b6d541bb816cbc12f2a14ccaae44f5dfddc5f07d5b4c012102e659366bc9cc38fc2107ec947c2ba06c6fe67487d09a94c80f06fc9ffd1f01b800000000", "vin": [{"txinwitness": ["3045022100e0de28a4628a61c3a79548d0d6e3eb0d5d6e5a8e6519480ea48d0cd0d6303863022029500c3cf5eea3889d7dbaebd7447e82446d1a698d962b8c274f9d9b391480e901", "02e659366bc9cc38fc2107ec947c2ba06c6fe67487d09a94c80f06fc9ffd1f01b8"], "sequence": 16777215, "scriptSig": {"hex": "160014bdfdac52979677b77f4dfcb9df286d7eb9bd73b7", "asm": "0014bdfdac52979677b77f4dfcb9df286d7eb9bd73b7"}, "vout": 8, "txid": "e268d6bf44bdb4ccb57358960197abaa7b964fef5e9d4526e23999ae2db82986"}, {"txinwitness": ["304402200a1ae2b26eaca9f627bb837410588aa0e908d904d94bcf81065302eee9ef3f4b022002a75a9d149a23781ba2b6d541bb816cbc12f2a14ccaae44f5dfddc5f07d5b4c01", "02e659366bc9cc38fc2107ec947c2ba06c6fe67487d09a94c80f06fc9ffd1f01b8"], "sequence": 16777215, "scriptSig": {"hex": "160014bdfdac52979677b77f4dfcb9df286d7eb9bd73b7", "asm": "0014bdfdac52979677b77f4dfcb9df286d7eb9bd73b7"}, "vout": 5, "txid": "fe74db5952df26d342d144d89df1096bdb1645cf0e7dfbda42749e464105bdfa"}], "txid": "b7b44070dd9e8543d10f73ae155c9c73e0edafe23ac7203542a59c4a20436215", "blocktime": 1537870564, "version": 1, "confirmations": 11515, "time": 1537870564, "locktime": 0, "vsize": 225, "size": 387}