{"hash": "b7b5d726e3d5f4c1f80d27b1b351bd66a1a3d3a3f49830f72dba5579b820cbc1", "blockhash": "00000000000000000017f5eb5941039fbcee6240d03bc1f2f8e35350df66a1d8", "vout": [{"scriptPubKey": {"reqSigs": 1, "hex": "a9143130c75a20c533f688821fc8be1687a1616ccd9e87", "addresses": ["36B7U9YzM6TTBAwWqFUTSpDtYppUvnJw9G"], "asm": "OP_HASH160 3130c75a20c533f688821fc8be1687a1616ccd9e OP_EQUAL", "type": "scripthash"}, "value": 0.1601621, "n": 0}, {"scriptPubKey": {"reqSigs": 1, "hex": "76a91439d173a695e1d08ba9113508fd894e64062def8488ac", "addresses": ["16GiRu5BNjpKRoxZ2p42s9RwMRmMtKmmy9"], "asm": "OP_DUP OP_HASH160 39d173a695e1d08ba9113508fd894e64062def84 OP_EQUALVERIFY OP_CHECKSIG", "type": "pubkeyhash"}, "value": 0.24582278, "n": 1}], "hex": "0100000001bc6b2617a518e89d6fc8f400b98a88ab04b527bde54f4fad6443da6cd9dd50d3010000006a47304402201ffed2f103e41c5a6d044f230bc5960cf4aa71f98256dc7ca274ef198278edbc02206e3978704fad29568bbabe26855d0dc3ddb635f3e89d9270691c037539d39973012102536e0c57fccbbab662dafec77697a41020b9ad55ef9c49b002cd7533390a94cfffffffff025263f4000000000017a9143130c75a20c533f688821fc8be1687a1616ccd9e8786187701000000001976a91439d173a695e1d08ba9113508fd894e64062def8488ac00000000", "vin": [{"sequence": 4294967295, "scriptSig": {"hex": "47304402201ffed2f103e41c5a6d044f230bc5960cf4aa71f98256dc7ca274ef198278edbc02206e3978704fad29568bbabe26855d0dc3ddb635f3e89d9270691c037539d39973012102536e0c57fccbbab662dafec77697a41020b9ad55ef9c49b002cd7533390a94cf", "asm": "304402201ffed2f103e41c5a6d044f230bc5960cf4aa71f98256dc7ca274ef198278edbc02206e3978704fad29568bbabe26855d0dc3ddb635f3e89d9270691c037539d39973[ALL] 02536e0c57fccbbab662dafec77697a41020b9ad55ef9c49b002cd7533390a94cf"}, "vout": 1, "txid": "d350ddd96cda4364ad4f4fe5bd27b504ab888ab900f4c86f9de818a517266bbc"}], "txid": "b7b5d726e3d5f4c1f80d27b1b351bd66a1a3d3a3f49830f72dba5579b820cbc1", "blocktime": 1537874412, "version": 1, "confirmations": 11467, "time": 1537874412, "locktime": 0, "vsize": 223, "size": 223}