{"hash": "d8646b41a27c4094c731e933632da14899417644573e7183fe5a7462257e11e3", "blockhash": "00000000000000000018f53835495a110e01622372bf6ae95dc86f2b0ab887b0", "vout": [{"scriptPubKey": {"reqSigs": 1, "hex": "a914facb2574ef1671561767c3833b0cbcea6286b69487", "addresses": ["3QZ6DMXqZ9KNL3heZ51J7tehUK6iw8pfuL"], "asm": "OP_HASH160 facb2574ef1671561767c3833b0cbcea6286b694 OP_EQUAL", "type": "scripthash"}, "value": 0.04043419, "n": 0}, {"scriptPubKey": {"reqSigs": 1, "hex": "76a9145707255816fcf8f112f3a90f496ee41dfc977fb888ac", "addresses": ["18wAMCDWRbb9FuCow39U1gf15Km6oDoiL7"], "asm": "OP_DUP OP_HASH160 5707255816fcf8f112f3a90f496ee41dfc977fb8 OP_EQUALVERIFY OP_CHECKSIG", "type": "pubkeyhash"}, "value": 0.01559897, "n": 1}, {"scriptPubKey": {"reqSigs": 1, "hex": "76a91492ec627fa2ee79030444e998db9772decba5f9d888ac", "addresses": ["1EPrqJt9kMCX8f92VEfNfHWCCiF45a8A5H"], "asm": "OP_DUP OP_HASH160 92ec627fa2ee79030444e998db9772decba5f9d8 OP_EQUALVERIFY OP_CHECKSIG", "type": "pubkeyhash"}, "value": 0.997, "n": 2}, {"scriptPubKey": {"reqSigs": 1, "hex": "a914e488a9b1352428a2a084ae60be7f2b0d30f4858b87", "addresses": ["3NXPhnNYxjsE4Y7V27AvkoPzZGWVx7azdN"], "asm": "OP_HASH160 e488a9b1352428a2a084ae60be7f2b0d30f4858b OP_EQUAL", "type": "scripthash"}, "value": 0.10114965, "n": 3}], "hex": "010000000001014d5eb32fb791dc38fa7727e95bf3fef7a2e6655300d69dcb15632b6cf147b5b100000000171600141716ccd724dc2c2235926bd077b4a7ec9ecaba0fffffffff049bb23d000000000017a914facb2574ef1671561767c3833b0cbcea6286b6948759cd1700000000001976a9145707255816fcf8f112f3a90f496ee41dfc977fb888ac204df105000000001976a91492ec627fa2ee79030444e998db9772decba5f9d888ac95579a000000000017a914e488a9b1352428a2a084ae60be7f2b0d30f4858b870247304402202505055dc5acf1d31d33f9427e535c7ea1829fb369c223461916837f8dcf33ec022012f0dff3f4df1a079092dd9b68c0b78e1b974da6bd3f01c3233549e41c2e0a320121038c194b38832525fe70e19aa29618fdd07371f66e649745445ff40d9477d7217d00000000", "vin": [{"txinwitness": ["304402202505055dc5acf1d31d33f9427e535c7ea1829fb369c223461916837f8dcf33ec022012f0dff3f4df1a079092dd9b68c0b78e1b974da6bd3f01c3233549e41c2e0a3201", "038c194b38832525fe70e19aa29618fdd07371f66e649745445ff40d9477d7217d"], "sequence": 4294967295, "scriptSig": {"hex": "1600141716ccd724dc2c2235926bd077b4a7ec9ecaba0f", "asm": "00141716ccd724dc2c2235926bd077b4a7ec9ecaba0f"}, "vout": 0, "txid": "b1b547f16c2b6315cb9dd6005365e6a2f7fef35be92777fa38dc91b72fb35e4d"}], "txid": "b7b88c0583e8a7be50c8cb3b11664a8a437aaec3e5038847dd589b898721cd97", "blocktime": 1537870928, "version": 1, "confirmations": 11512, "time": 1537870928, "locktime": 0, "vsize": 234, "size": 315}