{"hash": "b7bd59a69066d550832bea7bd0a02d9f3284dbac5e87c0032e22de931ac5e2a9", "blockhash": "0000000000000000001f76057863aec43deb6fa401d9628bb513d65a8098bfab", "vout": [{"scriptPubKey": {"reqSigs": 1, "hex": "76a9141a4d516f0c0507d1fd0117ce530bbc3ff58e49f288ac", "addresses": ["13Q5C9KRU7XriAgvZYF9veiCoMTVyRGE6h"], "asm": "OP_DUP OP_HASH160 1a4d516f0c0507d1fd0117ce530bbc3ff58e49f2 OP_EQUALVERIFY OP_CHECKSIG", "type": "pubkeyhash"}, "value": 0.02294, "n": 0}, {"scriptPubKey": {"reqSigs": 1, "hex": "a914e370231feecbfc25e2e2423a5a79bf79bfdca59887", "addresses": ["3NRbeX3vD5VaVE4TDU9ivCDsEf7NPPte6J"], "asm": "OP_HASH160 e370231feecbfc25e2e2423a5a79bf79bfdca598 OP_EQUAL", "type": "scripthash"}, "value": 3.09916331, "n": 1}], "hex": "0100000001e57452d016833f4c8c6e462f9bca1824462e6f0ac697b23ce0452c01a932724b01000000db00483045022100c66c736973f13ff59fee111d435d75794d2cd646e12da2aac9ad3c1fc8378e0502201ecb39d7ea3715115da2190faf8586b74b620d087d9d6a33ad64a71734228c8401483045022100c324f29b564c023f73834e8629ed34fecb3b19c48dc6c091bd30d324f460d753022053266d7734e84de7d1ddad4a4bde86cd80ec783d67c2009b187b426db5116b94014752210327881b6abce6535553a3ce21fad12a7d74fd237ce7c4cd270a267162344e3082210256141f8eb687f5a68c5cc65054652dc25116fa285e44d72b44368827ffe77d9a52aeffffffff02f0002300000000001976a9141a4d516f0c0507d1fd0117ce530bbc3ff58e49f288acabf278120000000017a914e370231feecbfc25e2e2423a5a79bf79bfdca5988700000000", "vin": [{"sequence": 4294967295, "scriptSig": {"hex": "00483045022100c66c736973f13ff59fee111d435d75794d2cd646e12da2aac9ad3c1fc8378e0502201ecb39d7ea3715115da2190faf8586b74b620d087d9d6a33ad64a71734228c8401483045022100c324f29b564c023f73834e8629ed34fecb3b19c48dc6c091bd30d324f460d753022053266d7734e84de7d1ddad4a4bde86cd80ec783d67c2009b187b426db5116b94014752210327881b6abce6535553a3ce21fad12a7d74fd237ce7c4cd270a267162344e3082210256141f8eb687f5a68c5cc65054652dc25116fa285e44d72b44368827ffe77d9a52ae", "asm": "0 3045022100c66c736973f13ff59fee111d435d75794d2cd646e12da2aac9ad3c1fc8378e0502201ecb39d7ea3715115da2190faf8586b74b620d087d9d6a33ad64a71734228c84[ALL] 3045022100c324f29b564c023f73834e8629ed34fecb3b19c48dc6c091bd30d324f460d753022053266d7734e84de7d1ddad4a4bde86cd80ec783d67c2009b187b426db5116b94[ALL] 52210327881b6abce6535553a3ce21fad12a7d74fd237ce7c4cd270a267162344e3082210256141f8eb687f5a68c5cc65054652dc25116fa285e44d72b44368827ffe77d9a52ae"}, "vout": 1, "txid": "4b7232a9012c45e03cb297c60a6f2e462418ca9b2f466e8c4c3f8316d05274e5"}], "txid": "b7bd59a69066d550832bea7bd0a02d9f3284dbac5e87c0032e22de931ac5e2a9", "blocktime": 1537873891, "version": 1, "confirmations": 11478, "time": 1537873891, "locktime": 0, "vsize": 336, "size": 336}