{"hash": "b7bf53e1de29ae5245a2fa3f2a7637d2f1609c8ff2a0c582a0f9129b02813132", "blockhash": "0000000000000000001e0dab787dd257d1dbfcb92a98c2207d5e1078be1f4165", "vout": [{"scriptPubKey": {"reqSigs": 1, "hex": "76a91487d0a410ff6d597de9b739f07d03f7040fc880b188ac", "addresses": ["1DP8AX9voAdDuNjbRKGSJnT1baXQF9QkFf"], "asm": "OP_DUP OP_HASH160 87d0a410ff6d597de9b739f07d03f7040fc880b1 OP_EQUALVERIFY OP_CHECKSIG", "type": "pubkeyhash"}, "value": 0.05618, "n": 0}, {"scriptPubKey": {"reqSigs": 1, "hex": "a914e370231feecbfc25e2e2423a5a79bf79bfdca59887", "addresses": ["3NRbeX3vD5VaVE4TDU9ivCDsEf7NPPte6J"], "asm": "OP_HASH160 e370231feecbfc25e2e2423a5a79bf79bfdca598 OP_EQUAL", "type": "scripthash"}, "value": 3.29902381, "n": 1}], "hex": "01000000018fbc0d04373219a0def7b162013d9f98e0094c4f629485a9db07036d8ebceb5401000000da004730440220790ac48a84dad9a8147aaac6ee5e82a004567974dd123523f37b6cc272b878e3022061f1fb5bac78bd180b1d891a99dee010b752102747402440037ea4a89afd510701483045022100da2475183d1d6328e01cbaf6668b549b7c8fd824cdb4304991d4377744043a58022079198f4ca070a92a049c9adae09c922f627f1c43445efe9920ab1ab1c23228b7014752210327881b6abce6535553a3ce21fad12a7d74fd237ce7c4cd270a267162344e3082210256141f8eb687f5a68c5cc65054652dc25116fa285e44d72b44368827ffe77d9a52aeffffffff0250b95500000000001976a91487d0a410ff6d597de9b739f07d03f7040fc880b188ac2de9a9130000000017a914e370231feecbfc25e2e2423a5a79bf79bfdca5988700000000", "vin": [{"sequence": 4294967295, "scriptSig": {"hex": "004730440220790ac48a84dad9a8147aaac6ee5e82a004567974dd123523f37b6cc272b878e3022061f1fb5bac78bd180b1d891a99dee010b752102747402440037ea4a89afd510701483045022100da2475183d1d6328e01cbaf6668b549b7c8fd824cdb4304991d4377744043a58022079198f4ca070a92a049c9adae09c922f627f1c43445efe9920ab1ab1c23228b7014752210327881b6abce6535553a3ce21fad12a7d74fd237ce7c4cd270a267162344e3082210256141f8eb687f5a68c5cc65054652dc25116fa285e44d72b44368827ffe77d9a52ae", "asm": "0 30440220790ac48a84dad9a8147aaac6ee5e82a004567974dd123523f37b6cc272b878e3022061f1fb5bac78bd180b1d891a99dee010b752102747402440037ea4a89afd5107[ALL] 3045022100da2475183d1d6328e01cbaf6668b549b7c8fd824cdb4304991d4377744043a58022079198f4ca070a92a049c9adae09c922f627f1c43445efe9920ab1ab1c23228b7[ALL] 52210327881b6abce6535553a3ce21fad12a7d74fd237ce7c4cd270a267162344e3082210256141f8eb687f5a68c5cc65054652dc25116fa285e44d72b44368827ffe77d9a52ae"}, "vout": 1, "txid": "54ebbc8e6d0307dba98594624f4c09e0989f3d0162b1f7dea0193237040dbc8f"}], "txid": "b7bf53e1de29ae5245a2fa3f2a7637d2f1609c8ff2a0c582a0f9129b02813132", "blocktime": 1537872475, "version": 1, "confirmations": 11487, "time": 1537872475, "locktime": 0, "vsize": 335, "size": 335}