{"hash": "b7c173dc7369be850ef6250171daf349774c36ae1367f440ee79271690b4b443", "blockhash": "0000000000000000001f76057863aec43deb6fa401d9628bb513d65a8098bfab", "vout": [{"scriptPubKey": {"reqSigs": 1, "hex": "76a914632633663c0b28c47bfc2426dfc2489ef1588f3988ac", "addresses": ["1A3FfEDV8RQK587CqVHreRmnZPe12GmkwN"], "asm": "OP_DUP OP_HASH160 632633663c0b28c47bfc2426dfc2489ef1588f39 OP_EQUALVERIFY OP_CHECKSIG", "type": "pubkeyhash"}, "value": 0.00464015, "n": 0}, {"scriptPubKey": {"reqSigs": 1, "hex": "76a914bce77f009e66e4bec068ee43eed86bed056ff78188ac", "addresses": ["1JDqMhLAMfPe1BU1oviRs9LiYbP6UMYW6q"], "asm": "OP_DUP OP_HASH160 bce77f009e66e4bec068ee43eed86bed056ff781 OP_EQUALVERIFY OP_CHECKSIG", "type": "pubkeyhash"}, "value": 0.00780608, "n": 1}], "hex": "0100000001ffcb9bb0194df844b7e45604a956bdfe22d15996abf042fefa0bd6265ccbb3f8060000006b483045022100a776e8ece9beef6f2fc4488b85541358f1a852eb50d6fd4a2166081c1b15174802202a61622c01b9f58f71ad8552d333a6bfd78f254ed09c3cc6fe6c85c3890e4f050121034e8fcc2855e71720d57ab510fc4f651a6a193e145d43808b2796ab379a42eaf5ffffffff028f140700000000001976a914632633663c0b28c47bfc2426dfc2489ef1588f3988ac40e90b00000000001976a914bce77f009e66e4bec068ee43eed86bed056ff78188ac00000000", "vin": [{"sequence": 4294967295, "scriptSig": {"hex": "483045022100a776e8ece9beef6f2fc4488b85541358f1a852eb50d6fd4a2166081c1b15174802202a61622c01b9f58f71ad8552d333a6bfd78f254ed09c3cc6fe6c85c3890e4f050121034e8fcc2855e71720d57ab510fc4f651a6a193e145d43808b2796ab379a42eaf5", "asm": "3045022100a776e8ece9beef6f2fc4488b85541358f1a852eb50d6fd4a2166081c1b15174802202a61622c01b9f58f71ad8552d333a6bfd78f254ed09c3cc6fe6c85c3890e4f05[ALL] 034e8fcc2855e71720d57ab510fc4f651a6a193e145d43808b2796ab379a42eaf5"}, "vout": 6, "txid": "f8b3cb5c26d60bfafe42f0ab9659d122febd56a90456e4b744f84d19b09bcbff"}], "txid": "b7c173dc7369be850ef6250171daf349774c36ae1367f440ee79271690b4b443", "blocktime": 1537873891, "version": 1, "confirmations": 11478, "time": 1537873891, "locktime": 0, "vsize": 226, "size": 226}