{"hash": "5386d8576137456110d7a3951149a98f481a42725e97eaffec224576c3cd89b5", "blockhash": "000000000000000000022b45ed06c6f4ccd3cf7fb5ba4856ebd2e58215665228", "vout": [{"scriptPubKey": {"reqSigs": 1, "hex": "76a914279a7ded82665d7c6844277b690555f6e812918b88ac", "addresses": ["14cQRmViAzVKa277gZznByGZtnrVPQc8Lr"], "asm": "OP_DUP OP_HASH160 279a7ded82665d7c6844277b690555f6e812918b OP_EQUALVERIFY OP_CHECKSIG", "type": "pubkeyhash"}, "value": 10.68420364, "n": 0}, {"scriptPubKey": {"reqSigs": 1, "hex": "a914d2a395cda75aee43071e38432a35b17f4fad4f1887", "addresses": ["3LtmnvbqJWkPy4WV9j9B35Fc3boZ9qHs6m"], "asm": "OP_HASH160 d2a395cda75aee43071e38432a35b17f4fad4f18 OP_EQUAL", "type": "scripthash"}, "value": 0.19661717, "n": 1}], "hex": "010000000001087184cd1e043ebe7c30a015af6f83757f55e88a84870de2432dd87d631c40c75a01000000fc0047304402206d3b4c2f84061659597c786e6e2d951454c212cc2372ff08397db5447d0e58400220020309060b6263c6a8b052d11b50ff63347362834652fe562ff24747dc1c9692014730440220227f54442215cc8d372ee0e3864a454b0d4afbb54cb0b6cdd62e81a3649ed04002202f5df29765a170fcdcdfcdbf0c402c51c2922f5e002d3bc51f8667afdff8c294014c69522102fc9e79bc13bde88d4806b506c409aa11258ec1c0be362b9761971126788e33d921038db5f0626983bd8665d5630296b8baa701510540b0b196d605a35418562a068e2102a466512fb85c874939183b2ce359df2fd6e5047612dba7c9fddc8f0014f449f053aeffffffff69fca4bc95ed4f66dc801737e3e7941d3099cbdfd572606878e88baf4413778301000000232200208c5bbe2fa6d02b36dd7915f66473c044ef6e5086f8171ff686007bd7af76f8a0ffffffff0e85962e404d4cfd041b066b1d7ca0c13b7080bc2d739c65d948f6653c16b0c70000000023220020aaa698d2c216eaaaa30ecc0d7cc2c4d2d7871c40ba2774d85e22a3a411ddbbcaffffffffb654d4c3ba236bfd65567bee674516e09cccf31cdeedef1134662fa27d59bf5a01000000fdfd0000473044022060754cfa45e3dcc9972e680618e5f5a9be09802fe27ea8c46dc4baeb0deb9d95022000f674d3c55e605956d451b921835af7cc2438de40cd1e2c8a770547282df4f701483045022100e20bcc1bf49a088b04a3edd0b84e1f8f083ffaa3fbdf3cfefe983df01916e00202202fb2a5d747aae71c52e5163dee6686592a26618508ec62aa9a1ff23760959fbf014c69522103cc777582291ba88ee11876f98050fd8c899618f3ad1e86abad3c34ea132b3ad12102945a2797731ed952481a7eac1c5b6d74d74e84ddff3d1917e2a942f8bba84b30210390aff2a84bc5da86c0cda0b1389336c53cf44f31e3ade1cf531ba5dcadd6099453aeffffffff62242e88e19347974caf79bd9b01716d3657534bcfebdead08a807556560c06501000000232200206129b0024a321e5d6bbbb2453678aa4a7b094e5c68527049639ccedbd1f46083ffffffffb081efe3ffd17be94c6bbcc7dd9a8405564a7a0e16c3e20d0cc37b3987551fe50400000023220020079356828daca66fecde0a0676465952572659cbb6615683fc2bd814f50d2c1cffffffff024f1b31aaf6d4fe31fcfa9dd6022bdf531c7cb4fc77ed76d24c7446266c7bf70d0000002322002058653cf5c817ff2516afb4cdbba0eda669668ea603a8e0298488f8eaa854a6a3ffffffff603ffe098876b88761239e8ed6e69fda57db84c2b5f68d47612de81b97b497bf0200000023220020ec278c6bf2ed54521d98ea16fe4a9ebda1379bdbd39cdfff9bd99b1e2a73e7c2ffffffff020ccdae3f000000001976a914279a7ded82665d7c6844277b690555f6e812918b88ac95032c010000000017a914d2a395cda75aee43071e38432a35b17f4fad4f1887000400483045022100cd9ce290e9a3548d9df3140b92db42ac6aadc57d774b95fd3542c1985754e3f9022045dc062e60b4513a83d2c327a20b45b0671a6ff15e57234a58b1c24051f703fa01483045022100d5c407740d013a5fa2efe12011a847b15448b3e72bf262096b3c71486e5b90c4022061723610bc9c8570845deab60a02262ae7237af15e5da258ec0627c7c547982801695221022a7d02409010bce2da3808397449170ef3e831998e3a4eccf384b8d9d4fdf41c210274e5c5d3ee2c5f1f16b0fc0a5e1d6f1f5ed0ac3e65f08723d6a0d647621e9bc021026adf7927acaeeadb3671ca454a232477971344f7b92228cdc57ef8edf9b922fe53ae040047304402203db2f4e9490b53ae021635d8d3659c67dcbee92ba48e2639b9f5edf8c04a5009022060e6e4936cf7daf8815d922bf44c34e1ef2e0dabb5bed3607436a1c7e3ff1fc90147304402202eb633097e779ee2fade8af78adac8f5e2f6871a34ef8b11b83a2a2c94313fdc022060ee1e58134765bd92cd595c7e4b3af1dedec608d911d1dc08ca1a34617814320169522102d25a5967c342f412f60ccbdf3147c0f074f6640f37ec584d7c1d30832a62935c21036a83c27b499a91ebe11a8379373ef7e40561c34a63fa6baad72d4631f9110c742102e397b1e4e983fa05a0b2d1cc490f592b7f3e33e96d6cb246b3aa70791ccfca7d53ae000400483045022100b7563889e4272f7c2aade7184770410a23c1f545f93d497f43a615ad2f19890702207267cd4114234559588d4193a1ce438bf8c4e5740791de2076e7b9c1d0c08f3a01483045022100ceaff517ad8a9fbd24530fab72b35de6f3b4c8696cef1d7896500402c4f75081022013f015177272013cebb3f73a03ff91d0f4873e589f4faa94758d5cb258cfe76d0169522103b832daa9872210f7a252017d06366967cc18b598116a16991ed7ea4fee5ad60e210318f91fba2728da0228bfd87776fe54f4887b61053960a3ce57857ee1858030712102b4aa35f7c75a4262c2ba42f94d8d77d2ec46900fabb9068bf8fc35981b39f67c53ae040047304402207cc78ac76bc195531d3bce64ca6f4296c1e43bef78f7a82cd59471d18e6736d202201d50573b9ee1778572ab7210cf9d4ef37851abf108379536ef4e1bedc74ec73301483045022100f2c65b4bd87df65ce8e1d3e01d752e49a10b6ebbae886e3bf5c44e6421e9f8fa02203af903622b34b1e41832a9e9a585b882878b2e1ae26d8319bfe8bf9ac3094d2b0169522103e23252e3054b39b9d12c9ef7936ef38c7f23daeccbc8a70626e5d0e12fc46fbe2102ceff24b73aae050732f5543cb99d3c50ec965519b9dc34e363eb03232fe013db21035d828436b5f05dc9a3f11788e474a6898e337a1664396d7b1d11e89aa3a71a7153ae040047304402201c138ce238f368cf8ce4f5e26442f0e34a55f95f570ab62c20c072b0da98f21102200237bbef94066129943d49624b3f8719d6a6a7dc2245c7ee128f23f7434b95430147304402207ec3511c03a9cfde83b4e5a1d8dc06e5d07caa9511274f11da7a4f1e50c88d7302203af348e6b3e1792aafe8b648bf2cdec7790beb79e6446eff02e1876bc199cb440169522102fdfb6f023b6c7745f340b62a8e7c4601ad851d115d099b3cec052d6c50e560ae2103e04886fe5c1c77125e44f39e322ca5d6a8be741739d74c9c358fb35d41f632aa2102cfa6711ebcdcab73f3c1b79e42a74d12d444c242f8b11d0be83f201be1c9efaa53ae0400483045022100a07defe1f7b7b8b1e015a3f9e97f0b20b1866e970a9dd5a704059b255edbd79202204a414eeb87caac987578813134c6742fc65d5629bb5ab68827aa90fbc1c42da00147304402203d2ec1af5ffc90cfbff33805902cf7faf08c3562ba340e1435019b1d3da8f231022006d2346ec6aae315576f92cb0c51d46049676a472ea0099f3e1f50ec4753a7410169522102202bec9a4e77c28b4f196ad918fdc919f06e1dd22215107d625c04704a0ebc152103055b40f7a8e6e8df1e14e11974362fa310da83e457b7d8c594b80e54e9ec20e3210306e910b68fa66a2d28cf96406d1f8e4f98cc0ff84c5b2422cd70394ec41bf75853ae00000000", "vin": [{"sequence": 4294967295, "scriptSig": {"hex": "0047304402206d3b4c2f84061659597c786e6e2d951454c212cc2372ff08397db5447d0e58400220020309060b6263c6a8b052d11b50ff63347362834652fe562ff24747dc1c9692014730440220227f54442215cc8d372ee0e3864a454b0d4afbb54cb0b6cdd62e81a3649ed04002202f5df29765a170fcdcdfcdbf0c402c51c2922f5e002d3bc51f8667afdff8c294014c69522102fc9e79bc13bde88d4806b506c409aa11258ec1c0be362b9761971126788e33d921038db5f0626983bd8665d5630296b8baa701510540b0b196d605a35418562a068e2102a466512fb85c874939183b2ce359df2fd6e5047612dba7c9fddc8f0014f449f053ae", "asm": "0 304402206d3b4c2f84061659597c786e6e2d951454c212cc2372ff08397db5447d0e58400220020309060b6263c6a8b052d11b50ff63347362834652fe562ff24747dc1c9692[ALL] 30440220227f54442215cc8d372ee0e3864a454b0d4afbb54cb0b6cdd62e81a3649ed04002202f5df29765a170fcdcdfcdbf0c402c51c2922f5e002d3bc51f8667afdff8c294[ALL] 522102fc9e79bc13bde88d4806b506c409aa11258ec1c0be362b9761971126788e33d921038db5f0626983bd8665d5630296b8baa701510540b0b196d605a35418562a068e2102a466512fb85c874939183b2ce359df2fd6e5047612dba7c9fddc8f0014f449f053ae"}, "vout": 1, "txid": "5ac7401c637dd82d43e20d87848ae8557f75836faf15a0307cbe3e041ecd8471"}, {"txinwitness": ["", "3045022100cd9ce290e9a3548d9df3140b92db42ac6aadc57d774b95fd3542c1985754e3f9022045dc062e60b4513a83d2c327a20b45b0671a6ff15e57234a58b1c24051f703fa01", "3045022100d5c407740d013a5fa2efe12011a847b15448b3e72bf262096b3c71486e5b90c4022061723610bc9c8570845deab60a02262ae7237af15e5da258ec0627c7c547982801", "5221022a7d02409010bce2da3808397449170ef3e831998e3a4eccf384b8d9d4fdf41c210274e5c5d3ee2c5f1f16b0fc0a5e1d6f1f5ed0ac3e65f08723d6a0d647621e9bc021026adf7927acaeeadb3671ca454a232477971344f7b92228cdc57ef8edf9b922fe53ae"], "sequence": 4294967295, "scriptSig": {"hex": "2200208c5bbe2fa6d02b36dd7915f66473c044ef6e5086f8171ff686007bd7af76f8a0", "asm": "00208c5bbe2fa6d02b36dd7915f66473c044ef6e5086f8171ff686007bd7af76f8a0"}, "vout": 1, "txid": "83771344af8be878686072d5dfcb99301d94e7e3371780dc664fed95bca4fc69"}, {"txinwitness": ["", "304402203db2f4e9490b53ae021635d8d3659c67dcbee92ba48e2639b9f5edf8c04a5009022060e6e4936cf7daf8815d922bf44c34e1ef2e0dabb5bed3607436a1c7e3ff1fc901", "304402202eb633097e779ee2fade8af78adac8f5e2f6871a34ef8b11b83a2a2c94313fdc022060ee1e58134765bd92cd595c7e4b3af1dedec608d911d1dc08ca1a346178143201", "522102d25a5967c342f412f60ccbdf3147c0f074f6640f37ec584d7c1d30832a62935c21036a83c27b499a91ebe11a8379373ef7e40561c34a63fa6baad72d4631f9110c742102e397b1e4e983fa05a0b2d1cc490f592b7f3e33e96d6cb246b3aa70791ccfca7d53ae"], "sequence": 4294967295, "scriptSig": {"hex": "220020aaa698d2c216eaaaa30ecc0d7cc2c4d2d7871c40ba2774d85e22a3a411ddbbca", "asm": "0020aaa698d2c216eaaaa30ecc0d7cc2c4d2d7871c40ba2774d85e22a3a411ddbbca"}, "vout": 0, "txid": "c7b0163c65f648d9659c732dbc80703bc1a07c1d6b061b04fd4c4d402e96850e"}, {"sequence": 4294967295, "scriptSig": {"hex": "00473044022060754cfa45e3dcc9972e680618e5f5a9be09802fe27ea8c46dc4baeb0deb9d95022000f674d3c55e605956d451b921835af7cc2438de40cd1e2c8a770547282df4f701483045022100e20bcc1bf49a088b04a3edd0b84e1f8f083ffaa3fbdf3cfefe983df01916e00202202fb2a5d747aae71c52e5163dee6686592a26618508ec62aa9a1ff23760959fbf014c69522103cc777582291ba88ee11876f98050fd8c899618f3ad1e86abad3c34ea132b3ad12102945a2797731ed952481a7eac1c5b6d74d74e84ddff3d1917e2a942f8bba84b30210390aff2a84bc5da86c0cda0b1389336c53cf44f31e3ade1cf531ba5dcadd6099453ae", "asm": "0 3044022060754cfa45e3dcc9972e680618e5f5a9be09802fe27ea8c46dc4baeb0deb9d95022000f674d3c55e605956d451b921835af7cc2438de40cd1e2c8a770547282df4f7[ALL] 3045022100e20bcc1bf49a088b04a3edd0b84e1f8f083ffaa3fbdf3cfefe983df01916e00202202fb2a5d747aae71c52e5163dee6686592a26618508ec62aa9a1ff23760959fbf[ALL] 522103cc777582291ba88ee11876f98050fd8c899618f3ad1e86abad3c34ea132b3ad12102945a2797731ed952481a7eac1c5b6d74d74e84ddff3d1917e2a942f8bba84b30210390aff2a84bc5da86c0cda0b1389336c53cf44f31e3ade1cf531ba5dcadd6099453ae"}, "vout": 1, "txid": "5abf597da22f663411efedde1cf3cc9ce0164567ee7b5665fd6b23bac3d454b6"}, {"txinwitness": ["", "3045022100b7563889e4272f7c2aade7184770410a23c1f545f93d497f43a615ad2f19890702207267cd4114234559588d4193a1ce438bf8c4e5740791de2076e7b9c1d0c08f3a01", "3045022100ceaff517ad8a9fbd24530fab72b35de6f3b4c8696cef1d7896500402c4f75081022013f015177272013cebb3f73a03ff91d0f4873e589f4faa94758d5cb258cfe76d01", "522103b832daa9872210f7a252017d06366967cc18b598116a16991ed7ea4fee5ad60e210318f91fba2728da0228bfd87776fe54f4887b61053960a3ce57857ee1858030712102b4aa35f7c75a4262c2ba42f94d8d77d2ec46900fabb9068bf8fc35981b39f67c53ae"], "sequence": 4294967295, "scriptSig": {"hex": "2200206129b0024a321e5d6bbbb2453678aa4a7b094e5c68527049639ccedbd1f46083", "asm": "00206129b0024a321e5d6bbbb2453678aa4a7b094e5c68527049639ccedbd1f46083"}, "vout": 1, "txid": "65c060655507a808addeebcf4b5357366d71019bbd79af4c974793e1882e2462"}, {"txinwitness": ["", "304402207cc78ac76bc195531d3bce64ca6f4296c1e43bef78f7a82cd59471d18e6736d202201d50573b9ee1778572ab7210cf9d4ef37851abf108379536ef4e1bedc74ec73301", "3045022100f2c65b4bd87df65ce8e1d3e01d752e49a10b6ebbae886e3bf5c44e6421e9f8fa02203af903622b34b1e41832a9e9a585b882878b2e1ae26d8319bfe8bf9ac3094d2b01", "522103e23252e3054b39b9d12c9ef7936ef38c7f23daeccbc8a70626e5d0e12fc46fbe2102ceff24b73aae050732f5543cb99d3c50ec965519b9dc34e363eb03232fe013db21035d828436b5f05dc9a3f11788e474a6898e337a1664396d7b1d11e89aa3a71a7153ae"], "sequence": 4294967295, "scriptSig": {"hex": "220020079356828daca66fecde0a0676465952572659cbb6615683fc2bd814f50d2c1c", "asm": "0020079356828daca66fecde0a0676465952572659cbb6615683fc2bd814f50d2c1c"}, "vout": 4, "txid": "e51f5587397bc30c0de2c3160e7a4a5605849addc7bc6b4ce97bd1ffe3ef81b0"}, {"txinwitness": ["", "304402201c138ce238f368cf8ce4f5e26442f0e34a55f95f570ab62c20c072b0da98f21102200237bbef94066129943d49624b3f8719d6a6a7dc2245c7ee128f23f7434b954301", "304402207ec3511c03a9cfde83b4e5a1d8dc06e5d07caa9511274f11da7a4f1e50c88d7302203af348e6b3e1792aafe8b648bf2cdec7790beb79e6446eff02e1876bc199cb4401", "522102fdfb6f023b6c7745f340b62a8e7c4601ad851d115d099b3cec052d6c50e560ae2103e04886fe5c1c77125e44f39e322ca5d6a8be741739d74c9c358fb35d41f632aa2102cfa6711ebcdcab73f3c1b79e42a74d12d444c242f8b11d0be83f201be1c9efaa53ae"], "sequence": 4294967295, "scriptSig": {"hex": "22002058653cf5c817ff2516afb4cdbba0eda669668ea603a8e0298488f8eaa854a6a3", "asm": "002058653cf5c817ff2516afb4cdbba0eda669668ea603a8e0298488f8eaa854a6a3"}, "vout": 13, "txid": "f77b6c2646744cd276ed77fcb47c1c53df2b02d69dfafc31fed4f6aa311b4f02"}, {"txinwitness": ["", "3045022100a07defe1f7b7b8b1e015a3f9e97f0b20b1866e970a9dd5a704059b255edbd79202204a414eeb87caac987578813134c6742fc65d5629bb5ab68827aa90fbc1c42da001", "304402203d2ec1af5ffc90cfbff33805902cf7faf08c3562ba340e1435019b1d3da8f231022006d2346ec6aae315576f92cb0c51d46049676a472ea0099f3e1f50ec4753a74101", "522102202bec9a4e77c28b4f196ad918fdc919f06e1dd22215107d625c04704a0ebc152103055b40f7a8e6e8df1e14e11974362fa310da83e457b7d8c594b80e54e9ec20e3210306e910b68fa66a2d28cf96406d1f8e4f98cc0ff84c5b2422cd70394ec41bf75853ae"], "sequence": 4294967295, "scriptSig": {"hex": "220020ec278c6bf2ed54521d98ea16fe4a9ebda1379bdbd39cdfff9bd99b1e2a73e7c2", "asm": "0020ec278c6bf2ed54521d98ea16fe4a9ebda1379bdbd39cdfff9bd99b1e2a73e7c2"}, "vout": 2, "txid": "bf97b4971be82d61478df6b5c284db57da9fe6d68e9e236187b8768809fe3f60"}], "txid": "b7c78cd21d4201f82eaae03b46f504fb55adc0f9b9085e673921567032318f64", "blocktime": 1537869901, "version": 1, "confirmations": 11523, "time": 1537869901, "locktime": 0, "vsize": 1502, "size": 2643}