{"hash": "584d7e08945980333f945eb94711bf30ba7162700263024974a4dadd72ab03ce", "blockhash": "0000000000000000000baef3f32e3676a92c3b2e5da21b426e4f302fc371ce76", "vout": [{"scriptPubKey": {"reqSigs": 1, "hex": "a91484caf93fa1809abee487ed80a4f066b553d246b087", "addresses": ["3DoAGij6G4eZ3Sw9MgHjNi7tMAaJRhuhzV"], "asm": "OP_HASH160 84caf93fa1809abee487ed80a4f066b553d246b0 OP_EQUAL", "type": "scripthash"}, "value": 0.007, "n": 0}, {"scriptPubKey": {"reqSigs": 1, "hex": "a9148c1bf4cf217b99092f14f68d9268c1d0db20eb6187", "addresses": ["3ETr1qVCoqHCqLNKEkdbcKxAZLahLWqE96"], "asm": "OP_HASH160 8c1bf4cf217b99092f14f68d9268c1d0db20eb61 OP_EQUAL", "type": "scripthash"}, "value": 0.01096873, "n": 1}], "hex": "01000000000102e468432e19e4c3e7c8b37300fd096fafdb162e3078eb8774078cb9b08b9d787b01000000171600145cd0ade79920f9fd1e695024d9b990b86332c8daffffffff3e40181fca5471c3ed60c17e8447c6da2e36c32b9d5476de080a49769eb06dfc010000001716001465dd0c619991470b30b4dfc93898af828fc1beebffffffff0260ae0a000000000017a91484caf93fa1809abee487ed80a4f066b553d246b087a9bc10000000000017a9148c1bf4cf217b99092f14f68d9268c1d0db20eb618702483045022100944342132e3183784d3d7dcf02914b7f1b93ba86e4677b1db529d952efef23550220528ff87c509dd75480333439166bf07f6486eba60b14d56a8554d693f3ddb298012103ead76bfafe8dcb759ed2f0b8323c79700571446a62759aa2fd3cb507e1ee13a802483045022100a6334d05bdec2fa831049f47aa3ab71fc302effc0b34dd1d68ac0dd6ac49990902200879ce2b1c3d31a3caa050fc45a26663bfb2329acb9d85d394c58ae6aae4801c01210217580956cdb78f0c51205aa86d7dc22bd29e0de7468731cb6e17fd9b6b2d292800000000", "vin": [{"txinwitness": ["3045022100944342132e3183784d3d7dcf02914b7f1b93ba86e4677b1db529d952efef23550220528ff87c509dd75480333439166bf07f6486eba60b14d56a8554d693f3ddb29801", "03ead76bfafe8dcb759ed2f0b8323c79700571446a62759aa2fd3cb507e1ee13a8"], "sequence": 4294967295, "scriptSig": {"hex": "1600145cd0ade79920f9fd1e695024d9b990b86332c8da", "asm": "00145cd0ade79920f9fd1e695024d9b990b86332c8da"}, "vout": 1, "txid": "7b789d8bb0b98c077487eb78302e16dbaf6f09fd0073b3c8e7c3e4192e4368e4"}, {"txinwitness": ["3045022100a6334d05bdec2fa831049f47aa3ab71fc302effc0b34dd1d68ac0dd6ac49990902200879ce2b1c3d31a3caa050fc45a26663bfb2329acb9d85d394c58ae6aae4801c01", "0217580956cdb78f0c51205aa86d7dc22bd29e0de7468731cb6e17fd9b6b2d2928"], "sequence": 4294967295, "scriptSig": {"hex": "16001465dd0c619991470b30b4dfc93898af828fc1beeb", "asm": "001465dd0c619991470b30b4dfc93898af828fc1beeb"}, "vout": 1, "txid": "fc6db09e76490a08de76549d2bc3362edac647847ec160edc37154ca1f18403e"}], "txid": "b7cf80f8eab073b0baea607047eefea390139b27760935d734c8a476f6bd1402", "blocktime": 1537876114, "version": 1, "confirmations": 11460, "time": 1537876114, "locktime": 0, "vsize": 257, "size": 420}