{"hash": "b7e5a3741ed8c2e7009bde09fcce4d9658ab2f8599361752570b8e02bd14d9d7", "blockhash": "0000000000000000000dcc0f55137456b1a82d3642486a52398922ac4d620174", "vout": [{"scriptPubKey": {"reqSigs": 1, "hex": "76a914d243e6abb9a60fbff430b421d2df4b7d59ec186088ac", "addresses": ["1LAnF8h3qMGx3TSwNUHVneBZUEpwE4gu3D"], "asm": "OP_DUP OP_HASH160 d243e6abb9a60fbff430b421d2df4b7d59ec1860 OP_EQUALVERIFY OP_CHECKSIG", "type": "pubkeyhash"}, "value": 0.00076972, "n": 0}, {"scriptPubKey": {"reqSigs": 1, "hex": "76a9143851f34d13937b673a7d24a1950bb5b21ce94af388ac", "addresses": ["168o1kqNquEJeR9vosUB5fw4eAwcVAgh8P"], "asm": "OP_DUP OP_HASH160 3851f34d13937b673a7d24a1950bb5b21ce94af3 OP_EQUALVERIFY OP_CHECKSIG", "type": "pubkeyhash"}, "value": 5.46e-06, "n": 1}, {"scriptPubKey": {"type": "nulldata", "hex": "6a146f6d6e69000000000000001f000000a2fb405800", "asm": "OP_RETURN 6f6d6e69000000000000001f000000a2fb405800"}, "value": 0.0, "n": 2}], "hex": "01000000027b5f0d18c4b91c8fc46437356b56f311e6a6aa2cb9d7ff579cca26f087340a05020000006b483045022100c2dd93812b3cf5773cc884e83574186aab97f068ff558f7b783883181fe60b50022071716e0c4175a06d231a83ac1103ba022cb1f17301315cb06983677880af7b79012103476ea371cfacc7c6d28ca8df4c97c73e7c189bfe92aef4575d0d76ddf97d3fc9ffffffff29a7dbc110c9f972fbfa01b94f4c0ba271b8914b99f3d83cf1918546678e58b4000000006b483045022100e6e579b151375e269d8c86be1bc1ef8bc5686069bd6f8bf719d9b8cf18399b590220449f296f1a21ddad4da62dad4f6978ae6c1178c511077a30f57cf532105691b301210271977291b74f1f5f5c42157e8aae804664eaaeccfd097918450d37f28fb94d77ffffffff03ac2c0100000000001976a914d243e6abb9a60fbff430b421d2df4b7d59ec186088ac22020000000000001976a9143851f34d13937b673a7d24a1950bb5b21ce94af388ac0000000000000000166a146f6d6e69000000000000001f000000a2fb40580000000000", "vin": [{"sequence": 4294967295, "scriptSig": {"hex": "483045022100c2dd93812b3cf5773cc884e83574186aab97f068ff558f7b783883181fe60b50022071716e0c4175a06d231a83ac1103ba022cb1f17301315cb06983677880af7b79012103476ea371cfacc7c6d28ca8df4c97c73e7c189bfe92aef4575d0d76ddf97d3fc9", "asm": "3045022100c2dd93812b3cf5773cc884e83574186aab97f068ff558f7b783883181fe60b50022071716e0c4175a06d231a83ac1103ba022cb1f17301315cb06983677880af7b79[ALL] 03476ea371cfacc7c6d28ca8df4c97c73e7c189bfe92aef4575d0d76ddf97d3fc9"}, "vout": 2, "txid": "050a3487f026ca9c57ffd7b92caaa6e611f3566b353764c48f1cb9c4180d5f7b"}, {"sequence": 4294967295, "scriptSig": {"hex": "483045022100e6e579b151375e269d8c86be1bc1ef8bc5686069bd6f8bf719d9b8cf18399b590220449f296f1a21ddad4da62dad4f6978ae6c1178c511077a30f57cf532105691b301210271977291b74f1f5f5c42157e8aae804664eaaeccfd097918450d37f28fb94d77", "asm": "3045022100e6e579b151375e269d8c86be1bc1ef8bc5686069bd6f8bf719d9b8cf18399b590220449f296f1a21ddad4da62dad4f6978ae6c1178c511077a30f57cf532105691b3[ALL] 0271977291b74f1f5f5c42157e8aae804664eaaeccfd097918450d37f28fb94d77"}, "vout": 0, "txid": "b4588e67468591f13cd8f3994b91b871a20b4c4fb901fafb72f9c910c1dba729"}], "txid": "b7e5a3741ed8c2e7009bde09fcce4d9658ab2f8599361752570b8e02bd14d9d7", "blocktime": 1537870268, "version": 1, "confirmations": 11516, "time": 1537870268, "locktime": 0, "vsize": 405, "size": 405}