{"hash": "afa69f45159d665ad429c9d2517eb341d58f2e35d2d7d44b2b86065fcaf96a17", "blockhash": "00000000000000000024a2167bbff67b0be802c0b01cdd79e6331c2be6459f87", "vout": [{"scriptPubKey": {"reqSigs": 1, "hex": "76a914e3c9c9f5c5c94658b94c8c7ce1c5daeec1779be888ac", "addresses": ["1MmS85uL9QUHKYxGke3M7XPHLvnfiS6Jrc"], "asm": "OP_DUP OP_HASH160 e3c9c9f5c5c94658b94c8c7ce1c5daeec1779be8 OP_EQUALVERIFY OP_CHECKSIG", "type": "pubkeyhash"}, "value": 0.068939, "n": 0}, {"scriptPubKey": {"reqSigs": 1, "hex": "a914fec37293f73cc540a971ea4d2fdd15cdc3e9e57d87", "addresses": ["3Qv5hCnHwXzsNm6fDb2kpgUQ74twMk8QLm"], "asm": "OP_HASH160 fec37293f73cc540a971ea4d2fdd15cdc3e9e57d OP_EQUAL", "type": "scripthash"}, "value": 0.05622848, "n": 1}], "hex": "020000000001015cfa9349cd0c494d8212c16f8d38f9387705d0d14116fc5a509bf04d110b5a0401000000171600149749079a9c040fee0d0a0e3b209195d18cc5dd12ffffffff024c316900000000001976a914e3c9c9f5c5c94658b94c8c7ce1c5daeec1779be888ac40cc55000000000017a914fec37293f73cc540a971ea4d2fdd15cdc3e9e57d870247304402202b4e2ad9cf852ec1111ff24e53dd0a0907b02550366be5ed43e201f2b0aa537302202913897b125d5495d7487d0ecfe2359e8032911fed964b6b37dc569536dae79501210328f960405f1448804c2899b754664a69c1664511ce3bd84f5c30a4e653ae850400000000", "vin": [{"txinwitness": ["304402202b4e2ad9cf852ec1111ff24e53dd0a0907b02550366be5ed43e201f2b0aa537302202913897b125d5495d7487d0ecfe2359e8032911fed964b6b37dc569536dae79501", "0328f960405f1448804c2899b754664a69c1664511ce3bd84f5c30a4e653ae8504"], "sequence": 4294967295, "scriptSig": {"hex": "1600149749079a9c040fee0d0a0e3b209195d18cc5dd12", "asm": "00149749079a9c040fee0d0a0e3b209195d18cc5dd12"}, "vout": 1, "txid": "045a0b114df09b505afc1641d1d0057738f9388d6fc112824d490ccd4993fa5c"}], "txid": "b7ef50ad3f14d5d9cb97604c3f30c3dd27f74001d8aea460e0ad592fefaec1c5", "blocktime": 1537870564, "version": 2, "confirmations": 11515, "time": 1537870564, "locktime": 0, "vsize": 168, "size": 249}