{"hash": "b7f076dcd6dd3391facd5201c472bd103abcba858ed82a9284cdcf8c017d5477", "blockhash": "00000000000000000004ffacab907a6b429b9a5745fa0b75af4234bf69dd7176", "vout": [{"scriptPubKey": {"reqSigs": 1, "hex": "76a914d30901131cd397afe7014264aec004a06490cac388ac", "addresses": ["1LErN6jYtxRyv4xXAjL1ycxoCmiB7P6Kr5"], "asm": "OP_DUP OP_HASH160 d30901131cd397afe7014264aec004a06490cac3 OP_EQUALVERIFY OP_CHECKSIG", "type": "pubkeyhash"}, "value": 0.118, "n": 0}, {"scriptPubKey": {"reqSigs": 1, "hex": "76a91476038ce0508890d6390d41270aa343c98d38c24288ac", "addresses": ["1BkzzKGft3Fyy4zGxe3yi1U7MCiVK1SBS6"], "asm": "OP_DUP OP_HASH160 76038ce0508890d6390d41270aa343c98d38c242 OP_EQUALVERIFY OP_CHECKSIG", "type": "pubkeyhash"}, "value": 1.78194729, "n": 1}], "hex": "01000000018fa93dfec1f1ddaaa77ef5da59197ba85a0c12bf279dfe8bdefc70d6853b6e9a010000006b483045022100fdaab5e625037c7f88e11edd83150a8f3ada5b4195b7d78aeca70430f0ba6bd502204ea349177ac66adc6ecf09ad7fe5e5c06f3c4b8be9c7fff31ac48c51db0dd603012103d959ded244f05b0a7f4c8c6fbc04e61d12f339f2cbe60faf6814e053cfe42eefffffffff02c00db400000000001976a914d30901131cd397afe7014264aec004a06490cac388ac29099f0a000000001976a91476038ce0508890d6390d41270aa343c98d38c24288ac00000000", "vin": [{"sequence": 4294967295, "scriptSig": {"hex": "483045022100fdaab5e625037c7f88e11edd83150a8f3ada5b4195b7d78aeca70430f0ba6bd502204ea349177ac66adc6ecf09ad7fe5e5c06f3c4b8be9c7fff31ac48c51db0dd603012103d959ded244f05b0a7f4c8c6fbc04e61d12f339f2cbe60faf6814e053cfe42eef", "asm": "3045022100fdaab5e625037c7f88e11edd83150a8f3ada5b4195b7d78aeca70430f0ba6bd502204ea349177ac66adc6ecf09ad7fe5e5c06f3c4b8be9c7fff31ac48c51db0dd603[ALL] 03d959ded244f05b0a7f4c8c6fbc04e61d12f339f2cbe60faf6814e053cfe42eef"}, "vout": 1, "txid": "9a6e3b85d670fcde8bfe9d27bf120c5aa87b1959daf57ea7aaddf1c1fe3da98f"}], "txid": "b7f076dcd6dd3391facd5201c472bd103abcba858ed82a9284cdcf8c017d5477", "blocktime": 1537875543, "version": 1, "confirmations": 11464, "time": 1537875543, "locktime": 0, "vsize": 226, "size": 226}