{"hash": "f5f799576c71febb71feebed93989ec5025b7c2283b6d45768d8047e089ef288", "blockhash": "0000000000000000001cda96e906b7601b7a6fb1a3b62bca570a9e5d8f4b3de1", "vout": [{"scriptPubKey": {"reqSigs": 1, "hex": "a91469f3771e498b4f84796baa7eee542b980bdba84f87", "addresses": ["3BMEXxAfCEEkf8M6PhtARFGpUBaXk1Bb5X"], "asm": "OP_HASH160 69f3771e498b4f84796baa7eee542b980bdba84f OP_EQUAL", "type": "scripthash"}, "value": 0.039, "n": 0}, {"scriptPubKey": {"reqSigs": 1, "hex": "a914571f2a44e32648e50d6287dd2595e42b0d68538c87", "addresses": ["39dg3d6DgQawjKEBrgMiZobMVovbzue7QQ"], "asm": "OP_HASH160 571f2a44e32648e50d6287dd2595e42b0d68538c OP_EQUAL", "type": "scripthash"}, "value": 1.7269265, "n": 1}], "hex": "020000000001018ed9873ed30051d9c3b39c7fd6cd083028389e3c05405ce66e7ea6f4f031fad60000000017160014cc27c5c1b9843b07d457de4a328055c55772bdd1feffffff0260823b000000000017a91469f3771e498b4f84796baa7eee542b980bdba84f87aa144b0a0000000017a914571f2a44e32648e50d6287dd2595e42b0d68538c870247304402206da4851f8f59adaff6e05073cb88c453f498eb5c858c457f71a1f4bfee6e14d3022041386d61fcb2440f29f4d2c6912537578e311b99cc40d01dc408c77ba1f14d0d012102c1b5fbce4f5d8251f5a1e38f7d5a33ad6a9ed2324ae51ac58b50ac6a46269c9013490800", "vin": [{"txinwitness": ["304402206da4851f8f59adaff6e05073cb88c453f498eb5c858c457f71a1f4bfee6e14d3022041386d61fcb2440f29f4d2c6912537578e311b99cc40d01dc408c77ba1f14d0d01", "02c1b5fbce4f5d8251f5a1e38f7d5a33ad6a9ed2324ae51ac58b50ac6a46269c90"], "sequence": 4294967294, "scriptSig": {"hex": "160014cc27c5c1b9843b07d457de4a328055c55772bdd1", "asm": "0014cc27c5c1b9843b07d457de4a328055c55772bdd1"}, "vout": 0, "txid": "d6fa31f0f4a67e6ee65c40053c9e38283008cdd67f9cb3c3d95100d33e87d98e"}], "txid": "b7f1decd198d78d954d048a1a3136e1ec237eb2f92d0196e62faf72d51cd7264", "blocktime": 1537873282, "version": 2, "confirmations": 11480, "time": 1537873282, "locktime": 542995, "vsize": 166, "size": 247}