{"hash": "b7f5c1cc8752f24e7890e8cc6f2d6bc6851c13f1c82e424776a4361938d15c30", "blockhash": "00000000000000000018f53835495a110e01622372bf6ae95dc86f2b0ab887b0", "vout": [{"scriptPubKey": {"reqSigs": 1, "hex": "76a914155d173f1bf5ab36d8e787fcce956ccca41b2a7a88ac", "addresses": ["12wxi6HQHdRVVCQmnKXym6wmNnui1eohfd"], "asm": "OP_DUP OP_HASH160 155d173f1bf5ab36d8e787fcce956ccca41b2a7a OP_EQUALVERIFY OP_CHECKSIG", "type": "pubkeyhash"}, "value": 1.331e-05, "n": 0}, {"scriptPubKey": {"reqSigs": 1, "hex": "76a914bfb6e772d05391489812306d278081836788c7bd88ac", "addresses": ["1JUhB3G6bxZmFycVJxaKyUqTZjeHdwb5gx"], "asm": "OP_DUP OP_HASH160 bfb6e772d05391489812306d278081836788c7bd OP_EQUALVERIFY OP_CHECKSIG", "type": "pubkeyhash"}, "value": 0.000675, "n": 1}], "hex": "0100000002d8990d93a1cca2822d5f92e114453f7e3ab99830727d9b8e7d7580851705016e000000006a47304402205f4124fc3e80af3b00128c019387c159a0eceb98e588c4c66e0b9b199a07c143022037bc1face2b7adffb9dff6e19befd2122de8387bf260379ceefb553580796a5a012102a7300499385252e09685dee7115affeb221e74bd0807df107176a3dfd59646cfffffffff3a656417acc8a3bb69ac03a96416efc0810c925f8f0dc8cdcd09f7bfcbeb32b4000000006a47304402201189173a141c4e1834b2833c3bcada3c14699d3f87ea124482d3ccbdfdc98646022065c5b56a7693b6720974adeca6305c44c0b1661c916f0bd91afb0b60ae376194012102a7300499385252e09685dee7115affeb221e74bd0807df107176a3dfd59646cfffffffff0233050000000000001976a914155d173f1bf5ab36d8e787fcce956ccca41b2a7a88acac070100000000001976a914bfb6e772d05391489812306d278081836788c7bd88ac00000000", "vin": [{"sequence": 4294967295, "scriptSig": {"hex": "47304402205f4124fc3e80af3b00128c019387c159a0eceb98e588c4c66e0b9b199a07c143022037bc1face2b7adffb9dff6e19befd2122de8387bf260379ceefb553580796a5a012102a7300499385252e09685dee7115affeb221e74bd0807df107176a3dfd59646cf", "asm": "304402205f4124fc3e80af3b00128c019387c159a0eceb98e588c4c66e0b9b199a07c143022037bc1face2b7adffb9dff6e19befd2122de8387bf260379ceefb553580796a5a[ALL] 02a7300499385252e09685dee7115affeb221e74bd0807df107176a3dfd59646cf"}, "vout": 0, "txid": "6e0105178580757d8e9b7d723098b93a7e3f4514e1925f2d82a2cca1930d99d8"}, {"sequence": 4294967295, "scriptSig": {"hex": "47304402201189173a141c4e1834b2833c3bcada3c14699d3f87ea124482d3ccbdfdc98646022065c5b56a7693b6720974adeca6305c44c0b1661c916f0bd91afb0b60ae376194012102a7300499385252e09685dee7115affeb221e74bd0807df107176a3dfd59646cf", "asm": "304402201189173a141c4e1834b2833c3bcada3c14699d3f87ea124482d3ccbdfdc98646022065c5b56a7693b6720974adeca6305c44c0b1661c916f0bd91afb0b60ae376194[ALL] 02a7300499385252e09685dee7115affeb221e74bd0807df107176a3dfd59646cf"}, "vout": 0, "txid": "b432ebcbbff709cdcdc80d8f5f920c81c0ef1664a903ac69bba3c8ac1764653a"}], "txid": "b7f5c1cc8752f24e7890e8cc6f2d6bc6851c13f1c82e424776a4361938d15c30", "blocktime": 1537870928, "version": 1, "confirmations": 11514, "time": 1537870928, "locktime": 0, "vsize": 372, "size": 372}