{"hash": "69c0473c5748fa4343365810f51329497e63ae58aa36baa5959e5492692b5bfc", "blockhash": "0000000000000000000dcc0f55137456b1a82d3642486a52398922ac4d620174", "vout": [{"scriptPubKey": {"reqSigs": 1, "hex": "a914d3646aafbf0eb55968a50661c8f9826262e9d47787", "addresses": ["3Lxko6cq3Y3eB7D6CYKZH9RbcQQpsc5CeL"], "asm": "OP_HASH160 d3646aafbf0eb55968a50661c8f9826262e9d477 OP_EQUAL", "type": "scripthash"}, "value": 0.01471559, "n": 0}, {"scriptPubKey": {"reqSigs": 1, "hex": "a914820cb443626f917455e9b53973e477c80fb95b1587", "addresses": ["3DYezBVerQ2JLZ6muwTvDKsXUHvd1ccsrU"], "asm": "OP_HASH160 820cb443626f917455e9b53973e477c80fb95b15 OP_EQUAL", "type": "scripthash"}, "value": 0.00698948, "n": 1}, {"scriptPubKey": {"reqSigs": 1, "hex": "a914cbbc59118e73173a41415b5f5b80c7587183e1f387", "addresses": ["3LGGj8QbwcK9ePnExPQYY917RogyCG9xr8"], "asm": "OP_HASH160 cbbc59118e73173a41415b5f5b80c7587183e1f3 OP_EQUAL", "type": "scripthash"}, "value": 0.01482648, "n": 2}, {"scriptPubKey": {"reqSigs": 1, "hex": "a9144f2600ac3e12614cf8568248016d28bab547689887", "addresses": ["38uWqAeuEhBYQ6VjUuU3jzcq3uLWBCThgR"], "asm": "OP_HASH160 4f2600ac3e12614cf8568248016d28bab5476898 OP_EQUAL", "type": "scripthash"}, "value": 0.00998948, "n": 3}], "hex": "02000000000101dd682e2d2834f9662dbda6cab020081587812b135090c79b52ea18e0c9453157030000001716001487abbbc3ae34e5f4e91575b3e7c1b5e83e87c9aafeffffff04477416000000000017a914d3646aafbf0eb55968a50661c8f9826262e9d4778744aa0a000000000017a914820cb443626f917455e9b53973e477c80fb95b1587989f16000000000017a914cbbc59118e73173a41415b5f5b80c7587183e1f387243e0f000000000017a9144f2600ac3e12614cf8568248016d28bab5476898870247304402206a80b783a6502a9507b4c530490b2095994e22816c91b69caf057472929d49800220079730efb69faf69df12bd7a2f1c71614c6b33dd91ab2ca3c587be77ed091508012103591c083f99a8dc37f0c7f18c7776cc2258b4520b2414b6ce24428a4bd1d973c2f1480800", "vin": [{"txinwitness": ["304402206a80b783a6502a9507b4c530490b2095994e22816c91b69caf057472929d49800220079730efb69faf69df12bd7a2f1c71614c6b33dd91ab2ca3c587be77ed09150801", "03591c083f99a8dc37f0c7f18c7776cc2258b4520b2414b6ce24428a4bd1d973c2"], "sequence": 4294967294, "scriptSig": {"hex": "16001487abbbc3ae34e5f4e91575b3e7c1b5e83e87c9aa", "asm": "001487abbbc3ae34e5f4e91575b3e7c1b5e83e87c9aa"}, "vout": 3, "txid": "573145c9e018ea529bc79050132b8187150820b0caa6bd2d66f934282d2e68dd"}], "txid": "b7facafbe73f9b005e9d79db18f4e1fa126bcf7a11653d11e8a6566ea6819123", "blocktime": 1537870268, "version": 2, "confirmations": 11516, "time": 1537870268, "locktime": 542961, "vsize": 230, "size": 311}