{"hash": "b8020b3000fac15c2776bec4c9f1f7ab512136244fb7501c2d2589220ba61c5c", "blockhash": "0000000000000000001e0dab787dd257d1dbfcb92a98c2207d5e1078be1f4165", "vout": [{"scriptPubKey": {"reqSigs": 1, "hex": "76a914a25dec4d0011064ef106a983c39c7a540699f22088ac", "addresses": ["1FoWyxwPXuj4C6abqwhjDWdz6D4PZgYRjA"], "asm": "OP_DUP OP_HASH160 a25dec4d0011064ef106a983c39c7a540699f220 OP_EQUALVERIFY OP_CHECKSIG", "type": "pubkeyhash"}, "value": 0.01985658, "n": 0}, {"scriptPubKey": {"type": "nulldata", "hex": "6a146f6d6e69000000000000001f0000000da9012780", "asm": "OP_RETURN 6f6d6e69000000000000001f0000000da9012780"}, "value": 0.0, "n": 1}, {"scriptPubKey": {"reqSigs": 1, "hex": "a91429e2d83b69340c6c7a4acfe14ca53f1eae8ff00487", "addresses": ["35WVNrMtbdPhJt7smT78HomK7q1B36So44"], "asm": "OP_HASH160 29e2d83b69340c6c7a4acfe14ca53f1eae8ff004 OP_EQUAL", "type": "scripthash"}, "value": 5.4e-06, "n": 2}], "hex": "01000000014286146890b44a3bf68756a08bbd25d889588d75bdb066427133b5d0d6b3ca51010000006a47304402204190a0f9d289cc96cb1bc6099b36d81ac3d3a329cdb6b336dcc3c893bcdf98f60220733d7adc361338013f0f986bd7fa405b1250ff8eab0a701acf4d90daf65cb742012103da5bac7b36d5aa38f531c6b9601e21bb598a4b6716ebed38b009a55dabde9440feffffff037a4c1e00000000001976a914a25dec4d0011064ef106a983c39c7a540699f22088ac0000000000000000166a146f6d6e69000000000000001f0000000da90127801c0200000000000017a91429e2d83b69340c6c7a4acfe14ca53f1eae8ff0048712490800", "vin": [{"sequence": 4294967294, "scriptSig": {"hex": "47304402204190a0f9d289cc96cb1bc6099b36d81ac3d3a329cdb6b336dcc3c893bcdf98f60220733d7adc361338013f0f986bd7fa405b1250ff8eab0a701acf4d90daf65cb742012103da5bac7b36d5aa38f531c6b9601e21bb598a4b6716ebed38b009a55dabde9440", "asm": "304402204190a0f9d289cc96cb1bc6099b36d81ac3d3a329cdb6b336dcc3c893bcdf98f60220733d7adc361338013f0f986bd7fa405b1250ff8eab0a701acf4d90daf65cb742[ALL] 03da5bac7b36d5aa38f531c6b9601e21bb598a4b6716ebed38b009a55dabde9440"}, "vout": 1, "txid": "51cab3d6d0b533714266b0bd758d5889d825bd8ba05687f63b4ab49068148642"}], "txid": "b8020b3000fac15c2776bec4c9f1f7ab512136244fb7501c2d2589220ba61c5c", "blocktime": 1537872475, "version": 1, "confirmations": 11486, "time": 1537872475, "locktime": 542994, "vsize": 254, "size": 254}