{"hash": "d5722bfc5c69061a9e02d8facca055463f2ec5ff31ce9332c78df8bac8dd9c9a", "blockhash": "0000000000000000001e0dab787dd257d1dbfcb92a98c2207d5e1078be1f4165", "vout": [{"scriptPubKey": {"reqSigs": 1, "hex": "76a914917dd57809801d5dc65427f2b91a85a4c029f19988ac", "addresses": ["1EGHiuX2yP8QFUjbkkNP2ZgL7aNwqfqQ6L"], "asm": "OP_DUP OP_HASH160 917dd57809801d5dc65427f2b91a85a4c029f199 OP_EQUALVERIFY OP_CHECKSIG", "type": "pubkeyhash"}, "value": 0.05263717, "n": 0}, {"scriptPubKey": {"reqSigs": 1, "hex": "00146ff50426c56345aa16580612bbee82ce8dbaf9dc", "addresses": ["bc1qdl6sgfk9vdz659jcqcfthm5ze6xm47wuq2tnzv"], "asm": "0 6ff50426c56345aa16580612bbee82ce8dbaf9dc", "type": "witness_v0_keyhash"}, "value": 0.00337157, "n": 1}], "hex": "010000000001019650dc2926dbea774e245fac9d7e69ef36a17dbc3a55c91c9a544a6473b1ddd25e000000171600144b5d30b6aa9142509617c772ab4cc9b87b18e9b3ffffffff0265515000000000001976a914917dd57809801d5dc65427f2b91a85a4c029f19988ac05250500000000001600146ff50426c56345aa16580612bbee82ce8dbaf9dc02483045022100e66410438c2d13ce6ef0a954aec0012ecc2313ebe4744e66db0f95d613f677280220713fed16fb6c4689a8b0f8fb1560f1d8a7116e77009eb42ac5393240d8ce98a90121026e9e0cadccb99a6cad5de3dde00f797f0ecf6abdfa6051a9707fb0236c96112700000000", "vin": [{"txinwitness": ["3045022100e66410438c2d13ce6ef0a954aec0012ecc2313ebe4744e66db0f95d613f677280220713fed16fb6c4689a8b0f8fb1560f1d8a7116e77009eb42ac5393240d8ce98a901", "026e9e0cadccb99a6cad5de3dde00f797f0ecf6abdfa6051a9707fb0236c961127"], "sequence": 4294967295, "scriptSig": {"hex": "1600144b5d30b6aa9142509617c772ab4cc9b87b18e9b3", "asm": "00144b5d30b6aa9142509617c772ab4cc9b87b18e9b3"}, "vout": 94, "txid": "d2ddb173644a549a1cc9553abc7da136ef697e9dac5f244e77eadb2629dc5096"}], "txid": "b8093c97c9795f727d47cbe3956dfe4ff94ec184c13d123ee218e541043bbc1b", "blocktime": 1537872475, "version": 1, "confirmations": 11487, "time": 1537872475, "locktime": 0, "vsize": 167, "size": 249}