{"hash": "b80f8d39ab195731b9c79612dd2616ea30b3f2b141226d743724b1e5ae8a1e53", "blockhash": "0000000000000000001cda96e906b7601b7a6fb1a3b62bca570a9e5d8f4b3de1", "vout": [{"scriptPubKey": {"reqSigs": 1, "hex": "76a914a9a081409a3dbc20ebcf1ee7408623d6c498096688ac", "addresses": ["1GTuUVhKytxjXUucWDhJ9WZTzN6fFXHBQg"], "asm": "OP_DUP OP_HASH160 a9a081409a3dbc20ebcf1ee7408623d6c4980966 OP_EQUALVERIFY OP_CHECKSIG", "type": "pubkeyhash"}, "value": 0.0015614, "n": 0}, {"scriptPubKey": {"reqSigs": 1, "hex": "76a914073609a449ba253eb45d8e6348af57a12d3ee27088ac", "addresses": ["1f8TwqYuhrKtwwEozCBafcanvGEMcDKAz"], "asm": "OP_DUP OP_HASH160 073609a449ba253eb45d8e6348af57a12d3ee270 OP_EQUALVERIFY OP_CHECKSIG", "type": "pubkeyhash"}, "value": 0.00343182, "n": 1}], "hex": "0100000001d12a91f35f775ee17cdb83b97d8544a40967e79283f4f1b6771ffc30997731d5000000006a473044022004863c52639f408aebd681aa99c9aee36c4b18224b18156f2a386ab12191b73a0220357e5ae0cf96705ae2ff3044634c556e5db7b019aa132649c0504918313669ef012103ae64eacc41c10ac9b6ad1ec5bb512f2df39506abf8ad7277f09711697f337b09ffffffff02ec610200000000001976a914a9a081409a3dbc20ebcf1ee7408623d6c498096688ac8e3c0500000000001976a914073609a449ba253eb45d8e6348af57a12d3ee27088ac00000000", "vin": [{"sequence": 4294967295, "scriptSig": {"hex": "473044022004863c52639f408aebd681aa99c9aee36c4b18224b18156f2a386ab12191b73a0220357e5ae0cf96705ae2ff3044634c556e5db7b019aa132649c0504918313669ef012103ae64eacc41c10ac9b6ad1ec5bb512f2df39506abf8ad7277f09711697f337b09", "asm": "3044022004863c52639f408aebd681aa99c9aee36c4b18224b18156f2a386ab12191b73a0220357e5ae0cf96705ae2ff3044634c556e5db7b019aa132649c0504918313669ef[ALL] 03ae64eacc41c10ac9b6ad1ec5bb512f2df39506abf8ad7277f09711697f337b09"}, "vout": 0, "txid": "d531779930fc1f77b6f1f48392e76709a444857db983db7ce15e775ff3912ad1"}], "txid": "b80f8d39ab195731b9c79612dd2616ea30b3f2b141226d743724b1e5ae8a1e53", "blocktime": 1537873282, "version": 1, "confirmations": 11484, "time": 1537873282, "locktime": 0, "vsize": 225, "size": 225}