{"hash": "b8102efab8c8834e7355942a2e2e8754e36bed1958fc793a9d6744a91e9dc12d", "blockhash": "0000000000000000001f76057863aec43deb6fa401d9628bb513d65a8098bfab", "vout": [{"scriptPubKey": {"reqSigs": 1, "hex": "a914c383411d52b53ca4ce87625c4ea90a8f46f7d39087", "addresses": ["3KWnvfQnR1LWZCLsKh4K7yjFfcX3HvGu1d"], "asm": "OP_HASH160 c383411d52b53ca4ce87625c4ea90a8f46f7d390 OP_EQUAL", "type": "scripthash"}, "value": 0.00943876, "n": 0}], "hex": "0100000001eecd136bf1c0d816e6c5eb7cd90791280e5f224545319c52246bf19c2b5cd47e000000006b483045022100917d2440065d34dfc3d3f003745c11ed2874405bb3e4154d96db0e5063fb4e0602207fb02cb8eb71c5dbaf29bb7dc7e354cddeb1d3635e7299321b25055d998bb7dc0121036fd635e777ee7b0cafb00bef95f362569bbe5bdea10f589b6ca9c49d29aa914dffffffff0104670e000000000017a914c383411d52b53ca4ce87625c4ea90a8f46f7d3908700000000", "vin": [{"sequence": 4294967295, "scriptSig": {"hex": "483045022100917d2440065d34dfc3d3f003745c11ed2874405bb3e4154d96db0e5063fb4e0602207fb02cb8eb71c5dbaf29bb7dc7e354cddeb1d3635e7299321b25055d998bb7dc0121036fd635e777ee7b0cafb00bef95f362569bbe5bdea10f589b6ca9c49d29aa914d", "asm": "3045022100917d2440065d34dfc3d3f003745c11ed2874405bb3e4154d96db0e5063fb4e0602207fb02cb8eb71c5dbaf29bb7dc7e354cddeb1d3635e7299321b25055d998bb7dc[ALL] 036fd635e777ee7b0cafb00bef95f362569bbe5bdea10f589b6ca9c49d29aa914d"}, "vout": 0, "txid": "7ed45c2b9cf16b24529c314545225f0e289107d97cebc5e616d8c0f16b13cdee"}], "txid": "b8102efab8c8834e7355942a2e2e8754e36bed1958fc793a9d6744a91e9dc12d", "blocktime": 1537873891, "version": 1, "confirmations": 11478, "time": 1537873891, "locktime": 0, "vsize": 190, "size": 190}