{"hash": "b8132a3d156dc3bc99208b20342b50305f53c067e9dcffc1312cf896ddc44e85", "blockhash": "0000000000000000001f76057863aec43deb6fa401d9628bb513d65a8098bfab", "vout": [{"scriptPubKey": {"reqSigs": 1, "hex": "76a914695300a18a974b3c0b817f0f9a706831d6fa195788ac", "addresses": ["1AbuPFmLyjqBkT4xSiS1JY7cPqqcGjFdvV"], "asm": "OP_DUP OP_HASH160 695300a18a974b3c0b817f0f9a706831d6fa1957 OP_EQUALVERIFY OP_CHECKSIG", "type": "pubkeyhash"}, "value": 0.01542555, "n": 0}, {"scriptPubKey": {"reqSigs": 1, "hex": "76a914f7d2bb0009501f5b82f1b6a8d921d5c93614fcb488ac", "addresses": ["1PbNMC8FGJpMJwVRnmYWzmRbgnyHvA79i1"], "asm": "OP_DUP OP_HASH160 f7d2bb0009501f5b82f1b6a8d921d5c93614fcb4 OP_EQUALVERIFY OP_CHECKSIG", "type": "pubkeyhash"}, "value": 8.97746596, "n": 1}], "hex": "01000000014d0d10e5a9dbe2eab43c2e937dd4a34fe7c624366776d4e1ad4bf8308acc63d2000000006a47304402207a57bbee4986857c8092e4130c62e3f60fe19cfc1f815121bc4a687fcc51bb6c0220456460d1737aa0844dfac992442105260c687bdc3c83a9261f969015cd96bced012102de2ad061af8bedce6f6672af3d4eefc34db8daba97fb45e231b13644806f35f1ffffffff029b891700000000001976a914695300a18a974b3c0b817f0f9a706831d6fa195788aca4868235000000001976a914f7d2bb0009501f5b82f1b6a8d921d5c93614fcb488ac00000000", "vin": [{"sequence": 4294967295, "scriptSig": {"hex": "47304402207a57bbee4986857c8092e4130c62e3f60fe19cfc1f815121bc4a687fcc51bb6c0220456460d1737aa0844dfac992442105260c687bdc3c83a9261f969015cd96bced012102de2ad061af8bedce6f6672af3d4eefc34db8daba97fb45e231b13644806f35f1", "asm": "304402207a57bbee4986857c8092e4130c62e3f60fe19cfc1f815121bc4a687fcc51bb6c0220456460d1737aa0844dfac992442105260c687bdc3c83a9261f969015cd96bced[ALL] 02de2ad061af8bedce6f6672af3d4eefc34db8daba97fb45e231b13644806f35f1"}, "vout": 0, "txid": "d263cc8a30f84bade1d476673624c6e74fa3d47d932e3cb4eae2dba9e5100d4d"}], "txid": "b8132a3d156dc3bc99208b20342b50305f53c067e9dcffc1312cf896ddc44e85", "blocktime": 1537873891, "version": 1, "confirmations": 11474, "time": 1537873891, "locktime": 0, "vsize": 225, "size": 225}