{"hash": "b817c16b976dd23c736d1a1627ca31a5378413db8e33b89c583fa3aaceff74b1", "blockhash": "0000000000000000001e0dab787dd257d1dbfcb92a98c2207d5e1078be1f4165", "vout": [{"scriptPubKey": {"reqSigs": 1, "hex": "a914c1e6edba224b4b4d9576b52d901ef4cc92befbc487", "addresses": ["3KNGymYwhsKqtGfa5RYKTwB4L8FK5ubN6e"], "asm": "OP_HASH160 c1e6edba224b4b4d9576b52d901ef4cc92befbc4 OP_EQUAL", "type": "scripthash"}, "value": 0.00304864, "n": 0}, {"scriptPubKey": {"reqSigs": 1, "hex": "76a91480a8860ffe031224f3ea2baa634535ee99047cca88ac", "addresses": ["1CjHNnXcbhLnw7jRjLdcZA3EwPxuqyKRk8"], "asm": "OP_DUP OP_HASH160 80a8860ffe031224f3ea2baa634535ee99047cca OP_EQUALVERIFY OP_CHECKSIG", "type": "pubkeyhash"}, "value": 0.01471638, "n": 1}], "hex": "010000000159f01f49b19e718260f3940fb90fbacce30fedabe957d84765064ecf239e54cd010000006b4830450221009a71eeb070dcf3b525fd844b2746d6470484881e4e9f12aae8fd3cad723b7ec3022037876116990228221e067047034660cde49798a4f9b4c13903f8f815a591f7bc0121030e5f53fce728c5b914fa11cca21041a80687aad4507a36c62cf1ab1e1d7799d1ffffffff02e0a604000000000017a914c1e6edba224b4b4d9576b52d901ef4cc92befbc48796741600000000001976a91480a8860ffe031224f3ea2baa634535ee99047cca88ac00000000", "vin": [{"sequence": 4294967295, "scriptSig": {"hex": "4830450221009a71eeb070dcf3b525fd844b2746d6470484881e4e9f12aae8fd3cad723b7ec3022037876116990228221e067047034660cde49798a4f9b4c13903f8f815a591f7bc0121030e5f53fce728c5b914fa11cca21041a80687aad4507a36c62cf1ab1e1d7799d1", "asm": "30450221009a71eeb070dcf3b525fd844b2746d6470484881e4e9f12aae8fd3cad723b7ec3022037876116990228221e067047034660cde49798a4f9b4c13903f8f815a591f7bc[ALL] 030e5f53fce728c5b914fa11cca21041a80687aad4507a36c62cf1ab1e1d7799d1"}, "vout": 1, "txid": "cd549e23cf4e066547d857e9abed0fe3ccba0fb90f94f36082719eb1491ff059"}], "txid": "b817c16b976dd23c736d1a1627ca31a5378413db8e33b89c583fa3aaceff74b1", "blocktime": 1537872475, "version": 1, "confirmations": 11486, "time": 1537872475, "locktime": 0, "vsize": 224, "size": 224}