{"hash": "b818782907ad3979857a59c96323044f6c31db8a8e5abd688a55b19727f6b179", "blockhash": "00000000000000000004ffacab907a6b429b9a5745fa0b75af4234bf69dd7176", "vout": [{"scriptPubKey": {"reqSigs": 1, "hex": "76a91456670b31c8fe7a429aaba007571f67a0d62de46088ac", "addresses": ["18srZ6sNtmTMouMmhJxVKGTiuxMr3Dxc6R"], "asm": "OP_DUP OP_HASH160 56670b31c8fe7a429aaba007571f67a0d62de460 OP_EQUALVERIFY OP_CHECKSIG", "type": "pubkeyhash"}, "value": 0.15298433, "n": 0}, {"scriptPubKey": {"reqSigs": 1, "hex": "76a9141bc4e800ca9c98a410b7c77902cbf0352c8ebb4388ac", "addresses": ["13Xq8U3qLEYdTdzFRVKpRvYCJdir81zD2A"], "asm": "OP_DUP OP_HASH160 1bc4e800ca9c98a410b7c77902cbf0352c8ebb43 OP_EQUALVERIFY OP_CHECKSIG", "type": "pubkeyhash"}, "value": 0.82856367, "n": 1}], "hex": "02000000011ad7c0ad9a8fae8aa573d9a7bb45038c26ff3131b90d739e3de46252e91b33ef010000006a473044022075237800c45faef6dbc1ba63be762496146dcca585c47c1be2b8a31f6e38efa602206b7f62267a78dad6118f63de0431b8177f96e744dea255dae7a67db8dba076530121038db5b3af3cb9949efd1d7012281aa6be52ff259f18f74d35d3c443a1fb17a030feffffff02816fe900000000001976a91456670b31c8fe7a429aaba007571f67a0d62de46088acaf49f004000000001976a9141bc4e800ca9c98a410b7c77902cbf0352c8ebb4388ac16490800", "vin": [{"sequence": 4294967294, "scriptSig": {"hex": "473044022075237800c45faef6dbc1ba63be762496146dcca585c47c1be2b8a31f6e38efa602206b7f62267a78dad6118f63de0431b8177f96e744dea255dae7a67db8dba076530121038db5b3af3cb9949efd1d7012281aa6be52ff259f18f74d35d3c443a1fb17a030", "asm": "3044022075237800c45faef6dbc1ba63be762496146dcca585c47c1be2b8a31f6e38efa602206b7f62267a78dad6118f63de0431b8177f96e744dea255dae7a67db8dba07653[ALL] 038db5b3af3cb9949efd1d7012281aa6be52ff259f18f74d35d3c443a1fb17a030"}, "vout": 1, "txid": "ef331be95262e43d9e730db93131ff268c0345bba7d973a58aae8f9aadc0d71a"}], "txid": "b818782907ad3979857a59c96323044f6c31db8a8e5abd688a55b19727f6b179", "blocktime": 1537875543, "version": 2, "confirmations": 11464, "time": 1537875543, "locktime": 542998, "vsize": 225, "size": 225}