{"hash": "b81bc2159e8cbde6ff0d9d4490813c4044f3d1a011a09294f71f5a107629cabb", "blockhash": "0000000000000000001f76057863aec43deb6fa401d9628bb513d65a8098bfab", "vout": [{"scriptPubKey": {"type": "nulldata", "hex": "6a4c50000077eb0001898c5f3db24d8427f7d2a7c27af8e8e963c7cfd5b95b23cc0f42c2fc38c5cace7bf33c6de829e480a5d8b3e868275baa179f0613112e39738db11d100759d4ba30d2c37bb011d97e02cf", "asm": "OP_RETURN 000077eb0001898c5f3db24d8427f7d2a7c27af8e8e963c7cfd5b95b23cc0f42c2fc38c5cace7bf33c6de829e480a5d8b3e868275baa179f0613112e39738db11d100759d4ba30d2c37bb011d97e02cf"}, "value": 0.0, "n": 0}, {"scriptPubKey": {"reqSigs": 1, "hex": "76a914591acb389d9b2a1baae726a2c43bd5f335f8e0a888ac", "addresses": ["1989Ejyr3cNqL8diHSXD1xBJ68Rg6NA7Uo"], "asm": "OP_DUP OP_HASH160 591acb389d9b2a1baae726a2c43bd5f335f8e0a8 OP_EQUALVERIFY OP_CHECKSIG", "type": "pubkeyhash"}, "value": 0.00634587, "n": 1}], "hex": "0100000001e2bddf6901aa6c04e5e22cfec77bf6775f7a125264d7758bd19a0a84e1d71cdc000000006a473044022052c0e1304d457ad3da155b2db1ffdafe0ea2c8b5132230f0ffc98bc106e1315f022051e486d53852dcc6505dfacd9d9f1d08877d04b60a25ef54be5d24b933a55b9e01210336e99f76b8ad6c8fc827fae8cb2a98a3944fdbc9f695d3923b53b9c3062c1aedffffffff020000000000000000536a4c50000077eb0001898c5f3db24d8427f7d2a7c27af8e8e963c7cfd5b95b23cc0f42c2fc38c5cace7bf33c6de829e480a5d8b3e868275baa179f0613112e39738db11d100759d4ba30d2c37bb011d97e02cfdbae0900000000001976a914591acb389d9b2a1baae726a2c43bd5f335f8e0a888ac00000000", "vin": [{"sequence": 4294967295, "scriptSig": {"hex": "473044022052c0e1304d457ad3da155b2db1ffdafe0ea2c8b5132230f0ffc98bc106e1315f022051e486d53852dcc6505dfacd9d9f1d08877d04b60a25ef54be5d24b933a55b9e01210336e99f76b8ad6c8fc827fae8cb2a98a3944fdbc9f695d3923b53b9c3062c1aed", "asm": "3044022052c0e1304d457ad3da155b2db1ffdafe0ea2c8b5132230f0ffc98bc106e1315f022051e486d53852dcc6505dfacd9d9f1d08877d04b60a25ef54be5d24b933a55b9e[ALL] 0336e99f76b8ad6c8fc827fae8cb2a98a3944fdbc9f695d3923b53b9c3062c1aed"}, "vout": 0, "txid": "dc1cd7e1840a9ad18b75d76452127a5f77f67bc7fe2ce2e5046caa0169dfbde2"}], "txid": "b81bc2159e8cbde6ff0d9d4490813c4044f3d1a011a09294f71f5a107629cabb", "blocktime": 1537873891, "version": 1, "confirmations": 11478, "time": 1537873891, "locktime": 0, "vsize": 283, "size": 283}