{"hash": "b821a648826b8529151c8c9f777f2742f6379991a7a17aa140feeca75e741faf", "blockhash": "00000000000000000024a2167bbff67b0be802c0b01cdd79e6331c2be6459f87", "vout": [{"scriptPubKey": {"reqSigs": 1, "hex": "76a914a43fc0c732534f6b2f3702ea9a2e1da4ec6c556f88ac", "addresses": ["1FyUC6k8wHPZAjhV1rxMvQtk5gmwZYUuR4"], "asm": "OP_DUP OP_HASH160 a43fc0c732534f6b2f3702ea9a2e1da4ec6c556f OP_EQUALVERIFY OP_CHECKSIG", "type": "pubkeyhash"}, "value": 0.04840357, "n": 0}, {"scriptPubKey": {"reqSigs": 1, "hex": "a914eace81b1613ac2f06ab63aaace6d887cec14e9b687", "addresses": ["3P6ZRmDEwwq2vy8ZQxzG2c3GiXzm5qprDo"], "asm": "OP_HASH160 eace81b1613ac2f06ab63aaace6d887cec14e9b6 OP_EQUAL", "type": "scripthash"}, "value": 0.01446314, "n": 1}], "hex": "01000000028bc1c884d2fdc7715c3b55e5f14b335b92f19fe7968c5f1a485b23a559f39d7d01000000fc004730440220252c3460a3adaf5257d35a71ee9c926e13b0455f1a23984ba41f1cf6d15394e702207c50cc93143a844ec22c24892255304d21d6ae9bc670fd0e2ca722b2e78f619c0147304402205dfbdf408dd7520e8214ce1fd2a2b12c528943a21f6d27a5c7380ab37ec3547902207be671e0ea0d2b9e5cf16bd9632793c5ccdf8be166d5aacd3151d22513778dec014c69522103a8b05137edfcbfe23d4eea35961a2686c66ae3314e0b00fe5091d1bf4c67476c2102ceaab4a255d9b3d51b25d40f95a9665df18c040a70c66987b196e339fc1c07a42102dbfa108f1fc70019b1421d398c28bbd501871935ceb28680b69a0437dd389b0453aeffffffff9b48baa68305fb10f60db814012b732e321f28a3ee000ceb5ecc97cb7d667a3800000000fdfd0000473044022066aba1ab0450d6b04da6bbcd420a93f87a4f47a4e9c7c8070571621a77558e50022006d10c4f8d364b4ef01174045fb7820d26fce131c6b9f8eaa09aa3be93006f4d01483045022100c82fb17f739b855b3708188dc544c35eeb666fdd72580323107a878740be398702203e4435b37c316c040a1a1b06a63d79a0d5c138cc86e065c15190422bbf30d6d4014c695221032e51dbc4809a10173fa9cebb2cbfe54e80d05371a28ecedc1fce3aad393cb61a2102ceaab4a255d9b3d51b25d40f95a9665df18c040a70c66987b196e339fc1c07a42102dbfa108f1fc70019b1421d398c28bbd501871935ceb28680b69a0437dd389b0453aeffffffff02a5db4900000000001976a914a43fc0c732534f6b2f3702ea9a2e1da4ec6c556f88acaa1116000000000017a914eace81b1613ac2f06ab63aaace6d887cec14e9b68700000000", "vin": [{"sequence": 4294967295, "scriptSig": {"hex": "004730440220252c3460a3adaf5257d35a71ee9c926e13b0455f1a23984ba41f1cf6d15394e702207c50cc93143a844ec22c24892255304d21d6ae9bc670fd0e2ca722b2e78f619c0147304402205dfbdf408dd7520e8214ce1fd2a2b12c528943a21f6d27a5c7380ab37ec3547902207be671e0ea0d2b9e5cf16bd9632793c5ccdf8be166d5aacd3151d22513778dec014c69522103a8b05137edfcbfe23d4eea35961a2686c66ae3314e0b00fe5091d1bf4c67476c2102ceaab4a255d9b3d51b25d40f95a9665df18c040a70c66987b196e339fc1c07a42102dbfa108f1fc70019b1421d398c28bbd501871935ceb28680b69a0437dd389b0453ae", "asm": "0 30440220252c3460a3adaf5257d35a71ee9c926e13b0455f1a23984ba41f1cf6d15394e702207c50cc93143a844ec22c24892255304d21d6ae9bc670fd0e2ca722b2e78f619c[ALL] 304402205dfbdf408dd7520e8214ce1fd2a2b12c528943a21f6d27a5c7380ab37ec3547902207be671e0ea0d2b9e5cf16bd9632793c5ccdf8be166d5aacd3151d22513778dec[ALL] 522103a8b05137edfcbfe23d4eea35961a2686c66ae3314e0b00fe5091d1bf4c67476c2102ceaab4a255d9b3d51b25d40f95a9665df18c040a70c66987b196e339fc1c07a42102dbfa108f1fc70019b1421d398c28bbd501871935ceb28680b69a0437dd389b0453ae"}, "vout": 1, "txid": "7d9df359a5235b481a5f8c96e79ff1925b334bf1e5553b5c71c7fdd284c8c18b"}, {"sequence": 4294967295, "scriptSig": {"hex": "00473044022066aba1ab0450d6b04da6bbcd420a93f87a4f47a4e9c7c8070571621a77558e50022006d10c4f8d364b4ef01174045fb7820d26fce131c6b9f8eaa09aa3be93006f4d01483045022100c82fb17f739b855b3708188dc544c35eeb666fdd72580323107a878740be398702203e4435b37c316c040a1a1b06a63d79a0d5c138cc86e065c15190422bbf30d6d4014c695221032e51dbc4809a10173fa9cebb2cbfe54e80d05371a28ecedc1fce3aad393cb61a2102ceaab4a255d9b3d51b25d40f95a9665df18c040a70c66987b196e339fc1c07a42102dbfa108f1fc70019b1421d398c28bbd501871935ceb28680b69a0437dd389b0453ae", "asm": "0 3044022066aba1ab0450d6b04da6bbcd420a93f87a4f47a4e9c7c8070571621a77558e50022006d10c4f8d364b4ef01174045fb7820d26fce131c6b9f8eaa09aa3be93006f4d[ALL] 3045022100c82fb17f739b855b3708188dc544c35eeb666fdd72580323107a878740be398702203e4435b37c316c040a1a1b06a63d79a0d5c138cc86e065c15190422bbf30d6d4[ALL] 5221032e51dbc4809a10173fa9cebb2cbfe54e80d05371a28ecedc1fce3aad393cb61a2102ceaab4a255d9b3d51b25d40f95a9665df18c040a70c66987b196e339fc1c07a42102dbfa108f1fc70019b1421d398c28bbd501871935ceb28680b69a0437dd389b0453ae"}, "vout": 0, "txid": "387a667dcb97cc5eeb0c00eea3281f322e732b0114b80df610fb0583a6ba489b"}], "txid": "b821a648826b8529151c8c9f777f2742f6379991a7a17aa140feeca75e741faf", "blocktime": 1537870564, "version": 1, "confirmations": 11515, "time": 1537870564, "locktime": 0, "vsize": 665, "size": 665}