{"hash": "574ffed9c5417e06b80c1946d30777fae850469e99040c2726758fbe82106a05", "blockhash": "00000000000000000017f5eb5941039fbcee6240d03bc1f2f8e35350df66a1d8", "vout": [{"scriptPubKey": {"reqSigs": 1, "hex": "76a914e952f3c95cf8900d494744b3d3ce2b2caee7bda888ac", "addresses": ["1NGhpKifhGcHuncsgiv9dg9Pj6jcVi1FyM"], "asm": "OP_DUP OP_HASH160 e952f3c95cf8900d494744b3d3ce2b2caee7bda8 OP_EQUALVERIFY OP_CHECKSIG", "type": "pubkeyhash"}, "value": 0.02818887, "n": 0}, {"scriptPubKey": {"reqSigs": 1, "hex": "a914066bdf27b3e0e5bf9691ee34ae3a5a18157ab0fb87", "addresses": ["32GyCkZNcUevBWUUM3EjzGBzEUxvihADGc"], "asm": "OP_HASH160 066bdf27b3e0e5bf9691ee34ae3a5a18157ab0fb OP_EQUAL", "type": "scripthash"}, "value": 0.22180944, "n": 1}], "hex": "020000000001013d8dad7a46dca5cee4aa115cdab66c1b8b645cef863632e4206a0f24f0803b81000000001716001468579cc6164a4b4cdea9dafe98fa11c93f1d30bbfeffffff0247032b00000000001976a914e952f3c95cf8900d494744b3d3ce2b2caee7bda888ac507452010000000017a914066bdf27b3e0e5bf9691ee34ae3a5a18157ab0fb8702483045022100c0ffca3c00164473ba7041b312b62eb5afea4fa81bf5b64df6e17675a5d817c602207c965a70c6909b3e601e9aa5518711450e2782bf339da9aab98092f11dbce5540121038a8c06035af6fe015e758945c9109564d39935fe3b99a052ec238921cf10b9f813490800", "vin": [{"txinwitness": ["3045022100c0ffca3c00164473ba7041b312b62eb5afea4fa81bf5b64df6e17675a5d817c602207c965a70c6909b3e601e9aa5518711450e2782bf339da9aab98092f11dbce55401", "038a8c06035af6fe015e758945c9109564d39935fe3b99a052ec238921cf10b9f8"], "sequence": 4294967294, "scriptSig": {"hex": "16001468579cc6164a4b4cdea9dafe98fa11c93f1d30bb", "asm": "001468579cc6164a4b4cdea9dafe98fa11c93f1d30bb"}, "vout": 0, "txid": "813b80f0240f6a20e4323686ef5c648b1b6cb6da5c11aae4cea5dc467aad8d3d"}], "txid": "b824e65e2e0922cfc19df68456a4d7ceea2c88a8df007520d4dd8ba0969d666a", "blocktime": 1537874412, "version": 2, "confirmations": 11468, "time": 1537874412, "locktime": 542995, "vsize": 168, "size": 250}