{"hash": "b824a28f4dcbeb1c03fe27ec972a9593b2e06190fac1f962cb7e489b9f44acda", "blockhash": "0000000000000000001cda96e906b7601b7a6fb1a3b62bca570a9e5d8f4b3de1", "vout": [{"scriptPubKey": {"reqSigs": 1, "hex": "76a914dab47e251e9ce021ef994c9b8ae547e29cf8e85c88ac", "addresses": ["1LwQXgB9C4ScvBNk1xh6Cuqzyiia8ZrXL1"], "asm": "OP_DUP OP_HASH160 dab47e251e9ce021ef994c9b8ae547e29cf8e85c OP_EQUALVERIFY OP_CHECKSIG", "type": "pubkeyhash"}, "value": 0.00500144, "n": 0}], "hex": "0100000001f724a5ff7f5b9a7d246899fbdff18857969fecbb90500f6e15d2e0beabd3026d000000006b483045022100c337f23b61406be75e264d747529910461a706643ba502b550dda0cc669cbdfb022068bf2e317cae022a248872d86e4cd83bef7ad49f0d6d857a06f4b92c03703391012102a0f160e4da6328a18b3d1759caee10010e155f00e5c854ef2d8ebbabaa928afcffffffff01b0a10700000000001976a914dab47e251e9ce021ef994c9b8ae547e29cf8e85c88ac00000000", "vin": [{"sequence": 4294967295, "scriptSig": {"hex": "483045022100c337f23b61406be75e264d747529910461a706643ba502b550dda0cc669cbdfb022068bf2e317cae022a248872d86e4cd83bef7ad49f0d6d857a06f4b92c03703391012102a0f160e4da6328a18b3d1759caee10010e155f00e5c854ef2d8ebbabaa928afc", "asm": "3045022100c337f23b61406be75e264d747529910461a706643ba502b550dda0cc669cbdfb022068bf2e317cae022a248872d86e4cd83bef7ad49f0d6d857a06f4b92c03703391[ALL] 02a0f160e4da6328a18b3d1759caee10010e155f00e5c854ef2d8ebbabaa928afc"}, "vout": 0, "txid": "6d02d3abbee0d2156e0f5090bbec9f965788f1dffb9968247d9a5b7fffa524f7"}], "txid": "b824a28f4dcbeb1c03fe27ec972a9593b2e06190fac1f962cb7e489b9f44acda", "blocktime": 1537873282, "version": 1, "confirmations": 11484, "time": 1537873282, "locktime": 0, "vsize": 192, "size": 192}