{"hash": "b82bb51613c1b487d30366947ba347954933bbd3ef2790ec2fba2912eacdcf54", "blockhash": "0000000000000000000e13cef7c366c0283d82e591d1acd082e914b08063cdf1", "vout": [{"scriptPubKey": {"reqSigs": 1, "hex": "76a914abe1365795daa9748daf7fca44be8268727fc30488ac", "addresses": ["1GfpLpv5gBGhpkUimzaxb4zmv4fQNc7drW"], "asm": "OP_DUP OP_HASH160 abe1365795daa9748daf7fca44be8268727fc304 OP_EQUALVERIFY OP_CHECKSIG", "type": "pubkeyhash"}, "value": 0.067939, "n": 0}], "hex": "010000000198b66598a10be417fe525f293dbe176a01fce5caa12549b75aa3fff4015e5969000000006b483045022100a32d2468cbbbbb2ebb18ee8d22f3fbfa7e03ecbacd3f8fe5988247e05d7ac80f022055ff5995ae2845ac8759b872f4eb610330fb59d0480f02366194fe4b9deb4f76012103a38b1f6c4cc9a54774fdf4f869e12900be6bf7b7056e492eed105001b6c8e54effffffff01acaa6700000000001976a914abe1365795daa9748daf7fca44be8268727fc30488ac00000000", "vin": [{"sequence": 4294967295, "scriptSig": {"hex": "483045022100a32d2468cbbbbb2ebb18ee8d22f3fbfa7e03ecbacd3f8fe5988247e05d7ac80f022055ff5995ae2845ac8759b872f4eb610330fb59d0480f02366194fe4b9deb4f76012103a38b1f6c4cc9a54774fdf4f869e12900be6bf7b7056e492eed105001b6c8e54e", "asm": "3045022100a32d2468cbbbbb2ebb18ee8d22f3fbfa7e03ecbacd3f8fe5988247e05d7ac80f022055ff5995ae2845ac8759b872f4eb610330fb59d0480f02366194fe4b9deb4f76[ALL] 03a38b1f6c4cc9a54774fdf4f869e12900be6bf7b7056e492eed105001b6c8e54e"}, "vout": 0, "txid": "69595e01f4ffa35ab74925a1cae5fc016a17be3d295f52fe17e40ba19865b698"}], "txid": "b82bb51613c1b487d30366947ba347954933bbd3ef2790ec2fba2912eacdcf54", "blocktime": 1537871767, "version": 1, "confirmations": 11490, "time": 1537871767, "locktime": 0, "vsize": 192, "size": 192}