{"hash": "b83fe3617da732c044d3c8b1ad99546b2c201b3235d2e8c075502785456466ae", "blockhash": "00000000000000000018f53835495a110e01622372bf6ae95dc86f2b0ab887b0", "vout": [{"scriptPubKey": {"reqSigs": 1, "hex": "a9142d42aec4ba129a730c7cebb51d27266323fcc9a187", "addresses": ["35pLDNSxU2315xjyF6WrwZZqKevC4C99iP"], "asm": "OP_HASH160 2d42aec4ba129a730c7cebb51d27266323fcc9a1 OP_EQUAL", "type": "scripthash"}, "value": 0.06915343, "n": 0}], "hex": "0100000006de6bf15481fa3796f656e6b20263ecec7ff3b58ea95d952589ce8f0bae507b0e150000006a47304402203e4efdcbe073d72ea38133f5c90179f05b29f097d7294e5cdf8ff6a517f29562022031dccdc4e3afff1dc28346d0340f1e7c55fb151fcb4e90aa4ea6fb75da3174cc012102035acebd073be6081d8a84c1691c3bfae5070d85c9a8e150c9110caef26f840dffffffff23a858c8fae4209c51cbe3f6663573b3c5751988040fafcea4e78a61ca1250100b0000006b483045022100cd5e521b648505552d0a6d62e9adec57809f6c87f24be9f504fbc1aa95eccef7022015acfd9859b6974df2a53f7ca1e67d62fdce938f7e107b3dc5ee292280a3a676012102035acebd073be6081d8a84c1691c3bfae5070d85c9a8e150c9110caef26f840dffffffff9c9d41a288cbe3e82c90d3a92d7d070d0e51d99ea378ee292f5c1b125e74e86e010000006a47304402200efa5bc1e74991a4c5a060c0f9964e318315123c3bf7b03ff22933abbd0cb04702200d450bbb4663ef04520fa7be34904e540011a637ce49310f4d3f50236e70923c012102035acebd073be6081d8a84c1691c3bfae5070d85c9a8e150c9110caef26f840dffffffffb8f5aed2ccb50b7ba8d0aecc3ed99f013cf870cec36198ace82997c2aebc925b010000006b483045022100bf8c64a0398da05c8f1c968dfc48563c8e419015076fc5979c92d957f76d9a1e0220651e7aff4649ec53105f47b32a51c893d4687082deb05e510d08b25b90670945012102035acebd073be6081d8a84c1691c3bfae5070d85c9a8e150c9110caef26f840dffffffffb4050f903ce861472e78dffb74ea9309668a85edcae847d1b993c928ceb84713000000006b483045022100dd579e3bd3c12e8d9d892fb443548367eb19ef49e3fd5775b72095b5de3d877702206292e5ad44f2791b93a970e8f6951f7f3f621001cf5794011e6420bab796a361012102035acebd073be6081d8a84c1691c3bfae5070d85c9a8e150c9110caef26f840dffffffff9dda2b61d2248295163237d9020b6fdf9390214543c97ac1844a1b8561a31b83000000006a47304402202ad10f042f384a15d4f79feb16c5d813884a87daaab830f63ace7fa96d31b71402207017683da0e742f5618e7277e59bd22d28be8916a0230a6618f69b1c2b236c3c012102035acebd073be6081d8a84c1691c3bfae5070d85c9a8e150c9110caef26f840dffffffff010f8569000000000017a9142d42aec4ba129a730c7cebb51d27266323fcc9a18700000000", "vin": [{"sequence": 4294967295, "scriptSig": {"hex": "47304402203e4efdcbe073d72ea38133f5c90179f05b29f097d7294e5cdf8ff6a517f29562022031dccdc4e3afff1dc28346d0340f1e7c55fb151fcb4e90aa4ea6fb75da3174cc012102035acebd073be6081d8a84c1691c3bfae5070d85c9a8e150c9110caef26f840d", "asm": "304402203e4efdcbe073d72ea38133f5c90179f05b29f097d7294e5cdf8ff6a517f29562022031dccdc4e3afff1dc28346d0340f1e7c55fb151fcb4e90aa4ea6fb75da3174cc[ALL] 02035acebd073be6081d8a84c1691c3bfae5070d85c9a8e150c9110caef26f840d"}, "vout": 21, "txid": "0e7b50ae0b8fce8925955da98eb5f37fecec6302b2e656f69637fa8154f16bde"}, {"sequence": 4294967295, "scriptSig": {"hex": "483045022100cd5e521b648505552d0a6d62e9adec57809f6c87f24be9f504fbc1aa95eccef7022015acfd9859b6974df2a53f7ca1e67d62fdce938f7e107b3dc5ee292280a3a676012102035acebd073be6081d8a84c1691c3bfae5070d85c9a8e150c9110caef26f840d", "asm": "3045022100cd5e521b648505552d0a6d62e9adec57809f6c87f24be9f504fbc1aa95eccef7022015acfd9859b6974df2a53f7ca1e67d62fdce938f7e107b3dc5ee292280a3a676[ALL] 02035acebd073be6081d8a84c1691c3bfae5070d85c9a8e150c9110caef26f840d"}, "vout": 11, "txid": "105012ca618ae7a4ceaf0f04881975c5b3733566f6e3cb519c20e4fac858a823"}, {"sequence": 4294967295, "scriptSig": {"hex": "47304402200efa5bc1e74991a4c5a060c0f9964e318315123c3bf7b03ff22933abbd0cb04702200d450bbb4663ef04520fa7be34904e540011a637ce49310f4d3f50236e70923c012102035acebd073be6081d8a84c1691c3bfae5070d85c9a8e150c9110caef26f840d", "asm": "304402200efa5bc1e74991a4c5a060c0f9964e318315123c3bf7b03ff22933abbd0cb04702200d450bbb4663ef04520fa7be34904e540011a637ce49310f4d3f50236e70923c[ALL] 02035acebd073be6081d8a84c1691c3bfae5070d85c9a8e150c9110caef26f840d"}, "vout": 1, "txid": "6ee8745e121b5c2f29ee78a39ed9510e0d077d2da9d3902ce8e3cb88a2419d9c"}, {"sequence": 4294967295, "scriptSig": {"hex": "483045022100bf8c64a0398da05c8f1c968dfc48563c8e419015076fc5979c92d957f76d9a1e0220651e7aff4649ec53105f47b32a51c893d4687082deb05e510d08b25b90670945012102035acebd073be6081d8a84c1691c3bfae5070d85c9a8e150c9110caef26f840d", "asm": "3045022100bf8c64a0398da05c8f1c968dfc48563c8e419015076fc5979c92d957f76d9a1e0220651e7aff4649ec53105f47b32a51c893d4687082deb05e510d08b25b90670945[ALL] 02035acebd073be6081d8a84c1691c3bfae5070d85c9a8e150c9110caef26f840d"}, "vout": 1, "txid": "5b92bcaec29729e8ac9861c3ce70f83c019fd93eccaed0a87b0bb5ccd2aef5b8"}, {"sequence": 4294967295, "scriptSig": {"hex": "483045022100dd579e3bd3c12e8d9d892fb443548367eb19ef49e3fd5775b72095b5de3d877702206292e5ad44f2791b93a970e8f6951f7f3f621001cf5794011e6420bab796a361012102035acebd073be6081d8a84c1691c3bfae5070d85c9a8e150c9110caef26f840d", "asm": "3045022100dd579e3bd3c12e8d9d892fb443548367eb19ef49e3fd5775b72095b5de3d877702206292e5ad44f2791b93a970e8f6951f7f3f621001cf5794011e6420bab796a361[ALL] 02035acebd073be6081d8a84c1691c3bfae5070d85c9a8e150c9110caef26f840d"}, "vout": 0, "txid": "1347b8ce28c993b9d147e8caed858a660993ea74fbdf782e4761e83c900f05b4"}, {"sequence": 4294967295, "scriptSig": {"hex": "47304402202ad10f042f384a15d4f79feb16c5d813884a87daaab830f63ace7fa96d31b71402207017683da0e742f5618e7277e59bd22d28be8916a0230a6618f69b1c2b236c3c012102035acebd073be6081d8a84c1691c3bfae5070d85c9a8e150c9110caef26f840d", "asm": "304402202ad10f042f384a15d4f79feb16c5d813884a87daaab830f63ace7fa96d31b71402207017683da0e742f5618e7277e59bd22d28be8916a0230a6618f69b1c2b236c3c[ALL] 02035acebd073be6081d8a84c1691c3bfae5070d85c9a8e150c9110caef26f840d"}, "vout": 0, "txid": "831ba361851b4a84c17ac94345219093df6f0b02d9373216958224d2612bda9d"}], "txid": "b83fe3617da732c044d3c8b1ad99546b2c201b3235d2e8c075502785456466ae", "blocktime": 1537870928, "version": 1, "confirmations": 11512, "time": 1537870928, "locktime": 0, "vsize": 927, "size": 927}