{"hash": "9231b8f5019ad09814360057ac580b040f85e29d3508f2d3a39ba3bda4e751b8", "blockhash": "00000000000000000004ffacab907a6b429b9a5745fa0b75af4234bf69dd7176", "vout": [{"scriptPubKey": {"reqSigs": 1, "hex": "76a91444c54e13c5174c8f732485a0ba1993b24019d57788ac", "addresses": ["17GdK34FooDJQCzfQ2aNgUd8Q6WiQVXxpH"], "asm": "OP_DUP OP_HASH160 44c54e13c5174c8f732485a0ba1993b24019d577 OP_EQUALVERIFY OP_CHECKSIG", "type": "pubkeyhash"}, "value": 0.07497, "n": 0}], "hex": "02000000000101b0f85381033ab6eb45d4e81c0c669c26c84871cdf3eab8a5e09a670ac24377a300000000171600149630e1678fb81d077cd5fcdcf4b43f2992b27e76ffffffff0128657200000000001976a91444c54e13c5174c8f732485a0ba1993b24019d57788ac02483045022100cdd067702565f07e81cda2d7afa47eb5ee837272930fb633b89a5639620b255f0220305675feac50575d2acd861e1b0e35ee55f15273f627f561470ab596488a3380012103ead5eb8de8e32cabf2f8642fdb2738c8e17196e948d12ffe8e05e37c4c84fc7600000000", "vin": [{"txinwitness": ["3045022100cdd067702565f07e81cda2d7afa47eb5ee837272930fb633b89a5639620b255f0220305675feac50575d2acd861e1b0e35ee55f15273f627f561470ab596488a338001", "03ead5eb8de8e32cabf2f8642fdb2738c8e17196e948d12ffe8e05e37c4c84fc76"], "sequence": 4294967295, "scriptSig": {"hex": "1600149630e1678fb81d077cd5fcdcf4b43f2992b27e76", "asm": "00149630e1678fb81d077cd5fcdcf4b43f2992b27e76"}, "vout": 0, "txid": "a37743c20a679ae0a5b8eaf3cd7148c8269c660c1ce8d445ebb63a038153f8b0"}], "txid": "b842ce28c600eea41b83c73556342bedd511368bef902c7980c03a201c0a66a3", "blocktime": 1537875543, "version": 2, "confirmations": 11464, "time": 1537875543, "locktime": 0, "vsize": 136, "size": 218}