{"hash": "10f28baa665409a9f7c0dc06e0dac219d1374dbd49251603d929c946805da9b8", "blockhash": "0000000000000000001cda96e906b7601b7a6fb1a3b62bca570a9e5d8f4b3de1", "vout": [{"scriptPubKey": {"reqSigs": 1, "hex": "a9148beb207274d7cd70807a035986da3d2398d9676787", "addresses": ["3ESqX6ond1k7JFCTVxMPaAgnMJgmXdxvHq"], "asm": "OP_HASH160 8beb207274d7cd70807a035986da3d2398d96767 OP_EQUAL", "type": "scripthash"}, "value": 0.01110068, "n": 0}, {"scriptPubKey": {"reqSigs": 1, "hex": "76a914cc4032237cb76ecf478a7c0fbf5e1aa1af5064a388ac", "addresses": ["1KcykYJ1AMx73RJrnpPeV4GF1PtYg1TQaG"], "asm": "OP_DUP OP_HASH160 cc4032237cb76ecf478a7c0fbf5e1aa1af5064a3 OP_EQUALVERIFY OP_CHECKSIG", "type": "pubkeyhash"}, "value": 0.01187035, "n": 1}], "hex": "0200000000010216a43ed59164855ac040ca3ff70c064fe8de8bace5362415c6fb635cca7bb79b00000000171600146c010d9b0071370210c27fa8ef6359a4c8c788cbfdffffff86d1de8b8eec6bee8cfd1b30ad275798ad1023556f81cb0e782eb997908edefa0100000017160014273ba8a669e6db52e02dc19ced34d48037cc073ffdffffff0234f010000000000017a9148beb207274d7cd70807a035986da3d2398d9676787db1c1200000000001976a914cc4032237cb76ecf478a7c0fbf5e1aa1af5064a388ac0247304402205e70a69ee00b3566697392af3c98195ed1dcd33ffd8c9d4c348540c30ac8ecbf02204df19a4cdc1aac43fc844e54c73281ba1aaecf0bb6ac9de50d40c86d2ff15a3e0121020bb21f59a2d1662f136e33d2021f5f0e87534dcdaf20a45842163b1a2cefb8ba024730440220493efc0d3e200e6b7dcb4abaa42624357a9c5958a0b472ca1d424e0c7ed6015202206cc244ef10e64373843d841f24c3b529678807bafadaabb8e31812798e0e04320121032d8edce04f01aafdca5bd6dbd21c8a68c854fe5944ecc41c851b2cc5ef2648dc13490800", "vin": [{"txinwitness": ["304402205e70a69ee00b3566697392af3c98195ed1dcd33ffd8c9d4c348540c30ac8ecbf02204df19a4cdc1aac43fc844e54c73281ba1aaecf0bb6ac9de50d40c86d2ff15a3e01", "020bb21f59a2d1662f136e33d2021f5f0e87534dcdaf20a45842163b1a2cefb8ba"], "sequence": 4294967293, "scriptSig": {"hex": "1600146c010d9b0071370210c27fa8ef6359a4c8c788cb", "asm": "00146c010d9b0071370210c27fa8ef6359a4c8c788cb"}, "vout": 0, "txid": "9bb77bca5c63fbc6152436e5ac8bdee84f060cf73fca40c05a856491d53ea416"}, {"txinwitness": ["30440220493efc0d3e200e6b7dcb4abaa42624357a9c5958a0b472ca1d424e0c7ed6015202206cc244ef10e64373843d841f24c3b529678807bafadaabb8e31812798e0e043201", "032d8edce04f01aafdca5bd6dbd21c8a68c854fe5944ecc41c851b2cc5ef2648dc"], "sequence": 4294967293, "scriptSig": {"hex": "160014273ba8a669e6db52e02dc19ced34d48037cc073f", "asm": "0014273ba8a669e6db52e02dc19ced34d48037cc073f"}, "vout": 1, "txid": "fade8e9097b92e780ecb816f552310ad985727ad301bfd8cee6bec8e8bded186"}], "txid": "b848c1ac27d590979c1e00c2501826f07ad10bec78d481ac3df4c905e0b724cd", "blocktime": 1537873282, "version": 2, "confirmations": 11484, "time": 1537873282, "locktime": 542995, "vsize": 258, "size": 420}