{"hash": "b850353398a04bb9ee8545749e02582b26b2b02b128bf9a24fe1f3e0e254b9d7", "blockhash": "00000000000000000017f5eb5941039fbcee6240d03bc1f2f8e35350df66a1d8", "vout": [{"scriptPubKey": {"reqSigs": 1, "hex": "76a9143a9ab5e1e55620bbd297e0b99f23979b61e1cbc288ac", "addresses": ["16LsXbipFAy1bBvM9GGhv1BgeYQR5AP2e4"], "asm": "OP_DUP OP_HASH160 3a9ab5e1e55620bbd297e0b99f23979b61e1cbc2 OP_EQUALVERIFY OP_CHECKSIG", "type": "pubkeyhash"}, "value": 0.00014543, "n": 0}, {"scriptPubKey": {"reqSigs": 1, "hex": "a9140a64748feed65f5f9a4c54f55b2ed411306dcd8287", "addresses": ["32dy2DiosWRiuDZLXYtrC3iTimo1QiaJev"], "asm": "OP_HASH160 0a64748feed65f5f9a4c54f55b2ed411306dcd82 OP_EQUAL", "type": "scripthash"}, "value": 0.0081, "n": 1}], "hex": "0100000003e570dc3d62948c5da8fce312dcf529b314392a3632210bdd5bc7d6e5c19eed42000000006b483045022100d5bbc8670547880dccd51948b312decfebd91d5c9680806dedb53680133d6bc502206b7aa837a54819d57f6630bc3e99d20375fb6504ae9b8a24f9b9e4d712bb50a00121023428bcfc56084fb77fdf29fc8040bf882adb473ca0d752f0328d68565a351eebffffffff7c901b99740256173b31de2c9c90127eb1db61887fb540a05728af399769d24d020000006b483045022100d5c8bc3c21f07b8fcbe4cf8bbc0b60b76d3805efe5933ec92767489838a02ae202203b2e4f11443d5f872014bf9842b0cf2a5a9da3d1347e93a293ec8e2a57f68bd70121027d6c8316bb5bd98e6536f94ca26a5bf0565a05da181fe4352d1c21093bb1cfa3fffffffff4b1ecfd624d582fe62a107f60aa6676fa5cf3927860adadfc7920334f3b7beb020000006a47304402203c99f08ab2908c94c114fa015cee62723fd710d816b50a948fbf1a0a783727190220781d6de3351d97e125eee1335073ace565faa97786685af1691f0e08808586ab0121027d6c8316bb5bd98e6536f94ca26a5bf0565a05da181fe4352d1c21093bb1cfa3ffffffff02cf380000000000001976a9143a9ab5e1e55620bbd297e0b99f23979b61e1cbc288ac105c0c000000000017a9140a64748feed65f5f9a4c54f55b2ed411306dcd828700000000", "vin": [{"sequence": 4294967295, "scriptSig": {"hex": "483045022100d5bbc8670547880dccd51948b312decfebd91d5c9680806dedb53680133d6bc502206b7aa837a54819d57f6630bc3e99d20375fb6504ae9b8a24f9b9e4d712bb50a00121023428bcfc56084fb77fdf29fc8040bf882adb473ca0d752f0328d68565a351eeb", "asm": "3045022100d5bbc8670547880dccd51948b312decfebd91d5c9680806dedb53680133d6bc502206b7aa837a54819d57f6630bc3e99d20375fb6504ae9b8a24f9b9e4d712bb50a0[ALL] 023428bcfc56084fb77fdf29fc8040bf882adb473ca0d752f0328d68565a351eeb"}, "vout": 0, "txid": "42ed9ec1e5d6c75bdd0b2132362a3914b329f5dc12e3fca85d8c94623ddc70e5"}, {"sequence": 4294967295, "scriptSig": {"hex": "483045022100d5c8bc3c21f07b8fcbe4cf8bbc0b60b76d3805efe5933ec92767489838a02ae202203b2e4f11443d5f872014bf9842b0cf2a5a9da3d1347e93a293ec8e2a57f68bd70121027d6c8316bb5bd98e6536f94ca26a5bf0565a05da181fe4352d1c21093bb1cfa3", "asm": "3045022100d5c8bc3c21f07b8fcbe4cf8bbc0b60b76d3805efe5933ec92767489838a02ae202203b2e4f11443d5f872014bf9842b0cf2a5a9da3d1347e93a293ec8e2a57f68bd7[ALL] 027d6c8316bb5bd98e6536f94ca26a5bf0565a05da181fe4352d1c21093bb1cfa3"}, "vout": 2, "txid": "4dd2699739af2857a040b57f8861dbb17e12909c2cde313b17560274991b907c"}, {"sequence": 4294967295, "scriptSig": {"hex": "47304402203c99f08ab2908c94c114fa015cee62723fd710d816b50a948fbf1a0a783727190220781d6de3351d97e125eee1335073ace565faa97786685af1691f0e08808586ab0121027d6c8316bb5bd98e6536f94ca26a5bf0565a05da181fe4352d1c21093bb1cfa3", "asm": "304402203c99f08ab2908c94c114fa015cee62723fd710d816b50a948fbf1a0a783727190220781d6de3351d97e125eee1335073ace565faa97786685af1691f0e08808586ab[ALL] 027d6c8316bb5bd98e6536f94ca26a5bf0565a05da181fe4352d1c21093bb1cfa3"}, "vout": 2, "txid": "eb7b3b4f332079fcadad607892f35cfa7666aa607f102ae62f584d62fdecb1f4"}], "txid": "b850353398a04bb9ee8545749e02582b26b2b02b128bf9a24fe1f3e0e254b9d7", "blocktime": 1537874412, "version": 1, "confirmations": 11468, "time": 1537874412, "locktime": 0, "vsize": 519, "size": 519}