{"hash": "81a37815e55348d1fd7f8be37023a5641256c9ac73a5cee3a6b94c34b13d80ff", "blockhash": "00000000000000000004ffacab907a6b429b9a5745fa0b75af4234bf69dd7176", "vout": [{"scriptPubKey": {"reqSigs": 1, "hex": "76a9145d97d8f2ff9686e26d5fac00b4c50893469a345688ac", "addresses": ["19XskPRQR9MXMAaPvLcfQUYk4aDEHrrq1H"], "asm": "OP_DUP OP_HASH160 5d97d8f2ff9686e26d5fac00b4c50893469a3456 OP_EQUALVERIFY OP_CHECKSIG", "type": "pubkeyhash"}, "value": 0.08527239, "n": 0}, {"scriptPubKey": {"reqSigs": 1, "hex": "a914786c37ba64c97284e2862c0a06c7b33c28ca60f687", "addresses": ["3CfkefF6DVoQfiQZ8WS3Mnz4mHonYnopyc"], "asm": "OP_HASH160 786c37ba64c97284e2862c0a06c7b33c28ca60f6 OP_EQUAL", "type": "scripthash"}, "value": 0.00489171, "n": 1}], "hex": "02000000000103c35001686e23e728c9bde56a08a2497417136a018799e1eee9e82786aa001bae0300000017160014e9dfa1ef517c2ef8d898868e9b7884a50746450fffffffff46351f4e9ee5458884c7a5490bff1f93f50364f213a28ebe58ed9d05faa66d9901000000171600149ed696de7a9fb7be2259ada9583e421f810d7201ffffffffb52421eb63decda940d79beebcd344ee57893c273bf474b25ca1515b90f850910000000017160014d294c700cd61a5a97b758d431c3fe74d1c596271ffffffff02871d8200000000001976a9145d97d8f2ff9686e26d5fac00b4c50893469a345688acd37607000000000017a914786c37ba64c97284e2862c0a06c7b33c28ca60f6870247304402200796b751424ecba71d8707bd691a245c08c4dc584e34a8c01049cb3770bd55dc022027298626ae5ec0acc19ba81e14f90bae5bb8e17895b9cced08423105771b3e1f012103cf6a2e63339a63168c5c25983dfc168c705cfa128dc0b08e8ee30c4cc3f4303202463043021f7160481eb713505daa10039e0ad9cbb9b872bb46d8afc49a2fa53866c3735c0220325f877caff0edab2959a190f9afe74c88be500e4423f4ddd4ab43015073100b012103ebcf72ddec4a6f97333b95ac51c70ac31fb9a2e11d0730f73467736aaeeeed1b02483045022100de92ac53dae0dad77dcf351e10a422f09ddc3fa8fa9a7ce072e1010806f79f7b02200488bc9bdd1f5a0905d9cf285426ea1c28db741dd776216b159fd16130df7a3301210359328fcbdac40e4934ea70d364304f617f4216f12cd70362337725bd599c7f6d00000000", "vin": [{"txinwitness": ["304402200796b751424ecba71d8707bd691a245c08c4dc584e34a8c01049cb3770bd55dc022027298626ae5ec0acc19ba81e14f90bae5bb8e17895b9cced08423105771b3e1f01", "03cf6a2e63339a63168c5c25983dfc168c705cfa128dc0b08e8ee30c4cc3f43032"], "sequence": 4294967295, "scriptSig": {"hex": "160014e9dfa1ef517c2ef8d898868e9b7884a50746450f", "asm": "0014e9dfa1ef517c2ef8d898868e9b7884a50746450f"}, "vout": 3, "txid": "ae1b00aa8627e8e9eee19987016a13177449a2086ae5bdc928e7236e680150c3"}, {"txinwitness": ["3043021f7160481eb713505daa10039e0ad9cbb9b872bb46d8afc49a2fa53866c3735c0220325f877caff0edab2959a190f9afe74c88be500e4423f4ddd4ab43015073100b01", "03ebcf72ddec4a6f97333b95ac51c70ac31fb9a2e11d0730f73467736aaeeeed1b"], "sequence": 4294967295, "scriptSig": {"hex": "1600149ed696de7a9fb7be2259ada9583e421f810d7201", "asm": "00149ed696de7a9fb7be2259ada9583e421f810d7201"}, "vout": 1, "txid": "996da6fa059ded58be8ea213f26403f5931fff0b49a5c7848845e59e4e1f3546"}, {"txinwitness": ["3045022100de92ac53dae0dad77dcf351e10a422f09ddc3fa8fa9a7ce072e1010806f79f7b02200488bc9bdd1f5a0905d9cf285426ea1c28db741dd776216b159fd16130df7a3301", "0359328fcbdac40e4934ea70d364304f617f4216f12cd70362337725bd599c7f6d"], "sequence": 4294967295, "scriptSig": {"hex": "160014d294c700cd61a5a97b758d431c3fe74d1c596271", "asm": "0014d294c700cd61a5a97b758d431c3fe74d1c596271"}, "vout": 0, "txid": "9150f8905b51a15cb274f43b273c8957ee44d3bcee9bd740a9cdde63eb2124b5"}], "txid": "b855448e4e2e2e3db5f003ad46a53ead09dc7789ff464919e39c2b16b97885a6", "blocktime": 1537875543, "version": 2, "confirmations": 11464, "time": 1537875543, "locktime": 0, "vsize": 349, "size": 591}