{"hash": "b380233ff61b28c12de66d549640334310e4c879c053ba45496ee963512823d5", "blockhash": "0000000000000000001cda96e906b7601b7a6fb1a3b62bca570a9e5d8f4b3de1", "vout": [{"scriptPubKey": {"reqSigs": 1, "hex": "0014952ecbe5771cc01fad883c94b9d16e20c87e3d9b", "addresses": ["bc1qj5hvhethrnqpltvg8j2tn5twyry8u0vm0e3uz8"], "asm": "0 952ecbe5771cc01fad883c94b9d16e20c87e3d9b", "type": "witness_v0_keyhash"}, "value": 7.912e-05, "n": 0}, {"scriptPubKey": {"reqSigs": 1, "hex": "a9143e42e62ebe0b3a0bd7d6dcbf3bdb1a1bcb9d3cef87", "addresses": ["37NDxfuvcyuwjZ9J2x9hX1x2GmZRo3UxXz"], "asm": "OP_HASH160 3e42e62ebe0b3a0bd7d6dcbf3bdb1a1bcb9d3cef OP_EQUAL", "type": "scripthash"}, "value": 0.00299507, "n": 1}], "hex": "01000000000101fc5761f7b70978a5802fea3716def963c68450cba01dc9cc81d8a1edf90d0048000000001716001428e137b06443b248a7ee419c4304976d24055b69ffffffff02e81e000000000000160014952ecbe5771cc01fad883c94b9d16e20c87e3d9bf39104000000000017a9143e42e62ebe0b3a0bd7d6dcbf3bdb1a1bcb9d3cef8702483045022100d7c5d359178c6cacde120f3bd061a1a4b56172d8fa2fe93b33606b72913a5cbc0220500e46ad39b41dd7182ec3d2a01acc59c5b3a15276e961470732b079562e9570012103f834fa4c63d894a17c057030345b002a27db4518d2b3bfbdd3ae9aadd480507600000000", "vin": [{"txinwitness": ["3045022100d7c5d359178c6cacde120f3bd061a1a4b56172d8fa2fe93b33606b72913a5cbc0220500e46ad39b41dd7182ec3d2a01acc59c5b3a15276e961470732b079562e957001", "03f834fa4c63d894a17c057030345b002a27db4518d2b3bfbdd3ae9aadd4805076"], "sequence": 4294967295, "scriptSig": {"hex": "16001428e137b06443b248a7ee419c4304976d24055b69", "asm": "001428e137b06443b248a7ee419c4304976d24055b69"}, "vout": 0, "txid": "48000df9eda1d881ccc91da0cb5084c663f9de1637ea2f80a57809b7f76157fc"}], "txid": "b85aa2c617b7728e06205b229b496e7894776749a1e0ad5802dc5a7df23fd85d", "blocktime": 1537873282, "version": 1, "confirmations": 11484, "time": 1537873282, "locktime": 0, "vsize": 165, "size": 247}