{"hash": "b85a213095bfd7e4c3fad4dd4062b9d2180e0de2d018fb2f037750e780ca96b1", "blockhash": "0000000000000000001f0ddff1eddb255c1121bcd4da4f1bc9a0da00cae72433", "vout": [{"scriptPubKey": {"type": "nulldata", "hex": "6a4c50000077a800019ced688062614485db9295a9af6c953dd567cf27e7e3ef3236678a62509742e86036d52a6e8682b50b2283a1b8c35baa0fd8061357a0a40943221d100759d4ba30d2c37bb011d97e02cf", "asm": "OP_RETURN 000077a800019ced688062614485db9295a9af6c953dd567cf27e7e3ef3236678a62509742e86036d52a6e8682b50b2283a1b8c35baa0fd8061357a0a40943221d100759d4ba30d2c37bb011d97e02cf"}, "value": 0.0, "n": 0}, {"scriptPubKey": {"reqSigs": 1, "hex": "76a914ffeb8ccb0eebb37e355028f38158d5ff8e14fe6788ac", "addresses": ["1QLBVDX4DJnU13VQF9dcQPrcA27HegpHRF"], "asm": "OP_DUP OP_HASH160 ffeb8ccb0eebb37e355028f38158d5ff8e14fe67 OP_EQUALVERIFY OP_CHECKSIG", "type": "pubkeyhash"}, "value": 0.00642784, "n": 1}], "hex": "01000000014b87fa2f448ffda33c45a5a0590055f03aecf38c1b7f3600bf9029c2b1931e73010000006a47304402200aaecec6cc86582a11c03f1b1b16a90b3137b5d778592de753c78f5e76e3e4df02204a9872424fbded8578881f6f982eb4b12ce63f53e12123d4b10ea1ab58e4e62701210379d54cc8a2dd22bb6b331b7727f79bba8ef3b1069b49805140a0641fa90aea78ffffffff020000000000000000536a4c50000077a800019ced688062614485db9295a9af6c953dd567cf27e7e3ef3236678a62509742e86036d52a6e8682b50b2283a1b8c35baa0fd8061357a0a40943221d100759d4ba30d2c37bb011d97e02cfe0ce0900000000001976a914ffeb8ccb0eebb37e355028f38158d5ff8e14fe6788ac00000000", "vin": [{"sequence": 4294967295, "scriptSig": {"hex": "47304402200aaecec6cc86582a11c03f1b1b16a90b3137b5d778592de753c78f5e76e3e4df02204a9872424fbded8578881f6f982eb4b12ce63f53e12123d4b10ea1ab58e4e62701210379d54cc8a2dd22bb6b331b7727f79bba8ef3b1069b49805140a0641fa90aea78", "asm": "304402200aaecec6cc86582a11c03f1b1b16a90b3137b5d778592de753c78f5e76e3e4df02204a9872424fbded8578881f6f982eb4b12ce63f53e12123d4b10ea1ab58e4e627[ALL] 0379d54cc8a2dd22bb6b331b7727f79bba8ef3b1069b49805140a0641fa90aea78"}, "vout": 1, "txid": "731e93b1c22990bf00367f1b8cf3ec3af0550059a0a5453ca3fd8f442ffa874b"}], "txid": "b85a213095bfd7e4c3fad4dd4062b9d2180e0de2d018fb2f037750e780ca96b1", "blocktime": 1537872018, "version": 1, "confirmations": 11489, "time": 1537872018, "locktime": 0, "vsize": 283, "size": 283}