{"hash": "1ef2c5e286f22199aabf58951dffd21311d8ec4984571af14d2944459ef884b1", "blockhash": "0000000000000000000e13cef7c366c0283d82e591d1acd082e914b08063cdf1", "vout": [{"scriptPubKey": {"reqSigs": 1, "hex": "76a9146ac1fb0cb32f585f5aa41f469f4e09abe33f6baf88ac", "addresses": ["1AjV1M7ShdGDrNoufeP1w3fuxmcmnvgz4j"], "asm": "OP_DUP OP_HASH160 6ac1fb0cb32f585f5aa41f469f4e09abe33f6baf OP_EQUALVERIFY OP_CHECKSIG", "type": "pubkeyhash"}, "value": 0.07722045, "n": 0}, {"scriptPubKey": {"reqSigs": 1, "hex": "a914e4b607c205b6cbaa1e05c0ef7e863a10ec45a0a187", "addresses": ["3NYL3y7pUE74u9W32UsdfVamU6QGgz2AcF"], "asm": "OP_HASH160 e4b607c205b6cbaa1e05c0ef7e863a10ec45a0a1 OP_EQUAL", "type": "scripthash"}, "value": 0.16658023, "n": 1}], "hex": "020000000001013a1f1960705996f9f246ed6429ee879f5e23c1f091b9d3ca034261673b2407860100000017160014d45f83ac4f24a5991ddc476a26c81c5031a03ba2ffffffff023dd47500000000001976a9146ac1fb0cb32f585f5aa41f469f4e09abe33f6baf88ac672efe000000000017a914e4b607c205b6cbaa1e05c0ef7e863a10ec45a0a18702483045022100b3976647aa5258ae9a1d131f60bf03a2a55991880c0e464727e1b231631b5fed02201f9177f60f639a18a69238865dc2cf32b8507ca541b76011a3046dfcf20cd8d20121027f3474ab16eb5dde2a60c64b309d7d46f4ce04e8f2fabc3892180c2c6b8bf2a500000000", "vin": [{"txinwitness": ["3045022100b3976647aa5258ae9a1d131f60bf03a2a55991880c0e464727e1b231631b5fed02201f9177f60f639a18a69238865dc2cf32b8507ca541b76011a3046dfcf20cd8d201", "027f3474ab16eb5dde2a60c64b309d7d46f4ce04e8f2fabc3892180c2c6b8bf2a5"], "sequence": 4294967295, "scriptSig": {"hex": "160014d45f83ac4f24a5991ddc476a26c81c5031a03ba2", "asm": "0014d45f83ac4f24a5991ddc476a26c81c5031a03ba2"}, "vout": 1, "txid": "8607243b67614203cad3b991f0c1235e9f87ee2964ed46f2f996597060191f3a"}], "txid": "b861be1ed2021335acc9ba1bf8ac4bd2bffe050fbd19529ccaee56102711c988", "blocktime": 1537871767, "version": 2, "confirmations": 11493, "time": 1537871767, "locktime": 0, "vsize": 168, "size": 250}