{"hash": "b86392856d062a56bba4edd06ea64cfd61a394d12725cbf04ec15caf4c4ad672", "blockhash": "0000000000000000000e13cef7c366c0283d82e591d1acd082e914b08063cdf1", "vout": [{"scriptPubKey": {"type": "nulldata", "hex": "6a146f6d6e69000000000000001f00000089c83d9a80", "asm": "OP_RETURN 6f6d6e69000000000000001f00000089c83d9a80"}, "value": 0.0, "n": 0}, {"scriptPubKey": {"reqSigs": 1, "hex": "76a914a25dec4d0011064ef106a983c39c7a540699f22088ac", "addresses": ["1FoWyxwPXuj4C6abqwhjDWdz6D4PZgYRjA"], "asm": "OP_DUP OP_HASH160 a25dec4d0011064ef106a983c39c7a540699f220 OP_EQUALVERIFY OP_CHECKSIG", "type": "pubkeyhash"}, "value": 5.46e-06, "n": 1}, {"scriptPubKey": {"reqSigs": 1, "hex": "76a9148dbc6f4db5955d688cdec784e2bdac54c5dced7888ac", "addresses": ["1DvS1j7bcCF4cVLZwxnK3QbNCBJLXWfzGt"], "asm": "OP_DUP OP_HASH160 8dbc6f4db5955d688cdec784e2bdac54c5dced78 OP_EQUALVERIFY OP_CHECKSIG", "type": "pubkeyhash"}, "value": 0.00440765, "n": 2}], "hex": "010000000112e447bd71c24eaa8864e05b93af92ae65d0511a8eed067c2c3831a01425e3c0010000006a47304402202113d51f7920e7cec667ac47db0ce09ec585b09a824fcb8f409a9091d93049b402207b2e1622a725b966a2a7bcf87ec66f23619622ea3358d5664eb23d454fe24de4012103bbe79a17ecf3735baf3177038c3ee599b7546d6357e1a7865b4c6e0e172195dbfeffffff030000000000000000166a146f6d6e69000000000000001f00000089c83d9a8022020000000000001976a914a25dec4d0011064ef106a983c39c7a540699f22088acbdb90600000000001976a9148dbc6f4db5955d688cdec784e2bdac54c5dced7888acc9480800", "vin": [{"sequence": 4294967294, "scriptSig": {"hex": "47304402202113d51f7920e7cec667ac47db0ce09ec585b09a824fcb8f409a9091d93049b402207b2e1622a725b966a2a7bcf87ec66f23619622ea3358d5664eb23d454fe24de4012103bbe79a17ecf3735baf3177038c3ee599b7546d6357e1a7865b4c6e0e172195db", "asm": "304402202113d51f7920e7cec667ac47db0ce09ec585b09a824fcb8f409a9091d93049b402207b2e1622a725b966a2a7bcf87ec66f23619622ea3358d5664eb23d454fe24de4[ALL] 03bbe79a17ecf3735baf3177038c3ee599b7546d6357e1a7865b4c6e0e172195db"}, "vout": 1, "txid": "c0e32514a031382c7c06ed8e1a51d065ae92af935be06488aa4ec271bd47e412"}], "txid": "b86392856d062a56bba4edd06ea64cfd61a394d12725cbf04ec15caf4c4ad672", "blocktime": 1537871767, "version": 1, "confirmations": 11495, "time": 1537871767, "locktime": 542921, "vsize": 256, "size": 256}