{"hash": "b86bf19379596d687c47085afae3ea49e35bc4a397fb1b0a962f12638cae6614", "blockhash": "0000000000000000001cda96e906b7601b7a6fb1a3b62bca570a9e5d8f4b3de1", "vout": [{"scriptPubKey": {"reqSigs": 1, "hex": "a914d34b226c7bac6c824737524e56cc8994946498fe87", "addresses": ["3LxEWTJaLTvQXAtGu969U5aE7nstx5Uxac"], "asm": "OP_HASH160 d34b226c7bac6c824737524e56cc8994946498fe OP_EQUAL", "type": "scripthash"}, "value": 0.000804, "n": 0}], "hex": "010000000544b9232d3fd4be2c25a3932cb3ea57bd08d4f64337b910f9ea2c9a6e1559c210000000006a47304402202aca3b5bae1251c256d35f8632f0abb2cf036af27d2986a2a6b90b60dd744201022038e028bbb630751e636934e09f29040851f1a60f585b62e1f11dc82c989007d9012103e0069488d24417a1aa642e412d3501b14b0486e77250a2a2f75eb8254468f9d4ffffffffccfe33e505535ae8f0c66483c35523c2b4e84bf738137a0014212d85158865160a0000006a473044022032a6a522bf450b7235958028883905baa3342b52d32c44eb4bc26472f77360bd02202a259cd5b317959cfad836ea08f818009fa99dd3ae44daaa9a17a53cf269ebda0121020bad5b0c49bca65564e9ee7ccab3b1c83a1c67bb22ed0b4a71aa935cab07c473ffffffff40b7053505bea082ca2f749705a6628b09751208c53f5b6086e5a8950fa9291b000000006b483045022100db35c7ec423bb124eebcbbfd16f6d8574ca9b973fd1f020b6aa23b8df1aec5ca02207274d8a12f551a45f348a7cbfff7803ff8c781575a4c1cebfd59523e56f0516c012102f1f73bfd4a88523ae15c885761316e74e6ded92c224826d7f59d9d732c23303effffffff9ecba7205a4bbb6b95d94c598f8db6a398c169f3f350994e9db391893c09061d000000006b483045022100c6116fff3d7fc51d1f77df3fde2ef67372030208f2b7a7894b9d7ccc841744cd022058cd79571a7dc8b4f34bb0e700d1a1509ce00c06a796a9ac0c3ffa58030454ed01210251f55156720dd6d0821c10a4627412c3de3a2a3ed8cd5dd32e2fafa1aa09064dffffffff02e76cedb9ccbb99773a60d8cd6b8a2a8595ec3610f6bfb72227afa41390da86000000006b483045022100f5aff9435f27d7f38cab4b082c044353e5dd64bd36730f370625ed751da81c7e0220754f0633b50718df80ce92e905233edd134f99f8eeaece40e296962fda9d34ce012103399d177501e05921124954a5023fdd7f62b285855b401369fcd5cb73082453cfffffffff01103a01000000000017a914d34b226c7bac6c824737524e56cc8994946498fe8700000000", "vin": [{"sequence": 4294967295, "scriptSig": {"hex": "47304402202aca3b5bae1251c256d35f8632f0abb2cf036af27d2986a2a6b90b60dd744201022038e028bbb630751e636934e09f29040851f1a60f585b62e1f11dc82c989007d9012103e0069488d24417a1aa642e412d3501b14b0486e77250a2a2f75eb8254468f9d4", "asm": "304402202aca3b5bae1251c256d35f8632f0abb2cf036af27d2986a2a6b90b60dd744201022038e028bbb630751e636934e09f29040851f1a60f585b62e1f11dc82c989007d9[ALL] 03e0069488d24417a1aa642e412d3501b14b0486e77250a2a2f75eb8254468f9d4"}, "vout": 0, "txid": "10c259156e9a2ceaf910b93743f6d408bd57eab32c93a3252cbed43f2d23b944"}, {"sequence": 4294967295, "scriptSig": {"hex": "473044022032a6a522bf450b7235958028883905baa3342b52d32c44eb4bc26472f77360bd02202a259cd5b317959cfad836ea08f818009fa99dd3ae44daaa9a17a53cf269ebda0121020bad5b0c49bca65564e9ee7ccab3b1c83a1c67bb22ed0b4a71aa935cab07c473", "asm": "3044022032a6a522bf450b7235958028883905baa3342b52d32c44eb4bc26472f77360bd02202a259cd5b317959cfad836ea08f818009fa99dd3ae44daaa9a17a53cf269ebda[ALL] 020bad5b0c49bca65564e9ee7ccab3b1c83a1c67bb22ed0b4a71aa935cab07c473"}, "vout": 10, "txid": "16658815852d2114007a1338f74be8b4c22355c38364c6f0e85a5305e533fecc"}, {"sequence": 4294967295, "scriptSig": {"hex": "483045022100db35c7ec423bb124eebcbbfd16f6d8574ca9b973fd1f020b6aa23b8df1aec5ca02207274d8a12f551a45f348a7cbfff7803ff8c781575a4c1cebfd59523e56f0516c012102f1f73bfd4a88523ae15c885761316e74e6ded92c224826d7f59d9d732c23303e", "asm": "3045022100db35c7ec423bb124eebcbbfd16f6d8574ca9b973fd1f020b6aa23b8df1aec5ca02207274d8a12f551a45f348a7cbfff7803ff8c781575a4c1cebfd59523e56f0516c[ALL] 02f1f73bfd4a88523ae15c885761316e74e6ded92c224826d7f59d9d732c23303e"}, "vout": 0, "txid": "1b29a90f95a8e586605b3fc5081275098b62a60597742fca82a0be053505b740"}, {"sequence": 4294967295, "scriptSig": {"hex": "483045022100c6116fff3d7fc51d1f77df3fde2ef67372030208f2b7a7894b9d7ccc841744cd022058cd79571a7dc8b4f34bb0e700d1a1509ce00c06a796a9ac0c3ffa58030454ed01210251f55156720dd6d0821c10a4627412c3de3a2a3ed8cd5dd32e2fafa1aa09064d", "asm": "3045022100c6116fff3d7fc51d1f77df3fde2ef67372030208f2b7a7894b9d7ccc841744cd022058cd79571a7dc8b4f34bb0e700d1a1509ce00c06a796a9ac0c3ffa58030454ed[ALL] 0251f55156720dd6d0821c10a4627412c3de3a2a3ed8cd5dd32e2fafa1aa09064d"}, "vout": 0, "txid": "1d06093c8991b39d4e9950f3f369c198a3b68d8f594cd9956bbb4b5a20a7cb9e"}, {"sequence": 4294967295, "scriptSig": {"hex": "483045022100f5aff9435f27d7f38cab4b082c044353e5dd64bd36730f370625ed751da81c7e0220754f0633b50718df80ce92e905233edd134f99f8eeaece40e296962fda9d34ce012103399d177501e05921124954a5023fdd7f62b285855b401369fcd5cb73082453cf", "asm": "3045022100f5aff9435f27d7f38cab4b082c044353e5dd64bd36730f370625ed751da81c7e0220754f0633b50718df80ce92e905233edd134f99f8eeaece40e296962fda9d34ce[ALL] 03399d177501e05921124954a5023fdd7f62b285855b401369fcd5cb73082453cf"}, "vout": 0, "txid": "86da9013a4af2722b7bff61036ec95852a8a6bcdd8603a7799bbccb9ed6ce702"}], "txid": "b86bf19379596d687c47085afae3ea49e35bc4a397fb1b0a962f12638cae6614", "blocktime": 1537873282, "version": 1, "confirmations": 11484, "time": 1537873282, "locktime": 0, "vsize": 780, "size": 780}