{"hash": "b86d360065e2f01eb6c0c8e2c4ed265b6334543334b43125358e872cea8bb1f8", "blockhash": "0000000000000000001f0ddff1eddb255c1121bcd4da4f1bc9a0da00cae72433", "vout": [{"scriptPubKey": {"reqSigs": 1, "hex": "76a914e2233cf06e36cc7a970fcae0f0bcd82852c2a14888ac", "addresses": ["1MchvjgUawH1xLvCbPSu88gQ4biifupuy4"], "asm": "OP_DUP OP_HASH160 e2233cf06e36cc7a970fcae0f0bcd82852c2a148 OP_EQUALVERIFY OP_CHECKSIG", "type": "pubkeyhash"}, "value": 0.00338984, "n": 0}, {"scriptPubKey": {"reqSigs": 1, "hex": "76a914dfde9091ce53c0edf6e3eaf80fc3f20df9b5476d88ac", "addresses": ["1MQiJr6BUE3P4CR5ZHyYQqd77N7YK5h7zj"], "asm": "OP_DUP OP_HASH160 dfde9091ce53c0edf6e3eaf80fc3f20df9b5476d OP_EQUALVERIFY OP_CHECKSIG", "type": "pubkeyhash"}, "value": 0.01649561, "n": 1}], "hex": "0100000002b5caca5e0092939e0690d2702675b06486fae5584e7b4eb4c0cad42c5d57a34c000000006a47304402204ef8bb6d72aeab58cdeec46a48002a2aa3434fa6c9aac409e9466bab669e031c02201dc555218ca4abb35b4930fb7a184db2be3678a2b84a926131ecd75a7ed4e9d70121020cd3aeaea7d9c1c55fd44c2189979e06986a06d31f4b60eaab6e122c8667cc97fdffffff7952850f2e033595c18c4e2da2163424be641fcf5caf2790d6dbfb422710f173000000006b483045022100956209e484cabf70570855a52dcf0b7486051bbb0db0151c0e12e83ddc733a2a02204f465a7b99e9bd2cafb3c2c307d3da11db3727668c87aef63487b2f240298940012103d15002f92b05136fb81671c5b49657d47b0b38e8b29ea47aab3dd57f0b3a6fc7fdffffff02282c0500000000001976a914e2233cf06e36cc7a970fcae0f0bcd82852c2a14888ac992b1900000000001976a914dfde9091ce53c0edf6e3eaf80fc3f20df9b5476d88ac0f490800", "vin": [{"sequence": 4294967293, "scriptSig": {"hex": "47304402204ef8bb6d72aeab58cdeec46a48002a2aa3434fa6c9aac409e9466bab669e031c02201dc555218ca4abb35b4930fb7a184db2be3678a2b84a926131ecd75a7ed4e9d70121020cd3aeaea7d9c1c55fd44c2189979e06986a06d31f4b60eaab6e122c8667cc97", "asm": "304402204ef8bb6d72aeab58cdeec46a48002a2aa3434fa6c9aac409e9466bab669e031c02201dc555218ca4abb35b4930fb7a184db2be3678a2b84a926131ecd75a7ed4e9d7[ALL] 020cd3aeaea7d9c1c55fd44c2189979e06986a06d31f4b60eaab6e122c8667cc97"}, "vout": 0, "txid": "4ca3575d2cd4cac0b44e7b4e58e5fa8664b0752670d290069e9392005ecacab5"}, {"sequence": 4294967293, "scriptSig": {"hex": "483045022100956209e484cabf70570855a52dcf0b7486051bbb0db0151c0e12e83ddc733a2a02204f465a7b99e9bd2cafb3c2c307d3da11db3727668c87aef63487b2f240298940012103d15002f92b05136fb81671c5b49657d47b0b38e8b29ea47aab3dd57f0b3a6fc7", "asm": "3045022100956209e484cabf70570855a52dcf0b7486051bbb0db0151c0e12e83ddc733a2a02204f465a7b99e9bd2cafb3c2c307d3da11db3727668c87aef63487b2f240298940[ALL] 03d15002f92b05136fb81671c5b49657d47b0b38e8b29ea47aab3dd57f0b3a6fc7"}, "vout": 0, "txid": "73f1102742fbdbd69027af5ccf1f64be243416a22d4e8cc19535032e0f855279"}], "txid": "b86d360065e2f01eb6c0c8e2c4ed265b6334543334b43125358e872cea8bb1f8", "blocktime": 1537872018, "version": 1, "confirmations": 11489, "time": 1537872018, "locktime": 542991, "vsize": 373, "size": 373}