{"hash": "b25d6462ba79e55854a685b5e518e195f0df4562dbc82d39162dbf61c008e47b", "blockhash": "00000000000000000017f5eb5941039fbcee6240d03bc1f2f8e35350df66a1d8", "vout": [{"scriptPubKey": {"reqSigs": 1, "hex": "a91470016ed332e965598a7f6d1a5432daf489a70b4e87", "addresses": ["3BuFKb7zfE5qPspCKMna6thyUC7ffyv9ya"], "asm": "OP_HASH160 70016ed332e965598a7f6d1a5432daf489a70b4e OP_EQUAL", "type": "scripthash"}, "value": 14.17424008, "n": 0}, {"scriptPubKey": {"reqSigs": 1, "hex": "a9143fceed5de224488a2109606a6d70ad26e4aa6fb987", "addresses": ["37WQPBd2chUUysHKk4DQ8LYQmVjbiSLSEE"], "asm": "OP_HASH160 3fceed5de224488a2109606a6d70ad26e4aa6fb9 OP_EQUAL", "type": "scripthash"}, "value": 1.34372412, "n": 1}], "hex": "01000000000111bb89c31bb0d53cce8c1bbadd2c91e01a69473243104cf53865a9dda76bfd5dc901000000232200202b5ff9d85699b809d7e8fccc2bb40cd3037b9de17230fcd979795ec59e4a163effffffff51291bf2cfd51676cd96596467b34622785006c21fbb6254e62124ec5e92cbc000000000232200203444230e7d9d157e16997e6a048794162b0030c420e14024a00e0cf06f5f439fffffffffd9569da87a062ce7dc6941e96d59057b48a97fc72e891b3389b3d51a7c86422904000000fdfd000047304402207f782ab4b9afad8b881fd69695c44fad6192b66043d2252f6448d9130dcd415402207dff903bcf629c6386c347ced09a7bf2fa95aef7e6a2755ef3b1aee96d91d3fb01483045022100daaaa0c4b894f10522cdee44f159c013c5fbad622866f52dee7959349b862d7102203125eb3f735ad4ffa00422ebfd5ffba21f1b294729f3fdc72a6656a8fcb08d86014c69522103ec9c3e4eafde023a5cfa3b09281190ee0eac5d667417a56d6e0193573b4ad43021034c3b2215d4d628c8cdb1f943fd5f83c96e62befc694a451dc7f0e0b9fd4f443e210264da5fda0f7149a6e73e0ec8fd8d072b34d95356b84011d170f16df23e7c326453aefffffffffa611ad8272b0f09dfbb4a662dedacbb9ee90271d98d76635336b1ae9627db3e000000002322002031f9a71abc4502f2b4e3788c66c26c4b26cae3437534b21767487711aa524767fffffffffdb0ea655b79b803b66f7b1c810c5dc93b5ae3a97a58b1fb14d088f741ac3e41010000002322002067921fe72d2ec76536f1ae9451984bf1dd15375f550bd07d038b6fe0f97af195ffffffffcf9a5b7017be12c84b1e8ea3896ccd50e38d91a7fd379d0bd049153a8950ea0b00000000fdfd0000483045022100c6f35d8315d95ae74f409c0debfb4e136dd54e92f6062783d57331bf9e0c43d2022032368d99fa120323b97dd0e8054cab26517864d1dfefc74e232b9da75051831801473044022050169ba377651c800abe456d14b3ef99b846e16186185d30e065d70d00f914ee02203e40aae15d4cb24a5b49043a8d7e32ba607d1e0016178cc35bccc36861d61635014c6952210371ea38a7c038f73fa73034c1a557c2988ef5b08e0af827d0c40a22903cebb86c2103a063a4f7472d5be8f0ab993ea4e709dc470f9c902c1802a9989b46911d4b1d6021038437389afd217055b484ed7a0786deb1779ec3faf488eda03d68cb9e83d7a0a553aeffffffff00a1a75642dc3c073821cfac3531d33052737e7b287ec3ae619e080b80c2260e01000000fc0047304402206eba38700cea3abd09a231e71920b7e26ed26baea19031b1d96cd6b3f085ec6502200d7a674cd17b2f67d709d0642d206976db1f1178aed1bc7648ca008e58e22ad40147304402207208c0f94ee888c2330da909ffbba9698f469065f9c2a19f55e712ae704c7ab1022072b30af9d25e8acb6641be08325f55927ad5f47a2e6d495da7e94732a826662c014c695221038d2283bd76071925e3b20f253910132fcf5f149a3ade3bb68876c6a59cd85b4e2103003b4e1a1bffee5653f083c978fb39deab61968e7eb086f3c2798307d0ede866210319095e8a46b0da613eb775565002fad8e41efa5072113b15165380940ed38b7553aeffffffff8cad43f6d6cee5f251afb5141fea5abc80ee732c88853151e46892a74faa37fb26000000fdfd0000483045022100d9e3828c281252271468b5cc24cea18500e9a939e115f2978b287448958d4feb0220400853deb26fce4d98e1d3518bee690f44875e5405790f63aadd5bc0540f0c6501473044022031ba4c4d9205e47ebfde4a34bafcdaa359db1a65951ab7af508e98340d35d6d702205b0d233d7184dfc87c9b63fa253e5941eef7d6a5ab865c8d1c4ea5e017929193014c695221021dca7d214d4453b55bdb1428effb12c211c629ae90f681b2d9ec7582c8bbcfce2103114b9b8085492f2cd39d1a2610d2e25d49bdfe9e6c434f384594e8cd0eb814ae21030d9b8b599ed079e8cd4d4b76c4c0914a4f26188465a9bf94a30583e5237c953653aeffffffffcf9a5b7017be12c84b1e8ea3896ccd50e38d91a7fd379d0bd049153a8950ea0b0100000023220020212358bf030a39975c486cb45fb1fdef132be4e0b432b3eaa58e6a42d0807b4affffffffee2334214da82beeb3082e04ccc3e328ceeec2622aa2759a1c4d7b101722934719000000fdfd000047304402204ceb8497bade1f85b350bb938136c1aabb3234445cbdc3c517e2177d398d055402204e15e20599e464b3f58b21b3843e471793db35db7c931c606025d79562a2952201483045022100ce79d14fc7716ba7332dd58498c869e5a418bea2d65b72f8d0a124eedfb589d702204019fc4dd077951b634ce928d6f7af03c4f74a252ebf5abe454d5195af8e081b014c6952210209fc0fbb92f4607d8748857f9c6364631a15c710e41a74207211391c6ea6821221023026f12f9af91734274ff55cfae9e23bbd9b56afef92bffe78a2feeefe959d17210350bb8699b8a62b2146de452d95bf42075663e368fc6f402d3c32e2651cabe86053aeffffffffee2334214da82beeb3082e04ccc3e328ceeec2622aa2759a1c4d7b10172293471c00000023220020e28260cb7d1fd05a06c37406543ec30e2eb7d27e481b3ca3ba4ed45eb3f7f97dffffffffee2334214da82beeb3082e04ccc3e328ceeec2622aa2759a1c4d7b10172293471f00000023220020e28260cb7d1fd05a06c37406543ec30e2eb7d27e481b3ca3ba4ed45eb3f7f97dffffffffcefc5a1dfaf978a0315f2be39df7a92b4946665fa32e3f3a24476d4427a3d2ad00000000fc00473044022031152cdbcb06bbd223d1c3c0145c6a0a6521538ec2043cc426667c0aa88bc04302204249e7a186d680ebe6c3fc35dda353efea7e2e2ad32f5444b9fc13bef08c0fb10147304402207f9650122a7a89260e003206d52e2777e94c6498d20f83979087df02132c7f8b02205530cf93b14cdea75d29b416aa63852d511368da898a1c9969def847ac17bf37014c695221021f3982a8ae6c8588a6aa520b1e53ab72e37a18a97ab5ed6d628c10f3bc1ac4da2102504f4e54fa14eaa0de01e22aa05d10f21825583e5f851145f5a9d2c9232523a12102811118b3c6bfba956cfcee7e505a5fa688e52fd5d98bbea17dab13e94e62d32d53aefffffffff5ea937bdc7cd47de7986d11847b2c683437f9f8ca4da6511d18a7221cbbe06d3c000000fdfe0000483045022100d3022a5c409668ba1b4746f3c6da20129a5847aa01903dca4bf3885712f2614c022006dca3d6385e19b78ce78ebe991ee0ca6aaef8d38fb2fd1673574a314b3d463e01483045022100980d5dc5a14ae4e24467d95eaac00020c495b6ea7ef5acba653db14d912501b802206ff1154b5403c414bec514fbc2b57d7086143c45793d7dd5d040dd9c94545418014c69522102f256bfd681702259427ac0eaa3755832d0bebde6c472a0a6a9800c5d03a04a3d2103d783163dcbb827e44715336acdb2df7b25414bbe529724862b194136844ad91c21020ac5e2299030c30db43754da55a43810b04679e3af59244f7e78a702e44464bd53aeffffffff018118d922109c4c4de78690fc178af0ef7f5fb40288fab2f5e40894bc051a1c0100000023220020bf20613bffaf556c9ce4425bfb4bb1c14fd6ca4393a66c68ad57df95c3a6ef34ffffffffcf665cd60563eaa4bb5e93e30a3d76331dfe0feaf2b0e0ba7be6e84832e4313106000000fc00473044022000a6e82067ad73d09be66f98a2ed64cabfa4639a3a65db423ad2dfee8a1db5a30220241341edf243ceb4869abac1e0a1db8de43a23c44289f3c3d038fc1af172c9430147304402206a9634abdbcdcbbd86d339c8df8327b80d8c9a37a256dec8a495f294fa1f40020220181608f82238d026d7f70bfe26c7579d1f34111f41e69548cc6f53d1ad9a80dd014c6952210302a2ea06114c894cfec1d64e549ae3adbd0c39dfc318aa6d78bd02d8848cf0c02102ea95b42993e093863a6a954696d33248a762cb48ff54a3bf0cf2d868773420c32103ac386badbaec3394371e0b787d46d24c16ebc196bf6d4a31ee327c9b4c43f6ac53aefffffffff5ea937bdc7cd47de7986d11847b2c683437f9f8ca4da6511d18a7221cbbe06d490000002322002058fbd019b55c37f99c39c2702c56261816ad53fbaae322ee680d3ee478c9ced2ffffffff02882c7c540000000017a91470016ed332e965598a7f6d1a5432daf489a70b4e873c5c02080000000017a9143fceed5de224488a2109606a6d70ad26e4aa6fb9870400473044022000b9d0cf46d5f5085de64d69338972f1315878df58957bef59e0e8501cd9647d0220627741db29263b4f2419d11796c83644f17dfc82c14ba69e367c756b66a62c7c01483045022100dcddfa6ac0b1f7deeb1532bfa0743043fc877e42dddbe9c098b496248a8fb9a102205adfd63f2465586f214504b99a381788ca03825a4ef45d1905fc233187a967c50169522102701109f2ce4eb911758e130b99c6cf0f7329e87b482a8980da33ca07f9f84ca52103bde7cbcfea9122bb1e708ab08417dd0a4444e9e8c6764389d08f469425589ae5210295199499ff12442bc59f12c8d8f77dd38c6c1ecb7ace3275302b5c818afb2ea953ae040047304402202fd254076d0b64ca0047108dc88e3e9d1572d926048b8ad07ab29d7983ec45430220554d88dc469b5028e0ffcd024ab8fed5a219f8f407aac0b76c829a0b3fa6ec45014730440220317a7ba24ff530561797ac56733bcc727b4e0900e537d13bfeb792c9654d846d022079169fec86bd0d6cf39daf56cba2c67656478bd5e61854cbb1d5da68f3787edb0169522103ed99541e3139da7f3b8af1f88441dd3173797cf6d12798cb9895158a9a92176321035aab4f5eca3df4d69c0daf6aa11b24860ab0a5bf6c2e260361f83f24c5bffa9c21022cd742ef79260648c2fd94cf04e3fb2dd1626eb3ca80a4d90cfd82f1a5c4566953ae0004004830450221009900f0670bc76459e1f709e11a6ade955818a25e57d3ad83158866c63b8eadf40220494e30662694c55d4f047a3226da19a96710efa2b95466a57525840b32f8a7490147304402205e4a4b5e8446ff017ed57db7299c37c72ead735aad80c1a52368eb89c97d54bd0220733f1be497030c57ec7f5e21d90c1afd768d2a0c66b5e64637e1a9ad8428e1d60169522103fcc19837ed81725d87b715d26cfa8041ba5cd2f4270c6b85ac6c97d1a80e082d21026a3d55e5352b30152bddeeaf139c58125940cce9890ae6896f88c8a862e93b892103e73aa51a0b12795440031533935748de65d04ba05bed9a85d4b1fc351a8d394c53ae0400483045022100921c932b4f8c32ec79a9106b12a95b0492f26bfff44709088e8e8ffe9889291302205f0e71313a32405c2ae5d77835dc9e761118f93d3508670c0988ba7258eb0c1501483045022100aa8be986ecc677e1c52e643cf0e41f682b032e9911e143f17e77662339a383be02205007c8aed544df7caadece67e8206122d43d71e9935b78ba204319b091cf2a8a016952210375431707f1e8da3a87f1da88c567002770dc066f5f16a81058202aae613f023c210358d3d47a11e4ce2ecca696658bb98596a3a4d89d12136e047c294bac78b5a8f521026756a5453512fdd475a1da3bba2ea0bd1c1c08f7158b23808cf4e0335d195b9a53ae0000000400473044022009a7bf034ac40c492299ae04bad73c4d79d8bed9f95df3305e7e1bf2b2d15684022053eb18c3630f7b016d13d35ae791f057680b487df308ece6a7dc111ab75954af01483045022100e4817a893bbc4292e386b4c66bf3fa3d53b8afceb0ba6fae0ca5c060926b7d2302207ad91c8f7b9e526392976c50edccb2159bfeeb8c93f407e1ffd7f1b294a65e7801695221022dd4c46e7dc0a2da389cbe2d5ce8ca891efcb2d506c41f3af244099de4e664fc21022d4108986083000e76e4076b2857018e06595d4bb136126bc8b7520ed7265d7121037d86d7c5ab13ed0140a66c91edac729e4778b2ccfe1269067baa8e21e3708f2d53ae000400483045022100e6455f2c010b167d9eeaed80027f5aa36619620c8b1c945d6aef59de29e1ab390220351c255b62e5ac839d0dfad53bbf443356bd2a7563ab7a018e9ce379834450ef0147304402201d90e55120c7baff0a2350c4173190ceb9907bf1e5d0e423c7053ef3aad2d63c02203fc19ac0ada13ef916251d2d86b017c2c37291b57caa207c36a06e2c994174a80169522103a57ff8d19038b750373b25e54b4056c8c3f14e6f39a77f1aa5bf19ab9f7dc26c210211c629c09eb8014120e57b6ca62fdcea57d66b6fb10bb0c66cffee89ebdf0db82102701435df43656d98c22ddf6797f43b023411d31d48477c1c97798d7337cdd21a53ae0400483045022100bfd37903f87b3cf6892324d7b6a8d4840c45012c2a77e8e81520e5ef77ad129302202b6f7284b5c75dd16895f0ca599125e2e01e1ad7c72d037f1ea7181ecae113d10147304402205050c41a3ddd0f13d3164a2bbc467227fa8273ebcd2343f63c31a5c8a76b215902200fe15cf9a2e1eea172056467987fc87e779e81e6219cb0ff580d0753a17dc5420169522103a57ff8d19038b750373b25e54b4056c8c3f14e6f39a77f1aa5bf19ab9f7dc26c210211c629c09eb8014120e57b6ca62fdcea57d66b6fb10bb0c66cffee89ebdf0db82102701435df43656d98c22ddf6797f43b023411d31d48477c1c97798d7337cdd21a53ae00000400483045022100b9a20fac9c55d18f6fa8d98b272958949cec71f8d3e888a96040baa3dd44f8af022028dfa49599e7d4866a510f62b018d8bf479dc742732b85bae704684124704bd601483045022100c7131dd346eb2b8912d5b99dea5c915e95df8bfe70d89f123972a059dd66d9990220773212105a90bd3e5e3ada8c6a6abfed52282b87b93243c42f443a3644f413420169522103be070e6d2b5f7756a91c64d87c266527347ee12f8a492ab60132443ad9c7368121037da16016bfdae1c6cfd1f7fb78b34fca3d173f124007d0f4646a3018d29d754c2102a03daf3f221a91df1d62f46a0b99695074901feb4067cb796692d09b76df6f4e53ae00040047304402200af4035fbc15e5012cf3a70211323b34adb70842c1510d13d62e65b4043cf79102200649f7d47b0cf3fc95d35311cf47823b352d65de9ba51127d384fa6269faa8710147304402204761178f02d63e695a65abf18823bdcb1c621955c7e6d3ac18031bfd980ee28d0220641137256caa7c6259f6840263d25e6c6922485eeab8c6d3c63ccf7dabd4241e0169522102933a99f25dd02b20b3a1f425a5ad852513db00c740ae52e03d3d6ecdf684b6c7210270e9b452201739231fbcae8773f6cbc55d788d8e5ccf4f800a0a552408c8ab4921039a33e000022153f57814cff390ad1c64274bb4237d22e71e43dccf6e77c3b0cc53ae00000000", "vin": [{"txinwitness": ["", "3044022000b9d0cf46d5f5085de64d69338972f1315878df58957bef59e0e8501cd9647d0220627741db29263b4f2419d11796c83644f17dfc82c14ba69e367c756b66a62c7c01", "3045022100dcddfa6ac0b1f7deeb1532bfa0743043fc877e42dddbe9c098b496248a8fb9a102205adfd63f2465586f214504b99a381788ca03825a4ef45d1905fc233187a967c501", "522102701109f2ce4eb911758e130b99c6cf0f7329e87b482a8980da33ca07f9f84ca52103bde7cbcfea9122bb1e708ab08417dd0a4444e9e8c6764389d08f469425589ae5210295199499ff12442bc59f12c8d8f77dd38c6c1ecb7ace3275302b5c818afb2ea953ae"], "sequence": 4294967295, "scriptSig": {"hex": "2200202b5ff9d85699b809d7e8fccc2bb40cd3037b9de17230fcd979795ec59e4a163e", "asm": "00202b5ff9d85699b809d7e8fccc2bb40cd3037b9de17230fcd979795ec59e4a163e"}, "vout": 1, "txid": "c95dfd6ba7dda96538f54c10433247691ae0912cddba1b8cce3cd5b01bc389bb"}, {"txinwitness": ["", "304402202fd254076d0b64ca0047108dc88e3e9d1572d926048b8ad07ab29d7983ec45430220554d88dc469b5028e0ffcd024ab8fed5a219f8f407aac0b76c829a0b3fa6ec4501", "30440220317a7ba24ff530561797ac56733bcc727b4e0900e537d13bfeb792c9654d846d022079169fec86bd0d6cf39daf56cba2c67656478bd5e61854cbb1d5da68f3787edb01", "522103ed99541e3139da7f3b8af1f88441dd3173797cf6d12798cb9895158a9a92176321035aab4f5eca3df4d69c0daf6aa11b24860ab0a5bf6c2e260361f83f24c5bffa9c21022cd742ef79260648c2fd94cf04e3fb2dd1626eb3ca80a4d90cfd82f1a5c4566953ae"], "sequence": 4294967295, "scriptSig": {"hex": "2200203444230e7d9d157e16997e6a048794162b0030c420e14024a00e0cf06f5f439f", "asm": "00203444230e7d9d157e16997e6a048794162b0030c420e14024a00e0cf06f5f439f"}, "vout": 0, "txid": "c0cb925eec2421e65462bb1fc20650782246b367645996cd7616d5cff21b2951"}, {"sequence": 4294967295, "scriptSig": {"hex": "0047304402207f782ab4b9afad8b881fd69695c44fad6192b66043d2252f6448d9130dcd415402207dff903bcf629c6386c347ced09a7bf2fa95aef7e6a2755ef3b1aee96d91d3fb01483045022100daaaa0c4b894f10522cdee44f159c013c5fbad622866f52dee7959349b862d7102203125eb3f735ad4ffa00422ebfd5ffba21f1b294729f3fdc72a6656a8fcb08d86014c69522103ec9c3e4eafde023a5cfa3b09281190ee0eac5d667417a56d6e0193573b4ad43021034c3b2215d4d628c8cdb1f943fd5f83c96e62befc694a451dc7f0e0b9fd4f443e210264da5fda0f7149a6e73e0ec8fd8d072b34d95356b84011d170f16df23e7c326453ae", "asm": "0 304402207f782ab4b9afad8b881fd69695c44fad6192b66043d2252f6448d9130dcd415402207dff903bcf629c6386c347ced09a7bf2fa95aef7e6a2755ef3b1aee96d91d3fb[ALL] 3045022100daaaa0c4b894f10522cdee44f159c013c5fbad622866f52dee7959349b862d7102203125eb3f735ad4ffa00422ebfd5ffba21f1b294729f3fdc72a6656a8fcb08d86[ALL] 522103ec9c3e4eafde023a5cfa3b09281190ee0eac5d667417a56d6e0193573b4ad43021034c3b2215d4d628c8cdb1f943fd5f83c96e62befc694a451dc7f0e0b9fd4f443e210264da5fda0f7149a6e73e0ec8fd8d072b34d95356b84011d170f16df23e7c326453ae"}, "vout": 4, "txid": "2942867c1ad5b389331b892ec77fa9487b05596de94169dce72c067aa89d56d9"}, {"txinwitness": ["", "30450221009900f0670bc76459e1f709e11a6ade955818a25e57d3ad83158866c63b8eadf40220494e30662694c55d4f047a3226da19a96710efa2b95466a57525840b32f8a74901", "304402205e4a4b5e8446ff017ed57db7299c37c72ead735aad80c1a52368eb89c97d54bd0220733f1be497030c57ec7f5e21d90c1afd768d2a0c66b5e64637e1a9ad8428e1d601", "522103fcc19837ed81725d87b715d26cfa8041ba5cd2f4270c6b85ac6c97d1a80e082d21026a3d55e5352b30152bddeeaf139c58125940cce9890ae6896f88c8a862e93b892103e73aa51a0b12795440031533935748de65d04ba05bed9a85d4b1fc351a8d394c53ae"], "sequence": 4294967295, "scriptSig": {"hex": "22002031f9a71abc4502f2b4e3788c66c26c4b26cae3437534b21767487711aa524767", "asm": "002031f9a71abc4502f2b4e3788c66c26c4b26cae3437534b21767487711aa524767"}, "vout": 0, "txid": "3edb2796aeb1365363768dd97102e99ebbaced2d664abbdf090f2b27d81a61fa"}, {"txinwitness": ["", "3045022100921c932b4f8c32ec79a9106b12a95b0492f26bfff44709088e8e8ffe9889291302205f0e71313a32405c2ae5d77835dc9e761118f93d3508670c0988ba7258eb0c1501", "3045022100aa8be986ecc677e1c52e643cf0e41f682b032e9911e143f17e77662339a383be02205007c8aed544df7caadece67e8206122d43d71e9935b78ba204319b091cf2a8a01", "52210375431707f1e8da3a87f1da88c567002770dc066f5f16a81058202aae613f023c210358d3d47a11e4ce2ecca696658bb98596a3a4d89d12136e047c294bac78b5a8f521026756a5453512fdd475a1da3bba2ea0bd1c1c08f7158b23808cf4e0335d195b9a53ae"], "sequence": 4294967295, "scriptSig": {"hex": "22002067921fe72d2ec76536f1ae9451984bf1dd15375f550bd07d038b6fe0f97af195", "asm": "002067921fe72d2ec76536f1ae9451984bf1dd15375f550bd07d038b6fe0f97af195"}, "vout": 1, "txid": "413eac41f788d014fbb1587aa9e35a3bc95d0c811c7b6fb603b8795b65eab0fd"}, {"sequence": 4294967295, "scriptSig": {"hex": "00483045022100c6f35d8315d95ae74f409c0debfb4e136dd54e92f6062783d57331bf9e0c43d2022032368d99fa120323b97dd0e8054cab26517864d1dfefc74e232b9da75051831801473044022050169ba377651c800abe456d14b3ef99b846e16186185d30e065d70d00f914ee02203e40aae15d4cb24a5b49043a8d7e32ba607d1e0016178cc35bccc36861d61635014c6952210371ea38a7c038f73fa73034c1a557c2988ef5b08e0af827d0c40a22903cebb86c2103a063a4f7472d5be8f0ab993ea4e709dc470f9c902c1802a9989b46911d4b1d6021038437389afd217055b484ed7a0786deb1779ec3faf488eda03d68cb9e83d7a0a553ae", "asm": "0 3045022100c6f35d8315d95ae74f409c0debfb4e136dd54e92f6062783d57331bf9e0c43d2022032368d99fa120323b97dd0e8054cab26517864d1dfefc74e232b9da750518318[ALL] 3044022050169ba377651c800abe456d14b3ef99b846e16186185d30e065d70d00f914ee02203e40aae15d4cb24a5b49043a8d7e32ba607d1e0016178cc35bccc36861d61635[ALL] 52210371ea38a7c038f73fa73034c1a557c2988ef5b08e0af827d0c40a22903cebb86c2103a063a4f7472d5be8f0ab993ea4e709dc470f9c902c1802a9989b46911d4b1d6021038437389afd217055b484ed7a0786deb1779ec3faf488eda03d68cb9e83d7a0a553ae"}, "vout": 0, "txid": "0bea50893a1549d00b9d37fda7918de350cd6c89a38e1e4bc812be17705b9acf"}, {"sequence": 4294967295, "scriptSig": {"hex": "0047304402206eba38700cea3abd09a231e71920b7e26ed26baea19031b1d96cd6b3f085ec6502200d7a674cd17b2f67d709d0642d206976db1f1178aed1bc7648ca008e58e22ad40147304402207208c0f94ee888c2330da909ffbba9698f469065f9c2a19f55e712ae704c7ab1022072b30af9d25e8acb6641be08325f55927ad5f47a2e6d495da7e94732a826662c014c695221038d2283bd76071925e3b20f253910132fcf5f149a3ade3bb68876c6a59cd85b4e2103003b4e1a1bffee5653f083c978fb39deab61968e7eb086f3c2798307d0ede866210319095e8a46b0da613eb775565002fad8e41efa5072113b15165380940ed38b7553ae", "asm": "0 304402206eba38700cea3abd09a231e71920b7e26ed26baea19031b1d96cd6b3f085ec6502200d7a674cd17b2f67d709d0642d206976db1f1178aed1bc7648ca008e58e22ad4[ALL] 304402207208c0f94ee888c2330da909ffbba9698f469065f9c2a19f55e712ae704c7ab1022072b30af9d25e8acb6641be08325f55927ad5f47a2e6d495da7e94732a826662c[ALL] 5221038d2283bd76071925e3b20f253910132fcf5f149a3ade3bb68876c6a59cd85b4e2103003b4e1a1bffee5653f083c978fb39deab61968e7eb086f3c2798307d0ede866210319095e8a46b0da613eb775565002fad8e41efa5072113b15165380940ed38b7553ae"}, "vout": 1, "txid": "0e26c2800b089e61aec37e287b7e735230d33135accf2138073cdc4256a7a100"}, {"sequence": 4294967295, "scriptSig": {"hex": "00483045022100d9e3828c281252271468b5cc24cea18500e9a939e115f2978b287448958d4feb0220400853deb26fce4d98e1d3518bee690f44875e5405790f63aadd5bc0540f0c6501473044022031ba4c4d9205e47ebfde4a34bafcdaa359db1a65951ab7af508e98340d35d6d702205b0d233d7184dfc87c9b63fa253e5941eef7d6a5ab865c8d1c4ea5e017929193014c695221021dca7d214d4453b55bdb1428effb12c211c629ae90f681b2d9ec7582c8bbcfce2103114b9b8085492f2cd39d1a2610d2e25d49bdfe9e6c434f384594e8cd0eb814ae21030d9b8b599ed079e8cd4d4b76c4c0914a4f26188465a9bf94a30583e5237c953653ae", "asm": "0 3045022100d9e3828c281252271468b5cc24cea18500e9a939e115f2978b287448958d4feb0220400853deb26fce4d98e1d3518bee690f44875e5405790f63aadd5bc0540f0c65[ALL] 3044022031ba4c4d9205e47ebfde4a34bafcdaa359db1a65951ab7af508e98340d35d6d702205b0d233d7184dfc87c9b63fa253e5941eef7d6a5ab865c8d1c4ea5e017929193[ALL] 5221021dca7d214d4453b55bdb1428effb12c211c629ae90f681b2d9ec7582c8bbcfce2103114b9b8085492f2cd39d1a2610d2e25d49bdfe9e6c434f384594e8cd0eb814ae21030d9b8b599ed079e8cd4d4b76c4c0914a4f26188465a9bf94a30583e5237c953653ae"}, "vout": 38, "txid": "fb37aa4fa79268e4513185882c73ee80bc5aea1f14b5af51f2e5ced6f643ad8c"}, {"txinwitness": ["", "3044022009a7bf034ac40c492299ae04bad73c4d79d8bed9f95df3305e7e1bf2b2d15684022053eb18c3630f7b016d13d35ae791f057680b487df308ece6a7dc111ab75954af01", "3045022100e4817a893bbc4292e386b4c66bf3fa3d53b8afceb0ba6fae0ca5c060926b7d2302207ad91c8f7b9e526392976c50edccb2159bfeeb8c93f407e1ffd7f1b294a65e7801", "5221022dd4c46e7dc0a2da389cbe2d5ce8ca891efcb2d506c41f3af244099de4e664fc21022d4108986083000e76e4076b2857018e06595d4bb136126bc8b7520ed7265d7121037d86d7c5ab13ed0140a66c91edac729e4778b2ccfe1269067baa8e21e3708f2d53ae"], "sequence": 4294967295, "scriptSig": {"hex": "220020212358bf030a39975c486cb45fb1fdef132be4e0b432b3eaa58e6a42d0807b4a", "asm": "0020212358bf030a39975c486cb45fb1fdef132be4e0b432b3eaa58e6a42d0807b4a"}, "vout": 1, "txid": "0bea50893a1549d00b9d37fda7918de350cd6c89a38e1e4bc812be17705b9acf"}, {"sequence": 4294967295, "scriptSig": {"hex": "0047304402204ceb8497bade1f85b350bb938136c1aabb3234445cbdc3c517e2177d398d055402204e15e20599e464b3f58b21b3843e471793db35db7c931c606025d79562a2952201483045022100ce79d14fc7716ba7332dd58498c869e5a418bea2d65b72f8d0a124eedfb589d702204019fc4dd077951b634ce928d6f7af03c4f74a252ebf5abe454d5195af8e081b014c6952210209fc0fbb92f4607d8748857f9c6364631a15c710e41a74207211391c6ea6821221023026f12f9af91734274ff55cfae9e23bbd9b56afef92bffe78a2feeefe959d17210350bb8699b8a62b2146de452d95bf42075663e368fc6f402d3c32e2651cabe86053ae", "asm": "0 304402204ceb8497bade1f85b350bb938136c1aabb3234445cbdc3c517e2177d398d055402204e15e20599e464b3f58b21b3843e471793db35db7c931c606025d79562a29522[ALL] 3045022100ce79d14fc7716ba7332dd58498c869e5a418bea2d65b72f8d0a124eedfb589d702204019fc4dd077951b634ce928d6f7af03c4f74a252ebf5abe454d5195af8e081b[ALL] 52210209fc0fbb92f4607d8748857f9c6364631a15c710e41a74207211391c6ea6821221023026f12f9af91734274ff55cfae9e23bbd9b56afef92bffe78a2feeefe959d17210350bb8699b8a62b2146de452d95bf42075663e368fc6f402d3c32e2651cabe86053ae"}, "vout": 25, "txid": "47932217107b4d1c9a75a22a62c2eece28e3c3cc042e08b3ee2ba84d213423ee"}, {"txinwitness": ["", "3045022100e6455f2c010b167d9eeaed80027f5aa36619620c8b1c945d6aef59de29e1ab390220351c255b62e5ac839d0dfad53bbf443356bd2a7563ab7a018e9ce379834450ef01", "304402201d90e55120c7baff0a2350c4173190ceb9907bf1e5d0e423c7053ef3aad2d63c02203fc19ac0ada13ef916251d2d86b017c2c37291b57caa207c36a06e2c994174a801", "522103a57ff8d19038b750373b25e54b4056c8c3f14e6f39a77f1aa5bf19ab9f7dc26c210211c629c09eb8014120e57b6ca62fdcea57d66b6fb10bb0c66cffee89ebdf0db82102701435df43656d98c22ddf6797f43b023411d31d48477c1c97798d7337cdd21a53ae"], "sequence": 4294967295, "scriptSig": {"hex": "220020e28260cb7d1fd05a06c37406543ec30e2eb7d27e481b3ca3ba4ed45eb3f7f97d", "asm": "0020e28260cb7d1fd05a06c37406543ec30e2eb7d27e481b3ca3ba4ed45eb3f7f97d"}, "vout": 28, "txid": "47932217107b4d1c9a75a22a62c2eece28e3c3cc042e08b3ee2ba84d213423ee"}, {"txinwitness": ["", "3045022100bfd37903f87b3cf6892324d7b6a8d4840c45012c2a77e8e81520e5ef77ad129302202b6f7284b5c75dd16895f0ca599125e2e01e1ad7c72d037f1ea7181ecae113d101", "304402205050c41a3ddd0f13d3164a2bbc467227fa8273ebcd2343f63c31a5c8a76b215902200fe15cf9a2e1eea172056467987fc87e779e81e6219cb0ff580d0753a17dc54201", "522103a57ff8d19038b750373b25e54b4056c8c3f14e6f39a77f1aa5bf19ab9f7dc26c210211c629c09eb8014120e57b6ca62fdcea57d66b6fb10bb0c66cffee89ebdf0db82102701435df43656d98c22ddf6797f43b023411d31d48477c1c97798d7337cdd21a53ae"], "sequence": 4294967295, "scriptSig": {"hex": "220020e28260cb7d1fd05a06c37406543ec30e2eb7d27e481b3ca3ba4ed45eb3f7f97d", "asm": "0020e28260cb7d1fd05a06c37406543ec30e2eb7d27e481b3ca3ba4ed45eb3f7f97d"}, "vout": 31, "txid": "47932217107b4d1c9a75a22a62c2eece28e3c3cc042e08b3ee2ba84d213423ee"}, {"sequence": 4294967295, "scriptSig": {"hex": "00473044022031152cdbcb06bbd223d1c3c0145c6a0a6521538ec2043cc426667c0aa88bc04302204249e7a186d680ebe6c3fc35dda353efea7e2e2ad32f5444b9fc13bef08c0fb10147304402207f9650122a7a89260e003206d52e2777e94c6498d20f83979087df02132c7f8b02205530cf93b14cdea75d29b416aa63852d511368da898a1c9969def847ac17bf37014c695221021f3982a8ae6c8588a6aa520b1e53ab72e37a18a97ab5ed6d628c10f3bc1ac4da2102504f4e54fa14eaa0de01e22aa05d10f21825583e5f851145f5a9d2c9232523a12102811118b3c6bfba956cfcee7e505a5fa688e52fd5d98bbea17dab13e94e62d32d53ae", "asm": "0 3044022031152cdbcb06bbd223d1c3c0145c6a0a6521538ec2043cc426667c0aa88bc04302204249e7a186d680ebe6c3fc35dda353efea7e2e2ad32f5444b9fc13bef08c0fb1[ALL] 304402207f9650122a7a89260e003206d52e2777e94c6498d20f83979087df02132c7f8b02205530cf93b14cdea75d29b416aa63852d511368da898a1c9969def847ac17bf37[ALL] 5221021f3982a8ae6c8588a6aa520b1e53ab72e37a18a97ab5ed6d628c10f3bc1ac4da2102504f4e54fa14eaa0de01e22aa05d10f21825583e5f851145f5a9d2c9232523a12102811118b3c6bfba956cfcee7e505a5fa688e52fd5d98bbea17dab13e94e62d32d53ae"}, "vout": 0, "txid": "add2a327446d47243a3f2ea35f6646492ba9f79de32b5f31a078f9fa1d5afcce"}, {"sequence": 4294967295, "scriptSig": {"hex": "00483045022100d3022a5c409668ba1b4746f3c6da20129a5847aa01903dca4bf3885712f2614c022006dca3d6385e19b78ce78ebe991ee0ca6aaef8d38fb2fd1673574a314b3d463e01483045022100980d5dc5a14ae4e24467d95eaac00020c495b6ea7ef5acba653db14d912501b802206ff1154b5403c414bec514fbc2b57d7086143c45793d7dd5d040dd9c94545418014c69522102f256bfd681702259427ac0eaa3755832d0bebde6c472a0a6a9800c5d03a04a3d2103d783163dcbb827e44715336acdb2df7b25414bbe529724862b194136844ad91c21020ac5e2299030c30db43754da55a43810b04679e3af59244f7e78a702e44464bd53ae", "asm": "0 3045022100d3022a5c409668ba1b4746f3c6da20129a5847aa01903dca4bf3885712f2614c022006dca3d6385e19b78ce78ebe991ee0ca6aaef8d38fb2fd1673574a314b3d463e[ALL] 3045022100980d5dc5a14ae4e24467d95eaac00020c495b6ea7ef5acba653db14d912501b802206ff1154b5403c414bec514fbc2b57d7086143c45793d7dd5d040dd9c94545418[ALL] 522102f256bfd681702259427ac0eaa3755832d0bebde6c472a0a6a9800c5d03a04a3d2103d783163dcbb827e44715336acdb2df7b25414bbe529724862b194136844ad91c21020ac5e2299030c30db43754da55a43810b04679e3af59244f7e78a702e44464bd53ae"}, "vout": 60, "txid": "6de0bb1c22a7181d51a64dcaf8f93734682c7b84116d98e77dd47cdc7b93eaf5"}, {"txinwitness": ["", "3045022100b9a20fac9c55d18f6fa8d98b272958949cec71f8d3e888a96040baa3dd44f8af022028dfa49599e7d4866a510f62b018d8bf479dc742732b85bae704684124704bd601", "3045022100c7131dd346eb2b8912d5b99dea5c915e95df8bfe70d89f123972a059dd66d9990220773212105a90bd3e5e3ada8c6a6abfed52282b87b93243c42f443a3644f4134201", "522103be070e6d2b5f7756a91c64d87c266527347ee12f8a492ab60132443ad9c7368121037da16016bfdae1c6cfd1f7fb78b34fca3d173f124007d0f4646a3018d29d754c2102a03daf3f221a91df1d62f46a0b99695074901feb4067cb796692d09b76df6f4e53ae"], "sequence": 4294967295, "scriptSig": {"hex": "220020bf20613bffaf556c9ce4425bfb4bb1c14fd6ca4393a66c68ad57df95c3a6ef34", "asm": "0020bf20613bffaf556c9ce4425bfb4bb1c14fd6ca4393a66c68ad57df95c3a6ef34"}, "vout": 1, "txid": "1c1a05bc9408e4f5b2fa8802b45f7feff08a17fc9086e74d4c9c1022d9188101"}, {"sequence": 4294967295, "scriptSig": {"hex": "00473044022000a6e82067ad73d09be66f98a2ed64cabfa4639a3a65db423ad2dfee8a1db5a30220241341edf243ceb4869abac1e0a1db8de43a23c44289f3c3d038fc1af172c9430147304402206a9634abdbcdcbbd86d339c8df8327b80d8c9a37a256dec8a495f294fa1f40020220181608f82238d026d7f70bfe26c7579d1f34111f41e69548cc6f53d1ad9a80dd014c6952210302a2ea06114c894cfec1d64e549ae3adbd0c39dfc318aa6d78bd02d8848cf0c02102ea95b42993e093863a6a954696d33248a762cb48ff54a3bf0cf2d868773420c32103ac386badbaec3394371e0b787d46d24c16ebc196bf6d4a31ee327c9b4c43f6ac53ae", "asm": "0 3044022000a6e82067ad73d09be66f98a2ed64cabfa4639a3a65db423ad2dfee8a1db5a30220241341edf243ceb4869abac1e0a1db8de43a23c44289f3c3d038fc1af172c943[ALL] 304402206a9634abdbcdcbbd86d339c8df8327b80d8c9a37a256dec8a495f294fa1f40020220181608f82238d026d7f70bfe26c7579d1f34111f41e69548cc6f53d1ad9a80dd[ALL] 52210302a2ea06114c894cfec1d64e549ae3adbd0c39dfc318aa6d78bd02d8848cf0c02102ea95b42993e093863a6a954696d33248a762cb48ff54a3bf0cf2d868773420c32103ac386badbaec3394371e0b787d46d24c16ebc196bf6d4a31ee327c9b4c43f6ac53ae"}, "vout": 6, "txid": "3131e43248e8e67bbae0b0f2ea0ffe1d33763d0ae3935ebba4ea6305d65c66cf"}, {"txinwitness": ["", "304402200af4035fbc15e5012cf3a70211323b34adb70842c1510d13d62e65b4043cf79102200649f7d47b0cf3fc95d35311cf47823b352d65de9ba51127d384fa6269faa87101", "304402204761178f02d63e695a65abf18823bdcb1c621955c7e6d3ac18031bfd980ee28d0220641137256caa7c6259f6840263d25e6c6922485eeab8c6d3c63ccf7dabd4241e01", "522102933a99f25dd02b20b3a1f425a5ad852513db00c740ae52e03d3d6ecdf684b6c7210270e9b452201739231fbcae8773f6cbc55d788d8e5ccf4f800a0a552408c8ab4921039a33e000022153f57814cff390ad1c64274bb4237d22e71e43dccf6e77c3b0cc53ae"], "sequence": 4294967295, "scriptSig": {"hex": "22002058fbd019b55c37f99c39c2702c56261816ad53fbaae322ee680d3ee478c9ced2", "asm": "002058fbd019b55c37f99c39c2702c56261816ad53fbaae322ee680d3ee478c9ced2"}, "vout": 73, "txid": "6de0bb1c22a7181d51a64dcaf8f93734682c7b84116d98e77dd47cdc7b93eaf5"}], "txid": "b86dbf91ed1d8b4a25e7a0a70d001e03114733f09d854ec6e583154933eaa12a", "blocktime": 1537874412, "version": 1, "confirmations": 11467, "time": 1537874412, "locktime": 0, "vsize": 3690, "size": 5405}