{"hash": "b86f3dd1d9748ec9581e86e5390e31713e40845f468c09b3de87116d351f652a", "blockhash": "0000000000000000000baef3f32e3676a92c3b2e5da21b426e4f302fc371ce76", "vout": [{"scriptPubKey": {"reqSigs": 1, "hex": "a9148615420de090f2d28f8f52bd4aa2f00ab6b15fc987", "addresses": ["3DuywHLQrP8eDy7J6ideqrfbU8B97YXE5h"], "asm": "OP_HASH160 8615420de090f2d28f8f52bd4aa2f00ab6b15fc9 OP_EQUAL", "type": "scripthash"}, "value": 0.95118, "n": 0}, {"scriptPubKey": {"reqSigs": 1, "hex": "a91405aec0ca179deccbae537059563d4d5ee9c63ca187", "addresses": ["32D4eZSBD8fd9uGwfFfULP1orZ4LBkBTm9"], "asm": "OP_HASH160 05aec0ca179deccbae537059563d4d5ee9c63ca1 OP_EQUAL", "type": "scripthash"}, "value": 26.81619379, "n": 1}], "hex": "02000000032f30871969690a83c9ef4ff0d6ecc31c4988d04fd15d62d64d87065a0ff5291400000000db00483045022100e3ac0281d662549dcece622de7115adc8685af69630d53a4b62f85d465990c7802207f2c8912652ef2f605803de818feaf6cd8b8d59b61e2d2ad42d79037fb6c35a901483045022100b0bda2b0104c69aae809421a045f8ccb9cccab96aecc653c2763c27307a5725802202c0d2c703bcc9051ca6cef6e551609ad06acb719ebc2bb2c29de7f6a48498eb7014752210232a0ee3e2fcd72fe94842eea7647ea02ce951396cbcba8700b3103c0fbbf6cb8210330c607e31cc1de584210c072253b734c600e6009bc9ad46e375ce4af2b4a3de352aeffffffff1d383dcd11d29ec675539f64decf5d18715e8c687f0997a09ddcaf87f492114d00000000d90047304402205b0e8aaa59195460ff1d7f90233e3233340fa6fc5d6401e66d730bb18f89c121022057cc52dc2f5fda56534f33f259b6cf1258741d7a9fada930db093d6f713531ec01473044022011558bba9c12982ff1e9c7754e5f3f182156b591b85391db5242ec910b2caa4b0220487267fb5985700670a13a1bcd2cb9a121f690c1698c5f8c647353558c47900b014752210232a0ee3e2fcd72fe94842eea7647ea02ce951396cbcba8700b3103c0fbbf6cb8210330c607e31cc1de584210c072253b734c600e6009bc9ad46e375ce4af2b4a3de352aeffffffff38b5d5071b8fc5a24a589de6c8e7cdfb4d624cae81366e454d5b476108162a6600000000da00483045022100b4bae5a403bebb8b1ff3fba09aa9ddfe02491349d31961c92f88f0d96beacf7402204c043df3c5e1e9dc3c9bf2329557a2b7b0ef802f6baf2bdc78422784d1b87bd201473044022049dd66378e7f9955d60d886ec0f80f713f1dbe69cba672186e28c7418844e7e1022024525319310d01ee093d8db258a2f0578940bda71522ec37b764bc408e985c35014752210232a0ee3e2fcd72fe94842eea7647ea02ce951396cbcba8700b3103c0fbbf6cb8210330c607e31cc1de584210c072253b734c600e6009bc9ad46e375ce4af2b4a3de352aeffffffff02b062ab050000000017a9148615420de090f2d28f8f52bd4aa2f00ab6b15fc987b343d69f0000000017a91405aec0ca179deccbae537059563d4d5ee9c63ca18700000000", "vin": [{"sequence": 4294967295, "scriptSig": {"hex": "00483045022100e3ac0281d662549dcece622de7115adc8685af69630d53a4b62f85d465990c7802207f2c8912652ef2f605803de818feaf6cd8b8d59b61e2d2ad42d79037fb6c35a901483045022100b0bda2b0104c69aae809421a045f8ccb9cccab96aecc653c2763c27307a5725802202c0d2c703bcc9051ca6cef6e551609ad06acb719ebc2bb2c29de7f6a48498eb7014752210232a0ee3e2fcd72fe94842eea7647ea02ce951396cbcba8700b3103c0fbbf6cb8210330c607e31cc1de584210c072253b734c600e6009bc9ad46e375ce4af2b4a3de352ae", "asm": "0 3045022100e3ac0281d662549dcece622de7115adc8685af69630d53a4b62f85d465990c7802207f2c8912652ef2f605803de818feaf6cd8b8d59b61e2d2ad42d79037fb6c35a9[ALL] 3045022100b0bda2b0104c69aae809421a045f8ccb9cccab96aecc653c2763c27307a5725802202c0d2c703bcc9051ca6cef6e551609ad06acb719ebc2bb2c29de7f6a48498eb7[ALL] 52210232a0ee3e2fcd72fe94842eea7647ea02ce951396cbcba8700b3103c0fbbf6cb8210330c607e31cc1de584210c072253b734c600e6009bc9ad46e375ce4af2b4a3de352ae"}, "vout": 0, "txid": "1429f50f5a06874dd6625dd14fd088491cc3ecd6f04fefc9830a69691987302f"}, {"sequence": 4294967295, "scriptSig": {"hex": "0047304402205b0e8aaa59195460ff1d7f90233e3233340fa6fc5d6401e66d730bb18f89c121022057cc52dc2f5fda56534f33f259b6cf1258741d7a9fada930db093d6f713531ec01473044022011558bba9c12982ff1e9c7754e5f3f182156b591b85391db5242ec910b2caa4b0220487267fb5985700670a13a1bcd2cb9a121f690c1698c5f8c647353558c47900b014752210232a0ee3e2fcd72fe94842eea7647ea02ce951396cbcba8700b3103c0fbbf6cb8210330c607e31cc1de584210c072253b734c600e6009bc9ad46e375ce4af2b4a3de352ae", "asm": "0 304402205b0e8aaa59195460ff1d7f90233e3233340fa6fc5d6401e66d730bb18f89c121022057cc52dc2f5fda56534f33f259b6cf1258741d7a9fada930db093d6f713531ec[ALL] 3044022011558bba9c12982ff1e9c7754e5f3f182156b591b85391db5242ec910b2caa4b0220487267fb5985700670a13a1bcd2cb9a121f690c1698c5f8c647353558c47900b[ALL] 52210232a0ee3e2fcd72fe94842eea7647ea02ce951396cbcba8700b3103c0fbbf6cb8210330c607e31cc1de584210c072253b734c600e6009bc9ad46e375ce4af2b4a3de352ae"}, "vout": 0, "txid": "4d1192f487afdc9da097097f688c5e71185dcfde649f5375c69ed211cd3d381d"}, {"sequence": 4294967295, "scriptSig": {"hex": "00483045022100b4bae5a403bebb8b1ff3fba09aa9ddfe02491349d31961c92f88f0d96beacf7402204c043df3c5e1e9dc3c9bf2329557a2b7b0ef802f6baf2bdc78422784d1b87bd201473044022049dd66378e7f9955d60d886ec0f80f713f1dbe69cba672186e28c7418844e7e1022024525319310d01ee093d8db258a2f0578940bda71522ec37b764bc408e985c35014752210232a0ee3e2fcd72fe94842eea7647ea02ce951396cbcba8700b3103c0fbbf6cb8210330c607e31cc1de584210c072253b734c600e6009bc9ad46e375ce4af2b4a3de352ae", "asm": "0 3045022100b4bae5a403bebb8b1ff3fba09aa9ddfe02491349d31961c92f88f0d96beacf7402204c043df3c5e1e9dc3c9bf2329557a2b7b0ef802f6baf2bdc78422784d1b87bd2[ALL] 3044022049dd66378e7f9955d60d886ec0f80f713f1dbe69cba672186e28c7418844e7e1022024525319310d01ee093d8db258a2f0578940bda71522ec37b764bc408e985c35[ALL] 52210232a0ee3e2fcd72fe94842eea7647ea02ce951396cbcba8700b3103c0fbbf6cb8210330c607e31cc1de584210c072253b734c600e6009bc9ad46e375ce4af2b4a3de352ae"}, "vout": 0, "txid": "662a160861475b4d456e3681ae4c624dfbcde7c8e69d584aa2c58f1b07d5b538"}], "txid": "b86f3dd1d9748ec9581e86e5390e31713e40845f468c09b3de87116d351f652a", "blocktime": 1537876114, "version": 2, "confirmations": 11460, "time": 1537876114, "locktime": 0, "vsize": 851, "size": 851}