{"hash": "b8774692f5ec357acb92958cdb631eebfc8bfa508dabefaeb0f368271ffa5381", "blockhash": "0000000000000000001cda96e906b7601b7a6fb1a3b62bca570a9e5d8f4b3de1", "vout": [{"scriptPubKey": {"reqSigs": 1, "hex": "76a914075ea6b09e55aee5e704a69b872e5a8159be9e0988ac", "addresses": ["1fy7pVR1gzSXuHsEEJAs8XNMjXHfSUfu7"], "asm": "OP_DUP OP_HASH160 075ea6b09e55aee5e704a69b872e5a8159be9e09 OP_EQUALVERIFY OP_CHECKSIG", "type": "pubkeyhash"}, "value": 0.00024079, "n": 0}, {"scriptPubKey": {"reqSigs": 1, "hex": "76a9144492914940a4528f5594d62615a25a82f3a8fcf288ac", "addresses": ["17FaXjc5z62etQqvvD2uR4qQRuRW2S4NqW"], "asm": "OP_DUP OP_HASH160 4492914940a4528f5594d62615a25a82f3a8fcf2 OP_EQUALVERIFY OP_CHECKSIG", "type": "pubkeyhash"}, "value": 0.09846427, "n": 1}], "hex": "0100000001dafa03e3e5a53e2a5b6ea8cbedc7d203b1257d171b82e19cedc7682b2d067e5b000000006a4730440220754efae48d16a125e952c1198718a81d87c1a7279cf3939564d77a0ece777f2d0220146efd2a7560a2da20a062bb32fa570fb737728646fd694af28fdb9d307adf0a012103be0da1f771547ec61ec2732aa8e1a6fded4482021a3ff203a6d46ae224f7bbe7ffffffff020f5e0000000000001976a914075ea6b09e55aee5e704a69b872e5a8159be9e0988ac9b3e9600000000001976a9144492914940a4528f5594d62615a25a82f3a8fcf288ac00000000", "vin": [{"sequence": 4294967295, "scriptSig": {"hex": "4730440220754efae48d16a125e952c1198718a81d87c1a7279cf3939564d77a0ece777f2d0220146efd2a7560a2da20a062bb32fa570fb737728646fd694af28fdb9d307adf0a012103be0da1f771547ec61ec2732aa8e1a6fded4482021a3ff203a6d46ae224f7bbe7", "asm": "30440220754efae48d16a125e952c1198718a81d87c1a7279cf3939564d77a0ece777f2d0220146efd2a7560a2da20a062bb32fa570fb737728646fd694af28fdb9d307adf0a[ALL] 03be0da1f771547ec61ec2732aa8e1a6fded4482021a3ff203a6d46ae224f7bbe7"}, "vout": 0, "txid": "5b7e062d2b68c7ed9ce1821b177d25b103d2c7edcba86e5b2a3ea5e5e303fada"}], "txid": "b8774692f5ec357acb92958cdb631eebfc8bfa508dabefaeb0f368271ffa5381", "blocktime": 1537873282, "version": 1, "confirmations": 11482, "time": 1537873282, "locktime": 0, "vsize": 225, "size": 225}