{"hash": "b87d955cae977c75e5f5de34881c636f271d6279cda6fe39392d9273e19274a8", "blockhash": "0000000000000000001f76057863aec43deb6fa401d9628bb513d65a8098bfab", "vout": [{"scriptPubKey": {"reqSigs": 1, "hex": "a9146edf105d1aef019653635f375266b6f7a9e100d387", "addresses": ["3BoFUQ3C5U3od2izEVtKv1P9hyDqxGbQ7k"], "asm": "OP_HASH160 6edf105d1aef019653635f375266b6f7a9e100d3 OP_EQUAL", "type": "scripthash"}, "value": 0.01308, "n": 0}, {"scriptPubKey": {"reqSigs": 1, "hex": "a914e370231feecbfc25e2e2423a5a79bf79bfdca59887", "addresses": ["3NRbeX3vD5VaVE4TDU9ivCDsEf7NPPte6J"], "asm": "OP_HASH160 e370231feecbfc25e2e2423a5a79bf79bfdca598 OP_EQUAL", "type": "scripthash"}, "value": 3.08607329, "n": 1}], "hex": "0100000001a9e2c51a93de222e03c0875eacdb84329f2da0d07bea2b8350d56690a659bdb701000000db00483045022100c7f1424090f7ea17c4ae3ffb027405404aeb5b9542b1c4574d7e5acdfe2121d902201b8972a08df65023cddf7c1c44229e8a7dc3772aed6781c94767cd29feec972101483045022100f053b93e91796b3a7a94a8df81d5be520d9a91cd34af1cb69f48e0606c16364b02201e07eac73cdec46101c889135aa0b24ebd1a9c0282f28e0a650b793aa2ba7b2a014752210327881b6abce6535553a3ce21fad12a7d74fd237ce7c4cd270a267162344e3082210256141f8eb687f5a68c5cc65054652dc25116fa285e44d72b44368827ffe77d9a52aeffffffff0260f513000000000017a9146edf105d1aef019653635f375266b6f7a9e100d38761f964120000000017a914e370231feecbfc25e2e2423a5a79bf79bfdca5988700000000", "vin": [{"sequence": 4294967295, "scriptSig": {"hex": "00483045022100c7f1424090f7ea17c4ae3ffb027405404aeb5b9542b1c4574d7e5acdfe2121d902201b8972a08df65023cddf7c1c44229e8a7dc3772aed6781c94767cd29feec972101483045022100f053b93e91796b3a7a94a8df81d5be520d9a91cd34af1cb69f48e0606c16364b02201e07eac73cdec46101c889135aa0b24ebd1a9c0282f28e0a650b793aa2ba7b2a014752210327881b6abce6535553a3ce21fad12a7d74fd237ce7c4cd270a267162344e3082210256141f8eb687f5a68c5cc65054652dc25116fa285e44d72b44368827ffe77d9a52ae", "asm": "0 3045022100c7f1424090f7ea17c4ae3ffb027405404aeb5b9542b1c4574d7e5acdfe2121d902201b8972a08df65023cddf7c1c44229e8a7dc3772aed6781c94767cd29feec9721[ALL] 3045022100f053b93e91796b3a7a94a8df81d5be520d9a91cd34af1cb69f48e0606c16364b02201e07eac73cdec46101c889135aa0b24ebd1a9c0282f28e0a650b793aa2ba7b2a[ALL] 52210327881b6abce6535553a3ce21fad12a7d74fd237ce7c4cd270a267162344e3082210256141f8eb687f5a68c5cc65054652dc25116fa285e44d72b44368827ffe77d9a52ae"}, "vout": 1, "txid": "b7bd59a69066d550832bea7bd0a02d9f3284dbac5e87c0032e22de931ac5e2a9"}], "txid": "b87d955cae977c75e5f5de34881c636f271d6279cda6fe39392d9273e19274a8", "blocktime": 1537873891, "version": 1, "confirmations": 11478, "time": 1537873891, "locktime": 0, "vsize": 334, "size": 334}