{"hash": "b883386604b4d78f52d7a94466e315eef8311f163b160cd684a6e193b789c43b", "blockhash": "00000000000000000017f5eb5941039fbcee6240d03bc1f2f8e35350df66a1d8", "vout": [{"scriptPubKey": {"reqSigs": 1, "hex": "76a914ff187d013374e8a74b01ad01a016bd0dbf79ecc188ac", "addresses": ["1QFpePqCyMddJhvqnXn9e8xbM7mKuGWnom"], "asm": "OP_DUP OP_HASH160 ff187d013374e8a74b01ad01a016bd0dbf79ecc1 OP_EQUALVERIFY OP_CHECKSIG", "type": "pubkeyhash"}, "value": 0.01000066, "n": 0}, {"scriptPubKey": {"reqSigs": 1, "hex": "76a914be1b17dd1ea03c62142a8d2bb92e9f03b713ef7688ac", "addresses": ["1JLBqvDeSFgwvyRmi2eRcd4wFuyBzKHgFJ"], "asm": "OP_DUP OP_HASH160 be1b17dd1ea03c62142a8d2bb92e9f03b713ef76 OP_EQUALVERIFY OP_CHECKSIG", "type": "pubkeyhash"}, "value": 0.01970784, "n": 1}], "hex": "01000000071a5a27cd7d9dadbab624c255c5daa595004be75b811183defdff2cb4abf08d8c1b0000006b4830450221009c9bef81b7ca2a2f7fb393760fe4cae606d1da2afb963e7358a49d26b85f630b022041f69bcf28bd6620379dcb9cb57e5404ce264c298bc9a1b35a4ddb0d5c8200700121031aa603c574b72391497e141b7f6a20ea1ecde0ff887df8783ea5130b5f6f986afeffffffe211af7c4e9c8712417afd159cb318946491d226f3c1ab0bca7a3b6c302e76f8100000006b48304502210083f586dd668a27a9c8d7bc2710c1ef58e72755709808ae813000a030212e536a02206f0bd26005b77ba0a06548268c0334db109c130efb8e256b363ba2f9af3fd5b401210308ef9e124fcb4ad00c322b070cb7137973b3349ca47c89bdfb3e46dbfc7eb31bfeffffffd0cb4d91a06d5bb865ce1417f5c4056b86cd386ebe195d878680515fd444acf3180000006b483045022100b151dedd2e6b55510b75cc77974eedca7713af46d4c4a12be7203497472e3d9002207459f6069d80fb5fb28ccfd4ba2a297e5a45b61422e3a60b41330c2218e1f25901210202de999db5bbd86ffdc74ac24f1a891335e279cc67ba430ef609e106e295550dfeffffff5ca1daab66eda4a26efcaaf1f45712fb8acbe17546afcf28ab9fc6891cb0f1a2000000006a473044022031b69f55a7e856ca90b35dd17dfefebb10e64f58e23ab0515e4a937687e9d8020220052dbc5fa7cbd15cddbc5b602ba3dc2a8e60257a62793ff5bd42ffd04f4f09ae0121033d5bd3134cbef93a4930cd17c22761d9993526a0f0dbde6d206cdc6d0a8ec93dfeffffffe1f00ab1960bedea29cf91f63d9ab387fc371c06c580bea9f60fa9b454640eab000000006a47304402206081928ae0ab2fbc34b0d75987db98b48ed94ac9d6566c2b6cfc5caaae3b7316022040b044939c1dda41fd2827d243353d2584156905a7557dd15ec8a64d90c89db00121020dd31a3b074fcb7f52f3864fed3d61ef44cd34fa77908840d37b65f53712dc17feffffffb94562266dfa535c6082f8dc0bdd4c3593df62b9bc88461fb02293e82cfc280c000000006a47304402205ec8f178b610c160037c4663865238faa70649c711efb832bf5df0ca597dc2d80220075ff92e2a9a3ddb750902f3b5f285a977b11e46b3a66bfe80f5f388f0421afd012102c90a932777628b00f3459e3371bdb59d6172455afb16374812c62844432938e9feffffff7c7539c32c28a3ddfa6423aa75d97bd3dc2fc1e12605534efe6ac85edb9e61ad000000006a47304402207feb1d66e94e93dcabf063b9ce72701dbcbacfbd282f27d1c42df713aff19d3a02204417c4abb1fddf99b6c892894db0175c8cb4f3d10f90b220d9c0b87088b17e5f012103327706f9158ede7eb27d2f55fae378bff8ac749e8ec0904490451d0d6d494956feffffff0282420f00000000001976a914ff187d013374e8a74b01ad01a016bd0dbf79ecc188ac60121e00000000001976a914be1b17dd1ea03c62142a8d2bb92e9f03b713ef7688ac15490800", "vin": [{"sequence": 4294967294, "scriptSig": {"hex": "4830450221009c9bef81b7ca2a2f7fb393760fe4cae606d1da2afb963e7358a49d26b85f630b022041f69bcf28bd6620379dcb9cb57e5404ce264c298bc9a1b35a4ddb0d5c8200700121031aa603c574b72391497e141b7f6a20ea1ecde0ff887df8783ea5130b5f6f986a", "asm": "30450221009c9bef81b7ca2a2f7fb393760fe4cae606d1da2afb963e7358a49d26b85f630b022041f69bcf28bd6620379dcb9cb57e5404ce264c298bc9a1b35a4ddb0d5c820070[ALL] 031aa603c574b72391497e141b7f6a20ea1ecde0ff887df8783ea5130b5f6f986a"}, "vout": 27, "txid": "8c8df0abb42cfffdde8311815be74b0095a5dac555c224b6baad9d7dcd275a1a"}, {"sequence": 4294967294, "scriptSig": {"hex": "48304502210083f586dd668a27a9c8d7bc2710c1ef58e72755709808ae813000a030212e536a02206f0bd26005b77ba0a06548268c0334db109c130efb8e256b363ba2f9af3fd5b401210308ef9e124fcb4ad00c322b070cb7137973b3349ca47c89bdfb3e46dbfc7eb31b", "asm": "304502210083f586dd668a27a9c8d7bc2710c1ef58e72755709808ae813000a030212e536a02206f0bd26005b77ba0a06548268c0334db109c130efb8e256b363ba2f9af3fd5b4[ALL] 0308ef9e124fcb4ad00c322b070cb7137973b3349ca47c89bdfb3e46dbfc7eb31b"}, "vout": 16, "txid": "f8762e306c3b7aca0babc1f326d291649418b39c15fd7a4112879c4e7caf11e2"}, {"sequence": 4294967294, "scriptSig": {"hex": "483045022100b151dedd2e6b55510b75cc77974eedca7713af46d4c4a12be7203497472e3d9002207459f6069d80fb5fb28ccfd4ba2a297e5a45b61422e3a60b41330c2218e1f25901210202de999db5bbd86ffdc74ac24f1a891335e279cc67ba430ef609e106e295550d", "asm": "3045022100b151dedd2e6b55510b75cc77974eedca7713af46d4c4a12be7203497472e3d9002207459f6069d80fb5fb28ccfd4ba2a297e5a45b61422e3a60b41330c2218e1f259[ALL] 0202de999db5bbd86ffdc74ac24f1a891335e279cc67ba430ef609e106e295550d"}, "vout": 24, "txid": "f3ac44d45f518086875d19be6e38cd866b05c4f51714ce65b85b6da0914dcbd0"}, {"sequence": 4294967294, "scriptSig": {"hex": "473044022031b69f55a7e856ca90b35dd17dfefebb10e64f58e23ab0515e4a937687e9d8020220052dbc5fa7cbd15cddbc5b602ba3dc2a8e60257a62793ff5bd42ffd04f4f09ae0121033d5bd3134cbef93a4930cd17c22761d9993526a0f0dbde6d206cdc6d0a8ec93d", "asm": "3044022031b69f55a7e856ca90b35dd17dfefebb10e64f58e23ab0515e4a937687e9d8020220052dbc5fa7cbd15cddbc5b602ba3dc2a8e60257a62793ff5bd42ffd04f4f09ae[ALL] 033d5bd3134cbef93a4930cd17c22761d9993526a0f0dbde6d206cdc6d0a8ec93d"}, "vout": 0, "txid": "a2f1b01c89c69fab28cfaf4675e1cb8afb1257f4f1aafc6ea2a4ed66abdaa15c"}, {"sequence": 4294967294, "scriptSig": {"hex": "47304402206081928ae0ab2fbc34b0d75987db98b48ed94ac9d6566c2b6cfc5caaae3b7316022040b044939c1dda41fd2827d243353d2584156905a7557dd15ec8a64d90c89db00121020dd31a3b074fcb7f52f3864fed3d61ef44cd34fa77908840d37b65f53712dc17", "asm": "304402206081928ae0ab2fbc34b0d75987db98b48ed94ac9d6566c2b6cfc5caaae3b7316022040b044939c1dda41fd2827d243353d2584156905a7557dd15ec8a64d90c89db0[ALL] 020dd31a3b074fcb7f52f3864fed3d61ef44cd34fa77908840d37b65f53712dc17"}, "vout": 0, "txid": "ab0e6454b4a90ff6a9be80c5061c37fc87b39a3df691cf29eaed0b96b10af0e1"}, {"sequence": 4294967294, "scriptSig": {"hex": "47304402205ec8f178b610c160037c4663865238faa70649c711efb832bf5df0ca597dc2d80220075ff92e2a9a3ddb750902f3b5f285a977b11e46b3a66bfe80f5f388f0421afd012102c90a932777628b00f3459e3371bdb59d6172455afb16374812c62844432938e9", "asm": "304402205ec8f178b610c160037c4663865238faa70649c711efb832bf5df0ca597dc2d80220075ff92e2a9a3ddb750902f3b5f285a977b11e46b3a66bfe80f5f388f0421afd[ALL] 02c90a932777628b00f3459e3371bdb59d6172455afb16374812c62844432938e9"}, "vout": 0, "txid": "0c28fc2ce89322b01f4688bcb962df93354cdd0bdcf882605c53fa6d266245b9"}, {"sequence": 4294967294, "scriptSig": {"hex": "47304402207feb1d66e94e93dcabf063b9ce72701dbcbacfbd282f27d1c42df713aff19d3a02204417c4abb1fddf99b6c892894db0175c8cb4f3d10f90b220d9c0b87088b17e5f012103327706f9158ede7eb27d2f55fae378bff8ac749e8ec0904490451d0d6d494956", "asm": "304402207feb1d66e94e93dcabf063b9ce72701dbcbacfbd282f27d1c42df713aff19d3a02204417c4abb1fddf99b6c892894db0175c8cb4f3d10f90b220d9c0b87088b17e5f[ALL] 03327706f9158ede7eb27d2f55fae378bff8ac749e8ec0904490451d0d6d494956"}, "vout": 0, "txid": "ad619edb5ec86afe4e530526e1c12fdcd37bd975aa2364fadda3282cc339757c"}], "txid": "b883386604b4d78f52d7a94466e315eef8311f163b160cd684a6e193b789c43b", "blocktime": 1537874412, "version": 1, "confirmations": 11466, "time": 1537874412, "locktime": 542997, "vsize": 1110, "size": 1110}