{"hash": "b8853785a4787000fe72aef8de5e31f9327900e625512b7616122ba7b9a7d5e5", "blockhash": "0000000000000000001cda96e906b7601b7a6fb1a3b62bca570a9e5d8f4b3de1", "vout": [{"scriptPubKey": {"reqSigs": 1, "hex": "76a91479315b4a66c63f22329844bafb5782dea3bd394b88ac", "addresses": ["1C3otZyGFvD4CVU5E7ytadPkDYSnEdEb7C"], "asm": "OP_DUP OP_HASH160 79315b4a66c63f22329844bafb5782dea3bd394b OP_EQUALVERIFY OP_CHECKSIG", "type": "pubkeyhash"}, "value": 0.00153168, "n": 0}, {"scriptPubKey": {"reqSigs": 1, "hex": "76a9146438611929060118ea682dd0559e0e906367360688ac", "addresses": ["1A8v7V7rpN5KFF94X2nFWBPBsecbUBbYpa"], "asm": "OP_DUP OP_HASH160 6438611929060118ea682dd0559e0e9063673606 OP_EQUALVERIFY OP_CHECKSIG", "type": "pubkeyhash"}, "value": 1.42052467, "n": 1}], "hex": "0100000001ee14dc2667a4c1fcfbeed6f29fd36d625e11edaba30cfb0c97a146750c957156010000006a47304402203bb5cbea26c0b08ba1ed3f09fa006e795aea325e7e6269ae654fd79fe22a8a9602207a9857358e99923c401457a8a1d78593cb58ab4fe975384da91130a97437af4c0121024610d836d662dded124c10c466f9be04c3ec0d4aeae25513d2fd1a49dac2196affffffff0250560200000000001976a91479315b4a66c63f22329844bafb5782dea3bd394b88ac738c7708000000001976a9146438611929060118ea682dd0559e0e906367360688ac00000000", "vin": [{"sequence": 4294967295, "scriptSig": {"hex": "47304402203bb5cbea26c0b08ba1ed3f09fa006e795aea325e7e6269ae654fd79fe22a8a9602207a9857358e99923c401457a8a1d78593cb58ab4fe975384da91130a97437af4c0121024610d836d662dded124c10c466f9be04c3ec0d4aeae25513d2fd1a49dac2196a", "asm": "304402203bb5cbea26c0b08ba1ed3f09fa006e795aea325e7e6269ae654fd79fe22a8a9602207a9857358e99923c401457a8a1d78593cb58ab4fe975384da91130a97437af4c[ALL] 024610d836d662dded124c10c466f9be04c3ec0d4aeae25513d2fd1a49dac2196a"}, "vout": 1, "txid": "5671950c7546a1970cfb0ca3abed115e626dd39ff2d6eefbfcc1a46726dc14ee"}], "txid": "b8853785a4787000fe72aef8de5e31f9327900e625512b7616122ba7b9a7d5e5", "blocktime": 1537873282, "version": 1, "confirmations": 11484, "time": 1537873282, "locktime": 0, "vsize": 225, "size": 225}