{"hash": "b88ae78da041b58abf79721dcd35838eedbbfd85604a54254694cbab76374219", "blockhash": "000000000000000000022b45ed06c6f4ccd3cf7fb5ba4856ebd2e58215665228", "vout": [{"scriptPubKey": {"reqSigs": 1, "hex": "76a914cf34c006d572aebad5987c1e4412b83945dfe12688ac", "addresses": ["1Ktc4rKjVg7pbUTcjnUw267PwJVFg5FtFn"], "asm": "OP_DUP OP_HASH160 cf34c006d572aebad5987c1e4412b83945dfe126 OP_EQUALVERIFY OP_CHECKSIG", "type": "pubkeyhash"}, "value": 0.00292191, "n": 0}, {"scriptPubKey": {"reqSigs": 1, "hex": "a914d3f222ab0b0308d061e4d76f543e304a1c56814d87", "addresses": ["3M1gZtEF49nT7ebyk6ULmXQxJPjYHiR9qv"], "asm": "OP_HASH160 d3f222ab0b0308d061e4d76f543e304a1c56814d OP_EQUAL", "type": "scripthash"}, "value": 0.00751, "n": 1}], "hex": "01000000031d553f180d2f8b5f7698753db504bdb08f3806731cede86716500f02a4f10f4d060000006b483045022100df880a92169717af0b6e0b217fb9a7d9ce65fed09ca6aeaf5e809f6023835e1302200eb385875827a3cbdb41bd07a1748a35444866f4d131420e4578dc5edcbbf32e0121036f3d7a0ce7e08407a1bd886692e8d5cc84e0aa62a8ca3a429a44856ed13716efffffffffebfb52ba052f71a886486839dad8afe057004aa989f8d16a70ecc4dd115734cc040000006a47304402202867580cc5a3a1d77a2fe23897a54a88ee3b9326351d0f4a6857626b8a8982eb0220742146cb274954bde0bd2a816e079ba058b8079d2ab0637e9cf3bb5ad52322200121036f3d7a0ce7e08407a1bd886692e8d5cc84e0aa62a8ca3a429a44856ed13716efffffffff8946eba9a097e9fd1afb5f2456e62303a4e09735988198c9e70bef03494246e30c0000006a473044022015767bf71f8646b2e8077ef3769c36f30315d010643bb14c636c112f799845dd0220553cdfec23849448f66ade5a1736e688dc0df5d3060277fa540a2db3dd0ece3101210240ffc34fd9cfb9fef54c32c0844810262be807aa0a75bf13f24cc60e9f68d7faffffffff025f750400000000001976a914cf34c006d572aebad5987c1e4412b83945dfe12688ac98750b000000000017a914d3f222ab0b0308d061e4d76f543e304a1c56814d8700000000", "vin": [{"sequence": 4294967295, "scriptSig": {"hex": "483045022100df880a92169717af0b6e0b217fb9a7d9ce65fed09ca6aeaf5e809f6023835e1302200eb385875827a3cbdb41bd07a1748a35444866f4d131420e4578dc5edcbbf32e0121036f3d7a0ce7e08407a1bd886692e8d5cc84e0aa62a8ca3a429a44856ed13716ef", "asm": "3045022100df880a92169717af0b6e0b217fb9a7d9ce65fed09ca6aeaf5e809f6023835e1302200eb385875827a3cbdb41bd07a1748a35444866f4d131420e4578dc5edcbbf32e[ALL] 036f3d7a0ce7e08407a1bd886692e8d5cc84e0aa62a8ca3a429a44856ed13716ef"}, "vout": 6, "txid": "4d0ff1a4020f501667e8ed1c7306388fb0bd04b53d7598765f8b2f0d183f551d"}, {"sequence": 4294967295, "scriptSig": {"hex": "47304402202867580cc5a3a1d77a2fe23897a54a88ee3b9326351d0f4a6857626b8a8982eb0220742146cb274954bde0bd2a816e079ba058b8079d2ab0637e9cf3bb5ad52322200121036f3d7a0ce7e08407a1bd886692e8d5cc84e0aa62a8ca3a429a44856ed13716ef", "asm": "304402202867580cc5a3a1d77a2fe23897a54a88ee3b9326351d0f4a6857626b8a8982eb0220742146cb274954bde0bd2a816e079ba058b8079d2ab0637e9cf3bb5ad5232220[ALL] 036f3d7a0ce7e08407a1bd886692e8d5cc84e0aa62a8ca3a429a44856ed13716ef"}, "vout": 4, "txid": "cc345711ddc4ec706ad1f889a94a0057e0afd8da39684886a8712f05ba52fbeb"}, {"sequence": 4294967295, "scriptSig": {"hex": "473044022015767bf71f8646b2e8077ef3769c36f30315d010643bb14c636c112f799845dd0220553cdfec23849448f66ade5a1736e688dc0df5d3060277fa540a2db3dd0ece3101210240ffc34fd9cfb9fef54c32c0844810262be807aa0a75bf13f24cc60e9f68d7fa", "asm": "3044022015767bf71f8646b2e8077ef3769c36f30315d010643bb14c636c112f799845dd0220553cdfec23849448f66ade5a1736e688dc0df5d3060277fa540a2db3dd0ece31[ALL] 0240ffc34fd9cfb9fef54c32c0844810262be807aa0a75bf13f24cc60e9f68d7fa"}, "vout": 12, "txid": "e346424903ef0be7c99881983597e0a40323e656245ffb1afde997a0a9eb4689"}], "txid": "b88ae78da041b58abf79721dcd35838eedbbfd85604a54254694cbab76374219", "blocktime": 1537869901, "version": 1, "confirmations": 11522, "time": 1537869901, "locktime": 0, "vsize": 518, "size": 518}