{"hash": "5e0a02da21ad7b6af8e76f1f588661c787acab0127973a996d457ed56944f826", "blockhash": "00000000000000000024a2167bbff67b0be802c0b01cdd79e6331c2be6459f87", "vout": [{"scriptPubKey": {"reqSigs": 1, "hex": "76a914658bc2e4001cfacc64a3e041943e921b3086737588ac", "addresses": ["1AFvgAG4FN8fhtp3ZtSF8hsmKvPTDiB4RV"], "asm": "OP_DUP OP_HASH160 658bc2e4001cfacc64a3e041943e921b30867375 OP_EQUALVERIFY OP_CHECKSIG", "type": "pubkeyhash"}, "value": 3.411e-05, "n": 0}, {"scriptPubKey": {"reqSigs": 1, "hex": "a9145fd6ccf3fa4f5e40b590aac3f24664f0653a71dc87", "addresses": ["3ARmSNhAYCtKywjSMAxYdagMtKiGcdVuY2"], "asm": "OP_HASH160 5fd6ccf3fa4f5e40b590aac3f24664f0653a71dc OP_EQUAL", "type": "scripthash"}, "value": 0.00972445, "n": 1}], "hex": "01000000000101fff40013db3c05032a5c7c8a54b28295f9f6f73ab1ac02ad679f87ecd50a767501000000232200206594052309991fbaf27880f6c24f3eaa8cdd7edacf1bc50579894b9e3fe7faccffffffff02530d0000000000001976a914658bc2e4001cfacc64a3e041943e921b3086737588ac9dd60e000000000017a9145fd6ccf3fa4f5e40b590aac3f24664f0653a71dc8704004730440220589b6ffc34603f6414343b994c9aa83d8ff8c348b76375a808e7b83cfa45934102200d4077a2a66f64cbd047e2ccb17f534d6918fcaa738879dd3d870ade1bf3c0f5014730440220595a55a33f07a87526659e599947099ae1763317fb9f9ecffd7ab17ccc951fc70220419d42b8b266c7caf6e7320405267e88605eb9e89dbb8da74b2d159ad211e21f0147522102762a59cc11c9e209028b4fdb72709e323a3db710158b03d150a252f3d53009582103148c80a5bdfddb05ff5bcffc397c8ca748d8b435ec6a175bc9d7bfc7fc6f853752ae00000000", "vin": [{"txinwitness": ["", "30440220589b6ffc34603f6414343b994c9aa83d8ff8c348b76375a808e7b83cfa45934102200d4077a2a66f64cbd047e2ccb17f534d6918fcaa738879dd3d870ade1bf3c0f501", "30440220595a55a33f07a87526659e599947099ae1763317fb9f9ecffd7ab17ccc951fc70220419d42b8b266c7caf6e7320405267e88605eb9e89dbb8da74b2d159ad211e21f01", "522102762a59cc11c9e209028b4fdb72709e323a3db710158b03d150a252f3d53009582103148c80a5bdfddb05ff5bcffc397c8ca748d8b435ec6a175bc9d7bfc7fc6f853752ae"], "sequence": 4294967295, "scriptSig": {"hex": "2200206594052309991fbaf27880f6c24f3eaa8cdd7edacf1bc50579894b9e3fe7facc", "asm": "00206594052309991fbaf27880f6c24f3eaa8cdd7edacf1bc50579894b9e3fe7facc"}, "vout": 1, "txid": "75760ad5ec879f67ad02acb13af7f6f99582b2548a7c5c2a03053cdb1300f4ff"}], "txid": "b88d861d3f13496cdd1a52730e9415d967fb96268db029f288b76f337ab1c8ec", "blocktime": 1537870564, "version": 1, "confirmations": 11515, "time": 1537870564, "locktime": 0, "vsize": 207, "size": 372}