{"hash": "b24644fcb03be2a2dafa2aa7d5951ae00e5611468bf03f64e2452c2ac52aa9b7", "blockhash": "0000000000000000000baef3f32e3676a92c3b2e5da21b426e4f302fc371ce76", "vout": [{"scriptPubKey": {"reqSigs": 1, "hex": "a91409f4af8b65aa375907a8e7eff81419f001e183d087", "addresses": ["32bf8LDdJRGFuen16hRNrhcmr2KWDxeQte"], "asm": "OP_HASH160 09f4af8b65aa375907a8e7eff81419f001e183d0 OP_EQUAL", "type": "scripthash"}, "value": 0.27187457, "n": 0}, {"scriptPubKey": {"reqSigs": 1, "hex": "a914a37b3a25566c3030e9768318f18c11a4e52caf8e87", "addresses": ["3GbRgnPUjkcm9zuwTQThApo3er9mzGkJqL"], "asm": "OP_HASH160 a37b3a25566c3030e9768318f18c11a4e52caf8e OP_EQUAL", "type": "scripthash"}, "value": 7.29e-06, "n": 1}], "hex": "020000000001082402bd0fdd7c777cc78bc3c07ab5bea7ba00547ab80ec19ac17416feb80cd11e00000000171600142627dc1f788a2f6347aebd121679a5cf1487bb51feffffff3cb958cbc580d286144f2eb6a3c072e76d6523eebd4aa65bd6ff0bf1a41391712b000000171600147d9fbe3cca9d9bc58c808af82ebeaf8e2af8976cfeffffff850b729a901b6cecb74e9c941c180199d23f9b67619c24d4609c8aec74cc8219130000001716001470e0642c27186298fcc4b31567d9e8098291e32efeffffffa1f7a832233bcdf183d27c22a57f2dc6fdf7b7fabd6a3e029c11398c64dc04530100000017160014ef82418e9294b9bf86e13334de21719d8832d6fbfeffffffb5714c555ee58b5d353d2513d663c89d0725c8bd464eacf6531781d9a194fd630100000017160014b4553f6cec702455abf17aa01ea4d8009b7700a1feffffffd3dae88eaafab7ba83ab3de15322154dc5d8037828c796773730c7401d86d9fd0200000017160014e0688012ea6e1e7a0af28b75860451b02285b80bfeffffffe87b2c7a51bcc93c94d2cf8e32f28d0c3d7dd05475ebf3436d34e9f583634ba51b000000171600141c7bc6945d990f04f36dbfbccea4b7ec116bc3b9fefffffffad2d852fcac1f60043c8ac6775efb132cf97017c8307bd91c87df9e1e3274bc0200000017160014b3c63423412721adfbe808a6296717bc1e2c3537feffffff0201d99e010000000017a91409f4af8b65aa375907a8e7eff81419f001e183d087d90200000000000017a914a37b3a25566c3030e9768318f18c11a4e52caf8e8702483045022100ba8d4e2177ab02816897b1ecd581669dee4c915f351657983fda1332e0e998f102200fda8bf0bf0f42eebb8a0bef9f9fa130e07af19133c10584963bddd296d1aa1e01210278c65068354ef355cc267878de02c72d6c48c3a28a6064680862b33391c565ec02483045022100a2aa8e4c31535557628bec8be321e07b75d4fa4e5c767f918071ae5672a1757902201ab3df8f1744909c6dc1b0e71b80fc2a7bc54b529beed9dbbeac7baef606e5610121032446aba3e20d4b37f9042256d8cff11aa83f9e3eef8d13e527883d4096794b750247304402201b4e65c46c2ec4e4b90e66d3d19f6959b51590f88b54a829cca99529f9784a0302202131554558731f98d0250349e0649c4b92ae6e737a6cb2cdfad97f36336b4322012102756d2e74cef5fd1774b7697177461753c67dc43fa93849997f971e8a81ff6c7c0247304402203d52b2a1a7aa75e648ecc549c2ecf1a2d5907bec8ae4038a9ea4e73bc07843ed02204aae039a3c84b11065eea962ef36df21c4570c8c90863c3db844b57a6c3b7931012102aaffd47e500de31737467eead65a89ec1a48396b247b7bbdea531a68eee7a86602483045022100c2b6fa0e30692687a74453ba657cb12e338ad530fc99ac6e2dee47caab342dff02207172fe5e4782f3219c3d3453a775c1691f5442ed5c19562ee4f0d8e03743ed1f012103e1df0d05291e3f8e9b19e9397f84f36cb207d777fbc2ee8cb89eb9487847141602483045022100e938391636bd2bf3634172cc15e58cc390316a006eec954f1e8d6bb8b3f685b402200371b6f7df2f0f6b62312f5e00fb936e7ed74592d2904378097ea9619fa3b9580121039fff3a43c451bf2072a2d0514e857cc9fd1f08660f3c5d276b1e6600d53e2be30247304402202c059a7bd1dfb2a2581f6901d304f142102c684a16418224bb4cfaa0121fb66802202c16a98d1c1c0add5e2346d41d4d4126756d75b22988a8078a408f0a30a91e94012102d712c63eeca459176249e50769109c05d95e444041186796a0bb2e320fc5bf4a024830450221009e31c053b27a9dc26bc855b49e1bc8969dc9539caf3bb84545cac3dc7a59f3a4022025c05c51fb512235fcd97d15fee7080f7f75fa94cf2b72e92e06eca46f103cc901210326e3bf15316f5be0978d9756ea4fce824154e504ad9e180c680db379d2768c2bf1480800", "vin": [{"txinwitness": ["3045022100ba8d4e2177ab02816897b1ecd581669dee4c915f351657983fda1332e0e998f102200fda8bf0bf0f42eebb8a0bef9f9fa130e07af19133c10584963bddd296d1aa1e01", "0278c65068354ef355cc267878de02c72d6c48c3a28a6064680862b33391c565ec"], "sequence": 4294967294, "scriptSig": {"hex": "1600142627dc1f788a2f6347aebd121679a5cf1487bb51", "asm": "00142627dc1f788a2f6347aebd121679a5cf1487bb51"}, "vout": 0, "txid": "1ed10cb8fe1674c19ac10eb87a5400baa7beb57ac0c38bc77c777cdd0fbd0224"}, {"txinwitness": ["3045022100a2aa8e4c31535557628bec8be321e07b75d4fa4e5c767f918071ae5672a1757902201ab3df8f1744909c6dc1b0e71b80fc2a7bc54b529beed9dbbeac7baef606e56101", "032446aba3e20d4b37f9042256d8cff11aa83f9e3eef8d13e527883d4096794b75"], "sequence": 4294967294, "scriptSig": {"hex": "1600147d9fbe3cca9d9bc58c808af82ebeaf8e2af8976c", "asm": "00147d9fbe3cca9d9bc58c808af82ebeaf8e2af8976c"}, "vout": 43, "txid": "719113a4f10bffd65ba64abdee23656de772c0a3b62e4f1486d280c5cb58b93c"}, {"txinwitness": ["304402201b4e65c46c2ec4e4b90e66d3d19f6959b51590f88b54a829cca99529f9784a0302202131554558731f98d0250349e0649c4b92ae6e737a6cb2cdfad97f36336b432201", "02756d2e74cef5fd1774b7697177461753c67dc43fa93849997f971e8a81ff6c7c"], "sequence": 4294967294, "scriptSig": {"hex": "16001470e0642c27186298fcc4b31567d9e8098291e32e", "asm": "001470e0642c27186298fcc4b31567d9e8098291e32e"}, "vout": 19, "txid": "1982cc74ec8a9c60d4249c61679b3fd29901181c949c4eb7ec6c1b909a720b85"}, {"txinwitness": ["304402203d52b2a1a7aa75e648ecc549c2ecf1a2d5907bec8ae4038a9ea4e73bc07843ed02204aae039a3c84b11065eea962ef36df21c4570c8c90863c3db844b57a6c3b793101", "02aaffd47e500de31737467eead65a89ec1a48396b247b7bbdea531a68eee7a866"], "sequence": 4294967294, "scriptSig": {"hex": "160014ef82418e9294b9bf86e13334de21719d8832d6fb", "asm": "0014ef82418e9294b9bf86e13334de21719d8832d6fb"}, "vout": 1, "txid": "5304dc648c39119c023e6abdfab7f7fdc62d7fa5227cd283f1cd3b2332a8f7a1"}, {"txinwitness": ["3045022100c2b6fa0e30692687a74453ba657cb12e338ad530fc99ac6e2dee47caab342dff02207172fe5e4782f3219c3d3453a775c1691f5442ed5c19562ee4f0d8e03743ed1f01", "03e1df0d05291e3f8e9b19e9397f84f36cb207d777fbc2ee8cb89eb94878471416"], "sequence": 4294967294, "scriptSig": {"hex": "160014b4553f6cec702455abf17aa01ea4d8009b7700a1", "asm": "0014b4553f6cec702455abf17aa01ea4d8009b7700a1"}, "vout": 1, "txid": "63fd94a1d9811753f6ac4e46bdc825079dc863d613253d355d8be55e554c71b5"}, {"txinwitness": ["3045022100e938391636bd2bf3634172cc15e58cc390316a006eec954f1e8d6bb8b3f685b402200371b6f7df2f0f6b62312f5e00fb936e7ed74592d2904378097ea9619fa3b95801", "039fff3a43c451bf2072a2d0514e857cc9fd1f08660f3c5d276b1e6600d53e2be3"], "sequence": 4294967294, "scriptSig": {"hex": "160014e0688012ea6e1e7a0af28b75860451b02285b80b", "asm": "0014e0688012ea6e1e7a0af28b75860451b02285b80b"}, "vout": 2, "txid": "fdd9861d40c730377796c7287803d8c54d152253e13dab83bab7faaa8ee8dad3"}, {"txinwitness": ["304402202c059a7bd1dfb2a2581f6901d304f142102c684a16418224bb4cfaa0121fb66802202c16a98d1c1c0add5e2346d41d4d4126756d75b22988a8078a408f0a30a91e9401", "02d712c63eeca459176249e50769109c05d95e444041186796a0bb2e320fc5bf4a"], "sequence": 4294967294, "scriptSig": {"hex": "1600141c7bc6945d990f04f36dbfbccea4b7ec116bc3b9", "asm": "00141c7bc6945d990f04f36dbfbccea4b7ec116bc3b9"}, "vout": 27, "txid": "a54b6383f5e9346d43f3eb7554d07d3d0c8df2328ecfd2943cc9bc517a2c7be8"}, {"txinwitness": ["30450221009e31c053b27a9dc26bc855b49e1bc8969dc9539caf3bb84545cac3dc7a59f3a4022025c05c51fb512235fcd97d15fee7080f7f75fa94cf2b72e92e06eca46f103cc901", "0326e3bf15316f5be0978d9756ea4fce824154e504ad9e180c680db379d2768c2b"], "sequence": 4294967294, "scriptSig": {"hex": "160014b3c63423412721adfbe808a6296717bc1e2c3537", "asm": "0014b3c63423412721adfbe808a6296717bc1e2c3537"}, "vout": 2, "txid": "bc74321e9edf871cd97b30c81770f92c13fb5e77c68a3c04601facfc52d8d2fa"}], "txid": "b8910080669792ab3d1c148e1ef2b083275e4241bb3614287bdf4c5a2a9a97bf", "blocktime": 1537876114, "version": 2, "confirmations": 11462, "time": 1537876114, "locktime": 542961, "vsize": 802, "size": 1449}