{"hash": "b8999dcfc94bc5a896a0c9a02f5657677fc855a970687ebca3ad257e8d71dfb8", "blockhash": "0000000000000000001cda96e906b7601b7a6fb1a3b62bca570a9e5d8f4b3de1", "vout": [{"scriptPubKey": {"reqSigs": 1, "hex": "76a914025bba6d8327828d9e8c4b6f6571c99150e9c45f88ac", "addresses": ["1DUEmqa8RTuNDT8ZHPhdfsni5W5iBRyQn"], "asm": "OP_DUP OP_HASH160 025bba6d8327828d9e8c4b6f6571c99150e9c45f OP_EQUALVERIFY OP_CHECKSIG", "type": "pubkeyhash"}, "value": 0.00020517, "n": 0}, {"scriptPubKey": {"reqSigs": 1, "hex": "76a91495affb34c274294b5ea8cede49a2ef14c2ec866888ac", "addresses": ["1EeUVycFeHrtS2nqrhnHdZoyBdr389rvrE"], "asm": "OP_DUP OP_HASH160 95affb34c274294b5ea8cede49a2ef14c2ec8668 OP_EQUALVERIFY OP_CHECKSIG", "type": "pubkeyhash"}, "value": 0.01249106, "n": 1}], "hex": "01000000044bd3da0b86ed75c88f06949ab24ed29b48833357eee20b25037c5564f7ccdb11000000006a47304402206caf328af5ee515bfe1cb01c8d0d5fa83cec5e4f078d6047e22390c7e32d2be70220552f16662a464b8c6b90a42be00acfe01ebb6174209457ff32693ac81288e5910121039ff4d8b083b143253c29c8da07f17b5f313e75c18d1cc85e21850ee6909bae9effffffffdf26cd481ad03c8c99d6fac3e3e4c29ff5a82b233d2068e62e2bcd148cffa849000000006a47304402200ddff557137a68035a75c0dbc6972828a291cdbaaf4acb4f2c41f54eead31703022062275735bd7c25f8ad5bedbb10e4c00a33e644ab5f41eeefad55a7a850476f830121028feafab73e74e3da62d0e385ba8f873469ff58b95dfe1e1dede10f99c6f5606affffffff082c9156733a20ad50f0fd0d8aed994d943d506ed91c1847b1a4b28f8626d453000000006a47304402207e39a3ec25e91be70565d50dbeac5fe425f5363415537b6c7cd6a42377e920a902204967a05f7903269cd7bd08da3c35fff12bf2d79afa693ab3c68e8617c744d310012103ee60e857fe317ce256489e13008f8d9082fef563e6f294507a47d31ac21d0592ffffffff7d8ff3d52fb636a7d3eee36b975754ba767038bbae463db6a3ad655ea1ea2d9d010000006b483045022100f921396e4eb88eff80306490b10244be8734874fa74de76db08fdbb800cd777d022002cc065f650b44cd025fbef37fdf70a178ccd37f60d0cbc7541c3077a36df8590121039ff4d8b083b143253c29c8da07f17b5f313e75c18d1cc85e21850ee6909bae9effffffff0225500000000000001976a914025bba6d8327828d9e8c4b6f6571c99150e9c45f88ac520f1300000000001976a91495affb34c274294b5ea8cede49a2ef14c2ec866888ac00000000", "vin": [{"sequence": 4294967295, "scriptSig": {"hex": "47304402206caf328af5ee515bfe1cb01c8d0d5fa83cec5e4f078d6047e22390c7e32d2be70220552f16662a464b8c6b90a42be00acfe01ebb6174209457ff32693ac81288e5910121039ff4d8b083b143253c29c8da07f17b5f313e75c18d1cc85e21850ee6909bae9e", "asm": "304402206caf328af5ee515bfe1cb01c8d0d5fa83cec5e4f078d6047e22390c7e32d2be70220552f16662a464b8c6b90a42be00acfe01ebb6174209457ff32693ac81288e591[ALL] 039ff4d8b083b143253c29c8da07f17b5f313e75c18d1cc85e21850ee6909bae9e"}, "vout": 0, "txid": "11dbccf764557c03250be2ee573383489bd24eb29a94068fc875ed860bdad34b"}, {"sequence": 4294967295, "scriptSig": {"hex": "47304402200ddff557137a68035a75c0dbc6972828a291cdbaaf4acb4f2c41f54eead31703022062275735bd7c25f8ad5bedbb10e4c00a33e644ab5f41eeefad55a7a850476f830121028feafab73e74e3da62d0e385ba8f873469ff58b95dfe1e1dede10f99c6f5606a", "asm": "304402200ddff557137a68035a75c0dbc6972828a291cdbaaf4acb4f2c41f54eead31703022062275735bd7c25f8ad5bedbb10e4c00a33e644ab5f41eeefad55a7a850476f83[ALL] 028feafab73e74e3da62d0e385ba8f873469ff58b95dfe1e1dede10f99c6f5606a"}, "vout": 0, "txid": "49a8ff8c14cd2b2ee668203d232ba8f59fc2e4e3c3fad6998c3cd01a48cd26df"}, {"sequence": 4294967295, "scriptSig": {"hex": "47304402207e39a3ec25e91be70565d50dbeac5fe425f5363415537b6c7cd6a42377e920a902204967a05f7903269cd7bd08da3c35fff12bf2d79afa693ab3c68e8617c744d310012103ee60e857fe317ce256489e13008f8d9082fef563e6f294507a47d31ac21d0592", "asm": "304402207e39a3ec25e91be70565d50dbeac5fe425f5363415537b6c7cd6a42377e920a902204967a05f7903269cd7bd08da3c35fff12bf2d79afa693ab3c68e8617c744d310[ALL] 03ee60e857fe317ce256489e13008f8d9082fef563e6f294507a47d31ac21d0592"}, "vout": 0, "txid": "53d426868fb2a4b147181cd96e503d944d99ed8a0dfdf050ad203a7356912c08"}, {"sequence": 4294967295, "scriptSig": {"hex": "483045022100f921396e4eb88eff80306490b10244be8734874fa74de76db08fdbb800cd777d022002cc065f650b44cd025fbef37fdf70a178ccd37f60d0cbc7541c3077a36df8590121039ff4d8b083b143253c29c8da07f17b5f313e75c18d1cc85e21850ee6909bae9e", "asm": "3045022100f921396e4eb88eff80306490b10244be8734874fa74de76db08fdbb800cd777d022002cc065f650b44cd025fbef37fdf70a178ccd37f60d0cbc7541c3077a36df859[ALL] 039ff4d8b083b143253c29c8da07f17b5f313e75c18d1cc85e21850ee6909bae9e"}, "vout": 1, "txid": "9d2deaa15e65ada3b63d46aebb387076ba5457976be3eed3a736b62fd5f38f7d"}], "txid": "b8999dcfc94bc5a896a0c9a02f5657677fc855a970687ebca3ad257e8d71dfb8", "blocktime": 1537873282, "version": 1, "confirmations": 11485, "time": 1537873282, "locktime": 0, "vsize": 667, "size": 667}