{"hash": "84fcf3ef5981f41736033e20b662dbe093ac522ca197920c506b51c778feaaf6", "blockhash": "0000000000000000001cda96e906b7601b7a6fb1a3b62bca570a9e5d8f4b3de1", "vout": [{"scriptPubKey": {"reqSigs": 1, "hex": "00148932f7caa76be55a60bf756419504a06b293e906", "addresses": ["bc1q3ye00j48d0j45c9lw4jpj5z2q6ef86gxsqh0sg"], "asm": "0 8932f7caa76be55a60bf756419504a06b293e906", "type": "witness_v0_keyhash"}, "value": 2.388e-05, "n": 0}, {"scriptPubKey": {"reqSigs": 1, "hex": "76a914c685a1ef77dd076b61b87b4865a7e7333ddc248588ac", "addresses": ["1K6gswFyN5PAxQLn9qkC7U36zeyJwdgAqS"], "asm": "OP_DUP OP_HASH160 c685a1ef77dd076b61b87b4865a7e7333ddc2485 OP_EQUALVERIFY OP_CHECKSIG", "type": "pubkeyhash"}, "value": 0.002871, "n": 1}], "hex": "010000000001015d0c81f12093aef0849a8a3b331e7123ecab4a1404c3fab3a1d65683e5d1c5294d00000017160014ebc3cd27c4eff2859ff20ad5f3904fb0cfe17142ffffffff0254090000000000001600148932f7caa76be55a60bf756419504a06b293e9067c610400000000001976a914c685a1ef77dd076b61b87b4865a7e7333ddc248588ac024830450221008c792de54296942f30be9c026343b76d5a2214c9ccf2acef137bb803e63d956002205139e7b2fd33b391913e36eda51162a06959764f6ce59993cf9e5096b5ffa2790121024d4e14462857f1683d4505b7b86ac9cbad8c6f2b7d94ff491eff5aa1392aca0800000000", "vin": [{"txinwitness": ["30450221008c792de54296942f30be9c026343b76d5a2214c9ccf2acef137bb803e63d956002205139e7b2fd33b391913e36eda51162a06959764f6ce59993cf9e5096b5ffa27901", "024d4e14462857f1683d4505b7b86ac9cbad8c6f2b7d94ff491eff5aa1392aca08"], "sequence": 4294967295, "scriptSig": {"hex": "160014ebc3cd27c4eff2859ff20ad5f3904fb0cfe17142", "asm": "0014ebc3cd27c4eff2859ff20ad5f3904fb0cfe17142"}, "vout": 77, "txid": "29c5d1e58356d6a1b3fac304144aabec23711e333b8a9a84f0ae9320f1810c5d"}], "txid": "b8a4fef8eca0e5aa259f936b7bbbc2a701071fcde7e7acdeb8d50d7fd8a5c16d", "blocktime": 1537873282, "version": 1, "confirmations": 11484, "time": 1537873282, "locktime": 0, "vsize": 167, "size": 249}