{"hash": "b8a7d0849d060cb995f32a9f7bec56ad4c7189530b5cd761cbff5ad9f8b2db4d", "blockhash": "00000000000000000024a2167bbff67b0be802c0b01cdd79e6331c2be6459f87", "vout": [{"scriptPubKey": {"reqSigs": 1, "hex": "76a914af9376599c8249a24d8a34ecb843746760f60d6088ac", "addresses": ["1H1MuRzWFxieMSq5nhmMxAX4sPT7uQbaZR"], "asm": "OP_DUP OP_HASH160 af9376599c8249a24d8a34ecb843746760f60d60 OP_EQUALVERIFY OP_CHECKSIG", "type": "pubkeyhash"}, "value": 0.01243099, "n": 0}, {"scriptPubKey": {"reqSigs": 1, "hex": "76a914226d250f463adc8a3de9f2fe29b5dc08af03310f88ac", "addresses": ["1492j2wP6fdGKKspHoA9Ee7ysq13cYZgsU"], "asm": "OP_DUP OP_HASH160 226d250f463adc8a3de9f2fe29b5dc08af03310f OP_EQUALVERIFY OP_CHECKSIG", "type": "pubkeyhash"}, "value": 0.0392616, "n": 1}], "hex": "010000000101c867c65e3582f49759fa6c22b477c590f5b28a71570b86c079d7d01f6f2ee8050000006a47304402203b165314b80177e1c2737f40d1489022fc2b7d047031738c00d35ae395fe0bae022020321ac890e1feae0d601c48a9eb6b09e5ee6cb54ac60b22c9b7c17e982a2fcc012102b696300c9872c9244b70971035776ea4790366cace35fcaf50c6cd9f4bf43bffffffffff02dbf71200000000001976a914af9376599c8249a24d8a34ecb843746760f60d6088ac90e83b00000000001976a914226d250f463adc8a3de9f2fe29b5dc08af03310f88ac00000000", "vin": [{"sequence": 4294967295, "scriptSig": {"hex": "47304402203b165314b80177e1c2737f40d1489022fc2b7d047031738c00d35ae395fe0bae022020321ac890e1feae0d601c48a9eb6b09e5ee6cb54ac60b22c9b7c17e982a2fcc012102b696300c9872c9244b70971035776ea4790366cace35fcaf50c6cd9f4bf43bff", "asm": "304402203b165314b80177e1c2737f40d1489022fc2b7d047031738c00d35ae395fe0bae022020321ac890e1feae0d601c48a9eb6b09e5ee6cb54ac60b22c9b7c17e982a2fcc[ALL] 02b696300c9872c9244b70971035776ea4790366cace35fcaf50c6cd9f4bf43bff"}, "vout": 5, "txid": "e82e6f1fd0d779c0860b57718ab2f590c577b4226cfa5997f482355ec667c801"}], "txid": "b8a7d0849d060cb995f32a9f7bec56ad4c7189530b5cd761cbff5ad9f8b2db4d", "blocktime": 1537870564, "version": 1, "confirmations": 11515, "time": 1537870564, "locktime": 0, "vsize": 225, "size": 225}