{"hash": "b8b129351c443f1542496eb547af01ca33ae929cc0de5c0a294f0d457c8acb51", "blockhash": "0000000000000000000baef3f32e3676a92c3b2e5da21b426e4f302fc371ce76", "vout": [{"scriptPubKey": {"reqSigs": 1, "hex": "a9145ec89662e40067ee6bf137c1a57993e5decaadb687", "addresses": ["3ALBjdqWQVMkr9GGhR73VSisyQujzkHQ8K"], "asm": "OP_HASH160 5ec89662e40067ee6bf137c1a57993e5decaadb6 OP_EQUAL", "type": "scripthash"}, "value": 0.0038271, "n": 0}, {"scriptPubKey": {"reqSigs": 1, "hex": "76a914a4d2ba98befe6378ba8486d50283a7e7053fd2f988ac", "addresses": ["1G2WGAJWHKWwcUSFyNmsWyiEPK6ejoAKB4"], "asm": "OP_DUP OP_HASH160 a4d2ba98befe6378ba8486d50283a7e7053fd2f9 OP_EQUALVERIFY OP_CHECKSIG", "type": "pubkeyhash"}, "value": 0.01490672, "n": 1}], "hex": "01000000015ac5b16a45609203f7f74e0ff28d75a9d8f3c79da81628a04408e3eea76577d0010000006a47304402205c805f7cdb40361956652e9bddcb7c58771d6aa223aae02ce3dfaa2312cdf15102207a3b26100b1b40d133e8754689e4cbe100e0271d217bae1b3afe8ce4327c6dca01210211ce13a145fa03b71876b30aecb0ba35d79a2c621bc52ee36c790243bddc5693ffffffff02f6d605000000000017a9145ec89662e40067ee6bf137c1a57993e5decaadb687f0be1600000000001976a914a4d2ba98befe6378ba8486d50283a7e7053fd2f988ac00000000", "vin": [{"sequence": 4294967295, "scriptSig": {"hex": "47304402205c805f7cdb40361956652e9bddcb7c58771d6aa223aae02ce3dfaa2312cdf15102207a3b26100b1b40d133e8754689e4cbe100e0271d217bae1b3afe8ce4327c6dca01210211ce13a145fa03b71876b30aecb0ba35d79a2c621bc52ee36c790243bddc5693", "asm": "304402205c805f7cdb40361956652e9bddcb7c58771d6aa223aae02ce3dfaa2312cdf15102207a3b26100b1b40d133e8754689e4cbe100e0271d217bae1b3afe8ce4327c6dca[ALL] 0211ce13a145fa03b71876b30aecb0ba35d79a2c621bc52ee36c790243bddc5693"}, "vout": 1, "txid": "d07765a7eee30844a02816a89dc7f3d8a9758df20f4ef7f7039260456ab1c55a"}], "txid": "b8b129351c443f1542496eb547af01ca33ae929cc0de5c0a294f0d457c8acb51", "blocktime": 1537876114, "version": 1, "confirmations": 11460, "time": 1537876114, "locktime": 0, "vsize": 223, "size": 223}