{"hash": "b8b16c98beacc0784128f0a30f4d8b020aca0b265fe856cf9d13f9a84543edb8", "blockhash": "0000000000000000001cda96e906b7601b7a6fb1a3b62bca570a9e5d8f4b3de1", "vout": [{"scriptPubKey": {"reqSigs": 1, "hex": "a9148ba9470df9201e371f709b5ba8e0c4644a055b2987", "addresses": ["3ERUdpTVBZCLAh4V4uWnyRynmPdMoXwmym"], "asm": "OP_HASH160 8ba9470df9201e371f709b5ba8e0c4644a055b29 OP_EQUAL", "type": "scripthash"}, "value": 0.01428571, "n": 0}, {"scriptPubKey": {"reqSigs": 1, "hex": "76a914d3a2fcbd2123b942d3a08085a788531ee86f998888ac", "addresses": ["1LJ2q2ihfnBMWzPjxweAqVLw2AaUtLpVq5"], "asm": "OP_DUP OP_HASH160 d3a2fcbd2123b942d3a08085a788531ee86f9988 OP_EQUALVERIFY OP_CHECKSIG", "type": "pubkeyhash"}, "value": 0.02256354, "n": 1}], "hex": "0200000001eb6233938122079fed05a445fc8e178f6823cd5b75b7abeb03822bf244eefb04010000006b48304502210088d6fe784c725bcb9c77e463e8eaa51d9ea77672bb9d405f5c3d3411a63596a802207f63bf0fd5a99c668f48a743de6c1698ec865a5d7b459d45509189d161d897ab0121026ccd08d7564b6c51b1f1e4c4485e4c1af9ea62855dde164c63cd5cafe4fb21c3ffffffff025bcc15000000000017a9148ba9470df9201e371f709b5ba8e0c4644a055b2987e26d2200000000001976a914d3a2fcbd2123b942d3a08085a788531ee86f998888ac00000000", "vin": [{"sequence": 4294967295, "scriptSig": {"hex": "48304502210088d6fe784c725bcb9c77e463e8eaa51d9ea77672bb9d405f5c3d3411a63596a802207f63bf0fd5a99c668f48a743de6c1698ec865a5d7b459d45509189d161d897ab0121026ccd08d7564b6c51b1f1e4c4485e4c1af9ea62855dde164c63cd5cafe4fb21c3", "asm": "304502210088d6fe784c725bcb9c77e463e8eaa51d9ea77672bb9d405f5c3d3411a63596a802207f63bf0fd5a99c668f48a743de6c1698ec865a5d7b459d45509189d161d897ab[ALL] 026ccd08d7564b6c51b1f1e4c4485e4c1af9ea62855dde164c63cd5cafe4fb21c3"}, "vout": 1, "txid": "04fbee44f22b8203ebabb7755bcd23688f178efc45a405ed9f072281933362eb"}], "txid": "b8b16c98beacc0784128f0a30f4d8b020aca0b265fe856cf9d13f9a84543edb8", "blocktime": 1537873282, "version": 2, "confirmations": 11482, "time": 1537873282, "locktime": 0, "vsize": 224, "size": 224}