{"hash": "abd730a2e2c544b539dce72683a6c47f8408db18d4af1e685e0723ed45d9fdbf", "blockhash": "00000000000000000024a2167bbff67b0be802c0b01cdd79e6331c2be6459f87", "vout": [{"scriptPubKey": {"reqSigs": 1, "hex": "a914024b55aa754d835bbb2c5f6aa416326816eea09887", "addresses": ["31u9XGac1vBsrHxX8tFDPm4sxQ3P5N537W"], "asm": "OP_HASH160 024b55aa754d835bbb2c5f6aa416326816eea098 OP_EQUAL", "type": "scripthash"}, "value": 0.98631717, "n": 0}, {"scriptPubKey": {"reqSigs": 1, "hex": "a914149b99c81a7639334b72f4d75ae035d8c5ea9c1187", "addresses": ["33ZyqhyGkzTbbevKH2phvojc9PU7dRzUU3"], "asm": "OP_HASH160 149b99c81a7639334b72f4d75ae035d8c5ea9c11 OP_EQUAL", "type": "scripthash"}, "value": 2.0, "n": 1}], "hex": "010000000001011b25231cf673856e6d597484beb425860deefb33d9abd6facaf31b1d79208a4000000000171600149af8e8128e7f3d30c37133e80a220400cd8bb306ffffffff022500e1050000000017a914024b55aa754d835bbb2c5f6aa416326816eea0988700c2eb0b0000000017a914149b99c81a7639334b72f4d75ae035d8c5ea9c118702483045022100a65d4612d9fd7f2979feb550f11d6c831e3d535f462f6ba0aa9ae2178174124102202d698673a4c4a465059bb05891b158cdeb4e44cf5bc54f9f33ff65f9be901665012102540503871aa534e26ef6f10e989c1f04bc1882dd1f40beacae40ad6254ee5a2f00000000", "vin": [{"txinwitness": ["3045022100a65d4612d9fd7f2979feb550f11d6c831e3d535f462f6ba0aa9ae2178174124102202d698673a4c4a465059bb05891b158cdeb4e44cf5bc54f9f33ff65f9be90166501", "02540503871aa534e26ef6f10e989c1f04bc1882dd1f40beacae40ad6254ee5a2f"], "sequence": 4294967295, "scriptSig": {"hex": "1600149af8e8128e7f3d30c37133e80a220400cd8bb306", "asm": "00149af8e8128e7f3d30c37133e80a220400cd8bb306"}, "vout": 0, "txid": "408a20791d1bf3cafad6abd933fbee0d8625b4be8474596d6e8573f61c23251b"}], "txid": "b8b37da617bab6bf3fe55f4579c4e9f862889184f95ee50b4fb2fe38216c5c02", "blocktime": 1537870564, "version": 1, "confirmations": 11515, "time": 1537870564, "locktime": 0, "vsize": 166, "size": 248}