{"hash": "7b27532eb4a8223d6823449d220ea1e73b1cbb4ec4b80ddf452ad845cad4b2fe", "blockhash": "00000000000000000024a2167bbff67b0be802c0b01cdd79e6331c2be6459f87", "vout": [{"scriptPubKey": {"reqSigs": 1, "hex": "a91415a459000c491853562c7fce792f0d72456fb91b87", "addresses": ["33fSzeWkA6Hk1ZcM2NkTWGDcXqxcg2xATA"], "asm": "OP_HASH160 15a459000c491853562c7fce792f0d72456fb91b OP_EQUAL", "type": "scripthash"}, "value": 0.00428092, "n": 0}, {"scriptPubKey": {"reqSigs": 1, "hex": "0014e044916782168b12c650678b64ff60c0b46a873e", "addresses": ["bc1qupzfzeuzz69393jsv79kflmqcz6x4pe79xw582"], "asm": "0 e044916782168b12c650678b64ff60c0b46a873e", "type": "witness_v0_keyhash"}, "value": 4.823e-05, "n": 1}], "hex": "0100000000010111fad1f57be94eac751cfa62b2302aecbe5613ccf9d473986f529825b6115a570100000000ffffffff023c8806000000000017a91415a459000c491853562c7fce792f0d72456fb91b87d712000000000000160014e044916782168b12c650678b64ff60c0b46a873e02483045022100e95f48ec4788cbeecd49402069dc25f36b80d7b5b1657525f3e8c2e5abd4c5b302201e2cd188af5cad1005e01d9a9cd426a772d488fffff7bf9533f3ea290c48687e0121024c6a92a619e64e85caac19be3eccf829c9dff9c1005eec59605c51f3a233b25c00000000", "vin": [{"txinwitness": ["3045022100e95f48ec4788cbeecd49402069dc25f36b80d7b5b1657525f3e8c2e5abd4c5b302201e2cd188af5cad1005e01d9a9cd426a772d488fffff7bf9533f3ea290c48687e01", "024c6a92a619e64e85caac19be3eccf829c9dff9c1005eec59605c51f3a233b25c"], "sequence": 4294967295, "scriptSig": {"hex": "", "asm": ""}, "vout": 1, "txid": "575a11b62598526f9873d4f9cc1356beec2a30b262fa1c75ac4ee97bf5d1fa11"}], "txid": "b8ba64a75449de575047b7754ccf81c807402ba76743f59d4072916b3a7258e1", "blocktime": 1537870564, "version": 1, "confirmations": 11515, "time": 1537870564, "locktime": 0, "vsize": 142, "size": 224}