{"hash": "b8be34405beb06774d9ade01d2f8e2b90ae336d399da05bbbe5deff2b046d1c1", "blockhash": "000000000000000000022b45ed06c6f4ccd3cf7fb5ba4856ebd2e58215665228", "vout": [{"scriptPubKey": {"reqSigs": 1, "hex": "76a914284b1f894ca72430de8f19952125b6016a9dc7c688ac", "addresses": ["14g42KnXkRFfR8cUtS5tReprjeNvGQKW9v"], "asm": "OP_DUP OP_HASH160 284b1f894ca72430de8f19952125b6016a9dc7c6 OP_EQUALVERIFY OP_CHECKSIG", "type": "pubkeyhash"}, "value": 0.14525761, "n": 0}, {"scriptPubKey": {"type": "nulldata", "hex": "6a146f6d6e69000000000000001f00000006fc23ac00", "asm": "OP_RETURN 6f6d6e69000000000000001f00000006fc23ac00"}, "value": 0.0, "n": 1}, {"scriptPubKey": {"reqSigs": 1, "hex": "76a914bac2e45c8dc42db45c95f1c7d66c9091fcc06a9688ac", "addresses": ["1J2WA1xrKMpCm14sAw9wwfVRcdYZyxoY9M"], "asm": "OP_DUP OP_HASH160 bac2e45c8dc42db45c95f1c7d66c9091fcc06a96 OP_EQUALVERIFY OP_CHECKSIG", "type": "pubkeyhash"}, "value": 5.46e-06, "n": 2}], "hex": "010000000142a4d5463f823d05c1ef2c3e8b1b3dc4bf4fba93827c2629ecff0e12b148d185020000006b483045022100876dcb824b250efdcf0b6551bc2ae8a12aa6f2cabd8d0278affb9dbc4299fe910220696b126e56c465da27f93f6be80793bc714df7fffc3635fb8f1466dac8b1c68b01210392260b2475e9dec1855e89404d00787579055270f3f1619ec29bd64ed6a6dd7dfeffffff0341a5dd00000000001976a914284b1f894ca72430de8f19952125b6016a9dc7c688ac0000000000000000166a146f6d6e69000000000000001f00000006fc23ac0022020000000000001976a914bac2e45c8dc42db45c95f1c7d66c9091fcc06a9688ac0b490800", "vin": [{"sequence": 4294967294, "scriptSig": {"hex": "483045022100876dcb824b250efdcf0b6551bc2ae8a12aa6f2cabd8d0278affb9dbc4299fe910220696b126e56c465da27f93f6be80793bc714df7fffc3635fb8f1466dac8b1c68b01210392260b2475e9dec1855e89404d00787579055270f3f1619ec29bd64ed6a6dd7d", "asm": "3045022100876dcb824b250efdcf0b6551bc2ae8a12aa6f2cabd8d0278affb9dbc4299fe910220696b126e56c465da27f93f6be80793bc714df7fffc3635fb8f1466dac8b1c68b[ALL] 0392260b2475e9dec1855e89404d00787579055270f3f1619ec29bd64ed6a6dd7d"}, "vout": 2, "txid": "85d148b1120effec29267c8293ba4fbfc43d1b8b3e2cefc1053d823f46d5a442"}], "txid": "b8be34405beb06774d9ade01d2f8e2b90ae336d399da05bbbe5deff2b046d1c1", "blocktime": 1537869901, "version": 1, "confirmations": 11522, "time": 1537869901, "locktime": 542987, "vsize": 257, "size": 257}