{"hash": "a6ae2dae9572b5c85994ba2dbe7ce6139b922c36c0df0cfbfad1a96cf44f94e9", "blockhash": "0000000000000000000dcc0f55137456b1a82d3642486a52398922ac4d620174", "vout": [{"scriptPubKey": {"reqSigs": 1, "hex": "76a91422c1467af684c69858a84d6739e4ae2d0e44193688ac", "addresses": ["14AmWXY1rbwtSyzmEqJxL9UnFeL9Nt8QBi"], "asm": "OP_DUP OP_HASH160 22c1467af684c69858a84d6739e4ae2d0e441936 OP_EQUALVERIFY OP_CHECKSIG", "type": "pubkeyhash"}, "value": 0.001, "n": 0}, {"scriptPubKey": {"reqSigs": 1, "hex": "a9143b88b7b4b57196040a236b1eb33bd2f9d9b49eea87", "addresses": ["377oaAekPQzHFJyucA5bfJdvqQcHBqae3F"], "asm": "OP_HASH160 3b88b7b4b57196040a236b1eb33bd2f9d9b49eea OP_EQUAL", "type": "scripthash"}, "value": 2.29e-05, "n": 1}], "hex": "01000000000101c50128c00cf66efdd8d05503d2882f448cc7ce02d3fecc5c9aa8072753fefd2e0100000017160014d24527cf8f228407f566d4f08c300170f349db89ffffffff02a0860100000000001976a91422c1467af684c69858a84d6739e4ae2d0e44193688acf20800000000000017a9143b88b7b4b57196040a236b1eb33bd2f9d9b49eea8702483045022100f58208587c7ea76ffbb9dc52466d0c03f52b46b784610d6e29fcf603ba2f2d51022018116cc4202206b9535a6927dd013d9929e091d751cd50cafbd9c7323c3f2bb20121023efe227a7fa2298a7d6e32c098c1839ab174a4e1136b7cd1130f9452cbb975e400000000", "vin": [{"txinwitness": ["3045022100f58208587c7ea76ffbb9dc52466d0c03f52b46b784610d6e29fcf603ba2f2d51022018116cc4202206b9535a6927dd013d9929e091d751cd50cafbd9c7323c3f2bb201", "023efe227a7fa2298a7d6e32c098c1839ab174a4e1136b7cd1130f9452cbb975e4"], "sequence": 4294967295, "scriptSig": {"hex": "160014d24527cf8f228407f566d4f08c300170f349db89", "asm": "0014d24527cf8f228407f566d4f08c300170f349db89"}, "vout": 1, "txid": "2efdfe532707a89a5cccfed302cec78c442f88d20355d0d8fd6ef60cc02801c5"}], "txid": "b8d491fdc95cd201a5e7b6c0086d902f60685991ef138ab1fb174c59459739ab", "blocktime": 1537870268, "version": 1, "confirmations": 11516, "time": 1537870268, "locktime": 0, "vsize": 168, "size": 250}