{"hash": "b8d4ff8310338bca3d3d74756a5f36c446c19b1b3a96969d36b81b4ef455c1ab", "blockhash": "0000000000000000001f0ddff1eddb255c1121bcd4da4f1bc9a0da00cae72433", "vout": [{"scriptPubKey": {"reqSigs": 1, "hex": "a91400a1cb933c04f85402b1dd52614c59efa2206b1187", "addresses": ["31kMkGkbriLqUPuwQog6vAC68wWAhHiPjK"], "asm": "OP_HASH160 00a1cb933c04f85402b1dd52614c59efa2206b11 OP_EQUAL", "type": "scripthash"}, "value": 0.6296, "n": 0}, {"scriptPubKey": {"reqSigs": 1, "hex": "76a91420cf3cba9ff51c47dd94d1e5a0865eade04cfe9a88ac", "addresses": ["13zUtEXcSrm7GFFLy8zLqfMshqV5bdknVy"], "asm": "OP_DUP OP_HASH160 20cf3cba9ff51c47dd94d1e5a0865eade04cfe9a OP_EQUALVERIFY OP_CHECKSIG", "type": "pubkeyhash"}, "value": 0.3896, "n": 1}, {"scriptPubKey": {"reqSigs": 1, "hex": "76a91405fd90dbd9dd2e894bba617b0a34e7a92c9f656288ac", "addresses": ["1Yg92NPWhaY7Swdf8uKFadUJgF8xNrzs1"], "asm": "OP_DUP OP_HASH160 05fd90dbd9dd2e894bba617b0a34e7a92c9f6562 OP_EQUALVERIFY OP_CHECKSIG", "type": "pubkeyhash"}, "value": 0.05028044, "n": 2}, {"scriptPubKey": {"reqSigs": 1, "hex": "76a914cebb2851a9c7cfe2582c12ecaf7f3ff4383d1dc088ac", "addresses": ["1Kr6QSydW9bFQG1mXiPNNu6WpJGmUa9i1g"], "asm": "OP_DUP OP_HASH160 cebb2851a9c7cfe2582c12ecaf7f3ff4383d1dc0 OP_EQUALVERIFY OP_CHECKSIG", "type": "pubkeyhash"}, "value": 141.72820695, "n": 3}], "hex": "02000000014e221c0d63114e0c61437bb614c633398bd9ba1fee5a6d5104e60cf5e43a639d020000006a47304402204ccd3e1aa1a9672742cfc3905fcd9613bc2294a5aace0c263bc8abde73dc2ee602207203b1442a9dcab3e96991f58140bc01cab5b8bb76a2dab47728b47670a7433c012103786af4b32017ec640dba2d2a7e1fd5aa4a231a658e4cbc114d51c031576e19bcffffffff0480b1c0030000000017a91400a1cb933c04f85402b1dd52614c59efa2206b1187807b5202000000001976a91420cf3cba9ff51c47dd94d1e5a0865eade04cfe9a88acccb84c00000000001976a91405fd90dbd9dd2e894bba617b0a34e7a92c9f656288acd714c44c030000001976a914cebb2851a9c7cfe2582c12ecaf7f3ff4383d1dc088ac00000000", "vin": [{"sequence": 4294967295, "scriptSig": {"hex": "47304402204ccd3e1aa1a9672742cfc3905fcd9613bc2294a5aace0c263bc8abde73dc2ee602207203b1442a9dcab3e96991f58140bc01cab5b8bb76a2dab47728b47670a7433c012103786af4b32017ec640dba2d2a7e1fd5aa4a231a658e4cbc114d51c031576e19bc", "asm": "304402204ccd3e1aa1a9672742cfc3905fcd9613bc2294a5aace0c263bc8abde73dc2ee602207203b1442a9dcab3e96991f58140bc01cab5b8bb76a2dab47728b47670a7433c[ALL] 03786af4b32017ec640dba2d2a7e1fd5aa4a231a658e4cbc114d51c031576e19bc"}, "vout": 2, "txid": "9d633ae4f50ce604516d5aee1fbad98b3933c614b67b43610c4e11630d1c224e"}], "txid": "b8d4ff8310338bca3d3d74756a5f36c446c19b1b3a96969d36b81b4ef455c1ab", "blocktime": 1537872018, "version": 2, "confirmations": 11489, "time": 1537872018, "locktime": 0, "vsize": 291, "size": 291}