{"hash": "a193f69029478558416c87ee496aaf13219d48856c9649b7caa82e0ee9f27a48", "blockhash": "0000000000000000000dcc0f55137456b1a82d3642486a52398922ac4d620174", "vout": [{"scriptPubKey": {"reqSigs": 1, "hex": "76a914000d6167a8a2714d3fff0951c6a511cb3aae582e88ac", "addresses": ["11H2hAuvuZPBNRewJisbNo6VW3hhbzSVL"], "asm": "OP_DUP OP_HASH160 000d6167a8a2714d3fff0951c6a511cb3aae582e OP_EQUALVERIFY OP_CHECKSIG", "type": "pubkeyhash"}, "value": 0.00015, "n": 0}, {"scriptPubKey": {"reqSigs": 1, "hex": "76a914de5f13f98beeb537cdbfa9157fdb081830f980cf88ac", "addresses": ["1MGnuixgjMtwEw6kJp2co98gXWURyvx2Vi"], "asm": "OP_DUP OP_HASH160 de5f13f98beeb537cdbfa9157fdb081830f980cf OP_EQUALVERIFY OP_CHECKSIG", "type": "pubkeyhash"}, "value": 0.0002, "n": 1}, {"scriptPubKey": {"reqSigs": 1, "hex": "a91443fff246ca15f0d8cb2c7e57f6dedd73ca245f0587", "addresses": ["37tZos38bVdHB77Vasvy3H4b9TofNLuKsu"], "asm": "OP_HASH160 43fff246ca15f0d8cb2c7e57f6dedd73ca245f05 OP_EQUAL", "type": "scripthash"}, "value": 0.02921372, "n": 2}, {"scriptPubKey": {"reqSigs": 1, "hex": "76a91401d52d2d7d40409cfb155e5e039e7686257e9a1e88ac", "addresses": ["1Ah3xGuvxq5wgTCYYvZrpANR2epZJWw77"], "asm": "OP_DUP OP_HASH160 01d52d2d7d40409cfb155e5e039e7686257e9a1e OP_EQUALVERIFY OP_CHECKSIG", "type": "pubkeyhash"}, "value": 0.00025, "n": 3}], "hex": "020000000001017e49da54f3074782a00a2647f9da614718ceb5b15341888f726e8f99dbd8e2e40000000017160014778d683d15f4d09ceb613918d3ecee6527be5afbfdffffff04983a0000000000001976a914000d6167a8a2714d3fff0951c6a511cb3aae582e88ac204e0000000000001976a914de5f13f98beeb537cdbfa9157fdb081830f980cf88ac9c932c000000000017a91443fff246ca15f0d8cb2c7e57f6dedd73ca245f0587a8610000000000001976a91401d52d2d7d40409cfb155e5e039e7686257e9a1e88ac0248304502210093e25bca6611a2633afebbdc35b15540086b241e80cc0e23f6164f00037c5745022077c3607900c6f46bc9cc55984e6e49ad63f5a367f55982c7cdc52fcd1d4534c801210233a00be7582fadc466b085df567217585e1c4836405923d13df5adb099fd84540c490800", "vin": [{"txinwitness": ["304502210093e25bca6611a2633afebbdc35b15540086b241e80cc0e23f6164f00037c5745022077c3607900c6f46bc9cc55984e6e49ad63f5a367f55982c7cdc52fcd1d4534c801", "0233a00be7582fadc466b085df567217585e1c4836405923d13df5adb099fd8454"], "sequence": 4294967293, "scriptSig": {"hex": "160014778d683d15f4d09ceb613918d3ecee6527be5afb", "asm": "0014778d683d15f4d09ceb613918d3ecee6527be5afb"}, "vout": 0, "txid": "e4e2d8db998f6e728f884153b1b5ce184761daf947260aa0824707f354da497e"}], "txid": "b8d8cb631b756d428d7e4207c0d03ee9adebb81eb27ff57a44e4bbf5c7b003a8", "blocktime": 1537870268, "version": 2, "confirmations": 11520, "time": 1537870268, "locktime": 542988, "vsize": 236, "size": 318}