{"hash": "b8e163541e7e4209ed2a8b85ed60e53f0da4bb4a6c5aa77a1c02f6a51375e4bb", "blockhash": "0000000000000000000dcc0f55137456b1a82d3642486a52398922ac4d620174", "vout": [{"scriptPubKey": {"reqSigs": 1, "hex": "a91497544302304861740095c91fab43f41af88c1ce987", "addresses": ["3FVAu7sfHaE1H8uNUSkxGXe6gcqti3PKxU"], "asm": "OP_HASH160 97544302304861740095c91fab43f41af88c1ce9 OP_EQUAL", "type": "scripthash"}, "value": 0.00556188, "n": 0}], "hex": "01000000012eb90f56558c1956cfa790e94029cf6b3c2819006ea15e7c9484a23fb98a19e1050000006a47304402206275086c4474d0e3d81d79a7d14a82c1e6d292abe42e0f65abe207952576070902201e65103bf89b3c59760392a6c52de1545f79cb27031bbdc522594fb7b8cb53ca0121030c7f2cb640fca126fe1feb439d227f2a53abaf94fd211205aff2aed04b9e7dc3ffffffff019c7c08000000000017a91497544302304861740095c91fab43f41af88c1ce98700000000", "vin": [{"sequence": 4294967295, "scriptSig": {"hex": "47304402206275086c4474d0e3d81d79a7d14a82c1e6d292abe42e0f65abe207952576070902201e65103bf89b3c59760392a6c52de1545f79cb27031bbdc522594fb7b8cb53ca0121030c7f2cb640fca126fe1feb439d227f2a53abaf94fd211205aff2aed04b9e7dc3", "asm": "304402206275086c4474d0e3d81d79a7d14a82c1e6d292abe42e0f65abe207952576070902201e65103bf89b3c59760392a6c52de1545f79cb27031bbdc522594fb7b8cb53ca[ALL] 030c7f2cb640fca126fe1feb439d227f2a53abaf94fd211205aff2aed04b9e7dc3"}, "vout": 5, "txid": "e1198ab93fa284947c5ea16e0019283c6bcf2940e990a7cf56198c55560fb92e"}], "txid": "b8e163541e7e4209ed2a8b85ed60e53f0da4bb4a6c5aa77a1c02f6a51375e4bb", "blocktime": 1537870268, "version": 1, "confirmations": 11517, "time": 1537870268, "locktime": 0, "vsize": 189, "size": 189}