{"hash": "6c19d799f9db922c8571d7779f3ba019a0de169354f999fc58e0ba2bf3ce7656", "blockhash": "0000000000000000001f0ddff1eddb255c1121bcd4da4f1bc9a0da00cae72433", "vout": [{"scriptPubKey": {"reqSigs": 1, "hex": "a9148fc64cf5b62f24e4053d19cc4773db73c872948c87", "addresses": ["3EoE79L6j4ooaB6oHz4mzq4S92KyiYKKrV"], "asm": "OP_HASH160 8fc64cf5b62f24e4053d19cc4773db73c872948c OP_EQUAL", "type": "scripthash"}, "value": 0.04, "n": 0}, {"scriptPubKey": {"reqSigs": 1, "hex": "a9142b14fc6a4398c2c81da9d0d584f632c29e03366e87", "addresses": ["35cp7vc9iU44eHxahbh8aRAM63X3TT1Cei"], "asm": "OP_HASH160 2b14fc6a4398c2c81da9d0d584f632c29e03366e OP_EQUAL", "type": "scripthash"}, "value": 0.0863415, "n": 1}], "hex": "0200000000010115f7e8dafd28604b4fdb715d4fda39c9070630d2e25a1e4863a5b991ad197cba01000000171600144fcb932c7c3feb27f0a63687a5c4371b1e6d3d3ffeffffff0200093d000000000017a9148fc64cf5b62f24e4053d19cc4773db73c872948c8726bf83000000000017a9142b14fc6a4398c2c81da9d0d584f632c29e03366e870247304402202259854ea83130dd614c346998e398c3741f90559cde7b9a70b9bbc67968f3d9022015899b177ed3b2edaaf288b62b57579dd37ad08a9240e4ddd6c59faafd02db810121036c9e2b5764624287a47d8a252de714a563cf4bb5b576cd097f403a3a92d626e711490800", "vin": [{"txinwitness": ["304402202259854ea83130dd614c346998e398c3741f90559cde7b9a70b9bbc67968f3d9022015899b177ed3b2edaaf288b62b57579dd37ad08a9240e4ddd6c59faafd02db8101", "036c9e2b5764624287a47d8a252de714a563cf4bb5b576cd097f403a3a92d626e7"], "sequence": 4294967294, "scriptSig": {"hex": "1600144fcb932c7c3feb27f0a63687a5c4371b1e6d3d3f", "asm": "00144fcb932c7c3feb27f0a63687a5c4371b1e6d3d3f"}, "vout": 1, "txid": "ba7c19ad91b9a563481e5ae2d2300607c939da4f5d71db4f4b6028fddae8f715"}], "txid": "b8e337a40559052316e3c96ed992700fc6caec6cbe9089a61724fb41f6f07e63", "blocktime": 1537872018, "version": 2, "confirmations": 11489, "time": 1537872018, "locktime": 542993, "vsize": 166, "size": 247}