{"hash": "a589ebfb308767fe79f4331636aee13aad1e116c6feecba6856a6342e33bde2f", "blockhash": "0000000000000000001f0ddff1eddb255c1121bcd4da4f1bc9a0da00cae72433", "vout": [{"scriptPubKey": {"reqSigs": 1, "hex": "a9149a37f8f5984e6aaf6c1e8a8e7d03c2257dbc1b7387", "addresses": ["3FkT385qHNV8GnbbSpPZ2zY8pgFsYj2zmd"], "asm": "OP_HASH160 9a37f8f5984e6aaf6c1e8a8e7d03c2257dbc1b73 OP_EQUAL", "type": "scripthash"}, "value": 0.05410506, "n": 0}], "hex": "0200000000010e0bce21ae7a09c447151302012bdd147d4fe160ce7f7ea998a89a6b5a72f1c6a3140000006b483045022100c7185521faf8c862832c239b1e0a6691cd69b49462d170e6ca47fc5dbd29ac96022047d63f0f46410e7ff3edd1b06cb66c0574ad11ee180587cfb709d4e18e2bb80a012102d92504fbceec4256e517f1ee694a5e0c65d08e87603cf25769a79572433e736affffffff19e8ff3e323b02ee006f538a39d3f807d918f64fabf49a220d32f63eae1940bb000000006a47304402200e68ba27c0413114973d46e0f639a89016b27461126e3b4bd69960effb0d5ba902206b0f0bff1ce5b5af945cc500d4e26193070c15cf6d376a09ae63b56a3a1901b40121023416487d1e61e7da7c46e5ea8827758bb9fb7b4e8a38d2bc5a59077d238c6a0effffffff24e48eabda7b66f1f587bf3ed4ec5b6d9d0d230915c3664c9bcfc12eb534685f350000006a47304402205f298ffca0516410dceaaf1515ae542d3d5d329ee76f64aa8bf8e353466017170220680f559bb059052c8e9ddf04cb39a443f6d3d0de1b365a973be37546c00b678c012102716ded51f9a1b97f1d8097cba4b07e492f63b5b281336961661311d9f3a985b0ffffffff292576736b542b94d827cbefb9578b2d2472d1a6864cd891e1dd3aaf61f46900000000006a47304402203093ab6ce71cdc36f9423b3853a214c43d94e0df440462f20118fc60d44b41770220475d1af5714eb29939188b1762bd9fed771da245c7808e9980e09f0951880ac7012102eef36a7fa4bc2a0cc3869dcc28d1c01dd601a5a837de4db3076e16cfcf2c8a1effffffff2bf03647701c8d3724aa30dc5f9e8c99de3a042636686047c263862010fe10ebb50500006a4730440220031efaa28d7dc6348fc4250b2e7238d777602323350c88d6713df6b6919201460220049c301f3cf46f2638090dd4ae7c73cdccd0a07a66764b04bf620508f585996d012103b7c6a8a12c0c1a74d975de63d67d202f18871987a084ceb1aa3b0db584fbd1d2ffffffff2bf03647701c8d3724aa30dc5f9e8c99de3a042636686047c263862010fe10ebb70500006a473044022005ed6a91729da8883256d9f08d62c7a0c343a06f9e648bf14f8c400c5999c13f02203d342d49365506c980fb655a8dce5e8fcd1a7a81e8dacc81889a074016d1f633012102786c44ccd6f79a08d32878a82d99e772b9e9f53859bd7578110f12cd78014939ffffffff2bf03647701c8d3724aa30dc5f9e8c99de3a042636686047c263862010fe10eb6d0900006b483045022100da499527eaa05583d8d88e5c5f2cdf574bec31884a9a685c2772a2b44c0f1e7f022064850c2fcbe50044c13896d41690151a288828077aa03d0b5ab33a60da8a51eb012102a5ead5f4734317ff354530edd22e21f7d12564e858fd056caa666cb65fc0c128ffffffff2bf03647701c8d3724aa30dc5f9e8c99de3a042636686047c263862010fe10eb160a00006a47304402201af1b5a3d5c7997f155d2f979361b0f6957531a82f980c88018bf6e98348afa0022052e473d70c09d1850e56beb756902976143497bd08b8cd325af9fb2c961476fa012102c51ded3da5ad36adefc7706e0d6b989762df04fd9bf9d191e8e5471d93b6ccb1ffffffff4969fb8278504d5288f8ea11cd0c81068cf6cbdddd09ad6fce2798d6fd323f26010000006a4730440220401fd625c51afcdaf243c373846965854da6d224c83d1c073d72cc45c54fcee40220355d75d074c1af6cfbd8b073d3015b309eb4e36c9e627c42279bd024d35daa500121026e1803c5e842f45bcc135a6c33183e5c15b68750ce97ece6ef04d7cc2e6b5d7effffffff8246b66ee0a8867fe459c6c9489fc74999b308197f21adc1091b56712d98cf6b010000006b4830450221008733df1cbbdd61e92bf90c610ab02d6d5751e6d5b723682b4c118f0aa562a6bb02201f8a5043db4718f5ab8816a0ce61e786352b8925c0e5f135b0ae22a78ecbd6e90121032ef9809b6dcd6cfbdf1a9c7c95ed69047c7fdf5f40a03c39dcad9ded3a82b03effffffffa421e9f891a15bfe105b78cb251d69d6f7d7b64ef87f1ca2c215b7dbcc8de1c7080000006b483045022100f633ab9102bba9be84879b609859bd5773717967c05c0e7d283cd05792c0a19e02205ff13d01f2577f15e707a8c21b0bd2731b719e24e3e830e440ef82f309693c44012103dd58afcdc863693772a358f3a0d1423bb09d2971d32ec6b594ace5308f2d1b76ffffffffa421e9f891a15bfe105b78cb251d69d6f7d7b64ef87f1ca2c215b7dbcc8de1c70b0000006a47304402207086f7022797a51db4ae2502d97ac02ea9c8ed287442e29b4b7755aa3e4c1d1002207a0aa8aab35bec63870055101e61bac415c50c1d08a0d38a7f97c5f8cf469c290121031dea2bc64d094d82eb506df46e668274c9e67b987f2648db518a3e8d844063cbffffffffd0380e550254ac2eacd8d2c63522de6ed3edf597331dec0963f07d5949bdf61c000000006b4830450221008ff7e9c74070d3974f9a297ef1785bf7de7ff343c9521388e2946cbab4b167ea022058cdb945d80239ad06018ba57481e5dd4f0478bcb6766db7d675bb58f0926590012102052ec203424d57efb40f71d3389737cca20eaa1c1720a6e53c26f2619e8e1cf4ffffffffe9d9ec22358a42cdc91b5053d2d4353ea669356e0ca5f9469af92b1096faacd500000000171600144e9c1bfa43923cbdd1039c5de6359c1b6f3207bfffffffff01ca8e52000000000017a9149a37f8f5984e6aaf6c1e8a8e7d03c2257dbc1b7387000000000000000000000000000247304402202bbafebb606313f225963a3371e36fc16ac871dea52e753ae9dd48de59935d4302203ff22d25ea8afdb1e2cc3612322b67b166cdbfd681f9f1d437cb47a25bbe0dfa012103141c4c3afa2b0c0503650e907e8e04d19322f4021577c417f702efb9aa94d16100000000", "vin": [{"sequence": 4294967295, "scriptSig": {"hex": "483045022100c7185521faf8c862832c239b1e0a6691cd69b49462d170e6ca47fc5dbd29ac96022047d63f0f46410e7ff3edd1b06cb66c0574ad11ee180587cfb709d4e18e2bb80a012102d92504fbceec4256e517f1ee694a5e0c65d08e87603cf25769a79572433e736a", "asm": "3045022100c7185521faf8c862832c239b1e0a6691cd69b49462d170e6ca47fc5dbd29ac96022047d63f0f46410e7ff3edd1b06cb66c0574ad11ee180587cfb709d4e18e2bb80a[ALL] 02d92504fbceec4256e517f1ee694a5e0c65d08e87603cf25769a79572433e736a"}, "vout": 20, "txid": "a3c6f1725a6b9aa898a97e7fce60e14f7d14dd2b0102131547c4097aae21ce0b"}, {"sequence": 4294967295, "scriptSig": {"hex": "47304402200e68ba27c0413114973d46e0f639a89016b27461126e3b4bd69960effb0d5ba902206b0f0bff1ce5b5af945cc500d4e26193070c15cf6d376a09ae63b56a3a1901b40121023416487d1e61e7da7c46e5ea8827758bb9fb7b4e8a38d2bc5a59077d238c6a0e", "asm": "304402200e68ba27c0413114973d46e0f639a89016b27461126e3b4bd69960effb0d5ba902206b0f0bff1ce5b5af945cc500d4e26193070c15cf6d376a09ae63b56a3a1901b4[ALL] 023416487d1e61e7da7c46e5ea8827758bb9fb7b4e8a38d2bc5a59077d238c6a0e"}, "vout": 0, "txid": "bb4019ae3ef6320d229af4ab4ff618d907f8d3398a536f00ee023b323effe819"}, {"sequence": 4294967295, "scriptSig": {"hex": "47304402205f298ffca0516410dceaaf1515ae542d3d5d329ee76f64aa8bf8e353466017170220680f559bb059052c8e9ddf04cb39a443f6d3d0de1b365a973be37546c00b678c012102716ded51f9a1b97f1d8097cba4b07e492f63b5b281336961661311d9f3a985b0", "asm": "304402205f298ffca0516410dceaaf1515ae542d3d5d329ee76f64aa8bf8e353466017170220680f559bb059052c8e9ddf04cb39a443f6d3d0de1b365a973be37546c00b678c[ALL] 02716ded51f9a1b97f1d8097cba4b07e492f63b5b281336961661311d9f3a985b0"}, "vout": 53, "txid": "5f6834b52ec1cf9b4c66c31509230d9d6d5becd43ebf87f5f1667bdaab8ee424"}, {"sequence": 4294967295, "scriptSig": {"hex": "47304402203093ab6ce71cdc36f9423b3853a214c43d94e0df440462f20118fc60d44b41770220475d1af5714eb29939188b1762bd9fed771da245c7808e9980e09f0951880ac7012102eef36a7fa4bc2a0cc3869dcc28d1c01dd601a5a837de4db3076e16cfcf2c8a1e", "asm": "304402203093ab6ce71cdc36f9423b3853a214c43d94e0df440462f20118fc60d44b41770220475d1af5714eb29939188b1762bd9fed771da245c7808e9980e09f0951880ac7[ALL] 02eef36a7fa4bc2a0cc3869dcc28d1c01dd601a5a837de4db3076e16cfcf2c8a1e"}, "vout": 0, "txid": "0069f461af3adde191d84c86a6d172242d8b57b9efcb27d8942b546b73762529"}, {"sequence": 4294967295, "scriptSig": {"hex": "4730440220031efaa28d7dc6348fc4250b2e7238d777602323350c88d6713df6b6919201460220049c301f3cf46f2638090dd4ae7c73cdccd0a07a66764b04bf620508f585996d012103b7c6a8a12c0c1a74d975de63d67d202f18871987a084ceb1aa3b0db584fbd1d2", "asm": "30440220031efaa28d7dc6348fc4250b2e7238d777602323350c88d6713df6b6919201460220049c301f3cf46f2638090dd4ae7c73cdccd0a07a66764b04bf620508f585996d[ALL] 03b7c6a8a12c0c1a74d975de63d67d202f18871987a084ceb1aa3b0db584fbd1d2"}, "vout": 1461, "txid": "eb10fe10208663c24760683626043ade998c9e5fdc30aa24378d1c704736f02b"}, {"sequence": 4294967295, "scriptSig": {"hex": "473044022005ed6a91729da8883256d9f08d62c7a0c343a06f9e648bf14f8c400c5999c13f02203d342d49365506c980fb655a8dce5e8fcd1a7a81e8dacc81889a074016d1f633012102786c44ccd6f79a08d32878a82d99e772b9e9f53859bd7578110f12cd78014939", "asm": "3044022005ed6a91729da8883256d9f08d62c7a0c343a06f9e648bf14f8c400c5999c13f02203d342d49365506c980fb655a8dce5e8fcd1a7a81e8dacc81889a074016d1f633[ALL] 02786c44ccd6f79a08d32878a82d99e772b9e9f53859bd7578110f12cd78014939"}, "vout": 1463, "txid": "eb10fe10208663c24760683626043ade998c9e5fdc30aa24378d1c704736f02b"}, {"sequence": 4294967295, "scriptSig": {"hex": "483045022100da499527eaa05583d8d88e5c5f2cdf574bec31884a9a685c2772a2b44c0f1e7f022064850c2fcbe50044c13896d41690151a288828077aa03d0b5ab33a60da8a51eb012102a5ead5f4734317ff354530edd22e21f7d12564e858fd056caa666cb65fc0c128", "asm": "3045022100da499527eaa05583d8d88e5c5f2cdf574bec31884a9a685c2772a2b44c0f1e7f022064850c2fcbe50044c13896d41690151a288828077aa03d0b5ab33a60da8a51eb[ALL] 02a5ead5f4734317ff354530edd22e21f7d12564e858fd056caa666cb65fc0c128"}, "vout": 2413, "txid": "eb10fe10208663c24760683626043ade998c9e5fdc30aa24378d1c704736f02b"}, {"sequence": 4294967295, "scriptSig": {"hex": "47304402201af1b5a3d5c7997f155d2f979361b0f6957531a82f980c88018bf6e98348afa0022052e473d70c09d1850e56beb756902976143497bd08b8cd325af9fb2c961476fa012102c51ded3da5ad36adefc7706e0d6b989762df04fd9bf9d191e8e5471d93b6ccb1", "asm": "304402201af1b5a3d5c7997f155d2f979361b0f6957531a82f980c88018bf6e98348afa0022052e473d70c09d1850e56beb756902976143497bd08b8cd325af9fb2c961476fa[ALL] 02c51ded3da5ad36adefc7706e0d6b989762df04fd9bf9d191e8e5471d93b6ccb1"}, "vout": 2582, "txid": "eb10fe10208663c24760683626043ade998c9e5fdc30aa24378d1c704736f02b"}, {"sequence": 4294967295, "scriptSig": {"hex": "4730440220401fd625c51afcdaf243c373846965854da6d224c83d1c073d72cc45c54fcee40220355d75d074c1af6cfbd8b073d3015b309eb4e36c9e627c42279bd024d35daa500121026e1803c5e842f45bcc135a6c33183e5c15b68750ce97ece6ef04d7cc2e6b5d7e", "asm": "30440220401fd625c51afcdaf243c373846965854da6d224c83d1c073d72cc45c54fcee40220355d75d074c1af6cfbd8b073d3015b309eb4e36c9e627c42279bd024d35daa50[ALL] 026e1803c5e842f45bcc135a6c33183e5c15b68750ce97ece6ef04d7cc2e6b5d7e"}, "vout": 1, "txid": "263f32fdd69827ce6fad09ddddcbf68c06810ccd11eaf888524d507882fb6949"}, {"sequence": 4294967295, "scriptSig": {"hex": "4830450221008733df1cbbdd61e92bf90c610ab02d6d5751e6d5b723682b4c118f0aa562a6bb02201f8a5043db4718f5ab8816a0ce61e786352b8925c0e5f135b0ae22a78ecbd6e90121032ef9809b6dcd6cfbdf1a9c7c95ed69047c7fdf5f40a03c39dcad9ded3a82b03e", "asm": "30450221008733df1cbbdd61e92bf90c610ab02d6d5751e6d5b723682b4c118f0aa562a6bb02201f8a5043db4718f5ab8816a0ce61e786352b8925c0e5f135b0ae22a78ecbd6e9[ALL] 032ef9809b6dcd6cfbdf1a9c7c95ed69047c7fdf5f40a03c39dcad9ded3a82b03e"}, "vout": 1, "txid": "6bcf982d71561b09c1ad217f1908b39949c79f48c9c659e47f86a8e06eb64682"}, {"sequence": 4294967295, "scriptSig": {"hex": "483045022100f633ab9102bba9be84879b609859bd5773717967c05c0e7d283cd05792c0a19e02205ff13d01f2577f15e707a8c21b0bd2731b719e24e3e830e440ef82f309693c44012103dd58afcdc863693772a358f3a0d1423bb09d2971d32ec6b594ace5308f2d1b76", "asm": "3045022100f633ab9102bba9be84879b609859bd5773717967c05c0e7d283cd05792c0a19e02205ff13d01f2577f15e707a8c21b0bd2731b719e24e3e830e440ef82f309693c44[ALL] 03dd58afcdc863693772a358f3a0d1423bb09d2971d32ec6b594ace5308f2d1b76"}, "vout": 8, "txid": "c7e18dccdbb715c2a21c7ff84eb6d7f7d6691d25cb785b10fe5ba191f8e921a4"}, {"sequence": 4294967295, "scriptSig": {"hex": "47304402207086f7022797a51db4ae2502d97ac02ea9c8ed287442e29b4b7755aa3e4c1d1002207a0aa8aab35bec63870055101e61bac415c50c1d08a0d38a7f97c5f8cf469c290121031dea2bc64d094d82eb506df46e668274c9e67b987f2648db518a3e8d844063cb", "asm": "304402207086f7022797a51db4ae2502d97ac02ea9c8ed287442e29b4b7755aa3e4c1d1002207a0aa8aab35bec63870055101e61bac415c50c1d08a0d38a7f97c5f8cf469c29[ALL] 031dea2bc64d094d82eb506df46e668274c9e67b987f2648db518a3e8d844063cb"}, "vout": 11, "txid": "c7e18dccdbb715c2a21c7ff84eb6d7f7d6691d25cb785b10fe5ba191f8e921a4"}, {"sequence": 4294967295, "scriptSig": {"hex": "4830450221008ff7e9c74070d3974f9a297ef1785bf7de7ff343c9521388e2946cbab4b167ea022058cdb945d80239ad06018ba57481e5dd4f0478bcb6766db7d675bb58f0926590012102052ec203424d57efb40f71d3389737cca20eaa1c1720a6e53c26f2619e8e1cf4", "asm": "30450221008ff7e9c74070d3974f9a297ef1785bf7de7ff343c9521388e2946cbab4b167ea022058cdb945d80239ad06018ba57481e5dd4f0478bcb6766db7d675bb58f0926590[ALL] 02052ec203424d57efb40f71d3389737cca20eaa1c1720a6e53c26f2619e8e1cf4"}, "vout": 0, "txid": "1cf6bd49597df06309ec1d3397f5edd36ede2235c6d2d8ac2eac5402550e38d0"}, {"txinwitness": ["304402202bbafebb606313f225963a3371e36fc16ac871dea52e753ae9dd48de59935d4302203ff22d25ea8afdb1e2cc3612322b67b166cdbfd681f9f1d437cb47a25bbe0dfa01", "03141c4c3afa2b0c0503650e907e8e04d19322f4021577c417f702efb9aa94d161"], "sequence": 4294967295, "scriptSig": {"hex": "1600144e9c1bfa43923cbdd1039c5de6359c1b6f3207bf", "asm": "00144e9c1bfa43923cbdd1039c5de6359c1b6f3207bf"}, "vout": 0, "txid": "d5acfa96102bf99a46f9a50c6e3569a63e35d4d253501bc9cd428a3522ecd9e9"}], "txid": "b8e7f54e66a0b8ead617b6952fc394e08770c5223a99b2fa51f93abae2301476", "blocktime": 1537872018, "version": 2, "confirmations": 11489, "time": 1537872018, "locktime": 0, "vsize": 2053, "size": 2144}