{"hash": "b8eba322c9ae7953bf17ef1a5e1ade03b09e9ed9238cb4bf6f3971c8139be393", "blockhash": "00000000000000000018f53835495a110e01622372bf6ae95dc86f2b0ab887b0", "vout": [{"scriptPubKey": {"reqSigs": 1, "hex": "76a9149f9f735014f104354aa2bcb7834c6b4bef42e11588ac", "addresses": ["1FZ1TK6AmwMM1TJUeZSCDdP4KsVmPdc7KJ"], "asm": "OP_DUP OP_HASH160 9f9f735014f104354aa2bcb7834c6b4bef42e115 OP_EQUALVERIFY OP_CHECKSIG", "type": "pubkeyhash"}, "value": 0.078105, "n": 0}, {"scriptPubKey": {"reqSigs": 1, "hex": "76a914d5ba2eb2d52670fbe9522748bf642da754eb0d6f88ac", "addresses": ["1LV5y3NkVkmdWnF6xRCEXrAnUkRgge4KSq"], "asm": "OP_DUP OP_HASH160 d5ba2eb2d52670fbe9522748bf642da754eb0d6f OP_EQUALVERIFY OP_CHECKSIG", "type": "pubkeyhash"}, "value": 29.51370281, "n": 1}], "hex": "01000000011e3f528c0139dac859d430d9213819659b19f5333baaa57bdd7655bca42c000b010000006a4730440220360a328b8eb723aba29499670c48da9138fd5b11a7a2398eed9a6475a08a7bb80220031003278befcd2af0126d7f30ca9345cb7d0619956c593f6a72fef13bad40f7012102c19ebc0e7fe714e24c55adaeebc7dbab2dc9a208b511bd1b6e83db85506d4d19ffffffff02c42d7700000000001976a9149f9f735014f104354aa2bcb7834c6b4bef42e11588ac2956eaaf000000001976a914d5ba2eb2d52670fbe9522748bf642da754eb0d6f88ac00000000", "vin": [{"sequence": 4294967295, "scriptSig": {"hex": "4730440220360a328b8eb723aba29499670c48da9138fd5b11a7a2398eed9a6475a08a7bb80220031003278befcd2af0126d7f30ca9345cb7d0619956c593f6a72fef13bad40f7012102c19ebc0e7fe714e24c55adaeebc7dbab2dc9a208b511bd1b6e83db85506d4d19", "asm": "30440220360a328b8eb723aba29499670c48da9138fd5b11a7a2398eed9a6475a08a7bb80220031003278befcd2af0126d7f30ca9345cb7d0619956c593f6a72fef13bad40f7[ALL] 02c19ebc0e7fe714e24c55adaeebc7dbab2dc9a208b511bd1b6e83db85506d4d19"}, "vout": 1, "txid": "0b002ca4bc5576dd7ba5aa3b33f5199b65193821d930d459c8da39018c523f1e"}], "txid": "b8eba322c9ae7953bf17ef1a5e1ade03b09e9ed9238cb4bf6f3971c8139be393", "blocktime": 1537870928, "version": 1, "confirmations": 11512, "time": 1537870928, "locktime": 0, "vsize": 225, "size": 225}