{"hash": "b8ec822804cf75256aecba1f6da56cbb7b2957df90cb179aecb0a7e89ff17df4", "blockhash": "0000000000000000000e13cef7c366c0283d82e591d1acd082e914b08063cdf1", "vout": [{"scriptPubKey": {"reqSigs": 1, "hex": "76a914a7a39f3511abd040d71d4220a76c4e66bef8493588ac", "addresses": ["1GHPrgioyDZZkW8qJRzepThTrxJXi6DubA"], "asm": "OP_DUP OP_HASH160 a7a39f3511abd040d71d4220a76c4e66bef84935 OP_EQUALVERIFY OP_CHECKSIG", "type": "pubkeyhash"}, "value": 0.0064582, "n": 0}, {"scriptPubKey": {"type": "nulldata", "hex": "6a4c500000779c000114a898f23fe1bc665f662dbfe3ef3236678a625097bcbefa6b8351586b4eba21a813ee8def98f42073a9709d8c795baa0d99061567b421566cf61d100759d4ba30d2c37bb011d97e02cf", "asm": "OP_RETURN 0000779c000114a898f23fe1bc665f662dbfe3ef3236678a625097bcbefa6b8351586b4eba21a813ee8def98f42073a9709d8c795baa0d99061567b421566cf61d100759d4ba30d2c37bb011d97e02cf"}, "value": 0.0, "n": 1}], "hex": "0100000001a77851a996cbabd9bedca2a299d98dcd3df7a8ad0594186da89ad248fc030eb5000000006a47304402202575c9f6db24287729ec734a937891c2b2bb3b64c3a21da9e77aad436890ffc60220721bfdc25c4660bbdd318947c0046fa4c75d97b42e8be650f85a158b5078b3120121034760c7b207ba74b2f63c9c459adf565d53a6452b50593a0dc0f759efeadddb22ffffffff02bcda0900000000001976a914a7a39f3511abd040d71d4220a76c4e66bef8493588ac0000000000000000536a4c500000779c000114a898f23fe1bc665f662dbfe3ef3236678a625097bcbefa6b8351586b4eba21a813ee8def98f42073a9709d8c795baa0d99061567b421566cf61d100759d4ba30d2c37bb011d97e02cf00000000", "vin": [{"sequence": 4294967295, "scriptSig": {"hex": "47304402202575c9f6db24287729ec734a937891c2b2bb3b64c3a21da9e77aad436890ffc60220721bfdc25c4660bbdd318947c0046fa4c75d97b42e8be650f85a158b5078b3120121034760c7b207ba74b2f63c9c459adf565d53a6452b50593a0dc0f759efeadddb22", "asm": "304402202575c9f6db24287729ec734a937891c2b2bb3b64c3a21da9e77aad436890ffc60220721bfdc25c4660bbdd318947c0046fa4c75d97b42e8be650f85a158b5078b312[ALL] 034760c7b207ba74b2f63c9c459adf565d53a6452b50593a0dc0f759efeadddb22"}, "vout": 0, "txid": "b50e03fc48d29aa86d189405ada8f73dcd8dd999a2a2dcbed9abcb96a95178a7"}], "txid": "b8ec822804cf75256aecba1f6da56cbb7b2957df90cb179aecb0a7e89ff17df4", "blocktime": 1537871767, "version": 1, "confirmations": 11495, "time": 1537871767, "locktime": 0, "vsize": 283, "size": 283}