{"hash": "b8efb20e113b5b5d413cf370009680c7ed2568a269c280ac09516f5c23ce5d1c", "blockhash": "00000000000000000017f5eb5941039fbcee6240d03bc1f2f8e35350df66a1d8", "vout": [{"scriptPubKey": {"reqSigs": 1, "hex": "76a9148e594aa8b9b5b1f491999e93c131aaf61c2793e188ac", "addresses": ["1DyfvLEbKdWtD65fk2Gw6PkDkkB6LeYvDF"], "asm": "OP_DUP OP_HASH160 8e594aa8b9b5b1f491999e93c131aaf61c2793e1 OP_EQUALVERIFY OP_CHECKSIG", "type": "pubkeyhash"}, "value": 4.322e-05, "n": 0}, {"scriptPubKey": {"reqSigs": 1, "hex": "76a914932a831029233f8b7af2978ec3b50709ee1417b288ac", "addresses": ["1ER9Fyy9NTc95j3SfUeQbmFqPVDLkr6osG"], "asm": "OP_DUP OP_HASH160 932a831029233f8b7af2978ec3b50709ee1417b2 OP_EQUALVERIFY OP_CHECKSIG", "type": "pubkeyhash"}, "value": 5e-05, "n": 1}], "hex": "010000000139999630a462dc1154512463aeb51e775b833377e899c63e1ebf5a8974f42b3e060000006b483045022100c7284e5e38e51212dbc9d4503156a4c3598d1b281f4d0c7d6f7c4a98a02d61ee0220381595f4ae1603f026af0fd33d22bd0238210044629325313f0b210b99b636e10121038f7c6d1547b1a896bc8d57db73b7ce75fbb277f64b47436ecc9e73a60c96740fffffffff02e2100000000000001976a9148e594aa8b9b5b1f491999e93c131aaf61c2793e188ac88130000000000001976a914932a831029233f8b7af2978ec3b50709ee1417b288ac00000000", "vin": [{"sequence": 4294967295, "scriptSig": {"hex": "483045022100c7284e5e38e51212dbc9d4503156a4c3598d1b281f4d0c7d6f7c4a98a02d61ee0220381595f4ae1603f026af0fd33d22bd0238210044629325313f0b210b99b636e10121038f7c6d1547b1a896bc8d57db73b7ce75fbb277f64b47436ecc9e73a60c96740f", "asm": "3045022100c7284e5e38e51212dbc9d4503156a4c3598d1b281f4d0c7d6f7c4a98a02d61ee0220381595f4ae1603f026af0fd33d22bd0238210044629325313f0b210b99b636e1[ALL] 038f7c6d1547b1a896bc8d57db73b7ce75fbb277f64b47436ecc9e73a60c96740f"}, "vout": 6, "txid": "3e2bf474895abf1e3ec699e87733835b771eb5ae6324515411dc62a430969939"}], "txid": "b8efb20e113b5b5d413cf370009680c7ed2568a269c280ac09516f5c23ce5d1c", "blocktime": 1537874412, "version": 1, "confirmations": 11468, "time": 1537874412, "locktime": 0, "vsize": 226, "size": 226}