{"hash": "b8ef7e16c6d69b07a703d01b315f9390714d039ef1df6fd235bae434f48ab5e1", "blockhash": "0000000000000000000baef3f32e3676a92c3b2e5da21b426e4f302fc371ce76", "vout": [{"scriptPubKey": {"reqSigs": 1, "hex": "76a914f115d66b7aec40f33ff67f38ddcc57975dca0f2c88ac", "addresses": ["1Nyk1XtizPVo9S4622fSLk8Xtf9yhKPDBu"], "asm": "OP_DUP OP_HASH160 f115d66b7aec40f33ff67f38ddcc57975dca0f2c OP_EQUALVERIFY OP_CHECKSIG", "type": "pubkeyhash"}, "value": 0.00723323, "n": 0}, {"scriptPubKey": {"reqSigs": 1, "hex": "a9148e6760149b29e662de66df9ad8a7a0bb6f8804e587", "addresses": ["3EfyiRgoBAyTCxj9fMmRs3U8YxjkY66sBU"], "asm": "OP_HASH160 8e6760149b29e662de66df9ad8a7a0bb6f8804e5 OP_EQUAL", "type": "scripthash"}, "value": 0.00765648, "n": 1}], "hex": "010000000151cb8a7c450d4f290a5cdec09c92ae33ca01af47b56e4942153f441c3529b1b8010000006a4730440220169c29f0ec4ae839e505669365d66aa184b42254b8dff40992d99c01513f22eb022007b1fdf759625e79fa1177da878e20234c5104494b18029eb7db06562b0ec78d012103526925c7000e65bb4cbfc151ee424c9cdb21a261570b3efac182fe0390f6ffbaffffffff027b090b00000000001976a914f115d66b7aec40f33ff67f38ddcc57975dca0f2c88acd0ae0b000000000017a9148e6760149b29e662de66df9ad8a7a0bb6f8804e58700000000", "vin": [{"sequence": 4294967295, "scriptSig": {"hex": "4730440220169c29f0ec4ae839e505669365d66aa184b42254b8dff40992d99c01513f22eb022007b1fdf759625e79fa1177da878e20234c5104494b18029eb7db06562b0ec78d012103526925c7000e65bb4cbfc151ee424c9cdb21a261570b3efac182fe0390f6ffba", "asm": "30440220169c29f0ec4ae839e505669365d66aa184b42254b8dff40992d99c01513f22eb022007b1fdf759625e79fa1177da878e20234c5104494b18029eb7db06562b0ec78d[ALL] 03526925c7000e65bb4cbfc151ee424c9cdb21a261570b3efac182fe0390f6ffba"}, "vout": 1, "txid": "b8b129351c443f1542496eb547af01ca33ae929cc0de5c0a294f0d457c8acb51"}], "txid": "b8ef7e16c6d69b07a703d01b315f9390714d039ef1df6fd235bae434f48ab5e1", "blocktime": 1537876114, "version": 1, "confirmations": 11460, "time": 1537876114, "locktime": 0, "vsize": 223, "size": 223}