{"hash": "49e80d4eb781729ef62b735f5a211dd5e84afc0391706b749ac60229fb08a5b4", "blockhash": "00000000000000000017f5eb5941039fbcee6240d03bc1f2f8e35350df66a1d8", "vout": [{"scriptPubKey": {"reqSigs": 1, "hex": "a91469f3741f799ebab40aaeadb5caf124db3eb6a38687", "addresses": ["3BMEX91pGLUTyT344GStEzhbwkdzbFRdaS"], "asm": "OP_HASH160 69f3741f799ebab40aaeadb5caf124db3eb6a386 OP_EQUAL", "type": "scripthash"}, "value": 1.97346715, "n": 0}], "hex": "01000000000101a497e455bd5789285e09c9c90d75b0fc6f52776d492f5428bf33a95333b2b548010000001716001461e0a30bdd603c2767b190210cf169cd1b2c5505ffffffff019b45c30b0000000017a91469f3741f799ebab40aaeadb5caf124db3eb6a38687024830450221008722ad3abf4573557e058f30c484308e29934f41c9489ea84deaa5a75bf3e185022040d87fca159f045edaf559788ac2dd4f53e15931da5a559ba3988cf8a45042500121027556382ecba020920bff2c5e13d742ca660c2f0f80c75948d697aa9f9528180c00000000", "vin": [{"txinwitness": ["30450221008722ad3abf4573557e058f30c484308e29934f41c9489ea84deaa5a75bf3e185022040d87fca159f045edaf559788ac2dd4f53e15931da5a559ba3988cf8a450425001", "027556382ecba020920bff2c5e13d742ca660c2f0f80c75948d697aa9f9528180c"], "sequence": 4294967295, "scriptSig": {"hex": "16001461e0a30bdd603c2767b190210cf169cd1b2c5505", "asm": "001461e0a30bdd603c2767b190210cf169cd1b2c5505"}, "vout": 1, "txid": "48b5b23353a933bf28542f496d77526ffcb0750dc9c9095e288957bd55e497a4"}], "txid": "b8f14a74f27087e885224b2a9da5504f908d903c1e715daecba4a6950a399a3d", "blocktime": 1537874412, "version": 1, "confirmations": 11468, "time": 1537874412, "locktime": 0, "vsize": 134, "size": 216}