{"hash": "dd309352e872a471eaf0abcbec9b207711dca2b242d7adbcc79c0edf12fe2277", "blockhash": "00000000000000000017f5eb5941039fbcee6240d03bc1f2f8e35350df66a1d8", "vout": [{"scriptPubKey": {"reqSigs": 1, "hex": "a9142f08acff26d06f4c3366ecd721dcc772641dc4b887", "addresses": ["35yi5MzVFnPVLa1m8U8DQJD2is4efosmRY"], "asm": "OP_HASH160 2f08acff26d06f4c3366ecd721dcc772641dc4b8 OP_EQUAL", "type": "scripthash"}, "value": 0.01084119, "n": 0}, {"scriptPubKey": {"reqSigs": 1, "hex": "a9148fac661137636004867ee4e99f393c114d3e422b87", "addresses": ["3Enh5StbtRNbDay3asRLh2oSjgYBv7Nzaz"], "asm": "OP_HASH160 8fac661137636004867ee4e99f393c114d3e422b OP_EQUAL", "type": "scripthash"}, "value": 0.06, "n": 1}], "hex": "02000000000103320621c146de1c40d06339bbe9a569b3376d56a461c38241fed5c3afc057dd35000000001716001468ecaeb56f50e7fa4685cf4bb42a6d2f37c85f74feffffff3482de9931381b30a1e53ad5f611b6fb181b1fb9d08ed27207018f9de41efa3701000000171600142307707c9717e6ce1a215f0160ecaa2364851497feffffff377472964dfe26f1b72cb2f0513de30439ae4b7122fc83e3097858a47da6b11d01000000171600142ba55268ca7cc2820c8852aa7e450e56a425d644feffffff02d78a10000000000017a9142f08acff26d06f4c3366ecd721dcc772641dc4b887808d5b000000000017a9148fac661137636004867ee4e99f393c114d3e422b87024730440220630181df766bc18da8ab3c9e2fe8ebe664670e0568c07210dbeb0ec280586729022042897767e33da2445abae1d9de40daf23e39128aae109cc655313702902919c3012102681a1d9555e5675b7a103281f310e72baadb0a8e7545b408dc61ca04b2b2edf902473044022059080adca650e4a0a0747780a3960f3d192676a094131521888c3800634c0bed0220767e0b487cd2b153bae6402f755b7ae3ef0dcecfaf0a86251c96f515d25638ed012102e44b9c811481529d05e1b9762d5e43e9cc9a2c6904ba1bf2c8a1cacfa8cba5f80247304402206f4101de306d346f07b66b4126578325998d4412547bf39f54b6e6438acc1aee022069cc76bb3cfe8c86e75469192d79c657481326f10d5dcf1b89e748d3a1ba859301210374f292841fa08ba85a9f625120a6ef0133c470c60e6fe5d835f807e01ab8010c15490800", "vin": [{"txinwitness": ["30440220630181df766bc18da8ab3c9e2fe8ebe664670e0568c07210dbeb0ec280586729022042897767e33da2445abae1d9de40daf23e39128aae109cc655313702902919c301", "02681a1d9555e5675b7a103281f310e72baadb0a8e7545b408dc61ca04b2b2edf9"], "sequence": 4294967294, "scriptSig": {"hex": "16001468ecaeb56f50e7fa4685cf4bb42a6d2f37c85f74", "asm": "001468ecaeb56f50e7fa4685cf4bb42a6d2f37c85f74"}, "vout": 0, "txid": "35dd57c0afc3d5fe4182c361a4566d37b369a5e9bb3963d0401cde46c1210632"}, {"txinwitness": ["3044022059080adca650e4a0a0747780a3960f3d192676a094131521888c3800634c0bed0220767e0b487cd2b153bae6402f755b7ae3ef0dcecfaf0a86251c96f515d25638ed01", "02e44b9c811481529d05e1b9762d5e43e9cc9a2c6904ba1bf2c8a1cacfa8cba5f8"], "sequence": 4294967294, "scriptSig": {"hex": "1600142307707c9717e6ce1a215f0160ecaa2364851497", "asm": "00142307707c9717e6ce1a215f0160ecaa2364851497"}, "vout": 1, "txid": "37fa1ee49d8f010772d28ed0b91f1b18fbb611f6d53ae5a1301b383199de8234"}, {"txinwitness": ["304402206f4101de306d346f07b66b4126578325998d4412547bf39f54b6e6438acc1aee022069cc76bb3cfe8c86e75469192d79c657481326f10d5dcf1b89e748d3a1ba859301", "0374f292841fa08ba85a9f625120a6ef0133c470c60e6fe5d835f807e01ab8010c"], "sequence": 4294967294, "scriptSig": {"hex": "1600142ba55268ca7cc2820c8852aa7e450e56a425d644", "asm": "00142ba55268ca7cc2820c8852aa7e450e56a425d644"}, "vout": 1, "txid": "1db1a67da4587809e383fc22714bae3904e33d51f0b22cb7f126fe4d96727437"}], "txid": "b8f3b949a238a7978ab75b4100220e438229800fddbb6db8327e68e7806bcd12", "blocktime": 1537874412, "version": 2, "confirmations": 11468, "time": 1537874412, "locktime": 542997, "vsize": 347, "size": 589}