{"hash": "9a5ab6d470199877916c231ecdca87ed905526b6c47f51d8434235dec56073fa", "blockhash": "00000000000000000017f5eb5941039fbcee6240d03bc1f2f8e35350df66a1d8", "vout": [{"scriptPubKey": {"reqSigs": 1, "hex": "76a9143c25b0a7368682cc02df4a582bc1bd1c98497da888ac", "addresses": ["16V2hG7Mp1qbaUxHRxu7A6oBGup8n2cEBf"], "asm": "OP_DUP OP_HASH160 3c25b0a7368682cc02df4a582bc1bd1c98497da8 OP_EQUALVERIFY OP_CHECKSIG", "type": "pubkeyhash"}, "value": 0.21095423, "n": 0}, {"scriptPubKey": {"reqSigs": 1, "hex": "a9149849f992f35e408eee03eae4a0e9fa13b274d8a587", "addresses": ["3FaFFZu8J9W5C9WL3GnemuYrFJFmpQ8Y4W"], "asm": "OP_HASH160 9849f992f35e408eee03eae4a0e9fa13b274d8a5 OP_EQUAL", "type": "scripthash"}, "value": 59.57910589, "n": 1}], "hex": "02000000000101b764a6b59ac769285aeeaf2f1f229f862c170e5ad52b871ab4e0b406e742410f000000001716001413700904ed20a3ca4864da072dad980803a0d957feffffff02ffe34101000000001976a9143c25b0a7368682cc02df4a582bc1bd1c98497da888ac3d801e630100000017a9149849f992f35e408eee03eae4a0e9fa13b274d8a58702473044022012bb7c0e23ba62a3cd3c6db85aab38fee0119c44ef26cada09317bd11466b4a50220307d8374722de84d109f34507825018ae16de04cd2d3f08918f7083dd24868310121022631fd08f7b45145c0f95b0157110cc4ac1167c4ecae1c1f754ee3001362fc6515490800", "vin": [{"txinwitness": ["3044022012bb7c0e23ba62a3cd3c6db85aab38fee0119c44ef26cada09317bd11466b4a50220307d8374722de84d109f34507825018ae16de04cd2d3f08918f7083dd248683101", "022631fd08f7b45145c0f95b0157110cc4ac1167c4ecae1c1f754ee3001362fc65"], "sequence": 4294967294, "scriptSig": {"hex": "16001413700904ed20a3ca4864da072dad980803a0d957", "asm": "001413700904ed20a3ca4864da072dad980803a0d957"}, "vout": 0, "txid": "0f4142e706b4e0b41a872bd55a0e172c869f221f2fafee5a2869c79ab5a664b7"}], "txid": "b8f910036c8315f4f755fc41789448247f4d38d6916aad62ba1eb88e7896462d", "blocktime": 1537874412, "version": 2, "confirmations": 11468, "time": 1537874412, "locktime": 542997, "vsize": 168, "size": 249}