{"hash": "b90695ec51e67eda9f8f6d6ce0db174b089643e99346afeb720ffa1d07107536", "blockhash": "0000000000000000001f76057863aec43deb6fa401d9628bb513d65a8098bfab", "vout": [{"scriptPubKey": {"reqSigs": 1, "hex": "76a91448e276e42fb3ea5374d92f6507b3f5c76a73fc3488ac", "addresses": ["17eNwqTd4tUFXPiBKXEzsqDbKMUKu39vWS"], "asm": "OP_DUP OP_HASH160 48e276e42fb3ea5374d92f6507b3f5c76a73fc34 OP_EQUALVERIFY OP_CHECKSIG", "type": "pubkeyhash"}, "value": 0.09999427, "n": 0}, {"scriptPubKey": {"reqSigs": 1, "hex": "76a914dafbbe7175066ecca57dce7a99da0760f4d4b79988ac", "addresses": ["1LxstJ1A7nbAJ7LDxYawm5Dmq4cA2gVA5L"], "asm": "OP_DUP OP_HASH160 dafbbe7175066ecca57dce7a99da0760f4d4b799 OP_EQUALVERIFY OP_CHECKSIG", "type": "pubkeyhash"}, "value": 0.1, "n": 1}], "hex": "010000000163c3ac655e84df00bca2b1a49f0243c7a142cf625a6a73ca67f5b1d0cbb2c327010000006a47304402202bd895d6f01e37e7c011a4a6fc25c44192b724a7d985cc67ff013f1ad536a2fa02206d431641793df9e36c4ecb2abd1b6b307e388a0237bfd4795a525ba4693e9104012103ec3cccd208b99fc02597fe12272472274f9b2d5f6da64bf5115743eb8b0fe18effffffff0243949800000000001976a91448e276e42fb3ea5374d92f6507b3f5c76a73fc3488ac80969800000000001976a914dafbbe7175066ecca57dce7a99da0760f4d4b79988ac00000000", "vin": [{"sequence": 4294967295, "scriptSig": {"hex": "47304402202bd895d6f01e37e7c011a4a6fc25c44192b724a7d985cc67ff013f1ad536a2fa02206d431641793df9e36c4ecb2abd1b6b307e388a0237bfd4795a525ba4693e9104012103ec3cccd208b99fc02597fe12272472274f9b2d5f6da64bf5115743eb8b0fe18e", "asm": "304402202bd895d6f01e37e7c011a4a6fc25c44192b724a7d985cc67ff013f1ad536a2fa02206d431641793df9e36c4ecb2abd1b6b307e388a0237bfd4795a525ba4693e9104[ALL] 03ec3cccd208b99fc02597fe12272472274f9b2d5f6da64bf5115743eb8b0fe18e"}, "vout": 1, "txid": "27c3b2cbd0b1f567ca736a5a62cf42a1c743029fa4b1a2bc00df845e65acc363"}], "txid": "b90695ec51e67eda9f8f6d6ce0db174b089643e99346afeb720ffa1d07107536", "blocktime": 1537873891, "version": 1, "confirmations": 11478, "time": 1537873891, "locktime": 0, "vsize": 225, "size": 225}