{"hash": "a69bdf111956cd9bfe7ef1be806eba2efce98238e4ed82a92052752a47f2d399", "blockhash": "00000000000000000024a2167bbff67b0be802c0b01cdd79e6331c2be6459f87", "vout": [{"scriptPubKey": {"reqSigs": 1, "hex": "a91485e6173b21b7fb8a12e1e49dc92088a1ba0d435187", "addresses": ["3Du1S3REmPvDhAaBXW7gFpzgiww1J1eo3x"], "asm": "OP_HASH160 85e6173b21b7fb8a12e1e49dc92088a1ba0d4351 OP_EQUAL", "type": "scripthash"}, "value": 0.00998835, "n": 0}, {"scriptPubKey": {"reqSigs": 1, "hex": "76a914eb243359270061cf8e7b8965ddd77f30c83d56f688ac", "addresses": ["1NSKALkNpWN5WGVCArStsETR1y9FXc62e1"], "asm": "OP_DUP OP_HASH160 eb243359270061cf8e7b8965ddd77f30c83d56f6 OP_EQUALVERIFY OP_CHECKSIG", "type": "pubkeyhash"}, "value": 1.41762019, "n": 1}], "hex": "020000000001045d500b81072d828b3e8679e89099ca64f4286111edd7f47f90bb2e06f9fd459c130000006a47304402201747a7adf46d204a1c627556516920a9af899944e8f0c4602a2ff2499c86114102202c2e32edd98b38600e7f762bbe46056a88050ac36e8c62e14ae5908f00bc94f9012103a0799bda9d562bc7d2cf47e400426ca587e66e9cd9e8fb6706a1d4b72ab09077fdffffffc0ffe871618f097d6ab6a25e524768eda604752123a3d4d5c350203265c051690d0100001716001402ebcfb06f85ebfe8e4164525bdb4bd30f928716fdffffffc9d46255388440b29821aa142fbe25a8f40f206ea12db51f50dab2dfa4b7a11304000000171600144df5b3d537d9fece6a3edc3a8f566db560f66555fdfffffffd7f18ed5ef687d8f98e1606be9ee9fa00dd55e7e522560c94980256accd0ad500000000171600146a7c043a6bc6a87feaf82bf3389c57222920ccbbfdffffff02b33d0f000000000017a91485e6173b21b7fb8a12e1e49dc92088a1ba0d435187e31d7308000000001976a914eb243359270061cf8e7b8965ddd77f30c83d56f688ac0002483045022100926e74b8921b111de3d1554d402d256f332f71b332ce02bfba8fd450460a4d2602204bce1f43ab938d9f153bb2f147aa189c6bd75f3570f3ae7458729c7a426a040a0121029a347f1b9dd1d0c3488c788679a0707744fc2c504090d39f56fccf20de40280302483045022100a8b6b6a6c3c439d46a2390a70ebdb60d778acd4ea88f30d0a28fd32d798eb7640220340373a1b00f41b2e6628dc580ff7b71b3817b1d7ff828517d60bbc86c9c80cf0121030bd151e3e0423bd7cf4f6e644d781cbf036a49ba8a5ba6536bf6254c5c95be7b02483045022100a3138b9eb4c2fb7ddd26b06298c187f12f849216894074975aa9b50046d1ea380220630d2f383ed86710b2a7dda380f2c223f0f6499e4bf3dcb12f8ff6f65ea38d29012102e4f5148f6b13e9eed9fc233860e2f5cd2c9cb91300a175f2e70e88d3b640699800000000", "vin": [{"sequence": 4294967293, "scriptSig": {"hex": "47304402201747a7adf46d204a1c627556516920a9af899944e8f0c4602a2ff2499c86114102202c2e32edd98b38600e7f762bbe46056a88050ac36e8c62e14ae5908f00bc94f9012103a0799bda9d562bc7d2cf47e400426ca587e66e9cd9e8fb6706a1d4b72ab09077", "asm": "304402201747a7adf46d204a1c627556516920a9af899944e8f0c4602a2ff2499c86114102202c2e32edd98b38600e7f762bbe46056a88050ac36e8c62e14ae5908f00bc94f9[ALL] 03a0799bda9d562bc7d2cf47e400426ca587e66e9cd9e8fb6706a1d4b72ab09077"}, "vout": 19, "txid": "9c45fdf9062ebb907ff4d7ed116128f464ca9990e879863e8b822d07810b505d"}, {"txinwitness": ["3045022100926e74b8921b111de3d1554d402d256f332f71b332ce02bfba8fd450460a4d2602204bce1f43ab938d9f153bb2f147aa189c6bd75f3570f3ae7458729c7a426a040a01", "029a347f1b9dd1d0c3488c788679a0707744fc2c504090d39f56fccf20de402803"], "sequence": 4294967293, "scriptSig": {"hex": "16001402ebcfb06f85ebfe8e4164525bdb4bd30f928716", "asm": "001402ebcfb06f85ebfe8e4164525bdb4bd30f928716"}, "vout": 269, "txid": "6951c065322050c3d5d4a323217504a6ed6847525ea2b66a7d098f6171e8ffc0"}, {"txinwitness": ["3045022100a8b6b6a6c3c439d46a2390a70ebdb60d778acd4ea88f30d0a28fd32d798eb7640220340373a1b00f41b2e6628dc580ff7b71b3817b1d7ff828517d60bbc86c9c80cf01", "030bd151e3e0423bd7cf4f6e644d781cbf036a49ba8a5ba6536bf6254c5c95be7b"], "sequence": 4294967293, "scriptSig": {"hex": "1600144df5b3d537d9fece6a3edc3a8f566db560f66555", "asm": "00144df5b3d537d9fece6a3edc3a8f566db560f66555"}, "vout": 4, "txid": "13a1b7a4dfb2da501fb52da16e200ff4a825be2f14aa2198b24084385562d4c9"}, {"txinwitness": ["3045022100a3138b9eb4c2fb7ddd26b06298c187f12f849216894074975aa9b50046d1ea380220630d2f383ed86710b2a7dda380f2c223f0f6499e4bf3dcb12f8ff6f65ea38d2901", "02e4f5148f6b13e9eed9fc233860e2f5cd2c9cb91300a175f2e70e88d3b6406998"], "sequence": 4294967293, "scriptSig": {"hex": "1600146a7c043a6bc6a87feaf82bf3389c57222920ccbb", "asm": "00146a7c043a6bc6a87feaf82bf3389c57222920ccbb"}, "vout": 0, "txid": "d50acdac560298940c5622e5e755dd00fae99ebe06168ef9d887f65eed187ffd"}], "txid": "b909f6ad23766d4d91f1373975ca6fc2a37e15513a2c4dda3a961feac3e2c2e7", "blocktime": 1537870564, "version": 2, "confirmations": 11515, "time": 1537870564, "locktime": 0, "vsize": 497, "size": 742}