{"hash": "b90972970edb2e4dcbaa70c748155a5b8334166b43a0738930a8be37517483f1", "blockhash": "00000000000000000004ffacab907a6b429b9a5745fa0b75af4234bf69dd7176", "vout": [{"scriptPubKey": {"reqSigs": 1, "hex": "76a914e5b9a2213934bd3f3a5587b1aaddc9fca69e804e88ac", "addresses": ["1Mwg7xanZMHBQRpyozRMiUuvdpAyZQNhKm"], "asm": "OP_DUP OP_HASH160 e5b9a2213934bd3f3a5587b1aaddc9fca69e804e OP_EQUALVERIFY OP_CHECKSIG", "type": "pubkeyhash"}, "value": 1.36, "n": 0}, {"scriptPubKey": {"reqSigs": 1, "hex": "76a914fa1d35ea8b5f942ae179b5020c842d2645d56b9788ac", "addresses": ["1PoUvYh1epMyNG49EbkeC89fXC5tbkgmEu"], "asm": "OP_DUP OP_HASH160 fa1d35ea8b5f942ae179b5020c842d2645d56b97 OP_EQUALVERIFY OP_CHECKSIG", "type": "pubkeyhash"}, "value": 1.13344, "n": 1}], "hex": "0100000003d2e3bc11d86c080beead9845188b8077ce0928863b5493a77532cf514cea70f6010000006b483045022100d17b76430e95c62408fcf2b251c4aa452d17ddc67f2f5d0cb6dc20e59974a41202205f3f1509c3bca3acc34ccadac16f1e9630b0beaf6d99fdfe2c54ce0a09c3f5f6012102a59669629eb5c686c49d15198dc433ec0a0c7d163073135fdb08233a1f743adbfffffffff7f12ae84c060f4d532c173d776ca70f2ac9e6eb4b803b1912879ed0eee87853000000006b483045022100d7ab7519695ca7b6ab3ce850a6518eefbde6442384f8a97c24a2897977c9989402203086645315db0e8d24f8ca0ce0c61d09f655c7c99a32831d8ca3d861052caffe012103ea03403f5ed9039fb56bb4c40833b8681ffcc2491fe0c82f9e92295c78da4cdaffffffff356e282b7cad4b41f6cbd4aac338182373f3cc7e0ca58baf63f8f4ce3eb22e12000000006b483045022100a4e753bec8de820ca93dee50821dce0424ba74960e31694c457ac540b3c48810022058ca5a28d4f0cb6f0027f358e016010080282b0917b1df1c0167fd9b1b5c4b3301210353d24c4b40c19e273baff2ea9f0d87fdf38f764dae769fd9d097e6b9bb83f328ffffffff0200321b08000000001976a914e5b9a2213934bd3f3a5587b1aaddc9fca69e804e88ac007ec106000000001976a914fa1d35ea8b5f942ae179b5020c842d2645d56b9788ac00000000", "vin": [{"sequence": 4294967295, "scriptSig": {"hex": "483045022100d17b76430e95c62408fcf2b251c4aa452d17ddc67f2f5d0cb6dc20e59974a41202205f3f1509c3bca3acc34ccadac16f1e9630b0beaf6d99fdfe2c54ce0a09c3f5f6012102a59669629eb5c686c49d15198dc433ec0a0c7d163073135fdb08233a1f743adb", "asm": "3045022100d17b76430e95c62408fcf2b251c4aa452d17ddc67f2f5d0cb6dc20e59974a41202205f3f1509c3bca3acc34ccadac16f1e9630b0beaf6d99fdfe2c54ce0a09c3f5f6[ALL] 02a59669629eb5c686c49d15198dc433ec0a0c7d163073135fdb08233a1f743adb"}, "vout": 1, "txid": "f670ea4c51cf3275a793543b862809ce77808b184598adee0b086cd811bce3d2"}, {"sequence": 4294967295, "scriptSig": {"hex": "483045022100d7ab7519695ca7b6ab3ce850a6518eefbde6442384f8a97c24a2897977c9989402203086645315db0e8d24f8ca0ce0c61d09f655c7c99a32831d8ca3d861052caffe012103ea03403f5ed9039fb56bb4c40833b8681ffcc2491fe0c82f9e92295c78da4cda", "asm": "3045022100d7ab7519695ca7b6ab3ce850a6518eefbde6442384f8a97c24a2897977c9989402203086645315db0e8d24f8ca0ce0c61d09f655c7c99a32831d8ca3d861052caffe[ALL] 03ea03403f5ed9039fb56bb4c40833b8681ffcc2491fe0c82f9e92295c78da4cda"}, "vout": 0, "txid": "5378e8eed09e8712193b804bebe6c92a0fa76c773d172c534d0f064ce82af1f7"}, {"sequence": 4294967295, "scriptSig": {"hex": "483045022100a4e753bec8de820ca93dee50821dce0424ba74960e31694c457ac540b3c48810022058ca5a28d4f0cb6f0027f358e016010080282b0917b1df1c0167fd9b1b5c4b3301210353d24c4b40c19e273baff2ea9f0d87fdf38f764dae769fd9d097e6b9bb83f328", "asm": "3045022100a4e753bec8de820ca93dee50821dce0424ba74960e31694c457ac540b3c48810022058ca5a28d4f0cb6f0027f358e016010080282b0917b1df1c0167fd9b1b5c4b33[ALL] 0353d24c4b40c19e273baff2ea9f0d87fdf38f764dae769fd9d097e6b9bb83f328"}, "vout": 0, "txid": "122eb23ecef4f863af8ba50c7eccf373231838c3aad4cbf6414bad7c2b286e35"}], "txid": "b90972970edb2e4dcbaa70c748155a5b8334166b43a0738930a8be37517483f1", "blocktime": 1537875543, "version": 1, "confirmations": 11464, "time": 1537875543, "locktime": 0, "vsize": 522, "size": 522}