{"hash": "060a0d61579faded61cb2e32383388a14ae5dbf39dfde441abd22e679456ab34", "blockhash": "0000000000000000001cda96e906b7601b7a6fb1a3b62bca570a9e5d8f4b3de1", "vout": [{"scriptPubKey": {"reqSigs": 1, "hex": "76a914e9a70725f49b19f312f10821bb56cfd2e838656f88ac", "addresses": ["1NJSY1163S8YptLCWP34fkWvc7AqkJDEP9"], "asm": "OP_DUP OP_HASH160 e9a70725f49b19f312f10821bb56cfd2e838656f OP_EQUALVERIFY OP_CHECKSIG", "type": "pubkeyhash"}, "value": 0.0041806, "n": 0}, {"scriptPubKey": {"reqSigs": 1, "hex": "a914bfab82eded7456abe8d246ff94f0f32c4a2bb04987", "addresses": ["3KAUT1NwWURDshSCRKmFK9AEn9wGpo231q"], "asm": "OP_HASH160 bfab82eded7456abe8d246ff94f0f32c4a2bb049 OP_EQUAL", "type": "scripthash"}, "value": 0.01011638, "n": 1}], "hex": "02000000000102581f7e30a2eb4182a2ed3989377151cf9643df5832287d9e3adade65335ba8e00000000017160014e75356aadf8c52072719a1a4e7c4c4e58e472c1cfeffffffb44861a642b689c931aff21b763095977269abd895efa476898febe8a8854eb50100000017160014ed2438845de83d823908f25adcd940aabbc992aefeffffff020c610600000000001976a914e9a70725f49b19f312f10821bb56cfd2e838656f88acb66f0f000000000017a914bfab82eded7456abe8d246ff94f0f32c4a2bb0498702473044022076185c19cab4a96e53a67320e92f1e2fef0d4144e0970234ab493222f9fe416902207adcbfb7183fc0c5163267ba3013ded07942d05290c878428fa769a9fdb168bf012102f44c88e6372ba1d0d6fa13a258c9c8838b0a4a913510ba3632d5bd9fe9da90c002473044022074b230e3a7e453a8bf20d1fcf1cc3fffaf5a03eb67d04402acae85ae7a0923210220093a994d34f299367a6ca0bf0ed9274cdd49b74dd8837d6b87f2304387698d510121025f4d4a77a53ee9346a6febecb6181457e42fe9a6d121ea77b47bd15e0db870d213490800", "vin": [{"txinwitness": ["3044022076185c19cab4a96e53a67320e92f1e2fef0d4144e0970234ab493222f9fe416902207adcbfb7183fc0c5163267ba3013ded07942d05290c878428fa769a9fdb168bf01", "02f44c88e6372ba1d0d6fa13a258c9c8838b0a4a913510ba3632d5bd9fe9da90c0"], "sequence": 4294967294, "scriptSig": {"hex": "160014e75356aadf8c52072719a1a4e7c4c4e58e472c1c", "asm": "0014e75356aadf8c52072719a1a4e7c4c4e58e472c1c"}, "vout": 0, "txid": "e0a85b3365deda3a9e7d283258df4396cf5171378939eda28241eba2307e1f58"}, {"txinwitness": ["3044022074b230e3a7e453a8bf20d1fcf1cc3fffaf5a03eb67d04402acae85ae7a0923210220093a994d34f299367a6ca0bf0ed9274cdd49b74dd8837d6b87f2304387698d5101", "025f4d4a77a53ee9346a6febecb6181457e42fe9a6d121ea77b47bd15e0db870d2"], "sequence": 4294967294, "scriptSig": {"hex": "160014ed2438845de83d823908f25adcd940aabbc992ae", "asm": "0014ed2438845de83d823908f25adcd940aabbc992ae"}, "vout": 1, "txid": "b54e85a8e8eb8f8976a4ef95d8ab6972979530761bf2af31c989b642a66148b4"}], "txid": "b916ccb2ca4b0f87f625ab03182d747d69f0f7184f64dcaf41ff00521ad4c739", "blocktime": 1537873282, "version": 2, "confirmations": 11484, "time": 1537873282, "locktime": 542995, "vsize": 258, "size": 420}