{"hash": "3762e256250c1445bf36f675e78bb3ef49c9d544a5b157565f7be8491417f49e", "blockhash": "00000000000000000018f53835495a110e01622372bf6ae95dc86f2b0ab887b0", "vout": [{"scriptPubKey": {"reqSigs": 1, "hex": "a91409f4af8b65aa375907a8e7eff81419f001e183d087", "addresses": ["32bf8LDdJRGFuen16hRNrhcmr2KWDxeQte"], "asm": "OP_HASH160 09f4af8b65aa375907a8e7eff81419f001e183d0 OP_EQUAL", "type": "scripthash"}, "value": 0.08727419, "n": 0}, {"scriptPubKey": {"reqSigs": 1, "hex": "a9146070fde80c8c46c5fe4f2055d5b833867dc9eb6b87", "addresses": ["3AUx9mYqtcMWng1ayFFzg7vM5FrVbrMdz9"], "asm": "OP_HASH160 6070fde80c8c46c5fe4f2055d5b833867dc9eb6b OP_EQUAL", "type": "scripthash"}, "value": 0.0116722, "n": 1}], "hex": "020000000001073f96c175e1f72dc5702b23ce122b3b759ff95dd098ba6710af3be476edf0f20e0000000017160014b86fe4dbe7339ea01aa6a3a491cd798978e8aa64feffffff7e8eaa627b8b72030f8957c3b10d5cb750d12fff3c239930ced6b54fc7d7c5dc0000000017160014ede28560b38a966a331ab6d805467506347519c8feffffffa5c95143433e1639b4bc31869281ea17ec97fdad7bb4b0dc1dca5777c9ec9efd06000000171600146cc6d5aefb72a82602c6b5371bbcf44b7f584394feffffffae9d0cac69016e24e3467a76e0e7742483f52792fad5ab62ad6860bb996259890000000017160014ede28560b38a966a331ab6d805467506347519c8feffffffea4006a10df9c39fb560397542ff4017579d38ae528ebb404ac1e58a4633718f000000001716001469789e15fc3cc76e48db82ee1201a130772045f8fefffffff5bf4e95077c1c98c5b7ff4369d7d314d0881e7627262ced14703a4296c5c57f01000000171600149c16595733d2259027e8b5b1c0325fc398bdb7c2fefffffffc334a5e80bc63b0190eeb80fc94f8948a578681b587953fa87aab175f5eeb1a01000000171600148433a3821344acca7c9f5c0178e170d2c29ae60afeffffff027b2b85000000000017a91409f4af8b65aa375907a8e7eff81419f001e183d08774cf11000000000017a9146070fde80c8c46c5fe4f2055d5b833867dc9eb6b870247304402201cf7f255f33ffad887da8063a8c48290d37c2f2ffcc140405bec9739785beff402203e4cb3e493879f80f5ff3b6e14e41e5edb18ed3bdefc84fa29189dfabfe3fcb7012102bc07f319b8c5cbccf3df47b175f464bf9938af93184638d70a0ec788703ee37a02473044022045b275d17739fe11ad402def2806cba614de697a9cf2686b7e5786c4bcc51aa0022032b5599e0dafb887c69e21ec11ce95a3aa1830d551fe2cc6254b540f374dd02c012103fbe88b920a26ba2823aea4179dcd438ebf9a1441ac91fef6b13d8cd7dd42d1c10248304502210088ba95658c4d86731cb4e25d2bea5c2297f0db79e83a665f9704dee3e374628e02200581172cfa2adc12a876528332e883eaf97a9ae23b15f8501f590b8fb11972240121030615583a645432a0a9b4273bb720cf3c2d0a523996640bcbf951ba90f17e78d402483045022100ba46999f97bc3f2d7ab8d6d283578881a820e40c4e1fe58c9c1e1180383cd40702202dd97cd0268e974a25871f1223f22697d52a4d37767e05cd2b53db887fc1a09b012103fbe88b920a26ba2823aea4179dcd438ebf9a1441ac91fef6b13d8cd7dd42d1c102473044022018c16874c55225657ec12713caa44c6e39f8f84a1924eef9d00a40c29611bbae022026ade191aa0d323cf730ccad908871a4c73b4173b04fd5d1f3f1192b217b00e30121030c424ec5ffd12452401ba2b37294f44a03b59da2c3fcd7e06ee5da59b7c852d602483045022100c99cfe05cbef600ad191a46555014cee714a8807ad6918f810e85917a36435c80220395cf06374a515c8050f99f5221ac836f79b358b8e59c77884159ae6704e395d0121033dea1829b97267ec46a7ce9c13903886221e2fa6a2cc9ee68793dbe52132ec5302473044022079b38e42ab2c610241b005ea994c4148dbd0b8cae2e34ae751452ebf068dff0c02206f70b578aa2df8ef636785f91d74c1887880f9113b10389e285e5a1ac07966d60121039b9eb970966ed6bacaf7771bb93058b0167534aabfb8e6a1897727fb7e2a3b990e490800", "vin": [{"txinwitness": ["304402201cf7f255f33ffad887da8063a8c48290d37c2f2ffcc140405bec9739785beff402203e4cb3e493879f80f5ff3b6e14e41e5edb18ed3bdefc84fa29189dfabfe3fcb701", "02bc07f319b8c5cbccf3df47b175f464bf9938af93184638d70a0ec788703ee37a"], "sequence": 4294967294, "scriptSig": {"hex": "160014b86fe4dbe7339ea01aa6a3a491cd798978e8aa64", "asm": "0014b86fe4dbe7339ea01aa6a3a491cd798978e8aa64"}, "vout": 0, "txid": "0ef2f0ed76e43baf1067ba98d05df99f753b2b12ce232b70c52df7e175c1963f"}, {"txinwitness": ["3044022045b275d17739fe11ad402def2806cba614de697a9cf2686b7e5786c4bcc51aa0022032b5599e0dafb887c69e21ec11ce95a3aa1830d551fe2cc6254b540f374dd02c01", "03fbe88b920a26ba2823aea4179dcd438ebf9a1441ac91fef6b13d8cd7dd42d1c1"], "sequence": 4294967294, "scriptSig": {"hex": "160014ede28560b38a966a331ab6d805467506347519c8", "asm": "0014ede28560b38a966a331ab6d805467506347519c8"}, "vout": 0, "txid": "dcc5d7c74fb5d6ce3099233cff2fd150b75c0db1c357890f03728b7b62aa8e7e"}, {"txinwitness": ["304502210088ba95658c4d86731cb4e25d2bea5c2297f0db79e83a665f9704dee3e374628e02200581172cfa2adc12a876528332e883eaf97a9ae23b15f8501f590b8fb119722401", "030615583a645432a0a9b4273bb720cf3c2d0a523996640bcbf951ba90f17e78d4"], "sequence": 4294967294, "scriptSig": {"hex": "1600146cc6d5aefb72a82602c6b5371bbcf44b7f584394", "asm": "00146cc6d5aefb72a82602c6b5371bbcf44b7f584394"}, "vout": 6, "txid": "fd9eecc97757ca1ddcb0b47badfd97ec17ea81928631bcb439163e434351c9a5"}, {"txinwitness": ["3045022100ba46999f97bc3f2d7ab8d6d283578881a820e40c4e1fe58c9c1e1180383cd40702202dd97cd0268e974a25871f1223f22697d52a4d37767e05cd2b53db887fc1a09b01", "03fbe88b920a26ba2823aea4179dcd438ebf9a1441ac91fef6b13d8cd7dd42d1c1"], "sequence": 4294967294, "scriptSig": {"hex": "160014ede28560b38a966a331ab6d805467506347519c8", "asm": "0014ede28560b38a966a331ab6d805467506347519c8"}, "vout": 0, "txid": "89596299bb6068ad62abd5fa9227f5832474e7e0767a46e3246e0169ac0c9dae"}, {"txinwitness": ["3044022018c16874c55225657ec12713caa44c6e39f8f84a1924eef9d00a40c29611bbae022026ade191aa0d323cf730ccad908871a4c73b4173b04fd5d1f3f1192b217b00e301", "030c424ec5ffd12452401ba2b37294f44a03b59da2c3fcd7e06ee5da59b7c852d6"], "sequence": 4294967294, "scriptSig": {"hex": "16001469789e15fc3cc76e48db82ee1201a130772045f8", "asm": "001469789e15fc3cc76e48db82ee1201a130772045f8"}, "vout": 0, "txid": "8f7133468ae5c14a40bb8e52ae389d571740ff42753960b59fc3f90da10640ea"}, {"txinwitness": ["3045022100c99cfe05cbef600ad191a46555014cee714a8807ad6918f810e85917a36435c80220395cf06374a515c8050f99f5221ac836f79b358b8e59c77884159ae6704e395d01", "033dea1829b97267ec46a7ce9c13903886221e2fa6a2cc9ee68793dbe52132ec53"], "sequence": 4294967294, "scriptSig": {"hex": "1600149c16595733d2259027e8b5b1c0325fc398bdb7c2", "asm": "00149c16595733d2259027e8b5b1c0325fc398bdb7c2"}, "vout": 1, "txid": "7fc5c596423a7014ed2c2627761e88d014d3d76943ffb7c5981c7c07954ebff5"}, {"txinwitness": ["3044022079b38e42ab2c610241b005ea994c4148dbd0b8cae2e34ae751452ebf068dff0c02206f70b578aa2df8ef636785f91d74c1887880f9113b10389e285e5a1ac07966d601", "039b9eb970966ed6bacaf7771bb93058b0167534aabfb8e6a1897727fb7e2a3b99"], "sequence": 4294967294, "scriptSig": {"hex": "1600148433a3821344acca7c9f5c0178e170d2c29ae60a", "asm": "00148433a3821344acca7c9f5c0178e170d2c29ae60a"}, "vout": 1, "txid": "1aeb5e5f17ab7aa83f9587b58186578a94f894fc80eb0e19b063bc805e4a33fc"}], "txid": "b917cf73ecbb8340a95327114a04a7803490069001b2b2f06bd6299f1ed129b6", "blocktime": 1537870928, "version": 2, "confirmations": 11514, "time": 1537870928, "locktime": 542990, "vsize": 711, "size": 1276}