{"hash": "b91a8ccbb2678490a94ac0eb5143c6ee92cb216512c5714a2e7bc428ac585d94", "blockhash": "0000000000000000000baef3f32e3676a92c3b2e5da21b426e4f302fc371ce76", "vout": [{"scriptPubKey": {"type": "nulldata", "hex": "6a4c50000078130001c4b3c78b8c1d11b070a58c7c702940d64fa54d8eb2d19ed074892d00f8e8321ad3a128750cdb18a514faaaf4b02b5baa1baf0614f847230b5c0b1d100759d4ba30d2c37bb011d97e02cf", "asm": "OP_RETURN 000078130001c4b3c78b8c1d11b070a58c7c702940d64fa54d8eb2d19ed074892d00f8e8321ad3a128750cdb18a514faaaf4b02b5baa1baf0614f847230b5c0b1d100759d4ba30d2c37bb011d97e02cf"}, "value": 0.0, "n": 0}, {"scriptPubKey": {"reqSigs": 1, "hex": "76a914d48b868a89725788ebe020c4d124460e7c3fac6488ac", "addresses": ["1LNqQ5FddJpKboNYs5XL97Gabst8d8W4uB"], "asm": "OP_DUP OP_HASH160 d48b868a89725788ebe020c4d124460e7c3fac64 OP_EQUALVERIFY OP_CHECKSIG", "type": "pubkeyhash"}, "value": 0.00630201, "n": 1}], "hex": "01000000019ba54f378b84e90e184c2bca21e2a1be262549660036e406a248171fdce326ba000000006b483045022100ba0b7870c9ebc57b8a913eaaf58c4ff51ae6c1e8367d5e11bf66877221fe90a602204c2512842d920a3a36f321a0900fc850c811d0e8c4f740d16e09bad46a4ded19012102ed4e2a9b281576688cbe083099852e8b07d3cb954f4169ed7a1f79349a7e312dffffffff020000000000000000536a4c50000078130001c4b3c78b8c1d11b070a58c7c702940d64fa54d8eb2d19ed074892d00f8e8321ad3a128750cdb18a514faaaf4b02b5baa1baf0614f847230b5c0b1d100759d4ba30d2c37bb011d97e02cfb99d0900000000001976a914d48b868a89725788ebe020c4d124460e7c3fac6488ac00000000", "vin": [{"sequence": 4294967295, "scriptSig": {"hex": "483045022100ba0b7870c9ebc57b8a913eaaf58c4ff51ae6c1e8367d5e11bf66877221fe90a602204c2512842d920a3a36f321a0900fc850c811d0e8c4f740d16e09bad46a4ded19012102ed4e2a9b281576688cbe083099852e8b07d3cb954f4169ed7a1f79349a7e312d", "asm": "3045022100ba0b7870c9ebc57b8a913eaaf58c4ff51ae6c1e8367d5e11bf66877221fe90a602204c2512842d920a3a36f321a0900fc850c811d0e8c4f740d16e09bad46a4ded19[ALL] 02ed4e2a9b281576688cbe083099852e8b07d3cb954f4169ed7a1f79349a7e312d"}, "vout": 0, "txid": "ba26e3dc1f1748a206e4360066492526bea1e221ca2b4c180ee9848b374fa59b"}], "txid": "b91a8ccbb2678490a94ac0eb5143c6ee92cb216512c5714a2e7bc428ac585d94", "blocktime": 1537876114, "version": 1, "confirmations": 11460, "time": 1537876114, "locktime": 0, "vsize": 284, "size": 284}