{"hash": "b91aa533cdeb60b71e709481551293db17a5a542730c6df8c35aebcebea8639b", "blockhash": "0000000000000000000e13cef7c366c0283d82e591d1acd082e914b08063cdf1", "vout": [{"scriptPubKey": {"reqSigs": 1, "hex": "a914d6408dfd2872dd3a4b8b791c9a837592269a69cc87", "addresses": ["3MDsrvwNJgdCz9aNJTgHLyP7U1VHqj2Kg7"], "asm": "OP_HASH160 d6408dfd2872dd3a4b8b791c9a837592269a69cc OP_EQUAL", "type": "scripthash"}, "value": 0.00048041, "n": 0}], "hex": "0100000001d225c6b969da95d787902eee6e13cdf35df1969cd72002b65e786f84fb4fff8a030000006a47304402205169e60f239ae6a6f54be3928ebea2faf16fd94716ea6d36d897dd84b2a1bd67022075cf5979ba83366d17b74ebcb2a432cb1d73d58e86aaa5d592a2fc5bacb6f710012102c767518bfcf7ff3f0e0f1ceec1107261df538c5bdd7a6c5215e8b5c6eb655d2fffffffff01a9bb00000000000017a914d6408dfd2872dd3a4b8b791c9a837592269a69cc8700000000", "vin": [{"sequence": 4294967295, "scriptSig": {"hex": "47304402205169e60f239ae6a6f54be3928ebea2faf16fd94716ea6d36d897dd84b2a1bd67022075cf5979ba83366d17b74ebcb2a432cb1d73d58e86aaa5d592a2fc5bacb6f710012102c767518bfcf7ff3f0e0f1ceec1107261df538c5bdd7a6c5215e8b5c6eb655d2f", "asm": "304402205169e60f239ae6a6f54be3928ebea2faf16fd94716ea6d36d897dd84b2a1bd67022075cf5979ba83366d17b74ebcb2a432cb1d73d58e86aaa5d592a2fc5bacb6f710[ALL] 02c767518bfcf7ff3f0e0f1ceec1107261df538c5bdd7a6c5215e8b5c6eb655d2f"}, "vout": 3, "txid": "8aff4ffb846f785eb60220d79c96f15df3cd136eee2e9087d795da69b9c625d2"}], "txid": "b91aa533cdeb60b71e709481551293db17a5a542730c6df8c35aebcebea8639b", "blocktime": 1537871767, "version": 1, "confirmations": 11491, "time": 1537871767, "locktime": 0, "vsize": 189, "size": 189}