{"hash": "b91bd5072744e971ddebfee5ff68faee19836edc7d0a6d4fd9033284c20b2ede", "blockhash": "0000000000000000001cda96e906b7601b7a6fb1a3b62bca570a9e5d8f4b3de1", "vout": [{"scriptPubKey": {"reqSigs": 1, "hex": "76a914585731c00bed5737d76f104ab58c2e9acfbd399188ac", "addresses": ["1946vFVKWWwUGakH8qZdQzg4qvMKfuXSXy"], "asm": "OP_DUP OP_HASH160 585731c00bed5737d76f104ab58c2e9acfbd3991 OP_EQUALVERIFY OP_CHECKSIG", "type": "pubkeyhash"}, "value": 0.002985, "n": 0}, {"scriptPubKey": {"reqSigs": 1, "hex": "76a914916eebba7ad2693ce8c7e3275b05965f5e36158c88ac", "addresses": ["1EFyrjGKmhHmr4A4LvVzyVHnnnsDrXZFT9"], "asm": "OP_DUP OP_HASH160 916eebba7ad2693ce8c7e3275b05965f5e36158c OP_EQUALVERIFY OP_CHECKSIG", "type": "pubkeyhash"}, "value": 0.00067394, "n": 1}], "hex": "0200000002bb85ffff86a1ffcbdabf0a1d3ca215ccd1f17c9233eeaa61a47cac88c838ebb3010000006b483045022100ba3378c6842879f57861350b02e85f6f3441d58aae9693e65c4bb3d73bb253550220725d0d3b77fa03ee8bddecbe917647a89e47fd1ada8090e281cfe3a8b95422fd012103aa47b68bf5c0d26959a6209d85765f8b20e5376478727f685027cc6cd89a73b0ffffffff5733752e8df9b98713ff13b1d8fe15f4417104e366fb238c095bcec553331e2d010000006a47304402207d577439b5db57de95b919c5f82ad04b6d3143e2e056105e83be217ac5b68aa00220671ed08b70085064dc119e69c88a8ef03f840306f58221a00c03d9f2112c6516012103fea41cfc9a66b3df162e329ec300e101a5aaf468ef3b638124e73640d9e06787ffffffff02048e0400000000001976a914585731c00bed5737d76f104ab58c2e9acfbd399188ac42070100000000001976a914916eebba7ad2693ce8c7e3275b05965f5e36158c88ac00000000", "vin": [{"sequence": 4294967295, "scriptSig": {"hex": "483045022100ba3378c6842879f57861350b02e85f6f3441d58aae9693e65c4bb3d73bb253550220725d0d3b77fa03ee8bddecbe917647a89e47fd1ada8090e281cfe3a8b95422fd012103aa47b68bf5c0d26959a6209d85765f8b20e5376478727f685027cc6cd89a73b0", "asm": "3045022100ba3378c6842879f57861350b02e85f6f3441d58aae9693e65c4bb3d73bb253550220725d0d3b77fa03ee8bddecbe917647a89e47fd1ada8090e281cfe3a8b95422fd[ALL] 03aa47b68bf5c0d26959a6209d85765f8b20e5376478727f685027cc6cd89a73b0"}, "vout": 1, "txid": "b3eb38c888ac7ca461aaee33927cf1d1cc15a23c1d0abfdacbffa186ffff85bb"}, {"sequence": 4294967295, "scriptSig": {"hex": "47304402207d577439b5db57de95b919c5f82ad04b6d3143e2e056105e83be217ac5b68aa00220671ed08b70085064dc119e69c88a8ef03f840306f58221a00c03d9f2112c6516012103fea41cfc9a66b3df162e329ec300e101a5aaf468ef3b638124e73640d9e06787", "asm": "304402207d577439b5db57de95b919c5f82ad04b6d3143e2e056105e83be217ac5b68aa00220671ed08b70085064dc119e69c88a8ef03f840306f58221a00c03d9f2112c6516[ALL] 03fea41cfc9a66b3df162e329ec300e101a5aaf468ef3b638124e73640d9e06787"}, "vout": 1, "txid": "2d1e3353c5ce5b098c23fb66e3047141f415fed8b113ff1387b9f98d2e753357"}], "txid": "b91bd5072744e971ddebfee5ff68faee19836edc7d0a6d4fd9033284c20b2ede", "blocktime": 1537873282, "version": 2, "confirmations": 11485, "time": 1537873282, "locktime": 0, "vsize": 373, "size": 373}