{"hash": "b91f8826b801502c0bd82c8fa6f4864570e31c2ed3d685a89a8b423ad4c82d29", "blockhash": "0000000000000000000dcc0f55137456b1a82d3642486a52398922ac4d620174", "vout": [{"scriptPubKey": {"reqSigs": 1, "hex": "a91425360ef52f188b910300cf785b365e1f3f301b3b87", "addresses": ["355mggoAdiyEyqw7imGgc4KnHxYgj3VWLW"], "asm": "OP_HASH160 25360ef52f188b910300cf785b365e1f3f301b3b OP_EQUAL", "type": "scripthash"}, "value": 0.0083, "n": 0}, {"scriptPubKey": {"reqSigs": 1, "hex": "76a914e519045258225f77ee54ab957190daa1f797610b88ac", "addresses": ["1MtMi8gwm6HDQvxMM7Yd6XHWcGtBeeqtY3"], "asm": "OP_DUP OP_HASH160 e519045258225f77ee54ab957190daa1f797610b OP_EQUALVERIFY OP_CHECKSIG", "type": "pubkeyhash"}, "value": 0.06068084, "n": 1}], "hex": "01000000017952d5593e731daa0ee3094c5f46111e89ebb43e9019527a77fa479a0e6a7c49010000006b483045022100b37a30361d30b7ca527d40d3555ca7662e9895003c17168168961add7130f7d3022002949c91bccaa21d3af6e8cab5404f7d0c6c0c42121730d0c351da87cb390e81012102d7d78cda3640715467953ca464e9163a0baa5a54219e3c81d7bc0a28ed9b49e0ffffffff0230aa0c000000000017a91425360ef52f188b910300cf785b365e1f3f301b3b8774975c00000000001976a914e519045258225f77ee54ab957190daa1f797610b88ac00000000", "vin": [{"sequence": 4294967295, "scriptSig": {"hex": "483045022100b37a30361d30b7ca527d40d3555ca7662e9895003c17168168961add7130f7d3022002949c91bccaa21d3af6e8cab5404f7d0c6c0c42121730d0c351da87cb390e81012102d7d78cda3640715467953ca464e9163a0baa5a54219e3c81d7bc0a28ed9b49e0", "asm": "3045022100b37a30361d30b7ca527d40d3555ca7662e9895003c17168168961add7130f7d3022002949c91bccaa21d3af6e8cab5404f7d0c6c0c42121730d0c351da87cb390e81[ALL] 02d7d78cda3640715467953ca464e9163a0baa5a54219e3c81d7bc0a28ed9b49e0"}, "vout": 1, "txid": "497c6a0e9a47fa777a5219903eb4eb891e11465f4c09e30eaa1d733e59d55279"}], "txid": "b91f8826b801502c0bd82c8fa6f4864570e31c2ed3d685a89a8b423ad4c82d29", "blocktime": 1537870268, "version": 1, "confirmations": 11516, "time": 1537870268, "locktime": 0, "vsize": 224, "size": 224}