{"hash": "b9204bab62d0126c2a199765bb09ed8b585644fc21962401abf7ec11f20e759f", "blockhash": "0000000000000000001cda96e906b7601b7a6fb1a3b62bca570a9e5d8f4b3de1", "vout": [{"scriptPubKey": {"reqSigs": 1, "hex": "76a914c9fa673b4bdf8659654ae39b05c7bea49e88506e88ac", "addresses": ["1KQxnt5TfRnQqoS4AJQXWQtgqHUSQyrzXG"], "asm": "OP_DUP OP_HASH160 c9fa673b4bdf8659654ae39b05c7bea49e88506e OP_EQUALVERIFY OP_CHECKSIG", "type": "pubkeyhash"}, "value": 0.00424961, "n": 0}, {"scriptPubKey": {"reqSigs": 1, "hex": "76a9142643782a86b8f17ac174463b35eca4ef5559e84e88ac", "addresses": ["14VKW9SiT3fsfTmyypsKm779kF7x9TEThg"], "asm": "OP_DUP OP_HASH160 2643782a86b8f17ac174463b35eca4ef5559e84e OP_EQUALVERIFY OP_CHECKSIG", "type": "pubkeyhash"}, "value": 0.41, "n": 1}], "hex": "01000000026bb62c8f2c61dd9e208c1568ca79edcf97b44d22658c6b03de47716adddccd7b000000006b48304502210092844aedd521f04d20308cc356220206fb0646d0639fa1faa0609a6218a46c2d022019f5bc1fc27769d4862d6c92ad9e603e1d209f80e541bc5fdd9f6e6842cb0702012103db9f87b3bb4419cf09739e4f3fc611f5bc7c73a85eb34de4c23e652c8473a609ffffffff41e3b07d572ac00b47ed64d6bb1afacc6ba6724a4ebd498c2687e05842d4299e010000006a473044022023ba7bcc9eb282f93a9cb371510937edef62d70b56f64eafbb6b38e44e0e24bf02200ea585b2ac0950730dd2d5309bea8d3b3576badfd27a1af52b16521658ac2bd00121035cd95f66ccc6abb0f4b63f3144161207e4f519f8463f377e19c29ff5b905981effffffff02017c0600000000001976a914c9fa673b4bdf8659654ae39b05c7bea49e88506e88ac409c7102000000001976a9142643782a86b8f17ac174463b35eca4ef5559e84e88ac00000000", "vin": [{"sequence": 4294967295, "scriptSig": {"hex": "48304502210092844aedd521f04d20308cc356220206fb0646d0639fa1faa0609a6218a46c2d022019f5bc1fc27769d4862d6c92ad9e603e1d209f80e541bc5fdd9f6e6842cb0702012103db9f87b3bb4419cf09739e4f3fc611f5bc7c73a85eb34de4c23e652c8473a609", "asm": "304502210092844aedd521f04d20308cc356220206fb0646d0639fa1faa0609a6218a46c2d022019f5bc1fc27769d4862d6c92ad9e603e1d209f80e541bc5fdd9f6e6842cb0702[ALL] 03db9f87b3bb4419cf09739e4f3fc611f5bc7c73a85eb34de4c23e652c8473a609"}, "vout": 0, "txid": "7bcddcdd6a7147de036b8c65224db497cfed79ca68158c209edd612c8f2cb66b"}, {"sequence": 4294967295, "scriptSig": {"hex": "473044022023ba7bcc9eb282f93a9cb371510937edef62d70b56f64eafbb6b38e44e0e24bf02200ea585b2ac0950730dd2d5309bea8d3b3576badfd27a1af52b16521658ac2bd00121035cd95f66ccc6abb0f4b63f3144161207e4f519f8463f377e19c29ff5b905981e", "asm": "3044022023ba7bcc9eb282f93a9cb371510937edef62d70b56f64eafbb6b38e44e0e24bf02200ea585b2ac0950730dd2d5309bea8d3b3576badfd27a1af52b16521658ac2bd0[ALL] 035cd95f66ccc6abb0f4b63f3144161207e4f519f8463f377e19c29ff5b905981e"}, "vout": 1, "txid": "9e29d44258e087268c49bd4e4a72a66bccfa1abbd664ed470bc02a577db0e341"}], "txid": "b9204bab62d0126c2a199765bb09ed8b585644fc21962401abf7ec11f20e759f", "blocktime": 1537873282, "version": 1, "confirmations": 11484, "time": 1537873282, "locktime": 0, "vsize": 373, "size": 373}