{"hash": "470efe6545ea7e5e35935a9e97daf74af26bab9d9749ebfab26ab79b322e0052", "blockhash": "0000000000000000001f76057863aec43deb6fa401d9628bb513d65a8098bfab", "vout": [{"scriptPubKey": {"reqSigs": 1, "hex": "76a91435b5930fdad515cd0a14344f446eafd62cddaa9088ac", "addresses": ["15tzLBYHVh7XgkvG7fXQ3uHUij1wa1f1ei"], "asm": "OP_DUP OP_HASH160 35b5930fdad515cd0a14344f446eafd62cddaa90 OP_EQUALVERIFY OP_CHECKSIG", "type": "pubkeyhash"}, "value": 0.43424549, "n": 0}, {"scriptPubKey": {"reqSigs": 1, "hex": "a9142c9f5ef3f32a51b25c222ff1f9081db61c79284e87", "addresses": ["35kxaGZyJgtegG8c53bTDrynZyd6y8Upyp"], "asm": "OP_HASH160 2c9f5ef3f32a51b25c222ff1f9081db61c79284e OP_EQUAL", "type": "scripthash"}, "value": 0.00999463, "n": 1}], "hex": "02000000000105289494a2eb8c575f879f706994788fb12b53c944a9b7ce6edd76da88901ced200000000017160014cb81f1fc47f80299951ccc82c71214356f532d88feffffff97cd2187899b58dd478803e5c3ae7a438a4a66113bcbc850bea7e883058cb8b70000000017160014b232b2df2efdf2dc26c6c5d10d859ca916a5d4ecfeffffffcd57729384599e152438bcce7943822d0828ad4d7f22104ef0c1277b6c426abb0100000017160014104c6536a29ce141d1330ec18bee3fd5fe400da3feffffffe0ae8186522e44bc4de6e9f8168b409803ff67fbf5bdd33633dcde5068f7152d0100000017160014610f33e6995e4b80aa81c2145c9e524cc8df7b47feffffffe0f079869734cf5a04bce92a13c79954a23b9931f069f49f91995165ff6897010000000017160014c3a83b1860778c7beaa05f70b42d9f33b4339825feffffff02259b9602000000001976a91435b5930fdad515cd0a14344f446eafd62cddaa9088ac27400f000000000017a9142c9f5ef3f32a51b25c222ff1f9081db61c79284e8702483045022100ecafeec73d8eecf78b33d8641c17ff475a570856a13fe7a1cc40caa617092f4e02206000001e91427fd0c09d59fc5bed62bae7f1261dcf803dff6e4c3eb201a4f3ab0121033b99b1f104f0c6100e61e753e6b1591134f135ad9c56b150d713dfe7113ce19c02473044022055cc4edbc7ba815cc9d0ba24307cbf248b177f541f4a872c842f908137f9049502202bb6daae5b5ca7c54974b33534d5f04b1282ebe2fee1e6b678ef5ccfb2451aeb012102bf9ca271409534cde1a3233a9ff90645449a2c5b60318697d6a61991067fcde20247304402202caae43f0ebb85e2f6c48f850abae28c79af0cedc998434c45179e548a2cfc3502204c631f7253165a2f9dec937b78ca8e487e80c243aaae61e1028d014a45c2b5fc01210268a602bcb4ec55acd1340bab1e65e4223fcc30421e265589cf3bd1c96ad50e1402473044022036fe421bcbb56d235560076663a7227262eea6bd2826f893a05d7ea1adc3212402201678ad1be13fe449284ce61c904a885ce115b9dab9c31c449b7eeed2acb6ecd2012102d0e6d1c34c0eef739fdbe2e8a2814e499a2f2ad7c16f595a3f3dc913276fd45c0247304402207ca2280f0712aaf3d4f0251beafb553ea4003791a7b5501d2d30778ad3332c6a02201e483623581a34c2cc3cc82c92d0b911a704d90d34cac9d92b6a0e16d3c00225012103582fd830097ef34aeb6de249ec12b0efbf4f9b100ac5c42f040284d0b589743714490800", "vin": [{"txinwitness": ["3045022100ecafeec73d8eecf78b33d8641c17ff475a570856a13fe7a1cc40caa617092f4e02206000001e91427fd0c09d59fc5bed62bae7f1261dcf803dff6e4c3eb201a4f3ab01", "033b99b1f104f0c6100e61e753e6b1591134f135ad9c56b150d713dfe7113ce19c"], "sequence": 4294967294, "scriptSig": {"hex": "160014cb81f1fc47f80299951ccc82c71214356f532d88", "asm": "0014cb81f1fc47f80299951ccc82c71214356f532d88"}, "vout": 0, "txid": "20ed1c9088da76dd6eceb7a944c9532bb18f789469709f875f578ceba2949428"}, {"txinwitness": ["3044022055cc4edbc7ba815cc9d0ba24307cbf248b177f541f4a872c842f908137f9049502202bb6daae5b5ca7c54974b33534d5f04b1282ebe2fee1e6b678ef5ccfb2451aeb01", "02bf9ca271409534cde1a3233a9ff90645449a2c5b60318697d6a61991067fcde2"], "sequence": 4294967294, "scriptSig": {"hex": "160014b232b2df2efdf2dc26c6c5d10d859ca916a5d4ec", "asm": "0014b232b2df2efdf2dc26c6c5d10d859ca916a5d4ec"}, "vout": 0, "txid": "b7b88c0583e8a7be50c8cb3b11664a8a437aaec3e5038847dd589b898721cd97"}, {"txinwitness": ["304402202caae43f0ebb85e2f6c48f850abae28c79af0cedc998434c45179e548a2cfc3502204c631f7253165a2f9dec937b78ca8e487e80c243aaae61e1028d014a45c2b5fc01", "0268a602bcb4ec55acd1340bab1e65e4223fcc30421e265589cf3bd1c96ad50e14"], "sequence": 4294967294, "scriptSig": {"hex": "160014104c6536a29ce141d1330ec18bee3fd5fe400da3", "asm": "0014104c6536a29ce141d1330ec18bee3fd5fe400da3"}, "vout": 1, "txid": "bb6a426c7b27c1f04e10227f4dad28082d824379cebc3824159e5984937257cd"}, {"txinwitness": ["3044022036fe421bcbb56d235560076663a7227262eea6bd2826f893a05d7ea1adc3212402201678ad1be13fe449284ce61c904a885ce115b9dab9c31c449b7eeed2acb6ecd201", "02d0e6d1c34c0eef739fdbe2e8a2814e499a2f2ad7c16f595a3f3dc913276fd45c"], "sequence": 4294967294, "scriptSig": {"hex": "160014610f33e6995e4b80aa81c2145c9e524cc8df7b47", "asm": "0014610f33e6995e4b80aa81c2145c9e524cc8df7b47"}, "vout": 1, "txid": "2d15f76850dedc3336d3bdf5fb67ff0398408b16f8e9e64dbc442e528681aee0"}, {"txinwitness": ["304402207ca2280f0712aaf3d4f0251beafb553ea4003791a7b5501d2d30778ad3332c6a02201e483623581a34c2cc3cc82c92d0b911a704d90d34cac9d92b6a0e16d3c0022501", "03582fd830097ef34aeb6de249ec12b0efbf4f9b100ac5c42f040284d0b5897437"], "sequence": 4294967294, "scriptSig": {"hex": "160014c3a83b1860778c7beaa05f70b42d9f33b4339825", "asm": "0014c3a83b1860778c7beaa05f70b42d9f33b4339825"}, "vout": 0, "txid": "019768ff655199919ff469f031993ba25499c7132ae9bc045acf34978679f0e0"}], "txid": "b9227cc95d6dcc381824b6ad3524678ffec190d3e50380dd89ee824cb3232b9f", "blocktime": 1537873891, "version": 2, "confirmations": 11476, "time": 1537873891, "locktime": 542996, "vsize": 531, "size": 934}