{"hash": "f10bc3ddca60ed95e23b9de185438601e9ee0fe9b7e2a2fe56c13c352644fbc9", "blockhash": "0000000000000000000baef3f32e3676a92c3b2e5da21b426e4f302fc371ce76", "vout": [{"scriptPubKey": {"type": "nulldata", "hex": "6a146f6d6e69000000000000001f0000048c27395000", "asm": "OP_RETURN 6f6d6e69000000000000001f0000048c27395000"}, "value": 0.0, "n": 0}, {"scriptPubKey": {"reqSigs": 1, "hex": "a914e818e90b8e6b38dba66f74b35cb708bbc73e2ea787", "addresses": ["3NrEXrB9qAxXYfRt6jKtBD8QzoU2qtNWDR"], "asm": "OP_HASH160 e818e90b8e6b38dba66f74b35cb708bbc73e2ea7 OP_EQUAL", "type": "scripthash"}, "value": 2.73e-05, "n": 1}, {"scriptPubKey": {"reqSigs": 1, "hex": "a914e818e90b8e6b38dba66f74b35cb708bbc73e2ea787", "addresses": ["3NrEXrB9qAxXYfRt6jKtBD8QzoU2qtNWDR"], "asm": "OP_HASH160 e818e90b8e6b38dba66f74b35cb708bbc73e2ea7 OP_EQUAL", "type": "scripthash"}, "value": 19.1069708, "n": 2}], "hex": "0100000000010213b7984ba594f0136959bd6b1d34c514a20f2e4816da21b0dcb4b4a6ce9d18520100000017160014fd766b42f5679fb3eba65f1a73c68b300023c653ffffffff5a20080270f3d59874b42b916cebbe96bca3ecccdc3c135f7bf4fbdbdbe8ba250200000017160014000b814f2c1a19852357ed615a08ec572a781ed1ffffffff030000000000000000166a146f6d6e69000000000000001f0000048c27395000aa0a00000000000017a914e818e90b8e6b38dba66f74b35cb708bbc73e2ea78778ece2710000000017a914e818e90b8e6b38dba66f74b35cb708bbc73e2ea7870247304402205ffa93619495a8a6cb4b5353613a765ba6960b04ca0e2009ff6fe733907231bd02204c24a0c87bad5523181458610e8cdbd34fec50cb92574863a6151c14a2adb2ca0121022fb2ca03d2d2b6fa69f19fb0043273245b80b9e9ce192ee9de7c5c02e2b36e970247304402206ddb83855f8e6effe0d0dd9b6cd91f280be8024ed9f422995d51d059df5b249d02202590effc25fbb1cbc7de60fa0b9049fe718de3f2293bfcbcfc19b314d0872dbb012102aad79950b2c2af3689e8644c89e9d10dff06c2d8926200496b92e9f7ccb0304c00000000", "vin": [{"txinwitness": ["304402205ffa93619495a8a6cb4b5353613a765ba6960b04ca0e2009ff6fe733907231bd02204c24a0c87bad5523181458610e8cdbd34fec50cb92574863a6151c14a2adb2ca01", "022fb2ca03d2d2b6fa69f19fb0043273245b80b9e9ce192ee9de7c5c02e2b36e97"], "sequence": 4294967295, "scriptSig": {"hex": "160014fd766b42f5679fb3eba65f1a73c68b300023c653", "asm": "0014fd766b42f5679fb3eba65f1a73c68b300023c653"}, "vout": 1, "txid": "52189dcea6b4b4dcb021da16482e0fa214c5341d6bbd596913f094a54b98b713"}, {"txinwitness": ["304402206ddb83855f8e6effe0d0dd9b6cd91f280be8024ed9f422995d51d059df5b249d02202590effc25fbb1cbc7de60fa0b9049fe718de3f2293bfcbcfc19b314d0872dbb01", "02aad79950b2c2af3689e8644c89e9d10dff06c2d8926200496b92e9f7ccb0304c"], "sequence": 4294967295, "scriptSig": {"hex": "160014000b814f2c1a19852357ed615a08ec572a781ed1", "asm": "0014000b814f2c1a19852357ed615a08ec572a781ed1"}, "vout": 2, "txid": "25bae8dbdbfbf47b5f133cdccceca3bc96beeb6c912bb47498d5f3700208205a"}], "txid": "b927075af27dc437f6e1a42b7efaef7554ac382fb43bb2e750eb20d0607765d6", "blocktime": 1537876114, "version": 1, "confirmations": 11460, "time": 1537876114, "locktime": 0, "vsize": 287, "size": 449}