{"hash": "b928b6edf2aa37de817a7910210de0852a168a18c6160c7f261273d94f45c329", "blockhash": "0000000000000000001e0dab787dd257d1dbfcb92a98c2207d5e1078be1f4165", "vout": [{"scriptPubKey": {"reqSigs": 1, "hex": "76a914e8cea30989bd15530f819b766684b00dc7ba7cfa88ac", "addresses": ["1NDyJtNTjmwk5xPNhjgAMu4HDHigtobu1s"], "asm": "OP_DUP OP_HASH160 e8cea30989bd15530f819b766684b00dc7ba7cfa OP_EQUALVERIFY OP_CHECKSIG", "type": "pubkeyhash"}, "value": 1.49447211, "n": 0}, {"scriptPubKey": {"reqSigs": 1, "hex": "76a9149f58a3446d98d2098dbc47364a5ead37420fa0ce88ac", "addresses": ["1FXYdAKqCEnVdN328yUraYi3XvMBanM2NT"], "asm": "OP_DUP OP_HASH160 9f58a3446d98d2098dbc47364a5ead37420fa0ce OP_EQUALVERIFY OP_CHECKSIG", "type": "pubkeyhash"}, "value": 0.00681718, "n": 1}], "hex": "0200000015008d2b0bc356892ad86d24989637428ac67c510256a5152fd25039eb55826135000000006b483045022100836171e78c3bdae12ad07bca073d15bad17f2a3e5b9709ad2aa9579c8fc0ff5d0220111b70dc27cb06945b93a6763ca1b2f071e8ca2d4965c9ca0380f6670b5ae538012103ad9a3901cf825cff68edf7611d21efda86e069d09cc65bd6ad2ad3ea6d36872cfeffffff138e8b9d1e4c6621c822dae63bda6103cce3bce62c7cf2d1f5e97ff3dc807842310000006a47304402204af0076320907407eb6cbf8ab095888ac5eb01c27acb4c088065dece41b1be82022051f608e9c800224cf9d837d50b70e618c96d2d18e8a763bad26931de0e6535d00121033d8a5b4bcb2cac47fd2355ae3e4bc33110234a308dbff4287f03f9ddbb12621afeffffff1923a9e4ad196d8844fc879536d0d819bec7ef208974470bd865eb13c4f78225000000006b483045022100b83e2cedf31df58f07c72a047c582412020fbec43403c0d23a95a4f15052facc0220018e282b064842dc965f7e4c06a7756b33c8ac09e2bc33562384e8e00ba5e966012102c34414f4976f28dcabb9920e756fe565e48c71d3760cdd45b1c33f4d67bf6f0bfeffffff2896a9c9908e2a6d160ce04560c4a827e4ed4500db8a1b633ffe09cc1c7c9d64000000006a47304402201499f090af57564783c599a5a3807a5a734678d69ed25f5ca542be507f64edb6022014a09720b911498203b86d14f71b2522f74131175e66bcd60645a67f682d28e501210207aaed49d7d41a2c0c1cc1c652b6b74c4d586a4d5bea43d15d9efad860f54d05feffffff2f67c5665fcae462be68cec0aa628a094c06d792603859bc0180565de5429c39000000006a473044022032063b12a033b372845dc5a03bb9f8e17b98f1fa10c4c2df8187f4c117c0d2ee0220327bc85fdce34650d6305bbadf037ccbdf6c53b572d12cf0fcd99f609dd1179d012102b932817fd20136e3290bc28e950be8de0ff85bd521fe8a01e493e707dad2085bfeffffff309f9cc977fc89dfa3ee0be7a9218415e406d058c3277f1a91adfba05a9357f4520000006a4730440220201e8774d67315ff59c907690d898c1f7e44155c7811ba7bdfcfe14963e2bbb20220084bf559e38a2e45213bdb6bffa90ab2f1ff5d7264a2e1cd80006330c0a7f8630121025d8bccc290ef6b25b654052c5640bfc13a4e71cc59deda0039b9d1c83132e509feffffff352e0ef42099db0ac56d790bdd268d3eb7d95c2554b46798b5873c1bedbc125c0b0000006a473044022024db4f8d94a67cf40c072f66bd203dfc4c9f9543a4f57a51b63631d06f795da5022063bfaea0cca560682210f81e64dbb3ec4b970b007d1111082b9bbb35fed92186012102da2cdad516ab7c67a51811bec597c3bd6ca56f26c8023d0bb9034a1a3d04170dfeffffff4741fe612d4a0037359246490776f23dc2b52852849864a56b40245ff33ded020c0000006b483045022100bb2cfb5614183a40f8239a3ba2b6ab6476e521214be54bf47caa889813e5ca4c02205bb424bf1e307996e750f9d96521149a36861fa07a21cc7456b56efce82e5625012102b6d77b3a3e873ba55a03baa1c85c5822d42bbf86a8306f34496fac256c01728efeffffff5a6c88c82aa7dd9bd5592d91f32aa689776eb94beed1e70d2fa8ede0c37eb017000000006b4830450221009e2e8488e587ed0fd04d2bb1a6d275a19d7013fac4e9e013113ef5267a7e616302200cfcb5c12542f12b6eec67a75b7b0c6cca752de327caf00e47b1904e64a9c28e012102cad328e3de75caab190c5a45ef86c442f34c0a1388d1253bbcea366604f7342efeffffff642d889485be9813eba3a9dea30b1c498be0a348be7db5a31e41d268cd0ddcc1010000006b483045022100f4322cf58f1abeccb30b59e610ba7f6dc5a8ed55c8d479771c69dba47d19ab1702200da3f723acdcb661650037f7fb1a4ba18d696725fc53c593c6e04d8e2a4469bf012102287f8a7dc80d92071b9a226757b11a9aca927122f2b4da7c494520ca418776aefeffffff6ab421b468d0dbf81359e1eb33685d5b2ec9f5af02f178a6f53382933505d91c020000006a47304402203e31a0c3fe7d5dfa4eb8330bff9fba5c7d3635420e5f8c93353b99b0b688a9ed022076f0a404d862c71ff4f95852421c0521323191b84564beebb894c842bc2df9d3012102d2bda2cd87e74464504091c6d6383b53c08181a692117b9d7e3fed32a55972b1feffffff6c0feb10046b891bf746358b899a7a49729858addec6998e10245df7755f986c010000006b4830450221009bd5556c6cce23984f7e5d5f1edbd6eba40495fa4c5ee3bc5397664796fbbf25022019b451ed114bd17164230c2560f12c207cb4bdb4f3fffbad38768d9aad378e760121031c1b5fed9b0456ba921f99b29be6b5cbec78b35142bb6c69e710a06c1036a027feffffff7f803f7e022f5381cb54a48f56fb174bb943e9639b68b1fe02838007b741ee9ec00300006a47304402203f5d84da8ea9ef0f5332a1e7441d42f277c42e65377f65e27c3838addc599b660220306b6ef38c5f049d8f90cc6bcd4ea5c4e55b0d3266daac1bb79c163d7b00fe07012103201c5bca031b7b5770ddfaf1bbe0fa076a6233af8508a6ee1cb639abc9f77bf7feffffff7fcec631fcc52c19c034b5083a9729ce670b78cf5724cbecd278d83c6db92a14010000006a473044022061266e501dd3c5b161a403bae42fd752895863c89a12f103e5e6c1dc5b36242e02206750a59b2dcdabd9ea177aef7bd2fcc71dfe4f9a9680905e9829684fd6a1f842012103a5d38934be9cb9f637306068ba1b13d572fbfd1db6c03a9f4db8f57141208eaefeffffffa9acdcf585f5d97feea76635460b7f8215f92068b10b50506ddf7d5d1cc83ebb000000006b4830450221008e386c36b655dfc6217daf285702b839b733288f469efd85c0b5cfe1a05383d7022018238ca0019b79419fddf5466ba23af97ee2f566a9ff97ca0ffef7368303df7e012102859b011e0aa2533c6ec1c0bb00a58f106704ca53a4dbd45af96efe36d09e93f0feffffffb541710500d8290ad94890177e6e3acfe023edf00f25ef56f85d8701b7540921020000006b483045022100cadca3adfdec3de2e7758582ada81f63ee5ae29d380b85f269ec93bb24565e3d022069c27c4e95ebce8baafb1c1a4a8196ad77a848077d324212dd209ee67fdc12ae0121031c785e508619256734e404bbaf645a15d8d3b2457faa71440d036fb591ce7f4dfeffffffc9e895b322b1c46f6f9bc7463cf1c14ada050b7ceede8d0ae93e508f872b3a73000000006b483045022100c240fb4ed78bffcd7368065fc4ea4ce784afd401b3c2d66f162dcab4757fff0602201d1b475eddbcb6eadb649e39f96888e4d2b7a6920b95a2f01bb026c1b2f0acca012102f038c76ba2033761deff3090b95e4a6bbc2e5822d66c48c61babd22f774e5dccfeffffffd2f359bd7a903769718b476b40c0a94f64da9f285c64336d9a97a16342c7853b000000006b483045022100c77bebc6df8b2ab8ce135308ea08bb3633e98c297eeb4f7ddb950128c3ed1c6c02207e274443282d6fc2b94f5afddbf11d8d3aeb5e8e8f74ebb517d7b94cf5758e9e01210388e073e4196b8c715d9dce2e00ab97b50d32229972721f09ae60c84e7868aa82feffffffdfeae1fa1c11cd454750f6b1ff8cfd06a97dfa68100c01de0ba91387d05dda8f080000006a473044022001eabeb3fcaae1bed46c79a5c7a678b7ca27c36987e22a0fed8f1906588f07dd02200a47cd251033fa3bb345bd6ddbdc9bcd9a0c10ad36d6b8859423681c63861f66012102227fb9ce6416d4a4b1832cc074d5e518fe453a62d119b7da146a084d3cce081cfeffffffe3d0703beb0251e9b13cfe51332a12e9d491b8e9cd384e050c2d25e1215d9d89010000006a4730440220704025f937cacd8aba6c1b5264cdd1a6bfab05f0867be2bfa3d1e21f3949242302204fc0eceaa8596387593efa66e1f1c0fd631b63768d0829f326c9f6b67728629e012103a968daf443d07c1059a1709e5eae651f751ff7b4c8c1558cf7eb4f23f480c1d5feffffffe870bbea8bb93979f1564545ccde9aeccdb7d036581128f6581c976f01410a06ab0600006b483045022100f7f755aa7a786fd39b90349a89bef6a1c204b2ce10b50d4b0a69f7032a30543202201dd576d13eb565e691c15b7d0e1efdd6d7a1f8fd82a2779d15eb24b9778fb37e012103c75b86bdf6b05655591786c70a0739705f126a5ddcff10ea67ab677f09cff648feffffff022b62e808000000001976a914e8cea30989bd15530f819b766684b00dc7ba7cfa88acf6660a00000000001976a9149f58a3446d98d2098dbc47364a5ead37420fa0ce88ac12490800", "vin": [{"sequence": 4294967294, "scriptSig": {"hex": "483045022100836171e78c3bdae12ad07bca073d15bad17f2a3e5b9709ad2aa9579c8fc0ff5d0220111b70dc27cb06945b93a6763ca1b2f071e8ca2d4965c9ca0380f6670b5ae538012103ad9a3901cf825cff68edf7611d21efda86e069d09cc65bd6ad2ad3ea6d36872c", "asm": "3045022100836171e78c3bdae12ad07bca073d15bad17f2a3e5b9709ad2aa9579c8fc0ff5d0220111b70dc27cb06945b93a6763ca1b2f071e8ca2d4965c9ca0380f6670b5ae538[ALL] 03ad9a3901cf825cff68edf7611d21efda86e069d09cc65bd6ad2ad3ea6d36872c"}, "vout": 0, "txid": "35618255eb3950d22f15a55602517cc68a42379698246dd82a8956c30b2b8d00"}, {"sequence": 4294967294, "scriptSig": {"hex": "47304402204af0076320907407eb6cbf8ab095888ac5eb01c27acb4c088065dece41b1be82022051f608e9c800224cf9d837d50b70e618c96d2d18e8a763bad26931de0e6535d00121033d8a5b4bcb2cac47fd2355ae3e4bc33110234a308dbff4287f03f9ddbb12621a", "asm": "304402204af0076320907407eb6cbf8ab095888ac5eb01c27acb4c088065dece41b1be82022051f608e9c800224cf9d837d50b70e618c96d2d18e8a763bad26931de0e6535d0[ALL] 033d8a5b4bcb2cac47fd2355ae3e4bc33110234a308dbff4287f03f9ddbb12621a"}, "vout": 49, "txid": "427880dcf37fe9f5d1f27c2ce6bce3cc0361da3be6da22c821664c1e9d8b8e13"}, {"sequence": 4294967294, "scriptSig": {"hex": "483045022100b83e2cedf31df58f07c72a047c582412020fbec43403c0d23a95a4f15052facc0220018e282b064842dc965f7e4c06a7756b33c8ac09e2bc33562384e8e00ba5e966012102c34414f4976f28dcabb9920e756fe565e48c71d3760cdd45b1c33f4d67bf6f0b", "asm": "3045022100b83e2cedf31df58f07c72a047c582412020fbec43403c0d23a95a4f15052facc0220018e282b064842dc965f7e4c06a7756b33c8ac09e2bc33562384e8e00ba5e966[ALL] 02c34414f4976f28dcabb9920e756fe565e48c71d3760cdd45b1c33f4d67bf6f0b"}, "vout": 0, "txid": "2582f7c413eb65d80b47748920efc7be19d8d0369587fc44886d19ade4a92319"}, {"sequence": 4294967294, "scriptSig": {"hex": "47304402201499f090af57564783c599a5a3807a5a734678d69ed25f5ca542be507f64edb6022014a09720b911498203b86d14f71b2522f74131175e66bcd60645a67f682d28e501210207aaed49d7d41a2c0c1cc1c652b6b74c4d586a4d5bea43d15d9efad860f54d05", "asm": "304402201499f090af57564783c599a5a3807a5a734678d69ed25f5ca542be507f64edb6022014a09720b911498203b86d14f71b2522f74131175e66bcd60645a67f682d28e5[ALL] 0207aaed49d7d41a2c0c1cc1c652b6b74c4d586a4d5bea43d15d9efad860f54d05"}, "vout": 0, "txid": "649d7c1ccc09fe3f631b8adb0045ede427a8c46045e00c166d2a8e90c9a99628"}, {"sequence": 4294967294, "scriptSig": {"hex": "473044022032063b12a033b372845dc5a03bb9f8e17b98f1fa10c4c2df8187f4c117c0d2ee0220327bc85fdce34650d6305bbadf037ccbdf6c53b572d12cf0fcd99f609dd1179d012102b932817fd20136e3290bc28e950be8de0ff85bd521fe8a01e493e707dad2085b", "asm": "3044022032063b12a033b372845dc5a03bb9f8e17b98f1fa10c4c2df8187f4c117c0d2ee0220327bc85fdce34650d6305bbadf037ccbdf6c53b572d12cf0fcd99f609dd1179d[ALL] 02b932817fd20136e3290bc28e950be8de0ff85bd521fe8a01e493e707dad2085b"}, "vout": 0, "txid": "399c42e55d568001bc59386092d7064c098a62aac0ce68be62e4ca5f66c5672f"}, {"sequence": 4294967294, "scriptSig": {"hex": "4730440220201e8774d67315ff59c907690d898c1f7e44155c7811ba7bdfcfe14963e2bbb20220084bf559e38a2e45213bdb6bffa90ab2f1ff5d7264a2e1cd80006330c0a7f8630121025d8bccc290ef6b25b654052c5640bfc13a4e71cc59deda0039b9d1c83132e509", "asm": "30440220201e8774d67315ff59c907690d898c1f7e44155c7811ba7bdfcfe14963e2bbb20220084bf559e38a2e45213bdb6bffa90ab2f1ff5d7264a2e1cd80006330c0a7f863[ALL] 025d8bccc290ef6b25b654052c5640bfc13a4e71cc59deda0039b9d1c83132e509"}, "vout": 82, "txid": "f457935aa0fbad911a7f27c358d006e4158421a9e70beea3df89fc77c99c9f30"}, {"sequence": 4294967294, "scriptSig": {"hex": "473044022024db4f8d94a67cf40c072f66bd203dfc4c9f9543a4f57a51b63631d06f795da5022063bfaea0cca560682210f81e64dbb3ec4b970b007d1111082b9bbb35fed92186012102da2cdad516ab7c67a51811bec597c3bd6ca56f26c8023d0bb9034a1a3d04170d", "asm": "3044022024db4f8d94a67cf40c072f66bd203dfc4c9f9543a4f57a51b63631d06f795da5022063bfaea0cca560682210f81e64dbb3ec4b970b007d1111082b9bbb35fed92186[ALL] 02da2cdad516ab7c67a51811bec597c3bd6ca56f26c8023d0bb9034a1a3d04170d"}, "vout": 11, "txid": "5c12bced1b3c87b59867b454255cd9b73e8d26dd0b796dc50adb9920f40e2e35"}, {"sequence": 4294967294, "scriptSig": {"hex": "483045022100bb2cfb5614183a40f8239a3ba2b6ab6476e521214be54bf47caa889813e5ca4c02205bb424bf1e307996e750f9d96521149a36861fa07a21cc7456b56efce82e5625012102b6d77b3a3e873ba55a03baa1c85c5822d42bbf86a8306f34496fac256c01728e", "asm": "3045022100bb2cfb5614183a40f8239a3ba2b6ab6476e521214be54bf47caa889813e5ca4c02205bb424bf1e307996e750f9d96521149a36861fa07a21cc7456b56efce82e5625[ALL] 02b6d77b3a3e873ba55a03baa1c85c5822d42bbf86a8306f34496fac256c01728e"}, "vout": 12, "txid": "02ed3df35f24406ba56498845228b5c23df276074946923537004a2d61fe4147"}, {"sequence": 4294967294, "scriptSig": {"hex": "4830450221009e2e8488e587ed0fd04d2bb1a6d275a19d7013fac4e9e013113ef5267a7e616302200cfcb5c12542f12b6eec67a75b7b0c6cca752de327caf00e47b1904e64a9c28e012102cad328e3de75caab190c5a45ef86c442f34c0a1388d1253bbcea366604f7342e", "asm": "30450221009e2e8488e587ed0fd04d2bb1a6d275a19d7013fac4e9e013113ef5267a7e616302200cfcb5c12542f12b6eec67a75b7b0c6cca752de327caf00e47b1904e64a9c28e[ALL] 02cad328e3de75caab190c5a45ef86c442f34c0a1388d1253bbcea366604f7342e"}, "vout": 0, "txid": "17b07ec3e0eda82f0de7d1ee4bb96e7789a62af3912d59d59bdda72ac8886c5a"}, {"sequence": 4294967294, "scriptSig": {"hex": "483045022100f4322cf58f1abeccb30b59e610ba7f6dc5a8ed55c8d479771c69dba47d19ab1702200da3f723acdcb661650037f7fb1a4ba18d696725fc53c593c6e04d8e2a4469bf012102287f8a7dc80d92071b9a226757b11a9aca927122f2b4da7c494520ca418776ae", "asm": "3045022100f4322cf58f1abeccb30b59e610ba7f6dc5a8ed55c8d479771c69dba47d19ab1702200da3f723acdcb661650037f7fb1a4ba18d696725fc53c593c6e04d8e2a4469bf[ALL] 02287f8a7dc80d92071b9a226757b11a9aca927122f2b4da7c494520ca418776ae"}, "vout": 1, "txid": "c1dc0dcd68d2411ea3b57dbe48a3e08b491c0ba3dea9a3eb1398be8594882d64"}, {"sequence": 4294967294, "scriptSig": {"hex": "47304402203e31a0c3fe7d5dfa4eb8330bff9fba5c7d3635420e5f8c93353b99b0b688a9ed022076f0a404d862c71ff4f95852421c0521323191b84564beebb894c842bc2df9d3012102d2bda2cd87e74464504091c6d6383b53c08181a692117b9d7e3fed32a55972b1", "asm": "304402203e31a0c3fe7d5dfa4eb8330bff9fba5c7d3635420e5f8c93353b99b0b688a9ed022076f0a404d862c71ff4f95852421c0521323191b84564beebb894c842bc2df9d3[ALL] 02d2bda2cd87e74464504091c6d6383b53c08181a692117b9d7e3fed32a55972b1"}, "vout": 2, "txid": "1cd90535938233f5a678f102aff5c92e5b5d6833ebe15913f8dbd068b421b46a"}, {"sequence": 4294967294, "scriptSig": {"hex": "4830450221009bd5556c6cce23984f7e5d5f1edbd6eba40495fa4c5ee3bc5397664796fbbf25022019b451ed114bd17164230c2560f12c207cb4bdb4f3fffbad38768d9aad378e760121031c1b5fed9b0456ba921f99b29be6b5cbec78b35142bb6c69e710a06c1036a027", "asm": "30450221009bd5556c6cce23984f7e5d5f1edbd6eba40495fa4c5ee3bc5397664796fbbf25022019b451ed114bd17164230c2560f12c207cb4bdb4f3fffbad38768d9aad378e76[ALL] 031c1b5fed9b0456ba921f99b29be6b5cbec78b35142bb6c69e710a06c1036a027"}, "vout": 1, "txid": "6c985f75f75d24108e99c6dead589872497a9a898b3546f71b896b0410eb0f6c"}, {"sequence": 4294967294, "scriptSig": {"hex": "47304402203f5d84da8ea9ef0f5332a1e7441d42f277c42e65377f65e27c3838addc599b660220306b6ef38c5f049d8f90cc6bcd4ea5c4e55b0d3266daac1bb79c163d7b00fe07012103201c5bca031b7b5770ddfaf1bbe0fa076a6233af8508a6ee1cb639abc9f77bf7", "asm": "304402203f5d84da8ea9ef0f5332a1e7441d42f277c42e65377f65e27c3838addc599b660220306b6ef38c5f049d8f90cc6bcd4ea5c4e55b0d3266daac1bb79c163d7b00fe07[ALL] 03201c5bca031b7b5770ddfaf1bbe0fa076a6233af8508a6ee1cb639abc9f77bf7"}, "vout": 960, "txid": "9eee41b707808302feb1689b63e943b94b17fb568fa454cb81532f027e3f807f"}, {"sequence": 4294967294, "scriptSig": {"hex": "473044022061266e501dd3c5b161a403bae42fd752895863c89a12f103e5e6c1dc5b36242e02206750a59b2dcdabd9ea177aef7bd2fcc71dfe4f9a9680905e9829684fd6a1f842012103a5d38934be9cb9f637306068ba1b13d572fbfd1db6c03a9f4db8f57141208eae", "asm": "3044022061266e501dd3c5b161a403bae42fd752895863c89a12f103e5e6c1dc5b36242e02206750a59b2dcdabd9ea177aef7bd2fcc71dfe4f9a9680905e9829684fd6a1f842[ALL] 03a5d38934be9cb9f637306068ba1b13d572fbfd1db6c03a9f4db8f57141208eae"}, "vout": 1, "txid": "142ab96d3cd878d2eccb2457cf780b67ce29973a08b534c0192cc5fc31c6ce7f"}, {"sequence": 4294967294, "scriptSig": {"hex": "4830450221008e386c36b655dfc6217daf285702b839b733288f469efd85c0b5cfe1a05383d7022018238ca0019b79419fddf5466ba23af97ee2f566a9ff97ca0ffef7368303df7e012102859b011e0aa2533c6ec1c0bb00a58f106704ca53a4dbd45af96efe36d09e93f0", "asm": "30450221008e386c36b655dfc6217daf285702b839b733288f469efd85c0b5cfe1a05383d7022018238ca0019b79419fddf5466ba23af97ee2f566a9ff97ca0ffef7368303df7e[ALL] 02859b011e0aa2533c6ec1c0bb00a58f106704ca53a4dbd45af96efe36d09e93f0"}, "vout": 0, "txid": "bb3ec81c5d7ddf6d50500bb16820f915827f0b463566a7ee7fd9f585f5dcaca9"}, {"sequence": 4294967294, "scriptSig": {"hex": "483045022100cadca3adfdec3de2e7758582ada81f63ee5ae29d380b85f269ec93bb24565e3d022069c27c4e95ebce8baafb1c1a4a8196ad77a848077d324212dd209ee67fdc12ae0121031c785e508619256734e404bbaf645a15d8d3b2457faa71440d036fb591ce7f4d", "asm": "3045022100cadca3adfdec3de2e7758582ada81f63ee5ae29d380b85f269ec93bb24565e3d022069c27c4e95ebce8baafb1c1a4a8196ad77a848077d324212dd209ee67fdc12ae[ALL] 031c785e508619256734e404bbaf645a15d8d3b2457faa71440d036fb591ce7f4d"}, "vout": 2, "txid": "210954b701875df856ef250ff0ed23e0cf3a6e7e179048d90a29d800057141b5"}, {"sequence": 4294967294, "scriptSig": {"hex": "483045022100c240fb4ed78bffcd7368065fc4ea4ce784afd401b3c2d66f162dcab4757fff0602201d1b475eddbcb6eadb649e39f96888e4d2b7a6920b95a2f01bb026c1b2f0acca012102f038c76ba2033761deff3090b95e4a6bbc2e5822d66c48c61babd22f774e5dcc", "asm": "3045022100c240fb4ed78bffcd7368065fc4ea4ce784afd401b3c2d66f162dcab4757fff0602201d1b475eddbcb6eadb649e39f96888e4d2b7a6920b95a2f01bb026c1b2f0acca[ALL] 02f038c76ba2033761deff3090b95e4a6bbc2e5822d66c48c61babd22f774e5dcc"}, "vout": 0, "txid": "733a2b878f503ee90a8ddeee7c0b05da4ac1f13c46c79b6f6fc4b122b395e8c9"}, {"sequence": 4294967294, "scriptSig": {"hex": "483045022100c77bebc6df8b2ab8ce135308ea08bb3633e98c297eeb4f7ddb950128c3ed1c6c02207e274443282d6fc2b94f5afddbf11d8d3aeb5e8e8f74ebb517d7b94cf5758e9e01210388e073e4196b8c715d9dce2e00ab97b50d32229972721f09ae60c84e7868aa82", "asm": "3045022100c77bebc6df8b2ab8ce135308ea08bb3633e98c297eeb4f7ddb950128c3ed1c6c02207e274443282d6fc2b94f5afddbf11d8d3aeb5e8e8f74ebb517d7b94cf5758e9e[ALL] 0388e073e4196b8c715d9dce2e00ab97b50d32229972721f09ae60c84e7868aa82"}, "vout": 0, "txid": "3b85c74263a1979a6d33645c289fda644fa9c0406b478b716937907abd59f3d2"}, {"sequence": 4294967294, "scriptSig": {"hex": "473044022001eabeb3fcaae1bed46c79a5c7a678b7ca27c36987e22a0fed8f1906588f07dd02200a47cd251033fa3bb345bd6ddbdc9bcd9a0c10ad36d6b8859423681c63861f66012102227fb9ce6416d4a4b1832cc074d5e518fe453a62d119b7da146a084d3cce081c", "asm": "3044022001eabeb3fcaae1bed46c79a5c7a678b7ca27c36987e22a0fed8f1906588f07dd02200a47cd251033fa3bb345bd6ddbdc9bcd9a0c10ad36d6b8859423681c63861f66[ALL] 02227fb9ce6416d4a4b1832cc074d5e518fe453a62d119b7da146a084d3cce081c"}, "vout": 8, "txid": "8fda5dd08713a90bde010c1068fa7da906fd8cffb1f6504745cd111cfae1eadf"}, {"sequence": 4294967294, "scriptSig": {"hex": "4730440220704025f937cacd8aba6c1b5264cdd1a6bfab05f0867be2bfa3d1e21f3949242302204fc0eceaa8596387593efa66e1f1c0fd631b63768d0829f326c9f6b67728629e012103a968daf443d07c1059a1709e5eae651f751ff7b4c8c1558cf7eb4f23f480c1d5", "asm": "30440220704025f937cacd8aba6c1b5264cdd1a6bfab05f0867be2bfa3d1e21f3949242302204fc0eceaa8596387593efa66e1f1c0fd631b63768d0829f326c9f6b67728629e[ALL] 03a968daf443d07c1059a1709e5eae651f751ff7b4c8c1558cf7eb4f23f480c1d5"}, "vout": 1, "txid": "899d5d21e1252d0c054e38cde9b891d4e9122a3351fe3cb1e95102eb3b70d0e3"}, {"sequence": 4294967294, "scriptSig": {"hex": "483045022100f7f755aa7a786fd39b90349a89bef6a1c204b2ce10b50d4b0a69f7032a30543202201dd576d13eb565e691c15b7d0e1efdd6d7a1f8fd82a2779d15eb24b9778fb37e012103c75b86bdf6b05655591786c70a0739705f126a5ddcff10ea67ab677f09cff648", "asm": "3045022100f7f755aa7a786fd39b90349a89bef6a1c204b2ce10b50d4b0a69f7032a30543202201dd576d13eb565e691c15b7d0e1efdd6d7a1f8fd82a2779d15eb24b9778fb37e[ALL] 03c75b86bdf6b05655591786c70a0739705f126a5ddcff10ea67ab677f09cff648"}, "vout": 1707, "txid": "060a41016f971c58f628115836d0b7cdec9adecc454556f17939b98beabb70e8"}], "txid": "b928b6edf2aa37de817a7910210de0852a168a18c6160c7f261273d94f45c329", "blocktime": 1537872475, "version": 2, "confirmations": 11486, "time": 1537872475, "locktime": 542994, "vsize": 3176, "size": 3176}