{"hash": "b92c8da21276e5d873d6e36978e1c3f542dfb3a225ad5a65168b840daa4f14f0", "blockhash": "0000000000000000000e13cef7c366c0283d82e591d1acd082e914b08063cdf1", "vout": [{"scriptPubKey": {"reqSigs": 1, "hex": "a914cbf91524fa0142687aa9950ffc1946948d2b267487", "addresses": ["3LHXV3hvwkRR2djtyKneva8SAzbbg4Foop"], "asm": "OP_HASH160 cbf91524fa0142687aa9950ffc1946948d2b2674 OP_EQUAL", "type": "scripthash"}, "value": 0.01633778, "n": 0}], "hex": "01000000019aa9af875158a887cd7e74564c90fc64695e435b5ba3ae0177a55913e2c16110000000006a473044022018351955fed0394d1b4c2d3e84a633d8e6b1af575c06680ac328adb4543c51a9022068293a2ef0db377084902c3765e9fd5fd59c3ec94d71d9ac0e32ee1b6e71b8fd0121024b924854873358ae2aa4ae138dc4f9bb6dc86795ef11e9a539adacbc8be10edeffffffff01f2ed18000000000017a914cbf91524fa0142687aa9950ffc1946948d2b26748700000000", "vin": [{"sequence": 4294967295, "scriptSig": {"hex": "473044022018351955fed0394d1b4c2d3e84a633d8e6b1af575c06680ac328adb4543c51a9022068293a2ef0db377084902c3765e9fd5fd59c3ec94d71d9ac0e32ee1b6e71b8fd0121024b924854873358ae2aa4ae138dc4f9bb6dc86795ef11e9a539adacbc8be10ede", "asm": "3044022018351955fed0394d1b4c2d3e84a633d8e6b1af575c06680ac328adb4543c51a9022068293a2ef0db377084902c3765e9fd5fd59c3ec94d71d9ac0e32ee1b6e71b8fd[ALL] 024b924854873358ae2aa4ae138dc4f9bb6dc86795ef11e9a539adacbc8be10ede"}, "vout": 0, "txid": "1061c1e21359a57701aea35b5b435e6964fc904c56747ecd87a8585187afa99a"}], "txid": "b92c8da21276e5d873d6e36978e1c3f542dfb3a225ad5a65168b840daa4f14f0", "blocktime": 1537871767, "version": 1, "confirmations": 11495, "time": 1537871767, "locktime": 0, "vsize": 189, "size": 189}