{"hash": "b92f1348d0a79b3c232f50cf75832a0679679a10ca971704892565f2b36f2ffe", "blockhash": "0000000000000000001f0ddff1eddb255c1121bcd4da4f1bc9a0da00cae72433", "vout": [{"scriptPubKey": {"reqSigs": 1, "hex": "76a91413bbbeddc3923c769c324b3163efc2f0fa2123ac88ac", "addresses": ["12oLkSGv9m2zM7oqxAxpaH7u73xzrcf4qT"], "asm": "OP_DUP OP_HASH160 13bbbeddc3923c769c324b3163efc2f0fa2123ac OP_EQUALVERIFY OP_CHECKSIG", "type": "pubkeyhash"}, "value": 20.0, "n": 0}, {"scriptPubKey": {"reqSigs": 1, "hex": "76a914201c33e608d7745d3a3885c76fdc9405a07e3bc788ac", "addresses": ["13vnQhWqN7qNVeYuR9z7sPDvGLATBVoAKj"], "asm": "OP_DUP OP_HASH160 201c33e608d7745d3a3885c76fdc9405a07e3bc7 OP_EQUALVERIFY OP_CHECKSIG", "type": "pubkeyhash"}, "value": 26.69976344, "n": 1}], "hex": "010000000149cd589fbeff8566519e401aecfcb5371905b47e754eb1526275bd237d41b56d000000006a47304402200a91a10f46960a51823bb30334260414031042511b0625ebb1fffc3b9e23affa022053745af7a1051b2ca377644c307b890121621bcff20e61621ffec227b948c7770121034fdddc051b36f3145b51c1eb091733fd0d5df5300469edb61b52f1d464e6ecabffffffff0200943577000000001976a91413bbbeddc3923c769c324b3163efc2f0fa2123ac88ac189b249f000000001976a914201c33e608d7745d3a3885c76fdc9405a07e3bc788ac00000000", "vin": [{"sequence": 4294967295, "scriptSig": {"hex": "47304402200a91a10f46960a51823bb30334260414031042511b0625ebb1fffc3b9e23affa022053745af7a1051b2ca377644c307b890121621bcff20e61621ffec227b948c7770121034fdddc051b36f3145b51c1eb091733fd0d5df5300469edb61b52f1d464e6ecab", "asm": "304402200a91a10f46960a51823bb30334260414031042511b0625ebb1fffc3b9e23affa022053745af7a1051b2ca377644c307b890121621bcff20e61621ffec227b948c777[ALL] 034fdddc051b36f3145b51c1eb091733fd0d5df5300469edb61b52f1d464e6ecab"}, "vout": 0, "txid": "6db5417d23bd756252b14e757eb4051937b5fcec1a409e516685ffbe9f58cd49"}], "txid": "b92f1348d0a79b3c232f50cf75832a0679679a10ca971704892565f2b36f2ffe", "blocktime": 1537872018, "version": 1, "confirmations": 11489, "time": 1537872018, "locktime": 0, "vsize": 225, "size": 225}