{"hash": "b9301f310c11ada0ea3e704c64461fcc8b4f81c38afd8fa754c573c680637e8e", "blockhash": "0000000000000000001f76057863aec43deb6fa401d9628bb513d65a8098bfab", "vout": [{"scriptPubKey": {"reqSigs": 1, "hex": "76a914e6c20ed4ecd4719cd703f83c047ea7c77f4f671788ac", "addresses": ["1N38tWARqPzr1s4kxLzUpHwU2DxFdSrhtu"], "asm": "OP_DUP OP_HASH160 e6c20ed4ecd4719cd703f83c047ea7c77f4f6717 OP_EQUALVERIFY OP_CHECKSIG", "type": "pubkeyhash"}, "value": 0.00121427, "n": 0}, {"scriptPubKey": {"reqSigs": 1, "hex": "a9146718158be08bfdffca8eb68c862493b055e0faa587", "addresses": ["3B68NhXCjYHi1vurmNP5MspkkKhEa4mBrV"], "asm": "OP_HASH160 6718158be08bfdffca8eb68c862493b055e0faa5 OP_EQUAL", "type": "scripthash"}, "value": 0.00165272, "n": 1}], "hex": "0100000001652db98720020aa9cabf6f483ee6f150e22bc747c5583cf5f81d22673c39601c010000006b483045022100ee0b82f07b3733aa49fdd680d6fd9d60fac67eef7669455925f1a6e9440dc04902200c47c839ee946dd36c23a1370df04649362c3beb5637cc6113f87cd87f947cde0121026af4d228b6b7135326f1f0c1e37fc834c1fedfe600bdbbdacaa353146093326effffffff0253da0100000000001976a914e6c20ed4ecd4719cd703f83c047ea7c77f4f671788ac988502000000000017a9146718158be08bfdffca8eb68c862493b055e0faa58700000000", "vin": [{"sequence": 4294967295, "scriptSig": {"hex": "483045022100ee0b82f07b3733aa49fdd680d6fd9d60fac67eef7669455925f1a6e9440dc04902200c47c839ee946dd36c23a1370df04649362c3beb5637cc6113f87cd87f947cde0121026af4d228b6b7135326f1f0c1e37fc834c1fedfe600bdbbdacaa353146093326e", "asm": "3045022100ee0b82f07b3733aa49fdd680d6fd9d60fac67eef7669455925f1a6e9440dc04902200c47c839ee946dd36c23a1370df04649362c3beb5637cc6113f87cd87f947cde[ALL] 026af4d228b6b7135326f1f0c1e37fc834c1fedfe600bdbbdacaa353146093326e"}, "vout": 1, "txid": "1c60393c67221df8f53c58c547c72be250f1e63e486fbfcaa90a022087b92d65"}], "txid": "b9301f310c11ada0ea3e704c64461fcc8b4f81c38afd8fa754c573c680637e8e", "blocktime": 1537873891, "version": 1, "confirmations": 11478, "time": 1537873891, "locktime": 0, "vsize": 224, "size": 224}