{"hash": "5b9b072505e55b4ad7769831fa6b268b8145fb2afc98bd47baec28b89444af6a", "blockhash": "00000000000000000018f53835495a110e01622372bf6ae95dc86f2b0ab887b0", "vout": [{"scriptPubKey": {"reqSigs": 1, "hex": "76a914de1bc6f61c0b8dcc3cc32b86b6c72805ffee35b388ac", "addresses": ["1MFQHacbSPUxchKNzbKxqy9qdVNxDVgCE2"], "asm": "OP_DUP OP_HASH160 de1bc6f61c0b8dcc3cc32b86b6c72805ffee35b3 OP_EQUALVERIFY OP_CHECKSIG", "type": "pubkeyhash"}, "value": 0.01584183, "n": 0}, {"scriptPubKey": {"reqSigs": 1, "hex": "a914e1f347b5eb56b00b7532f49831052379424e82cf87", "addresses": ["3NHjQ72HJh1UVMDHKYiFag3k8sbK5N1sTA"], "asm": "OP_HASH160 e1f347b5eb56b00b7532f49831052379424e82cf OP_EQUAL", "type": "scripthash"}, "value": 0.12730267, "n": 1}], "hex": "010000000001016ec5032aac2d1f944272eac75cec4e8736242c92408d5acf24a3e57ef05debb401000000171600148bc080f54f48c64ca1cf8f4a190b99020eec5d5effffffff02372c1800000000001976a914de1bc6f61c0b8dcc3cc32b86b6c72805ffee35b388ac9b3fc2000000000017a914e1f347b5eb56b00b7532f49831052379424e82cf87024730440220692f7f7f9f2d6570ac5ca5aedcb26b6b123ce3ac5363183b8e3c44f20a24165e02202e9e1d082697f09092e07e243722a22255bbf36be2bad184f73a152469d16a63012103d1f0ea28b78e14d92b9abb6106456118516d7d1fccc1feb2404fa1a9780fa64100000000", "vin": [{"txinwitness": ["30440220692f7f7f9f2d6570ac5ca5aedcb26b6b123ce3ac5363183b8e3c44f20a24165e02202e9e1d082697f09092e07e243722a22255bbf36be2bad184f73a152469d16a6301", "03d1f0ea28b78e14d92b9abb6106456118516d7d1fccc1feb2404fa1a9780fa641"], "sequence": 4294967295, "scriptSig": {"hex": "1600148bc080f54f48c64ca1cf8f4a190b99020eec5d5e", "asm": "00148bc080f54f48c64ca1cf8f4a190b99020eec5d5e"}, "vout": 1, "txid": "b4eb5df07ee5a324cf5a8d40922c2436874eec5cc7ea7242941f2dac2a03c56e"}], "txid": "b938850318e3501a55567fd4ba3a2fc37869deaa9ae1b924ec5eb3dcbaaf8336", "blocktime": 1537870928, "version": 1, "confirmations": 11512, "time": 1537870928, "locktime": 0, "vsize": 168, "size": 249}