{"hash": "b93affe16492518566cbb9b2d19ac8228221e26b2f8e53d2ca293d5df640f97a", "blockhash": "00000000000000000024a2167bbff67b0be802c0b01cdd79e6331c2be6459f87", "vout": [{"scriptPubKey": {"reqSigs": 1, "hex": "76a9149c1234f2830fbe62270db8723cb35142ca62580088ac", "addresses": ["1FEEDxZZQpm18ooHtnZcsBjfn4NXVwMWqL"], "asm": "OP_DUP OP_HASH160 9c1234f2830fbe62270db8723cb35142ca625800 OP_EQUALVERIFY OP_CHECKSIG", "type": "pubkeyhash"}, "value": 0.0633, "n": 0}, {"scriptPubKey": {"reqSigs": 1, "hex": "76a914c8a84bc2ca54aec458d37baae8144ad2b873632f88ac", "addresses": ["1KHykmqbEAcQTyLdNnrE2KVpUHkwDVqWXZ"], "asm": "OP_DUP OP_HASH160 c8a84bc2ca54aec458d37baae8144ad2b873632f OP_EQUALVERIFY OP_CHECKSIG", "type": "pubkeyhash"}, "value": 0.15888777, "n": 1}], "hex": "0100000001c69b781968f3af1d30a2fb1928eee87ab5d1199e3fc58f099559f3688e0a31de010000006b483045022100866bd5e6d93629255b21077353aab8f593899fdef9051c4ffadc7c4e3922fcf602201a641a83944f99f2c77d344c6ce0e81a39fcd8daf48982b2e54b40856eaf7e4d0121020bcaa41cf94611cf1f5a90f20ed209f537da23f2fc928380f01acb1305970c5fffffffff0290966000000000001976a9149c1234f2830fbe62270db8723cb35142ca62580088ac8971f200000000001976a914c8a84bc2ca54aec458d37baae8144ad2b873632f88ac00000000", "vin": [{"sequence": 4294967295, "scriptSig": {"hex": "483045022100866bd5e6d93629255b21077353aab8f593899fdef9051c4ffadc7c4e3922fcf602201a641a83944f99f2c77d344c6ce0e81a39fcd8daf48982b2e54b40856eaf7e4d0121020bcaa41cf94611cf1f5a90f20ed209f537da23f2fc928380f01acb1305970c5f", "asm": "3045022100866bd5e6d93629255b21077353aab8f593899fdef9051c4ffadc7c4e3922fcf602201a641a83944f99f2c77d344c6ce0e81a39fcd8daf48982b2e54b40856eaf7e4d[ALL] 020bcaa41cf94611cf1f5a90f20ed209f537da23f2fc928380f01acb1305970c5f"}, "vout": 1, "txid": "de310a8e68f35995098fc53f9e19d1b57ae8ee2819fba2301daff36819789bc6"}], "txid": "b93affe16492518566cbb9b2d19ac8228221e26b2f8e53d2ca293d5df640f97a", "blocktime": 1537870564, "version": 1, "confirmations": 11515, "time": 1537870564, "locktime": 0, "vsize": 226, "size": 226}