{"hash": "b945cb99aef574d48f10f2d00d4efdd8cae523898a952a07390f1d2ea01ee4e2", "blockhash": "00000000000000000024a2167bbff67b0be802c0b01cdd79e6331c2be6459f87", "vout": [{"scriptPubKey": {"reqSigs": 1, "hex": "a9142f65be25d60fec9046b1f9559a478fcd1c0c7b4a87", "addresses": ["361dZmfx6WB914Wmr11g5LGjNbj7pT4112"], "asm": "OP_HASH160 2f65be25d60fec9046b1f9559a478fcd1c0c7b4a OP_EQUAL", "type": "scripthash"}, "value": 0.00012571, "n": 0}], "hex": "01000000014f5caf098f8ba5a61c157008ecca292182997e55bd0ce6f5bdf72b1e257e8a9e03000000fdfd00004730440220766a72627faae731560a311b943a17eb5c9856081c2f1cb7b32d16a5ae6d3ecf022041fdd4213f004d961a03b46bd0c497d4056ba3ebb6489d7e03fefc8ed3b5270b01483045022100cf831e3dbb1a6b673cabf7174429015fb8ab741599133178ce68797b54cf951a022077579431981dbe6caafa39ed7460dfcb1ea75f388330e8e77d7d6ef5088bd22d014c695221039ad3ab5541c15048dd7922490c1258d55f466f28314d25eec8862a2accd17cee21032f0f87094e1bc5f0604a24fdd271e533591f8efc2b88c9679fc28d80bde8d2db2102ee4b67e26bff4189ff88a0f12fe52e51c28cab54d6aeb82077849038c186736353aeffffffff011b3100000000000017a9142f65be25d60fec9046b1f9559a478fcd1c0c7b4a8700000000", "vin": [{"sequence": 4294967295, "scriptSig": {"hex": "004730440220766a72627faae731560a311b943a17eb5c9856081c2f1cb7b32d16a5ae6d3ecf022041fdd4213f004d961a03b46bd0c497d4056ba3ebb6489d7e03fefc8ed3b5270b01483045022100cf831e3dbb1a6b673cabf7174429015fb8ab741599133178ce68797b54cf951a022077579431981dbe6caafa39ed7460dfcb1ea75f388330e8e77d7d6ef5088bd22d014c695221039ad3ab5541c15048dd7922490c1258d55f466f28314d25eec8862a2accd17cee21032f0f87094e1bc5f0604a24fdd271e533591f8efc2b88c9679fc28d80bde8d2db2102ee4b67e26bff4189ff88a0f12fe52e51c28cab54d6aeb82077849038c186736353ae", "asm": "0 30440220766a72627faae731560a311b943a17eb5c9856081c2f1cb7b32d16a5ae6d3ecf022041fdd4213f004d961a03b46bd0c497d4056ba3ebb6489d7e03fefc8ed3b5270b[ALL] 3045022100cf831e3dbb1a6b673cabf7174429015fb8ab741599133178ce68797b54cf951a022077579431981dbe6caafa39ed7460dfcb1ea75f388330e8e77d7d6ef5088bd22d[ALL] 5221039ad3ab5541c15048dd7922490c1258d55f466f28314d25eec8862a2accd17cee21032f0f87094e1bc5f0604a24fdd271e533591f8efc2b88c9679fc28d80bde8d2db2102ee4b67e26bff4189ff88a0f12fe52e51c28cab54d6aeb82077849038c186736353ae"}, "vout": 3, "txid": "9e8a7e251e2bf7bdf5e60cbd557e99822129caec0870151ca6a58b8f09af5c4f"}], "txid": "b945cb99aef574d48f10f2d00d4efdd8cae523898a952a07390f1d2ea01ee4e2", "blocktime": 1537870564, "version": 1, "confirmations": 11515, "time": 1537870564, "locktime": 0, "vsize": 338, "size": 338}