{"hash": "0b42cb31212d093825ddd9516e376c38beabcc206e5d20ba5247070ae2008edd", "blockhash": "0000000000000000000dcc0f55137456b1a82d3642486a52398922ac4d620174", "vout": [{"scriptPubKey": {"reqSigs": 1, "hex": "a914d5bedd3758a9c05e003d6cdfa98313887f90ed7e87", "addresses": ["3MBCVsjhyWZJG5CcfSkg7C1d7djUiKoqhc"], "asm": "OP_HASH160 d5bedd3758a9c05e003d6cdfa98313887f90ed7e OP_EQUAL", "type": "scripthash"}, "value": 0.00468224, "n": 0}], "hex": "01000000000101c83d28006587a6b06bc92ccb7783e3c6184dd97a89fa4b79530f5f4aa3644ec20000000017160014ff03f9c02880f96dc014624352abaf556cc88f29ffffffff01002507000000000017a914d5bedd3758a9c05e003d6cdfa98313887f90ed7e8702473044022041c52ba17559c963df75b78cb064131802bc19873dd6331a86eda694b9fe4674022015d0dd053b8dd416ad4fcd879259ad60b7a945476e5e4ee079e7d7c7a5104f3b0121031aed2e575a2c74d1607e3fbbce12636ea537bb5c8e1196073092f39a1c15d37100000000", "vin": [{"txinwitness": ["3044022041c52ba17559c963df75b78cb064131802bc19873dd6331a86eda694b9fe4674022015d0dd053b8dd416ad4fcd879259ad60b7a945476e5e4ee079e7d7c7a5104f3b01", "031aed2e575a2c74d1607e3fbbce12636ea537bb5c8e1196073092f39a1c15d371"], "sequence": 4294967295, "scriptSig": {"hex": "160014ff03f9c02880f96dc014624352abaf556cc88f29", "asm": "0014ff03f9c02880f96dc014624352abaf556cc88f29"}, "vout": 0, "txid": "c24e64a34a5f0f53794bfa897ad94d18c6e38377cb2cc96bb0a6876500283dc8"}], "txid": "b946c8464302b3d7c3284ecb3fee14c7317939207e282620c0f4ad59053ca287", "blocktime": 1537870268, "version": 1, "confirmations": 11518, "time": 1537870268, "locktime": 0, "vsize": 134, "size": 215}