{"hash": "b9487d1b438e115b4be57b12011e7513d9e036313f2a8a8dcc42f4a9a3b7f667", "blockhash": "0000000000000000001f0ddff1eddb255c1121bcd4da4f1bc9a0da00cae72433", "vout": [{"scriptPubKey": {"reqSigs": 1, "hex": "a914d60b1d26a1b350d09f0609828cdcffe749c98e7887", "addresses": ["3MCmqoPwTLzFKv5MoZzcCgDbBERTbHntde"], "asm": "OP_HASH160 d60b1d26a1b350d09f0609828cdcffe749c98e78 OP_EQUAL", "type": "scripthash"}, "value": 0.047, "n": 0}, {"scriptPubKey": {"reqSigs": 1, "hex": "76a9148cb2a868d3ed1531d8e2a81a4db02e4a3b9a191788ac", "addresses": ["1DpwdDqLfx2aQsrYwpqNRvbjHmQL6eAueU"], "asm": "OP_DUP OP_HASH160 8cb2a868d3ed1531d8e2a81a4db02e4a3b9a1917 OP_EQUALVERIFY OP_CHECKSIG", "type": "pubkeyhash"}, "value": 5.439591, "n": 1}], "hex": "0100000001418152109c3852e537e9cde10a7d694d5718f691e5b61e8c3d6aa9c4047940a6010000006b483045022100972bfba858511c41d423ca620126c316abd6379ebfbe98faf404250e9d4470e202202f7473b5d2a9d1d76078c7f84097f6b9b146188f81c1bf37ba6238a231c0e37b0121031849c3f9f918c0cd40b85521d996caf4f48258f187cf00dcf6ef8d368d3b1975feffffff0260b747000000000017a914d60b1d26a1b350d09f0609828cdcffe749c98e78873c286c20000000001976a9148cb2a868d3ed1531d8e2a81a4db02e4a3b9a191788ac10490800", "vin": [{"sequence": 4294967294, "scriptSig": {"hex": "483045022100972bfba858511c41d423ca620126c316abd6379ebfbe98faf404250e9d4470e202202f7473b5d2a9d1d76078c7f84097f6b9b146188f81c1bf37ba6238a231c0e37b0121031849c3f9f918c0cd40b85521d996caf4f48258f187cf00dcf6ef8d368d3b1975", "asm": "3045022100972bfba858511c41d423ca620126c316abd6379ebfbe98faf404250e9d4470e202202f7473b5d2a9d1d76078c7f84097f6b9b146188f81c1bf37ba6238a231c0e37b[ALL] 031849c3f9f918c0cd40b85521d996caf4f48258f187cf00dcf6ef8d368d3b1975"}, "vout": 1, "txid": "a6407904c4a96a3d8c1eb6e591f618574d697d0ae1cde937e552389c10528141"}], "txid": "b9487d1b438e115b4be57b12011e7513d9e036313f2a8a8dcc42f4a9a3b7f667", "blocktime": 1537872018, "version": 1, "confirmations": 11489, "time": 1537872018, "locktime": 542992, "vsize": 224, "size": 224}