{"hash": "b948a199d289fd24b58f32539703e4c28397a9ec7f51176f32b527b22fe1c09a", "blockhash": "0000000000000000000dcc0f55137456b1a82d3642486a52398922ac4d620174", "vout": [{"scriptPubKey": {"reqSigs": 1, "hex": "76a9143984d5ede6a3df54140e73e89bfa732367dcf70088ac", "addresses": ["16F8eX3BHQs83ZbD144aPEX8fVhrbFhPzk"], "asm": "OP_DUP OP_HASH160 3984d5ede6a3df54140e73e89bfa732367dcf700 OP_EQUALVERIFY OP_CHECKSIG", "type": "pubkeyhash"}, "value": 0.30646204, "n": 0}, {"scriptPubKey": {"reqSigs": 1, "hex": "76a914c3f75e06b9ee9a0a16b5333efe405548f8e04b3788ac", "addresses": ["1JsB6ngNUB724CHFoWJcxuwjiQ1ZXc4dPG"], "asm": "OP_DUP OP_HASH160 c3f75e06b9ee9a0a16b5333efe405548f8e04b37 OP_EQUALVERIFY OP_CHECKSIG", "type": "pubkeyhash"}, "value": 1.5, "n": 1}], "hex": "0100000003df1e9ee5e0081ef559944755c2f79f1f3f7bab99e2650d3fa07d523aace47b07020000006a4730440220140b0172884fd96c11db3c6ccf85819a3402cab07e82ae5fd1f4cc563351fb6202200a159d177ec0c1ec84f70be4b735161986b6666dc5b86a90e79f0323b0d97e860121036d62f808525dc068f86bb7672178d83a9b127a1a7697702d6a6fa487bf94e22affffffff916e2134895674676a4e19a990fe4a208e49f4ec7045dea199488167953b570c030000006a47304402203a961a904cc4ac338b072602701f4f8885bf10a060f7540cc4bd621563127a49022041f7519c9f40427d1c1949fee212161acc1874ae4374d6b6ad9727f0310114d7012102f1f879061f58808627186b865aa4c4c884ef2a9ebb63d989c583e5fc2f7f9b11ffffffff63e8cb496319928ab317cf2c17354984967aaf058f3842ba5e7f022b2726f5d3020000006a47304402203601c0de85c952aea21640a7340bc20da2e34fe3dfade9207ebe8bb83049c40802205680ffdab91dd477b5ad89d967134e53e633af30b4ec06d1c65b444a69ada34c0121036d62f808525dc068f86bb7672178d83a9b127a1a7697702d6a6fa487bf94e22affffffff02bc9fd301000000001976a9143984d5ede6a3df54140e73e89bfa732367dcf70088ac80d1f008000000001976a914c3f75e06b9ee9a0a16b5333efe405548f8e04b3788ac00000000", "vin": [{"sequence": 4294967295, "scriptSig": {"hex": "4730440220140b0172884fd96c11db3c6ccf85819a3402cab07e82ae5fd1f4cc563351fb6202200a159d177ec0c1ec84f70be4b735161986b6666dc5b86a90e79f0323b0d97e860121036d62f808525dc068f86bb7672178d83a9b127a1a7697702d6a6fa487bf94e22a", "asm": "30440220140b0172884fd96c11db3c6ccf85819a3402cab07e82ae5fd1f4cc563351fb6202200a159d177ec0c1ec84f70be4b735161986b6666dc5b86a90e79f0323b0d97e86[ALL] 036d62f808525dc068f86bb7672178d83a9b127a1a7697702d6a6fa487bf94e22a"}, "vout": 2, "txid": "077be4ac3a527da03f0d65e299ab7b3f1f9ff7c255479459f51e08e0e59e1edf"}, {"sequence": 4294967295, "scriptSig": {"hex": "47304402203a961a904cc4ac338b072602701f4f8885bf10a060f7540cc4bd621563127a49022041f7519c9f40427d1c1949fee212161acc1874ae4374d6b6ad9727f0310114d7012102f1f879061f58808627186b865aa4c4c884ef2a9ebb63d989c583e5fc2f7f9b11", "asm": "304402203a961a904cc4ac338b072602701f4f8885bf10a060f7540cc4bd621563127a49022041f7519c9f40427d1c1949fee212161acc1874ae4374d6b6ad9727f0310114d7[ALL] 02f1f879061f58808627186b865aa4c4c884ef2a9ebb63d989c583e5fc2f7f9b11"}, "vout": 3, "txid": "0c573b9567814899a1de4570ecf4498e204afe90a9194e6a6774568934216e91"}, {"sequence": 4294967295, "scriptSig": {"hex": "47304402203601c0de85c952aea21640a7340bc20da2e34fe3dfade9207ebe8bb83049c40802205680ffdab91dd477b5ad89d967134e53e633af30b4ec06d1c65b444a69ada34c0121036d62f808525dc068f86bb7672178d83a9b127a1a7697702d6a6fa487bf94e22a", "asm": "304402203601c0de85c952aea21640a7340bc20da2e34fe3dfade9207ebe8bb83049c40802205680ffdab91dd477b5ad89d967134e53e633af30b4ec06d1c65b444a69ada34c[ALL] 036d62f808525dc068f86bb7672178d83a9b127a1a7697702d6a6fa487bf94e22a"}, "vout": 2, "txid": "d3f526272b027f5eba42388f05af7a96844935172ccf17b38a92196349cbe863"}], "txid": "b948a199d289fd24b58f32539703e4c28397a9ec7f51176f32b527b22fe1c09a", "blocktime": 1537870268, "version": 1, "confirmations": 11518, "time": 1537870268, "locktime": 0, "vsize": 519, "size": 519}