{"hash": "ac1e1e082d24a065449fd3976175ef7820c618fdba562aeaaf23ad053323a7c7", "blockhash": "0000000000000000001e0dab787dd257d1dbfcb92a98c2207d5e1078be1f4165", "vout": [{"scriptPubKey": {"reqSigs": 1, "hex": "a9145bed243c950cb07695f9f730aae31f686c8d7f8e87", "addresses": ["3A55VtE9MRsRngrX1YtRhwAeEDQ9bsBQQY"], "asm": "OP_HASH160 5bed243c950cb07695f9f730aae31f686c8d7f8e OP_EQUAL", "type": "scripthash"}, "value": 0.00411478, "n": 0}, {"scriptPubKey": {"reqSigs": 1, "hex": "a914caeadb7d66af908eec6fd48a4496337a5e58194c87", "addresses": ["3LBwmUEzJCoZLz3n8FUNtqmf17UwevGdxv"], "asm": "OP_HASH160 caeadb7d66af908eec6fd48a4496337a5e58194c OP_EQUAL", "type": "scripthash"}, "value": 0.00039, "n": 1}, {"scriptPubKey": {"reqSigs": 1, "hex": "76a9146acb9aefc8506bfc2fbe54994dbc6dce23a9430888ac", "addresses": ["1AjgY5DvrZipf8PjtT87ibhV6RFXui6fgi"], "asm": "OP_DUP OP_HASH160 6acb9aefc8506bfc2fbe54994dbc6dce23a94308 OP_EQUALVERIFY OP_CHECKSIG", "type": "pubkeyhash"}, "value": 0.01563, "n": 2}], "hex": "01000000000101af4681cc872b1ee7deb6f324bbbf70a1d13711cf13f13d8434f2f024f9b667e40000000023220020da86645404e8f2384280823c81b87494a8d9f55b2e59e88315b7ab88c545d2b3ffffffff03564706000000000017a9145bed243c950cb07695f9f730aae31f686c8d7f8e87589800000000000017a914caeadb7d66af908eec6fd48a4496337a5e58194c8778d91700000000001976a9146acb9aefc8506bfc2fbe54994dbc6dce23a9430888ac04004730440220548fec0d65ffcc1f2a8426eff46166e12af6d7dfa795c1a87757388d68ea9f9902200d347f58e7ff6dc220af0ed59b9d227960cde64b8ac0623d560cd400533a777601483045022100e234c50a29c5334c58bf658390def066b09dc242b7375b4e92efe7a5314c1dbe022017b5814df2c4adb8a3e73b03389f875c1ed120e9e16ebc7470030a500dbcade10169522102abfe2fac7ef956ca4a17a5503f9718b6cb16e5ed0449ad947dfcf70c7675a718210213bf406d599571d6f3be227509f5a2b0c6faea3bab4f83a4d6df26f19c373a692102fe04cd4388705b37c53d32cdbf8fbc773ce97de212a4512a1c7ac69fa2b6982c53ae00000000", "vin": [{"txinwitness": ["", "30440220548fec0d65ffcc1f2a8426eff46166e12af6d7dfa795c1a87757388d68ea9f9902200d347f58e7ff6dc220af0ed59b9d227960cde64b8ac0623d560cd400533a777601", "3045022100e234c50a29c5334c58bf658390def066b09dc242b7375b4e92efe7a5314c1dbe022017b5814df2c4adb8a3e73b03389f875c1ed120e9e16ebc7470030a500dbcade101", "522102abfe2fac7ef956ca4a17a5503f9718b6cb16e5ed0449ad947dfcf70c7675a718210213bf406d599571d6f3be227509f5a2b0c6faea3bab4f83a4d6df26f19c373a692102fe04cd4388705b37c53d32cdbf8fbc773ce97de212a4512a1c7ac69fa2b6982c53ae"], "sequence": 4294967295, "scriptSig": {"hex": "220020da86645404e8f2384280823c81b87494a8d9f55b2e59e88315b7ab88c545d2b3", "asm": "0020da86645404e8f2384280823c81b87494a8d9f55b2e59e88315b7ab88c545d2b3"}, "vout": 0, "txid": "e467b6f924f0f234843df113cf1137d1a170bfbb24f3b6dee71e2b87cc8146af"}], "txid": "b951444f08f2847c13cd08004b2ca33c3d953c7ee6116ca88e6163371b293108", "blocktime": 1537872475, "version": 1, "confirmations": 11486, "time": 1537872475, "locktime": 0, "vsize": 248, "size": 439}