{"hash": "b955c5f5cc728678acd6fa579b066319c6f75d63df08e3627ffc16700c812c94", "blockhash": "00000000000000000024a2167bbff67b0be802c0b01cdd79e6331c2be6459f87", "vout": [{"scriptPubKey": {"reqSigs": 1, "hex": "76a9149a4863303e5d673c8e7b27fefb453708729458bb88ac", "addresses": ["1F4mn7QUAJdw8wq9fffcBBohW3ahVUEzGj"], "asm": "OP_DUP OP_HASH160 9a4863303e5d673c8e7b27fefb453708729458bb OP_EQUALVERIFY OP_CHECKSIG", "type": "pubkeyhash"}, "value": 0.009, "n": 0}, {"scriptPubKey": {"reqSigs": 1, "hex": "76a914dac7538f901f70981a205b68091c1d4029f527c388ac", "addresses": ["1Lwo6G8ASkbKE8axSGfiKhVHAWt9dnsrpB"], "asm": "OP_DUP OP_HASH160 dac7538f901f70981a205b68091c1d4029f527c3 OP_EQUALVERIFY OP_CHECKSIG", "type": "pubkeyhash"}, "value": 1.52419784, "n": 1}], "hex": "0100000001a9e4be5c608253e8a03da4e004034024d21fb6a0235dee46ebaf3ce57987f1b4010000006b483045022100fc1b5bd31a82d6989fe1b47e8f147e2f06901ebabb98962398e8ce75014fb3260220584d589ccf7f2c4ec73c4be186e1cafd2819473596056c20141a3e7e28027cda01210223833b5d7301212bdbdc85bf0fe69786f55dd30ec8c5eb49cf4949e8d4ed530bffffffff02a0bb0d00000000001976a9149a4863303e5d673c8e7b27fefb453708729458bb88acc8bd1509000000001976a914dac7538f901f70981a205b68091c1d4029f527c388ac00000000", "vin": [{"sequence": 4294967295, "scriptSig": {"hex": "483045022100fc1b5bd31a82d6989fe1b47e8f147e2f06901ebabb98962398e8ce75014fb3260220584d589ccf7f2c4ec73c4be186e1cafd2819473596056c20141a3e7e28027cda01210223833b5d7301212bdbdc85bf0fe69786f55dd30ec8c5eb49cf4949e8d4ed530b", "asm": "3045022100fc1b5bd31a82d6989fe1b47e8f147e2f06901ebabb98962398e8ce75014fb3260220584d589ccf7f2c4ec73c4be186e1cafd2819473596056c20141a3e7e28027cda[ALL] 0223833b5d7301212bdbdc85bf0fe69786f55dd30ec8c5eb49cf4949e8d4ed530b"}, "vout": 1, "txid": "b4f18779e53cafeb46ee5d23a0b61fd224400304e0a43da0e85382605cbee4a9"}], "txid": "b955c5f5cc728678acd6fa579b066319c6f75d63df08e3627ffc16700c812c94", "blocktime": 1537870564, "version": 1, "confirmations": 11515, "time": 1537870564, "locktime": 0, "vsize": 226, "size": 226}