{"hash": "b958efb5f79fcc064e395e6897a444fc1d656cac98c454aafdf828b146308050", "blockhash": "0000000000000000001f0ddff1eddb255c1121bcd4da4f1bc9a0da00cae72433", "vout": [{"scriptPubKey": {"reqSigs": 1, "hex": "76a914a664d826f080f1632830110a5de1e2246c7e0da588ac", "addresses": ["1GAoyde77HQJR5KQ2RM7QR3bhnHq8wYLKA"], "asm": "OP_DUP OP_HASH160 a664d826f080f1632830110a5de1e2246c7e0da5 OP_EQUALVERIFY OP_CHECKSIG", "type": "pubkeyhash"}, "value": 2.635e-05, "n": 0}, {"scriptPubKey": {"reqSigs": 1, "hex": "76a91465215dea5af411f686473f0733105c747200f32488ac", "addresses": ["1ADjDkCMu3Ln4NxLFf6FWUMnjkjTDeqDsh"], "asm": "OP_DUP OP_HASH160 65215dea5af411f686473f0733105c747200f324 OP_EQUALVERIFY OP_CHECKSIG", "type": "pubkeyhash"}, "value": 0.05546121, "n": 1}], "hex": "01000000062a3afe40fafeb529db27a64089dca918b37fc4ac560fa6ee73e58a47ceeb8a07000000006b483045022100ea7facc90bf0c4bd9554706fb7b340c4c32727a5591c4a99e4b42303071cb9310220314175c446ebcd8db1b6fd40e5b70d96e101cbb8e3e8c63b65031657bd01b65a012102f3d054137da66d00c673988b24c99ea7a97d47b2ad2579bea668b2a2c47eac4bffffffff034c0446dbc4db11d8a4695300d463222d143ba5bf0761f1ea680ce3df82a62f000000006a47304402205cc803e9dc17c292f183bf4a15fc380b3292fd92fb64a560359bdbd7b6e58fc602206928428afabdb082659342248c7a49fae9c08d09632c4bf147be131439a3acb60121022aaf951323fc1709f6ba2af00fc8098c03daaee3d62c409b9f82195370e78cc6ffffffff6e33505e96df5f7cbe5e68e7aae79cf10b0405928c8dec983a2434c9d54cf445010000006b483045022100bf69c0dba685c75893c61dbe197804f1893c12777c26a5c7dcd5853a37b95d23022058f87afcd25949f00cc7f531e51e598d98ee374a74ddad8e7cddc6e0e5f32c10012103d56ebce7937ea5f6cc852832eeded12c35eeffa89903d65f870b1412c7d600acfffffffff9c741a55f051a72b8f4f07f7c52ab4d643b75d55ae77736dd23975e70c6b85a000000006b483045022100afe3dd2d9feefee5bec727d25e49cbab79d88a7734b1bd57812eb02ccb30fa610220659fafaaaac0943e22437499be496cce169f88c44423013ef996b75694458d2e012102f3d054137da66d00c673988b24c99ea7a97d47b2ad2579bea668b2a2c47eac4bffffffff7786911453b27ab6c3296ebd98967454bc30ac5a23af5ee2dc042fbc1f8bbade000000006a473044022045cb2e33095b73e9bcb0641a2be52470e06259138a70367d0fbb72245792ba020220225fab00d172337270e7eed836de48abb9b823e7677c3b21f0b8224b831ac90f0121028a0ad775a24e4d6e3831bd764d0c21ab0bb7a9c643b2dbaff0a949325be4d45effffffffceef51e6cdedb556fa5167b1da9eb9544a45049ba1f8c1c5619621d892ff7ae3000000006a47304402202cf760f0e6871d42fde40b23d973d86f655d338f6f26404d386c6e222165105402204095b77ead3fc40d6c027380ce1dca25f2e5ab21872930c9ac900e21eca15ff9012102f3d054137da66d00c673988b24c99ea7a97d47b2ad2579bea668b2a2c47eac4bffffffff024b0a0000000000001976a914a664d826f080f1632830110a5de1e2246c7e0da588ac89a05400000000001976a91465215dea5af411f686473f0733105c747200f32488ac00000000", "vin": [{"sequence": 4294967295, "scriptSig": {"hex": "483045022100ea7facc90bf0c4bd9554706fb7b340c4c32727a5591c4a99e4b42303071cb9310220314175c446ebcd8db1b6fd40e5b70d96e101cbb8e3e8c63b65031657bd01b65a012102f3d054137da66d00c673988b24c99ea7a97d47b2ad2579bea668b2a2c47eac4b", "asm": "3045022100ea7facc90bf0c4bd9554706fb7b340c4c32727a5591c4a99e4b42303071cb9310220314175c446ebcd8db1b6fd40e5b70d96e101cbb8e3e8c63b65031657bd01b65a[ALL] 02f3d054137da66d00c673988b24c99ea7a97d47b2ad2579bea668b2a2c47eac4b"}, "vout": 0, "txid": "078aebce478ae573eea60f56acc47fb318a9dc8940a627db29b5fefa40fe3a2a"}, {"sequence": 4294967295, "scriptSig": {"hex": "47304402205cc803e9dc17c292f183bf4a15fc380b3292fd92fb64a560359bdbd7b6e58fc602206928428afabdb082659342248c7a49fae9c08d09632c4bf147be131439a3acb60121022aaf951323fc1709f6ba2af00fc8098c03daaee3d62c409b9f82195370e78cc6", "asm": "304402205cc803e9dc17c292f183bf4a15fc380b3292fd92fb64a560359bdbd7b6e58fc602206928428afabdb082659342248c7a49fae9c08d09632c4bf147be131439a3acb6[ALL] 022aaf951323fc1709f6ba2af00fc8098c03daaee3d62c409b9f82195370e78cc6"}, "vout": 0, "txid": "2fa682dfe30c68eaf16107bfa53b142d2263d4005369a4d811dbc4db46044c03"}, {"sequence": 4294967295, "scriptSig": {"hex": "483045022100bf69c0dba685c75893c61dbe197804f1893c12777c26a5c7dcd5853a37b95d23022058f87afcd25949f00cc7f531e51e598d98ee374a74ddad8e7cddc6e0e5f32c10012103d56ebce7937ea5f6cc852832eeded12c35eeffa89903d65f870b1412c7d600ac", "asm": "3045022100bf69c0dba685c75893c61dbe197804f1893c12777c26a5c7dcd5853a37b95d23022058f87afcd25949f00cc7f531e51e598d98ee374a74ddad8e7cddc6e0e5f32c10[ALL] 03d56ebce7937ea5f6cc852832eeded12c35eeffa89903d65f870b1412c7d600ac"}, "vout": 1, "txid": "45f44cd5c934243a98ec8d8c9205040bf19ce7aae7685ebe7c5fdf965e50336e"}, {"sequence": 4294967295, "scriptSig": {"hex": "483045022100afe3dd2d9feefee5bec727d25e49cbab79d88a7734b1bd57812eb02ccb30fa610220659fafaaaac0943e22437499be496cce169f88c44423013ef996b75694458d2e012102f3d054137da66d00c673988b24c99ea7a97d47b2ad2579bea668b2a2c47eac4b", "asm": "3045022100afe3dd2d9feefee5bec727d25e49cbab79d88a7734b1bd57812eb02ccb30fa610220659fafaaaac0943e22437499be496cce169f88c44423013ef996b75694458d2e[ALL] 02f3d054137da66d00c673988b24c99ea7a97d47b2ad2579bea668b2a2c47eac4b"}, "vout": 0, "txid": "5ab8c6705e9723dd3677e75ad5753b644dab527c7ff0f4b8721a055fa541c7f9"}, {"sequence": 4294967295, "scriptSig": {"hex": "473044022045cb2e33095b73e9bcb0641a2be52470e06259138a70367d0fbb72245792ba020220225fab00d172337270e7eed836de48abb9b823e7677c3b21f0b8224b831ac90f0121028a0ad775a24e4d6e3831bd764d0c21ab0bb7a9c643b2dbaff0a949325be4d45e", "asm": "3044022045cb2e33095b73e9bcb0641a2be52470e06259138a70367d0fbb72245792ba020220225fab00d172337270e7eed836de48abb9b823e7677c3b21f0b8224b831ac90f[ALL] 028a0ad775a24e4d6e3831bd764d0c21ab0bb7a9c643b2dbaff0a949325be4d45e"}, "vout": 0, "txid": "deba8b1fbc2f04dce25eaf235aac30bc54749698bd6e29c3b67ab25314918677"}, {"sequence": 4294967295, "scriptSig": {"hex": "47304402202cf760f0e6871d42fde40b23d973d86f655d338f6f26404d386c6e222165105402204095b77ead3fc40d6c027380ce1dca25f2e5ab21872930c9ac900e21eca15ff9012102f3d054137da66d00c673988b24c99ea7a97d47b2ad2579bea668b2a2c47eac4b", "asm": "304402202cf760f0e6871d42fde40b23d973d86f655d338f6f26404d386c6e222165105402204095b77ead3fc40d6c027380ce1dca25f2e5ab21872930c9ac900e21eca15ff9[ALL] 02f3d054137da66d00c673988b24c99ea7a97d47b2ad2579bea668b2a2c47eac4b"}, "vout": 0, "txid": "e37aff92d8219661c5c1f8a19b04454a54b99edab16751fa56b5edcde651efce"}], "txid": "b958efb5f79fcc064e395e6897a444fc1d656cac98c454aafdf828b146308050", "blocktime": 1537872018, "version": 1, "confirmations": 11489, "time": 1537872018, "locktime": 0, "vsize": 963, "size": 963}