{"hash": "360affc9a29ea886b0e1055e4aca2b88a5e21eab8b5259351704389ccdf1cedd", "blockhash": "0000000000000000001f76057863aec43deb6fa401d9628bb513d65a8098bfab", "vout": [{"scriptPubKey": {"reqSigs": 1, "hex": "0014c1faf0c31a81678f6699348529ec31b6ff852df6", "addresses": ["bc1qc8a0psc6s9nc7e5exjzjnmp3kmlc2t0k9jrqz9"], "asm": "0 c1faf0c31a81678f6699348529ec31b6ff852df6", "type": "witness_v0_keyhash"}, "value": 0.00024412, "n": 0}, {"scriptPubKey": {"reqSigs": 1, "hex": "76a9149d59d792acfebf3fe2888f4d34da930e3bc158e588ac", "addresses": ["1FLziTNUE2Sts3epnphsrjuBtv37AEHvqt"], "asm": "OP_DUP OP_HASH160 9d59d792acfebf3fe2888f4d34da930e3bc158e5 OP_EQUALVERIFY OP_CHECKSIG", "type": "pubkeyhash"}, "value": 0.09975, "n": 1}], "hex": "01000000000101432da305c4979700454262b6f5de7d17d1e521aeb2a4cc47de36843ddc876c210400000017160014f89f95091a2b04a4955037cfdda7ad863b97b1faffffffff025c5f000000000000160014c1faf0c31a81678f6699348529ec31b6ff852df6d8349800000000001976a9149d59d792acfebf3fe2888f4d34da930e3bc158e588ac0248304502210091c2e5f10e3656c11d8fd5a68ce0f833599780131f96bd2119daa81e9c0043e902201f92f5cca3a711a00af2421b79091976e8f3398f9e0c390aa81cb31b2463cf6701210349990910ef948fa429e3dd7d086e163250b27faf73c0e802a569698d8e6b4fd900000000", "vin": [{"txinwitness": ["304502210091c2e5f10e3656c11d8fd5a68ce0f833599780131f96bd2119daa81e9c0043e902201f92f5cca3a711a00af2421b79091976e8f3398f9e0c390aa81cb31b2463cf6701", "0349990910ef948fa429e3dd7d086e163250b27faf73c0e802a569698d8e6b4fd9"], "sequence": 4294967295, "scriptSig": {"hex": "160014f89f95091a2b04a4955037cfdda7ad863b97b1fa", "asm": "0014f89f95091a2b04a4955037cfdda7ad863b97b1fa"}, "vout": 4, "txid": "216c87dc3d8436de47cca4b2ae21e5d1177ddef5b6624245009797c405a32d43"}], "txid": "b95cc9915f7cd30c02313864c781df4c9e19345a1247834fa676fae0e84707e7", "blocktime": 1537873891, "version": 1, "confirmations": 11478, "time": 1537873891, "locktime": 0, "vsize": 167, "size": 249}