{"hash": "2fe40b7a738521e2d0ac8c9c34eff6f6afdf05ad201b9710fac0b67863a2cb66", "blockhash": "0000000000000000001e0dab787dd257d1dbfcb92a98c2207d5e1078be1f4165", "vout": [{"scriptPubKey": {"reqSigs": 1, "hex": "a914e8db75c900cf08f06518e96d167331f2a4abfb3387", "addresses": ["3NvFbQMAkkqEFj4i1sYPPLkSWzxTFUchjA"], "asm": "OP_HASH160 e8db75c900cf08f06518e96d167331f2a4abfb33 OP_EQUAL", "type": "scripthash"}, "value": 9.574e-05, "n": 0}], "hex": "01000000000101d10f99a2819d36431b548a19465ca90c86be2857d9797d10478a50db2e11a6c3010000001716001442d1fa4a73a91b6c97ef9d6c255dc69a6c8ef99effffffff01662500000000000017a914e8db75c900cf08f06518e96d167331f2a4abfb33870247304402200e0dc1729aaef888063b3632fd57ea171233de2fb73ce65d2527827449affa5502205050f8a21fae15431bd526f54165ae1cb31da60616b0baf5ab07f071c29bb1c2012102f2b10179382d623c373807178b911fdf4fc252152b6ad49ff879826edeef164600000000", "vin": [{"txinwitness": ["304402200e0dc1729aaef888063b3632fd57ea171233de2fb73ce65d2527827449affa5502205050f8a21fae15431bd526f54165ae1cb31da60616b0baf5ab07f071c29bb1c201", "02f2b10179382d623c373807178b911fdf4fc252152b6ad49ff879826edeef1646"], "sequence": 4294967295, "scriptSig": {"hex": "16001442d1fa4a73a91b6c97ef9d6c255dc69a6c8ef99e", "asm": "001442d1fa4a73a91b6c97ef9d6c255dc69a6c8ef99e"}, "vout": 1, "txid": "c3a6112edb508a47107d79d95728be860ca95c46198a541b43369d81a2990fd1"}], "txid": "b95ec55cbd0168055f29d1d60e241cd9ed98826b83fbd578404ec02786f61125", "blocktime": 1537872475, "version": 1, "confirmations": 11487, "time": 1537872475, "locktime": 0, "vsize": 134, "size": 215}