{"hash": "b95f1e7ab7c73b8860cafacb5f78a6788c953ceba9e4da33b3363147a9450bc0", "blockhash": "00000000000000000018f53835495a110e01622372bf6ae95dc86f2b0ab887b0", "vout": [{"scriptPubKey": {"reqSigs": 1, "hex": "76a914352ff845ee52af9e3676c2e915f8bb1ab2e4927a88ac", "addresses": ["15rEHAmGp4yXgTQ3oiAxV1ZSqCj2cVGXao"], "asm": "OP_DUP OP_HASH160 352ff845ee52af9e3676c2e915f8bb1ab2e4927a OP_EQUALVERIFY OP_CHECKSIG", "type": "pubkeyhash"}, "value": 0.00647332, "n": 0}, {"scriptPubKey": {"type": "nulldata", "hex": "6a4c500000778a00018c2006064182e1e4eaecdd68e3ef3236678a625097bcbefa6b8351586b4e7a7ca6b3f273977974e72d62a9b05e015baa0bda0613db55cc9388541d100759d4ba30d2c37bb011d97e02cf", "asm": "OP_RETURN 0000778a00018c2006064182e1e4eaecdd68e3ef3236678a625097bcbefa6b8351586b4e7a7ca6b3f273977974e72d62a9b05e015baa0bda0613db55cc9388541d100759d4ba30d2c37bb011d97e02cf"}, "value": 0.0, "n": 1}], "hex": "0100000001eb69503601cbea2c0d3a925e79403ac2f9e151ba541a0f741c7c7dc73c1cf286010000006b4830450221009bba17111c7de02058820bfdec2c736472135fa30fd48fd88b58e9ba6681c91c02202de708166868e07c5cdb9051c8d0b22a53072b2c2b7272728036881de116a70001210361e540bf2ff31ca8664df2d0d8bf5953a3ad292bbc3f8307371ad029b33cefddffffffff02a4e00900000000001976a914352ff845ee52af9e3676c2e915f8bb1ab2e4927a88ac0000000000000000536a4c500000778a00018c2006064182e1e4eaecdd68e3ef3236678a625097bcbefa6b8351586b4e7a7ca6b3f273977974e72d62a9b05e015baa0bda0613db55cc9388541d100759d4ba30d2c37bb011d97e02cf00000000", "vin": [{"sequence": 4294967295, "scriptSig": {"hex": "4830450221009bba17111c7de02058820bfdec2c736472135fa30fd48fd88b58e9ba6681c91c02202de708166868e07c5cdb9051c8d0b22a53072b2c2b7272728036881de116a70001210361e540bf2ff31ca8664df2d0d8bf5953a3ad292bbc3f8307371ad029b33cefdd", "asm": "30450221009bba17111c7de02058820bfdec2c736472135fa30fd48fd88b58e9ba6681c91c02202de708166868e07c5cdb9051c8d0b22a53072b2c2b7272728036881de116a700[ALL] 0361e540bf2ff31ca8664df2d0d8bf5953a3ad292bbc3f8307371ad029b33cefdd"}, "vout": 1, "txid": "86f21c3cc77d7c1c740f1a54ba51e1f9c23a40795e923a0d2ceacb01365069eb"}], "txid": "b95f1e7ab7c73b8860cafacb5f78a6788c953ceba9e4da33b3363147a9450bc0", "blocktime": 1537870928, "version": 1, "confirmations": 11513, "time": 1537870928, "locktime": 0, "vsize": 284, "size": 284}