{"hash": "b963cb45fd118482c406ba247fe8dfa0bfdf3186294775b3b5b543138e8d2e55", "blockhash": "0000000000000000000baef3f32e3676a92c3b2e5da21b426e4f302fc371ce76", "vout": [{"scriptPubKey": {"reqSigs": 1, "hex": "76a9142fd50fdecc50c16d0e4361adfef627b48b6960a588ac", "addresses": ["15Muzpj6SyA8kQuFsbVMNQZyunrJx2z7Gn"], "asm": "OP_DUP OP_HASH160 2fd50fdecc50c16d0e4361adfef627b48b6960a5 OP_EQUALVERIFY OP_CHECKSIG", "type": "pubkeyhash"}, "value": 0.00631621, "n": 0}, {"scriptPubKey": {"type": "nulldata", "hex": "6a4c500000780b0001c62c37326542310d3c9be8c8702940d64fa54d8eb2d19ed074892d00f8e8be1f3df4655f94010073d44cbb5559c95baa1b140613da8f06ce6d2c1d100759d4ba30d2c37bb011d97e02cf", "asm": "OP_RETURN 0000780b0001c62c37326542310d3c9be8c8702940d64fa54d8eb2d19ed074892d00f8e8be1f3df4655f94010073d44cbb5559c95baa1b140613da8f06ce6d2c1d100759d4ba30d2c37bb011d97e02cf"}, "value": 0.0, "n": 1}], "hex": "010000000133b5ea27a5ce04b44c94a65261f1359b3846cfa1beccd7a4a8bd21919e9b5709000000006b483045022100860e01df535e18ccb57541b315f94ce431822bac8801a8bcedaa45c276e79ea90220792d8a0c9a453b9b714e73b92979b97a554b906925da915a8bdc271bf4949e4301210311874f2b7727fb64b61e0c150c2b929f0debe2da7fe5f503d9e2b9c09ae59f70ffffffff0245a30900000000001976a9142fd50fdecc50c16d0e4361adfef627b48b6960a588ac0000000000000000536a4c500000780b0001c62c37326542310d3c9be8c8702940d64fa54d8eb2d19ed074892d00f8e8be1f3df4655f94010073d44cbb5559c95baa1b140613da8f06ce6d2c1d100759d4ba30d2c37bb011d97e02cf00000000", "vin": [{"sequence": 4294967295, "scriptSig": {"hex": "483045022100860e01df535e18ccb57541b315f94ce431822bac8801a8bcedaa45c276e79ea90220792d8a0c9a453b9b714e73b92979b97a554b906925da915a8bdc271bf4949e4301210311874f2b7727fb64b61e0c150c2b929f0debe2da7fe5f503d9e2b9c09ae59f70", "asm": "3045022100860e01df535e18ccb57541b315f94ce431822bac8801a8bcedaa45c276e79ea90220792d8a0c9a453b9b714e73b92979b97a554b906925da915a8bdc271bf4949e43[ALL] 0311874f2b7727fb64b61e0c150c2b929f0debe2da7fe5f503d9e2b9c09ae59f70"}, "vout": 0, "txid": "09579b9e9121bda8a4d7ccbea1cf46389b35f16152a6944cb404cea527eab533"}], "txid": "b963cb45fd118482c406ba247fe8dfa0bfdf3186294775b3b5b543138e8d2e55", "blocktime": 1537876114, "version": 1, "confirmations": 11463, "time": 1537876114, "locktime": 0, "vsize": 284, "size": 284}