{"hash": "b964cc1e7fbc81c00ebf545039fdc4b41b72d1b101a9bf6d369892b772e1ea1f", "blockhash": "0000000000000000000e13cef7c366c0283d82e591d1acd082e914b08063cdf1", "vout": [{"scriptPubKey": {"reqSigs": 1, "hex": "76a9149fd05929c1ec86974805f9061fe40adec762cd7788ac", "addresses": ["1Fa22o4rhPLvCT418FHGZwFh8dtsXDdw5X"], "asm": "OP_DUP OP_HASH160 9fd05929c1ec86974805f9061fe40adec762cd77 OP_EQUALVERIFY OP_CHECKSIG", "type": "pubkeyhash"}, "value": 0.0008004, "n": 0}, {"scriptPubKey": {"reqSigs": 1, "hex": "76a9149c28ea317e0c4e14d73ed556313fd3137a41af3088ac", "addresses": ["1FEhRjjzHN2ZpucWhQEziLUZ7fx6g1atHm"], "asm": "OP_DUP OP_HASH160 9c28ea317e0c4e14d73ed556313fd3137a41af30 OP_EQUALVERIFY OP_CHECKSIG", "type": "pubkeyhash"}, "value": 0.0209792, "n": 1}], "hex": "0100000001a0dd994eb3884d011d3ce3d805125dde15a4290d9cdc3899233608ead095c5fc010000006b4830450221009eb42f7b7260a80269cb5b850caf35d95e289fe6217e84b66201bead203db226022001ad63e728e4866c0a52b75fc5c3c8d330b7b86c6a1d8d7b5eaccfc9e23f10370121035f5c3b4b5d3ca1624156716245ba0f751d7a77ff3153a119499e691caf91b3bfffffffff02a8380100000000001976a9149fd05929c1ec86974805f9061fe40adec762cd7788ac00032000000000001976a9149c28ea317e0c4e14d73ed556313fd3137a41af3088ac00000000", "vin": [{"sequence": 4294967295, "scriptSig": {"hex": "4830450221009eb42f7b7260a80269cb5b850caf35d95e289fe6217e84b66201bead203db226022001ad63e728e4866c0a52b75fc5c3c8d330b7b86c6a1d8d7b5eaccfc9e23f10370121035f5c3b4b5d3ca1624156716245ba0f751d7a77ff3153a119499e691caf91b3bf", "asm": "30450221009eb42f7b7260a80269cb5b850caf35d95e289fe6217e84b66201bead203db226022001ad63e728e4866c0a52b75fc5c3c8d330b7b86c6a1d8d7b5eaccfc9e23f1037[ALL] 035f5c3b4b5d3ca1624156716245ba0f751d7a77ff3153a119499e691caf91b3bf"}, "vout": 1, "txid": "fcc595d0ea0836239938dc9c0d29a415de5d1205d8e33c1d014d88b34e99dda0"}], "txid": "b964cc1e7fbc81c00ebf545039fdc4b41b72d1b101a9bf6d369892b772e1ea1f", "blocktime": 1537871767, "version": 1, "confirmations": 11495, "time": 1537871767, "locktime": 0, "vsize": 226, "size": 226}