{"hash": "19e0a029de81ac9f1a1bb1c7d614b36a55d010106339349e346015a670b0957f", "blockhash": "00000000000000000017f5eb5941039fbcee6240d03bc1f2f8e35350df66a1d8", "vout": [{"scriptPubKey": {"reqSigs": 1, "hex": "a914d8ca606dd76cb299da942664cdb8c3cfb628df2d87", "addresses": ["3MTJKMfVy6hokpRTtCGmRqXgLaeFVn1hjg"], "asm": "OP_HASH160 d8ca606dd76cb299da942664cdb8c3cfb628df2d OP_EQUAL", "type": "scripthash"}, "value": 0.01122987, "n": 0}, {"scriptPubKey": {"reqSigs": 1, "hex": "76a914b55649c194881389dbf1b54b81a544272554d14d88ac", "addresses": ["1HXpg8D9AMGFVZ9FEU2tkZYvAZ8xBhVudo"], "asm": "OP_DUP OP_HASH160 b55649c194881389dbf1b54b81a544272554d14d OP_EQUALVERIFY OP_CHECKSIG", "type": "pubkeyhash"}, "value": 0.0025236, "n": 1}], "hex": "020000000001029e3218b43791cce9b7d1bb736fbb50de7352f7087b6093b0cdefc7a1dbf74037000000001716001486bd87b2371055727e52ea77a5243bf1f655843ffeffffffa00b007e42116b7b52d97b13ddf4daccebc9d14df0241b64d9679254aa8421710000000017160014964afa840be5ef53e51020eef5bc3b84129e93f2feffffff02ab2211000000000017a914d8ca606dd76cb299da942664cdb8c3cfb628df2d87c8d90300000000001976a914b55649c194881389dbf1b54b81a544272554d14d88ac0248304502210086d24dbc0fc2b0b916c24bf167c9f9165e97f9bd835ef2c1de39fd9fc3b857740220264e39ee558a68a4ea27653f861174e7ab617f3a91e16f98a3887d42be3a75f5012102fe0d050748cc391c8acaf2acd7d2ff15477853cb8a9f038b1f6616d183d4fae0024730440220678064ca09b08254f76fb16ef0af60b0d14c55732725c664fa7ee909175c77a602203c3421f4e134b1f32c58ff01967c605f42c25b36fdb5afd9836a34a38d322d90012102a795c1418ea1888a4f69b3d0cd8e41b1015cf7f3d540e8eef0878041ef0db58cf1480800", "vin": [{"txinwitness": ["304502210086d24dbc0fc2b0b916c24bf167c9f9165e97f9bd835ef2c1de39fd9fc3b857740220264e39ee558a68a4ea27653f861174e7ab617f3a91e16f98a3887d42be3a75f501", "02fe0d050748cc391c8acaf2acd7d2ff15477853cb8a9f038b1f6616d183d4fae0"], "sequence": 4294967294, "scriptSig": {"hex": "16001486bd87b2371055727e52ea77a5243bf1f655843f", "asm": "001486bd87b2371055727e52ea77a5243bf1f655843f"}, "vout": 0, "txid": "3740f7dba1c7efcdb093607b08f75273de50bb6f73bbd1b7e9cc9137b418329e"}, {"txinwitness": ["30440220678064ca09b08254f76fb16ef0af60b0d14c55732725c664fa7ee909175c77a602203c3421f4e134b1f32c58ff01967c605f42c25b36fdb5afd9836a34a38d322d9001", "02a795c1418ea1888a4f69b3d0cd8e41b1015cf7f3d540e8eef0878041ef0db58c"], "sequence": 4294967294, "scriptSig": {"hex": "160014964afa840be5ef53e51020eef5bc3b84129e93f2", "asm": "0014964afa840be5ef53e51020eef5bc3b84129e93f2"}, "vout": 0, "txid": "712184aa549267d9641b24f04dd1c9ebccdaf4dd137bd9527b6b11427e000ba0"}], "txid": "b964655032d7db450aa57430faec9cafdd1b6898858380bc64485bcc19c6e96e", "blocktime": 1537874412, "version": 2, "confirmations": 11468, "time": 1537874412, "locktime": 542961, "vsize": 259, "size": 421}