{"hash": "b07adeb5e041ddd0a59750c812b492d47b0e18f67aa6f71d136f5c14b1173087", "blockhash": "000000000000000000022b45ed06c6f4ccd3cf7fb5ba4856ebd2e58215665228", "vout": [{"scriptPubKey": {"reqSigs": 1, "hex": "a9143e218c79f28636a0fac7a49e3116f986d3f4ca0c87", "addresses": ["37MY1SimMZgCd8nzSTi4N4jNLuBMxALMgu"], "asm": "OP_HASH160 3e218c79f28636a0fac7a49e3116f986d3f4ca0c OP_EQUAL", "type": "scripthash"}, "value": 0.01001588, "n": 0}, {"scriptPubKey": {"reqSigs": 1, "hex": "76a914b3054afa9d848a35c4425698a01dddc9e60660a288ac", "addresses": ["1HKaJ6SiiKz6QDnmJrWPW7UhxVGfZn6xQc"], "asm": "OP_DUP OP_HASH160 b3054afa9d848a35c4425698a01dddc9e60660a2 OP_EQUALVERIFY OP_CHECKSIG", "type": "pubkeyhash"}, "value": 0.00669842, "n": 1}], "hex": "020000000001025a9fec17ed3f967ea5561b2004fe3c8c355650d4fa944b081022da74c33ff2b60100000017160014dc13617b4d60b4773c5f570774584a1f80a626eafeffffff7ca09eb20dc03f95746331dcc156a5f4588e23475c811fa73c7153ce9a7b7a580100000017160014b3034118c3a9548b472023a4eda1cfd254921bd5feffffff0274480f000000000017a9143e218c79f28636a0fac7a49e3116f986d3f4ca0c8792380a00000000001976a914b3054afa9d848a35c4425698a01dddc9e60660a288ac024830450221008182bffa630bb6488b2f6cecf8ee9944ec63d8a512eff9ac3fa57243c26acffd02203091cf7bb065d7b26e97526156535e6c89845377c7407cbb76024aee4f39d66e0121022b42de674401b3346046fbb4265f213bcda6d47454a2fafbffc9badb6ea2b6d7024830450221008e7ef0e97f7017182a4cd606fdaa99e91d658a17189010a23071ab8d88bc123502207974de5a48bf32ce08f55b4012ee6630e264e7d6ac6fb32409af5ca9879bf316012103d34220fbe134c2050c9321e5dab04233c63c4409190e253bcb4953ea8499ef640b490800", "vin": [{"txinwitness": ["30450221008182bffa630bb6488b2f6cecf8ee9944ec63d8a512eff9ac3fa57243c26acffd02203091cf7bb065d7b26e97526156535e6c89845377c7407cbb76024aee4f39d66e01", "022b42de674401b3346046fbb4265f213bcda6d47454a2fafbffc9badb6ea2b6d7"], "sequence": 4294967294, "scriptSig": {"hex": "160014dc13617b4d60b4773c5f570774584a1f80a626ea", "asm": "0014dc13617b4d60b4773c5f570774584a1f80a626ea"}, "vout": 1, "txid": "b6f23fc374da2210084b94fad45056358c3cfe04201b56a57e963fed17ec9f5a"}, {"txinwitness": ["30450221008e7ef0e97f7017182a4cd606fdaa99e91d658a17189010a23071ab8d88bc123502207974de5a48bf32ce08f55b4012ee6630e264e7d6ac6fb32409af5ca9879bf31601", "03d34220fbe134c2050c9321e5dab04233c63c4409190e253bcb4953ea8499ef64"], "sequence": 4294967294, "scriptSig": {"hex": "160014b3034118c3a9548b472023a4eda1cfd254921bd5", "asm": "0014b3034118c3a9548b472023a4eda1cfd254921bd5"}, "vout": 1, "txid": "587a7b9ace53713ca71f815c47238e58f4a556c1dc316374953fc00db29ea07c"}], "txid": "b968c972e4fc156e7910f31a3e3a4f68b13d2cd292237a181887933fbfb3f6fa", "blocktime": 1537869901, "version": 2, "confirmations": 11524, "time": 1537869901, "locktime": 542987, "vsize": 259, "size": 422}