{"hash": "b96f14ac4f7c5356e4d55b402fd0d5613dce29b4d96584441a0aa98d6fef4382", "blockhash": "0000000000000000001f0ddff1eddb255c1121bcd4da4f1bc9a0da00cae72433", "vout": [{"scriptPubKey": {"reqSigs": 1, "hex": "76a914544af41ebe142c642349311580a0a636bbd091da88ac", "addresses": ["18ghYytKZVRK5YMMdefBsq7T4dYESZUAZp"], "asm": "OP_DUP OP_HASH160 544af41ebe142c642349311580a0a636bbd091da OP_EQUALVERIFY OP_CHECKSIG", "type": "pubkeyhash"}, "value": 0.00179808, "n": 0}], "hex": "0100000001e5d88ad400f4bdc705da99dbaf7ec28ed0a3e42c6e1c2c7bdc2b961ddb51341d0f0000006a47304402203ce1fe5c84f0d42766052b92e206e71a97c17c5e36289441aee5a0ed3cda2a40022079b170f9829bea1e4c76a507fe0b39a560c542f5cc98bc79f2c4c80d690a87790121037d0d865027a2b014f31ba3a4074161667d92e3ede75265056594ec68b5532c90fdffffff0160be0200000000001976a914544af41ebe142c642349311580a0a636bbd091da88ac11490800", "vin": [{"sequence": 4294967293, "scriptSig": {"hex": "47304402203ce1fe5c84f0d42766052b92e206e71a97c17c5e36289441aee5a0ed3cda2a40022079b170f9829bea1e4c76a507fe0b39a560c542f5cc98bc79f2c4c80d690a87790121037d0d865027a2b014f31ba3a4074161667d92e3ede75265056594ec68b5532c90", "asm": "304402203ce1fe5c84f0d42766052b92e206e71a97c17c5e36289441aee5a0ed3cda2a40022079b170f9829bea1e4c76a507fe0b39a560c542f5cc98bc79f2c4c80d690a8779[ALL] 037d0d865027a2b014f31ba3a4074161667d92e3ede75265056594ec68b5532c90"}, "vout": 15, "txid": "1d3451db1d962bdc7b2c1c6e2ce4a3d08ec27eafdb99da05c7bdf400d48ad8e5"}], "txid": "b96f14ac4f7c5356e4d55b402fd0d5613dce29b4d96584441a0aa98d6fef4382", "blocktime": 1537872018, "version": 1, "confirmations": 11489, "time": 1537872018, "locktime": 542993, "vsize": 191, "size": 191}