{"hash": "84833b43adaf4b186153c0a32c43ea6741e7cca1eef1b04b46b23042c4851deb", "blockhash": "000000000000000000022b45ed06c6f4ccd3cf7fb5ba4856ebd2e58215665228", "vout": [{"scriptPubKey": {"reqSigs": 1, "hex": "a9146eda204c07c031893e1470296a0ff2fd29781dcb87", "addresses": ["3Bo9ZKJdbSidajHEuHjeSn7GDNX5hQuZZx"], "asm": "OP_HASH160 6eda204c07c031893e1470296a0ff2fd29781dcb OP_EQUAL", "type": "scripthash"}, "value": 0.01042533, "n": 0}, {"scriptPubKey": {"reqSigs": 1, "hex": "a914c5a8587ae7855f480d812e3f724bdb0a4005a31487", "addresses": ["3Ki8iCB3StuzuZ8TiBuCwoyfzwM9LGvPRp"], "asm": "OP_HASH160 c5a8587ae7855f480d812e3f724bdb0a4005a314 OP_EQUAL", "type": "scripthash"}, "value": 0.01386971, "n": 1}], "hex": "020000000001038d8f03a865d1f60951853fa2ed7af11a2bc90843a077e38dbb8836a5b5afabf9000000001716001481aea0ecd7e06f1c1f889ecac7e2c2f6d4ff0888feffffffc94e8c74799a572d24733441d7acd5866318465b896cb2281c09bcbeded89f050a01000017160014ed0e4c29c02d50a4227a1c85bf7eb36ae88d5538feffffffd723525026570dff3e9dbaa864aa1e22bb757ad2fb3673bc1eae1adcdbc70976980000001716001499c8a4cb1ce9610e0829a64b58cba134828c3aa0feffffff0265e80f000000000017a9146eda204c07c031893e1470296a0ff2fd29781dcb87db2915000000000017a914c5a8587ae7855f480d812e3f724bdb0a4005a3148702483045022100dff83bbde7ff8323b59652cc859e0421a974972064cfac9e623136cdf7fcaf6102200c70a35ab94c794759c96bebec7f9d1b7752a09b6fe80de0ff95bdbb2f11b4ac012102dd0504cb70751b980270097284c6d857651a48563d0376acdbd6e785ec99f6a902483045022100e1d5c83c0d1a567f9f5add8df0c03096e9afd0ed8b387c2d23fc012486a970b70220132a34a6ea03a276b9a4521857c5e6d3d7881972a24fab99f8f3039962e198190121031abc033d7b6f60e0d1d4c535f25680b44073fc27cea3a665395840f395bd14f60247304402200beda8e45a1bb207076e2f1b2608d1a4661d7f5c3319e79d6bb54c46d4a5bda302205ffc0576b3955184169cb132ce4e9245a963ffc8c134bad3c5546ced4341dc45012103f30157e9a064977d622943755f72b439d9b7f09d06d233d1eb2d51eeb98c41510b490800", "vin": [{"txinwitness": ["3045022100dff83bbde7ff8323b59652cc859e0421a974972064cfac9e623136cdf7fcaf6102200c70a35ab94c794759c96bebec7f9d1b7752a09b6fe80de0ff95bdbb2f11b4ac01", "02dd0504cb70751b980270097284c6d857651a48563d0376acdbd6e785ec99f6a9"], "sequence": 4294967294, "scriptSig": {"hex": "16001481aea0ecd7e06f1c1f889ecac7e2c2f6d4ff0888", "asm": "001481aea0ecd7e06f1c1f889ecac7e2c2f6d4ff0888"}, "vout": 0, "txid": "f9abafb5a53688bb8de377a04308c92b1af17aeda23f855109f6d165a8038f8d"}, {"txinwitness": ["3045022100e1d5c83c0d1a567f9f5add8df0c03096e9afd0ed8b387c2d23fc012486a970b70220132a34a6ea03a276b9a4521857c5e6d3d7881972a24fab99f8f3039962e1981901", "031abc033d7b6f60e0d1d4c535f25680b44073fc27cea3a665395840f395bd14f6"], "sequence": 4294967294, "scriptSig": {"hex": "160014ed0e4c29c02d50a4227a1c85bf7eb36ae88d5538", "asm": "0014ed0e4c29c02d50a4227a1c85bf7eb36ae88d5538"}, "vout": 266, "txid": "059fd8debebc091c28b26c895b46186386d5acd7413473242d579a79748c4ec9"}, {"txinwitness": ["304402200beda8e45a1bb207076e2f1b2608d1a4661d7f5c3319e79d6bb54c46d4a5bda302205ffc0576b3955184169cb132ce4e9245a963ffc8c134bad3c5546ced4341dc4501", "03f30157e9a064977d622943755f72b439d9b7f09d06d233d1eb2d51eeb98c4151"], "sequence": 4294967294, "scriptSig": {"hex": "16001499c8a4cb1ce9610e0829a64b58cba134828c3aa0", "asm": "001499c8a4cb1ce9610e0829a64b58cba134828c3aa0"}, "vout": 152, "txid": "7609c7dbdc1aae1ebc7336fbd27a75bb221eaa64a8ba9d3eff0d5726505223d7"}], "txid": "b9720f5f9575b6ffc010384f172b4a22505d8799ddd8d696b350ab96a9b5844b", "blocktime": 1537869901, "version": 2, "confirmations": 11522, "time": 1537869901, "locktime": 542987, "vsize": 348, "size": 591}