{"hash": "7a4bec85b9365184cac58df0be2793e3a7cff67f7b9a1b7b4670e56b8625a18b", "blockhash": "0000000000000000000e13cef7c366c0283d82e591d1acd082e914b08063cdf1", "vout": [{"scriptPubKey": {"reqSigs": 1, "hex": "a9141a9847ad36c52335bc40a72817f519f45aecde0487", "addresses": ["347dv8We3qYFQELVsXQedE9hE9wBBqrYzH"], "asm": "OP_HASH160 1a9847ad36c52335bc40a72817f519f45aecde04 OP_EQUAL", "type": "scripthash"}, "value": 0.44535873, "n": 0}, {"scriptPubKey": {"reqSigs": 1, "hex": "76a914695aa727dd85466c88f229d7ec1695733ed2402d88ac", "addresses": ["1Ac4YpYZH9Heurrc4C3qydSz4BpwuwxNVy"], "asm": "OP_DUP OP_HASH160 695aa727dd85466c88f229d7ec1695733ed2402d OP_EQUALVERIFY OP_CHECKSIG", "type": "pubkeyhash"}, "value": 0.00793651, "n": 1}], "hex": "02000000000101a802b4a28355ba63d8650459fccb7072bc2a1137831c33a10fd908cbf0a6f1140100000017160014f5f4ff5ca110eff731593d3ee55ff7f375803383fdffffff024190a7020000000017a9141a9847ad36c52335bc40a72817f519f45aecde0487331c0c00000000001976a914695aa727dd85466c88f229d7ec1695733ed2402d88ac0247304402202f5b7aa38e352e01d5ad0833b8b6d4730ce6f2e35cd53226f3c8bf808873603802204e5f52443d563803dcfce6c8717f166039ef0dd02f223dc1022e8b2339873dbc012102cce068323e8a86edb663b4997ee02883adde157390f1817e22ed62517e446692c1480800", "vin": [{"txinwitness": ["304402202f5b7aa38e352e01d5ad0833b8b6d4730ce6f2e35cd53226f3c8bf808873603802204e5f52443d563803dcfce6c8717f166039ef0dd02f223dc1022e8b2339873dbc01", "02cce068323e8a86edb663b4997ee02883adde157390f1817e22ed62517e446692"], "sequence": 4294967293, "scriptSig": {"hex": "160014f5f4ff5ca110eff731593d3ee55ff7f375803383", "asm": "0014f5f4ff5ca110eff731593d3ee55ff7f375803383"}, "vout": 1, "txid": "14f1a6f0cb08d90fa1331c8337112abc7270cbfc590465d863ba5583a2b402a8"}], "txid": "b9753b1dba01785996e123df393c12bc24e0949dcf3f88749856215b4d76ac67", "blocktime": 1537871767, "version": 2, "confirmations": 11493, "time": 1537871767, "locktime": 542913, "vsize": 168, "size": 249}