{"hash": "b9756df52fdf886398515f691437e031627bde71c7203084047054769d18e36c", "blockhash": "00000000000000000017f5eb5941039fbcee6240d03bc1f2f8e35350df66a1d8", "vout": [{"scriptPubKey": {"reqSigs": 1, "hex": "76a9146dff92a52ef48ea9771e31de12b2414f6665122688ac", "addresses": ["1B2cpRS8PXh7h9zM62nD4yujWg6diZytZP"], "asm": "OP_DUP OP_HASH160 6dff92a52ef48ea9771e31de12b2414f66651226 OP_EQUALVERIFY OP_CHECKSIG", "type": "pubkeyhash"}, "value": 0.00098977, "n": 0}, {"scriptPubKey": {"reqSigs": 1, "hex": "76a914485b7cbc4e587d83dbd5d2f056c111c0abafc69588ac", "addresses": ["17bbFTXAcsr32LpoV2GsYrbaDkoKzvwuz5"], "asm": "OP_DUP OP_HASH160 485b7cbc4e587d83dbd5d2f056c111c0abafc695 OP_EQUALVERIFY OP_CHECKSIG", "type": "pubkeyhash"}, "value": 0.00530381, "n": 1}], "hex": "0100000001f97d72c87b48d4689e9e8fb95b25427934eab4fafd51acbf573387f68cfa388a010000006a4730440220649d2f654202fb578b05c7ebb24c88f14c088eb4592777146920d970d300e3db0220014bab0fdf4bf12d25b8310d917bb686185b0ffef81f5ca0525c329fb02b237f012103bec4453db9231d5f512912a2786e04951ccb24460da531e6dff796f290019b3bffffffff02a1820100000000001976a9146dff92a52ef48ea9771e31de12b2414f6665122688accd170800000000001976a914485b7cbc4e587d83dbd5d2f056c111c0abafc69588ac00000000", "vin": [{"sequence": 4294967295, "scriptSig": {"hex": "4730440220649d2f654202fb578b05c7ebb24c88f14c088eb4592777146920d970d300e3db0220014bab0fdf4bf12d25b8310d917bb686185b0ffef81f5ca0525c329fb02b237f012103bec4453db9231d5f512912a2786e04951ccb24460da531e6dff796f290019b3b", "asm": "30440220649d2f654202fb578b05c7ebb24c88f14c088eb4592777146920d970d300e3db0220014bab0fdf4bf12d25b8310d917bb686185b0ffef81f5ca0525c329fb02b237f[ALL] 03bec4453db9231d5f512912a2786e04951ccb24460da531e6dff796f290019b3b"}, "vout": 1, "txid": "8a38fa8cf6873357bfac51fdfab4ea347942255bb98f9e9e68d4487bc8727df9"}], "txid": "b9756df52fdf886398515f691437e031627bde71c7203084047054769d18e36c", "blocktime": 1537874412, "version": 1, "confirmations": 11467, "time": 1537874412, "locktime": 0, "vsize": 225, "size": 225}