{"hash": "b98467655ac797f11528ac2a1be8ddb590be5a304c6e63e07f8309d9daea52e1", "blockhash": "0000000000000000001f76057863aec43deb6fa401d9628bb513d65a8098bfab", "vout": [{"scriptPubKey": {"reqSigs": 1, "hex": "76a914e0971cc079f4f0b223acab667b9058a22460d43488ac", "addresses": ["1MUXPSNomt9nnFXYV4Pcf2fNbxHDa9pBCH"], "asm": "OP_DUP OP_HASH160 e0971cc079f4f0b223acab667b9058a22460d434 OP_EQUALVERIFY OP_CHECKSIG", "type": "pubkeyhash"}, "value": 0.00641145, "n": 0}, {"scriptPubKey": {"type": "nulldata", "hex": "6a4c50000077e90001e6cb055a0cd0d97262528f377af8e8e963c7cfd5b95b23cc0f42c2fc38c53e1d25bfea397bdee8c5d381e60a94c05baa178806129f2b6cbbe94b1d100759d4ba30d2c37bb011d97e02cf", "asm": "OP_RETURN 000077e90001e6cb055a0cd0d97262528f377af8e8e963c7cfd5b95b23cc0f42c2fc38c53e1d25bfea397bdee8c5d381e60a94c05baa178806129f2b6cbbe94b1d100759d4ba30d2c37bb011d97e02cf"}, "value": 0.0, "n": 1}], "hex": "01000000014246adc6f1efe891e0ff172e75214759cdb276a90b85a8da0562bc3e3998f1ad010000006a473044022034b67fd19eef992868fd3d1b21ae04bcf0b5bbab9fcdf10f67c4f9048bf8b37802200908aec3315023da4349ac058788636db25e260fdfad55dd506a66e0b847fa5c012103d5814663f1688f63848973948aafd16b8cfe4985caf8cb958d1999f626567e95ffffffff0279c80900000000001976a914e0971cc079f4f0b223acab667b9058a22460d43488ac0000000000000000536a4c50000077e90001e6cb055a0cd0d97262528f377af8e8e963c7cfd5b95b23cc0f42c2fc38c53e1d25bfea397bdee8c5d381e60a94c05baa178806129f2b6cbbe94b1d100759d4ba30d2c37bb011d97e02cf00000000", "vin": [{"sequence": 4294967295, "scriptSig": {"hex": "473044022034b67fd19eef992868fd3d1b21ae04bcf0b5bbab9fcdf10f67c4f9048bf8b37802200908aec3315023da4349ac058788636db25e260fdfad55dd506a66e0b847fa5c012103d5814663f1688f63848973948aafd16b8cfe4985caf8cb958d1999f626567e95", "asm": "3044022034b67fd19eef992868fd3d1b21ae04bcf0b5bbab9fcdf10f67c4f9048bf8b37802200908aec3315023da4349ac058788636db25e260fdfad55dd506a66e0b847fa5c[ALL] 03d5814663f1688f63848973948aafd16b8cfe4985caf8cb958d1999f626567e95"}, "vout": 1, "txid": "adf198393ebc6205daa8850ba976b2cd594721752e17ffe091e8eff1c6ad4642"}], "txid": "b98467655ac797f11528ac2a1be8ddb590be5a304c6e63e07f8309d9daea52e1", "blocktime": 1537873891, "version": 1, "confirmations": 11478, "time": 1537873891, "locktime": 0, "vsize": 283, "size": 283}