{"hash": "b984b6fd5eab09ad8465d94a333b03f2e52e31c6a447d3881b85c64beb5e4de6", "blockhash": "0000000000000000000e13cef7c366c0283d82e591d1acd082e914b08063cdf1", "vout": [{"scriptPubKey": {"reqSigs": 1, "hex": "76a91478a1f8d800c8959bb4086dfcc19befbd53a9784088ac", "addresses": ["1Bzr831j9PyPrZzek4cF6v9u5vX4xEe5X3"], "asm": "OP_DUP OP_HASH160 78a1f8d800c8959bb4086dfcc19befbd53a97840 OP_EQUALVERIFY OP_CHECKSIG", "type": "pubkeyhash"}, "value": 0.01056256, "n": 0}, {"scriptPubKey": {"reqSigs": 1, "hex": "76a914a8a0e5ab5ee4afdf8144bfc83f189fd2a287410c88ac", "addresses": ["1GNdGZKTqNPJRUUj32Gpyp5icYSo6vkypF"], "asm": "OP_DUP OP_HASH160 a8a0e5ab5ee4afdf8144bfc83f189fd2a287410c OP_EQUALVERIFY OP_CHECKSIG", "type": "pubkeyhash"}, "value": 0.00081482, "n": 1}], "hex": "0200000001d51d05a4c0fb51f1f118744cd9beda6153b7d1d0ffc7e8fd832ec0bee3a0de7d010000006b483045022100ab3299fb981db8d90448412b7fd5e609f37aa9fac7bb2223fd05eb0c8f8e188f022033412aab9631cdb9adfbcfdbdfdaabe10e97548bc14666abdc54efcca0a5d1ea012103ac22f3e43866b232b4086f056620cbadbc7d21ece607b0ab0a49018605d1d068fdffffff02001e1000000000001976a91478a1f8d800c8959bb4086dfcc19befbd53a9784088ac4a3e0100000000001976a914a8a0e5ab5ee4afdf8144bfc83f189fd2a287410c88ac10490800", "vin": [{"sequence": 4294967293, "scriptSig": {"hex": "483045022100ab3299fb981db8d90448412b7fd5e609f37aa9fac7bb2223fd05eb0c8f8e188f022033412aab9631cdb9adfbcfdbdfdaabe10e97548bc14666abdc54efcca0a5d1ea012103ac22f3e43866b232b4086f056620cbadbc7d21ece607b0ab0a49018605d1d068", "asm": "3045022100ab3299fb981db8d90448412b7fd5e609f37aa9fac7bb2223fd05eb0c8f8e188f022033412aab9631cdb9adfbcfdbdfdaabe10e97548bc14666abdc54efcca0a5d1ea[ALL] 03ac22f3e43866b232b4086f056620cbadbc7d21ece607b0ab0a49018605d1d068"}, "vout": 1, "txid": "7ddea0e3bec02e83fde8c7ffd0d1b75361dabed94c7418f1f151fbc0a4051dd5"}], "txid": "b984b6fd5eab09ad8465d94a333b03f2e52e31c6a447d3881b85c64beb5e4de6", "blocktime": 1537871767, "version": 2, "confirmations": 11490, "time": 1537871767, "locktime": 542992, "vsize": 226, "size": 226}