{"hash": "b98630fde7c7aacf72e5d818a179e39712683d6e0e6c0a10eaf08dc2be57f739", "blockhash": "00000000000000000018f53835495a110e01622372bf6ae95dc86f2b0ab887b0", "vout": [{"scriptPubKey": {"reqSigs": 1, "hex": "a914f932f315fb50a800f3af000fcdf334649ad549f987", "addresses": ["3QQfDM4FwentVGNFVpinpm33zMLNuVyN7K"], "asm": "OP_HASH160 f932f315fb50a800f3af000fcdf334649ad549f9 OP_EQUAL", "type": "scripthash"}, "value": 0.09704377, "n": 0}, {"scriptPubKey": {"reqSigs": 1, "hex": "76a914aaf4d763eb6f753672862f158971622912e74dea88ac", "addresses": ["1GawBVHaS9K2Qkdf2dET8ztYZqFTToigHW"], "asm": "OP_DUP OP_HASH160 aaf4d763eb6f753672862f158971622912e74dea OP_EQUALVERIFY OP_CHECKSIG", "type": "pubkeyhash"}, "value": 0.00865919, "n": 1}], "hex": "0200000004e5855283bcfe25cd7028b2a46637bdd143b1fa5f165bd1e590a8d01214468e50010000006a47304402200559388fa82be4ab2b430a98362d1f8e73950bff3190e51ed1b31996942f303e02200e0fb0b6a87277dbe3bfa147f46d65723c210319bf35a23a472f47ed686a353801210224128f3c87e22ef88e67de0dbf2e771f07c67b624b5f153e1df246aaf31dbd6efeffffff309f9cc977fc89dfa3ee0be7a9218415e406d058c3277f1a91adfba05a9357f4cd0000006b48304502210087a082bc2cfa4a04fd309a29660c451e152ec3a29e59fc0697710c338e7071e8022066da0faa95a086a44aecb5ec262bfe78cb78eb1a411f55c5251578fd77c32ea60121025bee6af365259b1f57001c71b3a1e03853add4266abd4da3e57a937310fd0280feffffff5d500b81072d828b3e8679e89099ca64f4286111edd7f47f90bb2e06f9fd459cc00000006b483045022100ff4d0d4250ff0d52abbc6db3c819b1f012d9c35103e5e54c95d8f8daee4e6e850220409a2d75acc4694cad56782506d5bfb68cac38fdb119a5b5525cbea646e327f70121029e29b0f0d3fedd1bafd8dd766d5396b815845c65c4a74bbdb9fe876123ba11f6feffffffc0ffe871618f097d6ab6a25e524768eda604752123a3d4d5c350203265c051693e0100006a47304402206a917335a07667334e7879a0cd35aed6619cb9814c63d58e26736e1675beda36022001b542409e7768536960917d6ced3c7804c5396643bed59d00042b8fba10c101012103719509bd64e7d0c165bbc8b297fc68a4ee00047df2fad970ea20be5bec385a40feffffff02b91394000000000017a914f932f315fb50a800f3af000fcdf334649ad549f9877f360d00000000001976a914aaf4d763eb6f753672862f158971622912e74dea88ac0d490800", "vin": [{"sequence": 4294967294, "scriptSig": {"hex": "47304402200559388fa82be4ab2b430a98362d1f8e73950bff3190e51ed1b31996942f303e02200e0fb0b6a87277dbe3bfa147f46d65723c210319bf35a23a472f47ed686a353801210224128f3c87e22ef88e67de0dbf2e771f07c67b624b5f153e1df246aaf31dbd6e", "asm": "304402200559388fa82be4ab2b430a98362d1f8e73950bff3190e51ed1b31996942f303e02200e0fb0b6a87277dbe3bfa147f46d65723c210319bf35a23a472f47ed686a3538[ALL] 0224128f3c87e22ef88e67de0dbf2e771f07c67b624b5f153e1df246aaf31dbd6e"}, "vout": 1, "txid": "508e461412d0a890e5d15b165ffab143d1bd3766a4b22870cd25febc835285e5"}, {"sequence": 4294967294, "scriptSig": {"hex": "48304502210087a082bc2cfa4a04fd309a29660c451e152ec3a29e59fc0697710c338e7071e8022066da0faa95a086a44aecb5ec262bfe78cb78eb1a411f55c5251578fd77c32ea60121025bee6af365259b1f57001c71b3a1e03853add4266abd4da3e57a937310fd0280", "asm": "304502210087a082bc2cfa4a04fd309a29660c451e152ec3a29e59fc0697710c338e7071e8022066da0faa95a086a44aecb5ec262bfe78cb78eb1a411f55c5251578fd77c32ea6[ALL] 025bee6af365259b1f57001c71b3a1e03853add4266abd4da3e57a937310fd0280"}, "vout": 205, "txid": "f457935aa0fbad911a7f27c358d006e4158421a9e70beea3df89fc77c99c9f30"}, {"sequence": 4294967294, "scriptSig": {"hex": "483045022100ff4d0d4250ff0d52abbc6db3c819b1f012d9c35103e5e54c95d8f8daee4e6e850220409a2d75acc4694cad56782506d5bfb68cac38fdb119a5b5525cbea646e327f70121029e29b0f0d3fedd1bafd8dd766d5396b815845c65c4a74bbdb9fe876123ba11f6", "asm": "3045022100ff4d0d4250ff0d52abbc6db3c819b1f012d9c35103e5e54c95d8f8daee4e6e850220409a2d75acc4694cad56782506d5bfb68cac38fdb119a5b5525cbea646e327f7[ALL] 029e29b0f0d3fedd1bafd8dd766d5396b815845c65c4a74bbdb9fe876123ba11f6"}, "vout": 192, "txid": "9c45fdf9062ebb907ff4d7ed116128f464ca9990e879863e8b822d07810b505d"}, {"sequence": 4294967294, "scriptSig": {"hex": "47304402206a917335a07667334e7879a0cd35aed6619cb9814c63d58e26736e1675beda36022001b542409e7768536960917d6ced3c7804c5396643bed59d00042b8fba10c101012103719509bd64e7d0c165bbc8b297fc68a4ee00047df2fad970ea20be5bec385a40", "asm": "304402206a917335a07667334e7879a0cd35aed6619cb9814c63d58e26736e1675beda36022001b542409e7768536960917d6ced3c7804c5396643bed59d00042b8fba10c101[ALL] 03719509bd64e7d0c165bbc8b297fc68a4ee00047df2fad970ea20be5bec385a40"}, "vout": 318, "txid": "6951c065322050c3d5d4a323217504a6ed6847525ea2b66a7d098f6171e8ffc0"}], "txid": "b98630fde7c7aacf72e5d818a179e39712683d6e0e6c0a10eaf08dc2be57f739", "blocktime": 1537870928, "version": 2, "confirmations": 11512, "time": 1537870928, "locktime": 542989, "vsize": 666, "size": 666}