{"hash": "b98689d13d03f96e025f01e5e0dcb71ae0706ae601a412daf1b99eb0a006eabd", "blockhash": "0000000000000000000e13cef7c366c0283d82e591d1acd082e914b08063cdf1", "vout": [{"scriptPubKey": {"reqSigs": 1, "hex": "76a9144a0f1e2f2b0d7daeec5265f10bbbbe08ed725e8988ac", "addresses": ["17kb7c9ndg7ioSuzMWEHWECdEVUegNkcGc"], "asm": "OP_DUP OP_HASH160 4a0f1e2f2b0d7daeec5265f10bbbbe08ed725e89 OP_EQUALVERIFY OP_CHECKSIG", "type": "pubkeyhash"}, "value": 0.00205665, "n": 0}], "hex": "01000000013d8211a3cbd51114334f44a16247836a57d0869d6919d2b9fbe99d8498bc5bb1000000006b483045022100e3b0174ae54210371eba9198082caa109745eff8b07dbfe7e0eb0de97d9db37602201168e525ca2a99a121714a888c6efded1b713fefa195e2b365bf2f94901b9199012103147060f9b2d6d9e55986d8f9dcd2874147f62ed0d7e7cda97518047aa350929bffffffff0161230300000000001976a9144a0f1e2f2b0d7daeec5265f10bbbbe08ed725e8988ac00000000", "vin": [{"sequence": 4294967295, "scriptSig": {"hex": "483045022100e3b0174ae54210371eba9198082caa109745eff8b07dbfe7e0eb0de97d9db37602201168e525ca2a99a121714a888c6efded1b713fefa195e2b365bf2f94901b9199012103147060f9b2d6d9e55986d8f9dcd2874147f62ed0d7e7cda97518047aa350929b", "asm": "3045022100e3b0174ae54210371eba9198082caa109745eff8b07dbfe7e0eb0de97d9db37602201168e525ca2a99a121714a888c6efded1b713fefa195e2b365bf2f94901b9199[ALL] 03147060f9b2d6d9e55986d8f9dcd2874147f62ed0d7e7cda97518047aa350929b"}, "vout": 0, "txid": "b15bbc98849de9fbb9d219699d86d0576a834762a1444f331411d5cba311823d"}], "txid": "b98689d13d03f96e025f01e5e0dcb71ae0706ae601a412daf1b99eb0a006eabd", "blocktime": 1537871767, "version": 1, "confirmations": 11491, "time": 1537871767, "locktime": 0, "vsize": 192, "size": 192}