{"hash": "b9901469d2f494d142da0f656e03928496b4b69d366732bbbe3ec9fc12ad5720", "blockhash": "00000000000000000017f5eb5941039fbcee6240d03bc1f2f8e35350df66a1d8", "vout": [{"scriptPubKey": {"reqSigs": 1, "hex": "76a914d6362888ccafc57f15c832a181d90e893d537f4888ac", "addresses": ["1LXeV3G4tJYwZkHL1AXJH7WA13Gytm2aca"], "asm": "OP_DUP OP_HASH160 d6362888ccafc57f15c832a181d90e893d537f48 OP_EQUALVERIFY OP_CHECKSIG", "type": "pubkeyhash"}, "value": 7.452e-05, "n": 0}, {"scriptPubKey": {"reqSigs": 1, "hex": "a9144fa2901bd7e8120a5cc1971d37a56ace8c86ca7987", "addresses": ["38x63mX88Uv9febuh6Cmkcwn6JH8SRBGET"], "asm": "OP_HASH160 4fa2901bd7e8120a5cc1971d37a56ace8c86ca79 OP_EQUAL", "type": "scripthash"}, "value": 0.01001303, "n": 1}], "hex": "0100000001c209cedabb1bf15d6debb110dc63fe0d16204d98e661f0c5db25ccb2b549d1cb000000006a4730440220731badff6195455a916a86f9cde7924279930e578e390a62cab917474163dc6f02207d64eb0ed496b135c5a28c113fc23d3200965362c6e393dbd20c1a8b216b1442012102d5d056ab6c98d8dc21319b9f37c52db57ed2c575c81bfc1ae1204bfc6707d793ffffffff021c1d0000000000001976a914d6362888ccafc57f15c832a181d90e893d537f4888ac57470f000000000017a9144fa2901bd7e8120a5cc1971d37a56ace8c86ca798700000000", "vin": [{"sequence": 4294967295, "scriptSig": {"hex": "4730440220731badff6195455a916a86f9cde7924279930e578e390a62cab917474163dc6f02207d64eb0ed496b135c5a28c113fc23d3200965362c6e393dbd20c1a8b216b1442012102d5d056ab6c98d8dc21319b9f37c52db57ed2c575c81bfc1ae1204bfc6707d793", "asm": "30440220731badff6195455a916a86f9cde7924279930e578e390a62cab917474163dc6f02207d64eb0ed496b135c5a28c113fc23d3200965362c6e393dbd20c1a8b216b1442[ALL] 02d5d056ab6c98d8dc21319b9f37c52db57ed2c575c81bfc1ae1204bfc6707d793"}, "vout": 0, "txid": "cbd149b5b2cc25dbc5f061e6984d20160dfe63dc10b1eb6d5df11bbbdace09c2"}], "txid": "b9901469d2f494d142da0f656e03928496b4b69d366732bbbe3ec9fc12ad5720", "blocktime": 1537874412, "version": 1, "confirmations": 11468, "time": 1537874412, "locktime": 0, "vsize": 223, "size": 223}