{"hash": "0b37038abf9820d5939daa068d4ee2d7a98338d7abf907ae39117c2a5983f9ef", "blockhash": "00000000000000000017f5eb5941039fbcee6240d03bc1f2f8e35350df66a1d8", "vout": [{"scriptPubKey": {"reqSigs": 1, "hex": "76a9145ade74ba36d023059479166ab9ecbad6221825c988ac", "addresses": ["19HUJn2KWm7ZtNcAcPrdhN5PiHNRTsjEXK"], "asm": "OP_DUP OP_HASH160 5ade74ba36d023059479166ab9ecbad6221825c9 OP_EQUALVERIFY OP_CHECKSIG", "type": "pubkeyhash"}, "value": 0.02639313, "n": 0}, {"scriptPubKey": {"reqSigs": 1, "hex": "0014f007339ab9ec8ee082dcd8e3088d3aa9e089d370", "addresses": ["bc1q7qrn8x4eaj8wpqkumr3s3rf648sgn5msulqps4"], "asm": "0 f007339ab9ec8ee082dcd8e3088d3aa9e089d370", "type": "witness_v0_keyhash"}, "value": 0.31789322, "n": 1}], "hex": "01000000000101c4cb35968ffd0f89f4ccb17eb403b57d36cd6dec65b74ac9be21c2c88241fd4e0100000000ffffffff02d1452800000000001976a9145ade74ba36d023059479166ab9ecbad6221825c988ac0a11e50100000000160014f007339ab9ec8ee082dcd8e3088d3aa9e089d37002483045022100cf0ae4f9340c599b71497cdbc039cb7144258658fc3fca7b05e6a2bbff717055022040ef49e53e5bafc3b035d7ac791ad3646e87dca8e9e636e1293df09745dd691c01210235258191efdef42dd1ac87a765e47a038a502116b31d4ff525ce63e13181161600000000", "vin": [{"txinwitness": ["3045022100cf0ae4f9340c599b71497cdbc039cb7144258658fc3fca7b05e6a2bbff717055022040ef49e53e5bafc3b035d7ac791ad3646e87dca8e9e636e1293df09745dd691c01", "0235258191efdef42dd1ac87a765e47a038a502116b31d4ff525ce63e131811616"], "sequence": 4294967295, "scriptSig": {"hex": "", "asm": ""}, "vout": 1, "txid": "4efd4182c8c221bec94ab765ec6dcd367db503b47eb1ccf4890ffd8f9635cbc4"}], "txid": "b9b59334e58172d46031ff830d83a4524d66bdede0922294a93b00d4956ce556", "blocktime": 1537874412, "version": 1, "confirmations": 11467, "time": 1537874412, "locktime": 0, "vsize": 144, "size": 226}