{"hash": "b9b57a3d56e95608afb79c06d0177f281b609ca93bde03e0dde2ba9dfd585521", "blockhash": "0000000000000000000e13cef7c366c0283d82e591d1acd082e914b08063cdf1", "vout": [{"scriptPubKey": {"reqSigs": 1, "hex": "a91492cdf70b97a7223cf24c6fceecda47adde15cfa587", "addresses": ["3F5FKFYLivsHwJ74JxmXqwwhyVHL4AYZXh"], "asm": "OP_HASH160 92cdf70b97a7223cf24c6fceecda47adde15cfa5 OP_EQUAL", "type": "scripthash"}, "value": 0.09366, "n": 0}], "hex": "01000000029ab022e87e3d378e61497d4a29cc52e8525a64e41a3a5cdb39e492a211ab9922010000006a473044022008cdab4881595d4c7b2ef59e8d0e15b58fb34bb606593108a605bedd2599c9e30220756c70e2f4b0ef1e9bdb41364536b37680380f63fdaf26ef6c06accc0822d70601210296a77bbe955d5822c9fb9ca890a88ca8109738826b4fd628f133162348b918fcfeffffffa7c42a39f14efcf4cc4f89ab7e7a46a629cbeeaefd9ea57faa73a90540da444c000000006b48304502210094fc1bd5a29f1112b579b4118edaf93878835a45e308e42fa45f374d7cd262ad022071f6ce65940e40d640171fea02c8f13cc3b52fa47f489ba2e6de7ca634571748012102420b0cec38f5eb7b196a7f23fe36ef90bfac2445fdc6d911afa6cb9f45aa49dafeffffff01f0e98e000000000017a91492cdf70b97a7223cf24c6fceecda47adde15cfa58710490800", "vin": [{"sequence": 4294967294, "scriptSig": {"hex": "473044022008cdab4881595d4c7b2ef59e8d0e15b58fb34bb606593108a605bedd2599c9e30220756c70e2f4b0ef1e9bdb41364536b37680380f63fdaf26ef6c06accc0822d70601210296a77bbe955d5822c9fb9ca890a88ca8109738826b4fd628f133162348b918fc", "asm": "3044022008cdab4881595d4c7b2ef59e8d0e15b58fb34bb606593108a605bedd2599c9e30220756c70e2f4b0ef1e9bdb41364536b37680380f63fdaf26ef6c06accc0822d706[ALL] 0296a77bbe955d5822c9fb9ca890a88ca8109738826b4fd628f133162348b918fc"}, "vout": 1, "txid": "2299ab11a292e439db5c3a1ae4645a52e852cc294a7d49618e373d7ee822b09a"}, {"sequence": 4294967294, "scriptSig": {"hex": "48304502210094fc1bd5a29f1112b579b4118edaf93878835a45e308e42fa45f374d7cd262ad022071f6ce65940e40d640171fea02c8f13cc3b52fa47f489ba2e6de7ca634571748012102420b0cec38f5eb7b196a7f23fe36ef90bfac2445fdc6d911afa6cb9f45aa49da", "asm": "304502210094fc1bd5a29f1112b579b4118edaf93878835a45e308e42fa45f374d7cd262ad022071f6ce65940e40d640171fea02c8f13cc3b52fa47f489ba2e6de7ca634571748[ALL] 02420b0cec38f5eb7b196a7f23fe36ef90bfac2445fdc6d911afa6cb9f45aa49da"}, "vout": 0, "txid": "4c44da4005a973aa7fa59efdaeeecb29a6467a7eab894fccf4fc4ef1392ac4a7"}], "txid": "b9b57a3d56e95608afb79c06d0177f281b609ca93bde03e0dde2ba9dfd585521", "blocktime": 1537871767, "version": 1, "confirmations": 11493, "time": 1537871767, "locktime": 542992, "vsize": 337, "size": 337}