{"hash": "b9b6a630647fde4796edb79cfd029a3af93998b1801af227379b96bbb71bfffd", "blockhash": "00000000000000000004ffacab907a6b429b9a5745fa0b75af4234bf69dd7176", "vout": [{"scriptPubKey": {"reqSigs": 1, "hex": "76a9149f837a3058a667eb8f447ab28d5a64ab09b6638888ac", "addresses": ["1FYRwhqGzpyBpE7WkgkGXf2sLLHRMrXYft"], "asm": "OP_DUP OP_HASH160 9f837a3058a667eb8f447ab28d5a64ab09b66388 OP_EQUALVERIFY OP_CHECKSIG", "type": "pubkeyhash"}, "value": 3.52568045, "n": 0}, {"scriptPubKey": {"reqSigs": 1, "hex": "76a91444b5b416318251fb4490b072c1a34be10c56aa0388ac", "addresses": ["17GJd2JXuPymsXsqRub7Ya4UUcX6P5q5bT"], "asm": "OP_DUP OP_HASH160 44b5b416318251fb4490b072c1a34be10c56aa03 OP_EQUALVERIFY OP_CHECKSIG", "type": "pubkeyhash"}, "value": 0.02781924, "n": 1}], "hex": "0100000001280eb64a7d9c235a71d2b4054666fb0cb2958403965c509468052df0292af167010000006b483045022100b43b2f7343747b0a6e6408a3adfdd95ab4159ef235a6c701cf037cb75d385fff0220683e1c3f3c82837d81f5d0271f466961740ed8c6f0a5369967e0b19ddcb0e9fc01210251fed4ddef3fbdbd31a390879116038fa38ce30119e278a0f56aa9637cb70fb0ffffffff02edc20315000000001976a9149f837a3058a667eb8f447ab28d5a64ab09b6638888ace4722a00000000001976a91444b5b416318251fb4490b072c1a34be10c56aa0388ac00000000", "vin": [{"sequence": 4294967295, "scriptSig": {"hex": "483045022100b43b2f7343747b0a6e6408a3adfdd95ab4159ef235a6c701cf037cb75d385fff0220683e1c3f3c82837d81f5d0271f466961740ed8c6f0a5369967e0b19ddcb0e9fc01210251fed4ddef3fbdbd31a390879116038fa38ce30119e278a0f56aa9637cb70fb0", "asm": "3045022100b43b2f7343747b0a6e6408a3adfdd95ab4159ef235a6c701cf037cb75d385fff0220683e1c3f3c82837d81f5d0271f466961740ed8c6f0a5369967e0b19ddcb0e9fc[ALL] 0251fed4ddef3fbdbd31a390879116038fa38ce30119e278a0f56aa9637cb70fb0"}, "vout": 1, "txid": "67f12a29f02d056894505c96038495b20cfb664605b4d2715a239c7d4ab60e28"}], "txid": "b9b6a630647fde4796edb79cfd029a3af93998b1801af227379b96bbb71bfffd", "blocktime": 1537875543, "version": 1, "confirmations": 11464, "time": 1537875543, "locktime": 0, "vsize": 226, "size": 226}