{"hash": "b9bcccb31128e2acac24fd68ffe86e7a12cc8ba7bbfe9c45d046712c67eb822a", "blockhash": "0000000000000000001cda96e906b7601b7a6fb1a3b62bca570a9e5d8f4b3de1", "vout": [{"scriptPubKey": {"reqSigs": 1, "hex": "76a9144a0f1e2f2b0d7daeec5265f10bbbbe08ed725e8988ac", "addresses": ["17kb7c9ndg7ioSuzMWEHWECdEVUegNkcGc"], "asm": "OP_DUP OP_HASH160 4a0f1e2f2b0d7daeec5265f10bbbbe08ed725e89 OP_EQUALVERIFY OP_CHECKSIG", "type": "pubkeyhash"}, "value": 0.00172896, "n": 0}], "hex": "0100000001f97f5f96b5e15234fcb81e29d0829e01361ed0b49b916ce2e2f561f86bec3f0e0000000069463043021f27edbcb2ac2579b25e64ca18062f4f1c3547427eafe23a6328880ed1c266e302206709e7f54adcce655b2b5d5f87d8a883c044dba0d6cf5a65ccf3d85a8d79ff79012102bbcb734c6d1048587cef0726e95f51575bd960f9826795dd99b1ade71565eaa0ffffffff0160a30200000000001976a9144a0f1e2f2b0d7daeec5265f10bbbbe08ed725e8988ac00000000", "vin": [{"sequence": 4294967295, "scriptSig": {"hex": "463043021f27edbcb2ac2579b25e64ca18062f4f1c3547427eafe23a6328880ed1c266e302206709e7f54adcce655b2b5d5f87d8a883c044dba0d6cf5a65ccf3d85a8d79ff79012102bbcb734c6d1048587cef0726e95f51575bd960f9826795dd99b1ade71565eaa0", "asm": "3043021f27edbcb2ac2579b25e64ca18062f4f1c3547427eafe23a6328880ed1c266e302206709e7f54adcce655b2b5d5f87d8a883c044dba0d6cf5a65ccf3d85a8d79ff79[ALL] 02bbcb734c6d1048587cef0726e95f51575bd960f9826795dd99b1ade71565eaa0"}, "vout": 0, "txid": "0e3fec6bf861f5e2e26c919bb4d01e36019e82d0291eb8fc3452e1b5965f7ff9"}], "txid": "b9bcccb31128e2acac24fd68ffe86e7a12cc8ba7bbfe9c45d046712c67eb822a", "blocktime": 1537873282, "version": 1, "confirmations": 11482, "time": 1537873282, "locktime": 0, "vsize": 190, "size": 190}