{"hash": "b9cdc11d960d5275dcd179cea733792ee1f8a4798d46c003d5add91f8ccdc127", "blockhash": "0000000000000000000baef3f32e3676a92c3b2e5da21b426e4f302fc371ce76", "vout": [{"scriptPubKey": {"reqSigs": 1, "hex": "76a91483ef7365790101ac299684b5fe2a79cf3766bf6488ac", "addresses": ["1D2cNTiyr9ZF4tWqWqRV6X7pA2XpU8a8UR"], "asm": "OP_DUP OP_HASH160 83ef7365790101ac299684b5fe2a79cf3766bf64 OP_EQUALVERIFY OP_CHECKSIG", "type": "pubkeyhash"}, "value": 0.0006988, "n": 0}, {"scriptPubKey": {"type": "nulldata", "hex": "6a4c500000783400010a53450cfc10e8d6c32ccfec27b7256b4774d339f6019d6ddc0f1b8ff11780309731b4121d73dcd1c4c53523ba425baa1f680614324c36cb570ebc9a9526289ac0f6612cd74e33776ee4", "asm": "OP_RETURN 0000783400010a53450cfc10e8d6c32ccfec27b7256b4774d339f6019d6ddc0f1b8ff11780309731b4121d73dcd1c4c53523ba425baa1f680614324c36cb570ebc9a9526289ac0f6612cd74e33776ee4"}, "value": 0.0, "n": 1}], "hex": "0100000001ec1cc45808a0f64af129481e6ad0a4fc05dca26e36c388de70a20912310abbf2010000006a4730440220511ab6f5842933d8276164b5358a2f564a166a206d0db6efdffe54b09065643c0220354795170ef7483f63614b577885cf28e58a3aa587fe650a2bc25b12608d18f5012102f9f0985301d609948f9a17ed42151f8e4d8e5e812bfe4f45ee352cb074dc39dbffffffff02f8100100000000001976a91483ef7365790101ac299684b5fe2a79cf3766bf6488ac0000000000000000536a4c500000783400010a53450cfc10e8d6c32ccfec27b7256b4774d339f6019d6ddc0f1b8ff11780309731b4121d73dcd1c4c53523ba425baa1f680614324c36cb570ebc9a9526289ac0f6612cd74e33776ee400000000", "vin": [{"sequence": 4294967295, "scriptSig": {"hex": "4730440220511ab6f5842933d8276164b5358a2f564a166a206d0db6efdffe54b09065643c0220354795170ef7483f63614b577885cf28e58a3aa587fe650a2bc25b12608d18f5012102f9f0985301d609948f9a17ed42151f8e4d8e5e812bfe4f45ee352cb074dc39db", "asm": "30440220511ab6f5842933d8276164b5358a2f564a166a206d0db6efdffe54b09065643c0220354795170ef7483f63614b577885cf28e58a3aa587fe650a2bc25b12608d18f5[ALL] 02f9f0985301d609948f9a17ed42151f8e4d8e5e812bfe4f45ee352cb074dc39db"}, "vout": 1, "txid": "f2bb0a311209a270de88c3366ea2dc05fca4d06a1e4829f14af6a00858c41cec"}], "txid": "b9cdc11d960d5275dcd179cea733792ee1f8a4798d46c003d5add91f8ccdc127", "blocktime": 1537876114, "version": 1, "confirmations": 11461, "time": 1537876114, "locktime": 0, "vsize": 283, "size": 283}