{"hash": "29650b7865a3e136efe954ebd0aa0379adc7e84f3e8c1cdc9f3a65f4a8a9cf5a", "blockhash": "0000000000000000001e0dab787dd257d1dbfcb92a98c2207d5e1078be1f4165", "vout": [{"scriptPubKey": {"reqSigs": 1, "hex": "0014c21f4e86ec09c06f8d0fa960f61e385253fb78cd", "addresses": ["bc1qcg05aphvp8qxlrg049s0v83c2fflk7xd9aj5r0"], "asm": "0 c21f4e86ec09c06f8d0fa960f61e385253fb78cd", "type": "witness_v0_keyhash"}, "value": 0.09120105, "n": 0}, {"scriptPubKey": {"reqSigs": 1, "hex": "a9144e3521f5bff98214faa48afe11a2cde1e86362ba87", "addresses": ["38pYHEBtiV5wcgh1Ku4ZcTyPgZEzNUpkRj"], "asm": "OP_HASH160 4e3521f5bff98214faa48afe11a2cde1e86362ba OP_EQUAL", "type": "scripthash"}, "value": 0.054693, "n": 1}], "hex": "010000000001039ba2bbe23b99267941d74689d3ab3b9f9fd86508c1655e27bc745b8ccf56b36d0000000017160014e010eed44ff2920b0a5ad142c5742a75a90af2ecffffffff5099d25b2015bc2fb221b9a828efaac32994a0bc50ba5c279affa6d33f0af8a70100000000ffffffff5cd01b3bcb0717e8538598f547cb8675057ed5b8f06de8d34441d295b5f7b9460000000017160014a8c2d56a6c6df6221ef3e2936ed580a6b8d9e598ffffffff0269298b0000000000160014c21f4e86ec09c06f8d0fa960f61e385253fb78cd747453000000000017a9144e3521f5bff98214faa48afe11a2cde1e86362ba870247304402200ff573175d7dd3733f1317de7215efb344357192266dbc7b6b18b327237fabb302202420a7558a8f91d63590f15e7c4334c9e9b8bf75b7aefc44f73b408bcebb2f6d012103820707749d547bca84acd7d4c66e1b3b2d5f8636d20e2e34c6c7fa33b8e7ccd702483045022100f04e6ba927d6d64a38fac8b5f42c30aefd9e9d7c86de15b16346b3ed8ed9e42b022053c2457484aafa20e905bbae4e1cb4c714a7b603186ecf2bdcc169c8a36a8f43012102030497d7adc2e4d45a5ae4eb907701655b3ff2c1fb984965fc7b8188e4ae011c02483045022100b7034d979b430973bcf23b5299200bc6d25e92fa7db4c2902cde549b1a59e9fb0220690bda408e5203797fe8ae90f29f81a496e2be9662c5157ca6dc2b3f89478d8e01210316e82a1530933ff752efb7b95f33e8112b56f62830b16a904d13517b024b83a900000000", "vin": [{"txinwitness": ["304402200ff573175d7dd3733f1317de7215efb344357192266dbc7b6b18b327237fabb302202420a7558a8f91d63590f15e7c4334c9e9b8bf75b7aefc44f73b408bcebb2f6d01", "03820707749d547bca84acd7d4c66e1b3b2d5f8636d20e2e34c6c7fa33b8e7ccd7"], "sequence": 4294967295, "scriptSig": {"hex": "160014e010eed44ff2920b0a5ad142c5742a75a90af2ec", "asm": "0014e010eed44ff2920b0a5ad142c5742a75a90af2ec"}, "vout": 0, "txid": "6db356cf8c5b74bc275e65c10865d89f9f3babd38946d7417926993be2bba29b"}, {"txinwitness": ["3045022100f04e6ba927d6d64a38fac8b5f42c30aefd9e9d7c86de15b16346b3ed8ed9e42b022053c2457484aafa20e905bbae4e1cb4c714a7b603186ecf2bdcc169c8a36a8f4301", "02030497d7adc2e4d45a5ae4eb907701655b3ff2c1fb984965fc7b8188e4ae011c"], "sequence": 4294967295, "scriptSig": {"hex": "", "asm": ""}, "vout": 1, "txid": "a7f80a3fd3a6ff9a275cba50bca09429c3aaef28a8b921b22fbc15205bd29950"}, {"txinwitness": ["3045022100b7034d979b430973bcf23b5299200bc6d25e92fa7db4c2902cde549b1a59e9fb0220690bda408e5203797fe8ae90f29f81a496e2be9662c5157ca6dc2b3f89478d8e01", "0316e82a1530933ff752efb7b95f33e8112b56f62830b16a904d13517b024b83a9"], "sequence": 4294967295, "scriptSig": {"hex": "160014a8c2d56a6c6df6221ef3e2936ed580a6b8d9e598", "asm": "0014a8c2d56a6c6df6221ef3e2936ed580a6b8d9e598"}, "vout": 0, "txid": "46b9f7b595d24144d3e86df0b8d57e057586cb47f5988553e81707cb3b1bd05c"}], "txid": "b9d32f86ce87fdfdfaf0616da3bb7ce80bd1f05322d8d4fa8146eac89fe6c711", "blocktime": 1537872475, "version": 1, "confirmations": 11487, "time": 1537872475, "locktime": 0, "vsize": 324, "size": 567}