{"hash": "b9dba3a98ec405e7372209061adf5dad18947df6bcc01073a9d3ea9c8c9b5665", "blockhash": "0000000000000000000dcc0f55137456b1a82d3642486a52398922ac4d620174", "vout": [{"scriptPubKey": {"reqSigs": 1, "hex": "a9149ea13485978aecd738e2ee2cbdf4c5245a10baf087", "addresses": ["3G9moaq6RmRMUc36hXGpryuGacDyUKvpDq"], "asm": "OP_HASH160 9ea13485978aecd738e2ee2cbdf4c5245a10baf0 OP_EQUAL", "type": "scripthash"}, "value": 0.087, "n": 0}, {"scriptPubKey": {"reqSigs": 1, "hex": "76a914077911467b078678e48619a9e73a3654857f98e588ac", "addresses": ["1gWmG1ys8xgTtZnS8MHmgHxzuVqXmrFMn"], "asm": "OP_DUP OP_HASH160 077911467b078678e48619a9e73a3654857f98e5 OP_EQUALVERIFY OP_CHECKSIG", "type": "pubkeyhash"}, "value": 0.00083336, "n": 1}], "hex": "010000000293c816df8bb31a9a2673c622f63560301e6222fa877642b5ea18aeb332e48bf3000000006a47304402205753a400f4b33b96ac0db68ac3a501f3d054fe3d29293468b099cce2565a5ab30220395c95bf3d99be92133dd912c69a78aac2a6b557bf1a46b715a655eac0f76fe301210263ff779d10b59db20a525f62908d744c053c7404a626c0a8bcf1023b054219ceffffffffddf331717027365b70b38c68bfbf815b579d924b699eb3cb56c90a807575e957000000006a473044022056a9a97fe19a031f83f927a8c6c95e651aa0a060d6320236b1e1b5017b638cfc022031d78689ba67cc83dbf18589167a506bb2db689dd5dbda3ddbc410cc8be2bb3c01210263ff779d10b59db20a525f62908d744c053c7404a626c0a8bcf1023b054219ceffffffff0260c084000000000017a9149ea13485978aecd738e2ee2cbdf4c5245a10baf08788450100000000001976a914077911467b078678e48619a9e73a3654857f98e588ac00000000", "vin": [{"sequence": 4294967295, "scriptSig": {"hex": "47304402205753a400f4b33b96ac0db68ac3a501f3d054fe3d29293468b099cce2565a5ab30220395c95bf3d99be92133dd912c69a78aac2a6b557bf1a46b715a655eac0f76fe301210263ff779d10b59db20a525f62908d744c053c7404a626c0a8bcf1023b054219ce", "asm": "304402205753a400f4b33b96ac0db68ac3a501f3d054fe3d29293468b099cce2565a5ab30220395c95bf3d99be92133dd912c69a78aac2a6b557bf1a46b715a655eac0f76fe3[ALL] 0263ff779d10b59db20a525f62908d744c053c7404a626c0a8bcf1023b054219ce"}, "vout": 0, "txid": "f38be432b3ae18eab5427687fa22621e306035f622c673269a1ab38bdf16c893"}, {"sequence": 4294967295, "scriptSig": {"hex": "473044022056a9a97fe19a031f83f927a8c6c95e651aa0a060d6320236b1e1b5017b638cfc022031d78689ba67cc83dbf18589167a506bb2db689dd5dbda3ddbc410cc8be2bb3c01210263ff779d10b59db20a525f62908d744c053c7404a626c0a8bcf1023b054219ce", "asm": "3044022056a9a97fe19a031f83f927a8c6c95e651aa0a060d6320236b1e1b5017b638cfc022031d78689ba67cc83dbf18589167a506bb2db689dd5dbda3ddbc410cc8be2bb3c[ALL] 0263ff779d10b59db20a525f62908d744c053c7404a626c0a8bcf1023b054219ce"}, "vout": 0, "txid": "57e97575800ac956cbb39e694b929d575b81bfbf688cb3705b3627707131f3dd"}], "txid": "b9dba3a98ec405e7372209061adf5dad18947df6bcc01073a9d3ea9c8c9b5665", "blocktime": 1537870268, "version": 1, "confirmations": 11516, "time": 1537870268, "locktime": 0, "vsize": 370, "size": 370}