{"hash": "b9e0258e0bc6532d562c531b00a101aa28cc673f2f40f7e605368dd8735ae82e", "blockhash": "0000000000000000001cda96e906b7601b7a6fb1a3b62bca570a9e5d8f4b3de1", "vout": [{"scriptPubKey": {"reqSigs": 1, "hex": "76a914a94c5443e43baec5eabc50ec93d29e58d357b84988ac", "addresses": ["1GSAds2BG4kh6NyMWDp1aPaWTpegwGgyQR"], "asm": "OP_DUP OP_HASH160 a94c5443e43baec5eabc50ec93d29e58d357b849 OP_EQUALVERIFY OP_CHECKSIG", "type": "pubkeyhash"}, "value": 0.0312, "n": 0}, {"scriptPubKey": {"reqSigs": 1, "hex": "a91429eeced9ac05b376d7225bbfb300401cced5b97887", "addresses": ["35Wji5bsj4k8yqjM8EohjygUFAUJ7bNyMa"], "asm": "OP_HASH160 29eeced9ac05b376d7225bbfb300401cced5b978 OP_EQUAL", "type": "scripthash"}, "value": 0.00033217, "n": 1}], "hex": "01000000014d60a971869496b0891a69edfe7f340ae663127acf95f5139320ddd36152887701000000fdfd00004730440220259b50f980ff6176041b475419ec0c5b6ff958f584cf0a0de7b2e2db130320a50220692403b0f39d47223489a9a59e9e4f03cee60c235f9c24371fc42d0b644c23b901483045022100b6e5b6c4c026a6762e5d24534245d7f1aa24b7abdbf9a526209bb91d41bf009b022050218b18e36b15b89c4f844dc750dad48e447ca44c1d8147749e6207241407b1014c695221021f0b739e55a719b6d52aa1f7c0a43d8dc261815f264d645147d0bacd491304e82102c781a1470e1d4195bcc1cc067a33b51e8694f1337d90069f695400da216dd76921036f6b441709510e562218c1f7ffb1245579886770ba5fda347d99032b08f4518153aeffffffff02809b2f00000000001976a914a94c5443e43baec5eabc50ec93d29e58d357b84988acc18100000000000017a91429eeced9ac05b376d7225bbfb300401cced5b9788700000000", "vin": [{"sequence": 4294967295, "scriptSig": {"hex": "004730440220259b50f980ff6176041b475419ec0c5b6ff958f584cf0a0de7b2e2db130320a50220692403b0f39d47223489a9a59e9e4f03cee60c235f9c24371fc42d0b644c23b901483045022100b6e5b6c4c026a6762e5d24534245d7f1aa24b7abdbf9a526209bb91d41bf009b022050218b18e36b15b89c4f844dc750dad48e447ca44c1d8147749e6207241407b1014c695221021f0b739e55a719b6d52aa1f7c0a43d8dc261815f264d645147d0bacd491304e82102c781a1470e1d4195bcc1cc067a33b51e8694f1337d90069f695400da216dd76921036f6b441709510e562218c1f7ffb1245579886770ba5fda347d99032b08f4518153ae", "asm": "0 30440220259b50f980ff6176041b475419ec0c5b6ff958f584cf0a0de7b2e2db130320a50220692403b0f39d47223489a9a59e9e4f03cee60c235f9c24371fc42d0b644c23b9[ALL] 3045022100b6e5b6c4c026a6762e5d24534245d7f1aa24b7abdbf9a526209bb91d41bf009b022050218b18e36b15b89c4f844dc750dad48e447ca44c1d8147749e6207241407b1[ALL] 5221021f0b739e55a719b6d52aa1f7c0a43d8dc261815f264d645147d0bacd491304e82102c781a1470e1d4195bcc1cc067a33b51e8694f1337d90069f695400da216dd76921036f6b441709510e562218c1f7ffb1245579886770ba5fda347d99032b08f4518153ae"}, "vout": 1, "txid": "77885261d3dd209313f595cf7a1263e60a347ffeed691a89b096948671a9604d"}], "txid": "b9e0258e0bc6532d562c531b00a101aa28cc673f2f40f7e605368dd8735ae82e", "blocktime": 1537873282, "version": 1, "confirmations": 11484, "time": 1537873282, "locktime": 0, "vsize": 372, "size": 372}