{"hash": "b9e3e4f14dc1dc0a05938d3c4b1d685b9599ef14eebf11ef7f59a56ded8dc193", "blockhash": "00000000000000000017f5eb5941039fbcee6240d03bc1f2f8e35350df66a1d8", "vout": [{"scriptPubKey": {"reqSigs": 1, "hex": "76a914720518cb4f2705c15fb3fdcc4f91b6309d3e5ef188ac", "addresses": ["1BPt91F2kxfcVXVdSbAXeTqFFCtHsHM8em"], "asm": "OP_DUP OP_HASH160 720518cb4f2705c15fb3fdcc4f91b6309d3e5ef1 OP_EQUALVERIFY OP_CHECKSIG", "type": "pubkeyhash"}, "value": 0.002324, "n": 0}, {"scriptPubKey": {"reqSigs": 1, "hex": "76a914e7043f26009b5deb7fa128d75fb79cefeaa29b9088ac", "addresses": ["1N4WBNrqNfDJSwKSTcY593zZ6j4BGYVDbC"], "asm": "OP_DUP OP_HASH160 e7043f26009b5deb7fa128d75fb79cefeaa29b90 OP_EQUALVERIFY OP_CHECKSIG", "type": "pubkeyhash"}, "value": 0.0107734, "n": 1}], "hex": "0100000001f72902d19d41518fbcd077bb9551685ac14983c9a9d42fc14662023f15e02e9b010000006b483045022100f39209c8e87c13d245d2fed9a107b655158906d6a58b8d285625dab09752ab0302207e01505cb09f636124f9bb3f0e8ca22c9ade606e9645bd378ec68234385445560121021af4abda261b2961fdc02b31ddbe60218f98d5dd77822ef60a206410aaa048e5ffffffff02d08b0300000000001976a914720518cb4f2705c15fb3fdcc4f91b6309d3e5ef188ac5c701000000000001976a914e7043f26009b5deb7fa128d75fb79cefeaa29b9088ac00000000", "vin": [{"sequence": 4294967295, "scriptSig": {"hex": "483045022100f39209c8e87c13d245d2fed9a107b655158906d6a58b8d285625dab09752ab0302207e01505cb09f636124f9bb3f0e8ca22c9ade606e9645bd378ec68234385445560121021af4abda261b2961fdc02b31ddbe60218f98d5dd77822ef60a206410aaa048e5", "asm": "3045022100f39209c8e87c13d245d2fed9a107b655158906d6a58b8d285625dab09752ab0302207e01505cb09f636124f9bb3f0e8ca22c9ade606e9645bd378ec6823438544556[ALL] 021af4abda261b2961fdc02b31ddbe60218f98d5dd77822ef60a206410aaa048e5"}, "vout": 1, "txid": "9b2ee0153f026246c12fd4a9c98349c15a685195bb77d0bc8f51419dd10229f7"}], "txid": "b9e3e4f14dc1dc0a05938d3c4b1d685b9599ef14eebf11ef7f59a56ded8dc193", "blocktime": 1537874412, "version": 1, "confirmations": 11467, "time": 1537874412, "locktime": 0, "vsize": 226, "size": 226}