{"hash": "b9e5af12c9ef0209fb70cb9defb28f8e90c6aa0b53e6135805f735b0b0ad89ac", "blockhash": "0000000000000000000baef3f32e3676a92c3b2e5da21b426e4f302fc371ce76", "vout": [{"scriptPubKey": {"reqSigs": 1, "hex": "a91432f4f52b39b620dfe48b07a01e4715e68d3bc90787", "addresses": ["36LTA6QWfoFbUtcVM5Yuoub6kTpCRYcYNM"], "asm": "OP_HASH160 32f4f52b39b620dfe48b07a01e4715e68d3bc907 OP_EQUAL", "type": "scripthash"}, "value": 0.49999999, "n": 0}, {"scriptPubKey": {"reqSigs": 1, "hex": "76a91491ffd23bd08e78c912e8e5085cc6906ec3427b0188ac", "addresses": ["1EJySayTveuBm64E3gazdknx8ovN26dc3u"], "asm": "OP_DUP OP_HASH160 91ffd23bd08e78c912e8e5085cc6906ec3427b01 OP_EQUALVERIFY OP_CHECKSIG", "type": "pubkeyhash"}, "value": 2.00040743, "n": 1}], "hex": "01000000013e573ffef2bd8d53fd14e9077ff9bfff37e4d57ae4058facd42c202570668cf8000000006a4730440220450f4d2b4b629e92cae654fe2faf4ca273e514a2d4764efc23ccf394742014a30220604cf00d93095ef4c540b7887d5683a18191fda5d09066bd9efee078ea284e32012103a1e5774429c84b570cb77d100419f5f7ba3bb7391fa300d6c38909c8f1a2d39fffffffff027ff0fa020000000017a91432f4f52b39b620dfe48b07a01e4715e68d3bc907872761ec0b000000001976a91491ffd23bd08e78c912e8e5085cc6906ec3427b0188ac00000000", "vin": [{"sequence": 4294967295, "scriptSig": {"hex": "4730440220450f4d2b4b629e92cae654fe2faf4ca273e514a2d4764efc23ccf394742014a30220604cf00d93095ef4c540b7887d5683a18191fda5d09066bd9efee078ea284e32012103a1e5774429c84b570cb77d100419f5f7ba3bb7391fa300d6c38909c8f1a2d39f", "asm": "30440220450f4d2b4b629e92cae654fe2faf4ca273e514a2d4764efc23ccf394742014a30220604cf00d93095ef4c540b7887d5683a18191fda5d09066bd9efee078ea284e32[ALL] 03a1e5774429c84b570cb77d100419f5f7ba3bb7391fa300d6c38909c8f1a2d39f"}, "vout": 0, "txid": "f88c667025202cd4ac8f05e47ad5e437ffbff97f07e914fd538dbdf2fe3f573e"}], "txid": "b9e5af12c9ef0209fb70cb9defb28f8e90c6aa0b53e6135805f735b0b0ad89ac", "blocktime": 1537876114, "version": 1, "confirmations": 11460, "time": 1537876114, "locktime": 0, "vsize": 223, "size": 223}