{"hash": "8a7cb2d2d35a5753d517d72e1343735cf809e4896ebfb088834e787adbc18ccc", "blockhash": "00000000000000000018f53835495a110e01622372bf6ae95dc86f2b0ab887b0", "vout": [{"scriptPubKey": {"reqSigs": 1, "hex": "76a9143e4dd122f2981650d2615efffd6e98bf51c4319e88ac", "addresses": ["16gS7i8rTsAt3tDf5RoAk77ThEHN8myu9P"], "asm": "OP_DUP OP_HASH160 3e4dd122f2981650d2615efffd6e98bf51c4319e OP_EQUALVERIFY OP_CHECKSIG", "type": "pubkeyhash"}, "value": 0.00157, "n": 0}, {"scriptPubKey": {"reqSigs": 1, "hex": "a9148ce1786180aedc08a99425a7b996157ff05c0b9787", "addresses": ["3EXvdM4oid6MaAmcYkomfddK9hGqHsez1A"], "asm": "OP_HASH160 8ce1786180aedc08a99425a7b996157ff05c0b97 OP_EQUAL", "type": "scripthash"}, "value": 0.04592281, "n": 1}], "hex": "010000000001010bfa6b4cf640c822838ea906d25d66d6adbd3dc72899491cd6acec5f65c240a102000000232200201e8b08ff6f6dcea25be4ec787f2846e636a7049b9ed468a7eb12472595bd3edcffffffff0248650200000000001976a9143e4dd122f2981650d2615efffd6e98bf51c4319e88ac991246000000000017a9148ce1786180aedc08a99425a7b996157ff05c0b9787040047304402200ffe1ae50277fe1fdc642f6c9da43824e3cd9c60432ddb8e6f28562819e3262802202a3dce56293af4d37c40613eaf1ca39346501319965121af58f31e8ba27571fc0147304402204405788262bc6befa876a91b5cdf6bded123d94917dd64bf6464ea5abb57d96c02205a767ed67788e585204ede7875c60a03b2fb48814ba93751607692d0d2127ff001475221027a268c4dbdee5466d9c4cdfce92221cf8bb23f7fcc7f1e73f7d7f2b350e288532103110e7eeb5380c93eb2fc9f5997e64e68bf4de158d120ecbb26a6336a25382c2d52ae00000000", "vin": [{"txinwitness": ["", "304402200ffe1ae50277fe1fdc642f6c9da43824e3cd9c60432ddb8e6f28562819e3262802202a3dce56293af4d37c40613eaf1ca39346501319965121af58f31e8ba27571fc01", "304402204405788262bc6befa876a91b5cdf6bded123d94917dd64bf6464ea5abb57d96c02205a767ed67788e585204ede7875c60a03b2fb48814ba93751607692d0d2127ff001", "5221027a268c4dbdee5466d9c4cdfce92221cf8bb23f7fcc7f1e73f7d7f2b350e288532103110e7eeb5380c93eb2fc9f5997e64e68bf4de158d120ecbb26a6336a25382c2d52ae"], "sequence": 4294967295, "scriptSig": {"hex": "2200201e8b08ff6f6dcea25be4ec787f2846e636a7049b9ed468a7eb12472595bd3edc", "asm": "00201e8b08ff6f6dcea25be4ec787f2846e636a7049b9ed468a7eb12472595bd3edc"}, "vout": 2, "txid": "a140c2655fecacd61c499928c73dbdadd6665dd206a98e8322c840f64c6bfa0b"}], "txid": "b9e6b1d77bba4db47264a54879050d05da82134c44df609b67d26e1d7f6c5a9e", "blocktime": 1537870928, "version": 1, "confirmations": 11514, "time": 1537870928, "locktime": 0, "vsize": 207, "size": 372}