{"hash": "b9e74eace9985738378d52f370649dd31f302e26aefe8224e4c1423323d1e623", "blockhash": "0000000000000000001cda96e906b7601b7a6fb1a3b62bca570a9e5d8f4b3de1", "vout": [{"scriptPubKey": {"reqSigs": 1, "hex": "76a914adcc3fed444dd2f8dac24513e3faf0b590341c0e88ac", "addresses": ["1GqxahvdG96uifAqJCVC3XWLx75VVGXpkK"], "asm": "OP_DUP OP_HASH160 adcc3fed444dd2f8dac24513e3faf0b590341c0e OP_EQUALVERIFY OP_CHECKSIG", "type": "pubkeyhash"}, "value": 0.00018451, "n": 0}, {"scriptPubKey": {"reqSigs": 1, "hex": "76a91443979c7bd0e073c060289e2f4b1b1610d56a96e688ac", "addresses": ["17APtzJV6xn5SmStomFrcRs6WSSfNKC9nV"], "asm": "OP_DUP OP_HASH160 43979c7bd0e073c060289e2f4b1b1610d56a96e6 OP_EQUALVERIFY OP_CHECKSIG", "type": "pubkeyhash"}, "value": 0.01487876, "n": 1}], "hex": "01000000016438e773d3a98cfe7965443c2af359c39cb0a8836a416637af38cf1e1d0f59c4040000006a47304402202ae4940e0a8d408386bb6b75b2c39b9621f5178a2dc68e13dd3c76b6916715190220684f31a00529b271c55143c67d65ef6d64f4f28da348cbbf0994e985fb22a5b9012102fddce35d076e65c7b559f0024aa1e2d54b2810e04c2c129f189a5f8b688cc863ffffffff0213480000000000001976a914adcc3fed444dd2f8dac24513e3faf0b590341c0e88ac04b41600000000001976a91443979c7bd0e073c060289e2f4b1b1610d56a96e688ac00000000", "vin": [{"sequence": 4294967295, "scriptSig": {"hex": "47304402202ae4940e0a8d408386bb6b75b2c39b9621f5178a2dc68e13dd3c76b6916715190220684f31a00529b271c55143c67d65ef6d64f4f28da348cbbf0994e985fb22a5b9012102fddce35d076e65c7b559f0024aa1e2d54b2810e04c2c129f189a5f8b688cc863", "asm": "304402202ae4940e0a8d408386bb6b75b2c39b9621f5178a2dc68e13dd3c76b6916715190220684f31a00529b271c55143c67d65ef6d64f4f28da348cbbf0994e985fb22a5b9[ALL] 02fddce35d076e65c7b559f0024aa1e2d54b2810e04c2c129f189a5f8b688cc863"}, "vout": 4, "txid": "c4590f1d1ecf38af3766416a83a8b09cc359f32a3c446579fe8ca9d373e73864"}], "txid": "b9e74eace9985738378d52f370649dd31f302e26aefe8224e4c1423323d1e623", "blocktime": 1537873282, "version": 1, "confirmations": 11485, "time": 1537873282, "locktime": 0, "vsize": 225, "size": 225}