{"hash": "b9ecb12a3ec804ccc9e20e93cf7ae250d0f24e4ad0e25c22f9c04a6289134781", "blockhash": "0000000000000000001cda96e906b7601b7a6fb1a3b62bca570a9e5d8f4b3de1", "vout": [{"scriptPubKey": {"reqSigs": 1, "hex": "00144cdd69801cb6973491fa2136b1b04efbca19989d", "addresses": ["bc1qfnwknqquk6tnfy06yymtrvzwl09pnxyafdsfqk"], "asm": "0 4cdd69801cb6973491fa2136b1b04efbca19989d", "type": "witness_v0_keyhash"}, "value": 0.00035438, "n": 0}, {"scriptPubKey": {"reqSigs": 1, "hex": "76a91462f9a19bb360a0c3c690c954a73ac93b0defb7bb88ac", "addresses": ["1A2LGV8JrkBhHwfUaMMLy55eF2uQ2wYnWE"], "asm": "OP_DUP OP_HASH160 62f9a19bb360a0c3c690c954a73ac93b0defb7bb OP_EQUALVERIFY OP_CHECKSIG", "type": "pubkeyhash"}, "value": 0.010549, "n": 1}], "hex": "0100000001b41c843e27f5fb428b40e4ec26b178a8dc98a6261707b657836f801eb24ed1b50b0000006b483045022100afb81392ecfd6a00941a881976c4827d4922284e8971aa21bb8781cd055321fe022017822b7d5b6f3a459ad08cbfc6a9f9699a7227b23da3e889e2bb8358d31f59bb01210324aa7493a4a2a51fbffb1b7ddf229fc9c632e1ab272d30a4d5c017beec413d66ffffffff026e8a0000000000001600144cdd69801cb6973491fa2136b1b04efbca19989db4181000000000001976a91462f9a19bb360a0c3c690c954a73ac93b0defb7bb88ac00000000", "vin": [{"sequence": 4294967295, "scriptSig": {"hex": "483045022100afb81392ecfd6a00941a881976c4827d4922284e8971aa21bb8781cd055321fe022017822b7d5b6f3a459ad08cbfc6a9f9699a7227b23da3e889e2bb8358d31f59bb01210324aa7493a4a2a51fbffb1b7ddf229fc9c632e1ab272d30a4d5c017beec413d66", "asm": "3045022100afb81392ecfd6a00941a881976c4827d4922284e8971aa21bb8781cd055321fe022017822b7d5b6f3a459ad08cbfc6a9f9699a7227b23da3e889e2bb8358d31f59bb[ALL] 0324aa7493a4a2a51fbffb1b7ddf229fc9c632e1ab272d30a4d5c017beec413d66"}, "vout": 11, "txid": "b5d14eb21e806f8357b6071726a698dca878b126ece4408b42fbf5273e841cb4"}], "txid": "b9ecb12a3ec804ccc9e20e93cf7ae250d0f24e4ad0e25c22f9c04a6289134781", "blocktime": 1537873282, "version": 1, "confirmations": 11484, "time": 1537873282, "locktime": 0, "vsize": 223, "size": 223}