{"hash": "c47d447abf71230b637243f6c951c7861e92cb586f6ab2221c996a4b8a6a6c59", "blockhash": "0000000000000000001e0dab787dd257d1dbfcb92a98c2207d5e1078be1f4165", "vout": [{"scriptPubKey": {"reqSigs": 1, "hex": "76a914200b28df1f040dd508af52d503435a970d41025188ac", "addresses": ["13vRzXSz67RZBSpWKyDpJHHWqEAXDRrKBr"], "asm": "OP_DUP OP_HASH160 200b28df1f040dd508af52d503435a970d410251 OP_EQUALVERIFY OP_CHECKSIG", "type": "pubkeyhash"}, "value": 0.03093373, "n": 0}, {"scriptPubKey": {"reqSigs": 1, "hex": "a9140136c10502ae5684e49b302f1af10f145f74b6b787", "addresses": ["31oSC7GvQMTZoouyNLBEHVRDhXEFbVhSmh"], "asm": "OP_HASH160 0136c10502ae5684e49b302f1af10f145f74b6b7 OP_EQUAL", "type": "scripthash"}, "value": 0.07056144, "n": 1}], "hex": "01000000000101db3f31b3091ff445dbf3a79924d955546e1566722edc6d71f0fa1410704ba4ed0100000023220020efd02f10cc1074c68ec89b458572a71ce6bfc8a17595d8fde80232e47279444bffffffff027d332f00000000001976a914200b28df1f040dd508af52d503435a970d41025188ac10ab6b000000000017a9140136c10502ae5684e49b302f1af10f145f74b6b78704004830450221008e8fb3eeffae7e651f14edae48ce125b25bd6688e2776eeecb108c3f02aa10b102207b50d8e61281a5d79d6c5d170e7d9506834d47c9657efcade747a6834233364c0148304502210097e4de9199c643ae706a8f2b4a5c57db27cdecd60c39c4d46701a731bf78a9ab02204b166a977cf752c519c66f793591c40600192b664db1d9855362276b33e8055c0147522103f985ea61f461801f3abc09ebed98ce7e20804639a64616f639f492883ea4e8d62103871fc2ca08e6950b38867e8e6a0e94ee625223d3aa0df5c65f414c6d784467e252ae00000000", "vin": [{"txinwitness": ["", "30450221008e8fb3eeffae7e651f14edae48ce125b25bd6688e2776eeecb108c3f02aa10b102207b50d8e61281a5d79d6c5d170e7d9506834d47c9657efcade747a6834233364c01", "304502210097e4de9199c643ae706a8f2b4a5c57db27cdecd60c39c4d46701a731bf78a9ab02204b166a977cf752c519c66f793591c40600192b664db1d9855362276b33e8055c01", "522103f985ea61f461801f3abc09ebed98ce7e20804639a64616f639f492883ea4e8d62103871fc2ca08e6950b38867e8e6a0e94ee625223d3aa0df5c65f414c6d784467e252ae"], "sequence": 4294967295, "scriptSig": {"hex": "220020efd02f10cc1074c68ec89b458572a71ce6bfc8a17595d8fde80232e47279444b", "asm": "0020efd02f10cc1074c68ec89b458572a71ce6bfc8a17595d8fde80232e47279444b"}, "vout": 1, "txid": "eda44b701014faf0716ddc2e7266156e5455d92499a7f3db45f41f09b3313fdb"}], "txid": "b9f003a2932a5609f0164f466e7b7a495d2557988170453ee97bacae719f0443", "blocktime": 1537872475, "version": 1, "confirmations": 11487, "time": 1537872475, "locktime": 0, "vsize": 208, "size": 374}