{"hash": "b9fdbc411ed53f638c07f61fdc170ca68bc3c360201be7abf12b43ca81296e61", "blockhash": "0000000000000000001f76057863aec43deb6fa401d9628bb513d65a8098bfab", "vout": [{"scriptPubKey": {"reqSigs": 1, "hex": "76a914829c5545e51402c48d383bef108de8b587dc213488ac", "addresses": ["1Cuc89pNpukvKbrJgAiiUBPCKim764uj5T"], "asm": "OP_DUP OP_HASH160 829c5545e51402c48d383bef108de8b587dc2134 OP_EQUALVERIFY OP_CHECKSIG", "type": "pubkeyhash"}, "value": 0.00010409, "n": 0}, {"scriptPubKey": {"reqSigs": 1, "hex": "76a9140168d1099847bebbcc6deef937bf58d39e6fec1888ac", "addresses": ["18TEyU948NKTibiiyRjz52LeAPrDgJ5q7"], "asm": "OP_DUP OP_HASH160 0168d1099847bebbcc6deef937bf58d39e6fec18 OP_EQUALVERIFY OP_CHECKSIG", "type": "pubkeyhash"}, "value": 0.00403091, "n": 1}], "hex": "010000000187c8e40d68a7142b7c7481c8919997d9cfafbd0cdfde8db7239b515d842d1cdf000000006a47304402207230be906de3b76229e82201f5a70dc6a84285966e63391cb5a0b7ad9ca550ce02200094409ceb91908dc0590da7d401e8bee3a1b73fd986057e3d6a91c9efec620801210329d26c006f6f0c5760b4a44d41a19656746713fb5d1d4992447bedf6c819b588feffffff02a9280000000000001976a914829c5545e51402c48d383bef108de8b587dc213488ac93260600000000001976a9140168d1099847bebbcc6deef937bf58d39e6fec1888ac14490800", "vin": [{"sequence": 4294967294, "scriptSig": {"hex": "47304402207230be906de3b76229e82201f5a70dc6a84285966e63391cb5a0b7ad9ca550ce02200094409ceb91908dc0590da7d401e8bee3a1b73fd986057e3d6a91c9efec620801210329d26c006f6f0c5760b4a44d41a19656746713fb5d1d4992447bedf6c819b588", "asm": "304402207230be906de3b76229e82201f5a70dc6a84285966e63391cb5a0b7ad9ca550ce02200094409ceb91908dc0590da7d401e8bee3a1b73fd986057e3d6a91c9efec6208[ALL] 0329d26c006f6f0c5760b4a44d41a19656746713fb5d1d4992447bedf6c819b588"}, "vout": 0, "txid": "df1c2d845d519b23b78ddedf0cbdafcfd9979991c881747c2b14a7680de4c887"}], "txid": "b9fdbc411ed53f638c07f61fdc170ca68bc3c360201be7abf12b43ca81296e61", "blocktime": 1537873891, "version": 1, "confirmations": 11474, "time": 1537873891, "locktime": 542996, "vsize": 225, "size": 225}