{"hash": "b31d87456745eedaa0c27e47ee7180a7110c3a8b91d939ac9705ed57f8b21505", "blockhash": "0000000000000000001cda96e906b7601b7a6fb1a3b62bca570a9e5d8f4b3de1", "vout": [{"scriptPubKey": {"reqSigs": 1, "hex": "76a9149a1b8f9b1fa2d2297863adb1cb11c71df455684888ac", "addresses": ["1F3r5We2zwNiSzG6GQUTTWnnPMCz2HJbJu"], "asm": "OP_DUP OP_HASH160 9a1b8f9b1fa2d2297863adb1cb11c71df4556848 OP_EQUALVERIFY OP_CHECKSIG", "type": "pubkeyhash"}, "value": 2.713e-05, "n": 0}, {"scriptPubKey": {"reqSigs": 1, "hex": "a914e8db75c900cf08f06518e96d167331f2a4abfb3387", "addresses": ["3NvFbQMAkkqEFj4i1sYPPLkSWzxTFUchjA"], "asm": "OP_HASH160 e8db75c900cf08f06518e96d167331f2a4abfb33 OP_EQUAL", "type": "scripthash"}, "value": 7.844e-05, "n": 1}], "hex": "010000000001014b5e8860ca65c97399670a98d99695f0e79799c859c4e5aad42623444611da8d0100000023220020941cfaff8837763dc1f69ff82b6d6553fdea17a41cfc29a04403293eedd8ccc7ffffffff02990a0000000000001976a9149a1b8f9b1fa2d2297863adb1cb11c71df455684888aca41e00000000000017a914e8db75c900cf08f06518e96d167331f2a4abfb33870400473044022027f509f8383b7921c3949bd844d1dbc6becd361931a430ab550d13e61ce0c6650220698b1cdec8746e657551c1fb3962d6c4144f7c973c85bf6b25dc9a9093eb8feb014830450221008e5099a3dbb01360fbabf2b87bbef2e26a086f34feca03a03138d801b33da1b4022064533204aca99f3809c06c3cbca5fe91f3add5b3ff1d59762fca6ee9fe73c39d0147522102531db3a5883f29bab4241dd0cd726936667bcda445d89bdd22244e828b6993342103148c80a5bdfddb05ff5bcffc397c8ca748d8b435ec6a175bc9d7bfc7fc6f853752ae00000000", "vin": [{"txinwitness": ["", "3044022027f509f8383b7921c3949bd844d1dbc6becd361931a430ab550d13e61ce0c6650220698b1cdec8746e657551c1fb3962d6c4144f7c973c85bf6b25dc9a9093eb8feb01", "30450221008e5099a3dbb01360fbabf2b87bbef2e26a086f34feca03a03138d801b33da1b4022064533204aca99f3809c06c3cbca5fe91f3add5b3ff1d59762fca6ee9fe73c39d01", "522102531db3a5883f29bab4241dd0cd726936667bcda445d89bdd22244e828b6993342103148c80a5bdfddb05ff5bcffc397c8ca748d8b435ec6a175bc9d7bfc7fc6f853752ae"], "sequence": 4294967295, "scriptSig": {"hex": "220020941cfaff8837763dc1f69ff82b6d6553fdea17a41cfc29a04403293eedd8ccc7", "asm": "0020941cfaff8837763dc1f69ff82b6d6553fdea17a41cfc29a04403293eedd8ccc7"}, "vout": 1, "txid": "8dda1146442326d4aae5c459c89997e7f09596d9980a679973c965ca60885e4b"}], "txid": "ba0075b69a50f88f9c3074d8f83f1f64ed88f9da422281da2f84bfabed139f36", "blocktime": 1537873282, "version": 1, "confirmations": 11484, "time": 1537873282, "locktime": 0, "vsize": 208, "size": 373}