{"hash": "dd1b752c15ac309b44810bd9057bf0af467e4f3f45744c00533cc287cb3824ba", "blockhash": "0000000000000000000e13cef7c366c0283d82e591d1acd082e914b08063cdf1", "vout": [{"scriptPubKey": {"reqSigs": 1, "hex": "76a914b78b1975c2b9662bbef3c79eb840d33ee276467c88ac", "addresses": ["1HjVHuTRSuoWCET3jiXCPqiGhDkWWoz994"], "asm": "OP_DUP OP_HASH160 b78b1975c2b9662bbef3c79eb840d33ee276467c OP_EQUALVERIFY OP_CHECKSIG", "type": "pubkeyhash"}, "value": 0.09353248, "n": 0}, {"scriptPubKey": {"reqSigs": 1, "hex": "0014ae3f382bcfee865e6ba7231490a44a278e0abde1", "addresses": ["bc1q4clns270a6r9u6a8yv2fpfz2y78q400pu2rk45"], "asm": "0 ae3f382bcfee865e6ba7231490a44a278e0abde1", "type": "witness_v0_keyhash"}, "value": 2.13778541, "n": 1}], "hex": "01000000000101234178267a7eb50ec33cd61bcf978f38b2b998a90be550f80a8b404821a44d790100000000ffffffff0220b88e00000000001976a914b78b1975c2b9662bbef3c79eb840d33ee276467c88ac6d00be0c00000000160014ae3f382bcfee865e6ba7231490a44a278e0abde1024730440220105b894520760e77de099d1be9cf87362bf4c0edd569cdc950be5d09daf38f8802202388c98083691f58a9960eb2c7538b895630700acb470fee2c7c0b29f3638f56012102ed7776b5f3b964fca9d29a6abf0a7d9e1ab48ede4b85968f8e45edc2394d421d00000000", "vin": [{"txinwitness": ["30440220105b894520760e77de099d1be9cf87362bf4c0edd569cdc950be5d09daf38f8802202388c98083691f58a9960eb2c7538b895630700acb470fee2c7c0b29f3638f5601", "02ed7776b5f3b964fca9d29a6abf0a7d9e1ab48ede4b85968f8e45edc2394d421d"], "sequence": 4294967295, "scriptSig": {"hex": "", "asm": ""}, "vout": 1, "txid": "794da42148408b0af850e50ba998b9b2388f97cf1bd63cc30eb57e7a26784123"}], "txid": "ba015fb017f6711f071c0ba815f63c64457b361256e35e6d35ea60477d8bbac0", "blocktime": 1537871767, "version": 1, "confirmations": 11495, "time": 1537871767, "locktime": 0, "vsize": 144, "size": 225}