{"hash": "ba06cdd3d373985b88126224367fe571a36dd305c2954a2ecc903a7a8135bc0e", "blockhash": "0000000000000000000dcc0f55137456b1a82d3642486a52398922ac4d620174", "vout": [{"scriptPubKey": {"reqSigs": 1, "hex": "76a9143fce81888f0f39b413053b7b25ddb61eafe1557288ac", "addresses": ["16pNxNduzNi7ubbzKZfgzYHvEdZ2KpRqGb"], "asm": "OP_DUP OP_HASH160 3fce81888f0f39b413053b7b25ddb61eafe15572 OP_EQUALVERIFY OP_CHECKSIG", "type": "pubkeyhash"}, "value": 5.656e-05, "n": 0}, {"scriptPubKey": {"reqSigs": 1, "hex": "a914d01df4113cfe2216ee0c15584e1a881c9116fa4187", "addresses": ["3LfSMeDBHXxmxmdn7fthDTTXwUQ6rHfiZs"], "asm": "OP_HASH160 d01df4113cfe2216ee0c15584e1a881c9116fa41 OP_EQUAL", "type": "scripthash"}, "value": 0.00164, "n": 1}], "hex": "0100000001cb4ea3cd9745b5d8599e8aff8460ce7ae2173ce373a73de91ddbf96d59f723fc010000006b483045022100bbdbd292c84833da3624b8df1de9cd01c8d69da08190cd0dcd048b25b6eb8a1502204ec50061ff0a0613ccd8864582fe241f8a675523aab74d1c94eeba6bbf3d2b84012103d1e4e31718114d16e32c69cff06d8fe477a70226e8a4f72ceaca3606c11d8b03ffffffff0218160000000000001976a9143fce81888f0f39b413053b7b25ddb61eafe1557288aca08002000000000017a914d01df4113cfe2216ee0c15584e1a881c9116fa418700000000", "vin": [{"sequence": 4294967295, "scriptSig": {"hex": "483045022100bbdbd292c84833da3624b8df1de9cd01c8d69da08190cd0dcd048b25b6eb8a1502204ec50061ff0a0613ccd8864582fe241f8a675523aab74d1c94eeba6bbf3d2b84012103d1e4e31718114d16e32c69cff06d8fe477a70226e8a4f72ceaca3606c11d8b03", "asm": "3045022100bbdbd292c84833da3624b8df1de9cd01c8d69da08190cd0dcd048b25b6eb8a1502204ec50061ff0a0613ccd8864582fe241f8a675523aab74d1c94eeba6bbf3d2b84[ALL] 03d1e4e31718114d16e32c69cff06d8fe477a70226e8a4f72ceaca3606c11d8b03"}, "vout": 1, "txid": "fc23f7596df9db1de93da773e33c17e27ace6084ff8a9e59d8b54597cda34ecb"}], "txid": "ba06cdd3d373985b88126224367fe571a36dd305c2954a2ecc903a7a8135bc0e", "blocktime": 1537870268, "version": 1, "confirmations": 11516, "time": 1537870268, "locktime": 0, "vsize": 224, "size": 224}