{"hash": "ba07aba0ac70785834c73b5439f0e954b13f14b00ef133f083cbec3d6f660951", "blockhash": "00000000000000000018f53835495a110e01622372bf6ae95dc86f2b0ab887b0", "vout": [{"scriptPubKey": {"reqSigs": 1, "hex": "76a914a25dec4d0011064ef106a983c39c7a540699f22088ac", "addresses": ["1FoWyxwPXuj4C6abqwhjDWdz6D4PZgYRjA"], "asm": "OP_DUP OP_HASH160 a25dec4d0011064ef106a983c39c7a540699f220 OP_EQUALVERIFY OP_CHECKSIG", "type": "pubkeyhash"}, "value": 0.01995188, "n": 0}, {"scriptPubKey": {"type": "nulldata", "hex": "6a146f6d6e69000000000000001f0000003e2a70ae00", "asm": "OP_RETURN 6f6d6e69000000000000001f0000003e2a70ae00"}, "value": 0.0, "n": 1}, {"scriptPubKey": {"reqSigs": 1, "hex": "76a9147e6cf63a08ebc7c90ac60fe12a11b337a52690ce88ac", "addresses": ["1CXUfyJrBnsxLceztgZGFNcBEUEh9Lg1H5"], "asm": "OP_DUP OP_HASH160 7e6cf63a08ebc7c90ac60fe12a11b337a52690ce OP_EQUALVERIFY OP_CHECKSIG", "type": "pubkeyhash"}, "value": 5.46e-06, "n": 2}], "hex": "0100000001a44813c76173a4fe9689194c29809e35be05f1741d9b5e1e9e8bd44070ac1fea690000006b483045022100e638b8a5b5b5608b91adc0c0303a3c871d68119b9e97b9bef8b009082c2a45df022037f6c9b61679e360c4d5151b21d947d3605f417f4653d5501df3b29d143cb12e012103da5bac7b36d5aa38f531c6b9601e21bb598a4b6716ebed38b009a55dabde9440feffffff03b4711e00000000001976a914a25dec4d0011064ef106a983c39c7a540699f22088ac0000000000000000166a146f6d6e69000000000000001f0000003e2a70ae0022020000000000001976a9147e6cf63a08ebc7c90ac60fe12a11b337a52690ce88ac0e490800", "vin": [{"sequence": 4294967294, "scriptSig": {"hex": "483045022100e638b8a5b5b5608b91adc0c0303a3c871d68119b9e97b9bef8b009082c2a45df022037f6c9b61679e360c4d5151b21d947d3605f417f4653d5501df3b29d143cb12e012103da5bac7b36d5aa38f531c6b9601e21bb598a4b6716ebed38b009a55dabde9440", "asm": "3045022100e638b8a5b5b5608b91adc0c0303a3c871d68119b9e97b9bef8b009082c2a45df022037f6c9b61679e360c4d5151b21d947d3605f417f4653d5501df3b29d143cb12e[ALL] 03da5bac7b36d5aa38f531c6b9601e21bb598a4b6716ebed38b009a55dabde9440"}, "vout": 105, "txid": "ea1fac7040d48b9e1e5e9b1d74f105be359e80294c198996fea47361c71348a4"}], "txid": "ba07aba0ac70785834c73b5439f0e954b13f14b00ef133f083cbec3d6f660951", "blocktime": 1537870928, "version": 1, "confirmations": 11512, "time": 1537870928, "locktime": 542990, "vsize": 257, "size": 257}