{"hash": "ba09fdd0dee026d3404a051a834356139409f34b92480afd7a7e7d016a55c643", "blockhash": "000000000000000000205f8b0775d31398ef75b89a5e8ec8d2c57b4dc0ac4c20", "vout": [{"scriptPubKey": {"reqSigs": 1, "hex": "76a9147b4d12e8d848e93e2ade216c089522656459181888ac", "addresses": ["1CExSnJwQv75iy9NRpijSvWb3bs72gVauW"], "asm": "OP_DUP OP_HASH160 7b4d12e8d848e93e2ade216c0895226564591818 OP_EQUALVERIFY OP_CHECKSIG", "type": "pubkeyhash"}, "value": 0.000275, "n": 0}, {"scriptPubKey": {"reqSigs": 1, "hex": "76a914310d3778e097d483423493feb8ff98da9a6e3eb088ac", "addresses": ["15UMwiFmH1Hj5qEv3wEKay4JKpVwm9KXcb"], "asm": "OP_DUP OP_HASH160 310d3778e097d483423493feb8ff98da9a6e3eb0 OP_EQUALVERIFY OP_CHECKSIG", "type": "pubkeyhash"}, "value": 0.05657, "n": 1}], "hex": "010000000ae24a6401af2d3b99017e2899bad379e306eba0fff0e0ebf8cb0c8c1daa0e45095b0000006946304302204c80220b73bafdc3ee134fa822c7c2fed30307bc04f12e52cc7028710438028d021f47a100cad8ab15c87d9296842591d69dc6c05da2254bb7274efb36f1dd8531012103120e11a4dac459648800f2dce14548f513f3b2295f19b21ed7dcea7a0b590f8cfeffffff16492b6e67e88153a3ea86dafaebca1ff0e13ab838102bc8fe7bdd4ac0a29e3f5a0000006a473044022070fc6e4c4148dffe34977310f0907d945ea60778a030ba6ff082d1d03426b7f002204077485bdb967c5d36734f4a12404f5b1d6c89e7f68c0b2f615b5ab7ec1455f9012103120e11a4dac459648800f2dce14548f513f3b2295f19b21ed7dcea7a0b590f8cfeffffff67a6c720d684093074caa0f4da7df108f293406fdcb1cb92908dc98291601f4e010000006a47304402206e8f243e9b390df822e7e1dc23bbe05cd2df99f6a5884e6e1e13927a44b92bbf022066c66b82a78c76b228cb6e1badae9bb074ea9ca7ecb0410e860f104f9196d1ca012103120e11a4dac459648800f2dce14548f513f3b2295f19b21ed7dcea7a0b590f8cfeffffffcf841838acb9f4d9528b728f124084c6613aff3ff35011cec1969883055a597a390000006a473044022029ff51ca1607d118c496eb8461d231f9b01067fd05065e99073a2a47206cbfba02201cf08300c6a56aae136cd804debe4e1bb8da9b648565c86349fa9633bc3a01c2012103120e11a4dac459648800f2dce14548f513f3b2295f19b21ed7dcea7a0b590f8cfeffffff2a8a9a8061c2fb20b9037c0e4d5dd7fb7ba38964cc513ff53936f09a2a99e7c6050000006b483045022100c1e834ce41a5bbef3353183e58d48b1be6b67609ea6442c93b5ab9de384377aa02203b6624894cb1c0d611cb09d97e898d00700ae31c17b63c81df5f7b237c46e6ae012103120e11a4dac459648800f2dce14548f513f3b2295f19b21ed7dcea7a0b590f8cfeffffffd072a8438e9653dedd8a414aee439211d4e5227bb174f70ced92ba2e614917ca660000006a47304402202aac768b8c407c65bbc4eb7f17c4b3171bf8c83266ed4e2f0b84069ff560dcc70220352e93f1198b3954b8a91a08833bc34dc28edac65eaeeff1a4770e6d31202d0b012103120e11a4dac459648800f2dce14548f513f3b2295f19b21ed7dcea7a0b590f8cfeffffff30c8af81bbf337be29dca079ff632388fb79eaaa5ffbd360c12efb247df6c7cf690000006a473044022051b58f11b75cacc35b2f9eb6378591c5443611851e2b2246891ac4e33768a16c02202714874a6458bfee0d3cf2bffcb2fae75a4c103bd7db449bf7c47fef425d68d8012103120e11a4dac459648800f2dce14548f513f3b2295f19b21ed7dcea7a0b590f8cfeffffff916d993cac5c7bec0a717212e4ff84222ddbb7426d88e67650fb80d90f2e19de630000006a473044022100969beb3e53367bd1b502f57d5fc97f8c340721c12a430b675396231a12e92461021f253dec37fda9bedd784ac3a6cb13684268df0ef90aef52d55654f5ba71bf69012103120e11a4dac459648800f2dce14548f513f3b2295f19b21ed7dcea7a0b590f8cfeffffff0356472d1ae1117de9457aa5b0c5f3a686df9a0e4f778147a9a0486509a3e0df5c0000006b483045022100e479d7eb3d9ce007b62ad7899f0ef9f1bb3c8414d4991f578e8eb5c653fb5c8a02205e3a3ea27a70dbd37b4c0df2bfb5f1bf6c08a9dd595e0833e809114e15683ca4012103120e11a4dac459648800f2dce14548f513f3b2295f19b21ed7dcea7a0b590f8cfeffffff6e8559db66a9e67d774aeff4c60370799fd386b7787ac00d26ba2c710e0bfce3640000006b483045022100fd6ce463f2c3850655b18846b65183ee90ad75e5df9fd3e5a6cd83935a06300302200fc22b0f29264911fafab85ff0be7568c903a0b9a10b5b809571fe02717adaea012103120e11a4dac459648800f2dce14548f513f3b2295f19b21ed7dcea7a0b590f8cfeffffff026c6b0000000000001976a9147b4d12e8d848e93e2ade216c089522656459181888aca8515600000000001976a914310d3778e097d483423493feb8ff98da9a6e3eb088ac00000000", "vin": [{"sequence": 4294967294, "scriptSig": {"hex": "46304302204c80220b73bafdc3ee134fa822c7c2fed30307bc04f12e52cc7028710438028d021f47a100cad8ab15c87d9296842591d69dc6c05da2254bb7274efb36f1dd8531012103120e11a4dac459648800f2dce14548f513f3b2295f19b21ed7dcea7a0b590f8c", "asm": "304302204c80220b73bafdc3ee134fa822c7c2fed30307bc04f12e52cc7028710438028d021f47a100cad8ab15c87d9296842591d69dc6c05da2254bb7274efb36f1dd8531[ALL] 03120e11a4dac459648800f2dce14548f513f3b2295f19b21ed7dcea7a0b590f8c"}, "vout": 91, "txid": "09450eaa1d8c0ccbf8ebe0f0ffa0eb06e379d3ba99287e01993b2daf01644ae2"}, {"sequence": 4294967294, "scriptSig": {"hex": "473044022070fc6e4c4148dffe34977310f0907d945ea60778a030ba6ff082d1d03426b7f002204077485bdb967c5d36734f4a12404f5b1d6c89e7f68c0b2f615b5ab7ec1455f9012103120e11a4dac459648800f2dce14548f513f3b2295f19b21ed7dcea7a0b590f8c", "asm": "3044022070fc6e4c4148dffe34977310f0907d945ea60778a030ba6ff082d1d03426b7f002204077485bdb967c5d36734f4a12404f5b1d6c89e7f68c0b2f615b5ab7ec1455f9[ALL] 03120e11a4dac459648800f2dce14548f513f3b2295f19b21ed7dcea7a0b590f8c"}, "vout": 90, "txid": "3f9ea2c04add7bfec82b1038b83ae1f01fcaebfada86eaa35381e8676e2b4916"}, {"sequence": 4294967294, "scriptSig": {"hex": "47304402206e8f243e9b390df822e7e1dc23bbe05cd2df99f6a5884e6e1e13927a44b92bbf022066c66b82a78c76b228cb6e1badae9bb074ea9ca7ecb0410e860f104f9196d1ca012103120e11a4dac459648800f2dce14548f513f3b2295f19b21ed7dcea7a0b590f8c", "asm": "304402206e8f243e9b390df822e7e1dc23bbe05cd2df99f6a5884e6e1e13927a44b92bbf022066c66b82a78c76b228cb6e1badae9bb074ea9ca7ecb0410e860f104f9196d1ca[ALL] 03120e11a4dac459648800f2dce14548f513f3b2295f19b21ed7dcea7a0b590f8c"}, "vout": 1, "txid": "4e1f609182c98d9092cbb1dc6f4093f208f17ddaf4a0ca74300984d620c7a667"}, {"sequence": 4294967294, "scriptSig": {"hex": "473044022029ff51ca1607d118c496eb8461d231f9b01067fd05065e99073a2a47206cbfba02201cf08300c6a56aae136cd804debe4e1bb8da9b648565c86349fa9633bc3a01c2012103120e11a4dac459648800f2dce14548f513f3b2295f19b21ed7dcea7a0b590f8c", "asm": "3044022029ff51ca1607d118c496eb8461d231f9b01067fd05065e99073a2a47206cbfba02201cf08300c6a56aae136cd804debe4e1bb8da9b648565c86349fa9633bc3a01c2[ALL] 03120e11a4dac459648800f2dce14548f513f3b2295f19b21ed7dcea7a0b590f8c"}, "vout": 57, "txid": "7a595a05839896c1ce1150f33fff3a61c68440128f728b52d9f4b9ac381884cf"}, {"sequence": 4294967294, "scriptSig": {"hex": "483045022100c1e834ce41a5bbef3353183e58d48b1be6b67609ea6442c93b5ab9de384377aa02203b6624894cb1c0d611cb09d97e898d00700ae31c17b63c81df5f7b237c46e6ae012103120e11a4dac459648800f2dce14548f513f3b2295f19b21ed7dcea7a0b590f8c", "asm": "3045022100c1e834ce41a5bbef3353183e58d48b1be6b67609ea6442c93b5ab9de384377aa02203b6624894cb1c0d611cb09d97e898d00700ae31c17b63c81df5f7b237c46e6ae[ALL] 03120e11a4dac459648800f2dce14548f513f3b2295f19b21ed7dcea7a0b590f8c"}, "vout": 5, "txid": "c6e7992a9af03639f53f51cc6489a37bfbd75d4d0e7c03b920fbc261809a8a2a"}, {"sequence": 4294967294, "scriptSig": {"hex": "47304402202aac768b8c407c65bbc4eb7f17c4b3171bf8c83266ed4e2f0b84069ff560dcc70220352e93f1198b3954b8a91a08833bc34dc28edac65eaeeff1a4770e6d31202d0b012103120e11a4dac459648800f2dce14548f513f3b2295f19b21ed7dcea7a0b590f8c", "asm": "304402202aac768b8c407c65bbc4eb7f17c4b3171bf8c83266ed4e2f0b84069ff560dcc70220352e93f1198b3954b8a91a08833bc34dc28edac65eaeeff1a4770e6d31202d0b[ALL] 03120e11a4dac459648800f2dce14548f513f3b2295f19b21ed7dcea7a0b590f8c"}, "vout": 102, "txid": "ca1749612eba92ed0cf774b17b22e5d4119243ee4a418addde53968e43a872d0"}, {"sequence": 4294967294, "scriptSig": {"hex": "473044022051b58f11b75cacc35b2f9eb6378591c5443611851e2b2246891ac4e33768a16c02202714874a6458bfee0d3cf2bffcb2fae75a4c103bd7db449bf7c47fef425d68d8012103120e11a4dac459648800f2dce14548f513f3b2295f19b21ed7dcea7a0b590f8c", "asm": "3044022051b58f11b75cacc35b2f9eb6378591c5443611851e2b2246891ac4e33768a16c02202714874a6458bfee0d3cf2bffcb2fae75a4c103bd7db449bf7c47fef425d68d8[ALL] 03120e11a4dac459648800f2dce14548f513f3b2295f19b21ed7dcea7a0b590f8c"}, "vout": 105, "txid": "cfc7f67d24fb2ec160d3fb5faaea79fb882363ff79a0dc29be37f3bb81afc830"}, {"sequence": 4294967294, "scriptSig": {"hex": "473044022100969beb3e53367bd1b502f57d5fc97f8c340721c12a430b675396231a12e92461021f253dec37fda9bedd784ac3a6cb13684268df0ef90aef52d55654f5ba71bf69012103120e11a4dac459648800f2dce14548f513f3b2295f19b21ed7dcea7a0b590f8c", "asm": "3044022100969beb3e53367bd1b502f57d5fc97f8c340721c12a430b675396231a12e92461021f253dec37fda9bedd784ac3a6cb13684268df0ef90aef52d55654f5ba71bf69[ALL] 03120e11a4dac459648800f2dce14548f513f3b2295f19b21ed7dcea7a0b590f8c"}, "vout": 99, "txid": "de192e0fd980fb5076e6886d42b7db2d2284ffe41272710aec7b5cac3c996d91"}, {"sequence": 4294967294, "scriptSig": {"hex": "483045022100e479d7eb3d9ce007b62ad7899f0ef9f1bb3c8414d4991f578e8eb5c653fb5c8a02205e3a3ea27a70dbd37b4c0df2bfb5f1bf6c08a9dd595e0833e809114e15683ca4012103120e11a4dac459648800f2dce14548f513f3b2295f19b21ed7dcea7a0b590f8c", "asm": "3045022100e479d7eb3d9ce007b62ad7899f0ef9f1bb3c8414d4991f578e8eb5c653fb5c8a02205e3a3ea27a70dbd37b4c0df2bfb5f1bf6c08a9dd595e0833e809114e15683ca4[ALL] 03120e11a4dac459648800f2dce14548f513f3b2295f19b21ed7dcea7a0b590f8c"}, "vout": 92, "txid": "dfe0a3096548a0a94781774f0e9adf86a6f3c5b0a57a45e97d11e11a2d475603"}, {"sequence": 4294967294, "scriptSig": {"hex": "483045022100fd6ce463f2c3850655b18846b65183ee90ad75e5df9fd3e5a6cd83935a06300302200fc22b0f29264911fafab85ff0be7568c903a0b9a10b5b809571fe02717adaea012103120e11a4dac459648800f2dce14548f513f3b2295f19b21ed7dcea7a0b590f8c", "asm": "3045022100fd6ce463f2c3850655b18846b65183ee90ad75e5df9fd3e5a6cd83935a06300302200fc22b0f29264911fafab85ff0be7568c903a0b9a10b5b809571fe02717adaea[ALL] 03120e11a4dac459648800f2dce14548f513f3b2295f19b21ed7dcea7a0b590f8c"}, "vout": 100, "txid": "e3fc0b0e712cba260dc07a78b786d39f797003c6f4ef4a777de6a966db59856e"}], "txid": "ba09fdd0dee026d3404a051a834356139409f34b92480afd7a7e7d016a55c643", "blocktime": 1537871175, "version": 1, "confirmations": 11511, "time": 1537871175, "locktime": 0, "vsize": 1550, "size": 1550}