{"hash": "5d44f8cab9d91d280ee9fd9d7df9dff4b883cb93fb1d628ded8bf41c05672552", "blockhash": "0000000000000000001e0dab787dd257d1dbfcb92a98c2207d5e1078be1f4165", "vout": [{"scriptPubKey": {"reqSigs": 1, "hex": "a914b44337f216fcdcf0a5895a72e8c4169a68ef293e87", "addresses": ["3J8A5VuG2KUQmCweiwHBDfv67VqWTciCM2"], "asm": "OP_HASH160 b44337f216fcdcf0a5895a72e8c4169a68ef293e OP_EQUAL", "type": "scripthash"}, "value": 0.07147766, "n": 0}], "hex": "010000000001016eb228e7a43b81030ef9ad2b4698db822e1ca93218d4703ca328f232ac6acccf01000000171600143f15528911399053963e886c0b2eeb8b0c71e0f1ffffffff01f6106d000000000017a914b44337f216fcdcf0a5895a72e8c4169a68ef293e8702483045022100b2971916e133ae617dd8d1812b14d087f9eb1411666dfe872c53f687a4c0107702200f2af84c89618f65b9e980086028beff9a6cfc125ce4bf59fee24382a11ecd1e012103cd404d3f070ae5ed3d525ecc40bae2f78d8ef0cffcbef51147bb69c124b3960300000000", "vin": [{"txinwitness": ["3045022100b2971916e133ae617dd8d1812b14d087f9eb1411666dfe872c53f687a4c0107702200f2af84c89618f65b9e980086028beff9a6cfc125ce4bf59fee24382a11ecd1e01", "03cd404d3f070ae5ed3d525ecc40bae2f78d8ef0cffcbef51147bb69c124b39603"], "sequence": 4294967295, "scriptSig": {"hex": "1600143f15528911399053963e886c0b2eeb8b0c71e0f1", "asm": "00143f15528911399053963e886c0b2eeb8b0c71e0f1"}, "vout": 1, "txid": "cfcc6aac32f228a33c70d41832a91c2e82db98462badf90e03813ba4e728b26e"}], "txid": "ba0abfe03502fd532ce5bebaf1cf10704b024d4d9535d41377757daa2fce2f80", "blocktime": 1537872475, "version": 1, "confirmations": 11487, "time": 1537872475, "locktime": 0, "vsize": 134, "size": 216}