{"hash": "ba10abac554bf72eb2ff27d8c93db0edceaa8655710cafaf72face36a6ec6ee3", "blockhash": "0000000000000000000dcc0f55137456b1a82d3642486a52398922ac4d620174", "vout": [{"scriptPubKey": {"reqSigs": 1, "hex": "76a914e349bc52d6b8100b58d3fce45135a91c5c128a1d88ac", "addresses": ["1MiningDkXkhKaXBTMKXfLemnk1YY5rbkT"], "asm": "OP_DUP OP_HASH160 e349bc52d6b8100b58d3fce45135a91c5c128a1d OP_EQUALVERIFY OP_CHECKSIG", "type": "pubkeyhash"}, "value": 0.11377033, "n": 0}], "hex": "010000000521a510fa38a4e4466db16aaa5d676c162b486ee6bd2d92bb06f4dd7397124b0c000000006b4830450221009be9902b2665d67c2d77d8d7db0108a5ec49b94b270f9691dab217e27017779a022057e73e6bc85edc2a935513dc6a27ec528d17722d70a95ba5d17a67196be8e08e0121027cb4a7dc7771d730ccf39c569ce12cb6798e81fb5852263995b4ad6ceb2c6730fdffffffd870c8b71bec73f403a5123ee5a854d60ec1c2595aa53b626bec4b196426e11b050000006b483045022100a666d8da1da32116897ab0d268c61f9cfcfff7b4f986e51a36fe861bcad5b692022008942dd5a2d5e9ba701fa08d02536932ec1c355172b20f45e87811406d8bc6a5012103e694c095547003c4bef4bf1c56a9964795aec2da7eeeb693047f5281b015d8bcfdffffff0b80770baaa5ea93b1394ab8654c340a9f0beb689e1d5317b40fb7cd6c0f4b8d010000006b483045022100afcb7ef68e4e7b202fe2af4fc472e08ba564af745f750930e6a87308b4d2b1d5022070fd0e5173ca8ffa6705e6a686f0798f6e023720804685cc7fbf4336a06b10420121027de0f969755f323fcec0d7d9f91c17c13737186640101a57f797dfd6e188d3a6fdffffffcba21f2e3c1dcbb9b36eafdf7aaee347b5eedad8413a2c0abbcc6fbab65d5e9d000000006b483045022100bd2ff8d206f528270f4bbb2ee6f201227b0821e3b1c4621d83de57604eca0687022048d9409259251dac7556015c7af3c83f9a86b6bc0ae5dd44a768b3aa5c555bf4012102b7bc9591804c13e4fb951b3c0b972635284476383cab61a386579cf2c27a1a4dfdffffff0e70ed9076b28d36f3363ef97351150eae0d156bbacb715f73a2fb3b12126cea000000006a47304402207dae33f96bbf52604b7eaacf1a234b164fb35e97560b9116781fa165b185d928022031053cedcc625714d22b0be3f79e98e3fb03ff26f419d4e16ea09897c1bad4ac0121033a227b6c103b3da820bc4de58a6bff62bba868d652900bf31c7740413888fc9dfdffffff018999ad00000000001976a914e349bc52d6b8100b58d3fce45135a91c5c128a1d88ac0c490800", "vin": [{"sequence": 4294967293, "scriptSig": {"hex": "4830450221009be9902b2665d67c2d77d8d7db0108a5ec49b94b270f9691dab217e27017779a022057e73e6bc85edc2a935513dc6a27ec528d17722d70a95ba5d17a67196be8e08e0121027cb4a7dc7771d730ccf39c569ce12cb6798e81fb5852263995b4ad6ceb2c6730", "asm": "30450221009be9902b2665d67c2d77d8d7db0108a5ec49b94b270f9691dab217e27017779a022057e73e6bc85edc2a935513dc6a27ec528d17722d70a95ba5d17a67196be8e08e[ALL] 027cb4a7dc7771d730ccf39c569ce12cb6798e81fb5852263995b4ad6ceb2c6730"}, "vout": 0, "txid": "0c4b129773ddf406bb922dbde66e482b166c675daa6ab16d46e4a438fa10a521"}, {"sequence": 4294967293, "scriptSig": {"hex": "483045022100a666d8da1da32116897ab0d268c61f9cfcfff7b4f986e51a36fe861bcad5b692022008942dd5a2d5e9ba701fa08d02536932ec1c355172b20f45e87811406d8bc6a5012103e694c095547003c4bef4bf1c56a9964795aec2da7eeeb693047f5281b015d8bc", "asm": "3045022100a666d8da1da32116897ab0d268c61f9cfcfff7b4f986e51a36fe861bcad5b692022008942dd5a2d5e9ba701fa08d02536932ec1c355172b20f45e87811406d8bc6a5[ALL] 03e694c095547003c4bef4bf1c56a9964795aec2da7eeeb693047f5281b015d8bc"}, "vout": 5, "txid": "1be12664194bec6b623ba55a59c2c10ed654a8e53e12a503f473ec1bb7c870d8"}, {"sequence": 4294967293, "scriptSig": {"hex": "483045022100afcb7ef68e4e7b202fe2af4fc472e08ba564af745f750930e6a87308b4d2b1d5022070fd0e5173ca8ffa6705e6a686f0798f6e023720804685cc7fbf4336a06b10420121027de0f969755f323fcec0d7d9f91c17c13737186640101a57f797dfd6e188d3a6", "asm": "3045022100afcb7ef68e4e7b202fe2af4fc472e08ba564af745f750930e6a87308b4d2b1d5022070fd0e5173ca8ffa6705e6a686f0798f6e023720804685cc7fbf4336a06b1042[ALL] 027de0f969755f323fcec0d7d9f91c17c13737186640101a57f797dfd6e188d3a6"}, "vout": 1, "txid": "8d4b0f6ccdb70fb417531d9e68eb0b9f0a344c65b84a39b193eaa5aa0b77800b"}, {"sequence": 4294967293, "scriptSig": {"hex": "483045022100bd2ff8d206f528270f4bbb2ee6f201227b0821e3b1c4621d83de57604eca0687022048d9409259251dac7556015c7af3c83f9a86b6bc0ae5dd44a768b3aa5c555bf4012102b7bc9591804c13e4fb951b3c0b972635284476383cab61a386579cf2c27a1a4d", "asm": "3045022100bd2ff8d206f528270f4bbb2ee6f201227b0821e3b1c4621d83de57604eca0687022048d9409259251dac7556015c7af3c83f9a86b6bc0ae5dd44a768b3aa5c555bf4[ALL] 02b7bc9591804c13e4fb951b3c0b972635284476383cab61a386579cf2c27a1a4d"}, "vout": 0, "txid": "9d5e5db6ba6fccbb0a2c3a41d8daeeb547e3ae7adfaf6eb3b9cb1d3c2e1fa2cb"}, {"sequence": 4294967293, "scriptSig": {"hex": "47304402207dae33f96bbf52604b7eaacf1a234b164fb35e97560b9116781fa165b185d928022031053cedcc625714d22b0be3f79e98e3fb03ff26f419d4e16ea09897c1bad4ac0121033a227b6c103b3da820bc4de58a6bff62bba868d652900bf31c7740413888fc9d", "asm": "304402207dae33f96bbf52604b7eaacf1a234b164fb35e97560b9116781fa165b185d928022031053cedcc625714d22b0be3f79e98e3fb03ff26f419d4e16ea09897c1bad4ac[ALL] 033a227b6c103b3da820bc4de58a6bff62bba868d652900bf31c7740413888fc9d"}, "vout": 0, "txid": "ea6c12123bfba2735f71cbba6b150dae0e155173f93e36f3368db27690ed700e"}], "txid": "ba10abac554bf72eb2ff27d8c93db0edceaa8655710cafaf72face36a6ec6ee3", "blocktime": 1537870268, "version": 1, "confirmations": 11517, "time": 1537870268, "locktime": 542988, "vsize": 783, "size": 783}