{"hash": "ba181c631b3e3e649a49f94304ed91282d7214d7ee319e098ece33127e557ba9", "blockhash": "00000000000000000017f5eb5941039fbcee6240d03bc1f2f8e35350df66a1d8", "vout": [{"scriptPubKey": {"reqSigs": 1, "hex": "76a914644a6830f1315547dccfc825bed28a57412e51c788ac", "addresses": ["1A9Hi5AaipT8i1LQtGTexF1yceCNovjRgu"], "asm": "OP_DUP OP_HASH160 644a6830f1315547dccfc825bed28a57412e51c7 OP_EQUALVERIFY OP_CHECKSIG", "type": "pubkeyhash"}, "value": 5.46e-06, "n": 0}, {"scriptPubKey": {"reqSigs": 1, "hex": "a9143f4eecba122ad73039d481c8d37f99cb4f887cd887", "addresses": ["37Tm3Qz8Zw2VJrheUUhArDAoq58S6YrS3g"], "asm": "OP_HASH160 3f4eecba122ad73039d481c8d37f99cb4f887cd8 OP_EQUAL", "type": "scripthash"}, "value": 0.99966902, "n": 1}, {"scriptPubKey": {"type": "nulldata", "hex": "6a146f6d6e69000000000000001f00000049b6d49e00", "asm": "OP_RETURN 6f6d6e69000000000000001f00000049b6d49e00"}, "value": 0.0, "n": 2}], "hex": "0100000001a849262fb88337f38f64059b430e8e836324e988f52f2288076a823e50f9320401000000fdfd000047304402201feabc934961336b8a2884e4987ed22a0ea18200787827141f458ca558fd1b1302203fdfe219aca3fb608cc49d09baddc04a843624cc709ec66b2e794918e62f26e101483045022100f0dcab0ec76c6a3e7a63fb3ed372f566161ae89d791c220afdaaad37dfb181880220034c78496d689fd2a2511ddc5d41c340a3d2dea8770734d049e724a81ce1df27014c6952210246ccf4de0c54cc7f3354cdd993c2c50cf965fd82238b89659fbd73a1b4bf05a121024fc59f72272a897fe43803374969f396058152fe4765a8d15216f94624257b1b21022593bc69ecbf3bbcc3c58082267cb49dadaf4ca8dbf1b2297338a9d628c4297653aeffffffff0322020000000000001976a914644a6830f1315547dccfc825bed28a57412e51c788acb65ff5050000000017a9143f4eecba122ad73039d481c8d37f99cb4f887cd8870000000000000000166a146f6d6e69000000000000001f00000049b6d49e0000000000", "vin": [{"sequence": 4294967295, "scriptSig": {"hex": "0047304402201feabc934961336b8a2884e4987ed22a0ea18200787827141f458ca558fd1b1302203fdfe219aca3fb608cc49d09baddc04a843624cc709ec66b2e794918e62f26e101483045022100f0dcab0ec76c6a3e7a63fb3ed372f566161ae89d791c220afdaaad37dfb181880220034c78496d689fd2a2511ddc5d41c340a3d2dea8770734d049e724a81ce1df27014c6952210246ccf4de0c54cc7f3354cdd993c2c50cf965fd82238b89659fbd73a1b4bf05a121024fc59f72272a897fe43803374969f396058152fe4765a8d15216f94624257b1b21022593bc69ecbf3bbcc3c58082267cb49dadaf4ca8dbf1b2297338a9d628c4297653ae", "asm": "0 304402201feabc934961336b8a2884e4987ed22a0ea18200787827141f458ca558fd1b1302203fdfe219aca3fb608cc49d09baddc04a843624cc709ec66b2e794918e62f26e1[ALL] 3045022100f0dcab0ec76c6a3e7a63fb3ed372f566161ae89d791c220afdaaad37dfb181880220034c78496d689fd2a2511ddc5d41c340a3d2dea8770734d049e724a81ce1df27[ALL] 52210246ccf4de0c54cc7f3354cdd993c2c50cf965fd82238b89659fbd73a1b4bf05a121024fc59f72272a897fe43803374969f396058152fe4765a8d15216f94624257b1b21022593bc69ecbf3bbcc3c58082267cb49dadaf4ca8dbf1b2297338a9d628c4297653ae"}, "vout": 1, "txid": "0432f9503e826a0788222ff588e92463838e0e439b05648ff33783b82f2649a8"}], "txid": "ba181c631b3e3e649a49f94304ed91282d7214d7ee319e098ece33127e557ba9", "blocktime": 1537874412, "version": 1, "confirmations": 11467, "time": 1537874412, "locktime": 0, "vsize": 403, "size": 403}