{"hash": "ba1a8f29d284b948bea81b29d9eaa99ce677889f4cf51547bb02a50748d23b7c", "blockhash": "00000000000000000004ffacab907a6b429b9a5745fa0b75af4234bf69dd7176", "vout": [{"scriptPubKey": {"reqSigs": 1, "hex": "76a91472687895173f0174ea826ca1eed2e4f5d6f6ed1988ac", "addresses": ["1BRwBeHAV55bNPFEvyoQvRYWWaEKeR5XLx"], "asm": "OP_DUP OP_HASH160 72687895173f0174ea826ca1eed2e4f5d6f6ed19 OP_EQUALVERIFY OP_CHECKSIG", "type": "pubkeyhash"}, "value": 0.00028019, "n": 0}, {"scriptPubKey": {"reqSigs": 1, "hex": "a9142601ab8ccf8902eb88334bcb167c983e13ccbebb87", "addresses": ["359ybsi5hohBpXKBH7KNGvwQbV9Y8jtHcS"], "asm": "OP_HASH160 2601ab8ccf8902eb88334bcb167c983e13ccbebb OP_EQUAL", "type": "scripthash"}, "value": 0.01247481, "n": 1}], "hex": "01000000033e66a7223bdd6a79fc08743679442ef671f181681246125ff1d6bb585f0aeab5000000006a4730440220702d724ff51abecc817e12138b1b1fb977eb7c3591d721a64076d25cbc43153a02201f663e4a82e792ad4a54556903463226caa395c88ed4034a1a76dbc0ff707d840121037a6b818d3d8fd230dabc02cf170c2e894fed14c643a0962e69b9b3f231a68df7ffffffff1ca34950b4c3e5f26c46d0b3622eebd4dd8e87d5c01a6dd5f5716fb878591144000000006b483045022100fc0ba67f95ad27798ad46990dfd40ef0d5a7759f5308a644de08112d7cbafda602200136c6c5b6aaa883b721d6577c59ea3701f2760a1039054649c1378cae0dda3901210227fe29e0698e61f36574722dbb5861b854c3191af34beba5ee27f1415fb5822effffffff01ba1c6c3cfd2de37763f751e4a19c0f457b5417ac8281aca6da2377a599e193030000006b483045022100e29a5c335f933f29766ce1c08ba37baa16abe5849c9685ab772fc1600ec19966022073adc569f708ede33752a28c615cefbc8c2662de7d8a0bbcfd10800d237d2c7d012102a35b0dc3bb41c2fc26261e08ec73fcfe799bda2c500fb099938a40fc8f008719ffffffff02736d0000000000001976a91472687895173f0174ea826ca1eed2e4f5d6f6ed1988acf90813000000000017a9142601ab8ccf8902eb88334bcb167c983e13ccbebb8700000000", "vin": [{"sequence": 4294967295, "scriptSig": {"hex": "4730440220702d724ff51abecc817e12138b1b1fb977eb7c3591d721a64076d25cbc43153a02201f663e4a82e792ad4a54556903463226caa395c88ed4034a1a76dbc0ff707d840121037a6b818d3d8fd230dabc02cf170c2e894fed14c643a0962e69b9b3f231a68df7", "asm": "30440220702d724ff51abecc817e12138b1b1fb977eb7c3591d721a64076d25cbc43153a02201f663e4a82e792ad4a54556903463226caa395c88ed4034a1a76dbc0ff707d84[ALL] 037a6b818d3d8fd230dabc02cf170c2e894fed14c643a0962e69b9b3f231a68df7"}, "vout": 0, "txid": "b5ea0a5f58bbd6f15f1246126881f171f62e4479367408fc796add3b22a7663e"}, {"sequence": 4294967295, "scriptSig": {"hex": "483045022100fc0ba67f95ad27798ad46990dfd40ef0d5a7759f5308a644de08112d7cbafda602200136c6c5b6aaa883b721d6577c59ea3701f2760a1039054649c1378cae0dda3901210227fe29e0698e61f36574722dbb5861b854c3191af34beba5ee27f1415fb5822e", "asm": "3045022100fc0ba67f95ad27798ad46990dfd40ef0d5a7759f5308a644de08112d7cbafda602200136c6c5b6aaa883b721d6577c59ea3701f2760a1039054649c1378cae0dda39[ALL] 0227fe29e0698e61f36574722dbb5861b854c3191af34beba5ee27f1415fb5822e"}, "vout": 0, "txid": "44115978b86f71f5d56d1ac0d5878eddd4eb2e62b3d0466cf2e5c3b45049a31c"}, {"sequence": 4294967295, "scriptSig": {"hex": "483045022100e29a5c335f933f29766ce1c08ba37baa16abe5849c9685ab772fc1600ec19966022073adc569f708ede33752a28c615cefbc8c2662de7d8a0bbcfd10800d237d2c7d012102a35b0dc3bb41c2fc26261e08ec73fcfe799bda2c500fb099938a40fc8f008719", "asm": "3045022100e29a5c335f933f29766ce1c08ba37baa16abe5849c9685ab772fc1600ec19966022073adc569f708ede33752a28c615cefbc8c2662de7d8a0bbcfd10800d237d2c7d[ALL] 02a35b0dc3bb41c2fc26261e08ec73fcfe799bda2c500fb099938a40fc8f008719"}, "vout": 3, "txid": "93e199a57723daa6ac8182ac17547b450f9ca1e451f76377e32dfd3c6c1cba01"}], "txid": "ba1a8f29d284b948bea81b29d9eaa99ce677889f4cf51547bb02a50748d23b7c", "blocktime": 1537875543, "version": 1, "confirmations": 11464, "time": 1537875543, "locktime": 0, "vsize": 519, "size": 519}