{"hash": "1c7c8d6ee4e94e85cee83ae529af3c9cb6e6a468fba18855651f75b0787ae2c8", "blockhash": "0000000000000000000baef3f32e3676a92c3b2e5da21b426e4f302fc371ce76", "vout": [{"scriptPubKey": {"reqSigs": 1, "hex": "a91474ed9bbc227e05ff668a9c271ad9b071cdaa977c87", "addresses": ["3CMGx7WAnmAmBgE4j4SU2e4tdGT77acNjp"], "asm": "OP_HASH160 74ed9bbc227e05ff668a9c271ad9b071cdaa977c OP_EQUAL", "type": "scripthash"}, "value": 0.011409, "n": 0}, {"scriptPubKey": {"reqSigs": 1, "hex": "a914f6683f4410ea05949ba6687409aac6b5eec10f9087", "addresses": ["3Q9u2xA2S19vzpMM5aVeCcBY8Ur6xd1H7f"], "asm": "OP_HASH160 f6683f4410ea05949ba6687409aac6b5eec10f90 OP_EQUAL", "type": "scripthash"}, "value": 0.14309423, "n": 1}, {"scriptPubKey": {"reqSigs": 1, "hex": "76a9143feb44b751d372d14b1110a06195ef9200f9647f88ac", "addresses": ["16pyQpfmsrjpyjAm8k22Z8fsHrrecayV3K"], "asm": "OP_DUP OP_HASH160 3feb44b751d372d14b1110a06195ef9200f9647f OP_EQUALVERIFY OP_CHECKSIG", "type": "pubkeyhash"}, "value": 0.00697, "n": 2}, {"scriptPubKey": {"reqSigs": 1, "hex": "a914e7e3c1811e7c514d6d124da5dab8393b7459bcb287", "addresses": ["3Nq8rcU3MJcLh9W3WYBmM1uybKthLcRCKh"], "asm": "OP_HASH160 e7e3c1811e7c514d6d124da5dab8393b7459bcb2 OP_EQUAL", "type": "scripthash"}, "value": 0.05504445, "n": 3}, {"scriptPubKey": {"reqSigs": 1, "hex": "76a914fa66fe6eb3fab4a4389d1b1229557432780e1a0188ac", "addresses": ["1Pq1K6fNWMrGMwau1fGtiuqpMa9FzCJXpu"], "asm": "OP_DUP OP_HASH160 fa66fe6eb3fab4a4389d1b1229557432780e1a01 OP_EQUALVERIFY OP_CHECKSIG", "type": "pubkeyhash"}, "value": 0.044312, "n": 4}], "hex": "020000000001017275dcce4cb624fec9dfb89dd9925df5bc1e552024db8beeef78bb068cc7048f02000000171600145331fc16aef3aeaf0b932d98fc1291eaec6ae4b9feffffff05a46811000000000017a91474ed9bbc227e05ff668a9c271ad9b071cdaa977c872f58da000000000017a914f6683f4410ea05949ba6687409aac6b5eec10f9087a8a20a00000000001976a9143feb44b751d372d14b1110a06195ef9200f9647f88acbdfd53000000000017a914e7e3c1811e7c514d6d124da5dab8393b7459bcb287609d4300000000001976a914fa66fe6eb3fab4a4389d1b1229557432780e1a0188ac024830450221009af56e08fee8f9fa39d3749b5c89d6377f31bcabdbb06a215c29e7c129b54fb9022004eaab02685d6c7659f2738d1101e5b710abbd8d53cdc0c88ca976c03e14e855012102fbff1f53768dd2ded6742a3dbf238b8b1b8bdc1e4803e6404e56c2b19c3c8e8817490800", "vin": [{"txinwitness": ["30450221009af56e08fee8f9fa39d3749b5c89d6377f31bcabdbb06a215c29e7c129b54fb9022004eaab02685d6c7659f2738d1101e5b710abbd8d53cdc0c88ca976c03e14e85501", "02fbff1f53768dd2ded6742a3dbf238b8b1b8bdc1e4803e6404e56c2b19c3c8e88"], "sequence": 4294967294, "scriptSig": {"hex": "1600145331fc16aef3aeaf0b932d98fc1291eaec6ae4b9", "asm": "00145331fc16aef3aeaf0b932d98fc1291eaec6ae4b9"}, "vout": 2, "txid": "8f04c78c06bb78efee8bdb2420551ebcf55d92d99db8dfc9fe24b64ccedc7572"}], "txid": "ba20ad0a8f6a94a33150430a6f9889860f9225fe88e1673a7304a0b50bc068ad", "blocktime": 1537876114, "version": 2, "confirmations": 11460, "time": 1537876114, "locktime": 542999, "vsize": 266, "size": 348}