{"hash": "48f7cbddf13fc26936576bf4269e409ebe82ecfd2ace3ee049603eaf58c63c1c", "blockhash": "0000000000000000001cda96e906b7601b7a6fb1a3b62bca570a9e5d8f4b3de1", "vout": [{"scriptPubKey": {"reqSigs": 1, "hex": "a914ad9a75619ea79497d95d685178ac4c60cf4e8ca187", "addresses": ["3HWwrhMZzMBzoXE4Y3jnvZ9CGiYhtPPuoY"], "asm": "OP_HASH160 ad9a75619ea79497d95d685178ac4c60cf4e8ca1 OP_EQUAL", "type": "scripthash"}, "value": 0.00849165, "n": 0}, {"scriptPubKey": {"reqSigs": 1, "hex": "a91410a88f93379939a534b8d769209a3939b92372f487", "addresses": ["33D6fRdkF14LdjBmhipEgx4m3NeoKW1NGA"], "asm": "OP_HASH160 10a88f93379939a534b8d769209a3939b92372f4 OP_EQUAL", "type": "scripthash"}, "value": 0.49, "n": 1}], "hex": "01000000000101271d1161e6c64412be103c2e7e6fdf9fff68e7d9717dbc0e743d06d83a90490000000000171600147510e87e5a9be64ffa8f3b91957861205f6c3771ffffffff020df50c000000000017a914ad9a75619ea79497d95d685178ac4c60cf4e8ca18740aeeb020000000017a91410a88f93379939a534b8d769209a3939b92372f48702473044022022e13a371557f652d95955b58354ebeeeaac898587afc646c954dee1bab0886a022066f8f030989156f139cc287635f4260d8f4eab1abedd6bb966e7d05bfc9dde8f012103a2c5ce7496ab9fc25673f59bf5446b76d9231a885a91995f3da345a909d3409b00000000", "vin": [{"txinwitness": ["3044022022e13a371557f652d95955b58354ebeeeaac898587afc646c954dee1bab0886a022066f8f030989156f139cc287635f4260d8f4eab1abedd6bb966e7d05bfc9dde8f01", "03a2c5ce7496ab9fc25673f59bf5446b76d9231a885a91995f3da345a909d3409b"], "sequence": 4294967295, "scriptSig": {"hex": "1600147510e87e5a9be64ffa8f3b91957861205f6c3771", "asm": "00147510e87e5a9be64ffa8f3b91957861205f6c3771"}, "vout": 0, "txid": "0049903ad8063d740ebc7d71d9e768ff9fdf6f7e2e3c10be1244c6e661111d27"}], "txid": "ba25b69ecd4d0a8c4be4a3eec33d18a8c9998a4db2acb4e75ef4a72d0054d2f4", "blocktime": 1537873282, "version": 1, "confirmations": 11485, "time": 1537873282, "locktime": 0, "vsize": 166, "size": 247}