{"hash": "ba252b3a7f4f02681957002a5122d9cd1e4b30965f0a6dd6a1c082177cfa0878", "blockhash": "00000000000000000017f5eb5941039fbcee6240d03bc1f2f8e35350df66a1d8", "vout": [{"scriptPubKey": {"reqSigs": 1, "hex": "76a91441dda351687ff3d335af7b6127f549e94cb2942688ac", "addresses": ["171GS9P2NJBTTRKGr5LV9aGqjgSChs2x6J"], "asm": "OP_DUP OP_HASH160 41dda351687ff3d335af7b6127f549e94cb29426 OP_EQUALVERIFY OP_CHECKSIG", "type": "pubkeyhash"}, "value": 0.00633784, "n": 0}, {"scriptPubKey": {"type": "nulldata", "hex": "6a4c50000077fe0001a423e6d10f55c2ff27e7ee67d19ed074892d00f8e87af8e8e963c7cfd5b9471402dbd1898d20170305f05e061da35baa19a90613d4f52767aefd1d100759d4ba30d2c37bb011d97e02cf", "asm": "OP_RETURN 000077fe0001a423e6d10f55c2ff27e7ee67d19ed074892d00f8e87af8e8e963c7cfd5b9471402dbd1898d20170305f05e061da35baa19a90613d4f52767aefd1d100759d4ba30d2c37bb011d97e02cf"}, "value": 0.0, "n": 1}], "hex": "0100000001cb6704ca4c671fc1e11c356fbb19e935f6a970d1241a5e7f67fcef9120e1f387010000006b483045022100f9fbd29cf56f0d57ab746781b1be7f7ffdac86c9b35c6a6cbca3705e4e1d2cda0220396d8789bd6e339d2bfd24bb406668effeb6443f69b9b37afac4abcea417c9ae012102438d2b1da29253cd6cc853c68a06a9ed14a4d1775eae9f0bcefc27edeb9da58fffffffff02b8ab0900000000001976a91441dda351687ff3d335af7b6127f549e94cb2942688ac0000000000000000536a4c50000077fe0001a423e6d10f55c2ff27e7ee67d19ed074892d00f8e87af8e8e963c7cfd5b9471402dbd1898d20170305f05e061da35baa19a90613d4f52767aefd1d100759d4ba30d2c37bb011d97e02cf00000000", "vin": [{"sequence": 4294967295, "scriptSig": {"hex": "483045022100f9fbd29cf56f0d57ab746781b1be7f7ffdac86c9b35c6a6cbca3705e4e1d2cda0220396d8789bd6e339d2bfd24bb406668effeb6443f69b9b37afac4abcea417c9ae012102438d2b1da29253cd6cc853c68a06a9ed14a4d1775eae9f0bcefc27edeb9da58f", "asm": "3045022100f9fbd29cf56f0d57ab746781b1be7f7ffdac86c9b35c6a6cbca3705e4e1d2cda0220396d8789bd6e339d2bfd24bb406668effeb6443f69b9b37afac4abcea417c9ae[ALL] 02438d2b1da29253cd6cc853c68a06a9ed14a4d1775eae9f0bcefc27edeb9da58f"}, "vout": 1, "txid": "87f3e12091effc677f5e1a24d170a9f635e919bb6f351ce1c11f674cca0467cb"}], "txid": "ba252b3a7f4f02681957002a5122d9cd1e4b30965f0a6dd6a1c082177cfa0878", "blocktime": 1537874412, "version": 1, "confirmations": 11467, "time": 1537874412, "locktime": 0, "vsize": 284, "size": 284}