{"hash": "ba26e3dc1f1748a206e4360066492526bea1e221ca2b4c180ee9848b374fa59b", "blockhash": "0000000000000000000baef3f32e3676a92c3b2e5da21b426e4f302fc371ce76", "vout": [{"scriptPubKey": {"reqSigs": 1, "hex": "76a9142e59563b9e0b34653791fd7d2e70ffd4d96565bb88ac", "addresses": ["15E574KJ1RXktJyrE9Gs9rcXHQzsfoiMDF"], "asm": "OP_DUP OP_HASH160 2e59563b9e0b34653791fd7d2e70ffd4d96565bb OP_EQUALVERIFY OP_CHECKSIG", "type": "pubkeyhash"}, "value": 0.00631201, "n": 0}, {"scriptPubKey": {"type": "nulldata", "hex": "6a4c50000078090001756e9055158710ed1e56872f702940d64fa54d8eb2d19ed074892d00f8e82891cbcec963af73f0968bf457b2138e5baa1b000613a7cfec05b0381d100759d4ba30d2c37bb011d97e02cf", "asm": "OP_RETURN 000078090001756e9055158710ed1e56872f702940d64fa54d8eb2d19ed074892d00f8e82891cbcec963af73f0968bf457b2138e5baa1b000613a7cfec05b0381d100759d4ba30d2c37bb011d97e02cf"}, "value": 0.0, "n": 1}], "hex": "01000000019767e866be4b80504c243e33962904f87892995bf95206cd530ee5539bc23b69010000006b483045022100cb7b08479c1037c16b3aeb72fa9e5bc530d9c16defa5f48f71eb7a80a19f525e0220407c227f0d50085cece969f7325594fd470a443adc0188e513cbe53b4c8397c901210303e7714634336f55a04565961b9575ce3720200e66eb563e76c438cb3f6e832effffffff02a1a10900000000001976a9142e59563b9e0b34653791fd7d2e70ffd4d96565bb88ac0000000000000000536a4c50000078090001756e9055158710ed1e56872f702940d64fa54d8eb2d19ed074892d00f8e82891cbcec963af73f0968bf457b2138e5baa1b000613a7cfec05b0381d100759d4ba30d2c37bb011d97e02cf00000000", "vin": [{"sequence": 4294967295, "scriptSig": {"hex": "483045022100cb7b08479c1037c16b3aeb72fa9e5bc530d9c16defa5f48f71eb7a80a19f525e0220407c227f0d50085cece969f7325594fd470a443adc0188e513cbe53b4c8397c901210303e7714634336f55a04565961b9575ce3720200e66eb563e76c438cb3f6e832e", "asm": "3045022100cb7b08479c1037c16b3aeb72fa9e5bc530d9c16defa5f48f71eb7a80a19f525e0220407c227f0d50085cece969f7325594fd470a443adc0188e513cbe53b4c8397c9[ALL] 0303e7714634336f55a04565961b9575ce3720200e66eb563e76c438cb3f6e832e"}, "vout": 1, "txid": "693bc29b53e50e53cd0652f95b999278f8042996333e244c50804bbe66e86797"}], "txid": "ba26e3dc1f1748a206e4360066492526bea1e221ca2b4c180ee9848b374fa59b", "blocktime": 1537876114, "version": 1, "confirmations": 11460, "time": 1537876114, "locktime": 0, "vsize": 284, "size": 284}