{"hash": "ba2886c9e9802a975f56a78fd9df7d7c16d6cb92db1476c9d459aaaa7add7295", "blockhash": "00000000000000000018f53835495a110e01622372bf6ae95dc86f2b0ab887b0", "vout": [{"scriptPubKey": {"reqSigs": 1, "hex": "76a91441519629bee0c5d00d2c5269041b6273d8b5ccc188ac", "addresses": ["16xNfCokVQ1Zqo4pLatjHtiYncihDtGFVo"], "asm": "OP_DUP OP_HASH160 41519629bee0c5d00d2c5269041b6273d8b5ccc1 OP_EQUALVERIFY OP_CHECKSIG", "type": "pubkeyhash"}, "value": 0.00012747, "n": 0}], "hex": "010000000188501536e1edcd7bb9ca61f994e80fa8bcdbf43cad4459d4e5d45b0b310694c1830100006b4830450221008dbcbe8ea41bffe3a1578018e75c278dbe390f6732c3defcfe1a8b6ac9937e410220202a98b12237c3a5d7efbba04a1b6237747ecb2c3b07eb12cf6519c73bf7fb400121021921bbf5ed8d0894e6b65ef5560d97e593b562498ff69de6bb634b8bf5f335b4ffffffff01cb310000000000001976a91441519629bee0c5d00d2c5269041b6273d8b5ccc188ac00000000", "vin": [{"sequence": 4294967295, "scriptSig": {"hex": "4830450221008dbcbe8ea41bffe3a1578018e75c278dbe390f6732c3defcfe1a8b6ac9937e410220202a98b12237c3a5d7efbba04a1b6237747ecb2c3b07eb12cf6519c73bf7fb400121021921bbf5ed8d0894e6b65ef5560d97e593b562498ff69de6bb634b8bf5f335b4", "asm": "30450221008dbcbe8ea41bffe3a1578018e75c278dbe390f6732c3defcfe1a8b6ac9937e410220202a98b12237c3a5d7efbba04a1b6237747ecb2c3b07eb12cf6519c73bf7fb40[ALL] 021921bbf5ed8d0894e6b65ef5560d97e593b562498ff69de6bb634b8bf5f335b4"}, "vout": 387, "txid": "c19406310b5bd4e5d45944ad3cf4dbbca80fe894f961cab97bcdede136155088"}], "txid": "ba2886c9e9802a975f56a78fd9df7d7c16d6cb92db1476c9d459aaaa7add7295", "blocktime": 1537870928, "version": 1, "confirmations": 11514, "time": 1537870928, "locktime": 0, "vsize": 192, "size": 192}