{"hash": "9b9126917ec1e9734fd5170726fff14bed8a2f6a46ce2d80a45aad251f63f47e", "blockhash": "00000000000000000018f53835495a110e01622372bf6ae95dc86f2b0ab887b0", "vout": [{"scriptPubKey": {"reqSigs": 1, "hex": "76a914d285d96eaf65737f1f4d43f3125882ff9ed5e54688ac", "addresses": ["1LC9FJPy7D7wMhkG5VVQVQJMsQfEo72DQW"], "asm": "OP_DUP OP_HASH160 d285d96eaf65737f1f4d43f3125882ff9ed5e546 OP_EQUALVERIFY OP_CHECKSIG", "type": "pubkeyhash"}, "value": 0.22980106, "n": 0}, {"scriptPubKey": {"reqSigs": 1, "hex": "a9142c378e6cff3fb4878d87bb158a8ec7433d41ae1c87", "addresses": ["35ipD7AuPgK9Bts43dwc8UfSsQEJZdH51q"], "asm": "OP_HASH160 2c378e6cff3fb4878d87bb158a8ec7433d41ae1c OP_EQUAL", "type": "scripthash"}, "value": 0.08626177, "n": 1}], "hex": "0100000000010560ddd7e8436b17373154c5fb2d2eae164787a8353011f23bef8546a9df71d7b50100000023220020b6529cd172d21d0ac05d86b387cac060f7752c249f0cb466633ecb014985c4fcffffffff1288c6de67e21db3150ad8886485ac55cf31397706f28107da7c8b2ebff730f40100000023220020306bb0254fc142f5850f8d96899525359993f718197ea83bb3c6172924ba7478ffffffff1710908790868231e9b492e0b3304575d984a115681c60217504893080e45da40100000023220020a78ecea1fdcb0c3b272078994111a5e8d5895f616202989345f5a504ff215914ffffffff948ad6af6e287911cb9f8298cb00fd6cc89e56531df65dab2b7e6c59b28f1b180100000023220020a757df97a418ff8c82694b142caf7f3b41ffb65cc47d39532478a77f7b6960b1ffffffffb77b21439e654b7f3d3942287846eeead5737fcac974eb711a6a89f16ddddeb801000000232200203b7de449c261a2882652ed46a1c2cfcb44a7a0fee2ca3b560f8e6337108a8320ffffffff020aa65e01000000001976a914d285d96eaf65737f1f4d43f3125882ff9ed5e54688ac01a083000000000017a9142c378e6cff3fb4878d87bb158a8ec7433d41ae1c870400483045022100cbe26e58a371eac74ebda0f5c5847d2b5b70d006f7f4cbc2788c1636cf3d520702204442c2c5ff70d640335b13f89d9fa912688755b47e56e40ad701fe3d1485142101483045022100fe100d384976f634478132543807901d6e5945bb10815cbca378240bbd834f4102207a355969cd0437b0b4a26e224140a369587276896673f6ac6cd350d661ec72190147522102288ba158ce7e1cb8d4e81e81aea5674276c3491ab4110509516121be095b747821038407424ead2b88063db2d589e50c34e1572f6b82eb9e266dec536939ee0db9eb52ae0400483045022100bc442c00a1a55e2b460c3227b98dd7b444b8ada1ff3feef07a7df6a8b424543c022037cbfc89b6b1024cf9e4c53435e8e65395c799907b6a775d183366ede2761c6201483045022100c039b12a6cc420313859aaa7885b81496f14fec86a52db69bba9cfe290375788022070b7b45b4cb2996b67cabd342c40a352bc04ae11c54f8963333bce9017b77f1b0147522102500a8863dceaab57d1a83480690afad164208330d33b7df96de604e44ed761c521038407424ead2b88063db2d589e50c34e1572f6b82eb9e266dec536939ee0db9eb52ae040048304502210086a5cabd40a8dc73b670f500ed90cf431a44d88d96933350e8b5d0bcb685913002201b2a5cfd97ad27c1b7d6f1f6492b836c942c5e7f4b3cc258e8dd3437f5b525250147304402202edb413f7a2891f6d2034a0ec12506dde0bcfec36a5f0bab252dcad43456cd790220263c605a494cccebba55711ebbd6b123560003322da34ffa218690c6f1c1840201475221039e9b557600a1da1af380ae8111c88a624ee3b4d896fa440665574e0ccd88611921038407424ead2b88063db2d589e50c34e1572f6b82eb9e266dec536939ee0db9eb52ae0400483045022100c7b3c58a9bd56a24a0d0e966580359d096691456e0cd9c40b74f6f9301f1688902205415d74e5b95c91b30e0cb6ec8e09063f05913a447bbb9f85cbb52c9cc16c04701483045022100a79d3ab3c0c67c9a7b7656e13da16136dc0cadf509813aaf6ba5601b97ae64c40220322a43c862721762b16a19bd4059c8e5541aa08ac59d4c82511371752db1aaa701475221027ee7036f7b24abe0105cbfcf22f3b9e54072f3052e25fb7373b21e04188b36c721038407424ead2b88063db2d589e50c34e1572f6b82eb9e266dec536939ee0db9eb52ae0400483045022100e05d9e24782ff57a9d310d340b5deff4ae2a56f813976813891f7460417ef62f022011042dfb68c5f3beae0646015a043847e26b43b4a1d2187d5fab9ae740091b1f01483045022100dc5e3eaa8af2e43ecc275a79629eed6dc76f340b9fc8b509df0312d19bcb977f02200f02df65598b67c6e31f60ce2be18cb3d0573a3112eac38a42046e3a20242f1c0147522102f48d42e6e99dfaacbc1a5b227615f3bb6f6a7cf51ccc576d3bf51320ec46019921038407424ead2b88063db2d589e50c34e1572f6b82eb9e266dec536939ee0db9eb52ae00000000", "vin": [{"txinwitness": ["", "3045022100cbe26e58a371eac74ebda0f5c5847d2b5b70d006f7f4cbc2788c1636cf3d520702204442c2c5ff70d640335b13f89d9fa912688755b47e56e40ad701fe3d1485142101", "3045022100fe100d384976f634478132543807901d6e5945bb10815cbca378240bbd834f4102207a355969cd0437b0b4a26e224140a369587276896673f6ac6cd350d661ec721901", "522102288ba158ce7e1cb8d4e81e81aea5674276c3491ab4110509516121be095b747821038407424ead2b88063db2d589e50c34e1572f6b82eb9e266dec536939ee0db9eb52ae"], "sequence": 4294967295, "scriptSig": {"hex": "220020b6529cd172d21d0ac05d86b387cac060f7752c249f0cb466633ecb014985c4fc", "asm": "0020b6529cd172d21d0ac05d86b387cac060f7752c249f0cb466633ecb014985c4fc"}, "vout": 1, "txid": "b5d771dfa94685ef3bf2113035a8874716ae2e2dfbc5543137176b43e8d7dd60"}, {"txinwitness": ["", "3045022100bc442c00a1a55e2b460c3227b98dd7b444b8ada1ff3feef07a7df6a8b424543c022037cbfc89b6b1024cf9e4c53435e8e65395c799907b6a775d183366ede2761c6201", "3045022100c039b12a6cc420313859aaa7885b81496f14fec86a52db69bba9cfe290375788022070b7b45b4cb2996b67cabd342c40a352bc04ae11c54f8963333bce9017b77f1b01", "522102500a8863dceaab57d1a83480690afad164208330d33b7df96de604e44ed761c521038407424ead2b88063db2d589e50c34e1572f6b82eb9e266dec536939ee0db9eb52ae"], "sequence": 4294967295, "scriptSig": {"hex": "220020306bb0254fc142f5850f8d96899525359993f718197ea83bb3c6172924ba7478", "asm": "0020306bb0254fc142f5850f8d96899525359993f718197ea83bb3c6172924ba7478"}, "vout": 1, "txid": "f430f7bf2e8b7cda0781f206773931cf55ac856488d80a15b31de267dec68812"}, {"txinwitness": ["", "304502210086a5cabd40a8dc73b670f500ed90cf431a44d88d96933350e8b5d0bcb685913002201b2a5cfd97ad27c1b7d6f1f6492b836c942c5e7f4b3cc258e8dd3437f5b5252501", "304402202edb413f7a2891f6d2034a0ec12506dde0bcfec36a5f0bab252dcad43456cd790220263c605a494cccebba55711ebbd6b123560003322da34ffa218690c6f1c1840201", "5221039e9b557600a1da1af380ae8111c88a624ee3b4d896fa440665574e0ccd88611921038407424ead2b88063db2d589e50c34e1572f6b82eb9e266dec536939ee0db9eb52ae"], "sequence": 4294967295, "scriptSig": {"hex": "220020a78ecea1fdcb0c3b272078994111a5e8d5895f616202989345f5a504ff215914", "asm": "0020a78ecea1fdcb0c3b272078994111a5e8d5895f616202989345f5a504ff215914"}, "vout": 1, "txid": "a45de4803089047521601c6815a184d9754530b3e092b4e93182869087901017"}, {"txinwitness": ["", "3045022100c7b3c58a9bd56a24a0d0e966580359d096691456e0cd9c40b74f6f9301f1688902205415d74e5b95c91b30e0cb6ec8e09063f05913a447bbb9f85cbb52c9cc16c04701", "3045022100a79d3ab3c0c67c9a7b7656e13da16136dc0cadf509813aaf6ba5601b97ae64c40220322a43c862721762b16a19bd4059c8e5541aa08ac59d4c82511371752db1aaa701", "5221027ee7036f7b24abe0105cbfcf22f3b9e54072f3052e25fb7373b21e04188b36c721038407424ead2b88063db2d589e50c34e1572f6b82eb9e266dec536939ee0db9eb52ae"], "sequence": 4294967295, "scriptSig": {"hex": "220020a757df97a418ff8c82694b142caf7f3b41ffb65cc47d39532478a77f7b6960b1", "asm": "0020a757df97a418ff8c82694b142caf7f3b41ffb65cc47d39532478a77f7b6960b1"}, "vout": 1, "txid": "181b8fb2596c7e2bab5df61d53569ec86cfd00cb98829fcb1179286eafd68a94"}, {"txinwitness": ["", "3045022100e05d9e24782ff57a9d310d340b5deff4ae2a56f813976813891f7460417ef62f022011042dfb68c5f3beae0646015a043847e26b43b4a1d2187d5fab9ae740091b1f01", "3045022100dc5e3eaa8af2e43ecc275a79629eed6dc76f340b9fc8b509df0312d19bcb977f02200f02df65598b67c6e31f60ce2be18cb3d0573a3112eac38a42046e3a20242f1c01", "522102f48d42e6e99dfaacbc1a5b227615f3bb6f6a7cf51ccc576d3bf51320ec46019921038407424ead2b88063db2d589e50c34e1572f6b82eb9e266dec536939ee0db9eb52ae"], "sequence": 4294967295, "scriptSig": {"hex": "2200203b7de449c261a2882652ed46a1c2cfcb44a7a0fee2ca3b560f8e6337108a8320", "asm": "00203b7de449c261a2882652ed46a1c2cfcb44a7a0fee2ca3b560f8e6337108a8320"}, "vout": 1, "txid": "b8dedd6df1896a1a71eb74c9ca7f73d5eaee46782842393d7f4b659e43217bb7"}], "txid": "ba318adc26afe4400a0b8e8a31c9f3f62bce13f63117f2945bc4284c0a40ca76", "blocktime": 1537870928, "version": 1, "confirmations": 11512, "time": 1537870928, "locktime": 0, "vsize": 732, "size": 1557}