{"hash": "a4ad8585506db961294dc143256e87a271c41ef29841fb5e2adc20ee1125fbea", "blockhash": "0000000000000000001f0ddff1eddb255c1121bcd4da4f1bc9a0da00cae72433", "vout": [{"scriptPubKey": {"reqSigs": 1, "hex": "0014452466b1f41ae9ebfe7843e125529986ee0bb952", "addresses": ["bc1qg5jxdv05rt57hlncg0sj255esmhqhw2jj3d3f4"], "asm": "0 452466b1f41ae9ebfe7843e125529986ee0bb952", "type": "witness_v0_keyhash"}, "value": 1.531e-05, "n": 0}, {"scriptPubKey": {"reqSigs": 1, "hex": "76a9147cb852ba7da4501906784e3f4c916edb959711eb88ac", "addresses": ["1CNTbnW8JqePFyUQhUbWyFNjXDhL3ob9Gt"], "asm": "OP_DUP OP_HASH160 7cb852ba7da4501906784e3f4c916edb959711eb OP_EQUALVERIFY OP_CHECKSIG", "type": "pubkeyhash"}, "value": 0.001092, "n": 1}], "hex": "010000000001014637c2430a5bba7590342ed474125ceb9b7af91c8d766aafc51ee6c6a70bd1b70000000000ffffffff02fb05000000000000160014452466b1f41ae9ebfe7843e125529986ee0bb95290aa0100000000001976a9147cb852ba7da4501906784e3f4c916edb959711eb88ac02483045022100e9f0a03d8b986da755eafeb03e6cd17fa759fa5d563540149455da2469da0af602207f8b5802843c36bd456882d7185b3c63866c6187c089e5ac4ae8a39b093b0e3d0121024f8f7e2c8c30d51b5eee2485d185cadd0db11b177285a4deb25d9b510e5bdc8400000000", "vin": [{"txinwitness": ["3045022100e9f0a03d8b986da755eafeb03e6cd17fa759fa5d563540149455da2469da0af602207f8b5802843c36bd456882d7185b3c63866c6187c089e5ac4ae8a39b093b0e3d01", "024f8f7e2c8c30d51b5eee2485d185cadd0db11b177285a4deb25d9b510e5bdc84"], "sequence": 4294967295, "scriptSig": {"hex": "", "asm": ""}, "vout": 0, "txid": "b7d10ba7c6e61ec5af6a768d1cf97a9beb5c1274d42e349075ba5b0a43c23746"}], "txid": "ba3bbec3053ff2665820c322f262d5f2e102568c0be05af0f65a1711ec591885", "blocktime": 1537872018, "version": 1, "confirmations": 11489, "time": 1537872018, "locktime": 0, "vsize": 144, "size": 226}