{"hash": "ba3ffb3f6b62a3642b4cb73b171a0d6b186912b7bfc09bb37fcf8d1d10c63095", "blockhash": "0000000000000000001cda96e906b7601b7a6fb1a3b62bca570a9e5d8f4b3de1", "vout": [{"scriptPubKey": {"reqSigs": 1, "hex": "76a914606b88a6a626586fe9038b1fab8dff9d9f06787088ac", "addresses": ["19npgzgx1w2d3r6VZy63yQsvWS624Tx1Kq"], "asm": "OP_DUP OP_HASH160 606b88a6a626586fe9038b1fab8dff9d9f067870 OP_EQUALVERIFY OP_CHECKSIG", "type": "pubkeyhash"}, "value": 0.01656, "n": 0}, {"scriptPubKey": {"reqSigs": 1, "hex": "a914e370231feecbfc25e2e2423a5a79bf79bfdca59887", "addresses": ["3NRbeX3vD5VaVE4TDU9ivCDsEf7NPPte6J"], "asm": "OP_HASH160 e370231feecbfc25e2e2423a5a79bf79bfdca598 OP_EQUAL", "type": "scripthash"}, "value": 11.52953668, "n": 1}], "hex": "010000000175d72a3d1c6931067b0886b64c916e98d3c3841eefd5de9b8e350ba744ba57b401000000da00483045022100d9904544aca11dc80cbc8da0511b60866fe61261bc52ece47f9e47f98bc3216502206489e2b46d5adce92a2b5849a1517e4b9fc8c4a5087b023c70f2259f642fe5b6014730440220138200c27df35816d6bff6e0d469649c67f49a69246573dcaa979feb55f1bd8702202ed4e572b3dd6396c2b34dd1047017f582c6b00ce148f88fc84feb421fe8c651014752210327881b6abce6535553a3ce21fad12a7d74fd237ce7c4cd270a267162344e3082210256141f8eb687f5a68c5cc65054652dc25116fa285e44d72b44368827ffe77d9a52aeffffffff02c0441900000000001976a914606b88a6a626586fe9038b1fab8dff9d9f06787088ac44adb8440000000017a914e370231feecbfc25e2e2423a5a79bf79bfdca5988700000000", "vin": [{"sequence": 4294967295, "scriptSig": {"hex": "00483045022100d9904544aca11dc80cbc8da0511b60866fe61261bc52ece47f9e47f98bc3216502206489e2b46d5adce92a2b5849a1517e4b9fc8c4a5087b023c70f2259f642fe5b6014730440220138200c27df35816d6bff6e0d469649c67f49a69246573dcaa979feb55f1bd8702202ed4e572b3dd6396c2b34dd1047017f582c6b00ce148f88fc84feb421fe8c651014752210327881b6abce6535553a3ce21fad12a7d74fd237ce7c4cd270a267162344e3082210256141f8eb687f5a68c5cc65054652dc25116fa285e44d72b44368827ffe77d9a52ae", "asm": "0 3045022100d9904544aca11dc80cbc8da0511b60866fe61261bc52ece47f9e47f98bc3216502206489e2b46d5adce92a2b5849a1517e4b9fc8c4a5087b023c70f2259f642fe5b6[ALL] 30440220138200c27df35816d6bff6e0d469649c67f49a69246573dcaa979feb55f1bd8702202ed4e572b3dd6396c2b34dd1047017f582c6b00ce148f88fc84feb421fe8c651[ALL] 52210327881b6abce6535553a3ce21fad12a7d74fd237ce7c4cd270a267162344e3082210256141f8eb687f5a68c5cc65054652dc25116fa285e44d72b44368827ffe77d9a52ae"}, "vout": 1, "txid": "b457ba44a70b358e9bded5ef1e84c3d3986e914cb686087b0631691c3d2ad775"}], "txid": "ba3ffb3f6b62a3642b4cb73b171a0d6b186912b7bfc09bb37fcf8d1d10c63095", "blocktime": 1537873282, "version": 1, "confirmations": 11484, "time": 1537873282, "locktime": 0, "vsize": 335, "size": 335}