{"hash": "ba411dc41e6b605671b4a98e76ffe773f9cdcad67525f49918d0172082ce185e", "blockhash": "0000000000000000000e13cef7c366c0283d82e591d1acd082e914b08063cdf1", "vout": [{"scriptPubKey": {"reqSigs": 1, "hex": "76a914d243e6abb9a60fbff430b421d2df4b7d59ec186088ac", "addresses": ["1LAnF8h3qMGx3TSwNUHVneBZUEpwE4gu3D"], "asm": "OP_DUP OP_HASH160 d243e6abb9a60fbff430b421d2df4b7d59ec1860 OP_EQUALVERIFY OP_CHECKSIG", "type": "pubkeyhash"}, "value": 0.00076972, "n": 0}, {"scriptPubKey": {"reqSigs": 1, "hex": "76a9143851f34d13937b673a7d24a1950bb5b21ce94af388ac", "addresses": ["168o1kqNquEJeR9vosUB5fw4eAwcVAgh8P"], "asm": "OP_DUP OP_HASH160 3851f34d13937b673a7d24a1950bb5b21ce94af3 OP_EQUALVERIFY OP_CHECKSIG", "type": "pubkeyhash"}, "value": 5.46e-06, "n": 1}, {"scriptPubKey": {"type": "nulldata", "hex": "6a146f6d6e69000000000000001f0000002788de6200", "asm": "OP_RETURN 6f6d6e69000000000000001f0000002788de6200"}, "value": 0.0, "n": 2}], "hex": "0100000002b8c75c05b8dbc785172c2b6d372059a5278bf8091197e8d5b8edd58bbd8d1d44000000006a47304402203fd8586a26eb1117bad91570449e9e99523f6b22f473c558d4dc0983937ee2840220407f0f60165f4913bd30415d0748e3b35f0f0341f4e0385cc3feaf87185c9cc701210382022680773f31f2f4ef4be2e32892c24558e32077039e950b87c6cb91327402ffffffffaf129f070fa385871ef3af64439e4a52ad28b49ff881e8a90df46554c0b894db000000006b48304502210086bbe37519f76074835f4d69c090d513aff24196e1a443ec24e07543b33b61ee022036ecd83aaaf526ffff018672e356a7609c370afa813d106117b85b112e94745001210271977291b74f1f5f5c42157e8aae804664eaaeccfd097918450d37f28fb94d77ffffffff03ac2c0100000000001976a914d243e6abb9a60fbff430b421d2df4b7d59ec186088ac22020000000000001976a9143851f34d13937b673a7d24a1950bb5b21ce94af388ac0000000000000000166a146f6d6e69000000000000001f0000002788de620000000000", "vin": [{"sequence": 4294967295, "scriptSig": {"hex": "47304402203fd8586a26eb1117bad91570449e9e99523f6b22f473c558d4dc0983937ee2840220407f0f60165f4913bd30415d0748e3b35f0f0341f4e0385cc3feaf87185c9cc701210382022680773f31f2f4ef4be2e32892c24558e32077039e950b87c6cb91327402", "asm": "304402203fd8586a26eb1117bad91570449e9e99523f6b22f473c558d4dc0983937ee2840220407f0f60165f4913bd30415d0748e3b35f0f0341f4e0385cc3feaf87185c9cc7[ALL] 0382022680773f31f2f4ef4be2e32892c24558e32077039e950b87c6cb91327402"}, "vout": 0, "txid": "441d8dbd8bd5edb8d5e8971109f88b27a55920376d2b2c1785c7dbb8055cc7b8"}, {"sequence": 4294967295, "scriptSig": {"hex": "48304502210086bbe37519f76074835f4d69c090d513aff24196e1a443ec24e07543b33b61ee022036ecd83aaaf526ffff018672e356a7609c370afa813d106117b85b112e94745001210271977291b74f1f5f5c42157e8aae804664eaaeccfd097918450d37f28fb94d77", "asm": "304502210086bbe37519f76074835f4d69c090d513aff24196e1a443ec24e07543b33b61ee022036ecd83aaaf526ffff018672e356a7609c370afa813d106117b85b112e947450[ALL] 0271977291b74f1f5f5c42157e8aae804664eaaeccfd097918450d37f28fb94d77"}, "vout": 0, "txid": "db94b8c05465f40da9e881f89fb428ad524a9e4364aff31e8785a30f079f12af"}], "txid": "ba411dc41e6b605671b4a98e76ffe773f9cdcad67525f49918d0172082ce185e", "blocktime": 1537871767, "version": 1, "confirmations": 11491, "time": 1537871767, "locktime": 0, "vsize": 404, "size": 404}