{"hash": "5bd600e9fdc6386b62b3fda60b68892a6e37501b618534463efa7e0d5ae104e8", "blockhash": "0000000000000000000e13cef7c366c0283d82e591d1acd082e914b08063cdf1", "vout": [{"scriptPubKey": {"reqSigs": 1, "hex": "a914df25aa9075aa5ddbe8638225b8da2117c6e188ee87", "addresses": ["3N2ujRKFLFme1qScQNZTuXhy4NX8fRVxjD"], "asm": "OP_HASH160 df25aa9075aa5ddbe8638225b8da2117c6e188ee OP_EQUAL", "type": "scripthash"}, "value": 0.0002808, "n": 0}, {"scriptPubKey": {"reqSigs": 1, "hex": "0014c28e313191d797c74c2404f0f501fb100276075d", "addresses": ["bc1qc28rzvv367tuwnpyqnc02q0mzqp8vp6agcysaf"], "asm": "0 c28e313191d797c74c2404f0f501fb100276075d", "type": "witness_v0_keyhash"}, "value": 1.126e-05, "n": 1}], "hex": "01000000000101bb8f2dea4ce529f48ed473da2350450c59ccc99b07e3de827062cad99eb64c800000000000ffffffff02b06d00000000000017a914df25aa9075aa5ddbe8638225b8da2117c6e188ee876604000000000000160014c28e313191d797c74c2404f0f501fb100276075d02473044022013e62336d54e68ade7e7104c48ce3867c976012a026ba1ddba8055632e54bab2022058556faeac6f95716e48b7a46f8b6160684964b768fc1f22945dc55478a2e1170121030c7b0a78c084b94dcd99a67138578a8fb50239dde12cc7d430c9543ad3d0617700000000", "vin": [{"txinwitness": ["3044022013e62336d54e68ade7e7104c48ce3867c976012a026ba1ddba8055632e54bab2022058556faeac6f95716e48b7a46f8b6160684964b768fc1f22945dc55478a2e11701", "030c7b0a78c084b94dcd99a67138578a8fb50239dde12cc7d430c9543ad3d06177"], "sequence": 4294967295, "scriptSig": {"hex": "", "asm": ""}, "vout": 0, "txid": "804cb69ed9ca627082dee3079bc9cc590c455023da73d48ef429e54cea2d8fbb"}], "txid": "ba47f24a0e73ad0d0aef64a6ec3cc8ad492f912555cb2386cfdd954675715ff0", "blocktime": 1537871767, "version": 1, "confirmations": 11495, "time": 1537871767, "locktime": 0, "vsize": 142, "size": 223}