{"hash": "ba48d36c4b51b30c6ee5c08d5a254390f8cfa191a78cbd2cd808e2049b77d99e", "blockhash": "00000000000000000004ffacab907a6b429b9a5745fa0b75af4234bf69dd7176", "vout": [{"scriptPubKey": {"reqSigs": 1, "hex": "76a914380375dbe4dbe26c5d7073b4a99ee0644b62468288ac", "addresses": ["167AzB7c5KCVc5EG7LiBWN7dThafGJbTje"], "asm": "OP_DUP OP_HASH160 380375dbe4dbe26c5d7073b4a99ee0644b624682 OP_EQUALVERIFY OP_CHECKSIG", "type": "pubkeyhash"}, "value": 0.0358866, "n": 0}, {"scriptPubKey": {"reqSigs": 1, "hex": "a9141b4aa37d929b503a713b413be8b44175d6dc611387", "addresses": ["34BKahviagFPWpK8HjbotRPrbzpRox1fDH"], "asm": "OP_HASH160 1b4aa37d929b503a713b413be8b44175d6dc6113 OP_EQUAL", "type": "scripthash"}, "value": 0.01565923, "n": 1}, {"scriptPubKey": {"reqSigs": 1, "hex": "76a91442c098cbbfb65d9f69487508535f7af44ce8fa8288ac", "addresses": ["175xKXTfcLiXgX7XqxLCaskBzW4Qs3nWAM"], "asm": "OP_DUP OP_HASH160 42c098cbbfb65d9f69487508535f7af44ce8fa82 OP_EQUALVERIFY OP_CHECKSIG", "type": "pubkeyhash"}, "value": 1.28778021, "n": 2}], "hex": "0200000001f2f75a65ab92aa4e9f38b48d368b502cc21bb78ce79ad7c5c1685f313f4cabb5030000006b483045022100b8c2203abd4e63954d796ae688e55d2ed29734dec2bc7a20d94c6e0dea59bbe7022058d963540c34dd127aa3bbdaaaa4db778fc6d9f26b9e6d7a335a3cc999b3a8bd012102b8e1087c8ac0fa7a1b6ae0f6bec802651a26a5a7104a7ccedd28ce7520a17e92ffffffff0334c23600000000001976a914380375dbe4dbe26c5d7073b4a99ee0644b62468288ace3e417000000000017a9141b4aa37d929b503a713b413be8b44175d6dc61138725ffac07000000001976a91442c098cbbfb65d9f69487508535f7af44ce8fa8288ac00000000", "vin": [{"sequence": 4294967295, "scriptSig": {"hex": "483045022100b8c2203abd4e63954d796ae688e55d2ed29734dec2bc7a20d94c6e0dea59bbe7022058d963540c34dd127aa3bbdaaaa4db778fc6d9f26b9e6d7a335a3cc999b3a8bd012102b8e1087c8ac0fa7a1b6ae0f6bec802651a26a5a7104a7ccedd28ce7520a17e92", "asm": "3045022100b8c2203abd4e63954d796ae688e55d2ed29734dec2bc7a20d94c6e0dea59bbe7022058d963540c34dd127aa3bbdaaaa4db778fc6d9f26b9e6d7a335a3cc999b3a8bd[ALL] 02b8e1087c8ac0fa7a1b6ae0f6bec802651a26a5a7104a7ccedd28ce7520a17e92"}, "vout": 3, "txid": "b5ab4c3f315f68c1c5d79ae78cb71bc22c508b368db4389f4eaa92ab655af7f2"}], "txid": "ba48d36c4b51b30c6ee5c08d5a254390f8cfa191a78cbd2cd808e2049b77d99e", "blocktime": 1537875543, "version": 2, "confirmations": 11464, "time": 1537875543, "locktime": 0, "vsize": 258, "size": 258}