{"hash": "ba529cc3841de428039980ba570191fe8111325031175fcbb33f669c121d427a", "blockhash": "0000000000000000001f0ddff1eddb255c1121bcd4da4f1bc9a0da00cae72433", "vout": [{"scriptPubKey": {"reqSigs": 1, "hex": "76a914bc518f2cd2102eaf3e3798536c2f6f077e0b173888ac", "addresses": ["1JAjjuKb2M4dbTPjesELzkZsBaEpciJ6Ma"], "asm": "OP_DUP OP_HASH160 bc518f2cd2102eaf3e3798536c2f6f077e0b1738 OP_EQUALVERIFY OP_CHECKSIG", "type": "pubkeyhash"}, "value": 4.036e-05, "n": 0}, {"scriptPubKey": {"reqSigs": 1, "hex": "a9145cd2e77044807bc07f45eae58545bb039c871c1387", "addresses": ["3A9pk4bv3doQmjPBQoLT4CjAQDguAVGopj"], "asm": "OP_HASH160 5cd2e77044807bc07f45eae58545bb039c871c13 OP_EQUAL", "type": "scripthash"}, "value": 0.00195288, "n": 1}], "hex": "0100000001c7822eed1dc55583f7b865b16aa26b063ddbecffedbf1cb8a32bd0008372b427000000006b483045022100dbb37a35f9fb3f96358e925497f31de22961c066973a3cf7d6b9ab9899640c3602200354c639a9a4c16a338728b07eb53a910c943dbbff86d959c3f0c1a016f8c40c012102e216fb885ea568945d3a1a94ac15c4d4f6e4e95b951efc4f2544047e4019bdfdffffffff02c40f0000000000001976a914bc518f2cd2102eaf3e3798536c2f6f077e0b173888acd8fa02000000000017a9145cd2e77044807bc07f45eae58545bb039c871c138700000000", "vin": [{"sequence": 4294967295, "scriptSig": {"hex": "483045022100dbb37a35f9fb3f96358e925497f31de22961c066973a3cf7d6b9ab9899640c3602200354c639a9a4c16a338728b07eb53a910c943dbbff86d959c3f0c1a016f8c40c012102e216fb885ea568945d3a1a94ac15c4d4f6e4e95b951efc4f2544047e4019bdfd", "asm": "3045022100dbb37a35f9fb3f96358e925497f31de22961c066973a3cf7d6b9ab9899640c3602200354c639a9a4c16a338728b07eb53a910c943dbbff86d959c3f0c1a016f8c40c[ALL] 02e216fb885ea568945d3a1a94ac15c4d4f6e4e95b951efc4f2544047e4019bdfd"}, "vout": 0, "txid": "27b4728300d02ba3b81cbfedffecdb3d066ba26ab165b8f78355c51ded2e82c7"}], "txid": "ba529cc3841de428039980ba570191fe8111325031175fcbb33f669c121d427a", "blocktime": 1537872018, "version": 1, "confirmations": 11489, "time": 1537872018, "locktime": 0, "vsize": 224, "size": 224}