{"hash": "3b24d013dc42ff73ba74ff86ef634aca82e55b7842a809a7ea9bf8d02bb90a89", "blockhash": "00000000000000000024a2167bbff67b0be802c0b01cdd79e6331c2be6459f87", "vout": [{"scriptPubKey": {"reqSigs": 1, "hex": "76a91409ce92f7e24752461bbde7cf1475dd560f9a491088ac", "addresses": ["1trYkHGBD6o3tBQH8Wuwx88CoyeN9zdc1"], "asm": "OP_DUP OP_HASH160 09ce92f7e24752461bbde7cf1475dd560f9a4910 OP_EQUALVERIFY OP_CHECKSIG", "type": "pubkeyhash"}, "value": 0.0032, "n": 0}, {"scriptPubKey": {"reqSigs": 1, "hex": "a9149649ad6d2730bb28020a268d9d80df10a9f74ad487", "addresses": ["3FPfYWwfMfKMGY7fuPHvz2b73RhTNGzsm3"], "asm": "OP_HASH160 9649ad6d2730bb28020a268d9d80df10a9f74ad4 OP_EQUAL", "type": "scripthash"}, "value": 13.94521447, "n": 1}], "hex": "01000000000101d4c0be63fadf008d01af7ad8c2b34e27d1f016dad88c0cf68691cbcb4cf012d701000000232200207768efcc1e5eb3d28410fac3f45831004c860cc24cddd940a616b34324823fceffffffff0200e20400000000001976a91409ce92f7e24752461bbde7cf1475dd560f9a491088ac67b51e530000000017a9149649ad6d2730bb28020a268d9d80df10a9f74ad4870400483045022100825319038ba33302bcc3cd422890436bc9f25a6c89299ace4010b970b1054dec02204ecffc450f3aebb79093ab55b9a1df12d25813d27e6dfa06500937483d9a9c8801483045022100d4559e25a8de65d030e13971ea285f6e630636f3dddcbd0cee9a281bc9384eee022021c1402ef716ec8f5637567fc1cb94d1e4c8eb7fa03fcb8a95aa68c07b2d9a5e0147522102529d5d1f6733ab45d9d50e07db42c7f6b967ae321c38b726c2247f149959b8262103d0c936a5988dd8421c63240496b723b0ec42400c38b9350e32c2eb4f47d8796952ae00000000", "vin": [{"txinwitness": ["", "3045022100825319038ba33302bcc3cd422890436bc9f25a6c89299ace4010b970b1054dec02204ecffc450f3aebb79093ab55b9a1df12d25813d27e6dfa06500937483d9a9c8801", "3045022100d4559e25a8de65d030e13971ea285f6e630636f3dddcbd0cee9a281bc9384eee022021c1402ef716ec8f5637567fc1cb94d1e4c8eb7fa03fcb8a95aa68c07b2d9a5e01", "522102529d5d1f6733ab45d9d50e07db42c7f6b967ae321c38b726c2247f149959b8262103d0c936a5988dd8421c63240496b723b0ec42400c38b9350e32c2eb4f47d8796952ae"], "sequence": 4294967295, "scriptSig": {"hex": "2200207768efcc1e5eb3d28410fac3f45831004c860cc24cddd940a616b34324823fce", "asm": "00207768efcc1e5eb3d28410fac3f45831004c860cc24cddd940a616b34324823fce"}, "vout": 1, "txid": "d712f04ccbcb9186f60c8cd8da16f0d1274eb3c2d87aaf018d00dffa63bec0d4"}], "txid": "ba5e6f7ea27830fc7a2a5431518da924a9831a07813cd178a94435d3fb7eb967", "blocktime": 1537870564, "version": 1, "confirmations": 11515, "time": 1537870564, "locktime": 0, "vsize": 208, "size": 374}