{"hash": "ba61eb2d948deaf91f4867eb59081249df4ee6e1800516d169320f685acac64f", "blockhash": "0000000000000000001f76057863aec43deb6fa401d9628bb513d65a8098bfab", "vout": [{"scriptPubKey": {"reqSigs": 1, "hex": "76a9143579d5f303b9816b2398d5bb3612d7f52041bf8588ac", "addresses": ["15skmTq9kHytLPzSXyApqXXdeArVjAUnV6"], "asm": "OP_DUP OP_HASH160 3579d5f303b9816b2398d5bb3612d7f52041bf85 OP_EQUALVERIFY OP_CHECKSIG", "type": "pubkeyhash"}, "value": 0.02497471, "n": 0}, {"scriptPubKey": {"reqSigs": 1, "hex": "76a914ee61ca849310bafabc5faeb7bbcddb2ef6d3c16688ac", "addresses": ["1NjSyJN6LarK8HDLgTUvncwscFxzRDMJhu"], "asm": "OP_DUP OP_HASH160 ee61ca849310bafabc5faeb7bbcddb2ef6d3c166 OP_EQUALVERIFY OP_CHECKSIG", "type": "pubkeyhash"}, "value": 0.14972667, "n": 1}], "hex": "0100000001798cc5d09aef4aac691c4eaf6043d56e8a4cc26724883dce1291c20a6b57c7d2010000006a4730440220641bbb067c9d70f4aaf66f1b14d915e257d7a375957f19b54be9cdbb908f874e02204551fada602c26fed925e23f6254918902fab5ed5cbed3d80f87a86bb9cf0c2b0121028edd2acf6fb6f706574829339fcce147a4f23cd68c660ae93266045739679c0bffffffff02bf1b2600000000001976a9143579d5f303b9816b2398d5bb3612d7f52041bf8588acfb76e400000000001976a914ee61ca849310bafabc5faeb7bbcddb2ef6d3c16688ac00000000", "vin": [{"sequence": 4294967295, "scriptSig": {"hex": "4730440220641bbb067c9d70f4aaf66f1b14d915e257d7a375957f19b54be9cdbb908f874e02204551fada602c26fed925e23f6254918902fab5ed5cbed3d80f87a86bb9cf0c2b0121028edd2acf6fb6f706574829339fcce147a4f23cd68c660ae93266045739679c0b", "asm": "30440220641bbb067c9d70f4aaf66f1b14d915e257d7a375957f19b54be9cdbb908f874e02204551fada602c26fed925e23f6254918902fab5ed5cbed3d80f87a86bb9cf0c2b[ALL] 028edd2acf6fb6f706574829339fcce147a4f23cd68c660ae93266045739679c0b"}, "vout": 1, "txid": "d2c7576b0ac29112ce3d882467c24c8a6ed54360af4e1c69ac4aef9ad0c58c79"}], "txid": "ba61eb2d948deaf91f4867eb59081249df4ee6e1800516d169320f685acac64f", "blocktime": 1537873891, "version": 1, "confirmations": 11478, "time": 1537873891, "locktime": 0, "vsize": 225, "size": 225}