{"hash": "ba64c89af20013a1b37b319024055f5ca02c858056e3788b8f82fb424940cc96", "blockhash": "00000000000000000024a2167bbff67b0be802c0b01cdd79e6331c2be6459f87", "vout": [{"scriptPubKey": {"reqSigs": 1, "hex": "76a914f269af60122267051686893788274395b822368988ac", "addresses": ["1P6m8Yszdkh9UK6Tnu5bGBnz4kRdV8Xo6h"], "asm": "OP_DUP OP_HASH160 f269af60122267051686893788274395b8223689 OP_EQUALVERIFY OP_CHECKSIG", "type": "pubkeyhash"}, "value": 0.00124672, "n": 0}, {"scriptPubKey": {"reqSigs": 1, "hex": "76a914c1c3aad44b476c54ca7b587e02b7e8c0bd21403488ac", "addresses": ["1JfXpE6QFugeDkpoS3DVWLUNdgGFCcwYFi"], "asm": "OP_DUP OP_HASH160 c1c3aad44b476c54ca7b587e02b7e8c0bd214034 OP_EQUALVERIFY OP_CHECKSIG", "type": "pubkeyhash"}, "value": 0.00162141, "n": 1}], "hex": "0100000001d43635af8dcee184c53a1891b12f19dd6da3dbf5fb79ce696f5a57fe3127d9c5000000006b483045022100b3aa8e9304722cad180e8c216d49d6d01cab22b66d1505fef8d846056b6127c6022013d7e2cd2f5531b0b782f92c69955b6ccc087314c4019113237939b794e7e35b012102db9a5fab631a6e9d8e65fa70027a2f4e6815ebbf81539a99a2f96fbb2518da66ffffffff0200e70100000000001976a914f269af60122267051686893788274395b822368988ac5d790200000000001976a914c1c3aad44b476c54ca7b587e02b7e8c0bd21403488ac00000000", "vin": [{"sequence": 4294967295, "scriptSig": {"hex": "483045022100b3aa8e9304722cad180e8c216d49d6d01cab22b66d1505fef8d846056b6127c6022013d7e2cd2f5531b0b782f92c69955b6ccc087314c4019113237939b794e7e35b012102db9a5fab631a6e9d8e65fa70027a2f4e6815ebbf81539a99a2f96fbb2518da66", "asm": "3045022100b3aa8e9304722cad180e8c216d49d6d01cab22b66d1505fef8d846056b6127c6022013d7e2cd2f5531b0b782f92c69955b6ccc087314c4019113237939b794e7e35b[ALL] 02db9a5fab631a6e9d8e65fa70027a2f4e6815ebbf81539a99a2f96fbb2518da66"}, "vout": 0, "txid": "c5d92731fe575a6f69ce79fbf5dba36ddd192fb191183ac584e1ce8daf3536d4"}], "txid": "ba64c89af20013a1b37b319024055f5ca02c858056e3788b8f82fb424940cc96", "blocktime": 1537870564, "version": 1, "confirmations": 11515, "time": 1537870564, "locktime": 0, "vsize": 226, "size": 226}