{"hash": "ba6a1544e9aecc758316d441520f9758a7ac810f2072e3950dccb884b0f35065", "blockhash": "0000000000000000000e13cef7c366c0283d82e591d1acd082e914b08063cdf1", "vout": [{"scriptPubKey": {"type": "nulldata", "hex": "6a4c50000077a50001cbb205e5d82553f51ee4a0c3af6c953dd567cf27e7e3ef3236678a6250971726b13df038a3ece4a19bad472bfa265baa0efa0614574a5cb5650dbc9a9526289ac0f6612cd74e33776ee4", "asm": "OP_RETURN 000077a50001cbb205e5d82553f51ee4a0c3af6c953dd567cf27e7e3ef3236678a6250971726b13df038a3ece4a19bad472bfa265baa0efa0614574a5cb5650dbc9a9526289ac0f6612cd74e33776ee4"}, "value": 0.0, "n": 0}, {"scriptPubKey": {"reqSigs": 1, "hex": "76a914694052d2fc58cdd4f211b834222eab943bb3b4d888ac", "addresses": ["1AbX1RLLXripuQG1bAW3Kb2VV5KYsZuXLf"], "asm": "OP_DUP OP_HASH160 694052d2fc58cdd4f211b834222eab943bb3b4d8 OP_EQUALVERIFY OP_CHECKSIG", "type": "pubkeyhash"}, "value": 0.0013894, "n": 1}], "hex": "0100000001506936d56288206d97602c8863880f7c34a15920db46d784759e5039c07e562e010000006a473044022063173582d8bfc62acddb31a0b0be382e3869ff492e7c1501801492693f8af05d0220226c20b9098d50ce58cd8b868366ca83a68d7a8c454c3667f9b315db106d9e8f012103026bb6eb229ffb2ecd44e8ef228dfda3c514f546a4ddd03f8d10c983bcfb1c24ffffffff020000000000000000536a4c50000077a50001cbb205e5d82553f51ee4a0c3af6c953dd567cf27e7e3ef3236678a6250971726b13df038a3ece4a19bad472bfa265baa0efa0614574a5cb5650dbc9a9526289ac0f6612cd74e33776ee4bc1e0200000000001976a914694052d2fc58cdd4f211b834222eab943bb3b4d888ac00000000", "vin": [{"sequence": 4294967295, "scriptSig": {"hex": "473044022063173582d8bfc62acddb31a0b0be382e3869ff492e7c1501801492693f8af05d0220226c20b9098d50ce58cd8b868366ca83a68d7a8c454c3667f9b315db106d9e8f012103026bb6eb229ffb2ecd44e8ef228dfda3c514f546a4ddd03f8d10c983bcfb1c24", "asm": "3044022063173582d8bfc62acddb31a0b0be382e3869ff492e7c1501801492693f8af05d0220226c20b9098d50ce58cd8b868366ca83a68d7a8c454c3667f9b315db106d9e8f[ALL] 03026bb6eb229ffb2ecd44e8ef228dfda3c514f546a4ddd03f8d10c983bcfb1c24"}, "vout": 1, "txid": "2e567ec039509e7584d746db2059a1347c0f8863882c60976d208862d5366950"}], "txid": "ba6a1544e9aecc758316d441520f9758a7ac810f2072e3950dccb884b0f35065", "blocktime": 1537871767, "version": 1, "confirmations": 11493, "time": 1537871767, "locktime": 0, "vsize": 283, "size": 283}