{"hash": "c6df06235d1737390f590e8abf8b7f8ba8a37caee77acc1261c2a775bffaf603", "blockhash": "0000000000000000000e13cef7c366c0283d82e591d1acd082e914b08063cdf1", "vout": [{"scriptPubKey": {"reqSigs": 1, "hex": "76a9141b79a557449e0690f55ca8581192f38a2dc3959a88ac", "addresses": ["13WGyHN9RDQH2gPBNQPrWCSxfPy5B3j86U"], "asm": "OP_DUP OP_HASH160 1b79a557449e0690f55ca8581192f38a2dc3959a OP_EQUALVERIFY OP_CHECKSIG", "type": "pubkeyhash"}, "value": 0.0018, "n": 0}, {"scriptPubKey": {"reqSigs": 1, "hex": "a91441000f77ee3238395c0edd1471bda5b6f90e006d87", "addresses": ["37chvDCDLfjEME47gzQKiNocopq7sScixV"], "asm": "OP_HASH160 41000f77ee3238395c0edd1471bda5b6f90e006d OP_EQUAL", "type": "scripthash"}, "value": 0.01025224, "n": 1}], "hex": "02000000000101d95a4299a836e658a94f09f683605e10c1a9045425e6ffeaeace38b06ed8d6a900000000171600144054627e5304e936f51f2a246d4e496c383284f0feffffff0220bf0200000000001976a9141b79a557449e0690f55ca8581192f38a2dc3959a88acc8a40f000000000017a91441000f77ee3238395c0edd1471bda5b6f90e006d8702473044022051ed946d092f9d4ce52041e9ed7a64f34ee7131d867ec93d457b9fce3e776cda02206fff1154c2adfbdf63cad8054861114435580ff1467b338231abb1054a9f4e91012103258cf6a1e4f6de070835e2314325e907161a130c74c844b16d183e2d9299eaf310490800", "vin": [{"txinwitness": ["3044022051ed946d092f9d4ce52041e9ed7a64f34ee7131d867ec93d457b9fce3e776cda02206fff1154c2adfbdf63cad8054861114435580ff1467b338231abb1054a9f4e9101", "03258cf6a1e4f6de070835e2314325e907161a130c74c844b16d183e2d9299eaf3"], "sequence": 4294967294, "scriptSig": {"hex": "1600144054627e5304e936f51f2a246d4e496c383284f0", "asm": "00144054627e5304e936f51f2a246d4e496c383284f0"}, "vout": 0, "txid": "a9d6d86eb038ceeaeaffe6255404a9c1105e6083f6094fa958e636a899425ad9"}], "txid": "ba7275d653360262faa70a199e52cc206bcd7cb6eb356b83e5598bb636ed839e", "blocktime": 1537871767, "version": 2, "confirmations": 11491, "time": 1537871767, "locktime": 542992, "vsize": 168, "size": 249}