{"hash": "ba75d54251ebc6a2adb54b2cff017d336a63650f187b7898110311aa5717f3a0", "blockhash": "00000000000000000017f5eb5941039fbcee6240d03bc1f2f8e35350df66a1d8", "vout": [{"scriptPubKey": {"reqSigs": 1, "hex": "76a914da1d24609443e3ec2ab80072e3d9e80c8ce0657588ac", "addresses": ["1LtHDeZLthTDwjoehXGTqFXdKMVM2GCEm6"], "asm": "OP_DUP OP_HASH160 da1d24609443e3ec2ab80072e3d9e80c8ce06575 OP_EQUALVERIFY OP_CHECKSIG", "type": "pubkeyhash"}, "value": 0.0021279, "n": 0}, {"scriptPubKey": {"reqSigs": 1, "hex": "76a9143b23992512c4ebe8700993df4641c05137e9f8a488ac", "addresses": ["16PhWj6ee9qzHrooDYNEYff65uAgbDC9Rf"], "asm": "OP_DUP OP_HASH160 3b23992512c4ebe8700993df4641c05137e9f8a4 OP_EQUALVERIFY OP_CHECKSIG", "type": "pubkeyhash"}, "value": 2.49863348, "n": 1}], "hex": "01000000013dcceac3fbe20f663684e625935c2d2e9edfd2d3881af21bc378adda0e1fb913010000006b483045022100be80d169a6ab7deed74638df1c5220befb5d545b3e2bf1cdb0f20dc8453911c0022051d6b2f586f858f9e6b9140c4ca17c1863782d18f752b45d89825a87d66df96a012102f9d0f36a232766f2c557d1d34b92054a62af41c4448430763938fffaf5db96d0ffffffff02363f0300000000001976a914da1d24609443e3ec2ab80072e3d9e80c8ce0657588acb49ce40e000000001976a9143b23992512c4ebe8700993df4641c05137e9f8a488ac00000000", "vin": [{"sequence": 4294967295, "scriptSig": {"hex": "483045022100be80d169a6ab7deed74638df1c5220befb5d545b3e2bf1cdb0f20dc8453911c0022051d6b2f586f858f9e6b9140c4ca17c1863782d18f752b45d89825a87d66df96a012102f9d0f36a232766f2c557d1d34b92054a62af41c4448430763938fffaf5db96d0", "asm": "3045022100be80d169a6ab7deed74638df1c5220befb5d545b3e2bf1cdb0f20dc8453911c0022051d6b2f586f858f9e6b9140c4ca17c1863782d18f752b45d89825a87d66df96a[ALL] 02f9d0f36a232766f2c557d1d34b92054a62af41c4448430763938fffaf5db96d0"}, "vout": 1, "txid": "13b91f0edaad78c31bf21a88d3d2df9e2e2d5c9325e68436660fe2fbc3eacc3d"}], "txid": "ba75d54251ebc6a2adb54b2cff017d336a63650f187b7898110311aa5717f3a0", "blocktime": 1537874412, "version": 1, "confirmations": 11467, "time": 1537874412, "locktime": 0, "vsize": 226, "size": 226}