{"hash": "ba76bc0396c889536c0b389bedb91de488b264e651ca40673c086fc074c4a08b", "blockhash": "0000000000000000001e0dab787dd257d1dbfcb92a98c2207d5e1078be1f4165", "vout": [{"scriptPubKey": {"reqSigs": 1, "hex": "76a9140787f7a6fb3f2bf2ef7724063370e770e481934b88ac", "addresses": ["1gpcXKizSuL45WfrmFXjBBNGo1o6KkXC7"], "asm": "OP_DUP OP_HASH160 0787f7a6fb3f2bf2ef7724063370e770e481934b OP_EQUALVERIFY OP_CHECKSIG", "type": "pubkeyhash"}, "value": 0.00497966, "n": 0}, {"scriptPubKey": {"reqSigs": 1, "hex": "a914b36a72db3bba7ef064701c8622ea91c6be23ae4287", "addresses": ["3J3gQ4etDfxhWC9XCHHbrkQ1gVCC4NohRo"], "asm": "OP_HASH160 b36a72db3bba7ef064701c8622ea91c6be23ae42 OP_EQUAL", "type": "scripthash"}, "value": 0.01, "n": 1}], "hex": "01000000011529639b137cfb5427f173713346286b0830d765bb32d10c7f44c1b945d52069010000006a47304402200662d69d0b4b12e795d969d1dfbde2e47e24f9c3d2ea8891a426a4b7d7c6bd24022030475a3e0a888b296cde3a8f57fb650fa69452a49d898b562a49d8b99c2bc043012102e7c5bdb61fc7f4bf1c5c9cade3c481b26bc08fbf19642aecb4118322da2f8a52ffffffff022e990700000000001976a9140787f7a6fb3f2bf2ef7724063370e770e481934b88ac40420f000000000017a914b36a72db3bba7ef064701c8622ea91c6be23ae428700000000", "vin": [{"sequence": 4294967295, "scriptSig": {"hex": "47304402200662d69d0b4b12e795d969d1dfbde2e47e24f9c3d2ea8891a426a4b7d7c6bd24022030475a3e0a888b296cde3a8f57fb650fa69452a49d898b562a49d8b99c2bc043012102e7c5bdb61fc7f4bf1c5c9cade3c481b26bc08fbf19642aecb4118322da2f8a52", "asm": "304402200662d69d0b4b12e795d969d1dfbde2e47e24f9c3d2ea8891a426a4b7d7c6bd24022030475a3e0a888b296cde3a8f57fb650fa69452a49d898b562a49d8b99c2bc043[ALL] 02e7c5bdb61fc7f4bf1c5c9cade3c481b26bc08fbf19642aecb4118322da2f8a52"}, "vout": 1, "txid": "6920d545b9c1447f0cd132bb65d730086b2846337173f12754fb7c139b632915"}], "txid": "ba76bc0396c889536c0b389bedb91de488b264e651ca40673c086fc074c4a08b", "blocktime": 1537872475, "version": 1, "confirmations": 11487, "time": 1537872475, "locktime": 0, "vsize": 223, "size": 223}