{"hash": "ba8072dd110d8a319283310fdeb7cb80e5d3465bd53274ccc960871907be903a", "blockhash": "0000000000000000001f76057863aec43deb6fa401d9628bb513d65a8098bfab", "vout": [{"scriptPubKey": {"reqSigs": 1, "hex": "76a9148f53ba3a31326ef5d110efe6cf1e46c97b7a7f8788ac", "addresses": ["1E4qvvBmZ1H4Ee9P9rJZFvHNgiynfFKwmS"], "asm": "OP_DUP OP_HASH160 8f53ba3a31326ef5d110efe6cf1e46c97b7a7f87 OP_EQUALVERIFY OP_CHECKSIG", "type": "pubkeyhash"}, "value": 0.07522855, "n": 0}, {"scriptPubKey": {"reqSigs": 1, "hex": "76a9142c96d4217e61cf20d49a2fd0e6235220892cffff88ac", "addresses": ["154mRCUikQttoAaGNV1RVAS4yUN7gpfLod"], "asm": "OP_DUP OP_HASH160 2c96d4217e61cf20d49a2fd0e6235220892cffff OP_EQUALVERIFY OP_CHECKSIG", "type": "pubkeyhash"}, "value": 0.00998418, "n": 1}], "hex": "02000000030fc0c5483ade99ce2dbd956fccf4222c8ca9ae8b7ef3da6254b8bd6c332b3088000000006a47304402207440bf9bade6c78ad8d533dc636fda3307da344cfbc1eb66e7aac34a4d4de2c00220742088d7702560f872a0ea201c234ac70048afe5bcb1cd51f3b4c69cdc553e7c0121024ca7a27e3b88377f0b75f88f5d5a99fb0612c53f5b6d667e25495a4d6e1aae2cfeffffff32c75fddb78b738f6961d8c3963ac377531dd36ed4fb5824ab9d66ddd0eb0c9b010000006b483045022100c8177f47c672fcc9ad28bf9835200913bf4008ba36e450fdd632cc17e4cec8ab022018da49e10e0ff4a9341bcef0fe82fb087c77a5a460049361b15a9d1dd279cfdb01210239d31bdcf1e0c3275b45ece46ba76aa9732dd32ef937b546be52300c06fd415dfefffffffec7096e9e9fe28b60c0df862bdd10c4082f240bf86099c90562819efeba0444010000006b483045022100fa12f477689df5c95dc6585eebd38df7c71f5cba435cbd8ff54597cb6e435172022066022b8d185f13ed7f18dec73d1530549124b14ee10df8290fd05ba40b1f686d0121032eded304e2150b9a5b85a0aa3d4a8589824dd1dc3d83a1b5ed5ae9f3c40b0836feffffff0227ca7200000000001976a9148f53ba3a31326ef5d110efe6cf1e46c97b7a7f8788ac123c0f00000000001976a9142c96d4217e61cf20d49a2fd0e6235220892cffff88ac13490800", "vin": [{"sequence": 4294967294, "scriptSig": {"hex": "47304402207440bf9bade6c78ad8d533dc636fda3307da344cfbc1eb66e7aac34a4d4de2c00220742088d7702560f872a0ea201c234ac70048afe5bcb1cd51f3b4c69cdc553e7c0121024ca7a27e3b88377f0b75f88f5d5a99fb0612c53f5b6d667e25495a4d6e1aae2c", "asm": "304402207440bf9bade6c78ad8d533dc636fda3307da344cfbc1eb66e7aac34a4d4de2c00220742088d7702560f872a0ea201c234ac70048afe5bcb1cd51f3b4c69cdc553e7c[ALL] 024ca7a27e3b88377f0b75f88f5d5a99fb0612c53f5b6d667e25495a4d6e1aae2c"}, "vout": 0, "txid": "88302b336cbdb85462daf37e8baea98c2c22f4cc6f95bd2dce99de3a48c5c00f"}, {"sequence": 4294967294, "scriptSig": {"hex": "483045022100c8177f47c672fcc9ad28bf9835200913bf4008ba36e450fdd632cc17e4cec8ab022018da49e10e0ff4a9341bcef0fe82fb087c77a5a460049361b15a9d1dd279cfdb01210239d31bdcf1e0c3275b45ece46ba76aa9732dd32ef937b546be52300c06fd415d", "asm": "3045022100c8177f47c672fcc9ad28bf9835200913bf4008ba36e450fdd632cc17e4cec8ab022018da49e10e0ff4a9341bcef0fe82fb087c77a5a460049361b15a9d1dd279cfdb[ALL] 0239d31bdcf1e0c3275b45ece46ba76aa9732dd32ef937b546be52300c06fd415d"}, "vout": 1, "txid": "9b0cebd0dd669dab2458fbd46ed31d5377c33a96c3d861698f738bb7dd5fc732"}, {"sequence": 4294967294, "scriptSig": {"hex": "483045022100fa12f477689df5c95dc6585eebd38df7c71f5cba435cbd8ff54597cb6e435172022066022b8d185f13ed7f18dec73d1530549124b14ee10df8290fd05ba40b1f686d0121032eded304e2150b9a5b85a0aa3d4a8589824dd1dc3d83a1b5ed5ae9f3c40b0836", "asm": "3045022100fa12f477689df5c95dc6585eebd38df7c71f5cba435cbd8ff54597cb6e435172022066022b8d185f13ed7f18dec73d1530549124b14ee10df8290fd05ba40b1f686d[ALL] 032eded304e2150b9a5b85a0aa3d4a8589824dd1dc3d83a1b5ed5ae9f3c40b0836"}, "vout": 1, "txid": "4404bafe9e816205c99960f80b242f08c410dd2b86dfc0608be29f9e6e09c7fe"}], "txid": "ba8072dd110d8a319283310fdeb7cb80e5d3465bd53274ccc960871907be903a", "blocktime": 1537873891, "version": 2, "confirmations": 11478, "time": 1537873891, "locktime": 542995, "vsize": 521, "size": 521}