{"hash": "b7fd8085c26a3ee704d99a19ed066bd91dce02058b04591f3d415ef44f2c62bf", "blockhash": "0000000000000000000dcc0f55137456b1a82d3642486a52398922ac4d620174", "vout": [{"scriptPubKey": {"reqSigs": 1, "hex": "76a9146aebfb835307567f772bc0ca1ad5953748cd825688ac", "addresses": ["1AkMKgerqw1LB2sJxWqJcmQaxo5bF9dnxY"], "asm": "OP_DUP OP_HASH160 6aebfb835307567f772bc0ca1ad5953748cd8256 OP_EQUALVERIFY OP_CHECKSIG", "type": "pubkeyhash"}, "value": 0.23638718, "n": 0}], "hex": "01000000000101619fe2cbd62a5f45d0eb1be67c48639ad9088d9012ac3d4d47a72c39fe52b84a0000000023220020f7a7b39c0ed892bcdddedd52207b3da1aacf67f91a31b5cb1bd4ada362bf98d9ffffffff01beb26801000000001976a9146aebfb835307567f772bc0ca1ad5953748cd825688ac0400473044022012ffc5ead22eb5da0de468f724aa7253e3f6ae21e9dbd819dbbc42ff17293784022027cc6effbc66a78f4eba6a8b8a241839b60159d0a4c0cb80976ff5a55b8fa29401483045022100cd8d209efbcfb580d589cd02fa4d21b8d4c5362f60c76f67d9bc32949b79374a02207fa2181f6c609519bae719f7fa436e483f2a6e8ac0b2df25ece53f7d77f291700147522102223340a629672dab9888afb17eaaecaf70c869eab4aa5b30fd70170ef61533a52103ac21a39cd020545d23cb1596a1eedcd7c378cbadc2cd357a348c0f2ce00e418e52ae00000000", "vin": [{"txinwitness": ["", "3044022012ffc5ead22eb5da0de468f724aa7253e3f6ae21e9dbd819dbbc42ff17293784022027cc6effbc66a78f4eba6a8b8a241839b60159d0a4c0cb80976ff5a55b8fa29401", "3045022100cd8d209efbcfb580d589cd02fa4d21b8d4c5362f60c76f67d9bc32949b79374a02207fa2181f6c609519bae719f7fa436e483f2a6e8ac0b2df25ece53f7d77f2917001", "522102223340a629672dab9888afb17eaaecaf70c869eab4aa5b30fd70170ef61533a52103ac21a39cd020545d23cb1596a1eedcd7c378cbadc2cd357a348c0f2ce00e418e52ae"], "sequence": 4294967295, "scriptSig": {"hex": "220020f7a7b39c0ed892bcdddedd52207b3da1aacf67f91a31b5cb1bd4ada362bf98d9", "asm": "0020f7a7b39c0ed892bcdddedd52207b3da1aacf67f91a31b5cb1bd4ada362bf98d9"}, "vout": 0, "txid": "4ab852fe392ca7474d3dac12908d08d99a63487ce61bebd0455f2ad6cbe29f61"}], "txid": "ba84ffee4507fbe7929ec409a6417d7a9036ec8d9333e3ac97f34876f813e0eb", "blocktime": 1537870268, "version": 1, "confirmations": 11518, "time": 1537870268, "locktime": 0, "vsize": 176, "size": 341}