{"hash": "37b1abdbdbf64e55d05d1829aa9ace5bdc7feef65e2f397c7dbedbdebb9c45a2", "blockhash": "0000000000000000000e13cef7c366c0283d82e591d1acd082e914b08063cdf1", "vout": [{"scriptPubKey": {"reqSigs": 1, "hex": "76a91498cd779c30e2e7ca87da58a47da28e14676622ad88ac", "addresses": ["1EvwrGk7Gv3KJJVR4xvUeCerNasB5LGbnj"], "asm": "OP_DUP OP_HASH160 98cd779c30e2e7ca87da58a47da28e14676622ad OP_EQUALVERIFY OP_CHECKSIG", "type": "pubkeyhash"}, "value": 0.00396825, "n": 0}, {"scriptPubKey": {"reqSigs": 1, "hex": "a914167b601028b27bba7bace65992d1fa22cbc5d6b487", "addresses": ["33jtb2VBhgzcZH9VktnEVgyEFjeYjhLYRx"], "asm": "OP_HASH160 167b601028b27bba7bace65992d1fa22cbc5d6b4 OP_EQUAL", "type": "scripthash"}, "value": 0.43908533, "n": 1}], "hex": "020000000001015920ccbda4ecf229ad58d0960510b012371ef1f644d04096afe1f84d8b0963e800000000171600146fc9571ec49b4c91a4ba886271fb849990736a02fdffffff02190e0600000000001976a91498cd779c30e2e7ca87da58a47da28e14676622ad88acb5fd9d020000000017a914167b601028b27bba7bace65992d1fa22cbc5d6b487024730440220009caff260c571707fba87052f25ea1deb3fd66c07ffb103961375d6a0ceb8010220777f3e3a724478f358be7d13db2a25ce4859f6b524af14164dad30ab54c8e7a1012103b138b772eff55a31191d801a1094a689d9f0754ff842bcfdd70a8292265b3fec10490800", "vin": [{"txinwitness": ["30440220009caff260c571707fba87052f25ea1deb3fd66c07ffb103961375d6a0ceb8010220777f3e3a724478f358be7d13db2a25ce4859f6b524af14164dad30ab54c8e7a101", "03b138b772eff55a31191d801a1094a689d9f0754ff842bcfdd70a8292265b3fec"], "sequence": 4294967293, "scriptSig": {"hex": "1600146fc9571ec49b4c91a4ba886271fb849990736a02", "asm": "00146fc9571ec49b4c91a4ba886271fb849990736a02"}, "vout": 0, "txid": "e863098b4df8e1af9640d044f6f11e3712b0100596d058ad29f2eca4bdcc2059"}], "txid": "ba84d4221febf35aea21b1c652478478e61a44dfc0571dcee94a8e9ad38db8ee", "blocktime": 1537871767, "version": 2, "confirmations": 11493, "time": 1537871767, "locktime": 542992, "vsize": 168, "size": 249}