{"hash": "ba8806fb91695858a0ce89702613ba7cf5cd4979a113304d7121cd18213ec034", "blockhash": "0000000000000000001e0dab787dd257d1dbfcb92a98c2207d5e1078be1f4165", "vout": [{"scriptPubKey": {"reqSigs": 1, "hex": "76a914edab1f26a596b27856598ab58212957bf11878d088ac", "addresses": ["1Nfg9CzjV1oUmaYqezE1sgRTFth1BbPTgQ"], "asm": "OP_DUP OP_HASH160 edab1f26a596b27856598ab58212957bf11878d0 OP_EQUALVERIFY OP_CHECKSIG", "type": "pubkeyhash"}, "value": 0.0009154, "n": 0}, {"scriptPubKey": {"type": "nulldata", "hex": "6a4c50000077bb0001aad27cda75d3ca0bed78aa0ee5bf9ae76da98a211aaf6c953dd567cf27e7a35d044b07f77ea683b998d420c51cd65baa120c0612bc1373f1b35bbc9a9526289ac0f6612cd74e33776ee4", "asm": "OP_RETURN 000077bb0001aad27cda75d3ca0bed78aa0ee5bf9ae76da98a211aaf6c953dd567cf27e7a35d044b07f77ea683b998d420c51cd65baa120c0612bc1373f1b35bbc9a9526289ac0f6612cd74e33776ee4"}, "value": 0.0, "n": 1}], "hex": "0100000001d33e4f3b578384dd314cc1afdcc86b6c81bef7a7db894b4224ef52db4d63b02e000000006b483045022100c360d3576ef90c65a97cd6957c02bdb4dfa9366b2b2f2678fcdc551389e1bf2b0220373bec524fad5c80aca241acec7e8f11156de523854a8f5efa06abf6fb00984d012103ebc23329913650efceb99ac654d1c29b3966e32cbf196b9be89f8493eecef7eeffffffff0294650100000000001976a914edab1f26a596b27856598ab58212957bf11878d088ac0000000000000000536a4c50000077bb0001aad27cda75d3ca0bed78aa0ee5bf9ae76da98a211aaf6c953dd567cf27e7a35d044b07f77ea683b998d420c51cd65baa120c0612bc1373f1b35bbc9a9526289ac0f6612cd74e33776ee400000000", "vin": [{"sequence": 4294967295, "scriptSig": {"hex": "483045022100c360d3576ef90c65a97cd6957c02bdb4dfa9366b2b2f2678fcdc551389e1bf2b0220373bec524fad5c80aca241acec7e8f11156de523854a8f5efa06abf6fb00984d012103ebc23329913650efceb99ac654d1c29b3966e32cbf196b9be89f8493eecef7ee", "asm": "3045022100c360d3576ef90c65a97cd6957c02bdb4dfa9366b2b2f2678fcdc551389e1bf2b0220373bec524fad5c80aca241acec7e8f11156de523854a8f5efa06abf6fb00984d[ALL] 03ebc23329913650efceb99ac654d1c29b3966e32cbf196b9be89f8493eecef7ee"}, "vout": 0, "txid": "2eb0634ddb52ef24424b89dba7f7be816c6bc8dcafc14c31dd8483573b4f3ed3"}], "txid": "ba8806fb91695858a0ce89702613ba7cf5cd4979a113304d7121cd18213ec034", "blocktime": 1537872475, "version": 1, "confirmations": 11486, "time": 1537872475, "locktime": 0, "vsize": 284, "size": 284}