{"hash": "ba8a3a915257e38d94e003e5f8d41d40270fdb9d39e57b63b241932ec9dcba21", "blockhash": "00000000000000000004ffacab907a6b429b9a5745fa0b75af4234bf69dd7176", "vout": [{"scriptPubKey": {"reqSigs": 1, "hex": "a914a352a40a5b630eb0d8ddd67362796485f35c1a1087", "addresses": ["3Gab4o2YxfiMgs2cu9WzWbPFYnn6rn2K4t"], "asm": "OP_HASH160 a352a40a5b630eb0d8ddd67362796485f35c1a10 OP_EQUAL", "type": "scripthash"}, "value": 15.0, "n": 0}, {"scriptPubKey": {"reqSigs": 1, "hex": "76a91431c039271b4d56292a8d837f69645cae3837579088ac", "addresses": ["15Y4PJiYHjRJbLZ2Xafi7tsTmhYqKdkmoD"], "asm": "OP_DUP OP_HASH160 31c039271b4d56292a8d837f69645cae38375790 OP_EQUALVERIFY OP_CHECKSIG", "type": "pubkeyhash"}, "value": 0.01, "n": 1}, {"scriptPubKey": {"reqSigs": 1, "hex": "76a9146a8bd110461ea1b81f2133771e199802ee7f0d5888ac", "addresses": ["1AiN7xzvG13fduJ5ZDyk9uzKhJxQp3JYs3"], "asm": "OP_DUP OP_HASH160 6a8bd110461ea1b81f2133771e199802ee7f0d58 OP_EQUALVERIFY OP_CHECKSIG", "type": "pubkeyhash"}, "value": 18.6365, "n": 2}, {"scriptPubKey": {"reqSigs": 1, "hex": "76a914d51e7e74f5b35cbc31371f3b71a758be4b4a5a4b88ac", "addresses": ["1LRsTcrf8YoZ7NhJFxAMRAQZtYC7LBjQnb"], "asm": "OP_DUP OP_HASH160 d51e7e74f5b35cbc31371f3b71a758be4b4a5a4b OP_EQUALVERIFY OP_CHECKSIG", "type": "pubkeyhash"}, "value": 0.181033, "n": 3}, {"scriptPubKey": {"reqSigs": 1, "hex": "76a914472dc41752de6166eb715fa7d9f35f98e995bbb488ac", "addresses": ["17VMoVmk5vMnDziyQdKuHc2m5uhDjLNccn"], "asm": "OP_DUP OP_HASH160 472dc41752de6166eb715fa7d9f35f98e995bbb4 OP_EQUALVERIFY OP_CHECKSIG", "type": "pubkeyhash"}, "value": 16.3895, "n": 4}, {"scriptPubKey": {"reqSigs": 1, "hex": "a91405967dc18fcba45edc8eeb74728dc649bcafc65087", "addresses": ["32CZapMLwrdALiorKqPXScjho7zwMdjWa9"], "asm": "OP_HASH160 05967dc18fcba45edc8eeb74728dc649bcafc650 OP_EQUAL", "type": "scripthash"}, "value": 32.99950093, "n": 5}, {"scriptPubKey": {"reqSigs": 1, "hex": "a91422be2a4e31a3dc65c0015cfd01a1649bbb9b94e887", "addresses": ["34rihymb4pLXFA6nux56smA4EgQwR24tpW"], "asm": "OP_HASH160 22be2a4e31a3dc65c0015cfd01a1649bbb9b94e8 OP_EQUAL", "type": "scripthash"}, "value": 0.9975, "n": 6}, {"scriptPubKey": {"reqSigs": 1, "hex": "a914eb71d47b8ede554eab9a36db990642f54c19bf5e87", "addresses": ["3P9w5fumkVZX4uFBXG9LeLYEwwY25jDekL"], "asm": "OP_HASH160 eb71d47b8ede554eab9a36db990642f54c19bf5e OP_EQUAL", "type": "scripthash"}, "value": 7.705469, "n": 7}, {"scriptPubKey": {"reqSigs": 1, "hex": "a914bb9d8c5d5f05800a432fae163368bed49173005287", "addresses": ["3Jo324evmqGLbHrpGRXZ6vWKtgaCbD1sEn"], "asm": "OP_HASH160 bb9d8c5d5f05800a432fae163368bed491730052 OP_EQUAL", "type": "scripthash"}, "value": 0.9995, "n": 8}, {"scriptPubKey": {"reqSigs": 1, "hex": "76a914b71a338849fc69f195bd51506c8ef718ed1dd52788ac", "addresses": ["1HhA3byoV6Sy8M5yGr48ZBD18jbA6k58GR"], "asm": "OP_DUP OP_HASH160 b71a338849fc69f195bd51506c8ef718ed1dd527 OP_EQUALVERIFY OP_CHECKSIG", "type": "pubkeyhash"}, "value": 0.176535, "n": 9}, {"scriptPubKey": {"reqSigs": 1, "hex": "76a91403ebfb7f9c0f9822dfa0a6018d0fe675435f32da88ac", "addresses": ["1MjivRuVXuxfHtETRcVzxpzhy2ecDHPdo"], "asm": "OP_DUP OP_HASH160 03ebfb7f9c0f9822dfa0a6018d0fe675435f32da OP_EQUALVERIFY OP_CHECKSIG", "type": "pubkeyhash"}, "value": 516.27726948, "n": 10}], "hex": "0100000001e82813c2215865adeef7d6e484638fa4868ec2f275c6a0023bdf888ec78d8148160000006b4830450221009e6081ba3ba9bd295e45dd7483937768f209bd745d202707ca38aaa77d59e54c02206bdaeccfbe69d2b2e790cb695c194721cd0952552ca26cb8a397fc33e2999a2001210294d49c4d4fd1b0547cf0393292aa65f66747e43ec3b5accf578172319ae126ffffffffff0b002f68590000000017a914a352a40a5b630eb0d8ddd67362796485f35c1a108740420f00000000001976a91431c039271b4d56292a8d837f69645cae3837579088acd00a156f000000001976a9146a8bd110461ea1b81f2133771e199802ee7f0d5888ac043c1401000000001976a914d51e7e74f5b35cbc31371f3b71a758be4b4a5a4b88ac7064b061000000001976a914472dc41752de6166eb715fa7d9f35f98e995bbb488ac0d3eb1c40000000017a91405967dc18fcba45edc8eeb74728dc649bcafc650877010f2050000000017a91422be2a4e31a3dc65c0015cfd01a1649bbb9b94e887d49ced2d0000000017a914eb71d47b8ede554eab9a36db990642f54c19bf5e87b01df5050000000017a914bb9d8c5d5f05800a432fae163368bed49173005287fc5e0d01000000001976a914b71a338849fc69f195bd51506c8ef718ed1dd52788ac649840050c0000001976a91403ebfb7f9c0f9822dfa0a6018d0fe675435f32da88ac00000000", "vin": [{"sequence": 4294967295, "scriptSig": {"hex": "4830450221009e6081ba3ba9bd295e45dd7483937768f209bd745d202707ca38aaa77d59e54c02206bdaeccfbe69d2b2e790cb695c194721cd0952552ca26cb8a397fc33e2999a2001210294d49c4d4fd1b0547cf0393292aa65f66747e43ec3b5accf578172319ae126ff", "asm": "30450221009e6081ba3ba9bd295e45dd7483937768f209bd745d202707ca38aaa77d59e54c02206bdaeccfbe69d2b2e790cb695c194721cd0952552ca26cb8a397fc33e2999a20[ALL] 0294d49c4d4fd1b0547cf0393292aa65f66747e43ec3b5accf578172319ae126ff"}, "vout": 22, "txid": "48818dc78e88df3b02a0c675f2c28e86a48f6384e4d6f7eead655821c21328e8"}], "txid": "ba8a3a915257e38d94e003e5f8d41d40270fdb9d39e57b63b241932ec9dcba21", "blocktime": 1537875543, "version": 1, "confirmations": 11464, "time": 1537875543, "locktime": 0, "vsize": 522, "size": 522}