{"hash": "ba8bb8b3be63f0894ab43da65784b0e83e721f4335016d1e5531f5348fa62cba", "blockhash": "00000000000000000018f53835495a110e01622372bf6ae95dc86f2b0ab887b0", "vout": [{"scriptPubKey": {"reqSigs": 1, "hex": "76a914e4e326d7750fc5b2bb3f2c461d4f1cef56b96ac488ac", "addresses": ["1MsFBWvSqtQKZJ9WrDCYNrMVCiQgY9NqyZ"], "asm": "OP_DUP OP_HASH160 e4e326d7750fc5b2bb3f2c461d4f1cef56b96ac4 OP_EQUALVERIFY OP_CHECKSIG", "type": "pubkeyhash"}, "value": 0.001, "n": 0}, {"scriptPubKey": {"reqSigs": 1, "hex": "76a91416e7b8357047ba9f1f108a294024c3231b0bbded88ac", "addresses": ["1367TNvMPbF7ufHiryckRyGke8ymnLmpqF"], "asm": "OP_DUP OP_HASH160 16e7b8357047ba9f1f108a294024c3231b0bbded OP_EQUALVERIFY OP_CHECKSIG", "type": "pubkeyhash"}, "value": 0.00286822, "n": 1}], "hex": "01000000010621678862710ba7cab72a09fd1ad21b695e7a73b52aeff3ebc2af5400205538000000006b483045022100a50137ede4be74e9c2746b9ec20868664763fb14b8d2ed7477dddac66ac6e85002200ca4176cb6172f1973d09fcda8fcbf0e95d2d489ab818c1c9f73e78d42a005fd012102514254a30b03347702b7da7fc84fa980b18e8745d938c42bd54371b4507faa1affffffff02a0860100000000001976a914e4e326d7750fc5b2bb3f2c461d4f1cef56b96ac488ac66600400000000001976a91416e7b8357047ba9f1f108a294024c3231b0bbded88ac00000000", "vin": [{"sequence": 4294967295, "scriptSig": {"hex": "483045022100a50137ede4be74e9c2746b9ec20868664763fb14b8d2ed7477dddac66ac6e85002200ca4176cb6172f1973d09fcda8fcbf0e95d2d489ab818c1c9f73e78d42a005fd012102514254a30b03347702b7da7fc84fa980b18e8745d938c42bd54371b4507faa1a", "asm": "3045022100a50137ede4be74e9c2746b9ec20868664763fb14b8d2ed7477dddac66ac6e85002200ca4176cb6172f1973d09fcda8fcbf0e95d2d489ab818c1c9f73e78d42a005fd[ALL] 02514254a30b03347702b7da7fc84fa980b18e8745d938c42bd54371b4507faa1a"}, "vout": 0, "txid": "3855200054afc2ebf3ef2ab5737a5e691bd21afd092ab7caa70b716288672106"}], "txid": "ba8bb8b3be63f0894ab43da65784b0e83e721f4335016d1e5531f5348fa62cba", "blocktime": 1537870928, "version": 1, "confirmations": 11514, "time": 1537870928, "locktime": 0, "vsize": 226, "size": 226}