{"hash": "ba93240282972c82f491e6d21c1d0e086746b7fcc2b16a7b8602057f0e9f029d", "blockhash": "00000000000000000017f5eb5941039fbcee6240d03bc1f2f8e35350df66a1d8", "vout": [{"scriptPubKey": {"reqSigs": 1, "hex": "76a9147ef79a55a62d6783021aa6a1dd1e6d5dbb43f95a88ac", "addresses": ["1CaLkvLYAxwYfxpGDxfcou6LyeVU2Vrzva"], "asm": "OP_DUP OP_HASH160 7ef79a55a62d6783021aa6a1dd1e6d5dbb43f95a OP_EQUALVERIFY OP_CHECKSIG", "type": "pubkeyhash"}, "value": 0.007834, "n": 0}, {"scriptPubKey": {"reqSigs": 1, "hex": "76a914952c41fb0f4646ca0595a80d21b5f64f1acb3c7d88ac", "addresses": ["1EbkhfXRk3rFYwZJ44vQ2aprZcw1KCaYYo"], "asm": "OP_DUP OP_HASH160 952c41fb0f4646ca0595a80d21b5f64f1acb3c7d OP_EQUALVERIFY OP_CHECKSIG", "type": "pubkeyhash"}, "value": 0.01066877, "n": 1}], "hex": "01000000011576d42b337a366afbb5a0c5cef3b8f57b57a73f751b741043460b5d731b7240010000008b48304502210083ffb6fee97ab01f24baecfc825db38717658d7fe2773024791f7947db1d993102203c735b1f5698e023a0037705e853a0e79e69d8c580c6ed5ca2d977ac17ba267b01410444855895fe2b6b6373bc3da0136b5eb1fe3c9eb5facf785d3677440fddc86e87d92352374b9825ea10a74ab8cdcb84afa4495f6b25b4a88296844765940db193fdffffff0228f40b00000000001976a9147ef79a55a62d6783021aa6a1dd1e6d5dbb43f95a88ac7d471000000000001976a914952c41fb0f4646ca0595a80d21b5f64f1acb3c7d88ac15490800", "vin": [{"sequence": 4294967293, "scriptSig": {"hex": "48304502210083ffb6fee97ab01f24baecfc825db38717658d7fe2773024791f7947db1d993102203c735b1f5698e023a0037705e853a0e79e69d8c580c6ed5ca2d977ac17ba267b01410444855895fe2b6b6373bc3da0136b5eb1fe3c9eb5facf785d3677440fddc86e87d92352374b9825ea10a74ab8cdcb84afa4495f6b25b4a88296844765940db193", "asm": "304502210083ffb6fee97ab01f24baecfc825db38717658d7fe2773024791f7947db1d993102203c735b1f5698e023a0037705e853a0e79e69d8c580c6ed5ca2d977ac17ba267b[ALL] 0444855895fe2b6b6373bc3da0136b5eb1fe3c9eb5facf785d3677440fddc86e87d92352374b9825ea10a74ab8cdcb84afa4495f6b25b4a88296844765940db193"}, "vout": 1, "txid": "40721b735d0b464310741b753fa7577bf5b8f3cec5a0b5fb6a367a332bd47615"}], "txid": "ba93240282972c82f491e6d21c1d0e086746b7fcc2b16a7b8602057f0e9f029d", "blocktime": 1537874412, "version": 1, "confirmations": 11467, "time": 1537874412, "locktime": 542997, "vsize": 258, "size": 258}