{"hash": "ba968926f7baa90cac0e5ab170d16b31d8f1ddf7b006e5c3df4cea6011e5a109", "blockhash": "0000000000000000000dcc0f55137456b1a82d3642486a52398922ac4d620174", "vout": [{"scriptPubKey": {"reqSigs": 1, "hex": "76a914506c8c909bb9bcf0645c46ee9b38c2cbe508ff6d88ac", "addresses": ["18LF6UCBfBoBRonFDmLZVQBduEAoMywPp1"], "asm": "OP_DUP OP_HASH160 506c8c909bb9bcf0645c46ee9b38c2cbe508ff6d OP_EQUALVERIFY OP_CHECKSIG", "type": "pubkeyhash"}, "value": 5.46e-06, "n": 0}, {"scriptPubKey": {"reqSigs": 1, "hex": "a9143f4eecba122ad73039d481c8d37f99cb4f887cd887", "addresses": ["37Tm3Qz8Zw2VJrheUUhArDAoq58S6YrS3g"], "asm": "OP_HASH160 3f4eecba122ad73039d481c8d37f99cb4f887cd8 OP_EQUAL", "type": "scripthash"}, "value": 0.99994908, "n": 1}, {"scriptPubKey": {"type": "nulldata", "hex": "6a146f6d6e69000000000000001f00000002c43d8260", "asm": "OP_RETURN 6f6d6e69000000000000001f00000002c43d8260"}, "value": 0.0, "n": 2}], "hex": "01000000010c641dc742c9be3a5f4b4506a62ed1dcfee44fd499e291f2fdc26ba5452a397601000000fdfe00004830450221009efc2ec950a2dc44f51047f91b12ccf53bd7fdbbdfd58d7b12d64c6dfa3160d202206fd6619e33793e9523980ce2989366bf5d03a84b0959d00befd359ba28e2979901483045022100fe653dc547d63107e1d6f99a66ea49189d0840b7ffd8c9a8eee7a834d9200ce402207c88547cd53be6187716877ddab43c9ee4ffeb08ea3aa7897ea5898251bd2d5a014c6952210246ccf4de0c54cc7f3354cdd993c2c50cf965fd82238b89659fbd73a1b4bf05a121024fc59f72272a897fe43803374969f396058152fe4765a8d15216f94624257b1b21022593bc69ecbf3bbcc3c58082267cb49dadaf4ca8dbf1b2297338a9d628c4297653aeffffffff0322020000000000001976a914506c8c909bb9bcf0645c46ee9b38c2cbe508ff6d88ac1ccdf5050000000017a9143f4eecba122ad73039d481c8d37f99cb4f887cd8870000000000000000166a146f6d6e69000000000000001f00000002c43d826000000000", "vin": [{"sequence": 4294967295, "scriptSig": {"hex": "004830450221009efc2ec950a2dc44f51047f91b12ccf53bd7fdbbdfd58d7b12d64c6dfa3160d202206fd6619e33793e9523980ce2989366bf5d03a84b0959d00befd359ba28e2979901483045022100fe653dc547d63107e1d6f99a66ea49189d0840b7ffd8c9a8eee7a834d9200ce402207c88547cd53be6187716877ddab43c9ee4ffeb08ea3aa7897ea5898251bd2d5a014c6952210246ccf4de0c54cc7f3354cdd993c2c50cf965fd82238b89659fbd73a1b4bf05a121024fc59f72272a897fe43803374969f396058152fe4765a8d15216f94624257b1b21022593bc69ecbf3bbcc3c58082267cb49dadaf4ca8dbf1b2297338a9d628c4297653ae", "asm": "0 30450221009efc2ec950a2dc44f51047f91b12ccf53bd7fdbbdfd58d7b12d64c6dfa3160d202206fd6619e33793e9523980ce2989366bf5d03a84b0959d00befd359ba28e29799[ALL] 3045022100fe653dc547d63107e1d6f99a66ea49189d0840b7ffd8c9a8eee7a834d9200ce402207c88547cd53be6187716877ddab43c9ee4ffeb08ea3aa7897ea5898251bd2d5a[ALL] 52210246ccf4de0c54cc7f3354cdd993c2c50cf965fd82238b89659fbd73a1b4bf05a121024fc59f72272a897fe43803374969f396058152fe4765a8d15216f94624257b1b21022593bc69ecbf3bbcc3c58082267cb49dadaf4ca8dbf1b2297338a9d628c4297653ae"}, "vout": 1, "txid": "76392a45a56bc2fdf291e299d44fe4fedcd12ea606454b5f3abec942c71d640c"}], "txid": "ba968926f7baa90cac0e5ab170d16b31d8f1ddf7b006e5c3df4cea6011e5a109", "blocktime": 1537870268, "version": 1, "confirmations": 11517, "time": 1537870268, "locktime": 0, "vsize": 404, "size": 404}