{"hash": "ba981d21a08ac6941886ec79e8621f7e30617885607c9e118a16997a65b7cbe1", "blockhash": "000000000000000000022b45ed06c6f4ccd3cf7fb5ba4856ebd2e58215665228", "vout": [{"scriptPubKey": {"reqSigs": 1, "hex": "76a914a250d3d41cf3d1d6a31ba591fbadd3f50b67e49388ac", "addresses": ["1FoFJ4ryXdpGvRYYxBrbYjJqCQM75XWg4z"], "asm": "OP_DUP OP_HASH160 a250d3d41cf3d1d6a31ba591fbadd3f50b67e493 OP_EQUALVERIFY OP_CHECKSIG", "type": "pubkeyhash"}, "value": 0.04320956, "n": 0}, {"scriptPubKey": {"reqSigs": 1, "hex": "76a91447882a400d51c020e1ba84513d7f72f52e202ca988ac", "addresses": ["17XE6XuJiT53TCJp7U4TTBTyAkmjjRygHk"], "asm": "OP_DUP OP_HASH160 47882a400d51c020e1ba84513d7f72f52e202ca9 OP_EQUALVERIFY OP_CHECKSIG", "type": "pubkeyhash"}, "value": 0.077955, "n": 1}], "hex": "0100000001ce67e29e60843aaa17d93cad29dc8c415ae299fa232e51db808d3e3b11219745010000006a47304402202e2e4b3af3b9f33139c54754fda9cfe318c6a8bc3a7bcec3f7baf7a4529f9ac2022076bee46d92b677bbcea3efdd5e91c9e88625ae208d17a67aadd9cad2d1daa4860121033670ef629a5f8684d9e31d17bec2d3ae81675789b5eed058cdad1dbae036d32effffffff02bcee4100000000001976a914a250d3d41cf3d1d6a31ba591fbadd3f50b67e49388ac2cf37600000000001976a91447882a400d51c020e1ba84513d7f72f52e202ca988ac00000000", "vin": [{"sequence": 4294967295, "scriptSig": {"hex": "47304402202e2e4b3af3b9f33139c54754fda9cfe318c6a8bc3a7bcec3f7baf7a4529f9ac2022076bee46d92b677bbcea3efdd5e91c9e88625ae208d17a67aadd9cad2d1daa4860121033670ef629a5f8684d9e31d17bec2d3ae81675789b5eed058cdad1dbae036d32e", "asm": "304402202e2e4b3af3b9f33139c54754fda9cfe318c6a8bc3a7bcec3f7baf7a4529f9ac2022076bee46d92b677bbcea3efdd5e91c9e88625ae208d17a67aadd9cad2d1daa486[ALL] 033670ef629a5f8684d9e31d17bec2d3ae81675789b5eed058cdad1dbae036d32e"}, "vout": 1, "txid": "459721113b3e8d80db512e23fa99e25a418cdc29ad3cd917aa3a84609ee267ce"}], "txid": "ba981d21a08ac6941886ec79e8621f7e30617885607c9e118a16997a65b7cbe1", "blocktime": 1537869901, "version": 1, "confirmations": 11524, "time": 1537869901, "locktime": 0, "vsize": 225, "size": 225}