{"hash": "00f2999e65313b483a1c6984e477f7a4c3018ba9788f290e25d1aba55f8473ef", "blockhash": "000000000000000000022b45ed06c6f4ccd3cf7fb5ba4856ebd2e58215665228", "vout": [{"scriptPubKey": {"reqSigs": 1, "hex": "001417d3e2970e75f0a3d7fa7d6d56185eda3cbb07d9", "addresses": ["bc1qzlf799cwwhc284l604k4vxz7mg7tkp7et9nda7"], "asm": "0 17d3e2970e75f0a3d7fa7d6d56185eda3cbb07d9", "type": "witness_v0_keyhash"}, "value": 0.00026934, "n": 0}, {"scriptPubKey": {"reqSigs": 1, "hex": "76a914d8b23feb41abff9b799fad67c8eca19b7ba2c67e88ac", "addresses": ["1LknVSYrLFJUCbASisjjuRQbD5sLCXc9HE"], "asm": "OP_DUP OP_HASH160 d8b23feb41abff9b799fad67c8eca19b7ba2c67e OP_EQUALVERIFY OP_CHECKSIG", "type": "pubkeyhash"}, "value": 0.0015756, "n": 1}], "hex": "010000000001012db96ae792594150446882665f53a8442510c18e506e20f33761fabfd30f23f400000000171600141876862676f9dee64bad9cfa13a21bc222574a34ffffffff02366900000000000016001417d3e2970e75f0a3d7fa7d6d56185eda3cbb07d978670200000000001976a914d8b23feb41abff9b799fad67c8eca19b7ba2c67e88ac02483045022100d8b7992d230a30bfafe003be6309e337dc398db4212e9d13dcb1a02ed9c9fa0c02202d07158c9becc94303a7c66cef768c1340ffdcd137d5e80dac3f3e4f1e92fb7e01210278950e6b5eb053fb5de7f851fb03b7fe8b0596ac4348de14b2db4b5e4fdc681100000000", "vin": [{"txinwitness": ["3045022100d8b7992d230a30bfafe003be6309e337dc398db4212e9d13dcb1a02ed9c9fa0c02202d07158c9becc94303a7c66cef768c1340ffdcd137d5e80dac3f3e4f1e92fb7e01", "0278950e6b5eb053fb5de7f851fb03b7fe8b0596ac4348de14b2db4b5e4fdc6811"], "sequence": 4294967295, "scriptSig": {"hex": "1600141876862676f9dee64bad9cfa13a21bc222574a34", "asm": "00141876862676f9dee64bad9cfa13a21bc222574a34"}, "vout": 0, "txid": "f4230fd3bffa6137f3206e508ec1102544a8535f6682684450415992e76ab92d"}], "txid": "baa0ef3c2c6385d56eed0da5bb7a5c7a902a393eab2608f4f9f6ba4d34ce8aef", "blocktime": 1537869901, "version": 1, "confirmations": 11523, "time": 1537869901, "locktime": 0, "vsize": 167, "size": 249}