{"hash": "baa1927104f91cb5794e3a71d0811ccbbe65c648792bf9738da6cb550f3fa115", "blockhash": "0000000000000000001e0dab787dd257d1dbfcb92a98c2207d5e1078be1f4165", "vout": [{"scriptPubKey": {"reqSigs": 1, "hex": "a91469f373a890da3efbfdf67fd480524fb14cec8b7187", "addresses": ["3BMEX1hiz2S2ThxEyjMiLDQCno8J3hvpqs"], "asm": "OP_HASH160 69f373a890da3efbfdf67fd480524fb14cec8b71 OP_EQUAL", "type": "scripthash"}, "value": 0.03454, "n": 0}, {"scriptPubKey": {"reqSigs": 1, "hex": "76a91408e7184e8eab4d8f578b9f12f49662e961d5ad9b88ac", "addresses": ["1p5FJ1EQkHuZdtrrYZpsaiy6ziostKnPt"], "asm": "OP_DUP OP_HASH160 08e7184e8eab4d8f578b9f12f49662e961d5ad9b OP_EQUALVERIFY OP_CHECKSIG", "type": "pubkeyhash"}, "value": 0.0154264, "n": 1}], "hex": "02000000011b8a3a956466d37101bf64af1b26b1fb411c7cbc86e82d6642b93aa4f7fdf517000000006a4730440220741cd3dc5ea5edbf47d247928f186eeec1424e4f67e8495589da7187f839514402200ee953f093921beca6849e17c9eaa75f53a10f989531b3b936abd8d52a5fda1c012102b46b0c93446ae59386393bf7fbf1947433d2ed8bd494252e977ae7e94d245737feffffff0230b434000000000017a91469f373a890da3efbfdf67fd480524fb14cec8b7187f0891700000000001976a91408e7184e8eab4d8f578b9f12f49662e961d5ad9b88ac12490800", "vin": [{"sequence": 4294967294, "scriptSig": {"hex": "4730440220741cd3dc5ea5edbf47d247928f186eeec1424e4f67e8495589da7187f839514402200ee953f093921beca6849e17c9eaa75f53a10f989531b3b936abd8d52a5fda1c012102b46b0c93446ae59386393bf7fbf1947433d2ed8bd494252e977ae7e94d245737", "asm": "30440220741cd3dc5ea5edbf47d247928f186eeec1424e4f67e8495589da7187f839514402200ee953f093921beca6849e17c9eaa75f53a10f989531b3b936abd8d52a5fda1c[ALL] 02b46b0c93446ae59386393bf7fbf1947433d2ed8bd494252e977ae7e94d245737"}, "vout": 0, "txid": "17f5fdf7a43ab942662de886bc7c1c41fbb1261baf64bf0171d36664953a8a1b"}], "txid": "baa1927104f91cb5794e3a71d0811ccbbe65c648792bf9738da6cb550f3fa115", "blocktime": 1537872475, "version": 2, "confirmations": 11486, "time": 1537872475, "locktime": 542994, "vsize": 223, "size": 223}