{"hash": "baadc76ffaa4a32828f762c1b543e732b441830116069a36d42189fe27ac45f4", "blockhash": "000000000000000000022b45ed06c6f4ccd3cf7fb5ba4856ebd2e58215665228", "vout": [{"scriptPubKey": {"reqSigs": 1, "hex": "a914176d44426e55564e05d7b394263f5472e90a1f0387", "addresses": ["33ptMwBc686MySQL4BM7o5QxdJ5hibjdmQ"], "asm": "OP_HASH160 176d44426e55564e05d7b394263f5472e90a1f03 OP_EQUAL", "type": "scripthash"}, "value": 0.00100008, "n": 0}, {"scriptPubKey": {"reqSigs": 1, "hex": "76a91440b7c740424798ae51e3a6627e0560a3e963558c88ac", "addresses": ["16uCQRJS15436dQmV9VrmC17Njw7hEnTBd"], "asm": "OP_DUP OP_HASH160 40b7c740424798ae51e3a6627e0560a3e963558c OP_EQUALVERIFY OP_CHECKSIG", "type": "pubkeyhash"}, "value": 0.16465797, "n": 1}], "hex": "010000000284cbed180796f69f40b0e6824279ae99ebca994141241bd4b320a647796c6d3a000000006a47304402203eb084d6329fbb553ebd8b03e7f6f0c1556f8f42acda5fae629fd3208100fa650220560173daf06d6bfd01bc9265f8b5cb7096151a3b2e7047c72f9c565abb53966601210309d85221f4e84c5c5284853b6ce565a3afcaff98d9459e63e0ab54999f6f3cc3ffffffff45c66f2314770162c9aeccc00d567cd1e258727d85aecdc90f5221baecb47fea010000006b483045022100e28714aec57a7c5c463b2462c058cf4754a26dc03125bcc56c174b411074340c0220453e822a98f5b7160a0e56b096e8a6042598c701570c8299a5e2436a514edc1c01210309d85221f4e84c5c5284853b6ce565a3afcaff98d9459e63e0ab54999f6f3cc3ffffffff02a88601000000000017a914176d44426e55564e05d7b394263f5472e90a1f0387853ffb00000000001976a91440b7c740424798ae51e3a6627e0560a3e963558c88ac00000000", "vin": [{"sequence": 4294967295, "scriptSig": {"hex": "47304402203eb084d6329fbb553ebd8b03e7f6f0c1556f8f42acda5fae629fd3208100fa650220560173daf06d6bfd01bc9265f8b5cb7096151a3b2e7047c72f9c565abb53966601210309d85221f4e84c5c5284853b6ce565a3afcaff98d9459e63e0ab54999f6f3cc3", "asm": "304402203eb084d6329fbb553ebd8b03e7f6f0c1556f8f42acda5fae629fd3208100fa650220560173daf06d6bfd01bc9265f8b5cb7096151a3b2e7047c72f9c565abb539666[ALL] 0309d85221f4e84c5c5284853b6ce565a3afcaff98d9459e63e0ab54999f6f3cc3"}, "vout": 0, "txid": "3a6d6c7947a620b3d41b24414199caeb99ae794282e6b0409ff6960718edcb84"}, {"sequence": 4294967295, "scriptSig": {"hex": "483045022100e28714aec57a7c5c463b2462c058cf4754a26dc03125bcc56c174b411074340c0220453e822a98f5b7160a0e56b096e8a6042598c701570c8299a5e2436a514edc1c01210309d85221f4e84c5c5284853b6ce565a3afcaff98d9459e63e0ab54999f6f3cc3", "asm": "3045022100e28714aec57a7c5c463b2462c058cf4754a26dc03125bcc56c174b411074340c0220453e822a98f5b7160a0e56b096e8a6042598c701570c8299a5e2436a514edc1c[ALL] 0309d85221f4e84c5c5284853b6ce565a3afcaff98d9459e63e0ab54999f6f3cc3"}, "vout": 1, "txid": "ea7fb4ecba21520fc9cdae857d7258e2d17c560dc0ccaec962017714236fc645"}], "txid": "baadc76ffaa4a32828f762c1b543e732b441830116069a36d42189fe27ac45f4", "blocktime": 1537869901, "version": 1, "confirmations": 11522, "time": 1537869901, "locktime": 0, "vsize": 371, "size": 371}