{"hash": "5adb485921d09a655e04975a1938cec3e2ab528116d9b1b69bc5a28c8ba6b544", "blockhash": "0000000000000000000dcc0f55137456b1a82d3642486a52398922ac4d620174", "vout": [{"scriptPubKey": {"reqSigs": 1, "hex": "a91463e3ad08d88c11d4a8a13f42114ebbcbc528bb3387", "addresses": ["3AoBZjae1dMfGfo4m4QVoZBg8gcC69dDvc"], "asm": "OP_HASH160 63e3ad08d88c11d4a8a13f42114ebbcbc528bb33 OP_EQUAL", "type": "scripthash"}, "value": 0.00037244, "n": 0}, {"scriptPubKey": {"reqSigs": 1, "hex": "a91408c364340a91e77e4376b26fdad3b5aedc5661f787", "addresses": ["32VMQ7Th4qGhbDYY68FZrfSF9hTbsPivgt"], "asm": "OP_HASH160 08c364340a91e77e4376b26fdad3b5aedc5661f7 OP_EQUAL", "type": "scripthash"}, "value": 0.08362144, "n": 1}], "hex": "010000000001018370de15dd2b29438a9932a199672fec515340c55dd7bf7248e88c524fe637bb010000002322002027561ef61439ff4994ea3793249bbb358319edb59fff63c1eeada48f299e81b5ffffffff027c9100000000000017a91463e3ad08d88c11d4a8a13f42114ebbcbc528bb3387a0987f000000000017a91408c364340a91e77e4376b26fdad3b5aedc5661f7870400483045022100cf388b79f9e3f486181c810ac5a00a79bcf41b76dc30e06f689962373b42846a022015431d3deb06414247f1611c7ae4a6eaaba7673a6dfb94b7be4a68d2a073c66601483045022100a8c461ae7a9330445032c6e42fd4f2b2c263299ca511acb21b3090914235e13002204c42c179bd93f028591c79f68f95f6a81c7f8f2c386f74b83cb163791f5cea8a0147522102f484437eae67e7d1f9cf7235bd52510c99f379408a1f6fe737011d4bc259358a2103871fc2ca08e6950b38867e8e6a0e94ee625223d3aa0df5c65f414c6d784467e252ae00000000", "vin": [{"txinwitness": ["", "3045022100cf388b79f9e3f486181c810ac5a00a79bcf41b76dc30e06f689962373b42846a022015431d3deb06414247f1611c7ae4a6eaaba7673a6dfb94b7be4a68d2a073c66601", "3045022100a8c461ae7a9330445032c6e42fd4f2b2c263299ca511acb21b3090914235e13002204c42c179bd93f028591c79f68f95f6a81c7f8f2c386f74b83cb163791f5cea8a01", "522102f484437eae67e7d1f9cf7235bd52510c99f379408a1f6fe737011d4bc259358a2103871fc2ca08e6950b38867e8e6a0e94ee625223d3aa0df5c65f414c6d784467e252ae"], "sequence": 4294967295, "scriptSig": {"hex": "22002027561ef61439ff4994ea3793249bbb358319edb59fff63c1eeada48f299e81b5", "asm": "002027561ef61439ff4994ea3793249bbb358319edb59fff63c1eeada48f299e81b5"}, "vout": 1, "txid": "bb37e64f528ce84872bfd75dc5405351ec2f6799a132998a43292bdd15de7083"}], "txid": "bab2289520fd7aa13f19165daff6421b0416a31bfb2a55977311b7e9a3c03cae", "blocktime": 1537870268, "version": 1, "confirmations": 11518, "time": 1537870268, "locktime": 0, "vsize": 206, "size": 372}