{"hash": "bab487fbba3833135bc1ffe8dc3e196c96e7d5a11c763103f953420e20d0965e", "blockhash": "00000000000000000018f53835495a110e01622372bf6ae95dc86f2b0ab887b0", "vout": [{"scriptPubKey": {"reqSigs": 1, "hex": "76a914dd2324a2aecf6b826a63a93d5899d75a1311a06988ac", "addresses": ["1MAGSBTxjYpU4KhLeypWVxbiVesau1qfgk"], "asm": "OP_DUP OP_HASH160 dd2324a2aecf6b826a63a93d5899d75a1311a069 OP_EQUALVERIFY OP_CHECKSIG", "type": "pubkeyhash"}, "value": 0.01, "n": 0}, {"scriptPubKey": {"reqSigs": 1, "hex": "76a9140d20933c1498fb19ed54b96333921fefc890164388ac", "addresses": ["12CQorXV8Y9xZRDpHoyhxe6Uosg5qUYQGg"], "asm": "OP_DUP OP_HASH160 0d20933c1498fb19ed54b96333921fefc8901643 OP_EQUALVERIFY OP_CHECKSIG", "type": "pubkeyhash"}, "value": 0.07595507, "n": 1}], "hex": "01000000018c9f96d93c46d9a7e0b9124ff0b3cae5a0ea5f3cfa5e00745e84557fb28e7ff4010000006b48304502210088f78b604df55e0a571325a30f41570ef28d0ab07f922afd926b60683104578002206b02a6f519ecb5238c1098edbb8c3a912be8575a96cd01cac2899f7ec48e8588012102e9003635e9804c926e44b480cbfdf2bf86e743bb425d1935a368f46ae62e5c02ffffffff0240420f00000000001976a914dd2324a2aecf6b826a63a93d5899d75a1311a06988acf3e57300000000001976a9140d20933c1498fb19ed54b96333921fefc890164388ac00000000", "vin": [{"sequence": 4294967295, "scriptSig": {"hex": "48304502210088f78b604df55e0a571325a30f41570ef28d0ab07f922afd926b60683104578002206b02a6f519ecb5238c1098edbb8c3a912be8575a96cd01cac2899f7ec48e8588012102e9003635e9804c926e44b480cbfdf2bf86e743bb425d1935a368f46ae62e5c02", "asm": "304502210088f78b604df55e0a571325a30f41570ef28d0ab07f922afd926b60683104578002206b02a6f519ecb5238c1098edbb8c3a912be8575a96cd01cac2899f7ec48e8588[ALL] 02e9003635e9804c926e44b480cbfdf2bf86e743bb425d1935a368f46ae62e5c02"}, "vout": 1, "txid": "f47f8eb27f55845e74005efa3c5feaa0e5cab3f04f12b9e0a7d9463cd9969f8c"}], "txid": "bab487fbba3833135bc1ffe8dc3e196c96e7d5a11c763103f953420e20d0965e", "blocktime": 1537870928, "version": 1, "confirmations": 11512, "time": 1537870928, "locktime": 0, "vsize": 226, "size": 226}