{"hash": "bab7ec9ffa520b85bff1095207d878a5b173035191a35c490dcbf145eebd724e", "blockhash": "00000000000000000017f5eb5941039fbcee6240d03bc1f2f8e35350df66a1d8", "vout": [{"scriptPubKey": {"reqSigs": 1, "hex": "76a91458d5de18bfed2d2834d9e9570df4bae9a2befdd488ac", "addresses": ["196iffHHTh1nERit4FNWDyUZAwmYJNnvQ1"], "asm": "OP_DUP OP_HASH160 58d5de18bfed2d2834d9e9570df4bae9a2befdd4 OP_EQUALVERIFY OP_CHECKSIG", "type": "pubkeyhash"}, "value": 4.84e-05, "n": 0}, {"scriptPubKey": {"reqSigs": 1, "hex": "76a914a4e57c0b73e3ef87b85c167e945fd22a32f00c2d88ac", "addresses": ["1G2tjKvTxL26ao2NpScb1ckuraySb8ifxt"], "asm": "OP_DUP OP_HASH160 a4e57c0b73e3ef87b85c167e945fd22a32f00c2d OP_EQUALVERIFY OP_CHECKSIG", "type": "pubkeyhash"}, "value": 0.44092662, "n": 1}], "hex": "0100000005a3470b01e3c08d4f91ac22588679a158fe016f8106878466bb35c16f8cf3d816010000006a47304402206b9ae19b5ffdf482251e10bbbc18856dc42b011b3970adb648e0ed5d3734ac3d02206c9f1eac99b828c8d8492b682e56f8704c56dfd93388ac9258bc19e10d9c75a9012102dea0f7da51141c5c496f946059d78f7e2b98761c21f1ef5aa84bdca0abef357bffffffffa32b105b3156fde03366b9e548ced030f40bc49548352b9216fc47cf4b602935010000006a4730440220481236746a0f333ea25189c09d7611c368c5f17c6f2f079f7f7448fb9ba59f8302200a68e8cba75c3b4f1519404a1ba295feb5fca3470176db0d1b47fbc3d467065d01210213a1c5e3a18ef1773c81406aa27c7e0318db49f891ab23779ddafc67834f9bddffffffffb409e33a1e3d4d349944271897b8bf09bf751f63e9fb7f408e6738a42b75646e010000006b483045022100e2317add8850fe47d3e583b753df114e6cfa393f6e68d9f942d9abce52b79d260220126f2aef92f246229ad02329993d6a7f7d808178e78eea59df8337e634fc0c99012102b56d1d264499d322b244a555c2715d215cd57f629f2dc89349e81024228c4ff0ffffffffed55abf66e05f42b3d51ed0b4e6b21504fdc111eda9e70b5d6dd693c785514d3000000006b4830450221008d6ec5a88ac32f42c797f9525b64570a0173c258974416aec3b1d8775b21711a02204928a0e4ec4a4329ba8106206112c1e0312cc4bb708a058ff673fe2f7174b2e6012103ec9df9150aecd88c334b99e5e4575c309e8cdd1d721586a29dcd03ca45ee2288ffffffffeba670cbb8990150626840709541cf83cd9bc1203143dd89281d7f6874a03cdc010000006b483045022100b47e2502096315a3ee496b80f4a9a6ca978ff60e58da320ef9ed0ac5e0bdb319022035f9b5b8416653ab6953277493b0dc1a65ac7298cd13fc8cffd861f9a99f92f001210213a1c5e3a18ef1773c81406aa27c7e0318db49f891ab23779ddafc67834f9bddffffffff02e8120000000000001976a91458d5de18bfed2d2834d9e9570df4bae9a2befdd488acf6cca002000000001976a914a4e57c0b73e3ef87b85c167e945fd22a32f00c2d88ac00000000", "vin": [{"sequence": 4294967295, "scriptSig": {"hex": "47304402206b9ae19b5ffdf482251e10bbbc18856dc42b011b3970adb648e0ed5d3734ac3d02206c9f1eac99b828c8d8492b682e56f8704c56dfd93388ac9258bc19e10d9c75a9012102dea0f7da51141c5c496f946059d78f7e2b98761c21f1ef5aa84bdca0abef357b", "asm": "304402206b9ae19b5ffdf482251e10bbbc18856dc42b011b3970adb648e0ed5d3734ac3d02206c9f1eac99b828c8d8492b682e56f8704c56dfd93388ac9258bc19e10d9c75a9[ALL] 02dea0f7da51141c5c496f946059d78f7e2b98761c21f1ef5aa84bdca0abef357b"}, "vout": 1, "txid": "16d8f38c6fc135bb66848706816f01fe58a179865822ac914f8dc0e3010b47a3"}, {"sequence": 4294967295, "scriptSig": {"hex": "4730440220481236746a0f333ea25189c09d7611c368c5f17c6f2f079f7f7448fb9ba59f8302200a68e8cba75c3b4f1519404a1ba295feb5fca3470176db0d1b47fbc3d467065d01210213a1c5e3a18ef1773c81406aa27c7e0318db49f891ab23779ddafc67834f9bdd", "asm": "30440220481236746a0f333ea25189c09d7611c368c5f17c6f2f079f7f7448fb9ba59f8302200a68e8cba75c3b4f1519404a1ba295feb5fca3470176db0d1b47fbc3d467065d[ALL] 0213a1c5e3a18ef1773c81406aa27c7e0318db49f891ab23779ddafc67834f9bdd"}, "vout": 1, "txid": "3529604bcf47fc16922b354895c40bf430d0ce48e5b96633e0fd56315b102ba3"}, {"sequence": 4294967295, "scriptSig": {"hex": "483045022100e2317add8850fe47d3e583b753df114e6cfa393f6e68d9f942d9abce52b79d260220126f2aef92f246229ad02329993d6a7f7d808178e78eea59df8337e634fc0c99012102b56d1d264499d322b244a555c2715d215cd57f629f2dc89349e81024228c4ff0", "asm": "3045022100e2317add8850fe47d3e583b753df114e6cfa393f6e68d9f942d9abce52b79d260220126f2aef92f246229ad02329993d6a7f7d808178e78eea59df8337e634fc0c99[ALL] 02b56d1d264499d322b244a555c2715d215cd57f629f2dc89349e81024228c4ff0"}, "vout": 1, "txid": "6e64752ba438678e407ffbe9631f75bf09bfb89718274499344d3d1e3ae309b4"}, {"sequence": 4294967295, "scriptSig": {"hex": "4830450221008d6ec5a88ac32f42c797f9525b64570a0173c258974416aec3b1d8775b21711a02204928a0e4ec4a4329ba8106206112c1e0312cc4bb708a058ff673fe2f7174b2e6012103ec9df9150aecd88c334b99e5e4575c309e8cdd1d721586a29dcd03ca45ee2288", "asm": "30450221008d6ec5a88ac32f42c797f9525b64570a0173c258974416aec3b1d8775b21711a02204928a0e4ec4a4329ba8106206112c1e0312cc4bb708a058ff673fe2f7174b2e6[ALL] 03ec9df9150aecd88c334b99e5e4575c309e8cdd1d721586a29dcd03ca45ee2288"}, "vout": 0, "txid": "d31455783c69ddd6b5709eda1e11dc4f50216b4e0bed513d2bf4056ef6ab55ed"}, {"sequence": 4294967295, "scriptSig": {"hex": "483045022100b47e2502096315a3ee496b80f4a9a6ca978ff60e58da320ef9ed0ac5e0bdb319022035f9b5b8416653ab6953277493b0dc1a65ac7298cd13fc8cffd861f9a99f92f001210213a1c5e3a18ef1773c81406aa27c7e0318db49f891ab23779ddafc67834f9bdd", "asm": "3045022100b47e2502096315a3ee496b80f4a9a6ca978ff60e58da320ef9ed0ac5e0bdb319022035f9b5b8416653ab6953277493b0dc1a65ac7298cd13fc8cffd861f9a99f92f0[ALL] 0213a1c5e3a18ef1773c81406aa27c7e0318db49f891ab23779ddafc67834f9bdd"}, "vout": 1, "txid": "dc3ca074687f1d2889dd433120c19bcd83cf419570406862500199b8cb70a6eb"}], "txid": "bab7ec9ffa520b85bff1095207d878a5b173035191a35c490dcbf145eebd724e", "blocktime": 1537874412, "version": 1, "confirmations": 11468, "time": 1537874412, "locktime": 0, "vsize": 816, "size": 816}