{"hash": "bab8720e6f71201f88699bf8942ee5b60ce3a171e0e524ca2028a575eeb04947", "blockhash": "0000000000000000000e13cef7c366c0283d82e591d1acd082e914b08063cdf1", "vout": [{"scriptPubKey": {"reqSigs": 1, "hex": "76a9146dcd88a210d2c6854b9ac1f6e732136dbcbf1f7888ac", "addresses": ["1B1aseHrr6cx8VVTvnULW8LcE5WKHCZQHn"], "asm": "OP_DUP OP_HASH160 6dcd88a210d2c6854b9ac1f6e732136dbcbf1f78 OP_EQUALVERIFY OP_CHECKSIG", "type": "pubkeyhash"}, "value": 7.596e-05, "n": 0}, {"scriptPubKey": {"reqSigs": 1, "hex": "a914c3527ed0ffee2cd1a756974adf04af617737690087", "addresses": ["3KVnWq6AN83BrWbLWyxAxTinapXruWZADK"], "asm": "OP_HASH160 c3527ed0ffee2cd1a756974adf04af6177376900 OP_EQUAL", "type": "scripthash"}, "value": 0.0197, "n": 1}], "hex": "0100000005a8aecb10cc7e520b8e9352022341fcc50ba1a588155f84baa646e0dc2fa6cf38010000006a473044022036c6b04015c535f4c735ade40b10dbfc8c6486dfd5441fd8249caa1f1e7ca3bb02201001042eef8ace51ae7752bc403da05c20d2d211e1f30a659d4bf10f685727530121029fbedaf0962546196fb712b1cf76bfe782de99a40158191655ab2dc5ccd5835bffffffff5af941f7ea39b186ceb52740a8488a035316c5bc0fb3ee91c7d485ec61e0da66000000006a473044022050d66fcd76f3f2b2b46d8d1f7041d7d6077720ccc3b3219a6fd98d52630dc06c022054f76420e5db27df19631d6d551916fa45daf6c9d121f1b2c7ba6ad58859004d0121029fbedaf0962546196fb712b1cf76bfe782de99a40158191655ab2dc5ccd5835bffffffffcf841838acb9f4d9528b728f124084c6613aff3ff35011cec1969883055a597a400000006b4830450221008d8b6f3576083b5892e5e8870849e238273d28162e34b65e806071bd7b573fcb02206729ef3cc3def1772d492625e173b1605ad895cb82451f458c0eabe3bb9cf1a50121028737bd64e265847910f472e08702612fd3728b0e600dc57493e2902d65173ae4ffffffff56f02c7dd0f254570555bf370f550789ec41c3e83c08ea775af6d8639b129c7e010000006b483045022100a347ded1139eab0a3cdd09afa27654f6a143a1b059c8c4e52ad3dc86665a630602206188b59359fa9291c51d64bc13741b31be7cb2ec34f85a9c63518c7c5281f5100121029fbedaf0962546196fb712b1cf76bfe782de99a40158191655ab2dc5ccd5835bffffffff0bed50bfb1b10dbde50bbf9920166ce0dd618de4d68559c5fb65fcc7e42673af000000006a473044022077ecca571f6ee5e5b066f3bb96f111ab5e1b545f7e173b72a301f4dd4a7100b70220184e26f47e11eb42119e93e4055e52ca16133d848406e96c6d386d21df340e550121029fbedaf0962546196fb712b1cf76bfe782de99a40158191655ab2dc5ccd5835bffffffff02ac1d0000000000001976a9146dcd88a210d2c6854b9ac1f6e732136dbcbf1f7888ac500f1e000000000017a914c3527ed0ffee2cd1a756974adf04af61773769008700000000", "vin": [{"sequence": 4294967295, "scriptSig": {"hex": "473044022036c6b04015c535f4c735ade40b10dbfc8c6486dfd5441fd8249caa1f1e7ca3bb02201001042eef8ace51ae7752bc403da05c20d2d211e1f30a659d4bf10f685727530121029fbedaf0962546196fb712b1cf76bfe782de99a40158191655ab2dc5ccd5835b", "asm": "3044022036c6b04015c535f4c735ade40b10dbfc8c6486dfd5441fd8249caa1f1e7ca3bb02201001042eef8ace51ae7752bc403da05c20d2d211e1f30a659d4bf10f68572753[ALL] 029fbedaf0962546196fb712b1cf76bfe782de99a40158191655ab2dc5ccd5835b"}, "vout": 1, "txid": "38cfa62fdce046a6ba845f1588a5a10bc5fc41230252938e0b527ecc10cbaea8"}, {"sequence": 4294967295, "scriptSig": {"hex": "473044022050d66fcd76f3f2b2b46d8d1f7041d7d6077720ccc3b3219a6fd98d52630dc06c022054f76420e5db27df19631d6d551916fa45daf6c9d121f1b2c7ba6ad58859004d0121029fbedaf0962546196fb712b1cf76bfe782de99a40158191655ab2dc5ccd5835b", "asm": "3044022050d66fcd76f3f2b2b46d8d1f7041d7d6077720ccc3b3219a6fd98d52630dc06c022054f76420e5db27df19631d6d551916fa45daf6c9d121f1b2c7ba6ad58859004d[ALL] 029fbedaf0962546196fb712b1cf76bfe782de99a40158191655ab2dc5ccd5835b"}, "vout": 0, "txid": "66dae061ec85d4c791eeb30fbcc51653038a48a84027b5ce86b139eaf741f95a"}, {"sequence": 4294967295, "scriptSig": {"hex": "4830450221008d8b6f3576083b5892e5e8870849e238273d28162e34b65e806071bd7b573fcb02206729ef3cc3def1772d492625e173b1605ad895cb82451f458c0eabe3bb9cf1a50121028737bd64e265847910f472e08702612fd3728b0e600dc57493e2902d65173ae4", "asm": "30450221008d8b6f3576083b5892e5e8870849e238273d28162e34b65e806071bd7b573fcb02206729ef3cc3def1772d492625e173b1605ad895cb82451f458c0eabe3bb9cf1a5[ALL] 028737bd64e265847910f472e08702612fd3728b0e600dc57493e2902d65173ae4"}, "vout": 64, "txid": "7a595a05839896c1ce1150f33fff3a61c68440128f728b52d9f4b9ac381884cf"}, {"sequence": 4294967295, "scriptSig": {"hex": "483045022100a347ded1139eab0a3cdd09afa27654f6a143a1b059c8c4e52ad3dc86665a630602206188b59359fa9291c51d64bc13741b31be7cb2ec34f85a9c63518c7c5281f5100121029fbedaf0962546196fb712b1cf76bfe782de99a40158191655ab2dc5ccd5835b", "asm": "3045022100a347ded1139eab0a3cdd09afa27654f6a143a1b059c8c4e52ad3dc86665a630602206188b59359fa9291c51d64bc13741b31be7cb2ec34f85a9c63518c7c5281f510[ALL] 029fbedaf0962546196fb712b1cf76bfe782de99a40158191655ab2dc5ccd5835b"}, "vout": 1, "txid": "7e9c129b63d8f65a77ea083ce8c341ec8907550f37bf55055754f2d07d2cf056"}, {"sequence": 4294967295, "scriptSig": {"hex": "473044022077ecca571f6ee5e5b066f3bb96f111ab5e1b545f7e173b72a301f4dd4a7100b70220184e26f47e11eb42119e93e4055e52ca16133d848406e96c6d386d21df340e550121029fbedaf0962546196fb712b1cf76bfe782de99a40158191655ab2dc5ccd5835b", "asm": "3044022077ecca571f6ee5e5b066f3bb96f111ab5e1b545f7e173b72a301f4dd4a7100b70220184e26f47e11eb42119e93e4055e52ca16133d848406e96c6d386d21df340e55[ALL] 029fbedaf0962546196fb712b1cf76bfe782de99a40158191655ab2dc5ccd5835b"}, "vout": 0, "txid": "af7326e4c7fc65fbc55985d6e48d61dde06c162099bf0be5bd0db1b1bf50ed0b"}], "txid": "bab8720e6f71201f88699bf8942ee5b60ce3a171e0e524ca2028a575eeb04947", "blocktime": 1537871767, "version": 1, "confirmations": 11495, "time": 1537871767, "locktime": 0, "vsize": 813, "size": 813}