{"hash": "baba902ca025b059440ecf57fb0768cb7666a569830b18a91ea1dced97a4cf65", "blockhash": "0000000000000000000dcc0f55137456b1a82d3642486a52398922ac4d620174", "vout": [{"scriptPubKey": {"reqSigs": 1, "hex": "76a914fac2bb22c3228f0606f745c41dd6ccdffaf9b36c88ac", "addresses": ["1PruD74y3mnt3vDqDuJkZfcDwDHffAEVM6"], "asm": "OP_DUP OP_HASH160 fac2bb22c3228f0606f745c41dd6ccdffaf9b36c OP_EQUALVERIFY OP_CHECKSIG", "type": "pubkeyhash"}, "value": 0.00027318, "n": 0}, {"scriptPubKey": {"reqSigs": 1, "hex": "76a914de9e93f3c0c997054b13021e73067bd0782cf8ca88ac", "addresses": ["1MJ6ymvwgnu2iMbm2MbmLE4ULmPMyZ1Mej"], "asm": "OP_DUP OP_HASH160 de9e93f3c0c997054b13021e73067bd0782cf8ca OP_EQUALVERIFY OP_CHECKSIG", "type": "pubkeyhash"}, "value": 0.00037, "n": 1}], "hex": "010000000296ef9639db45c1891fa44591efd730c2d5a6a031faaab201637bbdb1f41bb195140000006a47304402207290a09503cef983cae84bc049618bcc753241e23116a518acd19f29e10004f002205169507fc08d0750140a0dbdd48d817f99a0eac931b5e8a29aaf6cb3cdadb599012103d303e41a88be91ac559d853b3218d0ef150ae28e28756f33281b78ac9610c4c3ffffffffb18c2ba80117b5578a2f8b56c1b98f6dbed50b452e15ba6b4d3ce47de7039dee000000006b483045022100fb42ca6742ed930bd01f0b75e8243b6e8990b42adbae5fe7aeb81281938bfe8302202bfd11c8f9e6203e8aac0269af1eb8f01230e7d5cd12311e94c1a2079676c7f2012102c94039ae04985e990a5c64150d7ae6fc60b3318bde1cd3c602b2e64fabf92614ffffffff02b66a0000000000001976a914fac2bb22c3228f0606f745c41dd6ccdffaf9b36c88ac88900000000000001976a914de9e93f3c0c997054b13021e73067bd0782cf8ca88ac00000000", "vin": [{"sequence": 4294967295, "scriptSig": {"hex": "47304402207290a09503cef983cae84bc049618bcc753241e23116a518acd19f29e10004f002205169507fc08d0750140a0dbdd48d817f99a0eac931b5e8a29aaf6cb3cdadb599012103d303e41a88be91ac559d853b3218d0ef150ae28e28756f33281b78ac9610c4c3", "asm": "304402207290a09503cef983cae84bc049618bcc753241e23116a518acd19f29e10004f002205169507fc08d0750140a0dbdd48d817f99a0eac931b5e8a29aaf6cb3cdadb599[ALL] 03d303e41a88be91ac559d853b3218d0ef150ae28e28756f33281b78ac9610c4c3"}, "vout": 20, "txid": "95b11bf4b1bd7b6301b2aafa31a0a6d5c230d7ef9145a41f89c145db3996ef96"}, {"sequence": 4294967295, "scriptSig": {"hex": "483045022100fb42ca6742ed930bd01f0b75e8243b6e8990b42adbae5fe7aeb81281938bfe8302202bfd11c8f9e6203e8aac0269af1eb8f01230e7d5cd12311e94c1a2079676c7f2012102c94039ae04985e990a5c64150d7ae6fc60b3318bde1cd3c602b2e64fabf92614", "asm": "3045022100fb42ca6742ed930bd01f0b75e8243b6e8990b42adbae5fe7aeb81281938bfe8302202bfd11c8f9e6203e8aac0269af1eb8f01230e7d5cd12311e94c1a2079676c7f2[ALL] 02c94039ae04985e990a5c64150d7ae6fc60b3318bde1cd3c602b2e64fabf92614"}, "vout": 0, "txid": "ee9d03e77de43c4d6bba152e450bd5be6d8fb9c1568b2f8a57b51701a82b8cb1"}], "txid": "baba902ca025b059440ecf57fb0768cb7666a569830b18a91ea1dced97a4cf65", "blocktime": 1537870268, "version": 1, "confirmations": 11518, "time": 1537870268, "locktime": 0, "vsize": 373, "size": 373}