{"hash": "4c9e1e901d0e55771292ffa48457fba8c7bacfaa78917aa41cbb750276200a50", "blockhash": "0000000000000000001f0ddff1eddb255c1121bcd4da4f1bc9a0da00cae72433", "vout": [{"scriptPubKey": {"reqSigs": 1, "hex": "a9145a3494f50ccac2b139ea10eccdcf62a724c9d60f87", "addresses": ["39uyjG4T9597424T4FYUVUk2RWVT7571fh"], "asm": "OP_HASH160 5a3494f50ccac2b139ea10eccdcf62a724c9d60f OP_EQUAL", "type": "scripthash"}, "value": 0.00042471, "n": 0}, {"scriptPubKey": {"reqSigs": 1, "hex": "a914412a5a9d44d5834123b7756088f409b7b3a36da687", "addresses": ["37daapNiiDgPEaARWMQCfhGXJo4yF1nTaW"], "asm": "OP_HASH160 412a5a9d44d5834123b7756088f409b7b3a36da6 OP_EQUAL", "type": "scripthash"}, "value": 0.02051849, "n": 1}], "hex": "01000000000101c0016c33ae43a99f116f4d6f6d54d307d966ab4838bb619b5c73e5dc6fcb470a010000002322002083f5850b1b9ae687f7cf8d5c77fefcbd87cde420155cd43c20d50f5f293b7ed6ffffffff02e7a500000000000017a9145a3494f50ccac2b139ea10eccdcf62a724c9d60f87094f1f000000000017a914412a5a9d44d5834123b7756088f409b7b3a36da6870400483045022100d170a26fa1aba5f0578e37ecb776be1adc5d04f29860e55a0f3c4434c4be93aa02205f60ee1b93daa98a6cdcf21188772c3fb779273e260cd86e38767cde9e51396801483045022100aae8d6bb4232bb47148e19326a1da73192310fdcde98b6b9d74bf6642b3ffe1602202f5116a147e0834d19565ff371b056e9fe48805a3b474050e81fe5724d49428101475221020511070566b8412d1941b8dc0ded10caa6a6915b609dfa65bb8111255071d3a22103871fc2ca08e6950b38867e8e6a0e94ee625223d3aa0df5c65f414c6d784467e252ae00000000", "vin": [{"txinwitness": ["", "3045022100d170a26fa1aba5f0578e37ecb776be1adc5d04f29860e55a0f3c4434c4be93aa02205f60ee1b93daa98a6cdcf21188772c3fb779273e260cd86e38767cde9e51396801", "3045022100aae8d6bb4232bb47148e19326a1da73192310fdcde98b6b9d74bf6642b3ffe1602202f5116a147e0834d19565ff371b056e9fe48805a3b474050e81fe5724d49428101", "5221020511070566b8412d1941b8dc0ded10caa6a6915b609dfa65bb8111255071d3a22103871fc2ca08e6950b38867e8e6a0e94ee625223d3aa0df5c65f414c6d784467e252ae"], "sequence": 4294967295, "scriptSig": {"hex": "22002083f5850b1b9ae687f7cf8d5c77fefcbd87cde420155cd43c20d50f5f293b7ed6", "asm": "002083f5850b1b9ae687f7cf8d5c77fefcbd87cde420155cd43c20d50f5f293b7ed6"}, "vout": 1, "txid": "0a47cb6fdce5735c9b61bb3848ab66d907d3546d6f4d6f119fa943ae336c01c0"}], "txid": "babd91039d830667529f2c6c8154505195f314687109baff99e84f235b868ec5", "blocktime": 1537872018, "version": 1, "confirmations": 11489, "time": 1537872018, "locktime": 0, "vsize": 206, "size": 372}