{"hash": "7b9edb6eb1bf59c4da0579212581f1ae790bf352ed4829eef3dd488296aec5c9", "blockhash": "00000000000000000024a2167bbff67b0be802c0b01cdd79e6331c2be6459f87", "vout": [{"scriptPubKey": {"reqSigs": 1, "hex": "76a91411f4a4345664e09d27bc274ac0037bfac3f25a8e88ac", "addresses": ["12dwZFDw9Lpr31ezhWWm2etJM7J2fmzvZL"], "asm": "OP_DUP OP_HASH160 11f4a4345664e09d27bc274ac0037bfac3f25a8e OP_EQUALVERIFY OP_CHECKSIG", "type": "pubkeyhash"}, "value": 0.0142, "n": 0}, {"scriptPubKey": {"reqSigs": 1, "hex": "a91425a91a5b409acf744e25fedec0dc8e83c20d27b887", "addresses": ["3589W7xWx5A6SosKzdpxAA8xkpkbtYDuAN"], "asm": "OP_HASH160 25a91a5b409acf744e25fedec0dc8e83c20d27b8 OP_EQUAL", "type": "scripthash"}, "value": 0.22483573, "n": 1}], "hex": "01000000000102f462d8b7c626932c357497201aaab9135a5dd0f1dc011ed35d111ac63fc80adb0100000023220020a4cf96722e65fb1fdb5e14ddabb507f2d3bb102d50b5f64bf4ea3cc6514d9656ffffffffd0f6f6d258c2faaec961d20941112e4f5090b8ed775c767a59e0d334e98c3f290b00000023220020a4cf96722e65fb1fdb5e14ddabb507f2d3bb102d50b5f64bf4ea3cc6514d9656ffffffff02e0aa1500000000001976a91411f4a4345664e09d27bc274ac0037bfac3f25a8e88ac751257010000000017a91425a91a5b409acf744e25fedec0dc8e83c20d27b887040047304402204eef478f6e0146e927c559589efa26761467b40a927be424a63820b77339710f02201d88ee73b60b34ba411d1702c061b02db2e32fe21112859e6bb1b09ebe04340901483045022100bddfdba7004555ef6fc1e29fc04d95aa3462c8536cde9dad8369b87efd7028890220438259f69e0cf1776e10686caaec287316d4e3d03b17801950dbce9796078a6a014752210315d3ac98ab2431df38a2cb5cf0243f58abd763b6e6b119041f3ba5f4fb26c5182103e1f9da7cfa5c14d4f8c07d00d62c26cf7439764542d87269b4c837b26883195b52ae040048304502210094a94990022fad38668e24c34843bc47984d75ad2c18427488b2fa6594779ef002207e2a7902e9496752ce664e38840516977430079dd7b64de43fd2214dd8f4a8af014730440220327f5dd609cc6f8d01dc397d9f83213ab6eec07831a3deda93b119537b2cc44c022039b7d90869b9111e0714b7a27183e56614877d0728dc440f8c3fd3a97925afde014752210315d3ac98ab2431df38a2cb5cf0243f58abd763b6e6b119041f3ba5f4fb26c5182103e1f9da7cfa5c14d4f8c07d00d62c26cf7439764542d87269b4c837b26883195b52ae00000000", "vin": [{"txinwitness": ["", "304402204eef478f6e0146e927c559589efa26761467b40a927be424a63820b77339710f02201d88ee73b60b34ba411d1702c061b02db2e32fe21112859e6bb1b09ebe04340901", "3045022100bddfdba7004555ef6fc1e29fc04d95aa3462c8536cde9dad8369b87efd7028890220438259f69e0cf1776e10686caaec287316d4e3d03b17801950dbce9796078a6a01", "52210315d3ac98ab2431df38a2cb5cf0243f58abd763b6e6b119041f3ba5f4fb26c5182103e1f9da7cfa5c14d4f8c07d00d62c26cf7439764542d87269b4c837b26883195b52ae"], "sequence": 4294967295, "scriptSig": {"hex": "220020a4cf96722e65fb1fdb5e14ddabb507f2d3bb102d50b5f64bf4ea3cc6514d9656", "asm": "0020a4cf96722e65fb1fdb5e14ddabb507f2d3bb102d50b5f64bf4ea3cc6514d9656"}, "vout": 1, "txid": "db0ac83fc61a115dd31e01dcf1d05d5a13b9aa1a209774352c9326c6b7d862f4"}, {"txinwitness": ["", "304502210094a94990022fad38668e24c34843bc47984d75ad2c18427488b2fa6594779ef002207e2a7902e9496752ce664e38840516977430079dd7b64de43fd2214dd8f4a8af01", "30440220327f5dd609cc6f8d01dc397d9f83213ab6eec07831a3deda93b119537b2cc44c022039b7d90869b9111e0714b7a27183e56614877d0728dc440f8c3fd3a97925afde01", "52210315d3ac98ab2431df38a2cb5cf0243f58abd763b6e6b119041f3ba5f4fb26c5182103e1f9da7cfa5c14d4f8c07d00d62c26cf7439764542d87269b4c837b26883195b52ae"], "sequence": 4294967295, "scriptSig": {"hex": "220020a4cf96722e65fb1fdb5e14ddabb507f2d3bb102d50b5f64bf4ea3cc6514d9656", "asm": "0020a4cf96722e65fb1fdb5e14ddabb507f2d3bb102d50b5f64bf4ea3cc6514d9656"}, "vout": 11, "txid": "293f8ce934d3e0597a765c77edb890504f2e114109d261c9aefac258d2f6f6d0"}], "txid": "babfe9a87b235e3b99c7ca71279673a7edd2882c0875a9d9cfc580f097f5c454", "blocktime": 1537870564, "version": 1, "confirmations": 11515, "time": 1537870564, "locktime": 0, "vsize": 338, "size": 668}