{"hash": "bac0a15d85608b97a1d755dd944051117659110689dbcf71876068e0f9d32b42", "blockhash": "00000000000000000024a2167bbff67b0be802c0b01cdd79e6331c2be6459f87", "vout": [{"scriptPubKey": {"reqSigs": 1, "hex": "76a914a268834a707f7bb94d62eca42a1d5811f7ebd6ac88ac", "addresses": ["1FojfkuTHMxET4MVacqwND4vPEF6HWm4Z2"], "asm": "OP_DUP OP_HASH160 a268834a707f7bb94d62eca42a1d5811f7ebd6ac OP_EQUALVERIFY OP_CHECKSIG", "type": "pubkeyhash"}, "value": 0.00882595, "n": 0}, {"scriptPubKey": {"reqSigs": 1, "hex": "a914123d98af0c19290a1b3c359bdcc48532a50e8ba387", "addresses": ["33MTsnqPXS3CZiaDefZBF9Mqx58TSZt5ma"], "asm": "OP_HASH160 123d98af0c19290a1b3c359bdcc48532a50e8ba3 OP_EQUAL", "type": "scripthash"}, "value": 0.03152236, "n": 1}], "hex": "0100000001a725142d6e1ee5141ecce202c2b4da8b057be8c2b41c5ccbf5b09a6ecaa30b40010000006a473044022072e127f01ad39f0032c4cab3383fbee624adc573b3b6c750eb1448d899cd684e0220236dd25c45c239b1c3790d7cf3a3b4f2a1715cfb933bc3a2a4d79549db556d320121037d131e018a92386a25e525f47fe4586371046e324b9f01daca6fed55597ee460ffffffff02a3770d00000000001976a914a268834a707f7bb94d62eca42a1d5811f7ebd6ac88ac6c1930000000000017a914123d98af0c19290a1b3c359bdcc48532a50e8ba38700000000", "vin": [{"sequence": 4294967295, "scriptSig": {"hex": "473044022072e127f01ad39f0032c4cab3383fbee624adc573b3b6c750eb1448d899cd684e0220236dd25c45c239b1c3790d7cf3a3b4f2a1715cfb933bc3a2a4d79549db556d320121037d131e018a92386a25e525f47fe4586371046e324b9f01daca6fed55597ee460", "asm": "3044022072e127f01ad39f0032c4cab3383fbee624adc573b3b6c750eb1448d899cd684e0220236dd25c45c239b1c3790d7cf3a3b4f2a1715cfb933bc3a2a4d79549db556d32[ALL] 037d131e018a92386a25e525f47fe4586371046e324b9f01daca6fed55597ee460"}, "vout": 1, "txid": "400ba3ca6e9ab0f5cb5c1cb4c2e87b058bdab4c202e2cc1e14e51e6e2d1425a7"}], "txid": "bac0a15d85608b97a1d755dd944051117659110689dbcf71876068e0f9d32b42", "blocktime": 1537870564, "version": 1, "confirmations": 11515, "time": 1537870564, "locktime": 0, "vsize": 223, "size": 223}