{"hash": "bac81dd9c8a6250dc559077c1d5eb9cb79d970c506f5b2d714b2560cb1bf15c5", "blockhash": "00000000000000000024a2167bbff67b0be802c0b01cdd79e6331c2be6459f87", "vout": [{"scriptPubKey": {"reqSigs": 1, "hex": "76a914011b715abb9bcb93d694b3355dbe31416aae5dd888ac", "addresses": ["16rYx81AzSaUpomngVtvb6j9TEUxvGCgJ"], "asm": "OP_DUP OP_HASH160 011b715abb9bcb93d694b3355dbe31416aae5dd8 OP_EQUALVERIFY OP_CHECKSIG", "type": "pubkeyhash"}, "value": 0.31342265, "n": 0}, {"scriptPubKey": {"reqSigs": 1, "hex": "76a914f354b588873514cd03884ec729d78750a40ddea188ac", "addresses": ["1PBcgJpbL1yF8iRLpYRcMQNaJDKuLx3M1H"], "asm": "OP_DUP OP_HASH160 f354b588873514cd03884ec729d78750a40ddea1 OP_EQUALVERIFY OP_CHECKSIG", "type": "pubkeyhash"}, "value": 0.71911248, "n": 1}], "hex": "010000000190b87b2813609607dc7b7c1c64c25f6abf2a732dab530707e85bdb0c3e10d2eb010000006a47304402200a31ac27e181ec47b8a81c374d5aef8f9bb356029faf2cc05c0093d804e638dd02204e458e19905bce86aaf7d2844e3e0ff9789979315b85164e4b5df330c5d30da30121025ab1b082a64170748e7367a8a8545c5abd7f0be30bc4124894425d9a75fc70a8ffffffff02b93ede01000000001976a914011b715abb9bcb93d694b3355dbe31416aae5dd888ac50474904000000001976a914f354b588873514cd03884ec729d78750a40ddea188ac00000000", "vin": [{"sequence": 4294967295, "scriptSig": {"hex": "47304402200a31ac27e181ec47b8a81c374d5aef8f9bb356029faf2cc05c0093d804e638dd02204e458e19905bce86aaf7d2844e3e0ff9789979315b85164e4b5df330c5d30da30121025ab1b082a64170748e7367a8a8545c5abd7f0be30bc4124894425d9a75fc70a8", "asm": "304402200a31ac27e181ec47b8a81c374d5aef8f9bb356029faf2cc05c0093d804e638dd02204e458e19905bce86aaf7d2844e3e0ff9789979315b85164e4b5df330c5d30da3[ALL] 025ab1b082a64170748e7367a8a8545c5abd7f0be30bc4124894425d9a75fc70a8"}, "vout": 1, "txid": "ebd2103e0cdb5be8070753ab2d732abf6a5fc2641c7c7bdc07966013287bb890"}], "txid": "bac81dd9c8a6250dc559077c1d5eb9cb79d970c506f5b2d714b2560cb1bf15c5", "blocktime": 1537870564, "version": 1, "confirmations": 11515, "time": 1537870564, "locktime": 0, "vsize": 225, "size": 225}