{"hash": "bace5f4e9e0756c17b53ee67a8fb8cc88f9dcd784f6d5c31e8a782455bac6626", "blockhash": "00000000000000000004ffacab907a6b429b9a5745fa0b75af4234bf69dd7176", "vout": [{"scriptPubKey": {"reqSigs": 1, "hex": "a914f223e33d3a4a944ea5ddecbda7f7c13223bce38887", "addresses": ["3PmLSV4KHu335Uy3bfC9nea94UC7tQhaJJ"], "asm": "OP_HASH160 f223e33d3a4a944ea5ddecbda7f7c13223bce388 OP_EQUAL", "type": "scripthash"}, "value": 0.0015, "n": 0}, {"scriptPubKey": {"reqSigs": 1, "hex": "76a914141853ad444bfcee902bed56449c69cb4506041d88ac", "addresses": ["12qFf6c9Fnz4ciB6HaLLa3cULXBUTZFvk3"], "asm": "OP_DUP OP_HASH160 141853ad444bfcee902bed56449c69cb4506041d OP_EQUALVERIFY OP_CHECKSIG", "type": "pubkeyhash"}, "value": 0.01719427, "n": 1}], "hex": "0100000001d1d063cf6ec9fd8bc265c7884dc4b2bea1ac430c3964260ef3253ebadbe78d70010000006a4730440220496be64af986308157b6f3e509dc5d83e66431296fd465b8666d30b09bc06a3902202bfb3712b0aea52bbfb504ce7f7d646a097252abc56b2389a8adf46fb6737de0012102be562be10123e6005a7bdf7a70cda1bbc14e95b1dca3d49896439b3b6bb677c8ffffffff02f04902000000000017a914f223e33d3a4a944ea5ddecbda7f7c13223bce38887833c1a00000000001976a914141853ad444bfcee902bed56449c69cb4506041d88ac00000000", "vin": [{"sequence": 4294967295, "scriptSig": {"hex": "4730440220496be64af986308157b6f3e509dc5d83e66431296fd465b8666d30b09bc06a3902202bfb3712b0aea52bbfb504ce7f7d646a097252abc56b2389a8adf46fb6737de0012102be562be10123e6005a7bdf7a70cda1bbc14e95b1dca3d49896439b3b6bb677c8", "asm": "30440220496be64af986308157b6f3e509dc5d83e66431296fd465b8666d30b09bc06a3902202bfb3712b0aea52bbfb504ce7f7d646a097252abc56b2389a8adf46fb6737de0[ALL] 02be562be10123e6005a7bdf7a70cda1bbc14e95b1dca3d49896439b3b6bb677c8"}, "vout": 1, "txid": "708de7dbba3e25f30e2664390c43aca1beb2c44d88c765c28bfdc96ecf63d0d1"}], "txid": "bace5f4e9e0756c17b53ee67a8fb8cc88f9dcd784f6d5c31e8a782455bac6626", "blocktime": 1537875543, "version": 1, "confirmations": 11464, "time": 1537875543, "locktime": 0, "vsize": 223, "size": 223}