{"hash": "bad01f8da3b4c10efc1bea952a75c3b07eec3d0397f88fd845b7e8dc8ecfdef8", "blockhash": "00000000000000000017f5eb5941039fbcee6240d03bc1f2f8e35350df66a1d8", "vout": [{"scriptPubKey": {"reqSigs": 1, "hex": "a914693134ddfc5a2789c775f5b7fc9778de18e8c89287", "addresses": ["3BHDpcawq4Xs9zicZYr1XFysUrBXNzAwqX"], "asm": "OP_HASH160 693134ddfc5a2789c775f5b7fc9778de18e8c892 OP_EQUAL", "type": "scripthash"}, "value": 0.05943954, "n": 0}, {"scriptPubKey": {"reqSigs": 1, "hex": "76a914cccb0d44986cc77565f3b6286c4df5564cb3088188ac", "addresses": ["1Kfr6RTkZuhANzt3RHmiyyXxG49q3UP79T"], "asm": "OP_DUP OP_HASH160 cccb0d44986cc77565f3b6286c4df5564cb30881 OP_EQUALVERIFY OP_CHECKSIG", "type": "pubkeyhash"}, "value": 0.34888815, "n": 1}], "hex": "0100000001a594a86f04eded480793ea4e01a7a313f41d373c425046eccbc0044d8a0c57ee010000006b483045022100b635530a2b95172393d14d2d0abfd9cd4bff0ed550e8c3dbdd61c8aa7a455b040220292875802c9a2d9e2c758795bfac36dfb2063ca13630bcfaed856a2e117c7cd7012103a9728a42639c28882ba0c725ab629dab5e3370e9612d12fc9dec5fb3fc86fd82ffffffff0292b25a000000000017a914693134ddfc5a2789c775f5b7fc9778de18e8c892876f5c1402000000001976a914cccb0d44986cc77565f3b6286c4df5564cb3088188ac00000000", "vin": [{"sequence": 4294967295, "scriptSig": {"hex": "483045022100b635530a2b95172393d14d2d0abfd9cd4bff0ed550e8c3dbdd61c8aa7a455b040220292875802c9a2d9e2c758795bfac36dfb2063ca13630bcfaed856a2e117c7cd7012103a9728a42639c28882ba0c725ab629dab5e3370e9612d12fc9dec5fb3fc86fd82", "asm": "3045022100b635530a2b95172393d14d2d0abfd9cd4bff0ed550e8c3dbdd61c8aa7a455b040220292875802c9a2d9e2c758795bfac36dfb2063ca13630bcfaed856a2e117c7cd7[ALL] 03a9728a42639c28882ba0c725ab629dab5e3370e9612d12fc9dec5fb3fc86fd82"}, "vout": 1, "txid": "ee570c8a4d04c0cbec4650423c371df413a3a7014eea930748eded046fa894a5"}], "txid": "bad01f8da3b4c10efc1bea952a75c3b07eec3d0397f88fd845b7e8dc8ecfdef8", "blocktime": 1537874412, "version": 1, "confirmations": 11467, "time": 1537874412, "locktime": 0, "vsize": 224, "size": 224}