{"hash": "ec3b91e62d741a246e3a714c30fbf854b5e3bd11660f64c5e2fc70518fc08e15", "blockhash": "0000000000000000001f0ddff1eddb255c1121bcd4da4f1bc9a0da00cae72433", "vout": [{"scriptPubKey": {"reqSigs": 1, "hex": "a914f7d5aceb5f9bb821a48c9ba4515e8c670b77b43d87", "addresses": ["3QHSoMh5BSi4AJfdCehms6pcSjbEmzB15E"], "asm": "OP_HASH160 f7d5aceb5f9bb821a48c9ba4515e8c670b77b43d OP_EQUAL", "type": "scripthash"}, "value": 0.0027516, "n": 0}, {"scriptPubKey": {"reqSigs": 1, "hex": "a914b16a3e7717be21b7e18e34ac8455b77483fad5e987", "addresses": ["3Hs6oTfiEALvVfNLgkKDVKPtfnxLiWJmbH"], "asm": "OP_HASH160 b16a3e7717be21b7e18e34ac8455b77483fad5e9 OP_EQUAL", "type": "scripthash"}, "value": 0.01000325, "n": 1}], "hex": "02000000000102ba6e0a358c92cc169480fe4a72e59b74d3b3f02222a0e1cbfe894586a13c7f2e0000000017160014629de1af4cf0dc7d4828fda036c591377b7ae8d7feffffffd806391d52203081ab91d45528ce7e3253083f27dba81cf24c327041974862951a000000171600143b618d6ab794bfab950b0f3e2351a38b794c813cfeffffff02d83204000000000017a914f7d5aceb5f9bb821a48c9ba4515e8c670b77b43d8785430f000000000017a914b16a3e7717be21b7e18e34ac8455b77483fad5e98702483045022100d9e6a5ea807b7c70d806e7f2ba79e92d9f560d0500001d9c3b298a6ee3eb114e02201b5f0b6d4ac9edfffd1c410107af393bc9261d0d254aa8a03efb80bad6e77fb7012102f3546225bd48dd9e5a0484abe985e1ba7ea1a05001d02006bec814b84843137402483045022100999e2f84160d79a214afee784030a889299fd0f0567630d9d147e033ef7a3c3502200a9411fd41990aeb8ee398de37c01bc76563976abfb078ed9bd2beb36455084b012103f84dcae483def72ac0fa6b343f63323146f5cf9d70b7d75e83be5f60f49f1d4811490800", "vin": [{"txinwitness": ["3045022100d9e6a5ea807b7c70d806e7f2ba79e92d9f560d0500001d9c3b298a6ee3eb114e02201b5f0b6d4ac9edfffd1c410107af393bc9261d0d254aa8a03efb80bad6e77fb701", "02f3546225bd48dd9e5a0484abe985e1ba7ea1a05001d02006bec814b848431374"], "sequence": 4294967294, "scriptSig": {"hex": "160014629de1af4cf0dc7d4828fda036c591377b7ae8d7", "asm": "0014629de1af4cf0dc7d4828fda036c591377b7ae8d7"}, "vout": 0, "txid": "2e7f3ca1864589fecbe1a02222f0b3d3749be5724afe809416cc928c350a6eba"}, {"txinwitness": ["3045022100999e2f84160d79a214afee784030a889299fd0f0567630d9d147e033ef7a3c3502200a9411fd41990aeb8ee398de37c01bc76563976abfb078ed9bd2beb36455084b01", "03f84dcae483def72ac0fa6b343f63323146f5cf9d70b7d75e83be5f60f49f1d48"], "sequence": 4294967294, "scriptSig": {"hex": "1600143b618d6ab794bfab950b0f3e2351a38b794c813c", "asm": "00143b618d6ab794bfab950b0f3e2351a38b794c813c"}, "vout": 26, "txid": "956248974170324cf21ca8db273f0853327ece2855d491ab813020521d3906d8"}], "txid": "bad7590d51ac2482dc57a8f5d4718b715b19e173c3ef127b4c25c995777479eb", "blocktime": 1537872018, "version": 2, "confirmations": 11489, "time": 1537872018, "locktime": 542993, "vsize": 257, "size": 420}