{"hash": "1fdbd9ab567133983dddf5f76d53ae6e573c789cc7dbd4a8585606565b2a51bc", "blockhash": "00000000000000000017f5eb5941039fbcee6240d03bc1f2f8e35350df66a1d8", "vout": [{"scriptPubKey": {"reqSigs": 1, "hex": "a9142d7cd00716dcbe2ad1c9f5034dd65a43aa31b96587", "addresses": ["35qXrJpwafUrcSxS89Bb1oR9tvygzN2pVZ"], "asm": "OP_HASH160 2d7cd00716dcbe2ad1c9f5034dd65a43aa31b965 OP_EQUAL", "type": "scripthash"}, "value": 5.47397705, "n": 0}, {"scriptPubKey": {"reqSigs": 1, "hex": "76a9141d7bcf325909b40227b7b643e3c5fcae05fd6ce288ac", "addresses": ["13gtuzKrk2iiBtbU8ZxnSriRdSG5YpmhL4"], "asm": "OP_DUP OP_HASH160 1d7bcf325909b40227b7b643e3c5fcae05fd6ce2 OP_EQUALVERIFY OP_CHECKSIG", "type": "pubkeyhash"}, "value": 0.01464343, "n": 1}], "hex": "02000000000101ce626e44abc79fcbab916ba49b2152e7084377f03b648ee7486e0f16adb772de00000000171600148f5444ee666bc518e2f112d826bd650c59d24c5ffeffffff0249a0a0200000000017a9142d7cd00716dcbe2ad1c9f5034dd65a43aa31b9658717581600000000001976a9141d7bcf325909b40227b7b643e3c5fcae05fd6ce288ac0247304402207be91b7fea855028b52fd48f7af53474950c79cdd8199a864c7061f8f349d762022021a0843407704689907e55f2385456bce30248bc4a35fd116832359032286fe9012102b8f817f392b680774f00cfb0729a3d26d1185bfc71f2c757bbd9cad230f3bfa315490800", "vin": [{"txinwitness": ["304402207be91b7fea855028b52fd48f7af53474950c79cdd8199a864c7061f8f349d762022021a0843407704689907e55f2385456bce30248bc4a35fd116832359032286fe901", "02b8f817f392b680774f00cfb0729a3d26d1185bfc71f2c757bbd9cad230f3bfa3"], "sequence": 4294967294, "scriptSig": {"hex": "1600148f5444ee666bc518e2f112d826bd650c59d24c5f", "asm": "00148f5444ee666bc518e2f112d826bd650c59d24c5f"}, "vout": 0, "txid": "de72b7ad160f6e48e78e643bf0774308e752219ba46b91abcb9fc7ab446e62ce"}], "txid": "badc444a48f5b1e8e2a5d9f3072e725cd3a93be568f55c36f84cf742f2ae0790", "blocktime": 1537874412, "version": 2, "confirmations": 11468, "time": 1537874412, "locktime": 542997, "vsize": 168, "size": 249}