{"hash": "8707f133cfbb6757fe09a091ae8dba62059223e7aaa480a2000ad42b820f1a8b", "blockhash": "00000000000000000024a2167bbff67b0be802c0b01cdd79e6331c2be6459f87", "vout": [{"scriptPubKey": {"reqSigs": 1, "hex": "001408b13b1e0f22556012bf7d5e7f93909f40342d4a", "addresses": ["bc1qpzcnk8s0yf2kqy4l0408lyusnaqrgt226d7mlf"], "asm": "0 08b13b1e0f22556012bf7d5e7f93909f40342d4a", "type": "witness_v0_keyhash"}, "value": 0.00807847, "n": 0}, {"scriptPubKey": {"reqSigs": 1, "hex": "76a91418eb153e9cedc7857e3a4887f9cfff342769731a88ac", "addresses": ["13GkqTTdwWKs5diNv8NGE55kKjzvQ6Fb7T"], "asm": "OP_DUP OP_HASH160 18eb153e9cedc7857e3a4887f9cfff342769731a OP_EQUALVERIFY OP_CHECKSIG", "type": "pubkeyhash"}, "value": 0.31191565, "n": 1}], "hex": "0100000000010197f56cf71f0069642210c4fe5c41a349eb46bb6bba88fdc1ebba845a86ad52a101000000171600142b8c8fce5405c1c0a6a33a893ecb26d737bd0b66ffffffff02a7530c000000000016001408b13b1e0f22556012bf7d5e7f93909f40342d4a0df2db01000000001976a91418eb153e9cedc7857e3a4887f9cfff342769731a88ac02483045022100f7a1cb20de6ae04a8761cd4978332132aa6901174530953c5ed4c62a45009c01022040dcf072a46b7e978ffad9930e8479a1b50da4c53fe00d67366435f2204578f60121030f266880a0cbf376630059c4670bff09083b66ca7660268b3952dd4dc0467fc900000000", "vin": [{"txinwitness": ["3045022100f7a1cb20de6ae04a8761cd4978332132aa6901174530953c5ed4c62a45009c01022040dcf072a46b7e978ffad9930e8479a1b50da4c53fe00d67366435f2204578f601", "030f266880a0cbf376630059c4670bff09083b66ca7660268b3952dd4dc0467fc9"], "sequence": 4294967295, "scriptSig": {"hex": "1600142b8c8fce5405c1c0a6a33a893ecb26d737bd0b66", "asm": "00142b8c8fce5405c1c0a6a33a893ecb26d737bd0b66"}, "vout": 1, "txid": "a152ad865a84baebc1fd88ba6bbb46eb49a3415cfec410226469001ff76cf597"}], "txid": "bade4a4c2937c765d5d081a61d9ce9a2ddce228c3fe7805216998a9169cefece", "blocktime": 1537870564, "version": 1, "confirmations": 11515, "time": 1537870564, "locktime": 0, "vsize": 167, "size": 249}