{"hash": "4be16724ec2dbb695999ed5034d1bda187993617906ec16c29eff4cdc9dd7fed", "blockhash": "00000000000000000018f53835495a110e01622372bf6ae95dc86f2b0ab887b0", "vout": [{"scriptPubKey": {"reqSigs": 1, "hex": "a914cc86c81df9eabe2143b4b5d1b765282e3ca803a687", "addresses": ["3LLTEUU258U5f2YeDHVymsgrH4cCHnyjik"], "asm": "OP_HASH160 cc86c81df9eabe2143b4b5d1b765282e3ca803a6 OP_EQUAL", "type": "scripthash"}, "value": 3.9e-05, "n": 0}, {"scriptPubKey": {"reqSigs": 1, "hex": "a9140c70c5809656d4a309ed189c36983180b486219b87", "addresses": ["32po8M3gXaSL1V8sS1rCf2er9YbLXjG1wo"], "asm": "OP_HASH160 0c70c5809656d4a309ed189c36983180b486219b OP_EQUAL", "type": "scripthash"}, "value": 8.485e-05, "n": 1}], "hex": "02000000000101af60a3c628afe8593ba182e9f1b4cbc026cea2c8ba5b0dd29f740b03b003ca5200000000171600146f7dbf219bbab2e926c5024616b6a50a1235bcacfeffffff023c0f00000000000017a914cc86c81df9eabe2143b4b5d1b765282e3ca803a687252100000000000017a9140c70c5809656d4a309ed189c36983180b486219b870247304402201610b67b7fa611f032293cab7430db36995c1212af14ee415af09de64d0f46a5022047bd401cfd40e4143fdb651b3c783512f5405d1ade9a820968982780eb5efad60121036fac16791e1db397eab85d0acd205efefc871168997c81fb7872da91d05a08940e490800", "vin": [{"txinwitness": ["304402201610b67b7fa611f032293cab7430db36995c1212af14ee415af09de64d0f46a5022047bd401cfd40e4143fdb651b3c783512f5405d1ade9a820968982780eb5efad601", "036fac16791e1db397eab85d0acd205efefc871168997c81fb7872da91d05a0894"], "sequence": 4294967294, "scriptSig": {"hex": "1600146f7dbf219bbab2e926c5024616b6a50a1235bcac", "asm": "00146f7dbf219bbab2e926c5024616b6a50a1235bcac"}, "vout": 0, "txid": "52ca03b0030b749fd20d5bbac8a2ce26c0cbb4f1e982a13b59e8af28c6a360af"}], "txid": "badf2197c10b54bcdbc262debe58a1f4aa96924ecf4fead82be4a3068a58a51a", "blocktime": 1537870928, "version": 2, "confirmations": 11514, "time": 1537870928, "locktime": 542990, "vsize": 166, "size": 247}