{"hash": "0706cf42e245a08796e7460779f9c2fda6461869c94d20bc989d5c26b28bcede", "blockhash": "0000000000000000000baef3f32e3676a92c3b2e5da21b426e4f302fc371ce76", "vout": [{"scriptPubKey": {"type": "nulldata", "hex": "6a20f69dbe08d5b60c2039fa1cc451badde47bbd9535522644e60bf759a45928b02d", "asm": "OP_RETURN f69dbe08d5b60c2039fa1cc451badde47bbd9535522644e60bf759a45928b02d"}, "value": 0.0, "n": 0}, {"scriptPubKey": {"reqSigs": 1, "hex": "a914206b19567564f8c013404bc8b5f0c53c594dfdd787", "addresses": ["34eRr3q7S2pc7S51MVUgWyqoHo1nDzVhZL"], "asm": "OP_HASH160 206b19567564f8c013404bc8b5f0c53c594dfdd7 OP_EQUAL", "type": "scripthash"}, "value": 0.16049557, "n": 1}], "hex": "020000000001012a69c12bdd4f094d45004cd95143cc10b6086789dfed2f1f97760b89eb2570b701000000171600146cd96f26960f20d86872d5e433cab607faeffeebffffffff020000000000000000226a20f69dbe08d5b60c2039fa1cc451badde47bbd9535522644e60bf759a45928b02d95e5f4000000000017a914206b19567564f8c013404bc8b5f0c53c594dfdd78702483045022100bb2a8e1a791761a71b4e2a4ab5264985ed36fa0aeeba2ef0a09a14def7efe53f02207a6f4e60422200b2bb804a9ccaf1b84f82ebd913e7f2654cb5e5fc78c471b5ee0121024370371555edb5823827993c5e7c70595c5d750c276ce44950ec1641bf3c997a00000000", "vin": [{"txinwitness": ["3045022100bb2a8e1a791761a71b4e2a4ab5264985ed36fa0aeeba2ef0a09a14def7efe53f02207a6f4e60422200b2bb804a9ccaf1b84f82ebd913e7f2654cb5e5fc78c471b5ee01", "024370371555edb5823827993c5e7c70595c5d750c276ce44950ec1641bf3c997a"], "sequence": 4294967295, "scriptSig": {"hex": "1600146cd96f26960f20d86872d5e433cab607faeffeeb", "asm": "00146cd96f26960f20d86872d5e433cab607faeffeeb"}, "vout": 1, "txid": "b77025eb890b76971f2feddf896708b610cc4351d94c00454d094fdd2bc1692a"}], "txid": "bae4ad80ebe9ae2322194e1d0d2502db516ed4461f5480a139c1b339b78cbd05", "blocktime": 1537876114, "version": 2, "confirmations": 11460, "time": 1537876114, "locktime": 0, "vsize": 177, "size": 259}