{"hash": "bae8fe52d78bb8b1b77b6123d84a6505b965ffcf9e65e50d67b009b302392f85", "blockhash": "0000000000000000000e13cef7c366c0283d82e591d1acd082e914b08063cdf1", "vout": [{"scriptPubKey": {"reqSigs": 1, "hex": "a9147259ff54cd679c11ab0690e835c3b1f81163bb4a87", "addresses": ["3C7emYJees2cWTKqAaekNCFTcMCvmSyekE"], "asm": "OP_HASH160 7259ff54cd679c11ab0690e835c3b1f81163bb4a OP_EQUAL", "type": "scripthash"}, "value": 0.00327, "n": 0}, {"scriptPubKey": {"reqSigs": 1, "hex": "76a914da47de77a508fb900c60631f51a86ec2564b1be688ac", "addresses": ["1LuAQNCuFihaXF3i1qB7iKHUw3EujzNKtP"], "asm": "OP_DUP OP_HASH160 da47de77a508fb900c60631f51a86ec2564b1be6 OP_EQUALVERIFY OP_CHECKSIG", "type": "pubkeyhash"}, "value": 0.0045172, "n": 1}], "hex": "0100000001e6bb4be6584c34d0354057cb4be4aadf9707254a3cc4abc5825d9fe17a41d800000000006a47304402206c5d8a94fd52d9aa207b567541a8f23dc0071b5d7c20e35e18b8e3682bd86f8d02203cb15bed8b0aa440f27d363bd74f4eb63e38fc45fb0e7498abc6741e0e3c576301210362fcfe8a81cf65a395837ee40b74d614128942c9b2cd111d5a36b5d1bb66bf91ffffffff0258fd04000000000017a9147259ff54cd679c11ab0690e835c3b1f81163bb4a8788e40600000000001976a914da47de77a508fb900c60631f51a86ec2564b1be688ac00000000", "vin": [{"sequence": 4294967295, "scriptSig": {"hex": "47304402206c5d8a94fd52d9aa207b567541a8f23dc0071b5d7c20e35e18b8e3682bd86f8d02203cb15bed8b0aa440f27d363bd74f4eb63e38fc45fb0e7498abc6741e0e3c576301210362fcfe8a81cf65a395837ee40b74d614128942c9b2cd111d5a36b5d1bb66bf91", "asm": "304402206c5d8a94fd52d9aa207b567541a8f23dc0071b5d7c20e35e18b8e3682bd86f8d02203cb15bed8b0aa440f27d363bd74f4eb63e38fc45fb0e7498abc6741e0e3c5763[ALL] 0362fcfe8a81cf65a395837ee40b74d614128942c9b2cd111d5a36b5d1bb66bf91"}, "vout": 0, "txid": "00d8417ae19f5d82c5abc43c4a250797dfaae44bcb574035d0344c58e64bbbe6"}], "txid": "bae8fe52d78bb8b1b77b6123d84a6505b965ffcf9e65e50d67b009b302392f85", "blocktime": 1537871767, "version": 1, "confirmations": 11491, "time": 1537871767, "locktime": 0, "vsize": 223, "size": 223}