{"hash": "60c1e59e8d6c75f2ef56b1e8b8abf3e453c6f5427b0e5b4def161dfefec524a2", "blockhash": "0000000000000000000e13cef7c366c0283d82e591d1acd082e914b08063cdf1", "vout": [{"scriptPubKey": {"reqSigs": 1, "hex": "76a91475f7d39e065ec7ac81c71e126ebcb30893d9e69488ac", "addresses": ["1BkkwjwKwQzHDVaEXMLHYxjmdypSuQGN9g"], "asm": "OP_DUP OP_HASH160 75f7d39e065ec7ac81c71e126ebcb30893d9e694 OP_EQUALVERIFY OP_CHECKSIG", "type": "pubkeyhash"}, "value": 0.01126, "n": 0}, {"scriptPubKey": {"reqSigs": 1, "hex": "a914fabd07b92a28c48e751a11302892c6dd6054e42d87", "addresses": ["3QYoJYiwLS7iBmnjVc64UmAnAJBwJs1tsT"], "asm": "OP_HASH160 fabd07b92a28c48e751a11302892c6dd6054e42d OP_EQUAL", "type": "scripthash"}, "value": 0.02506216, "n": 1}], "hex": "020000000001014036a03fa888d4a3094c0edade2eb577d824ec4f71773e790ea6e418b220bf670100000017160014d8b4e74d65e9e67cb247962d55056b96ea899061ffffffff02702e1100000000001976a91475f7d39e065ec7ac81c71e126ebcb30893d9e69488ace83d26000000000017a914fabd07b92a28c48e751a11302892c6dd6054e42d8702473044022025fd8bef0226ac8e890a952090d496cd42a33f64a6fcaa4458d13abe9b13b95f022024339116603043b83356b918b509c52ab09ee67ca87c87d2ac21a20223fc101a0121027f72e94ea5f382832c12a0ecfb41b23f94499265e9c0af1e0682fbdd78fb416300000000", "vin": [{"txinwitness": ["3044022025fd8bef0226ac8e890a952090d496cd42a33f64a6fcaa4458d13abe9b13b95f022024339116603043b83356b918b509c52ab09ee67ca87c87d2ac21a20223fc101a01", "027f72e94ea5f382832c12a0ecfb41b23f94499265e9c0af1e0682fbdd78fb4163"], "sequence": 4294967295, "scriptSig": {"hex": "160014d8b4e74d65e9e67cb247962d55056b96ea899061", "asm": "0014d8b4e74d65e9e67cb247962d55056b96ea899061"}, "vout": 1, "txid": "67bf20b218e4a60e793e77714fec24d877b52ededa0e4c09a3d488a83fa03640"}], "txid": "bae8d93c4e3884be2b3e6ebe9ce55a155b72bacbed7799f6e9c6ae9ef8f90f22", "blocktime": 1537871767, "version": 2, "confirmations": 11490, "time": 1537871767, "locktime": 0, "vsize": 168, "size": 249}