{"hash": "cc6732bdd827c7f9b7998494053e361ce70bc5f2abf6ec9dbb4eea0f9c8ec8ed", "blockhash": "0000000000000000001cda96e906b7601b7a6fb1a3b62bca570a9e5d8f4b3de1", "vout": [{"scriptPubKey": {"reqSigs": 1, "hex": "a914cfdfe516e63bfdd61f7c64e442693c3e892c210187", "addresses": ["3LeA1jyGuCszuBBKL53tWCppTP9YdzCrVk"], "asm": "OP_HASH160 cfdfe516e63bfdd61f7c64e442693c3e892c2101 OP_EQUAL", "type": "scripthash"}, "value": 0.05796131, "n": 0}, {"scriptPubKey": {"reqSigs": 1, "hex": "a9148e6f0bce898714031abd64700a71ea19972ce69787", "addresses": ["3Eg8uQMCXuEKfidBJ9UptminMavkcq5FNv"], "asm": "OP_HASH160 8e6f0bce898714031abd64700a71ea19972ce697 OP_EQUAL", "type": "scripthash"}, "value": 0.00012017, "n": 1}], "hex": "020000000001010a21e3ebbdd1c65f382ad7096820db4e51b84f9e8ba5fd20d868d85bf3d2d1490100000017160014b17e63748f378debdd153342a9889b6f4d2d3654feffffff02237158000000000017a914cfdfe516e63bfdd61f7c64e442693c3e892c210187f12e00000000000017a9148e6f0bce898714031abd64700a71ea19972ce697870247304402206c4df534b00a38ef5c1ccc2906dd4d6f4af6151406d2a245659bfd2c1f8a1f0f022017907956728f4f3506b28ca342b53738c001e99ce68665c6ee7f1977f03efa83012103c3e733735905acc9746a933ac5a6c7497d50bd4b674b75539a2ebc7edcbd000c13490800", "vin": [{"txinwitness": ["304402206c4df534b00a38ef5c1ccc2906dd4d6f4af6151406d2a245659bfd2c1f8a1f0f022017907956728f4f3506b28ca342b53738c001e99ce68665c6ee7f1977f03efa8301", "03c3e733735905acc9746a933ac5a6c7497d50bd4b674b75539a2ebc7edcbd000c"], "sequence": 4294967294, "scriptSig": {"hex": "160014b17e63748f378debdd153342a9889b6f4d2d3654", "asm": "0014b17e63748f378debdd153342a9889b6f4d2d3654"}, "vout": 1, "txid": "49d1d2f35bd868d820fda58b9e4fb8514edb206809d72a385fc6d1bdebe3210a"}], "txid": "baeb0f35201a2c96da8259b4fc1267bdfac68ee9ab93037f3d6c123ddbde9a51", "blocktime": 1537873282, "version": 2, "confirmations": 11485, "time": 1537873282, "locktime": 542995, "vsize": 166, "size": 247}