{"hash": "baecb9f3b1e10414f1616c9bc032c4fcc27b0fde07fe0769a3e3cdf6b6ea6808", "blockhash": "00000000000000000018f53835495a110e01622372bf6ae95dc86f2b0ab887b0", "vout": [{"scriptPubKey": {"reqSigs": 1, "hex": "76a9148091c71511cef2b9b1f45b7541486ef9c48132ea88ac", "addresses": ["1Cip8N7eYTQjzWK5facc2UigvznXQBvmMG"], "asm": "OP_DUP OP_HASH160 8091c71511cef2b9b1f45b7541486ef9c48132ea OP_EQUALVERIFY OP_CHECKSIG", "type": "pubkeyhash"}, "value": 0.00417807, "n": 0}], "hex": "0100000002cf3deaca4edd13f6b85239f51b26a7a6483bea0a5754cf21c16e91b04fb0e72e000000006a47304402200dd3f401ec9af6dc9b779037ff88db1deaad24c0cc41823ad0b4a3fc62edcc5c02207aec7a85a0a45cf17ddd9810cfd960426e2934f0513dfcb1b814a38fc591c8530121037e6e87a2a5ab5d4141cb5636f400fadecc4c3164b9c73020d8d31baa17dcd40dffffffff1a6b6db6821030a61ab3114fc52c6faeebab7eafed021809088ed2e32b191f9d000000006a47304402201f261b21e7cf4f7ce34022ca48a0debd86a1af5652d82f8e5e89303b0c74ea1d022072d62a45aafba6273a5c3b2dffdd93b1d2dea8061463f92a7d227bf2719ef6e00121029acf43ff29025c31f1518500ff1adb65fac6176a743eadd83014e322183fa2d3ffffffff010f600600000000001976a9148091c71511cef2b9b1f45b7541486ef9c48132ea88ac00000000", "vin": [{"sequence": 4294967295, "scriptSig": {"hex": "47304402200dd3f401ec9af6dc9b779037ff88db1deaad24c0cc41823ad0b4a3fc62edcc5c02207aec7a85a0a45cf17ddd9810cfd960426e2934f0513dfcb1b814a38fc591c8530121037e6e87a2a5ab5d4141cb5636f400fadecc4c3164b9c73020d8d31baa17dcd40d", "asm": "304402200dd3f401ec9af6dc9b779037ff88db1deaad24c0cc41823ad0b4a3fc62edcc5c02207aec7a85a0a45cf17ddd9810cfd960426e2934f0513dfcb1b814a38fc591c853[ALL] 037e6e87a2a5ab5d4141cb5636f400fadecc4c3164b9c73020d8d31baa17dcd40d"}, "vout": 0, "txid": "2ee7b04fb0916ec121cf54570aea3b48a6a7261bf53952b8f613dd4ecaea3dcf"}, {"sequence": 4294967295, "scriptSig": {"hex": "47304402201f261b21e7cf4f7ce34022ca48a0debd86a1af5652d82f8e5e89303b0c74ea1d022072d62a45aafba6273a5c3b2dffdd93b1d2dea8061463f92a7d227bf2719ef6e00121029acf43ff29025c31f1518500ff1adb65fac6176a743eadd83014e322183fa2d3", "asm": "304402201f261b21e7cf4f7ce34022ca48a0debd86a1af5652d82f8e5e89303b0c74ea1d022072d62a45aafba6273a5c3b2dffdd93b1d2dea8061463f92a7d227bf2719ef6e0[ALL] 029acf43ff29025c31f1518500ff1adb65fac6176a743eadd83014e322183fa2d3"}, "vout": 0, "txid": "9d1f192be3d28e08091802edaf7eabebae6f2cc54f11b31aa6301082b66d6b1a"}], "txid": "baecb9f3b1e10414f1616c9bc032c4fcc27b0fde07fe0769a3e3cdf6b6ea6808", "blocktime": 1537870928, "version": 1, "confirmations": 11514, "time": 1537870928, "locktime": 0, "vsize": 338, "size": 338}