{"hash": "baf957d32b91d7d878c47942a18e6ab42bb5566161b18570e7c1eb80a879992f", "blockhash": "0000000000000000000baef3f32e3676a92c3b2e5da21b426e4f302fc371ce76", "vout": [{"scriptPubKey": {"reqSigs": 1, "hex": "a914a957712a333581c219cb5f7e2f77e84f76385eab87", "addresses": ["3H8QsYTknG5H1vVSL2u3Fw4rpCX77xDwRR"], "asm": "OP_HASH160 a957712a333581c219cb5f7e2f77e84f76385eab OP_EQUAL", "type": "scripthash"}, "value": 0.0028731, "n": 0}, {"scriptPubKey": {"reqSigs": 1, "hex": "76a91404804e0773fa686554b392f4e01180294d07601f88ac", "addresses": ["1QoQYPb5JiKyeK2jj47Rv9YTRGn6FVFCX"], "asm": "OP_DUP OP_HASH160 04804e0773fa686554b392f4e01180294d07601f OP_EQUALVERIFY OP_CHECKSIG", "type": "pubkeyhash"}, "value": 0.00336335, "n": 1}], "hex": "0100000001dc612a9d2af9e9b261e525802e4b4ee0e49ca8bd1742c2880e0896180d917ba0010000006b483045022100f2da90ad2c463415020419dbabc7497fd01403bb0ad7601cae62197b6a3b6312022001b06aebd705ac0d070d46a9c6598d517bc400c71630816ba8ddfe1e5ff27736012102355ec030075ff36cd91b814894ce05a2ca712f97366a0713ffb58ca01059bb88ffffffff024e6204000000000017a914a957712a333581c219cb5f7e2f77e84f76385eab87cf210500000000001976a91404804e0773fa686554b392f4e01180294d07601f88ac00000000", "vin": [{"sequence": 4294967295, "scriptSig": {"hex": "483045022100f2da90ad2c463415020419dbabc7497fd01403bb0ad7601cae62197b6a3b6312022001b06aebd705ac0d070d46a9c6598d517bc400c71630816ba8ddfe1e5ff27736012102355ec030075ff36cd91b814894ce05a2ca712f97366a0713ffb58ca01059bb88", "asm": "3045022100f2da90ad2c463415020419dbabc7497fd01403bb0ad7601cae62197b6a3b6312022001b06aebd705ac0d070d46a9c6598d517bc400c71630816ba8ddfe1e5ff27736[ALL] 02355ec030075ff36cd91b814894ce05a2ca712f97366a0713ffb58ca01059bb88"}, "vout": 1, "txid": "a07b910d1896080e88c24217bda89ce4e04e4b2e8025e561b2e9f92a9d2a61dc"}], "txid": "baf957d32b91d7d878c47942a18e6ab42bb5566161b18570e7c1eb80a879992f", "blocktime": 1537876114, "version": 1, "confirmations": 11459, "time": 1537876114, "locktime": 0, "vsize": 224, "size": 224}