{"hash": "bb01b9e54e3340c953028ec41401355331e756bdafd6138d60737c509d12641f", "blockhash": "0000000000000000000dcc0f55137456b1a82d3642486a52398922ac4d620174", "vout": [{"scriptPubKey": {"reqSigs": 1, "hex": "76a9143be6ec0d904f8b36a3e21ae24795bbb291d43d9788ac", "addresses": ["16TjW4oTHfbX8UqTn1JgigB2ev9MAkeMMn"], "asm": "OP_DUP OP_HASH160 3be6ec0d904f8b36a3e21ae24795bbb291d43d97 OP_EQUALVERIFY OP_CHECKSIG", "type": "pubkeyhash"}, "value": 0.00087158, "n": 0}, {"scriptPubKey": {"reqSigs": 1, "hex": "a9140b1462b983090bf30cc61b097b1d9533ef5d383f87", "addresses": ["32hbn5CXWsr7YGGeTB4Lemk7zL3cq7LTET"], "asm": "OP_HASH160 0b1462b983090bf30cc61b097b1d9533ef5d383f OP_EQUAL", "type": "scripthash"}, "value": 0.04756721, "n": 1}], "hex": "010000000309dc6b244a7f2974aef37500a7421962be255ee59c89cd2dbcae9a5d7079ca5f010000006a47304402203ad2ea008a1c0fcced6692520d4a6f41a74bf12a6216dac53b692c859a7752b9022026991cdf057cbd166e4a83d06f4d4645086f0645167157c8148d66887dafa8f4012103fb1ccee0af8f39964469b5d5a8e0b6eac3ff546eed499166563be404f3a74ce7ffffffff89046506af6d2cf0f73ad2ca4d8377077c47f8fa7d4acfab94390d3096c08587010000006a4730440220259422671190de5ca983b2611691d879aa274b926e0bf0ff3eb63611095b538a02200c04cc530ec9770f9b614513470647c37b98f5f1d9ce90a072eee52e23c734fa012102490c7516c632456fbac5ceca361d87e948025d7578282f5d8c13c58b14565fecffffffffd78402650c1aa349342340a2761f879d8638eeec994f6222f4d6322c023d8ef2010000006a473044022006511f00daa587ba9ec43ee0c70d0f2c6ac3375648c7eac8d103ab80d0811802022048b7fa69cfc679ef5501414cd06ab2ae97995aa836a7510db57afb53b1d58fb3012102490c7516c632456fbac5ceca361d87e948025d7578282f5d8c13c58b14565fecffffffff0276540100000000001976a9143be6ec0d904f8b36a3e21ae24795bbb291d43d9788acf19448000000000017a9140b1462b983090bf30cc61b097b1d9533ef5d383f8700000000", "vin": [{"sequence": 4294967295, "scriptSig": {"hex": "47304402203ad2ea008a1c0fcced6692520d4a6f41a74bf12a6216dac53b692c859a7752b9022026991cdf057cbd166e4a83d06f4d4645086f0645167157c8148d66887dafa8f4012103fb1ccee0af8f39964469b5d5a8e0b6eac3ff546eed499166563be404f3a74ce7", "asm": "304402203ad2ea008a1c0fcced6692520d4a6f41a74bf12a6216dac53b692c859a7752b9022026991cdf057cbd166e4a83d06f4d4645086f0645167157c8148d66887dafa8f4[ALL] 03fb1ccee0af8f39964469b5d5a8e0b6eac3ff546eed499166563be404f3a74ce7"}, "vout": 1, "txid": "5fca79705d9aaebc2dcd899ce55e25be621942a70075f3ae74297f4a246bdc09"}, {"sequence": 4294967295, "scriptSig": {"hex": "4730440220259422671190de5ca983b2611691d879aa274b926e0bf0ff3eb63611095b538a02200c04cc530ec9770f9b614513470647c37b98f5f1d9ce90a072eee52e23c734fa012102490c7516c632456fbac5ceca361d87e948025d7578282f5d8c13c58b14565fec", "asm": "30440220259422671190de5ca983b2611691d879aa274b926e0bf0ff3eb63611095b538a02200c04cc530ec9770f9b614513470647c37b98f5f1d9ce90a072eee52e23c734fa[ALL] 02490c7516c632456fbac5ceca361d87e948025d7578282f5d8c13c58b14565fec"}, "vout": 1, "txid": "8785c096300d3994abcf4a7dfaf8477c0777834dcad23af7f02c6daf06650489"}, {"sequence": 4294967295, "scriptSig": {"hex": "473044022006511f00daa587ba9ec43ee0c70d0f2c6ac3375648c7eac8d103ab80d0811802022048b7fa69cfc679ef5501414cd06ab2ae97995aa836a7510db57afb53b1d58fb3012102490c7516c632456fbac5ceca361d87e948025d7578282f5d8c13c58b14565fec", "asm": "3044022006511f00daa587ba9ec43ee0c70d0f2c6ac3375648c7eac8d103ab80d0811802022048b7fa69cfc679ef5501414cd06ab2ae97995aa836a7510db57afb53b1d58fb3[ALL] 02490c7516c632456fbac5ceca361d87e948025d7578282f5d8c13c58b14565fec"}, "vout": 1, "txid": "f28e3d022c32d6f422624f99ecee38869d871f76a240233449a31a0c650284d7"}], "txid": "bb01b9e54e3340c953028ec41401355331e756bdafd6138d60737c509d12641f", "blocktime": 1537870268, "version": 1, "confirmations": 11516, "time": 1537870268, "locktime": 0, "vsize": 517, "size": 517}