{"hash": "0a93942da9985e55a82c1968cd2688879ec5a88ee899dd1409e28e77e90e5108", "blockhash": "00000000000000000024a2167bbff67b0be802c0b01cdd79e6331c2be6459f87", "vout": [{"scriptPubKey": {"reqSigs": 1, "hex": "a914b379977cb382fb04ffa2735bfe80fc1b3e5ec67d87", "addresses": ["3J3zYDwz3JbRfXHz49Mc6xebsdhR9b46NA"], "asm": "OP_HASH160 b379977cb382fb04ffa2735bfe80fc1b3e5ec67d OP_EQUAL", "type": "scripthash"}, "value": 0.01561356, "n": 0}], "hex": "010000000001018fb2ecb424157b423316d3be516cd66e74dd3f08529cac7ed01e0ad1ffc3189001000000171600149c060c4f9f9f1d8fce636f3518e3a8d0ffa6d288ffffffff010cd317000000000017a914b379977cb382fb04ffa2735bfe80fc1b3e5ec67d870247304402203f2eb82bc496b964cd3658be70a73c8152ee6245a6d3e7d44a12e2452b0bda4802204485da34d42dd8fb09e9efe61b1c0f98ca75a60b3321d177a7576f46b7da033f012102358e980ebb92cde12582f0bf4b36d31a86dc7b826575e1fd2bf99229bd2891b200000000", "vin": [{"txinwitness": ["304402203f2eb82bc496b964cd3658be70a73c8152ee6245a6d3e7d44a12e2452b0bda4802204485da34d42dd8fb09e9efe61b1c0f98ca75a60b3321d177a7576f46b7da033f01", "02358e980ebb92cde12582f0bf4b36d31a86dc7b826575e1fd2bf99229bd2891b2"], "sequence": 4294967295, "scriptSig": {"hex": "1600149c060c4f9f9f1d8fce636f3518e3a8d0ffa6d288", "asm": "00149c060c4f9f9f1d8fce636f3518e3a8d0ffa6d288"}, "vout": 1, "txid": "9018c3ffd10a1ed07eac9c52083fdd746ed66c51bed31633427b1524b4ecb28f"}], "txid": "bb06a96f82323433a989f660b22034f03629baefaa6872c92381c80d0c7655c1", "blocktime": 1537870564, "version": 1, "confirmations": 11515, "time": 1537870564, "locktime": 0, "vsize": 134, "size": 215}