{"hash": "bb07e4375869396d1f849856d536e66ac22a9b0456c69c27ebb29e9c234efee5", "blockhash": "00000000000000000017f5eb5941039fbcee6240d03bc1f2f8e35350df66a1d8", "vout": [{"scriptPubKey": {"reqSigs": 1, "hex": "76a914d8543048f861a169ff04be451ce4ed4051a72c6788ac", "addresses": ["1LiqoxqoCfcD74muG1VAzj9Fp6U9akrYeW"], "asm": "OP_DUP OP_HASH160 d8543048f861a169ff04be451ce4ed4051a72c67 OP_EQUALVERIFY OP_CHECKSIG", "type": "pubkeyhash"}, "value": 0.01483338, "n": 0}, {"scriptPubKey": {"reqSigs": 1, "hex": "76a91450a77b9986d828fbb35dd1e0fec3926566ea575588ac", "addresses": ["18MThFrnETjYwUpurj2YtAa125GYK2cBkr"], "asm": "OP_DUP OP_HASH160 50a77b9986d828fbb35dd1e0fec3926566ea5755 OP_EQUALVERIFY OP_CHECKSIG", "type": "pubkeyhash"}, "value": 0.01807483, "n": 1}], "hex": "0100000001bf751d5d83516bf4478b05223da36d5d455c8ddc3bd16da4213701d6a0d81e3e010000006b483045022100eee2109a82f69b7323420dac8945472a62fffa5d467c86df3a9c4069c6c9726e02206c953ee00c028fc7ffe378b75b530c9ab64ba15edd66bcb57283440b874c924f012103aa82a33d0f86757e4bcef35945fe90d9227459c5b2b5126f4a0478a55c2943b4ffffffff024aa21600000000001976a914d8543048f861a169ff04be451ce4ed4051a72c6788ac7b941b00000000001976a91450a77b9986d828fbb35dd1e0fec3926566ea575588ac00000000", "vin": [{"sequence": 4294967295, "scriptSig": {"hex": "483045022100eee2109a82f69b7323420dac8945472a62fffa5d467c86df3a9c4069c6c9726e02206c953ee00c028fc7ffe378b75b530c9ab64ba15edd66bcb57283440b874c924f012103aa82a33d0f86757e4bcef35945fe90d9227459c5b2b5126f4a0478a55c2943b4", "asm": "3045022100eee2109a82f69b7323420dac8945472a62fffa5d467c86df3a9c4069c6c9726e02206c953ee00c028fc7ffe378b75b530c9ab64ba15edd66bcb57283440b874c924f[ALL] 03aa82a33d0f86757e4bcef35945fe90d9227459c5b2b5126f4a0478a55c2943b4"}, "vout": 1, "txid": "3e1ed8a0d6013721a46dd13bdc8d5c455d6da33d22058b47f46b51835d1d75bf"}], "txid": "bb07e4375869396d1f849856d536e66ac22a9b0456c69c27ebb29e9c234efee5", "blocktime": 1537874412, "version": 1, "confirmations": 11467, "time": 1537874412, "locktime": 0, "vsize": 226, "size": 226}