{"hash": "6fecd29f85e819cfd945af6d8664387b68d305a8ec80618c1e5fbd8854041b0f", "blockhash": "00000000000000000018f53835495a110e01622372bf6ae95dc86f2b0ab887b0", "vout": [{"scriptPubKey": {"reqSigs": 1, "hex": "76a914226f180eb80bdbefa1a8244a200c3c6cea94b69a88ac", "addresses": ["14954U5gyYcYWKfXtbSgWpfvxH1hX9UjWt"], "asm": "OP_DUP OP_HASH160 226f180eb80bdbefa1a8244a200c3c6cea94b69a OP_EQUALVERIFY OP_CHECKSIG", "type": "pubkeyhash"}, "value": 0.01, "n": 0}, {"scriptPubKey": {"reqSigs": 1, "hex": "a9140925aedeac685034b720770f170a2fd277abd8d487", "addresses": ["32XP9Y6MS9nYTjaKPVU8kV2NPjw3HntNTN"], "asm": "OP_HASH160 0925aedeac685034b720770f170a2fd277abd8d4 OP_EQUAL", "type": "scripthash"}, "value": 0.01004175, "n": 1}], "hex": "02000000000102e0c2182c38401dbfa6ce638530c4837c743719183350b302a5bb13267a636bf600000000171600145e510896d542d990d1bc13398105aace05a457fcfdffffffeb2494f0b9a523d0fb9c2056b3630afbbe4b66c1a41752bdc59abe0939cd975800000000171600148103ce949020b9e8664cb281fc04798280807ce3fdffffff0240420f00000000001976a914226f180eb80bdbefa1a8244a200c3c6cea94b69a88ac8f520f000000000017a9140925aedeac685034b720770f170a2fd277abd8d4870247304402204a522d7ada6c9a61d668c8d39f6726d7c070e9444e68e660ec9d2bd65fea579702205f4c7c960f6dcd3fa357bdfb7a59fb3e57f110ae98a72bfc98e93183b71abf3e012102baa8a87bdd51abfe5bc7bffdff8b61c7bdb227d72269fec20c673f73b01187bd0247304402202cdf6d683a1cb9f0621f203c031033198475969cb5d5e9368f00a6176e9a5f810220715131544c5de541956741db262bb79f3e5d767f85868d7b7969b96021863b5c0121025c00805f826fa43bd52dc03b84af7da69c5f6fd0ca8482a4927e24bf286e81ef0e490800", "vin": [{"txinwitness": ["304402204a522d7ada6c9a61d668c8d39f6726d7c070e9444e68e660ec9d2bd65fea579702205f4c7c960f6dcd3fa357bdfb7a59fb3e57f110ae98a72bfc98e93183b71abf3e01", "02baa8a87bdd51abfe5bc7bffdff8b61c7bdb227d72269fec20c673f73b01187bd"], "sequence": 4294967293, "scriptSig": {"hex": "1600145e510896d542d990d1bc13398105aace05a457fc", "asm": "00145e510896d542d990d1bc13398105aace05a457fc"}, "vout": 0, "txid": "f66b637a2613bba502b35033181937747c83c4308563cea6bf1d40382c18c2e0"}, {"txinwitness": ["304402202cdf6d683a1cb9f0621f203c031033198475969cb5d5e9368f00a6176e9a5f810220715131544c5de541956741db262bb79f3e5d767f85868d7b7969b96021863b5c01", "025c00805f826fa43bd52dc03b84af7da69c5f6fd0ca8482a4927e24bf286e81ef"], "sequence": 4294967293, "scriptSig": {"hex": "1600148103ce949020b9e8664cb281fc04798280807ce3", "asm": "00148103ce949020b9e8664cb281fc04798280807ce3"}, "vout": 0, "txid": "5897cd3909be9ac5bd5217a4c1664bbefb0a63b356209cfbd023a5b9f09424eb"}], "txid": "bb13d303127004992f02af575d47bd95596dbffd88d5906ffc6bfd635df9a447", "blocktime": 1537870928, "version": 2, "confirmations": 11512, "time": 1537870928, "locktime": 542990, "vsize": 258, "size": 420}