{"hash": "82db9e4a69e679e72570fa9b0fa99a13eff572ac80078b5f8145dbba13320cb0", "blockhash": "000000000000000000022b45ed06c6f4ccd3cf7fb5ba4856ebd2e58215665228", "vout": [{"scriptPubKey": {"reqSigs": 1, "hex": "a914788ed1208644e696ee3431a68d5a2e53ec30c4a187", "addresses": ["3CgU6ezDUMWHDK5TkPMMjvjpbw4ToTsMQz"], "asm": "OP_HASH160 788ed1208644e696ee3431a68d5a2e53ec30c4a1 OP_EQUAL", "type": "scripthash"}, "value": 0.014, "n": 0}, {"scriptPubKey": {"reqSigs": 1, "hex": "a914627aa52932456d89054bd84f86246af3b71b93a887", "addresses": ["3Afj4stdiLG9EktGrMbm252ySonnhYaz8v"], "asm": "OP_HASH160 627aa52932456d89054bd84f86246af3b71b93a8 OP_EQUAL", "type": "scripthash"}, "value": 0.87098905, "n": 1}], "hex": "01000000000101f0ec6929a5bdcaa26236476c9b3eb46bac68df46d5cee25649e340115fc3985a01000000232200205fdd641234b13964b223bd85ad2a4a667ca2099df3d42a1d3b45706a8d81abf0ffffffff02c05c15000000000017a914788ed1208644e696ee3431a68d5a2e53ec30c4a187190631050000000017a914627aa52932456d89054bd84f86246af3b71b93a88704004830450221009a865c4ec64d7c4e7e0e3efa4e4d3bb4b1707a677b29cce03e6efe5c6648965c022035bcf646b9be9410e349f186815785de73acb82401a72c71764681a0e4d46da501483045022100a82ea69efc9e89678d20b4da062269258f4a9b5a0e3c8545db3399e7cdf70b6e02203428e059a98c36dcccb81d00c08f02002b403c4ec058fc65201d8cf4f7052d8c0147522103dcde3832fa56def7b4e783faad1b8af85c3cdd74a5ff4f3c7c216b1075c18da12103c70ae8ded79be1afda73b9ce5ea14a3878908ee160d66a9a717e792bb6db276952ae00000000", "vin": [{"txinwitness": ["", "30450221009a865c4ec64d7c4e7e0e3efa4e4d3bb4b1707a677b29cce03e6efe5c6648965c022035bcf646b9be9410e349f186815785de73acb82401a72c71764681a0e4d46da501", "3045022100a82ea69efc9e89678d20b4da062269258f4a9b5a0e3c8545db3399e7cdf70b6e02203428e059a98c36dcccb81d00c08f02002b403c4ec058fc65201d8cf4f7052d8c01", "522103dcde3832fa56def7b4e783faad1b8af85c3cdd74a5ff4f3c7c216b1075c18da12103c70ae8ded79be1afda73b9ce5ea14a3878908ee160d66a9a717e792bb6db276952ae"], "sequence": 4294967295, "scriptSig": {"hex": "2200205fdd641234b13964b223bd85ad2a4a667ca2099df3d42a1d3b45706a8d81abf0", "asm": "00205fdd641234b13964b223bd85ad2a4a667ca2099df3d42a1d3b45706a8d81abf0"}, "vout": 1, "txid": "5a98c35f1140e34956e2ced546df68ac6bb43e9b6c473662a2cabda52969ecf0"}], "txid": "bb13d0a5207fa7f831c8f3a0b33e4603f4bd2c499cb9cb77515bcd34208a3316", "blocktime": 1537869901, "version": 1, "confirmations": 11523, "time": 1537869901, "locktime": 0, "vsize": 206, "size": 372}