{"hash": "3aeed9c0d72a310c6a3e229e9acd9bd7ad75dc3e84cb5b699754726addac02ac", "blockhash": "0000000000000000001cda96e906b7601b7a6fb1a3b62bca570a9e5d8f4b3de1", "vout": [{"scriptPubKey": {"reqSigs": 1, "hex": "a91498edd5389531b14ac7b863d5044ce8a02ae620d687", "addresses": ["3FddYcyxs7BouhRVbJL8qt8TnnqsAz3xe2"], "asm": "OP_HASH160 98edd5389531b14ac7b863d5044ce8a02ae620d6 OP_EQUAL", "type": "scripthash"}, "value": 8.53823663, "n": 0}, {"scriptPubKey": {"reqSigs": 1, "hex": "76a91495de5979be483e11d6ccd9f7b76ff427a5cfc42c88ac", "addresses": ["1EfS3hUQ85V15uaWu21UmYoebeqUvHHbXZ"], "asm": "OP_DUP OP_HASH160 95de5979be483e11d6ccd9f7b76ff427a5cfc42c OP_EQUALVERIFY OP_CHECKSIG", "type": "pubkeyhash"}, "value": 0.00101352, "n": 1}, {"scriptPubKey": {"reqSigs": 1, "hex": "76a914d3bd4d1b3eac24d7cffd3e376653b0331496e5f688ac", "addresses": ["1LJaMMXkjBVXdeA7kp9Nu2YzScsTbkikeA"], "asm": "OP_DUP OP_HASH160 d3bd4d1b3eac24d7cffd3e376653b0331496e5f6 OP_EQUALVERIFY OP_CHECKSIG", "type": "pubkeyhash"}, "value": 0.00165795, "n": 2}, {"scriptPubKey": {"reqSigs": 1, "hex": "a914ef636b4f409270eb549d4aa741a49ff464c9f17587", "addresses": ["3PWnXA3nJX5YLQ4XVZZ9VXeqiYrEynxEFB"], "asm": "OP_HASH160 ef636b4f409270eb549d4aa741a49ff464c9f175 OP_EQUAL", "type": "scripthash"}, "value": 0.0113202, "n": 3}, {"scriptPubKey": {"reqSigs": 1, "hex": "76a914904682baf96fee6424b03f92c91c809720bfe54b88ac", "addresses": ["1E9rmnrGYDGLBcFeS9ApZU3zR7nQgbK2Ck"], "asm": "OP_DUP OP_HASH160 904682baf96fee6424b03f92c91c809720bfe54b OP_EQUALVERIFY OP_CHECKSIG", "type": "pubkeyhash"}, "value": 0.01462026, "n": 4}, {"scriptPubKey": {"reqSigs": 1, "hex": "76a9143d790ee0f33d775ce9aa6dec6b73f0cda4933a6e88ac", "addresses": ["16c3Ey6xwmYvL2xdUEYJsDi7v1uM78BtrL"], "asm": "OP_DUP OP_HASH160 3d790ee0f33d775ce9aa6dec6b73f0cda4933a6e OP_EQUALVERIFY OP_CHECKSIG", "type": "pubkeyhash"}, "value": 0.00101944, "n": 5}, {"scriptPubKey": {"reqSigs": 1, "hex": "76a9143aca8174fecbd1bb74d244bedb7ba4c55c9b461088ac", "addresses": ["16MrnUAHM6jniWysg4HQaLwXqgKwKVZz5C"], "asm": "OP_DUP OP_HASH160 3aca8174fecbd1bb74d244bedb7ba4c55c9b4610 OP_EQUALVERIFY OP_CHECKSIG", "type": "pubkeyhash"}, "value": 0.00126699, "n": 6}, {"scriptPubKey": {"reqSigs": 1, "hex": "76a914106f54c2e904e4c1694250964c27e44783d5d3a188ac", "addresses": ["12VuBVQE68RmEjto7Jbdqq1PMDM13CFzJf"], "asm": "OP_DUP OP_HASH160 106f54c2e904e4c1694250964c27e44783d5d3a1 OP_EQUALVERIFY OP_CHECKSIG", "type": "pubkeyhash"}, "value": 0.00110984, "n": 7}, {"scriptPubKey": {"reqSigs": 1, "hex": "76a9143ebbe02a271844132c86fb71061bf86513749dd788ac", "addresses": ["16ihxisteL59J7V4PzdDs9YZBBdW4NfZy2"], "asm": "OP_DUP OP_HASH160 3ebbe02a271844132c86fb71061bf86513749dd7 OP_EQUALVERIFY OP_CHECKSIG", "type": "pubkeyhash"}, "value": 0.00362494, "n": 8}, {"scriptPubKey": {"reqSigs": 1, "hex": "a914a03f4a46012d3836593967475380bfd4b669ae3387", "addresses": ["3GJKriFQD8RQh4z1xcwdNjXoT3frWebL1v"], "asm": "OP_HASH160 a03f4a46012d3836593967475380bfd4b669ae33 OP_EQUAL", "type": "scripthash"}, "value": 0.001063, "n": 9}, {"scriptPubKey": {"reqSigs": 1, "hex": "76a914187d0563bf2ad8343485c6863a40d948ad0c094588ac", "addresses": ["13EUzDhi3BAFydoQBLMgg8kzgZjmqcPYAF"], "asm": "OP_DUP OP_HASH160 187d0563bf2ad8343485c6863a40d948ad0c0945 OP_EQUALVERIFY OP_CHECKSIG", "type": "pubkeyhash"}, "value": 0.1025441, "n": 10}, {"scriptPubKey": {"reqSigs": 1, "hex": "a914b959cfc79f2f83ebdb296a270a9b4bb37faddad287", "addresses": ["3Jb4XFiRPDWmKmnjnpgkMbCbsoywEp3MZt"], "asm": "OP_HASH160 b959cfc79f2f83ebdb296a270a9b4bb37faddad2 OP_EQUAL", "type": "scripthash"}, "value": 0.00468805, "n": 11}], "hex": "0200000000010143394e7b4658292d2c1a2a87b8fde2f34cd63a788d9c9b63c14bdc16298ba6120200000017160014a9d90b2d0a1e4effb5f27ee4cbb85b07a8320071feffffff0caf50e4320000000017a91498edd5389531b14ac7b863d5044ce8a02ae620d687e88b0100000000001976a91495de5979be483e11d6ccd9f7b76ff427a5cfc42c88aca3870200000000001976a914d3bd4d1b3eac24d7cffd3e376653b0331496e5f688acf44511000000000017a914ef636b4f409270eb549d4aa741a49ff464c9f175870a4f1600000000001976a914904682baf96fee6424b03f92c91c809720bfe54b88ac388e0100000000001976a9143d790ee0f33d775ce9aa6dec6b73f0cda4933a6e88acebee0100000000001976a9143aca8174fecbd1bb74d244bedb7ba4c55c9b461088ac88b10100000000001976a914106f54c2e904e4c1694250964c27e44783d5d3a188acfe870500000000001976a9143ebbe02a271844132c86fb71061bf86513749dd788ac3c9f01000000000017a914a03f4a46012d3836593967475380bfd4b669ae33874a789c00000000001976a914187d0563bf2ad8343485c6863a40d948ad0c094588ac452707000000000017a914b959cfc79f2f83ebdb296a270a9b4bb37faddad28702483045022100e33c60a7e1fadf047fbcf681a15ca10c678de3442efa1cf1039851e41a99a23602207bf483891cdef98f9e86722a1177af865563d03a9d52be246a3e1894c1eac45f012102e8bd8eb3790ea2d8d39162d07f1093673923d69154396c03469ea28102b0e18513490800", "vin": [{"txinwitness": ["3045022100e33c60a7e1fadf047fbcf681a15ca10c678de3442efa1cf1039851e41a99a23602207bf483891cdef98f9e86722a1177af865563d03a9d52be246a3e1894c1eac45f01", "02e8bd8eb3790ea2d8d39162d07f1093673923d69154396c03469ea28102b0e185"], "sequence": 4294967294, "scriptSig": {"hex": "160014a9d90b2d0a1e4effb5f27ee4cbb85b07a8320071", "asm": "0014a9d90b2d0a1e4effb5f27ee4cbb85b07a8320071"}, "vout": 2, "txid": "12a68b2916dc4bc1639b9c8d783ad64cf3e2fdb8872a1a2c2d2958467b4e3943"}], "txid": "bb20aaa0f9c7b4436d8d0a4776aba54ef7930e936ba586952d3cad789104dae1", "blocktime": 1537873282, "version": 2, "confirmations": 11485, "time": 1537873282, "locktime": 542995, "vsize": 502, "size": 584}