{"hash": "bb214cce12b9ec949d5aee52852a3c11878e0c007f068140200075dbbf4c9484", "blockhash": "0000000000000000000e13cef7c366c0283d82e591d1acd082e914b08063cdf1", "vout": [{"scriptPubKey": {"reqSigs": 1, "hex": "a914b9c6fc9eabd7cc813b784b8e00c0878a054ee01b87", "addresses": ["3JdKJsqh7uek9uRebfjBrniNwhjhkbvCii"], "asm": "OP_HASH160 b9c6fc9eabd7cc813b784b8e00c0878a054ee01b OP_EQUAL", "type": "scripthash"}, "value": 0.00564, "n": 0}, {"scriptPubKey": {"reqSigs": 1, "hex": "76a9149b42ccf14b82e7123836f41cb0a7d76616c4369088ac", "addresses": ["1F9wm7qCMuwqtzFUdkgS4m3PDth1iFxvF6"], "asm": "OP_DUP OP_HASH160 9b42ccf14b82e7123836f41cb0a7d76616c43690 OP_EQUALVERIFY OP_CHECKSIG", "type": "pubkeyhash"}, "value": 0.00039867, "n": 1}], "hex": "01000000017a14595dafa3459648d7733e19503241ab45e0b678b60b7a10728572e216aaea000000006b48304502210082c999637acd5b73d700975df16aa33fba331bdb4476b3b2c5e4f5496c7884420220380bccd875c8a1afe9af2d4e9b2304ac374836dce7f6b61d8569f63bb2a3a210012102eedc8109ed31281d590acce885adc14021db4eba93a4d02343a9609c89b00461ffffffff02209b08000000000017a914b9c6fc9eabd7cc813b784b8e00c0878a054ee01b87bb9b0000000000001976a9149b42ccf14b82e7123836f41cb0a7d76616c4369088ac00000000", "vin": [{"sequence": 4294967295, "scriptSig": {"hex": "48304502210082c999637acd5b73d700975df16aa33fba331bdb4476b3b2c5e4f5496c7884420220380bccd875c8a1afe9af2d4e9b2304ac374836dce7f6b61d8569f63bb2a3a210012102eedc8109ed31281d590acce885adc14021db4eba93a4d02343a9609c89b00461", "asm": "304502210082c999637acd5b73d700975df16aa33fba331bdb4476b3b2c5e4f5496c7884420220380bccd875c8a1afe9af2d4e9b2304ac374836dce7f6b61d8569f63bb2a3a210[ALL] 02eedc8109ed31281d590acce885adc14021db4eba93a4d02343a9609c89b00461"}, "vout": 0, "txid": "eaaa16e2728572107a0bb678b6e045ab413250193e73d7489645a3af5d59147a"}], "txid": "bb214cce12b9ec949d5aee52852a3c11878e0c007f068140200075dbbf4c9484", "blocktime": 1537871767, "version": 1, "confirmations": 11490, "time": 1537871767, "locktime": 0, "vsize": 224, "size": 224}