{"hash": "bb231b8e661aee63eac7c8084b86fb02706d519cada6fd1cbd56f96e3df724dc", "blockhash": "0000000000000000001cda96e906b7601b7a6fb1a3b62bca570a9e5d8f4b3de1", "vout": [{"scriptPubKey": {"type": "nulldata", "hex": "6a4c50000077d200012ce9c442b200aff379bfb7e25b23cc0f42c2fc38c5e5bf9ae76da98a211a673ac5ea5c8ec9686083e0aacbeee2815baa14c20613fff26d9e18171d100759d4ba30d2c37bb011d97e02cf", "asm": "OP_RETURN 000077d200012ce9c442b200aff379bfb7e25b23cc0f42c2fc38c5e5bf9ae76da98a211a673ac5ea5c8ec9686083e0aacbeee2815baa14c20613fff26d9e18171d100759d4ba30d2c37bb011d97e02cf"}, "value": 0.0, "n": 0}, {"scriptPubKey": {"reqSigs": 1, "hex": "76a914f630f3e0d8ccf8b763c4ab931b902dd8df298a5a88ac", "addresses": ["1PSjsUqkVsfqsptFessvbiHnhTGFwn2qjd"], "asm": "OP_DUP OP_HASH160 f630f3e0d8ccf8b763c4ab931b902dd8df298a5a OP_EQUALVERIFY OP_CHECKSIG", "type": "pubkeyhash"}, "value": 0.00637761, "n": 1}], "hex": "01000000013941a41a16e09abcf1469e5b89af4b1c44a87f9ee4977437561078fd80eca70e010000006a473044022039d63ee33862bb7d62837de53bb094ddf5398745104be887b31efc11b0cabb3602202af74eae60ea46824f406cb6c4fb9c0753306304811f812861afec11c907e6390121039cf2dd9639941feffb35a139edcb79f9e63236c15b764b6c756c992c0112b756ffffffff020000000000000000536a4c50000077d200012ce9c442b200aff379bfb7e25b23cc0f42c2fc38c5e5bf9ae76da98a211a673ac5ea5c8ec9686083e0aacbeee2815baa14c20613fff26d9e18171d100759d4ba30d2c37bb011d97e02cf41bb0900000000001976a914f630f3e0d8ccf8b763c4ab931b902dd8df298a5a88ac00000000", "vin": [{"sequence": 4294967295, "scriptSig": {"hex": "473044022039d63ee33862bb7d62837de53bb094ddf5398745104be887b31efc11b0cabb3602202af74eae60ea46824f406cb6c4fb9c0753306304811f812861afec11c907e6390121039cf2dd9639941feffb35a139edcb79f9e63236c15b764b6c756c992c0112b756", "asm": "3044022039d63ee33862bb7d62837de53bb094ddf5398745104be887b31efc11b0cabb3602202af74eae60ea46824f406cb6c4fb9c0753306304811f812861afec11c907e639[ALL] 039cf2dd9639941feffb35a139edcb79f9e63236c15b764b6c756c992c0112b756"}, "vout": 1, "txid": "0ea7ec80fd781056377497e49e7fa8441c4baf895b9e46f1bc9ae0161aa44139"}], "txid": "bb231b8e661aee63eac7c8084b86fb02706d519cada6fd1cbd56f96e3df724dc", "blocktime": 1537873282, "version": 1, "confirmations": 11484, "time": 1537873282, "locktime": 0, "vsize": 283, "size": 283}