{"hash": "bb2542aee1bb255dbb2249e16da8bb5b017fb2ab344df643d83918a58f6de189", "blockhash": "0000000000000000000baef3f32e3676a92c3b2e5da21b426e4f302fc371ce76", "vout": [{"scriptPubKey": {"reqSigs": 1, "hex": "76a914888e800f04ab832015efba8a1bd371060caf873e88ac", "addresses": ["1DT3cBMGBEGuLMvRCTSSyNTrESt4bUFSd5"], "asm": "OP_DUP OP_HASH160 888e800f04ab832015efba8a1bd371060caf873e OP_EQUALVERIFY OP_CHECKSIG", "type": "pubkeyhash"}, "value": 4.42e-05, "n": 0}, {"scriptPubKey": {"reqSigs": 1, "hex": "76a9143a86bec71f4d2a0cd915bcb2e18cefcb253cbe4488ac", "addresses": ["16LTcPYDMoZXEvYiaQw76xwR4UjQp7VntX"], "asm": "OP_DUP OP_HASH160 3a86bec71f4d2a0cd915bcb2e18cefcb253cbe44 OP_EQUALVERIFY OP_CHECKSIG", "type": "pubkeyhash"}, "value": 0.0009, "n": 1}], "hex": "01000000018f7e5f44740e3f11ce7d1b96414166c78f4542a0e8b02d1339d626061bb705e4000000006b483045022100823fe7d67a1c7645dea55b579cc7613df6461a03349e60c126729be9bc5a6d5102206684a94b60bb05f92304eea3ff7d6ee10970751a43481e5d7ad9b0064a861f3001210211956959e718c32e8f9990b41cdcef0ed4bad26e063812d55f9a2810e5cec473fdffffff0244110000000000001976a914888e800f04ab832015efba8a1bd371060caf873e88ac905f0100000000001976a9143a86bec71f4d2a0cd915bcb2e18cefcb253cbe4488ac16490800", "vin": [{"sequence": 4294967293, "scriptSig": {"hex": "483045022100823fe7d67a1c7645dea55b579cc7613df6461a03349e60c126729be9bc5a6d5102206684a94b60bb05f92304eea3ff7d6ee10970751a43481e5d7ad9b0064a861f3001210211956959e718c32e8f9990b41cdcef0ed4bad26e063812d55f9a2810e5cec473", "asm": "3045022100823fe7d67a1c7645dea55b579cc7613df6461a03349e60c126729be9bc5a6d5102206684a94b60bb05f92304eea3ff7d6ee10970751a43481e5d7ad9b0064a861f30[ALL] 0211956959e718c32e8f9990b41cdcef0ed4bad26e063812d55f9a2810e5cec473"}, "vout": 0, "txid": "e405b71b0626d639132db0e8a042458fc7664141961b7dce113f0e74445f7e8f"}], "txid": "bb2542aee1bb255dbb2249e16da8bb5b017fb2ab344df643d83918a58f6de189", "blocktime": 1537876114, "version": 1, "confirmations": 11462, "time": 1537876114, "locktime": 542998, "vsize": 226, "size": 226}