{"hash": "2cbe2c0f60f954c018dedd86e1d830941134cc84eedce0b66db762bc52ee6083", "blockhash": "0000000000000000000e13cef7c366c0283d82e591d1acd082e914b08063cdf1", "vout": [{"scriptPubKey": {"reqSigs": 1, "hex": "a91473526abcaa73f1ff18ac04349af2d42865816ed987", "addresses": ["3CCnN2uhuRk8S65csPYtwAZf56F2Zzgkd4"], "asm": "OP_HASH160 73526abcaa73f1ff18ac04349af2d42865816ed9 OP_EQUAL", "type": "scripthash"}, "value": 0.01479598, "n": 0}], "hex": "02000000000101531ec398157a7f37b794e64617552644e495a5cdf16ebb36eb846fa8332757b500000000171600142d0e5aa605f44fc5497048dbabdba95aa9b8e25fffffffff01ae9316000000000017a91473526abcaa73f1ff18ac04349af2d42865816ed987024730440220576cfe3b2e9c8bdabf99ba264dd16a76441613181463652a936f9b90921ff76c02200622fc6e3041054010695e4d73ea53041c5ad300aa47750d2050028445a7c085012102f087810748df30d0c6730ddfce18a2f5ea150911eaa4d3f875ceb5e496df561f00000000", "vin": [{"txinwitness": ["30440220576cfe3b2e9c8bdabf99ba264dd16a76441613181463652a936f9b90921ff76c02200622fc6e3041054010695e4d73ea53041c5ad300aa47750d2050028445a7c08501", "02f087810748df30d0c6730ddfce18a2f5ea150911eaa4d3f875ceb5e496df561f"], "sequence": 4294967295, "scriptSig": {"hex": "1600142d0e5aa605f44fc5497048dbabdba95aa9b8e25f", "asm": "00142d0e5aa605f44fc5497048dbabdba95aa9b8e25f"}, "vout": 0, "txid": "b5572733a86f84eb36bb6ef1cda595e44426551746e694b7377f7a1598c31e53"}], "txid": "bb25eccdd7a424985302ba879f398a40c5f0ef9b713e4aa80154dc6689ce1199", "blocktime": 1537871767, "version": 2, "confirmations": 11490, "time": 1537871767, "locktime": 0, "vsize": 134, "size": 215}