{"hash": "b6a13d7f970c27be96229156c0f8323ecc1cca6000fb8185e9333d8d100b35d3", "blockhash": "0000000000000000000dcc0f55137456b1a82d3642486a52398922ac4d620174", "vout": [{"scriptPubKey": {"reqSigs": 1, "hex": "76a91473a0fec3c9e26a3e3a3efc8596bd7d7e1836a9d088ac", "addresses": ["1BYPaCgPPkuRi54PcR13ha2b1UkdHcv1zJ"], "asm": "OP_DUP OP_HASH160 73a0fec3c9e26a3e3a3efc8596bd7d7e1836a9d0 OP_EQUALVERIFY OP_CHECKSIG", "type": "pubkeyhash"}, "value": 0.00172756, "n": 0}, {"scriptPubKey": {"reqSigs": 1, "hex": "a9149649ad6d2730bb28020a268d9d80df10a9f74ad487", "addresses": ["3FPfYWwfMfKMGY7fuPHvz2b73RhTNGzsm3"], "asm": "OP_HASH160 9649ad6d2730bb28020a268d9d80df10a9f74ad4 OP_EQUAL", "type": "scripthash"}, "value": 13.98066285, "n": 1}], "hex": "01000000000101a72cf9c82f983fc411e871790c21df3e9ddee85cfc58f46330fd2b79d1c5375101000000232200207768efcc1e5eb3d28410fac3f45831004c860cc24cddd940a616b34324823fceffffffff02d4a20200000000001976a91473a0fec3c9e26a3e3a3efc8596bd7d7e1836a9d088ac6dcc54530000000017a9149649ad6d2730bb28020a268d9d80df10a9f74ad4870400483045022100decdbc7a0e161ae99d6a1301f858a82dd061b64072aa989fd49df6c2cd26b77002200fd89322d3abc115b0f54bb9bbfeb761131e4fe77ba7bf0a42038114be8dd5a60147304402204843300877832d986f7b7b39e139be51fad94a26bfb9c8bbc4ac395a6dd3e1bc02200d72dace5d253925a77768b1e9a83a6de6bd085e65d02e26662586780ed511f30147522102529d5d1f6733ab45d9d50e07db42c7f6b967ae321c38b726c2247f149959b8262103d0c936a5988dd8421c63240496b723b0ec42400c38b9350e32c2eb4f47d8796952ae00000000", "vin": [{"txinwitness": ["", "3045022100decdbc7a0e161ae99d6a1301f858a82dd061b64072aa989fd49df6c2cd26b77002200fd89322d3abc115b0f54bb9bbfeb761131e4fe77ba7bf0a42038114be8dd5a601", "304402204843300877832d986f7b7b39e139be51fad94a26bfb9c8bbc4ac395a6dd3e1bc02200d72dace5d253925a77768b1e9a83a6de6bd085e65d02e26662586780ed511f301", "522102529d5d1f6733ab45d9d50e07db42c7f6b967ae321c38b726c2247f149959b8262103d0c936a5988dd8421c63240496b723b0ec42400c38b9350e32c2eb4f47d8796952ae"], "sequence": 4294967295, "scriptSig": {"hex": "2200207768efcc1e5eb3d28410fac3f45831004c860cc24cddd940a616b34324823fce", "asm": "00207768efcc1e5eb3d28410fac3f45831004c860cc24cddd940a616b34324823fce"}, "vout": 1, "txid": "5137c5d1792bfd3063f458fc5ce8de9d3edf210c7971e811c43f982fc8f92ca7"}], "txid": "bb2bad9599586e90aa1287eeffc275b50e42a88a50a6d9e7f3ae8107cab1ce0b", "blocktime": 1537870268, "version": 1, "confirmations": 11518, "time": 1537870268, "locktime": 0, "vsize": 208, "size": 373}