{"hash": "bb355b1a2c97878f5bc24e844fb7836bf4c4145b1e53aa73bd65b20820a376cd", "blockhash": "0000000000000000000e13cef7c366c0283d82e591d1acd082e914b08063cdf1", "vout": [{"scriptPubKey": {"type": "nulldata", "hex": "6a146f6d6e69000000000000001f00000133d34d0500", "asm": "OP_RETURN 6f6d6e69000000000000001f00000133d34d0500"}, "value": 0.0, "n": 0}, {"scriptPubKey": {"reqSigs": 1, "hex": "76a9147dff871b76f1f4989d484ab660a8b710f062176388ac", "addresses": ["1CVDaMpjtaAWu41rGMYUtUBRJo6eb9Hb2H"], "asm": "OP_DUP OP_HASH160 7dff871b76f1f4989d484ab660a8b710f0621763 OP_EQUALVERIFY OP_CHECKSIG", "type": "pubkeyhash"}, "value": 9.39e-06, "n": 1}, {"scriptPubKey": {"reqSigs": 1, "hex": "76a914628a073fe8ce7a239e56a9158ebd5d291a8bc0d988ac", "addresses": ["19z2aBA5FYQm9bK1Q5UW5u7bJWHbZZ4Z5E"], "asm": "OP_DUP OP_HASH160 628a073fe8ce7a239e56a9158ebd5d291a8bc0d9 OP_EQUALVERIFY OP_CHECKSIG", "type": "pubkeyhash"}, "value": 5.46e-06, "n": 2}], "hex": "01000000044d5822c82547111e9e105706be5a3c6174432ba04223ccab248a789d337dff63000000006a473044022040f6322af0b837972849c957c41c6529380bd6a9c46610813ea3aff00cd81563022073bff9754038b100657df0d8a00b5c3c491cf8171151326471b9ab12f471ba7a012102eff3f37bd4cd8d3aac49315db56c25d6d097499b7317b80495830e0066875a43feffffff289cb6a4e5241bbb6f087295f25100ff9d31bdb1939ae0104870c5e79a43429f010000006b483045022100c498dc41a17092e63a8d34d10c01c1e975361d7f9749a43a3d7bbfdb9535bdd602200e4ae995e00b5cd32ce8be1ad321b2040f650cb2cd6672fd9edcea80df9ecfb5012102eff3f37bd4cd8d3aac49315db56c25d6d097499b7317b80495830e0066875a43feffffff7cb17d00221fc298041456cd47240247301f36c2a95c5381d7e348820bd59a5b000000006b48304502210082dcf5b007a2160afd8ad07b382af1dfde19b8313e260bc06481dd3aba75bbd2022023e0b50a82419a96510d34900ec6a208871abf288c8b683efcf8e94ed78b23ee012102eff3f37bd4cd8d3aac49315db56c25d6d097499b7317b80495830e0066875a43feffffffc313af5b6845174284d2fd140e4701df69573ff7b81083a86dc6c42b2f3b29e0000000006a47304402204a81b441a1b3edba26b4d7446d5512aa4789dbb47fc12ff84133382f36dad4a702202aaa7c9ed2d23852de0b30227ffe73b0c2cd5b3ab076ec3bcb51c565935f17df012102eff3f37bd4cd8d3aac49315db56c25d6d097499b7317b80495830e0066875a43feffffff030000000000000000166a146f6d6e69000000000000001f00000133d34d0500ab030000000000001976a9147dff871b76f1f4989d484ab660a8b710f062176388ac22020000000000001976a914628a073fe8ce7a239e56a9158ebd5d291a8bc0d988ac10490800", "vin": [{"sequence": 4294967294, "scriptSig": {"hex": "473044022040f6322af0b837972849c957c41c6529380bd6a9c46610813ea3aff00cd81563022073bff9754038b100657df0d8a00b5c3c491cf8171151326471b9ab12f471ba7a012102eff3f37bd4cd8d3aac49315db56c25d6d097499b7317b80495830e0066875a43", "asm": "3044022040f6322af0b837972849c957c41c6529380bd6a9c46610813ea3aff00cd81563022073bff9754038b100657df0d8a00b5c3c491cf8171151326471b9ab12f471ba7a[ALL] 02eff3f37bd4cd8d3aac49315db56c25d6d097499b7317b80495830e0066875a43"}, "vout": 0, "txid": "63ff7d339d788a24abcc2342a02b4374613c5abe0657109e1e114725c822584d"}, {"sequence": 4294967294, "scriptSig": {"hex": "483045022100c498dc41a17092e63a8d34d10c01c1e975361d7f9749a43a3d7bbfdb9535bdd602200e4ae995e00b5cd32ce8be1ad321b2040f650cb2cd6672fd9edcea80df9ecfb5012102eff3f37bd4cd8d3aac49315db56c25d6d097499b7317b80495830e0066875a43", "asm": "3045022100c498dc41a17092e63a8d34d10c01c1e975361d7f9749a43a3d7bbfdb9535bdd602200e4ae995e00b5cd32ce8be1ad321b2040f650cb2cd6672fd9edcea80df9ecfb5[ALL] 02eff3f37bd4cd8d3aac49315db56c25d6d097499b7317b80495830e0066875a43"}, "vout": 1, "txid": "9f42439ae7c5704810e09a93b1bd319dff0051f29572086fbb1b24e5a4b69c28"}, {"sequence": 4294967294, "scriptSig": {"hex": "48304502210082dcf5b007a2160afd8ad07b382af1dfde19b8313e260bc06481dd3aba75bbd2022023e0b50a82419a96510d34900ec6a208871abf288c8b683efcf8e94ed78b23ee012102eff3f37bd4cd8d3aac49315db56c25d6d097499b7317b80495830e0066875a43", "asm": "304502210082dcf5b007a2160afd8ad07b382af1dfde19b8313e260bc06481dd3aba75bbd2022023e0b50a82419a96510d34900ec6a208871abf288c8b683efcf8e94ed78b23ee[ALL] 02eff3f37bd4cd8d3aac49315db56c25d6d097499b7317b80495830e0066875a43"}, "vout": 0, "txid": "5b9ad50b8248e3d781535ca9c2361f3047022447cd56140498c21f22007db17c"}, {"sequence": 4294967294, "scriptSig": {"hex": "47304402204a81b441a1b3edba26b4d7446d5512aa4789dbb47fc12ff84133382f36dad4a702202aaa7c9ed2d23852de0b30227ffe73b0c2cd5b3ab076ec3bcb51c565935f17df012102eff3f37bd4cd8d3aac49315db56c25d6d097499b7317b80495830e0066875a43", "asm": "304402204a81b441a1b3edba26b4d7446d5512aa4789dbb47fc12ff84133382f36dad4a702202aaa7c9ed2d23852de0b30227ffe73b0c2cd5b3ab076ec3bcb51c565935f17df[ALL] 02eff3f37bd4cd8d3aac49315db56c25d6d097499b7317b80495830e0066875a43"}, "vout": 0, "txid": "e0293b2f2bc4c66da88310b8f73f5769df01470e14fdd284421745685baf13c3"}], "txid": "bb355b1a2c97878f5bc24e844fb7836bf4c4145b1e53aa73bd65b20820a376cd", "blocktime": 1537871767, "version": 1, "confirmations": 11495, "time": 1537871767, "locktime": 542992, "vsize": 699, "size": 699}