{"hash": "fe2fcfbe8d7a0aa6547376f9d072e79c4ae3d25a2a086a77a5257798d9aea900", "blockhash": "0000000000000000000dcc0f55137456b1a82d3642486a52398922ac4d620174", "vout": [{"scriptPubKey": {"reqSigs": 1, "hex": "a914f9fc9e6c46224698ccb68876c10fa0af9fd33b8087", "addresses": ["3QUpoaFvQazU1PzB1Zm6QpeLkwEN9oJZnm"], "asm": "OP_HASH160 f9fc9e6c46224698ccb68876c10fa0af9fd33b80 OP_EQUAL", "type": "scripthash"}, "value": 0.00030678, "n": 0}, {"scriptPubKey": {"reqSigs": 1, "hex": "a91408c364340a91e77e4376b26fdad3b5aedc5661f787", "addresses": ["32VMQ7Th4qGhbDYY68FZrfSF9hTbsPivgt"], "asm": "OP_HASH160 08c364340a91e77e4376b26fdad3b5aedc5661f7 OP_EQUAL", "type": "scripthash"}, "value": 0.08400006, "n": 1}], "hex": "0100000000010180e5d6dce00602d24baec111b293e7c95abeb3284160c377c46c8b0d0a649085010000002322002027561ef61439ff4994ea3793249bbb358319edb59fff63c1eeada48f299e81b5ffffffff02d67700000000000017a914f9fc9e6c46224698ccb68876c10fa0af9fd33b8087862c80000000000017a91408c364340a91e77e4376b26fdad3b5aedc5661f78704004830450221008ec4a633a056fe283eaf86710f78c7006533e9f792fd363074c5d8cfac96d44b02201fa4f3b85d21621c5081dc31dd83fb2d97cab506bf10f138f44787f95cd60ba90147304402201e1b6e0802bdda37265e77959a01c2a4bf776347fd0a66eb5663ac272d7a5b7f022045004fd41fbcb846c083e52a11d5e4df319906ecd670cdfa65ed205530d858880147522102f484437eae67e7d1f9cf7235bd52510c99f379408a1f6fe737011d4bc259358a2103871fc2ca08e6950b38867e8e6a0e94ee625223d3aa0df5c65f414c6d784467e252ae00000000", "vin": [{"txinwitness": ["", "30450221008ec4a633a056fe283eaf86710f78c7006533e9f792fd363074c5d8cfac96d44b02201fa4f3b85d21621c5081dc31dd83fb2d97cab506bf10f138f44787f95cd60ba901", "304402201e1b6e0802bdda37265e77959a01c2a4bf776347fd0a66eb5663ac272d7a5b7f022045004fd41fbcb846c083e52a11d5e4df319906ecd670cdfa65ed205530d8588801", "522102f484437eae67e7d1f9cf7235bd52510c99f379408a1f6fe737011d4bc259358a2103871fc2ca08e6950b38867e8e6a0e94ee625223d3aa0df5c65f414c6d784467e252ae"], "sequence": 4294967295, "scriptSig": {"hex": "22002027561ef61439ff4994ea3793249bbb358319edb59fff63c1eeada48f299e81b5", "asm": "002027561ef61439ff4994ea3793249bbb358319edb59fff63c1eeada48f299e81b5"}, "vout": 1, "txid": "8590640a0d8b6cc477c3604128b3be5ac9e793b211c1ae4bd20206e0dcd6e580"}], "txid": "bb37e64f528ce84872bfd75dc5405351ec2f6799a132998a43292bdd15de7083", "blocktime": 1537870268, "version": 1, "confirmations": 11518, "time": 1537870268, "locktime": 0, "vsize": 206, "size": 371}