{"hash": "994d4d78661058969c01bc84f7c2ff14e2457434d7c2b05f43cc5e31636cecc6", "blockhash": "0000000000000000001cda96e906b7601b7a6fb1a3b62bca570a9e5d8f4b3de1", "vout": [{"scriptPubKey": {"reqSigs": 1, "hex": "a914c91552a1934dd53be0f4726a4d1a0429bfbb5ead87", "addresses": ["3L2FHdjszEuD4jASVUS3MhC9zeZ7bdLL8a"], "asm": "OP_HASH160 c91552a1934dd53be0f4726a4d1a0429bfbb5ead OP_EQUAL", "type": "scripthash"}, "value": 0.01005177, "n": 0}, {"scriptPubKey": {"reqSigs": 1, "hex": "76a9143b385c873d986cdc512317e30e1c87a8c3f9529888ac", "addresses": ["16Q8PP1JxnCafwp9cJxdVRuLiLAUmEWB4L"], "asm": "OP_DUP OP_HASH160 3b385c873d986cdc512317e30e1c87a8c3f95298 OP_EQUALVERIFY OP_CHECKSIG", "type": "pubkeyhash"}, "value": 0.01620836, "n": 1}], "hex": "020000000001025e38e7a5ad617865481a2b70b2f88fb9c981ef819be8f513f651d448474082880000000017160014673854c46800f37b91608ff5144151e6371c7764feffffffe43d781bfee874bc0df218be8abdefa6ce9f1bd3b583ad3e205a7fb3c1bcd5b200000000171600142836ba94e6e72097be84b8e25a3f3ee4ca5ea519feffffff0279560f000000000017a914c91552a1934dd53be0f4726a4d1a0429bfbb5ead8764bb1800000000001976a9143b385c873d986cdc512317e30e1c87a8c3f9529888ac0247304402201a877cff4fcb1e7b9880e9a8e21e1c7e53a76c4ff0304e3ba710d6ab6536548b02207e074cff516932d33d934813ae45fc27b7f68b99294803a7248b519a27c0abc101210376116dda93e7b93a22459d5681476bb15d22920891a126a96a49beea217d66600248304502210097a1a1edb2aa0e459c1c99708f6916c4cc6733ef4b15375b72a97f83feedac2c022036cdc845f3ec7a643424ba8711265111660240d3d0cdbbd1b3e4ee1f913f200701210259518dd2a99362729bd7a4029b4d3388f469887fb34adeb788ccf657c06db8f313490800", "vin": [{"txinwitness": ["304402201a877cff4fcb1e7b9880e9a8e21e1c7e53a76c4ff0304e3ba710d6ab6536548b02207e074cff516932d33d934813ae45fc27b7f68b99294803a7248b519a27c0abc101", "0376116dda93e7b93a22459d5681476bb15d22920891a126a96a49beea217d6660"], "sequence": 4294967294, "scriptSig": {"hex": "160014673854c46800f37b91608ff5144151e6371c7764", "asm": "0014673854c46800f37b91608ff5144151e6371c7764"}, "vout": 0, "txid": "8882404748d451f613f5e89b81ef81c9b98ff8b2702b1a48657861ada5e7385e"}, {"txinwitness": ["304502210097a1a1edb2aa0e459c1c99708f6916c4cc6733ef4b15375b72a97f83feedac2c022036cdc845f3ec7a643424ba8711265111660240d3d0cdbbd1b3e4ee1f913f200701", "0259518dd2a99362729bd7a4029b4d3388f469887fb34adeb788ccf657c06db8f3"], "sequence": 4294967294, "scriptSig": {"hex": "1600142836ba94e6e72097be84b8e25a3f3ee4ca5ea519", "asm": "00142836ba94e6e72097be84b8e25a3f3ee4ca5ea519"}, "vout": 0, "txid": "b2d5bcc1b37f5a203ead83b5d31b9fcea6efbd8abe18f20dbc74e8fe1b783de4"}], "txid": "bb39f202b38e3f19e58005f08aa33cf7ea7ca696673606802ee678e6913cc07d", "blocktime": 1537873282, "version": 2, "confirmations": 11480, "time": 1537873282, "locktime": 542995, "vsize": 259, "size": 421}