{"hash": "bb3b5eac39c603ba27e4680833c69f3c30851fd367c61cfeb20830aa0098a7ed", "blockhash": "0000000000000000000e13cef7c366c0283d82e591d1acd082e914b08063cdf1", "vout": [{"scriptPubKey": {"reqSigs": 1, "hex": "a914bf69f33885c61001f874aefde424d23da7999f5d87", "addresses": ["3K97uix16baaunEYKsLKuhaFL3NtmmXDnu"], "asm": "OP_HASH160 bf69f33885c61001f874aefde424d23da7999f5d OP_EQUAL", "type": "scripthash"}, "value": 6.8e-06, "n": 0}], "hex": "0100000001a44fb6d35864d1c1a98c8839fc2ae0e63e872e1e2ceefe0f8eba1843f4b1690a000000006b4830450221009e85308cfce8968bfefe90109e528fc8c208ea1408e7b60dc09d29b989e6544e0220113207905dd0e85e61b9ddf2b6d3e4a645e18e6d66bb9dcd451cdbaa245e366701210330894271e6ae659f867dce2f46cfdb9364a66129b72e13f236eab3bca6486448ffffffff01a80200000000000017a914bf69f33885c61001f874aefde424d23da7999f5d8700000000", "vin": [{"sequence": 4294967295, "scriptSig": {"hex": "4830450221009e85308cfce8968bfefe90109e528fc8c208ea1408e7b60dc09d29b989e6544e0220113207905dd0e85e61b9ddf2b6d3e4a645e18e6d66bb9dcd451cdbaa245e366701210330894271e6ae659f867dce2f46cfdb9364a66129b72e13f236eab3bca6486448", "asm": "30450221009e85308cfce8968bfefe90109e528fc8c208ea1408e7b60dc09d29b989e6544e0220113207905dd0e85e61b9ddf2b6d3e4a645e18e6d66bb9dcd451cdbaa245e3667[ALL] 0330894271e6ae659f867dce2f46cfdb9364a66129b72e13f236eab3bca6486448"}, "vout": 0, "txid": "0a69b1f44318ba8e0ffeee2c1e2e873ee6e02afc39888ca9c1d16458d3b64fa4"}], "txid": "bb3b5eac39c603ba27e4680833c69f3c30851fd367c61cfeb20830aa0098a7ed", "blocktime": 1537871767, "version": 1, "confirmations": 11495, "time": 1537871767, "locktime": 0, "vsize": 190, "size": 190}