{"hash": "a37f65c688dfd735bbcda5041ec332663611c81ec6923756f2cc105a36b089bc", "blockhash": "000000000000000000022b45ed06c6f4ccd3cf7fb5ba4856ebd2e58215665228", "vout": [{"scriptPubKey": {"reqSigs": 1, "hex": "0014da03dc8aa308fa8951deccd47b88e19e2b14ac42", "addresses": ["bc1qmgpaez4rpragj5w7en28hz8pnc43ftzzcwnvvr"], "asm": "0 da03dc8aa308fa8951deccd47b88e19e2b14ac42", "type": "witness_v0_keyhash"}, "value": 0.00054913, "n": 0}, {"scriptPubKey": {"reqSigs": 1, "hex": "76a914be1fb42e057452f4cb032dc356f18539c3b202f988ac", "addresses": ["1JLHNGZcDYqozyxrbMmjUtaKpk3Lf4zUVY"], "asm": "OP_DUP OP_HASH160 be1fb42e057452f4cb032dc356f18539c3b202f9 OP_EQUALVERIFY OP_CHECKSIG", "type": "pubkeyhash"}, "value": 0.0015, "n": 1}], "hex": "01000000000101c1faf29f91d5076ef3127f522f6e35173fd3bddaabe7247ff9f7894b0fa8ddfc00000000171600149db309e76e7f726befe9becc1d8b2e1bd525fe30ffffffff0281d6000000000000160014da03dc8aa308fa8951deccd47b88e19e2b14ac42f0490200000000001976a914be1fb42e057452f4cb032dc356f18539c3b202f988ac024730440220695c0122ece5ca0626b6caef62d7af2e413e4923dce641ffae5a4015ff5c2c9a02205511f0072d8b15b0d42038ce9cf64732a964d5ddb5661f5217b3029c12a470a1012103e534bae17b2a69cce9833e9418fffbca55744356faa58450cba15ffa1e32b90300000000", "vin": [{"txinwitness": ["30440220695c0122ece5ca0626b6caef62d7af2e413e4923dce641ffae5a4015ff5c2c9a02205511f0072d8b15b0d42038ce9cf64732a964d5ddb5661f5217b3029c12a470a101", "03e534bae17b2a69cce9833e9418fffbca55744356faa58450cba15ffa1e32b903"], "sequence": 4294967295, "scriptSig": {"hex": "1600149db309e76e7f726befe9becc1d8b2e1bd525fe30", "asm": "00149db309e76e7f726befe9becc1d8b2e1bd525fe30"}, "vout": 0, "txid": "fcdda80f4b89f7f97f24e7abdabdd33f17356e2f527f12f36e07d5919ff2fac1"}], "txid": "bb3f886750305855c1bac43a0767eb73a7181cb46daf4920ea7b2ee3e7ea68d5", "blocktime": 1537869901, "version": 1, "confirmations": 11523, "time": 1537869901, "locktime": 0, "vsize": 167, "size": 248}