{"hash": "5e83568b3b5e2167a4a76bbc3d53eeee87c93365e058765954d975a7b9afb117", "blockhash": "0000000000000000000e13cef7c366c0283d82e591d1acd082e914b08063cdf1", "vout": [{"scriptPubKey": {"reqSigs": 1, "hex": "a914241cdae9f606514c572c4e23eb6e7b2a0a73ef2787", "addresses": ["34yxpLdzm2gavVVnV39r8V2ybAWUDqhRvv"], "asm": "OP_HASH160 241cdae9f606514c572c4e23eb6e7b2a0a73ef27 OP_EQUAL", "type": "scripthash"}, "value": 0.00100408, "n": 0}, {"scriptPubKey": {"reqSigs": 1, "hex": "a914e4df680d1dd87c651c897aad45dc2ff965a8a2ca87", "addresses": ["3NZBcqHiwH5XeEtWnqXRQ3qTK11eCsVrXt"], "asm": "OP_HASH160 e4df680d1dd87c651c897aad45dc2ff965a8a2ca OP_EQUAL", "type": "scripthash"}, "value": 0.2362676, "n": 1}], "hex": "020000000001013b622a08dc37971eed425a69be3d26a0080895f5d9ccd14ab93474ec12334db10100000017160014f417555c001ba4c97f5aff610e54d6a630e0a957feffffff02388801000000000017a914241cdae9f606514c572c4e23eb6e7b2a0a73ef2787088468010000000017a914e4df680d1dd87c651c897aad45dc2ff965a8a2ca8702473044022059d0296bb98c94a0dc65841ebb74983c4837816369f91d6f148aa97e79131b3a02201f4550027c9cbb36d78919e66e574640d1f9af55546cdb75a1424653c831a47301210399c131682384662616cbc201fb57afb10235cf50f8ed74a22824824b8587fd1410490800", "vin": [{"txinwitness": ["3044022059d0296bb98c94a0dc65841ebb74983c4837816369f91d6f148aa97e79131b3a02201f4550027c9cbb36d78919e66e574640d1f9af55546cdb75a1424653c831a47301", "0399c131682384662616cbc201fb57afb10235cf50f8ed74a22824824b8587fd14"], "sequence": 4294967294, "scriptSig": {"hex": "160014f417555c001ba4c97f5aff610e54d6a630e0a957", "asm": "0014f417555c001ba4c97f5aff610e54d6a630e0a957"}, "vout": 1, "txid": "b14d3312ec7434b94ad1ccd9f5950808a0263dbe695a42ed1e9737dc082a623b"}], "txid": "bb41102682bb62e6f673be41374986ad8993b4a3ae8c4347e707ae9f877da53b", "blocktime": 1537871767, "version": 2, "confirmations": 11495, "time": 1537871767, "locktime": 542992, "vsize": 166, "size": 247}