{"hash": "bb41db77ecee43981d3b3ab0f199e420cfbbfd03b003c679769a717f9a280e74", "blockhash": "0000000000000000001e0dab787dd257d1dbfcb92a98c2207d5e1078be1f4165", "vout": [{"scriptPubKey": {"reqSigs": 1, "hex": "76a914311c95581ef75bb33162b61e4733b2b81f92a4b288ac", "addresses": ["15UgMQdhvVQsR8sxqzncg1RMNTu5Ptor6B"], "asm": "OP_DUP OP_HASH160 311c95581ef75bb33162b61e4733b2b81f92a4b2 OP_EQUALVERIFY OP_CHECKSIG", "type": "pubkeyhash"}, "value": 0.04686928, "n": 0}, {"scriptPubKey": {"reqSigs": 1, "hex": "76a9148d85f7f06d59502d5a30917f625308a4b21a3e1588ac", "addresses": ["1DuJmLvaoZYo5NyF27VpTP1J54CbiB3DH4"], "asm": "OP_DUP OP_HASH160 8d85f7f06d59502d5a30917f625308a4b21a3e15 OP_EQUALVERIFY OP_CHECKSIG", "type": "pubkeyhash"}, "value": 0.19176671, "n": 1}], "hex": "010000000184a79ed48ac60e83bdf540d2dcbaf32da060f467419d66ce0d832a5683580fe7010000006b483045022100b1c24efbfafcc10de2e86eefbea0825a3d6cafee96fd8416525f13168fbac1bf0220459bf79bacc7a5e606f2d1b31e09328af610b0f31217d9b527b536bbf97cb224012102f153bcd2aa9bc99543f632dcd6f1695aabc95dbe494af5517aa9442467bba3ddffffffff0250844700000000001976a914311c95581ef75bb33162b61e4733b2b81f92a4b288acdf9c2401000000001976a9148d85f7f06d59502d5a30917f625308a4b21a3e1588ac00000000", "vin": [{"sequence": 4294967295, "scriptSig": {"hex": "483045022100b1c24efbfafcc10de2e86eefbea0825a3d6cafee96fd8416525f13168fbac1bf0220459bf79bacc7a5e606f2d1b31e09328af610b0f31217d9b527b536bbf97cb224012102f153bcd2aa9bc99543f632dcd6f1695aabc95dbe494af5517aa9442467bba3dd", "asm": "3045022100b1c24efbfafcc10de2e86eefbea0825a3d6cafee96fd8416525f13168fbac1bf0220459bf79bacc7a5e606f2d1b31e09328af610b0f31217d9b527b536bbf97cb224[ALL] 02f153bcd2aa9bc99543f632dcd6f1695aabc95dbe494af5517aa9442467bba3dd"}, "vout": 1, "txid": "e70f5883562a830dce669d4167f460a02df3badcd240f5bd830ec68ad49ea784"}], "txid": "bb41db77ecee43981d3b3ab0f199e420cfbbfd03b003c679769a717f9a280e74", "blocktime": 1537872475, "version": 1, "confirmations": 11487, "time": 1537872475, "locktime": 0, "vsize": 226, "size": 226}