{"hash": "3402e8d78cb5aa4c4ed12d39489abb2c60194f8483b443107dda45f087dd7d83", "blockhash": "000000000000000000022b45ed06c6f4ccd3cf7fb5ba4856ebd2e58215665228", "vout": [{"scriptPubKey": {"reqSigs": 1, "hex": "a91483ee2972c7c58df1ee143fde3776757c849e898087", "addresses": ["3DibkTE6U8rpyzugFXhwM88WNj38cg3Np1"], "asm": "OP_HASH160 83ee2972c7c58df1ee143fde3776757c849e8980 OP_EQUAL", "type": "scripthash"}, "value": 0.00038979, "n": 0}, {"scriptPubKey": {"reqSigs": 1, "hex": "0014e5f4f4063ef5fa39769006a6e462c726093a0c81", "addresses": ["bc1quh60gp377harja5sq6nwgck8ycyn5rypy7rdgf"], "asm": "0 e5f4f4063ef5fa39769006a6e462c726093a0c81", "type": "witness_v0_keyhash"}, "value": 1.134e-05, "n": 1}], "hex": "010000000001017eefc75ed62730766445664b036311ab1225bd99b52df90c241949fe3f0653760000000000ffffffff02439800000000000017a91483ee2972c7c58df1ee143fde3776757c849e8980876e04000000000000160014e5f4f4063ef5fa39769006a6e462c726093a0c8102483045022100a1ade7c6a2964d1827145a7906e57e3f3b0d75cab1dedbadf1e756af1a947e7302206fddcf1819af08fa04590cec392d00c172aea8b436443df5709bf883b05e0e7401210261200c1e58de37d212a833a219e401b5dc9be7376adf1bab79bc15aaad9adb9400000000", "vin": [{"txinwitness": ["3045022100a1ade7c6a2964d1827145a7906e57e3f3b0d75cab1dedbadf1e756af1a947e7302206fddcf1819af08fa04590cec392d00c172aea8b436443df5709bf883b05e0e7401", "0261200c1e58de37d212a833a219e401b5dc9be7376adf1bab79bc15aaad9adb94"], "sequence": 4294967295, "scriptSig": {"hex": "", "asm": ""}, "vout": 0, "txid": "7653063ffe4919240cf92db599bd2512ab1163034b664564763027d65ec7ef7e"}], "txid": "bb47d2aa04fb0646fee46b8d1ba345169c918bcf6f9ce6f2587420805f6b8e76", "blocktime": 1537869901, "version": 1, "confirmations": 11523, "time": 1537869901, "locktime": 0, "vsize": 142, "size": 224}