{"hash": "a20092dc584014610e99c426121021e40cac0f495f044b27f4676cb2a4423ca7", "blockhash": "0000000000000000000dcc0f55137456b1a82d3642486a52398922ac4d620174", "vout": [{"scriptPubKey": {"reqSigs": 1, "hex": "76a914bdb8ebd4e17d119e6f74596a555e23fc91d511f388ac", "addresses": ["1JJAEopxhz2uuvqF331gzhgmENGX2KUMPr"], "asm": "OP_DUP OP_HASH160 bdb8ebd4e17d119e6f74596a555e23fc91d511f3 OP_EQUALVERIFY OP_CHECKSIG", "type": "pubkeyhash"}, "value": 0.02146459, "n": 0}, {"scriptPubKey": {"reqSigs": 1, "hex": "76a914e9e3d5fbd9a0a6bee1d9b10748c4b65fb321c0fb88ac", "addresses": ["1NKhP1cVNVfG6StAxcFgLzrUEPa4RQfDsX"], "asm": "OP_DUP OP_HASH160 e9e3d5fbd9a0a6bee1d9b10748c4b65fb321c0fb OP_EQUALVERIFY OP_CHECKSIG", "type": "pubkeyhash"}, "value": 0.00985169, "n": 1}, {"scriptPubKey": {"reqSigs": 1, "hex": "76a9149aa5a5c6ee8f56b33668352fc2bdd52ec211e3c988ac", "addresses": ["1F6hVwKhWB2mewC677teT3VXBGiBF85Hp4"], "asm": "OP_DUP OP_HASH160 9aa5a5c6ee8f56b33668352fc2bdd52ec211e3c9 OP_EQUALVERIFY OP_CHECKSIG", "type": "pubkeyhash"}, "value": 0.0006424, "n": 2}, {"scriptPubKey": {"reqSigs": 1, "hex": "76a914bff135ac21dc3e48800eeba3ab05f064aa9cdd6888ac", "addresses": ["1JVu2BU2QtkJJhKZKFj5vibft8uzvxyxj3"], "asm": "OP_DUP OP_HASH160 bff135ac21dc3e48800eeba3ab05f064aa9cdd68 OP_EQUALVERIFY OP_CHECKSIG", "type": "pubkeyhash"}, "value": 0.00176793, "n": 3}], "hex": "02000000000104376cc0a0cad9223643e074ee51acb95cd7ba6997ec03ac9291709a5a307a064d000000001716001452dbd933a39e04b560bef911baa29345f3d3987dfeffffff51796fc5313ab699577294817e7f50bd328bc3550a432eaa4eb14de74ea9fa2c0100000017160014c81ef396ff7f7644a7d7ae51cd2047b79f153cd0feffffff521aed8d99448c91c0b755b9c89b1ca7bf755dfb59f1acf1b3cda2c7bde9d7280000000017160014b6b1c4cb19ec8c820a78c52599ce06980344b71dfeffffff9c7f948f6d9952a729515ff55ce0a7070eb557c736cc6e27019b00b7804b0274010000006b483045022100831c9fa9371b7a7234ac0224472213ba3911583cacedfe24cf4fc37fd4702079022059f14416388ac95d7e676b87720cce13c9e2b779d699e9a3e2e91cd328a0b68c012103c85b8e5cefbc32ecd7cbef1fa7166f4c49d6b0e3fc4cd6163af0ac7156c08096feffffff049bc02000000000001976a914bdb8ebd4e17d119e6f74596a555e23fc91d511f388ac51080f00000000001976a914e9e3d5fbd9a0a6bee1d9b10748c4b65fb321c0fb88acf0fa0000000000001976a9149aa5a5c6ee8f56b33668352fc2bdd52ec211e3c988ac99b20200000000001976a914bff135ac21dc3e48800eeba3ab05f064aa9cdd6888ac0247304402205b66f9633ef46c5b5378462e625d8ee961bd732b3d87ef063c5e885749856bfe02202a8393542fff99ce2db71b39fb17ae7d2f8e05839fc223ec10c1d6d02c15b7660121032a1d5bd54134b29a8a1837f0f7d9efc99cb3477af35c312009cf35908bd1ceff0247304402204e2998856579e2d17b1f2856d37728bea8ad0a55bf4de418fc08a11a184ce2f302203a03e05c2d95188beb16bbbc5a0bf5214a82e81b1dabe64a6351b9f30013079f012102cd56179e0d0fb16f214ce32d0d39f01a4d7d0509dd127cfa1040870c0efdeac802483045022100f8d78247ea7b3a41750ac9713ab58119e8c8966eacfececeba497021d529152f02203a55b0ffc3e3bd1abbe19c613092daed30df1bdcde402adba5f7429134e6426001210297f3a1559271061c5003027f6a4339d8d5c5a5e96f5156c07fe2697c24700094000c490800", "vin": [{"txinwitness": ["304402205b66f9633ef46c5b5378462e625d8ee961bd732b3d87ef063c5e885749856bfe02202a8393542fff99ce2db71b39fb17ae7d2f8e05839fc223ec10c1d6d02c15b76601", "032a1d5bd54134b29a8a1837f0f7d9efc99cb3477af35c312009cf35908bd1ceff"], "sequence": 4294967294, "scriptSig": {"hex": "16001452dbd933a39e04b560bef911baa29345f3d3987d", "asm": "001452dbd933a39e04b560bef911baa29345f3d3987d"}, "vout": 0, "txid": "4d067a305a9a709192ac03ec9769bad75cb9ac51ee74e0433622d9caa0c06c37"}, {"txinwitness": ["304402204e2998856579e2d17b1f2856d37728bea8ad0a55bf4de418fc08a11a184ce2f302203a03e05c2d95188beb16bbbc5a0bf5214a82e81b1dabe64a6351b9f30013079f01", "02cd56179e0d0fb16f214ce32d0d39f01a4d7d0509dd127cfa1040870c0efdeac8"], "sequence": 4294967294, "scriptSig": {"hex": "160014c81ef396ff7f7644a7d7ae51cd2047b79f153cd0", "asm": "0014c81ef396ff7f7644a7d7ae51cd2047b79f153cd0"}, "vout": 1, "txid": "2cfaa94ee74db14eaa2e430a55c38b32bd507f7e8194725799b63a31c56f7951"}, {"txinwitness": ["3045022100f8d78247ea7b3a41750ac9713ab58119e8c8966eacfececeba497021d529152f02203a55b0ffc3e3bd1abbe19c613092daed30df1bdcde402adba5f7429134e6426001", "0297f3a1559271061c5003027f6a4339d8d5c5a5e96f5156c07fe2697c24700094"], "sequence": 4294967294, "scriptSig": {"hex": "160014b6b1c4cb19ec8c820a78c52599ce06980344b71d", "asm": "0014b6b1c4cb19ec8c820a78c52599ce06980344b71d"}, "vout": 0, "txid": "28d7e9bdc7a2cdb3f1acf159fb5d75bfa71c9bc8b955b7c0918c44998ded1a52"}, {"sequence": 4294967294, "scriptSig": {"hex": "483045022100831c9fa9371b7a7234ac0224472213ba3911583cacedfe24cf4fc37fd4702079022059f14416388ac95d7e676b87720cce13c9e2b779d699e9a3e2e91cd328a0b68c012103c85b8e5cefbc32ecd7cbef1fa7166f4c49d6b0e3fc4cd6163af0ac7156c08096", "asm": "3045022100831c9fa9371b7a7234ac0224472213ba3911583cacedfe24cf4fc37fd4702079022059f14416388ac95d7e676b87720cce13c9e2b779d699e9a3e2e91cd328a0b68c[ALL] 03c85b8e5cefbc32ecd7cbef1fa7166f4c49d6b0e3fc4cd6163af0ac7156c08096"}, "vout": 1, "txid": "74024b80b7009b01276ecc36c757b50e07a7e05cf55f5129a752996d8f947f9c"}], "txid": "bb49ab1639c1da4d0b59b644bcecfb77d82cd2858c340fa3cebe62af3358388f", "blocktime": 1537870268, "version": 2, "confirmations": 11516, "time": 1537870268, "locktime": 542988, "vsize": 568, "size": 811}