{"hash": "bb4f690c8890c8c64f141147d080bca6dc500c47995b187fb7d3631b8ce0d437", "blockhash": "0000000000000000000dcc0f55137456b1a82d3642486a52398922ac4d620174", "vout": [{"scriptPubKey": {"reqSigs": 1, "hex": "76a9141bf7bf87a689d92dae6f31188443d9b0170f925b88ac", "addresses": ["13Yt32NRECxiUUnp8nuph7LkWMLzSFhYCM"], "asm": "OP_DUP OP_HASH160 1bf7bf87a689d92dae6f31188443d9b0170f925b OP_EQUALVERIFY OP_CHECKSIG", "type": "pubkeyhash"}, "value": 0.0162, "n": 0}, {"scriptPubKey": {"reqSigs": 1, "hex": "76a914150fa393c21215223416fe28b93de92674140f8288ac", "addresses": ["12vMveKFmEZ8NZrLY2HyfgG726cD8MZ6qh"], "asm": "OP_DUP OP_HASH160 150fa393c21215223416fe28b93de92674140f82 OP_EQUALVERIFY OP_CHECKSIG", "type": "pubkeyhash"}, "value": 0.23599259, "n": 1}], "hex": "01000000016c98ee0cea2fbeba78f6dae335aa62a3afd87b1538b2854ae39b0d43b7cd4367010000006a47304402203898eddbce3645d5f7e477639788ddeb52340684e6f82be6511dc2809f5382ca0220714dbb593f3229923abfb4ba1057af36042975e42a018a07cbb7696ba051c4b0012102364e7ba9cc9e33fc6a04fe690746ecb7e5cf8d0e2c647ad5ca3b7fadbdcd7ef0ffffffff0220b81800000000001976a9141bf7bf87a689d92dae6f31188443d9b0170f925b88ac9b186801000000001976a914150fa393c21215223416fe28b93de92674140f8288ac00000000", "vin": [{"sequence": 4294967295, "scriptSig": {"hex": "47304402203898eddbce3645d5f7e477639788ddeb52340684e6f82be6511dc2809f5382ca0220714dbb593f3229923abfb4ba1057af36042975e42a018a07cbb7696ba051c4b0012102364e7ba9cc9e33fc6a04fe690746ecb7e5cf8d0e2c647ad5ca3b7fadbdcd7ef0", "asm": "304402203898eddbce3645d5f7e477639788ddeb52340684e6f82be6511dc2809f5382ca0220714dbb593f3229923abfb4ba1057af36042975e42a018a07cbb7696ba051c4b0[ALL] 02364e7ba9cc9e33fc6a04fe690746ecb7e5cf8d0e2c647ad5ca3b7fadbdcd7ef0"}, "vout": 1, "txid": "6743cdb7430d9be34a85b238157bd8afa362aa35e3daf678babe2fea0cee986c"}], "txid": "bb4f690c8890c8c64f141147d080bca6dc500c47995b187fb7d3631b8ce0d437", "blocktime": 1537870268, "version": 1, "confirmations": 11518, "time": 1537870268, "locktime": 0, "vsize": 225, "size": 225}