{"hash": "554720bb793ea3e9b7908aaca0f73941aa0ebbde30dd9fe6b58e39fa391d451a", "blockhash": "00000000000000000017f5eb5941039fbcee6240d03bc1f2f8e35350df66a1d8", "vout": [{"scriptPubKey": {"reqSigs": 1, "hex": "a914c6bbb60db7ac55288dfda51619322b338dcff15387", "addresses": ["3KopavcyxtdXLtqPAuePcjrpAzZTaiD6XN"], "asm": "OP_HASH160 c6bbb60db7ac55288dfda51619322b338dcff153 OP_EQUAL", "type": "scripthash"}, "value": 0.00158406, "n": 0}, {"scriptPubKey": {"reqSigs": 1, "hex": "a9149649ad6d2730bb28020a268d9d80df10a9f74ad487", "addresses": ["3FPfYWwfMfKMGY7fuPHvz2b73RhTNGzsm3"], "asm": "OP_HASH160 9649ad6d2730bb28020a268d9d80df10a9f74ad4 OP_EQUAL", "type": "scripthash"}, "value": 13.80782234, "n": 1}], "hex": "010000000001010a17b6bdc589aa3583f519525645625a7739668139d23359d850c5b7819e631501000000232200207768efcc1e5eb3d28410fac3f45831004c860cc24cddd940a616b34324823fceffffffff02c66a02000000000017a914c6bbb60db7ac55288dfda51619322b338dcff153879a104d520000000017a9149649ad6d2730bb28020a268d9d80df10a9f74ad4870400483045022100843f02c84bc615cec5c48ac5210bbe55e7e0257abcf328a7c738e26b3fdbb92502204e93c0b19301aa3657279ec6f26215d176d7a46cb6f6a230ba37a1ef28f4a70c01473044022033554628b8b1413329f56326756997e119dfae52195f1458ff857be6804bd91302204a65a628ecc407ad5144d31886529b88ff554c4a827a4e757b5b85d24177ce2e0147522102529d5d1f6733ab45d9d50e07db42c7f6b967ae321c38b726c2247f149959b8262103d0c936a5988dd8421c63240496b723b0ec42400c38b9350e32c2eb4f47d8796952ae00000000", "vin": [{"txinwitness": ["", "3045022100843f02c84bc615cec5c48ac5210bbe55e7e0257abcf328a7c738e26b3fdbb92502204e93c0b19301aa3657279ec6f26215d176d7a46cb6f6a230ba37a1ef28f4a70c01", "3044022033554628b8b1413329f56326756997e119dfae52195f1458ff857be6804bd91302204a65a628ecc407ad5144d31886529b88ff554c4a827a4e757b5b85d24177ce2e01", "522102529d5d1f6733ab45d9d50e07db42c7f6b967ae321c38b726c2247f149959b8262103d0c936a5988dd8421c63240496b723b0ec42400c38b9350e32c2eb4f47d8796952ae"], "sequence": 4294967295, "scriptSig": {"hex": "2200207768efcc1e5eb3d28410fac3f45831004c860cc24cddd940a616b34324823fce", "asm": "00207768efcc1e5eb3d28410fac3f45831004c860cc24cddd940a616b34324823fce"}, "vout": 1, "txid": "15639e81b7c550d85933d239816639775a6245565219f58335aa89c5bdb6170a"}], "txid": "bb53573a6ef13d9e27729ad7a359a0ee7342dc92f668426686b25cf40b60b39b", "blocktime": 1537874412, "version": 1, "confirmations": 11468, "time": 1537874412, "locktime": 0, "vsize": 206, "size": 371}