{"hash": "bb58ea39f8c3d44b5c6ed3ade67724f1c28883896034fd1b0faf6a6d0a75a696", "blockhash": "0000000000000000001f0ddff1eddb255c1121bcd4da4f1bc9a0da00cae72433", "vout": [{"scriptPubKey": {"reqSigs": 1, "hex": "76a914bdbb93805d7746db218c4c9886cc7539d507fe1e88ac", "addresses": ["1JJDRH5eLK9RsrreL3hTgsJdoAZXT1u6Z2"], "asm": "OP_DUP OP_HASH160 bdbb93805d7746db218c4c9886cc7539d507fe1e OP_EQUALVERIFY OP_CHECKSIG", "type": "pubkeyhash"}, "value": 0.0154638, "n": 0}, {"scriptPubKey": {"reqSigs": 1, "hex": "76a9144ccba8a23e4b1b08ef1123b4d6d5680c0e3deddb88ac", "addresses": ["1814L34EQyURmvtj5JfA34cnGwzmmTi1a1"], "asm": "OP_DUP OP_HASH160 4ccba8a23e4b1b08ef1123b4d6d5680c0e3deddb OP_EQUALVERIFY OP_CHECKSIG", "type": "pubkeyhash"}, "value": 1.50232242, "n": 1}], "hex": "010000000117c30f2794848f6e0b4a40d14e234eebf0b05cc05c13cd17e8f1a9615145325f010000006b483045022100a97fbf486546b08ed88bf3c98129482eaad7055f8490b6f7a34559339e8f92e802202c46fd13671616e93e061e0a196ca6184251756d557ae5d6dab6bffa7175f771012103f2df3dfbc22738bcbd2dfc7fd09b98f358c47c1ea9edb26022f01447215580ccffffffff028c981700000000001976a914bdbb93805d7746db218c4c9886cc7539d507fe1e88acb25cf408000000001976a9144ccba8a23e4b1b08ef1123b4d6d5680c0e3deddb88ac00000000", "vin": [{"sequence": 4294967295, "scriptSig": {"hex": "483045022100a97fbf486546b08ed88bf3c98129482eaad7055f8490b6f7a34559339e8f92e802202c46fd13671616e93e061e0a196ca6184251756d557ae5d6dab6bffa7175f771012103f2df3dfbc22738bcbd2dfc7fd09b98f358c47c1ea9edb26022f01447215580cc", "asm": "3045022100a97fbf486546b08ed88bf3c98129482eaad7055f8490b6f7a34559339e8f92e802202c46fd13671616e93e061e0a196ca6184251756d557ae5d6dab6bffa7175f771[ALL] 03f2df3dfbc22738bcbd2dfc7fd09b98f358c47c1ea9edb26022f01447215580cc"}, "vout": 1, "txid": "5f32455161a9f1e817cd135cc05cb0f0eb4e234ed1404a0b6e8f8494270fc317"}], "txid": "bb58ea39f8c3d44b5c6ed3ade67724f1c28883896034fd1b0faf6a6d0a75a696", "blocktime": 1537872018, "version": 1, "confirmations": 11489, "time": 1537872018, "locktime": 0, "vsize": 226, "size": 226}