{"hash": "bb593a10fa1591b9449d666a79f29bbff1952ed422e287baf995adbfeaa1f88c", "blockhash": "0000000000000000001cda96e906b7601b7a6fb1a3b62bca570a9e5d8f4b3de1", "vout": [{"scriptPubKey": {"reqSigs": 1, "hex": "76a914151bed98e52378b54265824a585557fec21f7a5e88ac", "addresses": ["12vceWTMmiZRhRhehEsgm4dN4MY5cTBueF"], "asm": "OP_DUP OP_HASH160 151bed98e52378b54265824a585557fec21f7a5e OP_EQUALVERIFY OP_CHECKSIG", "type": "pubkeyhash"}, "value": 0.00780215, "n": 0}, {"scriptPubKey": {"reqSigs": 1, "hex": "76a91408a9bba09b6683920dfecf02284843ccb7a1ebe288ac", "addresses": ["1nojnWWY6C729whqrmCUzPFzjtbTnyqd6"], "asm": "OP_DUP OP_HASH160 08a9bba09b6683920dfecf02284843ccb7a1ebe2 OP_EQUALVERIFY OP_CHECKSIG", "type": "pubkeyhash"}, "value": 0.47035988, "n": 1}], "hex": "01000000029875c396e3ee3236077b71f61652c76bbc6eff56a14b8f5fe6de0bc4391dcd881a0000006a47304402206433ccadc68b4d3f37dd3ccc833f05f56f50e84f091b6784298839bc9ff6f2170220019ed864ef22055a864acc016d58ec4e558c37029e5eb93135451a1b20049a870121030bccac86b900ab49374846df31e2f171499354c47711fd7a2c028804ed9c81b9fdfffffff8786917ad3c0b4bbc1a92ef405ae30a65f84c2858d728cf5856c2a29d0b3dd3010000006b483045022100a82f34bd51b340dda5ca84b203daa92a62c46164938e3e61f339e0fb892d55280220192a6abe10fb4f8797070f26dfa483ff1a8cdaf67f91a232edc8591253f3a7a20121030bccac86b900ab49374846df31e2f171499354c47711fd7a2c028804ed9c81b9fdffffff02b7e70b00000000001976a914151bed98e52378b54265824a585557fec21f7a5e88ac54b6cd02000000001976a91408a9bba09b6683920dfecf02284843ccb7a1ebe288ac13490800", "vin": [{"sequence": 4294967293, "scriptSig": {"hex": "47304402206433ccadc68b4d3f37dd3ccc833f05f56f50e84f091b6784298839bc9ff6f2170220019ed864ef22055a864acc016d58ec4e558c37029e5eb93135451a1b20049a870121030bccac86b900ab49374846df31e2f171499354c47711fd7a2c028804ed9c81b9", "asm": "304402206433ccadc68b4d3f37dd3ccc833f05f56f50e84f091b6784298839bc9ff6f2170220019ed864ef22055a864acc016d58ec4e558c37029e5eb93135451a1b20049a87[ALL] 030bccac86b900ab49374846df31e2f171499354c47711fd7a2c028804ed9c81b9"}, "vout": 26, "txid": "88cd1d39c40bdee65f8f4ba156ff6ebc6bc75216f6717b073632eee396c37598"}, {"sequence": 4294967293, "scriptSig": {"hex": "483045022100a82f34bd51b340dda5ca84b203daa92a62c46164938e3e61f339e0fb892d55280220192a6abe10fb4f8797070f26dfa483ff1a8cdaf67f91a232edc8591253f3a7a20121030bccac86b900ab49374846df31e2f171499354c47711fd7a2c028804ed9c81b9", "asm": "3045022100a82f34bd51b340dda5ca84b203daa92a62c46164938e3e61f339e0fb892d55280220192a6abe10fb4f8797070f26dfa483ff1a8cdaf67f91a232edc8591253f3a7a2[ALL] 030bccac86b900ab49374846df31e2f171499354c47711fd7a2c028804ed9c81b9"}, "vout": 1, "txid": "d33d0b9da2c25658cf28d758284cf8650ae35a40ef921abc4b0b3cad176978f8"}], "txid": "bb593a10fa1591b9449d666a79f29bbff1952ed422e287baf995adbfeaa1f88c", "blocktime": 1537873282, "version": 1, "confirmations": 11485, "time": 1537873282, "locktime": 542995, "vsize": 373, "size": 373}