{"hash": "45ab186f5d1b855b2b56de0d61f95c5b98423368e1245919c970b184c7527418", "blockhash": "0000000000000000000e13cef7c366c0283d82e591d1acd082e914b08063cdf1", "vout": [{"scriptPubKey": {"reqSigs": 1, "hex": "76a914bb587ab3b795369d87ecf1e1b4ff383d979f893c88ac", "addresses": ["1J5bMXHYWhyJS9KdBW1uj82x3TjyPtXLQ6"], "asm": "OP_DUP OP_HASH160 bb587ab3b795369d87ecf1e1b4ff383d979f893c OP_EQUALVERIFY OP_CHECKSIG", "type": "pubkeyhash"}, "value": 0.0029916, "n": 0}, {"scriptPubKey": {"reqSigs": 1, "hex": "a91474a0135726a41524f6d53e9b849fef10496304ee87", "addresses": ["3CKg53HRr3VjpeZj3LUVf3gADQ31dNTBnh"], "asm": "OP_HASH160 74a0135726a41524f6d53e9b849fef10496304ee OP_EQUAL", "type": "scripthash"}, "value": 0.00999562, "n": 1}], "hex": "020000000001024debeb79fcdeb61671a824f5c7b7b8c53d4529c10686dc3fa5623ce3f66d02f90500000017160014614c10430c1985f5bd4b9f597fd1af70ab44a526feffffffe96fafad00f56e737c32eaaec83ae7ab82b6488eb43407508257a5dc19be647901000000171600140f4bc8916910d477750b81b5feee45e5b5607d63feffffff0298900400000000001976a914bb587ab3b795369d87ecf1e1b4ff383d979f893c88ac8a400f000000000017a91474a0135726a41524f6d53e9b849fef10496304ee8702473044022069d6dd90e789367ed7d9c388ae2100dd655c43fd01e5333dc7dd45d50be0ce07022078920bef4e9e05f2d32e3d93dfa6c849f030885abcae0f18ece200a95f33f9ce012102efc9636ffea1ff7c8421f4d060e2a4b63bce5c5475474c1eb2b3735e81c63ce602483045022100ee1897557580eda9c5ccfd537615590c89d663fa15e5cb5437c976a11fcb942f022032882d4bc7fafdf94f2150b1e199ebf122ca8de02e17802adcc8f02ca74f6950012102c92f65253d7332ba48f78261f45c377a3a90c1e06e67fd14dc2f1830f66869f910490800", "vin": [{"txinwitness": ["3044022069d6dd90e789367ed7d9c388ae2100dd655c43fd01e5333dc7dd45d50be0ce07022078920bef4e9e05f2d32e3d93dfa6c849f030885abcae0f18ece200a95f33f9ce01", "02efc9636ffea1ff7c8421f4d060e2a4b63bce5c5475474c1eb2b3735e81c63ce6"], "sequence": 4294967294, "scriptSig": {"hex": "160014614c10430c1985f5bd4b9f597fd1af70ab44a526", "asm": "0014614c10430c1985f5bd4b9f597fd1af70ab44a526"}, "vout": 5, "txid": "f9026df6e33c62a53fdc8606c129453dc5b8b7c7f524a87116b6defc79ebeb4d"}, {"txinwitness": ["3045022100ee1897557580eda9c5ccfd537615590c89d663fa15e5cb5437c976a11fcb942f022032882d4bc7fafdf94f2150b1e199ebf122ca8de02e17802adcc8f02ca74f695001", "02c92f65253d7332ba48f78261f45c377a3a90c1e06e67fd14dc2f1830f66869f9"], "sequence": 4294967294, "scriptSig": {"hex": "1600140f4bc8916910d477750b81b5feee45e5b5607d63", "asm": "00140f4bc8916910d477750b81b5feee45e5b5607d63"}, "vout": 1, "txid": "7964be19dca55782500734b48e48b682abe73ac8aeea327c736ef500adaf6fe9"}], "txid": "bb60bd0865866e73b83837c59e5c5c781d5f4dcb835ea828600a862552c21be6", "blocktime": 1537871767, "version": 2, "confirmations": 11495, "time": 1537871767, "locktime": 542992, "vsize": 259, "size": 421}