{"hash": "bb69a20e8f2da9a7814ba0d06745877047971d546f3f8b4ce3ebed553ffa8778", "blockhash": "0000000000000000001f76057863aec43deb6fa401d9628bb513d65a8098bfab", "vout": [{"scriptPubKey": {"reqSigs": 1, "hex": "a9141cf60a2a92007a1e2b73e3aa2d58ad799b4c2e3787", "addresses": ["34L9b45ZqvWnCp3FXJA8E2Jc34UeUQpYL2"], "asm": "OP_HASH160 1cf60a2a92007a1e2b73e3aa2d58ad799b4c2e37 OP_EQUAL", "type": "scripthash"}, "value": 0.01525444, "n": 0}, {"scriptPubKey": {"reqSigs": 1, "hex": "76a9147e46699b0b0303755e3f498b58bd0064d99a5a8a88ac", "addresses": ["1CWgVX51BHV6kqcj7nxKGXSPsYp8uMzVMd"], "asm": "OP_DUP OP_HASH160 7e46699b0b0303755e3f498b58bd0064d99a5a8a OP_EQUALVERIFY OP_CHECKSIG", "type": "pubkeyhash"}, "value": 0.00024491, "n": 1}], "hex": "0100000002efdc1e10c966b73b32a57a0bc2ab33f8978488f8c4cc73ce72e6fc56ef846bbe010200006a4730440220790193b9df2a21dc0993cc7e631344d50ec9728c291236a04ed676eaa2c00d7802202f4657977162a81505de3f5309df66b842a351be12cb7d8738adf8fc39e79e9b012102b91be397faa62aea5361eb4368cf9320d61ac24799be536ce2ffbeffd9047392ffffffffbdc0bb0e451094cfc2fe870b66afa62b3951159110eecee84a2c984a529e2d5c000000006a4730440220627f3fcb0e3b9d7e316033da5bc65522c0dc84883cf437686919db47a781d1fe02205b0768178737735dcb3991863da57692b82c430ca407a4ffb03a607aeecb0de9012102815aa5b2aac64e957d10983b6bf9e3a041b32495897a53aaa9d8ed6ef4ba5f0affffffff02c44617000000000017a9141cf60a2a92007a1e2b73e3aa2d58ad799b4c2e3787ab5f0000000000001976a9147e46699b0b0303755e3f498b58bd0064d99a5a8a88ac00000000", "vin": [{"sequence": 4294967295, "scriptSig": {"hex": "4730440220790193b9df2a21dc0993cc7e631344d50ec9728c291236a04ed676eaa2c00d7802202f4657977162a81505de3f5309df66b842a351be12cb7d8738adf8fc39e79e9b012102b91be397faa62aea5361eb4368cf9320d61ac24799be536ce2ffbeffd9047392", "asm": "30440220790193b9df2a21dc0993cc7e631344d50ec9728c291236a04ed676eaa2c00d7802202f4657977162a81505de3f5309df66b842a351be12cb7d8738adf8fc39e79e9b[ALL] 02b91be397faa62aea5361eb4368cf9320d61ac24799be536ce2ffbeffd9047392"}, "vout": 513, "txid": "be6b84ef56fce672ce73ccc4f8888497f833abc20b7aa5323bb766c9101edcef"}, {"sequence": 4294967295, "scriptSig": {"hex": "4730440220627f3fcb0e3b9d7e316033da5bc65522c0dc84883cf437686919db47a781d1fe02205b0768178737735dcb3991863da57692b82c430ca407a4ffb03a607aeecb0de9012102815aa5b2aac64e957d10983b6bf9e3a041b32495897a53aaa9d8ed6ef4ba5f0a", "asm": "30440220627f3fcb0e3b9d7e316033da5bc65522c0dc84883cf437686919db47a781d1fe02205b0768178737735dcb3991863da57692b82c430ca407a4ffb03a607aeecb0de9[ALL] 02815aa5b2aac64e957d10983b6bf9e3a041b32495897a53aaa9d8ed6ef4ba5f0a"}, "vout": 0, "txid": "5c2d9e524a982c4ae8ceee10911551392ba6af660b87fec2cf9410450ebbc0bd"}], "txid": "bb69a20e8f2da9a7814ba0d06745877047971d546f3f8b4ce3ebed553ffa8778", "blocktime": 1537873891, "version": 1, "confirmations": 11478, "time": 1537873891, "locktime": 0, "vsize": 370, "size": 370}