{"hash": "1fcb4cbff9f8ce72c405d05856e006d5a496f8ce80c65dba813822cfa344c3d9", "blockhash": "0000000000000000001cda96e906b7601b7a6fb1a3b62bca570a9e5d8f4b3de1", "vout": [{"scriptPubKey": {"reqSigs": 1, "hex": "a9147f4f3adab3ff21fc952ae39a16476dc31beb689487", "addresses": ["3DJAetvuw7sGpsk5D94TwPhn3kiVvY46sM"], "asm": "OP_HASH160 7f4f3adab3ff21fc952ae39a16476dc31beb6894 OP_EQUAL", "type": "scripthash"}, "value": 0.01333344, "n": 0}, {"scriptPubKey": {"reqSigs": 1, "hex": "a9149bf7af48c8a4860d935eb9c8dd8e0f4f5d3bf2cc87", "addresses": ["3FuhNiGrwxyqgihkpGKmTAnnmNXsbKC1R1"], "asm": "OP_HASH160 9bf7af48c8a4860d935eb9c8dd8e0f4f5d3bf2cc OP_EQUAL", "type": "scripthash"}, "value": 0.00996924, "n": 1}], "hex": "020000000001054c97a8d9890f74aecb2a86aa6bfafe82b4eb19435baf7afad362ff79e5012976000000001716001469efbafb0acb3f1b80476fe076d926d17134b6a3feffffff55c12c1e4b3699be58171e26c0d10ef1d1293e3c72ee5cf04f9b188d888712fd04000000171600149dd6bfbc9bd72220bbc5bbbf0181e0b9fcdbf003feffffff7f803f7e022f5381cb54a48f56fb174bb943e9639b68b1fe02838007b741ee9e970200001716001463834b0e9d8e8a5af684d3885c18805c3b0d814afeffffff8c657c8e30ea7eda4d4a22c09dbbc204ba8e59a110513ece7b79b203561ddad50f00000017160014ecc995d3dc5f40d18792eb9fefca9ba9b298c2b1feffffffe95ba5bf1ac242eb7b651d677012eda91a1e9a2a4c256bb70db6c0d7f45f01fe06000000171600146a88234b31e3c35b855f55a8004a97813cecf516feffffff02605814000000000017a9147f4f3adab3ff21fc952ae39a16476dc31beb6894873c360f000000000017a9149bf7af48c8a4860d935eb9c8dd8e0f4f5d3bf2cc870247304402204c7857ef1fea5adbb0f3e7c794e836cda9ebc033234c198ae8702fe6fd60dd3c0220126e3397b555be8830715e388412bb6303eb621d48c0f6ea22a58368a1132f61012102e4e07442aaaf58f4e444fd3c7363538dd6f9ab43517f561adf66d641f797f0210247304402205262a096df9668edcb6cabe128f7901e94136d3d6a68aa535fe89c7b71d006ac022009002a612e8a871f2512007d58b8a5be2ee3c4f8d2c625b4f73da7c3168e9948012102cff4940a360136d91fb8832b3a93332088d40f3328ce5265cd9514c206670a1702483045022100a2638b01eabb49eaef1bf5f1050785b1523a96a49a03ce25f5a8bb53de9b3a8802202079a534320c79fc4ff9f32435d27c6067a64c31e3b829799464b9a40d8a8e18012102402c75c6b4fdd0c7d998ad6d2113157e7a55f5c9bd46fc533c3e033bd8ffd4860248304502210094acbf3a02ec6f4b0d1168a4351c9a81cc360ba27fc7ed9cb265b17138e1bc77022032b6e1fd32e12df842060b565f77a13975193d4251eba8ba0bdb7a933a7039c10121036d7294d97f9f30aceb3af0b58d2ff18043bea04583f97328ba4d794f84e961c2024830450221008de61629988c40a6df15ec52dda24af13348bd92988bb54b9bd3af6bc2d89fd2022062875504952deca802e6eb6c5315ef21b87d7723231dc9c1d91d1b6338b9182a0121032ff7c051d0c6e8cf37a883f86e3cd3db4dd16a9dbde2135b4703b2d7e669711013490800", "vin": [{"txinwitness": ["304402204c7857ef1fea5adbb0f3e7c794e836cda9ebc033234c198ae8702fe6fd60dd3c0220126e3397b555be8830715e388412bb6303eb621d48c0f6ea22a58368a1132f6101", "02e4e07442aaaf58f4e444fd3c7363538dd6f9ab43517f561adf66d641f797f021"], "sequence": 4294967294, "scriptSig": {"hex": "16001469efbafb0acb3f1b80476fe076d926d17134b6a3", "asm": "001469efbafb0acb3f1b80476fe076d926d17134b6a3"}, "vout": 0, "txid": "762901e579ff62d3fa7aaf5b4319ebb482fefa6baa862acbae740f89d9a8974c"}, {"txinwitness": ["304402205262a096df9668edcb6cabe128f7901e94136d3d6a68aa535fe89c7b71d006ac022009002a612e8a871f2512007d58b8a5be2ee3c4f8d2c625b4f73da7c3168e994801", "02cff4940a360136d91fb8832b3a93332088d40f3328ce5265cd9514c206670a17"], "sequence": 4294967294, "scriptSig": {"hex": "1600149dd6bfbc9bd72220bbc5bbbf0181e0b9fcdbf003", "asm": "00149dd6bfbc9bd72220bbc5bbbf0181e0b9fcdbf003"}, "vout": 4, "txid": "fd1287888d189b4ff05cee723c3e29d1f10ed1c0261e1758be99364b1e2cc155"}, {"txinwitness": ["3045022100a2638b01eabb49eaef1bf5f1050785b1523a96a49a03ce25f5a8bb53de9b3a8802202079a534320c79fc4ff9f32435d27c6067a64c31e3b829799464b9a40d8a8e1801", "02402c75c6b4fdd0c7d998ad6d2113157e7a55f5c9bd46fc533c3e033bd8ffd486"], "sequence": 4294967294, "scriptSig": {"hex": "16001463834b0e9d8e8a5af684d3885c18805c3b0d814a", "asm": "001463834b0e9d8e8a5af684d3885c18805c3b0d814a"}, "vout": 663, "txid": "9eee41b707808302feb1689b63e943b94b17fb568fa454cb81532f027e3f807f"}, {"txinwitness": ["304502210094acbf3a02ec6f4b0d1168a4351c9a81cc360ba27fc7ed9cb265b17138e1bc77022032b6e1fd32e12df842060b565f77a13975193d4251eba8ba0bdb7a933a7039c101", "036d7294d97f9f30aceb3af0b58d2ff18043bea04583f97328ba4d794f84e961c2"], "sequence": 4294967294, "scriptSig": {"hex": "160014ecc995d3dc5f40d18792eb9fefca9ba9b298c2b1", "asm": "0014ecc995d3dc5f40d18792eb9fefca9ba9b298c2b1"}, "vout": 15, "txid": "d5da1d5603b2797bce3e5110a1598eba04c2bb9dc0224a4dda7eea308e7c658c"}, {"txinwitness": ["30450221008de61629988c40a6df15ec52dda24af13348bd92988bb54b9bd3af6bc2d89fd2022062875504952deca802e6eb6c5315ef21b87d7723231dc9c1d91d1b6338b9182a01", "032ff7c051d0c6e8cf37a883f86e3cd3db4dd16a9dbde2135b4703b2d7e6697110"], "sequence": 4294967294, "scriptSig": {"hex": "1600146a88234b31e3c35b855f55a8004a97813cecf516", "asm": "00146a88234b31e3c35b855f55a8004a97813cecf516"}, "vout": 6, "txid": "fe015ff4d7c0b60db76b254c2a9a1e1aa9ed1270671d657beb42c21abfa55be9"}], "txid": "bb6a426c7b27c1f04e10227f4dad28082d824379cebc3824159e5984937257cd", "blocktime": 1537873282, "version": 2, "confirmations": 11483, "time": 1537873282, "locktime": 542995, "vsize": 529, "size": 934}