{"hash": "bb713b7b7e72558ff9fc149ad06a1b04480683d5495bd3c9a32afe05fe75f264", "blockhash": "0000000000000000000baef3f32e3676a92c3b2e5da21b426e4f302fc371ce76", "vout": [{"scriptPubKey": {"reqSigs": 1, "hex": "76a91487e39acb266164e4ed888f02da6991f3038773a988ac", "addresses": ["1DPWt9V7PKqvgDcW5FNbiJMZEGGVfGYzbV"], "asm": "OP_DUP OP_HASH160 87e39acb266164e4ed888f02da6991f3038773a9 OP_EQUALVERIFY OP_CHECKSIG", "type": "pubkeyhash"}, "value": 1.097921, "n": 0}, {"scriptPubKey": {"reqSigs": 1, "hex": "a914582b3d9ab9b59bda4b2bd5dcc8f2e6d3632e1c1c87", "addresses": ["39jDBqWzo4mThCCa5PgkLEYMBYdxj8Z86L"], "asm": "OP_HASH160 582b3d9ab9b59bda4b2bd5dcc8f2e6d3632e1c1c OP_EQUAL", "type": "scripthash"}, "value": 0.20908343, "n": 1}, {"scriptPubKey": {"reqSigs": 1, "hex": "a9148ca82c9c4a2be6222ab64084401d247b4ba22bc687", "addresses": ["3EWjzMPqjmXYHsMoAr7M53WNSngDgFQVAB"], "asm": "OP_HASH160 8ca82c9c4a2be6222ab64084401d247b4ba22bc6 OP_EQUAL", "type": "scripthash"}, "value": 0.00253402, "n": 2}, {"scriptPubKey": {"reqSigs": 1, "hex": "a91467387f3b115067d0d6864ebef9eb442799747dad87", "addresses": ["3B6oCnKyxTAgW2R7TrVf7nczUEbdrHcWbS"], "asm": "OP_HASH160 67387f3b115067d0d6864ebef9eb442799747dad OP_EQUAL", "type": "scripthash"}, "value": 0.00395941, "n": 3}], "hex": "0100000009116d8e0e5e76deef93eff97356da26481c0319b6153751e8fb63b9eeadfc434718000000fdfd0000483045022100e1aa30ad4093a26108a8e9713144b75537cc8b1875e4ace8e4c05161574dea7602201ece131d2d318a25aa55e11393c5daa8061808a3c7dc3efca8fb258e019c9bd301473044022064b3574542711a363dc1227d2d794ddaa7499c421f7ecb3ad72eefea8a1d7fbd022078ad9d7b26499d3beb116548ed762844a02f389ee3ad84f96c9b9f2f144ffb83014c69522103cbda28b4602230913f53a844841ffe312e001ec247f198898d096b90a7cfe29e21033f7a5f55aba7ce5c3efc4461b14627826c7ea833e8e9a1c48e1c0651b53440d521035f464e32a714328e68a0db4fa816e84e36d00ad037a2826e668cc09db513556853aeffffffff116d8e0e5e76deef93eff97356da26481c0319b6153751e8fb63b9eeadfc434719000000fc0047304402207291d24b56f52b1dd14f8b4aa2479b80a357b86038077a9bfb6fb02866cb05e9022018457059562869d5d9799880e3cd484b13fa68d87c3c1fd1ad65ba02400169e80147304402204a38a1b043d620ed29314e658ad3e45e77f1ea1a4f8b88876b3e9c2f9620013502203f93a4c7e8755a075d5759958710414cc4fc4c15f71401fa8ca9291b19f77b47014c695221031261d79fb5bdae930473a03ec8acc30f64f06f43cc41dfd44c8c6f6d96c6cc852102c8017445ed9311d0e4c994f908d2e843d0e57bac0b74f0afe0e7d748b52c99702103b965ee2b10fd752c715ea3641ea75b6ab537ff5f001bdb2500d6f964722b660353aeffffffff116d8e0e5e76deef93eff97356da26481c0319b6153751e8fb63b9eeadfc43471a000000fdfe000048304502210091816479162a0828a4d2b63211f21b150e03e1ff97132146b0e8af3022c4f44b02204558baf1454d4549ff671bd1e55e95d29cab3706140c5ec7537e00381484987201483045022100a20f44d112d0a1055c1a40790007244edc3b266db34407f5829da1664b55489102203f6a2d95e84f6a2c8827fe28c8baae8bcb1b511720097546c9efdfa851724067014c6952210210b06a4654d1713f1d15a96768d8918585712f75e73541ddddaf2840d988befa2102d1157d513e4810a54615d9f83037d1bbd8e78a085d8d8616f81d8a332b735f232103d3a043436269b9c3764926f5fa970c1c3a8697044c4cbec153525cdf7639938653aeffffffff116d8e0e5e76deef93eff97356da26481c0319b6153751e8fb63b9eeadfc43471e000000fdfe0000483045022100c7396f46e16d49476fa6af70ba7b9b86984bd1751d1ed847651ec224d06710bc022078790932390babc5510aad1fa7befdeec05a8198c2c97b6c9d26ffd3ee7b4a8f01483045022100d087bc38a41062fcae890924c6fb5b6e811351cf984c0363922c381ee4da8918022071b0f8add87a75f305366876c5645dcfa6d7be3644e3eba6cc312e87e3254e41014c6952210362e487210c55f4e0ee07357ca0c7894d3c364f2d38e62f25b95fd365115dbaec2102f2422695f8ccfc2c51e365172bbc4f514c3a46f3943e652074266b6435cbbfcc210257ae2bcbc31bc94a1aa8c04cc402afc8af0c7826bcc07d0dcbe5a3c665ca820553aeffffffff116d8e0e5e76deef93eff97356da26481c0319b6153751e8fb63b9eeadfc434720000000fdfe0000483045022100ffb33344c96c91a7231c061b937e21c7f55b9b337f98cabf8e12e2a733081b8f02207d4aea0c2265d4c7a37fc297cf5794d602b45cbb5b76b69175301a05b0b9e9cb014830450221008107405d0fea87fe5cd983b3fa90e2f2efaa8588ae72d5a00dfd9d176c710b9502200e441ae9876dd512b7ac94f48cefdf0b63e94df1464afad76074c2f2dc27ea56014c695221037867c97916c79145a66a314440f1e8f48ebd8095561da19211aa7010e0695a882102d2a9e515e26d4f7d3665e8e3ed06aa2c8634c56e9ca4c138c386a0f53ed6b5de21026e1888f2d1b5de41a6607a9170d1719a07da54e7cc0514feb7185fe8f4c3e17e53aeffffffff116d8e0e5e76deef93eff97356da26481c0319b6153751e8fb63b9eeadfc434725000000fc0047304402205d91b48a2ca08aa361b18f5d4fc4f84380c2a721596865b0aff12e8c4018212102201934b9571abd1db633b9fa352805cbbfaa35fe29f42a7d1d172b971ef7d0514901473044022027e76438da942c28d403a031faa99b16337e8ce72a7502c338f91d544a9c1a3102204c76894da06a290bc44b4c3219a1b793b5d899cd914ce37a9f1a7898be24e382014c695221039b5836e9263d279fa8bdcb4ea66afd9640c925426b01b364d37db04cd30b894f2102915f681568a2dd02dbd9da63b3db9a13f28051948cad59b0362b62f959c473ea2102e4c5ba065d808ff5cf110ff20ab98cd83e84e0026c73aab6dda07cb15a0a141c53aeffffffff116d8e0e5e76deef93eff97356da26481c0319b6153751e8fb63b9eeadfc434727000000fdfe0000483045022100d8cdd9fb831882b37e42fb668809c314b601af3dfad5ae110f3af55eaa23f21302202ac5ee5a7552f1d8b3c85e040e53e7845f6cd3fefcb717a145e1967893eefbec01483045022100937bd50cc907560024726e0a747dffa5ab3fa30bcaea8aa234da0da5874ff84c02201de4ee51a9c8c82759a88944e4a778a3fdb09a054428733365dc8dea1439759e014c69522102d43a41a58bef7e68f0fc1d9e034c5e1bb99a2004c55819aa2c73dde404b62ae121032386abe42f7d9cc817aba890a1500d75192cb7b593a851cf0689983345d1fc7f21033a31454b5d54fc6dd77d0a7bd0663552fc2c39e78563d4372efa2891d5baa7bf53aeffffffff116d8e0e5e76deef93eff97356da26481c0319b6153751e8fb63b9eeadfc43472b000000fdfd0000483045022100eb156b23354cf29c29bc5a8620bead67fd7cc5af26ee3eb5b9eed0185ce39f2c02205054143e80e30e1c492f433e62e47cd79930cf1ef81993bf941202ad376a92ba0147304402203d43167bf49b706162765c31417671101559407502bbc3da54676b2e061b587f022060d38b792113c6dbf2624a888560775c4ab4f2194f6577517f190722a8fc83ea014c69522103ebae35ac628139311bc8e225f462ee61a15859aa8c447939e06e2839bc6d7fd2210318cc3319da80332036c314490da44b378ea78aee098e68ede5c82662de68e2b221035a049ac454f084f990bfafd059ac3409429b5552cf6cd4ab780d71df45dddc7d53aeffffffff116d8e0e5e76deef93eff97356da26481c0319b6153751e8fb63b9eeadfc43472d000000fdfd0000473044022059d5ba88388cfdb30dd1404baae2c0e4abd2bf850c0ad66e3ddf801d127fa45702207b225136a2cf23d5214ba563ce97260f56d24e7dafef7af486b1259fa01a8e6d01483045022100d87e74ff0ae717a01abc0538bea641a343759747a28fd1b24495e9c39c5e25e302205b6139cb7c0652c689297c07519aed8ce76f9a7129de76e72ad5103f9190ed8d014c69522103d37c56ff28264f0dd1dba7cbb426abef91d846f4e779e6565c5cc900bea635bd21028f292318816beef3da67511931b35b81292cad439c503d8a48b8ed65b6210d112102ce6535933811783b133faf995cd7f37903b0bc41c3233b72ba78e5ab5cb924c953aeffffffff04644b8b06000000001976a91487e39acb266164e4ed888f02da6991f3038773a988ac37093f010000000017a914582b3d9ab9b59bda4b2bd5dcc8f2e6d3632e1c1c87dadd03000000000017a9148ca82c9c4a2be6222ab64084401d247b4ba22bc687a50a06000000000017a91467387f3b115067d0d6864ebef9eb442799747dad8700000000", "vin": [{"sequence": 4294967295, "scriptSig": {"hex": "00483045022100e1aa30ad4093a26108a8e9713144b75537cc8b1875e4ace8e4c05161574dea7602201ece131d2d318a25aa55e11393c5daa8061808a3c7dc3efca8fb258e019c9bd301473044022064b3574542711a363dc1227d2d794ddaa7499c421f7ecb3ad72eefea8a1d7fbd022078ad9d7b26499d3beb116548ed762844a02f389ee3ad84f96c9b9f2f144ffb83014c69522103cbda28b4602230913f53a844841ffe312e001ec247f198898d096b90a7cfe29e21033f7a5f55aba7ce5c3efc4461b14627826c7ea833e8e9a1c48e1c0651b53440d521035f464e32a714328e68a0db4fa816e84e36d00ad037a2826e668cc09db513556853ae", "asm": "0 3045022100e1aa30ad4093a26108a8e9713144b75537cc8b1875e4ace8e4c05161574dea7602201ece131d2d318a25aa55e11393c5daa8061808a3c7dc3efca8fb258e019c9bd3[ALL] 3044022064b3574542711a363dc1227d2d794ddaa7499c421f7ecb3ad72eefea8a1d7fbd022078ad9d7b26499d3beb116548ed762844a02f389ee3ad84f96c9b9f2f144ffb83[ALL] 522103cbda28b4602230913f53a844841ffe312e001ec247f198898d096b90a7cfe29e21033f7a5f55aba7ce5c3efc4461b14627826c7ea833e8e9a1c48e1c0651b53440d521035f464e32a714328e68a0db4fa816e84e36d00ad037a2826e668cc09db513556853ae"}, "vout": 24, "txid": "4743fcadeeb963fbe8513715b619031c4826da5673f9ef93efde765e0e8e6d11"}, {"sequence": 4294967295, "scriptSig": {"hex": "0047304402207291d24b56f52b1dd14f8b4aa2479b80a357b86038077a9bfb6fb02866cb05e9022018457059562869d5d9799880e3cd484b13fa68d87c3c1fd1ad65ba02400169e80147304402204a38a1b043d620ed29314e658ad3e45e77f1ea1a4f8b88876b3e9c2f9620013502203f93a4c7e8755a075d5759958710414cc4fc4c15f71401fa8ca9291b19f77b47014c695221031261d79fb5bdae930473a03ec8acc30f64f06f43cc41dfd44c8c6f6d96c6cc852102c8017445ed9311d0e4c994f908d2e843d0e57bac0b74f0afe0e7d748b52c99702103b965ee2b10fd752c715ea3641ea75b6ab537ff5f001bdb2500d6f964722b660353ae", "asm": "0 304402207291d24b56f52b1dd14f8b4aa2479b80a357b86038077a9bfb6fb02866cb05e9022018457059562869d5d9799880e3cd484b13fa68d87c3c1fd1ad65ba02400169e8[ALL] 304402204a38a1b043d620ed29314e658ad3e45e77f1ea1a4f8b88876b3e9c2f9620013502203f93a4c7e8755a075d5759958710414cc4fc4c15f71401fa8ca9291b19f77b47[ALL] 5221031261d79fb5bdae930473a03ec8acc30f64f06f43cc41dfd44c8c6f6d96c6cc852102c8017445ed9311d0e4c994f908d2e843d0e57bac0b74f0afe0e7d748b52c99702103b965ee2b10fd752c715ea3641ea75b6ab537ff5f001bdb2500d6f964722b660353ae"}, "vout": 25, "txid": "4743fcadeeb963fbe8513715b619031c4826da5673f9ef93efde765e0e8e6d11"}, {"sequence": 4294967295, "scriptSig": {"hex": "0048304502210091816479162a0828a4d2b63211f21b150e03e1ff97132146b0e8af3022c4f44b02204558baf1454d4549ff671bd1e55e95d29cab3706140c5ec7537e00381484987201483045022100a20f44d112d0a1055c1a40790007244edc3b266db34407f5829da1664b55489102203f6a2d95e84f6a2c8827fe28c8baae8bcb1b511720097546c9efdfa851724067014c6952210210b06a4654d1713f1d15a96768d8918585712f75e73541ddddaf2840d988befa2102d1157d513e4810a54615d9f83037d1bbd8e78a085d8d8616f81d8a332b735f232103d3a043436269b9c3764926f5fa970c1c3a8697044c4cbec153525cdf7639938653ae", "asm": "0 304502210091816479162a0828a4d2b63211f21b150e03e1ff97132146b0e8af3022c4f44b02204558baf1454d4549ff671bd1e55e95d29cab3706140c5ec7537e003814849872[ALL] 3045022100a20f44d112d0a1055c1a40790007244edc3b266db34407f5829da1664b55489102203f6a2d95e84f6a2c8827fe28c8baae8bcb1b511720097546c9efdfa851724067[ALL] 52210210b06a4654d1713f1d15a96768d8918585712f75e73541ddddaf2840d988befa2102d1157d513e4810a54615d9f83037d1bbd8e78a085d8d8616f81d8a332b735f232103d3a043436269b9c3764926f5fa970c1c3a8697044c4cbec153525cdf7639938653ae"}, "vout": 26, "txid": "4743fcadeeb963fbe8513715b619031c4826da5673f9ef93efde765e0e8e6d11"}, {"sequence": 4294967295, "scriptSig": {"hex": "00483045022100c7396f46e16d49476fa6af70ba7b9b86984bd1751d1ed847651ec224d06710bc022078790932390babc5510aad1fa7befdeec05a8198c2c97b6c9d26ffd3ee7b4a8f01483045022100d087bc38a41062fcae890924c6fb5b6e811351cf984c0363922c381ee4da8918022071b0f8add87a75f305366876c5645dcfa6d7be3644e3eba6cc312e87e3254e41014c6952210362e487210c55f4e0ee07357ca0c7894d3c364f2d38e62f25b95fd365115dbaec2102f2422695f8ccfc2c51e365172bbc4f514c3a46f3943e652074266b6435cbbfcc210257ae2bcbc31bc94a1aa8c04cc402afc8af0c7826bcc07d0dcbe5a3c665ca820553ae", "asm": "0 3045022100c7396f46e16d49476fa6af70ba7b9b86984bd1751d1ed847651ec224d06710bc022078790932390babc5510aad1fa7befdeec05a8198c2c97b6c9d26ffd3ee7b4a8f[ALL] 3045022100d087bc38a41062fcae890924c6fb5b6e811351cf984c0363922c381ee4da8918022071b0f8add87a75f305366876c5645dcfa6d7be3644e3eba6cc312e87e3254e41[ALL] 52210362e487210c55f4e0ee07357ca0c7894d3c364f2d38e62f25b95fd365115dbaec2102f2422695f8ccfc2c51e365172bbc4f514c3a46f3943e652074266b6435cbbfcc210257ae2bcbc31bc94a1aa8c04cc402afc8af0c7826bcc07d0dcbe5a3c665ca820553ae"}, "vout": 30, "txid": "4743fcadeeb963fbe8513715b619031c4826da5673f9ef93efde765e0e8e6d11"}, {"sequence": 4294967295, "scriptSig": {"hex": "00483045022100ffb33344c96c91a7231c061b937e21c7f55b9b337f98cabf8e12e2a733081b8f02207d4aea0c2265d4c7a37fc297cf5794d602b45cbb5b76b69175301a05b0b9e9cb014830450221008107405d0fea87fe5cd983b3fa90e2f2efaa8588ae72d5a00dfd9d176c710b9502200e441ae9876dd512b7ac94f48cefdf0b63e94df1464afad76074c2f2dc27ea56014c695221037867c97916c79145a66a314440f1e8f48ebd8095561da19211aa7010e0695a882102d2a9e515e26d4f7d3665e8e3ed06aa2c8634c56e9ca4c138c386a0f53ed6b5de21026e1888f2d1b5de41a6607a9170d1719a07da54e7cc0514feb7185fe8f4c3e17e53ae", "asm": "0 3045022100ffb33344c96c91a7231c061b937e21c7f55b9b337f98cabf8e12e2a733081b8f02207d4aea0c2265d4c7a37fc297cf5794d602b45cbb5b76b69175301a05b0b9e9cb[ALL] 30450221008107405d0fea87fe5cd983b3fa90e2f2efaa8588ae72d5a00dfd9d176c710b9502200e441ae9876dd512b7ac94f48cefdf0b63e94df1464afad76074c2f2dc27ea56[ALL] 5221037867c97916c79145a66a314440f1e8f48ebd8095561da19211aa7010e0695a882102d2a9e515e26d4f7d3665e8e3ed06aa2c8634c56e9ca4c138c386a0f53ed6b5de21026e1888f2d1b5de41a6607a9170d1719a07da54e7cc0514feb7185fe8f4c3e17e53ae"}, "vout": 32, "txid": "4743fcadeeb963fbe8513715b619031c4826da5673f9ef93efde765e0e8e6d11"}, {"sequence": 4294967295, "scriptSig": {"hex": "0047304402205d91b48a2ca08aa361b18f5d4fc4f84380c2a721596865b0aff12e8c4018212102201934b9571abd1db633b9fa352805cbbfaa35fe29f42a7d1d172b971ef7d0514901473044022027e76438da942c28d403a031faa99b16337e8ce72a7502c338f91d544a9c1a3102204c76894da06a290bc44b4c3219a1b793b5d899cd914ce37a9f1a7898be24e382014c695221039b5836e9263d279fa8bdcb4ea66afd9640c925426b01b364d37db04cd30b894f2102915f681568a2dd02dbd9da63b3db9a13f28051948cad59b0362b62f959c473ea2102e4c5ba065d808ff5cf110ff20ab98cd83e84e0026c73aab6dda07cb15a0a141c53ae", "asm": "0 304402205d91b48a2ca08aa361b18f5d4fc4f84380c2a721596865b0aff12e8c4018212102201934b9571abd1db633b9fa352805cbbfaa35fe29f42a7d1d172b971ef7d05149[ALL] 3044022027e76438da942c28d403a031faa99b16337e8ce72a7502c338f91d544a9c1a3102204c76894da06a290bc44b4c3219a1b793b5d899cd914ce37a9f1a7898be24e382[ALL] 5221039b5836e9263d279fa8bdcb4ea66afd9640c925426b01b364d37db04cd30b894f2102915f681568a2dd02dbd9da63b3db9a13f28051948cad59b0362b62f959c473ea2102e4c5ba065d808ff5cf110ff20ab98cd83e84e0026c73aab6dda07cb15a0a141c53ae"}, "vout": 37, "txid": "4743fcadeeb963fbe8513715b619031c4826da5673f9ef93efde765e0e8e6d11"}, {"sequence": 4294967295, "scriptSig": {"hex": "00483045022100d8cdd9fb831882b37e42fb668809c314b601af3dfad5ae110f3af55eaa23f21302202ac5ee5a7552f1d8b3c85e040e53e7845f6cd3fefcb717a145e1967893eefbec01483045022100937bd50cc907560024726e0a747dffa5ab3fa30bcaea8aa234da0da5874ff84c02201de4ee51a9c8c82759a88944e4a778a3fdb09a054428733365dc8dea1439759e014c69522102d43a41a58bef7e68f0fc1d9e034c5e1bb99a2004c55819aa2c73dde404b62ae121032386abe42f7d9cc817aba890a1500d75192cb7b593a851cf0689983345d1fc7f21033a31454b5d54fc6dd77d0a7bd0663552fc2c39e78563d4372efa2891d5baa7bf53ae", "asm": "0 3045022100d8cdd9fb831882b37e42fb668809c314b601af3dfad5ae110f3af55eaa23f21302202ac5ee5a7552f1d8b3c85e040e53e7845f6cd3fefcb717a145e1967893eefbec[ALL] 3045022100937bd50cc907560024726e0a747dffa5ab3fa30bcaea8aa234da0da5874ff84c02201de4ee51a9c8c82759a88944e4a778a3fdb09a054428733365dc8dea1439759e[ALL] 522102d43a41a58bef7e68f0fc1d9e034c5e1bb99a2004c55819aa2c73dde404b62ae121032386abe42f7d9cc817aba890a1500d75192cb7b593a851cf0689983345d1fc7f21033a31454b5d54fc6dd77d0a7bd0663552fc2c39e78563d4372efa2891d5baa7bf53ae"}, "vout": 39, "txid": "4743fcadeeb963fbe8513715b619031c4826da5673f9ef93efde765e0e8e6d11"}, {"sequence": 4294967295, "scriptSig": {"hex": "00483045022100eb156b23354cf29c29bc5a8620bead67fd7cc5af26ee3eb5b9eed0185ce39f2c02205054143e80e30e1c492f433e62e47cd79930cf1ef81993bf941202ad376a92ba0147304402203d43167bf49b706162765c31417671101559407502bbc3da54676b2e061b587f022060d38b792113c6dbf2624a888560775c4ab4f2194f6577517f190722a8fc83ea014c69522103ebae35ac628139311bc8e225f462ee61a15859aa8c447939e06e2839bc6d7fd2210318cc3319da80332036c314490da44b378ea78aee098e68ede5c82662de68e2b221035a049ac454f084f990bfafd059ac3409429b5552cf6cd4ab780d71df45dddc7d53ae", "asm": "0 3045022100eb156b23354cf29c29bc5a8620bead67fd7cc5af26ee3eb5b9eed0185ce39f2c02205054143e80e30e1c492f433e62e47cd79930cf1ef81993bf941202ad376a92ba[ALL] 304402203d43167bf49b706162765c31417671101559407502bbc3da54676b2e061b587f022060d38b792113c6dbf2624a888560775c4ab4f2194f6577517f190722a8fc83ea[ALL] 522103ebae35ac628139311bc8e225f462ee61a15859aa8c447939e06e2839bc6d7fd2210318cc3319da80332036c314490da44b378ea78aee098e68ede5c82662de68e2b221035a049ac454f084f990bfafd059ac3409429b5552cf6cd4ab780d71df45dddc7d53ae"}, "vout": 43, "txid": "4743fcadeeb963fbe8513715b619031c4826da5673f9ef93efde765e0e8e6d11"}, {"sequence": 4294967295, "scriptSig": {"hex": "00473044022059d5ba88388cfdb30dd1404baae2c0e4abd2bf850c0ad66e3ddf801d127fa45702207b225136a2cf23d5214ba563ce97260f56d24e7dafef7af486b1259fa01a8e6d01483045022100d87e74ff0ae717a01abc0538bea641a343759747a28fd1b24495e9c39c5e25e302205b6139cb7c0652c689297c07519aed8ce76f9a7129de76e72ad5103f9190ed8d014c69522103d37c56ff28264f0dd1dba7cbb426abef91d846f4e779e6565c5cc900bea635bd21028f292318816beef3da67511931b35b81292cad439c503d8a48b8ed65b6210d112102ce6535933811783b133faf995cd7f37903b0bc41c3233b72ba78e5ab5cb924c953ae", "asm": "0 3044022059d5ba88388cfdb30dd1404baae2c0e4abd2bf850c0ad66e3ddf801d127fa45702207b225136a2cf23d5214ba563ce97260f56d24e7dafef7af486b1259fa01a8e6d[ALL] 3045022100d87e74ff0ae717a01abc0538bea641a343759747a28fd1b24495e9c39c5e25e302205b6139cb7c0652c689297c07519aed8ce76f9a7129de76e72ad5103f9190ed8d[ALL] 522103d37c56ff28264f0dd1dba7cbb426abef91d846f4e779e6565c5cc900bea635bd21028f292318816beef3da67511931b35b81292cad439c503d8a48b8ed65b6210d112102ce6535933811783b133faf995cd7f37903b0bc41c3233b72ba78e5ab5cb924c953ae"}, "vout": 45, "txid": "4743fcadeeb963fbe8513715b619031c4826da5673f9ef93efde765e0e8e6d11"}], "txid": "bb713b7b7e72558ff9fc149ad06a1b04480683d5495bd3c9a32afe05fe75f264", "blocktime": 1537876114, "version": 1, "confirmations": 11459, "time": 1537876114, "locktime": 0, "vsize": 2802, "size": 2802}