{"hash": "bb7724344d0e2ef8e6007c67e295993d5acbc9130a32947472b3751bdc8d6522", "blockhash": "00000000000000000018f53835495a110e01622372bf6ae95dc86f2b0ab887b0", "vout": [{"scriptPubKey": {"reqSigs": 1, "hex": "76a9144a0f1e2f2b0d7daeec5265f10bbbbe08ed725e8988ac", "addresses": ["17kb7c9ndg7ioSuzMWEHWECdEVUegNkcGc"], "asm": "OP_DUP OP_HASH160 4a0f1e2f2b0d7daeec5265f10bbbbe08ed725e89 OP_EQUALVERIFY OP_CHECKSIG", "type": "pubkeyhash"}, "value": 0.05613241, "n": 0}], "hex": "01000000015b70b24ba031e7cb862fcef366b9d943dafcb57762d0c16610c450c065261198080000006b483045022100cd3fc339cb65b44e264a9fc3bdf63d859d84a309ff35803da4a268b70bcce74002205c0d81a91e763defcbdd0cc744bede8ca608e40792b980db192896c10498d2a3012102080d813f68a7b4158fa128bb70a25dc6a07eb08e94fc39353aebb185ff7757c7ffffffff01b9a65500000000001976a9144a0f1e2f2b0d7daeec5265f10bbbbe08ed725e8988ac00000000", "vin": [{"sequence": 4294967295, "scriptSig": {"hex": "483045022100cd3fc339cb65b44e264a9fc3bdf63d859d84a309ff35803da4a268b70bcce74002205c0d81a91e763defcbdd0cc744bede8ca608e40792b980db192896c10498d2a3012102080d813f68a7b4158fa128bb70a25dc6a07eb08e94fc39353aebb185ff7757c7", "asm": "3045022100cd3fc339cb65b44e264a9fc3bdf63d859d84a309ff35803da4a268b70bcce74002205c0d81a91e763defcbdd0cc744bede8ca608e40792b980db192896c10498d2a3[ALL] 02080d813f68a7b4158fa128bb70a25dc6a07eb08e94fc39353aebb185ff7757c7"}, "vout": 8, "txid": "98112665c050c41066c1d06277b5fcda43d9b966f3ce2f86cbe731a04bb2705b"}], "txid": "bb7724344d0e2ef8e6007c67e295993d5acbc9130a32947472b3751bdc8d6522", "blocktime": 1537870928, "version": 1, "confirmations": 11512, "time": 1537870928, "locktime": 0, "vsize": 192, "size": 192}