{"hash": "bb8006c49ed427f75dcb97c9834b60d2f73d31ffab5e001f1bf50b9b5baeb323", "blockhash": "000000000000000000022b45ed06c6f4ccd3cf7fb5ba4856ebd2e58215665228", "vout": [{"scriptPubKey": {"reqSigs": 1, "hex": "76a91423885ba09f820d4be2e7d7600f7e8126ce994a4088ac", "addresses": ["14Et12ebrKEG1MoSebqPdbBSvuiwUMj7Nm"], "asm": "OP_DUP OP_HASH160 23885ba09f820d4be2e7d7600f7e8126ce994a40 OP_EQUALVERIFY OP_CHECKSIG", "type": "pubkeyhash"}, "value": 0.0005, "n": 0}, {"scriptPubKey": {"reqSigs": 1, "hex": "76a9140d9db9733c7c5e9dcd7d2e714a69e361dc43c64588ac", "addresses": ["12EzjNwRARhsSjZwa79z7L8yoG55sK79VD"], "asm": "OP_DUP OP_HASH160 0d9db9733c7c5e9dcd7d2e714a69e361dc43c645 OP_EQUALVERIFY OP_CHECKSIG", "type": "pubkeyhash"}, "value": 0.00249322, "n": 1}], "hex": "0100000001fc1508a7026be0fd6fafdb68c6cdb118991c9bdd8cd57d386dcd9d4cd1598a1ce10000006a47304402203b06f9e542e2e547255eb314fb805d59341ad034b965fe8b38f0317118ea0bce022059021d85724adee1d224869fceef89daa51a66e6f2f980e571805bdd71bfc4500121020361111a7e574ca5d254ca27f88c2601fe99bc4a82eb866569cc9d0de376aca1ffffffff0250c30000000000001976a91423885ba09f820d4be2e7d7600f7e8126ce994a4088aceacd0300000000001976a9140d9db9733c7c5e9dcd7d2e714a69e361dc43c64588ac00000000", "vin": [{"sequence": 4294967295, "scriptSig": {"hex": "47304402203b06f9e542e2e547255eb314fb805d59341ad034b965fe8b38f0317118ea0bce022059021d85724adee1d224869fceef89daa51a66e6f2f980e571805bdd71bfc4500121020361111a7e574ca5d254ca27f88c2601fe99bc4a82eb866569cc9d0de376aca1", "asm": "304402203b06f9e542e2e547255eb314fb805d59341ad034b965fe8b38f0317118ea0bce022059021d85724adee1d224869fceef89daa51a66e6f2f980e571805bdd71bfc450[ALL] 020361111a7e574ca5d254ca27f88c2601fe99bc4a82eb866569cc9d0de376aca1"}, "vout": 225, "txid": "1c8a59d14c9dcd6d387dd58cdd9b1c9918b1cdc668dbaf6ffde06b02a70815fc"}], "txid": "bb8006c49ed427f75dcb97c9834b60d2f73d31ffab5e001f1bf50b9b5baeb323", "blocktime": 1537869901, "version": 1, "confirmations": 11524, "time": 1537869901, "locktime": 0, "vsize": 225, "size": 225}