{"hash": "bb864461c658b046df0ef1ad3dbba9d0a393715a00a5cb790d1d58c7cdf87b00", "blockhash": "0000000000000000001f0ddff1eddb255c1121bcd4da4f1bc9a0da00cae72433", "vout": [{"scriptPubKey": {"reqSigs": 1, "hex": "a9142141f2f6158b1fbc48d8b8f423dbe1de0da5529a87", "addresses": ["34isE6WB1WF8941wUfc7uaNBaQMbNs5yxS"], "asm": "OP_HASH160 2141f2f6158b1fbc48d8b8f423dbe1de0da5529a OP_EQUAL", "type": "scripthash"}, "value": 0.0198774, "n": 0}], "hex": "01000000012b2ff72e8b6da33dd04f13897a6a007811505f98165de3575aefd0add0d9c3e7670000006b4830450221009d8049e32c17797d4b4e96b530a77ec330582c1ad3fc889bd5006353441b1eee02207ac1616ea545aa3135fac6470edf33be7119d5860075a94b76ebf09af1a83b9101210328a31676180de32e0493e1154500de2728b6193017d6b297752d8fac3abd7642ffffffff019c541e000000000017a9142141f2f6158b1fbc48d8b8f423dbe1de0da5529a8700000000", "vin": [{"sequence": 4294967295, "scriptSig": {"hex": "4830450221009d8049e32c17797d4b4e96b530a77ec330582c1ad3fc889bd5006353441b1eee02207ac1616ea545aa3135fac6470edf33be7119d5860075a94b76ebf09af1a83b9101210328a31676180de32e0493e1154500de2728b6193017d6b297752d8fac3abd7642", "asm": "30450221009d8049e32c17797d4b4e96b530a77ec330582c1ad3fc889bd5006353441b1eee02207ac1616ea545aa3135fac6470edf33be7119d5860075a94b76ebf09af1a83b91[ALL] 0328a31676180de32e0493e1154500de2728b6193017d6b297752d8fac3abd7642"}, "vout": 103, "txid": "e7c3d9d0add0ef5a57e35d16985f501178006a7a89134fd03da36d8b2ef72f2b"}], "txid": "bb864461c658b046df0ef1ad3dbba9d0a393715a00a5cb790d1d58c7cdf87b00", "blocktime": 1537872018, "version": 1, "confirmations": 11489, "time": 1537872018, "locktime": 0, "vsize": 190, "size": 190}