{"hash": "55196f0b502d26346f22be0934a2330daf9c64a5cdea081610879c6c64ce6901", "blockhash": "0000000000000000001f76057863aec43deb6fa401d9628bb513d65a8098bfab", "vout": [{"scriptPubKey": {"reqSigs": 1, "hex": "a914da842796552f3e74eaf0e795c1a42c78c66707ce87", "addresses": ["3McRYdNo31sBFNJHDntNFiX9y1b9UbYSvi"], "asm": "OP_HASH160 da842796552f3e74eaf0e795c1a42c78c66707ce OP_EQUAL", "type": "scripthash"}, "value": 0.14524373, "n": 0}, {"scriptPubKey": {"reqSigs": 1, "hex": "76a914932336321aa3a3f6ffa2a75f777f43de3f6ce3cf88ac", "addresses": ["1EQzWkZRuvTr4fPpEd7L8K2ugM93aCQg84"], "asm": "OP_DUP OP_HASH160 932336321aa3a3f6ffa2a75f777f43de3f6ce3cf OP_EQUALVERIFY OP_CHECKSIG", "type": "pubkeyhash"}, "value": 2.0, "n": 1}, {"scriptPubKey": {"reqSigs": 1, "hex": "a9147b759b19f063925ef1feb1ca74b24f60c81a9ae487", "addresses": ["3CwovY8oUHmv1crr8uWhM4TzL4yoeSsqAz"], "asm": "OP_HASH160 7b759b19f063925ef1feb1ca74b24f60c81a9ae4 OP_EQUAL", "type": "scripthash"}, "value": 19.10704348, "n": 2}], "hex": "010000000001018ecf9a6e33555be48faa130018f505d532ac967b19b9f26f69090d2c3124530f03000000171600142a1fb4f21b604dd19b016069ed27100044e91962ffffffff03d59fdd000000000017a914da842796552f3e74eaf0e795c1a42c78c66707ce8700c2eb0b000000001976a914932336321aa3a3f6ffa2a75f777f43de3f6ce3cf88acdc08e3710000000017a9147b759b19f063925ef1feb1ca74b24f60c81a9ae48702483045022100fb98af90b036451f047986bb1e08e63e2383a3dce8a5ea5e281c700fd34e2db502204566747745b1945865809831e403b50fe1a942ddb44d526ca680289c4c3ba0bc01210276e2e2e95b3a442a0d2e655454a70a03167adda61a6bce61444ffae3c04cdc3b00000000", "vin": [{"txinwitness": ["3045022100fb98af90b036451f047986bb1e08e63e2383a3dce8a5ea5e281c700fd34e2db502204566747745b1945865809831e403b50fe1a942ddb44d526ca680289c4c3ba0bc01", "0276e2e2e95b3a442a0d2e655454a70a03167adda61a6bce61444ffae3c04cdc3b"], "sequence": 4294967295, "scriptSig": {"hex": "1600142a1fb4f21b604dd19b016069ed27100044e91962", "asm": "00142a1fb4f21b604dd19b016069ed27100044e91962"}, "vout": 3, "txid": "0f5324312c0d09696ff2b9197b96ac32d505f5180013aa8fe45b55336e9acf8e"}], "txid": "bb89de829c0aebcfe9d2e91f78a5fa2ad0972ffe0a938315d14f7abccb2232dd", "blocktime": 1537873891, "version": 1, "confirmations": 11477, "time": 1537873891, "locktime": 0, "vsize": 200, "size": 282}