{"hash": "2d1c74fcddc540d9da21c058479d67963a58a13c1899e4b49e3bf32bc2b18855", "blockhash": "0000000000000000001cda96e906b7601b7a6fb1a3b62bca570a9e5d8f4b3de1", "vout": [{"scriptPubKey": {"reqSigs": 1, "hex": "a9145b32b3702c0d7045d01d0372f86f13516753365687", "addresses": ["3A1E9mC3nv53eNDfT6MrXsGGGnpeZ2AvmU"], "asm": "OP_HASH160 5b32b3702c0d7045d01d0372f86f135167533656 OP_EQUAL", "type": "scripthash"}, "value": 0.35, "n": 0}, {"scriptPubKey": {"reqSigs": 1, "hex": "00142e6496dc7b1c10ef066b3a2e0ec36643d4d79eb1", "addresses": ["bc1q9ejfdhrmrsgw7pnt8ghqasmxg02d0843dv6g4n"], "asm": "0 2e6496dc7b1c10ef066b3a2e0ec36643d4d79eb1", "type": "witness_v0_keyhash"}, "value": 0.04583513, "n": 1}], "hex": "01000000000101833692988c7865235b789515fe7149cf40fa0517822b4af209208e9fadb2ca430000000000ffffffff02c00e16020000000017a9145b32b3702c0d7045d01d0372f86f1351675336568759f04500000000001600142e6496dc7b1c10ef066b3a2e0ec36643d4d79eb1024730440220161c836fadd7d8eea1b1e54b41d0ed06c5c1a74c194620596744052ad56b2c9c022075a87901d8e7c0ba51962f969cc512d5e12b12b3b91a2f80b2c75d5b06375aa4012103076f527d305a18c3a0e5b62b4f111a1dfa6d93f74cb786b604233f13e16644d200000000", "vin": [{"txinwitness": ["30440220161c836fadd7d8eea1b1e54b41d0ed06c5c1a74c194620596744052ad56b2c9c022075a87901d8e7c0ba51962f969cc512d5e12b12b3b91a2f80b2c75d5b06375aa401", "03076f527d305a18c3a0e5b62b4f111a1dfa6d93f74cb786b604233f13e16644d2"], "sequence": 4294967295, "scriptSig": {"hex": "", "asm": ""}, "vout": 0, "txid": "43cab2ad9f8e2009f24a2b821705fa40cf4971fe1595785b2365788c98923683"}], "txid": "bb8cabb4bf43cf3f432222533b7062cedad557d3016c2c06374a412afa804a2c", "blocktime": 1537873282, "version": 1, "confirmations": 11484, "time": 1537873282, "locktime": 0, "vsize": 142, "size": 223}