{"hash": "bb928a4199dacfa2c9e5938a0128718df3423839f1c52621c4551c1a892cc3b7", "blockhash": "0000000000000000001cda96e906b7601b7a6fb1a3b62bca570a9e5d8f4b3de1", "vout": [{"scriptPubKey": {"reqSigs": 1, "hex": "76a9146923eefe1f4885db43c5a9667f2eb6083d429c6288ac", "addresses": ["1AavzrJdKTNDStFnJw7JiYFkgAcfuBLfDx"], "asm": "OP_DUP OP_HASH160 6923eefe1f4885db43c5a9667f2eb6083d429c62 OP_EQUALVERIFY OP_CHECKSIG", "type": "pubkeyhash"}, "value": 0.07445293, "n": 0}, {"scriptPubKey": {"reqSigs": 1, "hex": "76a914792a30cfaa9857de5f0f3c3faf8ed07fe663499088ac", "addresses": ["1C3fJftgjgM2Qcpp1e4pmbHETZwBhQZ5Ym"], "asm": "OP_DUP OP_HASH160 792a30cfaa9857de5f0f3c3faf8ed07fe6634990 OP_EQUALVERIFY OP_CHECKSIG", "type": "pubkeyhash"}, "value": 0.23480024, "n": 1}], "hex": "0200000001bd1986d1b4a5993a1b973328779c4b2bf1a447c0220cc0ce4d65f4ca13f020b7040000006a47304402201e3038b771e22d2728329702ad0348a2c8aa1a3965a3be959d568f2018427a95022002dca65f2d01a57016705b57c61a77ce63784e07780b925b93bb5e5ae425fe0b012102c69e35620eb969cee9e1f6d2eddced281ba32628f33d19593878c6f56c72a536feffffff022d9b7100000000001976a9146923eefe1f4885db43c5a9667f2eb6083d429c6288acd8466601000000001976a914792a30cfaa9857de5f0f3c3faf8ed07fe663499088ac13490800", "vin": [{"sequence": 4294967294, "scriptSig": {"hex": "47304402201e3038b771e22d2728329702ad0348a2c8aa1a3965a3be959d568f2018427a95022002dca65f2d01a57016705b57c61a77ce63784e07780b925b93bb5e5ae425fe0b012102c69e35620eb969cee9e1f6d2eddced281ba32628f33d19593878c6f56c72a536", "asm": "304402201e3038b771e22d2728329702ad0348a2c8aa1a3965a3be959d568f2018427a95022002dca65f2d01a57016705b57c61a77ce63784e07780b925b93bb5e5ae425fe0b[ALL] 02c69e35620eb969cee9e1f6d2eddced281ba32628f33d19593878c6f56c72a536"}, "vout": 4, "txid": "b720f013caf4654dcec00c22c047a4f12b4b9c772833971b3a99a5b4d18619bd"}], "txid": "bb928a4199dacfa2c9e5938a0128718df3423839f1c52621c4551c1a892cc3b7", "blocktime": 1537873282, "version": 2, "confirmations": 11480, "time": 1537873282, "locktime": 542995, "vsize": 225, "size": 225}