{"hash": "bb9376e184b9ede4b58587639e7285d7f8b67cf38bf16e8717ba5092365b566a", "blockhash": "0000000000000000000baef3f32e3676a92c3b2e5da21b426e4f302fc371ce76", "vout": [{"scriptPubKey": {"reqSigs": 1, "hex": "76a91494b539517dc70adb4bef328275e53600773b347c88ac", "addresses": ["1EZJ73o9VHA6hm7VRLLdPcFiVJ3n7gJcsS"], "asm": "OP_DUP OP_HASH160 94b539517dc70adb4bef328275e53600773b347c OP_EQUALVERIFY OP_CHECKSIG", "type": "pubkeyhash"}, "value": 0.0029, "n": 0}, {"scriptPubKey": {"reqSigs": 1, "hex": "76a914985b5d4e84f9ed09d6eb10c91d9e8669a7fe512e88ac", "addresses": ["1EtbAGsBtdNsuUTP7TpXvLwo3NqY8E94pQ"], "asm": "OP_DUP OP_HASH160 985b5d4e84f9ed09d6eb10c91d9e8669a7fe512e OP_EQUALVERIFY OP_CHECKSIG", "type": "pubkeyhash"}, "value": 0.00207169, "n": 1}], "hex": "01000000016b6e99dda4a0f203636b02984ee9d79220d8b90cf00d5770f4d7cc8bed7beb13010000006b483045022100ff3e66abf619fc898b70a9dab25800402164160e46183608b2cfbbe0cbbfdade022021ee7c47ffdd556bc27f3771a334d9888238f6dc23a6fc3a769b25a153c76685012103879e148c3df24a4a141c08255c50e5164d85a1cc4e77ebeb3368056ab3f9c38effffffff02d06c0400000000001976a91494b539517dc70adb4bef328275e53600773b347c88ac41290300000000001976a914985b5d4e84f9ed09d6eb10c91d9e8669a7fe512e88ac00000000", "vin": [{"sequence": 4294967295, "scriptSig": {"hex": "483045022100ff3e66abf619fc898b70a9dab25800402164160e46183608b2cfbbe0cbbfdade022021ee7c47ffdd556bc27f3771a334d9888238f6dc23a6fc3a769b25a153c76685012103879e148c3df24a4a141c08255c50e5164d85a1cc4e77ebeb3368056ab3f9c38e", "asm": "3045022100ff3e66abf619fc898b70a9dab25800402164160e46183608b2cfbbe0cbbfdade022021ee7c47ffdd556bc27f3771a334d9888238f6dc23a6fc3a769b25a153c76685[ALL] 03879e148c3df24a4a141c08255c50e5164d85a1cc4e77ebeb3368056ab3f9c38e"}, "vout": 1, "txid": "13eb7bed8bccd7f470570df00cb9d82092d7e94e98026b6303f2a0a4dd996e6b"}], "txid": "bb9376e184b9ede4b58587639e7285d7f8b67cf38bf16e8717ba5092365b566a", "blocktime": 1537876114, "version": 1, "confirmations": 11460, "time": 1537876114, "locktime": 0, "vsize": 226, "size": 226}