{"hash": "bb9753fb648f6cb1113f66180d6b43ebdba5efe4b259b7bb00d1aa426a2e2909", "blockhash": "00000000000000000024a2167bbff67b0be802c0b01cdd79e6331c2be6459f87", "vout": [{"scriptPubKey": {"reqSigs": 1, "hex": "76a914d243e6abb9a60fbff430b421d2df4b7d59ec186088ac", "addresses": ["1LAnF8h3qMGx3TSwNUHVneBZUEpwE4gu3D"], "asm": "OP_DUP OP_HASH160 d243e6abb9a60fbff430b421d2df4b7d59ec1860 OP_EQUALVERIFY OP_CHECKSIG", "type": "pubkeyhash"}, "value": 0.00077314, "n": 0}, {"scriptPubKey": {"reqSigs": 1, "hex": "76a91477d67e9ce65ae268d35f1d4061a75d57df9666f488ac", "addresses": ["1BveNB1hn24ZjnL6Xc7CWxuQGUv2HNqza9"], "asm": "OP_DUP OP_HASH160 77d67e9ce65ae268d35f1d4061a75d57df9666f4 OP_EQUALVERIFY OP_CHECKSIG", "type": "pubkeyhash"}, "value": 5.46e-06, "n": 1}, {"scriptPubKey": {"type": "nulldata", "hex": "6a146f6d6e69000000000000001f00000004a817c800", "asm": "OP_RETURN 6f6d6e69000000000000001f00000004a817c800"}, "value": 0.0, "n": 2}], "hex": "01000000010bf47bb7212d1e57cf3924df3283de2e535448fe30fe2c38aa0690c4f15915c5000000006a47304402201910155f7367de292685863f922bed4d192075e4e84d2dccd4bfec3cc4417f99022054fc021f12009412bd62e84a99be6662564428af7fc87cfe48b8a781752da1b201210271977291b74f1f5f5c42157e8aae804664eaaeccfd097918450d37f28fb94d77ffffffff03022e0100000000001976a914d243e6abb9a60fbff430b421d2df4b7d59ec186088ac22020000000000001976a91477d67e9ce65ae268d35f1d4061a75d57df9666f488ac0000000000000000166a146f6d6e69000000000000001f00000004a817c80000000000", "vin": [{"sequence": 4294967295, "scriptSig": {"hex": "47304402201910155f7367de292685863f922bed4d192075e4e84d2dccd4bfec3cc4417f99022054fc021f12009412bd62e84a99be6662564428af7fc87cfe48b8a781752da1b201210271977291b74f1f5f5c42157e8aae804664eaaeccfd097918450d37f28fb94d77", "asm": "304402201910155f7367de292685863f922bed4d192075e4e84d2dccd4bfec3cc4417f99022054fc021f12009412bd62e84a99be6662564428af7fc87cfe48b8a781752da1b2[ALL] 0271977291b74f1f5f5c42157e8aae804664eaaeccfd097918450d37f28fb94d77"}, "vout": 0, "txid": "c51559f1c49006aa382cfe30fe4854532ede8332df2439cf571e2d21b77bf40b"}], "txid": "bb9753fb648f6cb1113f66180d6b43ebdba5efe4b259b7bb00d1aa426a2e2909", "blocktime": 1537870564, "version": 1, "confirmations": 11515, "time": 1537870564, "locktime": 0, "vsize": 256, "size": 256}