{"hash": "bba8e0488408cc12d3270d800fa2b95be15e4326004c15ac42f6ee109af23b43", "blockhash": "0000000000000000001f76057863aec43deb6fa401d9628bb513d65a8098bfab", "vout": [{"scriptPubKey": {"reqSigs": 1, "hex": "76a914bce3ada50cab3b4b0634bd3983f6df913cc6901188ac", "addresses": ["1JDknRvZTi5XdhQB3cgvJ9R8aogUvfbYUB"], "asm": "OP_DUP OP_HASH160 bce3ada50cab3b4b0634bd3983f6df913cc69011 OP_EQUALVERIFY OP_CHECKSIG", "type": "pubkeyhash"}, "value": 38.88758806, "n": 0}, {"scriptPubKey": {"reqSigs": 1, "hex": "a9144f51f6137bc6e8cefb9e5282fa46965ed78c4cf487", "addresses": ["38vRVTuo5AqFyS89erzzqT2dox56hRo8FF"], "asm": "OP_HASH160 4f51f6137bc6e8cefb9e5282fa46965ed78c4cf4 OP_EQUAL", "type": "scripthash"}, "value": 0.111275, "n": 1}, {"scriptPubKey": {"reqSigs": 1, "hex": "76a914aaaa43a3010e9253f565533dbd77260a0e29badd88ac", "addresses": ["1GZPqmz7zQ6P3Wd1pWEwN8B3PPYV52Viur"], "asm": "OP_DUP OP_HASH160 aaaa43a3010e9253f565533dbd77260a0e29badd OP_EQUALVERIFY OP_CHECKSIG", "type": "pubkeyhash"}, "value": 0.836, "n": 2}], "hex": "0200000001267c5e172b6ab905a5fa0d38750ae0958374db5d15de8dc9bb960ad1d41f5d81010000006a47304402206e010b9db1d7efa4ac57c3c2d4ee177c16a632270f693641a33ce4378d7a714002206827846f2d29a62e65e05654b22b1c0963e8c1250d1683153e8e393fa58143710121033e01efbe5689e568beabc1630511414a7b4f7a79003421c147ed18a5a75a40e4ffffffff0316c0c9e7000000001976a914bce3ada50cab3b4b0634bd3983f6df913cc6901188accccaa9000000000017a9144f51f6137bc6e8cefb9e5282fa46965ed78c4cf48780a2fb04000000001976a914aaaa43a3010e9253f565533dbd77260a0e29badd88ac00000000", "vin": [{"sequence": 4294967295, "scriptSig": {"hex": "47304402206e010b9db1d7efa4ac57c3c2d4ee177c16a632270f693641a33ce4378d7a714002206827846f2d29a62e65e05654b22b1c0963e8c1250d1683153e8e393fa58143710121033e01efbe5689e568beabc1630511414a7b4f7a79003421c147ed18a5a75a40e4", "asm": "304402206e010b9db1d7efa4ac57c3c2d4ee177c16a632270f693641a33ce4378d7a714002206827846f2d29a62e65e05654b22b1c0963e8c1250d1683153e8e393fa5814371[ALL] 033e01efbe5689e568beabc1630511414a7b4f7a79003421c147ed18a5a75a40e4"}, "vout": 1, "txid": "815d1fd4d10a96bbc98dde155ddb748395e00a75380dfaa505b96a2b175e7c26"}], "txid": "bba8e0488408cc12d3270d800fa2b95be15e4326004c15ac42f6ee109af23b43", "blocktime": 1537873891, "version": 2, "confirmations": 11474, "time": 1537873891, "locktime": 0, "vsize": 257, "size": 257}