{"hash": "bba85785d174a311d020a8718dc824fdeab711c8e31f96ffb81937249655615b", "blockhash": "0000000000000000001f0ddff1eddb255c1121bcd4da4f1bc9a0da00cae72433", "vout": [{"scriptPubKey": {"reqSigs": 1, "hex": "76a9145ae22e278409cd592e9d782a4e412acfd836657a88ac", "addresses": ["19HYmYiXREPmApHznBCSed1B2jCLLmxop4"], "asm": "OP_DUP OP_HASH160 5ae22e278409cd592e9d782a4e412acfd836657a OP_EQUALVERIFY OP_CHECKSIG", "type": "pubkeyhash"}, "value": 1.404e-05, "n": 0}, {"scriptPubKey": {"reqSigs": 1, "hex": "76a9142eaac4d84160a5e24a18646d71ba71ba4d99303d88ac", "addresses": ["15Fkf4K6z6XQXr1xoNBDDTaR9GBMX6JdyF"], "asm": "OP_DUP OP_HASH160 2eaac4d84160a5e24a18646d71ba71ba4d99303d OP_EQUALVERIFY OP_CHECKSIG", "type": "pubkeyhash"}, "value": 5.46e-06, "n": 1}, {"scriptPubKey": {"type": "nulldata", "hex": "6a146f6d6e69000000000000001f00000417bce6c800", "asm": "OP_RETURN 6f6d6e69000000000000001f00000417bce6c800"}, "value": 0.0, "n": 2}], "hex": "010000000185f319125018d6beba366d0740aa90b1fa8761601d2fa5e61b64045f92ee0056000000006b483045022100c7adef760a4901b304b7ba817082acba1c13261f60282ef32bdb06591929cb0c0220281a3da311b2d4f4fbb18637f389ae717fd5ca4eba6f5b2a751e421e06e6cee30121034648e9ab7082174c19c1aeb0e43a3b9809179d325df16cbd11ecad7f21e2e398ffffffff037c050000000000001976a9145ae22e278409cd592e9d782a4e412acfd836657a88ac22020000000000001976a9142eaac4d84160a5e24a18646d71ba71ba4d99303d88ac0000000000000000166a146f6d6e69000000000000001f00000417bce6c80000000000", "vin": [{"sequence": 4294967295, "scriptSig": {"hex": "483045022100c7adef760a4901b304b7ba817082acba1c13261f60282ef32bdb06591929cb0c0220281a3da311b2d4f4fbb18637f389ae717fd5ca4eba6f5b2a751e421e06e6cee30121034648e9ab7082174c19c1aeb0e43a3b9809179d325df16cbd11ecad7f21e2e398", "asm": "3045022100c7adef760a4901b304b7ba817082acba1c13261f60282ef32bdb06591929cb0c0220281a3da311b2d4f4fbb18637f389ae717fd5ca4eba6f5b2a751e421e06e6cee3[ALL] 034648e9ab7082174c19c1aeb0e43a3b9809179d325df16cbd11ecad7f21e2e398"}, "vout": 0, "txid": "5600ee925f04641be6a52f1d606187fab190aa40076d36babed618501219f385"}], "txid": "bba85785d174a311d020a8718dc824fdeab711c8e31f96ffb81937249655615b", "blocktime": 1537872018, "version": 1, "confirmations": 11489, "time": 1537872018, "locktime": 0, "vsize": 257, "size": 257}