{"hash": "e371b5fcb791f4e178e86ce4231ebe165e56401aa5ab659469e2cabd28952bdb", "blockhash": "0000000000000000000e13cef7c366c0283d82e591d1acd082e914b08063cdf1", "vout": [{"scriptPubKey": {"reqSigs": 1, "hex": "a914b3a3d08e03cbd49388a407ebc09c6e6a044e180587", "addresses": ["3J4s7vYbKhh8oAa1YdmfaHb7EdKJ3o597V"], "asm": "OP_HASH160 b3a3d08e03cbd49388a407ebc09c6e6a044e1805 OP_EQUAL", "type": "scripthash"}, "value": 0.00627772, "n": 0}, {"scriptPubKey": {"reqSigs": 1, "hex": "0014a95c9f89d6c06f66981997ba608ae56ac9ac6b2a", "addresses": ["bc1q49wflzwkcphkdxqej7axpzh9dty6c6e239tph8"], "asm": "0 a95c9f89d6c06f66981997ba608ae56ac9ac6b2a", "type": "witness_v0_keyhash"}, "value": 1.76564495, "n": 1}], "hex": "01000000000101a8ea0b2dcbeef7d5314215886fa009ec3eb601529301617c907afcf477f73a6d0000000000ffffffff023c9409000000000017a914b3a3d08e03cbd49388a407ebc09c6e6a044e1805870f29860a00000000160014a95c9f89d6c06f66981997ba608ae56ac9ac6b2a02473044022013e0605a227d47296c0681f58d7aa7fbfc257001dd02d03290cb142d9d4726c202204fc0caefd622edef701aac4e930b1e0408bd0cd6416cc257e8a4ed06c0ab1b18012103a377a1cab59acf18dc2104e1e9f7cfe4fdcf5eb4d48635a53da200a2241d6c5300000000", "vin": [{"txinwitness": ["3044022013e0605a227d47296c0681f58d7aa7fbfc257001dd02d03290cb142d9d4726c202204fc0caefd622edef701aac4e930b1e0408bd0cd6416cc257e8a4ed06c0ab1b1801", "03a377a1cab59acf18dc2104e1e9f7cfe4fdcf5eb4d48635a53da200a2241d6c53"], "sequence": 4294967295, "scriptSig": {"hex": "", "asm": ""}, "vout": 0, "txid": "6d3af777f4fc7a907c6101935201b63eec09a06f88154231d5f7eecb2d0beaa8"}], "txid": "bbaed442216615586e3bb1ae459e5119c84d4243847585a6d9809e6d15b5b297", "blocktime": 1537871767, "version": 1, "confirmations": 11495, "time": 1537871767, "locktime": 0, "vsize": 142, "size": 223}