{"hash": "e10755d9d4a4d6afee82ab4a6411f341b0b26436387cdd31f22dfdb932b89e87", "blockhash": "000000000000000000022b45ed06c6f4ccd3cf7fb5ba4856ebd2e58215665228", "vout": [{"scriptPubKey": {"reqSigs": 1, "hex": "00141ac70a25e1df39f1619b4bba6ab0d98f772e1a98", "addresses": ["bc1qrtrs5f0pmuulzcvmfwax4vxe3amjux5c9tt0pl"], "asm": "0 1ac70a25e1df39f1619b4bba6ab0d98f772e1a98", "type": "witness_v0_keyhash"}, "value": 0.00016262, "n": 0}, {"scriptPubKey": {"reqSigs": 1, "hex": "76a914ea6c896f90c40650d4a23e5580ea1dd59c18ccc588ac", "addresses": ["1NNX9ANA4WyJcuVYYNhW3bro1aTNt4ASHr"], "asm": "OP_DUP OP_HASH160 ea6c896f90c40650d4a23e5580ea1dd59c18ccc5 OP_EQUALVERIFY OP_CHECKSIG", "type": "pubkeyhash"}, "value": 0.00400268, "n": 1}], "hex": "010000000001010cef9a908625e8398721cd7bc90b5d99da2b57d4e2430cf882cf3276b7a67e750000000000ffffffff02863f0000000000001600141ac70a25e1df39f1619b4bba6ab0d98f772e1a988c1b0600000000001976a914ea6c896f90c40650d4a23e5580ea1dd59c18ccc588ac02473044022049864c1bef680c9f8ba199166207b74460481a667e5bc03882de1e7dbb0251da02204b461cd16ba8c548f36186cd5c8db37313514cb5ddf77cecc7260d3b995e9599012103feaaa8b5f9f5e39a09cc19856dd368d10bc387093eec97527dc371b613eae3be00000000", "vin": [{"txinwitness": ["3044022049864c1bef680c9f8ba199166207b74460481a667e5bc03882de1e7dbb0251da02204b461cd16ba8c548f36186cd5c8db37313514cb5ddf77cecc7260d3b995e959901", "03feaaa8b5f9f5e39a09cc19856dd368d10bc387093eec97527dc371b613eae3be"], "sequence": 4294967295, "scriptSig": {"hex": "", "asm": ""}, "vout": 0, "txid": "757ea6b77632cf82f80c43e2d4572bda995d0bc97bcd218739e82586909aef0c"}], "txid": "bbaf74cd7c881e4272cc0920fdbb7c5bd8423717bca1d1baeb82ff1f02fb16d8", "blocktime": 1537869901, "version": 1, "confirmations": 11523, "time": 1537869901, "locktime": 0, "vsize": 144, "size": 225}