{"hash": "bbb02a16090a6457ed1b8a327d96694e0f4563413bdcd077e5825bf3acb3b699", "blockhash": "000000000000000000022b45ed06c6f4ccd3cf7fb5ba4856ebd2e58215665228", "vout": [{"scriptPubKey": {"reqSigs": 1, "hex": "76a914ff5a5ed7fd34c1aafb0e6de3fb43d72c4715ee2f88ac", "addresses": ["1QHBZy9Pb12pRcE3X9Qg5P2rCMgWRAv3RG"], "asm": "OP_DUP OP_HASH160 ff5a5ed7fd34c1aafb0e6de3fb43d72c4715ee2f OP_EQUALVERIFY OP_CHECKSIG", "type": "pubkeyhash"}, "value": 0.03419008, "n": 0}, {"scriptPubKey": {"reqSigs": 1, "hex": "76a914c6a1d17ca845bee85cc968739268b75a73f6ea5088ac", "addresses": ["1K7GeKJfrf3Lzr5Ddx8aQM6Xu9kWHgRn8N"], "asm": "OP_DUP OP_HASH160 c6a1d17ca845bee85cc968739268b75a73f6ea50 OP_EQUALVERIFY OP_CHECKSIG", "type": "pubkeyhash"}, "value": 0.09393639, "n": 1}], "hex": "01000000013ff720cc4ff31e9a72b74b8d63f564f1a8f6b08cf917963542167106d631e2d1030000006b483045022100d70703056ca84c698c6b4bbf9dd1bbb6d855163e531356a1372c1294a3b7d01402205f4158e4a68b95319e0e31572660425eb23a258c63d33a2c3f5d9fdf2c32d757012103ea7e0f8780f0c579cc91f779f12c2d0ac73fc844803d559e354cf97c7af11ca9fdffffff02802b3400000000001976a914ff5a5ed7fd34c1aafb0e6de3fb43d72c4715ee2f88ace7558f00000000001976a914c6a1d17ca845bee85cc968739268b75a73f6ea5088ac0b490800", "vin": [{"sequence": 4294967293, "scriptSig": {"hex": "483045022100d70703056ca84c698c6b4bbf9dd1bbb6d855163e531356a1372c1294a3b7d01402205f4158e4a68b95319e0e31572660425eb23a258c63d33a2c3f5d9fdf2c32d757012103ea7e0f8780f0c579cc91f779f12c2d0ac73fc844803d559e354cf97c7af11ca9", "asm": "3045022100d70703056ca84c698c6b4bbf9dd1bbb6d855163e531356a1372c1294a3b7d01402205f4158e4a68b95319e0e31572660425eb23a258c63d33a2c3f5d9fdf2c32d757[ALL] 03ea7e0f8780f0c579cc91f779f12c2d0ac73fc844803d559e354cf97c7af11ca9"}, "vout": 3, "txid": "d1e231d606711642359617f98cb0f6a8f164f5638d4bb7729a1ef34fcc20f73f"}], "txid": "bbb02a16090a6457ed1b8a327d96694e0f4563413bdcd077e5825bf3acb3b699", "blocktime": 1537869901, "version": 1, "confirmations": 11522, "time": 1537869901, "locktime": 542987, "vsize": 226, "size": 226}