{"hash": "bbb13693ae14b3ec66bea00b3b9a773125a56eb6b805f1ab9ddf275dfe21ed09", "blockhash": "00000000000000000018f53835495a110e01622372bf6ae95dc86f2b0ab887b0", "vout": [{"scriptPubKey": {"reqSigs": 1, "hex": "76a914e4a8e857fa2e504b3703a3135d6805591799e42188ac", "addresses": ["1Mr3QeGiJko3yQULsLGiW7zVeotCq8ka8E"], "asm": "OP_DUP OP_HASH160 e4a8e857fa2e504b3703a3135d6805591799e421 OP_EQUALVERIFY OP_CHECKSIG", "type": "pubkeyhash"}, "value": 2.78e-05, "n": 0}, {"scriptPubKey": {"reqSigs": 1, "hex": "a91421de1b32864816a4e6e3f7242bd3183e87c61c0c87", "addresses": ["34n6J5xMQvniLBtoCMaxny9epX6mehreE1"], "asm": "OP_HASH160 21de1b32864816a4e6e3f7242bd3183e87c61c0c OP_EQUAL", "type": "scripthash"}, "value": 0.00031246, "n": 1}], "hex": "01000000038fcdef8ce1212be968622196e4f18202fad2fb9e8e3eec90f45ea4fc7605aa46000000006a47304402201c918d1bf5f20d3bcb24de4891197218583821f8468b2957d13598ed67a0de1302200d5d507410615891cded2516a8da6af4b14604ed903804763f8311c697df05b70121022b60851cb455a79d74026cab07f10bb10711b755169913ea9e93f5c36320c707ffffffff7210986020b4809c1aeb78c44f0f1d82231be259506f57729fa8cfdf1b6153d4000000006b48304502210083947c441ea5ca47bc89ab46f22e879fca8e42686566f2a2bcab4bca4d31739402203912bf13b63506c80094f6ca5e8d4e2aa543997264148a56b634dc717445dbdd012103e1c72f0412e9ae72cab47e29078f5f5d49e9ca8452a2c36b1c464b28bd569b4affffffff3f40061e9ee77d6a7cd207886295320a80675fd3eda89033e5b1e7eb69485af9000000006a47304402200597645323cd2cb4b8d3d50b00c334ffe9311667618706bb1921dec345d8fd3d02207ed7bc87c20482627112588fa86c54a3c93face2d84d46a1dff1e3da845c9e65012103cc0e0bb1c5cfd4f2f70a8b6fbc8a6f7aa38648c1b913d82f4dc4a390db337d4bffffffff02dc0a0000000000001976a914e4a8e857fa2e504b3703a3135d6805591799e42188ac0e7a00000000000017a91421de1b32864816a4e6e3f7242bd3183e87c61c0c8700000000", "vin": [{"sequence": 4294967295, "scriptSig": {"hex": "47304402201c918d1bf5f20d3bcb24de4891197218583821f8468b2957d13598ed67a0de1302200d5d507410615891cded2516a8da6af4b14604ed903804763f8311c697df05b70121022b60851cb455a79d74026cab07f10bb10711b755169913ea9e93f5c36320c707", "asm": "304402201c918d1bf5f20d3bcb24de4891197218583821f8468b2957d13598ed67a0de1302200d5d507410615891cded2516a8da6af4b14604ed903804763f8311c697df05b7[ALL] 022b60851cb455a79d74026cab07f10bb10711b755169913ea9e93f5c36320c707"}, "vout": 0, "txid": "46aa0576fca45ef490ec3e8e9efbd2fa0282f1e496216268e92b21e18cefcd8f"}, {"sequence": 4294967295, "scriptSig": {"hex": "48304502210083947c441ea5ca47bc89ab46f22e879fca8e42686566f2a2bcab4bca4d31739402203912bf13b63506c80094f6ca5e8d4e2aa543997264148a56b634dc717445dbdd012103e1c72f0412e9ae72cab47e29078f5f5d49e9ca8452a2c36b1c464b28bd569b4a", "asm": "304502210083947c441ea5ca47bc89ab46f22e879fca8e42686566f2a2bcab4bca4d31739402203912bf13b63506c80094f6ca5e8d4e2aa543997264148a56b634dc717445dbdd[ALL] 03e1c72f0412e9ae72cab47e29078f5f5d49e9ca8452a2c36b1c464b28bd569b4a"}, "vout": 0, "txid": "d453611bdfcfa89f72576f5059e21b23821d0f4fc478eb1a9c80b42060981072"}, {"sequence": 4294967295, "scriptSig": {"hex": "47304402200597645323cd2cb4b8d3d50b00c334ffe9311667618706bb1921dec345d8fd3d02207ed7bc87c20482627112588fa86c54a3c93face2d84d46a1dff1e3da845c9e65012103cc0e0bb1c5cfd4f2f70a8b6fbc8a6f7aa38648c1b913d82f4dc4a390db337d4b", "asm": "304402200597645323cd2cb4b8d3d50b00c334ffe9311667618706bb1921dec345d8fd3d02207ed7bc87c20482627112588fa86c54a3c93face2d84d46a1dff1e3da845c9e65[ALL] 03cc0e0bb1c5cfd4f2f70a8b6fbc8a6f7aa38648c1b913d82f4dc4a390db337d4b"}, "vout": 0, "txid": "f95a4869ebe7b1e53390a8edd35f67800a3295628807d27c6a7de79e1e06403f"}], "txid": "bbb13693ae14b3ec66bea00b3b9a773125a56eb6b805f1ab9ddf275dfe21ed09", "blocktime": 1537870928, "version": 1, "confirmations": 11514, "time": 1537870928, "locktime": 0, "vsize": 518, "size": 518}