{"hash": "bbb7b1cf4c6e68c61733d899968743dcbdb8fefb266331d2490bab04066ac15e", "blockhash": "00000000000000000017f5eb5941039fbcee6240d03bc1f2f8e35350df66a1d8", "vout": [{"scriptPubKey": {"reqSigs": 1, "hex": "76a91422973f0b1ac906437507bf1586820f0a5e7bfecc88ac", "addresses": ["149uAJDYWZgMZ5obMTMwzNXdefhqJwGjMu"], "asm": "OP_DUP OP_HASH160 22973f0b1ac906437507bf1586820f0a5e7bfecc OP_EQUALVERIFY OP_CHECKSIG", "type": "pubkeyhash"}, "value": 1.1935, "n": 0}, {"scriptPubKey": {"reqSigs": 1, "hex": "76a9145d26d4997e67892b8f832a06396d70a63fdc9c6288ac", "addresses": ["19VYMq3gfuDzVED3jTr2ctBvRag3JQCuQY"], "asm": "OP_DUP OP_HASH160 5d26d4997e67892b8f832a06396d70a63fdc9c62 OP_EQUALVERIFY OP_CHECKSIG", "type": "pubkeyhash"}, "value": 13.9950107, "n": 1}], "hex": "02000000019209b1e03ea340d5af7dc803a69950371ba10fb423ec16c6a1c12239acfd7948010000006a473044022064608bff8231f401327f321de57baba14e630c453f5dbe9cad27d2ffaf75d487022071e21d60ebd3677d0a58999f4301ac24aebda96a12a2e0ebfc9e998c6dc210fc01210391878d22ae389ed5dd9584431fd189ea364647da4e93c227da37cc38e0f08fb1ffffffff02f0221d07000000001976a91422973f0b1ac906437507bf1586820f0a5e7bfecc88ac0eb16a53000000001976a9145d26d4997e67892b8f832a06396d70a63fdc9c6288ac00000000", "vin": [{"sequence": 4294967295, "scriptSig": {"hex": "473044022064608bff8231f401327f321de57baba14e630c453f5dbe9cad27d2ffaf75d487022071e21d60ebd3677d0a58999f4301ac24aebda96a12a2e0ebfc9e998c6dc210fc01210391878d22ae389ed5dd9584431fd189ea364647da4e93c227da37cc38e0f08fb1", "asm": "3044022064608bff8231f401327f321de57baba14e630c453f5dbe9cad27d2ffaf75d487022071e21d60ebd3677d0a58999f4301ac24aebda96a12a2e0ebfc9e998c6dc210fc[ALL] 0391878d22ae389ed5dd9584431fd189ea364647da4e93c227da37cc38e0f08fb1"}, "vout": 1, "txid": "4879fdac3922c1a1c616ec23b40fa11b375099a603c87dafd540a33ee0b10992"}], "txid": "bbb7b1cf4c6e68c61733d899968743dcbdb8fefb266331d2490bab04066ac15e", "blocktime": 1537874412, "version": 2, "confirmations": 11468, "time": 1537874412, "locktime": 0, "vsize": 225, "size": 225}