{"hash": "42282241221b70061f0a617125b69900ce9b00d69fff57e7a33a37d2f289f1c2", "blockhash": "000000000000000000022b45ed06c6f4ccd3cf7fb5ba4856ebd2e58215665228", "vout": [{"scriptPubKey": {"reqSigs": 1, "hex": "a9141f2545ef87ef34658625c29b8aab24b468431d0887", "addresses": ["34XhXH1fXWvDKFxbD2CavNs3951oKmRQXL"], "asm": "OP_HASH160 1f2545ef87ef34658625c29b8aab24b468431d08 OP_EQUAL", "type": "scripthash"}, "value": 0.00347891, "n": 0}, {"scriptPubKey": {"reqSigs": 1, "hex": "0014db776fcace94976d80c7822ade1d9e38d9cec5f3", "addresses": ["bc1qmdmkljkwjjtkmqx8sg4du8v78rvua30nxgdat7"], "asm": "0 db776fcace94976d80c7822ade1d9e38d9cec5f3", "type": "witness_v0_keyhash"}, "value": 1.556e-05, "n": 1}], "hex": "0100000000010187a5cf68a908ce0fc2bccd6f4ab76b837aa31a861e9edcd1e0630c433495f45f0000000000ffffffff02f34e05000000000017a9141f2545ef87ef34658625c29b8aab24b468431d08871406000000000000160014db776fcace94976d80c7822ade1d9e38d9cec5f302483045022100bdd8214d17a83aaad1d26dc646d015381923922bbd34e874e66d66d8fc7001e5022035b42c3dc1e0741d4a8baeda16d1de5d1a5311dd96bb0fed6ed3912b6f52f08e0121022ef50fb6d542a1292ed16fb915539172b137a76416f9fe0ccef2e47ab7c9795c00000000", "vin": [{"txinwitness": ["3045022100bdd8214d17a83aaad1d26dc646d015381923922bbd34e874e66d66d8fc7001e5022035b42c3dc1e0741d4a8baeda16d1de5d1a5311dd96bb0fed6ed3912b6f52f08e01", "022ef50fb6d542a1292ed16fb915539172b137a76416f9fe0ccef2e47ab7c9795c"], "sequence": 4294967295, "scriptSig": {"hex": "", "asm": ""}, "vout": 0, "txid": "5ff49534430c63e0d1dc9e1e861aa37a836bb74a6fcdbcc20fce08a968cfa587"}], "txid": "bbc3dcaa51ff4da21ddca918aa5093c71877f41365da1cfc86e722f1b5fc524c", "blocktime": 1537869901, "version": 1, "confirmations": 11523, "time": 1537869901, "locktime": 0, "vsize": 142, "size": 224}