{"hash": "bbc300b8862c2d03c476586464c8a663f83de007d67dc7e7602cbb609bb7d6b9", "blockhash": "0000000000000000000e13cef7c366c0283d82e591d1acd082e914b08063cdf1", "vout": [{"scriptPubKey": {"reqSigs": 1, "hex": "76a9149cf617c9d28cf6210d84d59de8b122f15ec10cab88ac", "addresses": ["1FJwDmB6FARHgLbrdTXjaUCchVmrHowRN5"], "asm": "OP_DUP OP_HASH160 9cf617c9d28cf6210d84d59de8b122f15ec10cab OP_EQUALVERIFY OP_CHECKSIG", "type": "pubkeyhash"}, "value": 0.03826201, "n": 0}], "hex": "01000000022e465064b4f04ac47a01dd7d794a51db6c584d0882cc8baaa2dfe49ad0c1b940030000006a473044022011bf2b7c3225f55be421dacf9d629e91c49a2de3979e7b19391b277c8e044d7102206d32c558615e64341875c97a6f54de2ff92f86ddefc83716c83dc73da0e53d110121026d18af7275c426e7fffd36a72fe328a7dd2407de95c7c1a1c11ea5db69e72297ffffffffaee4c78e7456dbe1c7eb9c087ad0d26ef78a92d2782bb612bf8a66e6c011b4d2000000006b483045022100ef8dc2138dfe18bd47f28dc0f14d7017d6de4368f5be50637889330b0a197c5b0220303f61829b7b5db5511f0821e539e3cb75940e5851ba548400f6ce8f1b868a2b012102156184745a5a3bdb78ea8ead702588eabcefcbad14e3c0c36eb19ad1aa86658affffffff0119623a00000000001976a9149cf617c9d28cf6210d84d59de8b122f15ec10cab88ac00000000", "vin": [{"sequence": 4294967295, "scriptSig": {"hex": "473044022011bf2b7c3225f55be421dacf9d629e91c49a2de3979e7b19391b277c8e044d7102206d32c558615e64341875c97a6f54de2ff92f86ddefc83716c83dc73da0e53d110121026d18af7275c426e7fffd36a72fe328a7dd2407de95c7c1a1c11ea5db69e72297", "asm": "3044022011bf2b7c3225f55be421dacf9d629e91c49a2de3979e7b19391b277c8e044d7102206d32c558615e64341875c97a6f54de2ff92f86ddefc83716c83dc73da0e53d11[ALL] 026d18af7275c426e7fffd36a72fe328a7dd2407de95c7c1a1c11ea5db69e72297"}, "vout": 3, "txid": "40b9c1d09ae4dfa2aa8bcc82084d586cdb514a797ddd017ac44af0b46450462e"}, {"sequence": 4294967295, "scriptSig": {"hex": "483045022100ef8dc2138dfe18bd47f28dc0f14d7017d6de4368f5be50637889330b0a197c5b0220303f61829b7b5db5511f0821e539e3cb75940e5851ba548400f6ce8f1b868a2b012102156184745a5a3bdb78ea8ead702588eabcefcbad14e3c0c36eb19ad1aa86658a", "asm": "3045022100ef8dc2138dfe18bd47f28dc0f14d7017d6de4368f5be50637889330b0a197c5b0220303f61829b7b5db5511f0821e539e3cb75940e5851ba548400f6ce8f1b868a2b[ALL] 02156184745a5a3bdb78ea8ead702588eabcefcbad14e3c0c36eb19ad1aa86658a"}, "vout": 0, "txid": "d2b411c0e6668abf12b62b78d2928af76ed2d07a089cebc7e1db56748ec7e4ae"}], "txid": "bbc300b8862c2d03c476586464c8a663f83de007d67dc7e7602cbb609bb7d6b9", "blocktime": 1537871767, "version": 1, "confirmations": 11491, "time": 1537871767, "locktime": 0, "vsize": 339, "size": 339}