{"hash": "bbcc1d52adc74d840fcd39493c7e21b9d8093b71438df93187cb8281e501aacb", "blockhash": "00000000000000000017f5eb5941039fbcee6240d03bc1f2f8e35350df66a1d8", "vout": [{"scriptPubKey": {"reqSigs": 1, "hex": "76a914a5ac7c44bddecdffe28b1c4e7cc9f37f02c3f0ea88ac", "addresses": ["1G7189fVtmqqdmHrYhdcarEoWuipAgoqdR"], "asm": "OP_DUP OP_HASH160 a5ac7c44bddecdffe28b1c4e7cc9f37f02c3f0ea OP_EQUALVERIFY OP_CHECKSIG", "type": "pubkeyhash"}, "value": 0.01440136, "n": 0}, {"scriptPubKey": {"reqSigs": 1, "hex": "76a914a67381aacf5c5f0e1978d50df72f7b80c19a72c788ac", "addresses": ["1GB7YNsNW3KvEqqe6eo8ez3QVKkkrPdEr8"], "asm": "OP_DUP OP_HASH160 a67381aacf5c5f0e1978d50df72f7b80c19a72c7 OP_EQUALVERIFY OP_CHECKSIG", "type": "pubkeyhash"}, "value": 0.001393, "n": 1}], "hex": "020000000101d8d9c1660754ae739538ca1109c61ae0a0f15579c1dc1b7ec7f547c2060bfc010000006b483045022100ae000c9c5e98b0fb1378c06f17a0c637c7fbbb7de1da1a7f26454ecff63043f3022001755532e19ad9fe9b2c80eb76e169d764a08550616061993938b461ef8e09bb012102ae795bf12fc6360483bd4d5106a678dbdb983b3854cd64f3681066303f68b408feffffff0288f91500000000001976a914a5ac7c44bddecdffe28b1c4e7cc9f37f02c3f0ea88ac24200200000000001976a914a67381aacf5c5f0e1978d50df72f7b80c19a72c788ac15490800", "vin": [{"sequence": 4294967294, "scriptSig": {"hex": "483045022100ae000c9c5e98b0fb1378c06f17a0c637c7fbbb7de1da1a7f26454ecff63043f3022001755532e19ad9fe9b2c80eb76e169d764a08550616061993938b461ef8e09bb012102ae795bf12fc6360483bd4d5106a678dbdb983b3854cd64f3681066303f68b408", "asm": "3045022100ae000c9c5e98b0fb1378c06f17a0c637c7fbbb7de1da1a7f26454ecff63043f3022001755532e19ad9fe9b2c80eb76e169d764a08550616061993938b461ef8e09bb[ALL] 02ae795bf12fc6360483bd4d5106a678dbdb983b3854cd64f3681066303f68b408"}, "vout": 1, "txid": "fc0b06c247f5c77e1bdcc17955f1a0e01ac60911ca389573ae540766c1d9d801"}], "txid": "bbcc1d52adc74d840fcd39493c7e21b9d8093b71438df93187cb8281e501aacb", "blocktime": 1537874412, "version": 2, "confirmations": 11468, "time": 1537874412, "locktime": 542997, "vsize": 226, "size": 226}