{"hash": "bbd340fddee62f098467016a5487ebb339926564bf28787c48b762e288ee769d", "blockhash": "0000000000000000001cda96e906b7601b7a6fb1a3b62bca570a9e5d8f4b3de1", "vout": [{"scriptPubKey": {"reqSigs": 1, "hex": "76a914cb7cfde27473e9b92ca964eb334e6ccb8809756688ac", "addresses": ["1KYwuX9EqXdqdTaBnEFHxvZor29gbot7bY"], "asm": "OP_DUP OP_HASH160 cb7cfde27473e9b92ca964eb334e6ccb88097566 OP_EQUALVERIFY OP_CHECKSIG", "type": "pubkeyhash"}, "value": 0.01345399, "n": 0}, {"scriptPubKey": {"reqSigs": 1, "hex": "76a914e62e7d3eaea9934962d88fc0f4ae7167dcc31f8988ac", "addresses": ["1Mz67FVXjh2iXMgFcheQoWHDtJ1kGUtgpa"], "asm": "OP_DUP OP_HASH160 e62e7d3eaea9934962d88fc0f4ae7167dcc31f89 OP_EQUALVERIFY OP_CHECKSIG", "type": "pubkeyhash"}, "value": 0.00598791, "n": 1}], "hex": "0200000002c01883581d9a5b853d5c8e9f96a177b57bb6c98af4dd6ffb6356bb2beebd58f3000000006a47304402204eee5c1f48e3574cfcb57b4aa5233d9105e0e2e00ea531f25829ceca604aa7bd02201ccdc6c116b55b7fef0c7e39b7ff792d048a7c194590f3a6ff8700593f42da71012103bb447ba04d631713264fb825a9b21c8de6671aedede8b1672b93442bbdf53cdefeffffff1f655737d763c0f5a1c78093ab2945a370cef39c0fd97bf1be477b5b993bc763010000006b48304502210095a9271b3af15700e7a5b8fc3d305f98e7e98ba51d71a79d45fb11e9411f99c0022077395ac6e1117ff97921f0eec1ac335b47788c6199d7e8cb858db1b6d1d6689e012103946df619f9c51095a3618377f0f8c3c2605e65ede5bd6c28aa639e91d482234cfeffffff0277871400000000001976a914cb7cfde27473e9b92ca964eb334e6ccb8809756688ac07230900000000001976a914e62e7d3eaea9934962d88fc0f4ae7167dcc31f8988ac13490800", "vin": [{"sequence": 4294967294, "scriptSig": {"hex": "47304402204eee5c1f48e3574cfcb57b4aa5233d9105e0e2e00ea531f25829ceca604aa7bd02201ccdc6c116b55b7fef0c7e39b7ff792d048a7c194590f3a6ff8700593f42da71012103bb447ba04d631713264fb825a9b21c8de6671aedede8b1672b93442bbdf53cde", "asm": "304402204eee5c1f48e3574cfcb57b4aa5233d9105e0e2e00ea531f25829ceca604aa7bd02201ccdc6c116b55b7fef0c7e39b7ff792d048a7c194590f3a6ff8700593f42da71[ALL] 03bb447ba04d631713264fb825a9b21c8de6671aedede8b1672b93442bbdf53cde"}, "vout": 0, "txid": "f358bdee2bbb5663fb6fddf48ac9b67bb577a1969f8e5c3d855b9a1d588318c0"}, {"sequence": 4294967294, "scriptSig": {"hex": "48304502210095a9271b3af15700e7a5b8fc3d305f98e7e98ba51d71a79d45fb11e9411f99c0022077395ac6e1117ff97921f0eec1ac335b47788c6199d7e8cb858db1b6d1d6689e012103946df619f9c51095a3618377f0f8c3c2605e65ede5bd6c28aa639e91d482234c", "asm": "304502210095a9271b3af15700e7a5b8fc3d305f98e7e98ba51d71a79d45fb11e9411f99c0022077395ac6e1117ff97921f0eec1ac335b47788c6199d7e8cb858db1b6d1d6689e[ALL] 03946df619f9c51095a3618377f0f8c3c2605e65ede5bd6c28aa639e91d482234c"}, "vout": 1, "txid": "63c73b995b7b47bef17bd90f9cf3ce70a34529ab9380c7a1f5c063d73757651f"}], "txid": "bbd340fddee62f098467016a5487ebb339926564bf28787c48b762e288ee769d", "blocktime": 1537873282, "version": 2, "confirmations": 11480, "time": 1537873282, "locktime": 542995, "vsize": 373, "size": 373}