{"hash": "5eb73b27e190a72f3a9dd58d14e51065538ef15ac7b20f37151d7504e33f2e64", "blockhash": "00000000000000000018f53835495a110e01622372bf6ae95dc86f2b0ab887b0", "vout": [{"scriptPubKey": {"reqSigs": 1, "hex": "76a914b0752694b9acaf87083fcac4e178c618dbf653df88ac", "addresses": ["1H62GY5zZmQ9VoenxcaFUdxdfAE4BZ7dSf"], "asm": "OP_DUP OP_HASH160 b0752694b9acaf87083fcac4e178c618dbf653df OP_EQUALVERIFY OP_CHECKSIG", "type": "pubkeyhash"}, "value": 0.00719098, "n": 0}, {"scriptPubKey": {"reqSigs": 1, "hex": "a9149649ad6d2730bb28020a268d9d80df10a9f74ad487", "addresses": ["3FPfYWwfMfKMGY7fuPHvz2b73RhTNGzsm3"], "asm": "OP_HASH160 9649ad6d2730bb28020a268d9d80df10a9f74ad4 OP_EQUAL", "type": "scripthash"}, "value": 13.92993507, "n": 1}], "hex": "010000000001011f47822434f2c31ce4bd02c5e5f376602a390e1b9f0ec84bec5bbb4f99f61d0e01000000232200207768efcc1e5eb3d28410fac3f45831004c860cc24cddd940a616b34324823fceffffffff02faf80a00000000001976a914b0752694b9acaf87083fcac4e178c618dbf653df88ace36407530000000017a9149649ad6d2730bb28020a268d9d80df10a9f74ad4870400473044022079f3c6b92c70600e17bf0ce3d6d4e6643b31ad8b413f66b53ba8fca90674c3ef02204b2ad8fe12f21e5af81e29ba8ed31a14ae4ba4999d16baa5fe5880d3825c1b7501483045022100dd08d2f494cfb51eff0f4c899b659891ead747e993ef2ca9196fd72e521ba74f02206b01150da618d2bd1049fc5d064166800d676c12d5d3bc8bb5adde19a2b1709f0147522102529d5d1f6733ab45d9d50e07db42c7f6b967ae321c38b726c2247f149959b8262103d0c936a5988dd8421c63240496b723b0ec42400c38b9350e32c2eb4f47d8796952ae00000000", "vin": [{"txinwitness": ["", "3044022079f3c6b92c70600e17bf0ce3d6d4e6643b31ad8b413f66b53ba8fca90674c3ef02204b2ad8fe12f21e5af81e29ba8ed31a14ae4ba4999d16baa5fe5880d3825c1b7501", "3045022100dd08d2f494cfb51eff0f4c899b659891ead747e993ef2ca9196fd72e521ba74f02206b01150da618d2bd1049fc5d064166800d676c12d5d3bc8bb5adde19a2b1709f01", "522102529d5d1f6733ab45d9d50e07db42c7f6b967ae321c38b726c2247f149959b8262103d0c936a5988dd8421c63240496b723b0ec42400c38b9350e32c2eb4f47d8796952ae"], "sequence": 4294967295, "scriptSig": {"hex": "2200207768efcc1e5eb3d28410fac3f45831004c860cc24cddd940a616b34324823fce", "asm": "00207768efcc1e5eb3d28410fac3f45831004c860cc24cddd940a616b34324823fce"}, "vout": 1, "txid": "0e1df6994fbb5bec4bc80e9f1b0e392a6076f3e5c502bde41cc3f2342482471f"}], "txid": "bbd9f3b2e91955128adc54998b22f389921958360755ef0e5b089521e63a7d8d", "blocktime": 1537870928, "version": 1, "confirmations": 11514, "time": 1537870928, "locktime": 0, "vsize": 208, "size": 373}