{"hash": "bbdef8b42f920790e91a39a4483f25b575a4da38340d9b78aac2327d11ebe3d2", "blockhash": "0000000000000000001cda96e906b7601b7a6fb1a3b62bca570a9e5d8f4b3de1", "vout": [{"scriptPubKey": {"reqSigs": 1, "hex": "76a914a0acd92aa6c7b548eff05f6285289d853924da8788ac", "addresses": ["1FeaBQRLWBZhpE3khViA5Ez1SzVbgH84Uy"], "asm": "OP_DUP OP_HASH160 a0acd92aa6c7b548eff05f6285289d853924da87 OP_EQUALVERIFY OP_CHECKSIG", "type": "pubkeyhash"}, "value": 9.433e-05, "n": 0}, {"scriptPubKey": {"reqSigs": 1, "hex": "a9144c2232bfd2a78e3fa665f8d5e1d4ea940d89767a87", "addresses": ["38daFFvqstjU2bdWt9xSRgsiYpPctgY1B5"], "asm": "OP_HASH160 4c2232bfd2a78e3fa665f8d5e1d4ea940d89767a OP_EQUAL", "type": "scripthash"}, "value": 0.0194, "n": 1}], "hex": "0100000001facbbf5bd2061c78bcfa70ed20f660a656990c47652b402f94c8bb0600a486904b0000006b483045022100986ba3ca85a1e51cabdf004e2830c108780e7c83401b3bc2b5b8a1edf650fe6d0220218330c1c2331c5057a2d0fa58e1650705cb28409dbfa9d4e9e0025cd47369ea0121033302f3e12e5523cda01ad09d47dcc5a8f4a4ad480b8f4996ff074e6c7816146fffffffff02d9240000000000001976a914a0acd92aa6c7b548eff05f6285289d853924da8788ac209a1d000000000017a9144c2232bfd2a78e3fa665f8d5e1d4ea940d89767a8700000000", "vin": [{"sequence": 4294967295, "scriptSig": {"hex": "483045022100986ba3ca85a1e51cabdf004e2830c108780e7c83401b3bc2b5b8a1edf650fe6d0220218330c1c2331c5057a2d0fa58e1650705cb28409dbfa9d4e9e0025cd47369ea0121033302f3e12e5523cda01ad09d47dcc5a8f4a4ad480b8f4996ff074e6c7816146f", "asm": "3045022100986ba3ca85a1e51cabdf004e2830c108780e7c83401b3bc2b5b8a1edf650fe6d0220218330c1c2331c5057a2d0fa58e1650705cb28409dbfa9d4e9e0025cd47369ea[ALL] 033302f3e12e5523cda01ad09d47dcc5a8f4a4ad480b8f4996ff074e6c7816146f"}, "vout": 75, "txid": "9086a40006bbc8942f402b65470c9956a660f620ed70fabc781c06d25bbfcbfa"}], "txid": "bbdef8b42f920790e91a39a4483f25b575a4da38340d9b78aac2327d11ebe3d2", "blocktime": 1537873282, "version": 1, "confirmations": 11485, "time": 1537873282, "locktime": 0, "vsize": 224, "size": 224}