{"hash": "bbe1650b50bd7b8a0ba93d95d2c5f5d153e13f60cef76d27ab245c68cd458426", "blockhash": "0000000000000000001f76057863aec43deb6fa401d9628bb513d65a8098bfab", "vout": [{"scriptPubKey": {"reqSigs": 1, "hex": "76a9142689e657b8f353bbf7bb90fc575c41f7de7726f388ac", "addresses": ["14Wmsja5BVH6srbW7YtQRLni8xH97b7iwx"], "asm": "OP_DUP OP_HASH160 2689e657b8f353bbf7bb90fc575c41f7de7726f3 OP_EQUALVERIFY OP_CHECKSIG", "type": "pubkeyhash"}, "value": 0.00031224, "n": 0}, {"scriptPubKey": {"reqSigs": 1, "hex": "76a91457e0c4e74f3ea1504df304b03e130d6b29d1f9d988ac", "addresses": ["191f3vay1kYoU9iUS6HbmKp4ywMsVVuXsh"], "asm": "OP_DUP OP_HASH160 57e0c4e74f3ea1504df304b03e130d6b29d1f9d9 OP_EQUALVERIFY OP_CHECKSIG", "type": "pubkeyhash"}, "value": 0.0004403, "n": 1}], "hex": "0100000001357c60ec7c727db75a070d465d7b4fef290fa7d979b9fa8e52341de6fdc5fc4c000000006a473044022005bf4b14efaaac5c7af2ec6a0a903071276166d7179df5da273d2890b37555800220021ccab492fd531db347f3c9b437abfe419710063eb024d75b5873e934791802012102d2a60963c4f31219103f99c2297d1f63b1545b1ee95ca70f9bddcec01d165235ffffffff02f8790000000000001976a9142689e657b8f353bbf7bb90fc575c41f7de7726f388acfeab0000000000001976a91457e0c4e74f3ea1504df304b03e130d6b29d1f9d988ac00000000", "vin": [{"sequence": 4294967295, "scriptSig": {"hex": "473044022005bf4b14efaaac5c7af2ec6a0a903071276166d7179df5da273d2890b37555800220021ccab492fd531db347f3c9b437abfe419710063eb024d75b5873e934791802012102d2a60963c4f31219103f99c2297d1f63b1545b1ee95ca70f9bddcec01d165235", "asm": "3044022005bf4b14efaaac5c7af2ec6a0a903071276166d7179df5da273d2890b37555800220021ccab492fd531db347f3c9b437abfe419710063eb024d75b5873e934791802[ALL] 02d2a60963c4f31219103f99c2297d1f63b1545b1ee95ca70f9bddcec01d165235"}, "vout": 0, "txid": "4cfcc5fde61d34528efab979d9a70f29ef4f7b5d460d075ab77d727cec607c35"}], "txid": "bbe1650b50bd7b8a0ba93d95d2c5f5d153e13f60cef76d27ab245c68cd458426", "blocktime": 1537873891, "version": 1, "confirmations": 11477, "time": 1537873891, "locktime": 0, "vsize": 225, "size": 225}