{"hash": "eeed3906b7725a147d83c286d2023f646795c2f24310043ff6b17ff96e4f30bd", "blockhash": "0000000000000000001cda96e906b7601b7a6fb1a3b62bca570a9e5d8f4b3de1", "vout": [{"scriptPubKey": {"reqSigs": 1, "hex": "0014ca0aca919962923887b33aa212b6f270bfb645bc", "addresses": ["bc1qeg9v4yvev2fr3pan823p9dhjwzlmv3dupnjw43"], "asm": "0 ca0aca919962923887b33aa212b6f270bfb645bc", "type": "witness_v0_keyhash"}, "value": 1.326e-05, "n": 0}, {"scriptPubKey": {"reqSigs": 1, "hex": "76a9148bad90c130d61c8a79b283f77e7f4313d91f1e0488ac", "addresses": ["1DjYrCnScMvZdLzVM4aGDycgiMc8KeEEZk"], "asm": "OP_DUP OP_HASH160 8bad90c130d61c8a79b283f77e7f4313d91f1e04 OP_EQUALVERIFY OP_CHECKSIG", "type": "pubkeyhash"}, "value": 0.00112, "n": 1}], "hex": "01000000000101a1efae83666c09cb8329f46add45e9c7ebcd08417404401d57d8886679084bae0100000000ffffffff022e05000000000000160014ca0aca919962923887b33aa212b6f270bfb645bc80b50100000000001976a9148bad90c130d61c8a79b283f77e7f4313d91f1e0488ac0248304502210097270ea470828c0cf013d91c95ff693c76bf5c2c51d2a6acd5b902095f51d5aa02200e172554f14df5d022dcea81001fe67c9d42941e8cda39853b0889abea22697d01210237b5c9199fb2839390907eda6e414aa32281f2208f7cb6ef3ce3cc62abfc7ee700000000", "vin": [{"txinwitness": ["304502210097270ea470828c0cf013d91c95ff693c76bf5c2c51d2a6acd5b902095f51d5aa02200e172554f14df5d022dcea81001fe67c9d42941e8cda39853b0889abea22697d01", "0237b5c9199fb2839390907eda6e414aa32281f2208f7cb6ef3ce3cc62abfc7ee7"], "sequence": 4294967295, "scriptSig": {"hex": "", "asm": ""}, "vout": 1, "txid": "ae4b08796688d8571d4004744108cdebc7e945dd6af42983cb096c6683aeefa1"}], "txid": "bbe7fd472895de38327925bc9ef2ec08d71511313727fb841d2e14abbb2add2c", "blocktime": 1537873282, "version": 1, "confirmations": 11484, "time": 1537873282, "locktime": 0, "vsize": 144, "size": 226}