{"hash": "bbee371d578066d7efa4539b68130dd662f8c8a6eb55fd0f4a180be84098c04b", "blockhash": "0000000000000000001f0ddff1eddb255c1121bcd4da4f1bc9a0da00cae72433", "vout": [{"scriptPubKey": {"reqSigs": 1, "hex": "76a9146f954720b7474c0d2967b8e342bc6be4e797f34488ac", "addresses": ["1BAzqJNeaXNq9kDKZeYRVywwpFgfQ9tD2q"], "asm": "OP_DUP OP_HASH160 6f954720b7474c0d2967b8e342bc6be4e797f344 OP_EQUALVERIFY OP_CHECKSIG", "type": "pubkeyhash"}, "value": 0.00249121, "n": 0}, {"scriptPubKey": {"reqSigs": 1, "hex": "a9141a07f7ec050c2035b8b0965b40d1d2361dd0639587", "addresses": ["344f3BtmM2kkz6ndYPiuA3SHvn6p73Gfda"], "asm": "OP_HASH160 1a07f7ec050c2035b8b0965b40d1d2361dd06395 OP_EQUAL", "type": "scripthash"}, "value": 0.12065579, "n": 1}], "hex": "010000002f7013668c04fef24c40996a50507533cb281c125540aedcd8cf8c2f42c7d0bf04010000006b4830450221008ce53ba83ce0590137b8f6a3ac146b53feb2dfb8d6c13ffd1c89abff7b8f531b0220358ee24af6d5fbee58b14db16a87506f5bb9e4f911db63f0d416e0d172b7ab1f01210309c3ca1d982f1c8a66ce183172e7fa7b630afd22a208d640bb8e287a99f13078ffffffff0585d3a14e637b16013cf6f51b1fe8caabe5e4525ffa092078644748f5610814000000006b483045022100ac1bf2941e4df0498d3b1d4497ccbf0de0238020e0c2b3e9793a89de1ffcb22b022029a3da2acad8b7cb465849c8cddaa7053e3440ae9b8605ac44b9b7af42d037a601210309c3ca1d982f1c8a66ce183172e7fa7b630afd22a208d640bb8e287a99f13078ffffffff5d1d500b91c8f233ed323e42b18466cb2fd3885a90a75ccb7ad5701147956b14000000006b483045022100dbf3248611f6763f6a209088d679c4bc75079168ea2885a258c708768970147102205eed757f9c61b6a170e2e226e1343fab05a8bf0cd893beb9e88ec2d5e2e73f5201210309c3ca1d982f1c8a66ce183172e7fa7b630afd22a208d640bb8e287a99f13078ffffffff413f2828d3b9cdd007916d6249b9bf98154f0ee843cabf485da48456fa19cc16010000006a47304402205152d83f1526ea2ee3a4b9c2d04c0f80c961a4bf545cddf736045fed33d2a68802201307fcb2c80a38474217800199b4c46d333927c9000aff324fd8f584ba62b25a01210309c3ca1d982f1c8a66ce183172e7fa7b630afd22a208d640bb8e287a99f13078ffffffffb2efc2fc319c7bfa531b5a1a621dd1f55f8867e7ec5c7b3532d80f1ca3ee1517010000006a47304402203ac10d539ece2ce897471623c2e2a1d9a43dac61137cb317157b1c1467af61b502200a1cedccae3f1e0a9238d43332deb639f75672a90b4ee3195968fcd6ecb3c7cd01210309c3ca1d982f1c8a66ce183172e7fa7b630afd22a208d640bb8e287a99f13078ffffffff0fa239ac759d5fb0cde15dc92c5354d7416545f6fcc0771a3a71e5e839608a1b000000006a47304402204ed3fef141e3b28d98f4d753a8d102299a0e803b56ca1d8d91c56421541e8aea022034aa2277214351e861aecc610e8b7e3556bb73de2b72980a18f0f117b3deb8be01210309c3ca1d982f1c8a66ce183172e7fa7b630afd22a208d640bb8e287a99f13078fffffffff72e87b142e9a481760af5f0e1de255af088eda7cb999561bfc27dff25a7331d010000006a47304402205cf8d1ee73b62fd1274965adace0fc4cd3c65a75c8a7581d2d750703e59a0c7e02204617c2fcaa8deb4c3b8ee2bfdea028ac4c915633bb6eddbd761c805040730b0b01210309c3ca1d982f1c8a66ce183172e7fa7b630afd22a208d640bb8e287a99f13078ffffffffddf6c190d363992cba4befccb0831cb3eca05a62e4513a0850f87acd9f73e81d000000006b483045022100e92cbfc27c3ed8d5eacefc49c78de79cfc80a358c49cb75579a9a67d02a677d602203006d834f197211cec53ca8ace9bb1b458f50ec97f1f3753f68f50d0e03d6ca801210309c3ca1d982f1c8a66ce183172e7fa7b630afd22a208d640bb8e287a99f13078fffffffff24e3a53fcf4ae247c58d932bf4795dacd4744737f4696bd8187e789eeb45821010000006a473044022041ca5df6eeef0d69ad7d2e61f374823a5353a692066578e106fe18d4b6eb127302205d26b8cf90289a5ded883be4ff67d469b1cfc1205b5113e8a2fe01e75036b42701210309c3ca1d982f1c8a66ce183172e7fa7b630afd22a208d640bb8e287a99f13078ffffffff50903c44fdb376b34d05fc1e1f4e9aa9057377ecda76635a7a3a22bea42fab27010000006b483045022100e635a0c0e020011930a541e23145c70049b43217cf5f8d4c50831317d344598102204f1612b9c55e1bf8593a05113694c7aa31282d237ed7a2c6fa0328a16df3c17201210309c3ca1d982f1c8a66ce183172e7fa7b630afd22a208d640bb8e287a99f13078ffffffff23fec328e1e69d8a28889c3ffd360e4072344351edbbde81d0b9d969f01c9c2a000000006b483045022100e98e0eaab3016b96bc5a86b404a87be88e60ed74fd2a856daa54665938f48a2a02202ea69f7e2dede0ed4381b0e80d7f6df264f8e7cf28042f0fa8d9a9a45c01131201210309c3ca1d982f1c8a66ce183172e7fa7b630afd22a208d640bb8e287a99f13078ffffffff13c9e1f2b02022096d51b36d62acb743f1abfa8eefa144ba602a84365de3ea2a000000006a47304402207d0cb2b893941eb65ec41807f20fd1ecd9180b21253e4e4bd2d340f8fb3772f70220121bd3259fed36c061b840aaf077eb21eabd4349cf4ed0b059d340ab0e8d911501210309c3ca1d982f1c8a66ce183172e7fa7b630afd22a208d640bb8e287a99f13078ffffffff9f149d269189c158b296076af003ee2eba328cb667462bec9f655787ced7cb2f010000006b483045022100debc0374688220306949c7e73ab42e9a75c5383b5e642003b4e680e7df5932d402203d37ded956311c7c50b73618ad0e8570ea983f59cb0f048be1947a315289196a01210309c3ca1d982f1c8a66ce183172e7fa7b630afd22a208d640bb8e287a99f13078ffffffffffbec89ce8d0091a34f43b472c361543b0678b4bc0434eae0cf837094afbec3b010000006b483045022100a667708f2ffcf4e67c903822e3a8c55db2791ac6391aa1469dfe8df94309b004022079ad6044e8f3accb011f322c90d6b52ae17712da10a1f0bf85ce06377498316b01210309c3ca1d982f1c8a66ce183172e7fa7b630afd22a208d640bb8e287a99f13078ffffffffabc895f1c28131cae1b6ab5f45000da0c16054c14a4e423880f838c64258fe40000000006a473044022050fe924b0e2ebad7e7092b8b524bb2bfb957acbcf52fd06a24f625f324770bb702206ae1de81c0c8ef19b3fa811427db768f17218a07e6e639b137246c4274fac52701210309c3ca1d982f1c8a66ce183172e7fa7b630afd22a208d640bb8e287a99f13078ffffffff6902a5c04897d57c313545fcff3cd097a110ed9279eb0b562d9b92e29e194544010000006a473044022043af592adf177bf7dcc42ab9ba506a4d5bd41aacf39fca9797b87ff5328deb1902204ccefc2648b42c4dae0cc5db8658f41b18616a890c8f43b114fabb4e2b2360be01210309c3ca1d982f1c8a66ce183172e7fa7b630afd22a208d640bb8e287a99f13078ffffffff7e6851ce1da1e2ebc1ef54ecf29db28bb71955ff683534ca28561e0c1556f24a010000006a473044022058d6a1fc5ea3c68b13bed8fb1eeb961f8ced07d44ee9c06036401d52072bd5e00220385af538a86f021aa8a44a40244d42c1b7c6e4370c391fcfa6b4563e7dbb5de401210309c3ca1d982f1c8a66ce183172e7fa7b630afd22a208d640bb8e287a99f13078ffffffff9bb403a9f1ed3e268750150a6d1e690af112e3e153d1dbb2fdc50afa4741a64b010000006b483045022100daa779399d813c16b2e742ef54e277991757b67cc29f3780b784d9dd5135289b022016c49975452992f29a72b1a3bf03a0765e5c7cef2cb8a13ece9e12cf8b3fad4101210309c3ca1d982f1c8a66ce183172e7fa7b630afd22a208d640bb8e287a99f13078ffffffff7ce4e3dc8f2757c80b7a19623217165740d00f4da89ea7cb1b13c9d1480cb34c010000006a473044022054ea0052b4e74e25a324f0e949f3258fc20089a593a06f93c78550501c12677f022012e42cf957ce6c655fc02c1ab187430f06aa770d161fb2e0c5aa4e5dcb13798101210309c3ca1d982f1c8a66ce183172e7fa7b630afd22a208d640bb8e287a99f13078ffffffff85538ededd17c453cfac4b02eeff3c2ced739d9dac2136c8b14bd909e1128a4d010000006b483045022100eb8cebc77f58b416a57addc18adf3b9992aafa6990063acde1cdb66e89f97e5402207b87dbd080271fe5b4f2571a3f41e3fd9b738087ca85627fcd979cf0696bb8ed01210309c3ca1d982f1c8a66ce183172e7fa7b630afd22a208d640bb8e287a99f13078ffffffff96d214238eec4f109d030c705b6a61605ec148c97adc6c9c58b28fe88a175456000000006a47304402206ba49bb2fd304aedeebdf58136d9cb07abf3b61506b31d4b3c6718ce5765792f02205007a4e3b854bb4b53861dd71b660df97383e2c6565960515ccde59ecbc1c71901210309c3ca1d982f1c8a66ce183172e7fa7b630afd22a208d640bb8e287a99f13078ffffffff82442a91dc1ed0d1fd1189178005fd855dd9e18cccfc05f71eb49073adacc55d010000006a47304402202597bd44298684245ae978682d7d7fedf2daf34ef4ce121e2f65d6212098e28e022049f35e44fa62f8d275ef0070898ae5fa49f57fd3705deca5f9684bbe75936a3f01210309c3ca1d982f1c8a66ce183172e7fa7b630afd22a208d640bb8e287a99f13078ffffffff22bd7bdf1da7dc228e8b20d8c4abcd19ffe66fb770e64aa69deb8fa0d98b575e010000006b483045022100c5230adc09ca93bedc4c5c87e397bf3b03a1468abc19a96fcb3fbb3fabf9167202200ef05c64a0e67c1f2d902ec2ea86c0e7c5db6030cf2ab62e94711f473e71746301210309c3ca1d982f1c8a66ce183172e7fa7b630afd22a208d640bb8e287a99f13078ffffffff2bd73c7dc97609677b0d9d08324ad43238c2395d6606bdc7b31d0dbe79398162000000006a47304402205fcfa117e6b9c0089e26a013e462453eb17cc498b410d272092dc24b1d34c15f02200d7badf422e76e09b66645a0a697b58539bdd502ec81a4a7ac0e0ddaf290f98001210309c3ca1d982f1c8a66ce183172e7fa7b630afd22a208d640bb8e287a99f13078ffffffffb0d7b31dc1984b36f917a138e1f82a7c639e66d3f003877c476759c049083167000000006b483045022100f50319af864f92d95157704610a629ed772bbf8327e9f5dca59372a684119d5002205161507c345e74ffd612c3ae007fc4a1c388fea5276224c08beb0cc8771cb8a101210309c3ca1d982f1c8a66ce183172e7fa7b630afd22a208d640bb8e287a99f13078ffffffff55061940790a2bbd304d9ca038ab148dd57975636a023f4b93e746337ec0ed81010000006a47304402205be5bf191d6d50e6ed25c57830f0818420cd08b632abd836b0d62b3090ffb00d0220099368bcce7a4a0ef6646f48d0d6d2ec09e1fe9d4919e2ece5e13d7425890af201210309c3ca1d982f1c8a66ce183172e7fa7b630afd22a208d640bb8e287a99f13078ffffffff18fb99742d0ef0e37d41dd3fd06953234631672e8a9efa61043fcf597b49ee93000000006a4730440220180b5abfaa9f80bdd38805d3c600472f86670e192917f67e5b12cf8a00b2008302206addef62f951baead7be8b4eccb29f06a2db1fbf45c6387bf837489070124d6901210309c3ca1d982f1c8a66ce183172e7fa7b630afd22a208d640bb8e287a99f13078ffffffff552129250eb074c8f0d29836e669b0cefb8bb620f3eeef984db7af8e9fe096a1010000006a4730440220477cd646ab4c508b2453b498be15caa728aff3c46f60ca0656d6e2e3d0403cd4022037f1f9a669ef4c7769a077c98ad6e9b2cc9fa356735f3f665f9c0401936b13bb01210309c3ca1d982f1c8a66ce183172e7fa7b630afd22a208d640bb8e287a99f13078ffffffff24995edd887df541489a26f6f8e9d768f0d24354b6e39125ff7aac215a6971a7010000006b483045022100eec9d5a05ada5cab876f7267cd65817afd95cd6d09bf85ef0b81425fdc091a2002207828d3e6b33809939f1c8796eaa41ba73d2d7ea5a6e576e341d6b75fceb5d0d701210309c3ca1d982f1c8a66ce183172e7fa7b630afd22a208d640bb8e287a99f13078fffffffff42830d5c92557716a3b6d0dcc31973eb300515312e24e5874d096dc1012ebb3010000006b483045022100a50c87e692d076b8534fbc6c0872913c67d0c404cc40076d5776b57cfce3267502204f0750cf3e9e9ec2cffc8a732c6514be592e65c774c3f7af27e83689dc51c58e01210309c3ca1d982f1c8a66ce183172e7fa7b630afd22a208d640bb8e287a99f13078ffffffff8cad9a8feeda3294060d0a87a96491f9928ba75bc7c8066dc298e83898217fb6010000006a4730440220246c84ced61b8d8f1554b309e63ec2c06bd7dbdf1753f748495e408c7913538302200f6aeeafd22bb5b65551877e753ce60801fe568951f261d86ade8cf979d69be701210309c3ca1d982f1c8a66ce183172e7fa7b630afd22a208d640bb8e287a99f13078ffffffff341b82c0748a2821003fecadf8895717d6ed08ebf0c2d3a7c4889b138cc05dbf010000006a47304402203f465af291ee8a2956d89d9ce44cfef0b0b537c31672a49b2e22172234e9cac00220397bc88b538c5c1d07ee85ebe1166a18bee0dc7c293a904ba25b3cf53c734a1001210309c3ca1d982f1c8a66ce183172e7fa7b630afd22a208d640bb8e287a99f13078ffffffff9563bbac22eec4f7e09fe3aa945ee6d0bc220b6fde3f32411e3b7fe28ea255c4010000006a47304402203b4bc90d4731ecb8f974d5caaba71985ae0acea66f51f4bdb372888614f2b1b2022002d973b73123bacbeba9ee0b0e02599269ee8ee3a955864ab3442b1f4cbde48601210309c3ca1d982f1c8a66ce183172e7fa7b630afd22a208d640bb8e287a99f13078ffffffff03cad2cf8f2d8bb144c4485bee617bdaeada1b881b1ad340f41d5d8deec4c2d1010000006a473044022046cf697e73ca144c1b77f6ffc4877ce2588f1651e6f9bce54aee1a85423570cc0220304de45ba19b07c684cf8f329856ca6d326cf0dde2ebf3d1cfd4201de43e0d2d01210309c3ca1d982f1c8a66ce183172e7fa7b630afd22a208d640bb8e287a99f13078ffffffffceac8ca634d8a74bab677b8d291e77f925d96262707f8cca8f8b197a57d4e3d4010000006a47304402202204d72b52560a1a9564c3e5de5043eac33c00fadd52ec4ca288a746aa961bb102203d69851f23fdc4bce46c5e3d7eb50f4075f6529407ed54708383858a0306164d01210309c3ca1d982f1c8a66ce183172e7fa7b630afd22a208d640bb8e287a99f13078ffffffffe240bf3a814f33865aba421f30364ce1c61ad91dad952a31be528a5e834aa7d5000000006b483045022100a2ce17b812a8fd53849dfb84575b39241ccd3ded61a393e5fddb7edf3803b75f02204a70fc0008265993e749febb885b6845a10f2c0106cb1d50cf6e6e789b242e9501210309c3ca1d982f1c8a66ce183172e7fa7b630afd22a208d640bb8e287a99f13078ffffffff1309bbf4d55fee5205cdcaf6b89ad8b7d4cce7fe581b902ce84b9573e028eedb010000006b483045022100a3c366f646fa66e4e17fbb00e60b200b21a7d289964ebb9757773b0b6d919e7e0220732989a6314a5f5df25dbb6a9d3fa2f97f12ffaf415ed8e808763d3d7ef8d77101210309c3ca1d982f1c8a66ce183172e7fa7b630afd22a208d640bb8e287a99f13078ffffffff973f7bfba5d599a1e60e3833992d8ae2384b18c981c8fe69839bb5c8c2ab19dc010000006a47304402201ce6d3019dd91d082ea7c73369a30662553556aeab9a1da84775a8118017f39702201765d6b9bc7850a1a041748ab343fa92377e4c3f3c19635deb0e056ba492196001210309c3ca1d982f1c8a66ce183172e7fa7b630afd22a208d640bb8e287a99f13078ffffffffea424f1006849db28dbe99d24b9972683628c9123320303e396d4b23b77dc1e0000000006a47304402205603aea08618d12238640674a01738b765e09a32adab6e330001bd11cac56fc002207c72a23e341594a7c9fc4e1b972c494cd3519413f2dc90a9a81c3de876f8965401210309c3ca1d982f1c8a66ce183172e7fa7b630afd22a208d640bb8e287a99f13078ffffffff520d875a094b120c7fb68111a4c88fce183448aaa0ffe24de1c765f28dfb42ea000000006a473044022069d52311bbf497e08529d8bf353d77bf41c6f9fa624fd24f8412dea46ada4d1402206e79783b77607b90a57d2c4fe9a168ecc534f3a751f83498571d1b641475cfce01210309c3ca1d982f1c8a66ce183172e7fa7b630afd22a208d640bb8e287a99f13078fffffffff851e774d4408e1b2922d508654766460658bb6915a5057e9366702fed4668ef010000006a4730440220618a7e0fd556268865bc221705d8ecf18d66a419bf5d0f8c77c634d6f2d8ddee02206d02baf9ce2556ba6b4da2c20f1a8c542310769fb2acb7c0467ef3ca2a408ed401210309c3ca1d982f1c8a66ce183172e7fa7b630afd22a208d640bb8e287a99f13078ffffffff392c2aaeb4646353c8e3cdc845fd78729c95bba49a081b93f6e5c7013c6434f0000000006b483045022100c219113fddaf8766c44b90d24276cbe129807071e795d6fadd88c604a6740c55022016c04564dba991d3bddfb9cd758a9a499f1a7578f8c344952180f0d7b1a90af601210309c3ca1d982f1c8a66ce183172e7fa7b630afd22a208d640bb8e287a99f13078ffffffff52de1b46c9e95b8f5c3f2b8b0caa2994723ba722d9a7627bb5f87ca3dfec09f2000000006a4730440220230ac8bd73afc5023bfc7129594e1a800b22cc8c5c9a0972bac44f2255123613022027013cb5a2d743c6dfbcef4d13428b6e8e6411a69a1d6fd42c197fa9783314fd01210309c3ca1d982f1c8a66ce183172e7fa7b630afd22a208d640bb8e287a99f13078ffffffff3ef9718b3b0f028d6fca8f01cfe9a340bed833716adfbe0ad07e06a049c1d7f5010000006a4730440220706fc97a235fd999beebf5e2f9a14235a7aaf8d49977fd90cc5df7a4308619ad0220282bcf2c23f742f9936914d50646cc45b0968a990f7a6fa48ecd9c940aecdb1d01210309c3ca1d982f1c8a66ce183172e7fa7b630afd22a208d640bb8e287a99f13078ffffffff03b342c8c40bf53fd055b434edc43a6d8ca4783caf825ae6e76ef739038bdef6010000006b483045022100fffcd04261014c84f7bf9fe0e319e796a4644951d25520b4ebd2e811d7ee81b802202c0b6594645ac32ffd12d61a583a0d72a361786aa7ce0b65418ced62eb81951201210309c3ca1d982f1c8a66ce183172e7fa7b630afd22a208d640bb8e287a99f13078ffffffffa752e8bec515278feb7a522d21443c1211be6ea8cd3209ce34d336a495969efa000000006b483045022100af45c226c1047fb09e08a9e1768aa71d4053abff053ba0f4738542c2a7192fd102201b6681b63dc1943b372bb02dc449dbc8c20ff9b429c6896befcb37d6688db3aa01210309c3ca1d982f1c8a66ce183172e7fa7b630afd22a208d640bb8e287a99f13078ffffffffa3ae96d5c9cddd5cda849574f407b7cb06c42cf34142c2ad4a4a55117c3182fe010000006a473044022052b8d4993d4800f17c423caeb285fa5bd66e5945597fcefdca338d686899d69702203bf6cad6f2240d58e0b09f48d2e49f87f4b0bfd90427fca9bbcec9a4325b3e9501210309c3ca1d982f1c8a66ce183172e7fa7b630afd22a208d640bb8e287a99f13078ffffffff0221cd0300000000001976a9146f954720b7474c0d2967b8e342bc6be4e797f34488ac2b1bb8000000000017a9141a07f7ec050c2035b8b0965b40d1d2361dd063958700000000", "vin": [{"sequence": 4294967295, "scriptSig": {"hex": "4830450221008ce53ba83ce0590137b8f6a3ac146b53feb2dfb8d6c13ffd1c89abff7b8f531b0220358ee24af6d5fbee58b14db16a87506f5bb9e4f911db63f0d416e0d172b7ab1f01210309c3ca1d982f1c8a66ce183172e7fa7b630afd22a208d640bb8e287a99f13078", "asm": "30450221008ce53ba83ce0590137b8f6a3ac146b53feb2dfb8d6c13ffd1c89abff7b8f531b0220358ee24af6d5fbee58b14db16a87506f5bb9e4f911db63f0d416e0d172b7ab1f[ALL] 0309c3ca1d982f1c8a66ce183172e7fa7b630afd22a208d640bb8e287a99f13078"}, "vout": 1, "txid": "04bfd0c7422f8ccfd8dcae4055121c28cb337550506a99404cf2fe048c661370"}, {"sequence": 4294967295, "scriptSig": {"hex": "483045022100ac1bf2941e4df0498d3b1d4497ccbf0de0238020e0c2b3e9793a89de1ffcb22b022029a3da2acad8b7cb465849c8cddaa7053e3440ae9b8605ac44b9b7af42d037a601210309c3ca1d982f1c8a66ce183172e7fa7b630afd22a208d640bb8e287a99f13078", "asm": "3045022100ac1bf2941e4df0498d3b1d4497ccbf0de0238020e0c2b3e9793a89de1ffcb22b022029a3da2acad8b7cb465849c8cddaa7053e3440ae9b8605ac44b9b7af42d037a6[ALL] 0309c3ca1d982f1c8a66ce183172e7fa7b630afd22a208d640bb8e287a99f13078"}, "vout": 0, "txid": "140861f5484764782009fa5f52e4e5abcae81f1bf5f63c01167b634ea1d38505"}, {"sequence": 4294967295, "scriptSig": {"hex": "483045022100dbf3248611f6763f6a209088d679c4bc75079168ea2885a258c708768970147102205eed757f9c61b6a170e2e226e1343fab05a8bf0cd893beb9e88ec2d5e2e73f5201210309c3ca1d982f1c8a66ce183172e7fa7b630afd22a208d640bb8e287a99f13078", "asm": "3045022100dbf3248611f6763f6a209088d679c4bc75079168ea2885a258c708768970147102205eed757f9c61b6a170e2e226e1343fab05a8bf0cd893beb9e88ec2d5e2e73f52[ALL] 0309c3ca1d982f1c8a66ce183172e7fa7b630afd22a208d640bb8e287a99f13078"}, "vout": 0, "txid": "146b95471170d57acb5ca7905a88d32fcb6684b1423e32ed33f2c8910b501d5d"}, {"sequence": 4294967295, "scriptSig": {"hex": "47304402205152d83f1526ea2ee3a4b9c2d04c0f80c961a4bf545cddf736045fed33d2a68802201307fcb2c80a38474217800199b4c46d333927c9000aff324fd8f584ba62b25a01210309c3ca1d982f1c8a66ce183172e7fa7b630afd22a208d640bb8e287a99f13078", "asm": "304402205152d83f1526ea2ee3a4b9c2d04c0f80c961a4bf545cddf736045fed33d2a68802201307fcb2c80a38474217800199b4c46d333927c9000aff324fd8f584ba62b25a[ALL] 0309c3ca1d982f1c8a66ce183172e7fa7b630afd22a208d640bb8e287a99f13078"}, "vout": 1, "txid": "16cc19fa5684a45d48bfca43e80e4f1598bfb949626d9107d0cdb9d328283f41"}, {"sequence": 4294967295, "scriptSig": {"hex": "47304402203ac10d539ece2ce897471623c2e2a1d9a43dac61137cb317157b1c1467af61b502200a1cedccae3f1e0a9238d43332deb639f75672a90b4ee3195968fcd6ecb3c7cd01210309c3ca1d982f1c8a66ce183172e7fa7b630afd22a208d640bb8e287a99f13078", "asm": "304402203ac10d539ece2ce897471623c2e2a1d9a43dac61137cb317157b1c1467af61b502200a1cedccae3f1e0a9238d43332deb639f75672a90b4ee3195968fcd6ecb3c7cd[ALL] 0309c3ca1d982f1c8a66ce183172e7fa7b630afd22a208d640bb8e287a99f13078"}, "vout": 1, "txid": "1715eea31c0fd832357b5cece767885ff5d11d621a5a1b53fa7b9c31fcc2efb2"}, {"sequence": 4294967295, "scriptSig": {"hex": "47304402204ed3fef141e3b28d98f4d753a8d102299a0e803b56ca1d8d91c56421541e8aea022034aa2277214351e861aecc610e8b7e3556bb73de2b72980a18f0f117b3deb8be01210309c3ca1d982f1c8a66ce183172e7fa7b630afd22a208d640bb8e287a99f13078", "asm": "304402204ed3fef141e3b28d98f4d753a8d102299a0e803b56ca1d8d91c56421541e8aea022034aa2277214351e861aecc610e8b7e3556bb73de2b72980a18f0f117b3deb8be[ALL] 0309c3ca1d982f1c8a66ce183172e7fa7b630afd22a208d640bb8e287a99f13078"}, "vout": 0, "txid": "1b8a6039e8e5713a1a77c0fcf6456541d754532cc95de1cdb05f9d75ac39a20f"}, {"sequence": 4294967295, "scriptSig": {"hex": "47304402205cf8d1ee73b62fd1274965adace0fc4cd3c65a75c8a7581d2d750703e59a0c7e02204617c2fcaa8deb4c3b8ee2bfdea028ac4c915633bb6eddbd761c805040730b0b01210309c3ca1d982f1c8a66ce183172e7fa7b630afd22a208d640bb8e287a99f13078", "asm": "304402205cf8d1ee73b62fd1274965adace0fc4cd3c65a75c8a7581d2d750703e59a0c7e02204617c2fcaa8deb4c3b8ee2bfdea028ac4c915633bb6eddbd761c805040730b0b[ALL] 0309c3ca1d982f1c8a66ce183172e7fa7b630afd22a208d640bb8e287a99f13078"}, "vout": 1, "txid": "1d33a725ff7dc2bf619599cba7ed88f05a25dee1f0f50a7681a4e942b1872ef7"}, {"sequence": 4294967295, "scriptSig": {"hex": "483045022100e92cbfc27c3ed8d5eacefc49c78de79cfc80a358c49cb75579a9a67d02a677d602203006d834f197211cec53ca8ace9bb1b458f50ec97f1f3753f68f50d0e03d6ca801210309c3ca1d982f1c8a66ce183172e7fa7b630afd22a208d640bb8e287a99f13078", "asm": "3045022100e92cbfc27c3ed8d5eacefc49c78de79cfc80a358c49cb75579a9a67d02a677d602203006d834f197211cec53ca8ace9bb1b458f50ec97f1f3753f68f50d0e03d6ca8[ALL] 0309c3ca1d982f1c8a66ce183172e7fa7b630afd22a208d640bb8e287a99f13078"}, "vout": 0, "txid": "1de8739fcd7af850083a51e4625aa0ecb31c83b0ccef4bba2c9963d390c1f6dd"}, {"sequence": 4294967295, "scriptSig": {"hex": "473044022041ca5df6eeef0d69ad7d2e61f374823a5353a692066578e106fe18d4b6eb127302205d26b8cf90289a5ded883be4ff67d469b1cfc1205b5113e8a2fe01e75036b42701210309c3ca1d982f1c8a66ce183172e7fa7b630afd22a208d640bb8e287a99f13078", "asm": "3044022041ca5df6eeef0d69ad7d2e61f374823a5353a692066578e106fe18d4b6eb127302205d26b8cf90289a5ded883be4ff67d469b1cfc1205b5113e8a2fe01e75036b427[ALL] 0309c3ca1d982f1c8a66ce183172e7fa7b630afd22a208d640bb8e287a99f13078"}, "vout": 1, "txid": "2158b4ee89e78781bd96467f734447cdda9547bf32d9587c24aef4fc533a4ef2"}, {"sequence": 4294967295, "scriptSig": {"hex": "483045022100e635a0c0e020011930a541e23145c70049b43217cf5f8d4c50831317d344598102204f1612b9c55e1bf8593a05113694c7aa31282d237ed7a2c6fa0328a16df3c17201210309c3ca1d982f1c8a66ce183172e7fa7b630afd22a208d640bb8e287a99f13078", "asm": "3045022100e635a0c0e020011930a541e23145c70049b43217cf5f8d4c50831317d344598102204f1612b9c55e1bf8593a05113694c7aa31282d237ed7a2c6fa0328a16df3c172[ALL] 0309c3ca1d982f1c8a66ce183172e7fa7b630afd22a208d640bb8e287a99f13078"}, "vout": 1, "txid": "27ab2fa4be223a7a5a6376daec777305a99a4e1f1efc054db376b3fd443c9050"}, {"sequence": 4294967295, "scriptSig": {"hex": "483045022100e98e0eaab3016b96bc5a86b404a87be88e60ed74fd2a856daa54665938f48a2a02202ea69f7e2dede0ed4381b0e80d7f6df264f8e7cf28042f0fa8d9a9a45c01131201210309c3ca1d982f1c8a66ce183172e7fa7b630afd22a208d640bb8e287a99f13078", "asm": "3045022100e98e0eaab3016b96bc5a86b404a87be88e60ed74fd2a856daa54665938f48a2a02202ea69f7e2dede0ed4381b0e80d7f6df264f8e7cf28042f0fa8d9a9a45c011312[ALL] 0309c3ca1d982f1c8a66ce183172e7fa7b630afd22a208d640bb8e287a99f13078"}, "vout": 0, "txid": "2a9c1cf069d9b9d081debbed51433472400e36fd3f9c88288a9de6e128c3fe23"}, {"sequence": 4294967295, "scriptSig": {"hex": "47304402207d0cb2b893941eb65ec41807f20fd1ecd9180b21253e4e4bd2d340f8fb3772f70220121bd3259fed36c061b840aaf077eb21eabd4349cf4ed0b059d340ab0e8d911501210309c3ca1d982f1c8a66ce183172e7fa7b630afd22a208d640bb8e287a99f13078", "asm": "304402207d0cb2b893941eb65ec41807f20fd1ecd9180b21253e4e4bd2d340f8fb3772f70220121bd3259fed36c061b840aaf077eb21eabd4349cf4ed0b059d340ab0e8d9115[ALL] 0309c3ca1d982f1c8a66ce183172e7fa7b630afd22a208d640bb8e287a99f13078"}, "vout": 0, "txid": "2aeae35d36842a60ba44a1ef8efaabf143b7ac626db3516d092220b0f2e1c913"}, {"sequence": 4294967295, "scriptSig": {"hex": "483045022100debc0374688220306949c7e73ab42e9a75c5383b5e642003b4e680e7df5932d402203d37ded956311c7c50b73618ad0e8570ea983f59cb0f048be1947a315289196a01210309c3ca1d982f1c8a66ce183172e7fa7b630afd22a208d640bb8e287a99f13078", "asm": "3045022100debc0374688220306949c7e73ab42e9a75c5383b5e642003b4e680e7df5932d402203d37ded956311c7c50b73618ad0e8570ea983f59cb0f048be1947a315289196a[ALL] 0309c3ca1d982f1c8a66ce183172e7fa7b630afd22a208d640bb8e287a99f13078"}, "vout": 1, "txid": "2fcbd7ce8757659fec2b4667b68c32ba2eee03f06a0796b258c18991269d149f"}, {"sequence": 4294967295, "scriptSig": {"hex": "483045022100a667708f2ffcf4e67c903822e3a8c55db2791ac6391aa1469dfe8df94309b004022079ad6044e8f3accb011f322c90d6b52ae17712da10a1f0bf85ce06377498316b01210309c3ca1d982f1c8a66ce183172e7fa7b630afd22a208d640bb8e287a99f13078", "asm": "3045022100a667708f2ffcf4e67c903822e3a8c55db2791ac6391aa1469dfe8df94309b004022079ad6044e8f3accb011f322c90d6b52ae17712da10a1f0bf85ce06377498316b[ALL] 0309c3ca1d982f1c8a66ce183172e7fa7b630afd22a208d640bb8e287a99f13078"}, "vout": 1, "txid": "3becfb4a0937f80cae4e43c04b8b67b04315362c473bf4341a09d0e89cc8beff"}, {"sequence": 4294967295, "scriptSig": {"hex": "473044022050fe924b0e2ebad7e7092b8b524bb2bfb957acbcf52fd06a24f625f324770bb702206ae1de81c0c8ef19b3fa811427db768f17218a07e6e639b137246c4274fac52701210309c3ca1d982f1c8a66ce183172e7fa7b630afd22a208d640bb8e287a99f13078", "asm": "3044022050fe924b0e2ebad7e7092b8b524bb2bfb957acbcf52fd06a24f625f324770bb702206ae1de81c0c8ef19b3fa811427db768f17218a07e6e639b137246c4274fac527[ALL] 0309c3ca1d982f1c8a66ce183172e7fa7b630afd22a208d640bb8e287a99f13078"}, "vout": 0, "txid": "40fe5842c638f88038424e4ac15460c1a00d00455fabb6e1ca3181c2f195c8ab"}, {"sequence": 4294967295, "scriptSig": {"hex": "473044022043af592adf177bf7dcc42ab9ba506a4d5bd41aacf39fca9797b87ff5328deb1902204ccefc2648b42c4dae0cc5db8658f41b18616a890c8f43b114fabb4e2b2360be01210309c3ca1d982f1c8a66ce183172e7fa7b630afd22a208d640bb8e287a99f13078", "asm": "3044022043af592adf177bf7dcc42ab9ba506a4d5bd41aacf39fca9797b87ff5328deb1902204ccefc2648b42c4dae0cc5db8658f41b18616a890c8f43b114fabb4e2b2360be[ALL] 0309c3ca1d982f1c8a66ce183172e7fa7b630afd22a208d640bb8e287a99f13078"}, "vout": 1, "txid": "4445199ee2929b2d560beb7992ed10a197d03cfffc4535317cd59748c0a50269"}, {"sequence": 4294967295, "scriptSig": {"hex": "473044022058d6a1fc5ea3c68b13bed8fb1eeb961f8ced07d44ee9c06036401d52072bd5e00220385af538a86f021aa8a44a40244d42c1b7c6e4370c391fcfa6b4563e7dbb5de401210309c3ca1d982f1c8a66ce183172e7fa7b630afd22a208d640bb8e287a99f13078", "asm": "3044022058d6a1fc5ea3c68b13bed8fb1eeb961f8ced07d44ee9c06036401d52072bd5e00220385af538a86f021aa8a44a40244d42c1b7c6e4370c391fcfa6b4563e7dbb5de4[ALL] 0309c3ca1d982f1c8a66ce183172e7fa7b630afd22a208d640bb8e287a99f13078"}, "vout": 1, "txid": "4af256150c1e5628ca343568ff5519b78bb29df2ec54efc1ebe2a11dce51687e"}, {"sequence": 4294967295, "scriptSig": {"hex": "483045022100daa779399d813c16b2e742ef54e277991757b67cc29f3780b784d9dd5135289b022016c49975452992f29a72b1a3bf03a0765e5c7cef2cb8a13ece9e12cf8b3fad4101210309c3ca1d982f1c8a66ce183172e7fa7b630afd22a208d640bb8e287a99f13078", "asm": "3045022100daa779399d813c16b2e742ef54e277991757b67cc29f3780b784d9dd5135289b022016c49975452992f29a72b1a3bf03a0765e5c7cef2cb8a13ece9e12cf8b3fad41[ALL] 0309c3ca1d982f1c8a66ce183172e7fa7b630afd22a208d640bb8e287a99f13078"}, "vout": 1, "txid": "4ba64147fa0ac5fdb2dbd153e1e312f10a691e6d0a155087263eedf1a903b49b"}, {"sequence": 4294967295, "scriptSig": {"hex": "473044022054ea0052b4e74e25a324f0e949f3258fc20089a593a06f93c78550501c12677f022012e42cf957ce6c655fc02c1ab187430f06aa770d161fb2e0c5aa4e5dcb13798101210309c3ca1d982f1c8a66ce183172e7fa7b630afd22a208d640bb8e287a99f13078", "asm": "3044022054ea0052b4e74e25a324f0e949f3258fc20089a593a06f93c78550501c12677f022012e42cf957ce6c655fc02c1ab187430f06aa770d161fb2e0c5aa4e5dcb137981[ALL] 0309c3ca1d982f1c8a66ce183172e7fa7b630afd22a208d640bb8e287a99f13078"}, "vout": 1, "txid": "4cb30c48d1c9131bcba79ea84d0fd0405716173262197a0bc857278fdce3e47c"}, {"sequence": 4294967295, "scriptSig": {"hex": "483045022100eb8cebc77f58b416a57addc18adf3b9992aafa6990063acde1cdb66e89f97e5402207b87dbd080271fe5b4f2571a3f41e3fd9b738087ca85627fcd979cf0696bb8ed01210309c3ca1d982f1c8a66ce183172e7fa7b630afd22a208d640bb8e287a99f13078", "asm": "3045022100eb8cebc77f58b416a57addc18adf3b9992aafa6990063acde1cdb66e89f97e5402207b87dbd080271fe5b4f2571a3f41e3fd9b738087ca85627fcd979cf0696bb8ed[ALL] 0309c3ca1d982f1c8a66ce183172e7fa7b630afd22a208d640bb8e287a99f13078"}, "vout": 1, "txid": "4d8a12e109d94bb1c83621ac9d9d73ed2c3cffee024baccf53c417ddde8e5385"}, {"sequence": 4294967295, "scriptSig": {"hex": "47304402206ba49bb2fd304aedeebdf58136d9cb07abf3b61506b31d4b3c6718ce5765792f02205007a4e3b854bb4b53861dd71b660df97383e2c6565960515ccde59ecbc1c71901210309c3ca1d982f1c8a66ce183172e7fa7b630afd22a208d640bb8e287a99f13078", "asm": "304402206ba49bb2fd304aedeebdf58136d9cb07abf3b61506b31d4b3c6718ce5765792f02205007a4e3b854bb4b53861dd71b660df97383e2c6565960515ccde59ecbc1c719[ALL] 0309c3ca1d982f1c8a66ce183172e7fa7b630afd22a208d640bb8e287a99f13078"}, "vout": 0, "txid": "5654178ae88fb2589c6cdc7ac948c15e60616a5b700c039d104fec8e2314d296"}, {"sequence": 4294967295, "scriptSig": {"hex": "47304402202597bd44298684245ae978682d7d7fedf2daf34ef4ce121e2f65d6212098e28e022049f35e44fa62f8d275ef0070898ae5fa49f57fd3705deca5f9684bbe75936a3f01210309c3ca1d982f1c8a66ce183172e7fa7b630afd22a208d640bb8e287a99f13078", "asm": "304402202597bd44298684245ae978682d7d7fedf2daf34ef4ce121e2f65d6212098e28e022049f35e44fa62f8d275ef0070898ae5fa49f57fd3705deca5f9684bbe75936a3f[ALL] 0309c3ca1d982f1c8a66ce183172e7fa7b630afd22a208d640bb8e287a99f13078"}, "vout": 1, "txid": "5dc5acad7390b41ef705fccc8ce1d95d85fd0580178911fdd1d01edc912a4482"}, {"sequence": 4294967295, "scriptSig": {"hex": "483045022100c5230adc09ca93bedc4c5c87e397bf3b03a1468abc19a96fcb3fbb3fabf9167202200ef05c64a0e67c1f2d902ec2ea86c0e7c5db6030cf2ab62e94711f473e71746301210309c3ca1d982f1c8a66ce183172e7fa7b630afd22a208d640bb8e287a99f13078", "asm": "3045022100c5230adc09ca93bedc4c5c87e397bf3b03a1468abc19a96fcb3fbb3fabf9167202200ef05c64a0e67c1f2d902ec2ea86c0e7c5db6030cf2ab62e94711f473e717463[ALL] 0309c3ca1d982f1c8a66ce183172e7fa7b630afd22a208d640bb8e287a99f13078"}, "vout": 1, "txid": "5e578bd9a08feb9da64ae670b76fe6ff19cdabc4d8208b8e22dca71ddf7bbd22"}, {"sequence": 4294967295, "scriptSig": {"hex": "47304402205fcfa117e6b9c0089e26a013e462453eb17cc498b410d272092dc24b1d34c15f02200d7badf422e76e09b66645a0a697b58539bdd502ec81a4a7ac0e0ddaf290f98001210309c3ca1d982f1c8a66ce183172e7fa7b630afd22a208d640bb8e287a99f13078", "asm": "304402205fcfa117e6b9c0089e26a013e462453eb17cc498b410d272092dc24b1d34c15f02200d7badf422e76e09b66645a0a697b58539bdd502ec81a4a7ac0e0ddaf290f980[ALL] 0309c3ca1d982f1c8a66ce183172e7fa7b630afd22a208d640bb8e287a99f13078"}, "vout": 0, "txid": "62813979be0d1db3c7bd06665d39c23832d44a32089d0d7b670976c97d3cd72b"}, {"sequence": 4294967295, "scriptSig": {"hex": "483045022100f50319af864f92d95157704610a629ed772bbf8327e9f5dca59372a684119d5002205161507c345e74ffd612c3ae007fc4a1c388fea5276224c08beb0cc8771cb8a101210309c3ca1d982f1c8a66ce183172e7fa7b630afd22a208d640bb8e287a99f13078", "asm": "3045022100f50319af864f92d95157704610a629ed772bbf8327e9f5dca59372a684119d5002205161507c345e74ffd612c3ae007fc4a1c388fea5276224c08beb0cc8771cb8a1[ALL] 0309c3ca1d982f1c8a66ce183172e7fa7b630afd22a208d640bb8e287a99f13078"}, "vout": 0, "txid": "67310849c05967477c8703f0d3669e637c2af8e138a117f9364b98c11db3d7b0"}, {"sequence": 4294967295, "scriptSig": {"hex": "47304402205be5bf191d6d50e6ed25c57830f0818420cd08b632abd836b0d62b3090ffb00d0220099368bcce7a4a0ef6646f48d0d6d2ec09e1fe9d4919e2ece5e13d7425890af201210309c3ca1d982f1c8a66ce183172e7fa7b630afd22a208d640bb8e287a99f13078", "asm": "304402205be5bf191d6d50e6ed25c57830f0818420cd08b632abd836b0d62b3090ffb00d0220099368bcce7a4a0ef6646f48d0d6d2ec09e1fe9d4919e2ece5e13d7425890af2[ALL] 0309c3ca1d982f1c8a66ce183172e7fa7b630afd22a208d640bb8e287a99f13078"}, "vout": 1, "txid": "81edc07e3346e7934b3f026a637579d58d14ab38a09c4d30bd2b0a7940190655"}, {"sequence": 4294967295, "scriptSig": {"hex": "4730440220180b5abfaa9f80bdd38805d3c600472f86670e192917f67e5b12cf8a00b2008302206addef62f951baead7be8b4eccb29f06a2db1fbf45c6387bf837489070124d6901210309c3ca1d982f1c8a66ce183172e7fa7b630afd22a208d640bb8e287a99f13078", "asm": "30440220180b5abfaa9f80bdd38805d3c600472f86670e192917f67e5b12cf8a00b2008302206addef62f951baead7be8b4eccb29f06a2db1fbf45c6387bf837489070124d69[ALL] 0309c3ca1d982f1c8a66ce183172e7fa7b630afd22a208d640bb8e287a99f13078"}, "vout": 0, "txid": "93ee497b59cf3f0461fa9e8a2e673146235369d03fdd417de3f00e2d7499fb18"}, {"sequence": 4294967295, "scriptSig": {"hex": "4730440220477cd646ab4c508b2453b498be15caa728aff3c46f60ca0656d6e2e3d0403cd4022037f1f9a669ef4c7769a077c98ad6e9b2cc9fa356735f3f665f9c0401936b13bb01210309c3ca1d982f1c8a66ce183172e7fa7b630afd22a208d640bb8e287a99f13078", "asm": "30440220477cd646ab4c508b2453b498be15caa728aff3c46f60ca0656d6e2e3d0403cd4022037f1f9a669ef4c7769a077c98ad6e9b2cc9fa356735f3f665f9c0401936b13bb[ALL] 0309c3ca1d982f1c8a66ce183172e7fa7b630afd22a208d640bb8e287a99f13078"}, "vout": 1, "txid": "a196e09f8eafb74d98efeef320b68bfbceb069e63698d2f0c874b00e25292155"}, {"sequence": 4294967295, "scriptSig": {"hex": "483045022100eec9d5a05ada5cab876f7267cd65817afd95cd6d09bf85ef0b81425fdc091a2002207828d3e6b33809939f1c8796eaa41ba73d2d7ea5a6e576e341d6b75fceb5d0d701210309c3ca1d982f1c8a66ce183172e7fa7b630afd22a208d640bb8e287a99f13078", "asm": "3045022100eec9d5a05ada5cab876f7267cd65817afd95cd6d09bf85ef0b81425fdc091a2002207828d3e6b33809939f1c8796eaa41ba73d2d7ea5a6e576e341d6b75fceb5d0d7[ALL] 0309c3ca1d982f1c8a66ce183172e7fa7b630afd22a208d640bb8e287a99f13078"}, "vout": 1, "txid": "a771695a21ac7aff2591e3b65443d2f068d7e9f8f6269a4841f57d88dd5e9924"}, {"sequence": 4294967295, "scriptSig": {"hex": "483045022100a50c87e692d076b8534fbc6c0872913c67d0c404cc40076d5776b57cfce3267502204f0750cf3e9e9ec2cffc8a732c6514be592e65c774c3f7af27e83689dc51c58e01210309c3ca1d982f1c8a66ce183172e7fa7b630afd22a208d640bb8e287a99f13078", "asm": "3045022100a50c87e692d076b8534fbc6c0872913c67d0c404cc40076d5776b57cfce3267502204f0750cf3e9e9ec2cffc8a732c6514be592e65c774c3f7af27e83689dc51c58e[ALL] 0309c3ca1d982f1c8a66ce183172e7fa7b630afd22a208d640bb8e287a99f13078"}, "vout": 1, "txid": "b3eb1210dc96d074584ee212535100b33e9731cc0d6d3b6a715725c9d53028f4"}, {"sequence": 4294967295, "scriptSig": {"hex": "4730440220246c84ced61b8d8f1554b309e63ec2c06bd7dbdf1753f748495e408c7913538302200f6aeeafd22bb5b65551877e753ce60801fe568951f261d86ade8cf979d69be701210309c3ca1d982f1c8a66ce183172e7fa7b630afd22a208d640bb8e287a99f13078", "asm": "30440220246c84ced61b8d8f1554b309e63ec2c06bd7dbdf1753f748495e408c7913538302200f6aeeafd22bb5b65551877e753ce60801fe568951f261d86ade8cf979d69be7[ALL] 0309c3ca1d982f1c8a66ce183172e7fa7b630afd22a208d640bb8e287a99f13078"}, "vout": 1, "txid": "b67f219838e898c26d06c8c75ba78b92f99164a9870a0d069432daee8f9aad8c"}, {"sequence": 4294967295, "scriptSig": {"hex": "47304402203f465af291ee8a2956d89d9ce44cfef0b0b537c31672a49b2e22172234e9cac00220397bc88b538c5c1d07ee85ebe1166a18bee0dc7c293a904ba25b3cf53c734a1001210309c3ca1d982f1c8a66ce183172e7fa7b630afd22a208d640bb8e287a99f13078", "asm": "304402203f465af291ee8a2956d89d9ce44cfef0b0b537c31672a49b2e22172234e9cac00220397bc88b538c5c1d07ee85ebe1166a18bee0dc7c293a904ba25b3cf53c734a10[ALL] 0309c3ca1d982f1c8a66ce183172e7fa7b630afd22a208d640bb8e287a99f13078"}, "vout": 1, "txid": "bf5dc08c139b88c4a7d3c2f0eb08edd6175789f8adec3f0021288a74c0821b34"}, {"sequence": 4294967295, "scriptSig": {"hex": "47304402203b4bc90d4731ecb8f974d5caaba71985ae0acea66f51f4bdb372888614f2b1b2022002d973b73123bacbeba9ee0b0e02599269ee8ee3a955864ab3442b1f4cbde48601210309c3ca1d982f1c8a66ce183172e7fa7b630afd22a208d640bb8e287a99f13078", "asm": "304402203b4bc90d4731ecb8f974d5caaba71985ae0acea66f51f4bdb372888614f2b1b2022002d973b73123bacbeba9ee0b0e02599269ee8ee3a955864ab3442b1f4cbde486[ALL] 0309c3ca1d982f1c8a66ce183172e7fa7b630afd22a208d640bb8e287a99f13078"}, "vout": 1, "txid": "c455a28ee27f3b1e41323fde6f0b22bcd0e65e94aae39fe0f7c4ee22acbb6395"}, {"sequence": 4294967295, "scriptSig": {"hex": "473044022046cf697e73ca144c1b77f6ffc4877ce2588f1651e6f9bce54aee1a85423570cc0220304de45ba19b07c684cf8f329856ca6d326cf0dde2ebf3d1cfd4201de43e0d2d01210309c3ca1d982f1c8a66ce183172e7fa7b630afd22a208d640bb8e287a99f13078", "asm": "3044022046cf697e73ca144c1b77f6ffc4877ce2588f1651e6f9bce54aee1a85423570cc0220304de45ba19b07c684cf8f329856ca6d326cf0dde2ebf3d1cfd4201de43e0d2d[ALL] 0309c3ca1d982f1c8a66ce183172e7fa7b630afd22a208d640bb8e287a99f13078"}, "vout": 1, "txid": "d1c2c4ee8d5d1df440d31a1b881bdaeada7b61ee5b48c444b18b2d8fcfd2ca03"}, {"sequence": 4294967295, "scriptSig": {"hex": "47304402202204d72b52560a1a9564c3e5de5043eac33c00fadd52ec4ca288a746aa961bb102203d69851f23fdc4bce46c5e3d7eb50f4075f6529407ed54708383858a0306164d01210309c3ca1d982f1c8a66ce183172e7fa7b630afd22a208d640bb8e287a99f13078", "asm": "304402202204d72b52560a1a9564c3e5de5043eac33c00fadd52ec4ca288a746aa961bb102203d69851f23fdc4bce46c5e3d7eb50f4075f6529407ed54708383858a0306164d[ALL] 0309c3ca1d982f1c8a66ce183172e7fa7b630afd22a208d640bb8e287a99f13078"}, "vout": 1, "txid": "d4e3d4577a198b8fca8c7f706262d925f9771e298d7b67ab4ba7d834a68cacce"}, {"sequence": 4294967295, "scriptSig": {"hex": "483045022100a2ce17b812a8fd53849dfb84575b39241ccd3ded61a393e5fddb7edf3803b75f02204a70fc0008265993e749febb885b6845a10f2c0106cb1d50cf6e6e789b242e9501210309c3ca1d982f1c8a66ce183172e7fa7b630afd22a208d640bb8e287a99f13078", "asm": "3045022100a2ce17b812a8fd53849dfb84575b39241ccd3ded61a393e5fddb7edf3803b75f02204a70fc0008265993e749febb885b6845a10f2c0106cb1d50cf6e6e789b242e95[ALL] 0309c3ca1d982f1c8a66ce183172e7fa7b630afd22a208d640bb8e287a99f13078"}, "vout": 0, "txid": "d5a74a835e8a52be312a95ad1dd91ac6e14c36301f42ba5a86334f813abf40e2"}, {"sequence": 4294967295, "scriptSig": {"hex": "483045022100a3c366f646fa66e4e17fbb00e60b200b21a7d289964ebb9757773b0b6d919e7e0220732989a6314a5f5df25dbb6a9d3fa2f97f12ffaf415ed8e808763d3d7ef8d77101210309c3ca1d982f1c8a66ce183172e7fa7b630afd22a208d640bb8e287a99f13078", "asm": "3045022100a3c366f646fa66e4e17fbb00e60b200b21a7d289964ebb9757773b0b6d919e7e0220732989a6314a5f5df25dbb6a9d3fa2f97f12ffaf415ed8e808763d3d7ef8d771[ALL] 0309c3ca1d982f1c8a66ce183172e7fa7b630afd22a208d640bb8e287a99f13078"}, "vout": 1, "txid": "dbee28e073954be82c901b58fee7ccd4b7d89ab8f6cacd0552ee5fd5f4bb0913"}, {"sequence": 4294967295, "scriptSig": {"hex": "47304402201ce6d3019dd91d082ea7c73369a30662553556aeab9a1da84775a8118017f39702201765d6b9bc7850a1a041748ab343fa92377e4c3f3c19635deb0e056ba492196001210309c3ca1d982f1c8a66ce183172e7fa7b630afd22a208d640bb8e287a99f13078", "asm": "304402201ce6d3019dd91d082ea7c73369a30662553556aeab9a1da84775a8118017f39702201765d6b9bc7850a1a041748ab343fa92377e4c3f3c19635deb0e056ba4921960[ALL] 0309c3ca1d982f1c8a66ce183172e7fa7b630afd22a208d640bb8e287a99f13078"}, "vout": 1, "txid": "dc19abc2c8b59b8369fec881c9184b38e28a2d9933380ee6a199d5a5fb7b3f97"}, {"sequence": 4294967295, "scriptSig": {"hex": "47304402205603aea08618d12238640674a01738b765e09a32adab6e330001bd11cac56fc002207c72a23e341594a7c9fc4e1b972c494cd3519413f2dc90a9a81c3de876f8965401210309c3ca1d982f1c8a66ce183172e7fa7b630afd22a208d640bb8e287a99f13078", "asm": "304402205603aea08618d12238640674a01738b765e09a32adab6e330001bd11cac56fc002207c72a23e341594a7c9fc4e1b972c494cd3519413f2dc90a9a81c3de876f89654[ALL] 0309c3ca1d982f1c8a66ce183172e7fa7b630afd22a208d640bb8e287a99f13078"}, "vout": 0, "txid": "e0c17db7234b6d393e30203312c928366872994bd299be8db29d8406104f42ea"}, {"sequence": 4294967295, "scriptSig": {"hex": "473044022069d52311bbf497e08529d8bf353d77bf41c6f9fa624fd24f8412dea46ada4d1402206e79783b77607b90a57d2c4fe9a168ecc534f3a751f83498571d1b641475cfce01210309c3ca1d982f1c8a66ce183172e7fa7b630afd22a208d640bb8e287a99f13078", "asm": "3044022069d52311bbf497e08529d8bf353d77bf41c6f9fa624fd24f8412dea46ada4d1402206e79783b77607b90a57d2c4fe9a168ecc534f3a751f83498571d1b641475cfce[ALL] 0309c3ca1d982f1c8a66ce183172e7fa7b630afd22a208d640bb8e287a99f13078"}, "vout": 0, "txid": "ea42fb8df265c7e14de2ffa0aa483418ce8fc8a41181b67f0c124b095a870d52"}, {"sequence": 4294967295, "scriptSig": {"hex": "4730440220618a7e0fd556268865bc221705d8ecf18d66a419bf5d0f8c77c634d6f2d8ddee02206d02baf9ce2556ba6b4da2c20f1a8c542310769fb2acb7c0467ef3ca2a408ed401210309c3ca1d982f1c8a66ce183172e7fa7b630afd22a208d640bb8e287a99f13078", "asm": "30440220618a7e0fd556268865bc221705d8ecf18d66a419bf5d0f8c77c634d6f2d8ddee02206d02baf9ce2556ba6b4da2c20f1a8c542310769fb2acb7c0467ef3ca2a408ed4[ALL] 0309c3ca1d982f1c8a66ce183172e7fa7b630afd22a208d640bb8e287a99f13078"}, "vout": 1, "txid": "ef6846ed2f7066937e05a51569bb58064666476508d522291b8e40d474e751f8"}, {"sequence": 4294967295, "scriptSig": {"hex": "483045022100c219113fddaf8766c44b90d24276cbe129807071e795d6fadd88c604a6740c55022016c04564dba991d3bddfb9cd758a9a499f1a7578f8c344952180f0d7b1a90af601210309c3ca1d982f1c8a66ce183172e7fa7b630afd22a208d640bb8e287a99f13078", "asm": "3045022100c219113fddaf8766c44b90d24276cbe129807071e795d6fadd88c604a6740c55022016c04564dba991d3bddfb9cd758a9a499f1a7578f8c344952180f0d7b1a90af6[ALL] 0309c3ca1d982f1c8a66ce183172e7fa7b630afd22a208d640bb8e287a99f13078"}, "vout": 0, "txid": "f034643c01c7e5f6931b089aa4bb959c7278fd45c8cde3c8536364b4ae2a2c39"}, {"sequence": 4294967295, "scriptSig": {"hex": "4730440220230ac8bd73afc5023bfc7129594e1a800b22cc8c5c9a0972bac44f2255123613022027013cb5a2d743c6dfbcef4d13428b6e8e6411a69a1d6fd42c197fa9783314fd01210309c3ca1d982f1c8a66ce183172e7fa7b630afd22a208d640bb8e287a99f13078", "asm": "30440220230ac8bd73afc5023bfc7129594e1a800b22cc8c5c9a0972bac44f2255123613022027013cb5a2d743c6dfbcef4d13428b6e8e6411a69a1d6fd42c197fa9783314fd[ALL] 0309c3ca1d982f1c8a66ce183172e7fa7b630afd22a208d640bb8e287a99f13078"}, "vout": 0, "txid": "f209ecdfa37cf8b57b62a7d922a73b729429aa0c8b2b3f5c8f5be9c9461bde52"}, {"sequence": 4294967295, "scriptSig": {"hex": "4730440220706fc97a235fd999beebf5e2f9a14235a7aaf8d49977fd90cc5df7a4308619ad0220282bcf2c23f742f9936914d50646cc45b0968a990f7a6fa48ecd9c940aecdb1d01210309c3ca1d982f1c8a66ce183172e7fa7b630afd22a208d640bb8e287a99f13078", "asm": "30440220706fc97a235fd999beebf5e2f9a14235a7aaf8d49977fd90cc5df7a4308619ad0220282bcf2c23f742f9936914d50646cc45b0968a990f7a6fa48ecd9c940aecdb1d[ALL] 0309c3ca1d982f1c8a66ce183172e7fa7b630afd22a208d640bb8e287a99f13078"}, "vout": 1, "txid": "f5d7c149a0067ed00abedf6a7133d8be40a3e9cf018fca6f8d020f3b8b71f93e"}, {"sequence": 4294967295, "scriptSig": {"hex": "483045022100fffcd04261014c84f7bf9fe0e319e796a4644951d25520b4ebd2e811d7ee81b802202c0b6594645ac32ffd12d61a583a0d72a361786aa7ce0b65418ced62eb81951201210309c3ca1d982f1c8a66ce183172e7fa7b630afd22a208d640bb8e287a99f13078", "asm": "3045022100fffcd04261014c84f7bf9fe0e319e796a4644951d25520b4ebd2e811d7ee81b802202c0b6594645ac32ffd12d61a583a0d72a361786aa7ce0b65418ced62eb819512[ALL] 0309c3ca1d982f1c8a66ce183172e7fa7b630afd22a208d640bb8e287a99f13078"}, "vout": 1, "txid": "f6de8b0339f76ee7e65a82af3c78a48c6d3ac4ed34b455d03ff50bc4c842b303"}, {"sequence": 4294967295, "scriptSig": {"hex": "483045022100af45c226c1047fb09e08a9e1768aa71d4053abff053ba0f4738542c2a7192fd102201b6681b63dc1943b372bb02dc449dbc8c20ff9b429c6896befcb37d6688db3aa01210309c3ca1d982f1c8a66ce183172e7fa7b630afd22a208d640bb8e287a99f13078", "asm": "3045022100af45c226c1047fb09e08a9e1768aa71d4053abff053ba0f4738542c2a7192fd102201b6681b63dc1943b372bb02dc449dbc8c20ff9b429c6896befcb37d6688db3aa[ALL] 0309c3ca1d982f1c8a66ce183172e7fa7b630afd22a208d640bb8e287a99f13078"}, "vout": 0, "txid": "fa9e9695a436d334ce0932cda86ebe11123c44212d527aeb8f2715c5bee852a7"}, {"sequence": 4294967295, "scriptSig": {"hex": "473044022052b8d4993d4800f17c423caeb285fa5bd66e5945597fcefdca338d686899d69702203bf6cad6f2240d58e0b09f48d2e49f87f4b0bfd90427fca9bbcec9a4325b3e9501210309c3ca1d982f1c8a66ce183172e7fa7b630afd22a208d640bb8e287a99f13078", "asm": "3044022052b8d4993d4800f17c423caeb285fa5bd66e5945597fcefdca338d686899d69702203bf6cad6f2240d58e0b09f48d2e49f87f4b0bfd90427fca9bbcec9a4325b3e95[ALL] 0309c3ca1d982f1c8a66ce183172e7fa7b630afd22a208d640bb8e287a99f13078"}, "vout": 1, "txid": "fe82317c11554a4aadc24241f32cc406cbb707f4749584da5cddcdc9d596aea3"}], "txid": "bbee371d578066d7efa4539b68130dd662f8c8a6eb55fd0f4a180be84098c04b", "blocktime": 1537872018, "version": 1, "confirmations": 11489, "time": 1537872018, "locktime": 0, "vsize": 7004, "size": 7004}