{"hash": "bbee88a10a2339b6cc2ebb7bd13a7d60cf6647595830e6752138738a8e60f502", "blockhash": "0000000000000000000e13cef7c366c0283d82e591d1acd082e914b08063cdf1", "vout": [{"scriptPubKey": {"reqSigs": 1, "hex": "a91448c7be6a9b786f99eb0abd8363114b1ca89ebf5b87", "addresses": ["38KqroJHrEiUmupXGni9at6p7MSgHVak1C"], "asm": "OP_HASH160 48c7be6a9b786f99eb0abd8363114b1ca89ebf5b OP_EQUAL", "type": "scripthash"}, "value": 0.00430189, "n": 0}, {"scriptPubKey": {"reqSigs": 1, "hex": "a914720c6da9ab6d731f6e2aa0cbdf9f2453e09a45b187", "addresses": ["3C63qx6UyCSji9GDTPFu3JFTSnLKtZo91r"], "asm": "OP_HASH160 720c6da9ab6d731f6e2aa0cbdf9f2453e09a45b1 OP_EQUAL", "type": "scripthash"}, "value": 0.07996974, "n": 1}], "hex": "01000000013ece4437965603e7f03a4625a0eda62b4c3e85ca06756e29c8713d7d6268b0b801000000da00473044022100bf1a6e39d0d588e41b9bcb21da1a9e22770711ac0840a470e9f5271d609ca43e021f7c31cd0bc76f68a09d421cbb1d1179333174e5ef6e42c68b706ad773df77a601483045022100f2370a7190665a94ebb814a7c9f6e45ad8f0dfee9fc4730b4e5dac9f252bdf93022046bb41de1efb348d0a22fe02ffe650d1d5123ce06e55cddc7f4ace1c76f233bf0147522103f2d250ed5140d655fe49f9b9f857ff223c9290b9bbe8b68a50d522cf45e633702102045f2de7b3abee8ca375163a8879a6719ef3e6d7ffc88aa3008e11b5b89eb7ee52aeffffffff026d9006000000000017a91448c7be6a9b786f99eb0abd8363114b1ca89ebf5b872e067a000000000017a914720c6da9ab6d731f6e2aa0cbdf9f2453e09a45b18700000000", "vin": [{"sequence": 4294967295, "scriptSig": {"hex": "00473044022100bf1a6e39d0d588e41b9bcb21da1a9e22770711ac0840a470e9f5271d609ca43e021f7c31cd0bc76f68a09d421cbb1d1179333174e5ef6e42c68b706ad773df77a601483045022100f2370a7190665a94ebb814a7c9f6e45ad8f0dfee9fc4730b4e5dac9f252bdf93022046bb41de1efb348d0a22fe02ffe650d1d5123ce06e55cddc7f4ace1c76f233bf0147522103f2d250ed5140d655fe49f9b9f857ff223c9290b9bbe8b68a50d522cf45e633702102045f2de7b3abee8ca375163a8879a6719ef3e6d7ffc88aa3008e11b5b89eb7ee52ae", "asm": "0 3044022100bf1a6e39d0d588e41b9bcb21da1a9e22770711ac0840a470e9f5271d609ca43e021f7c31cd0bc76f68a09d421cbb1d1179333174e5ef6e42c68b706ad773df77a6[ALL] 3045022100f2370a7190665a94ebb814a7c9f6e45ad8f0dfee9fc4730b4e5dac9f252bdf93022046bb41de1efb348d0a22fe02ffe650d1d5123ce06e55cddc7f4ace1c76f233bf[ALL] 522103f2d250ed5140d655fe49f9b9f857ff223c9290b9bbe8b68a50d522cf45e633702102045f2de7b3abee8ca375163a8879a6719ef3e6d7ffc88aa3008e11b5b89eb7ee52ae"}, "vout": 1, "txid": "b8b068627d3d71c8296e7506ca853e4c2ba6eda025463af0e70356963744ce3e"}], "txid": "bbee88a10a2339b6cc2ebb7bd13a7d60cf6647595830e6752138738a8e60f502", "blocktime": 1537871767, "version": 1, "confirmations": 11491, "time": 1537871767, "locktime": 0, "vsize": 333, "size": 333}