{"hash": "bbf14aa1b0f9d38731926fbe403cb684693ae3fc4f7820d04bff14768ad4f0fd", "blockhash": "0000000000000000000e13cef7c366c0283d82e591d1acd082e914b08063cdf1", "vout": [{"scriptPubKey": {"type": "nulldata", "hex": "6a4c50000077a20001724455df2a838b0683ae37e8af6c953dd567cf27e7e3ef3236678a625097a3030b8025379696c9fb6f4f6c68466e5baa0e8d0614adbfbdeec81dbc9a9526289ac0f6612cd74e33776ee4", "asm": "OP_RETURN 000077a20001724455df2a838b0683ae37e8af6c953dd567cf27e7e3ef3236678a625097a3030b8025379696c9fb6f4f6c68466e5baa0e8d0614adbfbdeec81dbc9a9526289ac0f6612cd74e33776ee4"}, "value": 0.0, "n": 0}, {"scriptPubKey": {"reqSigs": 1, "hex": "76a914cbf27f0964905bf47ebbc23d1a99d6b18d2ff25e88ac", "addresses": ["1KbNfsnDFXJqPGJMLCBroALhtduBE6KfgU"], "asm": "OP_DUP OP_HASH160 cbf27f0964905bf47ebbc23d1a99d6b18d2ff25e OP_EQUALVERIFY OP_CHECKSIG", "type": "pubkeyhash"}, "value": 0.01407724, "n": 1}], "hex": "01000000015aa62582d141ca122cfe05bd46359b8f603dd023470ae619a3c404330f64ef3f000000006a47304402200b13990e4e3bb27ecbe1a398071537a55f1f74915d416a5eb98aab6a3ca7a25f0220102f595393b4a05fa93272df20705987a6de90f362a2bf82e58277b8d1b00211012102f7f0b68151a3bc3e2f780317e3437fb6bb7830a83ec07145455272aefc42834fffffffff020000000000000000536a4c50000077a20001724455df2a838b0683ae37e8af6c953dd567cf27e7e3ef3236678a625097a3030b8025379696c9fb6f4f6c68466e5baa0e8d0614adbfbdeec81dbc9a9526289ac0f6612cd74e33776ee4ec7a1500000000001976a914cbf27f0964905bf47ebbc23d1a99d6b18d2ff25e88ac00000000", "vin": [{"sequence": 4294967295, "scriptSig": {"hex": "47304402200b13990e4e3bb27ecbe1a398071537a55f1f74915d416a5eb98aab6a3ca7a25f0220102f595393b4a05fa93272df20705987a6de90f362a2bf82e58277b8d1b00211012102f7f0b68151a3bc3e2f780317e3437fb6bb7830a83ec07145455272aefc42834f", "asm": "304402200b13990e4e3bb27ecbe1a398071537a55f1f74915d416a5eb98aab6a3ca7a25f0220102f595393b4a05fa93272df20705987a6de90f362a2bf82e58277b8d1b00211[ALL] 02f7f0b68151a3bc3e2f780317e3437fb6bb7830a83ec07145455272aefc42834f"}, "vout": 0, "txid": "3fef640f3304c4a319e60a4723d03d608f9b3546bd05fe2c12ca41d18225a65a"}], "txid": "bbf14aa1b0f9d38731926fbe403cb684693ae3fc4f7820d04bff14768ad4f0fd", "blocktime": 1537871767, "version": 1, "confirmations": 11493, "time": 1537871767, "locktime": 0, "vsize": 283, "size": 283}