{"hash": "e9b123846453a0a866ffc2940f7a7d581c2f8b13f58cb4f4c82a6d8b28d2e705", "blockhash": "00000000000000000018f53835495a110e01622372bf6ae95dc86f2b0ab887b0", "vout": [{"scriptPubKey": {"reqSigs": 1, "hex": "0014c4bec1ee3e7358f7db35a42fcf5293233a54b576", "addresses": ["bc1qcjlvrm37wdv00ke45shu755nyva9fdtk9j0rf3"], "asm": "0 c4bec1ee3e7358f7db35a42fcf5293233a54b576", "type": "witness_v0_keyhash"}, "value": 0.12514902, "n": 0}, {"scriptPubKey": {"reqSigs": 1, "hex": "a914ab9ff33307e2887f4f862fbc0ef7eca08d62542487", "addresses": ["3HLV5sGDcrJTXQzraR4bjUFGVf4eePkvzh"], "asm": "OP_HASH160 ab9ff33307e2887f4f862fbc0ef7eca08d625424 OP_EQUAL", "type": "scripthash"}, "value": 0.04759507, "n": 1}], "hex": "01000000000101864fe0790c277304a778c8ae93fc3d5212d8cd27e552ec4285504d72a247cceb0100000000ffffffff0256f6be0000000000160014c4bec1ee3e7358f7db35a42fcf5293233a54b576d39f48000000000017a914ab9ff33307e2887f4f862fbc0ef7eca08d6254248702483045022100ea066514833a35d55ec6f8100c564c6866047cfab5a34f00d55606bc973c905002206a71d54614a7f438f77a66de51071221015302892931f4dbfbdc5273cc780fec0121020d40b3a296e058532084bd4e55e2d707f41c9ea7c85ba2fad14005c175c506df00000000", "vin": [{"txinwitness": ["3045022100ea066514833a35d55ec6f8100c564c6866047cfab5a34f00d55606bc973c905002206a71d54614a7f438f77a66de51071221015302892931f4dbfbdc5273cc780fec01", "020d40b3a296e058532084bd4e55e2d707f41c9ea7c85ba2fad14005c175c506df"], "sequence": 4294967295, "scriptSig": {"hex": "", "asm": ""}, "vout": 1, "txid": "ebcc47a2724d508542ec52e527cdd812523dfc93aec878a70473270c79e04f86"}], "txid": "bbf76ab6d40ffee036ff116b50b371e5d55b1aa67453f3427bca7f6c42d184ef", "blocktime": 1537870928, "version": 1, "confirmations": 11513, "time": 1537870928, "locktime": 0, "vsize": 142, "size": 224}