{"hash": "e90f60e7a5669b22f302266f81012fb8ebcbf56aff7c49bf9ae331837d189b11", "blockhash": "000000000000000000022b45ed06c6f4ccd3cf7fb5ba4856ebd2e58215665228", "vout": [{"scriptPubKey": {"reqSigs": 1, "hex": "76a9146b30cc90c6501b1a9c10f5fdf8f007db0d1f55cc88ac", "addresses": ["1Ammm9Szmi4hoD2k6TMojt3aWtAegSwHAB"], "asm": "OP_DUP OP_HASH160 6b30cc90c6501b1a9c10f5fdf8f007db0d1f55cc OP_EQUALVERIFY OP_CHECKSIG", "type": "pubkeyhash"}, "value": 0.0021, "n": 0}, {"scriptPubKey": {"reqSigs": 1, "hex": "a914627aa52932456d89054bd84f86246af3b71b93a887", "addresses": ["3Afj4stdiLG9EktGrMbm252ySonnhYaz8v"], "asm": "OP_HASH160 627aa52932456d89054bd84f86246af3b71b93a8 OP_EQUAL", "type": "scripthash"}, "value": 0.80337222, "n": 1}], "hex": "01000000000101051e8ed9b7a8ebe553b66b01aa9d5b5f3072351026deee617eb4417e69b17db401000000232200205fdd641234b13964b223bd85ad2a4a667ca2099df3d42a1d3b45706a8d81abf0ffffffff0250340300000000001976a9146b30cc90c6501b1a9c10f5fdf8f007db0d1f55cc88ac46d9c9040000000017a914627aa52932456d89054bd84f86246af3b71b93a8870400483045022100cc9817d3afbaeb6c63f56f23fc605cd85bfbff19269ca30f6a116bf52eeb3a8c02203670aa2dd7d5f33c637dcbcc29b3cb5e2c1b72213596d6a1f919e525e24a0fef0147304402203d394f9cd4068255114f56b385168daf27e092322475facd8c6b2b823ab6b302022069e8b512f50b602945a21e3de0140e0228a9ed5fc4f91ec496db31369b1ef4380147522103dcde3832fa56def7b4e783faad1b8af85c3cdd74a5ff4f3c7c216b1075c18da12103c70ae8ded79be1afda73b9ce5ea14a3878908ee160d66a9a717e792bb6db276952ae00000000", "vin": [{"txinwitness": ["", "3045022100cc9817d3afbaeb6c63f56f23fc605cd85bfbff19269ca30f6a116bf52eeb3a8c02203670aa2dd7d5f33c637dcbcc29b3cb5e2c1b72213596d6a1f919e525e24a0fef01", "304402203d394f9cd4068255114f56b385168daf27e092322475facd8c6b2b823ab6b302022069e8b512f50b602945a21e3de0140e0228a9ed5fc4f91ec496db31369b1ef43801", "522103dcde3832fa56def7b4e783faad1b8af85c3cdd74a5ff4f3c7c216b1075c18da12103c70ae8ded79be1afda73b9ce5ea14a3878908ee160d66a9a717e792bb6db276952ae"], "sequence": 4294967295, "scriptSig": {"hex": "2200205fdd641234b13964b223bd85ad2a4a667ca2099df3d42a1d3b45706a8d81abf0", "asm": "00205fdd641234b13964b223bd85ad2a4a667ca2099df3d42a1d3b45706a8d81abf0"}, "vout": 1, "txid": "b47db1697e41b47e61eede26103572305f5b9daa016bb653e5eba8b7d98e1e05"}], "txid": "bbff35b934b2a7ff42c96561acc9b64a07d5dd8acd8ddacd713d85276d166088", "blocktime": 1537869901, "version": 1, "confirmations": 11523, "time": 1537869901, "locktime": 0, "vsize": 208, "size": 373}