{"hash": "bc0679b1430d32945ce43d59eff3d52dadbe0da65d71afe497fe9789a3ce2f64", "blockhash": "0000000000000000000dcc0f55137456b1a82d3642486a52398922ac4d620174", "vout": [{"scriptPubKey": {"reqSigs": 1, "hex": "a91487f9be3daae02eceb9bfffc65148318438cbf2d287", "addresses": ["3E5zKu1u9B6vFRU8z6zmm4FrUpRADv5ahn"], "asm": "OP_HASH160 87f9be3daae02eceb9bfffc65148318438cbf2d2 OP_EQUAL", "type": "scripthash"}, "value": 0.91428307, "n": 0}], "hex": "01000000027753a0d98c6017de7ca19d11125cddbeae277b9a5286f9f16e8fab7768c5e915000000006a47304402207d28c9ed2421e88a79873562e9a1833141f8a022da7ccf2e328b302caaa7b3b002202fc6b5a28bbb3ac4aa769f8cf17f6a4bf1b97ce1867f1df2b936e6feac4d0ccd0121032968f9131528949de8b7b206e4256ebd1809647b982e96d30d0fb712bf9114daffffffff5e045ffaf038f99bb1d06ecd9154c51bf07b115b8c9f08b41a75ba6dacb4934b010000006a47304402201332b3c3d276efcdae4a3c960e16c1e55094dc781981b7509b35f486c93ffb7b02201daa9e07e0cb57a9c7cec4dd34b1570ecd029a2253ca35e39e054c604bba453c0121032968f9131528949de8b7b206e4256ebd1809647b982e96d30d0fb712bf9114daffffffff01d31573050000000017a91487f9be3daae02eceb9bfffc65148318438cbf2d28700000000", "vin": [{"sequence": 4294967295, "scriptSig": {"hex": "47304402207d28c9ed2421e88a79873562e9a1833141f8a022da7ccf2e328b302caaa7b3b002202fc6b5a28bbb3ac4aa769f8cf17f6a4bf1b97ce1867f1df2b936e6feac4d0ccd0121032968f9131528949de8b7b206e4256ebd1809647b982e96d30d0fb712bf9114da", "asm": "304402207d28c9ed2421e88a79873562e9a1833141f8a022da7ccf2e328b302caaa7b3b002202fc6b5a28bbb3ac4aa769f8cf17f6a4bf1b97ce1867f1df2b936e6feac4d0ccd[ALL] 032968f9131528949de8b7b206e4256ebd1809647b982e96d30d0fb712bf9114da"}, "vout": 0, "txid": "15e9c56877ab8f6ef1f986529a7b27aebedd5c12119da17cde17608cd9a05377"}, {"sequence": 4294967295, "scriptSig": {"hex": "47304402201332b3c3d276efcdae4a3c960e16c1e55094dc781981b7509b35f486c93ffb7b02201daa9e07e0cb57a9c7cec4dd34b1570ecd029a2253ca35e39e054c604bba453c0121032968f9131528949de8b7b206e4256ebd1809647b982e96d30d0fb712bf9114da", "asm": "304402201332b3c3d276efcdae4a3c960e16c1e55094dc781981b7509b35f486c93ffb7b02201daa9e07e0cb57a9c7cec4dd34b1570ecd029a2253ca35e39e054c604bba453c[ALL] 032968f9131528949de8b7b206e4256ebd1809647b982e96d30d0fb712bf9114da"}, "vout": 1, "txid": "4b93b4ac6dba751ab4089f8c5b117bf01bc55491cd6ed0b19bf938f0fa5f045e"}], "txid": "bc0679b1430d32945ce43d59eff3d52dadbe0da65d71afe497fe9789a3ce2f64", "blocktime": 1537870268, "version": 1, "confirmations": 11516, "time": 1537870268, "locktime": 0, "vsize": 336, "size": 336}