{"hash": "2fa21ff2553df32be64975b2c677d0480e5718cf8873f536d1fd26b27910b5ba", "blockhash": "0000000000000000001cda96e906b7601b7a6fb1a3b62bca570a9e5d8f4b3de1", "vout": [{"scriptPubKey": {"reqSigs": 1, "hex": "76a9142b54b473fbdf023f9136b88184541826e160c54388ac", "addresses": ["14x7XeangAXWRARXzh1hs8yVGf45vt2T7c"], "asm": "OP_DUP OP_HASH160 2b54b473fbdf023f9136b88184541826e160c543 OP_EQUALVERIFY OP_CHECKSIG", "type": "pubkeyhash"}, "value": 0.01160735, "n": 0}, {"scriptPubKey": {"reqSigs": 1, "hex": "a914485da97df794d28c20cd765a3631573cb4676b8e87", "addresses": ["38Hen7P7F9Jx2wVtyM12L5MEVndvAbZiQi"], "asm": "OP_HASH160 485da97df794d28c20cd765a3631573cb4676b8e OP_EQUAL", "type": "scripthash"}, "value": 0.08987666, "n": 1}], "hex": "010000000001010cd9c7f5109012ece60bb1d5414b69d54b2fb81b0706dfcce2588ab27b66ba6c01000000232200206e4b82db884cdda22d9024f4f812acd604855d598da24107f1b342c5566305d0ffffffff021fb61100000000001976a9142b54b473fbdf023f9136b88184541826e160c54388ac122489000000000017a914485da97df794d28c20cd765a3631573cb4676b8e8704004730440220666ed60efc05f60ab7575cb985c14e9398681f715b46438568f0d23c46dc49ba022021cdbe7cfa464cefd526ba2f22c655b56b817ee6c9c49b1a9860a8043ce6ff410148304502210083a6f0aa7cd9f8706c7d4e5de9522d195687f5328c794184c7943e69925ff17502204c5ad513e747020f3c96ce3de96da68e34f7d4d735126ecf77652ab0521140ac0147522103dd83e583e1bfce0a543e1c569953fe4617885012a8126f01c5883d9246d3b22d21038407424ead2b88063db2d589e50c34e1572f6b82eb9e266dec536939ee0db9eb52ae00000000", "vin": [{"txinwitness": ["", "30440220666ed60efc05f60ab7575cb985c14e9398681f715b46438568f0d23c46dc49ba022021cdbe7cfa464cefd526ba2f22c655b56b817ee6c9c49b1a9860a8043ce6ff4101", "304502210083a6f0aa7cd9f8706c7d4e5de9522d195687f5328c794184c7943e69925ff17502204c5ad513e747020f3c96ce3de96da68e34f7d4d735126ecf77652ab0521140ac01", "522103dd83e583e1bfce0a543e1c569953fe4617885012a8126f01c5883d9246d3b22d21038407424ead2b88063db2d589e50c34e1572f6b82eb9e266dec536939ee0db9eb52ae"], "sequence": 4294967295, "scriptSig": {"hex": "2200206e4b82db884cdda22d9024f4f812acd604855d598da24107f1b342c5566305d0", "asm": "00206e4b82db884cdda22d9024f4f812acd604855d598da24107f1b342c5566305d0"}, "vout": 1, "txid": "6cba667bb28a58e2ccdf06071bb82f4bd5694b41d5b10be6ec129010f5c7d90c"}], "txid": "bc085808b6511cfc9cf1fab1cc64e4f0a3a4cad57bcfbae09afcf06549f3c9c5", "blocktime": 1537873282, "version": 1, "confirmations": 11481, "time": 1537873282, "locktime": 0, "vsize": 208, "size": 373}