{"hash": "e7bf507bc7602f4463b78581ab37074c643f50cd195a303887c6b880515fba64", "blockhash": "0000000000000000001f0ddff1eddb255c1121bcd4da4f1bc9a0da00cae72433", "vout": [{"scriptPubKey": {"reqSigs": 1, "hex": "a914c9f99bd696a0fdb731fb3264c3ba81afb34d817987", "addresses": ["3L6xmDnKSevkJdu8t2ynGy7Dbtf39rxnjW"], "asm": "OP_HASH160 c9f99bd696a0fdb731fb3264c3ba81afb34d8179 OP_EQUAL", "type": "scripthash"}, "value": 0.0001, "n": 0}, {"scriptPubKey": {"reqSigs": 1, "hex": "a9141d7370ccde4590204155e4074f69743a8e4fac0287", "addresses": ["34Njp4ZKtmCDfqqps26wHBYQQGUo2pGkLi"], "asm": "OP_HASH160 1d7370ccde4590204155e4074f69743a8e4fac02 OP_EQUAL", "type": "scripthash"}, "value": 0.00413319, "n": 1}], "hex": "010000000001010d7e79d95d41eeee12f54a7e74fc8142787d50c2e32ff869089a7752c145704e0000000023220020f63dfc12340f6360d0251c22746d6b56093e3243e96ca012a65484a5d9cf0ec0ffffffff02102700000000000017a914c9f99bd696a0fdb731fb3264c3ba81afb34d817987874e06000000000017a9141d7370ccde4590204155e4074f69743a8e4fac028704004730440220449920d851275b8a45330bafe3ca7b24f91421a8793390ce5d0473a57e7594f002200fcd51f7c25afab04017c6bf780b3b63ee02870a7ec896ce111c984d0e1043d101483045022100e6063c820af90c341c6d757498de80bb1e06dd0c7323ed35c67008685adb597a02205d412b5046878415f731253fc1d7cdf4eee18d4a738e078dd6276ce6ad2a2bc90147522102097067a6a0cc130a9a6f6577b47bf369b840a79de31cd7457187994266b1bb7c2103338f346cab6ba87fe940591a03ac234be06520c5ab386d4b6632e8eef0d0db7652ae00000000", "vin": [{"txinwitness": ["", "30440220449920d851275b8a45330bafe3ca7b24f91421a8793390ce5d0473a57e7594f002200fcd51f7c25afab04017c6bf780b3b63ee02870a7ec896ce111c984d0e1043d101", "3045022100e6063c820af90c341c6d757498de80bb1e06dd0c7323ed35c67008685adb597a02205d412b5046878415f731253fc1d7cdf4eee18d4a738e078dd6276ce6ad2a2bc901", "522102097067a6a0cc130a9a6f6577b47bf369b840a79de31cd7457187994266b1bb7c2103338f346cab6ba87fe940591a03ac234be06520c5ab386d4b6632e8eef0d0db7652ae"], "sequence": 4294967295, "scriptSig": {"hex": "220020f63dfc12340f6360d0251c22746d6b56093e3243e96ca012a65484a5d9cf0ec0", "asm": "0020f63dfc12340f6360d0251c22746d6b56093e3243e96ca012a65484a5d9cf0ec0"}, "vout": 0, "txid": "4e7045c152779a0869f82fe3c2507d784281fc747e4af512eeee415dd9797e0d"}], "txid": "bc0bad8386b5d3c866119c7b35ff02fcb39eb742b36d5bea25801fcaccb40cf5", "blocktime": 1537872018, "version": 1, "confirmations": 11489, "time": 1537872018, "locktime": 0, "vsize": 206, "size": 371}