{"hash": "bc10977d9891c96284c469a87dea8d7aaf72bd1705e620356c6b64af3f99581c", "blockhash": "0000000000000000000e13cef7c366c0283d82e591d1acd082e914b08063cdf1", "vout": [{"scriptPubKey": {"type": "nulldata", "hex": "6a4c50000077a20001724455df2a838b0683ae37e8af6c953dd567cf27e7e3ef3236678a625097a3030b8025379696c9fb6f4f6c68466e5baa0e8d0614adbfbdeec81d1d100759d4ba30d2c37bb011d97e02cf", "asm": "OP_RETURN 000077a20001724455df2a838b0683ae37e8af6c953dd567cf27e7e3ef3236678a625097a3030b8025379696c9fb6f4f6c68466e5baa0e8d0614adbfbdeec81d1d100759d4ba30d2c37bb011d97e02cf"}, "value": 0.0, "n": 0}, {"scriptPubKey": {"reqSigs": 1, "hex": "76a914d979b9c9ce7507271fd9c954a198797730aa813488ac", "addresses": ["1LpuTHDWexmA8vpw7ySUwyQeCp4QUzJBL4"], "asm": "OP_DUP OP_HASH160 d979b9c9ce7507271fd9c954a198797730aa8134 OP_EQUALVERIFY OP_CHECKSIG", "type": "pubkeyhash"}, "value": 0.00641756, "n": 1}], "hex": "01000000016d00747a01889602438421799dc2eca4e26aaf058541e67ca4e7615de86c37de010000006a47304402200ebc66dd5fe1ad83f5cca4a010a1476c79e1c3e6b74ec257cf5956115af091e002205353067d36d3b94ea07bcb9717e133f1d9e5f3efbf005fb7f4b7ab414807dcfe012102eaa457ccb78013b4b2429ca590eaed8b2525b045dc89e6199c0245d86f9def21ffffffff020000000000000000536a4c50000077a20001724455df2a838b0683ae37e8af6c953dd567cf27e7e3ef3236678a625097a3030b8025379696c9fb6f4f6c68466e5baa0e8d0614adbfbdeec81d1d100759d4ba30d2c37bb011d97e02cfdcca0900000000001976a914d979b9c9ce7507271fd9c954a198797730aa813488ac00000000", "vin": [{"sequence": 4294967295, "scriptSig": {"hex": "47304402200ebc66dd5fe1ad83f5cca4a010a1476c79e1c3e6b74ec257cf5956115af091e002205353067d36d3b94ea07bcb9717e133f1d9e5f3efbf005fb7f4b7ab414807dcfe012102eaa457ccb78013b4b2429ca590eaed8b2525b045dc89e6199c0245d86f9def21", "asm": "304402200ebc66dd5fe1ad83f5cca4a010a1476c79e1c3e6b74ec257cf5956115af091e002205353067d36d3b94ea07bcb9717e133f1d9e5f3efbf005fb7f4b7ab414807dcfe[ALL] 02eaa457ccb78013b4b2429ca590eaed8b2525b045dc89e6199c0245d86f9def21"}, "vout": 1, "txid": "de376ce85d61e7a47ce6418505af6ae2a4ecc29d79218443029688017a74006d"}], "txid": "bc10977d9891c96284c469a87dea8d7aaf72bd1705e620356c6b64af3f99581c", "blocktime": 1537871767, "version": 1, "confirmations": 11495, "time": 1537871767, "locktime": 0, "vsize": 283, "size": 283}