{"hash": "bc1007b82fe7ea347555845b1965d69702002723fd5113b4846271d024824b12", "blockhash": "0000000000000000000dcc0f55137456b1a82d3642486a52398922ac4d620174", "vout": [{"scriptPubKey": {"reqSigs": 1, "hex": "76a9144f0531f2c652e3719f14127dbb5eea016665a2a588ac", "addresses": ["18Cpc7oLXUVjZDRqAtqEY3xbjKL2unsna6"], "asm": "OP_DUP OP_HASH160 4f0531f2c652e3719f14127dbb5eea016665a2a5 OP_EQUALVERIFY OP_CHECKSIG", "type": "pubkeyhash"}, "value": 0.0195, "n": 0}, {"scriptPubKey": {"reqSigs": 1, "hex": "76a9146586ced214191eaee684bf8787713d2671eff5aa88ac", "addresses": ["1AFpjzWNNtmMamjbbSSNLiVdktzrYMspCQ"], "asm": "OP_DUP OP_HASH160 6586ced214191eaee684bf8787713d2671eff5aa OP_EQUALVERIFY OP_CHECKSIG", "type": "pubkeyhash"}, "value": 0.37930601, "n": 1}], "hex": "02000000013c552fb2f635c8e76055aaa8b2e806ed0ad96d413250a51bc690f7877d1de6f3010000006a4730440220175953ecb899e594098807887b36285d313364aa1783c91d22582ad8fb6d053a02202be2fce2bcf04227b4fbf51c6ca1463c7baa9b1344ca2901c1e409a76f22265101210210dac65f236a05432a1dbd2f909aa1c6e1870304203e734e8d07db9b57443d46ffffffff0230c11d00000000001976a9144f0531f2c652e3719f14127dbb5eea016665a2a588ac69c64202000000001976a9146586ced214191eaee684bf8787713d2671eff5aa88ac00000000", "vin": [{"sequence": 4294967295, "scriptSig": {"hex": "4730440220175953ecb899e594098807887b36285d313364aa1783c91d22582ad8fb6d053a02202be2fce2bcf04227b4fbf51c6ca1463c7baa9b1344ca2901c1e409a76f22265101210210dac65f236a05432a1dbd2f909aa1c6e1870304203e734e8d07db9b57443d46", "asm": "30440220175953ecb899e594098807887b36285d313364aa1783c91d22582ad8fb6d053a02202be2fce2bcf04227b4fbf51c6ca1463c7baa9b1344ca2901c1e409a76f222651[ALL] 0210dac65f236a05432a1dbd2f909aa1c6e1870304203e734e8d07db9b57443d46"}, "vout": 1, "txid": "f3e61d7d87f790c61ba55032416dd90aed06e8b2a8aa5560e7c835f6b22f553c"}], "txid": "bc1007b82fe7ea347555845b1965d69702002723fd5113b4846271d024824b12", "blocktime": 1537870268, "version": 2, "confirmations": 11516, "time": 1537870268, "locktime": 0, "vsize": 225, "size": 225}