{"hash": "bc126b3a269993ef50f4780922d49dde8818d7a4b991397801775ed4d4ab9972", "blockhash": "0000000000000000001f76057863aec43deb6fa401d9628bb513d65a8098bfab", "vout": [{"scriptPubKey": {"reqSigs": 1, "hex": "a91445619a594e7331f95f851d2474c1e5c2497dc4ea87", "addresses": ["381sUMGGyqxTWikgRmSDvZje71xT5qnRn9"], "asm": "OP_HASH160 45619a594e7331f95f851d2474c1e5c2497dc4ea OP_EQUAL", "type": "scripthash"}, "value": 0.00703111, "n": 0}, {"scriptPubKey": {"reqSigs": 1, "hex": "76a914d41c0ff2c3e4e77af57583b727e742de511a2e9488ac", "addresses": ["1LLXsUJSE36StQwYHYmS7WF8jGkvp1PKbi"], "asm": "OP_DUP OP_HASH160 d41c0ff2c3e4e77af57583b727e742de511a2e94 OP_EQUALVERIFY OP_CHECKSIG", "type": "pubkeyhash"}, "value": 0.03036489, "n": 1}], "hex": "010000000178f658d423d83c83ad9c433f01df6f71ad00f9155787e9212fb6990b2c54f89e010000006a473044022047ddeb1540ddd6c194917b2fcadca098b7d6b36686e5f601d546fc31455dc7db022067f583eb395f05f996bb5f273881bcb7e72c67ec848d8f9a938b4ee39ebffa7501210208c19c63f3b123cab7a2496a105dd97624550a85b1aca52262964233701db0b1ffffffff0287ba0a000000000017a91445619a594e7331f95f851d2474c1e5c2497dc4ea8749552e00000000001976a914d41c0ff2c3e4e77af57583b727e742de511a2e9488ac00000000", "vin": [{"sequence": 4294967295, "scriptSig": {"hex": "473044022047ddeb1540ddd6c194917b2fcadca098b7d6b36686e5f601d546fc31455dc7db022067f583eb395f05f996bb5f273881bcb7e72c67ec848d8f9a938b4ee39ebffa7501210208c19c63f3b123cab7a2496a105dd97624550a85b1aca52262964233701db0b1", "asm": "3044022047ddeb1540ddd6c194917b2fcadca098b7d6b36686e5f601d546fc31455dc7db022067f583eb395f05f996bb5f273881bcb7e72c67ec848d8f9a938b4ee39ebffa75[ALL] 0208c19c63f3b123cab7a2496a105dd97624550a85b1aca52262964233701db0b1"}, "vout": 1, "txid": "9ef8542c0b99b62f21e9875715f900ad716fdf013f439cad833cd823d458f678"}], "txid": "bc126b3a269993ef50f4780922d49dde8818d7a4b991397801775ed4d4ab9972", "blocktime": 1537873891, "version": 1, "confirmations": 11474, "time": 1537873891, "locktime": 0, "vsize": 223, "size": 223}