{"hash": "bc180217bab93b38b3148a0583c80388b950512ef9dac5a182a86da642f34365", "blockhash": "0000000000000000000baef3f32e3676a92c3b2e5da21b426e4f302fc371ce76", "vout": [{"scriptPubKey": {"type": "nulldata", "hex": "6a4c500000780f0001cadb011974be18250fff683e702940d64fa54d8eb2d19ed074892d00f8e818cb3efb7ddcc43ac3e4b5401afb02785baa1b6506143df9d84da2dd1d100759d4ba30d2c37bb011d97e02cf", "asm": "OP_RETURN 0000780f0001cadb011974be18250fff683e702940d64fa54d8eb2d19ed074892d00f8e818cb3efb7ddcc43ac3e4b5401afb02785baa1b6506143df9d84da2dd1d100759d4ba30d2c37bb011d97e02cf"}, "value": 0.0, "n": 0}, {"scriptPubKey": {"reqSigs": 1, "hex": "76a9149e7d37677bac6f786329cf533db7c367a18bcbc088ac", "addresses": ["1FT1mVvv223RUuRsMQqTp76Vx34ZVbKwaH"], "asm": "OP_DUP OP_HASH160 9e7d37677bac6f786329cf533db7c367a18bcbc0 OP_EQUALVERIFY OP_CHECKSIG", "type": "pubkeyhash"}, "value": 0.00637145, "n": 1}], "hex": "01000000010ead90cd4bbcaf01b4a66eede9b804f3993d8eb9cab9dcacc5683cbd91ce6766010000006b483045022100979909aa60c20f9f74475e01b5e459ebde9e704e1575a197fb82589acafb24210220717b95bb4078ccda3d5c7e6936f9ed76cb4310624f8aae2c90695d80010713820121032ac0fbe20218ba06b3c6cf9991f923c4fccfd248d3a0492fb8e39699608410cdffffffff020000000000000000536a4c500000780f0001cadb011974be18250fff683e702940d64fa54d8eb2d19ed074892d00f8e818cb3efb7ddcc43ac3e4b5401afb02785baa1b6506143df9d84da2dd1d100759d4ba30d2c37bb011d97e02cfd9b80900000000001976a9149e7d37677bac6f786329cf533db7c367a18bcbc088ac00000000", "vin": [{"sequence": 4294967295, "scriptSig": {"hex": "483045022100979909aa60c20f9f74475e01b5e459ebde9e704e1575a197fb82589acafb24210220717b95bb4078ccda3d5c7e6936f9ed76cb4310624f8aae2c90695d80010713820121032ac0fbe20218ba06b3c6cf9991f923c4fccfd248d3a0492fb8e39699608410cd", "asm": "3045022100979909aa60c20f9f74475e01b5e459ebde9e704e1575a197fb82589acafb24210220717b95bb4078ccda3d5c7e6936f9ed76cb4310624f8aae2c90695d8001071382[ALL] 032ac0fbe20218ba06b3c6cf9991f923c4fccfd248d3a0492fb8e39699608410cd"}, "vout": 1, "txid": "6667ce91bd3c68c5acdcb9cab98e3d99f304b8e9ed6ea6b401afbc4bcd90ad0e"}], "txid": "bc180217bab93b38b3148a0583c80388b950512ef9dac5a182a86da642f34365", "blocktime": 1537876114, "version": 1, "confirmations": 11460, "time": 1537876114, "locktime": 0, "vsize": 284, "size": 284}