{"hash": "bc1c80e07a7f39e699cb0acdf4afc60d8509c547c289f4cd0b8734288a01a4af", "blockhash": "00000000000000000017f5eb5941039fbcee6240d03bc1f2f8e35350df66a1d8", "vout": [{"scriptPubKey": {"reqSigs": 1, "hex": "76a914df04a4d452294de017053c3346034b0f196dc6f888ac", "addresses": ["1MLDFSVhAewoxkXpQKzNBx1NMFSFuf5FEP"], "asm": "OP_DUP OP_HASH160 df04a4d452294de017053c3346034b0f196dc6f8 OP_EQUALVERIFY OP_CHECKSIG", "type": "pubkeyhash"}, "value": 0.00045693, "n": 0}, {"scriptPubKey": {"reqSigs": 1, "hex": "76a91497beb35ea0b32dae67aed30badb285a56e111f4488ac", "addresses": ["1EqMV5gZMwKiyZm7NuViTdodSsderR1GVv"], "asm": "OP_DUP OP_HASH160 97beb35ea0b32dae67aed30badb285a56e111f44 OP_EQUALVERIFY OP_CHECKSIG", "type": "pubkeyhash"}, "value": 0.07815434, "n": 1}], "hex": "0100000001dd9ea59d9bd586636b2becc41719b65b78b0b34739bf7d2531b412f29c9d52de010000006b483045022100f717b0e40020cc6ea358f39e56b110dba51736577a4227092fd9542360f9afa3022038bb2b5e0b317840e27ad01e10d613ba4f66e2ae57097a0ac82656264c6eb4740121030d3a21a5168e9030f56d90502525347cf0e9f62d89e5a3668c090b1e83d8a4e9ffffffff027db20000000000001976a914df04a4d452294de017053c3346034b0f196dc6f888ac0a417700000000001976a91497beb35ea0b32dae67aed30badb285a56e111f4488ac00000000", "vin": [{"sequence": 4294967295, "scriptSig": {"hex": "483045022100f717b0e40020cc6ea358f39e56b110dba51736577a4227092fd9542360f9afa3022038bb2b5e0b317840e27ad01e10d613ba4f66e2ae57097a0ac82656264c6eb4740121030d3a21a5168e9030f56d90502525347cf0e9f62d89e5a3668c090b1e83d8a4e9", "asm": "3045022100f717b0e40020cc6ea358f39e56b110dba51736577a4227092fd9542360f9afa3022038bb2b5e0b317840e27ad01e10d613ba4f66e2ae57097a0ac82656264c6eb474[ALL] 030d3a21a5168e9030f56d90502525347cf0e9f62d89e5a3668c090b1e83d8a4e9"}, "vout": 1, "txid": "de529d9cf212b431257dbf3947b3b0785bb61917c4ec2b6b6386d59b9da59edd"}], "txid": "bc1c80e07a7f39e699cb0acdf4afc60d8509c547c289f4cd0b8734288a01a4af", "blocktime": 1537874412, "version": 1, "confirmations": 11467, "time": 1537874412, "locktime": 0, "vsize": 226, "size": 226}