{"hash": "529d5ebad6233f854e115219acd4bfd3f4af5ff23d3573fa46c86f1a355316c7", "blockhash": "0000000000000000000e13cef7c366c0283d82e591d1acd082e914b08063cdf1", "vout": [{"scriptPubKey": {"reqSigs": 1, "hex": "0014db8867cb508210a8284960790243bf7a75718a4a", "addresses": ["bc1qmwyx0j6ssgg2s2zfvpusysal0f6hrzj2xx7xpc"], "asm": "0 db8867cb508210a8284960790243bf7a75718a4a", "type": "witness_v0_keyhash"}, "value": 1.07215601, "n": 0}, {"scriptPubKey": {"reqSigs": 1, "hex": "76a9146684a6de38b6a10e6812863f5b456e08595c25b688ac", "addresses": ["1AM4qNtJ3KfBf1Awc5LVgj1fUXBLFT9iEh"], "asm": "OP_DUP OP_HASH160 6684a6de38b6a10e6812863f5b456e08595c25b6 OP_EQUALVERIFY OP_CHECKSIG", "type": "pubkeyhash"}, "value": 0.02785138, "n": 1}], "hex": "02000000000101a50a263c064c181c7f4edddb5d846832e52a7a103fd19491479d5d8c242be15800000000171600149a080bd02d77f8bafb313be472f1a75809e4195affffffff02f1fa630600000000160014db8867cb508210a8284960790243bf7a75718a4a727f2a00000000001976a9146684a6de38b6a10e6812863f5b456e08595c25b688ac02473044022001dafd8eb645a6a97fb2632c050d6a88bb87614ee282e5f59ac1c5f9c5a85658022014acb2e6174d1e78475e3b10c327509bef1c107a187855db671126bae2ed3c250121027bd7f089b98bf91d94aaa5ba7aa7e14e02f79eafda2ebd8c8e69df54c449fca400000000", "vin": [{"txinwitness": ["3044022001dafd8eb645a6a97fb2632c050d6a88bb87614ee282e5f59ac1c5f9c5a85658022014acb2e6174d1e78475e3b10c327509bef1c107a187855db671126bae2ed3c2501", "027bd7f089b98bf91d94aaa5ba7aa7e14e02f79eafda2ebd8c8e69df54c449fca4"], "sequence": 4294967295, "scriptSig": {"hex": "1600149a080bd02d77f8bafb313be472f1a75809e4195a", "asm": "00149a080bd02d77f8bafb313be472f1a75809e4195a"}, "vout": 0, "txid": "58e12b248c5d9d479194d13f107a2ae53268845ddbdd4e7f1c184c063c260aa5"}], "txid": "bc2196588035fcf46c30e298e6adfd7a1b89976fa26f573cf6d8570609072957", "blocktime": 1537871767, "version": 2, "confirmations": 11492, "time": 1537871767, "locktime": 0, "vsize": 167, "size": 248}