{"hash": "bc258995c83b897dec1b77de9c8a583813344077faba224c0520cf8246320c63", "blockhash": "00000000000000000018f53835495a110e01622372bf6ae95dc86f2b0ab887b0", "vout": [{"scriptPubKey": {"reqSigs": 1, "hex": "76a914daf2d8542a635d2bcd418ee3c4568caa986cde2888ac", "addresses": ["1LxhDzJ2Hakz7sBwSHq8G6kNahd7x6Cu2Z"], "asm": "OP_DUP OP_HASH160 daf2d8542a635d2bcd418ee3c4568caa986cde28 OP_EQUALVERIFY OP_CHECKSIG", "type": "pubkeyhash"}, "value": 0.5, "n": 0}, {"scriptPubKey": {"reqSigs": 1, "hex": "76a91420349e4e68be5edb529f55dd858118479bdbb57c88ac", "addresses": ["13wHf8RXwZM4DdU1hXNcnycEXuAchPuMCD"], "asm": "OP_DUP OP_HASH160 20349e4e68be5edb529f55dd858118479bdbb57c OP_EQUALVERIFY OP_CHECKSIG", "type": "pubkeyhash"}, "value": 0.66536941, "n": 1}], "hex": "0100000002228375747c56a0f37ba9d8a49bfd78696282be9938689fca2a3c707ab11667095a0000006b483045022100afa3e2fbebb47bca716c3c99168adf0574fb6d81b7d4def3f2d39e7fbf21af22022016b5e29d985f428bd4192c5aa06ee351e361d52c0a7a5fda118dd40c2009e2a40121030322fdf5804f01e0d2c15550a6f660d11bdc21705bceb6896a217bdd703c13dbfdffffff1d329618c8cc65c9b2feded8bd13792899b32710efa47afd030a3dfc002009f8600000006a4730440220378f6912130c424bb4c319a2b059d9075ac71cdc968fd76998cddd5c5ca7ee6502203f1bb3842ed7f2038a451bc0ba3b7972820425e80fd8ccc2a08a30b361499e010121030322fdf5804f01e0d2c15550a6f660d11bdc21705bceb6896a217bdd703c13dbfdffffff0280f0fa02000000001976a914daf2d8542a635d2bcd418ee3c4568caa986cde2888aced45f703000000001976a91420349e4e68be5edb529f55dd858118479bdbb57c88ac0e490800", "vin": [{"sequence": 4294967293, "scriptSig": {"hex": "483045022100afa3e2fbebb47bca716c3c99168adf0574fb6d81b7d4def3f2d39e7fbf21af22022016b5e29d985f428bd4192c5aa06ee351e361d52c0a7a5fda118dd40c2009e2a40121030322fdf5804f01e0d2c15550a6f660d11bdc21705bceb6896a217bdd703c13db", "asm": "3045022100afa3e2fbebb47bca716c3c99168adf0574fb6d81b7d4def3f2d39e7fbf21af22022016b5e29d985f428bd4192c5aa06ee351e361d52c0a7a5fda118dd40c2009e2a4[ALL] 030322fdf5804f01e0d2c15550a6f660d11bdc21705bceb6896a217bdd703c13db"}, "vout": 90, "txid": "096716b17a703c2aca9f683899be82626978fd9ba4d8a97bf3a0567c74758322"}, {"sequence": 4294967293, "scriptSig": {"hex": "4730440220378f6912130c424bb4c319a2b059d9075ac71cdc968fd76998cddd5c5ca7ee6502203f1bb3842ed7f2038a451bc0ba3b7972820425e80fd8ccc2a08a30b361499e010121030322fdf5804f01e0d2c15550a6f660d11bdc21705bceb6896a217bdd703c13db", "asm": "30440220378f6912130c424bb4c319a2b059d9075ac71cdc968fd76998cddd5c5ca7ee6502203f1bb3842ed7f2038a451bc0ba3b7972820425e80fd8ccc2a08a30b361499e01[ALL] 030322fdf5804f01e0d2c15550a6f660d11bdc21705bceb6896a217bdd703c13db"}, "vout": 96, "txid": "f8092000fc3d0a03fd7aa4ef1027b399287913bdd8defeb2c965ccc81896321d"}], "txid": "bc258995c83b897dec1b77de9c8a583813344077faba224c0520cf8246320c63", "blocktime": 1537870928, "version": 1, "confirmations": 11514, "time": 1537870928, "locktime": 542990, "vsize": 373, "size": 373}