{"hash": "bc2e51b248a413a600c7c01d9e509ce676e0116f5602937d8bc76123198e7c28", "blockhash": "0000000000000000000dcc0f55137456b1a82d3642486a52398922ac4d620174", "vout": [{"scriptPubKey": {"reqSigs": 1, "hex": "76a9146bf9debcf1ce418b441d51f55dec46ec730fdeaf88ac", "addresses": ["1AqvdoZMaRQzLaFszYX3twDmHpVRQriTRL"], "asm": "OP_DUP OP_HASH160 6bf9debcf1ce418b441d51f55dec46ec730fdeaf OP_EQUALVERIFY OP_CHECKSIG", "type": "pubkeyhash"}, "value": 0.00285038, "n": 0}, {"scriptPubKey": {"reqSigs": 1, "hex": "76a914ba48d3090f0bcc93b34873ba6450d4ac90d408dd88ac", "addresses": ["1Hyyvc7rpHsg1tgDw9ojbGkvVLTDU6sDkU"], "asm": "OP_DUP OP_HASH160 ba48d3090f0bcc93b34873ba6450d4ac90d408dd OP_EQUALVERIFY OP_CHECKSIG", "type": "pubkeyhash"}, "value": 5.46e-06, "n": 1}, {"scriptPubKey": {"type": "nulldata", "hex": "6a146f6d6e69000000000000001f00000055bcf1352a", "asm": "OP_RETURN 6f6d6e69000000000000001f00000055bcf1352a"}, "value": 0.0, "n": 2}], "hex": "01000000025909585896b80d641880efd6c9b960bc3607a3210c886d006f9b7a41fb738462020000008a4730440220174518a98ac6dfd4b887a0ffc0d65f6c6efa0db670c83d3303fb37e0c382457d02200bc5b0298153fa1fb04f18736765737ef32423b9134e15ea8c3432b74b00d262014104c27a9bf9bafed19de3a1e2121e297c5f30ac2aeaf9e615dc09fcf650c4b661eee6fdb799d3115e72785214117e3017742931382c5cede821237cf92097e51348ffffffffca3b76e1e7a20a3d3f16be3e2468c68f44931b86a083d5693ea2abb4c72ffef4000000008a4730440220448755c872355f3daaab087588f40280129630a9a8c7967e636c93efe6065fb902204ebe3a99f7deb44146b77fc2f6f275dd946824623bbff0e9f36cf95fb5c386e3014104c27a9bf9bafed19de3a1e2121e297c5f30ac2aeaf9e615dc09fcf650c4b661eee6fdb799d3115e72785214117e3017742931382c5cede821237cf92097e51348ffffffff036e590400000000001976a9146bf9debcf1ce418b441d51f55dec46ec730fdeaf88ac22020000000000001976a914ba48d3090f0bcc93b34873ba6450d4ac90d408dd88ac0000000000000000166a146f6d6e69000000000000001f00000055bcf1352a00000000", "vin": [{"sequence": 4294967295, "scriptSig": {"hex": "4730440220174518a98ac6dfd4b887a0ffc0d65f6c6efa0db670c83d3303fb37e0c382457d02200bc5b0298153fa1fb04f18736765737ef32423b9134e15ea8c3432b74b00d262014104c27a9bf9bafed19de3a1e2121e297c5f30ac2aeaf9e615dc09fcf650c4b661eee6fdb799d3115e72785214117e3017742931382c5cede821237cf92097e51348", "asm": "30440220174518a98ac6dfd4b887a0ffc0d65f6c6efa0db670c83d3303fb37e0c382457d02200bc5b0298153fa1fb04f18736765737ef32423b9134e15ea8c3432b74b00d262[ALL] 04c27a9bf9bafed19de3a1e2121e297c5f30ac2aeaf9e615dc09fcf650c4b661eee6fdb799d3115e72785214117e3017742931382c5cede821237cf92097e51348"}, "vout": 2, "txid": "628473fb417a9b6f006d880c21a30736bc60b9c9d6ef8018640db89658580959"}, {"sequence": 4294967295, "scriptSig": {"hex": "4730440220448755c872355f3daaab087588f40280129630a9a8c7967e636c93efe6065fb902204ebe3a99f7deb44146b77fc2f6f275dd946824623bbff0e9f36cf95fb5c386e3014104c27a9bf9bafed19de3a1e2121e297c5f30ac2aeaf9e615dc09fcf650c4b661eee6fdb799d3115e72785214117e3017742931382c5cede821237cf92097e51348", "asm": "30440220448755c872355f3daaab087588f40280129630a9a8c7967e636c93efe6065fb902204ebe3a99f7deb44146b77fc2f6f275dd946824623bbff0e9f36cf95fb5c386e3[ALL] 04c27a9bf9bafed19de3a1e2121e297c5f30ac2aeaf9e615dc09fcf650c4b661eee6fdb799d3115e72785214117e3017742931382c5cede821237cf92097e51348"}, "vout": 0, "txid": "f4fe2fc7b4aba23e69d583a0861b93448fc668243ebe163f3d0aa2e7e1763bca"}], "txid": "bc2e51b248a413a600c7c01d9e509ce676e0116f5602937d8bc76123198e7c28", "blocktime": 1537870268, "version": 1, "confirmations": 11516, "time": 1537870268, "locktime": 0, "vsize": 467, "size": 467}