{"hash": "bc3630d125b3341ed90221267b56706c77bf248ebabe5b93e8e47274c6d1b194", "blockhash": "0000000000000000000baef3f32e3676a92c3b2e5da21b426e4f302fc371ce76", "vout": [{"scriptPubKey": {"reqSigs": 1, "hex": "76a914bb0fe151f05ae26642e57ba4274f43f0520780a388ac", "addresses": ["1J46PFCsXHjqyrtYqqCNow7BJDFYQTSdAq"], "asm": "OP_DUP OP_HASH160 bb0fe151f05ae26642e57ba4274f43f0520780a3 OP_EQUALVERIFY OP_CHECKSIG", "type": "pubkeyhash"}, "value": 0.00380787, "n": 0}, {"scriptPubKey": {"reqSigs": 1, "hex": "a9142c2043e0e1881e3f23a0307b88cfc3c6856c4bcc87", "addresses": ["35iLJoiQGnypmNb9q9BQrCAsjoQbgwXnkr"], "asm": "OP_HASH160 2c2043e0e1881e3f23a0307b88cfc3c6856c4bcc OP_EQUAL", "type": "scripthash"}, "value": 0.10251074, "n": 1}, {"scriptPubKey": {"reqSigs": 1, "hex": "76a914cbb2f5b2ebc041cd49be19d1ddbe2a05e9e0e02988ac", "addresses": ["1Ka4ZHTeajqpDAWTroipqHAMSKEqdMF1k1"], "asm": "OP_DUP OP_HASH160 cbb2f5b2ebc041cd49be19d1ddbe2a05e9e0e029 OP_EQUALVERIFY OP_CHECKSIG", "type": "pubkeyhash"}, "value": 0.00298743, "n": 2}, {"scriptPubKey": {"reqSigs": 1, "hex": "a9140cd61f041d7ebe1ebb71c5ca9e9293e8dbe3b72f87", "addresses": ["32rtYF8jL4RAfm1sCW8LDj2TcfKGvdVQW6"], "asm": "OP_HASH160 0cd61f041d7ebe1ebb71c5ca9e9293e8dbe3b72f OP_EQUAL", "type": "scripthash"}, "value": 1.14422029, "n": 3}], "hex": "02000000023800082436450f123ba5d534fba2354809920e93a9db93df1d325de9254c631432000000fc0047304402203f1a499d301acad96403a6d95e44ccb59c23d7bb951cfbf593a3693565cc529d022060556810c6955850f427330ec6fae39126491577944bcb94c355728cd2f9f1c4014730440220125ebba91187fb309307d985fb1d8afe91177364dcc1b91701014f0333ae7e0902206ab28f61c03f4598ab92ee9531549d4bbc8bcf2d5939470e4a05e04b04d115ee014c69522103c6740d4775ffd71a0c76a4ff893eea88a01cd1c9b60be85fe5d58d5a1b196f37210268a11e8bb60e4e167e402bad19f793381701b676d31898a01167a2bf5b71c38b21026aaac0b3861b1bb8fe6f1f228529f8cf0392b2695020a765225dad3033096de153aeffffffff9bb0ebecac5d0444006033e4f01dc01a7a7856555779e5b0b78bd53c4f16b2ef01000000fdfd0000483045022100ba0c3064c96c14899eb0882a2c0f02bab40ef1ba71564e9d069c4e262c189b4d02201f8d0c6ce5a2e1be99f130cbf26acd36c4122e173a1a85a4791252bfd4ba201c01473044022004d805ea591a3699fcbaabad9bfee64c25370cf09cfba106f96a6f4305d98e27022045aa6b98c0941cbbdcd3a791d6b3029cc5fb478a4dc16d5b7a130aef10f20e91014c695221039e0abf50a436bb0064fac4f0ba837e1c74fe75ab62b40823396fd78c3153800d210308436073d12a50dd9e86260bb2abf2c1dbbcc66da793cc2f290ff19bd88c5d6721029538f15f191e5d91c15d3aaa5e62324dff563da66a1070290ff0b89e1178564453aeffffffff0473cf0500000000001976a914bb0fe151f05ae26642e57ba4274f43f0520780a388ac426b9c000000000017a9142c2043e0e1881e3f23a0307b88cfc3c6856c4bcc87f78e0400000000001976a914cbb2f5b2ebc041cd49be19d1ddbe2a05e9e0e02988ac0df1d1060000000017a9140cd61f041d7ebe1ebb71c5ca9e9293e8dbe3b72f8700000000", "vin": [{"sequence": 4294967295, "scriptSig": {"hex": "0047304402203f1a499d301acad96403a6d95e44ccb59c23d7bb951cfbf593a3693565cc529d022060556810c6955850f427330ec6fae39126491577944bcb94c355728cd2f9f1c4014730440220125ebba91187fb309307d985fb1d8afe91177364dcc1b91701014f0333ae7e0902206ab28f61c03f4598ab92ee9531549d4bbc8bcf2d5939470e4a05e04b04d115ee014c69522103c6740d4775ffd71a0c76a4ff893eea88a01cd1c9b60be85fe5d58d5a1b196f37210268a11e8bb60e4e167e402bad19f793381701b676d31898a01167a2bf5b71c38b21026aaac0b3861b1bb8fe6f1f228529f8cf0392b2695020a765225dad3033096de153ae", "asm": "0 304402203f1a499d301acad96403a6d95e44ccb59c23d7bb951cfbf593a3693565cc529d022060556810c6955850f427330ec6fae39126491577944bcb94c355728cd2f9f1c4[ALL] 30440220125ebba91187fb309307d985fb1d8afe91177364dcc1b91701014f0333ae7e0902206ab28f61c03f4598ab92ee9531549d4bbc8bcf2d5939470e4a05e04b04d115ee[ALL] 522103c6740d4775ffd71a0c76a4ff893eea88a01cd1c9b60be85fe5d58d5a1b196f37210268a11e8bb60e4e167e402bad19f793381701b676d31898a01167a2bf5b71c38b21026aaac0b3861b1bb8fe6f1f228529f8cf0392b2695020a765225dad3033096de153ae"}, "vout": 50, "txid": "14634c25e95d321ddf93dba9930e92094835a2fb34d5a53b120f453624080038"}, {"sequence": 4294967295, "scriptSig": {"hex": "00483045022100ba0c3064c96c14899eb0882a2c0f02bab40ef1ba71564e9d069c4e262c189b4d02201f8d0c6ce5a2e1be99f130cbf26acd36c4122e173a1a85a4791252bfd4ba201c01473044022004d805ea591a3699fcbaabad9bfee64c25370cf09cfba106f96a6f4305d98e27022045aa6b98c0941cbbdcd3a791d6b3029cc5fb478a4dc16d5b7a130aef10f20e91014c695221039e0abf50a436bb0064fac4f0ba837e1c74fe75ab62b40823396fd78c3153800d210308436073d12a50dd9e86260bb2abf2c1dbbcc66da793cc2f290ff19bd88c5d6721029538f15f191e5d91c15d3aaa5e62324dff563da66a1070290ff0b89e1178564453ae", "asm": "0 3045022100ba0c3064c96c14899eb0882a2c0f02bab40ef1ba71564e9d069c4e262c189b4d02201f8d0c6ce5a2e1be99f130cbf26acd36c4122e173a1a85a4791252bfd4ba201c[ALL] 3044022004d805ea591a3699fcbaabad9bfee64c25370cf09cfba106f96a6f4305d98e27022045aa6b98c0941cbbdcd3a791d6b3029cc5fb478a4dc16d5b7a130aef10f20e91[ALL] 5221039e0abf50a436bb0064fac4f0ba837e1c74fe75ab62b40823396fd78c3153800d210308436073d12a50dd9e86260bb2abf2c1dbbcc66da793cc2f290ff19bd88c5d6721029538f15f191e5d91c15d3aaa5e62324dff563da66a1070290ff0b89e1178564453ae"}, "vout": 1, "txid": "efb2164f3cd58bb7b0e579575556787a1ac01df0e433600044045dacecebb09b"}], "txid": "bc3630d125b3341ed90221267b56706c77bf248ebabe5b93e8e47274c6d1b194", "blocktime": 1537876114, "version": 2, "confirmations": 11460, "time": 1537876114, "locktime": 0, "vsize": 731, "size": 731}