{"hash": "bc3caaf08cf500a46f05464c746ba3e0bd3b50e3d74736f4d48d12d04f400b3a", "blockhash": "00000000000000000018f53835495a110e01622372bf6ae95dc86f2b0ab887b0", "vout": [{"scriptPubKey": {"reqSigs": 1, "hex": "76a9146301f547fd0272b2a529c5ee7db8258cd9f261b488ac", "addresses": ["1A2WF3aXTJR9bR3a1rzijyyQX4FHGzndZa"], "asm": "OP_DUP OP_HASH160 6301f547fd0272b2a529c5ee7db8258cd9f261b4 OP_EQUALVERIFY OP_CHECKSIG", "type": "pubkeyhash"}, "value": 0.0031222, "n": 0}, {"scriptPubKey": {"reqSigs": 1, "hex": "76a914872a633e22fae2e94f23be92e1624b66395e2fed88ac", "addresses": ["1DKh13YTR14JTV4KL73ocfE6AiVs3kEj5u"], "asm": "OP_DUP OP_HASH160 872a633e22fae2e94f23be92e1624b66395e2fed OP_EQUALVERIFY OP_CHECKSIG", "type": "pubkeyhash"}, "value": 0.17108463, "n": 1}], "hex": "010000000141e2c3ffaa57832d02954979da409ad52052504396d2806389e026d8bd615f9e010000006b48304502210087b4afe45ed930d66fce778b54c7112654035611b5d3ab55e668e58e4c310ae902202e622f3e3d4e2fb652abb7f1d65b76df29baff73b37c3d321e94cd59c6008047012102c915b159ef2b3ac4dbf5c56bea0784d20217cbad2502684711fad288808fbb0fffffffff029cc30400000000001976a9146301f547fd0272b2a529c5ee7db8258cd9f261b488acef0d0501000000001976a914872a633e22fae2e94f23be92e1624b66395e2fed88ac00000000", "vin": [{"sequence": 4294967295, "scriptSig": {"hex": "48304502210087b4afe45ed930d66fce778b54c7112654035611b5d3ab55e668e58e4c310ae902202e622f3e3d4e2fb652abb7f1d65b76df29baff73b37c3d321e94cd59c6008047012102c915b159ef2b3ac4dbf5c56bea0784d20217cbad2502684711fad288808fbb0f", "asm": "304502210087b4afe45ed930d66fce778b54c7112654035611b5d3ab55e668e58e4c310ae902202e622f3e3d4e2fb652abb7f1d65b76df29baff73b37c3d321e94cd59c6008047[ALL] 02c915b159ef2b3ac4dbf5c56bea0784d20217cbad2502684711fad288808fbb0f"}, "vout": 1, "txid": "9e5f61bdd826e0896380d29643505220d59a40da794995022d8357aaffc3e241"}], "txid": "bc3caaf08cf500a46f05464c746ba3e0bd3b50e3d74736f4d48d12d04f400b3a", "blocktime": 1537870928, "version": 1, "confirmations": 11514, "time": 1537870928, "locktime": 0, "vsize": 226, "size": 226}