{"hash": "b040ef0673733be05149be45869ae92def1e30138ade6fc7f3753ae2a2ab7539", "blockhash": "0000000000000000001cda96e906b7601b7a6fb1a3b62bca570a9e5d8f4b3de1", "vout": [{"scriptPubKey": {"reqSigs": 1, "hex": "76a9149c8141e2e88a12be41aa848eb0625310cf1212e788ac", "addresses": ["1FGXFtL1n1jEF1Qtkp3F2VouAqc4TxeUrE"], "asm": "OP_DUP OP_HASH160 9c8141e2e88a12be41aa848eb0625310cf1212e7 OP_EQUALVERIFY OP_CHECKSIG", "type": "pubkeyhash"}, "value": 0.0079, "n": 0}, {"scriptPubKey": {"reqSigs": 1, "hex": "a91455fdb285a7e2a454d5be58fe823ecbdaf815301a87", "addresses": ["39XhH3sinifQ2kyL2Zfqv4kwRNaaru8RsE"], "asm": "OP_HASH160 55fdb285a7e2a454d5be58fe823ecbdaf815301a OP_EQUAL", "type": "scripthash"}, "value": 0.00999767, "n": 1}], "hex": "020000000001019bb6f3102cb30a3040542593fa4df01e618f5e7ae0e9da1faf8248757a17d0fa0400000017160014b135b13e3f02362cd5c08d0454554c765e02aea5feffffff02f00d0c00000000001976a9149c8141e2e88a12be41aa848eb0625310cf1212e788ac57410f000000000017a91455fdb285a7e2a454d5be58fe823ecbdaf815301a8702473044022037201290bfe827bd058e6db87e3a3dc48ff2524a9574b7aafd99f7cef8326a760220262bb5f9090f146782b7eab4e98c5cc51d3070cf3c069b89aaf20ee8072dbd050121035a82f0634cae2326abbe0b994e6c0709d87da15163fd850706f35ca616f4585913490800", "vin": [{"txinwitness": ["3044022037201290bfe827bd058e6db87e3a3dc48ff2524a9574b7aafd99f7cef8326a760220262bb5f9090f146782b7eab4e98c5cc51d3070cf3c069b89aaf20ee8072dbd0501", "035a82f0634cae2326abbe0b994e6c0709d87da15163fd850706f35ca616f45859"], "sequence": 4294967294, "scriptSig": {"hex": "160014b135b13e3f02362cd5c08d0454554c765e02aea5", "asm": "0014b135b13e3f02362cd5c08d0454554c765e02aea5"}, "vout": 4, "txid": "fad0177a754882af1fdae9e07a5e8f611ef04dfa93255440300ab32c10f3b69b"}], "txid": "bc3dacc48e6d584865949e1b36f89d5744f86eab3b76b9e915d319a6594323b6", "blocktime": 1537873282, "version": 2, "confirmations": 11481, "time": 1537873282, "locktime": 542995, "vsize": 168, "size": 249}