{"hash": "bc40c006b6364b69aa48e37cc1eb6917b52302843b81b43b5d314fe42dab6692", "blockhash": "0000000000000000000baef3f32e3676a92c3b2e5da21b426e4f302fc371ce76", "vout": [{"scriptPubKey": {"reqSigs": 1, "hex": "76a9143b2b959dbe8a237b22bad044000b5b64a5cf4d9588ac", "addresses": ["16Ps5cqTZPw8k55bwGcdsPzemWHW1JdJjT"], "asm": "OP_DUP OP_HASH160 3b2b959dbe8a237b22bad044000b5b64a5cf4d95 OP_EQUALVERIFY OP_CHECKSIG", "type": "pubkeyhash"}, "value": 0.000733, "n": 0}, {"scriptPubKey": {"type": "nulldata", "hex": "6a4c500000780f0001cadb011974be18250fff683e702940d64fa54d8eb2d19ed074892d00f8e818cb3efb7ddcc43ac3e4b5401afb02785baa1b6506143df9d84da2ddbc9a9526289ac0f6612cd74e33776ee4", "asm": "OP_RETURN 0000780f0001cadb011974be18250fff683e702940d64fa54d8eb2d19ed074892d00f8e818cb3efb7ddcc43ac3e4b5401afb02785baa1b6506143df9d84da2ddbc9a9526289ac0f6612cd74e33776ee4"}, "value": 0.0, "n": 1}], "hex": "0100000001bc095521394dea0177186c0ac7cde217be0154d1da3af09ba8e50c4e1d98540a000000006a47304402204652076d4cad1a68621e7f3bb3d6b3afd6ae257096a453cf9655c97f098b66d402201731973ff57626be335f05aa1cbb9a7f49f3bc564bc016a36b03222c0e9df6090121020edaa4221f66d01a9af31d38a30cb2e38f6bdcf1b53cee155805df5b318082c5ffffffff02541e0100000000001976a9143b2b959dbe8a237b22bad044000b5b64a5cf4d9588ac0000000000000000536a4c500000780f0001cadb011974be18250fff683e702940d64fa54d8eb2d19ed074892d00f8e818cb3efb7ddcc43ac3e4b5401afb02785baa1b6506143df9d84da2ddbc9a9526289ac0f6612cd74e33776ee400000000", "vin": [{"sequence": 4294967295, "scriptSig": {"hex": "47304402204652076d4cad1a68621e7f3bb3d6b3afd6ae257096a453cf9655c97f098b66d402201731973ff57626be335f05aa1cbb9a7f49f3bc564bc016a36b03222c0e9df6090121020edaa4221f66d01a9af31d38a30cb2e38f6bdcf1b53cee155805df5b318082c5", "asm": "304402204652076d4cad1a68621e7f3bb3d6b3afd6ae257096a453cf9655c97f098b66d402201731973ff57626be335f05aa1cbb9a7f49f3bc564bc016a36b03222c0e9df609[ALL] 020edaa4221f66d01a9af31d38a30cb2e38f6bdcf1b53cee155805df5b318082c5"}, "vout": 0, "txid": "0a54981d4e0ce5a89bf03adad15401be17e2cdc70a6c187701ea4d39215509bc"}], "txid": "bc40c006b6364b69aa48e37cc1eb6917b52302843b81b43b5d314fe42dab6692", "blocktime": 1537876114, "version": 1, "confirmations": 11460, "time": 1537876114, "locktime": 0, "vsize": 283, "size": 283}