{"hash": "bc4da4268387d2f284582e3ccdd6549831fa7fdc50553f3edea296126f76b9b7", "blockhash": "0000000000000000001e0dab787dd257d1dbfcb92a98c2207d5e1078be1f4165", "vout": [{"scriptPubKey": {"reqSigs": 1, "hex": "76a914fd402b38bc65bcde3b9f052893965a9dc164753788ac", "addresses": ["1Q64q4bAEvZAR4jqZ9H4qtKivtSauTZfHi"], "asm": "OP_DUP OP_HASH160 fd402b38bc65bcde3b9f052893965a9dc1647537 OP_EQUALVERIFY OP_CHECKSIG", "type": "pubkeyhash"}, "value": 0.01135478, "n": 0}, {"scriptPubKey": {"reqSigs": 1, "hex": "76a9141d4115e36061f2108d07141e588a5b7e88b0733688ac", "addresses": ["13fgZnQrcGjqeQxAPSEnf7CXE2vb19kBjq"], "asm": "OP_DUP OP_HASH160 1d4115e36061f2108d07141e588a5b7e88b07336 OP_EQUALVERIFY OP_CHECKSIG", "type": "pubkeyhash"}, "value": 0.0142542, "n": 1}], "hex": "01000000025ac69cfe622eba5198334c72d8ab520092e9df4dcca78a5943413eb7e4169a60000000006a473044022060110941f07477574153c2f62e3b007caf9f6526459b174353bf64aa3030fadb02202eeeb36e52f10578fcc2c28bd45d8bcd11f0ea80c09b38821514d3a0f835b45c012102030de100de23a91046cae79fe509a3a7a4b7e77577e3932eacdc15c57eaf79ecffffffffa7f896803926c7e4eacdac1d2e2285d30d18b2d7051a443c86f553054ca621ad010000006a47304402207acee09118b17c30db5b808527313e9de49777a7f2d573cae1b711a6a628bff9022045ef22116329984e06f34f3179f09f2e0e9c35432dac3067966195625abc3675012102fb2b184c8279ebd11731b1fc5342f29b2b73389098e2e54358226ddad9e69a74ffffffff0276531100000000001976a914fd402b38bc65bcde3b9f052893965a9dc164753788ac0cc01500000000001976a9141d4115e36061f2108d07141e588a5b7e88b0733688ac00000000", "vin": [{"sequence": 4294967295, "scriptSig": {"hex": "473044022060110941f07477574153c2f62e3b007caf9f6526459b174353bf64aa3030fadb02202eeeb36e52f10578fcc2c28bd45d8bcd11f0ea80c09b38821514d3a0f835b45c012102030de100de23a91046cae79fe509a3a7a4b7e77577e3932eacdc15c57eaf79ec", "asm": "3044022060110941f07477574153c2f62e3b007caf9f6526459b174353bf64aa3030fadb02202eeeb36e52f10578fcc2c28bd45d8bcd11f0ea80c09b38821514d3a0f835b45c[ALL] 02030de100de23a91046cae79fe509a3a7a4b7e77577e3932eacdc15c57eaf79ec"}, "vout": 0, "txid": "609a16e4b73e4143598aa7cc4ddfe9920052abd8724c339851ba2e62fe9cc65a"}, {"sequence": 4294967295, "scriptSig": {"hex": "47304402207acee09118b17c30db5b808527313e9de49777a7f2d573cae1b711a6a628bff9022045ef22116329984e06f34f3179f09f2e0e9c35432dac3067966195625abc3675012102fb2b184c8279ebd11731b1fc5342f29b2b73389098e2e54358226ddad9e69a74", "asm": "304402207acee09118b17c30db5b808527313e9de49777a7f2d573cae1b711a6a628bff9022045ef22116329984e06f34f3179f09f2e0e9c35432dac3067966195625abc3675[ALL] 02fb2b184c8279ebd11731b1fc5342f29b2b73389098e2e54358226ddad9e69a74"}, "vout": 1, "txid": "ad21a64c0553f5863c441a05d7b2180dd385222e1daccdeae4c726398096f8a7"}], "txid": "bc4da4268387d2f284582e3ccdd6549831fa7fdc50553f3edea296126f76b9b7", "blocktime": 1537872475, "version": 1, "confirmations": 11487, "time": 1537872475, "locktime": 0, "vsize": 372, "size": 372}