{"hash": "bc51dffcee88331bd9fd352383c1af285208d35409ed63c78571165b4c6e4898", "blockhash": "0000000000000000001f76057863aec43deb6fa401d9628bb513d65a8098bfab", "vout": [{"scriptPubKey": {"reqSigs": 1, "hex": "76a9140c0193bf035e7526872c03fe7c08bcaff6bff4b388ac", "addresses": ["126UztDo1UmRpwzDqLhD6A7WXwsH88Cr4R"], "asm": "OP_DUP OP_HASH160 0c0193bf035e7526872c03fe7c08bcaff6bff4b3 OP_EQUALVERIFY OP_CHECKSIG", "type": "pubkeyhash"}, "value": 0.00636916, "n": 0}, {"scriptPubKey": {"type": "nulldata", "hex": "6a4c50000077e80001912da39f4f4c673455843b127af8e8e963c7cfd5b95b23cc0f42c2fc38c569abffa9752e2910119b4c67613794bd5baa177f0612a102324977df1d100759d4ba30d2c37bb011d97e02cf", "asm": "OP_RETURN 000077e80001912da39f4f4c673455843b127af8e8e963c7cfd5b95b23cc0f42c2fc38c569abffa9752e2910119b4c67613794bd5baa177f0612a102324977df1d100759d4ba30d2c37bb011d97e02cf"}, "value": 0.0, "n": 1}], "hex": "0100000001eb7cf235e4a7b87d3e6479e91fe115e204eda1650da8c988bbdf527bc33d1a4b000000006a4730440220461ec30b67c664062bbd4db0881a967ca7fdc2ea7162f77d3030b9593b97fa7102203120fa8ebd81f74dcc2e646e76b3ff7ba8199f97ed476d493812020b6fec84050121037ab95fe38c4c7f0ba89c8c5007ba0eeeb1863838781eefc93b16fa31a1bb8058ffffffff02f4b70900000000001976a9140c0193bf035e7526872c03fe7c08bcaff6bff4b388ac0000000000000000536a4c50000077e80001912da39f4f4c673455843b127af8e8e963c7cfd5b95b23cc0f42c2fc38c569abffa9752e2910119b4c67613794bd5baa177f0612a102324977df1d100759d4ba30d2c37bb011d97e02cf00000000", "vin": [{"sequence": 4294967295, "scriptSig": {"hex": "4730440220461ec30b67c664062bbd4db0881a967ca7fdc2ea7162f77d3030b9593b97fa7102203120fa8ebd81f74dcc2e646e76b3ff7ba8199f97ed476d493812020b6fec84050121037ab95fe38c4c7f0ba89c8c5007ba0eeeb1863838781eefc93b16fa31a1bb8058", "asm": "30440220461ec30b67c664062bbd4db0881a967ca7fdc2ea7162f77d3030b9593b97fa7102203120fa8ebd81f74dcc2e646e76b3ff7ba8199f97ed476d493812020b6fec8405[ALL] 037ab95fe38c4c7f0ba89c8c5007ba0eeeb1863838781eefc93b16fa31a1bb8058"}, "vout": 0, "txid": "4b1a3dc37b52dfbb88c9a80d65a1ed04e215e11fe979643e7db8a7e435f27ceb"}], "txid": "bc51dffcee88331bd9fd352383c1af285208d35409ed63c78571165b4c6e4898", "blocktime": 1537873891, "version": 1, "confirmations": 11478, "time": 1537873891, "locktime": 0, "vsize": 283, "size": 283}