{"hash": "bc5272b0142bdeccc62345368ea596d612fd8d68cd2a2b4a0eb1136d6fa89c49", "blockhash": "00000000000000000024a2167bbff67b0be802c0b01cdd79e6331c2be6459f87", "vout": [{"scriptPubKey": {"reqSigs": 1, "hex": "a914d5645bd79637e954ec328d931a76bfefceca72d987", "addresses": ["3M9L5TCA1iid4MYBwedhr7adREEowJq1bm"], "asm": "OP_HASH160 d5645bd79637e954ec328d931a76bfefceca72d9 OP_EQUAL", "type": "scripthash"}, "value": 0.00090584, "n": 0}, {"scriptPubKey": {"reqSigs": 1, "hex": "76a91414a5ad03387e5476d43ca9ca1db46101e051e49d88ac", "addresses": ["12tAzCKMf4Q5bgmVfyd2neoWik9Z2Cgh6D"], "asm": "OP_DUP OP_HASH160 14a5ad03387e5476d43ca9ca1db46101e051e49d OP_EQUALVERIFY OP_CHECKSIG", "type": "pubkeyhash"}, "value": 0.00392049, "n": 1}], "hex": "01000000017401d06420d6a2e58454344ec8803f15b69f75efeaa0df6cc3f8b5834faf9338000000006b483045022100fe86930bb6c90dcad24202a47fbb37099387f245c390d2b07676d4e72cefa19302205af47ce6c7e9ae01d8491dcf8d595a8959ba85c5a9cdd22fb7c92b87856d773f01210305f1713b653c9d170ac0baa7e159d79b7188e86558b8a83bff0d04b2c7406960ffffffff02d86101000000000017a914d5645bd79637e954ec328d931a76bfefceca72d98771fb0500000000001976a91414a5ad03387e5476d43ca9ca1db46101e051e49d88ac00000000", "vin": [{"sequence": 4294967295, "scriptSig": {"hex": "483045022100fe86930bb6c90dcad24202a47fbb37099387f245c390d2b07676d4e72cefa19302205af47ce6c7e9ae01d8491dcf8d595a8959ba85c5a9cdd22fb7c92b87856d773f01210305f1713b653c9d170ac0baa7e159d79b7188e86558b8a83bff0d04b2c7406960", "asm": "3045022100fe86930bb6c90dcad24202a47fbb37099387f245c390d2b07676d4e72cefa19302205af47ce6c7e9ae01d8491dcf8d595a8959ba85c5a9cdd22fb7c92b87856d773f[ALL] 0305f1713b653c9d170ac0baa7e159d79b7188e86558b8a83bff0d04b2c7406960"}, "vout": 0, "txid": "3893af4f83b5f8c36cdfa0eaef759fb6153f80c84e345484e5a2d62064d00174"}], "txid": "bc5272b0142bdeccc62345368ea596d612fd8d68cd2a2b4a0eb1136d6fa89c49", "blocktime": 1537870564, "version": 1, "confirmations": 11515, "time": 1537870564, "locktime": 0, "vsize": 224, "size": 224}