{"hash": "d63fff8757c8a1ab2c8791d7566fa7457e74e2b5daf7288d518c399d81deba4b", "blockhash": "00000000000000000024a2167bbff67b0be802c0b01cdd79e6331c2be6459f87", "vout": [{"scriptPubKey": {"reqSigs": 1, "hex": "a9145dbaba921f3f0787d860a7589049cff4b7449b5e87", "addresses": ["3AEcTXa9qyemhBPSUZBe4VYxVT98wMoE5N"], "asm": "OP_HASH160 5dbaba921f3f0787d860a7589049cff4b7449b5e OP_EQUAL", "type": "scripthash"}, "value": 2.14070644, "n": 0}, {"scriptPubKey": {"reqSigs": 1, "hex": "a914b87a0966f7587e5f8d8b697fd3eda57e414d8fed87", "addresses": ["3JWST6p6A4d1asjG8q13W1E8gjQMVUshg6"], "asm": "OP_HASH160 b87a0966f7587e5f8d8b697fd3eda57e414d8fed OP_EQUAL", "type": "scripthash"}, "value": 0.11926002, "n": 1}], "hex": "02000000000101aa2ca65e222537eac9796eb19dba98788e9cb221c25b5653f37740242a0b09770100000017160014d1fa1c77f4b37bbcd13937fb016c9a5c9972dd74feffffff027475c20c0000000017a9145dbaba921f3f0787d860a7589049cff4b7449b5e87f2f9b5000000000017a914b87a0966f7587e5f8d8b697fd3eda57e414d8fed8702473044022073d2de9324b610b4203d4e20538f87c24b7e584d73d37cae791f3d2cdc64cab402204b044fcbd68e47d4e7b603ad495faabd1eb89b638a64c9a2e12923ed3d893fed012102e795ab1ef5291490695e9134d843482559208d2c1db9d73a9fa58a33a0c4a8030d490800", "vin": [{"txinwitness": ["3044022073d2de9324b610b4203d4e20538f87c24b7e584d73d37cae791f3d2cdc64cab402204b044fcbd68e47d4e7b603ad495faabd1eb89b638a64c9a2e12923ed3d893fed01", "02e795ab1ef5291490695e9134d843482559208d2c1db9d73a9fa58a33a0c4a803"], "sequence": 4294967294, "scriptSig": {"hex": "160014d1fa1c77f4b37bbcd13937fb016c9a5c9972dd74", "asm": "0014d1fa1c77f4b37bbcd13937fb016c9a5c9972dd74"}, "vout": 1, "txid": "77090b2a244077f353565bc221b29c8e7898ba9db16e79c9ea3725225ea62caa"}], "txid": "bc53c7dca677e19652bc953c286fddc39ace6900c57cfc0d36577308369889bd", "blocktime": 1537870564, "version": 2, "confirmations": 11515, "time": 1537870564, "locktime": 542989, "vsize": 166, "size": 247}