{"hash": "bc59f9d70d19b5668bfee761b88659eeecec07170662abea9e60ba258d78bb97", "blockhash": "0000000000000000001f76057863aec43deb6fa401d9628bb513d65a8098bfab", "vout": [{"scriptPubKey": {"reqSigs": 1, "hex": "76a914c32f1eabf64fc530c118b418ab915e42c336178288ac", "addresses": ["1Jo3DMETCrK4mHf1A3A7k7CwCS9dSr9trH"], "asm": "OP_DUP OP_HASH160 c32f1eabf64fc530c118b418ab915e42c3361782 OP_EQUALVERIFY OP_CHECKSIG", "type": "pubkeyhash"}, "value": 0.00209339, "n": 0}, {"scriptPubKey": {"reqSigs": 1, "hex": "76a91484c540d043d2b713d123eb868d03572b1dca7d1788ac", "addresses": ["1D72ViLUVY389TKmX4NekXp95kJvXxJnFz"], "asm": "OP_DUP OP_HASH160 84c540d043d2b713d123eb868d03572b1dca7d17 OP_EQUALVERIFY OP_CHECKSIG", "type": "pubkeyhash"}, "value": 0.00296551, "n": 1}], "hex": "010000000125d3de868e8c0ee89f70a0298e2fff39dc23f982721113fe9ec33ef090b5c3a1010000006a473044022024dc76d4fbc90d3ab810a489a48c9f2f36237d68472338ef833ec636047b4ac90220297135f67ed80115d28e6da70000845469bfe3f83e0dd295158a0ac2c9075b7f01210373356a088054e56a2f34a21ef76ce7d292c3b25a75829112516997ef08d916a6ffffffff02bb310300000000001976a914c32f1eabf64fc530c118b418ab915e42c336178288ac67860400000000001976a91484c540d043d2b713d123eb868d03572b1dca7d1788ac00000000", "vin": [{"sequence": 4294967295, "scriptSig": {"hex": "473044022024dc76d4fbc90d3ab810a489a48c9f2f36237d68472338ef833ec636047b4ac90220297135f67ed80115d28e6da70000845469bfe3f83e0dd295158a0ac2c9075b7f01210373356a088054e56a2f34a21ef76ce7d292c3b25a75829112516997ef08d916a6", "asm": "3044022024dc76d4fbc90d3ab810a489a48c9f2f36237d68472338ef833ec636047b4ac90220297135f67ed80115d28e6da70000845469bfe3f83e0dd295158a0ac2c9075b7f[ALL] 0373356a088054e56a2f34a21ef76ce7d292c3b25a75829112516997ef08d916a6"}, "vout": 1, "txid": "a1c3b590f03ec39efe13117282f923dc39ff2f8e29a0709fe80e8c8e86ded325"}], "txid": "bc59f9d70d19b5668bfee761b88659eeecec07170662abea9e60ba258d78bb97", "blocktime": 1537873891, "version": 1, "confirmations": 11478, "time": 1537873891, "locktime": 0, "vsize": 225, "size": 225}