{"hash": "14c9f0336ba08dbcf085766bcc3c2e789d794bb5b44ab953fffdc2ba3367f4bc", "blockhash": "0000000000000000001e0dab787dd257d1dbfcb92a98c2207d5e1078be1f4165", "vout": [{"scriptPubKey": {"reqSigs": 1, "hex": "a9148c841c4a8ed904f4502999a2366bb0f6a5b66c5287", "addresses": ["3EVznbiUwx1QBYWxWmLzU65h8cqvTowLEG"], "asm": "OP_HASH160 8c841c4a8ed904f4502999a2366bb0f6a5b66c52 OP_EQUAL", "type": "scripthash"}, "value": 0.00419377, "n": 0}, {"scriptPubKey": {"reqSigs": 1, "hex": "0014f1fc4b82a82529a4a2fae979589cad172984c524", "addresses": ["bc1q787yhq4gy556fgh6a9u4389dzu5cf3fy3z9fe0"], "asm": "0 f1fc4b82a82529a4a2fae979589cad172984c524", "type": "witness_v0_keyhash"}, "value": 2.501e-05, "n": 1}], "hex": "01000000000101de5ff76c2e070e77e403193e448cd58f844cbb622abf551b181630024a3ab2360000000017160014e0c969ed629936c9a839d9b33c21fa76ba1344c3ffffffff02316606000000000017a9148c841c4a8ed904f4502999a2366bb0f6a5b66c5287c509000000000000160014f1fc4b82a82529a4a2fae979589cad172984c52402473044022019fcfaa4471aed7b9883a950ee26f4ce030ce6eefc28de207cfd9ff7157f8dec02204f6a67a0a02dde8554a0d0b3e64db6d61452e25f765fd2ad4beb4ccff0a1bb6a01210376f9b93ac1c05df265f996bad352b484531478552f8b8e7273868e60e1f6dbb000000000", "vin": [{"txinwitness": ["3044022019fcfaa4471aed7b9883a950ee26f4ce030ce6eefc28de207cfd9ff7157f8dec02204f6a67a0a02dde8554a0d0b3e64db6d61452e25f765fd2ad4beb4ccff0a1bb6a01", "0376f9b93ac1c05df265f996bad352b484531478552f8b8e7273868e60e1f6dbb0"], "sequence": 4294967295, "scriptSig": {"hex": "160014e0c969ed629936c9a839d9b33c21fa76ba1344c3", "asm": "0014e0c969ed629936c9a839d9b33c21fa76ba1344c3"}, "vout": 0, "txid": "36b23a4a023016181b55bf2a62bb4c848fd58c443e1903e4770e072e6cf75fde"}], "txid": "bc5f49d995ff086a6e6952ffaa17b3e1f48f993eeafac1d42b9508565871d83b", "blocktime": 1537872475, "version": 1, "confirmations": 11486, "time": 1537872475, "locktime": 0, "vsize": 165, "size": 246}