{"hash": "bc65284b0e80705e5b9a62551c46b13a5207afe855655c5182b92f1b9afe8930", "blockhash": "0000000000000000000baef3f32e3676a92c3b2e5da21b426e4f302fc371ce76", "vout": [{"scriptPubKey": {"reqSigs": 1, "hex": "76a914df45a9ac5ce35a98795d149a43cccc4d0f2c4fcb88ac", "addresses": ["1MMZ92wTnJTxnbRRxfmfv7cceWjk9D25gh"], "asm": "OP_DUP OP_HASH160 df45a9ac5ce35a98795d149a43cccc4d0f2c4fcb OP_EQUALVERIFY OP_CHECKSIG", "type": "pubkeyhash"}, "value": 1.1679904, "n": 0}], "hex": "01000000014e7a937ce93b6b27fb471852cdfcb72c5ec1e3942939757d536f14ef35195328020000006a473044022008e3be79d286d132a8b00178b63cd0b80b1c8545aef2967e7089bdea6c37e92b02205851be6d93f2d6e88ecbd61584038feaf9e809094238fab1224066ce895a5ed8012102df7a9234f2208b1aa26d41bc54fba4177155972cc347bb9d723c384c0ecfa534feffffff014036f606000000001976a914df45a9ac5ce35a98795d149a43cccc4d0f2c4fcb88ac00000000", "vin": [{"sequence": 4294967294, "scriptSig": {"hex": "473044022008e3be79d286d132a8b00178b63cd0b80b1c8545aef2967e7089bdea6c37e92b02205851be6d93f2d6e88ecbd61584038feaf9e809094238fab1224066ce895a5ed8012102df7a9234f2208b1aa26d41bc54fba4177155972cc347bb9d723c384c0ecfa534", "asm": "3044022008e3be79d286d132a8b00178b63cd0b80b1c8545aef2967e7089bdea6c37e92b02205851be6d93f2d6e88ecbd61584038feaf9e809094238fab1224066ce895a5ed8[ALL] 02df7a9234f2208b1aa26d41bc54fba4177155972cc347bb9d723c384c0ecfa534"}, "vout": 2, "txid": "28531935ef146f537d75392994e3c15e2cb7fccd521847fb276b3be97c937a4e"}], "txid": "bc65284b0e80705e5b9a62551c46b13a5207afe855655c5182b92f1b9afe8930", "blocktime": 1537876114, "version": 1, "confirmations": 11460, "time": 1537876114, "locktime": 0, "vsize": 191, "size": 191}