{"hash": "bc6c801af67fd1f882ee3109d5465c25fac76af6a435709aa737bd307d0ce1a8", "blockhash": "00000000000000000017f5eb5941039fbcee6240d03bc1f2f8e35350df66a1d8", "vout": [{"scriptPubKey": {"reqSigs": 1, "hex": "a9144683ee66a7a48cb318a1fb440ff8091c0282bb6c87", "addresses": ["387sGiVEmKr3KHJqcvyM2U4D2aMzsjh4Qz"], "asm": "OP_HASH160 4683ee66a7a48cb318a1fb440ff8091c0282bb6c OP_EQUAL", "type": "scripthash"}, "value": 0.08523194, "n": 0}, {"scriptPubKey": {"reqSigs": 1, "hex": "76a914a0c8e591df17b98f5c8df81c78e2d8c6295fceb188ac", "addresses": ["1Ff9nFAgjShrSnyX1LZZDDVsWDxRZ3UDhE"], "asm": "OP_DUP OP_HASH160 a0c8e591df17b98f5c8df81c78e2d8c6295fceb1 OP_EQUALVERIFY OP_CHECKSIG", "type": "pubkeyhash"}, "value": 0.00439482, "n": 1}], "hex": "01000000015296c364f0979f839fd1c33360cd7b4ec2a920b885cf809698a55ccbc0afd9e5000000006a473044022055b65ddcd47869b07f687f795862191a0f114f342595d4cb7fa87bb56e32f13c0220658b95aad7bbc3ebe4212be492ea6b77987784aa4cd3b99d98fda7141736bc6d012103d8ba8c7d7456f4aeb45564268c9c9a70d495278adabf7ba25d087af2f5d8c078ffffffff02ba0d82000000000017a9144683ee66a7a48cb318a1fb440ff8091c0282bb6c87bab40600000000001976a914a0c8e591df17b98f5c8df81c78e2d8c6295fceb188ac00000000", "vin": [{"sequence": 4294967295, "scriptSig": {"hex": "473044022055b65ddcd47869b07f687f795862191a0f114f342595d4cb7fa87bb56e32f13c0220658b95aad7bbc3ebe4212be492ea6b77987784aa4cd3b99d98fda7141736bc6d012103d8ba8c7d7456f4aeb45564268c9c9a70d495278adabf7ba25d087af2f5d8c078", "asm": "3044022055b65ddcd47869b07f687f795862191a0f114f342595d4cb7fa87bb56e32f13c0220658b95aad7bbc3ebe4212be492ea6b77987784aa4cd3b99d98fda7141736bc6d[ALL] 03d8ba8c7d7456f4aeb45564268c9c9a70d495278adabf7ba25d087af2f5d8c078"}, "vout": 0, "txid": "e5d9afc0cb5ca5989680cf85b820a9c24e7bcd6033c3d19f839f97f064c39652"}], "txid": "bc6c801af67fd1f882ee3109d5465c25fac76af6a435709aa737bd307d0ce1a8", "blocktime": 1537874412, "version": 1, "confirmations": 11467, "time": 1537874412, "locktime": 0, "vsize": 223, "size": 223}