{"hash": "bc7507e5c6a16235b376248cd9ccae66411fc1355d4debe26f8f3bdb8d4609c2", "blockhash": "0000000000000000001f0ddff1eddb255c1121bcd4da4f1bc9a0da00cae72433", "vout": [{"scriptPubKey": {"reqSigs": 1, "hex": "76a9146460b5a9bd83f64dfd325ff76642207213850bc788ac", "addresses": ["1A9kRgkSzC4rSVE3AMNvJz9GYL2QUpTM5B"], "asm": "OP_DUP OP_HASH160 6460b5a9bd83f64dfd325ff76642207213850bc7 OP_EQUALVERIFY OP_CHECKSIG", "type": "pubkeyhash"}, "value": 0.00030245, "n": 0}, {"scriptPubKey": {"reqSigs": 1, "hex": "76a914df0a0b0f53474ef5ccbda8cde875e9bc925dfe4788ac", "addresses": ["1MLKibLwLWn7x2rXdgqAAuPq7pWvYtGwFL"], "asm": "OP_DUP OP_HASH160 df0a0b0f53474ef5ccbda8cde875e9bc925dfe47 OP_EQUALVERIFY OP_CHECKSIG", "type": "pubkeyhash"}, "value": 0.03124575, "n": 1}], "hex": "010000000277e0cae86696d3eddb921d86307d3958e47c0b4e6d62ec5b7ead90c368820fd5010000006b4830450221008457bda2489c4397eb3532282f0a020cc7c56f9b2e2ec082ae6ee557d4905b78022008407038d5b6dd79cd21f512d75eae05fa6960b22aaf00171a237965a83a78ba0121037869c761d2311ebc7158654b5767de1ce77502ba12975815841fa790cf1e9f7dffffffff8283136ea2cdd447888c8e74346a8e7f89dcb04f2a8b9f7c8e27d2de5921ecdc000000006a47304402202ffc9a35e14b6814bd621dfbc3ad4336207950b582885ebf9538aa881c704bd50220098245478c345c0ce40b9e60bc9cba80b731c0ba7f148ecba12d6c0f6154bb7b01210338724bdbb6a1e1656e53b513021ab5d86b4e4bd940ad7fee4a19ee6961aaeab8ffffffff0225760000000000001976a9146460b5a9bd83f64dfd325ff76642207213850bc788ac5fad2f00000000001976a914df0a0b0f53474ef5ccbda8cde875e9bc925dfe4788ac00000000", "vin": [{"sequence": 4294967295, "scriptSig": {"hex": "4830450221008457bda2489c4397eb3532282f0a020cc7c56f9b2e2ec082ae6ee557d4905b78022008407038d5b6dd79cd21f512d75eae05fa6960b22aaf00171a237965a83a78ba0121037869c761d2311ebc7158654b5767de1ce77502ba12975815841fa790cf1e9f7d", "asm": "30450221008457bda2489c4397eb3532282f0a020cc7c56f9b2e2ec082ae6ee557d4905b78022008407038d5b6dd79cd21f512d75eae05fa6960b22aaf00171a237965a83a78ba[ALL] 037869c761d2311ebc7158654b5767de1ce77502ba12975815841fa790cf1e9f7d"}, "vout": 1, "txid": "d50f8268c390ad7e5bec626d4e0b7ce458397d30861d92dbedd39666e8cae077"}, {"sequence": 4294967295, "scriptSig": {"hex": "47304402202ffc9a35e14b6814bd621dfbc3ad4336207950b582885ebf9538aa881c704bd50220098245478c345c0ce40b9e60bc9cba80b731c0ba7f148ecba12d6c0f6154bb7b01210338724bdbb6a1e1656e53b513021ab5d86b4e4bd940ad7fee4a19ee6961aaeab8", "asm": "304402202ffc9a35e14b6814bd621dfbc3ad4336207950b582885ebf9538aa881c704bd50220098245478c345c0ce40b9e60bc9cba80b731c0ba7f148ecba12d6c0f6154bb7b[ALL] 0338724bdbb6a1e1656e53b513021ab5d86b4e4bd940ad7fee4a19ee6961aaeab8"}, "vout": 0, "txid": "dcec2159ded2278e7c9f8b2a4fb0dc897f8e6a34748e8c8847d4cda26e138382"}], "txid": "bc7507e5c6a16235b376248cd9ccae66411fc1355d4debe26f8f3bdb8d4609c2", "blocktime": 1537872018, "version": 1, "confirmations": 11489, "time": 1537872018, "locktime": 0, "vsize": 373, "size": 373}