{"hash": "ea5399ee781a85298b9f8b4be8971d0f30027a88f5a95d8f996afa16e4352357", "blockhash": "0000000000000000000baef3f32e3676a92c3b2e5da21b426e4f302fc371ce76", "vout": [{"scriptPubKey": {"reqSigs": 1, "hex": "a91493243c07e902e09ee6e32bd5ec26fae4e4fd694687", "addresses": ["3F72fMpN2wQ99dqCVrFg9JShXQxPNaxkyL"], "asm": "OP_HASH160 93243c07e902e09ee6e32bd5ec26fae4e4fd6946 OP_EQUAL", "type": "scripthash"}, "value": 0.02, "n": 0}, {"scriptPubKey": {"reqSigs": 1, "hex": "a914fba915225b14b52d2dafa29493753faaa5384b0f87", "addresses": ["3Qdg5kkQwXJK8q3K9fX21KCHrWLPPVM2QJ"], "asm": "OP_HASH160 fba915225b14b52d2dafa29493753faaa5384b0f OP_EQUAL", "type": "scripthash"}, "value": 0.22161, "n": 1}], "hex": "010000000001013d9733a89880132d7cf809a9e1c805ba24c60d3d3d5a102be9b1557aa8d400f40000000023220020ed35610acaac175617612af4e24bafff926bbcec4bf0d1c4eb55557bc2d97fe5ffffffff0280841e000000000017a91493243c07e902e09ee6e32bd5ec26fae4e4fd694687682652010000000017a914fba915225b14b52d2dafa29493753faaa5384b0f87040047304402206c92505a7925eedf6186136d036540825edd1e0842d2d378060875cf4531c3df022067c4620795ddefdec712bf3f80c2100fd5dd66796e9b038f97c476429097598f01483045022100de03f76e317224a1e5a4434739e3377b0863d79905dc7384e765fa272eb6a299022056081e2fbbaf7d9ec760dd13e0bc76ca46fd265ab70e1d752173dcb9f7ecdbad0169522103c0869525bc89dec423a3fd86aec0db6cd3c82163aef55f5bc3f5a7f56b86f9ad21020389b636ba10f16939c7da8ff8187f9064dddb87dfa73aa8f1ffc634b88f27052102080b38f6b863385bab069e97023229e58a04c0514ae94db51b4472509f1ed52e53ae00000000", "vin": [{"txinwitness": ["", "304402206c92505a7925eedf6186136d036540825edd1e0842d2d378060875cf4531c3df022067c4620795ddefdec712bf3f80c2100fd5dd66796e9b038f97c476429097598f01", "3045022100de03f76e317224a1e5a4434739e3377b0863d79905dc7384e765fa272eb6a299022056081e2fbbaf7d9ec760dd13e0bc76ca46fd265ab70e1d752173dcb9f7ecdbad01", "522103c0869525bc89dec423a3fd86aec0db6cd3c82163aef55f5bc3f5a7f56b86f9ad21020389b636ba10f16939c7da8ff8187f9064dddb87dfa73aa8f1ffc634b88f27052102080b38f6b863385bab069e97023229e58a04c0514ae94db51b4472509f1ed52e53ae"], "sequence": 4294967295, "scriptSig": {"hex": "220020ed35610acaac175617612af4e24bafff926bbcec4bf0d1c4eb55557bc2d97fe5", "asm": "0020ed35610acaac175617612af4e24bafff926bbcec4bf0d1c4eb55557bc2d97fe5"}, "vout": 0, "txid": "f400d4a87a55b1e92b105a3d3d0dc624ba05c8e1a909f87c2d138098a833973d"}], "txid": "bc761393f0e1f8d3317be7280b351825a5bd40a77f0d4dcbdd5e9263560800bb", "blocktime": 1537876114, "version": 1, "confirmations": 11463, "time": 1537876114, "locktime": 0, "vsize": 214, "size": 405}