{"hash": "8184c6ba6ad579b4ef44cd9af881ff7d1b85cb9285db99c57bca239fc0c6880c", "blockhash": "0000000000000000001cda96e906b7601b7a6fb1a3b62bca570a9e5d8f4b3de1", "vout": [{"scriptPubKey": {"reqSigs": 1, "hex": "a91487e9dba1ec162180751e9c4914176e2c0eb3b2c187", "addresses": ["3E5fJB89cTNPEBBmWUcytAPXyN2Qi2nHVj"], "asm": "OP_HASH160 87e9dba1ec162180751e9c4914176e2c0eb3b2c1 OP_EQUAL", "type": "scripthash"}, "value": 0.00046678, "n": 0}], "hex": "010000000001017f49d3f91c1917fa2cc6f60a09d702eccf1be733be9fefb224772a563c841f810000000000fdffffff0156b600000000000017a91487e9dba1ec162180751e9c4914176e2c0eb3b2c187024830450221009dcb72130fde92ee2974295f9411bb7656a597d83ebf15e6247c9d8e4c62bcac022026271aeaa1364f973ed4207e471ca3a318bca8ff95794869fbffc6adbed77fe50121033b847633b2f89314befa28db5518f05bb2e889b1df0e05abb32c7e47d114539c13490800", "vin": [{"txinwitness": ["30450221009dcb72130fde92ee2974295f9411bb7656a597d83ebf15e6247c9d8e4c62bcac022026271aeaa1364f973ed4207e471ca3a318bca8ff95794869fbffc6adbed77fe501", "033b847633b2f89314befa28db5518f05bb2e889b1df0e05abb32c7e47d114539c"], "sequence": 4294967293, "scriptSig": {"hex": "", "asm": ""}, "vout": 0, "txid": "811f843c562a7724b2ef9fbe33e71bcfec02d7090af6c62cfa17191cf9d3497f"}], "txid": "bc7aee20763ba7b7c7947626492e7ee8bdcb232684a2ed6036fafc6fa28bd216", "blocktime": 1537873282, "version": 1, "confirmations": 11485, "time": 1537873282, "locktime": 542995, "vsize": 111, "size": 193}