{"hash": "69d333d0de712ef8d5434121c73b4e26ed2086877c512eb49b0ec58f5555a9fa", "blockhash": "00000000000000000017f5eb5941039fbcee6240d03bc1f2f8e35350df66a1d8", "vout": [{"scriptPubKey": {"reqSigs": 1, "hex": "a914fcea089c86498a6e4317bc79d56ddfe6e884f9e787", "addresses": ["3QkJZpwFLvs4vviCBvAGRtB2dsNwx2LcqT"], "asm": "OP_HASH160 fcea089c86498a6e4317bc79d56ddfe6e884f9e7 OP_EQUAL", "type": "scripthash"}, "value": 0.00125374, "n": 0}, {"scriptPubKey": {"reqSigs": 1, "hex": "a914212a28485920e0821669587da04470e1d256531f87", "addresses": ["34iNj22MeLTaxAjiu3PWuxjKkK937yZa4S"], "asm": "OP_HASH160 212a28485920e0821669587da04470e1d256531f OP_EQUAL", "type": "scripthash"}, "value": 0.00989067, "n": 1}], "hex": "020000000001032750163223eb145c8cb21a62de0f87d44c5f9c3def1f36a0f30c6178c2bca1fa7700000017160014ff400046724428e395a198ed8c9e287cd402cc15feffffff31b2e1d1085042ff53b6c752ff345090f835877fd673c5ade9224925970d3937050000006a473044022029e12dd38309bbc13d9ef0220f5955cc01fd37e74f75d50a88ca3aabb60d7cbf02201e528e9592f8aa254c607810040c0e03e2941bcebcaead3abbcb5e301a1ad46501210269f2d9d92d6c95327384b75a1f053258173c4a61f428682fb36b81f90506b84efeffffff73fd9dcf096fbe91785871cd188116de84850292452b70d6285fc5a7859748c7010000001716001448fa82383051989b1bc6d682c50008ebd3f78a2efeffffff02bee901000000000017a914fcea089c86498a6e4317bc79d56ddfe6e884f9e7878b170f000000000017a914212a28485920e0821669587da04470e1d256531f8702473044022020189be87b92c504fa3631943a43e33a84d735499de38491c551fcd33759ec3102205a53bd9cc92228ba6b879aba012c59ad27d7cc7281e1e4efb7049863003fe3fc01210303d29d587547325247a7376a5c75e9dfcf3125b6e8784d310d15f692bcdd490c0002483045022100f2f1bfe2ea71ebaffe7435e8a760442ad1e19f6083960fe477f6e48f108b6ad302202104024818217d54034799e361b01e2cce1ef6f0c9ac04a9e57aec638b2dffd1012102f4b5e886612102474a9c4f023c9f20d06bf8c07c3e6784bffc9f9b6cbdbe08f015490800", "vin": [{"txinwitness": ["3044022020189be87b92c504fa3631943a43e33a84d735499de38491c551fcd33759ec3102205a53bd9cc92228ba6b879aba012c59ad27d7cc7281e1e4efb7049863003fe3fc01", "0303d29d587547325247a7376a5c75e9dfcf3125b6e8784d310d15f692bcdd490c"], "sequence": 4294967294, "scriptSig": {"hex": "160014ff400046724428e395a198ed8c9e287cd402cc15", "asm": "0014ff400046724428e395a198ed8c9e287cd402cc15"}, "vout": 119, "txid": "faa1bcc278610cf3a0361fef3d9c5f4cd4870fde621ab28c5c14eb2332165027"}, {"sequence": 4294967294, "scriptSig": {"hex": "473044022029e12dd38309bbc13d9ef0220f5955cc01fd37e74f75d50a88ca3aabb60d7cbf02201e528e9592f8aa254c607810040c0e03e2941bcebcaead3abbcb5e301a1ad46501210269f2d9d92d6c95327384b75a1f053258173c4a61f428682fb36b81f90506b84e", "asm": "3044022029e12dd38309bbc13d9ef0220f5955cc01fd37e74f75d50a88ca3aabb60d7cbf02201e528e9592f8aa254c607810040c0e03e2941bcebcaead3abbcb5e301a1ad465[ALL] 0269f2d9d92d6c95327384b75a1f053258173c4a61f428682fb36b81f90506b84e"}, "vout": 5, "txid": "37390d97254922e9adc573d67f8735f8905034ff52c7b653ff425008d1e1b231"}, {"txinwitness": ["3045022100f2f1bfe2ea71ebaffe7435e8a760442ad1e19f6083960fe477f6e48f108b6ad302202104024818217d54034799e361b01e2cce1ef6f0c9ac04a9e57aec638b2dffd101", "02f4b5e886612102474a9c4f023c9f20d06bf8c07c3e6784bffc9f9b6cbdbe08f0"], "sequence": 4294967294, "scriptSig": {"hex": "16001448fa82383051989b1bc6d682c50008ebd3f78a2e", "asm": "001448fa82383051989b1bc6d682c50008ebd3f78a2e"}, "vout": 1, "txid": "c7489785a7c55f28d6702b4592028584de168118cd71587891be6f09cf9dfd73"}], "txid": "bc7b1f26c51bea6342aba944daf4371fd2fc2c32a60aea1e6ba2dcb93cb017e3", "blocktime": 1537874412, "version": 2, "confirmations": 11466, "time": 1537874412, "locktime": 542997, "vsize": 404, "size": 567}