{"hash": "bc7e3c5041656659d571051112d9344a151a10cf0668942debeb99b62774149b", "blockhash": "00000000000000000024a2167bbff67b0be802c0b01cdd79e6331c2be6459f87", "vout": [{"scriptPubKey": {"reqSigs": 1, "hex": "76a914df0db0a482056764deceb0eaa211ed29103e171388ac", "addresses": ["1MLQ5yer2Ejn4zoF2XXREk2Qt8Bq4CRvAw"], "asm": "OP_DUP OP_HASH160 df0db0a482056764deceb0eaa211ed29103e1713 OP_EQUALVERIFY OP_CHECKSIG", "type": "pubkeyhash"}, "value": 0.0006925, "n": 0}, {"scriptPubKey": {"reqSigs": 1, "hex": "a914a08dbba82157a0b5b539202c9a7b4d19bba72c5687", "addresses": ["3GKwq299paJkcu4unBZb5RVmLjfmJ3yH8L"], "asm": "OP_HASH160 a08dbba82157a0b5b539202c9a7b4d19bba72c56 OP_EQUAL", "type": "scripthash"}, "value": 0.00086713, "n": 1}], "hex": "01000000018b2eceede3d6848056eee903563f3e39bcd1fc5923625aca20910e8cfa5c1a75010000006a47304402203124b8397f983d9108b4fd5c218adabb2720abd44eb82117fcaa754c4c19a0a3022051504a3a33a8bfc4eab171930253399a464c7e5bf1006906287cc11e0e4427a00121039969bfac09375d3665514fb07c292487ec60f86645b1fc409ec1095bad2b4159ffffffff02820e0100000000001976a914df0db0a482056764deceb0eaa211ed29103e171388acb95201000000000017a914a08dbba82157a0b5b539202c9a7b4d19bba72c568700000000", "vin": [{"sequence": 4294967295, "scriptSig": {"hex": "47304402203124b8397f983d9108b4fd5c218adabb2720abd44eb82117fcaa754c4c19a0a3022051504a3a33a8bfc4eab171930253399a464c7e5bf1006906287cc11e0e4427a00121039969bfac09375d3665514fb07c292487ec60f86645b1fc409ec1095bad2b4159", "asm": "304402203124b8397f983d9108b4fd5c218adabb2720abd44eb82117fcaa754c4c19a0a3022051504a3a33a8bfc4eab171930253399a464c7e5bf1006906287cc11e0e4427a0[ALL] 039969bfac09375d3665514fb07c292487ec60f86645b1fc409ec1095bad2b4159"}, "vout": 1, "txid": "751a5cfa8c0e9120ca5a622359fcd1bc393e3f5603e9ee568084d6e3edce2e8b"}], "txid": "bc7e3c5041656659d571051112d9344a151a10cf0668942debeb99b62774149b", "blocktime": 1537870564, "version": 1, "confirmations": 11515, "time": 1537870564, "locktime": 0, "vsize": 223, "size": 223}