{"hash": "eac167a15dbf8d08b633fa2bcfa74988b0b06d0a55752b95e980e12dfd25d19c", "blockhash": "0000000000000000000e13cef7c366c0283d82e591d1acd082e914b08063cdf1", "vout": [{"scriptPubKey": {"reqSigs": 1, "hex": "76a9148cfbbfff9eb2d7efba45f1e7566442c1a3a4c37c88ac", "addresses": ["1DrTBkeSbr8AJN9pLWumQhHgkZgDbR98eM"], "asm": "OP_DUP OP_HASH160 8cfbbfff9eb2d7efba45f1e7566442c1a3a4c37c OP_EQUALVERIFY OP_CHECKSIG", "type": "pubkeyhash"}, "value": 0.0017156, "n": 0}, {"scriptPubKey": {"reqSigs": 1, "hex": "a914d31565f39dea8f9ce1482737ffe0c976e2c00dc487", "addresses": ["3Lw88o9AQG7vYz38eCpPUQLi6qKXjMoMc1"], "asm": "OP_HASH160 d31565f39dea8f9ce1482737ffe0c976e2c00dc4 OP_EQUAL", "type": "scripthash"}, "value": 0.01083148, "n": 1}], "hex": "020000000001021d5f399f6e9fe928b42ec232d98514ccde3804d848e4e8c268b0d374b2f38cce000000001716001482b70f01540e4dc65432b47770163c2f08335993feffffff5073d9981e48733883e6a1baa2573ed050ac0bd9d59af0dd053698b52d559eed01000000171600145d456fbdc0138a45f43cbc1da04d5dd350261b36feffffff02289e0200000000001976a9148cfbbfff9eb2d7efba45f1e7566442c1a3a4c37c88ac0c8710000000000017a914d31565f39dea8f9ce1482737ffe0c976e2c00dc48702483045022100feea8a2f8e7b07f0b1746d89f1067b0be99113e83a141170a0ee79cca2ffc96802204c68c7f69f4689814919b0283b20f0618b32707d89ca61a20da44aa6d8cfb536012102c992e17ef73abcef7966dfd5850aa595b6b5875e613f25b33eb48251bc9e5b8f02463043021f258b13ddb82ead7ce2143b181c9a756b7584461cc2a713c4292faaae68e02902207b2bc03c76329b804bcabe5b0067ebcee80b0c21721d612e423df497526cb21d0121034d7544d5990fd9065de96063236ea41a1a4c166c47c127461ef145a2a6e8981810490800", "vin": [{"txinwitness": ["3045022100feea8a2f8e7b07f0b1746d89f1067b0be99113e83a141170a0ee79cca2ffc96802204c68c7f69f4689814919b0283b20f0618b32707d89ca61a20da44aa6d8cfb53601", "02c992e17ef73abcef7966dfd5850aa595b6b5875e613f25b33eb48251bc9e5b8f"], "sequence": 4294967294, "scriptSig": {"hex": "16001482b70f01540e4dc65432b47770163c2f08335993", "asm": "001482b70f01540e4dc65432b47770163c2f08335993"}, "vout": 0, "txid": "ce8cf3b274d3b068c2e8e448d80438decc1485d932c22eb428e99f6e9f395f1d"}, {"txinwitness": ["3043021f258b13ddb82ead7ce2143b181c9a756b7584461cc2a713c4292faaae68e02902207b2bc03c76329b804bcabe5b0067ebcee80b0c21721d612e423df497526cb21d01", "034d7544d5990fd9065de96063236ea41a1a4c166c47c127461ef145a2a6e89818"], "sequence": 4294967294, "scriptSig": {"hex": "1600145d456fbdc0138a45f43cbc1da04d5dd350261b36", "asm": "00145d456fbdc0138a45f43cbc1da04d5dd350261b36"}, "vout": 1, "txid": "ed9e552db5983605ddf09ad5d90bac50d03e57a2baa1e6833873481e98d97350"}], "txid": "bc832974e034e80ac0af86273d4ae4ce8affa8b28b2ef424e20ba6ff87cb35a5", "blocktime": 1537871767, "version": 2, "confirmations": 11495, "time": 1537871767, "locktime": 542992, "vsize": 258, "size": 420}