{"hash": "3171c8526170ba3c96ee6bf67d3dc398a7440de5529a6722d63edc5521f3eb98", "blockhash": "000000000000000000022b45ed06c6f4ccd3cf7fb5ba4856ebd2e58215665228", "vout": [{"scriptPubKey": {"reqSigs": 1, "hex": "76a9148ef27f91b56e2e48d146fe0d1c4e48f0b3c9bc5988ac", "addresses": ["1E2qTKU1oNxi6H5Nubz776ZVfkSs7PDEwp"], "asm": "OP_DUP OP_HASH160 8ef27f91b56e2e48d146fe0d1c4e48f0b3c9bc59 OP_EQUALVERIFY OP_CHECKSIG", "type": "pubkeyhash"}, "value": 3.433e-05, "n": 0}, {"scriptPubKey": {"reqSigs": 1, "hex": "a914e8db75c900cf08f06518e96d167331f2a4abfb3387", "addresses": ["3NvFbQMAkkqEFj4i1sYPPLkSWzxTFUchjA"], "asm": "OP_HASH160 e8db75c900cf08f06518e96d167331f2a4abfb33 OP_EQUAL", "type": "scripthash"}, "value": 0.00045517, "n": 1}], "hex": "01000000000101b4117838d886bbcc2be5893188917b83c01a7a68c245708113f7f2e5aa8062a90000000023220020941cfaff8837763dc1f69ff82b6d6553fdea17a41cfc29a04403293eedd8ccc7ffffffff02690d0000000000001976a9148ef27f91b56e2e48d146fe0d1c4e48f0b3c9bc5988accdb100000000000017a914e8db75c900cf08f06518e96d167331f2a4abfb33870400483045022100f3a47eeebb8dcae6da15e08ff32d35f4da466ff074a8589386638eb4b51b7e96022013f8ecfab94d0d5f69b8725982d221d28d6fc1f3eea3331cdd08aea505c20a040147304402203cd8fa7e857dc3fbe4b9aa9deb1acc052db55b894d16ca6b6d4c84c2db9d7333022047bedfff5893876da502ff87796de37f04b97e39be0a8c42f5871d85d7688d9e0147522102531db3a5883f29bab4241dd0cd726936667bcda445d89bdd22244e828b6993342103148c80a5bdfddb05ff5bcffc397c8ca748d8b435ec6a175bc9d7bfc7fc6f853752ae00000000", "vin": [{"txinwitness": ["", "3045022100f3a47eeebb8dcae6da15e08ff32d35f4da466ff074a8589386638eb4b51b7e96022013f8ecfab94d0d5f69b8725982d221d28d6fc1f3eea3331cdd08aea505c20a0401", "304402203cd8fa7e857dc3fbe4b9aa9deb1acc052db55b894d16ca6b6d4c84c2db9d7333022047bedfff5893876da502ff87796de37f04b97e39be0a8c42f5871d85d7688d9e01", "522102531db3a5883f29bab4241dd0cd726936667bcda445d89bdd22244e828b6993342103148c80a5bdfddb05ff5bcffc397c8ca748d8b435ec6a175bc9d7bfc7fc6f853752ae"], "sequence": 4294967295, "scriptSig": {"hex": "220020941cfaff8837763dc1f69ff82b6d6553fdea17a41cfc29a04403293eedd8ccc7", "asm": "0020941cfaff8837763dc1f69ff82b6d6553fdea17a41cfc29a04403293eedd8ccc7"}, "vout": 0, "txid": "a96280aae5f2f713817045c2687a1ac0837b91883189e52bccbb86d8387811b4"}], "txid": "bc8b7aeaf2cb7dc1eaf2a4c11a4998d17de12a9a783a1cb1d6281fd2e93f7f57", "blocktime": 1537869901, "version": 1, "confirmations": 11524, "time": 1537869901, "locktime": 0, "vsize": 208, "size": 373}