{"hash": "9e2223ccdc8d1903bc07b12d3cd99bf7169c088eb56e770cdc6bd54531ca4d83", "blockhash": "0000000000000000001cda96e906b7601b7a6fb1a3b62bca570a9e5d8f4b3de1", "vout": [{"scriptPubKey": {"reqSigs": 1, "hex": "a914193add73635381238d08a696f2e2916da64b74ca87", "addresses": ["33zRLMWDnARqaVkUys9cfdbtuB9aeGRw8c"], "asm": "OP_HASH160 193add73635381238d08a696f2e2916da64b74ca OP_EQUAL", "type": "scripthash"}, "value": 0.01103482, "n": 0}, {"scriptPubKey": {"reqSigs": 1, "hex": "a91411825487e21c36be4b3102300952af2f7d10ebf087", "addresses": ["33HbYJgzvRJhfSxABAffQ84iGhfJkCH1Xf"], "asm": "OP_HASH160 11825487e21c36be4b3102300952af2f7d10ebf0 OP_EQUAL", "type": "scripthash"}, "value": 0.00504145, "n": 1}], "hex": "020000000001028645ae017122d969285ad3c7f4283ec727215b03a450b2813e57d23d8f6fbfbf02000000171600148fe9f37c07f2a6b852b765b696eb6b255a6200bffeffffffaa4529d45c48fd806422fd33d470bf45f727aaa1d0c18e62bf43c40ce27d282e02000000171600141b3d64ce14475b10034b3b0ddd6f0db3a4a146e1feffffff027ad610000000000017a914193add73635381238d08a696f2e2916da64b74ca8751b107000000000017a91411825487e21c36be4b3102300952af2f7d10ebf08702483045022100de1816da018149c8e50815c407c3372db8b54d4cf7f340e66829cbf9bd30a92002207e7a5dc9e46b4f57fc5b4bae78b1ee376e8b83a84076f3cc885755ab9c6451c5012103c5c593ddf26c25934ea9cd5f5eb3a9d63071d088cb8b93c33ef3826d151fbecb02483045022100d1db82bdcd420c52c566ad1871d43be9fcef2e58fd7b10776b018846dcb05286022024640bb8785c4adb82b21f120760d59601288020dbb409f217def45e5e54d39b0121028705cc4ff6a78c8dc5d91bf4301cf5977938d6c5b068f4b75671e89b7ddc74d4f5480800", "vin": [{"txinwitness": ["3045022100de1816da018149c8e50815c407c3372db8b54d4cf7f340e66829cbf9bd30a92002207e7a5dc9e46b4f57fc5b4bae78b1ee376e8b83a84076f3cc885755ab9c6451c501", "03c5c593ddf26c25934ea9cd5f5eb3a9d63071d088cb8b93c33ef3826d151fbecb"], "sequence": 4294967294, "scriptSig": {"hex": "1600148fe9f37c07f2a6b852b765b696eb6b255a6200bf", "asm": "00148fe9f37c07f2a6b852b765b696eb6b255a6200bf"}, "vout": 2, "txid": "bfbf6f8f3dd2573e81b250a4035b2127c73e28f4c7d35a2869d9227101ae4586"}, {"txinwitness": ["3045022100d1db82bdcd420c52c566ad1871d43be9fcef2e58fd7b10776b018846dcb05286022024640bb8785c4adb82b21f120760d59601288020dbb409f217def45e5e54d39b01", "028705cc4ff6a78c8dc5d91bf4301cf5977938d6c5b068f4b75671e89b7ddc74d4"], "sequence": 4294967294, "scriptSig": {"hex": "1600141b3d64ce14475b10034b3b0ddd6f0db3a4a146e1", "asm": "00141b3d64ce14475b10034b3b0ddd6f0db3a4a146e1"}, "vout": 2, "txid": "2e287de20cc443bf628ec1d0a1aa27f745bf70d433fd226480fd485cd42945aa"}], "txid": "bc8dc539ad98eb1afc33990310df73df74a18b0dec1970ec80439472299facb6", "blocktime": 1537873282, "version": 2, "confirmations": 11484, "time": 1537873282, "locktime": 542965, "vsize": 257, "size": 420}