{"hash": "bc8df396a8fce56180fa27e0b21a6aad17fcfce4b2dbcc3cd11cea3a67d3cb39", "blockhash": "0000000000000000001e0dab787dd257d1dbfcb92a98c2207d5e1078be1f4165", "vout": [{"scriptPubKey": {"reqSigs": 1, "hex": "76a914b5b6a6c6204fc01dbba22652f7ac42addb562ee988ac", "addresses": ["1HZp7ZuKr2b8f7D8RnHcUMmt6T7vWLH7hz"], "asm": "OP_DUP OP_HASH160 b5b6a6c6204fc01dbba22652f7ac42addb562ee9 OP_EQUALVERIFY OP_CHECKSIG", "type": "pubkeyhash"}, "value": 0.00639341, "n": 0}, {"scriptPubKey": {"type": "nulldata", "hex": "6a4c50000077bd0001e114dccca371221793029e86e5bf9ae76da98a211aaf6c953dd567cf27e7aabbd76bd997c85d7b94def4bd7c07605baa1258061338e3eb59029d1d100759d4ba30d2c37bb011d97e02cf", "asm": "OP_RETURN 000077bd0001e114dccca371221793029e86e5bf9ae76da98a211aaf6c953dd567cf27e7aabbd76bd997c85d7b94def4bd7c07605baa1258061338e3eb59029d1d100759d4ba30d2c37bb011d97e02cf"}, "value": 0.0, "n": 1}], "hex": "010000000148305a46604452482fbbfc9a3e720aff2c665ac11cbeb4734330d53d3fbf14ae010000006a47304402201f9f1e417831928685c741d9a1c4f6ef0936f2aee4763ed66ea974a0cd46789502205515cd960fed39534d4c0108ee30bc3b78b77d4cb19e3013f9f4ccc34f2563920121023bdb97e62ed9b1dc2b13592824f09b9df78ecbb2586b238a05e1702e30c8d5e1ffffffff026dc10900000000001976a914b5b6a6c6204fc01dbba22652f7ac42addb562ee988ac0000000000000000536a4c50000077bd0001e114dccca371221793029e86e5bf9ae76da98a211aaf6c953dd567cf27e7aabbd76bd997c85d7b94def4bd7c07605baa1258061338e3eb59029d1d100759d4ba30d2c37bb011d97e02cf00000000", "vin": [{"sequence": 4294967295, "scriptSig": {"hex": "47304402201f9f1e417831928685c741d9a1c4f6ef0936f2aee4763ed66ea974a0cd46789502205515cd960fed39534d4c0108ee30bc3b78b77d4cb19e3013f9f4ccc34f2563920121023bdb97e62ed9b1dc2b13592824f09b9df78ecbb2586b238a05e1702e30c8d5e1", "asm": "304402201f9f1e417831928685c741d9a1c4f6ef0936f2aee4763ed66ea974a0cd46789502205515cd960fed39534d4c0108ee30bc3b78b77d4cb19e3013f9f4ccc34f256392[ALL] 023bdb97e62ed9b1dc2b13592824f09b9df78ecbb2586b238a05e1702e30c8d5e1"}, "vout": 1, "txid": "ae14bf3f3dd5304373b4be1cc15a662cff0a723e9afcbb2f48524460465a3048"}], "txid": "bc8df396a8fce56180fa27e0b21a6aad17fcfce4b2dbcc3cd11cea3a67d3cb39", "blocktime": 1537872475, "version": 1, "confirmations": 11486, "time": 1537872475, "locktime": 0, "vsize": 283, "size": 283}