{"hash": "73e4c4cbe1de84c52ab5fbbe3ae08ee39d6c0b87966985592cc47eafb5eafc53", "blockhash": "0000000000000000000e13cef7c366c0283d82e591d1acd082e914b08063cdf1", "vout": [{"scriptPubKey": {"reqSigs": 1, "hex": "76a9145765d151ed725076ca70edb9a867a436b6c7233a88ac", "addresses": ["18y7m72yCMavcJEG7DPQstZkUSUV5vt2hB"], "asm": "OP_DUP OP_HASH160 5765d151ed725076ca70edb9a867a436b6c7233a OP_EQUALVERIFY OP_CHECKSIG", "type": "pubkeyhash"}, "value": 0.0024616, "n": 0}, {"scriptPubKey": {"reqSigs": 1, "hex": "a914c433dd73f662790c9811f254906c8936d80693a387", "addresses": ["3KaSVnjqvU6gKK94bebXwGoqDEe98wwSXD"], "asm": "OP_HASH160 c433dd73f662790c9811f254906c8936d80693a3 OP_EQUAL", "type": "scripthash"}, "value": 0.01036645, "n": 1}], "hex": "02000000000102c69878e66ec4855e3168deeddfc4e663b0b888dd3139136bcc9ff23e8313e0e50000000017160014d6e37929d310e486a560f5852630480fd8301ce2feffffffede717bcaad4056d39799139e2fc5654c2e1404ed8a32c2c54a0a4aa5a56236101000000171600141a45fba6c4d0a28d80bdcb91d02f578fb0c073a6feffffff0290c10300000000001976a9145765d151ed725076ca70edb9a867a436b6c7233a88ac65d10f000000000017a914c433dd73f662790c9811f254906c8936d80693a3870247304402207c6909df35b9178eadfe52a853f91770caed612fbd0bd10a210cc94da8b9c61d0220147a06ec8f5dfedd17b03463fce64b9d61cead25439637e542fd5d8fe8dae27e0121021d2c456d547b651df88d1c7dc8af25ecb609bec546704836224b85ead2ce6df90248304502210081b87d83c8799c9bc2716233173d092d5d33c5ee4a568cbbf156b4b063a2b637022072fe5d3cb09f1aca6d8fa66702380ca51e7cdc54cd8ff9bb37075baa78720692012103511f1f9be73af0768b1e207597ce8955b407b42add7444b0a1bc259f8aecb6d710490800", "vin": [{"txinwitness": ["304402207c6909df35b9178eadfe52a853f91770caed612fbd0bd10a210cc94da8b9c61d0220147a06ec8f5dfedd17b03463fce64b9d61cead25439637e542fd5d8fe8dae27e01", "021d2c456d547b651df88d1c7dc8af25ecb609bec546704836224b85ead2ce6df9"], "sequence": 4294967294, "scriptSig": {"hex": "160014d6e37929d310e486a560f5852630480fd8301ce2", "asm": "0014d6e37929d310e486a560f5852630480fd8301ce2"}, "vout": 0, "txid": "e5e013833ef29fcc6b133931dd88b8b063e6c4dfedde68315e85c46ee67898c6"}, {"txinwitness": ["304502210081b87d83c8799c9bc2716233173d092d5d33c5ee4a568cbbf156b4b063a2b637022072fe5d3cb09f1aca6d8fa66702380ca51e7cdc54cd8ff9bb37075baa7872069201", "03511f1f9be73af0768b1e207597ce8955b407b42add7444b0a1bc259f8aecb6d7"], "sequence": 4294967294, "scriptSig": {"hex": "1600141a45fba6c4d0a28d80bdcb91d02f578fb0c073a6", "asm": "00141a45fba6c4d0a28d80bdcb91d02f578fb0c073a6"}, "vout": 1, "txid": "6123565aaaa4a0542c2ca3d84e40e1c25456fce2399179396d05d4aabc17e7ed"}], "txid": "bc905ee91e07cad4cc39f9529f9e69578d3838b07a95cb4322263cc5cd3e1651", "blocktime": 1537871767, "version": 2, "confirmations": 11495, "time": 1537871767, "locktime": 542992, "vsize": 259, "size": 421}