{"hash": "bc935d1b6c7624ba69ef3d0c392acf7cd3267d401131d37310b6fdfda0132dd3", "blockhash": "0000000000000000001f76057863aec43deb6fa401d9628bb513d65a8098bfab", "vout": [{"scriptPubKey": {"reqSigs": 1, "hex": "a9142547c1ac7889d4ef755a02fc97811b3a3df815f587", "addresses": ["3568tNbW4UyntwkEVFGAePfLymZry7ADSG"], "asm": "OP_HASH160 2547c1ac7889d4ef755a02fc97811b3a3df815f5 OP_EQUAL", "type": "scripthash"}, "value": 0.13086496, "n": 0}], "hex": "0200000001bde0d65c365cda1303f1e651e536beb796a015d7d7c2c5d18ac0a1bf94b8fe5e000000006a4730440220187f5c8d0d5ca6206146f592f393df182a7381cf2191c5e3fbc97c595afcfe1d02202ae48a66998686ad30dbf887cee554a35034c853bec5bc273e712000c81b3dd9012102140a3783d179fb583c76479ee60c7572f7f73acc8ff70633aedca2af844bbc2dffffffff0120afc7000000000017a9142547c1ac7889d4ef755a02fc97811b3a3df815f58700000000", "vin": [{"sequence": 4294967295, "scriptSig": {"hex": "4730440220187f5c8d0d5ca6206146f592f393df182a7381cf2191c5e3fbc97c595afcfe1d02202ae48a66998686ad30dbf887cee554a35034c853bec5bc273e712000c81b3dd9012102140a3783d179fb583c76479ee60c7572f7f73acc8ff70633aedca2af844bbc2d", "asm": "30440220187f5c8d0d5ca6206146f592f393df182a7381cf2191c5e3fbc97c595afcfe1d02202ae48a66998686ad30dbf887cee554a35034c853bec5bc273e712000c81b3dd9[ALL] 02140a3783d179fb583c76479ee60c7572f7f73acc8ff70633aedca2af844bbc2d"}, "vout": 0, "txid": "5efeb894bfa1c08ad1c5c2d7d715a096b7be36e551e6f10313da5c365cd6e0bd"}], "txid": "bc935d1b6c7624ba69ef3d0c392acf7cd3267d401131d37310b6fdfda0132dd3", "blocktime": 1537873891, "version": 2, "confirmations": 11474, "time": 1537873891, "locktime": 0, "vsize": 189, "size": 189}