{"hash": "bc944b13ee94a22d769bcb2fe637fe02afaf703febd8114e586148c928a8f55e", "blockhash": "0000000000000000000e13cef7c366c0283d82e591d1acd082e914b08063cdf1", "vout": [{"scriptPubKey": {"reqSigs": 1, "hex": "a914f87fb146201d2c71800e4eb01a8aa627e08aa90a87", "addresses": ["3QLxUM3r6CJRchFJ8cXt4Rg1CdJ7HKMMNc"], "asm": "OP_HASH160 f87fb146201d2c71800e4eb01a8aa627e08aa90a OP_EQUAL", "type": "scripthash"}, "value": 0.05162992, "n": 0}], "hex": "010000000144d7f9f071a641bc5a6e1fcf44214a13ecefd2e0d31ef7ed76af7dfcf3a88d0c000000006b4830450221008d03eb0730d3b48a2e0d180cc22036ced2c39227c1fc2a74c7f6ca1865ef5ed002207b2102263acaaf9b2470f4e6113278347e387b7b114fa048daed3f90433500c50121021c88b82a4c42047a3dd7e3871148c09018c8301d48fc44e7d93ffb1f1dfc0371ffffffff01f0c74e000000000017a914f87fb146201d2c71800e4eb01a8aa627e08aa90a8700000000", "vin": [{"sequence": 4294967295, "scriptSig": {"hex": "4830450221008d03eb0730d3b48a2e0d180cc22036ced2c39227c1fc2a74c7f6ca1865ef5ed002207b2102263acaaf9b2470f4e6113278347e387b7b114fa048daed3f90433500c50121021c88b82a4c42047a3dd7e3871148c09018c8301d48fc44e7d93ffb1f1dfc0371", "asm": "30450221008d03eb0730d3b48a2e0d180cc22036ced2c39227c1fc2a74c7f6ca1865ef5ed002207b2102263acaaf9b2470f4e6113278347e387b7b114fa048daed3f90433500c5[ALL] 021c88b82a4c42047a3dd7e3871148c09018c8301d48fc44e7d93ffb1f1dfc0371"}, "vout": 0, "txid": "0c8da8f3fc7daf76edf71ed3e0d2efec134a2144cf1f6e5abc41a671f0f9d744"}], "txid": "bc944b13ee94a22d769bcb2fe637fe02afaf703febd8114e586148c928a8f55e", "blocktime": 1537871767, "version": 1, "confirmations": 11494, "time": 1537871767, "locktime": 0, "vsize": 190, "size": 190}