{"hash": "74c67571276eeb763f33ccbf7c23de84187b03cc17c776b83f1bcbf65ca0e609", "blockhash": "0000000000000000001cda96e906b7601b7a6fb1a3b62bca570a9e5d8f4b3de1", "vout": [{"scriptPubKey": {"reqSigs": 1, "hex": "76a9146953b1937cc5034acd5a3a01887ebfb231a1ba0688ac", "addresses": ["1AbvDHCwCiR8opS7q21o3NpjGTbnxBuFmW"], "asm": "OP_DUP OP_HASH160 6953b1937cc5034acd5a3a01887ebfb231a1ba06 OP_EQUALVERIFY OP_CHECKSIG", "type": "pubkeyhash"}, "value": 0.00780884, "n": 0}, {"scriptPubKey": {"reqSigs": 1, "hex": "00140099d1b72d6e1b7c499884bd34f4ef3b29d41a4c", "addresses": ["bc1qqzvardeddcdhcjvcsj7nfa808v5agxjvga0lrt"], "asm": "0 0099d1b72d6e1b7c499884bd34f4ef3b29d41a4c", "type": "witness_v0_keyhash"}, "value": 0.00333402, "n": 1}], "hex": "010000000001010c7d6a6aace05c0da1b4c6757b77e68bb77a4587d28680e5dd49914ee0f587e1000000001716001456c605a6443d7ab21053efc948ffd9709c230fadffffffff0254ea0b00000000001976a9146953b1937cc5034acd5a3a01887ebfb231a1ba0688ac5a160500000000001600140099d1b72d6e1b7c499884bd34f4ef3b29d41a4c024730440220126030e046365c783dff77fef1979d344b4d7153a91e4b2439b346aff823b1a9022045b73a8b50ef9cfe8acb39b670c560a6f0b49847d0cb2c7fe216debdb0b4431c012102e30d6690bd4377a7c14e3a6d35c6df4c218696d0cb10f3d5ea42c50bdd2cfab300000000", "vin": [{"txinwitness": ["30440220126030e046365c783dff77fef1979d344b4d7153a91e4b2439b346aff823b1a9022045b73a8b50ef9cfe8acb39b670c560a6f0b49847d0cb2c7fe216debdb0b4431c01", "02e30d6690bd4377a7c14e3a6d35c6df4c218696d0cb10f3d5ea42c50bdd2cfab3"], "sequence": 4294967295, "scriptSig": {"hex": "16001456c605a6443d7ab21053efc948ffd9709c230fad", "asm": "001456c605a6443d7ab21053efc948ffd9709c230fad"}, "vout": 0, "txid": "e187f5e04e9149dde58086d287457ab78be6777b75c6b4a10d5ce0ac6a6a7d0c"}], "txid": "bc97c34277e999d30545d2f4e02e2cd434ecabd97f10c316719c1ff221e3c376", "blocktime": 1537873282, "version": 1, "confirmations": 11484, "time": 1537873282, "locktime": 0, "vsize": 167, "size": 248}