{"hash": "52ff985bc7620690acd1de35e11d470a2a3fcfe6c7da04ae67eb4cc7a25e354f", "blockhash": "0000000000000000000e13cef7c366c0283d82e591d1acd082e914b08063cdf1", "vout": [{"scriptPubKey": {"reqSigs": 1, "hex": "00148c56cfd2c931b90039e4177295a61105ad2995d9", "addresses": ["bc1q33tvl5kfxxusqw0yzaeftfs3qkkjn9wez4wxqy"], "asm": "0 8c56cfd2c931b90039e4177295a61105ad2995d9", "type": "witness_v0_keyhash"}, "value": 6.144e-05, "n": 0}, {"scriptPubKey": {"reqSigs": 1, "hex": "76a9148725a9024d4bf3ef0badbb4cb4913b278358373888ac", "addresses": ["1DKbLaEqA98Ybg1g6J229rd4Ftijn3H9tH"], "asm": "OP_DUP OP_HASH160 8725a9024d4bf3ef0badbb4cb4913b2783583738 OP_EQUALVERIFY OP_CHECKSIG", "type": "pubkeyhash"}, "value": 0.001, "n": 1}], "hex": "010000000001012bf03647701c8d3724aa30dc5f9e8c99de3a042636686047c263862010fe10eb570a00001716001422f409a4a54e1bac8855748aa6fe41d8cc707a0fffffffff0200180000000000001600148c56cfd2c931b90039e4177295a61105ad2995d9a0860100000000001976a9148725a9024d4bf3ef0badbb4cb4913b278358373888ac0247304402201407a2a99521158cff9ba1733408cdbe5e1b2b8aee522d3ec51786159eaf252802206efbbac0f0f56ca66d90aa95ea122d6b911ff30b7d44a0aafcf6139ea53e96ea012103e93b4faf7a74697b70b7da239066fbb36d0805c192044532311a55fc6a25299c00000000", "vin": [{"txinwitness": ["304402201407a2a99521158cff9ba1733408cdbe5e1b2b8aee522d3ec51786159eaf252802206efbbac0f0f56ca66d90aa95ea122d6b911ff30b7d44a0aafcf6139ea53e96ea01", "03e93b4faf7a74697b70b7da239066fbb36d0805c192044532311a55fc6a25299c"], "sequence": 4294967295, "scriptSig": {"hex": "16001422f409a4a54e1bac8855748aa6fe41d8cc707a0f", "asm": "001422f409a4a54e1bac8855748aa6fe41d8cc707a0f"}, "vout": 2647, "txid": "eb10fe10208663c24760683626043ade998c9e5fdc30aa24378d1c704736f02b"}], "txid": "bc97900c5b86da535124ddaee699988e656b574ea1719dbc8523577225357ff1", "blocktime": 1537871767, "version": 1, "confirmations": 11495, "time": 1537871767, "locktime": 0, "vsize": 167, "size": 248}