{"hash": "c7bcf032c3d972e61284b47147f871d22a888fec4460cae8256ac70b5ddefcd3", "blockhash": "0000000000000000001f76057863aec43deb6fa401d9628bb513d65a8098bfab", "vout": [{"scriptPubKey": {"reqSigs": 1, "hex": "76a9148d3ea1a917d300e0b527fa1e7ad4fc2222d9f33288ac", "addresses": ["1DsqJm5puCeVDWDfNDptpGHkVQrtG5a3aQ"], "asm": "OP_DUP OP_HASH160 8d3ea1a917d300e0b527fa1e7ad4fc2222d9f332 OP_EQUALVERIFY OP_CHECKSIG", "type": "pubkeyhash"}, "value": 0.0027256, "n": 0}, {"scriptPubKey": {"reqSigs": 1, "hex": "a91426a2c69fdccbbc768ef08320ba1ee84c2c76a33b87", "addresses": ["35DJbhXPbuV2espnxhAYDA4koREaqJQa15"], "asm": "OP_HASH160 26a2c69fdccbbc768ef08320ba1ee84c2c76a33b OP_EQUAL", "type": "scripthash"}, "value": 0.01000428, "n": 1}], "hex": "020000000001025609204c4b282ee54c5a470f755fd7bf92021377947d0c9bb5a41b0e308a89a10000000017160014d3535d05d52bcbb4d1031098a5e2b41e44160668feffffffb063e69225b7ee6f99d94385c2c0cc5a14d4a4d2b21be1c6bcb0442b46f4866d00000000171600146c90095c3eeb4bbd256c47f73729c485cdcfc97cfeffffff02b0280400000000001976a9148d3ea1a917d300e0b527fa1e7ad4fc2222d9f33288acec430f000000000017a91426a2c69fdccbbc768ef08320ba1ee84c2c76a33b870247304402207c4df1971886114a1dd6cdb3f5495abf5c5fd3224a7d4b89eb8414d63f6860b1022063f7f33db76e1597b0c9bdde2ddc86397d8498126328e7c52777def4a7fbe4cb012102408990fd531829676ae0fc2f6cc7c39d4f172f27d699d5cdb4abee5f34c86c820247304402201935b3cfeece57958ce1097cda321c58ca4700a37b8faca29807944b0194ddf4022023e8f29fc52f078ef31982bc60a773883787112073be5ffd435bdcf99803545a01210339a256da8293657e037dbd223dc4357d1fc1472bea3a8d2bcd3ebe034cf68a0914490800", "vin": [{"txinwitness": ["304402207c4df1971886114a1dd6cdb3f5495abf5c5fd3224a7d4b89eb8414d63f6860b1022063f7f33db76e1597b0c9bdde2ddc86397d8498126328e7c52777def4a7fbe4cb01", "02408990fd531829676ae0fc2f6cc7c39d4f172f27d699d5cdb4abee5f34c86c82"], "sequence": 4294967294, "scriptSig": {"hex": "160014d3535d05d52bcbb4d1031098a5e2b41e44160668", "asm": "0014d3535d05d52bcbb4d1031098a5e2b41e44160668"}, "vout": 0, "txid": "a1898a300e1ba4b59b0c7d9477130292bfd75f750f475a4ce52e284b4c200956"}, {"txinwitness": ["304402201935b3cfeece57958ce1097cda321c58ca4700a37b8faca29807944b0194ddf4022023e8f29fc52f078ef31982bc60a773883787112073be5ffd435bdcf99803545a01", "0339a256da8293657e037dbd223dc4357d1fc1472bea3a8d2bcd3ebe034cf68a09"], "sequence": 4294967294, "scriptSig": {"hex": "1600146c90095c3eeb4bbd256c47f73729c485cdcfc97c", "asm": "00146c90095c3eeb4bbd256c47f73729c485cdcfc97c"}, "vout": 0, "txid": "6d86f4462b44b0bcc6e11bb2d2a4d4145accc0c28543d9996feeb72592e663b0"}], "txid": "bca95671b60a247bd52ab0932259ea359b770555b43c8728ad2250c76cbdd630", "blocktime": 1537873891, "version": 2, "confirmations": 11478, "time": 1537873891, "locktime": 542996, "vsize": 258, "size": 420}