{"hash": "c6a685eed32af72415ab7fec625e3d41689494317294d1964d06b2d76908218d", "blockhash": "0000000000000000000e13cef7c366c0283d82e591d1acd082e914b08063cdf1", "vout": [{"scriptPubKey": {"reqSigs": 1, "hex": "a91447e2a14d0379e070ba23242708197c8d9139bbdf87", "addresses": ["38F7PhRjPLe8hfjBAYxHqhfCRJvb9wMMGm"], "asm": "OP_HASH160 47e2a14d0379e070ba23242708197c8d9139bbdf OP_EQUAL", "type": "scripthash"}, "value": 0.11, "n": 0}, {"scriptPubKey": {"reqSigs": 1, "hex": "001429817efacf9619f7c7485dae7f24f032031c224d", "addresses": ["bc1q9xqha7k0jcvl036gtkh87f8sxgp3cgjdk8csfy"], "asm": "0 29817efacf9619f7c7485dae7f24f032031c224d", "type": "witness_v0_keyhash"}, "value": 1.62203257, "n": 1}], "hex": "010000000001015954df30f51bed1f0b07b832d9d2a8f5967a7519f8ccc5ee02a4ecbed8fb562a0000000000ffffffff02c0d8a7000000000017a91447e2a14d0379e070ba23242708197c8d9139bbdf877906ab090000000016001429817efacf9619f7c7485dae7f24f032031c224d0247304402204994e1676aefa2d3e6786b3a8dfeaf093f35307435614c3e394b41a0df811da0022032e2b14905891749d4fd23229e300de2ae19d0397c3bf53dc593a3afc3e03e9f0121039ccb2ada9e317f6051f865b64fd266d2abef146baa959918a799de15d9dd02b400000000", "vin": [{"txinwitness": ["304402204994e1676aefa2d3e6786b3a8dfeaf093f35307435614c3e394b41a0df811da0022032e2b14905891749d4fd23229e300de2ae19d0397c3bf53dc593a3afc3e03e9f01", "039ccb2ada9e317f6051f865b64fd266d2abef146baa959918a799de15d9dd02b4"], "sequence": 4294967295, "scriptSig": {"hex": "", "asm": ""}, "vout": 0, "txid": "2a56fbd8beeca402eec5ccf819757a96f5a8d2d932b8070b1fed1bf530df5459"}], "txid": "bcb0c4a38d53cc7b3dc1b2b159a2ef60312255c49f6d52903e307807017f0679", "blocktime": 1537871767, "version": 1, "confirmations": 11495, "time": 1537871767, "locktime": 0, "vsize": 142, "size": 223}