{"hash": "bcb2fef7dc0044f95e77d085998e3bd71a8859c4ca121dbf81c405a0e3d041be", "blockhash": "0000000000000000001e0dab787dd257d1dbfcb92a98c2207d5e1078be1f4165", "vout": [{"scriptPubKey": {"reqSigs": 1, "hex": "a91458d6e81bccb8c2bb31ce2fe60aff226e68ccf36987", "addresses": ["39nkqQHgnvWrVefywK3XgxDqYvogrHuws7"], "asm": "OP_HASH160 58d6e81bccb8c2bb31ce2fe60aff226e68ccf369 OP_EQUAL", "type": "scripthash"}, "value": 0.0010221, "n": 0}, {"scriptPubKey": {"reqSigs": 1, "hex": "00148da7cb227920bcd124f7b0d0e135cca0e687e476", "addresses": ["bc1q3knukgneyz7dzf8hkrgwzdwv5rng0erkhp9kdk"], "asm": "0 8da7cb227920bcd124f7b0d0e135cca0e687e476", "type": "witness_v0_keyhash"}, "value": 2.883e-05, "n": 1}], "hex": "01000000016bb5fa20c29d9f746fb3bc4016cb44b4f0df2967da4aef589d9f777d62ea29c12f0000006a47304402204ff4c866cb8b4c26c573923f4605e82fb0fd7e4a915423586a8dd85ae28d4bae022062de6b6e38647505beda760a84b22c5a28150852637ae1aee3a456ec93558abe0121023382ea190612446bc46db179a86b22acb556d461fa6ce054b09929d2d907b182ffffffff02428f01000000000017a91458d6e81bccb8c2bb31ce2fe60aff226e68ccf36987430b0000000000001600148da7cb227920bcd124f7b0d0e135cca0e687e47600000000", "vin": [{"sequence": 4294967295, "scriptSig": {"hex": "47304402204ff4c866cb8b4c26c573923f4605e82fb0fd7e4a915423586a8dd85ae28d4bae022062de6b6e38647505beda760a84b22c5a28150852637ae1aee3a456ec93558abe0121023382ea190612446bc46db179a86b22acb556d461fa6ce054b09929d2d907b182", "asm": "304402204ff4c866cb8b4c26c573923f4605e82fb0fd7e4a915423586a8dd85ae28d4bae022062de6b6e38647505beda760a84b22c5a28150852637ae1aee3a456ec93558abe[ALL] 023382ea190612446bc46db179a86b22acb556d461fa6ce054b09929d2d907b182"}, "vout": 47, "txid": "c129ea627d779f9d58ef4ada6729dff0b444cb1640bcb36f749f9dc220fab56b"}], "txid": "bcb2fef7dc0044f95e77d085998e3bd71a8859c4ca121dbf81c405a0e3d041be", "blocktime": 1537872475, "version": 1, "confirmations": 11486, "time": 1537872475, "locktime": 0, "vsize": 220, "size": 220}