{"hash": "bcb5ec9247104a8acf7bba181dd5422f755b3f6a2cef19f819546a2810549a0f", "blockhash": "0000000000000000000baef3f32e3676a92c3b2e5da21b426e4f302fc371ce76", "vout": [{"scriptPubKey": {"reqSigs": 1, "hex": "76a914e61d78a654905663dc8db33b140f305e4914a6c488ac", "addresses": ["1MyjipgACcvot4xKckaCQacFW1X7zfknCP"], "asm": "OP_DUP OP_HASH160 e61d78a654905663dc8db33b140f305e4914a6c4 OP_EQUALVERIFY OP_CHECKSIG", "type": "pubkeyhash"}, "value": 0.0015666, "n": 0}, {"scriptPubKey": {"reqSigs": 1, "hex": "76a9145660de217429a700a03fb4be23b1f4361d35232188ac", "addresses": ["18sj9z22aMNBJJddJSXHkpTqwQSaL3F2HW"], "asm": "OP_DUP OP_HASH160 5660de217429a700a03fb4be23b1f4361d352321 OP_EQUALVERIFY OP_CHECKSIG", "type": "pubkeyhash"}, "value": 0.07151307, "n": 1}], "hex": "01000000017be9a142217c54ea45f94b42b7167d3206239ecc0ae0f894ea8a970cf3678f1b010000006a47304402207db5890e61ae7ad0ab2e1b8a2eac662897ca1ed489461822cb38f0ed80089d970220757e5a5fc0ac58f325f25d2de1d1a4de6a40fea6fc7cee5f05946d3c9585fc38012103ffadf459ca3e988ffed72491bbd694fb17ba3d6d855290be01026b59e17cb179ffffffff02f4630200000000001976a914e61d78a654905663dc8db33b140f305e4914a6c488accb1e6d00000000001976a9145660de217429a700a03fb4be23b1f4361d35232188ac00000000", "vin": [{"sequence": 4294967295, "scriptSig": {"hex": "47304402207db5890e61ae7ad0ab2e1b8a2eac662897ca1ed489461822cb38f0ed80089d970220757e5a5fc0ac58f325f25d2de1d1a4de6a40fea6fc7cee5f05946d3c9585fc38012103ffadf459ca3e988ffed72491bbd694fb17ba3d6d855290be01026b59e17cb179", "asm": "304402207db5890e61ae7ad0ab2e1b8a2eac662897ca1ed489461822cb38f0ed80089d970220757e5a5fc0ac58f325f25d2de1d1a4de6a40fea6fc7cee5f05946d3c9585fc38[ALL] 03ffadf459ca3e988ffed72491bbd694fb17ba3d6d855290be01026b59e17cb179"}, "vout": 1, "txid": "1b8f67f30c978aea94f8e00acc9e2306327d16b7424bf945ea547c2142a1e97b"}], "txid": "bcb5ec9247104a8acf7bba181dd5422f755b3f6a2cef19f819546a2810549a0f", "blocktime": 1537876114, "version": 1, "confirmations": 11460, "time": 1537876114, "locktime": 0, "vsize": 225, "size": 225}