{"hash": "fe21e833b2b1c8987ef1f67b7c2fb0cc59bccbfe7b60dddd6481e5a27769c931", "blockhash": "0000000000000000000e13cef7c366c0283d82e591d1acd082e914b08063cdf1", "vout": [{"scriptPubKey": {"reqSigs": 1, "hex": "76a9146a0bf1e4308250cddf4daf13d47a48184c82c6e888ac", "addresses": ["1AfiwHCupvtFg35M5UbsbeGPDPGQThzQ2P"], "asm": "OP_DUP OP_HASH160 6a0bf1e4308250cddf4daf13d47a48184c82c6e8 OP_EQUALVERIFY OP_CHECKSIG", "type": "pubkeyhash"}, "value": 0.202175, "n": 0}, {"scriptPubKey": {"reqSigs": 1, "hex": "a914de72c90a62cef78934b22fb91e610f951cf3270687", "addresses": ["3MyDSZ4YFgXwd6so82UQFzWzBZvzJzBLhj"], "asm": "OP_HASH160 de72c90a62cef78934b22fb91e610f951cf32706 OP_EQUAL", "type": "scripthash"}, "value": 6.30935829, "n": 1}], "hex": "010000000001019c8b49d77069f908086a1ec993c67141949821468b71628fb3c475e04b86bd600100000017160014cd0391f4a055420267b7f5e89896a0b0b29421acffffff00029c7e3401000000001976a9146a0bf1e4308250cddf4daf13d47a48184c82c6e888ac15519b250000000017a914de72c90a62cef78934b22fb91e610f951cf327068702473044022053e917b45d0e38d866aa046fe2acb617ba9a49aaef9658164320d6a1cb3f717a0220323fbf1f667cb336fc62f847b367e278ac0052c91b22704a6a910e7e788859c3012103ff9086efb34108c3a99ea525c7beb970187450a5ad4b2bcf2464fac62d50cdc500000000", "vin": [{"txinwitness": ["3044022053e917b45d0e38d866aa046fe2acb617ba9a49aaef9658164320d6a1cb3f717a0220323fbf1f667cb336fc62f847b367e278ac0052c91b22704a6a910e7e788859c301", "03ff9086efb34108c3a99ea525c7beb970187450a5ad4b2bcf2464fac62d50cdc5"], "sequence": 16777215, "scriptSig": {"hex": "160014cd0391f4a055420267b7f5e89896a0b0b29421ac", "asm": "0014cd0391f4a055420267b7f5e89896a0b0b29421ac"}, "vout": 1, "txid": "60bd864be075c4b38f62718b462198944171c693c91e6a0808f96970d7498b9c"}], "txid": "bcbdf07dcfdd144a81723dcadcff89b79508d31b5d60accbb23c28371d02d18d", "blocktime": 1537871767, "version": 1, "confirmations": 11493, "time": 1537871767, "locktime": 0, "vsize": 168, "size": 249}