{"hash": "bcbe65e5d82bf3a445f75170c7daf3df47c08e12e4bbf7136cd1c8bf9c7baaa5", "blockhash": "0000000000000000001e0dab787dd257d1dbfcb92a98c2207d5e1078be1f4165", "vout": [{"scriptPubKey": {"reqSigs": 1, "hex": "76a914dc33bdc8e0fab03a8ceceec78c0182d21d630b9b88ac", "addresses": ["1M5KeFm2YjvZXbBE8CujNTcxYz2DAQDmNB"], "asm": "OP_DUP OP_HASH160 dc33bdc8e0fab03a8ceceec78c0182d21d630b9b OP_EQUALVERIFY OP_CHECKSIG", "type": "pubkeyhash"}, "value": 0.00139344, "n": 0}, {"scriptPubKey": {"type": "nulldata", "hex": "6a4c50000077b90001d6d5c92c0fd00b78d3393bafe5bf9ae76da98a211aaf6c953dd567cf27e73c0877eeca33786294573d0bc4a4cecf5baa11f506127da7d2117837bc9a9526289ac0f6612cd74e33776ee4", "asm": "OP_RETURN 000077b90001d6d5c92c0fd00b78d3393bafe5bf9ae76da98a211aaf6c953dd567cf27e73c0877eeca33786294573d0bc4a4cecf5baa11f506127da7d2117837bc9a9526289ac0f6612cd74e33776ee4"}, "value": 0.0, "n": 1}], "hex": "0100000001d97ac953668cbafe2fe0ef535856c8274a0bf560425c5c87663e5071f02e4b65010000006a47304402205e799f95c23facbd6beb1e5852ed030c0da6b42a7feda7e28015b050a3d0cc1302202657160ef60dabdcda1a6adb7c04ffaf1baddff06257f53aa635ac98fc2b33ad01210265e9f70014a00cc855b83e95132426716e3b886445e79033009e8628b19acbb0ffffffff0250200200000000001976a914dc33bdc8e0fab03a8ceceec78c0182d21d630b9b88ac0000000000000000536a4c50000077b90001d6d5c92c0fd00b78d3393bafe5bf9ae76da98a211aaf6c953dd567cf27e73c0877eeca33786294573d0bc4a4cecf5baa11f506127da7d2117837bc9a9526289ac0f6612cd74e33776ee400000000", "vin": [{"sequence": 4294967295, "scriptSig": {"hex": "47304402205e799f95c23facbd6beb1e5852ed030c0da6b42a7feda7e28015b050a3d0cc1302202657160ef60dabdcda1a6adb7c04ffaf1baddff06257f53aa635ac98fc2b33ad01210265e9f70014a00cc855b83e95132426716e3b886445e79033009e8628b19acbb0", "asm": "304402205e799f95c23facbd6beb1e5852ed030c0da6b42a7feda7e28015b050a3d0cc1302202657160ef60dabdcda1a6adb7c04ffaf1baddff06257f53aa635ac98fc2b33ad[ALL] 0265e9f70014a00cc855b83e95132426716e3b886445e79033009e8628b19acbb0"}, "vout": 1, "txid": "654b2ef071503e66875c5c4260f50b4a27c8565853efe02ffeba8c6653c97ad9"}], "txid": "bcbe65e5d82bf3a445f75170c7daf3df47c08e12e4bbf7136cd1c8bf9c7baaa5", "blocktime": 1537872475, "version": 1, "confirmations": 11486, "time": 1537872475, "locktime": 0, "vsize": 283, "size": 283}