{"hash": "78f0b4e65d7a90769b6ea67f72da6fe5f050640290d691234ab61eac5a50c0e7", "blockhash": "0000000000000000001f76057863aec43deb6fa401d9628bb513d65a8098bfab", "vout": [{"scriptPubKey": {"reqSigs": 1, "hex": "76a9149a1b8f9b1fa2d2297863adb1cb11c71df455684888ac", "addresses": ["1F3r5We2zwNiSzG6GQUTTWnnPMCz2HJbJu"], "asm": "OP_DUP OP_HASH160 9a1b8f9b1fa2d2297863adb1cb11c71df4556848 OP_EQUALVERIFY OP_CHECKSIG", "type": "pubkeyhash"}, "value": 2.69e-05, "n": 0}, {"scriptPubKey": {"reqSigs": 1, "hex": "a914e8db75c900cf08f06518e96d167331f2a4abfb3387", "addresses": ["3NvFbQMAkkqEFj4i1sYPPLkSWzxTFUchjA"], "asm": "OP_HASH160 e8db75c900cf08f06518e96d167331f2a4abfb33 OP_EQUAL", "type": "scripthash"}, "value": 0.00107422, "n": 1}], "hex": "01000000000101a12ee4e27006fd1af3d5e520a485a5585b6af51a706b52d8a2aa3a2cd0e96c730100000023220020941cfaff8837763dc1f69ff82b6d6553fdea17a41cfc29a04403293eedd8ccc7ffffffff02820a0000000000001976a9149a1b8f9b1fa2d2297863adb1cb11c71df455684888ac9ea301000000000017a914e8db75c900cf08f06518e96d167331f2a4abfb3387040047304402203a020184d45e276c1cdef25372f39a92a7ea16cf19a8db7aa82171964b0c3b61022035f701ece1edab28cb5236b25aa2f09524ebb650e20f41cbe6869efce91909970147304402203c4430d2504607acbc78a5b3a0537f138dbfc9b556d4295244c18e2782fabc1c0220104c427c5812b582ae5e2f2b35b596c57bc465777029592626e11b8298d2fb890147522102531db3a5883f29bab4241dd0cd726936667bcda445d89bdd22244e828b6993342103148c80a5bdfddb05ff5bcffc397c8ca748d8b435ec6a175bc9d7bfc7fc6f853752ae00000000", "vin": [{"txinwitness": ["", "304402203a020184d45e276c1cdef25372f39a92a7ea16cf19a8db7aa82171964b0c3b61022035f701ece1edab28cb5236b25aa2f09524ebb650e20f41cbe6869efce919099701", "304402203c4430d2504607acbc78a5b3a0537f138dbfc9b556d4295244c18e2782fabc1c0220104c427c5812b582ae5e2f2b35b596c57bc465777029592626e11b8298d2fb8901", "522102531db3a5883f29bab4241dd0cd726936667bcda445d89bdd22244e828b6993342103148c80a5bdfddb05ff5bcffc397c8ca748d8b435ec6a175bc9d7bfc7fc6f853752ae"], "sequence": 4294967295, "scriptSig": {"hex": "220020941cfaff8837763dc1f69ff82b6d6553fdea17a41cfc29a04403293eedd8ccc7", "asm": "0020941cfaff8837763dc1f69ff82b6d6553fdea17a41cfc29a04403293eedd8ccc7"}, "vout": 1, "txid": "736ce9d02c3aaaa2d8526b701af56a5b58a585a420e5d5f31afd0670e2e42ea1"}], "txid": "bcc38aee390359714ac435926164d9c5c977b8bd28940c65a8fda34cff10dae3", "blocktime": 1537873891, "version": 1, "confirmations": 11478, "time": 1537873891, "locktime": 0, "vsize": 207, "size": 372}