{"hash": "034535791e8a3544d7fc0ba6968b69f3fd30e257b9187a44b755594e9f38789e", "blockhash": "0000000000000000001cda96e906b7601b7a6fb1a3b62bca570a9e5d8f4b3de1", "vout": [{"scriptPubKey": {"reqSigs": 1, "hex": "a9144dc129417dfcb05a47989ac10a0832b539b9ca4d87", "addresses": ["38n9MPQNFyG72gX7qdRE3HhbtK2ycV5WGQ"], "asm": "OP_HASH160 4dc129417dfcb05a47989ac10a0832b539b9ca4d OP_EQUAL", "type": "scripthash"}, "value": 0.010646, "n": 0}, {"scriptPubKey": {"reqSigs": 1, "hex": "a914a42c698a6ff6b634f52fde05856215ae0a4b39ae87", "addresses": ["3Gf5wpf2Ythm3hK3H3aWZWM4SdBsNGnXyj"], "asm": "OP_HASH160 a42c698a6ff6b634f52fde05856215ae0a4b39ae OP_EQUAL", "type": "scripthash"}, "value": 0.0124, "n": 1}], "hex": "020000000001020287ba3009cb4e7a0e93454db7d8e5b9197bc6a94c22ad73cc376bc0e952546801000000171600148f035c4613951de7ae9666499d73d5f132c1ae5cfdffffff2a12375715b36f5d15338c6a074d4c4aecfab163b79e126ddf425945bc1bfc060100000017160014297c85ab0699d3f98faede768b6f29af0ad11ccdfdffffff02983e10000000000017a9144dc129417dfcb05a47989ac10a0832b539b9ca4d87c0eb12000000000017a914a42c698a6ff6b634f52fde05856215ae0a4b39ae8702473044022036627a2e5aee4e51ce062298fb343421f7fa4727bad1739a42917861810428b302203cf63986531edbcef1cb44dbea63b9b46a068cdacde72017f68aa905266048a2012102c1130d756069ac97b603b49df816657e5750860cf4934d4fae2cfc2d5f466a3a0248304502210087cd8e669b9b9abddd89878a00c659cdc84d65f991194ced68ab0be44b5914b702206f7881c04b7b7a4b99985a4577dbd63977b9ac591dd6c2fa181cc97d4f639fbc01210305218b67476e9172186de800043d637275e881e3c27143e1d4bc1def7d63e81613490800", "vin": [{"txinwitness": ["3044022036627a2e5aee4e51ce062298fb343421f7fa4727bad1739a42917861810428b302203cf63986531edbcef1cb44dbea63b9b46a068cdacde72017f68aa905266048a201", "02c1130d756069ac97b603b49df816657e5750860cf4934d4fae2cfc2d5f466a3a"], "sequence": 4294967293, "scriptSig": {"hex": "1600148f035c4613951de7ae9666499d73d5f132c1ae5c", "asm": "00148f035c4613951de7ae9666499d73d5f132c1ae5c"}, "vout": 1, "txid": "685452e9c06b37cc73ad224ca9c67b19b9e5d8b74d45930e7a4ecb0930ba8702"}, {"txinwitness": ["304502210087cd8e669b9b9abddd89878a00c659cdc84d65f991194ced68ab0be44b5914b702206f7881c04b7b7a4b99985a4577dbd63977b9ac591dd6c2fa181cc97d4f639fbc01", "0305218b67476e9172186de800043d637275e881e3c27143e1d4bc1def7d63e816"], "sequence": 4294967293, "scriptSig": {"hex": "160014297c85ab0699d3f98faede768b6f29af0ad11ccd", "asm": "0014297c85ab0699d3f98faede768b6f29af0ad11ccd"}, "vout": 1, "txid": "06fc1bbc455942df6d129eb763b1faec4a4c4d076a8c33155d6fb3155737122a"}], "txid": "bcc4e81564622afb4bf7b842b3ccad9fe8fad3c4c4a99f3fb45c8db768c95740", "blocktime": 1537873282, "version": 2, "confirmations": 11484, "time": 1537873282, "locktime": 542995, "vsize": 257, "size": 419}