{"hash": "bcc52a8bdd492e983d6f45b23cb9f4be06cb9a88ef3884a35213cfc843cf3c3d", "blockhash": "0000000000000000000baef3f32e3676a92c3b2e5da21b426e4f302fc371ce76", "vout": [{"scriptPubKey": {"type": "nulldata", "hex": "6a4c50000078060001a11da0fe281f0e23e68ed950702940d64fa54d8eb2d19ed074892d00f8e87642e4e669468212af2faafdb5b130845baa1ab00613342795073ea91d100759d4ba30d2c37bb011d97e02cf", "asm": "OP_RETURN 000078060001a11da0fe281f0e23e68ed950702940d64fa54d8eb2d19ed074892d00f8e87642e4e669468212af2faafdb5b130845baa1ab00613342795073ea91d100759d4ba30d2c37bb011d97e02cf"}, "value": 0.0, "n": 0}, {"scriptPubKey": {"reqSigs": 1, "hex": "76a91425ec07657f294c28e08a013d446a0678c611938c88ac", "addresses": ["14TWkg1tYvWYMQLAzdAJFQeiPaN7naQwAg"], "asm": "OP_DUP OP_HASH160 25ec07657f294c28e08a013d446a0678c611938c OP_EQUALVERIFY OP_CHECKSIG", "type": "pubkeyhash"}, "value": 0.0063581, "n": 1}], "hex": "0100000001c734f62339e5d2976b0908f60d13c58a7c51fa0e4aad8d5177cb920b998d770d000000006b4830450221009b4a53c58b8c070e43ae18fa65f8d6c890ca52e8025bfe7f16c40ca15df3ebd80220365b08147ce5b3059397c8f1c77c1750723b317e4dbdb0b9702690d603c2f80a012102d18cceaa581daeba2bef27f1832e812563f88263dfe4066950d18f39655010dfffffffff020000000000000000536a4c50000078060001a11da0fe281f0e23e68ed950702940d64fa54d8eb2d19ed074892d00f8e87642e4e669468212af2faafdb5b130845baa1ab00613342795073ea91d100759d4ba30d2c37bb011d97e02cfa2b30900000000001976a91425ec07657f294c28e08a013d446a0678c611938c88ac00000000", "vin": [{"sequence": 4294967295, "scriptSig": {"hex": "4830450221009b4a53c58b8c070e43ae18fa65f8d6c890ca52e8025bfe7f16c40ca15df3ebd80220365b08147ce5b3059397c8f1c77c1750723b317e4dbdb0b9702690d603c2f80a012102d18cceaa581daeba2bef27f1832e812563f88263dfe4066950d18f39655010df", "asm": "30450221009b4a53c58b8c070e43ae18fa65f8d6c890ca52e8025bfe7f16c40ca15df3ebd80220365b08147ce5b3059397c8f1c77c1750723b317e4dbdb0b9702690d603c2f80a[ALL] 02d18cceaa581daeba2bef27f1832e812563f88263dfe4066950d18f39655010df"}, "vout": 0, "txid": "0d778d990b92cb77518dad4a0efa517c8ac5130df608096b97d2e53923f634c7"}], "txid": "bcc52a8bdd492e983d6f45b23cb9f4be06cb9a88ef3884a35213cfc843cf3c3d", "blocktime": 1537876114, "version": 1, "confirmations": 11460, "time": 1537876114, "locktime": 0, "vsize": 284, "size": 284}