{"hash": "bcce6a5e41c54fdc5902a419ab22cce905e5af81743799913bae2f585d819109", "blockhash": "00000000000000000024a2167bbff67b0be802c0b01cdd79e6331c2be6459f87", "vout": [{"scriptPubKey": {"reqSigs": 1, "hex": "a914ba428e0ec8322832bbe7396dd16a1ec69ced9e4f87", "addresses": ["3JfsLYJy9CacPmAzN1UndvtxZTbhCfaxYz"], "asm": "OP_HASH160 ba428e0ec8322832bbe7396dd16a1ec69ced9e4f OP_EQUAL", "type": "scripthash"}, "value": 0.0006, "n": 0}, {"scriptPubKey": {"reqSigs": 1, "hex": "76a914e349bc52d6b8100b58d3fce45135a91c5c128a1d88ac", "addresses": ["1MiningDkXkhKaXBTMKXfLemnk1YY5rbkT"], "asm": "OP_DUP OP_HASH160 e349bc52d6b8100b58d3fce45135a91c5c128a1d OP_EQUALVERIFY OP_CHECKSIG", "type": "pubkeyhash"}, "value": 0.22607972, "n": 1}], "hex": "020000000184ef2340466955bc8c75011f8c8e4bb4c76a498e0af4029cc1b4033ab938f424010000008a473044022007366d14f3e2b2a61506ff4599ecb961a334720f19cd85e636e63adf74d25bd202202c4aed6f3325bc6b0421bff83d5217c897a5b0349ff39e3d801a41c1bb51e4e3014104ae414abde7876c34e01694b38b2341d10b9b4c8db18a66262bd8df26bcb57893885c9fe8b79aa25330d5f05bb5aa9ab636a908a72e27956572b44190b22809beffffffff0260ea00000000000017a914ba428e0ec8322832bbe7396dd16a1ec69ced9e4f8764f85801000000001976a914e349bc52d6b8100b58d3fce45135a91c5c128a1d88ac00000000", "vin": [{"sequence": 4294967295, "scriptSig": {"hex": "473044022007366d14f3e2b2a61506ff4599ecb961a334720f19cd85e636e63adf74d25bd202202c4aed6f3325bc6b0421bff83d5217c897a5b0349ff39e3d801a41c1bb51e4e3014104ae414abde7876c34e01694b38b2341d10b9b4c8db18a66262bd8df26bcb57893885c9fe8b79aa25330d5f05bb5aa9ab636a908a72e27956572b44190b22809be", "asm": "3044022007366d14f3e2b2a61506ff4599ecb961a334720f19cd85e636e63adf74d25bd202202c4aed6f3325bc6b0421bff83d5217c897a5b0349ff39e3d801a41c1bb51e4e3[ALL] 04ae414abde7876c34e01694b38b2341d10b9b4c8db18a66262bd8df26bcb57893885c9fe8b79aa25330d5f05bb5aa9ab636a908a72e27956572b44190b22809be"}, "vout": 1, "txid": "24f438b93a03b4c19c02f40a8e496ac7b44b8e8c1f01758cbc5569464023ef84"}], "txid": "bcce6a5e41c54fdc5902a419ab22cce905e5af81743799913bae2f585d819109", "blocktime": 1537870564, "version": 2, "confirmations": 11515, "time": 1537870564, "locktime": 0, "vsize": 255, "size": 255}