{"hash": "bccf66c8fdb98c95558412488cfa90231324baa17556ac88319e11abd06a1511", "blockhash": "0000000000000000001f76057863aec43deb6fa401d9628bb513d65a8098bfab", "vout": [{"scriptPubKey": {"reqSigs": 1, "hex": "76a914b9de57addb5277177134024292ad0d9cc67269e388ac", "addresses": ["1HwnN7je6koHBvuYgQPd7vgWKAaJtqXvDy"], "asm": "OP_DUP OP_HASH160 b9de57addb5277177134024292ad0d9cc67269e3 OP_EQUALVERIFY OP_CHECKSIG", "type": "pubkeyhash"}, "value": 0.03199526, "n": 0}], "hex": "0100000001a924ab7987f0c16f395c3de0711a6021d14ae63f78b4671d6894c6d5df76b1fb130000006a4730440220197beea509b1cef319825e6977468b8593dc283df199c05a98c6e814744151b40220073b24e8735fc7ff7740e63325dad452e59b538f7da6396187835761a123fc66012102473dc7f33fd30c6620fefff037fd037d20aca68226bb6318e21ba08e6293b5f8ffffffff0126d23000000000001976a914b9de57addb5277177134024292ad0d9cc67269e388ac00000000", "vin": [{"sequence": 4294967295, "scriptSig": {"hex": "4730440220197beea509b1cef319825e6977468b8593dc283df199c05a98c6e814744151b40220073b24e8735fc7ff7740e63325dad452e59b538f7da6396187835761a123fc66012102473dc7f33fd30c6620fefff037fd037d20aca68226bb6318e21ba08e6293b5f8", "asm": "30440220197beea509b1cef319825e6977468b8593dc283df199c05a98c6e814744151b40220073b24e8735fc7ff7740e63325dad452e59b538f7da6396187835761a123fc66[ALL] 02473dc7f33fd30c6620fefff037fd037d20aca68226bb6318e21ba08e6293b5f8"}, "vout": 19, "txid": "fbb176dfd5c694681d67b4783fe64ad121601a71e03d5c396fc1f08779ab24a9"}], "txid": "bccf66c8fdb98c95558412488cfa90231324baa17556ac88319e11abd06a1511", "blocktime": 1537873891, "version": 1, "confirmations": 11478, "time": 1537873891, "locktime": 0, "vsize": 191, "size": 191}