{"hash": "bcd5e9a7d1a32394ab15501ce72bb81ab376703a7a45a06803d1a3437d829097", "blockhash": "0000000000000000001e0dab787dd257d1dbfcb92a98c2207d5e1078be1f4165", "vout": [{"scriptPubKey": {"reqSigs": 1, "hex": "a9148b1f15179136ecea1259a0cbd7c9fed9d022391e87", "addresses": ["3ENd5rHY7vmtHN6a1pgCVf1emv6xyyHYMG"], "asm": "OP_HASH160 8b1f15179136ecea1259a0cbd7c9fed9d022391e OP_EQUAL", "type": "scripthash"}, "value": 0.01, "n": 0}, {"scriptPubKey": {"reqSigs": 1, "hex": "76a91471924d379d6de37815c2aa4e6006a3c085aab9ab88ac", "addresses": ["1BMWctkfFJ35Qnjv5Xy9hifT9E5HVigE1D"], "asm": "OP_DUP OP_HASH160 71924d379d6de37815c2aa4e6006a3c085aab9ab OP_EQUALVERIFY OP_CHECKSIG", "type": "pubkeyhash"}, "value": 0.02499322, "n": 1}], "hex": "01000000016b8ce49747e5c38411f4ad64fc5fd7c7bd8ebeff2cab5d52385767836955e8af000000006a47304402203b7931bd47b08ca3f7d2237f48e7f5a47a6ebd5e596417478b7e18dbf570b8e10220181fbbbbc809d2984099f28b874d37c5cab644130e46d50a436cac0085371e67012102e293686e04f024ba557ccf54556431c4de4cf715d74565838414f4c65438cae4ffffffff0240420f000000000017a9148b1f15179136ecea1259a0cbd7c9fed9d022391e87fa222600000000001976a91471924d379d6de37815c2aa4e6006a3c085aab9ab88ac00000000", "vin": [{"sequence": 4294967295, "scriptSig": {"hex": "47304402203b7931bd47b08ca3f7d2237f48e7f5a47a6ebd5e596417478b7e18dbf570b8e10220181fbbbbc809d2984099f28b874d37c5cab644130e46d50a436cac0085371e67012102e293686e04f024ba557ccf54556431c4de4cf715d74565838414f4c65438cae4", "asm": "304402203b7931bd47b08ca3f7d2237f48e7f5a47a6ebd5e596417478b7e18dbf570b8e10220181fbbbbc809d2984099f28b874d37c5cab644130e46d50a436cac0085371e67[ALL] 02e293686e04f024ba557ccf54556431c4de4cf715d74565838414f4c65438cae4"}, "vout": 0, "txid": "afe8556983675738525dab2cffbe8ebdc7d75ffc64adf41184c3e54797e48c6b"}], "txid": "bcd5e9a7d1a32394ab15501ce72bb81ab376703a7a45a06803d1a3437d829097", "blocktime": 1537872475, "version": 1, "confirmations": 11486, "time": 1537872475, "locktime": 0, "vsize": 223, "size": 223}