{"hash": "bcde1a9c22ace28d7147868cbb17b9d2eb2776891d58d273e17a533766cb35a4", "blockhash": "0000000000000000000baef3f32e3676a92c3b2e5da21b426e4f302fc371ce76", "vout": [{"scriptPubKey": {"reqSigs": 1, "hex": "76a91428b38cba87d20a11bd5194eb2477368bfc8e5be588ac", "addresses": ["14iD81P3zLtHra97dJ4urJ1P9ohfpSi6JL"], "asm": "OP_DUP OP_HASH160 28b38cba87d20a11bd5194eb2477368bfc8e5be5 OP_EQUALVERIFY OP_CHECKSIG", "type": "pubkeyhash"}, "value": 0.02738818, "n": 0}, {"scriptPubKey": {"reqSigs": 1, "hex": "76a91452949b23be80b066b78b3c339fabad596468d32d88ac", "addresses": ["18XeS4JfE3C2Fm5mwX7qLLjjJrB7Ry9VpJ"], "asm": "OP_DUP OP_HASH160 52949b23be80b066b78b3c339fabad596468d32d OP_EQUALVERIFY OP_CHECKSIG", "type": "pubkeyhash"}, "value": 0.03187526, "n": 1}, {"scriptPubKey": {"reqSigs": 1, "hex": "76a91454d616c4999bd8e8b04356dda1961baa9277617388ac", "addresses": ["18jaEGtQqVk3qfzKNsbhTD2VHEYPed7tzr"], "asm": "OP_DUP OP_HASH160 54d616c4999bd8e8b04356dda1961baa92776173 OP_EQUALVERIFY OP_CHECKSIG", "type": "pubkeyhash"}, "value": 0.1659846, "n": 2}], "hex": "020000000147cd402e528a490bbd87468f809b578584de155e071b11b7f9bd4de64c5222f5010000006b48304502210084adf4a2378d3401c87df3af21ab94b8c3173753c6638081877d6cb97c713561022003a91e9c27d73e98747dcb2a34efdc868d516b778fe9cae6b9d6f12d3c7b63510121036712a9756419a7bd3b356f794c727a2c6084b99d52d32de84555ae486198bc8efeffffff0382ca2900000000001976a91428b38cba87d20a11bd5194eb2477368bfc8e5be588ac46a33000000000001976a91452949b23be80b066b78b3c339fabad596468d32d88acbc45fd00000000001976a91454d616c4999bd8e8b04356dda1961baa9277617388ac17490800", "vin": [{"sequence": 4294967294, "scriptSig": {"hex": "48304502210084adf4a2378d3401c87df3af21ab94b8c3173753c6638081877d6cb97c713561022003a91e9c27d73e98747dcb2a34efdc868d516b778fe9cae6b9d6f12d3c7b63510121036712a9756419a7bd3b356f794c727a2c6084b99d52d32de84555ae486198bc8e", "asm": "304502210084adf4a2378d3401c87df3af21ab94b8c3173753c6638081877d6cb97c713561022003a91e9c27d73e98747dcb2a34efdc868d516b778fe9cae6b9d6f12d3c7b6351[ALL] 036712a9756419a7bd3b356f794c727a2c6084b99d52d32de84555ae486198bc8e"}, "vout": 1, "txid": "f522524ce64dbdf9b7111b075e15de8485579b808f4687bd0b498a522e40cd47"}], "txid": "bcde1a9c22ace28d7147868cbb17b9d2eb2776891d58d273e17a533766cb35a4", "blocktime": 1537876114, "version": 2, "confirmations": 11459, "time": 1537876114, "locktime": 542999, "vsize": 260, "size": 260}