{"hash": "9908ab40f14587e23e7f1f30293e12fbe41746ea3af404e83d4d346a0444834f", "blockhash": "0000000000000000001f0ddff1eddb255c1121bcd4da4f1bc9a0da00cae72433", "vout": [{"scriptPubKey": {"reqSigs": 1, "hex": "a9147c73bd55bdbbccc37d0b619abd4664434c27549587", "addresses": ["3D34N4Lg5kNjDKi4aCKb6uFeAMp2G7YSDN"], "asm": "OP_HASH160 7c73bd55bdbbccc37d0b619abd4664434c275495 OP_EQUAL", "type": "scripthash"}, "value": 0.167563, "n": 0}, {"scriptPubKey": {"reqSigs": 1, "hex": "a91449a3a7e91327d48fe28b0cdc34201842e5b252cf87", "addresses": ["38QPJZMcG7H66rp8PWkNxVcjDtx8X3gLU8"], "asm": "OP_HASH160 49a3a7e91327d48fe28b0cdc34201842e5b252cf OP_EQUAL", "type": "scripthash"}, "value": 0.173839, "n": 1}], "hex": "01000000000101afc83eae8b2374e6523aff8e034b9583628f8e488771dbb973f42967c2bb91b30100000023220020b84eaa8c5bcf4f8bdf74109728c2b32c26a9404a4641bbb862170c7f7dbd06edffffffff024caeff000000000017a9147c73bd55bdbbccc37d0b619abd4664434c27549587dc4109010000000017a91449a3a7e91327d48fe28b0cdc34201842e5b252cf87040047304402207f456d0e7d887566c178d3ca5f1116d2605ef7dea4805d240a34feafec2dd452022060b5f01e609d565a65a404ea77e418b07ba75c0986165d2c7c8aae2c9088b6690148304502210088e53fba03fbd1ea02fb9ae095b17aade779a07dfe4f04037fd3bfb7c9c1db9f02205ff9ff86976a6b63eb58a02b3dfe2b51b7e86944768bcb2f9e3a8a47d0e78ed20169522102b441465bafb51f130720eed03ca7a43a4bba8acc03ba39d2d57bf5d1fd44a23221022c19ef429c94ce507f29cf172b12d99f065943c7c84eb0fbf33aa7825eb4d8f5210204d83cb23887a4af33ba4810f4fd89c2e377f6cf4c598a9872ba3bb1ef412b0f53ae00000000", "vin": [{"txinwitness": ["", "304402207f456d0e7d887566c178d3ca5f1116d2605ef7dea4805d240a34feafec2dd452022060b5f01e609d565a65a404ea77e418b07ba75c0986165d2c7c8aae2c9088b66901", "304502210088e53fba03fbd1ea02fb9ae095b17aade779a07dfe4f04037fd3bfb7c9c1db9f02205ff9ff86976a6b63eb58a02b3dfe2b51b7e86944768bcb2f9e3a8a47d0e78ed201", "522102b441465bafb51f130720eed03ca7a43a4bba8acc03ba39d2d57bf5d1fd44a23221022c19ef429c94ce507f29cf172b12d99f065943c7c84eb0fbf33aa7825eb4d8f5210204d83cb23887a4af33ba4810f4fd89c2e377f6cf4c598a9872ba3bb1ef412b0f53ae"], "sequence": 4294967295, "scriptSig": {"hex": "220020b84eaa8c5bcf4f8bdf74109728c2b32c26a9404a4641bbb862170c7f7dbd06ed", "asm": "0020b84eaa8c5bcf4f8bdf74109728c2b32c26a9404a4641bbb862170c7f7dbd06ed"}, "vout": 1, "txid": "b391bbc26729f473b9db7187488e8f6283954b038eff3a52e674238bae3ec8af"}], "txid": "bcf885fc3d1de293dced1aa4b24bfd65c908cb2d714f98bb02b5347837e92059", "blocktime": 1537872018, "version": 1, "confirmations": 11489, "time": 1537872018, "locktime": 0, "vsize": 214, "size": 405}