{"hash": "24cb7324383fff21b9fa0087e349d9d1c82784c4fff7916689f0b1b18bf4e38e", "blockhash": "0000000000000000001f76057863aec43deb6fa401d9628bb513d65a8098bfab", "vout": [{"scriptPubKey": {"reqSigs": 1, "hex": "76a91496b25ffc01e769ad2ca91fdc4df2f78b5c15b9c688ac", "addresses": ["1Ejp3UzVJT8veELTfvvJa3wwCNcqgmi4wA"], "asm": "OP_DUP OP_HASH160 96b25ffc01e769ad2ca91fdc4df2f78b5c15b9c6 OP_EQUALVERIFY OP_CHECKSIG", "type": "pubkeyhash"}, "value": 0.285155, "n": 0}, {"scriptPubKey": {"reqSigs": 1, "hex": "0014852d8860cf91603a6b97a80ba86a0d012b3c54df", "addresses": ["bc1qs5kcscx0j9sr56uh4q96s6sdqy4nc4xl7j4tef"], "asm": "0 852d8860cf91603a6b97a80ba86a0d012b3c54df", "type": "witness_v0_keyhash"}, "value": 0.00418002, "n": 1}], "hex": "010000000001011ec0768a87a7977304039db3243f5d480176d1c690b78e0e6da297564d169c010100000000ffffffff02ac1cb301000000001976a91496b25ffc01e769ad2ca91fdc4df2f78b5c15b9c688acd260060000000000160014852d8860cf91603a6b97a80ba86a0d012b3c54df02483045022100b0b334e9175100f3a6bbfb3ddc2c51007384d62b5dcc0f1d2340279e68d7d20b022048ff6a1e4eea31e41d923789ff40d288cda839d242589af164248aa123223219012103af6489390732cb4fda215572ee286f88c237ef8064510e12d947b340941cbb4900000000", "vin": [{"txinwitness": ["3045022100b0b334e9175100f3a6bbfb3ddc2c51007384d62b5dcc0f1d2340279e68d7d20b022048ff6a1e4eea31e41d923789ff40d288cda839d242589af164248aa12322321901", "03af6489390732cb4fda215572ee286f88c237ef8064510e12d947b340941cbb49"], "sequence": 4294967295, "scriptSig": {"hex": "", "asm": ""}, "vout": 1, "txid": "019c164d5697a26d0e8eb790c6d17601485d3f24b39d03047397a7878a76c01e"}], "txid": "bcfe1e976b77d6541dd9692897347dc97963ee58564d314f7bcd469992966623", "blocktime": 1537873891, "version": 1, "confirmations": 11478, "time": 1537873891, "locktime": 0, "vsize": 144, "size": 226}