{"hash": "bd054f3c781a290f7955bbfa6538ade6f6e728ab4e8781dc6ebb810eeb0d0817", "blockhash": "00000000000000000004ffacab907a6b429b9a5745fa0b75af4234bf69dd7176", "vout": [{"scriptPubKey": {"reqSigs": 1, "hex": "76a914bb4d2a86e192da8130fad502269812601b6318dc88ac", "addresses": ["1J5MoUAWd5jQraFd3pbvvcdPXmAThn844m"], "asm": "OP_DUP OP_HASH160 bb4d2a86e192da8130fad502269812601b6318dc OP_EQUALVERIFY OP_CHECKSIG", "type": "pubkeyhash"}, "value": 0.00986868, "n": 0}, {"scriptPubKey": {"reqSigs": 1, "hex": "a914a806a9bdfe739417dc6b90671ecf9002031c162e87", "addresses": ["3H1TRjCorTqV4Nt2V9ajdhJRodxDwiQrcb"], "asm": "OP_HASH160 a806a9bdfe739417dc6b90671ecf9002031c162e OP_EQUAL", "type": "scripthash"}, "value": 0.0010673, "n": 1}, {"scriptPubKey": {"reqSigs": 1, "hex": "a91469d48312e4936b0df02aed59c8c786ef2bfe532e87", "addresses": ["3BLbTH8zagWw4Lp3zg7WkXozm6awe65xcA"], "asm": "OP_HASH160 69d48312e4936b0df02aed59c8c786ef2bfe532e OP_EQUAL", "type": "scripthash"}, "value": 0.69995205, "n": 2}], "hex": "020000000336cad7cda731dfab98c072e58afcd9f30e76ea731e7d13ca540cde4c59dfdae1000000006b483045022100f35bc7cbc38497e40aaa5df8b400f2475dc72110b9fc2fdce4f69f2eb4856bfd0220030cf314d084f55050f4b359eaee77414192112cb6876f6729811b5d33d74013012102851abe59da99730e3921be9302265745c93cbe24e62e522da2c757ed4cf4574afeffffff88c0e9f675405abb2a2bedad99e0ef3a8dd859ef65e1f0ef83cabc939a880d3e010000006a47304402203f0baa9d2556b536d346b694a7f61b9fceb2c1b6e852fc5122106894f413e8ea02202e78e99d869f1a447187f2d5204236f5f9e754a4596f654a1dc1197c10c554b30121037cb68753e4bc2704fa25ffaaa387f55f0ac1402d29eb271e56a098bb1cdfc77ffeffffffd542ce245ac48773fb1a585295fb2da000955f87ac3298f526d2cb3dfec6515b010000006a473044022005d807a6e911933e3d906670b68aa8a22ffac71f87344490370c45d651dd9e7102203cdeec31e3354f138a9d84b321da1cc948361b3958b606eba204d823293704970121035e5b69aa4381f5ecdd53baee3784b09bb782d23691d147ca553d0f48412704f2feffffff03f40e0f00000000001976a914bb4d2a86e192da8130fad502269812601b6318dc88aceaa001000000000017a914a806a9bdfe739417dc6b90671ecf9002031c162e87c50a2c040000000017a91469d48312e4936b0df02aed59c8c786ef2bfe532e8716490800", "vin": [{"sequence": 4294967294, "scriptSig": {"hex": "483045022100f35bc7cbc38497e40aaa5df8b400f2475dc72110b9fc2fdce4f69f2eb4856bfd0220030cf314d084f55050f4b359eaee77414192112cb6876f6729811b5d33d74013012102851abe59da99730e3921be9302265745c93cbe24e62e522da2c757ed4cf4574a", "asm": "3045022100f35bc7cbc38497e40aaa5df8b400f2475dc72110b9fc2fdce4f69f2eb4856bfd0220030cf314d084f55050f4b359eaee77414192112cb6876f6729811b5d33d74013[ALL] 02851abe59da99730e3921be9302265745c93cbe24e62e522da2c757ed4cf4574a"}, "vout": 0, "txid": "e1dadf594cde0c54ca137d1e73ea760ef3d9fc8ae572c098abdf31a7cdd7ca36"}, {"sequence": 4294967294, "scriptSig": {"hex": "47304402203f0baa9d2556b536d346b694a7f61b9fceb2c1b6e852fc5122106894f413e8ea02202e78e99d869f1a447187f2d5204236f5f9e754a4596f654a1dc1197c10c554b30121037cb68753e4bc2704fa25ffaaa387f55f0ac1402d29eb271e56a098bb1cdfc77f", "asm": "304402203f0baa9d2556b536d346b694a7f61b9fceb2c1b6e852fc5122106894f413e8ea02202e78e99d869f1a447187f2d5204236f5f9e754a4596f654a1dc1197c10c554b3[ALL] 037cb68753e4bc2704fa25ffaaa387f55f0ac1402d29eb271e56a098bb1cdfc77f"}, "vout": 1, "txid": "3e0d889a93bcca83eff0e165ef59d88d3aefe099aded2b2abb5a4075f6e9c088"}, {"sequence": 4294967294, "scriptSig": {"hex": "473044022005d807a6e911933e3d906670b68aa8a22ffac71f87344490370c45d651dd9e7102203cdeec31e3354f138a9d84b321da1cc948361b3958b606eba204d823293704970121035e5b69aa4381f5ecdd53baee3784b09bb782d23691d147ca553d0f48412704f2", "asm": "3044022005d807a6e911933e3d906670b68aa8a22ffac71f87344490370c45d651dd9e7102203cdeec31e3354f138a9d84b321da1cc948361b3958b606eba204d82329370497[ALL] 035e5b69aa4381f5ecdd53baee3784b09bb782d23691d147ca553d0f48412704f2"}, "vout": 1, "txid": "5b51c6fe3dcbd226f59832ac875f9500a02dfb9552581afb7387c45a24ce42d5"}], "txid": "bd054f3c781a290f7955bbfa6538ade6f6e728ab4e8781dc6ebb810eeb0d0817", "blocktime": 1537875543, "version": 2, "confirmations": 11464, "time": 1537875543, "locktime": 542998, "vsize": 550, "size": 550}