{"hash": "bd0a2c4a866e0826d4cab4d23fc073cddb8fd39b77bdcaef44440ebff5c2b3ca", "blockhash": "0000000000000000001f0ddff1eddb255c1121bcd4da4f1bc9a0da00cae72433", "vout": [{"scriptPubKey": {"reqSigs": 1, "hex": "a91405e72d7bfa9e7d5862ae74b9d92b5f97c3b0b1c687", "addresses": ["32EEF1VGxzpiypJ1Fc7r5g1YGtvTGHfaud"], "asm": "OP_HASH160 05e72d7bfa9e7d5862ae74b9d92b5f97c3b0b1c6 OP_EQUAL", "type": "scripthash"}, "value": 0.00183657, "n": 0}, {"scriptPubKey": {"reqSigs": 1, "hex": "76a91421c07e73bd16ab0aaab00adc8db54e68817a4c8a88ac", "addresses": ["145Tu3bc75w8NouB4AH2Jhnkjk1vaJU2ZL"], "asm": "OP_DUP OP_HASH160 21c07e73bd16ab0aaab00adc8db54e68817a4c8a OP_EQUALVERIFY OP_CHECKSIG", "type": "pubkeyhash"}, "value": 0.01451158, "n": 1}], "hex": "01000000013b83a72c7250963036c62422e6b45588c5b7cdb775479286fa1beefa3dd8b163010000006a473044022031b842768e193b81b6541252f6e0eeb90343752fcc2545acfa6530efdebf86e50220465d9018efd46c934962338c50264fc048e6cb1048f969d085f69b37bec36a1f0121031f5e07d52cd826d30549cb66d33b2ee41d7817085d429615a5645f052bbbee02ffffffff0269cd02000000000017a91405e72d7bfa9e7d5862ae74b9d92b5f97c3b0b1c68796241600000000001976a91421c07e73bd16ab0aaab00adc8db54e68817a4c8a88ac00000000", "vin": [{"sequence": 4294967295, "scriptSig": {"hex": "473044022031b842768e193b81b6541252f6e0eeb90343752fcc2545acfa6530efdebf86e50220465d9018efd46c934962338c50264fc048e6cb1048f969d085f69b37bec36a1f0121031f5e07d52cd826d30549cb66d33b2ee41d7817085d429615a5645f052bbbee02", "asm": "3044022031b842768e193b81b6541252f6e0eeb90343752fcc2545acfa6530efdebf86e50220465d9018efd46c934962338c50264fc048e6cb1048f969d085f69b37bec36a1f[ALL] 031f5e07d52cd826d30549cb66d33b2ee41d7817085d429615a5645f052bbbee02"}, "vout": 1, "txid": "63b1d83dfaee1bfa86924775b7cdb7c58855b4e62224c636309650722ca7833b"}], "txid": "bd0a2c4a866e0826d4cab4d23fc073cddb8fd39b77bdcaef44440ebff5c2b3ca", "blocktime": 1537872018, "version": 1, "confirmations": 11489, "time": 1537872018, "locktime": 0, "vsize": 223, "size": 223}