{"hash": "bd0fb4f55d595dc8e1e5b0ec64f7771f3215a3a69f2006fa427fab26fa85d261", "blockhash": "0000000000000000001f0ddff1eddb255c1121bcd4da4f1bc9a0da00cae72433", "vout": [{"scriptPubKey": {"reqSigs": 1, "hex": "76a91480d74a96287f0af5bd31841a69e89586d211dd8088ac", "addresses": ["1CkFQG4x5C1CCec974XnB48ARMJUWMnMRF"], "asm": "OP_DUP OP_HASH160 80d74a96287f0af5bd31841a69e89586d211dd80 OP_EQUALVERIFY OP_CHECKSIG", "type": "pubkeyhash"}, "value": 0.0033981, "n": 0}, {"scriptPubKey": {"reqSigs": 1, "hex": "a91494486debe25b8aa8ac0e9fe781705ce8db2435f287", "addresses": ["3FD4hR6VYEFitJiTJLAbvFT5joh73kqqUC"], "asm": "OP_HASH160 94486debe25b8aa8ac0e9fe781705ce8db2435f2 OP_EQUAL", "type": "scripthash"}, "value": 0.00904706, "n": 1}], "hex": "0100000002128a3ad30dfe54e8ccad9b981ceb0e16d9dd46f3096d858c4797a1c7f97d0d88000000006b48304502210089d8d432482a27fa77ddc0fdb84d9e24ffc11d6f6ba16ff71723824b913c2d05022035eab286e86222b6cb959e9f349a97da68b5d997bfe184af02fc77fd3fcb0b0901210269fc879c5b3086d0d7393d2fe7f412373c271a2bc177b212bc1b8367c2ed0b88ffffffffdd0e2472d3abefc5e8dedb8b23aceabde9b27546aebc36ed6b23e51735a203ef000000006b483045022100eea23c5c7b8bb0f99768ed7eea89f869960a72127c82fdcadbe53b1ea64959d602202ed6f6afed0ba805fca1743e535fe35e639e5ffb48af5efd801600b1a4f51ace01210320e007f93cca24425d58ecea691afcb711682bd0d85f697062b95df49328e4cbffffffff02622f0500000000001976a91480d74a96287f0af5bd31841a69e89586d211dd8088ac02ce0d000000000017a91494486debe25b8aa8ac0e9fe781705ce8db2435f28700000000", "vin": [{"sequence": 4294967295, "scriptSig": {"hex": "48304502210089d8d432482a27fa77ddc0fdb84d9e24ffc11d6f6ba16ff71723824b913c2d05022035eab286e86222b6cb959e9f349a97da68b5d997bfe184af02fc77fd3fcb0b0901210269fc879c5b3086d0d7393d2fe7f412373c271a2bc177b212bc1b8367c2ed0b88", "asm": "304502210089d8d432482a27fa77ddc0fdb84d9e24ffc11d6f6ba16ff71723824b913c2d05022035eab286e86222b6cb959e9f349a97da68b5d997bfe184af02fc77fd3fcb0b09[ALL] 0269fc879c5b3086d0d7393d2fe7f412373c271a2bc177b212bc1b8367c2ed0b88"}, "vout": 0, "txid": "880d7df9c7a197478c856d09f346ddd9160eeb1c989badcce854fe0dd33a8a12"}, {"sequence": 4294967295, "scriptSig": {"hex": "483045022100eea23c5c7b8bb0f99768ed7eea89f869960a72127c82fdcadbe53b1ea64959d602202ed6f6afed0ba805fca1743e535fe35e639e5ffb48af5efd801600b1a4f51ace01210320e007f93cca24425d58ecea691afcb711682bd0d85f697062b95df49328e4cb", "asm": "3045022100eea23c5c7b8bb0f99768ed7eea89f869960a72127c82fdcadbe53b1ea64959d602202ed6f6afed0ba805fca1743e535fe35e639e5ffb48af5efd801600b1a4f51ace[ALL] 0320e007f93cca24425d58ecea691afcb711682bd0d85f697062b95df49328e4cb"}, "vout": 0, "txid": "ef03a23517e5236bed36bcae4675b2e9bdeaac238bdbdee8c5efabd372240edd"}], "txid": "bd0fb4f55d595dc8e1e5b0ec64f7771f3215a3a69f2006fa427fab26fa85d261", "blocktime": 1537872018, "version": 1, "confirmations": 11489, "time": 1537872018, "locktime": 0, "vsize": 372, "size": 372}