{"hash": "20bb7cf9030604f8ffa14f79a41e32c7824e1e447406c058483b7fae002f0a33", "blockhash": "00000000000000000017f5eb5941039fbcee6240d03bc1f2f8e35350df66a1d8", "vout": [{"scriptPubKey": {"reqSigs": 1, "hex": "a91469f3771239ca8785ce56401dde2d854eb15574bf87", "addresses": ["3BMEXwReB4FSzXAgxoWRxvbCyeZYVa27yg"], "asm": "OP_HASH160 69f3771239ca8785ce56401dde2d854eb15574bf OP_EQUAL", "type": "scripthash"}, "value": 0.0149648, "n": 0}, {"scriptPubKey": {"reqSigs": 1, "hex": "0014c03f541a3ac8a7e29d57d79bd4711b6b62559a67", "addresses": ["bc1qcql4gx36ezn7982h67dagugmdd39txn8994xp6"], "asm": "0 c03f541a3ac8a7e29d57d79bd4711b6b62559a67", "type": "witness_v0_keyhash"}, "value": 0.56248923, "n": 1}], "hex": "010000000001012cfff5953b6130d831853c43befb6a089556d3de666393f1a71e80092f1485980100000017160014f953844fe34ad6adce9568a2e82d996f5d94e27cffffffff02a0d516000000000017a91469f3771239ca8785ce56401dde2d854eb15574bf875b4a5a0300000000160014c03f541a3ac8a7e29d57d79bd4711b6b62559a670247304402207e284bafc16ac3cd5fbb69fc26d35a8e0288d0549bc2cb7fd74ddae61574297d02207f5911b52019653fd059477f05bd7e803a3d7080aa63edf2f19fb2e4f6dab6a2012103243b972621e92c44fdad5303a2ef114bbebcd3296512e04e546ca6da751eaa2500000000", "vin": [{"txinwitness": ["304402207e284bafc16ac3cd5fbb69fc26d35a8e0288d0549bc2cb7fd74ddae61574297d02207f5911b52019653fd059477f05bd7e803a3d7080aa63edf2f19fb2e4f6dab6a201", "03243b972621e92c44fdad5303a2ef114bbebcd3296512e04e546ca6da751eaa25"], "sequence": 4294967295, "scriptSig": {"hex": "160014f953844fe34ad6adce9568a2e82d996f5d94e27c", "asm": "0014f953844fe34ad6adce9568a2e82d996f5d94e27c"}, "vout": 1, "txid": "9885142f09801ea7f1936366ded35695086afbbe433c8531d830613b95f5ff2c"}], "txid": "bd10f8f713e857566af0960356dc0376db396269d6a8baef912a6b1a28ab4ea4", "blocktime": 1537874412, "version": 1, "confirmations": 11468, "time": 1537874412, "locktime": 0, "vsize": 165, "size": 246}