{"hash": "bd10fb949d61102c58996e22b4bf1836a5f682d426347685d6710d341dbc453d", "blockhash": "0000000000000000001cda96e906b7601b7a6fb1a3b62bca570a9e5d8f4b3de1", "vout": [{"scriptPubKey": {"reqSigs": 1, "hex": "76a9147b909bfb2a1e904defe73f22a6198f274a6d054788ac", "addresses": ["1CGMME5hxq3BPtxiaPNhJ6pyfHCfEhoyjp"], "asm": "OP_DUP OP_HASH160 7b909bfb2a1e904defe73f22a6198f274a6d0547 OP_EQUALVERIFY OP_CHECKSIG", "type": "pubkeyhash"}, "value": 0.00184517, "n": 0}, {"scriptPubKey": {"reqSigs": 1, "hex": "a914290a19e1bd543d2aaec70585327f08a95e5bf16a87", "addresses": ["35S1jFCQSETjh7LN2ywh3qkCb8MRapEoFj"], "asm": "OP_HASH160 290a19e1bd543d2aaec70585327f08a95e5bf16a OP_EQUAL", "type": "scripthash"}, "value": 0.000311, "n": 1}], "hex": "0100000001e59d604d37ce138f16070c6f11215d0b71ce7de344831770f24115edf5475487000000006a47304402206ad85ca9a1cdf010dcdf904d5e57695a6f4caf8da3cc6157b597ba219700de1b022051016f3f9e4f43db54b63f2712e853e42d34bc97db58bda3b4979599a27b8e6401210284f74ffeb1f33f6585a8be53e0bc93d4176d5790a0782586269d23cbe635e61bffffffff02c5d00200000000001976a9147b909bfb2a1e904defe73f22a6198f274a6d054788ac7c7900000000000017a914290a19e1bd543d2aaec70585327f08a95e5bf16a8700000000", "vin": [{"sequence": 4294967295, "scriptSig": {"hex": "47304402206ad85ca9a1cdf010dcdf904d5e57695a6f4caf8da3cc6157b597ba219700de1b022051016f3f9e4f43db54b63f2712e853e42d34bc97db58bda3b4979599a27b8e6401210284f74ffeb1f33f6585a8be53e0bc93d4176d5790a0782586269d23cbe635e61b", "asm": "304402206ad85ca9a1cdf010dcdf904d5e57695a6f4caf8da3cc6157b597ba219700de1b022051016f3f9e4f43db54b63f2712e853e42d34bc97db58bda3b4979599a27b8e64[ALL] 0284f74ffeb1f33f6585a8be53e0bc93d4176d5790a0782586269d23cbe635e61b"}, "vout": 0, "txid": "875447f5ed1541f270178344e37dce710b5d21116f0c07168f13ce374d609de5"}], "txid": "bd10fb949d61102c58996e22b4bf1836a5f682d426347685d6710d341dbc453d", "blocktime": 1537873282, "version": 1, "confirmations": 11481, "time": 1537873282, "locktime": 0, "vsize": 223, "size": 223}