{"hash": "bd20140680af19918dd3d5496d6147e9a54d344f70d66a60847ee870488d2312", "blockhash": "0000000000000000001f0ddff1eddb255c1121bcd4da4f1bc9a0da00cae72433", "vout": [{"scriptPubKey": {"reqSigs": 1, "hex": "76a9148db4dbbfc25010f29e8a77f9024861465534f59d88ac", "addresses": ["1DvGwJxh6Czk2m8xhg7FZHuUha75ZA2gsg"], "asm": "OP_DUP OP_HASH160 8db4dbbfc25010f29e8a77f9024861465534f59d OP_EQUALVERIFY OP_CHECKSIG", "type": "pubkeyhash"}, "value": 0.02063584, "n": 0}, {"scriptPubKey": {"reqSigs": 1, "hex": "76a9146b5260fb607edf632f03c57872e09539527d9fae88ac", "addresses": ["1AnTzJr7qnuCTirTn9vdKvMdjvYYJHJ6bN"], "asm": "OP_DUP OP_HASH160 6b5260fb607edf632f03c57872e09539527d9fae OP_EQUALVERIFY OP_CHECKSIG", "type": "pubkeyhash"}, "value": 0.03102521, "n": 1}], "hex": "01000000015ec08bb01961495a4ebafa486e3b4fefbf9789512319e83111fd1bdf0f1daef1000000006a47304402204675525e26f501f8befd1c2c3cad7e0c50692990182b0b1a521d770691ac9f89022014f7378752d05f63f1a4cd159a1c50476df1e3100384db44253bf2466736420c012102b09f5e744a0251af411995d0d65761eaf95498ba460f527ae72c8ea21b7dfb03ffffffff02e07c1f00000000001976a9148db4dbbfc25010f29e8a77f9024861465534f59d88ac39572f00000000001976a9146b5260fb607edf632f03c57872e09539527d9fae88ac00000000", "vin": [{"sequence": 4294967295, "scriptSig": {"hex": "47304402204675525e26f501f8befd1c2c3cad7e0c50692990182b0b1a521d770691ac9f89022014f7378752d05f63f1a4cd159a1c50476df1e3100384db44253bf2466736420c012102b09f5e744a0251af411995d0d65761eaf95498ba460f527ae72c8ea21b7dfb03", "asm": "304402204675525e26f501f8befd1c2c3cad7e0c50692990182b0b1a521d770691ac9f89022014f7378752d05f63f1a4cd159a1c50476df1e3100384db44253bf2466736420c[ALL] 02b09f5e744a0251af411995d0d65761eaf95498ba460f527ae72c8ea21b7dfb03"}, "vout": 0, "txid": "f1ae1d0fdf1bfd1131e81923518997bfef4f3b6e48faba4e5a496119b08bc05e"}], "txid": "bd20140680af19918dd3d5496d6147e9a54d344f70d66a60847ee870488d2312", "blocktime": 1537872018, "version": 1, "confirmations": 11489, "time": 1537872018, "locktime": 0, "vsize": 225, "size": 225}