{"hash": "bd23e5356bd5e595ddd06352dca14de6d5e89c70b7dfad00842dc377816ce41b", "blockhash": "00000000000000000004ffacab907a6b429b9a5745fa0b75af4234bf69dd7176", "vout": [{"scriptPubKey": {"reqSigs": 1, "hex": "a914e13b613b5faa65de44eb842a6007703d4664cb4387", "addresses": ["3NDw6VDU44jrYSVYZjhVyXZNFnwvmE4iMB"], "asm": "OP_HASH160 e13b613b5faa65de44eb842a6007703d4664cb43 OP_EQUAL", "type": "scripthash"}, "value": 0.02662, "n": 0}], "hex": "0100000002114b2d9ba190ee1f2abec6394c0cf14f21094daa0929c18591f8aa9150e71e97010000006b483045022100bf12180e4269ee237089a67c4b2e87fcb94c200ad7445668b5e1809ba616c0f402203267561fb4eb19ab1cf38df0c6e5dcb18d018626769d8887581422ca978da4120121036ac27b2df5045b9ffdd7f137c2426ac2a6151a0fd363accccc4438e2b5b531b2ffffffff80acc0fcf073f32dadf2e2e613adc6f1a257d7c9d38d9ed79151847b812b5bd0010000006b483045022100bf53775b3af5a1f9855e1062f20a7bcacdc14e1b58231ab54a2d4c8a7d32fa12022052eaee79be5b01b05828ca2b4833968adb5d59c7f32c53284012202b04a564e201210271718ec0952ede206feca3ed1e1d7cc25c38d3698f56a330eb2c7ee5b0b03c92ffffffff01709e28000000000017a914e13b613b5faa65de44eb842a6007703d4664cb438700000000", "vin": [{"sequence": 4294967295, "scriptSig": {"hex": "483045022100bf12180e4269ee237089a67c4b2e87fcb94c200ad7445668b5e1809ba616c0f402203267561fb4eb19ab1cf38df0c6e5dcb18d018626769d8887581422ca978da4120121036ac27b2df5045b9ffdd7f137c2426ac2a6151a0fd363accccc4438e2b5b531b2", "asm": "3045022100bf12180e4269ee237089a67c4b2e87fcb94c200ad7445668b5e1809ba616c0f402203267561fb4eb19ab1cf38df0c6e5dcb18d018626769d8887581422ca978da412[ALL] 036ac27b2df5045b9ffdd7f137c2426ac2a6151a0fd363accccc4438e2b5b531b2"}, "vout": 1, "txid": "971ee75091aaf89185c12909aa4d09214ff10c4c39c6be2a1fee90a19b2d4b11"}, {"sequence": 4294967295, "scriptSig": {"hex": "483045022100bf53775b3af5a1f9855e1062f20a7bcacdc14e1b58231ab54a2d4c8a7d32fa12022052eaee79be5b01b05828ca2b4833968adb5d59c7f32c53284012202b04a564e201210271718ec0952ede206feca3ed1e1d7cc25c38d3698f56a330eb2c7ee5b0b03c92", "asm": "3045022100bf53775b3af5a1f9855e1062f20a7bcacdc14e1b58231ab54a2d4c8a7d32fa12022052eaee79be5b01b05828ca2b4833968adb5d59c7f32c53284012202b04a564e2[ALL] 0271718ec0952ede206feca3ed1e1d7cc25c38d3698f56a330eb2c7ee5b0b03c92"}, "vout": 1, "txid": "d05b2b817b845191d79e8dd3c9d757a2f1c6ad13e6e2f2ad2df373f0fcc0ac80"}], "txid": "bd23e5356bd5e595ddd06352dca14de6d5e89c70b7dfad00842dc377816ce41b", "blocktime": 1537875543, "version": 1, "confirmations": 11464, "time": 1537875543, "locktime": 0, "vsize": 338, "size": 338}