{"hash": "aef38f2d6f6fa020eae9524965f40957318851b716605e8306425a8a7e238682", "blockhash": "0000000000000000001f0ddff1eddb255c1121bcd4da4f1bc9a0da00cae72433", "vout": [{"scriptPubKey": {"reqSigs": 1, "hex": "a914a13b2bd95e2fbca9c0396621106c162d609d3d5487", "addresses": ["3GPXbioCGhaDrgAgkWDkgtF3Fb5RkB8LrD"], "asm": "OP_HASH160 a13b2bd95e2fbca9c0396621106c162d609d3d54 OP_EQUAL", "type": "scripthash"}, "value": 0.0156, "n": 0}, {"scriptPubKey": {"reqSigs": 1, "hex": "001425d53fa77cc716d8dd26f344b91ad5d36b0d4a5f", "addresses": ["bc1qyh2nlfmucutd3hfx7dztjxk46d4s6jjl68ya6h"], "asm": "0 25d53fa77cc716d8dd26f344b91ad5d36b0d4a5f", "type": "witness_v0_keyhash"}, "value": 0.00189419, "n": 1}], "hex": "01000000000101364e5cd578796c6e1620bdf4091c06932013c05a1aabf20dc8a27f0a2148f6950100000017160014243a4a854889c065be9d473508020c16f8f89902ffffffff02c0cd17000000000017a914a13b2bd95e2fbca9c0396621106c162d609d3d5487ebe302000000000016001425d53fa77cc716d8dd26f344b91ad5d36b0d4a5f02483045022100da2ff5234e434448221c6f1e6a7c84eba8d71897a7b3ffa82940ffdfc7da24cc02203c7e27897879a638dadbcbf4aa894ef83b36d341e49441190b5bc2948532969f012102abdc8c6c2ef2e3facba152e4e5b7e840199713688df64da571171d79467b355b00000000", "vin": [{"txinwitness": ["3045022100da2ff5234e434448221c6f1e6a7c84eba8d71897a7b3ffa82940ffdfc7da24cc02203c7e27897879a638dadbcbf4aa894ef83b36d341e49441190b5bc2948532969f01", "02abdc8c6c2ef2e3facba152e4e5b7e840199713688df64da571171d79467b355b"], "sequence": 4294967295, "scriptSig": {"hex": "160014243a4a854889c065be9d473508020c16f8f89902", "asm": "0014243a4a854889c065be9d473508020c16f8f89902"}, "vout": 1, "txid": "95f648210a7fa2c80df2ab1a5ac0132093061c09f4bd20166e6c7978d55c4e36"}], "txid": "bd27f158118bb0479cc6487f30d0c76b7afa8faa9a726ac0346a5c535aaa7039", "blocktime": 1537872018, "version": 1, "confirmations": 11489, "time": 1537872018, "locktime": 0, "vsize": 165, "size": 247}