{"hash": "671cd20091ac39dc44aca4fd459a5d31caaf712d2183815446a83532a2588dec", "blockhash": "00000000000000000018f53835495a110e01622372bf6ae95dc86f2b0ab887b0", "vout": [{"scriptPubKey": {"reqSigs": 1, "hex": "76a91490038b46d68aa236f1dbc063caf72a452c1dfac588ac", "addresses": ["1E8UYsNXPSJTN5LFY4rKLNxYqDgTa77d39"], "asm": "OP_DUP OP_HASH160 90038b46d68aa236f1dbc063caf72a452c1dfac5 OP_EQUALVERIFY OP_CHECKSIG", "type": "pubkeyhash"}, "value": 0.033066, "n": 0}, {"scriptPubKey": {"reqSigs": 1, "hex": "a914f5342287aaa57f5c05756dbd5ef14091cc70030f87", "addresses": ["3Q3XvwKWsx3ocmCXheK6pAo5ieooFx75hh"], "asm": "OP_HASH160 f5342287aaa57f5c05756dbd5ef14091cc70030f OP_EQUAL", "type": "scripthash"}, "value": 0.11634276, "n": 1}], "hex": "010000000001022085c267a520d5ca66f066b933914614b86e6456e23def202f62528e36d7627f01000000232200200626f5cf7c617095d1e041029521fe4907d93c5ac763225c2a3550219a461f9ffffffffff3a9df91ee6f432154472536774bad39726492c0ff921b443a9fc7ba12af7eea01000000232200204fd7968ffe15cb453352a1e9ee2915eff8b6d6252d5a351f9092b82ca10eb12cffffffff0268743200000000001976a91490038b46d68aa236f1dbc063caf72a452c1dfac588ac6486b1000000000017a914f5342287aaa57f5c05756dbd5ef14091cc70030f870400483045022100876c82fcfe8a8921a093abd1726d84ea8629b270275cd5a974aea4d74921cee802200c0b720b0af3a21f88f3443a2ce865c5e15774583fa3df13d36067343d58b51a01483045022100f043971d1104d4f3996e7b4a1ac110f4a5937501a5150006c88432ca52f9a64e022069661f0a63e611619b91571dbd32a5ffd22a074d95090e880fac1d4ce8a640c10147522102b3a47dcf2a69a0f2bc7d8a648df9b4330f09267abb2fe07001c7d62f0c3812352103871fc2ca08e6950b38867e8e6a0e94ee625223d3aa0df5c65f414c6d784467e252ae0400473044022009268500523ecab9532a16e9af67164e9b92adf186ee76342b770ea017a79443022000afaad1f3bca13dd556126bab20089686daeec629b34eff08602ce80a8f8fc801483045022100a2a55d5aba771c445c65db03e9c6a458c793a9a4b4b9671aa54f2cd6ca913c2302204c22440af847a6a380ddf51e2fdcc0004c25c777e4641d48064479e14b2498450147522103b70e79262cbb7310fe069dea7c473b53276b75c67fb841ff66279f152a3fe0172103871fc2ca08e6950b38867e8e6a0e94ee625223d3aa0df5c65f414c6d784467e252ae00000000", "vin": [{"txinwitness": ["", "3045022100876c82fcfe8a8921a093abd1726d84ea8629b270275cd5a974aea4d74921cee802200c0b720b0af3a21f88f3443a2ce865c5e15774583fa3df13d36067343d58b51a01", "3045022100f043971d1104d4f3996e7b4a1ac110f4a5937501a5150006c88432ca52f9a64e022069661f0a63e611619b91571dbd32a5ffd22a074d95090e880fac1d4ce8a640c101", "522102b3a47dcf2a69a0f2bc7d8a648df9b4330f09267abb2fe07001c7d62f0c3812352103871fc2ca08e6950b38867e8e6a0e94ee625223d3aa0df5c65f414c6d784467e252ae"], "sequence": 4294967295, "scriptSig": {"hex": "2200200626f5cf7c617095d1e041029521fe4907d93c5ac763225c2a3550219a461f9f", "asm": "00200626f5cf7c617095d1e041029521fe4907d93c5ac763225c2a3550219a461f9f"}, "vout": 1, "txid": "7f62d7368e52622f20ef3de256646eb814469133b966f066cad520a567c28520"}, {"txinwitness": ["", "3044022009268500523ecab9532a16e9af67164e9b92adf186ee76342b770ea017a79443022000afaad1f3bca13dd556126bab20089686daeec629b34eff08602ce80a8f8fc801", "3045022100a2a55d5aba771c445c65db03e9c6a458c793a9a4b4b9671aa54f2cd6ca913c2302204c22440af847a6a380ddf51e2fdcc0004c25c777e4641d48064479e14b24984501", "522103b70e79262cbb7310fe069dea7c473b53276b75c67fb841ff66279f152a3fe0172103871fc2ca08e6950b38867e8e6a0e94ee625223d3aa0df5c65f414c6d784467e252ae"], "sequence": 4294967295, "scriptSig": {"hex": "2200204fd7968ffe15cb453352a1e9ee2915eff8b6d6252d5a351f9092b82ca10eb12c", "asm": "00204fd7968ffe15cb453352a1e9ee2915eff8b6d6252d5a351f9092b82ca10eb12c"}, "vout": 1, "txid": "ea7eaf12bac79f3a441b92ffc092647239ad4b773625475421436fee91dfa9f3"}], "txid": "bd30838e044c78a323e04a593408300279284f57ac1f19c5d9ac7310a3739e06", "blocktime": 1537870928, "version": 1, "confirmations": 11514, "time": 1537870928, "locktime": 0, "vsize": 339, "size": 669}