{"hash": "ce6df6c504185a6f7714b142562bddfec3d6cd518e36ce962e4c57cfa716b86d", "blockhash": "000000000000000000022b45ed06c6f4ccd3cf7fb5ba4856ebd2e58215665228", "vout": [{"scriptPubKey": {"reqSigs": 1, "hex": "76a9146199b81d765eacef1c357ae08a3382aab9b9fe1588ac", "addresses": ["19u4hCssxXHGpRTii3QYvc14wD1Dj5iDny"], "asm": "OP_DUP OP_HASH160 6199b81d765eacef1c357ae08a3382aab9b9fe15 OP_EQUALVERIFY OP_CHECKSIG", "type": "pubkeyhash"}, "value": 0.0035, "n": 0}, {"scriptPubKey": {"reqSigs": 1, "hex": "a914627aa52932456d89054bd84f86246af3b71b93a887", "addresses": ["3Afj4stdiLG9EktGrMbm252ySonnhYaz8v"], "asm": "OP_HASH160 627aa52932456d89054bd84f86246af3b71b93a8 OP_EQUAL", "type": "scripthash"}, "value": 0.76289234, "n": 1}], "hex": "0100000000010160cfc443fe5fa573522cc285b099494dc1cbf44a7691ba623d834ff9a33d134201000000232200205fdd641234b13964b223bd85ad2a4a667ca2099df3d42a1d3b45706a8d81abf0ffffffff0230570500000000001976a9146199b81d765eacef1c357ae08a3382aab9b9fe1588acd2148c040000000017a914627aa52932456d89054bd84f86246af3b71b93a88704004730440220260d2f267ce6725a50a326868b2a62def89a0f86576076217b22cd86894f9c7a02207f46b80a2f8b505e6d216498d73de840c9635b882d79171bd8139884ea2b7882014730440220200011bacd1655a815e474d32866e52d1d0b690bcae92a78068fd7b05922c17e022039f74b600deb9848a4d303c34d27fe46942c80d04e727524ed97592f03cb37110147522103dcde3832fa56def7b4e783faad1b8af85c3cdd74a5ff4f3c7c216b1075c18da12103c70ae8ded79be1afda73b9ce5ea14a3878908ee160d66a9a717e792bb6db276952ae00000000", "vin": [{"txinwitness": ["", "30440220260d2f267ce6725a50a326868b2a62def89a0f86576076217b22cd86894f9c7a02207f46b80a2f8b505e6d216498d73de840c9635b882d79171bd8139884ea2b788201", "30440220200011bacd1655a815e474d32866e52d1d0b690bcae92a78068fd7b05922c17e022039f74b600deb9848a4d303c34d27fe46942c80d04e727524ed97592f03cb371101", "522103dcde3832fa56def7b4e783faad1b8af85c3cdd74a5ff4f3c7c216b1075c18da12103c70ae8ded79be1afda73b9ce5ea14a3878908ee160d66a9a717e792bb6db276952ae"], "sequence": 4294967295, "scriptSig": {"hex": "2200205fdd641234b13964b223bd85ad2a4a667ca2099df3d42a1d3b45706a8d81abf0", "asm": "00205fdd641234b13964b223bd85ad2a4a667ca2099df3d42a1d3b45706a8d81abf0"}, "vout": 1, "txid": "42133da3f94f833d62ba91764af4cbc14d4999b085c22c5273a55ffe43c4cf60"}], "txid": "bd311b428894d4f81ff609d36b709d571439788b57ff3225f0db968aafffebae", "blocktime": 1537869901, "version": 1, "confirmations": 11523, "time": 1537869901, "locktime": 0, "vsize": 207, "size": 372}