{"hash": "bd33a1ed3da90f0c5cb0edaefcf24774f58b3a0c0ae712a0ba92df8538cebaec", "blockhash": "0000000000000000001f0ddff1eddb255c1121bcd4da4f1bc9a0da00cae72433", "vout": [{"scriptPubKey": {"reqSigs": 1, "hex": "a91450186ef057908e53a5406ddc4ecfe5999df11f3387", "addresses": ["38zXFYpaYnyGrAuu7LK18Ewo7TQMEw7gP8"], "asm": "OP_HASH160 50186ef057908e53a5406ddc4ecfe5999df11f33 OP_EQUAL", "type": "scripthash"}, "value": 0.000347, "n": 0}], "hex": "0100000002437c0948a0f220f039a086713259a97e520c1e5fcb3f82bad792026a61562399470000006a47304402201b3a53e10fa2e8a58380750723a9affb7f50fe0d35fd1ae5216a7bfab9b7040c02202669f5f6a94cdb1f487d58d99a9e07d10c888b47d71464cbcb200b2431694a71012103aaaa2b66b1bc91a1f2d6cfb90e4ed1b241f6004aab6aa7fbe37b339556a946c5ffffffff89c370aa708214cc915437adb2eea12b72d53392efa3ee9762666c69dfc62ded000000006b4830450221009c0ac45e6f691722a81682ed7589e9c9d2acc1e453e055f2ad1625fae1c148aa02205b444e6b3967320dd8838a14a093921b77936389cfa86c5d385453b45119cbca012103d5e0ead5ce74c2de2a2b319c41b32a16196373e5e5da62e443cfd095e74f8cc3ffffffff018c8700000000000017a91450186ef057908e53a5406ddc4ecfe5999df11f338700000000", "vin": [{"sequence": 4294967295, "scriptSig": {"hex": "47304402201b3a53e10fa2e8a58380750723a9affb7f50fe0d35fd1ae5216a7bfab9b7040c02202669f5f6a94cdb1f487d58d99a9e07d10c888b47d71464cbcb200b2431694a71012103aaaa2b66b1bc91a1f2d6cfb90e4ed1b241f6004aab6aa7fbe37b339556a946c5", "asm": "304402201b3a53e10fa2e8a58380750723a9affb7f50fe0d35fd1ae5216a7bfab9b7040c02202669f5f6a94cdb1f487d58d99a9e07d10c888b47d71464cbcb200b2431694a71[ALL] 03aaaa2b66b1bc91a1f2d6cfb90e4ed1b241f6004aab6aa7fbe37b339556a946c5"}, "vout": 71, "txid": "992356616a0292d7ba823fcb5f1e0c527ea959327186a039f020f2a048097c43"}, {"sequence": 4294967295, "scriptSig": {"hex": "4830450221009c0ac45e6f691722a81682ed7589e9c9d2acc1e453e055f2ad1625fae1c148aa02205b444e6b3967320dd8838a14a093921b77936389cfa86c5d385453b45119cbca012103d5e0ead5ce74c2de2a2b319c41b32a16196373e5e5da62e443cfd095e74f8cc3", "asm": "30450221009c0ac45e6f691722a81682ed7589e9c9d2acc1e453e055f2ad1625fae1c148aa02205b444e6b3967320dd8838a14a093921b77936389cfa86c5d385453b45119cbca[ALL] 03d5e0ead5ce74c2de2a2b319c41b32a16196373e5e5da62e443cfd095e74f8cc3"}, "vout": 0, "txid": "ed2dc6df696c666297eea3ef9233d5722ba1eeb2ad375491cc148270aa70c389"}], "txid": "bd33a1ed3da90f0c5cb0edaefcf24774f58b3a0c0ae712a0ba92df8538cebaec", "blocktime": 1537872018, "version": 1, "confirmations": 11489, "time": 1537872018, "locktime": 0, "vsize": 337, "size": 337}