{"hash": "bd35df04c4e1bb8d0bbe663aef3d0f25c4eaa7e307967e03a3635495fdadc5cf", "blockhash": "00000000000000000018f53835495a110e01622372bf6ae95dc86f2b0ab887b0", "vout": [{"scriptPubKey": {"reqSigs": 1, "hex": "76a914554ae2f95602a18cf4e9c5c33cda1a92bff0d22c88ac", "addresses": ["18mz9X6mtySaJQE71B8HNk7fxuqHhLtcHj"], "asm": "OP_DUP OP_HASH160 554ae2f95602a18cf4e9c5c33cda1a92bff0d22c OP_EQUALVERIFY OP_CHECKSIG", "type": "pubkeyhash"}, "value": 1.036e-05, "n": 0}, {"scriptPubKey": {"reqSigs": 1, "hex": "a91482d03d4a9e55bb9e9395b948012ee0ec9d7b52a987", "addresses": ["3DchED9YTDg4bySPxcmVr5wBH9u6atuNzE"], "asm": "OP_HASH160 82d03d4a9e55bb9e9395b948012ee0ec9d7b52a9 OP_EQUAL", "type": "scripthash"}, "value": 0.00510604, "n": 1}], "hex": "01000000013771a6292003c2be89ae794fc1a095913a99edf366341a8437d6e21176f7e970120000006b4830450221008710290a9d5b44fba09372cecfa3fff4155f9cec9d12a08b4bcedcc80abc4d750220276231aa467549423bb95256b152062e610bc13113c282538b360e9375c7a4ad0121026aec800c2032b5ef4414a7e52f0d706a45b296f4a094562e24688be810a73d68ffffffff020c040000000000001976a914554ae2f95602a18cf4e9c5c33cda1a92bff0d22c88ac8cca07000000000017a91482d03d4a9e55bb9e9395b948012ee0ec9d7b52a98700000000", "vin": [{"sequence": 4294967295, "scriptSig": {"hex": "4830450221008710290a9d5b44fba09372cecfa3fff4155f9cec9d12a08b4bcedcc80abc4d750220276231aa467549423bb95256b152062e610bc13113c282538b360e9375c7a4ad0121026aec800c2032b5ef4414a7e52f0d706a45b296f4a094562e24688be810a73d68", "asm": "30450221008710290a9d5b44fba09372cecfa3fff4155f9cec9d12a08b4bcedcc80abc4d750220276231aa467549423bb95256b152062e610bc13113c282538b360e9375c7a4ad[ALL] 026aec800c2032b5ef4414a7e52f0d706a45b296f4a094562e24688be810a73d68"}, "vout": 18, "txid": "70e9f77611e2d637841a3466f3ed993a9195a0c14f79ae89bec2032029a67137"}], "txid": "bd35df04c4e1bb8d0bbe663aef3d0f25c4eaa7e307967e03a3635495fdadc5cf", "blocktime": 1537870928, "version": 1, "confirmations": 11512, "time": 1537870928, "locktime": 0, "vsize": 224, "size": 224}