{"hash": "c485cf2544ed7d700084db5530204d6e550038fa226538c6e4add7bfd3974e65", "blockhash": "0000000000000000001f76057863aec43deb6fa401d9628bb513d65a8098bfab", "vout": [{"scriptPubKey": {"reqSigs": 1, "hex": "00146912b8ead8430433c963838fe2384c2abd6af68b", "addresses": ["bc1qdyft36kcgvzr8jtrsw87ywzv927k4a5tjalwah"], "asm": "0 6912b8ead8430433c963838fe2384c2abd6af68b", "type": "witness_v0_keyhash"}, "value": 0.00613417, "n": 0}, {"scriptPubKey": {"reqSigs": 1, "hex": "a9145e29416b1df524fa68327f1223cfd4078148afca87", "addresses": ["3AGts4VaU3yEXiYU1KmAcCr1rgUoESd1Y1"], "asm": "OP_HASH160 5e29416b1df524fa68327f1223cfd4078148afca OP_EQUAL", "type": "scripthash"}, "value": 0.02170949, "n": 1}], "hex": "0100000000010181bf879e9160fd1cee83474af93e8719829fa7bafa8e22fa4d76267fb544bcf80000000000ffffffff02295c0900000000001600146912b8ead8430433c963838fe2384c2abd6af68b452021000000000017a9145e29416b1df524fa68327f1223cfd4078148afca870247304402201a3403eb675e0842cf4e497b0ef7ddecfc2b83cb158fcb477ae94b9c2073a7c602202a270c2e78049e20d756293c5e5ec11bebfdfe29349c2e40bb38a622f2a75b2e012103846f7d7ae509ce8c27e171ce69f7e764b8b8187e96bc8e0317feba98b8fe8b7800000000", "vin": [{"txinwitness": ["304402201a3403eb675e0842cf4e497b0ef7ddecfc2b83cb158fcb477ae94b9c2073a7c602202a270c2e78049e20d756293c5e5ec11bebfdfe29349c2e40bb38a622f2a75b2e01", "03846f7d7ae509ce8c27e171ce69f7e764b8b8187e96bc8e0317feba98b8fe8b78"], "sequence": 4294967295, "scriptSig": {"hex": "", "asm": ""}, "vout": 0, "txid": "f8bc44b57f26764dfa228efabaa79f8219873ef94a4783ee1cfd60919e87bf81"}], "txid": "bd4238ece799f0fbdf85a35b0db766461be369b49055ea0da96a22e15e242879", "blocktime": 1537873891, "version": 1, "confirmations": 11478, "time": 1537873891, "locktime": 0, "vsize": 142, "size": 223}