{"hash": "bd45da17e679231a9be45d4015ad29a3601bad31db276f9ef9e6fec1d1bb1188", "blockhash": "0000000000000000001cda96e906b7601b7a6fb1a3b62bca570a9e5d8f4b3de1", "vout": [{"scriptPubKey": {"reqSigs": 1, "hex": "a914f7c35f21e8e77aca685dea704369d61b130f5dc087", "addresses": ["3QH4sannKxYqpQw3oSNtNMjtYGaR6Zxebr"], "asm": "OP_HASH160 f7c35f21e8e77aca685dea704369d61b130f5dc0 OP_EQUAL", "type": "scripthash"}, "value": 0.0047, "n": 0}, {"scriptPubKey": {"reqSigs": 1, "hex": "76a914184ff29aabed155efe10caeffd78b10b6e492ae988ac", "addresses": ["13DYzU1JFdF8SWi3sXNrzAaWQjPqXfd877"], "asm": "OP_DUP OP_HASH160 184ff29aabed155efe10caeffd78b10b6e492ae9 OP_EQUALVERIFY OP_CHECKSIG", "type": "pubkeyhash"}, "value": 0.004748, "n": 1}], "hex": "01000000018c2b06e788efed70143dab0c82aea355e327528fa0d108c2986d8201923024d9010000006b48304502210088905cc32d25ae5dd5eef6c59d36ef10d06499a2cdee9ef785d37ce21b83444a02207e1b9a0e495d9bdbc6962c70cba1458cfad9b22e2ee574541391c8f063cd25130121021b68f7b4e13d36c58dd951daf92803d4b78396d08f4df9241dc10ec2851af834feffffff02f02b07000000000017a914f7c35f21e8e77aca685dea704369d61b130f5dc087b03e0700000000001976a914184ff29aabed155efe10caeffd78b10b6e492ae988ac13490800", "vin": [{"sequence": 4294967294, "scriptSig": {"hex": "48304502210088905cc32d25ae5dd5eef6c59d36ef10d06499a2cdee9ef785d37ce21b83444a02207e1b9a0e495d9bdbc6962c70cba1458cfad9b22e2ee574541391c8f063cd25130121021b68f7b4e13d36c58dd951daf92803d4b78396d08f4df9241dc10ec2851af834", "asm": "304502210088905cc32d25ae5dd5eef6c59d36ef10d06499a2cdee9ef785d37ce21b83444a02207e1b9a0e495d9bdbc6962c70cba1458cfad9b22e2ee574541391c8f063cd2513[ALL] 021b68f7b4e13d36c58dd951daf92803d4b78396d08f4df9241dc10ec2851af834"}, "vout": 1, "txid": "d924309201826d98c208d1a08f5227e355a3ae820cab3d1470edef88e7062b8c"}], "txid": "bd45da17e679231a9be45d4015ad29a3601bad31db276f9ef9e6fec1d1bb1188", "blocktime": 1537873282, "version": 1, "confirmations": 11484, "time": 1537873282, "locktime": 542995, "vsize": 224, "size": 224}