{"hash": "bd45fbe415d62c71af4cee089338d727b512301808e4503c2f5ba0b026dfa598", "blockhash": "0000000000000000001cda96e906b7601b7a6fb1a3b62bca570a9e5d8f4b3de1", "vout": [{"scriptPubKey": {"reqSigs": 1, "hex": "76a9142663a3a3cb539dceab7da13ac6183cbacb48754e88ac", "addresses": ["14Vz3LwXdBg6uCUAFFsSu9nfXoFWQ3tii3"], "asm": "OP_DUP OP_HASH160 2663a3a3cb539dceab7da13ac6183cbacb48754e OP_EQUALVERIFY OP_CHECKSIG", "type": "pubkeyhash"}, "value": 0.00015611, "n": 0}, {"scriptPubKey": {"reqSigs": 1, "hex": "76a914aeca45906295ca1e67106baa4d0da2a047fd54a088ac", "addresses": ["1GwCtTyCp1HB9NbhmXZRS51Ffh7nf2taJo"], "asm": "OP_DUP OP_HASH160 aeca45906295ca1e67106baa4d0da2a047fd54a0 OP_EQUALVERIFY OP_CHECKSIG", "type": "pubkeyhash"}, "value": 0.05289191, "n": 1}], "hex": "01000000013016a1603b350175cd6be7efa6460152f1ebaa3f31eb73d2431f1d7a04537925010000006a47304402205e4e90d417b401edd9faa4dcd22a4c73712f60afbb665a83a04ba13144ba3053022019ed665bdc9f3974ded6c97d5e0d8c15af6c12eac5a4115aab5846390305970f0121038a76b1450ca33a848f78f3d97308ae5fc43c08a4687fb8b71d6a6739b9869673ffffffff02fb3c0000000000001976a9142663a3a3cb539dceab7da13ac6183cbacb48754e88ace7b45000000000001976a914aeca45906295ca1e67106baa4d0da2a047fd54a088ac00000000", "vin": [{"sequence": 4294967295, "scriptSig": {"hex": "47304402205e4e90d417b401edd9faa4dcd22a4c73712f60afbb665a83a04ba13144ba3053022019ed665bdc9f3974ded6c97d5e0d8c15af6c12eac5a4115aab5846390305970f0121038a76b1450ca33a848f78f3d97308ae5fc43c08a4687fb8b71d6a6739b9869673", "asm": "304402205e4e90d417b401edd9faa4dcd22a4c73712f60afbb665a83a04ba13144ba3053022019ed665bdc9f3974ded6c97d5e0d8c15af6c12eac5a4115aab5846390305970f[ALL] 038a76b1450ca33a848f78f3d97308ae5fc43c08a4687fb8b71d6a6739b9869673"}, "vout": 1, "txid": "257953047a1d1f43d273eb313faaebf1520146a6efe76bcd7501353b60a11630"}], "txid": "bd45fbe415d62c71af4cee089338d727b512301808e4503c2f5ba0b026dfa598", "blocktime": 1537873282, "version": 1, "confirmations": 11484, "time": 1537873282, "locktime": 0, "vsize": 225, "size": 225}