{"hash": "bd47c03dbd2aa7b1ff5d9821e3579926373e0b1234eb9b8b11391234254e14ed", "blockhash": "0000000000000000000dcc0f55137456b1a82d3642486a52398922ac4d620174", "vout": [{"scriptPubKey": {"reqSigs": 1, "hex": "76a9140288b57d7bed7cd93c1c93fc32e52010028e51e688ac", "addresses": ["1EQ866CLzLD5jtBNhjt1zmZ4LkCguk4GU"], "asm": "OP_DUP OP_HASH160 0288b57d7bed7cd93c1c93fc32e52010028e51e6 OP_EQUALVERIFY OP_CHECKSIG", "type": "pubkeyhash"}, "value": 4.399e-05, "n": 0}], "hex": "01000000014916b8b249c48e98bdadfbfb408b2948a6ad23d36c85471e01d86ca2308d55bd000000006b4830450221009d6ec17b4127b0d8ffe1d1fd072ffd6f2e3583e372522c28534c680e9f451af402204457b2640f77162bbb5faa5fbea1de3b5a3a9faf96529c07e88145fef89aa3c401210362fbbacec39905882b7141d99e3fba7d3feeff0e4369c94fcf2daa7b8c9248acffffffff012f110000000000001976a9140288b57d7bed7cd93c1c93fc32e52010028e51e688ac00000000", "vin": [{"sequence": 4294967295, "scriptSig": {"hex": "4830450221009d6ec17b4127b0d8ffe1d1fd072ffd6f2e3583e372522c28534c680e9f451af402204457b2640f77162bbb5faa5fbea1de3b5a3a9faf96529c07e88145fef89aa3c401210362fbbacec39905882b7141d99e3fba7d3feeff0e4369c94fcf2daa7b8c9248ac", "asm": "30450221009d6ec17b4127b0d8ffe1d1fd072ffd6f2e3583e372522c28534c680e9f451af402204457b2640f77162bbb5faa5fbea1de3b5a3a9faf96529c07e88145fef89aa3c4[ALL] 0362fbbacec39905882b7141d99e3fba7d3feeff0e4369c94fcf2daa7b8c9248ac"}, "vout": 0, "txid": "bd558d30a26cd8011e47856cd323ada648298b40fbfbadbd988ec449b2b81649"}], "txid": "bd47c03dbd2aa7b1ff5d9821e3579926373e0b1234eb9b8b11391234254e14ed", "blocktime": 1537870268, "version": 1, "confirmations": 11518, "time": 1537870268, "locktime": 0, "vsize": 192, "size": 192}