{"hash": "1082a2dd67913ccdc0a6637321d9d7b722160bd89db51f996d91e680dd8483c2", "blockhash": "0000000000000000000baef3f32e3676a92c3b2e5da21b426e4f302fc371ce76", "vout": [{"scriptPubKey": {"reqSigs": 1, "hex": "a9145bbafba706026fcf09095d4b04dba1ce7860628787", "addresses": ["3A43Qopo2f9fRGPuxUGoEo3QDnPPdcoWDb"], "asm": "OP_HASH160 5bbafba706026fcf09095d4b04dba1ce78606287 OP_EQUAL", "type": "scripthash"}, "value": 0.01016328, "n": 0}, {"scriptPubKey": {"reqSigs": 1, "hex": "76a914975ca9347254a389461572cdec5ae3a8a9b8c78388ac", "addresses": ["1EoL3ARivcCZwJm9gggwZKidhFuZceUdnD"], "asm": "OP_DUP OP_HASH160 975ca9347254a389461572cdec5ae3a8a9b8c783 OP_EQUALVERIFY OP_CHECKSIG", "type": "pubkeyhash"}, "value": 0.0105936, "n": 1}], "hex": "02000000000101c84a178ec68b63d28231a4f17c3ecdc17d0decd1242bed9587ff30f13eb7ba9e00000000171600140a97c6b0556e2bd7e444a8c5c975226aecd29f20feffffff0208820f000000000017a9145bbafba706026fcf09095d4b04dba1ce7860628787202a1000000000001976a914975ca9347254a389461572cdec5ae3a8a9b8c78388ac02473044022017b65d5d773e9fa065871f06faf8e9900b8537d535f78a9ba318e54d6aefc7f902203d1afa9aebd42d2fa73d428afe9189f593e47d4f24b35987720afdd3eb1925da012103ca7527d3ad4dca34a187b3b10e6d3c83fb9e5cf53f5268394771078435d084ab17490800", "vin": [{"txinwitness": ["3044022017b65d5d773e9fa065871f06faf8e9900b8537d535f78a9ba318e54d6aefc7f902203d1afa9aebd42d2fa73d428afe9189f593e47d4f24b35987720afdd3eb1925da01", "03ca7527d3ad4dca34a187b3b10e6d3c83fb9e5cf53f5268394771078435d084ab"], "sequence": 4294967294, "scriptSig": {"hex": "1600140a97c6b0556e2bd7e444a8c5c975226aecd29f20", "asm": "00140a97c6b0556e2bd7e444a8c5c975226aecd29f20"}, "vout": 0, "txid": "9ebab73ef130ff8795ed2b24d1ec0d7dc1cd3e7cf1a43182d2638bc68e174ac8"}], "txid": "bd4a408ced630c01daf64a639c85cc01c92ca93e43941e0f7ed47b1410e9eaca", "blocktime": 1537876114, "version": 2, "confirmations": 11462, "time": 1537876114, "locktime": 542999, "vsize": 168, "size": 249}