{"hash": "bd5679e63f999f36321e242c83420926a84522c8d4f1eb11c6a13c09a4755c7d", "blockhash": "0000000000000000000dcc0f55137456b1a82d3642486a52398922ac4d620174", "vout": [{"scriptPubKey": {"reqSigs": 1, "hex": "76a91405ddb8cbad57f1d2a1f4a78c350f6c031ceb237488ac", "addresses": ["1Y1zTuc3rKMCQiZPFGagJuuhK6rvXJwQm"], "asm": "OP_DUP OP_HASH160 05ddb8cbad57f1d2a1f4a78c350f6c031ceb2374 OP_EQUALVERIFY OP_CHECKSIG", "type": "pubkeyhash"}, "value": 0.09704647, "n": 0}, {"scriptPubKey": {"reqSigs": 1, "hex": "a91469f376ab778e56e8cd84da0f71de55b8e27c785c87", "addresses": ["3BMEXq79kTh5TfCoRA3djjXy6NJnkD3XQa"], "asm": "OP_HASH160 69f376ab778e56e8cd84da0f71de55b8e27c785c OP_EQUAL", "type": "scripthash"}, "value": 0.11477435, "n": 1}], "hex": "010000000254570491b4e3a8e7af484026450c9a636b07ca11e97b229c756540879875298d000000006a4730440220121c7e0521511b5b6450567ec7294f02f2de8002d8c93790a9482caa1688a45d022027cd451c668f528fefebc504f3ee6f1e57a7eb2e4ef6f114eb9bdf43a536ba59012102a4d6f4fe333c5f7b33bc4b91d3fca58a1dd47ef83b98fa055b6b7067e8bc2ee5ffffffff9969e42fabd3e04c50dde5c3948c529d1b09a707bc8ab45577cc51ff9ca7f6b7000000006a4730440220620cb8acb5d9ddf232ea7036e4ca07d6e7bf9d6d355e5a9207cead6f2fe874b702206e4e74d81d823a34b63d690852e2d2f7a553b3004dff32e412b4ec0af71087ef012103a70d27c7039dcd9f3b2449daa98007989a7c73521ea6ce82148e8c81fb939795ffffffff02c7149400000000001976a91405ddb8cbad57f1d2a1f4a78c350f6c031ceb237488acbb21af000000000017a91469f376ab778e56e8cd84da0f71de55b8e27c785c8700000000", "vin": [{"sequence": 4294967295, "scriptSig": {"hex": "4730440220121c7e0521511b5b6450567ec7294f02f2de8002d8c93790a9482caa1688a45d022027cd451c668f528fefebc504f3ee6f1e57a7eb2e4ef6f114eb9bdf43a536ba59012102a4d6f4fe333c5f7b33bc4b91d3fca58a1dd47ef83b98fa055b6b7067e8bc2ee5", "asm": "30440220121c7e0521511b5b6450567ec7294f02f2de8002d8c93790a9482caa1688a45d022027cd451c668f528fefebc504f3ee6f1e57a7eb2e4ef6f114eb9bdf43a536ba59[ALL] 02a4d6f4fe333c5f7b33bc4b91d3fca58a1dd47ef83b98fa055b6b7067e8bc2ee5"}, "vout": 0, "txid": "8d297598874065759c227be911ca076b639a0c45264048afe7a8e3b491045754"}, {"sequence": 4294967295, "scriptSig": {"hex": "4730440220620cb8acb5d9ddf232ea7036e4ca07d6e7bf9d6d355e5a9207cead6f2fe874b702206e4e74d81d823a34b63d690852e2d2f7a553b3004dff32e412b4ec0af71087ef012103a70d27c7039dcd9f3b2449daa98007989a7c73521ea6ce82148e8c81fb939795", "asm": "30440220620cb8acb5d9ddf232ea7036e4ca07d6e7bf9d6d355e5a9207cead6f2fe874b702206e4e74d81d823a34b63d690852e2d2f7a553b3004dff32e412b4ec0af71087ef[ALL] 03a70d27c7039dcd9f3b2449daa98007989a7c73521ea6ce82148e8c81fb939795"}, "vout": 0, "txid": "b7f6a79cff51cc7755b48abc07a7091b9d528c94c3e5dd504ce0d3ab2fe46999"}], "txid": "bd5679e63f999f36321e242c83420926a84522c8d4f1eb11c6a13c09a4755c7d", "blocktime": 1537870268, "version": 1, "confirmations": 11516, "time": 1537870268, "locktime": 0, "vsize": 370, "size": 370}