{"hash": "bd5cc00511b3f168602e6e0e6ac252ecbbb4e9ac6d9c352a6a0293905a2c370e", "blockhash": "000000000000000000022b45ed06c6f4ccd3cf7fb5ba4856ebd2e58215665228", "vout": [{"scriptPubKey": {"reqSigs": 1, "hex": "76a914d243e6abb9a60fbff430b421d2df4b7d59ec186088ac", "addresses": ["1LAnF8h3qMGx3TSwNUHVneBZUEpwE4gu3D"], "asm": "OP_DUP OP_HASH160 d243e6abb9a60fbff430b421d2df4b7d59ec1860 OP_EQUALVERIFY OP_CHECKSIG", "type": "pubkeyhash"}, "value": 0.00076972, "n": 0}, {"scriptPubKey": {"reqSigs": 1, "hex": "76a9143851f34d13937b673a7d24a1950bb5b21ce94af388ac", "addresses": ["168o1kqNquEJeR9vosUB5fw4eAwcVAgh8P"], "asm": "OP_DUP OP_HASH160 3851f34d13937b673a7d24a1950bb5b21ce94af3 OP_EQUALVERIFY OP_CHECKSIG", "type": "pubkeyhash"}, "value": 5.46e-06, "n": 1}, {"scriptPubKey": {"type": "nulldata", "hex": "6a146f6d6e69000000000000001f0000000d98e94800", "asm": "OP_RETURN 6f6d6e69000000000000001f0000000d98e94800"}, "value": 0.0, "n": 2}], "hex": "0100000002b0b56fd5ce977dde71a6faf2ddebca41a038641216c1ff7f08ef65835078b85c020000006a47304402201635d24c43a118785674854db0413efd2d957e69fc42097e97144a19ff21b14802201505c6b622690c538c287ca6f891cb3bdfa49401bebe450189a10c14a4fbeae6012103efbc5c55c0872e4384a1461cb76c948256a23b90f5e0cb3f171adbcba09f98acffffffff1db3ddba1037ee5c7187eae10507b79a05f7399e2da9dc2ac2f764e1ad187915000000006a47304402205af1304a8a9953d794e2bd3e92ee26ecd2151ab483523578e6330ca24f7464f2022077fe894455630c718fd5e54dea326bc8c13510599b1082db793349c14531b5bf01210271977291b74f1f5f5c42157e8aae804664eaaeccfd097918450d37f28fb94d77ffffffff03ac2c0100000000001976a914d243e6abb9a60fbff430b421d2df4b7d59ec186088ac22020000000000001976a9143851f34d13937b673a7d24a1950bb5b21ce94af388ac0000000000000000166a146f6d6e69000000000000001f0000000d98e9480000000000", "vin": [{"sequence": 4294967295, "scriptSig": {"hex": "47304402201635d24c43a118785674854db0413efd2d957e69fc42097e97144a19ff21b14802201505c6b622690c538c287ca6f891cb3bdfa49401bebe450189a10c14a4fbeae6012103efbc5c55c0872e4384a1461cb76c948256a23b90f5e0cb3f171adbcba09f98ac", "asm": "304402201635d24c43a118785674854db0413efd2d957e69fc42097e97144a19ff21b14802201505c6b622690c538c287ca6f891cb3bdfa49401bebe450189a10c14a4fbeae6[ALL] 03efbc5c55c0872e4384a1461cb76c948256a23b90f5e0cb3f171adbcba09f98ac"}, "vout": 2, "txid": "5cb878508365ef087fffc116126438a041caebddf2faa671de7d97ced56fb5b0"}, {"sequence": 4294967295, "scriptSig": {"hex": "47304402205af1304a8a9953d794e2bd3e92ee26ecd2151ab483523578e6330ca24f7464f2022077fe894455630c718fd5e54dea326bc8c13510599b1082db793349c14531b5bf01210271977291b74f1f5f5c42157e8aae804664eaaeccfd097918450d37f28fb94d77", "asm": "304402205af1304a8a9953d794e2bd3e92ee26ecd2151ab483523578e6330ca24f7464f2022077fe894455630c718fd5e54dea326bc8c13510599b1082db793349c14531b5bf[ALL] 0271977291b74f1f5f5c42157e8aae804664eaaeccfd097918450d37f28fb94d77"}, "vout": 0, "txid": "157918ade164f7c22adca92d9e39f7059ab70705e1ea87715cee3710baddb31d"}], "txid": "bd5cc00511b3f168602e6e0e6ac252ecbbb4e9ac6d9c352a6a0293905a2c370e", "blocktime": 1537869901, "version": 1, "confirmations": 11522, "time": 1537869901, "locktime": 0, "vsize": 403, "size": 403}