{"hash": "bd5c3485e7b63ba9c83716e3e72f5d8fa2161aa78bc53670fd7d07a16841e908", "blockhash": "0000000000000000000e13cef7c366c0283d82e591d1acd082e914b08063cdf1", "vout": [{"scriptPubKey": {"reqSigs": 1, "hex": "76a914d57bf3f910b2b3e0cd1a7f9884659483c123bb7488ac", "addresses": ["1LToRGTyFm3TJsqiXZ6bHLxtjK7DeYkHTc"], "asm": "OP_DUP OP_HASH160 d57bf3f910b2b3e0cd1a7f9884659483c123bb74 OP_EQUALVERIFY OP_CHECKSIG", "type": "pubkeyhash"}, "value": 0.0064352, "n": 0}, {"scriptPubKey": {"type": "nulldata", "hex": "6a4c500000779a0001a3eae3b0becebaeb43a6d0dee3ef3236678a625097bcbefa6b8351586b4e7320748def585085c4a23436c4a30c4d5baa0d6106154101cfb622751d100759d4ba30d2c37bb011d97e02cf", "asm": "OP_RETURN 0000779a0001a3eae3b0becebaeb43a6d0dee3ef3236678a625097bcbefa6b8351586b4e7320748def585085c4a23436c4a30c4d5baa0d6106154101cfb622751d100759d4ba30d2c37bb011d97e02cf"}, "value": 0.0, "n": 1}], "hex": "0100000001888253bc4553314f6140b9a1f9b1ff38b9ee92a5fcb8d11d50ba99378c2fc4c6000000006b483045022100c6f7663d0ccc487622ab7f460b42cd1ba67fc17756792b15735f2eaa7feb5ba00220295893269aa2f703b5f26aabdf15d74f43b005ec181bb452af90a9984c8085770121031ca048d5c35541816e15164a7043e770b9c88e01c88ea17a0721c25c7d64fb86ffffffff02c0d10900000000001976a914d57bf3f910b2b3e0cd1a7f9884659483c123bb7488ac0000000000000000536a4c500000779a0001a3eae3b0becebaeb43a6d0dee3ef3236678a625097bcbefa6b8351586b4e7320748def585085c4a23436c4a30c4d5baa0d6106154101cfb622751d100759d4ba30d2c37bb011d97e02cf00000000", "vin": [{"sequence": 4294967295, "scriptSig": {"hex": "483045022100c6f7663d0ccc487622ab7f460b42cd1ba67fc17756792b15735f2eaa7feb5ba00220295893269aa2f703b5f26aabdf15d74f43b005ec181bb452af90a9984c8085770121031ca048d5c35541816e15164a7043e770b9c88e01c88ea17a0721c25c7d64fb86", "asm": "3045022100c6f7663d0ccc487622ab7f460b42cd1ba67fc17756792b15735f2eaa7feb5ba00220295893269aa2f703b5f26aabdf15d74f43b005ec181bb452af90a9984c808577[ALL] 031ca048d5c35541816e15164a7043e770b9c88e01c88ea17a0721c25c7d64fb86"}, "vout": 0, "txid": "c6c42f8c3799ba501dd1b8fca592eeb938ffb1f9a1b940614f315345bc538288"}], "txid": "bd5c3485e7b63ba9c83716e3e72f5d8fa2161aa78bc53670fd7d07a16841e908", "blocktime": 1537871767, "version": 1, "confirmations": 11495, "time": 1537871767, "locktime": 0, "vsize": 284, "size": 284}