{"hash": "feccd9dc4953fc422e43b9cb846a81275a347650690249d40cf693ad96ff0852", "blockhash": "0000000000000000001f0ddff1eddb255c1121bcd4da4f1bc9a0da00cae72433", "vout": [{"scriptPubKey": {"reqSigs": 1, "hex": "76a914c921934a1c45e902ce66d131d902a28f875acd5088ac", "addresses": ["1KLV3R238NRXL9B9dKN33dHDDEQnPj3T4X"], "asm": "OP_DUP OP_HASH160 c921934a1c45e902ce66d131d902a28f875acd50 OP_EQUALVERIFY OP_CHECKSIG", "type": "pubkeyhash"}, "value": 0.00078, "n": 0}, {"scriptPubKey": {"reqSigs": 1, "hex": "00146b1e97e78f41f4d9d12ea21034e2cdf0b62a81fc", "addresses": ["bc1qdv0f0eu0g86dn5fw5ggrfckd7zmz4q0u6cx9yv"], "asm": "0 6b1e97e78f41f4d9d12ea21034e2cdf0b62a81fc", "type": "witness_v0_keyhash"}, "value": 1.412e-05, "n": 1}], "hex": "0100000000010139cacc92723424de19eb1f19b068dca992479f61b267b0b674fae4becf3dde33130000001716001471ba8043e77eb6e89c4c812b0bc09e45cfa7fd7affffffff02b0300100000000001976a914c921934a1c45e902ce66d131d902a28f875acd5088ac84050000000000001600146b1e97e78f41f4d9d12ea21034e2cdf0b62a81fc02483045022100bcf9fb1f1010974bb5cf6e4d9a5f0f9a273baab9b5b2f404b9cbb0c30cd658850220374bc6058c56536f33c3fef4208fe1f3fee6bfbd3597caa6b2ace6f893035edf012103caeca83aa1e6358254d3bf34355eb89fff1e28295a19ee1322abe3b2afa2f57000000000", "vin": [{"txinwitness": ["3045022100bcf9fb1f1010974bb5cf6e4d9a5f0f9a273baab9b5b2f404b9cbb0c30cd658850220374bc6058c56536f33c3fef4208fe1f3fee6bfbd3597caa6b2ace6f893035edf01", "03caeca83aa1e6358254d3bf34355eb89fff1e28295a19ee1322abe3b2afa2f570"], "sequence": 4294967295, "scriptSig": {"hex": "16001471ba8043e77eb6e89c4c812b0bc09e45cfa7fd7a", "asm": "001471ba8043e77eb6e89c4c812b0bc09e45cfa7fd7a"}, "vout": 19, "txid": "33de3dcfbee4fa74b6b067b2619f4792a9dc68b0191feb19de24347292ccca39"}], "txid": "bd5c8ae6651793277e42c47e4ae474b439f08d23ab08c10a37b2833b16625e3e", "blocktime": 1537872018, "version": 1, "confirmations": 11489, "time": 1537872018, "locktime": 0, "vsize": 167, "size": 249}