{"hash": "bd5dfb5b5b6041bd3ee43da3714b124546ab1895d34eb67624a086bdb2ed48e5", "blockhash": "0000000000000000001e0dab787dd257d1dbfcb92a98c2207d5e1078be1f4165", "vout": [{"scriptPubKey": {"reqSigs": 1, "hex": "76a914ba5a3f81ca5675b0a0507e50c5fd21a56afb26df88ac", "addresses": ["1HzLoE9E5tym55P7GahmfVVGT8B5bNa8kc"], "asm": "OP_DUP OP_HASH160 ba5a3f81ca5675b0a0507e50c5fd21a56afb26df OP_EQUALVERIFY OP_CHECKSIG", "type": "pubkeyhash"}, "value": 0.46859624, "n": 0}, {"scriptPubKey": {"reqSigs": 1, "hex": "76a9148ac4fd14ab4a9fde0dd815a14f9f6ef254e6518b88ac", "addresses": ["1DekEUrXt8RDbCQZeDNGNkJYqpSeerQDKc"], "asm": "OP_DUP OP_HASH160 8ac4fd14ab4a9fde0dd815a14f9f6ef254e6518b OP_EQUALVERIFY OP_CHECKSIG", "type": "pubkeyhash"}, "value": 2.65651458, "n": 1}], "hex": "0100000001a80557ec6b2d8585faac675a55af29abeb13f4ce98b18aeac6fd1abcaa50c2ca010000006a47304402204b0dba9c063b3fff1e9dea145b71294566b37aff89bf3c78107ed632d31522520220584aee65cd8bc5e522ba63db0f90d1d03c4dd41e878f16284512d0ab3b405111012103e3c8f897d51e6b71557465e85393d34a7bf316f9aa657800ce41a8f4b808213effffffff026805cb02000000001976a914ba5a3f81ca5675b0a0507e50c5fd21a56afb26df88ac0285d50f000000001976a9148ac4fd14ab4a9fde0dd815a14f9f6ef254e6518b88ac00000000", "vin": [{"sequence": 4294967295, "scriptSig": {"hex": "47304402204b0dba9c063b3fff1e9dea145b71294566b37aff89bf3c78107ed632d31522520220584aee65cd8bc5e522ba63db0f90d1d03c4dd41e878f16284512d0ab3b405111012103e3c8f897d51e6b71557465e85393d34a7bf316f9aa657800ce41a8f4b808213e", "asm": "304402204b0dba9c063b3fff1e9dea145b71294566b37aff89bf3c78107ed632d31522520220584aee65cd8bc5e522ba63db0f90d1d03c4dd41e878f16284512d0ab3b405111[ALL] 03e3c8f897d51e6b71557465e85393d34a7bf316f9aa657800ce41a8f4b808213e"}, "vout": 1, "txid": "cac250aabc1afdc6ea8ab198cef413ebab29af555a67acfa85852d6bec5705a8"}], "txid": "bd5dfb5b5b6041bd3ee43da3714b124546ab1895d34eb67624a086bdb2ed48e5", "blocktime": 1537872475, "version": 1, "confirmations": 11486, "time": 1537872475, "locktime": 0, "vsize": 225, "size": 225}