{"hash": "bd63ad5b36d6c4e412557ce5d1ed3c526614d515a4fa177a507e675f66ae36a0", "blockhash": "0000000000000000000dcc0f55137456b1a82d3642486a52398922ac4d620174", "vout": [{"scriptPubKey": {"reqSigs": 1, "hex": "a91469f3766af4c329f9f7c55f3613a7432f1805fee487", "addresses": ["3BMEXm95BGNNUjRSyYEqwtc4yLZF6yUS3P"], "asm": "OP_HASH160 69f3766af4c329f9f7c55f3613a7432f1805fee4 OP_EQUAL", "type": "scripthash"}, "value": 0.1235, "n": 0}, {"scriptPubKey": {"reqSigs": 1, "hex": "76a914d5ba2eb2d52670fbe9522748bf642da754eb0d6f88ac", "addresses": ["1LV5y3NkVkmdWnF6xRCEXrAnUkRgge4KSq"], "asm": "OP_DUP OP_HASH160 d5ba2eb2d52670fbe9522748bf642da754eb0d6f OP_EQUALVERIFY OP_CHECKSIG", "type": "pubkeyhash"}, "value": 11.897227, "n": 1}], "hex": "0100000001fd403022c8810fd9199be68fa911816421c85da968e289e8730a4c505a697e77010000006a47304402205aedcad45296947ce087e9661321c1c92b935b41d2f74883e08138852ad8508e022073a9fd4c045b399f87ea0674b3c2437a474ef26b519d5b958f5994647d204f84012102c19ebc0e7fe714e24c55adaeebc7dbab2dc9a208b511bd1b6e83db85506d4d19ffffffff023072bc000000000017a91469f3766af4c329f9f7c55f3613a7432f1805fee4874cbae946000000001976a914d5ba2eb2d52670fbe9522748bf642da754eb0d6f88ac00000000", "vin": [{"sequence": 4294967295, "scriptSig": {"hex": "47304402205aedcad45296947ce087e9661321c1c92b935b41d2f74883e08138852ad8508e022073a9fd4c045b399f87ea0674b3c2437a474ef26b519d5b958f5994647d204f84012102c19ebc0e7fe714e24c55adaeebc7dbab2dc9a208b511bd1b6e83db85506d4d19", "asm": "304402205aedcad45296947ce087e9661321c1c92b935b41d2f74883e08138852ad8508e022073a9fd4c045b399f87ea0674b3c2437a474ef26b519d5b958f5994647d204f84[ALL] 02c19ebc0e7fe714e24c55adaeebc7dbab2dc9a208b511bd1b6e83db85506d4d19"}, "vout": 1, "txid": "777e695a504c0a73e889e268a95dc821648111a98fe69b19d90f81c8223040fd"}], "txid": "bd63ad5b36d6c4e412557ce5d1ed3c526614d515a4fa177a507e675f66ae36a0", "blocktime": 1537870268, "version": 1, "confirmations": 11518, "time": 1537870268, "locktime": 0, "vsize": 223, "size": 223}