{"hash": "e9ea0174de5acd3416c7e3d013d1d6d4c94da3dd3cde5d006ebe786729735e0f", "blockhash": "0000000000000000000dcc0f55137456b1a82d3642486a52398922ac4d620174", "vout": [{"scriptPubKey": {"reqSigs": 1, "hex": "a91410e0da23e48c97aa06a8560578d5a646bb4931d487", "addresses": ["33EG6cRVWExALEQ23DKFeRpAkGPVBTfQ3G"], "asm": "OP_HASH160 10e0da23e48c97aa06a8560578d5a646bb4931d4 OP_EQUAL", "type": "scripthash"}, "value": 0.01008662, "n": 0}, {"scriptPubKey": {"reqSigs": 1, "hex": "76a914973d0713fe17883bc398b16170310b18294c015a88ac", "addresses": ["1Eng9F2KCWUW4qrKuEmHHKNfVhAzixQam1"], "asm": "OP_DUP OP_HASH160 973d0713fe17883bc398b16170310b18294c015a OP_EQUALVERIFY OP_CHECKSIG", "type": "pubkeyhash"}, "value": 0.0002, "n": 1}], "hex": "0200000000010166f45bfb7f7108798abe49a9a66780ec91aae612d7b932ee944035366dd07de1010000001716001412f928ec9b79645ae965c707eb2aa7024fba51dcfeffffff0216640f000000000017a91410e0da23e48c97aa06a8560578d5a646bb4931d487204e0000000000001976a914973d0713fe17883bc398b16170310b18294c015a88ac0247304402201044049eadf175c2d2c7ed60115f7e2f2991b9a7f6efbbf939e60742bade716b022008371f4b761b30338fa0c0973b85bc3b02678f7ae9e1e5d4c24eea3f0981f34c012103b52caef2a537222c7e424dd9e8aeb5e08617ea69b8b0c01f9efc85b4e126680b0c490800", "vin": [{"txinwitness": ["304402201044049eadf175c2d2c7ed60115f7e2f2991b9a7f6efbbf939e60742bade716b022008371f4b761b30338fa0c0973b85bc3b02678f7ae9e1e5d4c24eea3f0981f34c01", "03b52caef2a537222c7e424dd9e8aeb5e08617ea69b8b0c01f9efc85b4e126680b"], "sequence": 4294967294, "scriptSig": {"hex": "16001412f928ec9b79645ae965c707eb2aa7024fba51dc", "asm": "001412f928ec9b79645ae965c707eb2aa7024fba51dc"}, "vout": 1, "txid": "e17dd06d36354094ee32b9d712e6aa91ec8067a6a949be8a7908717ffb5bf466"}], "txid": "bd63796e4f22af13f8cc3c7413b358c2998b92145173f77cc5411d8f4f712512", "blocktime": 1537870268, "version": 2, "confirmations": 11519, "time": 1537870268, "locktime": 542988, "vsize": 168, "size": 249}