{"hash": "bd6681789bc12826a7340bcef70c02b3accd4cfe30df7e758e4e3041f30dd8a3", "blockhash": "00000000000000000004ffacab907a6b429b9a5745fa0b75af4234bf69dd7176", "vout": [{"scriptPubKey": {"reqSigs": 1, "hex": "a9140252b7db4e9eb73b17c7443b5e3c55b291506bd387", "addresses": ["31uJNHfA7sUTfaLc5GSQETexLTuojfAbRG"], "asm": "OP_HASH160 0252b7db4e9eb73b17c7443b5e3c55b291506bd3 OP_EQUAL", "type": "scripthash"}, "value": 0.0045, "n": 0}, {"scriptPubKey": {"reqSigs": 1, "hex": "76a9144e6d222fbf7f07ce71f7aae2e90b596483676de788ac", "addresses": ["189gShG6EeqGCeRvmVRwBAXTkXAakyZA4R"], "asm": "OP_DUP OP_HASH160 4e6d222fbf7f07ce71f7aae2e90b596483676de7 OP_EQUALVERIFY OP_CHECKSIG", "type": "pubkeyhash"}, "value": 0.07511845, "n": 1}], "hex": "010000000136122c61e542dc3ac811857a34238fb2143b13cfbe54e435c171faeca512789e010000006b483045022100e309af73006f14990bac1ec030115e0306549b25feb3660387a07151527d4d7f022066c561014295137114dacd27e0ab1eb8417048cb5344f7d07eac7b1426dd81560121035fb2004ba3ec337cfd73eacabdf887c40c5b003d500a7ebb49e06698e12f1d3cfdffffff02d0dd06000000000017a9140252b7db4e9eb73b17c7443b5e3c55b291506bd387259f7200000000001976a9144e6d222fbf7f07ce71f7aae2e90b596483676de788ac16490800", "vin": [{"sequence": 4294967293, "scriptSig": {"hex": "483045022100e309af73006f14990bac1ec030115e0306549b25feb3660387a07151527d4d7f022066c561014295137114dacd27e0ab1eb8417048cb5344f7d07eac7b1426dd81560121035fb2004ba3ec337cfd73eacabdf887c40c5b003d500a7ebb49e06698e12f1d3c", "asm": "3045022100e309af73006f14990bac1ec030115e0306549b25feb3660387a07151527d4d7f022066c561014295137114dacd27e0ab1eb8417048cb5344f7d07eac7b1426dd8156[ALL] 035fb2004ba3ec337cfd73eacabdf887c40c5b003d500a7ebb49e06698e12f1d3c"}, "vout": 1, "txid": "9e7812a5ecfa71c135e454becf133b14b28f23347a8511c83adc42e5612c1236"}], "txid": "bd6681789bc12826a7340bcef70c02b3accd4cfe30df7e758e4e3041f30dd8a3", "blocktime": 1537875543, "version": 1, "confirmations": 11464, "time": 1537875543, "locktime": 542998, "vsize": 224, "size": 224}