{"hash": "bd67fbada2cb8f6f49f48ee0157a12fb78a8161bb86906cc973d4d28882adb66", "blockhash": "00000000000000000017f5eb5941039fbcee6240d03bc1f2f8e35350df66a1d8", "vout": [{"scriptPubKey": {"type": "nulldata", "hex": "6a4c50000077f30001c58e89d8391d43717eab7aa5d19ed074892d00f8e87af8e8e963c7cfd5b9bc8d350a7163155daf39fcbde7df97b95baa189c0613aebfe86a95531d100759d4ba30d2c37bb011d97e02cf", "asm": "OP_RETURN 000077f30001c58e89d8391d43717eab7aa5d19ed074892d00f8e87af8e8e963c7cfd5b9bc8d350a7163155daf39fcbde7df97b95baa189c0613aebfe86a95531d100759d4ba30d2c37bb011d97e02cf"}, "value": 0.0, "n": 0}, {"scriptPubKey": {"reqSigs": 1, "hex": "76a91435b0cde4991f1e9b21131d6c0805063c813eff1788ac", "addresses": ["15ttck6VY7nNCDF9BMHkTT2M8kKdueizCb"], "asm": "OP_DUP OP_HASH160 35b0cde4991f1e9b21131d6c0805063c813eff17 OP_EQUALVERIFY OP_CHECKSIG", "type": "pubkeyhash"}, "value": 0.0063781, "n": 1}], "hex": "0100000001dcaebb128d02b7d9ee47acb915a3c50f7e1a946dbf123828a43b00107f8290e4010000006a47304402202d954d8391e406eef0672e912f98ec9fc51fc7db59d35827d7202bf6c470901a022031a178a0d26759eed9b9ad3692cb9d3b1b0fe0c498c8794a4f02cd82e537083701210204028902d63d265673783550aa55d1a9aa26750cd360e31fe8a3dbcf14fde1feffffffff020000000000000000536a4c50000077f30001c58e89d8391d43717eab7aa5d19ed074892d00f8e87af8e8e963c7cfd5b9bc8d350a7163155daf39fcbde7df97b95baa189c0613aebfe86a95531d100759d4ba30d2c37bb011d97e02cf72bb0900000000001976a91435b0cde4991f1e9b21131d6c0805063c813eff1788ac00000000", "vin": [{"sequence": 4294967295, "scriptSig": {"hex": "47304402202d954d8391e406eef0672e912f98ec9fc51fc7db59d35827d7202bf6c470901a022031a178a0d26759eed9b9ad3692cb9d3b1b0fe0c498c8794a4f02cd82e537083701210204028902d63d265673783550aa55d1a9aa26750cd360e31fe8a3dbcf14fde1fe", "asm": "304402202d954d8391e406eef0672e912f98ec9fc51fc7db59d35827d7202bf6c470901a022031a178a0d26759eed9b9ad3692cb9d3b1b0fe0c498c8794a4f02cd82e5370837[ALL] 0204028902d63d265673783550aa55d1a9aa26750cd360e31fe8a3dbcf14fde1fe"}, "vout": 1, "txid": "e490827f10003ba4283812bf6d941a7e0fc5a315b9ac47eed9b7028d12bbaedc"}], "txid": "bd67fbada2cb8f6f49f48ee0157a12fb78a8161bb86906cc973d4d28882adb66", "blocktime": 1537874412, "version": 1, "confirmations": 11467, "time": 1537874412, "locktime": 0, "vsize": 283, "size": 283}