{"hash": "f3cb48769236021aff1d895ddbb122c268b3389c5a718a30c6725f827e0ca12b", "blockhash": "0000000000000000000dcc0f55137456b1a82d3642486a52398922ac4d620174", "vout": [{"scriptPubKey": {"reqSigs": 1, "hex": "76a914af39051ae5b8de70d7ffe0713a20642fcafd04d288ac", "addresses": ["1GyVZPMEjP5GxPJVXeNfcoiQpWoHKMnRwj"], "asm": "OP_DUP OP_HASH160 af39051ae5b8de70d7ffe0713a20642fcafd04d2 OP_EQUALVERIFY OP_CHECKSIG", "type": "pubkeyhash"}, "value": 0.01, "n": 0}, {"scriptPubKey": {"reqSigs": 1, "hex": "a91488cb6746cfa63d8152a7c3d1a3418b44587299be87", "addresses": ["3EAKVMGu8PA9ynhL6dz5dZM3BKqbFJQzuD"], "asm": "OP_HASH160 88cb6746cfa63d8152a7c3d1a3418b44587299be OP_EQUAL", "type": "scripthash"}, "value": 5.73894263, "n": 1}], "hex": "02000000000101eef435bafe0773f7da1855d6ee6d98135bad92635f28b39e5138012236fd4f4a0000000017160014e693d273949d68134fac39f6bcf93022e223bbb8feffffff0240420f00000000001976a914af39051ae5b8de70d7ffe0713a20642fcafd04d288ac77ee34220000000017a91488cb6746cfa63d8152a7c3d1a3418b44587299be870247304402204eb6c67e2ee2924b04c5edfa8044afc82c67116f4e283006134079cae10c1ba1022012307eb2a433ad30a898fd6d2e903bdae1268aa05612c1635dd57c677ae8f6130121030865fb89e99fa3b7a45baba01dea85d989eacd97c7e0d269579477caad4a1e500c490800", "vin": [{"txinwitness": ["304402204eb6c67e2ee2924b04c5edfa8044afc82c67116f4e283006134079cae10c1ba1022012307eb2a433ad30a898fd6d2e903bdae1268aa05612c1635dd57c677ae8f61301", "030865fb89e99fa3b7a45baba01dea85d989eacd97c7e0d269579477caad4a1e50"], "sequence": 4294967294, "scriptSig": {"hex": "160014e693d273949d68134fac39f6bcf93022e223bbb8", "asm": "0014e693d273949d68134fac39f6bcf93022e223bbb8"}, "vout": 0, "txid": "4a4ffd36220138519eb3285f6392ad5b13986deed65518daf77307feba35f4ee"}], "txid": "bd6ab8b7c8323d37b4cb1a02351a02f69f69e5d7888286bb43d3f09d42e74fa7", "blocktime": 1537870268, "version": 2, "confirmations": 11519, "time": 1537870268, "locktime": 542988, "vsize": 168, "size": 249}