{"hash": "bd6dbcd673463531ae9ded75ed929d2f95463fe51c6a09ed367737a2ff3d4b72", "blockhash": "0000000000000000000dcc0f55137456b1a82d3642486a52398922ac4d620174", "vout": [{"scriptPubKey": {"reqSigs": 1, "hex": "a914b92fc91818bb1546b3e3499a77237d6173cacb0887", "addresses": ["3JaCBEDuc3qrVNW2QAKsrefJbfRYVJ7gUk"], "asm": "OP_HASH160 b92fc91818bb1546b3e3499a77237d6173cacb08 OP_EQUAL", "type": "scripthash"}, "value": 78.42166865, "n": 0}, {"scriptPubKey": {"reqSigs": 1, "hex": "76a914ddacc8b641928beea4dd710d907dbf83138b246f88ac", "addresses": ["1MD7Ke69xR3V8NmosD3egBoCyqptwup1af"], "asm": "OP_DUP OP_HASH160 ddacc8b641928beea4dd710d907dbf83138b246f OP_EQUALVERIFY OP_CHECKSIG", "type": "pubkeyhash"}, "value": 0.0015, "n": 1}], "hex": "02000000012799e24873d90fa3d8f1a47f1140a1e2762da935515bc0cb5909c8993c6decc1010000006a4730440220201d94532d87c29526c46fdb5329c5d1aac5e801b3601621c49bcdefb9bbcc5c022054b788d0953777935d503e5ec86151560eff1da4c097759a0ae7e79808572d8c012103786af4b32017ec640dba2d2a7e1fd5aa4a231a658e4cbc114d51c031576e19bcfeffffff0251f86dd30100000017a914b92fc91818bb1546b3e3499a77237d6173cacb0887f0490200000000001976a914ddacc8b641928beea4dd710d907dbf83138b246f88ac08490800", "vin": [{"sequence": 4294967294, "scriptSig": {"hex": "4730440220201d94532d87c29526c46fdb5329c5d1aac5e801b3601621c49bcdefb9bbcc5c022054b788d0953777935d503e5ec86151560eff1da4c097759a0ae7e79808572d8c012103786af4b32017ec640dba2d2a7e1fd5aa4a231a658e4cbc114d51c031576e19bc", "asm": "30440220201d94532d87c29526c46fdb5329c5d1aac5e801b3601621c49bcdefb9bbcc5c022054b788d0953777935d503e5ec86151560eff1da4c097759a0ae7e79808572d8c[ALL] 03786af4b32017ec640dba2d2a7e1fd5aa4a231a658e4cbc114d51c031576e19bc"}, "vout": 1, "txid": "c1ec6d3c99c80959cbc05b5135a92d76e2a140117fa4f1d8a30fd97348e29927"}], "txid": "bd6dbcd673463531ae9ded75ed929d2f95463fe51c6a09ed367737a2ff3d4b72", "blocktime": 1537870268, "version": 2, "confirmations": 11518, "time": 1537870268, "locktime": 542984, "vsize": 223, "size": 223}