{"hash": "bd71045f3314dce9c2db93a150aa4d4845c45838fe724aca06800929fc164693", "blockhash": "0000000000000000000baef3f32e3676a92c3b2e5da21b426e4f302fc371ce76", "vout": [{"scriptPubKey": {"reqSigs": 1, "hex": "76a914db90d5586da130ea3cad8525d6d198088ffbe4fa88ac", "addresses": ["1M1xVDDLL7kCBhzY3qURX7WjiRnQp1CeEf"], "asm": "OP_DUP OP_HASH160 db90d5586da130ea3cad8525d6d198088ffbe4fa OP_EQUALVERIFY OP_CHECKSIG", "type": "pubkeyhash"}, "value": 0.0063481, "n": 0}, {"scriptPubKey": {"type": "nulldata", "hex": "6a4c50000078100001a31935327121c68845066766702940d64fa54d8eb2d19ed074892d00f8e82b058141b0a2ec44eacc0ed6654a8e1b5baa1b7d061488a23f9622091d100759d4ba30d2c37bb011d97e02cf", "asm": "OP_RETURN 000078100001a31935327121c68845066766702940d64fa54d8eb2d19ed074892d00f8e82b058141b0a2ec44eacc0ed6654a8e1b5baa1b7d061488a23f9622091d100759d4ba30d2c37bb011d97e02cf"}, "value": 0.0, "n": 1}], "hex": "01000000013d3ccf43c8cf1352a38438ef889acb06bef4b93cb2456f3d982e49dd8b2ac5bc010000006a47304402201ba47e591f270c72171f51238d5a5cc0149d58c373229a11608888412a7e75910220400877abc043ad283e4c5e7be34bfbc14eb3f12972948a6de7d1b3d92811b67c012102a6f6e9a067fd1d65152e9717454f87521e3681195845b8202a0a6268c0b7d4b9ffffffff02baaf0900000000001976a914db90d5586da130ea3cad8525d6d198088ffbe4fa88ac0000000000000000536a4c50000078100001a31935327121c68845066766702940d64fa54d8eb2d19ed074892d00f8e82b058141b0a2ec44eacc0ed6654a8e1b5baa1b7d061488a23f9622091d100759d4ba30d2c37bb011d97e02cf00000000", "vin": [{"sequence": 4294967295, "scriptSig": {"hex": "47304402201ba47e591f270c72171f51238d5a5cc0149d58c373229a11608888412a7e75910220400877abc043ad283e4c5e7be34bfbc14eb3f12972948a6de7d1b3d92811b67c012102a6f6e9a067fd1d65152e9717454f87521e3681195845b8202a0a6268c0b7d4b9", "asm": "304402201ba47e591f270c72171f51238d5a5cc0149d58c373229a11608888412a7e75910220400877abc043ad283e4c5e7be34bfbc14eb3f12972948a6de7d1b3d92811b67c[ALL] 02a6f6e9a067fd1d65152e9717454f87521e3681195845b8202a0a6268c0b7d4b9"}, "vout": 1, "txid": "bcc52a8bdd492e983d6f45b23cb9f4be06cb9a88ef3884a35213cfc843cf3c3d"}], "txid": "bd71045f3314dce9c2db93a150aa4d4845c45838fe724aca06800929fc164693", "blocktime": 1537876114, "version": 1, "confirmations": 11460, "time": 1537876114, "locktime": 0, "vsize": 283, "size": 283}