{"hash": "bd717e09a8fe3b326137ce32eb6984d1b6df5a570d7f8b14ecbb743adb5fc3c2", "blockhash": "0000000000000000001e0dab787dd257d1dbfcb92a98c2207d5e1078be1f4165", "vout": [{"scriptPubKey": {"reqSigs": 1, "hex": "76a914ad6245571f93017a2a717da004c8c4472d64f53788ac", "addresses": ["1GomdAcdKW2B7Ni1JTczovHtkw9bRWU314"], "asm": "OP_DUP OP_HASH160 ad6245571f93017a2a717da004c8c4472d64f537 OP_EQUALVERIFY OP_CHECKSIG", "type": "pubkeyhash"}, "value": 0.03294999, "n": 0}, {"scriptPubKey": {"reqSigs": 1, "hex": "a9146afe1a7eba9f950e3bcf6a3554123951185f107687", "addresses": ["3BSjxJFTKb4yany11jHAdcpAiTLYKs2ybZ"], "asm": "OP_HASH160 6afe1a7eba9f950e3bcf6a3554123951185f1076 OP_EQUAL", "type": "scripthash"}, "value": 0.0426, "n": 1}], "hex": "0100000001ab838f5ac1813b24b8390b354bf5c1419dafbf35cac34bd3e27c884bce0e065f000000006b48304502210081ccad9046c02da25d7358ebe9d524a943cb12fe00385d3d9779cbddf26894d502206b8020bd58beaeab8777cdabf57afc8067c315fd73036f2a040c6556f96b67850121027e3aeb0010b827cb931bd277a420b30eb5184aa4624819b45a88cbf6ced36324ffffffff0217473200000000001976a914ad6245571f93017a2a717da004c8c4472d64f53788aca00041000000000017a9146afe1a7eba9f950e3bcf6a3554123951185f10768700000000", "vin": [{"sequence": 4294967295, "scriptSig": {"hex": "48304502210081ccad9046c02da25d7358ebe9d524a943cb12fe00385d3d9779cbddf26894d502206b8020bd58beaeab8777cdabf57afc8067c315fd73036f2a040c6556f96b67850121027e3aeb0010b827cb931bd277a420b30eb5184aa4624819b45a88cbf6ced36324", "asm": "304502210081ccad9046c02da25d7358ebe9d524a943cb12fe00385d3d9779cbddf26894d502206b8020bd58beaeab8777cdabf57afc8067c315fd73036f2a040c6556f96b6785[ALL] 027e3aeb0010b827cb931bd277a420b30eb5184aa4624819b45a88cbf6ced36324"}, "vout": 0, "txid": "5f060ece4b887ce2d34bc3ca35bfaf9d41c1f54b350b39b8243b81c15a8f83ab"}], "txid": "bd717e09a8fe3b326137ce32eb6984d1b6df5a570d7f8b14ecbb743adb5fc3c2", "blocktime": 1537872475, "version": 1, "confirmations": 11487, "time": 1537872475, "locktime": 0, "vsize": 224, "size": 224}