{"hash": "37aa2f36c5c2b7823de73fcb9ad3baac4048918e1b3c822f330f05f9c9871503", "blockhash": "0000000000000000001cda96e906b7601b7a6fb1a3b62bca570a9e5d8f4b3de1", "vout": [{"scriptPubKey": {"reqSigs": 1, "hex": "a914a57455162fd6da58d65005c26ed0aa92b568765d87", "addresses": ["3Gmrn7N5GgSsMkrMWW4eLv59f3iMFhmodw"], "asm": "OP_HASH160 a57455162fd6da58d65005c26ed0aa92b568765d OP_EQUAL", "type": "scripthash"}, "value": 4.76090184, "n": 0}, {"scriptPubKey": {"reqSigs": 1, "hex": "a914364f51e3cd36b53729406759ca5298e57dbe505387", "addresses": ["36eBS9Lo8FqcwRYu3dQVG5z5gA7DXoRhC3"], "asm": "OP_HASH160 364f51e3cd36b53729406759ca5298e57dbe5053 OP_EQUAL", "type": "scripthash"}, "value": 0.00742315, "n": 1}], "hex": "020000000001017889df5089811e30f403c9db41e688ff1a991d45bcbc2b1218ece67f45665e180100000017160014f644c9f722049ac6f184c26a26fc10568183f2b5feffffff02488f601c0000000017a914a57455162fd6da58d65005c26ed0aa92b568765d87ab530b000000000017a914364f51e3cd36b53729406759ca5298e57dbe50538702483045022100b3421b1eee3ab14150b1fbc07bced1188244ea60cb819a4385818dca265fb68d02206945a673aa932ce67b364ef825a6ea442c661486ae0731be237e31333532abda01210363a3ef31fe53f18cdbcd634dbef9f2a2e3d970ebbae0a68a8d1c87a89de6f90d13490800", "vin": [{"txinwitness": ["3045022100b3421b1eee3ab14150b1fbc07bced1188244ea60cb819a4385818dca265fb68d02206945a673aa932ce67b364ef825a6ea442c661486ae0731be237e31333532abda01", "0363a3ef31fe53f18cdbcd634dbef9f2a2e3d970ebbae0a68a8d1c87a89de6f90d"], "sequence": 4294967294, "scriptSig": {"hex": "160014f644c9f722049ac6f184c26a26fc10568183f2b5", "asm": "0014f644c9f722049ac6f184c26a26fc10568183f2b5"}, "vout": 1, "txid": "185e66457fe6ec18122bbcbc451d991aff88e641dbc903f4301e818950df8978"}], "txid": "bd78a91d7fae456dd6aa9865c8684da131fc7a6b2021eeb02f72b291b3780c80", "blocktime": 1537873282, "version": 2, "confirmations": 11484, "time": 1537873282, "locktime": 542995, "vsize": 166, "size": 248}