{"hash": "43413e8b35cca79f5f3e56ec15de5ae1d372eb6f94d38c33104af2e76c1ed066", "blockhash": "0000000000000000001cda96e906b7601b7a6fb1a3b62bca570a9e5d8f4b3de1", "vout": [{"scriptPubKey": {"reqSigs": 1, "hex": "a9148c9b8d44295f9f0a3307736529e3a0acffe8604387", "addresses": ["3EWUsL6V6DAcGLwX25ftCfXALNPto9Bvt6"], "asm": "OP_HASH160 8c9b8d44295f9f0a3307736529e3a0acffe86043 OP_EQUAL", "type": "scripthash"}, "value": 0.00997956, "n": 0}, {"scriptPubKey": {"reqSigs": 1, "hex": "a914586ce840004ca989523b4eb4e69061bcbb7ef17687", "addresses": ["39kZrRz8T8wB4nx2q8EFz1t8agJyFawE4i"], "asm": "OP_HASH160 586ce840004ca989523b4eb4e69061bcbb7ef176 OP_EQUAL", "type": "scripthash"}, "value": 0.03498, "n": 1}], "hex": "02000000000107621ea6a771516645a225a7988cc922bcce24ff5372f5197280a3df7e1f4cab65000000001716001415f39de8938d05ae1a46462b570fcc99c2665827fdffffff77f4b8219afb0279734c8aeb41bf19af0450525fdfcaf0683028b7e46cf7acfe0000000017160014ae067be55528ebdfea9be091b99e81950c5036f0fdffffff7d8177b88bb3087194b722a70a6438c5a967a3942ea40dbe3a6afe83dde5e1820b00000017160014e965d6e05d7f729c0c80fd97efdde669faea9600fdffffff90a2313bb17485d634d09f3c42b75f57c73611bb134664990e2dd1b5a12c86150000000017160014c11b094d8a4f9f16351063151da8503fbd4621acfdffffffa15bf2c4ea3b226fa291d3663f14ba0d97c9a6ae1b338f53a17fd302d95b23400100000017160014076573fe09b7a7d9014adde75ab5c37a69f890f0fdffffffd4565d111862afed540371d046e2d8b85b6f050e127dd15fc6cd73b10fc290720000000017160014444768751e6e727345863661f507a32d34275540fdfffffff55fc53d5eb321554e764a4cc80a8f955cdf4173efdaa5b07ba545daf34f755802000000171600149fdf9ebc0c5cbded7b4f965f52eab29be0d610dafdffffff02443a0f000000000017a9148c9b8d44295f9f0a3307736529e3a0acffe8604387106035000000000017a914586ce840004ca989523b4eb4e69061bcbb7ef1768702473044022014f2b1a1493b620ff15c1399b6170c7e78cb14ff0614b5ca6b9a3910f6fef1a902203fb22e37a7ac37dbdd233793eec7c17dab09ba93ce483789b8370739363f9a53012102381934d8179c78542b9fdc8679ff75d6bc8fd55fea88d72423fa34cf261447be02483045022100b58bc97b5aae243f893e19af6ddc0c1b2d4c750608304dbf088fcc0bf4d468a0022048d10d99702edea649f3c36e1e58038a4500c8df4131a5e098de26de5e00b05701210242c11dd605cd28bb83ba5ac22a4d083c80f7cdb435dedb1cf814af6054669a4602473044022054078e30408d35444bc6f1296eb0df27b7470afd37a478a1c1bbdb8e4c4385e002202f57f3f820d9683e8fc118478e29ad7ebbcbed4b848609946cba46e4e3f1af54012102e7dc1add97a11f59a66aa57d7bf110db07c0f0867aad8210cd92add4ef7d16a802483045022100c956a23de66ad2fffd09993385a8ecbb5b1567027a41b9bbcf6bdcd68f2a5a62022027a7cabd946b20fd3c44389995e9032d206ed5c88b697cec76475d9a91dad984012102dfb22c8d8592feb85f362cc388843d93bc73984b64bd6fb10ae1ad928e67a5a10247304402205c6100d4917ca43323ea849283d233547660fa879b0b90ea132ffe0d99e86e6b022011bb6b0cf5ef24ec0aa535c72caa1a040fd4915751452ed4889a363f15460aaf012102b198613bbbdd038aa36d7f96ae8758a3dd8e17485c46da171cb350a6452cf10602483045022100cc0dd5b14ac949f13bdd8fae2e2a8d099b15680b52110bba377681a4dfd3272b0220423a174e648c14dc40138a4bab210e7c9473af05324eadad7edbfadee6105eec012103490b32b8444f8858e8bcbca5a5a04dc8aa3ed23a4e5d9f277c5808adce01593302483045022100a57dc179efbc35fc1ee06790c67b188b4af1edaf8190314ad0c9c65e8c2fc819022029e71b14cdc9903b8eb52b90a5b2bc257e16be18330642eebee3f3e3769a9ecf012103fa2857215722c9958953f07d9257717de2ff1182881abc01fb5b4553561432d913490800", "vin": [{"txinwitness": ["3044022014f2b1a1493b620ff15c1399b6170c7e78cb14ff0614b5ca6b9a3910f6fef1a902203fb22e37a7ac37dbdd233793eec7c17dab09ba93ce483789b8370739363f9a5301", "02381934d8179c78542b9fdc8679ff75d6bc8fd55fea88d72423fa34cf261447be"], "sequence": 4294967293, "scriptSig": {"hex": "16001415f39de8938d05ae1a46462b570fcc99c2665827", "asm": "001415f39de8938d05ae1a46462b570fcc99c2665827"}, "vout": 0, "txid": "65ab4c1f7edfa3807219f57253ff24cebc22c98c98a725a245665171a7a61e62"}, {"txinwitness": ["3045022100b58bc97b5aae243f893e19af6ddc0c1b2d4c750608304dbf088fcc0bf4d468a0022048d10d99702edea649f3c36e1e58038a4500c8df4131a5e098de26de5e00b05701", "0242c11dd605cd28bb83ba5ac22a4d083c80f7cdb435dedb1cf814af6054669a46"], "sequence": 4294967293, "scriptSig": {"hex": "160014ae067be55528ebdfea9be091b99e81950c5036f0", "asm": "0014ae067be55528ebdfea9be091b99e81950c5036f0"}, "vout": 0, "txid": "feacf76ce4b7283068f0cadf5f525004af19bf41eb8a4c737902fb9a21b8f477"}, {"txinwitness": ["3044022054078e30408d35444bc6f1296eb0df27b7470afd37a478a1c1bbdb8e4c4385e002202f57f3f820d9683e8fc118478e29ad7ebbcbed4b848609946cba46e4e3f1af5401", "02e7dc1add97a11f59a66aa57d7bf110db07c0f0867aad8210cd92add4ef7d16a8"], "sequence": 4294967293, "scriptSig": {"hex": "160014e965d6e05d7f729c0c80fd97efdde669faea9600", "asm": "0014e965d6e05d7f729c0c80fd97efdde669faea9600"}, "vout": 11, "txid": "82e1e5dd83fe6a3abe0da42e94a367a9c538640aa722b7947108b38bb877817d"}, {"txinwitness": ["3045022100c956a23de66ad2fffd09993385a8ecbb5b1567027a41b9bbcf6bdcd68f2a5a62022027a7cabd946b20fd3c44389995e9032d206ed5c88b697cec76475d9a91dad98401", "02dfb22c8d8592feb85f362cc388843d93bc73984b64bd6fb10ae1ad928e67a5a1"], "sequence": 4294967293, "scriptSig": {"hex": "160014c11b094d8a4f9f16351063151da8503fbd4621ac", "asm": "0014c11b094d8a4f9f16351063151da8503fbd4621ac"}, "vout": 0, "txid": "15862ca1b5d12d0e99644613bb1136c7575fb7423c9fd034d68574b13b31a290"}, {"txinwitness": ["304402205c6100d4917ca43323ea849283d233547660fa879b0b90ea132ffe0d99e86e6b022011bb6b0cf5ef24ec0aa535c72caa1a040fd4915751452ed4889a363f15460aaf01", "02b198613bbbdd038aa36d7f96ae8758a3dd8e17485c46da171cb350a6452cf106"], "sequence": 4294967293, "scriptSig": {"hex": "160014076573fe09b7a7d9014adde75ab5c37a69f890f0", "asm": "0014076573fe09b7a7d9014adde75ab5c37a69f890f0"}, "vout": 1, "txid": "40235bd902d37fa1538f331baea6c9970dba143f66d391a26f223beac4f25ba1"}, {"txinwitness": ["3045022100cc0dd5b14ac949f13bdd8fae2e2a8d099b15680b52110bba377681a4dfd3272b0220423a174e648c14dc40138a4bab210e7c9473af05324eadad7edbfadee6105eec01", "03490b32b8444f8858e8bcbca5a5a04dc8aa3ed23a4e5d9f277c5808adce015933"], "sequence": 4294967293, "scriptSig": {"hex": "160014444768751e6e727345863661f507a32d34275540", "asm": "0014444768751e6e727345863661f507a32d34275540"}, "vout": 0, "txid": "7290c20fb173cdc65fd17d120e056f5bb8d8e246d0710354edaf6218115d56d4"}, {"txinwitness": ["3045022100a57dc179efbc35fc1ee06790c67b188b4af1edaf8190314ad0c9c65e8c2fc819022029e71b14cdc9903b8eb52b90a5b2bc257e16be18330642eebee3f3e3769a9ecf01", "03fa2857215722c9958953f07d9257717de2ff1182881abc01fb5b4553561432d9"], "sequence": 4294967293, "scriptSig": {"hex": "1600149fdf9ebc0c5cbded7b4f965f52eab29be0d610da", "asm": "00149fdf9ebc0c5cbded7b4f965f52eab29be0d610da"}, "vout": 2, "txid": "58754ff3da45a57bb0a5daef7341df5c958f0ac84c4a764e5521b35e3dc55ff5"}], "txid": "bd81421593301de5cca9abec203b441d3f89bcfac62a2f6ba9cc58a132494f5e", "blocktime": 1537873282, "version": 2, "confirmations": 11484, "time": 1537873282, "locktime": 542995, "vsize": 711, "size": 1277}