{"hash": "bd8472b1eeaa93928a7ca64216086bc98118db56d54941e36bf55806fbaeda19", "blockhash": "000000000000000000022b45ed06c6f4ccd3cf7fb5ba4856ebd2e58215665228", "vout": [{"scriptPubKey": {"reqSigs": 1, "hex": "76a914c3982b819a56b9ec77ff460ee4d676b5045424e888ac", "addresses": ["1JqD4MtaR7Vj1ojAdZkJhjhgBHC4fJD1N8"], "asm": "OP_DUP OP_HASH160 c3982b819a56b9ec77ff460ee4d676b5045424e8 OP_EQUALVERIFY OP_CHECKSIG", "type": "pubkeyhash"}, "value": 0.33314032, "n": 0}], "hex": "01000000035ab0af0465f8df6668537fa4f70d7cf16b3dd613061fb169f769b4979015e023000000006b4830450221009d4ad3e9a82ec6dec7070cb2d96d14dad0478cc6eac6149585091ec3ac62cb60022038b8c6c8601432781c8c4e2c47be677b16581e91a928c6212686ff2adf9d2dde012102a54ab82e90447f51b7afcd091d44b0e1b961c8ebe1a4fe8ec85a0bc40f834d70ffffffffc1acd6bdfe53e0d79932235d2672c47646e81ee1c111d3ba792015fba629ed5b010000006b4830450221008403cf14aedb34bf808886d97eef183d0dbdde027b3008cd2cd3d0b2fd18f70c0220672ffad8f7c4ae919c068e742dc6a872871fbe61d463849c5d0f634172dbf5cd012103b03b58d59ccc4415306382dfa847656230802a5d15bf758336edadda928c48fcffffffffe26c0070fcc350c9c4715b34b3a9dab55b848f7db3ea168bbfd5a08eb77bcbce000000006a473044022019272b4d7ac8026c6dded094392faac5e3e08a160c1ec1645e2ac84605694581022073fdae0610591196a85734d2655b512cf877e958ab47a5952897bde71f0eeccb012102a54ab82e90447f51b7afcd091d44b0e1b961c8ebe1a4fe8ec85a0bc40f834d70ffffffff01f054fc01000000001976a914c3982b819a56b9ec77ff460ee4d676b5045424e888ac00000000", "vin": [{"sequence": 4294967295, "scriptSig": {"hex": "4830450221009d4ad3e9a82ec6dec7070cb2d96d14dad0478cc6eac6149585091ec3ac62cb60022038b8c6c8601432781c8c4e2c47be677b16581e91a928c6212686ff2adf9d2dde012102a54ab82e90447f51b7afcd091d44b0e1b961c8ebe1a4fe8ec85a0bc40f834d70", "asm": "30450221009d4ad3e9a82ec6dec7070cb2d96d14dad0478cc6eac6149585091ec3ac62cb60022038b8c6c8601432781c8c4e2c47be677b16581e91a928c6212686ff2adf9d2dde[ALL] 02a54ab82e90447f51b7afcd091d44b0e1b961c8ebe1a4fe8ec85a0bc40f834d70"}, "vout": 0, "txid": "23e0159097b469f769b11f0613d63d6bf17c0df7a47f536866dff86504afb05a"}, {"sequence": 4294967295, "scriptSig": {"hex": "4830450221008403cf14aedb34bf808886d97eef183d0dbdde027b3008cd2cd3d0b2fd18f70c0220672ffad8f7c4ae919c068e742dc6a872871fbe61d463849c5d0f634172dbf5cd012103b03b58d59ccc4415306382dfa847656230802a5d15bf758336edadda928c48fc", "asm": "30450221008403cf14aedb34bf808886d97eef183d0dbdde027b3008cd2cd3d0b2fd18f70c0220672ffad8f7c4ae919c068e742dc6a872871fbe61d463849c5d0f634172dbf5cd[ALL] 03b03b58d59ccc4415306382dfa847656230802a5d15bf758336edadda928c48fc"}, "vout": 1, "txid": "5bed29a6fb152079bad311c1e11ee84676c472265d233299d7e053febdd6acc1"}, {"sequence": 4294967295, "scriptSig": {"hex": "473044022019272b4d7ac8026c6dded094392faac5e3e08a160c1ec1645e2ac84605694581022073fdae0610591196a85734d2655b512cf877e958ab47a5952897bde71f0eeccb012102a54ab82e90447f51b7afcd091d44b0e1b961c8ebe1a4fe8ec85a0bc40f834d70", "asm": "3044022019272b4d7ac8026c6dded094392faac5e3e08a160c1ec1645e2ac84605694581022073fdae0610591196a85734d2655b512cf877e958ab47a5952897bde71f0eeccb[ALL] 02a54ab82e90447f51b7afcd091d44b0e1b961c8ebe1a4fe8ec85a0bc40f834d70"}, "vout": 0, "txid": "cecb7bb78ea0d5bf8b16eab37d8f845bb5daa9b3345b71c4c950c3fc70006ce2"}], "txid": "bd8472b1eeaa93928a7ca64216086bc98118db56d54941e36bf55806fbaeda19", "blocktime": 1537869901, "version": 1, "confirmations": 11523, "time": 1537869901, "locktime": 0, "vsize": 487, "size": 487}