{"hash": "2287d84959e79e125f5f486ab59a607ff6e83b95660e86032aa62368be8833a8", "blockhash": "000000000000000000022b45ed06c6f4ccd3cf7fb5ba4856ebd2e58215665228", "vout": [{"scriptPubKey": {"reqSigs": 1, "hex": "76a914214a247d85acd3c1725b3dcb3fa5d95745ad8c2b88ac", "addresses": ["14327qycv5zkvX9X2a7sr5HafTMK2LayZT"], "asm": "OP_DUP OP_HASH160 214a247d85acd3c1725b3dcb3fa5d95745ad8c2b OP_EQUALVERIFY OP_CHECKSIG", "type": "pubkeyhash"}, "value": 0.00202, "n": 0}, {"scriptPubKey": {"reqSigs": 1, "hex": "a914bffb9a0e56e9e6edeb45f79c5e540063ec94364b87", "addresses": ["3KC8PnHZaE1YhEVyou79DpTyfPPhjb5HcC"], "asm": "OP_HASH160 bffb9a0e56e9e6edeb45f79c5e540063ec94364b OP_EQUAL", "type": "scripthash"}, "value": 0.01654068, "n": 1}], "hex": "02000000000101fc05b8afc781d222f73b2e171a130454740fe21ddfcdee954332ba08be0953b700000000171600142e9059b9dd7aadcef03bf468b4a2bd0f4b860062feffffff0210150300000000001976a914214a247d85acd3c1725b3dcb3fa5d95745ad8c2b88ac343d19000000000017a914bffb9a0e56e9e6edeb45f79c5e540063ec94364b870247304402203a867c8c2e9e326593764d7c132368d0486f3370582ab7f39df3a661fee681fb0220624e161b7bfe2035db436cd8303c96a428a9c2ff43467f1ffdb95ed6cad70969012103b3c3ed595d714560be9dc71611088e29bfc8793d39887e5707f048beb3ae49b40b490800", "vin": [{"txinwitness": ["304402203a867c8c2e9e326593764d7c132368d0486f3370582ab7f39df3a661fee681fb0220624e161b7bfe2035db436cd8303c96a428a9c2ff43467f1ffdb95ed6cad7096901", "03b3c3ed595d714560be9dc71611088e29bfc8793d39887e5707f048beb3ae49b4"], "sequence": 4294967294, "scriptSig": {"hex": "1600142e9059b9dd7aadcef03bf468b4a2bd0f4b860062", "asm": "00142e9059b9dd7aadcef03bf468b4a2bd0f4b860062"}, "vout": 0, "txid": "b75309be08ba324395eecddf1de20f745404131a172e3bf722d281c7afb805fc"}], "txid": "bd85d96a3759bb958cc0758cc8ad56b5d2dab60ecc8ee110b88aa4f4c1b9f0a8", "blocktime": 1537869901, "version": 2, "confirmations": 11522, "time": 1537869901, "locktime": 542987, "vsize": 168, "size": 249}