{"hash": "0383999ec5197ea2024c6031a44abb5e0cb1d00da03f16c6ff37095633e07e8b", "blockhash": "0000000000000000000e13cef7c366c0283d82e591d1acd082e914b08063cdf1", "vout": [{"scriptPubKey": {"reqSigs": 1, "hex": "76a9146a963005437fcf5e4bcd4a72b3acbd67ed9fddd788ac", "addresses": ["1AiaYYuMgYysV5YtuYUgYSUW3ornauMs4F"], "asm": "OP_DUP OP_HASH160 6a963005437fcf5e4bcd4a72b3acbd67ed9fddd7 OP_EQUALVERIFY OP_CHECKSIG", "type": "pubkeyhash"}, "value": 0.30867875, "n": 0}, {"scriptPubKey": {"reqSigs": 1, "hex": "76a9148a8dadaf3f2396d2ede23a971d1d84b15d7fea7488ac", "addresses": ["1DdbyTvjZCVVaLpRUpzcJBonZC3hXx7qXC"], "asm": "OP_DUP OP_HASH160 8a8dadaf3f2396d2ede23a971d1d84b15d7fea74 OP_EQUALVERIFY OP_CHECKSIG", "type": "pubkeyhash"}, "value": 0.082131, "n": 1}, {"scriptPubKey": {"reqSigs": 1, "hex": "76a91401a155a8dde06616f713030a83d1285d8556866788ac", "addresses": ["19cwvBVFmL1TENbrd8zNGaEbyHDMieQid"], "asm": "OP_DUP OP_HASH160 01a155a8dde06616f713030a83d1285d85568667 OP_EQUALVERIFY OP_CHECKSIG", "type": "pubkeyhash"}, "value": 0.01046015, "n": 2}], "hex": "0200000000010305868782e589277a18ad4a8cc66fc71bb4a7f1f1cf922eebb54360ca396e624601000000171600149cd0d23c9eaa5bb94e0070840703411a2659f820feffffff1fc1e7dfbb9a841aeadbc4e2048a57d0a0b10446a2f0699b8060e3fc030c7ff80000000017160014ff9ab3a258e3c1384e1b6a238e8ced5644e7ac2dfeffffff9f3417401337942c7f26c7f4b74a0c6a1da795b64e419a9d2b398c0181d04dcb000000006b48304502210087804a51a58c66ce72235f4b4b57d408c33c6dd7e086bae656ba2e630f235fdd02206fbcb0cc01008c327b3c65a1193ce1d12980489c6f62b167d3ae0fe91c3dc01b012102186744ae623276db4a73231c5c635290f98ab9c3458b759cc848f8b9203b38a3feffffff03a301d701000000001976a9146a963005437fcf5e4bcd4a72b3acbd67ed9fddd788ac6c527d00000000001976a9148a8dadaf3f2396d2ede23a971d1d84b15d7fea7488acfff50f00000000001976a91401a155a8dde06616f713030a83d1285d8556866788ac0247304402203d442b6cce44509e1897d6ee70eabdd1b756a5d96398a84c1b88b1868340e38b02207c91419d0dfd07acef2f20a15ac3ee5720e80ebd185ecaaa7307723734fa68c4012102a7e36b9018625e790329db823f26fe7abb70dee27f113419c0e9a33716c0613202483045022100c26144aa7f44dc5bf035126b217dacf3df142c220361ffcc6f3f37f863530bda02204a2daf503250938d998926544e09a3f1c94a6e7a4bcd8ebdebedb54e81e41019012102ae8bc64c87f777b8ee52995a40424cf8cc0cdb0ffa5207db92d456878921a5b400b4480800", "vin": [{"txinwitness": ["304402203d442b6cce44509e1897d6ee70eabdd1b756a5d96398a84c1b88b1868340e38b02207c91419d0dfd07acef2f20a15ac3ee5720e80ebd185ecaaa7307723734fa68c401", "02a7e36b9018625e790329db823f26fe7abb70dee27f113419c0e9a33716c06132"], "sequence": 4294967294, "scriptSig": {"hex": "1600149cd0d23c9eaa5bb94e0070840703411a2659f820", "asm": "00149cd0d23c9eaa5bb94e0070840703411a2659f820"}, "vout": 1, "txid": "46626e39ca6043b5eb2e92cff1f1a7b41bc76fc68c4aad187a2789e582878605"}, {"txinwitness": ["3045022100c26144aa7f44dc5bf035126b217dacf3df142c220361ffcc6f3f37f863530bda02204a2daf503250938d998926544e09a3f1c94a6e7a4bcd8ebdebedb54e81e4101901", "02ae8bc64c87f777b8ee52995a40424cf8cc0cdb0ffa5207db92d456878921a5b4"], "sequence": 4294967294, "scriptSig": {"hex": "160014ff9ab3a258e3c1384e1b6a238e8ced5644e7ac2d", "asm": "0014ff9ab3a258e3c1384e1b6a238e8ced5644e7ac2d"}, "vout": 0, "txid": "f87f0c03fce360809b69f0a24604b1a0d0578a04e2c4dbea1a849abbdfe7c11f"}, {"sequence": 4294967294, "scriptSig": {"hex": "48304502210087804a51a58c66ce72235f4b4b57d408c33c6dd7e086bae656ba2e630f235fdd02206fbcb0cc01008c327b3c65a1193ce1d12980489c6f62b167d3ae0fe91c3dc01b012102186744ae623276db4a73231c5c635290f98ab9c3458b759cc848f8b9203b38a3", "asm": "304502210087804a51a58c66ce72235f4b4b57d408c33c6dd7e086bae656ba2e630f235fdd02206fbcb0cc01008c327b3c65a1193ce1d12980489c6f62b167d3ae0fe91c3dc01b[ALL] 02186744ae623276db4a73231c5c635290f98ab9c3458b759cc848f8b9203b38a3"}, "vout": 0, "txid": "cb4dd081018c392b9d9a414eb695a71d6a0c4ab7f4c7267f2c9437134017349f"}], "txid": "bd859d11b04a138ba9c95b3daa57731bc10b8b99b65ef3dd80ebfdd8be07cc99", "blocktime": 1537871767, "version": 2, "confirmations": 11490, "time": 1537871767, "locktime": 542900, "vsize": 443, "size": 606}