{"hash": "ce26e4b3dde7bfdd9877d5e273ce0cfce1ee4ce48c825a1b8fe791d22dc1c7d5", "blockhash": "00000000000000000017f5eb5941039fbcee6240d03bc1f2f8e35350df66a1d8", "vout": [{"scriptPubKey": {"reqSigs": 1, "hex": "76a914fc207b7592c5916ae74a93ea0b16360f39e439ce88ac", "addresses": ["1Pz8CFQnX7heaGgY4mz2bXN7NYkbL9n4iD"], "asm": "OP_DUP OP_HASH160 fc207b7592c5916ae74a93ea0b16360f39e439ce OP_EQUALVERIFY OP_CHECKSIG", "type": "pubkeyhash"}, "value": 0.01016949, "n": 0}, {"scriptPubKey": {"reqSigs": 1, "hex": "a914ca9f638bbc435ff1f61ef1984e132b56471651a587", "addresses": ["3LAPMpobLSYeG4FcSGeW5SNX7NqsUhkNfw"], "asm": "OP_HASH160 ca9f638bbc435ff1f61ef1984e132b56471651a5 OP_EQUAL", "type": "scripthash"}, "value": 0.01023859, "n": 1}], "hex": "020000000001025aea56f37305ed02de9329445051d8e953ecc63de25a034d741cb4909278010f0100000017160014665062fed6fc76bd103671f4b9aaefc4739d873dfeffffff6e5953e9dec8c0e87ad4d73f52016c5a45bbcb52f7cd5facc97472a8439e4cea00000000171600147d560f66b928dc3cb59020b735759330ce866980feffffff0275840f00000000001976a914fc207b7592c5916ae74a93ea0b16360f39e439ce88ac739f0f000000000017a914ca9f638bbc435ff1f61ef1984e132b56471651a58702483045022100fc44c064166d3a8f12296419451ceef27820e391e32aec3beb0cbfd90a73f79a02201d54efde77dd9db9fb46896be20116fb883559c58106b16f9efcc7fdbe1c82ae012102b20c133907324fd0149258fda06a45152713bbca6233c3ef1b3b7601bc2d415802483045022100f5cd12ec75f72a565a0bdc3d2699743bf46b633742ef62ea67cfb00c717769fb0220550f2497e705ce06d311f9f4718a22cabb7a32f65e80a0c73c645903b831db840121031221c3fa0673fd559d6f969721676236008e3083d9926efa2222faadc802333715490800", "vin": [{"txinwitness": ["3045022100fc44c064166d3a8f12296419451ceef27820e391e32aec3beb0cbfd90a73f79a02201d54efde77dd9db9fb46896be20116fb883559c58106b16f9efcc7fdbe1c82ae01", "02b20c133907324fd0149258fda06a45152713bbca6233c3ef1b3b7601bc2d4158"], "sequence": 4294967294, "scriptSig": {"hex": "160014665062fed6fc76bd103671f4b9aaefc4739d873d", "asm": "0014665062fed6fc76bd103671f4b9aaefc4739d873d"}, "vout": 1, "txid": "0f01789290b41c744d035ae23dc6ec53e9d85150442993de02ed0573f356ea5a"}, {"txinwitness": ["3045022100f5cd12ec75f72a565a0bdc3d2699743bf46b633742ef62ea67cfb00c717769fb0220550f2497e705ce06d311f9f4718a22cabb7a32f65e80a0c73c645903b831db8401", "031221c3fa0673fd559d6f969721676236008e3083d9926efa2222faadc8023337"], "sequence": 4294967294, "scriptSig": {"hex": "1600147d560f66b928dc3cb59020b735759330ce866980", "asm": "00147d560f66b928dc3cb59020b735759330ce866980"}, "vout": 0, "txid": "ea4c9e43a87274c9ac5fcdf752cbbb455a6c01523fd7d47ae8c0c8dee953596e"}], "txid": "bd88c753a146cc660f289bb99d8635b475fe803c7d3f220f4c4b645b67e34c95", "blocktime": 1537874412, "version": 2, "confirmations": 11468, "time": 1537874412, "locktime": 542997, "vsize": 259, "size": 422}