{"hash": "16f81557507c9ad43a90b39f8d1f28d61fa5c6f249527c67c87fb0b6e6b7230e", "blockhash": "0000000000000000001cda96e906b7601b7a6fb1a3b62bca570a9e5d8f4b3de1", "vout": [{"scriptPubKey": {"reqSigs": 1, "hex": "a91486dd8988363ad119820b8db220ca8df82a0b32f287", "addresses": ["3Dz7rvf94rLKru8XzUChkrVszvmh1j4VWN"], "asm": "OP_HASH160 86dd8988363ad119820b8db220ca8df82a0b32f2 OP_EQUAL", "type": "scripthash"}, "value": 0.00969624, "n": 0}, {"scriptPubKey": {"reqSigs": 1, "hex": "00140800434d1e2dbf82c7bd4fa8722b7b4ac039de43", "addresses": ["bc1qpqqyxng79klc93aaf758y2mmftqrnhjrv9y9nt"], "asm": "0 0800434d1e2dbf82c7bd4fa8722b7b4ac039de43", "type": "witness_v0_keyhash"}, "value": 0.00069707, "n": 1}], "hex": "01000000000101a2d178cb625e17e1140758ec09b7a126b5f81aafbb49f8dc0bb93818b68848fb5300000017160014dd68a308075aa9959b7c18849945eafb54594b00ffffffff0298cb0e000000000017a91486dd8988363ad119820b8db220ca8df82a0b32f2874b100100000000001600140800434d1e2dbf82c7bd4fa8722b7b4ac039de4302483045022100ff3a00597429b4ea1e8b16aec4cbd1925f3666c773c09f777713c8d214d7003c02203d708d4746a952fa7660f633aa797b3ac8edc9f4d564e9c99d76c92cbbc067e901210379c0bf6c24c45e5a7cf766f35161dc98c382193e229476594f80333b5e3a1c7b00000000", "vin": [{"txinwitness": ["3045022100ff3a00597429b4ea1e8b16aec4cbd1925f3666c773c09f777713c8d214d7003c02203d708d4746a952fa7660f633aa797b3ac8edc9f4d564e9c99d76c92cbbc067e901", "0379c0bf6c24c45e5a7cf766f35161dc98c382193e229476594f80333b5e3a1c7b"], "sequence": 4294967295, "scriptSig": {"hex": "160014dd68a308075aa9959b7c18849945eafb54594b00", "asm": "0014dd68a308075aa9959b7c18849945eafb54594b00"}, "vout": 83, "txid": "fb4888b61838b90bdcf849bbaf1af8b526a1b709ec580714e1175e62cb78d1a2"}], "txid": "bd8bd242889378e9e8cd4c637f24c1e5e11f0904f639d87c815955573cf69513", "blocktime": 1537873282, "version": 1, "confirmations": 11484, "time": 1537873282, "locktime": 0, "vsize": 165, "size": 247}