{"hash": "93490c11d997c43a715739df9fd9a223b5689d63905b65d05bf9f70a7358c4ef", "blockhash": "00000000000000000017f5eb5941039fbcee6240d03bc1f2f8e35350df66a1d8", "vout": [{"scriptPubKey": {"reqSigs": 1, "hex": "76a914e0bf880279dea139a7da32885d70ba3784b3a64e88ac", "addresses": ["1MVMooEkX8mo9LCUbgvhK6UThRL4Rm6vsL"], "asm": "OP_DUP OP_HASH160 e0bf880279dea139a7da32885d70ba3784b3a64e OP_EQUALVERIFY OP_CHECKSIG", "type": "pubkeyhash"}, "value": 0.001743, "n": 0}, {"scriptPubKey": {"reqSigs": 1, "hex": "a91453857df17d4cef7af8ee5d52f41105b404aef94587", "addresses": ["39Jdvef9UoqmHuY2MnFgfKKf8Nbun28TpE"], "asm": "OP_HASH160 53857df17d4cef7af8ee5d52f41105b404aef945 OP_EQUAL", "type": "scripthash"}, "value": 0.105657, "n": 1}], "hex": "0100000000010119a3cdca0cb87e6b6eb18e93100721663d5647488f37ef35cd4d53aca933fd6f00000000232200202121ff4bda3261a525b7ec36bf23c81ab91d8ed2a6d226956f60bcca12bb3b9dffffffff02dca80200000000001976a914e0bf880279dea139a7da32885d70ba3784b3a64e88ac4438a1000000000017a91453857df17d4cef7af8ee5d52f41105b404aef945870400473044022050b90948860a04914928b1a41a152949e66b46e380a7331546a09c97ce4e4d9c02206d1da4907ebd10728500b8e6ef5760e53b4b07a1ee85c5d46f112c244afbbe2901473044022032bcbfa7db1dd8df0396d8625c4faed2ed7bf5052481ee6b97bb39f1ba6a93c60220026b58bb1ef30d5225315757b640e361b0d827c561110696e297b07f8bf06fc301695221032531265446b2ca7bb2bd86287aaf997a31bcdf22c246ec3a1de38aabb678b56321021dedb8115062f0d92d05e2dd5704c4a9ebb7781b19cb8833a739be902e58644c2102ba1445eee5eaed74b169365a5bcb41afa83bc371dcd373ce3497e324a7eb5b5953ae00000000", "vin": [{"txinwitness": ["", "3044022050b90948860a04914928b1a41a152949e66b46e380a7331546a09c97ce4e4d9c02206d1da4907ebd10728500b8e6ef5760e53b4b07a1ee85c5d46f112c244afbbe2901", "3044022032bcbfa7db1dd8df0396d8625c4faed2ed7bf5052481ee6b97bb39f1ba6a93c60220026b58bb1ef30d5225315757b640e361b0d827c561110696e297b07f8bf06fc301", "5221032531265446b2ca7bb2bd86287aaf997a31bcdf22c246ec3a1de38aabb678b56321021dedb8115062f0d92d05e2dd5704c4a9ebb7781b19cb8833a739be902e58644c2102ba1445eee5eaed74b169365a5bcb41afa83bc371dcd373ce3497e324a7eb5b5953ae"], "sequence": 4294967295, "scriptSig": {"hex": "2200202121ff4bda3261a525b7ec36bf23c81ab91d8ed2a6d226956f60bcca12bb3b9d", "asm": "00202121ff4bda3261a525b7ec36bf23c81ab91d8ed2a6d226956f60bcca12bb3b9d"}, "vout": 0, "txid": "6ffd33a9ac534dcd35ef378f4847563d66210710938eb16e6b7eb80ccacda319"}], "txid": "bd8e5d766c67a872c47c088e70c890ee737a5a293e8e3f0387684ad42739d344", "blocktime": 1537874412, "version": 1, "confirmations": 11468, "time": 1537874412, "locktime": 0, "vsize": 216, "size": 406}