{"hash": "bd98aab931ae675f4b2d484a19c0ca8fcab7d458fbc813607daa9757fdd960fb", "blockhash": "00000000000000000018f53835495a110e01622372bf6ae95dc86f2b0ab887b0", "vout": [{"scriptPubKey": {"type": "nulldata", "hex": "6a4c500000778600012f061448616686459b63732dbcbefa6b8351586b4e86aeaeacb577c031fc8103ac2eb340c5c4766774c5a44536ff5baa0b59061431619b2703debc9a9526289ac0f6612cd74e33776ee4", "asm": "OP_RETURN 0000778600012f061448616686459b63732dbcbefa6b8351586b4e86aeaeacb577c031fc8103ac2eb340c5c4766774c5a44536ff5baa0b59061431619b2703debc9a9526289ac0f6612cd74e33776ee4"}, "value": 0.0, "n": 0}, {"scriptPubKey": {"reqSigs": 1, "hex": "76a9146adecde1b47151ddbd031dd437670c994a39346288ac", "addresses": ["1Ak5Y3VccbGc7A1XaUD1H8sLCtKxJoDYLp"], "asm": "OP_DUP OP_HASH160 6adecde1b47151ddbd031dd437670c994a393462 OP_EQUALVERIFY OP_CHECKSIG", "type": "pubkeyhash"}, "value": 0.0010636, "n": 1}], "hex": "0100000001b1d69cfb463a910d0a9a1911d2fdb9e14b2605f26e5ac9e0d588d6c4bfda5ede000000006a473044022036485c30139286765932921f4e84c56edc7cc3bd86a07cd1a79a9d9b2023e27d02204e2c428e1c647af44c643cb17ca114b78bd502cc5dd324791a407f5b5ec8f575012102df2b9c73a5c0df564e2a86e83bf7404c1dd12997ef68f769a9e18f895729d589ffffffff020000000000000000536a4c500000778600012f061448616686459b63732dbcbefa6b8351586b4e86aeaeacb577c031fc8103ac2eb340c5c4766774c5a44536ff5baa0b59061431619b2703debc9a9526289ac0f6612cd74e33776ee4789f0100000000001976a9146adecde1b47151ddbd031dd437670c994a39346288ac00000000", "vin": [{"sequence": 4294967295, "scriptSig": {"hex": "473044022036485c30139286765932921f4e84c56edc7cc3bd86a07cd1a79a9d9b2023e27d02204e2c428e1c647af44c643cb17ca114b78bd502cc5dd324791a407f5b5ec8f575012102df2b9c73a5c0df564e2a86e83bf7404c1dd12997ef68f769a9e18f895729d589", "asm": "3044022036485c30139286765932921f4e84c56edc7cc3bd86a07cd1a79a9d9b2023e27d02204e2c428e1c647af44c643cb17ca114b78bd502cc5dd324791a407f5b5ec8f575[ALL] 02df2b9c73a5c0df564e2a86e83bf7404c1dd12997ef68f769a9e18f895729d589"}, "vout": 0, "txid": "de5edabfc4d688d5e0c95a6ef205264be1b9fdd211199a0a0d913a46fb9cd6b1"}], "txid": "bd98aab931ae675f4b2d484a19c0ca8fcab7d458fbc813607daa9757fdd960fb", "blocktime": 1537870928, "version": 1, "confirmations": 11512, "time": 1537870928, "locktime": 0, "vsize": 283, "size": 283}