{"hash": "bda6ad7251914e5f19afe2d06c8f2879782c9d24dd91d94383329a2d9685f3cf", "blockhash": "0000000000000000000baef3f32e3676a92c3b2e5da21b426e4f302fc371ce76", "vout": [{"scriptPubKey": {"reqSigs": 1, "hex": "76a9148570db9c3b12972bf5e11c763a157652bcf3687b88ac", "addresses": ["1DAa51qqfPcYbVVsiNqEjx6eyQMt8xCkcF"], "asm": "OP_DUP OP_HASH160 8570db9c3b12972bf5e11c763a157652bcf3687b OP_EQUALVERIFY OP_CHECKSIG", "type": "pubkeyhash"}, "value": 0.00084158, "n": 0}], "hex": "01000000013fa90637a32d3cb1388e76f5109bd6653966f5df06cdba7b0f19cc11bc142fe2000000006a47304402203b3bea170770ba78389389e2ba60e5deaf72ba40a7d1a01ac86f1521d1a4309102200d684d86a0ffb0f6fa78b559161abe11b3f5db86f6cc1c8709eff8bcc410cf550121029c9ae5927385cf4e4a0fc80f6fefc59c691020b9e66cb5516c2c5d37d889624bffffffff01be480100000000001976a9148570db9c3b12972bf5e11c763a157652bcf3687b88ac00000000", "vin": [{"sequence": 4294967295, "scriptSig": {"hex": "47304402203b3bea170770ba78389389e2ba60e5deaf72ba40a7d1a01ac86f1521d1a4309102200d684d86a0ffb0f6fa78b559161abe11b3f5db86f6cc1c8709eff8bcc410cf550121029c9ae5927385cf4e4a0fc80f6fefc59c691020b9e66cb5516c2c5d37d889624b", "asm": "304402203b3bea170770ba78389389e2ba60e5deaf72ba40a7d1a01ac86f1521d1a4309102200d684d86a0ffb0f6fa78b559161abe11b3f5db86f6cc1c8709eff8bcc410cf55[ALL] 029c9ae5927385cf4e4a0fc80f6fefc59c691020b9e66cb5516c2c5d37d889624b"}, "vout": 0, "txid": "e22f14bc11cc190f7bbacd06dff5663965d69b10f5768e38b13c2da33706a93f"}], "txid": "bda6ad7251914e5f19afe2d06c8f2879782c9d24dd91d94383329a2d9685f3cf", "blocktime": 1537876114, "version": 1, "confirmations": 11459, "time": 1537876114, "locktime": 0, "vsize": 191, "size": 191}