{"hash": "3b1053896eb30e49800b61e9b6991cbec33084b1db98b664685c4193711873d6", "blockhash": "00000000000000000018f53835495a110e01622372bf6ae95dc86f2b0ab887b0", "vout": [{"scriptPubKey": {"reqSigs": 1, "hex": "a914b79b174884e39eef5ecd408270d80e03d5a622c287", "addresses": ["3JRqNZFY8MBHdW5WGso79ZJKL4AwgFSTmH"], "asm": "OP_HASH160 b79b174884e39eef5ecd408270d80e03d5a622c2 OP_EQUAL", "type": "scripthash"}, "value": 0.0071, "n": 0}, {"scriptPubKey": {"reqSigs": 1, "hex": "a914d5247f6e98eae25a7c0d4476520342be9b9e5c2f87", "addresses": ["3M81aKALeatvvTK37BoTrVMzxvkPwdzcrZ"], "asm": "OP_HASH160 d5247f6e98eae25a7c0d4476520342be9b9e5c2f OP_EQUAL", "type": "scripthash"}, "value": 0.00070933, "n": 1}], "hex": "01000000000101d380005a588457563cf1966b418b66b5857318f32a602e2890d64b41ae4aa13601000000232200204b7e54ec64e5e897e0ae6be697f914673411e58b69a91828939c4449cdc1effeffffffff0270d50a000000000017a914b79b174884e39eef5ecd408270d80e03d5a622c287151501000000000017a914d5247f6e98eae25a7c0d4476520342be9b9e5c2f87040048304502210095dd90fa33a01697b57d533ff44275d45b58a255facd01a936f52691a04600bf02200c7628e21becf55df0f11c30b5818caf3491d329d15e958f49b2f94ce92dd2fd0147304402205cb1bf752b2cf00ee5ddae62754510a305fd434273443ad16e6f7920096f6ce1022006d0a6974b0b0e1f44b2c969b513849e77350fae772b5c411f0840596085b9a5016952210226fe9a539e62311c5840103163ed54c853bffe84ff8954d50e352fc91a2cfbdb2102ac0d3eb7b7e0b50dcf5039785dfc990ac16b54b0ab4e0993507252c2050518f5210376f325cae3e3edca09af2b6bc6761416b02a81c0ae4ec1330b6cf276f3aaaf6753ae00000000", "vin": [{"txinwitness": ["", "304502210095dd90fa33a01697b57d533ff44275d45b58a255facd01a936f52691a04600bf02200c7628e21becf55df0f11c30b5818caf3491d329d15e958f49b2f94ce92dd2fd01", "304402205cb1bf752b2cf00ee5ddae62754510a305fd434273443ad16e6f7920096f6ce1022006d0a6974b0b0e1f44b2c969b513849e77350fae772b5c411f0840596085b9a501", "52210226fe9a539e62311c5840103163ed54c853bffe84ff8954d50e352fc91a2cfbdb2102ac0d3eb7b7e0b50dcf5039785dfc990ac16b54b0ab4e0993507252c2050518f5210376f325cae3e3edca09af2b6bc6761416b02a81c0ae4ec1330b6cf276f3aaaf6753ae"], "sequence": 4294967295, "scriptSig": {"hex": "2200204b7e54ec64e5e897e0ae6be697f914673411e58b69a91828939c4449cdc1effe", "asm": "00204b7e54ec64e5e897e0ae6be697f914673411e58b69a91828939c4449cdc1effe"}, "vout": 1, "txid": "36a14aae414bd690282e602af3187385b5668b416b96f13c565784585a0080d3"}], "txid": "bdab22e2904bcab42db1d59d701f084c89bb7672ce288988c8e2e0528d892465", "blocktime": 1537870928, "version": 1, "confirmations": 11512, "time": 1537870928, "locktime": 0, "vsize": 214, "size": 405}