{"hash": "bdaca33785009321026c3d933ee86a80eb511c34ad9b26c1d0a27a135ae0f822", "blockhash": "00000000000000000004ffacab907a6b429b9a5745fa0b75af4234bf69dd7176", "vout": [{"scriptPubKey": {"reqSigs": 1, "hex": "a91484d4b0f9d96573125638a71032605dc55156532687", "addresses": ["3DoMuv8UR3V7m8GU46jqg3GDRY2qeW8Tfs"], "asm": "OP_HASH160 84d4b0f9d96573125638a71032605dc551565326 OP_EQUAL", "type": "scripthash"}, "value": 0.00746971, "n": 0}], "hex": "0100000001da40778116075839f75a1fac8524a768bc5140d374253ca5f6c73ee6415a98ac010000006b483045022100c1ca4ee23944feeb897f08dd8e9841855ec9aab5e01b8e2dc9249b68082eb554022049adf0a48e3a8703e745e09a35471abf6b7a7e7eb05edc9007f6d57b8cefd6f5012103ec91324f17ca2ad4d07b5881d684138ea11c730358830612c14ed19f3352aae3ffffffff01db650b000000000017a91484d4b0f9d96573125638a71032605dc5515653268700000000", "vin": [{"sequence": 4294967295, "scriptSig": {"hex": "483045022100c1ca4ee23944feeb897f08dd8e9841855ec9aab5e01b8e2dc9249b68082eb554022049adf0a48e3a8703e745e09a35471abf6b7a7e7eb05edc9007f6d57b8cefd6f5012103ec91324f17ca2ad4d07b5881d684138ea11c730358830612c14ed19f3352aae3", "asm": "3045022100c1ca4ee23944feeb897f08dd8e9841855ec9aab5e01b8e2dc9249b68082eb554022049adf0a48e3a8703e745e09a35471abf6b7a7e7eb05edc9007f6d57b8cefd6f5[ALL] 03ec91324f17ca2ad4d07b5881d684138ea11c730358830612c14ed19f3352aae3"}, "vout": 1, "txid": "ac985a41e63ec7f6a53c2574d34051bc68a72485ac1f5af739580716817740da"}], "txid": "bdaca33785009321026c3d933ee86a80eb511c34ad9b26c1d0a27a135ae0f822", "blocktime": 1537875543, "version": 1, "confirmations": 11464, "time": 1537875543, "locktime": 0, "vsize": 190, "size": 190}