{"hash": "bdb343af600045984c750a6ddf96bbafec1ee21de86db4d21d0428566974f8c2", "blockhash": "00000000000000000024a2167bbff67b0be802c0b01cdd79e6331c2be6459f87", "vout": [{"scriptPubKey": {"reqSigs": 1, "hex": "76a914995956542b0dcc06352cb2c440acf373c9d6542488ac", "addresses": ["1EyqQcKq8gnXoD6FLMbEMJxNWKYttt4k3d"], "asm": "OP_DUP OP_HASH160 995956542b0dcc06352cb2c440acf373c9d65424 OP_EQUALVERIFY OP_CHECKSIG", "type": "pubkeyhash"}, "value": 0.00023384, "n": 0}, {"scriptPubKey": {"reqSigs": 1, "hex": "76a91459bef19eed210d3dc1a03411ca902a5f31a4204f88ac", "addresses": ["19BXt5oqvoPmsJb8SL4fmr2t2KbGfMA4nL"], "asm": "OP_DUP OP_HASH160 59bef19eed210d3dc1a03411ca902a5f31a4204f OP_EQUALVERIFY OP_CHECKSIG", "type": "pubkeyhash"}, "value": 0.03758619, "n": 1}], "hex": "01000000081536f0127986758d5ef165f52bab29fa3a084f683819ee4f24ec40e9387cdc0e000000006b48304502210083db68400379e4b3e3fbce5738bc55152c84058bbb1f361bbf9a3253d9a4aa6902200b72230ecbf6076d9508c3007783cdc0971e0e122cb95ae92188f63570f42a590121026b285d52de837aeacccf3adc9040f96d8dba34c87ec67d2a9a8ea91b5d3ac4d9ffffffffbfabc8651e36cb675ba3a5f14f4ec0128969984dda73fa9d64453d0962db7924000000006a473044022004904ad6da22976d29d5c9601f0d384c66c91a6dab6b30d3366b35216a128ab602206210595d626344f7eb9382315c904099ca5fef0c0ca5ff3cdb5c2101b6ffbf490121034bfcbb4f8f7c15af32768440ca5c7fd9c3111f57b9cf627677be86d18abf7e87ffffffff231198cda04f28240fa42593b27163c653bf35c08d6c106c93f87b48ab57df24010000006a473044022014b7e55444d5fe501d07a379920aa738dfa58a64089da38c214101ad7f124c16022007bcafdd1115d49bd96d15287a0d03c9b80ba15aee95b0b0f2f14d142d3476c701210371bc75473ffebd0a84fe541211c1b3cb9179c5d2616607702a99b5535fa29251ffffffff3c2d5bb216cc953ba66d043912e564091db2f60d9c1e274d1ec8afa55567802f000000006a473044022029cc2e396af8fd9cc9e30b34c5aa22b9ac7028c5fc3c2b6e28688a0b992a375b02200132e63051c53d3dcc22fe4ee0eae73e6a7ffc4b4da90d69267a5ab33f55e7af012102e0fc665f6652bacbbabb11b166203e03373a7b7466637099f08f9206a9933095ffffffffa947c6cc359f6afbb8157ed1ca1ad3a45296477f3925ca8a3b26205e42a31493000000006b483045022100ba3cd048a55146f05c42d2106e8136d37dbd864255f5b77cbd3faa2a3dfe2cd902203358d4eb28b073875619e2049eb5c7ac722feec8741f8ac612f3171905a2739d0121034c5a516f90f9fff64bb68ef7344e1be6148d3a3ab0ec306b55694906bd9db8e3ffffffff84632931613b3be3a273019418c21865d778737ebee9ff5abf95d1e38e655e94000000006a4730440220341c6e2abffaf68911518bc96421badb8fa13954240431c57c5841a18c208d5502203412ea8f2c4779cba7300f81deb6ea7b6311668469a999b148c06806feef7706012102d566bd6935951ed13af655dc5e732ead1feff45d33e8f6d5e6c74fd131b31167ffffffff2c8c7428c34ebc5361354efde8f491802292c4f057f68ca3262a5f112e1b51c0010000006a47304402200959268b6db02cf855eb5d9fd4de3c5de8870b15f4967f0f8a03f8c98c2d6bd5022070fd58daeb914357971bc4667578a758e6f3854aa05e96634f6510fabfc1ba0501210375fd17d127aa226c9316302b97f1bf860f9c0f226b68e6bcd3a10570285edb87ffffffff75d4948dc1617a9dceacac85b75aa1fcccc8b285e975bc60948ffd07a3aa78fc000000006b48304502210092da144814931bc1d25d5f3667b18d12b6af02ff0e82aab9b976acdd624788b1022014d3fcd93c707a573cd6458e302347c166257c243efb7c39e1589d1341ceb4de0121032b872801df1d665f44deabd08ef3191cdcefdfa905f4840312deafa39c017155ffffffff02585b0000000000001976a914995956542b0dcc06352cb2c440acf373c9d6542488ac1b5a3900000000001976a91459bef19eed210d3dc1a03411ca902a5f31a4204f88ac00000000", "vin": [{"sequence": 4294967295, "scriptSig": {"hex": "48304502210083db68400379e4b3e3fbce5738bc55152c84058bbb1f361bbf9a3253d9a4aa6902200b72230ecbf6076d9508c3007783cdc0971e0e122cb95ae92188f63570f42a590121026b285d52de837aeacccf3adc9040f96d8dba34c87ec67d2a9a8ea91b5d3ac4d9", "asm": "304502210083db68400379e4b3e3fbce5738bc55152c84058bbb1f361bbf9a3253d9a4aa6902200b72230ecbf6076d9508c3007783cdc0971e0e122cb95ae92188f63570f42a59[ALL] 026b285d52de837aeacccf3adc9040f96d8dba34c87ec67d2a9a8ea91b5d3ac4d9"}, "vout": 0, "txid": "0edc7c38e940ec244fee1938684f083afa29ab2bf565f15e8d75867912f03615"}, {"sequence": 4294967295, "scriptSig": {"hex": "473044022004904ad6da22976d29d5c9601f0d384c66c91a6dab6b30d3366b35216a128ab602206210595d626344f7eb9382315c904099ca5fef0c0ca5ff3cdb5c2101b6ffbf490121034bfcbb4f8f7c15af32768440ca5c7fd9c3111f57b9cf627677be86d18abf7e87", "asm": "3044022004904ad6da22976d29d5c9601f0d384c66c91a6dab6b30d3366b35216a128ab602206210595d626344f7eb9382315c904099ca5fef0c0ca5ff3cdb5c2101b6ffbf49[ALL] 034bfcbb4f8f7c15af32768440ca5c7fd9c3111f57b9cf627677be86d18abf7e87"}, "vout": 0, "txid": "2479db62093d45649dfa73da4d98698912c04e4ff1a5a35b67cb361e65c8abbf"}, {"sequence": 4294967295, "scriptSig": {"hex": "473044022014b7e55444d5fe501d07a379920aa738dfa58a64089da38c214101ad7f124c16022007bcafdd1115d49bd96d15287a0d03c9b80ba15aee95b0b0f2f14d142d3476c701210371bc75473ffebd0a84fe541211c1b3cb9179c5d2616607702a99b5535fa29251", "asm": "3044022014b7e55444d5fe501d07a379920aa738dfa58a64089da38c214101ad7f124c16022007bcafdd1115d49bd96d15287a0d03c9b80ba15aee95b0b0f2f14d142d3476c7[ALL] 0371bc75473ffebd0a84fe541211c1b3cb9179c5d2616607702a99b5535fa29251"}, "vout": 1, "txid": "24df57ab487bf8936c106c8dc035bf53c66371b29325a40f24284fa0cd981123"}, {"sequence": 4294967295, "scriptSig": {"hex": "473044022029cc2e396af8fd9cc9e30b34c5aa22b9ac7028c5fc3c2b6e28688a0b992a375b02200132e63051c53d3dcc22fe4ee0eae73e6a7ffc4b4da90d69267a5ab33f55e7af012102e0fc665f6652bacbbabb11b166203e03373a7b7466637099f08f9206a9933095", "asm": "3044022029cc2e396af8fd9cc9e30b34c5aa22b9ac7028c5fc3c2b6e28688a0b992a375b02200132e63051c53d3dcc22fe4ee0eae73e6a7ffc4b4da90d69267a5ab33f55e7af[ALL] 02e0fc665f6652bacbbabb11b166203e03373a7b7466637099f08f9206a9933095"}, "vout": 0, "txid": "2f806755a5afc81e4d271e9c0df6b21d0964e51239046da63b95cc16b25b2d3c"}, {"sequence": 4294967295, "scriptSig": {"hex": "483045022100ba3cd048a55146f05c42d2106e8136d37dbd864255f5b77cbd3faa2a3dfe2cd902203358d4eb28b073875619e2049eb5c7ac722feec8741f8ac612f3171905a2739d0121034c5a516f90f9fff64bb68ef7344e1be6148d3a3ab0ec306b55694906bd9db8e3", "asm": "3045022100ba3cd048a55146f05c42d2106e8136d37dbd864255f5b77cbd3faa2a3dfe2cd902203358d4eb28b073875619e2049eb5c7ac722feec8741f8ac612f3171905a2739d[ALL] 034c5a516f90f9fff64bb68ef7344e1be6148d3a3ab0ec306b55694906bd9db8e3"}, "vout": 0, "txid": "9314a3425e20263b8aca25397f479652a4d31acad17e15b8fb6a9f35ccc647a9"}, {"sequence": 4294967295, "scriptSig": {"hex": "4730440220341c6e2abffaf68911518bc96421badb8fa13954240431c57c5841a18c208d5502203412ea8f2c4779cba7300f81deb6ea7b6311668469a999b148c06806feef7706012102d566bd6935951ed13af655dc5e732ead1feff45d33e8f6d5e6c74fd131b31167", "asm": "30440220341c6e2abffaf68911518bc96421badb8fa13954240431c57c5841a18c208d5502203412ea8f2c4779cba7300f81deb6ea7b6311668469a999b148c06806feef7706[ALL] 02d566bd6935951ed13af655dc5e732ead1feff45d33e8f6d5e6c74fd131b31167"}, "vout": 0, "txid": "945e658ee3d195bf5affe9be7e7378d76518c218940173a2e33b3b6131296384"}, {"sequence": 4294967295, "scriptSig": {"hex": "47304402200959268b6db02cf855eb5d9fd4de3c5de8870b15f4967f0f8a03f8c98c2d6bd5022070fd58daeb914357971bc4667578a758e6f3854aa05e96634f6510fabfc1ba0501210375fd17d127aa226c9316302b97f1bf860f9c0f226b68e6bcd3a10570285edb87", "asm": "304402200959268b6db02cf855eb5d9fd4de3c5de8870b15f4967f0f8a03f8c98c2d6bd5022070fd58daeb914357971bc4667578a758e6f3854aa05e96634f6510fabfc1ba05[ALL] 0375fd17d127aa226c9316302b97f1bf860f9c0f226b68e6bcd3a10570285edb87"}, "vout": 1, "txid": "c0511b2e115f2a26a38cf657f0c492228091f4e8fd4e356153bc4ec328748c2c"}, {"sequence": 4294967295, "scriptSig": {"hex": "48304502210092da144814931bc1d25d5f3667b18d12b6af02ff0e82aab9b976acdd624788b1022014d3fcd93c707a573cd6458e302347c166257c243efb7c39e1589d1341ceb4de0121032b872801df1d665f44deabd08ef3191cdcefdfa905f4840312deafa39c017155", "asm": "304502210092da144814931bc1d25d5f3667b18d12b6af02ff0e82aab9b976acdd624788b1022014d3fcd93c707a573cd6458e302347c166257c243efb7c39e1589d1341ceb4de[ALL] 032b872801df1d665f44deabd08ef3191cdcefdfa905f4840312deafa39c017155"}, "vout": 0, "txid": "fc78aaa307fd8f9460bc75e985b2c8ccfca15ab785acacce9d7a61c18d94d475"}], "txid": "bdb343af600045984c750a6ddf96bbafec1ee21de86db4d21d0428566974f8c2", "blocktime": 1537870564, "version": 1, "confirmations": 11515, "time": 1537870564, "locktime": 0, "vsize": 1257, "size": 1257}