{"hash": "fc7a060680fa44e646845f573f9eae2b033d2ac885adafd3dd349ad8a34030ec", "blockhash": "0000000000000000001cda96e906b7601b7a6fb1a3b62bca570a9e5d8f4b3de1", "vout": [{"scriptPubKey": {"reqSigs": 1, "hex": "00143324f1a779ca5766664dfbd73f4687c797972bb0", "addresses": ["bc1qxvj0rfmeeftkvejdl0tn7358c7tew2ashnr3nh"], "asm": "0 3324f1a779ca5766664dfbd73f4687c797972bb0", "type": "witness_v0_keyhash"}, "value": 0.01256242, "n": 0}, {"scriptPubKey": {"reqSigs": 1, "hex": "a914fc4f794e67fc7ee446fe0964b54217e9cd105d6187", "addresses": ["3Qh7QpousErEoh8KcuUeHfMJocct3tfCqU"], "asm": "OP_HASH160 fc4f794e67fc7ee446fe0964b54217e9cd105d61 OP_EQUAL", "type": "scripthash"}, "value": 0.08218602, "n": 1}], "hex": "010000000001012f2d2c6a502112af60efeaa3547dad3b124962ce8b3480c1aeb5e8e7c9ff4eee5d00000017160014ef86c90cf43c46c7f1d19d5b3983d263de189986ffffffff02322b1300000000001600143324f1a779ca5766664dfbd73f4687c797972bb0ea677d000000000017a914fc4f794e67fc7ee446fe0964b54217e9cd105d6187024830450221008cc0f81450ecf3cbcfae0e0149b6bb85c1171e5b5a8e734fff24c266b9ffa3eb0220764da55ee755be074b180f58429ea827db31392beed356a4b3c8057297edf7a10121028e1cccf56473404a1db3ea30af363acf0dd38ebd4be5bb57511ae654c0f07ed600000000", "vin": [{"txinwitness": ["30450221008cc0f81450ecf3cbcfae0e0149b6bb85c1171e5b5a8e734fff24c266b9ffa3eb0220764da55ee755be074b180f58429ea827db31392beed356a4b3c8057297edf7a101", "028e1cccf56473404a1db3ea30af363acf0dd38ebd4be5bb57511ae654c0f07ed6"], "sequence": 4294967295, "scriptSig": {"hex": "160014ef86c90cf43c46c7f1d19d5b3983d263de189986", "asm": "0014ef86c90cf43c46c7f1d19d5b3983d263de189986"}, "vout": 93, "txid": "ee4effc9e7e8b5aec180348bce6249123bad7d54a3eaef60af1221506a2c2d2f"}], "txid": "bdbac91608cb6c7efe85bffe5f136dc5adc283236c34f3d4535fee0b970578a9", "blocktime": 1537873282, "version": 1, "confirmations": 11484, "time": 1537873282, "locktime": 0, "vsize": 165, "size": 247}