{"hash": "bdbe5adfcfbd338b395a3f18ef47c97891e8c2e05425bc7a15d665823052111c", "blockhash": "00000000000000000018f53835495a110e01622372bf6ae95dc86f2b0ab887b0", "vout": [{"scriptPubKey": {"reqSigs": 1, "hex": "76a914a0baade16d0c487121981ba226fc286cf49608bb88ac", "addresses": ["1FerkPmUm2mvnhYDmXzxC6oqRwAJbG4haY"], "asm": "OP_DUP OP_HASH160 a0baade16d0c487121981ba226fc286cf49608bb OP_EQUALVERIFY OP_CHECKSIG", "type": "pubkeyhash"}, "value": 7.35961401, "n": 0}, {"scriptPubKey": {"reqSigs": 1, "hex": "76a9140aa40a8bed0b9ef5300d358399f00db33b8bd21588ac", "addresses": ["1yGGhdapMuZzU3Dqft4urYAWpHhQHPuzq"], "asm": "OP_DUP OP_HASH160 0aa40a8bed0b9ef5300d358399f00db33b8bd215 OP_EQUALVERIFY OP_CHECKSIG", "type": "pubkeyhash"}, "value": 0.015637, "n": 1}], "hex": "01000000011f00e7a7eae4f377426a893e698aa1cd1a39d9d36e2076e8a5d7e2d75a892f35000000006a473044022029a77e579cf24087e03fb6e0a8556f4513fc59faf15ba8408cda4ca3104e2b2a02201bda80fed7144913c0653b9adb40a28ebb2f1a196e89653b037e7bf8a4c9ff7c012102865f6d58f89243d5591ceb367be0527c022ba210673184496337b7fad3b36b15ffffffff0239e1dd2b000000001976a914a0baade16d0c487121981ba226fc286cf49608bb88ac34dc1700000000001976a9140aa40a8bed0b9ef5300d358399f00db33b8bd21588ac00000000", "vin": [{"sequence": 4294967295, "scriptSig": {"hex": "473044022029a77e579cf24087e03fb6e0a8556f4513fc59faf15ba8408cda4ca3104e2b2a02201bda80fed7144913c0653b9adb40a28ebb2f1a196e89653b037e7bf8a4c9ff7c012102865f6d58f89243d5591ceb367be0527c022ba210673184496337b7fad3b36b15", "asm": "3044022029a77e579cf24087e03fb6e0a8556f4513fc59faf15ba8408cda4ca3104e2b2a02201bda80fed7144913c0653b9adb40a28ebb2f1a196e89653b037e7bf8a4c9ff7c[ALL] 02865f6d58f89243d5591ceb367be0527c022ba210673184496337b7fad3b36b15"}, "vout": 0, "txid": "352f895ad7e2d7a5e876206ed3d9391acda18a693e896a4277f3e4eaa7e7001f"}], "txid": "bdbe5adfcfbd338b395a3f18ef47c97891e8c2e05425bc7a15d665823052111c", "blocktime": 1537870928, "version": 1, "confirmations": 11514, "time": 1537870928, "locktime": 0, "vsize": 225, "size": 225}