{"hash": "761e47595d01aec8b225fbb0419639c9125913e1b87023b1e9d11acf6b75e4bb", "blockhash": "0000000000000000000e13cef7c366c0283d82e591d1acd082e914b08063cdf1", "vout": [{"scriptPubKey": {"reqSigs": 1, "hex": "a91437dc03f7268703288bcaccb24bc53dc1008a80a087", "addresses": ["36nNf3CLEq6UFpvjfb6W7KTd84iqWV2peT"], "asm": "OP_HASH160 37dc03f7268703288bcaccb24bc53dc1008a80a0 OP_EQUAL", "type": "scripthash"}, "value": 0.00999432, "n": 0}, {"scriptPubKey": {"reqSigs": 1, "hex": "76a9146f4b18ea32188c2c6c117c6be7d98ca1c5ea3b4288ac", "addresses": ["1B9Ty9WUG3Typ6tQDdnR6nVr6zQML7R3kK"], "asm": "OP_DUP OP_HASH160 6f4b18ea32188c2c6c117c6be7d98ca1c5ea3b42 OP_EQUALVERIFY OP_CHECKSIG", "type": "pubkeyhash"}, "value": 0.0025536, "n": 1}], "hex": "020000000001021a44cb43a89509972d66d305f283fab6e8008264489f4dbd38cdf3aa6be355eb0100000017160014b03b92829d5ed8fa352cb6978e865656a363e0bcfeffffffc32dffd8584cdddfd4d528b128af92a54465c68d98d1e3e086dc4242382ee59c0000000017160014f87a8ba76fb0191a849748f354c2455b3ff74c6afeffffff0208400f000000000017a91437dc03f7268703288bcaccb24bc53dc1008a80a08780e50300000000001976a9146f4b18ea32188c2c6c117c6be7d98ca1c5ea3b4288ac02473044022030db7749406453bb2db237dc9507b8b0a1283bb8c0753539ce1e892be57d4ab002200eb7a45199e91d3d6ba4e7729f1b0899fb11e2967b3a6ba2e4308f50efee0d040121028917e994d83707e46c8ca2a16e21df6bbd29dc8dc24a836ba42e0dc875ea63fb02483045022100d337117866a9409adbad8672ab3a8b2de7927b08f24f990fb64dee9689d37167022003bdefd71827a57f5484fea775ab9808fedacf5f627ac00c258fe5b4fa79287d012103fc62899ded630e0e41f6466184feff3d5f40b3b5a5d4f6cfab940b6cdb94498510490800", "vin": [{"txinwitness": ["3044022030db7749406453bb2db237dc9507b8b0a1283bb8c0753539ce1e892be57d4ab002200eb7a45199e91d3d6ba4e7729f1b0899fb11e2967b3a6ba2e4308f50efee0d0401", "028917e994d83707e46c8ca2a16e21df6bbd29dc8dc24a836ba42e0dc875ea63fb"], "sequence": 4294967294, "scriptSig": {"hex": "160014b03b92829d5ed8fa352cb6978e865656a363e0bc", "asm": "0014b03b92829d5ed8fa352cb6978e865656a363e0bc"}, "vout": 1, "txid": "eb55e36baaf3cd38bd4d9f48648200e8b6fa83f205d3662d970995a843cb441a"}, {"txinwitness": ["3045022100d337117866a9409adbad8672ab3a8b2de7927b08f24f990fb64dee9689d37167022003bdefd71827a57f5484fea775ab9808fedacf5f627ac00c258fe5b4fa79287d01", "03fc62899ded630e0e41f6466184feff3d5f40b3b5a5d4f6cfab940b6cdb944985"], "sequence": 4294967294, "scriptSig": {"hex": "160014f87a8ba76fb0191a849748f354c2455b3ff74c6a", "asm": "0014f87a8ba76fb0191a849748f354c2455b3ff74c6a"}, "vout": 0, "txid": "9ce52e384242dc86e0e3d1988dc66544a592af28b128d5d4dfdd4c58d8ff2dc3"}], "txid": "bdbe767fb2535e24ec10a7745271ddd01bd719d86ca536054a332f0ad6728593", "blocktime": 1537871767, "version": 2, "confirmations": 11495, "time": 1537871767, "locktime": 542992, "vsize": 259, "size": 421}