{"hash": "ceecb73ebfbe335a4fe5c24215f3ac858cb67f5e5f70fc962345b190a74c1179", "blockhash": "00000000000000000018f53835495a110e01622372bf6ae95dc86f2b0ab887b0", "vout": [{"scriptPubKey": {"reqSigs": 1, "hex": "a914cc99e049f4a1cdf58a43837b51b8c90479ca617c87", "addresses": ["3LLr7BH3er6AyQzXEFpM13agVUvuamDzZP"], "asm": "OP_HASH160 cc99e049f4a1cdf58a43837b51b8c90479ca617c OP_EQUAL", "type": "scripthash"}, "value": 0.00013429, "n": 0}, {"scriptPubKey": {"reqSigs": 1, "hex": "a914a47633f5e43ba5021e2a9f2ea418da3a19261eb987", "addresses": ["3GgcLtbLC9TFieb6dQ2dDzayZAPbuwHtGU"], "asm": "OP_HASH160 a47633f5e43ba5021e2a9f2ea418da3a19261eb9 OP_EQUAL", "type": "scripthash"}, "value": 0.03300428, "n": 1}], "hex": "01000000000101b4ba7cc9bf1d5b655a5ea098cc7d4030a735a4877041942d8cee86db5486db1a0100000023220020aa9cad99fa9c7aa342b31c0a140b3afc3f8d89e604e2fb98b74612c70454d43cffffffff02753400000000000017a914cc99e049f4a1cdf58a43837b51b8c90479ca617c874c5c32000000000017a914a47633f5e43ba5021e2a9f2ea418da3a19261eb9870400483045022100fb80ac07d8aeebf034b33fadd973cfac02b841c75ac7879c7295539094575c7e02202c30052a01197ab04008b554e858d0355a082dbaf312e183f3c6e45093cadac401483045022100d1d8947b11a62731671f9d3ac7731aa2f020789bbac02fe64b3b4279de2a43590220591df8233ebe2f772b519539f614d6e946aa6d114831040d7779eac3885ffa450147522102db6f58776b4e5a795f110c981dded8f0e892d8f2ad4a713473d72bc9ad8869e721030580d373ab00643a581abb399b43fa66d7b6fc29624eb75b2d5ec8d99faa163f52ae00000000", "vin": [{"txinwitness": ["", "3045022100fb80ac07d8aeebf034b33fadd973cfac02b841c75ac7879c7295539094575c7e02202c30052a01197ab04008b554e858d0355a082dbaf312e183f3c6e45093cadac401", "3045022100d1d8947b11a62731671f9d3ac7731aa2f020789bbac02fe64b3b4279de2a43590220591df8233ebe2f772b519539f614d6e946aa6d114831040d7779eac3885ffa4501", "522102db6f58776b4e5a795f110c981dded8f0e892d8f2ad4a713473d72bc9ad8869e721030580d373ab00643a581abb399b43fa66d7b6fc29624eb75b2d5ec8d99faa163f52ae"], "sequence": 4294967295, "scriptSig": {"hex": "220020aa9cad99fa9c7aa342b31c0a140b3afc3f8d89e604e2fb98b74612c70454d43c", "asm": "0020aa9cad99fa9c7aa342b31c0a140b3afc3f8d89e604e2fb98b74612c70454d43c"}, "vout": 1, "txid": "1adb8654db86ee8c2d94417087a435a730407dcc98a05e5a655b1dbfc97cbab4"}], "txid": "bdbeb6ce910b59de3b643e6943f1c13805a05632791d0acdebdd482803e2a238", "blocktime": 1537870928, "version": 1, "confirmations": 11514, "time": 1537870928, "locktime": 0, "vsize": 206, "size": 372}