{"hash": "bdbfba83a9244ed02b997d54ccdb6ec74c917f57ec42c4f3fde379939fa95fb3", "blockhash": "0000000000000000001f0ddff1eddb255c1121bcd4da4f1bc9a0da00cae72433", "vout": [{"scriptPubKey": {"reqSigs": 1, "hex": "a9148e9c2f3f003b181a9eb6a96dd9f3a6a664f6595887", "addresses": ["3Eh4ygD2cwQ8G9BoZT8RPu6c8vJbFxRJqU"], "asm": "OP_HASH160 8e9c2f3f003b181a9eb6a96dd9f3a6a664f65958 OP_EQUAL", "type": "scripthash"}, "value": 0.41379, "n": 0}, {"scriptPubKey": {"reqSigs": 1, "hex": "76a914aba213b30aae21d02ac28097585a05bcba0dc1ee88ac", "addresses": ["1GeWi7CpNhGSs9GdUk1aes3cYf9uej2pJK"], "asm": "OP_DUP OP_HASH160 aba213b30aae21d02ac28097585a05bcba0dc1ee OP_EQUALVERIFY OP_CHECKSIG", "type": "pubkeyhash"}, "value": 0.05166733, "n": 1}], "hex": "0100000002d278cb32784d8d0a51874e2535e9c72f7ffc2e17beef7f772fe53ed459474fc3010000006a4730440220152ff8587f3319975283166c0b898cca6271d7d953d4f03477b92ff163440d97022059e481033c01a047831b61d6612bd7c520b99214e495962b0acc5c0d55f5081e012103d71e9a022e403194a236eda5539776f2a58142d6123fce080cfd3b366a11aba2ffffffffd498e5f3fa73a84b777f12b3cf3536725984f0b3c055cc3b820466a22b9c51b6010000006b4830450221009ef25e236dc2a8e64e0833db994cdeba5a6ef2d71631fbfab3d762cde233e9f102204382952e1d420f9715bd8f3f67e11a8598ee63e712c831feb15aeafdafba34e301210286d58079944a4c3ea8b3aec376e4d99120ddfa8ab01fae16078f5859563f84d0ffffffff02b86477020000000017a9148e9c2f3f003b181a9eb6a96dd9f3a6a664f65958878dd64e00000000001976a914aba213b30aae21d02ac28097585a05bcba0dc1ee88ac00000000", "vin": [{"sequence": 4294967295, "scriptSig": {"hex": "4730440220152ff8587f3319975283166c0b898cca6271d7d953d4f03477b92ff163440d97022059e481033c01a047831b61d6612bd7c520b99214e495962b0acc5c0d55f5081e012103d71e9a022e403194a236eda5539776f2a58142d6123fce080cfd3b366a11aba2", "asm": "30440220152ff8587f3319975283166c0b898cca6271d7d953d4f03477b92ff163440d97022059e481033c01a047831b61d6612bd7c520b99214e495962b0acc5c0d55f5081e[ALL] 03d71e9a022e403194a236eda5539776f2a58142d6123fce080cfd3b366a11aba2"}, "vout": 1, "txid": "c34f4759d43ee52f777fefbe172efc7f2fc7e935254e87510a8d4d7832cb78d2"}, {"sequence": 4294967295, "scriptSig": {"hex": "4830450221009ef25e236dc2a8e64e0833db994cdeba5a6ef2d71631fbfab3d762cde233e9f102204382952e1d420f9715bd8f3f67e11a8598ee63e712c831feb15aeafdafba34e301210286d58079944a4c3ea8b3aec376e4d99120ddfa8ab01fae16078f5859563f84d0", "asm": "30450221009ef25e236dc2a8e64e0833db994cdeba5a6ef2d71631fbfab3d762cde233e9f102204382952e1d420f9715bd8f3f67e11a8598ee63e712c831feb15aeafdafba34e3[ALL] 0286d58079944a4c3ea8b3aec376e4d99120ddfa8ab01fae16078f5859563f84d0"}, "vout": 1, "txid": "b6519c2ba26604823bcc55c0b3f08459723635cfb3127f774ba873faf3e598d4"}], "txid": "bdbfba83a9244ed02b997d54ccdb6ec74c917f57ec42c4f3fde379939fa95fb3", "blocktime": 1537872018, "version": 1, "confirmations": 11489, "time": 1537872018, "locktime": 0, "vsize": 371, "size": 371}