{"hash": "bdc02aacbdb3bb4640b8eafd90855ea2bcb51f7654368d9f9948855d0424642d", "blockhash": "0000000000000000000baef3f32e3676a92c3b2e5da21b426e4f302fc371ce76", "vout": [{"scriptPubKey": {"reqSigs": 1, "hex": "76a914e8cea30989bd15530f819b766684b00dc7ba7cfa88ac", "addresses": ["1NDyJtNTjmwk5xPNhjgAMu4HDHigtobu1s"], "asm": "OP_DUP OP_HASH160 e8cea30989bd15530f819b766684b00dc7ba7cfa OP_EQUALVERIFY OP_CHECKSIG", "type": "pubkeyhash"}, "value": 20.0, "n": 0}, {"scriptPubKey": {"reqSigs": 1, "hex": "76a91489c34a655d7e55a380b585be4f8526c6e9737a3188ac", "addresses": ["1DZRXJzSA1Co7fzDCF7bkbv4uz1BF6xMkb"], "asm": "OP_DUP OP_HASH160 89c34a655d7e55a380b585be4f8526c6e9737a31 OP_EQUALVERIFY OP_CHECKSIG", "type": "pubkeyhash"}, "value": 0.00651934, "n": 1}], "hex": "020000001709948b7651434ea6b8be51a358df967be472ca2205bf031acf63ed880775d1ce010000006a47304402201ed984e642faa1049b23ea6f7244147e7999f5bcca1229ecb7bb5a80c84ad6fa02207ffc37e02297353935b95af5a7919326913e524e702967cbdc1dcdef3d29188d0121028d3063a5605ade001a94bed325c3dbb1e477f0e4166c0bc9cd4bdb4d58659597feffffff309f9cc977fc89dfa3ee0be7a9218415e406d058c3277f1a91adfba05a9357f4b20000006a47304402203f67fe38002a2500f812c8fa1514b5ac2035cf3c6c754125c97359ecd85c698f022078d17e3177d0a2936d382782ebe599e5e3b68e8248ca61048acd324a52e13f57012102ab5e0e866462b948a979ba09979b84fd619391e7584adb0a8be4499548cd17a4feffffff343a7dcec4f2f7b02d50b310f26a88f8b64259f5f97cfcd82967aa95b702b062010000006a473044022071938c65cc5185d9a6fd507cab75af75911efa8a6ed00eeec8d6501c4b1a5abc02200d996a99ca3451c0497a09c19f9d7935541e177b2b1cc197cd88447ad8e781a6012102502c5f438d92c57f131e4810e8c6861e6b128481694d39175f2c6087a3e56082feffffff3d556e8bf4bf64a82ec406caa528c3b7e09e95da0df02f23308cf0efc7853d93020000006b483045022100e55749440c28bba10a2e7a62c3a9f023cc8f7d441d0b85c492b09e6c1c026bd9022047d7f695d01664aa1764711a37659eadcb060f1a7acdba586ea2966dc0f911c10121028d90a01afce0a38067095959c8264ea85efe12fcae454d000b9c9c66927d1939feffffff3d8095916c21b929165e69733577ab5a6eaeaabc27d383153f480f537593c1a3000000006b483045022100d0f33af19606ef96e7733389161f21fc3d9c9fe93b0e4aa072019272e63b63b00220774cf15f5be91e31707cbbb80cd8caa3bbb01ab9aa4ffd704f51ad95eecb3dab012102737f6eb96693af96446a22858376ee1ba04cb73010fd76a84f689d5a2b402e6afeffffff433d52562cde4a7c27541db6591dc3c01d18ea7a4806de6458acf2ce31b67eee0f0000006b48304502210089b9027debb59cf73425acbc6142701c19da0f015f5df2aba14ffa1e210d33ee02204f9e39eb3f3f0e6529df22cfa5963ec8366c82ecaa7d8ca4fc01e13ebca1687201210341edb171470b64bd8e20ceb422f26dd9e2fdbc8399bc8a2c6696d16ec281b136feffffff5bcb4e2b83ab68c49d17ba1f4e1e5ab52b754793d46a41924d7f05783fc4763e010000006b483045022100a2eb715ea92550d50e1b9a07974d6b52916a650f3905a142609b7bcc8f93b02b0220232d145440a7e187d8decbe94d7a54b963b1629a788ee2497dfc1fec6df854cf012102a252ea5b04f11744305ca27e1a3b62b83eab975378617cf199c0b4a2eb23bed5feffffff60d16859fae80b64735bdf325e59f9bb7f4591cae8c99eb6532275973abf662f460000006a47304402203afc73fa8a833d7cb2e564a2a265c9e98831fcde2276b0e123496ca39fa4189602201a85de156d4ef96d3efa100638efdcb38e09f08560e998872b1e39a4cfce042a01210213ce78d1fb8b117a51cc9826c2b6c62609cabc0458a333712dbde1198fa4465afeffffff77d07cc242e415600c41749f1185432baa94e4cd14d9203c7febf4808e2c16d7000000006b483045022100aa1c9e669f8b162fb8aa4c8ceac5975189e62ad7c9c01218f098be2376252bae02206fd27fc0274eb6607aed57fce5b35bcdc8a6164f174f05db0f519896f123dfd401210333e329386453116f75e4832cccc66e2d2c0607506532b9bf48fa1a6aac766285feffffff7ae1709f71ca5f428fd0126c79596e08b07db389b2776e163ba310b29a8bd250000000006b483045022100d2f55752013aae99df1b24e79cd3b3487a5d0b740a636001aabb3e527393dbbf0220138f0b0f1232f854c4145bdcc8acc3bf8622e659d792cb4c414fd4e10e770a3b012103372d4b6014b6f64d7bf6ae256a2f0d47ea4636d58a182562593ba1fd0bd12ee3feffffff8f28c8eec00109ddadddc80da87e684a8f845d2e7b08d6cc8e5c097df5e3cd4b000000006b48304502210092adf2826b03254c89038615eaf80f1ff31eec65d053cee20aeac1953aec3c0f02205c1f996f2405662123753c5622600e69d516d6f671de069700082a66ad1a7a7b012102c60f0e7fea7877bf233e33720da85825f8ff16562ce38a1cdd2bc1d8d1cfb34bfeffffffa54098f2646b7c382f7b3eacf036faf6dabd5699c26b3fce397402f9f60917ea010000006a4730440220556c29885e25a3dfeb9ab21c9ae0d7e8136d071765cc6ae73f7341df4fea2b4a02202c1b44ca600ab1ac5e54c6a4cf50b78c00d9d70f3853c1c48091261a88d202260121024909e2c9fd517ab57036582a2a973697bbd4528509d200e599b6b928e6dd83fbfeffffffa9694430a66797d38a6d0634407d4379e1252eeae89e0cadeb1035b7df08387d240000006a47304402204c06d8e7b0a3e4dec80541e0bdeb0532c2620c9053161b30111477efd2b30e3c0220210b2e88906e6f0ebbf2ca72883d86d5009295cb8b4172041eaa54f3744a1ecb012103f14ec4a296528c452f95e7075d68112da5fe0ebdebdca1df9ea3d6391732659efeffffffbfe9dc5e5d3ac3356cfcbea2f55eca095311f7437bcc4e248849feaec9a04f07000000006a4730440220244352a95b7ca6a722246436e33d4c0245246c00db3eaecf2c32e246c9c7abd30220216ac2c2b32c33e6a4c1feaaf946c5f036691ae8eadfc82fbae98e55dfc938d00121030b74d83a6bd0be13898f726e6df84a71cd82583ef9798834b7c0ae66fa8a9b6dfeffffffc3630e75539e3b3c0e259703fe62250666d86edc6a7e3c9e7711c4581cee6d55020000006a4730440220176904a20975b9bcc2201ca9ec14e14dfc4ab89c84d189570a7112c66f8495d202202a91d6ecc0d42559f23e6b671aa0dee519d250051cf6394667da5e9897b1dbab0121028d3063a5605ade001a94bed325c3dbb1e477f0e4166c0bc9cd4bdb4d58659597feffffffc3630e75539e3b3c0e259703fe62250666d86edc6a7e3c9e7711c4581cee6d55050000006b4830450221009afc83057830902c7a5b3aca9a7cad81b566dc146d9f7cc628c9c2068b3f71f20220400d261e1fdceebe6baa55a1663596a3573e329e755afdb53f635d4a6406f258012103e3568f6ac968b15340912f57b8128a532bb42b6da6b86b246bc61054e8d1b1b4feffffffd3003a62d67f614c7540b7519c1d1735bdffa2d72e8b1227788ba22e2654e678020000006a4730440220305cbfd4ea0e78eea46877618dd657fee60bee47145a9174db3bab076e5671e802200e681e0e10707f3a57ddf82fd272d2535ab996c761c1fb4268efd42ca73e4a070121024909e2c9fd517ab57036582a2a973697bbd4528509d200e599b6b928e6dd83fbfeffffffe4e23d503a996f52b056b415d9cd3a9e6f2a7a474870129e4727d1e9a188d64f010000006b483045022100c6a024d4faeff4d0b796e16c41a99adf2b0f9b7c4ff94f0ed713625ec537b0a302203a9102598e973151fb35eef31ef52f7253062c42daa2697934385662aa23fc530121029179d6415fb9bf4ed0515429f1b85d7f60941dd04240c53ed2d22ee8e335f4d2feffffffe56ee678aa9a47300aab217859bb91357274920e90eb2e690a712e35d6cf8fa7000000006a47304402203a9d2b3e2f10155ffcba982b8fa133253a87c599e046f64fd1f69f537ec0e4e102202e5550b6f9cc8d8c1653419d6b9d25e918a4837b85482e8c6df269d58d6790040121033d06c14accd2f0ff9de8ff4b4260f2ef3b0aa538ec94e9d0c972e24bd320a2d5feffffffe7149aa96d2b05c0b738259ab091121e8850ededdf7e5b2f2569e20384395fea000000006b483045022100a2704e98b37c92d821812dfeb44484e1eb5215747c024c09913e2f5a5d0ef20c02206f8390f5d0d46ee9b36db39a18e89fbae116706b3ba9c4f33d92774a532c34cb01210354af4727be05354ce83b145599f9eb1091945a085e81a92c5e5816368f6fbc9bfeffffffef964f3292ef491c65975826d97a7c115c0489408c2a95b9577f7881532422fd010000006b483045022100d031cdf64632500520bb374ac66e7a74ec681c02fcdb3c4e8c69a709533dfdd4022052b6ebb395748367e13718e1502a0d5e47f46261dd8fdde841009a16dd7399fb0121024909e2c9fd517ab57036582a2a973697bbd4528509d200e599b6b928e6dd83fbfeffffffefdc1e10c966b73b32a57a0bc2ab33f8978488f8c4cc73ce72e6fc56ef846bbe740100006a47304402206aa7d1d610bfa511237a84c144b74dba618743e607a7df0cfdeb101fb63acde002200306a81fea6362ad37584314ee392af37a43f48e4124c986505d64515e4e4f880121031edafb0edb979087a7528eea9bcbaffdf0babd30826a60a8235af3318e6e805cfeffffffefdc1e10c966b73b32a57a0bc2ab33f8978488f8c4cc73ce72e6fc56ef846bbe2b0200006a47304402203bd2dc2f0b5e20f5f2c82ec6e19a36b526f05b55b6f9fde664b872de932a290e02205e44d40f561f7988ea767a2d01d6cdc9f098170ad7ec0af6e02440113e069488012102fdb76620a0a7af9962b6f14c75f700c8e7f1b28d54608f45473c50fff86ca844feffffff0200943577000000001976a914e8cea30989bd15530f819b766684b00dc7ba7cfa88ac9ef20900000000001976a91489c34a655d7e55a380b585be4f8526c6e9737a3188ac17490800", "vin": [{"sequence": 4294967294, "scriptSig": {"hex": "47304402201ed984e642faa1049b23ea6f7244147e7999f5bcca1229ecb7bb5a80c84ad6fa02207ffc37e02297353935b95af5a7919326913e524e702967cbdc1dcdef3d29188d0121028d3063a5605ade001a94bed325c3dbb1e477f0e4166c0bc9cd4bdb4d58659597", "asm": "304402201ed984e642faa1049b23ea6f7244147e7999f5bcca1229ecb7bb5a80c84ad6fa02207ffc37e02297353935b95af5a7919326913e524e702967cbdc1dcdef3d29188d[ALL] 028d3063a5605ade001a94bed325c3dbb1e477f0e4166c0bc9cd4bdb4d58659597"}, "vout": 1, "txid": "ced1750788ed63cf1a03bf0522ca72e47b96df58a351beb8a64e4351768b9409"}, {"sequence": 4294967294, "scriptSig": {"hex": "47304402203f67fe38002a2500f812c8fa1514b5ac2035cf3c6c754125c97359ecd85c698f022078d17e3177d0a2936d382782ebe599e5e3b68e8248ca61048acd324a52e13f57012102ab5e0e866462b948a979ba09979b84fd619391e7584adb0a8be4499548cd17a4", "asm": "304402203f67fe38002a2500f812c8fa1514b5ac2035cf3c6c754125c97359ecd85c698f022078d17e3177d0a2936d382782ebe599e5e3b68e8248ca61048acd324a52e13f57[ALL] 02ab5e0e866462b948a979ba09979b84fd619391e7584adb0a8be4499548cd17a4"}, "vout": 178, "txid": "f457935aa0fbad911a7f27c358d006e4158421a9e70beea3df89fc77c99c9f30"}, {"sequence": 4294967294, "scriptSig": {"hex": "473044022071938c65cc5185d9a6fd507cab75af75911efa8a6ed00eeec8d6501c4b1a5abc02200d996a99ca3451c0497a09c19f9d7935541e177b2b1cc197cd88447ad8e781a6012102502c5f438d92c57f131e4810e8c6861e6b128481694d39175f2c6087a3e56082", "asm": "3044022071938c65cc5185d9a6fd507cab75af75911efa8a6ed00eeec8d6501c4b1a5abc02200d996a99ca3451c0497a09c19f9d7935541e177b2b1cc197cd88447ad8e781a6[ALL] 02502c5f438d92c57f131e4810e8c6861e6b128481694d39175f2c6087a3e56082"}, "vout": 1, "txid": "62b002b795aa6729d8fc7cf9f55942b6f8886af210b3502db0f7f2c4ce7d3a34"}, {"sequence": 4294967294, "scriptSig": {"hex": "483045022100e55749440c28bba10a2e7a62c3a9f023cc8f7d441d0b85c492b09e6c1c026bd9022047d7f695d01664aa1764711a37659eadcb060f1a7acdba586ea2966dc0f911c10121028d90a01afce0a38067095959c8264ea85efe12fcae454d000b9c9c66927d1939", "asm": "3045022100e55749440c28bba10a2e7a62c3a9f023cc8f7d441d0b85c492b09e6c1c026bd9022047d7f695d01664aa1764711a37659eadcb060f1a7acdba586ea2966dc0f911c1[ALL] 028d90a01afce0a38067095959c8264ea85efe12fcae454d000b9c9c66927d1939"}, "vout": 2, "txid": "933d85c7eff08c30232ff00dda959ee0b7c328a5ca06c42ea864bff48b6e553d"}, {"sequence": 4294967294, "scriptSig": {"hex": "483045022100d0f33af19606ef96e7733389161f21fc3d9c9fe93b0e4aa072019272e63b63b00220774cf15f5be91e31707cbbb80cd8caa3bbb01ab9aa4ffd704f51ad95eecb3dab012102737f6eb96693af96446a22858376ee1ba04cb73010fd76a84f689d5a2b402e6a", "asm": "3045022100d0f33af19606ef96e7733389161f21fc3d9c9fe93b0e4aa072019272e63b63b00220774cf15f5be91e31707cbbb80cd8caa3bbb01ab9aa4ffd704f51ad95eecb3dab[ALL] 02737f6eb96693af96446a22858376ee1ba04cb73010fd76a84f689d5a2b402e6a"}, "vout": 0, "txid": "a3c19375530f483f1583d327bcaaae6e5aab773573695e1629b9216c9195803d"}, {"sequence": 4294967294, "scriptSig": {"hex": "48304502210089b9027debb59cf73425acbc6142701c19da0f015f5df2aba14ffa1e210d33ee02204f9e39eb3f3f0e6529df22cfa5963ec8366c82ecaa7d8ca4fc01e13ebca1687201210341edb171470b64bd8e20ceb422f26dd9e2fdbc8399bc8a2c6696d16ec281b136", "asm": "304502210089b9027debb59cf73425acbc6142701c19da0f015f5df2aba14ffa1e210d33ee02204f9e39eb3f3f0e6529df22cfa5963ec8366c82ecaa7d8ca4fc01e13ebca16872[ALL] 0341edb171470b64bd8e20ceb422f26dd9e2fdbc8399bc8a2c6696d16ec281b136"}, "vout": 15, "txid": "ee7eb631cef2ac5864de06487aea181dc0c31d59b61d54277c4ade2c56523d43"}, {"sequence": 4294967294, "scriptSig": {"hex": "483045022100a2eb715ea92550d50e1b9a07974d6b52916a650f3905a142609b7bcc8f93b02b0220232d145440a7e187d8decbe94d7a54b963b1629a788ee2497dfc1fec6df854cf012102a252ea5b04f11744305ca27e1a3b62b83eab975378617cf199c0b4a2eb23bed5", "asm": "3045022100a2eb715ea92550d50e1b9a07974d6b52916a650f3905a142609b7bcc8f93b02b0220232d145440a7e187d8decbe94d7a54b963b1629a788ee2497dfc1fec6df854cf[ALL] 02a252ea5b04f11744305ca27e1a3b62b83eab975378617cf199c0b4a2eb23bed5"}, "vout": 1, "txid": "3e76c43f78057f4d92416ad49347752bb55a1e4e1fba179dc468ab832b4ecb5b"}, {"sequence": 4294967294, "scriptSig": {"hex": "47304402203afc73fa8a833d7cb2e564a2a265c9e98831fcde2276b0e123496ca39fa4189602201a85de156d4ef96d3efa100638efdcb38e09f08560e998872b1e39a4cfce042a01210213ce78d1fb8b117a51cc9826c2b6c62609cabc0458a333712dbde1198fa4465a", "asm": "304402203afc73fa8a833d7cb2e564a2a265c9e98831fcde2276b0e123496ca39fa4189602201a85de156d4ef96d3efa100638efdcb38e09f08560e998872b1e39a4cfce042a[ALL] 0213ce78d1fb8b117a51cc9826c2b6c62609cabc0458a333712dbde1198fa4465a"}, "vout": 70, "txid": "2f66bf3a97752253b69ec9e8ca91457fbbf9595e32df5b73640be8fa5968d160"}, {"sequence": 4294967294, "scriptSig": {"hex": "483045022100aa1c9e669f8b162fb8aa4c8ceac5975189e62ad7c9c01218f098be2376252bae02206fd27fc0274eb6607aed57fce5b35bcdc8a6164f174f05db0f519896f123dfd401210333e329386453116f75e4832cccc66e2d2c0607506532b9bf48fa1a6aac766285", "asm": "3045022100aa1c9e669f8b162fb8aa4c8ceac5975189e62ad7c9c01218f098be2376252bae02206fd27fc0274eb6607aed57fce5b35bcdc8a6164f174f05db0f519896f123dfd4[ALL] 0333e329386453116f75e4832cccc66e2d2c0607506532b9bf48fa1a6aac766285"}, "vout": 0, "txid": "d7162c8e80f4eb7f3c20d914cde494aa2b4385119f74410c6015e442c27cd077"}, {"sequence": 4294967294, "scriptSig": {"hex": "483045022100d2f55752013aae99df1b24e79cd3b3487a5d0b740a636001aabb3e527393dbbf0220138f0b0f1232f854c4145bdcc8acc3bf8622e659d792cb4c414fd4e10e770a3b012103372d4b6014b6f64d7bf6ae256a2f0d47ea4636d58a182562593ba1fd0bd12ee3", "asm": "3045022100d2f55752013aae99df1b24e79cd3b3487a5d0b740a636001aabb3e527393dbbf0220138f0b0f1232f854c4145bdcc8acc3bf8622e659d792cb4c414fd4e10e770a3b[ALL] 03372d4b6014b6f64d7bf6ae256a2f0d47ea4636d58a182562593ba1fd0bd12ee3"}, "vout": 0, "txid": "50d28b9ab210a33b166e77b289b37db0086e59796c12d08f425fca719f70e17a"}, {"sequence": 4294967294, "scriptSig": {"hex": "48304502210092adf2826b03254c89038615eaf80f1ff31eec65d053cee20aeac1953aec3c0f02205c1f996f2405662123753c5622600e69d516d6f671de069700082a66ad1a7a7b012102c60f0e7fea7877bf233e33720da85825f8ff16562ce38a1cdd2bc1d8d1cfb34b", "asm": "304502210092adf2826b03254c89038615eaf80f1ff31eec65d053cee20aeac1953aec3c0f02205c1f996f2405662123753c5622600e69d516d6f671de069700082a66ad1a7a7b[ALL] 02c60f0e7fea7877bf233e33720da85825f8ff16562ce38a1cdd2bc1d8d1cfb34b"}, "vout": 0, "txid": "4bcde3f57d095c8eccd6087b2e5d848f4a687ea80dc8ddaddd0901c0eec8288f"}, {"sequence": 4294967294, "scriptSig": {"hex": "4730440220556c29885e25a3dfeb9ab21c9ae0d7e8136d071765cc6ae73f7341df4fea2b4a02202c1b44ca600ab1ac5e54c6a4cf50b78c00d9d70f3853c1c48091261a88d202260121024909e2c9fd517ab57036582a2a973697bbd4528509d200e599b6b928e6dd83fb", "asm": "30440220556c29885e25a3dfeb9ab21c9ae0d7e8136d071765cc6ae73f7341df4fea2b4a02202c1b44ca600ab1ac5e54c6a4cf50b78c00d9d70f3853c1c48091261a88d20226[ALL] 024909e2c9fd517ab57036582a2a973697bbd4528509d200e599b6b928e6dd83fb"}, "vout": 1, "txid": "ea1709f6f9027439ce3f6bc29956bddaf6fa36f0ac3e7b2f387c6b64f29840a5"}, {"sequence": 4294967294, "scriptSig": {"hex": "47304402204c06d8e7b0a3e4dec80541e0bdeb0532c2620c9053161b30111477efd2b30e3c0220210b2e88906e6f0ebbf2ca72883d86d5009295cb8b4172041eaa54f3744a1ecb012103f14ec4a296528c452f95e7075d68112da5fe0ebdebdca1df9ea3d6391732659e", "asm": "304402204c06d8e7b0a3e4dec80541e0bdeb0532c2620c9053161b30111477efd2b30e3c0220210b2e88906e6f0ebbf2ca72883d86d5009295cb8b4172041eaa54f3744a1ecb[ALL] 03f14ec4a296528c452f95e7075d68112da5fe0ebdebdca1df9ea3d6391732659e"}, "vout": 36, "txid": "7d3808dfb73510ebad0c9ee8ea2e25e179437d4034066d8ad39767a6304469a9"}, {"sequence": 4294967294, "scriptSig": {"hex": "4730440220244352a95b7ca6a722246436e33d4c0245246c00db3eaecf2c32e246c9c7abd30220216ac2c2b32c33e6a4c1feaaf946c5f036691ae8eadfc82fbae98e55dfc938d00121030b74d83a6bd0be13898f726e6df84a71cd82583ef9798834b7c0ae66fa8a9b6d", "asm": "30440220244352a95b7ca6a722246436e33d4c0245246c00db3eaecf2c32e246c9c7abd30220216ac2c2b32c33e6a4c1feaaf946c5f036691ae8eadfc82fbae98e55dfc938d0[ALL] 030b74d83a6bd0be13898f726e6df84a71cd82583ef9798834b7c0ae66fa8a9b6d"}, "vout": 0, "txid": "074fa0c9aefe4988244ecc7b43f7115309ca5ef5a2befc6c35c33a5d5edce9bf"}, {"sequence": 4294967294, "scriptSig": {"hex": "4730440220176904a20975b9bcc2201ca9ec14e14dfc4ab89c84d189570a7112c66f8495d202202a91d6ecc0d42559f23e6b671aa0dee519d250051cf6394667da5e9897b1dbab0121028d3063a5605ade001a94bed325c3dbb1e477f0e4166c0bc9cd4bdb4d58659597", "asm": "30440220176904a20975b9bcc2201ca9ec14e14dfc4ab89c84d189570a7112c66f8495d202202a91d6ecc0d42559f23e6b671aa0dee519d250051cf6394667da5e9897b1dbab[ALL] 028d3063a5605ade001a94bed325c3dbb1e477f0e4166c0bc9cd4bdb4d58659597"}, "vout": 2, "txid": "556dee1c58c411779e3c7e6adc6ed866062562fe0397250e3c3b9e53750e63c3"}, {"sequence": 4294967294, "scriptSig": {"hex": "4830450221009afc83057830902c7a5b3aca9a7cad81b566dc146d9f7cc628c9c2068b3f71f20220400d261e1fdceebe6baa55a1663596a3573e329e755afdb53f635d4a6406f258012103e3568f6ac968b15340912f57b8128a532bb42b6da6b86b246bc61054e8d1b1b4", "asm": "30450221009afc83057830902c7a5b3aca9a7cad81b566dc146d9f7cc628c9c2068b3f71f20220400d261e1fdceebe6baa55a1663596a3573e329e755afdb53f635d4a6406f258[ALL] 03e3568f6ac968b15340912f57b8128a532bb42b6da6b86b246bc61054e8d1b1b4"}, "vout": 5, "txid": "556dee1c58c411779e3c7e6adc6ed866062562fe0397250e3c3b9e53750e63c3"}, {"sequence": 4294967294, "scriptSig": {"hex": "4730440220305cbfd4ea0e78eea46877618dd657fee60bee47145a9174db3bab076e5671e802200e681e0e10707f3a57ddf82fd272d2535ab996c761c1fb4268efd42ca73e4a070121024909e2c9fd517ab57036582a2a973697bbd4528509d200e599b6b928e6dd83fb", "asm": "30440220305cbfd4ea0e78eea46877618dd657fee60bee47145a9174db3bab076e5671e802200e681e0e10707f3a57ddf82fd272d2535ab996c761c1fb4268efd42ca73e4a07[ALL] 024909e2c9fd517ab57036582a2a973697bbd4528509d200e599b6b928e6dd83fb"}, "vout": 2, "txid": "78e654262ea28b7827128b2ed7a2ffbd35171d9c51b740754c617fd6623a00d3"}, {"sequence": 4294967294, "scriptSig": {"hex": "483045022100c6a024d4faeff4d0b796e16c41a99adf2b0f9b7c4ff94f0ed713625ec537b0a302203a9102598e973151fb35eef31ef52f7253062c42daa2697934385662aa23fc530121029179d6415fb9bf4ed0515429f1b85d7f60941dd04240c53ed2d22ee8e335f4d2", "asm": "3045022100c6a024d4faeff4d0b796e16c41a99adf2b0f9b7c4ff94f0ed713625ec537b0a302203a9102598e973151fb35eef31ef52f7253062c42daa2697934385662aa23fc53[ALL] 029179d6415fb9bf4ed0515429f1b85d7f60941dd04240c53ed2d22ee8e335f4d2"}, "vout": 1, "txid": "4fd688a1e9d127479e127048477a2a6f9e3acdd915b456b0526f993a503de2e4"}, {"sequence": 4294967294, "scriptSig": {"hex": "47304402203a9d2b3e2f10155ffcba982b8fa133253a87c599e046f64fd1f69f537ec0e4e102202e5550b6f9cc8d8c1653419d6b9d25e918a4837b85482e8c6df269d58d6790040121033d06c14accd2f0ff9de8ff4b4260f2ef3b0aa538ec94e9d0c972e24bd320a2d5", "asm": "304402203a9d2b3e2f10155ffcba982b8fa133253a87c599e046f64fd1f69f537ec0e4e102202e5550b6f9cc8d8c1653419d6b9d25e918a4837b85482e8c6df269d58d679004[ALL] 033d06c14accd2f0ff9de8ff4b4260f2ef3b0aa538ec94e9d0c972e24bd320a2d5"}, "vout": 0, "txid": "a78fcfd6352e710a692eeb900e9274723591bb597821ab0a30479aaa78e66ee5"}, {"sequence": 4294967294, "scriptSig": {"hex": "483045022100a2704e98b37c92d821812dfeb44484e1eb5215747c024c09913e2f5a5d0ef20c02206f8390f5d0d46ee9b36db39a18e89fbae116706b3ba9c4f33d92774a532c34cb01210354af4727be05354ce83b145599f9eb1091945a085e81a92c5e5816368f6fbc9b", "asm": "3045022100a2704e98b37c92d821812dfeb44484e1eb5215747c024c09913e2f5a5d0ef20c02206f8390f5d0d46ee9b36db39a18e89fbae116706b3ba9c4f33d92774a532c34cb[ALL] 0354af4727be05354ce83b145599f9eb1091945a085e81a92c5e5816368f6fbc9b"}, "vout": 0, "txid": "ea5f398403e269252f5b7edfeded50881e1291b09a2538b7c0052b6da99a14e7"}, {"sequence": 4294967294, "scriptSig": {"hex": "483045022100d031cdf64632500520bb374ac66e7a74ec681c02fcdb3c4e8c69a709533dfdd4022052b6ebb395748367e13718e1502a0d5e47f46261dd8fdde841009a16dd7399fb0121024909e2c9fd517ab57036582a2a973697bbd4528509d200e599b6b928e6dd83fb", "asm": "3045022100d031cdf64632500520bb374ac66e7a74ec681c02fcdb3c4e8c69a709533dfdd4022052b6ebb395748367e13718e1502a0d5e47f46261dd8fdde841009a16dd7399fb[ALL] 024909e2c9fd517ab57036582a2a973697bbd4528509d200e599b6b928e6dd83fb"}, "vout": 1, "txid": "fd22245381787f57b9952a8c4089045c117c7ad9265897651c49ef92324f96ef"}, {"sequence": 4294967294, "scriptSig": {"hex": "47304402206aa7d1d610bfa511237a84c144b74dba618743e607a7df0cfdeb101fb63acde002200306a81fea6362ad37584314ee392af37a43f48e4124c986505d64515e4e4f880121031edafb0edb979087a7528eea9bcbaffdf0babd30826a60a8235af3318e6e805c", "asm": "304402206aa7d1d610bfa511237a84c144b74dba618743e607a7df0cfdeb101fb63acde002200306a81fea6362ad37584314ee392af37a43f48e4124c986505d64515e4e4f88[ALL] 031edafb0edb979087a7528eea9bcbaffdf0babd30826a60a8235af3318e6e805c"}, "vout": 372, "txid": "be6b84ef56fce672ce73ccc4f8888497f833abc20b7aa5323bb766c9101edcef"}, {"sequence": 4294967294, "scriptSig": {"hex": "47304402203bd2dc2f0b5e20f5f2c82ec6e19a36b526f05b55b6f9fde664b872de932a290e02205e44d40f561f7988ea767a2d01d6cdc9f098170ad7ec0af6e02440113e069488012102fdb76620a0a7af9962b6f14c75f700c8e7f1b28d54608f45473c50fff86ca844", "asm": "304402203bd2dc2f0b5e20f5f2c82ec6e19a36b526f05b55b6f9fde664b872de932a290e02205e44d40f561f7988ea767a2d01d6cdc9f098170ad7ec0af6e02440113e069488[ALL] 02fdb76620a0a7af9962b6f14c75f700c8e7f1b28d54608f45473c50fff86ca844"}, "vout": 555, "txid": "be6b84ef56fce672ce73ccc4f8888497f833abc20b7aa5323bb766c9101edcef"}], "txid": "bdc02aacbdb3bb4640b8eafd90855ea2bcb51f7654368d9f9948855d0424642d", "blocktime": 1537876114, "version": 2, "confirmations": 11459, "time": 1537876114, "locktime": 542999, "vsize": 3470, "size": 3470}