{"hash": "bdc0c0cac5489532b7cbf5866f74a0d30905d784dc66e33bb65ebacfd48be7ba", "blockhash": "00000000000000000018f53835495a110e01622372bf6ae95dc86f2b0ab887b0", "vout": [{"scriptPubKey": {"reqSigs": 1, "hex": "a91459e4f58c05074b0697ff71283fafc74220aa647087", "addresses": ["39tLLyi2mTWt3puj2iTxw6xg4ZWbjrcZSD"], "asm": "OP_HASH160 59e4f58c05074b0697ff71283fafc74220aa6470 OP_EQUAL", "type": "scripthash"}, "value": 0.0026, "n": 0}, {"scriptPubKey": {"reqSigs": 1, "hex": "76a9141b74205392f7a6becacf0fb17a761ba71809997588ac", "addresses": ["13WAMmvLkBbfxgiYasdRGKYWq76SPPEGSn"], "asm": "OP_DUP OP_HASH160 1b74205392f7a6becacf0fb17a761ba718099975 OP_EQUALVERIFY OP_CHECKSIG", "type": "pubkeyhash"}, "value": 0.09639465, "n": 1}], "hex": "0100000001bd3d59fb23724630342ce922ee0fb84a19f4324bdd3ddc8ae6380e0b96d8a9cf010000006a47304402206ab92277112b07d4aee2f9cafce95c784f2acbfdf68b4b0863aa5e34bdb6391502207265e6ffd12de1096cd82a2c2114cd72cf9912a9f8666444aad808b0edaad6e9012103f6bcd794e0310b2151cf38c0730db1998348ac44033430da2cfec6566a7ab5bfffffffff02a0f703000000000017a91459e4f58c05074b0697ff71283fafc74220aa64708729169300000000001976a9141b74205392f7a6becacf0fb17a761ba71809997588ac00000000", "vin": [{"sequence": 4294967295, "scriptSig": {"hex": "47304402206ab92277112b07d4aee2f9cafce95c784f2acbfdf68b4b0863aa5e34bdb6391502207265e6ffd12de1096cd82a2c2114cd72cf9912a9f8666444aad808b0edaad6e9012103f6bcd794e0310b2151cf38c0730db1998348ac44033430da2cfec6566a7ab5bf", "asm": "304402206ab92277112b07d4aee2f9cafce95c784f2acbfdf68b4b0863aa5e34bdb6391502207265e6ffd12de1096cd82a2c2114cd72cf9912a9f8666444aad808b0edaad6e9[ALL] 03f6bcd794e0310b2151cf38c0730db1998348ac44033430da2cfec6566a7ab5bf"}, "vout": 1, "txid": "cfa9d8960b0e38e68adc3ddd4b32f4194ab80fee22e92c3430467223fb593dbd"}], "txid": "bdc0c0cac5489532b7cbf5866f74a0d30905d784dc66e33bb65ebacfd48be7ba", "blocktime": 1537870928, "version": 1, "confirmations": 11514, "time": 1537870928, "locktime": 0, "vsize": 223, "size": 223}