{"hash": "bdd3eb0bde62ab35b38da9067877e31fb73dc4f888ea4ec5807605bca2f648fb", "blockhash": "00000000000000000004ffacab907a6b429b9a5745fa0b75af4234bf69dd7176", "vout": [{"scriptPubKey": {"reqSigs": 1, "hex": "76a91476e87d99d6356f425252d5b8df4b76a2187786ea88ac", "addresses": ["1BqjFNM9pTNFEJSE9tNtXNKSj53u61TzMY"], "asm": "OP_DUP OP_HASH160 76e87d99d6356f425252d5b8df4b76a2187786ea OP_EQUALVERIFY OP_CHECKSIG", "type": "pubkeyhash"}, "value": 0.00233555, "n": 0}, {"scriptPubKey": {"reqSigs": 1, "hex": "76a9145c7d374e0eb49eebde2c6ca2025efc13914308e888ac", "addresses": ["19S3Ap3H1waLCH12K4RjPhNAuN82CZAqP9"], "asm": "OP_DUP OP_HASH160 5c7d374e0eb49eebde2c6ca2025efc13914308e8 OP_EQUALVERIFY OP_CHECKSIG", "type": "pubkeyhash"}, "value": 0.006, "n": 1}], "hex": "0100000001fae72d76438bd38870a318d6edb80e20485dd835cffb2efa35cbe3911f613320010000006b483045022100878a75c9ca22e63e9f99a5bc0189ac2036ded8569fcb4da71ec1d88a3587cf7d02207da19c9f53970107b058d51c91ee9b3948d1bc7869b2ef1d158c917a7496c272012103902269f93f48a1cc65f3ca3f017a36f130ea3e87c11d817f8ae63382847f34e4ffffffff0253900300000000001976a91476e87d99d6356f425252d5b8df4b76a2187786ea88acc0270900000000001976a9145c7d374e0eb49eebde2c6ca2025efc13914308e888ac00000000", "vin": [{"sequence": 4294967295, "scriptSig": {"hex": "483045022100878a75c9ca22e63e9f99a5bc0189ac2036ded8569fcb4da71ec1d88a3587cf7d02207da19c9f53970107b058d51c91ee9b3948d1bc7869b2ef1d158c917a7496c272012103902269f93f48a1cc65f3ca3f017a36f130ea3e87c11d817f8ae63382847f34e4", "asm": "3045022100878a75c9ca22e63e9f99a5bc0189ac2036ded8569fcb4da71ec1d88a3587cf7d02207da19c9f53970107b058d51c91ee9b3948d1bc7869b2ef1d158c917a7496c272[ALL] 03902269f93f48a1cc65f3ca3f017a36f130ea3e87c11d817f8ae63382847f34e4"}, "vout": 1, "txid": "2033611f91e3cb35fa2efbcf35d85d48200eb8edd618a37088d38b43762de7fa"}], "txid": "bdd3eb0bde62ab35b38da9067877e31fb73dc4f888ea4ec5807605bca2f648fb", "blocktime": 1537875543, "version": 1, "confirmations": 11464, "time": 1537875543, "locktime": 0, "vsize": 226, "size": 226}