{"hash": "bdd7db7b2f7eaeffe1c09a7199950f39411cef77937d351282c26a66541114c5", "blockhash": "00000000000000000004ffacab907a6b429b9a5745fa0b75af4234bf69dd7176", "vout": [{"scriptPubKey": {"reqSigs": 1, "hex": "76a914c5f8ef6b3dffba232f075ad7d96e7bfb076da7fd88ac", "addresses": ["1K3nL7bBAu6umb3GcC4yYys8GZYHsX2Caj"], "asm": "OP_DUP OP_HASH160 c5f8ef6b3dffba232f075ad7d96e7bfb076da7fd OP_EQUALVERIFY OP_CHECKSIG", "type": "pubkeyhash"}, "value": 0.0009377, "n": 0}, {"scriptPubKey": {"reqSigs": 1, "hex": "76a9141b9733ce9db2c0796b4fdea0c41114f62af449d088ac", "addresses": ["13WtNuTJ55KoAiLnBWyaC2gopkJUyfExJH"], "asm": "OP_DUP OP_HASH160 1b9733ce9db2c0796b4fdea0c41114f62af449d0 OP_EQUALVERIFY OP_CHECKSIG", "type": "pubkeyhash"}, "value": 0.0036949, "n": 1}], "hex": "0100000001da461c04681424aff9522738710d0f3edff17a820fa43fd4285b98c8e38ed369010000006b483045022100d2c926de951b4cc3bd548b01102ef737eaf6fa1a7eb3288461396f326d589cb1022038ddc4dd89ebe3a518baada69d25a439c08601e6884c50bc3da33b18dde330f2012102c4f1eb970c07318bd1f28386fefa06e28d50b29417ae37641a0095b31f56ad19ffffffff024a6e0100000000001976a914c5f8ef6b3dffba232f075ad7d96e7bfb076da7fd88ac52a30500000000001976a9141b9733ce9db2c0796b4fdea0c41114f62af449d088ac00000000", "vin": [{"sequence": 4294967295, "scriptSig": {"hex": "483045022100d2c926de951b4cc3bd548b01102ef737eaf6fa1a7eb3288461396f326d589cb1022038ddc4dd89ebe3a518baada69d25a439c08601e6884c50bc3da33b18dde330f2012102c4f1eb970c07318bd1f28386fefa06e28d50b29417ae37641a0095b31f56ad19", "asm": "3045022100d2c926de951b4cc3bd548b01102ef737eaf6fa1a7eb3288461396f326d589cb1022038ddc4dd89ebe3a518baada69d25a439c08601e6884c50bc3da33b18dde330f2[ALL] 02c4f1eb970c07318bd1f28386fefa06e28d50b29417ae37641a0095b31f56ad19"}, "vout": 1, "txid": "69d38ee3c8985b28d43fa40f827af1df3e0f0d71382752f9af241468041c46da"}], "txid": "bdd7db7b2f7eaeffe1c09a7199950f39411cef77937d351282c26a66541114c5", "blocktime": 1537875543, "version": 1, "confirmations": 11464, "time": 1537875543, "locktime": 0, "vsize": 226, "size": 226}