{"hash": "e37827b6597947c6769db85dd04ac3a52b6397f550517363d53f06d494d49ee2", "blockhash": "00000000000000000017f5eb5941039fbcee6240d03bc1f2f8e35350df66a1d8", "vout": [{"scriptPubKey": {"reqSigs": 1, "hex": "76a91408999efba9ce867d60be9ff274fefdbe501e65ca88ac", "addresses": ["1nUSK2QeapQcF9XDaqHs2aZyHCnosUeJp"], "asm": "OP_DUP OP_HASH160 08999efba9ce867d60be9ff274fefdbe501e65ca OP_EQUALVERIFY OP_CHECKSIG", "type": "pubkeyhash"}, "value": 0.0058968, "n": 0}], "hex": "01000000000102475f6aa4acfe78525ab88fd028a045e5b110d765b2f6461baa6116f789c006fd00000000232200202e3ced76dcd0e9a23ac1a8e4818ad201b62b6f7ab836115698165f8ddc4c8a58ffffffffcfc5adfd955463a3037e9607e3a7eac4250f3def3a66be0b8dbbe1c404df35bd01000000232200202e3ced76dcd0e9a23ac1a8e4818ad201b62b6f7ab836115698165f8ddc4c8a58ffffffff0170ff0800000000001976a91408999efba9ce867d60be9ff274fefdbe501e65ca88ac0400483045022100c97cae80b9c9f3edf63a977bfc5f26c167b309b201a6b5bd0085c99a1651724d02201705124aedcac6ab44398d026152425576ff462174475eb3df70f23fd9a45e6901473044022066ecfa3b5f734872c9a80b002571f21ce543206ffc180fba1e092649e7d73d4502204d93c0121003e1a0c07289bbeba3221f985ddc07af8045d5177e74bdc3f517090147522102c22fc2cecf69975421527709c8490f5e4662f8bd2e9f71e84ba4b2bb8b32912a2102d8cbd56fe56ed46b7d86e915d643e8519cf5f3c693f8be00c1dd5ac66394422e52ae0400483045022100ea8a3b774fe1400175018c586d7fa902c0978d2f336d5509e1a5576bde1a7fcc02204bdf187f0d0ac691c5e492b25237ad5b6c4cefbc3170275942f0ef64428523950147304402204e46ec3a5bebe31f535e6d179ce134fe1eecf92aea7316bf80cce121996188e702203e8bc34af2b658f2e792b029115933ce7afe9708102ce16cde0913bed209a38a0147522102c22fc2cecf69975421527709c8490f5e4662f8bd2e9f71e84ba4b2bb8b32912a2102d8cbd56fe56ed46b7d86e915d643e8519cf5f3c693f8be00c1dd5ac66394422e52ae00000000", "vin": [{"txinwitness": ["", "3045022100c97cae80b9c9f3edf63a977bfc5f26c167b309b201a6b5bd0085c99a1651724d02201705124aedcac6ab44398d026152425576ff462174475eb3df70f23fd9a45e6901", "3044022066ecfa3b5f734872c9a80b002571f21ce543206ffc180fba1e092649e7d73d4502204d93c0121003e1a0c07289bbeba3221f985ddc07af8045d5177e74bdc3f5170901", "522102c22fc2cecf69975421527709c8490f5e4662f8bd2e9f71e84ba4b2bb8b32912a2102d8cbd56fe56ed46b7d86e915d643e8519cf5f3c693f8be00c1dd5ac66394422e52ae"], "sequence": 4294967295, "scriptSig": {"hex": "2200202e3ced76dcd0e9a23ac1a8e4818ad201b62b6f7ab836115698165f8ddc4c8a58", "asm": "00202e3ced76dcd0e9a23ac1a8e4818ad201b62b6f7ab836115698165f8ddc4c8a58"}, "vout": 0, "txid": "fd06c089f71661aa1b46f6b265d710b1e545a028d08fb85a5278feaca46a5f47"}, {"txinwitness": ["", "3045022100ea8a3b774fe1400175018c586d7fa902c0978d2f336d5509e1a5576bde1a7fcc02204bdf187f0d0ac691c5e492b25237ad5b6c4cefbc3170275942f0ef644285239501", "304402204e46ec3a5bebe31f535e6d179ce134fe1eecf92aea7316bf80cce121996188e702203e8bc34af2b658f2e792b029115933ce7afe9708102ce16cde0913bed209a38a01", "522102c22fc2cecf69975421527709c8490f5e4662f8bd2e9f71e84ba4b2bb8b32912a2102d8cbd56fe56ed46b7d86e915d643e8519cf5f3c693f8be00c1dd5ac66394422e52ae"], "sequence": 4294967295, "scriptSig": {"hex": "2200202e3ced76dcd0e9a23ac1a8e4818ad201b62b6f7ab836115698165f8ddc4c8a58", "asm": "00202e3ced76dcd0e9a23ac1a8e4818ad201b62b6f7ab836115698165f8ddc4c8a58"}, "vout": 1, "txid": "bd35df04c4e1bb8d0bbe663aef3d0f25c4eaa7e307967e03a3635495fdadc5cf"}], "txid": "bdd83a70b14831cf9a7ba8de53dc8828eae15d3b5152dca4277109209e322cbc", "blocktime": 1537874412, "version": 1, "confirmations": 11467, "time": 1537874412, "locktime": 0, "vsize": 306, "size": 636}