{"hash": "6652c8a626c12c4227d33a89abd731ba53cb2d4c4768b7aa802971ac31c1ea6a", "blockhash": "0000000000000000000baef3f32e3676a92c3b2e5da21b426e4f302fc371ce76", "vout": [{"scriptPubKey": {"reqSigs": 1, "hex": "76a9142e1b944fe7ffbe969fc1df8d662fd7b5d6303c9b88ac", "addresses": ["15Co856cRnFRCKwSSzECoyT3ozVhuFoJZ6"], "asm": "OP_DUP OP_HASH160 2e1b944fe7ffbe969fc1df8d662fd7b5d6303c9b OP_EQUALVERIFY OP_CHECKSIG", "type": "pubkeyhash"}, "value": 0.0028666, "n": 0}, {"scriptPubKey": {"reqSigs": 1, "hex": "a9140048d0fe2f7dcc6fdfb1830fde6a7f2ee64a2c5787", "addresses": ["31iX9uzQXddJEzgpegQQikAhAz9kpds6sH"], "asm": "OP_HASH160 0048d0fe2f7dcc6fdfb1830fde6a7f2ee64a2c57 OP_EQUAL", "type": "scripthash"}, "value": 0.00998994, "n": 1}], "hex": "0200000000010290d68a7950f46417fb8f808407e17a68418dabbe692874ad33a3c0fd41094b8601000000171600142b5784ff46fdd6a4a996f2af315fb1d6af77cb02feffffffe988741169f667be5a0a495aa6d89f71f8f7a88d43194d9c68fdd4d3fe6ee73800000000171600147943a4920f2d9edf637433c963b1324fc23b2979feffffff02c45f0400000000001976a9142e1b944fe7ffbe969fc1df8d662fd7b5d6303c9b88ac523e0f000000000017a9140048d0fe2f7dcc6fdfb1830fde6a7f2ee64a2c578702483045022100fda74717c50c764f8c91af052fec4371bcc73ed157fda68d116b9a2502de807302202e40386de5fda61abbd2247f389048061fce8a27f853a10b8185806c1918da850121039b1d3a2b1ad87db3bfbbb8b8175b926d0b5017d59aa0156675821df221149c4b0247304402206169b83ecef73a6ed790ca68ad27e554194892576a8dc5dd5739904439d81e1302205fcc14154cbab931ae1420f6f9e2eeaedbcfdac6bb8b8d687cbfeabd774f13740121026b8b54b2085c45416e7412926728a7219a94fcae3ddcb2c4854fea8448a27ef217490800", "vin": [{"txinwitness": ["3045022100fda74717c50c764f8c91af052fec4371bcc73ed157fda68d116b9a2502de807302202e40386de5fda61abbd2247f389048061fce8a27f853a10b8185806c1918da8501", "039b1d3a2b1ad87db3bfbbb8b8175b926d0b5017d59aa0156675821df221149c4b"], "sequence": 4294967294, "scriptSig": {"hex": "1600142b5784ff46fdd6a4a996f2af315fb1d6af77cb02", "asm": "00142b5784ff46fdd6a4a996f2af315fb1d6af77cb02"}, "vout": 1, "txid": "864b0941fdc0a333ad742869beab8d41687ae10784808ffb1764f450798ad690"}, {"txinwitness": ["304402206169b83ecef73a6ed790ca68ad27e554194892576a8dc5dd5739904439d81e1302205fcc14154cbab931ae1420f6f9e2eeaedbcfdac6bb8b8d687cbfeabd774f137401", "026b8b54b2085c45416e7412926728a7219a94fcae3ddcb2c4854fea8448a27ef2"], "sequence": 4294967294, "scriptSig": {"hex": "1600147943a4920f2d9edf637433c963b1324fc23b2979", "asm": "00147943a4920f2d9edf637433c963b1324fc23b2979"}, "vout": 0, "txid": "38e76efed3d4fd689c4d19438da8f7f8719fd8a65a490a5abe67f669117488e9"}], "txid": "bdddc4d1868941212f3d0acecf8d0723c4bb162ee2996f5906b933644ce92b4d", "blocktime": 1537876114, "version": 2, "confirmations": 11462, "time": 1537876114, "locktime": 542999, "vsize": 259, "size": 421}