{"hash": "e7f076a6da86d39037d69f35ebdc836a855f7c29ed8c16e5c13da638be8bd127", "blockhash": "0000000000000000001cda96e906b7601b7a6fb1a3b62bca570a9e5d8f4b3de1", "vout": [{"scriptPubKey": {"reqSigs": 1, "hex": "76a91492f057fe01f069eff9c8bf517be6c770e9bb6e0088ac", "addresses": ["1EPwaP8qH61Mr2QHKqrn9swBKsYm6rL52c"], "asm": "OP_DUP OP_HASH160 92f057fe01f069eff9c8bf517be6c770e9bb6e00 OP_EQUALVERIFY OP_CHECKSIG", "type": "pubkeyhash"}, "value": 0.00055362, "n": 0}, {"scriptPubKey": {"reqSigs": 1, "hex": "a9149d928ea13bd5a29ab5546bf81623b6149dde437587", "addresses": ["3G4BadWVaoMvV9vg3ch2RxEomCjvN3wiVs"], "asm": "OP_HASH160 9d928ea13bd5a29ab5546bf81623b6149dde4375 OP_EQUAL", "type": "scripthash"}, "value": 0.01031082, "n": 1}], "hex": "02000000000101151358791ba75e1d26adca1a627c70485b93144a10dfe06bbd198c299cc0405b0100000017160014777d82164463798fda285775d50f8e634075d955fdffffff0242d80000000000001976a91492f057fe01f069eff9c8bf517be6c770e9bb6e0088acaabb0f000000000017a9149d928ea13bd5a29ab5546bf81623b6149dde4375870247304402206f57a79fd9d38f85216af99170d393ea82ef244433a6a255c5cd0b1c3f38a80802204abe23347dc86290e5f65acbf15d22b3eb64a57a438d1c9eb2971682e3195a8f012102eb2db1b9cce3fc948c3c70ef6b233cfb3f143bc0da01da5a8df22a4846fc01eb13490800", "vin": [{"txinwitness": ["304402206f57a79fd9d38f85216af99170d393ea82ef244433a6a255c5cd0b1c3f38a80802204abe23347dc86290e5f65acbf15d22b3eb64a57a438d1c9eb2971682e3195a8f01", "02eb2db1b9cce3fc948c3c70ef6b233cfb3f143bc0da01da5a8df22a4846fc01eb"], "sequence": 4294967293, "scriptSig": {"hex": "160014777d82164463798fda285775d50f8e634075d955", "asm": "0014777d82164463798fda285775d50f8e634075d955"}, "vout": 1, "txid": "5b40c09c298c19bd6be0df104a14935b48707c621acaad261d5ea71b79581315"}], "txid": "bddf320e97b0d2483064dfe31f8ebc661689d92383eb9b58241d5c021a37c83e", "blocktime": 1537873282, "version": 2, "confirmations": 11485, "time": 1537873282, "locktime": 542995, "vsize": 168, "size": 249}