{"hash": "bde45aa392aad08a56868bf9947da68471a6493df878e68a93d1054a29d79c79", "blockhash": "000000000000000000022b45ed06c6f4ccd3cf7fb5ba4856ebd2e58215665228", "vout": [{"scriptPubKey": {"reqSigs": 1, "hex": "76a9149325cb91d2cdf4bf65400c6d71db75aa33bd089288ac", "addresses": ["1ER3cFoRCABrTfhkaUXD9DdQNriUbechni"], "asm": "OP_DUP OP_HASH160 9325cb91d2cdf4bf65400c6d71db75aa33bd0892 OP_EQUALVERIFY OP_CHECKSIG", "type": "pubkeyhash"}, "value": 0.00649106, "n": 0}, {"scriptPubKey": {"type": "nulldata", "hex": "6a4c5000007766000164a4edbeb4bc70a9238af0a086aeaeacb577c031fc3a016b46dc7dc7d096cd221468efcb3c4bbb0087076dd5c5575baa08190612ee9c036319661d100759d4ba30d2c37bb011d97e02cf", "asm": "OP_RETURN 00007766000164a4edbeb4bc70a9238af0a086aeaeacb577c031fc3a016b46dc7dc7d096cd221468efcb3c4bbb0087076dd5c5575baa08190612ee9c036319661d100759d4ba30d2c37bb011d97e02cf"}, "value": 0.0, "n": 1}], "hex": "0100000001bc85339d8a676749f97020365abadbc0e8aff6247b9f228af9ca2997e2720f94000000006b483045022100c79bbe46fa29c19600aa3e0a2e267ea94acd1e7f4903b6ced2a6ec212f141b3702201421a0c62c4cf6edc0ae2b0fac9fc3101d21dbf48d3e9595d6eaddde7cfad30f012103a1fda5578a3654260a8395cea3557d64f7f8d35dce3466ef3d9bcf25ee72688dffffffff0292e70900000000001976a9149325cb91d2cdf4bf65400c6d71db75aa33bd089288ac0000000000000000536a4c5000007766000164a4edbeb4bc70a9238af0a086aeaeacb577c031fc3a016b46dc7dc7d096cd221468efcb3c4bbb0087076dd5c5575baa08190612ee9c036319661d100759d4ba30d2c37bb011d97e02cf00000000", "vin": [{"sequence": 4294967295, "scriptSig": {"hex": "483045022100c79bbe46fa29c19600aa3e0a2e267ea94acd1e7f4903b6ced2a6ec212f141b3702201421a0c62c4cf6edc0ae2b0fac9fc3101d21dbf48d3e9595d6eaddde7cfad30f012103a1fda5578a3654260a8395cea3557d64f7f8d35dce3466ef3d9bcf25ee72688d", "asm": "3045022100c79bbe46fa29c19600aa3e0a2e267ea94acd1e7f4903b6ced2a6ec212f141b3702201421a0c62c4cf6edc0ae2b0fac9fc3101d21dbf48d3e9595d6eaddde7cfad30f[ALL] 03a1fda5578a3654260a8395cea3557d64f7f8d35dce3466ef3d9bcf25ee72688d"}, "vout": 0, "txid": "940f72e29729caf98a229f7b24f6afe8c0dbba5a362070f94967678a9d3385bc"}], "txid": "bde45aa392aad08a56868bf9947da68471a6493df878e68a93d1054a29d79c79", "blocktime": 1537869901, "version": 1, "confirmations": 11523, "time": 1537869901, "locktime": 0, "vsize": 284, "size": 284}