{"hash": "9f788272a6f54848d2b8264ee98ff5ae69ed471f6f579b8f5804d9323a759681", "blockhash": "0000000000000000000baef3f32e3676a92c3b2e5da21b426e4f302fc371ce76", "vout": [{"scriptPubKey": {"reqSigs": 1, "hex": "a914bc8cd795fc2c04225e9a9eb3a484af3ed31aa14687", "addresses": ["3JsygVRFr4LrdWkh2ny7WQf8KJrHM3tbXt"], "asm": "OP_HASH160 bc8cd795fc2c04225e9a9eb3a484af3ed31aa146 OP_EQUAL", "type": "scripthash"}, "value": 1.0, "n": 0}, {"scriptPubKey": {"reqSigs": 1, "hex": "a914e5d7055a4e88a73b4ff7b171176c386ef214724f87", "addresses": ["3NeJFPSARaL17yUsVQ2G8MKcNYSBfTAksp"], "asm": "OP_HASH160 e5d7055a4e88a73b4ff7b171176c386ef214724f OP_EQUAL", "type": "scripthash"}, "value": 4.392345, "n": 1}], "hex": "01000000000101b579de9c4f35cad5ede0ba0862a3b71cf0535251e8d12114acddab6f1f508fc2000000001716001457b54f0d45c82c49c0acfa377ce1e1248ad845c7ffffffff0200e1f5050000000017a914bc8cd795fc2c04225e9a9eb3a484af3ed31aa14687c42f2e1a0000000017a914e5d7055a4e88a73b4ff7b171176c386ef214724f8702483045022100df68327dbb2672ad7ea8141cea83bdd0d164e683a5dc6a4532a303b5fef16187022048a400e32cce313230213a8845ab8d9d7cbd1fb91fdc54e3ce4db11b4728345f01210262eea4ce23b24f06716fb187106cb465d1fecca7358ff24e198fc02e0c11f90600000000", "vin": [{"txinwitness": ["3045022100df68327dbb2672ad7ea8141cea83bdd0d164e683a5dc6a4532a303b5fef16187022048a400e32cce313230213a8845ab8d9d7cbd1fb91fdc54e3ce4db11b4728345f01", "0262eea4ce23b24f06716fb187106cb465d1fecca7358ff24e198fc02e0c11f906"], "sequence": 4294967295, "scriptSig": {"hex": "16001457b54f0d45c82c49c0acfa377ce1e1248ad845c7", "asm": "001457b54f0d45c82c49c0acfa377ce1e1248ad845c7"}, "vout": 0, "txid": "c28f501f6fabddac1421d1e8515253f01cb7a36208bae0edd5ca354f9cde79b5"}], "txid": "bde9a325b1eda43de5874b80e65d0e65a6578ab07d787877de330fc04646887b", "blocktime": 1537876114, "version": 1, "confirmations": 11460, "time": 1537876114, "locktime": 0, "vsize": 166, "size": 248}