{"hash": "bdea05ab1a322ea0a25eb358db950b79a633f399f5a923f4a38540554e0dc7a9", "blockhash": "0000000000000000001f76057863aec43deb6fa401d9628bb513d65a8098bfab", "vout": [{"scriptPubKey": {"reqSigs": 1, "hex": "76a9145b373515df8617f45456dbbf83a347d094a04d3c88ac", "addresses": ["19KJdLEHiTwkVDxfWep5psPge1JhxMkqED"], "asm": "OP_DUP OP_HASH160 5b373515df8617f45456dbbf83a347d094a04d3c OP_EQUALVERIFY OP_CHECKSIG", "type": "pubkeyhash"}, "value": 0.0046836, "n": 0}, {"scriptPubKey": {"reqSigs": 1, "hex": "76a914054a6f52f191413507d7c6f65917a74f6c83bc3988ac", "addresses": ["1UyYnTsPuj2avSNCucLqjPrdN6rSCvr1P"], "asm": "OP_DUP OP_HASH160 054a6f52f191413507d7c6f65917a74f6c83bc39 OP_EQUALVERIFY OP_CHECKSIG", "type": "pubkeyhash"}, "value": 0.05670962, "n": 1}], "hex": "0100000001c88a1baca980dfa7de188169ea30c07d8a2dd21663d56cf296af51ee08e9c35b000000006a47304402206669c98e6553a98e06e310de1c8248c1445a7f2e0ead8597dbc2c4ebba31ceb70220789c47b27922248a6649ccce5ca12b7bf7ee75fd7d0b31cbbc2bda949e14557b0121023631365f20c2ad04c47118e2d9410ede77d05d32493aa3046cd0de0d905e5bd2ffffffff0288250700000000001976a9145b373515df8617f45456dbbf83a347d094a04d3c88ac32885600000000001976a914054a6f52f191413507d7c6f65917a74f6c83bc3988ac00000000", "vin": [{"sequence": 4294967295, "scriptSig": {"hex": "47304402206669c98e6553a98e06e310de1c8248c1445a7f2e0ead8597dbc2c4ebba31ceb70220789c47b27922248a6649ccce5ca12b7bf7ee75fd7d0b31cbbc2bda949e14557b0121023631365f20c2ad04c47118e2d9410ede77d05d32493aa3046cd0de0d905e5bd2", "asm": "304402206669c98e6553a98e06e310de1c8248c1445a7f2e0ead8597dbc2c4ebba31ceb70220789c47b27922248a6649ccce5ca12b7bf7ee75fd7d0b31cbbc2bda949e14557b[ALL] 023631365f20c2ad04c47118e2d9410ede77d05d32493aa3046cd0de0d905e5bd2"}, "vout": 0, "txid": "5bc3e908ee51af96f26cd56316d22d8a7dc030ea698118dea7df80a9ac1b8ac8"}], "txid": "bdea05ab1a322ea0a25eb358db950b79a633f399f5a923f4a38540554e0dc7a9", "blocktime": 1537873891, "version": 1, "confirmations": 11478, "time": 1537873891, "locktime": 0, "vsize": 225, "size": 225}