{"hash": "bcd6c6366c4f7f78bce4b6fe7caea0a5120245da428ef01fd8bc29029476ac57", "blockhash": "0000000000000000001cda96e906b7601b7a6fb1a3b62bca570a9e5d8f4b3de1", "vout": [{"scriptPubKey": {"reqSigs": 1, "hex": "00142171cb45f21402c6e0f36e333ac88a5dc18cb6c9", "addresses": ["bc1qy9cuk30jzspvdc8ndcen4jy2thqcedkf7ed2xj"], "asm": "0 2171cb45f21402c6e0f36e333ac88a5dc18cb6c9", "type": "witness_v0_keyhash"}, "value": 0.00038744, "n": 0}, {"scriptPubKey": {"reqSigs": 1, "hex": "76a9146bcd7024008bddda1eab049c2ae42a5cc4ac018088ac", "addresses": ["1Aq1QcUyjUapKQEUR6FuMMAhMBapkh9cQf"], "asm": "OP_DUP OP_HASH160 6bcd7024008bddda1eab049c2ae42a5cc4ac0180 OP_EQUALVERIFY OP_CHECKSIG", "type": "pubkeyhash"}, "value": 0.02099507, "n": 1}], "hex": "01000000000101470730eb1d1560c07113a2b35e6a99f4c27c1d08b6606800ea3357b1b376bd970500000017160014b70bfab90825ca21a8cf036d8d707736270941d7ffffffff0258970000000000001600142171cb45f21402c6e0f36e333ac88a5dc18cb6c933092000000000001976a9146bcd7024008bddda1eab049c2ae42a5cc4ac018088ac024830450221008c9863d08500fe84ea5ed8fdaabedf890c7b5c70590d62a481fdcf98a1b24d1d022076b29393bdf601951e7a89aa2db40df1d6f12f31073c357c060dbfcd1917e076012103890698d531261698c2eacfe5989995a9d91e613799d706ff7ba20830d596257600000000", "vin": [{"txinwitness": ["30450221008c9863d08500fe84ea5ed8fdaabedf890c7b5c70590d62a481fdcf98a1b24d1d022076b29393bdf601951e7a89aa2db40df1d6f12f31073c357c060dbfcd1917e07601", "03890698d531261698c2eacfe5989995a9d91e613799d706ff7ba20830d5962576"], "sequence": 4294967295, "scriptSig": {"hex": "160014b70bfab90825ca21a8cf036d8d707736270941d7", "asm": "0014b70bfab90825ca21a8cf036d8d707736270941d7"}, "vout": 5, "txid": "97bd76b3b15733ea006860b6081d7cc2f4996a5eb3a21371c060151deb300747"}], "txid": "bdecd361dfa7113e953e12c10b0d2fabbcc33f63bb896213fb4b6971cd54f39a", "blocktime": 1537873282, "version": 1, "confirmations": 11484, "time": 1537873282, "locktime": 0, "vsize": 167, "size": 249}