{"hash": "bdf6d7a80c9974f8197ae2b165b275dab87f35a46c86e7ea6c8db6d5f97d5c6e", "blockhash": "0000000000000000001cda96e906b7601b7a6fb1a3b62bca570a9e5d8f4b3de1", "vout": [{"scriptPubKey": {"type": "nulldata", "hex": "6a4c50000077c500011ac8685b23cc0f42c2fc38c5e5bf9ae76da98a211aaf6c953dd567cf27e7dd8adcd0cd4bfb78da54f1f70f6253cd5baa134c06136d4758d12efc1d100759d4ba30d2c37bb011d97e02cf", "asm": "OP_RETURN 000077c500011ac8685b23cc0f42c2fc38c5e5bf9ae76da98a211aaf6c953dd567cf27e7dd8adcd0cd4bfb78da54f1f70f6253cd5baa134c06136d4758d12efc1d100759d4ba30d2c37bb011d97e02cf"}, "value": 0.0, "n": 0}, {"scriptPubKey": {"reqSigs": 1, "hex": "76a914b28258a2dfb11bc15c9d22d6e52c6a87d91f8c6b88ac", "addresses": ["1HGsRm93rwUVWKZM8ncvFirp5fkJyoWRt8"], "asm": "OP_DUP OP_HASH160 b28258a2dfb11bc15c9d22d6e52c6a87d91f8c6b OP_EQUALVERIFY OP_CHECKSIG", "type": "pubkeyhash"}, "value": 0.00638794, "n": 1}], "hex": "0100000001a6deef8b17afe2ba2c8294f03cde43ee3ef202ec6a9f1848743f0a07ffaf813b000000006a47304402207e2eb47c543eb871308ea0b37a6db4cfbafa905a57747c9d11b57ecd103baa92022028dfa3e5b272c8de31d8d154e1ec6f0b2542069786a8bafcdc1c46d9a05dfeb701210308adf2ff9a664fcc276d1bc534de5fd0ed7afbf85a51bc7aa38d0c38aa1c28e8ffffffff020000000000000000536a4c50000077c500011ac8685b23cc0f42c2fc38c5e5bf9ae76da98a211aaf6c953dd567cf27e7dd8adcd0cd4bfb78da54f1f70f6253cd5baa134c06136d4758d12efc1d100759d4ba30d2c37bb011d97e02cf4abf0900000000001976a914b28258a2dfb11bc15c9d22d6e52c6a87d91f8c6b88ac00000000", "vin": [{"sequence": 4294967295, "scriptSig": {"hex": "47304402207e2eb47c543eb871308ea0b37a6db4cfbafa905a57747c9d11b57ecd103baa92022028dfa3e5b272c8de31d8d154e1ec6f0b2542069786a8bafcdc1c46d9a05dfeb701210308adf2ff9a664fcc276d1bc534de5fd0ed7afbf85a51bc7aa38d0c38aa1c28e8", "asm": "304402207e2eb47c543eb871308ea0b37a6db4cfbafa905a57747c9d11b57ecd103baa92022028dfa3e5b272c8de31d8d154e1ec6f0b2542069786a8bafcdc1c46d9a05dfeb7[ALL] 0308adf2ff9a664fcc276d1bc534de5fd0ed7afbf85a51bc7aa38d0c38aa1c28e8"}, "vout": 0, "txid": "3b81afff070a3f7448189f6aec02f23eee43de3cf094822cbae2af178befdea6"}], "txid": "bdf6d7a80c9974f8197ae2b165b275dab87f35a46c86e7ea6c8db6d5f97d5c6e", "blocktime": 1537873282, "version": 1, "confirmations": 11484, "time": 1537873282, "locktime": 0, "vsize": 283, "size": 283}