{"hash": "bdf7ee3cc5ab489e8ff226f7bbd7b76422d49cee38d9575dca8ec7aef17af098", "blockhash": "0000000000000000001e0dab787dd257d1dbfcb92a98c2207d5e1078be1f4165", "vout": [{"scriptPubKey": {"type": "nulldata", "hex": "6a4c50000077b80001d8782b4521fa6c105ee2d4e1e5bf9ae76da98a211aaf6c953dd567cf27e7687699f44b3929a18b4d3e54c8cd77e05baa11ea061244bbaf03be301d100759d4ba30d2c37bb011d97e02cf", "asm": "OP_RETURN 000077b80001d8782b4521fa6c105ee2d4e1e5bf9ae76da98a211aaf6c953dd567cf27e7687699f44b3929a18b4d3e54c8cd77e05baa11ea061244bbaf03be301d100759d4ba30d2c37bb011d97e02cf"}, "value": 0.0, "n": 0}, {"scriptPubKey": {"reqSigs": 1, "hex": "76a91400c54d2ae0dbdd5949bd4bca8afc0216a6bd80de88ac", "addresses": ["1155MkA45cZHLNZYypWf1vywgRaoH71dNS"], "asm": "OP_DUP OP_HASH160 00c54d2ae0dbdd5949bd4bca8afc0216a6bd80de OP_EQUALVERIFY OP_CHECKSIG", "type": "pubkeyhash"}, "value": 0.00641999, "n": 1}], "hex": "01000000012683054259c41138d5e0bbfa8781374d01c693f6146922acf64572083f171f15000000006a47304402203527967a8510f34024dcd8d3bd7c09773ac58b55c3e369f9080a47f3e3ba627402205b26c62bc098592539f25211f446462fd4bf539a87ccdf51c7b0509051b23220012103c9579e8d2c8c749405d9a6c24131da89504b52913e1e1640cf4b2438d74d30a7ffffffff020000000000000000536a4c50000077b80001d8782b4521fa6c105ee2d4e1e5bf9ae76da98a211aaf6c953dd567cf27e7687699f44b3929a18b4d3e54c8cd77e05baa11ea061244bbaf03be301d100759d4ba30d2c37bb011d97e02cfcfcb0900000000001976a91400c54d2ae0dbdd5949bd4bca8afc0216a6bd80de88ac00000000", "vin": [{"sequence": 4294967295, "scriptSig": {"hex": "47304402203527967a8510f34024dcd8d3bd7c09773ac58b55c3e369f9080a47f3e3ba627402205b26c62bc098592539f25211f446462fd4bf539a87ccdf51c7b0509051b23220012103c9579e8d2c8c749405d9a6c24131da89504b52913e1e1640cf4b2438d74d30a7", "asm": "304402203527967a8510f34024dcd8d3bd7c09773ac58b55c3e369f9080a47f3e3ba627402205b26c62bc098592539f25211f446462fd4bf539a87ccdf51c7b0509051b23220[ALL] 03c9579e8d2c8c749405d9a6c24131da89504b52913e1e1640cf4b2438d74d30a7"}, "vout": 0, "txid": "151f173f087245f6ac226914f693c6014d378187fabbe0d53811c45942058326"}], "txid": "bdf7ee3cc5ab489e8ff226f7bbd7b76422d49cee38d9575dca8ec7aef17af098", "blocktime": 1537872475, "version": 1, "confirmations": 11486, "time": 1537872475, "locktime": 0, "vsize": 283, "size": 283}