{"hash": "0ee8214e7ee43302ef36c0feac425e86072a6192a791c5cbe9bcf6b9b43fb57f", "blockhash": "0000000000000000000e13cef7c366c0283d82e591d1acd082e914b08063cdf1", "vout": [{"scriptPubKey": {"reqSigs": 1, "hex": "a914b91961fa0cdd79d8d49ad3f5b87a4a0329b558a387", "addresses": ["3JZjLew1smQMrz81rvS9yuReHqUz8FBC16"], "asm": "OP_HASH160 b91961fa0cdd79d8d49ad3f5b87a4a0329b558a3 OP_EQUAL", "type": "scripthash"}, "value": 0.01683408, "n": 0}, {"scriptPubKey": {"reqSigs": 1, "hex": "00143064cd056d37febc3cf98f57e2d16b398687f443", "addresses": ["bc1qxpjv6ptdxlltc08e3at795tt8xrg0azrfrht9l"], "asm": "0 3064cd056d37febc3cf98f57e2d16b398687f443", "type": "witness_v0_keyhash"}, "value": 2.21965836, "n": 1}], "hex": "01000000000101b5770586654b5a0951e389b3fc6edc8f85b57361a0f9711d4b3645ca9ccce4050000000000ffffffff02d0af19000000000017a914b91961fa0cdd79d8d49ad3f5b87a4a0329b558a3870cee3a0d000000001600143064cd056d37febc3cf98f57e2d16b398687f4430247304402200dc92c96fb862342b1d7fea5b43c57e070adf0ee585613dda263528a7352bb8d02202c8267d88fbc4d816f0bf6d583baf7f7be19ea1d166d04260d338bf12429e84201210242c886497dfa5f49a5bef05efbdf0c21df4ff9540b9e168fdb2e70f0c792f0e100000000", "vin": [{"txinwitness": ["304402200dc92c96fb862342b1d7fea5b43c57e070adf0ee585613dda263528a7352bb8d02202c8267d88fbc4d816f0bf6d583baf7f7be19ea1d166d04260d338bf12429e84201", "0242c886497dfa5f49a5bef05efbdf0c21df4ff9540b9e168fdb2e70f0c792f0e1"], "sequence": 4294967295, "scriptSig": {"hex": "", "asm": ""}, "vout": 0, "txid": "05e4cc9cca45364b1d71f9a06173b5858fdc6efcb389e351095a4b65860577b5"}], "txid": "be0bbdd1e9d08742c7369841b6ce2d686b7d78561960db5d29804e614c3ea9d8", "blocktime": 1537871767, "version": 1, "confirmations": 11495, "time": 1537871767, "locktime": 0, "vsize": 142, "size": 223}