{"hash": "be0f02ed8616a8186f6a30ed288a126ad26944e42bd66ec2da5355aee815b04e", "blockhash": "0000000000000000000dcc0f55137456b1a82d3642486a52398922ac4d620174", "vout": [{"scriptPubKey": {"reqSigs": 1, "hex": "76a9147cc28b3c295472c012a1154f9b8ffec2024998b288ac", "addresses": ["1CNfqw8GQJWu2QnDy7yzV3yfGUgtUheMhd"], "asm": "OP_DUP OP_HASH160 7cc28b3c295472c012a1154f9b8ffec2024998b2 OP_EQUALVERIFY OP_CHECKSIG", "type": "pubkeyhash"}, "value": 0.022, "n": 0}, {"scriptPubKey": {"reqSigs": 1, "hex": "76a9146643c72d9e3c1af910260280718956c18755e80e88ac", "addresses": ["1AKj7sKAixfUR8MTiPdGSfVqg9mFcjUXYm"], "asm": "OP_DUP OP_HASH160 6643c72d9e3c1af910260280718956c18755e80e OP_EQUALVERIFY OP_CHECKSIG", "type": "pubkeyhash"}, "value": 1.55321503, "n": 1}], "hex": "0100000001a70ad9dd795a98f6ed853f87b09d9517f10b82b752edc0d44e1e817d6bca4ec9010000006a47304402203b1e2b6474c4379937cf950c5c183b9aacb31cf86efc7ad2e1ce3cd75e290e4c0220618f9afa65f35f31f44aeda3041914b4e9661dc06778368b05c07060b4b33c7c01210393131c7190e32cb424042bceb9792006b1ce3a60ae0d3532093ce1e4537b105bffffffff02c0912100000000001976a9147cc28b3c295472c012a1154f9b8ffec2024998b288ac9f044209000000001976a9146643c72d9e3c1af910260280718956c18755e80e88ac00000000", "vin": [{"sequence": 4294967295, "scriptSig": {"hex": "47304402203b1e2b6474c4379937cf950c5c183b9aacb31cf86efc7ad2e1ce3cd75e290e4c0220618f9afa65f35f31f44aeda3041914b4e9661dc06778368b05c07060b4b33c7c01210393131c7190e32cb424042bceb9792006b1ce3a60ae0d3532093ce1e4537b105b", "asm": "304402203b1e2b6474c4379937cf950c5c183b9aacb31cf86efc7ad2e1ce3cd75e290e4c0220618f9afa65f35f31f44aeda3041914b4e9661dc06778368b05c07060b4b33c7c[ALL] 0393131c7190e32cb424042bceb9792006b1ce3a60ae0d3532093ce1e4537b105b"}, "vout": 1, "txid": "c94eca6b7d811e4ed4c0ed52b7820bf117959db0873f85edf6985a79ddd90aa7"}], "txid": "be0f02ed8616a8186f6a30ed288a126ad26944e42bd66ec2da5355aee815b04e", "blocktime": 1537870268, "version": 1, "confirmations": 11518, "time": 1537870268, "locktime": 0, "vsize": 225, "size": 225}