{"hash": "94868c46acbb8a64993056fa3162542f61828e8ae4cf6fdb255d99252cd2020d", "blockhash": "0000000000000000001e0dab787dd257d1dbfcb92a98c2207d5e1078be1f4165", "vout": [{"scriptPubKey": {"reqSigs": 1, "hex": "001489194bbda0b172219a9baafd28dcc2b31d3d4c71", "addresses": ["bc1q3yv5h0dqk9ezrx5m4t7j3hxzkvwn6nr3ks3aw8"], "asm": "0 89194bbda0b172219a9baafd28dcc2b31d3d4c71", "type": "witness_v0_keyhash"}, "value": 1.589e-05, "n": 0}, {"scriptPubKey": {"reqSigs": 1, "hex": "a914cd95e1f6d814ecd8231c725e438c4b460aaa7a8787", "addresses": ["3LS3zu8jDSCo1YxYYR6r2R5LdpDuNsFFaA"], "asm": "OP_HASH160 cd95e1f6d814ecd8231c725e438c4b460aaa7a87 OP_EQUAL", "type": "scripthash"}, "value": 0.00188216, "n": 1}], "hex": "01000000000101efea67846c5b40b4ee98c5c4c4f1955632828a20486d8b63df71b2d020ee72110100000000ffffffff02350600000000000016001489194bbda0b172219a9baafd28dcc2b31d3d4c7138df02000000000017a914cd95e1f6d814ecd8231c725e438c4b460aaa7a87870247304402203acb1e6305e2fd9a0dcf358977a13761e799675cbd4eccd61da0361f4f38ac5202201ff8c7eaacca9445d3735b9b4e14344b06fec8f41d64bf7bbf35896e65deebae012102df30069a40b78b5a6dfc3c763dfeb554535007e90a8eaf1dfebf2eb712c11d2600000000", "vin": [{"txinwitness": ["304402203acb1e6305e2fd9a0dcf358977a13761e799675cbd4eccd61da0361f4f38ac5202201ff8c7eaacca9445d3735b9b4e14344b06fec8f41d64bf7bbf35896e65deebae01", "02df30069a40b78b5a6dfc3c763dfeb554535007e90a8eaf1dfebf2eb712c11d26"], "sequence": 4294967295, "scriptSig": {"hex": "", "asm": ""}, "vout": 1, "txid": "1172ee20d0b271df638b6d48208a82325695f1c4c4c598eeb4405b6c8467eaef"}], "txid": "be14c47bb14daae07d71c8df57d204fadaf0fae9a272db68b445dc2e1f08c5e6", "blocktime": 1537872475, "version": 1, "confirmations": 11486, "time": 1537872475, "locktime": 0, "vsize": 142, "size": 223}