{"hash": "be1cea0ca009a798deddc4626a2e33ea46460a0c735f977b3712c124d5827c07", "blockhash": "0000000000000000000e13cef7c366c0283d82e591d1acd082e914b08063cdf1", "vout": [{"scriptPubKey": {"reqSigs": 1, "hex": "a9145400ba3160bcab29aabc892461af5cd09ea92fee87", "addresses": ["39MBZC7B46sWp66Vg87hEvoee2xWFHCrrH"], "asm": "OP_HASH160 5400ba3160bcab29aabc892461af5cd09ea92fee OP_EQUAL", "type": "scripthash"}, "value": 0.02192841, "n": 0}, {"scriptPubKey": {"reqSigs": 1, "hex": "76a91497c41632409f01476c163b92eb3da02f9f3766de88ac", "addresses": ["1EqTwJx22YiTBKxiFwjw52JQVrDVKWF8UR"], "asm": "OP_DUP OP_HASH160 97c41632409f01476c163b92eb3da02f9f3766de OP_EQUALVERIFY OP_CHECKSIG", "type": "pubkeyhash"}, "value": 0.06163158, "n": 1}], "hex": "0100000001d017203c9bff4ac658a2bc32966bd306927be2f5598d2ef6dc9d9a90f5cc409801000000fc00473044022014d4c41b57667f29947ff6813d007f226d173ab354d9406b28256c3f06594b540220443241887cdeae7b98aa31480c723608262998221144e0ff860ecc39b66ef88e01473044022016965b57b79078d85dfe102a874faa1499fce5cf50ffc28d743f8511322a963b02200c793e972140151c138e259ddddee7c8c6391dc15059cd28662ad00ae4564847014c695221021332ecb55753f8542bb43cabdfc94ef42c2bdacb713a55dfeb06f087647120092102f8cefbf1aeb786d1759ce7e5fb9848d07b790b7c9e9bc24af2351210b82d4e1c2103d679bd728cf9e0feff247164c0815a3171360d0edf7337abbe7b44ca5f329e7b53aeffffffff02c97521000000000017a9145400ba3160bcab29aabc892461af5cd09ea92fee87d60a5e00000000001976a91497c41632409f01476c163b92eb3da02f9f3766de88ac00000000", "vin": [{"sequence": 4294967295, "scriptSig": {"hex": "00473044022014d4c41b57667f29947ff6813d007f226d173ab354d9406b28256c3f06594b540220443241887cdeae7b98aa31480c723608262998221144e0ff860ecc39b66ef88e01473044022016965b57b79078d85dfe102a874faa1499fce5cf50ffc28d743f8511322a963b02200c793e972140151c138e259ddddee7c8c6391dc15059cd28662ad00ae4564847014c695221021332ecb55753f8542bb43cabdfc94ef42c2bdacb713a55dfeb06f087647120092102f8cefbf1aeb786d1759ce7e5fb9848d07b790b7c9e9bc24af2351210b82d4e1c2103d679bd728cf9e0feff247164c0815a3171360d0edf7337abbe7b44ca5f329e7b53ae", "asm": "0 3044022014d4c41b57667f29947ff6813d007f226d173ab354d9406b28256c3f06594b540220443241887cdeae7b98aa31480c723608262998221144e0ff860ecc39b66ef88e[ALL] 3044022016965b57b79078d85dfe102a874faa1499fce5cf50ffc28d743f8511322a963b02200c793e972140151c138e259ddddee7c8c6391dc15059cd28662ad00ae4564847[ALL] 5221021332ecb55753f8542bb43cabdfc94ef42c2bdacb713a55dfeb06f087647120092102f8cefbf1aeb786d1759ce7e5fb9848d07b790b7c9e9bc24af2351210b82d4e1c2103d679bd728cf9e0feff247164c0815a3171360d0edf7337abbe7b44ca5f329e7b53ae"}, "vout": 1, "txid": "9840ccf5909a9ddcf62e8d59f5e27b9206d36b9632bca258c64aff9b3c2017d0"}], "txid": "be1cea0ca009a798deddc4626a2e33ea46460a0c735f977b3712c124d5827c07", "blocktime": 1537871767, "version": 1, "confirmations": 11491, "time": 1537871767, "locktime": 0, "vsize": 369, "size": 369}