{"hash": "be26f59c8c05c21e4b3bd03eb864b21f180395e031ceafeb10b689f2e351a329", "blockhash": "0000000000000000001f0ddff1eddb255c1121bcd4da4f1bc9a0da00cae72433", "vout": [{"scriptPubKey": {"reqSigs": 1, "hex": "76a9148b294f5ba2d9764c7d99eccc38549d474fb31ae888ac", "addresses": ["1DgpQw7axcKpd5Fw4MKEaoXZkw1ML7vRju"], "asm": "OP_DUP OP_HASH160 8b294f5ba2d9764c7d99eccc38549d474fb31ae8 OP_EQUALVERIFY OP_CHECKSIG", "type": "pubkeyhash"}, "value": 0.0147834, "n": 0}, {"scriptPubKey": {"type": "nulldata", "hex": "6a4c50000077a900013f28305dd15bb3407afe8d20af6c953dd567cf27e7e3ef3236678a6250975e4d5b8dfd28209081d9196931d189995baa10040612fa8b53ccfddcbc9a9526289ac0f6612cd74e33776ee4", "asm": "OP_RETURN 000077a900013f28305dd15bb3407afe8d20af6c953dd567cf27e7e3ef3236678a6250975e4d5b8dfd28209081d9196931d189995baa10040612fa8b53ccfddcbc9a9526289ac0f6612cd74e33776ee4"}, "value": 0.0, "n": 1}], "hex": "01000000015dadf5af7140807d82a11e9fc69a66decc2042fb4278c8b351d404ced0740f33000000006a47304402207cade0d1241a1dd5ce4ba571daab658688ce9d9181be6227823d62179bada0c302203c5a94de634a60c34ef569622a589e7b48f5693500e3cf3b877a5a1f9bd3989c012103c371aa832254c53cad1858fab54c456fb6b9a71b8a36252f305258a17816b02fffffffff02c48e1600000000001976a9148b294f5ba2d9764c7d99eccc38549d474fb31ae888ac0000000000000000536a4c50000077a900013f28305dd15bb3407afe8d20af6c953dd567cf27e7e3ef3236678a6250975e4d5b8dfd28209081d9196931d189995baa10040612fa8b53ccfddcbc9a9526289ac0f6612cd74e33776ee400000000", "vin": [{"sequence": 4294967295, "scriptSig": {"hex": "47304402207cade0d1241a1dd5ce4ba571daab658688ce9d9181be6227823d62179bada0c302203c5a94de634a60c34ef569622a589e7b48f5693500e3cf3b877a5a1f9bd3989c012103c371aa832254c53cad1858fab54c456fb6b9a71b8a36252f305258a17816b02f", "asm": "304402207cade0d1241a1dd5ce4ba571daab658688ce9d9181be6227823d62179bada0c302203c5a94de634a60c34ef569622a589e7b48f5693500e3cf3b877a5a1f9bd3989c[ALL] 03c371aa832254c53cad1858fab54c456fb6b9a71b8a36252f305258a17816b02f"}, "vout": 0, "txid": "330f74d0ce04d451b3c87842fb4220ccde669ac69f1ea1827d804071aff5ad5d"}], "txid": "be26f59c8c05c21e4b3bd03eb864b21f180395e031ceafeb10b689f2e351a329", "blocktime": 1537872018, "version": 1, "confirmations": 11489, "time": 1537872018, "locktime": 0, "vsize": 283, "size": 283}