{"hash": "be26c1539ae0c301b42f633cc506c04de51fc0e28db4571a04e9e52428c7430e", "blockhash": "0000000000000000000e13cef7c366c0283d82e591d1acd082e914b08063cdf1", "vout": [{"scriptPubKey": {"reqSigs": 1, "hex": "a914a0daf99f18e6217505c79ce3626b2ea10a257d6087", "addresses": ["3GMYMthYf2qioxrUbMMtToCKmdkUb9aQRM"], "asm": "OP_HASH160 a0daf99f18e6217505c79ce3626b2ea10a257d60 OP_EQUAL", "type": "scripthash"}, "value": 0.00193968, "n": 0}, {"scriptPubKey": {"reqSigs": 1, "hex": "76a9146e6b43b86a1369dadf5ca92bbde1c71cacb0b9f188ac", "addresses": ["1B4qpyMvAiTxWX7fVnFGCMZNujPjmxTEEf"], "asm": "OP_DUP OP_HASH160 6e6b43b86a1369dadf5ca92bbde1c71cacb0b9f1 OP_EQUALVERIFY OP_CHECKSIG", "type": "pubkeyhash"}, "value": 0.00500465, "n": 1}], "hex": "01000000017dc92787996897554aaa91ed21e9229b6e088294d0f22f3374e42eef7948482900000000fdfe0000483045022100c9bb0333ea10e56c9626a1aaa8d2c7c0898f196e8268639cb2c9b39a17083c4d02205f94c6bad423cf1c5e4a9a472ae288f8865fa4f5d148f2ea4d84b3080354da7801483045022100dabd82795eed8d7d8c292c790204da8665e79510f05b51ee00525f5abcadc982022060cbf72ac4cec2831e742e042d5892db14dcd4694f23b15ef283c8821513855a014c695221023819e406e1ad1600d7294df03b798da1ea9fa651f94376065345f3e13796c87021026a6d3f6ae19e40ebcfb810d4a65a829cd87f734c6555c6b66a3b5a2e5e3639322103fe5ce52f6bf8a1d9fe391abd308862d78b6d5b887265ad52a8b320d9779de84353aeffffffff02b0f502000000000017a914a0daf99f18e6217505c79ce3626b2ea10a257d6087f1a20700000000001976a9146e6b43b86a1369dadf5ca92bbde1c71cacb0b9f188ac00000000", "vin": [{"sequence": 4294967295, "scriptSig": {"hex": "00483045022100c9bb0333ea10e56c9626a1aaa8d2c7c0898f196e8268639cb2c9b39a17083c4d02205f94c6bad423cf1c5e4a9a472ae288f8865fa4f5d148f2ea4d84b3080354da7801483045022100dabd82795eed8d7d8c292c790204da8665e79510f05b51ee00525f5abcadc982022060cbf72ac4cec2831e742e042d5892db14dcd4694f23b15ef283c8821513855a014c695221023819e406e1ad1600d7294df03b798da1ea9fa651f94376065345f3e13796c87021026a6d3f6ae19e40ebcfb810d4a65a829cd87f734c6555c6b66a3b5a2e5e3639322103fe5ce52f6bf8a1d9fe391abd308862d78b6d5b887265ad52a8b320d9779de84353ae", "asm": "0 3045022100c9bb0333ea10e56c9626a1aaa8d2c7c0898f196e8268639cb2c9b39a17083c4d02205f94c6bad423cf1c5e4a9a472ae288f8865fa4f5d148f2ea4d84b3080354da78[ALL] 3045022100dabd82795eed8d7d8c292c790204da8665e79510f05b51ee00525f5abcadc982022060cbf72ac4cec2831e742e042d5892db14dcd4694f23b15ef283c8821513855a[ALL] 5221023819e406e1ad1600d7294df03b798da1ea9fa651f94376065345f3e13796c87021026a6d3f6ae19e40ebcfb810d4a65a829cd87f734c6555c6b66a3b5a2e5e3639322103fe5ce52f6bf8a1d9fe391abd308862d78b6d5b887265ad52a8b320d9779de84353ae"}, "vout": 0, "txid": "29484879ef2ee474332ff2d09482086e9b22e921ed91aa4a559768998727c97d"}], "txid": "be26c1539ae0c301b42f633cc506c04de51fc0e28db4571a04e9e52428c7430e", "blocktime": 1537871767, "version": 1, "confirmations": 11493, "time": 1537871767, "locktime": 0, "vsize": 373, "size": 373}