{"hash": "1eb26b4d2a67ad915eba3c78df7c76768cf6e1b99a1dc70eda506ddf99982aa9", "blockhash": "0000000000000000000e13cef7c366c0283d82e591d1acd082e914b08063cdf1", "vout": [{"scriptPubKey": {"reqSigs": 1, "hex": "76a914446ad3f6a35a68529024b32a96942d1e907fa74288ac", "addresses": ["17EkvaoX7iX8Kjv5kXXAAw6wFvLU44GeoC"], "asm": "OP_DUP OP_HASH160 446ad3f6a35a68529024b32a96942d1e907fa742 OP_EQUALVERIFY OP_CHECKSIG", "type": "pubkeyhash"}, "value": 0.04254968, "n": 0}, {"scriptPubKey": {"reqSigs": 1, "hex": "a914c57fd05f4921c54ae32eea5b2e16195b94068c0d87", "addresses": ["3KhJA1ADJJ96E4J5s9LHxg8XDPBbbJ9VzB"], "asm": "OP_HASH160 c57fd05f4921c54ae32eea5b2e16195b94068c0d OP_EQUAL", "type": "scripthash"}, "value": 7.296e-05, "n": 1}, {"scriptPubKey": {"reqSigs": 1, "hex": "a9140e04677e664593ea8610224ae34b708bb69b607687", "addresses": ["32y8fF5hsc398WaFwMYHbVgrGTeKXPxrbf"], "asm": "OP_HASH160 0e04677e664593ea8610224ae34b708bb69b6076 OP_EQUAL", "type": "scripthash"}, "value": 0.00141867, "n": 2}, {"scriptPubKey": {"reqSigs": 1, "hex": "a9141dd7c1b4626d81df0af21b42572ceb05693f014287", "addresses": ["34Qoz9CvhrV9XCwcz2Tu6QwYEZc77cPo3R"], "asm": "OP_HASH160 1dd7c1b4626d81df0af21b42572ceb05693f0142 OP_EQUAL", "type": "scripthash"}, "value": 9e-05, "n": 3}, {"scriptPubKey": {"reqSigs": 1, "hex": "76a914b593a53e31f5b35dd403c42aace8c2b0269a484488ac", "addresses": ["1HZ6BJvt77eMEUCeMTQcURUKuCx7U3RsrX"], "asm": "OP_DUP OP_HASH160 b593a53e31f5b35dd403c42aace8c2b0269a4844 OP_EQUALVERIFY OP_CHECKSIG", "type": "pubkeyhash"}, "value": 0.0096, "n": 4}, {"scriptPubKey": {"reqSigs": 1, "hex": "76a9141b7978f5a11f90fc2b66f33f367975bcef3def6c88ac", "addresses": ["13WGmEikAAQikD2G5YmZ6Wbw3e85Pf8sTq"], "asm": "OP_DUP OP_HASH160 1b7978f5a11f90fc2b66f33f367975bcef3def6c OP_EQUALVERIFY OP_CHECKSIG", "type": "pubkeyhash"}, "value": 0.00343, "n": 5}, {"scriptPubKey": {"reqSigs": 1, "hex": "76a914b823e594a7c8ca937cb75eb1356a48817ddbb16788ac", "addresses": ["1HneLT7KjtHpMXFTRjvxYQQrUR1cdkd6MU"], "asm": "OP_DUP OP_HASH160 b823e594a7c8ca937cb75eb1356a48817ddbb167 OP_EQUALVERIFY OP_CHECKSIG", "type": "pubkeyhash"}, "value": 0.00029218, "n": 6}, {"scriptPubKey": {"reqSigs": 1, "hex": "76a91411620585fc330976b83d3dd0c1939107bafdc92888ac", "addresses": ["12auuvLXAFV8f8KJuPtE5RvhRnNS9cMRZe"], "asm": "OP_DUP OP_HASH160 11620585fc330976b83d3dd0c1939107bafdc928 OP_EQUALVERIFY OP_CHECKSIG", "type": "pubkeyhash"}, "value": 0.004695, "n": 7}, {"scriptPubKey": {"reqSigs": 1, "hex": "76a914cb148f4e2ad966fbbf8d2bcc772b64f6a1b5668388ac", "addresses": ["1KWnoTiQV93E6Ur9XqgQu1GW3FA9oK1MQd"], "asm": "OP_DUP OP_HASH160 cb148f4e2ad966fbbf8d2bcc772b64f6a1b56683 OP_EQUALVERIFY OP_CHECKSIG", "type": "pubkeyhash"}, "value": 0.00312462, "n": 8}, {"scriptPubKey": {"reqSigs": 1, "hex": "76a914dacdd19c9f15cf56baff68c01bc91195ae066fb188ac", "addresses": ["1LwvsMrzr6QaGe3sEYxe2xKmdfoDNbNywc"], "asm": "OP_DUP OP_HASH160 dacdd19c9f15cf56baff68c01bc91195ae066fb1 OP_EQUALVERIFY OP_CHECKSIG", "type": "pubkeyhash"}, "value": 0.00802367, "n": 9}, {"scriptPubKey": {"reqSigs": 1, "hex": "a9141a81652dd53785450d75a066b266a636cb7c4e8487", "addresses": ["347AW4zKuXhapW1PxFn9ecbi5yCH868XS8"], "asm": "OP_HASH160 1a81652dd53785450d75a066b266a636cb7c4e84 OP_EQUAL", "type": "scripthash"}, "value": 0.00225, "n": 10}, {"scriptPubKey": {"reqSigs": 1, "hex": "a914b843fced70d4773418205644e8127642286821c887", "addresses": ["3JVKhjGCHkCB8XUwwZRgRoCaydZCB7XPM1"], "asm": "OP_HASH160 b843fced70d4773418205644e8127642286821c8 OP_EQUAL", "type": "scripthash"}, "value": 0.00451219, "n": 11}, {"scriptPubKey": {"reqSigs": 1, "hex": "76a914141d0eb809f4678c226e99d3d3c975f99d6169d988ac", "addresses": ["12qMKndp5uHorpv6rTDQqm5FQDJqfMYDNo"], "asm": "OP_DUP OP_HASH160 141d0eb809f4678c226e99d3d3c975f99d6169d9 OP_EQUALVERIFY OP_CHECKSIG", "type": "pubkeyhash"}, "value": 0.014, "n": 12}, {"scriptPubKey": {"reqSigs": 1, "hex": "a91439feaef4d2a29191e9dfcf3588c557921cae546287", "addresses": ["36yfYC826i1hE5oq3zK4SJouQd1xxSdyzF"], "asm": "OP_HASH160 39feaef4d2a29191e9dfcf3588c557921cae5462 OP_EQUAL", "type": "scripthash"}, "value": 0.0003, "n": 13}, {"scriptPubKey": {"reqSigs": 1, "hex": "a91498af425fbe9382dbc332f7e622235dec780faf8387", "addresses": ["3FcLavt2S36gSJtWhcEo1wF88z3Zm1LkHA"], "asm": "OP_HASH160 98af425fbe9382dbc332f7e622235dec780faf83 OP_EQUAL", "type": "scripthash"}, "value": 0.24282521, "n": 14}], "hex": "01000000000101e23ecf4fd421e752e1484426f900d0009f5462ef63e0eecc9bb407236cc38e0004000000232200202a07689aed1eea03bf85f457ccbd56faaba9cf416de67a9d7a8dda80ab63034effffffff0ff8ec4000000000001976a914446ad3f6a35a68529024b32a96942d1e907fa74288ac801c00000000000017a914c57fd05f4921c54ae32eea5b2e16195b94068c0d872b2a02000000000017a9140e04677e664593ea8610224ae34b708bb69b607687282300000000000017a9141dd7c1b4626d81df0af21b42572ceb05693f01428700a60e00000000001976a914b593a53e31f5b35dd403c42aace8c2b0269a484488acd83b0500000000001976a9141b7978f5a11f90fc2b66f33f367975bcef3def6c88ac22720000000000001976a914b823e594a7c8ca937cb75eb1356a48817ddbb16788acfc290700000000001976a91411620585fc330976b83d3dd0c1939107bafdc92888ac8ec40400000000001976a914cb148f4e2ad966fbbf8d2bcc772b64f6a1b5668388ac3f3e0c00000000001976a914dacdd19c9f15cf56baff68c01bc91195ae066fb188ace86e03000000000017a9141a81652dd53785450d75a066b266a636cb7c4e848793e206000000000017a914b843fced70d4773418205644e8127642286821c887c05c1500000000001976a914141d0eb809f4678c226e99d3d3c975f99d6169d988ac307500000000000017a91439feaef4d2a29191e9dfcf3588c557921cae546287998572010000000017a91498af425fbe9382dbc332f7e622235dec780faf838704004830450221009d567f771696daba89c241de6e2032a3fdf9506a2d15d78f6bf6f8f07f056da202207b000d94920dfe4b9eb71d0bc425ed9fbe6835ae7834e4ca823dadcbcfa03f5701483045022100b96cf401b480df170c702172da2d06a37bd8c9118ac549cbf3854e83808ca89102206bc0f99ea1f167ddb701f054db2bd020502d4bd0eade6171d1ceaa2945e5f78d0169522103664c601e04753bbd59d274931f95a2f0cc9fddcfef1aa46242a9d490d50d379221034f2c8bbaf0457ae424af16b3c484b819cc3b5603509ae5fb68ed485ac2ae8b7d2103e89052249bbad88e48eb5b655d24a49724186b6397b430d5f4ddc525e9339d5a53ae00000000", "vin": [{"txinwitness": ["", "30450221009d567f771696daba89c241de6e2032a3fdf9506a2d15d78f6bf6f8f07f056da202207b000d94920dfe4b9eb71d0bc425ed9fbe6835ae7834e4ca823dadcbcfa03f5701", "3045022100b96cf401b480df170c702172da2d06a37bd8c9118ac549cbf3854e83808ca89102206bc0f99ea1f167ddb701f054db2bd020502d4bd0eade6171d1ceaa2945e5f78d01", "522103664c601e04753bbd59d274931f95a2f0cc9fddcfef1aa46242a9d490d50d379221034f2c8bbaf0457ae424af16b3c484b819cc3b5603509ae5fb68ed485ac2ae8b7d2103e89052249bbad88e48eb5b655d24a49724186b6397b430d5f4ddc525e9339d5a53ae"], "sequence": 4294967295, "scriptSig": {"hex": "2200202a07689aed1eea03bf85f457ccbd56faaba9cf416de67a9d7a8dda80ab63034e", "asm": "00202a07689aed1eea03bf85f457ccbd56faaba9cf416de67a9d7a8dda80ab63034e"}, "vout": 4, "txid": "008ec36c2307b49bcceee063ef62549f00d000f9264448e152e721d44fcf3ee2"}], "txid": "be2616a8056786d3c8933283458151859049b001678c9eecef694a6809604919", "blocktime": 1537871767, "version": 1, "confirmations": 11495, "time": 1537871767, "locktime": 0, "vsize": 646, "size": 838}