{"hash": "be2ce65af5d07455010c283f3e925e46e390af59e7ca019b61f0f6928a0b3867", "blockhash": "0000000000000000000e13cef7c366c0283d82e591d1acd082e914b08063cdf1", "vout": [{"scriptPubKey": {"reqSigs": 1, "hex": "a9148ec784eed44a3e536ab6c56930c98b6609a56ef087", "addresses": ["3EhxtdEYZ9ifmUKq8UxbwJKtFX19nzCz8v"], "asm": "OP_HASH160 8ec784eed44a3e536ab6c56930c98b6609a56ef0 OP_EQUAL", "type": "scripthash"}, "value": 0.018, "n": 0}, {"scriptPubKey": {"reqSigs": 1, "hex": "76a9145319e3ecb51d57c3278937d2182152a944cceb1b88ac", "addresses": ["18aQ6pC4ZAMBzuuXpxX2x4oZUVt9FsCrZy"], "asm": "OP_DUP OP_HASH160 5319e3ecb51d57c3278937d2182152a944cceb1b OP_EQUALVERIFY OP_CHECKSIG", "type": "pubkeyhash"}, "value": 0.42383822, "n": 1}], "hex": "01000000011a0d4255fd48a5011bda0c82b1b7eec00c6cfa86e295c76547c13785c64814b0010000006a473044022007e2b205156789586223b67772f86c9169a061338a3461afa0984039c70200550220655f34bb4014cf72d3c182ecd4259ea307c96e08584cb69f372cb1088d6e649701210210a94c697e86eb817080386899b0ff85ef1b9602ac4ede2adbce822ce6bc5d62ffffffff0240771b000000000017a9148ec784eed44a3e536ab6c56930c98b6609a56ef087ceb98602000000001976a9145319e3ecb51d57c3278937d2182152a944cceb1b88ac00000000", "vin": [{"sequence": 4294967295, "scriptSig": {"hex": "473044022007e2b205156789586223b67772f86c9169a061338a3461afa0984039c70200550220655f34bb4014cf72d3c182ecd4259ea307c96e08584cb69f372cb1088d6e649701210210a94c697e86eb817080386899b0ff85ef1b9602ac4ede2adbce822ce6bc5d62", "asm": "3044022007e2b205156789586223b67772f86c9169a061338a3461afa0984039c70200550220655f34bb4014cf72d3c182ecd4259ea307c96e08584cb69f372cb1088d6e6497[ALL] 0210a94c697e86eb817080386899b0ff85ef1b9602ac4ede2adbce822ce6bc5d62"}, "vout": 1, "txid": "b01448c68537c14765c795e286fa6c0cc0eeb7b1820cda1b01a548fd55420d1a"}], "txid": "be2ce65af5d07455010c283f3e925e46e390af59e7ca019b61f0f6928a0b3867", "blocktime": 1537871767, "version": 1, "confirmations": 11495, "time": 1537871767, "locktime": 0, "vsize": 223, "size": 223}