{"hash": "be38166bbfb433f81710bee4e3298d1c7e1466b6940e7088d3013c97e28846f0", "blockhash": "000000000000000000022b45ed06c6f4ccd3cf7fb5ba4856ebd2e58215665228", "vout": [{"scriptPubKey": {"type": "nulldata", "hex": "6a4c50000077670001670d60c16cedbe78618c959a86aeaeacb577c031fc3a016b46dc7dc7d09645cfc9aa416c3929337538c1649d678d5baa08210612ea0b974fd0b31d100759d4ba30d2c37bb011d97e02cf", "asm": "OP_RETURN 000077670001670d60c16cedbe78618c959a86aeaeacb577c031fc3a016b46dc7dc7d09645cfc9aa416c3929337538c1649d678d5baa08210612ea0b974fd0b31d100759d4ba30d2c37bb011d97e02cf"}, "value": 0.0, "n": 0}, {"scriptPubKey": {"reqSigs": 1, "hex": "76a914efa1fd41a800b12044092cbbf5a2de3ad34ac9f888ac", "addresses": ["1Nr4Z4VS6SAoAVJpb9zQfN64M2rGaHGDQm"], "asm": "OP_DUP OP_HASH160 efa1fd41a800b12044092cbbf5a2de3ad34ac9f8 OP_EQUALVERIFY OP_CHECKSIG", "type": "pubkeyhash"}, "value": 0.00648344, "n": 1}], "hex": "0100000001fdaee221b0cd66cb4cd2604a24452b6d8383a205d2ca529d565709d6bfecd674010000006a47304402200fc94784260ab92ad7dfe84de9ef9a0e6f2b40b8a4cede934774732b893342e80220460ab06c0a479e22223501a3a622081c769bd000693afeecf31caa1154f400b60121036c5256292c1f8eb65d99e36db1156a2326e8cb90f0762a919df8aa1865a647d0ffffffff020000000000000000536a4c50000077670001670d60c16cedbe78618c959a86aeaeacb577c031fc3a016b46dc7dc7d09645cfc9aa416c3929337538c1649d678d5baa08210612ea0b974fd0b31d100759d4ba30d2c37bb011d97e02cf98e40900000000001976a914efa1fd41a800b12044092cbbf5a2de3ad34ac9f888ac00000000", "vin": [{"sequence": 4294967295, "scriptSig": {"hex": "47304402200fc94784260ab92ad7dfe84de9ef9a0e6f2b40b8a4cede934774732b893342e80220460ab06c0a479e22223501a3a622081c769bd000693afeecf31caa1154f400b60121036c5256292c1f8eb65d99e36db1156a2326e8cb90f0762a919df8aa1865a647d0", "asm": "304402200fc94784260ab92ad7dfe84de9ef9a0e6f2b40b8a4cede934774732b893342e80220460ab06c0a479e22223501a3a622081c769bd000693afeecf31caa1154f400b6[ALL] 036c5256292c1f8eb65d99e36db1156a2326e8cb90f0762a919df8aa1865a647d0"}, "vout": 1, "txid": "74d6ecbfd60957569d52cad205a283836d2b45244a60d24ccb66cdb021e2aefd"}], "txid": "be38166bbfb433f81710bee4e3298d1c7e1466b6940e7088d3013c97e28846f0", "blocktime": 1537869901, "version": 1, "confirmations": 11523, "time": 1537869901, "locktime": 0, "vsize": 283, "size": 283}