{"hash": "579fea4f77d339b3541383166998cf2144e93e9e4385c10fb16018fc81a73eb2", "blockhash": "000000000000000000022b45ed06c6f4ccd3cf7fb5ba4856ebd2e58215665228", "vout": [{"scriptPubKey": {"reqSigs": 1, "hex": "76a914896fb01973325dde94c6fb21ff53d7b2ac26886488ac", "addresses": ["1DXhNVViVYu4xPGUu4pYH2cTr72UPMqKAt"], "asm": "OP_DUP OP_HASH160 896fb01973325dde94c6fb21ff53d7b2ac268864 OP_EQUALVERIFY OP_CHECKSIG", "type": "pubkeyhash"}, "value": 0.6407829, "n": 0}, {"scriptPubKey": {"reqSigs": 1, "hex": "a914e5acc997398a9a01d2dc5c0eeee04ac72ed743e087", "addresses": ["3NdRexRVJyY28uybfwpM6srSVCFrGqHv4b"], "asm": "OP_HASH160 e5acc997398a9a01d2dc5c0eeee04ac72ed743e0 OP_EQUAL", "type": "scripthash"}, "value": 0.0008914, "n": 1}], "hex": "0100000000011f88501536e1edcd7bb9ca61f994e80fa8bcdbf43cad4459d4e5d45b0b310694c19d03000023220020d9c27c9874e7836742a00901acfacec748ff1fbfae647c44947a1bcc9662096effffffff82878c0fde27708372ba8e2e050f3b10adc88841abea5f4fff8f17d7fc2093360100000023220020f2da694c30ed7bac926f9c04b1d41235b0346f0d9f37355d6255ce7f28701a7effffffff0c8890d99326606399ea0ef4b5a2c347efc223324eaba7c02603c96c0abcf47b01000000d90047304402206078c35a7d3c25081ed5d532f67997d7594090d4b9d03f7097eced9e2b49414302207a08ad640f4b7ed4d71ae4f1333bad0c16c0897972456bba539a3fa39929d6bd01473044022013ec32a89dc2834e65bdb3f0d2e3b9fd80b3d7d2848d2b846285c3eafa6683570220517814b5c2228bbaffa5b7ed66a29cc3ed268ddb1e6edcd6c7ea1a8ffd2335db01475221039cd3a545d10c299012b9f64acbb58f37a6af6a5f2a27d24fc7297c8f6f0f963f210378143ae674b77ed33bdc93abdea3b13cf5e13e849f5a8bdf86fffdecb26f230a52aeffffffff12fc04fc364943cf4fc715bc9ca7933cf88ab9a9131dd2bd56dca24d75cfa52001000000da00473044022002e23f36ce1966cc45c3f9858522d563afb09495d0df50553bf1eb7e58d28890022066c1482860a23c8e502a171971fea575f0cd005e16535e6dcabb83fab7a756aa01483045022100e8ed9616a1aaa161adfff9298fba33bdd601da47b2405295c5cbdf50ea67ddfc022023dbc063be0159b4ec26a95b224e84a30fc1e1f8ae87c8109034727dee858d3a0147522103111e20040df37854075b102183badf82712a61485b83c43edaa1a55e8af0db70210378143ae674b77ed33bdc93abdea3b13cf5e13e849f5a8bdf86fffdecb26f230a52aefffffffff5104ccd40fd042dec33f0ee7b71016565ac4e5fb2976b960dbfce8bed91c09c0100000023220020cf21e5079ae6aa93fcfd29cd99a70f47a90cab77a8a61f460bd596959e7fc58bffffffffed642254cd6aede9b090284a73b6bf9616b11f74ac38b467155b7646c3e26f510000000023220020fbde50177c5ab28fb5e71906e145de1e46eadd9f442591081e06231cfbaa1d84ffffffff131e5f2fd77104382110c9a058a21e682f9369bf38f8fe6f7c9415249154de7e0000000023220020ed494d518baf264c0af6291bd73ffabe4a55b661470f5e6a440a84dde22aca1dffffffff34cbc9ce7d8d4381791a02fc0cd47863ccd8cded676980b62c146c5fc166c9ca02000000232200209f5d64355df45758e75b90905a5ff027a1bc6cb308026c4b7dafac9ff79346c7ffffffff9972e2c024eb1dd2bd2e422751279ede577111e09d1adb38f5af89fae50a4a5d00000000da0047304402203881bb4fd2934af137e90993e156de0ce12f8226eccc5f83ed9e9cdafb6243ba02201c7383d14bd81eba3fe44e9327960ebb4effe6495a532ff558da380a00903c7501483045022100ae6bbf40f1400c5214dfa0c41e0a93d50817f8e4d4de1c6a120ad530df3d34c20220782bbe615fe3b3d934b2cd796e74b50bfe2fdf318b6f3038cc4452c212b83c950147522102050032f056b9cc59c1bd51bc49cd1e5cb90ef3cacf32d720be12d11fbb0fd3b8210378143ae674b77ed33bdc93abdea3b13cf5e13e849f5a8bdf86fffdecb26f230a52aeffffffff7e268ab6bce1179aadb1d120b760656c486be2bc3e283c98eb6246a1f95efc4900000000d900473044022005e78d2941f62b6c3a4f5582d746fac05c9fde4630b6aae4b7e414e9ca563dce02205f6b897f6b81ec8f6aadaa405c0c2b9e2d9336dde4d071fc898f43d67ba24cc20147304402207c26d5185f87b723fef55be6a3bba705aaf117e0466b274334230aa6a9f2f3e3022001befb0a3019bf139fd2d823227e7a7239105a6a0bf9586c0467dcd2e8c710380147522102050032f056b9cc59c1bd51bc49cd1e5cb90ef3cacf32d720be12d11fbb0fd3b8210378143ae674b77ed33bdc93abdea3b13cf5e13e849f5a8bdf86fffdecb26f230a52aeffffffffe331dcc577a526b47b278e89820c9270b66e3f276a9d9c4cb5cf8857e5ad86e500000000db00483045022100ac377668cc02a40930ac4db27f9998c01f1b33b211d40853f3c253d5fde6efcb022022d2c32a886eaa736dce5ab2c3fd557a0f0aaa30c7db9b94ae020825dd21503b01483045022100ebb247437c3a181a7dd0ea20ee04bcb6bc0dea641e337c87da8c5328ab1cca9702207d6292670c5c6c959988082d6450ae951323af79a3b4997379615e2e725514060147522102050032f056b9cc59c1bd51bc49cd1e5cb90ef3cacf32d720be12d11fbb0fd3b8210378143ae674b77ed33bdc93abdea3b13cf5e13e849f5a8bdf86fffdecb26f230a52aeffffffff69f54c2cab484bc817e8746fe5d10134e97935c2f78a008c6afcef4d39d592c300000000da00473044022053bb79219d7ba347e000a9b17ba619151f6ef50c773777401e9fffa014a855df022032176c782155ce477c59617174b7bb0479d1031f9464038388d3a864d30b732201483045022100ae2506c0c9d46d5040d7a7dabfd74179938373ee81d418f464e3f5eaf431acfe02206518e899af791a850968a359b53a26e9a663f9438636a8293d37e224d5fc596a0147522102050032f056b9cc59c1bd51bc49cd1e5cb90ef3cacf32d720be12d11fbb0fd3b8210378143ae674b77ed33bdc93abdea3b13cf5e13e849f5a8bdf86fffdecb26f230a52aefffffffffe5948a759c3a6e3289d55ab3e9c52084df20a673e6044df08cb8f695da3d7a101000000da00483045022100ac171f1cb15317b59e284f2b9aa21707e9c3bde5a51c61463316709d8a4d616602200427d88b35e267b323034f28a9043ece89b157d251833449174fc7f8884d23f70147304402206350acdd798b6514eb66bc2266a8a3224bd3e0aeca3afe5a0e1637f3b92a7b2902204e025871295a5c1376879840d0a2359d2e81d794b7bdaf75d46c5d96462a52670147522103f1a8c994643ac3131ef03ee413598a8a6dd321fedba5e7134a613b11af0c43f8210378143ae674b77ed33bdc93abdea3b13cf5e13e849f5a8bdf86fffdecb26f230a52aeffffffff56917ac161c9acc163b917c1714934086e05e58c568b1a39cc350d02ee4ea6ad01000000da004730440220260958751b9ab79cddc4f6842697dd188790ff7717444598d09681b3735067ff0220620c4ba74c24de48d8e35daf34a014844193dcb0efeb57669916efeaa74f90e801483045022100a53597211164a40e9790bd83bd4f4cbb623d1586fdd308f62dcb6a2bd7b9e78802206f22a238189aaeb8c486c8297bb405ec1e89236679d0c22a1a430fce37c7af2f0147522102e40ba7ec4a8c79da930d6c50bb765cd522cb675c4f3e85b4c4ee027a0585dcfd210378143ae674b77ed33bdc93abdea3b13cf5e13e849f5a8bdf86fffdecb26f230a52aeffffffff0a99c14e32c252db866cb395310b512c3890b12908093941968fbcad449d6bfd01000000db00483045022100f572d830f84111303142cc2433d705c57b7bc9e0ed9f242350f852fb5b868d88022072bd5f9354c349249683c278dbfce478a15ebba5d236f07dba3981a03a5009d10148304502210087dc34a01b146e4a8ff29aeb53226f8ee8cf1acaa44e669aad63093d58c5ef5d022049d221e7d9e0898ea60631c2960496d7857ee98d0ab81bea83e90738d064e8fa014752210205deee0191583c777935861cea38710e50b132e26839bbdbcc14c8e40a1b017c210378143ae674b77ed33bdc93abdea3b13cf5e13e849f5a8bdf86fffdecb26f230a52aeffffffff976209b9b2bbd5eee57ffffa3b37fff2386e87b6c8a58db6730f8b151ff60c140100000023220020601228dfe4e4a8b195b1323c6fff76a3cb6a98a74b3c4fbf780a0549416e744affffffffeebfd7686172975112f0aca34f4c73acca2038353c8e409c2035c465536a55570100000023220020b5b807b8e7692728596addf16e7b35ba7a2ded0247a9d2c0f3dbb1860d0e79ffffffffff43a4638b52362db18f5e4dde12146917a7f50cde14d4c95553a2463fe3c2ab1901000000da00473044022047541c98b0241df3c7d556aeceddc3fc23c1eca49be9d72e0a0adfdf4f93e87602204278f542c9825dab1021b2ae2131eaf21de596f71d69fda84bcb3b0531c2790001483045022100e166f53c1bfac701818df7337852a4284d978b8c803d0cb5c31a2f8abf5f74bd02204e328a5896c52e7e0307fb059ed27d3125af11f46110309ea5a75b23e04944f30147522102cb27f12292da5e17a572c00da1c6a0ba87bc75abdb1bdb73447d9ebd9b97041d210378143ae674b77ed33bdc93abdea3b13cf5e13e849f5a8bdf86fffdecb26f230a52aeffffffffa9361c81d05de21b2745745dc47756a70820642e98c60f62e80dd377a9c891a101000000232200209776282fd9cbfcd573c40da3950d9a2d6da2c590ea4a220a322a29a07b1d033effffffff9ea8c8cfe614e0019f997ad5c0e23de1da281c85dff0720b6ead35257e8caa0f0100000023220020bdb67b25318a646204c121889c885c649d5050ea37c243dabbebf740dd879ae9ffffffff9b5f7b840a182f99b87b472b520b9974c0c55ba1330032acad59beb7060fbbfc00000000232200207eca9ef7c6d31d73e27405c1df7c808c83f17f177d93bbd41426d7db6917846affffffffe0539eab40956afc8ed3b469427abe1078d06507e945c11ef81caf73f18cf55c01000000232200203cecfe597f043a4e1a3307f69a78c5caa49703664bd2931f60a6bb69b07cac31ffffffff6ffe8484f2588b3f8e06cf8155504805f26084d4bf483079185e32e95be68d390700000023220020194f4ed21ec42870be80d0952d2bb5b0a7d88ff2d0645b6c4375dd78952e2cd4fffffffff32d5b0c8f96710edd0524114a9d13de327abc7ec52995bf75e48f5059d5d9550100000023220020b5b807b8e7692728596addf16e7b35ba7a2ded0247a9d2c0f3dbb1860d0e79ffffffffffc9538512fd16b3923c018012530c31be09b92b350821bd74e52ba81680446df301000000232200200ba01d84deadba224a2fc8e5bc588871fab222a69894031d8a0306deb674e794fffffffff6af7036c27608d3364b1da03bc49e202a6898aa6a4d81024ba69add8202acf8010000002322002044ab9fb852a0496bde05b5dba2f09329a6d5c1999ba968c3b01a8897cc026950ffffffffde9850bedb03258525cb56a5572550528440f3432df5ba7081ecd776e059fe110200000023220020f2da694c30ed7bac926f9c04b1d41235b0346f0d9f37355d6255ce7f28701a7effffffffdb014e4e0ace8a9dea595197cb0e4ed752303975b06426e0af05531fa534b7f30000000023220020412ca1396a537babafe519965d31bc3bbe2a629808f3c3f5b31d1385da59be73ffffffffc8f9a091600ec74497e79ba624cc38660cc9e4eda6b93e4b90799ae05c2be58b0100000023220020038854003e85c118fc878266083d3f2a03e7dd85f9f0e8a7f79fc735d1800722ffffffff73ce3e0f4c799ea06ff287c2cb1d3d4af45073b3218442657ac63e85a65585780000000023220020bc77c541ee836c22a112880d3c08dd86598549c50c64a5ec55c3fc6fef2ee510ffffffff8ca15b18a4e6e2a7a5e5a2d7eb8cce3bc259fbb304a0fc2e5c7099c8881a120200000000232200207baa9ae255fa40704f6c9e360176db85948b6b3a0e00f0a30669be38e7282e6affffffff02d2c1d103000000001976a914896fb01973325dde94c6fb21ff53d7b2ac26886488ac345c01000000000017a914e5acc997398a9a01d2dc5c0eeee04ac72ed743e08704004830450221008608c8dda79fba9616f065742898da4edcb36a2d3a971261fb9a7eb4be1d37af022075f972d0975439a6d1515037554715e2f4b18cf2e6d601a976c55e1e88ca527301483045022100b706b3b865ad6c0a212e80e772007c389689c159a15d7d86ce4be2b33c89564102203f5eaaac83056d6e0237ff3f9b5218b90a69a93a76df0be73cccb722eb0fc5f5014752210389e9ea128495b221c32c035ac814b624a2ca88fb901f12e9d91df6dac222b6da210378143ae674b77ed33bdc93abdea3b13cf5e13e849f5a8bdf86fffdecb26f230a52ae0400483045022100b338fc558964041267568bc8b9ef0af4c4fc356da4494c9aad8b98187eea865c02204f8b379060d287f97826ce9eaff69f438ce9a056dff2c0a2d2c3d3a6dcf5882b01473044022013f8237573f627663102cb09a49e8713fe43c189ab00a4a55cc4da4ed117121c02203c0ab1aab5601307084bdb2b915aaed07b87b2e7f59b53ee1e5a2310ea136c480147522103dbe78688aa057d123edc271dc7511ac0c4445617331f1e8841d237d6d84cbe5e210378143ae674b77ed33bdc93abdea3b13cf5e13e849f5a8bdf86fffdecb26f230a52ae000004004830450221008db8d21b174a8f95f03e70de2432183ec6d52a0dd2d137c930b37ef7f1746b770220599ade2a784174cd271a3c0fa049c2110413dfffd545266397dab3ef740b802a0148304502210099bd8d92342ed582472d8013e23c194a7db9a5488af4fd270685815e11802c710220031e06b885702b45170ba428a08985d24adb31e2a8627a0cba1511c88576ccf7014752210314934abf1b1e227b5539ac2f715cd749c601d0295f6d5852f1ac15c1095d51d7210378143ae674b77ed33bdc93abdea3b13cf5e13e849f5a8bdf86fffdecb26f230a52ae0400483045022100a6a7dac5fa93d9563da55b97584fb6bea0a912538145a9d944ce56b2005288f302207a94b1eae26779c89b84b71b7bf7c6e4b6cb7981c07525abdc3bcdfada2160d90147304402203633bb717d7411be15d08b0e934f850a7433de95cfc5db7724f31b8e469d799302205b320a933d749cd562b9b3b29258bc081e4927ee75372aed1e342da520ec48290147522103b056bf194684cd37ec26520f554a7370abba1e079c6179b068f04f2a06778e2b210378143ae674b77ed33bdc93abdea3b13cf5e13e849f5a8bdf86fffdecb26f230a52ae0400483045022100a112e2569f6a6038c94e7c78fd69a5f52e01f39d4d3eaf5c140244693cb016d1022077dcc40d9a0e1384ce5095c609afa0f33aac1d98799395a8836b594a6f282c8801483045022100bf29a816aa991d0b462ee8aae8cc27af36dff030e195c9631b5b424d236385d202207766ff49d18c9cc32244f36c36a1d56e9fce4da807356ebded7fbe7eb91b2ec001475221030e873221760e13cd4e8e1d9e7f33dec1e44a1037c6dd863c7e3b61b7506f0cfc210378143ae674b77ed33bdc93abdea3b13cf5e13e849f5a8bdf86fffdecb26f230a52ae04004730440220631d8e33370b9042f24e13813cdd39f4359d947b717c1658c0a185bae11782ec0220320ae15501d17440c2436d534b9790e8a993870cb80f25fb4b5b10f94c457f8101473044022042be249bcdac9c7701292ab7dc3e3b2f0ed427d451062b3454019f89a773b16f02207c46183b03b83b95ce2a7fe6f2e2e6c5b7ee60dfe2c776369e710da9a62a709901475221022db670fd3e996e7f67b070372dae4341c0eb5627c5b7dcfd4c45a6010f5fd7cf210378143ae674b77ed33bdc93abdea3b13cf5e13e849f5a8bdf86fffdecb26f230a52ae000000000000000400483045022100cca8874e7e9c7f9fc08ea1fa4212cbeedc0b768577f4b136f0acd389d128c0d702207e2ee081b755e315b058bc55e2b35c84164809826b69b10b595b586832d5b46b01483045022100ef042a018bb027fd1406d15c7c3c4e8e9837d3d9f207b44de312ef731813c28b02203aa1bdb9c1427345e1b601f43a753089fbfd6f481d687aa2925971686dc1a13a0147522103a83ee7d4dabdae99e92597d44338fb966d4817d9d18bd3b4bd6c895a1653c67a210378143ae674b77ed33bdc93abdea3b13cf5e13e849f5a8bdf86fffdecb26f230a52ae040048304502210092d35b5fc817c1b0c7d4308036bf864d74e1fea464d8c39423fb04603739a6d00220564f19b9faecc9056f321f35b9a4ccc1e47874011749cb171202939488cea6fe0147304402202048329204eb46dda53a6b7b03111fea06d62fc5ab4ccd8a34a5dcdb2f9b57eb0220078adba3b347c6619318bf5a65698f7556218b056c441688f100feceb2e39f26014752210344c42bbdbf009fd0ed398bbf93bd9e6c7bf614fa891058fde718e9dcb88e63d2210378143ae674b77ed33bdc93abdea3b13cf5e13e849f5a8bdf86fffdecb26f230a52ae00040048304502210084b6e1cb59c8e854d3ad8f44003b8ee80672d3ac9b501a7aa068058a56b77ea802205aabcfe0572c0a26373ae184f44eceb4abe2a67be2f3430139bf39b9a630f3750147304402206f9a3576e25e8042c7764e1ebea16ff5d306857dbfe3d858607d47c09c20ed5b0220755fb66798a5e161da66206377d64ae9de4fc49dfe8203e786bf6b1afd9d02630147522103bc9d4648a103c875604429bf866f5b0984d93960c609622bc6e7740375ecbb3d210378143ae674b77ed33bdc93abdea3b13cf5e13e849f5a8bdf86fffdecb26f230a52ae0400483045022100a58758600944822cc12fd253a594a8055cce84183ddc989d87e1cd30a31aaaae022045ac531daaebbc05c830aaba8eb070aee85301313323b3664df26330fe59dde201483045022100d65c758db3dda3e76441549f621b64da72b8177b72887082e515a6175758f7ac0220363b4c7447bc3cd06575651e074db1bbbc6c92c4a8043d8fe61ac92ff30d666601475221026bf179dd1bc43a672d5781a3bfa210d5c331a4fbb7d05ef54649a33ee9bdd3aa210378143ae674b77ed33bdc93abdea3b13cf5e13e849f5a8bdf86fffdecb26f230a52ae040047304402202b77fb6009384afe277cf7ade55ff4cf051ec82980081a4d4582d72861c2ecc30220765c8ac7d673e1d719c14bb5ca8e4c99db702a0f922c314b6e351c02881258e00147304402206ddc13c9e1c7923992376f17df8e14b99412e795ece8ed49708f893e6cf5ad47022071b82e0c0c4deab82e2eed3a5e4912f93c751ae0f80244e8efa456e303d079cc0147522102a6e3a7270d71058eccd3e57f4b1bceca5b0b376526b50d77f12a5bebc82b289c210378143ae674b77ed33bdc93abdea3b13cf5e13e849f5a8bdf86fffdecb26f230a52ae0400483045022100cd5c5db825f58e51167d519fb5cbb2bfc91fe796b30d62806e83347c1152c2c9022056d9a6402ba47cae742bbb0d736115c73bd214eda36cd80ffa6179c783e8d22c01483045022100c0db90d02a85448b40b764c9e2791a17c9f73da808c30b20cf1286d4bcd85155022016fa1135f6855d80f09a50cc3e1712f1b906cd2a6e25809f7585e153ac0bfa7e014752210276a74a5e97ed433d9033635c6a3f8f9f6eb1819305972cf03e70561fe9c13b47210378143ae674b77ed33bdc93abdea3b13cf5e13e849f5a8bdf86fffdecb26f230a52ae040047304402202be7a60684a9e0f18f67d6779710acbf90c9f25b1a5ad7281353053ae94b68eb022053c11e1aa2da1c76bcd2d8879e4b175b855b47682c543e98fc01b48e28b7cdf90148304502210087338a5e1f5b5ebfd546befbde61b0b92ba19a17065709f404990602ec5f160b02202deee4deb643e27133d8368a13623d7d4b4ec99b17e1b05e7c1a499315a773e0014752210280ec33b75b1892b36ed850791479e4873bc14de16e7363ffa1a1b8f2b860eb2e210378143ae674b77ed33bdc93abdea3b13cf5e13e849f5a8bdf86fffdecb26f230a52ae0400483045022100f0a4fc073332751ff5cb88aac21d2b380fd634a4f9d4a8c2afef39d0a1b942440220653a8051df009ad4dffe976efda848b685301f918603f872bda79924b183cb1f01483045022100bbad0f84253c336cb093884b4c3045e0a6d8e2b624fa605cfbd99d173cf659ce022025f82eb166705cc318c372fb1412e826b8b3875b7fd745b89102c2523a1b6611014752210344c42bbdbf009fd0ed398bbf93bd9e6c7bf614fa891058fde718e9dcb88e63d2210378143ae674b77ed33bdc93abdea3b13cf5e13e849f5a8bdf86fffdecb26f230a52ae0400483045022100ac428dc8f4105e639a572279a7e99469a90782e4f8ae13b28e793dc8d866ca0c02207d865386c28685d20a9501c1fc3bd0a9d4ae5a83082499b443a7d6f560491c1c01483045022100950f3c8ed34ded99ce4c825ac6c1359a94f2e92fde6502fec0a653a1a09bbbbc0220785989c08bdcff9505cc24aca8ffd2751855e049d44fd800bb65375b5bbb8f5e014752210395abe4afecda22f18b3939827e1a770c5dd2ed5c27a2eca4ad1cd4fbd887c80c210378143ae674b77ed33bdc93abdea3b13cf5e13e849f5a8bdf86fffdecb26f230a52ae0400483045022100fb2c6a9764b7ab296072d522ffb338d6c802d219ed7df70910b684e7f8694998022033a52d16b72bc0365bc4075eda8d1331514550121279df736008256b97034be00147304402201aed3bf81259c95d12b0c335ef2efedab90eab79e7becc35b3d9797533dc3d25022044b4fe1761b118278eae9df4621c1342cf0bc251a6e23dc42651aecf3fd413fa0147522102267884ba328f85ecfc1fe40c4b465188762dc32d3708d9c1766ce11b05b1fee5210378143ae674b77ed33bdc93abdea3b13cf5e13e849f5a8bdf86fffdecb26f230a52ae0400483045022100de9843fc139a6b1e5e65bf46d17ed76935c54c7b1aa5f6b4395bd998c7f1b3ed02203fd7352345350d41082517be75b93e5a54f541225006a51bf28da13a4b59559a014730440220159950bd5334e844cc0ef9f71528997a3fbf178e73ffb076758e7ffc4cd2963002204b10d7ad6fa17de0e74b6a7394fee0ace7a2e4906c503a8247bf426de7b8d9760147522103dbe78688aa057d123edc271dc7511ac0c4445617331f1e8841d237d6d84cbe5e210378143ae674b77ed33bdc93abdea3b13cf5e13e849f5a8bdf86fffdecb26f230a52ae0400483045022100b214b9389e3ed0bfe00a2afdfc95d8b1dc3f79c6c3a7fdbf3779a36dcc89a5f902203a3edd3f605340ae01d3c85e68cd10d3153fb88f17dd403e0c9e9d5f2614358f01483045022100ea11d39d6825d0af46e4c43f318e042666ccf3a1b2a44063cc0c4857a17a3c5902201c37afc3c2adf9a5ff3d4dcd9de644a2eadf2bb4acd44fc6ca97b851a82600c301475221032a1a77314064099dd4feb7e497eab72b182eb4c6bd5c68df18a888ca35081d1d210378143ae674b77ed33bdc93abdea3b13cf5e13e849f5a8bdf86fffdecb26f230a52ae0400483045022100b25660fb81b39e4e2b52a5a4884d338133503832d63464c00f59419d36cd4675022008122528a937e5fa051208f1a1fa0aed06e8df849a0470e4523bb99a66dc07f0014730440220037b0edec67abda2936c86810122647cd4f7375c5dcf928cb91d697091629f2102203bd14b4987c2a72e4deda9905e008363ea38e38f1681d3cfa193660cb43c48a0014752210205b0ec9f11d24a26163469a93714b8d33868423a1c9ca8bd478155b2b52d5e26210378143ae674b77ed33bdc93abdea3b13cf5e13e849f5a8bdf86fffdecb26f230a52ae0400483045022100c611ef66a7cb17b4ab0fd6d3ee32d4b816829ba22cca5475553f4a532001eb2402206d9b00c7195793065886486c5fc3b402c5c279ed6fa9b8e28a4f0ec2d0c2f7470147304402204f90cfde0f5718ae82a715a8439ef15732406d8d28bf47c6269f72555b436e1602205a090af2bff7f9eebb5a433eb0852d7051d7d6a33e91698d4ae56ac3b398bb9b0147522102a87cd1f092388e279cc87ea89e36220c2ecc629c63271fcb339d7f4e0ceb3ef2210378143ae674b77ed33bdc93abdea3b13cf5e13e849f5a8bdf86fffdecb26f230a52ae0400483045022100bbaed61678e4d6776dbaff664eae23a53bef1e1ae872a8ed662b87668e5ca3b80220088012893cd4bbf1959009c82a8dca683db4d9301b715357a2107d81722292280147304402205cc90df10a6369356660dcfd71c78aac9a0317a9fb114a1748218df6e3c8dbc2022028cf2289172de17163dce08253433ac0f42aab5ca65039ecbafe053d76fd383a0147522102423ad45b47ce877d431b24f84be231f7af6723d3c77cdc8f59eb0b8bd8f84239210378143ae674b77ed33bdc93abdea3b13cf5e13e849f5a8bdf86fffdecb26f230a52ae00000000", "vin": [{"txinwitness": ["", "30450221008608c8dda79fba9616f065742898da4edcb36a2d3a971261fb9a7eb4be1d37af022075f972d0975439a6d1515037554715e2f4b18cf2e6d601a976c55e1e88ca527301", "3045022100b706b3b865ad6c0a212e80e772007c389689c159a15d7d86ce4be2b33c89564102203f5eaaac83056d6e0237ff3f9b5218b90a69a93a76df0be73cccb722eb0fc5f501", "52210389e9ea128495b221c32c035ac814b624a2ca88fb901f12e9d91df6dac222b6da210378143ae674b77ed33bdc93abdea3b13cf5e13e849f5a8bdf86fffdecb26f230a52ae"], "sequence": 4294967295, "scriptSig": {"hex": "220020d9c27c9874e7836742a00901acfacec748ff1fbfae647c44947a1bcc9662096e", "asm": "0020d9c27c9874e7836742a00901acfacec748ff1fbfae647c44947a1bcc9662096e"}, "vout": 925, "txid": "c19406310b5bd4e5d45944ad3cf4dbbca80fe894f961cab97bcdede136155088"}, {"txinwitness": ["", "3045022100b338fc558964041267568bc8b9ef0af4c4fc356da4494c9aad8b98187eea865c02204f8b379060d287f97826ce9eaff69f438ce9a056dff2c0a2d2c3d3a6dcf5882b01", "3044022013f8237573f627663102cb09a49e8713fe43c189ab00a4a55cc4da4ed117121c02203c0ab1aab5601307084bdb2b915aaed07b87b2e7f59b53ee1e5a2310ea136c4801", "522103dbe78688aa057d123edc271dc7511ac0c4445617331f1e8841d237d6d84cbe5e210378143ae674b77ed33bdc93abdea3b13cf5e13e849f5a8bdf86fffdecb26f230a52ae"], "sequence": 4294967295, "scriptSig": {"hex": "220020f2da694c30ed7bac926f9c04b1d41235b0346f0d9f37355d6255ce7f28701a7e", "asm": "0020f2da694c30ed7bac926f9c04b1d41235b0346f0d9f37355d6255ce7f28701a7e"}, "vout": 1, "txid": "369320fcd7178fff4f5feaab4188c8ad103b0f052e8eba72837027de0f8c8782"}, {"sequence": 4294967295, "scriptSig": {"hex": "0047304402206078c35a7d3c25081ed5d532f67997d7594090d4b9d03f7097eced9e2b49414302207a08ad640f4b7ed4d71ae4f1333bad0c16c0897972456bba539a3fa39929d6bd01473044022013ec32a89dc2834e65bdb3f0d2e3b9fd80b3d7d2848d2b846285c3eafa6683570220517814b5c2228bbaffa5b7ed66a29cc3ed268ddb1e6edcd6c7ea1a8ffd2335db01475221039cd3a545d10c299012b9f64acbb58f37a6af6a5f2a27d24fc7297c8f6f0f963f210378143ae674b77ed33bdc93abdea3b13cf5e13e849f5a8bdf86fffdecb26f230a52ae", "asm": "0 304402206078c35a7d3c25081ed5d532f67997d7594090d4b9d03f7097eced9e2b49414302207a08ad640f4b7ed4d71ae4f1333bad0c16c0897972456bba539a3fa39929d6bd[ALL] 3044022013ec32a89dc2834e65bdb3f0d2e3b9fd80b3d7d2848d2b846285c3eafa6683570220517814b5c2228bbaffa5b7ed66a29cc3ed268ddb1e6edcd6c7ea1a8ffd2335db[ALL] 5221039cd3a545d10c299012b9f64acbb58f37a6af6a5f2a27d24fc7297c8f6f0f963f210378143ae674b77ed33bdc93abdea3b13cf5e13e849f5a8bdf86fffdecb26f230a52ae"}, "vout": 1, "txid": "7bf4bc0a6cc90326c0a7ab4e3223c2ef47c3a2b5f40eea9963602693d990880c"}, {"sequence": 4294967295, "scriptSig": {"hex": "00473044022002e23f36ce1966cc45c3f9858522d563afb09495d0df50553bf1eb7e58d28890022066c1482860a23c8e502a171971fea575f0cd005e16535e6dcabb83fab7a756aa01483045022100e8ed9616a1aaa161adfff9298fba33bdd601da47b2405295c5cbdf50ea67ddfc022023dbc063be0159b4ec26a95b224e84a30fc1e1f8ae87c8109034727dee858d3a0147522103111e20040df37854075b102183badf82712a61485b83c43edaa1a55e8af0db70210378143ae674b77ed33bdc93abdea3b13cf5e13e849f5a8bdf86fffdecb26f230a52ae", "asm": "0 3044022002e23f36ce1966cc45c3f9858522d563afb09495d0df50553bf1eb7e58d28890022066c1482860a23c8e502a171971fea575f0cd005e16535e6dcabb83fab7a756aa[ALL] 3045022100e8ed9616a1aaa161adfff9298fba33bdd601da47b2405295c5cbdf50ea67ddfc022023dbc063be0159b4ec26a95b224e84a30fc1e1f8ae87c8109034727dee858d3a[ALL] 522103111e20040df37854075b102183badf82712a61485b83c43edaa1a55e8af0db70210378143ae674b77ed33bdc93abdea3b13cf5e13e849f5a8bdf86fffdecb26f230a52ae"}, "vout": 1, "txid": "20a5cf754da2dc56bdd21d13a9b98af83c93a79cbc15c74fcf434936fc04fc12"}, {"txinwitness": ["", "30450221008db8d21b174a8f95f03e70de2432183ec6d52a0dd2d137c930b37ef7f1746b770220599ade2a784174cd271a3c0fa049c2110413dfffd545266397dab3ef740b802a01", "304502210099bd8d92342ed582472d8013e23c194a7db9a5488af4fd270685815e11802c710220031e06b885702b45170ba428a08985d24adb31e2a8627a0cba1511c88576ccf701", "52210314934abf1b1e227b5539ac2f715cd749c601d0295f6d5852f1ac15c1095d51d7210378143ae674b77ed33bdc93abdea3b13cf5e13e849f5a8bdf86fffdecb26f230a52ae"], "sequence": 4294967295, "scriptSig": {"hex": "220020cf21e5079ae6aa93fcfd29cd99a70f47a90cab77a8a61f460bd596959e7fc58b", "asm": "0020cf21e5079ae6aa93fcfd29cd99a70f47a90cab77a8a61f460bd596959e7fc58b"}, "vout": 1, "txid": "9cc091ed8bcebf0d966b97b25f4eac656501717beef033ec2d04fd40cd4c10f5"}, {"txinwitness": ["", "3045022100a6a7dac5fa93d9563da55b97584fb6bea0a912538145a9d944ce56b2005288f302207a94b1eae26779c89b84b71b7bf7c6e4b6cb7981c07525abdc3bcdfada2160d901", "304402203633bb717d7411be15d08b0e934f850a7433de95cfc5db7724f31b8e469d799302205b320a933d749cd562b9b3b29258bc081e4927ee75372aed1e342da520ec482901", "522103b056bf194684cd37ec26520f554a7370abba1e079c6179b068f04f2a06778e2b210378143ae674b77ed33bdc93abdea3b13cf5e13e849f5a8bdf86fffdecb26f230a52ae"], "sequence": 4294967295, "scriptSig": {"hex": "220020fbde50177c5ab28fb5e71906e145de1e46eadd9f442591081e06231cfbaa1d84", "asm": "0020fbde50177c5ab28fb5e71906e145de1e46eadd9f442591081e06231cfbaa1d84"}, "vout": 0, "txid": "516fe2c346765b1567b438ac741fb11696bfb6734a2890b0e9ed6acd542264ed"}, {"txinwitness": ["", "3045022100a112e2569f6a6038c94e7c78fd69a5f52e01f39d4d3eaf5c140244693cb016d1022077dcc40d9a0e1384ce5095c609afa0f33aac1d98799395a8836b594a6f282c8801", "3045022100bf29a816aa991d0b462ee8aae8cc27af36dff030e195c9631b5b424d236385d202207766ff49d18c9cc32244f36c36a1d56e9fce4da807356ebded7fbe7eb91b2ec001", "5221030e873221760e13cd4e8e1d9e7f33dec1e44a1037c6dd863c7e3b61b7506f0cfc210378143ae674b77ed33bdc93abdea3b13cf5e13e849f5a8bdf86fffdecb26f230a52ae"], "sequence": 4294967295, "scriptSig": {"hex": "220020ed494d518baf264c0af6291bd73ffabe4a55b661470f5e6a440a84dde22aca1d", "asm": "0020ed494d518baf264c0af6291bd73ffabe4a55b661470f5e6a440a84dde22aca1d"}, "vout": 0, "txid": "7ede54912415947c6ffef838bf69932f681ea258a0c91021380471d72f5f1e13"}, {"txinwitness": ["", "30440220631d8e33370b9042f24e13813cdd39f4359d947b717c1658c0a185bae11782ec0220320ae15501d17440c2436d534b9790e8a993870cb80f25fb4b5b10f94c457f8101", "3044022042be249bcdac9c7701292ab7dc3e3b2f0ed427d451062b3454019f89a773b16f02207c46183b03b83b95ce2a7fe6f2e2e6c5b7ee60dfe2c776369e710da9a62a709901", "5221022db670fd3e996e7f67b070372dae4341c0eb5627c5b7dcfd4c45a6010f5fd7cf210378143ae674b77ed33bdc93abdea3b13cf5e13e849f5a8bdf86fffdecb26f230a52ae"], "sequence": 4294967295, "scriptSig": {"hex": "2200209f5d64355df45758e75b90905a5ff027a1bc6cb308026c4b7dafac9ff79346c7", "asm": "00209f5d64355df45758e75b90905a5ff027a1bc6cb308026c4b7dafac9ff79346c7"}, "vout": 2, "txid": "cac966c15f6c142cb6806967edcdd8cc6378d40cfc021a7981438d7dcec9cb34"}, {"sequence": 4294967295, "scriptSig": {"hex": "0047304402203881bb4fd2934af137e90993e156de0ce12f8226eccc5f83ed9e9cdafb6243ba02201c7383d14bd81eba3fe44e9327960ebb4effe6495a532ff558da380a00903c7501483045022100ae6bbf40f1400c5214dfa0c41e0a93d50817f8e4d4de1c6a120ad530df3d34c20220782bbe615fe3b3d934b2cd796e74b50bfe2fdf318b6f3038cc4452c212b83c950147522102050032f056b9cc59c1bd51bc49cd1e5cb90ef3cacf32d720be12d11fbb0fd3b8210378143ae674b77ed33bdc93abdea3b13cf5e13e849f5a8bdf86fffdecb26f230a52ae", "asm": "0 304402203881bb4fd2934af137e90993e156de0ce12f8226eccc5f83ed9e9cdafb6243ba02201c7383d14bd81eba3fe44e9327960ebb4effe6495a532ff558da380a00903c75[ALL] 3045022100ae6bbf40f1400c5214dfa0c41e0a93d50817f8e4d4de1c6a120ad530df3d34c20220782bbe615fe3b3d934b2cd796e74b50bfe2fdf318b6f3038cc4452c212b83c95[ALL] 522102050032f056b9cc59c1bd51bc49cd1e5cb90ef3cacf32d720be12d11fbb0fd3b8210378143ae674b77ed33bdc93abdea3b13cf5e13e849f5a8bdf86fffdecb26f230a52ae"}, "vout": 0, "txid": "5d4a0ae5fa89aff538db1a9de0117157de9e275127422ebdd21deb24c0e27299"}, {"sequence": 4294967295, "scriptSig": {"hex": "00473044022005e78d2941f62b6c3a4f5582d746fac05c9fde4630b6aae4b7e414e9ca563dce02205f6b897f6b81ec8f6aadaa405c0c2b9e2d9336dde4d071fc898f43d67ba24cc20147304402207c26d5185f87b723fef55be6a3bba705aaf117e0466b274334230aa6a9f2f3e3022001befb0a3019bf139fd2d823227e7a7239105a6a0bf9586c0467dcd2e8c710380147522102050032f056b9cc59c1bd51bc49cd1e5cb90ef3cacf32d720be12d11fbb0fd3b8210378143ae674b77ed33bdc93abdea3b13cf5e13e849f5a8bdf86fffdecb26f230a52ae", "asm": "0 3044022005e78d2941f62b6c3a4f5582d746fac05c9fde4630b6aae4b7e414e9ca563dce02205f6b897f6b81ec8f6aadaa405c0c2b9e2d9336dde4d071fc898f43d67ba24cc2[ALL] 304402207c26d5185f87b723fef55be6a3bba705aaf117e0466b274334230aa6a9f2f3e3022001befb0a3019bf139fd2d823227e7a7239105a6a0bf9586c0467dcd2e8c71038[ALL] 522102050032f056b9cc59c1bd51bc49cd1e5cb90ef3cacf32d720be12d11fbb0fd3b8210378143ae674b77ed33bdc93abdea3b13cf5e13e849f5a8bdf86fffdecb26f230a52ae"}, "vout": 0, "txid": "49fc5ef9a14662eb983c283ebce26b486c6560b720d1b1ad9a17e1bcb68a267e"}, {"sequence": 4294967295, "scriptSig": {"hex": "00483045022100ac377668cc02a40930ac4db27f9998c01f1b33b211d40853f3c253d5fde6efcb022022d2c32a886eaa736dce5ab2c3fd557a0f0aaa30c7db9b94ae020825dd21503b01483045022100ebb247437c3a181a7dd0ea20ee04bcb6bc0dea641e337c87da8c5328ab1cca9702207d6292670c5c6c959988082d6450ae951323af79a3b4997379615e2e725514060147522102050032f056b9cc59c1bd51bc49cd1e5cb90ef3cacf32d720be12d11fbb0fd3b8210378143ae674b77ed33bdc93abdea3b13cf5e13e849f5a8bdf86fffdecb26f230a52ae", "asm": "0 3045022100ac377668cc02a40930ac4db27f9998c01f1b33b211d40853f3c253d5fde6efcb022022d2c32a886eaa736dce5ab2c3fd557a0f0aaa30c7db9b94ae020825dd21503b[ALL] 3045022100ebb247437c3a181a7dd0ea20ee04bcb6bc0dea641e337c87da8c5328ab1cca9702207d6292670c5c6c959988082d6450ae951323af79a3b4997379615e2e72551406[ALL] 522102050032f056b9cc59c1bd51bc49cd1e5cb90ef3cacf32d720be12d11fbb0fd3b8210378143ae674b77ed33bdc93abdea3b13cf5e13e849f5a8bdf86fffdecb26f230a52ae"}, "vout": 0, "txid": "e586ade55788cfb54c9c9d6a273f6eb670920c82898e277bb426a577c5dc31e3"}, {"sequence": 4294967295, "scriptSig": {"hex": "00473044022053bb79219d7ba347e000a9b17ba619151f6ef50c773777401e9fffa014a855df022032176c782155ce477c59617174b7bb0479d1031f9464038388d3a864d30b732201483045022100ae2506c0c9d46d5040d7a7dabfd74179938373ee81d418f464e3f5eaf431acfe02206518e899af791a850968a359b53a26e9a663f9438636a8293d37e224d5fc596a0147522102050032f056b9cc59c1bd51bc49cd1e5cb90ef3cacf32d720be12d11fbb0fd3b8210378143ae674b77ed33bdc93abdea3b13cf5e13e849f5a8bdf86fffdecb26f230a52ae", "asm": "0 3044022053bb79219d7ba347e000a9b17ba619151f6ef50c773777401e9fffa014a855df022032176c782155ce477c59617174b7bb0479d1031f9464038388d3a864d30b7322[ALL] 3045022100ae2506c0c9d46d5040d7a7dabfd74179938373ee81d418f464e3f5eaf431acfe02206518e899af791a850968a359b53a26e9a663f9438636a8293d37e224d5fc596a[ALL] 522102050032f056b9cc59c1bd51bc49cd1e5cb90ef3cacf32d720be12d11fbb0fd3b8210378143ae674b77ed33bdc93abdea3b13cf5e13e849f5a8bdf86fffdecb26f230a52ae"}, "vout": 0, "txid": "c392d5394deffc6a8c008af7c23579e93401d1e56f74e817c84b48ab2c4cf569"}, {"sequence": 4294967295, "scriptSig": {"hex": "00483045022100ac171f1cb15317b59e284f2b9aa21707e9c3bde5a51c61463316709d8a4d616602200427d88b35e267b323034f28a9043ece89b157d251833449174fc7f8884d23f70147304402206350acdd798b6514eb66bc2266a8a3224bd3e0aeca3afe5a0e1637f3b92a7b2902204e025871295a5c1376879840d0a2359d2e81d794b7bdaf75d46c5d96462a52670147522103f1a8c994643ac3131ef03ee413598a8a6dd321fedba5e7134a613b11af0c43f8210378143ae674b77ed33bdc93abdea3b13cf5e13e849f5a8bdf86fffdecb26f230a52ae", "asm": "0 3045022100ac171f1cb15317b59e284f2b9aa21707e9c3bde5a51c61463316709d8a4d616602200427d88b35e267b323034f28a9043ece89b157d251833449174fc7f8884d23f7[ALL] 304402206350acdd798b6514eb66bc2266a8a3224bd3e0aeca3afe5a0e1637f3b92a7b2902204e025871295a5c1376879840d0a2359d2e81d794b7bdaf75d46c5d96462a5267[ALL] 522103f1a8c994643ac3131ef03ee413598a8a6dd321fedba5e7134a613b11af0c43f8210378143ae674b77ed33bdc93abdea3b13cf5e13e849f5a8bdf86fffdecb26f230a52ae"}, "vout": 1, "txid": "a1d7a35d698fcb08df44603e670af24d08529c3eab559d28e3a6c359a74859fe"}, {"sequence": 4294967295, "scriptSig": {"hex": "004730440220260958751b9ab79cddc4f6842697dd188790ff7717444598d09681b3735067ff0220620c4ba74c24de48d8e35daf34a014844193dcb0efeb57669916efeaa74f90e801483045022100a53597211164a40e9790bd83bd4f4cbb623d1586fdd308f62dcb6a2bd7b9e78802206f22a238189aaeb8c486c8297bb405ec1e89236679d0c22a1a430fce37c7af2f0147522102e40ba7ec4a8c79da930d6c50bb765cd522cb675c4f3e85b4c4ee027a0585dcfd210378143ae674b77ed33bdc93abdea3b13cf5e13e849f5a8bdf86fffdecb26f230a52ae", "asm": "0 30440220260958751b9ab79cddc4f6842697dd188790ff7717444598d09681b3735067ff0220620c4ba74c24de48d8e35daf34a014844193dcb0efeb57669916efeaa74f90e8[ALL] 3045022100a53597211164a40e9790bd83bd4f4cbb623d1586fdd308f62dcb6a2bd7b9e78802206f22a238189aaeb8c486c8297bb405ec1e89236679d0c22a1a430fce37c7af2f[ALL] 522102e40ba7ec4a8c79da930d6c50bb765cd522cb675c4f3e85b4c4ee027a0585dcfd210378143ae674b77ed33bdc93abdea3b13cf5e13e849f5a8bdf86fffdecb26f230a52ae"}, "vout": 1, "txid": "ada64eee020d35cc391a8b568ce5056e08344971c117b963c1acc961c17a9156"}, {"sequence": 4294967295, "scriptSig": {"hex": "00483045022100f572d830f84111303142cc2433d705c57b7bc9e0ed9f242350f852fb5b868d88022072bd5f9354c349249683c278dbfce478a15ebba5d236f07dba3981a03a5009d10148304502210087dc34a01b146e4a8ff29aeb53226f8ee8cf1acaa44e669aad63093d58c5ef5d022049d221e7d9e0898ea60631c2960496d7857ee98d0ab81bea83e90738d064e8fa014752210205deee0191583c777935861cea38710e50b132e26839bbdbcc14c8e40a1b017c210378143ae674b77ed33bdc93abdea3b13cf5e13e849f5a8bdf86fffdecb26f230a52ae", "asm": "0 3045022100f572d830f84111303142cc2433d705c57b7bc9e0ed9f242350f852fb5b868d88022072bd5f9354c349249683c278dbfce478a15ebba5d236f07dba3981a03a5009d1[ALL] 304502210087dc34a01b146e4a8ff29aeb53226f8ee8cf1acaa44e669aad63093d58c5ef5d022049d221e7d9e0898ea60631c2960496d7857ee98d0ab81bea83e90738d064e8fa[ALL] 52210205deee0191583c777935861cea38710e50b132e26839bbdbcc14c8e40a1b017c210378143ae674b77ed33bdc93abdea3b13cf5e13e849f5a8bdf86fffdecb26f230a52ae"}, "vout": 1, "txid": "fd6b9d44adbc8f964139090829b190382c510b3195b36c86db52c2324ec1990a"}, {"txinwitness": ["", "3045022100cca8874e7e9c7f9fc08ea1fa4212cbeedc0b768577f4b136f0acd389d128c0d702207e2ee081b755e315b058bc55e2b35c84164809826b69b10b595b586832d5b46b01", "3045022100ef042a018bb027fd1406d15c7c3c4e8e9837d3d9f207b44de312ef731813c28b02203aa1bdb9c1427345e1b601f43a753089fbfd6f481d687aa2925971686dc1a13a01", "522103a83ee7d4dabdae99e92597d44338fb966d4817d9d18bd3b4bd6c895a1653c67a210378143ae674b77ed33bdc93abdea3b13cf5e13e849f5a8bdf86fffdecb26f230a52ae"], "sequence": 4294967295, "scriptSig": {"hex": "220020601228dfe4e4a8b195b1323c6fff76a3cb6a98a74b3c4fbf780a0549416e744a", "asm": "0020601228dfe4e4a8b195b1323c6fff76a3cb6a98a74b3c4fbf780a0549416e744a"}, "vout": 1, "txid": "140cf61f158b0f73b68da5c8b6876e38f2ff373bfaff7fe5eed5bbb2b9096297"}, {"txinwitness": ["", "304502210092d35b5fc817c1b0c7d4308036bf864d74e1fea464d8c39423fb04603739a6d00220564f19b9faecc9056f321f35b9a4ccc1e47874011749cb171202939488cea6fe01", "304402202048329204eb46dda53a6b7b03111fea06d62fc5ab4ccd8a34a5dcdb2f9b57eb0220078adba3b347c6619318bf5a65698f7556218b056c441688f100feceb2e39f2601", "52210344c42bbdbf009fd0ed398bbf93bd9e6c7bf614fa891058fde718e9dcb88e63d2210378143ae674b77ed33bdc93abdea3b13cf5e13e849f5a8bdf86fffdecb26f230a52ae"], "sequence": 4294967295, "scriptSig": {"hex": "220020b5b807b8e7692728596addf16e7b35ba7a2ded0247a9d2c0f3dbb1860d0e79ff", "asm": "0020b5b807b8e7692728596addf16e7b35ba7a2ded0247a9d2c0f3dbb1860d0e79ff"}, "vout": 1, "txid": "57556a5365c435209c408e3c353820caac734c4fa3acf0125197726168d7bfee"}, {"sequence": 4294967295, "scriptSig": {"hex": "00473044022047541c98b0241df3c7d556aeceddc3fc23c1eca49be9d72e0a0adfdf4f93e87602204278f542c9825dab1021b2ae2131eaf21de596f71d69fda84bcb3b0531c2790001483045022100e166f53c1bfac701818df7337852a4284d978b8c803d0cb5c31a2f8abf5f74bd02204e328a5896c52e7e0307fb059ed27d3125af11f46110309ea5a75b23e04944f30147522102cb27f12292da5e17a572c00da1c6a0ba87bc75abdb1bdb73447d9ebd9b97041d210378143ae674b77ed33bdc93abdea3b13cf5e13e849f5a8bdf86fffdecb26f230a52ae", "asm": "0 3044022047541c98b0241df3c7d556aeceddc3fc23c1eca49be9d72e0a0adfdf4f93e87602204278f542c9825dab1021b2ae2131eaf21de596f71d69fda84bcb3b0531c27900[ALL] 3045022100e166f53c1bfac701818df7337852a4284d978b8c803d0cb5c31a2f8abf5f74bd02204e328a5896c52e7e0307fb059ed27d3125af11f46110309ea5a75b23e04944f3[ALL] 522102cb27f12292da5e17a572c00da1c6a0ba87bc75abdb1bdb73447d9ebd9b97041d210378143ae674b77ed33bdc93abdea3b13cf5e13e849f5a8bdf86fffdecb26f230a52ae"}, "vout": 1, "txid": "19abc2e33f46a25355c9d414de0cf5a717691412de4d5e8fb12d36528b63a443"}, {"txinwitness": ["", "304502210084b6e1cb59c8e854d3ad8f44003b8ee80672d3ac9b501a7aa068058a56b77ea802205aabcfe0572c0a26373ae184f44eceb4abe2a67be2f3430139bf39b9a630f37501", "304402206f9a3576e25e8042c7764e1ebea16ff5d306857dbfe3d858607d47c09c20ed5b0220755fb66798a5e161da66206377d64ae9de4fc49dfe8203e786bf6b1afd9d026301", "522103bc9d4648a103c875604429bf866f5b0984d93960c609622bc6e7740375ecbb3d210378143ae674b77ed33bdc93abdea3b13cf5e13e849f5a8bdf86fffdecb26f230a52ae"], "sequence": 4294967295, "scriptSig": {"hex": "2200209776282fd9cbfcd573c40da3950d9a2d6da2c590ea4a220a322a29a07b1d033e", "asm": "00209776282fd9cbfcd573c40da3950d9a2d6da2c590ea4a220a322a29a07b1d033e"}, "vout": 1, "txid": "a191c8a977d30de8620fc6982e642008a75677c45d7445271be25dd0811c36a9"}, {"txinwitness": ["", "3045022100a58758600944822cc12fd253a594a8055cce84183ddc989d87e1cd30a31aaaae022045ac531daaebbc05c830aaba8eb070aee85301313323b3664df26330fe59dde201", "3045022100d65c758db3dda3e76441549f621b64da72b8177b72887082e515a6175758f7ac0220363b4c7447bc3cd06575651e074db1bbbc6c92c4a8043d8fe61ac92ff30d666601", "5221026bf179dd1bc43a672d5781a3bfa210d5c331a4fbb7d05ef54649a33ee9bdd3aa210378143ae674b77ed33bdc93abdea3b13cf5e13e849f5a8bdf86fffdecb26f230a52ae"], "sequence": 4294967295, "scriptSig": {"hex": "220020bdb67b25318a646204c121889c885c649d5050ea37c243dabbebf740dd879ae9", "asm": "0020bdb67b25318a646204c121889c885c649d5050ea37c243dabbebf740dd879ae9"}, "vout": 1, "txid": "0faa8c7e2535ad6e0b72f0df851c28dae13de2c0d57a999f01e014e6cfc8a89e"}, {"txinwitness": ["", "304402202b77fb6009384afe277cf7ade55ff4cf051ec82980081a4d4582d72861c2ecc30220765c8ac7d673e1d719c14bb5ca8e4c99db702a0f922c314b6e351c02881258e001", "304402206ddc13c9e1c7923992376f17df8e14b99412e795ece8ed49708f893e6cf5ad47022071b82e0c0c4deab82e2eed3a5e4912f93c751ae0f80244e8efa456e303d079cc01", "522102a6e3a7270d71058eccd3e57f4b1bceca5b0b376526b50d77f12a5bebc82b289c210378143ae674b77ed33bdc93abdea3b13cf5e13e849f5a8bdf86fffdecb26f230a52ae"], "sequence": 4294967295, "scriptSig": {"hex": "2200207eca9ef7c6d31d73e27405c1df7c808c83f17f177d93bbd41426d7db6917846a", "asm": "00207eca9ef7c6d31d73e27405c1df7c808c83f17f177d93bbd41426d7db6917846a"}, "vout": 0, "txid": "fcbb0f06b7be59adac320033a15bc5c074990b522b477bb8992f180a847b5f9b"}, {"txinwitness": ["", "3045022100cd5c5db825f58e51167d519fb5cbb2bfc91fe796b30d62806e83347c1152c2c9022056d9a6402ba47cae742bbb0d736115c73bd214eda36cd80ffa6179c783e8d22c01", "3045022100c0db90d02a85448b40b764c9e2791a17c9f73da808c30b20cf1286d4bcd85155022016fa1135f6855d80f09a50cc3e1712f1b906cd2a6e25809f7585e153ac0bfa7e01", "52210276a74a5e97ed433d9033635c6a3f8f9f6eb1819305972cf03e70561fe9c13b47210378143ae674b77ed33bdc93abdea3b13cf5e13e849f5a8bdf86fffdecb26f230a52ae"], "sequence": 4294967295, "scriptSig": {"hex": "2200203cecfe597f043a4e1a3307f69a78c5caa49703664bd2931f60a6bb69b07cac31", "asm": "00203cecfe597f043a4e1a3307f69a78c5caa49703664bd2931f60a6bb69b07cac31"}, "vout": 1, "txid": "5cf58cf173af1cf81ec145e90765d07810be7a4269b4d38efc6a9540ab9e53e0"}, {"txinwitness": ["", "304402202be7a60684a9e0f18f67d6779710acbf90c9f25b1a5ad7281353053ae94b68eb022053c11e1aa2da1c76bcd2d8879e4b175b855b47682c543e98fc01b48e28b7cdf901", "304502210087338a5e1f5b5ebfd546befbde61b0b92ba19a17065709f404990602ec5f160b02202deee4deb643e27133d8368a13623d7d4b4ec99b17e1b05e7c1a499315a773e001", "52210280ec33b75b1892b36ed850791479e4873bc14de16e7363ffa1a1b8f2b860eb2e210378143ae674b77ed33bdc93abdea3b13cf5e13e849f5a8bdf86fffdecb26f230a52ae"], "sequence": 4294967295, "scriptSig": {"hex": "220020194f4ed21ec42870be80d0952d2bb5b0a7d88ff2d0645b6c4375dd78952e2cd4", "asm": "0020194f4ed21ec42870be80d0952d2bb5b0a7d88ff2d0645b6c4375dd78952e2cd4"}, "vout": 7, "txid": "398de65be9325e18793048bfd48460f20548505581cf068e3f8b58f28484fe6f"}, {"txinwitness": ["", "3045022100f0a4fc073332751ff5cb88aac21d2b380fd634a4f9d4a8c2afef39d0a1b942440220653a8051df009ad4dffe976efda848b685301f918603f872bda79924b183cb1f01", "3045022100bbad0f84253c336cb093884b4c3045e0a6d8e2b624fa605cfbd99d173cf659ce022025f82eb166705cc318c372fb1412e826b8b3875b7fd745b89102c2523a1b661101", "52210344c42bbdbf009fd0ed398bbf93bd9e6c7bf614fa891058fde718e9dcb88e63d2210378143ae674b77ed33bdc93abdea3b13cf5e13e849f5a8bdf86fffdecb26f230a52ae"], "sequence": 4294967295, "scriptSig": {"hex": "220020b5b807b8e7692728596addf16e7b35ba7a2ded0247a9d2c0f3dbb1860d0e79ff", "asm": "0020b5b807b8e7692728596addf16e7b35ba7a2ded0247a9d2c0f3dbb1860d0e79ff"}, "vout": 1, "txid": "55d9d559508fe475bf9529c57ebc7a32de139d4a112405dd0e71968f0c5b2df3"}, {"txinwitness": ["", "3045022100ac428dc8f4105e639a572279a7e99469a90782e4f8ae13b28e793dc8d866ca0c02207d865386c28685d20a9501c1fc3bd0a9d4ae5a83082499b443a7d6f560491c1c01", "3045022100950f3c8ed34ded99ce4c825ac6c1359a94f2e92fde6502fec0a653a1a09bbbbc0220785989c08bdcff9505cc24aca8ffd2751855e049d44fd800bb65375b5bbb8f5e01", "52210395abe4afecda22f18b3939827e1a770c5dd2ed5c27a2eca4ad1cd4fbd887c80c210378143ae674b77ed33bdc93abdea3b13cf5e13e849f5a8bdf86fffdecb26f230a52ae"], "sequence": 4294967295, "scriptSig": {"hex": "2200200ba01d84deadba224a2fc8e5bc588871fab222a69894031d8a0306deb674e794", "asm": "00200ba01d84deadba224a2fc8e5bc588871fab222a69894031d8a0306deb674e794"}, "vout": 1, "txid": "f36d448016a82be574bd2108352bb909be310c531280013c92b316fd128553c9"}, {"txinwitness": ["", "3045022100fb2c6a9764b7ab296072d522ffb338d6c802d219ed7df70910b684e7f8694998022033a52d16b72bc0365bc4075eda8d1331514550121279df736008256b97034be001", "304402201aed3bf81259c95d12b0c335ef2efedab90eab79e7becc35b3d9797533dc3d25022044b4fe1761b118278eae9df4621c1342cf0bc251a6e23dc42651aecf3fd413fa01", "522102267884ba328f85ecfc1fe40c4b465188762dc32d3708d9c1766ce11b05b1fee5210378143ae674b77ed33bdc93abdea3b13cf5e13e849f5a8bdf86fffdecb26f230a52ae"], "sequence": 4294967295, "scriptSig": {"hex": "22002044ab9fb852a0496bde05b5dba2f09329a6d5c1999ba968c3b01a8897cc026950", "asm": "002044ab9fb852a0496bde05b5dba2f09329a6d5c1999ba968c3b01a8897cc026950"}, "vout": 1, "txid": "f8ac0282dd9aa64b02814d6aaa98682a209ec43ba01d4b36d30876c23670aff6"}, {"txinwitness": ["", "3045022100de9843fc139a6b1e5e65bf46d17ed76935c54c7b1aa5f6b4395bd998c7f1b3ed02203fd7352345350d41082517be75b93e5a54f541225006a51bf28da13a4b59559a01", "30440220159950bd5334e844cc0ef9f71528997a3fbf178e73ffb076758e7ffc4cd2963002204b10d7ad6fa17de0e74b6a7394fee0ace7a2e4906c503a8247bf426de7b8d97601", "522103dbe78688aa057d123edc271dc7511ac0c4445617331f1e8841d237d6d84cbe5e210378143ae674b77ed33bdc93abdea3b13cf5e13e849f5a8bdf86fffdecb26f230a52ae"], "sequence": 4294967295, "scriptSig": {"hex": "220020f2da694c30ed7bac926f9c04b1d41235b0346f0d9f37355d6255ce7f28701a7e", "asm": "0020f2da694c30ed7bac926f9c04b1d41235b0346f0d9f37355d6255ce7f28701a7e"}, "vout": 2, "txid": "11fe59e076d7ec8170baf52d43f3408452502557a556cb25852503dbbe5098de"}, {"txinwitness": ["", "3045022100b214b9389e3ed0bfe00a2afdfc95d8b1dc3f79c6c3a7fdbf3779a36dcc89a5f902203a3edd3f605340ae01d3c85e68cd10d3153fb88f17dd403e0c9e9d5f2614358f01", "3045022100ea11d39d6825d0af46e4c43f318e042666ccf3a1b2a44063cc0c4857a17a3c5902201c37afc3c2adf9a5ff3d4dcd9de644a2eadf2bb4acd44fc6ca97b851a82600c301", "5221032a1a77314064099dd4feb7e497eab72b182eb4c6bd5c68df18a888ca35081d1d210378143ae674b77ed33bdc93abdea3b13cf5e13e849f5a8bdf86fffdecb26f230a52ae"], "sequence": 4294967295, "scriptSig": {"hex": "220020412ca1396a537babafe519965d31bc3bbe2a629808f3c3f5b31d1385da59be73", "asm": "0020412ca1396a537babafe519965d31bc3bbe2a629808f3c3f5b31d1385da59be73"}, "vout": 0, "txid": "f3b734a51f5305afe02664b075393052d74e0ecb975159ea9d8ace0a4e4e01db"}, {"txinwitness": ["", "3045022100b25660fb81b39e4e2b52a5a4884d338133503832d63464c00f59419d36cd4675022008122528a937e5fa051208f1a1fa0aed06e8df849a0470e4523bb99a66dc07f001", "30440220037b0edec67abda2936c86810122647cd4f7375c5dcf928cb91d697091629f2102203bd14b4987c2a72e4deda9905e008363ea38e38f1681d3cfa193660cb43c48a001", "52210205b0ec9f11d24a26163469a93714b8d33868423a1c9ca8bd478155b2b52d5e26210378143ae674b77ed33bdc93abdea3b13cf5e13e849f5a8bdf86fffdecb26f230a52ae"], "sequence": 4294967295, "scriptSig": {"hex": "220020038854003e85c118fc878266083d3f2a03e7dd85f9f0e8a7f79fc735d1800722", "asm": "0020038854003e85c118fc878266083d3f2a03e7dd85f9f0e8a7f79fc735d1800722"}, "vout": 1, "txid": "8be52b5ce09a79904b3eb9a6ede4c90c6638cc24a69be79744c70e6091a0f9c8"}, {"txinwitness": ["", "3045022100c611ef66a7cb17b4ab0fd6d3ee32d4b816829ba22cca5475553f4a532001eb2402206d9b00c7195793065886486c5fc3b402c5c279ed6fa9b8e28a4f0ec2d0c2f74701", "304402204f90cfde0f5718ae82a715a8439ef15732406d8d28bf47c6269f72555b436e1602205a090af2bff7f9eebb5a433eb0852d7051d7d6a33e91698d4ae56ac3b398bb9b01", "522102a87cd1f092388e279cc87ea89e36220c2ecc629c63271fcb339d7f4e0ceb3ef2210378143ae674b77ed33bdc93abdea3b13cf5e13e849f5a8bdf86fffdecb26f230a52ae"], "sequence": 4294967295, "scriptSig": {"hex": "220020bc77c541ee836c22a112880d3c08dd86598549c50c64a5ec55c3fc6fef2ee510", "asm": "0020bc77c541ee836c22a112880d3c08dd86598549c50c64a5ec55c3fc6fef2ee510"}, "vout": 0, "txid": "788555a6853ec67a65428421b37350f44a3d1dcbc287f26fa09e794c0f3ece73"}, {"txinwitness": ["", "3045022100bbaed61678e4d6776dbaff664eae23a53bef1e1ae872a8ed662b87668e5ca3b80220088012893cd4bbf1959009c82a8dca683db4d9301b715357a2107d817222922801", "304402205cc90df10a6369356660dcfd71c78aac9a0317a9fb114a1748218df6e3c8dbc2022028cf2289172de17163dce08253433ac0f42aab5ca65039ecbafe053d76fd383a01", "522102423ad45b47ce877d431b24f84be231f7af6723d3c77cdc8f59eb0b8bd8f84239210378143ae674b77ed33bdc93abdea3b13cf5e13e849f5a8bdf86fffdecb26f230a52ae"], "sequence": 4294967295, "scriptSig": {"hex": "2200207baa9ae255fa40704f6c9e360176db85948b6b3a0e00f0a30669be38e7282e6a", "asm": "00207baa9ae255fa40704f6c9e360176db85948b6b3a0e00f0a30669be38e7282e6a"}, "vout": 0, "txid": "02121a88c899705c2efca004b3fb59c23bce8cebd7a2e5a5a7e2e6a4185ba18c"}], "txid": "be393437c1e458448976c3cce9d75aeb5c86649c103c1d4d3fbaa2306246a853", "blocktime": 1537869901, "version": 1, "confirmations": 11524, "time": 1537869901, "locktime": 0, "vsize": 5417, "size": 8880}