{"hash": "f7638773407a08c6e404e69af19d35788be1df46f503af4e41ef6d2374495e6b", "blockhash": "00000000000000000017f5eb5941039fbcee6240d03bc1f2f8e35350df66a1d8", "vout": [{"scriptPubKey": {"reqSigs": 1, "hex": "76a914b7be3e452735ba040850819d430ff8818ce1965488ac", "addresses": ["1HkYZSMkNV4ywdVnqj7msXkFFFCEFc9CtV"], "asm": "OP_DUP OP_HASH160 b7be3e452735ba040850819d430ff8818ce19654 OP_EQUALVERIFY OP_CHECKSIG", "type": "pubkeyhash"}, "value": 0.0034646, "n": 0}, {"scriptPubKey": {"reqSigs": 1, "hex": "a9147c95942472b448cff88905e22d3e9c067015302587", "addresses": ["3D3kuEraWA1fREr8C33pG2MyFhxFxKvFNy"], "asm": "OP_HASH160 7c95942472b448cff88905e22d3e9c0670153025 OP_EQUAL", "type": "scripthash"}, "value": 0.01001063, "n": 1}], "hex": "0200000000010263a59247bf448697908e8e400ab2611c02668bc25d1853e0fbc8d12952864eca09000000171600148bc4af84af44053df486c30bfb21d413c0f8fc89feffffffd034b213b6e2971eaa5cad2359cb6e7b17543d73777412fa9fd4e935d3d13ade0100000017160014ea605768f49d2188ed9b6d4e48fd394c23151ff6feffffff025c490500000000001976a914b7be3e452735ba040850819d430ff8818ce1965488ac67460f000000000017a9147c95942472b448cff88905e22d3e9c0670153025870247304402203cbd099da6c1bf93848a0a4846e7c813a312b625a48877743a19d1f5f488d45102207b22f5a3d386e80361ffb7337cd36aaa39c28b630d18c30bb2cc0ccfc345135c012102110f9785e8e73f0549bb093f6e06993fa391f0f6868799ae2b037e43034388ed02483045022100c8adb3e3a4e7c527ae9d36128c444c1d8e4cf20b95ee3e5700ddf391e7938ea2022061838950954b7b80036ef9c08ddfdf6db70c13b6b830f760c4335025b35f2ccd01210200a5ecf516b3b884df06d4b7383009c469f2d94f4d20a19f2a44dccb8ab9b62a15490800", "vin": [{"txinwitness": ["304402203cbd099da6c1bf93848a0a4846e7c813a312b625a48877743a19d1f5f488d45102207b22f5a3d386e80361ffb7337cd36aaa39c28b630d18c30bb2cc0ccfc345135c01", "02110f9785e8e73f0549bb093f6e06993fa391f0f6868799ae2b037e43034388ed"], "sequence": 4294967294, "scriptSig": {"hex": "1600148bc4af84af44053df486c30bfb21d413c0f8fc89", "asm": "00148bc4af84af44053df486c30bfb21d413c0f8fc89"}, "vout": 9, "txid": "ca4e865229d1c8fbe053185dc28b66021c61b20a408e8e90978644bf4792a563"}, {"txinwitness": ["3045022100c8adb3e3a4e7c527ae9d36128c444c1d8e4cf20b95ee3e5700ddf391e7938ea2022061838950954b7b80036ef9c08ddfdf6db70c13b6b830f760c4335025b35f2ccd01", "0200a5ecf516b3b884df06d4b7383009c469f2d94f4d20a19f2a44dccb8ab9b62a"], "sequence": 4294967294, "scriptSig": {"hex": "160014ea605768f49d2188ed9b6d4e48fd394c23151ff6", "asm": "0014ea605768f49d2188ed9b6d4e48fd394c23151ff6"}, "vout": 1, "txid": "de3ad1d335e9d49ffa127477733d54177b6ecb5923ad5caa1e97e2b613b234d0"}], "txid": "be497a7fdb9dd24672d2b5ef2531e9ba92bbc38b4a1300921ed4a66d9be4ce88", "blocktime": 1537874412, "version": 2, "confirmations": 11468, "time": 1537874412, "locktime": 542997, "vsize": 259, "size": 421}