{"hash": "e226fd7527c56b9ec9a78cfc7dc4019daac45518f4323cc31cff41c2f1954ea0", "blockhash": "000000000000000000022b45ed06c6f4ccd3cf7fb5ba4856ebd2e58215665228", "vout": [{"scriptPubKey": {"reqSigs": 1, "hex": "a914cfaabfe8c271f99a4364b5197ba50c6cddb7adb987", "addresses": ["3Ld4M9RPwEG3VeQbHcC1PsKUndQL7VYLZP"], "asm": "OP_HASH160 cfaabfe8c271f99a4364b5197ba50c6cddb7adb9 OP_EQUAL", "type": "scripthash"}, "value": 0.07776581, "n": 0}, {"scriptPubKey": {"reqSigs": 1, "hex": "a9142273b4048393ce589491a58059921a37e903d76787", "addresses": ["34qBWGKAD2QMzFtVKejGrnhC7D2sqydC2F"], "asm": "OP_HASH160 2273b4048393ce589491a58059921a37e903d767 OP_EQUAL", "type": "scripthash"}, "value": 0.39033436, "n": 1}], "hex": "01000000000101178a409d85624bb8260086aeb65e39fa36e875e7b0abd14e5d66e770e9873ec8010000002322002051d72f763a1164ca3e0e209ab84da0f4d768db6d1a7ab459c54cc6c41c577ae9ffffffff0245a976000000000017a914cfaabfe8c271f99a4364b5197ba50c6cddb7adb9875c9a53020000000017a9142273b4048393ce589491a58059921a37e903d767870400473044022022435af8efdd4766503f19af3079e11fc393fa9a2258dacf0ea6e5b7c947db2d022032a242e60577da2cdcb468f27765e3fc53ea497500a2720457ae5b552ac48be80147304402205841db244800ba90fec588a84cd147d38ab95735af32a25c5befa6ff2f183e00022071467a6cdec2967369f341593960e31904563167b883f72c7654bee993ce60f30147522102a79c6fce4c82c0562a8f748cac853a81a6b0400dc7ccea07be2f117e826307f421033e4af03ed09dbd8a417ba042650d5bd1db7f14f271a8f660974e3abf1fdfa4da52ae00000000", "vin": [{"txinwitness": ["", "3044022022435af8efdd4766503f19af3079e11fc393fa9a2258dacf0ea6e5b7c947db2d022032a242e60577da2cdcb468f27765e3fc53ea497500a2720457ae5b552ac48be801", "304402205841db244800ba90fec588a84cd147d38ab95735af32a25c5befa6ff2f183e00022071467a6cdec2967369f341593960e31904563167b883f72c7654bee993ce60f301", "522102a79c6fce4c82c0562a8f748cac853a81a6b0400dc7ccea07be2f117e826307f421033e4af03ed09dbd8a417ba042650d5bd1db7f14f271a8f660974e3abf1fdfa4da52ae"], "sequence": 4294967295, "scriptSig": {"hex": "22002051d72f763a1164ca3e0e209ab84da0f4d768db6d1a7ab459c54cc6c41c577ae9", "asm": "002051d72f763a1164ca3e0e209ab84da0f4d768db6d1a7ab459c54cc6c41c577ae9"}, "vout": 1, "txid": "c83e87e970e7665d4ed1abb0e775e836fa395eb6ae860026b84b62859d408a17"}], "txid": "be4961a35a06fc816a6c890fbc7f7b1335967d8d866644f4dda54b3f0cc1b577", "blocktime": 1537869901, "version": 1, "confirmations": 11524, "time": 1537869901, "locktime": 0, "vsize": 205, "size": 370}