{"hash": "d60dfd33d57932a29e1af2fe1eb07ca1e83b39483916f9780107c9fa8e5a0def", "blockhash": "0000000000000000001e0dab787dd257d1dbfcb92a98c2207d5e1078be1f4165", "vout": [{"scriptPubKey": {"reqSigs": 1, "hex": "76a91476e3ddda807a8845bcf2b51cc7e17872e450768888ac", "addresses": ["1Bqdi5zFTPz2qC7mMkP2Z2oLmi4zHJH9PH"], "asm": "OP_DUP OP_HASH160 76e3ddda807a8845bcf2b51cc7e17872e4507688 OP_EQUALVERIFY OP_CHECKSIG", "type": "pubkeyhash"}, "value": 0.01650325, "n": 0}, {"scriptPubKey": {"reqSigs": 1, "hex": "a9145aa0288073f93b8d6a31c529713f7fc0eaa4ada087", "addresses": ["39xCbo836TGbYsLQcxPhCCHCfSqoxWuk3V"], "asm": "OP_HASH160 5aa0288073f93b8d6a31c529713f7fc0eaa4ada0 OP_EQUAL", "type": "scripthash"}, "value": 0.01271641, "n": 1}], "hex": "0200000000010340292b573ba213a707024220a68ddc51b1045f6d45b54723da4d0380c5bd868600000000171600145955e83ce77c9fb157b9fcdca554c6543ab18e69feffffff6688060d7e7088e8f3e25407839f78eb0f2c8901470f182d4ce281d43037c103000000001716001460f7fccbc86b6aaaeb2e205c2902b698494ed38afeffffff9c4f99fe08850cc056b49b6f8c827f5148f8370d89d81dc03f2ef3b91dbd76770000000017160014033db29a4a3e1943c09ed1a0978092cd838df53efeffffff02952e1900000000001976a91476e3ddda807a8845bcf2b51cc7e17872e450768888ac596713000000000017a9145aa0288073f93b8d6a31c529713f7fc0eaa4ada087024730440220101887bae3995ad2b2413670bc364376c660ae17a5fd8e740ecda972502bb4ca02206c0700628e5b89cc3ef7d4f62b8fe7f198b9c9baa0bfc8828a1a22545ef6f6c901210214cbcfd9eb9632a530a9e79fe855a09e71787bec9c2594d253aecaecf89278b40247304402200bf0aa2b3d62f05b35a86989888e1e11da77d759541337251990f6057e9c66fc02206a36ce0e8f24ec5336e1e5dc8fe2e5dc9526ef6626c024b52166bae12770ab2f01210285454f2b856d47c583a146b0bea2d94b76c8afe19e87c1b78b91edbcc76a0b0302483045022100e29519506f9ae8ec10b3bbac0f97ba3ff9031bcbb6f134e6c1c78fcf6aae3ca902205d6afeb70321c6d68e1418687170dd3048be3248a3f94954cdcadb79ff21f252012103365e76de943b7f0ba0cd9ba5b127fc1807606c0538b1d5e9945886167105574411490800", "vin": [{"txinwitness": ["30440220101887bae3995ad2b2413670bc364376c660ae17a5fd8e740ecda972502bb4ca02206c0700628e5b89cc3ef7d4f62b8fe7f198b9c9baa0bfc8828a1a22545ef6f6c901", "0214cbcfd9eb9632a530a9e79fe855a09e71787bec9c2594d253aecaecf89278b4"], "sequence": 4294967294, "scriptSig": {"hex": "1600145955e83ce77c9fb157b9fcdca554c6543ab18e69", "asm": "00145955e83ce77c9fb157b9fcdca554c6543ab18e69"}, "vout": 0, "txid": "8686bdc580034dda2347b5456d5f04b151dc8da620420207a713a23b572b2940"}, {"txinwitness": ["304402200bf0aa2b3d62f05b35a86989888e1e11da77d759541337251990f6057e9c66fc02206a36ce0e8f24ec5336e1e5dc8fe2e5dc9526ef6626c024b52166bae12770ab2f01", "0285454f2b856d47c583a146b0bea2d94b76c8afe19e87c1b78b91edbcc76a0b03"], "sequence": 4294967294, "scriptSig": {"hex": "16001460f7fccbc86b6aaaeb2e205c2902b698494ed38a", "asm": "001460f7fccbc86b6aaaeb2e205c2902b698494ed38a"}, "vout": 0, "txid": "03c13730d481e24c2d180f4701892c0feb789f830754e2f3e888707e0d068866"}, {"txinwitness": ["3045022100e29519506f9ae8ec10b3bbac0f97ba3ff9031bcbb6f134e6c1c78fcf6aae3ca902205d6afeb70321c6d68e1418687170dd3048be3248a3f94954cdcadb79ff21f25201", "03365e76de943b7f0ba0cd9ba5b127fc1807606c0538b1d5e99458861671055744"], "sequence": 4294967294, "scriptSig": {"hex": "160014033db29a4a3e1943c09ed1a0978092cd838df53e", "asm": "0014033db29a4a3e1943c09ed1a0978092cd838df53e"}, "vout": 0, "txid": "7776bd1db9f32e3fc01dd8890d37f848517f828c6f9bb456c00c8508fe994f9c"}], "txid": "be4ed79af086caf127492408651ef264bfd7accb26287232baaa515ef30c377a", "blocktime": 1537872475, "version": 2, "confirmations": 11486, "time": 1537872475, "locktime": 542993, "vsize": 349, "size": 592}