{"hash": "be4ed00c2c84ed04669b207b9dcb44b609302f42c735fa0f4545c007b2756462", "blockhash": "0000000000000000001f76057863aec43deb6fa401d9628bb513d65a8098bfab", "vout": [{"scriptPubKey": {"reqSigs": 1, "hex": "76a91460068fc0eb6a5fe5d640f861054d6d9b245ea48488ac", "addresses": ["19kjjKXFKeDFZHjasaS1MLPBhhzuZePwDV"], "asm": "OP_DUP OP_HASH160 60068fc0eb6a5fe5d640f861054d6d9b245ea484 OP_EQUALVERIFY OP_CHECKSIG", "type": "pubkeyhash"}, "value": 0.00484917, "n": 0}, {"scriptPubKey": {"reqSigs": 1, "hex": "76a9149c54f001d1952344b3874310aef3c62c763c8f1588ac", "addresses": ["1FFcAVL6X4rdzHxRJBPbuaQrC7wqJyo9Ea"], "asm": "OP_DUP OP_HASH160 9c54f001d1952344b3874310aef3c62c763c8f15 OP_EQUALVERIFY OP_CHECKSIG", "type": "pubkeyhash"}, "value": 0.06244867, "n": 1}], "hex": "010000000344cd542b274af4530efa38d8569b8dba780119838c7ff876ba56e2311aabff80080000006a473044022050414624f3416cc6870d7cd1d5544d5cfc3309bcd5b4269fe389cc21eafa843d0220539f36c52bcabea21613046d20c362a3053a5dc8c488a9ee1524b93a21a0b210012103c5d725ef8eb091974b9697ed911f08e0f0fb70567d1084d3fce8ba83393647ffffffffff684113cdd57bdca296320418406f1ef4c44324a1844164b241240d02bf24bdb9000000006b483045022100cb5b0ec7fd1d8c0b1292b21a79ddc390e764e609d825c554e9ceba91b68f6d51022075b35f133eb8082730e88eea6941527fe736cc84d30f57f861a46e06868bf7ca0121031c697d3af5703c2a7cabdd800f0636c43fbbe23198d12253b6e9434be3ce58b2ffffffff1f5605b8c6f1625b7692b9b3f9f1280b97a3a8b617f793beb9c1a038d580d0f3010000006b483045022100c71747a0576e337062dac8474ba23de1a2d651f44d844feba86151ddd16f44be022032101daaf4f42a56987b72adde6f2578d3322c4b367752d2b288313e8d4d5aa3012103f765e42ebcb7e7721ec8bd6cbbc8de33432dfb16a7df4873494d3d8b51bad4acffffffff0235660700000000001976a91460068fc0eb6a5fe5d640f861054d6d9b245ea48488ac034a5f00000000001976a9149c54f001d1952344b3874310aef3c62c763c8f1588ac00000000", "vin": [{"sequence": 4294967295, "scriptSig": {"hex": "473044022050414624f3416cc6870d7cd1d5544d5cfc3309bcd5b4269fe389cc21eafa843d0220539f36c52bcabea21613046d20c362a3053a5dc8c488a9ee1524b93a21a0b210012103c5d725ef8eb091974b9697ed911f08e0f0fb70567d1084d3fce8ba83393647ff", "asm": "3044022050414624f3416cc6870d7cd1d5544d5cfc3309bcd5b4269fe389cc21eafa843d0220539f36c52bcabea21613046d20c362a3053a5dc8c488a9ee1524b93a21a0b210[ALL] 03c5d725ef8eb091974b9697ed911f08e0f0fb70567d1084d3fce8ba83393647ff"}, "vout": 8, "txid": "80ffab1a31e256ba76f87f8c83190178ba8d9b56d838fa0e53f44a272b54cd44"}, {"sequence": 4294967295, "scriptSig": {"hex": "483045022100cb5b0ec7fd1d8c0b1292b21a79ddc390e764e609d825c554e9ceba91b68f6d51022075b35f133eb8082730e88eea6941527fe736cc84d30f57f861a46e06868bf7ca0121031c697d3af5703c2a7cabdd800f0636c43fbbe23198d12253b6e9434be3ce58b2", "asm": "3045022100cb5b0ec7fd1d8c0b1292b21a79ddc390e764e609d825c554e9ceba91b68f6d51022075b35f133eb8082730e88eea6941527fe736cc84d30f57f861a46e06868bf7ca[ALL] 031c697d3af5703c2a7cabdd800f0636c43fbbe23198d12253b6e9434be3ce58b2"}, "vout": 0, "txid": "b9bd24bf020d2441b2644184a12443c4f41e6f4018043296a2dc7bd5cd134168"}, {"sequence": 4294967295, "scriptSig": {"hex": "483045022100c71747a0576e337062dac8474ba23de1a2d651f44d844feba86151ddd16f44be022032101daaf4f42a56987b72adde6f2578d3322c4b367752d2b288313e8d4d5aa3012103f765e42ebcb7e7721ec8bd6cbbc8de33432dfb16a7df4873494d3d8b51bad4ac", "asm": "3045022100c71747a0576e337062dac8474ba23de1a2d651f44d844feba86151ddd16f44be022032101daaf4f42a56987b72adde6f2578d3322c4b367752d2b288313e8d4d5aa3[ALL] 03f765e42ebcb7e7721ec8bd6cbbc8de33432dfb16a7df4873494d3d8b51bad4ac"}, "vout": 1, "txid": "f3d080d538a0c1b9be93f717b6a8a3970b28f1f9b3b992765b62f1c6b805561f"}], "txid": "be4ed00c2c84ed04669b207b9dcb44b609302f42c735fa0f4545c007b2756462", "blocktime": 1537873891, "version": 1, "confirmations": 11478, "time": 1537873891, "locktime": 0, "vsize": 521, "size": 521}