{"hash": "be505615115c9523bb897144ea5187379bbb0b019021fc77aa63f69b31cb982d", "blockhash": "0000000000000000000e13cef7c366c0283d82e591d1acd082e914b08063cdf1", "vout": [{"scriptPubKey": {"reqSigs": 1, "hex": "76a914278d5aecb5ec18e0e385083295c7d403258a3fc688ac", "addresses": ["14c8h1eJP16aDpzJQ8Gd7mfyzZ1KMnFAVb"], "asm": "OP_DUP OP_HASH160 278d5aecb5ec18e0e385083295c7d403258a3fc6 OP_EQUALVERIFY OP_CHECKSIG", "type": "pubkeyhash"}, "value": 0.00125, "n": 0}, {"scriptPubKey": {"reqSigs": 1, "hex": "76a9148716dbe796ab473a9c1ccad12509ee3d8102708d88ac", "addresses": ["1DKHcAmeiNgGVVwVkgkPFkEdutNtphkSuk"], "asm": "OP_DUP OP_HASH160 8716dbe796ab473a9c1ccad12509ee3d8102708d OP_EQUALVERIFY OP_CHECKSIG", "type": "pubkeyhash"}, "value": 0.00622269, "n": 1}], "hex": "010000000155dd93098e1f75ed380e14263919fe92bcd34da76847bade264ea6f8d47d4446000000006b48304502210087a7acae63e44325f753ebe37de01ba9651cd416a0e6f31040237b915a43578a02203e3003792b641e380fd204b43c77e3ee46e1d120cd62e555645da25d9a83a58101210349a9df347f3273162cf79f6cd8df9b82a99304cc2662949b2d33e83cfbec5ef1ffffffff0248e80100000000001976a914278d5aecb5ec18e0e385083295c7d403258a3fc688acbd7e0900000000001976a9148716dbe796ab473a9c1ccad12509ee3d8102708d88ac00000000", "vin": [{"sequence": 4294967295, "scriptSig": {"hex": "48304502210087a7acae63e44325f753ebe37de01ba9651cd416a0e6f31040237b915a43578a02203e3003792b641e380fd204b43c77e3ee46e1d120cd62e555645da25d9a83a58101210349a9df347f3273162cf79f6cd8df9b82a99304cc2662949b2d33e83cfbec5ef1", "asm": "304502210087a7acae63e44325f753ebe37de01ba9651cd416a0e6f31040237b915a43578a02203e3003792b641e380fd204b43c77e3ee46e1d120cd62e555645da25d9a83a581[ALL] 0349a9df347f3273162cf79f6cd8df9b82a99304cc2662949b2d33e83cfbec5ef1"}, "vout": 0, "txid": "46447dd4f8a64e26deba4768a74dd3bc92fe193926140e38ed751f8e0993dd55"}], "txid": "be505615115c9523bb897144ea5187379bbb0b019021fc77aa63f69b31cb982d", "blocktime": 1537871767, "version": 1, "confirmations": 11495, "time": 1537871767, "locktime": 0, "vsize": 226, "size": 226}