{"hash": "be549ba14d0aa891172d0c5b73b3a79eb91ba34e68eb4ea72ebfa346f26b7fb6", "blockhash": "0000000000000000000e13cef7c366c0283d82e591d1acd082e914b08063cdf1", "vout": [{"scriptPubKey": {"reqSigs": 1, "hex": "76a91490269a382fcba5316fb7a92d09700f2c43f0f17688ac", "addresses": ["1E9CYmUHdrSjQUW5hncUXm6c2zhUjRSM33"], "asm": "OP_DUP OP_HASH160 90269a382fcba5316fb7a92d09700f2c43f0f176 OP_EQUALVERIFY OP_CHECKSIG", "type": "pubkeyhash"}, "value": 0.00156055, "n": 0}, {"scriptPubKey": {"reqSigs": 1, "hex": "001449e6a6b927458ce8c733969dbe0e4c918b3af5d8", "addresses": ["bc1qf8n2dwf8gkxw33enj6wmurjvjx9n4awcs3rdr0"], "asm": "0 49e6a6b927458ce8c733969dbe0e4c918b3af5d8", "type": "witness_v0_keyhash"}, "value": 0.00029302, "n": 1}], "hex": "0100000001e870bbea8bb93979f1564545ccde9aeccdb7d036581128f6581c976f01410a06210600006b483045022100ffb778ff636d885f11558262ad3e57d589337ae145d8c9009c0e93d72a77817e02203d07abe4d024e14d13ce262453fbb621a0124597ea8644eb47e7c55bac5733750121031f6f5b32cddf796d716572a153fae05074dfa499e48e75f3e91858b5b250f7a5ffffffff0297610200000000001976a91490269a382fcba5316fb7a92d09700f2c43f0f17688ac767200000000000016001449e6a6b927458ce8c733969dbe0e4c918b3af5d800000000", "vin": [{"sequence": 4294967295, "scriptSig": {"hex": "483045022100ffb778ff636d885f11558262ad3e57d589337ae145d8c9009c0e93d72a77817e02203d07abe4d024e14d13ce262453fbb621a0124597ea8644eb47e7c55bac5733750121031f6f5b32cddf796d716572a153fae05074dfa499e48e75f3e91858b5b250f7a5", "asm": "3045022100ffb778ff636d885f11558262ad3e57d589337ae145d8c9009c0e93d72a77817e02203d07abe4d024e14d13ce262453fbb621a0124597ea8644eb47e7c55bac573375[ALL] 031f6f5b32cddf796d716572a153fae05074dfa499e48e75f3e91858b5b250f7a5"}, "vout": 1569, "txid": "060a41016f971c58f628115836d0b7cdec9adecc454556f17939b98beabb70e8"}], "txid": "be549ba14d0aa891172d0c5b73b3a79eb91ba34e68eb4ea72ebfa346f26b7fb6", "blocktime": 1537871767, "version": 1, "confirmations": 11495, "time": 1537871767, "locktime": 0, "vsize": 223, "size": 223}