{"hash": "bb7830309f5edee1ae1bc75f92c9466eacdff80c0d5341721b05a691ac44f211", "blockhash": "0000000000000000000dcc0f55137456b1a82d3642486a52398922ac4d620174", "vout": [{"scriptPubKey": {"reqSigs": 1, "hex": "76a914bff278246699da65428827dd01dfd1a83cd9724788ac", "addresses": ["1JVvXhjYEkiie5DUQEo2ideKpHcDrKUAgf"], "asm": "OP_DUP OP_HASH160 bff278246699da65428827dd01dfd1a83cd97247 OP_EQUALVERIFY OP_CHECKSIG", "type": "pubkeyhash"}, "value": 0.010341, "n": 0}, {"scriptPubKey": {"reqSigs": 1, "hex": "a914fec37293f73cc540a971ea4d2fdd15cdc3e9e57d87", "addresses": ["3Qv5hCnHwXzsNm6fDb2kpgUQ74twMk8QLm"], "asm": "OP_HASH160 fec37293f73cc540a971ea4d2fdd15cdc3e9e57d OP_EQUAL", "type": "scripthash"}, "value": 0.31169744, "n": 1}], "hex": "02000000000101494321093475f2164af3a13bbcd102d1ef1621de2c1f4e2c268d3383eb9bb1f701000000171600149749079a9c040fee0d0a0e3b209195d18cc5dd12ffffffff0274c70f00000000001976a914bff278246699da65428827dd01dfd1a83cd9724788acd09cdb010000000017a914fec37293f73cc540a971ea4d2fdd15cdc3e9e57d87024830450221009a298ba3a676045258e997c1606fd098aefaba0884c4ed4b78e0f39c062ec55102202027dd21d9c21a0da74541c240328195b7f1e51bc70f4cad54a33ea757426bc901210328f960405f1448804c2899b754664a69c1664511ce3bd84f5c30a4e653ae850400000000", "vin": [{"txinwitness": ["30450221009a298ba3a676045258e997c1606fd098aefaba0884c4ed4b78e0f39c062ec55102202027dd21d9c21a0da74541c240328195b7f1e51bc70f4cad54a33ea757426bc901", "0328f960405f1448804c2899b754664a69c1664511ce3bd84f5c30a4e653ae8504"], "sequence": 4294967295, "scriptSig": {"hex": "1600149749079a9c040fee0d0a0e3b209195d18cc5dd12", "asm": "00149749079a9c040fee0d0a0e3b209195d18cc5dd12"}, "vout": 1, "txid": "f7b19beb83338d262c4e1f2cde2116efd102d1bc3ba1f34a16f2753409214349"}], "txid": "be587f95b94dfc38f63ef16e89a107facec03eee2065630aaf4462706cca6bbb", "blocktime": 1537870268, "version": 2, "confirmations": 11516, "time": 1537870268, "locktime": 0, "vsize": 168, "size": 250}