{"hash": "576ed4fc92ee149ec3a32672bb74887d73bb69fcdafc24ad52e1e986526298a9", "blockhash": "00000000000000000004ffacab907a6b429b9a5745fa0b75af4234bf69dd7176", "vout": [{"scriptPubKey": {"reqSigs": 1, "hex": "76a914b276db00dd9f360ccbfc1bd9396dc3feaf95e0b288ac", "addresses": ["1HGdfNRvXFB5bjV88pyhWNuqyovGt9Nwm3"], "asm": "OP_DUP OP_HASH160 b276db00dd9f360ccbfc1bd9396dc3feaf95e0b2 OP_EQUALVERIFY OP_CHECKSIG", "type": "pubkeyhash"}, "value": 0.00788205, "n": 0}, {"scriptPubKey": {"reqSigs": 1, "hex": "76a914e7e599ddd3a3f232522c4722cf37330eb0799b5b88ac", "addresses": ["1N9A9Gpp9AkLoRBiQaENgb1ddacKfy17jE"], "asm": "OP_DUP OP_HASH160 e7e599ddd3a3f232522c4722cf37330eb0799b5b OP_EQUALVERIFY OP_CHECKSIG", "type": "pubkeyhash"}, "value": 0.28184265, "n": 1}], "hex": "020000000001019f63b7da76085c2393baf27b37c5792f1c9eee8f4234360c3675eea024da968d0000000017160014c8ef59fab7998a8dff4f025f2defc0b992415376feffffff02ed060c00000000001976a914b276db00dd9f360ccbfc1bd9396dc3feaf95e0b288acc90eae01000000001976a914e7e599ddd3a3f232522c4722cf37330eb0799b5b88ac02483045022100efb21df3396fd1cf0715b5c96d886064bc3ab2ddd4e8bc4dd1a9cc1c8362994402206412a5b7628c9e9860830899cf3e5fe227c700e8bec24b615c6848b383ed098e01210294d6f94fa4e2aae619469a28bd1e16d91650adf603ff3c9537d14f0e14bbed3016490800", "vin": [{"txinwitness": ["3045022100efb21df3396fd1cf0715b5c96d886064bc3ab2ddd4e8bc4dd1a9cc1c8362994402206412a5b7628c9e9860830899cf3e5fe227c700e8bec24b615c6848b383ed098e01", "0294d6f94fa4e2aae619469a28bd1e16d91650adf603ff3c9537d14f0e14bbed30"], "sequence": 4294967294, "scriptSig": {"hex": "160014c8ef59fab7998a8dff4f025f2defc0b992415376", "asm": "0014c8ef59fab7998a8dff4f025f2defc0b992415376"}, "vout": 0, "txid": "8d96da24a0ee75360c3634428fee9e1c2f79c5377bf2ba93235c0876dab7639f"}], "txid": "be62d0565a1aa5661cf21e01c0962167f106dd1b4ad06739a9f35bb91a1aa478", "blocktime": 1537875543, "version": 2, "confirmations": 11464, "time": 1537875543, "locktime": 542998, "vsize": 170, "size": 252}