{"hash": "be6951178459151d7def97b033de533fd03f7d290e29457fa58156005a742f79", "blockhash": "0000000000000000000dcc0f55137456b1a82d3642486a52398922ac4d620174", "vout": [{"scriptPubKey": {"reqSigs": 1, "hex": "76a9149fa0a967ad50efdaecfeec680831c6fba271b83c88ac", "addresses": ["1FZ2uUWaTWgUCaYeVfytZzjdPMfCEua7hA"], "asm": "OP_DUP OP_HASH160 9fa0a967ad50efdaecfeec680831c6fba271b83c OP_EQUALVERIFY OP_CHECKSIG", "type": "pubkeyhash"}, "value": 0.01, "n": 0}, {"scriptPubKey": {"reqSigs": 1, "hex": "76a914bdeae64cb0e9b6f28ee4c23535c15deb0448874788ac", "addresses": ["1JKC7NGzGvz8cLtrr8zTMmWLTi8Rwqy4Ny"], "asm": "OP_DUP OP_HASH160 bdeae64cb0e9b6f28ee4c23535c15deb04488747 OP_EQUALVERIFY OP_CHECKSIG", "type": "pubkeyhash"}, "value": 0.10999427, "n": 1}], "hex": "0100000001db1d98d2c76065986faaccf5216447e839c1b0d04357202dd96288ffac781ebb010000006b483045022100c001bf564b00fcf477e56115109cd090b1685e4e91cd7aa4a14bc4027bae27b902207a83fc5b11207ac7a01ad90bfbc36f0465d343e2415632699bd18a624731c6ee0121024170015518b275c59303d9f22e187ffc8d3df4f8f2f37771c27c510f4f16e5e5ffffffff0240420f00000000001976a9149fa0a967ad50efdaecfeec680831c6fba271b83c88ac83d6a700000000001976a914bdeae64cb0e9b6f28ee4c23535c15deb0448874788ac00000000", "vin": [{"sequence": 4294967295, "scriptSig": {"hex": "483045022100c001bf564b00fcf477e56115109cd090b1685e4e91cd7aa4a14bc4027bae27b902207a83fc5b11207ac7a01ad90bfbc36f0465d343e2415632699bd18a624731c6ee0121024170015518b275c59303d9f22e187ffc8d3df4f8f2f37771c27c510f4f16e5e5", "asm": "3045022100c001bf564b00fcf477e56115109cd090b1685e4e91cd7aa4a14bc4027bae27b902207a83fc5b11207ac7a01ad90bfbc36f0465d343e2415632699bd18a624731c6ee[ALL] 024170015518b275c59303d9f22e187ffc8d3df4f8f2f37771c27c510f4f16e5e5"}, "vout": 1, "txid": "bb1e78acff8862d92d205743d0b0c139e8476421f5ccaa6f986560c7d2981ddb"}], "txid": "be6951178459151d7def97b033de533fd03f7d290e29457fa58156005a742f79", "blocktime": 1537870268, "version": 1, "confirmations": 11518, "time": 1537870268, "locktime": 0, "vsize": 226, "size": 226}