{"hash": "be6aafeaaa4dc91a8b34d205f5d8647fd7bce06d2c03bc9f6e046288ad7f232d", "blockhash": "0000000000000000000dcc0f55137456b1a82d3642486a52398922ac4d620174", "vout": [{"scriptPubKey": {"type": "nulldata", "hex": "6a146f6d6e69000000000000001f000000392e2f7d00", "asm": "OP_RETURN 6f6d6e69000000000000001f000000392e2f7d00"}, "value": 0.0, "n": 0}, {"scriptPubKey": {"reqSigs": 1, "hex": "76a914388256b4fb33f6155727017f7d5cce7e0d2a65f388ac", "addresses": ["169nyqNqauSUMcS3rAExS3rhhrwz9mVA4i"], "asm": "OP_DUP OP_HASH160 388256b4fb33f6155727017f7d5cce7e0d2a65f3 OP_EQUALVERIFY OP_CHECKSIG", "type": "pubkeyhash"}, "value": 0.00171896, "n": 1}, {"scriptPubKey": {"reqSigs": 1, "hex": "76a914383d36124665bba18c3f6769d989b72090cdc28e88ac", "addresses": ["168NAmoGuat4U9FAJ1asDuxGLcQD4C78oa"], "asm": "OP_DUP OP_HASH160 383d36124665bba18c3f6769d989b72090cdc28e OP_EQUALVERIFY OP_CHECKSIG", "type": "pubkeyhash"}, "value": 5.46e-06, "n": 2}], "hex": "0100000001995de9f79e747431a3acb1bda9ab2e45f1215687ee946c41d109fd64a9ad0e31000000006a473044022066973c37566557be8f976d26dde98b2c5c62ca1b22964e5646b4ffee4e2cea4b022024ac3231b8da789aa270f8ae64f8c7c127fac01ed7f1cd3127db4c9805427d35012102cca43b3082ae7d70499eba1e028fba08cb647209c0be3dee55eeb6b51b623f1ffeffffff030000000000000000166a146f6d6e69000000000000001f000000392e2f7d00789f0200000000001976a914388256b4fb33f6155727017f7d5cce7e0d2a65f388ac22020000000000001976a914383d36124665bba18c3f6769d989b72090cdc28e88ac0c490800", "vin": [{"sequence": 4294967294, "scriptSig": {"hex": "473044022066973c37566557be8f976d26dde98b2c5c62ca1b22964e5646b4ffee4e2cea4b022024ac3231b8da789aa270f8ae64f8c7c127fac01ed7f1cd3127db4c9805427d35012102cca43b3082ae7d70499eba1e028fba08cb647209c0be3dee55eeb6b51b623f1f", "asm": "3044022066973c37566557be8f976d26dde98b2c5c62ca1b22964e5646b4ffee4e2cea4b022024ac3231b8da789aa270f8ae64f8c7c127fac01ed7f1cd3127db4c9805427d35[ALL] 02cca43b3082ae7d70499eba1e028fba08cb647209c0be3dee55eeb6b51b623f1f"}, "vout": 0, "txid": "310eada964fd09d1416c94ee875621f1452eaba9bdb1aca33174749ef7e95d99"}], "txid": "be6aafeaaa4dc91a8b34d205f5d8647fd7bce06d2c03bc9f6e046288ad7f232d", "blocktime": 1537870268, "version": 1, "confirmations": 11519, "time": 1537870268, "locktime": 542988, "vsize": 256, "size": 256}