{"hash": "54cbdeca9deb5c12df61716cca0be0eb42c588ff9ec6482364423a522dd37d18", "blockhash": "0000000000000000001cda96e906b7601b7a6fb1a3b62bca570a9e5d8f4b3de1", "vout": [{"scriptPubKey": {"reqSigs": 1, "hex": "76a91427b10fa81ea5bb69ff9089d01e39011cc0895f8988ac", "addresses": ["14csTua7E8hT8tQui8upiQ57bgwYn46Nz2"], "asm": "OP_DUP OP_HASH160 27b10fa81ea5bb69ff9089d01e39011cc0895f89 OP_EQUALVERIFY OP_CHECKSIG", "type": "pubkeyhash"}, "value": 0.0026116, "n": 0}, {"scriptPubKey": {"reqSigs": 1, "hex": "a91485c777868d4dc1ae70e0b9424d14df1f3758aa8587", "addresses": ["3DtNkG3SB3N7ujaojhh81yLE1tsJ8gyYQi"], "asm": "OP_HASH160 85c777868d4dc1ae70e0b9424d14df1f3758aa85 OP_EQUAL", "type": "scripthash"}, "value": 0.00999903, "n": 1}], "hex": "02000000000102343faa24f98ffb793e5a1475e2e85607929536c652583b62488b5fc4527a10c80600000017160014c665049f2ed06fbe58086ee23e7dfabd0051dbc5feffffffd827dfe44a492ceaf15abbcee5e91be19e7eff74f6dee35f204943f291b7667e0000000017160014cef7b6da19e667d8be3254ed7a52bca81d658e00feffffff0228fc0300000000001976a91427b10fa81ea5bb69ff9089d01e39011cc0895f8988acdf410f000000000017a91485c777868d4dc1ae70e0b9424d14df1f3758aa85870247304402205b11703eef770fd774bea443d20d4d4100b9f4df4f004090e5234841dd3f16ac02201dcd361c7cd9d1910c82a3c5c449b799cae1f1f4de8d55879063bd62797b2a04012102e724852f3f10fd34f132bc0b3d044d38a06f18d7be833aa7bf255a9cf314cb2002483045022100f2c2f05d4f3cf3aa672ab9de0635f28c1cdef9983507347f421df8c0341930860220160bb566382b5f6bb724f9c0e58de544e1caf62bac63a49a1737d3770f95d3a001210381eae67f38b858b906742bb0ca7513a6cca34b75d2e0bcb1d3e7253dc1fbe60013490800", "vin": [{"txinwitness": ["304402205b11703eef770fd774bea443d20d4d4100b9f4df4f004090e5234841dd3f16ac02201dcd361c7cd9d1910c82a3c5c449b799cae1f1f4de8d55879063bd62797b2a0401", "02e724852f3f10fd34f132bc0b3d044d38a06f18d7be833aa7bf255a9cf314cb20"], "sequence": 4294967294, "scriptSig": {"hex": "160014c665049f2ed06fbe58086ee23e7dfabd0051dbc5", "asm": "0014c665049f2ed06fbe58086ee23e7dfabd0051dbc5"}, "vout": 6, "txid": "c8107a52c45f8b48623b5852c63695920756e8e275145a3e79fb8ff924aa3f34"}, {"txinwitness": ["3045022100f2c2f05d4f3cf3aa672ab9de0635f28c1cdef9983507347f421df8c0341930860220160bb566382b5f6bb724f9c0e58de544e1caf62bac63a49a1737d3770f95d3a001", "0381eae67f38b858b906742bb0ca7513a6cca34b75d2e0bcb1d3e7253dc1fbe600"], "sequence": 4294967294, "scriptSig": {"hex": "160014cef7b6da19e667d8be3254ed7a52bca81d658e00", "asm": "0014cef7b6da19e667d8be3254ed7a52bca81d658e00"}, "vout": 0, "txid": "7e66b791f24349205fe3def674ff7e9ee11be9e5cebb5af1ea2c494ae4df27d8"}], "txid": "be72fdfb3c13e8aebf08ecb028607b549ebb95c0297b9aa61d648b16a8bfb45a", "blocktime": 1537873282, "version": 2, "confirmations": 11485, "time": 1537873282, "locktime": 542995, "vsize": 259, "size": 421}