{"hash": "66d74607073bef162b3f55b7e4e65fb4c1964155ae1b963efd728479aa654242", "blockhash": "0000000000000000000dcc0f55137456b1a82d3642486a52398922ac4d620174", "vout": [{"scriptPubKey": {"reqSigs": 1, "hex": "76a9142ccc494b4fe53671c0d711cc96440efc2c12318288ac", "addresses": ["155sTW7KNXMiunyahhAULDMsufsXe7QVR7"], "asm": "OP_DUP OP_HASH160 2ccc494b4fe53671c0d711cc96440efc2c123182 OP_EQUALVERIFY OP_CHECKSIG", "type": "pubkeyhash"}, "value": 0.00311705, "n": 0}, {"scriptPubKey": {"reqSigs": 1, "hex": "a914abe96308d788e9080ebcc892630a3acfffbabeec87", "addresses": ["3HN14MERSkHHZfEYWd9FFqim5RsTztAUnW"], "asm": "OP_HASH160 abe96308d788e9080ebcc892630a3acfffbabeec OP_EQUAL", "type": "scripthash"}, "value": 0.10640303, "n": 1}], "hex": "01000000000101e886849f8ef4160b246b01f926acd2db7124393cf867ea3e8ef7adae527e692f0100000023220020d6670edfc9e44d3ed67150446b50ab7408e046ffba3dc691b817d402ea5aa932ffffffff0299c10400000000001976a9142ccc494b4fe53671c0d711cc96440efc2c12318288acaf5ba2000000000017a914abe96308d788e9080ebcc892630a3acfffbabeec8704004730440220662dc1b4101a41c31226c51450628a1ed0d6b5333302bb8c456d554b5e03ca5e022025de61fc5150afd5e398efd37e5dbd7bebcb35c0be8792bb13a9d2781f5a519d0148304502210092f595eeef92601b8ac805d4a4fb9b630abd249a0d2f5de8ae69653523e6a902022016c54cfe6064af155555863603f1254dc6fc111533935c700b6c26764a76ca32014752210318fb07d2c5d8e0f2c91c5fd47d7961b56f6cfa3d33cca6093cae95077e6490cc2103acc0991ca2f705af88eeaba7371492bb4ea001f16b7b9148cc451062163ca17952ae00000000", "vin": [{"txinwitness": ["", "30440220662dc1b4101a41c31226c51450628a1ed0d6b5333302bb8c456d554b5e03ca5e022025de61fc5150afd5e398efd37e5dbd7bebcb35c0be8792bb13a9d2781f5a519d01", "304502210092f595eeef92601b8ac805d4a4fb9b630abd249a0d2f5de8ae69653523e6a902022016c54cfe6064af155555863603f1254dc6fc111533935c700b6c26764a76ca3201", "52210318fb07d2c5d8e0f2c91c5fd47d7961b56f6cfa3d33cca6093cae95077e6490cc2103acc0991ca2f705af88eeaba7371492bb4ea001f16b7b9148cc451062163ca17952ae"], "sequence": 4294967295, "scriptSig": {"hex": "220020d6670edfc9e44d3ed67150446b50ab7408e046ffba3dc691b817d402ea5aa932", "asm": "0020d6670edfc9e44d3ed67150446b50ab7408e046ffba3dc691b817d402ea5aa932"}, "vout": 1, "txid": "2f697e52aeadf78e3eea67f83c392471dbd2ac26f9016b240b16f48e9f8486e8"}], "txid": "be79ef8f86703e34f9fd6c86804964c58bb6799beef55e7815ed3b35d8ecd129", "blocktime": 1537870268, "version": 1, "confirmations": 11518, "time": 1537870268, "locktime": 0, "vsize": 208, "size": 373}