{"hash": "6f360117534006c12e2766f35d20beb42203a55b3907d2d540b7513fbb3591b4", "blockhash": "0000000000000000000baef3f32e3676a92c3b2e5da21b426e4f302fc371ce76", "vout": [{"scriptPubKey": {"reqSigs": 1, "hex": "a914d07b2cd49da4525ec2b53bccff094901a8f0470f87", "addresses": ["3LhN2oTXVqVJiojccJRCxg6assA3mrWHCt"], "asm": "OP_HASH160 d07b2cd49da4525ec2b53bccff094901a8f0470f OP_EQUAL", "type": "scripthash"}, "value": 0.00153772, "n": 0}, {"scriptPubKey": {"reqSigs": 1, "hex": "a914b2e6a8e553bd7e11c1392f8d61e19b5888e139c087", "addresses": ["3HzxXD8PhqJETjkWrQYD4nYc6yKx3mGLXi"], "asm": "OP_HASH160 b2e6a8e553bd7e11c1392f8d61e19b5888e139c0 OP_EQUAL", "type": "scripthash"}, "value": 0.0031183, "n": 1}], "hex": "0100000000010148eb1f55ea10f66fe1d0b51cdd1f20422604e7851adf54fb6a8a330b978f96fc010000002322002045dc4a8e7a7ed593d2ea538a381c31e2607ee08f052e914f99311fee2a8f4d56ffffffff02ac5802000000000017a914d07b2cd49da4525ec2b53bccff094901a8f0470f8716c204000000000017a914b2e6a8e553bd7e11c1392f8d61e19b5888e139c087040047304402204bb4ce252cde4b6e46f3af8826e152824628f1c6a7830f35d11f9c073f95456a022040ce46edeb09de2e0546e56435e97de88aed4821b80c957e316f2342ebefa3af01483045022100fa52190119a542cf5ae3e0657902d54f25c6dbc5ea0bce5ff563a357c2899d9c022024c02f063618856dbcee4b8c0abf63a1868fe92cf6c61a5d2f7ac5df828aba57014752210333a2cce5556afb7a9431cdacaea04e945b9daa974227ab5f4aca265bc268c7952103871fc2ca08e6950b38867e8e6a0e94ee625223d3aa0df5c65f414c6d784467e252ae00000000", "vin": [{"txinwitness": ["", "304402204bb4ce252cde4b6e46f3af8826e152824628f1c6a7830f35d11f9c073f95456a022040ce46edeb09de2e0546e56435e97de88aed4821b80c957e316f2342ebefa3af01", "3045022100fa52190119a542cf5ae3e0657902d54f25c6dbc5ea0bce5ff563a357c2899d9c022024c02f063618856dbcee4b8c0abf63a1868fe92cf6c61a5d2f7ac5df828aba5701", "52210333a2cce5556afb7a9431cdacaea04e945b9daa974227ab5f4aca265bc268c7952103871fc2ca08e6950b38867e8e6a0e94ee625223d3aa0df5c65f414c6d784467e252ae"], "sequence": 4294967295, "scriptSig": {"hex": "22002045dc4a8e7a7ed593d2ea538a381c31e2607ee08f052e914f99311fee2a8f4d56", "asm": "002045dc4a8e7a7ed593d2ea538a381c31e2607ee08f052e914f99311fee2a8f4d56"}, "vout": 1, "txid": "fc968f970b338a6afb54df1a85e7042642201fdd1cb5d0e16ff610ea551feb48"}], "txid": "be7acefa8f0e5f9659f486b650a26ad1d5bdfdfdcb5923dd1e259a245e5a8386", "blocktime": 1537876114, "version": 1, "confirmations": 11460, "time": 1537876114, "locktime": 0, "vsize": 206, "size": 371}