{"hash": "be8007fe305dfcc320c46bcb062992584cb1b90eb86f2943640625c36abecac7", "blockhash": "000000000000000000022b45ed06c6f4ccd3cf7fb5ba4856ebd2e58215665228", "vout": [{"scriptPubKey": {"type": "nulldata", "hex": "6a4c500000775c00010f99ba3cf20259cb5014fffa3a016b46dc7dc7d0968d120d670c1906f999e00b6b3cf12aaa55f96e175ab0a415755baa06fe06128d3ff5472e16bc9a9526289ac0f6612cd74e33776ee4", "asm": "OP_RETURN 0000775c00010f99ba3cf20259cb5014fffa3a016b46dc7dc7d0968d120d670c1906f999e00b6b3cf12aaa55f96e175ab0a415755baa06fe06128d3ff5472e16bc9a9526289ac0f6612cd74e33776ee4"}, "value": 0.0, "n": 0}, {"scriptPubKey": {"reqSigs": 1, "hex": "76a914e1ce3671c1c49472929778afce112f7f3a2e3b6e88ac", "addresses": ["1Max5532vLByDTjg4cwFHBayPB7WYUvrNm"], "asm": "OP_DUP OP_HASH160 e1ce3671c1c49472929778afce112f7f3a2e3b6e OP_EQUALVERIFY OP_CHECKSIG", "type": "pubkeyhash"}, "value": 0.0148404, "n": 1}], "hex": "01000000013a906430d67dd198598dc688e09cfcb01ebba6f497a54ff884f0997db42d3abe000000006b4830450221009733492011099dc3a9658d9feddef6aa152443940450a695f44af2849b0b1b2402207aac7e68e63528aa6051ee07b14d984b77caa3e39e4b6afb110dd377e3aa43ff0121035f99325cd1aa928333f9e52563dddc6cacca3e82864f7fcc7a9c4929cf48ae47ffffffff020000000000000000536a4c500000775c00010f99ba3cf20259cb5014fffa3a016b46dc7dc7d0968d120d670c1906f999e00b6b3cf12aaa55f96e175ab0a415755baa06fe06128d3ff5472e16bc9a9526289ac0f6612cd74e33776ee408a51600000000001976a914e1ce3671c1c49472929778afce112f7f3a2e3b6e88ac00000000", "vin": [{"sequence": 4294967295, "scriptSig": {"hex": "4830450221009733492011099dc3a9658d9feddef6aa152443940450a695f44af2849b0b1b2402207aac7e68e63528aa6051ee07b14d984b77caa3e39e4b6afb110dd377e3aa43ff0121035f99325cd1aa928333f9e52563dddc6cacca3e82864f7fcc7a9c4929cf48ae47", "asm": "30450221009733492011099dc3a9658d9feddef6aa152443940450a695f44af2849b0b1b2402207aac7e68e63528aa6051ee07b14d984b77caa3e39e4b6afb110dd377e3aa43ff[ALL] 035f99325cd1aa928333f9e52563dddc6cacca3e82864f7fcc7a9c4929cf48ae47"}, "vout": 0, "txid": "be3a2db47d99f084f84fa597f4a6bb1eb0fc9ce088c68d5998d17dd63064903a"}], "txid": "be8007fe305dfcc320c46bcb062992584cb1b90eb86f2943640625c36abecac7", "blocktime": 1537869901, "version": 1, "confirmations": 11523, "time": 1537869901, "locktime": 0, "vsize": 284, "size": 284}