{"hash": "be9298fe20fbf8458f9ca1fbd09ced7ffd7408be485f5042cb3b62f596e3af34", "blockhash": "0000000000000000001f76057863aec43deb6fa401d9628bb513d65a8098bfab", "vout": [{"scriptPubKey": {"reqSigs": 1, "hex": "76a91461ea7705127217a3b141cce2c394ff647b7407a588ac", "addresses": ["19vjRWvPY5Lm9v48cmoyn5PHh9RiNMoeFD"], "asm": "OP_DUP OP_HASH160 61ea7705127217a3b141cce2c394ff647b7407a5 OP_EQUALVERIFY OP_CHECKSIG", "type": "pubkeyhash"}, "value": 0.1559, "n": 0}], "hex": "0100000001b232d0069218c4cea8ae3c7fdffeca67d9b36a0ad84edc01b7c51a7b7a6672ea000000006a473044022065345ac3c30c0b9f90ad74ebd68f84efcbfabd0359224fbe0f50ee62ac0c49ce0220270cf4c3d625cc757110bcb73ec62219cc27a5b89b521cf2bc248ee142f1a59e012102429ae383a478516a322683b75369e824bef68ddc833d14112ddac9b5f58e8172ffffffff0170e2ed00000000001976a91461ea7705127217a3b141cce2c394ff647b7407a588ac00000000", "vin": [{"sequence": 4294967295, "scriptSig": {"hex": "473044022065345ac3c30c0b9f90ad74ebd68f84efcbfabd0359224fbe0f50ee62ac0c49ce0220270cf4c3d625cc757110bcb73ec62219cc27a5b89b521cf2bc248ee142f1a59e012102429ae383a478516a322683b75369e824bef68ddc833d14112ddac9b5f58e8172", "asm": "3044022065345ac3c30c0b9f90ad74ebd68f84efcbfabd0359224fbe0f50ee62ac0c49ce0220270cf4c3d625cc757110bcb73ec62219cc27a5b89b521cf2bc248ee142f1a59e[ALL] 02429ae383a478516a322683b75369e824bef68ddc833d14112ddac9b5f58e8172"}, "vout": 0, "txid": "ea72667a7b1ac5b701dc4ed80a6ab3d967cafedf7f3caea8cec4189206d032b2"}], "txid": "be9298fe20fbf8458f9ca1fbd09ced7ffd7408be485f5042cb3b62f596e3af34", "blocktime": 1537873891, "version": 1, "confirmations": 11474, "time": 1537873891, "locktime": 0, "vsize": 191, "size": 191}