{"hash": "be971372874cc47e94cb13cad9d2863785ebd2eed4cff46d886b202e44879928", "blockhash": "0000000000000000000baef3f32e3676a92c3b2e5da21b426e4f302fc371ce76", "vout": [{"scriptPubKey": {"reqSigs": 1, "hex": "a91404683e4d0d09ce80a0eae335bdde162ab8f9dedf87", "addresses": ["326KWGSCbj1bDKThJu2JHyMtBvtAux52nF"], "asm": "OP_HASH160 04683e4d0d09ce80a0eae335bdde162ab8f9dedf OP_EQUAL", "type": "scripthash"}, "value": 0.018, "n": 0}, {"scriptPubKey": {"reqSigs": 1, "hex": "a9147c5bfc0f50f4908245e3e8b71ba84369d317dc9d87", "addresses": ["3D2ZuXtZJRW2iocWouRiL9W3CWoSD9THCh"], "asm": "OP_HASH160 7c5bfc0f50f4908245e3e8b71ba84369d317dc9d OP_EQUAL", "type": "scripthash"}, "value": 0.05538783, "n": 1}], "hex": "0100000001ff9b5f37674b553d6122362763a94b9a5fd9a0af0f05adbda9c51c49b7d8c71e01000000fc004730440220083971654d9bc2398681ac264b553800882247c56d6d63284790197738ea22df022059dc5dcd7027a20092623d50815dc6c8265cd283261b9f0a1547ccf79310e9e30147304402200e2d01e267ac1519edbd67731e043a1878f9979204d345ec1681ee3a0e727bd9022072367131a4c43f4965ce11fa560d197a1efedf67dc3d233d060cfc756c490b1a014c695221024ca4cc761f8811e401121180983f3c11c0ef0547375cdfa9fde7c5f81df4194f21039a5a4d6871ea525bcf9e7d78295c392e49456e11b2d374b607303d669665ae9b2103a130f5d5531b08f67389c6dafda05bf4c914eaac5cc2fddf911bc6ed5916bb0653aefdffffff0240771b000000000017a91404683e4d0d09ce80a0eae335bdde162ab8f9dedf87df8354000000000017a9147c5bfc0f50f4908245e3e8b71ba84369d317dc9d8717490800", "vin": [{"sequence": 4294967293, "scriptSig": {"hex": "004730440220083971654d9bc2398681ac264b553800882247c56d6d63284790197738ea22df022059dc5dcd7027a20092623d50815dc6c8265cd283261b9f0a1547ccf79310e9e30147304402200e2d01e267ac1519edbd67731e043a1878f9979204d345ec1681ee3a0e727bd9022072367131a4c43f4965ce11fa560d197a1efedf67dc3d233d060cfc756c490b1a014c695221024ca4cc761f8811e401121180983f3c11c0ef0547375cdfa9fde7c5f81df4194f21039a5a4d6871ea525bcf9e7d78295c392e49456e11b2d374b607303d669665ae9b2103a130f5d5531b08f67389c6dafda05bf4c914eaac5cc2fddf911bc6ed5916bb0653ae", "asm": "0 30440220083971654d9bc2398681ac264b553800882247c56d6d63284790197738ea22df022059dc5dcd7027a20092623d50815dc6c8265cd283261b9f0a1547ccf79310e9e3[ALL] 304402200e2d01e267ac1519edbd67731e043a1878f9979204d345ec1681ee3a0e727bd9022072367131a4c43f4965ce11fa560d197a1efedf67dc3d233d060cfc756c490b1a[ALL] 5221024ca4cc761f8811e401121180983f3c11c0ef0547375cdfa9fde7c5f81df4194f21039a5a4d6871ea525bcf9e7d78295c392e49456e11b2d374b607303d669665ae9b2103a130f5d5531b08f67389c6dafda05bf4c914eaac5cc2fddf911bc6ed5916bb0653ae"}, "vout": 1, "txid": "1ec7d8b7491cc5a9bdad050fafa0d95f9a4ba963273622613d554b67375f9bff"}], "txid": "be971372874cc47e94cb13cad9d2863785ebd2eed4cff46d886b202e44879928", "blocktime": 1537876114, "version": 1, "confirmations": 11460, "time": 1537876114, "locktime": 542999, "vsize": 367, "size": 367}