{"hash": "be989ef222569b931e2e6a842a9a1d2e481b3d17a2e8d88b2886278c169531b8", "blockhash": "0000000000000000000dcc0f55137456b1a82d3642486a52398922ac4d620174", "vout": [{"scriptPubKey": {"reqSigs": 1, "hex": "76a9140d4be2edcc8182dfc19f7fb81f944f7edfc7821588ac", "addresses": ["12DJhBDamNyy5HXX5ps6AxvejDU9wkr6Za"], "asm": "OP_DUP OP_HASH160 0d4be2edcc8182dfc19f7fb81f944f7edfc78215 OP_EQUALVERIFY OP_CHECKSIG", "type": "pubkeyhash"}, "value": 2.98, "n": 0}, {"scriptPubKey": {"reqSigs": 1, "hex": "76a9144ce8faee531b8b188edf439aa3ad30abf0c49eac88ac", "addresses": ["181fTKyUMJPXRrdDRXhCa31qATr5fu7G8h"], "asm": "OP_DUP OP_HASH160 4ce8faee531b8b188edf439aa3ad30abf0c49eac OP_EQUALVERIFY OP_CHECKSIG", "type": "pubkeyhash"}, "value": 3.92134, "n": 1}], "hex": "010000000256c7f825a8bae558bffc41f817bb898d7d40c74d31e94c3f2f7b040dec5da029000000006a47304402204002b57dcd44727ac4c9af590d57489e315dfeff9dd1654803874f8445b694cf0220604db84c26f5145ffe18f3156d57576c9133dd092ac48d6cff79a934754ac82e012103519fbb6b4bd8999e67b3c871ac9c78d085d52dd32b737d22ff4ed9ddc2201988ffffffff56c7f825a8bae558bffc41f817bb898d7d40c74d31e94c3f2f7b040dec5da029010000006a47304402202ef4939123d8ef2d1632926852681d53a354a87e7ab0c8fe51898135509d5d1402206ee47de2a8d9b185c572e007b103ed37b89736ea357d2adabaaad01e49d8f09f0121026cb6552330f3bf1cd3baf68f3e470d4d9ea2f667b6927f4573b40bd039512e6fffffffff02801ec311000000001976a9140d4be2edcc8182dfc19f7fb81f944f7edfc7821588ac707d5f17000000001976a9144ce8faee531b8b188edf439aa3ad30abf0c49eac88ac00000000", "vin": [{"sequence": 4294967295, "scriptSig": {"hex": "47304402204002b57dcd44727ac4c9af590d57489e315dfeff9dd1654803874f8445b694cf0220604db84c26f5145ffe18f3156d57576c9133dd092ac48d6cff79a934754ac82e012103519fbb6b4bd8999e67b3c871ac9c78d085d52dd32b737d22ff4ed9ddc2201988", "asm": "304402204002b57dcd44727ac4c9af590d57489e315dfeff9dd1654803874f8445b694cf0220604db84c26f5145ffe18f3156d57576c9133dd092ac48d6cff79a934754ac82e[ALL] 03519fbb6b4bd8999e67b3c871ac9c78d085d52dd32b737d22ff4ed9ddc2201988"}, "vout": 0, "txid": "29a05dec0d047b2f3f4ce9314dc7407d8d89bb17f841fcbf58e5baa825f8c756"}, {"sequence": 4294967295, "scriptSig": {"hex": "47304402202ef4939123d8ef2d1632926852681d53a354a87e7ab0c8fe51898135509d5d1402206ee47de2a8d9b185c572e007b103ed37b89736ea357d2adabaaad01e49d8f09f0121026cb6552330f3bf1cd3baf68f3e470d4d9ea2f667b6927f4573b40bd039512e6f", "asm": "304402202ef4939123d8ef2d1632926852681d53a354a87e7ab0c8fe51898135509d5d1402206ee47de2a8d9b185c572e007b103ed37b89736ea357d2adabaaad01e49d8f09f[ALL] 026cb6552330f3bf1cd3baf68f3e470d4d9ea2f667b6927f4573b40bd039512e6f"}, "vout": 1, "txid": "29a05dec0d047b2f3f4ce9314dc7407d8d89bb17f841fcbf58e5baa825f8c756"}], "txid": "be989ef222569b931e2e6a842a9a1d2e481b3d17a2e8d88b2886278c169531b8", "blocktime": 1537870268, "version": 1, "confirmations": 11516, "time": 1537870268, "locktime": 0, "vsize": 372, "size": 372}