{"hash": "be9a4c9c883066b369e4684c0532b21f95dfe51ca006776c8d25b5845e7560b3", "blockhash": "0000000000000000001f76057863aec43deb6fa401d9628bb513d65a8098bfab", "vout": [{"scriptPubKey": {"reqSigs": 1, "hex": "76a914ae386d9fd5ab050f9f08b15065da49a9d284275a88ac", "addresses": ["1GtCB5dzcunFErZ9hkT7LRUXnHEE9ajxxv"], "asm": "OP_DUP OP_HASH160 ae386d9fd5ab050f9f08b15065da49a9d284275a OP_EQUALVERIFY OP_CHECKSIG", "type": "pubkeyhash"}, "value": 0.03016573, "n": 0}, {"scriptPubKey": {"reqSigs": 1, "hex": "76a9144675a863bc8425b12343291b1156db9774da394e88ac", "addresses": ["17RZFS95TQU97PqGrN1ePksYgR5zgeqsKu"], "asm": "OP_DUP OP_HASH160 4675a863bc8425b12343291b1156db9774da394e OP_EQUALVERIFY OP_CHECKSIG", "type": "pubkeyhash"}, "value": 0.046557, "n": 1}], "hex": "01000000011fca1fb19097985fbdbeb273aeaefe14393ff80839522d07b7186b1ffc90065d010000006b483045022100e45a8b3aca14080bda71cf8dbf1ab10c27e7f2f353767e6c31d6f92850ecf80902200da0bb4ccac01724488a0db6afd916b6dcaa1461de46c9febd80f2599e363c63012102dfb6f3909d8bb0007a273ca677cf11d2d1a0fbe9f044acb701a2bc7d61de0ad3ffffffff027d072e00000000001976a914ae386d9fd5ab050f9f08b15065da49a9d284275a88ac540a4700000000001976a9144675a863bc8425b12343291b1156db9774da394e88ac00000000", "vin": [{"sequence": 4294967295, "scriptSig": {"hex": "483045022100e45a8b3aca14080bda71cf8dbf1ab10c27e7f2f353767e6c31d6f92850ecf80902200da0bb4ccac01724488a0db6afd916b6dcaa1461de46c9febd80f2599e363c63012102dfb6f3909d8bb0007a273ca677cf11d2d1a0fbe9f044acb701a2bc7d61de0ad3", "asm": "3045022100e45a8b3aca14080bda71cf8dbf1ab10c27e7f2f353767e6c31d6f92850ecf80902200da0bb4ccac01724488a0db6afd916b6dcaa1461de46c9febd80f2599e363c63[ALL] 02dfb6f3909d8bb0007a273ca677cf11d2d1a0fbe9f044acb701a2bc7d61de0ad3"}, "vout": 1, "txid": "5d0690fc1f6b18b7072d523908f83f3914feaeae73b2bebd5f989790b11fca1f"}], "txid": "be9a4c9c883066b369e4684c0532b21f95dfe51ca006776c8d25b5845e7560b3", "blocktime": 1537873891, "version": 1, "confirmations": 11475, "time": 1537873891, "locktime": 0, "vsize": 226, "size": 226}