{"hash": "be9bec9109f12f888bbf8fad2247501870e31c7a706e53c5f8fab19541e3ddae", "blockhash": "0000000000000000001f76057863aec43deb6fa401d9628bb513d65a8098bfab", "vout": [{"scriptPubKey": {"reqSigs": 1, "hex": "76a914ee8537eb15ad897e82f77fa56dc16ed8cbe6d5c588ac", "addresses": ["1NkBQqQDYFYCsRc4dyayLRho8n5ThSes6j"], "asm": "OP_DUP OP_HASH160 ee8537eb15ad897e82f77fa56dc16ed8cbe6d5c5 OP_EQUALVERIFY OP_CHECKSIG", "type": "pubkeyhash"}, "value": 0.00095347, "n": 0}, {"scriptPubKey": {"reqSigs": 1, "hex": "76a91438a5a508458ee8554a42b247f66c92f027114d5488ac", "addresses": ["16AXGwEb9htgBVQS1Z8ge5dUy97gEca6xB"], "asm": "OP_DUP OP_HASH160 38a5a508458ee8554a42b247f66c92f027114d54 OP_EQUALVERIFY OP_CHECKSIG", "type": "pubkeyhash"}, "value": 0.01, "n": 1}], "hex": "010000000f5fd8325dcecdc9b31c81d53ee68bdafa79739270b3fa1591874fdaca92c4b902000000006a473044022017d16a74f8df216fa1e6540bf8611bab6cf0c1eda19e4c96664f2c1938bca19602203d42eb3f6c0c85df3095f2dce6a57379d902a30395a37d50ec014513f4e93110012102ede6604f9223aa2ec0b8bdb022f2049c0532a84851553c88966178eebae1e837ffffffffea2b87dc704e03b329f99ef3dab5363d9d06bca367dd1843fc35778d1e5f0e13000000006b483045022100f138ccb022a08171d9b8564af1a5a3d3aae579e477fa15d930beb15cfd24307b0220733e683965e8d2b4403173c4c37f3d9da25c28202c24238cf49fba5a0a6a25ee0121023cabcb39b0be8a6f0bd5961d9b9b6b8be246d02ba43f882a8d64d32de81a1fdeffffffffcc13ce684c4cfefc8e710b4b02b5ed46c0dd3d1c461d9a4b80a0e13337ffde18000000006b483045022100c2787ffa30d6e4db178aeaf82920ab65ae7d96d1463100c5722cb9d1291e780002200ce826d16b704d5474d7d9b4415ab854e71ef2c87312e5b31483ded638bdd8cb012102b285118e4a638109019187bd58ba4d8f426376d2f108692cd842e5eb86278efcffffffff9f43eb4a8c11f0ed0ba9c4ed15b3286549599475d671965469def65ef55ba019000000006b483045022100e1236a44d150933600578722fddebbfda7490645b7055010992c4dc3a630a47e02202fea1098f8f541caf7ef0489267b55db1863a0070eff5e47d20ee4fd41c6aeaa0121023cabcb39b0be8a6f0bd5961d9b9b6b8be246d02ba43f882a8d64d32de81a1fdeffffffff606f47a21446f4961a72204f2394547deedc7309d8f4855987c4d2d69c9c2621000000006b483045022100c25f5ad18f3236f323211aac3896d2bc3a73458e8752133ff81976dcd719550602201cfe6e8f4152a1ec68da02546d178832a208b6e923dd9c24f1e0dc33af25540c012102ede6604f9223aa2ec0b8bdb022f2049c0532a84851553c88966178eebae1e837ffffffff4f64f54bcf04f755102e65c3647c1c7c25b38b36872dbc60af7bec7f04f06b2e000000006b483045022100ec1585ae9ddb0e375ccc471f5a331470d1bb585604c9ecb81b0b789df869722e022041e8732e45cb19bdd841df9aab82927ea7a20bce5545a7360ac105e9c914f56a012102ede6604f9223aa2ec0b8bdb022f2049c0532a84851553c88966178eebae1e837ffffffff601b8ab77e3d6b1c9cf4ec970e8d594dcf5734657cc3d984d8784b6016ceda2f000000006b483045022100f52e4fd94f4a7a9c9708203dbcdcd6b21fb31718d9dbab22d6bf771e5ad67b8f022061e896447bbcf6fbb77c2f9b9b5ab228486c0de98ea10ea88148229761bf9e130121023cabcb39b0be8a6f0bd5961d9b9b6b8be246d02ba43f882a8d64d32de81a1fdeffffffff7fff77dda85198dca9098b2a0b5a31afd10316d11acb1c61008e90e0ae2d3358000000006b483045022100a6497c1477b404619b6f1bdd17cc313e2b37b0dca066ce2847e94e338d29f10b0220785d66f4fe0e0351f194484923ff914f7dc0c6e4b16a79ba46821b4c5c7a8c820121023cabcb39b0be8a6f0bd5961d9b9b6b8be246d02ba43f882a8d64d32de81a1fdeffffffff8932248ed20653a5deed5433af66779040bd23803c926e6149816724df8b1e63010000006b483045022100c83177aa1909c07b87fed8c5b528b66c3b40b46437227905950308b28011d21002202bb54aa6bc27e6401070f357694ace6307c471ce6c0053ef73dd86f738a3ad33012102102b4eb6d3b4947b438ede1ed61b984830464d1839dbe5fa67ce7f1b78baf7d1ffffffff4eaa5c6c598d5dac4578c831ae55cd76dac723849291420a1b6a5537e8b5357a000000006a4730440220476ed797b9482b9b0b126cf8873f29942082cefb144246c36e2ae91189d050d202200c37c9f5fe6eeb29cc5a63d15049ce1e07dbedf33d6ba3331f1c198d711b05f0012102ede6604f9223aa2ec0b8bdb022f2049c0532a84851553c88966178eebae1e837fffffffff0ad9194ef595ea1a095b497a67aa4d41ef6350b29cf873dcd4b07cc1538678b000000006b483045022100ca5d531f8c3d06c54a7f0c261024dd949d08f9db04e1a5dbfbc4bb284aef51be02202ec0bd524b6edaa2f7d3622f8f788e13c0e4d1e0aa28236602466d944f31f2e6012102ede6604f9223aa2ec0b8bdb022f2049c0532a84851553c88966178eebae1e837ffffffffac2ff585256c03b3a3f9b7239adb1cdf21a059cdad3959824201f4bfcc34d8a8000000006a4730440220241c5f3f6d58f0ba4454e1ef90fecacb994f91e964f151f38c486643be19ce93022050421e5c8e8389a4878ea8bd139c2de51973615c6d415ee24c5eaf5028c829060121023cabcb39b0be8a6f0bd5961d9b9b6b8be246d02ba43f882a8d64d32de81a1fdeffffffff207a3f715747ad93e995f5798768cc62fb7c4dd657a5cc4c47cd8ed02d1e1eaf000000006b483045022100a05ade70c65c041fbccbd0a8fc892610f3e8287ddae94f220c355fb8b992a8fc022079b81b26174a23d73988035dd0a34d648f6987bfc136555eff826802d818ddab012102ede6604f9223aa2ec0b8bdb022f2049c0532a84851553c88966178eebae1e837ffffffffb06ecd00928089defd1550e6bf41d43e25dc4ef136c6f34ced94c399d2c7ffc6010000006a473044022025079e41b118782b45c1c8a195777bcdfb638225e3f53fa55a5274fb6cf0a8f802201866990bf7b65abbd698d4d280a45fb0e3d23993a0c7544432c17764ea2668fb012102102b4eb6d3b4947b438ede1ed61b984830464d1839dbe5fa67ce7f1b78baf7d1ffffffff2862160a36abd7c0a4e1090cb19883c08f1101aa7a849484a22eb43814b79edb000000006a47304402205e6fcd3235b73576491df542ac9a0da830cf6475ef0f70e9be41bb657d10858b02202e3d65b307d1185b791b1fe3600b871d1d40b195458de9c68bd5e1e5010e169b012102ede6604f9223aa2ec0b8bdb022f2049c0532a84851553c88966178eebae1e837ffffffff0273740100000000001976a914ee8537eb15ad897e82f77fa56dc16ed8cbe6d5c588ac40420f00000000001976a91438a5a508458ee8554a42b247f66c92f027114d5488ac00000000", "vin": [{"sequence": 4294967295, "scriptSig": {"hex": "473044022017d16a74f8df216fa1e6540bf8611bab6cf0c1eda19e4c96664f2c1938bca19602203d42eb3f6c0c85df3095f2dce6a57379d902a30395a37d50ec014513f4e93110012102ede6604f9223aa2ec0b8bdb022f2049c0532a84851553c88966178eebae1e837", "asm": "3044022017d16a74f8df216fa1e6540bf8611bab6cf0c1eda19e4c96664f2c1938bca19602203d42eb3f6c0c85df3095f2dce6a57379d902a30395a37d50ec014513f4e93110[ALL] 02ede6604f9223aa2ec0b8bdb022f2049c0532a84851553c88966178eebae1e837"}, "vout": 0, "txid": "02b9c492cada4f879115fab370927379fada8be63ed5811cb3c9cdce5d32d85f"}, {"sequence": 4294967295, "scriptSig": {"hex": "483045022100f138ccb022a08171d9b8564af1a5a3d3aae579e477fa15d930beb15cfd24307b0220733e683965e8d2b4403173c4c37f3d9da25c28202c24238cf49fba5a0a6a25ee0121023cabcb39b0be8a6f0bd5961d9b9b6b8be246d02ba43f882a8d64d32de81a1fde", "asm": "3045022100f138ccb022a08171d9b8564af1a5a3d3aae579e477fa15d930beb15cfd24307b0220733e683965e8d2b4403173c4c37f3d9da25c28202c24238cf49fba5a0a6a25ee[ALL] 023cabcb39b0be8a6f0bd5961d9b9b6b8be246d02ba43f882a8d64d32de81a1fde"}, "vout": 0, "txid": "130e5f1e8d7735fc4318dd67a3bc069d3d36b5daf39ef929b3034e70dc872bea"}, {"sequence": 4294967295, "scriptSig": {"hex": "483045022100c2787ffa30d6e4db178aeaf82920ab65ae7d96d1463100c5722cb9d1291e780002200ce826d16b704d5474d7d9b4415ab854e71ef2c87312e5b31483ded638bdd8cb012102b285118e4a638109019187bd58ba4d8f426376d2f108692cd842e5eb86278efc", "asm": "3045022100c2787ffa30d6e4db178aeaf82920ab65ae7d96d1463100c5722cb9d1291e780002200ce826d16b704d5474d7d9b4415ab854e71ef2c87312e5b31483ded638bdd8cb[ALL] 02b285118e4a638109019187bd58ba4d8f426376d2f108692cd842e5eb86278efc"}, "vout": 0, "txid": "18deff3733e1a0804b9a1d461c3dddc046edb5024b0b718efcfe4c4c68ce13cc"}, {"sequence": 4294967295, "scriptSig": {"hex": "483045022100e1236a44d150933600578722fddebbfda7490645b7055010992c4dc3a630a47e02202fea1098f8f541caf7ef0489267b55db1863a0070eff5e47d20ee4fd41c6aeaa0121023cabcb39b0be8a6f0bd5961d9b9b6b8be246d02ba43f882a8d64d32de81a1fde", "asm": "3045022100e1236a44d150933600578722fddebbfda7490645b7055010992c4dc3a630a47e02202fea1098f8f541caf7ef0489267b55db1863a0070eff5e47d20ee4fd41c6aeaa[ALL] 023cabcb39b0be8a6f0bd5961d9b9b6b8be246d02ba43f882a8d64d32de81a1fde"}, "vout": 0, "txid": "19a05bf55ef6de69549671d6759459496528b315edc4a90bedf0118c4aeb439f"}, {"sequence": 4294967295, "scriptSig": {"hex": "483045022100c25f5ad18f3236f323211aac3896d2bc3a73458e8752133ff81976dcd719550602201cfe6e8f4152a1ec68da02546d178832a208b6e923dd9c24f1e0dc33af25540c012102ede6604f9223aa2ec0b8bdb022f2049c0532a84851553c88966178eebae1e837", "asm": "3045022100c25f5ad18f3236f323211aac3896d2bc3a73458e8752133ff81976dcd719550602201cfe6e8f4152a1ec68da02546d178832a208b6e923dd9c24f1e0dc33af25540c[ALL] 02ede6604f9223aa2ec0b8bdb022f2049c0532a84851553c88966178eebae1e837"}, "vout": 0, "txid": "21269c9cd6d2c4875985f4d80973dcee7d5494234f20721a96f44614a2476f60"}, {"sequence": 4294967295, "scriptSig": {"hex": "483045022100ec1585ae9ddb0e375ccc471f5a331470d1bb585604c9ecb81b0b789df869722e022041e8732e45cb19bdd841df9aab82927ea7a20bce5545a7360ac105e9c914f56a012102ede6604f9223aa2ec0b8bdb022f2049c0532a84851553c88966178eebae1e837", "asm": "3045022100ec1585ae9ddb0e375ccc471f5a331470d1bb585604c9ecb81b0b789df869722e022041e8732e45cb19bdd841df9aab82927ea7a20bce5545a7360ac105e9c914f56a[ALL] 02ede6604f9223aa2ec0b8bdb022f2049c0532a84851553c88966178eebae1e837"}, "vout": 0, "txid": "2e6bf0047fec7baf60bc2d87368bb3257c1c7c64c3652e1055f704cf4bf5644f"}, {"sequence": 4294967295, "scriptSig": {"hex": "483045022100f52e4fd94f4a7a9c9708203dbcdcd6b21fb31718d9dbab22d6bf771e5ad67b8f022061e896447bbcf6fbb77c2f9b9b5ab228486c0de98ea10ea88148229761bf9e130121023cabcb39b0be8a6f0bd5961d9b9b6b8be246d02ba43f882a8d64d32de81a1fde", "asm": "3045022100f52e4fd94f4a7a9c9708203dbcdcd6b21fb31718d9dbab22d6bf771e5ad67b8f022061e896447bbcf6fbb77c2f9b9b5ab228486c0de98ea10ea88148229761bf9e13[ALL] 023cabcb39b0be8a6f0bd5961d9b9b6b8be246d02ba43f882a8d64d32de81a1fde"}, "vout": 0, "txid": "2fdace16604b78d884d9c37c653457cf4d598d0e97ecf49c1c6b3d7eb78a1b60"}, {"sequence": 4294967295, "scriptSig": {"hex": "483045022100a6497c1477b404619b6f1bdd17cc313e2b37b0dca066ce2847e94e338d29f10b0220785d66f4fe0e0351f194484923ff914f7dc0c6e4b16a79ba46821b4c5c7a8c820121023cabcb39b0be8a6f0bd5961d9b9b6b8be246d02ba43f882a8d64d32de81a1fde", "asm": "3045022100a6497c1477b404619b6f1bdd17cc313e2b37b0dca066ce2847e94e338d29f10b0220785d66f4fe0e0351f194484923ff914f7dc0c6e4b16a79ba46821b4c5c7a8c82[ALL] 023cabcb39b0be8a6f0bd5961d9b9b6b8be246d02ba43f882a8d64d32de81a1fde"}, "vout": 0, "txid": "58332daee0908e00611ccb1ad11603d1af315a0b2a8b09a9dc9851a8dd77ff7f"}, {"sequence": 4294967295, "scriptSig": {"hex": "483045022100c83177aa1909c07b87fed8c5b528b66c3b40b46437227905950308b28011d21002202bb54aa6bc27e6401070f357694ace6307c471ce6c0053ef73dd86f738a3ad33012102102b4eb6d3b4947b438ede1ed61b984830464d1839dbe5fa67ce7f1b78baf7d1", "asm": "3045022100c83177aa1909c07b87fed8c5b528b66c3b40b46437227905950308b28011d21002202bb54aa6bc27e6401070f357694ace6307c471ce6c0053ef73dd86f738a3ad33[ALL] 02102b4eb6d3b4947b438ede1ed61b984830464d1839dbe5fa67ce7f1b78baf7d1"}, "vout": 1, "txid": "631e8bdf24678149616e923c8023bd40907766af3354eddea55306d28e243289"}, {"sequence": 4294967295, "scriptSig": {"hex": "4730440220476ed797b9482b9b0b126cf8873f29942082cefb144246c36e2ae91189d050d202200c37c9f5fe6eeb29cc5a63d15049ce1e07dbedf33d6ba3331f1c198d711b05f0012102ede6604f9223aa2ec0b8bdb022f2049c0532a84851553c88966178eebae1e837", "asm": "30440220476ed797b9482b9b0b126cf8873f29942082cefb144246c36e2ae91189d050d202200c37c9f5fe6eeb29cc5a63d15049ce1e07dbedf33d6ba3331f1c198d711b05f0[ALL] 02ede6604f9223aa2ec0b8bdb022f2049c0532a84851553c88966178eebae1e837"}, "vout": 0, "txid": "7a35b5e837556a1b0a4291928423c7da76cd55ae31c87845ac5d8d596c5caa4e"}, {"sequence": 4294967295, "scriptSig": {"hex": "483045022100ca5d531f8c3d06c54a7f0c261024dd949d08f9db04e1a5dbfbc4bb284aef51be02202ec0bd524b6edaa2f7d3622f8f788e13c0e4d1e0aa28236602466d944f31f2e6012102ede6604f9223aa2ec0b8bdb022f2049c0532a84851553c88966178eebae1e837", "asm": "3045022100ca5d531f8c3d06c54a7f0c261024dd949d08f9db04e1a5dbfbc4bb284aef51be02202ec0bd524b6edaa2f7d3622f8f788e13c0e4d1e0aa28236602466d944f31f2e6[ALL] 02ede6604f9223aa2ec0b8bdb022f2049c0532a84851553c88966178eebae1e837"}, "vout": 0, "txid": "8b673815cc074bcd3d87cf290b35f61ed4a47aa697b495a0a15e59ef9491adf0"}, {"sequence": 4294967295, "scriptSig": {"hex": "4730440220241c5f3f6d58f0ba4454e1ef90fecacb994f91e964f151f38c486643be19ce93022050421e5c8e8389a4878ea8bd139c2de51973615c6d415ee24c5eaf5028c829060121023cabcb39b0be8a6f0bd5961d9b9b6b8be246d02ba43f882a8d64d32de81a1fde", "asm": "30440220241c5f3f6d58f0ba4454e1ef90fecacb994f91e964f151f38c486643be19ce93022050421e5c8e8389a4878ea8bd139c2de51973615c6d415ee24c5eaf5028c82906[ALL] 023cabcb39b0be8a6f0bd5961d9b9b6b8be246d02ba43f882a8d64d32de81a1fde"}, "vout": 0, "txid": "a8d834ccbff40142825939adcd59a021df1cdb9a23b7f9a3b3036c2585f52fac"}, {"sequence": 4294967295, "scriptSig": {"hex": "483045022100a05ade70c65c041fbccbd0a8fc892610f3e8287ddae94f220c355fb8b992a8fc022079b81b26174a23d73988035dd0a34d648f6987bfc136555eff826802d818ddab012102ede6604f9223aa2ec0b8bdb022f2049c0532a84851553c88966178eebae1e837", "asm": "3045022100a05ade70c65c041fbccbd0a8fc892610f3e8287ddae94f220c355fb8b992a8fc022079b81b26174a23d73988035dd0a34d648f6987bfc136555eff826802d818ddab[ALL] 02ede6604f9223aa2ec0b8bdb022f2049c0532a84851553c88966178eebae1e837"}, "vout": 0, "txid": "af1e1e2dd08ecd474ccca557d64d7cfb62cc688779f595e993ad4757713f7a20"}, {"sequence": 4294967295, "scriptSig": {"hex": "473044022025079e41b118782b45c1c8a195777bcdfb638225e3f53fa55a5274fb6cf0a8f802201866990bf7b65abbd698d4d280a45fb0e3d23993a0c7544432c17764ea2668fb012102102b4eb6d3b4947b438ede1ed61b984830464d1839dbe5fa67ce7f1b78baf7d1", "asm": "3044022025079e41b118782b45c1c8a195777bcdfb638225e3f53fa55a5274fb6cf0a8f802201866990bf7b65abbd698d4d280a45fb0e3d23993a0c7544432c17764ea2668fb[ALL] 02102b4eb6d3b4947b438ede1ed61b984830464d1839dbe5fa67ce7f1b78baf7d1"}, "vout": 1, "txid": "c6ffc7d299c394ed4cf3c636f14edc253ed441bfe65015fdde89809200cd6eb0"}, {"sequence": 4294967295, "scriptSig": {"hex": "47304402205e6fcd3235b73576491df542ac9a0da830cf6475ef0f70e9be41bb657d10858b02202e3d65b307d1185b791b1fe3600b871d1d40b195458de9c68bd5e1e5010e169b012102ede6604f9223aa2ec0b8bdb022f2049c0532a84851553c88966178eebae1e837", "asm": "304402205e6fcd3235b73576491df542ac9a0da830cf6475ef0f70e9be41bb657d10858b02202e3d65b307d1185b791b1fe3600b871d1d40b195458de9c68bd5e1e5010e169b[ALL] 02ede6604f9223aa2ec0b8bdb022f2049c0532a84851553c88966178eebae1e837"}, "vout": 0, "txid": "db9eb71438b42ea28494847aaa01118fc08398b10c09e1a4c0d7ab360a166228"}], "txid": "be9bec9109f12f888bbf8fad2247501870e31c7a706e53c5f8fab19541e3ddae", "blocktime": 1537873891, "version": 1, "confirmations": 11478, "time": 1537873891, "locktime": 0, "vsize": 2293, "size": 2293}