{"hash": "be9e492e0ead4a2f72425151d487df5b552f32eb9acbace98c3b9eed56a40ac3", "blockhash": "000000000000000000022b45ed06c6f4ccd3cf7fb5ba4856ebd2e58215665228", "vout": [{"scriptPubKey": {"reqSigs": 1, "hex": "76a9143cd5a4c9fdb491872108d4a21a505d7b769a28ea88ac", "addresses": ["16YfUjcyv4Nyqwd9TTy5heg6wkE6QxauEv"], "asm": "OP_DUP OP_HASH160 3cd5a4c9fdb491872108d4a21a505d7b769a28ea OP_EQUALVERIFY OP_CHECKSIG", "type": "pubkeyhash"}, "value": 0.01, "n": 0}, {"scriptPubKey": {"reqSigs": 1, "hex": "76a9145e6dcfafbdcb63c8afb018abedc0d808430069a688ac", "addresses": ["19cJ4rVGXGMXrsfEdTwqxkHNLnyjTEEFUS"], "asm": "OP_DUP OP_HASH160 5e6dcfafbdcb63c8afb018abedc0d808430069a6 OP_EQUALVERIFY OP_CHECKSIG", "type": "pubkeyhash"}, "value": 0.11617722, "n": 1}], "hex": "0100000001d131f9e62ff8dc70b06f1c7232dd371a04cb5be42083f6bb07eea350dfc921fa010000006b483045022100c30ae5cff42dce39cb338205e61959e54a000898ce25f5af9d35b791d08d8319022012c3cd0e0fba259d5bbb9178ec33dc9a16f7f72142322890423459201f33d00b01210393d3ba200998f1ae4587db1ab07771ebfc1e351944c4079735ab754ea349d95effffffff0240420f00000000001976a9143cd5a4c9fdb491872108d4a21a505d7b769a28ea88acba45b100000000001976a9145e6dcfafbdcb63c8afb018abedc0d808430069a688ac00000000", "vin": [{"sequence": 4294967295, "scriptSig": {"hex": "483045022100c30ae5cff42dce39cb338205e61959e54a000898ce25f5af9d35b791d08d8319022012c3cd0e0fba259d5bbb9178ec33dc9a16f7f72142322890423459201f33d00b01210393d3ba200998f1ae4587db1ab07771ebfc1e351944c4079735ab754ea349d95e", "asm": "3045022100c30ae5cff42dce39cb338205e61959e54a000898ce25f5af9d35b791d08d8319022012c3cd0e0fba259d5bbb9178ec33dc9a16f7f72142322890423459201f33d00b[ALL] 0393d3ba200998f1ae4587db1ab07771ebfc1e351944c4079735ab754ea349d95e"}, "vout": 1, "txid": "fa21c9df50a3ee07bbf68320e45bcb041a37dd32721c6fb070dcf82fe6f931d1"}], "txid": "be9e492e0ead4a2f72425151d487df5b552f32eb9acbace98c3b9eed56a40ac3", "blocktime": 1537869901, "version": 1, "confirmations": 11524, "time": 1537869901, "locktime": 0, "vsize": 226, "size": 226}