{"hash": "be9fbcb82f19218da52d560adc721b4814d4d6162f4e3c075037e3739d0d93cd", "blockhash": "0000000000000000001cda96e906b7601b7a6fb1a3b62bca570a9e5d8f4b3de1", "vout": [{"scriptPubKey": {"reqSigs": 1, "hex": "a914f0439a37c17ff01711a71b4920f5680e52d00a3a87", "addresses": ["3PbR5gTPMtf8jhVwAaTRZjTKaBrH2dRzQC"], "asm": "OP_HASH160 f0439a37c17ff01711a71b4920f5680e52d00a3a OP_EQUAL", "type": "scripthash"}, "value": 0.00171, "n": 0}, {"scriptPubKey": {"reqSigs": 1, "hex": "76a91452d62f7eeffa4e6de74d572f8b12f219c8698def88ac", "addresses": ["18YzzbtzNnmtBY8cWtLLihR9vG8pFFhXu2"], "asm": "OP_DUP OP_HASH160 52d62f7eeffa4e6de74d572f8b12f219c8698def OP_EQUALVERIFY OP_CHECKSIG", "type": "pubkeyhash"}, "value": 0.04823984, "n": 1}], "hex": "01000000017d1e58975c3465a9819e00710fae6a7c53d41f19cf2d97d35df495f551e6e9dc010000006b483045022100b33ae78fdf559131829a404ab56de6c8337ebad6dab62d171d6fc0ba159dc5eb022045107849b2abc49724d25411031f28c85cbdee55e7ecc81f04c577f61058b8710121036ce3e1ee57b9737759a737c408cb9b0cd9ea522a48d0413038eb08df602f0396ffffffff02f89b02000000000017a914f0439a37c17ff01711a71b4920f5680e52d00a3a87b09b4900000000001976a91452d62f7eeffa4e6de74d572f8b12f219c8698def88ac00000000", "vin": [{"sequence": 4294967295, "scriptSig": {"hex": "483045022100b33ae78fdf559131829a404ab56de6c8337ebad6dab62d171d6fc0ba159dc5eb022045107849b2abc49724d25411031f28c85cbdee55e7ecc81f04c577f61058b8710121036ce3e1ee57b9737759a737c408cb9b0cd9ea522a48d0413038eb08df602f0396", "asm": "3045022100b33ae78fdf559131829a404ab56de6c8337ebad6dab62d171d6fc0ba159dc5eb022045107849b2abc49724d25411031f28c85cbdee55e7ecc81f04c577f61058b871[ALL] 036ce3e1ee57b9737759a737c408cb9b0cd9ea522a48d0413038eb08df602f0396"}, "vout": 1, "txid": "dce9e651f595f45dd3972dcf191fd4537c6aae0f71009e81a965345c97581e7d"}], "txid": "be9fbcb82f19218da52d560adc721b4814d4d6162f4e3c075037e3739d0d93cd", "blocktime": 1537873282, "version": 1, "confirmations": 11484, "time": 1537873282, "locktime": 0, "vsize": 224, "size": 224}