{"hash": "be99a8575e0b65b368813ba43868f090abfba1941e0f84f442225806d958defa", "blockhash": "0000000000000000000dcc0f55137456b1a82d3642486a52398922ac4d620174", "vout": [{"scriptPubKey": {"reqSigs": 1, "hex": "a914b44337f216fcdcf0a5895a72e8c4169a68ef293e87", "addresses": ["3J8A5VuG2KUQmCweiwHBDfv67VqWTciCM2"], "asm": "OP_HASH160 b44337f216fcdcf0a5895a72e8c4169a68ef293e OP_EQUAL", "type": "scripthash"}, "value": 0.01170163, "n": 0}], "hex": "01000000000101fa48fb8b23fd4c32fd3e885556a6499880e79b58eac3530ee9374c3e2128962101000000171600149cb5944aebe759f5f886ae4b4dbc2fc5b6823dbdffffffff01f3da11000000000017a914b44337f216fcdcf0a5895a72e8c4169a68ef293e87024730440220596c1a72fea17343eafc443ad94fdea939c7da922dd36c40c38ee9bc9bc8d0af022015cc89dd18c6cb596be82a1ec153cb09179ec4acb2fba02e069b48fbd83f593001210349cd4798563a85738714d82750ef44beef7626f693b3b055f6ced80a58419edf00000000", "vin": [{"txinwitness": ["30440220596c1a72fea17343eafc443ad94fdea939c7da922dd36c40c38ee9bc9bc8d0af022015cc89dd18c6cb596be82a1ec153cb09179ec4acb2fba02e069b48fbd83f593001", "0349cd4798563a85738714d82750ef44beef7626f693b3b055f6ced80a58419edf"], "sequence": 4294967295, "scriptSig": {"hex": "1600149cb5944aebe759f5f886ae4b4dbc2fc5b6823dbd", "asm": "00149cb5944aebe759f5f886ae4b4dbc2fc5b6823dbd"}, "vout": 1, "txid": "219628213e4c37e90e53c3ea589be7809849a65655883efd324cfd238bfb48fa"}], "txid": "bea67498eab5759b00e0b4acf20307ec05e13df404064ad8815001af5175bdf9", "blocktime": 1537870268, "version": 1, "confirmations": 11518, "time": 1537870268, "locktime": 0, "vsize": 134, "size": 215}