{"hash": "bead7311c9556947e22e808d965055e5a136df0dc92a245dee83f8221d4d3452", "blockhash": "0000000000000000000baef3f32e3676a92c3b2e5da21b426e4f302fc371ce76", "vout": [{"scriptPubKey": {"reqSigs": 1, "hex": "76a9143c52e5fc3f2dafd3ee07c70d9f5805ce3942871788ac", "addresses": ["16VxrPdqd1kNMpDXugPWz5dHg43ugPMZBx"], "asm": "OP_DUP OP_HASH160 3c52e5fc3f2dafd3ee07c70d9f5805ce39428717 OP_EQUALVERIFY OP_CHECKSIG", "type": "pubkeyhash"}, "value": 0.00632999, "n": 0}, {"scriptPubKey": {"type": "nulldata", "hex": "6a4c500000780e000114074dca0d0f0a83fc4c871b702940d64fa54d8eb2d19ed074892d00f8e86c5bf752102a944cbf9d9a9e8aa1975f5baa1b5f0614627f589089d81d100759d4ba30d2c37bb011d97e02cf", "asm": "OP_RETURN 0000780e000114074dca0d0f0a83fc4c871b702940d64fa54d8eb2d19ed074892d00f8e86c5bf752102a944cbf9d9a9e8aa1975f5baa1b5f0614627f589089d81d100759d4ba30d2c37bb011d97e02cf"}, "value": 0.0, "n": 1}], "hex": "0100000001ce0ff3f1a3b957533f493589eff7b363d58df07e669f0754a4792e0837c7ebf1000000006b483045022100f2b6e0c02a49d8ee5b88c92ccb7edcf79657479004a1605a89c78d4b8eeb2000022071acf2f50cea03d1b1a9eb345d15659e9c0383eb396e634ead95632cac764531012102aa7b80a141d3b4279729659578f710c9f55748835352125647329ad2feadce93ffffffff02a7a80900000000001976a9143c52e5fc3f2dafd3ee07c70d9f5805ce3942871788ac0000000000000000536a4c500000780e000114074dca0d0f0a83fc4c871b702940d64fa54d8eb2d19ed074892d00f8e86c5bf752102a944cbf9d9a9e8aa1975f5baa1b5f0614627f589089d81d100759d4ba30d2c37bb011d97e02cf00000000", "vin": [{"sequence": 4294967295, "scriptSig": {"hex": "483045022100f2b6e0c02a49d8ee5b88c92ccb7edcf79657479004a1605a89c78d4b8eeb2000022071acf2f50cea03d1b1a9eb345d15659e9c0383eb396e634ead95632cac764531012102aa7b80a141d3b4279729659578f710c9f55748835352125647329ad2feadce93", "asm": "3045022100f2b6e0c02a49d8ee5b88c92ccb7edcf79657479004a1605a89c78d4b8eeb2000022071acf2f50cea03d1b1a9eb345d15659e9c0383eb396e634ead95632cac764531[ALL] 02aa7b80a141d3b4279729659578f710c9f55748835352125647329ad2feadce93"}, "vout": 0, "txid": "f1ebc737082e79a454079f667ef08dd563b3f7ef8935493f5357b9a3f1f30fce"}], "txid": "bead7311c9556947e22e808d965055e5a136df0dc92a245dee83f8221d4d3452", "blocktime": 1537876114, "version": 1, "confirmations": 11462, "time": 1537876114, "locktime": 0, "vsize": 284, "size": 284}