{"hash": "19dc4378d2153b89f8869107bdff29f37fb73409d4bef5747ab31b43e5537b71", "blockhash": "0000000000000000001f76057863aec43deb6fa401d9628bb513d65a8098bfab", "vout": [{"scriptPubKey": {"reqSigs": 1, "hex": "a914c7c2484fb1974178eab305b548b5bc56f5690b6387", "addresses": ["3KuF8haQ88uyTSBPFVuZ3q2puxpt2k7m3G"], "asm": "OP_HASH160 c7c2484fb1974178eab305b548b5bc56f5690b63 OP_EQUAL", "type": "scripthash"}, "value": 0.03, "n": 0}, {"scriptPubKey": {"reqSigs": 1, "hex": "0014fbfae93a9bd51c79eb16ee08ef4ee86492336949", "addresses": ["bc1ql0awjw5m65w8n6ckacyw7nhgvjfrx62fml6m0p"], "asm": "0 fbfae93a9bd51c79eb16ee08ef4ee86492336949", "type": "witness_v0_keyhash"}, "value": 7.549e-05, "n": 1}], "hex": "010000000001013c036e1a530472ee4bb2a3eac7c7d65432856a4a496e9b7941033f76e15740ee0000000000ffffffff02c0c62d000000000017a914c7c2484fb1974178eab305b548b5bc56f5690b63877d1d000000000000160014fbfae93a9bd51c79eb16ee08ef4ee864923369490247304402206cb6c44cf202fdb3ac4e9f434baffd9e96d130474de6953800e195d34f405d770220441249d5ca2edc80bd6fcc1684020d01c2d70b3e9ad17eaae6e28d455fc3bd73012103c380d4df7f51f1eb7b66b69c241d99d6f78d9e9351275f1eea03bbade5c8065800000000", "vin": [{"txinwitness": ["304402206cb6c44cf202fdb3ac4e9f434baffd9e96d130474de6953800e195d34f405d770220441249d5ca2edc80bd6fcc1684020d01c2d70b3e9ad17eaae6e28d455fc3bd7301", "03c380d4df7f51f1eb7b66b69c241d99d6f78d9e9351275f1eea03bbade5c80658"], "sequence": 4294967295, "scriptSig": {"hex": "", "asm": ""}, "vout": 0, "txid": "ee4057e1763f0341799b6e494a6a853254d6c7c7eaa3b24bee7204531a6e033c"}], "txid": "beaf5553fbb7fdca612ebc076febc652382205a0c3fbf9f99c50d1ce27327984", "blocktime": 1537873891, "version": 1, "confirmations": 11478, "time": 1537873891, "locktime": 0, "vsize": 142, "size": 223}