{"hash": "beb937ed592d1021aff27a506f4b9c4ff78187d161a3b3edb3add7327beb3c80", "blockhash": "000000000000000000022b45ed06c6f4ccd3cf7fb5ba4856ebd2e58215665228", "vout": [{"scriptPubKey": {"reqSigs": 1, "hex": "76a9144dcaaca030e0c7f560d401c6fa4f79d8738510da88ac", "addresses": ["186Kpq7X2jXMTypx9AKjvsU6CzoTei6v9i"], "asm": "OP_DUP OP_HASH160 4dcaaca030e0c7f560d401c6fa4f79d8738510da OP_EQUALVERIFY OP_CHECKSIG", "type": "pubkeyhash"}, "value": 1.88030881, "n": 0}, {"scriptPubKey": {"reqSigs": 1, "hex": "a91404d39459bfcb22e0efd8ff84288b0a7be7a8ae4187", "addresses": ["328Y67TGV2R24PuR5dFxMps7SonxFzJtBT"], "asm": "OP_HASH160 04d39459bfcb22e0efd8ff84288b0a7be7a8ae41 OP_EQUAL", "type": "scripthash"}, "value": 0.2225, "n": 1}], "hex": "020000000112eaf277159a9baa279a40fe9f303fb7ed57a9e03cd6c2e8ea5d1f0e5c15eea4000000006a473044022044013bf51ff52160f598dd44224cd9bc7342d4997686d6a5b276ec71940801310220429e98f45b3c5fd68ad0545bee355345f6eaeb2f55309e669aeb46345aa121c70121032b4522f996246428176d76e68d19ce083758deb2f941b1c2c69d1eeb2070f2cdfeffffff02a11f350b000000001976a9144dcaaca030e0c7f560d401c6fa4f79d8738510da88ac108253010000000017a91404d39459bfcb22e0efd8ff84288b0a7be7a8ae41870b490800", "vin": [{"sequence": 4294967294, "scriptSig": {"hex": "473044022044013bf51ff52160f598dd44224cd9bc7342d4997686d6a5b276ec71940801310220429e98f45b3c5fd68ad0545bee355345f6eaeb2f55309e669aeb46345aa121c70121032b4522f996246428176d76e68d19ce083758deb2f941b1c2c69d1eeb2070f2cd", "asm": "3044022044013bf51ff52160f598dd44224cd9bc7342d4997686d6a5b276ec71940801310220429e98f45b3c5fd68ad0545bee355345f6eaeb2f55309e669aeb46345aa121c7[ALL] 032b4522f996246428176d76e68d19ce083758deb2f941b1c2c69d1eeb2070f2cd"}, "vout": 0, "txid": "a4ee155c0e1f5deae8c2d63ce0a957edb73f309ffe409a27aa9b9a1577f2ea12"}], "txid": "beb937ed592d1021aff27a506f4b9c4ff78187d161a3b3edb3add7327beb3c80", "blocktime": 1537869901, "version": 2, "confirmations": 11522, "time": 1537869901, "locktime": 542987, "vsize": 223, "size": 223}