{"hash": "beb97a726a67fd0304503754c41244777c4efd6666095a4a31e12fcbc4420c3c", "blockhash": "0000000000000000001e0dab787dd257d1dbfcb92a98c2207d5e1078be1f4165", "vout": [{"scriptPubKey": {"reqSigs": 1, "hex": "76a9145f7351c8416f3b760623325484c3b41718143d1b88ac", "addresses": ["19hhLm7ZoxFKhHzz1DJrAQZjdUapZcFZL8"], "asm": "OP_DUP OP_HASH160 5f7351c8416f3b760623325484c3b41718143d1b OP_EQUALVERIFY OP_CHECKSIG", "type": "pubkeyhash"}, "value": 1.75545489, "n": 0}], "hex": "01000000041b86cab1c0f496370c7ea1d0b2cbd217d7b8a6d5c8d069b1e6a046639a2f6314000000006b483045022100e7faa51e1bc5667df50d0320225022110cd5dde6962a8d3272cc9a040ff3ea8802206c9d929771640acacfb740557b18dd70ad873e12507ef5d3e7bc5087529fbec201210329456a3da44f18226efab14f01f8db1ca81a2425d31ef87c22547dbe31560234ffffffffb8cae90a3143499d971f37963612de4790d10cc81cfa8348801bd80f6df2d960010000006a473044022073821b3123a7d59d0422f6765798a684296532fac491d4e9c0b847ff879a229e02203ab4f2339f6433ba0f90b00bfa04432a7bca110acf62a076e663dd1438810f5a01210329456a3da44f18226efab14f01f8db1ca81a2425d31ef87c22547dbe31560234ffffffffa2d6fa87d5bb4b6c6ccd4ccdecf46c4d6a262e99bce6a576312befa376b1dd60040000006a47304402202d1061aced73663062d55e9780e2fa4c2c3e7946cc02be3147d65a4b9cc5f43102203c92d5c927e3f4ef4decb2eb7f93337dcbef3494db79e02e88e94e82b0f3941101210329456a3da44f18226efab14f01f8db1ca81a2425d31ef87c22547dbe31560234ffffffff58e464a529c1837fa9e3a2b3725e71b38c9c53671dfc7442b1ce15ca19e2c6f7010000006a473044022021be81466ca94a60229006c865dac49d948fece63ce4a17bff7cd4df82e6459c02200252d593b5bf77c086bff64c12fffdad5c78d97019c9f936e425a6e49850caec01210329456a3da44f18226efab14f01f8db1ca81a2425d31ef87c22547dbe31560234ffffffff01919c760a000000001976a9145f7351c8416f3b760623325484c3b41718143d1b88ac00000000", "vin": [{"sequence": 4294967295, "scriptSig": {"hex": "483045022100e7faa51e1bc5667df50d0320225022110cd5dde6962a8d3272cc9a040ff3ea8802206c9d929771640acacfb740557b18dd70ad873e12507ef5d3e7bc5087529fbec201210329456a3da44f18226efab14f01f8db1ca81a2425d31ef87c22547dbe31560234", "asm": "3045022100e7faa51e1bc5667df50d0320225022110cd5dde6962a8d3272cc9a040ff3ea8802206c9d929771640acacfb740557b18dd70ad873e12507ef5d3e7bc5087529fbec2[ALL] 0329456a3da44f18226efab14f01f8db1ca81a2425d31ef87c22547dbe31560234"}, "vout": 0, "txid": "14632f9a6346a0e6b169d0c8d5a6b8d717d2cbb2d0a17e0c3796f4c0b1ca861b"}, {"sequence": 4294967295, "scriptSig": {"hex": "473044022073821b3123a7d59d0422f6765798a684296532fac491d4e9c0b847ff879a229e02203ab4f2339f6433ba0f90b00bfa04432a7bca110acf62a076e663dd1438810f5a01210329456a3da44f18226efab14f01f8db1ca81a2425d31ef87c22547dbe31560234", "asm": "3044022073821b3123a7d59d0422f6765798a684296532fac491d4e9c0b847ff879a229e02203ab4f2339f6433ba0f90b00bfa04432a7bca110acf62a076e663dd1438810f5a[ALL] 0329456a3da44f18226efab14f01f8db1ca81a2425d31ef87c22547dbe31560234"}, "vout": 1, "txid": "60d9f26d0fd81b804883fa1cc80cd19047de123696371f979d4943310ae9cab8"}, {"sequence": 4294967295, "scriptSig": {"hex": "47304402202d1061aced73663062d55e9780e2fa4c2c3e7946cc02be3147d65a4b9cc5f43102203c92d5c927e3f4ef4decb2eb7f93337dcbef3494db79e02e88e94e82b0f3941101210329456a3da44f18226efab14f01f8db1ca81a2425d31ef87c22547dbe31560234", "asm": "304402202d1061aced73663062d55e9780e2fa4c2c3e7946cc02be3147d65a4b9cc5f43102203c92d5c927e3f4ef4decb2eb7f93337dcbef3494db79e02e88e94e82b0f39411[ALL] 0329456a3da44f18226efab14f01f8db1ca81a2425d31ef87c22547dbe31560234"}, "vout": 4, "txid": "60ddb176a3ef2b3176a5e6bc992e266a4d6cf4eccd4ccd6c6c4bbbd587fad6a2"}, {"sequence": 4294967295, "scriptSig": {"hex": "473044022021be81466ca94a60229006c865dac49d948fece63ce4a17bff7cd4df82e6459c02200252d593b5bf77c086bff64c12fffdad5c78d97019c9f936e425a6e49850caec01210329456a3da44f18226efab14f01f8db1ca81a2425d31ef87c22547dbe31560234", "asm": "3044022021be81466ca94a60229006c865dac49d948fece63ce4a17bff7cd4df82e6459c02200252d593b5bf77c086bff64c12fffdad5c78d97019c9f936e425a6e49850caec[ALL] 0329456a3da44f18226efab14f01f8db1ca81a2425d31ef87c22547dbe31560234"}, "vout": 1, "txid": "f7c6e219ca15ceb14274fc1d67539c8cb3715e72b3a2e3a97f83c129a564e458"}], "txid": "beb97a726a67fd0304503754c41244777c4efd6666095a4a31e12fcbc4420c3c", "blocktime": 1537872475, "version": 1, "confirmations": 11487, "time": 1537872475, "locktime": 0, "vsize": 633, "size": 633}