{"hash": "bebb78ce34a0241a0c1315ff8e63a1f8d7509c13158d73fe51eb8c2fab69a198", "blockhash": "0000000000000000000e13cef7c366c0283d82e591d1acd082e914b08063cdf1", "vout": [{"scriptPubKey": {"reqSigs": 1, "hex": "76a914df8621d4180e475e85221fdf168e0d6613777fbb88ac", "addresses": ["1MNtNSggvdxSQ5FK2GfeVghURH1K9unKSj"], "asm": "OP_DUP OP_HASH160 df8621d4180e475e85221fdf168e0d6613777fbb OP_EQUALVERIFY OP_CHECKSIG", "type": "pubkeyhash"}, "value": 7.53e-06, "n": 0}, {"scriptPubKey": {"reqSigs": 1, "hex": "76a9140ef6fb1cce489240abddf1fe78cd7e1fbca88f3f88ac", "addresses": ["12N8LDm1R6KPEKx9Rk1zZLnLewY3YQzCCk"], "asm": "OP_DUP OP_HASH160 0ef6fb1cce489240abddf1fe78cd7e1fbca88f3f OP_EQUALVERIFY OP_CHECKSIG", "type": "pubkeyhash"}, "value": 0.08715, "n": 1}], "hex": "010000000315917d89480aa3ed5ac1992973570db5622c292933e150b722f9b5daade61b3b000000006b483045022100a73e331a4ee9087ab46af3c1ed24f46891fea694bec51a26e40ed47c6e27b55d022025c87ecebc76cf93e4296f8ca13ae5e94d67f25e1ef3947484af6ab91696bc6a0121032296e135da87143389bacc61a7cd05aaddbada495a1f8597ff4102acb7f51f08ffffffffd6c357005bf35ee2188ed4e0a41ea6a00d3212d1f66d0bebf9a8044a3820a0a9000000006a473044022036692b051e56caa2fda7ccb63a451b436274ba8c8c2fdb502d6096c4c7e08fa802201b5062702aaaea533e6496bdd9c21606471bcbac37463655a377563808ff63c50121025b8f8675180c54892246d3c725a225de3b135e3a726b3f53fe9e1a4864193bcfffffffff78f7cf8976daec4de3c97cb132ab32c72ee2d835755ad18e528bef51dc6905e4000000006a473044022049549934c7464e53cf9dd663d3c5be1895e3365a00a32d599aafc009b96db33102202300cd4a543fc5c9a5f794fe49fdad65ca0fc408e5fc83662f0edad922e6a1ed0121037ae1a934916453da22fd3cd2862b9a3cab5f8244f18fc387322b42a242f6fad2ffffffff02f1020000000000001976a914df8621d4180e475e85221fdf168e0d6613777fbb88acf8fa8400000000001976a9140ef6fb1cce489240abddf1fe78cd7e1fbca88f3f88ac00000000", "vin": [{"sequence": 4294967295, "scriptSig": {"hex": "483045022100a73e331a4ee9087ab46af3c1ed24f46891fea694bec51a26e40ed47c6e27b55d022025c87ecebc76cf93e4296f8ca13ae5e94d67f25e1ef3947484af6ab91696bc6a0121032296e135da87143389bacc61a7cd05aaddbada495a1f8597ff4102acb7f51f08", "asm": "3045022100a73e331a4ee9087ab46af3c1ed24f46891fea694bec51a26e40ed47c6e27b55d022025c87ecebc76cf93e4296f8ca13ae5e94d67f25e1ef3947484af6ab91696bc6a[ALL] 032296e135da87143389bacc61a7cd05aaddbada495a1f8597ff4102acb7f51f08"}, "vout": 0, "txid": "3b1be6addab5f922b750e13329292c62b50d57732999c15aeda30a48897d9115"}, {"sequence": 4294967295, "scriptSig": {"hex": "473044022036692b051e56caa2fda7ccb63a451b436274ba8c8c2fdb502d6096c4c7e08fa802201b5062702aaaea533e6496bdd9c21606471bcbac37463655a377563808ff63c50121025b8f8675180c54892246d3c725a225de3b135e3a726b3f53fe9e1a4864193bcf", "asm": "3044022036692b051e56caa2fda7ccb63a451b436274ba8c8c2fdb502d6096c4c7e08fa802201b5062702aaaea533e6496bdd9c21606471bcbac37463655a377563808ff63c5[ALL] 025b8f8675180c54892246d3c725a225de3b135e3a726b3f53fe9e1a4864193bcf"}, "vout": 0, "txid": "a9a020384a04a8f9eb0b6df6d112320da0a61ea4e0d48e18e25ef35b0057c3d6"}, {"sequence": 4294967295, "scriptSig": {"hex": "473044022049549934c7464e53cf9dd663d3c5be1895e3365a00a32d599aafc009b96db33102202300cd4a543fc5c9a5f794fe49fdad65ca0fc408e5fc83662f0edad922e6a1ed0121037ae1a934916453da22fd3cd2862b9a3cab5f8244f18fc387322b42a242f6fad2", "asm": "3044022049549934c7464e53cf9dd663d3c5be1895e3365a00a32d599aafc009b96db33102202300cd4a543fc5c9a5f794fe49fdad65ca0fc408e5fc83662f0edad922e6a1ed[ALL] 037ae1a934916453da22fd3cd2862b9a3cab5f8244f18fc387322b42a242f6fad2"}, "vout": 0, "txid": "e40569dc51ef8b528ed15a7535d8e22ec732ab32b17cc9e34decda7689cff778"}], "txid": "bebb78ce34a0241a0c1315ff8e63a1f8d7509c13158d73fe51eb8c2fab69a198", "blocktime": 1537871767, "version": 1, "confirmations": 11495, "time": 1537871767, "locktime": 0, "vsize": 520, "size": 520}