{"hash": "bebc3986fb9405cf1947672cd57c7b3b20ea938e50ff82c75658575219dcd96c", "blockhash": "0000000000000000000dcc0f55137456b1a82d3642486a52398922ac4d620174", "vout": [{"scriptPubKey": {"reqSigs": 1, "hex": "76a914cc623c558a6bec25e036633e9239c7a040bbbb4288ac", "addresses": ["1KdgXfkaxiuvkjEX5SV1Hzp188KFGWLb34"], "asm": "OP_DUP OP_HASH160 cc623c558a6bec25e036633e9239c7a040bbbb42 OP_EQUALVERIFY OP_CHECKSIG", "type": "pubkeyhash"}, "value": 0.02822621, "n": 0}, {"scriptPubKey": {"reqSigs": 1, "hex": "a9145b1e0cb26da23f3d949faf231f2dd3c9a02ee39e87", "addresses": ["39zoQtAYxrYndDMVik88Z1vjb8BWrUQzzF"], "asm": "OP_HASH160 5b1e0cb26da23f3d949faf231f2dd3c9a02ee39e OP_EQUAL", "type": "scripthash"}, "value": 0.01666, "n": 1}], "hex": "010000000215d88faa874f0cea918a522bfb8429717cbd036574ed4da98ec90228e1eb337b040000006b483045022100c64cdc10780feba2dc8c166a3fc90893b857cf6f5db3a14bdacb708d6ec9ba120220548c7b0fbaa47c7027a6b4eb3275d6e86c492284bfa38ba905804a1b41992481012102b3b5a896b4dd4272e75313fd2896ea9fe4606e475cbb28014fdbcfbf4209cf74ffffffffd50847077a6bf315637c019ebb979b00b229653a774bca0954e0f211e31f2866000000006a473044022053335de0a714a5f6f136542bae71f3f337c90b97f1e8bdf537d18fade30f494d02204848c23652d566d1c1a8cb6f449dc9c3d1bf02021e4b8e5559b34bf099f736be0121032830cf0b029074db570607a86d9f1dd5e5d5ddc84350226f2005f5122a941f24ffffffff02dd112b00000000001976a914cc623c558a6bec25e036633e9239c7a040bbbb4288acd06b19000000000017a9145b1e0cb26da23f3d949faf231f2dd3c9a02ee39e8700000000", "vin": [{"sequence": 4294967295, "scriptSig": {"hex": "483045022100c64cdc10780feba2dc8c166a3fc90893b857cf6f5db3a14bdacb708d6ec9ba120220548c7b0fbaa47c7027a6b4eb3275d6e86c492284bfa38ba905804a1b41992481012102b3b5a896b4dd4272e75313fd2896ea9fe4606e475cbb28014fdbcfbf4209cf74", "asm": "3045022100c64cdc10780feba2dc8c166a3fc90893b857cf6f5db3a14bdacb708d6ec9ba120220548c7b0fbaa47c7027a6b4eb3275d6e86c492284bfa38ba905804a1b41992481[ALL] 02b3b5a896b4dd4272e75313fd2896ea9fe4606e475cbb28014fdbcfbf4209cf74"}, "vout": 4, "txid": "7b33ebe12802c98ea94ded746503bd7c712984fb2b528a91ea0c4f87aa8fd815"}, {"sequence": 4294967295, "scriptSig": {"hex": "473044022053335de0a714a5f6f136542bae71f3f337c90b97f1e8bdf537d18fade30f494d02204848c23652d566d1c1a8cb6f449dc9c3d1bf02021e4b8e5559b34bf099f736be0121032830cf0b029074db570607a86d9f1dd5e5d5ddc84350226f2005f5122a941f24", "asm": "3044022053335de0a714a5f6f136542bae71f3f337c90b97f1e8bdf537d18fade30f494d02204848c23652d566d1c1a8cb6f449dc9c3d1bf02021e4b8e5559b34bf099f736be[ALL] 032830cf0b029074db570607a86d9f1dd5e5d5ddc84350226f2005f5122a941f24"}, "vout": 0, "txid": "66281fe311f2e05409ca4b773a6529b2009b97bb9e017c6315f36b7a074708d5"}], "txid": "bebc3986fb9405cf1947672cd57c7b3b20ea938e50ff82c75658575219dcd96c", "blocktime": 1537870268, "version": 1, "confirmations": 11518, "time": 1537870268, "locktime": 0, "vsize": 371, "size": 371}