{"hash": "158392c3fa7ee51f4441e90de91e07a5f26896f717da3117df30e6f498475cf8", "blockhash": "0000000000000000001cda96e906b7601b7a6fb1a3b62bca570a9e5d8f4b3de1", "vout": [{"scriptPubKey": {"reqSigs": 1, "hex": "a914c933f39ba5a238793385beb6c567a711e8d2343587", "addresses": ["3L2sym8Z3RUpquUh3auMshGwt5g9jHcXKn"], "asm": "OP_HASH160 c933f39ba5a238793385beb6c567a711e8d23435 OP_EQUAL", "type": "scripthash"}, "value": 0.0120838, "n": 0}, {"scriptPubKey": {"reqSigs": 1, "hex": "a9143b1306dd106226c6f7d734dc59c2998962d97b4987", "addresses": ["375NasHJE3Hmit1SiovY3iVYefzsfz4hHi"], "asm": "OP_HASH160 3b1306dd106226c6f7d734dc59c2998962d97b49 OP_EQUAL", "type": "scripthash"}, "value": 0.00070378, "n": 1}], "hex": "020000000001018ebe463ef1c357068fafe26988f1e899f7b6834d441f19025f8d7c60d8bf7935010000001716001408050e21783b0f3c1df06b1e3b1f3178c22686ddfeffffff023c7012000000000017a914c933f39ba5a238793385beb6c567a711e8d2343587ea1201000000000017a9143b1306dd106226c6f7d734dc59c2998962d97b498702483045022100a37a085bf0fb0d79713e082e83b77d5531e677f98aae8f249f9d0d39ed50969c0220682a8747246b2968e94c3f99becb83bfae9e7de15bef7bff66f6b05f20f6a230012103f8470fa05340c55c43a646e9154f6970c42265be90e7de3133515f43f5938b8c13490800", "vin": [{"txinwitness": ["3045022100a37a085bf0fb0d79713e082e83b77d5531e677f98aae8f249f9d0d39ed50969c0220682a8747246b2968e94c3f99becb83bfae9e7de15bef7bff66f6b05f20f6a23001", "03f8470fa05340c55c43a646e9154f6970c42265be90e7de3133515f43f5938b8c"], "sequence": 4294967294, "scriptSig": {"hex": "16001408050e21783b0f3c1df06b1e3b1f3178c22686dd", "asm": "001408050e21783b0f3c1df06b1e3b1f3178c22686dd"}, "vout": 1, "txid": "3579bfd8607c8d5f02191f444d83b6f799e8f18869e2af8f0657c3f13e46be8e"}], "txid": "bec0930a90f8c5e7ffa46e8d326190a0c50dc5b5fe59100e814161334e8a3990", "blocktime": 1537873282, "version": 2, "confirmations": 11485, "time": 1537873282, "locktime": 542995, "vsize": 166, "size": 248}