{"hash": "bec8524508a0d0168d39f7f1e928d056be6b924b88178b6633cae1bae7aefdb6", "blockhash": "00000000000000000017f5eb5941039fbcee6240d03bc1f2f8e35350df66a1d8", "vout": [{"scriptPubKey": {"reqSigs": 1, "hex": "76a91418fe08b8d8d09578ee323fd3fa42045d7090e51588ac", "addresses": ["13H9YCdmvY8Aq9ct7srTDru4NbpNL9aLHm"], "asm": "OP_DUP OP_HASH160 18fe08b8d8d09578ee323fd3fa42045d7090e515 OP_EQUALVERIFY OP_CHECKSIG", "type": "pubkeyhash"}, "value": 0.0019, "n": 0}, {"scriptPubKey": {"reqSigs": 1, "hex": "76a91487acadfbf6c413e44d3003c8aca160091c87b20988ac", "addresses": ["1DNP5tVjzJXYAY4MyBydR9cqVhGxDoxqvf"], "asm": "OP_DUP OP_HASH160 87acadfbf6c413e44d3003c8aca160091c87b209 OP_EQUALVERIFY OP_CHECKSIG", "type": "pubkeyhash"}, "value": 0.00908865, "n": 1}], "hex": "010000000174f300531c599070e5826da3729d5c1c4cd32815145e7d5460e7ac37cc040e76010000006b4830450221009ab23e107f429eefae9ffa7223517f29b794c7bacec350d644d85870f9f1d79002206c55e2bb7acf8ae943da46ccce35554987d933409862cea7dc8e350c42c1b3720121037b44679e6a279ef45ff6c6be38f67d3abc1310624a35861b0f8786a5bd69d406ffffffff0230e60200000000001976a91418fe08b8d8d09578ee323fd3fa42045d7090e51588ac41de0d00000000001976a91487acadfbf6c413e44d3003c8aca160091c87b20988ac00000000", "vin": [{"sequence": 4294967295, "scriptSig": {"hex": "4830450221009ab23e107f429eefae9ffa7223517f29b794c7bacec350d644d85870f9f1d79002206c55e2bb7acf8ae943da46ccce35554987d933409862cea7dc8e350c42c1b3720121037b44679e6a279ef45ff6c6be38f67d3abc1310624a35861b0f8786a5bd69d406", "asm": "30450221009ab23e107f429eefae9ffa7223517f29b794c7bacec350d644d85870f9f1d79002206c55e2bb7acf8ae943da46ccce35554987d933409862cea7dc8e350c42c1b372[ALL] 037b44679e6a279ef45ff6c6be38f67d3abc1310624a35861b0f8786a5bd69d406"}, "vout": 1, "txid": "760e04cc37ace760547d5e141528d34c1c5c9d72a36d82e57090591c5300f374"}], "txid": "bec8524508a0d0168d39f7f1e928d056be6b924b88178b6633cae1bae7aefdb6", "blocktime": 1537874412, "version": 1, "confirmations": 11467, "time": 1537874412, "locktime": 0, "vsize": 226, "size": 226}