{"hash": "bedb79649e3f4da48310c399e690d527b885cc2c140b8153bbbc8cdae3eea2f0", "blockhash": "00000000000000000017f5eb5941039fbcee6240d03bc1f2f8e35350df66a1d8", "vout": [{"scriptPubKey": {"reqSigs": 1, "hex": "76a91432ae4e2dc0cde019b5b15f1ce4ac4b9c6c9c3c5d88ac", "addresses": ["15cybYSQQ1tLZZfjXGeYvKeTjCfHkSBSY5"], "asm": "OP_DUP OP_HASH160 32ae4e2dc0cde019b5b15f1ce4ac4b9c6c9c3c5d OP_EQUALVERIFY OP_CHECKSIG", "type": "pubkeyhash"}, "value": 0.00655281, "n": 0}, {"scriptPubKey": {"reqSigs": 1, "hex": "a914f3c531d6ce3420e95af13170affd7a2296b0666687", "addresses": ["3PuxMV7671pNSPoBqZyLTQv8WFR3y4vDZZ"], "asm": "OP_HASH160 f3c531d6ce3420e95af13170affd7a2296b06666 OP_EQUAL", "type": "scripthash"}, "value": 0.07815431, "n": 1}], "hex": "010000000195c895ef4d1f8589249c8d66183dbaeeeb7927f34235f7544d8ed41f582dafe4010000006a47304402204f50bf48d829929ecd276d642f00d5ec0679ec252b836b2ed083ac35e05d4dc502200b5a2140851f8f76d371280cf88c8e97e35020c1562bf647f4c28f1f9ebf0fbd0121032c3e9172dc07881700ac948ae7f5ecae1c28879ca3e6509f14bb09dc365049a1ffffffff02b1ff0900000000001976a91432ae4e2dc0cde019b5b15f1ce4ac4b9c6c9c3c5d88ac074177000000000017a914f3c531d6ce3420e95af13170affd7a2296b066668700000000", "vin": [{"sequence": 4294967295, "scriptSig": {"hex": "47304402204f50bf48d829929ecd276d642f00d5ec0679ec252b836b2ed083ac35e05d4dc502200b5a2140851f8f76d371280cf88c8e97e35020c1562bf647f4c28f1f9ebf0fbd0121032c3e9172dc07881700ac948ae7f5ecae1c28879ca3e6509f14bb09dc365049a1", "asm": "304402204f50bf48d829929ecd276d642f00d5ec0679ec252b836b2ed083ac35e05d4dc502200b5a2140851f8f76d371280cf88c8e97e35020c1562bf647f4c28f1f9ebf0fbd[ALL] 032c3e9172dc07881700ac948ae7f5ecae1c28879ca3e6509f14bb09dc365049a1"}, "vout": 1, "txid": "e4af2d581fd48e4d54f73542f32779ebeeba3d18668d9c2489851f4def95c895"}], "txid": "bedb79649e3f4da48310c399e690d527b885cc2c140b8153bbbc8cdae3eea2f0", "blocktime": 1537874412, "version": 1, "confirmations": 11467, "time": 1537874412, "locktime": 0, "vsize": 223, "size": 223}