{"hash": "f8a5c80182513eb7eedca60c8928dfd944472237a96f94092b79d14d57b2e9ec", "blockhash": "0000000000000000000baef3f32e3676a92c3b2e5da21b426e4f302fc371ce76", "vout": [{"scriptPubKey": {"reqSigs": 1, "hex": "a91474ac23449f783e38f54bb29ac12625efab5eef5a87", "addresses": ["3CKvX8wayvU2FzoKZyFw7YYe2W3x3haTKX"], "asm": "OP_HASH160 74ac23449f783e38f54bb29ac12625efab5eef5a OP_EQUAL", "type": "scripthash"}, "value": 0.00030156, "n": 0}, {"scriptPubKey": {"reqSigs": 1, "hex": "a9145ce243af5db577efe8af4e6c8e5f969081714a2087", "addresses": ["3AA99KPfuChupijgRCztZgX2hMjGyZwaba"], "asm": "OP_HASH160 5ce243af5db577efe8af4e6c8e5f969081714a20 OP_EQUAL", "type": "scripthash"}, "value": 0.00152461, "n": 1}], "hex": "01000000000101d77be8d8bf789e7996d093c9a637f005720b6bcfa1d9ed8e1e7a83c598cd5fc70100000023220020fdb54f5f326ec4446e557471395428cdb580c76c812975b69b1b31565c138426ffffffff02cc7500000000000017a91474ac23449f783e38f54bb29ac12625efab5eef5a878d5302000000000017a9145ce243af5db577efe8af4e6c8e5f969081714a20870400483045022100d1ef396633df281971e50a99e40472f07957455794c6b9b26f413e43e7822f1d02204cf5313b0403d47f4c983b9d3ff48954d20803ba2278bc5877a7909897b4a507014830450221009aa69a906eacab98f224879029d5d405695c03ecdc9ce840ac6184a49d2d377f02200d402808f17a4debd0ea720dc1641b8c886e7af0a83113bbe845ecb5a563503201475221029964f3b47ee23e51374c0c7e064cfcf62b2b67290faa60b6de1f42bc78f7dbc62103871fc2ca08e6950b38867e8e6a0e94ee625223d3aa0df5c65f414c6d784467e252ae00000000", "vin": [{"txinwitness": ["", "3045022100d1ef396633df281971e50a99e40472f07957455794c6b9b26f413e43e7822f1d02204cf5313b0403d47f4c983b9d3ff48954d20803ba2278bc5877a7909897b4a50701", "30450221009aa69a906eacab98f224879029d5d405695c03ecdc9ce840ac6184a49d2d377f02200d402808f17a4debd0ea720dc1641b8c886e7af0a83113bbe845ecb5a563503201", "5221029964f3b47ee23e51374c0c7e064cfcf62b2b67290faa60b6de1f42bc78f7dbc62103871fc2ca08e6950b38867e8e6a0e94ee625223d3aa0df5c65f414c6d784467e252ae"], "sequence": 4294967295, "scriptSig": {"hex": "220020fdb54f5f326ec4446e557471395428cdb580c76c812975b69b1b31565c138426", "asm": "0020fdb54f5f326ec4446e557471395428cdb580c76c812975b69b1b31565c138426"}, "vout": 1, "txid": "c75fcd98c5837a1e8eedd9a1cf6b0b7205f037a6c993d096799e78bfd8e87bd7"}], "txid": "bee17b0e7dc6eb2bb011de2190689b75300b385d8071a1d4e9bc0c547c34a5e3", "blocktime": 1537876114, "version": 1, "confirmations": 11460, "time": 1537876114, "locktime": 0, "vsize": 206, "size": 372}