{"hash": "0f615e4694ba5ad7ecafade5e8c3aa952d8f96a4e34b9e25f075d42c8d46237b", "blockhash": "00000000000000000017f5eb5941039fbcee6240d03bc1f2f8e35350df66a1d8", "vout": [{"scriptPubKey": {"reqSigs": 1, "hex": "76a9148ae0199392c453bc2fc380ee1a1d73d6aa65094388ac", "addresses": ["1DfJiD1xfUumtrCsg5WsPKYxvC2XdcKMrp"], "asm": "OP_DUP OP_HASH160 8ae0199392c453bc2fc380ee1a1d73d6aa650943 OP_EQUALVERIFY OP_CHECKSIG", "type": "pubkeyhash"}, "value": 0.00059999, "n": 0}, {"scriptPubKey": {"reqSigs": 1, "hex": "00147c4711847c61d17f1d36cb61ab5f32d1a69a67c3", "addresses": ["bc1q03r3rpruv8gh78fkeds6khej6xnf5e7rwpgw3x"], "asm": "0 7c4711847c61d17f1d36cb61ab5f32d1a69a67c3", "type": "witness_v0_keyhash"}, "value": 4.63e-05, "n": 1}], "hex": "01000000000101e417c1113fc8d2deaae3447bc2ab4d5e4adf5049d35935e48077e49fec67213f0000000000ffffffff025fea0000000000001976a9148ae0199392c453bc2fc380ee1a1d73d6aa65094388ac16120000000000001600147c4711847c61d17f1d36cb61ab5f32d1a69a67c3024730440220356aed13f71e7a126e4f2a58224f088b480e3530c190ff4adcfcd78e97d98ea102201522a4177b6557b7b2ce85edba64fe56c6340a446d07e66d3fa2a02060afc0b10121029ac895a2578bb980e9013664a524563cf7063b8210b81e82044436d74923f37000000000", "vin": [{"txinwitness": ["30440220356aed13f71e7a126e4f2a58224f088b480e3530c190ff4adcfcd78e97d98ea102201522a4177b6557b7b2ce85edba64fe56c6340a446d07e66d3fa2a02060afc0b101", "029ac895a2578bb980e9013664a524563cf7063b8210b81e82044436d74923f370"], "sequence": 4294967295, "scriptSig": {"hex": "", "asm": ""}, "vout": 0, "txid": "3f2167ec9fe47780e43559d34950df4a5e4dabc27b44e3aaded2c83f11c117e4"}], "txid": "bee4c3c3dab5fd6c4c1141e1e12f28a0b65cc981004db48ec3cf7bd2ca969a81", "blocktime": 1537874412, "version": 1, "confirmations": 11467, "time": 1537874412, "locktime": 0, "vsize": 144, "size": 225}