{"hash": "bee784e8fa9f6e768b94d8eaa91f443ffe157f905d9d4388ab66936da2ef1473", "blockhash": "00000000000000000017f5eb5941039fbcee6240d03bc1f2f8e35350df66a1d8", "vout": [{"scriptPubKey": {"reqSigs": 1, "hex": "a9142483ae19f438b68064ff6e732a128f271a5ffc1d87", "addresses": ["3525zk1BacY4N8wC3AuJkLmDE1UbpQ3hW8"], "asm": "OP_HASH160 2483ae19f438b68064ff6e732a128f271a5ffc1d OP_EQUAL", "type": "scripthash"}, "value": 0.0029636, "n": 0}, {"scriptPubKey": {"reqSigs": 1, "hex": "76a91451a62f93ed329563bb25ec4b7f9a9a9b4ef1ceba88ac", "addresses": ["18SipLMHPqVECH6PV3jBa6ABzZjXGuehgY"], "asm": "OP_DUP OP_HASH160 51a62f93ed329563bb25ec4b7f9a9a9b4ef1ceba OP_EQUALVERIFY OP_CHECKSIG", "type": "pubkeyhash"}, "value": 0.04852339, "n": 1}], "hex": "0100000001be16ab83e5e19d6240f41659c7e538c7e02b8c0ae1b17d8a673fe31c59740bdd010000006a47304402204bc6fd2cb2d34bebe30ef7a2f2cbeb8dbcd06093430a584369055bf9e684a90802202cbbc9dd4cd051afe3b4602c60885e0cdecdc9cd1aa3f75cc7a61d081cc99af201210345964a732c7854bb218c0432b2ec4ce0980bb4bca10563c3cee81824828737f9ffffffff02a88504000000000017a9142483ae19f438b68064ff6e732a128f271a5ffc1d87730a4a00000000001976a91451a62f93ed329563bb25ec4b7f9a9a9b4ef1ceba88ac00000000", "vin": [{"sequence": 4294967295, "scriptSig": {"hex": "47304402204bc6fd2cb2d34bebe30ef7a2f2cbeb8dbcd06093430a584369055bf9e684a90802202cbbc9dd4cd051afe3b4602c60885e0cdecdc9cd1aa3f75cc7a61d081cc99af201210345964a732c7854bb218c0432b2ec4ce0980bb4bca10563c3cee81824828737f9", "asm": "304402204bc6fd2cb2d34bebe30ef7a2f2cbeb8dbcd06093430a584369055bf9e684a90802202cbbc9dd4cd051afe3b4602c60885e0cdecdc9cd1aa3f75cc7a61d081cc99af2[ALL] 0345964a732c7854bb218c0432b2ec4ce0980bb4bca10563c3cee81824828737f9"}, "vout": 1, "txid": "dd0b74591ce33f678a7db1e10a8c2be0c738e5c75916f440629de1e583ab16be"}], "txid": "bee784e8fa9f6e768b94d8eaa91f443ffe157f905d9d4388ab66936da2ef1473", "blocktime": 1537874412, "version": 1, "confirmations": 11468, "time": 1537874412, "locktime": 0, "vsize": 223, "size": 223}