{"hash": "bee7c1a91787494f662c2ba321a47cf67d071db9f58c09b5e73d132aba0bbc84", "blockhash": "000000000000000000022b45ed06c6f4ccd3cf7fb5ba4856ebd2e58215665228", "vout": [{"scriptPubKey": {"type": "nulldata", "hex": "6a146f6d6e69000000000000001f0000000252cb74c0", "asm": "OP_RETURN 6f6d6e69000000000000001f0000000252cb74c0"}, "value": 0.0, "n": 0}, {"scriptPubKey": {"reqSigs": 1, "hex": "76a914cb2e2ea91ce7c7f2346a387860210c389f612a0888ac", "addresses": ["1KXKVk2SSdaoXcXLkFbkFYCAH3GS8CmxNq"], "asm": "OP_DUP OP_HASH160 cb2e2ea91ce7c7f2346a387860210c389f612a08 OP_EQUALVERIFY OP_CHECKSIG", "type": "pubkeyhash"}, "value": 6e-06, "n": 1}, {"scriptPubKey": {"reqSigs": 1, "hex": "76a9140e49b81f43f719255334d008a790ef674e2e72c288ac", "addresses": ["12JYmnfYU2ghzjwUAspzJsSnmJtK9bZPYR"], "asm": "OP_DUP OP_HASH160 0e49b81f43f719255334d008a790ef674e2e72c2 OP_EQUALVERIFY OP_CHECKSIG", "type": "pubkeyhash"}, "value": 0.05022516, "n": 2}, {"scriptPubKey": {"reqSigs": 1, "hex": "76a91499bba2ab365962ea798f738f5e10f275ebbcd25488ac", "addresses": ["1F1sAVJRmNfGknj2dUd5G5kuirym3pxm3U"], "asm": "OP_DUP OP_HASH160 99bba2ab365962ea798f738f5e10f275ebbcd254 OP_EQUALVERIFY OP_CHECKSIG", "type": "pubkeyhash"}, "value": 6e-06, "n": 3}], "hex": "0100000002916a77af04d05cc418de886107dc0d52519a8cc8999c718e881d35b40543b5cd020000006b483045022100eaf99e2d3f0fd3f280f93055193a399e718f09e32ded83c1bae7a477ea5bc0e3022056311ac8883a9a4e3c3d2e99eaf55656c08a256cae7cc5bf750f4f7ca5140a76012103f441abd5d27dc62c443b1f2900fb4ddfe3fa6ea678c998c44e5be9ee64886b56ffffffff35714e65f09553eb252d2c6006211714f47fd6593c0766a012e336338666a6e8020000006b483045022100f3b3b348017f21547214152a476ba1f834ebf9a3746c86124ae46d85748eb4f8022076d0aa525428119c91709958e5df5f522b72ea4417f03829f3aabae74838919001210361f26bf6731f956d2e62ee98a7a9fc6f0d36efdc9e6916973e7986a5ba9d19c4ffffffff040000000000000000166a146f6d6e69000000000000001f0000000252cb74c058020000000000001976a914cb2e2ea91ce7c7f2346a387860210c389f612a0888ac34a34c00000000001976a9140e49b81f43f719255334d008a790ef674e2e72c288ac58020000000000001976a91499bba2ab365962ea798f738f5e10f275ebbcd25488ac00000000", "vin": [{"sequence": 4294967295, "scriptSig": {"hex": "483045022100eaf99e2d3f0fd3f280f93055193a399e718f09e32ded83c1bae7a477ea5bc0e3022056311ac8883a9a4e3c3d2e99eaf55656c08a256cae7cc5bf750f4f7ca5140a76012103f441abd5d27dc62c443b1f2900fb4ddfe3fa6ea678c998c44e5be9ee64886b56", "asm": "3045022100eaf99e2d3f0fd3f280f93055193a399e718f09e32ded83c1bae7a477ea5bc0e3022056311ac8883a9a4e3c3d2e99eaf55656c08a256cae7cc5bf750f4f7ca5140a76[ALL] 03f441abd5d27dc62c443b1f2900fb4ddfe3fa6ea678c998c44e5be9ee64886b56"}, "vout": 2, "txid": "cdb54305b4351d888e719c99c88c9a51520ddc076188de18c45cd004af776a91"}, {"sequence": 4294967295, "scriptSig": {"hex": "483045022100f3b3b348017f21547214152a476ba1f834ebf9a3746c86124ae46d85748eb4f8022076d0aa525428119c91709958e5df5f522b72ea4417f03829f3aabae74838919001210361f26bf6731f956d2e62ee98a7a9fc6f0d36efdc9e6916973e7986a5ba9d19c4", "asm": "3045022100f3b3b348017f21547214152a476ba1f834ebf9a3746c86124ae46d85748eb4f8022076d0aa525428119c91709958e5df5f522b72ea4417f03829f3aabae748389190[ALL] 0361f26bf6731f956d2e62ee98a7a9fc6f0d36efdc9e6916973e7986a5ba9d19c4"}, "vout": 2, "txid": "e8a666863336e312a066073c59d67ff414172106602c2d25eb5395f0654e7135"}], "txid": "bee7c1a91787494f662c2ba321a47cf67d071db9f58c09b5e73d132aba0bbc84", "blocktime": 1537869901, "version": 1, "confirmations": 11522, "time": 1537869901, "locktime": 0, "vsize": 439, "size": 439}