{"hash": "f8d99174cc1ca2eae24fc2830decd74b0dedb96dfd45cd1adcb14ecd0bc20448", "blockhash": "0000000000000000001cda96e906b7601b7a6fb1a3b62bca570a9e5d8f4b3de1", "vout": [{"scriptPubKey": {"reqSigs": 1, "hex": "0014a8c6ad86428a0193bef66327e253931325c77fd7", "addresses": ["bc1q4rr2mpjz3gqe80hkvvn7y5unzvjuwl7hucrmk9"], "asm": "0 a8c6ad86428a0193bef66327e253931325c77fd7", "type": "witness_v0_keyhash"}, "value": 0.00509466, "n": 0}, {"scriptPubKey": {"reqSigs": 1, "hex": "76a91462f9a19bb360a0c3c690c954a73ac93b0defb7bb88ac", "addresses": ["1A2LGV8JrkBhHwfUaMMLy55eF2uQ2wYnWE"], "asm": "OP_DUP OP_HASH160 62f9a19bb360a0c3c690c954a73ac93b0defb7bb OP_EQUALVERIFY OP_CHECKSIG", "type": "pubkeyhash"}, "value": 0.010543, "n": 1}], "hex": "010000000001018dbde5361889db7fa9a8f33b5842b3ee3b95fa71171744d1d028f63d223e62890000000017160014816ace04088c0d4f62fd29e9c54477f2d7639031ffffffff021ac6070000000000160014a8c6ad86428a0193bef66327e253931325c77fd75c161000000000001976a91462f9a19bb360a0c3c690c954a73ac93b0defb7bb88ac0247304402205b7680d20eb7d51c62445065dccbc1f74d6f5c097476f27663aa5bcde021f62502204a42c1adf00d8d9f0250c55ff6bcab0db12ac3d948844d66ccdf7a6c650912980121022a1bade0962cc16c61a2637fb6dffa0245990c0af4f4f63f211b7c134825d5ef00000000", "vin": [{"txinwitness": ["304402205b7680d20eb7d51c62445065dccbc1f74d6f5c097476f27663aa5bcde021f62502204a42c1adf00d8d9f0250c55ff6bcab0db12ac3d948844d66ccdf7a6c6509129801", "022a1bade0962cc16c61a2637fb6dffa0245990c0af4f4f63f211b7c134825d5ef"], "sequence": 4294967295, "scriptSig": {"hex": "160014816ace04088c0d4f62fd29e9c54477f2d7639031", "asm": "0014816ace04088c0d4f62fd29e9c54477f2d7639031"}, "vout": 0, "txid": "89623e223df628d0d144171771fa953beeb342583bf3a8a97fdb891836e5bd8d"}], "txid": "beed77266d6cebb8ded5a11bbb58c740c17f22af9992d7d16a27b7b67819fbe8", "blocktime": 1537873282, "version": 1, "confirmations": 11484, "time": 1537873282, "locktime": 0, "vsize": 167, "size": 248}