{"hash": "bef06ac6cd1d3f07e2112db6a86548b09f659593993ad7356b26ff0ee6a4ea26", "blockhash": "00000000000000000004ffacab907a6b429b9a5745fa0b75af4234bf69dd7176", "vout": [{"scriptPubKey": {"type": "nulldata", "hex": "6a146f6d6e69000000000000001f0000008b299ff3e1", "asm": "OP_RETURN 6f6d6e69000000000000001f0000008b299ff3e1"}, "value": 0.0, "n": 0}, {"scriptPubKey": {"reqSigs": 1, "hex": "76a914882cc4f54c2ea08d18892bb11ab27fc43e466e7188ac", "addresses": ["1DR2XiiEjs91cTtp1LxyqEKm5ihNABmRZ7"], "asm": "OP_DUP OP_HASH160 882cc4f54c2ea08d18892bb11ab27fc43e466e71 OP_EQUALVERIFY OP_CHECKSIG", "type": "pubkeyhash"}, "value": 0.11035288, "n": 1}, {"scriptPubKey": {"reqSigs": 1, "hex": "76a9148893ad595b880a4be90e6ea9988b92f6236d6b2488ac", "addresses": ["1DT9osrgTBGgm6MVzoHSVjEvLyoLXiPWSD"], "asm": "OP_DUP OP_HASH160 8893ad595b880a4be90e6ea9988b92f6236d6b24 OP_EQUALVERIFY OP_CHECKSIG", "type": "pubkeyhash"}, "value": 5.46e-06, "n": 2}], "hex": "0100000001c470a348f5de6d1e0554fd9314d23ab70276825392815bd48cde0f80124e4cdf010000006b483045022100a84dfb48e9b22f43fa9ffa900a436680352025d6b97f48170ab4ea48a8d9862602204a2b59d89f65eef59abb92cda74a551501cbc625ad4d2bbcefb94bdafbd0818e012102d7800c61a710c2c233322b2fbdcbbd492c162678a6cf6e859c3b7322e14189eefeffffff030000000000000000166a146f6d6e69000000000000001f0000008b299ff3e19862a800000000001976a914882cc4f54c2ea08d18892bb11ab27fc43e466e7188ac22020000000000001976a9148893ad595b880a4be90e6ea9988b92f6236d6b2488acbf480800", "vin": [{"sequence": 4294967294, "scriptSig": {"hex": "483045022100a84dfb48e9b22f43fa9ffa900a436680352025d6b97f48170ab4ea48a8d9862602204a2b59d89f65eef59abb92cda74a551501cbc625ad4d2bbcefb94bdafbd0818e012102d7800c61a710c2c233322b2fbdcbbd492c162678a6cf6e859c3b7322e14189ee", "asm": "3045022100a84dfb48e9b22f43fa9ffa900a436680352025d6b97f48170ab4ea48a8d9862602204a2b59d89f65eef59abb92cda74a551501cbc625ad4d2bbcefb94bdafbd0818e[ALL] 02d7800c61a710c2c233322b2fbdcbbd492c162678a6cf6e859c3b7322e14189ee"}, "vout": 1, "txid": "df4c4e12800fde8cd45b819253827602b73ad21493fd54051e6ddef548a370c4"}], "txid": "bef06ac6cd1d3f07e2112db6a86548b09f659593993ad7356b26ff0ee6a4ea26", "blocktime": 1537875543, "version": 1, "confirmations": 11464, "time": 1537875543, "locktime": 542911, "vsize": 257, "size": 257}