{"hash": "0ddeff04e6369c9a8435580a908e0cf3bae5a660fc3cccd622c1d4e3a3083238", "blockhash": "00000000000000000018f53835495a110e01622372bf6ae95dc86f2b0ab887b0", "vout": [{"scriptPubKey": {"reqSigs": 1, "hex": "a9148397d0ff704ab2a2d52b9d1436696635cd10c64887", "addresses": ["3DgpK4Y4ovwH1fy4TWDWvLawMfa8VJzcFj"], "asm": "OP_HASH160 8397d0ff704ab2a2d52b9d1436696635cd10c648 OP_EQUAL", "type": "scripthash"}, "value": 0.2005221, "n": 0}, {"scriptPubKey": {"reqSigs": 1, "hex": "76a91499f39609359502f08c8c4a3be106aac6d67c6a1288ac", "addresses": ["1F32C1S7PvwteXErGkVgRLMXtPbHJtAHaz"], "asm": "OP_DUP OP_HASH160 99f39609359502f08c8c4a3be106aac6d67c6a12 OP_EQUALVERIFY OP_CHECKSIG", "type": "pubkeyhash"}, "value": 0.041835, "n": 1}], "hex": "02000000000101f6a6bdb8bf71823d9352c16e4cb261fae569c637f9d7666fb6084c4cf1d4743b01000000171600143e7af742faa95fd747cd9066984a9f691bdbf876feffffff02f2f831010000000017a9148397d0ff704ab2a2d52b9d1436696635cd10c64887ccd53f00000000001976a91499f39609359502f08c8c4a3be106aac6d67c6a1288ac0247304402206ccfd9be1567b8000100ce3a420a16ebb24f6b243f096095f74fd666c01d2edf02201d997e1b461f6ac9fe9c0ed49f668a5b7767f6f4a4b8f430eba03c0ced30e482012103e548dab3839a6ae2fef5c7e12a9ee9e7c12ff5ae4f8f55b0fca4c0aa4a7c96c90d490800", "vin": [{"txinwitness": ["304402206ccfd9be1567b8000100ce3a420a16ebb24f6b243f096095f74fd666c01d2edf02201d997e1b461f6ac9fe9c0ed49f668a5b7767f6f4a4b8f430eba03c0ced30e48201", "03e548dab3839a6ae2fef5c7e12a9ee9e7c12ff5ae4f8f55b0fca4c0aa4a7c96c9"], "sequence": 4294967294, "scriptSig": {"hex": "1600143e7af742faa95fd747cd9066984a9f691bdbf876", "asm": "00143e7af742faa95fd747cd9066984a9f691bdbf876"}, "vout": 1, "txid": "3b74d4f14c4c08b66f66d7f937c669e5fa61b24c6ec152933d8271bfb8bda6f6"}], "txid": "bf059dab011dd9f7848b9f5ce96f3fb81f93b013bcbf42636e0ba3772f2b4878", "blocktime": 1537870928, "version": 2, "confirmations": 11514, "time": 1537870928, "locktime": 542989, "vsize": 168, "size": 249}