{"hash": "3cb0b675b4690eea6d75d5763390c90c236b567718cee5f9d894cc43d058cd71", "blockhash": "0000000000000000000e13cef7c366c0283d82e591d1acd082e914b08063cdf1", "vout": [{"scriptPubKey": {"reqSigs": 1, "hex": "76a9140fb6190a421e9f2656bce436bc2d0815da75947188ac", "addresses": ["12S5HFopx2mKhSpKBNahppRDHHwyFpFDp2"], "asm": "OP_DUP OP_HASH160 0fb6190a421e9f2656bce436bc2d0815da759471 OP_EQUALVERIFY OP_CHECKSIG", "type": "pubkeyhash"}, "value": 0.00316474, "n": 0}, {"scriptPubKey": {"reqSigs": 1, "hex": "001478a67b27b143d55a24353bb8024d3462995721b1", "addresses": ["bc1q0zn8kfa3g0245fp48wuqynf5v2v4wgd3xy8sc2"], "asm": "0 78a67b27b143d55a24353bb8024d3462995721b1", "type": "witness_v0_keyhash"}, "value": 2.476e-05, "n": 1}], "hex": "0100000000010193f8d3fbc92ffca74cb8c41f57be97fc52f445c4429b51557465f244add184690000000017160014f87a54cf0c51121b97c89a232a41e44b65a34005ffffffff023ad40400000000001976a9140fb6190a421e9f2656bce436bc2d0815da75947188acac0900000000000016001478a67b27b143d55a24353bb8024d3462995721b10247304402201d2e5b4ea9d5ad7da15ad3df3fbe03ffc837e0bbda981ef5a2eb0d296bdff5880220741d87e5c69edc8ba53da898c67ccd351d4f1ab2b096ba4c47e357e1c44c6fd7012103c6b35eebd16e1a7f845b633717acdcc63b776d3064dc87fea4796289aa7936a300000000", "vin": [{"txinwitness": ["304402201d2e5b4ea9d5ad7da15ad3df3fbe03ffc837e0bbda981ef5a2eb0d296bdff5880220741d87e5c69edc8ba53da898c67ccd351d4f1ab2b096ba4c47e357e1c44c6fd701", "03c6b35eebd16e1a7f845b633717acdcc63b776d3064dc87fea4796289aa7936a3"], "sequence": 4294967295, "scriptSig": {"hex": "160014f87a54cf0c51121b97c89a232a41e44b65a34005", "asm": "0014f87a54cf0c51121b97c89a232a41e44b65a34005"}, "vout": 0, "txid": "6984d1ad44f2657455519b42c445f452fc97be571fc4b84ca7fc2fc9fbd3f893"}], "txid": "bf08ca35c20ec4d49d077df668498e6d55c663d45609293e1b463464743b3dee", "blocktime": 1537871767, "version": 1, "confirmations": 11495, "time": 1537871767, "locktime": 0, "vsize": 167, "size": 248}