{"hash": "bf08be9cd49e70ed5b562632d3835d16910063a9e3bc79ed4feb2186ecbbad4e", "blockhash": "0000000000000000001f0ddff1eddb255c1121bcd4da4f1bc9a0da00cae72433", "vout": [{"scriptPubKey": {"reqSigs": 1, "hex": "a9145e2a92e538e321e27a280324f6eef546cea96d3987", "addresses": ["3AGvSf13PhDNAYtY8BkPg1tKewk8EFjDHc"], "asm": "OP_HASH160 5e2a92e538e321e27a280324f6eef546cea96d39 OP_EQUAL", "type": "scripthash"}, "value": 0.00535026, "n": 0}, {"scriptPubKey": {"reqSigs": 1, "hex": "76a914c9484adf71e5db65deaa6bc0bf3a5a21b843139888ac", "addresses": ["1KMHRXZareqXeaBbhQJeiVRujwoLVojE6p"], "asm": "OP_DUP OP_HASH160 c9484adf71e5db65deaa6bc0bf3a5a21b8431398 OP_EQUALVERIFY OP_CHECKSIG", "type": "pubkeyhash"}, "value": 0.01395182, "n": 1}], "hex": "0100000001fea42cdfa9858d5b01ea0f8ec4130038909168c340b7a8a16334fbe9d9dd76ae010000006a473044022079e478cd82c86494f21f156cd2951215c57c74e8388f11418a520feb1d7967f6022029be601c637842c20da6a2b7713c3badeab43908805171ca2eb3a8404a27e9810121021e4f1e5b9d1a49dbab64a55b277f4f9b2bbd6e94456d610a64531fadb3c30b25ffffffff02f22908000000000017a9145e2a92e538e321e27a280324f6eef546cea96d3987ee491500000000001976a914c9484adf71e5db65deaa6bc0bf3a5a21b843139888ac00000000", "vin": [{"sequence": 4294967295, "scriptSig": {"hex": "473044022079e478cd82c86494f21f156cd2951215c57c74e8388f11418a520feb1d7967f6022029be601c637842c20da6a2b7713c3badeab43908805171ca2eb3a8404a27e9810121021e4f1e5b9d1a49dbab64a55b277f4f9b2bbd6e94456d610a64531fadb3c30b25", "asm": "3044022079e478cd82c86494f21f156cd2951215c57c74e8388f11418a520feb1d7967f6022029be601c637842c20da6a2b7713c3badeab43908805171ca2eb3a8404a27e981[ALL] 021e4f1e5b9d1a49dbab64a55b277f4f9b2bbd6e94456d610a64531fadb3c30b25"}, "vout": 1, "txid": "ae76ddd9e9fb3463a1a8b740c3689190380013c48e0fea015b8d85a9df2ca4fe"}], "txid": "bf08be9cd49e70ed5b562632d3835d16910063a9e3bc79ed4feb2186ecbbad4e", "blocktime": 1537872018, "version": 1, "confirmations": 11489, "time": 1537872018, "locktime": 0, "vsize": 223, "size": 223}