{"hash": "87ee94052c011a8c2cce17d0dce96796e5a9199ef8a6afdcf807b8f6b01ce1fb", "blockhash": "00000000000000000017f5eb5941039fbcee6240d03bc1f2f8e35350df66a1d8", "vout": [{"scriptPubKey": {"reqSigs": 1, "hex": "a9147bf789075cde0acd910ecf884e8a9171a85ca1ff87", "addresses": ["3CzVaC2N5pD9uShcemuiYoWv3ZACNh1atC"], "asm": "OP_HASH160 7bf789075cde0acd910ecf884e8a9171a85ca1ff OP_EQUAL", "type": "scripthash"}, "value": 0.01260764, "n": 0}, {"scriptPubKey": {"reqSigs": 1, "hex": "a91455cabbc041a27143c2140b321f27c7db29973cbb87", "addresses": ["39WeE1iG4t41cvCNwkdLapj6EAbqtRK5Sz"], "asm": "OP_HASH160 55cabbc041a27143c2140b321f27c7db29973cbb OP_EQUAL", "type": "scripthash"}, "value": 0.0060824, "n": 1}], "hex": "02000000000101709ff43cd37985a1a80e380a47cb1e8d9d4bd95e2f328e4c96374f4d6cd1ca210000000017160014eddcacde9985aea304e348a031d7dfd3d20b053bfeffffff02dc3c13000000000017a9147bf789075cde0acd910ecf884e8a9171a85ca1ff87f04709000000000017a91455cabbc041a27143c2140b321f27c7db29973cbb8702483045022100f5b6a45ee756c97aea0f4fb43bc6539cbdba12a39d9665515dd9160b6b608981022053a38c7ac1a62da2e0332af7e3941fd7568f8bb952b063f3a6f03959866d57a3012103913dd67769fb232592e37eeaef568c806196c84ea46dec8de1acf7f887e0c44015490800", "vin": [{"txinwitness": ["3045022100f5b6a45ee756c97aea0f4fb43bc6539cbdba12a39d9665515dd9160b6b608981022053a38c7ac1a62da2e0332af7e3941fd7568f8bb952b063f3a6f03959866d57a301", "03913dd67769fb232592e37eeaef568c806196c84ea46dec8de1acf7f887e0c440"], "sequence": 4294967294, "scriptSig": {"hex": "160014eddcacde9985aea304e348a031d7dfd3d20b053b", "asm": "0014eddcacde9985aea304e348a031d7dfd3d20b053b"}, "vout": 0, "txid": "21cad16c4d4f37964c8e322f5ed94b9d8d1ecb470a380ea8a18579d33cf49f70"}], "txid": "bf12da0e954e8da9ad30cb77520cc9f3ecfc285375dd99c8af7cf25cfa815739", "blocktime": 1537874412, "version": 2, "confirmations": 11468, "time": 1537874412, "locktime": 542997, "vsize": 166, "size": 248}