{"hash": "bf188bf69e0306c17d47be87f683bb99b305d9e9d5be4718bc4896011d7f3ab2", "blockhash": "0000000000000000001cda96e906b7601b7a6fb1a3b62bca570a9e5d8f4b3de1", "vout": [{"scriptPubKey": {"reqSigs": 1, "hex": "76a914eaa54b78df324f7b232ced04934fc76fc6a72c9a88ac", "addresses": ["1NPh8mrJXa7ciTEgcd7XzvyTHUp7zxzYF3"], "asm": "OP_DUP OP_HASH160 eaa54b78df324f7b232ced04934fc76fc6a72c9a OP_EQUALVERIFY OP_CHECKSIG", "type": "pubkeyhash"}, "value": 0.015642, "n": 0}, {"scriptPubKey": {"reqSigs": 1, "hex": "76a9144764af9a9d22406d0e260438a785043c9b761d5488ac", "addresses": ["17WVbQMQJ5nKRGGemcTtsyxP8KmGfMXNQK"], "asm": "OP_DUP OP_HASH160 4764af9a9d22406d0e260438a785043c9b761d54 OP_EQUALVERIFY OP_CHECKSIG", "type": "pubkeyhash"}, "value": 0.00030314, "n": 1}], "hex": "01000000025050070e15e2aa8c90dc2cd41ee283ae44ead6b6a0610b9a9c06dc63f3d654c1170000006b483045022100a102c96821e5c586911f90008d4aff351950ef3d76ad6981fb06019c6dedb7d502204eded216c82de87127582a0958fc3125f7dc1a6ee5b436df3742c3a3d4e217c70121030d7decbcffc86ceeeefcdd1c29c2afc1a43c2353ad450d21b250b16db0311040ffffffff2a5cbb2a38a0a056ed4f68817e525c2b99237ee34c27156790aa1515fa695aa80e0000006a47304402200ffc8981e939b079c19ec11e55570d5d0a42bf8af0a25ec21b5606d5f408e3b902201b0810862c5c49a08dbedc86b9bb040f894745ac4a46f55157888fd8fcd92c1d012103c1f9a345d2c39de13234e369eba671e12193f5b67108f579cf1abb089d524e0bffffffff0228de1700000000001976a914eaa54b78df324f7b232ced04934fc76fc6a72c9a88ac6a760000000000001976a9144764af9a9d22406d0e260438a785043c9b761d5488ac00000000", "vin": [{"sequence": 4294967295, "scriptSig": {"hex": "483045022100a102c96821e5c586911f90008d4aff351950ef3d76ad6981fb06019c6dedb7d502204eded216c82de87127582a0958fc3125f7dc1a6ee5b436df3742c3a3d4e217c70121030d7decbcffc86ceeeefcdd1c29c2afc1a43c2353ad450d21b250b16db0311040", "asm": "3045022100a102c96821e5c586911f90008d4aff351950ef3d76ad6981fb06019c6dedb7d502204eded216c82de87127582a0958fc3125f7dc1a6ee5b436df3742c3a3d4e217c7[ALL] 030d7decbcffc86ceeeefcdd1c29c2afc1a43c2353ad450d21b250b16db0311040"}, "vout": 23, "txid": "c154d6f363dc069c9a0b61a0b6d6ea44ae83e21ed42cdc908caae2150e075050"}, {"sequence": 4294967295, "scriptSig": {"hex": "47304402200ffc8981e939b079c19ec11e55570d5d0a42bf8af0a25ec21b5606d5f408e3b902201b0810862c5c49a08dbedc86b9bb040f894745ac4a46f55157888fd8fcd92c1d012103c1f9a345d2c39de13234e369eba671e12193f5b67108f579cf1abb089d524e0b", "asm": "304402200ffc8981e939b079c19ec11e55570d5d0a42bf8af0a25ec21b5606d5f408e3b902201b0810862c5c49a08dbedc86b9bb040f894745ac4a46f55157888fd8fcd92c1d[ALL] 03c1f9a345d2c39de13234e369eba671e12193f5b67108f579cf1abb089d524e0b"}, "vout": 14, "txid": "a85a69fa1515aa906715274ce37e23992b5c527e81684fed56a0a0382abb5c2a"}], "txid": "bf188bf69e0306c17d47be87f683bb99b305d9e9d5be4718bc4896011d7f3ab2", "blocktime": 1537873282, "version": 1, "confirmations": 11485, "time": 1537873282, "locktime": 0, "vsize": 373, "size": 373}