{"hash": "9289f07979f9ff8e45bcb1f05e9274e9d1c8ac5aa7fcf64c5463d8673cb55a8e", "blockhash": "0000000000000000000e13cef7c366c0283d82e591d1acd082e914b08063cdf1", "vout": [{"scriptPubKey": {"reqSigs": 1, "hex": "a91492fbf65a242a9ad15247e4e32b79c063c81efb2387", "addresses": ["3F6CRCX56M2oCsKUoxN3f4mB9EUTWweR4N"], "asm": "OP_HASH160 92fbf65a242a9ad15247e4e32b79c063c81efb23 OP_EQUAL", "type": "scripthash"}, "value": 0.057455, "n": 0}, {"scriptPubKey": {"reqSigs": 1, "hex": "a914dee0a1cc9f055700143e0f4ecee53180ab3530dc87", "addresses": ["3N1V2qWA5hpScEmS72pMooYRmXUiLmwPQQ"], "asm": "OP_HASH160 dee0a1cc9f055700143e0f4ecee53180ab3530dc OP_EQUAL", "type": "scripthash"}, "value": 0.84634217, "n": 1}], "hex": "02000000000101bee27d53bc7bebad1f7ed1811b58dd285c74b030ba7de715c7a1f2acb0e015400100000017160014cb5dbe423de4d42b6425c6921084c6197a5d2937ffffffff025cab57000000000017a91492fbf65a242a9ad15247e4e32b79c063c81efb2387696a0b050000000017a914dee0a1cc9f055700143e0f4ecee53180ab3530dc870247304402203108b37175d4769d85adf19c06cbe160a936de086635b8996343c4eb8fdd8b51022061a1b0319bf95571e393a17205ebfb42c76fbbceb75e0df4acf24e9f93198c6d012102acecad485eda786cbe0422823b7594aea6854abb5ec85e267f1c4b87f3f758f700000000", "vin": [{"txinwitness": ["304402203108b37175d4769d85adf19c06cbe160a936de086635b8996343c4eb8fdd8b51022061a1b0319bf95571e393a17205ebfb42c76fbbceb75e0df4acf24e9f93198c6d01", "02acecad485eda786cbe0422823b7594aea6854abb5ec85e267f1c4b87f3f758f7"], "sequence": 4294967295, "scriptSig": {"hex": "160014cb5dbe423de4d42b6425c6921084c6197a5d2937", "asm": "0014cb5dbe423de4d42b6425c6921084c6197a5d2937"}, "vout": 1, "txid": "4015e0b0acf2a1c715e77dba30b0745c28dd581b81d17e1fadeb7bbc537de2be"}], "txid": "bf18698def2610a2bfc4c7a09884186acef821af784f91564b78b70fd3d519d9", "blocktime": 1537871767, "version": 2, "confirmations": 11490, "time": 1537871767, "locktime": 0, "vsize": 166, "size": 247}