{"hash": "18c598d0075709f3a170ae14b617b7e562fe8a92a06897ad54bf23511992116e", "blockhash": "0000000000000000001e0dab787dd257d1dbfcb92a98c2207d5e1078be1f4165", "vout": [{"scriptPubKey": {"reqSigs": 1, "hex": "001453c92e169e8782bd0a7fd3fdd11f040b382c540c", "addresses": ["bc1q20yju957s7pt6znl607az8cypvuzc4qv4nwasj"], "asm": "0 53c92e169e8782bd0a7fd3fdd11f040b382c540c", "type": "witness_v0_keyhash"}, "value": 1.424e-05, "n": 0}, {"scriptPubKey": {"reqSigs": 1, "hex": "76a9140b67850c9f11b756b53836a35c2b393dd5f081eb88ac", "addresses": ["123JSndGU2Q1v9gc3k2qTnUtuHakTGfc9B"], "asm": "OP_DUP OP_HASH160 0b67850c9f11b756b53836a35c2b393dd5f081eb OP_EQUALVERIFY OP_CHECKSIG", "type": "pubkeyhash"}, "value": 0.00221711, "n": 1}], "hex": "0100000000010139cacc92723424de19eb1f19b068dca992479f61b267b0b674fae4becf3dde330a00000017160014782ed7f3419afb73eade3a76f3bf688db79c95acffffffff02900500000000000016001453c92e169e8782bd0a7fd3fdd11f040b382c540c0f620300000000001976a9140b67850c9f11b756b53836a35c2b393dd5f081eb88ac0247304402200dcc9800edcbc295c3e06f90e64029b534e9822ee130bd7e8af358f9d2bdab0d022064c79b8521f52383314bf0abecb8924f3e667c1320351d2849e41161174097b8012102629da94b6f7b4426c80b532073a3665de0d968b2e1fe15b03d2eb0c663e49a8200000000", "vin": [{"txinwitness": ["304402200dcc9800edcbc295c3e06f90e64029b534e9822ee130bd7e8af358f9d2bdab0d022064c79b8521f52383314bf0abecb8924f3e667c1320351d2849e41161174097b801", "02629da94b6f7b4426c80b532073a3665de0d968b2e1fe15b03d2eb0c663e49a82"], "sequence": 4294967295, "scriptSig": {"hex": "160014782ed7f3419afb73eade3a76f3bf688db79c95ac", "asm": "0014782ed7f3419afb73eade3a76f3bf688db79c95ac"}, "vout": 10, "txid": "33de3dcfbee4fa74b6b067b2619f4792a9dc68b0191feb19de24347292ccca39"}], "txid": "bf1914657d9ba21dd5ee182f4a77a15cd1e235b6a5f2382d0a8ef7d135d51703", "blocktime": 1537872475, "version": 1, "confirmations": 11486, "time": 1537872475, "locktime": 0, "vsize": 167, "size": 248}