{"hash": "65816121c01d599749837fd528b997f5c6e669dc4287fb491d21777005972ffe", "blockhash": "00000000000000000017f5eb5941039fbcee6240d03bc1f2f8e35350df66a1d8", "vout": [{"scriptPubKey": {"reqSigs": 1, "hex": "a914b6c02e19a242762feba74952400d25a424858f3d87", "addresses": ["3JMK8MzsLDEtm1yjkdGTy53f17Mn3WqX8e"], "asm": "OP_HASH160 b6c02e19a242762feba74952400d25a424858f3d OP_EQUAL", "type": "scripthash"}, "value": 0.00184086, "n": 0}, {"scriptPubKey": {"reqSigs": 1, "hex": "a914f56f3e5305b2d94e93b5c30b1a672c3b6da08b9587", "addresses": ["3Q4kjsakEfK7RrXXu34bBbyMWTaZr2773K"], "asm": "OP_HASH160 f56f3e5305b2d94e93b5c30b1a672c3b6da08b95 OP_EQUAL", "type": "scripthash"}, "value": 0.0095825, "n": 1}], "hex": "01000000000101ba7bd7a9f5495b06e94ea1b18aabd4d84f2270520c80c6b022139b3b9ec319c70100000023220020e941818309f4d5b451f51480d8c5be28066711fb11316ae768c7f739b2438cf4ffffffff0216cf02000000000017a914b6c02e19a242762feba74952400d25a424858f3d872a9f0e000000000017a914f56f3e5305b2d94e93b5c30b1a672c3b6da08b95870400483045022100daeac6e62573e301a3e53d8fc380cc554d5935611c76434429d44030bdeebb780220117ff4ef9176ab3046d71104c3ec3b4235fa90867ae3a513c8427f6b226d790c0147304402207e65e2d4ec254c04c7a9283a7fe458de12594511d7cf99e2e52883a594a4905002205fc3fe1a8b154466708220dae60a2c6f9716f3cb0b8466a7bff0a14f3f03cf350147522103faa541d8d0a70781f6305efd2426b894ad12a66b1cd5e593deda1804412b28fa2103ed050e681225d930a5e8a238b0045afdb024630315a2e4899bec00b073a718c952ae00000000", "vin": [{"txinwitness": ["", "3045022100daeac6e62573e301a3e53d8fc380cc554d5935611c76434429d44030bdeebb780220117ff4ef9176ab3046d71104c3ec3b4235fa90867ae3a513c8427f6b226d790c01", "304402207e65e2d4ec254c04c7a9283a7fe458de12594511d7cf99e2e52883a594a4905002205fc3fe1a8b154466708220dae60a2c6f9716f3cb0b8466a7bff0a14f3f03cf3501", "522103faa541d8d0a70781f6305efd2426b894ad12a66b1cd5e593deda1804412b28fa2103ed050e681225d930a5e8a238b0045afdb024630315a2e4899bec00b073a718c952ae"], "sequence": 4294967295, "scriptSig": {"hex": "220020e941818309f4d5b451f51480d8c5be28066711fb11316ae768c7f739b2438cf4", "asm": "0020e941818309f4d5b451f51480d8c5be28066711fb11316ae768c7f739b2438cf4"}, "vout": 1, "txid": "c719c39e3b9b1322b0c6800c5270224fd8d4ab8ab1a14ee9065b49f5a9d77bba"}], "txid": "bf1acac237530996a3dedd00fccb36c3f10a8e1b0856f4048a0a28c7293bc478", "blocktime": 1537874412, "version": 1, "confirmations": 11468, "time": 1537874412, "locktime": 0, "vsize": 206, "size": 371}