{"hash": "bf29b98c0515f92871c2b76e0f16fc424e9c0495eca40424c8c59e5a453ec158", "blockhash": "0000000000000000001cda96e906b7601b7a6fb1a3b62bca570a9e5d8f4b3de1", "vout": [{"scriptPubKey": {"reqSigs": 1, "hex": "76a914a5cd56a8446d716911191117b2c7096edcd8aef988ac", "addresses": ["1G7gUpeRoWPdSRKnZBqpzPYhfzD5cbtSZj"], "asm": "OP_DUP OP_HASH160 a5cd56a8446d716911191117b2c7096edcd8aef9 OP_EQUALVERIFY OP_CHECKSIG", "type": "pubkeyhash"}, "value": 0.0008812, "n": 0}, {"scriptPubKey": {"type": "nulldata", "hex": "6a4c50000077cc00011fd98323c298a2716baafe825b23cc0f42c2fc38c5e5bf9ae76da98a211a4361990d2ae22babf8c3122f1191b9115baa13e90613397824270e01bc9a9526289ac0f6612cd74e33776ee4", "asm": "OP_RETURN 000077cc00011fd98323c298a2716baafe825b23cc0f42c2fc38c5e5bf9ae76da98a211a4361990d2ae22babf8c3122f1191b9115baa13e90613397824270e01bc9a9526289ac0f6612cd74e33776ee4"}, "value": 0.0, "n": 1}], "hex": "010000000187cd1472acafb7cd06b367a7c509749863e35839aeda3c8353517c49ef2298a3000000006a47304402202e4cf983cc2e333dc9545d43adb888ec1fc9704e253831b8f3c1cd7164d9cd1b022058b58f136f65a1a2b0dcdd6707a24af3eeb423c9349e900c69aa85d695e15c9d0121020b0ef384e84c50c2aed54db5c87c51cff431bd1a42e5e5774e69a02c5f87d4caffffffff0238580100000000001976a914a5cd56a8446d716911191117b2c7096edcd8aef988ac0000000000000000536a4c50000077cc00011fd98323c298a2716baafe825b23cc0f42c2fc38c5e5bf9ae76da98a211a4361990d2ae22babf8c3122f1191b9115baa13e90613397824270e01bc9a9526289ac0f6612cd74e33776ee400000000", "vin": [{"sequence": 4294967295, "scriptSig": {"hex": "47304402202e4cf983cc2e333dc9545d43adb888ec1fc9704e253831b8f3c1cd7164d9cd1b022058b58f136f65a1a2b0dcdd6707a24af3eeb423c9349e900c69aa85d695e15c9d0121020b0ef384e84c50c2aed54db5c87c51cff431bd1a42e5e5774e69a02c5f87d4ca", "asm": "304402202e4cf983cc2e333dc9545d43adb888ec1fc9704e253831b8f3c1cd7164d9cd1b022058b58f136f65a1a2b0dcdd6707a24af3eeb423c9349e900c69aa85d695e15c9d[ALL] 020b0ef384e84c50c2aed54db5c87c51cff431bd1a42e5e5774e69a02c5f87d4ca"}, "vout": 0, "txid": "a39822ef497c5153833cdaae3958e363987409c5a767b306cdb7afac7214cd87"}], "txid": "bf29b98c0515f92871c2b76e0f16fc424e9c0495eca40424c8c59e5a453ec158", "blocktime": 1537873282, "version": 1, "confirmations": 11484, "time": 1537873282, "locktime": 0, "vsize": 283, "size": 283}