{"hash": "bf293dacc84a3e3e4a923903e29eac68724af6ec815807d8bfa6cd8764d97df9", "blockhash": "0000000000000000000baef3f32e3676a92c3b2e5da21b426e4f302fc371ce76", "vout": [{"scriptPubKey": {"reqSigs": 1, "hex": "76a914e8cea30989bd15530f819b766684b00dc7ba7cfa88ac", "addresses": ["1NDyJtNTjmwk5xPNhjgAMu4HDHigtobu1s"], "asm": "OP_DUP OP_HASH160 e8cea30989bd15530f819b766684b00dc7ba7cfa OP_EQUALVERIFY OP_CHECKSIG", "type": "pubkeyhash"}, "value": 2.33409161, "n": 0}, {"scriptPubKey": {"reqSigs": 1, "hex": "76a914e6515282e55832c4965683bc1c41c09a527188ae88ac", "addresses": ["1MzoqVfHeDMf4dtqv2hzB68f6wF5p47seF"], "asm": "OP_DUP OP_HASH160 e6515282e55832c4965683bc1c41c09a527188ae OP_EQUALVERIFY OP_CHECKSIG", "type": "pubkeyhash"}, "value": 0.00903403, "n": 1}], "hex": "0200000006585d31efdb0954494272fb0be86d9d382d48fb1d2784b77dd8e30090406178ee000000006a47304402201d3daae9d38b48d46cbe1e566a24c4ead5a7658c095f0e53f3a5603e08a7de1a022026a454e434a49a3c5067d266114a8524494656360b019b86088beaad232c33c6012102353ec14045fd8180d394c490ab7d90c02789d04c8430066e986dd652a1adaaebfeffffff6d9395f478beee095c05e95e77a5486b2f974dc190ee1582bc4e28b78afa0910030000006b483045022100f09403e25c6a5dedab0c9343cd6d2a9e32102ede6a89fc3f44df357765a101fc02201b8baa10ff0f1731a6d49652a418e8025f1b2ec40970bdf4010cd4b80c99aed7012103e9aa06f56e60adb06ce79785a55dfc9957b0b6d96153d1fc3c4b0ee6ea6f5856feffffff843e09b24be100d0ec89d89008d7a70e73d5e7ebe88b3c7f0ffa9ea1716ca202000000006b483045022100e41d3638dbee006e0eac3d06ca25bee4bd35e781d7ffb82a78237074cc9a292b022019ef8fe42b64b171d261ae32e878700ef2d4b3edd67db2029a326af82ecfbce6012103d4776b14f6b829f68563a5f69460ffae3262cf02636abe9536f8da16ab5ab470feffffff98451821732fa7d6a44f9d3be2032382a035744769ead4737a48a146315166983c0000006b4830450221009344605b40a8bd0bedab26c891cd6bfc3617f3dfaae2eb369f2b40e1506545cb02200cfdbbfe4bcceedb9957990813d56b102033f4b31669003b2abf78a95a4b751501210338aebc56ac7781b2c4ea538870627ef611511f3a8e29e60af086496576ea741dfeffffffbb413e415fb1633ab4a29334197dadd75d927e4849564d8eadb6a48f1d738a10010000006b483045022100dbb91c634e780e2f1ae92293da27ceac04ef69bb221381edf7d73d6e0cd1e5ca022065567e76b986e82f88ec0a06f8467a7e0fa37a45443e2c4daa1aacf9da06a337012102353ec14045fd8180d394c490ab7d90c02789d04c8430066e986dd652a1adaaebfeffffffdbdf7388d5e079d1f083a7528234c3cab4145bf4193f784ee3d2144ccdaa905d010000006a47304402206ae42bc64998cf6bb813e8149142f2731c6644572f9593ddb3160bcd4d60551402204b58feaf82cde4d923d23f73cd5aa20d6d991fd0a83bd172e90da1f2d27a62860121027d45f070d3be8847783a8b479cffbc810a667738386f2740d8e4df3815ec0250feffffff02898ae90d000000001976a914e8cea30989bd15530f819b766684b00dc7ba7cfa88acebc80d00000000001976a914e6515282e55832c4965683bc1c41c09a527188ae88ac17490800", "vin": [{"sequence": 4294967294, "scriptSig": {"hex": "47304402201d3daae9d38b48d46cbe1e566a24c4ead5a7658c095f0e53f3a5603e08a7de1a022026a454e434a49a3c5067d266114a8524494656360b019b86088beaad232c33c6012102353ec14045fd8180d394c490ab7d90c02789d04c8430066e986dd652a1adaaeb", "asm": "304402201d3daae9d38b48d46cbe1e566a24c4ead5a7658c095f0e53f3a5603e08a7de1a022026a454e434a49a3c5067d266114a8524494656360b019b86088beaad232c33c6[ALL] 02353ec14045fd8180d394c490ab7d90c02789d04c8430066e986dd652a1adaaeb"}, "vout": 0, "txid": "ee7861409000e3d87db784271dfb482d389d6de80bfb7242495409dbef315d58"}, {"sequence": 4294967294, "scriptSig": {"hex": "483045022100f09403e25c6a5dedab0c9343cd6d2a9e32102ede6a89fc3f44df357765a101fc02201b8baa10ff0f1731a6d49652a418e8025f1b2ec40970bdf4010cd4b80c99aed7012103e9aa06f56e60adb06ce79785a55dfc9957b0b6d96153d1fc3c4b0ee6ea6f5856", "asm": "3045022100f09403e25c6a5dedab0c9343cd6d2a9e32102ede6a89fc3f44df357765a101fc02201b8baa10ff0f1731a6d49652a418e8025f1b2ec40970bdf4010cd4b80c99aed7[ALL] 03e9aa06f56e60adb06ce79785a55dfc9957b0b6d96153d1fc3c4b0ee6ea6f5856"}, "vout": 3, "txid": "1009fa8ab7284ebc8215ee90c14d972f6b48a5775ee9055c09eebe78f495936d"}, {"sequence": 4294967294, "scriptSig": {"hex": "483045022100e41d3638dbee006e0eac3d06ca25bee4bd35e781d7ffb82a78237074cc9a292b022019ef8fe42b64b171d261ae32e878700ef2d4b3edd67db2029a326af82ecfbce6012103d4776b14f6b829f68563a5f69460ffae3262cf02636abe9536f8da16ab5ab470", "asm": "3045022100e41d3638dbee006e0eac3d06ca25bee4bd35e781d7ffb82a78237074cc9a292b022019ef8fe42b64b171d261ae32e878700ef2d4b3edd67db2029a326af82ecfbce6[ALL] 03d4776b14f6b829f68563a5f69460ffae3262cf02636abe9536f8da16ab5ab470"}, "vout": 0, "txid": "02a26c71a19efa0f7f3c8be8ebe7d5730ea7d70890d889ecd000e14bb2093e84"}, {"sequence": 4294967294, "scriptSig": {"hex": "4830450221009344605b40a8bd0bedab26c891cd6bfc3617f3dfaae2eb369f2b40e1506545cb02200cfdbbfe4bcceedb9957990813d56b102033f4b31669003b2abf78a95a4b751501210338aebc56ac7781b2c4ea538870627ef611511f3a8e29e60af086496576ea741d", "asm": "30450221009344605b40a8bd0bedab26c891cd6bfc3617f3dfaae2eb369f2b40e1506545cb02200cfdbbfe4bcceedb9957990813d56b102033f4b31669003b2abf78a95a4b7515[ALL] 0338aebc56ac7781b2c4ea538870627ef611511f3a8e29e60af086496576ea741d"}, "vout": 60, "txid": "9866513146a1487a73d4ea69477435a0822303e23b9d4fa4d6a72f7321184598"}, {"sequence": 4294967294, "scriptSig": {"hex": "483045022100dbb91c634e780e2f1ae92293da27ceac04ef69bb221381edf7d73d6e0cd1e5ca022065567e76b986e82f88ec0a06f8467a7e0fa37a45443e2c4daa1aacf9da06a337012102353ec14045fd8180d394c490ab7d90c02789d04c8430066e986dd652a1adaaeb", "asm": "3045022100dbb91c634e780e2f1ae92293da27ceac04ef69bb221381edf7d73d6e0cd1e5ca022065567e76b986e82f88ec0a06f8467a7e0fa37a45443e2c4daa1aacf9da06a337[ALL] 02353ec14045fd8180d394c490ab7d90c02789d04c8430066e986dd652a1adaaeb"}, "vout": 1, "txid": "108a731d8fa4b6ad8e4d5649487e925dd7ad7d193493a2b43a63b15f413e41bb"}, {"sequence": 4294967294, "scriptSig": {"hex": "47304402206ae42bc64998cf6bb813e8149142f2731c6644572f9593ddb3160bcd4d60551402204b58feaf82cde4d923d23f73cd5aa20d6d991fd0a83bd172e90da1f2d27a62860121027d45f070d3be8847783a8b479cffbc810a667738386f2740d8e4df3815ec0250", "asm": "304402206ae42bc64998cf6bb813e8149142f2731c6644572f9593ddb3160bcd4d60551402204b58feaf82cde4d923d23f73cd5aa20d6d991fd0a83bd172e90da1f2d27a6286[ALL] 027d45f070d3be8847783a8b479cffbc810a667738386f2740d8e4df3815ec0250"}, "vout": 1, "txid": "5d90aacd4c14d2e34e783f19f45b14b4cac3348252a783f0d179e0d58873dfdb"}], "txid": "bf293dacc84a3e3e4a923903e29eac68724af6ec815807d8bfa6cd8764d97df9", "blocktime": 1537876114, "version": 2, "confirmations": 11459, "time": 1537876114, "locktime": 542999, "vsize": 964, "size": 964}