{"hash": "bf29c2fce72ea1954898d19b0a8cc3d09872a737c6fae5104e1d9738eaa3e8ff", "blockhash": "0000000000000000001cda96e906b7601b7a6fb1a3b62bca570a9e5d8f4b3de1", "vout": [{"scriptPubKey": {"reqSigs": 1, "hex": "a914c2750746c67f9ba3d8d49c3c429b41321498532c87", "addresses": ["3KRDD34KCraG3gGXg7N9ossSfbytD4Fdzo"], "asm": "OP_HASH160 c2750746c67f9ba3d8d49c3c429b41321498532c OP_EQUAL", "type": "scripthash"}, "value": 0.00073381, "n": 0}], "hex": "0100000002cf078068a0796e5a419991640c537fd8b9f5f06c1f09da9bbca5a86981545902000000006b483045022100b4cdf061dba1376be87428a1e77e6d1fc8166cf4b6294a74059f8e0b7c82d460022066bbf2510e4187635e399c0b95a688d17752931c29af9f2c99673038a0ff4cce012103d9ed27b242aadd7073b618f40cfcd81ceeae799c5900ca64ba3e6a1341463d59ffffffff09b702a55f351f8631226259fa73aeea8f46a82d78bbdc9f07c1d8cfca025c10010000006b483045022100dc6ab0f419e0ba24ff8c3ff2407219b29a2d331494213799efd8a935a03960e302206af4de04da9d350a60b35aa7ee2c3e1f9f1580c7fc01f3b7aa0906503e6d01e9012103d9ed27b242aadd7073b618f40cfcd81ceeae799c5900ca64ba3e6a1341463d59ffffffff01a51e01000000000017a914c2750746c67f9ba3d8d49c3c429b41321498532c8700000000", "vin": [{"sequence": 4294967295, "scriptSig": {"hex": "483045022100b4cdf061dba1376be87428a1e77e6d1fc8166cf4b6294a74059f8e0b7c82d460022066bbf2510e4187635e399c0b95a688d17752931c29af9f2c99673038a0ff4cce012103d9ed27b242aadd7073b618f40cfcd81ceeae799c5900ca64ba3e6a1341463d59", "asm": "3045022100b4cdf061dba1376be87428a1e77e6d1fc8166cf4b6294a74059f8e0b7c82d460022066bbf2510e4187635e399c0b95a688d17752931c29af9f2c99673038a0ff4cce[ALL] 03d9ed27b242aadd7073b618f40cfcd81ceeae799c5900ca64ba3e6a1341463d59"}, "vout": 0, "txid": "0259548169a8a5bc9bda091f6cf0f5b9d87f530c649199415a6e79a0688007cf"}, {"sequence": 4294967295, "scriptSig": {"hex": "483045022100dc6ab0f419e0ba24ff8c3ff2407219b29a2d331494213799efd8a935a03960e302206af4de04da9d350a60b35aa7ee2c3e1f9f1580c7fc01f3b7aa0906503e6d01e9012103d9ed27b242aadd7073b618f40cfcd81ceeae799c5900ca64ba3e6a1341463d59", "asm": "3045022100dc6ab0f419e0ba24ff8c3ff2407219b29a2d331494213799efd8a935a03960e302206af4de04da9d350a60b35aa7ee2c3e1f9f1580c7fc01f3b7aa0906503e6d01e9[ALL] 03d9ed27b242aadd7073b618f40cfcd81ceeae799c5900ca64ba3e6a1341463d59"}, "vout": 1, "txid": "105c02cacfd8c1079fdcbb782da8468feaae73fa59622231861f355fa502b709"}], "txid": "bf29c2fce72ea1954898d19b0a8cc3d09872a737c6fae5104e1d9738eaa3e8ff", "blocktime": 1537873282, "version": 1, "confirmations": 11484, "time": 1537873282, "locktime": 0, "vsize": 338, "size": 338}