{"hash": "bf2e292f399fe286843c6bd04cd9f43884361068ca699688d1c7ede354855289", "blockhash": "0000000000000000000e13cef7c366c0283d82e591d1acd082e914b08063cdf1", "vout": [{"scriptPubKey": {"reqSigs": 1, "hex": "a914ebd681c5f30cfcad00e76f487ea796365b754d8887", "addresses": ["3PC1gptTjXBQTuJheoHy3a9nxRYLFVWWE3"], "asm": "OP_HASH160 ebd681c5f30cfcad00e76f487ea796365b754d88 OP_EQUAL", "type": "scripthash"}, "value": 0.0026189, "n": 0}, {"scriptPubKey": {"reqSigs": 1, "hex": "a914062b5509e2eca513bf4761665571b9bc56aa676187", "addresses": ["32FdtU52duxkwGGSRJ5NuLqYUi2qJfqot1"], "asm": "OP_HASH160 062b5509e2eca513bf4761665571b9bc56aa6761 OP_EQUAL", "type": "scripthash"}, "value": 0.49542504, "n": 1}], "hex": "01000000010298ddc82de2994e35b2c3798d6def66daffb1ffe0f9743a31c7dc0a5df9b88901000000db00483045022100ce1b4700e0067d8e81995742776f0f11d9e7473ed958c7a37ef2c9782ca6a2c702207bf4af9f0f2637a81e610e5b98074da1c236fcfc1efbd39fe2243452981710e701483045022100aa491137aa578d1471560c6424960a444454e38d496f2be4c382f1243d535dae0220255632c61cbbcacfdb18ab37083207cd0b9aebb098b0a5f6f80393f856a96b9b0147522103abc8a801f5fbb4fd5f6510ba530d534b0efb584b4298cea1e6e2d45cd1000aef2102a29577404fa42d6d12e0d867249d4ee805afecc9e10879ed668da9958dc7b65052aeffffffff0202ff03000000000017a914ebd681c5f30cfcad00e76f487ea796365b754d888768f5f3020000000017a914062b5509e2eca513bf4761665571b9bc56aa67618700000000", "vin": [{"sequence": 4294967295, "scriptSig": {"hex": "00483045022100ce1b4700e0067d8e81995742776f0f11d9e7473ed958c7a37ef2c9782ca6a2c702207bf4af9f0f2637a81e610e5b98074da1c236fcfc1efbd39fe2243452981710e701483045022100aa491137aa578d1471560c6424960a444454e38d496f2be4c382f1243d535dae0220255632c61cbbcacfdb18ab37083207cd0b9aebb098b0a5f6f80393f856a96b9b0147522103abc8a801f5fbb4fd5f6510ba530d534b0efb584b4298cea1e6e2d45cd1000aef2102a29577404fa42d6d12e0d867249d4ee805afecc9e10879ed668da9958dc7b65052ae", "asm": "0 3045022100ce1b4700e0067d8e81995742776f0f11d9e7473ed958c7a37ef2c9782ca6a2c702207bf4af9f0f2637a81e610e5b98074da1c236fcfc1efbd39fe2243452981710e7[ALL] 3045022100aa491137aa578d1471560c6424960a444454e38d496f2be4c382f1243d535dae0220255632c61cbbcacfdb18ab37083207cd0b9aebb098b0a5f6f80393f856a96b9b[ALL] 522103abc8a801f5fbb4fd5f6510ba530d534b0efb584b4298cea1e6e2d45cd1000aef2102a29577404fa42d6d12e0d867249d4ee805afecc9e10879ed668da9958dc7b65052ae"}, "vout": 1, "txid": "89b8f95d0adcc7313a74f9e0ffb1ffda66ef6d8d79c3b2354e99e22dc8dd9802"}], "txid": "bf2e292f399fe286843c6bd04cd9f43884361068ca699688d1c7ede354855289", "blocktime": 1537871767, "version": 1, "confirmations": 11495, "time": 1537871767, "locktime": 0, "vsize": 334, "size": 334}