{"hash": "bf3102e190574becd7645d8d86717a5ea750e8e1c8e966d75fc9aa9ab7c1159d", "blockhash": "00000000000000000018f53835495a110e01622372bf6ae95dc86f2b0ab887b0", "vout": [{"scriptPubKey": {"reqSigs": 1, "hex": "76a9144dc0bca52730a1e7b155922ca49087cbef82ae2c88ac", "addresses": ["1867vNBTyAvXg23zmgL4RiZ7tQe3F3oLUe"], "asm": "OP_DUP OP_HASH160 4dc0bca52730a1e7b155922ca49087cbef82ae2c OP_EQUALVERIFY OP_CHECKSIG", "type": "pubkeyhash"}, "value": 22.65279598, "n": 0}, {"scriptPubKey": {"reqSigs": 1, "hex": "a9141cbf41e7cfcc2f38f10c4decd1b9bb144c39b00787", "addresses": ["34K1xiRzXPqQs6DtSab526ZqHt38KqfqWs"], "asm": "OP_HASH160 1cbf41e7cfcc2f38f10c4decd1b9bb144c39b007 OP_EQUAL", "type": "scripthash"}, "value": 0.02330336, "n": 1}], "hex": "0100000001ca9913b1187b28d8a05cb23cd2ea361b2d823c7894318bcc70bba68f8e4a4ac7010000006a4730440220528679a0f84f78c9b6a0e26ccad3fce3f1fef3fe2d2a14eaa2b8de9be39008b202205e488d0220a9f2a3138d95110b46d371b831017704a63aac23fe51c58e3c91510121021a9bff0b894b4a076acde244cce59c498b214590115c85bbb7867b46dce1c07cffffffff026e6c0587000000001976a9144dc0bca52730a1e7b155922ca49087cbef82ae2c88ace08e23000000000017a9141cbf41e7cfcc2f38f10c4decd1b9bb144c39b0078700000000", "vin": [{"sequence": 4294967295, "scriptSig": {"hex": "4730440220528679a0f84f78c9b6a0e26ccad3fce3f1fef3fe2d2a14eaa2b8de9be39008b202205e488d0220a9f2a3138d95110b46d371b831017704a63aac23fe51c58e3c91510121021a9bff0b894b4a076acde244cce59c498b214590115c85bbb7867b46dce1c07c", "asm": "30440220528679a0f84f78c9b6a0e26ccad3fce3f1fef3fe2d2a14eaa2b8de9be39008b202205e488d0220a9f2a3138d95110b46d371b831017704a63aac23fe51c58e3c9151[ALL] 021a9bff0b894b4a076acde244cce59c498b214590115c85bbb7867b46dce1c07c"}, "vout": 1, "txid": "c74a4a8e8fa6bb70cc8b3194783c822d1b36ead23cb25ca0d8287b18b11399ca"}], "txid": "bf3102e190574becd7645d8d86717a5ea750e8e1c8e966d75fc9aa9ab7c1159d", "blocktime": 1537870928, "version": 1, "confirmations": 11512, "time": 1537870928, "locktime": 0, "vsize": 223, "size": 223}