{"hash": "bf347470efd972a5ac6b85512aa0567c5ed1c548b9013a91a1b944e989dd5ee3", "blockhash": "0000000000000000000e13cef7c366c0283d82e591d1acd082e914b08063cdf1", "vout": [{"scriptPubKey": {"reqSigs": 1, "hex": "76a914a7cfb0cbcbd7cb9e3e88d5b26eceb88f42fc8c8f88ac", "addresses": ["1GJJedfowF3uqvEh76vGtPb4VQTp9mmyJZ"], "asm": "OP_DUP OP_HASH160 a7cfb0cbcbd7cb9e3e88d5b26eceb88f42fc8c8f OP_EQUALVERIFY OP_CHECKSIG", "type": "pubkeyhash"}, "value": 0.00164928, "n": 0}, {"scriptPubKey": {"reqSigs": 1, "hex": "a9146ec2095894a728687059edb77d7da7e9a09fceb087", "addresses": ["3BnehYAA3qNEMgNT46LB6Boi6g4B87qWMw"], "asm": "OP_HASH160 6ec2095894a728687059edb77d7da7e9a09fceb0 OP_EQUAL", "type": "scripthash"}, "value": 0.01977898, "n": 1}], "hex": "010000000277dc07b8bccec73223bc3d57f9d16bf8e28fdd7fb2e5f1bd75d10b16106de311010000006b483045022100a3c4ec218b690828876767af9c3abc35d2a9b6ff7dff07685803d53b38e0bbf0022050e5820ddb5b7ea6be95a99e14802cca7bb1c9c9d5489dea1bd51116b0f17d61012103783654c8934fee9bcf3a006e911ec5dd469a5410d837e5aae11372204d0b6144ffffffffff6a55a1f2fb2c968a4827d88efd3afd715acbae226bf02876bb53c36b97346b010000006a473044022042382860a85a1ec1bc5eea8bc3ec4366b53b18fb7ca2dfb77a6aefc6237d37b6022068d290bd4ee5c41623d959a7fd235e9b9c4b5964275488ac8fb4482fc8fd082e012102717e3e55647e31f9e03274704ab32069637a41a1624452e629cb27ffe7965af9ffffffff0240840200000000001976a914a7cfb0cbcbd7cb9e3e88d5b26eceb88f42fc8c8f88ac2a2e1e000000000017a9146ec2095894a728687059edb77d7da7e9a09fceb08700000000", "vin": [{"sequence": 4294967295, "scriptSig": {"hex": "483045022100a3c4ec218b690828876767af9c3abc35d2a9b6ff7dff07685803d53b38e0bbf0022050e5820ddb5b7ea6be95a99e14802cca7bb1c9c9d5489dea1bd51116b0f17d61012103783654c8934fee9bcf3a006e911ec5dd469a5410d837e5aae11372204d0b6144", "asm": "3045022100a3c4ec218b690828876767af9c3abc35d2a9b6ff7dff07685803d53b38e0bbf0022050e5820ddb5b7ea6be95a99e14802cca7bb1c9c9d5489dea1bd51116b0f17d61[ALL] 03783654c8934fee9bcf3a006e911ec5dd469a5410d837e5aae11372204d0b6144"}, "vout": 1, "txid": "11e36d10160bd175bdf1e5b27fdd8fe2f86bd1f9573dbc2332c7cebcb807dc77"}, {"sequence": 4294967295, "scriptSig": {"hex": "473044022042382860a85a1ec1bc5eea8bc3ec4366b53b18fb7ca2dfb77a6aefc6237d37b6022068d290bd4ee5c41623d959a7fd235e9b9c4b5964275488ac8fb4482fc8fd082e012102717e3e55647e31f9e03274704ab32069637a41a1624452e629cb27ffe7965af9", "asm": "3044022042382860a85a1ec1bc5eea8bc3ec4366b53b18fb7ca2dfb77a6aefc6237d37b6022068d290bd4ee5c41623d959a7fd235e9b9c4b5964275488ac8fb4482fc8fd082e[ALL] 02717e3e55647e31f9e03274704ab32069637a41a1624452e629cb27ffe7965af9"}, "vout": 1, "txid": "6b34976bc353bb7628f06b22aecb5a71fd3afd8ed827488a962cfbf2a1556aff"}], "txid": "bf347470efd972a5ac6b85512aa0567c5ed1c548b9013a91a1b944e989dd5ee3", "blocktime": 1537871767, "version": 1, "confirmations": 11495, "time": 1537871767, "locktime": 0, "vsize": 371, "size": 371}