{"hash": "bf350d00022ccec57b9f062232de4043b341a254d913a04009669e6492cfd173", "blockhash": "000000000000000000022b45ed06c6f4ccd3cf7fb5ba4856ebd2e58215665228", "vout": [{"scriptPubKey": {"reqSigs": 1, "hex": "76a9140ea2c16f9786cdfea33384770c72f226ae93ef3f88ac", "addresses": ["12LPS9L3BtpHJxCw7CBABQHFsKc7wFRjAR"], "asm": "OP_DUP OP_HASH160 0ea2c16f9786cdfea33384770c72f226ae93ef3f OP_EQUALVERIFY OP_CHECKSIG", "type": "pubkeyhash"}, "value": 0.36177085, "n": 0}, {"scriptPubKey": {"type": "nulldata", "hex": "6a146f6d6e69000000000000001f0000000d3cd40230", "asm": "OP_RETURN 6f6d6e69000000000000001f0000000d3cd40230"}, "value": 0.0, "n": 1}, {"scriptPubKey": {"reqSigs": 1, "hex": "76a914514b3e64f0a4f3f1350bd55d020a55124a461b5c88ac", "addresses": ["18QqsZihW8wKvNibLTuit77ybk59FjWFnt"], "asm": "OP_DUP OP_HASH160 514b3e64f0a4f3f1350bd55d020a55124a461b5c OP_EQUALVERIFY OP_CHECKSIG", "type": "pubkeyhash"}, "value": 5.46e-06, "n": 2}], "hex": "01000000019489b42bdf65f3f6362b094723388500b605baa9971cca2eb4b49413772ff9ce010000006a47304402200a8bdc2e47785381b416c29990678cbf17476666f6785c3202e3183c896bdc4d0220706b81877cc518e117a318b707c17326755c72aeb14c3e096499fe96ee68d21201210242604bdd2261b6188326b9f490e074dda990f5bb746eb9716e491b86b498f4c5feffffff03bd042802000000001976a9140ea2c16f9786cdfea33384770c72f226ae93ef3f88ac0000000000000000166a146f6d6e69000000000000001f0000000d3cd4023022020000000000001976a914514b3e64f0a4f3f1350bd55d020a55124a461b5c88ac0b490800", "vin": [{"sequence": 4294967294, "scriptSig": {"hex": "47304402200a8bdc2e47785381b416c29990678cbf17476666f6785c3202e3183c896bdc4d0220706b81877cc518e117a318b707c17326755c72aeb14c3e096499fe96ee68d21201210242604bdd2261b6188326b9f490e074dda990f5bb746eb9716e491b86b498f4c5", "asm": "304402200a8bdc2e47785381b416c29990678cbf17476666f6785c3202e3183c896bdc4d0220706b81877cc518e117a318b707c17326755c72aeb14c3e096499fe96ee68d212[ALL] 0242604bdd2261b6188326b9f490e074dda990f5bb746eb9716e491b86b498f4c5"}, "vout": 1, "txid": "cef92f771394b4b42eca1c97a9ba05b60085382347092b36f6f365df2bb48994"}], "txid": "bf350d00022ccec57b9f062232de4043b341a254d913a04009669e6492cfd173", "blocktime": 1537869901, "version": 1, "confirmations": 11523, "time": 1537869901, "locktime": 542987, "vsize": 256, "size": 256}