{"hash": "bf3fb85bfecf75a4799cacfc13308d83605066c14289d7618206734d0c0bcd36", "blockhash": "0000000000000000001cda96e906b7601b7a6fb1a3b62bca570a9e5d8f4b3de1", "vout": [{"scriptPubKey": {"reqSigs": 1, "hex": "a914c8b3d9115f571c8186ee139af7988e34a3e228d887", "addresses": ["3KzEWxn3XTg2kNPFu4GUM2HJwcPqt7wuU9"], "asm": "OP_HASH160 c8b3d9115f571c8186ee139af7988e34a3e228d8 OP_EQUAL", "type": "scripthash"}, "value": 0.00225042, "n": 0}, {"scriptPubKey": {"reqSigs": 1, "hex": "a91486f3f3eac31f27880033f8e5e054dd76185c797d87", "addresses": ["3DzaiPPS1E8ayGK56Ak8JJ7dXwBHWSChov"], "asm": "OP_HASH160 86f3f3eac31f27880033f8e5e054dd76185c797d OP_EQUAL", "type": "scripthash"}, "value": 0.02822661, "n": 1}], "hex": "0100000001580f662b35df34d482a9e7d57c3852ffdca0c45a1c6fe7c4fcc584529589959c69000000fdfd0000473044022038e0c3d287a4bf30c958facc34330025d97de6d26f8ccc66fdca019f129ab06902207e51d6db8a02628d61724b8d0c99549d357fba22e0ab7c6f0d5b191d60e5c06a01483045022100f040d337307993dee7e5159ac44be072de059d88cfecb66c305497bc44d05e6e02200cb4e5b95350f76a0e2c107dece3c42f9d1d54b8b91180cb3fb3e46520a59f57014c695221022b126049aa856834f14cc61150fbc196183dea1583e732f7c28cbbcb27c62d7821020805f94c2e963f848308291d7a550ddf8e21cd83362ebd7390cb3fa0e53f9f332102c6abd55e64991ae439b31d1e1b828313a668c66dce51349d971b38a7838159f453aeffffffff02126f03000000000017a914c8b3d9115f571c8186ee139af7988e34a3e228d88705122b000000000017a91486f3f3eac31f27880033f8e5e054dd76185c797d8700000000", "vin": [{"sequence": 4294967295, "scriptSig": {"hex": "00473044022038e0c3d287a4bf30c958facc34330025d97de6d26f8ccc66fdca019f129ab06902207e51d6db8a02628d61724b8d0c99549d357fba22e0ab7c6f0d5b191d60e5c06a01483045022100f040d337307993dee7e5159ac44be072de059d88cfecb66c305497bc44d05e6e02200cb4e5b95350f76a0e2c107dece3c42f9d1d54b8b91180cb3fb3e46520a59f57014c695221022b126049aa856834f14cc61150fbc196183dea1583e732f7c28cbbcb27c62d7821020805f94c2e963f848308291d7a550ddf8e21cd83362ebd7390cb3fa0e53f9f332102c6abd55e64991ae439b31d1e1b828313a668c66dce51349d971b38a7838159f453ae", "asm": "0 3044022038e0c3d287a4bf30c958facc34330025d97de6d26f8ccc66fdca019f129ab06902207e51d6db8a02628d61724b8d0c99549d357fba22e0ab7c6f0d5b191d60e5c06a[ALL] 3045022100f040d337307993dee7e5159ac44be072de059d88cfecb66c305497bc44d05e6e02200cb4e5b95350f76a0e2c107dece3c42f9d1d54b8b91180cb3fb3e46520a59f57[ALL] 5221022b126049aa856834f14cc61150fbc196183dea1583e732f7c28cbbcb27c62d7821020805f94c2e963f848308291d7a550ddf8e21cd83362ebd7390cb3fa0e53f9f332102c6abd55e64991ae439b31d1e1b828313a668c66dce51349d971b38a7838159f453ae"}, "vout": 105, "txid": "9c9589955284c5fcc4e76f1c5ac4a0dcff52387cd5e7a982d434df352b660f58"}], "txid": "bf3fb85bfecf75a4799cacfc13308d83605066c14289d7618206734d0c0bcd36", "blocktime": 1537873282, "version": 1, "confirmations": 11484, "time": 1537873282, "locktime": 0, "vsize": 370, "size": 370}