{"hash": "4c98a73d215a48a9a376f17b7c1ba25755f27c14fe66a5bb4c39ee4b7b651102", "blockhash": "0000000000000000000e13cef7c366c0283d82e591d1acd082e914b08063cdf1", "vout": [{"scriptPubKey": {"reqSigs": 1, "hex": "a91486e7131306b71144bbd8d10897d61f84fc46a57987", "addresses": ["3DzKHb2EJc5oXcvSssWo5JTiqq7SBQC1WA"], "asm": "OP_HASH160 86e7131306b71144bbd8d10897d61f84fc46a579 OP_EQUAL", "type": "scripthash"}, "value": 0.79632172, "n": 0}, {"scriptPubKey": {"reqSigs": 1, "hex": "a9148e81e24992f8461187a7444fb1939031736ebbce87", "addresses": ["3EgXUH4RpWWwAnNtPXS2n7uy1rKfurNkS9"], "asm": "OP_HASH160 8e81e24992f8461187a7444fb1939031736ebbce OP_EQUAL", "type": "scripthash"}, "value": 5.18355391, "n": 1}, {"scriptPubKey": {"reqSigs": 1, "hex": "76a914279a7ded82665d7c6844277b690555f6e812918b88ac", "addresses": ["14cQRmViAzVKa277gZznByGZtnrVPQc8Lr"], "asm": "OP_DUP OP_HASH160 279a7ded82665d7c6844277b690555f6e812918b OP_EQUALVERIFY OP_CHECKSIG", "type": "pubkeyhash"}, "value": 6.01656756, "n": 2}], "hex": "0100000000010e53ed48d88d6c1022fc39721335d7b8ebd72e416c74f826b29ff33379b41e80081400000023220020f1e8dc7c87c03282f88dba6ac96e4b27d5db8a461611bc5db4f928d264124312ffffffff1a7fcef2cde08f85a95690ca2404dc30e8d6e8bb568e71ef877b69bae3a3245201000000232200203d5dc091feb10bfa658ff19b7d89831b2f52d93ed7c921bc163cf542b8f63de2ffffffff5bb58d9e275530fb8a821fae5f7da4599f511e4b7272d708d1b9503a0fef368f00000000fdfd000047304402203428663cf48d276349cc0e8f5ccb186c95d454a4391cbb8d5d361ba0fdf65c23022031e493ca7e971b65ec7d73292ad832f8a3361635bf8187783ae4e2890214cc5401483045022100a64e53d6dfbd833d46b537bd7f4470d5125c0c6fbf8947e47d899251796c51f302205d9ddb51c2a4026dfaba40a3217ee804baaa84eca62f9eef10a592be2ae3bc36014c695221021ec177d01069d04df5a76eee300dab76010469b70312ef231e36c5ddecb5254a21039e5579469658fdda4fe9ca77b796c99a94909b9953980db70056671f1c43b6e6210221e5ef43cba7fe60711b829de5ad1ebda975b14b9a9202d976a3f4724379cdb653aefffffffff825fd46d67fa6f581f47ddae06b4d693e52a1ad37fa94f7f655269ce84f5f4f02000000fdfd000047304402205cd8bd9eb44ed241db33d092aa5dd951df5c95244e5bb41d9d82a3bdabe6051802204412a42788fce37c3c7f1af84cf5c66040370e467e93b19f2a987c57c62f97b801483045022100cdf560cefe4b3ccb93796cc695d026ed23c236f10f71875bf5b24e23e71d14fa0220722c3239e6210d85ba7249b1bbcebf917706b7a80aafd5faff215a3e63e89f91014c69522102ce406461a59201053075c91563cb0dc43ac71f1a62d5d52398684418c77d72a32103f11ad213eed40a125d07f3ed3e008285fc488b73064b7f4bcf5b602f87e0af932103f7653d16c7edf9eb0c14a5a5eb6aa1a0353c1e4e6318e0012616d0d8643df9f753aeffffffffe0e700115bdd094ba9c82fc48ea8cae77149f8fb26f97d5fa29b4dd36bdd906704000000fc00473044022038d2bd152dc4dbe157d98c94cb0f4606a52dd04a82b96f70638074655a878ff20220523cc26dfcb0cac7f1b32ee6fd584c50eac671ab7eae4db9f3b1045f6b8a72ca0147304402202ccdfff00edbfebc6655f6cfb937684a2e5870053210ff811675cb55a36eb486022004ea3eb11886f985bbedb383eadaab75639f26be0c9cfadd6f049be6ab841936014c69522102c0cd5797d857b7781ddd6192651a8d9fc3210122d746df9639fa72ee78179f812103a281d3905786124ecb0fdeab28e6b0ca606f9a37b4efce75cee29a54fd7276f121035f6147fd242e495a26a4bf4018a22bdfc24bad8339c639f7048fa3e54452c04553aeffffffffe17da05841ffaec51dfac78c0e2f666d97970cc582e4a774a358376276dfea8101000000fc00473044022077c87e5f51c9f87c241bad91270b9b946e795391448021fb50a5e1d20935a26d02200e0f3b877cdd6f6e8068e359dba5a1af5455bd3681d1d114f2132651b15666ad014730440220462add3a21a5f5cfe0c60eb7519c9599e045c8242a7261ec2fe11b512a93dd9f02203f6bd7fbbc6764cbb719e2a5f7fa6a35e565428e7a05c0027ebac7867fd110b5014c69522102fe2a8d513972f1cf3ef2606f4c200c8a6e6c2a62b66c902990b2c8bea2b8199a2103da06c7f76014e68e278b2f71ec9d669d28430cf74985bedd2d6390699e720c412102c7934d8341e0d2fea633e397643408bb80a246786d1ffa0151c5caa152d2e6b353aeffffffff0cde4abe54d2ba4bfef548cc8884bfc5002a919ed5959672e6f7f86b47cf7f400d000000232200207e8ee1368717d6ed900f452f735103f20b09280a0e09b27562605a0b3342dd9effffffff051578094b8841443840868d7fd548dc0d8985430890508493cd521c0ab7f7d103000000fdfd0000483045022100f23d4441deaa61b42d03c03d493e3dfc73c2f0a1e9f036919e50eaaf118491bd0220600bf7e30afcc21c3cdf780a1ce66add114808541eb361bc6e47205538b004630147304402207fe744f0d7c4b768d85d447fd4a0d471ad2b42ab1cd3142996bcb6402b70f2b502204501f1189036dd4469b505fb4e96709c57c24743a6c05c8ccf636b3ad7132a64014c6952210219e2f0998b6d0f56b07b73d9e67ed7ebcd5a77478ba07f57c2d1465c93374bfc2103a1146bfca05d87e70d3bf4c01f7f4335b7dcaee168be5dc969dc441453b219f421031a93d14d1a2f6bb63bacebb773140d01254ac77fd9a10acd32a747532f98eefa53aeffffffff577fea16f7baf0ee924b9cdfcc00cc063c105333ba923a3cafb402ae2856d6ea01000000fdfe0000483045022100b368115df64dd4d881c37f013a8bb3615f5dcfadc2c9d62c16d424c810baae0b022055de5c70bb28ffdd10fadfc108cab9e0f262a5810de7b0b0a1e4b45b1c1bdff201483045022100e0059324e3a76501b167c1e23b387f52e6dd116fbab187c40ffccfe82f9f83fa0220061b6fea32723fd7172c399fc1d01bedc0e0a25bfe71390a77d16e945a338e8f014c695221021f3982a8ae6c8588a6aa520b1e53ab72e37a18a97ab5ed6d628c10f3bc1ac4da2102504f4e54fa14eaa0de01e22aa05d10f21825583e5f851145f5a9d2c9232523a12102811118b3c6bfba956cfcee7e505a5fa688e52fd5d98bbea17dab13e94e62d32d53aeffffffff981cee58cd7197e06c725d2836248454b375ad32fd5f05cfed3aab27b48cae480000000023220020b44850c611386ff320606e9a664043656cf91ded7f1b2d4b990f6445aaf0f1f3ffffffffd61e82aba7ac396c4f6928a8f1ef1fcd08cb79d2813ebf5024e724882408218400000000fc00473044022009fc2b15a49120ca60ea14e9a253d06166283ac3a491c9d3e6c6a9a05e405b210220103b7f1b52448795c19d822633ef4e1fac1345fbd9cc935c9da79ed62c51065301473044022041652e9bbb31b9c9477f2b3f6a565b5cba0d4e16fc421ed06cfbe9cb1b90d17f0220607a755c746926d5768ce25a65ef9f08fafd40a7529a377e9b1252a7ae524434014c695221030a1fab2d45e9501f4222333773bef6e1600f327fe26296e53aec6137b624d89121032aa5e484ca319dcc245421256cf0d02db4167cc29d286ff556f3ad1e18c66ea92103422aef26701b835d11d36e93e67676859703b44e81c416451e6c197722cb504553aeffffffffda53feaf2f3e22c5a3699dc6ffc8d1267b523178a517e3ddda768dac39c00734010000002322002011632b84be9aef8cc7c90d40ead63737fca78ce521356933ab0ce5a860a66cbdffffffffb01928d2d9a4794dff9a81ff04e9f79bff569119b16cb92669a35f62c9c6974000000000fc004730440220132fdd1e27faa44fba9b5e7b022dd127e5aedb101f1913d123836826c3e4898202205833ffe459d75b0ca12523bae2b4381e730df2be3710d101f1eea7786f3ca4d00147304402205d2f28d55a5ab3c92c44334c27b78e1c05b0a16a3f5484ac1c5ad59e752e4164022022428f41ce2a717e2379a6b9c7d479f1d2cf4fc287e6d0d72210e1652354ea46014c69522102a1f0729569d2ad234d7c1f9d21a411307b12ef6440abe5be6607fe33c85e35172102a450fed4abcb74ccdc3d9bdded40ebf619a7191ae0945bb37b01504a260be94b2102dcfec7f2d8c644b37f2607e212d36e956c248f06ce8f68127331fc0798d824dd53aeffffffffbdb474daacf7609fb750dfad03bca809d577ede5ddf44b2089db49c934b113030000000023220020b44850c611386ff320606e9a664043656cf91ded7f1b2d4b990f6445aaf0f1f3ffffffff032c17bf040000000017a91486e7131306b71144bbd8d10897d61f84fc46a57987bf79e51e0000000017a9148e81e24992f8461187a7444fb1939031736ebbce87b48ddc23000000001976a914279a7ded82665d7c6844277b690555f6e812918b88ac0400483045022100b4f3efb1099347e6c43e7e02ce4aefee04a94311c7ee5cc98a986a22b6becab602203507ddcce341e99da3a4bb8270245695e68752ff5fec9938c0a7f2fa16db39980148304502210092d833f6f21d484da9f186acce51e9318a024bfbc98cacc5f5df2c721588c115022044f26e53ae42cf84b8578aa39f71ae6ac2b5ba9bd9fa600558cc39dfc8e0d840016952210268cb05dc07649b4df3b75bf351321d43b3a6adb575b5b6d1a3e94515baa65e052102d003262efe32ea1f0046df7dbd355d22c4366aa11a99a7c89881f1bf708d48882103a4a10ae98fd9d51f98de9d0bbf5cb94a924096db332207762b60b80ede06706b53ae0400483045022100e415d8a9ead3e09705c8c83572b21a55d6fdae0171bcaa540cd75c624cc0664a02202b908258bba4a9ce3e91c95469cd2dfbf65241e31c4d87165606a9c0f13be86401483045022100fe27c27c3a3a0255b1585d63d5c1fe87d011c8e36b56054fecb091840728b21602206a0454b243f0138797b56fc96265041d246523417f8c32df775811e719d361b10169522103234d35177ec5754fb957746cf9cab370315b8815a71814ec52ea56d1484a0a5a21024a3403cd7a7f92c5ab8191f7cafae5ea94e88936ae2fb8e0f41a4fa0bf4fcd552103e1c3169b34dc8870afe175eef07e679b47eefdc05cd4c6350ecd1090c340dfe753ae000000000400483045022100c35324ca0eb8553df91d2a5678eb1e2f6c2cf3d4b76fa20bfc105133f76b319302207a016fb2008c903fb43bd5251782bf237328a34a1996bf00a125bf0ca6336d4f0147304402200483e6c6be5c0a9784e191c42f10ef9a353ffa38bbeed5f9a894b9eb8d0aa1c702201279303ffd093fe5d4206d1c14e23154aa47038a7ffd07d8ce7ca7d1f077000e01695221030b5b1f610dd6dbd7d04e39289af5e7a5a71ebb656de791b48ec377283f6814d821035d1b41d898f62f5a57f7662c7dd85ea9283bbc4b8440608b35ee4cf8abdd215c210339f0ec485b5ef4e04a8d6baf406209124b150d3c584dae7593d0a0ec3eb7821053ae00000400483045022100d1916e377bb59c5879e6813b8f0a0526354f1e5f6fe46cb56357fbb9d2a33d3902207cc1e3edfbc63fd029382917d1d2e96005c54e253b83d8d7cdb764090e68d6ab01483045022100e1449a0d498c7bc65953fb2805f92c88c2a283394e3631ed2b8767dc55bf26ee02205549d4f81b1fc90f3357d5b39c683ddc84b0f35ca13f260c4a9ace8b60982d030169522103fe2b7b05cb37cddcaf6b582ce51c99b7ed794fc934c85bd3cfb4ff08e3175e7f2103a4d204b0dfec58a944a4abdb70df1ea40c5cb6517b964fcb5ac8cdee8420e7672102de6cfa50077b68316eeaed38dcbc00f8a71ebbfbf15cb1e55b2dd4f36913027c53ae000400473044022055649d14a253be8c84961e6f731e3cb01a1a86bdbac9ae04e8b8cde1b68c657c02203ec35e15d8798ddacfafd2c8a14454a39cfd1a7a97a94301ab9be47b8fe5031501483045022100e13b5a32bbb6ad6ecb2ecf4c171ae5624536a3f9c6e9d0a74b3e05e41dd18b880220395594617434a2beb5838e3195f3555378b8cf4f47d607221f9c8730bc4bf2c10169522103ebd6ccee36cf48013374266f9a295ef9c3d08c4264dc037334dc9ac5ce0f65ad2103b4f3a71b7ce619aa8583071955a10d94c6d1dcc1bb63d1c6fac8370ee7b374a921038c5adce01f57aeb2ef808304e4d4091b3b86897bbb6096b53c4ed3db6024b19453ae00040047304402203aa369568fb193a1df43cca10e7f5dd7af9b03c960930c02200936fc65ffbc5602207647300731b18ef1ce2f21ca6cd0e6d483875925d88757a46f725af7072c3f1301483045022100d3703fdcd1ced89433e0b3b88d24ff917673699a357d61e8087458353e81b020022072fa390fa5905e4bbc60944379f98c950c62ee1e5d66c00c3f4d5a33a71873790169522103fe2b7b05cb37cddcaf6b582ce51c99b7ed794fc934c85bd3cfb4ff08e3175e7f2103a4d204b0dfec58a944a4abdb70df1ea40c5cb6517b964fcb5ac8cdee8420e7672102de6cfa50077b68316eeaed38dcbc00f8a71ebbfbf15cb1e55b2dd4f36913027c53ae00000000", "vin": [{"txinwitness": ["", "3045022100b4f3efb1099347e6c43e7e02ce4aefee04a94311c7ee5cc98a986a22b6becab602203507ddcce341e99da3a4bb8270245695e68752ff5fec9938c0a7f2fa16db399801", "304502210092d833f6f21d484da9f186acce51e9318a024bfbc98cacc5f5df2c721588c115022044f26e53ae42cf84b8578aa39f71ae6ac2b5ba9bd9fa600558cc39dfc8e0d84001", "52210268cb05dc07649b4df3b75bf351321d43b3a6adb575b5b6d1a3e94515baa65e052102d003262efe32ea1f0046df7dbd355d22c4366aa11a99a7c89881f1bf708d48882103a4a10ae98fd9d51f98de9d0bbf5cb94a924096db332207762b60b80ede06706b53ae"], "sequence": 4294967295, "scriptSig": {"hex": "220020f1e8dc7c87c03282f88dba6ac96e4b27d5db8a461611bc5db4f928d264124312", "asm": "0020f1e8dc7c87c03282f88dba6ac96e4b27d5db8a461611bc5db4f928d264124312"}, "vout": 20, "txid": "08801eb47933f39fb226f8746c412ed7ebb8d735137239fc22106c8dd848ed53"}, {"txinwitness": ["", "3045022100e415d8a9ead3e09705c8c83572b21a55d6fdae0171bcaa540cd75c624cc0664a02202b908258bba4a9ce3e91c95469cd2dfbf65241e31c4d87165606a9c0f13be86401", "3045022100fe27c27c3a3a0255b1585d63d5c1fe87d011c8e36b56054fecb091840728b21602206a0454b243f0138797b56fc96265041d246523417f8c32df775811e719d361b101", "522103234d35177ec5754fb957746cf9cab370315b8815a71814ec52ea56d1484a0a5a21024a3403cd7a7f92c5ab8191f7cafae5ea94e88936ae2fb8e0f41a4fa0bf4fcd552103e1c3169b34dc8870afe175eef07e679b47eefdc05cd4c6350ecd1090c340dfe753ae"], "sequence": 4294967295, "scriptSig": {"hex": "2200203d5dc091feb10bfa658ff19b7d89831b2f52d93ed7c921bc163cf542b8f63de2", "asm": "00203d5dc091feb10bfa658ff19b7d89831b2f52d93ed7c921bc163cf542b8f63de2"}, "vout": 1, "txid": "5224a3e3ba697b87ef718e56bbe8d6e830dc0424ca9056a9858fe0cdf2ce7f1a"}, {"sequence": 4294967295, "scriptSig": {"hex": "0047304402203428663cf48d276349cc0e8f5ccb186c95d454a4391cbb8d5d361ba0fdf65c23022031e493ca7e971b65ec7d73292ad832f8a3361635bf8187783ae4e2890214cc5401483045022100a64e53d6dfbd833d46b537bd7f4470d5125c0c6fbf8947e47d899251796c51f302205d9ddb51c2a4026dfaba40a3217ee804baaa84eca62f9eef10a592be2ae3bc36014c695221021ec177d01069d04df5a76eee300dab76010469b70312ef231e36c5ddecb5254a21039e5579469658fdda4fe9ca77b796c99a94909b9953980db70056671f1c43b6e6210221e5ef43cba7fe60711b829de5ad1ebda975b14b9a9202d976a3f4724379cdb653ae", "asm": "0 304402203428663cf48d276349cc0e8f5ccb186c95d454a4391cbb8d5d361ba0fdf65c23022031e493ca7e971b65ec7d73292ad832f8a3361635bf8187783ae4e2890214cc54[ALL] 3045022100a64e53d6dfbd833d46b537bd7f4470d5125c0c6fbf8947e47d899251796c51f302205d9ddb51c2a4026dfaba40a3217ee804baaa84eca62f9eef10a592be2ae3bc36[ALL] 5221021ec177d01069d04df5a76eee300dab76010469b70312ef231e36c5ddecb5254a21039e5579469658fdda4fe9ca77b796c99a94909b9953980db70056671f1c43b6e6210221e5ef43cba7fe60711b829de5ad1ebda975b14b9a9202d976a3f4724379cdb653ae"}, "vout": 0, "txid": "8f36ef0f3a50b9d108d772724b1e519f59a47d5fae1f828afb3055279e8db55b"}, {"sequence": 4294967295, "scriptSig": {"hex": "0047304402205cd8bd9eb44ed241db33d092aa5dd951df5c95244e5bb41d9d82a3bdabe6051802204412a42788fce37c3c7f1af84cf5c66040370e467e93b19f2a987c57c62f97b801483045022100cdf560cefe4b3ccb93796cc695d026ed23c236f10f71875bf5b24e23e71d14fa0220722c3239e6210d85ba7249b1bbcebf917706b7a80aafd5faff215a3e63e89f91014c69522102ce406461a59201053075c91563cb0dc43ac71f1a62d5d52398684418c77d72a32103f11ad213eed40a125d07f3ed3e008285fc488b73064b7f4bcf5b602f87e0af932103f7653d16c7edf9eb0c14a5a5eb6aa1a0353c1e4e6318e0012616d0d8643df9f753ae", "asm": "0 304402205cd8bd9eb44ed241db33d092aa5dd951df5c95244e5bb41d9d82a3bdabe6051802204412a42788fce37c3c7f1af84cf5c66040370e467e93b19f2a987c57c62f97b8[ALL] 3045022100cdf560cefe4b3ccb93796cc695d026ed23c236f10f71875bf5b24e23e71d14fa0220722c3239e6210d85ba7249b1bbcebf917706b7a80aafd5faff215a3e63e89f91[ALL] 522102ce406461a59201053075c91563cb0dc43ac71f1a62d5d52398684418c77d72a32103f11ad213eed40a125d07f3ed3e008285fc488b73064b7f4bcf5b602f87e0af932103f7653d16c7edf9eb0c14a5a5eb6aa1a0353c1e4e6318e0012616d0d8643df9f753ae"}, "vout": 2, "txid": "4f5f4fe89c2655f6f794fa37ada1523e694d6be0da7df481f5a67fd646fd25f8"}, {"sequence": 4294967295, "scriptSig": {"hex": "00473044022038d2bd152dc4dbe157d98c94cb0f4606a52dd04a82b96f70638074655a878ff20220523cc26dfcb0cac7f1b32ee6fd584c50eac671ab7eae4db9f3b1045f6b8a72ca0147304402202ccdfff00edbfebc6655f6cfb937684a2e5870053210ff811675cb55a36eb486022004ea3eb11886f985bbedb383eadaab75639f26be0c9cfadd6f049be6ab841936014c69522102c0cd5797d857b7781ddd6192651a8d9fc3210122d746df9639fa72ee78179f812103a281d3905786124ecb0fdeab28e6b0ca606f9a37b4efce75cee29a54fd7276f121035f6147fd242e495a26a4bf4018a22bdfc24bad8339c639f7048fa3e54452c04553ae", "asm": "0 3044022038d2bd152dc4dbe157d98c94cb0f4606a52dd04a82b96f70638074655a878ff20220523cc26dfcb0cac7f1b32ee6fd584c50eac671ab7eae4db9f3b1045f6b8a72ca[ALL] 304402202ccdfff00edbfebc6655f6cfb937684a2e5870053210ff811675cb55a36eb486022004ea3eb11886f985bbedb383eadaab75639f26be0c9cfadd6f049be6ab841936[ALL] 522102c0cd5797d857b7781ddd6192651a8d9fc3210122d746df9639fa72ee78179f812103a281d3905786124ecb0fdeab28e6b0ca606f9a37b4efce75cee29a54fd7276f121035f6147fd242e495a26a4bf4018a22bdfc24bad8339c639f7048fa3e54452c04553ae"}, "vout": 4, "txid": "6790dd6bd34d9ba25f7df926fbf84971e7caa88ec42fc8a94b09dd5b1100e7e0"}, {"sequence": 4294967295, "scriptSig": {"hex": "00473044022077c87e5f51c9f87c241bad91270b9b946e795391448021fb50a5e1d20935a26d02200e0f3b877cdd6f6e8068e359dba5a1af5455bd3681d1d114f2132651b15666ad014730440220462add3a21a5f5cfe0c60eb7519c9599e045c8242a7261ec2fe11b512a93dd9f02203f6bd7fbbc6764cbb719e2a5f7fa6a35e565428e7a05c0027ebac7867fd110b5014c69522102fe2a8d513972f1cf3ef2606f4c200c8a6e6c2a62b66c902990b2c8bea2b8199a2103da06c7f76014e68e278b2f71ec9d669d28430cf74985bedd2d6390699e720c412102c7934d8341e0d2fea633e397643408bb80a246786d1ffa0151c5caa152d2e6b353ae", "asm": "0 3044022077c87e5f51c9f87c241bad91270b9b946e795391448021fb50a5e1d20935a26d02200e0f3b877cdd6f6e8068e359dba5a1af5455bd3681d1d114f2132651b15666ad[ALL] 30440220462add3a21a5f5cfe0c60eb7519c9599e045c8242a7261ec2fe11b512a93dd9f02203f6bd7fbbc6764cbb719e2a5f7fa6a35e565428e7a05c0027ebac7867fd110b5[ALL] 522102fe2a8d513972f1cf3ef2606f4c200c8a6e6c2a62b66c902990b2c8bea2b8199a2103da06c7f76014e68e278b2f71ec9d669d28430cf74985bedd2d6390699e720c412102c7934d8341e0d2fea633e397643408bb80a246786d1ffa0151c5caa152d2e6b353ae"}, "vout": 1, "txid": "81eadf76623758a374a7e482c50c97976d662f0e8cc7fa1dc5aeff4158a07de1"}, {"txinwitness": ["", "3045022100c35324ca0eb8553df91d2a5678eb1e2f6c2cf3d4b76fa20bfc105133f76b319302207a016fb2008c903fb43bd5251782bf237328a34a1996bf00a125bf0ca6336d4f01", "304402200483e6c6be5c0a9784e191c42f10ef9a353ffa38bbeed5f9a894b9eb8d0aa1c702201279303ffd093fe5d4206d1c14e23154aa47038a7ffd07d8ce7ca7d1f077000e01", "5221030b5b1f610dd6dbd7d04e39289af5e7a5a71ebb656de791b48ec377283f6814d821035d1b41d898f62f5a57f7662c7dd85ea9283bbc4b8440608b35ee4cf8abdd215c210339f0ec485b5ef4e04a8d6baf406209124b150d3c584dae7593d0a0ec3eb7821053ae"], "sequence": 4294967295, "scriptSig": {"hex": "2200207e8ee1368717d6ed900f452f735103f20b09280a0e09b27562605a0b3342dd9e", "asm": "00207e8ee1368717d6ed900f452f735103f20b09280a0e09b27562605a0b3342dd9e"}, "vout": 13, "txid": "407fcf476bf8f7e6729695d59e912a00c5bf8488cc48f5fe4bbad254be4ade0c"}, {"sequence": 4294967295, "scriptSig": {"hex": "00483045022100f23d4441deaa61b42d03c03d493e3dfc73c2f0a1e9f036919e50eaaf118491bd0220600bf7e30afcc21c3cdf780a1ce66add114808541eb361bc6e47205538b004630147304402207fe744f0d7c4b768d85d447fd4a0d471ad2b42ab1cd3142996bcb6402b70f2b502204501f1189036dd4469b505fb4e96709c57c24743a6c05c8ccf636b3ad7132a64014c6952210219e2f0998b6d0f56b07b73d9e67ed7ebcd5a77478ba07f57c2d1465c93374bfc2103a1146bfca05d87e70d3bf4c01f7f4335b7dcaee168be5dc969dc441453b219f421031a93d14d1a2f6bb63bacebb773140d01254ac77fd9a10acd32a747532f98eefa53ae", "asm": "0 3045022100f23d4441deaa61b42d03c03d493e3dfc73c2f0a1e9f036919e50eaaf118491bd0220600bf7e30afcc21c3cdf780a1ce66add114808541eb361bc6e47205538b00463[ALL] 304402207fe744f0d7c4b768d85d447fd4a0d471ad2b42ab1cd3142996bcb6402b70f2b502204501f1189036dd4469b505fb4e96709c57c24743a6c05c8ccf636b3ad7132a64[ALL] 52210219e2f0998b6d0f56b07b73d9e67ed7ebcd5a77478ba07f57c2d1465c93374bfc2103a1146bfca05d87e70d3bf4c01f7f4335b7dcaee168be5dc969dc441453b219f421031a93d14d1a2f6bb63bacebb773140d01254ac77fd9a10acd32a747532f98eefa53ae"}, "vout": 3, "txid": "d1f7b70a1c52cd93845090084385890ddc48d57f8d8640384441884b09781505"}, {"sequence": 4294967295, "scriptSig": {"hex": "00483045022100b368115df64dd4d881c37f013a8bb3615f5dcfadc2c9d62c16d424c810baae0b022055de5c70bb28ffdd10fadfc108cab9e0f262a5810de7b0b0a1e4b45b1c1bdff201483045022100e0059324e3a76501b167c1e23b387f52e6dd116fbab187c40ffccfe82f9f83fa0220061b6fea32723fd7172c399fc1d01bedc0e0a25bfe71390a77d16e945a338e8f014c695221021f3982a8ae6c8588a6aa520b1e53ab72e37a18a97ab5ed6d628c10f3bc1ac4da2102504f4e54fa14eaa0de01e22aa05d10f21825583e5f851145f5a9d2c9232523a12102811118b3c6bfba956cfcee7e505a5fa688e52fd5d98bbea17dab13e94e62d32d53ae", "asm": "0 3045022100b368115df64dd4d881c37f013a8bb3615f5dcfadc2c9d62c16d424c810baae0b022055de5c70bb28ffdd10fadfc108cab9e0f262a5810de7b0b0a1e4b45b1c1bdff2[ALL] 3045022100e0059324e3a76501b167c1e23b387f52e6dd116fbab187c40ffccfe82f9f83fa0220061b6fea32723fd7172c399fc1d01bedc0e0a25bfe71390a77d16e945a338e8f[ALL] 5221021f3982a8ae6c8588a6aa520b1e53ab72e37a18a97ab5ed6d628c10f3bc1ac4da2102504f4e54fa14eaa0de01e22aa05d10f21825583e5f851145f5a9d2c9232523a12102811118b3c6bfba956cfcee7e505a5fa688e52fd5d98bbea17dab13e94e62d32d53ae"}, "vout": 1, "txid": "ead65628ae02b4af3c3a92ba3353103c06cc00ccdf9c4b92eef0baf716ea7f57"}, {"txinwitness": ["", "3045022100d1916e377bb59c5879e6813b8f0a0526354f1e5f6fe46cb56357fbb9d2a33d3902207cc1e3edfbc63fd029382917d1d2e96005c54e253b83d8d7cdb764090e68d6ab01", "3045022100e1449a0d498c7bc65953fb2805f92c88c2a283394e3631ed2b8767dc55bf26ee02205549d4f81b1fc90f3357d5b39c683ddc84b0f35ca13f260c4a9ace8b60982d0301", "522103fe2b7b05cb37cddcaf6b582ce51c99b7ed794fc934c85bd3cfb4ff08e3175e7f2103a4d204b0dfec58a944a4abdb70df1ea40c5cb6517b964fcb5ac8cdee8420e7672102de6cfa50077b68316eeaed38dcbc00f8a71ebbfbf15cb1e55b2dd4f36913027c53ae"], "sequence": 4294967295, "scriptSig": {"hex": "220020b44850c611386ff320606e9a664043656cf91ded7f1b2d4b990f6445aaf0f1f3", "asm": "0020b44850c611386ff320606e9a664043656cf91ded7f1b2d4b990f6445aaf0f1f3"}, "vout": 0, "txid": "48ae8cb427ab3aedcf055ffd32ad75b354842436285d726ce09771cd58ee1c98"}, {"sequence": 4294967295, "scriptSig": {"hex": "00473044022009fc2b15a49120ca60ea14e9a253d06166283ac3a491c9d3e6c6a9a05e405b210220103b7f1b52448795c19d822633ef4e1fac1345fbd9cc935c9da79ed62c51065301473044022041652e9bbb31b9c9477f2b3f6a565b5cba0d4e16fc421ed06cfbe9cb1b90d17f0220607a755c746926d5768ce25a65ef9f08fafd40a7529a377e9b1252a7ae524434014c695221030a1fab2d45e9501f4222333773bef6e1600f327fe26296e53aec6137b624d89121032aa5e484ca319dcc245421256cf0d02db4167cc29d286ff556f3ad1e18c66ea92103422aef26701b835d11d36e93e67676859703b44e81c416451e6c197722cb504553ae", "asm": "0 3044022009fc2b15a49120ca60ea14e9a253d06166283ac3a491c9d3e6c6a9a05e405b210220103b7f1b52448795c19d822633ef4e1fac1345fbd9cc935c9da79ed62c510653[ALL] 3044022041652e9bbb31b9c9477f2b3f6a565b5cba0d4e16fc421ed06cfbe9cb1b90d17f0220607a755c746926d5768ce25a65ef9f08fafd40a7529a377e9b1252a7ae524434[ALL] 5221030a1fab2d45e9501f4222333773bef6e1600f327fe26296e53aec6137b624d89121032aa5e484ca319dcc245421256cf0d02db4167cc29d286ff556f3ad1e18c66ea92103422aef26701b835d11d36e93e67676859703b44e81c416451e6c197722cb504553ae"}, "vout": 0, "txid": "842108248824e72450bf3e81d279cb08cd1feff1a828694f6c39aca7ab821ed6"}, {"txinwitness": ["", "3044022055649d14a253be8c84961e6f731e3cb01a1a86bdbac9ae04e8b8cde1b68c657c02203ec35e15d8798ddacfafd2c8a14454a39cfd1a7a97a94301ab9be47b8fe5031501", "3045022100e13b5a32bbb6ad6ecb2ecf4c171ae5624536a3f9c6e9d0a74b3e05e41dd18b880220395594617434a2beb5838e3195f3555378b8cf4f47d607221f9c8730bc4bf2c101", "522103ebd6ccee36cf48013374266f9a295ef9c3d08c4264dc037334dc9ac5ce0f65ad2103b4f3a71b7ce619aa8583071955a10d94c6d1dcc1bb63d1c6fac8370ee7b374a921038c5adce01f57aeb2ef808304e4d4091b3b86897bbb6096b53c4ed3db6024b19453ae"], "sequence": 4294967295, "scriptSig": {"hex": "22002011632b84be9aef8cc7c90d40ead63737fca78ce521356933ab0ce5a860a66cbd", "asm": "002011632b84be9aef8cc7c90d40ead63737fca78ce521356933ab0ce5a860a66cbd"}, "vout": 1, "txid": "3407c039ac8d76dadde317a57831527b26d1c8ffc69d69a3c5223e2faffe53da"}, {"sequence": 4294967295, "scriptSig": {"hex": "004730440220132fdd1e27faa44fba9b5e7b022dd127e5aedb101f1913d123836826c3e4898202205833ffe459d75b0ca12523bae2b4381e730df2be3710d101f1eea7786f3ca4d00147304402205d2f28d55a5ab3c92c44334c27b78e1c05b0a16a3f5484ac1c5ad59e752e4164022022428f41ce2a717e2379a6b9c7d479f1d2cf4fc287e6d0d72210e1652354ea46014c69522102a1f0729569d2ad234d7c1f9d21a411307b12ef6440abe5be6607fe33c85e35172102a450fed4abcb74ccdc3d9bdded40ebf619a7191ae0945bb37b01504a260be94b2102dcfec7f2d8c644b37f2607e212d36e956c248f06ce8f68127331fc0798d824dd53ae", "asm": "0 30440220132fdd1e27faa44fba9b5e7b022dd127e5aedb101f1913d123836826c3e4898202205833ffe459d75b0ca12523bae2b4381e730df2be3710d101f1eea7786f3ca4d0[ALL] 304402205d2f28d55a5ab3c92c44334c27b78e1c05b0a16a3f5484ac1c5ad59e752e4164022022428f41ce2a717e2379a6b9c7d479f1d2cf4fc287e6d0d72210e1652354ea46[ALL] 522102a1f0729569d2ad234d7c1f9d21a411307b12ef6440abe5be6607fe33c85e35172102a450fed4abcb74ccdc3d9bdded40ebf619a7191ae0945bb37b01504a260be94b2102dcfec7f2d8c644b37f2607e212d36e956c248f06ce8f68127331fc0798d824dd53ae"}, "vout": 0, "txid": "4097c6c9625fa36926b96cb1199156ff9bf7e904ff819aff4d79a4d9d22819b0"}, {"txinwitness": ["", "304402203aa369568fb193a1df43cca10e7f5dd7af9b03c960930c02200936fc65ffbc5602207647300731b18ef1ce2f21ca6cd0e6d483875925d88757a46f725af7072c3f1301", "3045022100d3703fdcd1ced89433e0b3b88d24ff917673699a357d61e8087458353e81b020022072fa390fa5905e4bbc60944379f98c950c62ee1e5d66c00c3f4d5a33a718737901", "522103fe2b7b05cb37cddcaf6b582ce51c99b7ed794fc934c85bd3cfb4ff08e3175e7f2103a4d204b0dfec58a944a4abdb70df1ea40c5cb6517b964fcb5ac8cdee8420e7672102de6cfa50077b68316eeaed38dcbc00f8a71ebbfbf15cb1e55b2dd4f36913027c53ae"], "sequence": 4294967295, "scriptSig": {"hex": "220020b44850c611386ff320606e9a664043656cf91ded7f1b2d4b990f6445aaf0f1f3", "asm": "0020b44850c611386ff320606e9a664043656cf91ded7f1b2d4b990f6445aaf0f1f3"}, "vout": 0, "txid": "0313b134c949db89204bf4dde5ed77d509a8bc03addf50b79f60f7acda74b4bd"}], "txid": "bf42248e5f1f2dacae0b0482438781fb032ec1d1d465607068ffef1ea44f0428", "blocktime": 1537871767, "version": 1, "confirmations": 11495, "time": 1537871767, "locktime": 0, "vsize": 3304, "size": 4452}