{"hash": "bf48dc82f98649547611580d5607e65a6d1b76bc566dfd1498e8196a934f9bd7", "blockhash": "0000000000000000001f76057863aec43deb6fa401d9628bb513d65a8098bfab", "vout": [{"scriptPubKey": {"reqSigs": 1, "hex": "76a914ff25de171cde6a3a377a88aae9a33a698bace72e88ac", "addresses": ["1QG6fzyZvQv9k837k2vpr7Z7gEtnQj8j3h"], "asm": "OP_DUP OP_HASH160 ff25de171cde6a3a377a88aae9a33a698bace72e OP_EQUALVERIFY OP_CHECKSIG", "type": "pubkeyhash"}, "value": 5.8e-05, "n": 0}, {"scriptPubKey": {"reqSigs": 1, "hex": "a9143ff1f577fc99fe789cfbc250fba86e7e5499700e87", "addresses": ["37X8ME2xUSVbcoB4mdWYQWn9ZKWsnn2V7j"], "asm": "OP_HASH160 3ff1f577fc99fe789cfbc250fba86e7e5499700e OP_EQUAL", "type": "scripthash"}, "value": 0.07, "n": 1}], "hex": "010000001bbd039fca959c448f49c1b485bf6d7be0fb7f29f95283a064df43777d7f499713000000008b483045022100e76cc7572a97398e742107e704ee616489aa197da56d7bbcc245756c604fee0002203a3e912a069930dabf87d5e7106038c2d351e468ea528445d283669a5f4e4b670141045b15b2368044121bf17ea972e68ed369a1663c74e6f66652b86a0418c5bf7665b6c4b0d097b283779224c947b9c52e78ab9c586c390b7fd2c8df5523afd033a5feffffff6b95ad72fbc390fb151037d63ce609f1023791a3d4e956c4efaf37a8da683a14010000008a47304402206a8bb2c7f4e832edda348018b4f25768815e3f65fc68ac90aec0fd01202bc43b02201a4ada0bbc98ab422267d2cb2cd3621a2d62c0ce72671f4e954ca46f05d7605d0141045b15b2368044121bf17ea972e68ed369a1663c74e6f66652b86a0418c5bf7665b6c4b0d097b283779224c947b9c52e78ab9c586c390b7fd2c8df5523afd033a5feffffff0307f832b17507e58db1ac5ddc140bfb067ced33ee067dc87890138476f19115000000008b483045022100c5c066341a2a53ace8c3ad73970eec013552f6dacada950a9ae0c37880a730e8022057aa4f78914de26f27cf9114a82a8f2fa123a8235321ad38cd1f01dcc80c91070141045b15b2368044121bf17ea972e68ed369a1663c74e6f66652b86a0418c5bf7665b6c4b0d097b283779224c947b9c52e78ab9c586c390b7fd2c8df5523afd033a5feffffff7c2506f536de5fb2a128cd02ef3905d38b6deb6bbfa350b85c9f78e2d8404537000000008a47304402207be8ea96b27b055890dd734184438efd00f8a113d32ca13825c443700ebb18ab02201fc36bae0d4e79391d047ba281ad47c87900d3cf83371540858f857a705ff4800141045b15b2368044121bf17ea972e68ed369a1663c74e6f66652b86a0418c5bf7665b6c4b0d097b283779224c947b9c52e78ab9c586c390b7fd2c8df5523afd033a5feffffff84d8d8b5f8607b30aad82cda8b8c9dc942c02beefeaa49fbd366beb5205d9437010000008a47304402204348dd4b1e7fdc2560da5803b8a3e7330e1611e3c839f3a2a2c26224e0974aa8022001cad02c9abd1a0b986af093574afe0d3f01e3be6e5dfa21f0c320c71cd5630d0141045b15b2368044121bf17ea972e68ed369a1663c74e6f66652b86a0418c5bf7665b6c4b0d097b283779224c947b9c52e78ab9c586c390b7fd2c8df5523afd033a5feffffffbbe7255ba7a21770dbf7d846eaff2c93c4e8f20d341c8481b1f6c9e89d2a1142000000008b48304502210092cb9e6d53a0e339dc79ead93ded47659d0cefd0d23364ec6339d6ea20abb73d022042811f8e2f61a1babfaaefa9a7be353015ded4800085dcc1f51539e8bc35fad40141045b15b2368044121bf17ea972e68ed369a1663c74e6f66652b86a0418c5bf7665b6c4b0d097b283779224c947b9c52e78ab9c586c390b7fd2c8df5523afd033a5feffffff7ffc2e49cfd7f9b890ef226319f08dadff3dd5785679cac57d9d536ae2350e43010000008a4730440220266a83a6f7c0ffe6c292e28289b278b657b938d8dd993694743908736adbd44b02201518cf36265fe11d76266a81fd38bb689eb7bc83ae4cfcaa70083a4350bb11ea0141045b15b2368044121bf17ea972e68ed369a1663c74e6f66652b86a0418c5bf7665b6c4b0d097b283779224c947b9c52e78ab9c586c390b7fd2c8df5523afd033a5feffffffaa99139314aa2eb0cf0469a6c5ae7a3dc7308c0fa5496ae637a9e3f4cb8d6347000000008b483045022100c124751fddf8c64cb9e71b32df2fd198cf6aaf30621c1242800ec9ccea717a7702205544525f546637547d8ec43c0c45777099b7c21cf4eee460789cd4bb23ebd15a0141045b15b2368044121bf17ea972e68ed369a1663c74e6f66652b86a0418c5bf7665b6c4b0d097b283779224c947b9c52e78ab9c586c390b7fd2c8df5523afd033a5feffffff63896e7faffbc40bf1598406b5df6a9ce72dc5c0ff209d25af48f06dd055c94b000000008a47304402203efe7a0d6cf6402e729219f4dce3b0feb60f0a198582bc301a5501f9ec32dfab02200701b56c9b47eb3ba32bcbdbc4886f5a02c3d3cb1589eb4dc13b6ec8ac5497d90141045b15b2368044121bf17ea972e68ed369a1663c74e6f66652b86a0418c5bf7665b6c4b0d097b283779224c947b9c52e78ab9c586c390b7fd2c8df5523afd033a5feffffff2c50c20641864fe433bccb746186ad2948ac0f23a562f6416ba0a6d9f4e4d65b000000008a4730440220716550e0534fbbba35a097cf78bdf676c83bf07c76d5edd9daaf6c83d551b92002200f7ac9c0f2f0a90e1702ab283f427db210ea2633ae0ce8590be669ef10627f71014104ff860ba67a58ff6a03b804668aa88de08dadc07a6572d328a29d15307d63e24dc638702a695932c7c8793cd2753d89f088c0f01bc0941b5fddb23666c5ae700cfeffffff965757f0e1f1a318b3dee87363a38fb48079d6da1ded06e0879d5e4d8eb15c6a000000008b483045022100fa624daae5b2f0e46bacdc18b2335dffa21841828d6fd2387fbc62f7bdac1ee8022050faf5ba58524c2de663ecfe338dfdd3b6f58c012b9f21fbc3e648176b57c09f0141045b15b2368044121bf17ea972e68ed369a1663c74e6f66652b86a0418c5bf7665b6c4b0d097b283779224c947b9c52e78ab9c586c390b7fd2c8df5523afd033a5feffffff2b027c868b09445f1e8ca135c7274d5af484641325f70ecc0ddbabc2a474fb6c000000008b483045022100af71d66fd94467046a6979465e71e283755ba83349bdc429a925351c0476982c02204f189ef0378b18e923e13d4ed9db1d929c5b6e39de48a509652ce178d864e8ee014104c7bef786093720178dda51dd3a136be15a6ad0085cb2b99a37537d90dd1d3a55ec1215b7127348482ceba8bd51eee92e2160af0b2dea8dae1e52eaa8b9dcdb41feffffffada17212d1b08ac094c44fb7844aeca8a58e4e71c7330389d008e3678a65d36f010000008a4730440220571ac6e829acfa021dfc6abad07874d467571166ca3a2b3646a6b2a1a907b4ab02201478215a8bca165e9bfc45cf29bfc308b1107e7d8a83f1efed7f6e361d8675690141045b15b2368044121bf17ea972e68ed369a1663c74e6f66652b86a0418c5bf7665b6c4b0d097b283779224c947b9c52e78ab9c586c390b7fd2c8df5523afd033a5feffffff3a4daac000813b45a00c9fcdfa0a97aadbe18a3cc8a1b889ee1022019efb5c7b010000008b483045022100b408ea263048077d0464dfc495eb9ae211c5fd805403109910e92308cc71212602205145e8dc9914aac395a98a5d11e471c96a23321a773c5aff8bd7fce5d6a099100141045b15b2368044121bf17ea972e68ed369a1663c74e6f66652b86a0418c5bf7665b6c4b0d097b283779224c947b9c52e78ab9c586c390b7fd2c8df5523afd033a5feffffff788871bad910bf4127df386a701a78bf7f1ae979f244b3bb6729a41b43065e8f000000008a473044022041fe9a7c78dc4da592c1e39ed3adc27410ddcd72da4a184ccf727bc936f1b48702207d476cbdb0d689992cec16f3c38ce37c447d02fec04c08603b7aa1317a0cd7a30141045b15b2368044121bf17ea972e68ed369a1663c74e6f66652b86a0418c5bf7665b6c4b0d097b283779224c947b9c52e78ab9c586c390b7fd2c8df5523afd033a5feffffffd081bf48ab483b7e70ed9611f3342f1a4010de4e8652c0220c31823921db0f93000000008b483045022100b06c4cb2b55f8967b4c9a42cb36182e5c47f24be37d630709f3d1d3611c2640c02203d4f85fe19ab9b00eaff9ce00fd2b7d673a7258c880c6e6dce921779a3acfac50141045b15b2368044121bf17ea972e68ed369a1663c74e6f66652b86a0418c5bf7665b6c4b0d097b283779224c947b9c52e78ab9c586c390b7fd2c8df5523afd033a5feffffff210e404fc262b1a52d41760785aec2e7b117ba1312dee82e3ef740b825060397010000008b48304502210085c94bd0017351777277bd45eef11e28c5c5c4827769a1a692e883bb051cdd56022060c0716ca9f9465a0fff888465f9d3b07e3acbcb3a45fdcf9f47827e4af2eab80141045b15b2368044121bf17ea972e68ed369a1663c74e6f66652b86a0418c5bf7665b6c4b0d097b283779224c947b9c52e78ab9c586c390b7fd2c8df5523afd033a5feffffff96ed18f55e847b58b7558bfc165f606b04297bef667765ca6ae3c55b7437c9a5010000008a4730440220097d27087340348b58fc6fc79c87e19dde38d8f080fa742179674f01cb37d5e2022004141a2a50f2b70175b8a1fcfa779473e94e0a8ae0a15c3e26f48336ffccfda00141045b15b2368044121bf17ea972e68ed369a1663c74e6f66652b86a0418c5bf7665b6c4b0d097b283779224c947b9c52e78ab9c586c390b7fd2c8df5523afd033a5feffffff07f10d47405ecb3583c3c30bb1743c05e5975e67dcf966ca76e2fb70b9f793b6000000008b483045022100d035628edfaf1390f4be908742f8fe0ca59430b29c7aa78fc733576aa0cf1e820220175d216b8fd5deebbe55efdfe629e0e4440bf96a5e75ea8c4d2ed905498758b50141045b15b2368044121bf17ea972e68ed369a1663c74e6f66652b86a0418c5bf7665b6c4b0d097b283779224c947b9c52e78ab9c586c390b7fd2c8df5523afd033a5feffffff628860810aba4bf6847bb49d01979300360b2220f708af764836296e36473cc3000000008a4730440220485d043fdafe675f7d75fd27f334780d3ae176eb4c957ffec6c0c1b6682465bb022003bdba8f018b758ce0e88a7d3e8e277843985d06d13bfa43809c6696e5069e9c0141045b15b2368044121bf17ea972e68ed369a1663c74e6f66652b86a0418c5bf7665b6c4b0d097b283779224c947b9c52e78ab9c586c390b7fd2c8df5523afd033a5feffffffda298450a8939d65b11c7a2d15b69f4389ca9d04af65d6f49c0793fd207e87ca010000008b483045022100de2171f36ab471df45d96346760476e2a60354817f0e077a67f9f281cd30893d022049bc060277153f9019b070c4eb6989036675c435192f517e58113d0132f253c30141045b15b2368044121bf17ea972e68ed369a1663c74e6f66652b86a0418c5bf7665b6c4b0d097b283779224c947b9c52e78ab9c586c390b7fd2c8df5523afd033a5feffffffcd4e86718e29e710a7fed10c6ddd986c23322344c2057cadc16ae2bef6cdefe5000000008a473044022042a89f67f015516e241d42a4ef45e9764482b861de6ad9222f7d77844fe53dbc02202b69b6e1e8330c3050d04e27acf89ec6b53463f29b235a00f2f0b5d2681fe052014104b54290bbc91cd418c682e26c49b8485b2ed4e31b72a020d26c7ab29540a943a7038b67aedf4bd1a6672e732d6f3e4c96989849b42a6f83cc0a64445309eaa763feffffff746a190213aa23099928b3dca1f8957dbe117cd2af8647d9f034e5f9a2fa32e6000000008b483045022100bf1e42a4b35f17b0fbd457fad0207225fd3a8ea2b28af1a2a4bf37a32bdc48600220041f1ae93f561a65a66909b1e0df5f9825c0067ee5d683d848d29ee5d145e31d0141045b15b2368044121bf17ea972e68ed369a1663c74e6f66652b86a0418c5bf7665b6c4b0d097b283779224c947b9c52e78ab9c586c390b7fd2c8df5523afd033a5feffffff4140150e2f018c7e73277076cf71771c80cb1df90ffd4bb00147b6f9438588e9000000008b483045022100cd2a0e76325a3497c309ef35c8bd40f188ab883f07b3c3653412a96b92a29e340220358376726a381eed180abe5b8418e673e2f2807a1dd44170cc747eac4ad2b8500141045b15b2368044121bf17ea972e68ed369a1663c74e6f66652b86a0418c5bf7665b6c4b0d097b283779224c947b9c52e78ab9c586c390b7fd2c8df5523afd033a5feffffffe776d975219ac974f74b25117558c097f90ed2feb1bc27e99fad82db7ea863ed000000008b48304502210092f6913185e0e643352046eaaf200130308d5d83f23a4d69e368fd797f111c9b02205cd0cd1e03d72bbfdee9080fcc335602b7f7b5aaa23a36eefc0a2796b26358010141045b15b2368044121bf17ea972e68ed369a1663c74e6f66652b86a0418c5bf7665b6c4b0d097b283779224c947b9c52e78ab9c586c390b7fd2c8df5523afd033a5feffffff7689891a95143e3969fe7432449542566f0574b142676125d15dc9f0e8b473f0010000008a473044022052052f90a4d79683b6a8107105e92079ec0226f211552e29d0eb5755b341d89a02206f79c0b3c02281d13343eb14345e07bbbe90bd7723b90d1583b8c78cfad300810141045b15b2368044121bf17ea972e68ed369a1663c74e6f66652b86a0418c5bf7665b6c4b0d097b283779224c947b9c52e78ab9c586c390b7fd2c8df5523afd033a5feffffff2983d5dfa685972d492fecf13ba748dd9c2722a03f1b2c30104606c8d0acbff5000000008b483045022100a1a92130ca1e60f9e7e1806c791954fb17431429042d0c9f1545186f053b7c30022004eb6a17e58c3ad86bd1713f950b6b72e16db9693b53b8c2b9b7cd98ac88093f0141045b15b2368044121bf17ea972e68ed369a1663c74e6f66652b86a0418c5bf7665b6c4b0d097b283779224c947b9c52e78ab9c586c390b7fd2c8df5523afd033a5feffffff02a8160000000000001976a914ff25de171cde6a3a377a88aae9a33a698bace72e88acc0cf6a000000000017a9143ff1f577fc99fe789cfbc250fba86e7e5499700e8714490800", "vin": [{"sequence": 4294967294, "scriptSig": {"hex": "483045022100e76cc7572a97398e742107e704ee616489aa197da56d7bbcc245756c604fee0002203a3e912a069930dabf87d5e7106038c2d351e468ea528445d283669a5f4e4b670141045b15b2368044121bf17ea972e68ed369a1663c74e6f66652b86a0418c5bf7665b6c4b0d097b283779224c947b9c52e78ab9c586c390b7fd2c8df5523afd033a5", "asm": "3045022100e76cc7572a97398e742107e704ee616489aa197da56d7bbcc245756c604fee0002203a3e912a069930dabf87d5e7106038c2d351e468ea528445d283669a5f4e4b67[ALL] 045b15b2368044121bf17ea972e68ed369a1663c74e6f66652b86a0418c5bf7665b6c4b0d097b283779224c947b9c52e78ab9c586c390b7fd2c8df5523afd033a5"}, "vout": 0, "txid": "1397497f7d7743df64a08352f9297ffbe07b6dbf85b4c1498f449c95ca9f03bd"}, {"sequence": 4294967294, "scriptSig": {"hex": "47304402206a8bb2c7f4e832edda348018b4f25768815e3f65fc68ac90aec0fd01202bc43b02201a4ada0bbc98ab422267d2cb2cd3621a2d62c0ce72671f4e954ca46f05d7605d0141045b15b2368044121bf17ea972e68ed369a1663c74e6f66652b86a0418c5bf7665b6c4b0d097b283779224c947b9c52e78ab9c586c390b7fd2c8df5523afd033a5", "asm": "304402206a8bb2c7f4e832edda348018b4f25768815e3f65fc68ac90aec0fd01202bc43b02201a4ada0bbc98ab422267d2cb2cd3621a2d62c0ce72671f4e954ca46f05d7605d[ALL] 045b15b2368044121bf17ea972e68ed369a1663c74e6f66652b86a0418c5bf7665b6c4b0d097b283779224c947b9c52e78ab9c586c390b7fd2c8df5523afd033a5"}, "vout": 1, "txid": "143a68daa837afefc456e9d4a3913702f109e63cd6371015fb90c3fb72ad956b"}, {"sequence": 4294967294, "scriptSig": {"hex": "483045022100c5c066341a2a53ace8c3ad73970eec013552f6dacada950a9ae0c37880a730e8022057aa4f78914de26f27cf9114a82a8f2fa123a8235321ad38cd1f01dcc80c91070141045b15b2368044121bf17ea972e68ed369a1663c74e6f66652b86a0418c5bf7665b6c4b0d097b283779224c947b9c52e78ab9c586c390b7fd2c8df5523afd033a5", "asm": "3045022100c5c066341a2a53ace8c3ad73970eec013552f6dacada950a9ae0c37880a730e8022057aa4f78914de26f27cf9114a82a8f2fa123a8235321ad38cd1f01dcc80c9107[ALL] 045b15b2368044121bf17ea972e68ed369a1663c74e6f66652b86a0418c5bf7665b6c4b0d097b283779224c947b9c52e78ab9c586c390b7fd2c8df5523afd033a5"}, "vout": 0, "txid": "1591f17684139078c87d06ee33ed7c06fb0b14dc5dacb18de50775b132f80703"}, {"sequence": 4294967294, "scriptSig": {"hex": "47304402207be8ea96b27b055890dd734184438efd00f8a113d32ca13825c443700ebb18ab02201fc36bae0d4e79391d047ba281ad47c87900d3cf83371540858f857a705ff4800141045b15b2368044121bf17ea972e68ed369a1663c74e6f66652b86a0418c5bf7665b6c4b0d097b283779224c947b9c52e78ab9c586c390b7fd2c8df5523afd033a5", "asm": "304402207be8ea96b27b055890dd734184438efd00f8a113d32ca13825c443700ebb18ab02201fc36bae0d4e79391d047ba281ad47c87900d3cf83371540858f857a705ff480[ALL] 045b15b2368044121bf17ea972e68ed369a1663c74e6f66652b86a0418c5bf7665b6c4b0d097b283779224c947b9c52e78ab9c586c390b7fd2c8df5523afd033a5"}, "vout": 0, "txid": "374540d8e2789f5cb850a3bf6beb6d8bd30539ef02cd28a1b25fde36f506257c"}, {"sequence": 4294967294, "scriptSig": {"hex": "47304402204348dd4b1e7fdc2560da5803b8a3e7330e1611e3c839f3a2a2c26224e0974aa8022001cad02c9abd1a0b986af093574afe0d3f01e3be6e5dfa21f0c320c71cd5630d0141045b15b2368044121bf17ea972e68ed369a1663c74e6f66652b86a0418c5bf7665b6c4b0d097b283779224c947b9c52e78ab9c586c390b7fd2c8df5523afd033a5", "asm": "304402204348dd4b1e7fdc2560da5803b8a3e7330e1611e3c839f3a2a2c26224e0974aa8022001cad02c9abd1a0b986af093574afe0d3f01e3be6e5dfa21f0c320c71cd5630d[ALL] 045b15b2368044121bf17ea972e68ed369a1663c74e6f66652b86a0418c5bf7665b6c4b0d097b283779224c947b9c52e78ab9c586c390b7fd2c8df5523afd033a5"}, "vout": 1, "txid": "37945d20b5be66d3fb49aafeee2bc042c99d8c8bda2cd8aa307b60f8b5d8d884"}, {"sequence": 4294967294, "scriptSig": {"hex": "48304502210092cb9e6d53a0e339dc79ead93ded47659d0cefd0d23364ec6339d6ea20abb73d022042811f8e2f61a1babfaaefa9a7be353015ded4800085dcc1f51539e8bc35fad40141045b15b2368044121bf17ea972e68ed369a1663c74e6f66652b86a0418c5bf7665b6c4b0d097b283779224c947b9c52e78ab9c586c390b7fd2c8df5523afd033a5", "asm": "304502210092cb9e6d53a0e339dc79ead93ded47659d0cefd0d23364ec6339d6ea20abb73d022042811f8e2f61a1babfaaefa9a7be353015ded4800085dcc1f51539e8bc35fad4[ALL] 045b15b2368044121bf17ea972e68ed369a1663c74e6f66652b86a0418c5bf7665b6c4b0d097b283779224c947b9c52e78ab9c586c390b7fd2c8df5523afd033a5"}, "vout": 0, "txid": "42112a9de8c9f6b181841c340df2e8c4932cffea46d8f7db7017a2a75b25e7bb"}, {"sequence": 4294967294, "scriptSig": {"hex": "4730440220266a83a6f7c0ffe6c292e28289b278b657b938d8dd993694743908736adbd44b02201518cf36265fe11d76266a81fd38bb689eb7bc83ae4cfcaa70083a4350bb11ea0141045b15b2368044121bf17ea972e68ed369a1663c74e6f66652b86a0418c5bf7665b6c4b0d097b283779224c947b9c52e78ab9c586c390b7fd2c8df5523afd033a5", "asm": "30440220266a83a6f7c0ffe6c292e28289b278b657b938d8dd993694743908736adbd44b02201518cf36265fe11d76266a81fd38bb689eb7bc83ae4cfcaa70083a4350bb11ea[ALL] 045b15b2368044121bf17ea972e68ed369a1663c74e6f66652b86a0418c5bf7665b6c4b0d097b283779224c947b9c52e78ab9c586c390b7fd2c8df5523afd033a5"}, "vout": 1, "txid": "430e35e26a539d7dc5ca795678d53dffad8df0196322ef90b8f9d7cf492efc7f"}, {"sequence": 4294967294, "scriptSig": {"hex": "483045022100c124751fddf8c64cb9e71b32df2fd198cf6aaf30621c1242800ec9ccea717a7702205544525f546637547d8ec43c0c45777099b7c21cf4eee460789cd4bb23ebd15a0141045b15b2368044121bf17ea972e68ed369a1663c74e6f66652b86a0418c5bf7665b6c4b0d097b283779224c947b9c52e78ab9c586c390b7fd2c8df5523afd033a5", "asm": "3045022100c124751fddf8c64cb9e71b32df2fd198cf6aaf30621c1242800ec9ccea717a7702205544525f546637547d8ec43c0c45777099b7c21cf4eee460789cd4bb23ebd15a[ALL] 045b15b2368044121bf17ea972e68ed369a1663c74e6f66652b86a0418c5bf7665b6c4b0d097b283779224c947b9c52e78ab9c586c390b7fd2c8df5523afd033a5"}, "vout": 0, "txid": "47638dcbf4e3a937e66a49a50f8c30c73d7aaec5a66904cfb02eaa14931399aa"}, {"sequence": 4294967294, "scriptSig": {"hex": "47304402203efe7a0d6cf6402e729219f4dce3b0feb60f0a198582bc301a5501f9ec32dfab02200701b56c9b47eb3ba32bcbdbc4886f5a02c3d3cb1589eb4dc13b6ec8ac5497d90141045b15b2368044121bf17ea972e68ed369a1663c74e6f66652b86a0418c5bf7665b6c4b0d097b283779224c947b9c52e78ab9c586c390b7fd2c8df5523afd033a5", "asm": "304402203efe7a0d6cf6402e729219f4dce3b0feb60f0a198582bc301a5501f9ec32dfab02200701b56c9b47eb3ba32bcbdbc4886f5a02c3d3cb1589eb4dc13b6ec8ac5497d9[ALL] 045b15b2368044121bf17ea972e68ed369a1663c74e6f66652b86a0418c5bf7665b6c4b0d097b283779224c947b9c52e78ab9c586c390b7fd2c8df5523afd033a5"}, "vout": 0, "txid": "4bc955d06df048af259d20ffc0c52de79c6adfb5068459f10bc4fbaf7f6e8963"}, {"sequence": 4294967294, "scriptSig": {"hex": "4730440220716550e0534fbbba35a097cf78bdf676c83bf07c76d5edd9daaf6c83d551b92002200f7ac9c0f2f0a90e1702ab283f427db210ea2633ae0ce8590be669ef10627f71014104ff860ba67a58ff6a03b804668aa88de08dadc07a6572d328a29d15307d63e24dc638702a695932c7c8793cd2753d89f088c0f01bc0941b5fddb23666c5ae700c", "asm": "30440220716550e0534fbbba35a097cf78bdf676c83bf07c76d5edd9daaf6c83d551b92002200f7ac9c0f2f0a90e1702ab283f427db210ea2633ae0ce8590be669ef10627f71[ALL] 04ff860ba67a58ff6a03b804668aa88de08dadc07a6572d328a29d15307d63e24dc638702a695932c7c8793cd2753d89f088c0f01bc0941b5fddb23666c5ae700c"}, "vout": 0, "txid": "5bd6e4f4d9a6a06b41f662a5230fac4829ad866174cbbc33e44f864106c2502c"}, {"sequence": 4294967294, "scriptSig": {"hex": "483045022100fa624daae5b2f0e46bacdc18b2335dffa21841828d6fd2387fbc62f7bdac1ee8022050faf5ba58524c2de663ecfe338dfdd3b6f58c012b9f21fbc3e648176b57c09f0141045b15b2368044121bf17ea972e68ed369a1663c74e6f66652b86a0418c5bf7665b6c4b0d097b283779224c947b9c52e78ab9c586c390b7fd2c8df5523afd033a5", "asm": "3045022100fa624daae5b2f0e46bacdc18b2335dffa21841828d6fd2387fbc62f7bdac1ee8022050faf5ba58524c2de663ecfe338dfdd3b6f58c012b9f21fbc3e648176b57c09f[ALL] 045b15b2368044121bf17ea972e68ed369a1663c74e6f66652b86a0418c5bf7665b6c4b0d097b283779224c947b9c52e78ab9c586c390b7fd2c8df5523afd033a5"}, "vout": 0, "txid": "6a5cb18e4d5e9d87e006ed1ddad67980b48fa36373e8deb318a3f1e1f0575796"}, {"sequence": 4294967294, "scriptSig": {"hex": "483045022100af71d66fd94467046a6979465e71e283755ba83349bdc429a925351c0476982c02204f189ef0378b18e923e13d4ed9db1d929c5b6e39de48a509652ce178d864e8ee014104c7bef786093720178dda51dd3a136be15a6ad0085cb2b99a37537d90dd1d3a55ec1215b7127348482ceba8bd51eee92e2160af0b2dea8dae1e52eaa8b9dcdb41", "asm": "3045022100af71d66fd94467046a6979465e71e283755ba83349bdc429a925351c0476982c02204f189ef0378b18e923e13d4ed9db1d929c5b6e39de48a509652ce178d864e8ee[ALL] 04c7bef786093720178dda51dd3a136be15a6ad0085cb2b99a37537d90dd1d3a55ec1215b7127348482ceba8bd51eee92e2160af0b2dea8dae1e52eaa8b9dcdb41"}, "vout": 0, "txid": "6cfb74a4c2abdb0dcc0ef725136484f45a4d27c735a18c1e5f44098b867c022b"}, {"sequence": 4294967294, "scriptSig": {"hex": "4730440220571ac6e829acfa021dfc6abad07874d467571166ca3a2b3646a6b2a1a907b4ab02201478215a8bca165e9bfc45cf29bfc308b1107e7d8a83f1efed7f6e361d8675690141045b15b2368044121bf17ea972e68ed369a1663c74e6f66652b86a0418c5bf7665b6c4b0d097b283779224c947b9c52e78ab9c586c390b7fd2c8df5523afd033a5", "asm": "30440220571ac6e829acfa021dfc6abad07874d467571166ca3a2b3646a6b2a1a907b4ab02201478215a8bca165e9bfc45cf29bfc308b1107e7d8a83f1efed7f6e361d867569[ALL] 045b15b2368044121bf17ea972e68ed369a1663c74e6f66652b86a0418c5bf7665b6c4b0d097b283779224c947b9c52e78ab9c586c390b7fd2c8df5523afd033a5"}, "vout": 1, "txid": "6fd3658a67e308d0890333c7714e8ea5a8ec4a84b74fc494c08ab0d11272a1ad"}, {"sequence": 4294967294, "scriptSig": {"hex": "483045022100b408ea263048077d0464dfc495eb9ae211c5fd805403109910e92308cc71212602205145e8dc9914aac395a98a5d11e471c96a23321a773c5aff8bd7fce5d6a099100141045b15b2368044121bf17ea972e68ed369a1663c74e6f66652b86a0418c5bf7665b6c4b0d097b283779224c947b9c52e78ab9c586c390b7fd2c8df5523afd033a5", "asm": "3045022100b408ea263048077d0464dfc495eb9ae211c5fd805403109910e92308cc71212602205145e8dc9914aac395a98a5d11e471c96a23321a773c5aff8bd7fce5d6a09910[ALL] 045b15b2368044121bf17ea972e68ed369a1663c74e6f66652b86a0418c5bf7665b6c4b0d097b283779224c947b9c52e78ab9c586c390b7fd2c8df5523afd033a5"}, "vout": 1, "txid": "7b5cfb9e012210ee89b8a1c83c8ae1dbaa970afacd9f0ca0453b8100c0aa4d3a"}, {"sequence": 4294967294, "scriptSig": {"hex": "473044022041fe9a7c78dc4da592c1e39ed3adc27410ddcd72da4a184ccf727bc936f1b48702207d476cbdb0d689992cec16f3c38ce37c447d02fec04c08603b7aa1317a0cd7a30141045b15b2368044121bf17ea972e68ed369a1663c74e6f66652b86a0418c5bf7665b6c4b0d097b283779224c947b9c52e78ab9c586c390b7fd2c8df5523afd033a5", "asm": "3044022041fe9a7c78dc4da592c1e39ed3adc27410ddcd72da4a184ccf727bc936f1b48702207d476cbdb0d689992cec16f3c38ce37c447d02fec04c08603b7aa1317a0cd7a3[ALL] 045b15b2368044121bf17ea972e68ed369a1663c74e6f66652b86a0418c5bf7665b6c4b0d097b283779224c947b9c52e78ab9c586c390b7fd2c8df5523afd033a5"}, "vout": 0, "txid": "8f5e06431ba42967bbb344f279e91a7fbf781a706a38df2741bf10d9ba718878"}, {"sequence": 4294967294, "scriptSig": {"hex": "483045022100b06c4cb2b55f8967b4c9a42cb36182e5c47f24be37d630709f3d1d3611c2640c02203d4f85fe19ab9b00eaff9ce00fd2b7d673a7258c880c6e6dce921779a3acfac50141045b15b2368044121bf17ea972e68ed369a1663c74e6f66652b86a0418c5bf7665b6c4b0d097b283779224c947b9c52e78ab9c586c390b7fd2c8df5523afd033a5", "asm": "3045022100b06c4cb2b55f8967b4c9a42cb36182e5c47f24be37d630709f3d1d3611c2640c02203d4f85fe19ab9b00eaff9ce00fd2b7d673a7258c880c6e6dce921779a3acfac5[ALL] 045b15b2368044121bf17ea972e68ed369a1663c74e6f66652b86a0418c5bf7665b6c4b0d097b283779224c947b9c52e78ab9c586c390b7fd2c8df5523afd033a5"}, "vout": 0, "txid": "930fdb213982310c22c052864ede10401a2f34f31196ed707e3b48ab48bf81d0"}, {"sequence": 4294967294, "scriptSig": {"hex": "48304502210085c94bd0017351777277bd45eef11e28c5c5c4827769a1a692e883bb051cdd56022060c0716ca9f9465a0fff888465f9d3b07e3acbcb3a45fdcf9f47827e4af2eab80141045b15b2368044121bf17ea972e68ed369a1663c74e6f66652b86a0418c5bf7665b6c4b0d097b283779224c947b9c52e78ab9c586c390b7fd2c8df5523afd033a5", "asm": "304502210085c94bd0017351777277bd45eef11e28c5c5c4827769a1a692e883bb051cdd56022060c0716ca9f9465a0fff888465f9d3b07e3acbcb3a45fdcf9f47827e4af2eab8[ALL] 045b15b2368044121bf17ea972e68ed369a1663c74e6f66652b86a0418c5bf7665b6c4b0d097b283779224c947b9c52e78ab9c586c390b7fd2c8df5523afd033a5"}, "vout": 1, "txid": "97030625b840f73e2ee8de1213ba17b1e7c2ae850776412da5b162c24f400e21"}, {"sequence": 4294967294, "scriptSig": {"hex": "4730440220097d27087340348b58fc6fc79c87e19dde38d8f080fa742179674f01cb37d5e2022004141a2a50f2b70175b8a1fcfa779473e94e0a8ae0a15c3e26f48336ffccfda00141045b15b2368044121bf17ea972e68ed369a1663c74e6f66652b86a0418c5bf7665b6c4b0d097b283779224c947b9c52e78ab9c586c390b7fd2c8df5523afd033a5", "asm": "30440220097d27087340348b58fc6fc79c87e19dde38d8f080fa742179674f01cb37d5e2022004141a2a50f2b70175b8a1fcfa779473e94e0a8ae0a15c3e26f48336ffccfda0[ALL] 045b15b2368044121bf17ea972e68ed369a1663c74e6f66652b86a0418c5bf7665b6c4b0d097b283779224c947b9c52e78ab9c586c390b7fd2c8df5523afd033a5"}, "vout": 1, "txid": "a5c937745bc5e36aca657766ef7b29046b605f16fc8b55b7587b845ef518ed96"}, {"sequence": 4294967294, "scriptSig": {"hex": "483045022100d035628edfaf1390f4be908742f8fe0ca59430b29c7aa78fc733576aa0cf1e820220175d216b8fd5deebbe55efdfe629e0e4440bf96a5e75ea8c4d2ed905498758b50141045b15b2368044121bf17ea972e68ed369a1663c74e6f66652b86a0418c5bf7665b6c4b0d097b283779224c947b9c52e78ab9c586c390b7fd2c8df5523afd033a5", "asm": "3045022100d035628edfaf1390f4be908742f8fe0ca59430b29c7aa78fc733576aa0cf1e820220175d216b8fd5deebbe55efdfe629e0e4440bf96a5e75ea8c4d2ed905498758b5[ALL] 045b15b2368044121bf17ea972e68ed369a1663c74e6f66652b86a0418c5bf7665b6c4b0d097b283779224c947b9c52e78ab9c586c390b7fd2c8df5523afd033a5"}, "vout": 0, "txid": "b693f7b970fbe276ca66f9dc675e97e5053c74b10bc3c38335cb5e40470df107"}, {"sequence": 4294967294, "scriptSig": {"hex": "4730440220485d043fdafe675f7d75fd27f334780d3ae176eb4c957ffec6c0c1b6682465bb022003bdba8f018b758ce0e88a7d3e8e277843985d06d13bfa43809c6696e5069e9c0141045b15b2368044121bf17ea972e68ed369a1663c74e6f66652b86a0418c5bf7665b6c4b0d097b283779224c947b9c52e78ab9c586c390b7fd2c8df5523afd033a5", "asm": "30440220485d043fdafe675f7d75fd27f334780d3ae176eb4c957ffec6c0c1b6682465bb022003bdba8f018b758ce0e88a7d3e8e277843985d06d13bfa43809c6696e5069e9c[ALL] 045b15b2368044121bf17ea972e68ed369a1663c74e6f66652b86a0418c5bf7665b6c4b0d097b283779224c947b9c52e78ab9c586c390b7fd2c8df5523afd033a5"}, "vout": 0, "txid": "c33c47366e29364876af08f720220b36009397019db47b84f64bba0a81608862"}, {"sequence": 4294967294, "scriptSig": {"hex": "483045022100de2171f36ab471df45d96346760476e2a60354817f0e077a67f9f281cd30893d022049bc060277153f9019b070c4eb6989036675c435192f517e58113d0132f253c30141045b15b2368044121bf17ea972e68ed369a1663c74e6f66652b86a0418c5bf7665b6c4b0d097b283779224c947b9c52e78ab9c586c390b7fd2c8df5523afd033a5", "asm": "3045022100de2171f36ab471df45d96346760476e2a60354817f0e077a67f9f281cd30893d022049bc060277153f9019b070c4eb6989036675c435192f517e58113d0132f253c3[ALL] 045b15b2368044121bf17ea972e68ed369a1663c74e6f66652b86a0418c5bf7665b6c4b0d097b283779224c947b9c52e78ab9c586c390b7fd2c8df5523afd033a5"}, "vout": 1, "txid": "ca877e20fd93079cf4d665af049dca89439fb6152d7a1cb1659d93a8508429da"}, {"sequence": 4294967294, "scriptSig": {"hex": "473044022042a89f67f015516e241d42a4ef45e9764482b861de6ad9222f7d77844fe53dbc02202b69b6e1e8330c3050d04e27acf89ec6b53463f29b235a00f2f0b5d2681fe052014104b54290bbc91cd418c682e26c49b8485b2ed4e31b72a020d26c7ab29540a943a7038b67aedf4bd1a6672e732d6f3e4c96989849b42a6f83cc0a64445309eaa763", "asm": "3044022042a89f67f015516e241d42a4ef45e9764482b861de6ad9222f7d77844fe53dbc02202b69b6e1e8330c3050d04e27acf89ec6b53463f29b235a00f2f0b5d2681fe052[ALL] 04b54290bbc91cd418c682e26c49b8485b2ed4e31b72a020d26c7ab29540a943a7038b67aedf4bd1a6672e732d6f3e4c96989849b42a6f83cc0a64445309eaa763"}, "vout": 0, "txid": "e5efcdf6bee26ac1ad7c05c2442332236c98dd6d0cd1fea710e7298e71864ecd"}, {"sequence": 4294967294, "scriptSig": {"hex": "483045022100bf1e42a4b35f17b0fbd457fad0207225fd3a8ea2b28af1a2a4bf37a32bdc48600220041f1ae93f561a65a66909b1e0df5f9825c0067ee5d683d848d29ee5d145e31d0141045b15b2368044121bf17ea972e68ed369a1663c74e6f66652b86a0418c5bf7665b6c4b0d097b283779224c947b9c52e78ab9c586c390b7fd2c8df5523afd033a5", "asm": "3045022100bf1e42a4b35f17b0fbd457fad0207225fd3a8ea2b28af1a2a4bf37a32bdc48600220041f1ae93f561a65a66909b1e0df5f9825c0067ee5d683d848d29ee5d145e31d[ALL] 045b15b2368044121bf17ea972e68ed369a1663c74e6f66652b86a0418c5bf7665b6c4b0d097b283779224c947b9c52e78ab9c586c390b7fd2c8df5523afd033a5"}, "vout": 0, "txid": "e632faa2f9e534f0d94786afd27c11be7d95f8a1dcb328990923aa1302196a74"}, {"sequence": 4294967294, "scriptSig": {"hex": "483045022100cd2a0e76325a3497c309ef35c8bd40f188ab883f07b3c3653412a96b92a29e340220358376726a381eed180abe5b8418e673e2f2807a1dd44170cc747eac4ad2b8500141045b15b2368044121bf17ea972e68ed369a1663c74e6f66652b86a0418c5bf7665b6c4b0d097b283779224c947b9c52e78ab9c586c390b7fd2c8df5523afd033a5", "asm": "3045022100cd2a0e76325a3497c309ef35c8bd40f188ab883f07b3c3653412a96b92a29e340220358376726a381eed180abe5b8418e673e2f2807a1dd44170cc747eac4ad2b850[ALL] 045b15b2368044121bf17ea972e68ed369a1663c74e6f66652b86a0418c5bf7665b6c4b0d097b283779224c947b9c52e78ab9c586c390b7fd2c8df5523afd033a5"}, "vout": 0, "txid": "e9888543f9b64701b04bfd0ff91dcb801c7771cf767027737e8c012f0e154041"}, {"sequence": 4294967294, "scriptSig": {"hex": "48304502210092f6913185e0e643352046eaaf200130308d5d83f23a4d69e368fd797f111c9b02205cd0cd1e03d72bbfdee9080fcc335602b7f7b5aaa23a36eefc0a2796b26358010141045b15b2368044121bf17ea972e68ed369a1663c74e6f66652b86a0418c5bf7665b6c4b0d097b283779224c947b9c52e78ab9c586c390b7fd2c8df5523afd033a5", "asm": "304502210092f6913185e0e643352046eaaf200130308d5d83f23a4d69e368fd797f111c9b02205cd0cd1e03d72bbfdee9080fcc335602b7f7b5aaa23a36eefc0a2796b2635801[ALL] 045b15b2368044121bf17ea972e68ed369a1663c74e6f66652b86a0418c5bf7665b6c4b0d097b283779224c947b9c52e78ab9c586c390b7fd2c8df5523afd033a5"}, "vout": 0, "txid": "ed63a87edb82ad9fe927bcb1fed20ef997c0587511254bf774c99a2175d976e7"}, {"sequence": 4294967294, "scriptSig": {"hex": "473044022052052f90a4d79683b6a8107105e92079ec0226f211552e29d0eb5755b341d89a02206f79c0b3c02281d13343eb14345e07bbbe90bd7723b90d1583b8c78cfad300810141045b15b2368044121bf17ea972e68ed369a1663c74e6f66652b86a0418c5bf7665b6c4b0d097b283779224c947b9c52e78ab9c586c390b7fd2c8df5523afd033a5", "asm": "3044022052052f90a4d79683b6a8107105e92079ec0226f211552e29d0eb5755b341d89a02206f79c0b3c02281d13343eb14345e07bbbe90bd7723b90d1583b8c78cfad30081[ALL] 045b15b2368044121bf17ea972e68ed369a1663c74e6f66652b86a0418c5bf7665b6c4b0d097b283779224c947b9c52e78ab9c586c390b7fd2c8df5523afd033a5"}, "vout": 1, "txid": "f073b4e8f0c95dd125616742b174056f564295443274fe69393e14951a898976"}, {"sequence": 4294967294, "scriptSig": {"hex": "483045022100a1a92130ca1e60f9e7e1806c791954fb17431429042d0c9f1545186f053b7c30022004eb6a17e58c3ad86bd1713f950b6b72e16db9693b53b8c2b9b7cd98ac88093f0141045b15b2368044121bf17ea972e68ed369a1663c74e6f66652b86a0418c5bf7665b6c4b0d097b283779224c947b9c52e78ab9c586c390b7fd2c8df5523afd033a5", "asm": "3045022100a1a92130ca1e60f9e7e1806c791954fb17431429042d0c9f1545186f053b7c30022004eb6a17e58c3ad86bd1713f950b6b72e16db9693b53b8c2b9b7cd98ac88093f[ALL] 045b15b2368044121bf17ea972e68ed369a1663c74e6f66652b86a0418c5bf7665b6c4b0d097b283779224c947b9c52e78ab9c586c390b7fd2c8df5523afd033a5"}, "vout": 0, "txid": "f5bfacd0c8064610302c1b3fa022279cdd48a73bf1ec2f492d9785a6dfd58329"}], "txid": "bf48dc82f98649547611580d5607e65a6d1b76bc566dfd1498e8196a934f9bd7", "blocktime": 1537873891, "version": 1, "confirmations": 11478, "time": 1537873891, "locktime": 542996, "vsize": 4924, "size": 4924}