{"hash": "5a88d5cfe74a8254e7f8e013281e77d8b088a0c34930c3e834c9338c0b2c0bb2", "blockhash": "0000000000000000001f76057863aec43deb6fa401d9628bb513d65a8098bfab", "vout": [{"scriptPubKey": {"reqSigs": 1, "hex": "76a9146311e4b323b2f89408f5577e09f77bcc0cfbadbb88ac", "addresses": ["1A2qLF8JznaFFKEBLQUE3saA6yd81Nujaa"], "asm": "OP_DUP OP_HASH160 6311e4b323b2f89408f5577e09f77bcc0cfbadbb OP_EQUALVERIFY OP_CHECKSIG", "type": "pubkeyhash"}, "value": 0.019937, "n": 0}, {"scriptPubKey": {"reqSigs": 1, "hex": "a914be560680c61d269a00ad03d9ea5dbcc13c40d88487", "addresses": ["3K3RN99XJ2nB9EH9eRaswkwc1tZeAgFJ4Y"], "asm": "OP_HASH160 be560680c61d269a00ad03d9ea5dbcc13c40d884 OP_EQUAL", "type": "scripthash"}, "value": 0.01383413, "n": 1}], "hex": "0200000000010280de41226964f62129ff3a9f0ec84d72e52950439462f592ba9d59cdb387ad0901000000171600149e25734d5205b21e5ad101cda7db4081b15daa98feffffffb9fb87c15161f65fa9c113b47e2412abffb0ef85389f626d519ec3c587a63cd90000000017160014f4c36fd30d96288ba3416c71ee0ad1cc90137c9efeffffff02e46b1e00000000001976a9146311e4b323b2f89408f5577e09f77bcc0cfbadbb88acf51b15000000000017a914be560680c61d269a00ad03d9ea5dbcc13c40d884870247304402202ab21630be12b255d1fb329f750051f85151a091a6425b5487f502b7ac5e6a68022010771c6fc4dfcc3612f8852d375fb09a8ce7c3adfe0d5f15e7d94731d18318ba01210268e77852b8d1477d8307fadc1c38c9e823ea173e612e388e868acf0689c0d89602473044022003fb012c9f8ebba8f59332b706c3608c542238780cbb70c89474aa9b49c2cae40220650200f322a21f45b2e071a640bbf50d7344973f04edc57a32215963849d9e8901210358f88cabb258270519c955bc3ad5d8856e030752ae9c2ea5fd168236b070932014490800", "vin": [{"txinwitness": ["304402202ab21630be12b255d1fb329f750051f85151a091a6425b5487f502b7ac5e6a68022010771c6fc4dfcc3612f8852d375fb09a8ce7c3adfe0d5f15e7d94731d18318ba01", "0268e77852b8d1477d8307fadc1c38c9e823ea173e612e388e868acf0689c0d896"], "sequence": 4294967294, "scriptSig": {"hex": "1600149e25734d5205b21e5ad101cda7db4081b15daa98", "asm": "00149e25734d5205b21e5ad101cda7db4081b15daa98"}, "vout": 1, "txid": "09ad87b3cd599dba92f56294435029e5724dc80e9f3aff2921f664692241de80"}, {"txinwitness": ["3044022003fb012c9f8ebba8f59332b706c3608c542238780cbb70c89474aa9b49c2cae40220650200f322a21f45b2e071a640bbf50d7344973f04edc57a32215963849d9e8901", "0358f88cabb258270519c955bc3ad5d8856e030752ae9c2ea5fd168236b0709320"], "sequence": 4294967294, "scriptSig": {"hex": "160014f4c36fd30d96288ba3416c71ee0ad1cc90137c9e", "asm": "0014f4c36fd30d96288ba3416c71ee0ad1cc90137c9e"}, "vout": 0, "txid": "d93ca687c5c39e516d629f3885efb0ffab12247eb413c1a95ff66151c187fbb9"}], "txid": "bf4c93353fecd85ef39b26b19be12518c803356b4590fd3694d9f8b5dddb7168", "blocktime": 1537873891, "version": 2, "confirmations": 11478, "time": 1537873891, "locktime": 542996, "vsize": 258, "size": 420}