{"hash": "bf53b37c3456eb20c285910ac7a66c418eb201f091f23024ae27dd91a6feeb68", "blockhash": "0000000000000000000baef3f32e3676a92c3b2e5da21b426e4f302fc371ce76", "vout": [{"scriptPubKey": {"reqSigs": 1, "hex": "76a9145c206c6586caafb5e6eceb4dacd8e0e4210ee83e88ac", "addresses": ["19Q81U7MFkTwVdJHpyTF3hQBFh73uAKe2f"], "asm": "OP_DUP OP_HASH160 5c206c6586caafb5e6eceb4dacd8e0e4210ee83e OP_EQUALVERIFY OP_CHECKSIG", "type": "pubkeyhash"}, "value": 0.0005164, "n": 0}, {"scriptPubKey": {"type": "nulldata", "hex": "6a4c50000078090001756e9055158710ed1e56872f702940d64fa54d8eb2d19ed074892d00f8e82891cbcec963af73f0968bf457b2138e5baa1b000613a7cfec05b038bc9a9526289ac0f6612cd74e33776ee4", "asm": "OP_RETURN 000078090001756e9055158710ed1e56872f702940d64fa54d8eb2d19ed074892d00f8e82891cbcec963af73f0968bf457b2138e5baa1b000613a7cfec05b038bc9a9526289ac0f6612cd74e33776ee4"}, "value": 0.0, "n": 1}], "hex": "010000000102211f55dc645b4c503a5556f34693a025a08b4afc5fc23ac68eec8f2cb566d3010000006b483045022100bc42e7d2c355ffe735090a748de6611f3b39e2ab2c7d0096714a491ba7c0699f022019692555b7f0e13d498483417c625471609e5c3d4e7ecc797d0c2fee7c064b5f0121023384117ba45a6bb3b733e279b20deb168781ade372ef9d80b85fd1569e30573bffffffff02b8c90000000000001976a9145c206c6586caafb5e6eceb4dacd8e0e4210ee83e88ac0000000000000000536a4c50000078090001756e9055158710ed1e56872f702940d64fa54d8eb2d19ed074892d00f8e82891cbcec963af73f0968bf457b2138e5baa1b000613a7cfec05b038bc9a9526289ac0f6612cd74e33776ee400000000", "vin": [{"sequence": 4294967295, "scriptSig": {"hex": "483045022100bc42e7d2c355ffe735090a748de6611f3b39e2ab2c7d0096714a491ba7c0699f022019692555b7f0e13d498483417c625471609e5c3d4e7ecc797d0c2fee7c064b5f0121023384117ba45a6bb3b733e279b20deb168781ade372ef9d80b85fd1569e30573b", "asm": "3045022100bc42e7d2c355ffe735090a748de6611f3b39e2ab2c7d0096714a491ba7c0699f022019692555b7f0e13d498483417c625471609e5c3d4e7ecc797d0c2fee7c064b5f[ALL] 023384117ba45a6bb3b733e279b20deb168781ade372ef9d80b85fd1569e30573b"}, "vout": 1, "txid": "d366b52c8fec8ec63ac25ffc4a8ba025a09346f356553a504c5b64dc551f2102"}], "txid": "bf53b37c3456eb20c285910ac7a66c418eb201f091f23024ae27dd91a6feeb68", "blocktime": 1537876114, "version": 1, "confirmations": 11460, "time": 1537876114, "locktime": 0, "vsize": 284, "size": 284}