{"hash": "bf57f48ad32168edd8fddb7532c535e78d6f138b2e20281dc014f9c84d69ca74", "blockhash": "00000000000000000018f53835495a110e01622372bf6ae95dc86f2b0ab887b0", "vout": [{"scriptPubKey": {"reqSigs": 1, "hex": "a91484f9db4f779e507318088969ff78c7b074e1624587", "addresses": ["3Dp8SDFChoGA7RcR1hfsbMeZ4Pwtde84qQ"], "asm": "OP_HASH160 84f9db4f779e507318088969ff78c7b074e16245 OP_EQUAL", "type": "scripthash"}, "value": 0.00921805, "n": 0}], "hex": "0100000001d8878ae0f136ca2fc65d3f443c515e29029095d235880e85c1a8ca76bc82e944010000006b48304502210090cd18b3cc993914ead3574065a1f79ebcd67cb28be57c8376afefc697cf0826022012d627faeb263a304df8b25808a728dd358bdc52818b4d2aa04817c85593dc24012102f44c60991a281337493e5bb817524f8d2bde9eff17c761dbc170ce7953391dc9ffffffff01cd100e000000000017a91484f9db4f779e507318088969ff78c7b074e162458700000000", "vin": [{"sequence": 4294967295, "scriptSig": {"hex": "48304502210090cd18b3cc993914ead3574065a1f79ebcd67cb28be57c8376afefc697cf0826022012d627faeb263a304df8b25808a728dd358bdc52818b4d2aa04817c85593dc24012102f44c60991a281337493e5bb817524f8d2bde9eff17c761dbc170ce7953391dc9", "asm": "304502210090cd18b3cc993914ead3574065a1f79ebcd67cb28be57c8376afefc697cf0826022012d627faeb263a304df8b25808a728dd358bdc52818b4d2aa04817c85593dc24[ALL] 02f44c60991a281337493e5bb817524f8d2bde9eff17c761dbc170ce7953391dc9"}, "vout": 1, "txid": "44e982bc76caa8c1850e8835d2959002295e513c443f5dc62fca36f1e08a87d8"}], "txid": "bf57f48ad32168edd8fddb7532c535e78d6f138b2e20281dc014f9c84d69ca74", "blocktime": 1537870928, "version": 1, "confirmations": 11512, "time": 1537870928, "locktime": 0, "vsize": 190, "size": 190}