{"hash": "1d07948efdcad06b0f4b04de8c22268e99a37fad21a557f8325ce2be3e441936", "blockhash": "0000000000000000001cda96e906b7601b7a6fb1a3b62bca570a9e5d8f4b3de1", "vout": [{"scriptPubKey": {"reqSigs": 1, "hex": "a91481e7cef72271cf40034b2f313b564a1427b6e09887", "addresses": ["3DXtnd9B18XpexFLHsgufVmk3qFLsMqHgm"], "asm": "OP_HASH160 81e7cef72271cf40034b2f313b564a1427b6e098 OP_EQUAL", "type": "scripthash"}, "value": 0.005, "n": 0}, {"scriptPubKey": {"reqSigs": 1, "hex": "76a9145033b2648a2b29bd03369f8a109f43762f03050488ac", "addresses": ["18K4zJmRJ2GLXfWDEeQTp3G6d9MM7ahADY"], "asm": "OP_DUP OP_HASH160 5033b2648a2b29bd03369f8a109f43762f030504 OP_EQUALVERIFY OP_CHECKSIG", "type": "pubkeyhash"}, "value": 0.00160929, "n": 1}, {"scriptPubKey": {"reqSigs": 1, "hex": "a914bbe11723d674dfb97b266a24968c331575f7353787", "addresses": ["3JpRvyFDcpzQD8xmjypkxDxjHrjHB1ksci"], "asm": "OP_HASH160 bbe11723d674dfb97b266a24968c331575f73537 OP_EQUAL", "type": "scripthash"}, "value": 0.1177, "n": 2}, {"scriptPubKey": {"reqSigs": 1, "hex": "76a914b3b67524685f9e383fd3a47739b018b245fc1ba988ac", "addresses": ["1HPEXiMcd9nDE2buFeTVkN6oDQVbPuQkpr"], "asm": "OP_DUP OP_HASH160 b3b67524685f9e383fd3a47739b018b245fc1ba9 OP_EQUALVERIFY OP_CHECKSIG", "type": "pubkeyhash"}, "value": 0.0431, "n": 3}, {"scriptPubKey": {"reqSigs": 1, "hex": "a91409c2caedee8eaa7c6f3e2cadf03fe3c5097b715c87", "addresses": ["32adMhmtVLaJTEN8tPZSWB1mRWJaJiVsU8"], "asm": "OP_HASH160 09c2caedee8eaa7c6f3e2cadf03fe3c5097b715c OP_EQUAL", "type": "scripthash"}, "value": 0.03, "n": 4}, {"scriptPubKey": {"reqSigs": 1, "hex": "a9149593e2f0a9a78feab8f5a4d38c5ba5d04925690887", "addresses": ["3FKumTcHuhre2Yw958SSErGbdD2wPiCZzq"], "asm": "OP_HASH160 9593e2f0a9a78feab8f5a4d38c5ba5d049256908 OP_EQUAL", "type": "scripthash"}, "value": 0.00367237, "n": 5}, {"scriptPubKey": {"reqSigs": 1, "hex": "a914c2d8265d27b1f72c42b39fc01b36900c3191968187", "addresses": ["3KTFx7auRNexwnHbow7QYpgvvgQoEmssRX"], "asm": "OP_HASH160 c2d8265d27b1f72c42b39fc01b36900c31919681 OP_EQUAL", "type": "scripthash"}, "value": 0.02614602, "n": 6}, {"scriptPubKey": {"reqSigs": 1, "hex": "a914ea645e5e20987adfaa9d5fa4a915d008965f102387", "addresses": ["3P4NHAbib3uvj6QNYmPWqEJMZnx4HzszTp"], "asm": "OP_HASH160 ea645e5e20987adfaa9d5fa4a915d008965f1023 OP_EQUAL", "type": "scripthash"}, "value": 0.0105941, "n": 7}], "hex": "0200000000011162427f0ba53ec60b32f2fdfb2d8fcff9ea05486d9e0a8d9399ed51ad6faa8e71270000001716001435a29e8fac1ebfcfb80548faed016f6835c24033ffffffff2a5cbb2a38a0a056ed4f68817e525c2b99237ee34c27156790aa1515fa695aa8190000001716001417cd6f4ea0a26d46b9e7a17b859cb5d2e06decd3ffffffff65d712a76815f022f1dc516a7d9c2b531797902432987260c9f3259cb48f0f8407000000171600149825bb515f65b097725ee2447d149de03d9f372bffffffff2b5758b3e4b53802193adecf1a76f6f62648dd8ff839cfef422f14dca68c1d5b000000001716001498373823355ce07cd478ed0794c92a4fa6ad24a9ffffffff0298ddc82de2994e35b2c3798d6def66daffb1ffe0f9743a31c7dc0a5df9b88900000000171600144cf13c40da0f998d83a990329367882665b19689ffffffff91dac31cfedddad48c86b374a8c385c9b9b020d592cb4f15040f948dfdfe806a01000000171600140f19a2d87c2294f3467227ec3d77e2d089b050e7ffffffffc2d7c88e4a531ee7f22eca3471410802bea0a9c7df1b75f69f6c6dac5e0ccc29000000001716001412ca887272630b8e6ead6a5c9938ef975e14c6b0ffffffff65d712a76815f022f1dc516a7d9c2b531797902432987260c9f3259cb48f0f8423000000171600142c8ca3693dc9b6fc5dd03f6133f1c19e6d20de04ffffffff727430b31c6637e7744b8c0343abf787209a1bf89311974bc37d9c03cd6f366f350000001716001470931459d16eac530d2aca2dc9abee782b654b0affffffff795d394f09ea541e9dbc76b74b9781e33a99c89f25c83a64ec1f85326a2ee1c5060000001716001410808f7dbe204d7001963b0c1bc04b8f541b3172ffffffffe8862eb32bdf1711bf26cca9d03f27aceea72a56926e0988ce412984eadd4262000000001716001499f529fbea8c1910e3444fabefded1a600b06fa7ffffffff20008243d7d9662bd1cbafcd1343a6cce8d0f6ff701362e500d623da86e35d9d01000000171600142767162ab05c0b31357c7723c3b984f16c313c8cffffffff64e2e44cf4c6347396dd9e7c48314987c3e81b4fdc5ec73ee8ac281c73305ee301000000171600142767162ab05c0b31357c7723c3b984f16c313c8cffffffff940f8d53bc86839f6b4a4669c26c95f64d5813c9fc544ad17c07265b809eccb108000000171600142767162ab05c0b31357c7723c3b984f16c313c8cffffffff4f84d98e0509969aa42744dea6d278874bbbedb3d9c47898fa7651d693937e01090000001716001437b1596d50895159cd5b29710345908af309277affffffffb93add744a503ae7c31ed5caaf8771836e3f463f535341443a4eb0270ca47f5802000000171600142767162ab05c0b31357c7723c3b984f16c313c8cfffffffff4a01f5390dfa96666325f00d1ce5aa6b689c20e157050ae9b3abde4dd3c39481f00000017160014af7f381baff0836abb3005ef51f12d1ff7514727ffffffff0820a107000000000017a91481e7cef72271cf40034b2f313b564a1427b6e09887a1740200000000001976a9145033b2648a2b29bd03369f8a109f43762f03050488ac9098b3000000000017a914bbe11723d674dfb97b266a24968c331575f7353787f0c34100000000001976a914b3b67524685f9e383fd3a47739b018b245fc1ba988acc0c62d000000000017a91409c2caedee8eaa7c6f3e2cadf03fe3c5097b715c87859a05000000000017a9149593e2f0a9a78feab8f5a4d38c5ba5d049256908874ae527000000000017a914c2d8265d27b1f72c42b39fc01b36900c3191968187522a10000000000017a914ea645e5e20987adfaa9d5fa4a915d008965f1023870247304402203a43d4e8bd4e1ff62a95e86d959ffa54795527bdf0ced800e208ba9372d3b15e02207d44695313661ac1ec6fbf0ded4d9433f9bfc0a597ee29d08e1ef7d9686a4e5d012103d404c79c15aa6e1a95e74d6d2d72bbfb7e73a70367ecd8278647ab27b7c1867d0247304402204dcbdbe508b3d57f812e69d62399146b50b9a6d8bffe3fa2331adde9d5f685ae0220794eccccabae925a1c266a6c607067708b24003472a09275cadcf8a73a76a95d0121030ed3779e33407bb6563f9db45653d2d71a3887be060fbb35ac0ebc2d8990a0f302483045022100f67d31f72184e1301118de860b2ccd28edb03fd86259dd02b2973b1ae5b368e6022028ee811802ccbfb009ddce1bc56d61604767a41ffa0c46a01cdfa27814ede83d012103a370cc56a12735d723eda1634bb73c903d696df66a3fce53bfbfbb5cea5dc07002483045022100c955b3da8f5f2d6182eca7fbb12371a188404d4d8ebe3642b9a661e065145bef02206cd58e051863b1c08b2d2ef26f75cc8ad94f468153bc5eb3908c47b2306647370121022a318782c63dd535f6923bbf8e64d996625d94348d3599614044f33357f81e8602483045022100f1b830148b14d533081a6f1cb57bfd13cbda6fa174cc4c86bdacda48e981464f0220526bc7000b86ca8c15c6a0073f3974c12cf5650f61b3f4179c2bbc594b1dfdf7012102578510739ec04d099bb60ca887d3cfe301c518c91f1a3e973b8bdc64d5ee65890247304402207bcfb18fbf730b1c1697fb288993c3af5368553bda7e507364cc56560a41f88f02202f1b585b8b0750119dcf24966ab6bc30a18c0b9e598dd73137af9e5a435902fc01210322f1877640176adf6acd16112ec2f345414f5cc4e232a441f405da1fa7cd345c02483045022100c27c1c1cd18ea27bc5995006b81b7e39228ddf03b7f085f8e9c32efd1ca4716f02204e7761b6e851186593292f9f262105682db506c7ad3f2d26b7089cee64177aef012102e9aafdb28f3c294428c392e4f28c20e761611c3494b9c76439161419863f422d02483045022100ddfd6ec403e8986b105a1c82d0990803348ac89549c452b3305ad489e58f561502202440bfa4bdf028668e07322ffa84d835382b0ee3e2308b342bdf7a0e338be54e012102dc37fe6278c0c56cf9a72ac94b52c913d80b4a6f70a5f96c2762d18b6fd51c16024730440220561fe7b51fcad2e446afad7c8a889933ececc01a9d49058639529857ac46919602203ebb469254f372952b9fa5ffe0113586ae043a6f906d7f9a8f59ba826c7cfa7801210202ca6fcabac376034f432b05cd2bd68761b4e45734ab7b6bb2d092193d93fb4002473044022025735b701529103b3f36282970f78af30ff5437c6710875e9176ebbc4b939b9d022003317bd61cdf59c18e7735b4d03f21ce637804950fad4c88837e359dbe1f8a2e0121024df3c4e3583a24bb33a9a85aceb876c0c80b5cdf6a6137e78a96116d065255fb024830450221009155ccbb9ce28267b830bc9d8246f48f048d19891e1e3f1e7d3e6ac58edeb677022064b96d0220d304aae736fa6c8258edfc93f3a9dafb4ee22b86692103a594880401210352599c9c4d93ed00b64c2ae0ab9aec0b1de940ce2006fcf7a2c4704c34a5f42202483045022100f599dd4ee8f2b8e2e90b31fe3a0dbd6e15634eea02b08a61d9487c64ce54764d02200cc9ab16965dd326e33707a57b26f823a5334d215351354f4f708c55a2c7734a01210292a5db6b22543b58a29942c318fcd206fb3492d3c303fc233b4908ab0a968115024730440220621b2e0aaf3421afda7350336965c865a741684e922db62d7b62afa8360bd525022058847cc7e5cb7b6986fdf3f295b5fe72bf7dc62da36ebbfda3eccfd93cbe32d001210292a5db6b22543b58a29942c318fcd206fb3492d3c303fc233b4908ab0a9681150247304402202952e8d78edb22b881d66760c172c495ec11d5c849681fda423760bd01a2a9ed02207afb6e267a0337d3738260f5a0e408f923c216043ba1ddeeeeab63d4445204e301210292a5db6b22543b58a29942c318fcd206fb3492d3c303fc233b4908ab0a96811502483045022100f949feecd861a4f745029e54999075067aca49b3055117276c8010e362c161eb0220131139ef0c3385e2cecd5e4a49c55f185b694d46dc8aff2a81abd848a6063c480121021485520b1ab833f5bbd2b508f5450b7fb068c1429d2436b581e427a374c76ad00247304402204c5d64b771b3bf6c110f3db9a6e47e00ac60ad0c3eb78da3427c879b7da65080022045c88431fc6b82d2025e816f83855043ac92881fccc640fc15f61313846551df01210292a5db6b22543b58a29942c318fcd206fb3492d3c303fc233b4908ab0a96811502483045022100c28a138e52b736f06cd7afcdfb7ae112a5b5a805d3af62f5f2697e2604cc188902203a6055e31bcbd1a8dd4f1c978724587cc91c1968d3f74a5f0b8e0f117b3c6af901210200de4dcb97ab0dbfc96fd55f1be8c6fd3a3d1f98b38ee83b45d8fcec015bd1f800000000", "vin": [{"txinwitness": ["304402203a43d4e8bd4e1ff62a95e86d959ffa54795527bdf0ced800e208ba9372d3b15e02207d44695313661ac1ec6fbf0ded4d9433f9bfc0a597ee29d08e1ef7d9686a4e5d01", "03d404c79c15aa6e1a95e74d6d2d72bbfb7e73a70367ecd8278647ab27b7c1867d"], "sequence": 4294967295, "scriptSig": {"hex": "16001435a29e8fac1ebfcfb80548faed016f6835c24033", "asm": "001435a29e8fac1ebfcfb80548faed016f6835c24033"}, "vout": 39, "txid": "718eaa6fad51ed99938d0a9e6d4805eaf9cf8f2dfbfdf2320bc63ea50b7f4262"}, {"txinwitness": ["304402204dcbdbe508b3d57f812e69d62399146b50b9a6d8bffe3fa2331adde9d5f685ae0220794eccccabae925a1c266a6c607067708b24003472a09275cadcf8a73a76a95d01", "030ed3779e33407bb6563f9db45653d2d71a3887be060fbb35ac0ebc2d8990a0f3"], "sequence": 4294967295, "scriptSig": {"hex": "16001417cd6f4ea0a26d46b9e7a17b859cb5d2e06decd3", "asm": "001417cd6f4ea0a26d46b9e7a17b859cb5d2e06decd3"}, "vout": 25, "txid": "a85a69fa1515aa906715274ce37e23992b5c527e81684fed56a0a0382abb5c2a"}, {"txinwitness": ["3045022100f67d31f72184e1301118de860b2ccd28edb03fd86259dd02b2973b1ae5b368e6022028ee811802ccbfb009ddce1bc56d61604767a41ffa0c46a01cdfa27814ede83d01", "03a370cc56a12735d723eda1634bb73c903d696df66a3fce53bfbfbb5cea5dc070"], "sequence": 4294967295, "scriptSig": {"hex": "1600149825bb515f65b097725ee2447d149de03d9f372b", "asm": "00149825bb515f65b097725ee2447d149de03d9f372b"}, "vout": 7, "txid": "840f8fb49c25f3c96072983224909717532b9c7d6a51dcf122f01568a712d765"}, {"txinwitness": ["3045022100c955b3da8f5f2d6182eca7fbb12371a188404d4d8ebe3642b9a661e065145bef02206cd58e051863b1c08b2d2ef26f75cc8ad94f468153bc5eb3908c47b23066473701", "022a318782c63dd535f6923bbf8e64d996625d94348d3599614044f33357f81e86"], "sequence": 4294967295, "scriptSig": {"hex": "16001498373823355ce07cd478ed0794c92a4fa6ad24a9", "asm": "001498373823355ce07cd478ed0794c92a4fa6ad24a9"}, "vout": 0, "txid": "5b1d8ca6dc142f42efcf39f88fdd4826f6f6761acfde3a190238b5e4b358572b"}, {"txinwitness": ["3045022100f1b830148b14d533081a6f1cb57bfd13cbda6fa174cc4c86bdacda48e981464f0220526bc7000b86ca8c15c6a0073f3974c12cf5650f61b3f4179c2bbc594b1dfdf701", "02578510739ec04d099bb60ca887d3cfe301c518c91f1a3e973b8bdc64d5ee6589"], "sequence": 4294967295, "scriptSig": {"hex": "1600144cf13c40da0f998d83a990329367882665b19689", "asm": "00144cf13c40da0f998d83a990329367882665b19689"}, "vout": 0, "txid": "89b8f95d0adcc7313a74f9e0ffb1ffda66ef6d8d79c3b2354e99e22dc8dd9802"}, {"txinwitness": ["304402207bcfb18fbf730b1c1697fb288993c3af5368553bda7e507364cc56560a41f88f02202f1b585b8b0750119dcf24966ab6bc30a18c0b9e598dd73137af9e5a435902fc01", "0322f1877640176adf6acd16112ec2f345414f5cc4e232a441f405da1fa7cd345c"], "sequence": 4294967295, "scriptSig": {"hex": "1600140f19a2d87c2294f3467227ec3d77e2d089b050e7", "asm": "00140f19a2d87c2294f3467227ec3d77e2d089b050e7"}, "vout": 1, "txid": "6a80fefd8d940f04154fcb92d520b0b9c985c3a874b3868cd4daddfe1cc3da91"}, {"txinwitness": ["3045022100c27c1c1cd18ea27bc5995006b81b7e39228ddf03b7f085f8e9c32efd1ca4716f02204e7761b6e851186593292f9f262105682db506c7ad3f2d26b7089cee64177aef01", "02e9aafdb28f3c294428c392e4f28c20e761611c3494b9c76439161419863f422d"], "sequence": 4294967295, "scriptSig": {"hex": "16001412ca887272630b8e6ead6a5c9938ef975e14c6b0", "asm": "001412ca887272630b8e6ead6a5c9938ef975e14c6b0"}, "vout": 0, "txid": "29cc0c5eac6d6c9ff6751bdfc7a9a0be0208417134ca2ef2e71e534a8ec8d7c2"}, {"txinwitness": ["3045022100ddfd6ec403e8986b105a1c82d0990803348ac89549c452b3305ad489e58f561502202440bfa4bdf028668e07322ffa84d835382b0ee3e2308b342bdf7a0e338be54e01", "02dc37fe6278c0c56cf9a72ac94b52c913d80b4a6f70a5f96c2762d18b6fd51c16"], "sequence": 4294967295, "scriptSig": {"hex": "1600142c8ca3693dc9b6fc5dd03f6133f1c19e6d20de04", "asm": "00142c8ca3693dc9b6fc5dd03f6133f1c19e6d20de04"}, "vout": 35, "txid": "840f8fb49c25f3c96072983224909717532b9c7d6a51dcf122f01568a712d765"}, {"txinwitness": ["30440220561fe7b51fcad2e446afad7c8a889933ececc01a9d49058639529857ac46919602203ebb469254f372952b9fa5ffe0113586ae043a6f906d7f9a8f59ba826c7cfa7801", "0202ca6fcabac376034f432b05cd2bd68761b4e45734ab7b6bb2d092193d93fb40"], "sequence": 4294967295, "scriptSig": {"hex": "16001470931459d16eac530d2aca2dc9abee782b654b0a", "asm": "001470931459d16eac530d2aca2dc9abee782b654b0a"}, "vout": 53, "txid": "6f366fcd039c7dc34b971193f81b9a2087f7ab43038c4b74e737661cb3307472"}, {"txinwitness": ["3044022025735b701529103b3f36282970f78af30ff5437c6710875e9176ebbc4b939b9d022003317bd61cdf59c18e7735b4d03f21ce637804950fad4c88837e359dbe1f8a2e01", "024df3c4e3583a24bb33a9a85aceb876c0c80b5cdf6a6137e78a96116d065255fb"], "sequence": 4294967295, "scriptSig": {"hex": "16001410808f7dbe204d7001963b0c1bc04b8f541b3172", "asm": "001410808f7dbe204d7001963b0c1bc04b8f541b3172"}, "vout": 6, "txid": "c5e12e6a32851fec643ac8259fc8993ae381974bb776bc9d1e54ea094f395d79"}, {"txinwitness": ["30450221009155ccbb9ce28267b830bc9d8246f48f048d19891e1e3f1e7d3e6ac58edeb677022064b96d0220d304aae736fa6c8258edfc93f3a9dafb4ee22b86692103a594880401", "0352599c9c4d93ed00b64c2ae0ab9aec0b1de940ce2006fcf7a2c4704c34a5f422"], "sequence": 4294967295, "scriptSig": {"hex": "16001499f529fbea8c1910e3444fabefded1a600b06fa7", "asm": "001499f529fbea8c1910e3444fabefded1a600b06fa7"}, "vout": 0, "txid": "6242ddea842941ce88096e92562aa7eeac273fd0a9cc26bf1117df2bb32e86e8"}, {"txinwitness": ["3045022100f599dd4ee8f2b8e2e90b31fe3a0dbd6e15634eea02b08a61d9487c64ce54764d02200cc9ab16965dd326e33707a57b26f823a5334d215351354f4f708c55a2c7734a01", "0292a5db6b22543b58a29942c318fcd206fb3492d3c303fc233b4908ab0a968115"], "sequence": 4294967295, "scriptSig": {"hex": "1600142767162ab05c0b31357c7723c3b984f16c313c8c", "asm": "00142767162ab05c0b31357c7723c3b984f16c313c8c"}, "vout": 1, "txid": "9d5de386da23d600e5621370fff6d0e8cca64313cdafcbd12b66d9d743820020"}, {"txinwitness": ["30440220621b2e0aaf3421afda7350336965c865a741684e922db62d7b62afa8360bd525022058847cc7e5cb7b6986fdf3f295b5fe72bf7dc62da36ebbfda3eccfd93cbe32d001", "0292a5db6b22543b58a29942c318fcd206fb3492d3c303fc233b4908ab0a968115"], "sequence": 4294967295, "scriptSig": {"hex": "1600142767162ab05c0b31357c7723c3b984f16c313c8c", "asm": "00142767162ab05c0b31357c7723c3b984f16c313c8c"}, "vout": 1, "txid": "e35e30731c28ace83ec75edc4f1be8c3874931487c9edd967334c6f44ce4e264"}, {"txinwitness": ["304402202952e8d78edb22b881d66760c172c495ec11d5c849681fda423760bd01a2a9ed02207afb6e267a0337d3738260f5a0e408f923c216043ba1ddeeeeab63d4445204e301", "0292a5db6b22543b58a29942c318fcd206fb3492d3c303fc233b4908ab0a968115"], "sequence": 4294967295, "scriptSig": {"hex": "1600142767162ab05c0b31357c7723c3b984f16c313c8c", "asm": "00142767162ab05c0b31357c7723c3b984f16c313c8c"}, "vout": 8, "txid": "b1cc9e805b26077cd14a54fcc913584df6956cc269464a6b9f8386bc538d0f94"}, {"txinwitness": ["3045022100f949feecd861a4f745029e54999075067aca49b3055117276c8010e362c161eb0220131139ef0c3385e2cecd5e4a49c55f185b694d46dc8aff2a81abd848a6063c4801", "021485520b1ab833f5bbd2b508f5450b7fb068c1429d2436b581e427a374c76ad0"], "sequence": 4294967295, "scriptSig": {"hex": "16001437b1596d50895159cd5b29710345908af309277a", "asm": "001437b1596d50895159cd5b29710345908af309277a"}, "vout": 9, "txid": "017e9393d65176fa9878c4d9b3edbb4b8778d2a6de4427a49a9609058ed9844f"}, {"txinwitness": ["304402204c5d64b771b3bf6c110f3db9a6e47e00ac60ad0c3eb78da3427c879b7da65080022045c88431fc6b82d2025e816f83855043ac92881fccc640fc15f61313846551df01", "0292a5db6b22543b58a29942c318fcd206fb3492d3c303fc233b4908ab0a968115"], "sequence": 4294967295, "scriptSig": {"hex": "1600142767162ab05c0b31357c7723c3b984f16c313c8c", "asm": "00142767162ab05c0b31357c7723c3b984f16c313c8c"}, "vout": 2, "txid": "587fa40c27b04e3a444153533f463f6e837187afcad51ec3e73a504a74dd3ab9"}, {"txinwitness": ["3045022100c28a138e52b736f06cd7afcdfb7ae112a5b5a805d3af62f5f2697e2604cc188902203a6055e31bcbd1a8dd4f1c978724587cc91c1968d3f74a5f0b8e0f117b3c6af901", "0200de4dcb97ab0dbfc96fd55f1be8c6fd3a3d1f98b38ee83b45d8fcec015bd1f8"], "sequence": 4294967295, "scriptSig": {"hex": "160014af7f381baff0836abb3005ef51f12d1ff7514727", "asm": "0014af7f381baff0836abb3005ef51f12d1ff7514727"}, "vout": 31, "txid": "48393cdde4bd3a9bae5070150ec289b6a65aced1005f326666a9df90531fa0f4"}], "txid": "bf58deb029e665820614edca0c890f56855cb59835709fded1dd7c46fcec72dc", "blocktime": 1537873282, "version": 2, "confirmations": 11480, "time": 1537873282, "locktime": 0, "vsize": 1816, "size": 3188}