{"hash": "bf5952dd0927aceae45a20f6a651154c92a63a0867f1c929e9d2d937a4c052db", "blockhash": "00000000000000000017f5eb5941039fbcee6240d03bc1f2f8e35350df66a1d8", "vout": [{"scriptPubKey": {"reqSigs": 1, "hex": "a9149083eb1843038212ddb26163db9e048c41a031e487", "addresses": ["3Es9G1n4mkqpkjqQhxdhNsS2W9y8HRSLax"], "asm": "OP_HASH160 9083eb1843038212ddb26163db9e048c41a031e4 OP_EQUAL", "type": "scripthash"}, "value": 0.01284473, "n": 0}, {"scriptPubKey": {"reqSigs": 1, "hex": "76a914a09e4fbf4442d6ac6583017ea428b1ec09088dc088ac", "addresses": ["1FeGmNSFbGiznwA1Qc7dpe1UzqbrpaZFu5"], "asm": "OP_DUP OP_HASH160 a09e4fbf4442d6ac6583017ea428b1ec09088dc0 OP_EQUALVERIFY OP_CHECKSIG", "type": "pubkeyhash"}, "value": 0.17477838, "n": 1}], "hex": "0100000001ae593866f85fc5fecfb2ba1a13500d01ce2109879e2aaa0ba8145194a91c40b3010000006a473044022061bf6bb73f645f8987436df44e4e6c0f3474e3551d3f96629c650762fd0b327d02206403e0ed5a52d89acfa7cb5e36d58621095bec3764d145fb6f73a65f6ef8b546012103eff48995820c076ae252e8711fed1ba69ac51172a5c3564d5752610f01a41921fdffffff02799913000000000017a9149083eb1843038212ddb26163db9e048c41a031e487ceb00a01000000001976a914a09e4fbf4442d6ac6583017ea428b1ec09088dc088ac14490800", "vin": [{"sequence": 4294967293, "scriptSig": {"hex": "473044022061bf6bb73f645f8987436df44e4e6c0f3474e3551d3f96629c650762fd0b327d02206403e0ed5a52d89acfa7cb5e36d58621095bec3764d145fb6f73a65f6ef8b546012103eff48995820c076ae252e8711fed1ba69ac51172a5c3564d5752610f01a41921", "asm": "3044022061bf6bb73f645f8987436df44e4e6c0f3474e3551d3f96629c650762fd0b327d02206403e0ed5a52d89acfa7cb5e36d58621095bec3764d145fb6f73a65f6ef8b546[ALL] 03eff48995820c076ae252e8711fed1ba69ac51172a5c3564d5752610f01a41921"}, "vout": 1, "txid": "b3401ca9945114a80baa2a9e870921ce010d50131abab2cffec55ff8663859ae"}], "txid": "bf5952dd0927aceae45a20f6a651154c92a63a0867f1c929e9d2d937a4c052db", "blocktime": 1537874412, "version": 1, "confirmations": 11466, "time": 1537874412, "locktime": 542996, "vsize": 223, "size": 223}