{"hash": "bf59a024c1f88246f822fa6c2e081f5666a1884be3179eeb34c4f14601cecc66", "blockhash": "0000000000000000001cda96e906b7601b7a6fb1a3b62bca570a9e5d8f4b3de1", "vout": [{"scriptPubKey": {"reqSigs": 1, "hex": "76a9144d957a5de959a64d3d29787923a229c3c452a3b188ac", "addresses": ["185E6ggTxMzugt2UfUakjf1h7Gsbr4g6fm"], "asm": "OP_DUP OP_HASH160 4d957a5de959a64d3d29787923a229c3c452a3b1 OP_EQUALVERIFY OP_CHECKSIG", "type": "pubkeyhash"}, "value": 6.88e-06, "n": 0}, {"scriptPubKey": {"reqSigs": 1, "hex": "a914a5c12cfeaf1f7fa7464817ea206126cf753d5d3f87", "addresses": ["3GoSqHN9N3tLCsaS4TyqKL8bpfQvAU7N42"], "asm": "OP_HASH160 a5c12cfeaf1f7fa7464817ea206126cf753d5d3f OP_EQUAL", "type": "scripthash"}, "value": 5e-05, "n": 1}], "hex": "01000000029c1a58c54a9f6cb15bb9278211db34ba4636fb450a547aeddae2a9d97243d143000000006a4730440220493388d54b408fe15e9c0ae1c3becd9b85b659da4b8423241dc4bdc788316010022053867bb9f3c6b1b1037eb49d233d2aa9b0b61e418408a9384bc64a72b09c8eb7012103a4b72b1502a135fb518b9c72c9a981ef59dbc40a1317b29529dc7123d6d1c4b6ffffffffec72177ada8260d5c57d8d7f6b4659184ff06f4eb497cbd741e399ffd31fd2e2000000006b4830450221009c377e33afb19fa9ffe0580a110134746dfbd4922e2867d118267608686169fd022061bc7ba24b512882a2f473d1f372b27653dc577ee69cf6654ca243b55c79729d012102f10cd3c540cefd08a6284fd7a33b6decdfbcc060df9bac5c929a71bf8b97581cffffffff02b0020000000000001976a9144d957a5de959a64d3d29787923a229c3c452a3b188ac881300000000000017a914a5c12cfeaf1f7fa7464817ea206126cf753d5d3f8700000000", "vin": [{"sequence": 4294967295, "scriptSig": {"hex": "4730440220493388d54b408fe15e9c0ae1c3becd9b85b659da4b8423241dc4bdc788316010022053867bb9f3c6b1b1037eb49d233d2aa9b0b61e418408a9384bc64a72b09c8eb7012103a4b72b1502a135fb518b9c72c9a981ef59dbc40a1317b29529dc7123d6d1c4b6", "asm": "30440220493388d54b408fe15e9c0ae1c3becd9b85b659da4b8423241dc4bdc788316010022053867bb9f3c6b1b1037eb49d233d2aa9b0b61e418408a9384bc64a72b09c8eb7[ALL] 03a4b72b1502a135fb518b9c72c9a981ef59dbc40a1317b29529dc7123d6d1c4b6"}, "vout": 0, "txid": "43d14372d9a9e2daed7a540a45fb3646ba34db118227b95bb16c9f4ac5581a9c"}, {"sequence": 4294967295, "scriptSig": {"hex": "4830450221009c377e33afb19fa9ffe0580a110134746dfbd4922e2867d118267608686169fd022061bc7ba24b512882a2f473d1f372b27653dc577ee69cf6654ca243b55c79729d012102f10cd3c540cefd08a6284fd7a33b6decdfbcc060df9bac5c929a71bf8b97581c", "asm": "30450221009c377e33afb19fa9ffe0580a110134746dfbd4922e2867d118267608686169fd022061bc7ba24b512882a2f473d1f372b27653dc577ee69cf6654ca243b55c79729d[ALL] 02f10cd3c540cefd08a6284fd7a33b6decdfbcc060df9bac5c929a71bf8b97581c"}, "vout": 0, "txid": "e2d21fd3ff99e341d7cb97b44e6ff04f1859466b7f8d7dc5d56082da7a1772ec"}], "txid": "bf59a024c1f88246f822fa6c2e081f5666a1884be3179eeb34c4f14601cecc66", "blocktime": 1537873282, "version": 1, "confirmations": 11485, "time": 1537873282, "locktime": 0, "vsize": 371, "size": 371}