{"hash": "c79cf733991310f6c858384c1cf901085dc537ba49fd8fc8e3d10fd6783db98e", "blockhash": "0000000000000000000dcc0f55137456b1a82d3642486a52398922ac4d620174", "vout": [{"scriptPubKey": {"reqSigs": 1, "hex": "0014b9d7c7048cb0cb2d3528ea52cc303bd36d3c0bad", "addresses": ["bc1qh8tuwpyvkr9j6dfgaffvcvpm6dknczad3g0j2s"], "asm": "0 b9d7c7048cb0cb2d3528ea52cc303bd36d3c0bad", "type": "witness_v0_keyhash"}, "value": 0.0610907, "n": 0}, {"scriptPubKey": {"reqSigs": 1, "hex": "a91425f685fc630a7e79cd583dfb22267db475ca7ba587", "addresses": ["359kFPN1jVqCjBpXwPRn3xTH1e5McvwEG9"], "asm": "OP_HASH160 25f685fc630a7e79cd583dfb22267db475ca7ba5 OP_EQUAL", "type": "scripthash"}, "value": 0.072, "n": 1}], "hex": "01000000000101806c9fe856315e2504108a7d2af7ffdc61b65ada68a87c91fc1b71e9bb643e6b0000000000ffffffff028e375d0000000000160014b9d7c7048cb0cb2d3528ea52cc303bd36d3c0bad00dd6d000000000017a91425f685fc630a7e79cd583dfb22267db475ca7ba58702483045022100f65c68e98d23b5adef3aeaa35d71b35d599926e909b2a70dfa937278d86d72ff02207076258f5d4396ef7dbd220ffddaaa33e36edaae0b71b4b9b3b12357b70b4a400121035bf21c1b2ebae21a7188f108fb89cd7bf6a9a82be97656b7624ad730270f78f300000000", "vin": [{"txinwitness": ["3045022100f65c68e98d23b5adef3aeaa35d71b35d599926e909b2a70dfa937278d86d72ff02207076258f5d4396ef7dbd220ffddaaa33e36edaae0b71b4b9b3b12357b70b4a4001", "035bf21c1b2ebae21a7188f108fb89cd7bf6a9a82be97656b7624ad730270f78f3"], "sequence": 4294967295, "scriptSig": {"hex": "", "asm": ""}, "vout": 0, "txid": "6b3e64bbe9711bfc917ca868da5ab661dcfff72a7d8a1004255e3156e89f6c80"}], "txid": "bf59427d59edd189018f78fd1a524c3a9b66f9af75af4d071fb4dcd8e67c3746", "blocktime": 1537870268, "version": 1, "confirmations": 11518, "time": 1537870268, "locktime": 0, "vsize": 142, "size": 224}