{"hash": "bf603846bcb9aa0a942dbf013c4ef286ce8b50c82bbe36c35035333b0b61535a", "blockhash": "0000000000000000001cda96e906b7601b7a6fb1a3b62bca570a9e5d8f4b3de1", "vout": [{"scriptPubKey": {"reqSigs": 1, "hex": "a914042d1819d9a7c83410e3d3302fa045323f59d50887", "addresses": ["3256eWNLfFukeaURQshJQwLcY8mVZg7Bif"], "asm": "OP_HASH160 042d1819d9a7c83410e3d3302fa045323f59d508 OP_EQUAL", "type": "scripthash"}, "value": 0.001563, "n": 0}, {"scriptPubKey": {"reqSigs": 1, "hex": "76a91428deb086a0bc7638de383ad1d98fdb8043e7b13688ac", "addresses": ["14j6oR44LvmKppFN2PUHnozgX7NpFQwR8V"], "asm": "OP_DUP OP_HASH160 28deb086a0bc7638de383ad1d98fdb8043e7b136 OP_EQUALVERIFY OP_CHECKSIG", "type": "pubkeyhash"}, "value": 0.2234935, "n": 1}], "hex": "0100000001cbf937e6a392b1a017047181699e7e48628c5aa293a5df8727432b818c339dfc010000006a4730440220783f92f7ed161bb934a2faf86df0b791ee22312a214c55dd920814e0e49b1cc0022076eb40786ae3167872224b07cc866941d32fea61a765fb0f215d95143abc881501210329a9e22ecccd5f1e24b9cc2711ee30a129f2c0ce99d34c85ad4c9f170a477208ffffffff028c6202000000000017a914042d1819d9a7c83410e3d3302fa045323f59d5088726065501000000001976a91428deb086a0bc7638de383ad1d98fdb8043e7b13688ac00000000", "vin": [{"sequence": 4294967295, "scriptSig": {"hex": "4730440220783f92f7ed161bb934a2faf86df0b791ee22312a214c55dd920814e0e49b1cc0022076eb40786ae3167872224b07cc866941d32fea61a765fb0f215d95143abc881501210329a9e22ecccd5f1e24b9cc2711ee30a129f2c0ce99d34c85ad4c9f170a477208", "asm": "30440220783f92f7ed161bb934a2faf86df0b791ee22312a214c55dd920814e0e49b1cc0022076eb40786ae3167872224b07cc866941d32fea61a765fb0f215d95143abc8815[ALL] 0329a9e22ecccd5f1e24b9cc2711ee30a129f2c0ce99d34c85ad4c9f170a477208"}, "vout": 1, "txid": "fc9d338c812b432787dfa593a25a8c62487e9e6981710417a0b192a3e637f9cb"}], "txid": "bf603846bcb9aa0a942dbf013c4ef286ce8b50c82bbe36c35035333b0b61535a", "blocktime": 1537873282, "version": 1, "confirmations": 11482, "time": 1537873282, "locktime": 0, "vsize": 223, "size": 223}