{"hash": "bf6aa441775b2cadf2e65dbffc6dce24f47db8ebfa8e08b00358adc1a04a752a", "blockhash": "0000000000000000001f0ddff1eddb255c1121bcd4da4f1bc9a0da00cae72433", "vout": [{"scriptPubKey": {"reqSigs": 1, "hex": "76a914e72e62ed627124f478a4a9ea4c9919191678e8fa88ac", "addresses": ["1N5NfJLCwRq7XJSXXGeRhkUfukwkwDuq4n"], "asm": "OP_DUP OP_HASH160 e72e62ed627124f478a4a9ea4c9919191678e8fa OP_EQUALVERIFY OP_CHECKSIG", "type": "pubkeyhash"}, "value": 0.11002386, "n": 0}, {"scriptPubKey": {"reqSigs": 1, "hex": "76a914f0d7465b494e7a1fe12d368ec9613a7a300c58a288ac", "addresses": ["1NxT4bcSVbvqoCn4oW1RrMMfXwxJ4YWuSP"], "asm": "OP_DUP OP_HASH160 f0d7465b494e7a1fe12d368ec9613a7a300c58a2 OP_EQUALVERIFY OP_CHECKSIG", "type": "pubkeyhash"}, "value": 0.18148843, "n": 1}], "hex": "010000000123ae728c51a0a7e692aa03b9fe07cdf14405935c6ea3a0b947358143a32bcada000000006b483045022100cc2ad3497715a065bfab170519595c30262603aaeec60e5e541609eb0ed1bbed0220391f4b7ff5f1b857921e893b81ae3db68b1a9139bd51cbca9ebde9836dfd8e9601210213f90666ab07cde45eef69b04be10a998325ff553b18325f37097b027aea57b5ffffffff0212e2a700000000001976a914e72e62ed627124f478a4a9ea4c9919191678e8fa88acebed1401000000001976a914f0d7465b494e7a1fe12d368ec9613a7a300c58a288ac00000000", "vin": [{"sequence": 4294967295, "scriptSig": {"hex": "483045022100cc2ad3497715a065bfab170519595c30262603aaeec60e5e541609eb0ed1bbed0220391f4b7ff5f1b857921e893b81ae3db68b1a9139bd51cbca9ebde9836dfd8e9601210213f90666ab07cde45eef69b04be10a998325ff553b18325f37097b027aea57b5", "asm": "3045022100cc2ad3497715a065bfab170519595c30262603aaeec60e5e541609eb0ed1bbed0220391f4b7ff5f1b857921e893b81ae3db68b1a9139bd51cbca9ebde9836dfd8e96[ALL] 0213f90666ab07cde45eef69b04be10a998325ff553b18325f37097b027aea57b5"}, "vout": 0, "txid": "daca2ba343813547b9a0a36e5c930544f1cd07feb903aa92e6a7a0518c72ae23"}], "txid": "bf6aa441775b2cadf2e65dbffc6dce24f47db8ebfa8e08b00358adc1a04a752a", "blocktime": 1537872018, "version": 1, "confirmations": 11489, "time": 1537872018, "locktime": 0, "vsize": 226, "size": 226}