{"hash": "e5c9ae972bd100d4d6624a6a2d23a1e06474d54f104cb276289451a4641ad646", "blockhash": "0000000000000000001cda96e906b7601b7a6fb1a3b62bca570a9e5d8f4b3de1", "vout": [{"scriptPubKey": {"reqSigs": 1, "hex": "76a914d28a32fb2f5c61ca647eefb9ecf2db9cdb07557088ac", "addresses": ["1LCETXhhjhRYZZUvZV6wZTXMuRgeot7bMy"], "asm": "OP_DUP OP_HASH160 d28a32fb2f5c61ca647eefb9ecf2db9cdb075570 OP_EQUALVERIFY OP_CHECKSIG", "type": "pubkeyhash"}, "value": 0.000925, "n": 0}, {"scriptPubKey": {"reqSigs": 1, "hex": "a91454eb8e870570c17828af5a3b841c044b8cb67b5187", "addresses": ["39S2sRjbbYWBjMCcAywdLezEKQo5XqjVop"], "asm": "OP_HASH160 54eb8e870570c17828af5a3b841c044b8cb67b51 OP_EQUAL", "type": "scripthash"}, "value": 0.04893549, "n": 1}], "hex": "02000000000101db0025b0f9ae597076ac6b8c95248e1104b466c896829ef842df88332d9c29300000000017160014d0ebbc255b18e135b12438b9833c4518056bce18fdffffff0254690100000000001976a914d28a32fb2f5c61ca647eefb9ecf2db9cdb07557088ac6dab4a000000000017a91454eb8e870570c17828af5a3b841c044b8cb67b5187024730440220062576c1bbfe497b1d0bf0891b5be0daa5bbde0018a4ba1297fa64e92f5f5fbd022060aaaadfabc72863d5cb3e167efeb657280057d7007a402ddc5ed242887326cb0121031840aa909103e1b52ec12fcb934df75cb3837e2f5ff7520be60c71f4f6bb53c513490800", "vin": [{"txinwitness": ["30440220062576c1bbfe497b1d0bf0891b5be0daa5bbde0018a4ba1297fa64e92f5f5fbd022060aaaadfabc72863d5cb3e167efeb657280057d7007a402ddc5ed242887326cb01", "031840aa909103e1b52ec12fcb934df75cb3837e2f5ff7520be60c71f4f6bb53c5"], "sequence": 4294967293, "scriptSig": {"hex": "160014d0ebbc255b18e135b12438b9833c4518056bce18", "asm": "0014d0ebbc255b18e135b12438b9833c4518056bce18"}, "vout": 0, "txid": "30299c2d3388df42f89e8296c866b404118e24958c6bac767059aef9b02500db"}], "txid": "bf6b096166e8d7c1518909fd9fb0b056a6a54dbcd331396d5ee6948f49905585", "blocktime": 1537873282, "version": 2, "confirmations": 11485, "time": 1537873282, "locktime": 542995, "vsize": 168, "size": 249}