{"hash": "bf6fff9631b28e814400d7f50e31fdda32418cd62c46e1a74f5587dfe13cc97d", "blockhash": "00000000000000000018f53835495a110e01622372bf6ae95dc86f2b0ab887b0", "vout": [{"scriptPubKey": {"reqSigs": 1, "hex": "76a91486080360f7ab985d8592ec2808b0fea5d107c35688ac", "addresses": ["1DDh9UP1LNg9mKof3iKEJqdHTvGuccaXp6"], "asm": "OP_DUP OP_HASH160 86080360f7ab985d8592ec2808b0fea5d107c356 OP_EQUALVERIFY OP_CHECKSIG", "type": "pubkeyhash"}, "value": 0.01646594, "n": 0}], "hex": "02000000014dd65bb7c097f0bab82f4385f34eb728d6ec683a1c32e489b38e6a58fcdc0e5c000000006a473044022048fd408310aff7274d18d9a982377fd4038558a2754188331b9c6bb987b6c3a902201db8ac23e1b006d69998181249b2a4b1125ef639ed847b618e87c1de5349fd5401210248c423b80f749fc00b3e4c258370b5ccf8f90bf10149b544df0d5ff173c6c694ffffffff0102201900000000001976a91486080360f7ab985d8592ec2808b0fea5d107c35688ac00000000", "vin": [{"sequence": 4294967295, "scriptSig": {"hex": "473044022048fd408310aff7274d18d9a982377fd4038558a2754188331b9c6bb987b6c3a902201db8ac23e1b006d69998181249b2a4b1125ef639ed847b618e87c1de5349fd5401210248c423b80f749fc00b3e4c258370b5ccf8f90bf10149b544df0d5ff173c6c694", "asm": "3044022048fd408310aff7274d18d9a982377fd4038558a2754188331b9c6bb987b6c3a902201db8ac23e1b006d69998181249b2a4b1125ef639ed847b618e87c1de5349fd54[ALL] 0248c423b80f749fc00b3e4c258370b5ccf8f90bf10149b544df0d5ff173c6c694"}, "vout": 0, "txid": "5c0edcfc586a8eb389e4321c3a68ecd628b74ef385432fb8baf097c0b75bd64d"}], "txid": "bf6fff9631b28e814400d7f50e31fdda32418cd62c46e1a74f5587dfe13cc97d", "blocktime": 1537870928, "version": 2, "confirmations": 11514, "time": 1537870928, "locktime": 0, "vsize": 191, "size": 191}