{"hash": "85f9fa54c4fabb1fcc3859440edb27a0c219f9a9279ebcb1ab565290261000f3", "blockhash": "0000000000000000001e0dab787dd257d1dbfcb92a98c2207d5e1078be1f4165", "vout": [{"scriptPubKey": {"reqSigs": 1, "hex": "a914c99f956ed1e4bd141e7161ba300b721de82ccae087", "addresses": ["3L56vAzUkvdore6aLKrqJoc5h1izrPQ4Sb"], "asm": "OP_HASH160 c99f956ed1e4bd141e7161ba300b721de82ccae0 OP_EQUAL", "type": "scripthash"}, "value": 0.01000449, "n": 0}, {"scriptPubKey": {"reqSigs": 1, "hex": "a9149b7a873e4f1ec87e5ceab7a56d118f92df8aa34e87", "addresses": ["3Fs7Sh8ETLxhG8YV6GhDUb7CXDxN14kwgT"], "asm": "OP_HASH160 9b7a873e4f1ec87e5ceab7a56d118f92df8aa34e OP_EQUAL", "type": "scripthash"}, "value": 0.0258234, "n": 1}], "hex": "0200000000010417a0a7078d3310816878770ef5fd6e111f5d0e2eb822511cf919799110dc27ec010000001716001464c2c17198aa90675657420c3a038646b7d0d4a4feffffff3a4b494b72a69d01d5582639a3eb84329baa97b6be78b0d0b0495c1999479e6a000000001716001485dd81eaf944dd5ec4967b47e27248b7ef901d5efeffffffbb680a99c5f2ddc9619d646b607632ba01302a77db3fdb32c96a4bf7bad21ed10000000017160014c93ec231a34d6c98110faaf0fe422a8ca683a683feffffffecd2c5d0e9940d369ac013fee5959dea12d4bd579a5e25bb4b7536d312fe4e9e000000001716001446dc0940c9ffcae152987dc84a5adab7cbd4064ffeffffff0201440f000000000017a914c99f956ed1e4bd141e7161ba300b721de82ccae087446727000000000017a9149b7a873e4f1ec87e5ceab7a56d118f92df8aa34e8702483045022100ad658353dcbf77db26ab69c6e2bf39bfd217b61748ea368f21a60a3dca858e4a0220016523a00e0e5d12afa8020d4035efbc140cdfd30e969bb7b676a64c7fb5fe27012102f2a5e5a7b3085b8d67e02c777992f8b15cc9916cf3d301666fc99a01bf14532d02483045022100c15bd5b16626a0c2b6304498e085e95b9f0ad56ef0d2e066ae428ceb691d47ca02204a860625bfaffc27f10c4fcc87769729a61c16ff4f4f361d8cd30b018feef7e2012102f7b9c79c43eadcdfed328aba375550dc200814e0e63758cea673cbb2de7be61302483045022100ccd8d5f4babe86eac59b216bbb43395c7c986c79012522f1a4e99bf2839f5e180220537043340c3f158bba1258889da5639e9c54b8d032ffd5e06291f3b91092a17d012103e9e3b33811713bc975008f19581b6249b7a76a19e6dd161ad5b7f316e0aa85bd0247304402201c544e9da170389a285def889d13cd65305c9882a42a049804fa691b88983501022011907966bcaef63a90ac7414ae5f4e802580f4cda71f1ed0ae3bb000a3daf58d012102a9d027db0d91b5e0bdeabedb2809d1f12c3a09ca0f0390dbd12572d96a1ef1e900000000", "vin": [{"txinwitness": ["3045022100ad658353dcbf77db26ab69c6e2bf39bfd217b61748ea368f21a60a3dca858e4a0220016523a00e0e5d12afa8020d4035efbc140cdfd30e969bb7b676a64c7fb5fe2701", "02f2a5e5a7b3085b8d67e02c777992f8b15cc9916cf3d301666fc99a01bf14532d"], "sequence": 4294967294, "scriptSig": {"hex": "16001464c2c17198aa90675657420c3a038646b7d0d4a4", "asm": "001464c2c17198aa90675657420c3a038646b7d0d4a4"}, "vout": 1, "txid": "ec27dc10917919f91c5122b82e0e5d1f116efdf50e7778688110338d07a7a017"}, {"txinwitness": ["3045022100c15bd5b16626a0c2b6304498e085e95b9f0ad56ef0d2e066ae428ceb691d47ca02204a860625bfaffc27f10c4fcc87769729a61c16ff4f4f361d8cd30b018feef7e201", "02f7b9c79c43eadcdfed328aba375550dc200814e0e63758cea673cbb2de7be613"], "sequence": 4294967294, "scriptSig": {"hex": "16001485dd81eaf944dd5ec4967b47e27248b7ef901d5e", "asm": "001485dd81eaf944dd5ec4967b47e27248b7ef901d5e"}, "vout": 0, "txid": "6a9e4799195c49b0d0b078beb697aa9b3284eba3392658d5019da6724b494b3a"}, {"txinwitness": ["3045022100ccd8d5f4babe86eac59b216bbb43395c7c986c79012522f1a4e99bf2839f5e180220537043340c3f158bba1258889da5639e9c54b8d032ffd5e06291f3b91092a17d01", "03e9e3b33811713bc975008f19581b6249b7a76a19e6dd161ad5b7f316e0aa85bd"], "sequence": 4294967294, "scriptSig": {"hex": "160014c93ec231a34d6c98110faaf0fe422a8ca683a683", "asm": "0014c93ec231a34d6c98110faaf0fe422a8ca683a683"}, "vout": 0, "txid": "d11ed2baf74b6ac932db3fdb772a3001ba3276606b649d61c9ddf2c5990a68bb"}, {"txinwitness": ["304402201c544e9da170389a285def889d13cd65305c9882a42a049804fa691b88983501022011907966bcaef63a90ac7414ae5f4e802580f4cda71f1ed0ae3bb000a3daf58d01", "02a9d027db0d91b5e0bdeabedb2809d1f12c3a09ca0f0390dbd12572d96a1ef1e9"], "sequence": 4294967294, "scriptSig": {"hex": "16001446dc0940c9ffcae152987dc84a5adab7cbd4064f", "asm": "001446dc0940c9ffcae152987dc84a5adab7cbd4064f"}, "vout": 0, "txid": "9e4efe12d336754bbb255e9a57bdd412ea9d95e5fe13c09a360d94e9d0c5d2ec"}], "txid": "bf722103464bf0469f7b98a288254c91698cecdd8c85abf37e14bd2cf5012d3b", "blocktime": 1537872475, "version": 2, "confirmations": 11487, "time": 1537872475, "locktime": 0, "vsize": 439, "size": 763}