{"hash": "bf7250a45160b3c4f653caca0d483cf2b12413a9e6c2f0923c2493bc300e3789", "blockhash": "0000000000000000001f76057863aec43deb6fa401d9628bb513d65a8098bfab", "vout": [{"scriptPubKey": {"reqSigs": 1, "hex": "a91474ed9bbc227e05ff668a9c271ad9b071cdaa977c87", "addresses": ["3CMGx7WAnmAmBgE4j4SU2e4tdGT77acNjp"], "asm": "OP_HASH160 74ed9bbc227e05ff668a9c271ad9b071cdaa977c OP_EQUAL", "type": "scripthash"}, "value": 0.102769, "n": 0}], "hex": "0100000001c7fc74d476688de643e2caba02eeea31c331b04faddfb746fd94dcf55e758136000000006b483045022100dd71b935d1a9222976d7605f07aa44565442bf75e6e38a8079b6c32e110283e90220271533e9f775cbc4462f179704edd2db3accf2d5bb730ec70c2164836fcb944e012102553dc6d097f5f0ca1d9687dd8f5ee4d22883f7272aa5b60c953ba790c2740841ffffffff0124d09c000000000017a91474ed9bbc227e05ff668a9c271ad9b071cdaa977c8700000000", "vin": [{"sequence": 4294967295, "scriptSig": {"hex": "483045022100dd71b935d1a9222976d7605f07aa44565442bf75e6e38a8079b6c32e110283e90220271533e9f775cbc4462f179704edd2db3accf2d5bb730ec70c2164836fcb944e012102553dc6d097f5f0ca1d9687dd8f5ee4d22883f7272aa5b60c953ba790c2740841", "asm": "3045022100dd71b935d1a9222976d7605f07aa44565442bf75e6e38a8079b6c32e110283e90220271533e9f775cbc4462f179704edd2db3accf2d5bb730ec70c2164836fcb944e[ALL] 02553dc6d097f5f0ca1d9687dd8f5ee4d22883f7272aa5b60c953ba790c2740841"}, "vout": 0, "txid": "3681755ef5dc94fd46b7dfad4fb031c331eaee02bacae243e68d6876d474fcc7"}], "txid": "bf7250a45160b3c4f653caca0d483cf2b12413a9e6c2f0923c2493bc300e3789", "blocktime": 1537873891, "version": 1, "confirmations": 11474, "time": 1537873891, "locktime": 0, "vsize": 190, "size": 190}