{"hash": "f8dbe1c6e577c25ea235767eded8f53dc9b7011e71894999f295bf0a970d073f", "blockhash": "000000000000000000022b45ed06c6f4ccd3cf7fb5ba4856ebd2e58215665228", "vout": [{"scriptPubKey": {"reqSigs": 1, "hex": "a9145d4f63c8c4670aa2287daee080b2ddaaf540b9c587", "addresses": ["3ACPsUxEunPXhp9VUAhnYtY4ZMCFZKNFEn"], "asm": "OP_HASH160 5d4f63c8c4670aa2287daee080b2ddaaf540b9c5 OP_EQUAL", "type": "scripthash"}, "value": 0.0021, "n": 0}, {"scriptPubKey": {"reqSigs": 1, "hex": "a914627aa52932456d89054bd84f86246af3b71b93a887", "addresses": ["3Afj4stdiLG9EktGrMbm252ySonnhYaz8v"], "asm": "OP_HASH160 627aa52932456d89054bd84f86246af3b71b93a8 OP_EQUAL", "type": "scripthash"}, "value": 0.8114347, "n": 1}], "hex": "01000000000101e5486d1e7a33e4c743727b850fe52b59cd50825d099f04b035a51ae42c854e3c01000000232200205fdd641234b13964b223bd85ad2a4a667ca2099df3d42a1d3b45706a8d81abf0ffffffff02503403000000000017a9145d4f63c8c4670aa2287daee080b2ddaaf540b9c587ae26d6040000000017a914627aa52932456d89054bd84f86246af3b71b93a88704004830450221008664e98054a718565f0b6a3c904b8b0dfe65f90b0d45d6ebf8de7e78c410d4df02201f068edd0a20ceedc7b711b648e71a56ca367f373ea01dbb00a0d49c9052816801483045022100f9dd097275b6c487156e439b79e11b23128120db3cfaf211c401f51c55a38249022041ecb9c1bccc69dc8879b2cb29b0e35dcf90c8170b3ebfd207a434811e7477520147522103dcde3832fa56def7b4e783faad1b8af85c3cdd74a5ff4f3c7c216b1075c18da12103c70ae8ded79be1afda73b9ce5ea14a3878908ee160d66a9a717e792bb6db276952ae00000000", "vin": [{"txinwitness": ["", "30450221008664e98054a718565f0b6a3c904b8b0dfe65f90b0d45d6ebf8de7e78c410d4df02201f068edd0a20ceedc7b711b648e71a56ca367f373ea01dbb00a0d49c9052816801", "3045022100f9dd097275b6c487156e439b79e11b23128120db3cfaf211c401f51c55a38249022041ecb9c1bccc69dc8879b2cb29b0e35dcf90c8170b3ebfd207a434811e74775201", "522103dcde3832fa56def7b4e783faad1b8af85c3cdd74a5ff4f3c7c216b1075c18da12103c70ae8ded79be1afda73b9ce5ea14a3878908ee160d66a9a717e792bb6db276952ae"], "sequence": 4294967295, "scriptSig": {"hex": "2200205fdd641234b13964b223bd85ad2a4a667ca2099df3d42a1d3b45706a8d81abf0", "asm": "00205fdd641234b13964b223bd85ad2a4a667ca2099df3d42a1d3b45706a8d81abf0"}, "vout": 1, "txid": "3c4e852ce41aa535b0049f095d8250cd592be50f857b7243c7e4337a1e6d48e5"}], "txid": "bf731faf6e0742c1514e9a5d956012be067306360e0f02cbdfef85bdfa1ec0fc", "blocktime": 1537869901, "version": 1, "confirmations": 11523, "time": 1537869901, "locktime": 0, "vsize": 206, "size": 372}