{"hash": "bf73dca7d10312404d7861b48443300ce025807bfe713aabf083d2031477d412", "blockhash": "00000000000000000017f5eb5941039fbcee6240d03bc1f2f8e35350df66a1d8", "vout": [{"scriptPubKey": {"reqSigs": 1, "hex": "a914f184ee08efc58f720b1768aafa7651bd0ffcd4ff87", "addresses": ["3Pi41uD78rvFyv6iypDqGe6trJUxnKziKW"], "asm": "OP_HASH160 f184ee08efc58f720b1768aafa7651bd0ffcd4ff OP_EQUAL", "type": "scripthash"}, "value": 0.04589222, "n": 0}], "hex": "0100000001ac7dfe5a47323063d65cc3b7088d32d8c5511882a3d3c8e4e15c961726be96a1000000006a47304402203e3af8f9fa33e59c151243c177a519fd8ed3d36e922495b1307fe8e0904e769d02201750dfea9ceb4880b5a12ba41bf336945e5e0dda477aaa8e917240fdfbf6dfac012103d1c38bda7f2c86a6d72cf0e2134b64dc2aecd1f05d1bffc22d1f190fa988a5d3ffffffff01a60646000000000017a914f184ee08efc58f720b1768aafa7651bd0ffcd4ff8700000000", "vin": [{"sequence": 4294967295, "scriptSig": {"hex": "47304402203e3af8f9fa33e59c151243c177a519fd8ed3d36e922495b1307fe8e0904e769d02201750dfea9ceb4880b5a12ba41bf336945e5e0dda477aaa8e917240fdfbf6dfac012103d1c38bda7f2c86a6d72cf0e2134b64dc2aecd1f05d1bffc22d1f190fa988a5d3", "asm": "304402203e3af8f9fa33e59c151243c177a519fd8ed3d36e922495b1307fe8e0904e769d02201750dfea9ceb4880b5a12ba41bf336945e5e0dda477aaa8e917240fdfbf6dfac[ALL] 03d1c38bda7f2c86a6d72cf0e2134b64dc2aecd1f05d1bffc22d1f190fa988a5d3"}, "vout": 0, "txid": "a196be2617965ce1e4c8d3a3821851c5d8328d08b7c35cd6633032475afe7dac"}], "txid": "bf73dca7d10312404d7861b48443300ce025807bfe713aabf083d2031477d412", "blocktime": 1537874412, "version": 1, "confirmations": 11467, "time": 1537874412, "locktime": 0, "vsize": 189, "size": 189}