{"hash": "bf74a614b2e9113ce00abf0e21d9c7c8711b66b63c10d0d4b758308b4d52f829", "blockhash": "0000000000000000001cda96e906b7601b7a6fb1a3b62bca570a9e5d8f4b3de1", "vout": [{"scriptPubKey": {"reqSigs": 1, "hex": "76a914189417c7c2ff1f199fc582f54d47d48282a6016e88ac", "addresses": ["13ExdH9hSEXGPVAcUtLaEp4qeKVpKtYNJv"], "asm": "OP_DUP OP_HASH160 189417c7c2ff1f199fc582f54d47d48282a6016e OP_EQUALVERIFY OP_CHECKSIG", "type": "pubkeyhash"}, "value": 0.00344639, "n": 0}, {"scriptPubKey": {"reqSigs": 1, "hex": "76a9147d062f9d43eae2f359ad8f96d69cd304a8e6b6c388ac", "addresses": ["1CQ4snmjmPVT1siGNKGrXMRLGwebbinLCM"], "asm": "OP_DUP OP_HASH160 7d062f9d43eae2f359ad8f96d69cd304a8e6b6c3 OP_EQUALVERIFY OP_CHECKSIG", "type": "pubkeyhash"}, "value": 3.683e-05, "n": 1}], "hex": "0100000001d4d95bb7559d530a4ae4265b9b94d753dbcd440f687c53c1b87e377142d48a2c190000006a4730440220291d6cc93bbb0ac4d154dd4237ecdf5a6f5d434056c52ae661b160e9fcc175550220693f32372435f6f2a4e64b31a72e9c43a7e6a7858433c00ee2efd5096c581755012102fd80dbe702599f3eb0bd9fe23b617d4af36b950cc845fc3fcd4b3b8dfc839681ffffffff023f420500000000001976a914189417c7c2ff1f199fc582f54d47d48282a6016e88ac630e0000000000001976a9147d062f9d43eae2f359ad8f96d69cd304a8e6b6c388ac00000000", "vin": [{"sequence": 4294967295, "scriptSig": {"hex": "4730440220291d6cc93bbb0ac4d154dd4237ecdf5a6f5d434056c52ae661b160e9fcc175550220693f32372435f6f2a4e64b31a72e9c43a7e6a7858433c00ee2efd5096c581755012102fd80dbe702599f3eb0bd9fe23b617d4af36b950cc845fc3fcd4b3b8dfc839681", "asm": "30440220291d6cc93bbb0ac4d154dd4237ecdf5a6f5d434056c52ae661b160e9fcc175550220693f32372435f6f2a4e64b31a72e9c43a7e6a7858433c00ee2efd5096c581755[ALL] 02fd80dbe702599f3eb0bd9fe23b617d4af36b950cc845fc3fcd4b3b8dfc839681"}, "vout": 25, "txid": "2c8ad44271377eb8c1537c680f44cddb53d7949b5b26e44a0a539d55b75bd9d4"}], "txid": "bf74a614b2e9113ce00abf0e21d9c7c8711b66b63c10d0d4b758308b4d52f829", "blocktime": 1537873282, "version": 1, "confirmations": 11480, "time": 1537873282, "locktime": 0, "vsize": 225, "size": 225}