{"hash": "bf778ebc22bfb5cc572f813f1071af5be5da776740790264f087bfb1dcff5e66", "blockhash": "0000000000000000000dcc0f55137456b1a82d3642486a52398922ac4d620174", "vout": [{"scriptPubKey": {"reqSigs": 1, "hex": "a914cba67c35fdc05feceba20002d65e560214a2999187", "addresses": ["3LFpY5aVVkyFwkeJTA6HVS3ey3E1E4HfC2"], "asm": "OP_HASH160 cba67c35fdc05feceba20002d65e560214a29991 OP_EQUAL", "type": "scripthash"}, "value": 6.034e-05, "n": 0}, {"scriptPubKey": {"reqSigs": 1, "hex": "a91423856986f6e084298777c9f85f3bcb2dc144d37e87", "addresses": ["34vqPuDT4A5GDFwDoHEDY5Bj3kcmNq4AJk"], "asm": "OP_HASH160 23856986f6e084298777c9f85f3bcb2dc144d37e OP_EQUAL", "type": "scripthash"}, "value": 0.00945541, "n": 1}, {"scriptPubKey": {"reqSigs": 1, "hex": "76a9145b4998878f342745fcdeb6f776d8429ad768f95d88ac", "addresses": ["19Kgez477xcCSaPUzbKsgmQkef842ixfHZ"], "asm": "OP_DUP OP_HASH160 5b4998878f342745fcdeb6f776d8429ad768f95d OP_EQUALVERIFY OP_CHECKSIG", "type": "pubkeyhash"}, "value": 0.00013021, "n": 2}], "hex": "01000000038dc8d2de78a9aee49ceb7b566823d8cd974b914c0118382f51a289a83eb51cd000000000da00473044022024fe7a4a7ca93b4cc61c0b67805413cba656d0fc103d349ab94bad6fe8a55fed02206f641386db6fa1fd50a88872b3995d944ece6f78e80b6302db8aaff7a544b9af01483045022100cef011e7a55267454089e1dbfccf9236fd244f1c921495040a9d5721c98613b1022008211a053c8b5746a565096d4a0e189ea930a7bbe58d0a914de7193b7de4898701475221022a170a54feef443dfdd778b8a84ef36575bb4b5f6f54b5bdf7ddfbbfd2eda3c22102907a54bed8ad74b3f35638c60114ca240a308cb986f3f2f306178869a8880b6152aeffffffffcef5ca32bf921d674143af68579106543e4fb1b4e57b6dcbe1762e599c580ed500000000da00483045022100be6927a104833298afb49f92b23cecd625674d437c37a010e9ec2442ac3dae20022077cdb35fa2b2025567a8abdcedf573f3194be1e619c9ee1cf0576e6badc9fdc7014730440220604a1a4819144486021b05141d64cea6b054a9eada9d7afdedb63a960d7ef5b802205ead00fc8b2e70ca2934ad50629005bde83f3d2724d6e9862d20690aee40e96c0147522102907a54bed8ad74b3f35638c60114ca240a308cb986f3f2f306178869a8880b6121032940853f97bd87f3a3864df9d174dbc79ec1651f61cc0dda5f360c744161ebcc52aeffffffff6ec888dcdfeef69b7fbf4b7a991cf84bd8956fb08b3b99b2e1a2cf4285ba7bff020000006b48304502210094d651bce6fc45eaf4551d32f8476a3ec0850f51ab47fdef48965e435a905c8a0220745544afa44c5e13ddde5c9fbd62579750cf7719a7efa9c9e55e89c0703eb8960121021660f964024552d9a19490cb2a8d08684264ab5125d1f983e6d1cb3e2464628effffffff03921700000000000017a914cba67c35fdc05feceba20002d65e560214a2999187856d0e000000000017a91423856986f6e084298777c9f85f3bcb2dc144d37e87dd320000000000001976a9145b4998878f342745fcdeb6f776d8429ad768f95d88ac00000000", "vin": [{"sequence": 4294967295, "scriptSig": {"hex": "00473044022024fe7a4a7ca93b4cc61c0b67805413cba656d0fc103d349ab94bad6fe8a55fed02206f641386db6fa1fd50a88872b3995d944ece6f78e80b6302db8aaff7a544b9af01483045022100cef011e7a55267454089e1dbfccf9236fd244f1c921495040a9d5721c98613b1022008211a053c8b5746a565096d4a0e189ea930a7bbe58d0a914de7193b7de4898701475221022a170a54feef443dfdd778b8a84ef36575bb4b5f6f54b5bdf7ddfbbfd2eda3c22102907a54bed8ad74b3f35638c60114ca240a308cb986f3f2f306178869a8880b6152ae", "asm": "0 3044022024fe7a4a7ca93b4cc61c0b67805413cba656d0fc103d349ab94bad6fe8a55fed02206f641386db6fa1fd50a88872b3995d944ece6f78e80b6302db8aaff7a544b9af[ALL] 3045022100cef011e7a55267454089e1dbfccf9236fd244f1c921495040a9d5721c98613b1022008211a053c8b5746a565096d4a0e189ea930a7bbe58d0a914de7193b7de48987[ALL] 5221022a170a54feef443dfdd778b8a84ef36575bb4b5f6f54b5bdf7ddfbbfd2eda3c22102907a54bed8ad74b3f35638c60114ca240a308cb986f3f2f306178869a8880b6152ae"}, "vout": 0, "txid": "d01cb53ea889a2512f3818014c914b97cdd82368567beb9ce4aea978ded2c88d"}, {"sequence": 4294967295, "scriptSig": {"hex": "00483045022100be6927a104833298afb49f92b23cecd625674d437c37a010e9ec2442ac3dae20022077cdb35fa2b2025567a8abdcedf573f3194be1e619c9ee1cf0576e6badc9fdc7014730440220604a1a4819144486021b05141d64cea6b054a9eada9d7afdedb63a960d7ef5b802205ead00fc8b2e70ca2934ad50629005bde83f3d2724d6e9862d20690aee40e96c0147522102907a54bed8ad74b3f35638c60114ca240a308cb986f3f2f306178869a8880b6121032940853f97bd87f3a3864df9d174dbc79ec1651f61cc0dda5f360c744161ebcc52ae", "asm": "0 3045022100be6927a104833298afb49f92b23cecd625674d437c37a010e9ec2442ac3dae20022077cdb35fa2b2025567a8abdcedf573f3194be1e619c9ee1cf0576e6badc9fdc7[ALL] 30440220604a1a4819144486021b05141d64cea6b054a9eada9d7afdedb63a960d7ef5b802205ead00fc8b2e70ca2934ad50629005bde83f3d2724d6e9862d20690aee40e96c[ALL] 522102907a54bed8ad74b3f35638c60114ca240a308cb986f3f2f306178869a8880b6121032940853f97bd87f3a3864df9d174dbc79ec1651f61cc0dda5f360c744161ebcc52ae"}, "vout": 0, "txid": "d50e589c592e76e1cb6d7be5b4b14f3e5406915768af4341671d92bf32caf5ce"}, {"sequence": 4294967295, "scriptSig": {"hex": "48304502210094d651bce6fc45eaf4551d32f8476a3ec0850f51ab47fdef48965e435a905c8a0220745544afa44c5e13ddde5c9fbd62579750cf7719a7efa9c9e55e89c0703eb8960121021660f964024552d9a19490cb2a8d08684264ab5125d1f983e6d1cb3e2464628e", "asm": "304502210094d651bce6fc45eaf4551d32f8476a3ec0850f51ab47fdef48965e435a905c8a0220745544afa44c5e13ddde5c9fbd62579750cf7719a7efa9c9e55e89c0703eb896[ALL] 021660f964024552d9a19490cb2a8d08684264ab5125d1f983e6d1cb3e2464628e"}, "vout": 2, "txid": "ff7bba8542cfa2e1b2993b8bb06f95d84bf81c997a4bbf7f9bf6eedfdc88c86e"}], "txid": "bf778ebc22bfb5cc572f813f1071af5be5da776740790264f087bfb1dcff5e66", "blocktime": 1537870268, "version": 1, "confirmations": 11518, "time": 1537870268, "locktime": 0, "vsize": 774, "size": 774}