{"hash": "6162ce4670fce681233b4102a646c09d5c04922af40615eb23aec6cf3a536157", "blockhash": "0000000000000000000e13cef7c366c0283d82e591d1acd082e914b08063cdf1", "vout": [{"scriptPubKey": {"reqSigs": 1, "hex": "a914228bdcf6e94996e3b3f9886af3feb6bf7adc061987", "addresses": ["34qgSvkMt3rEBpqUp7Tt4QfEDxEnsTJ7vj"], "asm": "OP_HASH160 228bdcf6e94996e3b3f9886af3feb6bf7adc0619 OP_EQUAL", "type": "scripthash"}, "value": 0.2900172, "n": 0}], "hex": "010000000001018e882b127f5899c4c49399bdaa34afa49e75f17bc6bf8892f55e7f783ca4c8bd01000000171600140b0885e3d6e7c462b8ade6ebcaa9d2c271c0b8d1ffffffff01f887ba010000000017a914228bdcf6e94996e3b3f9886af3feb6bf7adc061987024730440220341d5f72a2ef8c51180c8085839d14adfcb9c510f26c668c519b7a8d5e4c6d5602207c50f536459f1c58bec72a8872c510d731b62f77cf022c51a9e743b79a23dc000121026c1bbd931db0f2e7b14c1dd305469f51dc3d35d8971a848616a76e820b73fd2700000000", "vin": [{"txinwitness": ["30440220341d5f72a2ef8c51180c8085839d14adfcb9c510f26c668c519b7a8d5e4c6d5602207c50f536459f1c58bec72a8872c510d731b62f77cf022c51a9e743b79a23dc0001", "026c1bbd931db0f2e7b14c1dd305469f51dc3d35d8971a848616a76e820b73fd27"], "sequence": 4294967295, "scriptSig": {"hex": "1600140b0885e3d6e7c462b8ade6ebcaa9d2c271c0b8d1", "asm": "00140b0885e3d6e7c462b8ade6ebcaa9d2c271c0b8d1"}, "vout": 1, "txid": "bdc8a43c787f5ef59288bfc67bf1759ea4af34aabd9993c4c499587f122b888e"}], "txid": "bf782ecb93c1a40121a120da4cfdda061718b3751dad04f995dc50149799ad25", "blocktime": 1537871767, "version": 1, "confirmations": 11493, "time": 1537871767, "locktime": 0, "vsize": 134, "size": 215}