{"hash": "bf7eacbed8bf511c8a4efcdfcb86fc6da1bab6942fb0028449e4637f19cd1247", "blockhash": "0000000000000000000dcc0f55137456b1a82d3642486a52398922ac4d620174", "vout": [{"scriptPubKey": {"reqSigs": 1, "hex": "a914c363ce56d930c4966b6a1055fb3792e2fb2e0ed687", "addresses": ["3KW9FbQYComgiiCfyLyjmzVE1FvfrTiDWd"], "asm": "OP_HASH160 c363ce56d930c4966b6a1055fb3792e2fb2e0ed6 OP_EQUAL", "type": "scripthash"}, "value": 0.47989171, "n": 0}], "hex": "0100000002f4d790a6a454d966ee3db4a12268bd7008a24d468ffcc039ba9493501c0685ea000000006b483045022100e4592d246b444bd26faf78636594d1a0267bdeb145c919e0636f30865d20e12902206e0535f0086f4604681d0ae5f138fc1a8bfaa7febe58c00121eae7b4a83a82b8012102f0603785152ab99fc74f8788659268914224d198a528645f7a15549a0527d253ffffffff67e9e7b6e21c78612f76d47bf46c464b55728bd331c2eb7e89f039c4d689ba68000000006b483045022100c020d11a1b73c49ef2e8302f758d2480c3ec28d6d40f7d777b69c16bdfbab6a902202e3e71739c219660c9202f08e80cc14f3e41ae98c780950ce70756de1f30a81c012102f0603785152ab99fc74f8788659268914224d198a528645f7a15549a0527d253ffffffff01b341dc020000000017a914c363ce56d930c4966b6a1055fb3792e2fb2e0ed68700000000", "vin": [{"sequence": 4294967295, "scriptSig": {"hex": "483045022100e4592d246b444bd26faf78636594d1a0267bdeb145c919e0636f30865d20e12902206e0535f0086f4604681d0ae5f138fc1a8bfaa7febe58c00121eae7b4a83a82b8012102f0603785152ab99fc74f8788659268914224d198a528645f7a15549a0527d253", "asm": "3045022100e4592d246b444bd26faf78636594d1a0267bdeb145c919e0636f30865d20e12902206e0535f0086f4604681d0ae5f138fc1a8bfaa7febe58c00121eae7b4a83a82b8[ALL] 02f0603785152ab99fc74f8788659268914224d198a528645f7a15549a0527d253"}, "vout": 0, "txid": "ea85061c509394ba39c0fc8f464da20870bd6822a1b43dee66d954a4a690d7f4"}, {"sequence": 4294967295, "scriptSig": {"hex": "483045022100c020d11a1b73c49ef2e8302f758d2480c3ec28d6d40f7d777b69c16bdfbab6a902202e3e71739c219660c9202f08e80cc14f3e41ae98c780950ce70756de1f30a81c012102f0603785152ab99fc74f8788659268914224d198a528645f7a15549a0527d253", "asm": "3045022100c020d11a1b73c49ef2e8302f758d2480c3ec28d6d40f7d777b69c16bdfbab6a902202e3e71739c219660c9202f08e80cc14f3e41ae98c780950ce70756de1f30a81c[ALL] 02f0603785152ab99fc74f8788659268914224d198a528645f7a15549a0527d253"}, "vout": 0, "txid": "68ba89d6c439f0897eebc231d38b72554b466cf47bd4762f61781ce2b6e7e967"}], "txid": "bf7eacbed8bf511c8a4efcdfcb86fc6da1bab6942fb0028449e4637f19cd1247", "blocktime": 1537870268, "version": 1, "confirmations": 11516, "time": 1537870268, "locktime": 0, "vsize": 338, "size": 338}