{"hash": "e567cb8b028e360be5dc6089259eaf5ca9037942116382aae1193eb90579c1aa", "blockhash": "0000000000000000001e0dab787dd257d1dbfcb92a98c2207d5e1078be1f4165", "vout": [{"scriptPubKey": {"reqSigs": 1, "hex": "a91415a1fcfc45281e500759260cbddd207d965e703f87", "addresses": ["33fQAiDBjEGNkXEsxx53CdZ8fh5FMdsGTZ"], "asm": "OP_HASH160 15a1fcfc45281e500759260cbddd207d965e703f OP_EQUAL", "type": "scripthash"}, "value": 18.0, "n": 0}, {"scriptPubKey": {"reqSigs": 1, "hex": "a91431a26a5e17215ab37dd05acf434d0d3b7532097b87", "addresses": ["36DTbmcrcmkwxZReRrWmmFepcDKexzzo1H"], "asm": "OP_HASH160 31a26a5e17215ab37dd05acf434d0d3b7532097b OP_EQUAL", "type": "scripthash"}, "value": 0.15788479, "n": 1}, {"scriptPubKey": {"reqSigs": 1, "hex": "0020701a8d401c84fb13e6baf169d59684e17abd9fa216c8cc5b9fc63d622ff8c58d", "addresses": ["bc1qwqdg6squsna38e46795at95yu9atm8azzmyvckulcc7kytlcckxswvvzej"], "asm": "0 701a8d401c84fb13e6baf169d59684e17abd9fa216c8cc5b9fc63d622ff8c58d", "type": "witness_v0_scripthash"}, "value": 1.85171521, "n": 2}], "hex": "010000000001015530ed7937ea0b7fbcb5fa970faae8d233f6b2634925a314354f6c9a9654ebaa0600000000ffffffff0300d2496b0000000017a91415a1fcfc45281e500759260cbddd207d965e703f87bfe9f0000000000017a91431a26a5e17215ab37dd05acf434d0d3b7532097b87417e090b00000000220020701a8d401c84fb13e6baf169d59684e17abd9fa216c8cc5b9fc63d622ff8c58d0400483045022100e8c71721769c03f8aacd387d5817333e88f2e2e4951b98d9cdab3cd26292d237022061bbd5fec8a47f711037ead74d1448a310119844771d72b88ff183ef4c458f4b0147304402203ef40f805b7913cdfda719c95d19099ec04ac6d26d6ed05da389112fa37289230220439a486b417b51665347fb091fdb455dca33577c9cef09c22e617f99ba2b528e016952210375e00eb72e29da82b89367947f29ef34afb75e8654f6ea368e0acdfd92976b7c2103a1b26313f430c4b15bb1fdce663207659d8cac749a0e53d70eff01874496feff2103c96d495bfdd5ba4145e3e046fee45e84a8a48ad05bd8dbb395c011a32cf9f88053ae00000000", "vin": [{"txinwitness": ["", "3045022100e8c71721769c03f8aacd387d5817333e88f2e2e4951b98d9cdab3cd26292d237022061bbd5fec8a47f711037ead74d1448a310119844771d72b88ff183ef4c458f4b01", "304402203ef40f805b7913cdfda719c95d19099ec04ac6d26d6ed05da389112fa37289230220439a486b417b51665347fb091fdb455dca33577c9cef09c22e617f99ba2b528e01", "52210375e00eb72e29da82b89367947f29ef34afb75e8654f6ea368e0acdfd92976b7c2103a1b26313f430c4b15bb1fdce663207659d8cac749a0e53d70eff01874496feff2103c96d495bfdd5ba4145e3e046fee45e84a8a48ad05bd8dbb395c011a32cf9f88053ae"], "sequence": 4294967295, "scriptSig": {"hex": "", "asm": ""}, "vout": 6, "txid": "aaeb54969a6c4f3514a3254963b2f633d2e8aa0f97fab5bc7f0bea3779ed3055"}], "txid": "bf8329d1a40444aea953293b18033c1f0ebc2b5815103804e0f9ed8c04573f1f", "blocktime": 1537872475, "version": 1, "confirmations": 11486, "time": 1537872475, "locktime": 0, "vsize": 222, "size": 413}