{"hash": "bf859ea2907c637d5a72d02e96896a2d091e08740487c558e3c87a7560442a54", "blockhash": "0000000000000000000dcc0f55137456b1a82d3642486a52398922ac4d620174", "vout": [{"scriptPubKey": {"reqSigs": 1, "hex": "76a9141f0aa5e63b6917581e9efa32cf784fc9bc841edc88ac", "addresses": ["13q8hnaYGpgj1rbBzqRP1hFmT9S42DQBRj"], "asm": "OP_DUP OP_HASH160 1f0aa5e63b6917581e9efa32cf784fc9bc841edc OP_EQUALVERIFY OP_CHECKSIG", "type": "pubkeyhash"}, "value": 0.0011092, "n": 0}, {"scriptPubKey": {"type": "nulldata", "hex": "6a4c5000007768000194c239d3a5f2a0c06b3229de86aeaeacb577c031fc3a016b46dc7dc7d0962a9932beb338e338719ea3d50aae3e445baa0825061322343b006670bc9a9526289ac0f6612cd74e33776ee4", "asm": "OP_RETURN 00007768000194c239d3a5f2a0c06b3229de86aeaeacb577c031fc3a016b46dc7dc7d0962a9932beb338e338719ea3d50aae3e445baa0825061322343b006670bc9a9526289ac0f6612cd74e33776ee4"}, "value": 0.0, "n": 1}], "hex": "010000000199c810a94c7384e36f64396863c24e9acca06f0092f4439175e40f35960d33ed000000006a47304402202c532ef36aa892cc617720588d42463c4f6e0987406a2cb604cc1a8f63df4d3f022042a7ae6088465302bd69e03eed9cd62054d7f04dd03c76138d6947ab7a5a58910121026a708e239f130dc55fa6056a36b4c4f20363056eafa0fe031b164c3343339453ffffffff0248b10100000000001976a9141f0aa5e63b6917581e9efa32cf784fc9bc841edc88ac0000000000000000536a4c5000007768000194c239d3a5f2a0c06b3229de86aeaeacb577c031fc3a016b46dc7dc7d0962a9932beb338e338719ea3d50aae3e445baa0825061322343b006670bc9a9526289ac0f6612cd74e33776ee400000000", "vin": [{"sequence": 4294967295, "scriptSig": {"hex": "47304402202c532ef36aa892cc617720588d42463c4f6e0987406a2cb604cc1a8f63df4d3f022042a7ae6088465302bd69e03eed9cd62054d7f04dd03c76138d6947ab7a5a58910121026a708e239f130dc55fa6056a36b4c4f20363056eafa0fe031b164c3343339453", "asm": "304402202c532ef36aa892cc617720588d42463c4f6e0987406a2cb604cc1a8f63df4d3f022042a7ae6088465302bd69e03eed9cd62054d7f04dd03c76138d6947ab7a5a5891[ALL] 026a708e239f130dc55fa6056a36b4c4f20363056eafa0fe031b164c3343339453"}, "vout": 0, "txid": "ed330d96350fe4759143f492006fa0cc9a4ec2636839646fe384734ca910c899"}], "txid": "bf859ea2907c637d5a72d02e96896a2d091e08740487c558e3c87a7560442a54", "blocktime": 1537870268, "version": 1, "confirmations": 11518, "time": 1537870268, "locktime": 0, "vsize": 283, "size": 283}