{"hash": "bf86039e7d69f0d4409c4c7d3815901e5c7483e6be24cab8ae11cb14e36bf608", "blockhash": "0000000000000000001f76057863aec43deb6fa401d9628bb513d65a8098bfab", "vout": [{"scriptPubKey": {"reqSigs": 1, "hex": "76a9140850dbe502d3832f8720db3f60c27e829d02694f88ac", "addresses": ["1kyGiQZAKKLwvXbBKpdNubDXkngMFswUT"], "asm": "OP_DUP OP_HASH160 0850dbe502d3832f8720db3f60c27e829d02694f OP_EQUALVERIFY OP_CHECKSIG", "type": "pubkeyhash"}, "value": 0.03007643, "n": 0}, {"scriptPubKey": {"reqSigs": 1, "hex": "a9143130c75a20c533f688821fc8be1687a1616ccd9e87", "addresses": ["36B7U9YzM6TTBAwWqFUTSpDtYppUvnJw9G"], "asm": "OP_HASH160 3130c75a20c533f688821fc8be1687a1616ccd9e OP_EQUAL", "type": "scripthash"}, "value": 0.06566646, "n": 1}], "hex": "0100000001621844be9c8be61620bd1b0cbd7451cfcd3e7662bbc0930656fe7ff3034756f4010000006a473044022063dbf2b238d260f3084c52ae220174922cc61260005c4fc5e69a36470c759b69022032886a6e5313dec4de3e928f4baef252fa11d634d6c29c1efbf565c2fe4a81430121025667d11b8ce522c639edf53c0d78345e807f67f34ce0536c8464279cc5d4aec8ffffffff029be42d00000000001976a9140850dbe502d3832f8720db3f60c27e829d02694f88acf63264000000000017a9143130c75a20c533f688821fc8be1687a1616ccd9e8700000000", "vin": [{"sequence": 4294967295, "scriptSig": {"hex": "473044022063dbf2b238d260f3084c52ae220174922cc61260005c4fc5e69a36470c759b69022032886a6e5313dec4de3e928f4baef252fa11d634d6c29c1efbf565c2fe4a81430121025667d11b8ce522c639edf53c0d78345e807f67f34ce0536c8464279cc5d4aec8", "asm": "3044022063dbf2b238d260f3084c52ae220174922cc61260005c4fc5e69a36470c759b69022032886a6e5313dec4de3e928f4baef252fa11d634d6c29c1efbf565c2fe4a8143[ALL] 025667d11b8ce522c639edf53c0d78345e807f67f34ce0536c8464279cc5d4aec8"}, "vout": 1, "txid": "f4564703f37ffe560693c0bb62763ecdcf5174bd0c1bbd2016e68b9cbe441862"}], "txid": "bf86039e7d69f0d4409c4c7d3815901e5c7483e6be24cab8ae11cb14e36bf608", "blocktime": 1537873891, "version": 1, "confirmations": 11477, "time": 1537873891, "locktime": 0, "vsize": 223, "size": 223}