{"hash": "bf86914f388b4cacea21ce897fa5f7de0d1b4ad9a1598918148a42fcb8f01588", "blockhash": "00000000000000000004ffacab907a6b429b9a5745fa0b75af4234bf69dd7176", "vout": [{"scriptPubKey": {"reqSigs": 1, "hex": "76a9147c8a1b467789d0bd00c9ce6501a1fc2045bd304e88ac", "addresses": ["1CMWEbgFTdW5ZSYStA4W4tPftLAb4UaskX"], "asm": "OP_DUP OP_HASH160 7c8a1b467789d0bd00c9ce6501a1fc2045bd304e OP_EQUALVERIFY OP_CHECKSIG", "type": "pubkeyhash"}, "value": 0.59278192, "n": 0}], "hex": "010000000185270e594f4d627a9779e42fee3387c22c3acb0e85513db657bae5ed4b64ddc20b0000006a4730440220642cb99696e763af24c85c8d18b4c9a7400c4bd595a18e6a8467696d445674b302204b802d7a034904a38979d7cd7188120a6d644f6ccf8cc742c186960701c6a787012102d313dd23330c2155f3f09e2f619ac8b5397fc04f32010c9d12650ed4c7d96cdeffffffff0170838803000000001976a9147c8a1b467789d0bd00c9ce6501a1fc2045bd304e88ac00000000", "vin": [{"sequence": 4294967295, "scriptSig": {"hex": "4730440220642cb99696e763af24c85c8d18b4c9a7400c4bd595a18e6a8467696d445674b302204b802d7a034904a38979d7cd7188120a6d644f6ccf8cc742c186960701c6a787012102d313dd23330c2155f3f09e2f619ac8b5397fc04f32010c9d12650ed4c7d96cde", "asm": "30440220642cb99696e763af24c85c8d18b4c9a7400c4bd595a18e6a8467696d445674b302204b802d7a034904a38979d7cd7188120a6d644f6ccf8cc742c186960701c6a787[ALL] 02d313dd23330c2155f3f09e2f619ac8b5397fc04f32010c9d12650ed4c7d96cde"}, "vout": 11, "txid": "c2dd644bede5ba57b63d51850ecb3a2cc28733ee2fe479977a624d4f590e2785"}], "txid": "bf86914f388b4cacea21ce897fa5f7de0d1b4ad9a1598918148a42fcb8f01588", "blocktime": 1537875543, "version": 1, "confirmations": 11464, "time": 1537875543, "locktime": 0, "vsize": 191, "size": 191}