{"hash": "19995054408f58a2e5a42cfa9cd624487bfcf49e797a1cdc09cff0ba56eec7ff", "blockhash": "000000000000000000205f8b0775d31398ef75b89a5e8ec8d2c57b4dc0ac4c20", "vout": [{"scriptPubKey": {"reqSigs": 1, "hex": "a914610b961b5bda04478cfc7d111257fb446722d01587", "addresses": ["3AY9MBhoiAgKmojfdESmcsVmYbXkujHfuZ"], "asm": "OP_HASH160 610b961b5bda04478cfc7d111257fb446722d015 OP_EQUAL", "type": "scripthash"}, "value": 0.017152, "n": 0}, {"scriptPubKey": {"reqSigs": 1, "hex": "a9146cc997e3ff146735961b5c436d0814de93e445c187", "addresses": ["3BcEQDCFihDJNUHUCELYdvBg8NwDqUvJqY"], "asm": "OP_HASH160 6cc997e3ff146735961b5c436d0814de93e445c1 OP_EQUAL", "type": "scripthash"}, "value": 0.27847, "n": 1}, {"scriptPubKey": {"reqSigs": 1, "hex": "76a914e28ae7309a289b36f7b32e2939647085710ab2cf88ac", "addresses": ["1Mer7WY6BqcWzLcTjLt1HN3qksLyX7x714"], "asm": "OP_DUP OP_HASH160 e28ae7309a289b36f7b32e2939647085710ab2cf OP_EQUALVERIFY OP_CHECKSIG", "type": "pubkeyhash"}, "value": 0.1165, "n": 2}, {"scriptPubKey": {"reqSigs": 1, "hex": "a9146ad306a749dc1c7d038ba7f2a4526bbb5625bf6f87", "addresses": ["3BRrMDkRGB8Y1nLgWLdjpNMkdp4TDjrotS"], "asm": "OP_HASH160 6ad306a749dc1c7d038ba7f2a4526bbb5625bf6f OP_EQUAL", "type": "scripthash"}, "value": 0.03028, "n": 3}, {"scriptPubKey": {"reqSigs": 1, "hex": "76a9141f8dd6c37f5e6fa370c5f4e4a70e3883604a530688ac", "addresses": ["13sqs665LSxtZTYMjMZcCNyXWYknSVrNZ3"], "asm": "OP_DUP OP_HASH160 1f8dd6c37f5e6fa370c5f4e4a70e3883604a5306 OP_EQUALVERIFY OP_CHECKSIG", "type": "pubkeyhash"}, "value": 0.1299, "n": 4}, {"scriptPubKey": {"reqSigs": 1, "hex": "a9141a15f699f00f56d5b9fac2fc4d16e8f3ec5974d487", "addresses": ["344woZrSSzt3eGKZEWozSVehu26jVupApB"], "asm": "OP_HASH160 1a15f699f00f56d5b9fac2fc4d16e8f3ec5974d4 OP_EQUAL", "type": "scripthash"}, "value": 0.35084, "n": 5}, {"scriptPubKey": {"reqSigs": 1, "hex": "76a9145868cfbecabfb5ab920cee1990f9fcac443035bb88ac", "addresses": ["194U2K6xEczQJk7re5t3NHGAFzq3WFMnTW"], "asm": "OP_DUP OP_HASH160 5868cfbecabfb5ab920cee1990f9fcac443035bb OP_EQUALVERIFY OP_CHECKSIG", "type": "pubkeyhash"}, "value": 0.14347, "n": 6}, {"scriptPubKey": {"reqSigs": 1, "hex": "a91474b7a6a2bc2fe2d1a4bb6372049a06b9d5eb563087", "addresses": ["3CLAK5vioehDDCi9GHyezUGobMDu6TLYU1"], "asm": "OP_HASH160 74b7a6a2bc2fe2d1a4bb6372049a06b9d5eb5630 OP_EQUAL", "type": "scripthash"}, "value": 0.555, "n": 7}, {"scriptPubKey": {"reqSigs": 1, "hex": "a91408d718236a6adf3c92875b503ec8affaef66bc3187", "addresses": ["32Vm16Gj1pFzRydn15ZBoC2NiTagdUVGAx"], "asm": "OP_HASH160 08d718236a6adf3c92875b503ec8affaef66bc31 OP_EQUAL", "type": "scripthash"}, "value": 1.0095, "n": 8}, {"scriptPubKey": {"reqSigs": 1, "hex": "76a914011636e987770361c666fe988a0373ceebc85c2788ac", "addresses": ["16kHgadRbw4nWaHZJeAhwAfgp7VwvQ9i6"], "asm": "OP_DUP OP_HASH160 011636e987770361c666fe988a0373ceebc85c27 OP_EQUALVERIFY OP_CHECKSIG", "type": "pubkeyhash"}, "value": 0.03084, "n": 9}, {"scriptPubKey": {"reqSigs": 1, "hex": "a91471845bee102b68d2149698dcd92753d9e209323087", "addresses": ["3C3Eqh6jHmf8tDDUCHwUrE81NWFcnu3XEo"], "asm": "OP_HASH160 71845bee102b68d2149698dcd92753d9e2093230 OP_EQUAL", "type": "scripthash"}, "value": 3.87925758, "n": 10}], "hex": "0100000000010a607f06c834e304361d16136340d82ef9b6d432194aee157714601ebef89d225f0e00000023220020f0f33725cccc985140c165ffd464194f820a2b675fd0effd7db7732bf9b926a3ffffffff7f92b93fce0df5ea5b77d5150378cacfd8e4903e335048bfbbe3e1545415cfa301000000232200203e1f28ca2ce002b78f82bd459578f11c1bbe0cf334caeeb3bd75f7d2c3c6b6dbffffffff51aa78bd95a8633908e3a54598de231c749bb6ef082efd4ff999a6e658d5c02a0000000023220020fe501d03526155beb3ef97af9c7c27f2e68669fe68e53f7ddaa51fc602f7fdcdffffffffd9a8146ffc92406916880a83199b1f96186ef1a495b9a7ef0a84c98864f5b99701000000232200203edb040081ee8fceed689e31c79cb67e781d33e85758f903edcd70ef4b75001dffffffff735e436216e803cd5f28b5b9cb2633c551f532e1718fcf6322cac9ffafa5471a000000002322002055d9275f9057f2573c93a246dd9581763f3eddef1fdefcd2c59339cbbdbd6b36ffffffffe06a4b7cdc1fa8266b40d19b4527eedece3b7b213d6565003959764e76db4daf010000002322002097a4d92dc058ca332ff7fcd20b4e511d40bfb52366a9a0583d07a7bb34c879c8ffffffff156243204a9ca5423520c73ae2afede0739c5c15ae730fd143859edd7040b4b700000000232200204f9bbcdc5a29124e214618340348e46e0b53a15970e328c13c0ffdf79a47f4cdffffffff3416f5cde82a4d4cbd82ebc1194e9228b115525a8263d57cfbfc1d8e185f246a0000000023220020afe596952cfe7e7bf85534fe38b42671176e45922dd7d175a97a7f8c049a3b20ffffffff7a54cf5611994728f9c2b76b19fa7ff8d0b6c3eb965e3817b7e56c3cd72518ae000000002322002022bd25930ddbdbfefc7a280c1315c8d8f306dafb1f14922b4b5b3fdb44a9eb46ffffffff138e8b9d1e4c6621c822dae63bda6103cce3bce62c7cf2d1f5e97ff3dc8078420a00000023220020222bf520bdfecbbfc7e182386a121af4b10bfd26f075a703a0cb9781b117f65cffffffff0b002c1a000000000017a914610b961b5bda04478cfc7d111257fb446722d0158758e9a8010000000017a9146cc997e3ff146735961b5c436d0814de93e445c187d0c3b100000000001976a914e28ae7309a289b36f7b32e2939647085710ab2cf88ac20342e000000000017a9146ad306a749dc1c7d038ba7f2a4526bbb5625bf6f873036c600000000001976a9141f8dd6c37f5e6fa370c5f4e4a70e3883604a530688ace05617020000000017a9141a15f699f00f56d5b9fac2fc4d16e8f3ec5974d487f8eada00000000001976a9145868cfbecabfb5ab920cee1990f9fcac443035bb88ace0dc4e030000000017a91474b7a6a2bc2fe2d1a4bb6372049a06b9d5eb563087f05f04060000000017a91408d718236a6adf3c92875b503ec8affaef66bc3187e00e2f00000000001976a914011636e987770361c666fe988a0373ceebc85c2788acfe461f170000000017a91471845bee102b68d2149698dcd92753d9e2093230870400483045022100b3a56daddcf795db260dd49d66b9e77ce364b93c6db888d77a27689f196f7cc9022004cf81564ea47f24d2aacb093addb9f54747b31e77d23bbf30ccf9afd760061b01483045022100a432c6a3a9b38349f40a4249a8be605e084702f42ea41ac3aea870b389f43ee5022022f9ba205d98d864aefd3e20d7452d7c296511bd9fe4a935153de98ce3363a3f0169522103530e3f1fec727fef138095291a49afad949c9a03ccb6161336b1bc1910db9d9921029493242628a1a54b3a6e7aa9047498e383ac09e5a4f6bd5ceffb862a8c452ec6210319d188cb0c66ee978bcfe0e4acfa7df161488b81dd3818b42765d371da80262253ae0400473044022013663acba701e22387da9151c068c519b28de83809ffcb584fe91b462d2a1deb0220355a73de974248dab7c45b9b59562e8af512977feabe51ffb2d6af694fe0584001473044022023f9adf66e22d703f2b4ece17254f770a8259b1d2103486a1b06cf55441e5ec502202c8415c6a94b09bd837a57425e920b09d7c71d7f7ea37ddadd8f250fc7797b570169522103a61b124a2f7a0b7d4671196fa9a9d3a53b91e16c5687a3611153eb740aad7a422102d708282f2698346d504ab73af3091afe345afe7525bb18671151088f0172c15821038cdfd1bc49912d607ba3fe5028e28e952ab814b24517c17de7428624977ad47053ae04004730440220277647ad453ecddfc47019639d5b29f312829ea6683d6e80e7dd6ded55ef54a102203b3964953f07faf25493e8f46e16538034a56d986d604667974278e7bdbec1310147304402205a0f8655f79e1397bdc35e0ed95a4304320d4d13979fbc5ecac75cb39c3b501d0220387b00d2c55ae53c535daa533ff7132dd07a14260102c3ffada4b46813bb0eb90169522103e73ab6e6e384c7fbcccad7a0374889d4706b240d377f408ec7d84a0303064a0f2103379f72055f27fb18a9474fd18995cd3d6697398f619ad80b0bb1a7c27222204b21031c3b2457559f375394222744ca29b93c545ab96c0ec789337e5f147aed1f64ef53ae040047304402207ca466f3647765d6b419195e8bd0a3cd2d79732e59e63172941b25f2b0f9accc02203e6f4784677766cd26fb2550227050150518a6d0a264a37778884cf16ebaf7e601483045022100a4b4506b99fe322430949b9732bed7cd535cee8f0b220a5e1ec741a67118ddf302203675723d878632beeedc87703c71e97a9ba9d6c6cddf8433bb9e4dfbbe7a187e01695221038acc7e5bd34e1198341f6c5561eba4580ce930ebfd78e9705fa51aaa34b8035b2103a40b87c3a637f4ab9b4cfadcf0537bfb71753b4f070e896eeeb0615bb21024f12103dbbc3ab658aef4b292042c3e99de6affcf573249a40bd6c225e4d84168bd01b253ae0400473044022060de34fea030feef6a97dc82742c0d212ce8ddd25c608705b4ca0780ed92d9a9022011959faaedbe476f88622575ae9af08ecada614c1874420d69d6935318eb16770147304402202102a65e556ea09645ef06562e0a608cca99c6b50e4bcd518dd8f9f7ed645a03022049129590900209719547a57a1ea616bd249d04f4f0e0a3fb4c3a58c3bda69a9f0169522103b027e36cfc05c69f5a02cb7469dea3c1844949388406e369750a284c57ac5822210375ebb6d53613c0e44cbf9d843f3acc203b80e8cc448847ac2fad4d683a8f71612102727f2a132e0fc7a99f7184b84abf4b600b69c53897f9939a3b7517d0d5e89d4253ae04004730440220715c54aad0019754819982a966fe956911b8073e599e6720eed47b880ec04f3802207a2ee0e33008d2ddbb0c508fb349df9417167a6bc97eb825687cc3f12a8b301401483045022100aade6f02d43fd7a9c92dea0b6f176a151d8e826843e597f10dcae70de367138202200568860fbd54418111ff10b28c4ca84d509775c8e2d50c75e6a69addc7e46ede01695221037e00ff41788a51e7597cad022227939d897420b8cb8b311d4398d29cb30ac406210348484e0938ee870464fafe7e071bc9ec6b0463a06058b9fc50d9356b5771020a2103347f5eaf76a160236bd0dee3de3a17f3daeb3c9ad9db7f1cd863ece724208c5453ae040047304402201a8e790de9c5e835ced864fa1cdc03534c4726753af6f204eb0b4991302c1ecf02203fc69ce7ea949b82e3a63cfe2578ecc27302cb1d7dd6659681b37172783ef36601483045022100abe1bc1998f8912d56b049c70178a981379fb9c314c03aa6f2fbd0a0d151cf210220056fa2c921358575b36e576aa9f1c22065092728c0865851ff7e078d85b03bb00169522102d83cad20393a02d40aab49ec5d13e2a88e0f190bb606e3a0989a3da9b3b80bb52102be51407466fa31076dfc3e25cfe41a6030afe0b0fc0eabe284fe2fe75c2ff7682103e0b7a0f4d2527ba2759b4a4f4dca0c204c87e900fb5c53cca45c4eb98f77deff53ae04004830450221009b1528366ea45de71f87ac68da76cc9dc2b173f6ec6a893ef68c4f5b96129fdf02200c6b2392124594417a072e63354555258bc7c4221303c23f8f235e6168b87c26014730440220296b4e669573325e04efcf0419a4b638b5fb697f5f2e3bf1b773f384dce306c50220704fb078143c1a8f6f16eec36e4bd9436273f1f2c5f7ac9aceaacd934f663afc0169522103c2cf951e3329fd7bf4f2c3bb6285e5b5c385e3f32b0ab7e867575fb96e9bd9be210320831a298ff5913b7afbc2c3f90685c4b9f76a34bee568bce99e33e3ae8cca4d210252d2d40573abe5d313c0c927303ae61f887c28611e995d3307315d3e352a23cc53ae0400473044022001b3c88914171daf61605dd8651c25f0de7d1575da451073aedbeddedf0b924802207885bed39d777fce4bd9cc0139325c344b85d004277a98d50c485d4bfe9e425601483045022100b4532934942ca339de6d55ec27232d0f3bb99332b6af47c9f9410074071c4204022043c8b7f8b5562301a5d2bb75732c0e693a04d35fb4e499b30b4294736bae35a901695221021bd16b6c7ba361db6e7134c7a49ef429ce95cdf7eebebddb0d593af33160c1612103da73cedba3f21b52176236e5e352042804b1c31be24ea3905651cfae55489b8a2103a6043d1447d8641343df4e5484786cd454a21700c86d9dd45ccc1eb04c540edc53ae0400483045022100ce913d930126a7024b47b0992399accb47af82f4d677b5e3a8d3ba4ff3d36349022076721d690db3eeae8d404469ccf413318bfe7c9b90d3807ebe72b2a73631010301483045022100acacc07eba4fc879baa741ab1010c32568c2ceecb231167366eaa027d570f1c1022012839513b9dc77ecedb354254c336cf0c75f6952134d34dabff19e62b193a6900169522103cdba51bad0ea26339dd5a5e30b90a6c9502b0ba1432ef2da69c93c0b3cdd58f521020f25a6b9f2bf3d601ba862b96136e0b58fc4581976f336cac307aa08322f22952103bee8e53727391adf569188199a081fd81e2b42f18ee9c4c8f422aa423d072dc353ae00000000", "vin": [{"txinwitness": ["", "3045022100b3a56daddcf795db260dd49d66b9e77ce364b93c6db888d77a27689f196f7cc9022004cf81564ea47f24d2aacb093addb9f54747b31e77d23bbf30ccf9afd760061b01", "3045022100a432c6a3a9b38349f40a4249a8be605e084702f42ea41ac3aea870b389f43ee5022022f9ba205d98d864aefd3e20d7452d7c296511bd9fe4a935153de98ce3363a3f01", "522103530e3f1fec727fef138095291a49afad949c9a03ccb6161336b1bc1910db9d9921029493242628a1a54b3a6e7aa9047498e383ac09e5a4f6bd5ceffb862a8c452ec6210319d188cb0c66ee978bcfe0e4acfa7df161488b81dd3818b42765d371da80262253ae"], "sequence": 4294967295, "scriptSig": {"hex": "220020f0f33725cccc985140c165ffd464194f820a2b675fd0effd7db7732bf9b926a3", "asm": "0020f0f33725cccc985140c165ffd464194f820a2b675fd0effd7db7732bf9b926a3"}, "vout": 14, "txid": "5f229df8be1e60147715ee4a1932d4b6f92ed8406313161d3604e334c8067f60"}, {"txinwitness": ["", "3044022013663acba701e22387da9151c068c519b28de83809ffcb584fe91b462d2a1deb0220355a73de974248dab7c45b9b59562e8af512977feabe51ffb2d6af694fe0584001", "3044022023f9adf66e22d703f2b4ece17254f770a8259b1d2103486a1b06cf55441e5ec502202c8415c6a94b09bd837a57425e920b09d7c71d7f7ea37ddadd8f250fc7797b5701", "522103a61b124a2f7a0b7d4671196fa9a9d3a53b91e16c5687a3611153eb740aad7a422102d708282f2698346d504ab73af3091afe345afe7525bb18671151088f0172c15821038cdfd1bc49912d607ba3fe5028e28e952ab814b24517c17de7428624977ad47053ae"], "sequence": 4294967295, "scriptSig": {"hex": "2200203e1f28ca2ce002b78f82bd459578f11c1bbe0cf334caeeb3bd75f7d2c3c6b6db", "asm": "00203e1f28ca2ce002b78f82bd459578f11c1bbe0cf334caeeb3bd75f7d2c3c6b6db"}, "vout": 1, "txid": "a3cf155454e1e3bbbf4850333e90e4d8cfca780315d5775beaf50dce3fb9927f"}, {"txinwitness": ["", "30440220277647ad453ecddfc47019639d5b29f312829ea6683d6e80e7dd6ded55ef54a102203b3964953f07faf25493e8f46e16538034a56d986d604667974278e7bdbec13101", "304402205a0f8655f79e1397bdc35e0ed95a4304320d4d13979fbc5ecac75cb39c3b501d0220387b00d2c55ae53c535daa533ff7132dd07a14260102c3ffada4b46813bb0eb901", "522103e73ab6e6e384c7fbcccad7a0374889d4706b240d377f408ec7d84a0303064a0f2103379f72055f27fb18a9474fd18995cd3d6697398f619ad80b0bb1a7c27222204b21031c3b2457559f375394222744ca29b93c545ab96c0ec789337e5f147aed1f64ef53ae"], "sequence": 4294967295, "scriptSig": {"hex": "220020fe501d03526155beb3ef97af9c7c27f2e68669fe68e53f7ddaa51fc602f7fdcd", "asm": "0020fe501d03526155beb3ef97af9c7c27f2e68669fe68e53f7ddaa51fc602f7fdcd"}, "vout": 0, "txid": "2ac0d558e6a699f94ffd2e08efb69b741c23de9845a5e3083963a895bd78aa51"}, {"txinwitness": ["", "304402207ca466f3647765d6b419195e8bd0a3cd2d79732e59e63172941b25f2b0f9accc02203e6f4784677766cd26fb2550227050150518a6d0a264a37778884cf16ebaf7e601", "3045022100a4b4506b99fe322430949b9732bed7cd535cee8f0b220a5e1ec741a67118ddf302203675723d878632beeedc87703c71e97a9ba9d6c6cddf8433bb9e4dfbbe7a187e01", "5221038acc7e5bd34e1198341f6c5561eba4580ce930ebfd78e9705fa51aaa34b8035b2103a40b87c3a637f4ab9b4cfadcf0537bfb71753b4f070e896eeeb0615bb21024f12103dbbc3ab658aef4b292042c3e99de6affcf573249a40bd6c225e4d84168bd01b253ae"], "sequence": 4294967295, "scriptSig": {"hex": "2200203edb040081ee8fceed689e31c79cb67e781d33e85758f903edcd70ef4b75001d", "asm": "00203edb040081ee8fceed689e31c79cb67e781d33e85758f903edcd70ef4b75001d"}, "vout": 1, "txid": "97b9f56488c9840aefa7b995a4f16e18961f9b19830a8816694092fc6f14a8d9"}, {"txinwitness": ["", "3044022060de34fea030feef6a97dc82742c0d212ce8ddd25c608705b4ca0780ed92d9a9022011959faaedbe476f88622575ae9af08ecada614c1874420d69d6935318eb167701", "304402202102a65e556ea09645ef06562e0a608cca99c6b50e4bcd518dd8f9f7ed645a03022049129590900209719547a57a1ea616bd249d04f4f0e0a3fb4c3a58c3bda69a9f01", "522103b027e36cfc05c69f5a02cb7469dea3c1844949388406e369750a284c57ac5822210375ebb6d53613c0e44cbf9d843f3acc203b80e8cc448847ac2fad4d683a8f71612102727f2a132e0fc7a99f7184b84abf4b600b69c53897f9939a3b7517d0d5e89d4253ae"], "sequence": 4294967295, "scriptSig": {"hex": "22002055d9275f9057f2573c93a246dd9581763f3eddef1fdefcd2c59339cbbdbd6b36", "asm": "002055d9275f9057f2573c93a246dd9581763f3eddef1fdefcd2c59339cbbdbd6b36"}, "vout": 0, "txid": "1a47a5afffc9ca2263cf8f71e132f551c53326cbb9b5285fcd03e81662435e73"}, {"txinwitness": ["", "30440220715c54aad0019754819982a966fe956911b8073e599e6720eed47b880ec04f3802207a2ee0e33008d2ddbb0c508fb349df9417167a6bc97eb825687cc3f12a8b301401", "3045022100aade6f02d43fd7a9c92dea0b6f176a151d8e826843e597f10dcae70de367138202200568860fbd54418111ff10b28c4ca84d509775c8e2d50c75e6a69addc7e46ede01", "5221037e00ff41788a51e7597cad022227939d897420b8cb8b311d4398d29cb30ac406210348484e0938ee870464fafe7e071bc9ec6b0463a06058b9fc50d9356b5771020a2103347f5eaf76a160236bd0dee3de3a17f3daeb3c9ad9db7f1cd863ece724208c5453ae"], "sequence": 4294967295, "scriptSig": {"hex": "22002097a4d92dc058ca332ff7fcd20b4e511d40bfb52366a9a0583d07a7bb34c879c8", "asm": "002097a4d92dc058ca332ff7fcd20b4e511d40bfb52366a9a0583d07a7bb34c879c8"}, "vout": 1, "txid": "af4ddb764e7659390065653d217b3bcedeee27459bd1406b26a81fdc7c4b6ae0"}, {"txinwitness": ["", "304402201a8e790de9c5e835ced864fa1cdc03534c4726753af6f204eb0b4991302c1ecf02203fc69ce7ea949b82e3a63cfe2578ecc27302cb1d7dd6659681b37172783ef36601", "3045022100abe1bc1998f8912d56b049c70178a981379fb9c314c03aa6f2fbd0a0d151cf210220056fa2c921358575b36e576aa9f1c22065092728c0865851ff7e078d85b03bb001", "522102d83cad20393a02d40aab49ec5d13e2a88e0f190bb606e3a0989a3da9b3b80bb52102be51407466fa31076dfc3e25cfe41a6030afe0b0fc0eabe284fe2fe75c2ff7682103e0b7a0f4d2527ba2759b4a4f4dca0c204c87e900fb5c53cca45c4eb98f77deff53ae"], "sequence": 4294967295, "scriptSig": {"hex": "2200204f9bbcdc5a29124e214618340348e46e0b53a15970e328c13c0ffdf79a47f4cd", "asm": "00204f9bbcdc5a29124e214618340348e46e0b53a15970e328c13c0ffdf79a47f4cd"}, "vout": 0, "txid": "b7b44070dd9e8543d10f73ae155c9c73e0edafe23ac7203542a59c4a20436215"}, {"txinwitness": ["", "30450221009b1528366ea45de71f87ac68da76cc9dc2b173f6ec6a893ef68c4f5b96129fdf02200c6b2392124594417a072e63354555258bc7c4221303c23f8f235e6168b87c2601", "30440220296b4e669573325e04efcf0419a4b638b5fb697f5f2e3bf1b773f384dce306c50220704fb078143c1a8f6f16eec36e4bd9436273f1f2c5f7ac9aceaacd934f663afc01", "522103c2cf951e3329fd7bf4f2c3bb6285e5b5c385e3f32b0ab7e867575fb96e9bd9be210320831a298ff5913b7afbc2c3f90685c4b9f76a34bee568bce99e33e3ae8cca4d210252d2d40573abe5d313c0c927303ae61f887c28611e995d3307315d3e352a23cc53ae"], "sequence": 4294967295, "scriptSig": {"hex": "220020afe596952cfe7e7bf85534fe38b42671176e45922dd7d175a97a7f8c049a3b20", "asm": "0020afe596952cfe7e7bf85534fe38b42671176e45922dd7d175a97a7f8c049a3b20"}, "vout": 0, "txid": "6a245f188e1dfcfb7cd563825a5215b128924e19c1eb82bd4c4d2ae8cdf51634"}, {"txinwitness": ["", "3044022001b3c88914171daf61605dd8651c25f0de7d1575da451073aedbeddedf0b924802207885bed39d777fce4bd9cc0139325c344b85d004277a98d50c485d4bfe9e425601", "3045022100b4532934942ca339de6d55ec27232d0f3bb99332b6af47c9f9410074071c4204022043c8b7f8b5562301a5d2bb75732c0e693a04d35fb4e499b30b4294736bae35a901", "5221021bd16b6c7ba361db6e7134c7a49ef429ce95cdf7eebebddb0d593af33160c1612103da73cedba3f21b52176236e5e352042804b1c31be24ea3905651cfae55489b8a2103a6043d1447d8641343df4e5484786cd454a21700c86d9dd45ccc1eb04c540edc53ae"], "sequence": 4294967295, "scriptSig": {"hex": "22002022bd25930ddbdbfefc7a280c1315c8d8f306dafb1f14922b4b5b3fdb44a9eb46", "asm": "002022bd25930ddbdbfefc7a280c1315c8d8f306dafb1f14922b4b5b3fdb44a9eb46"}, "vout": 0, "txid": "ae1825d73c6ce5b717385e96ebc3b6d0f87ffa196bb7c2f92847991156cf547a"}, {"txinwitness": ["", "3045022100ce913d930126a7024b47b0992399accb47af82f4d677b5e3a8d3ba4ff3d36349022076721d690db3eeae8d404469ccf413318bfe7c9b90d3807ebe72b2a73631010301", "3045022100acacc07eba4fc879baa741ab1010c32568c2ceecb231167366eaa027d570f1c1022012839513b9dc77ecedb354254c336cf0c75f6952134d34dabff19e62b193a69001", "522103cdba51bad0ea26339dd5a5e30b90a6c9502b0ba1432ef2da69c93c0b3cdd58f521020f25a6b9f2bf3d601ba862b96136e0b58fc4581976f336cac307aa08322f22952103bee8e53727391adf569188199a081fd81e2b42f18ee9c4c8f422aa423d072dc353ae"], "sequence": 4294967295, "scriptSig": {"hex": "220020222bf520bdfecbbfc7e182386a121af4b10bfd26f075a703a0cb9781b117f65c", "asm": "0020222bf520bdfecbbfc7e182386a121af4b10bfd26f075a703a0cb9781b117f65c"}, "vout": 10, "txid": "427880dcf37fe9f5d1f27c2ce6bce3cc0361da3be6da22c821664c1e9d8b8e13"}], "txid": "bf8848ce01f70ebdab20f61422e1f407dd1d94675548315a281e3924b5047642", "blocktime": 1537871175, "version": 1, "confirmations": 11511, "time": 1537871175, "locktime": 0, "vsize": 1763, "size": 3661}