{"hash": "22ddeac072d2d706bb712f92ffd721cdb6bfa58666c2bde67ac33cad7d8ca130", "blockhash": "0000000000000000000e13cef7c366c0283d82e591d1acd082e914b08063cdf1", "vout": [{"scriptPubKey": {"reqSigs": 1, "hex": "a91465264b794fe8168ed15a925dcad78d92acbdc04087", "addresses": ["3Aur3gwEvmNPknJYUykTCpyP194y29UgHV"], "asm": "OP_HASH160 65264b794fe8168ed15a925dcad78d92acbdc040 OP_EQUAL", "type": "scripthash"}, "value": 0.00132476, "n": 0}, {"scriptPubKey": {"reqSigs": 1, "hex": "a914cc91dcfaeafde556907e2ba5c0aa4624814a679f87", "addresses": ["3LLgWRuY6GZLGv5pR15sX38PmGNejAk7eu"], "asm": "OP_HASH160 cc91dcfaeafde556907e2ba5c0aa4624814a679f OP_EQUAL", "type": "scripthash"}, "value": 0.00723796, "n": 1}], "hex": "0100000000010169905c68f984acb0e91f627c4751a60cd2f30d2d5866fcf7607dd68d840f3d040100000023220020a8ee6f9faa3ceb50121313715f0950ff45986b70171f98ffe6d0d1a72d9d17cfffffffff027c0502000000000017a91465264b794fe8168ed15a925dcad78d92acbdc04087540b0b000000000017a914cc91dcfaeafde556907e2ba5c0aa4624814a679f870400483045022100bfa45f101855c581d4486eb6d8ecd77fb6f558d14bed1bd11df72fc5ce8f96ef022030afd382ed6b6afb18278fd45089ab84ef28a7560b80c7793fb7d326cac8bb070147304402200cce97ad60678b5909da148e7984ff3a240d6d15ee01a92417ac2be191a61316022044c12a3c10127a7f3be12d87b75893a427516a8708e26420261555658b533d6e0147522102d47acbdba3e92e8b9b8023c96827618fb53ce6af489eef8deb40ef23364a3b112103f222873b80b4e3d44290c8bd944d84c8c834af0ea2722a720ec29f9db13f198452ae00000000", "vin": [{"txinwitness": ["", "3045022100bfa45f101855c581d4486eb6d8ecd77fb6f558d14bed1bd11df72fc5ce8f96ef022030afd382ed6b6afb18278fd45089ab84ef28a7560b80c7793fb7d326cac8bb0701", "304402200cce97ad60678b5909da148e7984ff3a240d6d15ee01a92417ac2be191a61316022044c12a3c10127a7f3be12d87b75893a427516a8708e26420261555658b533d6e01", "522102d47acbdba3e92e8b9b8023c96827618fb53ce6af489eef8deb40ef23364a3b112103f222873b80b4e3d44290c8bd944d84c8c834af0ea2722a720ec29f9db13f198452ae"], "sequence": 4294967295, "scriptSig": {"hex": "220020a8ee6f9faa3ceb50121313715f0950ff45986b70171f98ffe6d0d1a72d9d17cf", "asm": "0020a8ee6f9faa3ceb50121313715f0950ff45986b70171f98ffe6d0d1a72d9d17cf"}, "vout": 1, "txid": "043d0f848dd67d60f7fc66582d0df3d20ca651477c621fe9b0ac84f9685c9069"}], "txid": "bf8a901971900f2d75dfdb79565bb6a46fc23d6b61b27ab36f543921819da5b4", "blocktime": 1537871767, "version": 1, "confirmations": 11495, "time": 1537871767, "locktime": 0, "vsize": 206, "size": 371}