{"hash": "bf8a4ce482aa81964c5566ca040d658419afe9a86a0c14c70353a0cb0ddc71ef", "blockhash": "0000000000000000001cda96e906b7601b7a6fb1a3b62bca570a9e5d8f4b3de1", "vout": [{"scriptPubKey": {"reqSigs": 1, "hex": "76a914c35175f3b91d1a538a601ac4f9de355f7837dd2488ac", "addresses": ["1JokMQ9WHNoXUB3dmjv5jiJgidgwKHgkJD"], "asm": "OP_DUP OP_HASH160 c35175f3b91d1a538a601ac4f9de355f7837dd24 OP_EQUALVERIFY OP_CHECKSIG", "type": "pubkeyhash"}, "value": 0.01795716, "n": 0}, {"scriptPubKey": {"reqSigs": 1, "hex": "76a914802e7d079de4756ab2f5d7135747052acbafb0a088ac", "addresses": ["1CgmBdEkW1gA3Eei9n42FYxmU37NaNt2vw"], "asm": "OP_DUP OP_HASH160 802e7d079de4756ab2f5d7135747052acbafb0a0 OP_EQUALVERIFY OP_CHECKSIG", "type": "pubkeyhash"}, "value": 0.02458644, "n": 1}], "hex": "01000000011a237674b15b94235fd592abf9dcf1f5d9229f21983c465735d41994478a5841010000006a47304402207b9bc3de3cb48a205a936add8cef1a4f737db6e2bd42cbed62b7926a41cc38d9022005596cc456fd1389e530d53c6e2b7ce63a4496b648d5cc2f4ccc8e626cac0aa101210327178c64df006894cd6d83fffb743157ffe4b2d06f0431f034d9aafc3b3a3f58ffffffff0284661b00000000001976a914c35175f3b91d1a538a601ac4f9de355f7837dd2488ac14842500000000001976a914802e7d079de4756ab2f5d7135747052acbafb0a088ac00000000", "vin": [{"sequence": 4294967295, "scriptSig": {"hex": "47304402207b9bc3de3cb48a205a936add8cef1a4f737db6e2bd42cbed62b7926a41cc38d9022005596cc456fd1389e530d53c6e2b7ce63a4496b648d5cc2f4ccc8e626cac0aa101210327178c64df006894cd6d83fffb743157ffe4b2d06f0431f034d9aafc3b3a3f58", "asm": "304402207b9bc3de3cb48a205a936add8cef1a4f737db6e2bd42cbed62b7926a41cc38d9022005596cc456fd1389e530d53c6e2b7ce63a4496b648d5cc2f4ccc8e626cac0aa1[ALL] 0327178c64df006894cd6d83fffb743157ffe4b2d06f0431f034d9aafc3b3a3f58"}, "vout": 1, "txid": "41588a479419d43557463c98219f22d9f5f1dcf9ab92d55f23945bb17476231a"}], "txid": "bf8a4ce482aa81964c5566ca040d658419afe9a86a0c14c70353a0cb0ddc71ef", "blocktime": 1537873282, "version": 1, "confirmations": 11485, "time": 1537873282, "locktime": 0, "vsize": 225, "size": 225}