{"hash": "0e9b7d543c75ffb006fbc9c7c185e876ebf36af15965cf9c78e0686c4c3f4097", "blockhash": "0000000000000000001f0ddff1eddb255c1121bcd4da4f1bc9a0da00cae72433", "vout": [{"scriptPubKey": {"reqSigs": 1, "hex": "a914e931d19471095f35dd666dd516d1b716f81ac39487", "addresses": ["3Nx33hgUWjszdJj5D33dzFS1rWChZfdR6S"], "asm": "OP_HASH160 e931d19471095f35dd666dd516d1b716f81ac394 OP_EQUAL", "type": "scripthash"}, "value": 0.13883756, "n": 0}, {"scriptPubKey": {"reqSigs": 1, "hex": "a91469f375be4d143869dce3ce38a7a5b92300827fcb87", "addresses": ["3BMEXaXJBD2EabhGMJ11yDjVHAXggA7UKW"], "asm": "OP_HASH160 69f375be4d143869dce3ce38a7a5b92300827fcb OP_EQUAL", "type": "scripthash"}, "value": 0.00609188, "n": 1}], "hex": "01000000000101cac8e76697a0cc9339c9a553439559d442fc41bff60e5372742019a0a786ab760000000023220020b0a87c0929c51f8ed6c90da0d5a1e12d2e1652ff3823b7679336192fddd95e36ffffffff026cd9d3000000000017a914e931d19471095f35dd666dd516d1b716f81ac39487a44b09000000000017a91469f375be4d143869dce3ce38a7a5b92300827fcb8704004730440220061c365b4f0b0c2c1ff7aa473029d8ff7d3827da1ed3557ed362a30ca42028f4022043f9cc4837567f31cd57efbd8efa5bc9e6844f7ff8411c8a2b144023a2ff9b3e01483045022100a15e139b0536e4f992c46918daba1724821565fcc5f7e4e237b0b3887b05bdcc02203263e47365b40f99e27a361f008e53848880e9660f472dd38f638f70b787cc47016952210249f7bdb36ed033d7a6bce443fd916ef41511c8119dfefe13058ee9d45fdd00f22102651f40f66fdf609974d33bb79cdbe0d7af5937dbe0a3b3bc65b3a10b76a3ce2f21034c7c012ccdcda26ac723a1e4c858520ea452639be14c9d37c9bebe184d5c97e653ae00000000", "vin": [{"txinwitness": ["", "30440220061c365b4f0b0c2c1ff7aa473029d8ff7d3827da1ed3557ed362a30ca42028f4022043f9cc4837567f31cd57efbd8efa5bc9e6844f7ff8411c8a2b144023a2ff9b3e01", "3045022100a15e139b0536e4f992c46918daba1724821565fcc5f7e4e237b0b3887b05bdcc02203263e47365b40f99e27a361f008e53848880e9660f472dd38f638f70b787cc4701", "52210249f7bdb36ed033d7a6bce443fd916ef41511c8119dfefe13058ee9d45fdd00f22102651f40f66fdf609974d33bb79cdbe0d7af5937dbe0a3b3bc65b3a10b76a3ce2f21034c7c012ccdcda26ac723a1e4c858520ea452639be14c9d37c9bebe184d5c97e653ae"], "sequence": 4294967295, "scriptSig": {"hex": "220020b0a87c0929c51f8ed6c90da0d5a1e12d2e1652ff3823b7679336192fddd95e36", "asm": "0020b0a87c0929c51f8ed6c90da0d5a1e12d2e1652ff3823b7679336192fddd95e36"}, "vout": 0, "txid": "76ab86a7a019207472530ef6bf41fc42d459954353a5c93993cca09766e7c8ca"}], "txid": "bf8e80baf1bab42dd6e34938a72ff11b3be783402dcc3be95e78f8be099d018d", "blocktime": 1537872018, "version": 1, "confirmations": 11489, "time": 1537872018, "locktime": 0, "vsize": 214, "size": 405}