{"hash": "bf8fd8ca35340ea861a72d5adf215663e10c5be2741c2a5973747b359b5fb487", "blockhash": "0000000000000000000dcc0f55137456b1a82d3642486a52398922ac4d620174", "vout": [{"scriptPubKey": {"reqSigs": 1, "hex": "76a914d1d145914a8f57b25ec077d8ef326f9dc20411b688ac", "addresses": ["1L8QvYpGotz7xkX1x3BXm2o5zJ4VZreMDp"], "asm": "OP_DUP OP_HASH160 d1d145914a8f57b25ec077d8ef326f9dc20411b6 OP_EQUALVERIFY OP_CHECKSIG", "type": "pubkeyhash"}, "value": 0.1927179, "n": 0}], "hex": "010000000370789f9afc4415c306c9c9ee3aa187ed63e89f4521232e045d8f003b99a9295c000000006a4730440220407cd8f372c464c00b3d9b45f09b53d4f3770cf815600fd7b46b12535c1dfd6d02206c005fdd6207efdcda5ddab344d2a759333a2a95670daa56dcabd3ee0acb5176012103cf221be5c327e9e39ba7d09d38202a3ed5d13229e97c0b79596334608223a3eeffffffff72f1824b29b0b7db0db329d1244f2a2bf798814df11c4a5dfef84f17ad983195010000006a4730440220009cbf47012f0ef4f1e92fd1a04c746718d3dd06b4bafe8c56197683bf40841a02205bcc39e97ae0e3e04781c4a83bb0740136bee1eb2089bdd1c82fd6fec122ad5d012102b443cc24ab67945408046fbdfb02ef6d70c22bea9d1dfecf2e99c82208892154fffffffff0e38795c1812e6f241b06ef06ada698d5d07c67344b71de4da9c252058b530d010000006b483045022100c2785edd1b7aa08db3f03446ef35583fad61da2654f8a1540cf1184ff28bb20a02204a7252b1e23ebff44e6ab522dc4ffb9278df36328c4e1e71f5bd43f86235ff7401210201c683c866367b0ed2d44d94f163432427367ad84223fccbdecaf21f1c15ee3bffffffff016e102601000000001976a914d1d145914a8f57b25ec077d8ef326f9dc20411b688ac00000000", "vin": [{"sequence": 4294967295, "scriptSig": {"hex": "4730440220407cd8f372c464c00b3d9b45f09b53d4f3770cf815600fd7b46b12535c1dfd6d02206c005fdd6207efdcda5ddab344d2a759333a2a95670daa56dcabd3ee0acb5176012103cf221be5c327e9e39ba7d09d38202a3ed5d13229e97c0b79596334608223a3ee", "asm": "30440220407cd8f372c464c00b3d9b45f09b53d4f3770cf815600fd7b46b12535c1dfd6d02206c005fdd6207efdcda5ddab344d2a759333a2a95670daa56dcabd3ee0acb5176[ALL] 03cf221be5c327e9e39ba7d09d38202a3ed5d13229e97c0b79596334608223a3ee"}, "vout": 0, "txid": "5c29a9993b008f5d042e2321459fe863ed87a13aeec9c906c31544fc9a9f7870"}, {"sequence": 4294967295, "scriptSig": {"hex": "4730440220009cbf47012f0ef4f1e92fd1a04c746718d3dd06b4bafe8c56197683bf40841a02205bcc39e97ae0e3e04781c4a83bb0740136bee1eb2089bdd1c82fd6fec122ad5d012102b443cc24ab67945408046fbdfb02ef6d70c22bea9d1dfecf2e99c82208892154", "asm": "30440220009cbf47012f0ef4f1e92fd1a04c746718d3dd06b4bafe8c56197683bf40841a02205bcc39e97ae0e3e04781c4a83bb0740136bee1eb2089bdd1c82fd6fec122ad5d[ALL] 02b443cc24ab67945408046fbdfb02ef6d70c22bea9d1dfecf2e99c82208892154"}, "vout": 1, "txid": "953198ad174ff8fe5d4a1cf14d8198f72b2a4f24d129b30ddbb7b0294b82f172"}, {"sequence": 4294967295, "scriptSig": {"hex": "483045022100c2785edd1b7aa08db3f03446ef35583fad61da2654f8a1540cf1184ff28bb20a02204a7252b1e23ebff44e6ab522dc4ffb9278df36328c4e1e71f5bd43f86235ff7401210201c683c866367b0ed2d44d94f163432427367ad84223fccbdecaf21f1c15ee3b", "asm": "3045022100c2785edd1b7aa08db3f03446ef35583fad61da2654f8a1540cf1184ff28bb20a02204a7252b1e23ebff44e6ab522dc4ffb9278df36328c4e1e71f5bd43f86235ff74[ALL] 0201c683c866367b0ed2d44d94f163432427367ad84223fccbdecaf21f1c15ee3b"}, "vout": 1, "txid": "0d538b0552c2a94dde714b34677cd0d598a6ad06ef061b246f2e81c19587e3f0"}], "txid": "bf8fd8ca35340ea861a72d5adf215663e10c5be2741c2a5973747b359b5fb487", "blocktime": 1537870268, "version": 1, "confirmations": 11516, "time": 1537870268, "locktime": 0, "vsize": 486, "size": 486}