{"hash": "32a1c8469f039bf98776ab636163ce86995a780e7a6810458482a28df8096119", "blockhash": "0000000000000000001cda96e906b7601b7a6fb1a3b62bca570a9e5d8f4b3de1", "vout": [{"scriptPubKey": {"reqSigs": 1, "hex": "a9141988a27e3c2df4ddee7fad5a2303d086179b2a3087", "addresses": ["3422VtS7UtCvXYxoXMVp6eZupR252z85oC"], "asm": "OP_HASH160 1988a27e3c2df4ddee7fad5a2303d086179b2a30 OP_EQUAL", "type": "scripthash"}, "value": 0.20068393, "n": 0}, {"scriptPubKey": {"reqSigs": 1, "hex": "76a9141206129e30e8139d7be8cbd55360b1aa128daac488ac", "addresses": ["12eJSPpHsDZnXPyqeSRyvw6WpwTXAxAy24"], "asm": "OP_DUP OP_HASH160 1206129e30e8139d7be8cbd55360b1aa128daac4 OP_EQUALVERIFY OP_CHECKSIG", "type": "pubkeyhash"}, "value": 0.4203, "n": 1}], "hex": "010000000001010cb7e6cf77325a44738679457c7cf479262cd92603c3b3287f5bc1e9414e808a010000002322002065d416c48a8072e0ac51c2d111eb194f009caef0332446c1bf2097316cf07fa9ffffffff02293832010000000017a9141988a27e3c2df4ddee7fad5a2303d086179b2a3087b0538102000000001976a9141206129e30e8139d7be8cbd55360b1aa128daac488ac0400473044022052ce1115aa9464ee7ddda54c594dff5e2848701c51ac7aa0ad88e3f022cd405402205c8b9706dfbda4fe38e5ad323f86447d01e3899de0969bf43494c3a8f78d331f01483045022100dd626d8b6b4fc46d05a9e170e552773072b3da25a502cd33534ccbd7c7d9995b022059c7dd9e62ef177609f129ad97ddc600b10ef9e5448d4fbb1fb9a3ab4ff5c4b00169522102f44abcf9e23c9a460da309ccca56c619c04eed3bde2c2cff5e7d78fbcd980b9c2103c9443cf3047bb6c2c82f1b0c44c36109cdc3d0d601d16d1189a1602bf8d1a0a02103bfe867059274412412e088af5572b92168c2ef495cfe6c9b7a753a009eb37c4853ae00000000", "vin": [{"txinwitness": ["", "3044022052ce1115aa9464ee7ddda54c594dff5e2848701c51ac7aa0ad88e3f022cd405402205c8b9706dfbda4fe38e5ad323f86447d01e3899de0969bf43494c3a8f78d331f01", "3045022100dd626d8b6b4fc46d05a9e170e552773072b3da25a502cd33534ccbd7c7d9995b022059c7dd9e62ef177609f129ad97ddc600b10ef9e5448d4fbb1fb9a3ab4ff5c4b001", "522102f44abcf9e23c9a460da309ccca56c619c04eed3bde2c2cff5e7d78fbcd980b9c2103c9443cf3047bb6c2c82f1b0c44c36109cdc3d0d601d16d1189a1602bf8d1a0a02103bfe867059274412412e088af5572b92168c2ef495cfe6c9b7a753a009eb37c4853ae"], "sequence": 4294967295, "scriptSig": {"hex": "22002065d416c48a8072e0ac51c2d111eb194f009caef0332446c1bf2097316cf07fa9", "asm": "002065d416c48a8072e0ac51c2d111eb194f009caef0332446c1bf2097316cf07fa9"}, "vout": 1, "txid": "8a804e41e9c15b7f28b3c30326d92c2679f47c7c45798673445a3277cfe6b70c"}], "txid": "bfaf7349337ee3158743a6ece5bbf2ff8546a3f3572bed07584ae419c2dd5960", "blocktime": 1537873282, "version": 1, "confirmations": 11483, "time": 1537873282, "locktime": 0, "vsize": 216, "size": 407}