{"hash": "bfb16d5a0f346665abedfc2629c21b7a281341d47515fe07f4aea9853dbe98a1", "blockhash": "0000000000000000000e13cef7c366c0283d82e591d1acd082e914b08063cdf1", "vout": [{"scriptPubKey": {"reqSigs": 1, "hex": "76a914356a2c607e3709e2aabb16b958fb793d4fef0c5f88ac", "addresses": ["15sS1DnpGEtAKPQkX7rNcUkRj78rkvoyKD"], "asm": "OP_DUP OP_HASH160 356a2c607e3709e2aabb16b958fb793d4fef0c5f OP_EQUALVERIFY OP_CHECKSIG", "type": "pubkeyhash"}, "value": 60.67274929, "n": 0}, {"scriptPubKey": {"reqSigs": 1, "hex": "a914943cc87e917b1500c80bd8e4347142b6c87f709387", "addresses": ["3FCpkDxEBt94BLRKiMzCzU3jNVh1hqFXLh"], "asm": "OP_HASH160 943cc87e917b1500c80bd8e4347142b6c87f7093 OP_EQUAL", "type": "scripthash"}, "value": 0.00414091, "n": 1}], "hex": "0100000001a626f6abda73b25e9fbd65e2801ea59f603473ff56ee567031f6d74839261e7f000000006a47304402200ee45f89addccfca402095b91ee7661e1bc96ed9edbaf8886323968d6a36b3d102203c488956e3897f91832930311961831fc6f6e446973357b4c57e3dfdf1d0873701210253797c0ced6cb30235a1052d21e4fb7c1f28acba6cf053ed33394f3607efcdd1ffffffff02b144a369010000001976a914356a2c607e3709e2aabb16b958fb793d4fef0c5f88ac8b5106000000000017a914943cc87e917b1500c80bd8e4347142b6c87f70938700000000", "vin": [{"sequence": 4294967295, "scriptSig": {"hex": "47304402200ee45f89addccfca402095b91ee7661e1bc96ed9edbaf8886323968d6a36b3d102203c488956e3897f91832930311961831fc6f6e446973357b4c57e3dfdf1d0873701210253797c0ced6cb30235a1052d21e4fb7c1f28acba6cf053ed33394f3607efcdd1", "asm": "304402200ee45f89addccfca402095b91ee7661e1bc96ed9edbaf8886323968d6a36b3d102203c488956e3897f91832930311961831fc6f6e446973357b4c57e3dfdf1d08737[ALL] 0253797c0ced6cb30235a1052d21e4fb7c1f28acba6cf053ed33394f3607efcdd1"}, "vout": 0, "txid": "7f1e263948d7f6317056ee56ff7334609fa51e80e265bd9f5eb273daabf626a6"}], "txid": "bfb16d5a0f346665abedfc2629c21b7a281341d47515fe07f4aea9853dbe98a1", "blocktime": 1537871767, "version": 1, "confirmations": 11490, "time": 1537871767, "locktime": 0, "vsize": 223, "size": 223}