{"hash": "b34273b1cdb4db1ee58a2eff66c55d00048c2903522fed8aa6093108874b74f1", "blockhash": "0000000000000000001f0ddff1eddb255c1121bcd4da4f1bc9a0da00cae72433", "vout": [{"scriptPubKey": {"reqSigs": 1, "hex": "a914be6c3a55a76902ba6b0bc8ceaed40579f7bc8daa87", "addresses": ["3K3sxo77FCLUqV8U878gaHBUsa7FxBk5S3"], "asm": "OP_HASH160 be6c3a55a76902ba6b0bc8ceaed40579f7bc8daa OP_EQUAL", "type": "scripthash"}, "value": 0.001326, "n": 0}, {"scriptPubKey": {"reqSigs": 1, "hex": "0014559ba8d8e6e0c380929da76560b49e5b01aa6976", "addresses": ["bc1q2kd63k8xurpcpy5a5ajkpdy7tvq656tkp9emfx"], "asm": "0 559ba8d8e6e0c380929da76560b49e5b01aa6976", "type": "witness_v0_keyhash"}, "value": 1.146e-05, "n": 1}], "hex": "010000000001018f883abd49e01f907931811118920ecb953761b0295318ccecdc8f3a4daa37990000000000ffffffff02f80502000000000017a914be6c3a55a76902ba6b0bc8ceaed40579f7bc8daa877a04000000000000160014559ba8d8e6e0c380929da76560b49e5b01aa69760247304402200fb9d7562beef1658a4126a20e55d273fcc10264730fa6493036c1dd774447070220346627ffb1534e91cb86abd40b288dc619855fd816813f4ca7e6a1ab231baf1c01210268acaaaeee88d273f0029a7f3085287d8dc422a2db53720b8bf3ceb17e381a8300000000", "vin": [{"txinwitness": ["304402200fb9d7562beef1658a4126a20e55d273fcc10264730fa6493036c1dd774447070220346627ffb1534e91cb86abd40b288dc619855fd816813f4ca7e6a1ab231baf1c01", "0268acaaaeee88d273f0029a7f3085287d8dc422a2db53720b8bf3ceb17e381a83"], "sequence": 4294967295, "scriptSig": {"hex": "", "asm": ""}, "vout": 0, "txid": "9937aa4d3a8fdceccc185329b0613795cb0e921811813179901fe049bd3a888f"}], "txid": "bfb554b82815c8aa0936957e9c810eb9f9fc11233e918c0eb5813422405727c2", "blocktime": 1537872018, "version": 1, "confirmations": 11489, "time": 1537872018, "locktime": 0, "vsize": 142, "size": 223}