{"hash": "bfc146e93a37f37d0606418c4a78044ba4c59c0c9ca6b7ab97e30fd039c24b76", "blockhash": "0000000000000000000dcc0f55137456b1a82d3642486a52398922ac4d620174", "vout": [{"scriptPubKey": {"type": "nulldata", "hex": "6a4c50000077760001289af6db5aa7155404994516bcbefa6b8351586b4e86aeaeacb577c031fc4be3474d14b6f32469216d99516ca4025baa09660614909024164bf41d100759d4ba30d2c37bb011d97e02cf", "asm": "OP_RETURN 000077760001289af6db5aa7155404994516bcbefa6b8351586b4e86aeaeacb577c031fc4be3474d14b6f32469216d99516ca4025baa09660614909024164bf41d100759d4ba30d2c37bb011d97e02cf"}, "value": 0.0, "n": 0}, {"scriptPubKey": {"reqSigs": 1, "hex": "76a914773013ef9064e435356a3d79e536286ca2a6c4bf88ac", "addresses": ["1BsD1LYwvQcq1XsMJ3MkRBEF4HCtHkbXFu"], "asm": "OP_DUP OP_HASH160 773013ef9064e435356a3d79e536286ca2a6c4bf OP_EQUALVERIFY OP_CHECKSIG", "type": "pubkeyhash"}, "value": 0.0064982, "n": 1}], "hex": "01000000011fc91fa4a3421b22773f85ed924de4916db20c31747f564f1b5896141dd07b57010000006a4730440220089403991b0bee0c86e50badbb747eb42fd6c57dedd3563f8eb742863218feb8022047afbcb65ef6808b7db8503167fda8400a04bf55bf79761cd70e24ee2b5532bf012103e4a8c27a678cdbbe53a63cc40304a73a3ee2b26577997a7feead6c13f11b878fffffffff020000000000000000536a4c50000077760001289af6db5aa7155404994516bcbefa6b8351586b4e86aeaeacb577c031fc4be3474d14b6f32469216d99516ca4025baa09660614909024164bf41d100759d4ba30d2c37bb011d97e02cf5cea0900000000001976a914773013ef9064e435356a3d79e536286ca2a6c4bf88ac00000000", "vin": [{"sequence": 4294967295, "scriptSig": {"hex": "4730440220089403991b0bee0c86e50badbb747eb42fd6c57dedd3563f8eb742863218feb8022047afbcb65ef6808b7db8503167fda8400a04bf55bf79761cd70e24ee2b5532bf012103e4a8c27a678cdbbe53a63cc40304a73a3ee2b26577997a7feead6c13f11b878f", "asm": "30440220089403991b0bee0c86e50badbb747eb42fd6c57dedd3563f8eb742863218feb8022047afbcb65ef6808b7db8503167fda8400a04bf55bf79761cd70e24ee2b5532bf[ALL] 03e4a8c27a678cdbbe53a63cc40304a73a3ee2b26577997a7feead6c13f11b878f"}, "vout": 1, "txid": "577bd01d1496581b4f567f74310cb26d91e44d92ed853f77221b42a3a41fc91f"}], "txid": "bfc146e93a37f37d0606418c4a78044ba4c59c0c9ca6b7ab97e30fd039c24b76", "blocktime": 1537870268, "version": 1, "confirmations": 11518, "time": 1537870268, "locktime": 0, "vsize": 283, "size": 283}