{"hash": "bfc2eb67dbe3a1014ef0dcb4395d4b7ce54ca4b6c62a24d1044bb781c7b13ad8", "blockhash": "00000000000000000024a2167bbff67b0be802c0b01cdd79e6331c2be6459f87", "vout": [{"scriptPubKey": {"reqSigs": 1, "hex": "76a914a4f7b5e7ca572b3cb4565a8316c9ba0bd302ba3388ac", "addresses": ["1G3GZh9Y9WC6nE1PFkjkZrhWKP5piiUDMv"], "asm": "OP_DUP OP_HASH160 a4f7b5e7ca572b3cb4565a8316c9ba0bd302ba33 OP_EQUALVERIFY OP_CHECKSIG", "type": "pubkeyhash"}, "value": 7.493e-05, "n": 0}, {"scriptPubKey": {"reqSigs": 1, "hex": "76a914c4d9193d296a3e7fbe1631ac2a8fe31dccf7fa1c88ac", "addresses": ["1JwqWseTzeSG121F1W11XTkRh3g8ydvFNc"], "asm": "OP_DUP OP_HASH160 c4d9193d296a3e7fbe1631ac2a8fe31dccf7fa1c OP_EQUALVERIFY OP_CHECKSIG", "type": "pubkeyhash"}, "value": 0.00124795, "n": 1}], "hex": "01000000032e69437b0a2f768cd4a128c9b2e9fc8f91064dcaf5d6f7d3274c59df9883d6be000000006a47304402202aaaa383e0c74791324847f6e1194a83aaea9720a5be7c03e300c75f4adccf10022069496f713779f8549896912c5c4bfed056279b92b2ce3045551530b98397d849012102483f2650a038337a601759adfd299f0178089bd15e46730d4c7d0d450c2e17f8ffffffff5a6073976e8fc63e7fa606587b83f2d345d6a6de728d25b89e2ce0ecd2d865c3000000006a4730440220293b5ae8d0378546f8778ddc57fd77835962a1941c6ac73ba125a0cb16d9985e022033efab0ed81a0bab2112f35498195105c4bbdf829aed7033bd697cf3bf5016cd012102d043b17b593ab161c9d710f8b017604067b57116338ed555d55f54289f821024fffffffffe55c5e046698a3f3908ee3f0c129de39d02b1298216c3ff9d7431f209e1a7f3000000006a473044022030878773d8d6d91a1983fa5967ad306adc008b47232f2f79185b783bb8332240022041bfe48649a9e9c52ec07b30f264d546bcb1b63f2465e08b58bc566f0449c74d0121022e55a1ec730198068dc9a7bb789df9bfc5a96a4ee1a1a7c9ec4c0837283b9c46ffffffff02451d0000000000001976a914a4f7b5e7ca572b3cb4565a8316c9ba0bd302ba3388ac7be70100000000001976a914c4d9193d296a3e7fbe1631ac2a8fe31dccf7fa1c88ac00000000", "vin": [{"sequence": 4294967295, "scriptSig": {"hex": "47304402202aaaa383e0c74791324847f6e1194a83aaea9720a5be7c03e300c75f4adccf10022069496f713779f8549896912c5c4bfed056279b92b2ce3045551530b98397d849012102483f2650a038337a601759adfd299f0178089bd15e46730d4c7d0d450c2e17f8", "asm": "304402202aaaa383e0c74791324847f6e1194a83aaea9720a5be7c03e300c75f4adccf10022069496f713779f8549896912c5c4bfed056279b92b2ce3045551530b98397d849[ALL] 02483f2650a038337a601759adfd299f0178089bd15e46730d4c7d0d450c2e17f8"}, "vout": 0, "txid": "bed68398df594c27d3f7d6f5ca4d06918ffce9b2c928a1d48c762f0a7b43692e"}, {"sequence": 4294967295, "scriptSig": {"hex": "4730440220293b5ae8d0378546f8778ddc57fd77835962a1941c6ac73ba125a0cb16d9985e022033efab0ed81a0bab2112f35498195105c4bbdf829aed7033bd697cf3bf5016cd012102d043b17b593ab161c9d710f8b017604067b57116338ed555d55f54289f821024", "asm": "30440220293b5ae8d0378546f8778ddc57fd77835962a1941c6ac73ba125a0cb16d9985e022033efab0ed81a0bab2112f35498195105c4bbdf829aed7033bd697cf3bf5016cd[ALL] 02d043b17b593ab161c9d710f8b017604067b57116338ed555d55f54289f821024"}, "vout": 0, "txid": "c365d8d2ece02c9eb8258d72dea6d645d3f2837b5806a67f3ec68f6e9773605a"}, {"sequence": 4294967295, "scriptSig": {"hex": "473044022030878773d8d6d91a1983fa5967ad306adc008b47232f2f79185b783bb8332240022041bfe48649a9e9c52ec07b30f264d546bcb1b63f2465e08b58bc566f0449c74d0121022e55a1ec730198068dc9a7bb789df9bfc5a96a4ee1a1a7c9ec4c0837283b9c46", "asm": "3044022030878773d8d6d91a1983fa5967ad306adc008b47232f2f79185b783bb8332240022041bfe48649a9e9c52ec07b30f264d546bcb1b63f2465e08b58bc566f0449c74d[ALL] 022e55a1ec730198068dc9a7bb789df9bfc5a96a4ee1a1a7c9ec4c0837283b9c46"}, "vout": 0, "txid": "f3a7e109f231749dffc3168229b1029de39d120c3fee08393f8a6946e0c555fe"}], "txid": "bfc2eb67dbe3a1014ef0dcb4395d4b7ce54ca4b6c62a24d1044bb781c7b13ad8", "blocktime": 1537870564, "version": 1, "confirmations": 11515, "time": 1537870564, "locktime": 0, "vsize": 519, "size": 519}