{"hash": "48c43390fbaad931307056acd56f249f31f81d7591a40890c0451d46ff7fe235", "blockhash": "0000000000000000000baef3f32e3676a92c3b2e5da21b426e4f302fc371ce76", "vout": [{"scriptPubKey": {"reqSigs": 1, "hex": "76a9143511381ea7de5476fda591cb4537311d2fcc54e888ac", "addresses": ["15qbSabZASBuVwWggmuAeBE7ojYR5E2g5b"], "asm": "OP_DUP OP_HASH160 3511381ea7de5476fda591cb4537311d2fcc54e8 OP_EQUALVERIFY OP_CHECKSIG", "type": "pubkeyhash"}, "value": 0.00049017, "n": 0}, {"scriptPubKey": {"reqSigs": 1, "hex": "a9141988a27e3c2df4ddee7fad5a2303d086179b2a3087", "addresses": ["3422VtS7UtCvXYxoXMVp6eZupR252z85oC"], "asm": "OP_HASH160 1988a27e3c2df4ddee7fad5a2303d086179b2a30 OP_EQUAL", "type": "scripthash"}, "value": 0.81412468, "n": 1}], "hex": "010000000001013d9cffa5104b516b8ccfcaaf04c2bf990b888851b732332379e761ccf7062b02030000002322002065d416c48a8072e0ac51c2d111eb194f009caef0332446c1bf2097316cf07fa9ffffffff0279bf0000000000001976a9143511381ea7de5476fda591cb4537311d2fcc54e888ac7441da040000000017a9141988a27e3c2df4ddee7fad5a2303d086179b2a30870400483045022100fb95cb1a6a6bdab200d9f954b18035752df6fae741048268b9d3e09e441a9fae0220708eec198865b9fb4178db47cf384c2cbbc7e41c12dcbe471e07baef954c4d720146304302203741ffbec0ff34c6e6574f39477bed9f911b013ba50c2e98358b06d6b9dd97de021f2b557f768665ac83e69bb42be0df8542d55351025eeca86693e36676f47e960169522102f44abcf9e23c9a460da309ccca56c619c04eed3bde2c2cff5e7d78fbcd980b9c2103c9443cf3047bb6c2c82f1b0c44c36109cdc3d0d601d16d1189a1602bf8d1a0a02103bfe867059274412412e088af5572b92168c2ef495cfe6c9b7a753a009eb37c4853ae00000000", "vin": [{"txinwitness": ["", "3045022100fb95cb1a6a6bdab200d9f954b18035752df6fae741048268b9d3e09e441a9fae0220708eec198865b9fb4178db47cf384c2cbbc7e41c12dcbe471e07baef954c4d7201", "304302203741ffbec0ff34c6e6574f39477bed9f911b013ba50c2e98358b06d6b9dd97de021f2b557f768665ac83e69bb42be0df8542d55351025eeca86693e36676f47e9601", "522102f44abcf9e23c9a460da309ccca56c619c04eed3bde2c2cff5e7d78fbcd980b9c2103c9443cf3047bb6c2c82f1b0c44c36109cdc3d0d601d16d1189a1602bf8d1a0a02103bfe867059274412412e088af5572b92168c2ef495cfe6c9b7a753a009eb37c4853ae"], "sequence": 4294967295, "scriptSig": {"hex": "22002065d416c48a8072e0ac51c2d111eb194f009caef0332446c1bf2097316cf07fa9", "asm": "002065d416c48a8072e0ac51c2d111eb194f009caef0332446c1bf2097316cf07fa9"}, "vout": 3, "txid": "022b06f7cc61e779233332b75188880b99bfc204afcacf8c6b514b10a5ff9c3d"}], "txid": "bfc333711787fa7569ce1f13b31877b9da2fad3a5f5b2b4c3a054c4fb79863db", "blocktime": 1537876114, "version": 1, "confirmations": 11460, "time": 1537876114, "locktime": 0, "vsize": 216, "size": 406}