{"hash": "bfc6419cb1a6263697a3750693e77171f001ed4881e232a32bc787eaad9b2e5b", "blockhash": "0000000000000000001cda96e906b7601b7a6fb1a3b62bca570a9e5d8f4b3de1", "vout": [{"scriptPubKey": {"reqSigs": 1, "hex": "76a9142bfbebf670b83dc0b994078751a57a7df0365c9e88ac", "addresses": ["151Zr5V5G5vKRPqNCRWFW9qrAwUqqmeEpH"], "asm": "OP_DUP OP_HASH160 2bfbebf670b83dc0b994078751a57a7df0365c9e OP_EQUALVERIFY OP_CHECKSIG", "type": "pubkeyhash"}, "value": 0.00017556, "n": 0}, {"scriptPubKey": {"reqSigs": 1, "hex": "76a914e99cad8b2ba6601e90f34305538892fe8b31289e88ac", "addresses": ["1NJE8sMVtNX2r9ygLxooiuTKXRSFa16GJ1"], "asm": "OP_DUP OP_HASH160 e99cad8b2ba6601e90f34305538892fe8b31289e OP_EQUALVERIFY OP_CHECKSIG", "type": "pubkeyhash"}, "value": 0.0049959, "n": 1}], "hex": "0100000001fee834a56e074b9b3a1fc48f1cd83c6199b558437ca69950daf7b7f21be75b3f180000006b483045022100abd55a1f3f4ca99ec2ccfe5edb765adcd943d87daff4946a4fb65d70ecb3ee6f0220440ae3cc900c79531ec6e53f1ca779637b8c9d117008f4c1a3f100c34b6a4be1012103c4c909407663b7cfd7d19ed23cebe114d11a26421701a5b9fa73ec9151e761a2ffffffff0294440000000000001976a9142bfbebf670b83dc0b994078751a57a7df0365c9e88ac869f0700000000001976a914e99cad8b2ba6601e90f34305538892fe8b31289e88ac00000000", "vin": [{"sequence": 4294967295, "scriptSig": {"hex": "483045022100abd55a1f3f4ca99ec2ccfe5edb765adcd943d87daff4946a4fb65d70ecb3ee6f0220440ae3cc900c79531ec6e53f1ca779637b8c9d117008f4c1a3f100c34b6a4be1012103c4c909407663b7cfd7d19ed23cebe114d11a26421701a5b9fa73ec9151e761a2", "asm": "3045022100abd55a1f3f4ca99ec2ccfe5edb765adcd943d87daff4946a4fb65d70ecb3ee6f0220440ae3cc900c79531ec6e53f1ca779637b8c9d117008f4c1a3f100c34b6a4be1[ALL] 03c4c909407663b7cfd7d19ed23cebe114d11a26421701a5b9fa73ec9151e761a2"}, "vout": 24, "txid": "3f5be71bf2b7f7da5099a67c4358b599613cd81c8fc41f3a9b4b076ea534e8fe"}], "txid": "bfc6419cb1a6263697a3750693e77171f001ed4881e232a32bc787eaad9b2e5b", "blocktime": 1537873282, "version": 1, "confirmations": 11485, "time": 1537873282, "locktime": 0, "vsize": 226, "size": 226}