{"hash": "bfc7f7e18426514ab50166da7629ad2ee16af588c138431ea2c8e10ea6c94cf8", "blockhash": "0000000000000000000e13cef7c366c0283d82e591d1acd082e914b08063cdf1", "vout": [{"scriptPubKey": {"reqSigs": 1, "hex": "a91462f19b4336687a58ec3a78965ab110f7cb49e8da87", "addresses": ["3AiBaTSTJcBjjDm7EdGRw7JYUmWYX3vJ7A"], "asm": "OP_HASH160 62f19b4336687a58ec3a78965ab110f7cb49e8da OP_EQUAL", "type": "scripthash"}, "value": 0.0048, "n": 0}, {"scriptPubKey": {"reqSigs": 1, "hex": "76a9141e62c4b14a4f901a3a4664ed97c5750784d2842f88ac", "addresses": ["13mfbJLBbWQiV2p1DuKwvj8dnzebALkNjk"], "asm": "OP_DUP OP_HASH160 1e62c4b14a4f901a3a4664ed97c5750784d2842f OP_EQUALVERIFY OP_CHECKSIG", "type": "pubkeyhash"}, "value": 0.1631747, "n": 1}], "hex": "0100000001a35ae1622422ba5b153e3105da274808cc3b28079f0ba75e001d3c75879823ed010000006b483045022100bd7f24ab458811c53e1e1945f2980513010c8a0e3d2f2ac9553f33df0dd3281e02203a679947348fb1e0d0e669ed0a6d857e34a30b45fb39669dc9af13409a5133720121028c20aa50b865838e35fe99ca89ad3f03727c3955d064fe515460aae096286febffffffff02005307000000000017a91462f19b4336687a58ec3a78965ab110f7cb49e8da871efcf800000000001976a9141e62c4b14a4f901a3a4664ed97c5750784d2842f88ac00000000", "vin": [{"sequence": 4294967295, "scriptSig": {"hex": "483045022100bd7f24ab458811c53e1e1945f2980513010c8a0e3d2f2ac9553f33df0dd3281e02203a679947348fb1e0d0e669ed0a6d857e34a30b45fb39669dc9af13409a5133720121028c20aa50b865838e35fe99ca89ad3f03727c3955d064fe515460aae096286feb", "asm": "3045022100bd7f24ab458811c53e1e1945f2980513010c8a0e3d2f2ac9553f33df0dd3281e02203a679947348fb1e0d0e669ed0a6d857e34a30b45fb39669dc9af13409a513372[ALL] 028c20aa50b865838e35fe99ca89ad3f03727c3955d064fe515460aae096286feb"}, "vout": 1, "txid": "ed239887753c1d005ea70b9f07283bcc084827da05313e155bba222462e15aa3"}], "txid": "bfc7f7e18426514ab50166da7629ad2ee16af588c138431ea2c8e10ea6c94cf8", "blocktime": 1537871767, "version": 1, "confirmations": 11495, "time": 1537871767, "locktime": 0, "vsize": 224, "size": 224}