{"hash": "bfca3afad52b13cea647f51af8dfa6a797a6a2ab914b6d2353313680fde9cf34", "blockhash": "00000000000000000004ffacab907a6b429b9a5745fa0b75af4234bf69dd7176", "vout": [{"scriptPubKey": {"reqSigs": 1, "hex": "a914a66bc1bd6646d8769ec49ba60e7d2cdb0e416ce987", "addresses": ["3GryBThGuG3Y4TMLteuAiUgQkNyyMdZLDV"], "asm": "OP_HASH160 a66bc1bd6646d8769ec49ba60e7d2cdb0e416ce9 OP_EQUAL", "type": "scripthash"}, "value": 0.00018387, "n": 0}, {"scriptPubKey": {"reqSigs": 1, "hex": "76a914dbe0df45778dfea31e1fabc06eb15a79db5a7b4e88ac", "addresses": ["1M3cNQKPP8VpiafaknTuf4XqBHax2uTcY4"], "asm": "OP_DUP OP_HASH160 dbe0df45778dfea31e1fabc06eb15a79db5a7b4e OP_EQUALVERIFY OP_CHECKSIG", "type": "pubkeyhash"}, "value": 55.60496554, "n": 1}], "hex": "01000000019da640c5a068096d89a276a998dbb9482da50f048b299eb8e046271270c1bee0010000006a473044022055109ef4a6fce28a111fa06c04e9dcc451f59924796c4f14c06c2410edd2c2e80220669fd63d5165f4a887dd606433100cb1eefe068223116ac807389bb26b14fc0e012102b9a3277dfff870de12ebf7432ea5f831aed6892c06f0d2f19b2bac02efda4390ffffffff02d34700000000000017a914a66bc1bd6646d8769ec49ba60e7d2cdb0e416ce987aa716e4b010000001976a914dbe0df45778dfea31e1fabc06eb15a79db5a7b4e88ac00000000", "vin": [{"sequence": 4294967295, "scriptSig": {"hex": "473044022055109ef4a6fce28a111fa06c04e9dcc451f59924796c4f14c06c2410edd2c2e80220669fd63d5165f4a887dd606433100cb1eefe068223116ac807389bb26b14fc0e012102b9a3277dfff870de12ebf7432ea5f831aed6892c06f0d2f19b2bac02efda4390", "asm": "3044022055109ef4a6fce28a111fa06c04e9dcc451f59924796c4f14c06c2410edd2c2e80220669fd63d5165f4a887dd606433100cb1eefe068223116ac807389bb26b14fc0e[ALL] 02b9a3277dfff870de12ebf7432ea5f831aed6892c06f0d2f19b2bac02efda4390"}, "vout": 1, "txid": "e0bec170122746e0b89e298b040fa52d48b9db98a976a2896d0968a0c540a69d"}], "txid": "bfca3afad52b13cea647f51af8dfa6a797a6a2ab914b6d2353313680fde9cf34", "blocktime": 1537875543, "version": 1, "confirmations": 11464, "time": 1537875543, "locktime": 0, "vsize": 223, "size": 223}