{"hash": "a101e595c82ea27ffcdf51dad147afd5fc4c8bbaec8e451e249d4ccd48633a38", "blockhash": "0000000000000000001f76057863aec43deb6fa401d9628bb513d65a8098bfab", "vout": [{"scriptPubKey": {"reqSigs": 1, "hex": "a914752683067724a33bc1646dbfb6244568f8720f8387", "addresses": ["3CNT7qSDBDy3kn6rAEo6y5Sf8NxwKsLCRX"], "asm": "OP_HASH160 752683067724a33bc1646dbfb6244568f8720f83 OP_EQUAL", "type": "scripthash"}, "value": 0.03630004, "n": 0}, {"scriptPubKey": {"reqSigs": 1, "hex": "a914000f71dbe11106724e423fc4b371c2fb4a268c8287", "addresses": ["31hLRfVv8187SJNSzeeWsSaq4T4SsgbhgK"], "asm": "OP_HASH160 000f71dbe11106724e423fc4b371c2fb4a268c82 OP_EQUAL", "type": "scripthash"}, "value": 0.00729953, "n": 1}], "hex": "020000000001043350746c680ff8f336520ccbc446cd6124a329f85b3a15e20501838385ab5ba9000000001716001442a9a409c06468695655a67788e3b13c6200db85ffffffff6dce75791abea2b3b886f775b4fcbdb0a8247ed42d29a843e03195040073559c0000000017160014ff4ffa0d6c0aee38d9988cbb3d5b87f1109df272ffffffff1267624e94dbdf23f9eba971930c6a04320952e7c850edbe17d244e569f1e74c00000000171600142712a9d3407a62417605f7f01b42175f11f5ed57ffffffffab2f9407b7f6595ce8002c08f93507a16c259ea89b4a21feae60db654d5634460100000017160014892658e09c8c8811ff44f0892d54d5d10bfad681ffffffff02b46337000000000017a914752683067724a33bc1646dbfb6244568f8720f838761230b000000000017a914000f71dbe11106724e423fc4b371c2fb4a268c8287024730440220655586e24bff2afacbc839908a77489f3a9b2aa242b21adc17ee8ee609a59fad0220692d1fe94878700a311e5c681d6d93b6d5e7e89cd479fa20639a82e952666b3c012103c51ac902142db187a47ddd5710418a9b5d4d84eaf204522f6bb053990fb1cb4702473044022011ae25dfef3d00b7d4651b4de71864382df47227e5cc4fb634047d0095f08e35022014a415b0bb9161810176b5b7e68bdce8afef66791f134c68c63eb165e923e717012102ecc400394ffee5dd5882b8fd73d9d5e455ca6002e7b50a52322c8d7e7def3f8d02473044022076fd55bffd3950492c21dae1b149ed776e1c0fd39aa75ae146fedaed4fdaf40802201c1ff613643eecfd88adc98a7e7e589b956b869bec8b32ec4f98d6548f6411dd012103c7a42d631a94e266da8698384f4f67d0ece6c0b857dfbd98ebbcedb383de9b620248304502210080bf14731ebfa35b1d79d12aa94d4edf82e89192fba1ed39dff61c429889a05d02207c93a6656737669fc3b0e04e83a0cfe58bcb3f670c50981e7d9dbb3203ef57d3012103e13f6f536610fbe8dc31b9948796ea838f7953a18c27952dbe1d96f20afa325200000000", "vin": [{"txinwitness": ["30440220655586e24bff2afacbc839908a77489f3a9b2aa242b21adc17ee8ee609a59fad0220692d1fe94878700a311e5c681d6d93b6d5e7e89cd479fa20639a82e952666b3c01", "03c51ac902142db187a47ddd5710418a9b5d4d84eaf204522f6bb053990fb1cb47"], "sequence": 4294967295, "scriptSig": {"hex": "16001442a9a409c06468695655a67788e3b13c6200db85", "asm": "001442a9a409c06468695655a67788e3b13c6200db85"}, "vout": 0, "txid": "a95bab8583830105e2153a5bf829a32461cd46c4cb0c5236f3f80f686c745033"}, {"txinwitness": ["3044022011ae25dfef3d00b7d4651b4de71864382df47227e5cc4fb634047d0095f08e35022014a415b0bb9161810176b5b7e68bdce8afef66791f134c68c63eb165e923e71701", "02ecc400394ffee5dd5882b8fd73d9d5e455ca6002e7b50a52322c8d7e7def3f8d"], "sequence": 4294967295, "scriptSig": {"hex": "160014ff4ffa0d6c0aee38d9988cbb3d5b87f1109df272", "asm": "0014ff4ffa0d6c0aee38d9988cbb3d5b87f1109df272"}, "vout": 0, "txid": "9c557300049531e043a8292dd47e24a8b0bdfcb475f786b8b3a2be1a7975ce6d"}, {"txinwitness": ["3044022076fd55bffd3950492c21dae1b149ed776e1c0fd39aa75ae146fedaed4fdaf40802201c1ff613643eecfd88adc98a7e7e589b956b869bec8b32ec4f98d6548f6411dd01", "03c7a42d631a94e266da8698384f4f67d0ece6c0b857dfbd98ebbcedb383de9b62"], "sequence": 4294967295, "scriptSig": {"hex": "1600142712a9d3407a62417605f7f01b42175f11f5ed57", "asm": "00142712a9d3407a62417605f7f01b42175f11f5ed57"}, "vout": 0, "txid": "4ce7f169e544d217beed50c8e7520932046a0c9371a9ebf923dfdb944e626712"}, {"txinwitness": ["304502210080bf14731ebfa35b1d79d12aa94d4edf82e89192fba1ed39dff61c429889a05d02207c93a6656737669fc3b0e04e83a0cfe58bcb3f670c50981e7d9dbb3203ef57d301", "03e13f6f536610fbe8dc31b9948796ea838f7953a18c27952dbe1d96f20afa3252"], "sequence": 4294967295, "scriptSig": {"hex": "160014892658e09c8c8811ff44f0892d54d5d10bfad681", "asm": "0014892658e09c8c8811ff44f0892d54d5d10bfad681"}, "vout": 1, "txid": "4634564d65db60aefe214a9ba89e256ca10735f9082c00e85c59f6b707942fab"}], "txid": "bfccb759bf64fa746f93b94b77db3e5e01367707c8c0a3b5eb0f5f5c49580b6a", "blocktime": 1537873891, "version": 2, "confirmations": 11475, "time": 1537873891, "locktime": 0, "vsize": 438, "size": 761}