{"hash": "bfcda76d455a47338778624f02d4cc9161624ae0c0298f9c0c02cb2cec7bf005", "blockhash": "0000000000000000000dcc0f55137456b1a82d3642486a52398922ac4d620174", "vout": [{"scriptPubKey": {"reqSigs": 1, "hex": "76a914d16f5bbf725165409a5193a1de45a1a73bbe0a4a88ac", "addresses": ["1L6PdQjLs1uaV8fzUBACP8m1VP7ZSN48L7"], "asm": "OP_DUP OP_HASH160 d16f5bbf725165409a5193a1de45a1a73bbe0a4a OP_EQUALVERIFY OP_CHECKSIG", "type": "pubkeyhash"}, "value": 0.9628, "n": 0}, {"scriptPubKey": {"reqSigs": 1, "hex": "76a9142caaace4d888e170aded61dfcca87f820474824b88ac", "addresses": ["155BCB2jWfxQXEhoTQ7X2TrxtfadrxKpdr"], "asm": "OP_DUP OP_HASH160 2caaace4d888e170aded61dfcca87f820474824b OP_EQUALVERIFY OP_CHECKSIG", "type": "pubkeyhash"}, "value": 1.6374658, "n": 1}], "hex": "010000000192e9c0eb8541cb8ce208525430143f89b3ea4de35631706efc24fd1f9b80b09c000000006a473044022069acca03afe5703ea6f0b6217fcf69952687381ca298c0638643d5678d9ed15302205b77a9f24e911b17a0885f8360c2eda0371a7b4c92472a731e8cafa6d1f0014e012102dc79a9453fa0331a4918fed2bc87156c84595380c54ea84be62c7241bb1ca6a9ffffffff02c01dbd05000000001976a914d16f5bbf725165409a5193a1de45a1a73bbe0a4a88ac1493c209000000001976a9142caaace4d888e170aded61dfcca87f820474824b88ac00000000", "vin": [{"sequence": 4294967295, "scriptSig": {"hex": "473044022069acca03afe5703ea6f0b6217fcf69952687381ca298c0638643d5678d9ed15302205b77a9f24e911b17a0885f8360c2eda0371a7b4c92472a731e8cafa6d1f0014e012102dc79a9453fa0331a4918fed2bc87156c84595380c54ea84be62c7241bb1ca6a9", "asm": "3044022069acca03afe5703ea6f0b6217fcf69952687381ca298c0638643d5678d9ed15302205b77a9f24e911b17a0885f8360c2eda0371a7b4c92472a731e8cafa6d1f0014e[ALL] 02dc79a9453fa0331a4918fed2bc87156c84595380c54ea84be62c7241bb1ca6a9"}, "vout": 0, "txid": "9cb0809b1ffd24fc6e703156e34deab3893f1430545208e28ccb4185ebc0e992"}], "txid": "bfcda76d455a47338778624f02d4cc9161624ae0c0298f9c0c02cb2cec7bf005", "blocktime": 1537870268, "version": 1, "confirmations": 11518, "time": 1537870268, "locktime": 0, "vsize": 225, "size": 225}