{"hash": "ebcd3e09c3d4dd84ba7c8008ca8e76306e17045259d837e96f761227848873f5", "blockhash": "00000000000000000024a2167bbff67b0be802c0b01cdd79e6331c2be6459f87", "vout": [{"scriptPubKey": {"reqSigs": 1, "hex": "a914272390fd08c52ce229e15a33c27d972198d5e26287", "addresses": ["35FxtDfj7aiPMQqnhXTERdkHmVBfHytrV2"], "asm": "OP_HASH160 272390fd08c52ce229e15a33c27d972198d5e262 OP_EQUAL", "type": "scripthash"}, "value": 7.55990245, "n": 0}, {"scriptPubKey": {"reqSigs": 1, "hex": "76a914b071fe89698a3b3c5a64525b3bca65db057628bf88ac", "addresses": ["1H5xVDz8KoYpXnyEqVPxsacdDwgPNVhQEe"], "asm": "OP_DUP OP_HASH160 b071fe89698a3b3c5a64525b3bca65db057628bf OP_EQUALVERIFY OP_CHECKSIG", "type": "pubkeyhash"}, "value": 0.00197145, "n": 1}], "hex": "02000000000101204c0d79d61d72685deead6fa8e30aba177aebcd63dccf853b959442883b44c3000000001716001412afa45a23c1ffec9133ac2cf8d6c75fdd9fbfbdfeffffff02e57e0f2d0000000017a914272390fd08c52ce229e15a33c27d972198d5e2628719020300000000001976a914b071fe89698a3b3c5a64525b3bca65db057628bf88ac02483045022100cbfa49594f227f281e6f5594544adaa0e8108eb22f957329966de85fe3c4857a02201a6d1d582bdeb9632ee552381dc06cbbe7463ac44a0fa68c581d23de297a65af0121027e40bffa91627028c2d0fade191672f43687ee9ba091f554a404559cb95708f20d490800", "vin": [{"txinwitness": ["3045022100cbfa49594f227f281e6f5594544adaa0e8108eb22f957329966de85fe3c4857a02201a6d1d582bdeb9632ee552381dc06cbbe7463ac44a0fa68c581d23de297a65af01", "027e40bffa91627028c2d0fade191672f43687ee9ba091f554a404559cb95708f2"], "sequence": 4294967294, "scriptSig": {"hex": "16001412afa45a23c1ffec9133ac2cf8d6c75fdd9fbfbd", "asm": "001412afa45a23c1ffec9133ac2cf8d6c75fdd9fbfbd"}, "vout": 0, "txid": "c3443b884294953b85cfdc63cdeb7a17ba0ae3a86fadee5d68721dd6790d4c20"}], "txid": "bfd37f5921615bf94dfaf370d6609d7cbfbd8430b323579a84da6e76b6605da7", "blocktime": 1537870564, "version": 2, "confirmations": 11515, "time": 1537870564, "locktime": 542989, "vsize": 168, "size": 250}