{"hash": "bfd6152ece29ada20467227b4afdcb8e557bbad004216ef15e40762614ec0c81", "blockhash": "0000000000000000001cda96e906b7601b7a6fb1a3b62bca570a9e5d8f4b3de1", "vout": [{"scriptPubKey": {"reqSigs": 1, "hex": "76a9147e460f9494666ce809e6f0fd0ed8c492ff0052a688ac", "addresses": ["1CWg55uZB2vJU47vt866aNsnuXtA13C51M"], "asm": "OP_DUP OP_HASH160 7e460f9494666ce809e6f0fd0ed8c492ff0052a6 OP_EQUALVERIFY OP_CHECKSIG", "type": "pubkeyhash"}, "value": 0.00137064, "n": 0}, {"scriptPubKey": {"type": "nulldata", "hex": "6a4c50000077c500011ac8685b23cc0f42c2fc38c5e5bf9ae76da98a211aaf6c953dd567cf27e7dd8adcd0cd4bfb78da54f1f70f6253cd5baa134c06136d4758d12efcbc9a9526289ac0f6612cd74e33776ee4", "asm": "OP_RETURN 000077c500011ac8685b23cc0f42c2fc38c5e5bf9ae76da98a211aaf6c953dd567cf27e7dd8adcd0cd4bfb78da54f1f70f6253cd5baa134c06136d4758d12efcbc9a9526289ac0f6612cd74e33776ee4"}, "value": 0.0, "n": 1}], "hex": "01000000013bb163e7c62cd151a8567e88956c28c0d212831f798b1d88140006771281de0f010000006b483045022100cef8b2fd04ffbcbde7e5467e8cf6b17c7efd27b3fe42e257aea6f7aedeb61407022029809a4e8ea30009c6532cdc52524f005ead40082027a282b9b37b008b5f29bf012102b9e670d574a45e656c09c880b50643168e89f7be557e56413a4f10e7b11b572affffffff0268170200000000001976a9147e460f9494666ce809e6f0fd0ed8c492ff0052a688ac0000000000000000536a4c50000077c500011ac8685b23cc0f42c2fc38c5e5bf9ae76da98a211aaf6c953dd567cf27e7dd8adcd0cd4bfb78da54f1f70f6253cd5baa134c06136d4758d12efcbc9a9526289ac0f6612cd74e33776ee400000000", "vin": [{"sequence": 4294967295, "scriptSig": {"hex": "483045022100cef8b2fd04ffbcbde7e5467e8cf6b17c7efd27b3fe42e257aea6f7aedeb61407022029809a4e8ea30009c6532cdc52524f005ead40082027a282b9b37b008b5f29bf012102b9e670d574a45e656c09c880b50643168e89f7be557e56413a4f10e7b11b572a", "asm": "3045022100cef8b2fd04ffbcbde7e5467e8cf6b17c7efd27b3fe42e257aea6f7aedeb61407022029809a4e8ea30009c6532cdc52524f005ead40082027a282b9b37b008b5f29bf[ALL] 02b9e670d574a45e656c09c880b50643168e89f7be557e56413a4f10e7b11b572a"}, "vout": 1, "txid": "0fde811277060014881d8b791f8312d2c0286c95887e56a851d12cc6e763b13b"}], "txid": "bfd6152ece29ada20467227b4afdcb8e557bbad004216ef15e40762614ec0c81", "blocktime": 1537873282, "version": 1, "confirmations": 11484, "time": 1537873282, "locktime": 0, "vsize": 284, "size": 284}