{"hash": "bfe4324b22b01f0c501003589d513aa5fcf3a7a2c357fe19e59924b0cf8b6ec2", "blockhash": "00000000000000000024a2167bbff67b0be802c0b01cdd79e6331c2be6459f87", "vout": [{"scriptPubKey": {"reqSigs": 1, "hex": "76a914e5efc22a843791435f0e3e05091a34d069e6922888ac", "addresses": ["1Mxnxe4wBjEyFT4XKp1RTGkbAyVrf2XnBD"], "asm": "OP_DUP OP_HASH160 e5efc22a843791435f0e3e05091a34d069e69228 OP_EQUALVERIFY OP_CHECKSIG", "type": "pubkeyhash"}, "value": 0.00100381, "n": 0}, {"scriptPubKey": {"reqSigs": 1, "hex": "76a914c96db1cb8abe41387a23b6c065d52f8540e0e69888ac", "addresses": ["1KN4EGSbYfMYRpoLU4yPxP6MGwxXc7E6MY"], "asm": "OP_DUP OP_HASH160 c96db1cb8abe41387a23b6c065d52f8540e0e698 OP_EQUALVERIFY OP_CHECKSIG", "type": "pubkeyhash"}, "value": 0.025, "n": 1}, {"scriptPubKey": {"reqSigs": 1, "hex": "76a9142ef4f7c65c719a810f130d31c66be945ffa1459b88ac", "addresses": ["15HHYVS9XvkArLzjQ8PV9rp3qNPn73vDrN"], "asm": "OP_DUP OP_HASH160 2ef4f7c65c719a810f130d31c66be945ffa1459b OP_EQUALVERIFY OP_CHECKSIG", "type": "pubkeyhash"}, "value": 0.01191235, "n": 2}, {"scriptPubKey": {"reqSigs": 1, "hex": "a914ce509f06d3eea059e946e0164a16c783d369bc8c87", "addresses": ["3LVuhihrHihR4Xxt9747gHu4Xuh2uXtP6a"], "asm": "OP_HASH160 ce509f06d3eea059e946e0164a16c783d369bc8c OP_EQUAL", "type": "scripthash"}, "value": 0.0199, "n": 3}, {"scriptPubKey": {"reqSigs": 1, "hex": "a9142853bab00a3c4fe6c0b7bc26dcfdc7770de5fd6787", "addresses": ["35NFFpvot9Pri1gVHadLzWCh462jgeGCEd"], "asm": "OP_HASH160 2853bab00a3c4fe6c0b7bc26dcfdc7770de5fd67 OP_EQUAL", "type": "scripthash"}, "value": 0.00414613, "n": 4}], "hex": "02000000061fd92af0ba6304085c01e7f666ac701bae6bb403e8223438b95e0005eba0edcb000000006b483045022100b561587e37f9aa94b51aaf7ffeb08e1eb4f7f03e282aa0a8f268f3901d7391000220249ce78985c055fed28a57f6aaf97aed5cb0f41fe14352e98d7c80828dae6f620121025cdb1a1d0726c9e9acf2c7571bee07e438599e722ac56a204d1aa4a6f630d959feffffff309f9cc977fc89dfa3ee0be7a9218415e406d058c3277f1a91adfba05a9357f4c10000006a47304402200d8574aead69452179edda1c6798553abad6b1ebd6c5ef42f8499cfbbd8d5d1e02201fd4886291549139d53c968057e7179175d48466297e373149cf23268da8184001210276b5c23d209ef695a7c68a04c4214549138e0c0741607e64945332afddcc38acfeffffff4741fe612d4a0037359246490776f23dc2b52852849864a56b40245ff33ded020d0000006a4730440220689d7d6cad64b8804cd18ae573e0f87d31824e0415d9b9feacf611642d98b8df02200b81d5b7c22cb665b1c22db46c86ecf4c13d355a881fc173aa180c43e2abcd3101210216666d3cbd0837c5c51941127b03618bfadd64174884316e010e633c602cd84bfeffffff5d500b81072d828b3e8679e89099ca64f4286111edd7f47f90bb2e06f9fd459cc50000006b483045022100a091eb855cf71b06128508fec92082806392e9ca6a1700558d9f9ada58fe6a63022068c8f786cb7f457f82eed72b5dee7dd38c05e53c7cb7ff14027c17d405c42cf00121033e3d79db87c3523c4a309a2c500b8546cf175dbd9cbcf09885bf674c6a3d60acfeffffff8d5d6d0d2a331a81ca408013252f29ffc6e25dce22ca6477a633c93245955c14010000006a4730440220239a986fffe049ea25063d42a71495da2593d8277eb64acf1dbe10d54bc2c53302205c1e1fdabcdf8a20e5c5fa9ae247b251ca6a42a5fc8b28b055d3ef57175a1a24012103b4a95c75e1d1016a20a81542dce2215ea6da07ed119b9966d5094a2927654e9afeffffffc94e8c74799a572d24733441d7acd5866318465b896cb2281c09bcbeded89f052b0000006a47304402203882e87f98b5fe971f7731454796f240b2665cac309a0450a667e72219876ab9022033d2f47f72bea1f86dbfd7f21a75ad65192d302973df7ebd17ee0331eead4489012102252a261cb484fc8832400a1e3d39e3e335e1dfb6e698ba6fcc190c6ebfc30bf7feffffff051d880100000000001976a914e5efc22a843791435f0e3e05091a34d069e6922888aca0252600000000001976a914c96db1cb8abe41387a23b6c065d52f8540e0e69888ac432d1200000000001976a9142ef4f7c65c719a810f130d31c66be945ffa1459b88ac705d1e000000000017a914ce509f06d3eea059e946e0164a16c783d369bc8c87955306000000000017a9142853bab00a3c4fe6c0b7bc26dcfdc7770de5fd67870d490800", "vin": [{"sequence": 4294967294, "scriptSig": {"hex": "483045022100b561587e37f9aa94b51aaf7ffeb08e1eb4f7f03e282aa0a8f268f3901d7391000220249ce78985c055fed28a57f6aaf97aed5cb0f41fe14352e98d7c80828dae6f620121025cdb1a1d0726c9e9acf2c7571bee07e438599e722ac56a204d1aa4a6f630d959", "asm": "3045022100b561587e37f9aa94b51aaf7ffeb08e1eb4f7f03e282aa0a8f268f3901d7391000220249ce78985c055fed28a57f6aaf97aed5cb0f41fe14352e98d7c80828dae6f62[ALL] 025cdb1a1d0726c9e9acf2c7571bee07e438599e722ac56a204d1aa4a6f630d959"}, "vout": 0, "txid": "cbeda0eb05005eb9383422e803b46bae1b70ac66f6e7015c080463baf02ad91f"}, {"sequence": 4294967294, "scriptSig": {"hex": "47304402200d8574aead69452179edda1c6798553abad6b1ebd6c5ef42f8499cfbbd8d5d1e02201fd4886291549139d53c968057e7179175d48466297e373149cf23268da8184001210276b5c23d209ef695a7c68a04c4214549138e0c0741607e64945332afddcc38ac", "asm": "304402200d8574aead69452179edda1c6798553abad6b1ebd6c5ef42f8499cfbbd8d5d1e02201fd4886291549139d53c968057e7179175d48466297e373149cf23268da81840[ALL] 0276b5c23d209ef695a7c68a04c4214549138e0c0741607e64945332afddcc38ac"}, "vout": 193, "txid": "f457935aa0fbad911a7f27c358d006e4158421a9e70beea3df89fc77c99c9f30"}, {"sequence": 4294967294, "scriptSig": {"hex": "4730440220689d7d6cad64b8804cd18ae573e0f87d31824e0415d9b9feacf611642d98b8df02200b81d5b7c22cb665b1c22db46c86ecf4c13d355a881fc173aa180c43e2abcd3101210216666d3cbd0837c5c51941127b03618bfadd64174884316e010e633c602cd84b", "asm": "30440220689d7d6cad64b8804cd18ae573e0f87d31824e0415d9b9feacf611642d98b8df02200b81d5b7c22cb665b1c22db46c86ecf4c13d355a881fc173aa180c43e2abcd31[ALL] 0216666d3cbd0837c5c51941127b03618bfadd64174884316e010e633c602cd84b"}, "vout": 13, "txid": "02ed3df35f24406ba56498845228b5c23df276074946923537004a2d61fe4147"}, {"sequence": 4294967294, "scriptSig": {"hex": "483045022100a091eb855cf71b06128508fec92082806392e9ca6a1700558d9f9ada58fe6a63022068c8f786cb7f457f82eed72b5dee7dd38c05e53c7cb7ff14027c17d405c42cf00121033e3d79db87c3523c4a309a2c500b8546cf175dbd9cbcf09885bf674c6a3d60ac", "asm": "3045022100a091eb855cf71b06128508fec92082806392e9ca6a1700558d9f9ada58fe6a63022068c8f786cb7f457f82eed72b5dee7dd38c05e53c7cb7ff14027c17d405c42cf0[ALL] 033e3d79db87c3523c4a309a2c500b8546cf175dbd9cbcf09885bf674c6a3d60ac"}, "vout": 197, "txid": "9c45fdf9062ebb907ff4d7ed116128f464ca9990e879863e8b822d07810b505d"}, {"sequence": 4294967294, "scriptSig": {"hex": "4730440220239a986fffe049ea25063d42a71495da2593d8277eb64acf1dbe10d54bc2c53302205c1e1fdabcdf8a20e5c5fa9ae247b251ca6a42a5fc8b28b055d3ef57175a1a24012103b4a95c75e1d1016a20a81542dce2215ea6da07ed119b9966d5094a2927654e9a", "asm": "30440220239a986fffe049ea25063d42a71495da2593d8277eb64acf1dbe10d54bc2c53302205c1e1fdabcdf8a20e5c5fa9ae247b251ca6a42a5fc8b28b055d3ef57175a1a24[ALL] 03b4a95c75e1d1016a20a81542dce2215ea6da07ed119b9966d5094a2927654e9a"}, "vout": 1, "txid": "145c954532c933a67764ca22ce5de2c6ff292f25138040ca811a332a0d6d5d8d"}, {"sequence": 4294967294, "scriptSig": {"hex": "47304402203882e87f98b5fe971f7731454796f240b2665cac309a0450a667e72219876ab9022033d2f47f72bea1f86dbfd7f21a75ad65192d302973df7ebd17ee0331eead4489012102252a261cb484fc8832400a1e3d39e3e335e1dfb6e698ba6fcc190c6ebfc30bf7", "asm": "304402203882e87f98b5fe971f7731454796f240b2665cac309a0450a667e72219876ab9022033d2f47f72bea1f86dbfd7f21a75ad65192d302973df7ebd17ee0331eead4489[ALL] 02252a261cb484fc8832400a1e3d39e3e335e1dfb6e698ba6fcc190c6ebfc30bf7"}, "vout": 43, "txid": "059fd8debebc091c28b26c895b46186386d5acd7413473242d579a79748c4ec9"}], "txid": "bfe4324b22b01f0c501003589d513aa5fcf3a7a2c357fe19e59924b0cf8b6ec2", "blocktime": 1537870564, "version": 2, "confirmations": 11515, "time": 1537870564, "locktime": 542989, "vsize": 1060, "size": 1060}