{"hash": "bfe52f6fa2be1e83cd65c5e5b2693940bc1263fc5f0abef15554ebf17e8faf56", "blockhash": "00000000000000000024a2167bbff67b0be802c0b01cdd79e6331c2be6459f87", "vout": [{"scriptPubKey": {"type": "nulldata", "hex": "6a4c500000777a00015963e841548c685615ec514fbcbefa6b8351586b4e86aeaeacb577c031fc68e703af81e629c82d1ee2a75426408a5baa09c9061499be96d0575a1d100759d4ba30d2c37bb011d97e02cf", "asm": "OP_RETURN 0000777a00015963e841548c685615ec514fbcbefa6b8351586b4e86aeaeacb577c031fc68e703af81e629c82d1ee2a75426408a5baa09c9061499be96d0575a1d100759d4ba30d2c37bb011d97e02cf"}, "value": 0.0, "n": 0}, {"scriptPubKey": {"reqSigs": 1, "hex": "76a9149ac911e59b6ed28f8e8ebb0204931ad9141bb54588ac", "addresses": ["1F7Rw8CbZWwGcLjdBwZGH4dC9HgRM69Ezo"], "asm": "OP_DUP OP_HASH160 9ac911e59b6ed28f8e8ebb0204931ad9141bb545 OP_EQUALVERIFY OP_CHECKSIG", "type": "pubkeyhash"}, "value": 0.00646344, "n": 1}], "hex": "0100000001df3252728e59352fefa2f5b5f6fec5d5b591a4d2bd4e0b8bebe4e968179f7747000000006a47304402204f6ef92f4fb013e162fc9a44c6e1d826e863d05636737f986cf4d8407d40de780220576f7f2ad71808331678f9b6197ffef76f46924407e681a329a7083795b812f8012102514b50644bb35ff9884924c0f9ca8bf2c6f1728b3adf8931f3463e7d68bba198ffffffff020000000000000000536a4c500000777a00015963e841548c685615ec514fbcbefa6b8351586b4e86aeaeacb577c031fc68e703af81e629c82d1ee2a75426408a5baa09c9061499be96d0575a1d100759d4ba30d2c37bb011d97e02cfc8dc0900000000001976a9149ac911e59b6ed28f8e8ebb0204931ad9141bb54588ac00000000", "vin": [{"sequence": 4294967295, "scriptSig": {"hex": "47304402204f6ef92f4fb013e162fc9a44c6e1d826e863d05636737f986cf4d8407d40de780220576f7f2ad71808331678f9b6197ffef76f46924407e681a329a7083795b812f8012102514b50644bb35ff9884924c0f9ca8bf2c6f1728b3adf8931f3463e7d68bba198", "asm": "304402204f6ef92f4fb013e162fc9a44c6e1d826e863d05636737f986cf4d8407d40de780220576f7f2ad71808331678f9b6197ffef76f46924407e681a329a7083795b812f8[ALL] 02514b50644bb35ff9884924c0f9ca8bf2c6f1728b3adf8931f3463e7d68bba198"}, "vout": 0, "txid": "47779f1768e9e4eb8b0b4ebdd2a491b5d5c5fef6b5f5a2ef2f35598e725232df"}], "txid": "bfe52f6fa2be1e83cd65c5e5b2693940bc1263fc5f0abef15554ebf17e8faf56", "blocktime": 1537870564, "version": 1, "confirmations": 11515, "time": 1537870564, "locktime": 0, "vsize": 283, "size": 283}