{"hash": "bff2cb46ba795baef6759508389bb035974a8931018446535135dda3d559e881", "blockhash": "0000000000000000001cda96e906b7601b7a6fb1a3b62bca570a9e5d8f4b3de1", "vout": [{"scriptPubKey": {"reqSigs": 1, "hex": "76a914444a571bee881bdc85271b1c0e7f56f323b4909c88ac", "addresses": ["17E61JE2xuePbUUNcuKatk88M6nU5UyKni"], "asm": "OP_DUP OP_HASH160 444a571bee881bdc85271b1c0e7f56f323b4909c OP_EQUALVERIFY OP_CHECKSIG", "type": "pubkeyhash"}, "value": 0.08275718, "n": 0}], "hex": "0100000001760cb8e4440a4fcff03185f5b2eea3e8fef7c853e30946585e897ed865db7ef2000000006a473044022064c4689a65d939edc084c7233cd9c3beb6047c4281d2e2f2a23f9313f88d2a4f022079f8e6d8652d65aed5f473a3df1e3623aa3add743fc53aee68d2e28433bac182012103a1e837f0f72f73240c673f0c8d1872e49583370fdebe19f215e7284c2b83bbebffffffff0106477e00000000001976a914444a571bee881bdc85271b1c0e7f56f323b4909c88ac00000000", "vin": [{"sequence": 4294967295, "scriptSig": {"hex": "473044022064c4689a65d939edc084c7233cd9c3beb6047c4281d2e2f2a23f9313f88d2a4f022079f8e6d8652d65aed5f473a3df1e3623aa3add743fc53aee68d2e28433bac182012103a1e837f0f72f73240c673f0c8d1872e49583370fdebe19f215e7284c2b83bbeb", "asm": "3044022064c4689a65d939edc084c7233cd9c3beb6047c4281d2e2f2a23f9313f88d2a4f022079f8e6d8652d65aed5f473a3df1e3623aa3add743fc53aee68d2e28433bac182[ALL] 03a1e837f0f72f73240c673f0c8d1872e49583370fdebe19f215e7284c2b83bbeb"}, "vout": 0, "txid": "f27edb65d87e895e584609e353c8f7fee8a3eeb2f58531f0cf4f0a44e4b80c76"}], "txid": "bff2cb46ba795baef6759508389bb035974a8931018446535135dda3d559e881", "blocktime": 1537873282, "version": 1, "confirmations": 11481, "time": 1537873282, "locktime": 0, "vsize": 191, "size": 191}