{"hash": "bff21a201709b9e0795e64b0632fea5606e470a01e24748fc22634d3da1fd6d8", "blockhash": "0000000000000000001f76057863aec43deb6fa401d9628bb513d65a8098bfab", "vout": [{"scriptPubKey": {"reqSigs": 1, "hex": "76a91474d818256d40969aa30720b3f8acdb3b4b21d97e88ac", "addresses": ["1BepFkSZusmDn1UdGJyoLXNEr26Tj2h9Yv"], "asm": "OP_DUP OP_HASH160 74d818256d40969aa30720b3f8acdb3b4b21d97e OP_EQUALVERIFY OP_CHECKSIG", "type": "pubkeyhash"}, "value": 0.00755059, "n": 0}, {"scriptPubKey": {"reqSigs": 1, "hex": "76a914414ea1506a0df8fc879a6759ba66bc72552f3eb688ac", "addresses": ["16xK7ncW7i8pPdfk95g2ha3GEPcMamNNoD"], "asm": "OP_DUP OP_HASH160 414ea1506a0df8fc879a6759ba66bc72552f3eb6 OP_EQUALVERIFY OP_CHECKSIG", "type": "pubkeyhash"}, "value": 0.07778, "n": 1}], "hex": "0100000002c1364ca82cbb4c2adc74d46742241361d470e540548be8ec69a95f081fe35873010000006b48304502210093cf92a0651d138cd9d0c6fa4134466e21ff4c6b3c1dc5e184ed3ae0a6049e3302201ced57816a84e033c49e45c057f688db6b71b6483c029a9c56c58cc5d1cf5a7c012102d98ddfd915cb9224580367ed4b104b29fd9850021a9344f6908490a16f728878ffffffffe23f0c27e07cc33b501d1c9955c8c1d09f3d9a692a038fb2cb5499b014004ce5000000006a4730440220315832e5e8d0baf73534a50b2e875d7ec3053d703c9043225ff0bca0f613d04202207b29bbad849517cfcde0ed6b85770e8b70c6507cd846407c01f0f2887a911af9012102d98ddfd915cb9224580367ed4b104b29fd9850021a9344f6908490a16f728878ffffffff0273850b00000000001976a91474d818256d40969aa30720b3f8acdb3b4b21d97e88acd0ae7600000000001976a914414ea1506a0df8fc879a6759ba66bc72552f3eb688ac00000000", "vin": [{"sequence": 4294967295, "scriptSig": {"hex": "48304502210093cf92a0651d138cd9d0c6fa4134466e21ff4c6b3c1dc5e184ed3ae0a6049e3302201ced57816a84e033c49e45c057f688db6b71b6483c029a9c56c58cc5d1cf5a7c012102d98ddfd915cb9224580367ed4b104b29fd9850021a9344f6908490a16f728878", "asm": "304502210093cf92a0651d138cd9d0c6fa4134466e21ff4c6b3c1dc5e184ed3ae0a6049e3302201ced57816a84e033c49e45c057f688db6b71b6483c029a9c56c58cc5d1cf5a7c[ALL] 02d98ddfd915cb9224580367ed4b104b29fd9850021a9344f6908490a16f728878"}, "vout": 1, "txid": "7358e31f085fa969ece88b5440e570d46113244267d474dc2a4cbb2ca84c36c1"}, {"sequence": 4294967295, "scriptSig": {"hex": "4730440220315832e5e8d0baf73534a50b2e875d7ec3053d703c9043225ff0bca0f613d04202207b29bbad849517cfcde0ed6b85770e8b70c6507cd846407c01f0f2887a911af9012102d98ddfd915cb9224580367ed4b104b29fd9850021a9344f6908490a16f728878", "asm": "30440220315832e5e8d0baf73534a50b2e875d7ec3053d703c9043225ff0bca0f613d04202207b29bbad849517cfcde0ed6b85770e8b70c6507cd846407c01f0f2887a911af9[ALL] 02d98ddfd915cb9224580367ed4b104b29fd9850021a9344f6908490a16f728878"}, "vout": 0, "txid": "e54c0014b09954cbb28f032a699a3d9fd0c1c855991c1d503bc37ce0270c3fe2"}], "txid": "bff21a201709b9e0795e64b0632fea5606e470a01e24748fc22634d3da1fd6d8", "blocktime": 1537873891, "version": 1, "confirmations": 11478, "time": 1537873891, "locktime": 0, "vsize": 373, "size": 373}