{"hash": "bff2e41c0df47778430515645a33e52ff141210508d80be11e96658089349b08", "blockhash": "000000000000000000022b45ed06c6f4ccd3cf7fb5ba4856ebd2e58215665228", "vout": [{"scriptPubKey": {"type": "nulldata", "hex": "6a4c50000077620001ab72021cbf7a9755e6aa0aff86aeaeacb577c031fc3a016b46dc7dc7d0965ece4a7c5dd9de064fcf302c11a0c4e25baa07b906127d475b09230f1d100759d4ba30d2c37bb011d97e02cf", "asm": "OP_RETURN 000077620001ab72021cbf7a9755e6aa0aff86aeaeacb577c031fc3a016b46dc7dc7d0965ece4a7c5dd9de064fcf302c11a0c4e25baa07b906127d475b09230f1d100759d4ba30d2c37bb011d97e02cf"}, "value": 0.0, "n": 0}, {"scriptPubKey": {"reqSigs": 1, "hex": "76a91438d59e254618fc902d892bab64f7740e95dd633f88ac", "addresses": ["16BWkAY5yNpWHaTM1jtgr21QKPrQ4dgAZ3"], "asm": "OP_DUP OP_HASH160 38d59e254618fc902d892bab64f7740e95dd633f OP_EQUALVERIFY OP_CHECKSIG", "type": "pubkeyhash"}, "value": 0.00650916, "n": 1}], "hex": "01000000010cfc1c58738c2d1a3b877d65add3aeb0ed68ba3c29d9d147baf8d04c8b2a7c70010000006b48304502210086133b3e88a679cce61a140b7b519f0f4dce12f420dc20dfa60ad0f8ae1c4ae502203eedb3d8149e84eaee2f5ba4237d9f8a9b5064f4c063ee185a17f9527d1c3a2b012103694ad1a69bc251e79e13f9c1c4f7dbcc78d192e4089ef1d1d9cb18a162e2a913ffffffff020000000000000000536a4c50000077620001ab72021cbf7a9755e6aa0aff86aeaeacb577c031fc3a016b46dc7dc7d0965ece4a7c5dd9de064fcf302c11a0c4e25baa07b906127d475b09230f1d100759d4ba30d2c37bb011d97e02cfa4ee0900000000001976a91438d59e254618fc902d892bab64f7740e95dd633f88ac00000000", "vin": [{"sequence": 4294967295, "scriptSig": {"hex": "48304502210086133b3e88a679cce61a140b7b519f0f4dce12f420dc20dfa60ad0f8ae1c4ae502203eedb3d8149e84eaee2f5ba4237d9f8a9b5064f4c063ee185a17f9527d1c3a2b012103694ad1a69bc251e79e13f9c1c4f7dbcc78d192e4089ef1d1d9cb18a162e2a913", "asm": "304502210086133b3e88a679cce61a140b7b519f0f4dce12f420dc20dfa60ad0f8ae1c4ae502203eedb3d8149e84eaee2f5ba4237d9f8a9b5064f4c063ee185a17f9527d1c3a2b[ALL] 03694ad1a69bc251e79e13f9c1c4f7dbcc78d192e4089ef1d1d9cb18a162e2a913"}, "vout": 1, "txid": "707c2a8b4cd0f8ba47d1d9293cba68edb0aed3ad657d873b1a2d8c73581cfc0c"}], "txid": "bff2e41c0df47778430515645a33e52ff141210508d80be11e96658089349b08", "blocktime": 1537869901, "version": 1, "confirmations": 11523, "time": 1537869901, "locktime": 0, "vsize": 284, "size": 284}