{"hash": "bffd82a102b299640c438203e10ab436f5e74c1c9e6a53f4c3a899a592a89b81", "blockhash": "0000000000000000001cda96e906b7601b7a6fb1a3b62bca570a9e5d8f4b3de1", "vout": [{"scriptPubKey": {"reqSigs": 1, "hex": "76a9140d9bc92ea74bbf274fdb4bc4f9bce3bb461059c888ac", "addresses": ["12ExQgmcAPZgPWbo5QNJ4UT8VPpV5q5Tq2"], "asm": "OP_DUP OP_HASH160 0d9bc92ea74bbf274fdb4bc4f9bce3bb461059c8 OP_EQUALVERIFY OP_CHECKSIG", "type": "pubkeyhash"}, "value": 0.00312, "n": 0}, {"scriptPubKey": {"reqSigs": 1, "hex": "001435ac075c95820280bdb59bd8282853937033e800", "addresses": ["bc1qxkkqwhy4sgpgp0d4n0vzs2znjdcr86qqas7lm9"], "asm": "0 35ac075c95820280bdb59bd8282853937033e800", "type": "witness_v0_keyhash"}, "value": 9.483e-05, "n": 1}], "hex": "01000000014f783e77eb57e4044d0cc779f2adc23be36714ab33675e519176c336fdd1454e5d0000008a4730440220522784470d4afa14f8f6b4cee1c7306879b28a19336c16301611e4686030c74d022013a623b7523bd9198bc6aa25648c3cd8db9a872cd780484378b2a941c53f65a00141042d0afe6a7786a939b9dade30668007a1a3d8c6338a048c17313a3dd8ef66925bce97d5af5477df92d8e80c5743b740ebe7fee7df717ff0f13c00e73de5eb2ffeffffffff02c0c20400000000001976a9140d9bc92ea74bbf274fdb4bc4f9bce3bb461059c888ac0b2500000000000016001435ac075c95820280bdb59bd8282853937033e80000000000", "vin": [{"sequence": 4294967295, "scriptSig": {"hex": "4730440220522784470d4afa14f8f6b4cee1c7306879b28a19336c16301611e4686030c74d022013a623b7523bd9198bc6aa25648c3cd8db9a872cd780484378b2a941c53f65a00141042d0afe6a7786a939b9dade30668007a1a3d8c6338a048c17313a3dd8ef66925bce97d5af5477df92d8e80c5743b740ebe7fee7df717ff0f13c00e73de5eb2ffe", "asm": "30440220522784470d4afa14f8f6b4cee1c7306879b28a19336c16301611e4686030c74d022013a623b7523bd9198bc6aa25648c3cd8db9a872cd780484378b2a941c53f65a0[ALL] 042d0afe6a7786a939b9dade30668007a1a3d8c6338a048c17313a3dd8ef66925bce97d5af5477df92d8e80c5743b740ebe7fee7df717ff0f13c00e73de5eb2ffe"}, "vout": 93, "txid": "4e45d1fd36c37691515e6733ab1467e33bc2adf279c70c4d04e457eb773e784f"}], "txid": "bffd82a102b299640c438203e10ab436f5e74c1c9e6a53f4c3a899a592a89b81", "blocktime": 1537873282, "version": 1, "confirmations": 11484, "time": 1537873282, "locktime": 0, "vsize": 254, "size": 254}