{"hash": "bffe5cb25e0c2c27d22b5cb93c6f438a0d17f595078016d1f7bddfb11bb6efc3", "blockhash": "00000000000000000024a2167bbff67b0be802c0b01cdd79e6331c2be6459f87", "vout": [{"scriptPubKey": {"reqSigs": 1, "hex": "a914e2f667c466c90f5a168fb9a1fae8b4b40c4cbbd587", "addresses": ["3NP5pSWZBDssQAmzrJtfunaXpzUfPJ3f4B"], "asm": "OP_HASH160 e2f667c466c90f5a168fb9a1fae8b4b40c4cbbd5 OP_EQUAL", "type": "scripthash"}, "value": 0.0140256, "n": 0}, {"scriptPubKey": {"reqSigs": 1, "hex": "76a914c4b60affc66aa559527a32270b63e450a0c2b16688ac", "addresses": ["1Jw7XAcYEr7y51zEzE86eejLUMbfb3NHUK"], "asm": "OP_DUP OP_HASH160 c4b60affc66aa559527a32270b63e450a0c2b166 OP_EQUALVERIFY OP_CHECKSIG", "type": "pubkeyhash"}, "value": 0.1136284, "n": 1}], "hex": "0100000001911722d606232fde6643e345382c09e48718cf502802191aca01beae2c70880f010000008a47304402203ef2568c9965fe7918a8d420f107fdf10877b5e718891b982411ad487d84cc6602201e1554d77876692afbeedce14be4b73925660ec7808d9b327c887f33b0ab1f510141040c6fb303b7e63b97646a5e33a6ecdfab83e87cb9dce065d09ae0b9dd5dcc6bc188cd390a3dfc6ab952f25b12460cb3fc0fb3432288e5f6a5438cf707bbaf478dffffffff02c06615000000000017a914e2f667c466c90f5a168fb9a1fae8b4b40c4cbbd5871862ad00000000001976a914c4b60affc66aa559527a32270b63e450a0c2b16688ac00000000", "vin": [{"sequence": 4294967295, "scriptSig": {"hex": "47304402203ef2568c9965fe7918a8d420f107fdf10877b5e718891b982411ad487d84cc6602201e1554d77876692afbeedce14be4b73925660ec7808d9b327c887f33b0ab1f510141040c6fb303b7e63b97646a5e33a6ecdfab83e87cb9dce065d09ae0b9dd5dcc6bc188cd390a3dfc6ab952f25b12460cb3fc0fb3432288e5f6a5438cf707bbaf478d", "asm": "304402203ef2568c9965fe7918a8d420f107fdf10877b5e718891b982411ad487d84cc6602201e1554d77876692afbeedce14be4b73925660ec7808d9b327c887f33b0ab1f51[ALL] 040c6fb303b7e63b97646a5e33a6ecdfab83e87cb9dce065d09ae0b9dd5dcc6bc188cd390a3dfc6ab952f25b12460cb3fc0fb3432288e5f6a5438cf707bbaf478d"}, "vout": 1, "txid": "0f88702caebe01ca1a19022850cf1887e4092c3845e34366de2f2306d6221791"}], "txid": "bffe5cb25e0c2c27d22b5cb93c6f438a0d17f595078016d1f7bddfb11bb6efc3", "blocktime": 1537870564, "version": 1, "confirmations": 11515, "time": 1537870564, "locktime": 0, "vsize": 255, "size": 255}