{"hash": "bfff117868f12635a20944954b89003ff6f359cdb174e9ff1fb0ee07c070c26e", "blockhash": "000000000000000000022b45ed06c6f4ccd3cf7fb5ba4856ebd2e58215665228", "vout": [{"scriptPubKey": {"reqSigs": 1, "hex": "76a91487d0a410ff6d597de9b739f07d03f7040fc880b188ac", "addresses": ["1DP8AX9voAdDuNjbRKGSJnT1baXQF9QkFf"], "asm": "OP_DUP OP_HASH160 87d0a410ff6d597de9b739f07d03f7040fc880b1 OP_EQUALVERIFY OP_CHECKSIG", "type": "pubkeyhash"}, "value": 0.02016, "n": 0}, {"scriptPubKey": {"reqSigs": 1, "hex": "a914e370231feecbfc25e2e2423a5a79bf79bfdca59887", "addresses": ["3NRbeX3vD5VaVE4TDU9ivCDsEf7NPPte6J"], "asm": "OP_HASH160 e370231feecbfc25e2e2423a5a79bf79bfdca598 OP_EQUAL", "type": "scripthash"}, "value": 11.73792726, "n": 1}], "hex": "01000000016e7e3cf0f0e5125a04fc51d540594ca2818def7dd26a287d0af0a19d2dce564c01000000db00483045022100d0192f8bdb24525ab6d1a17f9cfe6b635b6d01ead23533ad128c4d0d2f1013870220366ffa8ce3448d97a3fca9342c795d4a07f127653eaadf83948f160f52a31b9501483045022100f8ff61e2b9afc63eb63d2c1e1b68ea4a530d7a95b1eae56fa6e292aed9c932590220112826f266276a4c3f73c5ed535e7a7e7f10fa27fdbdbb55660ee16698161b72014752210327881b6abce6535553a3ce21fad12a7d74fd237ce7c4cd270a267162344e3082210256141f8eb687f5a68c5cc65054652dc25116fa285e44d72b44368827ffe77d9a52aeffffffff0200c31e00000000001976a91487d0a410ff6d597de9b739f07d03f7040fc880b188acd6a7f6450000000017a914e370231feecbfc25e2e2423a5a79bf79bfdca5988700000000", "vin": [{"sequence": 4294967295, "scriptSig": {"hex": "00483045022100d0192f8bdb24525ab6d1a17f9cfe6b635b6d01ead23533ad128c4d0d2f1013870220366ffa8ce3448d97a3fca9342c795d4a07f127653eaadf83948f160f52a31b9501483045022100f8ff61e2b9afc63eb63d2c1e1b68ea4a530d7a95b1eae56fa6e292aed9c932590220112826f266276a4c3f73c5ed535e7a7e7f10fa27fdbdbb55660ee16698161b72014752210327881b6abce6535553a3ce21fad12a7d74fd237ce7c4cd270a267162344e3082210256141f8eb687f5a68c5cc65054652dc25116fa285e44d72b44368827ffe77d9a52ae", "asm": "0 3045022100d0192f8bdb24525ab6d1a17f9cfe6b635b6d01ead23533ad128c4d0d2f1013870220366ffa8ce3448d97a3fca9342c795d4a07f127653eaadf83948f160f52a31b95[ALL] 3045022100f8ff61e2b9afc63eb63d2c1e1b68ea4a530d7a95b1eae56fa6e292aed9c932590220112826f266276a4c3f73c5ed535e7a7e7f10fa27fdbdbb55660ee16698161b72[ALL] 52210327881b6abce6535553a3ce21fad12a7d74fd237ce7c4cd270a267162344e3082210256141f8eb687f5a68c5cc65054652dc25116fa285e44d72b44368827ffe77d9a52ae"}, "vout": 1, "txid": "4c56ce2d9da1f00a7d286ad27def8d81a24c5940d551fc045a12e5f0f03c7e6e"}], "txid": "bfff117868f12635a20944954b89003ff6f359cdb174e9ff1fb0ee07c070c26e", "blocktime": 1537869901, "version": 1, "confirmations": 11524, "time": 1537869901, "locktime": 0, "vsize": 336, "size": 336}