{"hash": "49ebe85bda2cac680a897ec315978fc08ec020ad53426ff81800905daea4bb86", "blockhash": "0000000000000000001e0dab787dd257d1dbfcb92a98c2207d5e1078be1f4165", "vout": [{"scriptPubKey": {"reqSigs": 1, "hex": "a9142fd3662ce87800801eedbf9edae80965eb6c312187", "addresses": ["363tvpzmdXYQSJ8hZdC5pPQcGPerP5NBzQ"], "asm": "OP_HASH160 2fd3662ce87800801eedbf9edae80965eb6c3121 OP_EQUAL", "type": "scripthash"}, "value": 0.00390472, "n": 0}, {"scriptPubKey": {"reqSigs": 1, "hex": "a914edae0f76b5727bdf1e48d32699d500be18d8f40887", "addresses": ["3PMkawGk1fuAhgDxRb42vvarA6VaprsCoe"], "asm": "OP_HASH160 edae0f76b5727bdf1e48d32699d500be18d8f408 OP_EQUAL", "type": "scripthash"}, "value": 1.70554383, "n": 1}], "hex": "01000000000101976d0f404a281a3d9e4b24080456a8752a35018c4c5bd882e25e8a301a9a5c0101000000232200208efb2e4d32c6b2f3f5f412c65a245e883af3111bab8f343c933f00ab4036878dffffffff0248f505000000000017a9142fd3662ce87800801eedbf9edae80965eb6c3121870f742a0a0000000017a914edae0f76b5727bdf1e48d32699d500be18d8f4088704004830450221009db582eced807b428e64e061b440030e35db309a239e37b84d6488bb4118f087022026c7aea8f592b94f181280b3647f6225fa99da5dac49b79d828f8c2d8425c8d50148304502210080ab69a101f31b86aac2823ad729ae4ecfcea1e6a8090da39bfe66decfccf5dc02206eb86afd9a006e1351e471026507c1aeb7825a3c3bac7e34b2b5cc35d7a527ab016952210234d7fdf1e5209d08164228f88168255bb58cbf1568c3c4cb8827cc51f2814a8a2103ae2db389208ebeef0cfe1867b0362878bc87135203b98bcdce60420c92f73e6c2103d55e9342071656dfdf84b1bbb334dbafb24f04bb2c8f994fd86cc02f795fe5d153ae00000000", "vin": [{"txinwitness": ["", "30450221009db582eced807b428e64e061b440030e35db309a239e37b84d6488bb4118f087022026c7aea8f592b94f181280b3647f6225fa99da5dac49b79d828f8c2d8425c8d501", "304502210080ab69a101f31b86aac2823ad729ae4ecfcea1e6a8090da39bfe66decfccf5dc02206eb86afd9a006e1351e471026507c1aeb7825a3c3bac7e34b2b5cc35d7a527ab01", "52210234d7fdf1e5209d08164228f88168255bb58cbf1568c3c4cb8827cc51f2814a8a2103ae2db389208ebeef0cfe1867b0362878bc87135203b98bcdce60420c92f73e6c2103d55e9342071656dfdf84b1bbb334dbafb24f04bb2c8f994fd86cc02f795fe5d153ae"], "sequence": 4294967295, "scriptSig": {"hex": "2200208efb2e4d32c6b2f3f5f412c65a245e883af3111bab8f343c933f00ab4036878d", "asm": "00208efb2e4d32c6b2f3f5f412c65a245e883af3111bab8f343c933f00ab4036878d"}, "vout": 1, "txid": "015c9a1a308a5ee282d85b4c8c01352a75a8560408244b9e3d1a284a400f6d97"}], "txid": "c000c68d61e2bf588d195232efe74a9d3fda8d13cdef8ea81b19bcb3a9f1cee0", "blocktime": 1537872475, "version": 1, "confirmations": 11486, "time": 1537872475, "locktime": 0, "vsize": 214, "size": 406}