{"hash": "04a2705a75a80edd20421555e7902ef96990f510b578e18f3a8eb11a2a66d6fa", "blockhash": "0000000000000000000baef3f32e3676a92c3b2e5da21b426e4f302fc371ce76", "vout": [{"scriptPubKey": {"reqSigs": 1, "hex": "76a914bbaec083b5e6b2619a44122d11954d363152fd0488ac", "addresses": ["1J7NhraWXwxB5EzsPgHjvHxXqAAYgWV397"], "asm": "OP_DUP OP_HASH160 bbaec083b5e6b2619a44122d11954d363152fd04 OP_EQUALVERIFY OP_CHECKSIG", "type": "pubkeyhash"}, "value": 0.0031106, "n": 0}, {"scriptPubKey": {"reqSigs": 1, "hex": "a91461df1c3978c84085635c495a21e81989c5b78ceb87", "addresses": ["3AcWk87J9tsxAuhQCVqTZ72C3CkMXhLxQa"], "asm": "OP_HASH160 61df1c3978c84085635c495a21e81989c5b78ceb OP_EQUAL", "type": "scripthash"}, "value": 0.01042694, "n": 1}], "hex": "0200000000010203fa8b00432ee7bf444049466d66e191bbbfeee987e9e6429397cc963306c8d91900000017160014a4d3e569d99a0c19b083760635455e440d64022efeffffffced21351916b4b687f2a1ad8f2cc52265cc5767953f4ffe3665d6dab31e7d989010000001716001454141ee86135dd82369998327fefb5957e1c1739feffffff0214bf0400000000001976a914bbaec083b5e6b2619a44122d11954d363152fd0488ac06e90f000000000017a91461df1c3978c84085635c495a21e81989c5b78ceb870247304402200cd059e2ce2650f03c52aab3997cf68d89c552849e2f6c00a1c38a4f71b97a410220394da91f5a4fe802af97a46319d032906e12432b252e3ca8d05bc0a3414f0fdf012102ca25467a1b6f50ab5efce2760c8110ff04c7595cbca8ade87eb1b7d229bcddee02483045022100f96506262e516d76120248b52ba4635f4a53613c3a66b6e23675999e4d13d0db02200c940e4e9ef5695c331270cc11b5b049794d30bbf23f8d6824076d1609f30846012103c186ef60b416f68cbd6c2952cf107b7d081c3d9b49a90f6dc9c99bcb1a43ea9417490800", "vin": [{"txinwitness": ["304402200cd059e2ce2650f03c52aab3997cf68d89c552849e2f6c00a1c38a4f71b97a410220394da91f5a4fe802af97a46319d032906e12432b252e3ca8d05bc0a3414f0fdf01", "02ca25467a1b6f50ab5efce2760c8110ff04c7595cbca8ade87eb1b7d229bcddee"], "sequence": 4294967294, "scriptSig": {"hex": "160014a4d3e569d99a0c19b083760635455e440d64022e", "asm": "0014a4d3e569d99a0c19b083760635455e440d64022e"}, "vout": 25, "txid": "d9c8063396cc979342e6e987e9eebfbb91e1666d46494044bfe72e43008bfa03"}, {"txinwitness": ["3045022100f96506262e516d76120248b52ba4635f4a53613c3a66b6e23675999e4d13d0db02200c940e4e9ef5695c331270cc11b5b049794d30bbf23f8d6824076d1609f3084601", "03c186ef60b416f68cbd6c2952cf107b7d081c3d9b49a90f6dc9c99bcb1a43ea94"], "sequence": 4294967294, "scriptSig": {"hex": "16001454141ee86135dd82369998327fefb5957e1c1739", "asm": "001454141ee86135dd82369998327fefb5957e1c1739"}, "vout": 1, "txid": "89d9e731ab6d5d66e3fff4537976c55c2652ccf2d81a2a7f684b6b915113d2ce"}], "txid": "c0016b781b7349c78a80652c01c2fa99ff895e3271e91ae131d2d917d5718c46", "blocktime": 1537876114, "version": 2, "confirmations": 11462, "time": 1537876114, "locktime": 542999, "vsize": 259, "size": 421}