{"hash": "c00505fce2ea34e476d2667066419f74ec7a10a016e7a57207814c8f14350859", "blockhash": "00000000000000000017f5eb5941039fbcee6240d03bc1f2f8e35350df66a1d8", "vout": [{"scriptPubKey": {"reqSigs": 1, "hex": "a91472ed4dbe866e90a06e425847da6713150ecf846787", "addresses": ["3CAhEZXywoYGwfHTrR1A9jyaaQwgepoQDv"], "asm": "OP_HASH160 72ed4dbe866e90a06e425847da6713150ecf8467 OP_EQUAL", "type": "scripthash"}, "value": 0.00974883, "n": 0}, {"scriptPubKey": {"reqSigs": 1, "hex": "76a914b44cae99837337275d21d2c5c6ed6cddf7a7e9f788ac", "addresses": ["1HSLVVSSQmzaNG8sbakhFDrmpzUPZLnYCe"], "asm": "OP_DUP OP_HASH160 b44cae99837337275d21d2c5c6ed6cddf7a7e9f7 OP_EQUALVERIFY OP_CHECKSIG", "type": "pubkeyhash"}, "value": 0.10317895, "n": 1}], "hex": "0100000001cac70025568acbfb247d25c923dd796e08501c51cf6065c22c42c8c1245fcdd7010000006a4730440220345295d8ddc02c7e01a889737a96eeb878856a89e94846f0e8be247aa90beac00220344719bd0174ea782dfaa3065b2d07c565c691d55fde5c1fe6d569b6c45126de01210330f86552cc4ff3f958ce087f46253360126a153c839a09fa66b57b99adc0f8b1ffffffff0223e00e000000000017a91472ed4dbe866e90a06e425847da6713150ecf84678747709d00000000001976a914b44cae99837337275d21d2c5c6ed6cddf7a7e9f788ac00000000", "vin": [{"sequence": 4294967295, "scriptSig": {"hex": "4730440220345295d8ddc02c7e01a889737a96eeb878856a89e94846f0e8be247aa90beac00220344719bd0174ea782dfaa3065b2d07c565c691d55fde5c1fe6d569b6c45126de01210330f86552cc4ff3f958ce087f46253360126a153c839a09fa66b57b99adc0f8b1", "asm": "30440220345295d8ddc02c7e01a889737a96eeb878856a89e94846f0e8be247aa90beac00220344719bd0174ea782dfaa3065b2d07c565c691d55fde5c1fe6d569b6c45126de[ALL] 0330f86552cc4ff3f958ce087f46253360126a153c839a09fa66b57b99adc0f8b1"}, "vout": 1, "txid": "d7cd5f24c1c8422cc26560cf511c50086e79dd23c9257d24fbcb8a562500c7ca"}], "txid": "c00505fce2ea34e476d2667066419f74ec7a10a016e7a57207814c8f14350859", "blocktime": 1537874412, "version": 1, "confirmations": 11467, "time": 1537874412, "locktime": 0, "vsize": 223, "size": 223}