{"hash": "c005df486f13b785620b619a67fdf0934ebab8a1e38f8b7ca8e769b90ad23ff6", "blockhash": "0000000000000000001f0ddff1eddb255c1121bcd4da4f1bc9a0da00cae72433", "vout": [{"scriptPubKey": {"reqSigs": 1, "hex": "76a914a93ea1545c5564e47258fd57ce23ed088cae774488ac", "addresses": ["1GRtE3QX2xuGEeU3CfFGTc6f9ktCYvREP3"], "asm": "OP_DUP OP_HASH160 a93ea1545c5564e47258fd57ce23ed088cae7744 OP_EQUALVERIFY OP_CHECKSIG", "type": "pubkeyhash"}, "value": 0.0002, "n": 0}, {"scriptPubKey": {"reqSigs": 1, "hex": "76a914f1e4a0c23042cc8fe1b44295b2c87368fe1b1aba88ac", "addresses": ["1P41jafnXX9t3h7NEA2ZJwt9nvWF6VBojE"], "asm": "OP_DUP OP_HASH160 f1e4a0c23042cc8fe1b44295b2c87368fe1b1aba OP_EQUALVERIFY OP_CHECKSIG", "type": "pubkeyhash"}, "value": 0.66288752, "n": 1}, {"scriptPubKey": {"type": "nulldata", "hex": "6a254d4700000489c5df6d3074535262a75f23114fb9b427d3194469a3e772d2d6dd7ecf8002d2", "asm": "OP_RETURN 4d4700000489c5df6d3074535262a75f23114fb9b427d3194469a3e772d2d6dd7ecf8002d2"}, "value": 0.0, "n": 2}], "hex": "0100000001d01cc72137d2a18285a5f71edb30f97df7dd6c41c1b342a0ef1f35b50a65c8c0010000006a47304402203522864a48fd709307e60dab1f0b7d440b1074d1b6069827aef2a2ec0abe7707022009c2dd17e98ced1ba3974056eb78d4eff92c1f09e09febe1b59c986a48e121570121033ff37f08b4aef829d4fd8d9c6e20176af681280342230d036803a3848f41baedffffffff03204e0000000000001976a914a93ea1545c5564e47258fd57ce23ed088cae774488ac707cf303000000001976a914f1e4a0c23042cc8fe1b44295b2c87368fe1b1aba88ac0000000000000000276a254d4700000489c5df6d3074535262a75f23114fb9b427d3194469a3e772d2d6dd7ecf8002d200000000", "vin": [{"sequence": 4294967295, "scriptSig": {"hex": "47304402203522864a48fd709307e60dab1f0b7d440b1074d1b6069827aef2a2ec0abe7707022009c2dd17e98ced1ba3974056eb78d4eff92c1f09e09febe1b59c986a48e121570121033ff37f08b4aef829d4fd8d9c6e20176af681280342230d036803a3848f41baed", "asm": "304402203522864a48fd709307e60dab1f0b7d440b1074d1b6069827aef2a2ec0abe7707022009c2dd17e98ced1ba3974056eb78d4eff92c1f09e09febe1b59c986a48e12157[ALL] 033ff37f08b4aef829d4fd8d9c6e20176af681280342230d036803a3848f41baed"}, "vout": 1, "txid": "c0c8650ab5351fefa042b3c1416cddf77df930db1ef7a58582a1d23721c71cd0"}], "txid": "c005df486f13b785620b619a67fdf0934ebab8a1e38f8b7ca8e769b90ad23ff6", "blocktime": 1537872018, "version": 1, "confirmations": 11489, "time": 1537872018, "locktime": 0, "vsize": 273, "size": 273}