{"hash": "c123ab740f711b0b4ec76f22f319483a2847b9ba5ac8b97de87db1649c1ad0c0", "blockhash": "0000000000000000000e13cef7c366c0283d82e591d1acd082e914b08063cdf1", "vout": [{"scriptPubKey": {"reqSigs": 1, "hex": "a914a3616690dceecc39ddc55207f25e7461e48017ec87", "addresses": ["3GatkKxt9D21kL2x7de2SSDqEE7UAcBv4h"], "asm": "OP_HASH160 a3616690dceecc39ddc55207f25e7461e48017ec OP_EQUAL", "type": "scripthash"}, "value": 0.1077266, "n": 0}, {"scriptPubKey": {"reqSigs": 1, "hex": "76a91458f143fe099d1f3d1e91f24bc5df2213392119c688ac", "addresses": ["197HVJtoqLEg5xtL78vRukRqUecCVt3ajv"], "asm": "OP_DUP OP_HASH160 58f143fe099d1f3d1e91f24bc5df2213392119c6 OP_EQUALVERIFY OP_CHECKSIG", "type": "pubkeyhash"}, "value": 0.046, "n": 1}], "hex": "02000000000101d7384ede3d94beef2e4d591614e6d4f0c159600ee4ad829988276dd03432b16c010000001716001443500d2c5493b5b3870fa9cb3f99b516371f233ffdffffff02b460a4000000000017a914a3616690dceecc39ddc55207f25e7461e48017ec87c0304600000000001976a91458f143fe099d1f3d1e91f24bc5df2213392119c688ac024730440220570f4a74a1a205d0642974854b608fc4aca2812a3dbb8c725a0bb0c6989fa302022004a5cf5601eb73db69cc546dfcbdb1da6a33814922cce7252d76b37839edd0bf0121031adf486f434f9d30f407975a676848cdf67da53160b4a17ab34ba8f890818aa50f490800", "vin": [{"txinwitness": ["30440220570f4a74a1a205d0642974854b608fc4aca2812a3dbb8c725a0bb0c6989fa302022004a5cf5601eb73db69cc546dfcbdb1da6a33814922cce7252d76b37839edd0bf01", "031adf486f434f9d30f407975a676848cdf67da53160b4a17ab34ba8f890818aa5"], "sequence": 4294967293, "scriptSig": {"hex": "16001443500d2c5493b5b3870fa9cb3f99b516371f233f", "asm": "001443500d2c5493b5b3870fa9cb3f99b516371f233f"}, "vout": 1, "txid": "6cb13234d06d27889982ade40e6059c1f0d4e61416594d2eefbe943dde4e38d7"}], "txid": "c006f777a2b17b00425680a669649860b47452a5b89029156c287dc378667f11", "blocktime": 1537871767, "version": 2, "confirmations": 11493, "time": 1537871767, "locktime": 542991, "vsize": 168, "size": 249}