{"hash": "b6b708b82704cfd6cdf1407414411cd8faa52430eff3261fbb8a4649a6c82532", "blockhash": "00000000000000000004ffacab907a6b429b9a5745fa0b75af4234bf69dd7176", "vout": [{"scriptPubKey": {"reqSigs": 1, "hex": "a914022e5f58d255c20fdacaef3182329fbfa0a1d80f87", "addresses": ["31tYpwa12oX8ntrta2dejfnw1Uwr8k4dcR"], "asm": "OP_HASH160 022e5f58d255c20fdacaef3182329fbfa0a1d80f OP_EQUAL", "type": "scripthash"}, "value": 0.01590749, "n": 0}, {"scriptPubKey": {"reqSigs": 1, "hex": "a9140426f1767298f974d5d352cf277ead1bc32f8e4a87", "addresses": ["324yH8feMtUtSB2Ash351AKsSPrKymZMSA"], "asm": "OP_HASH160 0426f1767298f974d5d352cf277ead1bc32f8e4a OP_EQUAL", "type": "scripthash"}, "value": 0.00472, "n": 1}], "hex": "02000000000102b591b78474bdd19828db8148d72a1d1b4f975ff25ad076c28301f4f86ae5e2fa0100000017160014a37d409b9c30b669cc39eded58c75010424ba88afeffffffc5ef037dd02ae5a0cfaf3fb927efd215caddf40c6143acbdfa95c873b879ecce010000001716001432eed1d0e0c4dbfef0784aa962237325899d3f07feffffff02dd4518000000000017a914022e5f58d255c20fdacaef3182329fbfa0a1d80f87c03307000000000017a9140426f1767298f974d5d352cf277ead1bc32f8e4a8702483045022100fcf3b33657e2e76fbe69acd1a7d5dffe3945672e9e0b43d35717b819b51bd5520220664978fd8cd900ff2378c2711a66ad32e79c2a5ce4ae569f7b1595848e3b65b601210325391f9559c4581b2a567c932abd7d547bedaddc843310a277a4713e4bd07710024730440220523209870638623b293aa239e9952def447f6e8e52b8543484aaf07dfbf9144402201c0385dcf3902032331183139e4893ed771ee62a772443045b11b480a38ca07b012103d512cb6253e3ecbe2072bda43cc8ab5fda7f43ed04542c6f3babeeb41710477316490800", "vin": [{"txinwitness": ["3045022100fcf3b33657e2e76fbe69acd1a7d5dffe3945672e9e0b43d35717b819b51bd5520220664978fd8cd900ff2378c2711a66ad32e79c2a5ce4ae569f7b1595848e3b65b601", "0325391f9559c4581b2a567c932abd7d547bedaddc843310a277a4713e4bd07710"], "sequence": 4294967294, "scriptSig": {"hex": "160014a37d409b9c30b669cc39eded58c75010424ba88a", "asm": "0014a37d409b9c30b669cc39eded58c75010424ba88a"}, "vout": 1, "txid": "fae2e56af8f40183c276d05af25f974f1b1d2ad74881db2898d1bd7484b791b5"}, {"txinwitness": ["30440220523209870638623b293aa239e9952def447f6e8e52b8543484aaf07dfbf9144402201c0385dcf3902032331183139e4893ed771ee62a772443045b11b480a38ca07b01", "03d512cb6253e3ecbe2072bda43cc8ab5fda7f43ed04542c6f3babeeb417104773"], "sequence": 4294967294, "scriptSig": {"hex": "16001432eed1d0e0c4dbfef0784aa962237325899d3f07", "asm": "001432eed1d0e0c4dbfef0784aa962237325899d3f07"}, "vout": 1, "txid": "ceec79b873c895fabdac43610cf4ddca15d2ef27b93fafcfa0e52ad07d03efc5"}], "txid": "c007cf62b5b73afbd4345bd74a5418ed26f497de457f185338988b7ef827aee5", "blocktime": 1537875543, "version": 2, "confirmations": 11464, "time": 1537875543, "locktime": 542998, "vsize": 257, "size": 419}