{"hash": "c0071e778d61a2e1571d58c19932a42e02743483c1358557ade845f6febbd05c", "blockhash": "000000000000000000022b45ed06c6f4ccd3cf7fb5ba4856ebd2e58215665228", "vout": [{"scriptPubKey": {"reqSigs": 1, "hex": "76a91480aa760ccc8a2d8877c566566476b5299a432f5088ac", "addresses": ["1CjKhQHSBchMpktxCixxpzRS6akDxpdubk"], "asm": "OP_DUP OP_HASH160 80aa760ccc8a2d8877c566566476b5299a432f50 OP_EQUALVERIFY OP_CHECKSIG", "type": "pubkeyhash"}, "value": 0.034, "n": 0}, {"scriptPubKey": {"reqSigs": 1, "hex": "76a9144f9dd9ec82776635b87f8d80d6c1fc5de61e1cf288ac", "addresses": ["18FyUrTkRE9cCLXX1x78XzCRQ8T87vSkG4"], "asm": "OP_DUP OP_HASH160 4f9dd9ec82776635b87f8d80d6c1fc5de61e1cf2 OP_EQUALVERIFY OP_CHECKSIG", "type": "pubkeyhash"}, "value": 0.23944986, "n": 1}], "hex": "0100000002c529172042286f34e2847672e2fbf8e7fa49634ba7d2390b5f8da4d1fd668d9b010000006b483045022100e81ca3d6b263b8c25eaa001acfb62b9424a131bbc77ad128713096c4321d9c3702205a6e487bd4474be37d6517b81de76a22f8c1e7b59c9cf9c954795a987fdce87801210307be97943f5169d2a7975f1ebfe986a98baf71e85bb31ee49264ef1461e372a5fdffffff0c349b9f46ef0d00b9a8ca2b40185f1b56e9c8e9708acd8735ae05f2220c20fc080000006b48304502210086362bfdda6c3ba0c071f1507661edeaf0f3692917d2002f47c205b87c8b911702204b839a2e563e750a338bd2710a64078f69cf02227ae3cf06249156d27ac7fc7d01210307be97943f5169d2a7975f1ebfe986a98baf71e85bb31ee49264ef1461e372a5fdffffff0240e13300000000001976a91480aa760ccc8a2d8877c566566476b5299a432f5088ac1a5f6d01000000001976a9144f9dd9ec82776635b87f8d80d6c1fc5de61e1cf288ac0b490800", "vin": [{"sequence": 4294967293, "scriptSig": {"hex": "483045022100e81ca3d6b263b8c25eaa001acfb62b9424a131bbc77ad128713096c4321d9c3702205a6e487bd4474be37d6517b81de76a22f8c1e7b59c9cf9c954795a987fdce87801210307be97943f5169d2a7975f1ebfe986a98baf71e85bb31ee49264ef1461e372a5", "asm": "3045022100e81ca3d6b263b8c25eaa001acfb62b9424a131bbc77ad128713096c4321d9c3702205a6e487bd4474be37d6517b81de76a22f8c1e7b59c9cf9c954795a987fdce878[ALL] 0307be97943f5169d2a7975f1ebfe986a98baf71e85bb31ee49264ef1461e372a5"}, "vout": 1, "txid": "9b8d66fdd1a48d5f0b39d2a74b6349fae7f8fbe2727684e2346f2842201729c5"}, {"sequence": 4294967293, "scriptSig": {"hex": "48304502210086362bfdda6c3ba0c071f1507661edeaf0f3692917d2002f47c205b87c8b911702204b839a2e563e750a338bd2710a64078f69cf02227ae3cf06249156d27ac7fc7d01210307be97943f5169d2a7975f1ebfe986a98baf71e85bb31ee49264ef1461e372a5", "asm": "304502210086362bfdda6c3ba0c071f1507661edeaf0f3692917d2002f47c205b87c8b911702204b839a2e563e750a338bd2710a64078f69cf02227ae3cf06249156d27ac7fc7d[ALL] 0307be97943f5169d2a7975f1ebfe986a98baf71e85bb31ee49264ef1461e372a5"}, "vout": 8, "txid": "fc200c22f205ae3587cd8a70e9c8e9561b5f18402bcaa8b9000def469f9b340c"}], "txid": "c0071e778d61a2e1571d58c19932a42e02743483c1358557ade845f6febbd05c", "blocktime": 1537869901, "version": 1, "confirmations": 11524, "time": 1537869901, "locktime": 542987, "vsize": 374, "size": 374}