{"hash": "235440fa5e6f602212df12873e526bb9262dacb95bea2ee47d11133a055fb596", "blockhash": "0000000000000000001f0ddff1eddb255c1121bcd4da4f1bc9a0da00cae72433", "vout": [{"scriptPubKey": {"reqSigs": 1, "hex": "a9145c2e3dd2580eb8d71ca43de26ace2a5844f01b2a87", "addresses": ["3A6RV7B5rMzEQEeLdc5m3XGHhDYve34ned"], "asm": "OP_HASH160 5c2e3dd2580eb8d71ca43de26ace2a5844f01b2a OP_EQUAL", "type": "scripthash"}, "value": 0.03260273, "n": 0}, {"scriptPubKey": {"reqSigs": 1, "hex": "001434561686e1ffc138c96691e2c52bb39eb08073d1", "addresses": ["bc1qx3tpdphpllqn3jtxj83v22ann6cgqu73w48rkt"], "asm": "0 34561686e1ffc138c96691e2c52bb39eb08073d1", "type": "witness_v0_keyhash"}, "value": 0.00968891, "n": 1}], "hex": "01000000000101912a11417f24c2c0649b8f01faa9055f462ac025049dbe43c0c63aacfc9e692f01000000171600142f867838d47b29579ff36f0f239a5ef0bc4a7469ffffffff0271bf31000000000017a9145c2e3dd2580eb8d71ca43de26ace2a5844f01b2a87bbc80e000000000016001434561686e1ffc138c96691e2c52bb39eb08073d10247304402204f57b1e7540307ebbb976a32eb627d26612caa9d5c8e4fa5039e0240fa4ad81502202bbee82c7ad10c98259fad798a61da7420d2d8b9f9a342b55ea2b0fd83d01cc00121029a2c21a159c5af7eec36af783df61ae8d660db6dab8a69a1f340dd896e3468c000000000", "vin": [{"txinwitness": ["304402204f57b1e7540307ebbb976a32eb627d26612caa9d5c8e4fa5039e0240fa4ad81502202bbee82c7ad10c98259fad798a61da7420d2d8b9f9a342b55ea2b0fd83d01cc001", "029a2c21a159c5af7eec36af783df61ae8d660db6dab8a69a1f340dd896e3468c0"], "sequence": 4294967295, "scriptSig": {"hex": "1600142f867838d47b29579ff36f0f239a5ef0bc4a7469", "asm": "00142f867838d47b29579ff36f0f239a5ef0bc4a7469"}, "vout": 1, "txid": "2f699efcac3ac6c043be9d0425c02a465f05a9fa018f9b64c0c2247f41112a91"}], "txid": "c0084ea6e77cefa43b12e2462d47e320892dfd307a2d0f947f2e5ec7176919dd", "blocktime": 1537872018, "version": 1, "confirmations": 11489, "time": 1537872018, "locktime": 0, "vsize": 165, "size": 246}