{"hash": "c00c0f22b9892f5422a377392fa9a536cb32a499c9cc3cbf2c718cc91718baf3", "blockhash": "0000000000000000001f0ddff1eddb255c1121bcd4da4f1bc9a0da00cae72433", "vout": [{"scriptPubKey": {"reqSigs": 1, "hex": "76a9149fde1aa00a2f0917f7066d337c7f3416123cfdda88ac", "addresses": ["1FaJWZMUu9UKkdjcaWwbcQzydo4oKZzzba"], "asm": "OP_DUP OP_HASH160 9fde1aa00a2f0917f7066d337c7f3416123cfdda OP_EQUALVERIFY OP_CHECKSIG", "type": "pubkeyhash"}, "value": 0.02108891, "n": 0}, {"scriptPubKey": {"reqSigs": 1, "hex": "a91419c8170db2b4b5bca12ef670d363d60cec46df5187", "addresses": ["343LWqgNkNNXK1dbKW8m7ne7qX8SAnkk7b"], "asm": "OP_HASH160 19c8170db2b4b5bca12ef670d363d60cec46df51 OP_EQUAL", "type": "scripthash"}, "value": 0.00197, "n": 1}, {"scriptPubKey": {"reqSigs": 1, "hex": "76a914361ae15bdb8cb7ed3b5c88dc07faaffa4475361c88ac", "addresses": ["15w5h341WMKbmQfgyYU2PKnQbVU9VxXL45"], "asm": "OP_DUP OP_HASH160 361ae15bdb8cb7ed3b5c88dc07faaffa4475361c OP_EQUALVERIFY OP_CHECKSIG", "type": "pubkeyhash"}, "value": 9.904e-05, "n": 2}], "hex": "01000000025efb97922a99df6fdc2636739b8f19fc9063f2cb02155fc06bee64329e71c9ca000000006946304302204b6a3ade37d37d166946bfd9461fd1f950ca18ec9a55724bf10982ebf6964cbf021f69c044c5df55e7f44daf3d8b58770b88d2b0e4470b9a21e2308de98d748e980121026f7b1206f4c294806336111bd3b810386ca9a74d19dd1d09f9d53bbd09fb5708ffffffffb07051fbba6aba788e88f0a42b0d407679d754902a43aeb35d8151ed78f9f9d3020000006a47304402202645887798664d5529f00947c8060d246f2abfe1f87cf987a75488b3edc0646502204bdb44fcbf82f27fe84a0505c06ec62d8ee1aff6eeb1ccf77113a69069400efb012103232e2841a96468ebec4ee12c289fdaf0ede0616f79f14aaad9040f538be72372ffffffff03db2d2000000000001976a9149fde1aa00a2f0917f7066d337c7f3416123cfdda88ac880103000000000017a91419c8170db2b4b5bca12ef670d363d60cec46df5187b0260000000000001976a914361ae15bdb8cb7ed3b5c88dc07faaffa4475361c88ac00000000", "vin": [{"sequence": 4294967295, "scriptSig": {"hex": "46304302204b6a3ade37d37d166946bfd9461fd1f950ca18ec9a55724bf10982ebf6964cbf021f69c044c5df55e7f44daf3d8b58770b88d2b0e4470b9a21e2308de98d748e980121026f7b1206f4c294806336111bd3b810386ca9a74d19dd1d09f9d53bbd09fb5708", "asm": "304302204b6a3ade37d37d166946bfd9461fd1f950ca18ec9a55724bf10982ebf6964cbf021f69c044c5df55e7f44daf3d8b58770b88d2b0e4470b9a21e2308de98d748e98[ALL] 026f7b1206f4c294806336111bd3b810386ca9a74d19dd1d09f9d53bbd09fb5708"}, "vout": 0, "txid": "cac9719e3264ee6bc05f1502cbf26390fc198f9b733626dc6fdf992a9297fb5e"}, {"sequence": 4294967295, "scriptSig": {"hex": "47304402202645887798664d5529f00947c8060d246f2abfe1f87cf987a75488b3edc0646502204bdb44fcbf82f27fe84a0505c06ec62d8ee1aff6eeb1ccf77113a69069400efb012103232e2841a96468ebec4ee12c289fdaf0ede0616f79f14aaad9040f538be72372", "asm": "304402202645887798664d5529f00947c8060d246f2abfe1f87cf987a75488b3edc0646502204bdb44fcbf82f27fe84a0505c06ec62d8ee1aff6eeb1ccf77113a69069400efb[ALL] 03232e2841a96468ebec4ee12c289fdaf0ede0616f79f14aaad9040f538be72372"}, "vout": 2, "txid": "d3f9f978ed51815db3ae432a9054d77976400d2ba4f0888e78ba6abafb5170b0"}], "txid": "c00c0f22b9892f5422a377392fa9a536cb32a499c9cc3cbf2c718cc91718baf3", "blocktime": 1537872018, "version": 1, "confirmations": 11489, "time": 1537872018, "locktime": 0, "vsize": 403, "size": 403}