{"hash": "c00f55070de7d42764a80780b389964f4bb1f60379553e6ce38cabac3bbe5b7f", "blockhash": "00000000000000000017f5eb5941039fbcee6240d03bc1f2f8e35350df66a1d8", "vout": [{"scriptPubKey": {"reqSigs": 1, "hex": "00144bc145d550bd91dbaff98880f264934fb0c9f0c4", "addresses": ["bc1qf0q5t42shkgahtle3zq0yeynf7cvnuxyyfewfg"], "asm": "0 4bc145d550bd91dbaff98880f264934fb0c9f0c4", "type": "witness_v0_keyhash"}, "value": 0.00165949, "n": 0}, {"scriptPubKey": {"reqSigs": 1, "hex": "76a914d2a43895d01ff8ce8023b44e7bc2f8b28d7b434e88ac", "addresses": ["1LCmdZbaSj1od71cNbyeoV96ozTUJ8ntNS"], "asm": "OP_DUP OP_HASH160 d2a43895d01ff8ce8023b44e7bc2f8b28d7b434e OP_EQUALVERIFY OP_CHECKSIG", "type": "pubkeyhash"}, "value": 0.01453054, "n": 1}], "hex": "0100000001079dc62c50c8ad30f8f2ef48194ffd67bd7b70ca44c9eec4481265416afd42d3010000006b483045022100efb2de617f39528b538a54c220cb9ee9802a65a5799dec581050ba1ff9ef26c802200f6cf0a803c7f7a1e73a4cf91f6f41676967e4b18e3df1248201b0a049f7c06f01210312b020ef7abbec39bf672f745137bc81b202ea01fbb6438ee987ec6eb0fb069cffffffff023d880200000000001600144bc145d550bd91dbaff98880f264934fb0c9f0c4fe2b1600000000001976a914d2a43895d01ff8ce8023b44e7bc2f8b28d7b434e88ac00000000", "vin": [{"sequence": 4294967295, "scriptSig": {"hex": "483045022100efb2de617f39528b538a54c220cb9ee9802a65a5799dec581050ba1ff9ef26c802200f6cf0a803c7f7a1e73a4cf91f6f41676967e4b18e3df1248201b0a049f7c06f01210312b020ef7abbec39bf672f745137bc81b202ea01fbb6438ee987ec6eb0fb069c", "asm": "3045022100efb2de617f39528b538a54c220cb9ee9802a65a5799dec581050ba1ff9ef26c802200f6cf0a803c7f7a1e73a4cf91f6f41676967e4b18e3df1248201b0a049f7c06f[ALL] 0312b020ef7abbec39bf672f745137bc81b202ea01fbb6438ee987ec6eb0fb069c"}, "vout": 1, "txid": "d342fd6a41651248c4eec944ca707bbd67fd4f1948eff2f830adc8502cc69d07"}], "txid": "c00f55070de7d42764a80780b389964f4bb1f60379553e6ce38cabac3bbe5b7f", "blocktime": 1537874412, "version": 1, "confirmations": 11467, "time": 1537874412, "locktime": 0, "vsize": 223, "size": 223}