{"hash": "c014b5c09a5677027707db2a88739827aafe3219810c6a21399bfde9bcc8abd9", "blockhash": "00000000000000000004ffacab907a6b429b9a5745fa0b75af4234bf69dd7176", "vout": [{"scriptPubKey": {"reqSigs": 1, "hex": "76a9147ce6832d2089592ff307d74ed9c8488e4e4d399288ac", "addresses": ["1CPQw53sKep99sftFSjnwQi5jcwZCnRq1x"], "asm": "OP_DUP OP_HASH160 7ce6832d2089592ff307d74ed9c8488e4e4d3992 OP_EQUALVERIFY OP_CHECKSIG", "type": "pubkeyhash"}, "value": 0.00014103, "n": 0}, {"scriptPubKey": {"reqSigs": 1, "hex": "a91404295053cb1614eadce719f52943d6f7cac52e7a87", "addresses": ["32527qqDS6RwScT4oJ5anthXWwNAaPQifz"], "asm": "OP_HASH160 04295053cb1614eadce719f52943d6f7cac52e7a OP_EQUAL", "type": "scripthash"}, "value": 0.940332, "n": 1}], "hex": "0100000008caf71e6759d123a54a2241dcca61bfa0dc8539c44b57ae239c1e05bda04ef80c000000006a473044022022784c34269c8b0e2dbe989bd682f0880b3a702e451b2e7a9da6f98fb54bca3f02207f250782d9c9ef794d11a5c51c4eb6344ae10f20c8f7b04b984b81a74fd2b75e012103f3bec7a9ec9d0789b3e65943374482a1d03fdf37d811221a916d5de230eef2faffffffff95ca6c532f52374e15295b52c988f12d1df836e4008fb957700ff9eef291dc22000000006b483045022100cc6ae8c9ab8f75f0e1f608b8f7bd1148a079980171c262e6b10cbf87fe24fb1a0220745de53613d1b9a9178efe30845fa6446b017fb4cc9ab4896fad39cea9cf874701210350c1e167e94b5a8a8b25ca824e24a83bcaecc0f7821a4fa1ba19cfb06ae47325ffffffffeed79de9128589a219ef951e30b582d8c8f0a37f2ee9ae4352ebbe2b99fa2c2b000000006b483045022100bd16f88cc988c85834ea1cf4e33210a66a1dcb8848c904d5ae724b01397e8a20022031a3431b732fe7dfefc409892ae46b49b52c232f6f61ffb10b7466f36c4271b6012102aba9421b8d69128da9a3045d8224c90e6b58b53630f48b1590676e6e32c23f1effffffffe24dc08349772ffd12e14f28dc5e85922e910df3ce9322d4182850872f404672010000006b483045022100aa42127d05e2561a9b21a4469f7e0e70e817187d91bbe3531ae6dc5a2112d4a602207b9262a06450762af91269046775a6017e966d7afcf9170bfa3c2814d6b1caca012102000615f2c83ed403ef87f9937ad6a9389af0af11fa2d71c4d50cf05cb88d1e7cffffffff383097e7489c081bf52599b35da1aa6ffd36950ee677e4e79d8af99b7724f57d010000006a473044022065f0606232eb1fff38cbf957aa6ac4e299bb85c65ee5cc208b2490be20fe9a9d02203d0d0617baee83d91840860f81909414216e79ff991f7f6f3cbdac20af38e6fd01210357bcf18a571dce4dee334aaeea7d83161dfa1c50f4508d09330b37941374d11dffffffff1c6b9fa26e9db80c644fdc25356828634ed2222f8a0f984994213b218252cf9b010000006a47304402201b86a1e6b400e0d65751d4c0be869cb4e0f770bef56df90c4e4abb3824f99f2b0220756ff90405bbbf19d53e29ee389517f9d9daaa30fffa32b4b6576cc6d495c900012102389424fc1e984a8fe0699cf82f6a394f2430b6b25a7bcc5d7f2d26a3ebbb1d2cffffffff20fd568d68139c0c59cdf7782902076777d11f18c3f4ae189ee4de9cd29c65da020000006a47304402205bf4495e70cc667a2936685e0dd6b2dcd43323dba74b8a18ddbc70533d503c3402200f98bb4e50ddb7ee213ce0c633c06f09822fa430e87c9bf2fc0720e9627ae662012102587d967f4d40b861bfd872ed0b7fd3ac6753b2508d62616cffa3dacaa85d8ae3ffffffff6a2a087f09f2b4491d4a9201a8b8ec4533adb93fb0c262ee4041e81fdf295add000000006a473044022065f772d999dfdb9a5c978d2061eeda1551ca366d80d775c1c395b8b735468f6702204c88976d487dcc5df7cc898726c11292de10a10b9c8edeabc1054743f8253d9301210276f2510003c75def4d7ac67fde33ac61c3d94804f04b20776755afe1e063f8eaffffffff0217370000000000001976a9147ce6832d2089592ff307d74ed9c8488e4e4d399288ac30d59a050000000017a91404295053cb1614eadce719f52943d6f7cac52e7a8700000000", "vin": [{"sequence": 4294967295, "scriptSig": {"hex": "473044022022784c34269c8b0e2dbe989bd682f0880b3a702e451b2e7a9da6f98fb54bca3f02207f250782d9c9ef794d11a5c51c4eb6344ae10f20c8f7b04b984b81a74fd2b75e012103f3bec7a9ec9d0789b3e65943374482a1d03fdf37d811221a916d5de230eef2fa", "asm": "3044022022784c34269c8b0e2dbe989bd682f0880b3a702e451b2e7a9da6f98fb54bca3f02207f250782d9c9ef794d11a5c51c4eb6344ae10f20c8f7b04b984b81a74fd2b75e[ALL] 03f3bec7a9ec9d0789b3e65943374482a1d03fdf37d811221a916d5de230eef2fa"}, "vout": 0, "txid": "0cf84ea0bd051e9c23ae574bc43985dca0bf61cadc41224aa523d159671ef7ca"}, {"sequence": 4294967295, "scriptSig": {"hex": "483045022100cc6ae8c9ab8f75f0e1f608b8f7bd1148a079980171c262e6b10cbf87fe24fb1a0220745de53613d1b9a9178efe30845fa6446b017fb4cc9ab4896fad39cea9cf874701210350c1e167e94b5a8a8b25ca824e24a83bcaecc0f7821a4fa1ba19cfb06ae47325", "asm": "3045022100cc6ae8c9ab8f75f0e1f608b8f7bd1148a079980171c262e6b10cbf87fe24fb1a0220745de53613d1b9a9178efe30845fa6446b017fb4cc9ab4896fad39cea9cf8747[ALL] 0350c1e167e94b5a8a8b25ca824e24a83bcaecc0f7821a4fa1ba19cfb06ae47325"}, "vout": 0, "txid": "22dc91f2eef90f7057b98f00e436f81d2df188c9525b29154e37522f536cca95"}, {"sequence": 4294967295, "scriptSig": {"hex": "483045022100bd16f88cc988c85834ea1cf4e33210a66a1dcb8848c904d5ae724b01397e8a20022031a3431b732fe7dfefc409892ae46b49b52c232f6f61ffb10b7466f36c4271b6012102aba9421b8d69128da9a3045d8224c90e6b58b53630f48b1590676e6e32c23f1e", "asm": "3045022100bd16f88cc988c85834ea1cf4e33210a66a1dcb8848c904d5ae724b01397e8a20022031a3431b732fe7dfefc409892ae46b49b52c232f6f61ffb10b7466f36c4271b6[ALL] 02aba9421b8d69128da9a3045d8224c90e6b58b53630f48b1590676e6e32c23f1e"}, "vout": 0, "txid": "2b2cfa992bbeeb5243aee92e7fa3f0c8d882b5301e95ef19a2898512e99dd7ee"}, {"sequence": 4294967295, "scriptSig": {"hex": "483045022100aa42127d05e2561a9b21a4469f7e0e70e817187d91bbe3531ae6dc5a2112d4a602207b9262a06450762af91269046775a6017e966d7afcf9170bfa3c2814d6b1caca012102000615f2c83ed403ef87f9937ad6a9389af0af11fa2d71c4d50cf05cb88d1e7c", "asm": "3045022100aa42127d05e2561a9b21a4469f7e0e70e817187d91bbe3531ae6dc5a2112d4a602207b9262a06450762af91269046775a6017e966d7afcf9170bfa3c2814d6b1caca[ALL] 02000615f2c83ed403ef87f9937ad6a9389af0af11fa2d71c4d50cf05cb88d1e7c"}, "vout": 1, "txid": "7246402f87502818d42293cef30d912e92855edc284fe112fd2f774983c04de2"}, {"sequence": 4294967295, "scriptSig": {"hex": "473044022065f0606232eb1fff38cbf957aa6ac4e299bb85c65ee5cc208b2490be20fe9a9d02203d0d0617baee83d91840860f81909414216e79ff991f7f6f3cbdac20af38e6fd01210357bcf18a571dce4dee334aaeea7d83161dfa1c50f4508d09330b37941374d11d", "asm": "3044022065f0606232eb1fff38cbf957aa6ac4e299bb85c65ee5cc208b2490be20fe9a9d02203d0d0617baee83d91840860f81909414216e79ff991f7f6f3cbdac20af38e6fd[ALL] 0357bcf18a571dce4dee334aaeea7d83161dfa1c50f4508d09330b37941374d11d"}, "vout": 1, "txid": "7df524779bf98a9de7e477e60e9536fd6faaa15db39925f51b089c48e7973038"}, {"sequence": 4294967295, "scriptSig": {"hex": "47304402201b86a1e6b400e0d65751d4c0be869cb4e0f770bef56df90c4e4abb3824f99f2b0220756ff90405bbbf19d53e29ee389517f9d9daaa30fffa32b4b6576cc6d495c900012102389424fc1e984a8fe0699cf82f6a394f2430b6b25a7bcc5d7f2d26a3ebbb1d2c", "asm": "304402201b86a1e6b400e0d65751d4c0be869cb4e0f770bef56df90c4e4abb3824f99f2b0220756ff90405bbbf19d53e29ee389517f9d9daaa30fffa32b4b6576cc6d495c900[ALL] 02389424fc1e984a8fe0699cf82f6a394f2430b6b25a7bcc5d7f2d26a3ebbb1d2c"}, "vout": 1, "txid": "9bcf5282213b219449980f8a2f22d24e6328683525dc4f640cb89d6ea29f6b1c"}, {"sequence": 4294967295, "scriptSig": {"hex": "47304402205bf4495e70cc667a2936685e0dd6b2dcd43323dba74b8a18ddbc70533d503c3402200f98bb4e50ddb7ee213ce0c633c06f09822fa430e87c9bf2fc0720e9627ae662012102587d967f4d40b861bfd872ed0b7fd3ac6753b2508d62616cffa3dacaa85d8ae3", "asm": "304402205bf4495e70cc667a2936685e0dd6b2dcd43323dba74b8a18ddbc70533d503c3402200f98bb4e50ddb7ee213ce0c633c06f09822fa430e87c9bf2fc0720e9627ae662[ALL] 02587d967f4d40b861bfd872ed0b7fd3ac6753b2508d62616cffa3dacaa85d8ae3"}, "vout": 2, "txid": "da659cd29cdee49e18aef4c3181fd1776707022978f7cd590c9c13688d56fd20"}, {"sequence": 4294967295, "scriptSig": {"hex": "473044022065f772d999dfdb9a5c978d2061eeda1551ca366d80d775c1c395b8b735468f6702204c88976d487dcc5df7cc898726c11292de10a10b9c8edeabc1054743f8253d9301210276f2510003c75def4d7ac67fde33ac61c3d94804f04b20776755afe1e063f8ea", "asm": "3044022065f772d999dfdb9a5c978d2061eeda1551ca366d80d775c1c395b8b735468f6702204c88976d487dcc5df7cc898726c11292de10a10b9c8edeabc1054743f8253d93[ALL] 0276f2510003c75def4d7ac67fde33ac61c3d94804f04b20776755afe1e063f8ea"}, "vout": 0, "txid": "dd5a29df1fe84140ee62c2b03fb9ad3345ecb8a801924a1d49b4f2097f082a6a"}], "txid": "c014b5c09a5677027707db2a88739827aafe3219810c6a21399bfde9bcc8abd9", "blocktime": 1537875543, "version": 1, "confirmations": 11464, "time": 1537875543, "locktime": 0, "vsize": 1255, "size": 1255}