{"hash": "c0164576b52a8944d14eb2aba2b87a5a77ba606d7f1e156b5141d6df6dea553c", "blockhash": "00000000000000000024a2167bbff67b0be802c0b01cdd79e6331c2be6459f87", "vout": [{"scriptPubKey": {"reqSigs": 1, "hex": "76a914931168a0f802c9805e4e0c47a69997bd2dfaf97788ac", "addresses": ["1EQdBn5SjVt9G68GmpvEuigXgMJCvqDEcR"], "asm": "OP_DUP OP_HASH160 931168a0f802c9805e4e0c47a69997bd2dfaf977 OP_EQUALVERIFY OP_CHECKSIG", "type": "pubkeyhash"}, "value": 0.031443, "n": 0}], "hex": "01000000010d9f95dd25d814e6593679b738aa4c55072d6ba96552292dc2c38ecdc7be00163f000000fdfd0000483045022100ecf4ab551a0f2cd554101a840fcb1fb47afa058a2e97a0890b1c60452f5fe59c02205fc43407ba46e37d69cee8dbed3ed69f94e5c4bd583ca02f423c755bc4c13e0001473044022073f1e259bfc1ba018cf47b938aa0c3eac2d0a647204c846fc55e32f6cc58aa6e02201844de35e2342ec1c06a8b152dad962384d97d081337904c89ca67e479f92737014c695221021ffc8f0bf29b88032023833a88963427dacfd48e1d08494c043c6c71893ba71021035157543f8b678c39035cc89fd64c6740aa7ae10d93870b394ee798816ae0883a21038d4dbf1e08114ac49a31f7403ece82a5ba4e5207a25f1e1e4aa3d0cf389e411e53aeffffffff016cfa2f00000000001976a914931168a0f802c9805e4e0c47a69997bd2dfaf97788ac00000000", "vin": [{"sequence": 4294967295, "scriptSig": {"hex": "00483045022100ecf4ab551a0f2cd554101a840fcb1fb47afa058a2e97a0890b1c60452f5fe59c02205fc43407ba46e37d69cee8dbed3ed69f94e5c4bd583ca02f423c755bc4c13e0001473044022073f1e259bfc1ba018cf47b938aa0c3eac2d0a647204c846fc55e32f6cc58aa6e02201844de35e2342ec1c06a8b152dad962384d97d081337904c89ca67e479f92737014c695221021ffc8f0bf29b88032023833a88963427dacfd48e1d08494c043c6c71893ba71021035157543f8b678c39035cc89fd64c6740aa7ae10d93870b394ee798816ae0883a21038d4dbf1e08114ac49a31f7403ece82a5ba4e5207a25f1e1e4aa3d0cf389e411e53ae", "asm": "0 3045022100ecf4ab551a0f2cd554101a840fcb1fb47afa058a2e97a0890b1c60452f5fe59c02205fc43407ba46e37d69cee8dbed3ed69f94e5c4bd583ca02f423c755bc4c13e00[ALL] 3044022073f1e259bfc1ba018cf47b938aa0c3eac2d0a647204c846fc55e32f6cc58aa6e02201844de35e2342ec1c06a8b152dad962384d97d081337904c89ca67e479f92737[ALL] 5221021ffc8f0bf29b88032023833a88963427dacfd48e1d08494c043c6c71893ba71021035157543f8b678c39035cc89fd64c6740aa7ae10d93870b394ee798816ae0883a21038d4dbf1e08114ac49a31f7403ece82a5ba4e5207a25f1e1e4aa3d0cf389e411e53ae"}, "vout": 63, "txid": "1600bec7cd8ec3c22d295265a96b2d07554caa38b7793659e614d825dd959f0d"}], "txid": "c0164576b52a8944d14eb2aba2b87a5a77ba606d7f1e156b5141d6df6dea553c", "blocktime": 1537870564, "version": 1, "confirmations": 11515, "time": 1537870564, "locktime": 0, "vsize": 340, "size": 340}