{"hash": "c0162787d67074c46ead2fdd5e31221b43fcba91d3f09ff385d62801e598c7b1", "blockhash": "000000000000000000205f8b0775d31398ef75b89a5e8ec8d2c57b4dc0ac4c20", "vout": [{"scriptPubKey": {"reqSigs": 1, "hex": "a9146785cc1616a4a4d11956f1f4cb37158d11f9c88787", "addresses": ["3B8PohJ75TMVikC7vHvkiorpwBys3VhXv8"], "asm": "OP_HASH160 6785cc1616a4a4d11956f1f4cb37158d11f9c887 OP_EQUAL", "type": "scripthash"}, "value": 0.1102, "n": 0}, {"scriptPubKey": {"reqSigs": 1, "hex": "76a9148742508850624c4e0b8730d25d6163d4512424a888ac", "addresses": ["1DLBfWs8P4CsdZRtyrLJraSk6j5A7axh4B"], "asm": "OP_DUP OP_HASH160 8742508850624c4e0b8730d25d6163d4512424a8 OP_EQUALVERIFY OP_CHECKSIG", "type": "pubkeyhash"}, "value": 0.00460419, "n": 1}], "hex": "0100000001cf841838acb9f4d9528b728f124084c6613aff3ff35011cec1969883055a597a230000006a47304402200a5d6fa6a803aa0d130bf561399d5a12092b719a75b1499731dbb87a41082be4022055d7f8466822b7f936f44308fc152128b7654fda0b0053a64e134935c91e3cba0121025fe957b1f9d4a51fc10d3daed5d4cfe264886a6de5ece04f29d0d157a55156b3ffffffff02e026a8000000000017a9146785cc1616a4a4d11956f1f4cb37158d11f9c8878783060700000000001976a9148742508850624c4e0b8730d25d6163d4512424a888ac00000000", "vin": [{"sequence": 4294967295, "scriptSig": {"hex": "47304402200a5d6fa6a803aa0d130bf561399d5a12092b719a75b1499731dbb87a41082be4022055d7f8466822b7f936f44308fc152128b7654fda0b0053a64e134935c91e3cba0121025fe957b1f9d4a51fc10d3daed5d4cfe264886a6de5ece04f29d0d157a55156b3", "asm": "304402200a5d6fa6a803aa0d130bf561399d5a12092b719a75b1499731dbb87a41082be4022055d7f8466822b7f936f44308fc152128b7654fda0b0053a64e134935c91e3cba[ALL] 025fe957b1f9d4a51fc10d3daed5d4cfe264886a6de5ece04f29d0d157a55156b3"}, "vout": 35, "txid": "7a595a05839896c1ce1150f33fff3a61c68440128f728b52d9f4b9ac381884cf"}], "txid": "c0162787d67074c46ead2fdd5e31221b43fcba91d3f09ff385d62801e598c7b1", "blocktime": 1537871175, "version": 1, "confirmations": 11511, "time": 1537871175, "locktime": 0, "vsize": 223, "size": 223}