{"hash": "c017d4d533ed2b8afd881a1b7ddec128e4eddd8c2e25b3f2cb501b0c6065f8cc", "blockhash": "00000000000000000017f5eb5941039fbcee6240d03bc1f2f8e35350df66a1d8", "vout": [{"scriptPubKey": {"reqSigs": 1, "hex": "76a914fcc029c130fb6fa4da9a944879d054592d307b3288ac", "addresses": ["1Q3RV4w7nG2oqGWCq3SrPgtrbbXMZ88tMr"], "asm": "OP_DUP OP_HASH160 fcc029c130fb6fa4da9a944879d054592d307b32 OP_EQUALVERIFY OP_CHECKSIG", "type": "pubkeyhash"}, "value": 0.0038, "n": 0}, {"scriptPubKey": {"reqSigs": 1, "hex": "76a9142b9b03912ef0990de1b7ee0f1ed513610d81585d88ac", "addresses": ["14yZkojGUvUrFnLmsedQpwX2nvLVwxCaj8"], "asm": "OP_DUP OP_HASH160 2b9b03912ef0990de1b7ee0f1ed513610d81585d OP_EQUALVERIFY OP_CHECKSIG", "type": "pubkeyhash"}, "value": 0.01281341, "n": 1}], "hex": "0200000001544a2e5ee31c2193d6c20b971c3873e4545d843bdc401f662211d8cca69f0d70000000006a47304402205d51393fdf98feab5d207e5beca405431a1a6ee2a33d729c07fa2147cab7494c022023faed69e684de5729109f988de3722606d380d046a07280b2d810bf903c6cd30121029b154d3b404d016e601089407f9a19159e54a77c273e7de5542d2ba5b95a93adfeffffff0260cc0500000000001976a914fcc029c130fb6fa4da9a944879d054592d307b3288ac3d8d1300000000001976a9142b9b03912ef0990de1b7ee0f1ed513610d81585d88acb5480800", "vin": [{"sequence": 4294967294, "scriptSig": {"hex": "47304402205d51393fdf98feab5d207e5beca405431a1a6ee2a33d729c07fa2147cab7494c022023faed69e684de5729109f988de3722606d380d046a07280b2d810bf903c6cd30121029b154d3b404d016e601089407f9a19159e54a77c273e7de5542d2ba5b95a93ad", "asm": "304402205d51393fdf98feab5d207e5beca405431a1a6ee2a33d729c07fa2147cab7494c022023faed69e684de5729109f988de3722606d380d046a07280b2d810bf903c6cd3[ALL] 029b154d3b404d016e601089407f9a19159e54a77c273e7de5542d2ba5b95a93ad"}, "vout": 0, "txid": "700d9fa6ccd81122661f40dc3b845d54e473381c970bc2d693211ce35e2e4a54"}], "txid": "c017d4d533ed2b8afd881a1b7ddec128e4eddd8c2e25b3f2cb501b0c6065f8cc", "blocktime": 1537874412, "version": 2, "confirmations": 11467, "time": 1537874412, "locktime": 542901, "vsize": 225, "size": 225}