{"hash": "c0175b7838810cf2f4e20f54b6c6ba5ba590e0147be1d2732af4f6a5dd66251e", "blockhash": "00000000000000000004ffacab907a6b429b9a5745fa0b75af4234bf69dd7176", "vout": [{"scriptPubKey": {"reqSigs": 1, "hex": "76a9143c09501882f4de400b2b401dd215ebf8d0f256bf88ac", "addresses": ["16UShacxnuzVUBU4PVLteTCLQzFBGSTceD"], "asm": "OP_DUP OP_HASH160 3c09501882f4de400b2b401dd215ebf8d0f256bf OP_EQUALVERIFY OP_CHECKSIG", "type": "pubkeyhash"}, "value": 0.01616192, "n": 0}, {"scriptPubKey": {"reqSigs": 1, "hex": "76a914d6707517148dc6dbe96edf9c0ed475f008b3fd4788ac", "addresses": ["1LYrKjCxgyDiopoqBAeudRvCHewTKuihk8"], "asm": "OP_DUP OP_HASH160 d6707517148dc6dbe96edf9c0ed475f008b3fd47 OP_EQUALVERIFY OP_CHECKSIG", "type": "pubkeyhash"}, "value": 0.0821, "n": 1}], "hex": "010000000130fd653354e73418d9e7685d01a9845f842c62e8855ddb98f34451917d32ceb8150000006b48304502210097d6ce6a5b514348d2e65ec0f8bcd9961a800149d9905c09bf791a8687efacde022006bc04b07c1e9b0039a48354b0a58dfbb4ef01d9ecfeff1382c497227718a3eb012103e9a8649c908c7e402597d5362d60bb82c704480d51c1cf259d1423ee91bff3d7ffffffff0240a91800000000001976a9143c09501882f4de400b2b401dd215ebf8d0f256bf88ac50467d00000000001976a914d6707517148dc6dbe96edf9c0ed475f008b3fd4788ac00000000", "vin": [{"sequence": 4294967295, "scriptSig": {"hex": "48304502210097d6ce6a5b514348d2e65ec0f8bcd9961a800149d9905c09bf791a8687efacde022006bc04b07c1e9b0039a48354b0a58dfbb4ef01d9ecfeff1382c497227718a3eb012103e9a8649c908c7e402597d5362d60bb82c704480d51c1cf259d1423ee91bff3d7", "asm": "304502210097d6ce6a5b514348d2e65ec0f8bcd9961a800149d9905c09bf791a8687efacde022006bc04b07c1e9b0039a48354b0a58dfbb4ef01d9ecfeff1382c497227718a3eb[ALL] 03e9a8649c908c7e402597d5362d60bb82c704480d51c1cf259d1423ee91bff3d7"}, "vout": 21, "txid": "b8ce327d915144f398db5d85e8622c845f84a9015d68e7d91834e7543365fd30"}], "txid": "c0175b7838810cf2f4e20f54b6c6ba5ba590e0147be1d2732af4f6a5dd66251e", "blocktime": 1537875543, "version": 1, "confirmations": 11464, "time": 1537875543, "locktime": 0, "vsize": 226, "size": 226}