{"hash": "58832b817b4ac99ea183e7604a7796c376613939e8a40394336277cfec2ae54a", "blockhash": "0000000000000000001cda96e906b7601b7a6fb1a3b62bca570a9e5d8f4b3de1", "vout": [{"scriptPubKey": {"reqSigs": 1, "hex": "a914416f16a6671d813cc6b8ff39b03172c9d005dd2787", "addresses": ["37ezvaKuKP3jWZqHYy7EmiTVZ1hGAnvL3j"], "asm": "OP_HASH160 416f16a6671d813cc6b8ff39b03172c9d005dd27 OP_EQUAL", "type": "scripthash"}, "value": 0.00456351, "n": 0}, {"scriptPubKey": {"reqSigs": 1, "hex": "a914e5102d4d1ab1a19b968a006cb1ba6960274807e187", "addresses": ["3NaC3U5RtronDcE41N1PJLEq8cedirwH7r"], "asm": "OP_HASH160 e5102d4d1ab1a19b968a006cb1ba6960274807e1 OP_EQUAL", "type": "scripthash"}, "value": 0.00097529, "n": 1}, {"scriptPubKey": {"reqSigs": 1, "hex": "a9140517302eeb6f9ddad3280c23783f6343f6667a8b87", "addresses": ["329w5eZTD29HkkpyL9NVg9S3uHe36j1PN3"], "asm": "OP_HASH160 0517302eeb6f9ddad3280c23783f6343f6667a8b OP_EQUAL", "type": "scripthash"}, "value": 0.00049963, "n": 2}, {"scriptPubKey": {"reqSigs": 1, "hex": "a91435b8a849cacd1fe4160f3b6c8c0eaca35fcd5d9e87", "addresses": ["36b4wvuNYGkJ3XYC1ADgREN4HXBxVK6d1i"], "asm": "OP_HASH160 35b8a849cacd1fe4160f3b6c8c0eaca35fcd5d9e OP_EQUAL", "type": "scripthash"}, "value": 0.0040149, "n": 3}, {"scriptPubKey": {"reqSigs": 1, "hex": "a9141fe678d2317e5f9b9b6962dbecf77c2d583f3b5687", "addresses": ["34bgxxoCKanYew6J3pbefxYxHjeJ12yEKy"], "asm": "OP_HASH160 1fe678d2317e5f9b9b6962dbecf77c2d583f3b56 OP_EQUAL", "type": "scripthash"}, "value": 0.0027116, "n": 4}, {"scriptPubKey": {"reqSigs": 1, "hex": "a914e795092f6cceb025283ff6f5a4cca55de9e1b9a587", "addresses": ["3NoWZ3v1558vZoCUURxFEwncjGEAhLHegv"], "asm": "OP_HASH160 e795092f6cceb025283ff6f5a4cca55de9e1b9a5 OP_EQUAL", "type": "scripthash"}, "value": 0.00859345, "n": 5}, {"scriptPubKey": {"reqSigs": 1, "hex": "a914c4ff5a5d5b5980ccbc18b1ff967f7775a939b70a87", "addresses": ["3KeeGNwXq7xjpgebqCEuGNrdF8GrdoU9sk"], "asm": "OP_HASH160 c4ff5a5d5b5980ccbc18b1ff967f7775a939b70a OP_EQUAL", "type": "scripthash"}, "value": 0.00268903, "n": 6}, {"scriptPubKey": {"reqSigs": 1, "hex": "a914ad17e0908cbbf64e422bdbcf3defa53c0e82edce87", "addresses": ["3HUFRkKgcT1FtzPXg2soqWZsvLvY2ZQw32"], "asm": "OP_HASH160 ad17e0908cbbf64e422bdbcf3defa53c0e82edce OP_EQUAL", "type": "scripthash"}, "value": 0.00636466, "n": 7}, {"scriptPubKey": {"reqSigs": 1, "hex": "a9145ba88f6fa393882a885a9b0f7a242b50ff33695887", "addresses": ["3A3fLmuft5hxGQDGVvdtWKQK8skRHSS6ed"], "asm": "OP_HASH160 5ba88f6fa393882a885a9b0f7a242b50ff336958 OP_EQUAL", "type": "scripthash"}, "value": 0.00707742, "n": 8}, {"scriptPubKey": {"reqSigs": 1, "hex": "a9149854308e9114c9d8d8df0d2b074694ea49262be887", "addresses": ["3FaTVJY8dq7gURwJScwEaRkU39yFgAkDox"], "asm": "OP_HASH160 9854308e9114c9d8d8df0d2b074694ea49262be8 OP_EQUAL", "type": "scripthash"}, "value": 0.065, "n": 9}, {"scriptPubKey": {"reqSigs": 1, "hex": "a914b143af85fc5bdeae690cf03abe35cf21261ab8ca87", "addresses": ["3HrJcNtwzPagTcjYssEn35EMifsQmmkQXt"], "asm": "OP_HASH160 b143af85fc5bdeae690cf03abe35cf21261ab8ca OP_EQUAL", "type": "scripthash"}, "value": 0.00245583, "n": 10}, {"scriptPubKey": {"reqSigs": 1, "hex": "a9146fea4bfef078b09cc1ff6b4c6337e7e663cf35c287", "addresses": ["3Btmc4uFuUPQ98RmazsSaxp3zoGSCyMsjU"], "asm": "OP_HASH160 6fea4bfef078b09cc1ff6b4c6337e7e663cf35c2 OP_EQUAL", "type": "scripthash"}, "value": 0.01263, "n": 11}, {"scriptPubKey": {"reqSigs": 1, "hex": "76a9148f08df1637158580558c378838ead071e3c21f8288ac", "addresses": ["1E3JFq87pmf38yScCdyBJvv3Sdq8QDhc3w"], "asm": "OP_DUP OP_HASH160 8f08df1637158580558c378838ead071e3c21f82 OP_EQUALVERIFY OP_CHECKSIG", "type": "pubkeyhash"}, "value": 0.56891551, "n": 12}, {"scriptPubKey": {"reqSigs": 1, "hex": "76a9146fe145dd0e97e1052815f0d00082f197cb9ab7c388ac", "addresses": ["1BCZsXgTTVJdLxyKYMFTA4C2tHGNYp1c9b"], "asm": "OP_DUP OP_HASH160 6fe145dd0e97e1052815f0d00082f197cb9ab7c3 OP_EQUALVERIFY OP_CHECKSIG", "type": "pubkeyhash"}, "value": 0.000625, "n": 13}, {"scriptPubKey": {"reqSigs": 1, "hex": "a91438e045ea1e012a72cdd0046d42be083751a2be4f87", "addresses": ["36skS48CG1t81tXJ3fyAzt9qcFCTrisMfZ"], "asm": "OP_HASH160 38e045ea1e012a72cdd0046d42be083751a2be4f OP_EQUAL", "type": "scripthash"}, "value": 0.0072285, "n": 14}, {"scriptPubKey": {"reqSigs": 1, "hex": "a9149b8dc8c6c04caead28fcde4204d0b27c05f4295187", "addresses": ["3FsWWd37zGpt77BYrNC34f6aWeFRDNYizL"], "asm": "OP_HASH160 9b8dc8c6c04caead28fcde4204d0b27c05f42951 OP_EQUAL", "type": "scripthash"}, "value": 0.01326025, "n": 15}, {"scriptPubKey": {"reqSigs": 1, "hex": "76a914f82204ffe23575c14a1ec1315aa512a6346b745988ac", "addresses": ["1Pd1LHxGRfFBuiE3LMGW9w51JPyRmsoJ2s"], "asm": "OP_DUP OP_HASH160 f82204ffe23575c14a1ec1315aa512a6346b7459 OP_EQUALVERIFY OP_CHECKSIG", "type": "pubkeyhash"}, "value": 0.00937499, "n": 16}, {"scriptPubKey": {"reqSigs": 1, "hex": "a914b110ddf0b0901403f8cad0668fa2f5004405f84887", "addresses": ["3HqFjS92xh7D5x47w6YRqB4VMMnAzskRLb"], "asm": "OP_HASH160 b110ddf0b0901403f8cad0668fa2f5004405f848 OP_EQUAL", "type": "scripthash"}, "value": 19.49322231, "n": 17}, {"scriptPubKey": {"reqSigs": 1, "hex": "a91473f6ab9276f17ae7554c68567d19548663af9eba87", "addresses": ["3CGB8Yt27rbKeWQqYPa5ym3r9UjnCtm7NG"], "asm": "OP_HASH160 73f6ab9276f17ae7554c68567d19548663af9eba OP_EQUAL", "type": "scripthash"}, "value": 0.00259093, "n": 18}, {"scriptPubKey": {"reqSigs": 1, "hex": "a914c6c16f7f79b84f96b7b3ee9de9c476342145929587", "addresses": ["3KowSfQiYRoPp9x3Gt4eQHKiREj4n3p7uy"], "asm": "OP_HASH160 c6c16f7f79b84f96b7b3ee9de9c4763421459295 OP_EQUAL", "type": "scripthash"}, "value": 0.00365372, "n": 19}, {"scriptPubKey": {"reqSigs": 1, "hex": "a914cc087db120f01091318336dfaf11934d4a285ddf87", "addresses": ["3LHqwe8pTgFWoWkhgPvCqwN7CDhqytDJeb"], "asm": "OP_HASH160 cc087db120f01091318336dfaf11934d4a285ddf OP_EQUAL", "type": "scripthash"}, "value": 0.00285, "n": 20}, {"scriptPubKey": {"reqSigs": 1, "hex": "76a91478b26c9c6856074f238f96dfc0a192e33cdc3a5d88ac", "addresses": ["1C1Bq9yMKJnMcWPKdes6wJXZzornTp2UhH"], "asm": "OP_DUP OP_HASH160 78b26c9c6856074f238f96dfc0a192e33cdc3a5d OP_EQUALVERIFY OP_CHECKSIG", "type": "pubkeyhash"}, "value": 0.00349695, "n": 21}, {"scriptPubKey": {"reqSigs": 1, "hex": "a914aba0a68bb07850b3c8a45d03fff6958a2c0541c187", "addresses": ["3HLVvYWBoEfPD6jtXCrzbjGQGSiQwePpp1"], "asm": "OP_HASH160 aba0a68bb07850b3c8a45d03fff6958a2c0541c1 OP_EQUAL", "type": "scripthash"}, "value": 0.00290612, "n": 22}, {"scriptPubKey": {"reqSigs": 1, "hex": "a91419c1e9fa721512457f66d97401c5266cb256d64b87", "addresses": ["343D7iecBnvgdhvRgGZkfVsY1TZJ7AQ4KW"], "asm": "OP_HASH160 19c1e9fa721512457f66d97401c5266cb256d64b OP_EQUAL", "type": "scripthash"}, "value": 0.00272106, "n": 23}, {"scriptPubKey": {"reqSigs": 1, "hex": "a914f113171a583174a3d40015d9f12d6353e8289a1387", "addresses": ["3PfheBt59CKUws4SYNhq95H3TafZHKFEbz"], "asm": "OP_HASH160 f113171a583174a3d40015d9f12d6353e8289a13 OP_EQUAL", "type": "scripthash"}, "value": 0.00590647, "n": 24}, {"scriptPubKey": {"reqSigs": 1, "hex": "a914d5bf852feedb59f0f9dab3cf8d10cd724e56558b87", "addresses": ["3MBDHTujyQ7WjsCsUR9h3YX7KsYynL89Wk"], "asm": "OP_HASH160 d5bf852feedb59f0f9dab3cf8d10cd724e56558b OP_EQUAL", "type": "scripthash"}, "value": 0.00499703, "n": 25}, {"scriptPubKey": {"reqSigs": 1, "hex": "a91404ec709a4ca83346321477d902e8c51631b587af87", "addresses": ["3293sSUyB4ev74cDiqnrWU2jmGVrmqaaA4"], "asm": "OP_HASH160 04ec709a4ca83346321477d902e8c51631b587af OP_EQUAL", "type": "scripthash"}, "value": 0.00317953, "n": 26}, {"scriptPubKey": {"reqSigs": 1, "hex": "a914d17ad7783a206a9548a77e5e8daf2293d216152387", "addresses": ["3LneJpr5JzKYPrGYjy61KcSfKHF5K5Y2HV"], "asm": "OP_HASH160 d17ad7783a206a9548a77e5e8daf2293d2161523 OP_EQUAL", "type": "scripthash"}, "value": 0.00322945, "n": 27}, {"scriptPubKey": {"reqSigs": 1, "hex": "a9144cfd2600b9a3fd2e8fac631b22a041be4be17c3987", "addresses": ["38i6YBi35R4q98wg8JWS5uEunH68Q1eBu2"], "asm": "OP_HASH160 4cfd2600b9a3fd2e8fac631b22a041be4be17c39 OP_EQUAL", "type": "scripthash"}, "value": 0.00237292, "n": 28}, {"scriptPubKey": {"reqSigs": 1, "hex": "a91477a9ada5471b1f9a1ca35b4fbbf3fcde080a9b8187", "addresses": ["3CbjbpuUuVRLBBWVovr2cqagwAKt7xj8EM"], "asm": "OP_HASH160 77a9ada5471b1f9a1ca35b4fbbf3fcde080a9b81 OP_EQUAL", "type": "scripthash"}, "value": 0.00688481, "n": 29}, {"scriptPubKey": {"reqSigs": 1, "hex": "a914fa4ee254bf9a033fcf45789b57821c66e7c816f287", "addresses": ["3QWXMTvsjiSTrVRsQmXrx5CFQptGBA84gC"], "asm": "OP_HASH160 fa4ee254bf9a033fcf45789b57821c66e7c816f2 OP_EQUAL", "type": "scripthash"}, "value": 0.00314384, "n": 30}, {"scriptPubKey": {"reqSigs": 1, "hex": "76a9140c019954e9268bf87ff4c0ad9b5f312267567aca88ac", "addresses": ["126V2Q9YBkW6EeDPSbWPN9hQ7oS7j8Mu7o"], "asm": "OP_DUP OP_HASH160 0c019954e9268bf87ff4c0ad9b5f312267567aca OP_EQUALVERIFY OP_CHECKSIG", "type": "pubkeyhash"}, "value": 0.00671971, "n": 31}, {"scriptPubKey": {"reqSigs": 1, "hex": "76a914cabfea74e4e244a45276ae67e24cd93d473fd6d088ac", "addresses": ["1KV3QJCSxfNA5MwYfdWfi6vjfZriFa8kww"], "asm": "OP_DUP OP_HASH160 cabfea74e4e244a45276ae67e24cd93d473fd6d0 OP_EQUALVERIFY OP_CHECKSIG", "type": "pubkeyhash"}, "value": 0.00301959, "n": 32}, {"scriptPubKey": {"reqSigs": 1, "hex": "a914344950846135289b0fb1f1a156e379b8e5def9bc87", "addresses": ["36TUtW1uTkWchfxF6EkUY7vKgyd7AehwKJ"], "asm": "OP_HASH160 344950846135289b0fb1f1a156e379b8e5def9bc OP_EQUAL", "type": "scripthash"}, "value": 0.001276, "n": 33}, {"scriptPubKey": {"reqSigs": 1, "hex": "a9141f9b50534868159937ed0985d9ddf8409770e83e87", "addresses": ["34a8vt2BNc91X1PMMd7QU7QJ14WggGQ2ws"], "asm": "OP_HASH160 1f9b50534868159937ed0985d9ddf8409770e83e OP_EQUAL", "type": "scripthash"}, "value": 0.093, "n": 34}, {"scriptPubKey": {"reqSigs": 1, "hex": "a91458b7d7b6ee6e0c2ca11bc741319326ea2c69fcf187", "addresses": ["39n7d2zAa2ajU5wH4BeP6ex5JTDbdciRDH"], "asm": "OP_HASH160 58b7d7b6ee6e0c2ca11bc741319326ea2c69fcf1 OP_EQUAL", "type": "scripthash"}, "value": 0.00525488, "n": 35}], "hex": "0200000000010140f9e1c1c7ba3f8208bc4c2a914a1fcbfc360b5929bf5d08c3bb6e99dec3a3811700000017160014c8391d7c6a59c85968470ba716301a0de6410e34feffffff249ff606000000000017a914416f16a6671d813cc6b8ff39b03172c9d005dd2787f97c01000000000017a914e5102d4d1ab1a19b968a006cb1ba6960274807e1872bc300000000000017a9140517302eeb6f9ddad3280c23783f6343f6667a8b87522006000000000017a91435b8a849cacd1fe4160f3b6c8c0eaca35fcd5d9e87382304000000000017a9141fe678d2317e5f9b9b6962dbecf77c2d583f3b5687d11c0d000000000017a914e795092f6cceb025283ff6f5a4cca55de9e1b9a587671a04000000000017a914c4ff5a5d5b5980ccbc18b1ff967f7775a939b70a8732b609000000000017a914ad17e0908cbbf64e422bdbcf3defa53c0e82edce879ecc0a000000000017a9145ba88f6fa393882a885a9b0f7a242b50ff33695887a02e63000000000017a9149854308e9114c9d8d8df0d2b074694ea49262be8874fbf03000000000017a914b143af85fc5bdeae690cf03abe35cf21261ab8ca87984513000000000017a9146fea4bfef078b09cc1ff6b4c6337e7e663cf35c2879f186403000000001976a9148f08df1637158580558c378838ead071e3c21f8288ac24f40000000000001976a9146fe145dd0e97e1052815f0d00082f197cb9ab7c388aca2070b000000000017a91438e045ea1e012a72cdd0046d42be083751a2be4f87c93b14000000000017a9149b8dc8c6c04caead28fcde4204d0b27c05f42951871b4e0e00000000001976a914f82204ffe23575c14a1ec1315aa512a6346b745988acf74b30740000000017a914b110ddf0b0901403f8cad0668fa2f5004405f8488715f403000000000017a91473f6ab9276f17ae7554c68567d19548663af9eba873c9305000000000017a914c6c16f7f79b84f96b7b3ee9de9c476342145929587485904000000000017a914cc087db120f01091318336dfaf11934d4a285ddf87ff550500000000001976a91478b26c9c6856074f238f96dfc0a192e33cdc3a5d88ac346f04000000000017a914aba0a68bb07850b3c8a45d03fff6958a2c0541c187ea2604000000000017a91419c1e9fa721512457f66d97401c5266cb256d64b87370309000000000017a914f113171a583174a3d40015d9f12d6353e8289a1387f79f07000000000017a914d5bf852feedb59f0f9dab3cf8d10cd724e56558b8701da04000000000017a91404ec709a4ca83346321477d902e8c51631b587af8781ed04000000000017a914d17ad7783a206a9548a77e5e8daf2293d216152387ec9e03000000000017a9144cfd2600b9a3fd2e8fac631b22a041be4be17c398761810a000000000017a91477a9ada5471b1f9a1ca35b4fbbf3fcde080a9b818710cc04000000000017a914fa4ee254bf9a033fcf45789b57821c66e7c816f287e3400a00000000001976a9140c019954e9268bf87ff4c0ad9b5f312267567aca88ac879b0400000000001976a914cabfea74e4e244a45276ae67e24cd93d473fd6d088ac70f201000000000017a914344950846135289b0fb1f1a156e379b8e5def9bc8720e88d000000000017a9141f9b50534868159937ed0985d9ddf8409770e83e87b00408000000000017a91458b7d7b6ee6e0c2ca11bc741319326ea2c69fcf187024730440220426c2c0ccdce09e357d533c9ff9bf3a8a9a5aecf735152534b00dc15b2c308e102201e4cfab6c43149a0f85ca8d1462f46f3c07db6d083ea963c5e63e9539c65d207012102b464d79ea8d19d01a66d75cbf9d272909b60d6947e4f1460f6979ff848ffb21c13490800", "vin": [{"txinwitness": ["30440220426c2c0ccdce09e357d533c9ff9bf3a8a9a5aecf735152534b00dc15b2c308e102201e4cfab6c43149a0f85ca8d1462f46f3c07db6d083ea963c5e63e9539c65d20701", "02b464d79ea8d19d01a66d75cbf9d272909b60d6947e4f1460f6979ff848ffb21c"], "sequence": 4294967294, "scriptSig": {"hex": "160014c8391d7c6a59c85968470ba716301a0de6410e34", "asm": "0014c8391d7c6a59c85968470ba716301a0de6410e34"}, "vout": 23, "txid": "81a3c3de996ebbc3085dbf29590b36fccb1f4a912a4cbc08823fbac7c1e1f940"}], "txid": "c01c79c118cc7ac98e139c094c945a2d38ee04e7c9fc885ae360a126b1e63451", "blocktime": 1537873282, "version": 2, "confirmations": 11481, "time": 1537873282, "locktime": 542995, "vsize": 1266, "size": 1347}