{"hash": "c0219375dd8beb7ec3f04c22f3b2515762af329b38a7fdd1da180d00e0ddf49b", "blockhash": "0000000000000000000dcc0f55137456b1a82d3642486a52398922ac4d620174", "vout": [{"scriptPubKey": {"reqSigs": 1, "hex": "a91438ed650fe5a63ea7a866e2c35a3fec7f9f86d95e87", "addresses": ["36t29mHPhZVLSEKf6WrsJhYG95tbMV4wB9"], "asm": "OP_HASH160 38ed650fe5a63ea7a866e2c35a3fec7f9f86d95e OP_EQUAL", "type": "scripthash"}, "value": 0.19437985, "n": 0}], "hex": "010000000ae6ae79b5dd9eea464746b7bd02c809f0ddc894f7d296a138ceb34791606f9a21000000006b483045022100966a431abca2b153daa917c03da17b936d07ac670fa421e65c554782ee297b8002205aee26b26d3a232acba2781797d37bc22b619c8c30e3c9820e8e002eec3dd1a80121030fe4d89935ffc98560be37456af456a1f5aa3ae67b54d6414bdc5f598503b6d7ffffffff31c540d64c6eaef1e1cc253c157c8f91cd3ea1fba9591e2798a1292712fd39e1000000006b4830450221008b67400724e828e91fea22b68ad4b05ecbcd0488cf30837bbf6f2d0febc9f6f802203d237aebb3a50cad08e83f39c67632d8523c05b1aaaea43947a0aab2f0269e340121025fde2b6756e8a9667c8a5be4d3bd29c1286fc0c36d6c2efca83781ef2b15e2b5fffffffff3c1a2fb289379043b3788c9f4259640f33adecae234a14ca235beffd37b8432010000006b483045022100fd96a49411c789a8f45ca5c01a3e09206a70ed6cd1c17ab9a97ff371d992eca802205feaddf5dae8f42caee4068d3b85fdb5d57f69a675259c0cd8dca32e8617392d0121038a023b7cc5a140cb715954fa0199bc0257caa4f8e0499a240738de0e2952aff8ffffffff91119faa2cd67f5d21057d283e0aafd494954d0c9b5e07fc43773d32599dbf24000000006b483045022100a8036b4aa5b20909be05d25c0e362c5073d8d9af38fe211c24215d4488c5b9f502207a686623382202ad68a71ea03cb5bff1bb80e1c987b663c364eed753a52c127e012103bbf056945a94b3f7aa50b20d09d5b9617c2807c5d36ed069350bc79a3c5c58adffffffff3cf087323dbf7e8117c38f1ceb5f9e67650a6824cc2e0a0d2fd9cba7b5fbd4ec010000006b48304502210087f24c9e1c362e71cf13e1f9cb9d0c43179cd33e73b4885647b75aceddd4251a022067f9a0695e50658df95f3c5a8ab089765d0f9bbe3c573fd45d00a06f5070355a012103a81007fcf6afaf615a35b9c267870b45ce244780e1fc37c69369b314fe318ac9ffffffff83cd6b9de12e91cd2875812f7fcbaffc972868597580a7afeac5e97e80f45271000000006a47304402203e4cf8b52483fab50170da575f6d3317bcdedc3924cdb25c4d3708c053f3179502205359d24dec23dcf0015f6302cfd4da2b88f64fddda79e63312f44bd1cd51d13a0121020a4e8e8188d9d813ac9d8a855bb79d855776f7c0308cfeffffdf694d1ee6cf94ffffffff7f67dd0a73dc892c1a4b635511879ded531d4301f4c39213254755af7084541d000000006a47304402201cf7708bb0c0a4206a65eb05057b825e91b5f716ad5d823dc2b052cbf80db7ff0220796f02db6a77ba5c3801967763e48e7b70a04122dfff5b55121a6feedf3fbf920121036e0d23707598ddbb8b9aef9bf0fee69569c68ac075feeedafc2d75bb1a092936ffffffffde692018ef391502b412d2a834b4e81ba2a3557deaa7e10775958b5dc5541a17000000006b483045022100ca82732e2cbc0726d857d39f358a6561615dbe997fc418000e95deaf716cdf3502203f6a032eab5c05195b07c261556af7f53a5def18931de01590ad015734b612900121025fde2b6756e8a9667c8a5be4d3bd29c1286fc0c36d6c2efca83781ef2b15e2b5ffffffff3387ecf074421ddef14516ec14caec6db157804cc27bb45d976d99c4b4f7ac47000000006a47304402202597c81a2abb572c07a5da2a8fa5d0905557e4e961bb6fc7e3514bc03a573219022012ca69c20843e35d45acf2a2d7534c7ef5d34e58164a4a8a5a2fbf9965aaa620012103bbf056945a94b3f7aa50b20d09d5b9617c2807c5d36ed069350bc79a3c5c58adffffffffcbbe3eb02418ee463065aa916b69056f5fbc999d10d057a1f6cc2fb8e762e229000000006a473044022040e18454ed859bd7a469276ff2286565e1f98e489b0f9c55d2ad0112ee2474b902202f50d0b58d57e9f0b10b6789000c9c008b0dd55828af61e5b122667ccf5befcd0121030fe4d89935ffc98560be37456af456a1f5aa3ae67b54d6414bdc5f598503b6d7ffffffff01a19928010000000017a91438ed650fe5a63ea7a866e2c35a3fec7f9f86d95e8700000000", "vin": [{"sequence": 4294967295, "scriptSig": {"hex": "483045022100966a431abca2b153daa917c03da17b936d07ac670fa421e65c554782ee297b8002205aee26b26d3a232acba2781797d37bc22b619c8c30e3c9820e8e002eec3dd1a80121030fe4d89935ffc98560be37456af456a1f5aa3ae67b54d6414bdc5f598503b6d7", "asm": "3045022100966a431abca2b153daa917c03da17b936d07ac670fa421e65c554782ee297b8002205aee26b26d3a232acba2781797d37bc22b619c8c30e3c9820e8e002eec3dd1a8[ALL] 030fe4d89935ffc98560be37456af456a1f5aa3ae67b54d6414bdc5f598503b6d7"}, "vout": 0, "txid": "219a6f609147b3ce38a196d2f794c8ddf009c802bdb7464746ea9eddb579aee6"}, {"sequence": 4294967295, "scriptSig": {"hex": "4830450221008b67400724e828e91fea22b68ad4b05ecbcd0488cf30837bbf6f2d0febc9f6f802203d237aebb3a50cad08e83f39c67632d8523c05b1aaaea43947a0aab2f0269e340121025fde2b6756e8a9667c8a5be4d3bd29c1286fc0c36d6c2efca83781ef2b15e2b5", "asm": "30450221008b67400724e828e91fea22b68ad4b05ecbcd0488cf30837bbf6f2d0febc9f6f802203d237aebb3a50cad08e83f39c67632d8523c05b1aaaea43947a0aab2f0269e34[ALL] 025fde2b6756e8a9667c8a5be4d3bd29c1286fc0c36d6c2efca83781ef2b15e2b5"}, "vout": 0, "txid": "e139fd122729a198271e59a9fba13ecd918f7c153c25cce1f1ae6e4cd640c531"}, {"sequence": 4294967295, "scriptSig": {"hex": "483045022100fd96a49411c789a8f45ca5c01a3e09206a70ed6cd1c17ab9a97ff371d992eca802205feaddf5dae8f42caee4068d3b85fdb5d57f69a675259c0cd8dca32e8617392d0121038a023b7cc5a140cb715954fa0199bc0257caa4f8e0499a240738de0e2952aff8", "asm": "3045022100fd96a49411c789a8f45ca5c01a3e09206a70ed6cd1c17ab9a97ff371d992eca802205feaddf5dae8f42caee4068d3b85fdb5d57f69a675259c0cd8dca32e8617392d[ALL] 038a023b7cc5a140cb715954fa0199bc0257caa4f8e0499a240738de0e2952aff8"}, "vout": 1, "txid": "32847bd3ffbe35a24ca134e2cade3af3409625f4c988373b04799328fba2c1f3"}, {"sequence": 4294967295, "scriptSig": {"hex": "483045022100a8036b4aa5b20909be05d25c0e362c5073d8d9af38fe211c24215d4488c5b9f502207a686623382202ad68a71ea03cb5bff1bb80e1c987b663c364eed753a52c127e012103bbf056945a94b3f7aa50b20d09d5b9617c2807c5d36ed069350bc79a3c5c58ad", "asm": "3045022100a8036b4aa5b20909be05d25c0e362c5073d8d9af38fe211c24215d4488c5b9f502207a686623382202ad68a71ea03cb5bff1bb80e1c987b663c364eed753a52c127e[ALL] 03bbf056945a94b3f7aa50b20d09d5b9617c2807c5d36ed069350bc79a3c5c58ad"}, "vout": 0, "txid": "24bf9d59323d7743fc075e9b0c4d9594d4af0a3e287d05215d7fd62caa9f1191"}, {"sequence": 4294967295, "scriptSig": {"hex": "48304502210087f24c9e1c362e71cf13e1f9cb9d0c43179cd33e73b4885647b75aceddd4251a022067f9a0695e50658df95f3c5a8ab089765d0f9bbe3c573fd45d00a06f5070355a012103a81007fcf6afaf615a35b9c267870b45ce244780e1fc37c69369b314fe318ac9", "asm": "304502210087f24c9e1c362e71cf13e1f9cb9d0c43179cd33e73b4885647b75aceddd4251a022067f9a0695e50658df95f3c5a8ab089765d0f9bbe3c573fd45d00a06f5070355a[ALL] 03a81007fcf6afaf615a35b9c267870b45ce244780e1fc37c69369b314fe318ac9"}, "vout": 1, "txid": "ecd4fbb5a7cbd92f0d0a2ecc24680a65679e5feb1c8fc317817ebf3d3287f03c"}, {"sequence": 4294967295, "scriptSig": {"hex": "47304402203e4cf8b52483fab50170da575f6d3317bcdedc3924cdb25c4d3708c053f3179502205359d24dec23dcf0015f6302cfd4da2b88f64fddda79e63312f44bd1cd51d13a0121020a4e8e8188d9d813ac9d8a855bb79d855776f7c0308cfeffffdf694d1ee6cf94", "asm": "304402203e4cf8b52483fab50170da575f6d3317bcdedc3924cdb25c4d3708c053f3179502205359d24dec23dcf0015f6302cfd4da2b88f64fddda79e63312f44bd1cd51d13a[ALL] 020a4e8e8188d9d813ac9d8a855bb79d855776f7c0308cfeffffdf694d1ee6cf94"}, "vout": 0, "txid": "7152f4807ee9c5eaafa7807559682897fcafcb7f2f817528cd912ee19d6bcd83"}, {"sequence": 4294967295, "scriptSig": {"hex": "47304402201cf7708bb0c0a4206a65eb05057b825e91b5f716ad5d823dc2b052cbf80db7ff0220796f02db6a77ba5c3801967763e48e7b70a04122dfff5b55121a6feedf3fbf920121036e0d23707598ddbb8b9aef9bf0fee69569c68ac075feeedafc2d75bb1a092936", "asm": "304402201cf7708bb0c0a4206a65eb05057b825e91b5f716ad5d823dc2b052cbf80db7ff0220796f02db6a77ba5c3801967763e48e7b70a04122dfff5b55121a6feedf3fbf92[ALL] 036e0d23707598ddbb8b9aef9bf0fee69569c68ac075feeedafc2d75bb1a092936"}, "vout": 0, "txid": "1d548470af5547251392c3f401431d53ed9d871155634b1a2c89dc730add677f"}, {"sequence": 4294967295, "scriptSig": {"hex": "483045022100ca82732e2cbc0726d857d39f358a6561615dbe997fc418000e95deaf716cdf3502203f6a032eab5c05195b07c261556af7f53a5def18931de01590ad015734b612900121025fde2b6756e8a9667c8a5be4d3bd29c1286fc0c36d6c2efca83781ef2b15e2b5", "asm": "3045022100ca82732e2cbc0726d857d39f358a6561615dbe997fc418000e95deaf716cdf3502203f6a032eab5c05195b07c261556af7f53a5def18931de01590ad015734b61290[ALL] 025fde2b6756e8a9667c8a5be4d3bd29c1286fc0c36d6c2efca83781ef2b15e2b5"}, "vout": 0, "txid": "171a54c55d8b957507e1a7ea7d55a3a21be8b434a8d212b4021539ef182069de"}, {"sequence": 4294967295, "scriptSig": {"hex": "47304402202597c81a2abb572c07a5da2a8fa5d0905557e4e961bb6fc7e3514bc03a573219022012ca69c20843e35d45acf2a2d7534c7ef5d34e58164a4a8a5a2fbf9965aaa620012103bbf056945a94b3f7aa50b20d09d5b9617c2807c5d36ed069350bc79a3c5c58ad", "asm": "304402202597c81a2abb572c07a5da2a8fa5d0905557e4e961bb6fc7e3514bc03a573219022012ca69c20843e35d45acf2a2d7534c7ef5d34e58164a4a8a5a2fbf9965aaa620[ALL] 03bbf056945a94b3f7aa50b20d09d5b9617c2807c5d36ed069350bc79a3c5c58ad"}, "vout": 0, "txid": "47acf7b4c4996d975db47bc24c8057b16decca14ec1645f1de1d4274f0ec8733"}, {"sequence": 4294967295, "scriptSig": {"hex": "473044022040e18454ed859bd7a469276ff2286565e1f98e489b0f9c55d2ad0112ee2474b902202f50d0b58d57e9f0b10b6789000c9c008b0dd55828af61e5b122667ccf5befcd0121030fe4d89935ffc98560be37456af456a1f5aa3ae67b54d6414bdc5f598503b6d7", "asm": "3044022040e18454ed859bd7a469276ff2286565e1f98e489b0f9c55d2ad0112ee2474b902202f50d0b58d57e9f0b10b6789000c9c008b0dd55828af61e5b122667ccf5befcd[ALL] 030fe4d89935ffc98560be37456af456a1f5aa3ae67b54d6414bdc5f598503b6d7"}, "vout": 0, "txid": "29e262e7b82fccf6a157d0109d99bc5f6f05696b91aa653046ee1824b03ebecb"}], "txid": "c0219375dd8beb7ec3f04c22f3b2515762af329b38a7fdd1da180d00e0ddf49b", "blocktime": 1537870268, "version": 1, "confirmations": 11518, "time": 1537870268, "locktime": 0, "vsize": 1518, "size": 1518}