{"hash": "c780b9fdfb7907464997141c22f1c89412eeb806254bffcd5814a2f88bffb883", "blockhash": "0000000000000000000dcc0f55137456b1a82d3642486a52398922ac4d620174", "vout": [{"scriptPubKey": {"reqSigs": 1, "hex": "76a914e5559c5639e29e94cafc0457e6154eb260ffee4b88ac", "addresses": ["1MucJGKtwavpdEVsSeXigNP1pBCZhTSB9r"], "asm": "OP_DUP OP_HASH160 e5559c5639e29e94cafc0457e6154eb260ffee4b OP_EQUALVERIFY OP_CHECKSIG", "type": "pubkeyhash"}, "value": 0.01153421, "n": 0}, {"scriptPubKey": {"reqSigs": 1, "hex": "001482b2b7ae228f8c2a8a68c1c57bb9125e673af331", "addresses": ["bc1qs2et0t3z37xz4zngc8zhhwgjtenn4ue34e00rj"], "asm": "0 82b2b7ae228f8c2a8a68c1c57bb9125e673af331", "type": "witness_v0_keyhash"}, "value": 0.00207709, "n": 1}], "hex": "01000000000101ded9de86e7cb1273e97aa1e911d31077b5f1d7542e962a65712b2d9238db7ac10100000000ffffffff028d991100000000001976a914e5559c5639e29e94cafc0457e6154eb260ffee4b88ac5d2b03000000000016001482b2b7ae228f8c2a8a68c1c57bb9125e673af331024730440220380cc48c18eed9cc2797a710f8630cab6c20a6725122eb5ef0fb6076a9c1f31502202dd830b2bd1b1d21f43f13e107cdd80ea0f556ebc1950fb6965c3e0cb6a821c801210291f11a513692e530dba8113fb45eb620940ac091d0409bcb7e4ef2e6064b702400000000", "vin": [{"txinwitness": ["30440220380cc48c18eed9cc2797a710f8630cab6c20a6725122eb5ef0fb6076a9c1f31502202dd830b2bd1b1d21f43f13e107cdd80ea0f556ebc1950fb6965c3e0cb6a821c801", "0291f11a513692e530dba8113fb45eb620940ac091d0409bcb7e4ef2e6064b7024"], "sequence": 4294967295, "scriptSig": {"hex": "", "asm": ""}, "vout": 1, "txid": "c17adb38922d2b71652a962e54d7f1b57710d311e9a17ae97312cbe786ded9de"}], "txid": "c02ced0d995f9289685ea02fe22d22fc4c3ba8a57cc08c1972ce0c0d2de1d865", "blocktime": 1537870268, "version": 1, "confirmations": 11518, "time": 1537870268, "locktime": 0, "vsize": 144, "size": 225}