{"hash": "5e6bcf33e1d94a49eee03827bae75c76993380b02cf68322d3b80259be38d2ce", "blockhash": "0000000000000000000e13cef7c366c0283d82e591d1acd082e914b08063cdf1", "vout": [{"scriptPubKey": {"reqSigs": 1, "hex": "a914ee328d163bc94d7d9708e9ed007be427a3483ed587", "addresses": ["3PQVJZ1wuF3oaXsDsgXwQWrKiNdueRoUo1"], "asm": "OP_HASH160 ee328d163bc94d7d9708e9ed007be427a3483ed5 OP_EQUAL", "type": "scripthash"}, "value": 0.19385146, "n": 0}, {"scriptPubKey": {"reqSigs": 1, "hex": "76a914ab1d3968c0f969af2fe1bcf87b6b481ea93f7da388ac", "addresses": ["1GbmZLi8j2EdkrwCSQD5yXsvxLsi461vbP"], "asm": "OP_DUP OP_HASH160 ab1d3968c0f969af2fe1bcf87b6b481ea93f7da3 OP_EQUALVERIFY OP_CHECKSIG", "type": "pubkeyhash"}, "value": 0.00868094, "n": 1}], "hex": "01000000000101d76e8ca374b2b6e50e27e5ce719a3e07ae1acdd71b1e3100948f3b51ed235e540100000023220020ce952d7a2ac099db6aa8ad300f0fe3b7f6bc50890e447c7b2587b337958bbe14ffffffff023acb27010000000017a914ee328d163bc94d7d9708e9ed007be427a3483ed587fe3e0d00000000001976a914ab1d3968c0f969af2fe1bcf87b6b481ea93f7da388ac0400483045022100c8a7ea8b5b08bd2f0a8b7a177d6903a5903764e3378cab0629c0ebf09cec58f502206a1fced0f2ab6420ac5a4b6bd9ef279e2c904b7ec687e124943c4691e85a575801473044022054c965f1dbbb69a95ba7a5dee1a788037052a2f36e80591bd850073fa8a57f0c02202892d2e12245cd16dca413bacaf31edd48d8aaef17cc8ff1de5f6bbefe1b023c01695221025619d15ae69db898a60772769b3c6b31d5138d7ccbff23efde10b4612453c588210304e58ea3a57a3d122dd7081b14ff220effe3870c470546fad2792867f73c8f1421030cf09326289b96b6864e436d7e654b247085423ccc47e5f699dfc164b1316af853ae00000000", "vin": [{"txinwitness": ["", "3045022100c8a7ea8b5b08bd2f0a8b7a177d6903a5903764e3378cab0629c0ebf09cec58f502206a1fced0f2ab6420ac5a4b6bd9ef279e2c904b7ec687e124943c4691e85a575801", "3044022054c965f1dbbb69a95ba7a5dee1a788037052a2f36e80591bd850073fa8a57f0c02202892d2e12245cd16dca413bacaf31edd48d8aaef17cc8ff1de5f6bbefe1b023c01", "5221025619d15ae69db898a60772769b3c6b31d5138d7ccbff23efde10b4612453c588210304e58ea3a57a3d122dd7081b14ff220effe3870c470546fad2792867f73c8f1421030cf09326289b96b6864e436d7e654b247085423ccc47e5f699dfc164b1316af853ae"], "sequence": 4294967295, "scriptSig": {"hex": "220020ce952d7a2ac099db6aa8ad300f0fe3b7f6bc50890e447c7b2587b337958bbe14", "asm": "0020ce952d7a2ac099db6aa8ad300f0fe3b7f6bc50890e447c7b2587b337958bbe14"}, "vout": 1, "txid": "545e23ed513b8f9400311e1bd7cd1aae073e9a71cee5270ee5b6b274a38c6ed7"}], "txid": "c0308243c15a8001e5f17dc4233df1e5e96d80dd219967ee112cfc1b15b77dc4", "blocktime": 1537871767, "version": 1, "confirmations": 11493, "time": 1537871767, "locktime": 0, "vsize": 216, "size": 407}