{"hash": "c03248bc16972df0b5388c9b65c913fc9c93321c595b60f4d7a10d25c3862180", "blockhash": "0000000000000000000dcc0f55137456b1a82d3642486a52398922ac4d620174", "vout": [{"scriptPubKey": {"reqSigs": 1, "hex": "76a914d29a9940e411dd3c853c7dd5b7e3e8c07803a29f88ac", "addresses": ["1LCa6zE7Fw8y6skxorHcBV94X88SanZJQ4"], "asm": "OP_DUP OP_HASH160 d29a9940e411dd3c853c7dd5b7e3e8c07803a29f OP_EQUALVERIFY OP_CHECKSIG", "type": "pubkeyhash"}, "value": 3.86, "n": 0}, {"scriptPubKey": {"reqSigs": 1, "hex": "76a914a2a1c4aa7ae10fe194ec7bc0bb4f281d23e3c02088ac", "addresses": ["1FpvFvwKYKAHnWJeGv8vreL3XAauBU2rxS"], "asm": "OP_DUP OP_HASH160 a2a1c4aa7ae10fe194ec7bc0bb4f281d23e3c020 OP_EQUALVERIFY OP_CHECKSIG", "type": "pubkeyhash"}, "value": 1.03976, "n": 1}], "hex": "0100000002853b281304b8ffc1a0786c713ea46eea9a215b22e68599c01c10989ef2b05d37010000006b483045022100cdc3e658656f2153f634b232a1d7cf3650ce06e75f90cd8b38df2a3c60d21442022025f4edb866f76d44133a3d3b2c290ac1971c1af71901c39422fd0b2aa745b630012102f05d41c080ef3caa3b740e56190ecca8c6d8bcdf0b0d6771fd904f9bdcf56181ffffffff853b281304b8ffc1a0786c713ea46eea9a215b22e68599c01c10989ef2b05d37000000006a473044022025fc73c421dab4fc629067b9eefdec5fdd9dead161926a1fd5d4ffd359c2552a02207c23e11f4657aabd63063942d5669ac7f4e6b40ead8e3a84bcb9c9f9789e3e61012102cddffb073b7c7ec9465e1ce0470264650d5e056f705076e1e6d475f92cacd4f6ffffffff0280e40117000000001976a914d29a9940e411dd3c853c7dd5b7e3e8c07803a29f88ac408c3206000000001976a914a2a1c4aa7ae10fe194ec7bc0bb4f281d23e3c02088ac00000000", "vin": [{"sequence": 4294967295, "scriptSig": {"hex": "483045022100cdc3e658656f2153f634b232a1d7cf3650ce06e75f90cd8b38df2a3c60d21442022025f4edb866f76d44133a3d3b2c290ac1971c1af71901c39422fd0b2aa745b630012102f05d41c080ef3caa3b740e56190ecca8c6d8bcdf0b0d6771fd904f9bdcf56181", "asm": "3045022100cdc3e658656f2153f634b232a1d7cf3650ce06e75f90cd8b38df2a3c60d21442022025f4edb866f76d44133a3d3b2c290ac1971c1af71901c39422fd0b2aa745b630[ALL] 02f05d41c080ef3caa3b740e56190ecca8c6d8bcdf0b0d6771fd904f9bdcf56181"}, "vout": 1, "txid": "375db0f29e98101cc09985e6225b219aea6ea43e716c78a0c1ffb80413283b85"}, {"sequence": 4294967295, "scriptSig": {"hex": "473044022025fc73c421dab4fc629067b9eefdec5fdd9dead161926a1fd5d4ffd359c2552a02207c23e11f4657aabd63063942d5669ac7f4e6b40ead8e3a84bcb9c9f9789e3e61012102cddffb073b7c7ec9465e1ce0470264650d5e056f705076e1e6d475f92cacd4f6", "asm": "3044022025fc73c421dab4fc629067b9eefdec5fdd9dead161926a1fd5d4ffd359c2552a02207c23e11f4657aabd63063942d5669ac7f4e6b40ead8e3a84bcb9c9f9789e3e61[ALL] 02cddffb073b7c7ec9465e1ce0470264650d5e056f705076e1e6d475f92cacd4f6"}, "vout": 0, "txid": "375db0f29e98101cc09985e6225b219aea6ea43e716c78a0c1ffb80413283b85"}], "txid": "c03248bc16972df0b5388c9b65c913fc9c93321c595b60f4d7a10d25c3862180", "blocktime": 1537870268, "version": 1, "confirmations": 11516, "time": 1537870268, "locktime": 0, "vsize": 373, "size": 373}