{"hash": "d36af53e5682df4861c191d443f166e7c847a769fffe064c885e809f009723eb", "blockhash": "0000000000000000000e13cef7c366c0283d82e591d1acd082e914b08063cdf1", "vout": [{"scriptPubKey": {"reqSigs": 1, "hex": "a9148321bac2202c2b1e12fe11bf27bf5f01f34f5b0587", "addresses": ["3DeNrEzKoUdDa6m3FJvp4jPBk1JrUfuUHz"], "asm": "OP_HASH160 8321bac2202c2b1e12fe11bf27bf5f01f34f5b05 OP_EQUAL", "type": "scripthash"}, "value": 0.00347703, "n": 0}, {"scriptPubKey": {"reqSigs": 1, "hex": "a914297aead71d617cfdf4687a32f0acb794ac31715087", "addresses": ["35ULsraesfPnKKrUFniNkQAyJEjx23cJZo"], "asm": "OP_HASH160 297aead71d617cfdf4687a32f0acb794ac317150 OP_EQUAL", "type": "scripthash"}, "value": 0.01024707, "n": 1}], "hex": "02000000000101fe76cf4db5e870f2fea5e15f6d423ec06e68291f6a8b6a87e853342a1110368b0000000017160014560a3cfc361844edac78d67549ae8e1809c4bdbefeffffff02374e05000000000017a9148321bac2202c2b1e12fe11bf27bf5f01f34f5b0587c3a20f000000000017a914297aead71d617cfdf4687a32f0acb794ac3171508702473044022000f0f83c2b1616fb16d9747f3f45c54319d8b856f6cd7dcd59f78ed03278bbf3022037b932a0ac3dfea3e52ee771f245d03fba4f24a7166cce44ce64c99c9190a05c012102eb2385367b4454b971d3c53ea1990678818f74e6e5bbf209022ca364eec8699710490800", "vin": [{"txinwitness": ["3044022000f0f83c2b1616fb16d9747f3f45c54319d8b856f6cd7dcd59f78ed03278bbf3022037b932a0ac3dfea3e52ee771f245d03fba4f24a7166cce44ce64c99c9190a05c01", "02eb2385367b4454b971d3c53ea1990678818f74e6e5bbf209022ca364eec86997"], "sequence": 4294967294, "scriptSig": {"hex": "160014560a3cfc361844edac78d67549ae8e1809c4bdbe", "asm": "0014560a3cfc361844edac78d67549ae8e1809c4bdbe"}, "vout": 0, "txid": "8b3610112a3453e8876a8b6a1f29686ec03e426d5fe1a5fef270e8b54dcf76fe"}], "txid": "c03a4508b2f26936e82fd333b4891308154b1dcf4b4a23c475fe62fc5f29b814", "blocktime": 1537871767, "version": 2, "confirmations": 11495, "time": 1537871767, "locktime": 542992, "vsize": 166, "size": 247}