{"hash": "d4e36e0954af96d19de7f4f0f31054439689d228324b9bd9f2d28fdf9ed3c005", "blockhash": "0000000000000000001cda96e906b7601b7a6fb1a3b62bca570a9e5d8f4b3de1", "vout": [{"scriptPubKey": {"reqSigs": 1, "hex": "a914412d84ce755d6f0456e2b257185b9f66edf221bb87", "addresses": ["37deNiHj6Mkn552kEZPmPy9Rh8G5h71Ub3"], "asm": "OP_HASH160 412d84ce755d6f0456e2b257185b9f66edf221bb OP_EQUAL", "type": "scripthash"}, "value": 15.3731147, "n": 0}, {"scriptPubKey": {"reqSigs": 1, "hex": "a914e4fc2564addf904bd0d5418ea9d0aa8b9e4ac83087", "addresses": ["3NZn3hNwifG2Sok5WDTEeraY4QSrvKzcjK"], "asm": "OP_HASH160 e4fc2564addf904bd0d5418ea9d0aa8b9e4ac830 OP_EQUAL", "type": "scripthash"}, "value": 0.1282706, "n": 1}], "hex": "02000000000101ccb5d875b52765a4495e7df40c2a8799aa6c2f3f916997ee02f782bd469adc95000000001716001449517ba1740be0632dfe63d0cfe996a159c7da36feffffff02ee82a15b0000000017a914412d84ce755d6f0456e2b257185b9f66edf221bb87b4b9c3000000000017a914e4fc2564addf904bd0d5418ea9d0aa8b9e4ac83087024830450221008b1d9649c0982d75eaca398b57b38d81ebf5f2a99c101b4df40a8efc9a957ee402200f302c90a5780834e79ea03822c860228529492bc8c1eefaefe4b6b9d6a0e1af0121038e444f185af078f23a949dc5b2da974b61a9da73359c575b1ff9af1b6ad5c9ae13490800", "vin": [{"txinwitness": ["30450221008b1d9649c0982d75eaca398b57b38d81ebf5f2a99c101b4df40a8efc9a957ee402200f302c90a5780834e79ea03822c860228529492bc8c1eefaefe4b6b9d6a0e1af01", "038e444f185af078f23a949dc5b2da974b61a9da73359c575b1ff9af1b6ad5c9ae"], "sequence": 4294967294, "scriptSig": {"hex": "16001449517ba1740be0632dfe63d0cfe996a159c7da36", "asm": "001449517ba1740be0632dfe63d0cfe996a159c7da36"}, "vout": 0, "txid": "95dc9a46bd82f702ee9769913f2f6caa99872a0cf47d5e49a46527b575d8b5cc"}], "txid": "c04189d442230f56478b4b1c3ff4404953304ba2f7d56c22262ac4067e7db268", "blocktime": 1537873282, "version": 2, "confirmations": 11485, "time": 1537873282, "locktime": 542995, "vsize": 166, "size": 248}