{"hash": "c04546613a48b2254ae66a9bd14b4ff85ca57f8208d86fa367572062a83dca65", "blockhash": "0000000000000000000e13cef7c366c0283d82e591d1acd082e914b08063cdf1", "vout": [{"scriptPubKey": {"reqSigs": 1, "hex": "a914ba504c0841e0bfbe58727bb56d910c3a5b9aad4e87", "addresses": ["3Jg9oMhPSrUPxHT3V5xboJ51cUQQCvUnyd"], "asm": "OP_HASH160 ba504c0841e0bfbe58727bb56d910c3a5b9aad4e OP_EQUAL", "type": "scripthash"}, "value": 0.0782, "n": 0}], "hex": "0100000004f1f36bc1c30ee12896062e19530d0fc8a3dbc10e08105573bb2898e688762642000000006a4730440220110cceac01a05704a8f654d7019134e538002da7109a8215baf35172d5a0e13102207f32c63e0da3091472020eb70edeb7687f90572e23158ef499b5cd97db571075012102a13a7dc2fe8e4a58249e8eae58ca523aa594c03154b0ced969dd3c549f6c7f44ffffffffabbad2df3fd71aa1624cb153e1dd0bc2a87506c8a58b6993ce3b9cb6c3426672010000006a47304402200e57108d7597fad58a4cae74622a788785673f24ff884721a3a1c7fa85d4d15a02205505b436316442b00193b4d14ea7e3efd38c761198d2e21853fefcc51dc255b901210215cca2afb1e2b2ca44db22f2b0846addd5718ee85bba28f2654db6b0d2ee4544ffffffff71ac443a802bd8921b57eb95b19137e9473224d35bcac18041891725110a6a75000000006b483045022100d46f13282362aa672f2a7972016dde65ee04c38e7849687d72213f93d23ccb3202202b856003d4ac803e52e7d9ffe506d60aaec8e41afa2bbecef71bac4cfa6473a4012103e7e86051dde4f6b60964931ea47bccbbaab28abb59fd4db78058779634511787ffffffff3394921d82e8be01c1bfbbdd25216500caebb82cd1b546248b712a8d49710bf2000000006b483045022100f77d71027777862b8649dcc47950d5ab0e7f283580998c8373f7729edafec06a02203455a2c5039fcd34487de5e24f6ac86583c3c166acf723fe2869bf222b0050020121038f11dfe55fd9410575dac6d0b04739cb08b7fc90cd7982f0582a1b76337717b1ffffffff01e05277000000000017a914ba504c0841e0bfbe58727bb56d910c3a5b9aad4e8700000000", "vin": [{"sequence": 4294967295, "scriptSig": {"hex": "4730440220110cceac01a05704a8f654d7019134e538002da7109a8215baf35172d5a0e13102207f32c63e0da3091472020eb70edeb7687f90572e23158ef499b5cd97db571075012102a13a7dc2fe8e4a58249e8eae58ca523aa594c03154b0ced969dd3c549f6c7f44", "asm": "30440220110cceac01a05704a8f654d7019134e538002da7109a8215baf35172d5a0e13102207f32c63e0da3091472020eb70edeb7687f90572e23158ef499b5cd97db571075[ALL] 02a13a7dc2fe8e4a58249e8eae58ca523aa594c03154b0ced969dd3c549f6c7f44"}, "vout": 0, "txid": "42267688e69828bb735510080ec1dba3c80f0d53192e069628e10ec3c16bf3f1"}, {"sequence": 4294967295, "scriptSig": {"hex": "47304402200e57108d7597fad58a4cae74622a788785673f24ff884721a3a1c7fa85d4d15a02205505b436316442b00193b4d14ea7e3efd38c761198d2e21853fefcc51dc255b901210215cca2afb1e2b2ca44db22f2b0846addd5718ee85bba28f2654db6b0d2ee4544", "asm": "304402200e57108d7597fad58a4cae74622a788785673f24ff884721a3a1c7fa85d4d15a02205505b436316442b00193b4d14ea7e3efd38c761198d2e21853fefcc51dc255b9[ALL] 0215cca2afb1e2b2ca44db22f2b0846addd5718ee85bba28f2654db6b0d2ee4544"}, "vout": 1, "txid": "726642c3b69c3bce93698ba5c80675a8c20bdde153b14c62a11ad73fdfd2baab"}, {"sequence": 4294967295, "scriptSig": {"hex": "483045022100d46f13282362aa672f2a7972016dde65ee04c38e7849687d72213f93d23ccb3202202b856003d4ac803e52e7d9ffe506d60aaec8e41afa2bbecef71bac4cfa6473a4012103e7e86051dde4f6b60964931ea47bccbbaab28abb59fd4db78058779634511787", "asm": "3045022100d46f13282362aa672f2a7972016dde65ee04c38e7849687d72213f93d23ccb3202202b856003d4ac803e52e7d9ffe506d60aaec8e41afa2bbecef71bac4cfa6473a4[ALL] 03e7e86051dde4f6b60964931ea47bccbbaab28abb59fd4db78058779634511787"}, "vout": 0, "txid": "756a0a112517894180c1ca5bd3243247e93791b195eb571b92d82b803a44ac71"}, {"sequence": 4294967295, "scriptSig": {"hex": "483045022100f77d71027777862b8649dcc47950d5ab0e7f283580998c8373f7729edafec06a02203455a2c5039fcd34487de5e24f6ac86583c3c166acf723fe2869bf222b0050020121038f11dfe55fd9410575dac6d0b04739cb08b7fc90cd7982f0582a1b76337717b1", "asm": "3045022100f77d71027777862b8649dcc47950d5ab0e7f283580998c8373f7729edafec06a02203455a2c5039fcd34487de5e24f6ac86583c3c166acf723fe2869bf222b005002[ALL] 038f11dfe55fd9410575dac6d0b04739cb08b7fc90cd7982f0582a1b76337717b1"}, "vout": 0, "txid": "f20b71498d2a718b2446b5d12cb8ebca00652125ddbbbfc101bee8821d929433"}], "txid": "c04546613a48b2254ae66a9bd14b4ff85ca57f8208d86fa367572062a83dca65", "blocktime": 1537871767, "version": 1, "confirmations": 11491, "time": 1537871767, "locktime": 0, "vsize": 632, "size": 632}