{"hash": "c0480f44af27e95219023d18a4ce5a96a4e14a84d4291fb0efc3c445112774da", "blockhash": "00000000000000000018f53835495a110e01622372bf6ae95dc86f2b0ab887b0", "vout": [{"scriptPubKey": {"reqSigs": 1, "hex": "76a914aaa0322ed7c169cc8aa74467481795085aadf63588ac", "addresses": ["1GZBnE8CeDtW8HDC4qfVZV4Dqg3AtL5Y5K"], "asm": "OP_DUP OP_HASH160 aaa0322ed7c169cc8aa74467481795085aadf635 OP_EQUALVERIFY OP_CHECKSIG", "type": "pubkeyhash"}, "value": 0.00088427, "n": 0}], "hex": "0100000001f0f19dc80f0aed2086ce689eac8256a063ea726cdaee33c4555f023c7a170648000000006b48304502210086c09b64d9a69b1385f31e77c03cd5e6b0b05a2829fe3bf096a4974e9397174a0220152f1ca0e2e2a7cffadbb012b6e6939b103ba9fa8dc86fcae76bf19cdd68d008012102484ebf9c0aac18f3a3af72f49a5a041ab39cfcd274fb0fb393583e71371103f1ffffffff016b590100000000001976a914aaa0322ed7c169cc8aa74467481795085aadf63588ac00000000", "vin": [{"sequence": 4294967295, "scriptSig": {"hex": "48304502210086c09b64d9a69b1385f31e77c03cd5e6b0b05a2829fe3bf096a4974e9397174a0220152f1ca0e2e2a7cffadbb012b6e6939b103ba9fa8dc86fcae76bf19cdd68d008012102484ebf9c0aac18f3a3af72f49a5a041ab39cfcd274fb0fb393583e71371103f1", "asm": "304502210086c09b64d9a69b1385f31e77c03cd5e6b0b05a2829fe3bf096a4974e9397174a0220152f1ca0e2e2a7cffadbb012b6e6939b103ba9fa8dc86fcae76bf19cdd68d008[ALL] 02484ebf9c0aac18f3a3af72f49a5a041ab39cfcd274fb0fb393583e71371103f1"}, "vout": 0, "txid": "4806177a3c025f55c433eeda6c72ea63a05682ac9e68ce8620ed0a0fc89df1f0"}], "txid": "c0480f44af27e95219023d18a4ce5a96a4e14a84d4291fb0efc3c445112774da", "blocktime": 1537870928, "version": 1, "confirmations": 11514, "time": 1537870928, "locktime": 0, "vsize": 192, "size": 192}