{"hash": "c05406eac816f5b4503ee334b73a9d1d5418d026f724791208640b044d70aab2", "blockhash": "0000000000000000001cda96e906b7601b7a6fb1a3b62bca570a9e5d8f4b3de1", "vout": [{"scriptPubKey": {"reqSigs": 1, "hex": "a914987344d89d6a4ee5bdce919137990f6d5c81992387", "addresses": ["3Fb6ijA75uT1ob4DXvL9xKozKQQ3Qpgaz3"], "asm": "OP_HASH160 987344d89d6a4ee5bdce919137990f6d5c819923 OP_EQUAL", "type": "scripthash"}, "value": 0.01561193, "n": 0}, {"scriptPubKey": {"reqSigs": 1, "hex": "76a914a87c8c0d4663a918de783089a12524ca786d868188ac", "addresses": ["1GMsiunopL5sZuTMaPbCjfwXdJEvC62KSG"], "asm": "OP_DUP OP_HASH160 a87c8c0d4663a918de783089a12524ca786d8681 OP_EQUALVERIFY OP_CHECKSIG", "type": "pubkeyhash"}, "value": 0.10158628, "n": 1}], "hex": "0100000001172799cb4e0bca7548218cef33421f6f8a911244edbc4a377cbae77f92e73500010000006b4830450221009805ba9c333265726e04784ab47c929c264eca8d07ea10e888fef42770177a0402205b3c0da3b16894deb34b99adffb32b652e4625ddfb440d218485eb0d6aab7d140121028a529b882ca97682e7f83cc2e44a1f6deb15c78dea47747c1d1b17aece1e91a8ffffffff0269d217000000000017a914987344d89d6a4ee5bdce919137990f6d5c8199238724029b00000000001976a914a87c8c0d4663a918de783089a12524ca786d868188ac00000000", "vin": [{"sequence": 4294967295, "scriptSig": {"hex": "4830450221009805ba9c333265726e04784ab47c929c264eca8d07ea10e888fef42770177a0402205b3c0da3b16894deb34b99adffb32b652e4625ddfb440d218485eb0d6aab7d140121028a529b882ca97682e7f83cc2e44a1f6deb15c78dea47747c1d1b17aece1e91a8", "asm": "30450221009805ba9c333265726e04784ab47c929c264eca8d07ea10e888fef42770177a0402205b3c0da3b16894deb34b99adffb32b652e4625ddfb440d218485eb0d6aab7d14[ALL] 028a529b882ca97682e7f83cc2e44a1f6deb15c78dea47747c1d1b17aece1e91a8"}, "vout": 1, "txid": "0035e7927fe7ba7c374abced4412918a6f1f4233ef8c214875ca0b4ecb992717"}], "txid": "c05406eac816f5b4503ee334b73a9d1d5418d026f724791208640b044d70aab2", "blocktime": 1537873282, "version": 1, "confirmations": 11480, "time": 1537873282, "locktime": 0, "vsize": 224, "size": 224}