{"hash": "c057e5d4ac13b23742d033f76bd7e6c870b37ac34bb35de50047d59012ec23ab", "blockhash": "0000000000000000001f76057863aec43deb6fa401d9628bb513d65a8098bfab", "vout": [{"scriptPubKey": {"reqSigs": 1, "hex": "76a914f2c4717623f5dc216030c61ffc993b21d9c26b6d88ac", "addresses": ["1P8drY7TgGa3mqWA6yE8LLGvj4TrL3baxa"], "asm": "OP_DUP OP_HASH160 f2c4717623f5dc216030c61ffc993b21d9c26b6d OP_EQUALVERIFY OP_CHECKSIG", "type": "pubkeyhash"}, "value": 0.00284412, "n": 0}, {"scriptPubKey": {"reqSigs": 1, "hex": "76a9146a63cc338952a2b8b7c2ab5189356f6924517ff088ac", "addresses": ["1AhYBQ2qv1Q55G68y6nAQXbngqVwsfz6Lh"], "asm": "OP_DUP OP_HASH160 6a63cc338952a2b8b7c2ab5189356f6924517ff0 OP_EQUALVERIFY OP_CHECKSIG", "type": "pubkeyhash"}, "value": 0.0046821, "n": 1}], "hex": "010000000132ff986cd3e499a31903041b0766abfadb09cba97d4e1c57ec5b8ac1c3b2ca96010000008a473044022071d540a1c7e289e754a707e8dc19d2394ef7b218ff69d51588e875f0ae7091e802205cc9896135c3280ae34d3e58185e24fc600f5edc509fb435f592b09a8faaeab9014104459edb75fe39427dcec11bf2ff989f30796eecbcff162ca937a9e473e1adfe6cbb3a68c567d81341b3eeff022bf02291b1f229df04301fa8448946bf09a480b6ffffffff02fc560400000000001976a914f2c4717623f5dc216030c61ffc993b21d9c26b6d88acf2240700000000001976a9146a63cc338952a2b8b7c2ab5189356f6924517ff088ac00000000", "vin": [{"sequence": 4294967295, "scriptSig": {"hex": "473044022071d540a1c7e289e754a707e8dc19d2394ef7b218ff69d51588e875f0ae7091e802205cc9896135c3280ae34d3e58185e24fc600f5edc509fb435f592b09a8faaeab9014104459edb75fe39427dcec11bf2ff989f30796eecbcff162ca937a9e473e1adfe6cbb3a68c567d81341b3eeff022bf02291b1f229df04301fa8448946bf09a480b6", "asm": "3044022071d540a1c7e289e754a707e8dc19d2394ef7b218ff69d51588e875f0ae7091e802205cc9896135c3280ae34d3e58185e24fc600f5edc509fb435f592b09a8faaeab9[ALL] 04459edb75fe39427dcec11bf2ff989f30796eecbcff162ca937a9e473e1adfe6cbb3a68c567d81341b3eeff022bf02291b1f229df04301fa8448946bf09a480b6"}, "vout": 1, "txid": "96cab2c3c18a5bec571c4e7da9cb09dbfaab66071b040319a399e4d36c98ff32"}], "txid": "c057e5d4ac13b23742d033f76bd7e6c870b37ac34bb35de50047d59012ec23ab", "blocktime": 1537873891, "version": 1, "confirmations": 11478, "time": 1537873891, "locktime": 0, "vsize": 257, "size": 257}