{"hash": "7b67cef24da26fb505ba066e744193d6fa4198544ab818aab43aa6ea8e2da717", "blockhash": "0000000000000000000e13cef7c366c0283d82e591d1acd082e914b08063cdf1", "vout": [{"scriptPubKey": {"reqSigs": 1, "hex": "a91457d944a035fda5b72659b3432568f5bfc0241a9287", "addresses": ["39hWzHNhbJEBi7XTeepFXqMpX789rVSvAe"], "asm": "OP_HASH160 57d944a035fda5b72659b3432568f5bfc0241a92 OP_EQUAL", "type": "scripthash"}, "value": 0.00682, "n": 0}, {"scriptPubKey": {"reqSigs": 1, "hex": "a91441588187e2fc051d59be9ab45aa661e36dd80f6e87", "addresses": ["37eXsWt7Mg9nAG6SV2xBMwrfKpovAkfmPs"], "asm": "OP_HASH160 41588187e2fc051d59be9ab45aa661e36dd80f6e OP_EQUAL", "type": "scripthash"}, "value": 0.92809996, "n": 1}], "hex": "020000000001019232230854652ac98f077deaf765959db5b3fd107dd662743c0da7b5ea942393010000001716001489061a467bb5a9cd714b4e9ad40a9eb523285aa9fdffffff0210680a000000000017a91457d944a035fda5b72659b3432568f5bfc0241a92870c2b88050000000017a91441588187e2fc051d59be9ab45aa661e36dd80f6e870247304402207a46c0f0f0b10542e51911a1464ee87f3ccc8ae8e2c661e67614967962bd29ac022005146ced5b5be0ed8e6973e52e2d3428732fc8d9770955ae7f0e999cd7bee7d1012102d4363c57bab2065efa29f79eed30f3772e4571d26799f7bf793291862f7712cb10490800", "vin": [{"txinwitness": ["304402207a46c0f0f0b10542e51911a1464ee87f3ccc8ae8e2c661e67614967962bd29ac022005146ced5b5be0ed8e6973e52e2d3428732fc8d9770955ae7f0e999cd7bee7d101", "02d4363c57bab2065efa29f79eed30f3772e4571d26799f7bf793291862f7712cb"], "sequence": 4294967293, "scriptSig": {"hex": "16001489061a467bb5a9cd714b4e9ad40a9eb523285aa9", "asm": "001489061a467bb5a9cd714b4e9ad40a9eb523285aa9"}, "vout": 1, "txid": "932394eab5a70d3c7462d67d10fdb3b59d9565f7ea7d078fc92a655408233292"}], "txid": "c0602652b3ac949dc39e6ffe333087cea22477a31c8ab92cdca0dba7499986a7", "blocktime": 1537871767, "version": 2, "confirmations": 11493, "time": 1537871767, "locktime": 542992, "vsize": 166, "size": 247}