{"hash": "c06251759a8c044f45a7d8aba2a55480c34ed6f89b602cd83f8dc6bbc9a872fe", "blockhash": "0000000000000000001f76057863aec43deb6fa401d9628bb513d65a8098bfab", "vout": [{"scriptPubKey": {"reqSigs": 1, "hex": "76a9143c754d3a34843d90bb1ec54cb8bcef6089d06d9288ac", "addresses": ["16Wg4mpMfyRtbYnPxm1ovGoJ6da8F4zFHn"], "asm": "OP_DUP OP_HASH160 3c754d3a34843d90bb1ec54cb8bcef6089d06d92 OP_EQUALVERIFY OP_CHECKSIG", "type": "pubkeyhash"}, "value": 0.05423756, "n": 0}, {"scriptPubKey": {"reqSigs": 1, "hex": "76a9141ea7d0d480290cac1b82b8028971f0b316da4a6b88ac", "addresses": ["13o6JoEVt4vsVXpu7eoWmkqwxE4V2PWioZ"], "asm": "OP_DUP OP_HASH160 1ea7d0d480290cac1b82b8028971f0b316da4a6b OP_EQUALVERIFY OP_CHECKSIG", "type": "pubkeyhash"}, "value": 0.00997542, "n": 1}], "hex": "0200000005bef54306e65c70123e119e4c275c59e42de71af7e6dc3258582f56d3b3791d42020000006b483045022100e0c710caecbba4c28725a1eddaa08fbfb458f1c5f592d64def1ec253100a602702201cc4e2296709c5bc0e96e9c8934ee44b3dd99879c833f258b3b28b480b70a40d012102908c4dfd1d51f6327852bb249e044d3848b13cff15523f3017576487161009f1feffffffa8254120b35d2dd45eaf51576c99837077f59ea7ff7ba82daf0d82d0da5d2d48000000006b483045022100cecad4c25ebf3d88ebb430ccb41a29874a3c4b5a1e74a661a77e301829e9636402202a6c58a6ca40302105646a2c912ba3ae97206593286dd659e1be6ff2f1f87ca30121034cf0a055883ad3a4831c0d01a3eaf99236dcaa50f4a632660a55ed30b5b1cea0feffffffb22cea5e3c53c550b394fc48071d904014e5a901996658cab517a23c95076a0d010000006a473044022040803fbf30ac0b467dc0c02bf859a5030a3fffd4135331728b3f26ebaa3183bd0220731a283fd21f74c83ee6a0c15bd55b41f3422d3f6e1bd9c85d35cb04691f224001210275a309b0dec03768812063d6c99ab0d802be427e85c2249737845a92c77deef1feffffff3b222b09604abf9e70885858f5742ca0ff62859155d664b244d5f202dc558b41030000006a473044022004a0e76f49f74bcb402a14db3fb15d0464857fdc65f5f9b268f63181118e125b02204093453873f665866a02c92cdbd8f4d0fd9358cdc5d9746e44fbe2ebd3894f650121022dbe88cf04692a5c36ef1c289423b44d83b46c310be129dd39c925372f60d86bfeffffff072ba7262fbd79a5b605b7214649d92003a30f8dfac72e22c9f4eb88f7cbdcdc000000006b483045022100cfbb277c8a18cbc7c5e824731c1c4b6ac5a52ccece23abdc0bffebdc4eb69a3f02206f34682eb38300be8cbf2124cc9219ff9c8950b5d4aa9caa2c783129ec027fdb012102af787dac33c1413d4e9dc25f6490a85c7af0fb60e9b712ef01876bfebbd07193feffffff028cc25200000000001976a9143c754d3a34843d90bb1ec54cb8bcef6089d06d9288aca6380f00000000001976a9141ea7d0d480290cac1b82b8028971f0b316da4a6b88ac13490800", "vin": [{"sequence": 4294967294, "scriptSig": {"hex": "483045022100e0c710caecbba4c28725a1eddaa08fbfb458f1c5f592d64def1ec253100a602702201cc4e2296709c5bc0e96e9c8934ee44b3dd99879c833f258b3b28b480b70a40d012102908c4dfd1d51f6327852bb249e044d3848b13cff15523f3017576487161009f1", "asm": "3045022100e0c710caecbba4c28725a1eddaa08fbfb458f1c5f592d64def1ec253100a602702201cc4e2296709c5bc0e96e9c8934ee44b3dd99879c833f258b3b28b480b70a40d[ALL] 02908c4dfd1d51f6327852bb249e044d3848b13cff15523f3017576487161009f1"}, "vout": 2, "txid": "421d79b3d3562f585832dce6f71ae72de4595c274c9e113e12705ce60643f5be"}, {"sequence": 4294967294, "scriptSig": {"hex": "483045022100cecad4c25ebf3d88ebb430ccb41a29874a3c4b5a1e74a661a77e301829e9636402202a6c58a6ca40302105646a2c912ba3ae97206593286dd659e1be6ff2f1f87ca30121034cf0a055883ad3a4831c0d01a3eaf99236dcaa50f4a632660a55ed30b5b1cea0", "asm": "3045022100cecad4c25ebf3d88ebb430ccb41a29874a3c4b5a1e74a661a77e301829e9636402202a6c58a6ca40302105646a2c912ba3ae97206593286dd659e1be6ff2f1f87ca3[ALL] 034cf0a055883ad3a4831c0d01a3eaf99236dcaa50f4a632660a55ed30b5b1cea0"}, "vout": 0, "txid": "482d5ddad0820daf2da87bffa79ef5777083996c5751af5ed42d5db3204125a8"}, {"sequence": 4294967294, "scriptSig": {"hex": "473044022040803fbf30ac0b467dc0c02bf859a5030a3fffd4135331728b3f26ebaa3183bd0220731a283fd21f74c83ee6a0c15bd55b41f3422d3f6e1bd9c85d35cb04691f224001210275a309b0dec03768812063d6c99ab0d802be427e85c2249737845a92c77deef1", "asm": "3044022040803fbf30ac0b467dc0c02bf859a5030a3fffd4135331728b3f26ebaa3183bd0220731a283fd21f74c83ee6a0c15bd55b41f3422d3f6e1bd9c85d35cb04691f2240[ALL] 0275a309b0dec03768812063d6c99ab0d802be427e85c2249737845a92c77deef1"}, "vout": 1, "txid": "0d6a07953ca217b5ca58669901a9e51440901d0748fc94b350c5533c5eea2cb2"}, {"sequence": 4294967294, "scriptSig": {"hex": "473044022004a0e76f49f74bcb402a14db3fb15d0464857fdc65f5f9b268f63181118e125b02204093453873f665866a02c92cdbd8f4d0fd9358cdc5d9746e44fbe2ebd3894f650121022dbe88cf04692a5c36ef1c289423b44d83b46c310be129dd39c925372f60d86b", "asm": "3044022004a0e76f49f74bcb402a14db3fb15d0464857fdc65f5f9b268f63181118e125b02204093453873f665866a02c92cdbd8f4d0fd9358cdc5d9746e44fbe2ebd3894f65[ALL] 022dbe88cf04692a5c36ef1c289423b44d83b46c310be129dd39c925372f60d86b"}, "vout": 3, "txid": "418b55dc02f2d544b264d655918562ffa02c74f5585888709ebf4a60092b223b"}, {"sequence": 4294967294, "scriptSig": {"hex": "483045022100cfbb277c8a18cbc7c5e824731c1c4b6ac5a52ccece23abdc0bffebdc4eb69a3f02206f34682eb38300be8cbf2124cc9219ff9c8950b5d4aa9caa2c783129ec027fdb012102af787dac33c1413d4e9dc25f6490a85c7af0fb60e9b712ef01876bfebbd07193", "asm": "3045022100cfbb277c8a18cbc7c5e824731c1c4b6ac5a52ccece23abdc0bffebdc4eb69a3f02206f34682eb38300be8cbf2124cc9219ff9c8950b5d4aa9caa2c783129ec027fdb[ALL] 02af787dac33c1413d4e9dc25f6490a85c7af0fb60e9b712ef01876bfebbd07193"}, "vout": 0, "txid": "dcdccbf788ebf4c9222ec7fa8d0fa30320d9494621b705b6a579bd2f26a72b07"}], "txid": "c06251759a8c044f45a7d8aba2a55480c34ed6f89b602cd83f8dc6bbc9a872fe", "blocktime": 1537873891, "version": 2, "confirmations": 11478, "time": 1537873891, "locktime": 542995, "vsize": 816, "size": 816}