{"hash": "c06b533a037f6e8f3d42e3fba57a4cd3ea6cb82aff43dbfc7dd1b3137c39c91a", "blockhash": "0000000000000000000dcc0f55137456b1a82d3642486a52398922ac4d620174", "vout": [{"scriptPubKey": {"reqSigs": 1, "hex": "76a91484016e32836aa2ecb0297a0750ab71a13822fdd388ac", "addresses": ["1D2yuiGpRaJjM6ycUeXRZZu3VB9eScQLvP"], "asm": "OP_DUP OP_HASH160 84016e32836aa2ecb0297a0750ab71a13822fdd3 OP_EQUALVERIFY OP_CHECKSIG", "type": "pubkeyhash"}, "value": 0.02938001, "n": 0}, {"scriptPubKey": {"reqSigs": 1, "hex": "a9145f701307f419956e3944bb03ee8d78d1960113d487", "addresses": ["3APeNq44B8nPGBgh139q9AeAn5k6WGmmoY"], "asm": "OP_HASH160 5f701307f419956e3944bb03ee8d78d1960113d4 OP_EQUAL", "type": "scripthash"}, "value": 0.2, "n": 1}], "hex": "0100000001146af81f9c5a5977de81ec300d4c96ab1872eb06dcc9a60ae2bb741a512571ea010000006a473044022005a0780018048c525612a737c2bd71d08c9a320468581bb4097ea28d17d05fee02207ed10d829a9e08f90840e6d7eab813dbb63af5cf8d15e2f7d04560dfaf14df7e012103abef3e8067185fcb761b50969db9b542de082e533cb23ce7f3aff8b60078b6a4ffffffff0291d42c00000000001976a91484016e32836aa2ecb0297a0750ab71a13822fdd388ac002d31010000000017a9145f701307f419956e3944bb03ee8d78d1960113d48700000000", "vin": [{"sequence": 4294967295, "scriptSig": {"hex": "473044022005a0780018048c525612a737c2bd71d08c9a320468581bb4097ea28d17d05fee02207ed10d829a9e08f90840e6d7eab813dbb63af5cf8d15e2f7d04560dfaf14df7e012103abef3e8067185fcb761b50969db9b542de082e533cb23ce7f3aff8b60078b6a4", "asm": "3044022005a0780018048c525612a737c2bd71d08c9a320468581bb4097ea28d17d05fee02207ed10d829a9e08f90840e6d7eab813dbb63af5cf8d15e2f7d04560dfaf14df7e[ALL] 03abef3e8067185fcb761b50969db9b542de082e533cb23ce7f3aff8b60078b6a4"}, "vout": 1, "txid": "ea7125511a74bbe20aa6c9dc06eb7218ab964c0d30ec81de77595a9c1ff86a14"}], "txid": "c06b533a037f6e8f3d42e3fba57a4cd3ea6cb82aff43dbfc7dd1b3137c39c91a", "blocktime": 1537870268, "version": 1, "confirmations": 11518, "time": 1537870268, "locktime": 0, "vsize": 223, "size": 223}