{"hash": "c06e1d94c6d1d79d32d45156901aa2675c5e4ede22da5aa5613052266aad4274", "blockhash": "000000000000000000205f8b0775d31398ef75b89a5e8ec8d2c57b4dc0ac4c20", "vout": [{"scriptPubKey": {"reqSigs": 1, "hex": "a91433f0e973a211c97ee0af4d59520639b23d97b88f87", "addresses": ["36RezBSUvr9T4U5JH3jvBjsRa7FuxNhSQy"], "asm": "OP_HASH160 33f0e973a211c97ee0af4d59520639b23d97b88f OP_EQUAL", "type": "scripthash"}, "value": 5.0, "n": 0}, {"scriptPubKey": {"reqSigs": 1, "hex": "76a91490f43842171affe9e8b86a1df2f527ca46965c6788ac", "addresses": ["1EDSsJyS8WdoRywVYyaoAwmJKvoVFtaRHb"], "asm": "OP_DUP OP_HASH160 90f43842171affe9e8b86a1df2f527ca46965c67 OP_EQUALVERIFY OP_CHECKSIG", "type": "pubkeyhash"}, "value": 0.00998827, "n": 1}], "hex": "02000000090260404267dc63583c7625490ae6e88c08adb5b9abfef8608f73ee4448439372000000006a47304402204b1efabb88e04cece29bc0f70809a01ea24b4f5dc2cad2d45e7487e411fbece6022074ded713a32b3ac82f05babac6cfb91fd42cb2a59c9e188ff236591c92af7fa001210329762dcc86e1f37f9e1b1699306561b6d7b0faa113cd0158106b11003cd1638dfeffffff12b11fe8365c27959ded73204f7476cfa3204e74f0c49a43a970ddbd9075f811010000006b483045022100c501d70e7910af942ef7a6fdd295e5c71e8484612500ea45bdb1ad04f924f6d102206e6bbd612c40d2c81074080d5eca04e867dec1835c0e0d39519f70048f48c4de012102fa3c24a32d78cd70c86703a2fa55ff1b155a6c15ef61e64910adb892df613b01feffffff45b2677ecbc8b88a275ebfb5728d78b32db8697900209c29eaa636e72dd0edf8000000006b483045022100db35272eeaacc95d4c284a31b1579f2ec07530c7cd3b071ede6370053d57c038022009d6bb6af3291430a57c650c8fb72dd485eadb302872f0b6fb293bc628a11a15012103366f87cda2209044170e42c5d2407d91de39235a9be50458a73f7332ee7908d7feffffff497dd9cd690eae0be5fc2156474d288f25413e69e4b02ee185bb97367ba4f125000000006b483045022100dbf58c68b8e0ef23ce96ab502f6a1b24a7d177b214f0d6675eb887849c353d5202200b1552d684e814aefc9f312b06a3706a08567a5049095d5fdbfec7047ad8c3690121022daa52ee49ce3f3eee4194ad3a648fac51fe8fdcd75a229545cb034988a8ac3efeffffff5e1dfde70e29479930f95bd5f1301a60f5c6dcc6aeea6851fbe275eb1a840bc5000000006a47304402201c925aeea17884a3a54d363a87b2451a5f4c032ed9259c74ac25ed9018120a86022025948d4bbcb1b582ac9502e22552451f764c07a5a13580d2400345f62d329cfe012102de496c9b777c110789895cc983bf65f0d471a44fe93d06fd7970fedc2cf6b0b4feffffff67ea46c9797059ef4c0fbb47ba06d86c6ad9a3de697a052aab43df69164cf9f2010000006a47304402206f541b8107567638a9f5f7f1f6c3a76df390def9d7835ae4d9fbb9d0fd7a99fa022066f4665da0c4ff151fc80a5eb09eac14becf68b3ccf74808621e7aa07bc8e4f20121024a8ae033bb978bebca4e646077708fbbaeb5ab5398456a07b3cad825936968a2feffffffa50a0d278a809a2516aff15cf50214d6ab211b0b32f9791ee2dc273bb1b2dac1000000006b483045022100e13abbdf5e41bbd7d1cd97f68c0c48cb3c88c65b453d2385670ec53835ea61ea022021b5b9055d277457c549958e20a2308af7ed09f769ef2b7418d7653896c38931012103067ca08957cc4ecded4eb54bed637ca82c23e732c184f500da06e931d88053a3feffffffc6a5c425a4be3866652822401d79a67bfb58bd489c98c350510b8a15edf686bb010000006a4730440220227aa670135211e3b7fdc6c64cc1d1ee34e79b54b36773e7da3c1b69e3a8df2202203f56e01f7ec7ae6877d5721785d550680e8e270947b1b6f2a07f781d22dfe393012103cc55f7ee96d616148beff72eb8ff1c2e34979131be865c357e9f8bcc9c5eeef2fefffffff651e219b52be72ff415091bb1b02c82609035ff6c7cf7cd366a955e2c73d6781c0000006b483045022100ffefb24e6d9d2b87424f93c494941771a999868c7fec34d5204662c44947c8ac02205f28baee0f7a15f4ce671cd561a35db76928b7e569a47f486e45c11dbed7cab90121039b7d3e208fa4736735a2f6c5bded6a458f7b8c4ca0143350926b6a424438db78feffffff020065cd1d0000000017a91433f0e973a211c97ee0af4d59520639b23d97b88f87ab3d0f00000000001976a91490f43842171affe9e8b86a1df2f527ca46965c6788ac0e490800", "vin": [{"sequence": 4294967294, "scriptSig": {"hex": "47304402204b1efabb88e04cece29bc0f70809a01ea24b4f5dc2cad2d45e7487e411fbece6022074ded713a32b3ac82f05babac6cfb91fd42cb2a59c9e188ff236591c92af7fa001210329762dcc86e1f37f9e1b1699306561b6d7b0faa113cd0158106b11003cd1638d", "asm": "304402204b1efabb88e04cece29bc0f70809a01ea24b4f5dc2cad2d45e7487e411fbece6022074ded713a32b3ac82f05babac6cfb91fd42cb2a59c9e188ff236591c92af7fa0[ALL] 0329762dcc86e1f37f9e1b1699306561b6d7b0faa113cd0158106b11003cd1638d"}, "vout": 0, "txid": "7293434844ee738f60f8feabb9b5ad088ce8e60a4925763c5863dc6742406002"}, {"sequence": 4294967294, "scriptSig": {"hex": "483045022100c501d70e7910af942ef7a6fdd295e5c71e8484612500ea45bdb1ad04f924f6d102206e6bbd612c40d2c81074080d5eca04e867dec1835c0e0d39519f70048f48c4de012102fa3c24a32d78cd70c86703a2fa55ff1b155a6c15ef61e64910adb892df613b01", "asm": "3045022100c501d70e7910af942ef7a6fdd295e5c71e8484612500ea45bdb1ad04f924f6d102206e6bbd612c40d2c81074080d5eca04e867dec1835c0e0d39519f70048f48c4de[ALL] 02fa3c24a32d78cd70c86703a2fa55ff1b155a6c15ef61e64910adb892df613b01"}, "vout": 1, "txid": "11f87590bddd70a9439ac4f0744e20a3cf76744f2073ed9d95275c36e81fb112"}, {"sequence": 4294967294, "scriptSig": {"hex": "483045022100db35272eeaacc95d4c284a31b1579f2ec07530c7cd3b071ede6370053d57c038022009d6bb6af3291430a57c650c8fb72dd485eadb302872f0b6fb293bc628a11a15012103366f87cda2209044170e42c5d2407d91de39235a9be50458a73f7332ee7908d7", "asm": "3045022100db35272eeaacc95d4c284a31b1579f2ec07530c7cd3b071ede6370053d57c038022009d6bb6af3291430a57c650c8fb72dd485eadb302872f0b6fb293bc628a11a15[ALL] 03366f87cda2209044170e42c5d2407d91de39235a9be50458a73f7332ee7908d7"}, "vout": 0, "txid": "f8edd02de736a6ea299c20007969b82db3788d72b5bf5e278ab8c8cb7e67b245"}, {"sequence": 4294967294, "scriptSig": {"hex": "483045022100dbf58c68b8e0ef23ce96ab502f6a1b24a7d177b214f0d6675eb887849c353d5202200b1552d684e814aefc9f312b06a3706a08567a5049095d5fdbfec7047ad8c3690121022daa52ee49ce3f3eee4194ad3a648fac51fe8fdcd75a229545cb034988a8ac3e", "asm": "3045022100dbf58c68b8e0ef23ce96ab502f6a1b24a7d177b214f0d6675eb887849c353d5202200b1552d684e814aefc9f312b06a3706a08567a5049095d5fdbfec7047ad8c369[ALL] 022daa52ee49ce3f3eee4194ad3a648fac51fe8fdcd75a229545cb034988a8ac3e"}, "vout": 0, "txid": "25f1a47b3697bb85e12eb0e4693e41258f284d475621fce50bae0e69cdd97d49"}, {"sequence": 4294967294, "scriptSig": {"hex": "47304402201c925aeea17884a3a54d363a87b2451a5f4c032ed9259c74ac25ed9018120a86022025948d4bbcb1b582ac9502e22552451f764c07a5a13580d2400345f62d329cfe012102de496c9b777c110789895cc983bf65f0d471a44fe93d06fd7970fedc2cf6b0b4", "asm": "304402201c925aeea17884a3a54d363a87b2451a5f4c032ed9259c74ac25ed9018120a86022025948d4bbcb1b582ac9502e22552451f764c07a5a13580d2400345f62d329cfe[ALL] 02de496c9b777c110789895cc983bf65f0d471a44fe93d06fd7970fedc2cf6b0b4"}, "vout": 0, "txid": "c50b841aeb75e2fb5168eaaec6dcc6f5601a30f1d55bf9309947290ee7fd1d5e"}, {"sequence": 4294967294, "scriptSig": {"hex": "47304402206f541b8107567638a9f5f7f1f6c3a76df390def9d7835ae4d9fbb9d0fd7a99fa022066f4665da0c4ff151fc80a5eb09eac14becf68b3ccf74808621e7aa07bc8e4f20121024a8ae033bb978bebca4e646077708fbbaeb5ab5398456a07b3cad825936968a2", "asm": "304402206f541b8107567638a9f5f7f1f6c3a76df390def9d7835ae4d9fbb9d0fd7a99fa022066f4665da0c4ff151fc80a5eb09eac14becf68b3ccf74808621e7aa07bc8e4f2[ALL] 024a8ae033bb978bebca4e646077708fbbaeb5ab5398456a07b3cad825936968a2"}, "vout": 1, "txid": "f2f94c1669df43ab2a057a69dea3d96a6cd806ba47bb0f4cef597079c946ea67"}, {"sequence": 4294967294, "scriptSig": {"hex": "483045022100e13abbdf5e41bbd7d1cd97f68c0c48cb3c88c65b453d2385670ec53835ea61ea022021b5b9055d277457c549958e20a2308af7ed09f769ef2b7418d7653896c38931012103067ca08957cc4ecded4eb54bed637ca82c23e732c184f500da06e931d88053a3", "asm": "3045022100e13abbdf5e41bbd7d1cd97f68c0c48cb3c88c65b453d2385670ec53835ea61ea022021b5b9055d277457c549958e20a2308af7ed09f769ef2b7418d7653896c38931[ALL] 03067ca08957cc4ecded4eb54bed637ca82c23e732c184f500da06e931d88053a3"}, "vout": 0, "txid": "c1dab2b13b27dce21e79f9320b1b21abd61402f55cf1af16259a808a270d0aa5"}, {"sequence": 4294967294, "scriptSig": {"hex": "4730440220227aa670135211e3b7fdc6c64cc1d1ee34e79b54b36773e7da3c1b69e3a8df2202203f56e01f7ec7ae6877d5721785d550680e8e270947b1b6f2a07f781d22dfe393012103cc55f7ee96d616148beff72eb8ff1c2e34979131be865c357e9f8bcc9c5eeef2", "asm": "30440220227aa670135211e3b7fdc6c64cc1d1ee34e79b54b36773e7da3c1b69e3a8df2202203f56e01f7ec7ae6877d5721785d550680e8e270947b1b6f2a07f781d22dfe393[ALL] 03cc55f7ee96d616148beff72eb8ff1c2e34979131be865c357e9f8bcc9c5eeef2"}, "vout": 1, "txid": "bb86f6ed158a0b5150c3989c48bd58fb7ba6791d402228656638bea425c4a5c6"}, {"sequence": 4294967294, "scriptSig": {"hex": "483045022100ffefb24e6d9d2b87424f93c494941771a999868c7fec34d5204662c44947c8ac02205f28baee0f7a15f4ce671cd561a35db76928b7e569a47f486e45c11dbed7cab90121039b7d3e208fa4736735a2f6c5bded6a458f7b8c4ca0143350926b6a424438db78", "asm": "3045022100ffefb24e6d9d2b87424f93c494941771a999868c7fec34d5204662c44947c8ac02205f28baee0f7a15f4ce671cd561a35db76928b7e569a47f486e45c11dbed7cab9[ALL] 039b7d3e208fa4736735a2f6c5bded6a458f7b8c4ca0143350926b6a424438db78"}, "vout": 28, "txid": "78d6732c5e956a36cdf77c6cff359060822cb0b11b0915f42fe72bb519e251f6"}], "txid": "c06e1d94c6d1d79d32d45156901aa2675c5e4ede22da5aa5613052266aad4274", "blocktime": 1537871175, "version": 2, "confirmations": 11511, "time": 1537871175, "locktime": 542990, "vsize": 1404, "size": 1404}