{"hash": "c0726c33301762469d3aa284aa0a01e4a441a31d1b0e8650c3ff05a9e6216f7c", "blockhash": "00000000000000000018f53835495a110e01622372bf6ae95dc86f2b0ab887b0", "vout": [{"scriptPubKey": {"reqSigs": 1, "hex": "76a914d6d48b5ed574e07e007ccacc019ba32999841ceb88ac", "addresses": ["1LavDu1DnRSxztrkX6f1pZDZpe3foyz4qC"], "asm": "OP_DUP OP_HASH160 d6d48b5ed574e07e007ccacc019ba32999841ceb OP_EQUALVERIFY OP_CHECKSIG", "type": "pubkeyhash"}, "value": 0.01531536, "n": 0}, {"scriptPubKey": {"reqSigs": 1, "hex": "76a914cebf03141d1f8e7034158a7ffff7b79a71efa78688ac", "addresses": ["1KrB2GPQ5Q3n9gBzwZ2YDuZNbUJ851vQMi"], "asm": "OP_DUP OP_HASH160 cebf03141d1f8e7034158a7ffff7b79a71efa786 OP_EQUALVERIFY OP_CHECKSIG", "type": "pubkeyhash"}, "value": 0.0780489, "n": 1}], "hex": "0100000002882d2313158c86136e40f6f4c54a19987e37472cf5774edbc5e51bb28b9679b1000000006b483045022100abfc7a90241100836c035498ecfc03750bba3224006cb9e715c83f874ddc81870220062ef5d5ef427183c47e05a886800bd2b1d38a340bd56963b6e43bfb77778c7a012102ab19230bcd92a3f291d09c031714afc94afa6d31577e51b9e2ca097f59ed1e17ffffffff96aac264005ff6cb2bf697151556cd82f732d70e1c326a58e4b4f1f6c879c8e80d0000006b483045022100c4a819bd322213a24b64363639c8dc40cb46a9974ea7138a262d78c0425bac7802207d91655371d338beb553cfaede7d56bd727a551e1734baa7bca7ece690fa47c9012103bf7257d2da62a214b769a75179e258d358da298a07fe0604252996c4ac6cb513ffffffff02905e1700000000001976a914d6d48b5ed574e07e007ccacc019ba32999841ceb88acda177700000000001976a914cebf03141d1f8e7034158a7ffff7b79a71efa78688ac00000000", "vin": [{"sequence": 4294967295, "scriptSig": {"hex": "483045022100abfc7a90241100836c035498ecfc03750bba3224006cb9e715c83f874ddc81870220062ef5d5ef427183c47e05a886800bd2b1d38a340bd56963b6e43bfb77778c7a012102ab19230bcd92a3f291d09c031714afc94afa6d31577e51b9e2ca097f59ed1e17", "asm": "3045022100abfc7a90241100836c035498ecfc03750bba3224006cb9e715c83f874ddc81870220062ef5d5ef427183c47e05a886800bd2b1d38a340bd56963b6e43bfb77778c7a[ALL] 02ab19230bcd92a3f291d09c031714afc94afa6d31577e51b9e2ca097f59ed1e17"}, "vout": 0, "txid": "b179968bb21be5c5db4e77f52c47377e98194ac5f4f6406e13868c1513232d88"}, {"sequence": 4294967295, "scriptSig": {"hex": "483045022100c4a819bd322213a24b64363639c8dc40cb46a9974ea7138a262d78c0425bac7802207d91655371d338beb553cfaede7d56bd727a551e1734baa7bca7ece690fa47c9012103bf7257d2da62a214b769a75179e258d358da298a07fe0604252996c4ac6cb513", "asm": "3045022100c4a819bd322213a24b64363639c8dc40cb46a9974ea7138a262d78c0425bac7802207d91655371d338beb553cfaede7d56bd727a551e1734baa7bca7ece690fa47c9[ALL] 03bf7257d2da62a214b769a75179e258d358da298a07fe0604252996c4ac6cb513"}, "vout": 13, "txid": "e8c879c8f6f1b4e4586a321c0ed732f782cd56151597f62bcbf65f0064c2aa96"}], "txid": "c0726c33301762469d3aa284aa0a01e4a441a31d1b0e8650c3ff05a9e6216f7c", "blocktime": 1537870928, "version": 1, "confirmations": 11514, "time": 1537870928, "locktime": 0, "vsize": 374, "size": 374}