{"hash": "7a669ba4888c1e70b63afc2df64651aea7a2989e2a9e541579b0e47e65a3f47e", "blockhash": "0000000000000000000baef3f32e3676a92c3b2e5da21b426e4f302fc371ce76", "vout": [{"scriptPubKey": {"reqSigs": 1, "hex": "a91472490d24310e2f2d5e5e25f83fddc893cb9ba5bb87", "addresses": ["3C7JU7DkaUr8invmQGn8DFKWdyorw2uvR3"], "asm": "OP_HASH160 72490d24310e2f2d5e5e25f83fddc893cb9ba5bb OP_EQUAL", "type": "scripthash"}, "value": 0.12900319, "n": 0}, {"scriptPubKey": {"reqSigs": 1, "hex": "a914427cc38d4f0edd5d4fdce839c08fb25eb96e894a87", "addresses": ["37kZyx5xaeJ8R5axXaaon5TqAJywKHW5rk"], "asm": "OP_HASH160 427cc38d4f0edd5d4fdce839c08fb25eb96e894a OP_EQUAL", "type": "scripthash"}, "value": 30.62883994, "n": 1}], "hex": "02000000000101c7816ca9798904523c27fbcb68b0a0d88da4f40789886abd1007071b31185874000000001716001425a45e01f16accfa455da94688567b583dd89c5dfeffffff02dfd7c4000000000017a91472490d24310e2f2d5e5e25f83fddc893cb9ba5bb879ae68fb60000000017a914427cc38d4f0edd5d4fdce839c08fb25eb96e894a87024730440220415d37786137e0177cbbbf9d8fc9a3882605239bf2c683851c85552dc7b4615e02205b8f97b071975a8f4b380f0a75a23d258885a1f3dd03bf2d05bc51724b14f790012102af00d44dbd14a0e486b0f44bf8c3d5c2d740660da7ef1bb15f7f1c5e56ad8d9417490800", "vin": [{"txinwitness": ["30440220415d37786137e0177cbbbf9d8fc9a3882605239bf2c683851c85552dc7b4615e02205b8f97b071975a8f4b380f0a75a23d258885a1f3dd03bf2d05bc51724b14f79001", "02af00d44dbd14a0e486b0f44bf8c3d5c2d740660da7ef1bb15f7f1c5e56ad8d94"], "sequence": 4294967294, "scriptSig": {"hex": "16001425a45e01f16accfa455da94688567b583dd89c5d", "asm": "001425a45e01f16accfa455da94688567b583dd89c5d"}, "vout": 0, "txid": "745818311b070710bd6a888907f4a48dd8a0b068cbfb273c52048979a96c81c7"}], "txid": "c07281fffe5f751276289c48e57331231a1c59de279ba6cfa3b5f04d7e729169", "blocktime": 1537876114, "version": 2, "confirmations": 11459, "time": 1537876114, "locktime": 542999, "vsize": 166, "size": 247}