{"hash": "c078dbb1b7a883709d6776c0871159eb6f253130b17a9a85e9babdf20a152e8d", "blockhash": "0000000000000000000e13cef7c366c0283d82e591d1acd082e914b08063cdf1", "vout": [{"scriptPubKey": {"reqSigs": 1, "hex": "76a9149f54731f5261242d62bee9d4dcbfce6eba4a558c88ac", "addresses": ["1FXTcAnwdmqES4vv84Af3G639iTZ27n2pu"], "asm": "OP_DUP OP_HASH160 9f54731f5261242d62bee9d4dcbfce6eba4a558c OP_EQUALVERIFY OP_CHECKSIG", "type": "pubkeyhash"}, "value": 0.09351866, "n": 0}, {"scriptPubKey": {"reqSigs": 1, "hex": "a9140949b55b44176ad43202ed6ec7d6d18f0d2b8def87", "addresses": ["32Y8JczJrdsEiP4mXWsVBaw9gm7W5WL3Pc"], "asm": "OP_HASH160 0949b55b44176ad43202ed6ec7d6d18f0d2b8def OP_EQUAL", "type": "scripthash"}, "value": 0.27247, "n": 1}], "hex": "01000000012e63069f8dd094db70113611760e858127104827b09c44916c3c8c834e938bcc000000006a47304402206f99066ba241509d9ae9bf74cadd88faa60962e265f5ff3ed13083815e905c3e022036f2d113581d4b323c97fe866a234d9006b1dd96f7688c941df84d8cc01affda0121029a9d2a38b9fbc247631a2a86be6f937dd861b985eb9ec8402e9139ae409b501affffffff02bab28e00000000001976a9149f54731f5261242d62bee9d4dcbfce6eba4a558c88ac98c19f010000000017a9140949b55b44176ad43202ed6ec7d6d18f0d2b8def8700000000", "vin": [{"sequence": 4294967295, "scriptSig": {"hex": "47304402206f99066ba241509d9ae9bf74cadd88faa60962e265f5ff3ed13083815e905c3e022036f2d113581d4b323c97fe866a234d9006b1dd96f7688c941df84d8cc01affda0121029a9d2a38b9fbc247631a2a86be6f937dd861b985eb9ec8402e9139ae409b501a", "asm": "304402206f99066ba241509d9ae9bf74cadd88faa60962e265f5ff3ed13083815e905c3e022036f2d113581d4b323c97fe866a234d9006b1dd96f7688c941df84d8cc01affda[ALL] 029a9d2a38b9fbc247631a2a86be6f937dd861b985eb9ec8402e9139ae409b501a"}, "vout": 0, "txid": "cc8b934e838c3c6c91449cb02748102781850e7611361170db94d08d9f06632e"}], "txid": "c078dbb1b7a883709d6776c0871159eb6f253130b17a9a85e9babdf20a152e8d", "blocktime": 1537871767, "version": 1, "confirmations": 11493, "time": 1537871767, "locktime": 0, "vsize": 223, "size": 223}