{"hash": "c0799806f61697c17abb8ca17b88ef1dd10f2ef1129fc544e24f6c4be0ee8f6b", "blockhash": "0000000000000000000baef3f32e3676a92c3b2e5da21b426e4f302fc371ce76", "vout": [{"scriptPubKey": {"reqSigs": 1, "hex": "76a9142695c1833cb1c4f8be6470512f54518aaaa4409288ac", "addresses": ["14X25Wj6SfSyPjXNhanSbnpSjHK6aqpP5x"], "asm": "OP_DUP OP_HASH160 2695c1833cb1c4f8be6470512f54518aaaa44092 OP_EQUALVERIFY OP_CHECKSIG", "type": "pubkeyhash"}, "value": 6.474, "n": 0}, {"scriptPubKey": {"reqSigs": 1, "hex": "76a9147882cc18a4d75d2699cf9513cd36362d3ea01b4988ac", "addresses": ["1BzCmyNixdKspkBSue8QCyDm8MhqZMNqs7"], "asm": "OP_DUP OP_HASH160 7882cc18a4d75d2699cf9513cd36362d3ea01b49 OP_EQUALVERIFY OP_CHECKSIG", "type": "pubkeyhash"}, "value": 3.52559322, "n": 1}], "hex": "0100000001e8de1d07913668859852e7b796f4f579b2da260bbeeb453cf054c0585b385259020000006a4730440220678ff709e8494abb5c6da117550d735bf9692d9ee8bd24b378970ad4b8d1401002205b32873c5fcce98329402e97d2325c39b96243ababc073097b1f315b2bf67f53012102afdcf3b98d46b988e5acec352e8a4c82ba9a6ff031f685098a3076d70af0c52effffffff02408a9626000000001976a9142695c1833cb1c4f8be6470512f54518aaaa4409288acdaa00315000000001976a9147882cc18a4d75d2699cf9513cd36362d3ea01b4988ac00000000", "vin": [{"sequence": 4294967295, "scriptSig": {"hex": "4730440220678ff709e8494abb5c6da117550d735bf9692d9ee8bd24b378970ad4b8d1401002205b32873c5fcce98329402e97d2325c39b96243ababc073097b1f315b2bf67f53012102afdcf3b98d46b988e5acec352e8a4c82ba9a6ff031f685098a3076d70af0c52e", "asm": "30440220678ff709e8494abb5c6da117550d735bf9692d9ee8bd24b378970ad4b8d1401002205b32873c5fcce98329402e97d2325c39b96243ababc073097b1f315b2bf67f53[ALL] 02afdcf3b98d46b988e5acec352e8a4c82ba9a6ff031f685098a3076d70af0c52e"}, "vout": 2, "txid": "5952385b58c054f03c45ebbe0b26dab279f5f496b7e7529885683691071ddee8"}], "txid": "c0799806f61697c17abb8ca17b88ef1dd10f2ef1129fc544e24f6c4be0ee8f6b", "blocktime": 1537876114, "version": 1, "confirmations": 11460, "time": 1537876114, "locktime": 0, "vsize": 225, "size": 225}