{"hash": "c07b24369af34f8a66f01ecc6909697c14f8ad4af9ecf93df680e76906ae30cc", "blockhash": "0000000000000000000e13cef7c366c0283d82e591d1acd082e914b08063cdf1", "vout": [{"scriptPubKey": {"reqSigs": 1, "hex": "76a914bcfd1afaf23b4a18443477fe1fd23d52ba8c3b6388ac", "addresses": ["1JEHF8qFoa7H8qVqrUJFXX879BmVW2c4Te"], "asm": "OP_DUP OP_HASH160 bcfd1afaf23b4a18443477fe1fd23d52ba8c3b63 OP_EQUALVERIFY OP_CHECKSIG", "type": "pubkeyhash"}, "value": 0.00813076, "n": 0}, {"scriptPubKey": {"reqSigs": 1, "hex": "76a914531c7fe4d082187e81d7e21b892820b53646926288ac", "addresses": ["18aTE7Fhdwkbgn5BqG2ur4jzhEKi5jyq6N"], "asm": "OP_DUP OP_HASH160 531c7fe4d082187e81d7e21b892820b536469262 OP_EQUALVERIFY OP_CHECKSIG", "type": "pubkeyhash"}, "value": 5.46e-06, "n": 1}, {"scriptPubKey": {"type": "nulldata", "hex": "6a146f6d6e69000000000000001f000009184e72a000", "asm": "OP_RETURN 6f6d6e69000000000000001f000009184e72a000"}, "value": 0.0, "n": 2}], "hex": "0100000001f89e27f09f71903e3e8eb18f6060e7bcecaeafbeee7cb4f047d232b46bdd9618000000008b483045022100a840532180b4a47ada3cfebc568c1c6e4ebb5daf028d27712debdcb2e18401f8022039af7beab103012396c719514fb28be24b653992175a4359bea9f9a2edb536510141046d64233d2374fa1bd129e4aba5cf2134e1e9074a5f8bad771e640c74c4a645b27840baaeba1ae06252a97324a72838238c374c28c55b28c9a498c0cda54ec726ffffffff0314680c00000000001976a914bcfd1afaf23b4a18443477fe1fd23d52ba8c3b6388ac22020000000000001976a914531c7fe4d082187e81d7e21b892820b53646926288ac0000000000000000166a146f6d6e69000000000000001f000009184e72a00000000000", "vin": [{"sequence": 4294967295, "scriptSig": {"hex": "483045022100a840532180b4a47ada3cfebc568c1c6e4ebb5daf028d27712debdcb2e18401f8022039af7beab103012396c719514fb28be24b653992175a4359bea9f9a2edb536510141046d64233d2374fa1bd129e4aba5cf2134e1e9074a5f8bad771e640c74c4a645b27840baaeba1ae06252a97324a72838238c374c28c55b28c9a498c0cda54ec726", "asm": "3045022100a840532180b4a47ada3cfebc568c1c6e4ebb5daf028d27712debdcb2e18401f8022039af7beab103012396c719514fb28be24b653992175a4359bea9f9a2edb53651[ALL] 046d64233d2374fa1bd129e4aba5cf2134e1e9074a5f8bad771e640c74c4a645b27840baaeba1ae06252a97324a72838238c374c28c55b28c9a498c0cda54ec726"}, "vout": 0, "txid": "1896dd6bb432d247f0b47ceebeafaeecbce760608fb18e3e3e90719ff0279ef8"}], "txid": "c07b24369af34f8a66f01ecc6909697c14f8ad4af9ecf93df680e76906ae30cc", "blocktime": 1537871767, "version": 1, "confirmations": 11491, "time": 1537871767, "locktime": 0, "vsize": 289, "size": 289}