{"hash": "c08dcbd7deaed1999a043c69ad70db83f2a4b78dd1cd51072365d247bf65706e", "blockhash": "0000000000000000001f0ddff1eddb255c1121bcd4da4f1bc9a0da00cae72433", "vout": [{"scriptPubKey": {"reqSigs": 1, "hex": "76a914c772bdc3eee5da71182e7ca6c2f2a1ba99c311b988ac", "addresses": ["1KBavYBES8CEMhB4AMn1CfTf4LcT3rStqv"], "asm": "OP_DUP OP_HASH160 c772bdc3eee5da71182e7ca6c2f2a1ba99c311b9 OP_EQUALVERIFY OP_CHECKSIG", "type": "pubkeyhash"}, "value": 0.0007811, "n": 0}, {"scriptPubKey": {"reqSigs": 1, "hex": "76a914b987e85a0d3b3e8e35876e415a94ca90bbf8d19888ac", "addresses": ["1HuzpWvUWtRcUYu5RFbS49K2vetFm7AXB1"], "asm": "OP_DUP OP_HASH160 b987e85a0d3b3e8e35876e415a94ca90bbf8d198 OP_EQUALVERIFY OP_CHECKSIG", "type": "pubkeyhash"}, "value": 0.00780423, "n": 1}], "hex": "0100000001dbe1f5ff17c4b1ed71c4fbfb33f8e1d9b2ebb72977a0422f16ecc1cc4bc8e509010000006a47304402206ba9328b67dfefd424b2bbb11f39c00dbe5771c4a245dc8276251afaa79a1f47022021554eca6a17738ac71f6785144a04333bccbc999a6ec62a9464432b6997f7e2012102faf4d5d6f86a093761fa6e89585e36d9126c5b033d62ba692fcfbb2312c39304ffffffff021e310100000000001976a914c772bdc3eee5da71182e7ca6c2f2a1ba99c311b988ac87e80b00000000001976a914b987e85a0d3b3e8e35876e415a94ca90bbf8d19888ac00000000", "vin": [{"sequence": 4294967295, "scriptSig": {"hex": "47304402206ba9328b67dfefd424b2bbb11f39c00dbe5771c4a245dc8276251afaa79a1f47022021554eca6a17738ac71f6785144a04333bccbc999a6ec62a9464432b6997f7e2012102faf4d5d6f86a093761fa6e89585e36d9126c5b033d62ba692fcfbb2312c39304", "asm": "304402206ba9328b67dfefd424b2bbb11f39c00dbe5771c4a245dc8276251afaa79a1f47022021554eca6a17738ac71f6785144a04333bccbc999a6ec62a9464432b6997f7e2[ALL] 02faf4d5d6f86a093761fa6e89585e36d9126c5b033d62ba692fcfbb2312c39304"}, "vout": 1, "txid": "09e5c84bccc1ec162f42a07729b7ebb2d9e1f833fbfbc471edb1c417fff5e1db"}], "txid": "c08dcbd7deaed1999a043c69ad70db83f2a4b78dd1cd51072365d247bf65706e", "blocktime": 1537872018, "version": 1, "confirmations": 11489, "time": 1537872018, "locktime": 0, "vsize": 225, "size": 225}