{"hash": "c0973f8d7088e6eba016aad90fd3c83969a02650f300b8ca19c7f21b403b08ae", "blockhash": "000000000000000000205f8b0775d31398ef75b89a5e8ec8d2c57b4dc0ac4c20", "vout": [{"scriptPubKey": {"reqSigs": 1, "hex": "76a9146338d3b4bd2d6fbe40b87c7619269f3ae54fd56588ac", "addresses": ["1A3dyQ8T8SLiLksRGjcYVPmDxxCMxchWq4"], "asm": "OP_DUP OP_HASH160 6338d3b4bd2d6fbe40b87c7619269f3ae54fd565 OP_EQUALVERIFY OP_CHECKSIG", "type": "pubkeyhash"}, "value": 48.52392054, "n": 0}, {"scriptPubKey": {"reqSigs": 1, "hex": "76a914bc27585868c58412d6b5776acbfcaf698408710988ac", "addresses": ["1J9sAoxEwK7c2eD8rMXFsf6x1Vbn4zUdDX"], "asm": "OP_DUP OP_HASH160 bc27585868c58412d6b5776acbfcaf6984087109 OP_EQUALVERIFY OP_CHECKSIG", "type": "pubkeyhash"}, "value": 0.04799553, "n": 1}, {"scriptPubKey": {"reqSigs": 1, "hex": "a91469f3770e26b844a7560f836a6e7c2b5b2f98540187", "addresses": ["3BMEXwB7LJ1f4dEka1RjuSGqafufC1KLeL"], "asm": "OP_HASH160 69f3770e26b844a7560f836a6e7c2b5b2f985401 OP_EQUAL", "type": "scripthash"}, "value": 46.23855655, "n": 2}], "hex": "020000000335efa85595f04d1a0992ba08fa448f408e66e8e2c5b3efbf7cfcc8136633328e010000006a473044022039c3a4082c1dcb2ec58179a2b231d167758e83eec17b5bfcb658fcd1b7e8eb2302203801f62c4b022d86201e04ebb654d908617392005b07d4dc9f672230d33518ee0121020cef4f80957b055aa4104371f44c05b66fc3b7991f17c47aba53d346450f36a8ffffffffd2b35b88eb900bab40c2997b0cc4a5d2dba22ef44e19e141304e37968192f0cf010000006b483045022100c76738a8c914055aad8781858b7fc9d6e7f21c1791da18bc501b9ad121439b7e022031c13b5aa68351d37aa26dbf816c769e13118462ac801828ea7445f02b44ddf6012103d45f4f5c81597294dcb5f6feffd31bc31dd5ff13c2057c49527a9397bf907717ffffffffc5a6c70ec607524a68ff33e5ddbab4144b6806d7aa1fee56052c129ffcc0ced6000000006a4730440220632a26b87bca934a1e0d6346b76616f90b459736a2c0780a3cf40f9f851aae0902203b2498a744f430bf9c5522624d1b37ce7ad7e656792a322ecb68571e6ffc1b960121027d592d11b0a919e40ce21839dca87190515b40a64d4ff3e11bb215d6b4ffb9c4ffffffff0376a03921010000001976a9146338d3b4bd2d6fbe40b87c7619269f3ae54fd56588ac413c4900000000001976a914bc27585868c58412d6b5776acbfcaf698408710988ac27709a130100000017a91469f3770e26b844a7560f836a6e7c2b5b2f9854018700000000", "vin": [{"sequence": 4294967295, "scriptSig": {"hex": "473044022039c3a4082c1dcb2ec58179a2b231d167758e83eec17b5bfcb658fcd1b7e8eb2302203801f62c4b022d86201e04ebb654d908617392005b07d4dc9f672230d33518ee0121020cef4f80957b055aa4104371f44c05b66fc3b7991f17c47aba53d346450f36a8", "asm": "3044022039c3a4082c1dcb2ec58179a2b231d167758e83eec17b5bfcb658fcd1b7e8eb2302203801f62c4b022d86201e04ebb654d908617392005b07d4dc9f672230d33518ee[ALL] 020cef4f80957b055aa4104371f44c05b66fc3b7991f17c47aba53d346450f36a8"}, "vout": 1, "txid": "8e32336613c8fc7cbfefb3c5e2e8668e408f44fa08ba92091a4df09555a8ef35"}, {"sequence": 4294967295, "scriptSig": {"hex": "483045022100c76738a8c914055aad8781858b7fc9d6e7f21c1791da18bc501b9ad121439b7e022031c13b5aa68351d37aa26dbf816c769e13118462ac801828ea7445f02b44ddf6012103d45f4f5c81597294dcb5f6feffd31bc31dd5ff13c2057c49527a9397bf907717", "asm": "3045022100c76738a8c914055aad8781858b7fc9d6e7f21c1791da18bc501b9ad121439b7e022031c13b5aa68351d37aa26dbf816c769e13118462ac801828ea7445f02b44ddf6[ALL] 03d45f4f5c81597294dcb5f6feffd31bc31dd5ff13c2057c49527a9397bf907717"}, "vout": 1, "txid": "cff0928196374e3041e1194ef42ea2dbd2a5c40c7b99c240ab0b90eb885bb3d2"}, {"sequence": 4294967295, "scriptSig": {"hex": "4730440220632a26b87bca934a1e0d6346b76616f90b459736a2c0780a3cf40f9f851aae0902203b2498a744f430bf9c5522624d1b37ce7ad7e656792a322ecb68571e6ffc1b960121027d592d11b0a919e40ce21839dca87190515b40a64d4ff3e11bb215d6b4ffb9c4", "asm": "30440220632a26b87bca934a1e0d6346b76616f90b459736a2c0780a3cf40f9f851aae0902203b2498a744f430bf9c5522624d1b37ce7ad7e656792a322ecb68571e6ffc1b96[ALL] 027d592d11b0a919e40ce21839dca87190515b40a64d4ff3e11bb215d6b4ffb9c4"}, "vout": 0, "txid": "d6cec0fc9f122c0556ee1faad706684b14b4badde533ff684a5207c60ec7a6c5"}], "txid": "c0973f8d7088e6eba016aad90fd3c83969a02650f300b8ca19c7f21b403b08ae", "blocktime": 1537871175, "version": 2, "confirmations": 11511, "time": 1537871175, "locktime": 0, "vsize": 552, "size": 552}