{"hash": "208fa72f09531120b98e27de60510e0361367dc536fe5ee94676b7c0919dbdb1", "blockhash": "0000000000000000000baef3f32e3676a92c3b2e5da21b426e4f302fc371ce76", "vout": [{"scriptPubKey": {"reqSigs": 1, "hex": "76a91494ed7b64de1b7c6cb40dddcefa496340638e7a6d88ac", "addresses": ["1EaTVvwoHKPqrsfF9BnkBK6K6sj5oXJfR3"], "asm": "OP_DUP OP_HASH160 94ed7b64de1b7c6cb40dddcefa496340638e7a6d OP_EQUALVERIFY OP_CHECKSIG", "type": "pubkeyhash"}, "value": 0.00169739, "n": 0}, {"scriptPubKey": {"reqSigs": 1, "hex": "a91457c6a8362abc0a54a0cb113540f37b5deae7808087", "addresses": ["39h8hAjd1NUJ8RxsxUy8s7iJpSdQmf2nE4"], "asm": "OP_HASH160 57c6a8362abc0a54a0cb113540f37b5deae78080 OP_EQUAL", "type": "scripthash"}, "value": 6.44414881, "n": 1}], "hex": "010000000001010110c11e5ef22ab3a317356dd64f5d74645c300ad69a0a47fad543e0d3d68f7401000000232200202c32d4ec4d8d644161bac085fb71020234f7b5a46562cc3274e596a720328e91ffffffff020b970200000000001976a91494ed7b64de1b7c6cb40dddcefa496340638e7a6d88aca1fd68260000000017a91457c6a8362abc0a54a0cb113540f37b5deae780808704004830450221008c4d1012c3cc16a984a5a1874c10e2ead404de5738b77aeb32ca6d8106ee2db002204b1ae31c73d565b0139f01350d36133909363383b3bd1f3e2fe13615498c9c1a01483045022100e19fb35d2a6fe8bdc33ec7ba6bf818d548401732122697a87576d9acfcd872c402207fd0e5df06cd48e18996aad4979d4f44e9a9df1dc1f5b95f9c172c8fcf2589b0014752210226d4bd116ea31a092e259887024a992f583862c7c62ca3126479e1d95d8ab72a2102dbb50015ecf7a401cd04b4f0dfc384ded081e22c7fc7779564b26f5d0852125252ae00000000", "vin": [{"txinwitness": ["", "30450221008c4d1012c3cc16a984a5a1874c10e2ead404de5738b77aeb32ca6d8106ee2db002204b1ae31c73d565b0139f01350d36133909363383b3bd1f3e2fe13615498c9c1a01", "3045022100e19fb35d2a6fe8bdc33ec7ba6bf818d548401732122697a87576d9acfcd872c402207fd0e5df06cd48e18996aad4979d4f44e9a9df1dc1f5b95f9c172c8fcf2589b001", "52210226d4bd116ea31a092e259887024a992f583862c7c62ca3126479e1d95d8ab72a2102dbb50015ecf7a401cd04b4f0dfc384ded081e22c7fc7779564b26f5d0852125252ae"], "sequence": 4294967295, "scriptSig": {"hex": "2200202c32d4ec4d8d644161bac085fb71020234f7b5a46562cc3274e596a720328e91", "asm": "00202c32d4ec4d8d644161bac085fb71020234f7b5a46562cc3274e596a720328e91"}, "vout": 1, "txid": "748fd6d3e043d5fa470a9ad60a305c64745d4fd66d3517a3b32af25e1ec11001"}], "txid": "c097482770c86f8224cb2f65a261151e88721c02c70e0fac8a2b0ddddd851b3d", "blocktime": 1537876114, "version": 1, "confirmations": 11462, "time": 1537876114, "locktime": 0, "vsize": 208, "size": 374}