{"hash": "c09aa48d9100279051c44125229182e679977a016926a798c7a0f21921724b10", "blockhash": "000000000000000000205f8b0775d31398ef75b89a5e8ec8d2c57b4dc0ac4c20", "vout": [{"scriptPubKey": {"reqSigs": 1, "hex": "76a914b7be030ed2fb0816f19bf77ce0d52df1827b6a6e88ac", "addresses": ["1HkYHNFQsHjrUcT1PSigitCMhkuLFAKXsz"], "asm": "OP_DUP OP_HASH160 b7be030ed2fb0816f19bf77ce0d52df1827b6a6e OP_EQUALVERIFY OP_CHECKSIG", "type": "pubkeyhash"}, "value": 0.04620442, "n": 0}, {"scriptPubKey": {"reqSigs": 1, "hex": "76a91414627d95afa610eebdd2327550324a7aa27d7b7a88ac", "addresses": ["12rnW5hfdZwvS4MwmpZU5Sw6X6CUa6hogk"], "asm": "OP_DUP OP_HASH160 14627d95afa610eebdd2327550324a7aa27d7b7a OP_EQUALVERIFY OP_CHECKSIG", "type": "pubkeyhash"}, "value": 0.00037885, "n": 1}], "hex": "010000000141e546fd1d967372be8c0760081c729c2620fa8796e4df565f63e38f3c37aff9000000006a47304402203623f536717c1e1d601efec7dfdfb7c12132c168f8e034f5e7e357a8ea6d87ac02203c75ee288168157f91ce9b0076cf11f4ea31109a12148dc98cb1a8649efd80c5012103cef9b0410ab517edeb7a8542fe92ab349f61d41c836212fa863b8680a0dcb129ffffffff029a804600000000001976a914b7be030ed2fb0816f19bf77ce0d52df1827b6a6e88acfd930000000000001976a91414627d95afa610eebdd2327550324a7aa27d7b7a88ac00000000", "vin": [{"sequence": 4294967295, "scriptSig": {"hex": "47304402203623f536717c1e1d601efec7dfdfb7c12132c168f8e034f5e7e357a8ea6d87ac02203c75ee288168157f91ce9b0076cf11f4ea31109a12148dc98cb1a8649efd80c5012103cef9b0410ab517edeb7a8542fe92ab349f61d41c836212fa863b8680a0dcb129", "asm": "304402203623f536717c1e1d601efec7dfdfb7c12132c168f8e034f5e7e357a8ea6d87ac02203c75ee288168157f91ce9b0076cf11f4ea31109a12148dc98cb1a8649efd80c5[ALL] 03cef9b0410ab517edeb7a8542fe92ab349f61d41c836212fa863b8680a0dcb129"}, "vout": 0, "txid": "f9af373c8fe3635f56dfe49687fa20269c721c0860078cbe7273961dfd46e541"}], "txid": "c09aa48d9100279051c44125229182e679977a016926a798c7a0f21921724b10", "blocktime": 1537871175, "version": 1, "confirmations": 11511, "time": 1537871175, "locktime": 0, "vsize": 225, "size": 225}