{"hash": "c0a285ccd31f62b4c556f93c90620bfa189eccf05f2f8700c799eca75d4f5c81", "blockhash": "0000000000000000001f0ddff1eddb255c1121bcd4da4f1bc9a0da00cae72433", "vout": [{"scriptPubKey": {"reqSigs": 1, "hex": "76a914d78fd3af08213c8c1d3fe3e832f2fbced881b59e88ac", "addresses": ["1LenaWe4kCBoiaVYGad2wfxB6rfYsaqwHo"], "asm": "OP_DUP OP_HASH160 d78fd3af08213c8c1d3fe3e832f2fbced881b59e OP_EQUALVERIFY OP_CHECKSIG", "type": "pubkeyhash"}, "value": 0.00025213, "n": 0}, {"scriptPubKey": {"reqSigs": 1, "hex": "a914f8a801643971051ee8c958375fa993d944ac36cc87", "addresses": ["3QMnmLg2nzi4MDSCs5ouN8BLajFKqNsmTu"], "asm": "OP_HASH160 f8a801643971051ee8c958375fa993d944ac36cc OP_EQUAL", "type": "scripthash"}, "value": 0.00427735, "n": 1}], "hex": "0100000001946c36baae553354bdaa0dc8f2e09d7c2da29f3e382206a3e8cf3fa5fc96c3cb000000006b483045022100d0754130b6f1d070558965ce8fbc0c4e1f76030dbd3fa0f60d19687dc7e463bb022017a9ddd3a6f0010742385f63fff65e68fd42bfd32f7a85c2a5e1c2c735255c83012103a364b2edb4bde51090f8b46b6471193ee7030be3184506602b6672c6310c8a81ffffffff027d620000000000001976a914d78fd3af08213c8c1d3fe3e832f2fbced881b59e88acd78606000000000017a914f8a801643971051ee8c958375fa993d944ac36cc8700000000", "vin": [{"sequence": 4294967295, "scriptSig": {"hex": "483045022100d0754130b6f1d070558965ce8fbc0c4e1f76030dbd3fa0f60d19687dc7e463bb022017a9ddd3a6f0010742385f63fff65e68fd42bfd32f7a85c2a5e1c2c735255c83012103a364b2edb4bde51090f8b46b6471193ee7030be3184506602b6672c6310c8a81", "asm": "3045022100d0754130b6f1d070558965ce8fbc0c4e1f76030dbd3fa0f60d19687dc7e463bb022017a9ddd3a6f0010742385f63fff65e68fd42bfd32f7a85c2a5e1c2c735255c83[ALL] 03a364b2edb4bde51090f8b46b6471193ee7030be3184506602b6672c6310c8a81"}, "vout": 0, "txid": "cbc396fca53fcfe8a30622383e9fa22d7c9de0f2c80daabd543355aeba366c94"}], "txid": "c0a285ccd31f62b4c556f93c90620bfa189eccf05f2f8700c799eca75d4f5c81", "blocktime": 1537872018, "version": 1, "confirmations": 11489, "time": 1537872018, "locktime": 0, "vsize": 224, "size": 224}