{"hash": "c0a350a5a3913eb8985c28070a2fa2f93adb960818a2a699e155b5db422281c4", "blockhash": "0000000000000000001cda96e906b7601b7a6fb1a3b62bca570a9e5d8f4b3de1", "vout": [{"scriptPubKey": {"reqSigs": 1, "hex": "76a914d050f0b2c5596ee615ad33ca1a1758a6100fd5b888ac", "addresses": ["1KzUWj8SQkT9EAg3C2h8Y57xnttWxD1C8w"], "asm": "OP_DUP OP_HASH160 d050f0b2c5596ee615ad33ca1a1758a6100fd5b8 OP_EQUALVERIFY OP_CHECKSIG", "type": "pubkeyhash"}, "value": 0.00462917, "n": 0}, {"scriptPubKey": {"reqSigs": 1, "hex": "76a914c3c152a512467bed4a2c11880813e2b2166c4d6e88ac", "addresses": ["1Jr4MiLdx2cVU8tEaQkFGC943mJiNPnqzE"], "asm": "OP_DUP OP_HASH160 c3c152a512467bed4a2c11880813e2b2166c4d6e OP_EQUALVERIFY OP_CHECKSIG", "type": "pubkeyhash"}, "value": 59.8441022, "n": 1}], "hex": "01000000016cb2c3b8fd55571cfa80c6ae50197754b9f5abb002f3c9bfd8387582d164f65e010000006a473044022002eab1e35494affabf55c7663bd638d2f2f5e330164c299aa1fc4c4949ea9252022021061f45e875c5551b835056d02af81105515bada7565682ab74783a977f77e00121026a7358ddde9891f20a5683846c929aaeec709ad9fbe2341004d772bd0834ff22ffffffff0245100700000000001976a914d050f0b2c5596ee615ad33ca1a1758a6100fd5b888ac6cdab264010000001976a914c3c152a512467bed4a2c11880813e2b2166c4d6e88ac00000000", "vin": [{"sequence": 4294967295, "scriptSig": {"hex": "473044022002eab1e35494affabf55c7663bd638d2f2f5e330164c299aa1fc4c4949ea9252022021061f45e875c5551b835056d02af81105515bada7565682ab74783a977f77e00121026a7358ddde9891f20a5683846c929aaeec709ad9fbe2341004d772bd0834ff22", "asm": "3044022002eab1e35494affabf55c7663bd638d2f2f5e330164c299aa1fc4c4949ea9252022021061f45e875c5551b835056d02af81105515bada7565682ab74783a977f77e0[ALL] 026a7358ddde9891f20a5683846c929aaeec709ad9fbe2341004d772bd0834ff22"}, "vout": 1, "txid": "5ef664d1827538d8bfc9f302b0abf5b954771950aec680fa1c5755fdb8c3b26c"}], "txid": "c0a350a5a3913eb8985c28070a2fa2f93adb960818a2a699e155b5db422281c4", "blocktime": 1537873282, "version": 1, "confirmations": 11480, "time": 1537873282, "locktime": 0, "vsize": 225, "size": 225}