{"hash": "6f0f2b71cbf68a806335d76af259b254b0b217e38baf5c7101c45765b990dfb4", "blockhash": "0000000000000000001cda96e906b7601b7a6fb1a3b62bca570a9e5d8f4b3de1", "vout": [{"scriptPubKey": {"reqSigs": 1, "hex": "a914ec979a54a9bb4d5ea9d410a21a1c2db2d2eef01187", "addresses": ["3PG11NDtw3rCf6BBmYVVEuq8EihgVED4wf"], "asm": "OP_HASH160 ec979a54a9bb4d5ea9d410a21a1c2db2d2eef011 OP_EQUAL", "type": "scripthash"}, "value": 0.01038341, "n": 0}, {"scriptPubKey": {"reqSigs": 1, "hex": "76a9142205d89c5083257dbc5641a2f70f294d0fe1fc6888ac", "addresses": ["146tyih8mgsfGf3SiWZeahpUCmBHKH2La5"], "asm": "OP_DUP OP_HASH160 2205d89c5083257dbc5641a2f70f294d0fe1fc68 OP_EQUALVERIFY OP_CHECKSIG", "type": "pubkeyhash"}, "value": 0.04825056, "n": 1}], "hex": "02000000000104116659b7ed128f18420cd9b957ed5cd9583e9541771bdd8d3a6de777708f97f60000000017160014cfc20479a4ca50ca3e8cdbab6d58f38e4a2effe6feffffff872cb3809bcab728c5871890a9be84a5b66b80322a5b1865085e73abb54cf0a300000000171600141fe70bc348ded8f44430d54d2ff9f3e28f31978bfeffffffab80d7a1098f08f2a731c3d4d142977e5d3ef481622fa77f0de2ea69cdfe31d00000000017160014298a36acdfdb5dfa8d5b7a82df67cb10a3442469feffffffefc1570df9a581aaf283d6a6ab8a4cced8cca2344dfd63d81268405f6d45192f01000000171600145b50b5f149ad680ccdc9dce7794f1499007bc6c8feffffff0205d80f000000000017a914ec979a54a9bb4d5ea9d410a21a1c2db2d2eef01187e09f4900000000001976a9142205d89c5083257dbc5641a2f70f294d0fe1fc6888ac02473044022034d19a2cee002a73832e1de358b2ac7fae47fd588038b45139e6985befd8389c0220525a8f2104227f925ad0964a38c9ce85ae03ea213c25fd8e62c96fadecc46ae00121025ede6f45adb07dbf9b698a43d18821c6033ca2aebcec9800554ec2ac8cdb990c0247304402200cb5e7a6750ce435dd5459a36a7d52f85d60a11455d149fef71560a759b6504d022016c8c9100cc58ed05b8e24486d33cdec4340f48a09c8bab76a3fa6f282d7dbec012102a53c37993c5660dc4897bbb20f517cf3eb9bafd324e7e30495fdd99307ccea36024730440220132c34ac76c5aefb63426bfe885ce1864e196b7759223aef9a4c22ff58bf931102203c746b4109cc333dea661c3c5b1ce57f4273b0cfce58ccefe01c704123900aff012102e3eef57102c504e6458088221850365b2884c99d2bbb6ae8d1ee5be7bd79d2480247304402207f7570178e04e51cc34fb2f584a9a4107a6c6f93e94c3eb4b2eb328268eab63f02202cd60517c561ef2c7a0a04c0264e760aaa9a4535d75e73f941c3580bbba349a3012102b31bc69e80f0147d778175490d273a0cf8a25f722b2ef78acd19e580fcaebacf00000000", "vin": [{"txinwitness": ["3044022034d19a2cee002a73832e1de358b2ac7fae47fd588038b45139e6985befd8389c0220525a8f2104227f925ad0964a38c9ce85ae03ea213c25fd8e62c96fadecc46ae001", "025ede6f45adb07dbf9b698a43d18821c6033ca2aebcec9800554ec2ac8cdb990c"], "sequence": 4294967294, "scriptSig": {"hex": "160014cfc20479a4ca50ca3e8cdbab6d58f38e4a2effe6", "asm": "0014cfc20479a4ca50ca3e8cdbab6d58f38e4a2effe6"}, "vout": 0, "txid": "f6978f7077e76d3a8ddd1b7741953e58d95ced57b9d90c42188f12edb7596611"}, {"txinwitness": ["304402200cb5e7a6750ce435dd5459a36a7d52f85d60a11455d149fef71560a759b6504d022016c8c9100cc58ed05b8e24486d33cdec4340f48a09c8bab76a3fa6f282d7dbec01", "02a53c37993c5660dc4897bbb20f517cf3eb9bafd324e7e30495fdd99307ccea36"], "sequence": 4294967294, "scriptSig": {"hex": "1600141fe70bc348ded8f44430d54d2ff9f3e28f31978b", "asm": "00141fe70bc348ded8f44430d54d2ff9f3e28f31978b"}, "vout": 0, "txid": "a3f04cb5ab735e0865185b2a32806bb6a584bea9901887c528b7ca9b80b32c87"}, {"txinwitness": ["30440220132c34ac76c5aefb63426bfe885ce1864e196b7759223aef9a4c22ff58bf931102203c746b4109cc333dea661c3c5b1ce57f4273b0cfce58ccefe01c704123900aff01", "02e3eef57102c504e6458088221850365b2884c99d2bbb6ae8d1ee5be7bd79d248"], "sequence": 4294967294, "scriptSig": {"hex": "160014298a36acdfdb5dfa8d5b7a82df67cb10a3442469", "asm": "0014298a36acdfdb5dfa8d5b7a82df67cb10a3442469"}, "vout": 0, "txid": "d031fecd69eae20d7fa72f6281f43e5d7e9742d1d4c331a7f2088f09a1d780ab"}, {"txinwitness": ["304402207f7570178e04e51cc34fb2f584a9a4107a6c6f93e94c3eb4b2eb328268eab63f02202cd60517c561ef2c7a0a04c0264e760aaa9a4535d75e73f941c3580bbba349a301", "02b31bc69e80f0147d778175490d273a0cf8a25f722b2ef78acd19e580fcaebacf"], "sequence": 4294967294, "scriptSig": {"hex": "1600145b50b5f149ad680ccdc9dce7794f1499007bc6c8", "asm": "00145b50b5f149ad680ccdc9dce7794f1499007bc6c8"}, "vout": 1, "txid": "2f19456d5f406812d863fd4d34a2ccd8ce4c8aaba6d683f2aa81a5f90d57c1ef"}], "txid": "c0b98583715d91ced3a624633496f27617da3dafde3ef1bfba190fcb1f878ab4", "blocktime": 1537873282, "version": 2, "confirmations": 11485, "time": 1537873282, "locktime": 0, "vsize": 440, "size": 762}