{"hash": "4fc3232ca1acf9cf66170d66b2d349f54e0968a4fc3be1a687a3ed14ec8f69aa", "blockhash": "0000000000000000001f0ddff1eddb255c1121bcd4da4f1bc9a0da00cae72433", "vout": [{"scriptPubKey": {"reqSigs": 1, "hex": "76a914f57f419c8a6b7bbe194dec6b4edbbf602108f75c88ac", "addresses": ["1PP4zvQfwjUutfjaUf4x2VneH5b5k7DSfV"], "asm": "OP_DUP OP_HASH160 f57f419c8a6b7bbe194dec6b4edbbf602108f75c OP_EQUALVERIFY OP_CHECKSIG", "type": "pubkeyhash"}, "value": 0.00810055, "n": 0}, {"scriptPubKey": {"reqSigs": 1, "hex": "a914ff5f4348287fe00e43d94aa58608df26d199f22c87", "addresses": ["3QyJMSKE3CCH6V87XZKGrYc4vKk6GpGzY4"], "asm": "OP_HASH160 ff5f4348287fe00e43d94aa58608df26d199f22c OP_EQUAL", "type": "scripthash"}, "value": 3.88240095, "n": 1}], "hex": "02000000000101b51ba62409eee643a281e6d30d5c18dffba0b2b975d716b83ca9457ae745c8670100000017160014df931f9381bac0f868552c163c2b78497f22137afdffffff02475c0c00000000001976a914f57f419c8a6b7bbe194dec6b4edbbf602108f75c88acdf1224170000000017a914ff5f4348287fe00e43d94aa58608df26d199f22c8702483045022100ec3948003cce63d596e6d912f28fb513f6b799dab29cbb36dd72663df98e9149022015f9c473cf7615d8eeb049750e981306e97631c79f598321431af1a8defa7b93012103d4ffcae801dd21f6adc8002f520d1079622fd9db5d18b6b95a5496a56fb8841510490800", "vin": [{"txinwitness": ["3045022100ec3948003cce63d596e6d912f28fb513f6b799dab29cbb36dd72663df98e9149022015f9c473cf7615d8eeb049750e981306e97631c79f598321431af1a8defa7b9301", "03d4ffcae801dd21f6adc8002f520d1079622fd9db5d18b6b95a5496a56fb88415"], "sequence": 4294967293, "scriptSig": {"hex": "160014df931f9381bac0f868552c163c2b78497f22137a", "asm": "0014df931f9381bac0f868552c163c2b78497f22137a"}, "vout": 1, "txid": "67c845e77a45a93cb816d775b9b2a0fbdf185c0dd3e681a243e6ee0924a61bb5"}], "txid": "c0c27e98d6127ed65c575759cc56a2bbeed54def6f985f3212159fba8a9ebfb1", "blocktime": 1537872018, "version": 2, "confirmations": 11489, "time": 1537872018, "locktime": 542992, "vsize": 168, "size": 250}