{"hash": "c0c416098ab4a313539ac2a17f90cc39e2b93b6c638fa89bf85a6bffb5b5ed8d", "blockhash": "0000000000000000000dcc0f55137456b1a82d3642486a52398922ac4d620174", "vout": [{"scriptPubKey": {"reqSigs": 1, "hex": "a914638dd8fc79fdfbabb809ccb1f1d948e024d5865f87", "addresses": ["3AmQkH9NrkaYUSs4WHxdPCoxXTabe9Cdir"], "asm": "OP_HASH160 638dd8fc79fdfbabb809ccb1f1d948e024d5865f OP_EQUAL", "type": "scripthash"}, "value": 0.00233775, "n": 0}, {"scriptPubKey": {"reqSigs": 1, "hex": "76a914e328378b56e37156275a2ba6b4d84e328f1300b188ac", "addresses": ["1Mi6ZsSCw1QcuE2VAbc7gNrvRr3LgXfHn9"], "asm": "OP_DUP OP_HASH160 e328378b56e37156275a2ba6b4d84e328f1300b1 OP_EQUALVERIFY OP_CHECKSIG", "type": "pubkeyhash"}, "value": 0.01330048, "n": 1}], "hex": "0100000001a78aa63ba881818901847e84124097e9862e0ddd1ae19eed9745de784957efb1010000006a47304402204fe0450fc96acfe6664a564341ba5a55d8c53cc17a03ac539c17cec9a00d633702205e9b29f5119236cc5e0c794aa86a09cb03e5ea80b38b4e34096f5804b5f98a28012103e12a6615e0606b9f780da9f01d8edaf60172f72c7cf7b4e96da4199a3985de0dffffffff022f9103000000000017a914638dd8fc79fdfbabb809ccb1f1d948e024d5865f87804b1400000000001976a914e328378b56e37156275a2ba6b4d84e328f1300b188ac00000000", "vin": [{"sequence": 4294967295, "scriptSig": {"hex": "47304402204fe0450fc96acfe6664a564341ba5a55d8c53cc17a03ac539c17cec9a00d633702205e9b29f5119236cc5e0c794aa86a09cb03e5ea80b38b4e34096f5804b5f98a28012103e12a6615e0606b9f780da9f01d8edaf60172f72c7cf7b4e96da4199a3985de0d", "asm": "304402204fe0450fc96acfe6664a564341ba5a55d8c53cc17a03ac539c17cec9a00d633702205e9b29f5119236cc5e0c794aa86a09cb03e5ea80b38b4e34096f5804b5f98a28[ALL] 03e12a6615e0606b9f780da9f01d8edaf60172f72c7cf7b4e96da4199a3985de0d"}, "vout": 1, "txid": "b1ef574978de4597ed9ee11add0d2e86e9974012847e8401898181a83ba68aa7"}], "txid": "c0c416098ab4a313539ac2a17f90cc39e2b93b6c638fa89bf85a6bffb5b5ed8d", "blocktime": 1537870268, "version": 1, "confirmations": 11518, "time": 1537870268, "locktime": 0, "vsize": 223, "size": 223}