{"hash": "0c1ec889c66fad0614d4d209773d5e262279a7a6e4560f009645e3ce1f203ce0", "blockhash": "0000000000000000000e13cef7c366c0283d82e591d1acd082e914b08063cdf1", "vout": [{"scriptPubKey": {"reqSigs": 1, "hex": "76a9141ca88960b4cb902d1a9fbffb05b134015f2bd79788ac", "addresses": ["13cXpW6orQXfjVLjyGLJQknXNonEfhLGWY"], "asm": "OP_DUP OP_HASH160 1ca88960b4cb902d1a9fbffb05b134015f2bd797 OP_EQUALVERIFY OP_CHECKSIG", "type": "pubkeyhash"}, "value": 0.0004543, "n": 0}, {"scriptPubKey": {"reqSigs": 1, "hex": "0014a1aac8210b98561de11789e1c3216e34c8bd16f1", "addresses": ["bc1q5x4vsggtnptpmcgh38suxgtwxnyt69h36gexlp"], "asm": "0 a1aac8210b98561de11789e1c3216e34c8bd16f1", "type": "witness_v0_keyhash"}, "value": 1.126e-05, "n": 1}], "hex": "01000000000101977c948983a8b3d7a80452c25f32c616160e54adfe93b42cd14ca195a01d18510000000017160014b12b772032033e4695faf96d94ab44dba0592d35ffffffff0276b10000000000001976a9141ca88960b4cb902d1a9fbffb05b134015f2bd79788ac6604000000000000160014a1aac8210b98561de11789e1c3216e34c8bd16f102473044022031123c5b692675e10a6bb72ee71aab5c6a34de5e8790cdc7adef45be56dfb71d022075d69d368e93ad03027cbea00e100eec3b4f210ede45ae6f01b0b34021e6e27801210323c41bbcde23523a3e5283fd41f1886a71781887ddb8ac972af9b639b12e06bb00000000", "vin": [{"txinwitness": ["3044022031123c5b692675e10a6bb72ee71aab5c6a34de5e8790cdc7adef45be56dfb71d022075d69d368e93ad03027cbea00e100eec3b4f210ede45ae6f01b0b34021e6e27801", "0323c41bbcde23523a3e5283fd41f1886a71781887ddb8ac972af9b639b12e06bb"], "sequence": 4294967295, "scriptSig": {"hex": "160014b12b772032033e4695faf96d94ab44dba0592d35", "asm": "0014b12b772032033e4695faf96d94ab44dba0592d35"}, "vout": 0, "txid": "51181da095a14cd12cb493fead540e1616c6325fc25204a8d7b3a88389947c97"}], "txid": "c0c72b7a5219f76f057960d092aee7580bb88f2f76e647eda09a28e65f62cadd", "blocktime": 1537871767, "version": 1, "confirmations": 11495, "time": 1537871767, "locktime": 0, "vsize": 167, "size": 248}