{"hash": "bc4c1f0144068d11cf16cdaa2e0ad357a9e52561def37bea313e373b364727f0", "blockhash": "0000000000000000001e0dab787dd257d1dbfcb92a98c2207d5e1078be1f4165", "vout": [{"scriptPubKey": {"reqSigs": 1, "hex": "a914d9356ebda9b399044120fc67f1a75117346d8bc487", "addresses": ["3MVWZjQ3ZyamP6Sam1JKzGo3wZDc2544TY"], "asm": "OP_HASH160 d9356ebda9b399044120fc67f1a75117346d8bc4 OP_EQUAL", "type": "scripthash"}, "value": 0.25310773, "n": 0}, {"scriptPubKey": {"reqSigs": 1, "hex": "a914763561e7a073da5ba1565f948adef95d9901f3a087", "addresses": ["3CU3cFqvmVoVRCqn4VhSMeVLnSmQF2qHGb"], "asm": "OP_HASH160 763561e7a073da5ba1565f948adef95d9901f3a0 OP_EQUAL", "type": "scripthash"}, "value": 8.00185477, "n": 1}], "hex": "010000000001092f2d2c6a502112af60efeaa3547dad3b124962ce8b3480c1aeb5e8e7c9ff4eee4f000000fc0047304402203878ca0519332a4e17a501f68d353174cdd0bf9deaa9505fdaf122da207baf17022029cba259385768e4731dcc9ac0d8e2f2bf63c2427c14e86b14c3f77cd96cdb6b0147304402205c2f62e18c8d138bca4a6f06f07fcd37471ebc392fd4de25e4cbbc96b37f7d8702204895613c265ae0c88e3bd37399b5be9db39d78b4d802e498b0a574e2e9d7d12b014c695221025fdc79cce327eb1de08606c6a9c2a2d8bd8941d67e895611d945ce39d1a23de3210245b23ef9b2db9fb81564e1cbc317bb52c0013701ec258e96817b3c53e246866121021f0613a6780ab7e3c206a8c3685611110b3c9d12ffcccab6a188d815eeab166053aeffffffff2f2d2c6a502112af60efeaa3547dad3b124962ce8b3480c1aeb5e8e7c9ff4eee10000000fdfe0000483045022100e9aec01bc7db114572674e9efdf844c3375a1c2610eaa3da62c31f8cdd68bce702207368a535e831afe66aa9bc798b7fc49235249717d555097d665e65c334844f2a01483045022100896613671e9f56ae6c735cb0fb93183919ea3d06c62d55c0f33a8b961289036a02204e08cf18ca2a2a412a629c1e7ebf64403ceca58459a7e78d02ba8da4eec8f29f014c69522102a7362ea01519519e49fd7a5a397ec0107a2a77275b02358ed44ce05c9a1e0f9921033358d2cfb4d8106b30f1a05f282662548b2cd514f73b6813b383ad5c5b256b702102c0d227931fb3f4783b634b40e6d61e71358475df69370ea1483a56c206bf4db053aeffffffff4ce53bcb123867430b9e818afb49ab5985c8872a44c205c01f6b3f141683b6d001000000232200206515fc1bbbc79949d95a915639340df48c17d56cf6aac6e5ac81552d3e39ed4fffffffff28044fa41eefff68706065d4d1c12e03fb81874382040baeac2d1f5f8e2442bf00000000232200206d6d08e04fe4a98a768a8294de04fd138ac6b3b75b9fa8e8308854f8cdd99c3fffffffffc1840566f60ac2e3892a152865fa035271e11b9c3d1170015a72358d0809fcdc00000000fc00473044022070171beb2b07df501813bde9dfc8241f69052b5a49f1c5f8e4d812fc7e091e5b02207dab877abfe5cc97d3bce48a1e524a63d46db9e069641d0d052af95c43f751df01473044022060f8da8e5c8a215c654eee53e00cda04fb368d2c5857991fcd094a9b05db22d302203a2075d1c16317abcbee78daeac850ae17237fda4c96a0fd7fb512ef27cc0b74014c695221020984702de533f9684d548fe9b275933c4e292b6cd48a0e38d08d82cb3c099d1a2103ff9a64bb95593e9cbcda6310c7f375341bcb59c0b60ef6fe9a0f5991774dc3632103f25550ee30a16ad32d338ea7f7f5c92fb2bf1af373cfac2d8f17287774ab863b53aeffffffff3fd06c7e484edac3afff2f9eee64915953a5a3900d6a35a8281dcb839b86dba201000000fdfe0000483045022100b9c3973feeca989de71e80e540f0e6f23ba05cd52cb717c992ae9a8ca52deee102207bdd3ea6631510d699d0aef235e683e0a652d64a0c58509b6d75f060dd9b514e01483045022100939ee2fb6066c63dc659e1d89ad09a1c1f542828312beffb5eb571df51235a19022011e0209b0d2f33268c883c69280dd30d9738e2cd7f481196429d8df4b6b8d449014c695221033ad764644bff457d5afe378497ea5bfb6183de8bc897e8cc089250c85c23258d21031b3dfd7f1ad999c90e027fe3b1785bcf7ceb29f4d11e7249c800aaa6c7ce715f210348d2cd830f0c91bee66c433dc3d4a3e737966dce44abf2f447062770d8b1366353aefffffffffcfc4157389e88448a812f5f62dbec590854a9401ae6ade7b9acb60e1d4004e726000000fc004730440220068a1d9fa302f7a67f6ffd66095a83b03854d7fe5d066bf5d119ab83274cbf2a022047039b55c0495fc58d9ad55d7f243067993fa16ba0ababa5f6e3c41e0b36034f0147304402206db795f93c96aacc888b6498f482aa125b5c3acf8e1dd5bcbb84d4a4af7c091502203b3617f21091d784ab924b123aacc91115bf0dddb769aa793d30e750f84b627e014c6952210207b5e29f41527c2281169f98505f4974513ffbb3e1317b2aed35f8b260b9881f21022b3de1871bcad995aaea7e45df11a8e25f2ccedc83254b0146dd1b4c802cabd2210362b9a93aa51faa31f1a1e9d760a1cdb4cae67b63a7a23f614f34215eb570e43f53aeffffffff5be5fd7a3ead9e8c20b15a4849b1184b748c110191f217accdcd602db36ff8ed000000002322002072a56b36174eec39d506375e271e8cdd5d27d11ba23d5511d10bc47dd98c6416ffffffff39452d7a2573753e1ea5816f0c8913bbff9149b930a5d18e03d5955e595764110000000023220020e4bc57264df821caf0c6a9afdebda2bfd9f3f735ec613a24db74687848ae19a3ffffffff02353682010000000017a914d9356ebda9b399044120fc67f1a75117346d8bc48785dcb12f0000000017a914763561e7a073da5ba1565f948adef95d9901f3a08700000400483045022100b03f054e7dd7a3ed80ddd66b664b976e199bdf3346a2bb3d40010e068254fa2b02204e2825a7208da3f1ae771babbf8418eeda33e03a8c5021384bc0b59b80cc30a001473044022016e3e04f994d8253e40e7d4ca92e9b2089265cd0f95bba5f7c485e7eb8c07cb102200a6bca28881fb21cca49975b6a34b10379fe5be7aad5bf9233b1a6bc4c387eb20169522102d83d2cb10aa198d06f10f91099986e4b52d363db2204e0b5891e4e36423bc2f721023f7b8267751b26ce11f8571c362c527c738acddfd1b9b72c109015baf7f6261221026a445d1076886b6ed12e9f1c8e7bb6ba4aa60212bcab27ee9cd7bff32340015753ae0400473044022076005f0e9409c42c7fc2a6ba0ae67bd5cf9ba6f40477cff70f6bfe321af26cde022074b48fb8297cbc9642d7772c35b84a522c2a44b4578198d37d312db93929c71001483045022100f11f1b4f154cfdc670a1949c83d72c4ebf213d6a6da4113f5585e0e0dbee4629022026fd41f12587e4569b1c9de0a9a765e895076b9f33bc34362fe280549213e16b016952210329d13fe9c9ec9f0528f7bcf749580da09f34acc2e948ce6cbe22c664b4a24e6c2102d965c863b25082194d231149e2ee9f6035a3b8f2a5cb4da681ff6d556da21c022103834e89efcfff14cd5323e14fb6d6e00ae3803c2676b6e174bd359e742fa4ee9453ae000000040047304402204d237f7f205477613f8471e4c78e3b9e5acea0f89e4e5ca309a38f6b945a1dff02201e5f2e85962d13fbf20edebe99c4f3d3bb69ec417c4f7665854a17c730bc7b1e01473044022051844657bd7126e8c41eebe25e3ba8b7df58e44ab9033b543b0c55dbec17ec2e0220501cde7a565353810a8a878e0ea52c858908ad55da31d5199f8669e0d4f2c05c0169522103ee55cce2b46d08e3f28bb6378710ca9535d35ff6fffaca177997f87461a682632102d6cea990b7a071b2c0ddb85224e4dee458bb0063f2acf5e0ca2018de5697a6552103a57457611b8c5bac3b2145d062d873ec53c27ef910564a0139bfc1b6ba75916753ae04004730440220159297b7c5de2d75decb4579e316c1fcc8817af2e5c85e2bb932e571bae8a44002201b2118198522969522c0d93cf03c749f343859e396f0318f001f0773111fb3760147304402205a43a01a728130e5bb49bb9cefb111d11d9c0fa5084fd8438cd0dd23b5fc5b430220572addbf2bf6425da95e00c3573d9be2304adcab046b45866fe2ab85a012a57a0169522103d669b62142e911fe88d68561bc7acef88fc10f1d641647e5e50f652a7986cd872102f3aff8ed108840d6115c028a126af80b844777fef9b8bad0b31cf0cb21b77f2221036a7021ebdc02a194f4c368f47ab087846f7f6ddb6d5262950b02511a7cb3853153ae00000000", "vin": [{"sequence": 4294967295, "scriptSig": {"hex": "0047304402203878ca0519332a4e17a501f68d353174cdd0bf9deaa9505fdaf122da207baf17022029cba259385768e4731dcc9ac0d8e2f2bf63c2427c14e86b14c3f77cd96cdb6b0147304402205c2f62e18c8d138bca4a6f06f07fcd37471ebc392fd4de25e4cbbc96b37f7d8702204895613c265ae0c88e3bd37399b5be9db39d78b4d802e498b0a574e2e9d7d12b014c695221025fdc79cce327eb1de08606c6a9c2a2d8bd8941d67e895611d945ce39d1a23de3210245b23ef9b2db9fb81564e1cbc317bb52c0013701ec258e96817b3c53e246866121021f0613a6780ab7e3c206a8c3685611110b3c9d12ffcccab6a188d815eeab166053ae", "asm": "0 304402203878ca0519332a4e17a501f68d353174cdd0bf9deaa9505fdaf122da207baf17022029cba259385768e4731dcc9ac0d8e2f2bf63c2427c14e86b14c3f77cd96cdb6b[ALL] 304402205c2f62e18c8d138bca4a6f06f07fcd37471ebc392fd4de25e4cbbc96b37f7d8702204895613c265ae0c88e3bd37399b5be9db39d78b4d802e498b0a574e2e9d7d12b[ALL] 5221025fdc79cce327eb1de08606c6a9c2a2d8bd8941d67e895611d945ce39d1a23de3210245b23ef9b2db9fb81564e1cbc317bb52c0013701ec258e96817b3c53e246866121021f0613a6780ab7e3c206a8c3685611110b3c9d12ffcccab6a188d815eeab166053ae"}, "vout": 79, "txid": "ee4effc9e7e8b5aec180348bce6249123bad7d54a3eaef60af1221506a2c2d2f"}, {"sequence": 4294967295, "scriptSig": {"hex": "00483045022100e9aec01bc7db114572674e9efdf844c3375a1c2610eaa3da62c31f8cdd68bce702207368a535e831afe66aa9bc798b7fc49235249717d555097d665e65c334844f2a01483045022100896613671e9f56ae6c735cb0fb93183919ea3d06c62d55c0f33a8b961289036a02204e08cf18ca2a2a412a629c1e7ebf64403ceca58459a7e78d02ba8da4eec8f29f014c69522102a7362ea01519519e49fd7a5a397ec0107a2a77275b02358ed44ce05c9a1e0f9921033358d2cfb4d8106b30f1a05f282662548b2cd514f73b6813b383ad5c5b256b702102c0d227931fb3f4783b634b40e6d61e71358475df69370ea1483a56c206bf4db053ae", "asm": "0 3045022100e9aec01bc7db114572674e9efdf844c3375a1c2610eaa3da62c31f8cdd68bce702207368a535e831afe66aa9bc798b7fc49235249717d555097d665e65c334844f2a[ALL] 3045022100896613671e9f56ae6c735cb0fb93183919ea3d06c62d55c0f33a8b961289036a02204e08cf18ca2a2a412a629c1e7ebf64403ceca58459a7e78d02ba8da4eec8f29f[ALL] 522102a7362ea01519519e49fd7a5a397ec0107a2a77275b02358ed44ce05c9a1e0f9921033358d2cfb4d8106b30f1a05f282662548b2cd514f73b6813b383ad5c5b256b702102c0d227931fb3f4783b634b40e6d61e71358475df69370ea1483a56c206bf4db053ae"}, "vout": 16, "txid": "ee4effc9e7e8b5aec180348bce6249123bad7d54a3eaef60af1221506a2c2d2f"}, {"txinwitness": ["", "3045022100b03f054e7dd7a3ed80ddd66b664b976e199bdf3346a2bb3d40010e068254fa2b02204e2825a7208da3f1ae771babbf8418eeda33e03a8c5021384bc0b59b80cc30a001", "3044022016e3e04f994d8253e40e7d4ca92e9b2089265cd0f95bba5f7c485e7eb8c07cb102200a6bca28881fb21cca49975b6a34b10379fe5be7aad5bf9233b1a6bc4c387eb201", "522102d83d2cb10aa198d06f10f91099986e4b52d363db2204e0b5891e4e36423bc2f721023f7b8267751b26ce11f8571c362c527c738acddfd1b9b72c109015baf7f6261221026a445d1076886b6ed12e9f1c8e7bb6ba4aa60212bcab27ee9cd7bff32340015753ae"], "sequence": 4294967295, "scriptSig": {"hex": "2200206515fc1bbbc79949d95a915639340df48c17d56cf6aac6e5ac81552d3e39ed4f", "asm": "00206515fc1bbbc79949d95a915639340df48c17d56cf6aac6e5ac81552d3e39ed4f"}, "vout": 1, "txid": "d0b68316143f6b1fc005c2442a87c88559ab49fb8a819e0b43673812cb3be54c"}, {"txinwitness": ["", "3044022076005f0e9409c42c7fc2a6ba0ae67bd5cf9ba6f40477cff70f6bfe321af26cde022074b48fb8297cbc9642d7772c35b84a522c2a44b4578198d37d312db93929c71001", "3045022100f11f1b4f154cfdc670a1949c83d72c4ebf213d6a6da4113f5585e0e0dbee4629022026fd41f12587e4569b1c9de0a9a765e895076b9f33bc34362fe280549213e16b01", "52210329d13fe9c9ec9f0528f7bcf749580da09f34acc2e948ce6cbe22c664b4a24e6c2102d965c863b25082194d231149e2ee9f6035a3b8f2a5cb4da681ff6d556da21c022103834e89efcfff14cd5323e14fb6d6e00ae3803c2676b6e174bd359e742fa4ee9453ae"], "sequence": 4294967295, "scriptSig": {"hex": "2200206d6d08e04fe4a98a768a8294de04fd138ac6b3b75b9fa8e8308854f8cdd99c3f", "asm": "00206d6d08e04fe4a98a768a8294de04fd138ac6b3b75b9fa8e8308854f8cdd99c3f"}, "vout": 0, "txid": "bf42248e5f1f2dacae0b0482438781fb032ec1d1d465607068ffef1ea44f0428"}, {"sequence": 4294967295, "scriptSig": {"hex": "00473044022070171beb2b07df501813bde9dfc8241f69052b5a49f1c5f8e4d812fc7e091e5b02207dab877abfe5cc97d3bce48a1e524a63d46db9e069641d0d052af95c43f751df01473044022060f8da8e5c8a215c654eee53e00cda04fb368d2c5857991fcd094a9b05db22d302203a2075d1c16317abcbee78daeac850ae17237fda4c96a0fd7fb512ef27cc0b74014c695221020984702de533f9684d548fe9b275933c4e292b6cd48a0e38d08d82cb3c099d1a2103ff9a64bb95593e9cbcda6310c7f375341bcb59c0b60ef6fe9a0f5991774dc3632103f25550ee30a16ad32d338ea7f7f5c92fb2bf1af373cfac2d8f17287774ab863b53ae", "asm": "0 3044022070171beb2b07df501813bde9dfc8241f69052b5a49f1c5f8e4d812fc7e091e5b02207dab877abfe5cc97d3bce48a1e524a63d46db9e069641d0d052af95c43f751df[ALL] 3044022060f8da8e5c8a215c654eee53e00cda04fb368d2c5857991fcd094a9b05db22d302203a2075d1c16317abcbee78daeac850ae17237fda4c96a0fd7fb512ef27cc0b74[ALL] 5221020984702de533f9684d548fe9b275933c4e292b6cd48a0e38d08d82cb3c099d1a2103ff9a64bb95593e9cbcda6310c7f375341bcb59c0b60ef6fe9a0f5991774dc3632103f25550ee30a16ad32d338ea7f7f5c92fb2bf1af373cfac2d8f17287774ab863b53ae"}, "vout": 0, "txid": "dcfc09088d35725a0170113d9c1be1715203fa6528152a89e3c20af6660584c1"}, {"sequence": 4294967295, "scriptSig": {"hex": "00483045022100b9c3973feeca989de71e80e540f0e6f23ba05cd52cb717c992ae9a8ca52deee102207bdd3ea6631510d699d0aef235e683e0a652d64a0c58509b6d75f060dd9b514e01483045022100939ee2fb6066c63dc659e1d89ad09a1c1f542828312beffb5eb571df51235a19022011e0209b0d2f33268c883c69280dd30d9738e2cd7f481196429d8df4b6b8d449014c695221033ad764644bff457d5afe378497ea5bfb6183de8bc897e8cc089250c85c23258d21031b3dfd7f1ad999c90e027fe3b1785bcf7ceb29f4d11e7249c800aaa6c7ce715f210348d2cd830f0c91bee66c433dc3d4a3e737966dce44abf2f447062770d8b1366353ae", "asm": "0 3045022100b9c3973feeca989de71e80e540f0e6f23ba05cd52cb717c992ae9a8ca52deee102207bdd3ea6631510d699d0aef235e683e0a652d64a0c58509b6d75f060dd9b514e[ALL] 3045022100939ee2fb6066c63dc659e1d89ad09a1c1f542828312beffb5eb571df51235a19022011e0209b0d2f33268c883c69280dd30d9738e2cd7f481196429d8df4b6b8d449[ALL] 5221033ad764644bff457d5afe378497ea5bfb6183de8bc897e8cc089250c85c23258d21031b3dfd7f1ad999c90e027fe3b1785bcf7ceb29f4d11e7249c800aaa6c7ce715f210348d2cd830f0c91bee66c433dc3d4a3e737966dce44abf2f447062770d8b1366353ae"}, "vout": 1, "txid": "a2db869b83cb1d28a8356a0d90a3a553599164ee9e2fffafc3da4e487e6cd03f"}, {"sequence": 4294967295, "scriptSig": {"hex": "004730440220068a1d9fa302f7a67f6ffd66095a83b03854d7fe5d066bf5d119ab83274cbf2a022047039b55c0495fc58d9ad55d7f243067993fa16ba0ababa5f6e3c41e0b36034f0147304402206db795f93c96aacc888b6498f482aa125b5c3acf8e1dd5bcbb84d4a4af7c091502203b3617f21091d784ab924b123aacc91115bf0dddb769aa793d30e750f84b627e014c6952210207b5e29f41527c2281169f98505f4974513ffbb3e1317b2aed35f8b260b9881f21022b3de1871bcad995aaea7e45df11a8e25f2ccedc83254b0146dd1b4c802cabd2210362b9a93aa51faa31f1a1e9d760a1cdb4cae67b63a7a23f614f34215eb570e43f53ae", "asm": "0 30440220068a1d9fa302f7a67f6ffd66095a83b03854d7fe5d066bf5d119ab83274cbf2a022047039b55c0495fc58d9ad55d7f243067993fa16ba0ababa5f6e3c41e0b36034f[ALL] 304402206db795f93c96aacc888b6498f482aa125b5c3acf8e1dd5bcbb84d4a4af7c091502203b3617f21091d784ab924b123aacc91115bf0dddb769aa793d30e750f84b627e[ALL] 52210207b5e29f41527c2281169f98505f4974513ffbb3e1317b2aed35f8b260b9881f21022b3de1871bcad995aaea7e45df11a8e25f2ccedc83254b0146dd1b4c802cabd2210362b9a93aa51faa31f1a1e9d760a1cdb4cae67b63a7a23f614f34215eb570e43f53ae"}, "vout": 38, "txid": "e704401d0eb6acb9e7ade61a40a9540859ecdb625f2f818a44889e385741fcfc"}, {"txinwitness": ["", "304402204d237f7f205477613f8471e4c78e3b9e5acea0f89e4e5ca309a38f6b945a1dff02201e5f2e85962d13fbf20edebe99c4f3d3bb69ec417c4f7665854a17c730bc7b1e01", "3044022051844657bd7126e8c41eebe25e3ba8b7df58e44ab9033b543b0c55dbec17ec2e0220501cde7a565353810a8a878e0ea52c858908ad55da31d5199f8669e0d4f2c05c01", "522103ee55cce2b46d08e3f28bb6378710ca9535d35ff6fffaca177997f87461a682632102d6cea990b7a071b2c0ddb85224e4dee458bb0063f2acf5e0ca2018de5697a6552103a57457611b8c5bac3b2145d062d873ec53c27ef910564a0139bfc1b6ba75916753ae"], "sequence": 4294967295, "scriptSig": {"hex": "22002072a56b36174eec39d506375e271e8cdd5d27d11ba23d5511d10bc47dd98c6416", "asm": "002072a56b36174eec39d506375e271e8cdd5d27d11ba23d5511d10bc47dd98c6416"}, "vout": 0, "txid": "edf86fb32d60cdcdac17f29101118c744b18b149485ab1208c9ead3e7afde55b"}, {"txinwitness": ["", "30440220159297b7c5de2d75decb4579e316c1fcc8817af2e5c85e2bb932e571bae8a44002201b2118198522969522c0d93cf03c749f343859e396f0318f001f0773111fb37601", "304402205a43a01a728130e5bb49bb9cefb111d11d9c0fa5084fd8438cd0dd23b5fc5b430220572addbf2bf6425da95e00c3573d9be2304adcab046b45866fe2ab85a012a57a01", "522103d669b62142e911fe88d68561bc7acef88fc10f1d641647e5e50f652a7986cd872102f3aff8ed108840d6115c028a126af80b844777fef9b8bad0b31cf0cb21b77f2221036a7021ebdc02a194f4c368f47ab087846f7f6ddb6d5262950b02511a7cb3853153ae"], "sequence": 4294967295, "scriptSig": {"hex": "220020e4bc57264df821caf0c6a9afdebda2bfd9f3f735ec613a24db74687848ae19a3", "asm": "0020e4bc57264df821caf0c6a9afdebda2bfd9f3f735ec613a24db74687848ae19a3"}, "vout": 0, "txid": "116457595e95d5038ed1a530b94991ffbb13890c6f81a51e3e7573257a2d4539"}], "txid": "c0cb925eec2421e65462bb1fc20650782246b367645996cd7616d5cff21b2951", "blocktime": 1537872475, "version": 1, "confirmations": 11487, "time": 1537872475, "locktime": 0, "vsize": 2106, "size": 2868}