{"hash": "c0d1317f765b79e8908187a86f12b547eaee2d139faaef64ad2e7bf17549431d", "blockhash": "00000000000000000004ffacab907a6b429b9a5745fa0b75af4234bf69dd7176", "vout": [{"scriptPubKey": {"reqSigs": 1, "hex": "76a9143f14958792e4fd2ebe527b9433dd4a69ad81d83388ac", "addresses": ["16kYEJ2rMNnkgr33zybH9k4EuL8CFzmcfw"], "asm": "OP_DUP OP_HASH160 3f14958792e4fd2ebe527b9433dd4a69ad81d833 OP_EQUALVERIFY OP_CHECKSIG", "type": "pubkeyhash"}, "value": 0.01871372, "n": 0}, {"scriptPubKey": {"reqSigs": 1, "hex": "76a914059a959d1ed9760f4086d8d1e113f283aba9408188ac", "addresses": ["1WdZg4r2K9t5B83chFL9Dg9xgUcqTsiXp"], "asm": "OP_DUP OP_HASH160 059a959d1ed9760f4086d8d1e113f283aba94081 OP_EQUALVERIFY OP_CHECKSIG", "type": "pubkeyhash"}, "value": 5.46e-06, "n": 1}, {"scriptPubKey": {"type": "nulldata", "hex": "6a146f6d6e69000000000000001f00000010cb94bfc0", "asm": "OP_RETURN 6f6d6e69000000000000001f00000010cb94bfc0"}, "value": 0.0, "n": 2}], "hex": "0100000002fcd5f9c48b5f64499c77e720382644c723320591d29f74fd081ca3fa7f08d8bd010000008b483045022100a21a948379fe31307c1e79424d37ce28f85477c29b4a19575c30ad73219ae1d8022047fca565ddcaa718d65565f7c380aebd8d1a618e3283d454713629fb2eb2906601410480bba7fc09be387021327eec387c089567b4ffb336cf805f285b80bc6a3be7ef6d257b88f6930e3090ad71de39cc091a00e4ba7e4a89eb0f670f9f5711159fbfffffffff8bf37816ece2374326b1b1051c853ad8e6ce2040208ca218392d925cd7e078cf000000008b483045022100a99cdf94703979a8d5f2cd5058afe85b366612d6fdee57a6c40da482fed99e2e02204cf2698f6a7e64350ff8d8ab2cc5ee0a215a03e972570f3c9e4bb4e0480113bf01410480bba7fc09be387021327eec387c089567b4ffb336cf805f285b80bc6a3be7ef6d257b88f6930e3090ad71de39cc091a00e4ba7e4a89eb0f670f9f5711159fbfffffffff030c8e1c00000000001976a9143f14958792e4fd2ebe527b9433dd4a69ad81d83388ac22020000000000001976a914059a959d1ed9760f4086d8d1e113f283aba9408188ac0000000000000000166a146f6d6e69000000000000001f00000010cb94bfc000000000", "vin": [{"sequence": 4294967295, "scriptSig": {"hex": "483045022100a21a948379fe31307c1e79424d37ce28f85477c29b4a19575c30ad73219ae1d8022047fca565ddcaa718d65565f7c380aebd8d1a618e3283d454713629fb2eb2906601410480bba7fc09be387021327eec387c089567b4ffb336cf805f285b80bc6a3be7ef6d257b88f6930e3090ad71de39cc091a00e4ba7e4a89eb0f670f9f5711159fbf", "asm": "3045022100a21a948379fe31307c1e79424d37ce28f85477c29b4a19575c30ad73219ae1d8022047fca565ddcaa718d65565f7c380aebd8d1a618e3283d454713629fb2eb29066[ALL] 0480bba7fc09be387021327eec387c089567b4ffb336cf805f285b80bc6a3be7ef6d257b88f6930e3090ad71de39cc091a00e4ba7e4a89eb0f670f9f5711159fbf"}, "vout": 1, "txid": "bdd8087ffaa31c08fd749fd291053223c744263820e7779c49645f8bc4f9d5fc"}, {"sequence": 4294967295, "scriptSig": {"hex": "483045022100a99cdf94703979a8d5f2cd5058afe85b366612d6fdee57a6c40da482fed99e2e02204cf2698f6a7e64350ff8d8ab2cc5ee0a215a03e972570f3c9e4bb4e0480113bf01410480bba7fc09be387021327eec387c089567b4ffb336cf805f285b80bc6a3be7ef6d257b88f6930e3090ad71de39cc091a00e4ba7e4a89eb0f670f9f5711159fbf", "asm": "3045022100a99cdf94703979a8d5f2cd5058afe85b366612d6fdee57a6c40da482fed99e2e02204cf2698f6a7e64350ff8d8ab2cc5ee0a215a03e972570f3c9e4bb4e0480113bf[ALL] 0480bba7fc09be387021327eec387c089567b4ffb336cf805f285b80bc6a3be7ef6d257b88f6930e3090ad71de39cc091a00e4ba7e4a89eb0f670f9f5711159fbf"}, "vout": 0, "txid": "cf78e0d75c922d3918a28c204020cee6d83a851c05b1b1264337e2ec1678f38b"}], "txid": "c0d1317f765b79e8908187a86f12b547eaee2d139faaef64ad2e7bf17549431d", "blocktime": 1537875543, "version": 1, "confirmations": 11464, "time": 1537875543, "locktime": 0, "vsize": 469, "size": 469}