{"hash": "b271bc240322e1955b9315b71ab557f15ec236531473ed6a3a88ca327f40ba17", "blockhash": "0000000000000000000baef3f32e3676a92c3b2e5da21b426e4f302fc371ce76", "vout": [{"scriptPubKey": {"reqSigs": 1, "hex": "a914c14ef5c6117574869c8470145063dc6512724aa987", "addresses": ["3KK8vooSNrD76fQM9LKfUB95aV2jZWYKHJ"], "asm": "OP_HASH160 c14ef5c6117574869c8470145063dc6512724aa9 OP_EQUAL", "type": "scripthash"}, "value": 0.15926723, "n": 0}, {"scriptPubKey": {"reqSigs": 1, "hex": "a91470c4afd013e30459c150c2ff2870b642178273e287", "addresses": ["3ByHE4j3134Ue1M5nQu2MBZqi8k3nuzzNo"], "asm": "OP_HASH160 70c4afd013e30459c150c2ff2870b642178273e2 OP_EQUAL", "type": "scripthash"}, "value": 0.0395, "n": 1}], "hex": "020000000001010c9146e7ee8c2ca0ff8fe562f458c8833593cb705ee4dde6ca2e7acc158db3e90000000017160014e987537873d84ef4dce3fb2009c6f77cdef1cf59feffffff02c305f3000000000017a914c14ef5c6117574869c8470145063dc6512724aa987b0453c000000000017a91470c4afd013e30459c150c2ff2870b642178273e28702483045022100da2467a0b84b1dad02f9ed89e4d4e22123c9f88f1b4bbe21abd7793033286ff4022033c9f6e3ab26b198c52c41821294d931935cba50e81cb0dca7b0281b55ec68f3012103e720f26d1fa8079c0f838d1b00752638092ba4a09db05ccd2afc8e66e206ab8017490800", "vin": [{"txinwitness": ["3045022100da2467a0b84b1dad02f9ed89e4d4e22123c9f88f1b4bbe21abd7793033286ff4022033c9f6e3ab26b198c52c41821294d931935cba50e81cb0dca7b0281b55ec68f301", "03e720f26d1fa8079c0f838d1b00752638092ba4a09db05ccd2afc8e66e206ab80"], "sequence": 4294967294, "scriptSig": {"hex": "160014e987537873d84ef4dce3fb2009c6f77cdef1cf59", "asm": "0014e987537873d84ef4dce3fb2009c6f77cdef1cf59"}, "vout": 0, "txid": "e9b38d15cc7a2ecae6dde45e70cb933583c858f462e58fffa02c8ceee746910c"}], "txid": "c0dea440a9f7d398dc927130322a50ac5139fe35b72295ec04743cb6325e4a69", "blocktime": 1537876114, "version": 2, "confirmations": 11459, "time": 1537876114, "locktime": 542999, "vsize": 166, "size": 248}