{"hash": "c0e26351bcec9ee0e388bcae99d98f7184616773f5121e1b8883bb052f0325b3", "blockhash": "0000000000000000000e13cef7c366c0283d82e591d1acd082e914b08063cdf1", "vout": [{"scriptPubKey": {"reqSigs": 1, "hex": "a9145ff749e749bf1e3ae7d5f682c4f6fe71f63c40ed87", "addresses": ["3ASSMgnQD19byQS3VCdJHAXzXHfWDMAb5h"], "asm": "OP_HASH160 5ff749e749bf1e3ae7d5f682c4f6fe71f63c40ed OP_EQUAL", "type": "scripthash"}, "value": 0.001938, "n": 0}, {"scriptPubKey": {"reqSigs": 1, "hex": "76a9141f422973a1c0062ad7da905c7bead7f429da492a88ac", "addresses": ["13rHCxYJXXjKv4kZ9Db7SGJqZ6EnYxjcB3"], "asm": "OP_DUP OP_HASH160 1f422973a1c0062ad7da905c7bead7f429da492a OP_EQUALVERIFY OP_CHECKSIG", "type": "pubkeyhash"}, "value": 2.1344324, "n": 1}], "hex": "01000000018f4ed62ff060e2376057c87d9c31befdf1b2241a43ed82f51e6ee39e8b5cc5ed010000006a47304402202d40adaf842b5369148cbf2a9a1c6c71274cdb5f34bb04732cb1b45a98423b4302201f093036ba6bfb27f4c8a0e30cee06116e5810f5950740845ab8f881777e8e01012102fb3c6b703c444fbfbb24de2668d56bf86789e9469eb238652f300727bc246e22ffffffff0208f502000000000017a9145ff749e749bf1e3ae7d5f682c4f6fe71f63c40ed87a8e2b80c000000001976a9141f422973a1c0062ad7da905c7bead7f429da492a88ac00000000", "vin": [{"sequence": 4294967295, "scriptSig": {"hex": "47304402202d40adaf842b5369148cbf2a9a1c6c71274cdb5f34bb04732cb1b45a98423b4302201f093036ba6bfb27f4c8a0e30cee06116e5810f5950740845ab8f881777e8e01012102fb3c6b703c444fbfbb24de2668d56bf86789e9469eb238652f300727bc246e22", "asm": "304402202d40adaf842b5369148cbf2a9a1c6c71274cdb5f34bb04732cb1b45a98423b4302201f093036ba6bfb27f4c8a0e30cee06116e5810f5950740845ab8f881777e8e01[ALL] 02fb3c6b703c444fbfbb24de2668d56bf86789e9469eb238652f300727bc246e22"}, "vout": 1, "txid": "edc55c8b9ee36e1ef582ed431a24b2f1fdbe319c7dc8576037e260f02fd64e8f"}], "txid": "c0e26351bcec9ee0e388bcae99d98f7184616773f5121e1b8883bb052f0325b3", "blocktime": 1537871767, "version": 1, "confirmations": 11493, "time": 1537871767, "locktime": 0, "vsize": 223, "size": 223}