{"hash": "c0e4239d7c2c13fd5b0cb3f6178fbd65eb6e233b5341cfa0b951f0a91385451c", "blockhash": "00000000000000000004ffacab907a6b429b9a5745fa0b75af4234bf69dd7176", "vout": [{"scriptPubKey": {"reqSigs": 1, "hex": "76a91488c44eb45cc1fd81e207ba4d39436e21278bf41288ac", "addresses": ["1DUA4mbnVmYu3WwcNhSYr9JzQaWK3h6jxn"], "asm": "OP_DUP OP_HASH160 88c44eb45cc1fd81e207ba4d39436e21278bf412 OP_EQUALVERIFY OP_CHECKSIG", "type": "pubkeyhash"}, "value": 0.001, "n": 0}, {"scriptPubKey": {"reqSigs": 1, "hex": "76a914e163d073e054266d0f5e025eebd6100b0c946b5b88ac", "addresses": ["1MYkcNyCtPmxivKoMy5v5VBkv6LuBrgrAy"], "asm": "OP_DUP OP_HASH160 e163d073e054266d0f5e025eebd6100b0c946b5b OP_EQUALVERIFY OP_CHECKSIG", "type": "pubkeyhash"}, "value": 0.08762348, "n": 1}], "hex": "010000000177d3d5f2273f3c372221ec7039d0719b64bc6794e670a8ad76f70f82802fc381010000006b483045022100d21a5fc0a91121dc099365e6cc64107c7730de5246d55d492b0929213e74e62302203364df8990237a4025cd3df81178653b0cd6d33248922d2fd2a4c90f07cb521e0121033387315522fd785dc6a3184e4f2acbd937f90409a105c06583c94e6554220085ffffffff02a0860100000000001976a91488c44eb45cc1fd81e207ba4d39436e21278bf41288acecb38500000000001976a914e163d073e054266d0f5e025eebd6100b0c946b5b88ac00000000", "vin": [{"sequence": 4294967295, "scriptSig": {"hex": "483045022100d21a5fc0a91121dc099365e6cc64107c7730de5246d55d492b0929213e74e62302203364df8990237a4025cd3df81178653b0cd6d33248922d2fd2a4c90f07cb521e0121033387315522fd785dc6a3184e4f2acbd937f90409a105c06583c94e6554220085", "asm": "3045022100d21a5fc0a91121dc099365e6cc64107c7730de5246d55d492b0929213e74e62302203364df8990237a4025cd3df81178653b0cd6d33248922d2fd2a4c90f07cb521e[ALL] 033387315522fd785dc6a3184e4f2acbd937f90409a105c06583c94e6554220085"}, "vout": 1, "txid": "81c32f80820ff776ada870e69467bc649b71d03970ec2122373c3f27f2d5d377"}], "txid": "c0e4239d7c2c13fd5b0cb3f6178fbd65eb6e233b5341cfa0b951f0a91385451c", "blocktime": 1537875543, "version": 1, "confirmations": 11464, "time": 1537875543, "locktime": 0, "vsize": 226, "size": 226}