{"hash": "22bd102c34a7b6b84c047b59515f6cc7e6332e3aeddbe45c8a5a7bd1c33c1692", "blockhash": "0000000000000000000e13cef7c366c0283d82e591d1acd082e914b08063cdf1", "vout": [{"scriptPubKey": {"reqSigs": 1, "hex": "00141b9258832b89fee9ced891424a78a39944147c9e", "addresses": ["bc1qrwf93qet38lwnnkcj9py579rn9zpgly7cy76u0"], "asm": "0 1b9258832b89fee9ced891424a78a39944147c9e", "type": "witness_v0_keyhash"}, "value": 1.52024032, "n": 0}, {"scriptPubKey": {"reqSigs": 1, "hex": "76a9146b5ebae814c1367ae6192bbb211128be2b99cacd88ac", "addresses": ["1AninVMWSj9porUFpBfx2YRAAtWdJZyAcC"], "asm": "OP_DUP OP_HASH160 6b5ebae814c1367ae6192bbb211128be2b99cacd OP_EQUALVERIFY OP_CHECKSIG", "type": "pubkeyhash"}, "value": 0.00800213, "n": 1}], "hex": "01000000000101232d57bd4269d5b12007eb11c81f7debd1376be76c81c95930b53ad2604c7dc50100000000ffffffff02e0b30f09000000001600141b9258832b89fee9ced891424a78a39944147c9ed5350c00000000001976a9146b5ebae814c1367ae6192bbb211128be2b99cacd88ac0247304402202bf3e9357b1937a7c6515ed81842871b47c35387f4150d5834ada1ae02187e0e0220265765a7f171e10bea8d5e396cb132cbf752b880e41fe1e3a583d2be618c6557012103dc245b4c155ebaa0b8b2a25d528645b9bc05179e1042e2b442bd1d53877603d500000000", "vin": [{"txinwitness": ["304402202bf3e9357b1937a7c6515ed81842871b47c35387f4150d5834ada1ae02187e0e0220265765a7f171e10bea8d5e396cb132cbf752b880e41fe1e3a583d2be618c655701", "03dc245b4c155ebaa0b8b2a25d528645b9bc05179e1042e2b442bd1d53877603d5"], "sequence": 4294967295, "scriptSig": {"hex": "", "asm": ""}, "vout": 1, "txid": "c57d4c60d23ab53059c9816ce76b37d1eb7d1fc811eb0720b1d56942bd572d23"}], "txid": "c0e844e68952ffc5f7ff7383c38415387c340a4649f9eeb2f9fbee98777caea6", "blocktime": 1537871767, "version": 1, "confirmations": 11495, "time": 1537871767, "locktime": 0, "vsize": 144, "size": 225}