{"hash": "82a5c1483d54bf0b3f84ecacf83802424b32b4733e55067ed1aa49f6dc5d6250", "blockhash": "0000000000000000000e13cef7c366c0283d82e591d1acd082e914b08063cdf1", "vout": [{"scriptPubKey": {"reqSigs": 1, "hex": "a914e5d81d1f37c85bba18f3dcfc40d8ad3827959d9087", "addresses": ["3NeKZKWswJNY15QWtxSgBD1t6BsckLm6w4"], "asm": "OP_HASH160 e5d81d1f37c85bba18f3dcfc40d8ad3827959d90 OP_EQUAL", "type": "scripthash"}, "value": 0.01533246, "n": 0}, {"scriptPubKey": {"reqSigs": 1, "hex": "001424492d4f53941cbfcaa50a595424d5bef6e1b8b5", "addresses": ["bc1qy3yj6n6njswtlj49pfv4gfx4hmmwrw940h420c"], "asm": "0 24492d4f53941cbfcaa50a595424d5bef6e1b8b5", "type": "witness_v0_keyhash"}, "value": 0.56368146, "n": 1}], "hex": "010000000001011e6d03f96c80bf2a536f04c028a053ba97fd918a92a18e55ff72e02a1dc7018c0100000000ffffffff023e6517000000000017a914e5d81d1f37c85bba18f3dcfc40d8ad3827959d9087121c5c030000000016001424492d4f53941cbfcaa50a595424d5bef6e1b8b502483045022100e79c3e119752e1b47e5977ad07db99ebe60e626ef04e62c5ee511d3a56136388022061051f15bf70d2a07af814bcb1a09c711845ab71a73f49333c20d0f732996fe60121038c57f7a4b6a8d31771abe3bca2bd840c59cae7544a24d629183785340584b46e00000000", "vin": [{"txinwitness": ["3045022100e79c3e119752e1b47e5977ad07db99ebe60e626ef04e62c5ee511d3a56136388022061051f15bf70d2a07af814bcb1a09c711845ab71a73f49333c20d0f732996fe601", "038c57f7a4b6a8d31771abe3bca2bd840c59cae7544a24d629183785340584b46e"], "sequence": 4294967295, "scriptSig": {"hex": "", "asm": ""}, "vout": 1, "txid": "8c01c71d2ae072ff558ea1928a91fd97ba53a028c0046f532abf806cf9036d1e"}], "txid": "c0ec31101c47bb7f2ceefc1e2951a64e5601685dbbe49c79e9be858805a8ec9a", "blocktime": 1537871767, "version": 1, "confirmations": 11495, "time": 1537871767, "locktime": 0, "vsize": 142, "size": 224}