{"hash": "c0efa52cae80659a94137f840fada42f5173aa0228cafc72e7e77d2bc4fd447c", "blockhash": "0000000000000000000e13cef7c366c0283d82e591d1acd082e914b08063cdf1", "vout": [{"scriptPubKey": {"reqSigs": 1, "hex": "76a914e7aa3572128fe2da95142d5642e4d9f29c191eea88ac", "addresses": ["1N7vzdHbv3LJFderywNVuKCsixFrruTYSA"], "asm": "OP_DUP OP_HASH160 e7aa3572128fe2da95142d5642e4d9f29c191eea OP_EQUALVERIFY OP_CHECKSIG", "type": "pubkeyhash"}, "value": 0.00021872, "n": 0}, {"scriptPubKey": {"reqSigs": 1, "hex": "76a9142bdca952b4c5a8d9b820d7ff0fb5645f719b970088ac", "addresses": ["14zvQ5E1XiCXUwzmoEeAeonjhJFYAw9Lh4"], "asm": "OP_DUP OP_HASH160 2bdca952b4c5a8d9b820d7ff0fb5645f719b9700 OP_EQUALVERIFY OP_CHECKSIG", "type": "pubkeyhash"}, "value": 0.00178548, "n": 1}], "hex": "01000000019b8a017145fba548c8b731c1fbc8827da55424126ee6932a3bd78ddb1340577b010000006b483045022100e315d9fae1e598096142a88d35e9927f11f523f3c8933e04601688e8b9b9ceb70220790f509cbe80a8b3df3d689fe20da491a3404b88109acb6ac8df0db40f3587240121027be108e00a478869d0a35dd440c82898488af3d9d9579a0dda72a7ea17b69228ffffffff0270550000000000001976a914e7aa3572128fe2da95142d5642e4d9f29c191eea88ac74b90200000000001976a9142bdca952b4c5a8d9b820d7ff0fb5645f719b970088ac00000000", "vin": [{"sequence": 4294967295, "scriptSig": {"hex": "483045022100e315d9fae1e598096142a88d35e9927f11f523f3c8933e04601688e8b9b9ceb70220790f509cbe80a8b3df3d689fe20da491a3404b88109acb6ac8df0db40f3587240121027be108e00a478869d0a35dd440c82898488af3d9d9579a0dda72a7ea17b69228", "asm": "3045022100e315d9fae1e598096142a88d35e9927f11f523f3c8933e04601688e8b9b9ceb70220790f509cbe80a8b3df3d689fe20da491a3404b88109acb6ac8df0db40f358724[ALL] 027be108e00a478869d0a35dd440c82898488af3d9d9579a0dda72a7ea17b69228"}, "vout": 1, "txid": "7b574013db8dd73b2a93e66e122454a57d82c8fbc131b7c848a5fb4571018a9b"}], "txid": "c0efa52cae80659a94137f840fada42f5173aa0228cafc72e7e77d2bc4fd447c", "blocktime": 1537871767, "version": 1, "confirmations": 11491, "time": 1537871767, "locktime": 0, "vsize": 226, "size": 226}