{"hash": "c0f0e25702ed13c89af9353f1b46d9ffd15320478412f3eff3257cea91a9575e", "blockhash": "0000000000000000001f76057863aec43deb6fa401d9628bb513d65a8098bfab", "vout": [{"scriptPubKey": {"reqSigs": 1, "hex": "76a914789a82917c44d55b39f27de71d563b29061a745988ac", "addresses": ["1BzhBZmMokymDyNcj4SLTVUoHWwn3e2Tvy"], "asm": "OP_DUP OP_HASH160 789a82917c44d55b39f27de71d563b29061a7459 OP_EQUALVERIFY OP_CHECKSIG", "type": "pubkeyhash"}, "value": 0.00057531, "n": 0}, {"scriptPubKey": {"reqSigs": 1, "hex": "a914531fd4d270c9668e5319c52318611b6fbe265dd387", "addresses": ["39GY99QKy6gekmbk6qE8Bq9QkAaffhC3VX"], "asm": "OP_HASH160 531fd4d270c9668e5319c52318611b6fbe265dd3 OP_EQUAL", "type": "scripthash"}, "value": 0.00312243, "n": 1}], "hex": "010000000107d9beb9fe23b463853b4f53b82e50cc7501002bb6c970100e7c7e3b66c9da03010000006a47304402203c0c9e3a1b0ba9ac8f1318fbd26bb7368607ea15ee97d36f43a543817871fbe702201228148f89f2aa144d41df8037a42fb8d33235d5a5f36db7e0b5ef26210321b3012102e954ba2df54a73e1e02d216305ce719db1a23325337de9199b1307b362b6d380ffffffff02bbe00000000000001976a914789a82917c44d55b39f27de71d563b29061a745988acb3c304000000000017a914531fd4d270c9668e5319c52318611b6fbe265dd38700000000", "vin": [{"sequence": 4294967295, "scriptSig": {"hex": "47304402203c0c9e3a1b0ba9ac8f1318fbd26bb7368607ea15ee97d36f43a543817871fbe702201228148f89f2aa144d41df8037a42fb8d33235d5a5f36db7e0b5ef26210321b3012102e954ba2df54a73e1e02d216305ce719db1a23325337de9199b1307b362b6d380", "asm": "304402203c0c9e3a1b0ba9ac8f1318fbd26bb7368607ea15ee97d36f43a543817871fbe702201228148f89f2aa144d41df8037a42fb8d33235d5a5f36db7e0b5ef26210321b3[ALL] 02e954ba2df54a73e1e02d216305ce719db1a23325337de9199b1307b362b6d380"}, "vout": 1, "txid": "03dac9663b7e7c0e1070c9b62b000175cc502eb8534f3b8563b423feb9bed907"}], "txid": "c0f0e25702ed13c89af9353f1b46d9ffd15320478412f3eff3257cea91a9575e", "blocktime": 1537873891, "version": 1, "confirmations": 11478, "time": 1537873891, "locktime": 0, "vsize": 223, "size": 223}