{"hash": "c0f3a569eaaaed5fe347ba3c349033cc30847c9c35beac4247e4de354d64578a", "blockhash": "00000000000000000017f5eb5941039fbcee6240d03bc1f2f8e35350df66a1d8", "vout": [{"scriptPubKey": {"reqSigs": 1, "hex": "76a91439de6d78fe7471bdc45b4808bf4b6591cfb8f92888ac", "addresses": ["16GyyUf3fPcsGvqTUqzsSR7NvarpACjRnn"], "asm": "OP_DUP OP_HASH160 39de6d78fe7471bdc45b4808bf4b6591cfb8f928 OP_EQUALVERIFY OP_CHECKSIG", "type": "pubkeyhash"}, "value": 0.00644926, "n": 0}, {"scriptPubKey": {"reqSigs": 1, "hex": "76a91423d255346901edea3e7583c510f99b8072dad3e188ac", "addresses": ["14GQctw1GFWAfRcnZxJWd9vwAYGdTC1pSu"], "asm": "OP_DUP OP_HASH160 23d255346901edea3e7583c510f99b8072dad3e1 OP_EQUALVERIFY OP_CHECKSIG", "type": "pubkeyhash"}, "value": 0.03519731, "n": 1}], "hex": "0100000001e8129775aff31ed9b1a4bbe3d9a88ecec01a1868f3c90b13318a2d6942cc6850010000006a4730440220504ec9122cadd04b80d95e723838de59d952b5a93057a0973ea80a56bbd4a8be02202813a44b9427396c2f97fe533560b31a7af7748d5fcff83ade113b4bea95759d0121027f856f2332f627717725e77517528d228fdfcbe5b57c551d2d2117f089f3b40bffffffff023ed70900000000001976a91439de6d78fe7471bdc45b4808bf4b6591cfb8f92888acf3b43500000000001976a91423d255346901edea3e7583c510f99b8072dad3e188ac00000000", "vin": [{"sequence": 4294967295, "scriptSig": {"hex": "4730440220504ec9122cadd04b80d95e723838de59d952b5a93057a0973ea80a56bbd4a8be02202813a44b9427396c2f97fe533560b31a7af7748d5fcff83ade113b4bea95759d0121027f856f2332f627717725e77517528d228fdfcbe5b57c551d2d2117f089f3b40b", "asm": "30440220504ec9122cadd04b80d95e723838de59d952b5a93057a0973ea80a56bbd4a8be02202813a44b9427396c2f97fe533560b31a7af7748d5fcff83ade113b4bea95759d[ALL] 027f856f2332f627717725e77517528d228fdfcbe5b57c551d2d2117f089f3b40b"}, "vout": 1, "txid": "5068cc42692d8a31130bc9f368181ac0ce8ea8d9e3bba4b1d91ef3af759712e8"}], "txid": "c0f3a569eaaaed5fe347ba3c349033cc30847c9c35beac4247e4de354d64578a", "blocktime": 1537874412, "version": 1, "confirmations": 11468, "time": 1537874412, "locktime": 0, "vsize": 225, "size": 225}