{"hash": "c0f5b1a2ba27446181bca9a855c8d1da09e485e803a5fb08bfa940f0e1342303", "blockhash": "00000000000000000024a2167bbff67b0be802c0b01cdd79e6331c2be6459f87", "vout": [{"scriptPubKey": {"reqSigs": 1, "hex": "76a9143b3f80f6b1000e2b264f7a68e59fe5f409ed4d0288ac", "addresses": ["16QGwdwUygUDGu7YSTsHHGx47LYPwLvk2u"], "asm": "OP_DUP OP_HASH160 3b3f80f6b1000e2b264f7a68e59fe5f409ed4d02 OP_EQUALVERIFY OP_CHECKSIG", "type": "pubkeyhash"}, "value": 0.00953, "n": 0}, {"scriptPubKey": {"reqSigs": 1, "hex": "a914f12e44252a12141f185a34abf9fa6505c2049d4987", "addresses": ["3PgGCQWwFRgerLXGwhNfZJergFBfC4tekY"], "asm": "OP_HASH160 f12e44252a12141f185a34abf9fa6505c2049d49 OP_EQUAL", "type": "scripthash"}, "value": 0.06249024, "n": 1}], "hex": "01000000067530d766c135017b73efc66221db2fb8d92219207ecd34ba7e30328d18fdaf9a000000006b483045022100916cf7b8ba9dbc3df7f9a6a290cf0767fda7785ac2bdb3dced628413d58a5d39022029902e094bb0a0652d09829c7f6c4da6145bc601bde8693d86cdf8e663f9d91e0121039166e0a89d1a47d8e68d0f277beea9c643a40c88e3aed1639f70cb9d91fe54beffffffff994e1cb6ee0217efaef0ace23a399ad15c9f50d0db3dc053a890a032d8c3bcda010000006a47304402201397a92fcd589b181b572857a90e300ad357a9ba59d9f59a4fe068dce0983447022078a82d6c8a3268c118f1b731e6d9c260818ada11a46b911bed64e3d35776b2810121039166e0a89d1a47d8e68d0f277beea9c643a40c88e3aed1639f70cb9d91fe54beffffffff686ebacf5300daab2cb7feea8251646aed959deea15bbea097a6066171fc058c000000006b483045022100a8fbf94b23b88b861d8a762a82165124df40619d758ef2a474045d2b39228e3702204ea00bc4b5999a670159c2e81428dadf54f960a6c9fb7643744506bc30f84a590121039166e0a89d1a47d8e68d0f277beea9c643a40c88e3aed1639f70cb9d91fe54beffffffff1fd52e064ba04202dac8bcbe2bad12951f2337ffeae61d9c92e3847ec787952e000000006b483045022100ad003763e4b7b8bf8d5473c930812f90e8e0ea68508a91d3f8ccc86343cd2601022006f7a917a3445f9f20afa7cb59d26c55213536f0393f2f197daf4af83e1f1517012103031a38a9be2aee211cda4e639ea60947ee32bbb35f214befd61f53bec24dcd24ffffffff7720dd9e138476bdc1fc7e8e2c976cb6e6344b99db560b1ad6d67cb52095fff2010000006a473044022052b4fcccff048f13975907ed68dad09744569de5367027719f719c4e8fc9a7c7022079b940a6f8391bec7fa954ee73d4906866c2cf7c1ebd1df4032ee6503900ffa1012102c4b7a7a46a2d725d1ff6e2ad3c59e11cbe7b4942724cac725e32bfe793b16ff1ffffffffa3764f30e0733f60cb9ee0f2609089b762230af21f7994d26f1bb43649d8c18c010000006a473044022044540f0bdf643dc2c0c575373e4ca77e71219477ca4819d629cc328bfe2d3ec302207586b3eb6aae67f6aa9d94f7958eed2b86e2bfbd2ae09f8dbc6835e858b0dc8d012103edba66ab363f34965e44508a88a841557c61fbf2a1c3f96106b36fe7352e0318ffffffff02a88a0e00000000001976a9143b3f80f6b1000e2b264f7a68e59fe5f409ed4d0288ac405a5f000000000017a914f12e44252a12141f185a34abf9fa6505c2049d498700000000", "vin": [{"sequence": 4294967295, "scriptSig": {"hex": "483045022100916cf7b8ba9dbc3df7f9a6a290cf0767fda7785ac2bdb3dced628413d58a5d39022029902e094bb0a0652d09829c7f6c4da6145bc601bde8693d86cdf8e663f9d91e0121039166e0a89d1a47d8e68d0f277beea9c643a40c88e3aed1639f70cb9d91fe54be", "asm": "3045022100916cf7b8ba9dbc3df7f9a6a290cf0767fda7785ac2bdb3dced628413d58a5d39022029902e094bb0a0652d09829c7f6c4da6145bc601bde8693d86cdf8e663f9d91e[ALL] 039166e0a89d1a47d8e68d0f277beea9c643a40c88e3aed1639f70cb9d91fe54be"}, "vout": 0, "txid": "9aaffd188d32307eba34cd7e201922d9b82fdb2162c6ef737b0135c166d73075"}, {"sequence": 4294967295, "scriptSig": {"hex": "47304402201397a92fcd589b181b572857a90e300ad357a9ba59d9f59a4fe068dce0983447022078a82d6c8a3268c118f1b731e6d9c260818ada11a46b911bed64e3d35776b2810121039166e0a89d1a47d8e68d0f277beea9c643a40c88e3aed1639f70cb9d91fe54be", "asm": "304402201397a92fcd589b181b572857a90e300ad357a9ba59d9f59a4fe068dce0983447022078a82d6c8a3268c118f1b731e6d9c260818ada11a46b911bed64e3d35776b281[ALL] 039166e0a89d1a47d8e68d0f277beea9c643a40c88e3aed1639f70cb9d91fe54be"}, "vout": 1, "txid": "dabcc3d832a090a853c03ddbd0509f5cd19a393ae2acf0aeef1702eeb61c4e99"}, {"sequence": 4294967295, "scriptSig": {"hex": "483045022100a8fbf94b23b88b861d8a762a82165124df40619d758ef2a474045d2b39228e3702204ea00bc4b5999a670159c2e81428dadf54f960a6c9fb7643744506bc30f84a590121039166e0a89d1a47d8e68d0f277beea9c643a40c88e3aed1639f70cb9d91fe54be", "asm": "3045022100a8fbf94b23b88b861d8a762a82165124df40619d758ef2a474045d2b39228e3702204ea00bc4b5999a670159c2e81428dadf54f960a6c9fb7643744506bc30f84a59[ALL] 039166e0a89d1a47d8e68d0f277beea9c643a40c88e3aed1639f70cb9d91fe54be"}, "vout": 0, "txid": "8c05fc716106a697a0be5ba1ee9d95ed6a645182eafeb72cabda0053cfba6e68"}, {"sequence": 4294967295, "scriptSig": {"hex": "483045022100ad003763e4b7b8bf8d5473c930812f90e8e0ea68508a91d3f8ccc86343cd2601022006f7a917a3445f9f20afa7cb59d26c55213536f0393f2f197daf4af83e1f1517012103031a38a9be2aee211cda4e639ea60947ee32bbb35f214befd61f53bec24dcd24", "asm": "3045022100ad003763e4b7b8bf8d5473c930812f90e8e0ea68508a91d3f8ccc86343cd2601022006f7a917a3445f9f20afa7cb59d26c55213536f0393f2f197daf4af83e1f1517[ALL] 03031a38a9be2aee211cda4e639ea60947ee32bbb35f214befd61f53bec24dcd24"}, "vout": 0, "txid": "2e9587c77e84e3929c1de6eaff37231f9512ad2bbebcc8da0242a04b062ed51f"}, {"sequence": 4294967295, "scriptSig": {"hex": "473044022052b4fcccff048f13975907ed68dad09744569de5367027719f719c4e8fc9a7c7022079b940a6f8391bec7fa954ee73d4906866c2cf7c1ebd1df4032ee6503900ffa1012102c4b7a7a46a2d725d1ff6e2ad3c59e11cbe7b4942724cac725e32bfe793b16ff1", "asm": "3044022052b4fcccff048f13975907ed68dad09744569de5367027719f719c4e8fc9a7c7022079b940a6f8391bec7fa954ee73d4906866c2cf7c1ebd1df4032ee6503900ffa1[ALL] 02c4b7a7a46a2d725d1ff6e2ad3c59e11cbe7b4942724cac725e32bfe793b16ff1"}, "vout": 1, "txid": "f2ff9520b57cd6d61a0b56db994b34e6b66c972c8e7efcc1bd7684139edd2077"}, {"sequence": 4294967295, "scriptSig": {"hex": "473044022044540f0bdf643dc2c0c575373e4ca77e71219477ca4819d629cc328bfe2d3ec302207586b3eb6aae67f6aa9d94f7958eed2b86e2bfbd2ae09f8dbc6835e858b0dc8d012103edba66ab363f34965e44508a88a841557c61fbf2a1c3f96106b36fe7352e0318", "asm": "3044022044540f0bdf643dc2c0c575373e4ca77e71219477ca4819d629cc328bfe2d3ec302207586b3eb6aae67f6aa9d94f7958eed2b86e2bfbd2ae09f8dbc6835e858b0dc8d[ALL] 03edba66ab363f34965e44508a88a841557c61fbf2a1c3f96106b36fe7352e0318"}, "vout": 1, "txid": "8cc1d84936b41b6fd294791ff20a2362b7899060f2e09ecb603f73e0304f76a3"}], "txid": "c0f5b1a2ba27446181bca9a855c8d1da09e485e803a5fb08bfa940f0e1342303", "blocktime": 1537870564, "version": 1, "confirmations": 11515, "time": 1537870564, "locktime": 0, "vsize": 961, "size": 961}