{"hash": "c0fb123eca95c5a24a824b3ec932b1da58cf2034c27fd5a01ffb249b528d3b2b", "blockhash": "00000000000000000017f5eb5941039fbcee6240d03bc1f2f8e35350df66a1d8", "vout": [{"scriptPubKey": {"reqSigs": 1, "hex": "76a914b95616f7a0ed6b28cf7ab97a5c81e78837d9d15988ac", "addresses": ["1Hty97CpNzupoteKSxAoLa7tc3Sq3x6LQ3"], "asm": "OP_DUP OP_HASH160 b95616f7a0ed6b28cf7ab97a5c81e78837d9d159 OP_EQUALVERIFY OP_CHECKSIG", "type": "pubkeyhash"}, "value": 0.01108622, "n": 0}], "hex": "010000000150b51bfa323f1754097db23bbafe74bb46caa052a34e28080471d406f8f6345b000000006b483045022100fc2c637adf36118e576495d26643f703e5b96619ea16293a61073b79de056c4c02200610e1fbad77d61f98f569fb11bbc1a8e872888a51565cedd732db0082910349012102c92e6eafa5d5446c675d6a62c6713b18b73cf83366ef6e73780f27b0a61ef645ffffffff018eea1000000000001976a914b95616f7a0ed6b28cf7ab97a5c81e78837d9d15988ac00000000", "vin": [{"sequence": 4294967295, "scriptSig": {"hex": "483045022100fc2c637adf36118e576495d26643f703e5b96619ea16293a61073b79de056c4c02200610e1fbad77d61f98f569fb11bbc1a8e872888a51565cedd732db0082910349012102c92e6eafa5d5446c675d6a62c6713b18b73cf83366ef6e73780f27b0a61ef645", "asm": "3045022100fc2c637adf36118e576495d26643f703e5b96619ea16293a61073b79de056c4c02200610e1fbad77d61f98f569fb11bbc1a8e872888a51565cedd732db0082910349[ALL] 02c92e6eafa5d5446c675d6a62c6713b18b73cf83366ef6e73780f27b0a61ef645"}, "vout": 0, "txid": "5b34f6f806d4710408284ea352a0ca46bb74feba3bb27d0954173f32fa1bb550"}], "txid": "c0fb123eca95c5a24a824b3ec932b1da58cf2034c27fd5a01ffb249b528d3b2b", "blocktime": 1537874412, "version": 1, "confirmations": 11467, "time": 1537874412, "locktime": 0, "vsize": 192, "size": 192}