{"hash": "2e24fae3be5fc74af306cf3de6ab1b69e1513037635824ecd05f9c724b130acb", "blockhash": "00000000000000000024a2167bbff67b0be802c0b01cdd79e6331c2be6459f87", "vout": [{"scriptPubKey": {"reqSigs": 1, "hex": "a9147ed2343775b602657c22f123820e49a227e84e1287", "addresses": ["3DFaswcLcPSse6qX4fs2y1o8fZ74LBbeeC"], "asm": "OP_HASH160 7ed2343775b602657c22f123820e49a227e84e12 OP_EQUAL", "type": "scripthash"}, "value": 0.05156774, "n": 0}, {"scriptPubKey": {"reqSigs": 1, "hex": "76a914d34b033d201113572dcd5ae340b7b7545490a2c788ac", "addresses": ["1LGDSSuQaG9D9UeZBQPzuPyTffRF5UpGov"], "asm": "OP_DUP OP_HASH160 d34b033d201113572dcd5ae340b7b7545490a2c7 OP_EQUALVERIFY OP_CHECKSIG", "type": "pubkeyhash"}, "value": 0.003106, "n": 1}], "hex": "02000000000101815af49ce68d271e9b77a80f13b4224b8cb518453b605120005023e208ab718a000000001716001448c08dbc4ccc3d4e091b1807919a925f0c0be660fdffffff02a6af4e000000000017a9147ed2343775b602657c22f123820e49a227e84e128748bd0400000000001976a914d34b033d201113572dcd5ae340b7b7545490a2c788ac0247304402203a6075d48136d31ea2286a37f7e296be3aa893ad7c4859b3ea1b56e92a08f28e02205064c348f8f639e952f67888d2ba5bfbdfc770c91f00dacf1f1a47f394af16ff0121023781996079eafebd4863e43837b97d21083cfbb7c34853c5e032386b3f8fceba0d490800", "vin": [{"txinwitness": ["304402203a6075d48136d31ea2286a37f7e296be3aa893ad7c4859b3ea1b56e92a08f28e02205064c348f8f639e952f67888d2ba5bfbdfc770c91f00dacf1f1a47f394af16ff01", "023781996079eafebd4863e43837b97d21083cfbb7c34853c5e032386b3f8fceba"], "sequence": 4294967293, "scriptSig": {"hex": "16001448c08dbc4ccc3d4e091b1807919a925f0c0be660", "asm": "001448c08dbc4ccc3d4e091b1807919a925f0c0be660"}, "vout": 0, "txid": "8a71ab08e22350002051603b4518b58c4b22b4130fa8779b1e278de69cf45a81"}], "txid": "c1001a51bc4af088ba059974faf17daca1d76732e1a53127b05934266aa3f40c", "blocktime": 1537870564, "version": 2, "confirmations": 11515, "time": 1537870564, "locktime": 542989, "vsize": 168, "size": 249}