{"hash": "bef839fe25d03ca8377b5ec8e3c12241d48641380ae8b956f52a1ca7c9578630", "blockhash": "00000000000000000018f53835495a110e01622372bf6ae95dc86f2b0ab887b0", "vout": [{"scriptPubKey": {"reqSigs": 1, "hex": "a91499790e8477f6e08bbd2ca08b9ab122e0ec711ae487", "addresses": ["3FgWL4WnLK4Q4MugM8Jqq1aWQvvJ6fcDpa"], "asm": "OP_HASH160 99790e8477f6e08bbd2ca08b9ab122e0ec711ae4 OP_EQUAL", "type": "scripthash"}, "value": 0.00060765, "n": 0}, {"scriptPubKey": {"reqSigs": 1, "hex": "a9145716614213b876f693704430f9eaa70206292c7e87", "addresses": ["39dVXDXJVoV1XhqL8SBg4PvTGtBy6omfst"], "asm": "OP_HASH160 5716614213b876f693704430f9eaa70206292c7e OP_EQUAL", "type": "scripthash"}, "value": 0.00327624, "n": 1}], "hex": "010000000001018237c55d9a5aaf74413a57df3a939c7d9a95dc640771e48599a8259072d8804e01000000232200203eeefd38a5fa49102c135c4876d8255975a66b5ffd9128399f80a8f996c2083fffffffff025ded00000000000017a91499790e8477f6e08bbd2ca08b9ab122e0ec711ae487c8ff04000000000017a9145716614213b876f693704430f9eaa70206292c7e87040047304402203ba72a0b513f05580cf2aff849589f45c64c5768c58c9b98c58e71636ce2ab62022043d6b50013bec60534e41e44e4584ffd325fee863e1dc2a128d2a51b9b0919f101483045022100ee8b1dd69e524c98fc932f17baf335e7dac3df4119f83d54f2fcaef0009c6d58022068adf023ff1ab5a841c06057f132a15d6f50198fd2b1b7628f0b31316acc07540147522102b3ff5ee21e442db3e9b7723a139841bb347c5cd2ef80d094d699b6927af8863a21030580d373ab00643a581abb399b43fa66d7b6fc29624eb75b2d5ec8d99faa163f52ae00000000", "vin": [{"txinwitness": ["", "304402203ba72a0b513f05580cf2aff849589f45c64c5768c58c9b98c58e71636ce2ab62022043d6b50013bec60534e41e44e4584ffd325fee863e1dc2a128d2a51b9b0919f101", "3045022100ee8b1dd69e524c98fc932f17baf335e7dac3df4119f83d54f2fcaef0009c6d58022068adf023ff1ab5a841c06057f132a15d6f50198fd2b1b7628f0b31316acc075401", "522102b3ff5ee21e442db3e9b7723a139841bb347c5cd2ef80d094d699b6927af8863a21030580d373ab00643a581abb399b43fa66d7b6fc29624eb75b2d5ec8d99faa163f52ae"], "sequence": 4294967295, "scriptSig": {"hex": "2200203eeefd38a5fa49102c135c4876d8255975a66b5ffd9128399f80a8f996c2083f", "asm": "00203eeefd38a5fa49102c135c4876d8255975a66b5ffd9128399f80a8f996c2083f"}, "vout": 1, "txid": "4e80d8729025a89985e4710764dc959a7d9c933adf573a4174af5a9a5dc53782"}], "txid": "c10690661d277bab1423a15f7c6995af02ace4a451ffb9bab25e026bc56d16a6", "blocktime": 1537870928, "version": 1, "confirmations": 11514, "time": 1537870928, "locktime": 0, "vsize": 206, "size": 371}