{"hash": "c112ef910dbcd8316b9f6c387b901ea9bc0c6bc2546307665780272fd3bb0299", "blockhash": "00000000000000000004ffacab907a6b429b9a5745fa0b75af4234bf69dd7176", "vout": [{"scriptPubKey": {"reqSigs": 1, "hex": "76a914ed00bca1a7b5440df2dc026c5b30c30b9ead4e5388ac", "addresses": ["1NcA2fJomU1sAr4bTtSMXDLNQfKCmab9z8"], "asm": "OP_DUP OP_HASH160 ed00bca1a7b5440df2dc026c5b30c30b9ead4e53 OP_EQUALVERIFY OP_CHECKSIG", "type": "pubkeyhash"}, "value": 0.001, "n": 0}, {"scriptPubKey": {"reqSigs": 1, "hex": "76a914e980406100f1b02d9023620d15858ca5a5fb144c88ac", "addresses": ["1NHe5mQK8w5uu6QxqnWsd6M8fPLPiYGWzA"], "asm": "OP_DUP OP_HASH160 e980406100f1b02d9023620d15858ca5a5fb144c OP_EQUALVERIFY OP_CHECKSIG", "type": "pubkeyhash"}, "value": 0.08039264, "n": 1}], "hex": "0100000001893cbba8c730b2a5d186d43274a43c2404314275e20c552d4df77ce2724f55a7010000006b483045022100c01298a53ae87c15c799a263f3cba4f5b09a120effb53f14c4ae2b72347613190220667bd54c688ab93403370bd9c979fc55772363c7743510a4d2a1043dd5be6560012103ad603f5d3610dce0c476cc5ff31b70d340cb842f4285d362fdb63d990e4c8e16ffffffff02a0860100000000001976a914ed00bca1a7b5440df2dc026c5b30c30b9ead4e5388ac60ab7a00000000001976a914e980406100f1b02d9023620d15858ca5a5fb144c88ac00000000", "vin": [{"sequence": 4294967295, "scriptSig": {"hex": "483045022100c01298a53ae87c15c799a263f3cba4f5b09a120effb53f14c4ae2b72347613190220667bd54c688ab93403370bd9c979fc55772363c7743510a4d2a1043dd5be6560012103ad603f5d3610dce0c476cc5ff31b70d340cb842f4285d362fdb63d990e4c8e16", "asm": "3045022100c01298a53ae87c15c799a263f3cba4f5b09a120effb53f14c4ae2b72347613190220667bd54c688ab93403370bd9c979fc55772363c7743510a4d2a1043dd5be6560[ALL] 03ad603f5d3610dce0c476cc5ff31b70d340cb842f4285d362fdb63d990e4c8e16"}, "vout": 1, "txid": "a7554f72e27cf74d2d550ce275423104243ca47432d486d1a5b230c7a8bb3c89"}], "txid": "c112ef910dbcd8316b9f6c387b901ea9bc0c6bc2546307665780272fd3bb0299", "blocktime": 1537875543, "version": 1, "confirmations": 11464, "time": 1537875543, "locktime": 0, "vsize": 226, "size": 226}