{"hash": "857fe07c89f42581c3be070c11b758135651d919f5dab9ca9b8bf8fa18480223", "blockhash": "0000000000000000001e0dab787dd257d1dbfcb92a98c2207d5e1078be1f4165", "vout": [{"scriptPubKey": {"reqSigs": 1, "hex": "00145ce141b011ab8b7a2d972f5b86a2e218ea80e459", "addresses": ["bc1qtns5rvq34w9h5tvh9adcdghzrr4gpezeesqmcr"], "asm": "0 5ce141b011ab8b7a2d972f5b86a2e218ea80e459", "type": "witness_v0_keyhash"}, "value": 1.062e-05, "n": 0}, {"scriptPubKey": {"reqSigs": 1, "hex": "a9140b81872a201110e1c6fa0d53fc7624bf5f7d1d9e87", "addresses": ["32jrXR6FDqh6iE68iivngwzhmUJKXGm5vj"], "asm": "OP_HASH160 0b81872a201110e1c6fa0d53fc7624bf5f7d1d9e OP_EQUAL", "type": "scripthash"}, "value": 0.0011178, "n": 1}], "hex": "0100000000010145143a90491f3f56dfe21563bb5fa497213b286c8ee55a3cff682ca15a1ffcf80100000000ffffffff0226040000000000001600145ce141b011ab8b7a2d972f5b86a2e218ea80e459a4b401000000000017a9140b81872a201110e1c6fa0d53fc7624bf5f7d1d9e8702483045022100e0c5051abd1204ebb6cd3c5d53dec93c5b9b17956a8f2bd89f4ee2b4016c50ec022073c648e51f6b242ce5257bd56da4ad4ea681eae4a53f4a557d4622560c190422012103422bdb662e9d7128bfecd40c3ba55b91776cc3d026d6cd0f39a15de9e35e177700000000", "vin": [{"txinwitness": ["3045022100e0c5051abd1204ebb6cd3c5d53dec93c5b9b17956a8f2bd89f4ee2b4016c50ec022073c648e51f6b242ce5257bd56da4ad4ea681eae4a53f4a557d4622560c19042201", "03422bdb662e9d7128bfecd40c3ba55b91776cc3d026d6cd0f39a15de9e35e1777"], "sequence": 4294967295, "scriptSig": {"hex": "", "asm": ""}, "vout": 1, "txid": "f8fc1f5aa12c68ff3c5ae58e6c283b2197a45fbb6315e2df563f1f49903a1445"}], "txid": "c11cc75d3519bc4d943f8d03fdc3e1a4edb7ab50f9dff4d6acf10fc3d227176d", "blocktime": 1537872475, "version": 1, "confirmations": 11486, "time": 1537872475, "locktime": 0, "vsize": 142, "size": 224}