{"hash": "c11ce55b88bce28069c5098a569cb347afc0567fe5005dc8fcc7665cf05dbf11", "blockhash": "0000000000000000001f76057863aec43deb6fa401d9628bb513d65a8098bfab", "vout": [{"scriptPubKey": {"reqSigs": 1, "hex": "a914cb04de8c4e9fd8157953d84b61d4fb4cff8dbfe987", "addresses": ["3LCUvp4VN46TUCqyeBTEYyzU6rsjudTTWS"], "asm": "OP_HASH160 cb04de8c4e9fd8157953d84b61d4fb4cff8dbfe9 OP_EQUAL", "type": "scripthash"}, "value": 0.01061525, "n": 0}, {"scriptPubKey": {"reqSigs": 1, "hex": "76a9148921d8afc39e89b02f38fb767552270e0e2737a488ac", "addresses": ["1DW67yP6sLAXk3qWYycdyopoVbLuCCifAx"], "asm": "OP_DUP OP_HASH160 8921d8afc39e89b02f38fb767552270e0e2737a4 OP_EQUALVERIFY OP_CHECKSIG", "type": "pubkeyhash"}, "value": 0.00935694, "n": 1}], "hex": "010000000103a35090da80bc5cec18418ca8aae6e3b0e045c3cce1991d500a332c8c0c1d5000000000fdfd0000483045022100da10522b063ee407e4f230f3e8489249c63396ab5acea0ced2fa7e092e0bfb9b02207c68f1ba0f64b97a8efa62f69ea97aba9a32891cf8159ecdcea709f125e0749701473044022026e33c71f70e12ce33ef8614920e63535cb5340175354e5725faa60d0c9a22010220576dcb9d9fd3a82fa4f34765e60bb0724ec13e3f6e6ada1facaaa3ee5ade19fc014c69522102b48a4190a1b7936a32cdf9d4f6f9fe4484f25772eb75474df0a2b9f22114876c2102d5c0e2b99b6681f5b18e21aea996394b5d5a4ec5b21f96411af631181b955b4521030d15c7a9c1abb1f8c055dc185a1847c4a59c15f303bfe5a4df259a547036067b53aeffffffff02953210000000000017a914cb04de8c4e9fd8157953d84b61d4fb4cff8dbfe9870e470e00000000001976a9148921d8afc39e89b02f38fb767552270e0e2737a488ac00000000", "vin": [{"sequence": 4294967295, "scriptSig": {"hex": "00483045022100da10522b063ee407e4f230f3e8489249c63396ab5acea0ced2fa7e092e0bfb9b02207c68f1ba0f64b97a8efa62f69ea97aba9a32891cf8159ecdcea709f125e0749701473044022026e33c71f70e12ce33ef8614920e63535cb5340175354e5725faa60d0c9a22010220576dcb9d9fd3a82fa4f34765e60bb0724ec13e3f6e6ada1facaaa3ee5ade19fc014c69522102b48a4190a1b7936a32cdf9d4f6f9fe4484f25772eb75474df0a2b9f22114876c2102d5c0e2b99b6681f5b18e21aea996394b5d5a4ec5b21f96411af631181b955b4521030d15c7a9c1abb1f8c055dc185a1847c4a59c15f303bfe5a4df259a547036067b53ae", "asm": "0 3045022100da10522b063ee407e4f230f3e8489249c63396ab5acea0ced2fa7e092e0bfb9b02207c68f1ba0f64b97a8efa62f69ea97aba9a32891cf8159ecdcea709f125e07497[ALL] 3044022026e33c71f70e12ce33ef8614920e63535cb5340175354e5725faa60d0c9a22010220576dcb9d9fd3a82fa4f34765e60bb0724ec13e3f6e6ada1facaaa3ee5ade19fc[ALL] 522102b48a4190a1b7936a32cdf9d4f6f9fe4484f25772eb75474df0a2b9f22114876c2102d5c0e2b99b6681f5b18e21aea996394b5d5a4ec5b21f96411af631181b955b4521030d15c7a9c1abb1f8c055dc185a1847c4a59c15f303bfe5a4df259a547036067b53ae"}, "vout": 0, "txid": "501d0c8c2c330a501d99e1ccc345e0b0e3e6aaa88c4118ec5cbc80da9050a303"}], "txid": "c11ce55b88bce28069c5098a569cb347afc0567fe5005dc8fcc7665cf05dbf11", "blocktime": 1537873891, "version": 1, "confirmations": 11475, "time": 1537873891, "locktime": 0, "vsize": 372, "size": 372}