{"hash": "9ffc2c084c6cb932b88c7090c90c617311f3baa87cb9766de1bdb12b8590c44e", "blockhash": "0000000000000000000baef3f32e3676a92c3b2e5da21b426e4f302fc371ce76", "vout": [{"scriptPubKey": {"reqSigs": 1, "hex": "a914fd90f468a343c403103a19e04de16264df62ee4587", "addresses": ["3QokXhzCzmgBXE8uo15NBYG1Yc6j1s66kP"], "asm": "OP_HASH160 fd90f468a343c403103a19e04de16264df62ee45 OP_EQUAL", "type": "scripthash"}, "value": 0.05479979, "n": 0}, {"scriptPubKey": {"reqSigs": 1, "hex": "a914f118cacaa988de66e687c411ceb41935501a4d7a87", "addresses": ["3PfpUN4mQnxqQK1yRZkSbXLBr831JsRWrK"], "asm": "OP_HASH160 f118cacaa988de66e687c411ceb41935501a4d7a OP_EQUAL", "type": "scripthash"}, "value": 8.24129457, "n": 1}], "hex": "020000000001019f3368061faf2389d8cfd4755eae09b13ff6004b4c424ccd8689555b7f1d2ee201000000171600144e9f51386bd2a6877303de61c658f3e10cdd3291feffffff022b9e53000000000017a914fd90f468a343c403103a19e04de16264df62ee4587b1371f310000000017a914f118cacaa988de66e687c411ceb41935501a4d7a8702473044022042639d5761ee9918dbc26cac9ea8cc249c6e773f1a790aa010fa4bdc4930bed90220244fb305c3abc86a48a2b68cbbed38b1bbc7361b90ba70565bd2050593829b1f012102ce09c74b6531dc4a973946b36a2f1786a487ae5be803b2e8b715c84f1690472817490800", "vin": [{"txinwitness": ["3044022042639d5761ee9918dbc26cac9ea8cc249c6e773f1a790aa010fa4bdc4930bed90220244fb305c3abc86a48a2b68cbbed38b1bbc7361b90ba70565bd2050593829b1f01", "02ce09c74b6531dc4a973946b36a2f1786a487ae5be803b2e8b715c84f16904728"], "sequence": 4294967294, "scriptSig": {"hex": "1600144e9f51386bd2a6877303de61c658f3e10cdd3291", "asm": "00144e9f51386bd2a6877303de61c658f3e10cdd3291"}, "vout": 1, "txid": "e22e1d7f5b558986cd4c424c4b00f63fb109ae5e75d4cfd88923af1f0668339f"}], "txid": "c1205a968895fbe96148a36e4f449770b397ccc11b4d89514c303520bc0f2952", "blocktime": 1537876114, "version": 2, "confirmations": 11459, "time": 1537876114, "locktime": 542999, "vsize": 166, "size": 247}