{"hash": "bb6167cce41c510373f7d2c9a8ea1b077b92b0a318327830b1757b19ec4c73ca", "blockhash": "0000000000000000001f76057863aec43deb6fa401d9628bb513d65a8098bfab", "vout": [{"scriptPubKey": {"reqSigs": 1, "hex": "a914ceb3087c76f51b05772f377ccc6d2000617192e787", "addresses": ["3LXwbW5L3goBZdsiCK3aWNbHJ2HsJeRzj7"], "asm": "OP_HASH160 ceb3087c76f51b05772f377ccc6d2000617192e7 OP_EQUAL", "type": "scripthash"}, "value": 0.30741599, "n": 0}, {"scriptPubKey": {"reqSigs": 1, "hex": "76a914dc46157d6e6204b2b081a62c882bc26e4ef7707388ac", "addresses": ["1M5hcio1BQ22mEjx9V1MTfrWxqTVp1HZrg"], "asm": "OP_DUP OP_HASH160 dc46157d6e6204b2b081a62c882bc26e4ef77073 OP_EQUALVERIFY OP_CHECKSIG", "type": "pubkeyhash"}, "value": 0.007, "n": 1}], "hex": "02000000000101477ad51824ea70f4ddff20474e0f4969484d62a8635ef19be36c869f7377246b03000000171600144a7484f9de7e38d4ce3d311fee8a8c3eb03918e6feffffff025f14d5010000000017a914ceb3087c76f51b05772f377ccc6d2000617192e78760ae0a00000000001976a914dc46157d6e6204b2b081a62c882bc26e4ef7707388ac02473044022041058dee98f0be40d19ae2a04d10593cf32ce6cec19288afc82ae5fec92da19902204226114a27be3fc1cfa4c2d241f3a54fc18d6eb09c303a75c6797d92a40f2313012102da5615f0cf0e81e8d7af6cd3d8503187a7609ef796b8497c17fe5b11044e435014490800", "vin": [{"txinwitness": ["3044022041058dee98f0be40d19ae2a04d10593cf32ce6cec19288afc82ae5fec92da19902204226114a27be3fc1cfa4c2d241f3a54fc18d6eb09c303a75c6797d92a40f231301", "02da5615f0cf0e81e8d7af6cd3d8503187a7609ef796b8497c17fe5b11044e4350"], "sequence": 4294967294, "scriptSig": {"hex": "1600144a7484f9de7e38d4ce3d311fee8a8c3eb03918e6", "asm": "00144a7484f9de7e38d4ce3d311fee8a8c3eb03918e6"}, "vout": 3, "txid": "6b2477739f866ce39bf15e63a8624d4869490f4e4720ffddf470ea2418d57a47"}], "txid": "c122be21478d34d2c698ed8349ae3ed0265759f4dffcd3abf6958bad562de27c", "blocktime": 1537873891, "version": 2, "confirmations": 11474, "time": 1537873891, "locktime": 542996, "vsize": 168, "size": 249}