{"hash": "c124a2efcb3f48c93577c33bb1193467a858507ef8cc4d6beb2f4ea2f654ceb3", "blockhash": "00000000000000000018f53835495a110e01622372bf6ae95dc86f2b0ab887b0", "vout": [{"scriptPubKey": {"reqSigs": 1, "hex": "76a9141b7d23f4d75e8a7a3b64a296001d99d506f9a10288ac", "addresses": ["13WMA6FwXz8Lj2gR9H7mBfcWuRwKouLyta"], "asm": "OP_DUP OP_HASH160 1b7d23f4d75e8a7a3b64a296001d99d506f9a102 OP_EQUALVERIFY OP_CHECKSIG", "type": "pubkeyhash"}, "value": 0.01050787, "n": 0}, {"scriptPubKey": {"reqSigs": 1, "hex": "a914b815742375d733bf943d374cf89ae1e1f666d7c887", "addresses": ["3JUMxU4bZ619NdQ4ioDhjJdjjgA4LJBeH2"], "asm": "OP_HASH160 b815742375d733bf943d374cf89ae1e1f666d7c8 OP_EQUAL", "type": "scripthash"}, "value": 0.01093404, "n": 1}], "hex": "01000000018f385833af62becea30f348c85d22cd877fbecbc44b6590b4ddac13916ab49bb000000006b483045022100c7ba76bd4c28d2a485cab2eac4d2bc55860e9a9ab9ee70e1c4fd8432473c76ba02200a0b0b89403fa264941bd938d88f3ae262d6207d777db9f9899d18fa00911ccd01210319b83d55de2879af56d896915eeb766bda81fa6da5b47e248fe2305b20aa90b2ffffffff02a3081000000000001976a9141b7d23f4d75e8a7a3b64a296001d99d506f9a10288ac1caf10000000000017a914b815742375d733bf943d374cf89ae1e1f666d7c88700000000", "vin": [{"sequence": 4294967295, "scriptSig": {"hex": "483045022100c7ba76bd4c28d2a485cab2eac4d2bc55860e9a9ab9ee70e1c4fd8432473c76ba02200a0b0b89403fa264941bd938d88f3ae262d6207d777db9f9899d18fa00911ccd01210319b83d55de2879af56d896915eeb766bda81fa6da5b47e248fe2305b20aa90b2", "asm": "3045022100c7ba76bd4c28d2a485cab2eac4d2bc55860e9a9ab9ee70e1c4fd8432473c76ba02200a0b0b89403fa264941bd938d88f3ae262d6207d777db9f9899d18fa00911ccd[ALL] 0319b83d55de2879af56d896915eeb766bda81fa6da5b47e248fe2305b20aa90b2"}, "vout": 0, "txid": "bb49ab1639c1da4d0b59b644bcecfb77d82cd2858c340fa3cebe62af3358388f"}], "txid": "c124a2efcb3f48c93577c33bb1193467a858507ef8cc4d6beb2f4ea2f654ceb3", "blocktime": 1537870928, "version": 1, "confirmations": 11512, "time": 1537870928, "locktime": 0, "vsize": 224, "size": 224}