{"hash": "92a701b0cbb7f1526e58af9dfb86ab812e152122b505602d2e600d9790ea7a34", "blockhash": "0000000000000000001cda96e906b7601b7a6fb1a3b62bca570a9e5d8f4b3de1", "vout": [{"scriptPubKey": {"reqSigs": 1, "hex": "a91464f78ef475827e883f691a37d26829fe1a917f9687", "addresses": ["3Att4PQoP7Dbj64WPRcqsbkAwRh6bCEpa7"], "asm": "OP_HASH160 64f78ef475827e883f691a37d26829fe1a917f96 OP_EQUAL", "type": "scripthash"}, "value": 0.0647982, "n": 0}, {"scriptPubKey": {"reqSigs": 1, "hex": "76a914546e793af5170751a595cdebaac42b53e0727c9b88ac", "addresses": ["18hS6xA7HKhUtr6o5Bxp9eoFGNsZtqhQGM"], "asm": "OP_DUP OP_HASH160 546e793af5170751a595cdebaac42b53e0727c9b OP_EQUALVERIFY OP_CHECKSIG", "type": "pubkeyhash"}, "value": 0.03973796, "n": 1}], "hex": "020000000001013663d941df7bb91611b82793652167a8aef103ca16b1496f17ade3bca2670a770000000017160014db9b99c1db714da8be1ca0b165af5b0ae51d139efeffffff02ccdf62000000000017a91464f78ef475827e883f691a37d26829fe1a917f9687a4a23c00000000001976a914546e793af5170751a595cdebaac42b53e0727c9b88ac024830450221009269eb126be29cbd410afff2dcb8635258192410be1be821c5eba17aca38471002203f4b4530a01499c6ef64d5cd6560db78b43cc3b29926f23502e73d5e801951ee012103ec6c74e1c86cb7a8431e5e92b18ba36261e1825f7ac1598099a229fc5ff5e45e13490800", "vin": [{"txinwitness": ["30450221009269eb126be29cbd410afff2dcb8635258192410be1be821c5eba17aca38471002203f4b4530a01499c6ef64d5cd6560db78b43cc3b29926f23502e73d5e801951ee01", "03ec6c74e1c86cb7a8431e5e92b18ba36261e1825f7ac1598099a229fc5ff5e45e"], "sequence": 4294967294, "scriptSig": {"hex": "160014db9b99c1db714da8be1ca0b165af5b0ae51d139e", "asm": "0014db9b99c1db714da8be1ca0b165af5b0ae51d139e"}, "vout": 0, "txid": "770a67a2bce3ad176f49b116ca03f1aea86721659327b81116b97bdf41d96336"}], "txid": "c1296a8fd5fa98ab717b7131fade0327efcf393a10c2393a5585d1464d7f3b46", "blocktime": 1537873282, "version": 2, "confirmations": 11485, "time": 1537873282, "locktime": 542995, "vsize": 168, "size": 250}