{"hash": "c1349258a55619dbe357a1d947b8321dd5bd8a69ef48eea02dd3cf6cfd6105f8", "blockhash": "0000000000000000000e13cef7c366c0283d82e591d1acd082e914b08063cdf1", "vout": [{"scriptPubKey": {"reqSigs": 1, "hex": "76a914ece5330d9665b3309171e5789f5af188573828a288ac", "addresses": ["1Nbb3KyzonhubgjguKSbmy245XhXgkWAts"], "asm": "OP_DUP OP_HASH160 ece5330d9665b3309171e5789f5af188573828a2 OP_EQUALVERIFY OP_CHECKSIG", "type": "pubkeyhash"}, "value": 0.01137046, "n": 0}, {"scriptPubKey": {"reqSigs": 1, "hex": "a9146d89634944f90b6e0b33c2c9345878180f47394287", "addresses": ["3BgCAKx2G5SG7yqgbTCYqaShhAjb1LoApY"], "asm": "OP_HASH160 6d89634944f90b6e0b33c2c9345878180f473942 OP_EQUAL", "type": "scripthash"}, "value": 0.08356576, "n": 1}], "hex": "0100000001c92bc5f3897747615b74c84953c85ed151e9f48834ca86cefc637fba2198799b09000000fdfd0000483045022100b483c50c5fdbd14cc4c2872a58e6768aa15175dacff2120f7530da395731662302201168734de8fe2ac65d93b791673cb3cf307e4a912ab4b3542dd6f3164ce1a8ea0147304402204442c23d54e5a711c912062e92a942f6d9f8004313e7101632b82501b560813b02207ebf5618a03d9eaa6e6bf3d9151cd0fb6be39f0c1cfb2d7263be450d7d7d2c89014c6952210295a19fd9d2458da03cad4dbb501ce7560efec9701f485788b6cba2431a0851982102af90969b46be1d3bfe950c46005d8584d7714351a64cf12223c90a3a153523002102effb25af766f3382a12e47317a4aa6e8aaad60b656a1940b9032e012eca79a5253aefeffffff0296591100000000001976a914ece5330d9665b3309171e5789f5af188573828a288ace0827f000000000017a9146d89634944f90b6e0b33c2c9345878180f4739428710490800", "vin": [{"sequence": 4294967294, "scriptSig": {"hex": "00483045022100b483c50c5fdbd14cc4c2872a58e6768aa15175dacff2120f7530da395731662302201168734de8fe2ac65d93b791673cb3cf307e4a912ab4b3542dd6f3164ce1a8ea0147304402204442c23d54e5a711c912062e92a942f6d9f8004313e7101632b82501b560813b02207ebf5618a03d9eaa6e6bf3d9151cd0fb6be39f0c1cfb2d7263be450d7d7d2c89014c6952210295a19fd9d2458da03cad4dbb501ce7560efec9701f485788b6cba2431a0851982102af90969b46be1d3bfe950c46005d8584d7714351a64cf12223c90a3a153523002102effb25af766f3382a12e47317a4aa6e8aaad60b656a1940b9032e012eca79a5253ae", "asm": "0 3045022100b483c50c5fdbd14cc4c2872a58e6768aa15175dacff2120f7530da395731662302201168734de8fe2ac65d93b791673cb3cf307e4a912ab4b3542dd6f3164ce1a8ea[ALL] 304402204442c23d54e5a711c912062e92a942f6d9f8004313e7101632b82501b560813b02207ebf5618a03d9eaa6e6bf3d9151cd0fb6be39f0c1cfb2d7263be450d7d7d2c89[ALL] 52210295a19fd9d2458da03cad4dbb501ce7560efec9701f485788b6cba2431a0851982102af90969b46be1d3bfe950c46005d8584d7714351a64cf12223c90a3a153523002102effb25af766f3382a12e47317a4aa6e8aaad60b656a1940b9032e012eca79a5253ae"}, "vout": 9, "txid": "9b799821ba7f63fcce86ca3488f4e951d15ec85349c8745b61477789f3c52bc9"}], "txid": "c1349258a55619dbe357a1d947b8321dd5bd8a69ef48eea02dd3cf6cfd6105f8", "blocktime": 1537871767, "version": 1, "confirmations": 11495, "time": 1537871767, "locktime": 542992, "vsize": 372, "size": 372}