{"hash": "dbf8d7bed0dedd9829a5657ff392b48982dc8d6416d24c918f35469278ff3f7c", "blockhash": "000000000000000000022b45ed06c6f4ccd3cf7fb5ba4856ebd2e58215665228", "vout": [{"scriptPubKey": {"reqSigs": 1, "hex": "a9145d1ad967652ecb7b12d4dddf330cc9bf98ec939487", "addresses": ["3ABJvuEmbv1TsGD3nvVGWZfEazp35Hm9xF"], "asm": "OP_HASH160 5d1ad967652ecb7b12d4dddf330cc9bf98ec9394 OP_EQUAL", "type": "scripthash"}, "value": 0.1, "n": 0}, {"scriptPubKey": {"reqSigs": 1, "hex": "a9148b408578ace6defe0bd492130aca9c4cf14e1b3987", "addresses": ["3EPK9EPqepPu81XPy3dFjLtPYDB6y8zE8j"], "asm": "OP_HASH160 8b408578ace6defe0bd492130aca9c4cf14e1b39 OP_EQUAL", "type": "scripthash"}, "value": 0.89917063, "n": 1}], "hex": "02000000000101f7600d2a3826ccfd8ec2be97c871f74d999d997a837c8f06f5f5e59e4dc4d6e20000000017160014a8a956722a2f14c1fb698b4f0321caf8676cbc3cfeffffff02809698000000000017a9145d1ad967652ecb7b12d4dddf330cc9bf98ec93948787065c050000000017a9148b408578ace6defe0bd492130aca9c4cf14e1b39870248304502210085314f929f3e0fd68296233d5348e8c74f7b8fef4eaa20cc1a6172341189e41f02200cbb4e1d1d51f6cdde2f7c53588ec7f1e12a14f7622947b6f76f1719d33d1bef012102ee854f44e993185de7d415baf7960218b4e64a8a455b5a1cca3e31fed39a2a050b490800", "vin": [{"txinwitness": ["304502210085314f929f3e0fd68296233d5348e8c74f7b8fef4eaa20cc1a6172341189e41f02200cbb4e1d1d51f6cdde2f7c53588ec7f1e12a14f7622947b6f76f1719d33d1bef01", "02ee854f44e993185de7d415baf7960218b4e64a8a455b5a1cca3e31fed39a2a05"], "sequence": 4294967294, "scriptSig": {"hex": "160014a8a956722a2f14c1fb698b4f0321caf8676cbc3c", "asm": "0014a8a956722a2f14c1fb698b4f0321caf8676cbc3c"}, "vout": 0, "txid": "e2d6c44d9ee5f5f5068f7c837a999d994df771c897bec28efdcc26382a0d60f7"}], "txid": "c134b0976ebcd5dfeadd55978a2e81753b7e2a07b0c13453b6be7bb44ba14ed2", "blocktime": 1537869901, "version": 2, "confirmations": 11524, "time": 1537869901, "locktime": 542987, "vsize": 166, "size": 248}