{"hash": "06f57d0143caa387fd85dc7f11cb67ebe305cb78b5da7c0c78e8a707cd78290f", "blockhash": "0000000000000000000e13cef7c366c0283d82e591d1acd082e914b08063cdf1", "vout": [{"scriptPubKey": {"reqSigs": 1, "hex": "a914ebfeda28929c03437a305388d538fffdee65378b87", "addresses": ["3PCr24fFaHbzw2LoKMPGwS2YCXkTAS7eQS"], "asm": "OP_HASH160 ebfeda28929c03437a305388d538fffdee65378b OP_EQUAL", "type": "scripthash"}, "value": 0.01042097, "n": 0}, {"scriptPubKey": {"reqSigs": 1, "hex": "76a91424a24f88fc0780cc86214abfdec5180aa6a1908088ac", "addresses": ["14LhmT6YvRRz3mQiJtiZVqYoAxwEtHkPXH"], "asm": "OP_DUP OP_HASH160 24a24f88fc0780cc86214abfdec5180aa6a19080 OP_EQUALVERIFY OP_CHECKSIG", "type": "pubkeyhash"}, "value": 0.01785, "n": 1}], "hex": "0200000000010219672fb942a02943872ca8b591b6f8358795d227d7171117e8797f1672efa91b01000000171600141825028e498d4e9a2a80ea56f789bbe339b90c28fefffffff1f54668c00375a00dd6637537cf189c4298e573e320055bc67c8beb2bc4fc0d000000001716001498731966bb1f5d5a48a209156ee00083d6f8102afeffffff02b1e60f000000000017a914ebfeda28929c03437a305388d538fffdee65378b87a83c1b00000000001976a91424a24f88fc0780cc86214abfdec5180aa6a1908088ac024730440220224214b536dfbdf9f1872d12e0b16db5548c5311259ab23929a3d5a5812353e902206164d9ef307bb0cb9fb9f971da8846e3af2a622aa5a585fba53d1a1faf997629012103188f12fe54ce9811683b8147fe9290e47e480148c0963ba9b024760161f2a8120247304402207136428920cc769d9acaba7803c374648f05adc100ba078818d18c92690df131022042c688f71e9a7492517c5550fcc32bf58c93564e02fe19e9ee3145331245292201210364e436a97d36b950916eaa21b0d37631af734d0537b6aa6e1b5b6cef0277c95a10490800", "vin": [{"txinwitness": ["30440220224214b536dfbdf9f1872d12e0b16db5548c5311259ab23929a3d5a5812353e902206164d9ef307bb0cb9fb9f971da8846e3af2a622aa5a585fba53d1a1faf99762901", "03188f12fe54ce9811683b8147fe9290e47e480148c0963ba9b024760161f2a812"], "sequence": 4294967294, "scriptSig": {"hex": "1600141825028e498d4e9a2a80ea56f789bbe339b90c28", "asm": "00141825028e498d4e9a2a80ea56f789bbe339b90c28"}, "vout": 1, "txid": "1ba9ef72167f79e8171117d727d2958735f8b691b5a82c874329a042b92f6719"}, {"txinwitness": ["304402207136428920cc769d9acaba7803c374648f05adc100ba078818d18c92690df131022042c688f71e9a7492517c5550fcc32bf58c93564e02fe19e9ee3145331245292201", "0364e436a97d36b950916eaa21b0d37631af734d0537b6aa6e1b5b6cef0277c95a"], "sequence": 4294967294, "scriptSig": {"hex": "16001498731966bb1f5d5a48a209156ee00083d6f8102a", "asm": "001498731966bb1f5d5a48a209156ee00083d6f8102a"}, "vout": 0, "txid": "0dfcc42beb8b7cc65b0520e373e598429c18cf377563d60da07503c06846f5f1"}], "txid": "c1405fc054615e0df0d458f2a6d27a30db54b157dfa2cc0c1e4bf112f4e9e249", "blocktime": 1537871767, "version": 2, "confirmations": 11490, "time": 1537871767, "locktime": 542992, "vsize": 258, "size": 420}