{"hash": "c14182348909e1b6252edea57273c93986441860352c961a5f0bd904fa9f5e02", "blockhash": "00000000000000000018f53835495a110e01622372bf6ae95dc86f2b0ab887b0", "vout": [{"scriptPubKey": {"reqSigs": 1, "hex": "76a914fc82a692dae9c3a75b23cd8f9a808600b147deef88ac", "addresses": ["1Q29o7MVc4pMvF8ZbQyb5vESppyQrHzCUQ"], "asm": "OP_DUP OP_HASH160 fc82a692dae9c3a75b23cd8f9a808600b147deef OP_EQUALVERIFY OP_CHECKSIG", "type": "pubkeyhash"}, "value": 0.00390086, "n": 0}, {"scriptPubKey": {"reqSigs": 1, "hex": "76a9142165d396196da12c0c786765fbd790341b1e105b88ac", "addresses": ["143bHMu1dcdZmMCnt8UkP7yXRa1P8AfFGK"], "asm": "OP_DUP OP_HASH160 2165d396196da12c0c786765fbd790341b1e105b OP_EQUALVERIFY OP_CHECKSIG", "type": "pubkeyhash"}, "value": 0.02737168, "n": 1}], "hex": "0100000001ba2f8be0fdbf2c2a3adb47266a0699ac9b154202c25c5c44724e9f75f2407249010000006a473044022017757a30e8624f73e2bd53a0eb3726ce6fc2583fbf323cddac1fe370623787b502205fcbfe48627e8f5c5ec887679c7406d15948195e516e7696e15127b5209901f8012102e45f1108064e0ba93b35912931608d40b90cd9cf098a811372454153c78cdc44ffffffff02c6f30500000000001976a914fc82a692dae9c3a75b23cd8f9a808600b147deef88ac10c42900000000001976a9142165d396196da12c0c786765fbd790341b1e105b88ac00000000", "vin": [{"sequence": 4294967295, "scriptSig": {"hex": "473044022017757a30e8624f73e2bd53a0eb3726ce6fc2583fbf323cddac1fe370623787b502205fcbfe48627e8f5c5ec887679c7406d15948195e516e7696e15127b5209901f8012102e45f1108064e0ba93b35912931608d40b90cd9cf098a811372454153c78cdc44", "asm": "3044022017757a30e8624f73e2bd53a0eb3726ce6fc2583fbf323cddac1fe370623787b502205fcbfe48627e8f5c5ec887679c7406d15948195e516e7696e15127b5209901f8[ALL] 02e45f1108064e0ba93b35912931608d40b90cd9cf098a811372454153c78cdc44"}, "vout": 1, "txid": "497240f2759f4e72445c5cc20242159bac99066a2647db3a2a2cbffde08b2fba"}], "txid": "c14182348909e1b6252edea57273c93986441860352c961a5f0bd904fa9f5e02", "blocktime": 1537870928, "version": 1, "confirmations": 11512, "time": 1537870928, "locktime": 0, "vsize": 225, "size": 225}