{"hash": "b983d05fb1dd5084fcd68028725e160f70c5a50302920ee8e851287430d640fa", "blockhash": "00000000000000000017f5eb5941039fbcee6240d03bc1f2f8e35350df66a1d8", "vout": [{"scriptPubKey": {"reqSigs": 1, "hex": "76a91417b816a402ef55d304a7dd8c5f1344c123b3cd9a88ac", "addresses": ["13AR56sHWdQPJWg2zp2wVR4TGVzBcaJQHz"], "asm": "OP_DUP OP_HASH160 17b816a402ef55d304a7dd8c5f1344c123b3cd9a OP_EQUALVERIFY OP_CHECKSIG", "type": "pubkeyhash"}, "value": 0.00629877, "n": 0}, {"scriptPubKey": {"reqSigs": 1, "hex": "a914b0114ae1b52527ede75b1ad2c8877d341717c80587", "addresses": ["3HjyZoxBkGeifYgFsjeLyhmGfGBC2Wh5QB"], "asm": "OP_HASH160 b0114ae1b52527ede75b1ad2c8877d341717c805 OP_EQUAL", "type": "scripthash"}, "value": 0.01260549, "n": 1}], "hex": "02000000000101349d825225b8d9f4a417eeb741b74ebc8ceb4c4e2688d97c74fa17d31422165d000000001716001493d6fca9e6c42cf2f59f077f8ff8a5480f844c42fdffffff02759c0900000000001976a91417b816a402ef55d304a7dd8c5f1344c123b3cd9a88ac053c13000000000017a914b0114ae1b52527ede75b1ad2c8877d341717c80587024730440220515045e7b5526a43e93d6a1e5383807fec718de1e8358ae4d6cc33a84be291340220619fb7bd2d8dfddd1c097d12d27fc90d584d652e8bc731d9d679adb231811b970121025cdd50e252acc80b532ceaca609ffff29e73b6610015af59defffed973a17f0b15490800", "vin": [{"txinwitness": ["30440220515045e7b5526a43e93d6a1e5383807fec718de1e8358ae4d6cc33a84be291340220619fb7bd2d8dfddd1c097d12d27fc90d584d652e8bc731d9d679adb231811b9701", "025cdd50e252acc80b532ceaca609ffff29e73b6610015af59defffed973a17f0b"], "sequence": 4294967293, "scriptSig": {"hex": "16001493d6fca9e6c42cf2f59f077f8ff8a5480f844c42", "asm": "001493d6fca9e6c42cf2f59f077f8ff8a5480f844c42"}, "vout": 0, "txid": "5d162214d317fa747cd988264e4ceb8cbc4eb741b7ee17a4f4d9b82552829d34"}], "txid": "c1413a49291d10224afff3fa67723a0e50a01b3f595fde3e5ccb321f3f4c1201", "blocktime": 1537874412, "version": 2, "confirmations": 11468, "time": 1537874412, "locktime": 542997, "vsize": 168, "size": 249}