{"hash": "c14a83d846ee408619b3e7b29bc641bf3a2e5b42fda4994c9e0f6664c2fef3f0", "blockhash": "0000000000000000001cda96e906b7601b7a6fb1a3b62bca570a9e5d8f4b3de1", "vout": [{"scriptPubKey": {"reqSigs": 1, "hex": "76a9145a0c29697ef3bda1886ce9bd0fe985647e966b7088ac", "addresses": ["19D8PHBjZH29uS1uPZ4m3sVyqqfF8UFG9o"], "asm": "OP_DUP OP_HASH160 5a0c29697ef3bda1886ce9bd0fe985647e966b70 OP_EQUALVERIFY OP_CHECKSIG", "type": "pubkeyhash"}, "value": 0.00938082, "n": 0}, {"scriptPubKey": {"reqSigs": 1, "hex": "76a9140ccfde7b97baeaedb0fad66b49a236a26c3631b588ac", "addresses": ["12Ak8JJmfNJMsfaruZVUX7HToX9a4p8yUc"], "asm": "OP_DUP OP_HASH160 0ccfde7b97baeaedb0fad66b49a236a26c3631b5 OP_EQUALVERIFY OP_CHECKSIG", "type": "pubkeyhash"}, "value": 0.00461462, "n": 1}], "hex": "0100000001135931bc8dc10ba7d456b2dc420bcdeddcf0ec0e370ab64fe8fc7c816b4fcfa3000000006b483045022100afd3b68db920ed945e9998c1bee3722f9abacc865076365343099e25f12ebf7b02206394db3e33255dc1bcfd0dfea2a7fea31381f6c1c27cc20b207ef0629d3bf14a0121029daafa867ae5c94851310e59f1066f2c626321fec13cde098fb233a474e6c53dffffffff0262500e00000000001976a9145a0c29697ef3bda1886ce9bd0fe985647e966b7088ac960a0700000000001976a9140ccfde7b97baeaedb0fad66b49a236a26c3631b588ac00000000", "vin": [{"sequence": 4294967295, "scriptSig": {"hex": "483045022100afd3b68db920ed945e9998c1bee3722f9abacc865076365343099e25f12ebf7b02206394db3e33255dc1bcfd0dfea2a7fea31381f6c1c27cc20b207ef0629d3bf14a0121029daafa867ae5c94851310e59f1066f2c626321fec13cde098fb233a474e6c53d", "asm": "3045022100afd3b68db920ed945e9998c1bee3722f9abacc865076365343099e25f12ebf7b02206394db3e33255dc1bcfd0dfea2a7fea31381f6c1c27cc20b207ef0629d3bf14a[ALL] 029daafa867ae5c94851310e59f1066f2c626321fec13cde098fb233a474e6c53d"}, "vout": 0, "txid": "a3cf4f6b817cfce84fb60a370eecf0dcedcd0b42dcb256d4a70bc18dbc315913"}], "txid": "c14a83d846ee408619b3e7b29bc641bf3a2e5b42fda4994c9e0f6664c2fef3f0", "blocktime": 1537873282, "version": 1, "confirmations": 11481, "time": 1537873282, "locktime": 0, "vsize": 226, "size": 226}