{"hash": "c14a2d52527a725c32c8363262ec5fc0d49b3eaf85871aebf7d7a3ce6d0ca177", "blockhash": "000000000000000000022b45ed06c6f4ccd3cf7fb5ba4856ebd2e58215665228", "vout": [{"scriptPubKey": {"type": "nulldata", "hex": "6a4c50000077670001670d60c16cedbe78618c959a86aeaeacb577c031fc3a016b46dc7dc7d09645cfc9aa416c3929337538c1649d678d5baa08210612ea0b974fd0b31d100759d4ba30d2c37bb011d97e02cf", "asm": "OP_RETURN 000077670001670d60c16cedbe78618c959a86aeaeacb577c031fc3a016b46dc7dc7d09645cfc9aa416c3929337538c1649d678d5baa08210612ea0b974fd0b31d100759d4ba30d2c37bb011d97e02cf"}, "value": 0.0, "n": 0}, {"scriptPubKey": {"reqSigs": 1, "hex": "76a914995379dd43d58f776005f6c5ae82ac92b28aa0e488ac", "addresses": ["1EyiPNFpAiBLx4S91py3n4FKtaMS7VNWgv"], "asm": "OP_DUP OP_HASH160 995379dd43d58f776005f6c5ae82ac92b28aa0e4 OP_EQUALVERIFY OP_CHECKSIG", "type": "pubkeyhash"}, "value": 0.00648341, "n": 1}], "hex": "0100000001abb697cc7906f128bc46b894a5bb217ef2ee68063cfe1be3e95b7b80683f7fb3010000006b483045022100df4ae946d8b017933bf8e195eab4aebde03c8d0808203aa1e7426ccdc26e974a0220553134744618e75c34b884630c656bedbc466834b69ac22a9cde82c053278caa012103e688acb57bae10c16a3a5b6c2aa92fd4752b23d31fbc5867de19b1dbfd9eef1affffffff020000000000000000536a4c50000077670001670d60c16cedbe78618c959a86aeaeacb577c031fc3a016b46dc7dc7d09645cfc9aa416c3929337538c1649d678d5baa08210612ea0b974fd0b31d100759d4ba30d2c37bb011d97e02cf95e40900000000001976a914995379dd43d58f776005f6c5ae82ac92b28aa0e488ac00000000", "vin": [{"sequence": 4294967295, "scriptSig": {"hex": "483045022100df4ae946d8b017933bf8e195eab4aebde03c8d0808203aa1e7426ccdc26e974a0220553134744618e75c34b884630c656bedbc466834b69ac22a9cde82c053278caa012103e688acb57bae10c16a3a5b6c2aa92fd4752b23d31fbc5867de19b1dbfd9eef1a", "asm": "3045022100df4ae946d8b017933bf8e195eab4aebde03c8d0808203aa1e7426ccdc26e974a0220553134744618e75c34b884630c656bedbc466834b69ac22a9cde82c053278caa[ALL] 03e688acb57bae10c16a3a5b6c2aa92fd4752b23d31fbc5867de19b1dbfd9eef1a"}, "vout": 1, "txid": "b37f3f68807b5be9e31bfe3c0668eef27e21bba594b846bc28f10679cc97b6ab"}], "txid": "c14a2d52527a725c32c8363262ec5fc0d49b3eaf85871aebf7d7a3ce6d0ca177", "blocktime": 1537869901, "version": 1, "confirmations": 11523, "time": 1537869901, "locktime": 0, "vsize": 284, "size": 284}