{"hash": "8e7b49983ac7fce590216014fc8aa1e78b61edac1ba045a31fa7cc191154ae85", "blockhash": "0000000000000000001cda96e906b7601b7a6fb1a3b62bca570a9e5d8f4b3de1", "vout": [{"scriptPubKey": {"reqSigs": 1, "hex": "a9142bfce671d86aef7882ac621620fd9ecfefd705df87", "addresses": ["35hbwc2JF3SQBsJPU1Sr3p8nBq8zuHdvzR"], "asm": "OP_HASH160 2bfce671d86aef7882ac621620fd9ecfefd705df OP_EQUAL", "type": "scripthash"}, "value": 0.02125805, "n": 0}, {"scriptPubKey": {"reqSigs": 1, "hex": "a914bb28ace1df080a5e4c661b999c4b43290750395787", "addresses": ["3Jkd1azgHrNAtQwNhRmxRNaW9gjhpNVGLU"], "asm": "OP_HASH160 bb28ace1df080a5e4c661b999c4b432907503957 OP_EQUAL", "type": "scripthash"}, "value": 0.0497609, "n": 1}], "hex": "0200000000010271abb4d9c1c87f41e32baaf935556271ea7a2b6188d6ec49df6cd5560edccb7b000000001716001412a943d01876f91a94096d8560702b661e3dd191feffffffde5ff76c2e070e77e403193e448cd58f844cbb622abf551b181630024a3ab2360100000017160014c7206139e61250c998df08f45bb171b9ad15d460feffffff02ed6f20000000000017a9142bfce671d86aef7882ac621620fd9ecfefd705df87daed4b000000000017a914bb28ace1df080a5e4c661b999c4b4329075039578702483045022100b7b4d8eb2a1a3cdd0ed2cf44a77daaa339ffbf9f9070b93b35f471cf5fa74028022019498e756fe9b3fa70529a0c857cab9128f6881747a2252eb98eee1ed42ef06f01210322f083485bb101f434a438502fa5e328cb65bab97b16850a741faed402ab792e024730440220287ff8ee60539392475b068663774dba772375e5ff7c36369a445185fb64de0a022025906862dfa42b18cdf0aa3d9bb393316238c03795e8915e81db57e08ce1d843012102443ff90ac5b52c8293cf9a7e0ebffd07eef4398272fea3bc8848b337081e296b13490800", "vin": [{"txinwitness": ["3045022100b7b4d8eb2a1a3cdd0ed2cf44a77daaa339ffbf9f9070b93b35f471cf5fa74028022019498e756fe9b3fa70529a0c857cab9128f6881747a2252eb98eee1ed42ef06f01", "0322f083485bb101f434a438502fa5e328cb65bab97b16850a741faed402ab792e"], "sequence": 4294967294, "scriptSig": {"hex": "16001412a943d01876f91a94096d8560702b661e3dd191", "asm": "001412a943d01876f91a94096d8560702b661e3dd191"}, "vout": 0, "txid": "7bcbdc0e56d56cdf49ecd688612b7aea71625535f9aa2be3417fc8c1d9b4ab71"}, {"txinwitness": ["30440220287ff8ee60539392475b068663774dba772375e5ff7c36369a445185fb64de0a022025906862dfa42b18cdf0aa3d9bb393316238c03795e8915e81db57e08ce1d84301", "02443ff90ac5b52c8293cf9a7e0ebffd07eef4398272fea3bc8848b337081e296b"], "sequence": 4294967294, "scriptSig": {"hex": "160014c7206139e61250c998df08f45bb171b9ad15d460", "asm": "0014c7206139e61250c998df08f45bb171b9ad15d460"}, "vout": 1, "txid": "36b23a4a023016181b55bf2a62bb4c848fd58c443e1903e4770e072e6cf75fde"}], "txid": "c14c1b2acf9ad19d8a2a983134bc2a2265b5cf25f8ef100cc32a8492b17dd477", "blocktime": 1537873282, "version": 2, "confirmations": 11481, "time": 1537873282, "locktime": 542995, "vsize": 257, "size": 419}