{"hash": "57b270db257e213b332fb3855ff6cd0cf36de08eb3c88b5d82b391b2003af941", "blockhash": "0000000000000000000dcc0f55137456b1a82d3642486a52398922ac4d620174", "vout": [{"scriptPubKey": {"reqSigs": 1, "hex": "76a9148093fc6cc067f231ecb3cccc1b82f6082d6cf12d88ac", "addresses": ["1CirmoeQwucZckVFp8GA4vKDuJQTvGMGCK"], "asm": "OP_DUP OP_HASH160 8093fc6cc067f231ecb3cccc1b82f6082d6cf12d OP_EQUALVERIFY OP_CHECKSIG", "type": "pubkeyhash"}, "value": 0.0088896, "n": 0}, {"scriptPubKey": {"reqSigs": 1, "hex": "0014fd50ff7aad26a99d69e26a4b8c5f4c790a6770c0", "addresses": ["bc1ql4g0774dy65e660zdf9cch6v0y9xwuxq24ruxt"], "asm": "0 fd50ff7aad26a99d69e26a4b8c5f4c790a6770c0", "type": "witness_v0_keyhash"}, "value": 0.00626552, "n": 1}], "hex": "0100000000010191a4993015c93f4cc5af18caed45647cfbcc679e5b143d35a44d92c243cb58b00100000017160014c73dcd5a5b7a777ffe0ae1e465ceb0b3d80c4574ffffffff0280900d00000000001976a9148093fc6cc067f231ecb3cccc1b82f6082d6cf12d88ac788f090000000000160014fd50ff7aad26a99d69e26a4b8c5f4c790a6770c0024830450221008c363d4991e5b3e25c777ccdc54d1311d00af889affa104c8a38ba5b4db85b2a0220108be2c2bcd8dfdd78b9e824f576713ed52226780df64e7de1d56813ca0df042012102b111e2ea323c03fa9daddd59e44c2fbe289c6e94b504ec6489261f69b90b146e00000000", "vin": [{"txinwitness": ["30450221008c363d4991e5b3e25c777ccdc54d1311d00af889affa104c8a38ba5b4db85b2a0220108be2c2bcd8dfdd78b9e824f576713ed52226780df64e7de1d56813ca0df04201", "02b111e2ea323c03fa9daddd59e44c2fbe289c6e94b504ec6489261f69b90b146e"], "sequence": 4294967295, "scriptSig": {"hex": "160014c73dcd5a5b7a777ffe0ae1e465ceb0b3d80c4574", "asm": "0014c73dcd5a5b7a777ffe0ae1e465ceb0b3d80c4574"}, "vout": 1, "txid": "b058cb43c2924da4353d145b9e67ccfb7c6445edca18afc54c3fc9153099a491"}], "txid": "c150b1ab1a2f69f7418219c3f138fe6f8e7cefe93a9caa99947a0d518fc86b16", "blocktime": 1537870268, "version": 1, "confirmations": 11518, "time": 1537870268, "locktime": 0, "vsize": 167, "size": 249}