{"hash": "db344d95ef33c4177961ce3058a542f6afb2fbff8307d82fbb68d0f51f35deec", "blockhash": "0000000000000000001f0ddff1eddb255c1121bcd4da4f1bc9a0da00cae72433", "vout": [{"scriptPubKey": {"reqSigs": 1, "hex": "a914a6365bcab8954ff1c644502a49ec9017f693f0c387", "addresses": ["3GqsDHajZSU8JrYGCfFLfauMkuHM8ZLUR4"], "asm": "OP_HASH160 a6365bcab8954ff1c644502a49ec9017f693f0c3 OP_EQUAL", "type": "scripthash"}, "value": 0.02165483, "n": 0}, {"scriptPubKey": {"reqSigs": 1, "hex": "a914bdc1ed43eeeafb3afce69bfeff4afa897824a3e387", "addresses": ["3JzMx55rf8TCkpi8TAnEc7DgdJyRcp6GmB"], "asm": "OP_HASH160 bdc1ed43eeeafb3afce69bfeff4afa897824a3e3 OP_EQUAL", "type": "scripthash"}, "value": 0.00521629, "n": 1}], "hex": "02000000000102d43837cd6829559b6922d6b294cdd711483698fd6c73d7ea2da309f839f09f460000000017160014b32d3357bd4d090f8eda75bbb9a28ff29a498742fdffffffe8f6035a1f3a95404f25c6c4d96c1520baff86abbbbd702de2a3a82ed71ec67b01000000171600147f8d167c9c1f5613b232a95c0ca804b0ee3dcf44fdffffff02eb0a21000000000017a914a6365bcab8954ff1c644502a49ec9017f693f0c3879df507000000000017a914bdc1ed43eeeafb3afce69bfeff4afa897824a3e387024730440220166cb7e51bfaae5e7e243df897243d8113267523658318a2c3a56e37ad22318702205fd7ff27f74769b9faec3a4407ece3df1aa4a9d70909ff81f7729021d09820270121030fbf2b655d12a78d1eb0be789904036d9c8e1dfbb1dda0853fd4402fa3cf4a4f02483045022100e8363768bd3af46b1403f7fd054c4fb8e4f6577faaa5a46a923e754dd85a3f3e0220558c64b7c92e084816140dfad78cb6c1ea47307f24a14fd27a5e6a02d35ceb5d01210370868e5db1f5485a90ce3cd84b9053e2414df6ca7841235050e39034c657d1de11490800", "vin": [{"txinwitness": ["30440220166cb7e51bfaae5e7e243df897243d8113267523658318a2c3a56e37ad22318702205fd7ff27f74769b9faec3a4407ece3df1aa4a9d70909ff81f7729021d098202701", "030fbf2b655d12a78d1eb0be789904036d9c8e1dfbb1dda0853fd4402fa3cf4a4f"], "sequence": 4294967293, "scriptSig": {"hex": "160014b32d3357bd4d090f8eda75bbb9a28ff29a498742", "asm": "0014b32d3357bd4d090f8eda75bbb9a28ff29a498742"}, "vout": 0, "txid": "469ff039f809a32dead7736cfd98364811d7cd94b2d622699b552968cd3738d4"}, {"txinwitness": ["3045022100e8363768bd3af46b1403f7fd054c4fb8e4f6577faaa5a46a923e754dd85a3f3e0220558c64b7c92e084816140dfad78cb6c1ea47307f24a14fd27a5e6a02d35ceb5d01", "0370868e5db1f5485a90ce3cd84b9053e2414df6ca7841235050e39034c657d1de"], "sequence": 4294967293, "scriptSig": {"hex": "1600147f8d167c9c1f5613b232a95c0ca804b0ee3dcf44", "asm": "00147f8d167c9c1f5613b232a95c0ca804b0ee3dcf44"}, "vout": 1, "txid": "7bc61ed72ea8a3e22d70bdbbab86ffba20156cd9c4c6254f40953a1f5a03f6e8"}], "txid": "c1528f96a4759b5813dad238e3775653860b96dbbacbfde35fb034e7a453753d", "blocktime": 1537872018, "version": 2, "confirmations": 11489, "time": 1537872018, "locktime": 542993, "vsize": 257, "size": 419}