{"hash": "34108d14ed013a23f400779b4a00700dc2ddd8a3ef83eb6b3262ed8ccaafd51b", "blockhash": "0000000000000000001f76057863aec43deb6fa401d9628bb513d65a8098bfab", "vout": [{"scriptPubKey": {"reqSigs": 1, "hex": "76a914f549a3cc3035e18f502e00ab9e70283be83c5b1988ac", "addresses": ["1PMxmas4ijjTmLm6AGaUCchVACxrC8EpcZ"], "asm": "OP_DUP OP_HASH160 f549a3cc3035e18f502e00ab9e70283be83c5b19 OP_EQUALVERIFY OP_CHECKSIG", "type": "pubkeyhash"}, "value": 0.001025, "n": 0}, {"scriptPubKey": {"reqSigs": 1, "hex": "0014f46d7cbf3d6b91c76c863b585632dc6aafe15d60", "addresses": ["bc1q73khe0eadwguwmyx8dv9vvkud2h7zhtqz7upld"], "asm": "0 f46d7cbf3d6b91c76c863b585632dc6aafe15d60", "type": "witness_v0_keyhash"}, "value": 3.381e-05, "n": 1}], "hex": "010000000001016bb5fa20c29d9f746fb3bc4016cb44b4f0df2967da4aef589d9f777d62ea29c13c00000017160014ab1db33e4760fbd8535c482546cd6e8c4e06d537ffffffff0264900100000000001976a914f549a3cc3035e18f502e00ab9e70283be83c5b1988ac350d000000000000160014f46d7cbf3d6b91c76c863b585632dc6aafe15d600247304402207c107f74f0c9aea633e17c402c2f07ad7dc4738b4abd9f1716676c9d38e891c50220573e68a819998e22448702e820e199336a2161315d02738d5cd23e58a13cd796012103fe54c4269fbd66ac018f941919a789037b7a5934dda760f87285cb82979f398500000000", "vin": [{"txinwitness": ["304402207c107f74f0c9aea633e17c402c2f07ad7dc4738b4abd9f1716676c9d38e891c50220573e68a819998e22448702e820e199336a2161315d02738d5cd23e58a13cd79601", "03fe54c4269fbd66ac018f941919a789037b7a5934dda760f87285cb82979f3985"], "sequence": 4294967295, "scriptSig": {"hex": "160014ab1db33e4760fbd8535c482546cd6e8c4e06d537", "asm": "0014ab1db33e4760fbd8535c482546cd6e8c4e06d537"}, "vout": 60, "txid": "c129ea627d779f9d58ef4ada6729dff0b444cb1640bcb36f749f9dc220fab56b"}], "txid": "c15cccb54bb509c10701a4e0b80820a651dc694027d2a910405190bf3f7ed1ec", "blocktime": 1537873891, "version": 1, "confirmations": 11478, "time": 1537873891, "locktime": 0, "vsize": 167, "size": 248}