{"hash": "c15e78fbcd041b7bf14e9155941dbf7be1e3f0646b23a8430758ef57748f5a83", "blockhash": "0000000000000000000dcc0f55137456b1a82d3642486a52398922ac4d620174", "vout": [{"scriptPubKey": {"reqSigs": 1, "hex": "76a9148283c1c6129161393150852c836319ad84e19b3088ac", "addresses": ["1Cu6ga3xb5BMfnicGr8KdwnuiZqMUWfdZx"], "asm": "OP_DUP OP_HASH160 8283c1c6129161393150852c836319ad84e19b30 OP_EQUALVERIFY OP_CHECKSIG", "type": "pubkeyhash"}, "value": 0.00516, "n": 0}, {"scriptPubKey": {"reqSigs": 1, "hex": "76a9147c38b7d71fb4d34975f3138e473b939cfc72530d88ac", "addresses": ["1CKpjddH5ESTDrdhb751btJjVBiXWzEDMW"], "asm": "OP_DUP OP_HASH160 7c38b7d71fb4d34975f3138e473b939cfc72530d OP_EQUALVERIFY OP_CHECKSIG", "type": "pubkeyhash"}, "value": 0.0412136, "n": 1}], "hex": "0100000001f1bdd16b06d3ddaa73a3cf76c4b63bfc4ebf64aa8b2d461848ce0dbc9b3f156f650100006a47304402206ba1cbcc13ab5fd53f064037ba801a2fb8c4626e081f609b9bb480fa2dcef1b80220097edb597b6887a7bd9d5b4acdb48eefaa8dc41b100f698d14145729793bcd560121023521c472126cfb49a8d396e51e85aa4a6c67cd381bd3bf562a1ffdffc10edddfffffffff02a0df0700000000001976a9148283c1c6129161393150852c836319ad84e19b3088ac10e33e00000000001976a9147c38b7d71fb4d34975f3138e473b939cfc72530d88ac00000000", "vin": [{"sequence": 4294967295, "scriptSig": {"hex": "47304402206ba1cbcc13ab5fd53f064037ba801a2fb8c4626e081f609b9bb480fa2dcef1b80220097edb597b6887a7bd9d5b4acdb48eefaa8dc41b100f698d14145729793bcd560121023521c472126cfb49a8d396e51e85aa4a6c67cd381bd3bf562a1ffdffc10edddf", "asm": "304402206ba1cbcc13ab5fd53f064037ba801a2fb8c4626e081f609b9bb480fa2dcef1b80220097edb597b6887a7bd9d5b4acdb48eefaa8dc41b100f698d14145729793bcd56[ALL] 023521c472126cfb49a8d396e51e85aa4a6c67cd381bd3bf562a1ffdffc10edddf"}, "vout": 357, "txid": "6f153f9bbc0dce4818462d8baa64bf4efc3bb6c476cfa373aaddd3066bd1bdf1"}], "txid": "c15e78fbcd041b7bf14e9155941dbf7be1e3f0646b23a8430758ef57748f5a83", "blocktime": 1537870268, "version": 1, "confirmations": 11516, "time": 1537870268, "locktime": 0, "vsize": 225, "size": 225}