{"hash": "c161fa74c5adf8afaa522a41222c2d68851c795fdcbf1f69c584fa8fdee9b333", "blockhash": "0000000000000000001f76057863aec43deb6fa401d9628bb513d65a8098bfab", "vout": [{"scriptPubKey": {"reqSigs": 1, "hex": "76a9141260648e1ff1b7f3f843d36103a71564d2cadecc88ac", "addresses": ["12gAdwcmDKfsoiMxJgXUZxx92DTKqPct5H"], "asm": "OP_DUP OP_HASH160 1260648e1ff1b7f3f843d36103a71564d2cadecc OP_EQUALVERIFY OP_CHECKSIG", "type": "pubkeyhash"}, "value": 0.00687395, "n": 0}, {"scriptPubKey": {"reqSigs": 1, "hex": "76a914b7bfac330172cc65dba78453b1ddc61f6cd77ed188ac", "addresses": ["1HkaGkkmkgJmSGrRi66x3VqqGrhacHD3LU"], "asm": "OP_DUP OP_HASH160 b7bfac330172cc65dba78453b1ddc61f6cd77ed1 OP_EQUALVERIFY OP_CHECKSIG", "type": "pubkeyhash"}, "value": 0.07056564, "n": 1}], "hex": "010000000152b5e81a170abb18bf1392d41ca67c840ef1d87785f5ac1a17339c758833a805000000006b48304502210086bec3670af03c0fd666711f9854dd226dfe6e4bc7151fd04a2f9f20ae569b98022056b9b62acdee9ff9eaf5e2d0114afea9df11c8f00e388d75a09c4c0284ecc30d012103e2a561df632331539bfb79620f0a6fe4a7fa9677d39c5d2c03179590c0c00865ffffffff02237d0a00000000001976a9141260648e1ff1b7f3f843d36103a71564d2cadecc88acb4ac6b00000000001976a914b7bfac330172cc65dba78453b1ddc61f6cd77ed188ac00000000", "vin": [{"sequence": 4294967295, "scriptSig": {"hex": "48304502210086bec3670af03c0fd666711f9854dd226dfe6e4bc7151fd04a2f9f20ae569b98022056b9b62acdee9ff9eaf5e2d0114afea9df11c8f00e388d75a09c4c0284ecc30d012103e2a561df632331539bfb79620f0a6fe4a7fa9677d39c5d2c03179590c0c00865", "asm": "304502210086bec3670af03c0fd666711f9854dd226dfe6e4bc7151fd04a2f9f20ae569b98022056b9b62acdee9ff9eaf5e2d0114afea9df11c8f00e388d75a09c4c0284ecc30d[ALL] 03e2a561df632331539bfb79620f0a6fe4a7fa9677d39c5d2c03179590c0c00865"}, "vout": 0, "txid": "05a83388759c33171aacf58577d8f10e847ca61cd49213bf18bb0a171ae8b552"}], "txid": "c161fa74c5adf8afaa522a41222c2d68851c795fdcbf1f69c584fa8fdee9b333", "blocktime": 1537873891, "version": 1, "confirmations": 11478, "time": 1537873891, "locktime": 0, "vsize": 226, "size": 226}