{"hash": "c1699daa502ef39ba39ba307719a835c802bf04238eb153bd28e2a7b85bb4e91", "blockhash": "0000000000000000001cda96e906b7601b7a6fb1a3b62bca570a9e5d8f4b3de1", "vout": [{"scriptPubKey": {"reqSigs": 1, "hex": "76a914ca07b03802517b5cc80bbc9c3ab981229353d61a88ac", "addresses": ["1KREhwsJvE8cycFpzQFErHTYDHgA3w63BB"], "asm": "OP_DUP OP_HASH160 ca07b03802517b5cc80bbc9c3ab981229353d61a OP_EQUALVERIFY OP_CHECKSIG", "type": "pubkeyhash"}, "value": 0.01835029, "n": 0}, {"scriptPubKey": {"reqSigs": 1, "hex": "76a9142e4b01267d6ed9d09049862dc74a9b9b9fe75eae88ac", "addresses": ["15DmwEDEResn3nVUCp17MU9vGBfFn42QJt"], "asm": "OP_DUP OP_HASH160 2e4b01267d6ed9d09049862dc74a9b9b9fe75eae OP_EQUALVERIFY OP_CHECKSIG", "type": "pubkeyhash"}, "value": 0.00748821, "n": 1}], "hex": "010000000626e45be6a99787cb5d86be7714f7f8b53afc5709b186090a6279255823c1871c000000006a473044022068d16355a50cab1e6b019de8b43685d7fb2acb9c66ae5907cc782dcd64d0cd7402201150136b9c2228427f8e9e7e0b866a82a7c1641f8561b8f21ddff9cf97ec8475012102f765b43729c058ca68e1e77395bdbeea1d88382ca21c78caae473cc7cff11ed6ffffffff63af554f96d91963534515c5eb11b474ba54dd4c71184f0737db1665b99dc6bc010000006a47304402207156133a38f4bfa6125514a5b00bbde2e1a2769f9e714ffce0fc2b5ad49cf5ab02203154257cd3c5e9053a0b2edb52c62c10e8d5dc89f412f54240c7a6b19a55a7b50121037f1842ae79add90ba16eef702f6f77034ced8fab7259cb8f62605fb0cc32cb11ffffffff8f08af33c7350b11d53fea39698d64a3b06c07069d0721a789ce05d596aee89b000000006a47304402204be3d69f0953124ff2948400721c48652bbce4c93479c4ab748257d107ba3ca702205ba51364363fad58ad5ceb245bdfd5e2c83394aed33fd0588fc35249ab6fa6be012103b649a544b23a69b20867b38b3ff96ff0cc1986112b9e81a509cefc37598b9757ffffffff49c7dd6dbcdfaaba1514cd78bc878e9ee63267d0ea280adaa26246411607e259000000006b483045022100825ab9d38c85682b66f17386f492c6487032babe4ccdcb3089b9f7adf8b6338502204b3ddc12c51e3d6899fed26e4c2bc8bc8bcabe1719e922ff5c1c816b3e65fd680121039fc61f289be3e8b8fb1e547db5edd5f68c403e94af9c7f6f39886c459ed8c6ddffffffff4cb29fdf8de7c3b40c17e9a3088b9c643e90c7139dc185ca72af1debecfc8d41000000006a473044022033eaad1c01fbc457c2c2b293037e9930061d4a6d15e56c3ba2ce4d779579dee6022026162d78e04a2c7d5255241499a8f7467c9e9988a8bd23255c1015dff7aa9f91012103a994eb90aca9fe1a70875c3196c9ead7e4b9431f48c0d6edaf7d8ec702018aebffffffffac4867ea8d88c965af4b08e659e25a3ae6fb68ed2b0fbf10add1a4e467ea8b1c010000006a4730440220517b5af0f513ccf6a9f34e130495cf3f514026681ae97895c6f0c4eadce9664c022029299aa6ab6df4c6499e2792a2fe8e52700456e0aa1da083cbdad8ea4ebd07b8012102c5d9e8b6c52ff20814038cca11250127b18ca7e1874dd04b7be75020db75b627ffffffff0215001c00000000001976a914ca07b03802517b5cc80bbc9c3ab981229353d61a88ac156d0b00000000001976a9142e4b01267d6ed9d09049862dc74a9b9b9fe75eae88ac00000000", "vin": [{"sequence": 4294967295, "scriptSig": {"hex": "473044022068d16355a50cab1e6b019de8b43685d7fb2acb9c66ae5907cc782dcd64d0cd7402201150136b9c2228427f8e9e7e0b866a82a7c1641f8561b8f21ddff9cf97ec8475012102f765b43729c058ca68e1e77395bdbeea1d88382ca21c78caae473cc7cff11ed6", "asm": "3044022068d16355a50cab1e6b019de8b43685d7fb2acb9c66ae5907cc782dcd64d0cd7402201150136b9c2228427f8e9e7e0b866a82a7c1641f8561b8f21ddff9cf97ec8475[ALL] 02f765b43729c058ca68e1e77395bdbeea1d88382ca21c78caae473cc7cff11ed6"}, "vout": 0, "txid": "1c87c123582579620a0986b10957fc3ab5f8f71477be865dcb8797a9e65be426"}, {"sequence": 4294967295, "scriptSig": {"hex": "47304402207156133a38f4bfa6125514a5b00bbde2e1a2769f9e714ffce0fc2b5ad49cf5ab02203154257cd3c5e9053a0b2edb52c62c10e8d5dc89f412f54240c7a6b19a55a7b50121037f1842ae79add90ba16eef702f6f77034ced8fab7259cb8f62605fb0cc32cb11", "asm": "304402207156133a38f4bfa6125514a5b00bbde2e1a2769f9e714ffce0fc2b5ad49cf5ab02203154257cd3c5e9053a0b2edb52c62c10e8d5dc89f412f54240c7a6b19a55a7b5[ALL] 037f1842ae79add90ba16eef702f6f77034ced8fab7259cb8f62605fb0cc32cb11"}, "vout": 1, "txid": "bcc69db96516db37074f18714cdd54ba74b411ebc51545536319d9964f55af63"}, {"sequence": 4294967295, "scriptSig": {"hex": "47304402204be3d69f0953124ff2948400721c48652bbce4c93479c4ab748257d107ba3ca702205ba51364363fad58ad5ceb245bdfd5e2c83394aed33fd0588fc35249ab6fa6be012103b649a544b23a69b20867b38b3ff96ff0cc1986112b9e81a509cefc37598b9757", "asm": "304402204be3d69f0953124ff2948400721c48652bbce4c93479c4ab748257d107ba3ca702205ba51364363fad58ad5ceb245bdfd5e2c83394aed33fd0588fc35249ab6fa6be[ALL] 03b649a544b23a69b20867b38b3ff96ff0cc1986112b9e81a509cefc37598b9757"}, "vout": 0, "txid": "9be8ae96d505ce89a721079d06076cb0a3648d6939ea3fd5110b35c733af088f"}, {"sequence": 4294967295, "scriptSig": {"hex": "483045022100825ab9d38c85682b66f17386f492c6487032babe4ccdcb3089b9f7adf8b6338502204b3ddc12c51e3d6899fed26e4c2bc8bc8bcabe1719e922ff5c1c816b3e65fd680121039fc61f289be3e8b8fb1e547db5edd5f68c403e94af9c7f6f39886c459ed8c6dd", "asm": "3045022100825ab9d38c85682b66f17386f492c6487032babe4ccdcb3089b9f7adf8b6338502204b3ddc12c51e3d6899fed26e4c2bc8bc8bcabe1719e922ff5c1c816b3e65fd68[ALL] 039fc61f289be3e8b8fb1e547db5edd5f68c403e94af9c7f6f39886c459ed8c6dd"}, "vout": 0, "txid": "59e20716414662a2da0a28ead06732e69e8e87bc78cd1415baaadfbc6dddc749"}, {"sequence": 4294967295, "scriptSig": {"hex": "473044022033eaad1c01fbc457c2c2b293037e9930061d4a6d15e56c3ba2ce4d779579dee6022026162d78e04a2c7d5255241499a8f7467c9e9988a8bd23255c1015dff7aa9f91012103a994eb90aca9fe1a70875c3196c9ead7e4b9431f48c0d6edaf7d8ec702018aeb", "asm": "3044022033eaad1c01fbc457c2c2b293037e9930061d4a6d15e56c3ba2ce4d779579dee6022026162d78e04a2c7d5255241499a8f7467c9e9988a8bd23255c1015dff7aa9f91[ALL] 03a994eb90aca9fe1a70875c3196c9ead7e4b9431f48c0d6edaf7d8ec702018aeb"}, "vout": 0, "txid": "418dfceceb1daf72ca85c19d13c7903e649c8b08a3e9170cb4c3e78ddf9fb24c"}, {"sequence": 4294967295, "scriptSig": {"hex": "4730440220517b5af0f513ccf6a9f34e130495cf3f514026681ae97895c6f0c4eadce9664c022029299aa6ab6df4c6499e2792a2fe8e52700456e0aa1da083cbdad8ea4ebd07b8012102c5d9e8b6c52ff20814038cca11250127b18ca7e1874dd04b7be75020db75b627", "asm": "30440220517b5af0f513ccf6a9f34e130495cf3f514026681ae97895c6f0c4eadce9664c022029299aa6ab6df4c6499e2792a2fe8e52700456e0aa1da083cbdad8ea4ebd07b8[ALL] 02c5d9e8b6c52ff20814038cca11250127b18ca7e1874dd04b7be75020db75b627"}, "vout": 1, "txid": "1c8bea67e4a4d1ad10bf0f2bed68fbe63a5ae259e6084baf65c9888dea6748ac"}], "txid": "c1699daa502ef39ba39ba307719a835c802bf04238eb153bd28e2a7b85bb4e91", "blocktime": 1537873282, "version": 1, "confirmations": 11481, "time": 1537873282, "locktime": 0, "vsize": 961, "size": 961}