{"hash": "c16e1a5f07559b283cddb99123682e1be32aa5e47ba020ed962905f9683200e3", "blockhash": "0000000000000000001e0dab787dd257d1dbfcb92a98c2207d5e1078be1f4165", "vout": [{"scriptPubKey": {"reqSigs": 1, "hex": "76a91439fda76b85e40bf654673c7b886e368fb1e63c1788ac", "addresses": ["16HdP85toxXfJ8xo2rjvWrMU44ipQoGq94"], "asm": "OP_DUP OP_HASH160 39fda76b85e40bf654673c7b886e368fb1e63c17 OP_EQUALVERIFY OP_CHECKSIG", "type": "pubkeyhash"}, "value": 0.00214097, "n": 0}, {"scriptPubKey": {"reqSigs": 1, "hex": "76a914c1454a64ff7dcc138d5405863bef661ae3a1d03688ac", "addresses": ["1JcvRRHtBQZAVQ372rAaPzPqRsQVXoNcub"], "asm": "OP_DUP OP_HASH160 c1454a64ff7dcc138d5405863bef661ae3a1d036 OP_EQUALVERIFY OP_CHECKSIG", "type": "pubkeyhash"}, "value": 0.02598839, "n": 1}], "hex": "0100000001d08674173d1d25f5dbfe8fdbee8bc5150b12b711d6994aebfcf10311ac395246010000006a47304402206e68b7bfa73b6595ee8a83ecef068bade61dc1aeedeaee9e17df998340567fb20220510c7375cfeb6274b89a7a261489f8fa7508f46390cd9855b3a60139ed28347c0121036df6ac0cb8acf81b6debd372ee7b9a824dab9307ad13c35a718db4be1ffdbfebffffffff0251440300000000001976a91439fda76b85e40bf654673c7b886e368fb1e63c1788acb7a72700000000001976a914c1454a64ff7dcc138d5405863bef661ae3a1d03688ac00000000", "vin": [{"sequence": 4294967295, "scriptSig": {"hex": "47304402206e68b7bfa73b6595ee8a83ecef068bade61dc1aeedeaee9e17df998340567fb20220510c7375cfeb6274b89a7a261489f8fa7508f46390cd9855b3a60139ed28347c0121036df6ac0cb8acf81b6debd372ee7b9a824dab9307ad13c35a718db4be1ffdbfeb", "asm": "304402206e68b7bfa73b6595ee8a83ecef068bade61dc1aeedeaee9e17df998340567fb20220510c7375cfeb6274b89a7a261489f8fa7508f46390cd9855b3a60139ed28347c[ALL] 036df6ac0cb8acf81b6debd372ee7b9a824dab9307ad13c35a718db4be1ffdbfeb"}, "vout": 1, "txid": "465239ac1103f1fceb4a99d611b7120b15c58beedb8ffedbf5251d3d177486d0"}], "txid": "c16e1a5f07559b283cddb99123682e1be32aa5e47ba020ed962905f9683200e3", "blocktime": 1537872475, "version": 1, "confirmations": 11487, "time": 1537872475, "locktime": 0, "vsize": 225, "size": 225}