{"hash": "ef50b042121c85f7701c41976d9f37684cb5c3560bc348051e29b263df62eec4", "blockhash": "0000000000000000001cda96e906b7601b7a6fb1a3b62bca570a9e5d8f4b3de1", "vout": [{"scriptPubKey": {"reqSigs": 1, "hex": "a914cfd8b84f29d8df262c583a156d54929d6f56c66487", "addresses": ["3Le1RDg262JwyC92pWiRvisWzCvduJuk4B"], "asm": "OP_HASH160 cfd8b84f29d8df262c583a156d54929d6f56c664 OP_EQUAL", "type": "scripthash"}, "value": 0.07756498, "n": 0}, {"scriptPubKey": {"reqSigs": 1, "hex": "a914f107cd72ee73e407bae3a7d3832ccdcd0ecb700d87", "addresses": ["3PfU7uR44jmD4vhjj4VDTvmRFtZhi6Pbp5"], "asm": "OP_HASH160 f107cd72ee73e407bae3a7d3832ccdcd0ecb700d OP_EQUAL", "type": "scripthash"}, "value": 2.06173213, "n": 1}], "hex": "02000000000101aaaa32b629a3de9285fc3da73330bf57608397a9eb55271b19dcb8f576b906920100000017160014eec0f115fb5686e69a14fee6bbd9993e51f64a7afeffffff02d25a76000000000017a914cfd8b84f29d8df262c583a156d54929d6f56c664871df4490c0000000017a914f107cd72ee73e407bae3a7d3832ccdcd0ecb700d8702473044022063b90fd9535ca30069c456b9812c9fd9e83f47bb962890abd09e13ef06464cfe02202b8e6fde2245f7cbb6596ac868f6db105ba2bbed66b0e97120ae9acde9cd984e01210222ae6aa8cd0b5f8c1fa563c9a1b1e04bce53cb3b58ba880c12300184276d3c2413490800", "vin": [{"txinwitness": ["3044022063b90fd9535ca30069c456b9812c9fd9e83f47bb962890abd09e13ef06464cfe02202b8e6fde2245f7cbb6596ac868f6db105ba2bbed66b0e97120ae9acde9cd984e01", "0222ae6aa8cd0b5f8c1fa563c9a1b1e04bce53cb3b58ba880c12300184276d3c24"], "sequence": 4294967294, "scriptSig": {"hex": "160014eec0f115fb5686e69a14fee6bbd9993e51f64a7a", "asm": "0014eec0f115fb5686e69a14fee6bbd9993e51f64a7a"}, "vout": 1, "txid": "9206b976f5b8dc191b2755eba997836057bf3033a73dfc8592dea329b632aaaa"}], "txid": "c170a448914208fa4a88216dfa656d8167b98d73647f2238effa38b3979ed964", "blocktime": 1537873282, "version": 2, "confirmations": 11484, "time": 1537873282, "locktime": 542995, "vsize": 166, "size": 247}