{"hash": "e453d1ede78b1a3291771a1a478ec0971f3dadbe76ec4eac35a820b9a39a70ce", "blockhash": "0000000000000000000e13cef7c366c0283d82e591d1acd082e914b08063cdf1", "vout": [{"scriptPubKey": {"reqSigs": 1, "hex": "76a9148daeac066cb1b888977c17956d097a46a27f384788ac", "addresses": ["1Dv9XUEY7ZmQh86VxbFp9VGBsUdHwTLShE"], "asm": "OP_DUP OP_HASH160 8daeac066cb1b888977c17956d097a46a27f3847 OP_EQUALVERIFY OP_CHECKSIG", "type": "pubkeyhash"}, "value": 0.012615, "n": 0}, {"scriptPubKey": {"reqSigs": 1, "hex": "a9143602e963505f4eddc77e6f34ed66833cffcbde4187", "addresses": ["36cbuD5deew9BYyw3RrcpmXjSBDvQxJDF1"], "asm": "OP_HASH160 3602e963505f4eddc77e6f34ed66833cffcbde41 OP_EQUAL", "type": "scripthash"}, "value": 0.01089099, "n": 1}], "hex": "020000000001021eb0b64ede07311097d0836529a019162d3b902558efd8c04814f999f75f97c100000000171600142eb903fac6f18ce8893ce53c224c6c6a88a77226feffffff8624cf192991b1e2631853b2845967d34b989eb31cd201f30819c309b10f4c65010000001716001445325227d281483ef53aa616a6826dbbcbe73a71feffffff02bc3f1300000000001976a9148daeac066cb1b888977c17956d097a46a27f384788ac4b9e10000000000017a9143602e963505f4eddc77e6f34ed66833cffcbde41870247304402203fc96a9b9e95928004e91f55b404e416b55a718df007cdfba40d8edeb6a4675202204b7d6636393abd4bc08698bc06640977088acf275f91c4cf0f5824449747d0990121031cb57ff2fe1a99c56d4451089df74038a32f3a3f9e0cfaba3cc46481a8a6f49a0247304402207c3d0ba2586729f0237867a570d6ddb24588eb4f6d66a18d3bdf06906290d87c022061a613ce931ef9ae7ec0c1564af76a0e060596a7a32cd9a06b63b3129261277b0121020527e3c0c3d86aae612161157a3d73122804c76d47bb10fbc2c8f90c4e4b56b90f490800", "vin": [{"txinwitness": ["304402203fc96a9b9e95928004e91f55b404e416b55a718df007cdfba40d8edeb6a4675202204b7d6636393abd4bc08698bc06640977088acf275f91c4cf0f5824449747d09901", "031cb57ff2fe1a99c56d4451089df74038a32f3a3f9e0cfaba3cc46481a8a6f49a"], "sequence": 4294967294, "scriptSig": {"hex": "1600142eb903fac6f18ce8893ce53c224c6c6a88a77226", "asm": "00142eb903fac6f18ce8893ce53c224c6c6a88a77226"}, "vout": 0, "txid": "c1975ff799f91448c0d8ef5825903b2d1619a0296583d097103107de4eb6b01e"}, {"txinwitness": ["304402207c3d0ba2586729f0237867a570d6ddb24588eb4f6d66a18d3bdf06906290d87c022061a613ce931ef9ae7ec0c1564af76a0e060596a7a32cd9a06b63b3129261277b01", "020527e3c0c3d86aae612161157a3d73122804c76d47bb10fbc2c8f90c4e4b56b9"], "sequence": 4294967294, "scriptSig": {"hex": "16001445325227d281483ef53aa616a6826dbbcbe73a71", "asm": "001445325227d281483ef53aa616a6826dbbcbe73a71"}, "vout": 1, "txid": "654c0fb109c31908f301d21cb39e984bd3675984b2531863e2b1912919cf2486"}], "txid": "c178e72dad506377e6fc293e492aad20784054945fce062d8914885184cf9951", "blocktime": 1537871767, "version": 2, "confirmations": 11495, "time": 1537871767, "locktime": 542991, "vsize": 258, "size": 420}