{"hash": "c1785caf7df9d5ad33365d866abd9498948a821e584e350ea582b1a2a539fb00", "blockhash": "0000000000000000001cda96e906b7601b7a6fb1a3b62bca570a9e5d8f4b3de1", "vout": [{"scriptPubKey": {"reqSigs": 1, "hex": "76a91491c3a769ad3ec5f8597d32d475819dbaf485e8d688ac", "addresses": ["1EHjN6Fq1jU9xvxyyBz7MiZ7ZyFsDULune"], "asm": "OP_DUP OP_HASH160 91c3a769ad3ec5f8597d32d475819dbaf485e8d6 OP_EQUALVERIFY OP_CHECKSIG", "type": "pubkeyhash"}, "value": 2.46001813, "n": 0}], "hex": "0100000006eb437c7191169691803ab68f2a3fa7264695672b4e2f59ba262e7263af4c550e000000006b483045022100d4f30bd9681618e4c489838f9a1e0d35c0235217809868fe6b694756bdd3bf93022066fdc50a5623861aedbcf56c04b35c553c06f4666cd74605dc09fc07b3a652af0121030bf3618bc466bf8f00c684de333202c19caeddac85e5ee6575b176d01d5c3241ffffffff7482c966e279dff4843ab75747d415662a815d83069165fe7f47fda196113e17000000006a4730440220698b05990b72a123a424aeb844192e845ef12f493ecfea3cbe7075acb27fc9f60220531a6f140248b527b9b6bf7495e35fce8beed341d3bb7c8012c5e61aeb420e100121034be6dba4e13d8dc39c068cb71f16e07c97befdfb62aa89a4dbdbf38e24629c9cffffffffa2ba457ea0348cf5004c03ac8823dc15c86b9472028dfe60dd6b4e973bde7a40000000006b483045022100fe433309d4d575cf03a4157a35f4ae58faf89dbf8e228a163184491609bbacdd022055d483cb011103fd7de806d6bb9f3083fe346751e8383f37011f31f2f09b510d0121034be6dba4e13d8dc39c068cb71f16e07c97befdfb62aa89a4dbdbf38e24629c9cffffffff43f394a55ee9efa6c1fe918320e244df9b6660a9b38165c79acd522188f73c42000000006a47304402202c4f06cda72e5b6964e021a76d0f19d9bfb0a1ef58127bad469ea67e04f1af3102202c60d26906fba9050c2094364387023a36bf327c40fa57fc25e55b12815a14a00121034be6dba4e13d8dc39c068cb71f16e07c97befdfb62aa89a4dbdbf38e24629c9cffffffff8958189bc5d4538f2905cb83033277b2998f515bfd963d9bedadcbf66827236f000000006b483045022100db1f0cc87311306f85cd9a6a7f454673d532d4246ad844bf5474f09ca816dd8502201cb693ea28218b1286865e4f332a81e0dc5306120e24d551f1a11f7351be64dc012102dfcd4d7b121f0d89965708d3c5cc057b837754e13a47cfdcc57c7a1417bab5e2ffffffffd5909a4d6e4f9d6b4d8b2b0a52d9389b5001789418cb73b7627b0e6537c03eb2000000006a473044022027a71aa0bead7e4b889c89d977138cb13fb15269e4f65cf9e54b4e0efe34278f022057e3301c713da84ffea63bc89899c8dc84ac2741743d5ee1b11b305c8e3c678b0121034be6dba4e13d8dc39c068cb71f16e07c97befdfb62aa89a4dbdbf38e24629c9cffffffff0195b0a90e000000001976a91491c3a769ad3ec5f8597d32d475819dbaf485e8d688ac00000000", "vin": [{"sequence": 4294967295, "scriptSig": {"hex": "483045022100d4f30bd9681618e4c489838f9a1e0d35c0235217809868fe6b694756bdd3bf93022066fdc50a5623861aedbcf56c04b35c553c06f4666cd74605dc09fc07b3a652af0121030bf3618bc466bf8f00c684de333202c19caeddac85e5ee6575b176d01d5c3241", "asm": "3045022100d4f30bd9681618e4c489838f9a1e0d35c0235217809868fe6b694756bdd3bf93022066fdc50a5623861aedbcf56c04b35c553c06f4666cd74605dc09fc07b3a652af[ALL] 030bf3618bc466bf8f00c684de333202c19caeddac85e5ee6575b176d01d5c3241"}, "vout": 0, "txid": "0e554caf63722e26ba592f4e2b67954626a73f2a8fb63a8091961691717c43eb"}, {"sequence": 4294967295, "scriptSig": {"hex": "4730440220698b05990b72a123a424aeb844192e845ef12f493ecfea3cbe7075acb27fc9f60220531a6f140248b527b9b6bf7495e35fce8beed341d3bb7c8012c5e61aeb420e100121034be6dba4e13d8dc39c068cb71f16e07c97befdfb62aa89a4dbdbf38e24629c9c", "asm": "30440220698b05990b72a123a424aeb844192e845ef12f493ecfea3cbe7075acb27fc9f60220531a6f140248b527b9b6bf7495e35fce8beed341d3bb7c8012c5e61aeb420e10[ALL] 034be6dba4e13d8dc39c068cb71f16e07c97befdfb62aa89a4dbdbf38e24629c9c"}, "vout": 0, "txid": "173e1196a1fd477ffe659106835d812a6615d44757b73a84f4df79e266c98274"}, {"sequence": 4294967295, "scriptSig": {"hex": "483045022100fe433309d4d575cf03a4157a35f4ae58faf89dbf8e228a163184491609bbacdd022055d483cb011103fd7de806d6bb9f3083fe346751e8383f37011f31f2f09b510d0121034be6dba4e13d8dc39c068cb71f16e07c97befdfb62aa89a4dbdbf38e24629c9c", "asm": "3045022100fe433309d4d575cf03a4157a35f4ae58faf89dbf8e228a163184491609bbacdd022055d483cb011103fd7de806d6bb9f3083fe346751e8383f37011f31f2f09b510d[ALL] 034be6dba4e13d8dc39c068cb71f16e07c97befdfb62aa89a4dbdbf38e24629c9c"}, "vout": 0, "txid": "407ade3b974e6bdd60fe8d0272946bc815dc2388ac034c00f58c34a07e45baa2"}, {"sequence": 4294967295, "scriptSig": {"hex": "47304402202c4f06cda72e5b6964e021a76d0f19d9bfb0a1ef58127bad469ea67e04f1af3102202c60d26906fba9050c2094364387023a36bf327c40fa57fc25e55b12815a14a00121034be6dba4e13d8dc39c068cb71f16e07c97befdfb62aa89a4dbdbf38e24629c9c", "asm": "304402202c4f06cda72e5b6964e021a76d0f19d9bfb0a1ef58127bad469ea67e04f1af3102202c60d26906fba9050c2094364387023a36bf327c40fa57fc25e55b12815a14a0[ALL] 034be6dba4e13d8dc39c068cb71f16e07c97befdfb62aa89a4dbdbf38e24629c9c"}, "vout": 0, "txid": "423cf7882152cd9ac76581b3a960669bdf44e2208391fec1a6efe95ea594f343"}, {"sequence": 4294967295, "scriptSig": {"hex": "483045022100db1f0cc87311306f85cd9a6a7f454673d532d4246ad844bf5474f09ca816dd8502201cb693ea28218b1286865e4f332a81e0dc5306120e24d551f1a11f7351be64dc012102dfcd4d7b121f0d89965708d3c5cc057b837754e13a47cfdcc57c7a1417bab5e2", "asm": "3045022100db1f0cc87311306f85cd9a6a7f454673d532d4246ad844bf5474f09ca816dd8502201cb693ea28218b1286865e4f332a81e0dc5306120e24d551f1a11f7351be64dc[ALL] 02dfcd4d7b121f0d89965708d3c5cc057b837754e13a47cfdcc57c7a1417bab5e2"}, "vout": 0, "txid": "6f232768f6cbaded9b3d96fd5b518f99b277320383cb05298f53d4c59b185889"}, {"sequence": 4294967295, "scriptSig": {"hex": "473044022027a71aa0bead7e4b889c89d977138cb13fb15269e4f65cf9e54b4e0efe34278f022057e3301c713da84ffea63bc89899c8dc84ac2741743d5ee1b11b305c8e3c678b0121034be6dba4e13d8dc39c068cb71f16e07c97befdfb62aa89a4dbdbf38e24629c9c", "asm": "3044022027a71aa0bead7e4b889c89d977138cb13fb15269e4f65cf9e54b4e0efe34278f022057e3301c713da84ffea63bc89899c8dc84ac2741743d5ee1b11b305c8e3c678b[ALL] 034be6dba4e13d8dc39c068cb71f16e07c97befdfb62aa89a4dbdbf38e24629c9c"}, "vout": 0, "txid": "b23ec037650e7b62b773cb18947801509b38d9520a2b8b4d6b9d4f6e4d9a90d5"}], "txid": "c1785caf7df9d5ad33365d866abd9498948a821e584e350ea582b1a2a539fb00", "blocktime": 1537873282, "version": 1, "confirmations": 11484, "time": 1537873282, "locktime": 0, "vsize": 929, "size": 929}