{"hash": "fdc286dd129946e0b28499c7ebdafe834c2523fadd0ec9cbd8dceceaded0ab5f", "blockhash": "000000000000000000022b45ed06c6f4ccd3cf7fb5ba4856ebd2e58215665228", "vout": [{"scriptPubKey": {"reqSigs": 1, "hex": "76a914b186a1a26cc1d740aded6889eda9953a9cb0fa9688ac", "addresses": ["1HBftJnM2QMhs7sZ26chcZ55cg3N35mnUJ"], "asm": "OP_DUP OP_HASH160 b186a1a26cc1d740aded6889eda9953a9cb0fa96 OP_EQUALVERIFY OP_CHECKSIG", "type": "pubkeyhash"}, "value": 0.01764246, "n": 0}, {"scriptPubKey": {"reqSigs": 1, "hex": "00148c280277095b1440d3c544247ea209fa3bc2902c", "addresses": ["bc1q3s5qyacftv2yp579gsj8agsflgau9ypvk7f2av"], "asm": "0 8c280277095b1440d3c544247ea209fa3bc2902c", "type": "witness_v0_keyhash"}, "value": 0.01361637, "n": 1}], "hex": "01000000000101d2d0a15cb8ce9502a573fd21f7e21e8400473d557ac7de2bf1fe74094af049800000000000ffffffff0296eb1a00000000001976a914b186a1a26cc1d740aded6889eda9953a9cb0fa9688ace5c61400000000001600148c280277095b1440d3c544247ea209fa3bc2902c0247304402207623aefd9057786f83fcd650b864c92e70de48f8f68cb2c509fa19aec5e8df40022072bfe742d23f7cf33d530886e1d4575fc063445651ff38adf8556929ca1c17400121024c5d998a64fbb920f77efeaeaeb5de255a0b1282e0ad112660c27482bf42a9d800000000", "vin": [{"txinwitness": ["304402207623aefd9057786f83fcd650b864c92e70de48f8f68cb2c509fa19aec5e8df40022072bfe742d23f7cf33d530886e1d4575fc063445651ff38adf8556929ca1c174001", "024c5d998a64fbb920f77efeaeaeb5de255a0b1282e0ad112660c27482bf42a9d8"], "sequence": 4294967295, "scriptSig": {"hex": "", "asm": ""}, "vout": 0, "txid": "8049f04a0974fef12bdec77a553d4700841ee2f721fd73a50295ceb85ca1d0d2"}], "txid": "c17adb38922d2b71652a962e54d7f1b57710d311e9a17ae97312cbe786ded9de", "blocktime": 1537869901, "version": 1, "confirmations": 11523, "time": 1537869901, "locktime": 0, "vsize": 144, "size": 225}