{"hash": "c17eba2e85012e99d5659bd6cb5d277bec50aa9f23829bc57e3af05dbcc7d26a", "blockhash": "0000000000000000001cda96e906b7601b7a6fb1a3b62bca570a9e5d8f4b3de1", "vout": [{"scriptPubKey": {"reqSigs": 1, "hex": "a91401d445bc6077af46932fd5a75e0c748d3e6ce3af87", "addresses": ["31rgtgSnWMD8yXSYaCTck3Ry4ZAjnMEtJi"], "asm": "OP_HASH160 01d445bc6077af46932fd5a75e0c748d3e6ce3af OP_EQUAL", "type": "scripthash"}, "value": 0.0029703, "n": 0}, {"scriptPubKey": {"reqSigs": 1, "hex": "76a91490aaf4470ec18c8e626ef26607692a855554aaaf88ac", "addresses": ["1EBw6jMeioYTKKM3LFZTHLDqHovVuWwgYw"], "asm": "OP_DUP OP_HASH160 90aaf4470ec18c8e626ef26607692a855554aaaf OP_EQUALVERIFY OP_CHECKSIG", "type": "pubkeyhash"}, "value": 0.01770582, "n": 1}], "hex": "0100000001ba6dd8608a7fe537036a693970fc746a33bdc293aeea5380aae6a4c5e6f0249c010000006a473044022049c108b1205ca109165ccfa8fc63ce7e120ff47ee6fd793474b04d8c49bdc27402206cb9de18b2a7c4727f6682b4f25aa05f0cb83af0353ef2b0073471db716cb8b6012102dfc207911c0e6c8fadf1aa9535e6b950a244e83812fd24fb2c9f0ddaa6722ed2ffffffff02468804000000000017a91401d445bc6077af46932fd5a75e0c748d3e6ce3af8756041b00000000001976a91490aaf4470ec18c8e626ef26607692a855554aaaf88ac00000000", "vin": [{"sequence": 4294967295, "scriptSig": {"hex": "473044022049c108b1205ca109165ccfa8fc63ce7e120ff47ee6fd793474b04d8c49bdc27402206cb9de18b2a7c4727f6682b4f25aa05f0cb83af0353ef2b0073471db716cb8b6012102dfc207911c0e6c8fadf1aa9535e6b950a244e83812fd24fb2c9f0ddaa6722ed2", "asm": "3044022049c108b1205ca109165ccfa8fc63ce7e120ff47ee6fd793474b04d8c49bdc27402206cb9de18b2a7c4727f6682b4f25aa05f0cb83af0353ef2b0073471db716cb8b6[ALL] 02dfc207911c0e6c8fadf1aa9535e6b950a244e83812fd24fb2c9f0ddaa6722ed2"}, "vout": 1, "txid": "9c24f0e6c5a4e6aa8053eaae93c2bd336a74fc7039696a0337e57f8a60d86dba"}], "txid": "c17eba2e85012e99d5659bd6cb5d277bec50aa9f23829bc57e3af05dbcc7d26a", "blocktime": 1537873282, "version": 1, "confirmations": 11483, "time": 1537873282, "locktime": 0, "vsize": 223, "size": 223}