{"hash": "c18096a68f88a3fd54b50ddd0963f0e5a193e0ce4b71d48a328f88278295fcaa", "blockhash": "0000000000000000001f76057863aec43deb6fa401d9628bb513d65a8098bfab", "vout": [{"scriptPubKey": {"reqSigs": 1, "hex": "76a914932685b85434d2400ea5a78d39064506150d79f688ac", "addresses": ["1ER4Un9heGCaE7W9AuSBAHuucoxTRANhMU"], "asm": "OP_DUP OP_HASH160 932685b85434d2400ea5a78d39064506150d79f6 OP_EQUALVERIFY OP_CHECKSIG", "type": "pubkeyhash"}, "value": 4.28e-05, "n": 0}, {"scriptPubKey": {"reqSigs": 1, "hex": "a9141bb889e785788d45772425dd5a72b2050e703afb87", "addresses": ["34DbEhKqJDNBdipd3pUNVQnGxa8GiSc1d6"], "asm": "OP_HASH160 1bb889e785788d45772425dd5a72b2050e703afb OP_EQUAL", "type": "scripthash"}, "value": 0.00216704, "n": 1}], "hex": "01000000035bbea4bcf0840bc2b039413c64c83a1068b6360738481096ef90b5c984b5a71f010000008b483045022100d83a72dfa219293eef3b1c1dd25820dd11502d72791877630dc2a837582922630220436eaf5e9113760b432d11ecae4ec23e01ad8c0942deb829d57f59ee41945961014104613f864e2dbd02f712994d496f6ea0008c393f8cfe714cb250aff459c7c730567ad139609e37adde8faa24ec1ce546553b57f11d7f6fd6c7c8fb01341538c6eaffffffffcc88e658ea62d75abd19b0f0831db61a79780a48c82049f4dcaba43ac6ff82760b0000008b483045022100e237bf3a8d7527ee592b682694cd85f0fd1736bffdbc4392560e7bce63a4224d02204f3f68acf9e63a9b877aeb51cd09bb9bad653d095babe41f4cead580bb036abd014104613f864e2dbd02f712994d496f6ea0008c393f8cfe714cb250aff459c7c730567ad139609e37adde8faa24ec1ce546553b57f11d7f6fd6c7c8fb01341538c6eaffffffff39fb585c56b41b15aebab0e137f80ea7fb9834d7d4f895e068eca766fe60bde5010000008b483045022100c3af39dcf3562b383d5c31ebe0ed209fbc115f22f8a0a9278de91f4161b3620f02200968472748eed63be1612bcdeae089f3c706fb94656a8d8cc5760285cce6ac57014104613f864e2dbd02f712994d496f6ea0008c393f8cfe714cb250aff459c7c730567ad139609e37adde8faa24ec1ce546553b57f11d7f6fd6c7c8fb01341538c6eaffffffff02b8100000000000001976a914932685b85434d2400ea5a78d39064506150d79f688ac804e03000000000017a9141bb889e785788d45772425dd5a72b2050e703afb8700000000", "vin": [{"sequence": 4294967295, "scriptSig": {"hex": "483045022100d83a72dfa219293eef3b1c1dd25820dd11502d72791877630dc2a837582922630220436eaf5e9113760b432d11ecae4ec23e01ad8c0942deb829d57f59ee41945961014104613f864e2dbd02f712994d496f6ea0008c393f8cfe714cb250aff459c7c730567ad139609e37adde8faa24ec1ce546553b57f11d7f6fd6c7c8fb01341538c6ea", "asm": "3045022100d83a72dfa219293eef3b1c1dd25820dd11502d72791877630dc2a837582922630220436eaf5e9113760b432d11ecae4ec23e01ad8c0942deb829d57f59ee41945961[ALL] 04613f864e2dbd02f712994d496f6ea0008c393f8cfe714cb250aff459c7c730567ad139609e37adde8faa24ec1ce546553b57f11d7f6fd6c7c8fb01341538c6ea"}, "vout": 1, "txid": "1fa7b584c9b590ef961048380736b668103ac8643c4139b0c20b84f0bca4be5b"}, {"sequence": 4294967295, "scriptSig": {"hex": "483045022100e237bf3a8d7527ee592b682694cd85f0fd1736bffdbc4392560e7bce63a4224d02204f3f68acf9e63a9b877aeb51cd09bb9bad653d095babe41f4cead580bb036abd014104613f864e2dbd02f712994d496f6ea0008c393f8cfe714cb250aff459c7c730567ad139609e37adde8faa24ec1ce546553b57f11d7f6fd6c7c8fb01341538c6ea", "asm": "3045022100e237bf3a8d7527ee592b682694cd85f0fd1736bffdbc4392560e7bce63a4224d02204f3f68acf9e63a9b877aeb51cd09bb9bad653d095babe41f4cead580bb036abd[ALL] 04613f864e2dbd02f712994d496f6ea0008c393f8cfe714cb250aff459c7c730567ad139609e37adde8faa24ec1ce546553b57f11d7f6fd6c7c8fb01341538c6ea"}, "vout": 11, "txid": "7682ffc63aa4abdcf44920c8480a78791ab61d83f0b019bd5ad762ea58e688cc"}, {"sequence": 4294967295, "scriptSig": {"hex": "483045022100c3af39dcf3562b383d5c31ebe0ed209fbc115f22f8a0a9278de91f4161b3620f02200968472748eed63be1612bcdeae089f3c706fb94656a8d8cc5760285cce6ac57014104613f864e2dbd02f712994d496f6ea0008c393f8cfe714cb250aff459c7c730567ad139609e37adde8faa24ec1ce546553b57f11d7f6fd6c7c8fb01341538c6ea", "asm": "3045022100c3af39dcf3562b383d5c31ebe0ed209fbc115f22f8a0a9278de91f4161b3620f02200968472748eed63be1612bcdeae089f3c706fb94656a8d8cc5760285cce6ac57[ALL] 04613f864e2dbd02f712994d496f6ea0008c393f8cfe714cb250aff459c7c730567ad139609e37adde8faa24ec1ce546553b57f11d7f6fd6c7c8fb01341538c6ea"}, "vout": 1, "txid": "e5bd60fe66a7ec68e095f8d4d73498fba70ef837e1b0baae151bb4565c58fb39"}], "txid": "c18096a68f88a3fd54b50ddd0963f0e5a193e0ce4b71d48a328f88278295fcaa", "blocktime": 1537873891, "version": 1, "confirmations": 11478, "time": 1537873891, "locktime": 0, "vsize": 616, "size": 616}