{"hash": "c18b6543cedaa6d330b01ce15a85ba89ba97355c83ac2f89d8910f9202ef766e", "blockhash": "00000000000000000017f5eb5941039fbcee6240d03bc1f2f8e35350df66a1d8", "vout": [{"scriptPubKey": {"type": "nulldata", "hex": "6a4c50000077f9000173c6785583fdcd5810d7b003d19ed074892d00f8e87af8e8e963c7cfd5b91c6ec5b79404a56ae471711b4400952f5baa18ec061413bf410ec9ccbc9a9526289ac0f6612cd74e33776ee4", "asm": "OP_RETURN 000077f9000173c6785583fdcd5810d7b003d19ed074892d00f8e87af8e8e963c7cfd5b91c6ec5b79404a56ae471711b4400952f5baa18ec061413bf410ec9ccbc9a9526289ac0f6612cd74e33776ee4"}, "value": 0.0, "n": 0}, {"scriptPubKey": {"reqSigs": 1, "hex": "76a914bd8c2f21ed3e1a055186f2117d8b1ce29062d61c88ac", "addresses": ["1JHEeRHjfwJN8hNGCd3QtuwoADZPGrQsiP"], "asm": "OP_DUP OP_HASH160 bd8c2f21ed3e1a055186f2117d8b1ce29062d61c OP_EQUALVERIFY OP_CHECKSIG", "type": "pubkeyhash"}, "value": 0.0008584, "n": 1}], "hex": "01000000011241fc497aa87c7209c372edee2e2525bd4c214ed678b5e5d2382404d5b519aa000000006b483045022100fc7960e6b9e2d8a27842c5072d32dc0d885199be59de3674364d9db34bf1b44302207bdcb4fab9265b3251d99fdfbf169208677dae9f213caf7ce80bb32c31d0ec9501210328c7420d54657d2cfda8b2e5349b10408784e424b57396377ff370d413d81d79ffffffff020000000000000000536a4c50000077f9000173c6785583fdcd5810d7b003d19ed074892d00f8e87af8e8e963c7cfd5b91c6ec5b79404a56ae471711b4400952f5baa18ec061413bf410ec9ccbc9a9526289ac0f6612cd74e33776ee4504f0100000000001976a914bd8c2f21ed3e1a055186f2117d8b1ce29062d61c88ac00000000", "vin": [{"sequence": 4294967295, "scriptSig": {"hex": "483045022100fc7960e6b9e2d8a27842c5072d32dc0d885199be59de3674364d9db34bf1b44302207bdcb4fab9265b3251d99fdfbf169208677dae9f213caf7ce80bb32c31d0ec9501210328c7420d54657d2cfda8b2e5349b10408784e424b57396377ff370d413d81d79", "asm": "3045022100fc7960e6b9e2d8a27842c5072d32dc0d885199be59de3674364d9db34bf1b44302207bdcb4fab9265b3251d99fdfbf169208677dae9f213caf7ce80bb32c31d0ec95[ALL] 0328c7420d54657d2cfda8b2e5349b10408784e424b57396377ff370d413d81d79"}, "vout": 0, "txid": "aa19b5d5042438d2e5b578d64e214cbd25252eeeed72c309727ca87a49fc4112"}], "txid": "c18b6543cedaa6d330b01ce15a85ba89ba97355c83ac2f89d8910f9202ef766e", "blocktime": 1537874412, "version": 1, "confirmations": 11467, "time": 1537874412, "locktime": 0, "vsize": 284, "size": 284}