{"hash": "c190314068f2e702acfdaeea018df45ff0917e241f94e0e742ea97421a715f6f", "blockhash": "0000000000000000001cda96e906b7601b7a6fb1a3b62bca570a9e5d8f4b3de1", "vout": [{"scriptPubKey": {"reqSigs": 1, "hex": "76a914f39f952dec4b4622d40a868858c276b5a25c6f9588ac", "addresses": ["1PDANcovJbBPzjNGNTCvij1bRxaK6rsEJZ"], "asm": "OP_DUP OP_HASH160 f39f952dec4b4622d40a868858c276b5a25c6f95 OP_EQUALVERIFY OP_CHECKSIG", "type": "pubkeyhash"}, "value": 0.0055237, "n": 0}, {"scriptPubKey": {"reqSigs": 1, "hex": "76a914d89ff65407f983a5192c636bf3b96374fc11d48388ac", "addresses": ["1LkQaohqqJS1yYMTyy2vLaKYAe7W3rkVfz"], "asm": "OP_DUP OP_HASH160 d89ff65407f983a5192c636bf3b96374fc11d483 OP_EQUALVERIFY OP_CHECKSIG", "type": "pubkeyhash"}, "value": 0.0780651, "n": 1}], "hex": "01000000010a2323253967f9e71a708697a7942ffffb4205bd07d060bb8e7cfb99538e1475000000006a47304402205f121ee2fc4bcb216efd178e4071c28eb5d6538c1a3637b3807ad925e0edb2d0022046fe936cddfc60eff70ed47cdd12cf8581d744dc1c6756a87879d40baf62cf580121028c2bc8d693ff9360d1a07b6cb163cf6d35b2f15418cefc3a550c99d1dbfb7b04ffffffff02b26d0800000000001976a914f39f952dec4b4622d40a868858c276b5a25c6f9588ac2e1e7700000000001976a914d89ff65407f983a5192c636bf3b96374fc11d48388ac00000000", "vin": [{"sequence": 4294967295, "scriptSig": {"hex": "47304402205f121ee2fc4bcb216efd178e4071c28eb5d6538c1a3637b3807ad925e0edb2d0022046fe936cddfc60eff70ed47cdd12cf8581d744dc1c6756a87879d40baf62cf580121028c2bc8d693ff9360d1a07b6cb163cf6d35b2f15418cefc3a550c99d1dbfb7b04", "asm": "304402205f121ee2fc4bcb216efd178e4071c28eb5d6538c1a3637b3807ad925e0edb2d0022046fe936cddfc60eff70ed47cdd12cf8581d744dc1c6756a87879d40baf62cf58[ALL] 028c2bc8d693ff9360d1a07b6cb163cf6d35b2f15418cefc3a550c99d1dbfb7b04"}, "vout": 0, "txid": "75148e5399fb7c8ebb60d007bd0542fbff2f94a79786701ae7f967392523230a"}], "txid": "c190314068f2e702acfdaeea018df45ff0917e241f94e0e742ea97421a715f6f", "blocktime": 1537873282, "version": 1, "confirmations": 11485, "time": 1537873282, "locktime": 0, "vsize": 225, "size": 225}