{"hash": "6a28f25bd679b50da4f0a6c1eb4062086eac1f2217cf5bf5947c52e67b04aa2b", "blockhash": "0000000000000000000e13cef7c366c0283d82e591d1acd082e914b08063cdf1", "vout": [{"scriptPubKey": {"type": "nulldata", "hex": "6a146f6d6e69000000000000001f000000e89f98bd80", "asm": "OP_RETURN 6f6d6e69000000000000001f000000e89f98bd80"}, "value": 0.0, "n": 0}, {"scriptPubKey": {"reqSigs": 1, "hex": "76a9149c145b3c0d998d5943c16489102ce5a9ba40931b88ac", "addresses": ["1FEGoK6VW85WqfwDvybjyBWYjPAASJeZfw"], "asm": "OP_DUP OP_HASH160 9c145b3c0d998d5943c16489102ce5a9ba40931b OP_EQUALVERIFY OP_CHECKSIG", "type": "pubkeyhash"}, "value": 2.73e-05, "n": 1}, {"scriptPubKey": {"reqSigs": 1, "hex": "a914e818e90b8e6b38dba66f74b35cb708bbc73e2ea787", "addresses": ["3NrEXrB9qAxXYfRt6jKtBD8QzoU2qtNWDR"], "asm": "OP_HASH160 e818e90b8e6b38dba66f74b35cb708bbc73e2ea7 OP_EQUAL", "type": "scripthash"}, "value": 37.0953475, "n": 2}], "hex": "01000000000102204236eae241090f9403926de12b9ddf11e7dc0050e49facdd0d629b3e19962a0100000017160014000b814f2c1a19852357ed615a08ec572a781ed1ffffffff56e0e133c05ba8a520a70c842e7915a4161edbe62e809b24f90d3fcde39da20901000000171600140a98495764ee9540de5e7eea13571debd6566387ffffffff030000000000000000166a146f6d6e69000000000000001f000000e89f98bd80aa0a0000000000001976a9149c145b3c0d998d5943c16489102ce5a9ba40931b88ac1e021bdd0000000017a914e818e90b8e6b38dba66f74b35cb708bbc73e2ea78702473044022026ff35a00f72457fd8e1c3f6af5f82fbbe3c7646069eba38878b98205b4b76ab022034077d5614eb5ac5b2c3e7294195436c1456e4a2a7b3b24b94a4fcc47a7b8cc5012102aad79950b2c2af3689e8644c89e9d10dff06c2d8926200496b92e9f7ccb0304c02473044022070fa583839265f733810eadaf3f5312c0050d39d9345cc6d7b32b97e588692fd02200ffda0736584335d293ff3469e646aa784091e82aa2f86e167b9364357b2ab09012102eabe37aadd634330318b87965c043f82e877585d973136b81cc01cb0c18a622c00000000", "vin": [{"txinwitness": ["3044022026ff35a00f72457fd8e1c3f6af5f82fbbe3c7646069eba38878b98205b4b76ab022034077d5614eb5ac5b2c3e7294195436c1456e4a2a7b3b24b94a4fcc47a7b8cc501", "02aad79950b2c2af3689e8644c89e9d10dff06c2d8926200496b92e9f7ccb0304c"], "sequence": 4294967295, "scriptSig": {"hex": "160014000b814f2c1a19852357ed615a08ec572a781ed1", "asm": "0014000b814f2c1a19852357ed615a08ec572a781ed1"}, "vout": 1, "txid": "2a96193e9b620dddac9fe45000dce711df9d2be16d9203940f0941e2ea364220"}, {"txinwitness": ["3044022070fa583839265f733810eadaf3f5312c0050d39d9345cc6d7b32b97e588692fd02200ffda0736584335d293ff3469e646aa784091e82aa2f86e167b9364357b2ab0901", "02eabe37aadd634330318b87965c043f82e877585d973136b81cc01cb0c18a622c"], "sequence": 4294967295, "scriptSig": {"hex": "1600140a98495764ee9540de5e7eea13571debd6566387", "asm": "00140a98495764ee9540de5e7eea13571debd6566387"}, "vout": 1, "txid": "09a29de3cd3f0df9249b802ee6db1e16a415792e840ca720a5a85bc033e1e056"}], "txid": "c191971192a96f75741b49b124b01a5e648fcf790c71385fd2f24831e0cf72d8", "blocktime": 1537871767, "version": 1, "confirmations": 11493, "time": 1537871767, "locktime": 0, "vsize": 289, "size": 451}