{"hash": "4857a9162c0cef1ded1580b61548fb84c1ed59e729c3812b3eeab712aa5e82f2", "blockhash": "00000000000000000018f53835495a110e01622372bf6ae95dc86f2b0ab887b0", "vout": [{"scriptPubKey": {"reqSigs": 1, "hex": "76a914aeb5623e65d70b6e4ba6fdec7825a56500ec5e6988ac", "addresses": ["1Gvms9KQ23yGfHRxHLWsJxB6E7vGw1x3Yp"], "asm": "OP_DUP OP_HASH160 aeb5623e65d70b6e4ba6fdec7825a56500ec5e69 OP_EQUALVERIFY OP_CHECKSIG", "type": "pubkeyhash"}, "value": 0.014, "n": 0}, {"scriptPubKey": {"reqSigs": 1, "hex": "0014ab5d50975db847c549ad1816ee5b035401c2f0a3", "addresses": ["bc1q4dw4p96ahpru2jddrqtwukcr2squ9u9rhw7t00"], "asm": "0 ab5d50975db847c549ad1816ee5b035401c2f0a3", "type": "witness_v0_keyhash"}, "value": 0.00097412, "n": 1}], "hex": "01000000000101758a5ec4b8673aacd80dc62509a29fee9d9506d1b470ced613c3f0078e21499504000000171600145f4cd88960b51594b11516c6b78fa843f1354484ffffffff02c05c1500000000001976a914aeb5623e65d70b6e4ba6fdec7825a56500ec5e6988ac847c010000000000160014ab5d50975db847c549ad1816ee5b035401c2f0a302483045022100d4d83311e795d67ff3d41aadacc9c929923119e0719881c0c5d2188a2a254c5a02207ec4240803df9aff83ff524e22392f7b0e2b55482e395f9107558151eab909dc012103ce21d61cdf06ec396fef926ce437975c5e3f1daf966ebd2e0dd282fd988240bb00000000", "vin": [{"txinwitness": ["3045022100d4d83311e795d67ff3d41aadacc9c929923119e0719881c0c5d2188a2a254c5a02207ec4240803df9aff83ff524e22392f7b0e2b55482e395f9107558151eab909dc01", "03ce21d61cdf06ec396fef926ce437975c5e3f1daf966ebd2e0dd282fd988240bb"], "sequence": 4294967295, "scriptSig": {"hex": "1600145f4cd88960b51594b11516c6b78fa843f1354484", "asm": "00145f4cd88960b51594b11516c6b78fa843f1354484"}, "vout": 4, "txid": "9549218e07f0c313d6ce70b4d106959dee9fa20925c60dd8ac3a67b8c45e8a75"}], "txid": "c195da07a0e5a37df41da488875bcab46748c0299c1d2313156e0045f86a1570", "blocktime": 1537870928, "version": 1, "confirmations": 11514, "time": 1537870928, "locktime": 0, "vsize": 167, "size": 249}