{"hash": "c198f1a158082470696f17083c341d86d75c671eb30327737aacbeb50c429c8d", "blockhash": "0000000000000000000baef3f32e3676a92c3b2e5da21b426e4f302fc371ce76", "vout": [{"scriptPubKey": {"reqSigs": 1, "hex": "76a9149c9df0055a5fa2c915af374fb755452e2cd0578888ac", "addresses": ["1FH7cd2PYGnsCJghhZQnLTGpp4WHiLjznx"], "asm": "OP_DUP OP_HASH160 9c9df0055a5fa2c915af374fb755452e2cd05788 OP_EQUALVERIFY OP_CHECKSIG", "type": "pubkeyhash"}, "value": 0.9312343, "n": 0}, {"scriptPubKey": {"reqSigs": 1, "hex": "a91469f376fc29064ed55d370025e6c3e32f40f14a6d87", "addresses": ["3BMEXv4wkyxcNS25iTQVAYaypeEutP6s2B"], "asm": "OP_HASH160 69f376fc29064ed55d370025e6c3e32f40f14a6d OP_EQUAL", "type": "scripthash"}, "value": 0.0512078, "n": 1}], "hex": "02000000018212f098f1509fa2623124fedb464cb1ba0d02e5059335101b32b4d865e893e8010000006b483045022100e9b42c41e10bb931fa84540a8f9063c18d410b26c09a39f50c981529dfdc9b180220750b1f02c38c3149fe76a23ed947a4147a37aa024175e0e74d874fc6335cc987012103b3b9e9518ae52876f3202fcff6f1b4139d63efba2c273cb0ce10407761326610feffffff0266f38c05000000001976a9149c9df0055a5fa2c915af374fb755452e2cd0578888ac0c234e000000000017a91469f376fc29064ed55d370025e6c3e32f40f14a6d8717490800", "vin": [{"sequence": 4294967294, "scriptSig": {"hex": "483045022100e9b42c41e10bb931fa84540a8f9063c18d410b26c09a39f50c981529dfdc9b180220750b1f02c38c3149fe76a23ed947a4147a37aa024175e0e74d874fc6335cc987012103b3b9e9518ae52876f3202fcff6f1b4139d63efba2c273cb0ce10407761326610", "asm": "3045022100e9b42c41e10bb931fa84540a8f9063c18d410b26c09a39f50c981529dfdc9b180220750b1f02c38c3149fe76a23ed947a4147a37aa024175e0e74d874fc6335cc987[ALL] 03b3b9e9518ae52876f3202fcff6f1b4139d63efba2c273cb0ce10407761326610"}, "vout": 1, "txid": "e893e865d8b4321b10359305e5020dbab14c46dbfe243162a29f50f198f01282"}], "txid": "c198f1a158082470696f17083c341d86d75c671eb30327737aacbeb50c429c8d", "blocktime": 1537876114, "version": 2, "confirmations": 11459, "time": 1537876114, "locktime": 542999, "vsize": 224, "size": 224}