{"hash": "c19afeaf2ae1c96d8fe5a4e5288072c5215532fa41aeee3acca466cce99695bc", "blockhash": "0000000000000000001cda96e906b7601b7a6fb1a3b62bca570a9e5d8f4b3de1", "vout": [{"scriptPubKey": {"reqSigs": 1, "hex": "76a914ee82774e40a51b8de0b962603ca0a9e5471cebd088ac", "addresses": ["1Nk87bW8CdjY5bTQ2n27j6ES1srNq1YqFd"], "asm": "OP_DUP OP_HASH160 ee82774e40a51b8de0b962603ca0a9e5471cebd0 OP_EQUALVERIFY OP_CHECKSIG", "type": "pubkeyhash"}, "value": 0.00264406, "n": 0}, {"scriptPubKey": {"reqSigs": 1, "hex": "a914bf6f6cb51fab7402dd4962ac50c0a215fa01300387", "addresses": ["3K9EU6vhovpay7FLbLJfX7JrYK4X3aa2uz"], "asm": "OP_HASH160 bf6f6cb51fab7402dd4962ac50c0a215fa013003 OP_EQUAL", "type": "scripthash"}, "value": 0.00936776, "n": 1}], "hex": "0100000002306bdace5a56c05fb3347a40329beb32b87f3fb1c4d94a38a598a8c17a7a0970010000006b4830450221008fdfe1dd2375f66e3b261fc18e162673beec63b8464c06feaf05df699003bb680220284fbd265b9294f7813acf0908c7d886f388cfd1121fbcff961b521c6d262bfc01210331f7ce494d10ff361f0402b5ad14987e0bf1aa34eff30a4f733324b49b0dc8d5ffffffffa077bcc551974a073b0af85ffeb0c2eadf79b0ab5d7db8981d483c323bfeb3ec000000006a47304402205aa2bc2e840b7fbbe5ecba10b8113aa1885a23ac73834313286cdfa93f32b5ff0220088ed1b395a45aa04669ce7f4c5180533a3343cefa825d4fd5a1e1bdc4211be0012103d45bf5fbb7668021e1d02c5bf98aebff0cd2d07b7ed91b211059c10e3fa3abb3ffffffff02d6080400000000001976a914ee82774e40a51b8de0b962603ca0a9e5471cebd088ac484b0e000000000017a914bf6f6cb51fab7402dd4962ac50c0a215fa0130038700000000", "vin": [{"sequence": 4294967295, "scriptSig": {"hex": "4830450221008fdfe1dd2375f66e3b261fc18e162673beec63b8464c06feaf05df699003bb680220284fbd265b9294f7813acf0908c7d886f388cfd1121fbcff961b521c6d262bfc01210331f7ce494d10ff361f0402b5ad14987e0bf1aa34eff30a4f733324b49b0dc8d5", "asm": "30450221008fdfe1dd2375f66e3b261fc18e162673beec63b8464c06feaf05df699003bb680220284fbd265b9294f7813acf0908c7d886f388cfd1121fbcff961b521c6d262bfc[ALL] 0331f7ce494d10ff361f0402b5ad14987e0bf1aa34eff30a4f733324b49b0dc8d5"}, "vout": 1, "txid": "70097a7ac1a898a5384ad9c4b13f7fb832eb9b32407a34b35fc0565aceda6b30"}, {"sequence": 4294967295, "scriptSig": {"hex": "47304402205aa2bc2e840b7fbbe5ecba10b8113aa1885a23ac73834313286cdfa93f32b5ff0220088ed1b395a45aa04669ce7f4c5180533a3343cefa825d4fd5a1e1bdc4211be0012103d45bf5fbb7668021e1d02c5bf98aebff0cd2d07b7ed91b211059c10e3fa3abb3", "asm": "304402205aa2bc2e840b7fbbe5ecba10b8113aa1885a23ac73834313286cdfa93f32b5ff0220088ed1b395a45aa04669ce7f4c5180533a3343cefa825d4fd5a1e1bdc4211be0[ALL] 03d45bf5fbb7668021e1d02c5bf98aebff0cd2d07b7ed91b211059c10e3fa3abb3"}, "vout": 0, "txid": "ecb3fe3b323c481d98b87d5dabb079dfeac2b0fe5ff80a3b074a9751c5bc77a0"}], "txid": "c19afeaf2ae1c96d8fe5a4e5288072c5215532fa41aeee3acca466cce99695bc", "blocktime": 1537873282, "version": 1, "confirmations": 11483, "time": 1537873282, "locktime": 0, "vsize": 371, "size": 371}