{"hash": "c19e38533bb10bec9025f471a2b0462bc4765f3f34beccc9f20407fc7b75a8a2", "blockhash": "00000000000000000004ffacab907a6b429b9a5745fa0b75af4234bf69dd7176", "vout": [{"scriptPubKey": {"reqSigs": 1, "hex": "76a9140c6b4a6d0aaa254225c01701e1c59d52d495fa8588ac", "addresses": ["128fdzZAiSDfCqrJRSaGHtM9Ni4GpTVHTW"], "asm": "OP_DUP OP_HASH160 0c6b4a6d0aaa254225c01701e1c59d52d495fa85 OP_EQUALVERIFY OP_CHECKSIG", "type": "pubkeyhash"}, "value": 0.00909438, "n": 0}, {"scriptPubKey": {"reqSigs": 1, "hex": "76a9146586ced214191eaee684bf8787713d2671eff5aa88ac", "addresses": ["1AFpjzWNNtmMamjbbSSNLiVdktzrYMspCQ"], "asm": "OP_DUP OP_HASH160 6586ced214191eaee684bf8787713d2671eff5aa OP_EQUALVERIFY OP_CHECKSIG", "type": "pubkeyhash"}, "value": 0.11059858, "n": 1}], "hex": "0200000001462a5de24c1e00eddabaf45a8af0f2ede6b07500e1fc31608c280db55c968b08010000006b483045022100c8c2d77d10b05c0f7e5af7f822c0129e28887b6bc13485bf6a2c2f643b4231a90220475ffa657d9c0e2e28db081db5cb34bfa5e2e9046730341651b85b6dbe84d90801210210dac65f236a05432a1dbd2f909aa1c6e1870304203e734e8d07db9b57443d46ffffffff027ee00d00000000001976a9140c6b4a6d0aaa254225c01701e1c59d52d495fa8588ac92c2a800000000001976a9146586ced214191eaee684bf8787713d2671eff5aa88ac00000000", "vin": [{"sequence": 4294967295, "scriptSig": {"hex": "483045022100c8c2d77d10b05c0f7e5af7f822c0129e28887b6bc13485bf6a2c2f643b4231a90220475ffa657d9c0e2e28db081db5cb34bfa5e2e9046730341651b85b6dbe84d90801210210dac65f236a05432a1dbd2f909aa1c6e1870304203e734e8d07db9b57443d46", "asm": "3045022100c8c2d77d10b05c0f7e5af7f822c0129e28887b6bc13485bf6a2c2f643b4231a90220475ffa657d9c0e2e28db081db5cb34bfa5e2e9046730341651b85b6dbe84d908[ALL] 0210dac65f236a05432a1dbd2f909aa1c6e1870304203e734e8d07db9b57443d46"}, "vout": 1, "txid": "088b965cb50d288c6031fce10075b0e6edf2f08a5af4badaed001e4ce25d2a46"}], "txid": "c19e38533bb10bec9025f471a2b0462bc4765f3f34beccc9f20407fc7b75a8a2", "blocktime": 1537875543, "version": 2, "confirmations": 11464, "time": 1537875543, "locktime": 0, "vsize": 226, "size": 226}