{"hash": "25d9d49c470305858467283166cdf538f51de970100c2e15bc3de881f22f45a2", "blockhash": "000000000000000000022b45ed06c6f4ccd3cf7fb5ba4856ebd2e58215665228", "vout": [{"scriptPubKey": {"reqSigs": 1, "hex": "a9145afffaeb0c2119f64ab5f9236c198bbf2326c86c87", "addresses": ["39zBPcyUYvZJiC1Mj98WVzS9KVJyj39XG1"], "asm": "OP_HASH160 5afffaeb0c2119f64ab5f9236c198bbf2326c86c OP_EQUAL", "type": "scripthash"}, "value": 0.00999814, "n": 0}, {"scriptPubKey": {"reqSigs": 1, "hex": "76a9145211141df887da97b8b62eb55c315d4cff91dd2888ac", "addresses": ["18UvsNWMxy8JWVGx2JUSRhFNQRMJhzzCg1"], "asm": "OP_DUP OP_HASH160 5211141df887da97b8b62eb55c315d4cff91dd28 OP_EQUALVERIFY OP_CHECKSIG", "type": "pubkeyhash"}, "value": 0.0053336, "n": 1}], "hex": "020000000001024958538f288303d1f518076bf5b3edc30dbf2f947f20a72829c1777924d8d6151a000000171600143dcc742cce988df4d7082f5579a51869982a0922feffffff51e0e6adaa00e9d4b1c20861ebcfd383000d51750cea265247eace809525ad860100000017160014a274215de2bde1e49dd7357cdeaa7ae94704734afeffffff0286410f000000000017a9145afffaeb0c2119f64ab5f9236c198bbf2326c86c8770230800000000001976a9145211141df887da97b8b62eb55c315d4cff91dd2888ac02483045022100e444342a4280cfe03bfed468aa12593e295ff103d6ebd3ee5ad71884248511960220644e9e2247354a58d8dc6398d55d9c7cc321e11d9e651ae2bd4dec41cdf3adb50121023b49044a3c239054e02d3869ddc437f0b18b97e91b143695a039269bc3468ded02483045022100e0093f239ccb578c3a72ac9a844db7a5cfef1171edd91331d076f0bf36cebb84022023d6cdd00eab2583d987715a96fb6e78797d15a28b361ddc005c021cdd399abf01210247e02109ff40cc387d27494331017e786b5d237927e4bb554ff710e0294e89fdbf480800", "vin": [{"txinwitness": ["3045022100e444342a4280cfe03bfed468aa12593e295ff103d6ebd3ee5ad71884248511960220644e9e2247354a58d8dc6398d55d9c7cc321e11d9e651ae2bd4dec41cdf3adb501", "023b49044a3c239054e02d3869ddc437f0b18b97e91b143695a039269bc3468ded"], "sequence": 4294967294, "scriptSig": {"hex": "1600143dcc742cce988df4d7082f5579a51869982a0922", "asm": "00143dcc742cce988df4d7082f5579a51869982a0922"}, "vout": 26, "txid": "15d6d8247977c12928a7207f942fbf0dc3edb3f56b0718f5d10383288f535849"}, {"txinwitness": ["3045022100e0093f239ccb578c3a72ac9a844db7a5cfef1171edd91331d076f0bf36cebb84022023d6cdd00eab2583d987715a96fb6e78797d15a28b361ddc005c021cdd399abf01", "0247e02109ff40cc387d27494331017e786b5d237927e4bb554ff710e0294e89fd"], "sequence": 4294967294, "scriptSig": {"hex": "160014a274215de2bde1e49dd7357cdeaa7ae94704734a", "asm": "0014a274215de2bde1e49dd7357cdeaa7ae94704734a"}, "vout": 1, "txid": "86ad259580ceea475226ea0c75510d0083d3cfeb6108c2b1d4e900aaade6e051"}], "txid": "c1a00fca3970986d6e642425f605e3bf777e60917ae1453a3d11a146824bd663", "blocktime": 1537869901, "version": 2, "confirmations": 11524, "time": 1537869901, "locktime": 542911, "vsize": 259, "size": 422}