{"hash": "5fee5d6b6eb3ae18ed309fcf5869fb66f12753555bb17d5767ef2a1516e74b39", "blockhash": "0000000000000000000baef3f32e3676a92c3b2e5da21b426e4f302fc371ce76", "vout": [{"scriptPubKey": {"reqSigs": 1, "hex": "a914d3abccfafd13e1a357499b2d9ed393372f3108dd87", "addresses": ["3LzEJwbqvMSWCnynnTviRE3AFtAbnF6zf8"], "asm": "OP_HASH160 d3abccfafd13e1a357499b2d9ed393372f3108dd OP_EQUAL", "type": "scripthash"}, "value": 0.07519467, "n": 0}, {"scriptPubKey": {"reqSigs": 1, "hex": "76a91414bbcbbb1a43325ff223f188109c33e6eb6d8ace88ac", "addresses": ["12tdV7uxgYpMLVT8XwzbWAyJPZU6qdVkQ5"], "asm": "OP_DUP OP_HASH160 14bbcbbb1a43325ff223f188109c33e6eb6d8ace OP_EQUALVERIFY OP_CHECKSIG", "type": "pubkeyhash"}, "value": 0.001733, "n": 1}], "hex": "02000000000101770478b6a515c63eed5dfd44434b3c699aa59db0599070e07051c113c414592c01000000171600144092f6e6d01b9674c8365ddde66b46279d7454f8feffffff02ebbc72000000000017a914d3abccfafd13e1a357499b2d9ed393372f3108dd87f4a40200000000001976a91414bbcbbb1a43325ff223f188109c33e6eb6d8ace88ac024830450221008741fd46a0b2bc738d357b0252da4ebd875fc5f34b04cf14def52c58dca4512a02205f0c6c360b0485826ca7edde6655545a678935c7766b09b415f18469a0904899012102fd2d59c3c8adaf9d1f4768fbf24656a69a26d3e4cc9004d9b20db64069d408bcc1480800", "vin": [{"txinwitness": ["30450221008741fd46a0b2bc738d357b0252da4ebd875fc5f34b04cf14def52c58dca4512a02205f0c6c360b0485826ca7edde6655545a678935c7766b09b415f18469a090489901", "02fd2d59c3c8adaf9d1f4768fbf24656a69a26d3e4cc9004d9b20db64069d408bc"], "sequence": 4294967294, "scriptSig": {"hex": "1600144092f6e6d01b9674c8365ddde66b46279d7454f8", "asm": "00144092f6e6d01b9674c8365ddde66b46279d7454f8"}, "vout": 1, "txid": "2c5914c413c15170e0709059b09da59a693c4b4344fd5ded3ec615a5b6780477"}], "txid": "c1a577b1961471d68db87670d437132f7ff5fd2d41773788c96649af9179e158", "blocktime": 1537876114, "version": 2, "confirmations": 11460, "time": 1537876114, "locktime": 542913, "vsize": 168, "size": 250}