{"hash": "c1afdcf24278b5310492681af16ca2004ac9d8658a79e5d9bd059dd1e7afcca6", "blockhash": "000000000000000000022b45ed06c6f4ccd3cf7fb5ba4856ebd2e58215665228", "vout": [{"scriptPubKey": {"reqSigs": 1, "hex": "76a9145111c525d2ec0b6410a88dc8992461b48426a64a88ac", "addresses": ["18Pf2EAmRF8GbezwM91YDvBJaoH6UBoLjy"], "asm": "OP_DUP OP_HASH160 5111c525d2ec0b6410a88dc8992461b48426a64a OP_EQUALVERIFY OP_CHECKSIG", "type": "pubkeyhash"}, "value": 0.00499066, "n": 0}, {"scriptPubKey": {"type": "nulldata", "hex": "6a146f6d6e69000000000000001f000000467a537300", "asm": "OP_RETURN 6f6d6e69000000000000001f000000467a537300"}, "value": 0.0, "n": 1}, {"scriptPubKey": {"reqSigs": 1, "hex": "76a914a25dec4d0011064ef106a983c39c7a540699f22088ac", "addresses": ["1FoWyxwPXuj4C6abqwhjDWdz6D4PZgYRjA"], "asm": "OP_DUP OP_HASH160 a25dec4d0011064ef106a983c39c7a540699f220 OP_EQUALVERIFY OP_CHECKSIG", "type": "pubkeyhash"}, "value": 5.46e-06, "n": 2}], "hex": "0100000001912557e17582ceb1e81d6f8ffb4f018df417ac78d3254cd8c0dfa44a279b8e73080000006a473044022014ae47c5b9a258b9a072e4cb6fe6bc1bac6c3856a555ff4f7a7914aee8471ef4022016afb88e3cdd7ade8afda2b685254bd222a99c4962bef584a403b5687f3415f8012102a55f26b77d5bab689eff64442a8fdb2a7c5cd138aa1db17bc9d4029564430ffefeffffff037a9d0700000000001976a9145111c525d2ec0b6410a88dc8992461b48426a64a88ac0000000000000000166a146f6d6e69000000000000001f000000467a53730022020000000000001976a914a25dec4d0011064ef106a983c39c7a540699f22088acc2480800", "vin": [{"sequence": 4294967294, "scriptSig": {"hex": "473044022014ae47c5b9a258b9a072e4cb6fe6bc1bac6c3856a555ff4f7a7914aee8471ef4022016afb88e3cdd7ade8afda2b685254bd222a99c4962bef584a403b5687f3415f8012102a55f26b77d5bab689eff64442a8fdb2a7c5cd138aa1db17bc9d4029564430ffe", "asm": "3044022014ae47c5b9a258b9a072e4cb6fe6bc1bac6c3856a555ff4f7a7914aee8471ef4022016afb88e3cdd7ade8afda2b685254bd222a99c4962bef584a403b5687f3415f8[ALL] 02a55f26b77d5bab689eff64442a8fdb2a7c5cd138aa1db17bc9d4029564430ffe"}, "vout": 8, "txid": "738e9b274aa4dfc0d84c25d378ac17f48d014ffb8f6f1de8b1ce8275e1572591"}], "txid": "c1afdcf24278b5310492681af16ca2004ac9d8658a79e5d9bd059dd1e7afcca6", "blocktime": 1537869901, "version": 1, "confirmations": 11524, "time": 1537869901, "locktime": 542914, "vsize": 256, "size": 256}