{"hash": "c1b052ab79b272771d3060c4e109de60382c801a6029c4278eaf3d8d3e57c7c6", "blockhash": "0000000000000000001cda96e906b7601b7a6fb1a3b62bca570a9e5d8f4b3de1", "vout": [{"scriptPubKey": {"reqSigs": 1, "hex": "76a9142386faddb47e23b335ae6320e7198fe1a4d7986e88ac", "addresses": ["14ErMHY3sMKw9Bno55FUCg33Tn28H7KUAY"], "asm": "OP_DUP OP_HASH160 2386faddb47e23b335ae6320e7198fe1a4d7986e OP_EQUALVERIFY OP_CHECKSIG", "type": "pubkeyhash"}, "value": 0.00304344, "n": 0}, {"scriptPubKey": {"reqSigs": 1, "hex": "76a914fca8faa1f4ddcf522e32d12418fb3f2db110073b88ac", "addresses": ["1Q2wiDCfHK42jhqgtywMkNndztBPPoMR8d"], "asm": "OP_DUP OP_HASH160 fca8faa1f4ddcf522e32d12418fb3f2db110073b OP_EQUALVERIFY OP_CHECKSIG", "type": "pubkeyhash"}, "value": 0.0031207, "n": 1}], "hex": "0100000003eac6b5e3e8b4ac1a226ca8ebbfbba4ab723e47f325952607dc05fd2086b29529010000006a47304402207d71cec9a29b4c57e2dfe735b5e0dc839e06d66357644975be1823962781ab78022027e92d155b4b8ff0408f1df9d4f456139e6516da9e8224c3902ce12a64a7ed9e012102dd50999079ccf383297f86a6772ecd8fabe647a0b11acc65d1fdb86e81b258edffffffff722bdf14e33d7a0ac89afcf3b91e465a8e3ebc08b4dba26e5e6d4d67692f3a10000000006a47304402203926c99d24088e9a0c9c6af2a176626695c08d38a1425a6e93b8db6a7d74cde502201e348e45ba941f07eef87605a31c6a58ea22f43d3fa68d98154097fdb22e29ce012102e11f374064ab5c7a49e107397c9fcaaaa9656a96fd683dbcebac83f00382c576ffffffffe7bf7b21569e0fe7408eafbcb5168dda3701b7f99af48b63c56f4631130fd515000000006b483045022100d93bec392ad5945ea2d5a770381a890500d1096088a36e370bc6086e2dd9b995022041ca86f83916c651339f828d2e77bce67f69edee2ff3bbcb7b91d06e82c623500121029d24843a0491757a1813357f2699847f461416b74c9bb50f292de85282bdfc6bffffffff02d8a40400000000001976a9142386faddb47e23b335ae6320e7198fe1a4d7986e88ac06c30400000000001976a914fca8faa1f4ddcf522e32d12418fb3f2db110073b88ac00000000", "vin": [{"sequence": 4294967295, "scriptSig": {"hex": "47304402207d71cec9a29b4c57e2dfe735b5e0dc839e06d66357644975be1823962781ab78022027e92d155b4b8ff0408f1df9d4f456139e6516da9e8224c3902ce12a64a7ed9e012102dd50999079ccf383297f86a6772ecd8fabe647a0b11acc65d1fdb86e81b258ed", "asm": "304402207d71cec9a29b4c57e2dfe735b5e0dc839e06d66357644975be1823962781ab78022027e92d155b4b8ff0408f1df9d4f456139e6516da9e8224c3902ce12a64a7ed9e[ALL] 02dd50999079ccf383297f86a6772ecd8fabe647a0b11acc65d1fdb86e81b258ed"}, "vout": 1, "txid": "2995b28620fd05dc07269525f3473e72aba4bbbfeba86c221aacb4e8e3b5c6ea"}, {"sequence": 4294967295, "scriptSig": {"hex": "47304402203926c99d24088e9a0c9c6af2a176626695c08d38a1425a6e93b8db6a7d74cde502201e348e45ba941f07eef87605a31c6a58ea22f43d3fa68d98154097fdb22e29ce012102e11f374064ab5c7a49e107397c9fcaaaa9656a96fd683dbcebac83f00382c576", "asm": "304402203926c99d24088e9a0c9c6af2a176626695c08d38a1425a6e93b8db6a7d74cde502201e348e45ba941f07eef87605a31c6a58ea22f43d3fa68d98154097fdb22e29ce[ALL] 02e11f374064ab5c7a49e107397c9fcaaaa9656a96fd683dbcebac83f00382c576"}, "vout": 0, "txid": "103a2f69674d6d5e6ea2dbb408bc3e8e5a461eb9f3fc9ac80a7a3de314df2b72"}, {"sequence": 4294967295, "scriptSig": {"hex": "483045022100d93bec392ad5945ea2d5a770381a890500d1096088a36e370bc6086e2dd9b995022041ca86f83916c651339f828d2e77bce67f69edee2ff3bbcb7b91d06e82c623500121029d24843a0491757a1813357f2699847f461416b74c9bb50f292de85282bdfc6b", "asm": "3045022100d93bec392ad5945ea2d5a770381a890500d1096088a36e370bc6086e2dd9b995022041ca86f83916c651339f828d2e77bce67f69edee2ff3bbcb7b91d06e82c62350[ALL] 029d24843a0491757a1813357f2699847f461416b74c9bb50f292de85282bdfc6b"}, "vout": 0, "txid": "15d50f1331466fc5638bf49af9b70137da8d16b5bcaf8e40e70f9e56217bbfe7"}], "txid": "c1b052ab79b272771d3060c4e109de60382c801a6029c4278eaf3d8d3e57c7c6", "blocktime": 1537873282, "version": 1, "confirmations": 11480, "time": 1537873282, "locktime": 0, "vsize": 520, "size": 520}