{"hash": "c1b4fc06c5a7cc35b93d1951e17172ce029d6fa3b8828b163ccdc0e7ac113995", "blockhash": "0000000000000000000e13cef7c366c0283d82e591d1acd082e914b08063cdf1", "vout": [{"scriptPubKey": {"reqSigs": 1, "hex": "76a914ffe237e51ea68cc6445c5f39e74f91a4f5f8163688ac", "addresses": ["1QKzJqsP7hdQ1bsA49C7wZxPZv5Z4REE1D"], "asm": "OP_DUP OP_HASH160 ffe237e51ea68cc6445c5f39e74f91a4f5f81636 OP_EQUALVERIFY OP_CHECKSIG", "type": "pubkeyhash"}, "value": 0.00046824, "n": 0}, {"scriptPubKey": {"reqSigs": 1, "hex": "76a9143ed5d8bd7bcd7a5613b832c276c4b181ebbef07088ac", "addresses": ["16jF5DgPp4mcbi495GJc7qYUxo1dbUd9ww"], "asm": "OP_DUP OP_HASH160 3ed5d8bd7bcd7a5613b832c276c4b181ebbef070 OP_EQUALVERIFY OP_CHECKSIG", "type": "pubkeyhash"}, "value": 0.00718843, "n": 1}], "hex": "010000000285e9ee7bf6456de4d9d8775496cdfc35926b35a4526a700c09ab0fcddd312faa010000006b483045022100ec8c887908392ba071773e0c4425b473497ef4788c92510dd9c020c0bda1c48302207844d40be48ae50c6df9267cbf2d160d048d33ba1724c87c57317da35ca1d5b50121021f87f0858172247b1b02b735a87be84bc4010ae43929358380f459fdd9aa8e08ffffffff7182b35e0dfd7afdd8b9f394034a40352375e81c78a6ee52d60e2a269f1d69c1000000006b483045022100f9ec6ea0933b5163632dbe87fd33ec2adbbc20740ff6d5e3d783a3e005d77a24022008acbf42ab500d7b2db49c20ce3b91b9cef5675a7764eadbe6cf5e1bf26b9c470121027df1e1c2ea35185cc60e855a80af55ad405f2808b5cbcb4272988a68f7281434ffffffff02e8b60000000000001976a914ffe237e51ea68cc6445c5f39e74f91a4f5f8163688acfbf70a00000000001976a9143ed5d8bd7bcd7a5613b832c276c4b181ebbef07088ac00000000", "vin": [{"sequence": 4294967295, "scriptSig": {"hex": "483045022100ec8c887908392ba071773e0c4425b473497ef4788c92510dd9c020c0bda1c48302207844d40be48ae50c6df9267cbf2d160d048d33ba1724c87c57317da35ca1d5b50121021f87f0858172247b1b02b735a87be84bc4010ae43929358380f459fdd9aa8e08", "asm": "3045022100ec8c887908392ba071773e0c4425b473497ef4788c92510dd9c020c0bda1c48302207844d40be48ae50c6df9267cbf2d160d048d33ba1724c87c57317da35ca1d5b5[ALL] 021f87f0858172247b1b02b735a87be84bc4010ae43929358380f459fdd9aa8e08"}, "vout": 1, "txid": "aa2f31ddcd0fab090c706a52a4356b9235fccd965477d8d9e46d45f67beee985"}, {"sequence": 4294967295, "scriptSig": {"hex": "483045022100f9ec6ea0933b5163632dbe87fd33ec2adbbc20740ff6d5e3d783a3e005d77a24022008acbf42ab500d7b2db49c20ce3b91b9cef5675a7764eadbe6cf5e1bf26b9c470121027df1e1c2ea35185cc60e855a80af55ad405f2808b5cbcb4272988a68f7281434", "asm": "3045022100f9ec6ea0933b5163632dbe87fd33ec2adbbc20740ff6d5e3d783a3e005d77a24022008acbf42ab500d7b2db49c20ce3b91b9cef5675a7764eadbe6cf5e1bf26b9c47[ALL] 027df1e1c2ea35185cc60e855a80af55ad405f2808b5cbcb4272988a68f7281434"}, "vout": 0, "txid": "c1691d9f262a0ed652eea6781ce8752335404a0394f3b9d8fd7afd0d5eb38271"}], "txid": "c1b4fc06c5a7cc35b93d1951e17172ce029d6fa3b8828b163ccdc0e7ac113995", "blocktime": 1537871767, "version": 1, "confirmations": 11495, "time": 1537871767, "locktime": 0, "vsize": 374, "size": 374}