{"hash": "c1bc45eb86e275f514964152a3948bd0733397b33aa59f0665d0eaf904d78b9d", "blockhash": "000000000000000000022b45ed06c6f4ccd3cf7fb5ba4856ebd2e58215665228", "vout": [{"scriptPubKey": {"reqSigs": 1, "hex": "76a914501705524db939bf0b7a88d90c9a43dd29b6f57d88ac", "addresses": ["18JUdroswM2H6mkFQyymrZ2rXPxSWtRMAp"], "asm": "OP_DUP OP_HASH160 501705524db939bf0b7a88d90c9a43dd29b6f57d OP_EQUALVERIFY OP_CHECKSIG", "type": "pubkeyhash"}, "value": 0.0081, "n": 0}, {"scriptPubKey": {"reqSigs": 1, "hex": "76a91485353f0f304cda045f848f53df005e9e0e4d107488ac", "addresses": ["1D9Lf8iR68TrQvBxoEbcfTV9dnAwHH2KEe"], "asm": "OP_DUP OP_HASH160 85353f0f304cda045f848f53df005e9e0e4d1074 OP_EQUALVERIFY OP_CHECKSIG", "type": "pubkeyhash"}, "value": 0.13995275, "n": 1}], "hex": "01000000016a964d5d475ef864c2f67e75438326219c2562c730e2841ab96447948eb79e7a010000006b483045022100806d1dfabf17cd3cca0a481f0c46c09ee79c5f72151b5f8c34ad0f5f5b70624302201328397629f816d1ff1813dc9e81deb89ecece98cd84782e59c0f756291733c0012102008fab924a7ee1f47dc0edc3d2e9a80056eee5b4c206860851db99c2dd2bf957fdffffff02105c0c00000000001976a914501705524db939bf0b7a88d90c9a43dd29b6f57d88ac0b8dd500000000001976a91485353f0f304cda045f848f53df005e9e0e4d107488ac0b490800", "vin": [{"sequence": 4294967293, "scriptSig": {"hex": "483045022100806d1dfabf17cd3cca0a481f0c46c09ee79c5f72151b5f8c34ad0f5f5b70624302201328397629f816d1ff1813dc9e81deb89ecece98cd84782e59c0f756291733c0012102008fab924a7ee1f47dc0edc3d2e9a80056eee5b4c206860851db99c2dd2bf957", "asm": "3045022100806d1dfabf17cd3cca0a481f0c46c09ee79c5f72151b5f8c34ad0f5f5b70624302201328397629f816d1ff1813dc9e81deb89ecece98cd84782e59c0f756291733c0[ALL] 02008fab924a7ee1f47dc0edc3d2e9a80056eee5b4c206860851db99c2dd2bf957"}, "vout": 1, "txid": "7a9eb78e944764b91a84e230c762259c21268343757ef6c264f85e475d4d966a"}], "txid": "c1bc45eb86e275f514964152a3948bd0733397b33aa59f0665d0eaf904d78b9d", "blocktime": 1537869901, "version": 1, "confirmations": 11523, "time": 1537869901, "locktime": 542987, "vsize": 226, "size": 226}