{"hash": "c1bf8424e3c3a8237947871b83f8426bee71d19debdae30c051c115520ffaa16", "blockhash": "000000000000000000022b45ed06c6f4ccd3cf7fb5ba4856ebd2e58215665228", "vout": [{"scriptPubKey": {"reqSigs": 1, "hex": "76a914de6da620417da6da1ca5f81fdd2e9d361fbbbb8a88ac", "addresses": ["1MH6N8Q5UCgRFtg4xCaFRFfYgU43monXup"], "asm": "OP_DUP OP_HASH160 de6da620417da6da1ca5f81fdd2e9d361fbbbb8a OP_EQUALVERIFY OP_CHECKSIG", "type": "pubkeyhash"}, "value": 0.00069647, "n": 0}, {"scriptPubKey": {"reqSigs": 1, "hex": "76a91477a49b85be777af4a48d179c961b8067af124f2088ac", "addresses": ["1Bucbxa1SUEoPxGi3sN5p6pN7LvKAvgBSr"], "asm": "OP_DUP OP_HASH160 77a49b85be777af4a48d179c961b8067af124f20 OP_EQUALVERIFY OP_CHECKSIG", "type": "pubkeyhash"}, "value": 0.00233925, "n": 1}], "hex": "0100000001b012cdfea72cf7886a15b8594ead752bc8b48943da5041e6c261c5b3cc2c3359000000006b483045022100ee85705683718aef0c7e1d98a3f79d962390420a22931ece6f34af09491c589002207d02aea0ae1e743815513040c1594ef96ad70ea7055e88b568ce04ff1c7c4a95012102f5b038f007c6c106d6fa2a419ed122376493b70cd67b63a6f7d0d826ea9f9ff2ffffffff020f100100000000001976a914de6da620417da6da1ca5f81fdd2e9d361fbbbb8a88acc5910300000000001976a91477a49b85be777af4a48d179c961b8067af124f2088ac00000000", "vin": [{"sequence": 4294967295, "scriptSig": {"hex": "483045022100ee85705683718aef0c7e1d98a3f79d962390420a22931ece6f34af09491c589002207d02aea0ae1e743815513040c1594ef96ad70ea7055e88b568ce04ff1c7c4a95012102f5b038f007c6c106d6fa2a419ed122376493b70cd67b63a6f7d0d826ea9f9ff2", "asm": "3045022100ee85705683718aef0c7e1d98a3f79d962390420a22931ece6f34af09491c589002207d02aea0ae1e743815513040c1594ef96ad70ea7055e88b568ce04ff1c7c4a95[ALL] 02f5b038f007c6c106d6fa2a419ed122376493b70cd67b63a6f7d0d826ea9f9ff2"}, "vout": 0, "txid": "59332cccb3c561c2e64150da4389b4c82b75ad4e59b8156a88f72ca7fecd12b0"}], "txid": "c1bf8424e3c3a8237947871b83f8426bee71d19debdae30c051c115520ffaa16", "blocktime": 1537869901, "version": 1, "confirmations": 11522, "time": 1537869901, "locktime": 0, "vsize": 226, "size": 226}