{"hash": "c1c07f5db1fa2e7e2bfbee2f8b7dbf179438eabe7f7b1f07e32184881213d79b", "blockhash": "0000000000000000000dcc0f55137456b1a82d3642486a52398922ac4d620174", "vout": [{"scriptPubKey": {"reqSigs": 1, "hex": "76a9141a8e5ce884b285fcf9c29be19d3d25c62d7bdad388ac", "addresses": ["13RR7Y96GW7GxJSiUSHUXDhsuyweSs13iZ"], "asm": "OP_DUP OP_HASH160 1a8e5ce884b285fcf9c29be19d3d25c62d7bdad3 OP_EQUALVERIFY OP_CHECKSIG", "type": "pubkeyhash"}, "value": 0.00228503, "n": 0}], "hex": "01000000017ba4d950836a79a3a50c7685ebdb35680f92a1498602739fce0b948c9936c21b010000006a473044022043a4fb4903fe888a70c8e7f0472ba9c87d4e601a42f77d7a3707a08d0e689290022060d377b28da6c996826f411055e2065a2df4e56f071e711e79fd5b64ddf5d76c01210355c4e101cfad3339fa61e003fc1972daf3104c2562e19e51ad51494f30b61d1bf0ffffff01977c0300000000001976a9141a8e5ce884b285fcf9c29be19d3d25c62d7bdad388ac00000000", "vin": [{"sequence": 4294967280, "scriptSig": {"hex": "473044022043a4fb4903fe888a70c8e7f0472ba9c87d4e601a42f77d7a3707a08d0e689290022060d377b28da6c996826f411055e2065a2df4e56f071e711e79fd5b64ddf5d76c01210355c4e101cfad3339fa61e003fc1972daf3104c2562e19e51ad51494f30b61d1b", "asm": "3044022043a4fb4903fe888a70c8e7f0472ba9c87d4e601a42f77d7a3707a08d0e689290022060d377b28da6c996826f411055e2065a2df4e56f071e711e79fd5b64ddf5d76c[ALL] 0355c4e101cfad3339fa61e003fc1972daf3104c2562e19e51ad51494f30b61d1b"}, "vout": 1, "txid": "1bc236998c940bce9f73028649a1920f6835dbeb85760ca5a3796a8350d9a47b"}], "txid": "c1c07f5db1fa2e7e2bfbee2f8b7dbf179438eabe7f7b1f07e32184881213d79b", "blocktime": 1537870268, "version": 1, "confirmations": 11516, "time": 1537870268, "locktime": 0, "vsize": 191, "size": 191}