{"hash": "8e6f2ba57e6570188f96fa8323d537667a0fb15976b5260900351f6ed5430476", "blockhash": "00000000000000000024a2167bbff67b0be802c0b01cdd79e6331c2be6459f87", "vout": [{"scriptPubKey": {"reqSigs": 1, "hex": "76a914870bf8a2b66a47ad2a5f83c6f78ee8e16a15bf7488ac", "addresses": ["1DK4Zg2nKxGsiNsKPEqoxZ4tP7cgJ2BmTf"], "asm": "OP_DUP OP_HASH160 870bf8a2b66a47ad2a5f83c6f78ee8e16a15bf74 OP_EQUALVERIFY OP_CHECKSIG", "type": "pubkeyhash"}, "value": 0.00374704, "n": 0}, {"scriptPubKey": {"reqSigs": 1, "hex": "00142ef6346463e45029aa2027da119f25952df9ebac", "addresses": ["bc1q9mmrgerru3gzn23qyldpr8e9j5kln6avxv7sgq"], "asm": "0 2ef6346463e45029aa2027da119f25952df9ebac", "type": "witness_v0_keyhash"}, "value": 0.00014333, "n": 1}], "hex": "01000000000101be30c8b775e0d71af28b5547e38c54be5e41579d830d07c2571f501af7c77d550000000017160014caacd3ec1a17d933ca91a90ed4a6882192ee03a3ffffffff02b0b70500000000001976a914870bf8a2b66a47ad2a5f83c6f78ee8e16a15bf7488acfd370000000000001600142ef6346463e45029aa2027da119f25952df9ebac02483045022100f55ece1e0d5d4baf981219d6f61fa15c6b39d70595ba8e9bf5ad821fe0f32e3702205582f6aed528b3f61b98f5e101c16f547e0c2b1f6528e00e0a8f1e6f8ae8dbff012103229f841c0afaa3817fc51a6076867c2f2052a062b347d940bb57eabc1ec4c46e00000000", "vin": [{"txinwitness": ["3045022100f55ece1e0d5d4baf981219d6f61fa15c6b39d70595ba8e9bf5ad821fe0f32e3702205582f6aed528b3f61b98f5e101c16f547e0c2b1f6528e00e0a8f1e6f8ae8dbff01", "03229f841c0afaa3817fc51a6076867c2f2052a062b347d940bb57eabc1ec4c46e"], "sequence": 4294967295, "scriptSig": {"hex": "160014caacd3ec1a17d933ca91a90ed4a6882192ee03a3", "asm": "0014caacd3ec1a17d933ca91a90ed4a6882192ee03a3"}, "vout": 0, "txid": "557dc7f71a501f57c2070d839d57415ebe548ce347558bf21ad7e075b7c830be"}], "txid": "c1c2a316520a2d36a1fe99fe6252e0cc68bde8f3554504e87451a1729a1419f1", "blocktime": 1537870564, "version": 1, "confirmations": 11515, "time": 1537870564, "locktime": 0, "vsize": 167, "size": 249}