{"hash": "54dc22a6a6d2642af4e0b8456bf50f51289ee9746bb036e9a29defa8ec148218", "blockhash": "0000000000000000001f76057863aec43deb6fa401d9628bb513d65a8098bfab", "vout": [{"scriptPubKey": {"reqSigs": 1, "hex": "76a91449c708e62b6e982a936e68b98e83cbdbaea308f788ac", "addresses": ["17j6mBX1QVLDXVU5nm5vxUHTt6xABwAWPj"], "asm": "OP_DUP OP_HASH160 49c708e62b6e982a936e68b98e83cbdbaea308f7 OP_EQUALVERIFY OP_CHECKSIG", "type": "pubkeyhash"}, "value": 0.00033186, "n": 0}, {"scriptPubKey": {"reqSigs": 1, "hex": "a914412a5a9d44d5834123b7756088f409b7b3a36da687", "addresses": ["37daapNiiDgPEaARWMQCfhGXJo4yF1nTaW"], "asm": "OP_HASH160 412a5a9d44d5834123b7756088f409b7b3a36da6 OP_EQUAL", "type": "scripthash"}, "value": 0.00549198, "n": 1}], "hex": "010000000001013f194bbe6d7642784f2a0ead4cd2e98559f19d41b028ea76ee2ec6224be32df5010000002322002083f5850b1b9ae687f7cf8d5c77fefcbd87cde420155cd43c20d50f5f293b7ed6ffffffff02a2810000000000001976a91449c708e62b6e982a936e68b98e83cbdbaea308f788ac4e6108000000000017a914412a5a9d44d5834123b7756088f409b7b3a36da6870400483045022100bfd6c72c3776da4240050bf110c1a56ea027d4bb52b6bd2adc60928e2fa7acd902201d1be1db160b0bba8dfe97a387e2cb898fc636ace4eea1db335bade1473999f80147304402201c1d9c7633909191992790d912ee1a59a0343281488e7d3088b474148985ef8b022060af994076409afd3f0d1d054465d27ff434e85e74094d04969061b6ef38c42601475221020511070566b8412d1941b8dc0ded10caa6a6915b609dfa65bb8111255071d3a22103871fc2ca08e6950b38867e8e6a0e94ee625223d3aa0df5c65f414c6d784467e252ae00000000", "vin": [{"txinwitness": ["", "3045022100bfd6c72c3776da4240050bf110c1a56ea027d4bb52b6bd2adc60928e2fa7acd902201d1be1db160b0bba8dfe97a387e2cb898fc636ace4eea1db335bade1473999f801", "304402201c1d9c7633909191992790d912ee1a59a0343281488e7d3088b474148985ef8b022060af994076409afd3f0d1d054465d27ff434e85e74094d04969061b6ef38c42601", "5221020511070566b8412d1941b8dc0ded10caa6a6915b609dfa65bb8111255071d3a22103871fc2ca08e6950b38867e8e6a0e94ee625223d3aa0df5c65f414c6d784467e252ae"], "sequence": 4294967295, "scriptSig": {"hex": "22002083f5850b1b9ae687f7cf8d5c77fefcbd87cde420155cd43c20d50f5f293b7ed6", "asm": "002083f5850b1b9ae687f7cf8d5c77fefcbd87cde420155cd43c20d50f5f293b7ed6"}, "vout": 1, "txid": "f52de34b22c62eee76ea28b0419df15985e9d24cad0e2a4f7842766dbe4b193f"}], "txid": "c1c4b541ebd3b6686065fea710d5f1e6520d5a68176ae2c2f72d2f55acc7fb44", "blocktime": 1537873891, "version": 1, "confirmations": 11478, "time": 1537873891, "locktime": 0, "vsize": 208, "size": 373}