{"hash": "c1c7a8bee9e4eb5fa491d19eb0600450daf1d6a3bf01c6cfbe1bc03672b15374", "blockhash": "0000000000000000000e13cef7c366c0283d82e591d1acd082e914b08063cdf1", "vout": [{"scriptPubKey": {"reqSigs": 1, "hex": "76a914941a15a19f79ab151ff1f98d134bb0d8f41a241188ac", "addresses": ["1EW6FmsF5LsEU4XNyPypJeozEhk7SvYxPu"], "asm": "OP_DUP OP_HASH160 941a15a19f79ab151ff1f98d134bb0d8f41a2411 OP_EQUALVERIFY OP_CHECKSIG", "type": "pubkeyhash"}, "value": 0.00013986, "n": 0}, {"scriptPubKey": {"reqSigs": 1, "hex": "76a914afca83a945410122850ee7bc738cd75442e9c7c488ac", "addresses": ["1H2VrWcvjX8jtApuU8CQWnUVQRRY9FXEWR"], "asm": "OP_DUP OP_HASH160 afca83a945410122850ee7bc738cd75442e9c7c4 OP_EQUALVERIFY OP_CHECKSIG", "type": "pubkeyhash"}, "value": 0.00171991, "n": 1}], "hex": "010000000127316b505ddaec5ef9336326d22d3ce6218d293997fe32673a0a0d63b871c658000000006b4830450221008b3b16c4f37cc69070c5dd6fb53c51ce7979dbb1c1b10b9153c93557c8acfe4102203c0a04479f910707dedee04bd2651430760b57463fbfe69b87b05577844b2bcc0121021c35e805185825cad827f3fdbab30dcda2a216b8669b3e6184a2d0bb519d019cffffffff02a2360000000000001976a914941a15a19f79ab151ff1f98d134bb0d8f41a241188acd79f0200000000001976a914afca83a945410122850ee7bc738cd75442e9c7c488ac00000000", "vin": [{"sequence": 4294967295, "scriptSig": {"hex": "4830450221008b3b16c4f37cc69070c5dd6fb53c51ce7979dbb1c1b10b9153c93557c8acfe4102203c0a04479f910707dedee04bd2651430760b57463fbfe69b87b05577844b2bcc0121021c35e805185825cad827f3fdbab30dcda2a216b8669b3e6184a2d0bb519d019c", "asm": "30450221008b3b16c4f37cc69070c5dd6fb53c51ce7979dbb1c1b10b9153c93557c8acfe4102203c0a04479f910707dedee04bd2651430760b57463fbfe69b87b05577844b2bcc[ALL] 021c35e805185825cad827f3fdbab30dcda2a216b8669b3e6184a2d0bb519d019c"}, "vout": 0, "txid": "58c671b8630d0a3a6732fe9739298d21e63c2dd2266333f95eecda5d506b3127"}], "txid": "c1c7a8bee9e4eb5fa491d19eb0600450daf1d6a3bf01c6cfbe1bc03672b15374", "blocktime": 1537871767, "version": 1, "confirmations": 11493, "time": 1537871767, "locktime": 0, "vsize": 226, "size": 226}