{"hash": "feed3c4abe0be0269a8f9ae5021c7b24a55be3b8df104eafd07e0ae3b6862dcf", "blockhash": "00000000000000000017f5eb5941039fbcee6240d03bc1f2f8e35350df66a1d8", "vout": [{"scriptPubKey": {"reqSigs": 1, "hex": "a914aaab54288432ac4a231f8b9ade7a120d047f8d5987", "addresses": ["3HFS3HTyhrDBuwUspKvbfxMpRkYGdEnQig"], "asm": "OP_HASH160 aaab54288432ac4a231f8b9ade7a120d047f8d59 OP_EQUAL", "type": "scripthash"}, "value": 0.334418, "n": 0}, {"scriptPubKey": {"reqSigs": 1, "hex": "a914748616985c6063c9799779b43ff61ae02c126a2487", "addresses": ["3CK8wQqpdgcR5o9iAM2TThUxKdkmEXsafe"], "asm": "OP_HASH160 748616985c6063c9799779b43ff61ae02c126a24 OP_EQUAL", "type": "scripthash"}, "value": 0.29, "n": 1}], "hex": "01000000000102fa47f26fdcaad6efe8122cd2705fcccbcae28ea425160ab7f81f0943afdf6674010000002322002007819d11787f118060b606bf5a950c0fc90625b2dafbd06f82a09a7753827051ffffffff5f410e6a47c042b1c7e695cf9cc335afb25624d20efc7c7e3663c775e44450760000000023220020014ecb137dcbb5fc3948e6bfceef40b3fcd74b0ef471675ac7751f78c1625c91ffffffff020848fe010000000017a914aaab54288432ac4a231f8b9ade7a120d047f8d59874081ba010000000017a914748616985c6063c9799779b43ff61ae02c126a24870400483045022100edccf6d3de3073a27286125bc994d57f9ced44176e1b350cd34472c5fa98620302205fadfa8bad75a21ba675a4fb2b047d8fcdfd1cfe1d8b1c570f2d9fb3a554988d01483045022100c0857ea9bf70cf77e720e1e4dbe86dbdb26e462736c377b6ee8e214882678e27022039d93936de60310e1fcc48f72f5c5e4ed89dc66fa61d041762ace085b34428580169522102c950abc179a417533acd171b285e16e9c54ddebaa7544864990abc5ec90b6fd22103f4679f03615d050ca1ed1988f2bbf0fb245a55010e406a2525700535fb57f5cd210394823aefd8d41f3054fff5a45160d235ef6bbd1ad2776f8b9cfa8ebd926fd39053ae0400483045022100fd6d8f5ef7724a549ad1bf0fcf61c62c6dc312911378f67020ca789ee6655e4302203dd71447c7af1474a96eb75c053c6d554c427ef1bb551e64d72430975ca3d2b201483045022100d2fdc3d9bda1148693d3b891191b023a62c7942165a9c4448c23a803f6cec61b022064ca2deb7e5352b34d771659815613d1ba97431cd782f5bdc4f8d85c3de9c3320169522103a0bc0c4aa3100cdbd7cc74056aa2ae70a83f0c1a0a2fdf8c50b077ddab86acc4210385c666f67836160131effa4d37c30d3097e8abff787db24ae3482433beb108eb21032cb8857002e10f6f4f3eacc9a799cc5ff8408be5eb2d7773b756b038f40b8a6a53ae00000000", "vin": [{"txinwitness": ["", "3045022100edccf6d3de3073a27286125bc994d57f9ced44176e1b350cd34472c5fa98620302205fadfa8bad75a21ba675a4fb2b047d8fcdfd1cfe1d8b1c570f2d9fb3a554988d01", "3045022100c0857ea9bf70cf77e720e1e4dbe86dbdb26e462736c377b6ee8e214882678e27022039d93936de60310e1fcc48f72f5c5e4ed89dc66fa61d041762ace085b344285801", "522102c950abc179a417533acd171b285e16e9c54ddebaa7544864990abc5ec90b6fd22103f4679f03615d050ca1ed1988f2bbf0fb245a55010e406a2525700535fb57f5cd210394823aefd8d41f3054fff5a45160d235ef6bbd1ad2776f8b9cfa8ebd926fd39053ae"], "sequence": 4294967295, "scriptSig": {"hex": "22002007819d11787f118060b606bf5a950c0fc90625b2dafbd06f82a09a7753827051", "asm": "002007819d11787f118060b606bf5a950c0fc90625b2dafbd06f82a09a7753827051"}, "vout": 1, "txid": "7466dfaf43091ff8b70a1625a48ee2cacbcc5f70d22c12e8efd6aadc6ff247fa"}, {"txinwitness": ["", "3045022100fd6d8f5ef7724a549ad1bf0fcf61c62c6dc312911378f67020ca789ee6655e4302203dd71447c7af1474a96eb75c053c6d554c427ef1bb551e64d72430975ca3d2b201", "3045022100d2fdc3d9bda1148693d3b891191b023a62c7942165a9c4448c23a803f6cec61b022064ca2deb7e5352b34d771659815613d1ba97431cd782f5bdc4f8d85c3de9c33201", "522103a0bc0c4aa3100cdbd7cc74056aa2ae70a83f0c1a0a2fdf8c50b077ddab86acc4210385c666f67836160131effa4d37c30d3097e8abff787db24ae3482433beb108eb21032cb8857002e10f6f4f3eacc9a799cc5ff8408be5eb2d7773b756b038f40b8a6a53ae"], "sequence": 4294967295, "scriptSig": {"hex": "220020014ecb137dcbb5fc3948e6bfceef40b3fcd74b0ef471675ac7751f78c1625c91", "asm": "0020014ecb137dcbb5fc3948e6bfceef40b3fcd74b0ef471675ac7751f78c1625c91"}, "vout": 0, "txid": "765044e475c763367e7cfc0ed22456b2af35c39ccf95e6c7b142c0476a0e415f"}], "txid": "c1c8f11291843abdeb392a8617504f94f7fbd26f552923cc69625742a2caaeba", "blocktime": 1537874412, "version": 1, "confirmations": 11468, "time": 1537874412, "locktime": 0, "vsize": 354, "size": 736}