{"hash": "253c8be6ae11f530518375ba9d5b9f844345fa63cc7889314bac7888c49bdbe3", "blockhash": "0000000000000000000baef3f32e3676a92c3b2e5da21b426e4f302fc371ce76", "vout": [{"scriptPubKey": {"reqSigs": 1, "hex": "76a9148637ee40dbf11f12cb3bdf6ccd3967991e9105b288ac", "addresses": ["1DEgYqYBNqJNV8R3jR5eJ5FRJ37jv4nEXd"], "asm": "OP_DUP OP_HASH160 8637ee40dbf11f12cb3bdf6ccd3967991e9105b2 OP_EQUALVERIFY OP_CHECKSIG", "type": "pubkeyhash"}, "value": 0.2, "n": 0}, {"scriptPubKey": {"reqSigs": 1, "hex": "a914bbba37f40cb545bcad4ce84c10733be66d166e0487", "addresses": ["3JodN7GmkHdPgKj9G7HCkn9NDLhrcWCjVN"], "asm": "OP_HASH160 bbba37f40cb545bcad4ce84c10733be66d166e04 OP_EQUAL", "type": "scripthash"}, "value": 0.64600538, "n": 1}], "hex": "02000000000101d8cbf26cff601a67e939f105007876494a908bbef83a126a043b303e2665580f000000001716001477dc5294b932f7388637ee09b0beb11a372540f0ffffffff02002d3101000000001976a9148637ee40dbf11f12cb3bdf6ccd3967991e9105b288acdab9d9030000000017a914bbba37f40cb545bcad4ce84c10733be66d166e04870247304402207caaa536eff8d9f43aa548d9165c23d5918f602c0bf94e34b2c27b9a96a61f7f02200487c0edf71cecef17bfa3663dd88ebe0bd6ad20476ce1c26e22c7156ead90650121039ae2723783bc3f08ecc3397869fa391ba96c89280f7903557da2d0429af0c58400000000", "vin": [{"txinwitness": ["304402207caaa536eff8d9f43aa548d9165c23d5918f602c0bf94e34b2c27b9a96a61f7f02200487c0edf71cecef17bfa3663dd88ebe0bd6ad20476ce1c26e22c7156ead906501", "039ae2723783bc3f08ecc3397869fa391ba96c89280f7903557da2d0429af0c584"], "sequence": 4294967295, "scriptSig": {"hex": "16001477dc5294b932f7388637ee09b0beb11a372540f0", "asm": "001477dc5294b932f7388637ee09b0beb11a372540f0"}, "vout": 0, "txid": "0f5865263e303b046a123af8be8b904a4976780005f139e9671a60ff6cf2cbd8"}], "txid": "c1cb03b305652ccd4a1fc43af95f90c407d58af5474f0e22adb65395a5a19cfb", "blocktime": 1537876114, "version": 2, "confirmations": 11459, "time": 1537876114, "locktime": 0, "vsize": 168, "size": 249}