{"hash": "8a79e8cf951e4d471cad6336aeb39518169c42398be5f614dbe39164038be7c9", "blockhash": "0000000000000000000baef3f32e3676a92c3b2e5da21b426e4f302fc371ce76", "vout": [{"scriptPubKey": {"reqSigs": 1, "hex": "76a91415efba4572d98d9d19be7378e85fe6b2f5a111fb88ac", "addresses": ["12zzNbYjFNfS8vCT8yTQ48gFr1Y5qANkHn"], "asm": "OP_DUP OP_HASH160 15efba4572d98d9d19be7378e85fe6b2f5a111fb OP_EQUALVERIFY OP_CHECKSIG", "type": "pubkeyhash"}, "value": 0.49039, "n": 0}, {"scriptPubKey": {"reqSigs": 1, "hex": "a914a9b50069c4e2c94fbe68d2505d32d2a009806f8287", "addresses": ["3HALxB9KniRyAmDwMU4GjoXzefoTD7H3Ds"], "asm": "OP_HASH160 a9b50069c4e2c94fbe68d2505d32d2a009806f82 OP_EQUAL", "type": "scripthash"}, "value": 3.12818594, "n": 1}, {"scriptPubKey": {"reqSigs": 1, "hex": "76a914b651128f2be22f3d8af54bab924ddd971665f00888ac", "addresses": ["1Hd16vt84t7mTkrHyUDNtt7Qg3emCrMG7k"], "asm": "OP_DUP OP_HASH160 b651128f2be22f3d8af54bab924ddd971665f008 OP_EQUALVERIFY OP_CHECKSIG", "type": "pubkeyhash"}, "value": 0.0004, "n": 2}, {"scriptPubKey": {"reqSigs": 1, "hex": "76a914e4be8deac48258d7c5fb032253781532bdda091b88ac", "addresses": ["1MrVLgpom6pxgod3qFJ5JfTcLwGnZxkey9"], "asm": "OP_DUP OP_HASH160 e4be8deac48258d7c5fb032253781532bdda091b OP_EQUALVERIFY OP_CHECKSIG", "type": "pubkeyhash"}, "value": 0.2295, "n": 3}, {"scriptPubKey": {"reqSigs": 1, "hex": "76a91493a2ad1ce62a6938a49c50de16676d2fbb8baeb588ac", "addresses": ["1ETdD9Bp6ec9UrLhazPM5sjVzCRy17gLNb"], "asm": "OP_DUP OP_HASH160 93a2ad1ce62a6938a49c50de16676d2fbb8baeb5 OP_EQUALVERIFY OP_CHECKSIG", "type": "pubkeyhash"}, "value": 0.00186572, "n": 4}], "hex": "020000000001011a207a2894d5b5dd506a99e4b13d35423ce18cbc97cf04201c3990cdad79503600000000171600140918987dc321450e8b534186a1c1014c327d3e66feffffff059846ec02000000001976a91415efba4572d98d9d19be7378e85fe6b2f5a111fb88aca23ba5120000000017a914a9b50069c4e2c94fbe68d2505d32d2a009806f8287409c0000000000001976a914b651128f2be22f3d8af54bab924ddd971665f00888ac70305e01000000001976a914e4be8deac48258d7c5fb032253781532bdda091b88acccd80200000000001976a91493a2ad1ce62a6938a49c50de16676d2fbb8baeb588ac0247304402206933000112dd47145da4c0c323b2e0cc3f7a38139dcd78e4f331b6648f2bb5b002205b01a095da79a0f4e70d9c8b42f65e427df87b78889c90f9e0a0dcdd62681114012102a762329ed57b6c3fc2504252a61f79a3bf3a74cca8f6cf48e121d59a185ca56a17490800", "vin": [{"txinwitness": ["304402206933000112dd47145da4c0c323b2e0cc3f7a38139dcd78e4f331b6648f2bb5b002205b01a095da79a0f4e70d9c8b42f65e427df87b78889c90f9e0a0dcdd6268111401", "02a762329ed57b6c3fc2504252a61f79a3bf3a74cca8f6cf48e121d59a185ca56a"], "sequence": 4294967294, "scriptSig": {"hex": "1600140918987dc321450e8b534186a1c1014c327d3e66", "asm": "00140918987dc321450e8b534186a1c1014c327d3e66"}, "vout": 0, "txid": "365079adcd90391c2004cf97bc8ce13c42353db1e4996a50ddb5d594287a201a"}], "txid": "c1ccf68b72168312117403ba576d32e64ccf7d13dd6981776ced7431313bd865", "blocktime": 1537876114, "version": 2, "confirmations": 11460, "time": 1537876114, "locktime": 542999, "vsize": 270, "size": 351}