{"hash": "14833caac637cf148f99ee6dda95bb095d335099b731e5d4ef10b68c8a340ca6", "blockhash": "0000000000000000001e0dab787dd257d1dbfcb92a98c2207d5e1078be1f4165", "vout": [{"scriptPubKey": {"reqSigs": 1, "hex": "0014900b64ba6eaddad78c5e315a68bd5e95bb356fa9", "addresses": ["bc1qjq9kfwnw4hdd0rz7x9dx3027jkan2maff2fjgf"], "asm": "0 900b64ba6eaddad78c5e315a68bd5e95bb356fa9", "type": "witness_v0_keyhash"}, "value": 0.00023712, "n": 0}, {"scriptPubKey": {"reqSigs": 1, "hex": "a91469f376bd5e532d0eaa982fc43b9a880194890c2387", "addresses": ["3BMEXrCzoJhUJMPin7jfFaoMaWF4buKDyD"], "asm": "OP_HASH160 69f376bd5e532d0eaa982fc43b9a880194890c23 OP_EQUAL", "type": "scripthash"}, "value": 0.02631521, "n": 1}], "hex": "0100000000010139cacc92723424de19eb1f19b068dca992479f61b267b0b674fae4becf3dde330e00000017160014dc3f6b1624f9e7026c1470822e9c02d80d2aa2c4ffffffff02a05c000000000000160014900b64ba6eaddad78c5e315a68bd5e95bb356fa9612728000000000017a91469f376bd5e532d0eaa982fc43b9a880194890c23870248304502210084efd7a5665da0049c79cf1886e33fb35e1068ee2573baf54d6ea46f6b25134a02202ec36b9516b56cbb792c5b6c4f16a940eb4fbbbbdb7559712647c8f8370567b9012102c9052be6c2ad562e06b280eeaf351f84d73f870f885ce115d1626b2fb603631200000000", "vin": [{"txinwitness": ["304502210084efd7a5665da0049c79cf1886e33fb35e1068ee2573baf54d6ea46f6b25134a02202ec36b9516b56cbb792c5b6c4f16a940eb4fbbbbdb7559712647c8f8370567b901", "02c9052be6c2ad562e06b280eeaf351f84d73f870f885ce115d1626b2fb6036312"], "sequence": 4294967295, "scriptSig": {"hex": "160014dc3f6b1624f9e7026c1470822e9c02d80d2aa2c4", "asm": "0014dc3f6b1624f9e7026c1470822e9c02d80d2aa2c4"}, "vout": 14, "txid": "33de3dcfbee4fa74b6b067b2619f4792a9dc68b0191feb19de24347292ccca39"}], "txid": "c1cef68d58a6d431b4040a664002f5adbed8e98eab6a65bda167124ca55bbecc", "blocktime": 1537872475, "version": 1, "confirmations": 11486, "time": 1537872475, "locktime": 0, "vsize": 165, "size": 247}