{"hash": "8f05785f67403a763a8be60c68418095061839829894c0ed4db29364cd7472b8", "blockhash": "0000000000000000001cda96e906b7601b7a6fb1a3b62bca570a9e5d8f4b3de1", "vout": [{"scriptPubKey": {"reqSigs": 1, "hex": "76a914521807055d7d2f2915f0e29aafbc8a889f17a09488ac", "addresses": ["18V5CBiyzHF4mdoe8mdwELxVYtHcz4ysd8"], "asm": "OP_DUP OP_HASH160 521807055d7d2f2915f0e29aafbc8a889f17a094 OP_EQUALVERIFY OP_CHECKSIG", "type": "pubkeyhash"}, "value": 0.0117, "n": 0}, {"scriptPubKey": {"reqSigs": 1, "hex": "0014cfc49e5a42f37f8fae8d5f0e73267ee0768cc235", "addresses": ["bc1qelzfukjz7dlclt5dtu88xfn7upmges34wjzauq"], "asm": "0 cfc49e5a42f37f8fae8d5f0e73267ee0768cc235", "type": "witness_v0_keyhash"}, "value": 0.00047948, "n": 1}], "hex": "0100000000010126e81ef684fd44a98ad9f399a2b79b27cdfd6ade836bf5f1bed5bb7516b0b4e40100000000ffffffff0250da1100000000001976a914521807055d7d2f2915f0e29aafbc8a889f17a09488ac4cbb000000000000160014cfc49e5a42f37f8fae8d5f0e73267ee0768cc23502483045022100d2eea847690cca6b1d7cf313aad1dfece20484eecabd8e3f94bcb806dd9107e502204168a79b715bee3a3e680a637f0fe727019233e0c5320f4de74fb71b076f4aa7012103b9fd25db4971d96e4836268d5982818fdfad6fa5860b3100f1a9f0818e75151c00000000", "vin": [{"txinwitness": ["3045022100d2eea847690cca6b1d7cf313aad1dfece20484eecabd8e3f94bcb806dd9107e502204168a79b715bee3a3e680a637f0fe727019233e0c5320f4de74fb71b076f4aa701", "03b9fd25db4971d96e4836268d5982818fdfad6fa5860b3100f1a9f0818e75151c"], "sequence": 4294967295, "scriptSig": {"hex": "", "asm": ""}, "vout": 1, "txid": "e4b4b01675bbd5bef1f56b83de6afdcd279bb7a299f3d98aa944fd84f61ee826"}], "txid": "c1ce50de81dce9bb52a8a64ecf21f250e3d1aab42e5ec6580abc33519c6bce7f", "blocktime": 1537873282, "version": 1, "confirmations": 11484, "time": 1537873282, "locktime": 0, "vsize": 144, "size": 226}