{"hash": "c1d8db0d09d04dd96611d478c7b1b479208fd642c78197c9777ff089a9abb639", "blockhash": "00000000000000000017f5eb5941039fbcee6240d03bc1f2f8e35350df66a1d8", "vout": [{"scriptPubKey": {"reqSigs": 1, "hex": "76a914f516d63b57e23e9df10c0da9c0bd8e526fcd215a88ac", "addresses": ["1PLuujM8bxiyjKrHgijxtiYPwWFM6x9vnc"], "asm": "OP_DUP OP_HASH160 f516d63b57e23e9df10c0da9c0bd8e526fcd215a OP_EQUALVERIFY OP_CHECKSIG", "type": "pubkeyhash"}, "value": 0.00248, "n": 0}, {"scriptPubKey": {"reqSigs": 1, "hex": "76a9141b7d2a632a80409f010aef8a7b436f8d6c0481ad88ac", "addresses": ["13WMBqVaK3QW5Wm5XTg6cNaCr2PkpkgGHr"], "asm": "OP_DUP OP_HASH160 1b7d2a632a80409f010aef8a7b436f8d6c0481ad OP_EQUALVERIFY OP_CHECKSIG", "type": "pubkeyhash"}, "value": 0.00845632, "n": 1}], "hex": "0100000001652d76b9a212ff57ce49f20c58d7cd4c83b18033c473566ad96c8fea64e99f4a010000006a473044022031359a523ed07dc51891f5603280b2837c0c0222a4f3cfb9135ae95795e5bd4c0220104ef4e8419afe89518ac790efe0847c45a383e62c4b1e8606945a83a4e51a7a012102c770a285af3b612fa6563a231a3a06e059c96c10ff3e85f459b99c4166145490ffffffff02c0c80300000000001976a914f516d63b57e23e9df10c0da9c0bd8e526fcd215a88ac40e70c00000000001976a9141b7d2a632a80409f010aef8a7b436f8d6c0481ad88ac00000000", "vin": [{"sequence": 4294967295, "scriptSig": {"hex": "473044022031359a523ed07dc51891f5603280b2837c0c0222a4f3cfb9135ae95795e5bd4c0220104ef4e8419afe89518ac790efe0847c45a383e62c4b1e8606945a83a4e51a7a012102c770a285af3b612fa6563a231a3a06e059c96c10ff3e85f459b99c4166145490", "asm": "3044022031359a523ed07dc51891f5603280b2837c0c0222a4f3cfb9135ae95795e5bd4c0220104ef4e8419afe89518ac790efe0847c45a383e62c4b1e8606945a83a4e51a7a[ALL] 02c770a285af3b612fa6563a231a3a06e059c96c10ff3e85f459b99c4166145490"}, "vout": 1, "txid": "4a9fe964ea8f6cd96a5673c43380b1834ccdd7580cf249ce57ff12a2b9762d65"}], "txid": "c1d8db0d09d04dd96611d478c7b1b479208fd642c78197c9777ff089a9abb639", "blocktime": 1537874412, "version": 1, "confirmations": 11468, "time": 1537874412, "locktime": 0, "vsize": 225, "size": 225}