{"hash": "fea77aa727b23a878de0276b31d51244f0b0765ae49ec57f1da02dbae5b4046e", "blockhash": "0000000000000000000e13cef7c366c0283d82e591d1acd082e914b08063cdf1", "vout": [{"scriptPubKey": {"reqSigs": 1, "hex": "76a9144e472b62c2839c25e320d1e9e055dd699d1e8a6788ac", "addresses": ["188txuUCDkYR63i653kSeX3o9oqBEnNkEm"], "asm": "OP_DUP OP_HASH160 4e472b62c2839c25e320d1e9e055dd699d1e8a67 OP_EQUALVERIFY OP_CHECKSIG", "type": "pubkeyhash"}, "value": 0.00201827, "n": 0}, {"scriptPubKey": {"reqSigs": 1, "hex": "a9142dc538ce71cb10a50d79fee1183261a5aeb32cf087", "addresses": ["35s2bPoarLj4QBiUDCELzcdxvdESLJDA31"], "asm": "OP_HASH160 2dc538ce71cb10a50d79fee1183261a5aeb32cf0 OP_EQUAL", "type": "scripthash"}, "value": 0.02820122, "n": 1}], "hex": "01000000000101c07516bee2a5dd4987ae86dec4f006b5216c157ef2f86dd5434c9e900e242b440100000023220020a43533702b8f918e85109c5bb0cb3d02adee351674fb390409f559de892642a5ffffffff0263140300000000001976a9144e472b62c2839c25e320d1e9e055dd699d1e8a6788ac1a082b000000000017a9142dc538ce71cb10a50d79fee1183261a5aeb32cf087040047304402206ecc4f43fc5fc9f58b4f2d4bd49a368cf972d29e6ef9722d354bd3088806dd17022033e6744b26a955321424dea6b526012683561a9e657d0dd6c3da533caa98d61401483045022100d8036f5411182bc30c4ecce6ffdc5e5e67ffc73be91685662739e117daf0cd4902205001f8aaf82dbe6442d1a6d001b152ce199c3d1c831688f6b60e7ea6902b47090147522103b365417e780d3880bb487601bec488db710283cefbf9f514ea1ec0c1ad1680d4210203c534d0fa987b3bd3c576fb75f2fc2fd33a71170864e7d6ef4934997f28cd7052ae00000000", "vin": [{"txinwitness": ["", "304402206ecc4f43fc5fc9f58b4f2d4bd49a368cf972d29e6ef9722d354bd3088806dd17022033e6744b26a955321424dea6b526012683561a9e657d0dd6c3da533caa98d61401", "3045022100d8036f5411182bc30c4ecce6ffdc5e5e67ffc73be91685662739e117daf0cd4902205001f8aaf82dbe6442d1a6d001b152ce199c3d1c831688f6b60e7ea6902b470901", "522103b365417e780d3880bb487601bec488db710283cefbf9f514ea1ec0c1ad1680d4210203c534d0fa987b3bd3c576fb75f2fc2fd33a71170864e7d6ef4934997f28cd7052ae"], "sequence": 4294967295, "scriptSig": {"hex": "220020a43533702b8f918e85109c5bb0cb3d02adee351674fb390409f559de892642a5", "asm": "0020a43533702b8f918e85109c5bb0cb3d02adee351674fb390409f559de892642a5"}, "vout": 1, "txid": "442b240e909e4c43d56df8f27e156c21b506f0c4de86ae8749dda5e2be1675c0"}], "txid": "c1d9da7dc099a1485e2d85a45772e558055a3e170f3c578c48136df6080ac5c7", "blocktime": 1537871767, "version": 1, "confirmations": 11495, "time": 1537871767, "locktime": 0, "vsize": 208, "size": 373}