{"hash": "5aba98a88276da1cdef4b320e5b96a7431d471a9fab2f290f4e33323d4973677", "blockhash": "0000000000000000000baef3f32e3676a92c3b2e5da21b426e4f302fc371ce76", "vout": [{"scriptPubKey": {"reqSigs": 1, "hex": "a914a15bdfc8acc7e49562daec0006e6d8bfd377eb9287", "addresses": ["3GQCmxScnQyjs6PDBR2xJiKjtXQhQHvdE6"], "asm": "OP_HASH160 a15bdfc8acc7e49562daec0006e6d8bfd377eb92 OP_EQUAL", "type": "scripthash"}, "value": 0.0098, "n": 0}, {"scriptPubKey": {"reqSigs": 1, "hex": "a91469f374503e9f2f069d7d34f599e6215e8063d7a787", "addresses": ["3BMEXC1kcbyYcW9k6Y8SYBmna5zTEyEWT4"], "asm": "OP_HASH160 69f374503e9f2f069d7d34f599e6215e8063d7a7 OP_EQUAL", "type": "scripthash"}, "value": 0.0066, "n": 1}, {"scriptPubKey": {"reqSigs": 1, "hex": "76a914fb7cc743f65d76e236c33eaa104d0e396c0b9b4b88ac", "addresses": ["1Pvk5uPn3yuDXN2DFfaJHMLtxkbAid5Z4b"], "asm": "OP_DUP OP_HASH160 fb7cc743f65d76e236c33eaa104d0e396c0b9b4b OP_EQUALVERIFY OP_CHECKSIG", "type": "pubkeyhash"}, "value": 0.083, "n": 2}, {"scriptPubKey": {"reqSigs": 1, "hex": "76a9145a56f62e803a741873a8a7d34f0d009ea53af3b788ac", "addresses": ["19EfzU2HydzrGATRT4Edu158L6gN1c1qBP"], "asm": "OP_DUP OP_HASH160 5a56f62e803a741873a8a7d34f0d009ea53af3b7 OP_EQUALVERIFY OP_CHECKSIG", "type": "pubkeyhash"}, "value": 0.02584, "n": 3}, {"scriptPubKey": {"reqSigs": 1, "hex": "a91407e4021ca440e9c34ed07f5584e5976eaf16893187", "addresses": ["32QjoBFHrPpDwcvPTadEyYaPseQWzL8Fq9"], "asm": "OP_HASH160 07e4021ca440e9c34ed07f5584e5976eaf168931 OP_EQUAL", "type": "scripthash"}, "value": 191.8252949, "n": 4}], "hex": "010000000001013d166bc8d11734be0bd8b43e2cb479d419c16fc33a41f34f6da57e5be6bf33d7030000001716001480395b92d165fc1dc5470ffa0706ea66e15757b6ffffffff0520f40e000000000017a914a15bdfc8acc7e49562daec0006e6d8bfd377eb928720120a000000000017a91469f374503e9f2f069d7d34f599e6215e8063d7a787e0a57e00000000001976a914fb7cc743f65d76e236c33eaa104d0e396c0b9b4b88acc06d2700000000001976a9145a56f62e803a741873a8a7d34f0d009ea53af3b788acd22b5e770400000017a91407e4021ca440e9c34ed07f5584e5976eaf1689318702473044022027da41aca65f803a3c9768a734bbba49574018e4391ffb6b1c797555d536c709022075f5cea045ede83f7a0d60062082713a2917aacd3f85d8ecc43edc863635324a012103f166ff75d4382bb77a58c574ba3e426624712bf205c410af7858f842df68486a00000000", "vin": [{"txinwitness": ["3044022027da41aca65f803a3c9768a734bbba49574018e4391ffb6b1c797555d536c709022075f5cea045ede83f7a0d60062082713a2917aacd3f85d8ecc43edc863635324a01", "03f166ff75d4382bb77a58c574ba3e426624712bf205c410af7858f842df68486a"], "sequence": 4294967295, "scriptSig": {"hex": "16001480395b92d165fc1dc5470ffa0706ea66e15757b6", "asm": "001480395b92d165fc1dc5470ffa0706ea66e15757b6"}, "vout": 3, "txid": "d733bfe65b7ea56d4ff3413ac36fc119d479b42c3eb4d80bbe3417d1c86b163d"}], "txid": "c1db4b48cbd634f5926695b5b88d11aae8fde208fae0ce7bb81bee40f53f70f7", "blocktime": 1537876114, "version": 1, "confirmations": 11460, "time": 1537876114, "locktime": 0, "vsize": 266, "size": 347}