{"hash": "ad6ad7bc77b3b4647f5d656e991f2419fdcea893eb6cde7f57ae4bebeeb0d679", "blockhash": "0000000000000000000e13cef7c366c0283d82e591d1acd082e914b08063cdf1", "vout": [{"scriptPubKey": {"reqSigs": 1, "hex": "a914e57c2cb4d83b3655a7ff358023e11b5e2263baef87", "addresses": ["3NcRRH4haGajZDBXo1vcnnumJSECwL1jrm"], "asm": "OP_HASH160 e57c2cb4d83b3655a7ff358023e11b5e2263baef OP_EQUAL", "type": "scripthash"}, "value": 0.00998547, "n": 0}, {"scriptPubKey": {"reqSigs": 1, "hex": "76a9142e1b944fe7ffbe969fc1df8d662fd7b5d6303c9b88ac", "addresses": ["15Co856cRnFRCKwSSzECoyT3ozVhuFoJZ6"], "asm": "OP_DUP OP_HASH160 2e1b944fe7ffbe969fc1df8d662fd7b5d6303c9b OP_EQUALVERIFY OP_CHECKSIG", "type": "pubkeyhash"}, "value": 0.00226614, "n": 1}], "hex": "0200000000010586a9264b47055b215867d2ad23abb06a8152673748349413b2cd08393d9b547e1500000017160014583e03653007a49beb8970cf402901eb9e081ef7feffffff94bc865c2bb90909cbf1a02069d6e0046a35b8c927cbe4b87121f5357c81c05f00000000171600149385065bfc18ec10d2031c48648aa28647877f57feffffff9ef32be16b608b9d302d67db5ca6ba711ba3446420e038a8475255f925416bf50d000000171600140c306524545022bde3c97f73d8bd8ba2801c8eacfeffffffa5ebdbd3d98228774007ff18c5e3bbb108122c4340b92b8bea3fad0c4b670cec0c000000171600148c1f2f6fee8c6ad1c2621bab206f4b8559639c33feffffffe211af7c4e9c8712417afd159cb318946491d226f3c1ab0bca7a3b6c302e76f81200000017160014583e03653007a49beb8970cf402901eb9e081ef7feffffff02933c0f000000000017a914e57c2cb4d83b3655a7ff358023e11b5e2263baef8736750300000000001976a9142e1b944fe7ffbe969fc1df8d662fd7b5d6303c9b88ac0248304502210095109f29e520abe15c421c5812a981b4083a7843cc4f6ae9010ba4cdfe5cf1bf022078bd834c4b34f0cecf71593dd8e0e676eca1dc1bd68faa47679c1ba8a80039d301210263be7eaebd0bfc4f320c2a39240f92f1278cc5afc1681d831daa0bec97bffd2202483045022100a419a7d6e7df6cc015e23923c2eba21a09f7003ac36fff595e380e09f6e2ade502202abd14f79fa926b73d2afca161fed65edd982ac9bcbf2ad316686096a948385e0121035e83c2241cf27eae4e7dda9db84e6a86b02f93fa8ede3af73a131340c4bcb5f702483045022100fe2021c558bdd86a2149041fada4cfef0e1b3c69c308a873daa3df19243dd65902203cc99330f33c537a5cf7ac863072c432b7773359c40bb8c138c8217422c55750012102df41c166268ef085680fc8af3da4e07f28349fe18e1e7be6436018d5b431ad1d02473044022001f2e6cc9b7d16648d72563a8817f3440e270180cdd5dffab4ccfb0304f03aeb022045aba84b8e84df4ebe8bbd6613c6b0d72d81c24876e7fca07e38e970426d8311012103706e2747d7698d1b6ad907ba0b02e64a06f68b460d16c1d3bf308cdad5fd85e802473044022008f71d03bac75608e8d707046e9743db0dd50f7d829f615b9914e1c3e7bde1700220651e6e70b872f3118e38a8085d50e18641d23659ea3106a08ded8a3981faab3e01210263be7eaebd0bfc4f320c2a39240f92f1278cc5afc1681d831daa0bec97bffd2210490800", "vin": [{"txinwitness": ["304502210095109f29e520abe15c421c5812a981b4083a7843cc4f6ae9010ba4cdfe5cf1bf022078bd834c4b34f0cecf71593dd8e0e676eca1dc1bd68faa47679c1ba8a80039d301", "0263be7eaebd0bfc4f320c2a39240f92f1278cc5afc1681d831daa0bec97bffd22"], "sequence": 4294967294, "scriptSig": {"hex": "160014583e03653007a49beb8970cf402901eb9e081ef7", "asm": "0014583e03653007a49beb8970cf402901eb9e081ef7"}, "vout": 21, "txid": "7e549b3d3908cdb213943448376752816ab0ab23add26758215b05474b26a986"}, {"txinwitness": ["3045022100a419a7d6e7df6cc015e23923c2eba21a09f7003ac36fff595e380e09f6e2ade502202abd14f79fa926b73d2afca161fed65edd982ac9bcbf2ad316686096a948385e01", "035e83c2241cf27eae4e7dda9db84e6a86b02f93fa8ede3af73a131340c4bcb5f7"], "sequence": 4294967294, "scriptSig": {"hex": "1600149385065bfc18ec10d2031c48648aa28647877f57", "asm": "00149385065bfc18ec10d2031c48648aa28647877f57"}, "vout": 0, "txid": "5fc0817c35f52171b8e4cb27c9b8356a04e0d66920a0f1cb0909b92b5c86bc94"}, {"txinwitness": ["3045022100fe2021c558bdd86a2149041fada4cfef0e1b3c69c308a873daa3df19243dd65902203cc99330f33c537a5cf7ac863072c432b7773359c40bb8c138c8217422c5575001", "02df41c166268ef085680fc8af3da4e07f28349fe18e1e7be6436018d5b431ad1d"], "sequence": 4294967294, "scriptSig": {"hex": "1600140c306524545022bde3c97f73d8bd8ba2801c8eac", "asm": "00140c306524545022bde3c97f73d8bd8ba2801c8eac"}, "vout": 13, "txid": "f56b4125f9555247a838e0206444a31b71baa65cdb672d309d8b606be12bf39e"}, {"txinwitness": ["3044022001f2e6cc9b7d16648d72563a8817f3440e270180cdd5dffab4ccfb0304f03aeb022045aba84b8e84df4ebe8bbd6613c6b0d72d81c24876e7fca07e38e970426d831101", "03706e2747d7698d1b6ad907ba0b02e64a06f68b460d16c1d3bf308cdad5fd85e8"], "sequence": 4294967294, "scriptSig": {"hex": "1600148c1f2f6fee8c6ad1c2621bab206f4b8559639c33", "asm": "00148c1f2f6fee8c6ad1c2621bab206f4b8559639c33"}, "vout": 12, "txid": "ec0c674b0cad3fea8b2bb940432c1208b1bbe3c518ff0740772882d9d3dbeba5"}, {"txinwitness": ["3044022008f71d03bac75608e8d707046e9743db0dd50f7d829f615b9914e1c3e7bde1700220651e6e70b872f3118e38a8085d50e18641d23659ea3106a08ded8a3981faab3e01", "0263be7eaebd0bfc4f320c2a39240f92f1278cc5afc1681d831daa0bec97bffd22"], "sequence": 4294967294, "scriptSig": {"hex": "160014583e03653007a49beb8970cf402901eb9e081ef7", "asm": "0014583e03653007a49beb8970cf402901eb9e081ef7"}, "vout": 18, "txid": "f8762e306c3b7aca0babc1f326d291649418b39c15fd7a4112879c4e7caf11e2"}], "txid": "c1e1cfc6dbb85382f8bab87de5f293e0be5697b997c2388e8c82d4d040069723", "blocktime": 1537871767, "version": 2, "confirmations": 11495, "time": 1537871767, "locktime": 542992, "vsize": 531, "size": 936}