{"hash": "c1e5dd2364cbe2cfa0757576c1828fbcbd6825bfb0c569dd6597729a21bb54e8", "blockhash": "00000000000000000017f5eb5941039fbcee6240d03bc1f2f8e35350df66a1d8", "vout": [{"scriptPubKey": {"reqSigs": 1, "hex": "a914d397b16591d68be8d5b3b6f9a982c3401c5f863187", "addresses": ["3LypDqAsJxJJbvMJuHxKMCFet2uz6Qau24"], "asm": "OP_HASH160 d397b16591d68be8d5b3b6f9a982c3401c5f8631 OP_EQUAL", "type": "scripthash"}, "value": 0.01074001, "n": 0}, {"scriptPubKey": {"reqSigs": 1, "hex": "76a9149b78fa373eeeb4c4c6e6a9f707ce4be068dfb0b288ac", "addresses": ["1FB4fPh2c7De2AdcJuHbZiwW3rxf3e9fcy"], "asm": "OP_DUP OP_HASH160 9b78fa373eeeb4c4c6e6a9f707ce4be068dfb0b2 OP_EQUALVERIFY OP_CHECKSIG", "type": "pubkeyhash"}, "value": 0.01484431, "n": 1}], "hex": "0200000002ac010e6151223cffbee51e38ce818c963f2bb3f348bc4980df0802b0c187e9dd000000006b483045022100a2e84e73e51ad78be89c90b3d5f1592aded30eea54823e9f9b9eaa8b9744c480022067fc8400e6384104ba3cd969301f5a8aef5d16886c1685cdd3dc8f0f76db3258012103c0b8657d058415d12bae520e4b6f1f1fe6468234a89ef8455d13e0dad5316deefdffffffcf841838acb9f4d9528b728f124084c6613aff3ff35011cec1969883055a597a200000006b483045022100fd9cdf7cd10ebc9f2f3aab2bad1f0c706e61850985251fd9f29d47c6948cbd1502201e58f6dd2f33a849654fe94d76cd0f0315bb7b1447360c740bf59490b316bec9012103357d0e107ba40100c0b8c23f42c2e5e9d5cacf81607bf0f2bc9c729252d21596fdffffff02516310000000000017a914d397b16591d68be8d5b3b6f9a982c3401c5f8631878fa61600000000001976a9149b78fa373eeeb4c4c6e6a9f707ce4be068dfb0b288ac00000000", "vin": [{"sequence": 4294967293, "scriptSig": {"hex": "483045022100a2e84e73e51ad78be89c90b3d5f1592aded30eea54823e9f9b9eaa8b9744c480022067fc8400e6384104ba3cd969301f5a8aef5d16886c1685cdd3dc8f0f76db3258012103c0b8657d058415d12bae520e4b6f1f1fe6468234a89ef8455d13e0dad5316dee", "asm": "3045022100a2e84e73e51ad78be89c90b3d5f1592aded30eea54823e9f9b9eaa8b9744c480022067fc8400e6384104ba3cd969301f5a8aef5d16886c1685cdd3dc8f0f76db3258[ALL] 03c0b8657d058415d12bae520e4b6f1f1fe6468234a89ef8455d13e0dad5316dee"}, "vout": 0, "txid": "dde987c1b00208df8049bc48f3b32b3f968c81ce381ee5beff3c2251610e01ac"}, {"sequence": 4294967293, "scriptSig": {"hex": "483045022100fd9cdf7cd10ebc9f2f3aab2bad1f0c706e61850985251fd9f29d47c6948cbd1502201e58f6dd2f33a849654fe94d76cd0f0315bb7b1447360c740bf59490b316bec9012103357d0e107ba40100c0b8c23f42c2e5e9d5cacf81607bf0f2bc9c729252d21596", "asm": "3045022100fd9cdf7cd10ebc9f2f3aab2bad1f0c706e61850985251fd9f29d47c6948cbd1502201e58f6dd2f33a849654fe94d76cd0f0315bb7b1447360c740bf59490b316bec9[ALL] 03357d0e107ba40100c0b8c23f42c2e5e9d5cacf81607bf0f2bc9c729252d21596"}, "vout": 32, "txid": "7a595a05839896c1ce1150f33fff3a61c68440128f728b52d9f4b9ac381884cf"}], "txid": "c1e5dd2364cbe2cfa0757576c1828fbcbd6825bfb0c569dd6597729a21bb54e8", "blocktime": 1537874412, "version": 2, "confirmations": 11468, "time": 1537874412, "locktime": 0, "vsize": 372, "size": 372}