{"hash": "fab87ee95873d12425965c180d210c84681dbed661a41a299eb63c1e413ec432", "blockhash": "0000000000000000001f76057863aec43deb6fa401d9628bb513d65a8098bfab", "vout": [{"scriptPubKey": {"reqSigs": 1, "hex": "a914cc4534ff1a13cca592963c1f75131420e75a020387", "addresses": ["3LK6gGKqtLnd72sHUnXTmT1phNi4RkGs4A"], "asm": "OP_HASH160 cc4534ff1a13cca592963c1f75131420e75a0203 OP_EQUAL", "type": "scripthash"}, "value": 0.0071, "n": 0}, {"scriptPubKey": {"reqSigs": 1, "hex": "a9140ccad349b13da1d0c6641f74a502a9bf92dc663087", "addresses": ["32rf1Q1rqYGwetuqahMEaY7F1aN3qESxim"], "asm": "OP_HASH160 0ccad349b13da1d0c6641f74a502a9bf92dc6630 OP_EQUAL", "type": "scripthash"}, "value": 0.28964356, "n": 1}], "hex": "01000000000101dda149ae6ab06f87d5e0a21ef16964bc6a6745b4aa0cd91070ce7862a2d794160000000017160014d69dae729f3b030cace4e80801f3d5cb45c91bb9ffffff000270d50a000000000017a914cc4534ff1a13cca592963c1f75131420e75a02038704f6b9010000000017a9140ccad349b13da1d0c6641f74a502a9bf92dc66308702483045022100fe6e13d4e79ac304bf6f7a402a01f13bc2223ca335881bc7c433f7ef33afd43e0220464ca31244c4a1bfb55bf2ef630520f6857a761827c2cbba8a89bfe9f6d33af201210214a8e074834aff54f304e8a81851f8c93d59e3a4ccb4e96d596b92c53f95ebe900000000", "vin": [{"txinwitness": ["3045022100fe6e13d4e79ac304bf6f7a402a01f13bc2223ca335881bc7c433f7ef33afd43e0220464ca31244c4a1bfb55bf2ef630520f6857a761827c2cbba8a89bfe9f6d33af201", "0214a8e074834aff54f304e8a81851f8c93d59e3a4ccb4e96d596b92c53f95ebe9"], "sequence": 16777215, "scriptSig": {"hex": "160014d69dae729f3b030cace4e80801f3d5cb45c91bb9", "asm": "0014d69dae729f3b030cace4e80801f3d5cb45c91bb9"}, "vout": 0, "txid": "1694d7a26278ce7010d90caab445676abc6469f11ea2e0d5876fb06aae49a1dd"}], "txid": "c1e6c84c4108056f1bb2fe3286929b5ab5bfb871e3ed53266ebaed726103abbf", "blocktime": 1537873891, "version": 1, "confirmations": 11478, "time": 1537873891, "locktime": 0, "vsize": 166, "size": 248}