{"hash": "c1eaa4e00d22853dc6872c8d04e965fe57b6a4fb3442a19fa5397983451a81f5", "blockhash": "0000000000000000001f76057863aec43deb6fa401d9628bb513d65a8098bfab", "vout": [{"scriptPubKey": {"reqSigs": 1, "hex": "76a9143c7decf9b0ba40cd3bc9cddbe8bb8a14f6d9775688ac", "addresses": ["16WrPyq4pjimCiZ7tFLGQc7VjCh1Jf8DWo"], "asm": "OP_DUP OP_HASH160 3c7decf9b0ba40cd3bc9cddbe8bb8a14f6d97756 OP_EQUALVERIFY OP_CHECKSIG", "type": "pubkeyhash"}, "value": 0.030692, "n": 0}, {"scriptPubKey": {"reqSigs": 1, "hex": "a9142b69a1816002ad6459843bd0c0a30dcb9bbf653087", "addresses": ["35eZX9veqVcuURAHgJRBFZAVVP2GHAqsXm"], "asm": "OP_HASH160 2b69a1816002ad6459843bd0c0a30dcb9bbf6530 OP_EQUAL", "type": "scripthash"}, "value": 0.1, "n": 1}], "hex": "010000000257e3ca94926f9185ae37eb01ea6886c6aa445a11c0fd171736f1c5407b336303010000006a4730440220630a8ef406f7d53ebfe15660b3561b88177cac9387eff0ad168610f57e187a7d022030fe2758742702320c7349444e4a4742c7304877811798dff227735a3cc13cb5012102edbf8c8919e19c86c6e86f2889e4273d630b67b573ee679a1d4f504956086987feffffffc94ca2ff55906184c37597ae87619cd8b334c24cb2289f5ac40c6681ad4a75c8010000006b483045022100c426bfb0f6c19d65afa87d4d1d624979da295fdf6459b5bd72cd61fe682fdbda02202426309a169da8f8d5799f909ec1a129c2f0c56484c716e9849cf2bff47d227a0121020c2acf8e2d951d2b0c3f09349106c962ecf575bb147a497f35879f326041eaeffeffffff0210d52e00000000001976a9143c7decf9b0ba40cd3bc9cddbe8bb8a14f6d9775688ac809698000000000017a9142b69a1816002ad6459843bd0c0a30dcb9bbf65308700000000", "vin": [{"sequence": 4294967294, "scriptSig": {"hex": "4730440220630a8ef406f7d53ebfe15660b3561b88177cac9387eff0ad168610f57e187a7d022030fe2758742702320c7349444e4a4742c7304877811798dff227735a3cc13cb5012102edbf8c8919e19c86c6e86f2889e4273d630b67b573ee679a1d4f504956086987", "asm": "30440220630a8ef406f7d53ebfe15660b3561b88177cac9387eff0ad168610f57e187a7d022030fe2758742702320c7349444e4a4742c7304877811798dff227735a3cc13cb5[ALL] 02edbf8c8919e19c86c6e86f2889e4273d630b67b573ee679a1d4f504956086987"}, "vout": 1, "txid": "0363337b40c5f1361717fdc0115a44aac68668ea01eb37ae85916f9294cae357"}, {"sequence": 4294967294, "scriptSig": {"hex": "483045022100c426bfb0f6c19d65afa87d4d1d624979da295fdf6459b5bd72cd61fe682fdbda02202426309a169da8f8d5799f909ec1a129c2f0c56484c716e9849cf2bff47d227a0121020c2acf8e2d951d2b0c3f09349106c962ecf575bb147a497f35879f326041eaef", "asm": "3045022100c426bfb0f6c19d65afa87d4d1d624979da295fdf6459b5bd72cd61fe682fdbda02202426309a169da8f8d5799f909ec1a129c2f0c56484c716e9849cf2bff47d227a[ALL] 020c2acf8e2d951d2b0c3f09349106c962ecf575bb147a497f35879f326041eaef"}, "vout": 1, "txid": "c8754aad81660cc45a9f28b24cc234b3d89c6187ae9775c384619055ffa24cc9"}], "txid": "c1eaa4e00d22853dc6872c8d04e965fe57b6a4fb3442a19fa5397983451a81f5", "blocktime": 1537873891, "version": 1, "confirmations": 11477, "time": 1537873891, "locktime": 0, "vsize": 371, "size": 371}