{"hash": "5b2cebbdaa6be810d93375a345e58d5911a90cb660da2b33da37a116345f8139", "blockhash": "0000000000000000001cda96e906b7601b7a6fb1a3b62bca570a9e5d8f4b3de1", "vout": [{"scriptPubKey": {"reqSigs": 1, "hex": "a914d0ad9e783b54ca33aca2db7009f8fb98cb1024a387", "addresses": ["3LiQThsxRTxmSiKckWgCKM57Yc8hs8zDQj"], "asm": "OP_HASH160 d0ad9e783b54ca33aca2db7009f8fb98cb1024a3 OP_EQUAL", "type": "scripthash"}, "value": 0.01563217, "n": 0}, {"scriptPubKey": {"reqSigs": 1, "hex": "00141753f034391c98b6654a136cf96a8330bd88bd2d", "addresses": ["bc1qzaflqdperjvtve22zdk0j65rxz7c30fdjp70yg"], "asm": "0 1753f034391c98b6654a136cf96a8330bd88bd2d", "type": "witness_v0_keyhash"}, "value": 0.00700642, "n": 1}], "hex": "0100000000010154444da410c52852c93d8c120b286396e047991eba2130270ba63bde02070aa90000000000ffffffff0251da17000000000017a914d0ad9e783b54ca33aca2db7009f8fb98cb1024a387e2b00a00000000001600141753f034391c98b6654a136cf96a8330bd88bd2d0247304402203e6c07cf0948b47ca43d96c7fa9ca42546e69a7abf4c299b7040a4b84de9e17c022061bce5852b234613d384ee83d581ec45692e880d430405264c76ccfea4beb76b01210366a2bfbb59dcc9f0233cfd0540774c262d620d0e4a2af4f2b2d654eaa22c313700000000", "vin": [{"txinwitness": ["304402203e6c07cf0948b47ca43d96c7fa9ca42546e69a7abf4c299b7040a4b84de9e17c022061bce5852b234613d384ee83d581ec45692e880d430405264c76ccfea4beb76b01", "0366a2bfbb59dcc9f0233cfd0540774c262d620d0e4a2af4f2b2d654eaa22c3137"], "sequence": 4294967295, "scriptSig": {"hex": "", "asm": ""}, "vout": 0, "txid": "a90a0702de3ba60b273021ba1e9947e09663280b128c3dc95228c510a44d4454"}], "txid": "c1ec859828c54264c5693a7cb0817159352cdb1a228092d3a7807c13c33b8889", "blocktime": 1537873282, "version": 1, "confirmations": 11484, "time": 1537873282, "locktime": 0, "vsize": 142, "size": 223}