{"hash": "09ba6614d34e966c2436e2ee5bf472445b632b878f83e7d62fa119fa766cf8d3", "blockhash": "0000000000000000001e0dab787dd257d1dbfcb92a98c2207d5e1078be1f4165", "vout": [{"scriptPubKey": {"reqSigs": 1, "hex": "76a914b29f698548670ada3ba4869ab770ac4a725b957388ac", "addresses": ["1HHUFJLgHSccFBcCjqGtF8ZopvxVehSTeU"], "asm": "OP_DUP OP_HASH160 b29f698548670ada3ba4869ab770ac4a725b9573 OP_EQUALVERIFY OP_CHECKSIG", "type": "pubkeyhash"}, "value": 0.01560949, "n": 0}, {"scriptPubKey": {"reqSigs": 1, "hex": "a91450b56b17f390c49315ee83e1f4908670d988f32a87", "addresses": ["393mK4G7MuWSPPMs6sgVFhwdSA16rAG8nw"], "asm": "OP_HASH160 50b56b17f390c49315ee83e1f4908670d988f32a OP_EQUAL", "type": "scripthash"}, "value": 0.76135115, "n": 1}], "hex": "020000000001031bb9c8dd0f862006d7a54adb42cb99052ed828ba4692cf90de08bf8fd3f0a784000000006a4730440220650fa3ca6ef548df41b66d732a25d7d3e9f76adb77e4ebf382f458096d27f4f60220551401f6233f319a4dd0135f92cf87eb0d0f18e3718aa52ae3b95489d54bc365012103a268e438886e54f36f1e4435b0c4874506754e0de151845f9265ca6c87df67f5feffffff1f03e2b7d4d4c16db3262caaed2f8caea5bef265eb539a3383bed3bc93598b1e0000000017160014ef906a95f0ca26ad78cd319c4ee35680e5674758feffffff73a901fcabfdbb7e2280652ecd208fbe7cf7364f2231494354f1873e85942796010000006a47304402206a33398332bc7c7486ecd3538d34c0c6a90d30d3443fd3cf0fd0592c4060b9af02204930351949c5b2755a0216993e3c8e6f0424c5afbb879a6215cdc8b40e34a043012102299a69b3cd88a91759ba597feef53f96580d8e74842ded0bb320bee568ace0c1feffffff0275d11700000000001976a914b29f698548670ada3ba4869ab770ac4a725b957388accbba89040000000017a91450b56b17f390c49315ee83e1f4908670d988f32a8700024830450221009e6a7802e0c4f2e66c2ed112c04a62c60dcb1b93abe9213d20ed5f26a7b891fa022038db70944ad540d261ae3dd8e41fe33083ebc463fb51878991a0c3d14022a388012103993f82cdbb3c7b3710a3198ff08cc639c353c3e68bc4c15515f19cae5a379f7b0012490800", "vin": [{"sequence": 4294967294, "scriptSig": {"hex": "4730440220650fa3ca6ef548df41b66d732a25d7d3e9f76adb77e4ebf382f458096d27f4f60220551401f6233f319a4dd0135f92cf87eb0d0f18e3718aa52ae3b95489d54bc365012103a268e438886e54f36f1e4435b0c4874506754e0de151845f9265ca6c87df67f5", "asm": "30440220650fa3ca6ef548df41b66d732a25d7d3e9f76adb77e4ebf382f458096d27f4f60220551401f6233f319a4dd0135f92cf87eb0d0f18e3718aa52ae3b95489d54bc365[ALL] 03a268e438886e54f36f1e4435b0c4874506754e0de151845f9265ca6c87df67f5"}, "vout": 0, "txid": "84a7f0d38fbf08de90cf9246ba28d82e0599cb42db4aa5d70620860fddc8b91b"}, {"txinwitness": ["30450221009e6a7802e0c4f2e66c2ed112c04a62c60dcb1b93abe9213d20ed5f26a7b891fa022038db70944ad540d261ae3dd8e41fe33083ebc463fb51878991a0c3d14022a38801", "03993f82cdbb3c7b3710a3198ff08cc639c353c3e68bc4c15515f19cae5a379f7b"], "sequence": 4294967294, "scriptSig": {"hex": "160014ef906a95f0ca26ad78cd319c4ee35680e5674758", "asm": "0014ef906a95f0ca26ad78cd319c4ee35680e5674758"}, "vout": 0, "txid": "1e8b5993bcd3be83339a53eb65f2bea5ae8c2fedaa2c26b36dc1d4d4b7e2031f"}, {"sequence": 4294967294, "scriptSig": {"hex": "47304402206a33398332bc7c7486ecd3538d34c0c6a90d30d3443fd3cf0fd0592c4060b9af02204930351949c5b2755a0216993e3c8e6f0424c5afbb879a6215cdc8b40e34a043012102299a69b3cd88a91759ba597feef53f96580d8e74842ded0bb320bee568ace0c1", "asm": "304402206a33398332bc7c7486ecd3538d34c0c6a90d30d3443fd3cf0fd0592c4060b9af02204930351949c5b2755a0216993e3c8e6f0424c5afbb879a6215cdc8b40e34a043[ALL] 02299a69b3cd88a91759ba597feef53f96580d8e74842ded0bb320bee568ace0c1"}, "vout": 1, "txid": "962794853e87f154434931224f36f77cbe8f20cd2e6580227ebbfdabfc01a973"}], "txid": "c1f59c6ded130ab60405523579b20f982bf71abefe772846fa3cd69740301429", "blocktime": 1537872475, "version": 2, "confirmations": 11486, "time": 1537872475, "locktime": 542994, "vsize": 462, "size": 546}