{"hash": "c206679f59fc9859a82a71ab932f10a2e658180b42b321a2cbe278c1aa70bb34", "blockhash": "0000000000000000001f0ddff1eddb255c1121bcd4da4f1bc9a0da00cae72433", "vout": [{"scriptPubKey": {"reqSigs": 1, "hex": "76a914cff5fb750bc48054d02902548ea80e9c040dd15a88ac", "addresses": ["1KxbYrdBbHaSSVtJozW36sP7DdAtGLL68y"], "asm": "OP_DUP OP_HASH160 cff5fb750bc48054d02902548ea80e9c040dd15a OP_EQUALVERIFY OP_CHECKSIG", "type": "pubkeyhash"}, "value": 0.03645257, "n": 0}, {"scriptPubKey": {"type": "nulldata", "hex": "6a146f6d6e69000000000000001f00000112ff0bc300", "asm": "OP_RETURN 6f6d6e69000000000000001f00000112ff0bc300"}, "value": 0.0, "n": 1}, {"scriptPubKey": {"reqSigs": 1, "hex": "a91480682d12f33cf3dcbf6a02b42a1c2200f42f802687", "addresses": ["3DPyDNtuSVyFtYikFp94SxRUeEtH2P4X4E"], "asm": "OP_HASH160 80682d12f33cf3dcbf6a02b42a1c2200f42f8026 OP_EQUAL", "type": "scripthash"}, "value": 5.46e-06, "n": 2}], "hex": "0100000001bd40a038ba3e7f700f8a48a385844290007ac48a033f1f17c581bf966e3c147d000000006a473044022078d3d0d818b8b0fd3720b01becedd6f9b3dee49e599e26ac42a3f8e57b945d8e02200c7b05fdbdf3c67765e5d6b1a4d918ad5b05a73dc019e1bcd6e1dc9f4b47accd0121034c9ee28259d5e83fc3b92adc9f2d784bb204330205de629c33336451f91808faffffffff03499f3700000000001976a914cff5fb750bc48054d02902548ea80e9c040dd15a88ac0000000000000000166a146f6d6e69000000000000001f00000112ff0bc300220200000000000017a91480682d12f33cf3dcbf6a02b42a1c2200f42f80268700000000", "vin": [{"sequence": 4294967295, "scriptSig": {"hex": "473044022078d3d0d818b8b0fd3720b01becedd6f9b3dee49e599e26ac42a3f8e57b945d8e02200c7b05fdbdf3c67765e5d6b1a4d918ad5b05a73dc019e1bcd6e1dc9f4b47accd0121034c9ee28259d5e83fc3b92adc9f2d784bb204330205de629c33336451f91808fa", "asm": "3044022078d3d0d818b8b0fd3720b01becedd6f9b3dee49e599e26ac42a3f8e57b945d8e02200c7b05fdbdf3c67765e5d6b1a4d918ad5b05a73dc019e1bcd6e1dc9f4b47accd[ALL] 034c9ee28259d5e83fc3b92adc9f2d784bb204330205de629c33336451f91808fa"}, "vout": 0, "txid": "7d143c6e96bf81c5171f3f038ac47a0090428485a3488a0f707f3eba38a040bd"}], "txid": "c206679f59fc9859a82a71ab932f10a2e658180b42b321a2cbe278c1aa70bb34", "blocktime": 1537872018, "version": 1, "confirmations": 11489, "time": 1537872018, "locktime": 0, "vsize": 254, "size": 254}