{"hash": "2def3cc71f0fd66f87d8f0442c2ebda4c8df523383a4b73a73f9b5af1f7ba5b9", "blockhash": "0000000000000000001cda96e906b7601b7a6fb1a3b62bca570a9e5d8f4b3de1", "vout": [{"scriptPubKey": {"reqSigs": 1, "hex": "a914e138b3cf43330b9ddfead84018915a076421a6eb87", "addresses": ["3NDstTQeN762oqV2PnZ6z824it2skfdETA"], "asm": "OP_HASH160 e138b3cf43330b9ddfead84018915a076421a6eb OP_EQUAL", "type": "scripthash"}, "value": 0.22593474, "n": 0}, {"scriptPubKey": {"reqSigs": 1, "hex": "76a9143903d651ae2e3343209b4e50658b82a71031dcf588ac", "addresses": ["16CU7YhZnmeY7ztk8Z9qhSnPsvkwSNnRLt"], "asm": "OP_DUP OP_HASH160 3903d651ae2e3343209b4e50658b82a71031dcf5 OP_EQUALVERIFY OP_CHECKSIG", "type": "pubkeyhash"}, "value": 0.01816919, "n": 1}], "hex": "02000000000101908c572f18385619ede6ec3e83d19476453827be591c202be7822705b977990a010000001716001432d63435ec2dc3e4eca1901ded9d0917e320a48bfeffffff02c2bf58010000000017a914e138b3cf43330b9ddfead84018915a076421a6eb8757b91b00000000001976a9143903d651ae2e3343209b4e50658b82a71031dcf588ac02483045022100bb069c7e9597d2e0ca5c63fcc77bf45ecc9e73e0af13668b0109b2a5bc06b167022051f67009584db6dcfd619ad7ea5bade6c139e7631e0551c06b04e600bd27c5c6012103e7060b6bbd10b15f85492f5ac4e59b82f7f3fe9d987a8a3f01deea5a3d817e7913490800", "vin": [{"txinwitness": ["3045022100bb069c7e9597d2e0ca5c63fcc77bf45ecc9e73e0af13668b0109b2a5bc06b167022051f67009584db6dcfd619ad7ea5bade6c139e7631e0551c06b04e600bd27c5c601", "03e7060b6bbd10b15f85492f5ac4e59b82f7f3fe9d987a8a3f01deea5a3d817e79"], "sequence": 4294967294, "scriptSig": {"hex": "16001432d63435ec2dc3e4eca1901ded9d0917e320a48b", "asm": "001432d63435ec2dc3e4eca1901ded9d0917e320a48b"}, "vout": 1, "txid": "0a9977b9052782e72b201c59be2738457694d1833eece6ed195638182f578c90"}], "txid": "c20a2cd6ed51ddbc3ae7022027e7ae0a531dd4afd6c2554f5f9b9c8283a61a1f", "blocktime": 1537873282, "version": 2, "confirmations": 11484, "time": 1537873282, "locktime": 542995, "vsize": 168, "size": 250}