{"hash": "c20e370db9a0523ad858df2a19c798c77ee8bcc9a1655c78dda3205ca21f5456", "blockhash": "0000000000000000000e13cef7c366c0283d82e591d1acd082e914b08063cdf1", "vout": [{"scriptPubKey": {"reqSigs": 1, "hex": "76a9147e82c6164c31551cda04a70858401ad3669fe90288ac", "addresses": ["1CXvoVY6r4GexAnkjSRZZdUgc9h88JmswB"], "asm": "OP_DUP OP_HASH160 7e82c6164c31551cda04a70858401ad3669fe902 OP_EQUALVERIFY OP_CHECKSIG", "type": "pubkeyhash"}, "value": 0.0111698, "n": 0}], "hex": "01000000012a5cbb2a38a0a056ed4f68817e525c2b99237ee34c27156790aa1515fa695aa8030000006a47304402206fab1ad878f7ccf5ae2790894fbcbe0d66597801bac78120b78a32ae886332d402200d29011efc941c99af058fd8233906879cddbec0aa36d8c3e432bba129edb3d4012102a63160ba4d5496b3d9088e9b4d60d6f14238ade0b092195f4283eb255450b86bffffffff01340b1100000000001976a9147e82c6164c31551cda04a70858401ad3669fe90288ac00000000", "vin": [{"sequence": 4294967295, "scriptSig": {"hex": "47304402206fab1ad878f7ccf5ae2790894fbcbe0d66597801bac78120b78a32ae886332d402200d29011efc941c99af058fd8233906879cddbec0aa36d8c3e432bba129edb3d4012102a63160ba4d5496b3d9088e9b4d60d6f14238ade0b092195f4283eb255450b86b", "asm": "304402206fab1ad878f7ccf5ae2790894fbcbe0d66597801bac78120b78a32ae886332d402200d29011efc941c99af058fd8233906879cddbec0aa36d8c3e432bba129edb3d4[ALL] 02a63160ba4d5496b3d9088e9b4d60d6f14238ade0b092195f4283eb255450b86b"}, "vout": 3, "txid": "a85a69fa1515aa906715274ce37e23992b5c527e81684fed56a0a0382abb5c2a"}], "txid": "c20e370db9a0523ad858df2a19c798c77ee8bcc9a1655c78dda3205ca21f5456", "blocktime": 1537871767, "version": 1, "confirmations": 11493, "time": 1537871767, "locktime": 0, "vsize": 191, "size": 191}