{"hash": "c215335cef15b6d2b30f9c5539ce68db0366b00b8683a0dbf7898a4a4b313ced", "blockhash": "00000000000000000017f5eb5941039fbcee6240d03bc1f2f8e35350df66a1d8", "vout": [{"scriptPubKey": {"reqSigs": 1, "hex": "76a914539f36de018fb8aabceb24d6c125276b610a014588ac", "addresses": ["18d9pKyazYMyoUzZ4Pb74qP1gidS1MGtG3"], "asm": "OP_DUP OP_HASH160 539f36de018fb8aabceb24d6c125276b610a0145 OP_EQUALVERIFY OP_CHECKSIG", "type": "pubkeyhash"}, "value": 0.00029842, "n": 0}, {"scriptPubKey": {"reqSigs": 1, "hex": "a914203d35b355882396a26f65bb231ea840f953acce87", "addresses": ["34dUscRVDBqhpYjyzkCgWYmzwNgjK4gqaB"], "asm": "OP_HASH160 203d35b355882396a26f65bb231ea840f953acce OP_EQUAL", "type": "scripthash"}, "value": 0.05, "n": 1}], "hex": "0100000002bbf41947a267471a89a30245fe6233e6fe14d5c53132c8cf04a42585684a8912000000006a47304402206be315ad9aa6d52b02391d61d32fa479d80f8132365627231c4d17ed6e1dffbe02201f0fbfe9c17bdc3085b70609116c696aaf38c8086b65fe00fe35fbd80e51351401210226e804eb24eeec24caa2b5760ac06335bd5cbd7f5f96dbf24fc62f3cecb9b791ffffffff4f05dc0101ebaddfe6a3a7d675c62e90bec97fef450f7ce8106f54fd76738bbe000000006b48304502210080b53d68c92fc5cfa30d2258289ebde0d8a2163bb2013b88eca44e283599da2d022031b07945ff503b023ac91505038e4ecde11c8a02e8dd34e4e8b5ef44346292da0121024caab0524e8cde1b7c563a5036d3a9e3616f97371e1c77d37d1222964e5d29cbffffffff0292740000000000001976a914539f36de018fb8aabceb24d6c125276b610a014588ac404b4c000000000017a914203d35b355882396a26f65bb231ea840f953acce8700000000", "vin": [{"sequence": 4294967295, "scriptSig": {"hex": "47304402206be315ad9aa6d52b02391d61d32fa479d80f8132365627231c4d17ed6e1dffbe02201f0fbfe9c17bdc3085b70609116c696aaf38c8086b65fe00fe35fbd80e51351401210226e804eb24eeec24caa2b5760ac06335bd5cbd7f5f96dbf24fc62f3cecb9b791", "asm": "304402206be315ad9aa6d52b02391d61d32fa479d80f8132365627231c4d17ed6e1dffbe02201f0fbfe9c17bdc3085b70609116c696aaf38c8086b65fe00fe35fbd80e513514[ALL] 0226e804eb24eeec24caa2b5760ac06335bd5cbd7f5f96dbf24fc62f3cecb9b791"}, "vout": 0, "txid": "12894a688525a404cfc83231c5d514fee63362fe4502a3891a4767a24719f4bb"}, {"sequence": 4294967295, "scriptSig": {"hex": "48304502210080b53d68c92fc5cfa30d2258289ebde0d8a2163bb2013b88eca44e283599da2d022031b07945ff503b023ac91505038e4ecde11c8a02e8dd34e4e8b5ef44346292da0121024caab0524e8cde1b7c563a5036d3a9e3616f97371e1c77d37d1222964e5d29cb", "asm": "304502210080b53d68c92fc5cfa30d2258289ebde0d8a2163bb2013b88eca44e283599da2d022031b07945ff503b023ac91505038e4ecde11c8a02e8dd34e4e8b5ef44346292da[ALL] 024caab0524e8cde1b7c563a5036d3a9e3616f97371e1c77d37d1222964e5d29cb"}, "vout": 0, "txid": "be8b7376fd546f10e87c0f45ef7fc9be902ec675d6a7a3e6dfadeb0101dc054f"}], "txid": "c215335cef15b6d2b30f9c5539ce68db0366b00b8683a0dbf7898a4a4b313ced", "blocktime": 1537874412, "version": 1, "confirmations": 11467, "time": 1537874412, "locktime": 0, "vsize": 371, "size": 371}