{"hash": "c218aa31aba8a6ffb598f2c7900d54fcb4d67316d9e47b9a50a9b768f9d4c274", "blockhash": "0000000000000000000baef3f32e3676a92c3b2e5da21b426e4f302fc371ce76", "vout": [{"scriptPubKey": {"reqSigs": 1, "hex": "76a9146a8845f53c2a447e78dbffde4b4e9c59a5f5071a88ac", "addresses": ["1AiHsmVL62uoQRQ4HSFju65kJzWjRCEyuj"], "asm": "OP_DUP OP_HASH160 6a8845f53c2a447e78dbffde4b4e9c59a5f5071a OP_EQUALVERIFY OP_CHECKSIG", "type": "pubkeyhash"}, "value": 0.022019, "n": 0}, {"scriptPubKey": {"type": "nulldata", "hex": "6a4c50000078160001a866cb9994d8243e6e7ae9c5019d6ddc0f1b8ff117702940d64fa54d8eb2005c72d44dae95c4c3b8196aa08f2acd5baa1bdb0615687d9ad1047abc9a9526289ac0f6612cd74e33776ee4", "asm": "OP_RETURN 000078160001a866cb9994d8243e6e7ae9c5019d6ddc0f1b8ff117702940d64fa54d8eb2005c72d44dae95c4c3b8196aa08f2acd5baa1bdb0615687d9ad1047abc9a9526289ac0f6612cd74e33776ee4"}, "value": 0.0, "n": 1}], "hex": "0100000001e864f1216a4d55d4bccbdd6a619727c26aff74a32d04961ec5e821b86357c7a5000000006a4730440220728774190b0d29b9dc894ce28c8248f166e1b4ac77204efde188d2a2575e587802206ba3d405235742977b15300af472c4a18307fbb8494ddc1f95b01f3327b97db40121028bdc06ac7557a1a3cc5b4769f16e8bbc9e27e0b9114dc5a6eb6e67b23f80b816ffffffff022c992100000000001976a9146a8845f53c2a447e78dbffde4b4e9c59a5f5071a88ac0000000000000000536a4c50000078160001a866cb9994d8243e6e7ae9c5019d6ddc0f1b8ff117702940d64fa54d8eb2005c72d44dae95c4c3b8196aa08f2acd5baa1bdb0615687d9ad1047abc9a9526289ac0f6612cd74e33776ee400000000", "vin": [{"sequence": 4294967295, "scriptSig": {"hex": "4730440220728774190b0d29b9dc894ce28c8248f166e1b4ac77204efde188d2a2575e587802206ba3d405235742977b15300af472c4a18307fbb8494ddc1f95b01f3327b97db40121028bdc06ac7557a1a3cc5b4769f16e8bbc9e27e0b9114dc5a6eb6e67b23f80b816", "asm": "30440220728774190b0d29b9dc894ce28c8248f166e1b4ac77204efde188d2a2575e587802206ba3d405235742977b15300af472c4a18307fbb8494ddc1f95b01f3327b97db4[ALL] 028bdc06ac7557a1a3cc5b4769f16e8bbc9e27e0b9114dc5a6eb6e67b23f80b816"}, "vout": 0, "txid": "a5c75763b821e8c51e96042da374ff6ac22797616addcbbcd4554d6a21f164e8"}], "txid": "c218aa31aba8a6ffb598f2c7900d54fcb4d67316d9e47b9a50a9b768f9d4c274", "blocktime": 1537876114, "version": 1, "confirmations": 11460, "time": 1537876114, "locktime": 0, "vsize": 283, "size": 283}