{"hash": "c21dd1befe6e966ed126711c908495f31f9267a9c01c749e8033ea7668fda250", "blockhash": "0000000000000000000e13cef7c366c0283d82e591d1acd082e914b08063cdf1", "vout": [{"scriptPubKey": {"type": "nulldata", "hex": "6a4c5000007794000197b46aacbf9d8ecbd73510f5e3ef3236678a625097bcbefa6b8351586b4ecfd1cf2fc0f8da7267914631a8e740655baa0cd806147062147c1c741d100759d4ba30d2c37bb011d97e02cf", "asm": "OP_RETURN 00007794000197b46aacbf9d8ecbd73510f5e3ef3236678a625097bcbefa6b8351586b4ecfd1cf2fc0f8da7267914631a8e740655baa0cd806147062147c1c741d100759d4ba30d2c37bb011d97e02cf"}, "value": 0.0, "n": 0}, {"scriptPubKey": {"reqSigs": 1, "hex": "76a9145d506fac3c2be1d22cd8ecb47e7414d86ace918588ac", "addresses": ["19WQCeXBE8qZ97zeBbhi4gbsvhkR4Ktp1G"], "asm": "OP_DUP OP_HASH160 5d506fac3c2be1d22cd8ecb47e7414d86ace9185 OP_EQUALVERIFY OP_CHECKSIG", "type": "pubkeyhash"}, "value": 0.00646332, "n": 1}], "hex": "0100000001c00b45a9473136b333dae4a9eb3c958c78a6785fcbfaca60883bc7b77a1e5fb9000000006a47304402202b7bb5a25aa9b51b1a6186c074323caf2411ddd2d01b5e4608ec66b9bc9de5c602200805b23b9c51f3f254957d2790f0d7870d79713bbd9281abd5888e851daef9c601210312250068ec0384adb83852e2b23a4e492260f7ebe30e7a7bb4219a5ae670e806ffffffff020000000000000000536a4c5000007794000197b46aacbf9d8ecbd73510f5e3ef3236678a625097bcbefa6b8351586b4ecfd1cf2fc0f8da7267914631a8e740655baa0cd806147062147c1c741d100759d4ba30d2c37bb011d97e02cfbcdc0900000000001976a9145d506fac3c2be1d22cd8ecb47e7414d86ace918588ac00000000", "vin": [{"sequence": 4294967295, "scriptSig": {"hex": "47304402202b7bb5a25aa9b51b1a6186c074323caf2411ddd2d01b5e4608ec66b9bc9de5c602200805b23b9c51f3f254957d2790f0d7870d79713bbd9281abd5888e851daef9c601210312250068ec0384adb83852e2b23a4e492260f7ebe30e7a7bb4219a5ae670e806", "asm": "304402202b7bb5a25aa9b51b1a6186c074323caf2411ddd2d01b5e4608ec66b9bc9de5c602200805b23b9c51f3f254957d2790f0d7870d79713bbd9281abd5888e851daef9c6[ALL] 0312250068ec0384adb83852e2b23a4e492260f7ebe30e7a7bb4219a5ae670e806"}, "vout": 0, "txid": "b95f1e7ab7c73b8860cafacb5f78a6788c953ceba9e4da33b3363147a9450bc0"}], "txid": "c21dd1befe6e966ed126711c908495f31f9267a9c01c749e8033ea7668fda250", "blocktime": 1537871767, "version": 1, "confirmations": 11495, "time": 1537871767, "locktime": 0, "vsize": 283, "size": 283}