{"hash": "8ac2f0a63309b9b1ae5293c5af8d8fa73442cfd8a4e06a011777de70210770b0", "blockhash": "000000000000000000022b45ed06c6f4ccd3cf7fb5ba4856ebd2e58215665228", "vout": [{"scriptPubKey": {"reqSigs": 1, "hex": "a914bd34ec78e95f2cf551e871ffb93ad084b5b5c64087", "addresses": ["3JwT31CVNTTBCqbpSgMmfgmUxxGcJ7VDxm"], "asm": "OP_HASH160 bd34ec78e95f2cf551e871ffb93ad084b5b5c640 OP_EQUAL", "type": "scripthash"}, "value": 0.00999969, "n": 0}, {"scriptPubKey": {"reqSigs": 1, "hex": "76a914ce81405b01ba9d36b5a62cf620bed7da093cf73588ac", "addresses": ["1Kpu34YAo57AnC9QwGePs5ip56rRA6yXXQ"], "asm": "OP_DUP OP_HASH160 ce81405b01ba9d36b5a62cf620bed7da093cf735 OP_EQUALVERIFY OP_CHECKSIG", "type": "pubkeyhash"}, "value": 0.0032076, "n": 1}], "hex": "02000000000102303eccdbdadd9897da1a3cc09b260774972bf9ac964cf84b7761f7d90393beb201000000171600149db6d116455d797c2740f37a80509563ba59cbbffefffffffcf6d58940f5de3699b19f0e5f564ab2b6c31af931d5aadda618f3c4d6a6ee330b0000001716001402d216c2699eb0d87e486bbd16d8cd0f7e0dfddefeffffff0221420f000000000017a914bd34ec78e95f2cf551e871ffb93ad084b5b5c64087f8e40400000000001976a914ce81405b01ba9d36b5a62cf620bed7da093cf73588ac0247304402201dd153c7ebcef0bcf0dd0046624d24809626098d043d05f0def0a177d56bf197022029ae16acfd529e3be181b9f7e8d900446ccf88f16eaf719f8ef567798f0edf910121026adfbe3351cb13bfe90bfa3c41158fc4da6d3b81d858d7b7573866848821e32602483045022100abc924e3105157a6ee68196b6efe88dcc881e7d99554b2611d5e7350cdccc8bc02205964f597b723c6c5ca9b79cb3da9799c47ab396fd6c421f74b1d4369ffe063600121029cc2d4ebe8779e37321866e72708128f17d37b5af15134b31d803b807822661b0b490800", "vin": [{"txinwitness": ["304402201dd153c7ebcef0bcf0dd0046624d24809626098d043d05f0def0a177d56bf197022029ae16acfd529e3be181b9f7e8d900446ccf88f16eaf719f8ef567798f0edf9101", "026adfbe3351cb13bfe90bfa3c41158fc4da6d3b81d858d7b7573866848821e326"], "sequence": 4294967294, "scriptSig": {"hex": "1600149db6d116455d797c2740f37a80509563ba59cbbf", "asm": "00149db6d116455d797c2740f37a80509563ba59cbbf"}, "vout": 1, "txid": "b2be9303d9f761774bf84c96acf92b977407269bc03c1ada9798dddadbcc3e30"}, {"txinwitness": ["3045022100abc924e3105157a6ee68196b6efe88dcc881e7d99554b2611d5e7350cdccc8bc02205964f597b723c6c5ca9b79cb3da9799c47ab396fd6c421f74b1d4369ffe0636001", "029cc2d4ebe8779e37321866e72708128f17d37b5af15134b31d803b807822661b"], "sequence": 4294967294, "scriptSig": {"hex": "16001402d216c2699eb0d87e486bbd16d8cd0f7e0dfdde", "asm": "001402d216c2699eb0d87e486bbd16d8cd0f7e0dfdde"}, "vout": 11, "txid": "33eea6d6c4f318a6ddaad531f91ac3b6b24a565f0e9fb19936def54089d5f6fc"}], "txid": "c2218b7513283f90e002010c1c8079c68c746b49611071f4d4cf59e9ab9971c9", "blocktime": 1537869901, "version": 2, "confirmations": 11524, "time": 1537869901, "locktime": 542987, "vsize": 259, "size": 421}