{"hash": "240138b9072e718340742ff29b71472d306f92adb9ff5b757c016cc14e72a9d0", "blockhash": "0000000000000000001e0dab787dd257d1dbfcb92a98c2207d5e1078be1f4165", "vout": [{"scriptPubKey": {"reqSigs": 1, "hex": "a914bfd76c2696708263bc234beff6ac04132e41a4aa87", "addresses": ["3KBP3zsPBt5gmsHsnjA4m8P73yT21HhqwG"], "asm": "OP_HASH160 bfd76c2696708263bc234beff6ac04132e41a4aa OP_EQUAL", "type": "scripthash"}, "value": 0.01135432, "n": 0}, {"scriptPubKey": {"reqSigs": 1, "hex": "76a914d2cfa35590e550c16af1642c8ad4792d2bba302488ac", "addresses": ["1LDfeEBSxAjv6zojcBJwUPjh4VvxDhWLLo"], "asm": "OP_DUP OP_HASH160 d2cfa35590e550c16af1642c8ad4792d2bba3024 OP_EQUALVERIFY OP_CHECKSIG", "type": "pubkeyhash"}, "value": 0.007597, "n": 1}], "hex": "02000000000101ed633509dd1d5ff8c9b8f506072db438f1d883014e64a5036afa63f2cd18316e0000000017160014314ae31d0ae6d16db767f06c9a073c7fa1ea8660fdffffff02485311000000000017a914bfd76c2696708263bc234beff6ac04132e41a4aa8794970b00000000001976a914d2cfa35590e550c16af1642c8ad4792d2bba302488ac0247304402201c939110fb9b83713725ecb60c2c6009347b598152ae4776c5d515f4e85602c802200b08d98eca403d6b0424672081fbb2a691f526ee940527530bb1bcb545fbf431012103101636bd482435a762d477482000ba31d9b1208ce8ab808d90c8d7d65045c67e12490800", "vin": [{"txinwitness": ["304402201c939110fb9b83713725ecb60c2c6009347b598152ae4776c5d515f4e85602c802200b08d98eca403d6b0424672081fbb2a691f526ee940527530bb1bcb545fbf43101", "03101636bd482435a762d477482000ba31d9b1208ce8ab808d90c8d7d65045c67e"], "sequence": 4294967293, "scriptSig": {"hex": "160014314ae31d0ae6d16db767f06c9a073c7fa1ea8660", "asm": "0014314ae31d0ae6d16db767f06c9a073c7fa1ea8660"}, "vout": 0, "txid": "6e3118cdf263fa6a03a5644e0183d8f138b42d0706f5b8c9f85f1ddd093563ed"}], "txid": "c2270bb3cc277b43b65f6684b27171e8d61928efe37fcc95c760d7da9a138e42", "blocktime": 1537872475, "version": 2, "confirmations": 11488, "time": 1537872475, "locktime": 542994, "vsize": 168, "size": 249}