{"hash": "c22c668bf352c9c1470b9bb2236af52cf63bcfcea6118886f6c1a1459a32ed20", "blockhash": "00000000000000000004ffacab907a6b429b9a5745fa0b75af4234bf69dd7176", "vout": [{"scriptPubKey": {"reqSigs": 1, "hex": "76a91433f52e348a59e6dadf9e6a706fb68d37cb3ec26788ac", "addresses": ["15jjBDu8TY9bXJA8pWNZ12fxK4KtwqJfrp"], "asm": "OP_DUP OP_HASH160 33f52e348a59e6dadf9e6a706fb68d37cb3ec267 OP_EQUALVERIFY OP_CHECKSIG", "type": "pubkeyhash"}, "value": 0.01094636, "n": 0}, {"scriptPubKey": {"reqSigs": 1, "hex": "76a9149bb1350a8198c3f894276485260373e83301c14e88ac", "addresses": ["1FCE2JhpjKaYJFUMb3bUXpLGjQtyPV3tZw"], "asm": "OP_DUP OP_HASH160 9bb1350a8198c3f894276485260373e83301c14e OP_EQUALVERIFY OP_CHECKSIG", "type": "pubkeyhash"}, "value": 8.43984479, "n": 1}], "hex": "0100000001541baa51000df67ca116c887aaceff38984d3b799705b5ef09ae9780ec9472cd000000006b483045022100ba28c9e64a24fc22bec10298f808e6d5fbd6313bf06bf7b1853ac91326259e9502200bc998979ba299cde25565d09a5e141a1418629345e2e39dec1751af33fad9f30121022e4a9589ea577b80e34bede8a5adce8f0bbfbd702f29d9c1fa7547d6c85bb553ffffffff02ecb31000000000001976a91433f52e348a59e6dadf9e6a706fb68d37cb3ec26788ac5f2e4e32000000001976a9149bb1350a8198c3f894276485260373e83301c14e88ac00000000", "vin": [{"sequence": 4294967295, "scriptSig": {"hex": "483045022100ba28c9e64a24fc22bec10298f808e6d5fbd6313bf06bf7b1853ac91326259e9502200bc998979ba299cde25565d09a5e141a1418629345e2e39dec1751af33fad9f30121022e4a9589ea577b80e34bede8a5adce8f0bbfbd702f29d9c1fa7547d6c85bb553", "asm": "3045022100ba28c9e64a24fc22bec10298f808e6d5fbd6313bf06bf7b1853ac91326259e9502200bc998979ba299cde25565d09a5e141a1418629345e2e39dec1751af33fad9f3[ALL] 022e4a9589ea577b80e34bede8a5adce8f0bbfbd702f29d9c1fa7547d6c85bb553"}, "vout": 0, "txid": "cd7294ec8097ae09efb50597793b4d9838ffceaa87c816a17cf60d0051aa1b54"}], "txid": "c22c668bf352c9c1470b9bb2236af52cf63bcfcea6118886f6c1a1459a32ed20", "blocktime": 1537875543, "version": 1, "confirmations": 11464, "time": 1537875543, "locktime": 0, "vsize": 226, "size": 226}