{"hash": "c22f8acfdc768385c910eadb6640b5dacf52b7fd46a82f98ba0448efe6c582c7", "blockhash": "0000000000000000001f0ddff1eddb255c1121bcd4da4f1bc9a0da00cae72433", "vout": [{"scriptPubKey": {"reqSigs": 1, "hex": "76a9142faf5692362697b21aa0f9a92eb3b494ddf71c4188ac", "addresses": ["15M8oj5mWPxiRmcxxFqBdovWPtcmKQNGfe"], "asm": "OP_DUP OP_HASH160 2faf5692362697b21aa0f9a92eb3b494ddf71c41 OP_EQUALVERIFY OP_CHECKSIG", "type": "pubkeyhash"}, "value": 0.00029163, "n": 0}, {"scriptPubKey": {"reqSigs": 1, "hex": "76a914e411158d4a57301fe3307fcf506d25538f13ef4c88ac", "addresses": ["1MnuXmWmfeMKaY9tqZEBCJmrX4nrVYwaKq"], "asm": "OP_DUP OP_HASH160 e411158d4a57301fe3307fcf506d25538f13ef4c OP_EQUALVERIFY OP_CHECKSIG", "type": "pubkeyhash"}, "value": 0.00859111, "n": 1}], "hex": "01000000027bb4d7b72400ae4b11987562f4efd78843a8413fedf974bfc04bced937bc0ef6010000006b483045022100c8b4627d88a7ef0e14ae2fb081ea45d467011d2f8c79360934ae8fe9c2b7476002204b138cff9257062ce10d62668abdc7cf57e31d930d21910d3a0f0d2a99fddaf2012103e9d1db8ef9355dac50b8bf2581e552f3f1aa435243a001c76f1c81db045484ceffffffff3ac992dc8a4d3dfe8dbe8b055b540ac61f2ec02539fb34f1c616cb50896821ff000000006a4730440220047386f57924574bb142552626f7dba99fcbff44b0e0ab3ff01ae25476973f2402207e4df18b46c3c0215f3bf94806580db4bdfedecb010aa76ffa6960b12c76c725012103218388df9d379ad2d76c425ea96d34f1db1fafb9b2fa742d361150c67f3ae15cffffffff02eb710000000000001976a9142faf5692362697b21aa0f9a92eb3b494ddf71c4188ace71b0d00000000001976a914e411158d4a57301fe3307fcf506d25538f13ef4c88ac00000000", "vin": [{"sequence": 4294967295, "scriptSig": {"hex": "483045022100c8b4627d88a7ef0e14ae2fb081ea45d467011d2f8c79360934ae8fe9c2b7476002204b138cff9257062ce10d62668abdc7cf57e31d930d21910d3a0f0d2a99fddaf2012103e9d1db8ef9355dac50b8bf2581e552f3f1aa435243a001c76f1c81db045484ce", "asm": "3045022100c8b4627d88a7ef0e14ae2fb081ea45d467011d2f8c79360934ae8fe9c2b7476002204b138cff9257062ce10d62668abdc7cf57e31d930d21910d3a0f0d2a99fddaf2[ALL] 03e9d1db8ef9355dac50b8bf2581e552f3f1aa435243a001c76f1c81db045484ce"}, "vout": 1, "txid": "f60ebc37d9ce4bc0bf74f9ed3f41a84388d7eff4627598114bae0024b7d7b47b"}, {"sequence": 4294967295, "scriptSig": {"hex": "4730440220047386f57924574bb142552626f7dba99fcbff44b0e0ab3ff01ae25476973f2402207e4df18b46c3c0215f3bf94806580db4bdfedecb010aa76ffa6960b12c76c725012103218388df9d379ad2d76c425ea96d34f1db1fafb9b2fa742d361150c67f3ae15c", "asm": "30440220047386f57924574bb142552626f7dba99fcbff44b0e0ab3ff01ae25476973f2402207e4df18b46c3c0215f3bf94806580db4bdfedecb010aa76ffa6960b12c76c725[ALL] 03218388df9d379ad2d76c425ea96d34f1db1fafb9b2fa742d361150c67f3ae15c"}, "vout": 0, "txid": "ff21688950cb16c6f134fb3925c02e1fc60a545b058bbe8dfe3d4d8adc92c93a"}], "txid": "c22f8acfdc768385c910eadb6640b5dacf52b7fd46a82f98ba0448efe6c582c7", "blocktime": 1537872018, "version": 1, "confirmations": 11489, "time": 1537872018, "locktime": 0, "vsize": 373, "size": 373}