{"hash": "797ba6f2e5c73fdf67bdadcbe9e9b106096bd122d4d9fc1167a0875c4592c13f", "blockhash": "0000000000000000000baef3f32e3676a92c3b2e5da21b426e4f302fc371ce76", "vout": [{"scriptPubKey": {"reqSigs": 1, "hex": "a91469f3766e1135be3e76bc7dedda9f76b39c83cd8c87", "addresses": ["3BMEXmLAjiWe8YecRfmeRo5u7fn3YTKJKf"], "asm": "OP_HASH160 69f3766e1135be3e76bc7dedda9f76b39c83cd8c OP_EQUAL", "type": "scripthash"}, "value": 0.9999919, "n": 0}], "hex": "010000000001013477474110c2b9b61ea1342c1a6b65564dd2523c337a622d2826a6a620f4180804000000171600142bc68ca490abfaddea4ed07feac994b774214545ffffffff01d6ddf5050000000017a91469f3766e1135be3e76bc7dedda9f76b39c83cd8c870247304402207bf127a00ab80fb5f11f1889bdb130fedd2e04ecd29abcf7e8a010dabfada25d02206ff41c36b15286f7f3eceb2defbbf2f4ea7eedd36ebe4c493ed6949248042dd701210268c6cd42d78880889c2c0934a947121bffd83cab5b48c643ae874d7a035d71ea00000000", "vin": [{"txinwitness": ["304402207bf127a00ab80fb5f11f1889bdb130fedd2e04ecd29abcf7e8a010dabfada25d02206ff41c36b15286f7f3eceb2defbbf2f4ea7eedd36ebe4c493ed6949248042dd701", "0268c6cd42d78880889c2c0934a947121bffd83cab5b48c643ae874d7a035d71ea"], "sequence": 4294967295, "scriptSig": {"hex": "1600142bc68ca490abfaddea4ed07feac994b774214545", "asm": "00142bc68ca490abfaddea4ed07feac994b774214545"}, "vout": 4, "txid": "0818f420a6a626282d627a333c52d24d56656b1a2c34a11eb6b9c21041477734"}], "txid": "c230c4b412d31adfc4443ab41af272b0672597cdf4a27aa86d7b0d533f5c4a00", "blocktime": 1537876114, "version": 1, "confirmations": 11460, "time": 1537876114, "locktime": 0, "vsize": 134, "size": 215}