{"hash": "c230bbc216a4d311c1f6771b30c683cf7f845c106a13f26377cb825febb96a22", "blockhash": "0000000000000000000dcc0f55137456b1a82d3642486a52398922ac4d620174", "vout": [{"scriptPubKey": {"reqSigs": 1, "hex": "76a914b16d0ffd96be4a2fd46b114136df518bb772c88488ac", "addresses": ["1HB9FkK9taTJAKGPDSAetYVF7tFHxHohMK"], "asm": "OP_DUP OP_HASH160 b16d0ffd96be4a2fd46b114136df518bb772c884 OP_EQUALVERIFY OP_CHECKSIG", "type": "pubkeyhash"}, "value": 0.00013546, "n": 0}, {"scriptPubKey": {"reqSigs": 1, "hex": "76a9144d67a877744674c84457adf2902ccba54f3511f888ac", "addresses": ["184HD4VBDuhQUUjkkroP21hk5n67mtjdMh"], "asm": "OP_DUP OP_HASH160 4d67a877744674c84457adf2902ccba54f3511f8 OP_EQUALVERIFY OP_CHECKSIG", "type": "pubkeyhash"}, "value": 0.06078004, "n": 1}], "hex": "01000000040b8ccdab87ff4d7ae4574823cf0e7c1771f555f4894d266d1e62e7c93476c64f010000006a47304402207f49aa0f0198e7e82f9d72a09b7e9bb89413049087b4eb70f09eebe4c541ac41022025c6a109f062d0b4f07a8473e4cb7a958b88d0f4d360867a4320d8aee1639e3f012102d5662f0172637d92415141241ea17054e37848205e535e50eaa2b423065ea9d1ffffffffac71b346bca4d9cfdad870eda79797a433b75837a63159831ca868141f8ec884000000006b483045022100b55bcdbef8e8e83caf040dc0be0a2585abde7e7151540eca8bb8863b846cbc8302206d53aacdfff90ee0e452f4e4b942d122d7e2a1b70ed251837449ca18c2e3c49d0121032267c22ffc8780e2254f042f29a526fb5abf406c519d2e15516a81319cb73f5affffffffc048d4d356f1ebeb8c854206d3743b683d30131e2cb3ac814934aa8156bc25a2000000006a47304402200de5c9336f63422dea3a7c4b60de6a19dc9426a3768aa27cce322b506bfa17ba0220425a2b5a25d9d50a0b43c6626057246c88118a4718a748da8fbf44b3587324b40121039a87e36e031c3b5651bb7f1fcd2a6775955200b841fecbf8d448844111bd0cdaffffffff93b8f34a8e20370c44f66ad206f0d3c5c66eda6136f13c9efff880eacf0f08cd000000006a473044022016fb9e3b025ccad61bfcae9e5c5fa984467b481de632ac6570d73e2435390cc002206dddc3e2049460c7c14f9cb40dd25c6933368af8eaa21c63aa70ec4bea59a90d012103316617e8e789246c5eacd5ae67029dce4cd0d191a6de690bb602b3503f708732ffffffff02ea340000000000001976a914b16d0ffd96be4a2fd46b114136df518bb772c88488ac34be5c00000000001976a9144d67a877744674c84457adf2902ccba54f3511f888ac00000000", "vin": [{"sequence": 4294967295, "scriptSig": {"hex": "47304402207f49aa0f0198e7e82f9d72a09b7e9bb89413049087b4eb70f09eebe4c541ac41022025c6a109f062d0b4f07a8473e4cb7a958b88d0f4d360867a4320d8aee1639e3f012102d5662f0172637d92415141241ea17054e37848205e535e50eaa2b423065ea9d1", "asm": "304402207f49aa0f0198e7e82f9d72a09b7e9bb89413049087b4eb70f09eebe4c541ac41022025c6a109f062d0b4f07a8473e4cb7a958b88d0f4d360867a4320d8aee1639e3f[ALL] 02d5662f0172637d92415141241ea17054e37848205e535e50eaa2b423065ea9d1"}, "vout": 1, "txid": "4fc67634c9e7621e6d264d89f455f571177c0ecf234857e47a4dff87abcd8c0b"}, {"sequence": 4294967295, "scriptSig": {"hex": "483045022100b55bcdbef8e8e83caf040dc0be0a2585abde7e7151540eca8bb8863b846cbc8302206d53aacdfff90ee0e452f4e4b942d122d7e2a1b70ed251837449ca18c2e3c49d0121032267c22ffc8780e2254f042f29a526fb5abf406c519d2e15516a81319cb73f5a", "asm": "3045022100b55bcdbef8e8e83caf040dc0be0a2585abde7e7151540eca8bb8863b846cbc8302206d53aacdfff90ee0e452f4e4b942d122d7e2a1b70ed251837449ca18c2e3c49d[ALL] 032267c22ffc8780e2254f042f29a526fb5abf406c519d2e15516a81319cb73f5a"}, "vout": 0, "txid": "84c88e1f1468a81c835931a63758b733a49797a7ed70d8dacfd9a4bc46b371ac"}, {"sequence": 4294967295, "scriptSig": {"hex": "47304402200de5c9336f63422dea3a7c4b60de6a19dc9426a3768aa27cce322b506bfa17ba0220425a2b5a25d9d50a0b43c6626057246c88118a4718a748da8fbf44b3587324b40121039a87e36e031c3b5651bb7f1fcd2a6775955200b841fecbf8d448844111bd0cda", "asm": "304402200de5c9336f63422dea3a7c4b60de6a19dc9426a3768aa27cce322b506bfa17ba0220425a2b5a25d9d50a0b43c6626057246c88118a4718a748da8fbf44b3587324b4[ALL] 039a87e36e031c3b5651bb7f1fcd2a6775955200b841fecbf8d448844111bd0cda"}, "vout": 0, "txid": "a225bc5681aa344981acb32c1e13303d683b74d30642858cebebf156d3d448c0"}, {"sequence": 4294967295, "scriptSig": {"hex": "473044022016fb9e3b025ccad61bfcae9e5c5fa984467b481de632ac6570d73e2435390cc002206dddc3e2049460c7c14f9cb40dd25c6933368af8eaa21c63aa70ec4bea59a90d012103316617e8e789246c5eacd5ae67029dce4cd0d191a6de690bb602b3503f708732", "asm": "3044022016fb9e3b025ccad61bfcae9e5c5fa984467b481de632ac6570d73e2435390cc002206dddc3e2049460c7c14f9cb40dd25c6933368af8eaa21c63aa70ec4bea59a90d[ALL] 03316617e8e789246c5eacd5ae67029dce4cd0d191a6de690bb602b3503f708732"}, "vout": 0, "txid": "cd080fcfea80f8ff9e3cf13661da6ec6c5d3f006d26af6440c37208e4af3b893"}], "txid": "c230bbc216a4d311c1f6771b30c683cf7f845c106a13f26377cb825febb96a22", "blocktime": 1537870268, "version": 1, "confirmations": 11518, "time": 1537870268, "locktime": 0, "vsize": 667, "size": 667}