{"hash": "c23444e9e5ca2bf0f17d6991e774706e919a851e4cd1226cabd03a9229953c85", "blockhash": "00000000000000000018f53835495a110e01622372bf6ae95dc86f2b0ab887b0", "vout": [{"scriptPubKey": {"reqSigs": 1, "hex": "76a9149f67fdb0c01a901923437affadf51a34f4993a0388ac", "addresses": ["1FXs1vQprNy2QXwUfHgKHbqaDvGiu28bEY"], "asm": "OP_DUP OP_HASH160 9f67fdb0c01a901923437affadf51a34f4993a03 OP_EQUALVERIFY OP_CHECKSIG", "type": "pubkeyhash"}, "value": 0.00830578, "n": 0}, {"scriptPubKey": {"reqSigs": 1, "hex": "76a9145b28d70db8ae0cbb8e82f8ba6ef8af613913da1a88ac", "addresses": ["19K1R5FGLuTJwmqXKPzizK8C5Tzb2LhiTK"], "asm": "OP_DUP OP_HASH160 5b28d70db8ae0cbb8e82f8ba6ef8af613913da1a OP_EQUALVERIFY OP_CHECKSIG", "type": "pubkeyhash"}, "value": 0.06964129, "n": 1}], "hex": "0100000001ed82a049fef6e89d8acb56f809b4c9581ffb31f16e5f02e1448cd324cdb0ced9000000006b483045022100e16deba6ed665d9b161354c8b8d57d5faa660557fb520953606dfbad219c438802204265cd54de21c726355d961f0f94a579948444ba7a1d5505488dda015d0ea5d90121031a752b0d52a734839b26c54038acb2157822a165a8c7b39426fd089a009f210cffffffff0272ac0c00000000001976a9149f67fdb0c01a901923437affadf51a34f4993a0388aca1436a00000000001976a9145b28d70db8ae0cbb8e82f8ba6ef8af613913da1a88ac00000000", "vin": [{"sequence": 4294967295, "scriptSig": {"hex": "483045022100e16deba6ed665d9b161354c8b8d57d5faa660557fb520953606dfbad219c438802204265cd54de21c726355d961f0f94a579948444ba7a1d5505488dda015d0ea5d90121031a752b0d52a734839b26c54038acb2157822a165a8c7b39426fd089a009f210c", "asm": "3045022100e16deba6ed665d9b161354c8b8d57d5faa660557fb520953606dfbad219c438802204265cd54de21c726355d961f0f94a579948444ba7a1d5505488dda015d0ea5d9[ALL] 031a752b0d52a734839b26c54038acb2157822a165a8c7b39426fd089a009f210c"}, "vout": 0, "txid": "d9ceb0cd24d38c44e1025f6ef131fb1f58c9b409f856cb8a9de8f6fe49a082ed"}], "txid": "c23444e9e5ca2bf0f17d6991e774706e919a851e4cd1226cabd03a9229953c85", "blocktime": 1537870928, "version": 1, "confirmations": 11512, "time": 1537870928, "locktime": 0, "vsize": 226, "size": 226}