{"hash": "988a4b183cad6d0fc2008c8c137b1d7ab5c7f02a20798217d0b9ffc81f9ee267", "blockhash": "0000000000000000000dcc0f55137456b1a82d3642486a52398922ac4d620174", "vout": [{"scriptPubKey": {"reqSigs": 1, "hex": "76a914ffc9afd71fc5e94a344d967a9b4a09bef5f6af9e88ac", "addresses": ["1QKUvNGDnSKxBRan3WGNAYvABnV1E4dyhv"], "asm": "OP_DUP OP_HASH160 ffc9afd71fc5e94a344d967a9b4a09bef5f6af9e OP_EQUALVERIFY OP_CHECKSIG", "type": "pubkeyhash"}, "value": 0.02, "n": 0}, {"scriptPubKey": {"reqSigs": 1, "hex": "a9141988a27e3c2df4ddee7fad5a2303d086179b2a3087", "addresses": ["3422VtS7UtCvXYxoXMVp6eZupR252z85oC"], "asm": "OP_HASH160 1988a27e3c2df4ddee7fad5a2303d086179b2a30 OP_EQUAL", "type": "scripthash"}, "value": 0.78618671, "n": 1}], "hex": "01000000000101b6c8b5aa776ed4c793b9ed1eaf1b9e3e2260203ab50fee1933760ebc14aa3b54000000002322002065d416c48a8072e0ac51c2d111eb194f009caef0332446c1bf2097316cf07fa9ffffffff0280841e00000000001976a914ffc9afd71fc5e94a344d967a9b4a09bef5f6af9e88ac2fa0af040000000017a9141988a27e3c2df4ddee7fad5a2303d086179b2a30870400483045022100b1fa5841ada9eb0fccfa1e1ce3f5e1ddd5eecf335279df110027ac5e6f2a31b3022049157ca5a2baf5707acbb5a4cab1691cf461288808cfbeadf1f149b94b7fb13401483045022100cf2f0e4d4deb7330257eca2e97ad894e48d625d7c1f4f65fd3b413b8e92d147402201209075f631c5a3cea851fcf06448ba6e92602ac8e6676b67b3f2516c7c683030169522102f44abcf9e23c9a460da309ccca56c619c04eed3bde2c2cff5e7d78fbcd980b9c2103c9443cf3047bb6c2c82f1b0c44c36109cdc3d0d601d16d1189a1602bf8d1a0a02103bfe867059274412412e088af5572b92168c2ef495cfe6c9b7a753a009eb37c4853ae00000000", "vin": [{"txinwitness": ["", "3045022100b1fa5841ada9eb0fccfa1e1ce3f5e1ddd5eecf335279df110027ac5e6f2a31b3022049157ca5a2baf5707acbb5a4cab1691cf461288808cfbeadf1f149b94b7fb13401", "3045022100cf2f0e4d4deb7330257eca2e97ad894e48d625d7c1f4f65fd3b413b8e92d147402201209075f631c5a3cea851fcf06448ba6e92602ac8e6676b67b3f2516c7c6830301", "522102f44abcf9e23c9a460da309ccca56c619c04eed3bde2c2cff5e7d78fbcd980b9c2103c9443cf3047bb6c2c82f1b0c44c36109cdc3d0d601d16d1189a1602bf8d1a0a02103bfe867059274412412e088af5572b92168c2ef495cfe6c9b7a753a009eb37c4853ae"], "sequence": 4294967295, "scriptSig": {"hex": "22002065d416c48a8072e0ac51c2d111eb194f009caef0332446c1bf2097316cf07fa9", "asm": "002065d416c48a8072e0ac51c2d111eb194f009caef0332446c1bf2097316cf07fa9"}, "vout": 0, "txid": "543baa14bc0e763319ee0fb53a2060223e9e1baf1eedb993c7d46e77aab5c8b6"}], "txid": "c237c45679dfb1212c37c80f4a827f964e4247ae7737e6522296e4520b647d8c", "blocktime": 1537870268, "version": 1, "confirmations": 11516, "time": 1537870268, "locktime": 0, "vsize": 216, "size": 408}