{"hash": "c23c20ad796103c53f457a2bcd897bc7effca76765c293360c07fc5d34a49b8c", "blockhash": "0000000000000000000baef3f32e3676a92c3b2e5da21b426e4f302fc371ce76", "vout": [{"scriptPubKey": {"type": "nulldata", "hex": "6a4c5000007819000197fd862dc4bf3f27685f40b7019d6ddc0f1b8ff117702940d64fa54d8eb25f00d07763ba5ec78371f0f691f762325baa1c94061498864af1cf56bc9a9526289ac0f6612cd74e33776ee4", "asm": "OP_RETURN 00007819000197fd862dc4bf3f27685f40b7019d6ddc0f1b8ff117702940d64fa54d8eb25f00d07763ba5ec78371f0f691f762325baa1c94061498864af1cf56bc9a9526289ac0f6612cd74e33776ee4"}, "value": 0.0, "n": 0}, {"scriptPubKey": {"reqSigs": 1, "hex": "76a914b969f6b655dd91591cb273d36038f36848f822d688ac", "addresses": ["1HuNwyfT2SUyh2E37gh2F5bJJhASy4nPxb"], "asm": "OP_DUP OP_HASH160 b969f6b655dd91591cb273d36038f36848f822d6 OP_EQUALVERIFY OP_CHECKSIG", "type": "pubkeyhash"}, "value": 0.0011614, "n": 1}], "hex": "0100000001f0577690e5f41adc5e4e68a3d4c0951a538d7c563b0b7dd6333213521277f57f010000006b483045022100e7a4ade82eebe6b3e809980074f6ab11a81966fa68eefad0798732aa7666381902204d15155cf4b31c8c2aaa44f6db2db5931f9c606aaaaffa57f0015acfb598eb9c012102d55cc35bdb86f53c2b97e3a5cf8e4cfa03d32a683151acd69e714ae5a76c2563ffffffff020000000000000000536a4c5000007819000197fd862dc4bf3f27685f40b7019d6ddc0f1b8ff117702940d64fa54d8eb25f00d07763ba5ec78371f0f691f762325baa1c94061498864af1cf56bc9a9526289ac0f6612cd74e33776ee4acc50100000000001976a914b969f6b655dd91591cb273d36038f36848f822d688ac00000000", "vin": [{"sequence": 4294967295, "scriptSig": {"hex": "483045022100e7a4ade82eebe6b3e809980074f6ab11a81966fa68eefad0798732aa7666381902204d15155cf4b31c8c2aaa44f6db2db5931f9c606aaaaffa57f0015acfb598eb9c012102d55cc35bdb86f53c2b97e3a5cf8e4cfa03d32a683151acd69e714ae5a76c2563", "asm": "3045022100e7a4ade82eebe6b3e809980074f6ab11a81966fa68eefad0798732aa7666381902204d15155cf4b31c8c2aaa44f6db2db5931f9c606aaaaffa57f0015acfb598eb9c[ALL] 02d55cc35bdb86f53c2b97e3a5cf8e4cfa03d32a683151acd69e714ae5a76c2563"}, "vout": 1, "txid": "7ff5771252133233d67d0b3b567c8d531a95c0d4a3684e5edc1af4e5907657f0"}], "txid": "c23c20ad796103c53f457a2bcd897bc7effca76765c293360c07fc5d34a49b8c", "blocktime": 1537876114, "version": 1, "confirmations": 11461, "time": 1537876114, "locktime": 0, "vsize": 284, "size": 284}