{"hash": "c24122a0417c97aa49fd026a6148bb7fdd0839981cb15a166bde2e72c854e9f6", "blockhash": "0000000000000000000dcc0f55137456b1a82d3642486a52398922ac4d620174", "vout": [{"scriptPubKey": {"reqSigs": 1, "hex": "76a91401f85f1e6d15090f62f04b8b8c7d82b4ed404c0588ac", "addresses": ["1BRDMK94Chwe22DXERTGLfU8391ybWkch"], "asm": "OP_DUP OP_HASH160 01f85f1e6d15090f62f04b8b8c7d82b4ed404c05 OP_EQUALVERIFY OP_CHECKSIG", "type": "pubkeyhash"}, "value": 0.00797127, "n": 0}, {"scriptPubKey": {"reqSigs": 1, "hex": "76a9141a113eadc75573d3e84329b70478e39aeb359b6f88ac", "addresses": ["13NqEBSbEm5epqJHSMF7iZ5o5qBLXACwmv"], "asm": "OP_DUP OP_HASH160 1a113eadc75573d3e84329b70478e39aeb359b6f OP_EQUALVERIFY OP_CHECKSIG", "type": "pubkeyhash"}, "value": 0.17858818, "n": 1}], "hex": "010000000178aa259483c39b612a6088e776995c966610aabf722825ab8d46a4616617b583010000006b483045022100a723ec944152c0b6c92fb87ff0ea3ede9f1ab1f93798ab29f90eb37420d4c41602207e9c9c81160183b9e3f54285b258f63ff5c9316efa70887d06c105ad7ef9727b01210399b8e223d4c4e35fa2b1d889726df556766bd21f53f0c4e5047f17baf207db9dffffffff02c7290c00000000001976a91401f85f1e6d15090f62f04b8b8c7d82b4ed404c0588ac02811001000000001976a9141a113eadc75573d3e84329b70478e39aeb359b6f88ac00000000", "vin": [{"sequence": 4294967295, "scriptSig": {"hex": "483045022100a723ec944152c0b6c92fb87ff0ea3ede9f1ab1f93798ab29f90eb37420d4c41602207e9c9c81160183b9e3f54285b258f63ff5c9316efa70887d06c105ad7ef9727b01210399b8e223d4c4e35fa2b1d889726df556766bd21f53f0c4e5047f17baf207db9d", "asm": "3045022100a723ec944152c0b6c92fb87ff0ea3ede9f1ab1f93798ab29f90eb37420d4c41602207e9c9c81160183b9e3f54285b258f63ff5c9316efa70887d06c105ad7ef9727b[ALL] 0399b8e223d4c4e35fa2b1d889726df556766bd21f53f0c4e5047f17baf207db9d"}, "vout": 1, "txid": "83b5176661a4468dab252872bfaa1066965c9976e788602a619bc3839425aa78"}], "txid": "c24122a0417c97aa49fd026a6148bb7fdd0839981cb15a166bde2e72c854e9f6", "blocktime": 1537870268, "version": 1, "confirmations": 11516, "time": 1537870268, "locktime": 0, "vsize": 226, "size": 226}