{"hash": "5f18c565b4874b1f5f07f550083d63a2235c7d4055447688dab8f07853434810", "blockhash": "00000000000000000018f53835495a110e01622372bf6ae95dc86f2b0ab887b0", "vout": [{"scriptPubKey": {"reqSigs": 1, "hex": "76a914295f3f59e86ad0592c90f6674c018aa22e363c3788ac", "addresses": ["14mkomx2mDBRqadu6gKvzHVxZeR7HMNxZg"], "asm": "OP_DUP OP_HASH160 295f3f59e86ad0592c90f6674c018aa22e363c37 OP_EQUALVERIFY OP_CHECKSIG", "type": "pubkeyhash"}, "value": 0.003439, "n": 0}, {"scriptPubKey": {"reqSigs": 1, "hex": "a914faf8821915adce91f460b2ba2ef9e92a601d1c6d87", "addresses": ["3Qa2Z9rXYgBHZVPD5BCfbyYDbX5H7bH1do"], "asm": "OP_HASH160 faf8821915adce91f460b2ba2ef9e92a601d1c6d OP_EQUAL", "type": "scripthash"}, "value": 0.0198, "n": 1}, {"scriptPubKey": {"reqSigs": 1, "hex": "a914c53f71bdf39d242a9405c8dfd7c6e27135b35c4387", "addresses": ["3Kfy3XDypq24z3Z3mkmqyN1uQFZxxgDa97"], "asm": "OP_HASH160 c53f71bdf39d242a9405c8dfd7c6e27135b35c43 OP_EQUAL", "type": "scripthash"}, "value": 15.83133056, "n": 2}, {"scriptPubKey": {"reqSigs": 1, "hex": "76a914be6feaff025e318c8f777edb4cf10f830a00b9b388ac", "addresses": ["1JMwTeKpFVgcJxkr8VaLF89oSVnhuuk2WD"], "asm": "OP_DUP OP_HASH160 be6feaff025e318c8f777edb4cf10f830a00b9b3 OP_EQUALVERIFY OP_CHECKSIG", "type": "pubkeyhash"}, "value": 0.001, "n": 3}], "hex": "020000000001010d69bb3083d86ad7acb828c6d9abab8ec114cf2c48a18288756be8172b3a1ea90000000017160014c3a7321e76c5b60af57c05f787b29b3a1dea67cbfeffffff045c3f0500000000001976a914295f3f59e86ad0592c90f6674c018aa22e363c3788ac60361e000000000017a914faf8821915adce91f460b2ba2ef9e92a601d1c6d8780b15c5e0000000017a914c53f71bdf39d242a9405c8dfd7c6e27135b35c4387a0860100000000001976a914be6feaff025e318c8f777edb4cf10f830a00b9b388ac02483045022100db416450f7dce84b57ea00eff69fa24aa9b3c483aa5af1330e414858dcc0a83902206aef93f296d902e80a6b345f24c3c9d95221d4aeb7e7c72b3f7317ab5ecac56f012103ef0d23db592260e59f57c6709ab1dc8bd420e8e480a765eebc335015bc040b950e490800", "vin": [{"txinwitness": ["3045022100db416450f7dce84b57ea00eff69fa24aa9b3c483aa5af1330e414858dcc0a83902206aef93f296d902e80a6b345f24c3c9d95221d4aeb7e7c72b3f7317ab5ecac56f01", "03ef0d23db592260e59f57c6709ab1dc8bd420e8e480a765eebc335015bc040b95"], "sequence": 4294967294, "scriptSig": {"hex": "160014c3a7321e76c5b60af57c05f787b29b3a1dea67cb", "asm": "0014c3a7321e76c5b60af57c05f787b29b3a1dea67cb"}, "vout": 0, "txid": "a91e3a2b17e86b758882a1482ccf14c18eababd9c628b8acd76ad88330bb690d"}], "txid": "c2481558c5627c30f6140a0849bd3e5ac9da06cd6c30553c22d634869f61dd3d", "blocktime": 1537870928, "version": 2, "confirmations": 11512, "time": 1537870928, "locktime": 542990, "vsize": 234, "size": 316}