{"hash": "c24dea82a6d60925ba340d6c3aac273e705edff71484f05710a83523981cf30e", "blockhash": "00000000000000000004ffacab907a6b429b9a5745fa0b75af4234bf69dd7176", "vout": [{"scriptPubKey": {"reqSigs": 1, "hex": "a914ef738bcda873e23a92705aab6e1647e9087bfd2387", "addresses": ["3PX7qg8YW9kXiBXVgtfaN8FbzNaWdKw9pa"], "asm": "OP_HASH160 ef738bcda873e23a92705aab6e1647e9087bfd23 OP_EQUAL", "type": "scripthash"}, "value": 0.00765274, "n": 0}, {"scriptPubKey": {"reqSigs": 1, "hex": "76a9146d1c547d0a44eb071b4c245e15abef4e637f08ef88ac", "addresses": ["1AwvbKFhYG8Js6PR6qN3cE4JjHBpNQ7QrJ"], "asm": "OP_DUP OP_HASH160 6d1c547d0a44eb071b4c245e15abef4e637f08ef OP_EQUALVERIFY OP_CHECKSIG", "type": "pubkeyhash"}, "value": 3.23908995, "n": 1}], "hex": "010000000155f15fd6a3c9cd5768b397e6e1707c5d0cb34c5770772425b5de3d92a2500131000000006b483045022100b14ed94f767d23fdc6dda6bd01643aeedc36199b0353858fb3e71b6cee4d11cb02206410465075b735c072171971601dcc002f3e4e83eee46df9ba363684056cd9d2012103eb93d3652d4a32ed93b93f1ff654a5b4ebd25e5200e586a6ee5944a7ced2e048ffffffff025aad0b000000000017a914ef738bcda873e23a92705aab6e1647e9087bfd238783754e13000000001976a9146d1c547d0a44eb071b4c245e15abef4e637f08ef88ac00000000", "vin": [{"sequence": 4294967295, "scriptSig": {"hex": "483045022100b14ed94f767d23fdc6dda6bd01643aeedc36199b0353858fb3e71b6cee4d11cb02206410465075b735c072171971601dcc002f3e4e83eee46df9ba363684056cd9d2012103eb93d3652d4a32ed93b93f1ff654a5b4ebd25e5200e586a6ee5944a7ced2e048", "asm": "3045022100b14ed94f767d23fdc6dda6bd01643aeedc36199b0353858fb3e71b6cee4d11cb02206410465075b735c072171971601dcc002f3e4e83eee46df9ba363684056cd9d2[ALL] 03eb93d3652d4a32ed93b93f1ff654a5b4ebd25e5200e586a6ee5944a7ced2e048"}, "vout": 0, "txid": "310150a2923ddeb525247770574cb30c5d7c70e1e697b36857cdc9a3d65ff155"}], "txid": "c24dea82a6d60925ba340d6c3aac273e705edff71484f05710a83523981cf30e", "blocktime": 1537875543, "version": 1, "confirmations": 11464, "time": 1537875543, "locktime": 0, "vsize": 224, "size": 224}