{"hash": "c24e64a34a5f0f53794bfa897ad94d18c6e38377cb2cc96bb0a6876500283dc8", "blockhash": "0000000000000000000dcc0f55137456b1a82d3642486a52398922ac4d620174", "vout": [{"scriptPubKey": {"reqSigs": 1, "hex": "a914b61034e5fe5a5febf9a12e8989bbd6afbbd8d18387", "addresses": ["3JHgKWjyRmDbiSGSUEA2mcimzt6r4iiCVj"], "asm": "OP_HASH160 b61034e5fe5a5febf9a12e8989bbd6afbbd8d183 OP_EQUAL", "type": "scripthash"}, "value": 0.0046865, "n": 0}, {"scriptPubKey": {"reqSigs": 1, "hex": "76a91425e5ab2c38c7d16cb53b1370b9ef79cf563816e288ac", "addresses": ["14TP8knG9k9gurkjHVxy1vMRvEm81KYLNk"], "asm": "OP_DUP OP_HASH160 25e5ab2c38c7d16cb53b1370b9ef79cf563816e2 OP_EQUALVERIFY OP_CHECKSIG", "type": "pubkeyhash"}, "value": 0.00476282, "n": 1}], "hex": "0100000001538c8a44de78cf22d253f3d978482cc09e3710583849a770362bb42d03675b56010000006a473044022005eb13521bc2ebcc7a26dba9510a0a1161e4e1e3435bb256f2bd4becefd3350702203a9fe6c7b770ad032beee5a2b2b4cc652c8cdf617d8c8bf6e0e39cad620d0b9e01210390d954b34cd06b53690095b9822fa819c18cfcb01eabb1ef31f87c7aaf53b382ffffffff02aa2607000000000017a914b61034e5fe5a5febf9a12e8989bbd6afbbd8d183877a440700000000001976a91425e5ab2c38c7d16cb53b1370b9ef79cf563816e288ac00000000", "vin": [{"sequence": 4294967295, "scriptSig": {"hex": "473044022005eb13521bc2ebcc7a26dba9510a0a1161e4e1e3435bb256f2bd4becefd3350702203a9fe6c7b770ad032beee5a2b2b4cc652c8cdf617d8c8bf6e0e39cad620d0b9e01210390d954b34cd06b53690095b9822fa819c18cfcb01eabb1ef31f87c7aaf53b382", "asm": "3044022005eb13521bc2ebcc7a26dba9510a0a1161e4e1e3435bb256f2bd4becefd3350702203a9fe6c7b770ad032beee5a2b2b4cc652c8cdf617d8c8bf6e0e39cad620d0b9e[ALL] 0390d954b34cd06b53690095b9822fa819c18cfcb01eabb1ef31f87c7aaf53b382"}, "vout": 1, "txid": "565b67032db42b3670a749385810379ec02c4878d9f353d222cf78de448a8c53"}], "txid": "c24e64a34a5f0f53794bfa897ad94d18c6e38377cb2cc96bb0a6876500283dc8", "blocktime": 1537870268, "version": 1, "confirmations": 11516, "time": 1537870268, "locktime": 0, "vsize": 223, "size": 223}