{"hash": "c24f860fe9d5d48cb2c9f9b339740effd7dc0b1d84804856b7b974e31ded767d", "blockhash": "0000000000000000000baef3f32e3676a92c3b2e5da21b426e4f302fc371ce76", "vout": [{"scriptPubKey": {"reqSigs": 1, "hex": "76a914db39605094a3e6443a590155e80a45b41b7b05c688ac", "addresses": ["1Lz9iai6RfCwAsyB7WFkez9ce8xr6kvKRZ"], "asm": "OP_DUP OP_HASH160 db39605094a3e6443a590155e80a45b41b7b05c6 OP_EQUALVERIFY OP_CHECKSIG", "type": "pubkeyhash"}, "value": 0.001842, "n": 0}, {"scriptPubKey": {"reqSigs": 1, "hex": "76a91484cd15b07bd76fa20839624c0761a94a2e2d269088ac", "addresses": ["1D7BsrmXHRVLU2Y5KtriSUY6KuoBQcdVDs"], "asm": "OP_DUP OP_HASH160 84cd15b07bd76fa20839624c0761a94a2e2d2690 OP_EQUALVERIFY OP_CHECKSIG", "type": "pubkeyhash"}, "value": 0.01265442, "n": 1}], "hex": "02000000017ecd48a0443902866a965e4c62753a0896dc9f7b174a4cd9242ec9b87ae861b4000000006a47304402203f015b7b7e620e2b79d23bee3e045df459452dc2434ea24d8a33579f4bff704a02202466592b90dababba3ce045d148c547574bbce1261fbe412b39535a60707a5b60121028b90220dfe9faff1969197822279b2931d094d569bcd99be428cd0c06998d982feffffff0288cf0200000000001976a914db39605094a3e6443a590155e80a45b41b7b05c688ac224f1300000000001976a91484cd15b07bd76fa20839624c0761a94a2e2d269088ac17490800", "vin": [{"sequence": 4294967294, "scriptSig": {"hex": "47304402203f015b7b7e620e2b79d23bee3e045df459452dc2434ea24d8a33579f4bff704a02202466592b90dababba3ce045d148c547574bbce1261fbe412b39535a60707a5b60121028b90220dfe9faff1969197822279b2931d094d569bcd99be428cd0c06998d982", "asm": "304402203f015b7b7e620e2b79d23bee3e045df459452dc2434ea24d8a33579f4bff704a02202466592b90dababba3ce045d148c547574bbce1261fbe412b39535a60707a5b6[ALL] 028b90220dfe9faff1969197822279b2931d094d569bcd99be428cd0c06998d982"}, "vout": 0, "txid": "b461e87ab8c92e24d94c4a177b9fdc96083a75624c5e966a86023944a048cd7e"}], "txid": "c24f860fe9d5d48cb2c9f9b339740effd7dc0b1d84804856b7b974e31ded767d", "blocktime": 1537876114, "version": 2, "confirmations": 11460, "time": 1537876114, "locktime": 542999, "vsize": 225, "size": 225}