{"hash": "517948f0b8bfafa6122df7c54962efdf9c293d4a4c9053e1a927ef65fb914e88", "blockhash": "000000000000000000022b45ed06c6f4ccd3cf7fb5ba4856ebd2e58215665228", "vout": [{"scriptPubKey": {"reqSigs": 1, "hex": "a914bdcf8a8d7e06674cb6bf270739ed9ed29e7e4cc287", "addresses": ["3JzeG1v1ujWMmTAGPDbuHZyLhruyjd4ohe"], "asm": "OP_HASH160 bdcf8a8d7e06674cb6bf270739ed9ed29e7e4cc2 OP_EQUAL", "type": "scripthash"}, "value": 1.83153873, "n": 0}, {"scriptPubKey": {"reqSigs": 1, "hex": "00142af51fd80ef620a278b4155960faf0810d285c5a", "addresses": ["bc1q9t63lkqw7cs2y795z4vkp7hssyxjshz6vw4jpt"], "asm": "0 2af51fd80ef620a278b4155960faf0810d285c5a", "type": "witness_v0_keyhash"}, "value": 0.00213616, "n": 1}], "hex": "01000000000101cfebe6b68a7195fc6f2750d6f03ed7ae40379d60fc77922ee820d89c5205d9ec0100000000ffffffff02d1b4ea0a0000000017a914bdcf8a8d7e06674cb6bf270739ed9ed29e7e4cc28770420300000000001600142af51fd80ef620a278b4155960faf0810d285c5a0247304402207166cdcec0aa903935627ac13b19cf294011989425da2801d738b8e9b023bdc502202875ae9d8ca52b04e4d5b273695078029d284cbe539aa369d6629958333d3c5601210312b9df4514f71b4d41cd953d5393bfe342ceea5735c333388f8f8dcfd753883300000000", "vin": [{"txinwitness": ["304402207166cdcec0aa903935627ac13b19cf294011989425da2801d738b8e9b023bdc502202875ae9d8ca52b04e4d5b273695078029d284cbe539aa369d6629958333d3c5601", "0312b9df4514f71b4d41cd953d5393bfe342ceea5735c333388f8f8dcfd7538833"], "sequence": 4294967295, "scriptSig": {"hex": "", "asm": ""}, "vout": 1, "txid": "ecd905529cd820e82e9277fc609d3740aed73ef0d650276ffc95718ab6e6ebcf"}], "txid": "c250844f8a2229218d5248678f789f0c770b96daf8ebb923f560f59e463c0196", "blocktime": 1537869901, "version": 1, "confirmations": 11523, "time": 1537869901, "locktime": 0, "vsize": 142, "size": 223}