{"hash": "1420d315770ab852cfec6abe9c84a03f064b9efe19f2e0c01c808b03466b778e", "blockhash": "0000000000000000001f76057863aec43deb6fa401d9628bb513d65a8098bfab", "vout": [{"scriptPubKey": {"reqSigs": 1, "hex": "0014374de29c2e7743d1af95c871f79bea2469a3de0c", "addresses": ["bc1qxax798pwwapartu4epcl0xl2y3568hsv3xs6n4"], "asm": "0 374de29c2e7743d1af95c871f79bea2469a3de0c", "type": "witness_v0_keyhash"}, "value": 0.04924932, "n": 0}, {"scriptPubKey": {"reqSigs": 1, "hex": "76a9140f9cea81454400ad4a86bd2fc1ab981c2e8f896988ac", "addresses": ["12RZ7bVbMsysa4FkutDaR9EYn4iHz2hjyQ"], "asm": "OP_DUP OP_HASH160 0f9cea81454400ad4a86bd2fc1ab981c2e8f8969 OP_EQUALVERIFY OP_CHECKSIG", "type": "pubkeyhash"}, "value": 0.2177448, "n": 1}], "hex": "01000000000101533e2ad2087e25b30a3335cffb0756e5a4fe555d9a7f78fa5ddd0e631ce111821100000017160014d95be4662c2f48b1d103c7dddd90a331bb43166bffffffff0204264b0000000000160014374de29c2e7743d1af95c871f79bea2469a3de0c90404c01000000001976a9140f9cea81454400ad4a86bd2fc1ab981c2e8f896988ac0247304402202f003432fa06d64fab45a96fddb3943c87fee06b81289610568bef18236a7f8702206913a4d69f2dea30d9c65cb2db17c867536601d509d81bf7956e57d1656987eb012102021f3699a2ea3b97e040f2cec9e2965b7437898b602c211d07870a1333365d5300000000", "vin": [{"txinwitness": ["304402202f003432fa06d64fab45a96fddb3943c87fee06b81289610568bef18236a7f8702206913a4d69f2dea30d9c65cb2db17c867536601d509d81bf7956e57d1656987eb01", "02021f3699a2ea3b97e040f2cec9e2965b7437898b602c211d07870a1333365d53"], "sequence": 4294967295, "scriptSig": {"hex": "160014d95be4662c2f48b1d103c7dddd90a331bb43166b", "asm": "0014d95be4662c2f48b1d103c7dddd90a331bb43166b"}, "vout": 17, "txid": "8211e11c630edd5dfa787f9a5d55fea4e55607fbcf35330ab3257e08d22a3e53"}], "txid": "c25805ee43df7c7612c78af3f3482ff44cdfd7322eba15749b7669918a6abe97", "blocktime": 1537873891, "version": 1, "confirmations": 11478, "time": 1537873891, "locktime": 0, "vsize": 167, "size": 248}