{"hash": "c25b95e7300f1b6fea88513c3c513477846aaf644b247c1462f83689a199ee00", "blockhash": "00000000000000000018f53835495a110e01622372bf6ae95dc86f2b0ab887b0", "vout": [{"scriptPubKey": {"reqSigs": 1, "hex": "76a91403fb85b7256ec9901a18d5e1f7ee5077bf7db63088ac", "addresses": ["1N4LesvAyBGF7npUDRf1o1PBRsD5GpVAU"], "asm": "OP_DUP OP_HASH160 03fb85b7256ec9901a18d5e1f7ee5077bf7db630 OP_EQUALVERIFY OP_CHECKSIG", "type": "pubkeyhash"}, "value": 5.627e-05, "n": 0}, {"scriptPubKey": {"reqSigs": 1, "hex": "76a91427e64a1f341a3591049cf74caa7d253b425e716988ac", "addresses": ["14dyEHBhejgLYmdckQxJRiVww33sGiwtu6"], "asm": "OP_DUP OP_HASH160 27e64a1f341a3591049cf74caa7d253b425e7169 OP_EQUALVERIFY OP_CHECKSIG", "type": "pubkeyhash"}, "value": 0.00541327, "n": 1}], "hex": "01000000029585ace9724655f542b689de6a54912d789e028d68c502d9f57a04e3435ef380000000006b483045022100f03143f2dba9e0f527ed61d1f06a8b3e166a4453b117a03b13a4e19f740fd188022010662f0dd9a458ed245e993c4989352fd76ddd2cf049cec1e7b11f142df626a3012102b8b02948fc99f51bf06cb5e214813cccb49fb8002d2db2895e5da168939a2c1bffffffffc1e9533ba70f77ef798464dcbd1ac7d105a54c49dcd49d770d3ff3a15095eff8000000006b483045022100bcbfdca969bb2f5aca0d09b24e3494257d36807886d5c948d7b3aa09eeda60f5022048c9b512ab936c4b5f105901653f1ad7e8668d44695959f66a29aa5b5355140401210351a515a9d2dec8822cc642372833da1118c99b488e359371bbf789cd085baa84ffffffff02fb150000000000001976a91403fb85b7256ec9901a18d5e1f7ee5077bf7db63088ac8f420800000000001976a91427e64a1f341a3591049cf74caa7d253b425e716988ac00000000", "vin": [{"sequence": 4294967295, "scriptSig": {"hex": "483045022100f03143f2dba9e0f527ed61d1f06a8b3e166a4453b117a03b13a4e19f740fd188022010662f0dd9a458ed245e993c4989352fd76ddd2cf049cec1e7b11f142df626a3012102b8b02948fc99f51bf06cb5e214813cccb49fb8002d2db2895e5da168939a2c1b", "asm": "3045022100f03143f2dba9e0f527ed61d1f06a8b3e166a4453b117a03b13a4e19f740fd188022010662f0dd9a458ed245e993c4989352fd76ddd2cf049cec1e7b11f142df626a3[ALL] 02b8b02948fc99f51bf06cb5e214813cccb49fb8002d2db2895e5da168939a2c1b"}, "vout": 0, "txid": "80f35e43e3047af5d902c5688d029e782d91546ade89b642f5554672e9ac8595"}, {"sequence": 4294967295, "scriptSig": {"hex": "483045022100bcbfdca969bb2f5aca0d09b24e3494257d36807886d5c948d7b3aa09eeda60f5022048c9b512ab936c4b5f105901653f1ad7e8668d44695959f66a29aa5b5355140401210351a515a9d2dec8822cc642372833da1118c99b488e359371bbf789cd085baa84", "asm": "3045022100bcbfdca969bb2f5aca0d09b24e3494257d36807886d5c948d7b3aa09eeda60f5022048c9b512ab936c4b5f105901653f1ad7e8668d44695959f66a29aa5b53551404[ALL] 0351a515a9d2dec8822cc642372833da1118c99b488e359371bbf789cd085baa84"}, "vout": 0, "txid": "f8ef9550a1f33f0d779dd4dc494ca505d1c71abddc648479ef770fa73b53e9c1"}], "txid": "c25b95e7300f1b6fea88513c3c513477846aaf644b247c1462f83689a199ee00", "blocktime": 1537870928, "version": 1, "confirmations": 11512, "time": 1537870928, "locktime": 0, "vsize": 374, "size": 374}