{"hash": "c2634bb0dd64ebd5d7fd6ec2f6b9c0afbd3f91f9861daacc084865b5a570cd36", "blockhash": "00000000000000000004ffacab907a6b429b9a5745fa0b75af4234bf69dd7176", "vout": [{"scriptPubKey": {"reqSigs": 1, "hex": "a914ec3f064a513422304f5e969ac0675c14ea1f711a87", "addresses": ["3PEAtqf6x52sqZYWjYDWzTiUX3xBox5T91"], "asm": "OP_HASH160 ec3f064a513422304f5e969ac0675c14ea1f711a OP_EQUAL", "type": "scripthash"}, "value": 0.001, "n": 0}, {"scriptPubKey": {"reqSigs": 1, "hex": "76a914e163d073e054266d0f5e025eebd6100b0c946b5b88ac", "addresses": ["1MYkcNyCtPmxivKoMy5v5VBkv6LuBrgrAy"], "asm": "OP_DUP OP_HASH160 e163d073e054266d0f5e025eebd6100b0c946b5b OP_EQUALVERIFY OP_CHECKSIG", "type": "pubkeyhash"}, "value": 0.0839032, "n": 1}], "hex": "0100000001d18cf4e5eabed3a7ab745bf07e8edc4d9616628378560b32b51a5ae5ff6e1585010000006a47304402200438ac9818d83047219f0e2a96be64cc7a97c25ea5ef6378409c6f52bebac8b602201f1582c255c6b0357f1c6c5c9b1e05c03cd38d761c0b3ec4ff447d25eb726b830121033387315522fd785dc6a3184e4f2acbd937f90409a105c06583c94e6554220085ffffffff02a08601000000000017a914ec3f064a513422304f5e969ac0675c14ea1f711a87b0068000000000001976a914e163d073e054266d0f5e025eebd6100b0c946b5b88ac00000000", "vin": [{"sequence": 4294967295, "scriptSig": {"hex": "47304402200438ac9818d83047219f0e2a96be64cc7a97c25ea5ef6378409c6f52bebac8b602201f1582c255c6b0357f1c6c5c9b1e05c03cd38d761c0b3ec4ff447d25eb726b830121033387315522fd785dc6a3184e4f2acbd937f90409a105c06583c94e6554220085", "asm": "304402200438ac9818d83047219f0e2a96be64cc7a97c25ea5ef6378409c6f52bebac8b602201f1582c255c6b0357f1c6c5c9b1e05c03cd38d761c0b3ec4ff447d25eb726b83[ALL] 033387315522fd785dc6a3184e4f2acbd937f90409a105c06583c94e6554220085"}, "vout": 1, "txid": "85156effe55a1ab5320b5678836216964ddc8e7ef05b74aba7d3beeae5f48cd1"}], "txid": "c2634bb0dd64ebd5d7fd6ec2f6b9c0afbd3f91f9861daacc084865b5a570cd36", "blocktime": 1537875543, "version": 1, "confirmations": 11464, "time": 1537875543, "locktime": 0, "vsize": 223, "size": 223}