{"hash": "2dd951377914cf4800f1a8a956400f97184a3f4b34185da022cc8e4d2c6e4c44", "blockhash": "00000000000000000024a2167bbff67b0be802c0b01cdd79e6331c2be6459f87", "vout": [{"scriptPubKey": {"reqSigs": 1, "hex": "0014b855caed132492ab6c83a0add35caf525ace7c2e", "addresses": ["bc1qhp2u4mgnyjf2kmyr5zkaxh902fdvulpwnzxrpt"], "asm": "0 b855caed132492ab6c83a0add35caf525ace7c2e", "type": "witness_v0_keyhash"}, "value": 0.00225975, "n": 0}, {"scriptPubKey": {"reqSigs": 1, "hex": "76a9140fa056e8e10ba65c03904b3d1bde73f09a3eba5188ac", "addresses": ["12RdDTiSfB4xykEbFtqQfhZDtk5Cw52Pv4"], "asm": "OP_DUP OP_HASH160 0fa056e8e10ba65c03904b3d1bde73f09a3eba51 OP_EQUALVERIFY OP_CHECKSIG", "type": "pubkeyhash"}, "value": 0.00163576, "n": 1}], "hex": "010000000001013cb28cee78f4ea359cd4f2f48c99e5cae3017a8b51ef624b68f2c41df9c3744c0100000017160014ea19eeef877bc821ede6184db001b631fafd53bcffffffff02b772030000000000160014b855caed132492ab6c83a0add35caf525ace7c2ef87e0200000000001976a9140fa056e8e10ba65c03904b3d1bde73f09a3eba5188ac0247304402202c9a91f2eca34c1d478e33b284623189ad3c7e2bd7342aed041d664a33ba1e76022003fab51bde013c312d75154f031c4c11e5d12b479d75b28e19ad28fffe8be101012102ea924bfa5164ad9824fb7ae944455f7e5ff2bf73a50fd30b0a0540efa7ec01ce00000000", "vin": [{"txinwitness": ["304402202c9a91f2eca34c1d478e33b284623189ad3c7e2bd7342aed041d664a33ba1e76022003fab51bde013c312d75154f031c4c11e5d12b479d75b28e19ad28fffe8be10101", "02ea924bfa5164ad9824fb7ae944455f7e5ff2bf73a50fd30b0a0540efa7ec01ce"], "sequence": 4294967295, "scriptSig": {"hex": "160014ea19eeef877bc821ede6184db001b631fafd53bc", "asm": "0014ea19eeef877bc821ede6184db001b631fafd53bc"}, "vout": 1, "txid": "4c74c3f91dc4f2684b62ef518b7a01e3cae5998cf4f2d49c35eaf478ee8cb23c"}], "txid": "c2640fc18617e8edfe229e83d57a6025dfefb74c58618d7439d119da711ee5ee", "blocktime": 1537870564, "version": 1, "confirmations": 11515, "time": 1537870564, "locktime": 0, "vsize": 167, "size": 248}