{"hash": "c26e74db3c8642df0c2c5673d355fd02acade7d1d71ab0fae48e3589f2717c26", "blockhash": "0000000000000000001f0ddff1eddb255c1121bcd4da4f1bc9a0da00cae72433", "vout": [{"scriptPubKey": {"reqSigs": 1, "hex": "a914f37b521b73c6489775a906aefbd79a4bdd1c468287", "addresses": ["3PtRrdgGJCDDbUJR6vvzAd31gAdNKq6Po6"], "asm": "OP_HASH160 f37b521b73c6489775a906aefbd79a4bdd1c4682 OP_EQUAL", "type": "scripthash"}, "value": 0.00157, "n": 0}, {"scriptPubKey": {"reqSigs": 1, "hex": "76a9143dbcb16325553f3a8b5e2bd1fc235273caf4270588ac", "addresses": ["16dSGKJQWicsmwLewq1HpnUJVXx55wNWcX"], "asm": "OP_DUP OP_HASH160 3dbcb16325553f3a8b5e2bd1fc235273caf42705 OP_EQUALVERIFY OP_CHECKSIG", "type": "pubkeyhash"}, "value": 0.03757, "n": 1}], "hex": "01000000010740f7fce1c92b4902649389ee336205f227f8c6579ce7eb6b76f0bdcf9f8f23000000009200483045022100a02d84128b66f331af82627e414aad23d66181232f4bb7b75c337be8acb1e620022011128bf640692e53755de9fd72a9aea7e85643569f37c7316a3da4e704d1fe800147512102b479654800c6ef5129da3acfd460c102d32e6d2554fd460198eda6ce5abab6f92102df2855065c0104d0622bc9a174056ec7c45a38bf3170637991aac5bc654be6ea52aeffffffff02486502000000000017a914f37b521b73c6489775a906aefbd79a4bdd1c468287c8533900000000001976a9143dbcb16325553f3a8b5e2bd1fc235273caf4270588ac00000000", "vin": [{"sequence": 4294967295, "scriptSig": {"hex": "00483045022100a02d84128b66f331af82627e414aad23d66181232f4bb7b75c337be8acb1e620022011128bf640692e53755de9fd72a9aea7e85643569f37c7316a3da4e704d1fe800147512102b479654800c6ef5129da3acfd460c102d32e6d2554fd460198eda6ce5abab6f92102df2855065c0104d0622bc9a174056ec7c45a38bf3170637991aac5bc654be6ea52ae", "asm": "0 3045022100a02d84128b66f331af82627e414aad23d66181232f4bb7b75c337be8acb1e620022011128bf640692e53755de9fd72a9aea7e85643569f37c7316a3da4e704d1fe80[ALL] 512102b479654800c6ef5129da3acfd460c102d32e6d2554fd460198eda6ce5abab6f92102df2855065c0104d0622bc9a174056ec7c45a38bf3170637991aac5bc654be6ea52ae"}, "vout": 0, "txid": "238f9fcfbdf0766bebe79c57c6f827f2056233ee89936402492bc9e1fcf74007"}], "txid": "c26e74db3c8642df0c2c5673d355fd02acade7d1d71ab0fae48e3589f2717c26", "blocktime": 1537872018, "version": 1, "confirmations": 11489, "time": 1537872018, "locktime": 0, "vsize": 263, "size": 263}