{"hash": "c26edf8cd84e0b35c02e4e2945f4383102492e1e1320969eeee9fdeb28ffcbf4", "blockhash": "0000000000000000000baef3f32e3676a92c3b2e5da21b426e4f302fc371ce76", "vout": [{"scriptPubKey": {"reqSigs": 1, "hex": "76a914f75665197c51ee869def456cd69a0dfff8126e6588ac", "addresses": ["1PYoQCyLHMAH9w4e1hkRyqvKGB3H4mCiyD"], "asm": "OP_DUP OP_HASH160 f75665197c51ee869def456cd69a0dfff8126e65 OP_EQUALVERIFY OP_CHECKSIG", "type": "pubkeyhash"}, "value": 0.00308219, "n": 0}, {"scriptPubKey": {"reqSigs": 1, "hex": "a9145873e16356c514967055c61a1a727ecb41649b7587", "addresses": ["39kiCwLhVRGhWEebh7smCUXNjNjjbKeskW"], "asm": "OP_HASH160 5873e16356c514967055c61a1a727ecb41649b75 OP_EQUAL", "type": "scripthash"}, "value": 0.029, "n": 1}], "hex": "0100000001d2951187914e83f21680fa6988709b47bed10c4a814ac38080882e408ac2eb4c000000006a47304402200bd22580f74281e6c0a5a9fe5adce6d857c9469671b8fef37f95a3e0e27a182c02207b6a79093eaff542baa1a43414e3bed43f51d68a2bb6f90cf84ac75338158b00012102e95dc84ad28d7a267567f0b3095240e28d477d6f1632a311d256a603daab1cc8ffffffff02fbb30400000000001976a914f75665197c51ee869def456cd69a0dfff8126e6588ac20402c000000000017a9145873e16356c514967055c61a1a727ecb41649b758700000000", "vin": [{"sequence": 4294967295, "scriptSig": {"hex": "47304402200bd22580f74281e6c0a5a9fe5adce6d857c9469671b8fef37f95a3e0e27a182c02207b6a79093eaff542baa1a43414e3bed43f51d68a2bb6f90cf84ac75338158b00012102e95dc84ad28d7a267567f0b3095240e28d477d6f1632a311d256a603daab1cc8", "asm": "304402200bd22580f74281e6c0a5a9fe5adce6d857c9469671b8fef37f95a3e0e27a182c02207b6a79093eaff542baa1a43414e3bed43f51d68a2bb6f90cf84ac75338158b00[ALL] 02e95dc84ad28d7a267567f0b3095240e28d477d6f1632a311d256a603daab1cc8"}, "vout": 0, "txid": "4cebc28a402e888080c34a814a0cd1be479b708869fa8016f2834e91871195d2"}], "txid": "c26edf8cd84e0b35c02e4e2945f4383102492e1e1320969eeee9fdeb28ffcbf4", "blocktime": 1537876114, "version": 1, "confirmations": 11460, "time": 1537876114, "locktime": 0, "vsize": 223, "size": 223}