{"hash": "c270f28d46686153c7de436269096b4f61860d0f3ee7f6210476a3195cdd1036", "blockhash": "0000000000000000000baef3f32e3676a92c3b2e5da21b426e4f302fc371ce76", "vout": [{"scriptPubKey": {"reqSigs": 1, "hex": "a914f2621d837780f0aa5e026530c22550a53a02487487", "addresses": ["3Pncz8s4dZEzCXAVkxfY3UEHteFFoamyMv"], "asm": "OP_HASH160 f2621d837780f0aa5e026530c22550a53a024874 OP_EQUAL", "type": "scripthash"}, "value": 0.11822913, "n": 0}], "hex": "0100000011f1502b0f5ff9892b46e2dbba3916139689573915304713a3d28f43d6618479a0520600006b483045022100b3cb0b2d5877581805059a180250d9304d269c0773d537946b93b3ec66d8a988022012c04737bfe1423509c336c3f595ffdee5b8b9ab3ce079757f996f2debce01d201210339d091f122a634173e6edde1cf759b0369443c97d1c7370217df888eb6fa2291fffffffffbe0eff6f0ac1849595ca23cd52b01f383deeea7b15414b2f5b3e169331283630e0500006a473044022048f5159faa88aabfb4821f95fc9600b2f27a588a276b107b481019f7c2510c50022075b251e31a72dbf95a6e8fb2bef926144564b18edc054d1c5c2e43e6dab6ee6b01210339d091f122a634173e6edde1cf759b0369443c97d1c7370217df888eb6fa2291ffffffffa1599414cb39978c01afe7af8e4f14ba64897aacafafa07e31cd179b43937186740600006a47304402205dccd9525c695dbad159652a4cf39197b75e2bc0c3164ecf9f54bfed9c168b3102201105f4ae37e32be5c3086d0938bb8d53e1810dedb4f1d5b0a0b82837f8b8fab901210339d091f122a634173e6edde1cf759b0369443c97d1c7370217df888eb6fa2291ffffffffc02079ab3b7ff94a0a1c1e2fa170f2785e1be7256973ee3e179048d09f4663f23b0600006a473044022059b2abd63c60efc47edd853bc6c4357c59c2514c4a197f9754a21131f01f5dba02207d404540eccdfc71dcb7d1719d7d2c475c48ef5179af1d7440cef6ed4f14b2d001210339d091f122a634173e6edde1cf759b0369443c97d1c7370217df888eb6fa2291ffffffff6c05c61f3f7796cb87d2dfd9b703bd2bf0a7d4b5f1f6461690124a4a690e4511530500006a473044022071a81e25eab934eb3f462214e5730672ba372cb80582f96304a08c1b77f7cc0a02201dfc505736ae4f1f74d350bea4d9b041f2d2aca6b1ff914723850010533e740901210339d091f122a634173e6edde1cf759b0369443c97d1c7370217df888eb6fa2291ffffffff3b6c963ddf73322bf6010253d3c3e148d47090338a0b1c6f7e63884fab935df4b20400006b483045022100b1aff15f7ffc3b67f2d1a723ea90ceee6e98de6891d031e0bcd546a598319325022010af4087810eef7faf0633257eb00e21bad50f5d33350bdd85a5b4eaa7d547b701210339d091f122a634173e6edde1cf759b0369443c97d1c7370217df888eb6fa2291fffffffffa5ddbec35087f708b84ac28d4cbc8985e2d25b87d7ddc46903e52362a38ac22720400006b483045022100fbed5aef4b692447b6e736a35ab96a243b06a1118d4b9961001b382c44594d400220124adedd1c88267fa886a069436c6699609766b0c37c1e735c554399c84b29a201210339d091f122a634173e6edde1cf759b0369443c97d1c7370217df888eb6fa2291ffffffffd0c57c59302aac976bbedf68d654bf95a291c23e62ca6458e953422364f235d9660400006a4730440220384e6595d8bcc76d75f477ecde85b4d5a01a2f1ebe0aaf7dbb38e5592cec633d02201bcf81b893eb5c3eee580e3567360c635ef6e0c718cadd2397cca16ec35d58b301210339d091f122a634173e6edde1cf759b0369443c97d1c7370217df888eb6fa2291ffffffff153c7647f52b98c614cbd629777eab807239470b44dcfb3e165cbbfe916b5ceb830400006a473044022022f3b209d56ec1b5d0b6329cc4095b9acf853a6967122c011c10ed4addc293100220734acfc6de12a27f764ac14116b2b1284a384808907ef9ad8672fecb78d199fb01210339d091f122a634173e6edde1cf759b0369443c97d1c7370217df888eb6fa2291ffffffffef68efaf9a52795ada8428fad182ff72ccf7ccd78306438e3a1491cbb4c7bbcf9e0400006b483045022100efc51850e8764c3a48a24b4801bad2e6166b5f423424d8279612e109edd7d48a02206f5c2ab093e0ec9c5cbdf211a98c2ac7bdec5456e6c4385025b5ad24e24967d901210339d091f122a634173e6edde1cf759b0369443c97d1c7370217df888eb6fa2291ffffffffca5d607b4d1da3bb5a6b6bce3d3d2d705e4db31b10d14ec86d5d6701310102678b0400006a47304402202aaa4e40d3549cfefa63643b413c425f31e4478bb9ed30455b79cdb9f14dd0e202205c97c903ada96c368d3ef8b1777f7dbceb1072be1378d91e2e120e7fde58c41101210339d091f122a634173e6edde1cf759b0369443c97d1c7370217df888eb6fa2291ffffffffa0d4fb8ca00c8da073770607cd1254d1a132374a9d8bd40793c272322d47b016b70400006a4730440220025b419936109e10f9c11554c9e90b3f9177704a6752269ec3829f40481868a90220362d5ae5012039f30139b1253b21a28ce03b11f3bd4eea15cc965329511657ce01210339d091f122a634173e6edde1cf759b0369443c97d1c7370217df888eb6fa2291ffffffff559627f2e1a4dbbb989e8630d75c146a5762672fb402238e573b2e3a08740aae500400006b483045022100afa5618675bdbbe8a15977a680d39bff68b4f48c75f64012036cd2db5718cd5002205338894bfd162bff6f4a123ccddb97e0cb01030a3edf9404e21cbb5743c9f4dd01210339d091f122a634173e6edde1cf759b0369443c97d1c7370217df888eb6fa2291ffffffff056e3645bb90ed8ac8b963eeeb5d6a837365357fdf91ce41699f5d873538cc70730300006b483045022100947f25b1777a6b41f59bd2e0e34eab342ac5d3373ed832f25d4155ef793e6e0902200c7f89b8dcdf6be9ee277b197f1cc9c26c3474af2f0168ca4a2b5c60e747d03b01210339d091f122a634173e6edde1cf759b0369443c97d1c7370217df888eb6fa2291ffffffff6c258d19c1b2918dc88bcb03aa499547f25ed2dafd453299b888920fbbc553a5d70400006a4730440220363c6532816d6c4d95aa53498080623572a28167cabce77737f800b8df79d92e02201a72c68f7ec29ebd6ebee6b52d26ce6ed0231c9aa3371e5bbca8b04c94a46c3b01210339d091f122a634173e6edde1cf759b0369443c97d1c7370217df888eb6fa2291ffffffff7be6f26be52a76d0a3bcde29af830c1327423c938b352c56e9f8a5473776e3b1f10400006b483045022100880da31eb16b944dae8daa1588c40ab5d8606ad57a6fcbea231161d2e8052dc6022062b9d341313a454fea6ca4bc294016ee8e547ee685bdd2c08af8eb3729e95b4f01210339d091f122a634173e6edde1cf759b0369443c97d1c7370217df888eb6fa2291ffffffff1ca673b1ba1dd2de513cf47b41da20d66c18dc7fe6b3c30e23d955e1c428bcd6aa0400006a47304402204b0ae7523d7a69413ee679b40ce05cebadb466a00f2c96862cae6fd71c8cfbd50220461f35413ec14c9988dbd76a85af2c3d899f03f8b4577b9857c3872644209aa601210339d091f122a634173e6edde1cf759b0369443c97d1c7370217df888eb6fa2291ffffffff014167b4000000000017a914f2621d837780f0aa5e026530c22550a53a0248748700000000", "vin": [{"sequence": 4294967295, "scriptSig": {"hex": "483045022100b3cb0b2d5877581805059a180250d9304d269c0773d537946b93b3ec66d8a988022012c04737bfe1423509c336c3f595ffdee5b8b9ab3ce079757f996f2debce01d201210339d091f122a634173e6edde1cf759b0369443c97d1c7370217df888eb6fa2291", "asm": "3045022100b3cb0b2d5877581805059a180250d9304d269c0773d537946b93b3ec66d8a988022012c04737bfe1423509c336c3f595ffdee5b8b9ab3ce079757f996f2debce01d2[ALL] 0339d091f122a634173e6edde1cf759b0369443c97d1c7370217df888eb6fa2291"}, "vout": 1618, "txid": "a0798461d6438fd2a31347301539578996131639badbe2462b89f95f0f2b50f1"}, {"sequence": 4294967295, "scriptSig": {"hex": "473044022048f5159faa88aabfb4821f95fc9600b2f27a588a276b107b481019f7c2510c50022075b251e31a72dbf95a6e8fb2bef926144564b18edc054d1c5c2e43e6dab6ee6b01210339d091f122a634173e6edde1cf759b0369443c97d1c7370217df888eb6fa2291", "asm": "3044022048f5159faa88aabfb4821f95fc9600b2f27a588a276b107b481019f7c2510c50022075b251e31a72dbf95a6e8fb2bef926144564b18edc054d1c5c2e43e6dab6ee6b[ALL] 0339d091f122a634173e6edde1cf759b0369443c97d1c7370217df888eb6fa2291"}, "vout": 1294, "txid": "6383123369e1b3f5b21454b1a7eede83f3012bd53ca25c594918acf0f6efe0fb"}, {"sequence": 4294967295, "scriptSig": {"hex": "47304402205dccd9525c695dbad159652a4cf39197b75e2bc0c3164ecf9f54bfed9c168b3102201105f4ae37e32be5c3086d0938bb8d53e1810dedb4f1d5b0a0b82837f8b8fab901210339d091f122a634173e6edde1cf759b0369443c97d1c7370217df888eb6fa2291", "asm": "304402205dccd9525c695dbad159652a4cf39197b75e2bc0c3164ecf9f54bfed9c168b3102201105f4ae37e32be5c3086d0938bb8d53e1810dedb4f1d5b0a0b82837f8b8fab9[ALL] 0339d091f122a634173e6edde1cf759b0369443c97d1c7370217df888eb6fa2291"}, "vout": 1652, "txid": "867193439b17cd317ea0afafac7a8964ba144f8eafe7af018c9739cb149459a1"}, {"sequence": 4294967295, "scriptSig": {"hex": "473044022059b2abd63c60efc47edd853bc6c4357c59c2514c4a197f9754a21131f01f5dba02207d404540eccdfc71dcb7d1719d7d2c475c48ef5179af1d7440cef6ed4f14b2d001210339d091f122a634173e6edde1cf759b0369443c97d1c7370217df888eb6fa2291", "asm": "3044022059b2abd63c60efc47edd853bc6c4357c59c2514c4a197f9754a21131f01f5dba02207d404540eccdfc71dcb7d1719d7d2c475c48ef5179af1d7440cef6ed4f14b2d0[ALL] 0339d091f122a634173e6edde1cf759b0369443c97d1c7370217df888eb6fa2291"}, "vout": 1595, "txid": "f263469fd04890173eee736925e71b5e78f270a12f1e1c0a4af97f3bab7920c0"}, {"sequence": 4294967295, "scriptSig": {"hex": "473044022071a81e25eab934eb3f462214e5730672ba372cb80582f96304a08c1b77f7cc0a02201dfc505736ae4f1f74d350bea4d9b041f2d2aca6b1ff914723850010533e740901210339d091f122a634173e6edde1cf759b0369443c97d1c7370217df888eb6fa2291", "asm": "3044022071a81e25eab934eb3f462214e5730672ba372cb80582f96304a08c1b77f7cc0a02201dfc505736ae4f1f74d350bea4d9b041f2d2aca6b1ff914723850010533e7409[ALL] 0339d091f122a634173e6edde1cf759b0369443c97d1c7370217df888eb6fa2291"}, "vout": 1363, "txid": "11450e694a4a12901646f6f1b5d4a7f02bbd03b7d9dfd287cb96773f1fc6056c"}, {"sequence": 4294967295, "scriptSig": {"hex": "483045022100b1aff15f7ffc3b67f2d1a723ea90ceee6e98de6891d031e0bcd546a598319325022010af4087810eef7faf0633257eb00e21bad50f5d33350bdd85a5b4eaa7d547b701210339d091f122a634173e6edde1cf759b0369443c97d1c7370217df888eb6fa2291", "asm": "3045022100b1aff15f7ffc3b67f2d1a723ea90ceee6e98de6891d031e0bcd546a598319325022010af4087810eef7faf0633257eb00e21bad50f5d33350bdd85a5b4eaa7d547b7[ALL] 0339d091f122a634173e6edde1cf759b0369443c97d1c7370217df888eb6fa2291"}, "vout": 1202, "txid": "f45d93ab4f88637e6f1c0b8a339070d448e1c3d3530201f62b3273df3d966c3b"}, {"sequence": 4294967295, "scriptSig": {"hex": "483045022100fbed5aef4b692447b6e736a35ab96a243b06a1118d4b9961001b382c44594d400220124adedd1c88267fa886a069436c6699609766b0c37c1e735c554399c84b29a201210339d091f122a634173e6edde1cf759b0369443c97d1c7370217df888eb6fa2291", "asm": "3045022100fbed5aef4b692447b6e736a35ab96a243b06a1118d4b9961001b382c44594d400220124adedd1c88267fa886a069436c6699609766b0c37c1e735c554399c84b29a2[ALL] 0339d091f122a634173e6edde1cf759b0369443c97d1c7370217df888eb6fa2291"}, "vout": 1138, "txid": "22ac382a36523e9046dc7d7db8252d5e98c8cbd428ac848b707f0835ecdb5dfa"}, {"sequence": 4294967295, "scriptSig": {"hex": "4730440220384e6595d8bcc76d75f477ecde85b4d5a01a2f1ebe0aaf7dbb38e5592cec633d02201bcf81b893eb5c3eee580e3567360c635ef6e0c718cadd2397cca16ec35d58b301210339d091f122a634173e6edde1cf759b0369443c97d1c7370217df888eb6fa2291", "asm": "30440220384e6595d8bcc76d75f477ecde85b4d5a01a2f1ebe0aaf7dbb38e5592cec633d02201bcf81b893eb5c3eee580e3567360c635ef6e0c718cadd2397cca16ec35d58b3[ALL] 0339d091f122a634173e6edde1cf759b0369443c97d1c7370217df888eb6fa2291"}, "vout": 1126, "txid": "d935f264234253e95864ca623ec291a295bf54d668dfbe6b97ac2a30597cc5d0"}, {"sequence": 4294967295, "scriptSig": {"hex": "473044022022f3b209d56ec1b5d0b6329cc4095b9acf853a6967122c011c10ed4addc293100220734acfc6de12a27f764ac14116b2b1284a384808907ef9ad8672fecb78d199fb01210339d091f122a634173e6edde1cf759b0369443c97d1c7370217df888eb6fa2291", "asm": "3044022022f3b209d56ec1b5d0b6329cc4095b9acf853a6967122c011c10ed4addc293100220734acfc6de12a27f764ac14116b2b1284a384808907ef9ad8672fecb78d199fb[ALL] 0339d091f122a634173e6edde1cf759b0369443c97d1c7370217df888eb6fa2291"}, "vout": 1155, "txid": "eb5c6b91febb5c163efbdc440b47397280ab7e7729d6cb14c6982bf547763c15"}, {"sequence": 4294967295, "scriptSig": {"hex": "483045022100efc51850e8764c3a48a24b4801bad2e6166b5f423424d8279612e109edd7d48a02206f5c2ab093e0ec9c5cbdf211a98c2ac7bdec5456e6c4385025b5ad24e24967d901210339d091f122a634173e6edde1cf759b0369443c97d1c7370217df888eb6fa2291", "asm": "3045022100efc51850e8764c3a48a24b4801bad2e6166b5f423424d8279612e109edd7d48a02206f5c2ab093e0ec9c5cbdf211a98c2ac7bdec5456e6c4385025b5ad24e24967d9[ALL] 0339d091f122a634173e6edde1cf759b0369443c97d1c7370217df888eb6fa2291"}, "vout": 1182, "txid": "cfbbc7b4cb91143a8e430683d7ccf7cc72ff82d1fa2884da5a79529aafef68ef"}, {"sequence": 4294967295, "scriptSig": {"hex": "47304402202aaa4e40d3549cfefa63643b413c425f31e4478bb9ed30455b79cdb9f14dd0e202205c97c903ada96c368d3ef8b1777f7dbceb1072be1378d91e2e120e7fde58c41101210339d091f122a634173e6edde1cf759b0369443c97d1c7370217df888eb6fa2291", "asm": "304402202aaa4e40d3549cfefa63643b413c425f31e4478bb9ed30455b79cdb9f14dd0e202205c97c903ada96c368d3ef8b1777f7dbceb1072be1378d91e2e120e7fde58c411[ALL] 0339d091f122a634173e6edde1cf759b0369443c97d1c7370217df888eb6fa2291"}, "vout": 1163, "txid": "6702013101675d6dc84ed1101bb34d5e702d3d3dce6b6b5abba31d4d7b605dca"}, {"sequence": 4294967295, "scriptSig": {"hex": "4730440220025b419936109e10f9c11554c9e90b3f9177704a6752269ec3829f40481868a90220362d5ae5012039f30139b1253b21a28ce03b11f3bd4eea15cc965329511657ce01210339d091f122a634173e6edde1cf759b0369443c97d1c7370217df888eb6fa2291", "asm": "30440220025b419936109e10f9c11554c9e90b3f9177704a6752269ec3829f40481868a90220362d5ae5012039f30139b1253b21a28ce03b11f3bd4eea15cc965329511657ce[ALL] 0339d091f122a634173e6edde1cf759b0369443c97d1c7370217df888eb6fa2291"}, "vout": 1207, "txid": "16b0472d3272c29307d48b9d4a3732a1d15412cd07067773a08d0ca08cfbd4a0"}, {"sequence": 4294967295, "scriptSig": {"hex": "483045022100afa5618675bdbbe8a15977a680d39bff68b4f48c75f64012036cd2db5718cd5002205338894bfd162bff6f4a123ccddb97e0cb01030a3edf9404e21cbb5743c9f4dd01210339d091f122a634173e6edde1cf759b0369443c97d1c7370217df888eb6fa2291", "asm": "3045022100afa5618675bdbbe8a15977a680d39bff68b4f48c75f64012036cd2db5718cd5002205338894bfd162bff6f4a123ccddb97e0cb01030a3edf9404e21cbb5743c9f4dd[ALL] 0339d091f122a634173e6edde1cf759b0369443c97d1c7370217df888eb6fa2291"}, "vout": 1104, "txid": "ae0a74083a2e3b578e2302b42f6762576a145cd730869e98bbdba4e1f2279655"}, {"sequence": 4294967295, "scriptSig": {"hex": "483045022100947f25b1777a6b41f59bd2e0e34eab342ac5d3373ed832f25d4155ef793e6e0902200c7f89b8dcdf6be9ee277b197f1cc9c26c3474af2f0168ca4a2b5c60e747d03b01210339d091f122a634173e6edde1cf759b0369443c97d1c7370217df888eb6fa2291", "asm": "3045022100947f25b1777a6b41f59bd2e0e34eab342ac5d3373ed832f25d4155ef793e6e0902200c7f89b8dcdf6be9ee277b197f1cc9c26c3474af2f0168ca4a2b5c60e747d03b[ALL] 0339d091f122a634173e6edde1cf759b0369443c97d1c7370217df888eb6fa2291"}, "vout": 883, "txid": "70cc3835875d9f6941ce91df7f356573836a5debee63b9c88aed90bb45366e05"}, {"sequence": 4294967295, "scriptSig": {"hex": "4730440220363c6532816d6c4d95aa53498080623572a28167cabce77737f800b8df79d92e02201a72c68f7ec29ebd6ebee6b52d26ce6ed0231c9aa3371e5bbca8b04c94a46c3b01210339d091f122a634173e6edde1cf759b0369443c97d1c7370217df888eb6fa2291", "asm": "30440220363c6532816d6c4d95aa53498080623572a28167cabce77737f800b8df79d92e02201a72c68f7ec29ebd6ebee6b52d26ce6ed0231c9aa3371e5bbca8b04c94a46c3b[ALL] 0339d091f122a634173e6edde1cf759b0369443c97d1c7370217df888eb6fa2291"}, "vout": 1239, "txid": "a553c5bb0f9288b8993245fddad25ef2479549aa03cb8bc88d91b2c1198d256c"}, {"sequence": 4294967295, "scriptSig": {"hex": "483045022100880da31eb16b944dae8daa1588c40ab5d8606ad57a6fcbea231161d2e8052dc6022062b9d341313a454fea6ca4bc294016ee8e547ee685bdd2c08af8eb3729e95b4f01210339d091f122a634173e6edde1cf759b0369443c97d1c7370217df888eb6fa2291", "asm": "3045022100880da31eb16b944dae8daa1588c40ab5d8606ad57a6fcbea231161d2e8052dc6022062b9d341313a454fea6ca4bc294016ee8e547ee685bdd2c08af8eb3729e95b4f[ALL] 0339d091f122a634173e6edde1cf759b0369443c97d1c7370217df888eb6fa2291"}, "vout": 1265, "txid": "b1e3763747a5f8e9562c358b933c4227130c83af29debca3d0762ae56bf2e67b"}, {"sequence": 4294967295, "scriptSig": {"hex": "47304402204b0ae7523d7a69413ee679b40ce05cebadb466a00f2c96862cae6fd71c8cfbd50220461f35413ec14c9988dbd76a85af2c3d899f03f8b4577b9857c3872644209aa601210339d091f122a634173e6edde1cf759b0369443c97d1c7370217df888eb6fa2291", "asm": "304402204b0ae7523d7a69413ee679b40ce05cebadb466a00f2c96862cae6fd71c8cfbd50220461f35413ec14c9988dbd76a85af2c3d899f03f8b4577b9857c3872644209aa6[ALL] 0339d091f122a634173e6edde1cf759b0369443c97d1c7370217df888eb6fa2291"}, "vout": 1194, "txid": "d6bc28c4e155d9230ec3b3e67fdc186cd620da417bf43c51ded21dbab173a61c"}], "txid": "c270f28d46686153c7de436269096b4f61860d0f3ee7f6210476a3195cdd1036", "blocktime": 1537876114, "version": 1, "confirmations": 11459, "time": 1537876114, "locktime": 0, "vsize": 2548, "size": 2548}