{"hash": "c276b75622c4747aa4aad322afa28cdadf6e5a2ccd0805e7f9fa39855a092b9d", "blockhash": "0000000000000000001e0dab787dd257d1dbfcb92a98c2207d5e1078be1f4165", "vout": [{"scriptPubKey": {"reqSigs": 1, "hex": "76a9145f47ca528f408254b2519611a6a135915f10078388ac", "addresses": ["19goCJa3kxUb59gwgxGfFE6Rn2jskkqyxu"], "asm": "OP_DUP OP_HASH160 5f47ca528f408254b2519611a6a135915f100783 OP_EQUALVERIFY OP_CHECKSIG", "type": "pubkeyhash"}, "value": 0.01969659, "n": 0}], "hex": "0100000001735b9c0d7a2e50d2e47bf396752177c4b1df5810f9ed240044c514d2d8129a1100000000fc0047304402206369323a9503a92c4a3be510794964e1f79f31b9ad276e1cace67e59e22a9c7a0220390124e1b88ef48bc5a1683c84c5d365f7805ecc52e7b7b6d92bb0357db5736601473044022044c4849e47e9e1665910e3734da4c136c71289837d6a0c3d8fbb63aa00953e2d022048fdd36536e10d0e54afc07eed1412f4fe868dc76d0df5542695f96cde6e5cc5014c6952210227d95038e4b423a3378b9aaa99a4fbce4095f939bc229ec85381e52e67597ff62102dc5243ecfbc6e7be827bdbff4ddd077631f7172aa610b2bac3a781a6de7dd8772103bd0232155865e27e7a4a5df3fcaf8f918387efcd0cdcb7d94224aaf58f9ce00153aefdffffff01fb0d1e00000000001976a9145f47ca528f408254b2519611a6a135915f10078388ac12490800", "vin": [{"sequence": 4294967293, "scriptSig": {"hex": "0047304402206369323a9503a92c4a3be510794964e1f79f31b9ad276e1cace67e59e22a9c7a0220390124e1b88ef48bc5a1683c84c5d365f7805ecc52e7b7b6d92bb0357db5736601473044022044c4849e47e9e1665910e3734da4c136c71289837d6a0c3d8fbb63aa00953e2d022048fdd36536e10d0e54afc07eed1412f4fe868dc76d0df5542695f96cde6e5cc5014c6952210227d95038e4b423a3378b9aaa99a4fbce4095f939bc229ec85381e52e67597ff62102dc5243ecfbc6e7be827bdbff4ddd077631f7172aa610b2bac3a781a6de7dd8772103bd0232155865e27e7a4a5df3fcaf8f918387efcd0cdcb7d94224aaf58f9ce00153ae", "asm": "0 304402206369323a9503a92c4a3be510794964e1f79f31b9ad276e1cace67e59e22a9c7a0220390124e1b88ef48bc5a1683c84c5d365f7805ecc52e7b7b6d92bb0357db57366[ALL] 3044022044c4849e47e9e1665910e3734da4c136c71289837d6a0c3d8fbb63aa00953e2d022048fdd36536e10d0e54afc07eed1412f4fe868dc76d0df5542695f96cde6e5cc5[ALL] 52210227d95038e4b423a3378b9aaa99a4fbce4095f939bc229ec85381e52e67597ff62102dc5243ecfbc6e7be827bdbff4ddd077631f7172aa610b2bac3a781a6de7dd8772103bd0232155865e27e7a4a5df3fcaf8f918387efcd0cdcb7d94224aaf58f9ce00153ae"}, "vout": 0, "txid": "119a12d8d214c5440024edf91058dfb1c477217596f37be4d2502e7a0d9c5b73"}], "txid": "c276b75622c4747aa4aad322afa28cdadf6e5a2ccd0805e7f9fa39855a092b9d", "blocktime": 1537872475, "version": 1, "confirmations": 11487, "time": 1537872475, "locktime": 542994, "vsize": 337, "size": 337}