{"hash": "c27de8c143fe5afbae6903c383eedcd0adfbd39d21fcd8710a6842376fb2b866", "blockhash": "0000000000000000001cda96e906b7601b7a6fb1a3b62bca570a9e5d8f4b3de1", "vout": [{"scriptPubKey": {"reqSigs": 1, "hex": "a91489eb0ce5275a06f542949b1676c736bbf859598387", "addresses": ["3EGG5QmguLru3xqNYezh6v79zWzTfKqizm"], "asm": "OP_HASH160 89eb0ce5275a06f542949b1676c736bbf8595983 OP_EQUAL", "type": "scripthash"}, "value": 7.5e-06, "n": 0}], "hex": "0100000001ddea3136da67d7e7617c482728401dc673ec053afd3c9ae35f1825be4970cf27000000006a473044022053ababd21040882e54f6a261b1d51e2ef6b8670976d496d1f1d8d6575fa1ab8a022021e8d75655b545c20521901eb65ec7e297157de6c93f1b98cf93c045571c82ee012102108103f2833810f81a8a967a96cdb46512bfce8337c1222e175a0287a81106ccfdffffff01ee0200000000000017a91489eb0ce5275a06f542949b1676c736bbf85959838713490800", "vin": [{"sequence": 4294967293, "scriptSig": {"hex": "473044022053ababd21040882e54f6a261b1d51e2ef6b8670976d496d1f1d8d6575fa1ab8a022021e8d75655b545c20521901eb65ec7e297157de6c93f1b98cf93c045571c82ee012102108103f2833810f81a8a967a96cdb46512bfce8337c1222e175a0287a81106cc", "asm": "3044022053ababd21040882e54f6a261b1d51e2ef6b8670976d496d1f1d8d6575fa1ab8a022021e8d75655b545c20521901eb65ec7e297157de6c93f1b98cf93c045571c82ee[ALL] 02108103f2833810f81a8a967a96cdb46512bfce8337c1222e175a0287a81106cc"}, "vout": 0, "txid": "27cf7049be25185fe39a3cfd3a05ec73c61d402827487c61e7d767da3631eadd"}], "txid": "c27de8c143fe5afbae6903c383eedcd0adfbd39d21fcd8710a6842376fb2b866", "blocktime": 1537873282, "version": 1, "confirmations": 11481, "time": 1537873282, "locktime": 542995, "vsize": 189, "size": 189}