{"hash": "c2807be9a9a43bbb52555480dcc860eb82dca78bd4153819bcba5ca34ae6a5f7", "blockhash": "0000000000000000001cda96e906b7601b7a6fb1a3b62bca570a9e5d8f4b3de1", "vout": [{"scriptPubKey": {"reqSigs": 1, "hex": "a914814ca64830bb231bd48f0d4bed0c49eefc2cf1da87", "addresses": ["3DUguzZS3G3MXFq4BdkoQTur97UKcNjKnQ"], "asm": "OP_HASH160 814ca64830bb231bd48f0d4bed0c49eefc2cf1da OP_EQUAL", "type": "scripthash"}, "value": 0.02927811, "n": 0}, {"scriptPubKey": {"reqSigs": 1, "hex": "a914b75b36fb8da539eb5de9ee8b6d6f60bb7b03f44087", "addresses": ["3JQWrMyZVUQbrAtHvCh391uSTX2v7miJK7"], "asm": "OP_HASH160 b75b36fb8da539eb5de9ee8b6d6f60bb7b03f440 OP_EQUAL", "type": "scripthash"}, "value": 0.09950214, "n": 1}, {"scriptPubKey": {"reqSigs": 1, "hex": "a914d6ab2429bb687efd45467fa974df0214703af6e987", "addresses": ["3MG5YhV1Ncn1kAED98EjUnFgrusdBLeUVU"], "asm": "OP_HASH160 d6ab2429bb687efd45467fa974df0214703af6e9 OP_EQUAL", "type": "scripthash"}, "value": 0.02346544, "n": 2}, {"scriptPubKey": {"reqSigs": 1, "hex": "a914700a12ebf863947957da51ea9040bac8bb06fbd087", "addresses": ["3BuRfybFWxvXP22f5PVHE9hHrGuqbJNeew"], "asm": "OP_HASH160 700a12ebf863947957da51ea9040bac8bb06fbd0 OP_EQUAL", "type": "scripthash"}, "value": 0.02400251, "n": 3}, {"scriptPubKey": {"reqSigs": 1, "hex": "76a914e951a5725484ac7ef769b6fe140d4ad2bc68513688ac", "addresses": ["1NGgFabNMFpjhGVw9Ax7PpBXMx7f4Pv1vG"], "asm": "OP_DUP OP_HASH160 e951a5725484ac7ef769b6fe140d4ad2bc685136 OP_EQUALVERIFY OP_CHECKSIG", "type": "pubkeyhash"}, "value": 0.001557, "n": 4}, {"scriptPubKey": {"reqSigs": 1, "hex": "a91469f3743c13df0498b2617c556d379f8a982509ce87", "addresses": ["3BMEXAmpvETyScds7W94YJsWmzEqahup43"], "asm": "OP_HASH160 69f3743c13df0498b2617c556d379f8a982509ce OP_EQUAL", "type": "scripthash"}, "value": 0.11260456, "n": 5}, {"scriptPubKey": {"reqSigs": 1, "hex": "76a9145c9033ce7a7bd17c5e666a1f334ed4691267751188ac", "addresses": ["19SRv1GikEQ1wBHdMvzdtSFtjFEm12wye4"], "asm": "OP_DUP OP_HASH160 5c9033ce7a7bd17c5e666a1f334ed46912677511 OP_EQUALVERIFY OP_CHECKSIG", "type": "pubkeyhash"}, "value": 0.00657404, "n": 6}, {"scriptPubKey": {"reqSigs": 1, "hex": "76a914741c617c73ff9adb73686ee3c6847dd5b29c337d88ac", "addresses": ["1BawPBkB7XYb5evqRCrwB4jJu8rp9iYgep"], "asm": "OP_DUP OP_HASH160 741c617c73ff9adb73686ee3c6847dd5b29c337d OP_EQUALVERIFY OP_CHECKSIG", "type": "pubkeyhash"}, "value": 0.2995, "n": 7}, {"scriptPubKey": {"reqSigs": 1, "hex": "a91469f37417aacf360ab99507b50f135c5edaf9df6e87", "addresses": ["3BMEX8Xy9jJF62AzqLa4dJx1eGCbevAUwr"], "asm": "OP_HASH160 69f37417aacf360ab99507b50f135c5edaf9df6e OP_EQUAL", "type": "scripthash"}, "value": 0.07680849, "n": 8}, {"scriptPubKey": {"reqSigs": 1, "hex": "a91466b9bcc5a56f913b0a9bdb8bc5b8b72cae3fd6a087", "addresses": ["3B4BMNT1RuFjEYgTggtvBz2fRMPr25EV42"], "asm": "OP_HASH160 66b9bcc5a56f913b0a9bdb8bc5b8b72cae3fd6a0 OP_EQUAL", "type": "scripthash"}, "value": 0.04878551, "n": 9}, {"scriptPubKey": {"reqSigs": 1, "hex": "76a914d8430d0be6175a8ccec8c03c7298a02f6057900188ac", "addresses": ["1LiVHDe9r9FWmC7GpeY95RKnH8sMoJnvjy"], "asm": "OP_DUP OP_HASH160 d8430d0be6175a8ccec8c03c7298a02f60579001 OP_EQUALVERIFY OP_CHECKSIG", "type": "pubkeyhash"}, "value": 0.00918494, "n": 10}, {"scriptPubKey": {"reqSigs": 1, "hex": "a914e83b62314cfbd855e5c7ae0bffca6096e426019787", "addresses": ["3Nrwq6DnqwG5JKiMk39vAjAi5og7y56GXi"], "asm": "OP_HASH160 e83b62314cfbd855e5c7ae0bffca6096e4260197 OP_EQUAL", "type": "scripthash"}, "value": 0.59142588, "n": 11}, {"scriptPubKey": {"reqSigs": 1, "hex": "a91469f373ab8bb9a6067f1f91d35d4278dd9382479687", "addresses": ["3BMEX1tMQwyhgmTz9MpJSzKqyh8wL4VEjC"], "asm": "OP_HASH160 69f373ab8bb9a6067f1f91d35d4278dd93824796 OP_EQUAL", "type": "scripthash"}, "value": 0.23697744, "n": 12}, {"scriptPubKey": {"reqSigs": 1, "hex": "76a914231635dcc4ad86d62aa6dea70a6684dd7380acbd88ac", "addresses": ["14CXFvLtNCovL8sVzS96dwsNzQbfmkETXV"], "asm": "OP_DUP OP_HASH160 231635dcc4ad86d62aa6dea70a6684dd7380acbd OP_EQUALVERIFY OP_CHECKSIG", "type": "pubkeyhash"}, "value": 0.3, "n": 13}, {"scriptPubKey": {"reqSigs": 1, "hex": "76a9142cbed43580720a986bfa9bfc36d0c47874e2ac8f88ac", "addresses": ["155bLU8nWTQ5jtqc3ciQYbsmxq5MuS9eXc"], "asm": "OP_DUP OP_HASH160 2cbed43580720a986bfa9bfc36d0c47874e2ac8f OP_EQUALVERIFY OP_CHECKSIG", "type": "pubkeyhash"}, "value": 0.07846512, "n": 14}, {"scriptPubKey": {"reqSigs": 1, "hex": "a914eae9746cca99ff5788d7aed6d2de2cf44cc8b93e87", "addresses": ["3P77i9wMGnkytodDj6ZnZBnDMBWVKMYRK4"], "asm": "OP_HASH160 eae9746cca99ff5788d7aed6d2de2cf44cc8b93e OP_EQUAL", "type": "scripthash"}, "value": 0.0184, "n": 15}, {"scriptPubKey": {"reqSigs": 1, "hex": "a9142664888a59bfa03596591745409372799552956387", "addresses": ["35C231kKgHWPVrb14Rbqi9MB3fwSoPnLFE"], "asm": "OP_HASH160 2664888a59bfa035965917454093727995529563 OP_EQUAL", "type": "scripthash"}, "value": 0.13986764, "n": 16}, {"scriptPubKey": {"reqSigs": 1, "hex": "a91480727ce40bc300410350067a8bd072482416cf3d87", "addresses": ["3DQBZrTvkhpM15rviwiD5yFBHjynUsdBQk"], "asm": "OP_HASH160 80727ce40bc300410350067a8bd072482416cf3d OP_EQUAL", "type": "scripthash"}, "value": 0.10435824, "n": 17}, {"scriptPubKey": {"reqSigs": 1, "hex": "a91469f375213b7a2d7bfe0ea8433a3005e2f5dc9a0487", "addresses": ["3BMEXQs7K1d1bo8MF3Yz4BkVNTjxec95tQ"], "asm": "OP_HASH160 69f375213b7a2d7bfe0ea8433a3005e2f5dc9a04 OP_EQUAL", "type": "scripthash"}, "value": 0.01450101, "n": 18}, {"scriptPubKey": {"reqSigs": 1, "hex": "a9149fc6ab39beb8b4d512fe8a3579a3c91d5d17ccb787", "addresses": ["3GFqMoGKoeWdAwajEjv3mLcfWqAG19YCbV"], "asm": "OP_HASH160 9fc6ab39beb8b4d512fe8a3579a3c91d5d17ccb7 OP_EQUAL", "type": "scripthash"}, "value": 0.0163006, "n": 19}, {"scriptPubKey": {"reqSigs": 1, "hex": "a914d63cd9a61d49f15242b5aefd01a44ab96d819ed087", "addresses": ["3MDoRYKgNgPNrJSa8xGLHFe59BkrewUPYP"], "asm": "OP_HASH160 d63cd9a61d49f15242b5aefd01a44ab96d819ed0 OP_EQUAL", "type": "scripthash"}, "value": 0.20051078, "n": 20}, {"scriptPubKey": {"reqSigs": 1, "hex": "76a914e71debe251bb26c7e757d9ae265da6e5d00f31b988ac", "addresses": ["1N52wHoVR79PMDishab2XmRHsbekCdGquK"], "asm": "OP_DUP OP_HASH160 e71debe251bb26c7e757d9ae265da6e5d00f31b9 OP_EQUALVERIFY OP_CHECKSIG", "type": "pubkeyhash"}, "value": 0.03693232, "n": 21}], "hex": "01000000010cde4abe54d2ba4bfef548cc8884bfc5002a919ed5959672e6f7f86b47cf7f40040000006a47304402202ff270cdc93eb1733c64dec604b7a30e88fca18a638414ff5358781c5afaf5d102203dafa754ff5eb0fd1a6ab7052ac1cbc92fd9291a82cc665a41c9d033e470e651012102a1b78c3aabec48d8f7939f6190641532f074161e9e46f7c70c2e8a80534ff6c3ffffffff16c3ac2c000000000017a914814ca64830bb231bd48f0d4bed0c49eefc2cf1da8706d497000000000017a914b75b36fb8da539eb5de9ee8b6d6f60bb7b03f4408730ce23000000000017a914d6ab2429bb687efd45467fa974df0214703af6e987fb9f24000000000017a914700a12ebf863947957da51ea9040bac8bb06fbd08734600200000000001976a914e951a5725484ac7ef769b6fe140d4ad2bc68513688ac28d2ab000000000017a91469f3743c13df0498b2617c556d379f8a982509ce87fc070a00000000001976a9145c9033ce7a7bd17c5e666a1f334ed4691267751188ac3000c901000000001976a914741c617c73ff9adb73686ee3c6847dd5b29c337d88ac513375000000000017a91469f37417aacf360ab99507b50f135c5edaf9df6e87d7704a000000000017a91466b9bcc5a56f913b0a9bdb8bc5b8b72cae3fd6a087de030e00000000001976a914d8430d0be6175a8ccec8c03c7298a02f6057900188acbc7186030000000017a914e83b62314cfbd855e5c7ae0bffca6096e426019787509969010000000017a91469f373ab8bb9a6067f1f91d35d4278dd938247968780c3c901000000001976a914231635dcc4ad86d62aa6dea70a6684dd7380acbd88ac70ba7700000000001976a9142cbed43580720a986bfa9bfc36d0c47874e2ac8f88ac80131c000000000017a914eae9746cca99ff5788d7aed6d2de2cf44cc8b93e87cc6bd5000000000017a9142664888a59bfa03596591745409372799552956387f03c9f000000000017a91480727ce40bc300410350067a8bd072482416cf3d87752016000000000017a91469f375213b7a2d7bfe0ea8433a3005e2f5dc9a04876cdf18000000000017a9149fc6ab39beb8b4d512fe8a3579a3c91d5d17ccb78786f431010000000017a914d63cd9a61d49f15242b5aefd01a44ab96d819ed087b05a3800000000001976a914e71debe251bb26c7e757d9ae265da6e5d00f31b988ac00000000", "vin": [{"sequence": 4294967295, "scriptSig": {"hex": "47304402202ff270cdc93eb1733c64dec604b7a30e88fca18a638414ff5358781c5afaf5d102203dafa754ff5eb0fd1a6ab7052ac1cbc92fd9291a82cc665a41c9d033e470e651012102a1b78c3aabec48d8f7939f6190641532f074161e9e46f7c70c2e8a80534ff6c3", "asm": "304402202ff270cdc93eb1733c64dec604b7a30e88fca18a638414ff5358781c5afaf5d102203dafa754ff5eb0fd1a6ab7052ac1cbc92fd9291a82cc665a41c9d033e470e651[ALL] 02a1b78c3aabec48d8f7939f6190641532f074161e9e46f7c70c2e8a80534ff6c3"}, "vout": 4, "txid": "407fcf476bf8f7e6729695d59e912a00c5bf8488cc48f5fe4bbad254be4ade0c"}], "txid": "c2807be9a9a43bbb52555480dcc860eb82dca78bd4153819bcba5ca34ae6a5f7", "blocktime": 1537873282, "version": 1, "confirmations": 11480, "time": 1537873282, "locktime": 0, "vsize": 875, "size": 875}