{"hash": "c2883603e6e26a6f236f9e224fd091b6df79dcfee43ded3d5808e32b7c3b6dd1", "blockhash": "00000000000000000004ffacab907a6b429b9a5745fa0b75af4234bf69dd7176", "vout": [{"scriptPubKey": {"reqSigs": 1, "hex": "a9149bf36535ab61edf9cb425cb1ec88211a4b77cda487", "addresses": ["3FucEgZT1oufbEKH6758AVEvKVjHutQ6PL"], "asm": "OP_HASH160 9bf36535ab61edf9cb425cb1ec88211a4b77cda4 OP_EQUAL", "type": "scripthash"}, "value": 0.00305101, "n": 0}, {"scriptPubKey": {"reqSigs": 1, "hex": "76a914d3bfad9a4a198c1dd5ea6a9da415a805daebcfda88ac", "addresses": ["1LJdCWP41NxAEXg1cgEPPx9JJQEXr1gPk8"], "asm": "OP_DUP OP_HASH160 d3bfad9a4a198c1dd5ea6a9da415a805daebcfda OP_EQUALVERIFY OP_CHECKSIG", "type": "pubkeyhash"}, "value": 0.02848407, "n": 1}], "hex": "0100000001012e7a2380d78ccb98e6cc7255b9e3d800c903596266fed673f502a6175ba79d010000006b483045022100f16d1d3e78dd7486bf32f606a8f8290ac107c0f6145273abcff1086d6e09da4c0220603179dfe629be73e1b17d5c83fdf981f26da6527613669e9a83e49a267700fc012103c374eb47fcdae98194675f83b438200d19ccf41d36c1fb5bba8a6e8fd49c596fffffffff02cda704000000000017a9149bf36535ab61edf9cb425cb1ec88211a4b77cda48797762b00000000001976a914d3bfad9a4a198c1dd5ea6a9da415a805daebcfda88ac00000000", "vin": [{"sequence": 4294967295, "scriptSig": {"hex": "483045022100f16d1d3e78dd7486bf32f606a8f8290ac107c0f6145273abcff1086d6e09da4c0220603179dfe629be73e1b17d5c83fdf981f26da6527613669e9a83e49a267700fc012103c374eb47fcdae98194675f83b438200d19ccf41d36c1fb5bba8a6e8fd49c596f", "asm": "3045022100f16d1d3e78dd7486bf32f606a8f8290ac107c0f6145273abcff1086d6e09da4c0220603179dfe629be73e1b17d5c83fdf981f26da6527613669e9a83e49a267700fc[ALL] 03c374eb47fcdae98194675f83b438200d19ccf41d36c1fb5bba8a6e8fd49c596f"}, "vout": 1, "txid": "9da75b17a602f573d6fe66625903c900d8e3b95572cce698cb8cd780237a2e01"}], "txid": "c2883603e6e26a6f236f9e224fd091b6df79dcfee43ded3d5808e32b7c3b6dd1", "blocktime": 1537875543, "version": 1, "confirmations": 11464, "time": 1537875543, "locktime": 0, "vsize": 224, "size": 224}