{"hash": "c296874c2ad5af3f24a8a13ae388999cb8b21cc96bb795d14aaef6b3d6e0ffad", "blockhash": "0000000000000000000dcc0f55137456b1a82d3642486a52398922ac4d620174", "vout": [{"scriptPubKey": {"reqSigs": 1, "hex": "a9148ec7472df1c1247f8fc267b2514e6c748128324c87", "addresses": ["3Ehxbs7zdEEvzTEeWN2vq8WvjN9FDvqwWj"], "asm": "OP_HASH160 8ec7472df1c1247f8fc267b2514e6c748128324c OP_EQUAL", "type": "scripthash"}, "value": 0.0079457, "n": 0}, {"scriptPubKey": {"reqSigs": 1, "hex": "a9148f5525cfbb86fc2480528acf693b3313f72bbb9f87", "addresses": ["3EktZ9ADMkxTChGknejNbHJNQqfpjNbG8Y"], "asm": "OP_HASH160 8f5525cfbb86fc2480528acf693b3313f72bbb9f OP_EQUAL", "type": "scripthash"}, "value": 0.00024074, "n": 1}], "hex": "01000000013df7faf50a471719ae82892c6b456dcfcdd49e83a75d1040dcb5b0c7cf82dd6c00000000fdfe0000483045022100e422b21de13962b9dcc7bcdc4a79203951c13b846268ef91d079b5ef9147f0d402203d7e0433f900b1b62a6195ce962aed2560c5de9c320d4568a9774a5b16d8f55c01483045022100a6bd0c9fe42d30e3be3244852ce6387830e01399ab8b4026b34fc84a1d79310202201f4716a72807f4b040ed0da21871c3ef283ad3c311dfcd4ffaff862499c4026f014c6952210348c0233828e2a05ade3238666743329755dc6869d704b5a8c2114c6051e728412103a582b1df5482e670c065d3e77817dbe65a619a1c688739987a6ad349b75bec142103919bdab367f4c1e05ccd8b700f89250d627a15e79c535f24377eadb55afd8b8e53aeffffffff02ca1f0c000000000017a9148ec7472df1c1247f8fc267b2514e6c748128324c870a5e00000000000017a9148f5525cfbb86fc2480528acf693b3313f72bbb9f8700000000", "vin": [{"sequence": 4294967295, "scriptSig": {"hex": "00483045022100e422b21de13962b9dcc7bcdc4a79203951c13b846268ef91d079b5ef9147f0d402203d7e0433f900b1b62a6195ce962aed2560c5de9c320d4568a9774a5b16d8f55c01483045022100a6bd0c9fe42d30e3be3244852ce6387830e01399ab8b4026b34fc84a1d79310202201f4716a72807f4b040ed0da21871c3ef283ad3c311dfcd4ffaff862499c4026f014c6952210348c0233828e2a05ade3238666743329755dc6869d704b5a8c2114c6051e728412103a582b1df5482e670c065d3e77817dbe65a619a1c688739987a6ad349b75bec142103919bdab367f4c1e05ccd8b700f89250d627a15e79c535f24377eadb55afd8b8e53ae", "asm": "0 3045022100e422b21de13962b9dcc7bcdc4a79203951c13b846268ef91d079b5ef9147f0d402203d7e0433f900b1b62a6195ce962aed2560c5de9c320d4568a9774a5b16d8f55c[ALL] 3045022100a6bd0c9fe42d30e3be3244852ce6387830e01399ab8b4026b34fc84a1d79310202201f4716a72807f4b040ed0da21871c3ef283ad3c311dfcd4ffaff862499c4026f[ALL] 52210348c0233828e2a05ade3238666743329755dc6869d704b5a8c2114c6051e728412103a582b1df5482e670c065d3e77817dbe65a619a1c688739987a6ad349b75bec142103919bdab367f4c1e05ccd8b700f89250d627a15e79c535f24377eadb55afd8b8e53ae"}, "vout": 0, "txid": "6cdd82cfc7b0b5dc40105da7839ed4cdcf6d456b2c8982ae1917470af5faf73d"}], "txid": "c296874c2ad5af3f24a8a13ae388999cb8b21cc96bb795d14aaef6b3d6e0ffad", "blocktime": 1537870268, "version": 1, "confirmations": 11516, "time": 1537870268, "locktime": 0, "vsize": 371, "size": 371}