{"hash": "c29a9ffff2adc8fab82c275b2f6de75dddc76f333697a1822591df8938aa89b9", "blockhash": "00000000000000000004ffacab907a6b429b9a5745fa0b75af4234bf69dd7176", "vout": [{"scriptPubKey": {"reqSigs": 1, "hex": "76a914df6993e323396061789b127e69228f96df64467488ac", "addresses": ["1MNJASmfcsyZL9eDe7fHswCdwjS9mUu573"], "asm": "OP_DUP OP_HASH160 df6993e323396061789b127e69228f96df644674 OP_EQUALVERIFY OP_CHECKSIG", "type": "pubkeyhash"}, "value": 0.00571874, "n": 0}, {"scriptPubKey": {"reqSigs": 1, "hex": "a914c17a5c3e854cb672fb13dd1254c03f672b85a36c87", "addresses": ["3KL2vK2uewfSkFRFHd7jxtjWQgTLLHKPW7"], "asm": "OP_HASH160 c17a5c3e854cb672fb13dd1254c03f672b85a36c OP_EQUAL", "type": "scripthash"}, "value": 0.015635, "n": 1}], "hex": "0100000002cbe100092884fc0a23a722dc79998a3d6178cd36a1e658a76f3354dec3388a54000000006a4730440220678c7b34d34bb4707b3432ae03101e37ad3b2c49bf88abacb41ecdc967ab9cdf022074dab315adf288f2b9a6ba68dfdefa47e043721e425a2d70483924b8617fd5af012103feb1f6404c1c560e90accde707eae842a6bca9aa5cb0228b5ca5c17f9fc3ecc0ffffffff53d7f59e87593f5967b13f55d0855ba03e0a088158fcebf870dac80752d4e7a6000000006b483045022100b7619c428aefe4691aa4d77a47cf14182dfe9ebb1e6824ff8f2a27823bbf8afd02200539839f7bad4937ce54458b2a1c7879e4e4e46e82f49da33ab2dd840c6802b8012103feb1f6404c1c560e90accde707eae842a6bca9aa5cb0228b5ca5c17f9fc3ecc0ffffffff02e2b90800000000001976a914df6993e323396061789b127e69228f96df64467488ac6cdb17000000000017a914c17a5c3e854cb672fb13dd1254c03f672b85a36c8700000000", "vin": [{"sequence": 4294967295, "scriptSig": {"hex": "4730440220678c7b34d34bb4707b3432ae03101e37ad3b2c49bf88abacb41ecdc967ab9cdf022074dab315adf288f2b9a6ba68dfdefa47e043721e425a2d70483924b8617fd5af012103feb1f6404c1c560e90accde707eae842a6bca9aa5cb0228b5ca5c17f9fc3ecc0", "asm": "30440220678c7b34d34bb4707b3432ae03101e37ad3b2c49bf88abacb41ecdc967ab9cdf022074dab315adf288f2b9a6ba68dfdefa47e043721e425a2d70483924b8617fd5af[ALL] 03feb1f6404c1c560e90accde707eae842a6bca9aa5cb0228b5ca5c17f9fc3ecc0"}, "vout": 0, "txid": "548a38c3de54336fa758e6a136cd78613d8a9979dc22a7230afc84280900e1cb"}, {"sequence": 4294967295, "scriptSig": {"hex": "483045022100b7619c428aefe4691aa4d77a47cf14182dfe9ebb1e6824ff8f2a27823bbf8afd02200539839f7bad4937ce54458b2a1c7879e4e4e46e82f49da33ab2dd840c6802b8012103feb1f6404c1c560e90accde707eae842a6bca9aa5cb0228b5ca5c17f9fc3ecc0", "asm": "3045022100b7619c428aefe4691aa4d77a47cf14182dfe9ebb1e6824ff8f2a27823bbf8afd02200539839f7bad4937ce54458b2a1c7879e4e4e46e82f49da33ab2dd840c6802b8[ALL] 03feb1f6404c1c560e90accde707eae842a6bca9aa5cb0228b5ca5c17f9fc3ecc0"}, "vout": 0, "txid": "a6e7d45207c8da70f8ebfc5881080a3ea05b85d0553fb167593f59879ef5d753"}], "txid": "c29a9ffff2adc8fab82c275b2f6de75dddc76f333697a1822591df8938aa89b9", "blocktime": 1537875543, "version": 1, "confirmations": 11464, "time": 1537875543, "locktime": 0, "vsize": 371, "size": 371}