{"hash": "c29b7a2b5d6fe805a4c3364ec213012f9162c6a68df0bb22942a24f8869632cc", "blockhash": "0000000000000000001f76057863aec43deb6fa401d9628bb513d65a8098bfab", "vout": [{"scriptPubKey": {"reqSigs": 1, "hex": "a914c7b944638887b8eda0912c74b224dae32c65e6f887", "addresses": ["3Ku4LJdh7ArZdABp5PsmqWrvD5CxnZYnSt"], "asm": "OP_HASH160 c7b944638887b8eda0912c74b224dae32c65e6f8 OP_EQUAL", "type": "scripthash"}, "value": 0.0244981, "n": 0}], "hex": "010000000192d5958c810150790458d3dcef1da0104df25b701ac279d95820c96b293f5bc6000000006a47304402203e1f7789f07cf1bf9249d7e71d6ee2db4dc448f62c0ceb83831b9555e611fb9402203e4a61660dcb5ae77d72e2cdfed397199d70d8d7a4ab1d8a08198ce6dbe70b66012103f6bb36d7c1daa34d221260dab849fecdf612fc43e1905db2c52449febe7bd079fdffffff01926125000000000017a914c7b944638887b8eda0912c74b224dae32c65e6f88714490800", "vin": [{"sequence": 4294967293, "scriptSig": {"hex": "47304402203e1f7789f07cf1bf9249d7e71d6ee2db4dc448f62c0ceb83831b9555e611fb9402203e4a61660dcb5ae77d72e2cdfed397199d70d8d7a4ab1d8a08198ce6dbe70b66012103f6bb36d7c1daa34d221260dab849fecdf612fc43e1905db2c52449febe7bd079", "asm": "304402203e1f7789f07cf1bf9249d7e71d6ee2db4dc448f62c0ceb83831b9555e611fb9402203e4a61660dcb5ae77d72e2cdfed397199d70d8d7a4ab1d8a08198ce6dbe70b66[ALL] 03f6bb36d7c1daa34d221260dab849fecdf612fc43e1905db2c52449febe7bd079"}, "vout": 0, "txid": "c65b3f296bc92058d979c21a705bf24d10a01defdcd35804795001818c95d592"}], "txid": "c29b7a2b5d6fe805a4c3364ec213012f9162c6a68df0bb22942a24f8869632cc", "blocktime": 1537873891, "version": 1, "confirmations": 11479, "time": 1537873891, "locktime": 542996, "vsize": 189, "size": 189}