{"hash": "e4719c2c09e494e75a8382a2147a02a338706ae8df3536280b914b19fd7f6cf1", "blockhash": "0000000000000000001f76057863aec43deb6fa401d9628bb513d65a8098bfab", "vout": [{"scriptPubKey": {"reqSigs": 1, "hex": "a914b6239ff3476ec63e1494b2ef485b710099f81aeb87", "addresses": ["3JJ5aiEjwzDah4P8zKrRQnQP13tYeuegCs"], "asm": "OP_HASH160 b6239ff3476ec63e1494b2ef485b710099f81aeb OP_EQUAL", "type": "scripthash"}, "value": 0.00999105, "n": 0}, {"scriptPubKey": {"reqSigs": 1, "hex": "76a9140a3195c50a139c1268b517078c4818eb7c3cee7288ac", "addresses": ["1vuA9XxA95fff3zonS6wemPTWBvQ16vN9"], "asm": "OP_DUP OP_HASH160 0a3195c50a139c1268b517078c4818eb7c3cee72 OP_EQUALVERIFY OP_CHECKSIG", "type": "pubkeyhash"}, "value": 0.00283111, "n": 1}], "hex": "020000000001047e8808bc83092c3f6e65d62bab85f642b4e13d971010ca70f2cf3b5c0cfaf6410000000017160014589f81d6a868094217c86b54d6cb9857b26d72a5feffffff8b76c58af04ca66e3bc299eeb7d717585db1e0dc3d50e33ff60ef3b6eb2bbd3b00000000171600141b97bcf93572ad221b7cb2059bc765e7643fa511fefffffff7b5f016728d761cc47ccf894ee28fa8c9452c8b5f5488ebdff0a753a78d4fd112000000171600148fab4498c175e431ca33acae260c01e2a0d10e88fefffffff7b5f016728d761cc47ccf894ee28fa8c9452c8b5f5488ebdff0a753a78d4fd118000000171600148fd62c3c49439494323305edb317939a7c1d5888feffffff02c13e0f000000000017a914b6239ff3476ec63e1494b2ef485b710099f81aeb87e7510400000000001976a9140a3195c50a139c1268b517078c4818eb7c3cee7288ac02483045022100cab4e4b3964c7143688152a9b5f608b2bf0c05f0e385e794b54af2c060eda8e30220398446c7c42dc7765bd188e63520b1c818365a93db005453a8e83e3dd296de27012102d97ac34b9e32ea2e84544bc5bfe82af13f1f5243cf6d2d3b2ecea135bb98e27a0247304402203bdf6807f963ba17f97386dd1c33f415a125cabc9efc3c6bafbdc825e7ce9f2c02207da8e9401d473cec2984b5b45d5a2a8e2974f7666941aacbc9e0f014575861d40121020972dcde99699b758715e2ffa61f3e245362745eecab62bbf5f069b6fbaa4b0102483045022100d3e0b0e86c0b9883156188b86a8f62092021164dffebdcc1b0d3cdc85b789751022007f13b4b1da3f5fe9bc0d99e9f60efe2928380cca7a8bb1d06daf0ba68d3079d01210338c617e55f6fac1fc50bea634c20ba85c1ccfb7f7d4051a7ae4ab7eb86c2dbba02483045022100ffbada9d3ecf06f95e1b40ca591bfbebe537f5c47e7aa27cc26633c40f7f7a9802203342a1755cbe5231c5b7dad418f973a84f62f8604ba2f7c7e0da9c3746e87812012102475d9b30c5831ad24861e3fa88a9c1a900c7493113c9393b46acf15e5eddfe0eff480800", "vin": [{"txinwitness": ["3045022100cab4e4b3964c7143688152a9b5f608b2bf0c05f0e385e794b54af2c060eda8e30220398446c7c42dc7765bd188e63520b1c818365a93db005453a8e83e3dd296de2701", "02d97ac34b9e32ea2e84544bc5bfe82af13f1f5243cf6d2d3b2ecea135bb98e27a"], "sequence": 4294967294, "scriptSig": {"hex": "160014589f81d6a868094217c86b54d6cb9857b26d72a5", "asm": "0014589f81d6a868094217c86b54d6cb9857b26d72a5"}, "vout": 0, "txid": "41f6fa0c5c3bcff270ca1010973de1b442f685ab2bd6656e3f2c0983bc08887e"}, {"txinwitness": ["304402203bdf6807f963ba17f97386dd1c33f415a125cabc9efc3c6bafbdc825e7ce9f2c02207da8e9401d473cec2984b5b45d5a2a8e2974f7666941aacbc9e0f014575861d401", "020972dcde99699b758715e2ffa61f3e245362745eecab62bbf5f069b6fbaa4b01"], "sequence": 4294967294, "scriptSig": {"hex": "1600141b97bcf93572ad221b7cb2059bc765e7643fa511", "asm": "00141b97bcf93572ad221b7cb2059bc765e7643fa511"}, "vout": 0, "txid": "3bbd2bebb6f30ef63fe3503ddce0b15d5817d7b7ee99c23b6ea64cf08ac5768b"}, {"txinwitness": ["3045022100d3e0b0e86c0b9883156188b86a8f62092021164dffebdcc1b0d3cdc85b789751022007f13b4b1da3f5fe9bc0d99e9f60efe2928380cca7a8bb1d06daf0ba68d3079d01", "0338c617e55f6fac1fc50bea634c20ba85c1ccfb7f7d4051a7ae4ab7eb86c2dbba"], "sequence": 4294967294, "scriptSig": {"hex": "1600148fab4498c175e431ca33acae260c01e2a0d10e88", "asm": "00148fab4498c175e431ca33acae260c01e2a0d10e88"}, "vout": 18, "txid": "d14f8da753a7f0dfeb88545f8b2c45c9a88fe24e89cf7cc41c768d7216f0b5f7"}, {"txinwitness": ["3045022100ffbada9d3ecf06f95e1b40ca591bfbebe537f5c47e7aa27cc26633c40f7f7a9802203342a1755cbe5231c5b7dad418f973a84f62f8604ba2f7c7e0da9c3746e8781201", "02475d9b30c5831ad24861e3fa88a9c1a900c7493113c9393b46acf15e5eddfe0e"], "sequence": 4294967294, "scriptSig": {"hex": "1600148fd62c3c49439494323305edb317939a7c1d5888", "asm": "00148fd62c3c49439494323305edb317939a7c1d5888"}, "vout": 24, "txid": "d14f8da753a7f0dfeb88545f8b2c45c9a88fe24e89cf7cc41c768d7216f0b5f7"}], "txid": "c29b573aec764cc9bd52a32eafb7b79207f1dc62f4658cefb606f9d0b94cde52", "blocktime": 1537873891, "version": 2, "confirmations": 11478, "time": 1537873891, "locktime": 542975, "vsize": 441, "size": 765}