{"hash": "cdd0f422990861bc3b6076fe9412a9738834b8b5add738ad4d89de542db90587", "blockhash": "0000000000000000001cda96e906b7601b7a6fb1a3b62bca570a9e5d8f4b3de1", "vout": [{"scriptPubKey": {"reqSigs": 1, "hex": "00147eb2a27eadd4bccaa85e5e929f5a5699bae36a3d", "addresses": ["bc1q06e2yl4d6j7v42z7t6ff7kjknxawx63agt867h"], "asm": "0 7eb2a27eadd4bccaa85e5e929f5a5699bae36a3d", "type": "witness_v0_keyhash"}, "value": 0.00023254, "n": 0}, {"scriptPubKey": {"reqSigs": 1, "hex": "a914b75cb82ed09eb04d07ebe6fb51145f37d163deab87", "addresses": ["3JQYeuje2Wgg3wjQJTkPkGTTdKzpM9Ldxf"], "asm": "OP_HASH160 b75cb82ed09eb04d07ebe6fb51145f37d163deab OP_EQUAL", "type": "scripthash"}, "value": 0.00910055, "n": 1}], "hex": "0100000000010178be183efdbf879f11c2f9a9d6bb8606b33d5a2bfa351b99f46b16e5dfd6d9d90000000000ffffffff02d65a0000000000001600147eb2a27eadd4bccaa85e5e929f5a5699bae36a3de7e20d000000000017a914b75cb82ed09eb04d07ebe6fb51145f37d163deab870247304402206f5367ddb7cc9a9cc7eab36006f3829f4325fd0fdd8eb1b08bc2a276ad81883b022026f8920ec5c700be7772664768c215cca8618f9db734849d39571f00a99350e30121023d61fcae4ebee3a14e65661cf3727c522c196ff2ba763b3d8635e54c6320630200000000", "vin": [{"txinwitness": ["304402206f5367ddb7cc9a9cc7eab36006f3829f4325fd0fdd8eb1b08bc2a276ad81883b022026f8920ec5c700be7772664768c215cca8618f9db734849d39571f00a99350e301", "023d61fcae4ebee3a14e65661cf3727c522c196ff2ba763b3d8635e54c63206302"], "sequence": 4294967295, "scriptSig": {"hex": "", "asm": ""}, "vout": 0, "txid": "d9d9d6dfe5166bf4991b35fa2b5a3db30686bbd6a9f9c2119f87bffd3e18be78"}], "txid": "c2a1fa0459d815d480f2be9f0a571ffe4c041756e06c90977ef646daf531f708", "blocktime": 1537873282, "version": 1, "confirmations": 11484, "time": 1537873282, "locktime": 0, "vsize": 142, "size": 223}