{"hash": "c2a79976d69aa8a96f79cdd7acc4f16a198e86d35906fdd4fff1f5fc06096071", "blockhash": "0000000000000000000e13cef7c366c0283d82e591d1acd082e914b08063cdf1", "vout": [{"scriptPubKey": {"reqSigs": 1, "hex": "76a914fe4ac80e7fd8c8ec48837621d61b04122c5543b488ac", "addresses": ["1QBaDdhCTC2k9WWFhCXCJvYHpVSqLSRxaJ"], "asm": "OP_DUP OP_HASH160 fe4ac80e7fd8c8ec48837621d61b04122c5543b4 OP_EQUALVERIFY OP_CHECKSIG", "type": "pubkeyhash"}, "value": 0.03931688, "n": 0}, {"scriptPubKey": {"type": "nulldata", "hex": "6a146f6d6e69000000000000001f00000245d801de00", "asm": "OP_RETURN 6f6d6e69000000000000001f00000245d801de00"}, "value": 0.0, "n": 1}, {"scriptPubKey": {"reqSigs": 1, "hex": "76a914872b3ff1bd5d2b465518ca94c2dd1f8995a0c26788ac", "addresses": ["1DKi2wnsVLd8LVjmhu8kQMEugtpNU9hXXn"], "asm": "OP_DUP OP_HASH160 872b3ff1bd5d2b465518ca94c2dd1f8995a0c267 OP_EQUALVERIFY OP_CHECKSIG", "type": "pubkeyhash"}, "value": 5.46e-06, "n": 2}], "hex": "0100000001ebedce9c5c906e14ccbccc8af96f01fb250c9c61da7879844c6fc5a2b50d9541000000006a473044022023ff8e7dd351048d954aee54f8e172dbd0d29e3742c1170d948ec614e938b82802205ebb547ec42c663942f8de58358fb099569a48a7e1e2be07d497d0edc5899bc70121023ccb07d9d195dd94a9f83a586fe543a2b3ad03d7a780bac883bdf3c47f5b4ebcfeffffff0328fe3b00000000001976a914fe4ac80e7fd8c8ec48837621d61b04122c5543b488ac0000000000000000166a146f6d6e69000000000000001f00000245d801de0022020000000000001976a914872b3ff1bd5d2b465518ca94c2dd1f8995a0c26788ac10490800", "vin": [{"sequence": 4294967294, "scriptSig": {"hex": "473044022023ff8e7dd351048d954aee54f8e172dbd0d29e3742c1170d948ec614e938b82802205ebb547ec42c663942f8de58358fb099569a48a7e1e2be07d497d0edc5899bc70121023ccb07d9d195dd94a9f83a586fe543a2b3ad03d7a780bac883bdf3c47f5b4ebc", "asm": "3044022023ff8e7dd351048d954aee54f8e172dbd0d29e3742c1170d948ec614e938b82802205ebb547ec42c663942f8de58358fb099569a48a7e1e2be07d497d0edc5899bc7[ALL] 023ccb07d9d195dd94a9f83a586fe543a2b3ad03d7a780bac883bdf3c47f5b4ebc"}, "vout": 0, "txid": "41950db5a2c56f4c847978da619c0c25fb016ff98accbccc146e905c9cceedeb"}], "txid": "c2a79976d69aa8a96f79cdd7acc4f16a198e86d35906fdd4fff1f5fc06096071", "blocktime": 1537871767, "version": 1, "confirmations": 11491, "time": 1537871767, "locktime": 542992, "vsize": 256, "size": 256}