{"hash": "c2a861d3ed33fe6c92445f7e194a1ad9438fc82ce7df384bf2cb8c69c4fb9007", "blockhash": "00000000000000000004ffacab907a6b429b9a5745fa0b75af4234bf69dd7176", "vout": [{"scriptPubKey": {"reqSigs": 1, "hex": "76a914b8bf2cb7649a10f095d47a18f9e0a7478abc35ed88ac", "addresses": ["1HqrMM4qnGbtsTqmjKZoWwzBCQbEyseVbo"], "asm": "OP_DUP OP_HASH160 b8bf2cb7649a10f095d47a18f9e0a7478abc35ed OP_EQUALVERIFY OP_CHECKSIG", "type": "pubkeyhash"}, "value": 4.0, "n": 0}, {"scriptPubKey": {"reqSigs": 1, "hex": "76a9148f3fc37939ebc1833cfe59ba8598472b5bb0809d88ac", "addresses": ["1E4S1oXU4YjuyY8GXzGCY6A7Mi2VKKbpxk"], "asm": "OP_DUP OP_HASH160 8f3fc37939ebc1833cfe59ba8598472b5bb0809d OP_EQUALVERIFY OP_CHECKSIG", "type": "pubkeyhash"}, "value": 8.00526746, "n": 1}], "hex": "01000000023a0f483b75668ee134f875a1ce0106c1879a18a57ebcbc8e0b896dcc33c54eeb010000006b483045022100c3cf2612edec6f5f00c92166ece3827570bdaa07a9094ab20d0a6d60ac8f558f02207db4df6701969f719140dc31f063c49677bf15ef38100fa2a904e64c2df35b0c01210201a16251c9c75637d2b7a7470c668d886902ff5fdfa50da9d2c3c988c2b0090fffffffffa629bbf816bb50d8392bcf8e41761b0cbec8163b921f7c9203a29f08539ceb1c000000006a473044022049e1b6dc978662d9ffdbf689817762362973f9cffdf5ae1bfcb941f47e6ea606022066ff5884d327deae854d87ee26aff6fbc5ad33261be71b2a7cf555d0b514002501210328ce4d30d3197f5320e7082c3ab11b1f7444c78625c6e4530265a8c1f9e7e156ffffffff020084d717000000001976a914b8bf2cb7649a10f095d47a18f9e0a7478abc35ed88ac9a11b72f000000001976a9148f3fc37939ebc1833cfe59ba8598472b5bb0809d88ac00000000", "vin": [{"sequence": 4294967295, "scriptSig": {"hex": "483045022100c3cf2612edec6f5f00c92166ece3827570bdaa07a9094ab20d0a6d60ac8f558f02207db4df6701969f719140dc31f063c49677bf15ef38100fa2a904e64c2df35b0c01210201a16251c9c75637d2b7a7470c668d886902ff5fdfa50da9d2c3c988c2b0090f", "asm": "3045022100c3cf2612edec6f5f00c92166ece3827570bdaa07a9094ab20d0a6d60ac8f558f02207db4df6701969f719140dc31f063c49677bf15ef38100fa2a904e64c2df35b0c[ALL] 0201a16251c9c75637d2b7a7470c668d886902ff5fdfa50da9d2c3c988c2b0090f"}, "vout": 1, "txid": "eb4ec533cc6d890b8ebcbc7ea5189a87c10601cea175f834e18e66753b480f3a"}, {"sequence": 4294967295, "scriptSig": {"hex": "473044022049e1b6dc978662d9ffdbf689817762362973f9cffdf5ae1bfcb941f47e6ea606022066ff5884d327deae854d87ee26aff6fbc5ad33261be71b2a7cf555d0b514002501210328ce4d30d3197f5320e7082c3ab11b1f7444c78625c6e4530265a8c1f9e7e156", "asm": "3044022049e1b6dc978662d9ffdbf689817762362973f9cffdf5ae1bfcb941f47e6ea606022066ff5884d327deae854d87ee26aff6fbc5ad33261be71b2a7cf555d0b5140025[ALL] 0328ce4d30d3197f5320e7082c3ab11b1f7444c78625c6e4530265a8c1f9e7e156"}, "vout": 0, "txid": "1ceb9c53089fa203927c1f923b16c8be0c1b76418ecf2b39d850bb16f8bb29a6"}], "txid": "c2a861d3ed33fe6c92445f7e194a1ad9438fc82ce7df384bf2cb8c69c4fb9007", "blocktime": 1537875543, "version": 1, "confirmations": 11464, "time": 1537875543, "locktime": 0, "vsize": 373, "size": 373}