{"hash": "c2b2910567b113765387e24a5dc893e73a186721671ef9fb2ba66398148d8fed", "blockhash": "0000000000000000000e13cef7c366c0283d82e591d1acd082e914b08063cdf1", "vout": [{"scriptPubKey": {"reqSigs": 1, "hex": "a9146879207c0ec2b2dc67aee306f675454d270e204e87", "addresses": ["3BDRJYAhqpqS6EzYBue4PVtGEoKFgsGV7Z"], "asm": "OP_HASH160 6879207c0ec2b2dc67aee306f675454d270e204e OP_EQUAL", "type": "scripthash"}, "value": 0.0052, "n": 0}, {"scriptPubKey": {"reqSigs": 1, "hex": "76a91483bda6f30cf52dfed200bd12ac35f1f7e653d1b788ac", "addresses": ["1D1aiPjPvS8VxqfBvsH21n3hZdP1H9Zc6F"], "asm": "OP_DUP OP_HASH160 83bda6f30cf52dfed200bd12ac35f1f7e653d1b7 OP_EQUALVERIFY OP_CHECKSIG", "type": "pubkeyhash"}, "value": 0.01958038, "n": 1}], "hex": "01000000013eb2d9bf1aa7e995fdf8f3949ea5f7acccda9f6471b57f4b4601ceabf714942c010000006a47304402203ee506abe5b98273231c465ad681c9493ad21f0ff1c49b3ebac510d46d4435f90220589d8d236fccc10434bd7856f162176b981eadf198300ffef5ac41ac37809df10121020fdf1dcc695617f7d26efa41e860c293bf1e7f0eb934037007f0e0f043ecb399ffffffff0240ef07000000000017a9146879207c0ec2b2dc67aee306f675454d270e204e8796e01d00000000001976a91483bda6f30cf52dfed200bd12ac35f1f7e653d1b788ac00000000", "vin": [{"sequence": 4294967295, "scriptSig": {"hex": "47304402203ee506abe5b98273231c465ad681c9493ad21f0ff1c49b3ebac510d46d4435f90220589d8d236fccc10434bd7856f162176b981eadf198300ffef5ac41ac37809df10121020fdf1dcc695617f7d26efa41e860c293bf1e7f0eb934037007f0e0f043ecb399", "asm": "304402203ee506abe5b98273231c465ad681c9493ad21f0ff1c49b3ebac510d46d4435f90220589d8d236fccc10434bd7856f162176b981eadf198300ffef5ac41ac37809df1[ALL] 020fdf1dcc695617f7d26efa41e860c293bf1e7f0eb934037007f0e0f043ecb399"}, "vout": 1, "txid": "2c9414f7abce01464b7fb571649fdaccacf7a59e94f3f8fd95e9a71abfd9b23e"}], "txid": "c2b2910567b113765387e24a5dc893e73a186721671ef9fb2ba66398148d8fed", "blocktime": 1537871767, "version": 1, "confirmations": 11495, "time": 1537871767, "locktime": 0, "vsize": 223, "size": 223}