{"hash": "a23b86cb55d2b2fa778022c3b701e500af8490b44feecc1f029c93f2db765453", "blockhash": "0000000000000000001f0ddff1eddb255c1121bcd4da4f1bc9a0da00cae72433", "vout": [{"scriptPubKey": {"reqSigs": 1, "hex": "a91406cbd2156c2c5c43f5b6eb5ac70819c19becf92b87", "addresses": ["32Jx9QDKp21E9FzmyNFmiC9sJPn9WAF6tg"], "asm": "OP_HASH160 06cbd2156c2c5c43f5b6eb5ac70819c19becf92b OP_EQUAL", "type": "scripthash"}, "value": 0.01043538, "n": 0}, {"scriptPubKey": {"reqSigs": 1, "hex": "76a914edbb1387aa515fcd4ca0eabb28ab122850daedb288ac", "addresses": ["1Ng1FkdWjShs94BPp1BLEQTV9oryYHMjPv"], "asm": "OP_DUP OP_HASH160 edbb1387aa515fcd4ca0eabb28ab122850daedb2 OP_EQUALVERIFY OP_CHECKSIG", "type": "pubkeyhash"}, "value": 0.010948, "n": 1}], "hex": "020000000001022c75d0b8dee87e005b64389b662508175bffc47a17b3bf47ded7f01064555fd10100000017160014953de3041d14040c0c39538b7d0ddb85b1e21cfcfeffffff7d887a40909dca664f936db210fe32a15e104c4ea6646e607b8a51f2cc4b79d30100000017160014f78bb6595b47dad5108b80d53d3047d1c8dd87e9feffffff0252ec0f000000000017a91406cbd2156c2c5c43f5b6eb5ac70819c19becf92b8790b41000000000001976a914edbb1387aa515fcd4ca0eabb28ab122850daedb288ac02473044022022eff4d1eb4ab1394fde9b162be6ca748d49d037d57cc5eed87ea788af95881d02205e80fdee260cd40d2fe20c0246ed0fb0c8aec6814ca6a7d9c06a98c956b6a0aa012102a1485271e61444e5a3279c29b5a29096f480b458676489019f4172ee7ebe0e3d0247304402201bd5541851ac308553ba9fb90b1c832e230aa63ffa3c261a1d8c1dc5ed61313d022028269fb24396661c82bc506900b402a5a673b27a39c0ab5c262097e8ac616f8e012103c30cf198585018aa821a88348e2d6a1703cadad4b6f724c92ce4a01af7a8302711490800", "vin": [{"txinwitness": ["3044022022eff4d1eb4ab1394fde9b162be6ca748d49d037d57cc5eed87ea788af95881d02205e80fdee260cd40d2fe20c0246ed0fb0c8aec6814ca6a7d9c06a98c956b6a0aa01", "02a1485271e61444e5a3279c29b5a29096f480b458676489019f4172ee7ebe0e3d"], "sequence": 4294967294, "scriptSig": {"hex": "160014953de3041d14040c0c39538b7d0ddb85b1e21cfc", "asm": "0014953de3041d14040c0c39538b7d0ddb85b1e21cfc"}, "vout": 1, "txid": "d15f556410f0d7de47bfb3177ac4ff5b170825669b38645b007ee8deb8d0752c"}, {"txinwitness": ["304402201bd5541851ac308553ba9fb90b1c832e230aa63ffa3c261a1d8c1dc5ed61313d022028269fb24396661c82bc506900b402a5a673b27a39c0ab5c262097e8ac616f8e01", "03c30cf198585018aa821a88348e2d6a1703cadad4b6f724c92ce4a01af7a83027"], "sequence": 4294967294, "scriptSig": {"hex": "160014f78bb6595b47dad5108b80d53d3047d1c8dd87e9", "asm": "0014f78bb6595b47dad5108b80d53d3047d1c8dd87e9"}, "vout": 1, "txid": "d3794bccf2518a7b606e64a64e4c105ea132fe10b26d934f66ca9d90407a887d"}], "txid": "c2b90caff1513ecd97b6a051ee19f429e8861f0d9c1845715b2ea8c046a230fd", "blocktime": 1537872018, "version": 2, "confirmations": 11489, "time": 1537872018, "locktime": 542993, "vsize": 258, "size": 420}