{"hash": "c2ba5aadfbae0758618636c9cadceb924aaaf3b36a2f8da6a3b7e338eb8643ba", "blockhash": "0000000000000000000dcc0f55137456b1a82d3642486a52398922ac4d620174", "vout": [{"scriptPubKey": {"reqSigs": 1, "hex": "76a914f127801ec7b9496028012d4e924e38725dec117b88ac", "addresses": ["1Nz7AmmboHa9EdVVdNJsxTpJ4pF8pXKofc"], "asm": "OP_DUP OP_HASH160 f127801ec7b9496028012d4e924e38725dec117b OP_EQUALVERIFY OP_CHECKSIG", "type": "pubkeyhash"}, "value": 0.00591, "n": 0}, {"scriptPubKey": {"reqSigs": 1, "hex": "76a914103190abd52c22c396dcf56ed7915e5094c3f70688ac", "addresses": ["12UdBv2pkKuFJoUYWHDnp7nP6nkPRskUkK"], "asm": "OP_DUP OP_HASH160 103190abd52c22c396dcf56ed7915e5094c3f706 OP_EQUALVERIFY OP_CHECKSIG", "type": "pubkeyhash"}, "value": 0.01727794, "n": 1}], "hex": "010000000195f4555b5f27bb85da2d7c3e1420a5eff99898719d7a3cff2ad160040b867d05010000006b4830450221009eede3f215c4e6f0cc1fe3a39f5f54467ddc394f7348ef7db4b42c726367d44f02202bf90e9bdce0c40e6f7b57115c5c5e82711c2dbee083fa0bf2d87de0c6661623012103b4ff80a8ede04427f56fd810210c2f375f4014c7c55c131b4fecd3371c4e32aeffffffff0298040900000000001976a914f127801ec7b9496028012d4e924e38725dec117b88ac325d1a00000000001976a914103190abd52c22c396dcf56ed7915e5094c3f70688ac00000000", "vin": [{"sequence": 4294967295, "scriptSig": {"hex": "4830450221009eede3f215c4e6f0cc1fe3a39f5f54467ddc394f7348ef7db4b42c726367d44f02202bf90e9bdce0c40e6f7b57115c5c5e82711c2dbee083fa0bf2d87de0c6661623012103b4ff80a8ede04427f56fd810210c2f375f4014c7c55c131b4fecd3371c4e32ae", "asm": "30450221009eede3f215c4e6f0cc1fe3a39f5f54467ddc394f7348ef7db4b42c726367d44f02202bf90e9bdce0c40e6f7b57115c5c5e82711c2dbee083fa0bf2d87de0c6661623[ALL] 03b4ff80a8ede04427f56fd810210c2f375f4014c7c55c131b4fecd3371c4e32ae"}, "vout": 1, "txid": "057d860b0460d12aff3c7a9d719898f9efa520143e7c2dda85bb275f5b55f495"}], "txid": "c2ba5aadfbae0758618636c9cadceb924aaaf3b36a2f8da6a3b7e338eb8643ba", "blocktime": 1537870268, "version": 1, "confirmations": 11518, "time": 1537870268, "locktime": 0, "vsize": 226, "size": 226}