{"hash": "c2bb90df5b41e217d9f230696ff39cb7e21ea50ce0a683f2fd5c0d12449c5a8e", "blockhash": "00000000000000000017f5eb5941039fbcee6240d03bc1f2f8e35350df66a1d8", "vout": [{"scriptPubKey": {"reqSigs": 1, "hex": "76a91400de1c0faadec9d6e2a5ceae64c66f0fd3e7acfc88ac", "addresses": ["115b5Su9Ce8txWJmUDGrVWD7cag1UNekFC"], "asm": "OP_DUP OP_HASH160 00de1c0faadec9d6e2a5ceae64c66f0fd3e7acfc OP_EQUALVERIFY OP_CHECKSIG", "type": "pubkeyhash"}, "value": 0.0220988, "n": 0}, {"scriptPubKey": {"type": "nulldata", "hex": "6a4c50000077f500014c00efd8d918ccfe50a5c201d19ed074892d00f8e87af8e8e963c7cfd5b9d6f53fea45ff67ed273c7e53f32448fd5baa18aa06135135a3952407bc9a9526289ac0f6612cd74e33776ee4", "asm": "OP_RETURN 000077f500014c00efd8d918ccfe50a5c201d19ed074892d00f8e87af8e8e963c7cfd5b9d6f53fea45ff67ed273c7e53f32448fd5baa18aa06135135a3952407bc9a9526289ac0f6612cd74e33776ee4"}, "value": 0.0, "n": 1}], "hex": "01000000017f9c5c50d982fdd01832bc4c0def22708c75d7d38bd072983655c66917e7d35e000000006a47304402204a87399df0202da44e959054e28413247f64203524c824ae60eb77c8af56bcd602201d8873f28466fdc2a50887234a0354484057860b05866e89ea113e5765ce0476012102748542cbbeacdbaa911761b50e9a49d77a14e209dfde01a851ffb5107aa0e50effffffff0258b82100000000001976a91400de1c0faadec9d6e2a5ceae64c66f0fd3e7acfc88ac0000000000000000536a4c50000077f500014c00efd8d918ccfe50a5c201d19ed074892d00f8e87af8e8e963c7cfd5b9d6f53fea45ff67ed273c7e53f32448fd5baa18aa06135135a3952407bc9a9526289ac0f6612cd74e33776ee400000000", "vin": [{"sequence": 4294967295, "scriptSig": {"hex": "47304402204a87399df0202da44e959054e28413247f64203524c824ae60eb77c8af56bcd602201d8873f28466fdc2a50887234a0354484057860b05866e89ea113e5765ce0476012102748542cbbeacdbaa911761b50e9a49d77a14e209dfde01a851ffb5107aa0e50e", "asm": "304402204a87399df0202da44e959054e28413247f64203524c824ae60eb77c8af56bcd602201d8873f28466fdc2a50887234a0354484057860b05866e89ea113e5765ce0476[ALL] 02748542cbbeacdbaa911761b50e9a49d77a14e209dfde01a851ffb5107aa0e50e"}, "vout": 0, "txid": "5ed3e71769c655369872d08bd3d7758c7022ef0d4cbc3218d0fd82d9505c9c7f"}], "txid": "c2bb90df5b41e217d9f230696ff39cb7e21ea50ce0a683f2fd5c0d12449c5a8e", "blocktime": 1537874412, "version": 1, "confirmations": 11467, "time": 1537874412, "locktime": 0, "vsize": 283, "size": 283}