{"hash": "c2bda8fb0e770463754c9b12e0c9a1316ae749636acd96c8bdea78df83f942eb", "blockhash": "00000000000000000004ffacab907a6b429b9a5745fa0b75af4234bf69dd7176", "vout": [{"scriptPubKey": {"reqSigs": 1, "hex": "76a9143bc710071483933e98296fc7d8649ee7e57407b888ac", "addresses": ["16T5LRy8AVaR4DmaRDed2TA6soYpWNZVkp"], "asm": "OP_DUP OP_HASH160 3bc710071483933e98296fc7d8649ee7e57407b8 OP_EQUALVERIFY OP_CHECKSIG", "type": "pubkeyhash"}, "value": 0.96, "n": 0}, {"scriptPubKey": {"reqSigs": 1, "hex": "76a91451276498e181785e7075b23cbfc930590343878988ac", "addresses": ["18Q6vcKXKEWNJYQdB3ponoAtgZEg3UXvZD"], "asm": "OP_DUP OP_HASH160 51276498e181785e7075b23cbfc9305903438789 OP_EQUALVERIFY OP_CHECKSIG", "type": "pubkeyhash"}, "value": 0.37408, "n": 1}], "hex": "0100000002d9a67c4ed2f4c6d5492c43fe908f107a229fe0497462bf7edf51727acb538b50010000006b483045022100ac28f3d1c778bdce8a3c6c20d0d2e4eb594c91749a8e2fc0d110a5daa7e65d2c02206763c5ac487c02d0692139e8f4e2e5bc8e361471ecad2bc4399fddcaed6b6525012102b16bf673a3812e9b26a4bd89e7e5e064e7be62b47e37ad9f72ef4823bcc89eb2ffffffffd9a67c4ed2f4c6d5492c43fe908f107a229fe0497462bf7edf51727acb538b50000000006a4730440221009eb6ec08ec4e9a5a033c2e5ffff275108fb0cb61e82b9445defb67f66870fbd0021f49c9079104dde9f7a4bc490f26376630162b28292e0ca9997735dda80ce3a101210337b72a5072ec2b532f1188926380fabb995a31d022fe353a0522fc35c0289351ffffffff0200d8b805000000001976a9143bc710071483933e98296fc7d8649ee7e57407b888ac00cd3a02000000001976a91451276498e181785e7075b23cbfc930590343878988ac00000000", "vin": [{"sequence": 4294967295, "scriptSig": {"hex": "483045022100ac28f3d1c778bdce8a3c6c20d0d2e4eb594c91749a8e2fc0d110a5daa7e65d2c02206763c5ac487c02d0692139e8f4e2e5bc8e361471ecad2bc4399fddcaed6b6525012102b16bf673a3812e9b26a4bd89e7e5e064e7be62b47e37ad9f72ef4823bcc89eb2", "asm": "3045022100ac28f3d1c778bdce8a3c6c20d0d2e4eb594c91749a8e2fc0d110a5daa7e65d2c02206763c5ac487c02d0692139e8f4e2e5bc8e361471ecad2bc4399fddcaed6b6525[ALL] 02b16bf673a3812e9b26a4bd89e7e5e064e7be62b47e37ad9f72ef4823bcc89eb2"}, "vout": 1, "txid": "508b53cb7a7251df7ebf627449e09f227a108f90fe432c49d5c6f4d24e7ca6d9"}, {"sequence": 4294967295, "scriptSig": {"hex": "4730440221009eb6ec08ec4e9a5a033c2e5ffff275108fb0cb61e82b9445defb67f66870fbd0021f49c9079104dde9f7a4bc490f26376630162b28292e0ca9997735dda80ce3a101210337b72a5072ec2b532f1188926380fabb995a31d022fe353a0522fc35c0289351", "asm": "30440221009eb6ec08ec4e9a5a033c2e5ffff275108fb0cb61e82b9445defb67f66870fbd0021f49c9079104dde9f7a4bc490f26376630162b28292e0ca9997735dda80ce3a1[ALL] 0337b72a5072ec2b532f1188926380fabb995a31d022fe353a0522fc35c0289351"}, "vout": 0, "txid": "508b53cb7a7251df7ebf627449e09f227a108f90fe432c49d5c6f4d24e7ca6d9"}], "txid": "c2bda8fb0e770463754c9b12e0c9a1316ae749636acd96c8bdea78df83f942eb", "blocktime": 1537875543, "version": 1, "confirmations": 11464, "time": 1537875543, "locktime": 0, "vsize": 373, "size": 373}