{"hash": "c2be3cf709d086f8bcf197c86d1625759ff858cc6c403c90bc4963cab90a8bce", "blockhash": "00000000000000000004ffacab907a6b429b9a5745fa0b75af4234bf69dd7176", "vout": [{"scriptPubKey": {"reqSigs": 1, "hex": "a91418cedb2526ac5fec3716a3a7da40b27c8cfdd71b87", "addresses": ["33xBwkrq3q7tJFuozh1YdtYDqwZzzMU9vq"], "asm": "OP_HASH160 18cedb2526ac5fec3716a3a7da40b27c8cfdd71b OP_EQUAL", "type": "scripthash"}, "value": 0.0124968, "n": 0}, {"scriptPubKey": {"reqSigs": 1, "hex": "76a9145d6b0104cf4e0b121919834253322a418ed755c888ac", "addresses": ["19Wx2cDCZp1DzJHLqFPkL3ZZ2cyi8mGMGk"], "asm": "OP_DUP OP_HASH160 5d6b0104cf4e0b121919834253322a418ed755c8 OP_EQUALVERIFY OP_CHECKSIG", "type": "pubkeyhash"}, "value": 0.01871472, "n": 1}], "hex": "010000000166eb433c9ffa47671e828874e9e4aef79596209a248ab7a2c589dcc6eb40be33010000008a473044022065dc0ba432bd953b2f11b4e536f0d0593331404edcf963f2806499be45ee22bb02204db161ce554cb89fa388210558fe1e7d3c451372e2608edfa981488f997b53a801410411883e678ea0be72748c9246d166abd38d867a56351ce840bb63d0f28b8fede00bbb964d547d056fa5ab3981da072b65c7e2836d330a27b1a9ee5f36a651e573ffffffff02901113000000000017a91418cedb2526ac5fec3716a3a7da40b27c8cfdd71b87708e1c00000000001976a9145d6b0104cf4e0b121919834253322a418ed755c888ac00000000", "vin": [{"sequence": 4294967295, "scriptSig": {"hex": "473044022065dc0ba432bd953b2f11b4e536f0d0593331404edcf963f2806499be45ee22bb02204db161ce554cb89fa388210558fe1e7d3c451372e2608edfa981488f997b53a801410411883e678ea0be72748c9246d166abd38d867a56351ce840bb63d0f28b8fede00bbb964d547d056fa5ab3981da072b65c7e2836d330a27b1a9ee5f36a651e573", "asm": "3044022065dc0ba432bd953b2f11b4e536f0d0593331404edcf963f2806499be45ee22bb02204db161ce554cb89fa388210558fe1e7d3c451372e2608edfa981488f997b53a8[ALL] 0411883e678ea0be72748c9246d166abd38d867a56351ce840bb63d0f28b8fede00bbb964d547d056fa5ab3981da072b65c7e2836d330a27b1a9ee5f36a651e573"}, "vout": 1, "txid": "33be40ebc6dc89c5a2b78a249a209695f7aee4e97488821e6747fa9f3c43eb66"}], "txid": "c2be3cf709d086f8bcf197c86d1625759ff858cc6c403c90bc4963cab90a8bce", "blocktime": 1537875543, "version": 1, "confirmations": 11464, "time": 1537875543, "locktime": 0, "vsize": 255, "size": 255}