{"hash": "cec5b6b9bcbcc745cc1672b92ed37432d99e1ff87ae61a3075a2c4b795525078", "blockhash": "0000000000000000001f0ddff1eddb255c1121bcd4da4f1bc9a0da00cae72433", "vout": [{"scriptPubKey": {"reqSigs": 1, "hex": "002001fc03a19ff3593dc72e20a0bf844abc467210abfe43508a5691ce4150f4ecc7", "addresses": ["bc1qq87q8gvl7dvnm3ewyzstlpz2h3r8yy9tlep4pzjkj88yz585anrsn9fx6e"], "asm": "0 01fc03a19ff3593dc72e20a0bf844abc467210abfe43508a5691ce4150f4ecc7", "type": "witness_v0_scripthash"}, "value": 0.025, "n": 0}, {"scriptPubKey": {"reqSigs": 1, "hex": "0014925fa2e4404a9d175b7742238d96b9ccc33c2de3", "addresses": ["bc1qjf069ezqf2w3wkmhgg3cm94eenpnct0rp25khr"], "asm": "0 925fa2e4404a9d175b7742238d96b9ccc33c2de3", "type": "witness_v0_keyhash"}, "value": 0.04626033, "n": 1}], "hex": "0100000000010189a1832d628f916544b4c1aefb36eebad049a17dcf9af2a0999851d54c8ccc230100000000ffffffff02a02526000000000022002001fc03a19ff3593dc72e20a0bf844abc467210abfe43508a5691ce4150f4ecc77196460000000000160014925fa2e4404a9d175b7742238d96b9ccc33c2de30247304402200d7eed635f593c265b3ccbc17b7c8c48c04e6514f940a713ad879b88ed31a87702201d5d530ec8add112a83d1bad109b1238bf1546bc57aa9e357d50d54f68e756220121039d730820c730ef9af8c88eafdfa0e4dbc17a1bc545731ffa4e84f180c7e1a17b00000000", "vin": [{"txinwitness": ["304402200d7eed635f593c265b3ccbc17b7c8c48c04e6514f940a713ad879b88ed31a87702201d5d530ec8add112a83d1bad109b1238bf1546bc57aa9e357d50d54f68e7562201", "039d730820c730ef9af8c88eafdfa0e4dbc17a1bc545731ffa4e84f180c7e1a17b"], "sequence": 4294967295, "scriptSig": {"hex": "", "asm": ""}, "vout": 1, "txid": "23cc8c4cd5519899a0f29acf7da149d0baee36fbaec1b44465918f622d83a189"}], "txid": "c2c3a2068bdb65368e249362b7112d555ee4d1515c66c36320280269b7285463", "blocktime": 1537872018, "version": 1, "confirmations": 11489, "time": 1537872018, "locktime": 0, "vsize": 153, "size": 234}