{"hash": "26a9b18c79f92cb38b6e72c7d8b5485a50bccc7307456a07c03e8967cf431eaf", "blockhash": "0000000000000000000baef3f32e3676a92c3b2e5da21b426e4f302fc371ce76", "vout": [{"scriptPubKey": {"reqSigs": 1, "hex": "76a914afdbc70b61c898a21a6ae04b8517a6bc7484181988ac", "addresses": ["1H2rXyqXX9naYLsb9Jxvf2UvDLJrLRPEKj"], "asm": "OP_DUP OP_HASH160 afdbc70b61c898a21a6ae04b8517a6bc74841819 OP_EQUALVERIFY OP_CHECKSIG", "type": "pubkeyhash"}, "value": 0.00018825, "n": 0}, {"scriptPubKey": {"reqSigs": 1, "hex": "a91408c364340a91e77e4376b26fdad3b5aedc5661f787", "addresses": ["32VMQ7Th4qGhbDYY68FZrfSF9hTbsPivgt"], "asm": "OP_HASH160 08c364340a91e77e4376b26fdad3b5aedc5661f7 OP_EQUAL", "type": "scripthash"}, "value": 0.01931646, "n": 1}], "hex": "01000000000101e739f86700e17456e1844c771d70960b692477f754c4be97c9d921cbbc3c0603010000002322002027561ef61439ff4994ea3793249bbb358319edb59fff63c1eeada48f299e81b5ffffffff0289490000000000001976a914afdbc70b61c898a21a6ae04b8517a6bc7484181988ac7e791d000000000017a91408c364340a91e77e4376b26fdad3b5aedc5661f7870400483045022100cf6b6c9c1b3cb96dfcfa94f2f39f9b7e552a389581266aeb2184c2499e7f764002207f8ec687f66b66dff20046f47dbf24b9ba49b13ede4a64c79e96f525157500f3014730440220638a5ba1ae987430e0c2ec5de32660b7c49e290edd87d8296187dc0dcc889c9b0220252dedde4aab04cdaba3c14cd924fd23348ee2215e7fe9cf2995611dbbe8aa480147522102f484437eae67e7d1f9cf7235bd52510c99f379408a1f6fe737011d4bc259358a2103871fc2ca08e6950b38867e8e6a0e94ee625223d3aa0df5c65f414c6d784467e252ae00000000", "vin": [{"txinwitness": ["", "3045022100cf6b6c9c1b3cb96dfcfa94f2f39f9b7e552a389581266aeb2184c2499e7f764002207f8ec687f66b66dff20046f47dbf24b9ba49b13ede4a64c79e96f525157500f301", "30440220638a5ba1ae987430e0c2ec5de32660b7c49e290edd87d8296187dc0dcc889c9b0220252dedde4aab04cdaba3c14cd924fd23348ee2215e7fe9cf2995611dbbe8aa4801", "522102f484437eae67e7d1f9cf7235bd52510c99f379408a1f6fe737011d4bc259358a2103871fc2ca08e6950b38867e8e6a0e94ee625223d3aa0df5c65f414c6d784467e252ae"], "sequence": 4294967295, "scriptSig": {"hex": "22002027561ef61439ff4994ea3793249bbb358319edb59fff63c1eeada48f299e81b5", "asm": "002027561ef61439ff4994ea3793249bbb358319edb59fff63c1eeada48f299e81b5"}, "vout": 1, "txid": "03063cbccb21d9c997bec454f77724690b96701d774c84e15674e10067f839e7"}], "txid": "c2c330916eb2ed65f9148240d87ff1d3a5cd15f470cbfd288dbeb7ec3f7c666a", "blocktime": 1537876114, "version": 1, "confirmations": 11462, "time": 1537876114, "locktime": 0, "vsize": 208, "size": 373}