{"hash": "c2ce05acf8dd592d7177c3051bab95c0f52191e6b9fbe2be7a9d0f954e2beed3", "blockhash": "00000000000000000017f5eb5941039fbcee6240d03bc1f2f8e35350df66a1d8", "vout": [{"scriptPubKey": {"reqSigs": 1, "hex": "76a914c79f821d0e8bfd24506254b018c7a13edf4caaa988ac", "addresses": ["1KCWZ18HiMhHNSi7U88tgjLg3HpTKimMqf"], "asm": "OP_DUP OP_HASH160 c79f821d0e8bfd24506254b018c7a13edf4caaa9 OP_EQUALVERIFY OP_CHECKSIG", "type": "pubkeyhash"}, "value": 0.00078154, "n": 0}, {"scriptPubKey": {"reqSigs": 1, "hex": "76a914f20027d1feae48e95792fd8413d3365bd9afec3988ac", "addresses": ["1P4aiENq9LsbCZGazrjrU3oqWxd1B1JDn9"], "asm": "OP_DUP OP_HASH160 f20027d1feae48e95792fd8413d3365bd9afec39 OP_EQUALVERIFY OP_CHECKSIG", "type": "pubkeyhash"}, "value": 0.00197715, "n": 1}], "hex": "010000000188423f193a0baf5ac0376a20eb8bf9aa2e4a48a7a1af7492b938fb519b91c2a8000000006a47304402206067be7279c73529fcfeda621af4379c5aedc14ae5fc40306b053432fe88a47f022022987e91bf72085609a615ff6478a150c333269462f325726ec432d9f55df29e012103aeafc29d5d9c60831651dcabb6e6d9de8660d81176e0638b702d3661cf514bddffffffff024a310100000000001976a914c79f821d0e8bfd24506254b018c7a13edf4caaa988ac53040300000000001976a914f20027d1feae48e95792fd8413d3365bd9afec3988ac00000000", "vin": [{"sequence": 4294967295, "scriptSig": {"hex": "47304402206067be7279c73529fcfeda621af4379c5aedc14ae5fc40306b053432fe88a47f022022987e91bf72085609a615ff6478a150c333269462f325726ec432d9f55df29e012103aeafc29d5d9c60831651dcabb6e6d9de8660d81176e0638b702d3661cf514bdd", "asm": "304402206067be7279c73529fcfeda621af4379c5aedc14ae5fc40306b053432fe88a47f022022987e91bf72085609a615ff6478a150c333269462f325726ec432d9f55df29e[ALL] 03aeafc29d5d9c60831651dcabb6e6d9de8660d81176e0638b702d3661cf514bdd"}, "vout": 0, "txid": "a8c2919b51fb38b99274afa1a7484a2eaaf98beb206a37c05aaf0b3a193f4288"}], "txid": "c2ce05acf8dd592d7177c3051bab95c0f52191e6b9fbe2be7a9d0f954e2beed3", "blocktime": 1537874412, "version": 1, "confirmations": 11468, "time": 1537874412, "locktime": 0, "vsize": 225, "size": 225}