{"hash": "c2dd96c3a30b3ee13594f3740ff90c4bcc297887f6a290d1546037210c9c18db", "blockhash": "00000000000000000024a2167bbff67b0be802c0b01cdd79e6331c2be6459f87", "vout": [{"scriptPubKey": {"reqSigs": 1, "hex": "76a9145bea907cc7eb0fc8a36ce7ae4f2e481d3dfcf21c88ac", "addresses": ["19P1VH56Lmm3KfBUVixzbjcjLtN1iaAhDp"], "asm": "OP_DUP OP_HASH160 5bea907cc7eb0fc8a36ce7ae4f2e481d3dfcf21c OP_EQUALVERIFY OP_CHECKSIG", "type": "pubkeyhash"}, "value": 0.00180817, "n": 0}, {"scriptPubKey": {"reqSigs": 1, "hex": "76a91416b7b75f001c72355b03a1652c96c2f8e4504f6b88ac", "addresses": ["1357x42Ju91hcxhdynKM9ShUCWTXpHqnrQ"], "asm": "OP_DUP OP_HASH160 16b7b75f001c72355b03a1652c96c2f8e4504f6b OP_EQUALVERIFY OP_CHECKSIG", "type": "pubkeyhash"}, "value": 0.04586987, "n": 1}], "hex": "010000000a67081769806bbc2494b89d7a1c4936b5d3788757d13006736687feec3812e924000000006b483045022100b2f26ab66cf667dd0d9934baef5dc6da872c43755f0e3f1b5ea18edc6b5b5c1902200e871e0cbe2a2cf00cb151362eb6be5d9b83bc90a7acc923f79d4a713dd6ab11012102a430bb1b7fcb7a41f7ca883d87132d9a7ab7b9484fd746e345a7765e942f0f97ffffffff7a1cb53429173da28d84c2d4efdccf0c034d7b4117a334846cd9c923c0921747000000006b4830450221008d08e89ce58c8659f5a110a5a190b5db7cdd1fbba6491577be9b37e412cc6b65022028fa0ca421c913325e3ab848314e29f6d363091641783a3dc428082b47be9b3401210360fcae78bac9ba3ef5cf94e92e555c0c532a90d67473fcee080a7ec2cc74b168ffffffff78321876815bdab0f56c65d23d8e645fbb39661aef6361d6786f86f76fd54f54000000006b48304502210090d678fca3ca2225b753bb9e9916e010ffa9a81790fb8d48dc1003d089a77e56022058b687486e3228dd126efe19441a3f1bbd7b1ed2fe11461d1e702efc2ad6a44e01210360fcae78bac9ba3ef5cf94e92e555c0c532a90d67473fcee080a7ec2cc74b168ffffffff9158fe9998bf17df30e546a18fc675497211f47b3291c37dd22197f5d92ea770000000006b483045022100ed400fd11b58a300a7f0bd13c346ee7e54c620df012ae32a30bbcd3f2b798796022021ed8772668a4efea83fc0fa240e927fd4b241892f55cafdb9ba4a2f1f1c7ffd012102a430bb1b7fcb7a41f7ca883d87132d9a7ab7b9484fd746e345a7765e942f0f97ffffffff80e5d6dce00602d24baec111b293e7c95abeb3284160c377c46c8b0d0a649085000000006b483045022100f7f10f2ba27cb1e0e3b0244837374f61905b43187d3965db6930244d600402f0022014932feee60d26de2e7b31c21ed1937d38e4459f5b3b0796bee56bd58162a2d501210360fcae78bac9ba3ef5cf94e92e555c0c532a90d67473fcee080a7ec2cc74b168ffffffffaf35d10f7430644fe27d515d30fb82342ccca1da5a34d6a5d647ed2c77d61d95000000006a473044022052f09ccc607096a979458a5437ab46ea5d122556720b34c9f2dbacc940c986cc022015dbb0cb1ad6b1cf468498e8765a531898c4184fa829a568dbde66a4264b4a2001210216628877683b5a41204d825a00cf2d74bba1f6708301d016c8f37fd3f0e25965ffffffff3c6626c80b0b00e12068c02690cf926a79e9cf5a53a823cb50d74161a79bf098000000006b483045022100d31f7a914f9b0322b3ed41fa7953f64b8fbe69e3f9e97535b2fc1fdb4b5b730a02207b5d46395f1d3e6b1b7c2c0c46d77cf31204ab0bc597ccf767ade6e69d6516e601210360fcae78bac9ba3ef5cf94e92e555c0c532a90d67473fcee080a7ec2cc74b168ffffffff21a7a15380a641c625537c7c29a8e96e9b0251e01faf3e9036bfb29e8909a999000000006a47304402207b15a5f9a222f1ebb8e30544cad72ea25f968e43e8b42e7729e45e905a87bee20220736197a61ca42c879fe1f238566ccc9a52105ac6b3573b86d9e5bef31145da0d01210360fcae78bac9ba3ef5cf94e92e555c0c532a90d67473fcee080a7ec2cc74b168ffffffff4228dc8e5c482f0bfcb05c9857a5795377925aad89b5ceb3bfd74f2c70bdc4ce000000006a47304402205f77cf4d4dc7459ddbaab65b3275e60cadbc0a0e1f84c290a94a7483d1d082560220622dfb2ae6bc04e5adeb38ac735d5cab3662f26e0001fc602ca240c2c73ac17b01210360fcae78bac9ba3ef5cf94e92e555c0c532a90d67473fcee080a7ec2cc74b168ffffffffe7f2383bbfe75171bedc39224d608e60176907df1a599783585c20f6595eb7ed000000006b483045022100c16e0613aa0a4e1fd6ab951a1a22f74d147e4b1765bb6c12503a3f2b221dcef0022025164e090a320b9a0cc050575efb40583d3227feba4d0d6ed838858e3e83884e01210360fcae78bac9ba3ef5cf94e92e555c0c532a90d67473fcee080a7ec2cc74b168ffffffff0251c20200000000001976a9145bea907cc7eb0fc8a36ce7ae4f2e481d3dfcf21c88acebfd4500000000001976a91416b7b75f001c72355b03a1652c96c2f8e4504f6b88ac00000000", "vin": [{"sequence": 4294967295, "scriptSig": {"hex": "483045022100b2f26ab66cf667dd0d9934baef5dc6da872c43755f0e3f1b5ea18edc6b5b5c1902200e871e0cbe2a2cf00cb151362eb6be5d9b83bc90a7acc923f79d4a713dd6ab11012102a430bb1b7fcb7a41f7ca883d87132d9a7ab7b9484fd746e345a7765e942f0f97", "asm": "3045022100b2f26ab66cf667dd0d9934baef5dc6da872c43755f0e3f1b5ea18edc6b5b5c1902200e871e0cbe2a2cf00cb151362eb6be5d9b83bc90a7acc923f79d4a713dd6ab11[ALL] 02a430bb1b7fcb7a41f7ca883d87132d9a7ab7b9484fd746e345a7765e942f0f97"}, "vout": 0, "txid": "24e91238ecfe8766730630d1578778d3b536491c7a9db89424bc6b8069170867"}, {"sequence": 4294967295, "scriptSig": {"hex": "4830450221008d08e89ce58c8659f5a110a5a190b5db7cdd1fbba6491577be9b37e412cc6b65022028fa0ca421c913325e3ab848314e29f6d363091641783a3dc428082b47be9b3401210360fcae78bac9ba3ef5cf94e92e555c0c532a90d67473fcee080a7ec2cc74b168", "asm": "30450221008d08e89ce58c8659f5a110a5a190b5db7cdd1fbba6491577be9b37e412cc6b65022028fa0ca421c913325e3ab848314e29f6d363091641783a3dc428082b47be9b34[ALL] 0360fcae78bac9ba3ef5cf94e92e555c0c532a90d67473fcee080a7ec2cc74b168"}, "vout": 0, "txid": "471792c023c9d96c8434a317417b4d030ccfdcefd4c2848da23d172934b51c7a"}, {"sequence": 4294967295, "scriptSig": {"hex": "48304502210090d678fca3ca2225b753bb9e9916e010ffa9a81790fb8d48dc1003d089a77e56022058b687486e3228dd126efe19441a3f1bbd7b1ed2fe11461d1e702efc2ad6a44e01210360fcae78bac9ba3ef5cf94e92e555c0c532a90d67473fcee080a7ec2cc74b168", "asm": "304502210090d678fca3ca2225b753bb9e9916e010ffa9a81790fb8d48dc1003d089a77e56022058b687486e3228dd126efe19441a3f1bbd7b1ed2fe11461d1e702efc2ad6a44e[ALL] 0360fcae78bac9ba3ef5cf94e92e555c0c532a90d67473fcee080a7ec2cc74b168"}, "vout": 0, "txid": "544fd56ff7866f78d66163ef1a6639bb5f648e3dd2656cf5b0da5b8176183278"}, {"sequence": 4294967295, "scriptSig": {"hex": "483045022100ed400fd11b58a300a7f0bd13c346ee7e54c620df012ae32a30bbcd3f2b798796022021ed8772668a4efea83fc0fa240e927fd4b241892f55cafdb9ba4a2f1f1c7ffd012102a430bb1b7fcb7a41f7ca883d87132d9a7ab7b9484fd746e345a7765e942f0f97", "asm": "3045022100ed400fd11b58a300a7f0bd13c346ee7e54c620df012ae32a30bbcd3f2b798796022021ed8772668a4efea83fc0fa240e927fd4b241892f55cafdb9ba4a2f1f1c7ffd[ALL] 02a430bb1b7fcb7a41f7ca883d87132d9a7ab7b9484fd746e345a7765e942f0f97"}, "vout": 0, "txid": "70a72ed9f59721d27dc391327bf411724975c68fa146e530df17bf9899fe5891"}, {"sequence": 4294967295, "scriptSig": {"hex": "483045022100f7f10f2ba27cb1e0e3b0244837374f61905b43187d3965db6930244d600402f0022014932feee60d26de2e7b31c21ed1937d38e4459f5b3b0796bee56bd58162a2d501210360fcae78bac9ba3ef5cf94e92e555c0c532a90d67473fcee080a7ec2cc74b168", "asm": "3045022100f7f10f2ba27cb1e0e3b0244837374f61905b43187d3965db6930244d600402f0022014932feee60d26de2e7b31c21ed1937d38e4459f5b3b0796bee56bd58162a2d5[ALL] 0360fcae78bac9ba3ef5cf94e92e555c0c532a90d67473fcee080a7ec2cc74b168"}, "vout": 0, "txid": "8590640a0d8b6cc477c3604128b3be5ac9e793b211c1ae4bd20206e0dcd6e580"}, {"sequence": 4294967295, "scriptSig": {"hex": "473044022052f09ccc607096a979458a5437ab46ea5d122556720b34c9f2dbacc940c986cc022015dbb0cb1ad6b1cf468498e8765a531898c4184fa829a568dbde66a4264b4a2001210216628877683b5a41204d825a00cf2d74bba1f6708301d016c8f37fd3f0e25965", "asm": "3044022052f09ccc607096a979458a5437ab46ea5d122556720b34c9f2dbacc940c986cc022015dbb0cb1ad6b1cf468498e8765a531898c4184fa829a568dbde66a4264b4a20[ALL] 0216628877683b5a41204d825a00cf2d74bba1f6708301d016c8f37fd3f0e25965"}, "vout": 0, "txid": "951dd6772ced47d6a5d6345adaa1cc2c3482fb305d517de24f6430740fd135af"}, {"sequence": 4294967295, "scriptSig": {"hex": "483045022100d31f7a914f9b0322b3ed41fa7953f64b8fbe69e3f9e97535b2fc1fdb4b5b730a02207b5d46395f1d3e6b1b7c2c0c46d77cf31204ab0bc597ccf767ade6e69d6516e601210360fcae78bac9ba3ef5cf94e92e555c0c532a90d67473fcee080a7ec2cc74b168", "asm": "3045022100d31f7a914f9b0322b3ed41fa7953f64b8fbe69e3f9e97535b2fc1fdb4b5b730a02207b5d46395f1d3e6b1b7c2c0c46d77cf31204ab0bc597ccf767ade6e69d6516e6[ALL] 0360fcae78bac9ba3ef5cf94e92e555c0c532a90d67473fcee080a7ec2cc74b168"}, "vout": 0, "txid": "98f09ba76141d750cb23a8535acfe9796a92cf9026c06820e1000b0bc826663c"}, {"sequence": 4294967295, "scriptSig": {"hex": "47304402207b15a5f9a222f1ebb8e30544cad72ea25f968e43e8b42e7729e45e905a87bee20220736197a61ca42c879fe1f238566ccc9a52105ac6b3573b86d9e5bef31145da0d01210360fcae78bac9ba3ef5cf94e92e555c0c532a90d67473fcee080a7ec2cc74b168", "asm": "304402207b15a5f9a222f1ebb8e30544cad72ea25f968e43e8b42e7729e45e905a87bee20220736197a61ca42c879fe1f238566ccc9a52105ac6b3573b86d9e5bef31145da0d[ALL] 0360fcae78bac9ba3ef5cf94e92e555c0c532a90d67473fcee080a7ec2cc74b168"}, "vout": 0, "txid": "99a909899eb2bf36903eaf1fe051029b6ee9a8297c7c5325c641a68053a1a721"}, {"sequence": 4294967295, "scriptSig": {"hex": "47304402205f77cf4d4dc7459ddbaab65b3275e60cadbc0a0e1f84c290a94a7483d1d082560220622dfb2ae6bc04e5adeb38ac735d5cab3662f26e0001fc602ca240c2c73ac17b01210360fcae78bac9ba3ef5cf94e92e555c0c532a90d67473fcee080a7ec2cc74b168", "asm": "304402205f77cf4d4dc7459ddbaab65b3275e60cadbc0a0e1f84c290a94a7483d1d082560220622dfb2ae6bc04e5adeb38ac735d5cab3662f26e0001fc602ca240c2c73ac17b[ALL] 0360fcae78bac9ba3ef5cf94e92e555c0c532a90d67473fcee080a7ec2cc74b168"}, "vout": 0, "txid": "cec4bd702c4fd7bfb3ceb589ad5a92775379a557985cb0fc0b2f485c8edc2842"}, {"sequence": 4294967295, "scriptSig": {"hex": "483045022100c16e0613aa0a4e1fd6ab951a1a22f74d147e4b1765bb6c12503a3f2b221dcef0022025164e090a320b9a0cc050575efb40583d3227feba4d0d6ed838858e3e83884e01210360fcae78bac9ba3ef5cf94e92e555c0c532a90d67473fcee080a7ec2cc74b168", "asm": "3045022100c16e0613aa0a4e1fd6ab951a1a22f74d147e4b1765bb6c12503a3f2b221dcef0022025164e090a320b9a0cc050575efb40583d3227feba4d0d6ed838858e3e83884e[ALL] 0360fcae78bac9ba3ef5cf94e92e555c0c532a90d67473fcee080a7ec2cc74b168"}, "vout": 0, "txid": "edb75e59f6205c588397591adf076917608e604d2239dcbe7151e7bf3b38f2e7"}], "txid": "c2dd96c3a30b3ee13594f3740ff90c4bcc297887f6a290d1546037210c9c18db", "blocktime": 1537870564, "version": 1, "confirmations": 11515, "time": 1537870564, "locktime": 0, "vsize": 1555, "size": 1555}