{"hash": "c2e090b137579c41c4b87c1325f55d766e384dcf2e384b31d737351930239243", "blockhash": "0000000000000000000baef3f32e3676a92c3b2e5da21b426e4f302fc371ce76", "vout": [{"scriptPubKey": {"reqSigs": 1, "hex": "76a914d243e6abb9a60fbff430b421d2df4b7d59ec186088ac", "addresses": ["1LAnF8h3qMGx3TSwNUHVneBZUEpwE4gu3D"], "asm": "OP_DUP OP_HASH160 d243e6abb9a60fbff430b421d2df4b7d59ec1860 OP_EQUALVERIFY OP_CHECKSIG", "type": "pubkeyhash"}, "value": 0.00076972, "n": 0}, {"scriptPubKey": {"reqSigs": 1, "hex": "76a9143851f34d13937b673a7d24a1950bb5b21ce94af388ac", "addresses": ["168o1kqNquEJeR9vosUB5fw4eAwcVAgh8P"], "asm": "OP_DUP OP_HASH160 3851f34d13937b673a7d24a1950bb5b21ce94af3 OP_EQUALVERIFY OP_CHECKSIG", "type": "pubkeyhash"}, "value": 5.46e-06, "n": 1}, {"scriptPubKey": {"type": "nulldata", "hex": "6a146f6d6e69000000000000001f0000001734cb8180", "asm": "OP_RETURN 6f6d6e69000000000000001f0000001734cb8180"}, "value": 0.0, "n": 2}], "hex": "0100000002bf092212291866ff65153d85f7bc2bfcd79d74bd140d48062d38ca7e823f67fa010000006a47304402201687907e9ff1f491d5efc4412cbe070fd62e644f5aad14864d68a9ad2f744c8702201bab17a9d82e337e7ccf6e8fc3d8b592de40cae8aa72d8913b252bfc56f95533012103942afd957125adfd4e424a4864b12a5fd1d7dcfb26dcd350604aa57a4a1f6d1fffffffff408dd0b3bbc5324a004508206bb44e2f9c54c70f98d0fb84b711ca823bbba8e2000000006a473044022030962b0756af9d93c3905926bc0f74d7e28dd32cc59296f5313e9443a19c9f02022019aa6b330b9dd2dbcf3a1b00a8affd7486d9e7f7b10c9335b65f5bf08ef5cfc601210271977291b74f1f5f5c42157e8aae804664eaaeccfd097918450d37f28fb94d77ffffffff03ac2c0100000000001976a914d243e6abb9a60fbff430b421d2df4b7d59ec186088ac22020000000000001976a9143851f34d13937b673a7d24a1950bb5b21ce94af388ac0000000000000000166a146f6d6e69000000000000001f0000001734cb818000000000", "vin": [{"sequence": 4294967295, "scriptSig": {"hex": "47304402201687907e9ff1f491d5efc4412cbe070fd62e644f5aad14864d68a9ad2f744c8702201bab17a9d82e337e7ccf6e8fc3d8b592de40cae8aa72d8913b252bfc56f95533012103942afd957125adfd4e424a4864b12a5fd1d7dcfb26dcd350604aa57a4a1f6d1f", "asm": "304402201687907e9ff1f491d5efc4412cbe070fd62e644f5aad14864d68a9ad2f744c8702201bab17a9d82e337e7ccf6e8fc3d8b592de40cae8aa72d8913b252bfc56f95533[ALL] 03942afd957125adfd4e424a4864b12a5fd1d7dcfb26dcd350604aa57a4a1f6d1f"}, "vout": 1, "txid": "fa673f827eca382d06480d14bd749dd7fc2bbcf7853d1565ff661829122209bf"}, {"sequence": 4294967295, "scriptSig": {"hex": "473044022030962b0756af9d93c3905926bc0f74d7e28dd32cc59296f5313e9443a19c9f02022019aa6b330b9dd2dbcf3a1b00a8affd7486d9e7f7b10c9335b65f5bf08ef5cfc601210271977291b74f1f5f5c42157e8aae804664eaaeccfd097918450d37f28fb94d77", "asm": "3044022030962b0756af9d93c3905926bc0f74d7e28dd32cc59296f5313e9443a19c9f02022019aa6b330b9dd2dbcf3a1b00a8affd7486d9e7f7b10c9335b65f5bf08ef5cfc6[ALL] 0271977291b74f1f5f5c42157e8aae804664eaaeccfd097918450d37f28fb94d77"}, "vout": 0, "txid": "e2a8bb3b82ca11b784fbd0980fc7549c2f4eb46b200845004a32c5bbb3d08d40"}], "txid": "c2e090b137579c41c4b87c1325f55d766e384dcf2e384b31d737351930239243", "blocktime": 1537876114, "version": 1, "confirmations": 11460, "time": 1537876114, "locktime": 0, "vsize": 403, "size": 403}