{"hash": "c2e25cfc373887207db5797ca3ce3b54b6d9208d6166fabf94b60e4c2feb05fb", "blockhash": "0000000000000000001e0dab787dd257d1dbfcb92a98c2207d5e1078be1f4165", "vout": [{"scriptPubKey": {"reqSigs": 1, "hex": "76a914752bc46cd39ccbbe4001185044ebfa82ad98e86888ac", "addresses": ["1BgYVT1fLbGyd9NRxvhKFCJsAX1Mq2TwSG"], "asm": "OP_DUP OP_HASH160 752bc46cd39ccbbe4001185044ebfa82ad98e868 OP_EQUALVERIFY OP_CHECKSIG", "type": "pubkeyhash"}, "value": 0.000256, "n": 0}, {"scriptPubKey": {"reqSigs": 1, "hex": "a91481be8820ffce1095f997a199093c6034bd337e2b87", "addresses": ["3DX3Lfi4zxcNWDytUeSEWvHiv9btRQYYaq"], "asm": "OP_HASH160 81be8820ffce1095f997a199093c6034bd337e2b OP_EQUAL", "type": "scripthash"}, "value": 0.00157, "n": 1}], "hex": "01000000018a39c6b9d86f3cd39b58cfef5d0919c72b6b4ade0ef03c1ab501450b37a35bf9000000006a47304402205bdbc9245287aecc4883d86b0d68c4862200e590593b7564a2a7f9d79b6329850220102fe36a392778a7da633001eb466ab631cbfdee7f463794846ddc6f6b4c381e012102a782edffa229ae2b6cc1040f53967aa4aa16b9c6008050cdfd35d36b80503e46feffffff0200640000000000001976a914752bc46cd39ccbbe4001185044ebfa82ad98e86888ac486502000000000017a91481be8820ffce1095f997a199093c6034bd337e2b8712490800", "vin": [{"sequence": 4294967294, "scriptSig": {"hex": "47304402205bdbc9245287aecc4883d86b0d68c4862200e590593b7564a2a7f9d79b6329850220102fe36a392778a7da633001eb466ab631cbfdee7f463794846ddc6f6b4c381e012102a782edffa229ae2b6cc1040f53967aa4aa16b9c6008050cdfd35d36b80503e46", "asm": "304402205bdbc9245287aecc4883d86b0d68c4862200e590593b7564a2a7f9d79b6329850220102fe36a392778a7da633001eb466ab631cbfdee7f463794846ddc6f6b4c381e[ALL] 02a782edffa229ae2b6cc1040f53967aa4aa16b9c6008050cdfd35d36b80503e46"}, "vout": 0, "txid": "f95ba3370b4501b51a3cf00ede4a6b2bc719095defcf589bd33c6fd8b9c6398a"}], "txid": "c2e25cfc373887207db5797ca3ce3b54b6d9208d6166fabf94b60e4c2feb05fb", "blocktime": 1537872475, "version": 1, "confirmations": 11486, "time": 1537872475, "locktime": 542994, "vsize": 223, "size": 223}