{"hash": "c2edf076d20be2125d9cb8cbc804ddec9e0a83e0593c07674db1cbdcb2804abb", "blockhash": "00000000000000000017f5eb5941039fbcee6240d03bc1f2f8e35350df66a1d8", "vout": [{"scriptPubKey": {"reqSigs": 1, "hex": "76a91470cdb3a843e5c71add0c87f117509f36d05ba7e388ac", "addresses": ["1BHT6tx4w1n1xbuMY5MbbP9Fpw6SxUBM6o"], "asm": "OP_DUP OP_HASH160 70cdb3a843e5c71add0c87f117509f36d05ba7e3 OP_EQUALVERIFY OP_CHECKSIG", "type": "pubkeyhash"}, "value": 0.00951891, "n": 0}, {"scriptPubKey": {"reqSigs": 1, "hex": "76a914198a8a35caa86b341623a04d343f607fb6519aeb88ac", "addresses": ["13L3riWJEM3uCZAvzoFV5gYuQ53qhNG6Zh"], "asm": "OP_DUP OP_HASH160 198a8a35caa86b341623a04d343f607fb6519aeb OP_EQUALVERIFY OP_CHECKSIG", "type": "pubkeyhash"}, "value": 0.03205349, "n": 1}], "hex": "0100000002b75cf00e602e76b592450aa99273cbb47f0cdd25d9c9548652ccc43c31fa1352010000006a473044022004b2c107aa91bffe8d0bf45a92a0f5041c849b3c3baf364f24f969f78a0aa6b602207a96837f5caa193931a6a9eb2622a95d9b56b5b246b270bd0b91293ad29f6796012102c71bfc550c171d700ed6ede98e7c0d7a04b4bf7b01f703d9bc8d5dd5e3a18cd0ffffffff5870f2c601e70b8a8c19eba96ce91cfee2bac035934f097ae001aaed8f8ed5bb010000006b4830450221009d74ce5d3b5553a82a15fe8552b0b1670e8d9829bee75edc02e0b5349fa2b342022067914a86f1f6e4be6fb480c159f4f3dd6e094435a36baa2e500ef0d0089d54930121036aa49fd1c2baa3790a38236e960fc012cf009fa7c382f6722f8544a76de32e10ffffffff0253860e00000000001976a91470cdb3a843e5c71add0c87f117509f36d05ba7e388ace5e83000000000001976a914198a8a35caa86b341623a04d343f607fb6519aeb88ac00000000", "vin": [{"sequence": 4294967295, "scriptSig": {"hex": "473044022004b2c107aa91bffe8d0bf45a92a0f5041c849b3c3baf364f24f969f78a0aa6b602207a96837f5caa193931a6a9eb2622a95d9b56b5b246b270bd0b91293ad29f6796012102c71bfc550c171d700ed6ede98e7c0d7a04b4bf7b01f703d9bc8d5dd5e3a18cd0", "asm": "3044022004b2c107aa91bffe8d0bf45a92a0f5041c849b3c3baf364f24f969f78a0aa6b602207a96837f5caa193931a6a9eb2622a95d9b56b5b246b270bd0b91293ad29f6796[ALL] 02c71bfc550c171d700ed6ede98e7c0d7a04b4bf7b01f703d9bc8d5dd5e3a18cd0"}, "vout": 1, "txid": "5213fa313cc4cc528654c9d925dd0c7fb4cb7392a90a4592b5762e600ef05cb7"}, {"sequence": 4294967295, "scriptSig": {"hex": "4830450221009d74ce5d3b5553a82a15fe8552b0b1670e8d9829bee75edc02e0b5349fa2b342022067914a86f1f6e4be6fb480c159f4f3dd6e094435a36baa2e500ef0d0089d54930121036aa49fd1c2baa3790a38236e960fc012cf009fa7c382f6722f8544a76de32e10", "asm": "30450221009d74ce5d3b5553a82a15fe8552b0b1670e8d9829bee75edc02e0b5349fa2b342022067914a86f1f6e4be6fb480c159f4f3dd6e094435a36baa2e500ef0d0089d5493[ALL] 036aa49fd1c2baa3790a38236e960fc012cf009fa7c382f6722f8544a76de32e10"}, "vout": 1, "txid": "bbd58e8fedaa01e07a094f9335c0bae2fe1ce96ca9eb198c8a0be701c6f27058"}], "txid": "c2edf076d20be2125d9cb8cbc804ddec9e0a83e0593c07674db1cbdcb2804abb", "blocktime": 1537874412, "version": 1, "confirmations": 11468, "time": 1537874412, "locktime": 0, "vsize": 373, "size": 373}