{"hash": "5b131aa1f8fbc7306c100bc4cf780656013d8766e7e96e9476629d4c09c12193", "blockhash": "0000000000000000001e0dab787dd257d1dbfcb92a98c2207d5e1078be1f4165", "vout": [{"scriptPubKey": {"reqSigs": 1, "hex": "76a91408e75b9891aef9e89206a1fb34f61a702d2ea66d88ac", "addresses": ["1p5ZZFyoE5KNE1kFWGXjwBuxAQGHJKMfF"], "asm": "OP_DUP OP_HASH160 08e75b9891aef9e89206a1fb34f61a702d2ea66d OP_EQUALVERIFY OP_CHECKSIG", "type": "pubkeyhash"}, "value": 0.0068, "n": 0}, {"scriptPubKey": {"reqSigs": 1, "hex": "a91407e9ddf650ad2a34312339296795c9c9d78fc35487", "addresses": ["32QrpFeYfWy5UaCjgUWk7a2oJmVtArhihq"], "asm": "OP_HASH160 07e9ddf650ad2a34312339296795c9c9d78fc354 OP_EQUAL", "type": "scripthash"}, "value": 8.43325808, "n": 1}], "hex": "0200000000010167fba57ac2c8c0afd1066bf62318ce3971875d655669730da857feb8dd76e59200000000171600144b127c918d81fe51075c644f44243287da18423efeffffff0240600a00000000001976a91408e75b9891aef9e89206a1fb34f61a702d2ea66d88ac702144320000000017a91407e9ddf650ad2a34312339296795c9c9d78fc3548702483045022100e174860f0ac0c280b4e3143daca950a31af55febbc5e67b95105ac5dc24c229b02204ef002097a0110c0c40d2c309bc891246139d2ae1193de443bd052014556842b012103b1f4b34016c964b6ae140dc478a986eea53da5768027bc4b66848b1f7115342612490800", "vin": [{"txinwitness": ["3045022100e174860f0ac0c280b4e3143daca950a31af55febbc5e67b95105ac5dc24c229b02204ef002097a0110c0c40d2c309bc891246139d2ae1193de443bd052014556842b01", "03b1f4b34016c964b6ae140dc478a986eea53da5768027bc4b66848b1f71153426"], "sequence": 4294967294, "scriptSig": {"hex": "1600144b127c918d81fe51075c644f44243287da18423e", "asm": "00144b127c918d81fe51075c644f44243287da18423e"}, "vout": 0, "txid": "92e576ddb8fe57a80d736956655d877139ce1823f66b06d1afc0c8c27aa5fb67"}], "txid": "c2f7d9e2dd77e432a841ef71b0eef1d6967c15915d3034b61a495c935ddcfc28", "blocktime": 1537872475, "version": 2, "confirmations": 11486, "time": 1537872475, "locktime": 542994, "vsize": 168, "size": 250}