{"hash": "c2f73c3fb06de02d12e1fed43b3e3c03f7a97bf2570f74138b653bafb335fcbc", "blockhash": "0000000000000000001cda96e906b7601b7a6fb1a3b62bca570a9e5d8f4b3de1", "vout": [{"scriptPubKey": {"type": "nulldata", "hex": "6a4c50000077c10001e9c5dd43c2335cac7bfc03a6e5bf9ae76da98a211aaf6c953dd567cf27e70fc5dc1aa92c23a796bccb3236380c055baa12b60612efd997c6c6ed1d100759d4ba30d2c37bb011d97e02cf", "asm": "OP_RETURN 000077c10001e9c5dd43c2335cac7bfc03a6e5bf9ae76da98a211aaf6c953dd567cf27e70fc5dc1aa92c23a796bccb3236380c055baa12b60612efd997c6c6ed1d100759d4ba30d2c37bb011d97e02cf"}, "value": 0.0, "n": 0}, {"scriptPubKey": {"reqSigs": 1, "hex": "76a9140c525220baffbdaf1599402cc9ef0c1a12a3460f88ac", "addresses": ["1289j42mw9qJdiBkg2VgEmXSPGDawvdZQK"], "asm": "OP_DUP OP_HASH160 0c525220baffbdaf1599402cc9ef0c1a12a3460f OP_EQUALVERIFY OP_CHECKSIG", "type": "pubkeyhash"}, "value": 0.00639746, "n": 1}], "hex": "010000000184cc8d429d94cb6c8b7b7885875f4aa05b5136e17e428c9d61de85abc9240ee1010000006b483045022100fa69f14408ebfe8c8a518a530401ff9e1d404adecb956832c4dc1a1cb443809a02200a415bb837be8954b397856cd584720f3bdc32412373a4d363e573a8e21f7b1601210203616b24ff10ec264feed616c151843f79e77c07a75d50c871fe3ae92cbaa18affffffff020000000000000000536a4c50000077c10001e9c5dd43c2335cac7bfc03a6e5bf9ae76da98a211aaf6c953dd567cf27e70fc5dc1aa92c23a796bccb3236380c055baa12b60612efd997c6c6ed1d100759d4ba30d2c37bb011d97e02cf02c30900000000001976a9140c525220baffbdaf1599402cc9ef0c1a12a3460f88ac00000000", "vin": [{"sequence": 4294967295, "scriptSig": {"hex": "483045022100fa69f14408ebfe8c8a518a530401ff9e1d404adecb956832c4dc1a1cb443809a02200a415bb837be8954b397856cd584720f3bdc32412373a4d363e573a8e21f7b1601210203616b24ff10ec264feed616c151843f79e77c07a75d50c871fe3ae92cbaa18a", "asm": "3045022100fa69f14408ebfe8c8a518a530401ff9e1d404adecb956832c4dc1a1cb443809a02200a415bb837be8954b397856cd584720f3bdc32412373a4d363e573a8e21f7b16[ALL] 0203616b24ff10ec264feed616c151843f79e77c07a75d50c871fe3ae92cbaa18a"}, "vout": 1, "txid": "e10e24c9ab85de619d8c427ee136515ba04a5f8785787b8b6ccb949d428dcc84"}], "txid": "c2f73c3fb06de02d12e1fed43b3e3c03f7a97bf2570f74138b653bafb335fcbc", "blocktime": 1537873282, "version": 1, "confirmations": 11484, "time": 1537873282, "locktime": 0, "vsize": 284, "size": 284}