{"hash": "c2fb335626d9722dc80c44d6bcdb997bbf71fde6a2448276980506bf8f9a23e8", "blockhash": "0000000000000000001cda96e906b7601b7a6fb1a3b62bca570a9e5d8f4b3de1", "vout": [{"scriptPubKey": {"reqSigs": 1, "hex": "76a914f7f660d7011870246790924278aabe06d8bbc8ac88ac", "addresses": ["1Pc743cwhAQzHb8UjVtfWnJcpvxdpYc62C"], "asm": "OP_DUP OP_HASH160 f7f660d7011870246790924278aabe06d8bbc8ac OP_EQUALVERIFY OP_CHECKSIG", "type": "pubkeyhash"}, "value": 0.149265, "n": 0}, {"scriptPubKey": {"reqSigs": 1, "hex": "76a914ca893655edccc8ab0abb43bdef03952c8f5d057888ac", "addresses": ["1KTusRb4gHm77RBmjwAEfw9bUbHixfvhPt"], "asm": "OP_DUP OP_HASH160 ca893655edccc8ab0abb43bdef03952c8f5d0578 OP_EQUALVERIFY OP_CHECKSIG", "type": "pubkeyhash"}, "value": 4.72619888, "n": 1}], "hex": "0200000001e9bece9bee5203e53d92d6839c758545390681fefad8f103b0df97343fe2a934000000006a4730440220461df17d65cdd5292ec1ec91ce174ee66782f4170d5eb63d7b7add26bb787285022020f54cd2ea18158c5ac212e3a6f4a6ce50b0da812d219c8169033bcd7a4b38c6012103b62bb90becf03f6038c246851a5d1653576bcbdf77b1207916daa11ac11fa224fdffffff02a4c2e300000000001976a914f7f660d7011870246790924278aabe06d8bbc8ac88ac709b2b1c000000001976a914ca893655edccc8ab0abb43bdef03952c8f5d057888ac08490800", "vin": [{"sequence": 4294967293, "scriptSig": {"hex": "4730440220461df17d65cdd5292ec1ec91ce174ee66782f4170d5eb63d7b7add26bb787285022020f54cd2ea18158c5ac212e3a6f4a6ce50b0da812d219c8169033bcd7a4b38c6012103b62bb90becf03f6038c246851a5d1653576bcbdf77b1207916daa11ac11fa224", "asm": "30440220461df17d65cdd5292ec1ec91ce174ee66782f4170d5eb63d7b7add26bb787285022020f54cd2ea18158c5ac212e3a6f4a6ce50b0da812d219c8169033bcd7a4b38c6[ALL] 03b62bb90becf03f6038c246851a5d1653576bcbdf77b1207916daa11ac11fa224"}, "vout": 0, "txid": "34a9e23f3497dfb003f1d8fafe8106394585759c83d6923de50352ee9bcebee9"}], "txid": "c2fb335626d9722dc80c44d6bcdb997bbf71fde6a2448276980506bf8f9a23e8", "blocktime": 1537873282, "version": 2, "confirmations": 11481, "time": 1537873282, "locktime": 542984, "vsize": 225, "size": 225}