{"hash": "c300ffb02ceb4251aa2db34cb0f5b094dbdf60835335d2d4fbb0fef2c996d311", "blockhash": "0000000000000000001cda96e906b7601b7a6fb1a3b62bca570a9e5d8f4b3de1", "vout": [{"scriptPubKey": {"reqSigs": 1, "hex": "76a91400048ee4a59c829b3ac7b8e9b0aea5edd614843188ac", "addresses": ["116Ti3XPC6vzLpvXiBtU1u6hC94kkNFGx"], "asm": "OP_DUP OP_HASH160 00048ee4a59c829b3ac7b8e9b0aea5edd6148431 OP_EQUALVERIFY OP_CHECKSIG", "type": "pubkeyhash"}, "value": 0.011, "n": 0}, {"scriptPubKey": {"reqSigs": 1, "hex": "76a914292b288b5e043b206b97c9f3ffdbe58a103656bc88ac", "addresses": ["14kgQZaJG7cHFJaunud69ZSV3y4vBFTgYz"], "asm": "OP_DUP OP_HASH160 292b288b5e043b206b97c9f3ffdbe58a103656bc OP_EQUALVERIFY OP_CHECKSIG", "type": "pubkeyhash"}, "value": 0.03365644, "n": 1}], "hex": "01000000019281d11061a30db5092aa5498cf4818e5ab5c0a9f72a4a7d1325792d02fa71c4010000006a47304402205b5b71967628a2af3ef15033cc34f9d2e7c4d7e317b428299299f90f3720387c02205e29276b30327d24ef9ef2351d860bcd10a66f848a6e4659c0347545fe389a25012103bdf1a94803ab13fbc4e644bfc356819ec20015444168959de9dd10c0364c5e8fffffffff02e0c81000000000001976a91400048ee4a59c829b3ac7b8e9b0aea5edd614843188ac0c5b3300000000001976a914292b288b5e043b206b97c9f3ffdbe58a103656bc88ac00000000", "vin": [{"sequence": 4294967295, "scriptSig": {"hex": "47304402205b5b71967628a2af3ef15033cc34f9d2e7c4d7e317b428299299f90f3720387c02205e29276b30327d24ef9ef2351d860bcd10a66f848a6e4659c0347545fe389a25012103bdf1a94803ab13fbc4e644bfc356819ec20015444168959de9dd10c0364c5e8f", "asm": "304402205b5b71967628a2af3ef15033cc34f9d2e7c4d7e317b428299299f90f3720387c02205e29276b30327d24ef9ef2351d860bcd10a66f848a6e4659c0347545fe389a25[ALL] 03bdf1a94803ab13fbc4e644bfc356819ec20015444168959de9dd10c0364c5e8f"}, "vout": 1, "txid": "c471fa022d7925137d4a2af7a9c0b55a8e81f48c49a52a09b50da36110d18192"}], "txid": "c300ffb02ceb4251aa2db34cb0f5b094dbdf60835335d2d4fbb0fef2c996d311", "blocktime": 1537873282, "version": 1, "confirmations": 11484, "time": 1537873282, "locktime": 0, "vsize": 225, "size": 225}