{"hash": "c02bf2de14aac2bfaed7a025d3376d2eb3318b6cde52b8d9bc1ac2ede4ac9d3f", "blockhash": "0000000000000000000dcc0f55137456b1a82d3642486a52398922ac4d620174", "vout": [{"scriptPubKey": {"reqSigs": 1, "hex": "a914f39183b40361c7b82b46284b290f04c3c5c5613587", "addresses": ["3PttSgSfhJQ5L4AX4F3hxPmGaW4zug7Ri4"], "asm": "OP_HASH160 f39183b40361c7b82b46284b290f04c3c5c56135 OP_EQUAL", "type": "scripthash"}, "value": 0.0275828, "n": 0}, {"scriptPubKey": {"reqSigs": 1, "hex": "a91445e0115b7fa8a2cbff294fff0d2c754b0789f9b987", "addresses": ["384UyHRHdW5oc4F4qDvwPM2SfCiSdKvQjR"], "asm": "OP_HASH160 45e0115b7fa8a2cbff294fff0d2c754b0789f9b9 OP_EQUAL", "type": "scripthash"}, "value": 0.01241985, "n": 1}], "hex": "020000000001021b913b58f054cf4761f2751e440280f99a154afe2b42606b3172be336ed80b7908000000171600145eb5fb9d62a22267774d8d3ab0e54f7abc6ecd7bfeffffff62370236c1ecec0495449efea31e9d5cc1f58db3e5b499cd823db34208ea56a601000000171600142c72366f51cf5f463e733e0729fb401a40b359affeffffff0288162a000000000017a914f39183b40361c7b82b46284b290f04c3c5c561358781f312000000000017a91445e0115b7fa8a2cbff294fff0d2c754b0789f9b98702483045022100df72b99b364dcd0f0e590fd4804e765f79400f9fe07c3d798ca4980feb5facf602201b135b32514d1863ba037744d9e433acfc0dcff5fa5a02d13fb6a88691910d5d01210202fa7ded66c62dc58072ea4a0bac775a5261adf2c2be67fe32ee645a633b871002463043021f575c98dd42239f2eee40c5d8b5e3a2b0bc1896cd95bf339fe1e34ff4ad6dc9022035ad59c392d69253398324d498ddfbe7ccba1d06f939f4d5da575515ab799a4b01210351be05c5e4c7a356a0b8ccc849e207a0999b0b708b36fed5a445b3d66ae2d2ff0b490800", "vin": [{"txinwitness": ["3045022100df72b99b364dcd0f0e590fd4804e765f79400f9fe07c3d798ca4980feb5facf602201b135b32514d1863ba037744d9e433acfc0dcff5fa5a02d13fb6a88691910d5d01", "0202fa7ded66c62dc58072ea4a0bac775a5261adf2c2be67fe32ee645a633b8710"], "sequence": 4294967294, "scriptSig": {"hex": "1600145eb5fb9d62a22267774d8d3ab0e54f7abc6ecd7b", "asm": "00145eb5fb9d62a22267774d8d3ab0e54f7abc6ecd7b"}, "vout": 8, "txid": "790bd86e33be72316b60422bfe4a159af98002441e75f26147cf54f0583b911b"}, {"txinwitness": ["3043021f575c98dd42239f2eee40c5d8b5e3a2b0bc1896cd95bf339fe1e34ff4ad6dc9022035ad59c392d69253398324d498ddfbe7ccba1d06f939f4d5da575515ab799a4b01", "0351be05c5e4c7a356a0b8ccc849e207a0999b0b708b36fed5a445b3d66ae2d2ff"], "sequence": 4294967294, "scriptSig": {"hex": "1600142c72366f51cf5f463e733e0729fb401a40b359af", "asm": "00142c72366f51cf5f463e733e0729fb401a40b359af"}, "vout": 1, "txid": "a656ea0842b33d82cd99b4e5b38df5c15c9d1ea3fe9e449504ececc136023762"}], "txid": "c30210398e1e588881299b6b0da22569817be175b0e14ff67b0b0c7202534598", "blocktime": 1537870268, "version": 2, "confirmations": 11516, "time": 1537870268, "locktime": 542987, "vsize": 256, "size": 418}