{"hash": "c30270c015159cf3101345cddf880b1447de1d87f0f543a4eb4509a75a2a9da5", "blockhash": "000000000000000000022b45ed06c6f4ccd3cf7fb5ba4856ebd2e58215665228", "vout": [{"scriptPubKey": {"reqSigs": 1, "hex": "76a914d243e6abb9a60fbff430b421d2df4b7d59ec186088ac", "addresses": ["1LAnF8h3qMGx3TSwNUHVneBZUEpwE4gu3D"], "asm": "OP_DUP OP_HASH160 d243e6abb9a60fbff430b421d2df4b7d59ec1860 OP_EQUALVERIFY OP_CHECKSIG", "type": "pubkeyhash"}, "value": 0.00076972, "n": 0}, {"scriptPubKey": {"reqSigs": 1, "hex": "76a9143851f34d13937b673a7d24a1950bb5b21ce94af388ac", "addresses": ["168o1kqNquEJeR9vosUB5fw4eAwcVAgh8P"], "asm": "OP_DUP OP_HASH160 3851f34d13937b673a7d24a1950bb5b21ce94af3 OP_EQUALVERIFY OP_CHECKSIG", "type": "pubkeyhash"}, "value": 5.46e-06, "n": 1}, {"scriptPubKey": {"type": "nulldata", "hex": "6a146f6d6e69000000000000001f00000032b5303440", "asm": "OP_RETURN 6f6d6e69000000000000001f00000032b5303440"}, "value": 0.0, "n": 2}], "hex": "0100000002049fa14755866b3bd6a9b2afe37b8f7af8252dc06e77b75b729741c82ec16ea4020000006a473044022056b5fa13f57c98bcda55eb1f60bbc9c96110663ca899a58d1c19823fde040f1002206b122f1abafefbc08612be35df56fb3ec0776838d81d75bbe7d004aafa8331950121036ff1ea48c723547ca1ee724d755f2e7ba1d41b2d8dba76c3cd860f68b3a69048ffffffffe584b047ca59e73178d90c64a46503d0a43275a80d67065146cb579383c20f97000000006a473044022016f119b80ce1cf3333d045271fea62ffec472add52d92c0eea4db9de3103c8140220709364b07b9de60b4ff1b8a220cfe73d511115cfb0aa8e439ef92f8b8fc0f79501210271977291b74f1f5f5c42157e8aae804664eaaeccfd097918450d37f28fb94d77ffffffff03ac2c0100000000001976a914d243e6abb9a60fbff430b421d2df4b7d59ec186088ac22020000000000001976a9143851f34d13937b673a7d24a1950bb5b21ce94af388ac0000000000000000166a146f6d6e69000000000000001f00000032b530344000000000", "vin": [{"sequence": 4294967295, "scriptSig": {"hex": "473044022056b5fa13f57c98bcda55eb1f60bbc9c96110663ca899a58d1c19823fde040f1002206b122f1abafefbc08612be35df56fb3ec0776838d81d75bbe7d004aafa8331950121036ff1ea48c723547ca1ee724d755f2e7ba1d41b2d8dba76c3cd860f68b3a69048", "asm": "3044022056b5fa13f57c98bcda55eb1f60bbc9c96110663ca899a58d1c19823fde040f1002206b122f1abafefbc08612be35df56fb3ec0776838d81d75bbe7d004aafa833195[ALL] 036ff1ea48c723547ca1ee724d755f2e7ba1d41b2d8dba76c3cd860f68b3a69048"}, "vout": 2, "txid": "a46ec12ec84197725bb7776ec02d25f87a8f7be3afb2a9d63b6b865547a19f04"}, {"sequence": 4294967295, "scriptSig": {"hex": "473044022016f119b80ce1cf3333d045271fea62ffec472add52d92c0eea4db9de3103c8140220709364b07b9de60b4ff1b8a220cfe73d511115cfb0aa8e439ef92f8b8fc0f79501210271977291b74f1f5f5c42157e8aae804664eaaeccfd097918450d37f28fb94d77", "asm": "3044022016f119b80ce1cf3333d045271fea62ffec472add52d92c0eea4db9de3103c8140220709364b07b9de60b4ff1b8a220cfe73d511115cfb0aa8e439ef92f8b8fc0f795[ALL] 0271977291b74f1f5f5c42157e8aae804664eaaeccfd097918450d37f28fb94d77"}, "vout": 0, "txid": "970fc2839357cb465106670da87532a4d00365a4640cd97831e759ca47b084e5"}], "txid": "c30270c015159cf3101345cddf880b1447de1d87f0f543a4eb4509a75a2a9da5", "blocktime": 1537869901, "version": 1, "confirmations": 11522, "time": 1537869901, "locktime": 0, "vsize": 403, "size": 403}