{"hash": "c30b55ced1a9f14b8e1a1fe9261ab508d2438a3967f44955699cf3f458cb33de", "blockhash": "0000000000000000000baef3f32e3676a92c3b2e5da21b426e4f302fc371ce76", "vout": [{"scriptPubKey": {"type": "nulldata", "hex": "6a4c5000007804000170c1f99337c475708b4b19e8702940d64fa54d8eb2d19ed074892d00f8e830f2fc8be9a7253da60fb49cdc31f4c05baa1a7106138d82617988021d100759d4ba30d2c37bb011d97e02cf", "asm": "OP_RETURN 00007804000170c1f99337c475708b4b19e8702940d64fa54d8eb2d19ed074892d00f8e830f2fc8be9a7253da60fb49cdc31f4c05baa1a7106138d82617988021d100759d4ba30d2c37bb011d97e02cf"}, "value": 0.0, "n": 0}, {"scriptPubKey": {"reqSigs": 1, "hex": "76a9141e3ef80792638a3500649c9bb6d6177f15f51b0088ac", "addresses": ["13kvhugq7wSx53Hmx1rz5GghGgh7uhzCcW"], "asm": "OP_DUP OP_HASH160 1e3ef80792638a3500649c9bb6d6177f15f51b00 OP_EQUALVERIFY OP_CHECKSIG", "type": "pubkeyhash"}, "value": 0.00633916, "n": 1}], "hex": "01000000011f8f174661b02239e8594fef04db24fcc299172308b64a8240e6f557f2f17a1b010000006b4830450221009f27f075f2c920e50c4161641f68d5ce0eec4f27cbcecdaedfd2c3505b4b02a102205e61f1a6a2466322d9f03aaa48a9156fbabee139483e42c6fd612606505a8f8b012103b9aae4702dbba067f030460c48ecca175384375640af99ab8fb93331a75f1019ffffffff020000000000000000536a4c5000007804000170c1f99337c475708b4b19e8702940d64fa54d8eb2d19ed074892d00f8e830f2fc8be9a7253da60fb49cdc31f4c05baa1a7106138d82617988021d100759d4ba30d2c37bb011d97e02cf3cac0900000000001976a9141e3ef80792638a3500649c9bb6d6177f15f51b0088ac00000000", "vin": [{"sequence": 4294967295, "scriptSig": {"hex": "4830450221009f27f075f2c920e50c4161641f68d5ce0eec4f27cbcecdaedfd2c3505b4b02a102205e61f1a6a2466322d9f03aaa48a9156fbabee139483e42c6fd612606505a8f8b012103b9aae4702dbba067f030460c48ecca175384375640af99ab8fb93331a75f1019", "asm": "30450221009f27f075f2c920e50c4161641f68d5ce0eec4f27cbcecdaedfd2c3505b4b02a102205e61f1a6a2466322d9f03aaa48a9156fbabee139483e42c6fd612606505a8f8b[ALL] 03b9aae4702dbba067f030460c48ecca175384375640af99ab8fb93331a75f1019"}, "vout": 1, "txid": "1b7af1f257f5e640824ab608231799c2fc24db04ef4f59e83922b06146178f1f"}], "txid": "c30b55ced1a9f14b8e1a1fe9261ab508d2438a3967f44955699cf3f458cb33de", "blocktime": 1537876114, "version": 1, "confirmations": 11462, "time": 1537876114, "locktime": 0, "vsize": 284, "size": 284}