{"hash": "c31568a9a8366091b528f7a390679afaf9caede681346911e01c3760c6aece3c", "blockhash": "0000000000000000001e0dab787dd257d1dbfcb92a98c2207d5e1078be1f4165", "vout": [{"scriptPubKey": {"reqSigs": 1, "hex": "76a914b48aca6ef4a55fbc45a4a06f91d3b9912c37f56f88ac", "addresses": ["1HTctt46WNrCFdM4a18ZYSEaxKmdoDhwtt"], "asm": "OP_DUP OP_HASH160 b48aca6ef4a55fbc45a4a06f91d3b9912c37f56f OP_EQUALVERIFY OP_CHECKSIG", "type": "pubkeyhash"}, "value": 0.0078115, "n": 0}, {"scriptPubKey": {"reqSigs": 1, "hex": "76a914987e19382859cb87999dbb966d542b31a9d64ff288ac", "addresses": ["1EuJmdvEy3sBxwVQy82J4SPvawDRXtLefc"], "asm": "OP_DUP OP_HASH160 987e19382859cb87999dbb966d542b31a9d64ff2 OP_EQUALVERIFY OP_CHECKSIG", "type": "pubkeyhash"}, "value": 0.01485657, "n": 1}], "hex": "0100000001df73e3e4fd4a7678e3e021784bf4ac96781fb4c30de099bdeeb0e5a7bdb2af0b010000006a473044022057c5f7f4d98b7638d786ed639411f0a0d6bf90c2d3164b6a032bac724d3de5f1022007ce8eeacd5696dde841171ef198a67d1334a90dd968bf30c127ba9f1043e415012102c682137e35d4db298b0b64f791ba4afabf74e3c3603217e6e3c89001a51ba21bffffffff025eeb0b00000000001976a914b48aca6ef4a55fbc45a4a06f91d3b9912c37f56f88ac59ab1600000000001976a914987e19382859cb87999dbb966d542b31a9d64ff288ac00000000", "vin": [{"sequence": 4294967295, "scriptSig": {"hex": "473044022057c5f7f4d98b7638d786ed639411f0a0d6bf90c2d3164b6a032bac724d3de5f1022007ce8eeacd5696dde841171ef198a67d1334a90dd968bf30c127ba9f1043e415012102c682137e35d4db298b0b64f791ba4afabf74e3c3603217e6e3c89001a51ba21b", "asm": "3044022057c5f7f4d98b7638d786ed639411f0a0d6bf90c2d3164b6a032bac724d3de5f1022007ce8eeacd5696dde841171ef198a67d1334a90dd968bf30c127ba9f1043e415[ALL] 02c682137e35d4db298b0b64f791ba4afabf74e3c3603217e6e3c89001a51ba21b"}, "vout": 1, "txid": "0bafb2bda7e5b0eebd99e00dc3b41f7896acf44b7821e0e378764afde4e373df"}], "txid": "c31568a9a8366091b528f7a390679afaf9caede681346911e01c3760c6aece3c", "blocktime": 1537872475, "version": 1, "confirmations": 11487, "time": 1537872475, "locktime": 0, "vsize": 225, "size": 225}