{"hash": "c319eb1d70400f387fb662e761f6698bd75a13750f9eb9ae4180e0aef3b9186f", "blockhash": "0000000000000000000baef3f32e3676a92c3b2e5da21b426e4f302fc371ce76", "vout": [{"scriptPubKey": {"reqSigs": 1, "hex": "76a914bf2c6b42643e47afe68328d56f944e029b051d2988ac", "addresses": ["1JRqGvdG8KPppQvYVpczzcqiJ36fLrdVvd"], "asm": "OP_DUP OP_HASH160 bf2c6b42643e47afe68328d56f944e029b051d29 OP_EQUALVERIFY OP_CHECKSIG", "type": "pubkeyhash"}, "value": 0.0063268, "n": 0}, {"scriptPubKey": {"type": "nulldata", "hex": "6a4c50000078180001c19c070e633ba8c382a7bdcd019d6ddc0f1b8ff117702940d64fa54d8eb2dd4fcdbab925c0a56033672b095c855b5baa1c6e06153582649cc4081d100759d4ba30d2c37bb011d97e02cf", "asm": "OP_RETURN 000078180001c19c070e633ba8c382a7bdcd019d6ddc0f1b8ff117702940d64fa54d8eb2dd4fcdbab925c0a56033672b095c855b5baa1c6e06153582649cc4081d100759d4ba30d2c37bb011d97e02cf"}, "value": 0.0, "n": 1}], "hex": "010000000185f9411e0586f14fe9e93fc2191b50fb5e42d16048f3afce7ac88c912c4ae52e000000006a473044022009cc88af568b45e475bec6078db2431a29dec8618d29fa44b8643549b96046d60220093531c9e8b8db97e7cd6396d4a1886632ed8791de0f14fe5c457695f87523b5012102fbcd2bc0a5a7b45b73094c0bc0c4c20b2129966a12687d02d8957f3a94947307ffffffff0268a70900000000001976a914bf2c6b42643e47afe68328d56f944e029b051d2988ac0000000000000000536a4c50000078180001c19c070e633ba8c382a7bdcd019d6ddc0f1b8ff117702940d64fa54d8eb2dd4fcdbab925c0a56033672b095c855b5baa1c6e06153582649cc4081d100759d4ba30d2c37bb011d97e02cf00000000", "vin": [{"sequence": 4294967295, "scriptSig": {"hex": "473044022009cc88af568b45e475bec6078db2431a29dec8618d29fa44b8643549b96046d60220093531c9e8b8db97e7cd6396d4a1886632ed8791de0f14fe5c457695f87523b5012102fbcd2bc0a5a7b45b73094c0bc0c4c20b2129966a12687d02d8957f3a94947307", "asm": "3044022009cc88af568b45e475bec6078db2431a29dec8618d29fa44b8643549b96046d60220093531c9e8b8db97e7cd6396d4a1886632ed8791de0f14fe5c457695f87523b5[ALL] 02fbcd2bc0a5a7b45b73094c0bc0c4c20b2129966a12687d02d8957f3a94947307"}, "vout": 0, "txid": "2ee54a2c918cc87aceaff34860d1425efb501b19c23fe9e94ff186051e41f985"}], "txid": "c319eb1d70400f387fb662e761f6698bd75a13750f9eb9ae4180e0aef3b9186f", "blocktime": 1537876114, "version": 1, "confirmations": 11460, "time": 1537876114, "locktime": 0, "vsize": 283, "size": 283}