{"hash": "c31e9d55715c0c9d300799622473bf7ca1f1f693c147f948b5be0b0be966d72a", "blockhash": "0000000000000000001f76057863aec43deb6fa401d9628bb513d65a8098bfab", "vout": [{"scriptPubKey": {"type": "nulldata", "hex": "6a146f6d6e69000000000000001f000000ae9f7bcc00", "asm": "OP_RETURN 6f6d6e69000000000000001f000000ae9f7bcc00"}, "value": 0.0, "n": 0}, {"scriptPubKey": {"reqSigs": 1, "hex": "76a914a25dec4d0011064ef106a983c39c7a540699f22088ac", "addresses": ["1FoWyxwPXuj4C6abqwhjDWdz6D4PZgYRjA"], "asm": "OP_DUP OP_HASH160 a25dec4d0011064ef106a983c39c7a540699f220 OP_EQUALVERIFY OP_CHECKSIG", "type": "pubkeyhash"}, "value": 5.46e-06, "n": 1}, {"scriptPubKey": {"reqSigs": 1, "hex": "76a914b678e8753f4b7cda9eae526cac41b3b629d40c7188ac", "addresses": ["1HdppkZFXBsEJ3NHVebbe4WcD1qxHRMzaf"], "asm": "OP_DUP OP_HASH160 b678e8753f4b7cda9eae526cac41b3b629d40c71 OP_EQUALVERIFY OP_CHECKSIG", "type": "pubkeyhash"}, "value": 0.00439147, "n": 2}], "hex": "01000000018e36117e08a88a0540e177bae37742ac492786c42806ec7a42ad410aea892d91010000006b483045022100b7fbf052f072050456cae81b1d4a0574b33eee4aa573864e723983c086a5e10a02202409bfb6661ac9d38fb9d11b9bfa3565e5e99615a8248c4db4165ef360a0778d01210386778b49c00a64abe84d4d3ed6956a8069bd897668ea7a52b442d50e22175206feffffff030000000000000000166a146f6d6e69000000000000001f000000ae9f7bcc0022020000000000001976a914a25dec4d0011064ef106a983c39c7a540699f22088ac6bb30600000000001976a914b678e8753f4b7cda9eae526cac41b3b629d40c7188ac13490800", "vin": [{"sequence": 4294967294, "scriptSig": {"hex": "483045022100b7fbf052f072050456cae81b1d4a0574b33eee4aa573864e723983c086a5e10a02202409bfb6661ac9d38fb9d11b9bfa3565e5e99615a8248c4db4165ef360a0778d01210386778b49c00a64abe84d4d3ed6956a8069bd897668ea7a52b442d50e22175206", "asm": "3045022100b7fbf052f072050456cae81b1d4a0574b33eee4aa573864e723983c086a5e10a02202409bfb6661ac9d38fb9d11b9bfa3565e5e99615a8248c4db4165ef360a0778d[ALL] 0386778b49c00a64abe84d4d3ed6956a8069bd897668ea7a52b442d50e22175206"}, "vout": 1, "txid": "912d89ea0a41ad427aec0628c4862749ac4277e3ba77e140058aa8087e11368e"}], "txid": "c31e9d55715c0c9d300799622473bf7ca1f1f693c147f948b5be0b0be966d72a", "blocktime": 1537873891, "version": 1, "confirmations": 11478, "time": 1537873891, "locktime": 542995, "vsize": 257, "size": 257}