{"hash": "eec521da3f7ffa84ea01a9ef4b0684883dbf96e9a15e802f02d7d1520cc3aff2", "blockhash": "0000000000000000001cda96e906b7601b7a6fb1a3b62bca570a9e5d8f4b3de1", "vout": [{"scriptPubKey": {"reqSigs": 1, "hex": "a9144cd5e26455c0cdd2f98f9c4ad1239174a3d3a73b87", "addresses": ["38hHW4sbaB2SiAigyCNNZqdc8x1c92VcWe"], "asm": "OP_HASH160 4cd5e26455c0cdd2f98f9c4ad1239174a3d3a73b OP_EQUAL", "type": "scripthash"}, "value": 0.00268043, "n": 0}, {"scriptPubKey": {"reqSigs": 1, "hex": "a914bfe3b9b006bd60d821de4768216fbcf3cb0629a487", "addresses": ["3KBdnpNRSUC6xH7oL58GWg3f1QzPQs9FWq"], "asm": "OP_HASH160 bfe3b9b006bd60d821de4768216fbcf3cb0629a4 OP_EQUAL", "type": "scripthash"}, "value": 0.01145302, "n": 1}], "hex": "010000000001018ab6ff927f2ed43d76460aff3d115d03ac7f35c63dbe25bc6e7f4092bd70414a01000000232200204ac72bc93353695ed44de9eabe5eab31fde46c3e5524f6f6c253b37df4627817ffffffff020b1704000000000017a9144cd5e26455c0cdd2f98f9c4ad1239174a3d3a73b87d67911000000000017a914bfe3b9b006bd60d821de4768216fbcf3cb0629a48704004730440220790b4011305099dfb5db841346758d15066610339019fed8cf6d22e07080063302207ca4af06bdb6a70c9bb689a73e57d4470c36a874333bab37af2a0dbc2648ccd501483045022100eda4edba1c633a78b75c04ad426a5e7a2c3aa6020373b35af4ab9a73abde5c0a02207d5dafb55e61efe17df11b00d0824d91bd82334dcf6abd3a9bce6641367210a4014752210383dd989bbcdccf0b79b07f5bbd82921af5ac4762329b0aa9346994805e5cd8fc2103871fc2ca08e6950b38867e8e6a0e94ee625223d3aa0df5c65f414c6d784467e252ae00000000", "vin": [{"txinwitness": ["", "30440220790b4011305099dfb5db841346758d15066610339019fed8cf6d22e07080063302207ca4af06bdb6a70c9bb689a73e57d4470c36a874333bab37af2a0dbc2648ccd501", "3045022100eda4edba1c633a78b75c04ad426a5e7a2c3aa6020373b35af4ab9a73abde5c0a02207d5dafb55e61efe17df11b00d0824d91bd82334dcf6abd3a9bce6641367210a401", "52210383dd989bbcdccf0b79b07f5bbd82921af5ac4762329b0aa9346994805e5cd8fc2103871fc2ca08e6950b38867e8e6a0e94ee625223d3aa0df5c65f414c6d784467e252ae"], "sequence": 4294967295, "scriptSig": {"hex": "2200204ac72bc93353695ed44de9eabe5eab31fde46c3e5524f6f6c253b37df4627817", "asm": "00204ac72bc93353695ed44de9eabe5eab31fde46c3e5524f6f6c253b37df4627817"}, "vout": 1, "txid": "4a4170bd92407f6ebc25be3dc6357fac035d113dff0a46763dd42e7f92ffb68a"}], "txid": "c326400b8c8143067fce55f69b8acdb5047c49b673b132e37784da25ebf9dbeb", "blocktime": 1537873282, "version": 1, "confirmations": 11484, "time": 1537873282, "locktime": 0, "vsize": 206, "size": 371}