{"hash": "c32e606fab8ff85c7e8b69d4fc44aaaa049d67524cbaa15509700116a0b2a706", "blockhash": "00000000000000000017f5eb5941039fbcee6240d03bc1f2f8e35350df66a1d8", "vout": [{"scriptPubKey": {"reqSigs": 1, "hex": "76a9149aa37bd14e8d203f1bf559ee52d1f406db7c187188ac", "addresses": ["1F6euaywvVtyUzGqHyDjVcp14E1nJowv57"], "asm": "OP_DUP OP_HASH160 9aa37bd14e8d203f1bf559ee52d1f406db7c1871 OP_EQUALVERIFY OP_CHECKSIG", "type": "pubkeyhash"}, "value": 0.14907362, "n": 0}, {"scriptPubKey": {"reqSigs": 1, "hex": "a914f0313c5a01943330b471abcb81c132cf96987b6387", "addresses": ["3Pb35YSKUny6ybNTXhoEEg1xJWxNn17AXn"], "asm": "OP_HASH160 f0313c5a01943330b471abcb81c132cf96987b63 OP_EQUAL", "type": "scripthash"}, "value": 0.15654915, "n": 1}], "hex": "0100000001a8546bcffb4c159022e722ef5f5227b59155e4efaff0539d359bf876c7fa6062010000006a473044022067f7ee1b3913f7dffa13f0bd7e7f7274247374517f7cfebfe790530df68eb68302202bbfc7db484d5368352e2ceb703de44a288cb11b8b0472d8dc1b6a1f3d6418ef012103750d16046673e2af87ec24ae36deaf502673b9a52d966cc0b274c7b4a4a0e8b5fdffffff02e277e300000000001976a9149aa37bd14e8d203f1bf559ee52d1f406db7c187188ac03e0ee000000000017a914f0313c5a01943330b471abcb81c132cf96987b638715490800", "vin": [{"sequence": 4294967293, "scriptSig": {"hex": "473044022067f7ee1b3913f7dffa13f0bd7e7f7274247374517f7cfebfe790530df68eb68302202bbfc7db484d5368352e2ceb703de44a288cb11b8b0472d8dc1b6a1f3d6418ef012103750d16046673e2af87ec24ae36deaf502673b9a52d966cc0b274c7b4a4a0e8b5", "asm": "3044022067f7ee1b3913f7dffa13f0bd7e7f7274247374517f7cfebfe790530df68eb68302202bbfc7db484d5368352e2ceb703de44a288cb11b8b0472d8dc1b6a1f3d6418ef[ALL] 03750d16046673e2af87ec24ae36deaf502673b9a52d966cc0b274c7b4a4a0e8b5"}, "vout": 1, "txid": "6260fac776f89b359d53f0afefe45591b527525fef22e72290154cfbcf6b54a8"}], "txid": "c32e606fab8ff85c7e8b69d4fc44aaaa049d67524cbaa15509700116a0b2a706", "blocktime": 1537874412, "version": 1, "confirmations": 11466, "time": 1537874412, "locktime": 542997, "vsize": 223, "size": 223}