{"hash": "c32f46668c3890dc9da9e495040ca0492360d731f3a8eb64bdee3ae432aac0f1", "blockhash": "0000000000000000000dcc0f55137456b1a82d3642486a52398922ac4d620174", "vout": [{"scriptPubKey": {"reqSigs": 1, "hex": "76a914789e5c9544761003313a1162e5bcaaa79e9cee4b88ac", "addresses": ["1BzmoBT798avkpzgEPChxjdRdbNqViSmsf"], "asm": "OP_DUP OP_HASH160 789e5c9544761003313a1162e5bcaaa79e9cee4b OP_EQUALVERIFY OP_CHECKSIG", "type": "pubkeyhash"}, "value": 0.026, "n": 0}, {"scriptPubKey": {"reqSigs": 1, "hex": "76a91483de823eaa4df3dd56d0e7749532e100fcc71e7f88ac", "addresses": ["1D2G5Jz5D3S14681Cf3PxEMUiZSd5KfM4x"], "asm": "OP_DUP OP_HASH160 83de823eaa4df3dd56d0e7749532e100fcc71e7f OP_EQUALVERIFY OP_CHECKSIG", "type": "pubkeyhash"}, "value": 0.04598854, "n": 1}], "hex": "0100000001672c9d9615a926ad64ce56bacf84925eed2f6edfd08a3c7870618cc9247fbd59010000006b483045022100a4680a83b5bb2abc54c5f0cec5022d6b263ed0935226649cfb14c87cbdf8a6eb022038da43d5f838d5e012389543d5569007726754be51ca4bbf738ddbfd268b50470121030ca6257fb9ffc6d5402744162ace6235428d454465c7fb96c0c919a0193a062bffffffff0240ac2700000000001976a914789e5c9544761003313a1162e5bcaaa79e9cee4b88ac462c4600000000001976a91483de823eaa4df3dd56d0e7749532e100fcc71e7f88ac00000000", "vin": [{"sequence": 4294967295, "scriptSig": {"hex": "483045022100a4680a83b5bb2abc54c5f0cec5022d6b263ed0935226649cfb14c87cbdf8a6eb022038da43d5f838d5e012389543d5569007726754be51ca4bbf738ddbfd268b50470121030ca6257fb9ffc6d5402744162ace6235428d454465c7fb96c0c919a0193a062b", "asm": "3045022100a4680a83b5bb2abc54c5f0cec5022d6b263ed0935226649cfb14c87cbdf8a6eb022038da43d5f838d5e012389543d5569007726754be51ca4bbf738ddbfd268b5047[ALL] 030ca6257fb9ffc6d5402744162ace6235428d454465c7fb96c0c919a0193a062b"}, "vout": 1, "txid": "59bd7f24c98c6170783c8ad0df6e2fed5e9284cfba56ce64ad26a915969d2c67"}], "txid": "c32f46668c3890dc9da9e495040ca0492360d731f3a8eb64bdee3ae432aac0f1", "blocktime": 1537870268, "version": 1, "confirmations": 11518, "time": 1537870268, "locktime": 0, "vsize": 226, "size": 226}