{"hash": "c32f5ce5e05dd840c20066be933c8ae8820cad37049c1bc40bff6b69c62a81ae", "blockhash": "0000000000000000000baef3f32e3676a92c3b2e5da21b426e4f302fc371ce76", "vout": [{"scriptPubKey": {"reqSigs": 1, "hex": "a9149be1a9ebc9d69de7acf33620e1f94cd3962a3b7987", "addresses": ["3FuEzfp57oF4Zfq5cdjKPTZVLyNLtLXfGo"], "asm": "OP_HASH160 9be1a9ebc9d69de7acf33620e1f94cd3962a3b79 OP_EQUAL", "type": "scripthash"}, "value": 0.00282108, "n": 0}, {"scriptPubKey": {"reqSigs": 1, "hex": "76a914da570c9b1bd1b51565b980b82d7f772104ebecad88ac", "addresses": ["1LuUb7Asf6ccQJtNMAmcgMrDwmiikUZeb5"], "asm": "OP_DUP OP_HASH160 da570c9b1bd1b51565b980b82d7f772104ebecad OP_EQUALVERIFY OP_CHECKSIG", "type": "pubkeyhash"}, "value": 0.35953456, "n": 1}], "hex": "010000000124276c11899386fc4e757bb5cf7f09b4cf06c3ad8a119d3e4492e5c5288e9c32010000006a47304402204407876192f990b01ed8c0984a517152bc111bdea310b9930eb1a7395fcd6cc4022049cdd1bc78a4d4e6b567ae921a5db5454afdf6377849ffaff1ee59beae2496fb0121021be5fd8510fed82ed665f268a8b8b70467d2ed09f4fd91c239c200b49995bc11ffffffff02fc4d04000000000017a9149be1a9ebc9d69de7acf33620e1f94cd3962a3b7987309b2402000000001976a914da570c9b1bd1b51565b980b82d7f772104ebecad88ac00000000", "vin": [{"sequence": 4294967295, "scriptSig": {"hex": "47304402204407876192f990b01ed8c0984a517152bc111bdea310b9930eb1a7395fcd6cc4022049cdd1bc78a4d4e6b567ae921a5db5454afdf6377849ffaff1ee59beae2496fb0121021be5fd8510fed82ed665f268a8b8b70467d2ed09f4fd91c239c200b49995bc11", "asm": "304402204407876192f990b01ed8c0984a517152bc111bdea310b9930eb1a7395fcd6cc4022049cdd1bc78a4d4e6b567ae921a5db5454afdf6377849ffaff1ee59beae2496fb[ALL] 021be5fd8510fed82ed665f268a8b8b70467d2ed09f4fd91c239c200b49995bc11"}, "vout": 1, "txid": "329c8e28c5e592443e9d118aadc306cfb4097fcfb57b754efc869389116c2724"}], "txid": "c32f5ce5e05dd840c20066be933c8ae8820cad37049c1bc40bff6b69c62a81ae", "blocktime": 1537876114, "version": 1, "confirmations": 11460, "time": 1537876114, "locktime": 0, "vsize": 223, "size": 223}