{"hash": "c332d0197644b8aa1ea1682006d98ec52bcfce9871b882c68d484afbe34bb49c", "blockhash": "0000000000000000001e0dab787dd257d1dbfcb92a98c2207d5e1078be1f4165", "vout": [{"scriptPubKey": {"reqSigs": 1, "hex": "76a9145181a85aec395b9268d061126a1a7c00445dc98588ac", "addresses": ["18Ry4JuwxKmaATuxATPHQbWJHLZ2LgHBcX"], "asm": "OP_DUP OP_HASH160 5181a85aec395b9268d061126a1a7c00445dc985 OP_EQUALVERIFY OP_CHECKSIG", "type": "pubkeyhash"}, "value": 5.46e-06, "n": 0}, {"scriptPubKey": {"reqSigs": 1, "hex": "a9143f4eecba122ad73039d481c8d37f99cb4f887cd887", "addresses": ["37Tm3Qz8Zw2VJrheUUhArDAoq58S6YrS3g"], "asm": "OP_HASH160 3f4eecba122ad73039d481c8d37f99cb4f887cd8 OP_EQUAL", "type": "scripthash"}, "value": 0.99994908, "n": 1}, {"scriptPubKey": {"type": "nulldata", "hex": "6a146f6d6e69000000000000001f00000065d11c7500", "asm": "OP_RETURN 6f6d6e69000000000000001f00000065d11c7500"}, "value": 0.0, "n": 2}], "hex": "01000000012fe60c5b485fd4c5a5f43d56bba3db17cbe1d3fa17ad3a89d8baec288ddbd6e801000000fdfd0000473044022027e069218668e731c4a278de9bc8dd885c984bbda01cb4415772ae28aee698020220644a6db8c3e2c26200e7dcc14b8238d0bda0688ea90497bfa12314fb07da863e01483045022100fe907a913112e574566f4165c59ef3df4dc2a5d37f1b7de370193e649ba0bb2002201237721eaf7e09bc7a92ae2cb5498985ac5f129752f0f445d0604c351240378b014c6952210246ccf4de0c54cc7f3354cdd993c2c50cf965fd82238b89659fbd73a1b4bf05a121024fc59f72272a897fe43803374969f396058152fe4765a8d15216f94624257b1b21022593bc69ecbf3bbcc3c58082267cb49dadaf4ca8dbf1b2297338a9d628c4297653aeffffffff0322020000000000001976a9145181a85aec395b9268d061126a1a7c00445dc98588ac1ccdf5050000000017a9143f4eecba122ad73039d481c8d37f99cb4f887cd8870000000000000000166a146f6d6e69000000000000001f00000065d11c750000000000", "vin": [{"sequence": 4294967295, "scriptSig": {"hex": "00473044022027e069218668e731c4a278de9bc8dd885c984bbda01cb4415772ae28aee698020220644a6db8c3e2c26200e7dcc14b8238d0bda0688ea90497bfa12314fb07da863e01483045022100fe907a913112e574566f4165c59ef3df4dc2a5d37f1b7de370193e649ba0bb2002201237721eaf7e09bc7a92ae2cb5498985ac5f129752f0f445d0604c351240378b014c6952210246ccf4de0c54cc7f3354cdd993c2c50cf965fd82238b89659fbd73a1b4bf05a121024fc59f72272a897fe43803374969f396058152fe4765a8d15216f94624257b1b21022593bc69ecbf3bbcc3c58082267cb49dadaf4ca8dbf1b2297338a9d628c4297653ae", "asm": "0 3044022027e069218668e731c4a278de9bc8dd885c984bbda01cb4415772ae28aee698020220644a6db8c3e2c26200e7dcc14b8238d0bda0688ea90497bfa12314fb07da863e[ALL] 3045022100fe907a913112e574566f4165c59ef3df4dc2a5d37f1b7de370193e649ba0bb2002201237721eaf7e09bc7a92ae2cb5498985ac5f129752f0f445d0604c351240378b[ALL] 52210246ccf4de0c54cc7f3354cdd993c2c50cf965fd82238b89659fbd73a1b4bf05a121024fc59f72272a897fe43803374969f396058152fe4765a8d15216f94624257b1b21022593bc69ecbf3bbcc3c58082267cb49dadaf4ca8dbf1b2297338a9d628c4297653ae"}, "vout": 1, "txid": "e8d6db8d28ecbad8893aad17fad3e1cb17dba3bb563df4a5c5d45f485b0ce62f"}], "txid": "c332d0197644b8aa1ea1682006d98ec52bcfce9871b882c68d484afbe34bb49c", "blocktime": 1537872475, "version": 1, "confirmations": 11486, "time": 1537872475, "locktime": 0, "vsize": 403, "size": 403}