{"hash": "c333739779917b4e364a4028a7601819eea5ee0d0bb4d6f62520da7d161812e9", "blockhash": "0000000000000000000baef3f32e3676a92c3b2e5da21b426e4f302fc371ce76", "vout": [{"scriptPubKey": {"reqSigs": 1, "hex": "76a914ec78905f273ad1829d524a4635035dac72e52e1f88ac", "addresses": ["1NZLuCjFnq5TrK1BDsPtBHF9kLfvsQqb7M"], "asm": "OP_DUP OP_HASH160 ec78905f273ad1829d524a4635035dac72e52e1f OP_EQUALVERIFY OP_CHECKSIG", "type": "pubkeyhash"}, "value": 0.00028783, "n": 0}, {"scriptPubKey": {"reqSigs": 1, "hex": "a914e463a1e75d40e869b4936dafc202a247b9770dd887", "addresses": ["3NWdLs5Ef6eLZ4dkaMuW3SVuQvCs2A9h7f"], "asm": "OP_HASH160 e463a1e75d40e869b4936dafc202a247b9770dd8 OP_EQUAL", "type": "scripthash"}, "value": 0.011, "n": 1}], "hex": "0100000003ef4ceee298383577bce5e82b9eddf069e4b4e7e9d2aed1ad868043ff3e872a6b000000006b483045022100f537a4a308c05e82db6f9ab9dc2934f5fe5f11c4e1273f222522db26d639c4ac02205b39249fb62b86734cba2454cda9f0e2eec48efdf493cc8d7742e01d6ded5d79012102f3d049b3447707be86271a7cfb1fd3c302297c7253e349bdd991ff82351baa52ffffffff6ebaef30a7d3013fedebce6189a94014ada08f5f26a60a11bbe7934c8f5d95b2000000006b483045022100c0976bee2accb2e4d443033d9cd20e91ef51335c5e69f538b4ca1f12672ae02002207db77afdd1e2ab768c13a526b9cc009817f8809c269b0507cfed1fe591243f76012102128883cbe70b30a8a7261f96299147c8fe71e7a0be4bec88c998ba823ef3fb3dffffffff9f255331e07e3f48d87748b4341838c4d4418c458be13b40d3c9b4369268d0fd000000006b483045022100e4c4af05510f088ad4bf39a0b02d2c4899b30190563586eea729f8ad28490dcc02203a9f59d090f3e5b7193a8ddedbc1656999e266a420be10bceafee055dc7e5b76012103a9bac34beaf49022f0ccb3076933133923d414c984ef21b20bc67d8c3ed56c67ffffffff026f700000000000001976a914ec78905f273ad1829d524a4635035dac72e52e1f88ace0c810000000000017a914e463a1e75d40e869b4936dafc202a247b9770dd88700000000", "vin": [{"sequence": 4294967295, "scriptSig": {"hex": "483045022100f537a4a308c05e82db6f9ab9dc2934f5fe5f11c4e1273f222522db26d639c4ac02205b39249fb62b86734cba2454cda9f0e2eec48efdf493cc8d7742e01d6ded5d79012102f3d049b3447707be86271a7cfb1fd3c302297c7253e349bdd991ff82351baa52", "asm": "3045022100f537a4a308c05e82db6f9ab9dc2934f5fe5f11c4e1273f222522db26d639c4ac02205b39249fb62b86734cba2454cda9f0e2eec48efdf493cc8d7742e01d6ded5d79[ALL] 02f3d049b3447707be86271a7cfb1fd3c302297c7253e349bdd991ff82351baa52"}, "vout": 0, "txid": "6b2a873eff438086add1aed2e9e7b4e469f0dd9e2be8e5bc77353898e2ee4cef"}, {"sequence": 4294967295, "scriptSig": {"hex": "483045022100c0976bee2accb2e4d443033d9cd20e91ef51335c5e69f538b4ca1f12672ae02002207db77afdd1e2ab768c13a526b9cc009817f8809c269b0507cfed1fe591243f76012102128883cbe70b30a8a7261f96299147c8fe71e7a0be4bec88c998ba823ef3fb3d", "asm": "3045022100c0976bee2accb2e4d443033d9cd20e91ef51335c5e69f538b4ca1f12672ae02002207db77afdd1e2ab768c13a526b9cc009817f8809c269b0507cfed1fe591243f76[ALL] 02128883cbe70b30a8a7261f96299147c8fe71e7a0be4bec88c998ba823ef3fb3d"}, "vout": 0, "txid": "b2955d8f4c93e7bb110aa6265f8fa0ad1440a98961ceebed3f01d3a730efba6e"}, {"sequence": 4294967295, "scriptSig": {"hex": "483045022100e4c4af05510f088ad4bf39a0b02d2c4899b30190563586eea729f8ad28490dcc02203a9f59d090f3e5b7193a8ddedbc1656999e266a420be10bceafee055dc7e5b76012103a9bac34beaf49022f0ccb3076933133923d414c984ef21b20bc67d8c3ed56c67", "asm": "3045022100e4c4af05510f088ad4bf39a0b02d2c4899b30190563586eea729f8ad28490dcc02203a9f59d090f3e5b7193a8ddedbc1656999e266a420be10bceafee055dc7e5b76[ALL] 03a9bac34beaf49022f0ccb3076933133923d414c984ef21b20bc67d8c3ed56c67"}, "vout": 0, "txid": "fdd0689236b4c9d3403be18b458c41d4c4381834b44877d8483f7ee03153259f"}], "txid": "c333739779917b4e364a4028a7601819eea5ee0d0bb4d6f62520da7d161812e9", "blocktime": 1537876114, "version": 1, "confirmations": 11460, "time": 1537876114, "locktime": 0, "vsize": 520, "size": 520}