{"hash": "c33414c7938f52034a1c8fbc8c0dd5c0bd9f3154dd433cdd59a3749e71c6b99e", "blockhash": "000000000000000000205f8b0775d31398ef75b89a5e8ec8d2c57b4dc0ac4c20", "vout": [{"scriptPubKey": {"reqSigs": 1, "hex": "76a9142fc0007fed1e4878de3c39addddc37fcca56444f88ac", "addresses": ["15MUmYeARJrqxuzRJXGvjWirfCh6xPY672"], "asm": "OP_DUP OP_HASH160 2fc0007fed1e4878de3c39addddc37fcca56444f OP_EQUALVERIFY OP_CHECKSIG", "type": "pubkeyhash"}, "value": 0.0099842, "n": 0}, {"scriptPubKey": {"reqSigs": 1, "hex": "a9146f2f0e3b061af54db87da56682a58ab622cc7b0687", "addresses": ["3BpuJKJzt2HoTRXz5J21jThUZ2edDJ6JXq"], "asm": "OP_HASH160 6f2f0e3b061af54db87da56682a58ab622cc7b06 OP_EQUAL", "type": "scripthash"}, "value": 0.0018279, "n": 1}], "hex": "020000000b0dff47ef7a6fb8845b2dd0fb23846c60ad9fe1a0a2e69e9dd3a917abd61c73b7010000006a47304402204e580c8b5bf1be2605b7d76992d5a070299781c3f52870e77985ed26b475568c022047ac4416ae7fa14398bbe56ca0ed09c5b09211ad56a134fb0ee2d877491b8ca401210389aca7af90447fb888a8d1f65e8d9fd406fc9b4eefeea4b18d5e5dfeaf2bea39fdffffff14452559d7335b1856684c7907e1a8a90fd9223b52c3f20990ffa7b774c9e64f010000006a473044022059ec7c2f445c6537759f825379db99b474fe7368717e93baa6a56742f9e4ec35022037e36b321c3ca5254ebccb76a1984fc8d12cc8e0f79b7ab8a8a6043ce8ba555d01210389aca7af90447fb888a8d1f65e8d9fd406fc9b4eefeea4b18d5e5dfeaf2bea39fdffffff33ca9dbfb20adda4ca57059b1880561a224f0c0828ac5f16d186ea63e1e272bf010000006b483045022100d045a4ddbde4997f8f65075804f8e507fe0dd5f0a02d8f9dbb7c60d9914a850a02203c3375a0bb413715a6de5f457dc513dfa0fcf2025d5ca4aa8b0a377c6f2d677e01210389aca7af90447fb888a8d1f65e8d9fd406fc9b4eefeea4b18d5e5dfeaf2bea39fdffffff3cdde63949be6509b8070f5912551c02ed685f207a7aa0f164539ef65dd5572c010000006a4730440220756487a6ac4e85dbdbdebf6efd5b6136d9005193755ad7f57a8a2dfc15c1dca5022064c886f93dedec068143173fbef5704fc752449055cd8d16746aa9e43f747d1e01210389aca7af90447fb888a8d1f65e8d9fd406fc9b4eefeea4b18d5e5dfeaf2bea39fdffffff4e9f52aeaea1674017455c604d6bad7011d04ef76cbbcd1f35c66caf5b685e48010000006b4830450221009c75dabb69acb70571ff42e3a2b22e4c21fd26d683c1f7c45033bc057efe264102204492662be3081b51b68b6c1ebed5d227f66ed669c211fbe284818a11f526c4a401210389aca7af90447fb888a8d1f65e8d9fd406fc9b4eefeea4b18d5e5dfeaf2bea39fdffffff6bd7f6c6352c0624a1d4302fee2790857646a8d70936e4f6e43344051d0d7b8d010000006a47304402203b34b5bdc679b02135a30b5788e909e3fd7e7daa70255022e392b4669527811902206e3137c536be7707e4161818b051ef3ca635b21b4b73d181cd33fccc75cb937801210389aca7af90447fb888a8d1f65e8d9fd406fc9b4eefeea4b18d5e5dfeaf2bea39fdffffff6d3e8cc64c131105123155966c4c1c817562e0b4e2c864c0ae2ba4b376b172dd010000006a473044022041e81f99c40e13786b7883278a1350720a3d21ba6f78f3d2e058a2a72753484702206d37be1c7a4349a9b8e9fea2371cf5a198421cd8bda66b8c55d70a01270e1f5401210389aca7af90447fb888a8d1f65e8d9fd406fc9b4eefeea4b18d5e5dfeaf2bea39fdffffff9116d8740ec4c1ac72adf595e0edb2eb287feaf7aa7337803b179e20fe7dc8da010000006b483045022100d358d65627b461039290c7c22c0c437e6b5a917936c43c0f9abf27b8efbe4e62022029634476e57a31279591f0aa29aad097b0e1c8c42ccb2bb39871319e68263b2d01210389aca7af90447fb888a8d1f65e8d9fd406fc9b4eefeea4b18d5e5dfeaf2bea39fdffffff916bf7c7472409c3c666da1704e119fc4a939ca1b5a167df83c48e65fa26e26f010000006b483045022100d02717a6fe5104e7a8aa33ca2819c286cc598522701b5d5c3bcb6cd96fa9246602205e30102ffe6e63a5320c8a7d6276aa7877ab399e99235a1b45c58d09fbfb0e4901210389aca7af90447fb888a8d1f65e8d9fd406fc9b4eefeea4b18d5e5dfeaf2bea39fdffffffbfd221722b4cc98f501f5ccafc882f13bf3c1f13f23edbbe95274d002857904c010000006b483045022100a707ca23c5292e3b40488db1e57bf40227f5bf6361973bf9cc71bec839a40d0902203cd21b3d7feb30b80b180ac3d20c69d90eb29cb14fcaff98890657482150ad4701210389aca7af90447fb888a8d1f65e8d9fd406fc9b4eefeea4b18d5e5dfeaf2bea39fdffffffd372c839f13c9e0bd8042b7c99b2e6b927bcbca38c91665030cf2a2fc6feedb7010000006a473044022013bbe7bb10607d8ebcc1f0aac7a089f339510e344e3e12afa44e84d12a62b427022025c2eb90da4c2a2628801c42c576cfa91dcd4f75dee1ff731fd5e8054998fcd801210389aca7af90447fb888a8d1f65e8d9fd406fc9b4eefeea4b18d5e5dfeaf2bea39fdffffff02143c0f00000000001976a9142fc0007fed1e4878de3c39addddc37fcca56444f88ac06ca02000000000017a9146f2f0e3b061af54db87da56682a58ab622cc7b06870f490800", "vin": [{"sequence": 4294967293, "scriptSig": {"hex": "47304402204e580c8b5bf1be2605b7d76992d5a070299781c3f52870e77985ed26b475568c022047ac4416ae7fa14398bbe56ca0ed09c5b09211ad56a134fb0ee2d877491b8ca401210389aca7af90447fb888a8d1f65e8d9fd406fc9b4eefeea4b18d5e5dfeaf2bea39", "asm": "304402204e580c8b5bf1be2605b7d76992d5a070299781c3f52870e77985ed26b475568c022047ac4416ae7fa14398bbe56ca0ed09c5b09211ad56a134fb0ee2d877491b8ca4[ALL] 0389aca7af90447fb888a8d1f65e8d9fd406fc9b4eefeea4b18d5e5dfeaf2bea39"}, "vout": 1, "txid": "b7731cd6ab17a9d39d9ee6a2a0e19fad606c8423fbd02d5b84b86f7aef47ff0d"}, {"sequence": 4294967293, "scriptSig": {"hex": "473044022059ec7c2f445c6537759f825379db99b474fe7368717e93baa6a56742f9e4ec35022037e36b321c3ca5254ebccb76a1984fc8d12cc8e0f79b7ab8a8a6043ce8ba555d01210389aca7af90447fb888a8d1f65e8d9fd406fc9b4eefeea4b18d5e5dfeaf2bea39", "asm": "3044022059ec7c2f445c6537759f825379db99b474fe7368717e93baa6a56742f9e4ec35022037e36b321c3ca5254ebccb76a1984fc8d12cc8e0f79b7ab8a8a6043ce8ba555d[ALL] 0389aca7af90447fb888a8d1f65e8d9fd406fc9b4eefeea4b18d5e5dfeaf2bea39"}, "vout": 1, "txid": "4fe6c974b7a7ff9009f2c3523b22d90fa9a8e107794c6856185b33d759254514"}, {"sequence": 4294967293, "scriptSig": {"hex": "483045022100d045a4ddbde4997f8f65075804f8e507fe0dd5f0a02d8f9dbb7c60d9914a850a02203c3375a0bb413715a6de5f457dc513dfa0fcf2025d5ca4aa8b0a377c6f2d677e01210389aca7af90447fb888a8d1f65e8d9fd406fc9b4eefeea4b18d5e5dfeaf2bea39", "asm": "3045022100d045a4ddbde4997f8f65075804f8e507fe0dd5f0a02d8f9dbb7c60d9914a850a02203c3375a0bb413715a6de5f457dc513dfa0fcf2025d5ca4aa8b0a377c6f2d677e[ALL] 0389aca7af90447fb888a8d1f65e8d9fd406fc9b4eefeea4b18d5e5dfeaf2bea39"}, "vout": 1, "txid": "bf72e2e163ea86d1165fac28080c4f221a5680189b0557caa4dd0ab2bf9dca33"}, {"sequence": 4294967293, "scriptSig": {"hex": "4730440220756487a6ac4e85dbdbdebf6efd5b6136d9005193755ad7f57a8a2dfc15c1dca5022064c886f93dedec068143173fbef5704fc752449055cd8d16746aa9e43f747d1e01210389aca7af90447fb888a8d1f65e8d9fd406fc9b4eefeea4b18d5e5dfeaf2bea39", "asm": "30440220756487a6ac4e85dbdbdebf6efd5b6136d9005193755ad7f57a8a2dfc15c1dca5022064c886f93dedec068143173fbef5704fc752449055cd8d16746aa9e43f747d1e[ALL] 0389aca7af90447fb888a8d1f65e8d9fd406fc9b4eefeea4b18d5e5dfeaf2bea39"}, "vout": 1, "txid": "2c57d55df69e5364f1a07a7a205f68ed021c5512590f07b80965be4939e6dd3c"}, {"sequence": 4294967293, "scriptSig": {"hex": "4830450221009c75dabb69acb70571ff42e3a2b22e4c21fd26d683c1f7c45033bc057efe264102204492662be3081b51b68b6c1ebed5d227f66ed669c211fbe284818a11f526c4a401210389aca7af90447fb888a8d1f65e8d9fd406fc9b4eefeea4b18d5e5dfeaf2bea39", "asm": "30450221009c75dabb69acb70571ff42e3a2b22e4c21fd26d683c1f7c45033bc057efe264102204492662be3081b51b68b6c1ebed5d227f66ed669c211fbe284818a11f526c4a4[ALL] 0389aca7af90447fb888a8d1f65e8d9fd406fc9b4eefeea4b18d5e5dfeaf2bea39"}, "vout": 1, "txid": "485e685baf6cc6351fcdbb6cf74ed01170ad6b4d605c45174067a1aeae529f4e"}, {"sequence": 4294967293, "scriptSig": {"hex": "47304402203b34b5bdc679b02135a30b5788e909e3fd7e7daa70255022e392b4669527811902206e3137c536be7707e4161818b051ef3ca635b21b4b73d181cd33fccc75cb937801210389aca7af90447fb888a8d1f65e8d9fd406fc9b4eefeea4b18d5e5dfeaf2bea39", "asm": "304402203b34b5bdc679b02135a30b5788e909e3fd7e7daa70255022e392b4669527811902206e3137c536be7707e4161818b051ef3ca635b21b4b73d181cd33fccc75cb9378[ALL] 0389aca7af90447fb888a8d1f65e8d9fd406fc9b4eefeea4b18d5e5dfeaf2bea39"}, "vout": 1, "txid": "8d7b0d1d054433e4f6e43609d7a84676859027ee2f30d4a124062c35c6f6d76b"}, {"sequence": 4294967293, "scriptSig": {"hex": "473044022041e81f99c40e13786b7883278a1350720a3d21ba6f78f3d2e058a2a72753484702206d37be1c7a4349a9b8e9fea2371cf5a198421cd8bda66b8c55d70a01270e1f5401210389aca7af90447fb888a8d1f65e8d9fd406fc9b4eefeea4b18d5e5dfeaf2bea39", "asm": "3044022041e81f99c40e13786b7883278a1350720a3d21ba6f78f3d2e058a2a72753484702206d37be1c7a4349a9b8e9fea2371cf5a198421cd8bda66b8c55d70a01270e1f54[ALL] 0389aca7af90447fb888a8d1f65e8d9fd406fc9b4eefeea4b18d5e5dfeaf2bea39"}, "vout": 1, "txid": "dd72b176b3a42baec064c8e2b4e06275811c4c6c965531120511134cc68c3e6d"}, {"sequence": 4294967293, "scriptSig": {"hex": "483045022100d358d65627b461039290c7c22c0c437e6b5a917936c43c0f9abf27b8efbe4e62022029634476e57a31279591f0aa29aad097b0e1c8c42ccb2bb39871319e68263b2d01210389aca7af90447fb888a8d1f65e8d9fd406fc9b4eefeea4b18d5e5dfeaf2bea39", "asm": "3045022100d358d65627b461039290c7c22c0c437e6b5a917936c43c0f9abf27b8efbe4e62022029634476e57a31279591f0aa29aad097b0e1c8c42ccb2bb39871319e68263b2d[ALL] 0389aca7af90447fb888a8d1f65e8d9fd406fc9b4eefeea4b18d5e5dfeaf2bea39"}, "vout": 1, "txid": "dac87dfe209e173b803773aaf7ea7f28ebb2ede095f5ad72acc1c40e74d81691"}, {"sequence": 4294967293, "scriptSig": {"hex": "483045022100d02717a6fe5104e7a8aa33ca2819c286cc598522701b5d5c3bcb6cd96fa9246602205e30102ffe6e63a5320c8a7d6276aa7877ab399e99235a1b45c58d09fbfb0e4901210389aca7af90447fb888a8d1f65e8d9fd406fc9b4eefeea4b18d5e5dfeaf2bea39", "asm": "3045022100d02717a6fe5104e7a8aa33ca2819c286cc598522701b5d5c3bcb6cd96fa9246602205e30102ffe6e63a5320c8a7d6276aa7877ab399e99235a1b45c58d09fbfb0e49[ALL] 0389aca7af90447fb888a8d1f65e8d9fd406fc9b4eefeea4b18d5e5dfeaf2bea39"}, "vout": 1, "txid": "6fe226fa658ec483df67a1b5a19c934afc19e10417da66c6c3092447c7f76b91"}, {"sequence": 4294967293, "scriptSig": {"hex": "483045022100a707ca23c5292e3b40488db1e57bf40227f5bf6361973bf9cc71bec839a40d0902203cd21b3d7feb30b80b180ac3d20c69d90eb29cb14fcaff98890657482150ad4701210389aca7af90447fb888a8d1f65e8d9fd406fc9b4eefeea4b18d5e5dfeaf2bea39", "asm": "3045022100a707ca23c5292e3b40488db1e57bf40227f5bf6361973bf9cc71bec839a40d0902203cd21b3d7feb30b80b180ac3d20c69d90eb29cb14fcaff98890657482150ad47[ALL] 0389aca7af90447fb888a8d1f65e8d9fd406fc9b4eefeea4b18d5e5dfeaf2bea39"}, "vout": 1, "txid": "4c905728004d2795bedb3ef2131f3cbf132f88fcca5c1f508fc94c2b7221d2bf"}, {"sequence": 4294967293, "scriptSig": {"hex": "473044022013bbe7bb10607d8ebcc1f0aac7a089f339510e344e3e12afa44e84d12a62b427022025c2eb90da4c2a2628801c42c576cfa91dcd4f75dee1ff731fd5e8054998fcd801210389aca7af90447fb888a8d1f65e8d9fd406fc9b4eefeea4b18d5e5dfeaf2bea39", "asm": "3044022013bbe7bb10607d8ebcc1f0aac7a089f339510e344e3e12afa44e84d12a62b427022025c2eb90da4c2a2628801c42c576cfa91dcd4f75dee1ff731fd5e8054998fcd8[ALL] 0389aca7af90447fb888a8d1f65e8d9fd406fc9b4eefeea4b18d5e5dfeaf2bea39"}, "vout": 1, "txid": "b7edfec62f2acf305066918ca3bcbc27b9e6b2997c2b04d80b9e3cf139c872d3"}], "txid": "c33414c7938f52034a1c8fbc8c0dd5c0bd9f3154dd433cdd59a3749e71c6b99e", "blocktime": 1537871175, "version": 2, "confirmations": 11511, "time": 1537871175, "locktime": 542991, "vsize": 1698, "size": 1698}