{"hash": "f665e16fd601edb6c3df97f26fdd8f20f8bc7b45e52d947b3c1247bfe3516f20", "blockhash": "00000000000000000004ffacab907a6b429b9a5745fa0b75af4234bf69dd7176", "vout": [{"scriptPubKey": {"reqSigs": 1, "hex": "76a914b1b942aed425affbc718d4587b766b1fd05c7cbb88ac", "addresses": ["1HCiY5WkidnTr3QBrM6EaYZTaFgoG5sw2C"], "asm": "OP_DUP OP_HASH160 b1b942aed425affbc718d4587b766b1fd05c7cbb OP_EQUALVERIFY OP_CHECKSIG", "type": "pubkeyhash"}, "value": 0.013131, "n": 0}, {"scriptPubKey": {"reqSigs": 1, "hex": "a914aab69397d215ca9ebee9d09ce114462174da67bc87", "addresses": ["3HFfWo4coaL61D31gmu68H7YGEwrEEXnFo"], "asm": "OP_HASH160 aab69397d215ca9ebee9d09ce114462174da67bc OP_EQUAL", "type": "scripthash"}, "value": 0.01131672, "n": 1}], "hex": "02000000000101f5ea937bdc7cd47de7986d11847b2c683437f9f8ca4da6511d18a7221cbbe06d4700000017160014b1ed21e7bf2c44c36ecc9352961ce8563ec13c72ffffffff024c091400000000001976a914b1b942aed425affbc718d4587b766b1fd05c7cbb88ac984411000000000017a914aab69397d215ca9ebee9d09ce114462174da67bc87024830450221008f0108304471f36c89d00edf651918a90f235554556dc0fdb61ee524b5ccbe1f02203bd4c65b8e56c362210f7c6b832574276fd784ce4289de814f546b37f6b60a770121036fc2b96b1f974bd90b71acb79e9060bcb01c6cdd78d348149f2d3efcee36ca8400000000", "vin": [{"txinwitness": ["30450221008f0108304471f36c89d00edf651918a90f235554556dc0fdb61ee524b5ccbe1f02203bd4c65b8e56c362210f7c6b832574276fd784ce4289de814f546b37f6b60a7701", "036fc2b96b1f974bd90b71acb79e9060bcb01c6cdd78d348149f2d3efcee36ca84"], "sequence": 4294967295, "scriptSig": {"hex": "160014b1ed21e7bf2c44c36ecc9352961ce8563ec13c72", "asm": "0014b1ed21e7bf2c44c36ecc9352961ce8563ec13c72"}, "vout": 71, "txid": "6de0bb1c22a7181d51a64dcaf8f93734682c7b84116d98e77dd47cdc7b93eaf5"}], "txid": "c33647feb8a88bc7ad7e9d015b802a79a200d8c2d9a4d937bb547692e00a6200", "blocktime": 1537875543, "version": 2, "confirmations": 11464, "time": 1537875543, "locktime": 0, "vsize": 168, "size": 250}