{"hash": "c337b452a6725f1435921225894fcc2db5f822a7694d96dd0fbc50f4159940a8", "blockhash": "000000000000000000205f8b0775d31398ef75b89a5e8ec8d2c57b4dc0ac4c20", "vout": [{"scriptPubKey": {"reqSigs": 1, "hex": "76a91487f41f0091014842612ba163a2c7f8357e83e97888ac", "addresses": ["1DPrfjGDfJkdPpWojtS7uHuB22b2CHSXzH"], "asm": "OP_DUP OP_HASH160 87f41f0091014842612ba163a2c7f8357e83e978 OP_EQUALVERIFY OP_CHECKSIG", "type": "pubkeyhash"}, "value": 0.01886681, "n": 0}, {"scriptPubKey": {"reqSigs": 1, "hex": "a914a5feab279eefea19d2ebafae279f42d51133d46387", "addresses": ["3GpiVsuNuJbCQcmKWiWdWa7qaqcbenfBD8"], "asm": "OP_HASH160 a5feab279eefea19d2ebafae279f42d51133d463 OP_EQUAL", "type": "scripthash"}, "value": 2.0, "n": 1}], "hex": "010000000377f181d3e3f2e60df34aff6a0f5a8df12c0acdec9e4066fbab1387bf2da443bf000000006b483045022100a550dbdfec2af40bfc8b40381053e5e50db5b3c3e2cc7ba4d43432f56e2c89830220459ebd6938e0ad5984230d142e69462bf6f27ffac49c2f01dd2af6ac87f6b1b501210334c6c522b3db67c7bef28b2b462f54595ba88eeb4163286a3039cbc188affd3bfdffffff9b4957033dbabe03240254bada161da06ab43032383326fa5887675578fe7fcd000000006b483045022100ced34789a26d1e198115a21b624f3735af63f568ec9dc56702a74a56c79b6f8302202e13e5f0fac8ab5be9b90f39a42c6caf516b64e2e6c7e21a68f59cc44b6362b901210334c6c522b3db67c7bef28b2b462f54595ba88eeb4163286a3039cbc188affd3bfdffffff51c8f620a9618782311696cacb736cd7afb9619f9a517ef0c9a61edab08cf5f8010000006b483045022100c62428da3eb9d637b1b81c183696fdb92ab8955379b6a6b60fa5fe7955c2549102204b795e9b6b839db85dd8d588c08b94ba701cbc00fe562c4899d29db9b8116f0601210334c6c522b3db67c7bef28b2b462f54595ba88eeb4163286a3039cbc188affd3bfdffffff02d9c91c00000000001976a91487f41f0091014842612ba163a2c7f8357e83e97888ac00c2eb0b0000000017a914a5feab279eefea19d2ebafae279f42d51133d463870f490800", "vin": [{"sequence": 4294967293, "scriptSig": {"hex": "483045022100a550dbdfec2af40bfc8b40381053e5e50db5b3c3e2cc7ba4d43432f56e2c89830220459ebd6938e0ad5984230d142e69462bf6f27ffac49c2f01dd2af6ac87f6b1b501210334c6c522b3db67c7bef28b2b462f54595ba88eeb4163286a3039cbc188affd3b", "asm": "3045022100a550dbdfec2af40bfc8b40381053e5e50db5b3c3e2cc7ba4d43432f56e2c89830220459ebd6938e0ad5984230d142e69462bf6f27ffac49c2f01dd2af6ac87f6b1b5[ALL] 0334c6c522b3db67c7bef28b2b462f54595ba88eeb4163286a3039cbc188affd3b"}, "vout": 0, "txid": "bf43a42dbf8713abfb66409eeccd0a2cf18d5a0f6aff4af30de6f2e3d381f177"}, {"sequence": 4294967293, "scriptSig": {"hex": "483045022100ced34789a26d1e198115a21b624f3735af63f568ec9dc56702a74a56c79b6f8302202e13e5f0fac8ab5be9b90f39a42c6caf516b64e2e6c7e21a68f59cc44b6362b901210334c6c522b3db67c7bef28b2b462f54595ba88eeb4163286a3039cbc188affd3b", "asm": "3045022100ced34789a26d1e198115a21b624f3735af63f568ec9dc56702a74a56c79b6f8302202e13e5f0fac8ab5be9b90f39a42c6caf516b64e2e6c7e21a68f59cc44b6362b9[ALL] 0334c6c522b3db67c7bef28b2b462f54595ba88eeb4163286a3039cbc188affd3b"}, "vout": 0, "txid": "cd7ffe7855678758fa2633383230b46aa01d16daba54022403beba3d0357499b"}, {"sequence": 4294967293, "scriptSig": {"hex": "483045022100c62428da3eb9d637b1b81c183696fdb92ab8955379b6a6b60fa5fe7955c2549102204b795e9b6b839db85dd8d588c08b94ba701cbc00fe562c4899d29db9b8116f0601210334c6c522b3db67c7bef28b2b462f54595ba88eeb4163286a3039cbc188affd3b", "asm": "3045022100c62428da3eb9d637b1b81c183696fdb92ab8955379b6a6b60fa5fe7955c2549102204b795e9b6b839db85dd8d588c08b94ba701cbc00fe562c4899d29db9b8116f06[ALL] 0334c6c522b3db67c7bef28b2b462f54595ba88eeb4163286a3039cbc188affd3b"}, "vout": 1, "txid": "f8f58cb0da1ea6c9f07e519a9f61b9afd76c73cbca961631828761a920f6c851"}], "txid": "c337b452a6725f1435921225894fcc2db5f822a7694d96dd0fbc50f4159940a8", "blocktime": 1537871175, "version": 1, "confirmations": 11511, "time": 1537871175, "locktime": 542991, "vsize": 520, "size": 520}