{"hash": "c275b6288ecdbfa7490c3f43082954c47b32082e5e1e5aa7f0bfee210307b4da", "blockhash": "00000000000000000004ffacab907a6b429b9a5745fa0b75af4234bf69dd7176", "vout": [{"scriptPubKey": {"reqSigs": 1, "hex": "a914c3e5247650ba4b8a304dac032c2884de1b4f920b87", "addresses": ["3KYpC3cXrFMhv2ur2NXRhuwKbBa5xeQLEY"], "asm": "OP_HASH160 c3e5247650ba4b8a304dac032c2884de1b4f920b OP_EQUAL", "type": "scripthash"}, "value": 0.0133051, "n": 0}, {"scriptPubKey": {"reqSigs": 1, "hex": "a914cbc00d9a3573977d658bb1e8400c19f4c4390fad87", "addresses": ["3LGMAa5DpdELqh2P9FZsa28ey17e8BMKVE"], "asm": "OP_HASH160 cbc00d9a3573977d658bb1e8400c19f4c4390fad OP_EQUAL", "type": "scripthash"}, "value": 0.1363969, "n": 1}], "hex": "020000000001013482de9931381b30a1e53ad5f611b6fb181b1fb9d08ed27207018f9de41efa3700000000171600145de4fcfd2f6e0eb43c94bb1314c60f3f36f1b8d0ffffffff024e4d14000000000017a914c3e5247650ba4b8a304dac032c2884de1b4f920b870a20d0000000000017a914cbc00d9a3573977d658bb1e8400c19f4c4390fad8702483045022100c31ef6bfff85abe6cdd80327afd87de200b7edd3755da603fbbc4f2a8645c8bf022055816e70c08e0a045fa21a1f399429174da29ee30a89d8a102d12e2f01fac0d5012103ca50e4c4e360e2d363d43a8e6319fe5f2baa7265815c12d8f9dc6c46ebf86d5d00000000", "vin": [{"txinwitness": ["3045022100c31ef6bfff85abe6cdd80327afd87de200b7edd3755da603fbbc4f2a8645c8bf022055816e70c08e0a045fa21a1f399429174da29ee30a89d8a102d12e2f01fac0d501", "03ca50e4c4e360e2d363d43a8e6319fe5f2baa7265815c12d8f9dc6c46ebf86d5d"], "sequence": 4294967295, "scriptSig": {"hex": "1600145de4fcfd2f6e0eb43c94bb1314c60f3f36f1b8d0", "asm": "00145de4fcfd2f6e0eb43c94bb1314c60f3f36f1b8d0"}, "vout": 0, "txid": "37fa1ee49d8f010772d28ed0b91f1b18fbb611f6d53ae5a1301b383199de8234"}], "txid": "c33ae6a03176584c0c64e63d4b898191b646299b5ece2c16fb674cafdb369dbe", "blocktime": 1537875543, "version": 2, "confirmations": 11464, "time": 1537875543, "locktime": 0, "vsize": 166, "size": 248}