{"hash": "e690667b576188f1d6b93adfb5c53adac6e793fdd09e56a29aaf14bb9c36b187", "blockhash": "0000000000000000001cda96e906b7601b7a6fb1a3b62bca570a9e5d8f4b3de1", "vout": [{"scriptPubKey": {"reqSigs": 1, "hex": "a914a8dfa8966f42ad2b954bf035320d5b832e5d492487", "addresses": ["3H5wNqe84PYNUpaC8DwdSQujSvG8DHXvxY"], "asm": "OP_HASH160 a8dfa8966f42ad2b954bf035320d5b832e5d4924 OP_EQUAL", "type": "scripthash"}, "value": 0.13539605, "n": 0}, {"scriptPubKey": {"reqSigs": 1, "hex": "76a914aab08ab0cb537741ae45c9198dd6d551228c8c4388ac", "addresses": ["1GZXMwy6nk43Y5pnJJwv8qSRG313kAaW63"], "asm": "OP_DUP OP_HASH160 aab08ab0cb537741ae45c9198dd6d551228c8c43 OP_EQUALVERIFY OP_CHECKSIG", "type": "pubkeyhash"}, "value": 0.053116, "n": 1}], "hex": "0200000000010197ec4552933c617f4a2eb0cd055c95505693c316b6c6d668763cd54d3592a91c01000000171600147b874d489e55a5992b5b06d93f6e1c48288b4e81fdffffff021599ce000000000017a914a8dfa8966f42ad2b954bf035320d5b832e5d492487700c5100000000001976a914aab08ab0cb537741ae45c9198dd6d551228c8c4388ac02473044022024be98ce49b9e6d4263457ccfa8f262f6a5a74b094f7936d05be7c6a1a0dd5fc02203947f054304b3d378651733a74c45ac1473eddb84d79ea4a22507542f950d22a01210317a8a44ce7963509c6a3451ffe6bb28fe2b4749f8bed114fc7e65fe69f2d149813490800", "vin": [{"txinwitness": ["3044022024be98ce49b9e6d4263457ccfa8f262f6a5a74b094f7936d05be7c6a1a0dd5fc02203947f054304b3d378651733a74c45ac1473eddb84d79ea4a22507542f950d22a01", "0317a8a44ce7963509c6a3451ffe6bb28fe2b4749f8bed114fc7e65fe69f2d1498"], "sequence": 4294967293, "scriptSig": {"hex": "1600147b874d489e55a5992b5b06d93f6e1c48288b4e81", "asm": "00147b874d489e55a5992b5b06d93f6e1c48288b4e81"}, "vout": 1, "txid": "1ca992354dd53c7668d6c6b616c3935650955c05cdb02e4a7f613c935245ec97"}], "txid": "c33f35bec509a33ecd2c65400fd133171b898d8d17ec7bd5124e185a91356e21", "blocktime": 1537873282, "version": 2, "confirmations": 11485, "time": 1537873282, "locktime": 542995, "vsize": 168, "size": 249}