{"hash": "5d069739e7549661ff2cabf3ce73ab6a1b6844adebb12c6fe70d91b448fc979b", "blockhash": "000000000000000000022b45ed06c6f4ccd3cf7fb5ba4856ebd2e58215665228", "vout": [{"scriptPubKey": {"reqSigs": 1, "hex": "a914589252f16668e012197ef502741347f7e1c4d76a87", "addresses": ["39mLgCDu9v3XNaJMnGTRcfxnZKn9YXDJe4"], "asm": "OP_HASH160 589252f16668e012197ef502741347f7e1c4d76a OP_EQUAL", "type": "scripthash"}, "value": 7.5620839, "n": 0}, {"scriptPubKey": {"reqSigs": 1, "hex": "a914bfa8cb6cb6ff0a30ef3f615f8f96325abf8c4cb887", "addresses": ["3KARCErbMwEnvWxzGdSquiYpbGvhkvcGDb"], "asm": "OP_HASH160 bfa8cb6cb6ff0a30ef3f615f8f96325abf8c4cb8 OP_EQUAL", "type": "scripthash"}, "value": 0.02022406, "n": 1}], "hex": "02000000000101b1ea28f14d4bce7554c551abe7ac58597aa6bf42600a8f2ca79841b530087a1001000000171600142d3a3a920d967dab5590439816bbf385ae6c824afeffffff0206d3122d0000000017a914589252f16668e012197ef502741347f7e1c4d76a8706dc1e000000000017a914bfa8cb6cb6ff0a30ef3f615f8f96325abf8c4cb8870247304402205e5a9b1399749e6cb3ff64603bcd48c3755d72c12cdc9492eb63ee6abad465c102205d4bc3ad883cc7ded08634f07193aa5bc8e6affc030644f612053f8347cce92a0121035f81515cd67b3162d8f450b90ea3618aaec1de5957da59b6b79c2f80c65e81000b490800", "vin": [{"txinwitness": ["304402205e5a9b1399749e6cb3ff64603bcd48c3755d72c12cdc9492eb63ee6abad465c102205d4bc3ad883cc7ded08634f07193aa5bc8e6affc030644f612053f8347cce92a01", "035f81515cd67b3162d8f450b90ea3618aaec1de5957da59b6b79c2f80c65e8100"], "sequence": 4294967294, "scriptSig": {"hex": "1600142d3a3a920d967dab5590439816bbf385ae6c824a", "asm": "00142d3a3a920d967dab5590439816bbf385ae6c824a"}, "vout": 1, "txid": "107a0830b54198a72c8f0a6042bfa67a5958ace7ab51c55475ce4b4df128eab1"}], "txid": "c3443b884294953b85cfdc63cdeb7a17ba0ae3a86fadee5d68721dd6790d4c20", "blocktime": 1537869901, "version": 2, "confirmations": 11522, "time": 1537869901, "locktime": 542987, "vsize": 166, "size": 247}