{"hash": "ae304e96fcaf50a83f762e41747a27457ded51465109e12e9e34f9ad5ea7c646", "blockhash": "0000000000000000001e0dab787dd257d1dbfcb92a98c2207d5e1078be1f4165", "vout": [{"scriptPubKey": {"reqSigs": 1, "hex": "0014ece9a842ff6bd90b75b7e4c98a4eb3b410eb6117", "addresses": ["bc1qan56sshld0vskadhunyc5n4nksgwkcghya55m3"], "asm": "0 ece9a842ff6bd90b75b7e4c98a4eb3b410eb6117", "type": "witness_v0_keyhash"}, "value": 1.727e-05, "n": 0}, {"scriptPubKey": {"reqSigs": 1, "hex": "a914fcc89e9a4f94b1bac7478a0095515a9f8c6b7bf187", "addresses": ["3QjcYB7Yie35Z4RbSWyGVdp6fVyMD5HKYW"], "asm": "OP_HASH160 fcc89e9a4f94b1bac7478a0095515a9f8c6b7bf1 OP_EQUAL", "type": "scripthash"}, "value": 0.00044625, "n": 1}], "hex": "0100000000010138e7586c539e060ca3fd1433874c83103aff2faa0b5c42eef0b1e691d5f7731500000000171600146f1bb7dc22bc38ff5499c007d04ca13baa564e82ffffffff02bf06000000000000160014ece9a842ff6bd90b75b7e4c98a4eb3b410eb611751ae00000000000017a914fcc89e9a4f94b1bac7478a0095515a9f8c6b7bf18702473044022053eca86bc781d53af9b240ee52a2a3c7001946727e0bb32017475ebd7630bf79022025cca9fd2fab6199cfe7c272f2b082a1973ac5259c304b415c63e141437bc4b90121034103fefa327fe51c0efdc802d378fe61d45dd6613424323a5199be14cb8d1b4a00000000", "vin": [{"txinwitness": ["3044022053eca86bc781d53af9b240ee52a2a3c7001946727e0bb32017475ebd7630bf79022025cca9fd2fab6199cfe7c272f2b082a1973ac5259c304b415c63e141437bc4b901", "034103fefa327fe51c0efdc802d378fe61d45dd6613424323a5199be14cb8d1b4a"], "sequence": 4294967295, "scriptSig": {"hex": "1600146f1bb7dc22bc38ff5499c007d04ca13baa564e82", "asm": "00146f1bb7dc22bc38ff5499c007d04ca13baa564e82"}, "vout": 0, "txid": "1573f7d591e6b1f0ee425c0baa2fff3a10834c873314fda30c069e536c58e738"}], "txid": "c34b8d4e4ca050ed2093b26e2eb89016181c68d0de71adcb4a263b402ab82e47", "blocktime": 1537872475, "version": 1, "confirmations": 11486, "time": 1537872475, "locktime": 0, "vsize": 165, "size": 246}