{"hash": "c350268f9a27496449162283441a2a74fcbda5d1e707a86348438698df4f95e8", "blockhash": "0000000000000000000e13cef7c366c0283d82e591d1acd082e914b08063cdf1", "vout": [{"scriptPubKey": {"reqSigs": 1, "hex": "76a914ba68289057c545bdf8459325455b4143dcf5695688ac", "addresses": ["1HzdTjixn3Fvav4h37ih7fu5o6vKJKAtPJ"], "asm": "OP_DUP OP_HASH160 ba68289057c545bdf8459325455b4143dcf56956 OP_EQUALVERIFY OP_CHECKSIG", "type": "pubkeyhash"}, "value": 0.0025016, "n": 0}, {"scriptPubKey": {"reqSigs": 1, "hex": "76a914cd550dfd44896ff03bee92caa4aaffdfcc48e03e88ac", "addresses": ["1KihR2VDt8AXxds4dqqdMa9smNGeYfvzEJ"], "asm": "OP_DUP OP_HASH160 cd550dfd44896ff03bee92caa4aaffdfcc48e03e OP_EQUALVERIFY OP_CHECKSIG", "type": "pubkeyhash"}, "value": 0.04675665, "n": 1}], "hex": "01000000019c6442cf9bfbf6cd2ab2f4479310608a9854c501e4a276fdd9ed7fac861759dc010000006a47304402200cd66010562169d814345022a2b0162ce907b556ce12774e0293e17dc21c10a4022017d338c7f2354fc4fc766b13f68967eb264cfc928ca9e031b88476c0529a4aa50121023cd74a4f8c5a912ac38efc4b4cbd306bd9ba56aa1f4bf8647697e124870a52adffffffff0230d10300000000001976a914ba68289057c545bdf8459325455b4143dcf5695688ac51584700000000001976a914cd550dfd44896ff03bee92caa4aaffdfcc48e03e88ac00000000", "vin": [{"sequence": 4294967295, "scriptSig": {"hex": "47304402200cd66010562169d814345022a2b0162ce907b556ce12774e0293e17dc21c10a4022017d338c7f2354fc4fc766b13f68967eb264cfc928ca9e031b88476c0529a4aa50121023cd74a4f8c5a912ac38efc4b4cbd306bd9ba56aa1f4bf8647697e124870a52ad", "asm": "304402200cd66010562169d814345022a2b0162ce907b556ce12774e0293e17dc21c10a4022017d338c7f2354fc4fc766b13f68967eb264cfc928ca9e031b88476c0529a4aa5[ALL] 023cd74a4f8c5a912ac38efc4b4cbd306bd9ba56aa1f4bf8647697e124870a52ad"}, "vout": 1, "txid": "dc591786ac7fedd9fd76a2e401c554988a60109347f4b22acdf6fb9bcf42649c"}], "txid": "c350268f9a27496449162283441a2a74fcbda5d1e707a86348438698df4f95e8", "blocktime": 1537871767, "version": 1, "confirmations": 11495, "time": 1537871767, "locktime": 0, "vsize": 225, "size": 225}