{"hash": "c353d6a500cbcfb5c45463ca3ac2d1f5d4383b4b5210f83a27700b4db0f5c933", "blockhash": "0000000000000000000e13cef7c366c0283d82e591d1acd082e914b08063cdf1", "vout": [{"scriptPubKey": {"reqSigs": 1, "hex": "76a9148292ddcbaf2e0916270f8b1583b86b4a6d7f0ccf88ac", "addresses": ["1CuQnPpz2Vb9bHaJSrywVWTBipZgfjRXXi"], "asm": "OP_DUP OP_HASH160 8292ddcbaf2e0916270f8b1583b86b4a6d7f0ccf OP_EQUALVERIFY OP_CHECKSIG", "type": "pubkeyhash"}, "value": 0.49992242, "n": 0}, {"scriptPubKey": {"reqSigs": 1, "hex": "76a914e3823239ce18a2ecc8653a6854f4f3950ef7c7d988ac", "addresses": ["1MjxMjfsKqeyjd8eQHi45N5mARmrD5Lc1u"], "asm": "OP_DUP OP_HASH160 e3823239ce18a2ecc8653a6854f4f3950ef7c7d9 OP_EQUALVERIFY OP_CHECKSIG", "type": "pubkeyhash"}, "value": 1.3, "n": 1}], "hex": "010000000262d571b9d9498a351770f854b56b1873ce5c14ee5458215e97828c23f39b31df010000006b483045022100c55ca7fed188fd62e0ceeded3e7abd9f6c2739914a6382cd69103a1f5d0f9b1902205c9b8ced34d4675e193e64b145ed29dff9d5aed98b0f02acc4aab6deabb5f0d4012103b707251c345077d3e3bc6c71fe1d6c314b3acb94a6204f7fced5267cb230fff0ffffffffa1d7c5c9618ed7f4e49029a3a1a1cc293c9e55fb4e8e73e2f1fe58d31f2e0ced000000006a47304402206860745a7a341b670c45cba03ac60f70346ddfaff04465aee3a4838910c9f57602205c47cbe241b9be9240c7f4c453db83e7b433a3bda4467c7387de37bb7ab4af050121035a875f7c6453c766973293a5de2cfb138a15f0ce06d60f0a91d51c71f537c0dcffffffff0232d2fa02000000001976a9148292ddcbaf2e0916270f8b1583b86b4a6d7f0ccf88ac80a4bf07000000001976a914e3823239ce18a2ecc8653a6854f4f3950ef7c7d988ac00000000", "vin": [{"sequence": 4294967295, "scriptSig": {"hex": "483045022100c55ca7fed188fd62e0ceeded3e7abd9f6c2739914a6382cd69103a1f5d0f9b1902205c9b8ced34d4675e193e64b145ed29dff9d5aed98b0f02acc4aab6deabb5f0d4012103b707251c345077d3e3bc6c71fe1d6c314b3acb94a6204f7fced5267cb230fff0", "asm": "3045022100c55ca7fed188fd62e0ceeded3e7abd9f6c2739914a6382cd69103a1f5d0f9b1902205c9b8ced34d4675e193e64b145ed29dff9d5aed98b0f02acc4aab6deabb5f0d4[ALL] 03b707251c345077d3e3bc6c71fe1d6c314b3acb94a6204f7fced5267cb230fff0"}, "vout": 1, "txid": "df319bf3238c82975e215854ee145cce73186bb554f87017358a49d9b971d562"}, {"sequence": 4294967295, "scriptSig": {"hex": "47304402206860745a7a341b670c45cba03ac60f70346ddfaff04465aee3a4838910c9f57602205c47cbe241b9be9240c7f4c453db83e7b433a3bda4467c7387de37bb7ab4af050121035a875f7c6453c766973293a5de2cfb138a15f0ce06d60f0a91d51c71f537c0dc", "asm": "304402206860745a7a341b670c45cba03ac60f70346ddfaff04465aee3a4838910c9f57602205c47cbe241b9be9240c7f4c453db83e7b433a3bda4467c7387de37bb7ab4af05[ALL] 035a875f7c6453c766973293a5de2cfb138a15f0ce06d60f0a91d51c71f537c0dc"}, "vout": 0, "txid": "ed0c2e1fd358fef1e2738e4efb559e3c29cca1a1a32990e4f4d78e61c9c5d7a1"}], "txid": "c353d6a500cbcfb5c45463ca3ac2d1f5d4383b4b5210f83a27700b4db0f5c933", "blocktime": 1537871767, "version": 1, "confirmations": 11493, "time": 1537871767, "locktime": 0, "vsize": 373, "size": 373}