{"hash": "3fb706f6e344e312eac056e01bb43167be332002c1d0bf9d0a5932784f3393d1", "blockhash": "00000000000000000024a2167bbff67b0be802c0b01cdd79e6331c2be6459f87", "vout": [{"scriptPubKey": {"reqSigs": 1, "hex": "a914414e0939129a2ff41a7f02eada3a91721a2dde3c87", "addresses": ["37eKL3ueVdN5h1ctiQ6TMjYg3XomqZCAbV"], "asm": "OP_HASH160 414e0939129a2ff41a7f02eada3a91721a2dde3c OP_EQUAL", "type": "scripthash"}, "value": 0.01002017, "n": 0}, {"scriptPubKey": {"reqSigs": 1, "hex": "76a914ab3979182df32bcea9f66091722753f10d3c303d88ac", "addresses": ["1GcMQ6jN2iTgapCBfDddooXE8PQFuwPTw3"], "asm": "OP_DUP OP_HASH160 ab3979182df32bcea9f66091722753f10d3c303d OP_EQUALVERIFY OP_CHECKSIG", "type": "pubkeyhash"}, "value": 0.0020406, "n": 1}], "hex": "02000000000102b62e8739079704f70033f6af67f0b925a677da2a7b58f4adde71d1af65b0fade1800000017160014145c51a709c1e0412f19b5f489d19d9eb02b7589feffffffe4608485e894dc16b95781c2d52d55c4c03fe4d1fbaa74732531363294f6ce0e01000000171600141d4c11806d81c2fec83642df7dcf92a60210ed5efeffffff02214a0f000000000017a914414e0939129a2ff41a7f02eada3a91721a2dde3c871c1d0300000000001976a914ab3979182df32bcea9f66091722753f10d3c303d88ac02483045022100bec86eb37d9600c4c8628ed3d0a556309c2dcd3b50d35c80d4c0d6c75b082ae20220295effdaffe7bd9413d8b388e06da3a26ae76bdb59c2434e07c1f5c599f3fbaf012102165c5018a72df4ec1ddb871956e64889f69a0e35d3c7aab34a08f8a320b357bc02483045022100fd124be95e1891c593899de68d647421a21e99d938bb63cac7492b5b643687df02206afcdf37cf5a5695625c7a67b6377f6bb4d5cfa8a69b70658c4a19b94f6af1c1012103924f3acc1500130e9864b16b70dff6f648e924a2a2fc2dd49093f0a0322e4d7f0d490800", "vin": [{"txinwitness": ["3045022100bec86eb37d9600c4c8628ed3d0a556309c2dcd3b50d35c80d4c0d6c75b082ae20220295effdaffe7bd9413d8b388e06da3a26ae76bdb59c2434e07c1f5c599f3fbaf01", "02165c5018a72df4ec1ddb871956e64889f69a0e35d3c7aab34a08f8a320b357bc"], "sequence": 4294967294, "scriptSig": {"hex": "160014145c51a709c1e0412f19b5f489d19d9eb02b7589", "asm": "0014145c51a709c1e0412f19b5f489d19d9eb02b7589"}, "vout": 24, "txid": "defab065afd171deadf4587b2ada77a625b9f067aff63300f704970739872eb6"}, {"txinwitness": ["3045022100fd124be95e1891c593899de68d647421a21e99d938bb63cac7492b5b643687df02206afcdf37cf5a5695625c7a67b6377f6bb4d5cfa8a69b70658c4a19b94f6af1c101", "03924f3acc1500130e9864b16b70dff6f648e924a2a2fc2dd49093f0a0322e4d7f"], "sequence": 4294967294, "scriptSig": {"hex": "1600141d4c11806d81c2fec83642df7dcf92a60210ed5e", "asm": "00141d4c11806d81c2fec83642df7dcf92a60210ed5e"}, "vout": 1, "txid": "0ecef694323631257374aafbd1e43fc0c4552dd5c28157b916dc94e8858460e4"}], "txid": "c3531d3c576be60db1cd69b4b584ea4dcd09c512988bdb7c0c5df7f6e3f2d1b5", "blocktime": 1537870564, "version": 2, "confirmations": 11515, "time": 1537870564, "locktime": 542989, "vsize": 259, "size": 422}