{"hash": "c3577c55bc493bad902f60c74447d534251ec6f072d2a964e33f34ec18d0acdb", "blockhash": "0000000000000000000dcc0f55137456b1a82d3642486a52398922ac4d620174", "vout": [{"scriptPubKey": {"reqSigs": 1, "hex": "76a9144279727221eb2c2f473a4df0c7c29c42d9d0fc6488ac", "addresses": ["174V5x6z1uUG133G4bhMWRubommXE9kuJD"], "asm": "OP_DUP OP_HASH160 4279727221eb2c2f473a4df0c7c29c42d9d0fc64 OP_EQUALVERIFY OP_CHECKSIG", "type": "pubkeyhash"}, "value": 1.005, "n": 0}, {"scriptPubKey": {"reqSigs": 1, "hex": "76a914a46fdcbc734bafb614b32505f0008720e31f964288ac", "addresses": ["1FzTpnZoaYUpeokDsi2fYg4kZKEXUozCmM"], "asm": "OP_DUP OP_HASH160 a46fdcbc734bafb614b32505f0008720e31f9642 OP_EQUALVERIFY OP_CHECKSIG", "type": "pubkeyhash"}, "value": 0.44945947, "n": 1}], "hex": "0100000004dfcfe6a58c5416d6b4c74607b5f6146e7929946be0d68a0b6cc9455f6fddadff000000006b4830450221009c7e39d43b38cd54055cf64dcb7238e7da5af4956aa3406e64eebce274409752022015b388e8bc5af41767e489eb16b71054dcbf3ddb58d50265588fa7f0cc31a8e00121020fb97f7b58bd1f27c2da5652f4d93b6eb4d8753ff9858e9071f51e6960208f8effffffff7655dde42f79e96c46787a0cc422bfebb2cd65c3965087d3af1f520e03646c67000000006a4730440220718a3de404bce5a520869c696080a878a31c02b123222ffe247b434b9d9b4fbe02207265310e8dd3a5e3cd0b31f9971bacbf2a690572b81865e1dff7fb6ae36496ac0121020fb97f7b58bd1f27c2da5652f4d93b6eb4d8753ff9858e9071f51e6960208f8effffffff9d5e59486ba335bd29730c69dbbb75915f9e3846f66ca010b32540975f37d570030000006b483045022100cf3fe67208b7edd87e507e6d4f82e6a77cfa1c21285d4c56a041d5bc777731ca02206db754c8d1677e184519790672f8944099acc2ef72d5917d26c6149f4cfbf6b70121020fb97f7b58bd1f27c2da5652f4d93b6eb4d8753ff9858e9071f51e6960208f8effffffffbc342005e86313c8637b041ada49ab1ddbc68740f512bbb38e4836054e24b5be040000006a47304402204055b57a15f8ee40f5f47c995878e4fb46cb55ebe2871cc45bf3f0b17f2e70e80220681df1c57871cfabe491382efce9d56e987574a6a7675b3d198c708fc95a60440121020fb97f7b58bd1f27c2da5652f4d93b6eb4d8753ff9858e9071f51e6960208f8effffffff022082fd05000000001976a9144279727221eb2c2f473a4df0c7c29c42d9d0fc6488ac1bd2ad02000000001976a914a46fdcbc734bafb614b32505f0008720e31f964288ac00000000", "vin": [{"sequence": 4294967295, "scriptSig": {"hex": "4830450221009c7e39d43b38cd54055cf64dcb7238e7da5af4956aa3406e64eebce274409752022015b388e8bc5af41767e489eb16b71054dcbf3ddb58d50265588fa7f0cc31a8e00121020fb97f7b58bd1f27c2da5652f4d93b6eb4d8753ff9858e9071f51e6960208f8e", "asm": "30450221009c7e39d43b38cd54055cf64dcb7238e7da5af4956aa3406e64eebce274409752022015b388e8bc5af41767e489eb16b71054dcbf3ddb58d50265588fa7f0cc31a8e0[ALL] 020fb97f7b58bd1f27c2da5652f4d93b6eb4d8753ff9858e9071f51e6960208f8e"}, "vout": 0, "txid": "ffaddd6f5f45c96c0b8ad6e06b9429796e14f6b50746c7b4d616548ca5e6cfdf"}, {"sequence": 4294967295, "scriptSig": {"hex": "4730440220718a3de404bce5a520869c696080a878a31c02b123222ffe247b434b9d9b4fbe02207265310e8dd3a5e3cd0b31f9971bacbf2a690572b81865e1dff7fb6ae36496ac0121020fb97f7b58bd1f27c2da5652f4d93b6eb4d8753ff9858e9071f51e6960208f8e", "asm": "30440220718a3de404bce5a520869c696080a878a31c02b123222ffe247b434b9d9b4fbe02207265310e8dd3a5e3cd0b31f9971bacbf2a690572b81865e1dff7fb6ae36496ac[ALL] 020fb97f7b58bd1f27c2da5652f4d93b6eb4d8753ff9858e9071f51e6960208f8e"}, "vout": 0, "txid": "676c64030e521fafd3875096c365cdb2ebbf22c40c7a78466ce9792fe4dd5576"}, {"sequence": 4294967295, "scriptSig": {"hex": "483045022100cf3fe67208b7edd87e507e6d4f82e6a77cfa1c21285d4c56a041d5bc777731ca02206db754c8d1677e184519790672f8944099acc2ef72d5917d26c6149f4cfbf6b70121020fb97f7b58bd1f27c2da5652f4d93b6eb4d8753ff9858e9071f51e6960208f8e", "asm": "3045022100cf3fe67208b7edd87e507e6d4f82e6a77cfa1c21285d4c56a041d5bc777731ca02206db754c8d1677e184519790672f8944099acc2ef72d5917d26c6149f4cfbf6b7[ALL] 020fb97f7b58bd1f27c2da5652f4d93b6eb4d8753ff9858e9071f51e6960208f8e"}, "vout": 3, "txid": "70d5375f974025b310a06cf646389e5f9175bbdb690c7329bd35a36b48595e9d"}, {"sequence": 4294967295, "scriptSig": {"hex": "47304402204055b57a15f8ee40f5f47c995878e4fb46cb55ebe2871cc45bf3f0b17f2e70e80220681df1c57871cfabe491382efce9d56e987574a6a7675b3d198c708fc95a60440121020fb97f7b58bd1f27c2da5652f4d93b6eb4d8753ff9858e9071f51e6960208f8e", "asm": "304402204055b57a15f8ee40f5f47c995878e4fb46cb55ebe2871cc45bf3f0b17f2e70e80220681df1c57871cfabe491382efce9d56e987574a6a7675b3d198c708fc95a6044[ALL] 020fb97f7b58bd1f27c2da5652f4d93b6eb4d8753ff9858e9071f51e6960208f8e"}, "vout": 4, "txid": "beb5244e0536488eb3bb12f54087c6db1dab49da1a047b63c81363e8052034bc"}], "txid": "c3577c55bc493bad902f60c74447d534251ec6f072d2a964e33f34ec18d0acdb", "blocktime": 1537870268, "version": 1, "confirmations": 11516, "time": 1537870268, "locktime": 0, "vsize": 668, "size": 668}