{"hash": "c35c5c51294a404cca566c6b0618b771226186ba310429f3b49cbf59db8bdbf3", "blockhash": "00000000000000000017f5eb5941039fbcee6240d03bc1f2f8e35350df66a1d8", "vout": [{"scriptPubKey": {"reqSigs": 1, "hex": "a91415ce7d5cb9d6b76b92baef587a2887605d19f5c387", "addresses": ["33gKUjAagpvSbUcMvqKwCs75GCAPTdaANu"], "asm": "OP_HASH160 15ce7d5cb9d6b76b92baef587a2887605d19f5c3 OP_EQUAL", "type": "scripthash"}, "value": 0.00083735, "n": 0}, {"scriptPubKey": {"reqSigs": 1, "hex": "76a914c255b40740e13359035d69638ce56f02ef56b9c888ac", "addresses": ["1JiYkyrmKpcrm4hBJw11iJi9Kx42WkK2PY"], "asm": "OP_DUP OP_HASH160 c255b40740e13359035d69638ce56f02ef56b9c8 OP_EQUALVERIFY OP_CHECKSIG", "type": "pubkeyhash"}, "value": 0.0035, "n": 1}], "hex": "0100000001e5dde678b6c044cc2963108f6d66abcaf5db8cfc0032131614a10e5d640b136101000000fc0047304402203da65daee15146b71316608bab6aa91fd02976e0795ec3bc48e105324ddb2403022024c17836f50c26a7c124c8523c5057241c592ce396cfa59a23ef6d5299dc0f1c0147304402205cc061afcb3d851fce3a9164dc4c3bcb0ff6d31c6f98da7fcacd16d17ca2b40802206dd8c606ca47bb3f0c0754ba79bc040d0c0d8f98b9e5009e5bbee20d4c2ebd35014c695221033170f8689354cd0887551b6f955e51b4ffaac2e052e0a2bb4ba80f99960d88532103744d5d01ee0d95478ada90e073a50e690c853c9d3fd6cffb2253aae8a84e5bbc2103c6077a5c9f37701faffd530c0f772edca3bee30b55c2456d5ef351c3bb0aee6b53aefdffffff02174701000000000017a91415ce7d5cb9d6b76b92baef587a2887605d19f5c38730570500000000001976a914c255b40740e13359035d69638ce56f02ef56b9c888ac15490800", "vin": [{"sequence": 4294967293, "scriptSig": {"hex": "0047304402203da65daee15146b71316608bab6aa91fd02976e0795ec3bc48e105324ddb2403022024c17836f50c26a7c124c8523c5057241c592ce396cfa59a23ef6d5299dc0f1c0147304402205cc061afcb3d851fce3a9164dc4c3bcb0ff6d31c6f98da7fcacd16d17ca2b40802206dd8c606ca47bb3f0c0754ba79bc040d0c0d8f98b9e5009e5bbee20d4c2ebd35014c695221033170f8689354cd0887551b6f955e51b4ffaac2e052e0a2bb4ba80f99960d88532103744d5d01ee0d95478ada90e073a50e690c853c9d3fd6cffb2253aae8a84e5bbc2103c6077a5c9f37701faffd530c0f772edca3bee30b55c2456d5ef351c3bb0aee6b53ae", "asm": "0 304402203da65daee15146b71316608bab6aa91fd02976e0795ec3bc48e105324ddb2403022024c17836f50c26a7c124c8523c5057241c592ce396cfa59a23ef6d5299dc0f1c[ALL] 304402205cc061afcb3d851fce3a9164dc4c3bcb0ff6d31c6f98da7fcacd16d17ca2b40802206dd8c606ca47bb3f0c0754ba79bc040d0c0d8f98b9e5009e5bbee20d4c2ebd35[ALL] 5221033170f8689354cd0887551b6f955e51b4ffaac2e052e0a2bb4ba80f99960d88532103744d5d01ee0d95478ada90e073a50e690c853c9d3fd6cffb2253aae8a84e5bbc2103c6077a5c9f37701faffd530c0f772edca3bee30b55c2456d5ef351c3bb0aee6b53ae"}, "vout": 1, "txid": "61130b645d0ea11416133200fc8cdbf5caab666d8f106329cc44c0b678e6dde5"}], "txid": "c35c5c51294a404cca566c6b0618b771226186ba310429f3b49cbf59db8bdbf3", "blocktime": 1537874412, "version": 1, "confirmations": 11467, "time": 1537874412, "locktime": 542997, "vsize": 369, "size": 369}