{"hash": "f018711d4812b20782d40824e841efe1f46853fc6063b99bb6f1d3e76c14c592", "blockhash": "00000000000000000018f53835495a110e01622372bf6ae95dc86f2b0ab887b0", "vout": [{"scriptPubKey": {"reqSigs": 1, "hex": "76a9146602f00de97637c9903022d496de7842709881f788ac", "addresses": ["1AJPSgb2sNRLbKDFfowk5hwY7QLXfte8DK"], "asm": "OP_DUP OP_HASH160 6602f00de97637c9903022d496de7842709881f7 OP_EQUALVERIFY OP_CHECKSIG", "type": "pubkeyhash"}, "value": 0.005136, "n": 0}, {"scriptPubKey": {"reqSigs": 1, "hex": "a914c1c567db047fd8c058467821ce94c766260edb7587", "addresses": ["3KMapZ7fyYi9zp1LgbKV7RNJCvhTp2hUsA"], "asm": "OP_HASH160 c1c567db047fd8c058467821ce94c766260edb75 OP_EQUAL", "type": "scripthash"}, "value": 0.02204103, "n": 1}], "hex": "02000000000102239181a66e56a6e8113d65117acf6b12fae1f418db799d5e009b3fe7fbcafab7000000001716001476ee46f61a3f72fe9e77f0bfe1854908a6b5cbbafeffffffa2e9a9fde5c8624536ff52dde5405c9ffce19da4a42cd4e84c81c952c84456d101000000171600149cf4bad4f0cfe81d3aa029db3099318024b38677feffffff0240d60700000000001976a9146602f00de97637c9903022d496de7842709881f788acc7a121000000000017a914c1c567db047fd8c058467821ce94c766260edb758702483045022100d7c92a670e34b11ca920fba24b9e0f9e267e68b1b702a941a36107f27be08beb022036efb1219d6ed82fba719eeccc959467bf38385f5ec70cc5f04117fc8bc76ad501210242ae5fd24e6cf4bc1603cfa2c04ff555ff540c7606dcff088bbdb1a42bc8967802483045022100c4427e434625c7b007a5db309d2a0ec92a64ea8183112d09d4c43e40d4e4b7c9022008abccc592c42254d9a9deb42153e5edf4fa40bc7642c905533195d524e7ce41012103b488d24374838a4e19587ace51ba8c7d55ea4878c42e2907a25301b20f3060bb0e490800", "vin": [{"txinwitness": ["3045022100d7c92a670e34b11ca920fba24b9e0f9e267e68b1b702a941a36107f27be08beb022036efb1219d6ed82fba719eeccc959467bf38385f5ec70cc5f04117fc8bc76ad501", "0242ae5fd24e6cf4bc1603cfa2c04ff555ff540c7606dcff088bbdb1a42bc89678"], "sequence": 4294967294, "scriptSig": {"hex": "16001476ee46f61a3f72fe9e77f0bfe1854908a6b5cbba", "asm": "001476ee46f61a3f72fe9e77f0bfe1854908a6b5cbba"}, "vout": 0, "txid": "b7facafbe73f9b005e9d79db18f4e1fa126bcf7a11653d11e8a6566ea6819123"}, {"txinwitness": ["3045022100c4427e434625c7b007a5db309d2a0ec92a64ea8183112d09d4c43e40d4e4b7c9022008abccc592c42254d9a9deb42153e5edf4fa40bc7642c905533195d524e7ce4101", "03b488d24374838a4e19587ace51ba8c7d55ea4878c42e2907a25301b20f3060bb"], "sequence": 4294967294, "scriptSig": {"hex": "1600149cf4bad4f0cfe81d3aa029db3099318024b38677", "asm": "00149cf4bad4f0cfe81d3aa029db3099318024b38677"}, "vout": 1, "txid": "d15644c852c9814ce8d42ca4a49de1fc9f5c40e5dd52ff364562c8e5fda9e9a2"}], "txid": "c35da50d222713243cfe98121f46a92599f9077253f7f5fbd8dcb8331931d82c", "blocktime": 1537870928, "version": 2, "confirmations": 11512, "time": 1537870928, "locktime": 542990, "vsize": 259, "size": 422}