{"hash": "c36ac6df8d8e3a49648a20e8da3890b524f28d76cd389640d8fe408e23660ab6", "blockhash": "0000000000000000001e0dab787dd257d1dbfcb92a98c2207d5e1078be1f4165", "vout": [{"scriptPubKey": {"reqSigs": 1, "hex": "76a914d11826e291dc9588b5ce026fd2d0a357d2255c2e88ac", "addresses": ["1L4bACM4f6o7Ec7zkwB84BaPj5g6BFXDfT"], "asm": "OP_DUP OP_HASH160 d11826e291dc9588b5ce026fd2d0a357d2255c2e OP_EQUALVERIFY OP_CHECKSIG", "type": "pubkeyhash"}, "value": 0.55086099, "n": 0}, {"scriptPubKey": {"reqSigs": 1, "hex": "76a9143fd21bba9799ebfe573333c612d02aa0e2ea219e88ac", "addresses": ["16pTGfguuzE6VnEEA8KBt97KrVqi3GD534"], "asm": "OP_DUP OP_HASH160 3fd21bba9799ebfe573333c612d02aa0e2ea219e OP_EQUALVERIFY OP_CHECKSIG", "type": "pubkeyhash"}, "value": 0.95211954, "n": 1}], "hex": "01000000031b757897c399f7bdb7083ce88151384936cbd551533c255a7fa87fb0aa00fd27010000006a47304402202d42997eb3dd1171010c0d9d8ac71ca5a6abf89d8f9176a54c2d43305943bcb002205ad92a6d67900fe3bc7a6fced01cc6e5adf89165a4e70e2cb088130c768cbf46012102665a5594e254adefcde92d5b0336ab7994b38c039b60c967b84c823b1b6a6b78ffffffffe72483a86767f842257c81b9438c1bb1a9e8ce50ce4dc9f10e004ba96e659675010000006b483045022100869e7ef21bdec13e307bee17b2f975a1a426ee1df60ffcf15fba1ba1389dd3680220726cd7aa3c27ff200c0929b560b9f0be268ed5894bdecf304b5563aa9576b5140121037ec355932b7f4893fba2d8be3158cd1a8fbef651cca36b8563e1e98dc38326faffffffff749406860fb65aa9b2ff79f64423b155ed1babfc303d40c80b03fe51d3b9c58a000000006a473044022062344335bea90dd809356e8051bcfb6268baf9d8479ddc39169edf8a498680e502203e2c223ed9e32b92af46e43867b198e2955b46278a140ba2a13d96cd702e8a5d012102a68a54939c1ae65b3437a03ec4f4b74c0e028c19780bbcf9050b08a957438c15ffffffff02138c4803000000001976a914d11826e291dc9588b5ce026fd2d0a357d2255c2e88acb2d1ac05000000001976a9143fd21bba9799ebfe573333c612d02aa0e2ea219e88ac00000000", "vin": [{"sequence": 4294967295, "scriptSig": {"hex": "47304402202d42997eb3dd1171010c0d9d8ac71ca5a6abf89d8f9176a54c2d43305943bcb002205ad92a6d67900fe3bc7a6fced01cc6e5adf89165a4e70e2cb088130c768cbf46012102665a5594e254adefcde92d5b0336ab7994b38c039b60c967b84c823b1b6a6b78", "asm": "304402202d42997eb3dd1171010c0d9d8ac71ca5a6abf89d8f9176a54c2d43305943bcb002205ad92a6d67900fe3bc7a6fced01cc6e5adf89165a4e70e2cb088130c768cbf46[ALL] 02665a5594e254adefcde92d5b0336ab7994b38c039b60c967b84c823b1b6a6b78"}, "vout": 1, "txid": "27fd00aab07fa87f5a253c5351d5cb3649385181e83c08b7bdf799c39778751b"}, {"sequence": 4294967295, "scriptSig": {"hex": "483045022100869e7ef21bdec13e307bee17b2f975a1a426ee1df60ffcf15fba1ba1389dd3680220726cd7aa3c27ff200c0929b560b9f0be268ed5894bdecf304b5563aa9576b5140121037ec355932b7f4893fba2d8be3158cd1a8fbef651cca36b8563e1e98dc38326fa", "asm": "3045022100869e7ef21bdec13e307bee17b2f975a1a426ee1df60ffcf15fba1ba1389dd3680220726cd7aa3c27ff200c0929b560b9f0be268ed5894bdecf304b5563aa9576b514[ALL] 037ec355932b7f4893fba2d8be3158cd1a8fbef651cca36b8563e1e98dc38326fa"}, "vout": 1, "txid": "7596656ea94b000ef1c94dce50cee8a9b11b8c43b9817c2542f86767a88324e7"}, {"sequence": 4294967295, "scriptSig": {"hex": "473044022062344335bea90dd809356e8051bcfb6268baf9d8479ddc39169edf8a498680e502203e2c223ed9e32b92af46e43867b198e2955b46278a140ba2a13d96cd702e8a5d012102a68a54939c1ae65b3437a03ec4f4b74c0e028c19780bbcf9050b08a957438c15", "asm": "3044022062344335bea90dd809356e8051bcfb6268baf9d8479ddc39169edf8a498680e502203e2c223ed9e32b92af46e43867b198e2955b46278a140ba2a13d96cd702e8a5d[ALL] 02a68a54939c1ae65b3437a03ec4f4b74c0e028c19780bbcf9050b08a957438c15"}, "vout": 0, "txid": "8ac5b9d351fe030bc8403d30fcab1bed55b12344f679ffb2a95ab60f86069474"}], "txid": "c36ac6df8d8e3a49648a20e8da3890b524f28d76cd389640d8fe408e23660ab6", "blocktime": 1537872475, "version": 1, "confirmations": 11487, "time": 1537872475, "locktime": 0, "vsize": 520, "size": 520}