{"hash": "c36f2c3697f5480f2e7a58b2b8def2ad9b27357a6ef89149225bcff8714474c0", "blockhash": "0000000000000000001f76057863aec43deb6fa401d9628bb513d65a8098bfab", "vout": [{"scriptPubKey": {"reqSigs": 1, "hex": "76a914ab2a9d50d30937548f24999a134f7b21dbb99a2a88ac", "addresses": ["1Gc3biG5hsHAoj4ZNAtnT4sCBbtF9sKEEL"], "asm": "OP_DUP OP_HASH160 ab2a9d50d30937548f24999a134f7b21dbb99a2a OP_EQUALVERIFY OP_CHECKSIG", "type": "pubkeyhash"}, "value": 0.09998954, "n": 0}, {"scriptPubKey": {"type": "nulldata", "hex": "6a146f6d6e69000000000000001f00000045d073e680", "asm": "OP_RETURN 6f6d6e69000000000000001f00000045d073e680"}, "value": 0.0, "n": 1}], "hex": "0100000002d4cb1ad94362648adfeac17047f4d98258fffeea7cafcaab9184afdb11109e11010000006a47304402202877b6cf325240f3df52c44659f407a86f9eb7c5b078c186773ce2235f7828e00220279a5f70cca6f51f16c8ff1b096fcebe8d9f86e0c3acbdf71c0ad66986560e3c012103cb9d3263da7247587906e828505932465a7e3ccb9044dd771a0d8ae96eabc0d7ffffffff8129617e916491a9f111484b8663a0689024eb555cb9e7d02febb8b1dfd055d8040000006b4830450221009a83b4882af52c9d578a172c8101e27eb638feddd04d4a16134090d608a49db702207a3d935616ebb311b4a1a3be907f197833dde31eb879fec14267c59ac747844901210390424deb98da6c45c0af5063423f08c91c8161cac684e32e1a05023933e974b9ffffffff026a929800000000001976a914ab2a9d50d30937548f24999a134f7b21dbb99a2a88ac0000000000000000166a146f6d6e69000000000000001f00000045d073e68000000000", "vin": [{"sequence": 4294967295, "scriptSig": {"hex": "47304402202877b6cf325240f3df52c44659f407a86f9eb7c5b078c186773ce2235f7828e00220279a5f70cca6f51f16c8ff1b096fcebe8d9f86e0c3acbdf71c0ad66986560e3c012103cb9d3263da7247587906e828505932465a7e3ccb9044dd771a0d8ae96eabc0d7", "asm": "304402202877b6cf325240f3df52c44659f407a86f9eb7c5b078c186773ce2235f7828e00220279a5f70cca6f51f16c8ff1b096fcebe8d9f86e0c3acbdf71c0ad66986560e3c[ALL] 03cb9d3263da7247587906e828505932465a7e3ccb9044dd771a0d8ae96eabc0d7"}, "vout": 1, "txid": "119e1011dbaf8491abcaaf7ceafeff5882d9f44770c1eadf8a646243d91acbd4"}, {"sequence": 4294967295, "scriptSig": {"hex": "4830450221009a83b4882af52c9d578a172c8101e27eb638feddd04d4a16134090d608a49db702207a3d935616ebb311b4a1a3be907f197833dde31eb879fec14267c59ac747844901210390424deb98da6c45c0af5063423f08c91c8161cac684e32e1a05023933e974b9", "asm": "30450221009a83b4882af52c9d578a172c8101e27eb638feddd04d4a16134090d608a49db702207a3d935616ebb311b4a1a3be907f197833dde31eb879fec14267c59ac7478449[ALL] 0390424deb98da6c45c0af5063423f08c91c8161cac684e32e1a05023933e974b9"}, "vout": 4, "txid": "d855d0dfb1b8eb2fd0e7b95c55eb249068a063864b4811f1a99164917e612981"}], "txid": "c36f2c3697f5480f2e7a58b2b8def2ad9b27357a6ef89149225bcff8714474c0", "blocktime": 1537873891, "version": 1, "confirmations": 11478, "time": 1537873891, "locktime": 0, "vsize": 370, "size": 370}