{"hash": "c372bd9013d004368925f8d91df198d638890216aedb1f9e50613cdb7bf09b8f", "blockhash": "00000000000000000017f5eb5941039fbcee6240d03bc1f2f8e35350df66a1d8", "vout": [{"scriptPubKey": {"reqSigs": 1, "hex": "76a914fc89eb1399fa38b0d5a301fb22392146fbd4d33e88ac", "addresses": ["1Q2JW56CmFN3jetc437mq1Ufko92dw2STT"], "asm": "OP_DUP OP_HASH160 fc89eb1399fa38b0d5a301fb22392146fbd4d33e OP_EQUALVERIFY OP_CHECKSIG", "type": "pubkeyhash"}, "value": 0.24, "n": 0}, {"scriptPubKey": {"reqSigs": 1, "hex": "76a9144df76ca3188283332f9959a0f03e37301ecd019788ac", "addresses": ["187FS7ny7cURKRynASFG1wmey2pUd2RvBv"], "asm": "OP_DUP OP_HASH160 4df76ca3188283332f9959a0f03e37301ecd0197 OP_EQUALVERIFY OP_CHECKSIG", "type": "pubkeyhash"}, "value": 1.10733674, "n": 1}], "hex": "0100000001aa0162de738fc5c78d015a20e5bfb07922b325a1af3e776b691063d764b29392000000006a47304402207e3767b739e1608528e9a720ac3de09e32ff66550157851c9c8295ef06f891e902201bd38f2b2272befdfdee189c0548fc8ea26c7158a2d114c51e92fa9beba6242b0121038a58a85528eaba1bee32fff90c0fc7b8eedc41c87e4f13e75a06287ec92c68d4ffffffff0200366e01000000001976a914fc89eb1399fa38b0d5a301fb22392146fbd4d33e88ac6aa99906000000001976a9144df76ca3188283332f9959a0f03e37301ecd019788ac00000000", "vin": [{"sequence": 4294967295, "scriptSig": {"hex": "47304402207e3767b739e1608528e9a720ac3de09e32ff66550157851c9c8295ef06f891e902201bd38f2b2272befdfdee189c0548fc8ea26c7158a2d114c51e92fa9beba6242b0121038a58a85528eaba1bee32fff90c0fc7b8eedc41c87e4f13e75a06287ec92c68d4", "asm": "304402207e3767b739e1608528e9a720ac3de09e32ff66550157851c9c8295ef06f891e902201bd38f2b2272befdfdee189c0548fc8ea26c7158a2d114c51e92fa9beba6242b[ALL] 038a58a85528eaba1bee32fff90c0fc7b8eedc41c87e4f13e75a06287ec92c68d4"}, "vout": 0, "txid": "9293b264d76310696b773eafa125b32279b0bfe5205a018dc7c58f73de6201aa"}], "txid": "c372bd9013d004368925f8d91df198d638890216aedb1f9e50613cdb7bf09b8f", "blocktime": 1537874412, "version": 1, "confirmations": 11467, "time": 1537874412, "locktime": 0, "vsize": 225, "size": 225}