{"hash": "f24eed1fca919d7a6298f4925f1edc2af127eafa1e4e181f25521d2d63637201", "blockhash": "0000000000000000000e13cef7c366c0283d82e591d1acd082e914b08063cdf1", "vout": [{"scriptPubKey": {"reqSigs": 1, "hex": "76a914a7bb7f01977c00f6df0095193cb1f2314b67175788ac", "addresses": ["1GHtTVfzEicKD19prGfwanMVXUQRMR79dC"], "asm": "OP_DUP OP_HASH160 a7bb7f01977c00f6df0095193cb1f2314b671757 OP_EQUALVERIFY OP_CHECKSIG", "type": "pubkeyhash"}, "value": 0.05434315, "n": 0}, {"scriptPubKey": {"reqSigs": 1, "hex": "a9140553d51908df8c43d07b4ab9de2f51690cd5343b87", "addresses": ["32BBjHFrQAwjJzhQZdKnuLDsrJJ6ERRtsx"], "asm": "OP_HASH160 0553d51908df8c43d07b4ab9de2f51690cd5343b OP_EQUAL", "type": "scripthash"}, "value": 0.58719528, "n": 1}], "hex": "02000000000101e61bbbd658b6badbd6b47d6ffeedc8b6999217f9b4798642153236bf327708e901000000171600142f03d4e6637069be1f6c97567054be93215c446bfeffffff02cbeb5200000000001976a914a7bb7f01977c00f6df0095193cb1f2314b67175788ac28fd7f030000000017a9140553d51908df8c43d07b4ab9de2f51690cd5343b8702483045022100e6f93ffb1ac1bc697f127ecdbfc9a157feb4488c86418101d1a8dcfba40826470220334a5de35084529de8061ab93016c050cb1f1ce918bd99bbe47e17aeb1661cd80121024a5311d299ad5cb96105f0263538594ec45069cbe2de0b739019cdf4e6908c6d0f490800", "vin": [{"txinwitness": ["3045022100e6f93ffb1ac1bc697f127ecdbfc9a157feb4488c86418101d1a8dcfba40826470220334a5de35084529de8061ab93016c050cb1f1ce918bd99bbe47e17aeb1661cd801", "024a5311d299ad5cb96105f0263538594ec45069cbe2de0b739019cdf4e6908c6d"], "sequence": 4294967294, "scriptSig": {"hex": "1600142f03d4e6637069be1f6c97567054be93215c446b", "asm": "00142f03d4e6637069be1f6c97567054be93215c446b"}, "vout": 1, "txid": "e9087732bf363215428679b4f9179299b6c8edfe6f7db4d6dbbab658d6bb1be6"}], "txid": "c378f7d1e2184a933e317ec8e7a7ead6f39c3f8f0672d1e62463fb4a73adfef4", "blocktime": 1537871767, "version": 2, "confirmations": 11495, "time": 1537871767, "locktime": 542991, "vsize": 168, "size": 250}