{"hash": "c37914c65955de75d2491934bfa243a936dfe0034d7318a0caea16c0993fc11d", "blockhash": "00000000000000000018f53835495a110e01622372bf6ae95dc86f2b0ab887b0", "vout": [{"scriptPubKey": {"reqSigs": 1, "hex": "76a9142ba278babde62af0ab3bc43124b3592addefa3e988ac", "addresses": ["14yigyTKqzdePeTGbmPVHcnwHQYyU7t399"], "asm": "OP_DUP OP_HASH160 2ba278babde62af0ab3bc43124b3592addefa3e9 OP_EQUALVERIFY OP_CHECKSIG", "type": "pubkeyhash"}, "value": 0.55636086, "n": 0}, {"scriptPubKey": {"reqSigs": 1, "hex": "a914faafdc95b1ce77bd7c98c8d51977fd0cc42a343f87", "addresses": ["3QYXXaof9Rtn4K64WvsXvSnNYAaZrcoJJj"], "asm": "OP_HASH160 faafdc95b1ce77bd7c98c8d51977fd0cc42a343f OP_EQUAL", "type": "scripthash"}, "value": 0.781, "n": 1}], "hex": "0100000002fa5a8b40d6405676f60b6d3b1ee9658f4256c6242613b13291cb28e9811bae3e010000006a473044022076272dad86993d15964bed82fd1b5be7a99e691f067fb0c28de46b5f2f2d107402204125a1b4d7bb9dbb84c4e572b3c0619544bcfcd1cfdf9009b37e740e476e609c0121028c908536a36b5de3459210f67ff8263d88152e4845735f16a23f98729edc6c53ffffffff72f26c952d663a5a3782ccf477b042905e78a9caf0a44ed972b95ac159a22b99010000006b483045022100b8a8f019105292882ca2f8ce3e69ac1eb254e8bf9edf16575da8c79c5701dd1b02201c4024e535567be91be5a01f270f49fc0617e3aa9a052c882f4a484f608d065501210380b08ffc9bd6253ebf1ff84755e0f6b12f918004788df904ed5b390210fdcfb8ffffffff0276f05003000000001976a9142ba278babde62af0ab3bc43124b3592addefa3e988ac20b6a7040000000017a914faafdc95b1ce77bd7c98c8d51977fd0cc42a343f8700000000", "vin": [{"sequence": 4294967295, "scriptSig": {"hex": "473044022076272dad86993d15964bed82fd1b5be7a99e691f067fb0c28de46b5f2f2d107402204125a1b4d7bb9dbb84c4e572b3c0619544bcfcd1cfdf9009b37e740e476e609c0121028c908536a36b5de3459210f67ff8263d88152e4845735f16a23f98729edc6c53", "asm": "3044022076272dad86993d15964bed82fd1b5be7a99e691f067fb0c28de46b5f2f2d107402204125a1b4d7bb9dbb84c4e572b3c0619544bcfcd1cfdf9009b37e740e476e609c[ALL] 028c908536a36b5de3459210f67ff8263d88152e4845735f16a23f98729edc6c53"}, "vout": 1, "txid": "3eae1b81e928cb9132b1132624c656428f65e91e3b6d0bf6765640d6408b5afa"}, {"sequence": 4294967295, "scriptSig": {"hex": "483045022100b8a8f019105292882ca2f8ce3e69ac1eb254e8bf9edf16575da8c79c5701dd1b02201c4024e535567be91be5a01f270f49fc0617e3aa9a052c882f4a484f608d065501210380b08ffc9bd6253ebf1ff84755e0f6b12f918004788df904ed5b390210fdcfb8", "asm": "3045022100b8a8f019105292882ca2f8ce3e69ac1eb254e8bf9edf16575da8c79c5701dd1b02201c4024e535567be91be5a01f270f49fc0617e3aa9a052c882f4a484f608d0655[ALL] 0380b08ffc9bd6253ebf1ff84755e0f6b12f918004788df904ed5b390210fdcfb8"}, "vout": 1, "txid": "992ba259c15ab972d94ea4f0caa9785e9042b077f4cc82375a3a662d956cf272"}], "txid": "c37914c65955de75d2491934bfa243a936dfe0034d7318a0caea16c0993fc11d", "blocktime": 1537870928, "version": 1, "confirmations": 11512, "time": 1537870928, "locktime": 0, "vsize": 371, "size": 371}