{"hash": "c37bd7c7de8b2542cb1db9b490ecc60884a8252a57d4d1ecf0fa0bcc452007a7", "blockhash": "0000000000000000000e13cef7c366c0283d82e591d1acd082e914b08063cdf1", "vout": [{"scriptPubKey": {"reqSigs": 1, "hex": "76a914e13e21322fcec674d5a6985b380c43f969255abd88ac", "addresses": ["1MXyU1R1XdVu3dNkifVQzVHfjjS6d5DWd6"], "asm": "OP_DUP OP_HASH160 e13e21322fcec674d5a6985b380c43f969255abd OP_EQUALVERIFY OP_CHECKSIG", "type": "pubkeyhash"}, "value": 0.00015644, "n": 0}], "hex": "01000000039f9b09232725a81acb812ab3eb7643ff095cc46ed26c11d3ae7a9dc118c5d2ac000000006b4830450221008aba7e3bdc914d9970eac20ce9a0dfc2d0282879f1b75c8838f02558d60a479a022059061b63aef31d5c41c0417fbb90e7f328fe784106b7c30e96daf395a1bf1494012102aa494ccc3cf8113543ed20dae0ba0cdf454d768da47bb6daf9bb30b80b1889dbffffffff3d31387acf2146f6ff98c7aaef332a4b69705757d209c64d627d73c6baab1495010000006a47304402207ba82b9a3f6b227f4b9cccef3af8d571ed5f20919e7b096fda5a927b96e33dce022059ad7912fa4cce4361dc4ff1162817d633e17cbfc905bbb4ded3a5ba2098e6ea012103427627a1889ac4d833ecd4005cfe476dfb0164704bbf2580edbf5569e7f6a2f6ffffffff8ff02fcd5ba11f08a539264867f8a2ad036c4bb3fbdf986fd4e76b0ac2f59394000000006a47304402200c02fb95e112964c253e31596bf29d6e266bfc7b3b9fee77a315a4ba9ea899ce022012fa3d37ba5bf80b7800baeafae4ab96928eb7984e44792df5a65dca27fd5a2d0121020f275e585872f86762a207f1078bb5d5c0c3963a2ed6652fed2c187158e63c8dffffffff011c3d0000000000001976a914e13e21322fcec674d5a6985b380c43f969255abd88ac00000000", "vin": [{"sequence": 4294967295, "scriptSig": {"hex": "4830450221008aba7e3bdc914d9970eac20ce9a0dfc2d0282879f1b75c8838f02558d60a479a022059061b63aef31d5c41c0417fbb90e7f328fe784106b7c30e96daf395a1bf1494012102aa494ccc3cf8113543ed20dae0ba0cdf454d768da47bb6daf9bb30b80b1889db", "asm": "30450221008aba7e3bdc914d9970eac20ce9a0dfc2d0282879f1b75c8838f02558d60a479a022059061b63aef31d5c41c0417fbb90e7f328fe784106b7c30e96daf395a1bf1494[ALL] 02aa494ccc3cf8113543ed20dae0ba0cdf454d768da47bb6daf9bb30b80b1889db"}, "vout": 0, "txid": "acd2c518c19d7aaed3116cd26ec45c09ff4376ebb32a81cb1aa8252723099b9f"}, {"sequence": 4294967295, "scriptSig": {"hex": "47304402207ba82b9a3f6b227f4b9cccef3af8d571ed5f20919e7b096fda5a927b96e33dce022059ad7912fa4cce4361dc4ff1162817d633e17cbfc905bbb4ded3a5ba2098e6ea012103427627a1889ac4d833ecd4005cfe476dfb0164704bbf2580edbf5569e7f6a2f6", "asm": "304402207ba82b9a3f6b227f4b9cccef3af8d571ed5f20919e7b096fda5a927b96e33dce022059ad7912fa4cce4361dc4ff1162817d633e17cbfc905bbb4ded3a5ba2098e6ea[ALL] 03427627a1889ac4d833ecd4005cfe476dfb0164704bbf2580edbf5569e7f6a2f6"}, "vout": 1, "txid": "9514abbac6737d624dc609d2575770694b2a33efaac798fff64621cf7a38313d"}, {"sequence": 4294967295, "scriptSig": {"hex": "47304402200c02fb95e112964c253e31596bf29d6e266bfc7b3b9fee77a315a4ba9ea899ce022012fa3d37ba5bf80b7800baeafae4ab96928eb7984e44792df5a65dca27fd5a2d0121020f275e585872f86762a207f1078bb5d5c0c3963a2ed6652fed2c187158e63c8d", "asm": "304402200c02fb95e112964c253e31596bf29d6e266bfc7b3b9fee77a315a4ba9ea899ce022012fa3d37ba5bf80b7800baeafae4ab96928eb7984e44792df5a65dca27fd5a2d[ALL] 020f275e585872f86762a207f1078bb5d5c0c3963a2ed6652fed2c187158e63c8d"}, "vout": 0, "txid": "9493f5c20a6be7d46f98dffbb34b6c03ada2f867482639a5081fa15bcd2ff08f"}], "txid": "c37bd7c7de8b2542cb1db9b490ecc60884a8252a57d4d1ecf0fa0bcc452007a7", "blocktime": 1537871767, "version": 1, "confirmations": 11490, "time": 1537871767, "locktime": 0, "vsize": 486, "size": 486}