{"hash": "c37d629d5beaddf5ac1a7518dafdfd6a31938004480ced0a25cd02f4494b966e", "blockhash": "00000000000000000018f53835495a110e01622372bf6ae95dc86f2b0ab887b0", "vout": [{"scriptPubKey": {"reqSigs": 1, "hex": "76a91468cf166a7229740afe49d5403c3506b6235f068288ac", "addresses": ["1AZBMeVW9i4DggmJMgDVVUDqwCW445t9pN"], "asm": "OP_DUP OP_HASH160 68cf166a7229740afe49d5403c3506b6235f0682 OP_EQUALVERIFY OP_CHECKSIG", "type": "pubkeyhash"}, "value": 0.00646784, "n": 0}, {"scriptPubKey": {"type": "nulldata", "hex": "6a4c500000778200015aa091b580448882568b364dbcbefa6b8351586b4e86aeaeacb577c031fc00b8ec07956fbef6f6fdb23a1c7eddd85baa0b03061403b1747f0a3a1d100759d4ba30d2c37bb011d97e02cf", "asm": "OP_RETURN 0000778200015aa091b580448882568b364dbcbefa6b8351586b4e86aeaeacb577c031fc00b8ec07956fbef6f6fdb23a1c7eddd85baa0b03061403b1747f0a3a1d100759d4ba30d2c37bb011d97e02cf"}, "value": 0.0, "n": 1}], "hex": "01000000016df770ce1986d8cd1a499744031e12c1a33c46415289701a49692f28348924f5010000006a473044022073a06e9026efd70cc36dfcc1a2f4333062c24d68c10eb2783fad6155fbaba1f20220792ab62329489d231434f8a25986dce8a76dd4709a81b7df44a1a7ea411aa5cc012103b169f7570d0ccc055842d591b468fd85cd91ba9a041ece8dfcfc7905cf29d2e3ffffffff0280de0900000000001976a91468cf166a7229740afe49d5403c3506b6235f068288ac0000000000000000536a4c500000778200015aa091b580448882568b364dbcbefa6b8351586b4e86aeaeacb577c031fc00b8ec07956fbef6f6fdb23a1c7eddd85baa0b03061403b1747f0a3a1d100759d4ba30d2c37bb011d97e02cf00000000", "vin": [{"sequence": 4294967295, "scriptSig": {"hex": "473044022073a06e9026efd70cc36dfcc1a2f4333062c24d68c10eb2783fad6155fbaba1f20220792ab62329489d231434f8a25986dce8a76dd4709a81b7df44a1a7ea411aa5cc012103b169f7570d0ccc055842d591b468fd85cd91ba9a041ece8dfcfc7905cf29d2e3", "asm": "3044022073a06e9026efd70cc36dfcc1a2f4333062c24d68c10eb2783fad6155fbaba1f20220792ab62329489d231434f8a25986dce8a76dd4709a81b7df44a1a7ea411aa5cc[ALL] 03b169f7570d0ccc055842d591b468fd85cd91ba9a041ece8dfcfc7905cf29d2e3"}, "vout": 1, "txid": "f5248934282f69491a70895241463ca3c1121e034497491acdd88619ce70f76d"}], "txid": "c37d629d5beaddf5ac1a7518dafdfd6a31938004480ced0a25cd02f4494b966e", "blocktime": 1537870928, "version": 1, "confirmations": 11512, "time": 1537870928, "locktime": 0, "vsize": 283, "size": 283}