{"hash": "ff32149ca451d2596825008e03b7f80ef283207724676ac4d79e7a3b71746f43", "blockhash": "0000000000000000001cda96e906b7601b7a6fb1a3b62bca570a9e5d8f4b3de1", "vout": [{"scriptPubKey": {"reqSigs": 1, "hex": "76a9140c84d6102f00754feccc00191cc647d0dd7d97f488ac", "addresses": ["129CEvUA9xtVhguEzQ4ge2HfSKZadKMGRi"], "asm": "OP_DUP OP_HASH160 0c84d6102f00754feccc00191cc647d0dd7d97f4 OP_EQUALVERIFY OP_CHECKSIG", "type": "pubkeyhash"}, "value": 0.18487421, "n": 0}, {"scriptPubKey": {"reqSigs": 1, "hex": "a914c175f17fcab8f6e1061b17cc873340a3d9ea3cb387", "addresses": ["3KKwdR2aXUrxUoCXnTVGYcxrBBBHCosW3G"], "asm": "OP_HASH160 c175f17fcab8f6e1061b17cc873340a3d9ea3cb3 OP_EQUAL", "type": "scripthash"}, "value": 2.18177722, "n": 1}], "hex": "01000000000101854dfe11a877863e3b75b1555596513b084ffe9553b6ec4f445dfdb3a47aa3590100000017160014018a8713e0babdc1dc0957b1aec708c96aa30757ffffffff027d181a01000000001976a9140c84d6102f00754feccc00191cc647d0dd7d97f488acba20010d0000000017a914c175f17fcab8f6e1061b17cc873340a3d9ea3cb38702483045022100d2d95539b593fd7927613b89475bc1080c3cdb62caf86445078d177d63014c0802202fa0f2657a2766c90769152a6d49df54edcddfcf30c6d38e153db791cb004933012102db7f320ef1be1b74ccb9d0f8eccc80e45d219ee5a78eff0ab6d25461f8e60b8c00000000", "vin": [{"txinwitness": ["3045022100d2d95539b593fd7927613b89475bc1080c3cdb62caf86445078d177d63014c0802202fa0f2657a2766c90769152a6d49df54edcddfcf30c6d38e153db791cb00493301", "02db7f320ef1be1b74ccb9d0f8eccc80e45d219ee5a78eff0ab6d25461f8e60b8c"], "sequence": 4294967295, "scriptSig": {"hex": "160014018a8713e0babdc1dc0957b1aec708c96aa30757", "asm": "0014018a8713e0babdc1dc0957b1aec708c96aa30757"}, "vout": 1, "txid": "59a37aa4b3fd5d444fecb65395fe4f083b51965555b1753b3e8677a811fe4d85"}], "txid": "c3826674cdd710357ec248cd84e0313e71cbaec8fbec9bac96b6d60dbb1c11e1", "blocktime": 1537873282, "version": 1, "confirmations": 11480, "time": 1537873282, "locktime": 0, "vsize": 168, "size": 250}