{"hash": "c3860fe1fd85e035d2f60e788df167aa73e25b2a660e1e4303b62cb55daf28da", "blockhash": "0000000000000000001f76057863aec43deb6fa401d9628bb513d65a8098bfab", "vout": [{"scriptPubKey": {"reqSigs": 1, "hex": "76a91447c37b6c494236a09e61891989998b7441dcac2c88ac", "addresses": ["17YT9xSTz2eCni6sVrCjcfMiDMvErWF5mB"], "asm": "OP_DUP OP_HASH160 47c37b6c494236a09e61891989998b7441dcac2c OP_EQUALVERIFY OP_CHECKSIG", "type": "pubkeyhash"}, "value": 3.493e-05, "n": 0}, {"scriptPubKey": {"reqSigs": 1, "hex": "76a914648db1d7266e8ccb94b82b82c81ca7d707c13fed88ac", "addresses": ["1AAgKJZ6EY6dCR2iwKaFEYoN8a11uNn6Pv"], "asm": "OP_DUP OP_HASH160 648db1d7266e8ccb94b82b82c81ca7d707c13fed OP_EQUALVERIFY OP_CHECKSIG", "type": "pubkeyhash"}, "value": 5.46e-06, "n": 1}, {"scriptPubKey": {"type": "nulldata", "hex": "6a146f6d6e69000000000000001f000000e3f0f27e00", "asm": "OP_RETURN 6f6d6e69000000000000001f000000e3f0f27e00"}, "value": 0.0, "n": 2}], "hex": "0100000002c4d4835e07fa62030cbb21ac3d459621ce95ac18ed3c81b1dc1a7c8a13649fd8020000006b483045022100c0ff2ba276282a18fc4f07161c5340b01fb1e35f7ad4316002828ef231b72b0802201ba91da04f6142c7492afe09812ed62e70bffa60aeb62d7bbac67de41ba17ec3012102bd30825bd05ab0f76159b2ce8e211dcabb2ea0c7cd93b887239fa565cc7f1e2ffffffffff714fb4f95a86d64690a27ded459accf36960f16cb188c8fc013ada6a8bb1d58020000006b483045022100a006173ec3d0cda26f0e39c2a4e4a182ea9a572d657a37c0cc6a94f9ac4370b002205a965c75a81de76c24b2cb5dac4fe44425bd34de82fa70747dcd5ab11a4952b8012102bd30825bd05ab0f76159b2ce8e211dcabb2ea0c7cd93b887239fa565cc7f1e2fffffffff03a50d0000000000001976a91447c37b6c494236a09e61891989998b7441dcac2c88ac22020000000000001976a914648db1d7266e8ccb94b82b82c81ca7d707c13fed88ac0000000000000000166a146f6d6e69000000000000001f000000e3f0f27e0000000000", "vin": [{"sequence": 4294967295, "scriptSig": {"hex": "483045022100c0ff2ba276282a18fc4f07161c5340b01fb1e35f7ad4316002828ef231b72b0802201ba91da04f6142c7492afe09812ed62e70bffa60aeb62d7bbac67de41ba17ec3012102bd30825bd05ab0f76159b2ce8e211dcabb2ea0c7cd93b887239fa565cc7f1e2f", "asm": "3045022100c0ff2ba276282a18fc4f07161c5340b01fb1e35f7ad4316002828ef231b72b0802201ba91da04f6142c7492afe09812ed62e70bffa60aeb62d7bbac67de41ba17ec3[ALL] 02bd30825bd05ab0f76159b2ce8e211dcabb2ea0c7cd93b887239fa565cc7f1e2f"}, "vout": 2, "txid": "d89f64138a7c1adcb1813ced18ac95ce2196453dac21bb0c0362fa075e83d4c4"}, {"sequence": 4294967295, "scriptSig": {"hex": "483045022100a006173ec3d0cda26f0e39c2a4e4a182ea9a572d657a37c0cc6a94f9ac4370b002205a965c75a81de76c24b2cb5dac4fe44425bd34de82fa70747dcd5ab11a4952b8012102bd30825bd05ab0f76159b2ce8e211dcabb2ea0c7cd93b887239fa565cc7f1e2f", "asm": "3045022100a006173ec3d0cda26f0e39c2a4e4a182ea9a572d657a37c0cc6a94f9ac4370b002205a965c75a81de76c24b2cb5dac4fe44425bd34de82fa70747dcd5ab11a4952b8[ALL] 02bd30825bd05ab0f76159b2ce8e211dcabb2ea0c7cd93b887239fa565cc7f1e2f"}, "vout": 2, "txid": "581dbba8a6ad13c08f8c18cb160f9636cfac59d4de270a69646da8954ffb14f7"}], "txid": "c3860fe1fd85e035d2f60e788df167aa73e25b2a660e1e4303b62cb55daf28da", "blocktime": 1537873891, "version": 1, "confirmations": 11475, "time": 1537873891, "locktime": 0, "vsize": 405, "size": 405}