{"hash": "b317f2b3364dafb11f24fe8937142243c2e6b675f46ccb21dd028fe0e40b17e4", "blockhash": "0000000000000000001cda96e906b7601b7a6fb1a3b62bca570a9e5d8f4b3de1", "vout": [{"scriptPubKey": {"reqSigs": 1, "hex": "a914d9aedf0092940f463b9b819e0b4728a67a0d307787", "addresses": ["3MY23Rnbav8BkcncawvzxgY4QZLhe1EvRZ"], "asm": "OP_HASH160 d9aedf0092940f463b9b819e0b4728a67a0d3077 OP_EQUAL", "type": "scripthash"}, "value": 1.08866419, "n": 0}, {"scriptPubKey": {"reqSigs": 1, "hex": "76a9144cc5bdc87fc16eec1ff62f0327620619266541bf88ac", "addresses": ["17zwEtXKo3xtKy2aiDzGEX7t2KwY6ciwDA"], "asm": "OP_DUP OP_HASH160 4cc5bdc87fc16eec1ff62f0327620619266541bf OP_EQUALVERIFY OP_CHECKSIG", "type": "pubkeyhash"}, "value": 0.3, "n": 1}], "hex": "02000000000101b61d26d52150be3d2d317d94a5d2c60d03b82159422eb199286442b503b64a150100000000fdffffff02732b7d060000000017a914d9aedf0092940f463b9b819e0b4728a67a0d30778780c3c901000000001976a9144cc5bdc87fc16eec1ff62f0327620619266541bf88ac02483045022100be3fabd7534af51aace28017693f094142f9096dbebaea24e9863026a107d15402204f3b10f3a956bee30a6a365ad46d25d7341de68b69bdfce0bae205b997c5c32701210294e7d6ceec65f1a28d06017e3385536eb5a63e78a05cbc2af9811c9a9a345d5a12490800", "vin": [{"txinwitness": ["3045022100be3fabd7534af51aace28017693f094142f9096dbebaea24e9863026a107d15402204f3b10f3a956bee30a6a365ad46d25d7341de68b69bdfce0bae205b997c5c32701", "0294e7d6ceec65f1a28d06017e3385536eb5a63e78a05cbc2af9811c9a9a345d5a"], "sequence": 4294967293, "scriptSig": {"hex": "", "asm": ""}, "vout": 1, "txid": "154ab603b542642899b12e425921b8030dc6d2a5947d312d3dbe5021d5261db6"}], "txid": "c387f2d04e59d6657280c1709d80fd020df2da93c43549abfe1aa1aa98d9a6b5", "blocktime": 1537873282, "version": 2, "confirmations": 11484, "time": 1537873282, "locktime": 542994, "vsize": 145, "size": 227}