{"hash": "c39358676d1ebf33268c13ac5f06a57af346ffa06fd294de3fe3f7c0f1158a4e", "blockhash": "000000000000000000205f8b0775d31398ef75b89a5e8ec8d2c57b4dc0ac4c20", "vout": [{"scriptPubKey": {"reqSigs": 1, "hex": "21020e46e79a2a8d12b9b5d12c7a91adb4e454edfae43c0a0cb805427d2ac7613fd9ac", "addresses": ["1P3rU1Nk1pmc2BiWC8dEy9bZa1ZbMp5jfg"], "asm": "020e46e79a2a8d12b9b5d12c7a91adb4e454edfae43c0a0cb805427d2ac7613fd9 OP_CHECKSIG", "type": "pubkey"}, "value": 0.000988, "n": 0}, {"scriptPubKey": {"type": "nulldata", "hex": "6a2852b3845cb6ed2ef7551f5e07f3bcabcdd7aad3cb73cc2ce351509f8e04000000dea30f004b4d4400", "asm": "OP_RETURN 52b3845cb6ed2ef7551f5e07f3bcabcdd7aad3cb73cc2ce351509f8e04000000dea30f004b4d4400"}, "value": 0.0, "n": 1}], "hex": "010000000df9610e485aa11b7c4f710e7775ba4b1e9e5358c24b89cc2a1e04c59369b455620600000048473044022044340225ff3ac82ddfad88fd78be00eadd0301c023723958423ebe69e4a26434022018b1cc2aabb6122eba7cd359a13aa6d3493f51f4322f1a067ed33354d6830b0501ffffffff8406cda80cb1265e4bd2097043695a390b5ec2bd5f09fdcf1efe981d45876c870b00000049483045022100e22b6e3a2a7e92c1832446863b95a189a760fe6ce8b023484820611200b14dc7022011389dd5976b537eae1793c80367d6379af71558bdd070143fc1a65849401f4f01ffffffffdc5d57c9dd2ca528b17a81e63c3e8f1678a498c35977e2d9138c18c34486d0830000000049483045022100c83927b61452a8c575365132a492b5b24395c6765a86bdfef8775e20d9130a4902203d9b1acffe8a0eb5353156c1238bcb14a8a82a51c46fd79fa561bd3c0c3daf3e01ffffffff962f33e49b0318a1b118acb12af1386524e029806ae62996bce5320e7101159b0900000049483045022100cc58c0e3e341352a03b6b85c4503a9672dd621005a84be5ea8f7ce77220d56e402204ff3dabd0cc5c870b52ffcd67891e2a2fd361c3ad908c8af1f95d38b47b3703101ffffffffb0939a26a0d0f070413bab411328939c530fa1f41c10232cfb178845290355c4070000004847304402204dbd57eedd31eeadf4b004815fa7a8b80d4ce99b1dc2666a86e6ad20363fca0f0220344f0ab85765872ae46a7ed6a7224a4b541d5627c9e8211432c96d1bd5fb39c601ffffffffa6a4a92edf8584fa1268e834eaeb667238e9e682a7774bb33148b83206bd8e68000000004847304402204db7a41b05cc4d6eb0a3a6a008ea068f4f2dee004338648f5c52609d9a48b36302205ba7dbca350c5eedf034856f35ddac229b9cb8e4a3833ad04a5d93d081cf915601ffffffff7149b66b98377237389ed7e710a6d2afcaef2b1d2c2ae992e9fee8b7ff5a59c50200000049483045022100a127ac8ae033370826edd489aead368864c995b715d44e1bb7872522b801964402204c67fe21183795a6d3ee45c110bc28d2bc3f3534418f0b8c5a4439e77bd5a8b401ffffffffec94729556b38da60860fb0bff65a510a70e4f14a26ce6fe1353d299de5760ac0100000049483045022100b8e288ad44a17ea39b38502e1b917cf1f38476cd39d02b950255fa76832992cd022014eca981874fa9a60eca7a5b72c084f96b6a8cac3a7fd818c32c468a576a1f8101fffffffffc9ba16bfd77f98bd9d91bb9f2576d4978f5f961141adf3a6c74e38331f2ea990e00000049483045022100824551721317bf6174069b4c4c24d6aeab702b8dd5be9f7b4f39752ed40a6d86022030e8a5d2ebf7be5ea38fbe4b12b45a95c3a074f6fa72a6997dd74865c192aa6b01ffffffff6f11c91d50af68f8b4cb55eef0afb5b53380d2426b6be924bca4aa6e7158438b0000000049483045022100b942345fd71d99ee44845766b299e43dcaa0ab83434cf47489cce366501ec66a022065995485cdf5adac5ad9762b7b00dd5575b52ee2299aaac814e9e946dc5fae8901ffffffff44b2fc16cae5f2ee204d44a821df289d95237c9de61209f0e2767e27d05b84450100000049483045022100b02c56b29e629414ebb3364e954f8d15089ab5f7f4ef03f8f9a39d09c201782202200e45981cdff66da8e33eba55f8af875b0a6171285547ee144275f7f1399ae04701ffffffff5ddcbe1fae68d124d2b8286793a3e47338cf2c3ff38ec13b146d602bc159c9080700000048473044022057efc5d963baf8e3bd27f6b59bde477201722982bce58d875c08eb67434f10470220198ad2d4fe7dfd3615e4acd576602cd66a8713b4b320471046a2e6c1a14f195901ffffffffc11f9307711acdab58291e761db199ff6984f5f26f7771ba9aae64e5085149ba0600000049483045022100ca46bc246db93c2f15acda2134ea1ca41c29d712fa6c02a82d519d992a9ba81d02205ecba85c922f2c868707c3c112b8861a0d86524b8e527056e08212b3ad4a6c5b01ffffffff02f0810100000000002321020e46e79a2a8d12b9b5d12c7a91adb4e454edfae43c0a0cb805427d2ac7613fd9ac00000000000000002a6a2852b3845cb6ed2ef7551f5e07f3bcabcdd7aad3cb73cc2ce351509f8e04000000dea30f004b4d440000000000", "vin": [{"sequence": 4294967295, "scriptSig": {"hex": "473044022044340225ff3ac82ddfad88fd78be00eadd0301c023723958423ebe69e4a26434022018b1cc2aabb6122eba7cd359a13aa6d3493f51f4322f1a067ed33354d6830b0501", "asm": "3044022044340225ff3ac82ddfad88fd78be00eadd0301c023723958423ebe69e4a26434022018b1cc2aabb6122eba7cd359a13aa6d3493f51f4322f1a067ed33354d6830b05[ALL]"}, "vout": 6, "txid": "6255b46993c5041e2acc894bc258539e1e4bba75770e714f7c1ba15a480e61f9"}, {"sequence": 4294967295, "scriptSig": {"hex": "483045022100e22b6e3a2a7e92c1832446863b95a189a760fe6ce8b023484820611200b14dc7022011389dd5976b537eae1793c80367d6379af71558bdd070143fc1a65849401f4f01", "asm": "3045022100e22b6e3a2a7e92c1832446863b95a189a760fe6ce8b023484820611200b14dc7022011389dd5976b537eae1793c80367d6379af71558bdd070143fc1a65849401f4f[ALL]"}, "vout": 11, "txid": "876c87451d98fe1ecffd095fbdc25e0b395a69437009d24b5e26b10ca8cd0684"}, {"sequence": 4294967295, "scriptSig": {"hex": "483045022100c83927b61452a8c575365132a492b5b24395c6765a86bdfef8775e20d9130a4902203d9b1acffe8a0eb5353156c1238bcb14a8a82a51c46fd79fa561bd3c0c3daf3e01", "asm": "3045022100c83927b61452a8c575365132a492b5b24395c6765a86bdfef8775e20d9130a4902203d9b1acffe8a0eb5353156c1238bcb14a8a82a51c46fd79fa561bd3c0c3daf3e[ALL]"}, "vout": 0, "txid": "83d08644c3188c13d9e27759c398a478168f3e3ce6817ab128a52cddc9575ddc"}, {"sequence": 4294967295, "scriptSig": {"hex": "483045022100cc58c0e3e341352a03b6b85c4503a9672dd621005a84be5ea8f7ce77220d56e402204ff3dabd0cc5c870b52ffcd67891e2a2fd361c3ad908c8af1f95d38b47b3703101", "asm": "3045022100cc58c0e3e341352a03b6b85c4503a9672dd621005a84be5ea8f7ce77220d56e402204ff3dabd0cc5c870b52ffcd67891e2a2fd361c3ad908c8af1f95d38b47b37031[ALL]"}, "vout": 9, "txid": "9b1501710e32e5bc9629e66a8029e0246538f12ab1ac18b1a118039be4332f96"}, {"sequence": 4294967295, "scriptSig": {"hex": "47304402204dbd57eedd31eeadf4b004815fa7a8b80d4ce99b1dc2666a86e6ad20363fca0f0220344f0ab85765872ae46a7ed6a7224a4b541d5627c9e8211432c96d1bd5fb39c601", "asm": "304402204dbd57eedd31eeadf4b004815fa7a8b80d4ce99b1dc2666a86e6ad20363fca0f0220344f0ab85765872ae46a7ed6a7224a4b541d5627c9e8211432c96d1bd5fb39c6[ALL]"}, "vout": 7, "txid": "c4550329458817fb2c23101cf4a10f539c93281341ab3b4170f0d0a0269a93b0"}, {"sequence": 4294967295, "scriptSig": {"hex": "47304402204db7a41b05cc4d6eb0a3a6a008ea068f4f2dee004338648f5c52609d9a48b36302205ba7dbca350c5eedf034856f35ddac229b9cb8e4a3833ad04a5d93d081cf915601", "asm": "304402204db7a41b05cc4d6eb0a3a6a008ea068f4f2dee004338648f5c52609d9a48b36302205ba7dbca350c5eedf034856f35ddac229b9cb8e4a3833ad04a5d93d081cf9156[ALL]"}, "vout": 0, "txid": "688ebd0632b84831b34b77a782e6e9387266ebea34e86812fa8485df2ea9a4a6"}, {"sequence": 4294967295, "scriptSig": {"hex": "483045022100a127ac8ae033370826edd489aead368864c995b715d44e1bb7872522b801964402204c67fe21183795a6d3ee45c110bc28d2bc3f3534418f0b8c5a4439e77bd5a8b401", "asm": "3045022100a127ac8ae033370826edd489aead368864c995b715d44e1bb7872522b801964402204c67fe21183795a6d3ee45c110bc28d2bc3f3534418f0b8c5a4439e77bd5a8b4[ALL]"}, "vout": 2, "txid": "c5595affb7e8fee992e92a2c1d2befcaafd2a610e7d79e38377237986bb64971"}, {"sequence": 4294967295, "scriptSig": {"hex": "483045022100b8e288ad44a17ea39b38502e1b917cf1f38476cd39d02b950255fa76832992cd022014eca981874fa9a60eca7a5b72c084f96b6a8cac3a7fd818c32c468a576a1f8101", "asm": "3045022100b8e288ad44a17ea39b38502e1b917cf1f38476cd39d02b950255fa76832992cd022014eca981874fa9a60eca7a5b72c084f96b6a8cac3a7fd818c32c468a576a1f81[ALL]"}, "vout": 1, "txid": "ac6057de99d25313fee66ca2144f0ea710a565ff0bfb6008a68db356957294ec"}, {"sequence": 4294967295, "scriptSig": {"hex": "483045022100824551721317bf6174069b4c4c24d6aeab702b8dd5be9f7b4f39752ed40a6d86022030e8a5d2ebf7be5ea38fbe4b12b45a95c3a074f6fa72a6997dd74865c192aa6b01", "asm": "3045022100824551721317bf6174069b4c4c24d6aeab702b8dd5be9f7b4f39752ed40a6d86022030e8a5d2ebf7be5ea38fbe4b12b45a95c3a074f6fa72a6997dd74865c192aa6b[ALL]"}, "vout": 14, "txid": "99eaf23183e3746c3adf1a1461f9f578496d57f2b91bd9d98bf977fd6ba19bfc"}, {"sequence": 4294967295, "scriptSig": {"hex": "483045022100b942345fd71d99ee44845766b299e43dcaa0ab83434cf47489cce366501ec66a022065995485cdf5adac5ad9762b7b00dd5575b52ee2299aaac814e9e946dc5fae8901", "asm": "3045022100b942345fd71d99ee44845766b299e43dcaa0ab83434cf47489cce366501ec66a022065995485cdf5adac5ad9762b7b00dd5575b52ee2299aaac814e9e946dc5fae89[ALL]"}, "vout": 0, "txid": "8b4358716eaaa4bc24e96b6b42d28033b5b5aff0ee55cbb4f868af501dc9116f"}, {"sequence": 4294967295, "scriptSig": {"hex": "483045022100b02c56b29e629414ebb3364e954f8d15089ab5f7f4ef03f8f9a39d09c201782202200e45981cdff66da8e33eba55f8af875b0a6171285547ee144275f7f1399ae04701", "asm": "3045022100b02c56b29e629414ebb3364e954f8d15089ab5f7f4ef03f8f9a39d09c201782202200e45981cdff66da8e33eba55f8af875b0a6171285547ee144275f7f1399ae047[ALL]"}, "vout": 1, "txid": "45845bd0277e76e2f00912e69d7c23959d28df21a8444d20eef2e5ca16fcb244"}, {"sequence": 4294967295, "scriptSig": {"hex": "473044022057efc5d963baf8e3bd27f6b59bde477201722982bce58d875c08eb67434f10470220198ad2d4fe7dfd3615e4acd576602cd66a8713b4b320471046a2e6c1a14f195901", "asm": "3044022057efc5d963baf8e3bd27f6b59bde477201722982bce58d875c08eb67434f10470220198ad2d4fe7dfd3615e4acd576602cd66a8713b4b320471046a2e6c1a14f1959[ALL]"}, "vout": 7, "txid": "08c959c12b606d143bc18ef33f2ccf3873e4a3936728b8d224d168ae1fbedc5d"}, {"sequence": 4294967295, "scriptSig": {"hex": "483045022100ca46bc246db93c2f15acda2134ea1ca41c29d712fa6c02a82d519d992a9ba81d02205ecba85c922f2c868707c3c112b8861a0d86524b8e527056e08212b3ad4a6c5b01", "asm": "3045022100ca46bc246db93c2f15acda2134ea1ca41c29d712fa6c02a82d519d992a9ba81d02205ecba85c922f2c868707c3c112b8861a0d86524b8e527056e08212b3ad4a6c5b[ALL]"}, "vout": 6, "txid": "ba495108e564ae9aba71776ff2f58469ff99b11d761e2958abcd1a7107931fc1"}], "txid": "c39358676d1ebf33268c13ac5f06a57af346ffa06fd294de3fe3f7c0f1158a4e", "blocktime": 1537871175, "version": 1, "confirmations": 11511, "time": 1537871175, "locktime": 0, "vsize": 1583, "size": 1583}