{"hash": "c7952997d4334ca3e7b69451ba80ce8a012b5c9467e3c24950f226468965036b", "blockhash": "0000000000000000000dcc0f55137456b1a82d3642486a52398922ac4d620174", "vout": [{"scriptPubKey": {"reqSigs": 1, "hex": "0014ea34207be4c4451331407f7f0a8dc0ff7420132f", "addresses": ["bc1qag6zq7lyc3z3xv2q0als4rwqla6zqye0jc02az"], "asm": "0 ea34207be4c4451331407f7f0a8dc0ff7420132f", "type": "witness_v0_keyhash"}, "value": 1.064e-05, "n": 0}, {"scriptPubKey": {"reqSigs": 1, "hex": "76a914452e9fb2eab4e6574914f5c0961caf3c5d9b91e988ac", "addresses": ["17JoUiYs9DxLzz8sJqbZqSX5pTe4uDFjgr"], "asm": "OP_DUP OP_HASH160 452e9fb2eab4e6574914f5c0961caf3c5d9b91e9 OP_EQUALVERIFY OP_CHECKSIG", "type": "pubkeyhash"}, "value": 0.00365, "n": 1}], "hex": "0100000000010150d17fa20815df8cd962d7cb5bf820504184227d69be3109a3c8ade4c8c2a4e10000000000ffffffff022804000000000000160014ea34207be4c4451331407f7f0a8dc0ff7420132fc8910500000000001976a914452e9fb2eab4e6574914f5c0961caf3c5d9b91e988ac02483045022100f59e7a86942948b1ec5f853957a7aa1f663145acbeb384cf94c1e6666a34cf5e02205ac15675ed131130a8f4ca33d19fffde82eb7eea876174c6fd8d000a6a42a3210121020aae9336ed35a62a061b9a5d6e33f213a57d803b8a6697da3d90cfa12aa3262e00000000", "vin": [{"txinwitness": ["3045022100f59e7a86942948b1ec5f853957a7aa1f663145acbeb384cf94c1e6666a34cf5e02205ac15675ed131130a8f4ca33d19fffde82eb7eea876174c6fd8d000a6a42a32101", "020aae9336ed35a62a061b9a5d6e33f213a57d803b8a6697da3d90cfa12aa3262e"], "sequence": 4294967295, "scriptSig": {"hex": "", "asm": ""}, "vout": 0, "txid": "e1a4c2c8e4adc8a30931be697d2284415020f85bcbd762d98cdf1508a27fd150"}], "txid": "c394fc8ce62dcb1bd8a8fbabb4f252a061ff8f286a9477889381ba6d66bae39f", "blocktime": 1537870268, "version": 1, "confirmations": 11518, "time": 1537870268, "locktime": 0, "vsize": 144, "size": 226}