{"hash": "c39454242173b7d658b0dc35ab19256c4699aa9453ecb62088dcccc6c4ccc904", "blockhash": "0000000000000000001e0dab787dd257d1dbfcb92a98c2207d5e1078be1f4165", "vout": [{"scriptPubKey": {"reqSigs": 1, "hex": "76a914f9803e1d64cabe8800e4e518f28e473597b305dc88ac", "addresses": ["1PkEtDnD5i6aboBrMC38LYQEm2mRknsXoh"], "asm": "OP_DUP OP_HASH160 f9803e1d64cabe8800e4e518f28e473597b305dc OP_EQUALVERIFY OP_CHECKSIG", "type": "pubkeyhash"}, "value": 0.017045, "n": 0}, {"scriptPubKey": {"reqSigs": 1, "hex": "76a9141a9f358d74860df7c4d0348d80f0cb71a69326b888ac", "addresses": ["13RmJ36B7kHeNUyzK1fBtWJpWRn7CuZyi1"], "asm": "OP_DUP OP_HASH160 1a9f358d74860df7c4d0348d80f0cb71a69326b8 OP_EQUALVERIFY OP_CHECKSIG", "type": "pubkeyhash"}, "value": 0.04266917, "n": 1}], "hex": "0100000001a7429b5f47c68fd110644066cb23e02d41be8b76c3faa8c77d8f3dcefaa1b737000000006b483045022100ea9d89413ab17123bed6608d8225cf5ab66b69b0ce51402860c2201492155169022042ea1b390ef475268d6b55879ae97f3a61b77fee67c572406acba988bad6431e0121030b8b578952d642b41bed7dc09abc68f0715fc40b90ad94325c3e6419d7fa39f0ffffffff0234021a00000000001976a914f9803e1d64cabe8800e4e518f28e473597b305dc88aca51b4100000000001976a9141a9f358d74860df7c4d0348d80f0cb71a69326b888ac00000000", "vin": [{"sequence": 4294967295, "scriptSig": {"hex": "483045022100ea9d89413ab17123bed6608d8225cf5ab66b69b0ce51402860c2201492155169022042ea1b390ef475268d6b55879ae97f3a61b77fee67c572406acba988bad6431e0121030b8b578952d642b41bed7dc09abc68f0715fc40b90ad94325c3e6419d7fa39f0", "asm": "3045022100ea9d89413ab17123bed6608d8225cf5ab66b69b0ce51402860c2201492155169022042ea1b390ef475268d6b55879ae97f3a61b77fee67c572406acba988bad6431e[ALL] 030b8b578952d642b41bed7dc09abc68f0715fc40b90ad94325c3e6419d7fa39f0"}, "vout": 0, "txid": "37b7a1face3d8f7dc7a8fac3768bbe412de023cb66406410d18fc6475f9b42a7"}], "txid": "c39454242173b7d658b0dc35ab19256c4699aa9453ecb62088dcccc6c4ccc904", "blocktime": 1537872475, "version": 1, "confirmations": 11487, "time": 1537872475, "locktime": 0, "vsize": 226, "size": 226}