{"hash": "c3a012403fac6fe176691de27fa7ad4d5844c1c7e14d9cf84056230d6dce89fa", "blockhash": "00000000000000000018f53835495a110e01622372bf6ae95dc86f2b0ab887b0", "vout": [{"scriptPubKey": {"reqSigs": 1, "hex": "76a91443a092ff0ce7bde89d61148e9c05539b49840b2088ac", "addresses": ["17Aadk9dKUFN2aDqsXGpjWFzsEpcBUohuR"], "asm": "OP_DUP OP_HASH160 43a092ff0ce7bde89d61148e9c05539b49840b20 OP_EQUALVERIFY OP_CHECKSIG", "type": "pubkeyhash"}, "value": 0.000471, "n": 0}, {"scriptPubKey": {"reqSigs": 1, "hex": "76a9148ae42dab541c1382bf4251e11c25272a30e2154888ac", "addresses": ["1DfPbaxVCmRej28bKrVa4g7HyYwnLZnZGd"], "asm": "OP_DUP OP_HASH160 8ae42dab541c1382bf4251e11c25272a30e21548 OP_EQUALVERIFY OP_CHECKSIG", "type": "pubkeyhash"}, "value": 0.01438523, "n": 1}], "hex": "01000000010ff322720d5b6435be3f7929e9191fa3e3658d41c68f637cb3eac2321751f229010000006a4730440220197c44695ad1e7e92d5b87ea0976b7d6e0960edf0e9a7d698d0b9cade5eb9653022010c0c3a08db23bf5115e25a106bebd3c13e23e38d9cf41e8ff11d5e8653fe3030121031cd97d8575feb387c62a7ba3c92b20407d389933000cc6d3a7d97223300188ecffffffff02fcb70000000000001976a91443a092ff0ce7bde89d61148e9c05539b49840b2088ac3bf31500000000001976a9148ae42dab541c1382bf4251e11c25272a30e2154888ac00000000", "vin": [{"sequence": 4294967295, "scriptSig": {"hex": "4730440220197c44695ad1e7e92d5b87ea0976b7d6e0960edf0e9a7d698d0b9cade5eb9653022010c0c3a08db23bf5115e25a106bebd3c13e23e38d9cf41e8ff11d5e8653fe3030121031cd97d8575feb387c62a7ba3c92b20407d389933000cc6d3a7d97223300188ec", "asm": "30440220197c44695ad1e7e92d5b87ea0976b7d6e0960edf0e9a7d698d0b9cade5eb9653022010c0c3a08db23bf5115e25a106bebd3c13e23e38d9cf41e8ff11d5e8653fe303[ALL] 031cd97d8575feb387c62a7ba3c92b20407d389933000cc6d3a7d97223300188ec"}, "vout": 1, "txid": "29f2511732c2eab37c638fc6418d65e3a31f19e929793fbe35645b0d7222f30f"}], "txid": "c3a012403fac6fe176691de27fa7ad4d5844c1c7e14d9cf84056230d6dce89fa", "blocktime": 1537870928, "version": 1, "confirmations": 11512, "time": 1537870928, "locktime": 0, "vsize": 225, "size": 225}