{"hash": "c3a6112edb508a47107d79d95728be860ca95c46198a541b43369d81a2990fd1", "blockhash": "0000000000000000001e0dab787dd257d1dbfcb92a98c2207d5e1078be1f4165", "vout": [{"scriptPubKey": {"reqSigs": 1, "hex": "76a9147e02c2d94f1a32e9209de68f4575e2abbe38987688ac", "addresses": ["1CVHT1zr3PjCb1QefwpRhazKf5WaB2AcR8"], "asm": "OP_DUP OP_HASH160 7e02c2d94f1a32e9209de68f4575e2abbe389876 OP_EQUALVERIFY OP_CHECKSIG", "type": "pubkeyhash"}, "value": 8.57e-06, "n": 0}, {"scriptPubKey": {"reqSigs": 1, "hex": "a9148acc8c9bcfb897cc0978d6d47b73a77c137e3ba487", "addresses": ["3ELvDM7VVNN1Eqj2UPevLkQQbuMV4FHoSt"], "asm": "OP_HASH160 8acc8c9bcfb897cc0978d6d47b73a77c137e3ba4 OP_EQUAL", "type": "scripthash"}, "value": 0.0001, "n": 1}], "hex": "0100000001824eb38eb1832b05ba7e849f0377b8332087ecd01b31f3fc3a5df89e48a1e139000000006a47304402207adcc8e1e5b37ad859d1eb03c9c6f755cad61b461be7142c6e3aded60f4152b80220507e6bb03706beadb25a5b176d8c89471bbfab3ca8d03224b8c14f2fd65d791d0121036fd6faafe8c51af73ac90bad98844dcaa8b398e4143ab195f00c5e79e84603bdfdffffff0259030000000000001976a9147e02c2d94f1a32e9209de68f4575e2abbe38987688ac102700000000000017a9148acc8c9bcfb897cc0978d6d47b73a77c137e3ba48712490800", "vin": [{"sequence": 4294967293, "scriptSig": {"hex": "47304402207adcc8e1e5b37ad859d1eb03c9c6f755cad61b461be7142c6e3aded60f4152b80220507e6bb03706beadb25a5b176d8c89471bbfab3ca8d03224b8c14f2fd65d791d0121036fd6faafe8c51af73ac90bad98844dcaa8b398e4143ab195f00c5e79e84603bd", "asm": "304402207adcc8e1e5b37ad859d1eb03c9c6f755cad61b461be7142c6e3aded60f4152b80220507e6bb03706beadb25a5b176d8c89471bbfab3ca8d03224b8c14f2fd65d791d[ALL] 036fd6faafe8c51af73ac90bad98844dcaa8b398e4143ab195f00c5e79e84603bd"}, "vout": 0, "txid": "39e1a1489ef85d3afcf3311bd0ec872033b877039f847eba052b83b18eb34e82"}], "txid": "c3a6112edb508a47107d79d95728be860ca95c46198a541b43369d81a2990fd1", "blocktime": 1537872475, "version": 1, "confirmations": 11487, "time": 1537872475, "locktime": 542994, "vsize": 223, "size": 223}