{"hash": "c3a8858457c2c600cc6682091cc5848b5bc2160750962ae37a7dfa1fb04f592c", "blockhash": "00000000000000000017f5eb5941039fbcee6240d03bc1f2f8e35350df66a1d8", "vout": [{"scriptPubKey": {"type": "nulldata", "hex": "6a146f6d6e69000000000000001f0000022ecb25c000", "asm": "OP_RETURN 6f6d6e69000000000000001f0000022ecb25c000"}, "value": 0.0, "n": 0}, {"scriptPubKey": {"reqSigs": 1, "hex": "76a914a25dec4d0011064ef106a983c39c7a540699f22088ac", "addresses": ["1FoWyxwPXuj4C6abqwhjDWdz6D4PZgYRjA"], "asm": "OP_DUP OP_HASH160 a25dec4d0011064ef106a983c39c7a540699f220 OP_EQUALVERIFY OP_CHECKSIG", "type": "pubkeyhash"}, "value": 5.46e-06, "n": 1}, {"scriptPubKey": {"reqSigs": 1, "hex": "76a914648db1d7266e8ccb94b82b82c81ca7d707c13fed88ac", "addresses": ["1AAgKJZ6EY6dCR2iwKaFEYoN8a11uNn6Pv"], "asm": "OP_DUP OP_HASH160 648db1d7266e8ccb94b82b82c81ca7d707c13fed OP_EQUALVERIFY OP_CHECKSIG", "type": "pubkeyhash"}, "value": 0.0062377, "n": 2}], "hex": "0100000007b789edc79b15b734d9aebb718a7623470e95192b59cddec36de206b3d2902003010000006a47304402200d83f591e42fe4df22d060e15bc2470590ec4fc43ec9ef14ddd2fca66c2ff6d202206fbf43245b2214ff54b1361681255cdadd77794dd92971c6acecb3420168294a0121021528032a1de3222e4c67a1f5ea1ebf42084363ddc6aa45ce5ac395c6a73635a1feffffffc09bd5aa1b82b183aa4495db074015085fe8d871e5aff5d66a8a18c703bec5b1010000006b483045022100aac60ddc92b8dca8c8a79b1048d5e89a487dd9af543299f62fbdff8849b35cc502206d3ed3238b24df8811e0f948f30087375086e285a1bed5351c452bef1777ca1a0121021528032a1de3222e4c67a1f5ea1ebf42084363ddc6aa45ce5ac395c6a73635a1feffffffc55eb9fe6180a3fa66a3f31184db40e19ee18d47c620b150afd7ec895ba79ebb010000006b48304502210087a44a74d2c46d07d6c557476086e596a3524fb99456be0cd04c0cf412193ad0022054a3bf2b71a699fe8edb4d95be6a02773743f0f1795d3e976b6a9bb6d2175b4f0121021528032a1de3222e4c67a1f5ea1ebf42084363ddc6aa45ce5ac395c6a73635a1feffffffd9c4fd521021bbe94ed7ad70d7f456e69ceb5ca934d3e2564c74f1cd9e6660bb010000006a4730440220558e381fe4f6060becc896a9213b5db4ed77d72c61b7a06aabc71a2076fc05e102207984b2f432a960deb579be778f6b74c4ffdb8925b0b3773437110ec29b99da9f0121021528032a1de3222e4c67a1f5ea1ebf42084363ddc6aa45ce5ac395c6a73635a1feffffffac282398ff71f9e824bfd4325693afe57e293c0c147fb44f0269d789c10b8a4a010000006a4730440220461f5309c45cb0d5732a3ff68b361317354ca2021cd77c845e727b38654b3bb102206fc9e77feb6e7d90c9145afe36d2243c55a8ff8f699bcbc148c08d8a72daec9b0121021528032a1de3222e4c67a1f5ea1ebf42084363ddc6aa45ce5ac395c6a73635a1feffffffe2dbb3c817eccd7a1d69c7976d912bb5fd4f5090bae7fd0881144661c00bdf5d000000006a473044022002b400de78e47b8f8ecb6e30a6012d74b83ee363ac222ae0e543f5711852659102202da22fb0b7b5a50d73ba226ac33ea181d204a5b231f64cd6f32a8833de8c66fa0121021528032a1de3222e4c67a1f5ea1ebf42084363ddc6aa45ce5ac395c6a73635a1feffffffda28af5db52cb603431e0e662a5be273aa67f18d780ef6d235e085fde10f86c3010000006a4730440220265a179e789867f93054195f980003ba7eeece4c1a43250608ccd02eabd324ad0220124eb45126ecc5cf104d1355bb8f02693a0dd8b46eac70a1982bd6bd75c806cf0121021528032a1de3222e4c67a1f5ea1ebf42084363ddc6aa45ce5ac395c6a73635a1feffffff030000000000000000166a146f6d6e69000000000000001f0000022ecb25c00022020000000000001976a914a25dec4d0011064ef106a983c39c7a540699f22088ac9a840900000000001976a914648db1d7266e8ccb94b82b82c81ca7d707c13fed88ac15490800", "vin": [{"sequence": 4294967294, "scriptSig": {"hex": "47304402200d83f591e42fe4df22d060e15bc2470590ec4fc43ec9ef14ddd2fca66c2ff6d202206fbf43245b2214ff54b1361681255cdadd77794dd92971c6acecb3420168294a0121021528032a1de3222e4c67a1f5ea1ebf42084363ddc6aa45ce5ac395c6a73635a1", "asm": "304402200d83f591e42fe4df22d060e15bc2470590ec4fc43ec9ef14ddd2fca66c2ff6d202206fbf43245b2214ff54b1361681255cdadd77794dd92971c6acecb3420168294a[ALL] 021528032a1de3222e4c67a1f5ea1ebf42084363ddc6aa45ce5ac395c6a73635a1"}, "vout": 1, "txid": "032090d2b306e26dc3decd592b19950e4723768a71bbaed934b7159bc7ed89b7"}, {"sequence": 4294967294, "scriptSig": {"hex": "483045022100aac60ddc92b8dca8c8a79b1048d5e89a487dd9af543299f62fbdff8849b35cc502206d3ed3238b24df8811e0f948f30087375086e285a1bed5351c452bef1777ca1a0121021528032a1de3222e4c67a1f5ea1ebf42084363ddc6aa45ce5ac395c6a73635a1", "asm": "3045022100aac60ddc92b8dca8c8a79b1048d5e89a487dd9af543299f62fbdff8849b35cc502206d3ed3238b24df8811e0f948f30087375086e285a1bed5351c452bef1777ca1a[ALL] 021528032a1de3222e4c67a1f5ea1ebf42084363ddc6aa45ce5ac395c6a73635a1"}, "vout": 1, "txid": "b1c5be03c7188a6ad6f5afe571d8e85f08154007db9544aa83b1821baad59bc0"}, {"sequence": 4294967294, "scriptSig": {"hex": "48304502210087a44a74d2c46d07d6c557476086e596a3524fb99456be0cd04c0cf412193ad0022054a3bf2b71a699fe8edb4d95be6a02773743f0f1795d3e976b6a9bb6d2175b4f0121021528032a1de3222e4c67a1f5ea1ebf42084363ddc6aa45ce5ac395c6a73635a1", "asm": "304502210087a44a74d2c46d07d6c557476086e596a3524fb99456be0cd04c0cf412193ad0022054a3bf2b71a699fe8edb4d95be6a02773743f0f1795d3e976b6a9bb6d2175b4f[ALL] 021528032a1de3222e4c67a1f5ea1ebf42084363ddc6aa45ce5ac395c6a73635a1"}, "vout": 1, "txid": "bb9ea75b89ecd7af50b120c6478de19ee140db8411f3a366faa38061feb95ec5"}, {"sequence": 4294967294, "scriptSig": {"hex": "4730440220558e381fe4f6060becc896a9213b5db4ed77d72c61b7a06aabc71a2076fc05e102207984b2f432a960deb579be778f6b74c4ffdb8925b0b3773437110ec29b99da9f0121021528032a1de3222e4c67a1f5ea1ebf42084363ddc6aa45ce5ac395c6a73635a1", "asm": "30440220558e381fe4f6060becc896a9213b5db4ed77d72c61b7a06aabc71a2076fc05e102207984b2f432a960deb579be778f6b74c4ffdb8925b0b3773437110ec29b99da9f[ALL] 021528032a1de3222e4c67a1f5ea1ebf42084363ddc6aa45ce5ac395c6a73635a1"}, "vout": 1, "txid": "bb60669ecdf1744c56e2d334a95ceb9ce656f4d770add74ee9bb211052fdc4d9"}, {"sequence": 4294967294, "scriptSig": {"hex": "4730440220461f5309c45cb0d5732a3ff68b361317354ca2021cd77c845e727b38654b3bb102206fc9e77feb6e7d90c9145afe36d2243c55a8ff8f699bcbc148c08d8a72daec9b0121021528032a1de3222e4c67a1f5ea1ebf42084363ddc6aa45ce5ac395c6a73635a1", "asm": "30440220461f5309c45cb0d5732a3ff68b361317354ca2021cd77c845e727b38654b3bb102206fc9e77feb6e7d90c9145afe36d2243c55a8ff8f699bcbc148c08d8a72daec9b[ALL] 021528032a1de3222e4c67a1f5ea1ebf42084363ddc6aa45ce5ac395c6a73635a1"}, "vout": 1, "txid": "4a8a0bc189d769024fb47f140c3c297ee5af935632d4bf24e8f971ff982328ac"}, {"sequence": 4294967294, "scriptSig": {"hex": "473044022002b400de78e47b8f8ecb6e30a6012d74b83ee363ac222ae0e543f5711852659102202da22fb0b7b5a50d73ba226ac33ea181d204a5b231f64cd6f32a8833de8c66fa0121021528032a1de3222e4c67a1f5ea1ebf42084363ddc6aa45ce5ac395c6a73635a1", "asm": "3044022002b400de78e47b8f8ecb6e30a6012d74b83ee363ac222ae0e543f5711852659102202da22fb0b7b5a50d73ba226ac33ea181d204a5b231f64cd6f32a8833de8c66fa[ALL] 021528032a1de3222e4c67a1f5ea1ebf42084363ddc6aa45ce5ac395c6a73635a1"}, "vout": 0, "txid": "5ddf0bc06146148108fde7ba90504ffdb52b916d97c7691d7acdec17c8b3dbe2"}, {"sequence": 4294967294, "scriptSig": {"hex": "4730440220265a179e789867f93054195f980003ba7eeece4c1a43250608ccd02eabd324ad0220124eb45126ecc5cf104d1355bb8f02693a0dd8b46eac70a1982bd6bd75c806cf0121021528032a1de3222e4c67a1f5ea1ebf42084363ddc6aa45ce5ac395c6a73635a1", "asm": "30440220265a179e789867f93054195f980003ba7eeece4c1a43250608ccd02eabd324ad0220124eb45126ecc5cf104d1355bb8f02693a0dd8b46eac70a1982bd6bd75c806cf[ALL] 021528032a1de3222e4c67a1f5ea1ebf42084363ddc6aa45ce5ac395c6a73635a1"}, "vout": 1, "txid": "c3860fe1fd85e035d2f60e788df167aa73e25b2a660e1e4303b62cb55daf28da"}], "txid": "c3a8858457c2c600cc6682091cc5848b5bc2160750962ae37a7dfa1fb04f592c", "blocktime": 1537874412, "version": 1, "confirmations": 11468, "time": 1537874412, "locktime": 542997, "vsize": 1140, "size": 1140}