{"hash": "c3a8db1366817875c0c61253599b3db5333c1f9bba247317260b047746fba5cc", "blockhash": "0000000000000000001e0dab787dd257d1dbfcb92a98c2207d5e1078be1f4165", "vout": [{"scriptPubKey": {"reqSigs": 1, "hex": "76a914b09800c0cb055215d6b5f26e51955d604c44d6b288ac", "addresses": ["1H6k27UmSfZUB3bbUmhVTFM4qvKxG2Rh8n"], "asm": "OP_DUP OP_HASH160 b09800c0cb055215d6b5f26e51955d604c44d6b2 OP_EQUALVERIFY OP_CHECKSIG", "type": "pubkeyhash"}, "value": 3.784e-05, "n": 0}, {"scriptPubKey": {"reqSigs": 1, "hex": "a914e9749e6b15e991d83a58d4f9804f7111dd17871c87", "addresses": ["3NyR54KQKUHEQimtbofQXFKZHWATCnnFba"], "asm": "OP_HASH160 e9749e6b15e991d83a58d4f9804f7111dd17871c OP_EQUAL", "type": "scripthash"}, "value": 0.004542, "n": 1}], "hex": "010000000239cad9cb67c4b2d4b499c4ed1fcacbd20eba2f826dab6ab1f25358f8eaf48548000000006a47304402205065117e40ea839e9bd0b46f74c3dfbae8a433e8c324bae2f82b5cee6a27d6960220685ce6d35a18a4e228e5615ca8b203e9d52d759991cbdadabdcb581b83084444012102cf7181c4cc92a0921f0fd28abba02dd2ced5119fda8b53d1124b4c0fcf67d135ffffffffa6adbc0b9842b52f891d48d95f75c85b20634994a80d0937e17a2608a571abe8000000006a473044022053f25f1aec892ae148a9d8bb353e0869fdbefcbbed8a8717dd96a9b83d715cfc02200a4682902e0b0967e6ee3f028b3efb98f39ee5709502e811db3c20d90ebfa83f012102cf7181c4cc92a0921f0fd28abba02dd2ced5119fda8b53d1124b4c0fcf67d135ffffffff02c80e0000000000001976a914b09800c0cb055215d6b5f26e51955d604c44d6b288ac38ee06000000000017a914e9749e6b15e991d83a58d4f9804f7111dd17871c8700000000", "vin": [{"sequence": 4294967295, "scriptSig": {"hex": "47304402205065117e40ea839e9bd0b46f74c3dfbae8a433e8c324bae2f82b5cee6a27d6960220685ce6d35a18a4e228e5615ca8b203e9d52d759991cbdadabdcb581b83084444012102cf7181c4cc92a0921f0fd28abba02dd2ced5119fda8b53d1124b4c0fcf67d135", "asm": "304402205065117e40ea839e9bd0b46f74c3dfbae8a433e8c324bae2f82b5cee6a27d6960220685ce6d35a18a4e228e5615ca8b203e9d52d759991cbdadabdcb581b83084444[ALL] 02cf7181c4cc92a0921f0fd28abba02dd2ced5119fda8b53d1124b4c0fcf67d135"}, "vout": 0, "txid": "4885f4eaf85853f2b16aab6d822fba0ed2cbca1fedc499b4d4b2c467cbd9ca39"}, {"sequence": 4294967295, "scriptSig": {"hex": "473044022053f25f1aec892ae148a9d8bb353e0869fdbefcbbed8a8717dd96a9b83d715cfc02200a4682902e0b0967e6ee3f028b3efb98f39ee5709502e811db3c20d90ebfa83f012102cf7181c4cc92a0921f0fd28abba02dd2ced5119fda8b53d1124b4c0fcf67d135", "asm": "3044022053f25f1aec892ae148a9d8bb353e0869fdbefcbbed8a8717dd96a9b83d715cfc02200a4682902e0b0967e6ee3f028b3efb98f39ee5709502e811db3c20d90ebfa83f[ALL] 02cf7181c4cc92a0921f0fd28abba02dd2ced5119fda8b53d1124b4c0fcf67d135"}, "vout": 0, "txid": "e8ab71a508267ae137090da8944963205bc8755fd9481d892fb542980bbcada6"}], "txid": "c3a8db1366817875c0c61253599b3db5333c1f9bba247317260b047746fba5cc", "blocktime": 1537872475, "version": 1, "confirmations": 11486, "time": 1537872475, "locktime": 0, "vsize": 370, "size": 370}