{"hash": "03a72a228c69d042d4193e2a7cc3eb28abd2fcf8df8b74f32a521667b87d7b1f", "blockhash": "0000000000000000000e13cef7c366c0283d82e591d1acd082e914b08063cdf1", "vout": [{"scriptPubKey": {"reqSigs": 1, "hex": "a91432dd2bab649b516d94165557f7814c9aac729e3a87", "addresses": ["36KxfLVSMAxXv1dBK3EFgPYZnYgLSiHXF2"], "asm": "OP_HASH160 32dd2bab649b516d94165557f7814c9aac729e3a OP_EQUAL", "type": "scripthash"}, "value": 0.013, "n": 0}, {"scriptPubKey": {"reqSigs": 1, "hex": "a91478221cb35cde13048902e3e27e37eff4658c3b6487", "addresses": ["3CeDsiPnmc1SaR3retv3vF9CUWA85WsKv8"], "asm": "OP_HASH160 78221cb35cde13048902e3e27e37eff4658c3b64 OP_EQUAL", "type": "scripthash"}, "value": 0.04877067, "n": 1}], "hex": "01000000000102d09d7a583ae72e9604e9cfbf73031b3abed2e7a70f5be26a29754a14b3fbd4a90100000023220020b136d5949e1afc2d95ead3b79d1fb2e0dc1d12b5fc084a1293748834930019b7ffffffff1f520a646be77cc17e4dd8d04093683739b969f1a9a42ab4e9761a964781cf94010000002322002093ab7f18272ef781eb7546d707fb21eb658b6175a35d7dca92fe57ac598e5ef5ffffffff0220d613000000000017a91432dd2bab649b516d94165557f7814c9aac729e3a870b6b4a000000000017a91478221cb35cde13048902e3e27e37eff4658c3b6487040047304402207aac3bc20ed7f608295b90b11a391f1f0f18204f5f2c7a642e87147045d8899d0220667dd69ea9a227c5a56b0d95630a07dcdc0370c304cb172d00cb33d72cc1abcb0147304402202f53adb312512930c7a523192bc27d8ad528141082d36ca9b14244c18fe3de0402200d15fc78a8fd1a2df603b1dc9975f415b654ac5041d65f7bdb141230c62f1bac0147522102c4999a5192604d9e24a93257e72efd5a14f9624264ce1cd919a73b4d8ed3da1321038f2c7ecee34c843be9d886e50ce79e5dc40a1694c0417d60b35340f292ff73fc52ae0400483045022100c25a7522b95138f55ab4b69499e90ec8b1fae4c23e7df637b71beccc84d3b8ed0220541afa89790d0836f8a15d4f75d6fb976cfe3e9d0e16e288c92449f1bb48cbe701483045022100e167150731fdbabe4cf52a206d1d5d00bbcf712bdfb52ffb1dafa1456c4259ad02206f90de1a7e2189221ffea8205e7cf01334ae6ec086eaacdb11c57b9b7e716eb70147522103571bd17b524db5fecb5639d1eca39f0a67de1ec6c16afba97148ffc0061076c621038f2c7ecee34c843be9d886e50ce79e5dc40a1694c0417d60b35340f292ff73fc52ae00000000", "vin": [{"txinwitness": ["", "304402207aac3bc20ed7f608295b90b11a391f1f0f18204f5f2c7a642e87147045d8899d0220667dd69ea9a227c5a56b0d95630a07dcdc0370c304cb172d00cb33d72cc1abcb01", "304402202f53adb312512930c7a523192bc27d8ad528141082d36ca9b14244c18fe3de0402200d15fc78a8fd1a2df603b1dc9975f415b654ac5041d65f7bdb141230c62f1bac01", "522102c4999a5192604d9e24a93257e72efd5a14f9624264ce1cd919a73b4d8ed3da1321038f2c7ecee34c843be9d886e50ce79e5dc40a1694c0417d60b35340f292ff73fc52ae"], "sequence": 4294967295, "scriptSig": {"hex": "220020b136d5949e1afc2d95ead3b79d1fb2e0dc1d12b5fc084a1293748834930019b7", "asm": "0020b136d5949e1afc2d95ead3b79d1fb2e0dc1d12b5fc084a1293748834930019b7"}, "vout": 1, "txid": "a9d4fbb3144a75296ae25b0fa7e7d2be3a1b0373bfcfe904962ee73a587a9dd0"}, {"txinwitness": ["", "3045022100c25a7522b95138f55ab4b69499e90ec8b1fae4c23e7df637b71beccc84d3b8ed0220541afa89790d0836f8a15d4f75d6fb976cfe3e9d0e16e288c92449f1bb48cbe701", "3045022100e167150731fdbabe4cf52a206d1d5d00bbcf712bdfb52ffb1dafa1456c4259ad02206f90de1a7e2189221ffea8205e7cf01334ae6ec086eaacdb11c57b9b7e716eb701", "522103571bd17b524db5fecb5639d1eca39f0a67de1ec6c16afba97148ffc0061076c621038f2c7ecee34c843be9d886e50ce79e5dc40a1694c0417d60b35340f292ff73fc52ae"], "sequence": 4294967295, "scriptSig": {"hex": "22002093ab7f18272ef781eb7546d707fb21eb658b6175a35d7dca92fe57ac598e5ef5", "asm": "002093ab7f18272ef781eb7546d707fb21eb658b6175a35d7dca92fe57ac598e5ef5"}, "vout": 1, "txid": "94cf8147961a76e9b42aa4a9f169b93937689340d0d84d7ec17ce76b640a521f"}], "txid": "c3aa1dd0238f9a80ca8dde6fbc62257c254d3e4b13ef0ec1db705aa4402fc65b", "blocktime": 1537871767, "version": 1, "confirmations": 11495, "time": 1537871767, "locktime": 0, "vsize": 336, "size": 666}