{"hash": "c3b0e1459ae8ed2b6c08d474d667fcdb150eefacaf3fa130f4d6cd2b072168da", "blockhash": "00000000000000000017f5eb5941039fbcee6240d03bc1f2f8e35350df66a1d8", "vout": [{"scriptPubKey": {"reqSigs": 1, "hex": "76a9142473b7465ee949e4f12c8252b56abb013144ef1788ac", "addresses": ["14KjwzMK6igfya3VZxtp8Sz4CYfrLnssMH"], "asm": "OP_DUP OP_HASH160 2473b7465ee949e4f12c8252b56abb013144ef17 OP_EQUALVERIFY OP_CHECKSIG", "type": "pubkeyhash"}, "value": 0.01563946, "n": 0}, {"scriptPubKey": {"reqSigs": 1, "hex": "76a91442bcad5a93b68f19bc61f8577e20c2c2ce9aa67988ac", "addresses": ["175sdBSKtgEPFADJi11eUXTPRacYp7ydS8"], "asm": "OP_DUP OP_HASH160 42bcad5a93b68f19bc61f8577e20c2c2ce9aa679 OP_EQUALVERIFY OP_CHECKSIG", "type": "pubkeyhash"}, "value": 0.0632046, "n": 1}], "hex": "0100000001a66f8d707d467f3756e9de59b41529652343c18ef5b7df6154d9cd8169115ba1010000006b483045022100b77e8c62b128110b3dfd26909d5ff879019232f9d1a5e8a98e86815005143c5402204ebf40413f14e43363d9852165529ea7dee250354d8d3b3de535924a3fb98ea9012102e1e2623ae06c8e682a91aed3c975c516261f12c94fdc84c243b06ad0f1d4b131ffffffff022add1700000000001976a9142473b7465ee949e4f12c8252b56abb013144ef1788ac4c716000000000001976a91442bcad5a93b68f19bc61f8577e20c2c2ce9aa67988ac00000000", "vin": [{"sequence": 4294967295, "scriptSig": {"hex": "483045022100b77e8c62b128110b3dfd26909d5ff879019232f9d1a5e8a98e86815005143c5402204ebf40413f14e43363d9852165529ea7dee250354d8d3b3de535924a3fb98ea9012102e1e2623ae06c8e682a91aed3c975c516261f12c94fdc84c243b06ad0f1d4b131", "asm": "3045022100b77e8c62b128110b3dfd26909d5ff879019232f9d1a5e8a98e86815005143c5402204ebf40413f14e43363d9852165529ea7dee250354d8d3b3de535924a3fb98ea9[ALL] 02e1e2623ae06c8e682a91aed3c975c516261f12c94fdc84c243b06ad0f1d4b131"}, "vout": 1, "txid": "a15b116981cdd95461dfb7f58ec14323652915b459dee956377f467d708d6fa6"}], "txid": "c3b0e1459ae8ed2b6c08d474d667fcdb150eefacaf3fa130f4d6cd2b072168da", "blocktime": 1537874412, "version": 1, "confirmations": 11467, "time": 1537874412, "locktime": 0, "vsize": 226, "size": 226}