{"hash": "e97493070e054990f2f82c72a66543845daede358f3a4dceac66c47f092ff287", "blockhash": "00000000000000000004ffacab907a6b429b9a5745fa0b75af4234bf69dd7176", "vout": [{"scriptPubKey": {"reqSigs": 1, "hex": "76a91446aa80551e65df552fc4a7f031928d0595f26ea388ac", "addresses": ["17SeZ4qDLxoW9SFjjifqbTmqAp6bEhzK5z"], "asm": "OP_DUP OP_HASH160 46aa80551e65df552fc4a7f031928d0595f26ea3 OP_EQUALVERIFY OP_CHECKSIG", "type": "pubkeyhash"}, "value": 0.06, "n": 0}, {"scriptPubKey": {"reqSigs": 1, "hex": "a91466f6f492a7ee9c5a0650ddfc9df33232e747215987", "addresses": ["3B5SgsQX3QtvUixRs62uMf1Tk4AwrcUPWc"], "asm": "OP_HASH160 66f6f492a7ee9c5a0650ddfc9df33232e7472159 OP_EQUAL", "type": "scripthash"}, "value": 0.00792055, "n": 1}], "hex": "020000000001014c9db3b799c8262b841441419f3e7f4aed1e2960bf5425b798c1306954d8cf2100000000171600142cc3fccbbe65c31f435f9374696bb7e042898047ffffffff02808d5b00000000001976a91446aa80551e65df552fc4a7f031928d0595f26ea388acf7150c000000000017a91466f6f492a7ee9c5a0650ddfc9df33232e7472159870247304402200fc0108e3d91b7552a711b010d9cdb05b98adff846e2797b0b5a16e0d82c98a102206ed45604cc212708e695246c961bcf6863eb8df2cf4fe78a75d93949528cac83012102870994bcadee14f22750174fdb7243daf093446654f0b61c35af4af552def23300000000", "vin": [{"txinwitness": ["304402200fc0108e3d91b7552a711b010d9cdb05b98adff846e2797b0b5a16e0d82c98a102206ed45604cc212708e695246c961bcf6863eb8df2cf4fe78a75d93949528cac8301", "02870994bcadee14f22750174fdb7243daf093446654f0b61c35af4af552def233"], "sequence": 4294967295, "scriptSig": {"hex": "1600142cc3fccbbe65c31f435f9374696bb7e042898047", "asm": "00142cc3fccbbe65c31f435f9374696bb7e042898047"}, "vout": 0, "txid": "21cfd8546930c198b72554bf60291eed4a7f3e9f414114842b26c899b7b39d4c"}], "txid": "c3b4e3b572549be47841e77980f955ad4f040cd9fd67fbfe4e89d8fa24f47d0f", "blocktime": 1537875543, "version": 2, "confirmations": 11464, "time": 1537875543, "locktime": 0, "vsize": 168, "size": 249}