{"hash": "c3b4c08437428361563a10cea31abd2ff8ff2e046bc91bfaacb89db5ff6d26ce", "blockhash": "0000000000000000000baef3f32e3676a92c3b2e5da21b426e4f302fc371ce76", "vout": [{"scriptPubKey": {"reqSigs": 1, "hex": "76a9148c0d9305ec99685e43398a087cad9ff7fd39b55588ac", "addresses": ["1DmXs1v8Ph2o5hXW6MnpwS5H2BBrKWzmcb"], "asm": "OP_DUP OP_HASH160 8c0d9305ec99685e43398a087cad9ff7fd39b555 OP_EQUALVERIFY OP_CHECKSIG", "type": "pubkeyhash"}, "value": 0.001207, "n": 0}, {"scriptPubKey": {"type": "nulldata", "hex": "6a4c5000007807000163d7791cdde48e259720b791702940d64fa54d8eb2d19ed074892d00f8e8b2fb2c1f697233c2de859105462799725baa1abc06137fd16ced5994bc9a9526289ac0f6612cd74e33776ee4", "asm": "OP_RETURN 00007807000163d7791cdde48e259720b791702940d64fa54d8eb2d19ed074892d00f8e8b2fb2c1f697233c2de859105462799725baa1abc06137fd16ced5994bc9a9526289ac0f6612cd74e33776ee4"}, "value": 0.0, "n": 1}], "hex": "0100000001dfe45939f73e3e1103d18fe3b6067dfb77059641403dbefde102cacd4334f213000000006a473044022051bcbd1fc880069de05d987af689c5578b96ca1d3fdddc7f800e116ce7016e6602200324ea155994c93d507d13e2d4fb7255977b951abcb66598fad4ec9bc89022430121039b25fa484bb890cd0bf7cc0ae7098b7c65821374be4c3aa4a1876dc716ed2fcbffffffff027cd70100000000001976a9148c0d9305ec99685e43398a087cad9ff7fd39b55588ac0000000000000000536a4c5000007807000163d7791cdde48e259720b791702940d64fa54d8eb2d19ed074892d00f8e8b2fb2c1f697233c2de859105462799725baa1abc06137fd16ced5994bc9a9526289ac0f6612cd74e33776ee400000000", "vin": [{"sequence": 4294967295, "scriptSig": {"hex": "473044022051bcbd1fc880069de05d987af689c5578b96ca1d3fdddc7f800e116ce7016e6602200324ea155994c93d507d13e2d4fb7255977b951abcb66598fad4ec9bc89022430121039b25fa484bb890cd0bf7cc0ae7098b7c65821374be4c3aa4a1876dc716ed2fcb", "asm": "3044022051bcbd1fc880069de05d987af689c5578b96ca1d3fdddc7f800e116ce7016e6602200324ea155994c93d507d13e2d4fb7255977b951abcb66598fad4ec9bc8902243[ALL] 039b25fa484bb890cd0bf7cc0ae7098b7c65821374be4c3aa4a1876dc716ed2fcb"}, "vout": 0, "txid": "13f23443cdca02e1fdbe3d4041960577fb7d06b6e38fd103113e3ef73959e4df"}], "txid": "c3b4c08437428361563a10cea31abd2ff8ff2e046bc91bfaacb89db5ff6d26ce", "blocktime": 1537876114, "version": 1, "confirmations": 11460, "time": 1537876114, "locktime": 0, "vsize": 283, "size": 283}