{"hash": "17d80ba1b999b291df902703818515f4637062cee284c5e3523992d6e139e2b3", "blockhash": "0000000000000000001cda96e906b7601b7a6fb1a3b62bca570a9e5d8f4b3de1", "vout": [{"scriptPubKey": {"reqSigs": 1, "hex": "a914ce79cac6e1fb064c87a3a8e2b76125484099346887", "addresses": ["3LWm2KkV5gqgPW8M2k5PYip4RthMVVNNSS"], "asm": "OP_HASH160 ce79cac6e1fb064c87a3a8e2b761254840993468 OP_EQUAL", "type": "scripthash"}, "value": 0.01010818, "n": 0}, {"scriptPubKey": {"reqSigs": 1, "hex": "76a914e340f2a407404cf5a2935fdbefe6422d3aa7d82288ac", "addresses": ["1MicCCXs2j5EMyHAPfMEhSuzUBSC53Sszj"], "asm": "OP_DUP OP_HASH160 e340f2a407404cf5a2935fdbefe6422d3aa7d822 OP_EQUALVERIFY OP_CHECKSIG", "type": "pubkeyhash"}, "value": 0.0027536, "n": 1}], "hex": "02000000000102093503a18869faa9353069952992d17c9a0dd59de53240af23d702a0c51ef51607000000171600144b5d4743853246147e9f0afcea7f4b37e9e9164dfeffffff5af5b94386385c406e7616b550e4108ced435790b8d36531f8fe6411f174d72300000000171600146e80c1a2eadb4b6a8f6e35d6f8a7c9a5245d1dfbfeffffff02826c0f000000000017a914ce79cac6e1fb064c87a3a8e2b76125484099346887a0330400000000001976a914e340f2a407404cf5a2935fdbefe6422d3aa7d82288ac02483045022100f0c5a8a041cbcc2b83e6d8774404e35cc4ff2d1de3d7ba4df1a7feb6a5b8648c022028692f298e4a2d92c549de228eb933c516ef37e25cf74a5b4cfb8d7a28fde0270121030924c8c0111fde440e2b05d759d7e4b0ae232ba01ffbdc412690fe0fb2129d380247304402204f5bf335e20fdad2f563d8bebedcf938920d4bc16a0eb4e08a3f57d2d01fb88c02203333ccdb330ce3f681b0b9a66b81c7247c450982cbfca78eb052fb70962fbb3b0121033a90562e4fd0c28724f34b038e2a24a9ecaa26e48e43bcba4239b2686c72ff4c13490800", "vin": [{"txinwitness": ["3045022100f0c5a8a041cbcc2b83e6d8774404e35cc4ff2d1de3d7ba4df1a7feb6a5b8648c022028692f298e4a2d92c549de228eb933c516ef37e25cf74a5b4cfb8d7a28fde02701", "030924c8c0111fde440e2b05d759d7e4b0ae232ba01ffbdc412690fe0fb2129d38"], "sequence": 4294967294, "scriptSig": {"hex": "1600144b5d4743853246147e9f0afcea7f4b37e9e9164d", "asm": "00144b5d4743853246147e9f0afcea7f4b37e9e9164d"}, "vout": 7, "txid": "16f51ec5a002d723af4032e59dd50d9a7cd1922995693035a9fa6988a1033509"}, {"txinwitness": ["304402204f5bf335e20fdad2f563d8bebedcf938920d4bc16a0eb4e08a3f57d2d01fb88c02203333ccdb330ce3f681b0b9a66b81c7247c450982cbfca78eb052fb70962fbb3b01", "033a90562e4fd0c28724f34b038e2a24a9ecaa26e48e43bcba4239b2686c72ff4c"], "sequence": 4294967294, "scriptSig": {"hex": "1600146e80c1a2eadb4b6a8f6e35d6f8a7c9a5245d1dfb", "asm": "00146e80c1a2eadb4b6a8f6e35d6f8a7c9a5245d1dfb"}, "vout": 0, "txid": "23d774f11164fef83165d3b8905743ed8c10e450b516766e405c388643b9f55a"}], "txid": "c3b6c47069ad072ad4b4a70d19f71310b10e4a2d6a3d8746e226d196fe4e43e3", "blocktime": 1537873282, "version": 2, "confirmations": 11484, "time": 1537873282, "locktime": 542995, "vsize": 259, "size": 421}