{"hash": "c3babcb18578ec0b6cb33e87f4301ba1252868f7ebf26808215ff53e2769185a", "blockhash": "0000000000000000001f76057863aec43deb6fa401d9628bb513d65a8098bfab", "vout": [{"scriptPubKey": {"reqSigs": 1, "hex": "76a914360541362ec744dd546af335db81e5d7ad60d0e388ac", "addresses": ["15vdnTvD8tfW1hbGgv2k5RS4MoL3HiuwcP"], "asm": "OP_DUP OP_HASH160 360541362ec744dd546af335db81e5d7ad60d0e3 OP_EQUALVERIFY OP_CHECKSIG", "type": "pubkeyhash"}, "value": 0.00020456, "n": 0}, {"scriptPubKey": {"reqSigs": 1, "hex": "76a914a2c7c0711c94d4b75753bb636dc53534ba9e3eb388ac", "addresses": ["1Fqhm53gNmpMATvYaKLNosnYuRoqwomEY7"], "asm": "OP_DUP OP_HASH160 a2c7c0711c94d4b75753bb636dc53534ba9e3eb3 OP_EQUALVERIFY OP_CHECKSIG", "type": "pubkeyhash"}, "value": 0.42397292, "n": 1}], "hex": "02000000018d8ad8ecc90466e110e3be3d86efa7771f21f28c68113151c542110142458f79010000006b4830450221008faf1d550274a0ed08ba5c76e66dd4956bb319f176b052121a89546c1537e31d02205ea91944beeb294c82ee8338e8e52ca66edfbc4a20ca4932d9f8eb3c4625c4a801210213bc0d009d991adca5da833a74d20bfcea524ac663ba3db9b3913f0ebba267edffffffff02e84f0000000000001976a914360541362ec744dd546af335db81e5d7ad60d0e388ac6cee8602000000001976a914a2c7c0711c94d4b75753bb636dc53534ba9e3eb388ac00000000", "vin": [{"sequence": 4294967295, "scriptSig": {"hex": "4830450221008faf1d550274a0ed08ba5c76e66dd4956bb319f176b052121a89546c1537e31d02205ea91944beeb294c82ee8338e8e52ca66edfbc4a20ca4932d9f8eb3c4625c4a801210213bc0d009d991adca5da833a74d20bfcea524ac663ba3db9b3913f0ebba267ed", "asm": "30450221008faf1d550274a0ed08ba5c76e66dd4956bb319f176b052121a89546c1537e31d02205ea91944beeb294c82ee8338e8e52ca66edfbc4a20ca4932d9f8eb3c4625c4a8[ALL] 0213bc0d009d991adca5da833a74d20bfcea524ac663ba3db9b3913f0ebba267ed"}, "vout": 1, "txid": "798f4542011142c5513111688cf2211f77a7ef863dbee310e16604c9ecd88a8d"}], "txid": "c3babcb18578ec0b6cb33e87f4301ba1252868f7ebf26808215ff53e2769185a", "blocktime": 1537873891, "version": 2, "confirmations": 11478, "time": 1537873891, "locktime": 0, "vsize": 226, "size": 226}