{"hash": "0d3ea96b844979115893b62b5cf897cda5a053bfbf2fe17287505587f15371d2", "blockhash": "0000000000000000000baef3f32e3676a92c3b2e5da21b426e4f302fc371ce76", "vout": [{"scriptPubKey": {"reqSigs": 1, "hex": "a914f81d116062789ac075e2b1b1df25fbaab7906c6887", "addresses": ["3QJvKnj7N4Ykbi6g1vaZfHWNWdaTPu4Ypw"], "asm": "OP_HASH160 f81d116062789ac075e2b1b1df25fbaab7906c68 OP_EQUAL", "type": "scripthash"}, "value": 0.003799, "n": 0}, {"scriptPubKey": {"reqSigs": 1, "hex": "a914a5c679defd49547b8133a1367eeadbdeaecec3da87", "addresses": ["3GoZBZ6F8g4UiCt7moPNLDX7KKwgtGgLUT"], "asm": "OP_HASH160 a5c679defd49547b8133a1367eeadbdeaecec3da OP_EQUAL", "type": "scripthash"}, "value": 0.27863227, "n": 1}], "hex": "01000000000101c25f7bd8fcd6ce5d768f005b421b7b22bd3b43309b8d89f11fe5b7479df261ac01000000232200202d90cd274cea8141a030c0b79acc5b5c0b80b73d028692a1104913808bff6c09ffffffff02fccb05000000000017a914f81d116062789ac075e2b1b1df25fbaab7906c6887bb28a9010000000017a914a5c679defd49547b8133a1367eeadbdeaecec3da87040047304402203f2c840aaf0e14ebceb54c71154048faaaedf586323f7b29ab40b09d1f0b253b0220605dba80e1ea9cac2bcfc4abcd2110142a225dbb6d3f8de8b16b733bfb88fec0014830450221008fa448563b68263bcb2fdaf7dcf462e4f00c27d81afadc5d789e554785a064d302204c892533e38895dd3f5aa4b0883fff77732aeb5e29fba964e7cb12cda897ecbe014752210295d70c0f10033e6e119fdc61ddd495bfe23995150af6df4688db5bf235f2853b21023e4b58fb2a91970de56515d11487aabd364f0404f1099bef70493cc56002342352ae00000000", "vin": [{"txinwitness": ["", "304402203f2c840aaf0e14ebceb54c71154048faaaedf586323f7b29ab40b09d1f0b253b0220605dba80e1ea9cac2bcfc4abcd2110142a225dbb6d3f8de8b16b733bfb88fec001", "30450221008fa448563b68263bcb2fdaf7dcf462e4f00c27d81afadc5d789e554785a064d302204c892533e38895dd3f5aa4b0883fff77732aeb5e29fba964e7cb12cda897ecbe01", "52210295d70c0f10033e6e119fdc61ddd495bfe23995150af6df4688db5bf235f2853b21023e4b58fb2a91970de56515d11487aabd364f0404f1099bef70493cc56002342352ae"], "sequence": 4294967295, "scriptSig": {"hex": "2200202d90cd274cea8141a030c0b79acc5b5c0b80b73d028692a1104913808bff6c09", "asm": "00202d90cd274cea8141a030c0b79acc5b5c0b80b73d028692a1104913808bff6c09"}, "vout": 1, "txid": "ac61f29d47b7e51ff1898d9b30433bbd227b1b425b008f765dced6fcd87b5fc2"}], "txid": "c3beb92ffbd65da2895198e78a4c21af1be86896f91634cc68cb6229ae1e8965", "blocktime": 1537876114, "version": 1, "confirmations": 11462, "time": 1537876114, "locktime": 0, "vsize": 206, "size": 371}