{"hash": "184a2adaca79768e986dd492b2f9cc1c9fb6dbc9589261c890d96db7d14260a7", "blockhash": "00000000000000000017f5eb5941039fbcee6240d03bc1f2f8e35350df66a1d8", "vout": [{"scriptPubKey": {"reqSigs": 1, "hex": "76a914ff470fc640f2790fd710cf758f63bad8a1c75d5888ac", "addresses": ["1QGnSN9VpGmfzfFMAbMVGxQcXYVZYfJuMD"], "asm": "OP_DUP OP_HASH160 ff470fc640f2790fd710cf758f63bad8a1c75d58 OP_EQUALVERIFY OP_CHECKSIG", "type": "pubkeyhash"}, "value": 0.03, "n": 0}, {"scriptPubKey": {"reqSigs": 1, "hex": "00140162660af4685b4f328d0e8d6c3f951212676d7a", "addresses": ["bc1qq93xvzh5dpd57v5dp6xkc0u4zgfxwmt6nc8sh5"], "asm": "0 0162660af4685b4f328d0e8d6c3f951212676d7a", "type": "witness_v0_keyhash"}, "value": 0.57691802, "n": 1}], "hex": "010000000001014f253050edb05f96db64f4e44ecd3005034003f013b1118cb3794eb3c951b01a0000000000ffffffff02c0c62d00000000001976a914ff470fc640f2790fd710cf758f63bad8a1c75d5888ac9a4e7003000000001600140162660af4685b4f328d0e8d6c3f951212676d7a02473044022067e035e03878d0edefb749b4ec844809efb7c189eaa75771c6d5551359f5a14102204aa4bda7405b461bdad8b36aaf94dab8e651884b80a3a25c353022681c892717012102581af861d8452f8e8aa097e3c12a2a3a40b987b0e81ff21e7b37c5926620d39700000000", "vin": [{"txinwitness": ["3044022067e035e03878d0edefb749b4ec844809efb7c189eaa75771c6d5551359f5a14102204aa4bda7405b461bdad8b36aaf94dab8e651884b80a3a25c353022681c89271701", "02581af861d8452f8e8aa097e3c12a2a3a40b987b0e81ff21e7b37c5926620d397"], "sequence": 4294967295, "scriptSig": {"hex": "", "asm": ""}, "vout": 0, "txid": "1ab051c9b34e79b38c11b113f00340030530cd4ee4f464db965fb0ed5030254f"}], "txid": "c3bf0f1a159c7d181dac69be1f992e98e7a3a85e5a8fc8159b8c1a6adb65f5f1", "blocktime": 1537874412, "version": 1, "confirmations": 11467, "time": 1537874412, "locktime": 0, "vsize": 144, "size": 225}