{"hash": "15214ffa485390c20f0b7610c10bf13aa5244a7b92c9c34029e8a5b7fde6dfab", "blockhash": "00000000000000000024a2167bbff67b0be802c0b01cdd79e6331c2be6459f87", "vout": [{"scriptPubKey": {"reqSigs": 1, "hex": "0014bff3b101585bd44b868365b1467bbc9a96a9df39", "addresses": ["bc1qhlemzq2ct02yhp5rvkc5v7aun2t2nhee2h8g6t"], "asm": "0 bff3b101585bd44b868365b1467bbc9a96a9df39", "type": "witness_v0_keyhash"}, "value": 1.667e-05, "n": 0}, {"scriptPubKey": {"reqSigs": 1, "hex": "76a91456b5519d84c29127d9db762ac90079af242781f788ac", "addresses": ["18uUKkTFXypSTQbPu7Bm1gsm1GpG7XtQpg"], "asm": "OP_DUP OP_HASH160 56b5519d84c29127d9db762ac90079af242781f7 OP_EQUALVERIFY OP_CHECKSIG", "type": "pubkeyhash"}, "value": 0.00202745, "n": 1}], "hex": "010000000001016c04c4aaba3902c51ccf476dff95efd04e906c9f0ebbd6d53c06d92ca2e143f30100000017160014cce44946d4c9dbc85821416fcb9c191890e5a220ffffffff028306000000000000160014bff3b101585bd44b868365b1467bbc9a96a9df39f9170300000000001976a91456b5519d84c29127d9db762ac90079af242781f788ac02483045022100a15464d844c6e007643beb24053ef70524ea817ab638796fff2ea738972846a402207062ac3096aa5f324eead7c9ef75dd8a654b4391d8ab9d80bc7c989d7a69b4b9012102feb9667051ac638c59a903ab5de66d56db24fd412faff38393d9170829ec08fa00000000", "vin": [{"txinwitness": ["3045022100a15464d844c6e007643beb24053ef70524ea817ab638796fff2ea738972846a402207062ac3096aa5f324eead7c9ef75dd8a654b4391d8ab9d80bc7c989d7a69b4b901", "02feb9667051ac638c59a903ab5de66d56db24fd412faff38393d9170829ec08fa"], "sequence": 4294967295, "scriptSig": {"hex": "160014cce44946d4c9dbc85821416fcb9c191890e5a220", "asm": "0014cce44946d4c9dbc85821416fcb9c191890e5a220"}, "vout": 1, "txid": "f343e1a22cd9063cd5d6bb0e9f6c904ed0ef95ff6d47cf1cc50239baaac4046c"}], "txid": "c3bfe75ec97b72d3e4aac1f17c370053924de4381a872b2af95aaccba8563033", "blocktime": 1537870564, "version": 1, "confirmations": 11515, "time": 1537870564, "locktime": 0, "vsize": 167, "size": 249}