{"hash": "c3c22d63a92e7ce4b0f26029286e70a49b53a3968330a09f8ad027f0a599d8e5", "blockhash": "0000000000000000000baef3f32e3676a92c3b2e5da21b426e4f302fc371ce76", "vout": [{"scriptPubKey": {"reqSigs": 1, "hex": "a914c0f0f693de2dbd6ea67f992c8340061318ce44e287", "addresses": ["3KHCKnrZoAWboUw8x9dpnAChaoB3UmKN5B"], "asm": "OP_HASH160 c0f0f693de2dbd6ea67f992c8340061318ce44e2 OP_EQUAL", "type": "scripthash"}, "value": 0.0028256, "n": 0}, {"scriptPubKey": {"reqSigs": 1, "hex": "76a914dd4262168a501e4022c2e8aa3b0c17d74bf1019088ac", "addresses": ["1MAurn595JbmhpGePLteDnJ184SMo11jTJ"], "asm": "OP_DUP OP_HASH160 dd4262168a501e4022c2e8aa3b0c17d74bf10190 OP_EQUALVERIFY OP_CHECKSIG", "type": "pubkeyhash"}, "value": 0.00501625, "n": 1}], "hex": "0100000001fa932e1103b5a1c0ae2697d05b7a414581c474e071637c4f56c2b2791ee3b5611b0000006b483045022100e766cc5323703f90ac557bd75bd63b6e21fb12751efd8434836860a6a7b3bcc4022069db0da19c638c715cf6fe7ce54cbee0efd5c3238de93f1dd705aecff1ba8f1201210355d57795892897d323c2e6f1f0ed54f07399aa0212b5baa953ac82dee9ffa3c3ffffffff02c04f04000000000017a914c0f0f693de2dbd6ea67f992c8340061318ce44e28779a70700000000001976a914dd4262168a501e4022c2e8aa3b0c17d74bf1019088ac00000000", "vin": [{"sequence": 4294967295, "scriptSig": {"hex": "483045022100e766cc5323703f90ac557bd75bd63b6e21fb12751efd8434836860a6a7b3bcc4022069db0da19c638c715cf6fe7ce54cbee0efd5c3238de93f1dd705aecff1ba8f1201210355d57795892897d323c2e6f1f0ed54f07399aa0212b5baa953ac82dee9ffa3c3", "asm": "3045022100e766cc5323703f90ac557bd75bd63b6e21fb12751efd8434836860a6a7b3bcc4022069db0da19c638c715cf6fe7ce54cbee0efd5c3238de93f1dd705aecff1ba8f12[ALL] 0355d57795892897d323c2e6f1f0ed54f07399aa0212b5baa953ac82dee9ffa3c3"}, "vout": 27, "txid": "61b5e31e79b2c2564f7c6371e074c48145417a5bd09726aec0a1b503112e93fa"}], "txid": "c3c22d63a92e7ce4b0f26029286e70a49b53a3968330a09f8ad027f0a599d8e5", "blocktime": 1537876114, "version": 1, "confirmations": 11460, "time": 1537876114, "locktime": 0, "vsize": 224, "size": 224}