{"hash": "5a5acaac7c4213de65d286e4fe2022cf62b03fe750577ae518ab8d475bf0ceea", "blockhash": "0000000000000000001e0dab787dd257d1dbfcb92a98c2207d5e1078be1f4165", "vout": [{"scriptPubKey": {"reqSigs": 1, "hex": "76a914890f8f0ef3d96be76ada23de43e71035103ef2e988ac", "addresses": ["1DViDKwuPPAFELpsdyTG73kDi4KYYh9tWS"], "asm": "OP_DUP OP_HASH160 890f8f0ef3d96be76ada23de43e71035103ef2e9 OP_EQUALVERIFY OP_CHECKSIG", "type": "pubkeyhash"}, "value": 0.002987, "n": 0}, {"scriptPubKey": {"reqSigs": 1, "hex": "a914f7ed4c5d611bc40f4382375d688a27b54a57610187", "addresses": ["3QHw6hbiVeN7z9Vv8BGzi5mjgajxfmi8i2"], "asm": "OP_HASH160 f7ed4c5d611bc40f4382375d688a27b54a576101 OP_EQUAL", "type": "scripthash"}, "value": 0.01000765, "n": 1}], "hex": "020000000001027f803f7e022f5381cb54a48f56fb174bb943e9639b68b1fe02838007b741ee9ec5000000171600143d339f5b7efac03919fbfa403a5f0989f0f25dbdfeffffffc0ffe871618f097d6ab6a25e524768eda604752123a3d4d5c350203265c05169710100006b48304502210091a1de5bf364f5da992d93c38c51b584956863fe3d70b2f1eccbe25aad3ac36402201bde42209e312cba69ce071d63d8e3193bcee466c7f5c7f57c57e4f96e76ad3c012103323c19f29934fd41def7c1a960aad8b4e2ae8e4639e8f168198fad4cced4b2abfeffffff02cc8e0400000000001976a914890f8f0ef3d96be76ada23de43e71035103ef2e988ac3d450f000000000017a914f7ed4c5d611bc40f4382375d688a27b54a5761018702483045022100e264959433838fec79459c494a4f5a622ae9387b01fb4c451f5a282d1eb98be1022052e35ecd1d2653882f4fc68147713bd00c6d90e6ab75a0dc2485bc0d8ea68e0b0121037492df8aa59cdd8763f30026efd231b1a5d5fc605532d2fcb8ea0f7b828f92bc0012490800", "vin": [{"txinwitness": ["3045022100e264959433838fec79459c494a4f5a622ae9387b01fb4c451f5a282d1eb98be1022052e35ecd1d2653882f4fc68147713bd00c6d90e6ab75a0dc2485bc0d8ea68e0b01", "037492df8aa59cdd8763f30026efd231b1a5d5fc605532d2fcb8ea0f7b828f92bc"], "sequence": 4294967294, "scriptSig": {"hex": "1600143d339f5b7efac03919fbfa403a5f0989f0f25dbd", "asm": "00143d339f5b7efac03919fbfa403a5f0989f0f25dbd"}, "vout": 197, "txid": "9eee41b707808302feb1689b63e943b94b17fb568fa454cb81532f027e3f807f"}, {"sequence": 4294967294, "scriptSig": {"hex": "48304502210091a1de5bf364f5da992d93c38c51b584956863fe3d70b2f1eccbe25aad3ac36402201bde42209e312cba69ce071d63d8e3193bcee466c7f5c7f57c57e4f96e76ad3c012103323c19f29934fd41def7c1a960aad8b4e2ae8e4639e8f168198fad4cced4b2ab", "asm": "304502210091a1de5bf364f5da992d93c38c51b584956863fe3d70b2f1eccbe25aad3ac36402201bde42209e312cba69ce071d63d8e3193bcee466c7f5c7f57c57e4f96e76ad3c[ALL] 03323c19f29934fd41def7c1a960aad8b4e2ae8e4639e8f168198fad4cced4b2ab"}, "vout": 369, "txid": "6951c065322050c3d5d4a323217504a6ed6847525ea2b66a7d098f6171e8ffc0"}], "txid": "c3c46b10045709d1639958c201e1f3f2f2c8e14be09b2b42fc9c1667f7916cb1", "blocktime": 1537872475, "version": 2, "confirmations": 11487, "time": 1537872475, "locktime": 542994, "vsize": 316, "size": 399}