{"hash": "c3c948c646335762ea2d3c93b9ed9c2348850436b9b200682bc0b7caa14e92b4", "blockhash": "000000000000000000022b45ed06c6f4ccd3cf7fb5ba4856ebd2e58215665228", "vout": [{"scriptPubKey": {"reqSigs": 1, "hex": "76a914284b1f894ca72430de8f19952125b6016a9dc7c688ac", "addresses": ["14g42KnXkRFfR8cUtS5tReprjeNvGQKW9v"], "asm": "OP_DUP OP_HASH160 284b1f894ca72430de8f19952125b6016a9dc7c6 OP_EQUALVERIFY OP_CHECKSIG", "type": "pubkeyhash"}, "value": 0.14489038, "n": 0}, {"scriptPubKey": {"type": "nulldata", "hex": "6a146f6d6e69000000000000001f0000001ccd183500", "asm": "OP_RETURN 6f6d6e69000000000000001f0000001ccd183500"}, "value": 0.0, "n": 1}, {"scriptPubKey": {"reqSigs": 1, "hex": "76a914196c03a4060243a0c4fb66aaf812a6bcdc2de12588ac", "addresses": ["13KRHkpKJ4uxNK4ASgjeAfqVE4Zjs8He3L"], "asm": "OP_DUP OP_HASH160 196c03a4060243a0c4fb66aaf812a6bcdc2de125 OP_EQUALVERIFY OP_CHECKSIG", "type": "pubkeyhash"}, "value": 5.46e-06, "n": 2}], "hex": "01000000014030b04ef9353b705d673874abf351f67dd2e65219640fefcf0144dbb3a1ea11020000006a473044022038290f00944026cab4e6e7444888f8e4067a132f59862271be421041a1089438022023eaa0bf59f346675d71a1c59e31793b4b533a67bbecae505fb04bbf6855b6ee01210392260b2475e9dec1855e89404d00787579055270f3f1619ec29bd64ed6a6dd7dfeffffff03ce15dd00000000001976a914284b1f894ca72430de8f19952125b6016a9dc7c688ac0000000000000000166a146f6d6e69000000000000001f0000001ccd18350022020000000000001976a914196c03a4060243a0c4fb66aaf812a6bcdc2de12588ac00490800", "vin": [{"sequence": 4294967294, "scriptSig": {"hex": "473044022038290f00944026cab4e6e7444888f8e4067a132f59862271be421041a1089438022023eaa0bf59f346675d71a1c59e31793b4b533a67bbecae505fb04bbf6855b6ee01210392260b2475e9dec1855e89404d00787579055270f3f1619ec29bd64ed6a6dd7d", "asm": "3044022038290f00944026cab4e6e7444888f8e4067a132f59862271be421041a1089438022023eaa0bf59f346675d71a1c59e31793b4b533a67bbecae505fb04bbf6855b6ee[ALL] 0392260b2475e9dec1855e89404d00787579055270f3f1619ec29bd64ed6a6dd7d"}, "vout": 2, "txid": "11eaa1b3db4401cfef0f641952e6d27df651f3ab7438675d703b35f94eb03040"}], "txid": "c3c948c646335762ea2d3c93b9ed9c2348850436b9b200682bc0b7caa14e92b4", "blocktime": 1537869901, "version": 1, "confirmations": 11522, "time": 1537869901, "locktime": 542976, "vsize": 256, "size": 256}