{"hash": "c3ca42b839fdc5c133a685e6e7218975299d3154f286597c7e68d4458d7f98b9", "blockhash": "0000000000000000001cda96e906b7601b7a6fb1a3b62bca570a9e5d8f4b3de1", "vout": [{"scriptPubKey": {"reqSigs": 1, "hex": "a914a018594750f7944164c80c6b3d94ab9f1433b15487", "addresses": ["3GHXD1wbCCcCZ6fAUYiJteeGQGsHJ4wUQz"], "asm": "OP_HASH160 a018594750f7944164c80c6b3d94ab9f1433b154 OP_EQUAL", "type": "scripthash"}, "value": 0.03751, "n": 0}, {"scriptPubKey": {"reqSigs": 1, "hex": "76a9140d9b96153dbee91816ceee453b1a0373f6bf428888ac", "addresses": ["12ExApNcf9bhbqKridTJU5mxH6Yk8WoYyZ"], "asm": "OP_DUP OP_HASH160 0d9b96153dbee91816ceee453b1a0373f6bf4288 OP_EQUALVERIFY OP_CHECKSIG", "type": "pubkeyhash"}, "value": 0.300978, "n": 1}], "hex": "010000000159e67e9da32e0e42c09376d2dc4b7d2912e76fe6989c485c8f712d79aeab5c5e010000006b483045022100f4243858ee898dd6d8e720fe72448a94de295768a1d4efc6c043b4911684226c02207fbf5be0e22b2e61f25237c91c9b65c79c9fe2c4c31b6983a26cad38d90146bb0121026c32db22310a32b9dbaf39215661a4d64d55ad35b4dee1a089bbc9c0c0b1b75bfeffffff02583c39000000000017a914a018594750f7944164c80c6b3d94ab9f1433b154878841cb01000000001976a9140d9b96153dbee91816ceee453b1a0373f6bf428888ac13490800", "vin": [{"sequence": 4294967294, "scriptSig": {"hex": "483045022100f4243858ee898dd6d8e720fe72448a94de295768a1d4efc6c043b4911684226c02207fbf5be0e22b2e61f25237c91c9b65c79c9fe2c4c31b6983a26cad38d90146bb0121026c32db22310a32b9dbaf39215661a4d64d55ad35b4dee1a089bbc9c0c0b1b75b", "asm": "3045022100f4243858ee898dd6d8e720fe72448a94de295768a1d4efc6c043b4911684226c02207fbf5be0e22b2e61f25237c91c9b65c79c9fe2c4c31b6983a26cad38d90146bb[ALL] 026c32db22310a32b9dbaf39215661a4d64d55ad35b4dee1a089bbc9c0c0b1b75b"}, "vout": 1, "txid": "5e5cabae792d718f5c489c98e66fe712297d4bdcd27693c0420e2ea39d7ee659"}], "txid": "c3ca42b839fdc5c133a685e6e7218975299d3154f286597c7e68d4458d7f98b9", "blocktime": 1537873282, "version": 1, "confirmations": 11480, "time": 1537873282, "locktime": 542995, "vsize": 224, "size": 224}