{"hash": "c3ca70ae7196ef14ab387b21ec3de7068ec80bfbf200be9b6bed92e2a7697b3a", "blockhash": "0000000000000000001f0ddff1eddb255c1121bcd4da4f1bc9a0da00cae72433", "vout": [{"scriptPubKey": {"reqSigs": 1, "hex": "a9149efe5cb6a8d31a9a8ac2dea791281438feb8f15487", "addresses": ["3GBhQFDCatvCZZKZHHgLeuiz2bM3sZy2v7"], "asm": "OP_HASH160 9efe5cb6a8d31a9a8ac2dea791281438feb8f154 OP_EQUAL", "type": "scripthash"}, "value": 0.01231, "n": 0}, {"scriptPubKey": {"reqSigs": 1, "hex": "76a91460481bbbbdbc501ebc2502807214eff610db6f2c88ac", "addresses": ["19n6FbFeu3RVRLLsEFGu5FEbTNEfbeDuWh"], "asm": "OP_DUP OP_HASH160 60481bbbbdbc501ebc2502807214eff610db6f2c OP_EQUALVERIFY OP_CHECKSIG", "type": "pubkeyhash"}, "value": 0.136992, "n": 1}], "hex": "01000000016f2ce2550d4dd8b5b8d219e11ac18a284185765bfd042a31697bb521c9f2d2a9000000006b483045022100e07127f0ec8da9940cda27c8acf4e55c01e8604abdeed18ba16504bfadc0729002207ec1c335e25430899325a699f55a88b923fb9bf780af6278eba3510db7c14b2e01210351d0b063b187fb29c78b2e7a44c3cca21930c8470b2830139cf7ae93520d4536feffffff0298c812000000000017a9149efe5cb6a8d31a9a8ac2dea791281438feb8f154878008d100000000001976a91460481bbbbdbc501ebc2502807214eff610db6f2c88ac11490800", "vin": [{"sequence": 4294967294, "scriptSig": {"hex": "483045022100e07127f0ec8da9940cda27c8acf4e55c01e8604abdeed18ba16504bfadc0729002207ec1c335e25430899325a699f55a88b923fb9bf780af6278eba3510db7c14b2e01210351d0b063b187fb29c78b2e7a44c3cca21930c8470b2830139cf7ae93520d4536", "asm": "3045022100e07127f0ec8da9940cda27c8acf4e55c01e8604abdeed18ba16504bfadc0729002207ec1c335e25430899325a699f55a88b923fb9bf780af6278eba3510db7c14b2e[ALL] 0351d0b063b187fb29c78b2e7a44c3cca21930c8470b2830139cf7ae93520d4536"}, "vout": 0, "txid": "a9d2f2c921b57b69312a04fd5b768541288ac11ae119d2b8b5d84d0d55e22c6f"}], "txid": "c3ca70ae7196ef14ab387b21ec3de7068ec80bfbf200be9b6bed92e2a7697b3a", "blocktime": 1537872018, "version": 1, "confirmations": 11489, "time": 1537872018, "locktime": 542993, "vsize": 224, "size": 224}