{"hash": "c3cb4bd475881eecc58275adc343cf2dc58d682abc34e9133f13479df0b5bfb9", "blockhash": "0000000000000000000e13cef7c366c0283d82e591d1acd082e914b08063cdf1", "vout": [{"scriptPubKey": {"reqSigs": 1, "hex": "76a914033c180416d5af8e77d8d23b6a87943e1ba80ad688ac", "addresses": ["1J71y5EcaHi23eWJPygNsqvpAzs17ieEx"], "asm": "OP_DUP OP_HASH160 033c180416d5af8e77d8d23b6a87943e1ba80ad6 OP_EQUALVERIFY OP_CHECKSIG", "type": "pubkeyhash"}, "value": 0.00282288, "n": 0}, {"scriptPubKey": {"reqSigs": 1, "hex": "a914a5364f7238cccaf929a92109090044b83628d30987", "addresses": ["3GkaUk7TtKbcyAjY4GfzweyK7Tsr1scC9U"], "asm": "OP_HASH160 a5364f7238cccaf929a92109090044b83628d309 OP_EQUAL", "type": "scripthash"}, "value": 0.03198, "n": 1}], "hex": "0100000003349c120f8fbf6747960d07f38efd9e46160c1dc1f9bd3bd593fb1f7dc8ee1c9f040000006b483045022100a0ba6da537381b38b74f8df468ac4a4c0fad5da8f3668597c550581cbd61510f022025cf8ab54f530417ef2cdd7c6057a4d8d4b6c5314ba2f8731d30210acdd9ac90012103bc5f051614c7fc6899996c188f91155a29609f324d8bdd20d34f8b7ed327f79dffffffff00f6d2f592252694ed20635aa341100b86dc27430534a48b6cbc739419d783ea000000006b483045022100912fc6cee36372f3c6f46903de6242d3f3139440d9695f58c92898638d7eeb9c02207940836476df741e33def8835bfda5975c67d31713a4e55e02fb501330f7b3bb0121039b8a0476cfdef122a41c0d1f2ea9d316f48daa1b0fcb3eb2b8812aec9d620be2ffffffff5f710bfe7ae51d9233897cfa94367e15816abf08b8406015a914cf2f3545f0ee000000006a4730440220138dfa40d6d8b5a1ffd166f745931560430330bae5e9db1bc33ca5d6bdbd8cc70220728a72b7596c3c5350b7b2f9c309f1441538d824b587f8d3b91021f6d22a4b2d01210340e433b3aef400973fc49278326511ca39fede76051e0cd65645b7033f09ebeaffffffff02b04e0400000000001976a914033c180416d5af8e77d8d23b6a87943e1ba80ad688ac30cc30000000000017a914a5364f7238cccaf929a92109090044b83628d3098700000000", "vin": [{"sequence": 4294967295, "scriptSig": {"hex": "483045022100a0ba6da537381b38b74f8df468ac4a4c0fad5da8f3668597c550581cbd61510f022025cf8ab54f530417ef2cdd7c6057a4d8d4b6c5314ba2f8731d30210acdd9ac90012103bc5f051614c7fc6899996c188f91155a29609f324d8bdd20d34f8b7ed327f79d", "asm": "3045022100a0ba6da537381b38b74f8df468ac4a4c0fad5da8f3668597c550581cbd61510f022025cf8ab54f530417ef2cdd7c6057a4d8d4b6c5314ba2f8731d30210acdd9ac90[ALL] 03bc5f051614c7fc6899996c188f91155a29609f324d8bdd20d34f8b7ed327f79d"}, "vout": 4, "txid": "9f1ceec87d1ffb93d53bbdf9c11d0c16469efd8ef3070d964767bf8f0f129c34"}, {"sequence": 4294967295, "scriptSig": {"hex": "483045022100912fc6cee36372f3c6f46903de6242d3f3139440d9695f58c92898638d7eeb9c02207940836476df741e33def8835bfda5975c67d31713a4e55e02fb501330f7b3bb0121039b8a0476cfdef122a41c0d1f2ea9d316f48daa1b0fcb3eb2b8812aec9d620be2", "asm": "3045022100912fc6cee36372f3c6f46903de6242d3f3139440d9695f58c92898638d7eeb9c02207940836476df741e33def8835bfda5975c67d31713a4e55e02fb501330f7b3bb[ALL] 039b8a0476cfdef122a41c0d1f2ea9d316f48daa1b0fcb3eb2b8812aec9d620be2"}, "vout": 0, "txid": "ea83d7199473bc6c8ba434054327dc860b1041a35a6320ed94262592f5d2f600"}, {"sequence": 4294967295, "scriptSig": {"hex": "4730440220138dfa40d6d8b5a1ffd166f745931560430330bae5e9db1bc33ca5d6bdbd8cc70220728a72b7596c3c5350b7b2f9c309f1441538d824b587f8d3b91021f6d22a4b2d01210340e433b3aef400973fc49278326511ca39fede76051e0cd65645b7033f09ebea", "asm": "30440220138dfa40d6d8b5a1ffd166f745931560430330bae5e9db1bc33ca5d6bdbd8cc70220728a72b7596c3c5350b7b2f9c309f1441538d824b587f8d3b91021f6d22a4b2d[ALL] 0340e433b3aef400973fc49278326511ca39fede76051e0cd65645b7033f09ebea"}, "vout": 0, "txid": "eef045352fcf14a9156040b808bf6a81157e3694fa7c8933921de57afe0b715f"}], "txid": "c3cb4bd475881eecc58275adc343cf2dc58d682abc34e9133f13479df0b5bfb9", "blocktime": 1537871767, "version": 1, "confirmations": 11491, "time": 1537871767, "locktime": 0, "vsize": 519, "size": 519}