{"hash": "c3d0474950de103c2017a9a238f31e1bdead9823ebf7630c857f5002d6522616", "blockhash": "0000000000000000000dcc0f55137456b1a82d3642486a52398922ac4d620174", "vout": [{"scriptPubKey": {"reqSigs": 1, "hex": "76a9140f71aec508dc7e06ce35229aef16305eb09ed1bc88ac", "addresses": ["12QfKgzWyp94ZSdniKZc1uBucTBqr4iwKH"], "asm": "OP_DUP OP_HASH160 0f71aec508dc7e06ce35229aef16305eb09ed1bc OP_EQUALVERIFY OP_CHECKSIG", "type": "pubkeyhash"}, "value": 0.02303331, "n": 0}, {"scriptPubKey": {"reqSigs": 1, "hex": "76a914a8427ca6b1660a9ce6413a1944b7c5c59055b03a88ac", "addresses": ["1GLgApY8DgNod8jmHZY8mZGXt2aWQtRhYB"], "asm": "OP_DUP OP_HASH160 a8427ca6b1660a9ce6413a1944b7c5c59055b03a OP_EQUALVERIFY OP_CHECKSIG", "type": "pubkeyhash"}, "value": 11.11617973, "n": 1}], "hex": "020000000197919a135fb60cc388a62b717daf17f7f3a53cb7d964e5b27acec53ac3f90fae010000006b483045022100d6c25ebc5ffc1b8db53f59781c6bd2b64bde18fb5174ba0f4bda3d1119307a6402200c59e87f3576da5846d634d1d7016c1005d74f47ade303164a4051a5167d3121012102906db18a7fe6e3dc5826b59b70f70f65b9e3a5a6d245b9d435080bfc03dea52bffffffff0263252300000000001976a9140f71aec508dc7e06ce35229aef16305eb09ed1bc88acb5f14142000000001976a914a8427ca6b1660a9ce6413a1944b7c5c59055b03a88ac00000000", "vin": [{"sequence": 4294967295, "scriptSig": {"hex": "483045022100d6c25ebc5ffc1b8db53f59781c6bd2b64bde18fb5174ba0f4bda3d1119307a6402200c59e87f3576da5846d634d1d7016c1005d74f47ade303164a4051a5167d3121012102906db18a7fe6e3dc5826b59b70f70f65b9e3a5a6d245b9d435080bfc03dea52b", "asm": "3045022100d6c25ebc5ffc1b8db53f59781c6bd2b64bde18fb5174ba0f4bda3d1119307a6402200c59e87f3576da5846d634d1d7016c1005d74f47ade303164a4051a5167d3121[ALL] 02906db18a7fe6e3dc5826b59b70f70f65b9e3a5a6d245b9d435080bfc03dea52b"}, "vout": 1, "txid": "ae0ff9c33ac5ce7ab2e564d9b73ca5f3f717af7d712ba688c30cb65f139a9197"}], "txid": "c3d0474950de103c2017a9a238f31e1bdead9823ebf7630c857f5002d6522616", "blocktime": 1537870268, "version": 2, "confirmations": 11518, "time": 1537870268, "locktime": 0, "vsize": 226, "size": 226}