{"hash": "c3d7795b6eedbb81b3a4935ae9a8da676b8369269a8b0340aea97134613bb153", "blockhash": "0000000000000000001cda96e906b7601b7a6fb1a3b62bca570a9e5d8f4b3de1", "vout": [{"scriptPubKey": {"reqSigs": 1, "hex": "76a914882cc4f54c2ea08d18892bb11ab27fc43e466e7188ac", "addresses": ["1DR2XiiEjs91cTtp1LxyqEKm5ihNABmRZ7"], "asm": "OP_DUP OP_HASH160 882cc4f54c2ea08d18892bb11ab27fc43e466e71 OP_EQUALVERIFY OP_CHECKSIG", "type": "pubkeyhash"}, "value": 0.1118295, "n": 0}, {"scriptPubKey": {"type": "nulldata", "hex": "6a146f6d6e69000000000000001f0000000035a4e900", "asm": "OP_RETURN 6f6d6e69000000000000001f0000000035a4e900"}, "value": 0.0, "n": 1}, {"scriptPubKey": {"reqSigs": 1, "hex": "76a9143c4f86bb2d18c19f0afde122b645b9867df787d688ac", "addresses": ["16Vtp6RnFtc89PHhoiWBVeEf7VyNHn3gQA"], "asm": "OP_DUP OP_HASH160 3c4f86bb2d18c19f0afde122b645b9867df787d6 OP_EQUALVERIFY OP_CHECKSIG", "type": "pubkeyhash"}, "value": 5.46e-06, "n": 2}], "hex": "0100000001134d9f18ef0305a4f60c06374c94a7cea83fe4d2c32673b0a85bc06906823dd6010000006a473044022077b170b5b83578c7fc880ec46b063bc0e22ca1d391f4df54776dfb18e53535f8022078d3d2af0cd2a6a3a16a78cc9d3436f3d10638eac7a05a213154ba1e662f2548012102d7800c61a710c2c233322b2fbdcbbd492c162678a6cf6e859c3b7322e14189eefeffffff0366a3aa00000000001976a914882cc4f54c2ea08d18892bb11ab27fc43e466e7188ac0000000000000000166a146f6d6e69000000000000001f0000000035a4e90022020000000000001976a9143c4f86bb2d18c19f0afde122b645b9867df787d688ac13490800", "vin": [{"sequence": 4294967294, "scriptSig": {"hex": "473044022077b170b5b83578c7fc880ec46b063bc0e22ca1d391f4df54776dfb18e53535f8022078d3d2af0cd2a6a3a16a78cc9d3436f3d10638eac7a05a213154ba1e662f2548012102d7800c61a710c2c233322b2fbdcbbd492c162678a6cf6e859c3b7322e14189ee", "asm": "3044022077b170b5b83578c7fc880ec46b063bc0e22ca1d391f4df54776dfb18e53535f8022078d3d2af0cd2a6a3a16a78cc9d3436f3d10638eac7a05a213154ba1e662f2548[ALL] 02d7800c61a710c2c233322b2fbdcbbd492c162678a6cf6e859c3b7322e14189ee"}, "vout": 1, "txid": "d63d820669c05ba8b07326c3d2e43fa8cea7944c37060cf6a40503ef189f4d13"}], "txid": "c3d7795b6eedbb81b3a4935ae9a8da676b8369269a8b0340aea97134613bb153", "blocktime": 1537873282, "version": 1, "confirmations": 11480, "time": 1537873282, "locktime": 542995, "vsize": 256, "size": 256}