{"hash": "c3dacfcbbc3f4fe223035b170b3978b3f726956029dc77861bf3d3cc59915e28", "blockhash": "0000000000000000001f76057863aec43deb6fa401d9628bb513d65a8098bfab", "vout": [{"scriptPubKey": {"type": "nulldata", "hex": "6a4c50000077e30001887ee3febd18774bd779a4b07af8e8e963c7cfd5b95b23cc0f42c2fc38c5522519f5df268510f8e8fa9aa59c00095baa17080612819676dd69bcbc9a9526289ac0f6612cd74e33776ee4", "asm": "OP_RETURN 000077e30001887ee3febd18774bd779a4b07af8e8e963c7cfd5b95b23cc0f42c2fc38c5522519f5df268510f8e8fa9aa59c00095baa17080612819676dd69bcbc9a9526289ac0f6612cd74e33776ee4"}, "value": 0.0, "n": 0}, {"scriptPubKey": {"reqSigs": 1, "hex": "76a914607fe1eebc823ffa389acc168e2390030d82b96588ac", "addresses": ["19oF4rMmmk3LGYApt9tdarKhE2K9QAnwCb"], "asm": "OP_DUP OP_HASH160 607fe1eebc823ffa389acc168e2390030d82b965 OP_EQUALVERIFY OP_CHECKSIG", "type": "pubkeyhash"}, "value": 0.00105624, "n": 1}], "hex": "01000000011566af4d75a49badae64f0809512259d1b9849cf1564059ab83c5c089342be84010000006a47304402200974b196030e223cb96d3fe2c61a45c28599668e6e2c6a12d9eda9a669f95206022035a39f13cb00bb77af0f508d9929ca4a81c9e31284fd50dc2a666ec6ea8019c601210237d44152453704480bc41af18ecb9be81bba8d8e242a3df340559b685040c45effffffff020000000000000000536a4c50000077e30001887ee3febd18774bd779a4b07af8e8e963c7cfd5b95b23cc0f42c2fc38c5522519f5df268510f8e8fa9aa59c00095baa17080612819676dd69bcbc9a9526289ac0f6612cd74e33776ee4989c0100000000001976a914607fe1eebc823ffa389acc168e2390030d82b96588ac00000000", "vin": [{"sequence": 4294967295, "scriptSig": {"hex": "47304402200974b196030e223cb96d3fe2c61a45c28599668e6e2c6a12d9eda9a669f95206022035a39f13cb00bb77af0f508d9929ca4a81c9e31284fd50dc2a666ec6ea8019c601210237d44152453704480bc41af18ecb9be81bba8d8e242a3df340559b685040c45e", "asm": "304402200974b196030e223cb96d3fe2c61a45c28599668e6e2c6a12d9eda9a669f95206022035a39f13cb00bb77af0f508d9929ca4a81c9e31284fd50dc2a666ec6ea8019c6[ALL] 0237d44152453704480bc41af18ecb9be81bba8d8e242a3df340559b685040c45e"}, "vout": 1, "txid": "84be4293085c3cb89a056415cf49981b9d25129580f064aead9ba4754daf6615"}], "txid": "c3dacfcbbc3f4fe223035b170b3978b3f726956029dc77861bf3d3cc59915e28", "blocktime": 1537873891, "version": 1, "confirmations": 11478, "time": 1537873891, "locktime": 0, "vsize": 283, "size": 283}