{"hash": "0a3ac0c1593d83e74f2ac3491f7a5182fc596d7adb6081d13123412a04cd2db2", "blockhash": "0000000000000000001cda96e906b7601b7a6fb1a3b62bca570a9e5d8f4b3de1", "vout": [{"scriptPubKey": {"reqSigs": 1, "hex": "a914c84af75c88a7f367bb6497ee692943109f79b6b887", "addresses": ["3Kx4sf346prLsojA2aMbWw34xXrvbyTD2a"], "asm": "OP_HASH160 c84af75c88a7f367bb6497ee692943109f79b6b8 OP_EQUAL", "type": "scripthash"}, "value": 0.09454438, "n": 0}, {"scriptPubKey": {"reqSigs": 1, "hex": "a914be8975ee04c1ed23fda8bfd86a07039a3154548b87", "addresses": ["3K4UyveoSdRs16KDTcKF7EG38JWQBdQewd"], "asm": "OP_HASH160 be8975ee04c1ed23fda8bfd86a07039a3154548b OP_EQUAL", "type": "scripthash"}, "value": 0.01293657, "n": 1}], "hex": "0200000000010157495a9535f9790ebf24fd77250343e749fea4baf7fc23aada56bad05874a43600000000171600148d0856862129fa756b9af574e31eb09655e29681feffffff02664390000000000017a914c84af75c88a7f367bb6497ee692943109f79b6b88759bd13000000000017a914be8975ee04c1ed23fda8bfd86a07039a3154548b870247304402203cf635e471426be43f8b925c0f44e3b47ad825efa887aaa898acb08b81c96a00022051d1c09a12c040936cdb53b1e6a84c7c453817d4dd54341c595d22cab7905d13012102ab7c99dd017a3136cd5f0ac35dfc7af6c26082d221bce7001f2b252baebd4c3413490800", "vin": [{"txinwitness": ["304402203cf635e471426be43f8b925c0f44e3b47ad825efa887aaa898acb08b81c96a00022051d1c09a12c040936cdb53b1e6a84c7c453817d4dd54341c595d22cab7905d1301", "02ab7c99dd017a3136cd5f0ac35dfc7af6c26082d221bce7001f2b252baebd4c34"], "sequence": 4294967294, "scriptSig": {"hex": "1600148d0856862129fa756b9af574e31eb09655e29681", "asm": "00148d0856862129fa756b9af574e31eb09655e29681"}, "vout": 0, "txid": "36a47458d0ba56daaa23fcf7baa4fe49e743032577fd24bf0e79f935955a4957"}], "txid": "c3db412be6ce8415cd9befd6995d73bfa84f671c82cb7092302a5c01584e6c87", "blocktime": 1537873282, "version": 2, "confirmations": 11480, "time": 1537873282, "locktime": 542995, "vsize": 166, "size": 247}