{"hash": "860bc89b35856f94353f29d2e79b7858c19c3cbbe98007c0f17a4075c8e59ff5", "blockhash": "00000000000000000018f53835495a110e01622372bf6ae95dc86f2b0ab887b0", "vout": [{"scriptPubKey": {"reqSigs": 1, "hex": "a914806ab4f1a782cb61fbd163e886bf59b4739e964787", "addresses": ["3DQ2FDZQs8Z9fEs8xbyRNaSJr4fjoXVwQ9"], "asm": "OP_HASH160 806ab4f1a782cb61fbd163e886bf59b4739e9647 OP_EQUAL", "type": "scripthash"}, "value": 0.00085979, "n": 0}, {"scriptPubKey": {"reqSigs": 1, "hex": "a9140136c10502ae5684e49b302f1af10f145f74b6b787", "addresses": ["31oSC7GvQMTZoouyNLBEHVRDhXEFbVhSmh"], "asm": "OP_HASH160 0136c10502ae5684e49b302f1af10f145f74b6b7 OP_EQUAL", "type": "scripthash"}, "value": 0.10989668, "n": 1}], "hex": "0100000000010174a6a66b09b07ef1559077e1f8018cbc63921f177fb78182f1e05a18fe1a68ff0100000023220020efd02f10cc1074c68ec89b458572a71ce6bfc8a17595d8fde80232e47279444bffffffff02db4f01000000000017a914806ab4f1a782cb61fbd163e886bf59b4739e96478764b0a7000000000017a9140136c10502ae5684e49b302f1af10f145f74b6b7870400473044022069e936cd388c3d39e437857a044137df419ce42a25cdd97032419d4c380feaf802203db2701f81ca8b3a71cd6454d876967b806b2a262e6eefed4e6de1ad8f5d7ed401483045022100d937cb5040c34ebf325fee1a0ee4cbae6191fa0f337ab09ae4636b94cd2774ee0220063d8feb7c8f2496601bae85df69e98d7a6e951adbddf377870b8f67ea4f6e880147522103f985ea61f461801f3abc09ebed98ce7e20804639a64616f639f492883ea4e8d62103871fc2ca08e6950b38867e8e6a0e94ee625223d3aa0df5c65f414c6d784467e252ae00000000", "vin": [{"txinwitness": ["", "3044022069e936cd388c3d39e437857a044137df419ce42a25cdd97032419d4c380feaf802203db2701f81ca8b3a71cd6454d876967b806b2a262e6eefed4e6de1ad8f5d7ed401", "3045022100d937cb5040c34ebf325fee1a0ee4cbae6191fa0f337ab09ae4636b94cd2774ee0220063d8feb7c8f2496601bae85df69e98d7a6e951adbddf377870b8f67ea4f6e8801", "522103f985ea61f461801f3abc09ebed98ce7e20804639a64616f639f492883ea4e8d62103871fc2ca08e6950b38867e8e6a0e94ee625223d3aa0df5c65f414c6d784467e252ae"], "sequence": 4294967295, "scriptSig": {"hex": "220020efd02f10cc1074c68ec89b458572a71ce6bfc8a17595d8fde80232e47279444b", "asm": "0020efd02f10cc1074c68ec89b458572a71ce6bfc8a17595d8fde80232e47279444b"}, "vout": 1, "txid": "ff681afe185ae0f18281b77f171f9263bc8c01f8e1779055f17eb0096ba6a674"}], "txid": "c3dda6d372fce9cbecd6167d229c9cdaa2638fe199fbeb3a1291ad849f6407f5", "blocktime": 1537870928, "version": 1, "confirmations": 11514, "time": 1537870928, "locktime": 0, "vsize": 206, "size": 371}