{"hash": "c3e38e266876d11f52efa71dcd250b3f3a1251036394d837a71742f015d4c424", "blockhash": "0000000000000000001e0dab787dd257d1dbfcb92a98c2207d5e1078be1f4165", "vout": [{"scriptPubKey": {"reqSigs": 1, "hex": "76a9144066be3c9d690a00067d45dfd1a3c4d684e7a45988ac", "addresses": ["16sXKzdy198duP3BHRDxDuY7C86uTEo2Tr"], "asm": "OP_DUP OP_HASH160 4066be3c9d690a00067d45dfd1a3c4d684e7a459 OP_EQUALVERIFY OP_CHECKSIG", "type": "pubkeyhash"}, "value": 0.00642332, "n": 0}, {"scriptPubKey": {"type": "nulldata", "hex": "6a4c50000077ba0001a193388fa27c539194a8bb0ee5bf9ae76da98a211aaf6c953dd567cf27e760c101fe53482902ac58689587b753e35baa120d0612ad374a98508c1d100759d4ba30d2c37bb011d97e02cf", "asm": "OP_RETURN 000077ba0001a193388fa27c539194a8bb0ee5bf9ae76da98a211aaf6c953dd567cf27e760c101fe53482902ac58689587b753e35baa120d0612ad374a98508c1d100759d4ba30d2c37bb011d97e02cf"}, "value": 0.0, "n": 1}], "hex": "010000000164000edfc89d8b5f11ab4eb11f3c76f6ea3abaa8010d9986d8b0a253dada5318010000006a4730440220326424dc891d1cb320ddc4aab1fd23f564016ab019f1179ebcb7d4ac4424a9b902205b1e0f91a3dabc2b22da56ce53e3136c50a6194ae8d4fdb2c99748148979f1720121031dc45f0178ab4dd5c2ac8a2e98b7f178998d831fe1191460e4711bbc7ea40c6dffffffff021ccd0900000000001976a9144066be3c9d690a00067d45dfd1a3c4d684e7a45988ac0000000000000000536a4c50000077ba0001a193388fa27c539194a8bb0ee5bf9ae76da98a211aaf6c953dd567cf27e760c101fe53482902ac58689587b753e35baa120d0612ad374a98508c1d100759d4ba30d2c37bb011d97e02cf00000000", "vin": [{"sequence": 4294967295, "scriptSig": {"hex": "4730440220326424dc891d1cb320ddc4aab1fd23f564016ab019f1179ebcb7d4ac4424a9b902205b1e0f91a3dabc2b22da56ce53e3136c50a6194ae8d4fdb2c99748148979f1720121031dc45f0178ab4dd5c2ac8a2e98b7f178998d831fe1191460e4711bbc7ea40c6d", "asm": "30440220326424dc891d1cb320ddc4aab1fd23f564016ab019f1179ebcb7d4ac4424a9b902205b1e0f91a3dabc2b22da56ce53e3136c50a6194ae8d4fdb2c99748148979f172[ALL] 031dc45f0178ab4dd5c2ac8a2e98b7f178998d831fe1191460e4711bbc7ea40c6d"}, "vout": 1, "txid": "1853dada53a2b0d886990d01a8ba3aeaf6763c1fb14eab115f8b9dc8df0e0064"}], "txid": "c3e38e266876d11f52efa71dcd250b3f3a1251036394d837a71742f015d4c424", "blocktime": 1537872475, "version": 1, "confirmations": 11486, "time": 1537872475, "locktime": 0, "vsize": 283, "size": 283}