{"hash": "8091adbd9efb2841a2d5d9bcafc79e59dd071bd0201b5df723c2ed1b8f6d2442", "blockhash": "0000000000000000001e0dab787dd257d1dbfcb92a98c2207d5e1078be1f4165", "vout": [{"scriptPubKey": {"reqSigs": 1, "hex": "a9147b9529cc9806764a2cfb0877b67c81737b36b26d87", "addresses": ["3CxTjBh73ZNhyoxUV8EAF8CqvP9A6jZdot"], "asm": "OP_HASH160 7b9529cc9806764a2cfb0877b67c81737b36b26d OP_EQUAL", "type": "scripthash"}, "value": 0.07685223, "n": 0}, {"scriptPubKey": {"reqSigs": 1, "hex": "a9145d9b165a30b4fe64f01541dca95b27da05b1b32b87", "addresses": ["3ADxZ3ExUut4LLwA3gxMmXyncMidfzFzUu"], "asm": "OP_HASH160 5d9b165a30b4fe64f01541dca95b27da05b1b32b OP_EQUAL", "type": "scripthash"}, "value": 0.0094876, "n": 1}], "hex": "02000000000101637ef0f641fb2417a68990be6ceccac60f7092d96ec9e31623055905a437e3b8010000001716001428b42e5460fc2b0298e3bc0a013b8115314a1fd1feffffff02674475000000000017a9147b9529cc9806764a2cfb0877b67c81737b36b26d87187a0e000000000017a9145d9b165a30b4fe64f01541dca95b27da05b1b32b87024730440220211bc99cfa8af08d01661691af522b389f53c9465793234801d359e4f26ce06c022058dc89d3faa47941083aecf2ea3e91d399fd6748c35e61757dea5af662e3f22d012102fafa73b1f08caf53e8810fdfbb4185ffd3533035668b91b92fe129250fef006312490800", "vin": [{"txinwitness": ["30440220211bc99cfa8af08d01661691af522b389f53c9465793234801d359e4f26ce06c022058dc89d3faa47941083aecf2ea3e91d399fd6748c35e61757dea5af662e3f22d01", "02fafa73b1f08caf53e8810fdfbb4185ffd3533035668b91b92fe129250fef0063"], "sequence": 4294967294, "scriptSig": {"hex": "16001428b42e5460fc2b0298e3bc0a013b8115314a1fd1", "asm": "001428b42e5460fc2b0298e3bc0a013b8115314a1fd1"}, "vout": 1, "txid": "b8e337a40559052316e3c96ed992700fc6caec6cbe9089a61724fb41f6f07e63"}], "txid": "c3e4806716cf4bd9376cf37e6a8085ad0beb06371da5651c7d9396c3b0c304ba", "blocktime": 1537872475, "version": 2, "confirmations": 11487, "time": 1537872475, "locktime": 542994, "vsize": 166, "size": 247}