{"hash": "c3e8cc0f1dc8956c1ba388c0478b4d047b96ebdccc7e743f7a252494e9e27abb", "blockhash": "0000000000000000000e13cef7c366c0283d82e591d1acd082e914b08063cdf1", "vout": [{"scriptPubKey": {"reqSigs": 1, "hex": "76a914bf3f8ad6bd153ba7bf407661865037bfb7b09c3688ac", "addresses": ["1JSEBe3hmRyb5WK9gRoPrkF3gbBUgt6zxj"], "asm": "OP_DUP OP_HASH160 bf3f8ad6bd153ba7bf407661865037bfb7b09c36 OP_EQUALVERIFY OP_CHECKSIG", "type": "pubkeyhash"}, "value": 0.07817, "n": 0}, {"scriptPubKey": {"reqSigs": 1, "hex": "76a914f2e3b9210b8c7b4e09a51c46f41d3142745e30d488ac", "addresses": ["1P9HKuXEQ3ZXSpTtFf6in4s8HsjaUn9st2"], "asm": "OP_DUP OP_HASH160 f2e3b9210b8c7b4e09a51c46f41d3142745e30d4 OP_EQUALVERIFY OP_CHECKSIG", "type": "pubkeyhash"}, "value": 0.97382508, "n": 1}], "hex": "0100000001218ec9a6a020ba221bd9364d2b85133ae23453f711188649b01c074fb44ab978010000006b483045022100a6f44299267ebcf2fb881ca0d0a6fb7cf9761b56eee0e8d141d6f94b55f6a2fc02202d089a2fc4cae59dba9e42b3e8669f223324179ae42a0ff78bb9c4e86b8242b40121036ec157abb1b0744340a7ad51438822146bb14bd1065882734b3c94653bd92999ffffffff0228477700000000001976a914bf3f8ad6bd153ba7bf407661865037bfb7b09c3688ac6cf0cd05000000001976a914f2e3b9210b8c7b4e09a51c46f41d3142745e30d488ac00000000", "vin": [{"sequence": 4294967295, "scriptSig": {"hex": "483045022100a6f44299267ebcf2fb881ca0d0a6fb7cf9761b56eee0e8d141d6f94b55f6a2fc02202d089a2fc4cae59dba9e42b3e8669f223324179ae42a0ff78bb9c4e86b8242b40121036ec157abb1b0744340a7ad51438822146bb14bd1065882734b3c94653bd92999", "asm": "3045022100a6f44299267ebcf2fb881ca0d0a6fb7cf9761b56eee0e8d141d6f94b55f6a2fc02202d089a2fc4cae59dba9e42b3e8669f223324179ae42a0ff78bb9c4e86b8242b4[ALL] 036ec157abb1b0744340a7ad51438822146bb14bd1065882734b3c94653bd92999"}, "vout": 1, "txid": "78b94ab44f071cb049861811f75334e23a13852b4d36d91b22ba20a0a6c98e21"}], "txid": "c3e8cc0f1dc8956c1ba388c0478b4d047b96ebdccc7e743f7a252494e9e27abb", "blocktime": 1537871767, "version": 1, "confirmations": 11495, "time": 1537871767, "locktime": 0, "vsize": 226, "size": 226}