{"hash": "c3e8e61f371303aec018af5a865abe85573a68fb2fc931ec85937db7a0a178aa", "blockhash": "00000000000000000004ffacab907a6b429b9a5745fa0b75af4234bf69dd7176", "vout": [{"scriptPubKey": {"reqSigs": 1, "hex": "76a9147fe2b324b471ed69fbf4217430c7b37f93611f7a88ac", "addresses": ["1CfCPjsnpQCwsDfNhseuEnP3qrQDbVc2r8"], "asm": "OP_DUP OP_HASH160 7fe2b324b471ed69fbf4217430c7b37f93611f7a OP_EQUALVERIFY OP_CHECKSIG", "type": "pubkeyhash"}, "value": 6.835e-05, "n": 0}, {"scriptPubKey": {"reqSigs": 1, "hex": "a91400b94268a028a14ecd165614498c2649aa8d66a287", "addresses": ["31kqrbMcSxQqt3KRpLWL37EkbDCLSxTxHw"], "asm": "OP_HASH160 00b94268a028a14ecd165614498c2649aa8d66a2 OP_EQUAL", "type": "scripthash"}, "value": 0.04064227, "n": 1}], "hex": "0100000002e5eec7a92b3f8ec6c86b272156986f57893c93190eecc8b477de7be1b97bf949000000006b4830450221009f3c286ddf4bd4940565b1061b139700e3033dc2e2d913cc7d05275084e960c902204354d1b78977431c48b165bc6e6b4557a811e4a72d58ad2a91789831b1063bed012102c85ec486e7bfc7255460425708b477b83d8dc919fcdc5f00e828f9ab57317f05ffffffffbeb20217491261ad06565a14e27c5ac81964bebf20c62a57f49dec9794f5fe7f000000006a47304402203f110a59b77b89146ce994ca621b4abb73d7c6fd9a997ca6a2203fceaedeb74e0220030f6c79752cdea54f91622dc094dd5a45ee77a7205568621f41ef88877f805e012103dde0db7588569db13d456578bb414016e047cbfd322720cbf5f381f0f4f92eafffffffff02b31a0000000000001976a9147fe2b324b471ed69fbf4217430c7b37f93611f7a88ace3033e000000000017a91400b94268a028a14ecd165614498c2649aa8d66a28700000000", "vin": [{"sequence": 4294967295, "scriptSig": {"hex": "4830450221009f3c286ddf4bd4940565b1061b139700e3033dc2e2d913cc7d05275084e960c902204354d1b78977431c48b165bc6e6b4557a811e4a72d58ad2a91789831b1063bed012102c85ec486e7bfc7255460425708b477b83d8dc919fcdc5f00e828f9ab57317f05", "asm": "30450221009f3c286ddf4bd4940565b1061b139700e3033dc2e2d913cc7d05275084e960c902204354d1b78977431c48b165bc6e6b4557a811e4a72d58ad2a91789831b1063bed[ALL] 02c85ec486e7bfc7255460425708b477b83d8dc919fcdc5f00e828f9ab57317f05"}, "vout": 0, "txid": "49f97bb9e17bde77b4c8ec0e19933c89576f985621276bc8c68e3f2ba9c7eee5"}, {"sequence": 4294967295, "scriptSig": {"hex": "47304402203f110a59b77b89146ce994ca621b4abb73d7c6fd9a997ca6a2203fceaedeb74e0220030f6c79752cdea54f91622dc094dd5a45ee77a7205568621f41ef88877f805e012103dde0db7588569db13d456578bb414016e047cbfd322720cbf5f381f0f4f92eaf", "asm": "304402203f110a59b77b89146ce994ca621b4abb73d7c6fd9a997ca6a2203fceaedeb74e0220030f6c79752cdea54f91622dc094dd5a45ee77a7205568621f41ef88877f805e[ALL] 03dde0db7588569db13d456578bb414016e047cbfd322720cbf5f381f0f4f92eaf"}, "vout": 0, "txid": "7ffef59497ec9df4572ac620bfbe6419c85a7ce2145a5606ad6112491702b2be"}], "txid": "c3e8e61f371303aec018af5a865abe85573a68fb2fc931ec85937db7a0a178aa", "blocktime": 1537875543, "version": 1, "confirmations": 11464, "time": 1537875543, "locktime": 0, "vsize": 371, "size": 371}