{"hash": "09eef515bf2260dfdd8242cd4946e028d4a74b1bb527671aeb8fc62158e93302", "blockhash": "0000000000000000000dcc0f55137456b1a82d3642486a52398922ac4d620174", "vout": [{"scriptPubKey": {"reqSigs": 1, "hex": "a9145d7b534827a1e77be8618873abac6fd51d5ee96a87", "addresses": ["3ADJWBF6P9RvBJjtuUsE9c4wAFb6nXqQkz"], "asm": "OP_HASH160 5d7b534827a1e77be8618873abac6fd51d5ee96a OP_EQUAL", "type": "scripthash"}, "value": 0.00043942, "n": 0}, {"scriptPubKey": {"reqSigs": 1, "hex": "0014b0bb34812e84b4f525943d19e3065c938e24f97e", "addresses": ["bc1qkzanfqfwsj602fv585v7xpjujw8zf7t7739kj9"], "asm": "0 b0bb34812e84b4f525943d19e3065c938e24f97e", "type": "witness_v0_keyhash"}, "value": 1.063e-05, "n": 1}], "hex": "01000000000101f3d6ec8901271814a2f492496ece4bbe861c274588867349a82613d1f74a5a44010000001716001486d79c21162709170c41ebc348168969b69bdce3ffffffff02a6ab00000000000017a9145d7b534827a1e77be8618873abac6fd51d5ee96a872704000000000000160014b0bb34812e84b4f525943d19e3065c938e24f97e02483045022100f260cf1f31f1bd1ea74ac5c1bf734d87473402674aea64242f5ff5303d9461a5022061606827c0e975422f18a6a283ff13792e00692ede5096cc97be581249f195be012102cb16e7dea88939495fe94a51507a24331695354aa03e6c046d19b6c3edbd5cf400000000", "vin": [{"txinwitness": ["3045022100f260cf1f31f1bd1ea74ac5c1bf734d87473402674aea64242f5ff5303d9461a5022061606827c0e975422f18a6a283ff13792e00692ede5096cc97be581249f195be01", "02cb16e7dea88939495fe94a51507a24331695354aa03e6c046d19b6c3edbd5cf4"], "sequence": 4294967295, "scriptSig": {"hex": "16001486d79c21162709170c41ebc348168969b69bdce3", "asm": "001486d79c21162709170c41ebc348168969b69bdce3"}, "vout": 1, "txid": "445a4af7d11326a84973868845271c86be4bce6e4992f4a21418270189ecd6f3"}], "txid": "c3ea261e36623ef6455d8ab3a6f59d6b277ba1c579ecae047e858fb2e88960d6", "blocktime": 1537870268, "version": 1, "confirmations": 11518, "time": 1537870268, "locktime": 0, "vsize": 165, "size": 247}