{"hash": "c3eafebc9b34b39fddef70f26cd6e50cd614b83b616e21c827752806c182232a", "blockhash": "0000000000000000001f0ddff1eddb255c1121bcd4da4f1bc9a0da00cae72433", "vout": [{"scriptPubKey": {"reqSigs": 1, "hex": "76a914460996ea0a025ea335a79dba836d2cce9ef1f1c488ac", "addresses": ["17PKnihHT2zQnRMNNuQwKwPGBzameNfJNm"], "asm": "OP_DUP OP_HASH160 460996ea0a025ea335a79dba836d2cce9ef1f1c4 OP_EQUALVERIFY OP_CHECKSIG", "type": "pubkeyhash"}, "value": 0.0075959, "n": 0}, {"scriptPubKey": {"reqSigs": 1, "hex": "0014caa8335b59d977ff79e47d56474a64761f44190a", "addresses": ["bc1qe25rxk6em9ml770y04tywjnywc05gxg2v9yqua"], "asm": "0 caa8335b59d977ff79e47d56474a64761f44190a", "type": "witness_v0_keyhash"}, "value": 0.00039625, "n": 1}], "hex": "0100000001a36ad8d990af46f853945fb2ae8602f62293c613e052d3bccf6ccbfacdf56aef000000006a47304402206b5031fd68fc3472cdbca954a15dad81a090be580f44ee49965f9c00a45f2d3e0220174c2cfc262164d5342ed78de59112f5af8529fc3fc002fca9c715c058d03107012103737fe75a5f72b01619b62e599f74b452e274c451fa97e285265b861c2dca2efeffffffff0226970b00000000001976a914460996ea0a025ea335a79dba836d2cce9ef1f1c488acc99a000000000000160014caa8335b59d977ff79e47d56474a64761f44190a00000000", "vin": [{"sequence": 4294967295, "scriptSig": {"hex": "47304402206b5031fd68fc3472cdbca954a15dad81a090be580f44ee49965f9c00a45f2d3e0220174c2cfc262164d5342ed78de59112f5af8529fc3fc002fca9c715c058d03107012103737fe75a5f72b01619b62e599f74b452e274c451fa97e285265b861c2dca2efe", "asm": "304402206b5031fd68fc3472cdbca954a15dad81a090be580f44ee49965f9c00a45f2d3e0220174c2cfc262164d5342ed78de59112f5af8529fc3fc002fca9c715c058d03107[ALL] 03737fe75a5f72b01619b62e599f74b452e274c451fa97e285265b861c2dca2efe"}, "vout": 0, "txid": "ef6af5cdfacb6ccfbcd352e013c69322f60286aeb25f9453f846af90d9d86aa3"}], "txid": "c3eafebc9b34b39fddef70f26cd6e50cd614b83b616e21c827752806c182232a", "blocktime": 1537872018, "version": 1, "confirmations": 11489, "time": 1537872018, "locktime": 0, "vsize": 222, "size": 222}