{"hash": "fc640e268ff24f90608a2d2c2d5e430b18657d5a9413e01aabf4f186ec29f39e", "blockhash": "0000000000000000001e0dab787dd257d1dbfcb92a98c2207d5e1078be1f4165", "vout": [{"scriptPubKey": {"reqSigs": 1, "hex": "a914b080a2936d45f116e62b9a43c792d794021539c487", "addresses": ["3HnGx2W6iQvL8jvK2BofEyYVJacD2MinDe"], "asm": "OP_HASH160 b080a2936d45f116e62b9a43c792d794021539c4 OP_EQUAL", "type": "scripthash"}, "value": 4.32755579, "n": 0}, {"scriptPubKey": {"reqSigs": 1, "hex": "76a914a8e3c1f17bb8fb201d88ce655d5ca7472d9de5b888ac", "addresses": ["1GQ1N6wLvtVBGjx6oJyG5Ywvt4PJ1dXZY2"], "asm": "OP_DUP OP_HASH160 a8e3c1f17bb8fb201d88ce655d5ca7472d9de5b8 OP_EQUALVERIFY OP_CHECKSIG", "type": "pubkeyhash"}, "value": 0.002, "n": 1}], "hex": "02000000000101a610c7202404775a2b8064c62727e7e27549b28dc185bfa1ffb8ccd31bdd8dd701000000171600147744dea192606cc0bf8d378eb01491e30a208f15feffffff027b53cb190000000017a914b080a2936d45f116e62b9a43c792d794021539c487400d0300000000001976a914a8e3c1f17bb8fb201d88ce655d5ca7472d9de5b888ac0247304402205b665e96f9ad56cad9ffb7de78d69ea8ef15023936a194d5453dceb1ec79832302205cd1d715e3112ba562fcb7daf8c4aa822a3cc1e712758cffac445986d3ef11cb012102ef93308b976f3f9686e364dec3b51879a0e442c3d56002f696104e5144ccd19b12490800", "vin": [{"txinwitness": ["304402205b665e96f9ad56cad9ffb7de78d69ea8ef15023936a194d5453dceb1ec79832302205cd1d715e3112ba562fcb7daf8c4aa822a3cc1e712758cffac445986d3ef11cb01", "02ef93308b976f3f9686e364dec3b51879a0e442c3d56002f696104e5144ccd19b"], "sequence": 4294967294, "scriptSig": {"hex": "1600147744dea192606cc0bf8d378eb01491e30a208f15", "asm": "00147744dea192606cc0bf8d378eb01491e30a208f15"}, "vout": 1, "txid": "d78ddd1bd3ccb8ffa1bf85c18db24975e2e72727c664802b5a77042420c710a6"}], "txid": "c3eb885d981d258036033ccc6a38b0c9c28ef9aca05c18e6004c30ff79ce1403", "blocktime": 1537872475, "version": 2, "confirmations": 11486, "time": 1537872475, "locktime": 542994, "vsize": 168, "size": 249}