{"hash": "c3ed144c2f7b3e3f27e66ffdac2135c6fe51486c11b93de1596d48fb2f1e34e7", "blockhash": "0000000000000000000baef3f32e3676a92c3b2e5da21b426e4f302fc371ce76", "vout": [{"scriptPubKey": {"reqSigs": 1, "hex": "76a914772d7f802c8e3aa8c885d850bc9d05fce333113a88ac", "addresses": ["1Bs9v666byzMskFkexrG2b5H3Rafz2ywto"], "asm": "OP_DUP OP_HASH160 772d7f802c8e3aa8c885d850bc9d05fce333113a OP_EQUALVERIFY OP_CHECKSIG", "type": "pubkeyhash"}, "value": 0.00123384, "n": 0}, {"scriptPubKey": {"type": "nulldata", "hex": "6a4c50000078030001a99ec61c5201a28268bddf0c702940d64fa54d8eb2d19ed074892d00f8e815cbf327745e21a685d95b10283cbb475baa1a510613761282ee025fbc9a9526289ac0f6612cd74e33776ee4", "asm": "OP_RETURN 000078030001a99ec61c5201a28268bddf0c702940d64fa54d8eb2d19ed074892d00f8e815cbf327745e21a685d95b10283cbb475baa1a510613761282ee025fbc9a9526289ac0f6612cd74e33776ee4"}, "value": 0.0, "n": 1}], "hex": "010000000185c06052fdb50eaa65d06c3254a117b7527c6c6d4cef4ef23cc31220c99c3f4b010000006a473044022067cfe695a3b0dcd950acbce60f40e87b1842cbe5c4708a92c92ab938a9e1bbf5022046b1c12812872bdd147e73eea89a34bd416226525699a9f2830a2072c17f8e900121030fc3580ac033a357919a7f184a78733a0f6dcb546bc763dbb6cccca10574f464ffffffff02f8e10100000000001976a914772d7f802c8e3aa8c885d850bc9d05fce333113a88ac0000000000000000536a4c50000078030001a99ec61c5201a28268bddf0c702940d64fa54d8eb2d19ed074892d00f8e815cbf327745e21a685d95b10283cbb475baa1a510613761282ee025fbc9a9526289ac0f6612cd74e33776ee400000000", "vin": [{"sequence": 4294967295, "scriptSig": {"hex": "473044022067cfe695a3b0dcd950acbce60f40e87b1842cbe5c4708a92c92ab938a9e1bbf5022046b1c12812872bdd147e73eea89a34bd416226525699a9f2830a2072c17f8e900121030fc3580ac033a357919a7f184a78733a0f6dcb546bc763dbb6cccca10574f464", "asm": "3044022067cfe695a3b0dcd950acbce60f40e87b1842cbe5c4708a92c92ab938a9e1bbf5022046b1c12812872bdd147e73eea89a34bd416226525699a9f2830a2072c17f8e90[ALL] 030fc3580ac033a357919a7f184a78733a0f6dcb546bc763dbb6cccca10574f464"}, "vout": 1, "txid": "4b3f9cc92012c33cf24eef4c6d6c7c52b717a154326cd065aa0eb5fd5260c085"}], "txid": "c3ed144c2f7b3e3f27e66ffdac2135c6fe51486c11b93de1596d48fb2f1e34e7", "blocktime": 1537876114, "version": 1, "confirmations": 11460, "time": 1537876114, "locktime": 0, "vsize": 283, "size": 283}