{"hash": "c3ee52d0a29ae76a7aa06ba0d7d093f5483f5a092224c7947341e8aeec3c6a33", "blockhash": "00000000000000000017f5eb5941039fbcee6240d03bc1f2f8e35350df66a1d8", "vout": [{"scriptPubKey": {"reqSigs": 1, "hex": "a91419a4d7ffd0de9546463f67aa4412858a9f36ae3187", "addresses": ["342cHtDZytT6d3Puq2gVvwtHHmMJ9KYnVJ"], "asm": "OP_HASH160 19a4d7ffd0de9546463f67aa4412858a9f36ae31 OP_EQUAL", "type": "scripthash"}, "value": 0.87694113, "n": 0}, {"scriptPubKey": {"reqSigs": 1, "hex": "76a914ed95dd8f2f4fffaecb2d776460271c1c6196f22f88ac", "addresses": ["1NfEgJLe7ynsmakFQhvQ3neZN7CazhXi41"], "asm": "OP_DUP OP_HASH160 ed95dd8f2f4fffaecb2d776460271c1c6196f22f OP_EQUALVERIFY OP_CHECKSIG", "type": "pubkeyhash"}, "value": 0.05928589, "n": 1}], "hex": "0100000002b5c95e903ab4f066896a6501f719bda16600a123186f4100883a482d33d296a300000000db00483045022100c9486ed17d2cbf090b427019ae62757aca3791b69729bf629cd2213bddfc00ee022032bc415bdf4a2d102be88b261ed948d1c14e546196cc4d4fddfc0ea3a80e2cc1014830450221008dedad3fe410365d6791d3e83846a9d469643e8fd5ebd7a6f1100a48a43dcab90220195b6c71217401bca0ff388b6c950cd5a454834824f4f34d836bd750c765cf3a0147522102907a54bed8ad74b3f35638c60114ca240a308cb986f3f2f306178869a8880b61210368956e1694184ae168b2aa04bbebe2f21d973177753a460da524f9635176579c52aeffffffffdf0d2c27f6f0c1152843720df515119e2f82e55fb65b13a289f7d083947ddc6300000000d90047304402204d77a96dca1ed1dc74025b44fbff4495fb1a8b0be10f0f6a0e68187920fe0a1102201399b139194c4ac60a8a7d67dc719d0d194731f6b573028eb22c6d4289c333180147304402204bacf60678680e27272be5264a5db4e9c123edd72a31001cbf1dbae25c30d2f1022078a4846157a8b5d691e388c24725182e36d52e3857a95e1cb6b1d1156e39485f0147522102148db7a6d69a4ad705bc9a89d7fee926331baeb1656369a1a1a5c583d0fae58c2102907a54bed8ad74b3f35638c60114ca240a308cb986f3f2f306178869a8880b6152aeffffffff02211b3a050000000017a91419a4d7ffd0de9546463f67aa4412858a9f36ae31878d765a00000000001976a914ed95dd8f2f4fffaecb2d776460271c1c6196f22f88ac00000000", "vin": [{"sequence": 4294967295, "scriptSig": {"hex": "00483045022100c9486ed17d2cbf090b427019ae62757aca3791b69729bf629cd2213bddfc00ee022032bc415bdf4a2d102be88b261ed948d1c14e546196cc4d4fddfc0ea3a80e2cc1014830450221008dedad3fe410365d6791d3e83846a9d469643e8fd5ebd7a6f1100a48a43dcab90220195b6c71217401bca0ff388b6c950cd5a454834824f4f34d836bd750c765cf3a0147522102907a54bed8ad74b3f35638c60114ca240a308cb986f3f2f306178869a8880b61210368956e1694184ae168b2aa04bbebe2f21d973177753a460da524f9635176579c52ae", "asm": "0 3045022100c9486ed17d2cbf090b427019ae62757aca3791b69729bf629cd2213bddfc00ee022032bc415bdf4a2d102be88b261ed948d1c14e546196cc4d4fddfc0ea3a80e2cc1[ALL] 30450221008dedad3fe410365d6791d3e83846a9d469643e8fd5ebd7a6f1100a48a43dcab90220195b6c71217401bca0ff388b6c950cd5a454834824f4f34d836bd750c765cf3a[ALL] 522102907a54bed8ad74b3f35638c60114ca240a308cb986f3f2f306178869a8880b61210368956e1694184ae168b2aa04bbebe2f21d973177753a460da524f9635176579c52ae"}, "vout": 0, "txid": "a396d2332d483a8800416f1823a10066a1bd19f701656a8966f0b43a905ec9b5"}, {"sequence": 4294967295, "scriptSig": {"hex": "0047304402204d77a96dca1ed1dc74025b44fbff4495fb1a8b0be10f0f6a0e68187920fe0a1102201399b139194c4ac60a8a7d67dc719d0d194731f6b573028eb22c6d4289c333180147304402204bacf60678680e27272be5264a5db4e9c123edd72a31001cbf1dbae25c30d2f1022078a4846157a8b5d691e388c24725182e36d52e3857a95e1cb6b1d1156e39485f0147522102148db7a6d69a4ad705bc9a89d7fee926331baeb1656369a1a1a5c583d0fae58c2102907a54bed8ad74b3f35638c60114ca240a308cb986f3f2f306178869a8880b6152ae", "asm": "0 304402204d77a96dca1ed1dc74025b44fbff4495fb1a8b0be10f0f6a0e68187920fe0a1102201399b139194c4ac60a8a7d67dc719d0d194731f6b573028eb22c6d4289c33318[ALL] 304402204bacf60678680e27272be5264a5db4e9c123edd72a31001cbf1dbae25c30d2f1022078a4846157a8b5d691e388c24725182e36d52e3857a95e1cb6b1d1156e39485f[ALL] 522102148db7a6d69a4ad705bc9a89d7fee926331baeb1656369a1a1a5c583d0fae58c2102907a54bed8ad74b3f35638c60114ca240a308cb986f3f2f306178869a8880b6152ae"}, "vout": 0, "txid": "63dc7d9483d0f789a2135bb65fe5822f9e1115f50d72432815c1f0f6272c0ddf"}], "txid": "c3ee52d0a29ae76a7aa06ba0d7d093f5483f5a092224c7947341e8aeec3c6a33", "blocktime": 1537874412, "version": 1, "confirmations": 11467, "time": 1537874412, "locktime": 0, "vsize": 594, "size": 594}