{"hash": "56bcaba04ee1c43e48f5f4d78d5a3a11a9890958ec0bb0e20385a3d625635ca0", "blockhash": "000000000000000000022b45ed06c6f4ccd3cf7fb5ba4856ebd2e58215665228", "vout": [{"scriptPubKey": {"reqSigs": 1, "hex": "76a914f49d30075d483baf8d35986cbbd9a54618e3ff8988ac", "addresses": ["1PJQBPpPigCstS84xv9AGgMwdZT1EKQcFp"], "asm": "OP_DUP OP_HASH160 f49d30075d483baf8d35986cbbd9a54618e3ff89 OP_EQUALVERIFY OP_CHECKSIG", "type": "pubkeyhash"}, "value": 0.136, "n": 0}, {"scriptPubKey": {"reqSigs": 1, "hex": "a9144fd8a38fbc7ea2d2af09ea930cbcfd17c353ba8687", "addresses": ["38yCq2v7gHd6KEVPZrrASm3zpNZLEkph3Q"], "asm": "OP_HASH160 4fd8a38fbc7ea2d2af09ea930cbcfd17c353ba86 OP_EQUAL", "type": "scripthash"}, "value": 0.00064034, "n": 1}], "hex": "010000000001026b6e294fabbd3e23bdfa046c9e71d0f5ff862fcb9c2a4b15ce9e0109f4a0869001000000171600146767308db32b029106a885c4717fb0398b4f8b07ffffffff21f050976e761cf812dd95dbd53eaef0844880786d141ad224feeed71142c779000000001716001443043b420ae86d40d8e3b6f24740cf0b6822bab3ffffffff020085cf00000000001976a914f49d30075d483baf8d35986cbbd9a54618e3ff8988ac22fa00000000000017a9144fd8a38fbc7ea2d2af09ea930cbcfd17c353ba868702483045022100bd7985466895f66c809d8e039aa6adffba70f19adf14bf8ed388958e5ea013d00220092513bd0fdf95fc6182cbfb9b8e82b3515d722ef10a84b61855246b3049cbda012103b85b9d6f1258a668460121a25c8d3b6455aedd26edcf21151b1e11f952b3ac620248304502210094dd4b4a4eef7e9ca35c7896da121b81b355e87ef4edd90550c1806a1776eb6002201b07aa0516589ef2c57401938199ec75cfee081ac8b9bf6959aad37fe6fd7673012102f7c53278b138a2b3a5fe487da96a87b6a91667ef02f297bf802d4db32a564c8900000000", "vin": [{"txinwitness": ["3045022100bd7985466895f66c809d8e039aa6adffba70f19adf14bf8ed388958e5ea013d00220092513bd0fdf95fc6182cbfb9b8e82b3515d722ef10a84b61855246b3049cbda01", "03b85b9d6f1258a668460121a25c8d3b6455aedd26edcf21151b1e11f952b3ac62"], "sequence": 4294967295, "scriptSig": {"hex": "1600146767308db32b029106a885c4717fb0398b4f8b07", "asm": "00146767308db32b029106a885c4717fb0398b4f8b07"}, "vout": 1, "txid": "9086a0f409019ece154b2a9ccb2f86fff5d0719e6c04fabd233ebdab4f296e6b"}, {"txinwitness": ["304502210094dd4b4a4eef7e9ca35c7896da121b81b355e87ef4edd90550c1806a1776eb6002201b07aa0516589ef2c57401938199ec75cfee081ac8b9bf6959aad37fe6fd767301", "02f7c53278b138a2b3a5fe487da96a87b6a91667ef02f297bf802d4db32a564c89"], "sequence": 4294967295, "scriptSig": {"hex": "16001443043b420ae86d40d8e3b6f24740cf0b6822bab3", "asm": "001443043b420ae86d40d8e3b6f24740cf0b6822bab3"}, "vout": 0, "txid": "79c74211d7eefe24d21a146d78804884f0ae3ed5db95dd12f81c766e9750f021"}], "txid": "c3f0bd9b65bf7d3f52d2c6e1aed2bd021ee4838f32869a30bf0b129e081faee3", "blocktime": 1537869901, "version": 1, "confirmations": 11522, "time": 1537869901, "locktime": 0, "vsize": 259, "size": 422}