{"hash": "34c6169e976bc6947822104b61bbd30d312d2a250c8bf471c390ea15884d8024", "blockhash": "0000000000000000001f76057863aec43deb6fa401d9628bb513d65a8098bfab", "vout": [{"scriptPubKey": {"reqSigs": 1, "hex": "a91495ad4e355b6027ad54b1abcc766ebbcfc9c46b3f87", "addresses": ["3FLSDbyahBUb4MMgXuk7RQAJkUf32KYTuZ"], "asm": "OP_HASH160 95ad4e355b6027ad54b1abcc766ebbcfc9c46b3f OP_EQUAL", "type": "scripthash"}, "value": 0.0133772, "n": 0}, {"scriptPubKey": {"reqSigs": 1, "hex": "76a914776b878b416e3129310d3878d5e2941dc740b4a888ac", "addresses": ["1BtSE7AXX5RuRRcnbhiM3qBwMhEYwxqBsm"], "asm": "OP_DUP OP_HASH160 776b878b416e3129310d3878d5e2941dc740b4a8 OP_EQUALVERIFY OP_CHECKSIG", "type": "pubkeyhash"}, "value": 0.99985, "n": 1}], "hex": "02000000000102a9d4756187c9552be8cbabdbae3749fb87c8bb6330af8841d9b0dd0e7aa05a1e0000000017160014c6353250ba111e435474ecc277cfeb3801931320fdffffffc3fa439a8808a422be4d2d204df6ec948c518b6014138aa1fe98aa034545ff020000000017160014a340c90b932f7707121a8f2854c681117d946db6fdffffff02786914000000000017a91495ad4e355b6027ad54b1abcc766ebbcfc9c46b3f8768a6f505000000001976a914776b878b416e3129310d3878d5e2941dc740b4a888ac02483045022100a7c9f3f36aec96f53feee3b18f8200e07f9cc2577f677e6eb4923e15e4af17a302203c8544bd652a5ab6b3c09618fd48bd4128da506ff39e14c528f8e6686908915e012102933d1ede449298383c5cc2ed171aa42e678f4118d3c115d869684b7d10946e9d024830450221009475026630396b41aebf19e3a9529520f4e4bb8a67460057638920a43031c5720220713fc9495f35bf66ae01716263032c8f1c6d0d018e26dab31e7bf8eb81df317e012103bcab7017ea158ff498bf1ef7beda98767117f556a3ae6e3d62fd9b5ba112ed1d14490800", "vin": [{"txinwitness": ["3045022100a7c9f3f36aec96f53feee3b18f8200e07f9cc2577f677e6eb4923e15e4af17a302203c8544bd652a5ab6b3c09618fd48bd4128da506ff39e14c528f8e6686908915e01", "02933d1ede449298383c5cc2ed171aa42e678f4118d3c115d869684b7d10946e9d"], "sequence": 4294967293, "scriptSig": {"hex": "160014c6353250ba111e435474ecc277cfeb3801931320", "asm": "0014c6353250ba111e435474ecc277cfeb3801931320"}, "vout": 0, "txid": "1e5aa07a0eddb0d94188af3063bbc887fb4937aedbabcbe82b55c9876175d4a9"}, {"txinwitness": ["30450221009475026630396b41aebf19e3a9529520f4e4bb8a67460057638920a43031c5720220713fc9495f35bf66ae01716263032c8f1c6d0d018e26dab31e7bf8eb81df317e01", "03bcab7017ea158ff498bf1ef7beda98767117f556a3ae6e3d62fd9b5ba112ed1d"], "sequence": 4294967293, "scriptSig": {"hex": "160014a340c90b932f7707121a8f2854c681117d946db6", "asm": "0014a340c90b932f7707121a8f2854c681117d946db6"}, "vout": 0, "txid": "02ff454503aa98fea18a1314608b518c94ecf64d202d4dbe22a408889a43fac3"}], "txid": "c3f91827cac92f3634daa5884279805bb5f045ea85b11531298c49175630d27f", "blocktime": 1537873891, "version": 2, "confirmations": 11474, "time": 1537873891, "locktime": 542996, "vsize": 259, "size": 422}