{"hash": "c3faa6f2086a22675f272404fcedc3e919a31047cde425cd71c536ae3e4c825e", "blockhash": "00000000000000000024a2167bbff67b0be802c0b01cdd79e6331c2be6459f87", "vout": [{"scriptPubKey": {"reqSigs": 1, "hex": "a914b2829ed047b2c650cbe39a37dd0b09a7cfe0cc2f87", "addresses": ["3HxtgMMJAizfF5fGXgScWchRpjMUwEciNS"], "asm": "OP_HASH160 b2829ed047b2c650cbe39a37dd0b09a7cfe0cc2f OP_EQUAL", "type": "scripthash"}, "value": 3.0, "n": 0}, {"scriptPubKey": {"reqSigs": 1, "hex": "76a914c5d01386661bb10520118e4228242e0877127f2c88ac", "addresses": ["1K2wPBdTyk4wAYWf9TX1fCzaYxhkgYq84D"], "asm": "OP_DUP OP_HASH160 c5d01386661bb10520118e4228242e0877127f2c OP_EQUALVERIFY OP_CHECKSIG", "type": "pubkeyhash"}, "value": 7.52332854, "n": 1}], "hex": "01000000042f24b51a8e8de25636015859b1b1c7c26291c90ae3c3ccb6372d156894252466010000006a47304402202aea03164c73cd7c4d174a323b64c3c67c493e475c64868a98af29568f5e2ff9022006f1130f5304b379cc8e4e75288443d72c1889bf3420bd203ef3dd2c30ec2165012102124590b1261ac284b82d029919a26e4a651b57c6e3997581197c3b71db6eae4efffffffff93200a18747c46c276e90ba221f8ff466e4de19544a82f54d38fd1d7ab5fd3e000000006a473044022073fcdf17c11a309250863ceef1c15e3a6e4f8faf3658ed84909349d8cbc2a34a022028fbdb4835bcf0f918f5302215700c0883660f9cad14c8e4869a152690d242dc01210366b355c335f88f98dbab045e295cc88b0aa31cb3c5752c40bd249f1d9177cca8ffffffff6aed89f9b5144b3b6e3db9bea018f3011b2f2671b3970d9e7b426d051931f5af010000006b4830450221008b5e421c17a0ec1d8d6a561c9cd29acf2d77e549caee3553e8d5c8a4ad7a156102205ac24206c4d5c97318516f5cfb63e8ed3556107375128d6256488724eb18060b0121026223ffbcfb4153a6c0e08758cad2ce5d06793caff6e7a8b272d89cdee7c54343ffffffff7a6feac5fe91a7fbed915398f114f0a58667e1fe5105f54ff73a0d45c9fda961010000006b483045022100d37883d1da14d702814534f063d8e80a47e16071f7f2e9ef069f48bd5b91c94d022034fb6cbf050ee5fc888faade3132904eee41751b6ff105ede8408b2196f6a47b0121038b849fcac10d3c3368ff7d8ef9ef5df38a6c028a1e84697b4fa198243fc0ececffffffff0200a3e1110000000017a914b2829ed047b2c650cbe39a37dd0b09a7cfe0cc2f8736b0d72c000000001976a914c5d01386661bb10520118e4228242e0877127f2c88ac00000000", "vin": [{"sequence": 4294967295, "scriptSig": {"hex": "47304402202aea03164c73cd7c4d174a323b64c3c67c493e475c64868a98af29568f5e2ff9022006f1130f5304b379cc8e4e75288443d72c1889bf3420bd203ef3dd2c30ec2165012102124590b1261ac284b82d029919a26e4a651b57c6e3997581197c3b71db6eae4e", "asm": "304402202aea03164c73cd7c4d174a323b64c3c67c493e475c64868a98af29568f5e2ff9022006f1130f5304b379cc8e4e75288443d72c1889bf3420bd203ef3dd2c30ec2165[ALL] 02124590b1261ac284b82d029919a26e4a651b57c6e3997581197c3b71db6eae4e"}, "vout": 1, "txid": "6624259468152d37b6ccc3e30ac99162c2c7b1b15958013656e28d8e1ab5242f"}, {"sequence": 4294967295, "scriptSig": {"hex": "473044022073fcdf17c11a309250863ceef1c15e3a6e4f8faf3658ed84909349d8cbc2a34a022028fbdb4835bcf0f918f5302215700c0883660f9cad14c8e4869a152690d242dc01210366b355c335f88f98dbab045e295cc88b0aa31cb3c5752c40bd249f1d9177cca8", "asm": "3044022073fcdf17c11a309250863ceef1c15e3a6e4f8faf3658ed84909349d8cbc2a34a022028fbdb4835bcf0f918f5302215700c0883660f9cad14c8e4869a152690d242dc[ALL] 0366b355c335f88f98dbab045e295cc88b0aa31cb3c5752c40bd249f1d9177cca8"}, "vout": 0, "txid": "3efdb57a1dfd384df5824a5419dee466f48f1f22ba906e276cc44787a10032f9"}, {"sequence": 4294967295, "scriptSig": {"hex": "4830450221008b5e421c17a0ec1d8d6a561c9cd29acf2d77e549caee3553e8d5c8a4ad7a156102205ac24206c4d5c97318516f5cfb63e8ed3556107375128d6256488724eb18060b0121026223ffbcfb4153a6c0e08758cad2ce5d06793caff6e7a8b272d89cdee7c54343", "asm": "30450221008b5e421c17a0ec1d8d6a561c9cd29acf2d77e549caee3553e8d5c8a4ad7a156102205ac24206c4d5c97318516f5cfb63e8ed3556107375128d6256488724eb18060b[ALL] 026223ffbcfb4153a6c0e08758cad2ce5d06793caff6e7a8b272d89cdee7c54343"}, "vout": 1, "txid": "aff53119056d427b9e0d97b371262f1b01f318a0beb93d6e3b4b14b5f989ed6a"}, {"sequence": 4294967295, "scriptSig": {"hex": "483045022100d37883d1da14d702814534f063d8e80a47e16071f7f2e9ef069f48bd5b91c94d022034fb6cbf050ee5fc888faade3132904eee41751b6ff105ede8408b2196f6a47b0121038b849fcac10d3c3368ff7d8ef9ef5df38a6c028a1e84697b4fa198243fc0ecec", "asm": "3045022100d37883d1da14d702814534f063d8e80a47e16071f7f2e9ef069f48bd5b91c94d022034fb6cbf050ee5fc888faade3132904eee41751b6ff105ede8408b2196f6a47b[ALL] 038b849fcac10d3c3368ff7d8ef9ef5df38a6c028a1e84697b4fa198243fc0ecec"}, "vout": 1, "txid": "61a9fdc9450d3af74ff50551fee16786a5f014f1985391edfba791fec5ea6f7a"}], "txid": "c3faa6f2086a22675f272404fcedc3e919a31047cde425cd71c536ae3e4c825e", "blocktime": 1537870564, "version": 1, "confirmations": 11515, "time": 1537870564, "locktime": 0, "vsize": 666, "size": 666}