{"hash": "c402aaabb1ef14be3c7c8e5bcfa3aaeb284cec28e8e63350c165494112f80655", "blockhash": "00000000000000000004ffacab907a6b429b9a5745fa0b75af4234bf69dd7176", "vout": [{"scriptPubKey": {"reqSigs": 1, "hex": "76a9143100f832c0b599b27601e9ba715269596aafa6ba88ac", "addresses": ["15U7GmHB65zQW8zvatJB3Ug1SaebLVLk9H"], "asm": "OP_DUP OP_HASH160 3100f832c0b599b27601e9ba715269596aafa6ba OP_EQUALVERIFY OP_CHECKSIG", "type": "pubkeyhash"}, "value": 0.01169466, "n": 0}], "hex": "01000000010854988e7220a145714d753a323d2840d83b33f52c911b983ee0f4b2e41aa740000000006a47304402204794ca4e8549bcd7c08f8c2e992fc1ea31678b2153a4c5cc8c91e03ed6f949660220622338e6b4fe8d3030bbe87822ad3453ec74acb428bf08e3c607d9d656eb7838012102ee6f6b3250655c92e8d2ce1150c4d9057ac52e2ae49c8466e96134832406c2abffffffff013ad81100000000001976a9143100f832c0b599b27601e9ba715269596aafa6ba88ac00000000", "vin": [{"sequence": 4294967295, "scriptSig": {"hex": "47304402204794ca4e8549bcd7c08f8c2e992fc1ea31678b2153a4c5cc8c91e03ed6f949660220622338e6b4fe8d3030bbe87822ad3453ec74acb428bf08e3c607d9d656eb7838012102ee6f6b3250655c92e8d2ce1150c4d9057ac52e2ae49c8466e96134832406c2ab", "asm": "304402204794ca4e8549bcd7c08f8c2e992fc1ea31678b2153a4c5cc8c91e03ed6f949660220622338e6b4fe8d3030bbe87822ad3453ec74acb428bf08e3c607d9d656eb7838[ALL] 02ee6f6b3250655c92e8d2ce1150c4d9057ac52e2ae49c8466e96134832406c2ab"}, "vout": 0, "txid": "40a71ae4b2f4e03e981b912cf5333bd840283d323a754d7145a120728e985408"}], "txid": "c402aaabb1ef14be3c7c8e5bcfa3aaeb284cec28e8e63350c165494112f80655", "blocktime": 1537875543, "version": 1, "confirmations": 11464, "time": 1537875543, "locktime": 0, "vsize": 191, "size": 191}