{"hash": "39d20fd40af436c4f838fb43329a23d4d0c4e405efbff2bebc98563778161447", "blockhash": "0000000000000000000e13cef7c366c0283d82e591d1acd082e914b08063cdf1", "vout": [{"scriptPubKey": {"reqSigs": 1, "hex": "a91469f3748dba8eb893b1d9aa5cd6760e78bb2b16e487", "addresses": ["3BMEXFo35As6sHJWYZS87xoavZisK8mVDQ"], "asm": "OP_HASH160 69f3748dba8eb893b1d9aa5cd6760e78bb2b16e4 OP_EQUAL", "type": "scripthash"}, "value": 0.04092929, "n": 0}, {"scriptPubKey": {"reqSigs": 1, "hex": "001499cdaaac4def1e3eda1a4a6b27fe2527270f1a30", "addresses": ["bc1qn8x64tzdau0raks6ff4j0l39yuns7x3sm5yfcc"], "asm": "0 99cdaaac4def1e3eda1a4a6b27fe2527270f1a30", "type": "witness_v0_keyhash"}, "value": 0.00513324, "n": 1}], "hex": "01000000000101cbbbbc5e0963748ba86d7ffa32beb1bf1e991f0c4e69c47364d9521fe7d7168b000000001716001423c3a2ae5b4d9a309e78817ef77e71a046532670ffffffff0201743e000000000017a91469f3748dba8eb893b1d9aa5cd6760e78bb2b16e4872cd507000000000016001499cdaaac4def1e3eda1a4a6b27fe2527270f1a3002473044022042579d6997cb8c8ff5102276e4c1d18011b32d3ef5f3ec85ce245f406c9cac5002203f84bef183c419f356ae60379ed9330991a15a2bc1955fd74f89c75ca829eaee012103890d84168c31b16a10ce576d80eeeefc1496ed330d772ade60fb19298816a6e000000000", "vin": [{"txinwitness": ["3044022042579d6997cb8c8ff5102276e4c1d18011b32d3ef5f3ec85ce245f406c9cac5002203f84bef183c419f356ae60379ed9330991a15a2bc1955fd74f89c75ca829eaee01", "03890d84168c31b16a10ce576d80eeeefc1496ed330d772ade60fb19298816a6e0"], "sequence": 4294967295, "scriptSig": {"hex": "16001423c3a2ae5b4d9a309e78817ef77e71a046532670", "asm": "001423c3a2ae5b4d9a309e78817ef77e71a046532670"}, "vout": 0, "txid": "8b16d7e71f52d96473c4694e0c1f991ebfb1be32fa7f6da88b7463095ebcbbcb"}], "txid": "c403f14aac7cbcc42a004a1a3574958ac7b9f6cb55cba1699ee5c5b86c888588", "blocktime": 1537871767, "version": 1, "confirmations": 11495, "time": 1537871767, "locktime": 0, "vsize": 165, "size": 246}