{"hash": "c417fe3c8f45d7f093d9cdd622ab298d49211c50897e06454ff22726b473db71", "blockhash": "0000000000000000001f76057863aec43deb6fa401d9628bb513d65a8098bfab", "vout": [{"scriptPubKey": {"reqSigs": 1, "hex": "76a9147b9ee53904cbbdfa2e907986aa8de18adb05e9f488ac", "addresses": ["1CGeTqnhfMRYUy5GifmuPWWxBc4UteVvz3"], "asm": "OP_DUP OP_HASH160 7b9ee53904cbbdfa2e907986aa8de18adb05e9f4 OP_EQUALVERIFY OP_CHECKSIG", "type": "pubkeyhash"}, "value": 0.02997663, "n": 0}, {"scriptPubKey": {"reqSigs": 1, "hex": "76a914dd0d7a31131d5e3ddc5734e2f8c2fed8f05e632b88ac", "addresses": ["1M9pUpF5YCawFvgWwyAEgDeJkeknPDf6wi"], "asm": "OP_DUP OP_HASH160 dd0d7a31131d5e3ddc5734e2f8c2fed8f05e632b OP_EQUALVERIFY OP_CHECKSIG", "type": "pubkeyhash"}, "value": 0.01197729, "n": 1}, {"scriptPubKey": {"reqSigs": 1, "hex": "76a9146ee799541a0031bf86e3f743d8af44414092f1d388ac", "addresses": ["1B7Qmsuq4G5TvCTWA63zGWRMVXY9H6FchL"], "asm": "OP_DUP OP_HASH160 6ee799541a0031bf86e3f743d8af44414092f1d3 OP_EQUALVERIFY OP_CHECKSIG", "type": "pubkeyhash"}, "value": 0.4, "n": 2}, {"scriptPubKey": {"reqSigs": 1, "hex": "76a9144a81cf9fce3e94eadd1749d24cccdc79f28a91ff88ac", "addresses": ["17nxWdCSE6c2yD9ST2J6htUD39baYKo5Uo"], "asm": "OP_DUP OP_HASH160 4a81cf9fce3e94eadd1749d24cccdc79f28a91ff OP_EQUALVERIFY OP_CHECKSIG", "type": "pubkeyhash"}, "value": 0.18760059, "n": 3}, {"scriptPubKey": {"reqSigs": 1, "hex": "a91469f374dce31c9e156ba4e944767cf2a8f65211b487", "addresses": ["3BMEXLfMbJPoHp42UHe6fsyJ5dGnqiG98r"], "asm": "OP_HASH160 69f374dce31c9e156ba4e944767cf2a8f65211b4 OP_EQUAL", "type": "scripthash"}, "value": 0.17955433, "n": 4}, {"scriptPubKey": {"reqSigs": 1, "hex": "76a9144278e250f367d69d351a4fafc6ca46b4097ddc4688ac", "addresses": ["174UQqEohtQPDEB5eg3BWn95bqAs89Pq1K"], "asm": "OP_DUP OP_HASH160 4278e250f367d69d351a4fafc6ca46b4097ddc46 OP_EQUALVERIFY OP_CHECKSIG", "type": "pubkeyhash"}, "value": 0.22348297, "n": 5}, {"scriptPubKey": {"reqSigs": 1, "hex": "76a914c7adec74d0392e32fb9699c3cf4eacffa53f0d9088ac", "addresses": ["1KCopbuYUtkqB3hAxmciXVY223nwyRBA1f"], "asm": "OP_DUP OP_HASH160 c7adec74d0392e32fb9699c3cf4eacffa53f0d90 OP_EQUALVERIFY OP_CHECKSIG", "type": "pubkeyhash"}, "value": 0.26438033, "n": 6}, {"scriptPubKey": {"reqSigs": 1, "hex": "76a914ebbec77a6cd46b9ca5986a3ee6de908aab09ee6a88ac", "addresses": ["1NVWLepuNJgqv7dk1cspYWsHhUXTv1YT9K"], "asm": "OP_DUP OP_HASH160 ebbec77a6cd46b9ca5986a3ee6de908aab09ee6a OP_EQUALVERIFY OP_CHECKSIG", "type": "pubkeyhash"}, "value": 0.09949945, "n": 7}, {"scriptPubKey": {"reqSigs": 1, "hex": "a914353b1106cf245d92025fd52795fdf11a85a0a11b87", "addresses": ["36YUViwFQt7bPjnxd5ChrkH5fMqw6nyW9r"], "asm": "OP_HASH160 353b1106cf245d92025fd52795fdf11a85a0a11b OP_EQUAL", "type": "scripthash"}, "value": 0.041, "n": 8}, {"scriptPubKey": {"reqSigs": 1, "hex": "a9148fb3ebdd5bb6227db6587fa7fc464b5de49fed8c87", "addresses": ["3Enr68Uwazme3bqaiyvtzPA3xvBcBN8NMs"], "asm": "OP_HASH160 8fb3ebdd5bb6227db6587fa7fc464b5de49fed8c OP_EQUAL", "type": "scripthash"}, "value": 0.006, "n": 9}, {"scriptPubKey": {"reqSigs": 1, "hex": "a9142abb6e3d4a64d5bd9c42136beb895bce72d3bc8387", "addresses": ["35axqWTCb4NSYgqYmBEvxEagyBU89dNqVj"], "asm": "OP_HASH160 2abb6e3d4a64d5bd9c42136beb895bce72d3bc83 OP_EQUAL", "type": "scripthash"}, "value": 0.01145596, "n": 10}, {"scriptPubKey": {"reqSigs": 1, "hex": "a91426a18a72ce34e9f12e0af4c35eb192a6692284be87", "addresses": ["35DH7tLH7zQbR6rL6X2Wnda5YbKJFweeyx"], "asm": "OP_HASH160 26a18a72ce34e9f12e0af4c35eb192a6692284be OP_EQUAL", "type": "scripthash"}, "value": 0.00222157, "n": 11}, {"scriptPubKey": {"reqSigs": 1, "hex": "76a914e71debe251bb26c7e757d9ae265da6e5d00f31b988ac", "addresses": ["1N52wHoVR79PMDishab2XmRHsbekCdGquK"], "asm": "OP_DUP OP_HASH160 e71debe251bb26c7e757d9ae265da6e5d00f31b9 OP_EQUALVERIFY OP_CHECKSIG", "type": "pubkeyhash"}, "value": 0.04252112, "n": 12}], "hex": "01000000012accd95ee7c7114ef49895142e9491bc718bf94bf5cee11c60b6ff90936706f3010000006b483045022100cddc3acb92dfaf5fb080b50f5f13f538997657251229ce1539b7fa476fc6fc04022012b619a518c804cb432ecc1018805239c0f85cb84b43aa3f71003ed9fac9e8cb01210309f466805860574951da86e52f03368d92ea8c4feb03753979c91236c21c4901ffffffff0d9fbd2d00000000001976a9147b9ee53904cbbdfa2e907986aa8de18adb05e9f488aca1461200000000001976a914dd0d7a31131d5e3ddc5734e2f8c2fed8f05e632b88ac005a6202000000001976a9146ee799541a0031bf86e3f743d8af44414092f1d388ac7b411e01000000001976a9144a81cf9fce3e94eadd1749d24cccdc79f28a91ff88ac69fa11010000000017a91469f374dce31c9e156ba4e944767cf2a8f65211b48709025501000000001976a9144278e250f367d69d351a4fafc6ca46b4097ddc4688ac91699301000000001976a914c7adec74d0392e32fb9699c3cf4eacffa53f0d9088acf9d29700000000001976a914ebbec77a6cd46b9ca5986a3ee6de908aab09ee6a88aca08f3e000000000017a914353b1106cf245d92025fd52795fdf11a85a0a11b87c02709000000000017a9148fb3ebdd5bb6227db6587fa7fc464b5de49fed8c87fc7a11000000000017a9142abb6e3d4a64d5bd9c42136beb895bce72d3bc8387cd6303000000000017a91426a18a72ce34e9f12e0af4c35eb192a6692284be87d0e14000000000001976a914e71debe251bb26c7e757d9ae265da6e5d00f31b988ac00000000", "vin": [{"sequence": 4294967295, "scriptSig": {"hex": "483045022100cddc3acb92dfaf5fb080b50f5f13f538997657251229ce1539b7fa476fc6fc04022012b619a518c804cb432ecc1018805239c0f85cb84b43aa3f71003ed9fac9e8cb01210309f466805860574951da86e52f03368d92ea8c4feb03753979c91236c21c4901", "asm": "3045022100cddc3acb92dfaf5fb080b50f5f13f538997657251229ce1539b7fa476fc6fc04022012b619a518c804cb432ecc1018805239c0f85cb84b43aa3f71003ed9fac9e8cb[ALL] 0309f466805860574951da86e52f03368d92ea8c4feb03753979c91236c21c4901"}, "vout": 1, "txid": "f306679390ffb6601ce1cef54bf98b71bc91942e149598f44e11c7e75ed9cc2a"}], "txid": "c417fe3c8f45d7f093d9cdd622ab298d49211c50897e06454ff22726b473db71", "blocktime": 1537873891, "version": 1, "confirmations": 11474, "time": 1537873891, "locktime": 0, "vsize": 590, "size": 590}