{"hash": "aca50af40aae7702b37efb0ae355fffac3602233eabb2e7dcb3e2306efa851b1", "blockhash": "0000000000000000000baef3f32e3676a92c3b2e5da21b426e4f302fc371ce76", "vout": [{"scriptPubKey": {"reqSigs": 1, "hex": "a91415642d081015e73843a48d2b489879785c16d23687", "addresses": ["33e87v5q2BpjQ8theA7kU9NrmdJaj8H1jX"], "asm": "OP_HASH160 15642d081015e73843a48d2b489879785c16d236 OP_EQUAL", "type": "scripthash"}, "value": 0.03613669, "n": 0}, {"scriptPubKey": {"reqSigs": 1, "hex": "76a9145540706d8a00e2068cca9bed994ba86e62bcf66288ac", "addresses": ["18mmdcpyXLM7ACidMSQwmXrbR2Jw7s3vzw"], "asm": "OP_DUP OP_HASH160 5540706d8a00e2068cca9bed994ba86e62bcf662 OP_EQUALVERIFY OP_CHECKSIG", "type": "pubkeyhash"}, "value": 0.07837, "n": 1}], "hex": "010000000001012199568fe29b0ef0bfe4a8de3b3fcc5e7248d79e59720c5d8f2b7dab4115607000000000232200208d426bd35265ea1cc1846ab9088c0ab6129827335fd000c0f9d14208db93d231ffffffff02e52337000000000017a91415642d081015e73843a48d2b489879785c16d2368748957700000000001976a9145540706d8a00e2068cca9bed994ba86e62bcf66288ac04004730440220109b1f9e65eabb5d717aa195131a15761fafea2264b2de370727bb9846ebc9bc022001a0e1f52e2a21848b37da43c02531e2ed15134a1b5107121ed124332085244401483045022100dc88e953e2563cc13ecd6c0c1f7bb129820ab1dcbeec998879c417e3c0e6682c02203b8b032dd69d7e37e04ee53d79ee55bc341c9b31fb2f4d606a9aa8233b43674b016952210207f8fe9d0de489f9d0951ec2bdc2fc1112322e37d04967bfe4f5ae86b83c45562102e96db35c5a7161683792bdb63f547fc226b6c4af582ff282125b687aed06a07a2103f616319c7a348169d2d3d06183a11cb644317867ffb284d01ed5aca6a38ae46953ae00000000", "vin": [{"txinwitness": ["", "30440220109b1f9e65eabb5d717aa195131a15761fafea2264b2de370727bb9846ebc9bc022001a0e1f52e2a21848b37da43c02531e2ed15134a1b5107121ed124332085244401", "3045022100dc88e953e2563cc13ecd6c0c1f7bb129820ab1dcbeec998879c417e3c0e6682c02203b8b032dd69d7e37e04ee53d79ee55bc341c9b31fb2f4d606a9aa8233b43674b01", "52210207f8fe9d0de489f9d0951ec2bdc2fc1112322e37d04967bfe4f5ae86b83c45562102e96db35c5a7161683792bdb63f547fc226b6c4af582ff282125b687aed06a07a2103f616319c7a348169d2d3d06183a11cb644317867ffb284d01ed5aca6a38ae46953ae"], "sequence": 4294967295, "scriptSig": {"hex": "2200208d426bd35265ea1cc1846ab9088c0ab6129827335fd000c0f9d14208db93d231", "asm": "00208d426bd35265ea1cc1846ab9088c0ab6129827335fd000c0f9d14208db93d231"}, "vout": 0, "txid": "70601541ab7d2b8f5d0c72599ed748725ecc3f3bdea8e4bff00e9be28f569921"}], "txid": "c4194302bae30a75195386a44ee5389bfef67f8071fc1cf653580e4bd465799a", "blocktime": 1537876114, "version": 1, "confirmations": 11460, "time": 1537876114, "locktime": 0, "vsize": 216, "size": 407}