{"hash": "c41b62f9143983a8d3a2a50bb99c50bfba62020de56e4d1a6295c611a67170be", "blockhash": "0000000000000000001e0dab787dd257d1dbfcb92a98c2207d5e1078be1f4165", "vout": [{"scriptPubKey": {"reqSigs": 1, "hex": "76a9141df243c30ac3446eca566e7ff35c524391987aa488ac", "addresses": ["13jLpQjUzdyYapMHCy6kpsgZCrHfq6TW3z"], "asm": "OP_DUP OP_HASH160 1df243c30ac3446eca566e7ff35c524391987aa4 OP_EQUALVERIFY OP_CHECKSIG", "type": "pubkeyhash"}, "value": 5.899e-05, "n": 0}, {"scriptPubKey": {"reqSigs": 1, "hex": "76a9145730cb4ddd5bac385766225649839d13fb86d6bd88ac", "addresses": ["18x2Ey4z41dn26Asz4vxt8q8xXfhTj6G5N"], "asm": "OP_DUP OP_HASH160 5730cb4ddd5bac385766225649839d13fb86d6bd OP_EQUALVERIFY OP_CHECKSIG", "type": "pubkeyhash"}, "value": 0.022334, "n": 1}], "hex": "0100000006ce8fd80f448a907815064b0e7d9dcb41fd87306ec5405d7e8f44385a0f913b76000000006b483045022100bacd679f0bee7a8f9a4afa1c264aa49111e1a0502a4c187333e2ed95b86e9aee0220086adbdaecbf2d4bccc677858fece02d59184198d405a814606e4653a2aef052012103e79f5468465e59fceb56b66f605236487186f3ad5053c7f24e7e86e0d98bce4effffffff0a172b9ef8e2d897af5c5adff55b006ede82bf08b1cbb3594a65ca05107237eb010000006b483045022100efd5d43e3c20afd027a25a0bf52529d788a4de2b79919dfd1c5622247bbbec0802200b9061a6b3cdad0052f02ca744ae4a6aa9aa84418419d7983c36697652f94a9c012102e594c3aaaf222993829d1fdac489675b1108e0f1fa990128be7556f006f7c518ffffffff8ac71810b254fce2ab3f1fc0a2c75bd8814707c01f3d13eb429a4f9d7afe9de3000000006a47304402202136177dc070edbd774bb564cef4f53c13d431376edb7a733d6cc96c95dec496022042a9ad7d9fcd9bb9be4c778a3eb414750e3ebfff5416801aabffe519c2ce7223012102d9bc90a07c436d61382d341020a70d8d4b20ae4727f057e9a6a9821056f40adeffffffff9ed965a1045fd2e80f380aeb17692dedfdb58cd9442be34229d84891f4172cb3010000006a47304402203e3b417ede679f4ef2b566a5f5826e859200259858f7e9426f80ed624d3bf935022011b8667e0763907b2df5405c82b09d051aeacb0083c89c2b7bf413aa536cbc360121036d9dfc0a0d1f0746ee471e78ff9af061278eaa48600226cc2ddf5db461eaa77effffffff7067ed3b1a65290a96984e417cd6e9bb271eca53984526d786f0b0f4f3fe7f17000000006a47304402205e9bf72a21dfbb613e19e79576174680a4bb22869975e140a97ef463792df3dc02202a3cb585d15ec5dfa912363bb5712bf6b09ee2ffcec94811bbeabdf34976de6d01210398e523f0ec876018f3d472eea6bfd4b5f40f5fd96456f28ed64d50683d7b0788ffffffffca5849b17abb80e2c109523a114b387aecdfd677445991f9b19df248bae6e1bb010000006b483045022100b29e92a5107e5c5511274795975aa9a5d56b6484a4836fd2fb62f4559de5a891022071f12196c19897478a4f1d0d827470b7edf32cae6e23fc0b39e043a4cc44632e012103a204ee6c00b287308de5e17c529b1b0473648e3ecb32c91cac8bd422b4920644ffffffff020b170000000000001976a9141df243c30ac3446eca566e7ff35c524391987aa488ac38142200000000001976a9145730cb4ddd5bac385766225649839d13fb86d6bd88ac00000000", "vin": [{"sequence": 4294967295, "scriptSig": {"hex": "483045022100bacd679f0bee7a8f9a4afa1c264aa49111e1a0502a4c187333e2ed95b86e9aee0220086adbdaecbf2d4bccc677858fece02d59184198d405a814606e4653a2aef052012103e79f5468465e59fceb56b66f605236487186f3ad5053c7f24e7e86e0d98bce4e", "asm": "3045022100bacd679f0bee7a8f9a4afa1c264aa49111e1a0502a4c187333e2ed95b86e9aee0220086adbdaecbf2d4bccc677858fece02d59184198d405a814606e4653a2aef052[ALL] 03e79f5468465e59fceb56b66f605236487186f3ad5053c7f24e7e86e0d98bce4e"}, "vout": 0, "txid": "763b910f5a38448f7e5d40c56e3087fd41cb9d7d0e4b061578908a440fd88fce"}, {"sequence": 4294967295, "scriptSig": {"hex": "483045022100efd5d43e3c20afd027a25a0bf52529d788a4de2b79919dfd1c5622247bbbec0802200b9061a6b3cdad0052f02ca744ae4a6aa9aa84418419d7983c36697652f94a9c012102e594c3aaaf222993829d1fdac489675b1108e0f1fa990128be7556f006f7c518", "asm": "3045022100efd5d43e3c20afd027a25a0bf52529d788a4de2b79919dfd1c5622247bbbec0802200b9061a6b3cdad0052f02ca744ae4a6aa9aa84418419d7983c36697652f94a9c[ALL] 02e594c3aaaf222993829d1fdac489675b1108e0f1fa990128be7556f006f7c518"}, "vout": 1, "txid": "eb37721005ca654a59b3cbb108bf82de6e005bf5df5a5caf97d8e2f89e2b170a"}, {"sequence": 4294967295, "scriptSig": {"hex": "47304402202136177dc070edbd774bb564cef4f53c13d431376edb7a733d6cc96c95dec496022042a9ad7d9fcd9bb9be4c778a3eb414750e3ebfff5416801aabffe519c2ce7223012102d9bc90a07c436d61382d341020a70d8d4b20ae4727f057e9a6a9821056f40ade", "asm": "304402202136177dc070edbd774bb564cef4f53c13d431376edb7a733d6cc96c95dec496022042a9ad7d9fcd9bb9be4c778a3eb414750e3ebfff5416801aabffe519c2ce7223[ALL] 02d9bc90a07c436d61382d341020a70d8d4b20ae4727f057e9a6a9821056f40ade"}, "vout": 0, "txid": "e39dfe7a9d4f9a42eb133d1fc0074781d85bc7a2c01f3fabe2fc54b21018c78a"}, {"sequence": 4294967295, "scriptSig": {"hex": "47304402203e3b417ede679f4ef2b566a5f5826e859200259858f7e9426f80ed624d3bf935022011b8667e0763907b2df5405c82b09d051aeacb0083c89c2b7bf413aa536cbc360121036d9dfc0a0d1f0746ee471e78ff9af061278eaa48600226cc2ddf5db461eaa77e", "asm": "304402203e3b417ede679f4ef2b566a5f5826e859200259858f7e9426f80ed624d3bf935022011b8667e0763907b2df5405c82b09d051aeacb0083c89c2b7bf413aa536cbc36[ALL] 036d9dfc0a0d1f0746ee471e78ff9af061278eaa48600226cc2ddf5db461eaa77e"}, "vout": 1, "txid": "b32c17f49148d82942e32b44d98cb5fded2d6917eb0a380fe8d25f04a165d99e"}, {"sequence": 4294967295, "scriptSig": {"hex": "47304402205e9bf72a21dfbb613e19e79576174680a4bb22869975e140a97ef463792df3dc02202a3cb585d15ec5dfa912363bb5712bf6b09ee2ffcec94811bbeabdf34976de6d01210398e523f0ec876018f3d472eea6bfd4b5f40f5fd96456f28ed64d50683d7b0788", "asm": "304402205e9bf72a21dfbb613e19e79576174680a4bb22869975e140a97ef463792df3dc02202a3cb585d15ec5dfa912363bb5712bf6b09ee2ffcec94811bbeabdf34976de6d[ALL] 0398e523f0ec876018f3d472eea6bfd4b5f40f5fd96456f28ed64d50683d7b0788"}, "vout": 0, "txid": "177ffef3f4b0f086d726459853ca1e27bbe9d67c414e98960a29651a3bed6770"}, {"sequence": 4294967295, "scriptSig": {"hex": "483045022100b29e92a5107e5c5511274795975aa9a5d56b6484a4836fd2fb62f4559de5a891022071f12196c19897478a4f1d0d827470b7edf32cae6e23fc0b39e043a4cc44632e012103a204ee6c00b287308de5e17c529b1b0473648e3ecb32c91cac8bd422b4920644", "asm": "3045022100b29e92a5107e5c5511274795975aa9a5d56b6484a4836fd2fb62f4559de5a891022071f12196c19897478a4f1d0d827470b7edf32cae6e23fc0b39e043a4cc44632e[ALL] 03a204ee6c00b287308de5e17c529b1b0473648e3ecb32c91cac8bd422b4920644"}, "vout": 1, "txid": "bbe1e6ba48f29db1f991594477d6dfec7a384b113a5209c1e280bb7ab14958ca"}], "txid": "c41b62f9143983a8d3a2a50bb99c50bfba62020de56e4d1a6295c611a67170be", "blocktime": 1537872475, "version": 1, "confirmations": 11487, "time": 1537872475, "locktime": 0, "vsize": 963, "size": 963}