{"hash": "129a6438f4910e7ea0120d1132f1be1bf6afc3c995bad8f06c63750e7b899def", "blockhash": "0000000000000000001e0dab787dd257d1dbfcb92a98c2207d5e1078be1f4165", "vout": [{"scriptPubKey": {"reqSigs": 1, "hex": "a9144f833bb65cceacbc07afc620930c3d763000d9ac87", "addresses": ["38wSWwjcAdeRax9bVuMMCAUTMs6F5gTKy1"], "asm": "OP_HASH160 4f833bb65cceacbc07afc620930c3d763000d9ac OP_EQUAL", "type": "scripthash"}, "value": 0.0109735, "n": 0}, {"scriptPubKey": {"reqSigs": 1, "hex": "76a9149e883d95488104761b598c8f76daa294b3b2129488ac", "addresses": ["1FTEyUDR3gjSanXZbZdqCWqbADT9nM61D9"], "asm": "OP_DUP OP_HASH160 9e883d95488104761b598c8f76daa294b3b21294 OP_EQUALVERIFY OP_CHECKSIG", "type": "pubkeyhash"}, "value": 0.009058, "n": 1}], "hex": "0200000000010343d4cc577964f6cc66fcb9d2673c4e9e29fe423a25af2f0f6ec7a5dc5968dc4d0000000017160014b45130a144227423db5d9cac1af66fd61b4da301fdffffffd2c838e74b379609acccc8f0b01cd3557b94eda1ef83ee751a3f29acb247c47d00000000171600148aa064b695b7d6a1e7fd060ef7fe20cbb21c8896fdffffffd479b9d8d7cfb5ad7c9c79f464ea40e1b2a981647e6a68b33d3c878c19f5be5601000000171600140fc61892a03460cbf36c8601eb7e878c81f49cb2fdffffff0286be10000000000017a9144f833bb65cceacbc07afc620930c3d763000d9ac8748d20d00000000001976a9149e883d95488104761b598c8f76daa294b3b2129488ac0247304402204671008482ec131d6f33bfec615a4cd2d9ed0be8103654b76d2b4448cf0a2c5f022042caa86f58b4e37145188e9db96079e51bbf8238981f234dc2a9714ff51dd68f012102f7a103d30901636ee71be626b205a17f4effeb89518526b048c29d6fade5b22c024830450221008c3141bae81389447c99e72391966c3d471d4dbba63f9543d37af39e8006adc902207d283aee560549524e8acb9e545a708c6f6b208eb0470241c5277fdaad9280b9012102d3df080ea5f766db73ff28a0f5f999c52c06dc683f6c8110cc13ead8db9cf3eb024830450221009f662d4448c8711167b937ed39bc2d1b8fc7f5037971f9b91fc7b22a0c6bbc830220465f094605f42034c70fe368c18866ce6062c74ac97a0b75a0883dc1dc7d7d6c012103a85024cb5224daeee7a7d9ae789fa20cde787057e9218a670f20b36e4bc295370f490800", "vin": [{"txinwitness": ["304402204671008482ec131d6f33bfec615a4cd2d9ed0be8103654b76d2b4448cf0a2c5f022042caa86f58b4e37145188e9db96079e51bbf8238981f234dc2a9714ff51dd68f01", "02f7a103d30901636ee71be626b205a17f4effeb89518526b048c29d6fade5b22c"], "sequence": 4294967293, "scriptSig": {"hex": "160014b45130a144227423db5d9cac1af66fd61b4da301", "asm": "0014b45130a144227423db5d9cac1af66fd61b4da301"}, "vout": 0, "txid": "4ddc6859dca5c76e0f2faf253a42fe299e4e3c67d2b9fc66ccf6647957ccd443"}, {"txinwitness": ["30450221008c3141bae81389447c99e72391966c3d471d4dbba63f9543d37af39e8006adc902207d283aee560549524e8acb9e545a708c6f6b208eb0470241c5277fdaad9280b901", "02d3df080ea5f766db73ff28a0f5f999c52c06dc683f6c8110cc13ead8db9cf3eb"], "sequence": 4294967293, "scriptSig": {"hex": "1600148aa064b695b7d6a1e7fd060ef7fe20cbb21c8896", "asm": "00148aa064b695b7d6a1e7fd060ef7fe20cbb21c8896"}, "vout": 0, "txid": "7dc447b2ac293f1a75ee83efa1ed947b55d31cb0f0c8ccac0996374be738c8d2"}, {"txinwitness": ["30450221009f662d4448c8711167b937ed39bc2d1b8fc7f5037971f9b91fc7b22a0c6bbc830220465f094605f42034c70fe368c18866ce6062c74ac97a0b75a0883dc1dc7d7d6c01", "03a85024cb5224daeee7a7d9ae789fa20cde787057e9218a670f20b36e4bc29537"], "sequence": 4294967293, "scriptSig": {"hex": "1600140fc61892a03460cbf36c8601eb7e878c81f49cb2", "asm": "00140fc61892a03460cbf36c8601eb7e878c81f49cb2"}, "vout": 1, "txid": "56bef5198c873c3db3686a7e6481a9b2e140ea64f4799c7cadb5cfd7d8b979d4"}], "txid": "c420ff1f3149e602a849ffddb3747328bc485a53a476f3c58c1581c049b2dd7e", "blocktime": 1537872475, "version": 2, "confirmations": 11486, "time": 1537872475, "locktime": 542991, "vsize": 350, "size": 593}