{"hash": "c421e84d59602d976c56f2bebef8e06d05d2e58c3108679d21043533538de48b", "blockhash": "0000000000000000000baef3f32e3676a92c3b2e5da21b426e4f302fc371ce76", "vout": [{"scriptPubKey": {"reqSigs": 1, "hex": "76a9148b2605e919dc0ca3629beccbde84059e250a09ec88ac", "addresses": ["1DgkUZBhUNJVeoK27kTUk7hzUceXPQo4RW"], "asm": "OP_DUP OP_HASH160 8b2605e919dc0ca3629beccbde84059e250a09ec OP_EQUALVERIFY OP_CHECKSIG", "type": "pubkeyhash"}, "value": 0.03240027, "n": 0}, {"scriptPubKey": {"reqSigs": 1, "hex": "76a914e6991ba0252a0fc20a384f524c48e5c8c25046ba88ac", "addresses": ["1N2HqFE1ct5oQMWJiJnxS6WLm2KzArZrkK"], "asm": "OP_DUP OP_HASH160 e6991ba0252a0fc20a384f524c48e5c8c25046ba OP_EQUALVERIFY OP_CHECKSIG", "type": "pubkeyhash"}, "value": 0.02245125, "n": 1}], "hex": "020000000261371026137f39aa54db1aba08189c8b9de1411d72c0d6ecc246798254948ff6010000006a4730440220278ed1ee7df515693965bff48721bcb72072e7efff8cae491dbc5d06f529a27b0220399524742431d486803ef02730609b5017cb486c0f890fe558752cd92551c629012102e478ba7ede85203f92a38466c6282afbe6887b5e5a9cda8d8c267014e95cafc3ffffffffe123c40649d73ff756e4ad5559ea5a06150a14764fa465439f3f68a887eb9759010000006b483045022100dd339f1c1faba01685299815e71cb22c62c9011c213ab88f444e94675b37f977022008e65c27847483e91eced3e954b22771eda64405722709a1df1a6fba6ba9fda60121039040352447d56bcb5e13ecaa396ae6a7103aaae84a4b5f3b666346a0fefcb1f6ffffffff025b703100000000001976a9148b2605e919dc0ca3629beccbde84059e250a09ec88ac05422200000000001976a914e6991ba0252a0fc20a384f524c48e5c8c25046ba88ac00000000", "vin": [{"sequence": 4294967295, "scriptSig": {"hex": "4730440220278ed1ee7df515693965bff48721bcb72072e7efff8cae491dbc5d06f529a27b0220399524742431d486803ef02730609b5017cb486c0f890fe558752cd92551c629012102e478ba7ede85203f92a38466c6282afbe6887b5e5a9cda8d8c267014e95cafc3", "asm": "30440220278ed1ee7df515693965bff48721bcb72072e7efff8cae491dbc5d06f529a27b0220399524742431d486803ef02730609b5017cb486c0f890fe558752cd92551c629[ALL] 02e478ba7ede85203f92a38466c6282afbe6887b5e5a9cda8d8c267014e95cafc3"}, "vout": 1, "txid": "f68f9454827946c2ecd6c0721d41e19d8b9c1808ba1adb54aa397f1326103761"}, {"sequence": 4294967295, "scriptSig": {"hex": "483045022100dd339f1c1faba01685299815e71cb22c62c9011c213ab88f444e94675b37f977022008e65c27847483e91eced3e954b22771eda64405722709a1df1a6fba6ba9fda60121039040352447d56bcb5e13ecaa396ae6a7103aaae84a4b5f3b666346a0fefcb1f6", "asm": "3045022100dd339f1c1faba01685299815e71cb22c62c9011c213ab88f444e94675b37f977022008e65c27847483e91eced3e954b22771eda64405722709a1df1a6fba6ba9fda6[ALL] 039040352447d56bcb5e13ecaa396ae6a7103aaae84a4b5f3b666346a0fefcb1f6"}, "vout": 1, "txid": "5997eb87a8683f9f4365a44f76140a15065aea5955ade456f73fd74906c423e1"}], "txid": "c421e84d59602d976c56f2bebef8e06d05d2e58c3108679d21043533538de48b", "blocktime": 1537876114, "version": 2, "confirmations": 11460, "time": 1537876114, "locktime": 0, "vsize": 373, "size": 373}