{"hash": "0bf38b5fa8c26976287cff36ea88569f4061533ea9dd580e873e6dc79ddf1505", "blockhash": "000000000000000000022b45ed06c6f4ccd3cf7fb5ba4856ebd2e58215665228", "vout": [{"scriptPubKey": {"reqSigs": 1, "hex": "76a914261b370e6406e8875c3b192b9a575baceac21e4388ac", "addresses": ["14UVHE4w4WbsjYPJeEawkGdetmK4P9KdCr"], "asm": "OP_DUP OP_HASH160 261b370e6406e8875c3b192b9a575baceac21e43 OP_EQUALVERIFY OP_CHECKSIG", "type": "pubkeyhash"}, "value": 0.0023216, "n": 0}, {"scriptPubKey": {"reqSigs": 1, "hex": "a9144f332e8791339652c87ef143b2b5d78a34edfdce87", "addresses": ["38uncsMxEe4Bc4WbBkpZbRwgKi6vxRsvuQ"], "asm": "OP_HASH160 4f332e8791339652c87ef143b2b5d78a34edfdce OP_EQUAL", "type": "scripthash"}, "value": 0.01049662, "n": 1}], "hex": "02000000000102393eba4374dbe89f723104173860848e618373fdc1a6015e642f585e43fb9848070000001716001458626e0d5dd660cb7ee13111f2d3b17701185fadfeffffffd141aac2a159c3ab0c1c9691bbd5ff938635267a1d4e36c2b611e3a6efa738630000000017160014a3c94d93c5a21a04b22bffde86a6ae74de8c2a04feffffff02e08a0300000000001976a914261b370e6406e8875c3b192b9a575baceac21e4388ac3e0410000000000017a9144f332e8791339652c87ef143b2b5d78a34edfdce870247304402206bbdaaf9bd38ae9d9d183520da9a27a4ea7008390dc02d95781799c6ccc73c7f022038998308bf6d03a787ba8bb08172fff4883ab1b5848238e6eeedd5315a46fddd01210296e2e8b46714227eb9985915fdabde71354d4b41c048bf799849dc42ac8e16aa02473044022065b2949222f9d38ac9ba75f3fc0f8acdbc704869c8756475c1081213ee2d69ff02207ab503f7a472bc0a441361063f8b182b33c59b36c36e5710bb6ee8ce013bf6ca012103006fbbd53b74808986638efcc1d64f3c7369adebe9d73c8c9fe90cee39a5bc20ec480800", "vin": [{"txinwitness": ["304402206bbdaaf9bd38ae9d9d183520da9a27a4ea7008390dc02d95781799c6ccc73c7f022038998308bf6d03a787ba8bb08172fff4883ab1b5848238e6eeedd5315a46fddd01", "0296e2e8b46714227eb9985915fdabde71354d4b41c048bf799849dc42ac8e16aa"], "sequence": 4294967294, "scriptSig": {"hex": "16001458626e0d5dd660cb7ee13111f2d3b17701185fad", "asm": "001458626e0d5dd660cb7ee13111f2d3b17701185fad"}, "vout": 7, "txid": "4898fb435e582f645e01a6c1fd7383618e846038170431729fe8db7443ba3e39"}, {"txinwitness": ["3044022065b2949222f9d38ac9ba75f3fc0f8acdbc704869c8756475c1081213ee2d69ff02207ab503f7a472bc0a441361063f8b182b33c59b36c36e5710bb6ee8ce013bf6ca01", "03006fbbd53b74808986638efcc1d64f3c7369adebe9d73c8c9fe90cee39a5bc20"], "sequence": 4294967294, "scriptSig": {"hex": "160014a3c94d93c5a21a04b22bffde86a6ae74de8c2a04", "asm": "0014a3c94d93c5a21a04b22bffde86a6ae74de8c2a04"}, "vout": 0, "txid": "6338a7efa6e311b6c2364e1d7a26358693ffd5bb91961c0cabc359a1c2aa41d1"}], "txid": "c4260c60d66728867e5f7603ba274e4d5270911942c6679409d45efb9fc16911", "blocktime": 1537869901, "version": 2, "confirmations": 11524, "time": 1537869901, "locktime": 542956, "vsize": 258, "size": 420}