{"hash": "c4276700dd62f30eba3e8d5d364bae9eeb7906b6b81a432b8fd0e9f97333fc51", "blockhash": "00000000000000000018f53835495a110e01622372bf6ae95dc86f2b0ab887b0", "vout": [{"scriptPubKey": {"reqSigs": 1, "hex": "a9142cf9dca4b939c94e23b63713def79757a67c5eb087", "addresses": ["35npyh8MUZwUgoUhuDxXF18pWu3DrjMmEQ"], "asm": "OP_HASH160 2cf9dca4b939c94e23b63713def79757a67c5eb0 OP_EQUAL", "type": "scripthash"}, "value": 0.00890713, "n": 0}, {"scriptPubKey": {"reqSigs": 1, "hex": "76a91439764e3b72bd995a20930aa0dab8d4fb1dc72daf88ac", "addresses": ["16EqExAgXYFgBhMHmtM4675PUMmSrTGbtR"], "asm": "OP_DUP OP_HASH160 39764e3b72bd995a20930aa0dab8d4fb1dc72daf OP_EQUALVERIFY OP_CHECKSIG", "type": "pubkeyhash"}, "value": 0.00938107, "n": 1}], "hex": "0100000001228736cac0d642b3875e481aecad49e70bf84b6e859d488cff1dae2dbfe1b819010000006a4730440220225daba2218955c758d28eeec6bf5386b9575c29a8fc8ddcc53dc15cec74218a0220467f9c7ab4c752e6a834a4b44eb5541ead5002278b778000678b756992d3d3e5012102c5462a22be68c4611db8f8c1aa90eb5bf0014e749a8b662ed4ba30335ff2eb14ffffffff0259970d000000000017a9142cf9dca4b939c94e23b63713def79757a67c5eb0877b500e00000000001976a91439764e3b72bd995a20930aa0dab8d4fb1dc72daf88ac00000000", "vin": [{"sequence": 4294967295, "scriptSig": {"hex": "4730440220225daba2218955c758d28eeec6bf5386b9575c29a8fc8ddcc53dc15cec74218a0220467f9c7ab4c752e6a834a4b44eb5541ead5002278b778000678b756992d3d3e5012102c5462a22be68c4611db8f8c1aa90eb5bf0014e749a8b662ed4ba30335ff2eb14", "asm": "30440220225daba2218955c758d28eeec6bf5386b9575c29a8fc8ddcc53dc15cec74218a0220467f9c7ab4c752e6a834a4b44eb5541ead5002278b778000678b756992d3d3e5[ALL] 02c5462a22be68c4611db8f8c1aa90eb5bf0014e749a8b662ed4ba30335ff2eb14"}, "vout": 1, "txid": "19b8e1bf2dae1dff8c489d856e4bf80be749adec1a485e87b342d6c0ca368722"}], "txid": "c4276700dd62f30eba3e8d5d364bae9eeb7906b6b81a432b8fd0e9f97333fc51", "blocktime": 1537870928, "version": 1, "confirmations": 11512, "time": 1537870928, "locktime": 0, "vsize": 223, "size": 223}