{"hash": "c4281d7ba5481a2950372a8d57a949769bcaced27b8ce81f918bb24a08e85381", "blockhash": "0000000000000000001cda96e906b7601b7a6fb1a3b62bca570a9e5d8f4b3de1", "vout": [{"scriptPubKey": {"reqSigs": 1, "hex": "76a914a2519912f3ed49964afecee89ba99998dfdd992b88ac", "addresses": ["1FoGDbsLhSpuhcRXjCG1ET3RaPitZxwtr7"], "asm": "OP_DUP OP_HASH160 a2519912f3ed49964afecee89ba99998dfdd992b OP_EQUALVERIFY OP_CHECKSIG", "type": "pubkeyhash"}, "value": 0.00841733, "n": 0}, {"scriptPubKey": {"reqSigs": 1, "hex": "a91413de89f760158dc7f75ba7339dc1a04624512f3987", "addresses": ["33W5MTtuZt2AFJpG9Lh6DbXtpAhuxcCXCZ"], "asm": "OP_HASH160 13de89f760158dc7f75ba7339dc1a04624512f39 OP_EQUAL", "type": "scripthash"}, "value": 0.1514461, "n": 1}], "hex": "01000000019f6f81afe34d88d172e1a5e843d43cf9d10950671dcab9bb356e03f78adfb38f000000006b483045022100f852c0cc2db4293e4570c14b9df67341880698e03e3e5276b8e38e0c86f85664022013a6ca021f559e12ce55815319891e2fe2848bdd492fd793041a32e6506472230121030022e9519b25242a97897f4980e98ee6101cd7b0c46ccea2a05ac41a6957caf8ffffffff0205d80c00000000001976a914a2519912f3ed49964afecee89ba99998dfdd992b88aca216e7000000000017a91413de89f760158dc7f75ba7339dc1a04624512f398700000000", "vin": [{"sequence": 4294967295, "scriptSig": {"hex": "483045022100f852c0cc2db4293e4570c14b9df67341880698e03e3e5276b8e38e0c86f85664022013a6ca021f559e12ce55815319891e2fe2848bdd492fd793041a32e6506472230121030022e9519b25242a97897f4980e98ee6101cd7b0c46ccea2a05ac41a6957caf8", "asm": "3045022100f852c0cc2db4293e4570c14b9df67341880698e03e3e5276b8e38e0c86f85664022013a6ca021f559e12ce55815319891e2fe2848bdd492fd793041a32e650647223[ALL] 030022e9519b25242a97897f4980e98ee6101cd7b0c46ccea2a05ac41a6957caf8"}, "vout": 0, "txid": "8fb3df8af7036e35bbb9ca1d675009d1f93cd443e8a5e172d1884de3af816f9f"}], "txid": "c4281d7ba5481a2950372a8d57a949769bcaced27b8ce81f918bb24a08e85381", "blocktime": 1537873282, "version": 1, "confirmations": 11484, "time": 1537873282, "locktime": 0, "vsize": 224, "size": 224}