{"hash": "c42d2858148b4ce66c0e764d2fd8be818dc50bf3b736085ae902cd125c6b35e6", "blockhash": "00000000000000000017f5eb5941039fbcee6240d03bc1f2f8e35350df66a1d8", "vout": [{"scriptPubKey": {"reqSigs": 1, "hex": "76a914face70ae7a1cff69c198db4059da6c66b4338bc288ac", "addresses": ["1Ps9Efx5LrSi4BJkwCAh8y1vLcBTiAmRJd"], "asm": "OP_DUP OP_HASH160 face70ae7a1cff69c198db4059da6c66b4338bc2 OP_EQUALVERIFY OP_CHECKSIG", "type": "pubkeyhash"}, "value": 8.497e-05, "n": 0}, {"scriptPubKey": {"reqSigs": 1, "hex": "76a914e176655f05a4f16c981b7368cf4f0acc3e96798988ac", "addresses": ["1MZ8sTcWoT5opkbLp5tGDpYZ3NL5BnU7mZ"], "asm": "OP_DUP OP_HASH160 e176655f05a4f16c981b7368cf4f0acc3e967989 OP_EQUALVERIFY OP_CHECKSIG", "type": "pubkeyhash"}, "value": 0.00016314, "n": 1}], "hex": "0100000001ad2579a055fbadf574a9984d6b680ec9d2bfa780ab41716f6cdcf6de75fc5876010000006b483045022100bc2b547ac1737eb539f40096c7f202146a38db37e4a3a71d2a8349ecdb78f453022045c1b341779c3312ce89ccdaed820b5330014d00d4335293a30b51c1708b21be012102235ca745504e5ffe591e760a5b5356bf26a19819bc11c79bddb8a517aad6a2b2ffffffff0231210000000000001976a914face70ae7a1cff69c198db4059da6c66b4338bc288acba3f0000000000001976a914e176655f05a4f16c981b7368cf4f0acc3e96798988ac00000000", "vin": [{"sequence": 4294967295, "scriptSig": {"hex": "483045022100bc2b547ac1737eb539f40096c7f202146a38db37e4a3a71d2a8349ecdb78f453022045c1b341779c3312ce89ccdaed820b5330014d00d4335293a30b51c1708b21be012102235ca745504e5ffe591e760a5b5356bf26a19819bc11c79bddb8a517aad6a2b2", "asm": "3045022100bc2b547ac1737eb539f40096c7f202146a38db37e4a3a71d2a8349ecdb78f453022045c1b341779c3312ce89ccdaed820b5330014d00d4335293a30b51c1708b21be[ALL] 02235ca745504e5ffe591e760a5b5356bf26a19819bc11c79bddb8a517aad6a2b2"}, "vout": 1, "txid": "7658fc75def6dc6c6f7141ab80a7bfd2c90e686b4d98a974f5adfb55a07925ad"}], "txid": "c42d2858148b4ce66c0e764d2fd8be818dc50bf3b736085ae902cd125c6b35e6", "blocktime": 1537874412, "version": 1, "confirmations": 11467, "time": 1537874412, "locktime": 0, "vsize": 226, "size": 226}