{"hash": "2e03371b985827d1641aaf8f1b46bbe573c0cedcb9b02e62f59680c147cd6b06", "blockhash": "0000000000000000000e13cef7c366c0283d82e591d1acd082e914b08063cdf1", "vout": [{"scriptPubKey": {"reqSigs": 1, "hex": "a914624572f8986f5a3c57d864e3fafdfe542df6352087", "addresses": ["3AedLkYdZp98ztFcfQ58SqxApKzGRmefPP"], "asm": "OP_HASH160 624572f8986f5a3c57d864e3fafdfe542df63520 OP_EQUAL", "type": "scripthash"}, "value": 0.49213704, "n": 0}, {"scriptPubKey": {"reqSigs": 1, "hex": "76a91483e80be852fd9b02a4dfa186492613f2d4a4ee3288ac", "addresses": ["1D2TW1FAsX1iFzM2wbbCFntgjz5HQKY1ko"], "asm": "OP_DUP OP_HASH160 83e80be852fd9b02a4dfa186492613f2d4a4ee32 OP_EQUALVERIFY OP_CHECKSIG", "type": "pubkeyhash"}, "value": 0.10854145, "n": 1}], "hex": "010000000001028969ee2fc7ac805f6956ef08f0dd1e66b6f3bccf7e1f54f24c0e31e5f477ce3d0200000023220020d23c9d4b5a88a8cd3e16787313a14201e536503c96d22cac96d349476f60658bffffffffddb8b0b300541e7317d20ec66be4239fc48ac8caee25106e72de384879452d380000000023220020e988d4d5d617e5d7866d19f2286623f315cdd2fd7fdccf3cf230e8f42d91d49fffffffff0208f1ee020000000017a914624572f8986f5a3c57d864e3fafdfe542df6352087019fa500000000001976a91483e80be852fd9b02a4dfa186492613f2d4a4ee3288ac0400483045022100b4d310e18fa2f276b24a7f2d5f26911a10862cea5a6802f34b36d05342cc629402203eb1583a0ac94e5fc07213c9feaff8b90fb5c5d1bbacbd3dfe52a889ecdb9d6901483045022100d6e0e06535b7f104351a1c6b04f28dcfa8bd5fab051fd481a93d43d24b69231b022012bfd7d76e0487e099a74681ef37903b9614c3137799ebd6c309f0048d11c799016952210259e37310da69758872a9af2f8f41d446e26eeaf8f3987430a3aa1aa2840256432102a0e805a9b6ee8bd94e8dfcb235f29b26764146b5e7209c4ee67cefd3b666defe2103d0779823554289d3d6e118dd4e22184eacd65e6df143c91685f72b62f41a105b53ae04004730440220390ba0f6e70dd8f2f1e6c2a87ddda8a4fa1b627ef203f8c14eec34fe930d6d7a022037aefaf79056c00435449cad560309cd0bb163dd01ee1cfded3a551a1b959ee60147304402206dffc67022f95fd54bbb4d694d7940071f46c726ccf0753e5eebc99bc19ea1e7022024d55959bbb1df9255f73aa00d2ac07058d6a1f88143992ce293401873964a8c01695221020ddb6604e029682afdd1083871c27789394a013ab8cc265fbfa2a459296e437221031d0c206ad36c93e111abd9b63c900b88f3fa6fbc04e06979efa0e438cc6369c921027a01d1e9e7ceab403575c3dd9ba81813dd47da559d8898c5c4b116e3e5ca809d53ae00000000", "vin": [{"txinwitness": ["", "3045022100b4d310e18fa2f276b24a7f2d5f26911a10862cea5a6802f34b36d05342cc629402203eb1583a0ac94e5fc07213c9feaff8b90fb5c5d1bbacbd3dfe52a889ecdb9d6901", "3045022100d6e0e06535b7f104351a1c6b04f28dcfa8bd5fab051fd481a93d43d24b69231b022012bfd7d76e0487e099a74681ef37903b9614c3137799ebd6c309f0048d11c79901", "52210259e37310da69758872a9af2f8f41d446e26eeaf8f3987430a3aa1aa2840256432102a0e805a9b6ee8bd94e8dfcb235f29b26764146b5e7209c4ee67cefd3b666defe2103d0779823554289d3d6e118dd4e22184eacd65e6df143c91685f72b62f41a105b53ae"], "sequence": 4294967295, "scriptSig": {"hex": "220020d23c9d4b5a88a8cd3e16787313a14201e536503c96d22cac96d349476f60658b", "asm": "0020d23c9d4b5a88a8cd3e16787313a14201e536503c96d22cac96d349476f60658b"}, "vout": 2, "txid": "3dce77f4e5310e4cf2541f7ecfbcf3b6661eddf008ef56695f80acc72fee6989"}, {"txinwitness": ["", "30440220390ba0f6e70dd8f2f1e6c2a87ddda8a4fa1b627ef203f8c14eec34fe930d6d7a022037aefaf79056c00435449cad560309cd0bb163dd01ee1cfded3a551a1b959ee601", "304402206dffc67022f95fd54bbb4d694d7940071f46c726ccf0753e5eebc99bc19ea1e7022024d55959bbb1df9255f73aa00d2ac07058d6a1f88143992ce293401873964a8c01", "5221020ddb6604e029682afdd1083871c27789394a013ab8cc265fbfa2a459296e437221031d0c206ad36c93e111abd9b63c900b88f3fa6fbc04e06979efa0e438cc6369c921027a01d1e9e7ceab403575c3dd9ba81813dd47da559d8898c5c4b116e3e5ca809d53ae"], "sequence": 4294967295, "scriptSig": {"hex": "220020e988d4d5d617e5d7866d19f2286623f315cdd2fd7fdccf3cf230e8f42d91d49f", "asm": "0020e988d4d5d617e5d7866d19f2286623f315cdd2fd7fdccf3cf230e8f42d91d49f"}, "vout": 0, "txid": "382d45794838de726e1025eecac88ac49f23e46bc60ed217731e5400b3b0b8dd"}], "txid": "c42e4a740a70a2bd2feba495bcd129c7eb87861b1e055793eaf9f62768472d97", "blocktime": 1537871767, "version": 1, "confirmations": 11495, "time": 1537871767, "locktime": 0, "vsize": 355, "size": 736}