{"hash": "c430dbaab6e9f1afd75a62e4284a3c737232fd085fba705dfcd0a9928b3b944d", "blockhash": "0000000000000000001f0ddff1eddb255c1121bcd4da4f1bc9a0da00cae72433", "vout": [{"scriptPubKey": {"reqSigs": 1, "hex": "76a91476b5be6d796faf8e5f0788c8486cd6fd3d142cab88ac", "addresses": ["1BpgTRPxvV9abHgasJZAko9Cty4S5KH9z6"], "asm": "OP_DUP OP_HASH160 76b5be6d796faf8e5f0788c8486cd6fd3d142cab OP_EQUALVERIFY OP_CHECKSIG", "type": "pubkeyhash"}, "value": 0.00070193, "n": 0}, {"scriptPubKey": {"reqSigs": 1, "hex": "76a9140f47f64d57239ac1d598acc98272cea7ee64faa788ac", "addresses": ["12PoLtoCkDVeeeesa9bcNKXDxhgg4rPqsT"], "asm": "OP_DUP OP_HASH160 0f47f64d57239ac1d598acc98272cea7ee64faa7 OP_EQUALVERIFY OP_CHECKSIG", "type": "pubkeyhash"}, "value": 0.00156229, "n": 1}], "hex": "010000000117af1aa7df9f4c1c3f92dbc3c82bf7665987bd024f5cf49725c776fa4bf5c1a1000000006a473044022002e94340ef6633f3f19639e48935bf981d191785ee537a7110eff81daf661319022021755a0eaa505d10ce8b53c517568146391a11e1cabf33b542fed5c1c7d9c1630121035046dcd2aef8fe58b0da2f3d76296f3e3855b00fb645237740b30c3310e72a79ffffffff0231120100000000001976a91476b5be6d796faf8e5f0788c8486cd6fd3d142cab88ac45620200000000001976a9140f47f64d57239ac1d598acc98272cea7ee64faa788ac00000000", "vin": [{"sequence": 4294967295, "scriptSig": {"hex": "473044022002e94340ef6633f3f19639e48935bf981d191785ee537a7110eff81daf661319022021755a0eaa505d10ce8b53c517568146391a11e1cabf33b542fed5c1c7d9c1630121035046dcd2aef8fe58b0da2f3d76296f3e3855b00fb645237740b30c3310e72a79", "asm": "3044022002e94340ef6633f3f19639e48935bf981d191785ee537a7110eff81daf661319022021755a0eaa505d10ce8b53c517568146391a11e1cabf33b542fed5c1c7d9c163[ALL] 035046dcd2aef8fe58b0da2f3d76296f3e3855b00fb645237740b30c3310e72a79"}, "vout": 0, "txid": "a1c1f54bfa76c72597f45c4f02bd875966f72bc8c3db923f1c4c9fdfa71aaf17"}], "txid": "c430dbaab6e9f1afd75a62e4284a3c737232fd085fba705dfcd0a9928b3b944d", "blocktime": 1537872018, "version": 1, "confirmations": 11489, "time": 1537872018, "locktime": 0, "vsize": 225, "size": 225}