{"hash": "c43055db401dc6a7fa99f7ece8ef6b8468c77e9b7b0dd46e26bd18e1621e663b", "blockhash": "0000000000000000000dcc0f55137456b1a82d3642486a52398922ac4d620174", "vout": [{"scriptPubKey": {"reqSigs": 1, "hex": "a914ae5e02143950862ef0991c1d8654c171b10ab1d287", "addresses": ["3Haz7imjSeoc5ph7wJcptsc67iqBjjEzq7"], "asm": "OP_HASH160 ae5e02143950862ef0991c1d8654c171b10ab1d2 OP_EQUAL", "type": "scripthash"}, "value": 0.00239803, "n": 0}, {"scriptPubKey": {"reqSigs": 1, "hex": "76a914ae42c2bd6235e05bb8a5df998872a10951a6f53b88ac", "addresses": ["1GtQYzcpahLCF9FbTfxRBRHow97YBDzdhf"], "asm": "OP_DUP OP_HASH160 ae42c2bd6235e05bb8a5df998872a10951a6f53b OP_EQUALVERIFY OP_CHECKSIG", "type": "pubkeyhash"}, "value": 0.12934099, "n": 1}], "hex": "01000000019c69f8685312d6d2390fe8f5b8929bfe3ec6fe57f2a3adb92c92b7956ba0f6e1010000006a473044022013fb4ed85420e2d3ec56bc5b0e6a1fec10c33d256c60d994782c301fbe70ed1902203c5daff2b81098171b35a3cb9360100a63898f255b81d4b1cd229562c9785f020121028f5eba1b82199c55ea1bc994913d8bc66fafe71f7d71bec76f4d4e03c8f105dcffffffff02bba803000000000017a914ae5e02143950862ef0991c1d8654c171b10ab1d287d35bc500000000001976a914ae42c2bd6235e05bb8a5df998872a10951a6f53b88ac00000000", "vin": [{"sequence": 4294967295, "scriptSig": {"hex": "473044022013fb4ed85420e2d3ec56bc5b0e6a1fec10c33d256c60d994782c301fbe70ed1902203c5daff2b81098171b35a3cb9360100a63898f255b81d4b1cd229562c9785f020121028f5eba1b82199c55ea1bc994913d8bc66fafe71f7d71bec76f4d4e03c8f105dc", "asm": "3044022013fb4ed85420e2d3ec56bc5b0e6a1fec10c33d256c60d994782c301fbe70ed1902203c5daff2b81098171b35a3cb9360100a63898f255b81d4b1cd229562c9785f02[ALL] 028f5eba1b82199c55ea1bc994913d8bc66fafe71f7d71bec76f4d4e03c8f105dc"}, "vout": 1, "txid": "e1f6a06b95b7922cb9ada3f257fec63efe9b92b8f5e80f39d2d6125368f8699c"}], "txid": "c43055db401dc6a7fa99f7ece8ef6b8468c77e9b7b0dd46e26bd18e1621e663b", "blocktime": 1537870268, "version": 1, "confirmations": 11516, "time": 1537870268, "locktime": 0, "vsize": 223, "size": 223}