{"hash": "c43989c78fc5fc8bb84469e398c29972afc66ecf8eff586233954b80748f174c", "blockhash": "0000000000000000000baef3f32e3676a92c3b2e5da21b426e4f302fc371ce76", "vout": [{"scriptPubKey": {"reqSigs": 1, "hex": "76a914202edfeef35661d7df27924c79326e2ec2d6b1ac88ac", "addresses": ["13wAn43w1G96cPEQjiT6yT716GRVQQvyAR"], "asm": "OP_DUP OP_HASH160 202edfeef35661d7df27924c79326e2ec2d6b1ac OP_EQUALVERIFY OP_CHECKSIG", "type": "pubkeyhash"}, "value": 0.00199427, "n": 0}], "hex": "010000000177a1cc62e2fdf40611bd434fd0e7db6481093e1e1486aff742d16cd37b0a79e91a0000006b4830450221009e42393666c6228e69ee6ca994ff569c563a5fa238153eabe93c21974198cb6d022079734dfbc05127d462191ce1ad13456b9192be639ef7a8f1348d591bfd764eaf01210293ac8e4cc4b860462f5234ff7e0ad8b35f2036f6a682b69318a5e930106e1f5cffffffff01030b0300000000001976a914202edfeef35661d7df27924c79326e2ec2d6b1ac88ac00000000", "vin": [{"sequence": 4294967295, "scriptSig": {"hex": "4830450221009e42393666c6228e69ee6ca994ff569c563a5fa238153eabe93c21974198cb6d022079734dfbc05127d462191ce1ad13456b9192be639ef7a8f1348d591bfd764eaf01210293ac8e4cc4b860462f5234ff7e0ad8b35f2036f6a682b69318a5e930106e1f5c", "asm": "30450221009e42393666c6228e69ee6ca994ff569c563a5fa238153eabe93c21974198cb6d022079734dfbc05127d462191ce1ad13456b9192be639ef7a8f1348d591bfd764eaf[ALL] 0293ac8e4cc4b860462f5234ff7e0ad8b35f2036f6a682b69318a5e930106e1f5c"}, "vout": 26, "txid": "e9790a7bd36cd142f7af86141e3e098164dbe7d04f43bd1106f4fde262cca177"}], "txid": "c43989c78fc5fc8bb84469e398c29972afc66ecf8eff586233954b80748f174c", "blocktime": 1537876114, "version": 1, "confirmations": 11460, "time": 1537876114, "locktime": 0, "vsize": 192, "size": 192}