{"hash": "c43c701e87be28fab46b59cd4435460c43fcedc2f0443f054d6f681f8831956b", "blockhash": "0000000000000000001f76057863aec43deb6fa401d9628bb513d65a8098bfab", "vout": [{"scriptPubKey": {"reqSigs": 1, "hex": "76a914c0ed384d183ffb5f2208bfb81067d7d490dcb95788ac", "addresses": ["1Jb6vALCXpj6LY1Sx2BXPTTb12zuS4CEvq"], "asm": "OP_DUP OP_HASH160 c0ed384d183ffb5f2208bfb81067d7d490dcb957 OP_EQUALVERIFY OP_CHECKSIG", "type": "pubkeyhash"}, "value": 0.04463614, "n": 0}], "hex": "020000000d0276a3b8e68c811110fb4828fd59b4ae43e618850027084e228e66c3719edf69010000006a47304402203cca2a9acd13e37e92fafd73b5becff6eaccbe60f3fe25400300e74b047612240220723311a8821be04ada4ba94ebe1bdaedd2404affb56a70a571debddf33cc2f0a012102109ede8937020ff0fd8d48b3f59a8b4c36abcb372181331ac68941cb7306f4ecfeffffff1e53f07e91695444717a39225e8a258f61b992dd48250f230d5425c8ae6cecb0000000006b4830450221008e9c37ec0edd8bbb9a1e192a3fd9f2367baa4fd678c118fe4372a1b80db98c9f02201870931f033ad350fe1e60cf2c4bdce181a5c0477c6927e94f279cb747d4c4700121024bdb336904d3f86c7e344267cb90b026ec7d1005807ff5d643cd1f503d106743feffffff3b29ac191d5fcab43b7c638fdf9542132ad6529df94d59fb266cbd1cf53e9f19000000006b483045022100ad46d52c3418de7d0c02d96a488f1319e5b8ee29e8ceb1e6d2a3e368420144cc02207a8a3f9ab5204334a7ed93aa7eb2237e8989cfe5f48f892160b90e878bd7c2a60121032d91b41e7f92f5da86e1ac6c01ddc14c99fc18875e53431681f26d401afb75c1feffffff3d07d7079e6fd5ac19e552158f81e757cbf671d93a094767010f408d4065389f000000006a4730440220027258d4c13882ff3c7f9a4b924acc05212d52c8c97c6741663777eda3b0836f02203ff0a310d43e276c3c6dfa28bfabae4c1d83431ec0d57689beda35f31601cb43012103fb7add977090725b2627d115dadf06b09bfe915bf0b3703c9590a51fd0ebc7fcfeffffff405f04da5b19124a41205f32be7fcb0e82e0406b890b064f06e2002d2ae4e1b1000000006a473044022074a365dbea0266866165d87c0ee0465e23b45281e1028b27ea55e5ac301ff8ec02201c7470a0a283cd751084939533f932950c7ce1c548733988573eab888537fc0b0121038b5739ad1bebee278110cd7f0636de34abec3bfcda76bbcccabfff7246dd647dfeffffff6bb308d16b8ddc162bd5f3d129e0a6a9e48c9d98b8efb3a05638aa2487f7ad7e000000006a4730440220585c65c4dce9646deb8517984171503ad9f384e225e1bde48d33e7b7ca7906d002200bfc0ace8b9b61f235e9332eb4fbd7cd99b758256a6594974e6ca2973ed8c7030121030f7fa72c7365c61bfc6bf7cc123be0dc6bdff656266bd67fdc55678620f25eaffeffffff843cc9cc4e61599ec4c39497d51c281f20f577b4953ef781168baa62369faeac000000006b483045022100fb61c74eed8e69973d8802a8710dc7c73420816a86499fb1951ea7b8b1a7d6f602200abe62af6e38397b2038da7476fe43c2dc749c216d84463df60b86c49286187e012103a7cdd7e771b0d2c3185607288fc4733097e4b58ad8c4bf3e962eddc24bb188b3feffffff9dcc6cab14ab4939ac30a8c6ce332cd196039a2e0984c69b888e1c7b81bdbbcf000000006b483045022100b53d32c74b27ac6c3158e7b3e73940ad1b074d8d481d801fcc645ad4b565cb3502200f2f1907698ba01fe11e3e70fd1eb430565b14771ee971fb3535f12deb2f3ad4012103e56218aa1affcb69019744faff177bb9af67f7371437bcf3117388ac639a8d03feffffffa10c7ea9d2423542fb81f9fc1335f973d471be241919b8e85ed34592090ec1d0000000006b483045022100e52f219ab180442ea056001ff840a23b3a0e672ab2fa54116ad71cbc47b3b7a0022046604d7c8adf8893380b24a2e62460585aff0f51abb16ea38d3b0f699db20c580121021aab14473e6f489048bba7d20b35fdfe65a254eb88a800221ff7c7ff5862c239feffffffb70232967a0f6dd50c5531c628610edcc96524add23c1c58f1297e333b765487000000006a473044022003f764768dee26a7e7fc4b9695dc9700c88c41778ad73827475cb0d6608db19902202b5f73b14333a33c11e73ca2681081b4064286f67ec77ca2e515430b5ee81ed80121030c71027351475764230a8de849d0aba4c680168af17b94aabd0acb08e709d81dfeffffffda60ddae67247ffa9c3f8df4bbd7769f49c8c98b869f44bce607a10b6c0743ec000000006b4830450221008ea543c34cf486ad3f3e1a1284fcec5961779c8337d1044e6a6e8c62ec719f5802200ec1a5b52ee4ad0dba171ea7c9fcec6032eeaf66c8bba8a94a659dd3183257c00121025fb24b8c7a1023543cbf213786cd3725e464bb1f791f7967e8b0b84f522035bdfeffffffe682fe006482fae3c73b07b3ee5a1fe08b7913048ca4670e4ecfb6c1981cc68f000000006a47304402207a252a53772384487503b4411d7ae3f9c409df9ac54024af006ac9b975da471402205f4357166c75a95fe3ec7eb18d8191d8bbe815ac1e140fd3b184dd5c998ab0db0121037d09833b256222ffead6c4982fc55146c8d3a8a2bcc52dfec776aa641f511a53feffffffff6ac25486ef61a65a1ee5eb6cebe9ee8b41f957a7f7663b2f5d90bb7cf844d6010000006b483045022100d0d315f3105be561171e8e359c776492900889bb8b71ea1957a9808b2f968df002203830cc5885d986941c67bcefad703ed15f8700e0774a18c929a4b4e952b2bbcb012102a68c19db4ee513c381fb844c05291fbaed3e75c1c0e2343673d6a19d05c630eafeffffff01fe1b4400000000001976a914c0ed384d183ffb5f2208bfb81067d7d490dcb95788ac14490800", "vin": [{"sequence": 4294967294, "scriptSig": {"hex": "47304402203cca2a9acd13e37e92fafd73b5becff6eaccbe60f3fe25400300e74b047612240220723311a8821be04ada4ba94ebe1bdaedd2404affb56a70a571debddf33cc2f0a012102109ede8937020ff0fd8d48b3f59a8b4c36abcb372181331ac68941cb7306f4ec", "asm": "304402203cca2a9acd13e37e92fafd73b5becff6eaccbe60f3fe25400300e74b047612240220723311a8821be04ada4ba94ebe1bdaedd2404affb56a70a571debddf33cc2f0a[ALL] 02109ede8937020ff0fd8d48b3f59a8b4c36abcb372181331ac68941cb7306f4ec"}, "vout": 1, "txid": "69df9e71c3668e224e0827008518e643aeb459fd2848fb1011818ce6b8a37602"}, {"sequence": 4294967294, "scriptSig": {"hex": "4830450221008e9c37ec0edd8bbb9a1e192a3fd9f2367baa4fd678c118fe4372a1b80db98c9f02201870931f033ad350fe1e60cf2c4bdce181a5c0477c6927e94f279cb747d4c4700121024bdb336904d3f86c7e344267cb90b026ec7d1005807ff5d643cd1f503d106743", "asm": "30450221008e9c37ec0edd8bbb9a1e192a3fd9f2367baa4fd678c118fe4372a1b80db98c9f02201870931f033ad350fe1e60cf2c4bdce181a5c0477c6927e94f279cb747d4c470[ALL] 024bdb336904d3f86c7e344267cb90b026ec7d1005807ff5d643cd1f503d106743"}, "vout": 0, "txid": "b0ec6caec825540d230f2548dd92b9618f258a5e22397a71445469917ef0531e"}, {"sequence": 4294967294, "scriptSig": {"hex": "483045022100ad46d52c3418de7d0c02d96a488f1319e5b8ee29e8ceb1e6d2a3e368420144cc02207a8a3f9ab5204334a7ed93aa7eb2237e8989cfe5f48f892160b90e878bd7c2a60121032d91b41e7f92f5da86e1ac6c01ddc14c99fc18875e53431681f26d401afb75c1", "asm": "3045022100ad46d52c3418de7d0c02d96a488f1319e5b8ee29e8ceb1e6d2a3e368420144cc02207a8a3f9ab5204334a7ed93aa7eb2237e8989cfe5f48f892160b90e878bd7c2a6[ALL] 032d91b41e7f92f5da86e1ac6c01ddc14c99fc18875e53431681f26d401afb75c1"}, "vout": 0, "txid": "199f3ef51cbd6c26fb594df99d52d62a134295df8f637c3bb4ca5f1d19ac293b"}, {"sequence": 4294967294, "scriptSig": {"hex": "4730440220027258d4c13882ff3c7f9a4b924acc05212d52c8c97c6741663777eda3b0836f02203ff0a310d43e276c3c6dfa28bfabae4c1d83431ec0d57689beda35f31601cb43012103fb7add977090725b2627d115dadf06b09bfe915bf0b3703c9590a51fd0ebc7fc", "asm": "30440220027258d4c13882ff3c7f9a4b924acc05212d52c8c97c6741663777eda3b0836f02203ff0a310d43e276c3c6dfa28bfabae4c1d83431ec0d57689beda35f31601cb43[ALL] 03fb7add977090725b2627d115dadf06b09bfe915bf0b3703c9590a51fd0ebc7fc"}, "vout": 0, "txid": "9f3865408d400f016747093ad971f6cb57e7818f1552e519acd56f9e07d7073d"}, {"sequence": 4294967294, "scriptSig": {"hex": "473044022074a365dbea0266866165d87c0ee0465e23b45281e1028b27ea55e5ac301ff8ec02201c7470a0a283cd751084939533f932950c7ce1c548733988573eab888537fc0b0121038b5739ad1bebee278110cd7f0636de34abec3bfcda76bbcccabfff7246dd647d", "asm": "3044022074a365dbea0266866165d87c0ee0465e23b45281e1028b27ea55e5ac301ff8ec02201c7470a0a283cd751084939533f932950c7ce1c548733988573eab888537fc0b[ALL] 038b5739ad1bebee278110cd7f0636de34abec3bfcda76bbcccabfff7246dd647d"}, "vout": 0, "txid": "b1e1e42a2d00e2064f060b896b40e0820ecb7fbe325f20414a12195bda045f40"}, {"sequence": 4294967294, "scriptSig": {"hex": "4730440220585c65c4dce9646deb8517984171503ad9f384e225e1bde48d33e7b7ca7906d002200bfc0ace8b9b61f235e9332eb4fbd7cd99b758256a6594974e6ca2973ed8c7030121030f7fa72c7365c61bfc6bf7cc123be0dc6bdff656266bd67fdc55678620f25eaf", "asm": "30440220585c65c4dce9646deb8517984171503ad9f384e225e1bde48d33e7b7ca7906d002200bfc0ace8b9b61f235e9332eb4fbd7cd99b758256a6594974e6ca2973ed8c703[ALL] 030f7fa72c7365c61bfc6bf7cc123be0dc6bdff656266bd67fdc55678620f25eaf"}, "vout": 0, "txid": "7eadf78724aa3856a0b3efb8989d8ce4a9a6e029d1f3d52b16dc8d6bd108b36b"}, {"sequence": 4294967294, "scriptSig": {"hex": "483045022100fb61c74eed8e69973d8802a8710dc7c73420816a86499fb1951ea7b8b1a7d6f602200abe62af6e38397b2038da7476fe43c2dc749c216d84463df60b86c49286187e012103a7cdd7e771b0d2c3185607288fc4733097e4b58ad8c4bf3e962eddc24bb188b3", "asm": "3045022100fb61c74eed8e69973d8802a8710dc7c73420816a86499fb1951ea7b8b1a7d6f602200abe62af6e38397b2038da7476fe43c2dc749c216d84463df60b86c49286187e[ALL] 03a7cdd7e771b0d2c3185607288fc4733097e4b58ad8c4bf3e962eddc24bb188b3"}, "vout": 0, "txid": "acae9f3662aa8b1681f73e95b477f5201f281cd59794c3c49e59614eccc93c84"}, {"sequence": 4294967294, "scriptSig": {"hex": "483045022100b53d32c74b27ac6c3158e7b3e73940ad1b074d8d481d801fcc645ad4b565cb3502200f2f1907698ba01fe11e3e70fd1eb430565b14771ee971fb3535f12deb2f3ad4012103e56218aa1affcb69019744faff177bb9af67f7371437bcf3117388ac639a8d03", "asm": "3045022100b53d32c74b27ac6c3158e7b3e73940ad1b074d8d481d801fcc645ad4b565cb3502200f2f1907698ba01fe11e3e70fd1eb430565b14771ee971fb3535f12deb2f3ad4[ALL] 03e56218aa1affcb69019744faff177bb9af67f7371437bcf3117388ac639a8d03"}, "vout": 0, "txid": "cfbbbd817b1c8e889bc684092e9a0396d12c33cec6a830ac3949ab14ab6ccc9d"}, {"sequence": 4294967294, "scriptSig": {"hex": "483045022100e52f219ab180442ea056001ff840a23b3a0e672ab2fa54116ad71cbc47b3b7a0022046604d7c8adf8893380b24a2e62460585aff0f51abb16ea38d3b0f699db20c580121021aab14473e6f489048bba7d20b35fdfe65a254eb88a800221ff7c7ff5862c239", "asm": "3045022100e52f219ab180442ea056001ff840a23b3a0e672ab2fa54116ad71cbc47b3b7a0022046604d7c8adf8893380b24a2e62460585aff0f51abb16ea38d3b0f699db20c58[ALL] 021aab14473e6f489048bba7d20b35fdfe65a254eb88a800221ff7c7ff5862c239"}, "vout": 0, "txid": "d0c10e099245d35ee8b8191924be71d473f93513fcf981fb423542d2a97e0ca1"}, {"sequence": 4294967294, "scriptSig": {"hex": "473044022003f764768dee26a7e7fc4b9695dc9700c88c41778ad73827475cb0d6608db19902202b5f73b14333a33c11e73ca2681081b4064286f67ec77ca2e515430b5ee81ed80121030c71027351475764230a8de849d0aba4c680168af17b94aabd0acb08e709d81d", "asm": "3044022003f764768dee26a7e7fc4b9695dc9700c88c41778ad73827475cb0d6608db19902202b5f73b14333a33c11e73ca2681081b4064286f67ec77ca2e515430b5ee81ed8[ALL] 030c71027351475764230a8de849d0aba4c680168af17b94aabd0acb08e709d81d"}, "vout": 0, "txid": "8754763b337e29f1581c3cd2ad2465c9dc0e6128c631550cd56d0f7a963202b7"}, {"sequence": 4294967294, "scriptSig": {"hex": "4830450221008ea543c34cf486ad3f3e1a1284fcec5961779c8337d1044e6a6e8c62ec719f5802200ec1a5b52ee4ad0dba171ea7c9fcec6032eeaf66c8bba8a94a659dd3183257c00121025fb24b8c7a1023543cbf213786cd3725e464bb1f791f7967e8b0b84f522035bd", "asm": "30450221008ea543c34cf486ad3f3e1a1284fcec5961779c8337d1044e6a6e8c62ec719f5802200ec1a5b52ee4ad0dba171ea7c9fcec6032eeaf66c8bba8a94a659dd3183257c0[ALL] 025fb24b8c7a1023543cbf213786cd3725e464bb1f791f7967e8b0b84f522035bd"}, "vout": 0, "txid": "ec43076c0ba107e6bc449f868bc9c8499f76d7bbf48d3f9cfa7f2467aedd60da"}, {"sequence": 4294967294, "scriptSig": {"hex": "47304402207a252a53772384487503b4411d7ae3f9c409df9ac54024af006ac9b975da471402205f4357166c75a95fe3ec7eb18d8191d8bbe815ac1e140fd3b184dd5c998ab0db0121037d09833b256222ffead6c4982fc55146c8d3a8a2bcc52dfec776aa641f511a53", "asm": "304402207a252a53772384487503b4411d7ae3f9c409df9ac54024af006ac9b975da471402205f4357166c75a95fe3ec7eb18d8191d8bbe815ac1e140fd3b184dd5c998ab0db[ALL] 037d09833b256222ffead6c4982fc55146c8d3a8a2bcc52dfec776aa641f511a53"}, "vout": 0, "txid": "8fc61c98c1b6cf4e0e67a48c0413798be01f5aeeb3073bc7e3fa826400fe82e6"}, {"sequence": 4294967294, "scriptSig": {"hex": "483045022100d0d315f3105be561171e8e359c776492900889bb8b71ea1957a9808b2f968df002203830cc5885d986941c67bcefad703ed15f8700e0774a18c929a4b4e952b2bbcb012102a68c19db4ee513c381fb844c05291fbaed3e75c1c0e2343673d6a19d05c630ea", "asm": "3045022100d0d315f3105be561171e8e359c776492900889bb8b71ea1957a9808b2f968df002203830cc5885d986941c67bcefad703ed15f8700e0774a18c929a4b4e952b2bbcb[ALL] 02a68c19db4ee513c381fb844c05291fbaed3e75c1c0e2343673d6a19d05c630ea"}, "vout": 1, "txid": "d644f87cbb905d2f3b66f7a757f9418beee9eb6cebe51e5aa661ef8654c26aff"}], "txid": "c43c701e87be28fab46b59cd4435460c43fcedc2f0443f054d6f681f8831956b", "blocktime": 1537873891, "version": 2, "confirmations": 11475, "time": 1537873891, "locktime": 542996, "vsize": 1962, "size": 1962}