{"hash": "c43f81e00c292a5ec9b60ffb5b6c174d2ce6c5eaa6f3d3dc8b28a276be92588e", "blockhash": "00000000000000000004ffacab907a6b429b9a5745fa0b75af4234bf69dd7176", "vout": [{"scriptPubKey": {"reqSigs": 1, "hex": "76a914ac50ad9f53f7a7ab0de55f1f7bd5c146a87029e088ac", "addresses": ["1Gi7scgt19CidGz8ZpHTrtsMUfXLS6Wt8Q"], "asm": "OP_DUP OP_HASH160 ac50ad9f53f7a7ab0de55f1f7bd5c146a87029e0 OP_EQUALVERIFY OP_CHECKSIG", "type": "pubkeyhash"}, "value": 0.08582481, "n": 0}, {"scriptPubKey": {"type": "nulldata", "hex": "6a146f6d6e69000000000000001f000000629f281840", "asm": "OP_RETURN 6f6d6e69000000000000001f000000629f281840"}, "value": 0.0, "n": 1}, {"scriptPubKey": {"reqSigs": 1, "hex": "76a914146d72a5e83b39ea4e56dc95ce2e338957830ccf88ac", "addresses": ["12s1dQZDjxRMtnmeEzqkzVXCRMWVJH1ThR"], "asm": "OP_DUP OP_HASH160 146d72a5e83b39ea4e56dc95ce2e338957830ccf OP_EQUALVERIFY OP_CHECKSIG", "type": "pubkeyhash"}, "value": 5.46e-06, "n": 2}], "hex": "01000000015dcdf2ef23bb4854b2ed1d2041579c4fc74308bdc56a4dd8dc17ee1c92dcdcec000000006b4830450221009e0ded4eb46cdc79b50eb4ee253a7f490ebc0012f938fda0b6791f662aa7ad3002200471de5f18346b357d8e76412eb832c151769e731dba99df2ec32524e39656c70121035261cbee3658f2d5eda72974ecb86224ec61e3b879b7a7e0f69e87ddfd028580ffffffff0351f58200000000001976a914ac50ad9f53f7a7ab0de55f1f7bd5c146a87029e088ac0000000000000000166a146f6d6e69000000000000001f000000629f28184022020000000000001976a914146d72a5e83b39ea4e56dc95ce2e338957830ccf88ac00000000", "vin": [{"sequence": 4294967295, "scriptSig": {"hex": "4830450221009e0ded4eb46cdc79b50eb4ee253a7f490ebc0012f938fda0b6791f662aa7ad3002200471de5f18346b357d8e76412eb832c151769e731dba99df2ec32524e39656c70121035261cbee3658f2d5eda72974ecb86224ec61e3b879b7a7e0f69e87ddfd028580", "asm": "30450221009e0ded4eb46cdc79b50eb4ee253a7f490ebc0012f938fda0b6791f662aa7ad3002200471de5f18346b357d8e76412eb832c151769e731dba99df2ec32524e39656c7[ALL] 035261cbee3658f2d5eda72974ecb86224ec61e3b879b7a7e0f69e87ddfd028580"}, "vout": 0, "txid": "ecdcdc921cee17dcd84d6ac5bd0843c74f9c5741201dedb25448bb23eff2cd5d"}], "txid": "c43f81e00c292a5ec9b60ffb5b6c174d2ce6c5eaa6f3d3dc8b28a276be92588e", "blocktime": 1537875543, "version": 1, "confirmations": 11464, "time": 1537875543, "locktime": 0, "vsize": 257, "size": 257}