{"hash": "c446ca4758433c14d5fe24e3418f1734c04e7d3fea5dc10f9e4f597e88f857f4", "blockhash": "000000000000000000022b45ed06c6f4ccd3cf7fb5ba4856ebd2e58215665228", "vout": [{"scriptPubKey": {"reqSigs": 1, "hex": "76a914b2ec86be148c591ca6d6ed268c22f6f5939d016388ac", "addresses": ["1HK4dHTyfs9tFbju9nA3w9WX4VFjDfYWZM"], "asm": "OP_DUP OP_HASH160 b2ec86be148c591ca6d6ed268c22f6f5939d0163 OP_EQUALVERIFY OP_CHECKSIG", "type": "pubkeyhash"}, "value": 0.86896081, "n": 0}, {"scriptPubKey": {"type": "nulldata", "hex": "6a146f6d6e69000000000000001f000000155cb9e580", "asm": "OP_RETURN 6f6d6e69000000000000001f000000155cb9e580"}, "value": 0.0, "n": 1}, {"scriptPubKey": {"reqSigs": 1, "hex": "76a914b248ec01a77157e0d730fa21c3ed26e9de18814488ac", "addresses": ["1HFgdrCaNuZ8Bb32gvwHP9X6VzS7ocgcYM"], "asm": "OP_DUP OP_HASH160 b248ec01a77157e0d730fa21c3ed26e9de188144 OP_EQUALVERIFY OP_CHECKSIG", "type": "pubkeyhash"}, "value": 5.46e-06, "n": 2}], "hex": "01000000013ed8991a44b9f045050942223169258e34f90d9a37c5e2c088ed257205648ff8000000006a473044022059a2dab2cdc5b721a5354d86ed7c102b08ccd4a9f0ee1229627c92c2b481c36b02205c2b97d793ee1230f4f67aa48050a68425e085a58b678f36e6f1daa08f31666e0121025a2fab6fb38dc2318cfc50415da4adac7ae54c79b243270068766c793fccb062ffffffff03d1ed2d05000000001976a914b2ec86be148c591ca6d6ed268c22f6f5939d016388ac0000000000000000166a146f6d6e69000000000000001f000000155cb9e58022020000000000001976a914b248ec01a77157e0d730fa21c3ed26e9de18814488ac00000000", "vin": [{"sequence": 4294967295, "scriptSig": {"hex": "473044022059a2dab2cdc5b721a5354d86ed7c102b08ccd4a9f0ee1229627c92c2b481c36b02205c2b97d793ee1230f4f67aa48050a68425e085a58b678f36e6f1daa08f31666e0121025a2fab6fb38dc2318cfc50415da4adac7ae54c79b243270068766c793fccb062", "asm": "3044022059a2dab2cdc5b721a5354d86ed7c102b08ccd4a9f0ee1229627c92c2b481c36b02205c2b97d793ee1230f4f67aa48050a68425e085a58b678f36e6f1daa08f31666e[ALL] 025a2fab6fb38dc2318cfc50415da4adac7ae54c79b243270068766c793fccb062"}, "vout": 0, "txid": "f88f64057225ed88c0e2c5379a0df9348e2569312242090545f0b9441a99d83e"}], "txid": "c446ca4758433c14d5fe24e3418f1734c04e7d3fea5dc10f9e4f597e88f857f4", "blocktime": 1537869901, "version": 1, "confirmations": 11522, "time": 1537869901, "locktime": 0, "vsize": 256, "size": 256}