{"hash": "44444a6045eca93f17f6c01042a50f863d3228fe02f134d76cc980523c35bf19", "blockhash": "0000000000000000000e13cef7c366c0283d82e591d1acd082e914b08063cdf1", "vout": [{"scriptPubKey": {"reqSigs": 1, "hex": "76a9143e7246d5cb2f452688220e32ebf77f13229a757f88ac", "addresses": ["16hBnyiG6YerMTCmXjDkRQ18qkhAUeUS7d"], "asm": "OP_DUP OP_HASH160 3e7246d5cb2f452688220e32ebf77f13229a757f OP_EQUALVERIFY OP_CHECKSIG", "type": "pubkeyhash"}, "value": 0.0216216, "n": 0}, {"scriptPubKey": {"reqSigs": 1, "hex": "a91408c364340a91e77e4376b26fdad3b5aedc5661f787", "addresses": ["32VMQ7Th4qGhbDYY68FZrfSF9hTbsPivgt"], "asm": "OP_HASH160 08c364340a91e77e4376b26fdad3b5aedc5661f7 OP_EQUAL", "type": "scripthash"}, "value": 0.04406389, "n": 1}], "hex": "010000000001018f7708bab3cadb0f492c851964baa365b6f39f52e80ceb36a2db132c9d367142010000002322002027561ef61439ff4994ea3793249bbb358319edb59fff63c1eeada48f299e81b5ffffffff02f0fd2000000000001976a9143e7246d5cb2f452688220e32ebf77f13229a757f88ac753c43000000000017a91408c364340a91e77e4376b26fdad3b5aedc5661f7870400483045022100f66122be67afed36259eab4d96f495f05aa6e36a792cde72b4d8308ebf6dd60c02206e886c19b1d82fd60d369a3391dda7d169f586e779453982be9acefa212c2a97014730440220753fc2922d195a362074113bc65bfe5fcb0ef08e182796d956b3cb65d80677f702201aafd0ce1a98fc6af31af33ebc704d5343a345d6516719686bc044c31972d6370147522102f484437eae67e7d1f9cf7235bd52510c99f379408a1f6fe737011d4bc259358a2103871fc2ca08e6950b38867e8e6a0e94ee625223d3aa0df5c65f414c6d784467e252ae00000000", "vin": [{"txinwitness": ["", "3045022100f66122be67afed36259eab4d96f495f05aa6e36a792cde72b4d8308ebf6dd60c02206e886c19b1d82fd60d369a3391dda7d169f586e779453982be9acefa212c2a9701", "30440220753fc2922d195a362074113bc65bfe5fcb0ef08e182796d956b3cb65d80677f702201aafd0ce1a98fc6af31af33ebc704d5343a345d6516719686bc044c31972d63701", "522102f484437eae67e7d1f9cf7235bd52510c99f379408a1f6fe737011d4bc259358a2103871fc2ca08e6950b38867e8e6a0e94ee625223d3aa0df5c65f414c6d784467e252ae"], "sequence": 4294967295, "scriptSig": {"hex": "22002027561ef61439ff4994ea3793249bbb358319edb59fff63c1eeada48f299e81b5", "asm": "002027561ef61439ff4994ea3793249bbb358319edb59fff63c1eeada48f299e81b5"}, "vout": 1, "txid": "4271369d2c13dba236eb0ce8529ff3b665a3ba6419852c490fdbcab3ba08778f"}], "txid": "c44a0eb96476c0bce6d0ed7f1bf6ce7b9e7b004a92db699a81ca0317cb4f9541", "blocktime": 1537871767, "version": 1, "confirmations": 11495, "time": 1537871767, "locktime": 0, "vsize": 208, "size": 373}