{"hash": "4c7737948a0d7f337cb03238e95b377b09803fb06aab679013d36e1334d4a9e9", "blockhash": "00000000000000000017f5eb5941039fbcee6240d03bc1f2f8e35350df66a1d8", "vout": [{"scriptPubKey": {"reqSigs": 1, "hex": "0014418d37f33891c51c50e7d9bb4f6b8d9bb366e5c5", "addresses": ["bc1qgxxn0uecj8z3c588mxa576udnwekdew9enevl7"], "asm": "0 418d37f33891c51c50e7d9bb4f6b8d9bb366e5c5", "type": "witness_v0_keyhash"}, "value": 5.107e-05, "n": 0}, {"scriptPubKey": {"reqSigs": 1, "hex": "76a9146b1de6e8d71c6be01549675f90dfe31ab25c50a388ac", "addresses": ["1AmP89rEvjWZULzR8RhxSov98w3cKnZKwW"], "asm": "OP_DUP OP_HASH160 6b1de6e8d71c6be01549675f90dfe31ab25c50a3 OP_EQUALVERIFY OP_CHECKSIG", "type": "pubkeyhash"}, "value": 0.00468, "n": 1}], "hex": "0100000000010124fc9eb1752fb594471713cae25f4f470d22ddcc46ae75dbd28a0b5a7858e9230000000000ffffffff02f313000000000000160014418d37f33891c51c50e7d9bb4f6b8d9bb366e5c520240700000000001976a9146b1de6e8d71c6be01549675f90dfe31ab25c50a388ac02483045022100ba61aa0e6b919549fe9ad74b2660473fbb17ee494b617b2e37acec59b1164ed802206f28e515f5be5d4de2bbaa4fbc08dc43c867ff1acfeaca6f0f049f2bd28b2fba012103f83c82281d6b343141494440637d4799ce294e60baee6347229e829e1f97878100000000", "vin": [{"txinwitness": ["3045022100ba61aa0e6b919549fe9ad74b2660473fbb17ee494b617b2e37acec59b1164ed802206f28e515f5be5d4de2bbaa4fbc08dc43c867ff1acfeaca6f0f049f2bd28b2fba01", "03f83c82281d6b343141494440637d4799ce294e60baee6347229e829e1f978781"], "sequence": 4294967295, "scriptSig": {"hex": "", "asm": ""}, "vout": 0, "txid": "23e958785a0b8ad2db75ae46ccdd220d474f5fe2ca13174794b52f75b19efc24"}], "txid": "c44b2c4cce89588106f0e5449340bb6979c17d0bb6e81970857454ffbc02c589", "blocktime": 1537874412, "version": 1, "confirmations": 11467, "time": 1537874412, "locktime": 0, "vsize": 144, "size": 226}