{"hash": "2fabd98955ccb497a6192513869bbc7f00812adaf035f8944c53be82fbf3d137", "blockhash": "0000000000000000001cda96e906b7601b7a6fb1a3b62bca570a9e5d8f4b3de1", "vout": [{"scriptPubKey": {"reqSigs": 1, "hex": "76a914adc866127358f6d64d2158a0dd0c121f6b07786988ac", "addresses": ["1Gqsy8kz1PTTsyLQtFrFmtg53PwaEwh2ww"], "asm": "OP_DUP OP_HASH160 adc866127358f6d64d2158a0dd0c121f6b077869 OP_EQUALVERIFY OP_CHECKSIG", "type": "pubkeyhash"}, "value": 0.010796, "n": 0}, {"scriptPubKey": {"reqSigs": 1, "hex": "76a914f0f330eee9369e2dee91fcec9f35552d459b013d88ac", "addresses": ["1Ny2WFsFeX1retFRTZHjsjszsEzvPFGDtq"], "asm": "OP_DUP OP_HASH160 f0f330eee9369e2dee91fcec9f35552d459b013d OP_EQUALVERIFY OP_CHECKSIG", "type": "pubkeyhash"}, "value": 0.36239214, "n": 1}, {"scriptPubKey": {"reqSigs": 1, "hex": "76a914f300c61da8ed4ef367364f1fb15ccbd275fec99e88ac", "addresses": ["1P9t8PNDVmzCPhmWyuUkkgnp9AwUDimkN4"], "asm": "OP_DUP OP_HASH160 f300c61da8ed4ef367364f1fb15ccbd275fec99e OP_EQUALVERIFY OP_CHECKSIG", "type": "pubkeyhash"}, "value": 1.0, "n": 2}, {"scriptPubKey": {"reqSigs": 1, "hex": "76a914d43c70e65098c24190ae2d9c34da96fa0e726a3e88ac", "addresses": ["1LMCfBdn9ftbnYCBa3cfwHWP5TfsBkV8Zg"], "asm": "OP_DUP OP_HASH160 d43c70e65098c24190ae2d9c34da96fa0e726a3e OP_EQUALVERIFY OP_CHECKSIG", "type": "pubkeyhash"}, "value": 0.09083127, "n": 3}, {"scriptPubKey": {"reqSigs": 1, "hex": "76a914fdfd07e8f67ddf87c43fcf01c766b8339e7564df88ac", "addresses": ["1Q9y5RqFZC7fmnU2gxYDZTqt1REM443Tx8"], "asm": "OP_DUP OP_HASH160 fdfd07e8f67ddf87c43fcf01c766b8339e7564df OP_EQUALVERIFY OP_CHECKSIG", "type": "pubkeyhash"}, "value": 0.015069, "n": 4}, {"scriptPubKey": {"reqSigs": 1, "hex": "a9143d1726015997e024d3db01d73b15a79d236d7dde87", "addresses": ["37G2sdQSfc3x2cdyfM1pq62pPM1Q4SmfuP"], "asm": "OP_HASH160 3d1726015997e024d3db01d73b15a79d236d7dde OP_EQUAL", "type": "scripthash"}, "value": 3.55922911, "n": 5}, {"scriptPubKey": {"reqSigs": 1, "hex": "76a914c8824dc1c656976caf2f890628229a8b5ea2287988ac", "addresses": ["1KHCF2ex95vmYRyVK1xsuvQTZPhCgMSGA9"], "asm": "OP_DUP OP_HASH160 c8824dc1c656976caf2f890628229a8b5ea22879 OP_EQUALVERIFY OP_CHECKSIG", "type": "pubkeyhash"}, "value": 0.03633504, "n": 6}, {"scriptPubKey": {"reqSigs": 1, "hex": "76a914119df9263058d63dead9ec70b3686197259df40d88ac", "addresses": ["12c9jSBbqrF8W2y18epk3zzgReQQMshFrQ"], "asm": "OP_DUP OP_HASH160 119df9263058d63dead9ec70b3686197259df40d OP_EQUALVERIFY OP_CHECKSIG", "type": "pubkeyhash"}, "value": 0.00918144, "n": 7}, {"scriptPubKey": {"reqSigs": 1, "hex": "a914a163b6cb074a80e98369023f95b60e53a284408987", "addresses": ["3GQNAgTTh9tCRUGqSGUPZFWEWmENdPofFP"], "asm": "OP_HASH160 a163b6cb074a80e98369023f95b60e53a2844089 OP_EQUAL", "type": "scripthash"}, "value": 0.03, "n": 8}, {"scriptPubKey": {"reqSigs": 1, "hex": "a9142233d1966e48fcd1af22fb5671d33d5009a2ff5187", "addresses": ["34oryVX1uGt2LZmSkMJetiAsQprdNRnn35"], "asm": "OP_HASH160 2233d1966e48fcd1af22fb5671d33d5009a2ff51 OP_EQUAL", "type": "scripthash"}, "value": 0.2, "n": 9}, {"scriptPubKey": {"reqSigs": 1, "hex": "a914be6ba8d5915ba89b4717050d3f973cdb0773460287", "addresses": ["3K3sHJfRgd2s8vaEdpxWbWQSQMBiyDNqwS"], "asm": "OP_HASH160 be6ba8d5915ba89b4717050d3f973cdb07734602 OP_EQUAL", "type": "scripthash"}, "value": 4.0, "n": 10}, {"scriptPubKey": {"reqSigs": 1, "hex": "76a9148d9af556f0d04076157609a160c98c0c6dc48e5a88ac", "addresses": ["1Dujuk8HmQY4YfDedv9rVZMBRwza5khEG1"], "asm": "OP_DUP OP_HASH160 8d9af556f0d04076157609a160c98c0c6dc48e5a OP_EQUALVERIFY OP_CHECKSIG", "type": "pubkeyhash"}, "value": 0.013569, "n": 11}, {"scriptPubKey": {"reqSigs": 1, "hex": "76a9141bb65bbbde757eab562154fcae65e297877b9a1988ac", "addresses": ["13XXhfCr25Lpe4zHmMxx1n74Q2HZ8bhWGY"], "asm": "OP_DUP OP_HASH160 1bb65bbbde757eab562154fcae65e297877b9a19 OP_EQUALVERIFY OP_CHECKSIG", "type": "pubkeyhash"}, "value": 0.0009647, "n": 12}, {"scriptPubKey": {"reqSigs": 1, "hex": "76a91498a9ce1e7e21a2dfa64872650d1389bf2c7c5c9288ac", "addresses": ["1EvD8Rmgmg7NRWGSS3adsEVKWvSUaqMLq5"], "asm": "OP_DUP OP_HASH160 98a9ce1e7e21a2dfa64872650d1389bf2c7c5c92 OP_EQUALVERIFY OP_CHECKSIG", "type": "pubkeyhash"}, "value": 0.02, "n": 13}, {"scriptPubKey": {"reqSigs": 1, "hex": "a914d2d478b408263146d6ba8e4866c080ee0068347387", "addresses": ["3LunMc8kBAQeSQjMz89uLfGtj9oo6e7mfr"], "asm": "OP_HASH160 d2d478b408263146d6ba8e4866c080ee00683473 OP_EQUAL", "type": "scripthash"}, "value": 0.04, "n": 14}, {"scriptPubKey": {"reqSigs": 1, "hex": "76a91452bdd55fe7c9a606240720917204b193a631810c88ac", "addresses": ["18YVpbNHzYcn293cqDVpaWtcyLEM1QVd7B"], "asm": "OP_DUP OP_HASH160 52bdd55fe7c9a606240720917204b193a631810c OP_EQUALVERIFY OP_CHECKSIG", "type": "pubkeyhash"}, "value": 2.0, "n": 15}, {"scriptPubKey": {"reqSigs": 1, "hex": "76a914487a6456c4ac8339921ff53d9ecf81110aa0c6bb88ac", "addresses": ["17cEGkhjpGmJEyM4N73264rjXjNN7GPobX"], "asm": "OP_DUP OP_HASH160 487a6456c4ac8339921ff53d9ecf81110aa0c6bb OP_EQUALVERIFY OP_CHECKSIG", "type": "pubkeyhash"}, "value": 0.20033799, "n": 16}, {"scriptPubKey": {"reqSigs": 1, "hex": "a9146d8fde2c8db1b674dcea98823cad19f42e0c9c0d87", "addresses": ["3BgKvZtngVWtLGD13moAWGBLD5XQsVUP5d"], "asm": "OP_HASH160 6d8fde2c8db1b674dcea98823cad19f42e0c9c0d OP_EQUAL", "type": "scripthash"}, "value": 1.0, "n": 17}, {"scriptPubKey": {"reqSigs": 1, "hex": "76a914519d01622470d38f47ec8b3231c0fd59e7ec591d88ac", "addresses": ["18SXpTy9Hift81NK6QjCBP4AjLaoNStzvd"], "asm": "OP_DUP OP_HASH160 519d01622470d38f47ec8b3231c0fd59e7ec591d OP_EQUALVERIFY OP_CHECKSIG", "type": "pubkeyhash"}, "value": 0.054339, "n": 18}, {"scriptPubKey": {"reqSigs": 1, "hex": "76a9140ad285e01a2f3a40409cd7fa1d6ff3bbe678f6b488ac", "addresses": ["1zDxJwgoKA7zu5onzr2YP5QWdgNazs6r5"], "asm": "OP_DUP OP_HASH160 0ad285e01a2f3a40409cd7fa1d6ff3bbe678f6b4 OP_EQUALVERIFY OP_CHECKSIG", "type": "pubkeyhash"}, "value": 0.0147608, "n": 19}, {"scriptPubKey": {"reqSigs": 1, "hex": "a914f9d7df350218aa5080c5799271d51e8ad38f522987", "addresses": ["3QU4nMPHzayzdVGNPY1kjsuVxCvWyeScQh"], "asm": "OP_HASH160 f9d7df350218aa5080c5799271d51e8ad38f5229 OP_EQUAL", "type": "scripthash"}, "value": 0.19520008, "n": 20}, {"scriptPubKey": {"reqSigs": 1, "hex": "76a9143f137a9dc7f7ecf174f345c730e084a2c29472f288ac", "addresses": ["16kWuWTWybmbiUn5P11vNiCHD6f1KPafL9"], "asm": "OP_DUP OP_HASH160 3f137a9dc7f7ecf174f345c730e084a2c29472f2 OP_EQUALVERIFY OP_CHECKSIG", "type": "pubkeyhash"}, "value": 0.025, "n": 21}, {"scriptPubKey": {"reqSigs": 1, "hex": "76a9141eb529a12279af61797161a4c321fc9b82ef496c88ac", "addresses": ["13oNJ9wJRJj17Ncr6cVE5VPCSWvKkVs4vX"], "asm": "OP_DUP OP_HASH160 1eb529a12279af61797161a4c321fc9b82ef496c OP_EQUALVERIFY OP_CHECKSIG", "type": "pubkeyhash"}, "value": 0.017, "n": 22}, {"scriptPubKey": {"reqSigs": 1, "hex": "a9148226a97fab56363f7eba1020b2f79c1be33dc3f287", "addresses": ["3DZC5midEbSVFWpnPAmf1H3pjDBN8UWokF"], "asm": "OP_HASH160 8226a97fab56363f7eba1020b2f79c1be33dc3f2 OP_EQUAL", "type": "scripthash"}, "value": 3.05184701, "n": 23}, {"scriptPubKey": {"reqSigs": 1, "hex": "76a914ed57ade8d9fc4b01bb8f990eac6092b38ebb047988ac", "addresses": ["1NdxBXnTxXyMfHRwXjMpPDUHdMqxWstc46"], "asm": "OP_DUP OP_HASH160 ed57ade8d9fc4b01bb8f990eac6092b38ebb0479 OP_EQUALVERIFY OP_CHECKSIG", "type": "pubkeyhash"}, "value": 0.01090021, "n": 24}, {"scriptPubKey": {"reqSigs": 1, "hex": "76a914d2f7596b05400b8377fbeef42e5f628b6b6c975688ac", "addresses": ["1LEVDR2hcp5KcCTSz7G1NdUWQkMyDgQkcV"], "asm": "OP_DUP OP_HASH160 d2f7596b05400b8377fbeef42e5f628b6b6c9756 OP_EQUALVERIFY OP_CHECKSIG", "type": "pubkeyhash"}, "value": 1.0, "n": 25}, {"scriptPubKey": {"reqSigs": 1, "hex": "a91469f374b525b6cea919fe0bb24f76b87dfc9d9ed787", "addresses": ["3BMEXJDd75AsCsReDjwgHRg9DVPnBSbwSq"], "asm": "OP_HASH160 69f374b525b6cea919fe0bb24f76b87dfc9d9ed7 OP_EQUAL", "type": "scripthash"}, "value": 0.01, "n": 26}, {"scriptPubKey": {"reqSigs": 1, "hex": "a914e11d85aa9ab0c9da9821b89a4c79ff300610480d87", "addresses": ["3NDKKwSbqpa2eUJkK7umadbH1NmRCWVBu2"], "asm": "OP_HASH160 e11d85aa9ab0c9da9821b89a4c79ff300610480d OP_EQUAL", "type": "scripthash"}, "value": 1.96275536, "n": 27}, {"scriptPubKey": {"reqSigs": 1, "hex": "a9140b47c88bc44ed926bef214c43c91b6def6d8e0e487", "addresses": ["32ifMFVnxbxTNV2XtfXq5eZZT8TBfqWxhN"], "asm": "OP_HASH160 0b47c88bc44ed926bef214c43c91b6def6d8e0e4 OP_EQUAL", "type": "scripthash"}, "value": 0.04943447, "n": 28}, {"scriptPubKey": {"reqSigs": 1, "hex": "76a914289db814afae6fcbd2f0852643cb88d273c3991088ac", "addresses": ["14hkyBnkV2P7GuPxzgZW8F4pdwZXnEXHgc"], "asm": "OP_DUP OP_HASH160 289db814afae6fcbd2f0852643cb88d273c39910 OP_EQUALVERIFY OP_CHECKSIG", "type": "pubkeyhash"}, "value": 0.01353366, "n": 29}, {"scriptPubKey": {"reqSigs": 1, "hex": "76a914194775db0628ec8938ee6f6ef918bdf62b5d066888ac", "addresses": ["13JfVx5G161ntBPbUktXDcSqyihPvTHqPB"], "asm": "OP_DUP OP_HASH160 194775db0628ec8938ee6f6ef918bdf62b5d0668 OP_EQUALVERIFY OP_CHECKSIG", "type": "pubkeyhash"}, "value": 0.0184496, "n": 30}, {"scriptPubKey": {"reqSigs": 1, "hex": "a914e73298acc5548d7f7311d0275f264cd670c000ac87", "addresses": ["3NmUdMYukirXfqAp4Z499dFYaDHr2mdzha"], "asm": "OP_HASH160 e73298acc5548d7f7311d0275f264cd670c000ac OP_EQUAL", "type": "scripthash"}, "value": 0.24205545, "n": 31}, {"scriptPubKey": {"reqSigs": 1, "hex": "76a914b264515e5f7befb923ccc4fd1164c49fe871e15788ac", "addresses": ["1HGFTMR2RxqS7uL7attEkvpRuHA5gdzQmp"], "asm": "OP_DUP OP_HASH160 b264515e5f7befb923ccc4fd1164c49fe871e157 OP_EQUALVERIFY OP_CHECKSIG", "type": "pubkeyhash"}, "value": 0.91510785, "n": 32}, {"scriptPubKey": {"reqSigs": 1, "hex": "a91469f3768f98f9b506379a07ef06a7391f3cb3cb1987", "addresses": ["3BMEXoPkjxtfNJAmXwxc6gDX6bFgiwDPyt"], "asm": "OP_HASH160 69f3768f98f9b506379a07ef06a7391f3cb3cb19 OP_EQUAL", "type": "scripthash"}, "value": 0.09847735, "n": 33}, {"scriptPubKey": {"reqSigs": 1, "hex": "a914dff41dec93f3e02879045812d81e6bb2e9b2b60987", "addresses": ["3N7B3rtHaV2okh6e4Q7TEuDZQVpS3jMyBE"], "asm": "OP_HASH160 dff41dec93f3e02879045812d81e6bb2e9b2b609 OP_EQUAL", "type": "scripthash"}, "value": 0.024, "n": 34}, {"scriptPubKey": {"reqSigs": 1, "hex": "a91483049d9b6aaacf062db4d3efa0ecfbb51a22b4db87", "addresses": ["3DdmyNgnUVCrDEhdzbaURTo62V52mvNpbq"], "asm": "OP_HASH160 83049d9b6aaacf062db4d3efa0ecfbb51a22b4db OP_EQUAL", "type": "scripthash"}, "value": 2.05018974, "n": 35}], "hex": "01000000000108a192656b139bf44b6f5261cb9aec05c73c9f14004c31545237c15aa1c159a4dc03000000fdfe0000483045022100db988012fb8185ffe0a3906a803c89c10438c1eea8a9a9396594d644b7de7b1802204f9700e66c6a01c2fdfa7498338bb2ba7a03c917b98f012996e8d02ddb5efa8801483045022100a71c8ba510be6823341d3b43e355dba43a0d4055a8f99eb20a9cd72a2d10f8a202200fe52b70014766b83060d014facda810e8e9e2119bde532d5aea655b41fcab75014c69522102a52469edfd22805eda3d8257c57b341d53aa32a9d3297e0d9c95ed5de6443092210338f4f722353b77dca0c71841692624de3c44439cad0fdb2e70fc3af22dc7c2952102c58ab73ad8cfa10e209f87e2c68b216717869b93347e0d06d84f15b4b3f9937053aeffffffff9d0b4ab647a3699a93506ad85700abdfc8bbb435b8d0491033e2c663facad16e02000000fdfd0000483045022100d444d8e8b29709b9c7960c20019945620f77dec83927d93a39dda12b90dd060d0220527c5120161f5036ce24c414518879199b9b6c2fb60ce83b6284ef2e045f5095014730440220252d78d1cafcfd55c3ed7dae49fb636eec20361ad9bd6c8b5b4af51969f6e58a0220089ad458184ad6c8b51dd5bac9f32fa03a00ba96754c6e9897e647bc331c8d42014c69522102a52469edfd22805eda3d8257c57b341d53aa32a9d3297e0d9c95ed5de6443092210338f4f722353b77dca0c71841692624de3c44439cad0fdb2e70fc3af22dc7c2952102c58ab73ad8cfa10e209f87e2c68b216717869b93347e0d06d84f15b4b3f9937053aeffffffff67185335893d37b000bdc34096237a5eebb230a8a32d67b5343de08131f739020000000023220020f38b8bca38da7b028bf85fd89d1e0e7d6f73f15dc1d25abe3d6fb871e8fc29f5ffffffff8ca5e8ee3ff85e7cf1a2a644117b5939766958a1474f2fd64f9bf48a31ccfad301000000fc0047304402200ffd0059ee6b71055b0a728bb32791349cbd7d626c26fb39a07cb7ef7760980c022071089f6c0a48c4853cb35f9b0710085eba8327448b51118b2478b3f3804f9ce00147304402202dbdfd1762b0a4a5c1a630148f323e85f9ff2872569830ff75770c72705fc3cb02200aaee06afef49e246b14122af8838e58cad4d5e87bdcc071d2e16a7d38a38399014c695221036be9a4e572015d0e43919ae4aac31b995c12b09b6c399542c024e92218c233602103d66a67b34c904675d2d98b80c8bb6f841d89eb8af5d11e445cb283ac45a3a3172103670fa13b2b0165bc9b8340ac43ab508c0bd6b2fba9b582c7fe816ee054efa57253aeffffffffe8caff9536f84666ce4bb074ce297334aac5cc851ab92da787ff0eb1e013e9440300000023220020072964175b066ac4a5532867ac7bdc7a77b7aaf7fa1527f00e1a552731182736ffffffffef3828127c1ed1e60b713d64855ada7ada0ff48e7fbc61fe9134488d17b243f80f000000232200207a133b8214542b0b66afafd32b19bd410d37601debbbd57a326afde0570f4af5ffffffff5c4a30a017c1308e6ceeedf69438006c65178665353654b895b96ef0252d597104000000fdfe0000483045022100afcbfb56d73f6192ebfbe67466644d857ddc0d140021774bc40a16214f4e37cd022021d6eb9e2912437a003874504a9d55a64cee5eeeff1fccd3128648635e5d937101483045022100859ab707f238d8f2986e443e8f8e4ddc575dac97bd2d5db29bc47a357915797a02206b06c9cffc54f8c3a228b46eecdbd66f33c5713e77dc3ac4e375a6ed9d26fabd014c695221036be9a4e572015d0e43919ae4aac31b995c12b09b6c399542c024e92218c233602103d66a67b34c904675d2d98b80c8bb6f841d89eb8af5d11e445cb283ac45a3a3172103670fa13b2b0165bc9b8340ac43ab508c0bd6b2fba9b582c7fe816ee054efa57253aeffffffff64748065454ba352a8c0b076cf731931bb1a6f586774dc7a39805c4bf059bcd30600000023220020f918cafb061b00337d9f9aba7e452154f2101e208da154b0e094592a66b85b61ffffffff2430791000000000001976a914adc866127358f6d64d2158a0dd0c121f6b07786988ac6ef72802000000001976a914f0f330eee9369e2dee91fcec9f35552d459b013d88ac00e1f505000000001976a914f300c61da8ed4ef367364f1fb15ccbd275fec99e88acf7988a00000000001976a914d43c70e65098c24190ae2d9c34da96fa0e726a3e88ac54fe1600000000001976a914fdfd07e8f67ddf87c43fcf01c766b8339e7564df88acdff336150000000017a9143d1726015997e024d3db01d73b15a79d236d7dde8760713700000000001976a914c8824dc1c656976caf2f890628229a8b5ea2287988ac80020e00000000001976a914119df9263058d63dead9ec70b3686197259df40d88acc0c62d000000000017a914a163b6cb074a80e98369023f95b60e53a284408987002d31010000000017a9142233d1966e48fcd1af22fb5671d33d5009a2ff51870084d7170000000017a914be6ba8d5915ba89b4717050d3f973cdb077346028764b41400000000001976a9148d9af556f0d04076157609a160c98c0c6dc48e5a88acd6780100000000001976a9141bb65bbbde757eab562154fcae65e297877b9a1988ac80841e00000000001976a91498a9ce1e7e21a2dfa64872650d1389bf2c7c5c9288ac00093d000000000017a914d2d478b408263146d6ba8e4866c080ee006834738700c2eb0b000000001976a91452bdd55fe7c9a606240720917204b193a631810c88ac07b13101000000001976a914487a6456c4ac8339921ff53d9ecf81110aa0c6bb88ac00e1f5050000000017a9146d8fde2c8db1b674dcea98823cad19f42e0c9c0d872cea5200000000001976a914519d01622470d38f47ec8b3231c0fd59e7ec591d88acf0851600000000001976a9140ad285e01a2f3a40409cd7fa1d6ff3bbe678f6b488ac08da29010000000017a914f9d7df350218aa5080c5799271d51e8ad38f522987a0252600000000001976a9143f137a9dc7f7ecf174f345c730e084a2c29472f288aca0f01900000000001976a9141eb529a12279af61797161a4c321fc9b82ef496c88acbdbf30120000000017a9148226a97fab56363f7eba1020b2f79c1be33dc3f287e5a11000000000001976a914ed57ade8d9fc4b01bb8f990eac6092b38ebb047988ac00e1f505000000001976a914d2f7596b05400b8377fbeef42e5f628b6b6c975688ac40420f000000000017a91469f374b525b6cea919fe0bb24f76b87dfc9d9ed78750edb20b0000000017a914e11d85aa9ab0c9da9821b89a4c79ff300610480d87576e4b000000000017a9140b47c88bc44ed926bef214c43c91b6def6d8e0e48796a61400000000001976a914289db814afae6fcbd2f0852643cb88d273c3991088ace0261c00000000001976a914194775db0628ec8938ee6f6ef918bdf62b5d066888ace95871010000000017a914e73298acc5548d7f7311d0275f264cd670c000ac8701587405000000001976a914b264515e5f7befb923ccc4fd1164c49fe871e15788acb74396000000000017a91469f3768f98f9b506379a07ef06a7391f3cb3cb1987009f24000000000017a914dff41dec93f3e02879045812d81e6bb2e9b2b609875e57380c0000000017a91483049d9b6aaacf062db4d3efa0ecfbb51a22b4db870000040047304402202f2c6d0723494b9412aebc19d723f4e942d7e8566a974da1680c739c49c388e602207dd7d1d0791a1c71c04e7e42b11480932123b78731e0c7a6fc0751052964403c01483045022100baabaa6d5ae60edec98835990bb2f37ac69941ba3f6ca84259be54337e1660bb02203da3096fe28a782cab7ee8be35c13160b15125db9026084583c9e03af8fd2d600169522103e402f3323399bddcca058c4b4175accafbf81a5385bfe58efd086656ae0e58092103d44663ba44aaff62c6941ad4083d831f6a5c84dc64c750b7c702b6a29d8d61d12103d1b28bdf6d637ce7516ab5a2ee33e04230d726c6ebf5a3508183fc7e508e24f853ae000400483045022100df4446dd91f9a649ee504a0ac7ac4dfeedcc574585437122860ff4000a68e61402206b06476b63efc00e427b8e9b722b4030b48175fdf152cfdbe199c88c06f9d0ea01483045022100e2c9de118b5de2193c541d56269c8f371d56bb8f33b9d57f55799721437c470202202f72d0e09c316d7b3a028c4925dca064cb8fabbdf3897ac61fad074ad608df2101695221032a9a29250d91327523351331553cd046926f3c388b7048ac0f01bebbdc88ec2e210217f6f25bc97c2ecc1873ae03cc701e5839129d5a1eb8ed7a84684f1fee4966212103959e3a875b9a1f63a5fc9c04f5dfcd7f1015524ed7f8e1fb26dfb0eb3a40842e53ae0400483045022100ca2edc5925724e40e7ed3df72ae6a7a2d807c447327d076953a3bae35d8ad1690220271d8a88d21fb0b0ac04d9143b534c302ccd15d325f542aefd107da85448ca6b014730440220633305a7faef05908926934d625b89f5a36dd24d5c793c79cd3dc44969043a60022065be05f59c6f31dababf3d36f824bd1a06eaa4f2b306bccc7fa78eda65fd0c4e016952210204c318d940af20581539193a8c27dae43d6f33190a9f277c26bca1d770fbf9232102b0e442c147b51cc9c5dbd08e6cb59a032252f6bb6f93a268c136086116ee097e2102dc331d135fc3333fdb7a235841ac43f8f4c415d66ea063f94678beb4c950c8b453ae000400483045022100bb0947bf24aa687721344ac3ce298266d566b8562f2ef54c78312392575005a00220230c89286087f45613b655ec2c1abd1650a57f8b2648a6463d41c31742b08f040147304402203fec00ccbf8f31a3ebed49afa40ebfe63f453edf3682ed183a429939448232f402200e78418cc1456d6741b06afe0a01f785fdbb321d11bac98c516f8639bff5ab5b0169522103fae1a86cc20d7a65e64d9277b3fc0258bb5dac1d424b49695091ed0f52c30b052103dc85d1af6cdd9229d0cf064b98c5986d23c18197db32760dd1fcea8e6de838e421037ab6cec1440cb093673d398dff627b25ccae660076d6ba572ed52be65c24738453ae00000000", "vin": [{"sequence": 4294967295, "scriptSig": {"hex": "00483045022100db988012fb8185ffe0a3906a803c89c10438c1eea8a9a9396594d644b7de7b1802204f9700e66c6a01c2fdfa7498338bb2ba7a03c917b98f012996e8d02ddb5efa8801483045022100a71c8ba510be6823341d3b43e355dba43a0d4055a8f99eb20a9cd72a2d10f8a202200fe52b70014766b83060d014facda810e8e9e2119bde532d5aea655b41fcab75014c69522102a52469edfd22805eda3d8257c57b341d53aa32a9d3297e0d9c95ed5de6443092210338f4f722353b77dca0c71841692624de3c44439cad0fdb2e70fc3af22dc7c2952102c58ab73ad8cfa10e209f87e2c68b216717869b93347e0d06d84f15b4b3f9937053ae", "asm": "0 3045022100db988012fb8185ffe0a3906a803c89c10438c1eea8a9a9396594d644b7de7b1802204f9700e66c6a01c2fdfa7498338bb2ba7a03c917b98f012996e8d02ddb5efa88[ALL] 3045022100a71c8ba510be6823341d3b43e355dba43a0d4055a8f99eb20a9cd72a2d10f8a202200fe52b70014766b83060d014facda810e8e9e2119bde532d5aea655b41fcab75[ALL] 522102a52469edfd22805eda3d8257c57b341d53aa32a9d3297e0d9c95ed5de6443092210338f4f722353b77dca0c71841692624de3c44439cad0fdb2e70fc3af22dc7c2952102c58ab73ad8cfa10e209f87e2c68b216717869b93347e0d06d84f15b4b3f9937053ae"}, "vout": 3, "txid": "dca459c1a15ac1375254314c00149f3cc705ec9acb61526f4bf49b136b6592a1"}, {"sequence": 4294967295, "scriptSig": {"hex": "00483045022100d444d8e8b29709b9c7960c20019945620f77dec83927d93a39dda12b90dd060d0220527c5120161f5036ce24c414518879199b9b6c2fb60ce83b6284ef2e045f5095014730440220252d78d1cafcfd55c3ed7dae49fb636eec20361ad9bd6c8b5b4af51969f6e58a0220089ad458184ad6c8b51dd5bac9f32fa03a00ba96754c6e9897e647bc331c8d42014c69522102a52469edfd22805eda3d8257c57b341d53aa32a9d3297e0d9c95ed5de6443092210338f4f722353b77dca0c71841692624de3c44439cad0fdb2e70fc3af22dc7c2952102c58ab73ad8cfa10e209f87e2c68b216717869b93347e0d06d84f15b4b3f9937053ae", "asm": "0 3045022100d444d8e8b29709b9c7960c20019945620f77dec83927d93a39dda12b90dd060d0220527c5120161f5036ce24c414518879199b9b6c2fb60ce83b6284ef2e045f5095[ALL] 30440220252d78d1cafcfd55c3ed7dae49fb636eec20361ad9bd6c8b5b4af51969f6e58a0220089ad458184ad6c8b51dd5bac9f32fa03a00ba96754c6e9897e647bc331c8d42[ALL] 522102a52469edfd22805eda3d8257c57b341d53aa32a9d3297e0d9c95ed5de6443092210338f4f722353b77dca0c71841692624de3c44439cad0fdb2e70fc3af22dc7c2952102c58ab73ad8cfa10e209f87e2c68b216717869b93347e0d06d84f15b4b3f9937053ae"}, "vout": 2, "txid": "6ed1cafa63c6e2331049d0b835b4bbc8dfab0057d86a50939a69a347b64a0b9d"}, {"txinwitness": ["", "304402202f2c6d0723494b9412aebc19d723f4e942d7e8566a974da1680c739c49c388e602207dd7d1d0791a1c71c04e7e42b11480932123b78731e0c7a6fc0751052964403c01", "3045022100baabaa6d5ae60edec98835990bb2f37ac69941ba3f6ca84259be54337e1660bb02203da3096fe28a782cab7ee8be35c13160b15125db9026084583c9e03af8fd2d6001", "522103e402f3323399bddcca058c4b4175accafbf81a5385bfe58efd086656ae0e58092103d44663ba44aaff62c6941ad4083d831f6a5c84dc64c750b7c702b6a29d8d61d12103d1b28bdf6d637ce7516ab5a2ee33e04230d726c6ebf5a3508183fc7e508e24f853ae"], "sequence": 4294967295, "scriptSig": {"hex": "220020f38b8bca38da7b028bf85fd89d1e0e7d6f73f15dc1d25abe3d6fb871e8fc29f5", "asm": "0020f38b8bca38da7b028bf85fd89d1e0e7d6f73f15dc1d25abe3d6fb871e8fc29f5"}, "vout": 0, "txid": "0239f73181e03d34b5672da3a830b2eb5e7a239640c3bd00b0373d8935531867"}, {"sequence": 4294967295, "scriptSig": {"hex": "0047304402200ffd0059ee6b71055b0a728bb32791349cbd7d626c26fb39a07cb7ef7760980c022071089f6c0a48c4853cb35f9b0710085eba8327448b51118b2478b3f3804f9ce00147304402202dbdfd1762b0a4a5c1a630148f323e85f9ff2872569830ff75770c72705fc3cb02200aaee06afef49e246b14122af8838e58cad4d5e87bdcc071d2e16a7d38a38399014c695221036be9a4e572015d0e43919ae4aac31b995c12b09b6c399542c024e92218c233602103d66a67b34c904675d2d98b80c8bb6f841d89eb8af5d11e445cb283ac45a3a3172103670fa13b2b0165bc9b8340ac43ab508c0bd6b2fba9b582c7fe816ee054efa57253ae", "asm": "0 304402200ffd0059ee6b71055b0a728bb32791349cbd7d626c26fb39a07cb7ef7760980c022071089f6c0a48c4853cb35f9b0710085eba8327448b51118b2478b3f3804f9ce0[ALL] 304402202dbdfd1762b0a4a5c1a630148f323e85f9ff2872569830ff75770c72705fc3cb02200aaee06afef49e246b14122af8838e58cad4d5e87bdcc071d2e16a7d38a38399[ALL] 5221036be9a4e572015d0e43919ae4aac31b995c12b09b6c399542c024e92218c233602103d66a67b34c904675d2d98b80c8bb6f841d89eb8af5d11e445cb283ac45a3a3172103670fa13b2b0165bc9b8340ac43ab508c0bd6b2fba9b582c7fe816ee054efa57253ae"}, "vout": 1, "txid": "d3facc318af49b4fd62f4f47a158697639597b1144a6a2f17c5ef83feee8a58c"}, {"txinwitness": ["", "3045022100df4446dd91f9a649ee504a0ac7ac4dfeedcc574585437122860ff4000a68e61402206b06476b63efc00e427b8e9b722b4030b48175fdf152cfdbe199c88c06f9d0ea01", "3045022100e2c9de118b5de2193c541d56269c8f371d56bb8f33b9d57f55799721437c470202202f72d0e09c316d7b3a028c4925dca064cb8fabbdf3897ac61fad074ad608df2101", "5221032a9a29250d91327523351331553cd046926f3c388b7048ac0f01bebbdc88ec2e210217f6f25bc97c2ecc1873ae03cc701e5839129d5a1eb8ed7a84684f1fee4966212103959e3a875b9a1f63a5fc9c04f5dfcd7f1015524ed7f8e1fb26dfb0eb3a40842e53ae"], "sequence": 4294967295, "scriptSig": {"hex": "220020072964175b066ac4a5532867ac7bdc7a77b7aaf7fa1527f00e1a552731182736", "asm": "0020072964175b066ac4a5532867ac7bdc7a77b7aaf7fa1527f00e1a552731182736"}, "vout": 3, "txid": "44e913e0b10eff87a72db91a85ccc5aa347329ce74b04bce6646f83695ffcae8"}, {"txinwitness": ["", "3045022100ca2edc5925724e40e7ed3df72ae6a7a2d807c447327d076953a3bae35d8ad1690220271d8a88d21fb0b0ac04d9143b534c302ccd15d325f542aefd107da85448ca6b01", "30440220633305a7faef05908926934d625b89f5a36dd24d5c793c79cd3dc44969043a60022065be05f59c6f31dababf3d36f824bd1a06eaa4f2b306bccc7fa78eda65fd0c4e01", "52210204c318d940af20581539193a8c27dae43d6f33190a9f277c26bca1d770fbf9232102b0e442c147b51cc9c5dbd08e6cb59a032252f6bb6f93a268c136086116ee097e2102dc331d135fc3333fdb7a235841ac43f8f4c415d66ea063f94678beb4c950c8b453ae"], "sequence": 4294967295, "scriptSig": {"hex": "2200207a133b8214542b0b66afafd32b19bd410d37601debbbd57a326afde0570f4af5", "asm": "00207a133b8214542b0b66afafd32b19bd410d37601debbbd57a326afde0570f4af5"}, "vout": 15, "txid": "f843b2178d483491fe61bc7f8ef40fda7ada5a85643d710be6d11e7c122838ef"}, {"sequence": 4294967295, "scriptSig": {"hex": "00483045022100afcbfb56d73f6192ebfbe67466644d857ddc0d140021774bc40a16214f4e37cd022021d6eb9e2912437a003874504a9d55a64cee5eeeff1fccd3128648635e5d937101483045022100859ab707f238d8f2986e443e8f8e4ddc575dac97bd2d5db29bc47a357915797a02206b06c9cffc54f8c3a228b46eecdbd66f33c5713e77dc3ac4e375a6ed9d26fabd014c695221036be9a4e572015d0e43919ae4aac31b995c12b09b6c399542c024e92218c233602103d66a67b34c904675d2d98b80c8bb6f841d89eb8af5d11e445cb283ac45a3a3172103670fa13b2b0165bc9b8340ac43ab508c0bd6b2fba9b582c7fe816ee054efa57253ae", "asm": "0 3045022100afcbfb56d73f6192ebfbe67466644d857ddc0d140021774bc40a16214f4e37cd022021d6eb9e2912437a003874504a9d55a64cee5eeeff1fccd3128648635e5d9371[ALL] 3045022100859ab707f238d8f2986e443e8f8e4ddc575dac97bd2d5db29bc47a357915797a02206b06c9cffc54f8c3a228b46eecdbd66f33c5713e77dc3ac4e375a6ed9d26fabd[ALL] 5221036be9a4e572015d0e43919ae4aac31b995c12b09b6c399542c024e92218c233602103d66a67b34c904675d2d98b80c8bb6f841d89eb8af5d11e445cb283ac45a3a3172103670fa13b2b0165bc9b8340ac43ab508c0bd6b2fba9b582c7fe816ee054efa57253ae"}, "vout": 4, "txid": "71592d25f06eb995b8543635658617656c003894f6edee6c8e30c117a0304a5c"}, {"txinwitness": ["", "3045022100bb0947bf24aa687721344ac3ce298266d566b8562f2ef54c78312392575005a00220230c89286087f45613b655ec2c1abd1650a57f8b2648a6463d41c31742b08f0401", "304402203fec00ccbf8f31a3ebed49afa40ebfe63f453edf3682ed183a429939448232f402200e78418cc1456d6741b06afe0a01f785fdbb321d11bac98c516f8639bff5ab5b01", "522103fae1a86cc20d7a65e64d9277b3fc0258bb5dac1d424b49695091ed0f52c30b052103dc85d1af6cdd9229d0cf064b98c5986d23c18197db32760dd1fcea8e6de838e421037ab6cec1440cb093673d398dff627b25ccae660076d6ba572ed52be65c24738453ae"], "sequence": 4294967295, "scriptSig": {"hex": "220020f918cafb061b00337d9f9aba7e452154f2101e208da154b0e094592a66b85b61", "asm": "0020f918cafb061b00337d9f9aba7e452154f2101e208da154b0e094592a66b85b61"}, "vout": 6, "txid": "d3bc59f04b5c80397adc7467586f1abb311973cf76b0c0a852a34b4565807464"}], "txid": "c4590f1d1ecf38af3766416a83a8b09cc359f32a3c446579fe8ca9d373e73864", "blocktime": 1537873282, "version": 1, "confirmations": 11484, "time": 1537873282, "locktime": 0, "vsize": 2946, "size": 3710}