{"hash": "c45ce854fb31f3fe62f7ddb91a9fffb18162ddfdf5e6bf1e6a52aac7e7ad57b1", "blockhash": "0000000000000000001cda96e906b7601b7a6fb1a3b62bca570a9e5d8f4b3de1", "vout": [{"scriptPubKey": {"reqSigs": 1, "hex": "76a9145d3913fbae9dfc5d959d4b8209a9dd4bf2f757bc88ac", "addresses": ["19VvDhDGcDHNMWoDnNi4VJE58EUZXD6xLa"], "asm": "OP_DUP OP_HASH160 5d3913fbae9dfc5d959d4b8209a9dd4bf2f757bc OP_EQUALVERIFY OP_CHECKSIG", "type": "pubkeyhash"}, "value": 0.11984368, "n": 0}, {"scriptPubKey": {"reqSigs": 1, "hex": "76a914661a584eb7e212fefbe0b4cdd9e88164cb123d2288ac", "addresses": ["1AJsV3fjw4ffkSJUbmV9RGuaHGYrTXwf1Q"], "asm": "OP_DUP OP_HASH160 661a584eb7e212fefbe0b4cdd9e88164cb123d22 OP_EQUALVERIFY OP_CHECKSIG", "type": "pubkeyhash"}, "value": 1.0, "n": 1}], "hex": "010000000214c9fc65fa610e8b641ea1f95f8acbf4070e91d6ad1fbfe6e818ab084b78a637000000006a47304402204fa2a001363114d546309097c640b46b37b6327b0c17e0d5e089d25ac7958f5602201095f175a54441ee4bfed58f58ead05de846730c37560c984887e2645db5c862012103641b7772e52178cddeadd794c9636a4360fc70a2e968629372df56ff878c732dffffffff76149b59b85b90f70d2e6bafb1d9cb85b4172de3ea8e371e06409c45807255bc000000006a4730440220629c6aecad431b7dd68ba979dffcd817b0ecefef2aebe18deddcb18a28a3e3e102204b3acf0daddb2b7c34e2369d655d47b07aaf191bac7b66239c81a5fc0c531d88012102cb17b2a467aa236589982f8e8f3c81cb705557d2cf5026fe341d0ef8af63ba7cffffffff02f0ddb600000000001976a9145d3913fbae9dfc5d959d4b8209a9dd4bf2f757bc88ac00e1f505000000001976a914661a584eb7e212fefbe0b4cdd9e88164cb123d2288ac00000000", "vin": [{"sequence": 4294967295, "scriptSig": {"hex": "47304402204fa2a001363114d546309097c640b46b37b6327b0c17e0d5e089d25ac7958f5602201095f175a54441ee4bfed58f58ead05de846730c37560c984887e2645db5c862012103641b7772e52178cddeadd794c9636a4360fc70a2e968629372df56ff878c732d", "asm": "304402204fa2a001363114d546309097c640b46b37b6327b0c17e0d5e089d25ac7958f5602201095f175a54441ee4bfed58f58ead05de846730c37560c984887e2645db5c862[ALL] 03641b7772e52178cddeadd794c9636a4360fc70a2e968629372df56ff878c732d"}, "vout": 0, "txid": "37a6784b08ab18e8e6bf1fadd6910e07f4cb8a5ff9a11e648b0e61fa65fcc914"}, {"sequence": 4294967295, "scriptSig": {"hex": "4730440220629c6aecad431b7dd68ba979dffcd817b0ecefef2aebe18deddcb18a28a3e3e102204b3acf0daddb2b7c34e2369d655d47b07aaf191bac7b66239c81a5fc0c531d88012102cb17b2a467aa236589982f8e8f3c81cb705557d2cf5026fe341d0ef8af63ba7c", "asm": "30440220629c6aecad431b7dd68ba979dffcd817b0ecefef2aebe18deddcb18a28a3e3e102204b3acf0daddb2b7c34e2369d655d47b07aaf191bac7b66239c81a5fc0c531d88[ALL] 02cb17b2a467aa236589982f8e8f3c81cb705557d2cf5026fe341d0ef8af63ba7c"}, "vout": 0, "txid": "bc557280459c40061e378eeae32d17b485cbd9b1af6b2e0df7905bb8599b1476"}], "txid": "c45ce854fb31f3fe62f7ddb91a9fffb18162ddfdf5e6bf1e6a52aac7e7ad57b1", "blocktime": 1537873282, "version": 1, "confirmations": 11481, "time": 1537873282, "locktime": 0, "vsize": 372, "size": 372}