{"hash": "150227f41dd50a2761b595c07af66632e6111980489f63e63e855051a61db6e9", "blockhash": "00000000000000000018f53835495a110e01622372bf6ae95dc86f2b0ab887b0", "vout": [{"scriptPubKey": {"reqSigs": 1, "hex": "a914860c5bcce666d6e4b796db97ff642adb0e61922687", "addresses": ["3DuoGwS1AxPP4HFrCjJv9HQQz8qMmL34uQ"], "asm": "OP_HASH160 860c5bcce666d6e4b796db97ff642adb0e619226 OP_EQUAL", "type": "scripthash"}, "value": 0.00044145, "n": 0}, {"scriptPubKey": {"reqSigs": 1, "hex": "0014e54ff74296ac5351139c46d37c56ad17d5b01d4a", "addresses": ["bc1qu48lws5k43f4zyuugmfhc44dzl2mq822am3n05"], "asm": "0 e54ff74296ac5351139c46d37c56ad17d5b01d4a", "type": "witness_v0_keyhash"}, "value": 1.202e-05, "n": 1}], "hex": "010000000001019ea369629895a52b703ff65ec39cfcfaafa4389e8f53a136378ee7eeda3859030000000000ffffffff0271ac00000000000017a914860c5bcce666d6e4b796db97ff642adb0e61922687b204000000000000160014e54ff74296ac5351139c46d37c56ad17d5b01d4a02473044022029f94a635c6d99ecf3d26fbb967c4d4740f53116cd0e7437dc89daaf7f2377080220034d6ff1705a22fd04612fdbe9ea5730332b76b16f8bfddaf1fa15f72a2b59830121027b75e56e81f54b8d2cd3899856834bedfe17602ae7f0ccf8601d42d46057b19a00000000", "vin": [{"txinwitness": ["3044022029f94a635c6d99ecf3d26fbb967c4d4740f53116cd0e7437dc89daaf7f2377080220034d6ff1705a22fd04612fdbe9ea5730332b76b16f8bfddaf1fa15f72a2b598301", "027b75e56e81f54b8d2cd3899856834bedfe17602ae7f0ccf8601d42d46057b19a"], "sequence": 4294967295, "scriptSig": {"hex": "", "asm": ""}, "vout": 0, "txid": "035938daeee78e3736a1538f9e38a4affafc9cc35ef63f702ba595986269a39e"}], "txid": "c45f7164e41aca0348185b82e06aff95ff930def9f5f418fa7e5dd33ee250d4e", "blocktime": 1537870928, "version": 1, "confirmations": 11513, "time": 1537870928, "locktime": 0, "vsize": 142, "size": 223}