{"hash": "c4604c00b1ab7c523b6c42ed9eedfd830f067b4585de3fab12c6ff3f21db4849", "blockhash": "0000000000000000001f76057863aec43deb6fa401d9628bb513d65a8098bfab", "vout": [{"scriptPubKey": {"reqSigs": 1, "hex": "76a9144cfc13de8e2198c0eab41cb21faab5f3674f588e88ac", "addresses": ["1824LErRz4tXo8NCMdpWwaAVR6j8REVdmj"], "asm": "OP_DUP OP_HASH160 4cfc13de8e2198c0eab41cb21faab5f3674f588e OP_EQUALVERIFY OP_CHECKSIG", "type": "pubkeyhash"}, "value": 0.00562244, "n": 0}, {"scriptPubKey": {"reqSigs": 1, "hex": "76a914efba505e1d108bf5c55037e6b3092a4f05d6995888ac", "addresses": ["1NrZhAfm4kL2XSAkGsNP7CMoDco5ZgJZdT"], "asm": "OP_DUP OP_HASH160 efba505e1d108bf5c55037e6b3092a4f05d69958 OP_EQUALVERIFY OP_CHECKSIG", "type": "pubkeyhash"}, "value": 0.00593066, "n": 1}], "hex": "0100000001bffd120fa82c27f2e691ed516f20fd556a04a93e64a434f70a7c7fdf03770e7a000000006a47304402200d18dcd208e2ecf524219b7dd69d6ee8b393b3953639dd60dcd955d54465762d02205a6c701001b9b6a1ca93cc62b6e0eb6158e8c444e3c114a0bf43c438e7c5e90601210329b4bbaf3f05f0366d8ee50b1aa45657aad7ff07e693cb6d5e23bed022e81d89ffffffff0244940800000000001976a9144cfc13de8e2198c0eab41cb21faab5f3674f588e88acaa0c0900000000001976a914efba505e1d108bf5c55037e6b3092a4f05d6995888ac00000000", "vin": [{"sequence": 4294967295, "scriptSig": {"hex": "47304402200d18dcd208e2ecf524219b7dd69d6ee8b393b3953639dd60dcd955d54465762d02205a6c701001b9b6a1ca93cc62b6e0eb6158e8c444e3c114a0bf43c438e7c5e90601210329b4bbaf3f05f0366d8ee50b1aa45657aad7ff07e693cb6d5e23bed022e81d89", "asm": "304402200d18dcd208e2ecf524219b7dd69d6ee8b393b3953639dd60dcd955d54465762d02205a6c701001b9b6a1ca93cc62b6e0eb6158e8c444e3c114a0bf43c438e7c5e906[ALL] 0329b4bbaf3f05f0366d8ee50b1aa45657aad7ff07e693cb6d5e23bed022e81d89"}, "vout": 0, "txid": "7a0e7703df7f7c0af734a4643ea9046a55fd206f51ed91e6f2272ca80f12fdbf"}], "txid": "c4604c00b1ab7c523b6c42ed9eedfd830f067b4585de3fab12c6ff3f21db4849", "blocktime": 1537873891, "version": 1, "confirmations": 11475, "time": 1537873891, "locktime": 0, "vsize": 225, "size": 225}