{"hash": "c46334c07aae7dd412f1421697836e5a6de8fb480c563759cbbd873dab2f07c1", "blockhash": "00000000000000000004ffacab907a6b429b9a5745fa0b75af4234bf69dd7176", "vout": [{"scriptPubKey": {"reqSigs": 1, "hex": "a91469c93d42b11d8a8ef035b8804e30dfbcb935419e87", "addresses": ["3BLMx38cP7MsbZ76miK2AwMKT6XSNKkMMi"], "asm": "OP_HASH160 69c93d42b11d8a8ef035b8804e30dfbcb935419e OP_EQUAL", "type": "scripthash"}, "value": 0.00386515, "n": 0}, {"scriptPubKey": {"reqSigs": 1, "hex": "76a9142d0d876b235dfb63b16f6d0b6bf004e3a743777788ac", "addresses": ["157DceFd8RfdBCeg4JjdF3Wxx7f7RBfmpH"], "asm": "OP_DUP OP_HASH160 2d0d876b235dfb63b16f6d0b6bf004e3a7437777 OP_EQUALVERIFY OP_CHECKSIG", "type": "pubkeyhash"}, "value": 6.87938536, "n": 1}], "hex": "010000000148805f9412a301dc3af3d72cb44155cf83891cb085b59f53f3d19a92e9fddbe3010000006b483045022100c455e7cf37d99542faf470c6d30c79e812749b5c68d5e04e26b640fa40ffcf3c022013b3d5383b28e2c654680a9a5c913f131c9b8d16ab521b923dcc112a6a8b04a40121027ef629279cd238201e6c700a17c0bf0763121e590b378efab304a7dbd1507473ffffffff02d3e505000000000017a91469c93d42b11d8a8ef035b8804e30dfbcb935419e87e81b0129000000001976a9142d0d876b235dfb63b16f6d0b6bf004e3a743777788ac00000000", "vin": [{"sequence": 4294967295, "scriptSig": {"hex": "483045022100c455e7cf37d99542faf470c6d30c79e812749b5c68d5e04e26b640fa40ffcf3c022013b3d5383b28e2c654680a9a5c913f131c9b8d16ab521b923dcc112a6a8b04a40121027ef629279cd238201e6c700a17c0bf0763121e590b378efab304a7dbd1507473", "asm": "3045022100c455e7cf37d99542faf470c6d30c79e812749b5c68d5e04e26b640fa40ffcf3c022013b3d5383b28e2c654680a9a5c913f131c9b8d16ab521b923dcc112a6a8b04a4[ALL] 027ef629279cd238201e6c700a17c0bf0763121e590b378efab304a7dbd1507473"}, "vout": 1, "txid": "e3dbfde9929ad1f3539fb585b01c8983cf5541b42cd7f33adc01a312945f8048"}], "txid": "c46334c07aae7dd412f1421697836e5a6de8fb480c563759cbbd873dab2f07c1", "blocktime": 1537875543, "version": 1, "confirmations": 11464, "time": 1537875543, "locktime": 0, "vsize": 224, "size": 224}