{"hash": "c46af625c9f83aac9dcf30256a40fbc88684b315f898645e49aed4eafbd379fc", "blockhash": "0000000000000000001cda96e906b7601b7a6fb1a3b62bca570a9e5d8f4b3de1", "vout": [{"scriptPubKey": {"reqSigs": 1, "hex": "a914c6a5766d3a7d4477ced369559de79a98d40095dc87", "addresses": ["3KoMw4yvy4sS1isiUXz2cmYga4VXiecQau"], "asm": "OP_HASH160 c6a5766d3a7d4477ced369559de79a98d40095dc OP_EQUAL", "type": "scripthash"}, "value": 0.00202963, "n": 0}, {"scriptPubKey": {"reqSigs": 1, "hex": "76a91469ffaffa2e3dfae8ad18cad31548bb67d43a960988ac", "addresses": ["1AfUFcfmqQRRmbUam4fbAWaVV9hdDBnPQj"], "asm": "OP_DUP OP_HASH160 69ffaffa2e3dfae8ad18cad31548bb67d43a9609 OP_EQUALVERIFY OP_CHECKSIG", "type": "pubkeyhash"}, "value": 0.00303869, "n": 1}], "hex": "0100000001840d2909038f4aa6ce89659e0c523bedc643f51c3a433a0c4f9231cd6bc89962010000006a473044022028b71e198a147a66cec8721cc4d53f5d02d68f14813709ef5ad2623337d105b3022052a4fda0bbcb87ddf2cc1c8ea7c9e2c3e3f3ed9a726d69bfffe09d72cded75350121025fed0dacd0659a46e06d60621f0f5d837d46def7769df5de9f42445dd7f21b93ffffffff02d31803000000000017a914c6a5766d3a7d4477ced369559de79a98d40095dc87fda20400000000001976a91469ffaffa2e3dfae8ad18cad31548bb67d43a960988ac00000000", "vin": [{"sequence": 4294967295, "scriptSig": {"hex": "473044022028b71e198a147a66cec8721cc4d53f5d02d68f14813709ef5ad2623337d105b3022052a4fda0bbcb87ddf2cc1c8ea7c9e2c3e3f3ed9a726d69bfffe09d72cded75350121025fed0dacd0659a46e06d60621f0f5d837d46def7769df5de9f42445dd7f21b93", "asm": "3044022028b71e198a147a66cec8721cc4d53f5d02d68f14813709ef5ad2623337d105b3022052a4fda0bbcb87ddf2cc1c8ea7c9e2c3e3f3ed9a726d69bfffe09d72cded7535[ALL] 025fed0dacd0659a46e06d60621f0f5d837d46def7769df5de9f42445dd7f21b93"}, "vout": 1, "txid": "6299c86bcd31924f0c3a433a1cf543c6ed3b520c9e6589cea64a8f0309290d84"}], "txid": "c46af625c9f83aac9dcf30256a40fbc88684b315f898645e49aed4eafbd379fc", "blocktime": 1537873282, "version": 1, "confirmations": 11484, "time": 1537873282, "locktime": 0, "vsize": 223, "size": 223}