{"hash": "c472dffa83cddadf4fa818c267255aa2e72ec8ff75b34c905aba843f6ccec4f3", "blockhash": "000000000000000000022b45ed06c6f4ccd3cf7fb5ba4856ebd2e58215665228", "vout": [{"scriptPubKey": {"reqSigs": 1, "hex": "76a914156c89f1e85f82452e25bc5ac1ee094f8687e75788ac", "addresses": ["12xHDSWPZ2HrducErdWyVQBKV8FiGRMkAr"], "asm": "OP_DUP OP_HASH160 156c89f1e85f82452e25bc5ac1ee094f8687e757 OP_EQUALVERIFY OP_CHECKSIG", "type": "pubkeyhash"}, "value": 0.0011266, "n": 0}, {"scriptPubKey": {"reqSigs": 1, "hex": "a91469bb22823834c0f293a3f8276ca01a7ef2ea727b87", "addresses": ["3BL543G1wBic7WPzDFnuCyXtUXX7e3K96g"], "asm": "OP_HASH160 69bb22823834c0f293a3f8276ca01a7ef2ea727b OP_EQUAL", "type": "scripthash"}, "value": 0.00392, "n": 1}], "hex": "01000000021360fe905a9b1a218debfd3b2c27cd30a9d3f41fa5c60b42554d3e90bcad3249000000006a473044022052a85d5c16bc8ccd5da60cd73715d84a113bd6a3d68b6c30306adfc5e8a8278602203e83a988f11ceaf3aadf48871ebe0ead988701e85ee930ccd33bfb529da562ba012103bf80c1100126964e583d98d19e3b2cf93216dbffcfc349f8cc25c2c391fd4ea1fdffffff3e410de5b921bd9ac4e91239730922cc7d98e80fd5ba0867a12360555ff82a4b000000006a473044022061cadddaccb9db2adec033c1207d871f1622b080dbd3e3fe42ae0c05015bc942022009ba7b328018bb6f372db09f00e36539e0f48e962f1b675e6f27b3228c44a2b80121035c9b99dc498a99ba79d262efb907f73ea5d1be5425c787e655fac48e11117161fdffffff0214b80100000000001976a914156c89f1e85f82452e25bc5ac1ee094f8687e75788ac40fb05000000000017a91469bb22823834c0f293a3f8276ca01a7ef2ea727b870b490800", "vin": [{"sequence": 4294967293, "scriptSig": {"hex": "473044022052a85d5c16bc8ccd5da60cd73715d84a113bd6a3d68b6c30306adfc5e8a8278602203e83a988f11ceaf3aadf48871ebe0ead988701e85ee930ccd33bfb529da562ba012103bf80c1100126964e583d98d19e3b2cf93216dbffcfc349f8cc25c2c391fd4ea1", "asm": "3044022052a85d5c16bc8ccd5da60cd73715d84a113bd6a3d68b6c30306adfc5e8a8278602203e83a988f11ceaf3aadf48871ebe0ead988701e85ee930ccd33bfb529da562ba[ALL] 03bf80c1100126964e583d98d19e3b2cf93216dbffcfc349f8cc25c2c391fd4ea1"}, "vout": 0, "txid": "4932adbc903e4d55420bc6a51ff4d3a930cd272c3bfdeb8d211a9b5a90fe6013"}, {"sequence": 4294967293, "scriptSig": {"hex": "473044022061cadddaccb9db2adec033c1207d871f1622b080dbd3e3fe42ae0c05015bc942022009ba7b328018bb6f372db09f00e36539e0f48e962f1b675e6f27b3228c44a2b80121035c9b99dc498a99ba79d262efb907f73ea5d1be5425c787e655fac48e11117161", "asm": "3044022061cadddaccb9db2adec033c1207d871f1622b080dbd3e3fe42ae0c05015bc942022009ba7b328018bb6f372db09f00e36539e0f48e962f1b675e6f27b3228c44a2b8[ALL] 035c9b99dc498a99ba79d262efb907f73ea5d1be5425c787e655fac48e11117161"}, "vout": 0, "txid": "4b2af85f556023a16708bad50fe8987dcc2209733912e9c49abd21b9e50d413e"}], "txid": "c472dffa83cddadf4fa818c267255aa2e72ec8ff75b34c905aba843f6ccec4f3", "blocktime": 1537869901, "version": 1, "confirmations": 11522, "time": 1537869901, "locktime": 542987, "vsize": 370, "size": 370}