{"hash": "c47a47c56e888a496c24278a8cb9c70d342770576969eb7e4e06fa126b045d54", "blockhash": "0000000000000000000baef3f32e3676a92c3b2e5da21b426e4f302fc371ce76", "vout": [{"scriptPubKey": {"reqSigs": 1, "hex": "76a914cff5fb750bc48054d02902548ea80e9c040dd15a88ac", "addresses": ["1KxbYrdBbHaSSVtJozW36sP7DdAtGLL68y"], "asm": "OP_DUP OP_HASH160 cff5fb750bc48054d02902548ea80e9c040dd15a OP_EQUALVERIFY OP_CHECKSIG", "type": "pubkeyhash"}, "value": 0.03644937, "n": 0}, {"scriptPubKey": {"type": "nulldata", "hex": "6a146f6d6e69000000000000001f00000029e8d60800", "asm": "OP_RETURN 6f6d6e69000000000000001f00000029e8d60800"}, "value": 0.0, "n": 1}, {"scriptPubKey": {"reqSigs": 1, "hex": "76a9141accf264d86be27cd1a27cf167bc48c70da20aa788ac", "addresses": ["13Si5wnAfiDPQzkL2XJBCkGgD8vmGgd4ef"], "asm": "OP_DUP OP_HASH160 1accf264d86be27cd1a27cf167bc48c70da20aa7 OP_EQUALVERIFY OP_CHECKSIG", "type": "pubkeyhash"}, "value": 5.46e-06, "n": 2}], "hex": "01000000017ae16946509e63f00b7af3397358e122837c9050a47cea8e9d426498b7ca95a1000000006a47304402200e24a1f4ac2c905ea4a33bb879b4d627b448d9e1f7fd85e58f1c5ce8e760f01f0220597c676c9fbdc745ab38854d53db4780f7cd93021d27d8fd71d345b824821e680121034c9ee28259d5e83fc3b92adc9f2d784bb204330205de629c33336451f91808faffffffff03099e3700000000001976a914cff5fb750bc48054d02902548ea80e9c040dd15a88ac0000000000000000166a146f6d6e69000000000000001f00000029e8d6080022020000000000001976a9141accf264d86be27cd1a27cf167bc48c70da20aa788ac00000000", "vin": [{"sequence": 4294967295, "scriptSig": {"hex": "47304402200e24a1f4ac2c905ea4a33bb879b4d627b448d9e1f7fd85e58f1c5ce8e760f01f0220597c676c9fbdc745ab38854d53db4780f7cd93021d27d8fd71d345b824821e680121034c9ee28259d5e83fc3b92adc9f2d784bb204330205de629c33336451f91808fa", "asm": "304402200e24a1f4ac2c905ea4a33bb879b4d627b448d9e1f7fd85e58f1c5ce8e760f01f0220597c676c9fbdc745ab38854d53db4780f7cd93021d27d8fd71d345b824821e68[ALL] 034c9ee28259d5e83fc3b92adc9f2d784bb204330205de629c33336451f91808fa"}, "vout": 0, "txid": "a195cab79864429d8eea7ca450907c8322e1587339f37a0bf0639e504669e17a"}], "txid": "c47a47c56e888a496c24278a8cb9c70d342770576969eb7e4e06fa126b045d54", "blocktime": 1537876114, "version": 1, "confirmations": 11459, "time": 1537876114, "locktime": 0, "vsize": 256, "size": 256}