{"hash": "c482af6556886e8b5206815765133270ef643f2a3ec8eb9cd390d33c1e2e25e2", "blockhash": "0000000000000000001f0ddff1eddb255c1121bcd4da4f1bc9a0da00cae72433", "vout": [{"scriptPubKey": {"reqSigs": 1, "hex": "76a914a25dec4d0011064ef106a983c39c7a540699f22088ac", "addresses": ["1FoWyxwPXuj4C6abqwhjDWdz6D4PZgYRjA"], "asm": "OP_DUP OP_HASH160 a25dec4d0011064ef106a983c39c7a540699f220 OP_EQUALVERIFY OP_CHECKSIG", "type": "pubkeyhash"}, "value": 0.01985564, "n": 0}, {"scriptPubKey": {"type": "nulldata", "hex": "6a146f6d6e69000000000000001f000000746a528800", "asm": "OP_RETURN 6f6d6e69000000000000001f000000746a528800"}, "value": 0.0, "n": 1}, {"scriptPubKey": {"reqSigs": 1, "hex": "76a91434ad500266182951094f3aca77ddd6da94f2b48a88ac", "addresses": ["15oXkwbeiv2NdxMfy1uuNqU343ZGQuiw9g"], "asm": "OP_DUP OP_HASH160 34ad500266182951094f3aca77ddd6da94f2b48a OP_EQUALVERIFY OP_CHECKSIG", "type": "pubkeyhash"}, "value": 5.46e-06, "n": 2}], "hex": "0100000001408d51cae9f3ab0e128b2430ed2c04115a03e80745002c2e761c57909c46b86e000000006a47304402200db9ad486267024a2ec29343726ff6c69a5f930c536ec97423ce0d16fe8ed73102206715e8a00d7c16b54af0ed1ec80d7c60794119df81c35b1b17825a98766394b9012103da5bac7b36d5aa38f531c6b9601e21bb598a4b6716ebed38b009a55dabde9440feffffff031c4c1e00000000001976a914a25dec4d0011064ef106a983c39c7a540699f22088ac0000000000000000166a146f6d6e69000000000000001f000000746a52880022020000000000001976a91434ad500266182951094f3aca77ddd6da94f2b48a88acfe480800", "vin": [{"sequence": 4294967294, "scriptSig": {"hex": "47304402200db9ad486267024a2ec29343726ff6c69a5f930c536ec97423ce0d16fe8ed73102206715e8a00d7c16b54af0ed1ec80d7c60794119df81c35b1b17825a98766394b9012103da5bac7b36d5aa38f531c6b9601e21bb598a4b6716ebed38b009a55dabde9440", "asm": "304402200db9ad486267024a2ec29343726ff6c69a5f930c536ec97423ce0d16fe8ed73102206715e8a00d7c16b54af0ed1ec80d7c60794119df81c35b1b17825a98766394b9[ALL] 03da5bac7b36d5aa38f531c6b9601e21bb598a4b6716ebed38b009a55dabde9440"}, "vout": 0, "txid": "6eb8469c90571c762e2c004507e8035a11042ced30248b120eabf3e9ca518d40"}], "txid": "c482af6556886e8b5206815765133270ef643f2a3ec8eb9cd390d33c1e2e25e2", "blocktime": 1537872018, "version": 1, "confirmations": 11489, "time": 1537872018, "locktime": 542974, "vsize": 256, "size": 256}