{"hash": "c483233a2f60d21faeb757f2b5e7b60f781867e7b89863094e2a1d4387722976", "blockhash": "00000000000000000004ffacab907a6b429b9a5745fa0b75af4234bf69dd7176", "vout": [{"scriptPubKey": {"reqSigs": 1, "hex": "a91444de47ced3b6c5fb72bb61cb8fe210fa14281fd387", "addresses": ["37yA9ud6KULWEi9VMy5KUsMnXs7GD7qjHF"], "asm": "OP_HASH160 44de47ced3b6c5fb72bb61cb8fe210fa14281fd3 OP_EQUAL", "type": "scripthash"}, "value": 0.0670324, "n": 0}, {"scriptPubKey": {"reqSigs": 1, "hex": "76a91483794aaf85f085a584a0bc752bf357aa22b396da88ac", "addresses": ["1CzApdQWTd843XaGHox8PSZaTe58iL9PQr"], "asm": "OP_DUP OP_HASH160 83794aaf85f085a584a0bc752bf357aa22b396da OP_EQUALVERIFY OP_CHECKSIG", "type": "pubkeyhash"}, "value": 0.01255696, "n": 1}], "hex": "0200000002f26a7f53e4ecc3c1e67674bfb68f2f1fb1faaa6a74ad7f0c4c83a0fafbb1f9cc440000006b483045022100c3f7ca3deb6401a40ddd38846f1f9285646c55ee78fa24da4b39998c94eb2d1102205e6f27dfa67867bb81efe81f0b87e330f550ce16b08c8876ac8b4a892ae9e509012103b7e54cd46adfc1030fc51f7893cea5ece687a1fec478845728c5cc7176251a79feffffff7035d5c0cee5948595a4fa285323c929746a46e1f17055f9ffcfde0dc5522971010000006b483045022100bfc265381219f847270e4ff05dc3b742f7d9d8a0fd6574cc65039a8cd2456462022013a9ab7b47a5bd735579cbb14e329310629bfab2a944129f777c08ea83c8e9960121024e253dfa675b383403626135a9dda05bc32465ba5f83115cde359ebaf44864aafeffffff02884866000000000017a91444de47ced3b6c5fb72bb61cb8fe210fa14281fd38710291300000000001976a91483794aaf85f085a584a0bc752bf357aa22b396da88ac16490800", "vin": [{"sequence": 4294967294, "scriptSig": {"hex": "483045022100c3f7ca3deb6401a40ddd38846f1f9285646c55ee78fa24da4b39998c94eb2d1102205e6f27dfa67867bb81efe81f0b87e330f550ce16b08c8876ac8b4a892ae9e509012103b7e54cd46adfc1030fc51f7893cea5ece687a1fec478845728c5cc7176251a79", "asm": "3045022100c3f7ca3deb6401a40ddd38846f1f9285646c55ee78fa24da4b39998c94eb2d1102205e6f27dfa67867bb81efe81f0b87e330f550ce16b08c8876ac8b4a892ae9e509[ALL] 03b7e54cd46adfc1030fc51f7893cea5ece687a1fec478845728c5cc7176251a79"}, "vout": 68, "txid": "ccf9b1fbfaa0834c0c7fad746aaafab11f2f8fb6bf7476e6c1c3ece4537f6af2"}, {"sequence": 4294967294, "scriptSig": {"hex": "483045022100bfc265381219f847270e4ff05dc3b742f7d9d8a0fd6574cc65039a8cd2456462022013a9ab7b47a5bd735579cbb14e329310629bfab2a944129f777c08ea83c8e9960121024e253dfa675b383403626135a9dda05bc32465ba5f83115cde359ebaf44864aa", "asm": "3045022100bfc265381219f847270e4ff05dc3b742f7d9d8a0fd6574cc65039a8cd2456462022013a9ab7b47a5bd735579cbb14e329310629bfab2a944129f777c08ea83c8e996[ALL] 024e253dfa675b383403626135a9dda05bc32465ba5f83115cde359ebaf44864aa"}, "vout": 1, "txid": "712952c50ddecffff95570f1e1466a7429c9235328faa4958594e5cec0d53570"}], "txid": "c483233a2f60d21faeb757f2b5e7b60f781867e7b89863094e2a1d4387722976", "blocktime": 1537875543, "version": 2, "confirmations": 11464, "time": 1537875543, "locktime": 542998, "vsize": 372, "size": 372}