{"hash": "c4847a6365fabbb9ef68901396efe8fab62c4ef7b492d2c12d08ff463dce8cc4", "blockhash": "0000000000000000000e13cef7c366c0283d82e591d1acd082e914b08063cdf1", "vout": [{"scriptPubKey": {"reqSigs": 1, "hex": "76a914736314269c5bfd25ad9716729770e98c98a07ba588ac", "addresses": ["1BX7QAshgvMym5FSyNTLk3eoSBxmJqhcRE"], "asm": "OP_DUP OP_HASH160 736314269c5bfd25ad9716729770e98c98a07ba5 OP_EQUALVERIFY OP_CHECKSIG", "type": "pubkeyhash"}, "value": 0.00205437, "n": 0}, {"scriptPubKey": {"reqSigs": 1, "hex": "76a914a5e492c156e2f0a7984a844806ae9463a3f7955488ac", "addresses": ["1G8AKCeFaN8H7y6ijeWvbAR7UY63vXK4SW"], "asm": "OP_DUP OP_HASH160 a5e492c156e2f0a7984a844806ae9463a3f79554 OP_EQUALVERIFY OP_CHECKSIG", "type": "pubkeyhash"}, "value": 0.001407, "n": 1}], "hex": "0100000001fec66e87a293b8133262d9e51d4fd2846ca8ad2f86bcb56837f3d4e173eb55e6000000006a47304402200ad2bc9412c535daaf5eb8421f7b58ed9e8356854189b9814cf90559b6b57fd4022054db1b1e9530991a3c35767a1b5680953c813371f023d17d23fd21eebdccfe9a01210314ce2b42e64e2ee9bc6c430620c168f2315c240cc0c8811f80275dce14afdd6cffffffff027d220300000000001976a914736314269c5bfd25ad9716729770e98c98a07ba588ac9c250200000000001976a914a5e492c156e2f0a7984a844806ae9463a3f7955488ac00000000", "vin": [{"sequence": 4294967295, "scriptSig": {"hex": "47304402200ad2bc9412c535daaf5eb8421f7b58ed9e8356854189b9814cf90559b6b57fd4022054db1b1e9530991a3c35767a1b5680953c813371f023d17d23fd21eebdccfe9a01210314ce2b42e64e2ee9bc6c430620c168f2315c240cc0c8811f80275dce14afdd6c", "asm": "304402200ad2bc9412c535daaf5eb8421f7b58ed9e8356854189b9814cf90559b6b57fd4022054db1b1e9530991a3c35767a1b5680953c813371f023d17d23fd21eebdccfe9a[ALL] 0314ce2b42e64e2ee9bc6c430620c168f2315c240cc0c8811f80275dce14afdd6c"}, "vout": 0, "txid": "e655eb73e1d4f33768b5bc862fada86c84d24f1de5d9623213b893a2876ec6fe"}], "txid": "c4847a6365fabbb9ef68901396efe8fab62c4ef7b492d2c12d08ff463dce8cc4", "blocktime": 1537871767, "version": 1, "confirmations": 11490, "time": 1537871767, "locktime": 0, "vsize": 225, "size": 225}