{"hash": "5461c166855238aa1c7cfe4166a678383205b38cb1dc9b36cbe1f956e478f844", "blockhash": "000000000000000000022b45ed06c6f4ccd3cf7fb5ba4856ebd2e58215665228", "vout": [{"scriptPubKey": {"reqSigs": 1, "hex": "0014ed0cf326b5d97541aa432beec6491b6acba822a2", "addresses": ["bc1qa5x0xf44m965r2jr90hvvjgmdt96sg4zlaevv7"], "asm": "0 ed0cf326b5d97541aa432beec6491b6acba822a2", "type": "witness_v0_keyhash"}, "value": 0.00080754, "n": 0}, {"scriptPubKey": {"reqSigs": 1, "hex": "a91469f376ac561d4aff0de205969e87a383fe40403d87", "addresses": ["3BMEXqAFavSrpGgVWC6krF8YCYM6jtmmXU"], "asm": "OP_HASH160 69f376ac561d4aff0de205969e87a383fe40403d OP_EQUAL", "type": "scripthash"}, "value": 0.00984756, "n": 1}], "hex": "0100000000010136a48b3077279085e04be46eacfc90410c1e30d854109122d21a9ba1d7930c15140000001716001479091a15668525c4f85dff9599cd52bca08a1c93ffffffff02723b010000000000160014ed0cf326b5d97541aa432beec6491b6acba822a2b4060f000000000017a91469f376ac561d4aff0de205969e87a383fe40403d870247304402207285900039465717d8a77d22edd85f4d60fbe3efdbc382f583c62d41b55a8633022071c08621b8623f9078de7bfb6903416d974768d76b5d57043a7d0300744e05bc012103123a2bc8641c44f2d71446666bc32e9718000a9ea1be0a7e9bbcdbaf06603afe00000000", "vin": [{"txinwitness": ["304402207285900039465717d8a77d22edd85f4d60fbe3efdbc382f583c62d41b55a8633022071c08621b8623f9078de7bfb6903416d974768d76b5d57043a7d0300744e05bc01", "03123a2bc8641c44f2d71446666bc32e9718000a9ea1be0a7e9bbcdbaf06603afe"], "sequence": 4294967295, "scriptSig": {"hex": "16001479091a15668525c4f85dff9599cd52bca08a1c93", "asm": "001479091a15668525c4f85dff9599cd52bca08a1c93"}, "vout": 20, "txid": "150c93d7a19b1ad222911054d8301e0c4190fcac6ee44be085902777308ba436"}], "txid": "c48695cf7042c9b7205db5c4f0bc897f2c12432c48c6c800ec7c9c3383ff7bb9", "blocktime": 1537869901, "version": 1, "confirmations": 11523, "time": 1537869901, "locktime": 0, "vsize": 165, "size": 246}