{"hash": "c488e078d7cbaafc5362877ce5d7e8b918a9eab50f9499501ba9109200d70b36", "blockhash": "0000000000000000000e13cef7c366c0283d82e591d1acd082e914b08063cdf1", "vout": [{"scriptPubKey": {"reqSigs": 1, "hex": "76a914df86398992d005ec04f8fb70be3cf5cce73bd60488ac", "addresses": ["1MNtUsuYsMNiZREfWozDGZyebPB8771KUf"], "asm": "OP_DUP OP_HASH160 df86398992d005ec04f8fb70be3cf5cce73bd604 OP_EQUALVERIFY OP_CHECKSIG", "type": "pubkeyhash"}, "value": 0.0151, "n": 0}, {"scriptPubKey": {"reqSigs": 1, "hex": "76a91419d34c1134e09d5ca8ac8bb99e590b440bca077a88ac", "addresses": ["13MZ1yjrUhJbd96ocAFw1uLLnRTi3sHmCb"], "asm": "OP_DUP OP_HASH160 19d34c1134e09d5ca8ac8bb99e590b440bca077a OP_EQUALVERIFY OP_CHECKSIG", "type": "pubkeyhash"}, "value": 1.58478854, "n": 1}], "hex": "01000000013e2fa7cd032f62cfdf5ba489ae3b644b6dfa084d5284f4ba8cfb00b73cd5e719010000006b483045022100bb8629b05f0f8f699750a2eb4a42354bd23dc90484573a90dfd67e9892b6819e02204139103a357947b90048723ba92a860e7f034d45415ea7d2be274dc2f0e0fc8c012103ecb190e2da96e67aa2d78ac094b36f51f77cf3fd9241e72bd176b88ee18f7b20ffffffff02700a1700000000001976a914df86398992d005ec04f8fb70be3cf5cce73bd60488ac06327209000000001976a91419d34c1134e09d5ca8ac8bb99e590b440bca077a88ac00000000", "vin": [{"sequence": 4294967295, "scriptSig": {"hex": "483045022100bb8629b05f0f8f699750a2eb4a42354bd23dc90484573a90dfd67e9892b6819e02204139103a357947b90048723ba92a860e7f034d45415ea7d2be274dc2f0e0fc8c012103ecb190e2da96e67aa2d78ac094b36f51f77cf3fd9241e72bd176b88ee18f7b20", "asm": "3045022100bb8629b05f0f8f699750a2eb4a42354bd23dc90484573a90dfd67e9892b6819e02204139103a357947b90048723ba92a860e7f034d45415ea7d2be274dc2f0e0fc8c[ALL] 03ecb190e2da96e67aa2d78ac094b36f51f77cf3fd9241e72bd176b88ee18f7b20"}, "vout": 1, "txid": "19e7d53cb700fb8cbaf484524d08fa6d4b643bae89a45bdfcf622f03cda72f3e"}], "txid": "c488e078d7cbaafc5362877ce5d7e8b918a9eab50f9499501ba9109200d70b36", "blocktime": 1537871767, "version": 1, "confirmations": 11495, "time": 1537871767, "locktime": 0, "vsize": 226, "size": 226}