{"hash": "c48b93f83d5c9cb6de51c6ca8fa795bf985f333d3547c95f6dda289df2cfac7d", "blockhash": "00000000000000000004ffacab907a6b429b9a5745fa0b75af4234bf69dd7176", "vout": [{"scriptPubKey": {"reqSigs": 1, "hex": "76a9146b8630f68b6b0c4ac732109946690b30b437e1d588ac", "addresses": ["1AoY4JJ87m5MmuLemxfjnH3FF2RcoBHGDV"], "asm": "OP_DUP OP_HASH160 6b8630f68b6b0c4ac732109946690b30b437e1d5 OP_EQUALVERIFY OP_CHECKSIG", "type": "pubkeyhash"}, "value": 0.03571138, "n": 0}, {"scriptPubKey": {"reqSigs": 1, "hex": "76a9148039f8a70bc03967748748017e539386df75e43988ac", "addresses": ["1CgzwUJdGwq4P2t158gRW1B2vJ4xZX2p36"], "asm": "OP_DUP OP_HASH160 8039f8a70bc03967748748017e539386df75e439 OP_EQUALVERIFY OP_CHECKSIG", "type": "pubkeyhash"}, "value": 1.0, "n": 1}], "hex": "0100000001581243c057c166ec2e1694ce1c6ff8d3eb466468814c6a7e6f1cfea07d0ecf9a000000006a4730440220787bc87dd2cd2eb671e88dbd7221f11f24f9c4dfdfa70aab918d7f66859884da022066b192212a33b50bc1344abdfd7854a8eef4c0d58bab77bd252f43452f0ccf230121025c3576d69aa02dd671d3324d116ad5f27725d7acd51dc90868d84eb0d938eda5ffffffff02c27d3600000000001976a9146b8630f68b6b0c4ac732109946690b30b437e1d588ac00e1f505000000001976a9148039f8a70bc03967748748017e539386df75e43988ac00000000", "vin": [{"sequence": 4294967295, "scriptSig": {"hex": "4730440220787bc87dd2cd2eb671e88dbd7221f11f24f9c4dfdfa70aab918d7f66859884da022066b192212a33b50bc1344abdfd7854a8eef4c0d58bab77bd252f43452f0ccf230121025c3576d69aa02dd671d3324d116ad5f27725d7acd51dc90868d84eb0d938eda5", "asm": "30440220787bc87dd2cd2eb671e88dbd7221f11f24f9c4dfdfa70aab918d7f66859884da022066b192212a33b50bc1344abdfd7854a8eef4c0d58bab77bd252f43452f0ccf23[ALL] 025c3576d69aa02dd671d3324d116ad5f27725d7acd51dc90868d84eb0d938eda5"}, "vout": 0, "txid": "9acf0e7da0fe1c6f7e6a4c81686446ebd3f86f1cce94162eec66c157c0431258"}], "txid": "c48b93f83d5c9cb6de51c6ca8fa795bf985f333d3547c95f6dda289df2cfac7d", "blocktime": 1537875543, "version": 1, "confirmations": 11464, "time": 1537875543, "locktime": 0, "vsize": 225, "size": 225}