{"hash": "9d2c6871df8a52dd3c963fe32c95002fe43c7ddda813e1aa19622dc599d5377f", "blockhash": "00000000000000000018f53835495a110e01622372bf6ae95dc86f2b0ab887b0", "vout": [{"scriptPubKey": {"reqSigs": 1, "hex": "76a914c28d0785e5cdbfb11068688028ad32ec82389ec088ac", "addresses": ["1Jjh37Jd9HP3vrVqcAk4gxjJwRbEGvzSHE"], "asm": "OP_DUP OP_HASH160 c28d0785e5cdbfb11068688028ad32ec82389ec0 OP_EQUALVERIFY OP_CHECKSIG", "type": "pubkeyhash"}, "value": 0.0046387, "n": 0}, {"scriptPubKey": {"reqSigs": 1, "hex": "a9147100e5c836ca03d722e78c8dcabaffc59e73de1c87", "addresses": ["3BzXMawVAQEiT7BVUzynWgXwVo2LLy3rPH"], "asm": "OP_HASH160 7100e5c836ca03d722e78c8dcabaffc59e73de1c OP_EQUAL", "type": "scripthash"}, "value": 0.01002606, "n": 1}], "hex": "02000000000102abe1d5eb354e739db1c1742a3a7cfd830a6e3d63d1b93078d544e64f0c4b28c0140000001716001496531ca6f591af185b6a0fb82dfffd30711551c2feffffffbae8f6506e3b018d07786db7d3f3c32cc6ae9d9df6a07911e0c5a61287f1306e000000001716001463469031dff6c179130edbd28f9893272b6e8492feffffff02fe130700000000001976a914c28d0785e5cdbfb11068688028ad32ec82389ec088ac6e4c0f000000000017a9147100e5c836ca03d722e78c8dcabaffc59e73de1c8702483045022100e252c5dad271aa355069d94d6bcb7b424794db07ea9e8388004cfef8a783fb070220042615e5554bb32b5b65c03c7a9204efed42b76af0e9a910fd31fb042f2f9025012102bf19ca4ade2eb1e283eb2af4ec25888a59706d1f681cd10f4a32b26726f4f84c0247304402200ed47b39ea81736db124377542a9a988f1a03448d03a3164b70a35be81ca6beb02203a6c49e5bfdf0c5bd1f5ffa870999dea4922a63177798117a1493f2dd92d213c0121026c8c9fdecbd860a2332a6e777030dd771e9711ee3ff4f8e934cef8abfea60ac60e490800", "vin": [{"txinwitness": ["3045022100e252c5dad271aa355069d94d6bcb7b424794db07ea9e8388004cfef8a783fb070220042615e5554bb32b5b65c03c7a9204efed42b76af0e9a910fd31fb042f2f902501", "02bf19ca4ade2eb1e283eb2af4ec25888a59706d1f681cd10f4a32b26726f4f84c"], "sequence": 4294967294, "scriptSig": {"hex": "16001496531ca6f591af185b6a0fb82dfffd30711551c2", "asm": "001496531ca6f591af185b6a0fb82dfffd30711551c2"}, "vout": 20, "txid": "c0284b0c4fe644d57830b9d1633d6e0a83fd7c3a2a74c1b19d734e35ebd5e1ab"}, {"txinwitness": ["304402200ed47b39ea81736db124377542a9a988f1a03448d03a3164b70a35be81ca6beb02203a6c49e5bfdf0c5bd1f5ffa870999dea4922a63177798117a1493f2dd92d213c01", "026c8c9fdecbd860a2332a6e777030dd771e9711ee3ff4f8e934cef8abfea60ac6"], "sequence": 4294967294, "scriptSig": {"hex": "16001463469031dff6c179130edbd28f9893272b6e8492", "asm": "001463469031dff6c179130edbd28f9893272b6e8492"}, "vout": 0, "txid": "6e30f18712a6c5e01179a0f69d9daec62cc3f3d3b76d78078d013b6e50f6e8ba"}], "txid": "c48b3faf7ed9d539931db248a4842879ceb6274cc83c5794fe19e896dbb1b305", "blocktime": 1537870928, "version": 2, "confirmations": 11514, "time": 1537870928, "locktime": 542990, "vsize": 259, "size": 421}