{"hash": "c49390c538d963456050074354bdb11ffd9f896fbbd7d78cfd8d767aee515597", "blockhash": "00000000000000000017f5eb5941039fbcee6240d03bc1f2f8e35350df66a1d8", "vout": [{"scriptPubKey": {"reqSigs": 1, "hex": "76a914d243e6abb9a60fbff430b421d2df4b7d59ec186088ac", "addresses": ["1LAnF8h3qMGx3TSwNUHVneBZUEpwE4gu3D"], "asm": "OP_DUP OP_HASH160 d243e6abb9a60fbff430b421d2df4b7d59ec1860 OP_EQUALVERIFY OP_CHECKSIG", "type": "pubkeyhash"}, "value": 0.00077314, "n": 0}, {"scriptPubKey": {"reqSigs": 1, "hex": "76a914e63414634c91a6624b13742d13e947023b97917888ac", "addresses": ["1MzCogKEZTAj3vuwRuTvJvXWyqbSXrQEZa"], "asm": "OP_DUP OP_HASH160 e63414634c91a6624b13742d13e947023b979178 OP_EQUALVERIFY OP_CHECKSIG", "type": "pubkeyhash"}, "value": 5.46e-06, "n": 1}, {"scriptPubKey": {"type": "nulldata", "hex": "6a146f6d6e69000000000000001f000002a5b3b9aef0", "asm": "OP_RETURN 6f6d6e69000000000000001f000002a5b3b9aef0"}, "value": 0.0, "n": 2}], "hex": "0100000001b2229ca57c438c4e24333b5e514ec6560cc7bb304767f7d73f1e9caa5e742ddf000000006b483045022100d37919e3c40104e682f9eaab4e6c01a86a49a221f0e9ea0f88ae1f4129624a3f0220613781bbe2d3b39e56479d550bddb453d848629f1c79c791ffe693f7b40517a001210271977291b74f1f5f5c42157e8aae804664eaaeccfd097918450d37f28fb94d77ffffffff03022e0100000000001976a914d243e6abb9a60fbff430b421d2df4b7d59ec186088ac22020000000000001976a914e63414634c91a6624b13742d13e947023b97917888ac0000000000000000166a146f6d6e69000000000000001f000002a5b3b9aef000000000", "vin": [{"sequence": 4294967295, "scriptSig": {"hex": "483045022100d37919e3c40104e682f9eaab4e6c01a86a49a221f0e9ea0f88ae1f4129624a3f0220613781bbe2d3b39e56479d550bddb453d848629f1c79c791ffe693f7b40517a001210271977291b74f1f5f5c42157e8aae804664eaaeccfd097918450d37f28fb94d77", "asm": "3045022100d37919e3c40104e682f9eaab4e6c01a86a49a221f0e9ea0f88ae1f4129624a3f0220613781bbe2d3b39e56479d550bddb453d848629f1c79c791ffe693f7b40517a0[ALL] 0271977291b74f1f5f5c42157e8aae804664eaaeccfd097918450d37f28fb94d77"}, "vout": 0, "txid": "df2d745eaa9c1e3fd7f7674730bbc70c56c64e515e3b33244e8c437ca59c22b2"}], "txid": "c49390c538d963456050074354bdb11ffd9f896fbbd7d78cfd8d767aee515597", "blocktime": 1537874412, "version": 1, "confirmations": 11467, "time": 1537874412, "locktime": 0, "vsize": 257, "size": 257}