{"hash": "dd1d0833bb501bcf11a6e0d8171314ff18e8f098e7ecdbabe7018a46412a58fe", "blockhash": "00000000000000000017f5eb5941039fbcee6240d03bc1f2f8e35350df66a1d8", "vout": [{"scriptPubKey": {"reqSigs": 1, "hex": "a91490e99e8d26d05ead3c05430c292a887bbff695f587", "addresses": ["3EuF6KjJawxTiUsea3Sc8hsLUGmVEf7Xg5"], "asm": "OP_HASH160 90e99e8d26d05ead3c05430c292a887bbff695f5 OP_EQUAL", "type": "scripthash"}, "value": 0.00129998, "n": 0}, {"scriptPubKey": {"type": "nulldata", "hex": "6a146f6d6e69000000000000001f0000000005f5e100", "asm": "OP_RETURN 6f6d6e69000000000000001f0000000005f5e100"}, "value": 0.0, "n": 1}, {"scriptPubKey": {"reqSigs": 1, "hex": "a91490e99e8d26d05ead3c05430c292a887bbff695f587", "addresses": ["3EuF6KjJawxTiUsea3Sc8hsLUGmVEf7Xg5"], "asm": "OP_HASH160 90e99e8d26d05ead3c05430c292a887bbff695f5 OP_EQUAL", "type": "scripthash"}, "value": 5.4e-06, "n": 2}], "hex": "01000000000102c766e6d8661837bf746d892d85d27fdbba5ad2e0eb6918486b62926323285d400000000017160014f6e1792e7852ebd5ae795c2a25d579acdfadec2dffffffffc766e6d8661837bf746d892d85d27fdbba5ad2e0eb6918486b62926323285d400200000017160014f6e1792e7852ebd5ae795c2a25d579acdfadec2dffffffff03cefb01000000000017a91490e99e8d26d05ead3c05430c292a887bbff695f5870000000000000000166a146f6d6e69000000000000001f0000000005f5e1001c0200000000000017a91490e99e8d26d05ead3c05430c292a887bbff695f58702473044022050066c657547d73a3294fd90b23ba458aa3bd76962613896e8a0a4e19c42b4b3022035fdd4a86db584968eeb6c9de5a941073dee5b5d166ca6c1b4bb1180f996bd82012103f1cf988013a33e053d1e9bd54c4798c1a6dc362a5b2798b5344049fca40e2db00247304402204687f3821b61782ee330a4ce5b7dca8c8d209cf9a2928f642c1186af1f8c8822022052b285107afa775337f4424cd0f74e9d616409a494e8f9ab82a407b8bf1dc8df012103f1cf988013a33e053d1e9bd54c4798c1a6dc362a5b2798b5344049fca40e2db000000000", "vin": [{"txinwitness": ["3044022050066c657547d73a3294fd90b23ba458aa3bd76962613896e8a0a4e19c42b4b3022035fdd4a86db584968eeb6c9de5a941073dee5b5d166ca6c1b4bb1180f996bd8201", "03f1cf988013a33e053d1e9bd54c4798c1a6dc362a5b2798b5344049fca40e2db0"], "sequence": 4294967295, "scriptSig": {"hex": "160014f6e1792e7852ebd5ae795c2a25d579acdfadec2d", "asm": "0014f6e1792e7852ebd5ae795c2a25d579acdfadec2d"}, "vout": 0, "txid": "405d28236392626b481869ebe0d25abadb7fd2852d896d74bf371866d8e666c7"}, {"txinwitness": ["304402204687f3821b61782ee330a4ce5b7dca8c8d209cf9a2928f642c1186af1f8c8822022052b285107afa775337f4424cd0f74e9d616409a494e8f9ab82a407b8bf1dc8df01", "03f1cf988013a33e053d1e9bd54c4798c1a6dc362a5b2798b5344049fca40e2db0"], "sequence": 4294967295, "scriptSig": {"hex": "160014f6e1792e7852ebd5ae795c2a25d579acdfadec2d", "asm": "0014f6e1792e7852ebd5ae795c2a25d579acdfadec2d"}, "vout": 2, "txid": "405d28236392626b481869ebe0d25abadb7fd2852d896d74bf371866d8e666c7"}], "txid": "c493bec65840858edc99d5d3c188292e535757951ea9b5b36aaf20fd72041a1e", "blocktime": 1537874412, "version": 1, "confirmations": 11467, "time": 1537874412, "locktime": 0, "vsize": 287, "size": 449}