{"hash": "c496d58752e79428487833ebf5632cec8d045520408603b3f7b2d15208f60332", "blockhash": "0000000000000000001e0dab787dd257d1dbfcb92a98c2207d5e1078be1f4165", "vout": [{"scriptPubKey": {"reqSigs": 1, "hex": "76a914ae9828a80e24ca5b661ef6f26c5daaae0025c1fa88ac", "addresses": ["1GvArZNyC7q9Y4Dc4P2JrrcK4JnoCNa1Gq"], "asm": "OP_DUP OP_HASH160 ae9828a80e24ca5b661ef6f26c5daaae0025c1fa OP_EQUALVERIFY OP_CHECKSIG", "type": "pubkeyhash"}, "value": 0.00476516, "n": 0}, {"scriptPubKey": {"reqSigs": 1, "hex": "a91409cbe63ee9f96813822295ea1f80d6a176fda4d887", "addresses": ["32apGSynmV1qYiu21qTsyhZbdP81VhSuXm"], "asm": "OP_HASH160 09cbe63ee9f96813822295ea1f80d6a176fda4d8 OP_EQUAL", "type": "scripthash"}, "value": 0.1, "n": 1}], "hex": "0100000001781dbbeb32bbb1908c5cf5f6a5b7010c4b610c9fdec94d92e6f35f84fee6bb02010000006b483045022100ca8cd500c402ee112e553c4a5f306a92601907ef2eeb1bc921f649c8f8234d68022072b25eb8af0c9c0bb06c7db95ccb60cd8d575f74ba2cf146e6a7ecd7d371c2f10121022fb166f95d55c83230c11e10deaaf15734f5a058abc3dc60f444c8cef746287effffffff0264450700000000001976a914ae9828a80e24ca5b661ef6f26c5daaae0025c1fa88ac809698000000000017a91409cbe63ee9f96813822295ea1f80d6a176fda4d88700000000", "vin": [{"sequence": 4294967295, "scriptSig": {"hex": "483045022100ca8cd500c402ee112e553c4a5f306a92601907ef2eeb1bc921f649c8f8234d68022072b25eb8af0c9c0bb06c7db95ccb60cd8d575f74ba2cf146e6a7ecd7d371c2f10121022fb166f95d55c83230c11e10deaaf15734f5a058abc3dc60f444c8cef746287e", "asm": "3045022100ca8cd500c402ee112e553c4a5f306a92601907ef2eeb1bc921f649c8f8234d68022072b25eb8af0c9c0bb06c7db95ccb60cd8d575f74ba2cf146e6a7ecd7d371c2f1[ALL] 022fb166f95d55c83230c11e10deaaf15734f5a058abc3dc60f444c8cef746287e"}, "vout": 1, "txid": "02bbe6fe845ff3e6924dc9de9f0c614b0c01b7a5f6f55c8c90b1bb32ebbb1d78"}], "txid": "c496d58752e79428487833ebf5632cec8d045520408603b3f7b2d15208f60332", "blocktime": 1537872475, "version": 1, "confirmations": 11486, "time": 1537872475, "locktime": 0, "vsize": 224, "size": 224}