{"hash": "b9f5a50c8eab1c2de7ce8b307c4572181931ff8c6cf4f728f8090e8112391cea", "blockhash": "0000000000000000001f76057863aec43deb6fa401d9628bb513d65a8098bfab", "vout": [{"scriptPubKey": {"reqSigs": 1, "hex": "a914d4eac1de6093918b38158aef6c1ae38f29048dcf87", "addresses": ["3M6pQSBLZC483o8PcdHbRSQMj5jYftMdbg"], "asm": "OP_HASH160 d4eac1de6093918b38158aef6c1ae38f29048dcf OP_EQUAL", "type": "scripthash"}, "value": 0.01005038, "n": 0}, {"scriptPubKey": {"reqSigs": 1, "hex": "a914fbdddc6b5afbea0ec02a2ef42c4b3f7f46ba54cd87", "addresses": ["3QemJsDasNWd7Kg3PYMgU3tFNf7bxCTAHT"], "asm": "OP_HASH160 fbdddc6b5afbea0ec02a2ef42c4b3f7f46ba54cd OP_EQUAL", "type": "scripthash"}, "value": 0.011, "n": 1}], "hex": "020000000001046a5b0b4bbe9bb986eef8086c06a77255c9b43c982757ec5eb291a21e50aabfab0000000017160014180b024602a7749a7e7f7c2f527dfe63c9a9e3f2feffffff9a6cb31758cd965012ac6331e450cb9d4641bd00aacb6063459b7886c64e56630500000017160014fab8c02c92cd4a348506d23175cc8441ab130374feffffffc0c1699243f14e20e53705a591bb090bf5ee09007b1d23105588a352ee837db7010000001716001432f81a7d664b8c841a85ca6eacabad596b5418c3feffffffcb7cec19d4eecde1ab34b222be58355a39743dab1273f3d1c5fb016fcd83e0c50000000017160014bd54cfd69e9226f288036bf28768f605cb3b3413feffffff02ee550f000000000017a914d4eac1de6093918b38158aef6c1ae38f29048dcf87e0c810000000000017a914fbdddc6b5afbea0ec02a2ef42c4b3f7f46ba54cd870247304402205820654e614a57d5d4bfbb64119c9283e81ce312bd176d01f0b86cc050768f4f02207cd7060808fbe0af2cd2d384aa2a9418758cb6a9fc4946d815581027aa6a1134012103beaf3460cfbf25bb91a3cc2a0678f05a5c838a7a01b89cd632f24beb4d661db602473044022062b897f484be79840c3bd6951554fca7f4eb4cf8c2e2d61380501043c2afa0c90220016a1de3223a66689380a83a511704f8b05d9fdd134327ff6afce4141cc3178d012102cf0424184814615ed03ef7af03eb01c399448fe2fd873e27bcb4bbce83f8326802473044022004d46ccb66ae8cb0e52c61d8b053a64fb53ff85e11bf76d73a12f105f189fd6f022045a1fb3c5a364ee2e775b8c1a11e22d0706659d464c0cce589dac5690b81a8d0012102e4c26d2dad4cc185594ad6fd013ec10dfb7d1fd4c63af8a61ea2b949a3b52e550247304402202858220f1635faeb8a2d4b2224fa38dc69cbe6a6f66e12e50b890e74cb8104cc02206df9cc00df492f96fbc9455788ab5eeb352270a75369340075fe2029ad2b66fa0121034c44bbeb5721e84bd861bd9f7533535176c7838ea1ae168ba8c6502df600508709490800", "vin": [{"txinwitness": ["304402205820654e614a57d5d4bfbb64119c9283e81ce312bd176d01f0b86cc050768f4f02207cd7060808fbe0af2cd2d384aa2a9418758cb6a9fc4946d815581027aa6a113401", "03beaf3460cfbf25bb91a3cc2a0678f05a5c838a7a01b89cd632f24beb4d661db6"], "sequence": 4294967294, "scriptSig": {"hex": "160014180b024602a7749a7e7f7c2f527dfe63c9a9e3f2", "asm": "0014180b024602a7749a7e7f7c2f527dfe63c9a9e3f2"}, "vout": 0, "txid": "abbfaa501ea291b25eec5727983cb4c95572a7066c08f8ee86b99bbe4b0b5b6a"}, {"txinwitness": ["3044022062b897f484be79840c3bd6951554fca7f4eb4cf8c2e2d61380501043c2afa0c90220016a1de3223a66689380a83a511704f8b05d9fdd134327ff6afce4141cc3178d01", "02cf0424184814615ed03ef7af03eb01c399448fe2fd873e27bcb4bbce83f83268"], "sequence": 4294967294, "scriptSig": {"hex": "160014fab8c02c92cd4a348506d23175cc8441ab130374", "asm": "0014fab8c02c92cd4a348506d23175cc8441ab130374"}, "vout": 5, "txid": "63564ec686789b456360cbaa00bd41469dcb50e43163ac125096cd5817b36c9a"}, {"txinwitness": ["3044022004d46ccb66ae8cb0e52c61d8b053a64fb53ff85e11bf76d73a12f105f189fd6f022045a1fb3c5a364ee2e775b8c1a11e22d0706659d464c0cce589dac5690b81a8d001", "02e4c26d2dad4cc185594ad6fd013ec10dfb7d1fd4c63af8a61ea2b949a3b52e55"], "sequence": 4294967294, "scriptSig": {"hex": "16001432f81a7d664b8c841a85ca6eacabad596b5418c3", "asm": "001432f81a7d664b8c841a85ca6eacabad596b5418c3"}, "vout": 1, "txid": "b77d83ee52a3885510231d7b0009eef50b09bb91a50537e5204ef1439269c1c0"}, {"txinwitness": ["304402202858220f1635faeb8a2d4b2224fa38dc69cbe6a6f66e12e50b890e74cb8104cc02206df9cc00df492f96fbc9455788ab5eeb352270a75369340075fe2029ad2b66fa01", "034c44bbeb5721e84bd861bd9f7533535176c7838ea1ae168ba8c6502df6005087"], "sequence": 4294967294, "scriptSig": {"hex": "160014bd54cfd69e9226f288036bf28768f605cb3b3413", "asm": "0014bd54cfd69e9226f288036bf28768f605cb3b3413"}, "vout": 0, "txid": "c5e083cd6f01fbc5d1f37312ab3d74395a3558be22b234abe1cdeed419ec7ccb"}], "txid": "c49a499db47c5af22b56e5f1312ebe2e186c21bda5dd7fc92c2e1bd6e6e53f26", "blocktime": 1537873891, "version": 2, "confirmations": 11475, "time": 1537873891, "locktime": 542985, "vsize": 438, "size": 760}