{"hash": "ec2e59331df38f71fd2b3960e282da99c3bccb572496ae48d73dfd73d3162946", "blockhash": "0000000000000000001cda96e906b7601b7a6fb1a3b62bca570a9e5d8f4b3de1", "vout": [{"scriptPubKey": {"reqSigs": 1, "hex": "a914ee53a19b40fc70f911c8806558d0a7dd2a0f92fc87", "addresses": ["3PRAw15t2nF43gd8H1BivEomLVVdBRHbaH"], "asm": "OP_HASH160 ee53a19b40fc70f911c8806558d0a7dd2a0f92fc OP_EQUAL", "type": "scripthash"}, "value": 0.12272723, "n": 0}, {"scriptPubKey": {"reqSigs": 1, "hex": "76a914921bed28110c66b29e63b15e96ab3cc444b5c01888ac", "addresses": ["1EKZ7NHeSyqrawhiB8zrZkoCySqv2ERejF"], "asm": "OP_DUP OP_HASH160 921bed28110c66b29e63b15e96ab3cc444b5c018 OP_EQUALVERIFY OP_CHECKSIG", "type": "pubkeyhash"}, "value": 0.109738, "n": 1}], "hex": "0100000000010215aad5cfda892b69b5d3a8e2c9d513cddd09ad4e1ba2faa8329ce45c0834ba3401000000232200201f07ceb97a69a42df2ece95577513da5e1fd41fe73d2ba171019669a54cd1652ffffffffdcb4cd346906176c6b1348185a596db39fbe269a47ff5b2078f76ab1c213b5120000000023220020a3d61c5b1d611e3eded552d7c1ab5a7daf9cb862c0992c16cd9466af1334ace0ffffffff025344bb000000000017a914ee53a19b40fc70f911c8806558d0a7dd2a0f92fc876872a700000000001976a914921bed28110c66b29e63b15e96ab3cc444b5c01888ac0400483045022100b16fac22030732da61fcaf9d04a7cb145b3694b98f9bb100ac3146ca7086ee0b02201c1fbddbd9cb9f80eb2782a43742734b7edac702436147fe9f788e4d723127cf0148304502210085701f1145471a166085b9274fb5517a4eb0d0433d5992aed4ccb5bd0a6602ab02206f220b10a62f9eb5e0d3d2fddfb446fa0595b0c4f8374fb4823e7b652dea3ca90169522103667102d3f3853e47bf1dd776f353ef1fc591f41fe0aec4149458faf378bcba512103b0b88306416bea71ba1122a2668ed7a2a5e2ac24499ee1b1e79c7241ddad1b912102cc73c44d6627d2336807b88b91598ea0d42dec5f7fbe554a2f666f60dee66bd153ae0400483045022100bee57206fd51fe03ddea2c9dda21b9469e6077b3e38f2acc7119ea34d9ca7db8022050a8f6fe0801e00eeec3515584d18760aef457b7f83543e0a53dbe2bcfacb7db014730440220289fa19f00aea45f7107eca337cfb7a4a3730d676e3576be9ca6c28bf79a0b7102202f6b29288c457f350858bceefacd11f427a046ce63d344af39752b122ac707370169522103e6237ed95a7e29d726b0cc9813c43292587ce064004fad07570e40c2a46d74272102ba34836b9e00ff55e2add40403924c38a9359114311c1444e56f7f2f083067092103578d1358620b34393847991be4462684041aaa117f63614b18c713ba79c1164b53ae00000000", "vin": [{"txinwitness": ["", "3045022100b16fac22030732da61fcaf9d04a7cb145b3694b98f9bb100ac3146ca7086ee0b02201c1fbddbd9cb9f80eb2782a43742734b7edac702436147fe9f788e4d723127cf01", "304502210085701f1145471a166085b9274fb5517a4eb0d0433d5992aed4ccb5bd0a6602ab02206f220b10a62f9eb5e0d3d2fddfb446fa0595b0c4f8374fb4823e7b652dea3ca901", "522103667102d3f3853e47bf1dd776f353ef1fc591f41fe0aec4149458faf378bcba512103b0b88306416bea71ba1122a2668ed7a2a5e2ac24499ee1b1e79c7241ddad1b912102cc73c44d6627d2336807b88b91598ea0d42dec5f7fbe554a2f666f60dee66bd153ae"], "sequence": 4294967295, "scriptSig": {"hex": "2200201f07ceb97a69a42df2ece95577513da5e1fd41fe73d2ba171019669a54cd1652", "asm": "00201f07ceb97a69a42df2ece95577513da5e1fd41fe73d2ba171019669a54cd1652"}, "vout": 1, "txid": "34ba34085ce49c32a8faa21b4ead09ddcd13d5c9e2a8d3b5692b89dacfd5aa15"}, {"txinwitness": ["", "3045022100bee57206fd51fe03ddea2c9dda21b9469e6077b3e38f2acc7119ea34d9ca7db8022050a8f6fe0801e00eeec3515584d18760aef457b7f83543e0a53dbe2bcfacb7db01", "30440220289fa19f00aea45f7107eca337cfb7a4a3730d676e3576be9ca6c28bf79a0b7102202f6b29288c457f350858bceefacd11f427a046ce63d344af39752b122ac7073701", "522103e6237ed95a7e29d726b0cc9813c43292587ce064004fad07570e40c2a46d74272102ba34836b9e00ff55e2add40403924c38a9359114311c1444e56f7f2f083067092103578d1358620b34393847991be4462684041aaa117f63614b18c713ba79c1164b53ae"], "sequence": 4294967295, "scriptSig": {"hex": "220020a3d61c5b1d611e3eded552d7c1ab5a7daf9cb862c0992c16cd9466af1334ace0", "asm": "0020a3d61c5b1d611e3eded552d7c1ab5a7daf9cb862c0992c16cd9466af1334ace0"}, "vout": 0, "txid": "12b513c2b16af778205bff479a26be9fb36d595a1848136b6c17066934cdb4dc"}], "txid": "c49e89020a323ca4585091a79f829f8f45e0357491d973e942cee2597dcd9772", "blocktime": 1537873282, "version": 1, "confirmations": 11485, "time": 1537873282, "locktime": 0, "vsize": 356, "size": 737}