{"hash": "c4a12692c6d223ec8c8e13458a1ff1432ed4fe0ecf01c4723a2bd06d0aa1a46c", "blockhash": "0000000000000000001e0dab787dd257d1dbfcb92a98c2207d5e1078be1f4165", "vout": [{"scriptPubKey": {"reqSigs": 1, "hex": "a914f5a6f7a08d282148995bcc5a151d2918b0388aaa87", "addresses": ["3Q5uVdg9msUWVfenA9H5csS8Yvn19Rm4uQ"], "asm": "OP_HASH160 f5a6f7a08d282148995bcc5a151d2918b0388aaa OP_EQUAL", "type": "scripthash"}, "value": 0.23154052, "n": 0}, {"scriptPubKey": {"reqSigs": 1, "hex": "76a91438f2ce24f7ca234582dd641ff923efe38ca4a03e88ac", "addresses": ["16C7i9Xz7wgUz2fc4KeYw9wKWN462BVvDN"], "asm": "OP_DUP OP_HASH160 38f2ce24f7ca234582dd641ff923efe38ca4a03e OP_EQUALVERIFY OP_CHECKSIG", "type": "pubkeyhash"}, "value": 0.00491256, "n": 1}], "hex": "01000000036f9fc1db8d09acff68666b7775d15a301a1a88a29964c0814470e8c7b4eb3fd0000000006b483045022100a9c35a66c2df747d1c84fe0f444edd2239adf10e13f7a86919b0424a72e8c25f02205e1865b6a954f8c07120574b77d6a482e7ca3355152b845f8eddb382145510e101210322863ea3b2c4d2a0f324d9fa729f57c21a7319d78ca394ab3da814c3a6656700ffffffffe2c5076cebf22a5a286d6e18496bd88d505e9944bc116c8b019593a0fb27a94f010000006a473044022079e9d6b540f07b7cf5b24eb594937f2278ad5054bfec933633243fa3d34ce6c802207f27b797e22552f2bea367943686ff92e0d66397b2614ed6bee2844ede23d78601210322bc2ab791455a064cf27811a0722749e85cdd99d6209f8ee56b08d379e1d0d7ffffffff21d585384dcc220b89b206a7b8c82fdeea98666a83787ae91ac4035c2fba9ea1000000006a4730440220201d6b2d29a4961b2ffa5628d82229a16a9dc1667e1836c54e6ce7d36fa4233a02204341f1bb8dba3148a486d14c4c72b04836947763545a18dd5fa434df1a564a50012102eb52859904c7a2d931fd80fcfa49d474145daeb88903d6f8443558500419a447ffffffff02844d61010000000017a914f5a6f7a08d282148995bcc5a151d2918b0388aaa87f87e0700000000001976a91438f2ce24f7ca234582dd641ff923efe38ca4a03e88ac00000000", "vin": [{"sequence": 4294967295, "scriptSig": {"hex": "483045022100a9c35a66c2df747d1c84fe0f444edd2239adf10e13f7a86919b0424a72e8c25f02205e1865b6a954f8c07120574b77d6a482e7ca3355152b845f8eddb382145510e101210322863ea3b2c4d2a0f324d9fa729f57c21a7319d78ca394ab3da814c3a6656700", "asm": "3045022100a9c35a66c2df747d1c84fe0f444edd2239adf10e13f7a86919b0424a72e8c25f02205e1865b6a954f8c07120574b77d6a482e7ca3355152b845f8eddb382145510e1[ALL] 0322863ea3b2c4d2a0f324d9fa729f57c21a7319d78ca394ab3da814c3a6656700"}, "vout": 0, "txid": "d03febb4c7e8704481c06499a2881a1a305ad175776b6668ffac098ddbc19f6f"}, {"sequence": 4294967295, "scriptSig": {"hex": "473044022079e9d6b540f07b7cf5b24eb594937f2278ad5054bfec933633243fa3d34ce6c802207f27b797e22552f2bea367943686ff92e0d66397b2614ed6bee2844ede23d78601210322bc2ab791455a064cf27811a0722749e85cdd99d6209f8ee56b08d379e1d0d7", "asm": "3044022079e9d6b540f07b7cf5b24eb594937f2278ad5054bfec933633243fa3d34ce6c802207f27b797e22552f2bea367943686ff92e0d66397b2614ed6bee2844ede23d786[ALL] 0322bc2ab791455a064cf27811a0722749e85cdd99d6209f8ee56b08d379e1d0d7"}, "vout": 1, "txid": "4fa927fba09395018b6c11bc44995e508dd86b49186e6d285a2af2eb6c07c5e2"}, {"sequence": 4294967295, "scriptSig": {"hex": "4730440220201d6b2d29a4961b2ffa5628d82229a16a9dc1667e1836c54e6ce7d36fa4233a02204341f1bb8dba3148a486d14c4c72b04836947763545a18dd5fa434df1a564a50012102eb52859904c7a2d931fd80fcfa49d474145daeb88903d6f8443558500419a447", "asm": "30440220201d6b2d29a4961b2ffa5628d82229a16a9dc1667e1836c54e6ce7d36fa4233a02204341f1bb8dba3148a486d14c4c72b04836947763545a18dd5fa434df1a564a50[ALL] 02eb52859904c7a2d931fd80fcfa49d474145daeb88903d6f8443558500419a447"}, "vout": 0, "txid": "a19eba2f5c03c41ae97a78836a6698eade2fc8b8a706b2890b22cc4d3885d521"}], "txid": "c4a12692c6d223ec8c8e13458a1ff1432ed4fe0ecf01c4723a2bd06d0aa1a46c", "blocktime": 1537872475, "version": 1, "confirmations": 11486, "time": 1537872475, "locktime": 0, "vsize": 518, "size": 518}