{"hash": "c4aa4ab0ae7e90e0746fc8a536e44ba7bfa14387b37aac3bae8b6d25708484b6", "blockhash": "0000000000000000000e13cef7c366c0283d82e591d1acd082e914b08063cdf1", "vout": [{"scriptPubKey": {"reqSigs": 1, "hex": "a914ba7ea4a8b0452e3873dc6d488fcb2619cd248e6f87", "addresses": ["3Jh7KYjXGg55EaTGMrVi8RWBzTYB3YUnmc"], "asm": "OP_HASH160 ba7ea4a8b0452e3873dc6d488fcb2619cd248e6f OP_EQUAL", "type": "scripthash"}, "value": 0.00070378, "n": 0}, {"scriptPubKey": {"reqSigs": 1, "hex": "a91417d66afcece095e0e0a8aff022b192b1a5784bbd87", "addresses": ["33s4KyTc1z6B79abmKEabzPJ9WAt4fEU8j"], "asm": "OP_HASH160 17d66afcece095e0e0a8aff022b192b1a5784bbd OP_EQUAL", "type": "scripthash"}, "value": 0.00072512, "n": 1}], "hex": "02000000013f49ccd3c0f9e525537a26a58fe7fdca87b629516a35c98e85115558c8ec8449000000006b483045022100a8073ac1e72b5650be5acc3bab0e2db7f92a5ab52793b57fedee55eace741082022060f9b8268748c89e8f3ce658c081047e388f665db50c51176cdef764b5f13df0012103e686580e5cb141752fa2ff1321b7ced1f6a65dea0fe6ee9d6c23b0c748602632feffffff02ea1201000000000017a914ba7ea4a8b0452e3873dc6d488fcb2619cd248e6f87401b01000000000017a91417d66afcece095e0e0a8aff022b192b1a5784bbd8710490800", "vin": [{"sequence": 4294967294, "scriptSig": {"hex": "483045022100a8073ac1e72b5650be5acc3bab0e2db7f92a5ab52793b57fedee55eace741082022060f9b8268748c89e8f3ce658c081047e388f665db50c51176cdef764b5f13df0012103e686580e5cb141752fa2ff1321b7ced1f6a65dea0fe6ee9d6c23b0c748602632", "asm": "3045022100a8073ac1e72b5650be5acc3bab0e2db7f92a5ab52793b57fedee55eace741082022060f9b8268748c89e8f3ce658c081047e388f665db50c51176cdef764b5f13df0[ALL] 03e686580e5cb141752fa2ff1321b7ced1f6a65dea0fe6ee9d6c23b0c748602632"}, "vout": 0, "txid": "4984ecc8585511858ec9356a5129b687cafde78fa5267a5325e5f9c0d3cc493f"}], "txid": "c4aa4ab0ae7e90e0746fc8a536e44ba7bfa14387b37aac3bae8b6d25708484b6", "blocktime": 1537871767, "version": 2, "confirmations": 11495, "time": 1537871767, "locktime": 542992, "vsize": 222, "size": 222}