{"hash": "c4abd6721f81a7c6b338513057925e4bc93c279ee2bf62dd987f5fb14be4648c", "blockhash": "0000000000000000000e13cef7c366c0283d82e591d1acd082e914b08063cdf1", "vout": [{"scriptPubKey": {"reqSigs": 1, "hex": "76a914fbe5960d4f833813a47a02f58ac4646f44e134ae88ac", "addresses": ["1Pxue5JQhZsCK8R37dWK1K2nWCcM4LJ2ZL"], "asm": "OP_DUP OP_HASH160 fbe5960d4f833813a47a02f58ac4646f44e134ae OP_EQUALVERIFY OP_CHECKSIG", "type": "pubkeyhash"}, "value": 0.06658982, "n": 0}, {"scriptPubKey": {"reqSigs": 1, "hex": "a9143f850aab7c63d2f7bab7a9f41ce09b8af862089f87", "addresses": ["37UssXX4k8Hdri2vMTJZbHPUtyfdkRpy1J"], "asm": "OP_HASH160 3f850aab7c63d2f7bab7a9f41ce09b8af862089f OP_EQUAL", "type": "scripthash"}, "value": 0.06311995, "n": 1}, {"scriptPubKey": {"reqSigs": 1, "hex": "76a914e5ea4cbf8614fb3bc038aa67409852ff0ae6c55d88ac", "addresses": ["1MxgRN996G2Ev13JKtd9Ln26u4G442oXU3"], "asm": "OP_DUP OP_HASH160 e5ea4cbf8614fb3bc038aa67409852ff0ae6c55d OP_EQUALVERIFY OP_CHECKSIG", "type": "pubkeyhash"}, "value": 0.16330262, "n": 2}], "hex": "0200000009bd326e9eb350513234540a152ff4cd83eaf4994545e9b386d5777d2272bc14d2000000006b48304502210082fdf9e4af301521cff02ab50a956d2ee55e9b3ac795b6c78339abbdf74104c802202f541e19555752f1661b4768fa60e0519adf5f08ed17f08cd92d3c23e5b0959101210272ae654ff48cb84162c0b0b9e6811c0426e34c35ddd96c74895eccd7a3c6f03bffffffffb3f6c2f8012ad754a210fbbfce44f34b4e5468123e98858e3d7b721f05bc47a80b0000006a47304402203ffca887ccd10cd5dd56b0f6bbd171373ea4a6e1b96fbb78f02276ddda1271150220460510018d2465abd8f0da99e9ba63d263754fd06d7941f794c491404279549401210311749ff536ac93b0edc52580aa2cc00a9efe32fa3a188cfb155504dda80550a0ffffffff65d8e12d0d0cce72198cc07ca5a83b4cfc222de22fa05e6889925f990ded2cc0000000006a47304402205c8246a978cf2dc4126f7f929020888fb9d6621f845352fe712ef12b710637490220182abf14252e8c22d97d2c66cb22d513b988ef05f633d3a74397992b13af287d012102f132c6663b147941ae0f2b4487eb2cdc287444f32eb31dd1f25c9b45c27136edffffffffe211af7c4e9c8712417afd159cb318946491d226f3c1ab0bca7a3b6c302e76f8130000006a473044022010f6e6e5672e2d12aba11d3acb66f8333900fa1e6edc52e808a3a8e06a6f424a0220579aa0321ab2249887fd3eb748acb5f85e4244ba7390d78dcac5bf342db981b90121032894d77252433c04e00f995d38145a4c1d1df6178c44a6cf51cdd88e86d83b40ffffffff38654f9d39f30823eaf88c39c0224c5d8da508ccbe8f27b0af9c3520d8f98dca000000006b483045022100e4f2dfece58d0149e15aee29af86e8041c47151184fc1a4c209ef8bef7d035d302203f96eba72efb33a1346cb6b8d8a98ff05b4911bf4bde68ed9e34476df10fa4c101210371375fa4534a824c33abb4969b5525df343ecba5f1d4c484ce7a7dd5f65decd2ffffffff356d8642fa6c109dd2e2fcb34adf1bf4d5cb1080b21c8a9791eeb42857b7bbd7000000006a4730440220598f51eb7af9037ceb996416f8d6aadc599f3b64d2c01f4735b87089c03adfad02200981fc3325c210de757211ce519edcfbd2dda5417621387963ec680c402cb57c0121026c0493fc6ed6f8ca6d1c54c2e23540925702cb9ba6454194103c03d3cec345cfffffffffa170b45b16d816af4c214878c748bc0f6060325f3ff0221edc002d42853ebdfe010000006b48304502210082f4f99e70cf80f38169781f5b2a16bcebc12d74f034b74f2adb610f4495ad1202206a5704be62319592cdee08cffefc4b6796f8d1fdc73abdfce8b5d8112cda02bf012103532e08672146ec22f50481e9044bc9c647a8ab6acf6298e7f2738b9fb708621bfffffffff6dc3d00c26d4da7001c54f4686ca7339740716d9cce0256a3477c7b48ab35eb020000006b483045022100e40eba6b19815f11e2ec2add4659d642f40cb049226fdf2bbc91f118e171874b02201ac76303e557657072542590c58cb7c39b0a978ae3230a61e2a43cc939f581ac012102df4920f50c093fc2f21213cb588dff5abc5d5f18ab1482332aaa47e16fa4c1f5ffffffffd4c10981320db3d77899d180502f1c65ee3eda27e4aec54d32a8be3cf5aeefea050000006b4830450221008cf40666e46ce9977ae7ace72d3d7c638a05c9245b115e8c04eff37fd04894c602205165eeb016d2af593454f588b629e509e7289cbf7ce0da3c04866b9f058fb6980121039614686f010ca4137c4e6316d72a4ac5780e053656a10f4c35627c4dfa223b10ffffffff03a69b6500000000001976a914fbe5960d4f833813a47a02f58ac4646f44e134ae88ac3b5060000000000017a9143f850aab7c63d2f7bab7a9f41ce09b8af862089f87162ef900000000001976a914e5ea4cbf8614fb3bc038aa67409852ff0ae6c55d88ac00000000", "vin": [{"sequence": 4294967295, "scriptSig": {"hex": "48304502210082fdf9e4af301521cff02ab50a956d2ee55e9b3ac795b6c78339abbdf74104c802202f541e19555752f1661b4768fa60e0519adf5f08ed17f08cd92d3c23e5b0959101210272ae654ff48cb84162c0b0b9e6811c0426e34c35ddd96c74895eccd7a3c6f03b", "asm": "304502210082fdf9e4af301521cff02ab50a956d2ee55e9b3ac795b6c78339abbdf74104c802202f541e19555752f1661b4768fa60e0519adf5f08ed17f08cd92d3c23e5b09591[ALL] 0272ae654ff48cb84162c0b0b9e6811c0426e34c35ddd96c74895eccd7a3c6f03b"}, "vout": 0, "txid": "d214bc72227d77d586b3e9454599f4ea83cdf42f150a5434325150b39e6e32bd"}, {"sequence": 4294967295, "scriptSig": {"hex": "47304402203ffca887ccd10cd5dd56b0f6bbd171373ea4a6e1b96fbb78f02276ddda1271150220460510018d2465abd8f0da99e9ba63d263754fd06d7941f794c491404279549401210311749ff536ac93b0edc52580aa2cc00a9efe32fa3a188cfb155504dda80550a0", "asm": "304402203ffca887ccd10cd5dd56b0f6bbd171373ea4a6e1b96fbb78f02276ddda1271150220460510018d2465abd8f0da99e9ba63d263754fd06d7941f794c4914042795494[ALL] 0311749ff536ac93b0edc52580aa2cc00a9efe32fa3a188cfb155504dda80550a0"}, "vout": 11, "txid": "a847bc051f727b3d8e85983e1268544e4bf344cebffb10a254d72a01f8c2f6b3"}, {"sequence": 4294967295, "scriptSig": {"hex": "47304402205c8246a978cf2dc4126f7f929020888fb9d6621f845352fe712ef12b710637490220182abf14252e8c22d97d2c66cb22d513b988ef05f633d3a74397992b13af287d012102f132c6663b147941ae0f2b4487eb2cdc287444f32eb31dd1f25c9b45c27136ed", "asm": "304402205c8246a978cf2dc4126f7f929020888fb9d6621f845352fe712ef12b710637490220182abf14252e8c22d97d2c66cb22d513b988ef05f633d3a74397992b13af287d[ALL] 02f132c6663b147941ae0f2b4487eb2cdc287444f32eb31dd1f25c9b45c27136ed"}, "vout": 0, "txid": "c02ced0d995f9289685ea02fe22d22fc4c3ba8a57cc08c1972ce0c0d2de1d865"}, {"sequence": 4294967295, "scriptSig": {"hex": "473044022010f6e6e5672e2d12aba11d3acb66f8333900fa1e6edc52e808a3a8e06a6f424a0220579aa0321ab2249887fd3eb748acb5f85e4244ba7390d78dcac5bf342db981b90121032894d77252433c04e00f995d38145a4c1d1df6178c44a6cf51cdd88e86d83b40", "asm": "3044022010f6e6e5672e2d12aba11d3acb66f8333900fa1e6edc52e808a3a8e06a6f424a0220579aa0321ab2249887fd3eb748acb5f85e4244ba7390d78dcac5bf342db981b9[ALL] 032894d77252433c04e00f995d38145a4c1d1df6178c44a6cf51cdd88e86d83b40"}, "vout": 19, "txid": "f8762e306c3b7aca0babc1f326d291649418b39c15fd7a4112879c4e7caf11e2"}, {"sequence": 4294967295, "scriptSig": {"hex": "483045022100e4f2dfece58d0149e15aee29af86e8041c47151184fc1a4c209ef8bef7d035d302203f96eba72efb33a1346cb6b8d8a98ff05b4911bf4bde68ed9e34476df10fa4c101210371375fa4534a824c33abb4969b5525df343ecba5f1d4c484ce7a7dd5f65decd2", "asm": "3045022100e4f2dfece58d0149e15aee29af86e8041c47151184fc1a4c209ef8bef7d035d302203f96eba72efb33a1346cb6b8d8a98ff05b4911bf4bde68ed9e34476df10fa4c1[ALL] 0371375fa4534a824c33abb4969b5525df343ecba5f1d4c484ce7a7dd5f65decd2"}, "vout": 0, "txid": "ca8df9d820359cafb0278fbecc08a58d5d4c22c0398cf8ea2308f3399d4f6538"}, {"sequence": 4294967295, "scriptSig": {"hex": "4730440220598f51eb7af9037ceb996416f8d6aadc599f3b64d2c01f4735b87089c03adfad02200981fc3325c210de757211ce519edcfbd2dda5417621387963ec680c402cb57c0121026c0493fc6ed6f8ca6d1c54c2e23540925702cb9ba6454194103c03d3cec345cf", "asm": "30440220598f51eb7af9037ceb996416f8d6aadc599f3b64d2c01f4735b87089c03adfad02200981fc3325c210de757211ce519edcfbd2dda5417621387963ec680c402cb57c[ALL] 026c0493fc6ed6f8ca6d1c54c2e23540925702cb9ba6454194103c03d3cec345cf"}, "vout": 0, "txid": "d7bbb75728b4ee91978a1cb28010cbd5f41bdf4ab3fce2d29d106cfa42866d35"}, {"sequence": 4294967295, "scriptSig": {"hex": "48304502210082f4f99e70cf80f38169781f5b2a16bcebc12d74f034b74f2adb610f4495ad1202206a5704be62319592cdee08cffefc4b6796f8d1fdc73abdfce8b5d8112cda02bf012103532e08672146ec22f50481e9044bc9c647a8ab6acf6298e7f2738b9fb708621b", "asm": "304502210082f4f99e70cf80f38169781f5b2a16bcebc12d74f034b74f2adb610f4495ad1202206a5704be62319592cdee08cffefc4b6796f8d1fdc73abdfce8b5d8112cda02bf[ALL] 03532e08672146ec22f50481e9044bc9c647a8ab6acf6298e7f2738b9fb708621b"}, "vout": 1, "txid": "febd3e85422d00dc1e22f03f5f3260600fbc48c77848214caf16d8165bb470a1"}, {"sequence": 4294967295, "scriptSig": {"hex": "483045022100e40eba6b19815f11e2ec2add4659d642f40cb049226fdf2bbc91f118e171874b02201ac76303e557657072542590c58cb7c39b0a978ae3230a61e2a43cc939f581ac012102df4920f50c093fc2f21213cb588dff5abc5d5f18ab1482332aaa47e16fa4c1f5", "asm": "3045022100e40eba6b19815f11e2ec2add4659d642f40cb049226fdf2bbc91f118e171874b02201ac76303e557657072542590c58cb7c39b0a978ae3230a61e2a43cc939f581ac[ALL] 02df4920f50c093fc2f21213cb588dff5abc5d5f18ab1482332aaa47e16fa4c1f5"}, "vout": 2, "txid": "eb35ab487b7c47a35602ce9c6d71409733a76c68f4541c00a74d6dc2003ddcf6"}, {"sequence": 4294967295, "scriptSig": {"hex": "4830450221008cf40666e46ce9977ae7ace72d3d7c638a05c9245b115e8c04eff37fd04894c602205165eeb016d2af593454f588b629e509e7289cbf7ce0da3c04866b9f058fb6980121039614686f010ca4137c4e6316d72a4ac5780e053656a10f4c35627c4dfa223b10", "asm": "30450221008cf40666e46ce9977ae7ace72d3d7c638a05c9245b115e8c04eff37fd04894c602205165eeb016d2af593454f588b629e509e7289cbf7ce0da3c04866b9f058fb698[ALL] 039614686f010ca4137c4e6316d72a4ac5780e053656a10f4c35627c4dfa223b10"}, "vout": 5, "txid": "eaefaef53cbea8324dc5aee427da3eee651c2f5080d19978d7b30d328109c1d4"}], "txid": "c4abd6721f81a7c6b338513057925e4bc93c279ee2bf62dd987f5fb14be4648c", "blocktime": 1537871767, "version": 2, "confirmations": 11493, "time": 1537871767, "locktime": 0, "vsize": 1438, "size": 1438}