{"hash": "eb5a1c3558ed793dd7ba3adc1cadab347364ff6ad4af92ce3cd2b82043392614", "blockhash": "0000000000000000001cda96e906b7601b7a6fb1a3b62bca570a9e5d8f4b3de1", "vout": [{"scriptPubKey": {"reqSigs": 1, "hex": "a91490e99e8d26d05ead3c05430c292a887bbff695f587", "addresses": ["3EuF6KjJawxTiUsea3Sc8hsLUGmVEf7Xg5"], "asm": "OP_HASH160 90e99e8d26d05ead3c05430c292a887bbff695f5 OP_EQUAL", "type": "scripthash"}, "value": 0.0014489, "n": 0}, {"scriptPubKey": {"type": "nulldata", "hex": "6a146f6d6e69000000000000001f0000000005f5e100", "asm": "OP_RETURN 6f6d6e69000000000000001f0000000005f5e100"}, "value": 0.0, "n": 1}, {"scriptPubKey": {"reqSigs": 1, "hex": "a91490e99e8d26d05ead3c05430c292a887bbff695f587", "addresses": ["3EuF6KjJawxTiUsea3Sc8hsLUGmVEf7Xg5"], "asm": "OP_HASH160 90e99e8d26d05ead3c05430c292a887bbff695f5 OP_EQUAL", "type": "scripthash"}, "value": 5.4e-06, "n": 2}], "hex": "01000000000102ae7114aef46e36d2282bdb1f6b9258eec14dc75a54e6aecce522e4d92743e0550000000017160014f6e1792e7852ebd5ae795c2a25d579acdfadec2dffffffffae7114aef46e36d2282bdb1f6b9258eec14dc75a54e6aecce522e4d92743e0550200000017160014f6e1792e7852ebd5ae795c2a25d579acdfadec2dffffffff03fa3502000000000017a91490e99e8d26d05ead3c05430c292a887bbff695f5870000000000000000166a146f6d6e69000000000000001f0000000005f5e1001c0200000000000017a91490e99e8d26d05ead3c05430c292a887bbff695f587024830450221008ccf32ca3686658d392d678bf0e971d8b6ce11c2bfe153cb3a6f874ddfee3c5202206361ff95b1a082980c8d169409dda850f3a39cde08a4d1c83bd84ee2828313b1012103f1cf988013a33e053d1e9bd54c4798c1a6dc362a5b2798b5344049fca40e2db0024730440220799a5ce2e5009471913b4b386d04c91edf9f931ed18d7e13b65a4015685a08e8022019f948096feb114fee8006633125e931ff12502b8103f1c52bfcd1687b7f5e71012103f1cf988013a33e053d1e9bd54c4798c1a6dc362a5b2798b5344049fca40e2db000000000", "vin": [{"txinwitness": ["30450221008ccf32ca3686658d392d678bf0e971d8b6ce11c2bfe153cb3a6f874ddfee3c5202206361ff95b1a082980c8d169409dda850f3a39cde08a4d1c83bd84ee2828313b101", "03f1cf988013a33e053d1e9bd54c4798c1a6dc362a5b2798b5344049fca40e2db0"], "sequence": 4294967295, "scriptSig": {"hex": "160014f6e1792e7852ebd5ae795c2a25d579acdfadec2d", "asm": "0014f6e1792e7852ebd5ae795c2a25d579acdfadec2d"}, "vout": 0, "txid": "55e04327d9e422e5ccaee6545ac74dc1ee58926b1fdb2b28d2366ef4ae1471ae"}, {"txinwitness": ["30440220799a5ce2e5009471913b4b386d04c91edf9f931ed18d7e13b65a4015685a08e8022019f948096feb114fee8006633125e931ff12502b8103f1c52bfcd1687b7f5e7101", "03f1cf988013a33e053d1e9bd54c4798c1a6dc362a5b2798b5344049fca40e2db0"], "sequence": 4294967295, "scriptSig": {"hex": "160014f6e1792e7852ebd5ae795c2a25d579acdfadec2d", "asm": "0014f6e1792e7852ebd5ae795c2a25d579acdfadec2d"}, "vout": 2, "txid": "55e04327d9e422e5ccaee6545ac74dc1ee58926b1fdb2b28d2366ef4ae1471ae"}], "txid": "c4ac1f32e149007097fabe500188ac8bbf1287f79c675cf41c92f3b45d2d7bc5", "blocktime": 1537873282, "version": 1, "confirmations": 11484, "time": 1537873282, "locktime": 0, "vsize": 288, "size": 450}