{"hash": "62f5996a8f18983e0a16c3b32ce3d9c37520ad3976ee806fa9bb78351322c048", "blockhash": "00000000000000000024a2167bbff67b0be802c0b01cdd79e6331c2be6459f87", "vout": [{"scriptPubKey": {"reqSigs": 1, "hex": "a9145c4c846a988cf3de1364ee3f0f8bcb21b7f47c9c87", "addresses": ["3A73khnV9YHYszS3G65cfnNJsXTE8p9wKC"], "asm": "OP_HASH160 5c4c846a988cf3de1364ee3f0f8bcb21b7f47c9c OP_EQUAL", "type": "scripthash"}, "value": 0.017, "n": 0}, {"scriptPubKey": {"reqSigs": 1, "hex": "a9145985748820320059c8052ec42171d344d49bf48c87", "addresses": ["39rMwFG2oKzcZTJgAAW2Z8Bz6UZrAcHkTc"], "asm": "OP_HASH160 5985748820320059c8052ec42171d344d49bf48c OP_EQUAL", "type": "scripthash"}, "value": 0.02, "n": 1}, {"scriptPubKey": {"reqSigs": 1, "hex": "a91469f3749f1405cac64b48312a44a82c1203b76faf87", "addresses": ["3BMEXGruweaQnhERU2orGip46YpxFx5cUA"], "asm": "OP_HASH160 69f3749f1405cac64b48312a44a82c1203b76faf OP_EQUAL", "type": "scripthash"}, "value": 0.1373, "n": 2}, {"scriptPubKey": {"reqSigs": 1, "hex": "a914d61923e489fb25488d99546242718b509462f93787", "addresses": ["3MD4eNGrRq8YMav3YbyHBt6yyoYFeTrXJq"], "asm": "OP_HASH160 d61923e489fb25488d99546242718b509462f937 OP_EQUAL", "type": "scripthash"}, "value": 0.00676, "n": 3}, {"scriptPubKey": {"reqSigs": 1, "hex": "a91482bb7e176e2c59884f56f5fe13f09ee78cdd50e787", "addresses": ["3DcGNh6YJhWtgwUFUjoQjoPRp9ywRwdLwv"], "asm": "OP_HASH160 82bb7e176e2c59884f56f5fe13f09ee78cdd50e7 OP_EQUAL", "type": "scripthash"}, "value": 13.06506671, "n": 4}, {"scriptPubKey": {"reqSigs": 1, "hex": "76a914935a380f38dd46a9319d08c38eea23aaf7a00d3788ac", "addresses": ["1ES8Qiz3hh1b97pvMDWk1j79NZ9bMV9D5E"], "asm": "OP_DUP OP_HASH160 935a380f38dd46a9319d08c38eea23aaf7a00d37 OP_EQUALVERIFY OP_CHECKSIG", "type": "pubkeyhash"}, "value": 0.1369, "n": 5}, {"scriptPubKey": {"reqSigs": 1, "hex": "76a9144b16af0bd585bab7844aaa476b1c696dcc22a2ae88ac", "addresses": ["17r2rV3frg6eMTLUkuHEEzXtTFvhX41Dqb"], "asm": "OP_DUP OP_HASH160 4b16af0bd585bab7844aaa476b1c696dcc22a2ae OP_EQUALVERIFY OP_CHECKSIG", "type": "pubkeyhash"}, "value": 0.41, "n": 6}, {"scriptPubKey": {"reqSigs": 1, "hex": "a91469f374de2af2c0aa7bb27155956057fa924ae23687", "addresses": ["3BMEXLjvVjxsPS1szHFTyeyDq4bKZedaSk"], "asm": "OP_HASH160 69f374de2af2c0aa7bb27155956057fa924ae236 OP_EQUAL", "type": "scripthash"}, "value": 0.5086, "n": 7}, {"scriptPubKey": {"reqSigs": 1, "hex": "76a9141bfd4e5cafe571acc084e26ab33a5046b830ce4088ac", "addresses": ["13YzhCN5ur1eR4xkZRSvLvBh89cjogVZf6"], "asm": "OP_DUP OP_HASH160 1bfd4e5cafe571acc084e26ab33a5046b830ce40 OP_EQUALVERIFY OP_CHECKSIG", "type": "pubkeyhash"}, "value": 0.14305549, "n": 8}, {"scriptPubKey": {"reqSigs": 1, "hex": "a91469f3749f19e24324285e0b9fa94d8c323d42df9787", "addresses": ["3BMEXGrzgLkCgrcBhbuePjPX3EAhpFGjd3"], "asm": "OP_HASH160 69f3749f19e24324285e0b9fa94d8c323d42df97 OP_EQUAL", "type": "scripthash"}, "value": 0.1093, "n": 9}, {"scriptPubKey": {"reqSigs": 1, "hex": "a9146de236c1aacd3949ae299fbcdcbb9e4f4e1ab76087", "addresses": ["3Bi2a51zdvzwbCWjNktuC2c7Pqyksv17Kh"], "asm": "OP_HASH160 6de236c1aacd3949ae299fbcdcbb9e4f4e1ab760 OP_EQUAL", "type": "scripthash"}, "value": 0.0059, "n": 10}], "hex": "0100000000010134af5ccee0dccde840de1d4d42156e1bf31588055b0a206fc51df7ed82d8864d0400000023220020b7bdb753e15cb7e345afeb047e13bca77d8c219137a153f21f314a15d2bdf9ddffffffff0ba0f019000000000017a9145c4c846a988cf3de1364ee3f0f8bcb21b7f47c9c8780841e000000000017a9145985748820320059c8052ec42171d344d49bf48c87d080d1000000000017a91469f3749f1405cac64b48312a44a82c1203b76faf87a0500a000000000017a914d61923e489fb25488d99546242718b509462f93787afb5df4d0000000017a91482bb7e176e2c59884f56f5fe13f09ee78cdd50e78790e4d000000000001976a914935a380f38dd46a9319d08c38eea23aaf7a00d3788ac409c7102000000001976a9144b16af0bd585bab7844aaa476b1c696dcc22a2ae88ace00f08030000000017a91469f374de2af2c0aa7bb27155956057fa924ae236870d49da00000000001976a9141bfd4e5cafe571acc084e26ab33a5046b830ce4088ac50c7a6000000000017a91469f3749f19e24324285e0b9fa94d8c323d42df9787b00009000000000017a9146de236c1aacd3949ae299fbcdcbb9e4f4e1ab76087040047304402206c702bac4e43e9fd4f9db381873699a0dc6e3a6a66b549731c069c92c696f0bf022008b34a510424165ebb93a8171c74d36164d8853ad02b71422420ce39eac338e001483045022100af446240fd6757ac9ff82113ffe2465aeeb5854767984c052eb532013e0aa7a102202a12c3f8a26b0985a84445104abb9ce8b9c7e1089c21892e8f337e53f608d996016952210200c27cf01c884c353b0d652dc07cbb30e99f7eea5190ccf69e24939f28e95ba02103c6cea12492c81a526bec7f85ca4b2febb602e403ccba7045a9d4c0ce32c9a81f210271fd210d5192c1d851f65fc3e68ea466d25da11485fd75603b1d79eece1414a153ae00000000", "vin": [{"txinwitness": ["", "304402206c702bac4e43e9fd4f9db381873699a0dc6e3a6a66b549731c069c92c696f0bf022008b34a510424165ebb93a8171c74d36164d8853ad02b71422420ce39eac338e001", "3045022100af446240fd6757ac9ff82113ffe2465aeeb5854767984c052eb532013e0aa7a102202a12c3f8a26b0985a84445104abb9ce8b9c7e1089c21892e8f337e53f608d99601", "52210200c27cf01c884c353b0d652dc07cbb30e99f7eea5190ccf69e24939f28e95ba02103c6cea12492c81a526bec7f85ca4b2febb602e403ccba7045a9d4c0ce32c9a81f210271fd210d5192c1d851f65fc3e68ea466d25da11485fd75603b1d79eece1414a153ae"], "sequence": 4294967295, "scriptSig": {"hex": "220020b7bdb753e15cb7e345afeb047e13bca77d8c219137a153f21f314a15d2bdf9dd", "asm": "0020b7bdb753e15cb7e345afeb047e13bca77d8c219137a153f21f314a15d2bdf9dd"}, "vout": 4, "txid": "4d86d882edf71dc56f200a5b058815f31b6e15424d1dde40e8cddce0ce5caf34"}], "txid": "c4aea250391d8a48c8802a05e3c232e3ca9d6cb479e18b2298fdf1537c82a34e", "blocktime": 1537870564, "version": 1, "confirmations": 11515, "time": 1537870564, "locktime": 0, "vsize": 508, "size": 699}