{"hash": "3afbae98721813f35e8bfe2b300b3e2908de11363b2beafcecf6f4ff1d06fb5f", "blockhash": "0000000000000000000dcc0f55137456b1a82d3642486a52398922ac4d620174", "vout": [{"scriptPubKey": {"reqSigs": 1, "hex": "a914733deb22e105806da14c1cde74b6d0379c52282487", "addresses": ["3CCMon2VHqmUfdhwWq1EjPMYmzJsedxPri"], "asm": "OP_HASH160 733deb22e105806da14c1cde74b6d0379c522824 OP_EQUAL", "type": "scripthash"}, "value": 0.0006009, "n": 0}, {"scriptPubKey": {"reqSigs": 1, "hex": "a91425c8d47218f3bef21d9cddc807c344ca8d14fb1187", "addresses": ["358oWYaJ4bLNHEegqmWUnDb3rDUXHCJnEv"], "asm": "OP_HASH160 25c8d47218f3bef21d9cddc807c344ca8d14fb11 OP_EQUAL", "type": "scripthash"}, "value": 0.00250103, "n": 1}], "hex": "010000000001018c1916b1caefb64b687b3a94aabf72c44235593ec11092f682ac9725515921ec0100000023220020b5f9d67776a3cb1798740a6d9440a510f980dac0f1e970a31751dc5afd471e3efdffffff02baea00000000000017a914733deb22e105806da14c1cde74b6d0379c52282487f7d003000000000017a91425c8d47218f3bef21d9cddc807c344ca8d14fb118704004730440220096298d828163d92952f894182b900a1f2cd8b5159a793268fe0a31cfd2f02d002204255ae98969fe9adeb1a799b2037d47ba5518b9288a44f88ae1b62051465a85801483045022100b3ad9c43c12ea15db4605a3a89e83a91ac5a0b0b8279d6253702212c7e50b4ef02203639d261f2ede1a9b731916267f1063b050be607db50c1322b8d3b9a7002b6e701475221029c1dcdbf68d2735694091bf692e83491232a868aec7398f1fc3ad2747f28148421029830bbfb990201d1c0128bd1811e4306c1af50c3e3cea9356675bde65a22f8f752ae0b490800", "vin": [{"txinwitness": ["", "30440220096298d828163d92952f894182b900a1f2cd8b5159a793268fe0a31cfd2f02d002204255ae98969fe9adeb1a799b2037d47ba5518b9288a44f88ae1b62051465a85801", "3045022100b3ad9c43c12ea15db4605a3a89e83a91ac5a0b0b8279d6253702212c7e50b4ef02203639d261f2ede1a9b731916267f1063b050be607db50c1322b8d3b9a7002b6e701", "5221029c1dcdbf68d2735694091bf692e83491232a868aec7398f1fc3ad2747f28148421029830bbfb990201d1c0128bd1811e4306c1af50c3e3cea9356675bde65a22f8f752ae"], "sequence": 4294967293, "scriptSig": {"hex": "220020b5f9d67776a3cb1798740a6d9440a510f980dac0f1e970a31751dc5afd471e3e", "asm": "0020b5f9d67776a3cb1798740a6d9440a510f980dac0f1e970a31751dc5afd471e3e"}, "vout": 1, "txid": "ec2159512597ac82f69210c13e593542c472bfaa943a7b684bb6efcab116198c"}], "txid": "c4b05712a9250ca5ba2793ffb489951d2ec68a7040d366458c3d3f6c7d07f6cf", "blocktime": 1537870268, "version": 1, "confirmations": 11519, "time": 1537870268, "locktime": 542987, "vsize": 206, "size": 371}