{"hash": "c4bdce68afd42ad2c08f8aaf2e2567625b6115d6a905df123517c0cbd46ea2fb", "blockhash": "0000000000000000001e0dab787dd257d1dbfcb92a98c2207d5e1078be1f4165", "vout": [{"scriptPubKey": {"reqSigs": 1, "hex": "76a914c22b7ff24f16a758609daf5ee825b74d2f3868d988ac", "addresses": ["1JhgCdkLgwkHhE5mRNnXr1CPgKNSCcRLKP"], "asm": "OP_DUP OP_HASH160 c22b7ff24f16a758609daf5ee825b74d2f3868d9 OP_EQUALVERIFY OP_CHECKSIG", "type": "pubkeyhash"}, "value": 4.0, "n": 0}, {"scriptPubKey": {"reqSigs": 1, "hex": "76a914e898e9f89d58e30bd4cabcc23abe111e5acffd5e88ac", "addresses": ["1NCrx9pqoWe4ZK47usjjX5yun6epqgrG1Q"], "asm": "OP_DUP OP_HASH160 e898e9f89d58e30bd4cabcc23abe111e5acffd5e OP_EQUALVERIFY OP_CHECKSIG", "type": "pubkeyhash"}, "value": 3.90731, "n": 1}], "hex": "0100000002a1aaf2cbdbfd8756c4115ffe680b650817261a6abab0fb48c944f03b696d77df010000006b483045022100a724578d35b3bd86444c854cae2f9d9312d13a801c503b4ab56b159ae0a3176a02207c8d8c95fcc46f012be7e11270e2fb1418d040aa127fda3273ce190f41f584d30121034b9a9ae3332de9cc9c8db7a6105dfe0b9e4fed5df419b674036eaf1b9f0837ccffffffff40fe12f25f6c458e7ee1108c5ef8590eaf128629fd97b2917f3b7669bee9702a090000006a47304402202a0a37d8a02edee8d6b95b290bdd217d0867707e69f1fe7f2ccd9f8b62d6e5ac0220163a86c85b7813ec421d9e28c8b67d0511d4d00f008cf7981d865e5dd978f1100121034b9a9ae3332de9cc9c8db7a6105dfe0b9e4fed5df419b674036eaf1b9f0837ccffffffff020084d717000000001976a914c22b7ff24f16a758609daf5ee825b74d2f3868d988acf8144a17000000001976a914e898e9f89d58e30bd4cabcc23abe111e5acffd5e88ac00000000", "vin": [{"sequence": 4294967295, "scriptSig": {"hex": "483045022100a724578d35b3bd86444c854cae2f9d9312d13a801c503b4ab56b159ae0a3176a02207c8d8c95fcc46f012be7e11270e2fb1418d040aa127fda3273ce190f41f584d30121034b9a9ae3332de9cc9c8db7a6105dfe0b9e4fed5df419b674036eaf1b9f0837cc", "asm": "3045022100a724578d35b3bd86444c854cae2f9d9312d13a801c503b4ab56b159ae0a3176a02207c8d8c95fcc46f012be7e11270e2fb1418d040aa127fda3273ce190f41f584d3[ALL] 034b9a9ae3332de9cc9c8db7a6105dfe0b9e4fed5df419b674036eaf1b9f0837cc"}, "vout": 1, "txid": "df776d693bf044c948fbb0ba6a1a261708650b68fe5f11c45687fddbcbf2aaa1"}, {"sequence": 4294967295, "scriptSig": {"hex": "47304402202a0a37d8a02edee8d6b95b290bdd217d0867707e69f1fe7f2ccd9f8b62d6e5ac0220163a86c85b7813ec421d9e28c8b67d0511d4d00f008cf7981d865e5dd978f1100121034b9a9ae3332de9cc9c8db7a6105dfe0b9e4fed5df419b674036eaf1b9f0837cc", "asm": "304402202a0a37d8a02edee8d6b95b290bdd217d0867707e69f1fe7f2ccd9f8b62d6e5ac0220163a86c85b7813ec421d9e28c8b67d0511d4d00f008cf7981d865e5dd978f110[ALL] 034b9a9ae3332de9cc9c8db7a6105dfe0b9e4fed5df419b674036eaf1b9f0837cc"}, "vout": 9, "txid": "2a70e9be69763b7f91b297fd298612af0e59f85e8c10e17e8e456c5ff212fe40"}], "txid": "c4bdce68afd42ad2c08f8aaf2e2567625b6115d6a905df123517c0cbd46ea2fb", "blocktime": 1537872475, "version": 1, "confirmations": 11487, "time": 1537872475, "locktime": 0, "vsize": 373, "size": 373}