{"hash": "5e54e6ea2c2efecaf3cc0d88c0d9ba48f5cb0e028d5631bec43aeba6253940f1", "blockhash": "0000000000000000000dcc0f55137456b1a82d3642486a52398922ac4d620174", "vout": [{"scriptPubKey": {"reqSigs": 1, "hex": "a91474ba892b48001c03c457f2b9c9fcf00d258e56bd87", "addresses": ["3CLDmXoNLw3uraJwzcqFMdMYgwU6w3twy6"], "asm": "OP_HASH160 74ba892b48001c03c457f2b9c9fcf00d258e56bd OP_EQUAL", "type": "scripthash"}, "value": 0.00018218, "n": 0}, {"scriptPubKey": {"reqSigs": 1, "hex": "a9140be7846be16b05bea00dbec2fcd7e045a793cb1787", "addresses": ["32mxhko5mJHfkbkDPpz7SfdJwEJi21P1WK"], "asm": "OP_HASH160 0be7846be16b05bea00dbec2fcd7e045a793cb17 OP_EQUAL", "type": "scripthash"}, "value": 0.20453227, "n": 1}], "hex": "010000000001014845e0ba2e0913dd7eaab6472a269d1e3d153ee6f95568a0ad614e5fc7f1b77001000000232200202c66ece6da72bcbfeadf83a91236f4891c13e14d8ecebdcaa81666fc1aa73a31ffffffff022a4700000000000017a91474ba892b48001c03c457f2b9c9fcf00d258e56bd876b1738010000000017a9140be7846be16b05bea00dbec2fcd7e045a793cb17870400483045022100ab445011d4fa7c6cc21332a2131ac95a198e737ab2798c0ffbbca22e2795f4c4022007a71a07a721c98dae0bd101758a990f5b25c23d768ff2e8af247ac55de0e57101483045022100a34050297bf92d36e03c733b015267a0f7e0386d818c44643b43bd4d30caf3e10220365da4f058749a756d7b5c9a8992b50a20ad6e545f26114959a20e4a873c5df601475221029e6fbb942d34a473faaa5557c1bfe08d72102f0b9754ad140fd369d7a3ba3cdc2103871fc2ca08e6950b38867e8e6a0e94ee625223d3aa0df5c65f414c6d784467e252ae00000000", "vin": [{"txinwitness": ["", "3045022100ab445011d4fa7c6cc21332a2131ac95a198e737ab2798c0ffbbca22e2795f4c4022007a71a07a721c98dae0bd101758a990f5b25c23d768ff2e8af247ac55de0e57101", "3045022100a34050297bf92d36e03c733b015267a0f7e0386d818c44643b43bd4d30caf3e10220365da4f058749a756d7b5c9a8992b50a20ad6e545f26114959a20e4a873c5df601", "5221029e6fbb942d34a473faaa5557c1bfe08d72102f0b9754ad140fd369d7a3ba3cdc2103871fc2ca08e6950b38867e8e6a0e94ee625223d3aa0df5c65f414c6d784467e252ae"], "sequence": 4294967295, "scriptSig": {"hex": "2200202c66ece6da72bcbfeadf83a91236f4891c13e14d8ecebdcaa81666fc1aa73a31", "asm": "00202c66ece6da72bcbfeadf83a91236f4891c13e14d8ecebdcaa81666fc1aa73a31"}, "vout": 1, "txid": "70b7f1c75f4e61ada06855f9e63e153d1e9d262a47b6aa7edd13092ebae04548"}], "txid": "c4bd9fc4c147d3c2055e21c39d8ccf423282122bb933097605aa27768baab191", "blocktime": 1537870268, "version": 1, "confirmations": 11518, "time": 1537870268, "locktime": 0, "vsize": 206, "size": 372}