{"hash": "1bcfcb8b2e2ca9873c99957b111f8b9be0076e720cdd8b26be61e41fa4330af6", "blockhash": "0000000000000000000e13cef7c366c0283d82e591d1acd082e914b08063cdf1", "vout": [{"scriptPubKey": {"reqSigs": 1, "hex": "0014e834d8ca4fdd3dad4d1b37367b6af086ff97ba01", "addresses": ["bc1qaq6d3jj0m5766ngmxum8k6hssmle0wsp2je0zp"], "asm": "0 e834d8ca4fdd3dad4d1b37367b6af086ff97ba01", "type": "witness_v0_keyhash"}, "value": 0.55889981, "n": 0}, {"scriptPubKey": {"reqSigs": 1, "hex": "76a914b9c0a40761fa6b425dd7351a0bfeebaaa389790a88ac", "addresses": ["1HwAnQJRvHV4A4cgP9aSKa2n7NAQB3jo14"], "asm": "OP_DUP OP_HASH160 b9c0a40761fa6b425dd7351a0bfeebaaa389790a OP_EQUALVERIFY OP_CHECKSIG", "type": "pubkeyhash"}, "value": 0.009984, "n": 1}], "hex": "01000000000101f149c0a279d4cad82883d64ed90a008a189ec1e670afa30e1a17273793d260360000000000ffffffff023dd0540300000000160014e834d8ca4fdd3dad4d1b37367b6af086ff97ba01003c0f00000000001976a914b9c0a40761fa6b425dd7351a0bfeebaaa389790a88ac02483045022100952522dbd71ec01ccb0e20f3617ba2e84f2bceaf8221b30c7ab3c9e71fca00bb022019d2171e6771000679904d631ca7dae4bfa6be0eaec87fac6aa4d81dd752c5490121027481ff80d903f14f19db1c8be6c6a123c39f0421f0961ffec1484e343b8291c400000000", "vin": [{"txinwitness": ["3045022100952522dbd71ec01ccb0e20f3617ba2e84f2bceaf8221b30c7ab3c9e71fca00bb022019d2171e6771000679904d631ca7dae4bfa6be0eaec87fac6aa4d81dd752c54901", "027481ff80d903f14f19db1c8be6c6a123c39f0421f0961ffec1484e343b8291c4"], "sequence": 4294967295, "scriptSig": {"hex": "", "asm": ""}, "vout": 0, "txid": "3660d2933727171a0ea3af70e6c19e188a000ad94ed68328d8cad479a2c049f1"}], "txid": "c4c3a74d2b661cd2ebdb61727b4983647d401eb59cd8af4e07f6bf68d1ff2a21", "blocktime": 1537871767, "version": 1, "confirmations": 11495, "time": 1537871767, "locktime": 0, "vsize": 144, "size": 226}