{"hash": "c4c8dbce6e6b036205295eaf6b047ba9f84c53490650ff55cd09e7e34bf56416", "blockhash": "00000000000000000018f53835495a110e01622372bf6ae95dc86f2b0ab887b0", "vout": [{"scriptPubKey": {"reqSigs": 1, "hex": "76a914382ce655e1cdd01af2d9e46573e9fbd0bb749d3688ac", "addresses": ["1682dS3BbTDCgAgnRYMNhDwEGYjRpaS3h3"], "asm": "OP_DUP OP_HASH160 382ce655e1cdd01af2d9e46573e9fbd0bb749d36 OP_EQUALVERIFY OP_CHECKSIG", "type": "pubkeyhash"}, "value": 0.0033357, "n": 0}, {"scriptPubKey": {"type": "nulldata", "hex": "6a146f6d6e69000000000000001f00000004a817c800", "asm": "OP_RETURN 6f6d6e69000000000000001f00000004a817c800"}, "value": 0.0, "n": 1}, {"scriptPubKey": {"reqSigs": 1, "hex": "76a91477d67e9ce65ae268d35f1d4061a75d57df9666f488ac", "addresses": ["1BveNB1hn24ZjnL6Xc7CWxuQGUv2HNqza9"], "asm": "OP_DUP OP_HASH160 77d67e9ce65ae268d35f1d4061a75d57df9666f4 OP_EQUALVERIFY OP_CHECKSIG", "type": "pubkeyhash"}, "value": 5.46e-06, "n": 2}], "hex": "010000000209292e6a42aad100bbb759b2e4efa5dbeb436b0d18663f11b16c8f64fb5397bb010000006b48304502210087ade5f41574f8ff7f56c7174c9b87a1a0aba968331acfebc9a63c938e195696022030227f77f9743fd8e2509eddd0b4c7aa6a008cd86b66d109a1fe6934eb9f4ccc01210317282a71c082969af5633611ab4aca74ab7481bb20ffe59421fafd62807998f7ffffffff541d7dad578f7582e35a96ad05cdece594ea1ab5efe4c0960f96198068dda457000000006a47304402206814c393cadd2d187d5a7addd6cf11b7bce45fc900ac1a80f8b1ec9ffd52772d02207da26f359835d895cf046577daedaeb898f09c6c7e47de17f11c7a2285b888ec0121039000d0616967dd25f800d8a8f45648c89fb366c2caeefd348010ea3a8f9a69ffffffffff0302170500000000001976a914382ce655e1cdd01af2d9e46573e9fbd0bb749d3688ac0000000000000000166a146f6d6e69000000000000001f00000004a817c80022020000000000001976a91477d67e9ce65ae268d35f1d4061a75d57df9666f488ac00000000", "vin": [{"sequence": 4294967295, "scriptSig": {"hex": "48304502210087ade5f41574f8ff7f56c7174c9b87a1a0aba968331acfebc9a63c938e195696022030227f77f9743fd8e2509eddd0b4c7aa6a008cd86b66d109a1fe6934eb9f4ccc01210317282a71c082969af5633611ab4aca74ab7481bb20ffe59421fafd62807998f7", "asm": "304502210087ade5f41574f8ff7f56c7174c9b87a1a0aba968331acfebc9a63c938e195696022030227f77f9743fd8e2509eddd0b4c7aa6a008cd86b66d109a1fe6934eb9f4ccc[ALL] 0317282a71c082969af5633611ab4aca74ab7481bb20ffe59421fafd62807998f7"}, "vout": 1, "txid": "bb9753fb648f6cb1113f66180d6b43ebdba5efe4b259b7bb00d1aa426a2e2909"}, {"sequence": 4294967295, "scriptSig": {"hex": "47304402206814c393cadd2d187d5a7addd6cf11b7bce45fc900ac1a80f8b1ec9ffd52772d02207da26f359835d895cf046577daedaeb898f09c6c7e47de17f11c7a2285b888ec0121039000d0616967dd25f800d8a8f45648c89fb366c2caeefd348010ea3a8f9a69ff", "asm": "304402206814c393cadd2d187d5a7addd6cf11b7bce45fc900ac1a80f8b1ec9ffd52772d02207da26f359835d895cf046577daedaeb898f09c6c7e47de17f11c7a2285b888ec[ALL] 039000d0616967dd25f800d8a8f45648c89fb366c2caeefd348010ea3a8f9a69ff"}, "vout": 0, "txid": "57a4dd688019960f96c0e4efb51aea94e5eccd05ad965ae382758f57ad7d1d54"}], "txid": "c4c8dbce6e6b036205295eaf6b047ba9f84c53490650ff55cd09e7e34bf56416", "blocktime": 1537870928, "version": 1, "confirmations": 11512, "time": 1537870928, "locktime": 0, "vsize": 404, "size": 404}