{"hash": "6a7aacfb7e884de2b276ddcd3b60603acc5284925c7eff411ba8db97fa075dc7", "blockhash": "00000000000000000017f5eb5941039fbcee6240d03bc1f2f8e35350df66a1d8", "vout": [{"scriptPubKey": {"reqSigs": 1, "hex": "76a91404f9d0850d724365c877cf5b33637acff9e3c96788ac", "addresses": ["1TJyBjwKwznVWJyyFrDhAaLuiHgyVpM7S"], "asm": "OP_DUP OP_HASH160 04f9d0850d724365c877cf5b33637acff9e3c967 OP_EQUALVERIFY OP_CHECKSIG", "type": "pubkeyhash"}, "value": 0.15, "n": 0}, {"scriptPubKey": {"reqSigs": 1, "hex": "a914f6aefd12e39d4b559934bd22af292ddd3cf97a3187", "addresses": ["3QBMn9pvvrqY2yHVJvRDc2kiHVWxYWtBje"], "asm": "OP_HASH160 f6aefd12e39d4b559934bd22af292ddd3cf97a31 OP_EQUAL", "type": "scripthash"}, "value": 0.18834203, "n": 1}], "hex": "0200000000010182cdc8d5d242429640ca4f7a77a8008c22206aec7471c49ad3514c3b1e79dca901000000171600141290a27bf83eaebaafaa1b511409e7617f821a74fdffffff02c0e1e400000000001976a91404f9d0850d724365c877cf5b33637acff9e3c96788ac1b631f010000000017a914f6aefd12e39d4b559934bd22af292ddd3cf97a318702483045022100b73c207f59928c6cc589e51da4588af6cdbaf8c744e7bb52ec46c52418aa5c9202201ea6f18e6379d1e6481774b0054e866e6c7f3dcbddac019058a138019ea80a5a01210366733cd4318c2fcfceb2549ac04ea1ab131d08676f59b6224496fc6e54e1d98e15490800", "vin": [{"txinwitness": ["3045022100b73c207f59928c6cc589e51da4588af6cdbaf8c744e7bb52ec46c52418aa5c9202201ea6f18e6379d1e6481774b0054e866e6c7f3dcbddac019058a138019ea80a5a01", "0366733cd4318c2fcfceb2549ac04ea1ab131d08676f59b6224496fc6e54e1d98e"], "sequence": 4294967293, "scriptSig": {"hex": "1600141290a27bf83eaebaafaa1b511409e7617f821a74", "asm": "00141290a27bf83eaebaafaa1b511409e7617f821a74"}, "vout": 1, "txid": "a9dc791e3b4c51d39ac47174ec6a20228c00a8777a4fca40964242d2d5c8cd82"}], "txid": "c4c9e829bf29cad2d5ff426d6aea3eaffce3c3d03f3d3a706c76152b2afa97c8", "blocktime": 1537874412, "version": 2, "confirmations": 11467, "time": 1537874412, "locktime": 542997, "vsize": 168, "size": 250}