{"hash": "0cb20b0388dac0855f4142bdb080cfd8f2f77cd7b4efe89b9d339cd450089740", "blockhash": "0000000000000000000dcc0f55137456b1a82d3642486a52398922ac4d620174", "vout": [{"scriptPubKey": {"reqSigs": 1, "hex": "001427252ab786d6f2348c03b19e4b957419b65ea325", "addresses": ["bc1qyujj4dux6merfrqrkx0yh9t5rxm9age903q635"], "asm": "0 27252ab786d6f2348c03b19e4b957419b65ea325", "type": "witness_v0_keyhash"}, "value": 0.0019978, "n": 0}, {"scriptPubKey": {"reqSigs": 1, "hex": "a91442a9f4a9bea91ef3ad7852fe9dc4d27a8a58da6887", "addresses": ["37mW7wAUWvkFCe1Twu5ZwoCzxWsTSR27Fb"], "asm": "OP_HASH160 42a9f4a9bea91ef3ad7852fe9dc4d27a8a58da68 OP_EQUAL", "type": "scripthash"}, "value": 0.00783318, "n": 1}], "hex": "01000000000101a65bd26d4497006bdd0dbe8aaf88c1676685a1516e24e70afc3fff49e93cdd6d0000000000ffffffff02640c03000000000016001427252ab786d6f2348c03b19e4b957419b65ea325d6f30b000000000017a91442a9f4a9bea91ef3ad7852fe9dc4d27a8a58da688702483045022100c06262f2484be9702c8a2bb58f4da455e94bd918b3d9d3b39a7690bb3eb5bd500220336183b6e655ead425631ca997fb9557147d61b852e85d293fd310fa302959ac012103a994043cc24e3965273f9e1e676b7286904ed5070426d5b79a4292564100620900000000", "vin": [{"txinwitness": ["3045022100c06262f2484be9702c8a2bb58f4da455e94bd918b3d9d3b39a7690bb3eb5bd500220336183b6e655ead425631ca997fb9557147d61b852e85d293fd310fa302959ac01", "03a994043cc24e3965273f9e1e676b7286904ed5070426d5b79a42925641006209"], "sequence": 4294967295, "scriptSig": {"hex": "", "asm": ""}, "vout": 0, "txid": "6ddd3ce949ff3ffc0ae7246e51a1856667c188af8abe0ddd6b0097446dd25ba6"}], "txid": "c4cbc1c414312a84ea84d0bfa9c44d68fe0ce0946fed56abc96ac48fd17d3f13", "blocktime": 1537870268, "version": 1, "confirmations": 11518, "time": 1537870268, "locktime": 0, "vsize": 142, "size": 224}