{"hash": "32e6098643242e03679d9a4202b3b781015986d54916bd9382bc76629d49098c", "blockhash": "00000000000000000017f5eb5941039fbcee6240d03bc1f2f8e35350df66a1d8", "vout": [{"scriptPubKey": {"reqSigs": 1, "hex": "a914496d2a5b9a402850a75b459b1d24d0eed17837b287", "addresses": ["38PG2VkZhQREja9gucYXrAuHdGBP2PWGQG"], "asm": "OP_HASH160 496d2a5b9a402850a75b459b1d24d0eed17837b2 OP_EQUAL", "type": "scripthash"}, "value": 0.115285, "n": 0}, {"scriptPubKey": {"reqSigs": 1, "hex": "a9140486310f1a93828d1958690349cb6eb31fafc6fa87", "addresses": ["326wP7JSzXdTHCB81zQuafYRByUwFJW3fc"], "asm": "OP_HASH160 0486310f1a93828d1958690349cb6eb31fafc6fa OP_EQUAL", "type": "scripthash"}, "value": 0.000782, "n": 1}], "hex": "01000000000101444633490e4200ad2181a6e73f13b3478ee8ffed60898249fd3c8a6b96144fb60000000023220020cb188e82280bb5d6e1485ffa9afb02d5c4a4d68e454912c1e99cf684164fc25effffffff0234e9af000000000017a914496d2a5b9a402850a75b459b1d24d0eed17837b287783101000000000017a9140486310f1a93828d1958690349cb6eb31fafc6fa87040047304402203d848677b7c2f960b9bfecd4e9dff4097c864f9a4baef98b6e6a06bf6f236090022002863e2060a937b698d033bde9f961f0376c32a1a78968b8661763f2402adca601483045022100ec155bac4ddc11c562e8be1a660609db887b9df6d9b23716f967aa0909c6dd2f022048e75650a7f151793d750e964414f6087b891714288673cb33ea9e17965921b1016952210210545a289367ac87810ce1b951ce5827bceee4ad3fe38bcf612928951148bf7821020d3cbfbfcdcd5667273909009cccc47820d19420fd22cffad106fcf48d246b8021023629e0c3c4d6f591b0b56730d0da5331cbcc0d4cf32368b0fa41e3b2e974fe2f53ae00000000", "vin": [{"txinwitness": ["", "304402203d848677b7c2f960b9bfecd4e9dff4097c864f9a4baef98b6e6a06bf6f236090022002863e2060a937b698d033bde9f961f0376c32a1a78968b8661763f2402adca601", "3045022100ec155bac4ddc11c562e8be1a660609db887b9df6d9b23716f967aa0909c6dd2f022048e75650a7f151793d750e964414f6087b891714288673cb33ea9e17965921b101", "52210210545a289367ac87810ce1b951ce5827bceee4ad3fe38bcf612928951148bf7821020d3cbfbfcdcd5667273909009cccc47820d19420fd22cffad106fcf48d246b8021023629e0c3c4d6f591b0b56730d0da5331cbcc0d4cf32368b0fa41e3b2e974fe2f53ae"], "sequence": 4294967295, "scriptSig": {"hex": "220020cb188e82280bb5d6e1485ffa9afb02d5c4a4d68e454912c1e99cf684164fc25e", "asm": "0020cb188e82280bb5d6e1485ffa9afb02d5c4a4d68e454912c1e99cf684164fc25e"}, "vout": 0, "txid": "b64f14966b8a3cfd49828960edffe88e47b3133fe7a68121ad00420e49334644"}], "txid": "c4cf805bb1d0785fdecb10f64d2bf4bd38f4d690bf324ce892548258ee875836", "blocktime": 1537874412, "version": 1, "confirmations": 11468, "time": 1537874412, "locktime": 0, "vsize": 214, "size": 405}