{"hash": "c4d2b77ce4fbe79b264439f03e9d2c306cecb20709422268b76f3ff8b30f2eb8", "blockhash": "0000000000000000001cda96e906b7601b7a6fb1a3b62bca570a9e5d8f4b3de1", "vout": [{"scriptPubKey": {"reqSigs": 1, "hex": "76a9140bdf8b046025f4f7738804e0ddd9d0f380efa46288ac", "addresses": ["125nE9r8rMA5ifyQQPFDUKjdcfgAps2U6k"], "asm": "OP_DUP OP_HASH160 0bdf8b046025f4f7738804e0ddd9d0f380efa462 OP_EQUALVERIFY OP_CHECKSIG", "type": "pubkeyhash"}, "value": 0.03848299, "n": 0}, {"scriptPubKey": {"reqSigs": 1, "hex": "76a91415d2ff1d81597f8657a9201942dfd373371b7fd388ac", "addresses": ["12zPxKsPxYq8MbbL2EhGRcdTYHUfc7ZZUn"], "asm": "OP_DUP OP_HASH160 15d2ff1d81597f8657a9201942dfd373371b7fd3 OP_EQUALVERIFY OP_CHECKSIG", "type": "pubkeyhash"}, "value": 8.372e-05, "n": 1}], "hex": "01000000027ceb3878b368b7376caa925bce9e4c02b7e52a2643c92c8c59e183ee4f09165313000000da00473044022079d7ccc91e26c8ceeed62950e286a4ab7c2132b35b0ceeef353629ff29904787022014c7a9f46e4362669258e599dd79536e5a0bf33ef68b85d97d00a7cd2041cf3d01483045022100f60a3ee9877d04eee9b2446b71636b5e61559e2764f0d15d572474c47b07d9b2022006f0a8e9bd9bafa4d0a3cb92d1d1c62cbd7e73641b2c17ff9c3480c5b06d69530147522102907a54bed8ad74b3f35638c60114ca240a308cb986f3f2f306178869a8880b612103f10a56b0cdc3f9c7df95955cc1dc8d4e68186dbb0cca294814b31d18d648844552aeffffffff14bacddcb4759bf845638e52c518601779c6a9704a2a5ac0a06a35801670602e010000006b483045022100c641d632965f8cad8d6d8409cb80c7e56acac1456c58ff4a8b99bb5e0e4d3e04022055db180e827140e1ebc72dc1e29ea0810f14ecfb9c0b13c3696af1fb9fc08bb8012103fc65e9bc048c80114eb806b82528fd74582b89e14e281efa2e68ab1ae46d8b18ffffffff026bb83a00000000001976a9140bdf8b046025f4f7738804e0ddd9d0f380efa46288acb4200000000000001976a91415d2ff1d81597f8657a9201942dfd373371b7fd388ac00000000", "vin": [{"sequence": 4294967295, "scriptSig": {"hex": "00473044022079d7ccc91e26c8ceeed62950e286a4ab7c2132b35b0ceeef353629ff29904787022014c7a9f46e4362669258e599dd79536e5a0bf33ef68b85d97d00a7cd2041cf3d01483045022100f60a3ee9877d04eee9b2446b71636b5e61559e2764f0d15d572474c47b07d9b2022006f0a8e9bd9bafa4d0a3cb92d1d1c62cbd7e73641b2c17ff9c3480c5b06d69530147522102907a54bed8ad74b3f35638c60114ca240a308cb986f3f2f306178869a8880b612103f10a56b0cdc3f9c7df95955cc1dc8d4e68186dbb0cca294814b31d18d648844552ae", "asm": "0 3044022079d7ccc91e26c8ceeed62950e286a4ab7c2132b35b0ceeef353629ff29904787022014c7a9f46e4362669258e599dd79536e5a0bf33ef68b85d97d00a7cd2041cf3d[ALL] 3045022100f60a3ee9877d04eee9b2446b71636b5e61559e2764f0d15d572474c47b07d9b2022006f0a8e9bd9bafa4d0a3cb92d1d1c62cbd7e73641b2c17ff9c3480c5b06d6953[ALL] 522102907a54bed8ad74b3f35638c60114ca240a308cb986f3f2f306178869a8880b612103f10a56b0cdc3f9c7df95955cc1dc8d4e68186dbb0cca294814b31d18d648844552ae"}, "vout": 19, "txid": "5316094fee83e1598c2cc943262ae5b7024c9ece5b92aa6c37b768b37838eb7c"}, {"sequence": 4294967295, "scriptSig": {"hex": "483045022100c641d632965f8cad8d6d8409cb80c7e56acac1456c58ff4a8b99bb5e0e4d3e04022055db180e827140e1ebc72dc1e29ea0810f14ecfb9c0b13c3696af1fb9fc08bb8012103fc65e9bc048c80114eb806b82528fd74582b89e14e281efa2e68ab1ae46d8b18", "asm": "3045022100c641d632965f8cad8d6d8409cb80c7e56acac1456c58ff4a8b99bb5e0e4d3e04022055db180e827140e1ebc72dc1e29ea0810f14ecfb9c0b13c3696af1fb9fc08bb8[ALL] 03fc65e9bc048c80114eb806b82528fd74582b89e14e281efa2e68ab1ae46d8b18"}, "vout": 1, "txid": "2e60701680356aa0c05a2a4a70a9c679176018c5528e6345f89b75b4dccdba14"}], "txid": "c4d2b77ce4fbe79b264439f03e9d2c306cecb20709422268b76f3ff8b30f2eb8", "blocktime": 1537873282, "version": 1, "confirmations": 11484, "time": 1537873282, "locktime": 0, "vsize": 485, "size": 485}