{"hash": "c4e28383a83ad0345fc609723ee2c77bd64093ef248a1b478a2cdd514b30898f", "blockhash": "00000000000000000004ffacab907a6b429b9a5745fa0b75af4234bf69dd7176", "vout": [{"scriptPubKey": {"reqSigs": 1, "hex": "a9145904efe71ea0910c1f34dc84c56657623f49fd8887", "addresses": ["39ohyesdMt6CWXDFxXnY3A4RVuBCFvJtSK"], "asm": "OP_HASH160 5904efe71ea0910c1f34dc84c56657623f49fd88 OP_EQUAL", "type": "scripthash"}, "value": 0.015321, "n": 0}, {"scriptPubKey": {"reqSigs": 1, "hex": "76a914f75ba610a3a3c505dd27367a9ae5f73c6e6539a688ac", "addresses": ["1PYuhFCbrVS1UKFwdJbFCTpN4jortvTy8p"], "asm": "OP_DUP OP_HASH160 f75ba610a3a3c505dd27367a9ae5f73c6e6539a6 OP_EQUALVERIFY OP_CHECKSIG", "type": "pubkeyhash"}, "value": 0.10033831, "n": 1}], "hex": "01000000014f5af6039bd8fb4fbe9ab18ab49da63f9e04c2a49c66a6cfd4f1bbf1828847ec010000006a47304402200e3f0cd94274ddf6a8c39bdd4ec26e5e77bb35fe9ceb9289728288e958ba42e802207565280d30a2f94e3ec111012a74d819b4f0cc7747974ca61066aa56e89c6fbb012103c49c0a19bed625fc73be2364bdf5ee281629a92d366bd84961c14b422d4ced48ffffffff02c46017000000000017a9145904efe71ea0910c1f34dc84c56657623f49fd8887a71a9900000000001976a914f75ba610a3a3c505dd27367a9ae5f73c6e6539a688ac00000000", "vin": [{"sequence": 4294967295, "scriptSig": {"hex": "47304402200e3f0cd94274ddf6a8c39bdd4ec26e5e77bb35fe9ceb9289728288e958ba42e802207565280d30a2f94e3ec111012a74d819b4f0cc7747974ca61066aa56e89c6fbb012103c49c0a19bed625fc73be2364bdf5ee281629a92d366bd84961c14b422d4ced48", "asm": "304402200e3f0cd94274ddf6a8c39bdd4ec26e5e77bb35fe9ceb9289728288e958ba42e802207565280d30a2f94e3ec111012a74d819b4f0cc7747974ca61066aa56e89c6fbb[ALL] 03c49c0a19bed625fc73be2364bdf5ee281629a92d366bd84961c14b422d4ced48"}, "vout": 1, "txid": "ec478882f1bbf1d4cfa6669ca4c2049e3fa69db48ab19abe4ffbd89b03f65a4f"}], "txid": "c4e28383a83ad0345fc609723ee2c77bd64093ef248a1b478a2cdd514b30898f", "blocktime": 1537875543, "version": 1, "confirmations": 11464, "time": 1537875543, "locktime": 0, "vsize": 223, "size": 223}