{"hash": "d23458caf74b25387fec7f4fe0e5f29bdf4b3b3c34cd55ff9b7b248c1a6247f5", "blockhash": "0000000000000000000e13cef7c366c0283d82e591d1acd082e914b08063cdf1", "vout": [{"scriptPubKey": {"reqSigs": 1, "hex": "76a914d84a2b7e65fe4e8219af1213b8843826cd0bf4ef88ac", "addresses": ["1LidorK3GSVhVZSoHvoeDJ7BPRPBgWdDDk"], "asm": "OP_DUP OP_HASH160 d84a2b7e65fe4e8219af1213b8843826cd0bf4ef OP_EQUALVERIFY OP_CHECKSIG", "type": "pubkeyhash"}, "value": 0.0034566, "n": 0}, {"scriptPubKey": {"reqSigs": 1, "hex": "a9144aa8c06fd8d2111c8dcd85f8287253b180732f9387", "addresses": ["38Vn5p8KWFoR63uX1DuWj1QFNUNb5Vo4Dp"], "asm": "OP_HASH160 4aa8c06fd8d2111c8dcd85f8287253b180732f93 OP_EQUAL", "type": "scripthash"}, "value": 0.01000876, "n": 1}], "hex": "02000000000102372a49aaf8d81a6a2bc18503a4f7a2ca6ede743a98a77d086e91f1635ccf3f150c000000171600140bfe2970a0a703de5af4b56eebda6d1db0385394feffffff4b32319b5a20f404451e6609851f2b78c7c319d597d732bc426acf1e0ad5cc88000000001716001463ec2e8c1d0af3140d8dcfb8f1c065e27b6d4c74feffffff023c460500000000001976a914d84a2b7e65fe4e8219af1213b8843826cd0bf4ef88acac450f000000000017a9144aa8c06fd8d2111c8dcd85f8287253b180732f938702483045022100d166658eaaef94b4d36a31ac4456d1c42353bda190461265b00b6daf5e5cf8c0022037974bc0e2d391405eaf42675e20f093656a5ea1738bb1021487361607c2fc7701210323f2dc858536c668735e2c3705de2a55f3cef8c93378eda93642798e2f8720c202483045022100f3d2da3a073f948b5411eed0abd77bd1c65f6e1f9ea0ee006c775cc3be5b46f202201f07af9ae44e004fac330d876535e967cd48edc29861e8f5c221e10d2f08b6870121033b8490fd44f9b424ff8d41f57f12268abb64834313e0192e458be62344f1983810490800", "vin": [{"txinwitness": ["3045022100d166658eaaef94b4d36a31ac4456d1c42353bda190461265b00b6daf5e5cf8c0022037974bc0e2d391405eaf42675e20f093656a5ea1738bb1021487361607c2fc7701", "0323f2dc858536c668735e2c3705de2a55f3cef8c93378eda93642798e2f8720c2"], "sequence": 4294967294, "scriptSig": {"hex": "1600140bfe2970a0a703de5af4b56eebda6d1db0385394", "asm": "00140bfe2970a0a703de5af4b56eebda6d1db0385394"}, "vout": 12, "txid": "153fcf5c63f1916e087da7983a74de6ecaa2f7a40385c12b6a1ad8f8aa492a37"}, {"txinwitness": ["3045022100f3d2da3a073f948b5411eed0abd77bd1c65f6e1f9ea0ee006c775cc3be5b46f202201f07af9ae44e004fac330d876535e967cd48edc29861e8f5c221e10d2f08b68701", "033b8490fd44f9b424ff8d41f57f12268abb64834313e0192e458be62344f19838"], "sequence": 4294967294, "scriptSig": {"hex": "16001463ec2e8c1d0af3140d8dcfb8f1c065e27b6d4c74", "asm": "001463ec2e8c1d0af3140d8dcfb8f1c065e27b6d4c74"}, "vout": 0, "txid": "88ccd50a1ecf6a42bc32d797d519c3c7782b1f8509661e4504f4205a9b31324b"}], "txid": "c4ebdd2a52b22053fd0ac15da149ff670dd851a247510b7b7b91baf48301649b", "blocktime": 1537871767, "version": 2, "confirmations": 11495, "time": 1537871767, "locktime": 542992, "vsize": 259, "size": 422}