{"hash": "c4ed0dec9ccecccfe89040e20169f594612798a7c3827062bee966b68171609e", "blockhash": "0000000000000000001e0dab787dd257d1dbfcb92a98c2207d5e1078be1f4165", "vout": [{"scriptPubKey": {"reqSigs": 1, "hex": "76a91499bf9ff49f4c8f9c30ef80e2bfe37c49c612163c88ac", "addresses": ["1F1wwgESEXQwEC9Mw7LHBf9aZaqeDvj95i"], "asm": "OP_DUP OP_HASH160 99bf9ff49f4c8f9c30ef80e2bfe37c49c612163c OP_EQUALVERIFY OP_CHECKSIG", "type": "pubkeyhash"}, "value": 0.0007201, "n": 0}, {"scriptPubKey": {"reqSigs": 1, "hex": "76a91427dc792db25c0559342a452982974feeceea9f8d88ac", "addresses": ["14dmUEqU3JSNHMGyoNbnhFE8FwzPt3vsdY"], "asm": "OP_DUP OP_HASH160 27dc792db25c0559342a452982974feeceea9f8d OP_EQUALVERIFY OP_CHECKSIG", "type": "pubkeyhash"}, "value": 0.00468678, "n": 1}], "hex": "0100000001b9a10b0aece12a983accb1811584a5e0a475e1979bf0cf662b71ab953542f0fd010000006a473044022039fbb2499d528c1a4ff4ddb2f9126575a522c749f75109b70f21888b83a561f502203a18dee91bc901ac30033d9edbb7488c6ecf8156587f1ac264609a0d48bde161012103191077a02c6c61de97bbdac9f271d36fa55028b29c69a777aa994f3e20151082ffffffff024a190100000000001976a91499bf9ff49f4c8f9c30ef80e2bfe37c49c612163c88acc6260700000000001976a91427dc792db25c0559342a452982974feeceea9f8d88ac00000000", "vin": [{"sequence": 4294967295, "scriptSig": {"hex": "473044022039fbb2499d528c1a4ff4ddb2f9126575a522c749f75109b70f21888b83a561f502203a18dee91bc901ac30033d9edbb7488c6ecf8156587f1ac264609a0d48bde161012103191077a02c6c61de97bbdac9f271d36fa55028b29c69a777aa994f3e20151082", "asm": "3044022039fbb2499d528c1a4ff4ddb2f9126575a522c749f75109b70f21888b83a561f502203a18dee91bc901ac30033d9edbb7488c6ecf8156587f1ac264609a0d48bde161[ALL] 03191077a02c6c61de97bbdac9f271d36fa55028b29c69a777aa994f3e20151082"}, "vout": 1, "txid": "fdf0423595ab712b66cff09b97e175a4e0a5841581b1cc3a982ae1ec0a0ba1b9"}], "txid": "c4ed0dec9ccecccfe89040e20169f594612798a7c3827062bee966b68171609e", "blocktime": 1537872475, "version": 1, "confirmations": 11487, "time": 1537872475, "locktime": 0, "vsize": 225, "size": 225}