{"hash": "25a762f6e743e6d36ff16df5758c48e06dc70e7d499eb720a042da2e87aa83b1", "blockhash": "0000000000000000001cda96e906b7601b7a6fb1a3b62bca570a9e5d8f4b3de1", "vout": [{"scriptPubKey": {"reqSigs": 1, "hex": "a914c9f97273de00664f12b1816c9385489a31c4084e87", "addresses": ["3L6xZzJ8tBu4VTMYxEajus6Kgq3wfmZtNN"], "asm": "OP_HASH160 c9f97273de00664f12b1816c9385489a31c4084e OP_EQUAL", "type": "scripthash"}, "value": 0.00923609, "n": 0}, {"scriptPubKey": {"reqSigs": 1, "hex": "76a91455a7fb9b27661ec9febfb6273c03ec0691d398f188ac", "addresses": ["18oufxYacweVhT1gdFix6xzm2MiBB1zXET"], "asm": "OP_DUP OP_HASH160 55a7fb9b27661ec9febfb6273c03ec0691d398f1 OP_EQUALVERIFY OP_CHECKSIG", "type": "pubkeyhash"}, "value": 6.0, "n": 1}], "hex": "020000000001101620d9303ac5627a48dca8d58a2994282651da4d7bad50b0b491f9142eaa55320000000017160014436c5c8bc316fe43381fd21bb8bc4bb979eaf2f6feffffff31bb3cdd414e747866ba79d91c0f8ff5e565f2cfc1b1577d0a36844a14955365000000001716001419adb016e77bef37d679293e8505fb48138a3b04feffffff36cdff7dbeee3dd33c7c6a421525f351e159287c978829829a42ddaa23c8ead100000000171600148d4be7503f69a87df43dc07b120b48b0f5beeeb8feffffff42b7417d168ba2494e472702389c5c0267a0f46a25fad528931efe14d927c5d3010000001716001487054cd8b2e382f2943b163ebab8bafda33b9695feffffff4c38696fba86627e0e28bd9384e0c259801c029f3000438edca15233da53d171000000001716001438d063e7a479f12e8508c94c37f4d16b03a991d5feffffff4f2594f09d927b2a4a73517594c5d23af0d76dbcd5429196042b8b2fe3ec6763000000001716001454761ae0609684d24e2950fae677a93636beb320feffffff6581a69a637cb59e5398e798496cd6570ed4a5b90480e6a9f9f31f484f9ccad7010000001716001490fce1e274467192782e4c2c5d9e9599cc4c4748feffffff6fca89a9aeab6cce31f2d80ffd15c3ce5d259064e38c63ebe6c3b8e29cf2edcd0000000017160014fed3f52632cba5874f3ba4f9064d1bc628e21195feffffff726e350388befef697476f5d32ed1a6efd5d5c6a6a188518a0be8802acbe902e00000000171600149aa370c96cd81946025d2dfdec3ac3cb1cbceebbfeffffffa45ea771b87f43b5479bba2006a50b98dbe0457ff7dc8c7b802907760c354b2000000000171600145e3b12f07807cd94281136e39dd08cec906a1e8cfeffffffb4c55d6d8c2c781537bfe9667300c55d078c35b5df52d431d1b1feb3c706f4f201000000171600148bede5848455692bd06c5645320fe632289bb0bafeffffffe15a388e491d7c9cddaf60f0576cdba04b4543e0d8a418873abc5d0c270829a20000000017160014daadf6ae6e9d555e446d6fcf31466e3009830fc2feffffffe5cf8503af08e016c50ceaf987706ca791a616994d78142001d77b9ca87be16b00000000171600141330e305cf7c3fe3c9c8dc892229da842c37c4ecfefffffffb78529ba4c9881ba3c0260099687d973ecc9e27c6290c1c37420eba570fac20040000001716001442513a08661d6db6a6be740f2a8a11f65916f40dfefffffffdbc35a6d28082875199b914aebb7b96fd501036cb5af04816440768dda1f9eb0000000017160014b8dba8a26aa4872801933502aa48c22c67c998cafefffffffefddfdc01f9219e3b497fac78d132b31acf85c1de32584037524404977f5c6800000000171600149023733684e026796da0f8352cc360f33d5a50bdfeffffff02d9170e000000000017a914c9f97273de00664f12b1816c9385489a31c4084e870046c323000000001976a91455a7fb9b27661ec9febfb6273c03ec0691d398f188ac0248304502210088fbd40838a6fcb3589906cf84a5ec51d93cb8d7234be9523530d91db3c2937e02206c037a67cf0d6cfa25f540d7fe4d6c3df18554ae1de56591ffbc9528904a9a250121030e75bf4f45d597de8650439dd99e361c6234bdfacbbc66bfc6d8ee2dd223b95d02483045022100dfd0a15dbe0b5644cc5c0c1a941be22673e0b731150c4af4eb9034da455f075a0220517f56dd062b7c54d414107b796266057b2732babe51bfd8da90965e11a035dd012103484f027c541dae1689f1c7af5bdbe9b5fe4028659094ea1cebfcbd80c812c23a02483045022100bcaa6c60cddeaf929c3ba437da9fc0385b8501a25680fac6555d88b6fb2155b102201b5dcc407cb16a2351f7b446f954b2fd6d1de469b188c346b0701d5703e7a71f012102297e943a0d333cdeb8fc8ec97993e519b54115ce2727d7dba8bbcc7151473a7602483045022100f67623c977975206e3b5239e4bf1c8212c939ea0d51a8c2e2325dd9203c3b0310220578449ef01b3cc0ebed0b13047c842c62439d7c9a5b4631e2d651e901d84f7470121039b5533efb1a68b7cfd9ffe44da89c4ebfdb49a1ba193f0ae04b51ec9133f7c7e02483045022100937b9f552718db2f109d97eef965dd11e665ebca6c53fd77301f852258db51f4022028e5f12dad3dc6f06a9eb72d0d6963ffda361a831d4604f02fd8ff4ccf47cbc2012102a914cf74ecdc449cd04450a547f99563774e730edd25ec1fe8219f4848a0035a0248304502210088ebbcf76523b79407a9791b0f6feb4ec3b624ab5bb52010a6b5a4e1025677f002207eeb75260346aeb42dcc405dc0c8752819ad4a014374a82e98806d447bcf374b012103423617f416be401fca9e737aec0bcd11518676ddd11e946a7e8805384778637b0247304402203d084eba050a589ebddd8d24f9d1cb45d0e8fb4d51b2e33ffed000f2171a00ad022049acf00d3f206afd018d10dc47f587f1671a05aa194275fd0b1ec16b86e88c33012103e9b42e884c533f70243351fbb9a700bb5f0d993e08bb444bd196a0bb5ec847c502483045022100ece4b7a7010c511f2cdb8d501e2ed9e3c61ea9505341316d148e675e1a1734930220059004885059707db9f1b25cc79ffd0e7aea48275c93f5bd9de004c977188aa80121032dec05dd926ab114b908b91e35d3e6f8c464e7bf16c378731f33adf84c922b3102483045022100d69a1d0a61ce89ab098fc24d23f1ec058cfc422e286d3b586bbb69ab8ff0c22c022037f5b1bc0f118a0166e6ccc1ad9cb0bf743f6cc9beffc475d4ec60d9c7e1471e0121024a7fc94c411691ab517b50b3227ad3cbc22e94c2d8c27d5ca67dedc28cafa4a6024830450221008c1061a6a4713ef365c71d8f57a15b6be9424f1a9490b1bc93a1afdcd068e3ef02201952f950e1e81fa339655420c2b7b431e0c70c3284e89e54aaff4cc5103e7ea30121033f9fb309517c26bb5cf00f18df58ddef4cc6792a9745fc73f169aec0db9a0be70248304502210090b874a80fd934ae97b6433919e0e53df5b6b40f0b44aed10cade34532c2b00502201c05eaa800dafed4de75bc49c9578053a7ac901290f885f74bcabfa19935d1e901210348f691b726076584659cafe9a1350c1d22ba16c0386c9d6cf15007470784677f0247304402202a431296c21fcc99d3df9082784158dd7463463aaed6e3bf784e9d4b0b4a8f71022047cdecca42f3ed60cddb6df761e714063d5b54fcf47fa72978376046e5ed96ac0121036a928fb89e8b14c3f6e5a31f91acb086abafd21addb039b8c3110b6a71ee280d02483045022100bf810c1fa2093b0189697f145657c197a0166d8fbc407c5c898328bbd325ea240220406a213c18bc424a90d2063a604ddfdbf74aa853ce3b1678628725f6f71b2d560121027f87b16135c45f729c8fc63a811478656caf58285961ba92d47b9cd763dc6fd40247304402203f5a373a2443014377894178e21e3d9e66c833659b467b7390937bb2ce78653002203b7613ce2e6ea4d4cc7390f64b7d604855a627a8122414af9abde1c754f2239b012103c25f9e764f89f4434a5144702f503dfa3af2e256a5c02ec6af80c87afd20896b02483045022100da9e5a175132652e13920f1f36d4f087de7df9044c4b617afadb881e2335ce5c022007f7331fbac0b4fb6429369e814cc72ce962f9c0aa22c7d8cd1e6f4f88b9e888012102e7ae2f3f4b6bfec1b398d99532f6fd371a5e504b65658ddee025fe7bcf8aa47802483045022100da6e2ce38ce802e54b2ce7108ac40889d0b6c8c42c5d5336a9cee6d60258039302202cad4b75b4fb26341cb46432be2178bc8523d11b803a2b6e58e6bec067c6e90b0121024f933498305cb0fee712f6acc4bd399bc941e7d69a952d8e6cdb6817139beaf013490800", "vin": [{"txinwitness": ["304502210088fbd40838a6fcb3589906cf84a5ec51d93cb8d7234be9523530d91db3c2937e02206c037a67cf0d6cfa25f540d7fe4d6c3df18554ae1de56591ffbc9528904a9a2501", "030e75bf4f45d597de8650439dd99e361c6234bdfacbbc66bfc6d8ee2dd223b95d"], "sequence": 4294967294, "scriptSig": {"hex": "160014436c5c8bc316fe43381fd21bb8bc4bb979eaf2f6", "asm": "0014436c5c8bc316fe43381fd21bb8bc4bb979eaf2f6"}, "vout": 0, "txid": "3255aa2e14f991b4b050ad7b4dda51262894298ad5a8dc487a62c53a30d92016"}, {"txinwitness": ["3045022100dfd0a15dbe0b5644cc5c0c1a941be22673e0b731150c4af4eb9034da455f075a0220517f56dd062b7c54d414107b796266057b2732babe51bfd8da90965e11a035dd01", "03484f027c541dae1689f1c7af5bdbe9b5fe4028659094ea1cebfcbd80c812c23a"], "sequence": 4294967294, "scriptSig": {"hex": "16001419adb016e77bef37d679293e8505fb48138a3b04", "asm": "001419adb016e77bef37d679293e8505fb48138a3b04"}, "vout": 0, "txid": "655395144a84360a7d57b1c1cff265e5f58f0f1cd979ba6678744e41dd3cbb31"}, {"txinwitness": ["3045022100bcaa6c60cddeaf929c3ba437da9fc0385b8501a25680fac6555d88b6fb2155b102201b5dcc407cb16a2351f7b446f954b2fd6d1de469b188c346b0701d5703e7a71f01", "02297e943a0d333cdeb8fc8ec97993e519b54115ce2727d7dba8bbcc7151473a76"], "sequence": 4294967294, "scriptSig": {"hex": "1600148d4be7503f69a87df43dc07b120b48b0f5beeeb8", "asm": "00148d4be7503f69a87df43dc07b120b48b0f5beeeb8"}, "vout": 0, "txid": "d1eac823aadd429a822988977c2859e151f32515426a7c3cd33deebe7dffcd36"}, {"txinwitness": ["3045022100f67623c977975206e3b5239e4bf1c8212c939ea0d51a8c2e2325dd9203c3b0310220578449ef01b3cc0ebed0b13047c842c62439d7c9a5b4631e2d651e901d84f74701", "039b5533efb1a68b7cfd9ffe44da89c4ebfdb49a1ba193f0ae04b51ec9133f7c7e"], "sequence": 4294967294, "scriptSig": {"hex": "16001487054cd8b2e382f2943b163ebab8bafda33b9695", "asm": "001487054cd8b2e382f2943b163ebab8bafda33b9695"}, "vout": 1, "txid": "d3c527d914fe1e9328d5fa256af4a067025c9c380227474e49a28b167d41b742"}, {"txinwitness": ["3045022100937b9f552718db2f109d97eef965dd11e665ebca6c53fd77301f852258db51f4022028e5f12dad3dc6f06a9eb72d0d6963ffda361a831d4604f02fd8ff4ccf47cbc201", "02a914cf74ecdc449cd04450a547f99563774e730edd25ec1fe8219f4848a0035a"], "sequence": 4294967294, "scriptSig": {"hex": "16001438d063e7a479f12e8508c94c37f4d16b03a991d5", "asm": "001438d063e7a479f12e8508c94c37f4d16b03a991d5"}, "vout": 0, "txid": "71d153da3352a1dc8e4300309f021c8059c2e08493bd280e7e6286ba6f69384c"}, {"txinwitness": ["304502210088ebbcf76523b79407a9791b0f6feb4ec3b624ab5bb52010a6b5a4e1025677f002207eeb75260346aeb42dcc405dc0c8752819ad4a014374a82e98806d447bcf374b01", "03423617f416be401fca9e737aec0bcd11518676ddd11e946a7e8805384778637b"], "sequence": 4294967294, "scriptSig": {"hex": "16001454761ae0609684d24e2950fae677a93636beb320", "asm": "001454761ae0609684d24e2950fae677a93636beb320"}, "vout": 0, "txid": "6367ece32f8b2b04969142d5bc6dd7f03ad2c5947551734a2a7b929df094254f"}, {"txinwitness": ["304402203d084eba050a589ebddd8d24f9d1cb45d0e8fb4d51b2e33ffed000f2171a00ad022049acf00d3f206afd018d10dc47f587f1671a05aa194275fd0b1ec16b86e88c3301", "03e9b42e884c533f70243351fbb9a700bb5f0d993e08bb444bd196a0bb5ec847c5"], "sequence": 4294967294, "scriptSig": {"hex": "16001490fce1e274467192782e4c2c5d9e9599cc4c4748", "asm": "001490fce1e274467192782e4c2c5d9e9599cc4c4748"}, "vout": 1, "txid": "d7ca9c4f481ff3f9a9e68004b9a5d40e57d66c4998e798539eb57c639aa68165"}, {"txinwitness": ["3045022100ece4b7a7010c511f2cdb8d501e2ed9e3c61ea9505341316d148e675e1a1734930220059004885059707db9f1b25cc79ffd0e7aea48275c93f5bd9de004c977188aa801", "032dec05dd926ab114b908b91e35d3e6f8c464e7bf16c378731f33adf84c922b31"], "sequence": 4294967294, "scriptSig": {"hex": "160014fed3f52632cba5874f3ba4f9064d1bc628e21195", "asm": "0014fed3f52632cba5874f3ba4f9064d1bc628e21195"}, "vout": 0, "txid": "cdedf29ce2b8c3e6eb638ce36490255dcec315fd0fd8f231ce6cabaea989ca6f"}, {"txinwitness": ["3045022100d69a1d0a61ce89ab098fc24d23f1ec058cfc422e286d3b586bbb69ab8ff0c22c022037f5b1bc0f118a0166e6ccc1ad9cb0bf743f6cc9beffc475d4ec60d9c7e1471e01", "024a7fc94c411691ab517b50b3227ad3cbc22e94c2d8c27d5ca67dedc28cafa4a6"], "sequence": 4294967294, "scriptSig": {"hex": "1600149aa370c96cd81946025d2dfdec3ac3cb1cbceebb", "asm": "00149aa370c96cd81946025d2dfdec3ac3cb1cbceebb"}, "vout": 0, "txid": "2e90beac0288bea01885186a6a5c5dfd6e1aed325d6f4797f6febe8803356e72"}, {"txinwitness": ["30450221008c1061a6a4713ef365c71d8f57a15b6be9424f1a9490b1bc93a1afdcd068e3ef02201952f950e1e81fa339655420c2b7b431e0c70c3284e89e54aaff4cc5103e7ea301", "033f9fb309517c26bb5cf00f18df58ddef4cc6792a9745fc73f169aec0db9a0be7"], "sequence": 4294967294, "scriptSig": {"hex": "1600145e3b12f07807cd94281136e39dd08cec906a1e8c", "asm": "00145e3b12f07807cd94281136e39dd08cec906a1e8c"}, "vout": 0, "txid": "204b350c760729807b8cdcf77f45e0db980ba50620ba9b47b5437fb871a75ea4"}, {"txinwitness": ["304502210090b874a80fd934ae97b6433919e0e53df5b6b40f0b44aed10cade34532c2b00502201c05eaa800dafed4de75bc49c9578053a7ac901290f885f74bcabfa19935d1e901", "0348f691b726076584659cafe9a1350c1d22ba16c0386c9d6cf15007470784677f"], "sequence": 4294967294, "scriptSig": {"hex": "1600148bede5848455692bd06c5645320fe632289bb0ba", "asm": "00148bede5848455692bd06c5645320fe632289bb0ba"}, "vout": 1, "txid": "f2f406c7b3feb1d131d452dfb5358c075dc5007366e9bf3715782c8c6d5dc5b4"}, {"txinwitness": ["304402202a431296c21fcc99d3df9082784158dd7463463aaed6e3bf784e9d4b0b4a8f71022047cdecca42f3ed60cddb6df761e714063d5b54fcf47fa72978376046e5ed96ac01", "036a928fb89e8b14c3f6e5a31f91acb086abafd21addb039b8c3110b6a71ee280d"], "sequence": 4294967294, "scriptSig": {"hex": "160014daadf6ae6e9d555e446d6fcf31466e3009830fc2", "asm": "0014daadf6ae6e9d555e446d6fcf31466e3009830fc2"}, "vout": 0, "txid": "a22908270c5dbc3a8718a4d8e043454ba0db6c57f060afdd9c7c1d498e385ae1"}, {"txinwitness": ["3045022100bf810c1fa2093b0189697f145657c197a0166d8fbc407c5c898328bbd325ea240220406a213c18bc424a90d2063a604ddfdbf74aa853ce3b1678628725f6f71b2d5601", "027f87b16135c45f729c8fc63a811478656caf58285961ba92d47b9cd763dc6fd4"], "sequence": 4294967294, "scriptSig": {"hex": "1600141330e305cf7c3fe3c9c8dc892229da842c37c4ec", "asm": "00141330e305cf7c3fe3c9c8dc892229da842c37c4ec"}, "vout": 0, "txid": "6be17ba89c7bd7012014784d9916a691a76c7087f9ea0cc516e008af0385cfe5"}, {"txinwitness": ["304402203f5a373a2443014377894178e21e3d9e66c833659b467b7390937bb2ce78653002203b7613ce2e6ea4d4cc7390f64b7d604855a627a8122414af9abde1c754f2239b01", "03c25f9e764f89f4434a5144702f503dfa3af2e256a5c02ec6af80c87afd20896b"], "sequence": 4294967294, "scriptSig": {"hex": "16001442513a08661d6db6a6be740f2a8a11f65916f40d", "asm": "001442513a08661d6db6a6be740f2a8a11f65916f40d"}, "vout": 4, "txid": "20ac0f57ba0e42371c0c29c6279ecc3e977d68990026c0a31b88c9a49b5278fb"}, {"txinwitness": ["3045022100da9e5a175132652e13920f1f36d4f087de7df9044c4b617afadb881e2335ce5c022007f7331fbac0b4fb6429369e814cc72ce962f9c0aa22c7d8cd1e6f4f88b9e88801", "02e7ae2f3f4b6bfec1b398d99532f6fd371a5e504b65658ddee025fe7bcf8aa478"], "sequence": 4294967294, "scriptSig": {"hex": "160014b8dba8a26aa4872801933502aa48c22c67c998ca", "asm": "0014b8dba8a26aa4872801933502aa48c22c67c998ca"}, "vout": 0, "txid": "ebf9a1dd6807441648f05acb361050fd967bbbae14b99951878280d2a635bcfd"}, {"txinwitness": ["3045022100da6e2ce38ce802e54b2ce7108ac40889d0b6c8c42c5d5336a9cee6d60258039302202cad4b75b4fb26341cb46432be2178bc8523d11b803a2b6e58e6bec067c6e90b01", "024f933498305cb0fee712f6acc4bd399bc941e7d69a952d8e6cdb6817139beaf0"], "sequence": 4294967294, "scriptSig": {"hex": "1600149023733684e026796da0f8352cc360f33d5a50bd", "asm": "00149023733684e026796da0f8352cc360f33d5a50bd"}, "vout": 0, "txid": "685c7f9704445237405832dec185cf1ab332d178ac7f493b9e21f901dcdffdfe"}], "txid": "c4f49f4a44d18199e196be5d0812246e48ba2e2b15c86053dbb28797f7727e73", "blocktime": 1537873282, "version": 2, "confirmations": 11480, "time": 1537873282, "locktime": 542995, "vsize": 1532, "size": 2827}