{"hash": "b98b95adaba0309adbc472364ccf504d57178e44655cf60a3d4a74e46db831df", "blockhash": "0000000000000000000e13cef7c366c0283d82e591d1acd082e914b08063cdf1", "vout": [{"scriptPubKey": {"reqSigs": 1, "hex": "76a9149b274440687cbd826612f3f5f7820357df802b3688ac", "addresses": ["1F9Nn2UdUdTMtcfKnjRrJSvkAtsVWcGTmM"], "asm": "OP_DUP OP_HASH160 9b274440687cbd826612f3f5f7820357df802b36 OP_EQUALVERIFY OP_CHECKSIG", "type": "pubkeyhash"}, "value": 0.01561609, "n": 0}, {"scriptPubKey": {"reqSigs": 1, "hex": "a91465f885a204d9f9897ab43118f0cf05632b785b1287", "addresses": ["3AzBtXhfxxthTvQdz5v1HsdLpWDy68vjkJ"], "asm": "OP_HASH160 65f885a204d9f9897ab43118f0cf05632b785b12 OP_EQUAL", "type": "scripthash"}, "value": 0.2408787, "n": 1}], "hex": "01000000000101eb385251dabb83834ec37ec365eaf71a8a6e13a3e3b601c2876851ccd0c53c6a05000000232200203dc22cd7534645d0be4291c114ff0086f1d359159e824dfb26cb0541f1e60b37ffffffff0209d41700000000001976a9149b274440687cbd826612f3f5f7820357df802b3688ac3e8d6f010000000017a91465f885a204d9f9897ab43118f0cf05632b785b1287040048304502210083cd88298a5d5d9af5235b59c33821432185469ebb29e2e12badd7f81af39a3e022018b2c8aafe6e9427198222a0ff5a990c0afbf61f030dd412ff04c496500c21b701483045022100ff0de66c1afca15e7b04917a3aeecf4621677c036f1a168ec657c6a99782c9fb02207eb5781ebe0b616c55ba162bcc6c77a91a9edff713704e7a096a4b5011245809016952210392eed3531d13f1854aa3cc67bb8a6ecf4e86e0b1f90acef85d15eae536318eeb210303e246976f7b1d1c21fc52913f904f8922182d1c97f11b5d2feff4743cf5541b2103ab520aec0576508deeafacbbf9e4fcc025b43b8cfb07bc99e3572a4fe9d3505a53ae00000000", "vin": [{"txinwitness": ["", "304502210083cd88298a5d5d9af5235b59c33821432185469ebb29e2e12badd7f81af39a3e022018b2c8aafe6e9427198222a0ff5a990c0afbf61f030dd412ff04c496500c21b701", "3045022100ff0de66c1afca15e7b04917a3aeecf4621677c036f1a168ec657c6a99782c9fb02207eb5781ebe0b616c55ba162bcc6c77a91a9edff713704e7a096a4b501124580901", "52210392eed3531d13f1854aa3cc67bb8a6ecf4e86e0b1f90acef85d15eae536318eeb210303e246976f7b1d1c21fc52913f904f8922182d1c97f11b5d2feff4743cf5541b2103ab520aec0576508deeafacbbf9e4fcc025b43b8cfb07bc99e3572a4fe9d3505a53ae"], "sequence": 4294967295, "scriptSig": {"hex": "2200203dc22cd7534645d0be4291c114ff0086f1d359159e824dfb26cb0541f1e60b37", "asm": "00203dc22cd7534645d0be4291c114ff0086f1d359159e824dfb26cb0541f1e60b37"}, "vout": 5, "txid": "6a3cc5d0cc516887c201b6e3a3136e8a1af7ea65c37ec34e8383bbda515238eb"}], "txid": "c4f7f522ae14243abcba11fd72e54e8ba60ae04b5324e065d82cccbd831df3ea", "blocktime": 1537871767, "version": 1, "confirmations": 11495, "time": 1537871767, "locktime": 0, "vsize": 216, "size": 408}