{"hash": "15ac62c137e5e6feece9c40c47dc1999cfa207969f95aca3c0b7b34da3a9d859", "blockhash": "0000000000000000000dcc0f55137456b1a82d3642486a52398922ac4d620174", "vout": [{"scriptPubKey": {"reqSigs": 1, "hex": "a91443fdf1d43954093942f2468377e2be5405fe644087", "addresses": ["37tXQnAu1iQAG1HaQM3HbG6ZSRor22jXLc"], "asm": "OP_HASH160 43fdf1d43954093942f2468377e2be5405fe6440 OP_EQUAL", "type": "scripthash"}, "value": 0.26667471, "n": 0}, {"scriptPubKey": {"reqSigs": 1, "hex": "a914a9c34ce265bb1dcc7a7c693a57ef6edc34f7dc0d87", "addresses": ["3HAe5fh1zMnu4e3dQEP9ZqvBp1cEwsoDNM"], "asm": "OP_HASH160 a9c34ce265bb1dcc7a7c693a57ef6edc34f7dc0d OP_EQUAL", "type": "scripthash"}, "value": 4.56990952, "n": 1}], "hex": "01000000000101afe91b22dc15300a814558ec34400c3a06e604eaadb1c71fdeadb31b88b0ee080000000023220020d4c09351a2fd4003fadff606ad61d53443d8f3f26cb7fb771cdc305f5d626ab3ffffffff02cfe996010000000017a91443fdf1d43954093942f2468377e2be5405fe644087e8203d1b0000000017a914a9c34ce265bb1dcc7a7c693a57ef6edc34f7dc0d870400483045022100f4d82d1203131ee43920eccec100428029e787c582267f54d3300f74ec7cbfce02207966a04c89529a942b3b9dbfb1989bb04b9d342b47b4c4eafbe9e5b826517442014730440220735606c686e86748b319555e22d03c03816e794367b4a68d919ad7d4fbb4dbd3022008721fc175ab8d97667eaea7462e07f4b50bcc149227dfc1808da08745fb05e4016952210297a085fac2df144be364f8b0a680dabe20339d6084867823f6be4c4eaafd46a521032b0391ddae9eb15ad4a2afe984a9d7db6954a3c8df2dd3da9077c085938620c82102c7f37e63b4735621ec1ebb2b09230edb6a8060704fb583e7cbd7221612eb47f053ae00000000", "vin": [{"txinwitness": ["", "3045022100f4d82d1203131ee43920eccec100428029e787c582267f54d3300f74ec7cbfce02207966a04c89529a942b3b9dbfb1989bb04b9d342b47b4c4eafbe9e5b82651744201", "30440220735606c686e86748b319555e22d03c03816e794367b4a68d919ad7d4fbb4dbd3022008721fc175ab8d97667eaea7462e07f4b50bcc149227dfc1808da08745fb05e401", "52210297a085fac2df144be364f8b0a680dabe20339d6084867823f6be4c4eaafd46a521032b0391ddae9eb15ad4a2afe984a9d7db6954a3c8df2dd3da9077c085938620c82102c7f37e63b4735621ec1ebb2b09230edb6a8060704fb583e7cbd7221612eb47f053ae"], "sequence": 4294967295, "scriptSig": {"hex": "220020d4c09351a2fd4003fadff606ad61d53443d8f3f26cb7fb771cdc305f5d626ab3", "asm": "0020d4c09351a2fd4003fadff606ad61d53443d8f3f26cb7fb771cdc305f5d626ab3"}, "vout": 0, "txid": "08eeb0881bb3adde1fc7b1adea04e6063a0c4034ec5845810a3015dc221be9af"}], "txid": "c4fc1bd04ad5d107b1a74c3ccd32856b1d7a317d475facad8785b69ac2e5733d", "blocktime": 1537870268, "version": 1, "confirmations": 11516, "time": 1537870268, "locktime": 0, "vsize": 214, "size": 405}