{"hash": "2a4073deb720b355b7411c89b4213d268121d4a7d1b0e3bf9d4f305c749c840d", "blockhash": "0000000000000000000baef3f32e3676a92c3b2e5da21b426e4f302fc371ce76", "vout": [{"scriptPubKey": {"reqSigs": 1, "hex": "76a9147141cea1c0e1b4643f475550ba5266be2e15106488ac", "addresses": ["1BKrC3DQkZn3QwmW1hBLikZ9PQLG3o3LEW"], "asm": "OP_DUP OP_HASH160 7141cea1c0e1b4643f475550ba5266be2e151064 OP_EQUALVERIFY OP_CHECKSIG", "type": "pubkeyhash"}, "value": 0.0032246, "n": 0}, {"scriptPubKey": {"reqSigs": 1, "hex": "a9147ac06c8032bfc4a82d06a103892ea25322d6f27687", "addresses": ["3Ct4snjGKJ5dcyqTyGefM5SgQ6eHnGmrUe"], "asm": "OP_HASH160 7ac06c8032bfc4a82d06a103892ea25322d6f276 OP_EQUAL", "type": "scripthash"}, "value": 0.01007552, "n": 1}], "hex": "02000000000102247ce142d8e2fcaf60b71a27a468398a28450b97b79b8f6ab994c86f286a228d010000001716001450de18f30fb9ee76dcd468a1af65a053aa2ee65bfeffffffb14ba10802f176f5a8b487d1157bba8bcc0931617b7096c582215a1a2b53771a0f00000017160014f01b0afcb93be370606ae489fad71fcdb4389456feffffff029ceb0400000000001976a9147141cea1c0e1b4643f475550ba5266be2e15106488acc05f0f000000000017a9147ac06c8032bfc4a82d06a103892ea25322d6f2768702483045022100dbd6c84de08bf786c55d945933b8b9c5dc1c14c22e7808603a1fa6a8e156b39d022033fafa1c0040a6024fa17e54a2717c8b430aef66610b69cfb3ceb680507d0e8c01210261c80f7a6af757b011ce2d8326086ce3c3c8a2611fae45baa8d1d19251df76e302483045022100cb6a3f9f0ac009918b304cd3b81f18b66ef091f8251a45335d3d7bf1bbb3af2602204ccce0321052250bf30d349d7f8d605351def2d96a83c5961043a09ec4fcf1210121031dfd7fb447caeb003fc625e9a8ca923c47389fd0c253c6452512aa62fe6c22cf17490800", "vin": [{"txinwitness": ["3045022100dbd6c84de08bf786c55d945933b8b9c5dc1c14c22e7808603a1fa6a8e156b39d022033fafa1c0040a6024fa17e54a2717c8b430aef66610b69cfb3ceb680507d0e8c01", "0261c80f7a6af757b011ce2d8326086ce3c3c8a2611fae45baa8d1d19251df76e3"], "sequence": 4294967294, "scriptSig": {"hex": "16001450de18f30fb9ee76dcd468a1af65a053aa2ee65b", "asm": "001450de18f30fb9ee76dcd468a1af65a053aa2ee65b"}, "vout": 1, "txid": "8d226a286fc894b96a8f9bb7970b45288a3968a4271ab760affce2d842e17c24"}, {"txinwitness": ["3045022100cb6a3f9f0ac009918b304cd3b81f18b66ef091f8251a45335d3d7bf1bbb3af2602204ccce0321052250bf30d349d7f8d605351def2d96a83c5961043a09ec4fcf12101", "031dfd7fb447caeb003fc625e9a8ca923c47389fd0c253c6452512aa62fe6c22cf"], "sequence": 4294967294, "scriptSig": {"hex": "160014f01b0afcb93be370606ae489fad71fcdb4389456", "asm": "0014f01b0afcb93be370606ae489fad71fcdb4389456"}, "vout": 15, "txid": "1a77532b1a5a2182c596707b613109cc8bba7b15d187b4a8f576f10208a14bb1"}], "txid": "c4ffcbd06fdc9a1b20bfd88025868823e9d8f5ac5cf4dde56edb1fb1e7f10628", "blocktime": 1537876114, "version": 2, "confirmations": 11462, "time": 1537876114, "locktime": 542999, "vsize": 259, "size": 422}