{"hash": "c502f0af0fe457a963ca9050747596967e9b33da84b22e9f359f8b4cd3b4853c", "blockhash": "0000000000000000001f0ddff1eddb255c1121bcd4da4f1bc9a0da00cae72433", "vout": [{"scriptPubKey": {"reqSigs": 1, "hex": "76a9148cd1e3beafb9d22e76b9d1dc0f10caf75ed2126c88ac", "addresses": ["1Dqb3F7USEP1Ar7SGUzSgp7efnPiYqUR2R"], "asm": "OP_DUP OP_HASH160 8cd1e3beafb9d22e76b9d1dc0f10caf75ed2126c OP_EQUALVERIFY OP_CHECKSIG", "type": "pubkeyhash"}, "value": 3e-05, "n": 0}, {"scriptPubKey": {"reqSigs": 1, "hex": "76a914e61eadb6f4d90f5cd6c865b7ce505268050abfd488ac", "addresses": ["1MymAhvgj74J7z57aAyammC4bQBNseVrMH"], "asm": "OP_DUP OP_HASH160 e61eadb6f4d90f5cd6c865b7ce505268050abfd4 OP_EQUALVERIFY OP_CHECKSIG", "type": "pubkeyhash"}, "value": 0.09826996, "n": 1}], "hex": "01000000010447771c9e07ee0ceaa64c5d2a57a42b2c39fd75177049381ad4a33645cc4cec010000006a47304402201222544aba5e236bad572c2807563e9597701c028f19fd3ab85cfa873eb454980220235efed28d7c50352d7bf58bd1049d64c39a6896410fd9e236c0dbe7f22a6bc20121027684648823224c7a0eebf4ba6946aa7a3f576f381aecbe87ad63f2369c672dbbfeffffff02b80b0000000000001976a9148cd1e3beafb9d22e76b9d1dc0f10caf75ed2126c88acb4f29500000000001976a914e61eadb6f4d90f5cd6c865b7ce505268050abfd488ac0f490800", "vin": [{"sequence": 4294967294, "scriptSig": {"hex": "47304402201222544aba5e236bad572c2807563e9597701c028f19fd3ab85cfa873eb454980220235efed28d7c50352d7bf58bd1049d64c39a6896410fd9e236c0dbe7f22a6bc20121027684648823224c7a0eebf4ba6946aa7a3f576f381aecbe87ad63f2369c672dbb", "asm": "304402201222544aba5e236bad572c2807563e9597701c028f19fd3ab85cfa873eb454980220235efed28d7c50352d7bf58bd1049d64c39a6896410fd9e236c0dbe7f22a6bc2[ALL] 027684648823224c7a0eebf4ba6946aa7a3f576f381aecbe87ad63f2369c672dbb"}, "vout": 1, "txid": "ec4ccc4536a3d41a3849701775fd392c2ba4572a5d4ca6ea0cee079e1c774704"}], "txid": "c502f0af0fe457a963ca9050747596967e9b33da84b22e9f359f8b4cd3b4853c", "blocktime": 1537872018, "version": 1, "confirmations": 11489, "time": 1537872018, "locktime": 542991, "vsize": 225, "size": 225}