{"hash": "c5072cb2f25cf49054212aaf4cadef69dd5ac67371a926607f81362c69928219", "blockhash": "00000000000000000018f53835495a110e01622372bf6ae95dc86f2b0ab887b0", "vout": [{"scriptPubKey": {"reqSigs": 1, "hex": "76a914d243e6abb9a60fbff430b421d2df4b7d59ec186088ac", "addresses": ["1LAnF8h3qMGx3TSwNUHVneBZUEpwE4gu3D"], "asm": "OP_DUP OP_HASH160 d243e6abb9a60fbff430b421d2df4b7d59ec1860 OP_EQUALVERIFY OP_CHECKSIG", "type": "pubkeyhash"}, "value": 0.00076972, "n": 0}, {"scriptPubKey": {"reqSigs": 1, "hex": "76a9143851f34d13937b673a7d24a1950bb5b21ce94af388ac", "addresses": ["168o1kqNquEJeR9vosUB5fw4eAwcVAgh8P"], "asm": "OP_DUP OP_HASH160 3851f34d13937b673a7d24a1950bb5b21ce94af3 OP_EQUALVERIFY OP_CHECKSIG", "type": "pubkeyhash"}, "value": 5.46e-06, "n": 1}, {"scriptPubKey": {"type": "nulldata", "hex": "6a146f6d6e69000000000000001f0000012ee3aeb100", "asm": "OP_RETURN 6f6d6e69000000000000001f0000012ee3aeb100"}, "value": 0.0, "n": 2}], "hex": "010000000219943b2d5a72947027d9770adf5228901214a9e931b67dce1faa6b4410a3db2a020000006a473044022064237caf0029ac2f9b951007b9f9ae64fc0804c74f189d8c065b94b69354588702200f8745fefb47e41eb172e4b16332f6c2a24dbd7969528b820f2047330e57047001210273072744e0166d1859392c9b24768d5902d0876ff9be26a40fb6ec687abd0eceffffffffe17fc2b44bb2d67408ed66e4ee4746bb8032eb0acb59b8cd51a8363d07fc9abc000000006a473044022055b7a6fca5325eb621c3b91ef7afca321ef0680ce4cedd34f6c456642467d7ab022070750f53bb835c238d341ad057a957cbe9dff1cd693f1aff0761330de5bf509701210271977291b74f1f5f5c42157e8aae804664eaaeccfd097918450d37f28fb94d77ffffffff03ac2c0100000000001976a914d243e6abb9a60fbff430b421d2df4b7d59ec186088ac22020000000000001976a9143851f34d13937b673a7d24a1950bb5b21ce94af388ac0000000000000000166a146f6d6e69000000000000001f0000012ee3aeb10000000000", "vin": [{"sequence": 4294967295, "scriptSig": {"hex": "473044022064237caf0029ac2f9b951007b9f9ae64fc0804c74f189d8c065b94b69354588702200f8745fefb47e41eb172e4b16332f6c2a24dbd7969528b820f2047330e57047001210273072744e0166d1859392c9b24768d5902d0876ff9be26a40fb6ec687abd0ece", "asm": "3044022064237caf0029ac2f9b951007b9f9ae64fc0804c74f189d8c065b94b69354588702200f8745fefb47e41eb172e4b16332f6c2a24dbd7969528b820f2047330e570470[ALL] 0273072744e0166d1859392c9b24768d5902d0876ff9be26a40fb6ec687abd0ece"}, "vout": 2, "txid": "2adba310446baa1fce7db631e9a91412902852df0a77d9277094725a2d3b9419"}, {"sequence": 4294967295, "scriptSig": {"hex": "473044022055b7a6fca5325eb621c3b91ef7afca321ef0680ce4cedd34f6c456642467d7ab022070750f53bb835c238d341ad057a957cbe9dff1cd693f1aff0761330de5bf509701210271977291b74f1f5f5c42157e8aae804664eaaeccfd097918450d37f28fb94d77", "asm": "3044022055b7a6fca5325eb621c3b91ef7afca321ef0680ce4cedd34f6c456642467d7ab022070750f53bb835c238d341ad057a957cbe9dff1cd693f1aff0761330de5bf5097[ALL] 0271977291b74f1f5f5c42157e8aae804664eaaeccfd097918450d37f28fb94d77"}, "vout": 0, "txid": "bc9afc073d36a851cdb859cb0aeb3280bb4647eee466ed0874d6b24bb4c27fe1"}], "txid": "c5072cb2f25cf49054212aaf4cadef69dd5ac67371a926607f81362c69928219", "blocktime": 1537870928, "version": 1, "confirmations": 11512, "time": 1537870928, "locktime": 0, "vsize": 403, "size": 403}