{"hash": "c507b642c08a785cb6658a5851555608a06541957437bc094e6851e3b3a4807a", "blockhash": "0000000000000000001f0ddff1eddb255c1121bcd4da4f1bc9a0da00cae72433", "vout": [{"scriptPubKey": {"reqSigs": 1, "hex": "76a914417de12d641a803fc9b54b22daf2e1b6052f1e0388ac", "addresses": ["16yHijjj3znE4q8faab5aZ7Eo9QZ1ebtDV"], "asm": "OP_DUP OP_HASH160 417de12d641a803fc9b54b22daf2e1b6052f1e03 OP_EQUALVERIFY OP_CHECKSIG", "type": "pubkeyhash"}, "value": 0.00041022, "n": 0}, {"scriptPubKey": {"reqSigs": 1, "hex": "a914388982744de7c3107629d0a1f934ba7bc5d6d21087", "addresses": ["36qxVcuW9S2Ubfd1uY4YhZy78Lut7fCMC8"], "asm": "OP_HASH160 388982744de7c3107629d0a1f934ba7bc5d6d210 OP_EQUAL", "type": "scripthash"}, "value": 0.15179309, "n": 1}], "hex": "0100000001ee689df89c588411788aac8b72faf3e6c5b9ae51b2a53ef7ad1577aaea9d080f000000006a473044022069f8e6d17e86d727799832de497853367f886aabe82bbc3c166426283998b4c9022055bae99b80df2bf95f63921a9d484e39e94ba2180404eceda4660ce2e5597bc40121026df06729976b05cadc3e6acfe9f01ac66151c67d6d66dbceaff5e50498a44d90ffffffff023ea00000000000001976a914417de12d641a803fc9b54b22daf2e1b6052f1e0388ac2d9ee7000000000017a914388982744de7c3107629d0a1f934ba7bc5d6d2108700000000", "vin": [{"sequence": 4294967295, "scriptSig": {"hex": "473044022069f8e6d17e86d727799832de497853367f886aabe82bbc3c166426283998b4c9022055bae99b80df2bf95f63921a9d484e39e94ba2180404eceda4660ce2e5597bc40121026df06729976b05cadc3e6acfe9f01ac66151c67d6d66dbceaff5e50498a44d90", "asm": "3044022069f8e6d17e86d727799832de497853367f886aabe82bbc3c166426283998b4c9022055bae99b80df2bf95f63921a9d484e39e94ba2180404eceda4660ce2e5597bc4[ALL] 026df06729976b05cadc3e6acfe9f01ac66151c67d6d66dbceaff5e50498a44d90"}, "vout": 0, "txid": "0f089deaaa7715adf73ea5b251aeb9c5e6f3fa728bac8a781184589cf89d68ee"}], "txid": "c507b642c08a785cb6658a5851555608a06541957437bc094e6851e3b3a4807a", "blocktime": 1537872018, "version": 1, "confirmations": 11489, "time": 1537872018, "locktime": 0, "vsize": 223, "size": 223}