{"hash": "c518e283768e49429ae9c304a350fa7290ad90685d72069b22c5465e967c0cfe", "blockhash": "0000000000000000001cda96e906b7601b7a6fb1a3b62bca570a9e5d8f4b3de1", "vout": [{"scriptPubKey": {"reqSigs": 1, "hex": "76a914189417c7c2ff1f199fc582f54d47d48282a6016e88ac", "addresses": ["13ExdH9hSEXGPVAcUtLaEp4qeKVpKtYNJv"], "asm": "OP_DUP OP_HASH160 189417c7c2ff1f199fc582f54d47d48282a6016e OP_EQUALVERIFY OP_CHECKSIG", "type": "pubkeyhash"}, "value": 0.00199906, "n": 0}, {"scriptPubKey": {"reqSigs": 1, "hex": "76a9147d062f9d43eae2f359ad8f96d69cd304a8e6b6c388ac", "addresses": ["1CQ4snmjmPVT1siGNKGrXMRLGwebbinLCM"], "asm": "OP_DUP OP_HASH160 7d062f9d43eae2f359ad8f96d69cd304a8e6b6c3 OP_EQUALVERIFY OP_CHECKSIG", "type": "pubkeyhash"}, "value": 2.221e-05, "n": 1}], "hex": "010000000162427f0ba53ec60b32f2fdfb2d8fcff9ea05486d9e0a8d9399ed51ad6faa8e710c0000006a4730440220038e25d26dd0121de4cad27ed1747e100910db7239845f8905a7069a5ca6f6c40220727fcdb6da48b247e962544dd252cd7c5de9cdc487e7fe81c54916c89875d512012103884c47bbfca2e906d5dd89a184cb6270445b320bcb9143aedeff057312fe8111ffffffff02e20c0300000000001976a914189417c7c2ff1f199fc582f54d47d48282a6016e88acad080000000000001976a9147d062f9d43eae2f359ad8f96d69cd304a8e6b6c388ac00000000", "vin": [{"sequence": 4294967295, "scriptSig": {"hex": "4730440220038e25d26dd0121de4cad27ed1747e100910db7239845f8905a7069a5ca6f6c40220727fcdb6da48b247e962544dd252cd7c5de9cdc487e7fe81c54916c89875d512012103884c47bbfca2e906d5dd89a184cb6270445b320bcb9143aedeff057312fe8111", "asm": "30440220038e25d26dd0121de4cad27ed1747e100910db7239845f8905a7069a5ca6f6c40220727fcdb6da48b247e962544dd252cd7c5de9cdc487e7fe81c54916c89875d512[ALL] 03884c47bbfca2e906d5dd89a184cb6270445b320bcb9143aedeff057312fe8111"}, "vout": 12, "txid": "718eaa6fad51ed99938d0a9e6d4805eaf9cf8f2dfbfdf2320bc63ea50b7f4262"}], "txid": "c518e283768e49429ae9c304a350fa7290ad90685d72069b22c5465e967c0cfe", "blocktime": 1537873282, "version": 1, "confirmations": 11480, "time": 1537873282, "locktime": 0, "vsize": 225, "size": 225}