{"hash": "c51def5828a5a4a8b51a8187e300ddcf0cac0f61818dc5d80603f9ff70ef1eb0", "blockhash": "00000000000000000018f53835495a110e01622372bf6ae95dc86f2b0ab887b0", "vout": [{"scriptPubKey": {"reqSigs": 1, "hex": "76a91462126d162850ede6f8f89a238496c51bb1a8816988ac", "addresses": ["19wZJ4ymHJ98QZuSxZn4r4sJCpRcjLkThD"], "asm": "OP_DUP OP_HASH160 62126d162850ede6f8f89a238496c51bb1a88169 OP_EQUALVERIFY OP_CHECKSIG", "type": "pubkeyhash"}, "value": 0.00818, "n": 0}, {"scriptPubKey": {"reqSigs": 1, "hex": "76a914a53f17e7ef2137d8b416bbf5b340d852dadd4e7688ac", "addresses": ["1G4k5TWiKJLK8JN6nfkLi6sNUqeq9RBkxq"], "asm": "OP_DUP OP_HASH160 a53f17e7ef2137d8b416bbf5b340d852dadd4e76 OP_EQUALVERIFY OP_CHECKSIG", "type": "pubkeyhash"}, "value": 0.00021056, "n": 1}], "hex": "0100000003767861d499f66c7a1371b6fcf7cb35bd47fa07a9fd816e632b2d1f1b78345724010000006a47304402204c7f07b084d6c2e8a2362cb07115637c9743a36e1df5b472869e278d08550b26022071864f7b8abf115eac8b3f9a8c664c8cc972b169aa7c21e38f8a106c118e0b7c012102e9d737915c71f58c307bd3481898351e64ef94d87e0748e54c6d5c84c1ef63d5ffffffff6536f31079232606116522124ef85b63c737fd9fb1c5024286bbb54a944c812a010000006b48304502210098c2ebc3cbd4a7648ce72305394e8c4c44d1d16786b53e9443093fabfa8ae8a4022038534db86bdd813afeb6b11b5bb5dc14e7e6ca5e2ae289289a69187355d7a206012103e347e6545d65102a12bad6b2918e25d3f24df369f80289bbcc020811299018c6ffffffffd060944cd9125dd92f447e3867aedcd2893e312c559fc9d5f187db5b31cfd626010000006b483045022100abbf63c23bf68f0d94702baae7b7a4b47f3d7eb1f61310ccb45b87ecfe2eba5402207ff01395ca50e08be6bd93f4424594ca8039f1fd402a4d8a042efb4ae8feaaad012102ee9a686f45fbf8fdf5552b78f719e6f3b5eebb4c15d5e761e1302c3337cdbab5ffffffff02507b0c00000000001976a91462126d162850ede6f8f89a238496c51bb1a8816988ac40520000000000001976a914a53f17e7ef2137d8b416bbf5b340d852dadd4e7688ac00000000", "vin": [{"sequence": 4294967295, "scriptSig": {"hex": "47304402204c7f07b084d6c2e8a2362cb07115637c9743a36e1df5b472869e278d08550b26022071864f7b8abf115eac8b3f9a8c664c8cc972b169aa7c21e38f8a106c118e0b7c012102e9d737915c71f58c307bd3481898351e64ef94d87e0748e54c6d5c84c1ef63d5", "asm": "304402204c7f07b084d6c2e8a2362cb07115637c9743a36e1df5b472869e278d08550b26022071864f7b8abf115eac8b3f9a8c664c8cc972b169aa7c21e38f8a106c118e0b7c[ALL] 02e9d737915c71f58c307bd3481898351e64ef94d87e0748e54c6d5c84c1ef63d5"}, "vout": 1, "txid": "245734781b1f2d2b636e81fda907fa47bd35cbf7fcb671137a6cf699d4617876"}, {"sequence": 4294967295, "scriptSig": {"hex": "48304502210098c2ebc3cbd4a7648ce72305394e8c4c44d1d16786b53e9443093fabfa8ae8a4022038534db86bdd813afeb6b11b5bb5dc14e7e6ca5e2ae289289a69187355d7a206012103e347e6545d65102a12bad6b2918e25d3f24df369f80289bbcc020811299018c6", "asm": "304502210098c2ebc3cbd4a7648ce72305394e8c4c44d1d16786b53e9443093fabfa8ae8a4022038534db86bdd813afeb6b11b5bb5dc14e7e6ca5e2ae289289a69187355d7a206[ALL] 03e347e6545d65102a12bad6b2918e25d3f24df369f80289bbcc020811299018c6"}, "vout": 1, "txid": "2a814c944ab5bb864202c5b19ffd37c7635bf84e122265110626237910f33665"}, {"sequence": 4294967295, "scriptSig": {"hex": "483045022100abbf63c23bf68f0d94702baae7b7a4b47f3d7eb1f61310ccb45b87ecfe2eba5402207ff01395ca50e08be6bd93f4424594ca8039f1fd402a4d8a042efb4ae8feaaad012102ee9a686f45fbf8fdf5552b78f719e6f3b5eebb4c15d5e761e1302c3337cdbab5", "asm": "3045022100abbf63c23bf68f0d94702baae7b7a4b47f3d7eb1f61310ccb45b87ecfe2eba5402207ff01395ca50e08be6bd93f4424594ca8039f1fd402a4d8a042efb4ae8feaaad[ALL] 02ee9a686f45fbf8fdf5552b78f719e6f3b5eebb4c15d5e761e1302c3337cdbab5"}, "vout": 1, "txid": "26d6cf315bdb87f1d5c99f552c313e89d2dcae67387e442fd95d12d94c9460d0"}], "txid": "c51def5828a5a4a8b51a8187e300ddcf0cac0f61818dc5d80603f9ff70ef1eb0", "blocktime": 1537870928, "version": 1, "confirmations": 11512, "time": 1537870928, "locktime": 0, "vsize": 521, "size": 521}