{"hash": "c5200645a85ed9c08707f5e8f4996f1bafa536844b458d8cfebfe6f23ea57862", "blockhash": "00000000000000000017f5eb5941039fbcee6240d03bc1f2f8e35350df66a1d8", "vout": [{"scriptPubKey": {"type": "nulldata", "hex": "6a146f6d6e69000000000000001f0000000826299e00", "asm": "OP_RETURN 6f6d6e69000000000000001f0000000826299e00"}, "value": 0.0, "n": 0}, {"scriptPubKey": {"reqSigs": 1, "hex": "76a914a25dec4d0011064ef106a983c39c7a540699f22088ac", "addresses": ["1FoWyxwPXuj4C6abqwhjDWdz6D4PZgYRjA"], "asm": "OP_DUP OP_HASH160 a25dec4d0011064ef106a983c39c7a540699f220 OP_EQUALVERIFY OP_CHECKSIG", "type": "pubkeyhash"}, "value": 5.46e-06, "n": 1}, {"scriptPubKey": {"reqSigs": 1, "hex": "76a914ed22b967ed4e1fecf1cbf52e58acb66140b3bfb688ac", "addresses": ["1Ncrk9Ve2eV5x1EiP6wVoR45fK7VQ8R49N"], "asm": "OP_DUP OP_HASH160 ed22b967ed4e1fecf1cbf52e58acb66140b3bfb6 OP_EQUALVERIFY OP_CHECKSIG", "type": "pubkeyhash"}, "value": 0.00500989, "n": 2}], "hex": "0100000002510e70ba5cf17314ff649edb99d7aef4cafa94f34cfee5eaa9d16c879d44904d010000006a47304402207839cff4f7562c3813a33006fadd5e98600d79361782c8807fe4e50ea4dbc7c60220204ad61cf84239d608cd2690cff08cd8b3903399bab1632d1e233e02eefc65e70121038e982b6b010e5feb9ced4a7ffd127e9b99b7b22d6c179888c03d571472d3d0c1feffffff53258833740e97bb129a159c7a84e70326e3eab37a2ed81ed8fad7b115afcd44020000006a473044022072b14b3f3a6ff52e99a72caf6c7808bf30c884d6eaa8ebfbc7588c0ef8f8acfa0220560b8fe0d0402bee3aa0cf056277122b5e35f9a277242546d506389dae5fcc510121038e982b6b010e5feb9ced4a7ffd127e9b99b7b22d6c179888c03d571472d3d0c1feffffff030000000000000000166a146f6d6e69000000000000001f0000000826299e0022020000000000001976a914a25dec4d0011064ef106a983c39c7a540699f22088acfda40700000000001976a914ed22b967ed4e1fecf1cbf52e58acb66140b3bfb688ac15490800", "vin": [{"sequence": 4294967294, "scriptSig": {"hex": "47304402207839cff4f7562c3813a33006fadd5e98600d79361782c8807fe4e50ea4dbc7c60220204ad61cf84239d608cd2690cff08cd8b3903399bab1632d1e233e02eefc65e70121038e982b6b010e5feb9ced4a7ffd127e9b99b7b22d6c179888c03d571472d3d0c1", "asm": "304402207839cff4f7562c3813a33006fadd5e98600d79361782c8807fe4e50ea4dbc7c60220204ad61cf84239d608cd2690cff08cd8b3903399bab1632d1e233e02eefc65e7[ALL] 038e982b6b010e5feb9ced4a7ffd127e9b99b7b22d6c179888c03d571472d3d0c1"}, "vout": 1, "txid": "4d90449d876cd1a9eae5fe4cf394facaf4aed799db9e64ff1473f15cba700e51"}, {"sequence": 4294967294, "scriptSig": {"hex": "473044022072b14b3f3a6ff52e99a72caf6c7808bf30c884d6eaa8ebfbc7588c0ef8f8acfa0220560b8fe0d0402bee3aa0cf056277122b5e35f9a277242546d506389dae5fcc510121038e982b6b010e5feb9ced4a7ffd127e9b99b7b22d6c179888c03d571472d3d0c1", "asm": "3044022072b14b3f3a6ff52e99a72caf6c7808bf30c884d6eaa8ebfbc7588c0ef8f8acfa0220560b8fe0d0402bee3aa0cf056277122b5e35f9a277242546d506389dae5fcc51[ALL] 038e982b6b010e5feb9ced4a7ffd127e9b99b7b22d6c179888c03d571472d3d0c1"}, "vout": 2, "txid": "44cdaf15b1d7fad81ed82e7ab3eae32603e7847a9c159a12bb970e7433882553"}], "txid": "c5200645a85ed9c08707f5e8f4996f1bafa536844b458d8cfebfe6f23ea57862", "blocktime": 1537874412, "version": 1, "confirmations": 11468, "time": 1537874412, "locktime": 542997, "vsize": 403, "size": 403}