{"hash": "c52119d40bf64d38972c050241eb025c5eb0e92e4e777df5f990cb5df7acd22d", "blockhash": "00000000000000000004ffacab907a6b429b9a5745fa0b75af4234bf69dd7176", "vout": [{"scriptPubKey": {"reqSigs": 1, "hex": "76a9149485691ba7ea992fea57695213ef77d8d2457dfd88ac", "addresses": ["1EYJpvPB3Nf9MHBcgKJhR6qVBqQtq9vQi4"], "asm": "OP_DUP OP_HASH160 9485691ba7ea992fea57695213ef77d8d2457dfd OP_EQUALVERIFY OP_CHECKSIG", "type": "pubkeyhash"}, "value": 0.00219169, "n": 0}, {"scriptPubKey": {"reqSigs": 1, "hex": "a914720c6da9ab6d731f6e2aa0cbdf9f2453e09a45b187", "addresses": ["3C63qx6UyCSji9GDTPFu3JFTSnLKtZo91r"], "asm": "OP_HASH160 720c6da9ab6d731f6e2aa0cbdf9f2453e09a45b1 OP_EQUAL", "type": "scripthash"}, "value": 0.29390942, "n": 1}], "hex": "01000000012b03a78c9d15900cfc40c2705f6b586517f0e6d29608c22b1a4f003fbfda019401000000da00483045022100f94334c48cfbf76c794a5057d14359fd64691f462225c3a80ab23866cb7b0d9602203aa07f0e6285d61ea43b30fcb4146dc54be85be69455a24b3756ad3a9a84d323014730440220308ec61ca1b48a1dcb60062dc877dcf5d3c08c9828a9c963c3c6e711dba9f54902206708276677ddc51a2acaa730112e8adaa77a39b73a90cdaab7751431475e8c630147522103f2d250ed5140d655fe49f9b9f857ff223c9290b9bbe8b68a50d522cf45e633702102045f2de7b3abee8ca375163a8879a6719ef3e6d7ffc88aa3008e11b5b89eb7ee52aeffffffff0221580300000000001976a9149485691ba7ea992fea57695213ef77d8d2457dfd88ac5e78c0010000000017a914720c6da9ab6d731f6e2aa0cbdf9f2453e09a45b18700000000", "vin": [{"sequence": 4294967295, "scriptSig": {"hex": "00483045022100f94334c48cfbf76c794a5057d14359fd64691f462225c3a80ab23866cb7b0d9602203aa07f0e6285d61ea43b30fcb4146dc54be85be69455a24b3756ad3a9a84d323014730440220308ec61ca1b48a1dcb60062dc877dcf5d3c08c9828a9c963c3c6e711dba9f54902206708276677ddc51a2acaa730112e8adaa77a39b73a90cdaab7751431475e8c630147522103f2d250ed5140d655fe49f9b9f857ff223c9290b9bbe8b68a50d522cf45e633702102045f2de7b3abee8ca375163a8879a6719ef3e6d7ffc88aa3008e11b5b89eb7ee52ae", "asm": "0 3045022100f94334c48cfbf76c794a5057d14359fd64691f462225c3a80ab23866cb7b0d9602203aa07f0e6285d61ea43b30fcb4146dc54be85be69455a24b3756ad3a9a84d323[ALL] 30440220308ec61ca1b48a1dcb60062dc877dcf5d3c08c9828a9c963c3c6e711dba9f54902206708276677ddc51a2acaa730112e8adaa77a39b73a90cdaab7751431475e8c63[ALL] 522103f2d250ed5140d655fe49f9b9f857ff223c9290b9bbe8b68a50d522cf45e633702102045f2de7b3abee8ca375163a8879a6719ef3e6d7ffc88aa3008e11b5b89eb7ee52ae"}, "vout": 1, "txid": "9401dabf3f004f1a2bc20896d2e6f01765586b5f70c240fc0c90159d8ca7032b"}], "txid": "c52119d40bf64d38972c050241eb025c5eb0e92e4e777df5f990cb5df7acd22d", "blocktime": 1537875543, "version": 1, "confirmations": 11464, "time": 1537875543, "locktime": 0, "vsize": 335, "size": 335}