{"hash": "c521c54e901f56ec12a0069cd8056484e8aa40c385bd97aacb5edd5a82224235", "blockhash": "0000000000000000001f76057863aec43deb6fa401d9628bb513d65a8098bfab", "vout": [{"scriptPubKey": {"reqSigs": 1, "hex": "76a914256d7ab3838b03b6b605f78933ad6482afa3d6e388ac", "addresses": ["14Qu9rUMq9qNbndhW4XxZrnR72RkMHn7JN"], "asm": "OP_DUP OP_HASH160 256d7ab3838b03b6b605f78933ad6482afa3d6e3 OP_EQUALVERIFY OP_CHECKSIG", "type": "pubkeyhash"}, "value": 0.00405917, "n": 0}, {"scriptPubKey": {"reqSigs": 1, "hex": "76a9148abd1ed9ab502f5397ecc6e77cd48dba07e94e9488ac", "addresses": ["1DeaooAURwgkeM6MT3LNSuwYZnKyfMD5Bi"], "asm": "OP_DUP OP_HASH160 8abd1ed9ab502f5397ecc6e77cd48dba07e94e94 OP_EQUALVERIFY OP_CHECKSIG", "type": "pubkeyhash"}, "value": 0.03944992, "n": 1}], "hex": "01000000011a7d7350ee5bc9272d95e43dd9bc489f8996fb33207112a078df324a1031831d000000006a4730440220090df8a5b2b3b8e8702895edfba380e600addabc50be07af61d9eca55a1d3a3702202381f41d4ab983cb4ac88b9ada3d7abdec02b01205acc89298129a6d306d3e8c012102d40e9c70a9710da4c18c76fdd8812d3e9ed19f4b022f57ec2f5a7b946d8a075bffffffff029d310600000000001976a914256d7ab3838b03b6b605f78933ad6482afa3d6e388ac20323c00000000001976a9148abd1ed9ab502f5397ecc6e77cd48dba07e94e9488ac00000000", "vin": [{"sequence": 4294967295, "scriptSig": {"hex": "4730440220090df8a5b2b3b8e8702895edfba380e600addabc50be07af61d9eca55a1d3a3702202381f41d4ab983cb4ac88b9ada3d7abdec02b01205acc89298129a6d306d3e8c012102d40e9c70a9710da4c18c76fdd8812d3e9ed19f4b022f57ec2f5a7b946d8a075b", "asm": "30440220090df8a5b2b3b8e8702895edfba380e600addabc50be07af61d9eca55a1d3a3702202381f41d4ab983cb4ac88b9ada3d7abdec02b01205acc89298129a6d306d3e8c[ALL] 02d40e9c70a9710da4c18c76fdd8812d3e9ed19f4b022f57ec2f5a7b946d8a075b"}, "vout": 0, "txid": "1d8331104a32df78a012712033fb96899f48bcd93de4952d27c95bee50737d1a"}], "txid": "c521c54e901f56ec12a0069cd8056484e8aa40c385bd97aacb5edd5a82224235", "blocktime": 1537873891, "version": 1, "confirmations": 11475, "time": 1537873891, "locktime": 0, "vsize": 225, "size": 225}