{"hash": "c5240884ef14ca7128f3174bb7d8a369e02212044dcad4cb3c28b1cf6895ece7", "blockhash": "00000000000000000018f53835495a110e01622372bf6ae95dc86f2b0ab887b0", "vout": [{"scriptPubKey": {"reqSigs": 1, "hex": "a9143451ca2f7fd1337dd8ab926455d6d6e87768832e87", "addresses": ["36Tf3Nay8cTdkAGf82KtnCyvsCV5H7yhAf"], "asm": "OP_HASH160 3451ca2f7fd1337dd8ab926455d6d6e87768832e OP_EQUAL", "type": "scripthash"}, "value": 0.002, "n": 0}, {"scriptPubKey": {"reqSigs": 1, "hex": "76a914c9041f565af676ae54b78a4199167b52024cb0e088ac", "addresses": ["1KKskzJucj27GMDjZzhi2oHFpQ7ctdAVEi"], "asm": "OP_DUP OP_HASH160 c9041f565af676ae54b78a4199167b52024cb0e0 OP_EQUALVERIFY OP_CHECKSIG", "type": "pubkeyhash"}, "value": 0.00014882, "n": 1}], "hex": "01000000012e366fccbaddaa03cba9e6efeba2349a8b487c53db533e6870f2baa763e103da000000006a47304402205c96ad62474bd60f3d2bebcf84fee36c678602de97f5c897afc9bba67491bd6b022000c49aecac5c2e97731875fea38659cc7f20c84d0bebe3f9ab6a407a05e7a09a012103fc637b7bf78bc0c44571a4e8f058d31fb84e262755a674fdeb44117f6a065886ffffffff02400d03000000000017a9143451ca2f7fd1337dd8ab926455d6d6e87768832e87223a0000000000001976a914c9041f565af676ae54b78a4199167b52024cb0e088ac00000000", "vin": [{"sequence": 4294967295, "scriptSig": {"hex": "47304402205c96ad62474bd60f3d2bebcf84fee36c678602de97f5c897afc9bba67491bd6b022000c49aecac5c2e97731875fea38659cc7f20c84d0bebe3f9ab6a407a05e7a09a012103fc637b7bf78bc0c44571a4e8f058d31fb84e262755a674fdeb44117f6a065886", "asm": "304402205c96ad62474bd60f3d2bebcf84fee36c678602de97f5c897afc9bba67491bd6b022000c49aecac5c2e97731875fea38659cc7f20c84d0bebe3f9ab6a407a05e7a09a[ALL] 03fc637b7bf78bc0c44571a4e8f058d31fb84e262755a674fdeb44117f6a065886"}, "vout": 0, "txid": "da03e163a7baf270683e53db537c488b9a34a2ebefe6a9cb03aaddbacc6f362e"}], "txid": "c5240884ef14ca7128f3174bb7d8a369e02212044dcad4cb3c28b1cf6895ece7", "blocktime": 1537870928, "version": 1, "confirmations": 11512, "time": 1537870928, "locktime": 0, "vsize": 223, "size": 223}