{"hash": "c52c0bf76e61b808f15abeb266398d21cdadff343a7c036d0a4b422a12500f78", "blockhash": "0000000000000000000dcc0f55137456b1a82d3642486a52398922ac4d620174", "vout": [{"scriptPubKey": {"reqSigs": 1, "hex": "a914006008b9255b03e6e44ce0d19ceb596c42d402da87", "addresses": ["31izy7EUQPgULB4gD2mt9XVnpHYTd26Yfk"], "asm": "OP_HASH160 006008b9255b03e6e44ce0d19ceb596c42d402da OP_EQUAL", "type": "scripthash"}, "value": 0.05583169, "n": 0}], "hex": "01000000011e08e1222454e91348ce0372016120677b20c46335dc4430ed89d714b578db98010000006b483045022100bab81db445d875a954810d587187954987e38b4230c2e2969e39bc198bda4d20022046a90526d8115cd2198331ffa8e4ed6df45a3591eadf6694b51b78709a272f990121022f28c0ede5ec834f9b8c4a270c7c70ab98981d2ea1bc7051e70c15a499545e30feffffff01413155000000000017a914006008b9255b03e6e44ce0d19ceb596c42d402da870c490800", "vin": [{"sequence": 4294967294, "scriptSig": {"hex": "483045022100bab81db445d875a954810d587187954987e38b4230c2e2969e39bc198bda4d20022046a90526d8115cd2198331ffa8e4ed6df45a3591eadf6694b51b78709a272f990121022f28c0ede5ec834f9b8c4a270c7c70ab98981d2ea1bc7051e70c15a499545e30", "asm": "3045022100bab81db445d875a954810d587187954987e38b4230c2e2969e39bc198bda4d20022046a90526d8115cd2198331ffa8e4ed6df45a3591eadf6694b51b78709a272f99[ALL] 022f28c0ede5ec834f9b8c4a270c7c70ab98981d2ea1bc7051e70c15a499545e30"}, "vout": 1, "txid": "98db78b514d789ed3044dc3563c4207b672061017203ce4813e9542422e1081e"}], "txid": "c52c0bf76e61b808f15abeb266398d21cdadff343a7c036d0a4b422a12500f78", "blocktime": 1537870268, "version": 1, "confirmations": 11516, "time": 1537870268, "locktime": 542988, "vsize": 190, "size": 190}