{"hash": "c52f2e7436fc81cf7f3c0b3c4b198e0ebdccad652987a8745216396e99f0f017", "blockhash": "00000000000000000017f5eb5941039fbcee6240d03bc1f2f8e35350df66a1d8", "vout": [{"scriptPubKey": {"reqSigs": 1, "hex": "76a91412185a55202ecb95dafb2ef4c2f54fa0f71f919188ac", "addresses": ["12egLX8Larqc8hVt72vXhzvCqkuG5K6Cyo"], "asm": "OP_DUP OP_HASH160 12185a55202ecb95dafb2ef4c2f54fa0f71f9191 OP_EQUALVERIFY OP_CHECKSIG", "type": "pubkeyhash"}, "value": 0.001, "n": 0}, {"scriptPubKey": {"reqSigs": 1, "hex": "a914a547a8ed256ac0e13092ac1ddb04d37cf97f684f87", "addresses": ["3GkwGDB9NvdxuGsHGpoZc3eyB3ohKhWvHJ"], "asm": "OP_HASH160 a547a8ed256ac0e13092ac1ddb04d37cf97f684f OP_EQUAL", "type": "scripthash"}, "value": 0.00799522, "n": 1}], "hex": "0200000001f8368275ed8fef8c859ee5fc51087e6716c2d04b4ed9a23cc2954e19c74e8605000000006a47304402204197204e50d98b50f29d017dba1472b5aaecb782f5033830bee47661f9b428f4022003c4e21c18fbfce1edddbd98564de21a544af467eed7e16632ef142c5f3efbc4012103653e6175b407ad568f312bcf09090c1334cc55b970f500ad937a6299fa1ee49afeffffff02a0860100000000001976a91412185a55202ecb95dafb2ef4c2f54fa0f71f919188ac22330c000000000017a914a547a8ed256ac0e13092ac1ddb04d37cf97f684f8700000000", "vin": [{"sequence": 4294967294, "scriptSig": {"hex": "47304402204197204e50d98b50f29d017dba1472b5aaecb782f5033830bee47661f9b428f4022003c4e21c18fbfce1edddbd98564de21a544af467eed7e16632ef142c5f3efbc4012103653e6175b407ad568f312bcf09090c1334cc55b970f500ad937a6299fa1ee49a", "asm": "304402204197204e50d98b50f29d017dba1472b5aaecb782f5033830bee47661f9b428f4022003c4e21c18fbfce1edddbd98564de21a544af467eed7e16632ef142c5f3efbc4[ALL] 03653e6175b407ad568f312bcf09090c1334cc55b970f500ad937a6299fa1ee49a"}, "vout": 0, "txid": "05864ec7194e95c23ca2d94e4bd0c216677e0851fce59e858cef8fed758236f8"}], "txid": "c52f2e7436fc81cf7f3c0b3c4b198e0ebdccad652987a8745216396e99f0f017", "blocktime": 1537874412, "version": 2, "confirmations": 11468, "time": 1537874412, "locktime": 0, "vsize": 223, "size": 223}