{"hash": "d2a9afb43b176be3d00d619e9b6e7f7562bec4304bfc8c6dbf412bedbf591ff2", "blockhash": "0000000000000000001cda96e906b7601b7a6fb1a3b62bca570a9e5d8f4b3de1", "vout": [{"scriptPubKey": {"reqSigs": 1, "hex": "a9142a5c293cd2b94daf77a549eea9cf911a1b852cbe87", "addresses": ["35Yzi4j25Vo6ktmGYpyY9wgo5hbftmsF4k"], "asm": "OP_HASH160 2a5c293cd2b94daf77a549eea9cf911a1b852cbe OP_EQUAL", "type": "scripthash"}, "value": 10.0, "n": 0}, {"scriptPubKey": {"reqSigs": 1, "hex": "a914a6fc3ba2b4cdc602027aa13a5ecbedd6e3ae451a87", "addresses": ["3GuxFqh4dNyA78sShLC6ju5TqomJXqkWjU"], "asm": "OP_HASH160 a6fc3ba2b4cdc602027aa13a5ecbedd6e3ae451a OP_EQUAL", "type": "scripthash"}, "value": 0.00213145, "n": 1}], "hex": "0100000000010eb41590ffa666a49ef4c7667e4565c6dbea86c5e9d5a9c811b5c38800209b442f0000000023220020d95b5aeb24258a5fb01b5254f026ff97af9ff03c09d2746343890eab87f5d09bffffffff9614faf2e252973fb07a8a3c275a2e3df36970d9a87dee751aadfca8f0742c4800000000fc0047304402207a34a045c9234c8e8cb1a7006e7bc81e98ae3c6b7e3442d7c0feac45e068b3b50220382e9fa2217235bdeae8502528aabd8c414fd5b007fd1b0ff6b334202086a3750147304402202e236b5fece830b9269fefcd589f4b2a1ef40a7d48298d9d1872ca3267df7ae302206476ee42d8778d24babf5d199d8f6221d68a888cbb09107f2089b6ec83a84130014c6952210248d05a61db914f0f35c33d63a18122ac9439c80d7ca1eeb8dfcbf1f95b80297c21027aae7c30aab9ab6df5af3f40e3c19fce082b57b72f145c4fec310fa2c9f4b25421036241aa149aaa06785b063cf31f1f63b7c11057f48cfabeaf04be1d79ce5ce0ac53aeffffffff75785600780accfa0c577ca53d71294a603d3e700ca0ea634b0240c942eff6b904000000fc00473044022030989596ad76ea669cca14e30389550420550d359d23535291f1e7c7e2c91f0a02202c11c112c75b444699a30726a5a14c630da3981002244a68cb98f480f1287ffe0147304402200df120781041dd9c2cc643033b70b510a15837433cd2bb46c0dc76b40eccfa220220196712a801aa61d7fe2ddbdd6bdcbbf0cde7de92b9943282f787053808b86432014c69522102a85900814b1bcf8904b9a83bfa0bb46726fcb93e71786608ed282b3283a7dc602103750ac1c7e50906b552fad4c0c52e91c7ce03132c3a2a162555f508191a7c70822103a1dc0b9a1dcb57d3c39d8d67a2cf40ee499ad2c7b498e1ebab9e1bd92712e3f453aeffffffffe855aa565ab3321655807981d37343c1573053e8429aef09579bc7cc521ffcef04000000fdfd0000483045022100a40d240fe7ee41bcd17e54d9b1d04247c3f84d965ea88cffbb9352cab8de88b3022076ab2d3058634297f24704945470fb596bc0491fb6f0656cf645fa6f4fbabfcd01473044022051e5c0718f46b8688b11380a02e0645a9f480ae71c60c2d2fe4f80a7bd2ba14a0220578a89fba7742a1294c81044867c2f0616ef549533fec40b5b1c2767faac473e014c695221027a092e4c7350c63458c96de271d3dea438cb550c3a2841170525376a56d3edab21030ce3e1fa9175d1a604376bcb9a03978d9587190f6a1610a6fef622a88a9c45792103b7526e70ec58ca14e17414a8ecec12e8d9f03cec65cb16698d82fcca83162ee853aeffffffffa6a11867336a477e988c56039c41d3b9747d9a040f0d061168674a47163a029816000000fdfe00004830450221008a9a2c6b4b8d8d30e99b97b5b235371f641b1946cc7b03428542e51035196be9022051a208cdcf837244da6db7a162853fcee0c369ce333f01b35564871ddc0798be014830450221008a7e0dd5e23f5c293f8469f326bc865ace0ff314252ed95f4645c96d4bd60ac102206d8508bbf9f4bda9a687a7fff5c783076141a0a6bdd00d31295cffbeae09028f014c69522102ac4c3ac197ba9ac94144e78fa9d84628b6bf6d27c169228e422ced899bf409ae21033bfd7c7fa3e3abc0ff40370d8966ea4941d4817f4ef084b0c07d144adbe86f682103afe915459b6a27d9f323c2b22753ec9f581a0726744a9b31d56817db49cecd8853aeffffffffb6aa51348894b6ba4b1cb438b74374a608eb39825cfa769a769a9ad08eff0e6205000000fdfe0000483045022100a8a3d722fb0407d2647713a9e3daa1d9cf1dd447a35af2962ffde49cc1ba2d43022059c378555a958738c2ab5e73555ecd518db44035ed79035c2dbdcc44e4a058fa01483045022100eb152a94797e72ef8f6c33480592509167ff1bef475126467e0a203ddac0663a022045834b607d8862dd06dbd9b93bd40836167d52fd3bc76c72635e3dafc65b7434014c69522102f8c0c23e6f11c3789254a4aa71dd2c80278e3bbea46f8ad9b35631643f620697210335501ce0726f210b6e14b3b71062ddfbde97496640b25bb3166d9a0f903e58a82103c5a0594cc40005f91c03b9f4d111c792cb49dbd3bdcf5ef79640d7492fa36b5a53aeffffffff993a85e02f59da1370d1141ae2eeedcfb5103a185fd8e73bcce7f90ea84829a01d000000fdfe00004830450221008aabb428656fb51c4bb28f23f9763825c2a8f7476d82b5da7b6bb046610ccb730220653f3e21d7c24e322e97e0abcf0605cbc56cc5546bb5455aa9a1e933566f8b840148304502210086a5d66358873837e5a4beb2128f0ff3a3f69f0d26a7616890bb58190bce117a02200336468b200e12dbfbacdeeb939d90659fce644c8834a53f817a0107d9c66754014c6952210242fbaa9d5a0f1fe08a0fd068052a3ec0a1366cb171114632da1f21beccdd8aea21029a533bf8d5723dfd826789cedb117abee91d2878b7e644cab378af75bb444dfb210378c1e87730b127603d1181b92c2273a99263b68e805061bcf7a1fa89ec535ea653aeffffffff6f05419a4977c1822e7539416948cca5f0c4d3b93950b5aa87c86b5d1fbf976000000000fdfd00004830450221008dde790bae372a6fb49cb879f59016236e71719010f6ffae196f9cf0e19bbee80220343e3ee355fa51a1d4c1d87207c7fea488847b2f1e8d30895503731831e362f30147304402202b083bd5d243cc391bdc422bcf7806f2e12cc617f0c0e37c3b84a597a11ee518022067870e69184a773498b1502a180c9c201b6b882a9aa18d8e6238f8bf7b0a18b5014c695221031ce910ed86574898498cf4704468380c2c1892fb39d41877ce2b106b016083aa210369fbc8755b402559219c99914bf46b9f80660835417b3e46980ecde23c24816d21036cdd0a844c45ddeb9f85618c6c3acf8824dbd0dd41dca478d1edb8d3073c5f7253aeffffffff22405689057290c3be3b0e93de90c17247fdc45255dfa698bbff166943d27fbd04000000fdfd0000473044022039175888187d84a005fdd33163e91685e9608062966b65602f8d74241fe53b150220046e7798b3c868d1eb18eb5aa44e09fa0c4e54be14b51d65d2a41440559a97e1014830450221008c1d35c3234a3ad967442ea232a954d0e1b231c86e43623a5e0df0d04d2ffebb022069cc030f463116bee683f3f9364f36a12fe28f1ff365e3311868f26bfab81356014c6952210257849a2a2bcc3997337dd821a66d5079bab14a2e3845df814e0cceaf0b86e62821027094fe8787958a882416196712d88c17ff5f91329d4503c21ea58c50395c0ba12103a390d283078fd96570566dc8cc0e3b82dd52ea5ff86b8bf94e5f9a940fd562f953aeffffffffce1b12268953c1d142ca6514c104088e4f652ef0e3cd85496c436d1d24ccaaf100000000fc00473044022064af7bd213991010bd46c7df8bc4ed8c14367d5fd3ae08b1e6919a447fc222d0022024eb46d7cac9191035923232b83afe63bd9f3476668037a09d3ec78114a0e29001473044022010d491230102c89959489d5eaec5f908828455c0f0b0a3c3e9387b8e19cbe6af022022b5132f97c66b3d89d5e15698decefd7dd3d18674087b56d6b08d6f52a826e9014c69522102bdb0c7ea8cf2f9145a4596bc31cc3eb02e24580e8ad405693f3594f1ad696ef321034e788bf70fa578f2594e6c4bbad05b149634a3610819e89f3b305605054a876d2103f8ab55e3aaa8b0649b7e8695c6dc0f399da2bc38d3e2c8a27195c36287a21f0453aeffffffff92d6115736dca83d1b1c5eccfe8201c9cafc13a295bfd398f14dc8f9c40c3ffc01000000fdfd000047304402200910919804524e72f261c3a97716f331ecdb899b0c4ceffd8b795f92d3f2cec20220214af2f9017e26bc42dd21104e222bf044fdfc8284ebfbccd1be0aea6410f0a401483045022100831a0d5a47dce848052def3a1fcc3010e9ccfb07122754dde399ceb3c82b340802201664cf05d1b90159a2d68371893f389e713729ae255ebe9902aa941c38f82ac6014c695221021bb50c79a8af46366c46628f7b05ef064bcecee175c5b9afcd116b5770cb641921029463d7cf00bcd1a4b903560991f00e57583f3cb9d7aa9d520c19ee17d5ce156c2102a45e2a4d3115c833cd6b9998069f4d82ed61dd8905a4e4dfea8624bcf82bc67e53aeffffffff2bc143504e65ce158b0910739d76330d58a5945a0a8cb17a3e9452905afe1dcf00000000fdfe0000483045022100a052b09275c1cffdf271552aba870453d02b0dc9bf128a0290936de0d41e3911022071407311b012f871ac5be0e0e7bc0e2bf2e481ea1a40e591c25e6d3060bf51f601483045022100fe183945ce625cb9c387accfcf7465213dfa5ba8d2aab6adf8ba737e44e5b357022071d4527e4d1ca17dc76f6b3b2ee9c8745fe094ead8748438828c16d643598410014c6952210265fe33e9ff4ce7e3c61a6893612fefc87cde38fbf4a39049a9a358a28e8f3b1821035090b08de64f925bdf6a8208923fd16daf5283c32bf186a4e70702a128735b6d2103b89a292e8964642dd377958203a3003a7750ae5e7dbffa8c512a9c2a401e445553aeffffffff993a85e02f59da1370d1141ae2eeedcfb5103a185fd8e73bcce7f90ea84829a01c000000fdfe0000483045022100d3d837d9ceac7da13d09d91797591b7b55cb76b116a271d81256d98d6f2712100220143d2ca1a38ddc5d8ae67e266521f85b7bcf5faedd45bffedca45a479bce106701483045022100872e3d601ba229e084ba1cb7e1f25f2dbba184781ec6a6153dcd5ed222a7ff9c02205e7752d2d0dc3a039f63f8fbd48c00314a3ac7d402de576a2e286f0a20f5925c014c695221024d20a1dae76a3fd377431091c74b822842a1142b07ccf679bf513c6975b2c95c210312f8a9b188ee1547e91bc61b92c59994623895d382e5e6bf49afa5b77bde80bb210351fdf0bab815d97f53d15ee9306c411f0884e4c4ddc8f9f04385a17cd4c18b2953aeffffffff181756556180634d11280ef289ddc78deab035478dd78857d6cb680520fee43401000000fdfd000047304402207bed99047b92fdcaad322cfb8cb7dd71f545812207334d03dcfdae43ee715138022050c64f39ebae31875242d7470f980e34df674d5ab54bb649dd31f79796385a7e0148304502210088d52e461fca50b9d6c52551af7581292d090ae04d68c021a712cf9a62d1d23302205f732342f2a76340f3985e24dc14804304aa58424d4baa72e6d3d34bfaae2ba9014c69522102f26a7e10ff06f7b62535fd1c71ed1cf79d186c37df07a5a117040e0938285e53210373d52e06d237c199fccda5d054aaa0912885e92d11f5940c4bf165882f7ab98c2103dcaa4ad2fb8d378d7bd48ce48b32b056abca889747fc64e663e658d00d18dd2453aeffffffff0200ca9a3b0000000017a9142a5c293cd2b94daf77a549eea9cf911a1b852cbe87994003000000000017a914a6fc3ba2b4cdc602027aa13a5ecbedd6e3ae451a87040047304402200682d1e7ee590566bc1d5ca05d2a43ed9ba6dd9e1a983be9790f1630949d360002204827f3c8f87551e29ca3c13d69d6477b103c466c6c3929ca77eec072c918982e01473044022013edb56226396f61dc4bd7fda6a42c750fdfc73671957c6556e5f6efa4bf372402205a24f1cb5ded61d3f5cfb146207471d107e086ddd2f20a26b75314df421e8d83016952210253110a057e1cec9b1fb1a36a26ff3b672557685cd523c57984be5e7633b11b66210296ee684e85fef3d3210e25eb00883feb5280dfcc3b6a582b6fb0db847f54b31d210315dd8faac43c4444362341b88f66a27f85466b50e102ca1c24c6cca09d980fd353ae0000000000000000000000000000000000", "vin": [{"txinwitness": ["", "304402200682d1e7ee590566bc1d5ca05d2a43ed9ba6dd9e1a983be9790f1630949d360002204827f3c8f87551e29ca3c13d69d6477b103c466c6c3929ca77eec072c918982e01", "3044022013edb56226396f61dc4bd7fda6a42c750fdfc73671957c6556e5f6efa4bf372402205a24f1cb5ded61d3f5cfb146207471d107e086ddd2f20a26b75314df421e8d8301", "52210253110a057e1cec9b1fb1a36a26ff3b672557685cd523c57984be5e7633b11b66210296ee684e85fef3d3210e25eb00883feb5280dfcc3b6a582b6fb0db847f54b31d210315dd8faac43c4444362341b88f66a27f85466b50e102ca1c24c6cca09d980fd353ae"], "sequence": 4294967295, "scriptSig": {"hex": "220020d95b5aeb24258a5fb01b5254f026ff97af9ff03c09d2746343890eab87f5d09b", "asm": "0020d95b5aeb24258a5fb01b5254f026ff97af9ff03c09d2746343890eab87f5d09b"}, "vout": 0, "txid": "2f449b200088c3b511c8a9d5e9c586eadbc665457e66c7f49ea466a6ff9015b4"}, {"sequence": 4294967295, "scriptSig": {"hex": "0047304402207a34a045c9234c8e8cb1a7006e7bc81e98ae3c6b7e3442d7c0feac45e068b3b50220382e9fa2217235bdeae8502528aabd8c414fd5b007fd1b0ff6b334202086a3750147304402202e236b5fece830b9269fefcd589f4b2a1ef40a7d48298d9d1872ca3267df7ae302206476ee42d8778d24babf5d199d8f6221d68a888cbb09107f2089b6ec83a84130014c6952210248d05a61db914f0f35c33d63a18122ac9439c80d7ca1eeb8dfcbf1f95b80297c21027aae7c30aab9ab6df5af3f40e3c19fce082b57b72f145c4fec310fa2c9f4b25421036241aa149aaa06785b063cf31f1f63b7c11057f48cfabeaf04be1d79ce5ce0ac53ae", "asm": "0 304402207a34a045c9234c8e8cb1a7006e7bc81e98ae3c6b7e3442d7c0feac45e068b3b50220382e9fa2217235bdeae8502528aabd8c414fd5b007fd1b0ff6b334202086a375[ALL] 304402202e236b5fece830b9269fefcd589f4b2a1ef40a7d48298d9d1872ca3267df7ae302206476ee42d8778d24babf5d199d8f6221d68a888cbb09107f2089b6ec83a84130[ALL] 52210248d05a61db914f0f35c33d63a18122ac9439c80d7ca1eeb8dfcbf1f95b80297c21027aae7c30aab9ab6df5af3f40e3c19fce082b57b72f145c4fec310fa2c9f4b25421036241aa149aaa06785b063cf31f1f63b7c11057f48cfabeaf04be1d79ce5ce0ac53ae"}, "vout": 0, "txid": "482c74f0a8fcad1a75ee7da8d97069f33d2e5a273c8a7ab03f9752e2f2fa1496"}, {"sequence": 4294967295, "scriptSig": {"hex": "00473044022030989596ad76ea669cca14e30389550420550d359d23535291f1e7c7e2c91f0a02202c11c112c75b444699a30726a5a14c630da3981002244a68cb98f480f1287ffe0147304402200df120781041dd9c2cc643033b70b510a15837433cd2bb46c0dc76b40eccfa220220196712a801aa61d7fe2ddbdd6bdcbbf0cde7de92b9943282f787053808b86432014c69522102a85900814b1bcf8904b9a83bfa0bb46726fcb93e71786608ed282b3283a7dc602103750ac1c7e50906b552fad4c0c52e91c7ce03132c3a2a162555f508191a7c70822103a1dc0b9a1dcb57d3c39d8d67a2cf40ee499ad2c7b498e1ebab9e1bd92712e3f453ae", "asm": "0 3044022030989596ad76ea669cca14e30389550420550d359d23535291f1e7c7e2c91f0a02202c11c112c75b444699a30726a5a14c630da3981002244a68cb98f480f1287ffe[ALL] 304402200df120781041dd9c2cc643033b70b510a15837433cd2bb46c0dc76b40eccfa220220196712a801aa61d7fe2ddbdd6bdcbbf0cde7de92b9943282f787053808b86432[ALL] 522102a85900814b1bcf8904b9a83bfa0bb46726fcb93e71786608ed282b3283a7dc602103750ac1c7e50906b552fad4c0c52e91c7ce03132c3a2a162555f508191a7c70822103a1dc0b9a1dcb57d3c39d8d67a2cf40ee499ad2c7b498e1ebab9e1bd92712e3f453ae"}, "vout": 4, "txid": "b9f6ef42c940024b63eaa00c703e3d604a29713da57c570cfacc0a7800567875"}, {"sequence": 4294967295, "scriptSig": {"hex": "00483045022100a40d240fe7ee41bcd17e54d9b1d04247c3f84d965ea88cffbb9352cab8de88b3022076ab2d3058634297f24704945470fb596bc0491fb6f0656cf645fa6f4fbabfcd01473044022051e5c0718f46b8688b11380a02e0645a9f480ae71c60c2d2fe4f80a7bd2ba14a0220578a89fba7742a1294c81044867c2f0616ef549533fec40b5b1c2767faac473e014c695221027a092e4c7350c63458c96de271d3dea438cb550c3a2841170525376a56d3edab21030ce3e1fa9175d1a604376bcb9a03978d9587190f6a1610a6fef622a88a9c45792103b7526e70ec58ca14e17414a8ecec12e8d9f03cec65cb16698d82fcca83162ee853ae", "asm": "0 3045022100a40d240fe7ee41bcd17e54d9b1d04247c3f84d965ea88cffbb9352cab8de88b3022076ab2d3058634297f24704945470fb596bc0491fb6f0656cf645fa6f4fbabfcd[ALL] 3044022051e5c0718f46b8688b11380a02e0645a9f480ae71c60c2d2fe4f80a7bd2ba14a0220578a89fba7742a1294c81044867c2f0616ef549533fec40b5b1c2767faac473e[ALL] 5221027a092e4c7350c63458c96de271d3dea438cb550c3a2841170525376a56d3edab21030ce3e1fa9175d1a604376bcb9a03978d9587190f6a1610a6fef622a88a9c45792103b7526e70ec58ca14e17414a8ecec12e8d9f03cec65cb16698d82fcca83162ee853ae"}, "vout": 4, "txid": "effc1f52ccc79b5709ef9a42e8533057c14373d3817980551632b35a56aa55e8"}, {"sequence": 4294967295, "scriptSig": {"hex": "004830450221008a9a2c6b4b8d8d30e99b97b5b235371f641b1946cc7b03428542e51035196be9022051a208cdcf837244da6db7a162853fcee0c369ce333f01b35564871ddc0798be014830450221008a7e0dd5e23f5c293f8469f326bc865ace0ff314252ed95f4645c96d4bd60ac102206d8508bbf9f4bda9a687a7fff5c783076141a0a6bdd00d31295cffbeae09028f014c69522102ac4c3ac197ba9ac94144e78fa9d84628b6bf6d27c169228e422ced899bf409ae21033bfd7c7fa3e3abc0ff40370d8966ea4941d4817f4ef084b0c07d144adbe86f682103afe915459b6a27d9f323c2b22753ec9f581a0726744a9b31d56817db49cecd8853ae", "asm": "0 30450221008a9a2c6b4b8d8d30e99b97b5b235371f641b1946cc7b03428542e51035196be9022051a208cdcf837244da6db7a162853fcee0c369ce333f01b35564871ddc0798be[ALL] 30450221008a7e0dd5e23f5c293f8469f326bc865ace0ff314252ed95f4645c96d4bd60ac102206d8508bbf9f4bda9a687a7fff5c783076141a0a6bdd00d31295cffbeae09028f[ALL] 522102ac4c3ac197ba9ac94144e78fa9d84628b6bf6d27c169228e422ced899bf409ae21033bfd7c7fa3e3abc0ff40370d8966ea4941d4817f4ef084b0c07d144adbe86f682103afe915459b6a27d9f323c2b22753ec9f581a0726744a9b31d56817db49cecd8853ae"}, "vout": 22, "txid": "98023a16474a676811060d0f049a7d74b9d3419c03568c987e476a336718a1a6"}, {"sequence": 4294967295, "scriptSig": {"hex": "00483045022100a8a3d722fb0407d2647713a9e3daa1d9cf1dd447a35af2962ffde49cc1ba2d43022059c378555a958738c2ab5e73555ecd518db44035ed79035c2dbdcc44e4a058fa01483045022100eb152a94797e72ef8f6c33480592509167ff1bef475126467e0a203ddac0663a022045834b607d8862dd06dbd9b93bd40836167d52fd3bc76c72635e3dafc65b7434014c69522102f8c0c23e6f11c3789254a4aa71dd2c80278e3bbea46f8ad9b35631643f620697210335501ce0726f210b6e14b3b71062ddfbde97496640b25bb3166d9a0f903e58a82103c5a0594cc40005f91c03b9f4d111c792cb49dbd3bdcf5ef79640d7492fa36b5a53ae", "asm": "0 3045022100a8a3d722fb0407d2647713a9e3daa1d9cf1dd447a35af2962ffde49cc1ba2d43022059c378555a958738c2ab5e73555ecd518db44035ed79035c2dbdcc44e4a058fa[ALL] 3045022100eb152a94797e72ef8f6c33480592509167ff1bef475126467e0a203ddac0663a022045834b607d8862dd06dbd9b93bd40836167d52fd3bc76c72635e3dafc65b7434[ALL] 522102f8c0c23e6f11c3789254a4aa71dd2c80278e3bbea46f8ad9b35631643f620697210335501ce0726f210b6e14b3b71062ddfbde97496640b25bb3166d9a0f903e58a82103c5a0594cc40005f91c03b9f4d111c792cb49dbd3bdcf5ef79640d7492fa36b5a53ae"}, "vout": 5, "txid": "620eff8ed09a9a769a76fa5c8239eb08a67443b738b41c4bbab694883451aab6"}, {"sequence": 4294967295, "scriptSig": {"hex": "004830450221008aabb428656fb51c4bb28f23f9763825c2a8f7476d82b5da7b6bb046610ccb730220653f3e21d7c24e322e97e0abcf0605cbc56cc5546bb5455aa9a1e933566f8b840148304502210086a5d66358873837e5a4beb2128f0ff3a3f69f0d26a7616890bb58190bce117a02200336468b200e12dbfbacdeeb939d90659fce644c8834a53f817a0107d9c66754014c6952210242fbaa9d5a0f1fe08a0fd068052a3ec0a1366cb171114632da1f21beccdd8aea21029a533bf8d5723dfd826789cedb117abee91d2878b7e644cab378af75bb444dfb210378c1e87730b127603d1181b92c2273a99263b68e805061bcf7a1fa89ec535ea653ae", "asm": "0 30450221008aabb428656fb51c4bb28f23f9763825c2a8f7476d82b5da7b6bb046610ccb730220653f3e21d7c24e322e97e0abcf0605cbc56cc5546bb5455aa9a1e933566f8b84[ALL] 304502210086a5d66358873837e5a4beb2128f0ff3a3f69f0d26a7616890bb58190bce117a02200336468b200e12dbfbacdeeb939d90659fce644c8834a53f817a0107d9c66754[ALL] 52210242fbaa9d5a0f1fe08a0fd068052a3ec0a1366cb171114632da1f21beccdd8aea21029a533bf8d5723dfd826789cedb117abee91d2878b7e644cab378af75bb444dfb210378c1e87730b127603d1181b92c2273a99263b68e805061bcf7a1fa89ec535ea653ae"}, "vout": 29, "txid": "a02948a80ef9e7cc3be7d85f183a10b5cfedeee21a14d17013da592fe0853a99"}, {"sequence": 4294967295, "scriptSig": {"hex": "004830450221008dde790bae372a6fb49cb879f59016236e71719010f6ffae196f9cf0e19bbee80220343e3ee355fa51a1d4c1d87207c7fea488847b2f1e8d30895503731831e362f30147304402202b083bd5d243cc391bdc422bcf7806f2e12cc617f0c0e37c3b84a597a11ee518022067870e69184a773498b1502a180c9c201b6b882a9aa18d8e6238f8bf7b0a18b5014c695221031ce910ed86574898498cf4704468380c2c1892fb39d41877ce2b106b016083aa210369fbc8755b402559219c99914bf46b9f80660835417b3e46980ecde23c24816d21036cdd0a844c45ddeb9f85618c6c3acf8824dbd0dd41dca478d1edb8d3073c5f7253ae", "asm": "0 30450221008dde790bae372a6fb49cb879f59016236e71719010f6ffae196f9cf0e19bbee80220343e3ee355fa51a1d4c1d87207c7fea488847b2f1e8d30895503731831e362f3[ALL] 304402202b083bd5d243cc391bdc422bcf7806f2e12cc617f0c0e37c3b84a597a11ee518022067870e69184a773498b1502a180c9c201b6b882a9aa18d8e6238f8bf7b0a18b5[ALL] 5221031ce910ed86574898498cf4704468380c2c1892fb39d41877ce2b106b016083aa210369fbc8755b402559219c99914bf46b9f80660835417b3e46980ecde23c24816d21036cdd0a844c45ddeb9f85618c6c3acf8824dbd0dd41dca478d1edb8d3073c5f7253ae"}, "vout": 0, "txid": "6097bf1f5d6bc887aab55039b9d3c4f0a5cc48694139752e82c177499a41056f"}, {"sequence": 4294967295, "scriptSig": {"hex": "00473044022039175888187d84a005fdd33163e91685e9608062966b65602f8d74241fe53b150220046e7798b3c868d1eb18eb5aa44e09fa0c4e54be14b51d65d2a41440559a97e1014830450221008c1d35c3234a3ad967442ea232a954d0e1b231c86e43623a5e0df0d04d2ffebb022069cc030f463116bee683f3f9364f36a12fe28f1ff365e3311868f26bfab81356014c6952210257849a2a2bcc3997337dd821a66d5079bab14a2e3845df814e0cceaf0b86e62821027094fe8787958a882416196712d88c17ff5f91329d4503c21ea58c50395c0ba12103a390d283078fd96570566dc8cc0e3b82dd52ea5ff86b8bf94e5f9a940fd562f953ae", "asm": "0 3044022039175888187d84a005fdd33163e91685e9608062966b65602f8d74241fe53b150220046e7798b3c868d1eb18eb5aa44e09fa0c4e54be14b51d65d2a41440559a97e1[ALL] 30450221008c1d35c3234a3ad967442ea232a954d0e1b231c86e43623a5e0df0d04d2ffebb022069cc030f463116bee683f3f9364f36a12fe28f1ff365e3311868f26bfab81356[ALL] 52210257849a2a2bcc3997337dd821a66d5079bab14a2e3845df814e0cceaf0b86e62821027094fe8787958a882416196712d88c17ff5f91329d4503c21ea58c50395c0ba12103a390d283078fd96570566dc8cc0e3b82dd52ea5ff86b8bf94e5f9a940fd562f953ae"}, "vout": 4, "txid": "bd7fd2436916ffbb98a6df5552c4fd4772c190de930e3bbec390720589564022"}, {"sequence": 4294967295, "scriptSig": {"hex": "00473044022064af7bd213991010bd46c7df8bc4ed8c14367d5fd3ae08b1e6919a447fc222d0022024eb46d7cac9191035923232b83afe63bd9f3476668037a09d3ec78114a0e29001473044022010d491230102c89959489d5eaec5f908828455c0f0b0a3c3e9387b8e19cbe6af022022b5132f97c66b3d89d5e15698decefd7dd3d18674087b56d6b08d6f52a826e9014c69522102bdb0c7ea8cf2f9145a4596bc31cc3eb02e24580e8ad405693f3594f1ad696ef321034e788bf70fa578f2594e6c4bbad05b149634a3610819e89f3b305605054a876d2103f8ab55e3aaa8b0649b7e8695c6dc0f399da2bc38d3e2c8a27195c36287a21f0453ae", "asm": "0 3044022064af7bd213991010bd46c7df8bc4ed8c14367d5fd3ae08b1e6919a447fc222d0022024eb46d7cac9191035923232b83afe63bd9f3476668037a09d3ec78114a0e290[ALL] 3044022010d491230102c89959489d5eaec5f908828455c0f0b0a3c3e9387b8e19cbe6af022022b5132f97c66b3d89d5e15698decefd7dd3d18674087b56d6b08d6f52a826e9[ALL] 522102bdb0c7ea8cf2f9145a4596bc31cc3eb02e24580e8ad405693f3594f1ad696ef321034e788bf70fa578f2594e6c4bbad05b149634a3610819e89f3b305605054a876d2103f8ab55e3aaa8b0649b7e8695c6dc0f399da2bc38d3e2c8a27195c36287a21f0453ae"}, "vout": 0, "txid": "f1aacc241d6d436c4985cde3f02e654f8e0804c11465ca42d1c1538926121bce"}, {"sequence": 4294967295, "scriptSig": {"hex": "0047304402200910919804524e72f261c3a97716f331ecdb899b0c4ceffd8b795f92d3f2cec20220214af2f9017e26bc42dd21104e222bf044fdfc8284ebfbccd1be0aea6410f0a401483045022100831a0d5a47dce848052def3a1fcc3010e9ccfb07122754dde399ceb3c82b340802201664cf05d1b90159a2d68371893f389e713729ae255ebe9902aa941c38f82ac6014c695221021bb50c79a8af46366c46628f7b05ef064bcecee175c5b9afcd116b5770cb641921029463d7cf00bcd1a4b903560991f00e57583f3cb9d7aa9d520c19ee17d5ce156c2102a45e2a4d3115c833cd6b9998069f4d82ed61dd8905a4e4dfea8624bcf82bc67e53ae", "asm": "0 304402200910919804524e72f261c3a97716f331ecdb899b0c4ceffd8b795f92d3f2cec20220214af2f9017e26bc42dd21104e222bf044fdfc8284ebfbccd1be0aea6410f0a4[ALL] 3045022100831a0d5a47dce848052def3a1fcc3010e9ccfb07122754dde399ceb3c82b340802201664cf05d1b90159a2d68371893f389e713729ae255ebe9902aa941c38f82ac6[ALL] 5221021bb50c79a8af46366c46628f7b05ef064bcecee175c5b9afcd116b5770cb641921029463d7cf00bcd1a4b903560991f00e57583f3cb9d7aa9d520c19ee17d5ce156c2102a45e2a4d3115c833cd6b9998069f4d82ed61dd8905a4e4dfea8624bcf82bc67e53ae"}, "vout": 1, "txid": "fc3f0cc4f9c84df198d3bf95a213fccac90182fecc5e1c1b3da8dc365711d692"}, {"sequence": 4294967295, "scriptSig": {"hex": "00483045022100a052b09275c1cffdf271552aba870453d02b0dc9bf128a0290936de0d41e3911022071407311b012f871ac5be0e0e7bc0e2bf2e481ea1a40e591c25e6d3060bf51f601483045022100fe183945ce625cb9c387accfcf7465213dfa5ba8d2aab6adf8ba737e44e5b357022071d4527e4d1ca17dc76f6b3b2ee9c8745fe094ead8748438828c16d643598410014c6952210265fe33e9ff4ce7e3c61a6893612fefc87cde38fbf4a39049a9a358a28e8f3b1821035090b08de64f925bdf6a8208923fd16daf5283c32bf186a4e70702a128735b6d2103b89a292e8964642dd377958203a3003a7750ae5e7dbffa8c512a9c2a401e445553ae", "asm": "0 3045022100a052b09275c1cffdf271552aba870453d02b0dc9bf128a0290936de0d41e3911022071407311b012f871ac5be0e0e7bc0e2bf2e481ea1a40e591c25e6d3060bf51f6[ALL] 3045022100fe183945ce625cb9c387accfcf7465213dfa5ba8d2aab6adf8ba737e44e5b357022071d4527e4d1ca17dc76f6b3b2ee9c8745fe094ead8748438828c16d643598410[ALL] 52210265fe33e9ff4ce7e3c61a6893612fefc87cde38fbf4a39049a9a358a28e8f3b1821035090b08de64f925bdf6a8208923fd16daf5283c32bf186a4e70702a128735b6d2103b89a292e8964642dd377958203a3003a7750ae5e7dbffa8c512a9c2a401e445553ae"}, "vout": 0, "txid": "cf1dfe5a9052943e7ab18c0a5a94a5580d33769d7310098b15ce654e5043c12b"}, {"sequence": 4294967295, "scriptSig": {"hex": "00483045022100d3d837d9ceac7da13d09d91797591b7b55cb76b116a271d81256d98d6f2712100220143d2ca1a38ddc5d8ae67e266521f85b7bcf5faedd45bffedca45a479bce106701483045022100872e3d601ba229e084ba1cb7e1f25f2dbba184781ec6a6153dcd5ed222a7ff9c02205e7752d2d0dc3a039f63f8fbd48c00314a3ac7d402de576a2e286f0a20f5925c014c695221024d20a1dae76a3fd377431091c74b822842a1142b07ccf679bf513c6975b2c95c210312f8a9b188ee1547e91bc61b92c59994623895d382e5e6bf49afa5b77bde80bb210351fdf0bab815d97f53d15ee9306c411f0884e4c4ddc8f9f04385a17cd4c18b2953ae", "asm": "0 3045022100d3d837d9ceac7da13d09d91797591b7b55cb76b116a271d81256d98d6f2712100220143d2ca1a38ddc5d8ae67e266521f85b7bcf5faedd45bffedca45a479bce1067[ALL] 3045022100872e3d601ba229e084ba1cb7e1f25f2dbba184781ec6a6153dcd5ed222a7ff9c02205e7752d2d0dc3a039f63f8fbd48c00314a3ac7d402de576a2e286f0a20f5925c[ALL] 5221024d20a1dae76a3fd377431091c74b822842a1142b07ccf679bf513c6975b2c95c210312f8a9b188ee1547e91bc61b92c59994623895d382e5e6bf49afa5b77bde80bb210351fdf0bab815d97f53d15ee9306c411f0884e4c4ddc8f9f04385a17cd4c18b2953ae"}, "vout": 28, "txid": "a02948a80ef9e7cc3be7d85f183a10b5cfedeee21a14d17013da592fe0853a99"}, {"sequence": 4294967295, "scriptSig": {"hex": "0047304402207bed99047b92fdcaad322cfb8cb7dd71f545812207334d03dcfdae43ee715138022050c64f39ebae31875242d7470f980e34df674d5ab54bb649dd31f79796385a7e0148304502210088d52e461fca50b9d6c52551af7581292d090ae04d68c021a712cf9a62d1d23302205f732342f2a76340f3985e24dc14804304aa58424d4baa72e6d3d34bfaae2ba9014c69522102f26a7e10ff06f7b62535fd1c71ed1cf79d186c37df07a5a117040e0938285e53210373d52e06d237c199fccda5d054aaa0912885e92d11f5940c4bf165882f7ab98c2103dcaa4ad2fb8d378d7bd48ce48b32b056abca889747fc64e663e658d00d18dd2453ae", "asm": "0 304402207bed99047b92fdcaad322cfb8cb7dd71f545812207334d03dcfdae43ee715138022050c64f39ebae31875242d7470f980e34df674d5ab54bb649dd31f79796385a7e[ALL] 304502210088d52e461fca50b9d6c52551af7581292d090ae04d68c021a712cf9a62d1d23302205f732342f2a76340f3985e24dc14804304aa58424d4baa72e6d3d34bfaae2ba9[ALL] 522102f26a7e10ff06f7b62535fd1c71ed1cf79d186c37df07a5a117040e0938285e53210373d52e06d237c199fccda5d054aaa0912885e92d11f5940c4bf165882f7ab98c2103dcaa4ad2fb8d378d7bd48ce48b32b056abca889747fc64e663e658d00d18dd2453ae"}, "vout": 1, "txid": "34e4fe200568cbd65788d78d4735b0ea8dc7dd89f20e28114d63806155561718"}], "txid": "c530d9fa7090b41af60858357da52d18dadda639d6c25b9abb15174f9eb3004e", "blocktime": 1537873282, "version": 1, "confirmations": 11484, "time": 1537873282, "locktime": 0, "vsize": 4061, "size": 4261}