{"hash": "c535124a76c4061adcb89d3957cfa58d2ab32564920ae3e03c4cda083c8b3bdf", "blockhash": "0000000000000000000e13cef7c366c0283d82e591d1acd082e914b08063cdf1", "vout": [{"scriptPubKey": {"reqSigs": 1, "hex": "76a914f2524ce14b9c441219e8516048a97e79917570c788ac", "addresses": ["1P6H7kSS3nrYcngrvVjsMrRLerNcKmRXZk"], "asm": "OP_DUP OP_HASH160 f2524ce14b9c441219e8516048a97e79917570c7 OP_EQUALVERIFY OP_CHECKSIG", "type": "pubkeyhash"}, "value": 0.01169641, "n": 0}, {"scriptPubKey": {"reqSigs": 1, "hex": "76a91401ae708ae72f9a5475bae7c6f245efc62526a14e88ac", "addresses": ["19teUCyG3XjVCrMB8RfQXdEx2LGmr48Cj"], "asm": "OP_DUP OP_HASH160 01ae708ae72f9a5475bae7c6f245efc62526a14e OP_EQUALVERIFY OP_CHECKSIG", "type": "pubkeyhash"}, "value": 0.0647742, "n": 1}], "hex": "0100000001b0fd19d9fcafb0b4396c23061bf258707c518e6204d9b78e1efbe171632b869c010000006a47304402203dfd26b7142b4379931d35a2b27c8f4d4b8bda8325ad89a2bba2621e66426ed802205bd8b6a6198d356e103a87a982dbd573757f6d87d22ddc9ad4192ba9f9e95a63012103d1d86eeebd603973e15aa65ce685c86f1f3491d000f80b8caa1f3c7ec47dd8abffffffff02e9d81100000000001976a914f2524ce14b9c441219e8516048a97e79917570c788ac6cd66200000000001976a91401ae708ae72f9a5475bae7c6f245efc62526a14e88ac00000000", "vin": [{"sequence": 4294967295, "scriptSig": {"hex": "47304402203dfd26b7142b4379931d35a2b27c8f4d4b8bda8325ad89a2bba2621e66426ed802205bd8b6a6198d356e103a87a982dbd573757f6d87d22ddc9ad4192ba9f9e95a63012103d1d86eeebd603973e15aa65ce685c86f1f3491d000f80b8caa1f3c7ec47dd8ab", "asm": "304402203dfd26b7142b4379931d35a2b27c8f4d4b8bda8325ad89a2bba2621e66426ed802205bd8b6a6198d356e103a87a982dbd573757f6d87d22ddc9ad4192ba9f9e95a63[ALL] 03d1d86eeebd603973e15aa65ce685c86f1f3491d000f80b8caa1f3c7ec47dd8ab"}, "vout": 1, "txid": "9c862b6371e1fb1e8eb7d904628e517c7058f21b06236c39b4b0affcd919fdb0"}], "txid": "c535124a76c4061adcb89d3957cfa58d2ab32564920ae3e03c4cda083c8b3bdf", "blocktime": 1537871767, "version": 1, "confirmations": 11491, "time": 1537871767, "locktime": 0, "vsize": 225, "size": 225}