{"hash": "c53f2302f2a3fe6d4536fb1cd132e00c6f0c9a95b0b2bb210722fbf4c6475aa8", "blockhash": "00000000000000000024a2167bbff67b0be802c0b01cdd79e6331c2be6459f87", "vout": [{"scriptPubKey": {"reqSigs": 1, "hex": "a914858cc5dc6be4a5ea33cbd61214978be944a8f06787", "addresses": ["3DsAS8TXRYxcnwdYGYcaxL7iAriDmTqdtP"], "asm": "OP_HASH160 858cc5dc6be4a5ea33cbd61214978be944a8f067 OP_EQUAL", "type": "scripthash"}, "value": 0.00187151, "n": 0}, {"scriptPubKey": {"reqSigs": 1, "hex": "76a91438fef4667087c029cefdfed06ffb3657af38ed9d88ac", "addresses": ["16CNGJgKCqoSUYjjYyfC9cqezgSqAmcxto"], "asm": "OP_DUP OP_HASH160 38fef4667087c029cefdfed06ffb3657af38ed9d OP_EQUALVERIFY OP_CHECKSIG", "type": "pubkeyhash"}, "value": 0.01123231, "n": 1}], "hex": "0100000001999926fc3e6e63438d97efa315701957c183566d8621d8fd32c287c6bd14e7f8000000006b483045022100e90f19c5936ed0919bc4a8fb8e84108920a0736e92d3654c054d1b81b1ade80c022075871ca46be17b0d2a378964082e24082fedd17e7b45d8535971ea596b9b4e4b0121028b4050ec9d4bf335aeca55fe96cedb9f9f61340b8068abda47c156fbdec5bf3bffffffff020fdb02000000000017a914858cc5dc6be4a5ea33cbd61214978be944a8f067879f231100000000001976a91438fef4667087c029cefdfed06ffb3657af38ed9d88ac00000000", "vin": [{"sequence": 4294967295, "scriptSig": {"hex": "483045022100e90f19c5936ed0919bc4a8fb8e84108920a0736e92d3654c054d1b81b1ade80c022075871ca46be17b0d2a378964082e24082fedd17e7b45d8535971ea596b9b4e4b0121028b4050ec9d4bf335aeca55fe96cedb9f9f61340b8068abda47c156fbdec5bf3b", "asm": "3045022100e90f19c5936ed0919bc4a8fb8e84108920a0736e92d3654c054d1b81b1ade80c022075871ca46be17b0d2a378964082e24082fedd17e7b45d8535971ea596b9b4e4b[ALL] 028b4050ec9d4bf335aeca55fe96cedb9f9f61340b8068abda47c156fbdec5bf3b"}, "vout": 0, "txid": "f8e714bdc687c232fdd821866d5683c157197015a3ef978d43636e3efc269999"}], "txid": "c53f2302f2a3fe6d4536fb1cd132e00c6f0c9a95b0b2bb210722fbf4c6475aa8", "blocktime": 1537870564, "version": 1, "confirmations": 11515, "time": 1537870564, "locktime": 0, "vsize": 224, "size": 224}