{"hash": "c54143683265000c3db9151c1ee0ac4ab52eed7120180b86a2024ec0d5c34160", "blockhash": "00000000000000000018f53835495a110e01622372bf6ae95dc86f2b0ab887b0", "vout": [{"scriptPubKey": {"reqSigs": 1, "hex": "a9145daead39d0bd0524ea715e3ddf8a126317fdc8fe87", "addresses": ["3AEN28a3n3H29tumJvtf5TyWsqTjMjX7T9"], "asm": "OP_HASH160 5daead39d0bd0524ea715e3ddf8a126317fdc8fe OP_EQUAL", "type": "scripthash"}, "value": 0.00748059, "n": 0}, {"scriptPubKey": {"reqSigs": 1, "hex": "76a9142494a76eab00ba4df50721063b6157cd4d6aa52c88ac", "addresses": ["14LRQa1b9dxLrEfcw7PX6LVfEEFECeXft4"], "asm": "OP_DUP OP_HASH160 2494a76eab00ba4df50721063b6157cd4d6aa52c OP_EQUALVERIFY OP_CHECKSIG", "type": "pubkeyhash"}, "value": 0.00435462, "n": 1}, {"scriptPubKey": {"reqSigs": 1, "hex": "76a9144b93a87f16b34d50ab21096f4a7aba2c940314a388ac", "addresses": ["17tcZrmkGmUBDhkJb5zjatd31wbUj6tTN6"], "asm": "OP_DUP OP_HASH160 4b93a87f16b34d50ab21096f4a7aba2c940314a3 OP_EQUALVERIFY OP_CHECKSIG", "type": "pubkeyhash"}, "value": 0.00995533, "n": 2}, {"scriptPubKey": {"reqSigs": 1, "hex": "a914ef3a0af8570861b2cde302454b3892b11615a71287", "addresses": ["3PVvxH9jCBefR8KkdHWU61CReqhwKLdDsM"], "asm": "OP_HASH160 ef3a0af8570861b2cde302454b3892b11615a712 OP_EQUAL", "type": "scripthash"}, "value": 0.00102847, "n": 3}, {"scriptPubKey": {"reqSigs": 1, "hex": "a91458bb7a35a2a34f5a4615017f4f9ce37587d3638887", "addresses": ["39nByagpjyGdhATfpMbXSuFVdJmc7cZJnF"], "asm": "OP_HASH160 58bb7a35a2a34f5a4615017f4f9ce37587d36388 OP_EQUAL", "type": "scripthash"}, "value": 0.00141964, "n": 4}, {"scriptPubKey": {"reqSigs": 1, "hex": "a9143e2fabbe4bb12ba5acf8813a597c861f2fdec77487", "addresses": ["37MpvffoXzcar9VisGAUexK8Yii4UHkKwM"], "asm": "OP_HASH160 3e2fabbe4bb12ba5acf8813a597c861f2fdec774 OP_EQUAL", "type": "scripthash"}, "value": 0.00278044, "n": 5}, {"scriptPubKey": {"reqSigs": 1, "hex": "a914002f8459ef9537a768b5b4aa66784ecb8f02e97487", "addresses": ["31hzr5k9GFXsxkKAVcanScWbbxt4eixDD4"], "asm": "OP_HASH160 002f8459ef9537a768b5b4aa66784ecb8f02e974 OP_EQUAL", "type": "scripthash"}, "value": 0.0410808, "n": 6}], "hex": "0200000007309f9cc977fc89dfa3ee0be7a9218415e406d058c3277f1a91adfba05a9357f4610000006a47304402207d2c651f3d02f01dba994f9ec79fea43490fdbb1b79472ba743bff440885581a02200db40e06bbbe5aec3ccdee660f831522c6115d9b1023c19028a417e8dab270630121020ba975f368828232acaf68b34b7ecaa51fc7abc9b3dfc5fad3492516e7665ba6feffffff55d08b43473efd146454cfbdb854daa6ca45ad8a798c00475c145d78c3337fb7000000006b483045022100e9e0c3f366ad93979c0477e1bd8312389b3f89c292134aee860ec3cbedfa1b1a02204cc00dad89894dce8b848f27242df0d342bcccac9fe60b44565fd4dc81d519320121029212aea2767d05d7328bc6e8e0fdb3183a38ccd626b106b13182613fd4bc497dfeffffff9a0db6068f93a3971c0f5fe378d0c823efdbffb36a8c61df535048171c0a131a000000006a47304402206c919d87f9aac18f1240ca4b5e40cc3f3755a6bb70756f3182563bfb3b19bc190220397fec4702834f0e41494f68b9cf8038d96227a7057168d2aa5d009de41373ee01210266f683300f9bd88c7fcfb4837d7061a0a3d770c4aee9bdd3ad60db996504fee8feffffffa0d0ad7c51a6d9d796a493c7da730c6adaf2fd3301a33bca135577eed51c6331050000006b483045022100843e29e7c160eb5f47aeb5bf08c34b9e356624a4da109b0592a713849b37e53702206cf469745975a0e2739133e53b7e6737d0280c3c755f3284b2b4339e230992fc0121034571277d52cef81a8940b570d5264481112eefc4b35e5b79f15d54dd94352295feffffffed24bf93b3a1fa87bd0a915faf7bd6d898c4cd9634f8c96ab41bf327cc33f0f6610000006a47304402206bc3f1c963724b909e5c7d948b9cfe58118e407a17bce728e5ce77b824e23bba02201c6fc1bc1a0981175e0a5a4599f3a63f516041f4ecc56b897e600712d0398b21012102af4a9eb30949a349de4a8edfa9028a4944a4d779a160180a0f195328d3e97485fefffffff0390b73e07198b774483a752244ae638f2953d340a1a6bde32eb1832b69a37c010000006b4830450221009abfc38c9c6b8471851dd7f4f5001e3dfebd69f32b4a7c91dd6ea751b1bc4ff702205e3c2ea8d78cf6179af603741ee1521c8c318020e36d54773cebd910ed7c831401210352bdb4f40fb25247db083c253b8cd8751718ea0ad3223c699cc0c9cfddbffc4afefffffff686b7e24630adc2d501fdf100de06865270b3a0713a0dead35d93f46fd77267060000006a473044022007d4958f92bb4c4a173a7d7fdf7f7e01c7190afc84ceb0ecd2fb8ea5320099040220712b5d959650c8f975c8adb14ba0ed39373f1ac1c29df00e81332050adb5509b0121031aaa26a33fb5734f2b433c80eb6f6b6cc6f5291f38505aebf89d05a444311cfbfeffffff071b6a0b000000000017a9145daead39d0bd0524ea715e3ddf8a126317fdc8fe8706a50600000000001976a9142494a76eab00ba4df50721063b6157cd4d6aa52c88accd300f00000000001976a9144b93a87f16b34d50ab21096f4a7aba2c940314a388acbf9101000000000017a914ef3a0af8570861b2cde302454b3892b11615a712878c2a02000000000017a91458bb7a35a2a34f5a4615017f4f9ce37587d36388871c3e04000000000017a9143e2fabbe4bb12ba5acf8813a597c861f2fdec7748730af3e000000000017a914002f8459ef9537a768b5b4aa66784ecb8f02e974870e490800", "vin": [{"sequence": 4294967294, "scriptSig": {"hex": "47304402207d2c651f3d02f01dba994f9ec79fea43490fdbb1b79472ba743bff440885581a02200db40e06bbbe5aec3ccdee660f831522c6115d9b1023c19028a417e8dab270630121020ba975f368828232acaf68b34b7ecaa51fc7abc9b3dfc5fad3492516e7665ba6", "asm": "304402207d2c651f3d02f01dba994f9ec79fea43490fdbb1b79472ba743bff440885581a02200db40e06bbbe5aec3ccdee660f831522c6115d9b1023c19028a417e8dab27063[ALL] 020ba975f368828232acaf68b34b7ecaa51fc7abc9b3dfc5fad3492516e7665ba6"}, "vout": 97, "txid": "f457935aa0fbad911a7f27c358d006e4158421a9e70beea3df89fc77c99c9f30"}, {"sequence": 4294967294, "scriptSig": {"hex": "483045022100e9e0c3f366ad93979c0477e1bd8312389b3f89c292134aee860ec3cbedfa1b1a02204cc00dad89894dce8b848f27242df0d342bcccac9fe60b44565fd4dc81d519320121029212aea2767d05d7328bc6e8e0fdb3183a38ccd626b106b13182613fd4bc497d", "asm": "3045022100e9e0c3f366ad93979c0477e1bd8312389b3f89c292134aee860ec3cbedfa1b1a02204cc00dad89894dce8b848f27242df0d342bcccac9fe60b44565fd4dc81d51932[ALL] 029212aea2767d05d7328bc6e8e0fdb3183a38ccd626b106b13182613fd4bc497d"}, "vout": 0, "txid": "b77f33c3785d145c47008c798aad45caa6da54b8bdcf546414fd3e47438bd055"}, {"sequence": 4294967294, "scriptSig": {"hex": "47304402206c919d87f9aac18f1240ca4b5e40cc3f3755a6bb70756f3182563bfb3b19bc190220397fec4702834f0e41494f68b9cf8038d96227a7057168d2aa5d009de41373ee01210266f683300f9bd88c7fcfb4837d7061a0a3d770c4aee9bdd3ad60db996504fee8", "asm": "304402206c919d87f9aac18f1240ca4b5e40cc3f3755a6bb70756f3182563bfb3b19bc190220397fec4702834f0e41494f68b9cf8038d96227a7057168d2aa5d009de41373ee[ALL] 0266f683300f9bd88c7fcfb4837d7061a0a3d770c4aee9bdd3ad60db996504fee8"}, "vout": 0, "txid": "1a130a1c17485053df618c6ab3ffdbef23c8d078e35f0f1c97a3938f06b60d9a"}, {"sequence": 4294967294, "scriptSig": {"hex": "483045022100843e29e7c160eb5f47aeb5bf08c34b9e356624a4da109b0592a713849b37e53702206cf469745975a0e2739133e53b7e6737d0280c3c755f3284b2b4339e230992fc0121034571277d52cef81a8940b570d5264481112eefc4b35e5b79f15d54dd94352295", "asm": "3045022100843e29e7c160eb5f47aeb5bf08c34b9e356624a4da109b0592a713849b37e53702206cf469745975a0e2739133e53b7e6737d0280c3c755f3284b2b4339e230992fc[ALL] 034571277d52cef81a8940b570d5264481112eefc4b35e5b79f15d54dd94352295"}, "vout": 5, "txid": "31631cd5ee775513ca3ba30133fdf2da6a0c73dac793a496d7d9a6517cadd0a0"}, {"sequence": 4294967294, "scriptSig": {"hex": "47304402206bc3f1c963724b909e5c7d948b9cfe58118e407a17bce728e5ce77b824e23bba02201c6fc1bc1a0981175e0a5a4599f3a63f516041f4ecc56b897e600712d0398b21012102af4a9eb30949a349de4a8edfa9028a4944a4d779a160180a0f195328d3e97485", "asm": "304402206bc3f1c963724b909e5c7d948b9cfe58118e407a17bce728e5ce77b824e23bba02201c6fc1bc1a0981175e0a5a4599f3a63f516041f4ecc56b897e600712d0398b21[ALL] 02af4a9eb30949a349de4a8edfa9028a4944a4d779a160180a0f195328d3e97485"}, "vout": 97, "txid": "f6f033cc27f31bb46ac9f83496cdc498d8d67baf5f910abd87faa1b393bf24ed"}, {"sequence": 4294967294, "scriptSig": {"hex": "4830450221009abfc38c9c6b8471851dd7f4f5001e3dfebd69f32b4a7c91dd6ea751b1bc4ff702205e3c2ea8d78cf6179af603741ee1521c8c318020e36d54773cebd910ed7c831401210352bdb4f40fb25247db083c253b8cd8751718ea0ad3223c699cc0c9cfddbffc4a", "asm": "30450221009abfc38c9c6b8471851dd7f4f5001e3dfebd69f32b4a7c91dd6ea751b1bc4ff702205e3c2ea8d78cf6179af603741ee1521c8c318020e36d54773cebd910ed7c8314[ALL] 0352bdb4f40fb25247db083c253b8cd8751718ea0ad3223c699cc0c9cfddbffc4a"}, "vout": 1, "txid": "7ca3692b83b12ee3bda6a140d353298f63ae4422753a4874b79871e0730b39f0"}, {"sequence": 4294967294, "scriptSig": {"hex": "473044022007d4958f92bb4c4a173a7d7fdf7f7e01c7190afc84ceb0ecd2fb8ea5320099040220712b5d959650c8f975c8adb14ba0ed39373f1ac1c29df00e81332050adb5509b0121031aaa26a33fb5734f2b433c80eb6f6b6cc6f5291f38505aebf89d05a444311cfb", "asm": "3044022007d4958f92bb4c4a173a7d7fdf7f7e01c7190afc84ceb0ecd2fb8ea5320099040220712b5d959650c8f975c8adb14ba0ed39373f1ac1c29df00e81332050adb5509b[ALL] 031aaa26a33fb5734f2b433c80eb6f6b6cc6f5291f38505aebf89d05a444311cfb"}, "vout": 6, "txid": "6772d76ff4935dd3ea0d3a71a0b370528606de00f1fd01d5c2ad3046e2b786f6"}], "txid": "c54143683265000c3db9151c1ee0ac4ab52eed7120180b86a2024ec0d5c34160", "blocktime": 1537870928, "version": 2, "confirmations": 11512, "time": 1537870928, "locktime": 542990, "vsize": 1270, "size": 1270}