{"hash": "011786e4a2a63e53fe2caa0141458b23c076ecb294700847b071750b90710351", "blockhash": "0000000000000000001cda96e906b7601b7a6fb1a3b62bca570a9e5d8f4b3de1", "vout": [{"scriptPubKey": {"reqSigs": 1, "hex": "001415c41b4f168fb9678d0bd88e2c064054fbc6153b", "addresses": ["bc1qzhzpknck37uk0rgtmz8zcpjq2nauv9fmj8h7ch"], "asm": "0 15c41b4f168fb9678d0bd88e2c064054fbc6153b", "type": "witness_v0_keyhash"}, "value": 9.772e-05, "n": 0}, {"scriptPubKey": {"reqSigs": 1, "hex": "a9140c051c220cc5cc1f28d5ba03a67db465488d77d387", "addresses": ["32na9tRXQ68Fx5wcNVeK41nD36o9U9jWq2"], "asm": "OP_HASH160 0c051c220cc5cc1f28d5ba03a67db465488d77d3 OP_EQUAL", "type": "scripthash"}, "value": 0.00312, "n": 1}], "hex": "01000000000101fc57bb52880aa9f189cdcfcc91210704bbeea684219b562a4aba8ecc995667110000000000ffffffff022c2600000000000016001415c41b4f168fb9678d0bd88e2c064054fbc6153bc0c204000000000017a9140c051c220cc5cc1f28d5ba03a67db465488d77d38702483045022100bb3b70c3f9c9b3d69f1c7d858f0e88716ef436c3772c62b837596046512ca34602202cd9a154d1fcafad9e8a18840893887ee47748ed7b51fd7d50f93dc14b6ac9f801210237d4f80697f44cb4de8625a54e7b9438fbc6ca1432f7309d9a0724b5e0488ae500000000", "vin": [{"txinwitness": ["3045022100bb3b70c3f9c9b3d69f1c7d858f0e88716ef436c3772c62b837596046512ca34602202cd9a154d1fcafad9e8a18840893887ee47748ed7b51fd7d50f93dc14b6ac9f801", "0237d4f80697f44cb4de8625a54e7b9438fbc6ca1432f7309d9a0724b5e0488ae5"], "sequence": 4294967295, "scriptSig": {"hex": "", "asm": ""}, "vout": 0, "txid": "11675699cc8eba4a2a569b2184a6eebb04072191cccfcd89f1a90a8852bb57fc"}], "txid": "c547a34f97c6b0e1b2e21aee7e3852ed2883a6055f60a705017701a05dcc0e45", "blocktime": 1537873282, "version": 1, "confirmations": 11484, "time": 1537873282, "locktime": 0, "vsize": 142, "size": 224}