{"hash": "c554b3e9bfbaf5b06776637739e4d57a0956df6fb4c57f724ce12aef5768b9f8", "blockhash": "000000000000000000022b45ed06c6f4ccd3cf7fb5ba4856ebd2e58215665228", "vout": [{"scriptPubKey": {"reqSigs": 1, "hex": "76a9146b5885e75ea22d2041a1e8a77bc3a67cd5edc56488ac", "addresses": ["1AnbMDXesrLwqWKBj66GuJP8aoR9Q4Fq3h"], "asm": "OP_DUP OP_HASH160 6b5885e75ea22d2041a1e8a77bc3a67cd5edc564 OP_EQUALVERIFY OP_CHECKSIG", "type": "pubkeyhash"}, "value": 0.00017591, "n": 0}, {"scriptPubKey": {"reqSigs": 1, "hex": "76a914dc7cd389aaaec3d6cd815dda8dac4c03d27f65a088ac", "addresses": ["1M6qCHfrYTqTG4gVxvwBZfwnJoQKPVX4Y3"], "asm": "OP_DUP OP_HASH160 dc7cd389aaaec3d6cd815dda8dac4c03d27f65a0 OP_EQUALVERIFY OP_CHECKSIG", "type": "pubkeyhash"}, "value": 0.02727318, "n": 1}], "hex": "0100000005fbcf7fac45b5a388c978b88cb2769c1f8decc4ef5824819149e1e94e657b0e17020000006b483045022100986570a795c96ad47a00354cd6efa0dd60e9e6ea6e70ce274ed19f4611e6c984022064150b1daa4f7345bebb954013fa76e11ef3b3eb75794beb007d41eeac5783c7012103ccee17af8be378b633f6bd7bc3cf6492d55aee1e234c58d4c2bff9ef7ca24965fffffffff9ed068ae1577031a8d973280b163cc56291a0baaad821b92e95d5e485ec6034010000006b483045022100c9e887e0ae5906d5ee987c9c76dc5f0d16e475228e24ead87e3d4704a6e2623c0220379f8863e533507ad8455bd2d2d4f7264a13625d6b74df1b29b82f321bc96a54012102d379105223710353c773f1402a6dc4cfd5c2b4f850a389b63d5d1f228583d19bffffffff16de158e4b9b9debc8973caf99edf7b1510f7e4497b93ea90f1ff5ffdd02dc74000000006a47304402205487d72066669e65c38ad19e7ca22b1b72058cd7d757ddeda5454879571772c20220283146f1b0e90e9aa6c18ea0454ded2451236cde116b2b9804e8459845fb9bae0121022c14ce89bf654675eee76768453b5198041c5ffca8486058b2136c404e98b65cffffffffd671548027347ce063d1a7e89e9306e2048e21366288b5836cf908c92aa40ab7010000006b483045022100aaf2d2ebd85df332c7fc4051fbc76b7602acd981d00a38c661e79fef1af3818f02203705d736e2bb5cb7d40134b95120bc1866e7228bc1b6e7bbb5d90de09f3ce4350121029ae36014f80a2594a2b962623024ae9a53a86ded19f8808e93cbc7122172b1b0ffffffff78fe3eee91a07d72005dbb90e3a55a24489d05238abd22d41f0915aef6e61ecc000000006b483045022100b8aeed6172aed7e3a6d51775ea14b2464669b89023ebf6602de995a62c87bbd102202feeee033c95194ca4bb291f78c20e33030419dc531eb1fd2109b9317a2cd3bc01210297e7986659b7388084296c2fcb4401a64e8add038914cbeef632673a239f64e1ffffffff02b7440000000000001976a9146b5885e75ea22d2041a1e8a77bc3a67cd5edc56488ac969d2900000000001976a914dc7cd389aaaec3d6cd815dda8dac4c03d27f65a088ac00000000", "vin": [{"sequence": 4294967295, "scriptSig": {"hex": "483045022100986570a795c96ad47a00354cd6efa0dd60e9e6ea6e70ce274ed19f4611e6c984022064150b1daa4f7345bebb954013fa76e11ef3b3eb75794beb007d41eeac5783c7012103ccee17af8be378b633f6bd7bc3cf6492d55aee1e234c58d4c2bff9ef7ca24965", "asm": "3045022100986570a795c96ad47a00354cd6efa0dd60e9e6ea6e70ce274ed19f4611e6c984022064150b1daa4f7345bebb954013fa76e11ef3b3eb75794beb007d41eeac5783c7[ALL] 03ccee17af8be378b633f6bd7bc3cf6492d55aee1e234c58d4c2bff9ef7ca24965"}, "vout": 2, "txid": "170e7b654ee9e14991812458efc4ec8d1f9c76b28cb878c988a3b545ac7fcffb"}, {"sequence": 4294967295, "scriptSig": {"hex": "483045022100c9e887e0ae5906d5ee987c9c76dc5f0d16e475228e24ead87e3d4704a6e2623c0220379f8863e533507ad8455bd2d2d4f7264a13625d6b74df1b29b82f321bc96a54012102d379105223710353c773f1402a6dc4cfd5c2b4f850a389b63d5d1f228583d19b", "asm": "3045022100c9e887e0ae5906d5ee987c9c76dc5f0d16e475228e24ead87e3d4704a6e2623c0220379f8863e533507ad8455bd2d2d4f7264a13625d6b74df1b29b82f321bc96a54[ALL] 02d379105223710353c773f1402a6dc4cfd5c2b4f850a389b63d5d1f228583d19b"}, "vout": 1, "txid": "3460ec85e4d5952eb921d8aabaa09162c53c160b2873d9a8317057e18a06edf9"}, {"sequence": 4294967295, "scriptSig": {"hex": "47304402205487d72066669e65c38ad19e7ca22b1b72058cd7d757ddeda5454879571772c20220283146f1b0e90e9aa6c18ea0454ded2451236cde116b2b9804e8459845fb9bae0121022c14ce89bf654675eee76768453b5198041c5ffca8486058b2136c404e98b65c", "asm": "304402205487d72066669e65c38ad19e7ca22b1b72058cd7d757ddeda5454879571772c20220283146f1b0e90e9aa6c18ea0454ded2451236cde116b2b9804e8459845fb9bae[ALL] 022c14ce89bf654675eee76768453b5198041c5ffca8486058b2136c404e98b65c"}, "vout": 0, "txid": "74dc02ddfff51f0fa93eb997447e0f51b1f7ed99af3c97c8eb9d9b4b8e15de16"}, {"sequence": 4294967295, "scriptSig": {"hex": "483045022100aaf2d2ebd85df332c7fc4051fbc76b7602acd981d00a38c661e79fef1af3818f02203705d736e2bb5cb7d40134b95120bc1866e7228bc1b6e7bbb5d90de09f3ce4350121029ae36014f80a2594a2b962623024ae9a53a86ded19f8808e93cbc7122172b1b0", "asm": "3045022100aaf2d2ebd85df332c7fc4051fbc76b7602acd981d00a38c661e79fef1af3818f02203705d736e2bb5cb7d40134b95120bc1866e7228bc1b6e7bbb5d90de09f3ce435[ALL] 029ae36014f80a2594a2b962623024ae9a53a86ded19f8808e93cbc7122172b1b0"}, "vout": 1, "txid": "b70aa42ac908f96c83b5886236218e04e206939ee8a7d163e07c3427805471d6"}, {"sequence": 4294967295, "scriptSig": {"hex": "483045022100b8aeed6172aed7e3a6d51775ea14b2464669b89023ebf6602de995a62c87bbd102202feeee033c95194ca4bb291f78c20e33030419dc531eb1fd2109b9317a2cd3bc01210297e7986659b7388084296c2fcb4401a64e8add038914cbeef632673a239f64e1", "asm": "3045022100b8aeed6172aed7e3a6d51775ea14b2464669b89023ebf6602de995a62c87bbd102202feeee033c95194ca4bb291f78c20e33030419dc531eb1fd2109b9317a2cd3bc[ALL] 0297e7986659b7388084296c2fcb4401a64e8add038914cbeef632673a239f64e1"}, "vout": 0, "txid": "cc1ee6f6ae15091fd422bd8a23059d48245aa5e390bb5d00727da091ee3efe78"}], "txid": "c554b3e9bfbaf5b06776637739e4d57a0956df6fb4c57f724ce12aef5768b9f8", "blocktime": 1537869901, "version": 1, "confirmations": 11524, "time": 1537869901, "locktime": 0, "vsize": 817, "size": 817}