{"hash": "c5545503243093e10dd695f90f2e5f010bd1334791fe113da7d04396bc896880", "blockhash": "00000000000000000018f53835495a110e01622372bf6ae95dc86f2b0ab887b0", "vout": [{"scriptPubKey": {"reqSigs": 1, "hex": "76a91429ec067c2eaeb522857cec0fdc335fe6803237a788ac", "addresses": ["14pfTCB3NLYzgbnuCL9LjG3dYDCe3X55R3"], "asm": "OP_DUP OP_HASH160 29ec067c2eaeb522857cec0fdc335fe6803237a7 OP_EQUALVERIFY OP_CHECKSIG", "type": "pubkeyhash"}, "value": 0.0035145, "n": 0}, {"scriptPubKey": {"reqSigs": 1, "hex": "76a914d6ad199d25a6af02a95530ff127b71ef3cfc4c9988ac", "addresses": ["1La6yFkY9jmhrEeeWBHa1ULZydcT3Ca5sY"], "asm": "OP_DUP OP_HASH160 d6ad199d25a6af02a95530ff127b71ef3cfc4c99 OP_EQUALVERIFY OP_CHECKSIG", "type": "pubkeyhash"}, "value": 0.02899189, "n": 1}], "hex": "010000000157d6eefd3f78b624357b0dae0d07732be633cdae6ce920b8cc7814459d6fa68a010000006a47304402206bf1198756fda8b9c60dcd5c8a58765b4c37438c3b0eeb2756b6a9048bb3f3b902204ab07dea5115f27d991ac62077ed99cbaaab689ced6e1100777b0d940f95f4b8012103465551b88145b45f6dc4817203a98625c54705ff6254880827f6ed4e6769100affffffff02da5c0500000000001976a91429ec067c2eaeb522857cec0fdc335fe6803237a788acf53c2c00000000001976a914d6ad199d25a6af02a95530ff127b71ef3cfc4c9988ac00000000", "vin": [{"sequence": 4294967295, "scriptSig": {"hex": "47304402206bf1198756fda8b9c60dcd5c8a58765b4c37438c3b0eeb2756b6a9048bb3f3b902204ab07dea5115f27d991ac62077ed99cbaaab689ced6e1100777b0d940f95f4b8012103465551b88145b45f6dc4817203a98625c54705ff6254880827f6ed4e6769100a", "asm": "304402206bf1198756fda8b9c60dcd5c8a58765b4c37438c3b0eeb2756b6a9048bb3f3b902204ab07dea5115f27d991ac62077ed99cbaaab689ced6e1100777b0d940f95f4b8[ALL] 03465551b88145b45f6dc4817203a98625c54705ff6254880827f6ed4e6769100a"}, "vout": 1, "txid": "8aa66f9d451478ccb820e96caecd33e62b73070dae0d7b3524b6783ffdeed657"}], "txid": "c5545503243093e10dd695f90f2e5f010bd1334791fe113da7d04396bc896880", "blocktime": 1537870928, "version": 1, "confirmations": 11512, "time": 1537870928, "locktime": 0, "vsize": 225, "size": 225}