{"hash": "c556ccfeec72315f76ebf7685dae4e6c302ac9b955edfeb27414958ac2612f28", "blockhash": "0000000000000000000baef3f32e3676a92c3b2e5da21b426e4f302fc371ce76", "vout": [{"scriptPubKey": {"reqSigs": 1, "hex": "a914fc8baefacba4c43284ca3fad9d3eeacc7aa0e11387", "addresses": ["3QiMYGNDB8zANsuXZj5Pm3HryBkNSFeyWX"], "asm": "OP_HASH160 fc8baefacba4c43284ca3fad9d3eeacc7aa0e113 OP_EQUAL", "type": "scripthash"}, "value": 0.0105, "n": 0}, {"scriptPubKey": {"reqSigs": 1, "hex": "a9140f77d6e0bb55021143272243f8e5928d9e1af6d887", "addresses": ["336od1KiDrhoPHoZRdu6T7bV8kkgq6a19S"], "asm": "OP_HASH160 0f77d6e0bb55021143272243f8e5928d9e1af6d8 OP_EQUAL", "type": "scripthash"}, "value": 0.01177608, "n": 1}, {"scriptPubKey": {"reqSigs": 1, "hex": "76a914542ab92ddeedc078fc3d3c94618a5510722c26a088ac", "addresses": ["18g2wauYHRjJeQmhpjLmqANGWpPEhsYxLf"], "asm": "OP_DUP OP_HASH160 542ab92ddeedc078fc3d3c94618a5510722c26a0 OP_EQUALVERIFY OP_CHECKSIG", "type": "pubkeyhash"}, "value": 0.16832822, "n": 2}, {"scriptPubKey": {"reqSigs": 1, "hex": "76a914d773d6caf60ab57fec673d792a84af2778d4f3f088ac", "addresses": ["1LeD3t5rvD7mL8WJ4BCRCtJvCKP2sud4S5"], "asm": "OP_DUP OP_HASH160 d773d6caf60ab57fec673d792a84af2778d4f3f0 OP_EQUALVERIFY OP_CHECKSIG", "type": "pubkeyhash"}, "value": 0.02365421, "n": 3}], "hex": "020000000181007f7581f1899c4667e349236d75a8b9cde353025b4ba0ab8a989efdf02722000000006a473044022079bd43d5dab343b6e40d35ed0419e13abb909f8a5c66f5d1e2868cfc831f3f740220697d924346394f8f2b5669299d85ba40779dbb0c191097ac99e671456e8a72cb01210223f2a7e7c5feeb81cb1a8aca83570c3cfb6fa9ed7675a74b5fbb51bef02ca1fffeffffff04900510000000000017a914fc8baefacba4c43284ca3fad9d3eeacc7aa0e1138708f811000000000017a9140f77d6e0bb55021143272243f8e5928d9e1af6d88736d90001000000001976a914542ab92ddeedc078fc3d3c94618a5510722c26a088aced172400000000001976a914d773d6caf60ab57fec673d792a84af2778d4f3f088ac17490800", "vin": [{"sequence": 4294967294, "scriptSig": {"hex": "473044022079bd43d5dab343b6e40d35ed0419e13abb909f8a5c66f5d1e2868cfc831f3f740220697d924346394f8f2b5669299d85ba40779dbb0c191097ac99e671456e8a72cb01210223f2a7e7c5feeb81cb1a8aca83570c3cfb6fa9ed7675a74b5fbb51bef02ca1ff", "asm": "3044022079bd43d5dab343b6e40d35ed0419e13abb909f8a5c66f5d1e2868cfc831f3f740220697d924346394f8f2b5669299d85ba40779dbb0c191097ac99e671456e8a72cb[ALL] 0223f2a7e7c5feeb81cb1a8aca83570c3cfb6fa9ed7675a74b5fbb51bef02ca1ff"}, "vout": 0, "txid": "2227f0fd9e988aaba04b5b0253e3cdb9a8756d2349e367469c89f181757f0081"}], "txid": "c556ccfeec72315f76ebf7685dae4e6c302ac9b955edfeb27414958ac2612f28", "blocktime": 1537876114, "version": 2, "confirmations": 11459, "time": 1537876114, "locktime": 542999, "vsize": 289, "size": 289}