{"hash": "c55f16c3674206136dfe2e4c405dad63abae9363f6781bc57113cb44a91ae522", "blockhash": "0000000000000000000baef3f32e3676a92c3b2e5da21b426e4f302fc371ce76", "vout": [{"scriptPubKey": {"reqSigs": 1, "hex": "76a914fdfdb043be8fa563a8797718f86dcdf2648e1a6588ac", "addresses": ["1Q9ys83Vu95jMPvumCopn4xVMeaZZjv5ob"], "asm": "OP_DUP OP_HASH160 fdfdb043be8fa563a8797718f86dcdf2648e1a65 OP_EQUALVERIFY OP_CHECKSIG", "type": "pubkeyhash"}, "value": 0.00145764, "n": 0}, {"scriptPubKey": {"type": "nulldata", "hex": "6a146f6d6e69000000000000001f000000108bc26690", "asm": "OP_RETURN 6f6d6e69000000000000001f000000108bc26690"}, "value": 0.0, "n": 1}, {"scriptPubKey": {"reqSigs": 1, "hex": "76a914bc389721f800f262390e35a6c2cd138f3f10a3f088ac", "addresses": ["1JADq2pf1x7vzsnHsrCXQ2XKne7GYnEnP2"], "asm": "OP_DUP OP_HASH160 bc389721f800f262390e35a6c2cd138f3f10a3f0 OP_EQUALVERIFY OP_CHECKSIG", "type": "pubkeyhash"}, "value": 5.46e-06, "n": 2}], "hex": "010000000174306f3c3164baf176e1c08bffadce0030f0399d4377e6da53a4932bb000108e000000006a47304402207d681dbf0bffeecf97b7ae6988a12b99821a79cfd1ea51f7afcd11f1a1fbab80022077ebb7daf17cfbd4810aa94350557bd3ca209cc3a7ad69b0ba166ea9548a92b1012102553f81e1f1f1454ff5b1c2939a810145401301f7b45a5d205930b072bbf4d35affffffff0364390200000000001976a914fdfdb043be8fa563a8797718f86dcdf2648e1a6588ac0000000000000000166a146f6d6e69000000000000001f000000108bc2669022020000000000001976a914bc389721f800f262390e35a6c2cd138f3f10a3f088ac00000000", "vin": [{"sequence": 4294967295, "scriptSig": {"hex": "47304402207d681dbf0bffeecf97b7ae6988a12b99821a79cfd1ea51f7afcd11f1a1fbab80022077ebb7daf17cfbd4810aa94350557bd3ca209cc3a7ad69b0ba166ea9548a92b1012102553f81e1f1f1454ff5b1c2939a810145401301f7b45a5d205930b072bbf4d35a", "asm": "304402207d681dbf0bffeecf97b7ae6988a12b99821a79cfd1ea51f7afcd11f1a1fbab80022077ebb7daf17cfbd4810aa94350557bd3ca209cc3a7ad69b0ba166ea9548a92b1[ALL] 02553f81e1f1f1454ff5b1c2939a810145401301f7b45a5d205930b072bbf4d35a"}, "vout": 0, "txid": "8e1000b02b93a453dae677439d39f03000ceadff8bc0e176f1ba64313c6f3074"}], "txid": "c55f16c3674206136dfe2e4c405dad63abae9363f6781bc57113cb44a91ae522", "blocktime": 1537876114, "version": 1, "confirmations": 11459, "time": 1537876114, "locktime": 0, "vsize": 256, "size": 256}