{"hash": "c55f17f16f4f277b3b5aa7057f13ca6a9ac59c88224227146fb4f8ba350ea39e", "blockhash": "0000000000000000000e13cef7c366c0283d82e591d1acd082e914b08063cdf1", "vout": [{"scriptPubKey": {"reqSigs": 1, "hex": "a9143e6f15908582f42917ec31e39bf8722fc9d5db3f87", "addresses": ["37P8thrtDXb6Di5E7f4FL3bpzum3fhUvT7"], "asm": "OP_HASH160 3e6f15908582f42917ec31e39bf8722fc9d5db3f OP_EQUAL", "type": "scripthash"}, "value": 0.0002, "n": 0}, {"scriptPubKey": {"reqSigs": 1, "hex": "76a91446a88565d95d01e8439329e6ba46819de4183d4188ac", "addresses": ["17ScBUkP1ygh4EEGiEd2zvjtpNPiUstDbX"], "asm": "OP_DUP OP_HASH160 46a88565d95d01e8439329e6ba46819de4183d41 OP_EQUALVERIFY OP_CHECKSIG", "type": "pubkeyhash"}, "value": 0.004702, "n": 1}], "hex": "0100000001e863b8023df7a8a4fb1c9a1853591d7fcd6a4435a330dfa81176811a23ec7949000000006b483045022100a9a67ea1e662bb0af57395985cbf4c93b1e079c483447153e7f2a057798fbf3a02206fbbd1246bc3a9ae63692157b11b31e597702f2492fcec64203fd7347aec42050121039c72b393258a820ca4bc9424970a91c30874cd3aa02cc2191dce29b5a1b8460affffffff02204e00000000000017a9143e6f15908582f42917ec31e39bf8722fc9d5db3f87b82c0700000000001976a91446a88565d95d01e8439329e6ba46819de4183d4188ac00000000", "vin": [{"sequence": 4294967295, "scriptSig": {"hex": "483045022100a9a67ea1e662bb0af57395985cbf4c93b1e079c483447153e7f2a057798fbf3a02206fbbd1246bc3a9ae63692157b11b31e597702f2492fcec64203fd7347aec42050121039c72b393258a820ca4bc9424970a91c30874cd3aa02cc2191dce29b5a1b8460a", "asm": "3045022100a9a67ea1e662bb0af57395985cbf4c93b1e079c483447153e7f2a057798fbf3a02206fbbd1246bc3a9ae63692157b11b31e597702f2492fcec64203fd7347aec4205[ALL] 039c72b393258a820ca4bc9424970a91c30874cd3aa02cc2191dce29b5a1b8460a"}, "vout": 0, "txid": "4979ec231a817611a8df30a335446acd7f1d5953189a1cfba4a8f73d02b863e8"}], "txid": "c55f17f16f4f277b3b5aa7057f13ca6a9ac59c88224227146fb4f8ba350ea39e", "blocktime": 1537871767, "version": 1, "confirmations": 11490, "time": 1537871767, "locktime": 0, "vsize": 224, "size": 224}