{"hash": "c55f414bcd077cd494003117ac9c7f2fb04b1811b60b3c18444e3944b60e6b35", "blockhash": "000000000000000000022b45ed06c6f4ccd3cf7fb5ba4856ebd2e58215665228", "vout": [{"scriptPubKey": {"type": "nulldata", "hex": "6a146f6d6e69000000000000001f00000018727cda00", "asm": "OP_RETURN 6f6d6e69000000000000001f00000018727cda00"}, "value": 0.0, "n": 0}, {"scriptPubKey": {"reqSigs": 1, "hex": "76a914284b1f894ca72430de8f19952125b6016a9dc7c688ac", "addresses": ["14g42KnXkRFfR8cUtS5tReprjeNvGQKW9v"], "asm": "OP_DUP OP_HASH160 284b1f894ca72430de8f19952125b6016a9dc7c6 OP_EQUALVERIFY OP_CHECKSIG", "type": "pubkeyhash"}, "value": 0.14484953, "n": 1}, {"scriptPubKey": {"reqSigs": 1, "hex": "76a914b0ac503f478f968945f290f36fd3e5b2bd420bd688ac", "addresses": ["1H7AMK5LdRX3Ntr3VKCdbCaHxo9vG3zWGm"], "asm": "OP_DUP OP_HASH160 b0ac503f478f968945f290f36fd3e5b2bd420bd6 OP_EQUALVERIFY OP_CHECKSIG", "type": "pubkeyhash"}, "value": 5.46e-06, "n": 2}], "hex": "0100000001b4924ea1cab7c02b6800b2b936048548239cedb9933c2dea62573346c648c9c3000000006b483045022100dfc36511c131d1fd9d55c6e425c48c808d3b3ce5d8591df8474f3db0cf316c8e022009ba91aa43f105b4eab41d3836c53dead83a8a3f3a6fced509a4b0d09453e12a01210392260b2475e9dec1855e89404d00787579055270f3f1619ec29bd64ed6a6dd7dfeffffff030000000000000000166a146f6d6e69000000000000001f00000018727cda00d905dd00000000001976a914284b1f894ca72430de8f19952125b6016a9dc7c688ac22020000000000001976a914b0ac503f478f968945f290f36fd3e5b2bd420bd688accd480800", "vin": [{"sequence": 4294967294, "scriptSig": {"hex": "483045022100dfc36511c131d1fd9d55c6e425c48c808d3b3ce5d8591df8474f3db0cf316c8e022009ba91aa43f105b4eab41d3836c53dead83a8a3f3a6fced509a4b0d09453e12a01210392260b2475e9dec1855e89404d00787579055270f3f1619ec29bd64ed6a6dd7d", "asm": "3045022100dfc36511c131d1fd9d55c6e425c48c808d3b3ce5d8591df8474f3db0cf316c8e022009ba91aa43f105b4eab41d3836c53dead83a8a3f3a6fced509a4b0d09453e12a[ALL] 0392260b2475e9dec1855e89404d00787579055270f3f1619ec29bd64ed6a6dd7d"}, "vout": 0, "txid": "c3c948c646335762ea2d3c93b9ed9c2348850436b9b200682bc0b7caa14e92b4"}], "txid": "c55f414bcd077cd494003117ac9c7f2fb04b1811b60b3c18444e3944b60e6b35", "blocktime": 1537869901, "version": 1, "confirmations": 11522, "time": 1537869901, "locktime": 542925, "vsize": 257, "size": 257}