{"hash": "c56216e59a05506f47f9b00d914c0b7c49d82efda7b20a5633dbdf1d7cd75264", "blockhash": "00000000000000000018f53835495a110e01622372bf6ae95dc86f2b0ab887b0", "vout": [{"scriptPubKey": {"reqSigs": 1, "hex": "a91436178de3f229ebf07db97cd9d517a6affd5190b587", "addresses": ["36d2dUs7wiMxnr2td9iQwKxJp7xjNtuRgz"], "asm": "OP_HASH160 36178de3f229ebf07db97cd9d517a6affd5190b5 OP_EQUAL", "type": "scripthash"}, "value": 7.08, "n": 0}, {"scriptPubKey": {"reqSigs": 1, "hex": "76a914d5ba2eb2d52670fbe9522748bf642da754eb0d6f88ac", "addresses": ["1LV5y3NkVkmdWnF6xRCEXrAnUkRgge4KSq"], "asm": "OP_DUP OP_HASH160 d5ba2eb2d52670fbe9522748bf642da754eb0d6f OP_EQUALVERIFY OP_CHECKSIG", "type": "pubkeyhash"}, "value": 6.17484081, "n": 1}], "hex": "01000000016a84c5ce236c8703b2decea6ec6499555276b4918b2c1f6aa824767f133b713f010000006b483045022100c57f786292ee6b99e897d3698cf677dda6fb34cc5eebb4c42c2e9fa1e5bb261d02200c99504d221bf8303ed114755d97d155a12b2f3d5d5e5d7c54fa7681518c4c99012102c19ebc0e7fe714e24c55adaeebc7dbab2dc9a208b511bd1b6e83db85506d4d19ffffffff020039332a0000000017a91436178de3f229ebf07db97cd9d517a6affd5190b587310fce24000000001976a914d5ba2eb2d52670fbe9522748bf642da754eb0d6f88ac00000000", "vin": [{"sequence": 4294967295, "scriptSig": {"hex": "483045022100c57f786292ee6b99e897d3698cf677dda6fb34cc5eebb4c42c2e9fa1e5bb261d02200c99504d221bf8303ed114755d97d155a12b2f3d5d5e5d7c54fa7681518c4c99012102c19ebc0e7fe714e24c55adaeebc7dbab2dc9a208b511bd1b6e83db85506d4d19", "asm": "3045022100c57f786292ee6b99e897d3698cf677dda6fb34cc5eebb4c42c2e9fa1e5bb261d02200c99504d221bf8303ed114755d97d155a12b2f3d5d5e5d7c54fa7681518c4c99[ALL] 02c19ebc0e7fe714e24c55adaeebc7dbab2dc9a208b511bd1b6e83db85506d4d19"}, "vout": 1, "txid": "3f713b137f7624a86a1f2c8b91b47652559964eca6cedeb203876c23cec5846a"}], "txid": "c56216e59a05506f47f9b00d914c0b7c49d82efda7b20a5633dbdf1d7cd75264", "blocktime": 1537870928, "version": 1, "confirmations": 11512, "time": 1537870928, "locktime": 0, "vsize": 224, "size": 224}