{"hash": "6170dace5697b93f36111f4a75eef3cbdff6c4c3e9164905f7c553f968e407a1", "blockhash": "0000000000000000000e13cef7c366c0283d82e591d1acd082e914b08063cdf1", "vout": [{"scriptPubKey": {"reqSigs": 1, "hex": "76a9149c20fa9a4e9d6af1cb5020369815a3183bf3ba5788ac", "addresses": ["1FEXvLmhL2242r4xsZ81HFhKb8SK2LgRNs"], "asm": "OP_DUP OP_HASH160 9c20fa9a4e9d6af1cb5020369815a3183bf3ba57 OP_EQUALVERIFY OP_CHECKSIG", "type": "pubkeyhash"}, "value": 0.002184, "n": 0}, {"scriptPubKey": {"reqSigs": 1, "hex": "00141ed43faa5518bc832cc500c103aff39a32234cde", "addresses": ["bc1qrm2rl2j4rz7gxtx9qrqs8tlnngezxnx7l8nmce"], "asm": "0 1ed43faa5518bc832cc500c103aff39a32234cde", "type": "witness_v0_keyhash"}, "value": 3.736e-05, "n": 1}], "hex": "01000000000101752300506e9c9b08001df9fdd3494f747cb58cbf71b5fd5de3c340cdec122ac20100000000ffffffff0220550300000000001976a9149c20fa9a4e9d6af1cb5020369815a3183bf3ba5788ac980e0000000000001600141ed43faa5518bc832cc500c103aff39a32234cde02473044022050b901abdc5cfb6e089314caa32b3a99c26fe8f5b5a482c3db13945004f556a902200fb9cc772e98fbd69fbf5ae559dda81dc2a1921faa9454a37cfca0c300e6111f01210315eaa3ff7ad3464efce97c8621e65439b8e69f22ea3736fce41b2899802bcf9b00000000", "vin": [{"txinwitness": ["3044022050b901abdc5cfb6e089314caa32b3a99c26fe8f5b5a482c3db13945004f556a902200fb9cc772e98fbd69fbf5ae559dda81dc2a1921faa9454a37cfca0c300e6111f01", "0315eaa3ff7ad3464efce97c8621e65439b8e69f22ea3736fce41b2899802bcf9b"], "sequence": 4294967295, "scriptSig": {"hex": "", "asm": ""}, "vout": 1, "txid": "c22a12eccd40c3e35dfdb571bf8cb57c744f49d3fdf91d00089b9c6e50002375"}], "txid": "c563f62a38f3b815db0845605012b6b9920c5f038865a32c0161d745a47cc3dc", "blocktime": 1537871767, "version": 1, "confirmations": 11495, "time": 1537871767, "locktime": 0, "vsize": 144, "size": 225}