{"hash": "c564b4b5acb9eefe2f0d354ab0c3e914805606394cfdb87d6de64023ed728bf2", "blockhash": "0000000000000000001cda96e906b7601b7a6fb1a3b62bca570a9e5d8f4b3de1", "vout": [{"scriptPubKey": {"reqSigs": 1, "hex": "a914d0f2bac8e0b71a314299b6ef538f88a107338aa987", "addresses": ["3LjqFbSk8xSqW5AzN7Qm12Bhs4KmZohDDK"], "asm": "OP_HASH160 d0f2bac8e0b71a314299b6ef538f88a107338aa9 OP_EQUAL", "type": "scripthash"}, "value": 0.00331782, "n": 0}, {"scriptPubKey": {"reqSigs": 1, "hex": "76a914f36ed437701f8405734f39fa0ae61188d35e6a0b88ac", "addresses": ["1PC9y9WU732kPDw82V3ivvJvcCCymiSxHL"], "asm": "OP_DUP OP_HASH160 f36ed437701f8405734f39fa0ae61188d35e6a0b OP_EQUALVERIFY OP_CHECKSIG", "type": "pubkeyhash"}, "value": 0.03398056, "n": 1}], "hex": "01000000016d860944dba29af9ed4156299eded86b450345e18e29717e31c4ab82e6cb7932010000006b483045022100c8ea666bb2197f0c45fdbdc4e4e9b43e4d9cd60c690cb688e41426c90b4b72a202203bbcc9fe4b305b5530443d7aa512b070495fd0a4b929883770adc135029d97a101210234d722786569802cad52984cecda523e0ffc140525f4edc684eb2a83796e08eeffffffff02061005000000000017a914d0f2bac8e0b71a314299b6ef538f88a107338aa987a8d93300000000001976a914f36ed437701f8405734f39fa0ae61188d35e6a0b88ac00000000", "vin": [{"sequence": 4294967295, "scriptSig": {"hex": "483045022100c8ea666bb2197f0c45fdbdc4e4e9b43e4d9cd60c690cb688e41426c90b4b72a202203bbcc9fe4b305b5530443d7aa512b070495fd0a4b929883770adc135029d97a101210234d722786569802cad52984cecda523e0ffc140525f4edc684eb2a83796e08ee", "asm": "3045022100c8ea666bb2197f0c45fdbdc4e4e9b43e4d9cd60c690cb688e41426c90b4b72a202203bbcc9fe4b305b5530443d7aa512b070495fd0a4b929883770adc135029d97a1[ALL] 0234d722786569802cad52984cecda523e0ffc140525f4edc684eb2a83796e08ee"}, "vout": 1, "txid": "3279cbe682abc4317e71298ee14503456bd8de9e295641edf99aa2db4409866d"}], "txid": "c564b4b5acb9eefe2f0d354ab0c3e914805606394cfdb87d6de64023ed728bf2", "blocktime": 1537873282, "version": 1, "confirmations": 11482, "time": 1537873282, "locktime": 0, "vsize": 224, "size": 224}