{"hash": "c565447df260779ce9a5141e099058d60add35f89fb408599c4b28f3ec31e08e", "blockhash": "00000000000000000004ffacab907a6b429b9a5745fa0b75af4234bf69dd7176", "vout": [{"scriptPubKey": {"reqSigs": 1, "hex": "76a91472247d3e95f8864167940788b90c322bb66380ff88ac", "addresses": ["1BQXkBkBCPKbNRVHCSFTkRZiEXYPj7ZvPL"], "asm": "OP_DUP OP_HASH160 72247d3e95f8864167940788b90c322bb66380ff OP_EQUALVERIFY OP_CHECKSIG", "type": "pubkeyhash"}, "value": 0.00161658, "n": 0}, {"scriptPubKey": {"reqSigs": 1, "hex": "76a91426b25e8a0b668c62a76d0914ef4311ba2d7f081e88ac", "addresses": ["14XcMc7Syjx4MdpJgLmtt817ZKcBq5Z2uJ"], "asm": "OP_DUP OP_HASH160 26b25e8a0b668c62a76d0914ef4311ba2d7f081e OP_EQUALVERIFY OP_CHECKSIG", "type": "pubkeyhash"}, "value": 0.0158, "n": 1}], "hex": "0100000002491ba6282c2bb141a127cfb9a3a9ae188404428bff2ffa4b42ead493bf936845010000006a47304402204a938fac7e9457bbe8acc67987683260df06ff84bb033deec0da706e6c00e0ad02206bb0dce587b4043f47d44e51236fda2fdf65c2a1d0d876f5267cb2cc283fd87401210218e149901f01075bff8a52d171a91ac829f8d9a3d5e4a94de22623f1a55176ddffffffffa1ede6567635481237a213aca5aa14a2508ffb063646af8b9a678e31e867cf52010000006b483045022100e18198538afde8236e86d2bbc6b451443a8536cb67efc769575b7d119334e62202204223908aed37f1d107cb0286585e98dfeece272825ae1325807df692c71725730121024676efdc648446703dad858b2665e51d9a49dcb1441167c90d91811765dde21affffffff027a770200000000001976a91472247d3e95f8864167940788b90c322bb66380ff88ace01b1800000000001976a91426b25e8a0b668c62a76d0914ef4311ba2d7f081e88ac00000000", "vin": [{"sequence": 4294967295, "scriptSig": {"hex": "47304402204a938fac7e9457bbe8acc67987683260df06ff84bb033deec0da706e6c00e0ad02206bb0dce587b4043f47d44e51236fda2fdf65c2a1d0d876f5267cb2cc283fd87401210218e149901f01075bff8a52d171a91ac829f8d9a3d5e4a94de22623f1a55176dd", "asm": "304402204a938fac7e9457bbe8acc67987683260df06ff84bb033deec0da706e6c00e0ad02206bb0dce587b4043f47d44e51236fda2fdf65c2a1d0d876f5267cb2cc283fd874[ALL] 0218e149901f01075bff8a52d171a91ac829f8d9a3d5e4a94de22623f1a55176dd"}, "vout": 1, "txid": "456893bf93d4ea424bfa2fff8b42048418aea9a3b9cf27a141b12b2c28a61b49"}, {"sequence": 4294967295, "scriptSig": {"hex": "483045022100e18198538afde8236e86d2bbc6b451443a8536cb67efc769575b7d119334e62202204223908aed37f1d107cb0286585e98dfeece272825ae1325807df692c71725730121024676efdc648446703dad858b2665e51d9a49dcb1441167c90d91811765dde21a", "asm": "3045022100e18198538afde8236e86d2bbc6b451443a8536cb67efc769575b7d119334e62202204223908aed37f1d107cb0286585e98dfeece272825ae1325807df692c7172573[ALL] 024676efdc648446703dad858b2665e51d9a49dcb1441167c90d91811765dde21a"}, "vout": 1, "txid": "52cf67e8318e679a8baf463606fb8f50a214aaa5ac13a2371248357656e6eda1"}], "txid": "c565447df260779ce9a5141e099058d60add35f89fb408599c4b28f3ec31e08e", "blocktime": 1537875543, "version": 1, "confirmations": 11464, "time": 1537875543, "locktime": 0, "vsize": 373, "size": 373}