{"hash": "075efd0f5ff68851806aec99289fc100a417b05f94d6ebb2ba086675424c36ed", "blockhash": "0000000000000000001cda96e906b7601b7a6fb1a3b62bca570a9e5d8f4b3de1", "vout": [{"scriptPubKey": {"reqSigs": 1, "hex": "a914b44337f216fcdcf0a5895a72e8c4169a68ef293e87", "addresses": ["3J8A5VuG2KUQmCweiwHBDfv67VqWTciCM2"], "asm": "OP_HASH160 b44337f216fcdcf0a5895a72e8c4169a68ef293e OP_EQUAL", "type": "scripthash"}, "value": 0.01545181, "n": 0}], "hex": "0100000000010103ad3c33ba7a2c0bac0904817c5de891b353299bda5a43cfa19f8389a35300f501000000171600144a32a70adb63161fb31915d1c1d283185fd11e01ffffffff01dd9317000000000017a914b44337f216fcdcf0a5895a72e8c4169a68ef293e8702483045022100c883ffca17fad92217e7a90130ce2f3bc8a7643f2619f105f61213fe2d9163e802205256c182131ce7b0a5ba000f1c94bfc16641d20c04a1073ee98faf23d834cef9012103e75cddf62e468b0efbe37ae038b070e4b522d6a1d673a44465c5c2ed3603530c00000000", "vin": [{"txinwitness": ["3045022100c883ffca17fad92217e7a90130ce2f3bc8a7643f2619f105f61213fe2d9163e802205256c182131ce7b0a5ba000f1c94bfc16641d20c04a1073ee98faf23d834cef901", "03e75cddf62e468b0efbe37ae038b070e4b522d6a1d673a44465c5c2ed3603530c"], "sequence": 4294967295, "scriptSig": {"hex": "1600144a32a70adb63161fb31915d1c1d283185fd11e01", "asm": "00144a32a70adb63161fb31915d1c1d283185fd11e01"}, "vout": 1, "txid": "f50053a389839fa1cf435ada9b2953b391e85d7c810409ac0b2c7aba333cad03"}], "txid": "c566e51db5f05867fca5aa58e9496543344282cd8fb6f02081e207e5d4250ef7", "blocktime": 1537873282, "version": 1, "confirmations": 11484, "time": 1537873282, "locktime": 0, "vsize": 134, "size": 216}