{"hash": "c56ec6c9767d611436ad55ed9ebb74a93e2bfd959bcd03f24c7ec434bc55af81", "blockhash": "0000000000000000001f76057863aec43deb6fa401d9628bb513d65a8098bfab", "vout": [{"scriptPubKey": {"reqSigs": 1, "hex": "76a914a0d00efcf710b1a909783fe7bf4197670d90f2f288ac", "addresses": ["1FfJMrYTAF3PfHLRQTKkHy8tVnPQaFC2VV"], "asm": "OP_DUP OP_HASH160 a0d00efcf710b1a909783fe7bf4197670d90f2f2 OP_EQUALVERIFY OP_CHECKSIG", "type": "pubkeyhash"}, "value": 0.1786052, "n": 0}, {"scriptPubKey": {"reqSigs": 1, "hex": "76a9143f8004d6386d76af8355614df596dbdae99eeebb88ac", "addresses": ["16nkvzenmb952cQojncw4HBgVJZRndTeA3"], "asm": "OP_DUP OP_HASH160 3f8004d6386d76af8355614df596dbdae99eeebb OP_EQUALVERIFY OP_CHECKSIG", "type": "pubkeyhash"}, "value": 0.00394, "n": 1}], "hex": "0100000001d46b7b34a9e7bb89058647299b002980da4b30412dca9a2e001b259e03c93bf00000000069463043021f58579fb8e3b9342fad50b442ad942f8e7a644af116ab84942fd37fb8e1dbe8022015e609cfb89f47466f065b788c27d848df74b0526d1d5d0175d00bc4c96d53110121035fbe5188bbbb36946968a6b5087029778b2c860fbd41a133b184985ed6212b96feffffff02a8871001000000001976a914a0d00efcf710b1a909783fe7bf4197670d90f2f288ac10030600000000001976a9143f8004d6386d76af8355614df596dbdae99eeebb88ac14490800", "vin": [{"sequence": 4294967294, "scriptSig": {"hex": "463043021f58579fb8e3b9342fad50b442ad942f8e7a644af116ab84942fd37fb8e1dbe8022015e609cfb89f47466f065b788c27d848df74b0526d1d5d0175d00bc4c96d53110121035fbe5188bbbb36946968a6b5087029778b2c860fbd41a133b184985ed6212b96", "asm": "3043021f58579fb8e3b9342fad50b442ad942f8e7a644af116ab84942fd37fb8e1dbe8022015e609cfb89f47466f065b788c27d848df74b0526d1d5d0175d00bc4c96d5311[ALL] 035fbe5188bbbb36946968a6b5087029778b2c860fbd41a133b184985ed6212b96"}, "vout": 0, "txid": "f03bc9039e251b002e9aca2d41304bda8029009b2947860589bbe7a9347b6bd4"}], "txid": "c56ec6c9767d611436ad55ed9ebb74a93e2bfd959bcd03f24c7ec434bc55af81", "blocktime": 1537873891, "version": 1, "confirmations": 11474, "time": 1537873891, "locktime": 542996, "vsize": 224, "size": 224}