{"hash": "c5701c1396b2320fc1f3b0fb75675cfa2d33cd2db0fda13e232eca101c881e44", "blockhash": "0000000000000000000dcc0f55137456b1a82d3642486a52398922ac4d620174", "vout": [{"scriptPubKey": {"reqSigs": 1, "hex": "76a9143e53f2b195a16ed63816ad4812262351725229c588ac", "addresses": ["16gZThrMViJkrPceSTR6TpTpdaXcoeWWNe"], "asm": "OP_DUP OP_HASH160 3e53f2b195a16ed63816ad4812262351725229c5 OP_EQUALVERIFY OP_CHECKSIG", "type": "pubkeyhash"}, "value": 0.00072849, "n": 0}, {"scriptPubKey": {"reqSigs": 1, "hex": "a91410e4b0f0c7be33b69c6da920a3aa33dc81342f7087", "addresses": ["33ELhMWNraF8ysJgzsoNnJrWczQrLTitbL"], "asm": "OP_HASH160 10e4b0f0c7be33b69c6da920a3aa33dc81342f70 OP_EQUAL", "type": "scripthash"}, "value": 0.05386473, "n": 1}], "hex": "0100000001ffe6f6b58843654c337a6c42e2eb5335def89ba705f0fe680e0f9fd30761fb9a010000006a473044022046a4b0d171100205798e4503f9bb01fff26858bba16a4a8a9901bba9ee54fd9702202182002e71d75b18cbc0b50f0554a563d7c722ddea62c08bcc8f291b14963c840121037fe6e75e45ee156185d63d2e252df164c22a728997f1ea91a6b788503843f8d2ffffffff02911c0100000000001976a9143e53f2b195a16ed63816ad4812262351725229c588ace93052000000000017a91410e4b0f0c7be33b69c6da920a3aa33dc81342f708700000000", "vin": [{"sequence": 4294967295, "scriptSig": {"hex": "473044022046a4b0d171100205798e4503f9bb01fff26858bba16a4a8a9901bba9ee54fd9702202182002e71d75b18cbc0b50f0554a563d7c722ddea62c08bcc8f291b14963c840121037fe6e75e45ee156185d63d2e252df164c22a728997f1ea91a6b788503843f8d2", "asm": "3044022046a4b0d171100205798e4503f9bb01fff26858bba16a4a8a9901bba9ee54fd9702202182002e71d75b18cbc0b50f0554a563d7c722ddea62c08bcc8f291b14963c84[ALL] 037fe6e75e45ee156185d63d2e252df164c22a728997f1ea91a6b788503843f8d2"}, "vout": 1, "txid": "9afb6107d39f0f0e68fef005a79bf8de3553ebe2426c7a334c654388b5f6e6ff"}], "txid": "c5701c1396b2320fc1f3b0fb75675cfa2d33cd2db0fda13e232eca101c881e44", "blocktime": 1537870268, "version": 1, "confirmations": 11518, "time": 1537870268, "locktime": 0, "vsize": 223, "size": 223}