{"hash": "c577fa4d5a14312bd21a7db3ac5b84d5cf394dc75a6796d4b39c169ca2806376", "blockhash": "0000000000000000000e13cef7c366c0283d82e591d1acd082e914b08063cdf1", "vout": [{"scriptPubKey": {"reqSigs": 1, "hex": "76a9141f3a94c65f9200133ed96f4e0e68ea5b8cf4525b88ac", "addresses": ["13r88Eii7q8tJxT5nwxv3jqm9dTsou7gxZ"], "asm": "OP_DUP OP_HASH160 1f3a94c65f9200133ed96f4e0e68ea5b8cf4525b OP_EQUALVERIFY OP_CHECKSIG", "type": "pubkeyhash"}, "value": 0.009, "n": 0}, {"scriptPubKey": {"reqSigs": 1, "hex": "76a914f33fe1c316f87ca451612ec89dd25f649d1b44b288ac", "addresses": ["1PBBjCwTJf8M7RbozbVrUfwhCqPdHqNfCb"], "asm": "OP_DUP OP_HASH160 f33fe1c316f87ca451612ec89dd25f649d1b44b2 OP_EQUALVERIFY OP_CHECKSIG", "type": "pubkeyhash"}, "value": 0.07199827, "n": 1}], "hex": "0100000001b6cc8c73236ec7e99f414d1ab9c0f4e7f5c23668a9ce34e14e2c1aba53efa127010000006a47304402200eb0dbb7c81faa3a6e4fa052f462a2b75b718fddda038eade143488ec2baec4e022066f038e31e0962cd1d5ffeb20995e4fa1c474e699ad10eb2a1abb79064b7057f012102897f5798b57b3fd2613ae7eec5ce6a71f1c36736080e2997b6484a8bb6061a76ffffffff02a0bb0d00000000001976a9141f3a94c65f9200133ed96f4e0e68ea5b8cf4525b88ac53dc6d00000000001976a914f33fe1c316f87ca451612ec89dd25f649d1b44b288ac00000000", "vin": [{"sequence": 4294967295, "scriptSig": {"hex": "47304402200eb0dbb7c81faa3a6e4fa052f462a2b75b718fddda038eade143488ec2baec4e022066f038e31e0962cd1d5ffeb20995e4fa1c474e699ad10eb2a1abb79064b7057f012102897f5798b57b3fd2613ae7eec5ce6a71f1c36736080e2997b6484a8bb6061a76", "asm": "304402200eb0dbb7c81faa3a6e4fa052f462a2b75b718fddda038eade143488ec2baec4e022066f038e31e0962cd1d5ffeb20995e4fa1c474e699ad10eb2a1abb79064b7057f[ALL] 02897f5798b57b3fd2613ae7eec5ce6a71f1c36736080e2997b6484a8bb6061a76"}, "vout": 1, "txid": "27a1ef53ba1a2c4ee134cea96836c2f5e7f4c0b91a4d419fe9c76e23738cccb6"}], "txid": "c577fa4d5a14312bd21a7db3ac5b84d5cf394dc75a6796d4b39c169ca2806376", "blocktime": 1537871767, "version": 1, "confirmations": 11490, "time": 1537871767, "locktime": 0, "vsize": 225, "size": 225}