{"hash": "c578e4586bd878c7ca3bb861efafbaf9a617512ce5423ce532ba33f37a6fdc2a", "blockhash": "00000000000000000017f5eb5941039fbcee6240d03bc1f2f8e35350df66a1d8", "vout": [{"scriptPubKey": {"reqSigs": 1, "hex": "a9147134b78a9154405550dbabe5c5574ba118437a3f87", "addresses": ["3C1bS4Nv7ynNqgrGf5R1kMvyFfRSpUUhjD"], "asm": "OP_HASH160 7134b78a9154405550dbabe5c5574ba118437a3f OP_EQUAL", "type": "scripthash"}, "value": 0.01040977, "n": 0}, {"scriptPubKey": {"reqSigs": 1, "hex": "76a91496fff054a874721792eb4d6cbf4e1d4d60b2554888ac", "addresses": ["1EmQxiPTPHQZbeYyaDEmqh6S3CfC26R12Y"], "asm": "OP_DUP OP_HASH160 96fff054a874721792eb4d6cbf4e1d4d60b25548 OP_EQUALVERIFY OP_CHECKSIG", "type": "pubkeyhash"}, "value": 0.00174544, "n": 1}], "hex": "010000000243821a9da471b25834220bb7a2ef13f415d2eccb4ca9043e16c688805b32d5a800000000da004730440220252a38e202605056c308dfbb91e79756224bb74087fc9a1333641c4c4d11f3ad02207199450350417fd0b818e0839f7c8bc6090ab8724845e665efc8679c77d388f0014830450221008f95e6d4d02f40dea9bc4b271076ee6022c48af964231236053eb6374338782a022073cde77cf7f19e91e0ef0fc4951d79ca967d7ccc32d17a4815babf2d1b86837b0147522102907a54bed8ad74b3f35638c60114ca240a308cb986f3f2f306178869a8880b612103b8c61906e3a2f8d93164a7f2158a2bf5d840952249085126bda49fb19c2d32cc52aefffffffffc8ddcd99fd878e9cbc24224258180ab306aa48695852c9393ea4b5f40bfcaa800000000da0047304402202fbc837e53215fc8d78e89ba99b2a07b63dbfde8dd0a6110b811f9e01694a31a0220407c3be4fc2d07180dddd9912bfdc4c9d24f98c203226cdca9f4b0ec5522214b01483045022100883a827425bca62989825f8d60e03827c75819b9abd92ef4a2e8ca223c5bf08902203f094680335a90b3c6103573e791c940a66ad7418b1d637f1c978848c32d3dee014752210282392eaf026eb4e488f116d7f78a0a950fc55e2d454e9348af8a95d397b9e70a2102907a54bed8ad74b3f35638c60114ca240a308cb986f3f2f306178869a8880b6152aeffffffff0251e20f000000000017a9147134b78a9154405550dbabe5c5574ba118437a3f87d0a90200000000001976a91496fff054a874721792eb4d6cbf4e1d4d60b2554888ac00000000", "vin": [{"sequence": 4294967295, "scriptSig": {"hex": "004730440220252a38e202605056c308dfbb91e79756224bb74087fc9a1333641c4c4d11f3ad02207199450350417fd0b818e0839f7c8bc6090ab8724845e665efc8679c77d388f0014830450221008f95e6d4d02f40dea9bc4b271076ee6022c48af964231236053eb6374338782a022073cde77cf7f19e91e0ef0fc4951d79ca967d7ccc32d17a4815babf2d1b86837b0147522102907a54bed8ad74b3f35638c60114ca240a308cb986f3f2f306178869a8880b612103b8c61906e3a2f8d93164a7f2158a2bf5d840952249085126bda49fb19c2d32cc52ae", "asm": "0 30440220252a38e202605056c308dfbb91e79756224bb74087fc9a1333641c4c4d11f3ad02207199450350417fd0b818e0839f7c8bc6090ab8724845e665efc8679c77d388f0[ALL] 30450221008f95e6d4d02f40dea9bc4b271076ee6022c48af964231236053eb6374338782a022073cde77cf7f19e91e0ef0fc4951d79ca967d7ccc32d17a4815babf2d1b86837b[ALL] 522102907a54bed8ad74b3f35638c60114ca240a308cb986f3f2f306178869a8880b612103b8c61906e3a2f8d93164a7f2158a2bf5d840952249085126bda49fb19c2d32cc52ae"}, "vout": 0, "txid": "a8d5325b8088c6163e04a94ccbecd215f413efa2b70b223458b271a49d1a8243"}, {"sequence": 4294967295, "scriptSig": {"hex": "0047304402202fbc837e53215fc8d78e89ba99b2a07b63dbfde8dd0a6110b811f9e01694a31a0220407c3be4fc2d07180dddd9912bfdc4c9d24f98c203226cdca9f4b0ec5522214b01483045022100883a827425bca62989825f8d60e03827c75819b9abd92ef4a2e8ca223c5bf08902203f094680335a90b3c6103573e791c940a66ad7418b1d637f1c978848c32d3dee014752210282392eaf026eb4e488f116d7f78a0a950fc55e2d454e9348af8a95d397b9e70a2102907a54bed8ad74b3f35638c60114ca240a308cb986f3f2f306178869a8880b6152ae", "asm": "0 304402202fbc837e53215fc8d78e89ba99b2a07b63dbfde8dd0a6110b811f9e01694a31a0220407c3be4fc2d07180dddd9912bfdc4c9d24f98c203226cdca9f4b0ec5522214b[ALL] 3045022100883a827425bca62989825f8d60e03827c75819b9abd92ef4a2e8ca223c5bf08902203f094680335a90b3c6103573e791c940a66ad7418b1d637f1c978848c32d3dee[ALL] 52210282392eaf026eb4e488f116d7f78a0a950fc55e2d454e9348af8a95d397b9e70a2102907a54bed8ad74b3f35638c60114ca240a308cb986f3f2f306178869a8880b6152ae"}, "vout": 0, "txid": "a8cabf405f4bea93932c859586a46a30ab8081252442c2cbe978d89fd9dc8dfc"}], "txid": "c578e4586bd878c7ca3bb861efafbaf9a617512ce5423ce532ba33f37a6fdc2a", "blocktime": 1537874412, "version": 1, "confirmations": 11467, "time": 1537874412, "locktime": 0, "vsize": 594, "size": 594}