{"hash": "c5876e20630d827a5e88671e01ae601b767a1559ce8a7e06b224694e3617fefe", "blockhash": "0000000000000000001e0dab787dd257d1dbfcb92a98c2207d5e1078be1f4165", "vout": [{"scriptPubKey": {"reqSigs": 1, "hex": "76a914d2025da3571b44b3c3f580bfc4ce2550fb2fba6288ac", "addresses": ["1L9RjfMMCx2Xm1vhc4QJeTbQnqZKHfuNQ6"], "asm": "OP_DUP OP_HASH160 d2025da3571b44b3c3f580bfc4ce2550fb2fba62 OP_EQUALVERIFY OP_CHECKSIG", "type": "pubkeyhash"}, "value": 0.003124, "n": 0}, {"scriptPubKey": {"reqSigs": 1, "hex": "76a91425a1027d89adbcfd8a1c01669f2a3f2a9872b60588ac", "addresses": ["14RxtFVB9RcairpG5PPPLPYnWTnDc92yS2"], "asm": "OP_DUP OP_HASH160 25a1027d89adbcfd8a1c01669f2a3f2a9872b605 OP_EQUALVERIFY OP_CHECKSIG", "type": "pubkeyhash"}, "value": 0.01655843, "n": 1}], "hex": "0100000001ce2ae1cbafacabcb092dcff86a80d1b40b7cf4f86fe770b0e68e4725ce39843e010000006a473044022056beb8f4e2e7d919031e9868c3d08f7fba2556357bcf19ed57d617e092314b6a02207ee9854fe722fb2a3ab7e5f07b140f78b153bea631f1556c5ecd8e82100d7cf00121031c9304434aa31c4a3142131119316738a09b74bf7a6e8ac3a76be648b854f0dbffffffff0250c40400000000001976a914d2025da3571b44b3c3f580bfc4ce2550fb2fba6288ac23441900000000001976a91425a1027d89adbcfd8a1c01669f2a3f2a9872b60588ac00000000", "vin": [{"sequence": 4294967295, "scriptSig": {"hex": "473044022056beb8f4e2e7d919031e9868c3d08f7fba2556357bcf19ed57d617e092314b6a02207ee9854fe722fb2a3ab7e5f07b140f78b153bea631f1556c5ecd8e82100d7cf00121031c9304434aa31c4a3142131119316738a09b74bf7a6e8ac3a76be648b854f0db", "asm": "3044022056beb8f4e2e7d919031e9868c3d08f7fba2556357bcf19ed57d617e092314b6a02207ee9854fe722fb2a3ab7e5f07b140f78b153bea631f1556c5ecd8e82100d7cf0[ALL] 031c9304434aa31c4a3142131119316738a09b74bf7a6e8ac3a76be648b854f0db"}, "vout": 1, "txid": "3e8439ce25478ee6b070e76ff8f47c0bb4d1806af8cf2d09cbabacafcbe12ace"}], "txid": "c5876e20630d827a5e88671e01ae601b767a1559ce8a7e06b224694e3617fefe", "blocktime": 1537872475, "version": 1, "confirmations": 11487, "time": 1537872475, "locktime": 0, "vsize": 225, "size": 225}