{"hash": "c592dca539bcdec3afb844766bb3d7d972c6d57c1010b29c2be0393e97501964", "blockhash": "0000000000000000001cda96e906b7601b7a6fb1a3b62bca570a9e5d8f4b3de1", "vout": [{"scriptPubKey": {"reqSigs": 1, "hex": "76a914eb80f82b26f72fa3003d0185da1ac819031e624d88ac", "addresses": ["1NUEJ2qnbS6NeJ34NXRk1goDXyhV7GLBng"], "asm": "OP_DUP OP_HASH160 eb80f82b26f72fa3003d0185da1ac819031e624d OP_EQUALVERIFY OP_CHECKSIG", "type": "pubkeyhash"}, "value": 10.32242727, "n": 0}, {"scriptPubKey": {"reqSigs": 1, "hex": "76a914cc6dee41cbce9883991f02f886bbbe53a0d2c01f88ac", "addresses": ["1KdvYFbuFAHjUKRGnN15vYd9HpqUAfr99p"], "asm": "OP_DUP OP_HASH160 cc6dee41cbce9883991f02f886bbbe53a0d2c01f OP_EQUALVERIFY OP_CHECKSIG", "type": "pubkeyhash"}, "value": 0.22678377, "n": 1}], "hex": "0100000001e7a68136527dc353f26904d4e6a8c67aba190ba8263e0d07a0faca825e7360fe000000006a473044022042bcaf84abde7cfed00404ab92f65e6128adb031ee6a21aa9ee36b02dd6c9e0002200a8fc25885477550670e415e40b31cda603dad12d4d95c47013e5e8ed026e9e001210331b54d07931dd909c215aaf56732542c213f6e70f97a8a3355cebfc931c125ddffffffff0227c6863d000000001976a914eb80f82b26f72fa3003d0185da1ac819031e624d88ac690b5a01000000001976a914cc6dee41cbce9883991f02f886bbbe53a0d2c01f88ac00000000", "vin": [{"sequence": 4294967295, "scriptSig": {"hex": "473044022042bcaf84abde7cfed00404ab92f65e6128adb031ee6a21aa9ee36b02dd6c9e0002200a8fc25885477550670e415e40b31cda603dad12d4d95c47013e5e8ed026e9e001210331b54d07931dd909c215aaf56732542c213f6e70f97a8a3355cebfc931c125dd", "asm": "3044022042bcaf84abde7cfed00404ab92f65e6128adb031ee6a21aa9ee36b02dd6c9e0002200a8fc25885477550670e415e40b31cda603dad12d4d95c47013e5e8ed026e9e0[ALL] 0331b54d07931dd909c215aaf56732542c213f6e70f97a8a3355cebfc931c125dd"}, "vout": 0, "txid": "fe60735e82cafaa0070d3e26a80b19ba7ac6a8e6d40469f253c37d523681a6e7"}], "txid": "c592dca539bcdec3afb844766bb3d7d972c6d57c1010b29c2be0393e97501964", "blocktime": 1537873282, "version": 1, "confirmations": 11480, "time": 1537873282, "locktime": 0, "vsize": 225, "size": 225}