{"hash": "4a1397ab8c32f2e5214f21c480f97b1d42629d4ea413efd51ef73f57e51b6ed2", "blockhash": "0000000000000000000e13cef7c366c0283d82e591d1acd082e914b08063cdf1", "vout": [{"scriptPubKey": {"reqSigs": 1, "hex": "a9143e1e04e43029876867f7cf02f0503bc04f28465f87", "addresses": ["37MTnCdbj8AATMTcXaH2PhsRVnLJM5YYex"], "asm": "OP_HASH160 3e1e04e43029876867f7cf02f0503bc04f28465f OP_EQUAL", "type": "scripthash"}, "value": 0.0104061, "n": 0}, {"scriptPubKey": {"reqSigs": 1, "hex": "76a914107a356b5c2e100a5cfaf9b2adebd4c446757a2588ac", "addresses": ["12W8DH39T4srU3A5XHjnwM255WcrArbo7m"], "asm": "OP_DUP OP_HASH160 107a356b5c2e100a5cfaf9b2adebd4c446757a25 OP_EQUALVERIFY OP_CHECKSIG", "type": "pubkeyhash"}, "value": 0.0017156, "n": 1}], "hex": "0200000000010263957f5ffd775698d37a830e48bb9b35c101a110ef2f5a2b5fa697bb3eb5b128010000001716001489f343ca22aaecdbd80d4847541144438df45273feffffffdb227689a195ae193a885ff1da6a40fc341ba31b2d00f3d220815fbbafe2482c0b00000017160014e6d93537965ba0af73a9f38d975c1fa63a97c18dfeffffff02e2e00f000000000017a9143e1e04e43029876867f7cf02f0503bc04f28465f87289e0200000000001976a914107a356b5c2e100a5cfaf9b2adebd4c446757a2588ac0247304402204c228d0faad985ddb8c1dbee107c94badf2ce3d11049baa5efee05fef7ab4f7702206b4c467097c88d773eec27f51326788f99deb63a813ad5badc8fec25f1ed6fdd0121036b66ce81b9bb86d15e03ce8a63ffc2e6504a1e7f1bc624f90fa37913c407c60002483045022100e9c5e2a273a805cde6cd0fd3046879b4596d3dfd494341b2ab93a9f7b9edb275022045905e4a0fa7e7a05365b48e2fcfea7c1407f4ce185e0914379999de1c65061f012103619a099b397a0acd09aadfe8707a41a1f44887c52a6c12bfcf23b12a837fb4df10490800", "vin": [{"txinwitness": ["304402204c228d0faad985ddb8c1dbee107c94badf2ce3d11049baa5efee05fef7ab4f7702206b4c467097c88d773eec27f51326788f99deb63a813ad5badc8fec25f1ed6fdd01", "036b66ce81b9bb86d15e03ce8a63ffc2e6504a1e7f1bc624f90fa37913c407c600"], "sequence": 4294967294, "scriptSig": {"hex": "16001489f343ca22aaecdbd80d4847541144438df45273", "asm": "001489f343ca22aaecdbd80d4847541144438df45273"}, "vout": 1, "txid": "28b1b53ebb97a65f2b5a2fef10a101c1359bbb480e837ad3985677fd5f7f9563"}, {"txinwitness": ["3045022100e9c5e2a273a805cde6cd0fd3046879b4596d3dfd494341b2ab93a9f7b9edb275022045905e4a0fa7e7a05365b48e2fcfea7c1407f4ce185e0914379999de1c65061f01", "03619a099b397a0acd09aadfe8707a41a1f44887c52a6c12bfcf23b12a837fb4df"], "sequence": 4294967294, "scriptSig": {"hex": "160014e6d93537965ba0af73a9f38d975c1fa63a97c18d", "asm": "0014e6d93537965ba0af73a9f38d975c1fa63a97c18d"}, "vout": 11, "txid": "2c48e2afbb5f8120d2f3002d1ba31b34fc406adaf15f883a19ae95a1897622db"}], "txid": "c5a2c3420dd7d66ad3617876867a8f94bcbd6aff72257f8816677f91b5310510", "blocktime": 1537871767, "version": 2, "confirmations": 11495, "time": 1537871767, "locktime": 542992, "vsize": 259, "size": 421}