{"hash": "52868a308d68c081bf395da2535e2ad0bcb2cb213a5480f9b04a6508c70a3463", "blockhash": "0000000000000000000baef3f32e3676a92c3b2e5da21b426e4f302fc371ce76", "vout": [{"scriptPubKey": {"reqSigs": 1, "hex": "76a9148cfbbfff9eb2d7efba45f1e7566442c1a3a4c37c88ac", "addresses": ["1DrTBkeSbr8AJN9pLWumQhHgkZgDbR98eM"], "asm": "OP_DUP OP_HASH160 8cfbbfff9eb2d7efba45f1e7566442c1a3a4c37c OP_EQUALVERIFY OP_CHECKSIG", "type": "pubkeyhash"}, "value": 0.0023616, "n": 0}, {"scriptPubKey": {"reqSigs": 1, "hex": "a9140225f6cd5f7681426a9b52c5e7f97d1c1c25370b87", "addresses": ["31tNkiZLyaLbpSoE8GSmhnbd69iNBdJG6G"], "asm": "OP_HASH160 0225f6cd5f7681426a9b52c5e7f97d1c1c25370b OP_EQUAL", "type": "scripthash"}, "value": 0.01094567, "n": 1}], "hex": "020000000001025118c3fd8a531db2181685400e32c0ef7ff32b7acc84cd2957c5346125478fab0000000017160014f2728c9cf37ac99477b4e1a3471d92ee6db10682feffffffb44993f573d9173399fef7016ea9664d53c7576756a7817877a1569730467bae0300000017160014fccbb3f7a10ddbb0608af59eb997cd3b9ea51f0dfeffffff02809a0300000000001976a9148cfbbfff9eb2d7efba45f1e7566442c1a3a4c37c88aca7b310000000000017a9140225f6cd5f7681426a9b52c5e7f97d1c1c25370b8702473044022055d3c5f6c7100a58bc359bde17405336abfefc8e5f9ee087e761912a09f1229902201fcf1efb2a06410aee157cc316fbdef4dfbf04aa03cc97e48a7eacfa0954c21a012102010b97429372f543f60ce3578c23b74f95a6a20d3a9a3cb077db84bc840c262b0247304402205503ed00cc12b59cbb6ab4d8ba3c901006b773c4f9895d34365c9b2c09f31779022075e034f19e3f9dfab206d151d893d48a5d25740c34aa4fd2841f355f84bede1f0121037304b077ec77f2a9d6dd7d2d061103222b4ff02cb8212a347791c7ad7e284ac6df480800", "vin": [{"txinwitness": ["3044022055d3c5f6c7100a58bc359bde17405336abfefc8e5f9ee087e761912a09f1229902201fcf1efb2a06410aee157cc316fbdef4dfbf04aa03cc97e48a7eacfa0954c21a01", "02010b97429372f543f60ce3578c23b74f95a6a20d3a9a3cb077db84bc840c262b"], "sequence": 4294967294, "scriptSig": {"hex": "160014f2728c9cf37ac99477b4e1a3471d92ee6db10682", "asm": "0014f2728c9cf37ac99477b4e1a3471d92ee6db10682"}, "vout": 0, "txid": "ab8f47256134c55729cd84cc7a2bf37fefc0320e40851618b21d538afdc31851"}, {"txinwitness": ["304402205503ed00cc12b59cbb6ab4d8ba3c901006b773c4f9895d34365c9b2c09f31779022075e034f19e3f9dfab206d151d893d48a5d25740c34aa4fd2841f355f84bede1f01", "037304b077ec77f2a9d6dd7d2d061103222b4ff02cb8212a347791c7ad7e284ac6"], "sequence": 4294967294, "scriptSig": {"hex": "160014fccbb3f7a10ddbb0608af59eb997cd3b9ea51f0d", "asm": "0014fccbb3f7a10ddbb0608af59eb997cd3b9ea51f0d"}, "vout": 3, "txid": "ae7b46309756a1777881a7566757c7534d66a96e01f7fe993317d973f59349b4"}], "txid": "c5b02a3ee8ced78079de7d4be0beac513d25087363f3be922d4fa31538a63271", "blocktime": 1537876114, "version": 2, "confirmations": 11461, "time": 1537876114, "locktime": 542943, "vsize": 258, "size": 420}