{"hash": "c5b0b823ae0327faa0bcfa3f1153ff74a92a05b536064bb2c008a6108fb4470f", "blockhash": "0000000000000000001cda96e906b7601b7a6fb1a3b62bca570a9e5d8f4b3de1", "vout": [{"scriptPubKey": {"reqSigs": 1, "hex": "76a914dc4118defbbadc4f6373cb50df01bc7ef1614a7e88ac", "addresses": ["1M5beETv6aS9uw81oK76pP8sZPLaSMGjSu"], "asm": "OP_DUP OP_HASH160 dc4118defbbadc4f6373cb50df01bc7ef1614a7e OP_EQUALVERIFY OP_CHECKSIG", "type": "pubkeyhash"}, "value": 0.000145, "n": 0}, {"scriptPubKey": {"reqSigs": 1, "hex": "a9143a12ea7b3c9577e431a0d7323434c277dd6948c987", "addresses": ["36z5myNLEKqLWzEebde9ShL3tABPLA2o5d"], "asm": "OP_HASH160 3a12ea7b3c9577e431a0d7323434c277dd6948c9 OP_EQUAL", "type": "scripthash"}, "value": 0.43857732, "n": 1}], "hex": "010000000331f987a6f502079d8dac94e86d6c998270a462c123ddd195a4b9e9001796d8f7010000006b483045022100cea13e0cf498c40a4f5577227efd848485a87852da039f944cf92233e350462e022052ff1a5f293c2b468ebf2b416e27ac32146ae7a20b30e24bf5560949958b236001210239b5d5b503cf95d98cd1d1b979616e964f0b5dd5eef68b903379bf4dd08c0653ffffffff6e20ee09c0c0495db0e619523767afaac4c3626df63da7a2f6a8d59ed723454b000000006a4730440220063fd2b972170577b815ae94abb293b8532c34aa5e54849ff8aacfb648ff677a022041cac58de90bc5b8c66dfa366e5d5b2bd637c738bd9b6f998b5e8c07e63c331e01210239b5d5b503cf95d98cd1d1b979616e964f0b5dd5eef68b903379bf4dd08c0653ffffffff1db1628d1be309ebfb0d45148aa5827bc2374b255aacdfb1f0b001ab164095f5000000006b483045022100cbac81ba0b2f91f0e093c69ad6ab92a891ecac46bfa8bf155f3823f4a687e9a6022036c904ee2b348083397991ee531884ecfd02afd1875cff72e43d3eb6354c2a9401210303e353bb6f46eaf28d63b7e92a1e603470bded02615e451bc16b902a42e39f46ffffffff02a4380000000000001976a914dc4118defbbadc4f6373cb50df01bc7ef1614a7e88ac44379d020000000017a9143a12ea7b3c9577e431a0d7323434c277dd6948c98700000000", "vin": [{"sequence": 4294967295, "scriptSig": {"hex": "483045022100cea13e0cf498c40a4f5577227efd848485a87852da039f944cf92233e350462e022052ff1a5f293c2b468ebf2b416e27ac32146ae7a20b30e24bf5560949958b236001210239b5d5b503cf95d98cd1d1b979616e964f0b5dd5eef68b903379bf4dd08c0653", "asm": "3045022100cea13e0cf498c40a4f5577227efd848485a87852da039f944cf92233e350462e022052ff1a5f293c2b468ebf2b416e27ac32146ae7a20b30e24bf5560949958b2360[ALL] 0239b5d5b503cf95d98cd1d1b979616e964f0b5dd5eef68b903379bf4dd08c0653"}, "vout": 1, "txid": "f7d8961700e9b9a495d1dd23c162a47082996c6de894ac8d9d0702f5a687f931"}, {"sequence": 4294967295, "scriptSig": {"hex": "4730440220063fd2b972170577b815ae94abb293b8532c34aa5e54849ff8aacfb648ff677a022041cac58de90bc5b8c66dfa366e5d5b2bd637c738bd9b6f998b5e8c07e63c331e01210239b5d5b503cf95d98cd1d1b979616e964f0b5dd5eef68b903379bf4dd08c0653", "asm": "30440220063fd2b972170577b815ae94abb293b8532c34aa5e54849ff8aacfb648ff677a022041cac58de90bc5b8c66dfa366e5d5b2bd637c738bd9b6f998b5e8c07e63c331e[ALL] 0239b5d5b503cf95d98cd1d1b979616e964f0b5dd5eef68b903379bf4dd08c0653"}, "vout": 0, "txid": "4b4523d79ed5a8f6a2a73df66d62c3c4aaaf67375219e6b05d49c0c009ee206e"}, {"sequence": 4294967295, "scriptSig": {"hex": "483045022100cbac81ba0b2f91f0e093c69ad6ab92a891ecac46bfa8bf155f3823f4a687e9a6022036c904ee2b348083397991ee531884ecfd02afd1875cff72e43d3eb6354c2a9401210303e353bb6f46eaf28d63b7e92a1e603470bded02615e451bc16b902a42e39f46", "asm": "3045022100cbac81ba0b2f91f0e093c69ad6ab92a891ecac46bfa8bf155f3823f4a687e9a6022036c904ee2b348083397991ee531884ecfd02afd1875cff72e43d3eb6354c2a94[ALL] 0303e353bb6f46eaf28d63b7e92a1e603470bded02615e451bc16b902a42e39f46"}, "vout": 0, "txid": "f5954016ab01b0f0b1dfac5a254b37c27b82a58a14450dfbeb09e31b8d62b11d"}], "txid": "c5b0b823ae0327faa0bcfa3f1153ff74a92a05b536064bb2c008a6108fb4470f", "blocktime": 1537873282, "version": 1, "confirmations": 11485, "time": 1537873282, "locktime": 0, "vsize": 519, "size": 519}