{"hash": "f5bfa581ba7e7a4111c78d60df0fd3fcf982d949dc9a8934294b801315c394a0", "blockhash": "00000000000000000024a2167bbff67b0be802c0b01cdd79e6331c2be6459f87", "vout": [{"scriptPubKey": {"reqSigs": 1, "hex": "a9149c827d23a47d7f55508b57a2a60179878f26059d87", "addresses": ["3FxZezUie7aPGEorcfTZgVne6rJ84XosCs"], "asm": "OP_HASH160 9c827d23a47d7f55508b57a2a60179878f26059d OP_EQUAL", "type": "scripthash"}, "value": 0.01008167, "n": 0}, {"scriptPubKey": {"reqSigs": 1, "hex": "76a9148f0ef35d5a4bfb5a28d766193c19eefdcd22cd7088ac", "addresses": ["1E3RYDoGbnBubPaCkgYVVEtYccEffskKFm"], "asm": "OP_DUP OP_HASH160 8f0ef35d5a4bfb5a28d766193c19eefdcd22cd70 OP_EQUALVERIFY OP_CHECKSIG", "type": "pubkeyhash"}, "value": 0.0022676, "n": 1}], "hex": "02000000000102ca4d93ce8ff819ca8088ca39bbfa56aed0dc5cb8c972163bbab56e682482e95f0000000017160014e10aa2e7cf10af234f34940780b963bba499e402feffffffd13733bd37d5e3e7169343e565ba24505617655663a4c06c9d6bccb3be73d11e0300000017160014e5f56881e470cb462054a1178f7f8dac88d77a97feffffff0227620f000000000017a9149c827d23a47d7f55508b57a2a60179878f26059d87c8750300000000001976a9148f0ef35d5a4bfb5a28d766193c19eefdcd22cd7088ac02483045022100a771f41663da0715c07237ce7df1473a4b131a0001011ba72041cb11a1b4a66002200bddd86d037e7737cb314f665686ad895d19d6c83015d7bc0071c7906274e91b0121039b9dfe39393e8f02cfd91777212eaf711d380acd27693b9ed65b708969705594024730440220071b45645c08e423fca7c6ab0815945c623acb99dc4b8e83586c9c890379ce0f022057d95dd7905c60d0f7b42d1b92e5889762a446c5174b3255f0b2f583204c8a8c012103f857eda33a59c012364345ddc73e45186db49e08680bbc91d01c8576bf6bcbf40d490800", "vin": [{"txinwitness": ["3045022100a771f41663da0715c07237ce7df1473a4b131a0001011ba72041cb11a1b4a66002200bddd86d037e7737cb314f665686ad895d19d6c83015d7bc0071c7906274e91b01", "039b9dfe39393e8f02cfd91777212eaf711d380acd27693b9ed65b708969705594"], "sequence": 4294967294, "scriptSig": {"hex": "160014e10aa2e7cf10af234f34940780b963bba499e402", "asm": "0014e10aa2e7cf10af234f34940780b963bba499e402"}, "vout": 0, "txid": "5fe98224686eb5ba3b1672c9b85cdcd0ae56fabb39ca8880ca19f88fce934dca"}, {"txinwitness": ["30440220071b45645c08e423fca7c6ab0815945c623acb99dc4b8e83586c9c890379ce0f022057d95dd7905c60d0f7b42d1b92e5889762a446c5174b3255f0b2f583204c8a8c01", "03f857eda33a59c012364345ddc73e45186db49e08680bbc91d01c8576bf6bcbf4"], "sequence": 4294967294, "scriptSig": {"hex": "160014e5f56881e470cb462054a1178f7f8dac88d77a97", "asm": "0014e5f56881e470cb462054a1178f7f8dac88d77a97"}, "vout": 3, "txid": "1ed173beb3cc6b9d6cc0a463566517565024ba65e5439316e7e3d537bd3337d1"}], "txid": "c5b4262cc8d177471e259644888f6281ddedfdd27fd29d4ad8a5808f31da091c", "blocktime": 1537870564, "version": 2, "confirmations": 11515, "time": 1537870564, "locktime": 542989, "vsize": 259, "size": 421}