{"hash": "c5b8f5ee462524b5de1036a3e01db5d8e08df11d223f465deadd564cdc8122be", "blockhash": "0000000000000000000e13cef7c366c0283d82e591d1acd082e914b08063cdf1", "vout": [{"scriptPubKey": {"reqSigs": 1, "hex": "a914960ba2c94ff37d0bb4160674858da9dbcce7fb7c87", "addresses": ["3FNPDnzMwi4icrW1rGmJFXebg6wf1aTRMG"], "asm": "OP_HASH160 960ba2c94ff37d0bb4160674858da9dbcce7fb7c OP_EQUAL", "type": "scripthash"}, "value": 0.00703, "n": 0}, {"scriptPubKey": {"reqSigs": 1, "hex": "76a914fa14ad8b7bec2f2903681d5f178015b56e25835788ac", "addresses": ["1PoJhgfpErP51JgGn9ZPp6PPowYHCXxHTZ"], "asm": "OP_DUP OP_HASH160 fa14ad8b7bec2f2903681d5f178015b56e258357 OP_EQUALVERIFY OP_CHECKSIG", "type": "pubkeyhash"}, "value": 0.00232088, "n": 1}], "hex": "0100000001f6b9000f85143b7fdb0d7e724e7e5b27640afd2fb038f2e7d1018a1f6fffb936000000006a4730440220363594abbed7fc6eb4f597bcc62cd1f785b5eb459059cb99434a0300174b3d9b02204b585433642ff144ac8af7a62ee2f4e94c43f7a55b2407afca5e72d7e25c073e0121034bf1513afa00bd12f78c4323f522ee4e01870022976df19bf353477804989cfbffffffff0218ba0a000000000017a914960ba2c94ff37d0bb4160674858da9dbcce7fb7c87988a0300000000001976a914fa14ad8b7bec2f2903681d5f178015b56e25835788ac00000000", "vin": [{"sequence": 4294967295, "scriptSig": {"hex": "4730440220363594abbed7fc6eb4f597bcc62cd1f785b5eb459059cb99434a0300174b3d9b02204b585433642ff144ac8af7a62ee2f4e94c43f7a55b2407afca5e72d7e25c073e0121034bf1513afa00bd12f78c4323f522ee4e01870022976df19bf353477804989cfb", "asm": "30440220363594abbed7fc6eb4f597bcc62cd1f785b5eb459059cb99434a0300174b3d9b02204b585433642ff144ac8af7a62ee2f4e94c43f7a55b2407afca5e72d7e25c073e[ALL] 034bf1513afa00bd12f78c4323f522ee4e01870022976df19bf353477804989cfb"}, "vout": 0, "txid": "36b9ff6f1f8a01d1e7f238b02ffd0a64275b7e4e727e0ddb7f3b14850f00b9f6"}], "txid": "c5b8f5ee462524b5de1036a3e01db5d8e08df11d223f465deadd564cdc8122be", "blocktime": 1537871767, "version": 1, "confirmations": 11490, "time": 1537871767, "locktime": 0, "vsize": 223, "size": 223}