{"hash": "57700a89436508ff1a7805adacba4237e2677c284d801b994b94202aa1361942", "blockhash": "00000000000000000018f53835495a110e01622372bf6ae95dc86f2b0ab887b0", "vout": [{"scriptPubKey": {"reqSigs": 1, "hex": "76a914dc7e4849825cc1ef9f79d950bf08153d9871d55a88ac", "addresses": ["1M6rwTRyDnHWRqZso2SQeHg9f8qBZNAhUd"], "asm": "OP_DUP OP_HASH160 dc7e4849825cc1ef9f79d950bf08153d9871d55a OP_EQUALVERIFY OP_CHECKSIG", "type": "pubkeyhash"}, "value": 0.00010957, "n": 0}, {"scriptPubKey": {"reqSigs": 1, "hex": "a914716e6e08c98b9b44af6f9740f7a6fe42bab6051287", "addresses": ["3C2na24Xs5KLY5dt9zYiwbk3AXfUEHxwUg"], "asm": "OP_HASH160 716e6e08c98b9b44af6f9740f7a6fe42bab60512 OP_EQUAL", "type": "scripthash"}, "value": 0.0026106, "n": 1}, {"scriptPubKey": {"reqSigs": 1, "hex": "76a9140c0f0b50eb83f91a440bd9f7a7877040d74b1cad88ac", "addresses": ["126m8bJyFzauZTcEetFbC1MhfZ7zf9PDcM"], "asm": "OP_DUP OP_HASH160 0c0f0b50eb83f91a440bd9f7a7877040d74b1cad OP_EQUALVERIFY OP_CHECKSIG", "type": "pubkeyhash"}, "value": 0.00728333, "n": 2}, {"scriptPubKey": {"reqSigs": 1, "hex": "a914af985984f34cb304baac11b99d70ec7932a9374187", "addresses": ["3HhUgZBq91pkCbRYuz6wyWApJ6gWGDRane"], "asm": "OP_HASH160 af985984f34cb304baac11b99d70ec7932a93741 OP_EQUAL", "type": "scripthash"}, "value": 18.25620661, "n": 3}, {"scriptPubKey": {"reqSigs": 1, "hex": "a914ca99be9f494b673ed44ec22316f9ed9a4f7ac26b87", "addresses": ["3LAGbf3qcFgbSqGpLqDzF8xyW9b9u3iTCX"], "asm": "OP_HASH160 ca99be9f494b673ed44ec22316f9ed9a4f7ac26b OP_EQUAL", "type": "scripthash"}, "value": 0.01544135, "n": 4}, {"scriptPubKey": {"reqSigs": 1, "hex": "76a9141406fa7f8cb27e1be312cbd440432c1232b9fb6e88ac", "addresses": ["12ptsiHpdwQ8HTwhwPdGgJ9knFEZUcMwdS"], "asm": "OP_DUP OP_HASH160 1406fa7f8cb27e1be312cbd440432c1232b9fb6e OP_EQUALVERIFY OP_CHECKSIG", "type": "pubkeyhash"}, "value": 0.00328073, "n": 5}, {"scriptPubKey": {"reqSigs": 1, "hex": "a914654c7784e786be851adba2d5a8e46cbeb6e43dd187", "addresses": ["3Avdmvtpw2dv5fQYNbrbVm6YMoKxPiQmPD"], "asm": "OP_HASH160 654c7784e786be851adba2d5a8e46cbeb6e43dd1 OP_EQUAL", "type": "scripthash"}, "value": 0.00149278, "n": 6}, {"scriptPubKey": {"reqSigs": 1, "hex": "a914dcc8c715d21ed71a746e3c236d8819bbc25ccd4387", "addresses": ["3MpR72Lx8W3oeZZ57pHXF49xamQLYxAc1E"], "asm": "OP_HASH160 dcc8c715d21ed71a746e3c236d8819bbc25ccd43 OP_EQUAL", "type": "scripthash"}, "value": 0.00429683, "n": 7}, {"scriptPubKey": {"reqSigs": 1, "hex": "a91409a14954e5ff0fc863ba11069e41b9da1b10569587", "addresses": ["32ZwDecg8MaX29jv3NNEJV6kDAxxVXUrW8"], "asm": "OP_HASH160 09a14954e5ff0fc863ba11069e41b9da1b105695 OP_EQUAL", "type": "scripthash"}, "value": 0.0105, "n": 8}, {"scriptPubKey": {"reqSigs": 1, "hex": "76a9144c2a4401ea2c84d58a2b2b0643de10a0ab7f3f8288ac", "addresses": ["17wizFQ7adsR8oTRPXaoggoSCLQcasdqHX"], "asm": "OP_DUP OP_HASH160 4c2a4401ea2c84d58a2b2b0643de10a0ab7f3f82 OP_EQUALVERIFY OP_CHECKSIG", "type": "pubkeyhash"}, "value": 0.01331303, "n": 9}, {"scriptPubKey": {"reqSigs": 1, "hex": "a914f2929abc895fa9da120cda90d6219f2358c7dc9387", "addresses": ["3Pod5DpBMpTjFMVgeJ3U1oQKh69yae8KFr"], "asm": "OP_HASH160 f2929abc895fa9da120cda90d6219f2358c7dc93 OP_EQUAL", "type": "scripthash"}, "value": 0.0014477, "n": 10}, {"scriptPubKey": {"reqSigs": 1, "hex": "a914378dda35bbc79afd8f1e4998fee19080496049ce87", "addresses": ["36km2Are6zyh6YvWASYNEUhWr6GEXBy15c"], "asm": "OP_HASH160 378dda35bbc79afd8f1e4998fee19080496049ce OP_EQUAL", "type": "scripthash"}, "value": 0.002936, "n": 11}, {"scriptPubKey": {"reqSigs": 1, "hex": "76a914a997eb9b71585b00e8984ce9dbd015d68a206c2588ac", "addresses": ["1GTjC2imtvX3Njw6rmkDqyEXiMdPumaxCC"], "asm": "OP_DUP OP_HASH160 a997eb9b71585b00e8984ce9dbd015d68a206c25 OP_EQUALVERIFY OP_CHECKSIG", "type": "pubkeyhash"}, "value": 0.00781531, "n": 12}, {"scriptPubKey": {"reqSigs": 1, "hex": "a914428b1e484f32aee01305da8f99b148b20a76247b87", "addresses": ["37ksBK6k1WKiu1Akp2yZfKrhUc81mUbZZM"], "asm": "OP_HASH160 428b1e484f32aee01305da8f99b148b20a76247b OP_EQUAL", "type": "scripthash"}, "value": 0.005653, "n": 13}, {"scriptPubKey": {"reqSigs": 1, "hex": "a9144e1e4bff2fd977d9b9ed1b365452792ff76ef0f287", "addresses": ["38p4vZyry3YEXm62rqdBvK29qy7wQnrSD9"], "asm": "OP_HASH160 4e1e4bff2fd977d9b9ed1b365452792ff76ef0f2 OP_EQUAL", "type": "scripthash"}, "value": 0.00255, "n": 14}, {"scriptPubKey": {"reqSigs": 1, "hex": "76a914731d8efd0198fb038c65084c70195a833119740f88ac", "addresses": ["1BVg7ppMpPCda4qUrzhCzvF9GqMDJBteiR"], "asm": "OP_DUP OP_HASH160 731d8efd0198fb038c65084c70195a833119740f OP_EQUALVERIFY OP_CHECKSIG", "type": "pubkeyhash"}, "value": 0.00012355, "n": 15}, {"scriptPubKey": {"reqSigs": 1, "hex": "a9141815f1c05244bbdfffd0d491e51d36fab1917bc087", "addresses": ["33tNRsFZqWNMGeGo7wG3FVr4X7yywGoWdE"], "asm": "OP_HASH160 1815f1c05244bbdfffd0d491e51d36fab1917bc0 OP_EQUAL", "type": "scripthash"}, "value": 0.01261143, "n": 16}, {"scriptPubKey": {"reqSigs": 1, "hex": "a91416c5d8e325d84c318489452bcac1ada6223053ec87", "addresses": ["33mRoRsP3XeJb9Vh5spmovkPRUHRdRroNT"], "asm": "OP_HASH160 16c5d8e325d84c318489452bcac1ada6223053ec OP_EQUAL", "type": "scripthash"}, "value": 0.00370764, "n": 17}, {"scriptPubKey": {"reqSigs": 1, "hex": "a9149ddc9498fdb923a664386642300b6e3c7e3c7e1387", "addresses": ["3G5iFrqm9AH7UukfrZrDm5H85RwXWskNvS"], "asm": "OP_HASH160 9ddc9498fdb923a664386642300b6e3c7e3c7e13 OP_EQUAL", "type": "scripthash"}, "value": 0.065, "n": 18}, {"scriptPubKey": {"reqSigs": 1, "hex": "a914bfc27d58a30ddf00ad107cfb283dbffcb77050b887", "addresses": ["3KAwyZSAdHSZc8ect8vwFHEk1UKd71hJ7V"], "asm": "OP_HASH160 bfc27d58a30ddf00ad107cfb283dbffcb77050b8 OP_EQUAL", "type": "scripthash"}, "value": 0.00386907, "n": 19}, {"scriptPubKey": {"reqSigs": 1, "hex": "a914d69455068171328172994607cfa6face7d530d5a87", "addresses": ["3MFcDtisTvB7Wx4DCnyce8CFmCJWJJNDWM"], "asm": "OP_HASH160 d69455068171328172994607cfa6face7d530d5a OP_EQUAL", "type": "scripthash"}, "value": 0.00505317, "n": 20}, {"scriptPubKey": {"reqSigs": 1, "hex": "76a9146aa382a0a9f5befdb1b53971478637f1417c9c4588ac", "addresses": ["1AirWE8QZq9wA7MLZoYofyEJ8zxyTfWaM1"], "asm": "OP_DUP OP_HASH160 6aa382a0a9f5befdb1b53971478637f1417c9c45 OP_EQUALVERIFY OP_CHECKSIG", "type": "pubkeyhash"}, "value": 0.0027575, "n": 21}, {"scriptPubKey": {"reqSigs": 1, "hex": "a9143df95d78f68f0b96900d58de66996a4c5283ce9a87", "addresses": ["37LhsSNJDjbFGaAC7eoowq4yvxwupKAEyx"], "asm": "OP_HASH160 3df95d78f68f0b96900d58de66996a4c5283ce9a OP_EQUAL", "type": "scripthash"}, "value": 0.00611674, "n": 22}, {"scriptPubKey": {"reqSigs": 1, "hex": "a9140dfa353cb0a71e634288c4f508be779ef44b64f987", "addresses": ["32xvSnqqueB4c5EFDR8EWcqLeayEqVvYQb"], "asm": "OP_HASH160 0dfa353cb0a71e634288c4f508be779ef44b64f9 OP_EQUAL", "type": "scripthash"}, "value": 0.00451934, "n": 23}], "hex": "0200000000010186a9264b47055b215867d2ad23abb06a8152673748349413b2cd08393d9b547e1000000017160014b8589a4d4f85b2f261dccbc9b4aac33214c14252feffffff18cd2a0000000000001976a914dc7e4849825cc1ef9f79d950bf08153d9871d55a88acc4fb03000000000017a914716e6e08c98b9b44af6f9740f7a6fe42bab60512870d1d0b00000000001976a9140c0f0b50eb83f91a440bd9f7a7877040d74b1cad88acb5c2d06c0000000017a914af985984f34cb304baac11b99d70ec7932a9374187c78f17000000000017a914ca99be9f494b673ed44ec22316f9ed9a4f7ac26b8789010500000000001976a9141406fa7f8cb27e1be312cbd440432c1232b9fb6e88ac1e4702000000000017a914654c7784e786be851adba2d5a8e46cbeb6e43dd187738e06000000000017a914dcc8c715d21ed71a746e3c236d8819bbc25ccd4387900510000000000017a91409a14954e5ff0fc863ba11069e41b9da1b1056958767501400000000001976a9144c2a4401ea2c84d58a2b2b0643de10a0ab7f3f8288ac823502000000000017a914f2929abc895fa9da120cda90d6219f2358c7dc9387e07a04000000000017a914378dda35bbc79afd8f1e4998fee19080496049ce87dbec0b00000000001976a914a997eb9b71585b00e8984ce9dbd015d68a206c2588ac34a008000000000017a914428b1e484f32aee01305da8f99b148b20a76247b8718e403000000000017a9144e1e4bff2fd977d9b9ed1b365452792ff76ef0f28743300000000000001976a914731d8efd0198fb038c65084c70195a833119740f88ac573e13000000000017a9141815f1c05244bbdfffd0d491e51d36fab1917bc0874ca805000000000017a91416c5d8e325d84c318489452bcac1ada6223053ec87a02e63000000000017a9149ddc9498fdb923a664386642300b6e3c7e3c7e13875be705000000000017a914bfc27d58a30ddf00ad107cfb283dbffcb77050b887e5b507000000000017a914d69455068171328172994607cfa6face7d530d5a8726350400000000001976a9146aa382a0a9f5befdb1b53971478637f1417c9c4588ac5a5509000000000017a9143df95d78f68f0b96900d58de66996a4c5283ce9a875ee506000000000017a9140dfa353cb0a71e634288c4f508be779ef44b64f9870247304402201e52eb14768a57dc67a3eba89a8d3c25a06aa7c6039fc28af199fc0542f2f7b8022019482533033aa7fb45b6e8ad9adb961b2391360cf1f538cb4e0d00dd0786360b0121024f4e1f94cf3e034718682bdd5dbac535946a090cb53cef6f9fcfb5dc4644854fab480800", "vin": [{"txinwitness": ["304402201e52eb14768a57dc67a3eba89a8d3c25a06aa7c6039fc28af199fc0542f2f7b8022019482533033aa7fb45b6e8ad9adb961b2391360cf1f538cb4e0d00dd0786360b01", "024f4e1f94cf3e034718682bdd5dbac535946a090cb53cef6f9fcfb5dc4644854f"], "sequence": 4294967294, "scriptSig": {"hex": "160014b8589a4d4f85b2f261dccbc9b4aac33214c14252", "asm": "0014b8589a4d4f85b2f261dccbc9b4aac33214c14252"}, "vout": 16, "txid": "7e549b3d3908cdb213943448376752816ab0ab23add26758215b05474b26a986"}], "txid": "c5ba16d8841bb6431413eb30c3424de7471c1214970bb5c7e4a0d61f02f42e6e", "blocktime": 1537870928, "version": 2, "confirmations": 11512, "time": 1537870928, "locktime": 542891, "vsize": 884, "size": 965}