{"hash": "c5bde05323483c6c0fd84106cf20205e8d5e42b4e8ebf05cece32b3b6e6b0fe5", "blockhash": "0000000000000000000baef3f32e3676a92c3b2e5da21b426e4f302fc371ce76", "vout": [{"scriptPubKey": {"reqSigs": 1, "hex": "76a914eadb075441f89b5ea0acbd624421c2665c8f271c88ac", "addresses": ["1NQoWGL4SmzmbbCfw9usr45Smgb3P9vePE"], "asm": "OP_DUP OP_HASH160 eadb075441f89b5ea0acbd624421c2665c8f271c OP_EQUALVERIFY OP_CHECKSIG", "type": "pubkeyhash"}, "value": 4.22609814, "n": 0}, {"scriptPubKey": {"reqSigs": 1, "hex": "76a9146f85194839d0a99b5bf1bd9f4edcbf1e4f23fc4c88ac", "addresses": ["1BAfTA7Fg6Hqb71Hw4UK7DMLC5ZywYRra8"], "asm": "OP_DUP OP_HASH160 6f85194839d0a99b5bf1bd9f4edcbf1e4f23fc4c OP_EQUALVERIFY OP_CHECKSIG", "type": "pubkeyhash"}, "value": 5.46e-06, "n": 1}, {"scriptPubKey": {"type": "nulldata", "hex": "6a146f6d6e69000000000000001f0000001ed99d8d00", "asm": "OP_RETURN 6f6d6e69000000000000001f0000001ed99d8d00"}, "value": 0.0, "n": 2}], "hex": "01000000026c94d85c770a6b04e0f8245d786956b69e0c406b8d60607ad096c9aee3fc6171030000006b483045022100d714c216229fc9ae9b35c0b9efc74e49172ac86e56098a47556c04c1b7d3bd99022049dcff2551673249889b86b29984e41965194fcd3c863da690398df9da526cb501210287b20583de21035a6378cef5985443ae3ccf75dae17e18ebafef90eb656e0a11ffffffffe96ff90f847ce6ea9ec53190f1d44f9fd59969f02236bbfe58a2713c07e30f5d000000006b483045022100acf0cc3d7f8c0447df14fe5fb05556d2bfdd3b84fb7076acc65b5c1fffc7e44502207876f76119381244f2ffbee4c3652d383718a9179844aadcc4aa00dd1a744e4f01210379f59e95aae2e42172fb2819f25a529b5e2e176b3bfbe7b83ad79187e909e5aeffffffff0396833019000000001976a914eadb075441f89b5ea0acbd624421c2665c8f271c88ac22020000000000001976a9146f85194839d0a99b5bf1bd9f4edcbf1e4f23fc4c88ac0000000000000000166a146f6d6e69000000000000001f0000001ed99d8d0000000000", "vin": [{"sequence": 4294967295, "scriptSig": {"hex": "483045022100d714c216229fc9ae9b35c0b9efc74e49172ac86e56098a47556c04c1b7d3bd99022049dcff2551673249889b86b29984e41965194fcd3c863da690398df9da526cb501210287b20583de21035a6378cef5985443ae3ccf75dae17e18ebafef90eb656e0a11", "asm": "3045022100d714c216229fc9ae9b35c0b9efc74e49172ac86e56098a47556c04c1b7d3bd99022049dcff2551673249889b86b29984e41965194fcd3c863da690398df9da526cb5[ALL] 0287b20583de21035a6378cef5985443ae3ccf75dae17e18ebafef90eb656e0a11"}, "vout": 3, "txid": "7161fce3aec996d07a60608d6b400c9eb65669785d24f8e0046b0a775cd8946c"}, {"sequence": 4294967295, "scriptSig": {"hex": "483045022100acf0cc3d7f8c0447df14fe5fb05556d2bfdd3b84fb7076acc65b5c1fffc7e44502207876f76119381244f2ffbee4c3652d383718a9179844aadcc4aa00dd1a744e4f01210379f59e95aae2e42172fb2819f25a529b5e2e176b3bfbe7b83ad79187e909e5ae", "asm": "3045022100acf0cc3d7f8c0447df14fe5fb05556d2bfdd3b84fb7076acc65b5c1fffc7e44502207876f76119381244f2ffbee4c3652d383718a9179844aadcc4aa00dd1a744e4f[ALL] 0379f59e95aae2e42172fb2819f25a529b5e2e176b3bfbe7b83ad79187e909e5ae"}, "vout": 0, "txid": "5d0fe3073c71a258febb3622f06999d59f4fd4f19031c59eeae67c840ff96fe9"}], "txid": "c5bde05323483c6c0fd84106cf20205e8d5e42b4e8ebf05cece32b3b6e6b0fe5", "blocktime": 1537876114, "version": 1, "confirmations": 11459, "time": 1537876114, "locktime": 0, "vsize": 405, "size": 405}