{"hash": "d38cec76e715aa1f935eca0c8ca2e7d5fb209c73e28f49448a9a29c564f90fab", "blockhash": "00000000000000000004ffacab907a6b429b9a5745fa0b75af4234bf69dd7176", "vout": [{"scriptPubKey": {"reqSigs": 1, "hex": "76a9148943c7f746460541aba9111d33949c8d66d911c988ac", "addresses": ["1DWnmo8VUKssSGGVq4bwkMqHjHL9LL8FLY"], "asm": "OP_DUP OP_HASH160 8943c7f746460541aba9111d33949c8d66d911c9 OP_EQUALVERIFY OP_CHECKSIG", "type": "pubkeyhash"}, "value": 0.00285335, "n": 0}, {"scriptPubKey": {"reqSigs": 1, "hex": "a9140f29d2342662e2a6dd05c654513fe46f9353fe8287", "addresses": ["335CACiK9gFNMEPrUuCaEXNLUeCMJRuByH"], "asm": "OP_HASH160 0f29d2342662e2a6dd05c654513fe46f9353fe82 OP_EQUAL", "type": "scripthash"}, "value": 0.00998475, "n": 1}], "hex": "02000000000101d9d07b94dd9bd8a6ccc7345165292c57b0ef17f3e2dd524ff3ebbd824160dc000100000017160014efb380528cb18b2379d89f4fafc86154347c0d3efeffffff02975a0400000000001976a9148943c7f746460541aba9111d33949c8d66d911c988ac4b3c0f000000000017a9140f29d2342662e2a6dd05c654513fe46f9353fe828702483045022100b7bfecdb2a1d163411e59789ba612e244ffb5fbe3d691a7036da1da8846c142902206a22b48cd1e7f2670c0ad45140c5ca882902a06de787ec41700719f5dd74868a012103d50e9cca02715093ae2d220a5226993c1c47c9fd04ce72395a8a4eb228e9c18716490800", "vin": [{"txinwitness": ["3045022100b7bfecdb2a1d163411e59789ba612e244ffb5fbe3d691a7036da1da8846c142902206a22b48cd1e7f2670c0ad45140c5ca882902a06de787ec41700719f5dd74868a01", "03d50e9cca02715093ae2d220a5226993c1c47c9fd04ce72395a8a4eb228e9c187"], "sequence": 4294967294, "scriptSig": {"hex": "160014efb380528cb18b2379d89f4fafc86154347c0d3e", "asm": "0014efb380528cb18b2379d89f4fafc86154347c0d3e"}, "vout": 1, "txid": "00dc604182bdebf34f52dde2f317efb0572c29655134c7cca6d89bdd947bd0d9"}], "txid": "c5c96230e9acca3e41833913630d5c01054be60bbe9e32c5ed456f182ad76436", "blocktime": 1537875543, "version": 2, "confirmations": 11464, "time": 1537875543, "locktime": 542998, "vsize": 168, "size": 250}