{"hash": "41745a65030864eee981f7a636f28dffc9067036b89cac417e2bfa0fbc17772e", "blockhash": "0000000000000000001e0dab787dd257d1dbfcb92a98c2207d5e1078be1f4165", "vout": [{"scriptPubKey": {"reqSigs": 1, "hex": "a91463225babe31fb56172e3b3e1c257092facc2306487", "addresses": ["3AjByn28x7HsQK5yttWd1ZTUUi9DeQEPoU"], "asm": "OP_HASH160 63225babe31fb56172e3b3e1c257092facc23064 OP_EQUAL", "type": "scripthash"}, "value": 0.00082043, "n": 0}, {"scriptPubKey": {"reqSigs": 1, "hex": "a9140be7846be16b05bea00dbec2fcd7e045a793cb1787", "addresses": ["32mxhko5mJHfkbkDPpz7SfdJwEJi21P1WK"], "asm": "OP_HASH160 0be7846be16b05bea00dbec2fcd7e045a793cb17 OP_EQUAL", "type": "scripthash"}, "value": 0.1921656, "n": 1}], "hex": "01000000000101cbec49febc5a4be17fb96422e534ec0a7af8cf56e0e8af91c2511db27390be3d01000000232200202c66ece6da72bcbfeadf83a91236f4891c13e14d8ecebdcaa81666fc1aa73a31ffffffff027b4001000000000017a91463225babe31fb56172e3b3e1c257092facc2306487b03825010000000017a9140be7846be16b05bea00dbec2fcd7e045a793cb1787040047304402202d0d7d77505d4b21c536a3037a849e3bbac85c57aeb708ee7f772f9149c39c7302207e6b801584a20825253ebb23b68f7c4c8a694102af3dbb6dfa23ceb4a95a357101483045022100b168bc5005b028cdd6f5d498bb5f728d2ac7cddd493a06f3655c5773381b9cf7022022e3aec5e997948bd7cd4d772cc6dbd48902b2d4e51a39c061d12489de20e81f01475221029e6fbb942d34a473faaa5557c1bfe08d72102f0b9754ad140fd369d7a3ba3cdc2103871fc2ca08e6950b38867e8e6a0e94ee625223d3aa0df5c65f414c6d784467e252ae00000000", "vin": [{"txinwitness": ["", "304402202d0d7d77505d4b21c536a3037a849e3bbac85c57aeb708ee7f772f9149c39c7302207e6b801584a20825253ebb23b68f7c4c8a694102af3dbb6dfa23ceb4a95a357101", "3045022100b168bc5005b028cdd6f5d498bb5f728d2ac7cddd493a06f3655c5773381b9cf7022022e3aec5e997948bd7cd4d772cc6dbd48902b2d4e51a39c061d12489de20e81f01", "5221029e6fbb942d34a473faaa5557c1bfe08d72102f0b9754ad140fd369d7a3ba3cdc2103871fc2ca08e6950b38867e8e6a0e94ee625223d3aa0df5c65f414c6d784467e252ae"], "sequence": 4294967295, "scriptSig": {"hex": "2200202c66ece6da72bcbfeadf83a91236f4891c13e14d8ecebdcaa81666fc1aa73a31", "asm": "00202c66ece6da72bcbfeadf83a91236f4891c13e14d8ecebdcaa81666fc1aa73a31"}, "vout": 1, "txid": "3dbe9073b21d51c291afe8e056cff87a0aec34e52264b97fe14b5abcfe49eccb"}], "txid": "c5ca1fccf4a203dc8345cb57f44990cd86babcb922779e6548307cdc19cb93c7", "blocktime": 1537872475, "version": 1, "confirmations": 11487, "time": 1537872475, "locktime": 0, "vsize": 206, "size": 371}