{"hash": "8fdf37f9e818c21f8d4937319fda731f15f1da7fa96da240a9ef81f3de2f43d7", "blockhash": "000000000000000000022b45ed06c6f4ccd3cf7fb5ba4856ebd2e58215665228", "vout": [{"scriptPubKey": {"reqSigs": 1, "hex": "76a9140c9a9452e81e041691e42fc65e2d3ef269c5946888ac", "addresses": ["129eHfeMi4xaY6Hittoco6EbxnvizoHnPT"], "asm": "OP_DUP OP_HASH160 0c9a9452e81e041691e42fc65e2d3ef269c59468 OP_EQUALVERIFY OP_CHECKSIG", "type": "pubkeyhash"}, "value": 0.00151728, "n": 0}, {"scriptPubKey": {"reqSigs": 1, "hex": "a9140be7846be16b05bea00dbec2fcd7e045a793cb1787", "addresses": ["32mxhko5mJHfkbkDPpz7SfdJwEJi21P1WK"], "asm": "OP_HASH160 0be7846be16b05bea00dbec2fcd7e045a793cb17 OP_EQUAL", "type": "scripthash"}, "value": 0.20830171, "n": 1}], "hex": "010000000001026c25b3a8acbfc58cc8071ef4d66061af84762bad9fae970d988d48273bdaab4a01000000232200208a1b61403c3f94d2c0aab3d1b3ff0db83bff0b60a146e929747cfd862bd45e88ffffffff767d94e0ec8f262465fb52d7aa304c3737074d504923e23288b1633e2f54fcd101000000232200202c66ece6da72bcbfeadf83a91236f4891c13e14d8ecebdcaa81666fc1aa73a31ffffffff02b0500200000000001976a9140c9a9452e81e041691e42fc65e2d3ef269c5946888acdbd73d010000000017a9140be7846be16b05bea00dbec2fcd7e045a793cb17870400483045022100968588336c310469372f74497e016e7612cf439cea0dafb34e2215b0e853a39002205742db3cc7c229738fda32481ad42e4a980c41634774d8549a7be03eb1dd617301473044022027ec3c90800d5416b69bc08001a879d8ba6ad4342d72dfb97f20da961c878b9d022070a0dec71b1165cd21f12da12bd59a7f15285399b4eb13edd4bd4423581c394f014752210231b8be317b79895897213db6ee556781025ee7f104618fe64c6b8398d31f40702103871fc2ca08e6950b38867e8e6a0e94ee625223d3aa0df5c65f414c6d784467e252ae0400483045022100da79a5f402be2555307968aa54be1c1d21c3f09ebcf984298a1b21164f6e2b17022055a98e8b3f428781e8a3fde6ae9e54b515349312a063ef14d1f5aae1ec3a5d8e01483045022100c86d5a7fc11ae3e9881a4c41fce7090dbadff6c1b4a0ea2b5a56423c57dbc2b3022051d11c77ab8d5a9cd7d56d0a94a03e129d0fa9f0fc4305cc42806ef8f79dbfb701475221029e6fbb942d34a473faaa5557c1bfe08d72102f0b9754ad140fd369d7a3ba3cdc2103871fc2ca08e6950b38867e8e6a0e94ee625223d3aa0df5c65f414c6d784467e252ae00000000", "vin": [{"txinwitness": ["", "3045022100968588336c310469372f74497e016e7612cf439cea0dafb34e2215b0e853a39002205742db3cc7c229738fda32481ad42e4a980c41634774d8549a7be03eb1dd617301", "3044022027ec3c90800d5416b69bc08001a879d8ba6ad4342d72dfb97f20da961c878b9d022070a0dec71b1165cd21f12da12bd59a7f15285399b4eb13edd4bd4423581c394f01", "52210231b8be317b79895897213db6ee556781025ee7f104618fe64c6b8398d31f40702103871fc2ca08e6950b38867e8e6a0e94ee625223d3aa0df5c65f414c6d784467e252ae"], "sequence": 4294967295, "scriptSig": {"hex": "2200208a1b61403c3f94d2c0aab3d1b3ff0db83bff0b60a146e929747cfd862bd45e88", "asm": "00208a1b61403c3f94d2c0aab3d1b3ff0db83bff0b60a146e929747cfd862bd45e88"}, "vout": 1, "txid": "4aabda3b27488d980d97ae9fad2b7684af6160d6f41e07c88cc5bfaca8b3256c"}, {"txinwitness": ["", "3045022100da79a5f402be2555307968aa54be1c1d21c3f09ebcf984298a1b21164f6e2b17022055a98e8b3f428781e8a3fde6ae9e54b515349312a063ef14d1f5aae1ec3a5d8e01", "3045022100c86d5a7fc11ae3e9881a4c41fce7090dbadff6c1b4a0ea2b5a56423c57dbc2b3022051d11c77ab8d5a9cd7d56d0a94a03e129d0fa9f0fc4305cc42806ef8f79dbfb701", "5221029e6fbb942d34a473faaa5557c1bfe08d72102f0b9754ad140fd369d7a3ba3cdc2103871fc2ca08e6950b38867e8e6a0e94ee625223d3aa0df5c65f414c6d784467e252ae"], "sequence": 4294967295, "scriptSig": {"hex": "2200202c66ece6da72bcbfeadf83a91236f4891c13e14d8ecebdcaa81666fc1aa73a31", "asm": "00202c66ece6da72bcbfeadf83a91236f4891c13e14d8ecebdcaa81666fc1aa73a31"}, "vout": 1, "txid": "d1fc542f3e63b18832e22349504d0737374c30aad752fb6524268fece0947d76"}], "txid": "c5cd669adb004ec386ce5279fe0bc8bf6fd136f93475cdd9c55769c6c0a92c6b", "blocktime": 1537869901, "version": 1, "confirmations": 11524, "time": 1537869901, "locktime": 0, "vsize": 339, "size": 669}