{"hash": "047974c8586a50ac8bbc87a0c2db9f82b6e9c5e7e4127c1d0746f3aa0120a8b2", "blockhash": "00000000000000000017f5eb5941039fbcee6240d03bc1f2f8e35350df66a1d8", "vout": [{"scriptPubKey": {"reqSigs": 1, "hex": "76a914579b3f35fd24f7faf1f64155f487b469785c82f488ac", "addresses": ["18zDmSBbDrzUDyhMe4RCbZBwYeMGFoctt3"], "asm": "OP_DUP OP_HASH160 579b3f35fd24f7faf1f64155f487b469785c82f4 OP_EQUALVERIFY OP_CHECKSIG", "type": "pubkeyhash"}, "value": 0.00993476, "n": 0}, {"scriptPubKey": {"reqSigs": 1, "hex": "a9149649ad6d2730bb28020a268d9d80df10a9f74ad487", "addresses": ["3FPfYWwfMfKMGY7fuPHvz2b73RhTNGzsm3"], "asm": "OP_HASH160 9649ad6d2730bb28020a268d9d80df10a9f74ad4 OP_EQUAL", "type": "scripthash"}, "value": 13.813742, "n": 1}], "hex": "010000000001019fd6df5e908bfcfbd896a6affc1e9683d756f519dd584a5adc7a506f2ff6f8ee01000000232200207768efcc1e5eb3d28410fac3f45831004c860cc24cddd940a616b34324823fceffffffff02c4280f00000000001976a914579b3f35fd24f7faf1f64155f487b469785c82f488acf81856520000000017a9149649ad6d2730bb28020a268d9d80df10a9f74ad4870400473044022011712e331bf8f34cb8e2b15de934db73f53d3fbab8baa90a674548deb75bde59022000d4f5b8ead5c8252ac176f809caa3ac2c886d163a09b814728ece8466573741014830450221008fb9c07e10bee43ed8ec8b6ecf015837e2ef89231a79246a99d461ac521a78ec022064e3829ca81079aae0eca6a65a354fca0d8ce1972a9355f464b082e5298cd0280147522102529d5d1f6733ab45d9d50e07db42c7f6b967ae321c38b726c2247f149959b8262103d0c936a5988dd8421c63240496b723b0ec42400c38b9350e32c2eb4f47d8796952ae00000000", "vin": [{"txinwitness": ["", "3044022011712e331bf8f34cb8e2b15de934db73f53d3fbab8baa90a674548deb75bde59022000d4f5b8ead5c8252ac176f809caa3ac2c886d163a09b814728ece846657374101", "30450221008fb9c07e10bee43ed8ec8b6ecf015837e2ef89231a79246a99d461ac521a78ec022064e3829ca81079aae0eca6a65a354fca0d8ce1972a9355f464b082e5298cd02801", "522102529d5d1f6733ab45d9d50e07db42c7f6b967ae321c38b726c2247f149959b8262103d0c936a5988dd8421c63240496b723b0ec42400c38b9350e32c2eb4f47d8796952ae"], "sequence": 4294967295, "scriptSig": {"hex": "2200207768efcc1e5eb3d28410fac3f45831004c860cc24cddd940a616b34324823fce", "asm": "00207768efcc1e5eb3d28410fac3f45831004c860cc24cddd940a616b34324823fce"}, "vout": 1, "txid": "eef8f62f6f507adc5a4a58dd19f556d783961efcafa696d8fbfc8b905edfd69f"}], "txid": "c5d321348c0ee13eb881a41ebee03313503586f97f2546d6fafcbc9e20d4b27a", "blocktime": 1537874412, "version": 1, "confirmations": 11468, "time": 1537874412, "locktime": 0, "vsize": 208, "size": 373}