{"hash": "c5d7570feaa03754353cdf815e000f13ac26929f7d793f59dbcb43e61a297660", "blockhash": "0000000000000000001e0dab787dd257d1dbfcb92a98c2207d5e1078be1f4165", "vout": [{"scriptPubKey": {"type": "nulldata", "hex": "6a146f6d6e69000000000000001f0000000ba43b7400", "asm": "OP_RETURN 6f6d6e69000000000000001f0000000ba43b7400"}, "value": 0.0, "n": 0}, {"scriptPubKey": {"reqSigs": 1, "hex": "76a9148815e0bedd2b4fd7fc21163a7ce23ef559c346ba88ac", "addresses": ["1DQZ7CC3EdrcVPZnfi39t7mdH4kDobGdc4"], "asm": "OP_DUP OP_HASH160 8815e0bedd2b4fd7fc21163a7ce23ef559c346ba OP_EQUALVERIFY OP_CHECKSIG", "type": "pubkeyhash"}, "value": 0.00496396, "n": 1}, {"scriptPubKey": {"reqSigs": 1, "hex": "76a914a25dec4d0011064ef106a983c39c7a540699f22088ac", "addresses": ["1FoWyxwPXuj4C6abqwhjDWdz6D4PZgYRjA"], "asm": "OP_DUP OP_HASH160 a25dec4d0011064ef106a983c39c7a540699f220 OP_EQUALVERIFY OP_CHECKSIG", "type": "pubkeyhash"}, "value": 5.46e-06, "n": 2}], "hex": "010000000225fcff2cc51943ed67e20f6b9421f2f6f76610d3873264d84214cdddfa023827010000006a473044022020983d35cd9727ae70870935e4405410626153547820b5bee250a79037abd39d02202ffe85e752c944e8a5c1dc25c4fb3b23fa67aee2adc795ed4e6a764dac3f6963012103fa5fcb6b7310fd26fc006c27a89b75957ad8470be243d9255b9fd535667f42e2feffffff54823d87c7d8728c949ff55053012eabde330a4a3c3440abb731a23948d99d3e020000006b483045022100c6e06148fe1313aa14948ef17f8ea4fa7cb670b789b58c3de3dd52cf17d34ba6022064e5bbf077808efeb5ac4d973caf21defe27bb2db35c87880a518d52f87c4515012103fa5fcb6b7310fd26fc006c27a89b75957ad8470be243d9255b9fd535667f42e2feffffff030000000000000000166a146f6d6e69000000000000001f0000000ba43b74000c930700000000001976a9148815e0bedd2b4fd7fc21163a7ce23ef559c346ba88ac22020000000000001976a914a25dec4d0011064ef106a983c39c7a540699f22088ac12490800", "vin": [{"sequence": 4294967294, "scriptSig": {"hex": "473044022020983d35cd9727ae70870935e4405410626153547820b5bee250a79037abd39d02202ffe85e752c944e8a5c1dc25c4fb3b23fa67aee2adc795ed4e6a764dac3f6963012103fa5fcb6b7310fd26fc006c27a89b75957ad8470be243d9255b9fd535667f42e2", "asm": "3044022020983d35cd9727ae70870935e4405410626153547820b5bee250a79037abd39d02202ffe85e752c944e8a5c1dc25c4fb3b23fa67aee2adc795ed4e6a764dac3f6963[ALL] 03fa5fcb6b7310fd26fc006c27a89b75957ad8470be243d9255b9fd535667f42e2"}, "vout": 1, "txid": "273802faddcd1442d8643287d31066f7f6f221946b0fe267ed4319c52cfffc25"}, {"sequence": 4294967294, "scriptSig": {"hex": "483045022100c6e06148fe1313aa14948ef17f8ea4fa7cb670b789b58c3de3dd52cf17d34ba6022064e5bbf077808efeb5ac4d973caf21defe27bb2db35c87880a518d52f87c4515012103fa5fcb6b7310fd26fc006c27a89b75957ad8470be243d9255b9fd535667f42e2", "asm": "3045022100c6e06148fe1313aa14948ef17f8ea4fa7cb670b789b58c3de3dd52cf17d34ba6022064e5bbf077808efeb5ac4d973caf21defe27bb2db35c87880a518d52f87c4515[ALL] 03fa5fcb6b7310fd26fc006c27a89b75957ad8470be243d9255b9fd535667f42e2"}, "vout": 2, "txid": "3e9dd94839a231b7ab40343c4a0a33deab2e015350f59f948c72d8c7873d8254"}], "txid": "c5d7570feaa03754353cdf815e000f13ac26929f7d793f59dbcb43e61a297660", "blocktime": 1537872475, "version": 1, "confirmations": 11487, "time": 1537872475, "locktime": 542994, "vsize": 404, "size": 404}