{"hash": "c545134dc6a54a7e78b14fcd4c5851fa7719af007703b7dbc74ea800e51823da", "blockhash": "00000000000000000018f53835495a110e01622372bf6ae95dc86f2b0ab887b0", "vout": [{"scriptPubKey": {"reqSigs": 1, "hex": "a914a6eaba1bc408c3eaddd759efbd07856b08c7561587", "addresses": ["3GubHWDThkSdHTosh4At4CUbvkirb5kmyc"], "asm": "OP_HASH160 a6eaba1bc408c3eaddd759efbd07856b08c75615 OP_EQUAL", "type": "scripthash"}, "value": 0.000781, "n": 0}, {"scriptPubKey": {"reqSigs": 1, "hex": "a914b26b428ddf0f99e6b12cb15261ec56b3ba7c714887", "addresses": ["3HxQhF5CAq76hdawmdVGAXQ5QSTYq41aJ6"], "asm": "OP_HASH160 b26b428ddf0f99e6b12cb15261ec56b3ba7c7148 OP_EQUAL", "type": "scripthash"}, "value": 0.106155, "n": 1}], "hex": "01000000000101b54cd46c0393f45d9cb41cb1cc42c9d2f501656fd5929b8367fff03a1854118a0000000023220020e8a69342a06d34d8a56d3f064b79c489292ace47a428a41623b5878ce639a770ffffffff02143101000000000017a914a6eaba1bc408c3eaddd759efbd07856b08c7561587ccfaa1000000000017a914b26b428ddf0f99e6b12cb15261ec56b3ba7c7148870400483045022100bc0f1aec5212f1058a4155395dd2c953ff44cb367d4552f1212f90ce46909215022064f465bc13e95d281f9abae1664079ef5c2de477e942d361b593491c3d3267680147304402204ec30ffc0a62b534c83b9e150fa001d687fe339a7983af540d9d8460bc19958402206220635733b2c9c542c47647b1fffaf5c0c8c301d9bccc16f99c78a21492fe3501695221038211b8300842d6dbfbcd68c5672c90b3a3ad0009b988febda36b840cb07202a121029a276a8eb5ef14657c9bb731a44cbaec981aa16ed7ff7358b149fbb446c2e0a72103ed8f9246ea8846a6266bee385b762cffb6d49b85244a64f0f46f972df7f6652e53ae00000000", "vin": [{"txinwitness": ["", "3045022100bc0f1aec5212f1058a4155395dd2c953ff44cb367d4552f1212f90ce46909215022064f465bc13e95d281f9abae1664079ef5c2de477e942d361b593491c3d32676801", "304402204ec30ffc0a62b534c83b9e150fa001d687fe339a7983af540d9d8460bc19958402206220635733b2c9c542c47647b1fffaf5c0c8c301d9bccc16f99c78a21492fe3501", "5221038211b8300842d6dbfbcd68c5672c90b3a3ad0009b988febda36b840cb07202a121029a276a8eb5ef14657c9bb731a44cbaec981aa16ed7ff7358b149fbb446c2e0a72103ed8f9246ea8846a6266bee385b762cffb6d49b85244a64f0f46f972df7f6652e53ae"], "sequence": 4294967295, "scriptSig": {"hex": "220020e8a69342a06d34d8a56d3f064b79c489292ace47a428a41623b5878ce639a770", "asm": "0020e8a69342a06d34d8a56d3f064b79c489292ace47a428a41623b5878ce639a770"}, "vout": 0, "txid": "8a1154183af0ff67839b92d56f6501f5d2c942ccb11cb49c5df493036cd44cb5"}], "txid": "c5d9c73a3f8561420cec7c7a8f419e097d498ae6a136989750d606cb2825f15d", "blocktime": 1537870928, "version": 1, "confirmations": 11514, "time": 1537870928, "locktime": 0, "vsize": 214, "size": 405}