{"hash": "c5de2f62bd120f15e136297b24ced03997ef0369c96aea40c7e92234e8c30cbf", "blockhash": "00000000000000000004ffacab907a6b429b9a5745fa0b75af4234bf69dd7176", "vout": [{"scriptPubKey": {"reqSigs": 1, "hex": "a914ec189f6348ed6ff3ae8adefe50af2762f981415e87", "addresses": ["3PDNtdBLWjWBE8Q2PpkAfFzpKoF4LVq41V"], "asm": "OP_HASH160 ec189f6348ed6ff3ae8adefe50af2762f981415e OP_EQUAL", "type": "scripthash"}, "value": 0.04194132, "n": 0}, {"scriptPubKey": {"reqSigs": 1, "hex": "76a9145f0f179fa318e3796ac0ebe877607c1637365ea688ac", "addresses": ["19fdGrXPdEggfN38qbc1tpbYu356dXXDkH"], "asm": "OP_DUP OP_HASH160 5f0f179fa318e3796ac0ebe877607c1637365ea6 OP_EQUALVERIFY OP_CHECKSIG", "type": "pubkeyhash"}, "value": 0.00776561, "n": 1}], "hex": "0200000007c94e8c74799a572d24733441d7acd5866318465b896cb2281c09bcbeded89f055e0000006a473044022067860f086fc28ce676fedcfa1f30c6cdd2ee833f96aae7cd2cde3e9113748cb90220371d8b0a6e9ce9cc6f9540f9f13ed0f7d5ada111c39fdb32896e2e9a3d972c26012103cd38bfae3c7a2edbabbd49311a4459baf154f772d9b55b48ba39dd1bcdcadc9afeffffff217921823274ba4fb9a406ee297b76b36701c885a36cfcd7ef54b7f9acb4781a000000006b483045022100db277d18bcd87d87be9c3b336c53088dfef3308c19fa5f7a39bfa660e632bcef02200cd71384d29d5c47e2c3e52977c4867688da3a63e2880e68c1681d519bee4fa30121030bc45a480ae1ccb87d985f82dd815f4edbc7e54747277a6f75541c9f44027bc8feffffff27ff3505fbdb1a33ea18023dfde77da84e4a3459e25242e2e6d2cf9e6e69a6c3000000006a4730440220443df022df11290c8d24bcba01d82df86e459e083b980e70a5d7df552a88ea8802201e8ea5a1d6af18acf6b1ad65710d89652e9f8ca63dc4c3195141df46470d41d6012102611fd1f360628b9542079fb72e1357d04463f82cd636a43e660f342ec68f81defeffffffb41c843e27f5fb428b40e4ec26b178a8dc98a6261707b657836f801eb24ed1b5220000006b483045022100ba208c34f2b35f18bca986f56186b8befc6e6a74d88c11793f72fc7aca44d7fc022011d923af4d4d3ccbc629362c6eb144551c1490550276551711cf61cd4007a83b0121026c8ebaaff4555ae38338d3acfde4bffcb5493795c0fafb24f3f7a31efa75f071feffffffa5c95143433e1639b4bc31869281ea17ec97fdad7bb4b0dc1dca5777c9ec9efd0b0000006b483045022100bb2e9a3f885490c74eccfbd01c428070375a6109db21a1cb96233ca83520ab0202205dc2d70db81189f205b886f7a6089e5a3838eff11c68c86a92366ea53d6fdc06012102b755f08f701b876b4fb5417d1b45e1b7d6cbac43d060cc7eebf553587f9a1d44feffffffac41959401adbb60996b338d69de5719001882a018c1b46892eea0b9082870e1480000006b483045022100ba5382815089391183c459475e156477c5e7c4e3ee72885155b82d6dd758d83a02207f114f199f0aa349d31a87737b07a56e8ebb97d3f168f40885197b096caf270e01210319513ce98feac91206bd9f866d32850d03e3eb0c6bf0e92d8a2faa9ee74bfe7dfeffffff73bb601d0d7b1b239809e417192a897d7ec77b6ccab39f42bdba8c5fa26636b4000000006b483045022100a28d6abc860b64c68f2223c62fc6d371487640fdf3df617b50e32b4a8f1313b002202c58ee0934d7ad11b72a54734d41219b6dcf29a082a0baae3e44fd98ceab486d0121028d0ba7fd43938aaede2a77c8556cacfeaf74367e5ecf4281d8561af8831eab7bfeffffff0254ff3f000000000017a914ec189f6348ed6ff3ae8adefe50af2762f981415e8771d90b00000000001976a9145f0f179fa318e3796ac0ebe877607c1637365ea688acff480800", "vin": [{"sequence": 4294967294, "scriptSig": {"hex": "473044022067860f086fc28ce676fedcfa1f30c6cdd2ee833f96aae7cd2cde3e9113748cb90220371d8b0a6e9ce9cc6f9540f9f13ed0f7d5ada111c39fdb32896e2e9a3d972c26012103cd38bfae3c7a2edbabbd49311a4459baf154f772d9b55b48ba39dd1bcdcadc9a", "asm": "3044022067860f086fc28ce676fedcfa1f30c6cdd2ee833f96aae7cd2cde3e9113748cb90220371d8b0a6e9ce9cc6f9540f9f13ed0f7d5ada111c39fdb32896e2e9a3d972c26[ALL] 03cd38bfae3c7a2edbabbd49311a4459baf154f772d9b55b48ba39dd1bcdcadc9a"}, "vout": 94, "txid": "059fd8debebc091c28b26c895b46186386d5acd7413473242d579a79748c4ec9"}, {"sequence": 4294967294, "scriptSig": {"hex": "483045022100db277d18bcd87d87be9c3b336c53088dfef3308c19fa5f7a39bfa660e632bcef02200cd71384d29d5c47e2c3e52977c4867688da3a63e2880e68c1681d519bee4fa30121030bc45a480ae1ccb87d985f82dd815f4edbc7e54747277a6f75541c9f44027bc8", "asm": "3045022100db277d18bcd87d87be9c3b336c53088dfef3308c19fa5f7a39bfa660e632bcef02200cd71384d29d5c47e2c3e52977c4867688da3a63e2880e68c1681d519bee4fa3[ALL] 030bc45a480ae1ccb87d985f82dd815f4edbc7e54747277a6f75541c9f44027bc8"}, "vout": 0, "txid": "1a78b4acf9b754efd7fc6ca385c80167b3767b29ee06a4b94fba743282217921"}, {"sequence": 4294967294, "scriptSig": {"hex": "4730440220443df022df11290c8d24bcba01d82df86e459e083b980e70a5d7df552a88ea8802201e8ea5a1d6af18acf6b1ad65710d89652e9f8ca63dc4c3195141df46470d41d6012102611fd1f360628b9542079fb72e1357d04463f82cd636a43e660f342ec68f81de", "asm": "30440220443df022df11290c8d24bcba01d82df86e459e083b980e70a5d7df552a88ea8802201e8ea5a1d6af18acf6b1ad65710d89652e9f8ca63dc4c3195141df46470d41d6[ALL] 02611fd1f360628b9542079fb72e1357d04463f82cd636a43e660f342ec68f81de"}, "vout": 0, "txid": "c3a6696e9ecfd2e6e24252e259344a4ea87de7fd3d0218ea331adbfb0535ff27"}, {"sequence": 4294967294, "scriptSig": {"hex": "483045022100ba208c34f2b35f18bca986f56186b8befc6e6a74d88c11793f72fc7aca44d7fc022011d923af4d4d3ccbc629362c6eb144551c1490550276551711cf61cd4007a83b0121026c8ebaaff4555ae38338d3acfde4bffcb5493795c0fafb24f3f7a31efa75f071", "asm": "3045022100ba208c34f2b35f18bca986f56186b8befc6e6a74d88c11793f72fc7aca44d7fc022011d923af4d4d3ccbc629362c6eb144551c1490550276551711cf61cd4007a83b[ALL] 026c8ebaaff4555ae38338d3acfde4bffcb5493795c0fafb24f3f7a31efa75f071"}, "vout": 34, "txid": "b5d14eb21e806f8357b6071726a698dca878b126ece4408b42fbf5273e841cb4"}, {"sequence": 4294967294, "scriptSig": {"hex": "483045022100bb2e9a3f885490c74eccfbd01c428070375a6109db21a1cb96233ca83520ab0202205dc2d70db81189f205b886f7a6089e5a3838eff11c68c86a92366ea53d6fdc06012102b755f08f701b876b4fb5417d1b45e1b7d6cbac43d060cc7eebf553587f9a1d44", "asm": "3045022100bb2e9a3f885490c74eccfbd01c428070375a6109db21a1cb96233ca83520ab0202205dc2d70db81189f205b886f7a6089e5a3838eff11c68c86a92366ea53d6fdc06[ALL] 02b755f08f701b876b4fb5417d1b45e1b7d6cbac43d060cc7eebf553587f9a1d44"}, "vout": 11, "txid": "fd9eecc97757ca1ddcb0b47badfd97ec17ea81928631bcb439163e434351c9a5"}, {"sequence": 4294967294, "scriptSig": {"hex": "483045022100ba5382815089391183c459475e156477c5e7c4e3ee72885155b82d6dd758d83a02207f114f199f0aa349d31a87737b07a56e8ebb97d3f168f40885197b096caf270e01210319513ce98feac91206bd9f866d32850d03e3eb0c6bf0e92d8a2faa9ee74bfe7d", "asm": "3045022100ba5382815089391183c459475e156477c5e7c4e3ee72885155b82d6dd758d83a02207f114f199f0aa349d31a87737b07a56e8ebb97d3f168f40885197b096caf270e[ALL] 0319513ce98feac91206bd9f866d32850d03e3eb0c6bf0e92d8a2faa9ee74bfe7d"}, "vout": 72, "txid": "e1702808b9a0ee9268b4c118a08218001957de698d336b9960bbad01949541ac"}, {"sequence": 4294967294, "scriptSig": {"hex": "483045022100a28d6abc860b64c68f2223c62fc6d371487640fdf3df617b50e32b4a8f1313b002202c58ee0934d7ad11b72a54734d41219b6dcf29a082a0baae3e44fd98ceab486d0121028d0ba7fd43938aaede2a77c8556cacfeaf74367e5ecf4281d8561af8831eab7b", "asm": "3045022100a28d6abc860b64c68f2223c62fc6d371487640fdf3df617b50e32b4a8f1313b002202c58ee0934d7ad11b72a54734d41219b6dcf29a082a0baae3e44fd98ceab486d[ALL] 028d0ba7fd43938aaede2a77c8556cacfeaf74367e5ecf4281d8561af8831eab7b"}, "vout": 0, "txid": "b43666a25f8cbabd429fb3ca6c7bc77e7d892a1917e40998231b7b0d1d60bb73"}], "txid": "c5de2f62bd120f15e136297b24ced03997ef0369c96aea40c7e92234e8c30cbf", "blocktime": 1537875543, "version": 2, "confirmations": 11464, "time": 1537875543, "locktime": 542975, "vsize": 1110, "size": 1110}