{"hash": "6804fce2147e1aa39787ef8496a30948634d6e71e7640ae01e68847e7bbb1925", "blockhash": "0000000000000000000dcc0f55137456b1a82d3642486a52398922ac4d620174", "vout": [{"scriptPubKey": {"reqSigs": 1, "hex": "a914daf45f8db523183423f0e0b058e9a8f2042f668d87", "addresses": ["3MejyiP6nHtMVmsMpZrymvsrU4XSrXCzVD"], "asm": "OP_HASH160 daf45f8db523183423f0e0b058e9a8f2042f668d OP_EQUAL", "type": "scripthash"}, "value": 0.01001373, "n": 0}, {"scriptPubKey": {"reqSigs": 1, "hex": "a914fbdddc6b5afbea0ec02a2ef42c4b3f7f46ba54cd87", "addresses": ["3QemJsDasNWd7Kg3PYMgU3tFNf7bxCTAHT"], "asm": "OP_HASH160 fbdddc6b5afbea0ec02a2ef42c4b3f7f46ba54cd OP_EQUAL", "type": "scripthash"}, "value": 0.016, "n": 1}], "hex": "0200000000010341400bcbfa8a0400899cc411b66f957f09e1f0f898cc886d31c8d80604340008000000001716001428f06f5aac77eb6353dea0da46bb71e999d6eb6dfeffffff649f2438f48998d3d19356b9a521deb7779037ecad6bdbbc1238952d38d88b5e030000001716001433b2e6eaffeec89f2d3468e72a815ee319de8096feffffffd83c971c3727d91810c49faf9303f479abcfe9f145c794d685121f4cd4bb7022060000001716001433b2e6eaffeec89f2d3468e72a815ee319de8096feffffff029d470f000000000017a914daf45f8db523183423f0e0b058e9a8f2042f668d87006a18000000000017a914fbdddc6b5afbea0ec02a2ef42c4b3f7f46ba54cd87024730440220701102d959ab970b0cc176af341666ee0dd8f93b7f6a169e351230aefebf7135022071bf3c8aa99acf82beb67d078f32208a34e7433db9518523e5eb2eddb9fe3a840121021dbef469e44e412e73abc40e2b2b8d4935e68874390f688687a29d9b733759d402483045022100df8bf7c486eaf02bde1b6b5fedce43482f2bb8534ae70035911d41ec5d85d17c022009a123b642a974801a34e77920de76552d92886192faf427ec05b61679700720012103daa9b4166f33d016879880cf034cc10e7ee07601066581d497d45af08cc4274b02483045022100e6ab5cff9caff13293dad6e10d765aaf1022688b77016c3492d4ac4f009bfd5f022072c6d54b57d9d0e7665f570d3051970f0e78c7bceebf5afc96170386c87e0dc2012103daa9b4166f33d016879880cf034cc10e7ee07601066581d497d45af08cc4274b0c490800", "vin": [{"txinwitness": ["30440220701102d959ab970b0cc176af341666ee0dd8f93b7f6a169e351230aefebf7135022071bf3c8aa99acf82beb67d078f32208a34e7433db9518523e5eb2eddb9fe3a8401", "021dbef469e44e412e73abc40e2b2b8d4935e68874390f688687a29d9b733759d4"], "sequence": 4294967294, "scriptSig": {"hex": "16001428f06f5aac77eb6353dea0da46bb71e999d6eb6d", "asm": "001428f06f5aac77eb6353dea0da46bb71e999d6eb6d"}, "vout": 0, "txid": "0800340406d8c8316d88cc98f8f0e1097f956fb611c49c8900048afacb0b4041"}, {"txinwitness": ["3045022100df8bf7c486eaf02bde1b6b5fedce43482f2bb8534ae70035911d41ec5d85d17c022009a123b642a974801a34e77920de76552d92886192faf427ec05b6167970072001", "03daa9b4166f33d016879880cf034cc10e7ee07601066581d497d45af08cc4274b"], "sequence": 4294967294, "scriptSig": {"hex": "16001433b2e6eaffeec89f2d3468e72a815ee319de8096", "asm": "001433b2e6eaffeec89f2d3468e72a815ee319de8096"}, "vout": 3, "txid": "5e8bd8382d953812bcdb6badec379077b7de21a5b95693d1d39889f438249f64"}, {"txinwitness": ["3045022100e6ab5cff9caff13293dad6e10d765aaf1022688b77016c3492d4ac4f009bfd5f022072c6d54b57d9d0e7665f570d3051970f0e78c7bceebf5afc96170386c87e0dc201", "03daa9b4166f33d016879880cf034cc10e7ee07601066581d497d45af08cc4274b"], "sequence": 4294967294, "scriptSig": {"hex": "16001433b2e6eaffeec89f2d3468e72a815ee319de8096", "asm": "001433b2e6eaffeec89f2d3468e72a815ee319de8096"}, "vout": 6, "txid": "2270bbd44c1f1285d694c745f1e9cfab79f40393af9fc41018d927371c973cd8"}], "txid": "c5e083cd6f01fbc5d1f37312ab3d74395a3558be22b234abe1cdeed419ec7ccb", "blocktime": 1537870268, "version": 2, "confirmations": 11516, "time": 1537870268, "locktime": 542988, "vsize": 348, "size": 591}