{"hash": "58e884d0529d9e528cad75e97adb520ca70a3b8a747d241669b99be36f9184ba", "blockhash": "0000000000000000000e13cef7c366c0283d82e591d1acd082e914b08063cdf1", "vout": [{"scriptPubKey": {"reqSigs": 1, "hex": "a914b9c8bab95e7a002d88962bde94709bd74cb6b4ca87", "addresses": ["3JdMPxLnfM3WQrgdV1GuQprHXmVmKmkqXB"], "asm": "OP_HASH160 b9c8bab95e7a002d88962bde94709bd74cb6b4ca OP_EQUAL", "type": "scripthash"}, "value": 0.00859055, "n": 0}, {"scriptPubKey": {"reqSigs": 1, "hex": "76a9149f04b860fb14e43cc271efd15a3ebfe364627d8688ac", "addresses": ["1FVp6UAYPrx7w88GmeBtiXUjsxXhhDjzyz"], "asm": "OP_DUP OP_HASH160 9f04b860fb14e43cc271efd15a3ebfe364627d86 OP_EQUALVERIFY OP_CHECKSIG", "type": "pubkeyhash"}, "value": 0.09781104, "n": 1}, {"scriptPubKey": {"reqSigs": 1, "hex": "a914a5009ab5fa20de04fa06bd6ee99ee3d2193c242d87", "addresses": ["3GjU9BjxYCe68GVHFaM3UDqdZDMnrErWSE"], "asm": "OP_HASH160 a5009ab5fa20de04fa06bd6ee99ee3d2193c242d OP_EQUAL", "type": "scripthash"}, "value": 0.0019, "n": 2}, {"scriptPubKey": {"reqSigs": 1, "hex": "a914620f91444c6a05e70304e9aeb16831451d0c12b087", "addresses": ["3AdWnzHGnXNs6eYi3esYGde9YwJC1LdGok"], "asm": "OP_HASH160 620f91444c6a05e70304e9aeb16831451d0c12b0 OP_EQUAL", "type": "scripthash"}, "value": 0.00225415, "n": 3}, {"scriptPubKey": {"reqSigs": 1, "hex": "a914f60b1e1063661e168d337823dde1b08a6728035887", "addresses": ["3Q7yUBoo8TDbzNjqF4nJYpzHi7HVFt7G35"], "asm": "OP_HASH160 f60b1e1063661e168d337823dde1b08a67280358 OP_EQUAL", "type": "scripthash"}, "value": 0.00363083, "n": 4}, {"scriptPubKey": {"reqSigs": 1, "hex": "76a914b62103c21c350a2c7a7e4d55e45c60657074b7b488ac", "addresses": ["1Hc1XpB9e77AKq7S3mVQfh8YGuLzjXF8ri"], "asm": "OP_DUP OP_HASH160 b62103c21c350a2c7a7e4d55e45c60657074b7b4 OP_EQUALVERIFY OP_CHECKSIG", "type": "pubkeyhash"}, "value": 0.00349775, "n": 5}, {"scriptPubKey": {"reqSigs": 1, "hex": "a9144d2a469da2de375f4d56bf9d7ade5343d842e14487", "addresses": ["38j2bh5Job57QaHg9BepwUYWXXiYE9AGN3"], "asm": "OP_HASH160 4d2a469da2de375f4d56bf9d7ade5343d842e144 OP_EQUAL", "type": "scripthash"}, "value": 0.0052775, "n": 6}, {"scriptPubKey": {"reqSigs": 1, "hex": "a914c7b0da051bc23752b7d100baab49b5c116b6f11787", "addresses": ["3KttFauZV1AvbJ1TkthJ7iWwuvBwAEhuAY"], "asm": "OP_HASH160 c7b0da051bc23752b7d100baab49b5c116b6f117 OP_EQUAL", "type": "scripthash"}, "value": 0.00361133, "n": 7}, {"scriptPubKey": {"reqSigs": 1, "hex": "76a91406872a2692ddf692e83f6d1ed85620037b379a9888ac", "addresses": ["1bWyZDyp2isuxDMShKfXAmq3AYzSqpQEk"], "asm": "OP_DUP OP_HASH160 06872a2692ddf692e83f6d1ed85620037b379a98 OP_EQUALVERIFY OP_CHECKSIG", "type": "pubkeyhash"}, "value": 0.0150528, "n": 8}, {"scriptPubKey": {"reqSigs": 1, "hex": "a9149c8797afc32b09197ac01cdb55454ba7d61c292387", "addresses": ["3FxfmbwEmf6v8vVmC52XVR7VWv9dQPQkvx"], "asm": "OP_HASH160 9c8797afc32b09197ac01cdb55454ba7d61c2923 OP_EQUAL", "type": "scripthash"}, "value": 0.00337166, "n": 9}, {"scriptPubKey": {"reqSigs": 1, "hex": "a914130e46961261a40ac8a58f816b44cf676821084787", "addresses": ["33Rms5o21s2xqom12PEvJZbvR5EnFPFe4h"], "asm": "OP_HASH160 130e46961261a40ac8a58f816b44cf6768210847 OP_EQUAL", "type": "scripthash"}, "value": 0.00223838, "n": 10}, {"scriptPubKey": {"reqSigs": 1, "hex": "76a914621316a85b56080ff83a7d10b03b7af9e24112c088ac", "addresses": ["19wa66LgkvbwG4eg7BGMJrntKheZCuatfc"], "asm": "OP_DUP OP_HASH160 621316a85b56080ff83a7d10b03b7af9e24112c0 OP_EQUALVERIFY OP_CHECKSIG", "type": "pubkeyhash"}, "value": 0.00092, "n": 11}, {"scriptPubKey": {"reqSigs": 1, "hex": "76a9149012ba0fb163b9755df9791cd9670a3f0c0fd4bb88ac", "addresses": ["1E8njnWN9d98ygFysTq8XZqjZ4S7K21BcD"], "asm": "OP_DUP OP_HASH160 9012ba0fb163b9755df9791cd9670a3f0c0fd4bb OP_EQUALVERIFY OP_CHECKSIG", "type": "pubkeyhash"}, "value": 0.0072, "n": 12}, {"scriptPubKey": {"reqSigs": 1, "hex": "a914d093539e0adac0c928cabe5f1554653b588cf6ff87", "addresses": ["3LhrxstYywHDcoBMMgxRsrGuWkoYBRwz9J"], "asm": "OP_HASH160 d093539e0adac0c928cabe5f1554653b588cf6ff OP_EQUAL", "type": "scripthash"}, "value": 31.2696007, "n": 13}, {"scriptPubKey": {"reqSigs": 1, "hex": "a914f02302ed454f267c3d1557007d93abe1f84485d887", "addresses": ["3Pak3DiYkvML1JHDUNrtYVxFh5DNBTD5L5"], "asm": "OP_HASH160 f02302ed454f267c3d1557007d93abe1f84485d8 OP_EQUAL", "type": "scripthash"}, "value": 0.00625813, "n": 14}, {"scriptPubKey": {"reqSigs": 1, "hex": "a9141dc8287c83f549a4fb78b420f892f43cc092805487", "addresses": ["34QVJLcL6PZy2b7vzEmTftzjFSpe6HF9BE"], "asm": "OP_HASH160 1dc8287c83f549a4fb78b420f892f43cc0928054 OP_EQUAL", "type": "scripthash"}, "value": 0.035, "n": 15}, {"scriptPubKey": {"reqSigs": 1, "hex": "a914083b5273ffb062646478769d9687c44c94617a1887", "addresses": ["32SYPrC7m6sHxi2XgHMrq8tzBWTwKLofGp"], "asm": "OP_HASH160 083b5273ffb062646478769d9687c44c94617a18 OP_EQUAL", "type": "scripthash"}, "value": 0.00475549, "n": 16}, {"scriptPubKey": {"reqSigs": 1, "hex": "76a9145b46e81cd3c9c3073fbdce0ce9f9150cd406091c88ac", "addresses": ["19KdS9785NHmV1xQnXQdtxVHPjDdFVa24U"], "asm": "OP_DUP OP_HASH160 5b46e81cd3c9c3073fbdce0ce9f9150cd406091c OP_EQUALVERIFY OP_CHECKSIG", "type": "pubkeyhash"}, "value": 0.022, "n": 17}, {"scriptPubKey": {"reqSigs": 1, "hex": "76a9147a169f17da36fa6c6df56e942ed1a2e24a4ae6c288ac", "addresses": ["1C8YYAr2pMrLzfqM9rTz4zk7wnJHRZyKEM"], "asm": "OP_DUP OP_HASH160 7a169f17da36fa6c6df56e942ed1a2e24a4ae6c2 OP_EQUALVERIFY OP_CHECKSIG", "type": "pubkeyhash"}, "value": 0.06969376, "n": 18}, {"scriptPubKey": {"reqSigs": 1, "hex": "76a914c8cfc1676c44a7246122096371f5c5a8ef864bcb88ac", "addresses": ["1KJo2UGkxnPxqASEq8Bd7didVkNjWcxoNT"], "asm": "OP_DUP OP_HASH160 c8cfc1676c44a7246122096371f5c5a8ef864bcb OP_EQUALVERIFY OP_CHECKSIG", "type": "pubkeyhash"}, "value": 0.00415, "n": 19}, {"scriptPubKey": {"reqSigs": 1, "hex": "76a91488456eeab35277c839fa02b709e260ba588ecf2588ac", "addresses": ["1DRY5Q2bPzjJsZaKgnBfd9JnWPwPmWHupN"], "asm": "OP_DUP OP_HASH160 88456eeab35277c839fa02b709e260ba588ecf25 OP_EQUALVERIFY OP_CHECKSIG", "type": "pubkeyhash"}, "value": 0.07939216, "n": 20}, {"scriptPubKey": {"reqSigs": 1, "hex": "76a914afc48b801c3eeda1d00fd63fbe9bdd88ded3616388ac", "addresses": ["1H2NhkZSFb8tWvMgn8JQoofjPQ4hoqcUVi"], "asm": "OP_DUP OP_HASH160 afc48b801c3eeda1d00fd63fbe9bdd88ded36163 OP_EQUALVERIFY OP_CHECKSIG", "type": "pubkeyhash"}, "value": 0.0495182, "n": 21}, {"scriptPubKey": {"reqSigs": 1, "hex": "76a914b91fd65ca92e0e2fc773c7667a1d59ce3e1dc11388ac", "addresses": ["1Hsr9b2GPvG3Uwg8pEEXUT59kmQiofEDnq"], "asm": "OP_DUP OP_HASH160 b91fd65ca92e0e2fc773c7667a1d59ce3e1dc113 OP_EQUALVERIFY OP_CHECKSIG", "type": "pubkeyhash"}, "value": 0.05924833, "n": 22}, {"scriptPubKey": {"reqSigs": 1, "hex": "a9141a7b624ba7455d1e6c83e51ef1556675cfa5300287", "addresses": ["3473JQ8hLJ1xPYmHajGgLpqCJvwwyzzUUY"], "asm": "OP_HASH160 1a7b624ba7455d1e6c83e51ef1556675cfa53002 OP_EQUAL", "type": "scripthash"}, "value": 0.00357, "n": 23}, {"scriptPubKey": {"reqSigs": 1, "hex": "76a914abe12df0e2865fc85c64fb907f807893399f348c88ac", "addresses": ["1GfpJYfawTWpZqmHzTyWCiqWNjNZkBCwgQ"], "asm": "OP_DUP OP_HASH160 abe12df0e2865fc85c64fb907f807893399f348c OP_EQUALVERIFY OP_CHECKSIG", "type": "pubkeyhash"}, "value": 0.018, "n": 24}, {"scriptPubKey": {"reqSigs": 1, "hex": "a91425dd8f8008332014af57be04d88e9bd7417da92287", "addresses": ["359ELwNKr5r1Pwgwqi3eJEr9wqAspXkuPL"], "asm": "OP_HASH160 25dd8f8008332014af57be04d88e9bd7417da922 OP_EQUAL", "type": "scripthash"}, "value": 0.01264361, "n": 25}, {"scriptPubKey": {"reqSigs": 1, "hex": "a9149dfcb6f584e894154d4535263d7f23620f4a9aba87", "addresses": ["3G6NkatqLvx8ZPgfpN2BMRiwiVqvhxGgoQ"], "asm": "OP_HASH160 9dfcb6f584e894154d4535263d7f23620f4a9aba OP_EQUAL", "type": "scripthash"}, "value": 0.00127529, "n": 26}, {"scriptPubKey": {"reqSigs": 1, "hex": "76a9145926497c178e14f2aaedb1fa72701951ce97372888ac", "addresses": ["198P1JcrKopmELL4dNDzLaNodBRU6pMAMF"], "asm": "OP_DUP OP_HASH160 5926497c178e14f2aaedb1fa72701951ce973728 OP_EQUALVERIFY OP_CHECKSIG", "type": "pubkeyhash"}, "value": 0.01055313, "n": 27}, {"scriptPubKey": {"reqSigs": 1, "hex": "a9141cfefeb3c0bbe65435ba88bbf93728318b48ae3b87", "addresses": ["34LLKGosNYpeeB8XFj5rySqF4SEYgQkSYt"], "asm": "OP_HASH160 1cfefeb3c0bbe65435ba88bbf93728318b48ae3b OP_EQUAL", "type": "scripthash"}, "value": 0.01125, "n": 28}, {"scriptPubKey": {"reqSigs": 1, "hex": "76a9146782de4a8a606884312a71c7a8f81a8f52a5001d88ac", "addresses": ["1ASKNeemAwjGXydqwPTpG5hh2XatqRVbbm"], "asm": "OP_DUP OP_HASH160 6782de4a8a606884312a71c7a8f81a8f52a5001d OP_EQUALVERIFY OP_CHECKSIG", "type": "pubkeyhash"}, "value": 0.00101627, "n": 29}, {"scriptPubKey": {"reqSigs": 1, "hex": "a9140e5433865f04ddd00587edaa5b181d4ea62b0f8587", "addresses": ["32znFdrAS6GDMzxfjCJXe1Hw3k1C2Zn6vW"], "asm": "OP_HASH160 0e5433865f04ddd00587edaa5b181d4ea62b0f85 OP_EQUAL", "type": "scripthash"}, "value": 0.08832804, "n": 30}, {"scriptPubKey": {"reqSigs": 1, "hex": "76a9145785b9670e38f805b00e13ebd5d4b95509c8683f88ac", "addresses": ["18ymz1frAuAB8PH66yP5uEC6zNUkGeAu6g"], "asm": "OP_DUP OP_HASH160 5785b9670e38f805b00e13ebd5d4b95509c8683f OP_EQUALVERIFY OP_CHECKSIG", "type": "pubkeyhash"}, "value": 0.00503642, "n": 31}, {"scriptPubKey": {"reqSigs": 1, "hex": "76a9148cebef33ea53c354689796c7518cf485afa4074888ac", "addresses": ["1Dr8EsA88QrNz6qsuH1FoyawAy3KkUAixA"], "asm": "OP_DUP OP_HASH160 8cebef33ea53c354689796c7518cf485afa40748 OP_EQUALVERIFY OP_CHECKSIG", "type": "pubkeyhash"}, "value": 0.0015633, "n": 32}, {"scriptPubKey": {"reqSigs": 1, "hex": "a914aa282134b8eb20290803c2ab5dcb537e65cb66da87", "addresses": ["3HCisR63LmkW85NXuYTuw6ujdYP6rivWor"], "asm": "OP_HASH160 aa282134b8eb20290803c2ab5dcb537e65cb66da OP_EQUAL", "type": "scripthash"}, "value": 0.0034063, "n": 33}, {"scriptPubKey": {"reqSigs": 1, "hex": "a9141249d8275c84d3f60a6f63af94117703088d96b587", "addresses": ["33MiYntyp7myR7QxVN22yXHnPTRcoTEsCF"], "asm": "OP_HASH160 1249d8275c84d3f60a6f63af94117703088d96b5 OP_EQUAL", "type": "scripthash"}, "value": 0.00226217, "n": 34}], "hex": "0200000000010133c5c75bd2c46174a8775b689724a4a7958a12f458666ecfe600f8353e2ab71e1100000017160014f42aef89d7fc91d7ec052d38b3f5351d4fc6189bfeffffff23af1b0d000000000017a914b9c8bab95e7a002d88962bde94709bd74cb6b4ca87703f9500000000001976a9149f04b860fb14e43cc271efd15a3ebfe364627d8688ac30e602000000000017a914a5009ab5fa20de04fa06bd6ee99ee3d2193c242d87877003000000000017a914620f91444c6a05e70304e9aeb16831451d0c12b0874b8a05000000000017a914f60b1e1063661e168d337823dde1b08a67280358874f560500000000001976a914b62103c21c350a2c7a7e4d55e45c60657074b7b488ac860d08000000000017a9144d2a469da2de375f4d56bf9d7ade5343d842e14487ad8205000000000017a914c7b0da051bc23752b7d100baab49b5c116b6f1178700f81600000000001976a91406872a2692ddf692e83f6d1ed85620037b379a9888ac0e2505000000000017a9149c8797afc32b09197ac01cdb55454ba7d61c2923875e6a03000000000017a914130e46961261a40ac8a58f816b44cf67682108478760670100000000001976a914621316a85b56080ff83a7d10b03b7af9e24112c088ac80fc0a00000000001976a9149012ba0fb163b9755df9791cd9670a3f0c0fd4bb88acc69f61ba0000000017a914d093539e0adac0c928cabe5f1554653b588cf6ff87958c09000000000017a914f02302ed454f267c3d1557007d93abe1f84485d887e06735000000000017a9141dc8287c83f549a4fb78b420f892f43cc0928054879d4107000000000017a914083b5273ffb062646478769d9687c44c94617a1887c0912100000000001976a9145b46e81cd3c9c3073fbdce0ce9f9150cd406091c88ac20586a00000000001976a9147a169f17da36fa6c6df56e942ed1a2e24a4ae6c288ac18550600000000001976a914c8cfc1676c44a7246122096371f5c5a8ef864bcb88ac90247900000000001976a91488456eeab35277c839fa02b709e260ba588ecf2588ac0c8f4b00000000001976a914afc48b801c3eeda1d00fd63fbe9bdd88ded3616388ace1675a00000000001976a914b91fd65ca92e0e2fc773c7667a1d59ce3e1dc11388ac887205000000000017a9141a7b624ba7455d1e6c83e51ef1556675cfa530028740771b00000000001976a914abe12df0e2865fc85c64fb907f807893399f348c88ace94a13000000000017a91425dd8f8008332014af57be04d88e9bd7417da9228729f201000000000017a9149dfcb6f584e894154d4535263d7f23620f4a9aba87511a1000000000001976a9145926497c178e14f2aaedb1fa72701951ce97372888ac882a11000000000017a9141cfefeb3c0bbe65435ba88bbf93728318b48ae3b87fb8c0100000000001976a9146782de4a8a606884312a71c7a8f81a8f52a5001d88ac24c786000000000017a9140e5433865f04ddd00587edaa5b181d4ea62b0f85875aaf0700000000001976a9145785b9670e38f805b00e13ebd5d4b95509c8683f88acaa620200000000001976a9148cebef33ea53c354689796c7518cf485afa4074888ac963205000000000017a914aa282134b8eb20290803c2ab5dcb537e65cb66da87a97303000000000017a9141249d8275c84d3f60a6f63af94117703088d96b5870247304402205d75996dccc5aee7cdfc87719d7c4bcffc488944a89bad57259005a17c5a313502202a4002bdc254b53ab459653416942e864245ab1b8276b97afbc7a776b659d442012103ae4529c7ac441feb7b42e012d6bcd1e6ab7eb638fceb8b34c24e96b60f57913e10490800", "vin": [{"txinwitness": ["304402205d75996dccc5aee7cdfc87719d7c4bcffc488944a89bad57259005a17c5a313502202a4002bdc254b53ab459653416942e864245ab1b8276b97afbc7a776b659d44201", "03ae4529c7ac441feb7b42e012d6bcd1e6ab7eb638fceb8b34c24e96b60f57913e"], "sequence": 4294967294, "scriptSig": {"hex": "160014f42aef89d7fc91d7ec052d38b3f5351d4fc6189b", "asm": "0014f42aef89d7fc91d7ec052d38b3f5351d4fc6189b"}, "vout": 17, "txid": "1eb72a3e35f800e6cf6e6658f4128a95a7a42497685b77a87461c4d25bc7c533"}], "txid": "c5e12e6a32851fec643ac8259fc8993ae381974bb776bc9d1e54ea094f395d79", "blocktime": 1537871767, "version": 2, "confirmations": 11490, "time": 1537871767, "locktime": 542992, "vsize": 1254, "size": 1335}