{"hash": "3f0cdfcab278fa11eb8f9d39524e01bfec637fe7e9cd7eea4d93923a7c4e59ec", "blockhash": "0000000000000000000e13cef7c366c0283d82e591d1acd082e914b08063cdf1", "vout": [{"scriptPubKey": {"reqSigs": 1, "hex": "a914e6c401fabe1981926d470f1ec67dc041ba12655687", "addresses": ["3NjC9XA2yrYdQ4ps4qQvgTrjQuBZEddNTp"], "asm": "OP_HASH160 e6c401fabe1981926d470f1ec67dc041ba126556 OP_EQUAL", "type": "scripthash"}, "value": 0.03351941, "n": 0}, {"scriptPubKey": {"reqSigs": 1, "hex": "a91400883e839c5f2537b7201770088bdbe18f16f5a287", "addresses": ["31jq8xRgcX2HxdnSLqM2P9Ca5DenvxxRyK"], "asm": "OP_HASH160 00883e839c5f2537b7201770088bdbe18f16f5a2 OP_EQUAL", "type": "scripthash"}, "value": 0.84593688, "n": 1}], "hex": "020000000001014a8f98901a8863bcf82f56d3610d07a7d8d2277195b1c2af58846a5987614d7401000000171600141c9518317cfe74b36f3f38e528fe0c891da614e7ffffffff02852533000000000017a914e6c401fabe1981926d470f1ec67dc041ba1265568718cc0a050000000017a91400883e839c5f2537b7201770088bdbe18f16f5a28702473044022001acf2008c9582865122a8fe8622dd2c96064d1d40b54e823c21900e2c8c11ca022065ab7a6c0cc5b732e8f13f837cbabdc4bcb6347fe79f6b496973a19035b291f4012102f15d5be91cab46a42a59c0ac6ff224a052638f0add27cc3f5430b0cef88f271b00000000", "vin": [{"txinwitness": ["3044022001acf2008c9582865122a8fe8622dd2c96064d1d40b54e823c21900e2c8c11ca022065ab7a6c0cc5b732e8f13f837cbabdc4bcb6347fe79f6b496973a19035b291f401", "02f15d5be91cab46a42a59c0ac6ff224a052638f0add27cc3f5430b0cef88f271b"], "sequence": 4294967295, "scriptSig": {"hex": "1600141c9518317cfe74b36f3f38e528fe0c891da614e7", "asm": "00141c9518317cfe74b36f3f38e528fe0c891da614e7"}, "vout": 1, "txid": "744d6187596a8458afc2b1957127d2d8a7070d61d3562ff8bc63881a90988f4a"}], "txid": "c5ea339ed9ea8cc717c2fda0d899591d6afe81676a29d9309acea93295d89c79", "blocktime": 1537871767, "version": 2, "confirmations": 11491, "time": 1537871767, "locktime": 0, "vsize": 166, "size": 247}