{"hash": "6131ac76b09836220d394f058496439f4ecc34544b2d0fff96fe283090521972", "blockhash": "00000000000000000017f5eb5941039fbcee6240d03bc1f2f8e35350df66a1d8", "vout": [{"scriptPubKey": {"reqSigs": 1, "hex": "0014c8102c33e3ec1f1cfac15a1e247b9e228dc53fdd", "addresses": ["bc1qeqgzcvlras03e7kptg0zg7u7y2xu207a4ypm3e"], "asm": "0 c8102c33e3ec1f1cfac15a1e247b9e228dc53fdd", "type": "witness_v0_keyhash"}, "value": 2.179e-05, "n": 0}, {"scriptPubKey": {"reqSigs": 1, "hex": "a914ff7d52fa96708607fbc559add293ec69295242d587", "addresses": ["3QyvN8jXQCk6JziMntxiAuPZDnMW5XQLKg"], "asm": "OP_HASH160 ff7d52fa96708607fbc559add293ec69295242d5 OP_EQUAL", "type": "scripthash"}, "value": 0.00546, "n": 1}], "hex": "0100000000010185af8f5e055f8141235f6d2562e94a925558765f0c88afd97de1fcfbdb36a26c0000000000ffffffff028308000000000000160014c8102c33e3ec1f1cfac15a1e247b9e228dc53fddd05408000000000017a914ff7d52fa96708607fbc559add293ec69295242d5870247304402200cef9f415b376a20f5b2f84c74a5c7b7f5f864d6bb4dde141ced61022cc913ae02204f0e62ca1a03ed230b05d6b25a7dd349d1808df8b1a1f65bc47628ad54109456012102a2e3a15a0887edb97832255f511140de9ae2dd506355bc4795b924b3adaa515900000000", "vin": [{"txinwitness": ["304402200cef9f415b376a20f5b2f84c74a5c7b7f5f864d6bb4dde141ced61022cc913ae02204f0e62ca1a03ed230b05d6b25a7dd349d1808df8b1a1f65bc47628ad5410945601", "02a2e3a15a0887edb97832255f511140de9ae2dd506355bc4795b924b3adaa5159"], "sequence": 4294967295, "scriptSig": {"hex": "", "asm": ""}, "vout": 0, "txid": "6ca236dbfbfce17dd9af880c5f765855924ae962256d5f2341815f055e8faf85"}], "txid": "c5eb27ed76fba1f53a78d751e40cf6a7577461134ae9aaea975e84a3dc93f1d2", "blocktime": 1537874412, "version": 1, "confirmations": 11467, "time": 1537874412, "locktime": 0, "vsize": 142, "size": 223}