{"hash": "c5f1c03cbb8ce53a86f6835bbc572e381b6c3bdfeffcd0b485c9bfd769fb75cf", "blockhash": "00000000000000000017f5eb5941039fbcee6240d03bc1f2f8e35350df66a1d8", "vout": [{"scriptPubKey": {"type": "nulldata", "hex": "6a146f6d6e69000000000000001f00000048a379a407", "asm": "OP_RETURN 6f6d6e69000000000000001f00000048a379a407"}, "value": 0.0, "n": 0}, {"scriptPubKey": {"reqSigs": 1, "hex": "76a914a25dec4d0011064ef106a983c39c7a540699f22088ac", "addresses": ["1FoWyxwPXuj4C6abqwhjDWdz6D4PZgYRjA"], "asm": "OP_DUP OP_HASH160 a25dec4d0011064ef106a983c39c7a540699f220 OP_EQUALVERIFY OP_CHECKSIG", "type": "pubkeyhash"}, "value": 5.46e-06, "n": 1}, {"scriptPubKey": {"reqSigs": 1, "hex": "76a914f1e3761fc6406622265d4f985938577e1b77eadd88ac", "addresses": ["1P3zLXcbe2avdkzrkWsr5wrXhJiD9aYtZE"], "asm": "OP_DUP OP_HASH160 f1e3761fc6406622265d4f985938577e1b77eadd OP_EQUALVERIFY OP_CHECKSIG", "type": "pubkeyhash"}, "value": 0.00495722, "n": 2}], "hex": "01000000022817cf725ed5fc2c5e8ffe5f35fe760bce6b49ff50fc440f8645da60ecd795e7020000006b48304502210080aa74a92307399be901ed1d16ec630efb6ac289f01919eb19c6d3358948867902207ef40c51cad339a389dea34310127180382dfab0255fed070552d4e0cc320cae012102fa1c1625e7b41eb26da614a821c0428d52956c211d021be0cab91442b4632e9afeffffff3088e5df4cd7817ec5dffe3bc9d902f73dd8b2bbccfbfc50be42b8da106bef15000000006a4730440220653a611b9dd6ee7fdfe154ca20c7c0b5574e495859e579ecad5688950a6c023902200fe055ff7ab093256c12eb11057d3d87eb330cef8d0cdf8654af30964066eb9b012102fa1c1625e7b41eb26da614a821c0428d52956c211d021be0cab91442b4632e9afeffffff030000000000000000166a146f6d6e69000000000000001f00000048a379a40722020000000000001976a914a25dec4d0011064ef106a983c39c7a540699f22088ac6a900700000000001976a914f1e3761fc6406622265d4f985938577e1b77eadd88ac15490800", "vin": [{"sequence": 4294967294, "scriptSig": {"hex": "48304502210080aa74a92307399be901ed1d16ec630efb6ac289f01919eb19c6d3358948867902207ef40c51cad339a389dea34310127180382dfab0255fed070552d4e0cc320cae012102fa1c1625e7b41eb26da614a821c0428d52956c211d021be0cab91442b4632e9a", "asm": "304502210080aa74a92307399be901ed1d16ec630efb6ac289f01919eb19c6d3358948867902207ef40c51cad339a389dea34310127180382dfab0255fed070552d4e0cc320cae[ALL] 02fa1c1625e7b41eb26da614a821c0428d52956c211d021be0cab91442b4632e9a"}, "vout": 2, "txid": "e795d7ec60da45860f44fc50ff496bce0b76fe355ffe8f5e2cfcd55e72cf1728"}, {"sequence": 4294967294, "scriptSig": {"hex": "4730440220653a611b9dd6ee7fdfe154ca20c7c0b5574e495859e579ecad5688950a6c023902200fe055ff7ab093256c12eb11057d3d87eb330cef8d0cdf8654af30964066eb9b012102fa1c1625e7b41eb26da614a821c0428d52956c211d021be0cab91442b4632e9a", "asm": "30440220653a611b9dd6ee7fdfe154ca20c7c0b5574e495859e579ecad5688950a6c023902200fe055ff7ab093256c12eb11057d3d87eb330cef8d0cdf8654af30964066eb9b[ALL] 02fa1c1625e7b41eb26da614a821c0428d52956c211d021be0cab91442b4632e9a"}, "vout": 0, "txid": "15ef6b10dab842be50fcfbccbbb2d83df702d9c93bfedfc57e81d74cdfe58830"}], "txid": "c5f1c03cbb8ce53a86f6835bbc572e381b6c3bdfeffcd0b485c9bfd769fb75cf", "blocktime": 1537874412, "version": 1, "confirmations": 11468, "time": 1537874412, "locktime": 542997, "vsize": 404, "size": 404}