{"hash": "c5f4cd209ffec045c27a510585bc00773ef59d1feacd9d8ce460ae919088473a", "blockhash": "0000000000000000000dcc0f55137456b1a82d3642486a52398922ac4d620174", "vout": [{"scriptPubKey": {"reqSigs": 1, "hex": "76a914fb919bd75f798c8e587151ccce1c880f6ff3229a88ac", "addresses": ["1PwB3DwWytKUWT67io8hzJTxXVPwwuaB3L"], "asm": "OP_DUP OP_HASH160 fb919bd75f798c8e587151ccce1c880f6ff3229a OP_EQUALVERIFY OP_CHECKSIG", "type": "pubkeyhash"}, "value": 0.00037169, "n": 0}, {"scriptPubKey": {"type": "nulldata", "hex": "6a4c500000776c0001ab806348ac0458a304e2218a86aeaeacb577c031fc3a016b46dc7dc7d096c53662e1a68b38bd2bb20a9e62968ad45baa0878061399fb5ed936ab4bbf23acfcfaac8058b692fe6808c31d", "asm": "OP_RETURN 0000776c0001ab806348ac0458a304e2218a86aeaeacb577c031fc3a016b46dc7dc7d096c53662e1a68b38bd2bb20a9e62968ad45baa0878061399fb5ed936ab4bbf23acfcfaac8058b692fe6808c31d"}, "value": 0.0, "n": 1}], "hex": "0100000001252cc9c18ab64fe9007dda4924f9e1071c71d49a88336ba9d1ff5357de003a6a010000006b483045022100f2489825704aa9ac75c7bef62fd0ce0304bce3d98e63784ded13fbf8e538ffa4022041f71ef22710d028968481aed8c1c83baa726b4627c16e6806d89193dafad22c0121026526904e04972d848bfc14146a6298e5bd799aabd1c6fa0a1fc4b3fe193f71afffffffff0231910000000000001976a914fb919bd75f798c8e587151ccce1c880f6ff3229a88ac0000000000000000536a4c500000776c0001ab806348ac0458a304e2218a86aeaeacb577c031fc3a016b46dc7dc7d096c53662e1a68b38bd2bb20a9e62968ad45baa0878061399fb5ed936ab4bbf23acfcfaac8058b692fe6808c31d00000000", "vin": [{"sequence": 4294967295, "scriptSig": {"hex": "483045022100f2489825704aa9ac75c7bef62fd0ce0304bce3d98e63784ded13fbf8e538ffa4022041f71ef22710d028968481aed8c1c83baa726b4627c16e6806d89193dafad22c0121026526904e04972d848bfc14146a6298e5bd799aabd1c6fa0a1fc4b3fe193f71af", "asm": "3045022100f2489825704aa9ac75c7bef62fd0ce0304bce3d98e63784ded13fbf8e538ffa4022041f71ef22710d028968481aed8c1c83baa726b4627c16e6806d89193dafad22c[ALL] 026526904e04972d848bfc14146a6298e5bd799aabd1c6fa0a1fc4b3fe193f71af"}, "vout": 1, "txid": "6a3a00de5753ffd1a96b33889ad4711c07e1f92449da7d00e94fb68ac1c92c25"}], "txid": "c5f4cd209ffec045c27a510585bc00773ef59d1feacd9d8ce460ae919088473a", "blocktime": 1537870268, "version": 1, "confirmations": 11518, "time": 1537870268, "locktime": 0, "vsize": 284, "size": 284}