{"hash": "c5f4dae05c2e7455ef8ee7a496dc8ed8ca0d69a9af396a162f41b9f404d707f8", "blockhash": "0000000000000000001f76057863aec43deb6fa401d9628bb513d65a8098bfab", "vout": [{"scriptPubKey": {"reqSigs": 1, "hex": "76a9144fd6a9f9355f823b08134e0673eb21970098e09f88ac", "addresses": ["18H9YGYNGf4wLbzYftP9iCzTgv4NfVN24M"], "asm": "OP_DUP OP_HASH160 4fd6a9f9355f823b08134e0673eb21970098e09f OP_EQUALVERIFY OP_CHECKSIG", "type": "pubkeyhash"}, "value": 8.22e-06, "n": 0}, {"scriptPubKey": {"reqSigs": 1, "hex": "a914f8d695475ae5655275071a5ca58d9b15e04dd5d787", "addresses": ["3QNkZcad3MmNCNtdNcem7721F7U1LbAfJi"], "asm": "OP_HASH160 f8d695475ae5655275071a5ca58d9b15e04dd5d7 OP_EQUAL", "type": "scripthash"}, "value": 0.04835, "n": 1}], "hex": "0100000017d9d600eca84564d134a85dbee4fc1d7ee510cea48a5b72bc139067ea03be7d0b010000006b483045022100ca62040402f5a94aa58060a0288c5da814b36f89f2acfe3ddf16fdae7f05dbcb02201d092ba9aa2480537564b4c63c960236f9a823ff221b9e43e15badd21a320b42012102cd5c5adf88b6cce86765b0b447a48876fa7824411e052d11d25e3c59ad35405fffffffffce7e639b5b8cb516e04a3e36904f95df77c034ac8f6325e7f5601b36eab41614010000006b483045022100bd7d6e6526a583562a74f2709acf2cb348f868e0e4c396906c05e0d9b787768902202b7b045b45f46b4339954c355dc80749a45bc9362ae45e051d60ca9edf9f13ea012102cd5c5adf88b6cce86765b0b447a48876fa7824411e052d11d25e3c59ad35405fffffffff8641ae377286bcf0e324bea8d04e96eae621fcbf81c02502ef05d8b135d2af16010000006b483045022100ead2911b5e6f75fddb4bb1425563ce2e00ffc318c2906e0844760681e14c71db022038b761ff36f6e04c2a2a2b14493f942dda4c34966623c74d77f1b5499ceb4e51012102cd5c5adf88b6cce86765b0b447a48876fa7824411e052d11d25e3c59ad35405fffffffffaedfe439ef4c6c8c1cf4d8413810837a8ab3d3f7867acd92c94afc06f9e32b1e000000006b483045022100b0c1cbed99b8dcd1d78af524edd31bbde7ec0ad564b03bbb74142c28404f2feb0220617b6da9451c272db4331104bfc85be881460cc9f33e4be10e9d7078b30b1349012102cd5c5adf88b6cce86765b0b447a48876fa7824411e052d11d25e3c59ad35405fffffffff34918c8d0bae34409d8bd3169da40cea542332322d5b8baaa5bbaac678cadd2b010000006b483045022100e2eb4d41f7d0fb95d5c82fdad8e1988d900621986836c805f2ad34ba281a521f0220071471d54e9817a8b9e881a29def617c18e3ae28b19580c55b3f17697c6f9f1d012102cd5c5adf88b6cce86765b0b447a48876fa7824411e052d11d25e3c59ad35405fffffffff0e795ab1ba21fd87c178ade046a67f513aa1615645b1ded2e01cb50510362f51000000006b48304502210094a6500ab16a9b0df1bf338f09fc12f9385b46483800906ff402ba53a6f782ff02204a6c1c3c787c30eafd8391e28b0893489bcba23372cd07feaddebe69f7c8e73b01210297ccd281f3bbd9036cfab2d187dfd7bf61084e9ffa301ad660586e05614ef901ffffffffc7c4811a82eb2f160143e798a85055c6b5fa0bdc0bed843c8d2ee051abc1e271000000006b483045022100e292ad54a3984696eb5983fbfa3fc0cd71157224e4cee5b757b80ec5ec7dafb502203595b1cab89ba8db7b4080e2b54d6d1f76d3468619be4bd1e7c3d3e1a7db2787012102cd5c5adf88b6cce86765b0b447a48876fa7824411e052d11d25e3c59ad35405fffffffff99600015f6205591e7cedce57f3ae7e61f127f2dabd538f23f29d61eac5d0d75000000006b483045022100e01a0151bf134a73504ea1a5c341eb0c8596628d073c2b573de06f375ad77cf702207cefa419cb8194cc65acd90a2cd4c008439a04269b1b4e8593a7d50bc0fa54480121021817938775e3a25ab2d803a6f7d50916e7e68ace42eb88cd33157bc1fcc1fc06ffffffff9e9ba9a66ff8b9dee1278b94bea391920303b03d57510d7aeee72a5391c72876000000006b483045022100b5bb03d6be36b1a629633e668f7cae73b2a76982d6e2d2d5638c7370dde39f3d02200fbad102a73d80955fd9e0deaf059f0654140fc647c757ccbda215b3b1b29f500121025d239e263fecfb47086e57eae201cf169bea92339d5dd8a5d3b3cfa0d0233af8ffffffff0fc40b2f373af498a50ef315a12f8af1c172ca97d59909c8aa3c628840e58c7f000000006a47304402204216941129018a8b317489578bc04393005aaab5695851d724e847b0eac6c87b02206bb21e946273b6d6991c9b3932ee1eeaa15754132f10c29ef2d0f87744289f0c01210327bd590f42accc8d8565cd3ef533d0d8d1533d01aeda7026da9c1d43761f9f15ffffffff52c578cccaf2c9d48fba265adf94675dc38c61a6a43685797ad88f9e8e253f87000000006b483045022100954569701aff0d66633e130c2eb8b52577831d5639115dc39be5e94892da919f02203b7b71de17063e5f247e1cb545ecceb2d2bb29c0bd4dbf7a6418b4f0993777e2012102cd5c5adf88b6cce86765b0b447a48876fa7824411e052d11d25e3c59ad35405fffffffff500544379bc04afc2f4beb61582b24e6684676be493de8d78ec63e28c5279c8e000000006a47304402202d94a88ef635860c73abc951884c064e8ec378c5f49079508cbb225a74a8f86802207809d4801123939ba1686516fc1a3b1ec4f91d894f3f5c6b65fce9da13ecd422012103d1497bb9ea3142d2c89ef8ca5eaebba0c7da41a1e0c31de2cc83239eb130fb8cffffffffb04b5c4e210e6e9778a292255cc865f60d5ff631fd62ff0843e6c2f4009fed8e000000006a47304402200521da016de044e5319abcee63c64926340a55fa8cd09d6667b2d870f688d7d402207dc938e4d06bb93b35148bfd235d2795e7aaacd81840665845d4419fba94fda4012102cd5c5adf88b6cce86765b0b447a48876fa7824411e052d11d25e3c59ad35405fffffffffd80234ca9fee478468f17ce926be82b4b208e07115112d245529c50f63d1c591010000006b483045022100f6c01c251a8a93ba5c869f941d3a88bb6be190f6ec6fe3bf3f6d59c576e73b7202207a7dd3c7e5b1d431b1fc97104b71d8d68479078a4d33b66c519a44807018bfe8012102cd5c5adf88b6cce86765b0b447a48876fa7824411e052d11d25e3c59ad35405fffffffff58da57a5c6076dd44c3f672accd2a71c25d55a85aa8c601173fe5e0561b55f95010000006a47304402206f10932010c354521448d3ca1385fedd38a40f0f96f654d84c048e717a38f0c7022036f59b13a7ff2664b12c4ae61c10394ebf48f05900bf413b0cc430acc8333dbb012102cd5c5adf88b6cce86765b0b447a48876fa7824411e052d11d25e3c59ad35405fffffffff004c4970a8411fdc197c2607482f6b8dfad7906355b2790f9bc76164b7b143ad010000006a47304402202173d9275e9eeedb851dcdd12b9fdcedd310db0898318ff0dcf1bd4f88eca6f6022038818ee280bfbfb07903ed2c97ce365154a7b25c0ba53abc9f8880a2969a7b45012102cd5c5adf88b6cce86765b0b447a48876fa7824411e052d11d25e3c59ad35405fffffffff4b571ec34a6b49695ed4e2661e5367bb31bee2624fefc443640185eb182a22b3000000006a4730440220199172e0f1e33d58b9a5c4b5d186e482e38b0ce648377c4d50c2505f3d673826022036c9b50a1aa09f7832138c861ce619db93fe01dfa22fc0c1c043396a7d667e590121027d56c00071a6dc1b701e52a28d8de1267d87f1ab3f18f3475965f7520ad41943ffffffff976ece6501d8e1f80bbae7bbe42a09fe296bec8198c0adc6714895be7613dbcb000000006a47304402207d9febdc5fcd7b2d9e62af8e5855916988211ebd5ad9c87ad00e5a9734e5fbef02200b805e091b4a42f92d10c1e266865b8110a9f53bcf3398d19356792b8a8ecffb0121024ae4398369e829c7a68fe7f60ff701c9ae806033ccd6699fded9df38a3012f22ffffffff5d9f435db19a1d1673a8a00c1db450a23969ec53d6de2618673872648e13bbd2010000006b483045022100dc851e7641bb28bf5d04007b388d0e347d0ffde6410f9917045af9dbcdf9a2a40220177a1c322f8d15e20bd30cbfe3682e6874360eff984d7bfd3742da98c7ef84a4012102cd5c5adf88b6cce86765b0b447a48876fa7824411e052d11d25e3c59ad35405fffffffffd026fed08114890920c7314a6e97151120751e07cc0005d893e0f8baa6ebe7e0000000006b483045022100f18af7b11a0542b382373cf2d5df581c5849672b3cafb97607df2cae956e02180220351f3a24187ba809ba4e2eab8b97260a6228a7cb21961337e3726c72b1aa0865012102cd5c5adf88b6cce86765b0b447a48876fa7824411e052d11d25e3c59ad35405fffffffffdc6754912fc0f698a0f4cb87e0fab06a7a5d62c2ef1fcc51c80a917a90c94feb000000006a473044022045eabc4fbe711ca9c12127486befcfeb91369f51ae372985b8ea0b93e8bfd0e6022072e9a40727eb9492fe06e23c141999a01619220b5ff2a2f81f98f19cb2d975de012102cd5c5adf88b6cce86765b0b447a48876fa7824411e052d11d25e3c59ad35405fffffffff9e81b804fa031518bdce4f72922a236be41da3255d2677f7a7c84196b72bf6ef010000006b483045022100845d041274a3ac07fd0cc0db4657b676e688981f148fae3b4fc52d92339f94b7022078ae3e624bd314f91974bf36f7c2ee07f836e15cdcf25b112354ec84df1335e3012102cd5c5adf88b6cce86765b0b447a48876fa7824411e052d11d25e3c59ad35405ffffffffff61f7377848725f672aa78fadadb821d33c82007874e0e01bded5ca7c3c1b6fd010000006b4830450221009e410f2b5647399a98785055968221843beacf63df2757c823215fd8cfffba2002201fcd1eb7577abeccbe5c03daa58113d2eb011f3edc3a31c2921445f3eb2c5bea012102cd5c5adf88b6cce86765b0b447a48876fa7824411e052d11d25e3c59ad35405fffffffff0236030000000000001976a9144fd6a9f9355f823b08134e0673eb21970098e09f88acb8c649000000000017a914f8d695475ae5655275071a5ca58d9b15e04dd5d78700000000", "vin": [{"sequence": 4294967295, "scriptSig": {"hex": "483045022100ca62040402f5a94aa58060a0288c5da814b36f89f2acfe3ddf16fdae7f05dbcb02201d092ba9aa2480537564b4c63c960236f9a823ff221b9e43e15badd21a320b42012102cd5c5adf88b6cce86765b0b447a48876fa7824411e052d11d25e3c59ad35405f", "asm": "3045022100ca62040402f5a94aa58060a0288c5da814b36f89f2acfe3ddf16fdae7f05dbcb02201d092ba9aa2480537564b4c63c960236f9a823ff221b9e43e15badd21a320b42[ALL] 02cd5c5adf88b6cce86765b0b447a48876fa7824411e052d11d25e3c59ad35405f"}, "vout": 1, "txid": "0b7dbe03ea679013bc725b8aa4ce10e57e1dfce4be5da834d16445a8ec00d6d9"}, {"sequence": 4294967295, "scriptSig": {"hex": "483045022100bd7d6e6526a583562a74f2709acf2cb348f868e0e4c396906c05e0d9b787768902202b7b045b45f46b4339954c355dc80749a45bc9362ae45e051d60ca9edf9f13ea012102cd5c5adf88b6cce86765b0b447a48876fa7824411e052d11d25e3c59ad35405f", "asm": "3045022100bd7d6e6526a583562a74f2709acf2cb348f868e0e4c396906c05e0d9b787768902202b7b045b45f46b4339954c355dc80749a45bc9362ae45e051d60ca9edf9f13ea[ALL] 02cd5c5adf88b6cce86765b0b447a48876fa7824411e052d11d25e3c59ad35405f"}, "vout": 1, "txid": "1416b4ea361b60f5e725638fac34c077df954f90363e4ae016b58c5b9b637ece"}, {"sequence": 4294967295, "scriptSig": {"hex": "483045022100ead2911b5e6f75fddb4bb1425563ce2e00ffc318c2906e0844760681e14c71db022038b761ff36f6e04c2a2a2b14493f942dda4c34966623c74d77f1b5499ceb4e51012102cd5c5adf88b6cce86765b0b447a48876fa7824411e052d11d25e3c59ad35405f", "asm": "3045022100ead2911b5e6f75fddb4bb1425563ce2e00ffc318c2906e0844760681e14c71db022038b761ff36f6e04c2a2a2b14493f942dda4c34966623c74d77f1b5499ceb4e51[ALL] 02cd5c5adf88b6cce86765b0b447a48876fa7824411e052d11d25e3c59ad35405f"}, "vout": 1, "txid": "16afd235b1d805ef0225c081bffc21e6ea964ed0a8be24e3f0bc867237ae4186"}, {"sequence": 4294967295, "scriptSig": {"hex": "483045022100b0c1cbed99b8dcd1d78af524edd31bbde7ec0ad564b03bbb74142c28404f2feb0220617b6da9451c272db4331104bfc85be881460cc9f33e4be10e9d7078b30b1349012102cd5c5adf88b6cce86765b0b447a48876fa7824411e052d11d25e3c59ad35405f", "asm": "3045022100b0c1cbed99b8dcd1d78af524edd31bbde7ec0ad564b03bbb74142c28404f2feb0220617b6da9451c272db4331104bfc85be881460cc9f33e4be10e9d7078b30b1349[ALL] 02cd5c5adf88b6cce86765b0b447a48876fa7824411e052d11d25e3c59ad35405f"}, "vout": 0, "txid": "1e2be3f906fc4ac992cd7a86f7d3b38a7a83103841d8f41c8c6c4cef39e4dfae"}, {"sequence": 4294967295, "scriptSig": {"hex": "483045022100e2eb4d41f7d0fb95d5c82fdad8e1988d900621986836c805f2ad34ba281a521f0220071471d54e9817a8b9e881a29def617c18e3ae28b19580c55b3f17697c6f9f1d012102cd5c5adf88b6cce86765b0b447a48876fa7824411e052d11d25e3c59ad35405f", "asm": "3045022100e2eb4d41f7d0fb95d5c82fdad8e1988d900621986836c805f2ad34ba281a521f0220071471d54e9817a8b9e881a29def617c18e3ae28b19580c55b3f17697c6f9f1d[ALL] 02cd5c5adf88b6cce86765b0b447a48876fa7824411e052d11d25e3c59ad35405f"}, "vout": 1, "txid": "2bddca78c6aabba5aa8b5b2d32322354ea0ca49d16d38b9d4034ae0b8d8c9134"}, {"sequence": 4294967295, "scriptSig": {"hex": "48304502210094a6500ab16a9b0df1bf338f09fc12f9385b46483800906ff402ba53a6f782ff02204a6c1c3c787c30eafd8391e28b0893489bcba23372cd07feaddebe69f7c8e73b01210297ccd281f3bbd9036cfab2d187dfd7bf61084e9ffa301ad660586e05614ef901", "asm": "304502210094a6500ab16a9b0df1bf338f09fc12f9385b46483800906ff402ba53a6f782ff02204a6c1c3c787c30eafd8391e28b0893489bcba23372cd07feaddebe69f7c8e73b[ALL] 0297ccd281f3bbd9036cfab2d187dfd7bf61084e9ffa301ad660586e05614ef901"}, "vout": 0, "txid": "512f361005b51ce0d2deb1455661a13a517fa646e0ad78c187fd21bab15a790e"}, {"sequence": 4294967295, "scriptSig": {"hex": "483045022100e292ad54a3984696eb5983fbfa3fc0cd71157224e4cee5b757b80ec5ec7dafb502203595b1cab89ba8db7b4080e2b54d6d1f76d3468619be4bd1e7c3d3e1a7db2787012102cd5c5adf88b6cce86765b0b447a48876fa7824411e052d11d25e3c59ad35405f", "asm": "3045022100e292ad54a3984696eb5983fbfa3fc0cd71157224e4cee5b757b80ec5ec7dafb502203595b1cab89ba8db7b4080e2b54d6d1f76d3468619be4bd1e7c3d3e1a7db2787[ALL] 02cd5c5adf88b6cce86765b0b447a48876fa7824411e052d11d25e3c59ad35405f"}, "vout": 0, "txid": "71e2c1ab51e02e8d3c84ed0bdc0bfab5c65550a898e74301162feb821a81c4c7"}, {"sequence": 4294967295, "scriptSig": {"hex": "483045022100e01a0151bf134a73504ea1a5c341eb0c8596628d073c2b573de06f375ad77cf702207cefa419cb8194cc65acd90a2cd4c008439a04269b1b4e8593a7d50bc0fa54480121021817938775e3a25ab2d803a6f7d50916e7e68ace42eb88cd33157bc1fcc1fc06", "asm": "3045022100e01a0151bf134a73504ea1a5c341eb0c8596628d073c2b573de06f375ad77cf702207cefa419cb8194cc65acd90a2cd4c008439a04269b1b4e8593a7d50bc0fa5448[ALL] 021817938775e3a25ab2d803a6f7d50916e7e68ace42eb88cd33157bc1fcc1fc06"}, "vout": 0, "txid": "750d5dac1ed6293ff238d5ab2d7f121fe6e73a7fe5dccee7915520f615006099"}, {"sequence": 4294967295, "scriptSig": {"hex": "483045022100b5bb03d6be36b1a629633e668f7cae73b2a76982d6e2d2d5638c7370dde39f3d02200fbad102a73d80955fd9e0deaf059f0654140fc647c757ccbda215b3b1b29f500121025d239e263fecfb47086e57eae201cf169bea92339d5dd8a5d3b3cfa0d0233af8", "asm": "3045022100b5bb03d6be36b1a629633e668f7cae73b2a76982d6e2d2d5638c7370dde39f3d02200fbad102a73d80955fd9e0deaf059f0654140fc647c757ccbda215b3b1b29f50[ALL] 025d239e263fecfb47086e57eae201cf169bea92339d5dd8a5d3b3cfa0d0233af8"}, "vout": 0, "txid": "7628c791532ae7ee7a0d51573db003039291a3be948b27e1deb9f86fa6a99b9e"}, {"sequence": 4294967295, "scriptSig": {"hex": "47304402204216941129018a8b317489578bc04393005aaab5695851d724e847b0eac6c87b02206bb21e946273b6d6991c9b3932ee1eeaa15754132f10c29ef2d0f87744289f0c01210327bd590f42accc8d8565cd3ef533d0d8d1533d01aeda7026da9c1d43761f9f15", "asm": "304402204216941129018a8b317489578bc04393005aaab5695851d724e847b0eac6c87b02206bb21e946273b6d6991c9b3932ee1eeaa15754132f10c29ef2d0f87744289f0c[ALL] 0327bd590f42accc8d8565cd3ef533d0d8d1533d01aeda7026da9c1d43761f9f15"}, "vout": 0, "txid": "7f8ce54088623caac80999d597ca72c1f18a2fa115f30ea598f43a372f0bc40f"}, {"sequence": 4294967295, "scriptSig": {"hex": "483045022100954569701aff0d66633e130c2eb8b52577831d5639115dc39be5e94892da919f02203b7b71de17063e5f247e1cb545ecceb2d2bb29c0bd4dbf7a6418b4f0993777e2012102cd5c5adf88b6cce86765b0b447a48876fa7824411e052d11d25e3c59ad35405f", "asm": "3045022100954569701aff0d66633e130c2eb8b52577831d5639115dc39be5e94892da919f02203b7b71de17063e5f247e1cb545ecceb2d2bb29c0bd4dbf7a6418b4f0993777e2[ALL] 02cd5c5adf88b6cce86765b0b447a48876fa7824411e052d11d25e3c59ad35405f"}, "vout": 0, "txid": "873f258e9e8fd87a798536a4a6618cc35d6794df5a26ba8fd4c9f2cacc78c552"}, {"sequence": 4294967295, "scriptSig": {"hex": "47304402202d94a88ef635860c73abc951884c064e8ec378c5f49079508cbb225a74a8f86802207809d4801123939ba1686516fc1a3b1ec4f91d894f3f5c6b65fce9da13ecd422012103d1497bb9ea3142d2c89ef8ca5eaebba0c7da41a1e0c31de2cc83239eb130fb8c", "asm": "304402202d94a88ef635860c73abc951884c064e8ec378c5f49079508cbb225a74a8f86802207809d4801123939ba1686516fc1a3b1ec4f91d894f3f5c6b65fce9da13ecd422[ALL] 03d1497bb9ea3142d2c89ef8ca5eaebba0c7da41a1e0c31de2cc83239eb130fb8c"}, "vout": 0, "txid": "8e9c27c5283ec68ed7e83d49be764668e6242b5861eb4b2ffc4ac09b37440550"}, {"sequence": 4294967295, "scriptSig": {"hex": "47304402200521da016de044e5319abcee63c64926340a55fa8cd09d6667b2d870f688d7d402207dc938e4d06bb93b35148bfd235d2795e7aaacd81840665845d4419fba94fda4012102cd5c5adf88b6cce86765b0b447a48876fa7824411e052d11d25e3c59ad35405f", "asm": "304402200521da016de044e5319abcee63c64926340a55fa8cd09d6667b2d870f688d7d402207dc938e4d06bb93b35148bfd235d2795e7aaacd81840665845d4419fba94fda4[ALL] 02cd5c5adf88b6cce86765b0b447a48876fa7824411e052d11d25e3c59ad35405f"}, "vout": 0, "txid": "8eed9f00f4c2e64308ff62fd31f65f0df665c85c2592a278976e0e214e5c4bb0"}, {"sequence": 4294967295, "scriptSig": {"hex": "483045022100f6c01c251a8a93ba5c869f941d3a88bb6be190f6ec6fe3bf3f6d59c576e73b7202207a7dd3c7e5b1d431b1fc97104b71d8d68479078a4d33b66c519a44807018bfe8012102cd5c5adf88b6cce86765b0b447a48876fa7824411e052d11d25e3c59ad35405f", "asm": "3045022100f6c01c251a8a93ba5c869f941d3a88bb6be190f6ec6fe3bf3f6d59c576e73b7202207a7dd3c7e5b1d431b1fc97104b71d8d68479078a4d33b66c519a44807018bfe8[ALL] 02cd5c5adf88b6cce86765b0b447a48876fa7824411e052d11d25e3c59ad35405f"}, "vout": 1, "txid": "91c5d1630fc52955242d111571e008b2b482be26e97cf1688447ee9fca3402d8"}, {"sequence": 4294967295, "scriptSig": {"hex": "47304402206f10932010c354521448d3ca1385fedd38a40f0f96f654d84c048e717a38f0c7022036f59b13a7ff2664b12c4ae61c10394ebf48f05900bf413b0cc430acc8333dbb012102cd5c5adf88b6cce86765b0b447a48876fa7824411e052d11d25e3c59ad35405f", "asm": "304402206f10932010c354521448d3ca1385fedd38a40f0f96f654d84c048e717a38f0c7022036f59b13a7ff2664b12c4ae61c10394ebf48f05900bf413b0cc430acc8333dbb[ALL] 02cd5c5adf88b6cce86765b0b447a48876fa7824411e052d11d25e3c59ad35405f"}, "vout": 1, "txid": "955fb561055efe7311608caa855ad5251ca7d2cc2a673f4cd46d07c6a557da58"}, {"sequence": 4294967295, "scriptSig": {"hex": "47304402202173d9275e9eeedb851dcdd12b9fdcedd310db0898318ff0dcf1bd4f88eca6f6022038818ee280bfbfb07903ed2c97ce365154a7b25c0ba53abc9f8880a2969a7b45012102cd5c5adf88b6cce86765b0b447a48876fa7824411e052d11d25e3c59ad35405f", "asm": "304402202173d9275e9eeedb851dcdd12b9fdcedd310db0898318ff0dcf1bd4f88eca6f6022038818ee280bfbfb07903ed2c97ce365154a7b25c0ba53abc9f8880a2969a7b45[ALL] 02cd5c5adf88b6cce86765b0b447a48876fa7824411e052d11d25e3c59ad35405f"}, "vout": 1, "txid": "ad43b1b76461c79b0f79b2556390d7fa8d6b2f4807267c19dc1f41a870494c00"}, {"sequence": 4294967295, "scriptSig": {"hex": "4730440220199172e0f1e33d58b9a5c4b5d186e482e38b0ce648377c4d50c2505f3d673826022036c9b50a1aa09f7832138c861ce619db93fe01dfa22fc0c1c043396a7d667e590121027d56c00071a6dc1b701e52a28d8de1267d87f1ab3f18f3475965f7520ad41943", "asm": "30440220199172e0f1e33d58b9a5c4b5d186e482e38b0ce648377c4d50c2505f3d673826022036c9b50a1aa09f7832138c861ce619db93fe01dfa22fc0c1c043396a7d667e59[ALL] 027d56c00071a6dc1b701e52a28d8de1267d87f1ab3f18f3475965f7520ad41943"}, "vout": 0, "txid": "b3222a18eb85016443c4ef4f62e2be31bb67531e66e2d45e69496b4ac31e574b"}, {"sequence": 4294967295, "scriptSig": {"hex": "47304402207d9febdc5fcd7b2d9e62af8e5855916988211ebd5ad9c87ad00e5a9734e5fbef02200b805e091b4a42f92d10c1e266865b8110a9f53bcf3398d19356792b8a8ecffb0121024ae4398369e829c7a68fe7f60ff701c9ae806033ccd6699fded9df38a3012f22", "asm": "304402207d9febdc5fcd7b2d9e62af8e5855916988211ebd5ad9c87ad00e5a9734e5fbef02200b805e091b4a42f92d10c1e266865b8110a9f53bcf3398d19356792b8a8ecffb[ALL] 024ae4398369e829c7a68fe7f60ff701c9ae806033ccd6699fded9df38a3012f22"}, "vout": 0, "txid": "cbdb1376be954871c6adc09881ec6b29fe092ae4bbe7ba0bf8e1d80165ce6e97"}, {"sequence": 4294967295, "scriptSig": {"hex": "483045022100dc851e7641bb28bf5d04007b388d0e347d0ffde6410f9917045af9dbcdf9a2a40220177a1c322f8d15e20bd30cbfe3682e6874360eff984d7bfd3742da98c7ef84a4012102cd5c5adf88b6cce86765b0b447a48876fa7824411e052d11d25e3c59ad35405f", "asm": "3045022100dc851e7641bb28bf5d04007b388d0e347d0ffde6410f9917045af9dbcdf9a2a40220177a1c322f8d15e20bd30cbfe3682e6874360eff984d7bfd3742da98c7ef84a4[ALL] 02cd5c5adf88b6cce86765b0b447a48876fa7824411e052d11d25e3c59ad35405f"}, "vout": 1, "txid": "d2bb138e647238671826ded653ec6939a250b41d0ca0a873161d9ab15d439f5d"}, {"sequence": 4294967295, "scriptSig": {"hex": "483045022100f18af7b11a0542b382373cf2d5df581c5849672b3cafb97607df2cae956e02180220351f3a24187ba809ba4e2eab8b97260a6228a7cb21961337e3726c72b1aa0865012102cd5c5adf88b6cce86765b0b447a48876fa7824411e052d11d25e3c59ad35405f", "asm": "3045022100f18af7b11a0542b382373cf2d5df581c5849672b3cafb97607df2cae956e02180220351f3a24187ba809ba4e2eab8b97260a6228a7cb21961337e3726c72b1aa0865[ALL] 02cd5c5adf88b6cce86765b0b447a48876fa7824411e052d11d25e3c59ad35405f"}, "vout": 0, "txid": "e0e7eba6baf8e093d80500cc071e75201115976e4a31c72009891481d0fe26d0"}, {"sequence": 4294967295, "scriptSig": {"hex": "473044022045eabc4fbe711ca9c12127486befcfeb91369f51ae372985b8ea0b93e8bfd0e6022072e9a40727eb9492fe06e23c141999a01619220b5ff2a2f81f98f19cb2d975de012102cd5c5adf88b6cce86765b0b447a48876fa7824411e052d11d25e3c59ad35405f", "asm": "3044022045eabc4fbe711ca9c12127486befcfeb91369f51ae372985b8ea0b93e8bfd0e6022072e9a40727eb9492fe06e23c141999a01619220b5ff2a2f81f98f19cb2d975de[ALL] 02cd5c5adf88b6cce86765b0b447a48876fa7824411e052d11d25e3c59ad35405f"}, "vout": 0, "txid": "eb4fc9907a910ac851cc1fefc2625d7a6ab0fae087cbf4a098f6c02f915467dc"}, {"sequence": 4294967295, "scriptSig": {"hex": "483045022100845d041274a3ac07fd0cc0db4657b676e688981f148fae3b4fc52d92339f94b7022078ae3e624bd314f91974bf36f7c2ee07f836e15cdcf25b112354ec84df1335e3012102cd5c5adf88b6cce86765b0b447a48876fa7824411e052d11d25e3c59ad35405f", "asm": "3045022100845d041274a3ac07fd0cc0db4657b676e688981f148fae3b4fc52d92339f94b7022078ae3e624bd314f91974bf36f7c2ee07f836e15cdcf25b112354ec84df1335e3[ALL] 02cd5c5adf88b6cce86765b0b447a48876fa7824411e052d11d25e3c59ad35405f"}, "vout": 1, "txid": "eff62bb79641c8a7f777265d25a31de46b232a92724fcebd181503fa04b8819e"}, {"sequence": 4294967295, "scriptSig": {"hex": "4830450221009e410f2b5647399a98785055968221843beacf63df2757c823215fd8cfffba2002201fcd1eb7577abeccbe5c03daa58113d2eb011f3edc3a31c2921445f3eb2c5bea012102cd5c5adf88b6cce86765b0b447a48876fa7824411e052d11d25e3c59ad35405f", "asm": "30450221009e410f2b5647399a98785055968221843beacf63df2757c823215fd8cfffba2002201fcd1eb7577abeccbe5c03daa58113d2eb011f3edc3a31c2921445f3eb2c5bea[ALL] 02cd5c5adf88b6cce86765b0b447a48876fa7824411e052d11d25e3c59ad35405f"}, "vout": 1, "txid": "fdb6c1c3a75cedbd010e4e870720c8331d82dbdafa78aa72f625878477731ff6"}], "txid": "c5f4dae05c2e7455ef8ee7a496dc8ed8ca0d69a9af396a162f41b9f404d707f8", "blocktime": 1537873891, "version": 1, "confirmations": 11475, "time": 1537873891, "locktime": 0, "vsize": 3472, "size": 3472}