{"hash": "ae91a5cd89e9406eb654371b9b8bf087e315b5068c3e375c9f1babc97af65eb6", "blockhash": "0000000000000000000baef3f32e3676a92c3b2e5da21b426e4f302fc371ce76", "vout": [{"scriptPubKey": {"reqSigs": 1, "hex": "a914c6bb9c9a8d0843754fa09dce55ef85253e29248c87", "addresses": ["3KopU1zaGc4myLMKPS4rCoYqj23Q5R9K7S"], "asm": "OP_HASH160 c6bb9c9a8d0843754fa09dce55ef85253e29248c OP_EQUAL", "type": "scripthash"}, "value": 0.00010455, "n": 0}, {"scriptPubKey": {"reqSigs": 1, "hex": "a914414cec0fc72a9410f6836edaf08de1aa3b2a321c87", "addresses": ["37eHzewnAFRR2SVZu8rZM3nBsmuE2XBU7D"], "asm": "OP_HASH160 414cec0fc72a9410f6836edaf08de1aa3b2a321c OP_EQUAL", "type": "scripthash"}, "value": 0.22944831, "n": 1}], "hex": "0100000000010168c47d3b83ad5fe2ddc0a108a8a7560f104921c9fdda4bfa931b79c963e44ddd0100000023220020ce74cde37cfb8dd71d0179287e12fc721ee236ce3c89c2745bcd365b39807eb3ffffffff02d72800000000000017a914c6bb9c9a8d0843754fa09dce55ef85253e29248c873f1c5e010000000017a914414cec0fc72a9410f6836edaf08de1aa3b2a321c870400483045022100d497901427f904649d3295c4147b90645878a70723d250b2ac40855c5124d40b0220237af17b476ebe42435a4490dac2307c959f5f85853be9e373916719d643cf8601483045022100a5cfdc8fc93e07a040b33b0ced45fb70d9a524185fc22c8d9e92f6c5f69bb69002203ce2fee137545b6bc658403f353b60f1c341f0851d7b55d1d5c057845601a0450147522103ada901d90d5a76319a60f228e0b1bbc84b1d9a87238550bae5d5d190067b66712103871fc2ca08e6950b38867e8e6a0e94ee625223d3aa0df5c65f414c6d784467e252ae00000000", "vin": [{"txinwitness": ["", "3045022100d497901427f904649d3295c4147b90645878a70723d250b2ac40855c5124d40b0220237af17b476ebe42435a4490dac2307c959f5f85853be9e373916719d643cf8601", "3045022100a5cfdc8fc93e07a040b33b0ced45fb70d9a524185fc22c8d9e92f6c5f69bb69002203ce2fee137545b6bc658403f353b60f1c341f0851d7b55d1d5c057845601a04501", "522103ada901d90d5a76319a60f228e0b1bbc84b1d9a87238550bae5d5d190067b66712103871fc2ca08e6950b38867e8e6a0e94ee625223d3aa0df5c65f414c6d784467e252ae"], "sequence": 4294967295, "scriptSig": {"hex": "220020ce74cde37cfb8dd71d0179287e12fc721ee236ce3c89c2745bcd365b39807eb3", "asm": "0020ce74cde37cfb8dd71d0179287e12fc721ee236ce3c89c2745bcd365b39807eb3"}, "vout": 1, "txid": "dd4de463c9791b93fa4bdafdc92149100f56a7a808a1c0dde25fad833b7dc468"}], "txid": "c5f5afb9293108fa5b9bef0b1632a805faf713cc7317acd09e48fb986217879a", "blocktime": 1537876114, "version": 1, "confirmations": 11460, "time": 1537876114, "locktime": 0, "vsize": 206, "size": 372}