{"hash": "930938ce1932e03d19ac3f484917355e6e1d4dee53ff3067ac39a6cbb1d836f8", "blockhash": "0000000000000000000baef3f32e3676a92c3b2e5da21b426e4f302fc371ce76", "vout": [{"scriptPubKey": {"reqSigs": 1, "hex": "76a914d8aab33de3b87db10dbdeb6305be8859a961a44f88ac", "addresses": ["1LkdStf5qiGdU89stFvA3yYbUvwqCP9Gc7"], "asm": "OP_DUP OP_HASH160 d8aab33de3b87db10dbdeb6305be8859a961a44f OP_EQUALVERIFY OP_CHECKSIG", "type": "pubkeyhash"}, "value": 0.01229232, "n": 0}, {"scriptPubKey": {"reqSigs": 1, "hex": "a914ca937f1ae17758d930e40ad7020ed3cb4879183387", "addresses": ["3LA97Xi2f2c9Agti45q9jok7H1XaFEQgF3"], "asm": "OP_HASH160 ca937f1ae17758d930e40ad7020ed3cb48791833 OP_EQUAL", "type": "scripthash"}, "value": 0.37722012, "n": 1}], "hex": "01000000000101e68d0c2c6ea907f33b47de1953fff2981bae7efe998680e5c2dcc1182540eef10000000023220020f8a295b467b3673aac1d9da33782daed4dac7cc621311b7eb5c1015c2ed974dcffffffff02b0c11200000000001976a914d8aab33de3b87db10dbdeb6305be8859a961a44f88ac9c973f020000000017a914ca937f1ae17758d930e40ad7020ed3cb487918338704004730440220308acc2692e562279240d6aa73d95e3153a8317afee53fc848d7a984ccad63770220550ffb0294b9c01c7851f088a2cb8a53be3e3a1e09677c8de2d51bd1f8e9508e01473044022070a41c8dd79bb47bf6e5420e4943fc5467087cac01c1b0509f181d9f0f98f257022050e57b1dd7f8ca77460e7ff0bf403d9de0a331cd71d25ecd1f3e3816097751ca0169522103478db7c69d853a3ba292e56630655aa91264ecce8cdc6e6174462365b67fbd0d21029b225d2903d01241a24236228bfae49edcb10db9ca8faa788696162cdc8f759821030be9250efff05966e77a53fb42035d218ac9f3f779907f3708046d27a9a46a8053ae17490800", "vin": [{"txinwitness": ["", "30440220308acc2692e562279240d6aa73d95e3153a8317afee53fc848d7a984ccad63770220550ffb0294b9c01c7851f088a2cb8a53be3e3a1e09677c8de2d51bd1f8e9508e01", "3044022070a41c8dd79bb47bf6e5420e4943fc5467087cac01c1b0509f181d9f0f98f257022050e57b1dd7f8ca77460e7ff0bf403d9de0a331cd71d25ecd1f3e3816097751ca01", "522103478db7c69d853a3ba292e56630655aa91264ecce8cdc6e6174462365b67fbd0d21029b225d2903d01241a24236228bfae49edcb10db9ca8faa788696162cdc8f759821030be9250efff05966e77a53fb42035d218ac9f3f779907f3708046d27a9a46a8053ae"], "sequence": 4294967295, "scriptSig": {"hex": "220020f8a295b467b3673aac1d9da33782daed4dac7cc621311b7eb5c1015c2ed974dc", "asm": "0020f8a295b467b3673aac1d9da33782daed4dac7cc621311b7eb5c1015c2ed974dc"}, "vout": 0, "txid": "f1ee402518c1dcc2e5808699fe7eae1b98f2ff5319de473bf307a96e2c0c8de6"}], "txid": "c5fb5759afc0b5b721e014eeb9dc0d4caf3b970f2491e33fe868210e2866a77a", "blocktime": 1537876114, "version": 1, "confirmations": 11460, "time": 1537876114, "locktime": 542999, "vsize": 216, "size": 406}