{"hash": "c60390d5c8306938b4e385ae3a0ac90bbf036aae74ed0a6d6a37b97e62d91bd2", "blockhash": "0000000000000000001f76057863aec43deb6fa401d9628bb513d65a8098bfab", "vout": [{"scriptPubKey": {"reqSigs": 1, "hex": "76a914a520c86a08366941cd90d22e11ac1c7eefa2db3788ac", "addresses": ["1G47mSr3oANXMafVrR8UC4pzV7FEAzo3r9"], "asm": "OP_DUP OP_HASH160 a520c86a08366941cd90d22e11ac1c7eefa2db37 OP_EQUALVERIFY OP_CHECKSIG", "type": "pubkeyhash"}, "value": 0.25340652, "n": 0}, {"scriptPubKey": {"reqSigs": 1, "hex": "76a914e944cd770faff99876b0912e22daada638c6d7ea88ac", "addresses": ["1NGQsBigJKmqHSCGdBpSams2mCYQq3utHM"], "asm": "OP_DUP OP_HASH160 e944cd770faff99876b0912e22daada638c6d7ea OP_EQUALVERIFY OP_CHECKSIG", "type": "pubkeyhash"}, "value": 5.46e-06, "n": 1}, {"scriptPubKey": {"type": "nulldata", "hex": "6a146f6d6e69000000000000001f000003d39c951a00", "asm": "OP_RETURN 6f6d6e69000000000000001f000003d39c951a00"}, "value": 0.0, "n": 2}], "hex": "0100000001dbbd22dcad1d446f0c8a680183b32cd7d16ffbd1d6d0d7577e1d7913704ce185000000006b4830450221008407ed8785b018afbafb59824b21b70cd27effe26c23623c03712a256f6eb22402203cb6b479568e0d9af81da8f0186cf656c5e953a42b8b2d6e75a95bb065eca211012103f3f44c9e80e2cedc1a2909631a3adea8866ee32187f74d0912387359b0ff36a2ffffffff03ecaa8201000000001976a914a520c86a08366941cd90d22e11ac1c7eefa2db3788ac22020000000000001976a914e944cd770faff99876b0912e22daada638c6d7ea88ac0000000000000000166a146f6d6e69000000000000001f000003d39c951a0000000000", "vin": [{"sequence": 4294967295, "scriptSig": {"hex": "4830450221008407ed8785b018afbafb59824b21b70cd27effe26c23623c03712a256f6eb22402203cb6b479568e0d9af81da8f0186cf656c5e953a42b8b2d6e75a95bb065eca211012103f3f44c9e80e2cedc1a2909631a3adea8866ee32187f74d0912387359b0ff36a2", "asm": "30450221008407ed8785b018afbafb59824b21b70cd27effe26c23623c03712a256f6eb22402203cb6b479568e0d9af81da8f0186cf656c5e953a42b8b2d6e75a95bb065eca211[ALL] 03f3f44c9e80e2cedc1a2909631a3adea8866ee32187f74d0912387359b0ff36a2"}, "vout": 0, "txid": "85e14c7013791d7e57d7d0d6d1fb6fd1d72cb38301688a0c6f441daddc22bddb"}], "txid": "c60390d5c8306938b4e385ae3a0ac90bbf036aae74ed0a6d6a37b97e62d91bd2", "blocktime": 1537873891, "version": 1, "confirmations": 11475, "time": 1537873891, "locktime": 0, "vsize": 257, "size": 257}