{"hash": "c604431dfddbf106032b2b63224922ec49fbf1bee9cc125d7912e7b523e4e537", "blockhash": "00000000000000000018f53835495a110e01622372bf6ae95dc86f2b0ab887b0", "vout": [{"scriptPubKey": {"reqSigs": 1, "hex": "76a9147af6da660f51d69ddc5735af1b6aa5b1ccb4677b88ac", "addresses": ["1CDBA4Qgcocfp8n3EZiXegFASQWMJfywNs"], "asm": "OP_DUP OP_HASH160 7af6da660f51d69ddc5735af1b6aa5b1ccb4677b OP_EQUALVERIFY OP_CHECKSIG", "type": "pubkeyhash"}, "value": 0.003, "n": 0}, {"scriptPubKey": {"reqSigs": 1, "hex": "76a91442a38ff0b8343f22123153e9d2d5c7a9ad9cff4488ac", "addresses": ["175MYAea6ERJBpqDy7pUiacxAJCKyWA5m6"], "asm": "OP_DUP OP_HASH160 42a38ff0b8343f22123153e9d2d5c7a9ad9cff44 OP_EQUALVERIFY OP_CHECKSIG", "type": "pubkeyhash"}, "value": 0.46585055, "n": 1}], "hex": "01000000019477823884eea6d2fff2d42ccaf2ec9706232089ce5b738618066b3b0d1aa094010000006b4830450221009208a4341102717be25b199c973b2876d7024d3557396d1c4667d8fcc2cddf3a02202b446d900cdec8185f95db0f189a424337399ccbb9fe8cfea0c6212b74156a89012102aa5168179cab42ad164e7d7ef311509464e81b1ef0b27f8a26681464cad75305ffffffff02e0930400000000001976a9147af6da660f51d69ddc5735af1b6aa5b1ccb4677b88acdfd4c602000000001976a91442a38ff0b8343f22123153e9d2d5c7a9ad9cff4488ac00000000", "vin": [{"sequence": 4294967295, "scriptSig": {"hex": "4830450221009208a4341102717be25b199c973b2876d7024d3557396d1c4667d8fcc2cddf3a02202b446d900cdec8185f95db0f189a424337399ccbb9fe8cfea0c6212b74156a89012102aa5168179cab42ad164e7d7ef311509464e81b1ef0b27f8a26681464cad75305", "asm": "30450221009208a4341102717be25b199c973b2876d7024d3557396d1c4667d8fcc2cddf3a02202b446d900cdec8185f95db0f189a424337399ccbb9fe8cfea0c6212b74156a89[ALL] 02aa5168179cab42ad164e7d7ef311509464e81b1ef0b27f8a26681464cad75305"}, "vout": 1, "txid": "94a01a0d3b6b061886735bce8920230697ecf2ca2cd4f2ffd2a6ee8438827794"}], "txid": "c604431dfddbf106032b2b63224922ec49fbf1bee9cc125d7912e7b523e4e537", "blocktime": 1537870928, "version": 1, "confirmations": 11514, "time": 1537870928, "locktime": 0, "vsize": 226, "size": 226}