{"hash": "0093a11c1ee4df640492f287a217a1a871b72424ed9d53f9e01a9788d988c695", "blockhash": "0000000000000000001cda96e906b7601b7a6fb1a3b62bca570a9e5d8f4b3de1", "vout": [{"scriptPubKey": {"reqSigs": 1, "hex": "001413f0169b2af25a08a0745ca213f9fd8005d14878", "addresses": ["bc1qz0cpdxe27fdq3gr5tj3p870asqzazjrcwxktsz"], "asm": "0 13f0169b2af25a08a0745ca213f9fd8005d14878", "type": "witness_v0_keyhash"}, "value": 1.229e-05, "n": 0}, {"scriptPubKey": {"reqSigs": 1, "hex": "76a91433072e87c55985f5777bdd24785b644fd069cc9788ac", "addresses": ["15ep4nHNX14GZ4ogVnedHmDLcF5dDm9LYN"], "asm": "OP_DUP OP_HASH160 33072e87c55985f5777bdd24785b644fd069cc97 OP_EQUALVERIFY OP_CHECKSIG", "type": "pubkeyhash"}, "value": 0.00437295, "n": 1}], "hex": "010000000001017f803f7e022f5381cb54a48f56fb174bb943e9639b68b1fe02838007b741ee9ebe03000017160014f9fb960f32fdb5a770ce7e9cdcfd8b5b3eecc004ffffffff02cd0400000000000016001413f0169b2af25a08a0745ca213f9fd8005d148782fac0600000000001976a91433072e87c55985f5777bdd24785b644fd069cc9788ac02483045022100e93a7ec5b4224e8c552a3ec1e91afbd071128529d96ea0fde8f0fe7fbb2847a602206eafc20883aa891e8620aabb0f7d46d10e6a8fdd85fa3c056a5548a123335232012102bc4f7e5ca495e689bfc7e187220bc730fa9ccb03be1cb92f41f9afe77988f6f600000000", "vin": [{"txinwitness": ["3045022100e93a7ec5b4224e8c552a3ec1e91afbd071128529d96ea0fde8f0fe7fbb2847a602206eafc20883aa891e8620aabb0f7d46d10e6a8fdd85fa3c056a5548a12333523201", "02bc4f7e5ca495e689bfc7e187220bc730fa9ccb03be1cb92f41f9afe77988f6f6"], "sequence": 4294967295, "scriptSig": {"hex": "160014f9fb960f32fdb5a770ce7e9cdcfd8b5b3eecc004", "asm": "0014f9fb960f32fdb5a770ce7e9cdcfd8b5b3eecc004"}, "vout": 958, "txid": "9eee41b707808302feb1689b63e943b94b17fb568fa454cb81532f027e3f807f"}], "txid": "c60a458f521b2b8c680be49241018f956f74d9eb35bf58dce2d563729880bce9", "blocktime": 1537873282, "version": 1, "confirmations": 11484, "time": 1537873282, "locktime": 0, "vsize": 167, "size": 249}