{"hash": "c6148d3cafa5ec8152cafa97004e1af26c4cf0a411429e7c824f2991ff4068c0", "blockhash": "0000000000000000001f0ddff1eddb255c1121bcd4da4f1bc9a0da00cae72433", "vout": [{"scriptPubKey": {"reqSigs": 1, "hex": "a914185cc75c5ab4f00962079ee0fea5e4e56b5c9ae987", "addresses": ["33uqHXby6CpausvdXqNJ1D6eeCav4Hf6U8"], "asm": "OP_HASH160 185cc75c5ab4f00962079ee0fea5e4e56b5c9ae9 OP_EQUAL", "type": "scripthash"}, "value": 0.01, "n": 0}, {"scriptPubKey": {"reqSigs": 1, "hex": "76a914eab09c93b079ddab4bd7a9100a849c557122ea9488ac", "addresses": ["1NPvh5c6hnqcEixKfp9cuMWnavAkxeH7A7"], "asm": "OP_DUP OP_HASH160 eab09c93b079ddab4bd7a9100a849c557122ea94 OP_EQUALVERIFY OP_CHECKSIG", "type": "pubkeyhash"}, "value": 0.01178644, "n": 1}], "hex": "01000000018752d214bf644d2ef8f02429eb61d82b76852292d5c67397e50fe636c9eac17a010000006b48304502210087b94cba8e06a4dcc58da14cfe7dbde5ea868d12067ab3b1607ebb2d312087f7022026e0ad576af1fdbaf0beb0b942562c5c1e662ee3bbcb6ad5ca5bee78d21d9fc001210343e15f506e3c2a673989789ffb711935ea08fab3cec78ab5324360b669e675f1ffffffff0240420f000000000017a914185cc75c5ab4f00962079ee0fea5e4e56b5c9ae98714fc1100000000001976a914eab09c93b079ddab4bd7a9100a849c557122ea9488ac00000000", "vin": [{"sequence": 4294967295, "scriptSig": {"hex": "48304502210087b94cba8e06a4dcc58da14cfe7dbde5ea868d12067ab3b1607ebb2d312087f7022026e0ad576af1fdbaf0beb0b942562c5c1e662ee3bbcb6ad5ca5bee78d21d9fc001210343e15f506e3c2a673989789ffb711935ea08fab3cec78ab5324360b669e675f1", "asm": "304502210087b94cba8e06a4dcc58da14cfe7dbde5ea868d12067ab3b1607ebb2d312087f7022026e0ad576af1fdbaf0beb0b942562c5c1e662ee3bbcb6ad5ca5bee78d21d9fc0[ALL] 0343e15f506e3c2a673989789ffb711935ea08fab3cec78ab5324360b669e675f1"}, "vout": 1, "txid": "7ac1eac936e60fe59773c6d5922285762bd861eb2924f0f82e4d64bf14d25287"}], "txid": "c6148d3cafa5ec8152cafa97004e1af26c4cf0a411429e7c824f2991ff4068c0", "blocktime": 1537872018, "version": 1, "confirmations": 11489, "time": 1537872018, "locktime": 0, "vsize": 224, "size": 224}