{"hash": "493742d097c915fda3b39a5882131639e702b711b934fcde4260a9a6f9d45392", "blockhash": "0000000000000000000e13cef7c366c0283d82e591d1acd082e914b08063cdf1", "vout": [{"scriptPubKey": {"reqSigs": 1, "hex": "76a9145035f9d24fa01ad3b8eb1a6af4f8eddf990c8fc888ac", "addresses": ["18K7if1Sqg6Cm9wghh368QeMDA1endegeC"], "asm": "OP_DUP OP_HASH160 5035f9d24fa01ad3b8eb1a6af4f8eddf990c8fc8 OP_EQUALVERIFY OP_CHECKSIG", "type": "pubkeyhash"}, "value": 0.06962154, "n": 0}, {"scriptPubKey": {"reqSigs": 1, "hex": "0014586b6dc649dc61edd5df9f50068dc5c4e1c68fae", "addresses": ["bc1qtp4km3jfm3s7m4wlnagqdrw9cnsudraw4ekvjc"], "asm": "0 586b6dc649dc61edd5df9f50068dc5c4e1c68fae", "type": "witness_v0_keyhash"}, "value": 0.6263573, "n": 1}], "hex": "01000000000101b29563023cc84ef0c8e79d44e8833b6549821b2bbd5f50839d63817f36e087400000000017160014115d276ab706db9ee98e1bad01729aa1bc5e2c9fffffffff02ea3b6a00000000001976a9145035f9d24fa01ad3b8eb1a6af4f8eddf990c8fc888acd2bebb0300000000160014586b6dc649dc61edd5df9f50068dc5c4e1c68fae02483045022100a58192d9ab671b124df8006b17f3ddc02684d663dc9c961b2b11d4efd7e6f99602206f87af463e79dca100c986f61f8a529f45cc7452f3546eded95ac55926c27124012103ebe3af8634d64c5229f86123df7bee102d0bc214ee24011d18298c049001b6e300000000", "vin": [{"txinwitness": ["3045022100a58192d9ab671b124df8006b17f3ddc02684d663dc9c961b2b11d4efd7e6f99602206f87af463e79dca100c986f61f8a529f45cc7452f3546eded95ac55926c2712401", "03ebe3af8634d64c5229f86123df7bee102d0bc214ee24011d18298c049001b6e3"], "sequence": 4294967295, "scriptSig": {"hex": "160014115d276ab706db9ee98e1bad01729aa1bc5e2c9f", "asm": "0014115d276ab706db9ee98e1bad01729aa1bc5e2c9f"}, "vout": 0, "txid": "4087e0367f81639d83505fbd2b1b8249653b83e8449de7c8f04ec83c026395b2"}], "txid": "c615f480083377c68b2f5f517226135e94d2f5ff34301e9c12c505cfbe470564", "blocktime": 1537871767, "version": 1, "confirmations": 11495, "time": 1537871767, "locktime": 0, "vsize": 167, "size": 249}