{"hash": "08230f758e2d430dae7e931d9a5f590e07d64a787f4aac559b306b01b78bae10", "blockhash": "0000000000000000000e13cef7c366c0283d82e591d1acd082e914b08063cdf1", "vout": [{"scriptPubKey": {"reqSigs": 1, "hex": "a9147e5d44820f80811b06328afe917cf3b906bcd5d887", "addresses": ["3DDAo4XAWJYUAB5TqDVucxrWdDHxstts1L"], "asm": "OP_HASH160 7e5d44820f80811b06328afe917cf3b906bcd5d8 OP_EQUAL", "type": "scripthash"}, "value": 0.00518499, "n": 0}, {"scriptPubKey": {"reqSigs": 1, "hex": "a914a78f4896ebb67230b0ab86aa0d52b353e70f188a87", "addresses": ["3GxzR6Ua3J8uD7AgfjzcLn1S6jrZ4thApn"], "asm": "OP_HASH160 a78f4896ebb67230b0ab86aa0d52b353e70f188a OP_EQUAL", "type": "scripthash"}, "value": 0.91880356, "n": 1}], "hex": "020000000001016b335d1c9ffd60bc2bdf2abf2d8ca96586b1c46f5b9d9c9e99bbe2751877a0b3010000001716001470cc676ab36c1970bfbb174fba967e1090f2d5daffffffff0263e907000000000017a9147e5d44820f80811b06328afe917cf3b906bcd5d887a4fb79050000000017a914a78f4896ebb67230b0ab86aa0d52b353e70f188a8702483045022100b218f8fa193123c4ae657f2c8113c4c89b18d0e122e15014646e1102a706ac23022074af23f38821a47a857ebfaa5d69be72e201b7bd71a9aa8863dda2ee3f35434b012103d871875b4cd2eccff1eeb28e195785a1c68052e063a3932120b98a5f7b26f04b00000000", "vin": [{"txinwitness": ["3045022100b218f8fa193123c4ae657f2c8113c4c89b18d0e122e15014646e1102a706ac23022074af23f38821a47a857ebfaa5d69be72e201b7bd71a9aa8863dda2ee3f35434b01", "03d871875b4cd2eccff1eeb28e195785a1c68052e063a3932120b98a5f7b26f04b"], "sequence": 4294967295, "scriptSig": {"hex": "16001470cc676ab36c1970bfbb174fba967e1090f2d5da", "asm": "001470cc676ab36c1970bfbb174fba967e1090f2d5da"}, "vout": 1, "txid": "b3a0771875e2bb999e9c9d5b6fc4b18665a98c2dbf2adf2bbc60fd9f1c5d336b"}], "txid": "c6165b57a4066827a4332121e954c6c736b673573b4856d825b11242e6ad1068", "blocktime": 1537871767, "version": 2, "confirmations": 11493, "time": 1537871767, "locktime": 0, "vsize": 166, "size": 248}