{"hash": "c61bf04e17ec700adbabe936e5d4871a25c7c173d75d4f30009202977ef045d8", "blockhash": "0000000000000000000dcc0f55137456b1a82d3642486a52398922ac4d620174", "vout": [{"scriptPubKey": {"reqSigs": 1, "hex": "76a914b4807424f5a1d81116ed4a28923465031a39c28c88ac", "addresses": ["1HTQWebimamBGymYR2TczFWApWkMUJqytu"], "asm": "OP_DUP OP_HASH160 b4807424f5a1d81116ed4a28923465031a39c28c OP_EQUALVERIFY OP_CHECKSIG", "type": "pubkeyhash"}, "value": 0.00076999, "n": 0}, {"scriptPubKey": {"reqSigs": 1, "hex": "76a91407280985183f4042f8f130056a57a091c1ef6b3688ac", "addresses": ["1eqhBArQvQWtHgCo6HCTGH71NPcbeosH4"], "asm": "OP_DUP OP_HASH160 07280985183f4042f8f130056a57a091c1ef6b36 OP_EQUALVERIFY OP_CHECKSIG", "type": "pubkeyhash"}, "value": 0.03993805, "n": 1}], "hex": "02000000016aac540d489eb01be79d4f16086451efb0b105cbec964ff2061f0dd6c80308df010000006a473044022074957266330515af5390e7055265b460256ecf9209e5b8b2be36ad9727d4f409022066ad22861b6f043cc7e7a65a2fee2456daed695388b34f5a2d09496b4e86cff7012103577749d701c32713ec4ff9d767f3e6514175733619c5303d5b7d5e9b98f1e1a6ffffffff02c72c0100000000001976a914b4807424f5a1d81116ed4a28923465031a39c28c88accdf03c00000000001976a91407280985183f4042f8f130056a57a091c1ef6b3688ac00000000", "vin": [{"sequence": 4294967295, "scriptSig": {"hex": "473044022074957266330515af5390e7055265b460256ecf9209e5b8b2be36ad9727d4f409022066ad22861b6f043cc7e7a65a2fee2456daed695388b34f5a2d09496b4e86cff7012103577749d701c32713ec4ff9d767f3e6514175733619c5303d5b7d5e9b98f1e1a6", "asm": "3044022074957266330515af5390e7055265b460256ecf9209e5b8b2be36ad9727d4f409022066ad22861b6f043cc7e7a65a2fee2456daed695388b34f5a2d09496b4e86cff7[ALL] 03577749d701c32713ec4ff9d767f3e6514175733619c5303d5b7d5e9b98f1e1a6"}, "vout": 1, "txid": "df0803c8d60d1f06f24f96eccb05b1b0ef516408164f9de71bb09e480d54ac6a"}], "txid": "c61bf04e17ec700adbabe936e5d4871a25c7c173d75d4f30009202977ef045d8", "blocktime": 1537870268, "version": 2, "confirmations": 11517, "time": 1537870268, "locktime": 0, "vsize": 225, "size": 225}