{"hash": "c61dc87f557a6a57a878e1effc1e3b34d6eb4bb94c7dd8965daabc75a5a61ee3", "blockhash": "0000000000000000001f76057863aec43deb6fa401d9628bb513d65a8098bfab", "vout": [{"scriptPubKey": {"reqSigs": 1, "hex": "a9143c6d12317e007130c38de002c07ab1fed771d7de87", "addresses": ["37CX8SicMyQbchd9Ue3epLH5ChSudXPS2G"], "asm": "OP_HASH160 3c6d12317e007130c38de002c07ab1fed771d7de OP_EQUAL", "type": "scripthash"}, "value": 0.0065, "n": 0}, {"scriptPubKey": {"reqSigs": 1, "hex": "76a91443849383122ebb8a28268a89700c9f723663b5b888ac", "addresses": ["17A16QmavnUfCW11DAApiJxp7ARnxN5pGX"], "asm": "OP_DUP OP_HASH160 43849383122ebb8a28268a89700c9f723663b5b8 OP_EQUALVERIFY OP_CHECKSIG", "type": "pubkeyhash"}, "value": 132.17038615, "n": 1}], "hex": "02000000017fac1f48150c25954030d5ae390124f573251a9ba9a576fab6c676bdfa4c6cd1020000008a47304402205987527468a997af62202fd7cbf9370b3400f137f5b47f07b12df126fc35a36c022040e642fd8298e6fc435431b5689356a775bb73437f46790244a3bdf07fd785a40141047146f0e0fcb3139947cf0beb870fe251930ca10d4545793d31033e801b5219abf56c11a3cf3406ca590e4c14b0dab749d20862b3adc4709153c280c2a78be10cffffffff0210eb09000000000017a9143c6d12317e007130c38de002c07ab1fed771d7de871701cc13030000001976a91443849383122ebb8a28268a89700c9f723663b5b888ac00000000", "vin": [{"sequence": 4294967295, "scriptSig": {"hex": "47304402205987527468a997af62202fd7cbf9370b3400f137f5b47f07b12df126fc35a36c022040e642fd8298e6fc435431b5689356a775bb73437f46790244a3bdf07fd785a40141047146f0e0fcb3139947cf0beb870fe251930ca10d4545793d31033e801b5219abf56c11a3cf3406ca590e4c14b0dab749d20862b3adc4709153c280c2a78be10c", "asm": "304402205987527468a997af62202fd7cbf9370b3400f137f5b47f07b12df126fc35a36c022040e642fd8298e6fc435431b5689356a775bb73437f46790244a3bdf07fd785a4[ALL] 047146f0e0fcb3139947cf0beb870fe251930ca10d4545793d31033e801b5219abf56c11a3cf3406ca590e4c14b0dab749d20862b3adc4709153c280c2a78be10c"}, "vout": 2, "txid": "d16c4cfabd76c6b6fa76a5a99b1a2573f5240139aed5304095250c15481fac7f"}], "txid": "c61dc87f557a6a57a878e1effc1e3b34d6eb4bb94c7dd8965daabc75a5a61ee3", "blocktime": 1537873891, "version": 2, "confirmations": 11474, "time": 1537873891, "locktime": 0, "vsize": 255, "size": 255}