{"hash": "c61e3628f708e46c2e59ee3af2f1b85cec839f99b909ee8435a9596b1f37b667", "blockhash": "00000000000000000004ffacab907a6b429b9a5745fa0b75af4234bf69dd7176", "vout": [{"scriptPubKey": {"reqSigs": 1, "hex": "76a914d243e6abb9a60fbff430b421d2df4b7d59ec186088ac", "addresses": ["1LAnF8h3qMGx3TSwNUHVneBZUEpwE4gu3D"], "asm": "OP_DUP OP_HASH160 d243e6abb9a60fbff430b421d2df4b7d59ec1860 OP_EQUALVERIFY OP_CHECKSIG", "type": "pubkeyhash"}, "value": 0.00077314, "n": 0}, {"scriptPubKey": {"reqSigs": 1, "hex": "76a91472297673d157fded548ff4eb352226063cf4d69c88ac", "addresses": ["1BQdhkNvvv8iyf1PUvbdeJbewNHLbj1cCU"], "asm": "OP_DUP OP_HASH160 72297673d157fded548ff4eb352226063cf4d69c OP_EQUALVERIFY OP_CHECKSIG", "type": "pubkeyhash"}, "value": 5.46e-06, "n": 1}, {"scriptPubKey": {"type": "nulldata", "hex": "6a146f6d6e69000000000000001f00000004c0277300", "asm": "OP_RETURN 6f6d6e69000000000000001f00000004c0277300"}, "value": 0.0, "n": 2}], "hex": "010000000154aad99e67f6c4b8c8cc16730024dcdc25d248e22a522a425088d9ec773a4abe000000006b4830450221008358bdb3b6fa466d20f8aa54e9d8f3a40b6a1fb207bca633a14426d3e4e3f3a502200471475f9ee98259532e8fe216288c843604159f0bfda30b48e9b5d56927b88601210271977291b74f1f5f5c42157e8aae804664eaaeccfd097918450d37f28fb94d77ffffffff03022e0100000000001976a914d243e6abb9a60fbff430b421d2df4b7d59ec186088ac22020000000000001976a91472297673d157fded548ff4eb352226063cf4d69c88ac0000000000000000166a146f6d6e69000000000000001f00000004c027730000000000", "vin": [{"sequence": 4294967295, "scriptSig": {"hex": "4830450221008358bdb3b6fa466d20f8aa54e9d8f3a40b6a1fb207bca633a14426d3e4e3f3a502200471475f9ee98259532e8fe216288c843604159f0bfda30b48e9b5d56927b88601210271977291b74f1f5f5c42157e8aae804664eaaeccfd097918450d37f28fb94d77", "asm": "30450221008358bdb3b6fa466d20f8aa54e9d8f3a40b6a1fb207bca633a14426d3e4e3f3a502200471475f9ee98259532e8fe216288c843604159f0bfda30b48e9b5d56927b886[ALL] 0271977291b74f1f5f5c42157e8aae804664eaaeccfd097918450d37f28fb94d77"}, "vout": 0, "txid": "be4a3a77ecd98850422a522ae248d225dcdc24007316ccc8b8c4f6679ed9aa54"}], "txid": "c61e3628f708e46c2e59ee3af2f1b85cec839f99b909ee8435a9596b1f37b667", "blocktime": 1537875543, "version": 1, "confirmations": 11464, "time": 1537875543, "locktime": 0, "vsize": 257, "size": 257}