{"hash": "7a3177e4a76fcd11f4fa6c4e7628da7d5ed38516935f0167c3e810a2b579e496", "blockhash": "0000000000000000001f0ddff1eddb255c1121bcd4da4f1bc9a0da00cae72433", "vout": [{"scriptPubKey": {"reqSigs": 1, "hex": "a9143242a1f826b29b80e862b294f4ebefdf036e11bd87", "addresses": ["36GmXrbbys3q8gkr7HrJgt97xtnrAoMPGA"], "asm": "OP_HASH160 3242a1f826b29b80e862b294f4ebefdf036e11bd OP_EQUAL", "type": "scripthash"}, "value": 5.71774782, "n": 0}, {"scriptPubKey": {"reqSigs": 1, "hex": "a914d6dd3d7afbcacc3d6c298639c263d77329bc4c2c87", "addresses": ["3MH7ZdZLeu5iJpFWH7Ea3rVew7ypzfEXac"], "asm": "OP_HASH160 d6dd3d7afbcacc3d6c298639c263d77329bc4c2c OP_EQUAL", "type": "scripthash"}, "value": 0.10002855, "n": 1}, {"scriptPubKey": {"reqSigs": 1, "hex": "a91469f37694484ebeac3cd520f43c690fc2b3dbb9da87", "addresses": ["3BMEXogTr5K8fwp8Gfvjz5QCZRVdDsFdzp"], "asm": "OP_HASH160 69f37694484ebeac3cd520f43c690fc2b3dbb9da OP_EQUAL", "type": "scripthash"}, "value": 0.02436891, "n": 2}, {"scriptPubKey": {"reqSigs": 1, "hex": "76a91484627cc516ad260b04adf6bd9fb30e5f4a69e3a888ac", "addresses": ["1D4zBM1GL4qFDxV98CexA2r6anusqTAgMJ"], "asm": "OP_DUP OP_HASH160 84627cc516ad260b04adf6bd9fb30e5f4a69e3a8 OP_EQUALVERIFY OP_CHECKSIG", "type": "pubkeyhash"}, "value": 0.1248745, "n": 3}], "hex": "020000000001016ae67fe8ccc0eff1b17e29bd8d71a668b7d2ee07271e9d65c436e8d2da1f00500300000017160014e1d781dd63cd2b316f5e835f6785ae5bf33efce0fdffffff043e9714220000000017a9143242a1f826b29b80e862b294f4ebefdf036e11bd87a7a198000000000017a914d6dd3d7afbcacc3d6c298639c263d77329bc4c2c871b2f25000000000017a91469f37694484ebeac3cd520f43c690fc2b3dbb9da871a8bbe00000000001976a91484627cc516ad260b04adf6bd9fb30e5f4a69e3a888ac0247304402207a43b9f625fa221448cccd88c9da5574fdc88ccb419a19ac9b20adfb824b047002207d54e9b3e4ed88baf5f846296cd838fec20c2d74ba17d4d2553c62c8a974e5160121037be99fcf8c2f2414a0c67cf162aceabf6e56407aa197139d74cf301823817be111490800", "vin": [{"txinwitness": ["304402207a43b9f625fa221448cccd88c9da5574fdc88ccb419a19ac9b20adfb824b047002207d54e9b3e4ed88baf5f846296cd838fec20c2d74ba17d4d2553c62c8a974e51601", "037be99fcf8c2f2414a0c67cf162aceabf6e56407aa197139d74cf301823817be1"], "sequence": 4294967293, "scriptSig": {"hex": "160014e1d781dd63cd2b316f5e835f6785ae5bf33efce0", "asm": "0014e1d781dd63cd2b316f5e835f6785ae5bf33efce0"}, "vout": 3, "txid": "50001fdad2e836c4659d1e2707eed2b768a6718dbd297eb1f1efc0cce87fe66a"}], "txid": "c629d2dcd03c5f4f428dc67f58e4a2ff9b90fde6ad67536fc36d7eb7cd119eef", "blocktime": 1537872018, "version": 2, "confirmations": 11489, "time": 1537872018, "locktime": 542993, "vsize": 232, "size": 313}