{"hash": "c62ab59db4a00ae0dccb04e13f562cb1b01b5205bc83ef44bbf50894283607f3", "blockhash": "0000000000000000001f76057863aec43deb6fa401d9628bb513d65a8098bfab", "vout": [{"scriptPubKey": {"reqSigs": 1, "hex": "a914d0b5c4f0ccfbd7417ffa0c6394f114ea5b7669be87", "addresses": ["3LiaDzmX7NFp4e2STVQx7QGD7EvQsq6XET"], "asm": "OP_HASH160 d0b5c4f0ccfbd7417ffa0c6394f114ea5b7669be OP_EQUAL", "type": "scripthash"}, "value": 0.00365715, "n": 0}, {"scriptPubKey": {"reqSigs": 1, "hex": "76a9147f0126db5d2edc24af5929ff4472344fdba3cb4a88ac", "addresses": ["1CaYCPcXAeTHZEKoJko4Z4C5S8hTXu3cR5"], "asm": "OP_DUP OP_HASH160 7f0126db5d2edc24af5929ff4472344fdba3cb4a OP_EQUALVERIFY OP_CHECKSIG", "type": "pubkeyhash"}, "value": 0.06139078, "n": 1}], "hex": "01000000014d6833abe5ce00840f508ddf36b3a569fd59bc2161b3222022e65c8bddc49a66010000006a473044022064882c4caafe09316509a9658c4a4361f62ac9b88c623feebc4a44c2cbee7a8502206ff56dcec7a2dc3f173d7fba6c330fa212eaf43bc81d9a61b03c7da24229735e0121023f8cc4bb73185fa7cff0311ba242321b65e6139f2722160bcd1bb0b5399f440fffffffff02939405000000000017a914d0b5c4f0ccfbd7417ffa0c6394f114ea5b7669be87c6ac5d00000000001976a9147f0126db5d2edc24af5929ff4472344fdba3cb4a88ac00000000", "vin": [{"sequence": 4294967295, "scriptSig": {"hex": "473044022064882c4caafe09316509a9658c4a4361f62ac9b88c623feebc4a44c2cbee7a8502206ff56dcec7a2dc3f173d7fba6c330fa212eaf43bc81d9a61b03c7da24229735e0121023f8cc4bb73185fa7cff0311ba242321b65e6139f2722160bcd1bb0b5399f440f", "asm": "3044022064882c4caafe09316509a9658c4a4361f62ac9b88c623feebc4a44c2cbee7a8502206ff56dcec7a2dc3f173d7fba6c330fa212eaf43bc81d9a61b03c7da24229735e[ALL] 023f8cc4bb73185fa7cff0311ba242321b65e6139f2722160bcd1bb0b5399f440f"}, "vout": 1, "txid": "669ac4dd8b5ce6222022b36121bc59fd69a5b336df8d500f8400cee5ab33684d"}], "txid": "c62ab59db4a00ae0dccb04e13f562cb1b01b5205bc83ef44bbf50894283607f3", "blocktime": 1537873891, "version": 1, "confirmations": 11477, "time": 1537873891, "locktime": 0, "vsize": 223, "size": 223}