{"hash": "ed4651ad2c8cd97f35c127aee7e20d2e0ca2399e3dc8d9b73f9bd8b82692f379", "blockhash": "00000000000000000004ffacab907a6b429b9a5745fa0b75af4234bf69dd7176", "vout": [{"scriptPubKey": {"reqSigs": 1, "hex": "76a91408932c9db369881b866b6d81a237b198a2e8eff688ac", "addresses": ["1nLiPDMAiSs85a13Vp6b2rGcsScmjUMpV"], "asm": "OP_DUP OP_HASH160 08932c9db369881b866b6d81a237b198a2e8eff6 OP_EQUALVERIFY OP_CHECKSIG", "type": "pubkeyhash"}, "value": 0.03359, "n": 0}, {"scriptPubKey": {"reqSigs": 1, "hex": "a914d46249dfb1076e2b91d606e5c2b09f1693c4f9b887", "addresses": ["3M3zvRPdUGR5W3ZHs3T5KSYM3TGFY1zLfg"], "asm": "OP_HASH160 d46249dfb1076e2b91d606e5c2b09f1693c4f9b8 OP_EQUAL", "type": "scripthash"}, "value": 0.00998537, "n": 1}], "hex": "0200000000010112cba3039a2941be1330b68974c936ee5d633a90e6b372db5e2df7ec3712e03700000000171600142e0dad2066d3ad4ac59b4f3848c2414fb49c0b9bfeffffff0218413300000000001976a91408932c9db369881b866b6d81a237b198a2e8eff688ac893c0f000000000017a914d46249dfb1076e2b91d606e5c2b09f1693c4f9b8870247304402201caa1536c54dadb8a76791922a1456e0feed1fea65a7a6cefe1b95d6b9fd384e022031b07705cc25fe711225983b918d787228cc3758a75fab2dd9bc91a742172ec0012103d9553cb99a928f40eef4bc68a017e3afcb1fb8182a14e15b03f6791fe817711216490800", "vin": [{"txinwitness": ["304402201caa1536c54dadb8a76791922a1456e0feed1fea65a7a6cefe1b95d6b9fd384e022031b07705cc25fe711225983b918d787228cc3758a75fab2dd9bc91a742172ec001", "03d9553cb99a928f40eef4bc68a017e3afcb1fb8182a14e15b03f6791fe8177112"], "sequence": 4294967294, "scriptSig": {"hex": "1600142e0dad2066d3ad4ac59b4f3848c2414fb49c0b9b", "asm": "00142e0dad2066d3ad4ac59b4f3848c2414fb49c0b9b"}, "vout": 0, "txid": "37e01237ecf72d5edb72b3e6903a635dee36c97489b63013be41299a03a3cb12"}], "txid": "c62e59ef9d8e10844c226cb446aca59e1515d31c0332c4b1490d8b578f73fbb6", "blocktime": 1537875543, "version": 2, "confirmations": 11464, "time": 1537875543, "locktime": 542998, "vsize": 168, "size": 249}