{"hash": "87f07324ae7b6dc7d5e6abce15492a5b8887dfc6303b08b3aa91284ead094db7", "blockhash": "0000000000000000001e0dab787dd257d1dbfcb92a98c2207d5e1078be1f4165", "vout": [{"scriptPubKey": {"reqSigs": 1, "hex": "76a91435fa95e11481b8ffad7c5968e8dd97174a2ebe7888ac", "addresses": ["15vR19ixeVAyGwyKwk2CDqwM4EbLyG3m1c"], "asm": "OP_DUP OP_HASH160 35fa95e11481b8ffad7c5968e8dd97174a2ebe78 OP_EQUALVERIFY OP_CHECKSIG", "type": "pubkeyhash"}, "value": 0.00169948, "n": 0}, {"scriptPubKey": {"reqSigs": 1, "hex": "a914a04cd2777c2ad1fe4b44cc6cb55b40460e57e98f87", "addresses": ["3GJc4w28Bpq528SALzK3hePv32RPvuLAX4"], "asm": "OP_HASH160 a04cd2777c2ad1fe4b44cc6cb55b40460e57e98f OP_EQUAL", "type": "scripthash"}, "value": 0.00998319, "n": 1}], "hex": "02000000000101e77242d87bcef83a3e53f03fc7fb40a4a8afbb41a80b06aba8eca844b73da8910d000000171600144f1dc65c0d30ff24995e6c70583edabc4b12999afeffffff02dc970200000000001976a91435fa95e11481b8ffad7c5968e8dd97174a2ebe7888acaf3b0f000000000017a914a04cd2777c2ad1fe4b44cc6cb55b40460e57e98f870247304402202c8b143e7f883785bb00d82d9de4974b2bb4d15e9f7174b477ec506d4091a072022075e7f7e4d68dafaded095f6c12f947dc57233eb2489e1597baacb7cd964961d80121026bd8fb1508716bae1eaf7e4ec125cb3bbbb24afc1a7e9d29c2cf9229e434ad1e12490800", "vin": [{"txinwitness": ["304402202c8b143e7f883785bb00d82d9de4974b2bb4d15e9f7174b477ec506d4091a072022075e7f7e4d68dafaded095f6c12f947dc57233eb2489e1597baacb7cd964961d801", "026bd8fb1508716bae1eaf7e4ec125cb3bbbb24afc1a7e9d29c2cf9229e434ad1e"], "sequence": 4294967294, "scriptSig": {"hex": "1600144f1dc65c0d30ff24995e6c70583edabc4b12999a", "asm": "00144f1dc65c0d30ff24995e6c70583edabc4b12999a"}, "vout": 13, "txid": "91a83db744a8eca8ab060ba841bbafa8a440fbc73ff0533e3af8ce7bd84272e7"}], "txid": "c6331e3b41211165e03cea8cb589a36c9802f449d72344aba518f1f900767ffd", "blocktime": 1537872475, "version": 2, "confirmations": 11486, "time": 1537872475, "locktime": 542994, "vsize": 168, "size": 249}