{"hash": "6daeaa36bdc47955744271053ccc9d446ff0eb8ae74b4b118f160b33187bcd27", "blockhash": "0000000000000000000e13cef7c366c0283d82e591d1acd082e914b08063cdf1", "vout": [{"scriptPubKey": {"reqSigs": 1, "hex": "76a9142693c4e2167abd04825703e7a3367d6b12288aeb88ac", "addresses": ["14WyhTxppffkA8xV3PdhAcnBYW2wSPoUDP"], "asm": "OP_DUP OP_HASH160 2693c4e2167abd04825703e7a3367d6b12288aeb OP_EQUALVERIFY OP_CHECKSIG", "type": "pubkeyhash"}, "value": 0.75153, "n": 0}], "hex": "0200000000010c0da17c67b449d1e35e489ca2d3dbe1ec9fb22f61293d60e72ac6dc360fec5ac01d000000171600146cc4a8a52a0448287ecad07da3064c07c7da4c6bfeffffff0e1ad2842f1fa79edb5596d83e7eeb68df2290b5c4bf20c44b9ad6edbb13a15902000000171600144540d751403f694d54ca712be0b4506f9c93ed20feffffff4906ee09f401d16bdd0b620777941a6836d5d329f7389ddeb4e3b1d0925c5a240000000017160014c4c8d093d37a478927ae008b81d838c61b93df9afeffffff491f2fc7e14c07b61b43b9d7971095df2fbf161844da6e56e67d555bbf585f51140000001716001452a3319edb5794b9aadb2d51a9ca28d936f14b8bfeffffff4e9a72432a30b84087084233d630aec8c461d8dbbf604bbf3e5e57ce27a17aa60100000017160014e3ed99a5d5385f6b27475053a364b6cf2e192b25feffffff56f5173941b621cf675eb0f725651043b34a2da6700b30b7f037c47d33c8918a010000001716001409c64a68190bc1cae7cc91e15a16cce83be91785feffffff5f66e5700bf8e4ca7c5f2d9d45a04c24a77372d46eeb1782da0433f44a37cfa100000000171600148cfbb94ba0e0fdf594ea949ae24c6b77e3061ff7feffffff8fcf8e8f4a043d68e69b5181c1f0855770175ab71be3bd512cc787a8dcd90e3f0d00000017160014b99d41f3fc670467ea983d171763555bfc5664fefeffffffc49776238e0adf98a771d4ae86c972fafd56cb006f579f538837264cb7d3d0f30000000017160014b45f936b91b3a8621f737dbe5cffdafc617ae8a4feffffffcfb5f40574824fb339944786f7b34d649e1889554ae60e7e5c87d88f190109700000000017160014ff95466e89a1e8ab28ae149810509476ad31cb24feffffffea6b24a24135cd37f9ff7fb4e0fb34d4b79599addd259e0ce25a70dca0cf39db00000000171600146bb6d24d9b951f81f87ab3a251a1fe4b165168c1fefffffff00f2ea02a18e6ab23d206824a30552fe75637422c6ccac09b7d2c2eefd26e40000000001716001403e1703a2cf6f6354b7fba55fa7f7e26344572e5feffffff0168be7a04000000001976a9142693c4e2167abd04825703e7a3367d6b12288aeb88ac02483045022100c22f2e3d4a60ce0c2782f1a488e38f82106793176b937093b26b94d35002eda20220549348d45c0d73e3c84f531e17121ef42091be158f165dc9f013819bf99b44f60121024449eb239871f72267d008c6ab57687c1df76ea6bb8be1bd30cbac0effb1680802483045022100c27e629742c4a76f990dd284fafab7d386bbeefc22316370407056f564b2c3d402207220d69b7ad2542c783befaade9b0d4f5e7968859ff82db09226f08ab2dd4821012102f13a58a24fb53f78e9a471066eb5f00715113df2da8282bcef1118f7231490390247304402206fdd497c2aa4e81d17d5f487f917426051ecec0c17a5e8eb149ba7c4560db97a02207c9e90358ef529f247bac3ca88b8896d39abe6a2602201c116f86ff081942b9e01210332746a589df266cc7c288db2467048ef57ac7d830b94f3421cede066c371a2b402483045022100cfb6e9017ff14d5c9cb28239c5ad7db244e403a2426f39723b9a2d2a983e7bf40220770f170bc20661836ad8103cfc16c8557e418aa4230d57379571896f5213dcdb0121026522508338e0301683ca6032c361ccd4f84abfc17725edb49189a7f610580c5a02483045022100dc08f87b3079ba2b76f4c088da04fe299e7808686a5318145512cd77d58a27d102200e16cbf1ca6920fcc7a710b1395819578e3112af3f067e7fd6155fec8872651e012103a8f82ad65ca9ed375c104ba0661756dba45d48df0f24631589dacaed086726b602483045022100ea5cfa80fe85e059a6ce84fa30fdfe77b89c66d8c2423c74c1ebcb20c749dc95022056d5c910d7376eb1443b0c5b897b8cd582071153cc6afda11a5571a56a23d645012103a92284322c6846c4371ef34c7803706df1836cef8e445a8fcf0b508d0c4b82050247304402204e051af2b3937238cb8a6be40792870a67cf1d6122288b75fc25c3555818c02402203e48e1df38373ab683eb1a4dc3c5e1e402088021b430e200c53e02de1cdc0cef0121034f3abb0d8d72cec35c6fbdb4186742b77c3fea4edd276c565da089f19d47f1d80247304402202051eff81e70e7a09090c018f3388f9a40fc9bfcd66675ba92aee908babd7a47022019a9c8abe8300838e9ec5c946ba6f43a056f541280e9ae0d70f2f409b2804b4e012103c7243dc7f2c72515d4ddb96b4a7b3203a579e3d2cf947e69362c515a12b4a7e402483045022100857950bc5741463c634b50604c5bf498214f73a37c8716f6b39ff81bc46dc17602203cf11085096bdbab6f454dfccd3b469639397ef5aba1d11f9f06df2797a8f7c90121023f44ae3b6914c82b2d6eeda893c4488616be31d209c284a974a4dbe594239fb302473044022052c3ffa7b8f5b7eda5fdc1a5c4913796d1396a390e5c4e6b86d85957f2cf15dd02204285eef5592bc93d699047d3621893e0d583a4c5d123db3ffe540d063196b87c012103e1611a585b7932162c5b21e20a7efec8b4a5caa04e678aec86b93160121cec3302483045022100a10200e179f0652727fa9dd2dbde01325463d0bc61ff2d7d059b33bb455686ef022042795b015d137a3ec68a1e82af4824eebcff5e3075a9610d46d8bc47748ff05b0121036ba0dee470246dbfca2f9af0b161517a74899f31f56e5be824e5348c7c20b8b30247304402203c76b4959133d8c2df819ec27c6841d50dd6622602d785c3a432da693679306a02205f2a5e3b9815db768ab418feffaf41ba1b962d2c6ed8388d397deab4aa29489b012103d61dfdd188a5354bc9f63fd4175fb0afbb3ac15d80d54bd03fe197e56a89c7a210490800", "vin": [{"txinwitness": ["3045022100c22f2e3d4a60ce0c2782f1a488e38f82106793176b937093b26b94d35002eda20220549348d45c0d73e3c84f531e17121ef42091be158f165dc9f013819bf99b44f601", "024449eb239871f72267d008c6ab57687c1df76ea6bb8be1bd30cbac0effb16808"], "sequence": 4294967294, "scriptSig": {"hex": "1600146cc4a8a52a0448287ecad07da3064c07c7da4c6b", "asm": "00146cc4a8a52a0448287ecad07da3064c07c7da4c6b"}, "vout": 29, "txid": "c05aec0f36dcc62ae7603d29612fb29fece1dbd3a29c485ee3d149b4677ca10d"}, {"txinwitness": ["3045022100c27e629742c4a76f990dd284fafab7d386bbeefc22316370407056f564b2c3d402207220d69b7ad2542c783befaade9b0d4f5e7968859ff82db09226f08ab2dd482101", "02f13a58a24fb53f78e9a471066eb5f00715113df2da8282bcef1118f723149039"], "sequence": 4294967294, "scriptSig": {"hex": "1600144540d751403f694d54ca712be0b4506f9c93ed20", "asm": "00144540d751403f694d54ca712be0b4506f9c93ed20"}, "vout": 2, "txid": "59a113bbedd69a4bc420bfc4b59022df68eb7e3ed89655db9ea71f2f84d21a0e"}, {"txinwitness": ["304402206fdd497c2aa4e81d17d5f487f917426051ecec0c17a5e8eb149ba7c4560db97a02207c9e90358ef529f247bac3ca88b8896d39abe6a2602201c116f86ff081942b9e01", "0332746a589df266cc7c288db2467048ef57ac7d830b94f3421cede066c371a2b4"], "sequence": 4294967294, "scriptSig": {"hex": "160014c4c8d093d37a478927ae008b81d838c61b93df9a", "asm": "0014c4c8d093d37a478927ae008b81d838c61b93df9a"}, "vout": 0, "txid": "245a5c92d0b1e3b4de9d38f729d3d536681a947707620bdd6bd101f409ee0649"}, {"txinwitness": ["3045022100cfb6e9017ff14d5c9cb28239c5ad7db244e403a2426f39723b9a2d2a983e7bf40220770f170bc20661836ad8103cfc16c8557e418aa4230d57379571896f5213dcdb01", "026522508338e0301683ca6032c361ccd4f84abfc17725edb49189a7f610580c5a"], "sequence": 4294967294, "scriptSig": {"hex": "16001452a3319edb5794b9aadb2d51a9ca28d936f14b8b", "asm": "001452a3319edb5794b9aadb2d51a9ca28d936f14b8b"}, "vout": 20, "txid": "515f58bf5b557de6566eda441816bf2fdf951097d7b9431bb6074ce1c72f1f49"}, {"txinwitness": ["3045022100dc08f87b3079ba2b76f4c088da04fe299e7808686a5318145512cd77d58a27d102200e16cbf1ca6920fcc7a710b1395819578e3112af3f067e7fd6155fec8872651e01", "03a8f82ad65ca9ed375c104ba0661756dba45d48df0f24631589dacaed086726b6"], "sequence": 4294967294, "scriptSig": {"hex": "160014e3ed99a5d5385f6b27475053a364b6cf2e192b25", "asm": "0014e3ed99a5d5385f6b27475053a364b6cf2e192b25"}, "vout": 1, "txid": "a67aa127ce575e3ebf4b60bfdbd861c4c8ae30d63342088740b8302a43729a4e"}, {"txinwitness": ["3045022100ea5cfa80fe85e059a6ce84fa30fdfe77b89c66d8c2423c74c1ebcb20c749dc95022056d5c910d7376eb1443b0c5b897b8cd582071153cc6afda11a5571a56a23d64501", "03a92284322c6846c4371ef34c7803706df1836cef8e445a8fcf0b508d0c4b8205"], "sequence": 4294967294, "scriptSig": {"hex": "16001409c64a68190bc1cae7cc91e15a16cce83be91785", "asm": "001409c64a68190bc1cae7cc91e15a16cce83be91785"}, "vout": 1, "txid": "8a91c8337dc437f0b7300b70a62d4ab343106525f7b05e67cf21b6413917f556"}, {"txinwitness": ["304402204e051af2b3937238cb8a6be40792870a67cf1d6122288b75fc25c3555818c02402203e48e1df38373ab683eb1a4dc3c5e1e402088021b430e200c53e02de1cdc0cef01", "034f3abb0d8d72cec35c6fbdb4186742b77c3fea4edd276c565da089f19d47f1d8"], "sequence": 4294967294, "scriptSig": {"hex": "1600148cfbb94ba0e0fdf594ea949ae24c6b77e3061ff7", "asm": "00148cfbb94ba0e0fdf594ea949ae24c6b77e3061ff7"}, "vout": 0, "txid": "a1cf374af43304da8217eb6ed47273a7244ca0459d2d5f7ccae4f80b70e5665f"}, {"txinwitness": ["304402202051eff81e70e7a09090c018f3388f9a40fc9bfcd66675ba92aee908babd7a47022019a9c8abe8300838e9ec5c946ba6f43a056f541280e9ae0d70f2f409b2804b4e01", "03c7243dc7f2c72515d4ddb96b4a7b3203a579e3d2cf947e69362c515a12b4a7e4"], "sequence": 4294967294, "scriptSig": {"hex": "160014b99d41f3fc670467ea983d171763555bfc5664fe", "asm": "0014b99d41f3fc670467ea983d171763555bfc5664fe"}, "vout": 13, "txid": "3f0ed9dca887c72c51bde31bb75a17705785f0c181519be6683d044a8f8ecf8f"}, {"txinwitness": ["3045022100857950bc5741463c634b50604c5bf498214f73a37c8716f6b39ff81bc46dc17602203cf11085096bdbab6f454dfccd3b469639397ef5aba1d11f9f06df2797a8f7c901", "023f44ae3b6914c82b2d6eeda893c4488616be31d209c284a974a4dbe594239fb3"], "sequence": 4294967294, "scriptSig": {"hex": "160014b45f936b91b3a8621f737dbe5cffdafc617ae8a4", "asm": "0014b45f936b91b3a8621f737dbe5cffdafc617ae8a4"}, "vout": 0, "txid": "f3d0d3b74c263788539f576f00cb56fdfa72c986aed471a798df0a8e237697c4"}, {"txinwitness": ["3044022052c3ffa7b8f5b7eda5fdc1a5c4913796d1396a390e5c4e6b86d85957f2cf15dd02204285eef5592bc93d699047d3621893e0d583a4c5d123db3ffe540d063196b87c01", "03e1611a585b7932162c5b21e20a7efec8b4a5caa04e678aec86b93160121cec33"], "sequence": 4294967294, "scriptSig": {"hex": "160014ff95466e89a1e8ab28ae149810509476ad31cb24", "asm": "0014ff95466e89a1e8ab28ae149810509476ad31cb24"}, "vout": 0, "txid": "700901198fd8875c7e0ee64a5589189e644db3f786479439b34f827405f4b5cf"}, {"txinwitness": ["3045022100a10200e179f0652727fa9dd2dbde01325463d0bc61ff2d7d059b33bb455686ef022042795b015d137a3ec68a1e82af4824eebcff5e3075a9610d46d8bc47748ff05b01", "036ba0dee470246dbfca2f9af0b161517a74899f31f56e5be824e5348c7c20b8b3"], "sequence": 4294967294, "scriptSig": {"hex": "1600146bb6d24d9b951f81f87ab3a251a1fe4b165168c1", "asm": "00146bb6d24d9b951f81f87ab3a251a1fe4b165168c1"}, "vout": 0, "txid": "db39cfa0dc705ae20c9e25ddad9995b7d434fbe0b47ffff937cd3541a2246bea"}, {"txinwitness": ["304402203c76b4959133d8c2df819ec27c6841d50dd6622602d785c3a432da693679306a02205f2a5e3b9815db768ab418feffaf41ba1b962d2c6ed8388d397deab4aa29489b01", "03d61dfdd188a5354bc9f63fd4175fb0afbb3ac15d80d54bd03fe197e56a89c7a2"], "sequence": 4294967294, "scriptSig": {"hex": "16001403e1703a2cf6f6354b7fba55fa7f7e26344572e5", "asm": "001403e1703a2cf6f6354b7fba55fa7f7e26344572e5"}, "vout": 0, "txid": "406ed2ef2e2c7d9bc0ca6c2c423756e72f55304a8206d223abe6182aa02e0ff0"}], "txid": "c63a5c83c9d505e66825c1a674ed6867677fb7d750bc1989c771bc788aa11aa6", "blocktime": 1537871767, "version": 2, "confirmations": 11491, "time": 1537871767, "locktime": 542992, "vsize": 1136, "size": 2105}