{"hash": "c650190cf100ebf6baf4643151c75b9923b28b82a4a1d5f00abfa4c1ee68d18c", "blockhash": "0000000000000000000dcc0f55137456b1a82d3642486a52398922ac4d620174", "vout": [{"scriptPubKey": {"reqSigs": 1, "hex": "76a9143bfcbb03c106ae6beef82bec42afa8731813a85e88ac", "addresses": ["16UBdLt9hwD213uxmio9d6jtuuUN82Cq32"], "asm": "OP_DUP OP_HASH160 3bfcbb03c106ae6beef82bec42afa8731813a85e OP_EQUALVERIFY OP_CHECKSIG", "type": "pubkeyhash"}, "value": 0.03130676, "n": 0}], "hex": "0100000001c4318c51956046e0e54de67e3dbfd102a42fa7c396a9aa8932f7947850da876b000000006a47304402201fc5fee67f0eceb867a5917cbf1df4481dd0d98bbcb8faf8765b4ba6564b07f102201acad76046a045ad73e5add8e360d849307664c94fd76f792f381c678c5022a201210384cf1de40f37264dbb302ff07c531ee88227e487576e10312cf5e64e9d45aafcfeffffff0134c52f00000000001976a9143bfcbb03c106ae6beef82bec42afa8731813a85e88ac0c490800", "vin": [{"sequence": 4294967294, "scriptSig": {"hex": "47304402201fc5fee67f0eceb867a5917cbf1df4481dd0d98bbcb8faf8765b4ba6564b07f102201acad76046a045ad73e5add8e360d849307664c94fd76f792f381c678c5022a201210384cf1de40f37264dbb302ff07c531ee88227e487576e10312cf5e64e9d45aafc", "asm": "304402201fc5fee67f0eceb867a5917cbf1df4481dd0d98bbcb8faf8765b4ba6564b07f102201acad76046a045ad73e5add8e360d849307664c94fd76f792f381c678c5022a2[ALL] 0384cf1de40f37264dbb302ff07c531ee88227e487576e10312cf5e64e9d45aafc"}, "vout": 0, "txid": "6b87da507894f73289aaa996c3a72fa402d1bf3d7ee64de5e0466095518c31c4"}], "txid": "c650190cf100ebf6baf4643151c75b9923b28b82a4a1d5f00abfa4c1ee68d18c", "blocktime": 1537870268, "version": 1, "confirmations": 11518, "time": 1537870268, "locktime": 542988, "vsize": 191, "size": 191}