{"hash": "c658c29f3d99d8b7a33f75dc766365632f2d98bb6c1c474123fc0c62112e156e", "blockhash": "000000000000000000022b45ed06c6f4ccd3cf7fb5ba4856ebd2e58215665228", "vout": [{"scriptPubKey": {"reqSigs": 1, "hex": "a914e6488505ded38ee80dd153586655c96f35f18ff087", "addresses": ["3NgeDR6pgzPSVASyak9vZkowawsKNjsRhc"], "asm": "OP_HASH160 e6488505ded38ee80dd153586655c96f35f18ff0 OP_EQUAL", "type": "scripthash"}, "value": 0.0032106, "n": 0}, {"scriptPubKey": {"reqSigs": 1, "hex": "76a9146c01b335a8924f87d1a43a8b5ecd7f6b75cd690588ac", "addresses": ["1Ar61qdFbTJNYcadZnYupoRYo37CP7CrFh"], "asm": "OP_DUP OP_HASH160 6c01b335a8924f87d1a43a8b5ecd7f6b75cd6905 OP_EQUALVERIFY OP_CHECKSIG", "type": "pubkeyhash"}, "value": 0.01726038, "n": 1}], "hex": "0100000001b89e928b4e290947a68dcb4bf543d97f9579ec477d1bcc50f778e16b70f1d327010000006a47304402206fd816102bb54af5415e6f3f569b7805d23c0e8ff68512afa6624c5648a3f87c02203d34baf516ac22ae2335bd7081365355e7be318ed68bb9e475f25c07edb628e101210260b38668ca07badba172c09ce2146d186c0ece664c8e0d060286969bd14bdef1ffffffff0224e604000000000017a914e6488505ded38ee80dd153586655c96f35f18ff08756561a00000000001976a9146c01b335a8924f87d1a43a8b5ecd7f6b75cd690588ac00000000", "vin": [{"sequence": 4294967295, "scriptSig": {"hex": "47304402206fd816102bb54af5415e6f3f569b7805d23c0e8ff68512afa6624c5648a3f87c02203d34baf516ac22ae2335bd7081365355e7be318ed68bb9e475f25c07edb628e101210260b38668ca07badba172c09ce2146d186c0ece664c8e0d060286969bd14bdef1", "asm": "304402206fd816102bb54af5415e6f3f569b7805d23c0e8ff68512afa6624c5648a3f87c02203d34baf516ac22ae2335bd7081365355e7be318ed68bb9e475f25c07edb628e1[ALL] 0260b38668ca07badba172c09ce2146d186c0ece664c8e0d060286969bd14bdef1"}, "vout": 1, "txid": "27d3f1706be178f750cc1b7d47ec79957fd943f54bcb8da64709294e8b929eb8"}], "txid": "c658c29f3d99d8b7a33f75dc766365632f2d98bb6c1c474123fc0c62112e156e", "blocktime": 1537869901, "version": 1, "confirmations": 11522, "time": 1537869901, "locktime": 0, "vsize": 223, "size": 223}