{"hash": "c660f0d594c5cb4bcf070573804c126d06d0d8ee1d89c1ac946d7348ecbe82a2", "blockhash": "0000000000000000000e13cef7c366c0283d82e591d1acd082e914b08063cdf1", "vout": [{"scriptPubKey": {"reqSigs": 1, "hex": "76a914a25dec4d0011064ef106a983c39c7a540699f22088ac", "addresses": ["1FoWyxwPXuj4C6abqwhjDWdz6D4PZgYRjA"], "asm": "OP_DUP OP_HASH160 a25dec4d0011064ef106a983c39c7a540699f220 OP_EQUALVERIFY OP_CHECKSIG", "type": "pubkeyhash"}, "value": 0.01990415, "n": 0}, {"scriptPubKey": {"type": "nulldata", "hex": "6a146f6d6e69000000000000001f0000000263f00231", "asm": "OP_RETURN 6f6d6e69000000000000001f0000000263f00231"}, "value": 0.0, "n": 1}, {"scriptPubKey": {"reqSigs": 1, "hex": "a91402b53aec13d24921f9ed3c86f64f7e9a7991374087", "addresses": ["31wLP27b333pcMBSRQ6RiRM3unjFh9p41t"], "asm": "OP_HASH160 02b53aec13d24921f9ed3c86f64f7e9a79913740 OP_EQUAL", "type": "scripthash"}, "value": 5.4e-06, "n": 2}], "hex": "01000000016dc330ef074eb482cc187a5a6910ee2860b2a0e65def2c49696ed2eb1a1c50d2010000006b483045022100f5bb575f250b1257c37f672989d5dcb3bacb2fb0aaed3978b71189c879455109022059093a07f0c46f7b59ee8592bc9e9a982a6f321c8c1993b2c23c6df6a13f4d01012103da5bac7b36d5aa38f531c6b9601e21bb598a4b6716ebed38b009a55dabde9440feffffff030f5f1e00000000001976a914a25dec4d0011064ef106a983c39c7a540699f22088ac0000000000000000166a146f6d6e69000000000000001f0000000263f002311c0200000000000017a91402b53aec13d24921f9ed3c86f64f7e9a799137408710490800", "vin": [{"sequence": 4294967294, "scriptSig": {"hex": "483045022100f5bb575f250b1257c37f672989d5dcb3bacb2fb0aaed3978b71189c879455109022059093a07f0c46f7b59ee8592bc9e9a982a6f321c8c1993b2c23c6df6a13f4d01012103da5bac7b36d5aa38f531c6b9601e21bb598a4b6716ebed38b009a55dabde9440", "asm": "3045022100f5bb575f250b1257c37f672989d5dcb3bacb2fb0aaed3978b71189c879455109022059093a07f0c46f7b59ee8592bc9e9a982a6f321c8c1993b2c23c6df6a13f4d01[ALL] 03da5bac7b36d5aa38f531c6b9601e21bb598a4b6716ebed38b009a55dabde9440"}, "vout": 1, "txid": "d2501c1aebd26e69492cef5de6a0b26028ee10695a7a18cc82b44e07ef30c36d"}], "txid": "c660f0d594c5cb4bcf070573804c126d06d0d8ee1d89c1ac946d7348ecbe82a2", "blocktime": 1537871767, "version": 1, "confirmations": 11490, "time": 1537871767, "locktime": 542992, "vsize": 255, "size": 255}