{"hash": "a335d268bc991dc4d12b6583b96c4f89a486563951d4557499587bc5cbdbc59e", "blockhash": "0000000000000000000e13cef7c366c0283d82e591d1acd082e914b08063cdf1", "vout": [{"scriptPubKey": {"reqSigs": 1, "hex": "76a91459541425f08f2bffb87f8f9ba8bca23d9ffa6dec88ac", "addresses": ["199KrxtngGm6KprjVjSaZt9ssakR8oG3ES"], "asm": "OP_DUP OP_HASH160 59541425f08f2bffb87f8f9ba8bca23d9ffa6dec OP_EQUALVERIFY OP_CHECKSIG", "type": "pubkeyhash"}, "value": 0.00156055, "n": 0}, {"scriptPubKey": {"reqSigs": 1, "hex": "a9141988a27e3c2df4ddee7fad5a2303d086179b2a3087", "addresses": ["3422VtS7UtCvXYxoXMVp6eZupR252z85oC"], "asm": "OP_HASH160 1988a27e3c2df4ddee7fad5a2303d086179b2a30 OP_EQUAL", "type": "scripthash"}, "value": 2.58639521, "n": 1}, {"scriptPubKey": {"reqSigs": 1, "hex": "76a914ad3ef25c308a4089336fa6ec4604c60036ce266788ac", "addresses": ["1Go3JoUsHoKZRNyu1GTJxbu7rWCuGWpsL6"], "asm": "OP_DUP OP_HASH160 ad3ef25c308a4089336fa6ec4604c60036ce2667 OP_EQUALVERIFY OP_CHECKSIG", "type": "pubkeyhash"}, "value": 0.00436809, "n": 2}, {"scriptPubKey": {"reqSigs": 1, "hex": "76a914a4328e6ff1311d08d341275f5aed4e4f5c1f2d1888ac", "addresses": ["1FyCPBSyxZbzH1akq52V8G4eN21mhFWXCY"], "asm": "OP_DUP OP_HASH160 a4328e6ff1311d08d341275f5aed4e4f5c1f2d18 OP_EQUALVERIFY OP_CHECKSIG", "type": "pubkeyhash"}, "value": 0.00035, "n": 3}], "hex": "0100000000010121ce7658a4b2ab7df49ba0d0f9a500ddd57cefef2e5ea63d4a6de26919ecacb7010000002322002065d416c48a8072e0ac51c2d111eb194f009caef0332446c1bf2097316cf07fa9ffffffff0497610200000000001976a91459541425f08f2bffb87f8f9ba8bca23d9ffa6dec88aca1866a0f0000000017a9141988a27e3c2df4ddee7fad5a2303d086179b2a308749aa0600000000001976a914ad3ef25c308a4089336fa6ec4604c60036ce266788acb8880000000000001976a914a4328e6ff1311d08d341275f5aed4e4f5c1f2d1888ac04004730440220556938add47277a09cc6e3f2a2bf603c3e701d0f44a76a154aca9c0210452f0e0220525e3f419351eb85df454868a9ae46226d41b63dbafbcb46041627f40607b16501483045022100db93a54878eeb34a8dba15ab53722a4c54bb3efcc5104d33888348db37f756e20220404588c09f955729d7ba2a1d03dc0a366d6a61a8a4e0b70341efe068615e40d10169522102f44abcf9e23c9a460da309ccca56c619c04eed3bde2c2cff5e7d78fbcd980b9c2103c9443cf3047bb6c2c82f1b0c44c36109cdc3d0d601d16d1189a1602bf8d1a0a02103bfe867059274412412e088af5572b92168c2ef495cfe6c9b7a753a009eb37c4853ae00000000", "vin": [{"txinwitness": ["", "30440220556938add47277a09cc6e3f2a2bf603c3e701d0f44a76a154aca9c0210452f0e0220525e3f419351eb85df454868a9ae46226d41b63dbafbcb46041627f40607b16501", "3045022100db93a54878eeb34a8dba15ab53722a4c54bb3efcc5104d33888348db37f756e20220404588c09f955729d7ba2a1d03dc0a366d6a61a8a4e0b70341efe068615e40d101", "522102f44abcf9e23c9a460da309ccca56c619c04eed3bde2c2cff5e7d78fbcd980b9c2103c9443cf3047bb6c2c82f1b0c44c36109cdc3d0d601d16d1189a1602bf8d1a0a02103bfe867059274412412e088af5572b92168c2ef495cfe6c9b7a753a009eb37c4853ae"], "sequence": 4294967295, "scriptSig": {"hex": "22002065d416c48a8072e0ac51c2d111eb194f009caef0332446c1bf2097316cf07fa9", "asm": "002065d416c48a8072e0ac51c2d111eb194f009caef0332446c1bf2097316cf07fa9"}, "vout": 1, "txid": "b7acec1969e26d4a3da65e2eefef7cd5dd00a5f9d0a09bf47dabb2a45876ce21"}], "txid": "c6629de88bd9b3f101abae9c68095009b675b1a547bca768802f2d193c441b6d", "blocktime": 1537871767, "version": 1, "confirmations": 11491, "time": 1537871767, "locktime": 0, "vsize": 284, "size": 475}