{"hash": "c6636fab639d220579f93df646a39aee2a3ad9ca40e8ac432dd336fd5768be2a", "blockhash": "00000000000000000018f53835495a110e01622372bf6ae95dc86f2b0ab887b0", "vout": [{"scriptPubKey": {"reqSigs": 1, "hex": "76a9145a9863e1a7f937f7e98a90790a74ee571f5a591c88ac", "addresses": ["19G2NX6JVcy4Z5gcbJztv8XV47YfXtxj7H"], "asm": "OP_DUP OP_HASH160 5a9863e1a7f937f7e98a90790a74ee571f5a591c OP_EQUALVERIFY OP_CHECKSIG", "type": "pubkeyhash"}, "value": 0.06442604, "n": 0}, {"scriptPubKey": {"reqSigs": 1, "hex": "76a91453e6f146bffa2da341890dab2c3888f8b2a0d09d88ac", "addresses": ["18edk64AR1BgFV2WGeRTua4ouTkNzaQ7UK"], "asm": "OP_DUP OP_HASH160 53e6f146bffa2da341890dab2c3888f8b2a0d09d OP_EQUALVERIFY OP_CHECKSIG", "type": "pubkeyhash"}, "value": 0.0780289, "n": 1}], "hex": "0100000001858354bb4d9f9ab3afedfdc4a71480a1fa599ceec441a91b9e023e98133e0f0a010000006a47304402203f4f2b3fccb5a7e989695a5d10b17af6f00b66f179d977bedebe5aaabae5349f02200c5316f3a1924a4d9b76e0617620476b5ffe05038855ac7593772ad7f0afff77012102c3029d902a22878588dd8de4b30debb98e0519e4116cc3a3481e683d3cdca882ffffffff026c4e6200000000001976a9145a9863e1a7f937f7e98a90790a74ee571f5a591c88ac0a107700000000001976a91453e6f146bffa2da341890dab2c3888f8b2a0d09d88ac00000000", "vin": [{"sequence": 4294967295, "scriptSig": {"hex": "47304402203f4f2b3fccb5a7e989695a5d10b17af6f00b66f179d977bedebe5aaabae5349f02200c5316f3a1924a4d9b76e0617620476b5ffe05038855ac7593772ad7f0afff77012102c3029d902a22878588dd8de4b30debb98e0519e4116cc3a3481e683d3cdca882", "asm": "304402203f4f2b3fccb5a7e989695a5d10b17af6f00b66f179d977bedebe5aaabae5349f02200c5316f3a1924a4d9b76e0617620476b5ffe05038855ac7593772ad7f0afff77[ALL] 02c3029d902a22878588dd8de4b30debb98e0519e4116cc3a3481e683d3cdca882"}, "vout": 1, "txid": "0a0f3e13983e029e1ba941c4ee9c59faa18014a7c4fdedafb39a9f4dbb548385"}], "txid": "c6636fab639d220579f93df646a39aee2a3ad9ca40e8ac432dd336fd5768be2a", "blocktime": 1537870928, "version": 1, "confirmations": 11514, "time": 1537870928, "locktime": 0, "vsize": 225, "size": 225}