{"hash": "c66775a3abd2baa6d5a9c359bc60e1ba288ac932a3164a8ba5e488f02499f04f", "blockhash": "0000000000000000001e0dab787dd257d1dbfcb92a98c2207d5e1078be1f4165", "vout": [{"scriptPubKey": {"type": "nulldata", "hex": "6a146f6d6e69000000000000001f000009184e72a000", "asm": "OP_RETURN 6f6d6e69000000000000001f000009184e72a000"}, "value": 0.0, "n": 0}, {"scriptPubKey": {"reqSigs": 1, "hex": "76a914531c7fe4d082187e81d7e21b892820b53646926288ac", "addresses": ["18aTE7Fhdwkbgn5BqG2ur4jzhEKi5jyq6N"], "asm": "OP_DUP OP_HASH160 531c7fe4d082187e81d7e21b892820b536469262 OP_EQUALVERIFY OP_CHECKSIG", "type": "pubkeyhash"}, "value": 0.0049813, "n": 1}, {"scriptPubKey": {"reqSigs": 1, "hex": "76a914a25dec4d0011064ef106a983c39c7a540699f22088ac", "addresses": ["1FoWyxwPXuj4C6abqwhjDWdz6D4PZgYRjA"], "asm": "OP_DUP OP_HASH160 a25dec4d0011064ef106a983c39c7a540699f220 OP_EQUALVERIFY OP_CHECKSIG", "type": "pubkeyhash"}, "value": 5.46e-06, "n": 2}], "hex": "010000000102184bff6b0c18d3cd3149a81350d3f9f97575d7c64093663b5771e9be29f874000000006a47304402200ffaabb40788d8dfbcdcdb1c3b55545f983d70a8b1afeefbda841e726e285f66022036ec70e62759d16b21297880a24f2ebaccb9a85bf3848655fd0be92d6f930cb10121027d61d20f37702c63e6b532d3636e6ea695fabb8825c0768fd96ca2136bd32058feffffff030000000000000000166a146f6d6e69000000000000001f000009184e72a000d2990700000000001976a914531c7fe4d082187e81d7e21b892820b53646926288ac22020000000000001976a914a25dec4d0011064ef106a983c39c7a540699f22088ac12490800", "vin": [{"sequence": 4294967294, "scriptSig": {"hex": "47304402200ffaabb40788d8dfbcdcdb1c3b55545f983d70a8b1afeefbda841e726e285f66022036ec70e62759d16b21297880a24f2ebaccb9a85bf3848655fd0be92d6f930cb10121027d61d20f37702c63e6b532d3636e6ea695fabb8825c0768fd96ca2136bd32058", "asm": "304402200ffaabb40788d8dfbcdcdb1c3b55545f983d70a8b1afeefbda841e726e285f66022036ec70e62759d16b21297880a24f2ebaccb9a85bf3848655fd0be92d6f930cb1[ALL] 027d61d20f37702c63e6b532d3636e6ea695fabb8825c0768fd96ca2136bd32058"}, "vout": 0, "txid": "74f829bee971573b669340c6d77575f9f9d35013a84931cdd3180c6bff4b1802"}], "txid": "c66775a3abd2baa6d5a9c359bc60e1ba288ac932a3164a8ba5e488f02499f04f", "blocktime": 1537872475, "version": 1, "confirmations": 11487, "time": 1537872475, "locktime": 542994, "vsize": 256, "size": 256}