{"hash": "c66d38b7169c55790847848dd6f5ee3dee0bb981b41217fefdb5d3dc4eb32fd9", "blockhash": "0000000000000000001f0ddff1eddb255c1121bcd4da4f1bc9a0da00cae72433", "vout": [{"scriptPubKey": {"reqSigs": 1, "hex": "76a914b5cc3c7b2173b4390f4ec87436db982af49f83eb88ac", "addresses": ["1HaFyJh22yq5UW7s4uBi9ruh7CdbpYEcow"], "asm": "OP_DUP OP_HASH160 b5cc3c7b2173b4390f4ec87436db982af49f83eb OP_EQUALVERIFY OP_CHECKSIG", "type": "pubkeyhash"}, "value": 4.07637787, "n": 0}, {"scriptPubKey": {"reqSigs": 1, "hex": "a914753eda5d191eb5b5453f33f344ba7a1f9998417387", "addresses": ["3CNxH6A8MqJcfYV1Mi35ARd9ub5VjLS2GZ"], "asm": "OP_HASH160 753eda5d191eb5b5453f33f344ba7a1f99984173 OP_EQUAL", "type": "scripthash"}, "value": 9.04, "n": 1}], "hex": "01000000034009815d5e1a25ce20e352e4cf8551b5d820bf112bb6e70aca9bd5745cc4910e000000006b483045022100de56d1ff487b83b750d8e0b80ba9aebc15659b3781705f60a0aba407ba952e8802205386ca4b69649d6aab19232107269ab785a7da8a45e556800fdcdc1e61a8596d012102597b3bbfbf229156de606ba74a3273d7ce8293b2683311c44b009b7815363907ffffffff94da2466b8039e7796b5670dfde4cdce18e94fff0919b8359194d7acb3c4e0aa010000006a4730440220494b497163d98407366b98c58dd9bbb660217605eb3ed7f9b55f4ccf3b29002a0220533e6d0ffca19d2940d0cd570db4e0ffcf36efbad636fc1ec7847d7ee7ceba3201210282645f133ec169fd5f17a96c7f1b44e34471bbc2e7dfaee2d2dd25e89e905385ffffffff3ad6a99a51b5b60ff3f57a35a25603aafdcc592da0d9d846e74f76f939a5e1d5010000006b483045022100c6ae10d4c35e9fa1328698f2ad5803d9a2dd61ba55320ab80db5e1abb2e22ee202207c5c42756a44a2832748c73ad871030e8064bd47cc69dbe8635e00acad3c7c71012103288010790345f395a82892358de921474c71992cdb845ab9f64855368526ff65ffffffff021b0f4c18000000001976a914b5cc3c7b2173b4390f4ec87436db982af49f83eb88ac00f2e1350000000017a914753eda5d191eb5b5453f33f344ba7a1f999841738700000000", "vin": [{"sequence": 4294967295, "scriptSig": {"hex": "483045022100de56d1ff487b83b750d8e0b80ba9aebc15659b3781705f60a0aba407ba952e8802205386ca4b69649d6aab19232107269ab785a7da8a45e556800fdcdc1e61a8596d012102597b3bbfbf229156de606ba74a3273d7ce8293b2683311c44b009b7815363907", "asm": "3045022100de56d1ff487b83b750d8e0b80ba9aebc15659b3781705f60a0aba407ba952e8802205386ca4b69649d6aab19232107269ab785a7da8a45e556800fdcdc1e61a8596d[ALL] 02597b3bbfbf229156de606ba74a3273d7ce8293b2683311c44b009b7815363907"}, "vout": 0, "txid": "0e91c45c74d59bca0ae7b62b11bf20d8b55185cfe452e320ce251a5e5d810940"}, {"sequence": 4294967295, "scriptSig": {"hex": "4730440220494b497163d98407366b98c58dd9bbb660217605eb3ed7f9b55f4ccf3b29002a0220533e6d0ffca19d2940d0cd570db4e0ffcf36efbad636fc1ec7847d7ee7ceba3201210282645f133ec169fd5f17a96c7f1b44e34471bbc2e7dfaee2d2dd25e89e905385", "asm": "30440220494b497163d98407366b98c58dd9bbb660217605eb3ed7f9b55f4ccf3b29002a0220533e6d0ffca19d2940d0cd570db4e0ffcf36efbad636fc1ec7847d7ee7ceba32[ALL] 0282645f133ec169fd5f17a96c7f1b44e34471bbc2e7dfaee2d2dd25e89e905385"}, "vout": 1, "txid": "aae0c4b3acd7949135b81909ff4fe918cecde4fd0d67b596779e03b86624da94"}, {"sequence": 4294967295, "scriptSig": {"hex": "483045022100c6ae10d4c35e9fa1328698f2ad5803d9a2dd61ba55320ab80db5e1abb2e22ee202207c5c42756a44a2832748c73ad871030e8064bd47cc69dbe8635e00acad3c7c71012103288010790345f395a82892358de921474c71992cdb845ab9f64855368526ff65", "asm": "3045022100c6ae10d4c35e9fa1328698f2ad5803d9a2dd61ba55320ab80db5e1abb2e22ee202207c5c42756a44a2832748c73ad871030e8064bd47cc69dbe8635e00acad3c7c71[ALL] 03288010790345f395a82892358de921474c71992cdb845ab9f64855368526ff65"}, "vout": 1, "txid": "d5e1a539f9764fe746d8d9a02d59ccfdaa0356a2357af5f30fb6b5519aa9d63a"}], "txid": "c66d38b7169c55790847848dd6f5ee3dee0bb981b41217fefdb5d3dc4eb32fd9", "blocktime": 1537872018, "version": 1, "confirmations": 11489, "time": 1537872018, "locktime": 0, "vsize": 519, "size": 519}