{"hash": "6e78bc6d2ad2939675be50de889b57d042c31f563df1966292bc30b5d8491446", "blockhash": "0000000000000000001f0ddff1eddb255c1121bcd4da4f1bc9a0da00cae72433", "vout": [{"scriptPubKey": {"reqSigs": 1, "hex": "a9141988a27e3c2df4ddee7fad5a2303d086179b2a3087", "addresses": ["3422VtS7UtCvXYxoXMVp6eZupR252z85oC"], "asm": "OP_HASH160 1988a27e3c2df4ddee7fad5a2303d086179b2a30 OP_EQUAL", "type": "scripthash"}, "value": 2.90352631, "n": 0}, {"scriptPubKey": {"reqSigs": 1, "hex": "76a91449fce2bb3ae07f531302546cd0814ae7560e51f388ac", "addresses": ["17kDGos1BYzMfSf5YuzaY4ewWH4AWA88F4"], "asm": "OP_DUP OP_HASH160 49fce2bb3ae07f531302546cd0814ae7560e51f3 OP_EQUALVERIFY OP_CHECKSIG", "type": "pubkeyhash"}, "value": 0.0154638, "n": 1}, {"scriptPubKey": {"reqSigs": 1, "hex": "76a914ed52ad53de9ae05ac20214e7292729c25ef1f4f588ac", "addresses": ["1NdrBy52nsNmtfqp5naCDuh9L23Lys3iAF"], "asm": "OP_DUP OP_HASH160 ed52ad53de9ae05ac20214e7292729c25ef1f4f5 OP_EQUALVERIFY OP_CHECKSIG", "type": "pubkeyhash"}, "value": 0.2034, "n": 2}, {"scriptPubKey": {"reqSigs": 1, "hex": "76a91408417a74210ce526e9a9166c55a5e667a56975c688ac", "addresses": ["1ker3r7VdAfdT7tzDqX9R7m7DCW151KtJ"], "asm": "OP_DUP OP_HASH160 08417a74210ce526e9a9166c55a5e667a56975c6 OP_EQUALVERIFY OP_CHECKSIG", "type": "pubkeyhash"}, "value": 0.0015607, "n": 3}, {"scriptPubKey": {"reqSigs": 1, "hex": "a914ddf063963ca8b5d30fb3404de2b7a534c9cdb47a87", "addresses": ["3MvXETcJtEuGXM7RegmBoKN3noxNkUeGnS"], "asm": "OP_HASH160 ddf063963ca8b5d30fb3404de2b7a534c9cdb47a OP_EQUAL", "type": "scripthash"}, "value": 0.00165685, "n": 4}], "hex": "010000000001015560fcee528b09d67423d98657c869a3dd2dca39b9c3a89f5dd2a7aa29c79c64010000002322002065d416c48a8072e0ac51c2d111eb194f009caef0332446c1bf2097316cf07fa9ffffffff05f76d4e110000000017a9141988a27e3c2df4ddee7fad5a2303d086179b2a30878c981700000000001976a91449fce2bb3ae07f531302546cd0814ae7560e51f388ac205d3601000000001976a914ed52ad53de9ae05ac20214e7292729c25ef1f4f588aca6610200000000001976a91408417a74210ce526e9a9166c55a5e667a56975c688ac358702000000000017a914ddf063963ca8b5d30fb3404de2b7a534c9cdb47a870400483045022100a831bdb931f9f05268b3659b8e4cd9cb16ae7477eb851f359eedfdc65aa786aa0220443e42d60cab0d1343e0838afec34352ece09b2e107eea5e726f3396def592970147304402204425cf177f27379e64823f0eb816a7c2d284e53ac9a7f737031e5d6ed516f56d0220790ec6f221eced22187758a14438c0574031631f5a81c6f8d1ade6b8335a513a0169522102f44abcf9e23c9a460da309ccca56c619c04eed3bde2c2cff5e7d78fbcd980b9c2103c9443cf3047bb6c2c82f1b0c44c36109cdc3d0d601d16d1189a1602bf8d1a0a02103bfe867059274412412e088af5572b92168c2ef495cfe6c9b7a753a009eb37c4853ae00000000", "vin": [{"txinwitness": ["", "3045022100a831bdb931f9f05268b3659b8e4cd9cb16ae7477eb851f359eedfdc65aa786aa0220443e42d60cab0d1343e0838afec34352ece09b2e107eea5e726f3396def5929701", "304402204425cf177f27379e64823f0eb816a7c2d284e53ac9a7f737031e5d6ed516f56d0220790ec6f221eced22187758a14438c0574031631f5a81c6f8d1ade6b8335a513a01", "522102f44abcf9e23c9a460da309ccca56c619c04eed3bde2c2cff5e7d78fbcd980b9c2103c9443cf3047bb6c2c82f1b0c44c36109cdc3d0d601d16d1189a1602bf8d1a0a02103bfe867059274412412e088af5572b92168c2ef495cfe6c9b7a753a009eb37c4853ae"], "sequence": 4294967295, "scriptSig": {"hex": "22002065d416c48a8072e0ac51c2d111eb194f009caef0332446c1bf2097316cf07fa9", "asm": "002065d416c48a8072e0ac51c2d111eb194f009caef0332446c1bf2097316cf07fa9"}, "vout": 1, "txid": "649cc729aaa7d25d9fa8c3b939ca2ddda369c85786d92374d6098b52eefc6055"}], "txid": "c67495ddf983a2650b26f6b7d68f9ff107d3d25b8588554d73f5160a9e60c3d1", "blocktime": 1537872018, "version": 1, "confirmations": 11489, "time": 1537872018, "locktime": 0, "vsize": 316, "size": 507}