{"hash": "ae167a3468a029ee7fcb25bb6b9606e3b9b49d9e8af80d6d98e0ba6996511f72", "blockhash": "0000000000000000001f76057863aec43deb6fa401d9628bb513d65a8098bfab", "vout": [{"scriptPubKey": {"reqSigs": 1, "hex": "76a91436bbb05884560d453ace608df0c9e112b5f6fd8188ac", "addresses": ["15zQLD7Rxcs9U6p1PV3auBuVYrX6eJWyTc"], "asm": "OP_DUP OP_HASH160 36bbb05884560d453ace608df0c9e112b5f6fd81 OP_EQUALVERIFY OP_CHECKSIG", "type": "pubkeyhash"}, "value": 0.01634675, "n": 0}, {"scriptPubKey": {"reqSigs": 1, "hex": "a914eb87806c5d14c42d5869691271726632feac69fc87", "addresses": ["3PAP3ShLE2Z5emVZcNavz6C9h2fHmEoSfg"], "asm": "OP_HASH160 eb87806c5d14c42d5869691271726632feac69fc OP_EQUAL", "type": "scripthash"}, "value": 0.238661, "n": 1}, {"scriptPubKey": {"reqSigs": 1, "hex": "a9141a244ea12d6e8b894b2c02785edfeba7d50c1b4187", "addresses": ["345EzCL3u69gAJZZhvemXSEXVGneW7r5Sy"], "asm": "OP_HASH160 1a244ea12d6e8b894b2c02785edfeba7d50c1b41 OP_EQUAL", "type": "scripthash"}, "value": 0.63733712, "n": 2}, {"scriptPubKey": {"reqSigs": 1, "hex": "76a914519d01622470d38f47ec8b3231c0fd59e7ec591d88ac", "addresses": ["18SXpTy9Hift81NK6QjCBP4AjLaoNStzvd"], "asm": "OP_DUP OP_HASH160 519d01622470d38f47ec8b3231c0fd59e7ec591d OP_EQUALVERIFY OP_CHECKSIG", "type": "pubkeyhash"}, "value": 0.077858, "n": 3}, {"scriptPubKey": {"reqSigs": 1, "hex": "a914a423037771113096fc64ce408c8c72ba49aab81687", "addresses": ["3GetgndCnUZj4iUCYX8LVV7KX95PnJWyW7"], "asm": "OP_HASH160 a423037771113096fc64ce408c8c72ba49aab816 OP_EQUAL", "type": "scripthash"}, "value": 0.0450018, "n": 4}, {"scriptPubKey": {"reqSigs": 1, "hex": "76a9140762c25d38bead0cf33c00c26398e62214bb7f9388ac", "addresses": ["1g43FmzgpBQRTPFuBAnwUvpVvCb8dUHDF"], "asm": "OP_DUP OP_HASH160 0762c25d38bead0cf33c00c26398e62214bb7f93 OP_EQUALVERIFY OP_CHECKSIG", "type": "pubkeyhash"}, "value": 1.84825322, "n": 5}, {"scriptPubKey": {"reqSigs": 1, "hex": "a914be6ba8d5915ba89b4717050d3f973cdb0773460287", "addresses": ["3K3sHJfRgd2s8vaEdpxWbWQSQMBiyDNqwS"], "asm": "OP_HASH160 be6ba8d5915ba89b4717050d3f973cdb07734602 OP_EQUAL", "type": "scripthash"}, "value": 3.5, "n": 6}, {"scriptPubKey": {"reqSigs": 1, "hex": "a9145c84f5b708f34dc39720887407e080f49b89f34b87", "addresses": ["3A8DNQJuQa6LNq91AjVauRzvBkocgE7LKF"], "asm": "OP_HASH160 5c84f5b708f34dc39720887407e080f49b89f34b OP_EQUAL", "type": "scripthash"}, "value": 0.4002, "n": 7}, {"scriptPubKey": {"reqSigs": 1, "hex": "a91458a822fbb31681aa0ee51a6fd5f4816138dfd15387", "addresses": ["39mnomHLs6ZrcigSGT5W2L9BDQcyFGzRbU"], "asm": "OP_HASH160 58a822fbb31681aa0ee51a6fd5f4816138dfd153 OP_EQUAL", "type": "scripthash"}, "value": 0.00457247, "n": 8}, {"scriptPubKey": {"reqSigs": 1, "hex": "76a914d40cdc1e087e8b6d3262f3b4ad1d083bc5b93c7d88ac", "addresses": ["1LLDfBj6rss2VwwzhjQNJtPbC6pKWpHYsw"], "asm": "OP_DUP OP_HASH160 d40cdc1e087e8b6d3262f3b4ad1d083bc5b93c7d OP_EQUALVERIFY OP_CHECKSIG", "type": "pubkeyhash"}, "value": 0.0018158, "n": 9}, {"scriptPubKey": {"reqSigs": 1, "hex": "76a9142c73c3629e1caf4492efe841aa33b8effcbe2d9088ac", "addresses": ["1543Qozv3uM4UJcfHewGmCE6J3Cg5JQkXU"], "asm": "OP_DUP OP_HASH160 2c73c3629e1caf4492efe841aa33b8effcbe2d90 OP_EQUALVERIFY OP_CHECKSIG", "type": "pubkeyhash"}, "value": 0.02012841, "n": 10}, {"scriptPubKey": {"reqSigs": 1, "hex": "a914eca47885d293e802a95b1283532a06280a2c427287", "addresses": ["3PGGRSrwwxrzohm2aXNRkqL1qANXtqdCkc"], "asm": "OP_HASH160 eca47885d293e802a95b1283532a06280a2c4272 OP_EQUAL", "type": "scripthash"}, "value": 0.11594649, "n": 11}, {"scriptPubKey": {"reqSigs": 1, "hex": "76a914fae45dbb56ee895384a186fb32f287a98fd1964988ac", "addresses": ["1PsbW7gS2sgGFb1Yir6Lpp64xASMy4n5YB"], "asm": "OP_DUP OP_HASH160 fae45dbb56ee895384a186fb32f287a98fd19649 OP_EQUALVERIFY OP_CHECKSIG", "type": "pubkeyhash"}, "value": 0.17385792, "n": 12}, {"scriptPubKey": {"reqSigs": 1, "hex": "a9149b7355ee31d3a0f06be245d651698d0f3731955387", "addresses": ["3FrxpwUUXTdWFSgmgrBsWH6GbhimHC6rVm"], "asm": "OP_HASH160 9b7355ee31d3a0f06be245d651698d0f37319553 OP_EQUAL", "type": "scripthash"}, "value": 0.00915229, "n": 13}, {"scriptPubKey": {"reqSigs": 1, "hex": "a914b0db2289ce77d92bb289f9950624f8e43d996e4b87", "addresses": ["3Hp9N4pnW8aKbh5BtRsw5KSG4a3CeH19V6"], "asm": "OP_HASH160 b0db2289ce77d92bb289f9950624f8e43d996e4b OP_EQUAL", "type": "scripthash"}, "value": 0.085, "n": 14}, {"scriptPubKey": {"reqSigs": 1, "hex": "76a91465f90fe9f0cfae58ca9a90a452462ed4346b6c7d88ac", "addresses": ["1AJBcX1R8Ld34EMCH78qe395xr4zQVJHRw"], "asm": "OP_DUP OP_HASH160 65f90fe9f0cfae58ca9a90a452462ed4346b6c7d OP_EQUALVERIFY OP_CHECKSIG", "type": "pubkeyhash"}, "value": 0.0147545, "n": 15}, {"scriptPubKey": {"reqSigs": 1, "hex": "76a9144413087fbfe5f67f6bdb1fa35bf29cc127c8e78088ac", "addresses": ["17CwkVfxizwivYREbbACxLMYd9eVjDkYY1"], "asm": "OP_DUP OP_HASH160 4413087fbfe5f67f6bdb1fa35bf29cc127c8e780 OP_EQUALVERIFY OP_CHECKSIG", "type": "pubkeyhash"}, "value": 0.00142015, "n": 16}, {"scriptPubKey": {"reqSigs": 1, "hex": "a914387de1ef32f9f1eddfd9c7c90fab130786e9b0dd87", "addresses": ["36qiZm1XXacXDngT7QX2YzvwZpjFrhXR3q"], "asm": "OP_HASH160 387de1ef32f9f1eddfd9c7c90fab130786e9b0dd OP_EQUAL", "type": "scripthash"}, "value": 16.52405998, "n": 17}, {"scriptPubKey": {"reqSigs": 1, "hex": "76a914f0f330eee9369e2dee91fcec9f35552d459b013d88ac", "addresses": ["1Ny2WFsFeX1retFRTZHjsjszsEzvPFGDtq"], "asm": "OP_DUP OP_HASH160 f0f330eee9369e2dee91fcec9f35552d459b013d OP_EQUALVERIFY OP_CHECKSIG", "type": "pubkeyhash"}, "value": 0.10010637, "n": 18}, {"scriptPubKey": {"reqSigs": 1, "hex": "a9144e684f79625f0be363b3df7804af4247c3df4eab87", "addresses": ["38qbb87GPbg249HcGGqVrigUajKBf4CxaN"], "asm": "OP_HASH160 4e684f79625f0be363b3df7804af4247c3df4eab OP_EQUAL", "type": "scripthash"}, "value": 0.00718236, "n": 19}, {"scriptPubKey": {"reqSigs": 1, "hex": "76a9149a4b45124609514bff94c7e9995295b7980dc81a88ac", "addresses": ["1F4qEP3EZfjqiEFKNgBwn4oP6VmT1ogJEK"], "asm": "OP_DUP OP_HASH160 9a4b45124609514bff94c7e9995295b7980dc81a OP_EQUALVERIFY OP_CHECKSIG", "type": "pubkeyhash"}, "value": 0.21587622, "n": 20}, {"scriptPubKey": {"reqSigs": 1, "hex": "76a914cbc673e567d62f5ff03a399049bb135ca6ef6e5588ac", "addresses": ["1KaTugLbPzd4J7pJBQHV5JhNGZ5UDtpMRV"], "asm": "OP_DUP OP_HASH160 cbc673e567d62f5ff03a399049bb135ca6ef6e55 OP_EQUALVERIFY OP_CHECKSIG", "type": "pubkeyhash"}, "value": 0.08889129, "n": 21}, {"scriptPubKey": {"reqSigs": 1, "hex": "76a914986571fb830477cf508e21910fb6deda4dccea4f88ac", "addresses": ["1EtoEhSsoLhEGJ6hZwj1a8gwouw85k2M3p"], "asm": "OP_DUP OP_HASH160 986571fb830477cf508e21910fb6deda4dccea4f OP_EQUALVERIFY OP_CHECKSIG", "type": "pubkeyhash"}, "value": 0.01970111, "n": 22}, {"scriptPubKey": {"reqSigs": 1, "hex": "76a91424fcad515024db1a2afb4de0e6c50cca215abcae88ac", "addresses": ["14Na2DN6B45SrGHmBCBJDvcdux762fDW1Q"], "asm": "OP_DUP OP_HASH160 24fcad515024db1a2afb4de0e6c50cca215abcae OP_EQUALVERIFY OP_CHECKSIG", "type": "pubkeyhash"}, "value": 0.14203313, "n": 23}, {"scriptPubKey": {"reqSigs": 1, "hex": "a9142902864e522a7f684d21522baae1d4f1254ed3bc87", "addresses": ["35RrephzkeUyMxkGXMHbkt5g8V5aWiveiN"], "asm": "OP_HASH160 2902864e522a7f684d21522baae1d4f1254ed3bc OP_EQUAL", "type": "scripthash"}, "value": 0.0494482, "n": 24}, {"scriptPubKey": {"reqSigs": 1, "hex": "76a914b5081dae36d352c4c598688b4465c8126853a6f888ac", "addresses": ["1HWD2dM89px5bKjLX6Sycha4H67MqmLcEt"], "asm": "OP_DUP OP_HASH160 b5081dae36d352c4c598688b4465c8126853a6f8 OP_EQUALVERIFY OP_CHECKSIG", "type": "pubkeyhash"}, "value": 0.0368983, "n": 25}, {"scriptPubKey": {"reqSigs": 1, "hex": "76a914c17ffda9f57b9898e700add23add53ae8402ca4888ac", "addresses": ["1Je8jz92KPDBwHsYG5uoK34wEd1YoW6RfF"], "asm": "OP_DUP OP_HASH160 c17ffda9f57b9898e700add23add53ae8402ca48 OP_EQUALVERIFY OP_CHECKSIG", "type": "pubkeyhash"}, "value": 0.005, "n": 26}, {"scriptPubKey": {"reqSigs": 1, "hex": "76a91425d9d43e2c05c47a22d0bbd565843979059a94eb88ac", "addresses": ["14T8x8NZXWcj2Egviu2CRTRU7GcPCfQ8Cz"], "asm": "OP_DUP OP_HASH160 25d9d43e2c05c47a22d0bbd565843979059a94eb OP_EQUALVERIFY OP_CHECKSIG", "type": "pubkeyhash"}, "value": 0.01, "n": 27}, {"scriptPubKey": {"reqSigs": 1, "hex": "76a914f47bc3dc7095f16a8f8d787d32fb42dbcf15b2ab88ac", "addresses": ["1PHi9A1SeQpbdvfQKTRscZKyvD9fosSvpS"], "asm": "OP_DUP OP_HASH160 f47bc3dc7095f16a8f8d787d32fb42dbcf15b2ab OP_EQUALVERIFY OP_CHECKSIG", "type": "pubkeyhash"}, "value": 0.135295, "n": 28}, {"scriptPubKey": {"reqSigs": 1, "hex": "76a914b96a9cb3169827ff8169cb320034a367133d627488ac", "addresses": ["1HuPj2cHjaByDSVJS2L5euY5rZEMaJdEsW"], "asm": "OP_DUP OP_HASH160 b96a9cb3169827ff8169cb320034a367133d6274 OP_EQUALVERIFY OP_CHECKSIG", "type": "pubkeyhash"}, "value": 0.13061455, "n": 29}, {"scriptPubKey": {"reqSigs": 1, "hex": "a914b6313b66018d7930197cf06e2de9ed250630d82587", "addresses": ["3JJMtA7g2dBCQgrTsKHQ35ZyjYDa4Bsm51"], "asm": "OP_HASH160 b6313b66018d7930197cf06e2de9ed250630d825 OP_EQUAL", "type": "scripthash"}, "value": 0.0202, "n": 30}, {"scriptPubKey": {"reqSigs": 1, "hex": "76a9145b9f7abb82b46a37aee70a497c3ab3a5ecff985588ac", "addresses": ["19MTYHJuhUpgJhSLeo8917vrJK6m8ndUy9"], "asm": "OP_DUP OP_HASH160 5b9f7abb82b46a37aee70a497c3ab3a5ecff9855 OP_EQUALVERIFY OP_CHECKSIG", "type": "pubkeyhash"}, "value": 0.00908229, "n": 31}, {"scriptPubKey": {"reqSigs": 1, "hex": "a914fc354eaef5b9ae1af00aa47602bf84c4ebb5400087", "addresses": ["3Qga4kAsJAeBYLo9mU3MC7cskggxtUnJpT"], "asm": "OP_HASH160 fc354eaef5b9ae1af00aa47602bf84c4ebb54000 OP_EQUAL", "type": "scripthash"}, "value": 0.516577, "n": 32}, {"scriptPubKey": {"reqSigs": 1, "hex": "76a914c4170495c943e0d5f421f64539eb1f47fa02bf1c88ac", "addresses": ["1Jsq1urN2miMppeKRDa4mQBydrHZWpYzuh"], "asm": "OP_DUP OP_HASH160 c4170495c943e0d5f421f64539eb1f47fa02bf1c OP_EQUALVERIFY OP_CHECKSIG", "type": "pubkeyhash"}, "value": 0.09491896, "n": 33}, {"scriptPubKey": {"reqSigs": 1, "hex": "76a91476b5d317f77325fc18905c28505fcbe00ec3f93988ac", "addresses": ["1BpgZ2iZRvG5ZNFieNdgrKFmXsRsxyt4M9"], "asm": "OP_DUP OP_HASH160 76b5d317f77325fc18905c28505fcbe00ec3f939 OP_EQUALVERIFY OP_CHECKSIG", "type": "pubkeyhash"}, "value": 0.015, "n": 34}], "hex": "010000000001088ae094d7992bd1e432a10f20d55445a3f3346b4382511f39b7c5daf606786be301000000232200207e831b5d0cb1efb8d1d0a1b49334839e09900a0f6768704a898d88a5031fa6b2ffffffff07fa2535183553ea2b76d20f451b70caacad9f9c21deeff3e1d6ef4f2e477e0000000000232200201b32c99b6f2ab20768db495d9e36633be3713bf830fd8d95d1bc42d1773f4248fffffffffe816c6bcd82a8f891cee53260dee4352edbf0bd60622078214d6866653e8cef010000002322002019af7c7c2d2750240802af5fbb754f4528c414f0ee1fd9b02fbd077c44333f25fffffffffcd2d9a087eaac78e1116b8b0ab61e5d73339a589e66dcf6c4fad4be442d2a9d0000000023220020d44d63bc1bd6b1968ce5fb6015eb96d30fb7966b68877e165cc2e6aebf43d7c1ffffffff541fa04584e77a8768d2306b5954f1e98f3349274c15896b01dd2cf0fedf38af00000000232200201b32c99b6f2ab20768db495d9e36633be3713bf830fd8d95d1bc42d1773f4248ffffffff8131849ee521411b054cce832a004404a4e8bc82589fecfd02b1c6aafc5f76c600000000fdfe000048304502210093ee892a3786f810f24c49775cba56f8b72ef2c2e79292aeaec69129398fbbfe02203d64048e4cc96a159533cfd1bfeeca089b32f1e212d564c421c1a8bc5ee35ee301483045022100c8e1c79d06c7014290c8095ac0782e34de7e871760bb2a171ad2aedbe4d0e14e022026faee11446094369d9681b29fb5906e14994530b7a72f1ce04b5739bba3a7de014c695221031c5745bd86df6fc04401569db251a9f6634b418790fccb144311cf444291aac12102c1ebeccde256fd053400366adc4eab91a5bd4c9b51c041a21b72fda135b6a8be2102068a0080a5d623c31f492cd96b875d50dbe51c1f3b764f457deb6d835b7c81ae53aeffffffffd8dee5928ecd287905013291a558e87c21a5a521ae35ab64deb51433d282e20e02000000fdfe0000483045022100d5fa9232605af2728b72cc6cf74e94a8919cd59d2bb85d9e4a5d1dea7782440c022027b5801e4439fa47d0ad1a6b42f6ef78ffea069a2768efbc1a68cdf8a0e5fa2601483045022100d2b0b511e8ea9fcdd218e80c8c1ec601ed81ac53f0c18f3d44b464635751a0670220637eb73127dd89f10797b6b871ec0df18663376cff3592f1410dadf116d9c04a014c695221031c5745bd86df6fc04401569db251a9f6634b418790fccb144311cf444291aac12102c1ebeccde256fd053400366adc4eab91a5bd4c9b51c041a21b72fda135b6a8be2102068a0080a5d623c31f492cd96b875d50dbe51c1f3b764f457deb6d835b7c81ae53aeffffffff501b6777c32d0a73ffde78f89f132bffb5fa902a52eae98372ab1f54b39961e603000000232200203341a73a84f1f98a42ecd02517c0460233c938303bbbf5c3a66b22c4c1fe6faeffffffff2373f11800000000001976a91436bbb05884560d453ace608df0c9e112b5f6fd8188acf42a6c010000000017a914eb87806c5d14c42d5869691271726632feac69fc87d07fcc030000000017a9141a244ea12d6e8b894b2c02785edfeba7d50c1b418748cd7600000000001976a914519d01622470d38f47ec8b3231c0fd59e7ec591d88acd4aa44000000000017a914a423037771113096fc64ce408c8c72ba49aab81687ea35040b000000001976a9140762c25d38bead0cf33c00c26398e62214bb7f9388ac8093dc140000000017a914be6ba8d5915ba89b4717050d3f973cdb077346028720a862020000000017a9145c84f5b708f34dc39720887407e080f49b89f34b871ffa06000000000017a91458a822fbb31681aa0ee51a6fd5f4816138dfd153874cc50200000000001976a914d40cdc1e087e8b6d3262f3b4ad1d083bc5b93c7d88aca9b61e00000000001976a9142c73c3629e1caf4492efe841aa33b8effcbe2d9088ac99ebb0000000000017a914eca47885d293e802a95b1283532a06280a2c42728740490901000000001976a914fae45dbb56ee895384a186fb32f287a98fd1964988ac1df70d000000000017a9149b7355ee31d3a0f06be245d651698d0f373195538720b381000000000017a914b0db2289ce77d92bb289f9950624f8e43d996e4b877a831600000000001976a91465f90fe9f0cfae58ca9a90a452462ed4346b6c7d88acbf2a0200000000001976a9144413087fbfe5f67f6bdb1fa35bf29cc127c8e78088aceeb67d620000000017a914387de1ef32f9f1eddfd9c7c90fab130786e9b0dd870dc09800000000001976a914f0f330eee9369e2dee91fcec9f35552d459b013d88ac9cf50a000000000017a9144e684f79625f0be363b3df7804af4247c3df4eab87a6664901000000001976a9149a4b45124609514bff94c7e9995295b7980dc81a88ac29a38700000000001976a914cbc673e567d62f5ff03a399049bb135ca6ef6e5588acbf0f1e00000000001976a914986571fb830477cf508e21910fb6deda4dccea4f88acb1b9d800000000001976a91424fcad515024db1a2afb4de0e6c50cca215abcae88acb4734b000000000017a9142902864e522a7f684d21522baae1d4f1254ed3bc87664d3800000000001976a914b5081dae36d352c4c598688b4465c8126853a6f888ac20a10700000000001976a914c17ffda9f57b9898e700add23add53ae8402ca4888ac40420f00000000001976a91425d9d43e2c05c47a22d0bbd565843979059a94eb88ac9c71ce00000000001976a914f47bc3dc7095f16a8f8d787d32fb42dbcf15b2ab88ac4f4dc700000000001976a914b96a9cb3169827ff8169cb320034a367133d627488aca0d21e000000000017a914b6313b66018d7930197cf06e2de9ed250630d82587c5db0d00000000001976a9145b9f7abb82b46a37aee70a497c3ab3a5ecff985588ace43b14030000000017a914fc354eaef5b9ae1af00aa47602bf84c4ebb5400087b8d59000000000001976a914c4170495c943e0d5f421f64539eb1f47fa02bf1c88ac60e31600000000001976a91476b5d317f77325fc18905c28505fcbe00ec3f93988ac040047304402201a95cdd13f9231771577406c3f73aae0b66d7c91c3958f1836d24cb5588e69df02201098f9b8842d8de1205a46b219f87d2412fedd4a2d624f166d093dd72793379e0148304502210086275d0349f45ab80f1c2acc6108ca7476ac8ddb0f4d8da68c95d9a99c193a0a022044e0e2e30c5667074de3bf125fa1fc6f00cfb12970dac8f9b109498398227b740169522102270690ba2c292afde7dbe0b2474f9df14d0d6983c26a9bd55a3ba7688ee8cb552102fc21cacd68b728273b9b07ab5241fb167fd17dd432f773d311cb7aa642d7618e21034827312d4070e7a226a92e7e536e8ba0abbd092865a9b08f492fe0eb626f60e953ae04004830450221008c0d4dc728ffa35c8d2aa321ea343998df4ad9f73b29c453b42df2b2079538d802202958e9b1f28c6466defb81fcb8a491de40499ee595a01cd1a9aed7e75deba84701473044022011119ccecfc42cc88b45a4f5cc5c843c0581eae1b1ef907de48e25e370b8dfe90220407da009b55fbf122ca82810494f1d969b45169ab8695330e607e08752c97bb3016952210298c9b7c9de506ee6a84b02c4a52c5cdc4a2a9d9a55ef2ecd83ef434ba217ecbf2102acacfea22a8a8f386c4b454dfc74bac6fa4ef7cee4bb75fcb7ee11a08610a5e72102625ce9df61deebb21b16bb6683e1834f9d785a6b5af785548e37616be3465c6353ae040047304402207a216ec7d71202ab37c71bb9c685718afb5a864c5760cd4814f88cfb20a28ee202200ae06f4c3fc57300c0168c02f0856bd363ef233a8fa96fceb9c464ab0f7ac0b101483045022100d93293c8ae0f4c247b7df48487341c517773a94c366c624d3e8fa6a654a24437022052ebfe961948869c47251a07e900fb97a8026468233b1fc61709973abc34e7fa01695221032fc44e13d627e59dd2241ce7fc18e0a339b9498b0744b2fd229dee5737a63b312103ca0c1d208548800f48d12743884602c52677769895cec7b15bdf52ddc0eaccc62102ca59c0b60847db99c98260df0b03a3fa5cd547fd653059b071aea47450688cf153ae0400473044022065c705a3ca8ca353570c7917f876f325679f3872af8716e98f32352a78fc18d2022022c96ce342033dc55f114d3d1889a44f06e49e333113b6b1f00ad1b845e470310147304402206a8f76dec39be26e6ac4093705f67904a3c021082ce80229c385a00f0fb4aab102204786efddd93ab387357d1ddd2f39b90b47fcf0abf275cc59d1c5d820c53f3acf0169522102b5d42a9e126b52e37e23f832462bb84d96892794cca36ec4a854581333a9c66821036ad5522329e3fb2cf1f3a6bdde625936b75622ca889bb2ae32cf122747713cbf21025782503e15c0f93ca3c3f20935830d1121761ecb6138c0c072e97192e0e2047853ae040047304402206b59c45fce166719433c727ceb69198545ab49fc1f5a2b427163e31c875bde7c022013c83decf71e281acaa3a898b1360bf5bf014349f7352b1c03a4314799ab4fa20147304402206a4927d1d73412e2db1ea3d2b4583ff8f78e20d5cc119ac33a132d6715249afd02207c3a158de2ff65f96c44beafa06c8d8dfe9fe09a2ccf06fead908c44d10ff265016952210298c9b7c9de506ee6a84b02c4a52c5cdc4a2a9d9a55ef2ecd83ef434ba217ecbf2102acacfea22a8a8f386c4b454dfc74bac6fa4ef7cee4bb75fcb7ee11a08610a5e72102625ce9df61deebb21b16bb6683e1834f9d785a6b5af785548e37616be3465c6353ae00000400483045022100d71062fcd9b15ef18fbe8d3d2ba08c0711445fb3676ba91fefd2c7cf4790fb7f022076b91c5699a3978d5bbe83265f2f818b2e5e2722e6ae4f9fed0b97a574ecf9290147304402202038b28e21fc2620392743e154185e5fc32533cc5e8c40fac9d7b0314f13c99f022008f7f314b064f37ff3d0bc60a2f5e15eac31e342300d3aaf6273219463d8d2b30169522102d98c9522af7a6d263d586295998a81a09ac99f5b2f66b6f1dab4681749987291210392efbc8279ea4f170335b97d7bc329da5fb9515b3a45717109c33a7143f6c61021034fa18ee1926a122fc7ba1fc70fba55fcc5b04b2332261a226fe75d509320d98153ae00000000", "vin": [{"txinwitness": ["", "304402201a95cdd13f9231771577406c3f73aae0b66d7c91c3958f1836d24cb5588e69df02201098f9b8842d8de1205a46b219f87d2412fedd4a2d624f166d093dd72793379e01", "304502210086275d0349f45ab80f1c2acc6108ca7476ac8ddb0f4d8da68c95d9a99c193a0a022044e0e2e30c5667074de3bf125fa1fc6f00cfb12970dac8f9b109498398227b7401", "522102270690ba2c292afde7dbe0b2474f9df14d0d6983c26a9bd55a3ba7688ee8cb552102fc21cacd68b728273b9b07ab5241fb167fd17dd432f773d311cb7aa642d7618e21034827312d4070e7a226a92e7e536e8ba0abbd092865a9b08f492fe0eb626f60e953ae"], "sequence": 4294967295, "scriptSig": {"hex": "2200207e831b5d0cb1efb8d1d0a1b49334839e09900a0f6768704a898d88a5031fa6b2", "asm": "00207e831b5d0cb1efb8d1d0a1b49334839e09900a0f6768704a898d88a5031fa6b2"}, "vout": 1, "txid": "e36b7806f6dac5b7391f5182436b34f3a34554d5200fa132e4d12b99d794e08a"}, {"txinwitness": ["", "30450221008c0d4dc728ffa35c8d2aa321ea343998df4ad9f73b29c453b42df2b2079538d802202958e9b1f28c6466defb81fcb8a491de40499ee595a01cd1a9aed7e75deba84701", "3044022011119ccecfc42cc88b45a4f5cc5c843c0581eae1b1ef907de48e25e370b8dfe90220407da009b55fbf122ca82810494f1d969b45169ab8695330e607e08752c97bb301", "52210298c9b7c9de506ee6a84b02c4a52c5cdc4a2a9d9a55ef2ecd83ef434ba217ecbf2102acacfea22a8a8f386c4b454dfc74bac6fa4ef7cee4bb75fcb7ee11a08610a5e72102625ce9df61deebb21b16bb6683e1834f9d785a6b5af785548e37616be3465c6353ae"], "sequence": 4294967295, "scriptSig": {"hex": "2200201b32c99b6f2ab20768db495d9e36633be3713bf830fd8d95d1bc42d1773f4248", "asm": "00201b32c99b6f2ab20768db495d9e36633be3713bf830fd8d95d1bc42d1773f4248"}, "vout": 0, "txid": "007e472e4fefd6e1f3efde219c9fadacca701b450fd2762bea5335183525fa07"}, {"txinwitness": ["", "304402207a216ec7d71202ab37c71bb9c685718afb5a864c5760cd4814f88cfb20a28ee202200ae06f4c3fc57300c0168c02f0856bd363ef233a8fa96fceb9c464ab0f7ac0b101", "3045022100d93293c8ae0f4c247b7df48487341c517773a94c366c624d3e8fa6a654a24437022052ebfe961948869c47251a07e900fb97a8026468233b1fc61709973abc34e7fa01", "5221032fc44e13d627e59dd2241ce7fc18e0a339b9498b0744b2fd229dee5737a63b312103ca0c1d208548800f48d12743884602c52677769895cec7b15bdf52ddc0eaccc62102ca59c0b60847db99c98260df0b03a3fa5cd547fd653059b071aea47450688cf153ae"], "sequence": 4294967295, "scriptSig": {"hex": "22002019af7c7c2d2750240802af5fbb754f4528c414f0ee1fd9b02fbd077c44333f25", "asm": "002019af7c7c2d2750240802af5fbb754f4528c414f0ee1fd9b02fbd077c44333f25"}, "vout": 1, "txid": "ef8c3e6566684d2178206260bdf0db2e35e4de6032e5ce91f8a882cd6b6c81fe"}, {"txinwitness": ["", "3044022065c705a3ca8ca353570c7917f876f325679f3872af8716e98f32352a78fc18d2022022c96ce342033dc55f114d3d1889a44f06e49e333113b6b1f00ad1b845e4703101", "304402206a8f76dec39be26e6ac4093705f67904a3c021082ce80229c385a00f0fb4aab102204786efddd93ab387357d1ddd2f39b90b47fcf0abf275cc59d1c5d820c53f3acf01", "522102b5d42a9e126b52e37e23f832462bb84d96892794cca36ec4a854581333a9c66821036ad5522329e3fb2cf1f3a6bdde625936b75622ca889bb2ae32cf122747713cbf21025782503e15c0f93ca3c3f20935830d1121761ecb6138c0c072e97192e0e2047853ae"], "sequence": 4294967295, "scriptSig": {"hex": "220020d44d63bc1bd6b1968ce5fb6015eb96d30fb7966b68877e165cc2e6aebf43d7c1", "asm": "0020d44d63bc1bd6b1968ce5fb6015eb96d30fb7966b68877e165cc2e6aebf43d7c1"}, "vout": 0, "txid": "9d2a2d44bed4fac4f6dc669e589a33735d1eb60a8b6b11e178acea87a0d9d2fc"}, {"txinwitness": ["", "304402206b59c45fce166719433c727ceb69198545ab49fc1f5a2b427163e31c875bde7c022013c83decf71e281acaa3a898b1360bf5bf014349f7352b1c03a4314799ab4fa201", "304402206a4927d1d73412e2db1ea3d2b4583ff8f78e20d5cc119ac33a132d6715249afd02207c3a158de2ff65f96c44beafa06c8d8dfe9fe09a2ccf06fead908c44d10ff26501", "52210298c9b7c9de506ee6a84b02c4a52c5cdc4a2a9d9a55ef2ecd83ef434ba217ecbf2102acacfea22a8a8f386c4b454dfc74bac6fa4ef7cee4bb75fcb7ee11a08610a5e72102625ce9df61deebb21b16bb6683e1834f9d785a6b5af785548e37616be3465c6353ae"], "sequence": 4294967295, "scriptSig": {"hex": "2200201b32c99b6f2ab20768db495d9e36633be3713bf830fd8d95d1bc42d1773f4248", "asm": "00201b32c99b6f2ab20768db495d9e36633be3713bf830fd8d95d1bc42d1773f4248"}, "vout": 0, "txid": "af38dffef02cdd016b89154c2749338fe9f154596b30d268877ae78445a01f54"}, {"sequence": 4294967295, "scriptSig": {"hex": "0048304502210093ee892a3786f810f24c49775cba56f8b72ef2c2e79292aeaec69129398fbbfe02203d64048e4cc96a159533cfd1bfeeca089b32f1e212d564c421c1a8bc5ee35ee301483045022100c8e1c79d06c7014290c8095ac0782e34de7e871760bb2a171ad2aedbe4d0e14e022026faee11446094369d9681b29fb5906e14994530b7a72f1ce04b5739bba3a7de014c695221031c5745bd86df6fc04401569db251a9f6634b418790fccb144311cf444291aac12102c1ebeccde256fd053400366adc4eab91a5bd4c9b51c041a21b72fda135b6a8be2102068a0080a5d623c31f492cd96b875d50dbe51c1f3b764f457deb6d835b7c81ae53ae", "asm": "0 304502210093ee892a3786f810f24c49775cba56f8b72ef2c2e79292aeaec69129398fbbfe02203d64048e4cc96a159533cfd1bfeeca089b32f1e212d564c421c1a8bc5ee35ee3[ALL] 3045022100c8e1c79d06c7014290c8095ac0782e34de7e871760bb2a171ad2aedbe4d0e14e022026faee11446094369d9681b29fb5906e14994530b7a72f1ce04b5739bba3a7de[ALL] 5221031c5745bd86df6fc04401569db251a9f6634b418790fccb144311cf444291aac12102c1ebeccde256fd053400366adc4eab91a5bd4c9b51c041a21b72fda135b6a8be2102068a0080a5d623c31f492cd96b875d50dbe51c1f3b764f457deb6d835b7c81ae53ae"}, "vout": 0, "txid": "c6765ffcaac6b102fdec9f5882bce8a40444002a83ce4c051b4121e59e843181"}, {"sequence": 4294967295, "scriptSig": {"hex": "00483045022100d5fa9232605af2728b72cc6cf74e94a8919cd59d2bb85d9e4a5d1dea7782440c022027b5801e4439fa47d0ad1a6b42f6ef78ffea069a2768efbc1a68cdf8a0e5fa2601483045022100d2b0b511e8ea9fcdd218e80c8c1ec601ed81ac53f0c18f3d44b464635751a0670220637eb73127dd89f10797b6b871ec0df18663376cff3592f1410dadf116d9c04a014c695221031c5745bd86df6fc04401569db251a9f6634b418790fccb144311cf444291aac12102c1ebeccde256fd053400366adc4eab91a5bd4c9b51c041a21b72fda135b6a8be2102068a0080a5d623c31f492cd96b875d50dbe51c1f3b764f457deb6d835b7c81ae53ae", "asm": "0 3045022100d5fa9232605af2728b72cc6cf74e94a8919cd59d2bb85d9e4a5d1dea7782440c022027b5801e4439fa47d0ad1a6b42f6ef78ffea069a2768efbc1a68cdf8a0e5fa26[ALL] 3045022100d2b0b511e8ea9fcdd218e80c8c1ec601ed81ac53f0c18f3d44b464635751a0670220637eb73127dd89f10797b6b871ec0df18663376cff3592f1410dadf116d9c04a[ALL] 5221031c5745bd86df6fc04401569db251a9f6634b418790fccb144311cf444291aac12102c1ebeccde256fd053400366adc4eab91a5bd4c9b51c041a21b72fda135b6a8be2102068a0080a5d623c31f492cd96b875d50dbe51c1f3b764f457deb6d835b7c81ae53ae"}, "vout": 2, "txid": "0ee282d23314b5de64ab35ae21a5a5217ce858a5913201057928cd8e92e5ded8"}, {"txinwitness": ["", "3045022100d71062fcd9b15ef18fbe8d3d2ba08c0711445fb3676ba91fefd2c7cf4790fb7f022076b91c5699a3978d5bbe83265f2f818b2e5e2722e6ae4f9fed0b97a574ecf92901", "304402202038b28e21fc2620392743e154185e5fc32533cc5e8c40fac9d7b0314f13c99f022008f7f314b064f37ff3d0bc60a2f5e15eac31e342300d3aaf6273219463d8d2b301", "522102d98c9522af7a6d263d586295998a81a09ac99f5b2f66b6f1dab4681749987291210392efbc8279ea4f170335b97d7bc329da5fb9515b3a45717109c33a7143f6c61021034fa18ee1926a122fc7ba1fc70fba55fcc5b04b2332261a226fe75d509320d98153ae"], "sequence": 4294967295, "scriptSig": {"hex": "2200203341a73a84f1f98a42ecd02517c0460233c938303bbbf5c3a66b22c4c1fe6fae", "asm": "00203341a73a84f1f98a42ecd02517c0460233c938303bbbf5c3a66b22c4c1fe6fae"}, "vout": 3, "txid": "e66199b3541fab7283e9ea522a90fab5ff2b139ff878deff730a2dc377671b50"}], "txid": "c6834bfed9fa9890703238e7187dbf32a57f9f0f1d2df36ed07cf10e878eea25", "blocktime": 1537873891, "version": 1, "confirmations": 11478, "time": 1537873891, "locktime": 0, "vsize": 2602, "size": 3742}