{"hash": "c685980e9d150df9bdf309db0a420648a6095ddb29ab21a90eb9376674f8f727", "blockhash": "00000000000000000024a2167bbff67b0be802c0b01cdd79e6331c2be6459f87", "vout": [{"scriptPubKey": {"reqSigs": 1, "hex": "a9142843388c6bd6a61a44c11b09f6d2de87c3d37a5687", "addresses": ["35MuUojEJHjPRfsgLu5YUg6cBmv5Ak66dd"], "asm": "OP_HASH160 2843388c6bd6a61a44c11b09f6d2de87c3d37a56 OP_EQUAL", "type": "scripthash"}, "value": 0.00445702, "n": 0}], "hex": "01000000018999675bb7fee5a128073bdfbfb0a80123d73037279f2143b73d47307f54cf40010000006b483045022100b5499178800f01ccce7a1dfb4eaac8b41be2274d30e56afb926ebcc8f1fd8de502205e7307e3ccc9988099c3bd61260de9ace88994841e47fd1b0e3f613831e804730121034951e15dbf824d2b218089c70527231c034d9f044c469a1f029fe2189b8dab11ffffffff0106cd06000000000017a9142843388c6bd6a61a44c11b09f6d2de87c3d37a568700000000", "vin": [{"sequence": 4294967295, "scriptSig": {"hex": "483045022100b5499178800f01ccce7a1dfb4eaac8b41be2274d30e56afb926ebcc8f1fd8de502205e7307e3ccc9988099c3bd61260de9ace88994841e47fd1b0e3f613831e804730121034951e15dbf824d2b218089c70527231c034d9f044c469a1f029fe2189b8dab11", "asm": "3045022100b5499178800f01ccce7a1dfb4eaac8b41be2274d30e56afb926ebcc8f1fd8de502205e7307e3ccc9988099c3bd61260de9ace88994841e47fd1b0e3f613831e80473[ALL] 034951e15dbf824d2b218089c70527231c034d9f044c469a1f029fe2189b8dab11"}, "vout": 1, "txid": "40cf547f30473db743219f273730d72301a8b0bfdf3b0728a1e5feb75b679989"}], "txid": "c685980e9d150df9bdf309db0a420648a6095ddb29ab21a90eb9376674f8f727", "blocktime": 1537870564, "version": 1, "confirmations": 11515, "time": 1537870564, "locktime": 0, "vsize": 190, "size": 190}