{"hash": "0d8c38df7cc9f9d1259b61673e3cc5f9fbb95130e9dc975248ac108c1f1d38df", "blockhash": "0000000000000000000e13cef7c366c0283d82e591d1acd082e914b08063cdf1", "vout": [{"scriptPubKey": {"reqSigs": 1, "hex": "a914abd8a6a8e9361c87a64454106fb37638c062815687", "addresses": ["3HMf1XJCEWAeBUPdd1SAfainouAnEo74cV"], "asm": "OP_HASH160 abd8a6a8e9361c87a64454106fb37638c0628156 OP_EQUAL", "type": "scripthash"}, "value": 0.00249867, "n": 0}, {"scriptPubKey": {"reqSigs": 1, "hex": "00147b7295c5e314019a53c690b1e2e4ec85acc73f23", "addresses": ["bc1q0deft30rzsqe557xjzc79e8vskkvw0ert6dem0"], "asm": "0 7b7295c5e314019a53c690b1e2e4ec85acc73f23", "type": "witness_v0_keyhash"}, "value": 2.503e-05, "n": 1}], "hex": "010000000001016fe15b4c2f0eef1e774a20d8aab38d52bf93c810644297ef657caa4c347689060100000000ffffffff020bd003000000000017a914abd8a6a8e9361c87a64454106fb37638c062815687c7090000000000001600147b7295c5e314019a53c690b1e2e4ec85acc73f230248304502210094fe7d6dd125230ce1d6eddf5d238797082d3e4793d8d326a0500f347fd046af02204903aa460eb1fec91f862a6dda3cf71a84ecd9720e4601e521eb3b84f32600b3012103b3e4fd92422562d66a0a36e85a130f6da78d4d2daa9b3236bd01b8dabedd5f3500000000", "vin": [{"txinwitness": ["304502210094fe7d6dd125230ce1d6eddf5d238797082d3e4793d8d326a0500f347fd046af02204903aa460eb1fec91f862a6dda3cf71a84ecd9720e4601e521eb3b84f32600b301", "03b3e4fd92422562d66a0a36e85a130f6da78d4d2daa9b3236bd01b8dabedd5f35"], "sequence": 4294967295, "scriptSig": {"hex": "", "asm": ""}, "vout": 1, "txid": "068976344caa7c65ef97426410c893bf528db3aad8204a771eef0e2f4c5be16f"}], "txid": "c686e3ab66c6c7e80f6899f32ca888c3011e8e22ae708f4f519120bdb3ba48ee", "blocktime": 1537871767, "version": 1, "confirmations": 11495, "time": 1537871767, "locktime": 0, "vsize": 142, "size": 224}