{"hash": "c68692170780961c7b3ec978dd4c239ae3574966fb1b26cfb8f8db6a8b0746fe", "blockhash": "0000000000000000001e0dab787dd257d1dbfcb92a98c2207d5e1078be1f4165", "vout": [{"scriptPubKey": {"reqSigs": 1, "hex": "76a9147595e27bd6a6f2a2ae96df20a228efce8f82793488ac", "addresses": ["1BijcciftVwEgAGaiUKUAH3oxgB6VBhx3d"], "asm": "OP_DUP OP_HASH160 7595e27bd6a6f2a2ae96df20a228efce8f827934 OP_EQUALVERIFY OP_CHECKSIG", "type": "pubkeyhash"}, "value": 0.00888602, "n": 0}, {"scriptPubKey": {"reqSigs": 1, "hex": "76a914e8cea30989bd15530f819b766684b00dc7ba7cfa88ac", "addresses": ["1NDyJtNTjmwk5xPNhjgAMu4HDHigtobu1s"], "asm": "OP_DUP OP_HASH160 e8cea30989bd15530f819b766684b00dc7ba7cfa OP_EQUALVERIFY OP_CHECKSIG", "type": "pubkeyhash"}, "value": 3.63685391, "n": 1}], "hex": "020000000743d899e5c1885283a262ec0e0283fc20867b895969ff28b6ed90e378acb68a1f000000006b483045022100ab4f1e82c58de61c7c59fcd794d7e823aa17cc91116723c73810a10414d4e5b002205c460e1e83ed4e50267cd2d07746db4c1a51b0bf1ab3db6ccdf00e9da846c87a012103677710200af9897ee6c2895d76a1c455cf560e33bc994372eaa255d3d60cb1effeffffff45d7f19aa1d70cde718c12a49130810505d6b9e7331808ae11ae2e4963a0ae8c010000006b483045022100f7543d03521e3b36c623e252c4351b37384bd2fb3ca99b210bcfa4af8fa0015c0220171e41a57a78139bffab41c3e0279f08dc268b35d1a89753f64f6fb5ceebee0e012103d33aab0514f1299adaab97eead74d4ba3103c810ffc913ad87c573131ceb8b11feffffff4b8eda740f5d581b7066ee7824352d6be5480e69658d06be7012f83b4414036f000000006b483045022100fd9d9b28fe5d0609b0f25397a598e41b9fc987ea04457337154f3713ae0426f4022036e69029762dfec07a1cd23ec052a1cdd613604b2c057c455db532e3966db422012103e485075a9b34ed23c7b1e0c3dce36f5e081e196343539ea5db029200a3364a29feffffff717dba3f6d5037fac657838da21dc1a3cf0920386067d3afafb34c0953e05886000000006b483045022100da5cdb9087b16e5788aea663c0a89318378d6fbf28eac61eab043edcb13d494d0220076ccdab1dee72bacb74e6c3205e016d42d117582e740e17b8a44ef600bd482b012103bb782e3e4d3b3396975a35dc5f571b2b13458c60e71ef4e60204508021c3b18ffeffffff7f803f7e022f5381cb54a48f56fb174bb943e9639b68b1fe02838007b741ee9e060300006b483045022100bb92e229cb8b96fd8afee72ad9b8db2c33de2d6a2c81ddba7f9abdd6d55a096d022014c16b6999e724bc3761717a9f3b830fd5ec5ef37add7da34d2753b6b52a490b012102ba95b11ecbf151b8e640fb36eb7421f7c9569154c67ae6f2d994f977ffe0d9fefeffffff81b66c78996081f0006470e92415945a6738eb1dfffb63125e6419685f4332a9000000006b483045022100c3aa8fd2857bdf5356bf834e61fbc0385534ba89f386b8f8a57f3cf4a0e1ef900220312123a002fbe77c779bee80e513d24b33d409ccc2cf426002961d366d3df89f01210208b70ecd31dbc38bfe661e544c94089f30c8c4bd158b3e735ba5e159850bdf21feffffff8c657c8e30ea7eda4d4a22c09dbbc204ba8e59a110513ece7b79b203561ddad5070000006b483045022100d991311d9a2cc23b474e0503beff57da38acaea66ced678d45d4f395705ad49302201b994f284c213a44c7be507b1506887cd8cf036c5591810b3626618f42ebf751012102691303765ed9b05e2b740f58faab030d3077b14910db346a463ec867c2ce4686feffffff021a8f0d00000000001976a9147595e27bd6a6f2a2ae96df20a228efce8f82793488ac0f66ad15000000001976a914e8cea30989bd15530f819b766684b00dc7ba7cfa88ac12490800", "vin": [{"sequence": 4294967294, "scriptSig": {"hex": "483045022100ab4f1e82c58de61c7c59fcd794d7e823aa17cc91116723c73810a10414d4e5b002205c460e1e83ed4e50267cd2d07746db4c1a51b0bf1ab3db6ccdf00e9da846c87a012103677710200af9897ee6c2895d76a1c455cf560e33bc994372eaa255d3d60cb1ef", "asm": "3045022100ab4f1e82c58de61c7c59fcd794d7e823aa17cc91116723c73810a10414d4e5b002205c460e1e83ed4e50267cd2d07746db4c1a51b0bf1ab3db6ccdf00e9da846c87a[ALL] 03677710200af9897ee6c2895d76a1c455cf560e33bc994372eaa255d3d60cb1ef"}, "vout": 0, "txid": "1f8ab6ac78e390edb628ff6959897b8620fc83020eec62a2835288c1e599d843"}, {"sequence": 4294967294, "scriptSig": {"hex": "483045022100f7543d03521e3b36c623e252c4351b37384bd2fb3ca99b210bcfa4af8fa0015c0220171e41a57a78139bffab41c3e0279f08dc268b35d1a89753f64f6fb5ceebee0e012103d33aab0514f1299adaab97eead74d4ba3103c810ffc913ad87c573131ceb8b11", "asm": "3045022100f7543d03521e3b36c623e252c4351b37384bd2fb3ca99b210bcfa4af8fa0015c0220171e41a57a78139bffab41c3e0279f08dc268b35d1a89753f64f6fb5ceebee0e[ALL] 03d33aab0514f1299adaab97eead74d4ba3103c810ffc913ad87c573131ceb8b11"}, "vout": 1, "txid": "8caea063492eae11ae081833e7b9d60505813091a4128c71de0cd7a19af1d745"}, {"sequence": 4294967294, "scriptSig": {"hex": "483045022100fd9d9b28fe5d0609b0f25397a598e41b9fc987ea04457337154f3713ae0426f4022036e69029762dfec07a1cd23ec052a1cdd613604b2c057c455db532e3966db422012103e485075a9b34ed23c7b1e0c3dce36f5e081e196343539ea5db029200a3364a29", "asm": "3045022100fd9d9b28fe5d0609b0f25397a598e41b9fc987ea04457337154f3713ae0426f4022036e69029762dfec07a1cd23ec052a1cdd613604b2c057c455db532e3966db422[ALL] 03e485075a9b34ed23c7b1e0c3dce36f5e081e196343539ea5db029200a3364a29"}, "vout": 0, "txid": "6f0314443bf81270be068d65690e48e56b2d352478ee66701b585d0f74da8e4b"}, {"sequence": 4294967294, "scriptSig": {"hex": "483045022100da5cdb9087b16e5788aea663c0a89318378d6fbf28eac61eab043edcb13d494d0220076ccdab1dee72bacb74e6c3205e016d42d117582e740e17b8a44ef600bd482b012103bb782e3e4d3b3396975a35dc5f571b2b13458c60e71ef4e60204508021c3b18f", "asm": "3045022100da5cdb9087b16e5788aea663c0a89318378d6fbf28eac61eab043edcb13d494d0220076ccdab1dee72bacb74e6c3205e016d42d117582e740e17b8a44ef600bd482b[ALL] 03bb782e3e4d3b3396975a35dc5f571b2b13458c60e71ef4e60204508021c3b18f"}, "vout": 0, "txid": "8658e053094cb3afafd36760382009cfa3c11da28d8357c6fa37506d3fba7d71"}, {"sequence": 4294967294, "scriptSig": {"hex": "483045022100bb92e229cb8b96fd8afee72ad9b8db2c33de2d6a2c81ddba7f9abdd6d55a096d022014c16b6999e724bc3761717a9f3b830fd5ec5ef37add7da34d2753b6b52a490b012102ba95b11ecbf151b8e640fb36eb7421f7c9569154c67ae6f2d994f977ffe0d9fe", "asm": "3045022100bb92e229cb8b96fd8afee72ad9b8db2c33de2d6a2c81ddba7f9abdd6d55a096d022014c16b6999e724bc3761717a9f3b830fd5ec5ef37add7da34d2753b6b52a490b[ALL] 02ba95b11ecbf151b8e640fb36eb7421f7c9569154c67ae6f2d994f977ffe0d9fe"}, "vout": 774, "txid": "9eee41b707808302feb1689b63e943b94b17fb568fa454cb81532f027e3f807f"}, {"sequence": 4294967294, "scriptSig": {"hex": "483045022100c3aa8fd2857bdf5356bf834e61fbc0385534ba89f386b8f8a57f3cf4a0e1ef900220312123a002fbe77c779bee80e513d24b33d409ccc2cf426002961d366d3df89f01210208b70ecd31dbc38bfe661e544c94089f30c8c4bd158b3e735ba5e159850bdf21", "asm": "3045022100c3aa8fd2857bdf5356bf834e61fbc0385534ba89f386b8f8a57f3cf4a0e1ef900220312123a002fbe77c779bee80e513d24b33d409ccc2cf426002961d366d3df89f[ALL] 0208b70ecd31dbc38bfe661e544c94089f30c8c4bd158b3e735ba5e159850bdf21"}, "vout": 0, "txid": "a932435f6819645e1263fbff1deb38675a941524e9706400f0816099786cb681"}, {"sequence": 4294967294, "scriptSig": {"hex": "483045022100d991311d9a2cc23b474e0503beff57da38acaea66ced678d45d4f395705ad49302201b994f284c213a44c7be507b1506887cd8cf036c5591810b3626618f42ebf751012102691303765ed9b05e2b740f58faab030d3077b14910db346a463ec867c2ce4686", "asm": "3045022100d991311d9a2cc23b474e0503beff57da38acaea66ced678d45d4f395705ad49302201b994f284c213a44c7be507b1506887cd8cf036c5591810b3626618f42ebf751[ALL] 02691303765ed9b05e2b740f58faab030d3077b14910db346a463ec867c2ce4686"}, "vout": 7, "txid": "d5da1d5603b2797bce3e5110a1598eba04c2bb9dc0224a4dda7eea308e7c658c"}], "txid": "c68692170780961c7b3ec978dd4c239ae3574966fb1b26cfb8f8db6a8b0746fe", "blocktime": 1537872475, "version": 2, "confirmations": 11486, "time": 1537872475, "locktime": 542994, "vsize": 1114, "size": 1114}