{"hash": "c68843868bbc9fd83ea57747dae407ab9c687c58d790ee237ede82ffb7a3c8b6", "blockhash": "0000000000000000001cda96e906b7601b7a6fb1a3b62bca570a9e5d8f4b3de1", "vout": [{"scriptPubKey": {"reqSigs": 1, "hex": "76a914e7300ef1b5d5d7c3291adf889b39f3637d4bb77988ac", "addresses": ["1N5QfU72rSZPm4VTjdJ8fsRMfC8eoBjrJQ"], "asm": "OP_DUP OP_HASH160 e7300ef1b5d5d7c3291adf889b39f3637d4bb779 OP_EQUALVERIFY OP_CHECKSIG", "type": "pubkeyhash"}, "value": 0.21081825, "n": 0}, {"scriptPubKey": {"reqSigs": 1, "hex": "76a914fad922bd2f51e1399a51de0ead7f28a924d7f04f88ac", "addresses": ["1PsN3p1SwzyjvofdBECBUtTxcRfnKon478"], "asm": "OP_DUP OP_HASH160 fad922bd2f51e1399a51de0ead7f28a924d7f04f OP_EQUALVERIFY OP_CHECKSIG", "type": "pubkeyhash"}, "value": 0.8, "n": 1}], "hex": "0100000003b1345c8094d244372288acb7ab2e2c7cad4842a3807f23c6836fcf8d933d65660e0000006b483045022100aca1b73967427729c16e03751e0550d45689fc36b356911755b639b40810004002203718464ba1504bce27747c4c188fb5b7be6ffc8fb2e02545369c0f16f34eaab40121032ea6d80b6c6ffe8d2db4bbe710824bb8b9e34f95a135aad636dd05177506f837feffffff13baf2fa5ee06683d87217ff84379083ad14adfa4b2757b9e1c26bc79ffaafeb190000006b483045022100c7befd5a3f2e50ca3af60ffe6aaf7d60910e5f188297f036854dc6e045e31ba602202f478afc9751197e93cde5429109297a08e5612f6c575d5ac8c30e7759b2a54a0121032ea6d80b6c6ffe8d2db4bbe710824bb8b9e34f95a135aad636dd05177506f837feffffffd1b5cad1f5d42f745c7c3365fae6c7236dd19d6bed1c863aad75165dfad11cf3010000006a47304402202f1565b05f696434e80127d7bd0468ab903d4a214ed7f606df74b2737ca87f4902202f6fd6d6008fecca7c866e53f6c4b46bf6d43efa33ea4a04b2b92c7e5dc3e0a60121032ea6d80b6c6ffe8d2db4bbe710824bb8b9e34f95a135aad636dd05177506f837feffffff02e1ae4101000000001976a914e7300ef1b5d5d7c3291adf889b39f3637d4bb77988ac00b4c404000000001976a914fad922bd2f51e1399a51de0ead7f28a924d7f04f88ac13490800", "vin": [{"sequence": 4294967294, "scriptSig": {"hex": "483045022100aca1b73967427729c16e03751e0550d45689fc36b356911755b639b40810004002203718464ba1504bce27747c4c188fb5b7be6ffc8fb2e02545369c0f16f34eaab40121032ea6d80b6c6ffe8d2db4bbe710824bb8b9e34f95a135aad636dd05177506f837", "asm": "3045022100aca1b73967427729c16e03751e0550d45689fc36b356911755b639b40810004002203718464ba1504bce27747c4c188fb5b7be6ffc8fb2e02545369c0f16f34eaab4[ALL] 032ea6d80b6c6ffe8d2db4bbe710824bb8b9e34f95a135aad636dd05177506f837"}, "vout": 14, "txid": "66653d938dcf6f83c6237f80a34248ad7c2c2eabb7ac88223744d294805c34b1"}, {"sequence": 4294967294, "scriptSig": {"hex": "483045022100c7befd5a3f2e50ca3af60ffe6aaf7d60910e5f188297f036854dc6e045e31ba602202f478afc9751197e93cde5429109297a08e5612f6c575d5ac8c30e7759b2a54a0121032ea6d80b6c6ffe8d2db4bbe710824bb8b9e34f95a135aad636dd05177506f837", "asm": "3045022100c7befd5a3f2e50ca3af60ffe6aaf7d60910e5f188297f036854dc6e045e31ba602202f478afc9751197e93cde5429109297a08e5612f6c575d5ac8c30e7759b2a54a[ALL] 032ea6d80b6c6ffe8d2db4bbe710824bb8b9e34f95a135aad636dd05177506f837"}, "vout": 25, "txid": "ebaffa9fc76bc2e1b957274bfaad14ad83903784ff1772d88366e05efaf2ba13"}, {"sequence": 4294967294, "scriptSig": {"hex": "47304402202f1565b05f696434e80127d7bd0468ab903d4a214ed7f606df74b2737ca87f4902202f6fd6d6008fecca7c866e53f6c4b46bf6d43efa33ea4a04b2b92c7e5dc3e0a60121032ea6d80b6c6ffe8d2db4bbe710824bb8b9e34f95a135aad636dd05177506f837", "asm": "304402202f1565b05f696434e80127d7bd0468ab903d4a214ed7f606df74b2737ca87f4902202f6fd6d6008fecca7c866e53f6c4b46bf6d43efa33ea4a04b2b92c7e5dc3e0a6[ALL] 032ea6d80b6c6ffe8d2db4bbe710824bb8b9e34f95a135aad636dd05177506f837"}, "vout": 1, "txid": "f31cd1fa5d1675ad3a861ced6b9dd16d23c7e6fa65337c5c742fd4f5d1cab5d1"}], "txid": "c68843868bbc9fd83ea57747dae407ab9c687c58d790ee237ede82ffb7a3c8b6", "blocktime": 1537873282, "version": 1, "confirmations": 11481, "time": 1537873282, "locktime": 542995, "vsize": 521, "size": 521}