{"hash": "c68998f28fca001c0ff56ee6f966efa962050de9468fc1ecb892f63f02dedb71", "blockhash": "0000000000000000000baef3f32e3676a92c3b2e5da21b426e4f302fc371ce76", "vout": [{"scriptPubKey": {"reqSigs": 1, "hex": "a91435160202ec985ce87b65e90a20359082a9e24c2587", "addresses": ["36Xi6qsjwcbUjr6uJxN5QpMiCNuy5YLnF9"], "asm": "OP_HASH160 35160202ec985ce87b65e90a20359082a9e24c25 OP_EQUAL", "type": "scripthash"}, "value": 0.00468, "n": 0}], "hex": "01000000025ae00ebf5f9cb25c74f3734ae7d0f5b8a9708706aae079685d6fe7062e5dda19000000006a47304402205bd2677b0e92f976e53374b26b2ec825aaa4ee715e57f4509c120b316c7c1fc602207d2f73ce69832b6f607805a4043b685d47ed509c8b8cf68eae7d2f820abc2f310121037bed01cd8340ab52804095c30403766cee08c8316fafd108fe69c7f572e71d0affffffffa798475ecb2be1b5f4d8eb5f19a24439053592ad6bc91eba821bc969ac9336e8000000006a473044022008ac103d3a94e6902bba37be37bf36715c565ecb8fc1b255db90f3502b53f8f9022032832ab3f4b99d2fa90a77323e77f62482e264867e1d6ec386d5544010fbbc3301210312de1e71c5975ef2ae84d49e82f802c773b8b97c323943aec08a5a626bd6df3fffffffff01202407000000000017a91435160202ec985ce87b65e90a20359082a9e24c258700000000", "vin": [{"sequence": 4294967295, "scriptSig": {"hex": "47304402205bd2677b0e92f976e53374b26b2ec825aaa4ee715e57f4509c120b316c7c1fc602207d2f73ce69832b6f607805a4043b685d47ed509c8b8cf68eae7d2f820abc2f310121037bed01cd8340ab52804095c30403766cee08c8316fafd108fe69c7f572e71d0a", "asm": "304402205bd2677b0e92f976e53374b26b2ec825aaa4ee715e57f4509c120b316c7c1fc602207d2f73ce69832b6f607805a4043b685d47ed509c8b8cf68eae7d2f820abc2f31[ALL] 037bed01cd8340ab52804095c30403766cee08c8316fafd108fe69c7f572e71d0a"}, "vout": 0, "txid": "19da5d2e06e76f5d6879e0aa068770a9b8f5d0e74a73f3745cb29c5fbf0ee05a"}, {"sequence": 4294967295, "scriptSig": {"hex": "473044022008ac103d3a94e6902bba37be37bf36715c565ecb8fc1b255db90f3502b53f8f9022032832ab3f4b99d2fa90a77323e77f62482e264867e1d6ec386d5544010fbbc3301210312de1e71c5975ef2ae84d49e82f802c773b8b97c323943aec08a5a626bd6df3f", "asm": "3044022008ac103d3a94e6902bba37be37bf36715c565ecb8fc1b255db90f3502b53f8f9022032832ab3f4b99d2fa90a77323e77f62482e264867e1d6ec386d5544010fbbc33[ALL] 0312de1e71c5975ef2ae84d49e82f802c773b8b97c323943aec08a5a626bd6df3f"}, "vout": 0, "txid": "e83693ac69c91b82ba1ec96bad9235053944a2195febd8f4b5e12bcb5e4798a7"}], "txid": "c68998f28fca001c0ff56ee6f966efa962050de9468fc1ecb892f63f02dedb71", "blocktime": 1537876114, "version": 1, "confirmations": 11460, "time": 1537876114, "locktime": 0, "vsize": 336, "size": 336}