{"hash": "c68fa3d8d3204542f81f39fa99e337e128b0adaa088edb808edf526e20cf0452", "blockhash": "000000000000000000022b45ed06c6f4ccd3cf7fb5ba4856ebd2e58215665228", "vout": [{"scriptPubKey": {"reqSigs": 1, "hex": "76a914833a87c46103ee6935ba0fa9a0259474c0de0ac788ac", "addresses": ["1Cxsdta1B5N2YUXA6EfYjLmbd3rZQn8Tia"], "asm": "OP_DUP OP_HASH160 833a87c46103ee6935ba0fa9a0259474c0de0ac7 OP_EQUALVERIFY OP_CHECKSIG", "type": "pubkeyhash"}, "value": 0.00015595, "n": 0}, {"scriptPubKey": {"reqSigs": 1, "hex": "76a914f3419b6ec45071a5932940440088ce35a157485f88ac", "addresses": ["1PBDo5eVCchL6MPJbaqnr2MRzEDrDd9Nss"], "asm": "OP_DUP OP_HASH160 f3419b6ec45071a5932940440088ce35a157485f OP_EQUALVERIFY OP_CHECKSIG", "type": "pubkeyhash"}, "value": 0.03424196, "n": 1}], "hex": "010000000160ea8dfffd03cb8a8b7ebf8936ee4d94e450b8d1a99c456411ee168db8e39920010000006a47304402205781ccfd8c698f2368280d0a13e6b4c0717c187a072e58c17bc835ce34143be202201b444254f582564ba2155ba600ffc746df2b297d0ccba5f5e0a9c8cd2c25b646012102c7c2b27cac61c41d2736f65a62e68053e81b0aa1175bbeda227433eaaef57d02ffffffff02eb3c0000000000001976a914833a87c46103ee6935ba0fa9a0259474c0de0ac788acc43f3400000000001976a914f3419b6ec45071a5932940440088ce35a157485f88ac00000000", "vin": [{"sequence": 4294967295, "scriptSig": {"hex": "47304402205781ccfd8c698f2368280d0a13e6b4c0717c187a072e58c17bc835ce34143be202201b444254f582564ba2155ba600ffc746df2b297d0ccba5f5e0a9c8cd2c25b646012102c7c2b27cac61c41d2736f65a62e68053e81b0aa1175bbeda227433eaaef57d02", "asm": "304402205781ccfd8c698f2368280d0a13e6b4c0717c187a072e58c17bc835ce34143be202201b444254f582564ba2155ba600ffc746df2b297d0ccba5f5e0a9c8cd2c25b646[ALL] 02c7c2b27cac61c41d2736f65a62e68053e81b0aa1175bbeda227433eaaef57d02"}, "vout": 1, "txid": "2099e3b88d16ee1164459ca9d1b850e4944dee3689bf7e8b8acb03fdff8dea60"}], "txid": "c68fa3d8d3204542f81f39fa99e337e128b0adaa088edb808edf526e20cf0452", "blocktime": 1537869901, "version": 1, "confirmations": 11524, "time": 1537869901, "locktime": 0, "vsize": 225, "size": 225}