{"hash": "4c9c8dc7ec55187b7818bbf3a9bf1bb05097256e46de8f900a2d4bf8f340056b", "blockhash": "0000000000000000000e13cef7c366c0283d82e591d1acd082e914b08063cdf1", "vout": [{"scriptPubKey": {"reqSigs": 1, "hex": "76a9142c2f4d07b2bdd81af8ed07069ca3afaad8e861d288ac", "addresses": ["152dPxwuce7Y2rUfGb4ugUR7zXeSHSU6MW"], "asm": "OP_DUP OP_HASH160 2c2f4d07b2bdd81af8ed07069ca3afaad8e861d2 OP_EQUALVERIFY OP_CHECKSIG", "type": "pubkeyhash"}, "value": 0.00764698, "n": 0}, {"scriptPubKey": {"reqSigs": 1, "hex": "a914bbbcef13c3a8209ca72dd8bd134324ba863cc5a787", "addresses": ["3JogcmoPg71LGSFa41Gf31Xni9x4hd5y7K"], "asm": "OP_HASH160 bbbcef13c3a8209ca72dd8bd134324ba863cc5a7 OP_EQUAL", "type": "scripthash"}, "value": 0.20204535, "n": 1}], "hex": "010000000001017594b6d962e4881395e7849c77f0904033ecb3909d157de882c49b2d003952be04000000232200201a1bcf26347a6d4864d9b87bd510693c2da2dfa1431867337cef9e6525255d28ffffffff021aab0b00000000001976a9142c2f4d07b2bdd81af8ed07069ca3afaad8e861d288acf74b34010000000017a914bbbcef13c3a8209ca72dd8bd134324ba863cc5a787040047304402204cb4fe46a614857af5c37c31e73ca129685d8b4cd69bc6e00648107d03984f590220061a687e0c69ebaff70368f1b8c2206271add5463f3d6278de6fb95c1c5e220e014730440220343f428376bae70609e8a3e2df008e40c334f7cce8b0fd995118b22c2f167a1e02203ebf017bf3d1434b4ddc4a7132b05ba9c4456a0e20217823b4f4a6812dc3bdde01695221020ce2c1d15114a7523e11851a7ac112ef5eb3b6b7e7a0a83ac4c26440600b1ad521028f3aa818a03e1ca00a932ec7a6e286c5b842096e1aafe226598fb0290f21b76b2102f26294b463e4349c93f01d251c7274b042c0a6a5eb0593b98df3bbec5adbec4d53ae00000000", "vin": [{"txinwitness": ["", "304402204cb4fe46a614857af5c37c31e73ca129685d8b4cd69bc6e00648107d03984f590220061a687e0c69ebaff70368f1b8c2206271add5463f3d6278de6fb95c1c5e220e01", "30440220343f428376bae70609e8a3e2df008e40c334f7cce8b0fd995118b22c2f167a1e02203ebf017bf3d1434b4ddc4a7132b05ba9c4456a0e20217823b4f4a6812dc3bdde01", "5221020ce2c1d15114a7523e11851a7ac112ef5eb3b6b7e7a0a83ac4c26440600b1ad521028f3aa818a03e1ca00a932ec7a6e286c5b842096e1aafe226598fb0290f21b76b2102f26294b463e4349c93f01d251c7274b042c0a6a5eb0593b98df3bbec5adbec4d53ae"], "sequence": 4294967295, "scriptSig": {"hex": "2200201a1bcf26347a6d4864d9b87bd510693c2da2dfa1431867337cef9e6525255d28", "asm": "00201a1bcf26347a6d4864d9b87bd510693c2da2dfa1431867337cef9e6525255d28"}, "vout": 4, "txid": "be5239002d9bc482e87d159d90b3ec334090f0779c84e7951388e462d9b69475"}], "txid": "c69264d1c11d60299034fe211daf85f6b7326a253626db1f8774cdf47517b223", "blocktime": 1537871767, "version": 1, "confirmations": 11495, "time": 1537871767, "locktime": 0, "vsize": 216, "size": 406}