{"hash": "c6b2c505e4b4c2bbe16c69b13a4ad8eaf23302286db53d5797856eca72b9924c", "blockhash": "000000000000000000022b45ed06c6f4ccd3cf7fb5ba4856ebd2e58215665228", "vout": [{"scriptPubKey": {"reqSigs": 1, "hex": "76a914950c6b93856a32662d3d320f85d6b462f82485c688ac", "addresses": ["1Eb6ZZB7LVc3ptpxFB99wPDm3iPfK4ppzb"], "asm": "OP_DUP OP_HASH160 950c6b93856a32662d3d320f85d6b462f82485c6 OP_EQUALVERIFY OP_CHECKSIG", "type": "pubkeyhash"}, "value": 7.74e-06, "n": 0}, {"scriptPubKey": {"reqSigs": 1, "hex": "76a914c86c4ecbd2ccb2cc7fbcb2d5acb8cc1de738820688ac", "addresses": ["1KGjtiyq1hsmxh4eHAD9LiNGxwsCSg9Crd"], "asm": "OP_DUP OP_HASH160 c86c4ecbd2ccb2cc7fbcb2d5acb8cc1de7388206 OP_EQUALVERIFY OP_CHECKSIG", "type": "pubkeyhash"}, "value": 0.13614, "n": 1}], "hex": "010000000165235afb2147dfc1cca89bd1f2de71d2774293c6c0f4ed1623e1544911c28e55000000006b483045022100b770ee2ff0b5e2403d6aa6b6a23677b1024ec7d2bf116122bdaa87e428c61f2f022053f79efee9afb90777eb75fecdf4164cf9948e78c8e2f3494a7d51882190c59c0121025b300374e831e2a0c10e430f9b500174a37792544367a862ba708ffe977e212dfdffffff0206030000000000001976a914950c6b93856a32662d3d320f85d6b462f82485c688acb0bbcf00000000001976a914c86c4ecbd2ccb2cc7fbcb2d5acb8cc1de738820688ac0b490800", "vin": [{"sequence": 4294967293, "scriptSig": {"hex": "483045022100b770ee2ff0b5e2403d6aa6b6a23677b1024ec7d2bf116122bdaa87e428c61f2f022053f79efee9afb90777eb75fecdf4164cf9948e78c8e2f3494a7d51882190c59c0121025b300374e831e2a0c10e430f9b500174a37792544367a862ba708ffe977e212d", "asm": "3045022100b770ee2ff0b5e2403d6aa6b6a23677b1024ec7d2bf116122bdaa87e428c61f2f022053f79efee9afb90777eb75fecdf4164cf9948e78c8e2f3494a7d51882190c59c[ALL] 025b300374e831e2a0c10e430f9b500174a37792544367a862ba708ffe977e212d"}, "vout": 0, "txid": "558ec2114954e12316edf4c0c6934277d271def2d19ba8ccc1df4721fb5a2365"}], "txid": "c6b2c505e4b4c2bbe16c69b13a4ad8eaf23302286db53d5797856eca72b9924c", "blocktime": 1537869901, "version": 1, "confirmations": 11524, "time": 1537869901, "locktime": 542987, "vsize": 226, "size": 226}