{"hash": "c118bfd68bcc130940dc7b3e47de54be0e3678f29b3c8fb4127129e5b57ef5e9", "blockhash": "000000000000000000022b45ed06c6f4ccd3cf7fb5ba4856ebd2e58215665228", "vout": [{"scriptPubKey": {"reqSigs": 1, "hex": "76a914098afc4a78284e3fd61842618c962a391d89818588ac", "addresses": ["1sTacKzzeDZVsPftwJdNoADN2DaRHqNZF"], "asm": "OP_DUP OP_HASH160 098afc4a78284e3fd61842618c962a391d898185 OP_EQUALVERIFY OP_CHECKSIG", "type": "pubkeyhash"}, "value": 0.00192675, "n": 0}, {"scriptPubKey": {"reqSigs": 1, "hex": "a91455786fb857ce1c12adc3023d33a480217810f6dc87", "addresses": ["39UwdvAy18Hd5CA7vq3AP5vGBK2RUbFuC9"], "asm": "OP_HASH160 55786fb857ce1c12adc3023d33a480217810f6dc OP_EQUAL", "type": "scripthash"}, "value": 5.125e-05, "n": 1}], "hex": "0100000000010176946eee2b04d62a5d2bf5054cb65d0e0ab9e9bfcc49cc1cb211a982dbf0660600000000171600147285cbbfc81dcb2a60c0293de6a173ec26317c74ffffffff02a3f00200000000001976a914098afc4a78284e3fd61842618c962a391d89818588ac051400000000000017a91455786fb857ce1c12adc3023d33a480217810f6dc8702473044022005a64597956f36e6b19de636d6b6fd52e4eaaa4bc1885d8334494791e0382dea022000fd94df09b17d070dd1aa4802be42b8cba3191387320d0cfad6d6cf3adc7be4012103c13b47d98474dd173c5b81964dfbdd8166c29546c5683fc20f1b33c27dafc4ba00000000", "vin": [{"txinwitness": ["3044022005a64597956f36e6b19de636d6b6fd52e4eaaa4bc1885d8334494791e0382dea022000fd94df09b17d070dd1aa4802be42b8cba3191387320d0cfad6d6cf3adc7be401", "03c13b47d98474dd173c5b81964dfbdd8166c29546c5683fc20f1b33c27dafc4ba"], "sequence": 4294967295, "scriptSig": {"hex": "1600147285cbbfc81dcb2a60c0293de6a173ec26317c74", "asm": "00147285cbbfc81dcb2a60c0293de6a173ec26317c74"}, "vout": 0, "txid": "0666f0db82a911b21ccc49ccbfe9b90a0e5db64c05f52b5d2ad6042bee6e9476"}], "txid": "c6bcb157d9075c413793c2b5c4e3e089f14727b11d0422990c37debb88e9f05f", "blocktime": 1537869901, "version": 1, "confirmations": 11522, "time": 1537869901, "locktime": 0, "vsize": 168, "size": 249}