{"hash": "c6c02ac463a91eec0ef6fa7a02a781ae93470534c72bd06215db3ab70d38d171", "blockhash": "00000000000000000004ffacab907a6b429b9a5745fa0b75af4234bf69dd7176", "vout": [{"scriptPubKey": {"reqSigs": 1, "hex": "a9146d8ad3fd2b89138842e17d29b15fcbde79d971d587", "addresses": ["3BgDtQ1SVfSMKZz4wk5qvsis9qXJxMYJfy"], "asm": "OP_HASH160 6d8ad3fd2b89138842e17d29b15fcbde79d971d5 OP_EQUAL", "type": "scripthash"}, "value": 0.06257842, "n": 0}, {"scriptPubKey": {"reqSigs": 1, "hex": "76a91413c5524e31eefc713b48abdd151ed15ff5a17c0288ac", "addresses": ["12oYDnSBFVJKbiKSzGcCUBYsTHzx9KTU7S"], "asm": "OP_DUP OP_HASH160 13c5524e31eefc713b48abdd151ed15ff5a17c02 OP_EQUALVERIFY OP_CHECKSIG", "type": "pubkeyhash"}, "value": 0.03263084, "n": 1}], "hex": "010000000172b55b91ab91f51ca6f77912478928b0016c78c22d09a62b62e61a62bc6c69e2010000006b483045022100fb9699857056056bf86c2cf0304d95ee25373d04845bb09419ff43d3c4caa24002201bdb79e0a428ae820c7b4d4acddb4c3e4d255ba9ae980b61035dcd442f82b74201210212d8a02ff8618a9fc8c3c556738c4f8044f424bba3c17b968d3c789d4a3cd223ffffffff02b27c5f000000000017a9146d8ad3fd2b89138842e17d29b15fcbde79d971d5876cca3100000000001976a91413c5524e31eefc713b48abdd151ed15ff5a17c0288ac00000000", "vin": [{"sequence": 4294967295, "scriptSig": {"hex": "483045022100fb9699857056056bf86c2cf0304d95ee25373d04845bb09419ff43d3c4caa24002201bdb79e0a428ae820c7b4d4acddb4c3e4d255ba9ae980b61035dcd442f82b74201210212d8a02ff8618a9fc8c3c556738c4f8044f424bba3c17b968d3c789d4a3cd223", "asm": "3045022100fb9699857056056bf86c2cf0304d95ee25373d04845bb09419ff43d3c4caa24002201bdb79e0a428ae820c7b4d4acddb4c3e4d255ba9ae980b61035dcd442f82b742[ALL] 0212d8a02ff8618a9fc8c3c556738c4f8044f424bba3c17b968d3c789d4a3cd223"}, "vout": 1, "txid": "e2696cbc621ae6622ba6092dc2786c01b02889471279f7a61cf591ab915bb572"}], "txid": "c6c02ac463a91eec0ef6fa7a02a781ae93470534c72bd06215db3ab70d38d171", "blocktime": 1537875543, "version": 1, "confirmations": 11464, "time": 1537875543, "locktime": 0, "vsize": 224, "size": 224}