{"hash": "c6c42f8c3799ba501dd1b8fca592eeb938ffb1f9a1b940614f315345bc538288", "blockhash": "0000000000000000000e13cef7c366c0283d82e591d1acd082e914b08063cdf1", "vout": [{"scriptPubKey": {"reqSigs": 1, "hex": "76a91494a3b12331964883a7cf42bbc3e13ed1adae019d88ac", "addresses": ["1EYw6uaWCtwAzEaKMPJqsx8R7WQdYwNdU3"], "asm": "OP_DUP OP_HASH160 94a3b12331964883a7cf42bbc3e13ed1adae019d OP_EQUALVERIFY OP_CHECKSIG", "type": "pubkeyhash"}, "value": 0.0064452, "n": 0}, {"scriptPubKey": {"type": "nulldata", "hex": "6a4c50000077900001cafff553811a05816ed077b4e3ef3236678a625097bcbefa6b8351586b4ee56a6fac4c11619f7f1abf07921ee9335baa0c7d06141dc4978739fb1d100759d4ba30d2c37bb011d97e02cf", "asm": "OP_RETURN 000077900001cafff553811a05816ed077b4e3ef3236678a625097bcbefa6b8351586b4ee56a6fac4c11619f7f1abf07921ee9335baa0c7d06141dc4978739fb1d100759d4ba30d2c37bb011d97e02cf"}, "value": 0.0, "n": 1}], "hex": "0100000001876e6ab036556042f3ba832ea2eea5bf52117e13bf10d61ad24e3965ec8a4745010000006a4730440220088dbdb185f275e4cbbb1d02da813fc789c494e3a958388b887283898bc59f0602200e3e1dc1e747a021c588b4b58469d633ee7f0a9d8d5998f1b06b5dfe029c56920121035c310ea03b363c8441aaabf474d942c655be1e695c29a1fe1026397808b0f4dbffffffff02a8d50900000000001976a91494a3b12331964883a7cf42bbc3e13ed1adae019d88ac0000000000000000536a4c50000077900001cafff553811a05816ed077b4e3ef3236678a625097bcbefa6b8351586b4ee56a6fac4c11619f7f1abf07921ee9335baa0c7d06141dc4978739fb1d100759d4ba30d2c37bb011d97e02cf00000000", "vin": [{"sequence": 4294967295, "scriptSig": {"hex": "4730440220088dbdb185f275e4cbbb1d02da813fc789c494e3a958388b887283898bc59f0602200e3e1dc1e747a021c588b4b58469d633ee7f0a9d8d5998f1b06b5dfe029c56920121035c310ea03b363c8441aaabf474d942c655be1e695c29a1fe1026397808b0f4db", "asm": "30440220088dbdb185f275e4cbbb1d02da813fc789c494e3a958388b887283898bc59f0602200e3e1dc1e747a021c588b4b58469d633ee7f0a9d8d5998f1b06b5dfe029c5692[ALL] 035c310ea03b363c8441aaabf474d942c655be1e695c29a1fe1026397808b0f4db"}, "vout": 1, "txid": "45478aec65394ed21ad610bf137e1152bfa5eea22e83baf342605536b06a6e87"}], "txid": "c6c42f8c3799ba501dd1b8fca592eeb938ffb1f9a1b940614f315345bc538288", "blocktime": 1537871767, "version": 1, "confirmations": 11495, "time": 1537871767, "locktime": 0, "vsize": 283, "size": 283}