{"hash": "c6c72c2558d6aaf57a2e7b4cab7e255c7689b46d34c4a8e953044e29c1138915", "blockhash": "0000000000000000001f76057863aec43deb6fa401d9628bb513d65a8098bfab", "vout": [{"scriptPubKey": {"reqSigs": 1, "hex": "a914f91887d6df19cbad9b5242a08043e795b715f98087", "addresses": ["3QQ7Zj84q8GDvdaxJX9adQptbJcAmgFtFY"], "asm": "OP_HASH160 f91887d6df19cbad9b5242a08043e795b715f980 OP_EQUAL", "type": "scripthash"}, "value": 0.00078806, "n": 0}, {"scriptPubKey": {"reqSigs": 1, "hex": "76a91404ff10ae726e03ebe426a0e75c44ffa0abe8f66388ac", "addresses": ["1TRG1KN4UXXZMGLPWX3pD9oLfzu59A3dz"], "asm": "OP_DUP OP_HASH160 04ff10ae726e03ebe426a0e75c44ffa0abe8f663 OP_EQUALVERIFY OP_CHECKSIG", "type": "pubkeyhash"}, "value": 0.33507489, "n": 1}], "hex": "0100000001dc4799b7b909f0590ff327b245908a7f5120f81f00d54451c51f95ca4fff5082010000006b483045022100a4f38fc0a16165d3e875da6f11b4cb4bba00bb3f2437e916602e40fb3bc971b902202f4c595421e35fe005adf0fbc2fb7e1fa58e07427ea168e7ea069e3f78c01d870121038ca33884c2f19ebeef5f405c5db09f024c4f1595eb529da1d7b237ba4634bb43ffffffff02d63301000000000017a914f91887d6df19cbad9b5242a08043e795b715f98087a148ff01000000001976a91404ff10ae726e03ebe426a0e75c44ffa0abe8f66388ac00000000", "vin": [{"sequence": 4294967295, "scriptSig": {"hex": "483045022100a4f38fc0a16165d3e875da6f11b4cb4bba00bb3f2437e916602e40fb3bc971b902202f4c595421e35fe005adf0fbc2fb7e1fa58e07427ea168e7ea069e3f78c01d870121038ca33884c2f19ebeef5f405c5db09f024c4f1595eb529da1d7b237ba4634bb43", "asm": "3045022100a4f38fc0a16165d3e875da6f11b4cb4bba00bb3f2437e916602e40fb3bc971b902202f4c595421e35fe005adf0fbc2fb7e1fa58e07427ea168e7ea069e3f78c01d87[ALL] 038ca33884c2f19ebeef5f405c5db09f024c4f1595eb529da1d7b237ba4634bb43"}, "vout": 1, "txid": "8250ff4fca951fc55144d5001ff820517f8a9045b227f30f59f009b9b79947dc"}], "txid": "c6c72c2558d6aaf57a2e7b4cab7e255c7689b46d34c4a8e953044e29c1138915", "blocktime": 1537873891, "version": 1, "confirmations": 11474, "time": 1537873891, "locktime": 0, "vsize": 224, "size": 224}