{"hash": "137defaabe6cbecb433bdf3a816c1b10942cb53b927a51e5653e3bcd149b5fff", "blockhash": "00000000000000000018f53835495a110e01622372bf6ae95dc86f2b0ab887b0", "vout": [{"scriptPubKey": {"reqSigs": 1, "hex": "a91430897cc6c9d69f6a2c2f1c651d51f22219f1a4f687", "addresses": ["367f4YWz1VCFaqBqwbTrzwi2b1h2U3w1AF"], "asm": "OP_HASH160 30897cc6c9d69f6a2c2f1c651d51f22219f1a4f6 OP_EQUAL", "type": "scripthash"}, "value": 0.00774326, "n": 0}, {"scriptPubKey": {"reqSigs": 1, "hex": "76a914b9811bc3f334811c064ed4ac8a945df63d018e3388ac", "addresses": ["1Hurg6toCgoSZDEpP3hB81ZKz4u51DNsMv"], "asm": "OP_DUP OP_HASH160 b9811bc3f334811c064ed4ac8a945df63d018e33 OP_EQUALVERIFY OP_CHECKSIG", "type": "pubkeyhash"}, "value": 0.00234056, "n": 1}], "hex": "010000000001014753367f540b2de6226db5b153619027cef44f472dfad9f5fa4b596fba90635f0000000023220020bcf9f822194145acea0f3235f4107b5bf1a91b6b9f8489f63bf79ec29b360913ffffffff02b6d00b000000000017a91430897cc6c9d69f6a2c2f1c651d51f22219f1a4f68748920300000000001976a914b9811bc3f334811c064ed4ac8a945df63d018e3388ac0400483045022100ed58f1ed58daebac19e591e9fded520abd9347a6420b7114e7f1f98dbb7aa8aa02207e2972b00e539f9dd047aa575a4b7d1b6b5a608b7e1a81d04243b5d06155b40f014730440220094847aaab3da8e05743297177e7f082645055cc80c2e23e8c1c0a56250a799b022017a274bae135204d288ce2971283e4f287a3e67444580f6f0c2f15bf436b894401695221026c8f72b9e63db63907115e65d4da86eaae595b22fdc85ec75301bb4adbf203582103806535be3e3920e5eedee92de5714188fd6a784f2bf7b04f87de0b9c3ae1ecdb21024b23bfdce2afcae7e28c42f7f79aa100f22931712c52d7414a526ba494d44a2553ae00000000", "vin": [{"txinwitness": ["", "3045022100ed58f1ed58daebac19e591e9fded520abd9347a6420b7114e7f1f98dbb7aa8aa02207e2972b00e539f9dd047aa575a4b7d1b6b5a608b7e1a81d04243b5d06155b40f01", "30440220094847aaab3da8e05743297177e7f082645055cc80c2e23e8c1c0a56250a799b022017a274bae135204d288ce2971283e4f287a3e67444580f6f0c2f15bf436b894401", "5221026c8f72b9e63db63907115e65d4da86eaae595b22fdc85ec75301bb4adbf203582103806535be3e3920e5eedee92de5714188fd6a784f2bf7b04f87de0b9c3ae1ecdb21024b23bfdce2afcae7e28c42f7f79aa100f22931712c52d7414a526ba494d44a2553ae"], "sequence": 4294967295, "scriptSig": {"hex": "220020bcf9f822194145acea0f3235f4107b5bf1a91b6b9f8489f63bf79ec29b360913", "asm": "0020bcf9f822194145acea0f3235f4107b5bf1a91b6b9f8489f63bf79ec29b360913"}, "vout": 0, "txid": "5f6390ba6f594bfaf5d9fa2d474ff4ce27906153b1b56d22e62d0b547f365347"}], "txid": "c6cfed6b2590eb04d1403ca511329180d439f30f024315b5817a653af4b82e3a", "blocktime": 1537870928, "version": 1, "confirmations": 11512, "time": 1537870928, "locktime": 0, "vsize": 216, "size": 407}