{"hash": "c6e461b20e07371544cc488b3ea39e8eadb57974b28b185c063e6ded54402465", "blockhash": "00000000000000000018f53835495a110e01622372bf6ae95dc86f2b0ab887b0", "vout": [{"scriptPubKey": {"type": "nulldata", "hex": "6a146f6d6e69000000000000001f000000262f296800", "asm": "OP_RETURN 6f6d6e69000000000000001f000000262f296800"}, "value": 0.0, "n": 0}, {"scriptPubKey": {"reqSigs": 1, "hex": "76a914c6fea6602f097f8b6ca59a436f0ca4efa592ba2788ac", "addresses": ["1K9BrNM1rAqxyYyY3cnK6PigfCbLcvTBYZ"], "asm": "OP_DUP OP_HASH160 c6fea6602f097f8b6ca59a436f0ca4efa592ba27 OP_EQUALVERIFY OP_CHECKSIG", "type": "pubkeyhash"}, "value": 0.00499064, "n": 1}, {"scriptPubKey": {"reqSigs": 1, "hex": "76a914a25dec4d0011064ef106a983c39c7a540699f22088ac", "addresses": ["1FoWyxwPXuj4C6abqwhjDWdz6D4PZgYRjA"], "asm": "OP_DUP OP_HASH160 a25dec4d0011064ef106a983c39c7a540699f220 OP_EQUALVERIFY OP_CHECKSIG", "type": "pubkeyhash"}, "value": 5.46e-06, "n": 2}], "hex": "01000000010d01a2029185c1752ddb6f4edd511a7d23d380cfcef6d7a0ca449357da1f4f33050000006b483045022100b2432dbb7deb3b7c74a61442175deda17770bf219d729fedad28f57c09d6700d02205bb2c646c33d5174838ca49ec8037aba4ebcdcd65870a6f130ade0e19112f9be012103bac2ff6c9b7396097331f6c6922a5f4450f0ebb46a86bdcea022ca09bd978deafeffffff030000000000000000166a146f6d6e69000000000000001f000000262f296800789d0700000000001976a914c6fea6602f097f8b6ca59a436f0ca4efa592ba2788ac22020000000000001976a914a25dec4d0011064ef106a983c39c7a540699f22088ac0d490800", "vin": [{"sequence": 4294967294, "scriptSig": {"hex": "483045022100b2432dbb7deb3b7c74a61442175deda17770bf219d729fedad28f57c09d6700d02205bb2c646c33d5174838ca49ec8037aba4ebcdcd65870a6f130ade0e19112f9be012103bac2ff6c9b7396097331f6c6922a5f4450f0ebb46a86bdcea022ca09bd978dea", "asm": "3045022100b2432dbb7deb3b7c74a61442175deda17770bf219d729fedad28f57c09d6700d02205bb2c646c33d5174838ca49ec8037aba4ebcdcd65870a6f130ade0e19112f9be[ALL] 03bac2ff6c9b7396097331f6c6922a5f4450f0ebb46a86bdcea022ca09bd978dea"}, "vout": 5, "txid": "334f1fda579344caa0d7f6cecf80d3237d1a51dd4e6fdb2d75c1859102a2010d"}], "txid": "c6e461b20e07371544cc488b3ea39e8eadb57974b28b185c063e6ded54402465", "blocktime": 1537870928, "version": 1, "confirmations": 11514, "time": 1537870928, "locktime": 542989, "vsize": 257, "size": 257}