{"hash": "c178d349132815c32ff0faaa6fd765cf5090179b7a6018416b8d4aae1787e9a3", "blockhash": "00000000000000000024a2167bbff67b0be802c0b01cdd79e6331c2be6459f87", "vout": [{"scriptPubKey": {"reqSigs": 1, "hex": "76a914faf535ca27dda504b988cdd6713d77597e5fdbb688ac", "addresses": ["1PswgTQ7HEFrc2EjSxTgs87tBx1MijAjKo"], "asm": "OP_DUP OP_HASH160 faf535ca27dda504b988cdd6713d77597e5fdbb6 OP_EQUALVERIFY OP_CHECKSIG", "type": "pubkeyhash"}, "value": 0.01, "n": 0}, {"scriptPubKey": {"reqSigs": 1, "hex": "a91437547ae377283131ed1d02d4d2aaedd49041b7dd87", "addresses": ["36jaHsR6TDPHUbe8Hxw2A6nynbX2dHwEwR"], "asm": "OP_HASH160 37547ae377283131ed1d02d4d2aaedd49041b7dd OP_EQUAL", "type": "scripthash"}, "value": 0.0003071, "n": 1}], "hex": "0100000000010309017ff750cc0472ca10585becd589a7a68f61e43869410c41168e9bea1a63eb0100000023220020b6c7f1826dd79d12389c03669ddb7b50137acc683cb7fb9fad50fa7b99cf3331ffffffff66e9113b47346365e49834840ed87d41b53a2b4fe11db3ec6dbb1aaf8f29d2890e00000023220020b6c7f1826dd79d12389c03669ddb7b50137acc683cb7fb9fad50fa7b99cf3331ffffffffcf228c10e807d5b0b53ed6b08ebff8e14e31835543f500f7f0ff1c376aa38a901600000023220020b6c7f1826dd79d12389c03669ddb7b50137acc683cb7fb9fad50fa7b99cf3331ffffffff0240420f00000000001976a914faf535ca27dda504b988cdd6713d77597e5fdbb688acf67700000000000017a91437547ae377283131ed1d02d4d2aaedd49041b7dd870400473044022070477d8d0ca454437a5dbef9ddd60ca0669308b24eae10f2467c1d7cc03dd3e302201e3a1dfaa7477a1868363d2b750961ae95f86972d41f5e68edd0a8ba7da4f46a01483045022100d4c548972ae051a3cf1cb232caad5046733502b5f957091bcc37143efc1b6d81022023557e54fa1210516c3e00fcff2f20d85714d44680ec88506ca290b5b4fb54c501475221034106b1ab4fc9ef728464e8a88b6fc57543cda6acb0f4d04c1ca09529455ce58b21032aa13642979788ddc8359029394f5ebeb81533df3545307341d229192653cc1d52ae04004730440220510cfe42690066f2e3512f81fc0ccf6c72c81b30e817d836cf2c961ad88e5dc602205ff408453f4c7978d63fe79d13421e283d676845f3e72a922d856fe634eab5f00147304402207c755bdabdea99b0ed28f6fe075043cb252b6c8ca0d5e957ec1c94879909b84f022075dffe2e69a3d425a324bab734ab8d2ed98268ab29765f7dc1bb040fca2c26ce01475221034106b1ab4fc9ef728464e8a88b6fc57543cda6acb0f4d04c1ca09529455ce58b21032aa13642979788ddc8359029394f5ebeb81533df3545307341d229192653cc1d52ae0400463043021f3ebcfdec66e857ebbe1f915e88cf1708ac33e93fecd992d3ed6675b5d0e5080220213e906d644dc34459354c4b6d43b9ce429c8de4cdfed72594dd1811f88f860201483045022100d3f51638c76e69eacb88c5d4a45f2946addd03c985e129d136e7d8bb04de890b022059032394b4665af178d5ee1ed56b000c4a4e41e20a84ffcd950f9cf0167680ee01475221034106b1ab4fc9ef728464e8a88b6fc57543cda6acb0f4d04c1ca09529455ce58b21032aa13642979788ddc8359029394f5ebeb81533df3545307341d229192653cc1d52ae00000000", "vin": [{"txinwitness": ["", "3044022070477d8d0ca454437a5dbef9ddd60ca0669308b24eae10f2467c1d7cc03dd3e302201e3a1dfaa7477a1868363d2b750961ae95f86972d41f5e68edd0a8ba7da4f46a01", "3045022100d4c548972ae051a3cf1cb232caad5046733502b5f957091bcc37143efc1b6d81022023557e54fa1210516c3e00fcff2f20d85714d44680ec88506ca290b5b4fb54c501", "5221034106b1ab4fc9ef728464e8a88b6fc57543cda6acb0f4d04c1ca09529455ce58b21032aa13642979788ddc8359029394f5ebeb81533df3545307341d229192653cc1d52ae"], "sequence": 4294967295, "scriptSig": {"hex": "220020b6c7f1826dd79d12389c03669ddb7b50137acc683cb7fb9fad50fa7b99cf3331", "asm": "0020b6c7f1826dd79d12389c03669ddb7b50137acc683cb7fb9fad50fa7b99cf3331"}, "vout": 1, "txid": "eb631aea9b8e16410c416938e4618fa6a789d5ec5b5810ca7204cc50f77f0109"}, {"txinwitness": ["", "30440220510cfe42690066f2e3512f81fc0ccf6c72c81b30e817d836cf2c961ad88e5dc602205ff408453f4c7978d63fe79d13421e283d676845f3e72a922d856fe634eab5f001", "304402207c755bdabdea99b0ed28f6fe075043cb252b6c8ca0d5e957ec1c94879909b84f022075dffe2e69a3d425a324bab734ab8d2ed98268ab29765f7dc1bb040fca2c26ce01", "5221034106b1ab4fc9ef728464e8a88b6fc57543cda6acb0f4d04c1ca09529455ce58b21032aa13642979788ddc8359029394f5ebeb81533df3545307341d229192653cc1d52ae"], "sequence": 4294967295, "scriptSig": {"hex": "220020b6c7f1826dd79d12389c03669ddb7b50137acc683cb7fb9fad50fa7b99cf3331", "asm": "0020b6c7f1826dd79d12389c03669ddb7b50137acc683cb7fb9fad50fa7b99cf3331"}, "vout": 14, "txid": "89d2298faf1abb6decb31de14f2b3ab5417dd80e843498e4656334473b11e966"}, {"txinwitness": ["", "3043021f3ebcfdec66e857ebbe1f915e88cf1708ac33e93fecd992d3ed6675b5d0e5080220213e906d644dc34459354c4b6d43b9ce429c8de4cdfed72594dd1811f88f860201", "3045022100d3f51638c76e69eacb88c5d4a45f2946addd03c985e129d136e7d8bb04de890b022059032394b4665af178d5ee1ed56b000c4a4e41e20a84ffcd950f9cf0167680ee01", "5221034106b1ab4fc9ef728464e8a88b6fc57543cda6acb0f4d04c1ca09529455ce58b21032aa13642979788ddc8359029394f5ebeb81533df3545307341d229192653cc1d52ae"], "sequence": 4294967295, "scriptSig": {"hex": "220020b6c7f1826dd79d12389c03669ddb7b50137acc683cb7fb9fad50fa7b99cf3331", "asm": "0020b6c7f1826dd79d12389c03669ddb7b50137acc683cb7fb9fad50fa7b99cf3331"}, "vout": 22, "txid": "908aa36a371cfff0f700f5435583314ee1f8bf8eb0d63eb5b0d507e8108c22cf"}], "txid": "c6e4b9eaa5874c4276147e01af39eb37758b7232c11e62e69978f5b9ecbd3b22", "blocktime": 1537870564, "version": 1, "confirmations": 11515, "time": 1537870564, "locktime": 0, "vsize": 469, "size": 961}