{"hash": "c6e86c640d9b503dad256af263c67b247baffac576595fa056896349c40eb3e3", "blockhash": "0000000000000000000e13cef7c366c0283d82e591d1acd082e914b08063cdf1", "vout": [{"scriptPubKey": {"reqSigs": 1, "hex": "a9146c785cfbffb2a029c347056815d06401fbb77aad87", "addresses": ["3BaZ6F94N7eq7WvHoQNLwiY4mPi5GjGJCz"], "asm": "OP_HASH160 6c785cfbffb2a029c347056815d06401fbb77aad OP_EQUAL", "type": "scripthash"}, "value": 0.00182184, "n": 0}, {"scriptPubKey": {"reqSigs": 1, "hex": "76a91443a745dac97e59bda3f83f13c57c41a82c5eb2b588ac", "addresses": ["17AifBAy18wgCtnqARbZSdJcCT9BF6h5Tv"], "asm": "OP_DUP OP_HASH160 43a745dac97e59bda3f83f13c57c41a82c5eb2b5 OP_EQUALVERIFY OP_CHECKSIG", "type": "pubkeyhash"}, "value": 0.01872338, "n": 1}], "hex": "01000000019abed328f019778d825a67ea040a8454ccf4d9268924f190f64bd77909846f2b010000006a47304402202ff2e63e947381d1bac642b45b6a3a5770241fb36c2f631f6d4af13983d67b5f02200784bba7e3c0b3126bb622274a585cce1bbf859ed7c12f678745982073f0adda0121031d4bc1ec270526892b47ae0a309db50dd81332f455a1d5cb1424d6bd8f54d5c1ffffffff02a8c702000000000017a9146c785cfbffb2a029c347056815d06401fbb77aad87d2911c00000000001976a91443a745dac97e59bda3f83f13c57c41a82c5eb2b588ac00000000", "vin": [{"sequence": 4294967295, "scriptSig": {"hex": "47304402202ff2e63e947381d1bac642b45b6a3a5770241fb36c2f631f6d4af13983d67b5f02200784bba7e3c0b3126bb622274a585cce1bbf859ed7c12f678745982073f0adda0121031d4bc1ec270526892b47ae0a309db50dd81332f455a1d5cb1424d6bd8f54d5c1", "asm": "304402202ff2e63e947381d1bac642b45b6a3a5770241fb36c2f631f6d4af13983d67b5f02200784bba7e3c0b3126bb622274a585cce1bbf859ed7c12f678745982073f0adda[ALL] 031d4bc1ec270526892b47ae0a309db50dd81332f455a1d5cb1424d6bd8f54d5c1"}, "vout": 1, "txid": "2b6f840979d74bf690f1248926d9f4cc54840a04ea675a828d7719f028d3be9a"}], "txid": "c6e86c640d9b503dad256af263c67b247baffac576595fa056896349c40eb3e3", "blocktime": 1537871767, "version": 1, "confirmations": 11495, "time": 1537871767, "locktime": 0, "vsize": 223, "size": 223}