{"hash": "e5d97e05d6b25b71aa16a8fda8550a68b876eac3e973e5e1af84cbdb001b25c6", "blockhash": "0000000000000000000e13cef7c366c0283d82e591d1acd082e914b08063cdf1", "vout": [{"scriptPubKey": {"reqSigs": 1, "hex": "a914d303b012fd5bace55c9e1eecd8544fa009e066ec87", "addresses": ["3LvkvFaJnbgHkBLLALpbmpCoqhxjnChTS6"], "asm": "OP_HASH160 d303b012fd5bace55c9e1eecd8544fa009e066ec OP_EQUAL", "type": "scripthash"}, "value": 0.00049574, "n": 0}], "hex": "01000000000101baf6827f069945259c929b0aad4bc76a7f88191d05fbab2bf42b7ef35d4c651e070000001716001427d79070bdd7e3d40775734a73c216b59ee45cdeffffffff01a6c100000000000017a914d303b012fd5bace55c9e1eecd8544fa009e066ec8702483045022100c812fe2dd6019a321afdf47f231323a435a118b1b8c0d429f5d41a632c778ee20220313aebcb8f642b6eb7c1e3d8f2187d80ffa1b20ec93987cf144816c5d8e6e508012102bc3b2af226db0719cc7edd77444ef16b8158e39cfa1fd01f06f7621a86af265400000000", "vin": [{"txinwitness": ["3045022100c812fe2dd6019a321afdf47f231323a435a118b1b8c0d429f5d41a632c778ee20220313aebcb8f642b6eb7c1e3d8f2187d80ffa1b20ec93987cf144816c5d8e6e50801", "02bc3b2af226db0719cc7edd77444ef16b8158e39cfa1fd01f06f7621a86af2654"], "sequence": 4294967295, "scriptSig": {"hex": "16001427d79070bdd7e3d40775734a73c216b59ee45cde", "asm": "001427d79070bdd7e3d40775734a73c216b59ee45cde"}, "vout": 7, "txid": "1e654c5df37e2bf42babfb051d19887f6ac74bad0a9b929c254599067f82f6ba"}], "txid": "c6edbb06f83bac6e764989c6d80aed382c3c19351c1b2ce30f174d8d2085ddff", "blocktime": 1537871767, "version": 1, "confirmations": 11495, "time": 1537871767, "locktime": 0, "vsize": 134, "size": 216}