{"hash": "c6ed1d6a2bc4a7029749a550e90d0a64fdd7c19539d6942f308ee26e8ed9b839", "blockhash": "0000000000000000001cda96e906b7601b7a6fb1a3b62bca570a9e5d8f4b3de1", "vout": [{"scriptPubKey": {"reqSigs": 1, "hex": "76a914ea58999933a06b5046db0b3b52e3d5a8903f970288ac", "addresses": ["1NN7Fvaj4hJjjGcZAy3rzothhxZqMTgxyc"], "asm": "OP_DUP OP_HASH160 ea58999933a06b5046db0b3b52e3d5a8903f9702 OP_EQUALVERIFY OP_CHECKSIG", "type": "pubkeyhash"}, "value": 0.01562446, "n": 0}, {"scriptPubKey": {"reqSigs": 1, "hex": "76a91445f4371241fbd27dbc0cee87d4a1aadf8d03e31a88ac", "addresses": ["17NtBbpzogEMjAQsYjVp6d1kE8UPRSfnsy"], "asm": "OP_DUP OP_HASH160 45f4371241fbd27dbc0cee87d4a1aadf8d03e31a OP_EQUALVERIFY OP_CHECKSIG", "type": "pubkeyhash"}, "value": 0.02109017, "n": 1}], "hex": "010000000138ac1194a0ece5559e472ddeaf31962f3460f5fbe5ab8aa126ca631f07399cc7000000006a47304402202c6f80a11561bd42a6d70f74104977f42c1b8057ab40ca124acbfeb2372d5a280220532182bf852d3007ca5f38a66fc12341da858ea149581d7dd488af7a764e55b201210260b8728b196ce114ab01d08ce7024a63dba3a18ad33304443b0fbaa56082fcb2ffffffff024ed71700000000001976a914ea58999933a06b5046db0b3b52e3d5a8903f970288ac592e2000000000001976a91445f4371241fbd27dbc0cee87d4a1aadf8d03e31a88ac00000000", "vin": [{"sequence": 4294967295, "scriptSig": {"hex": "47304402202c6f80a11561bd42a6d70f74104977f42c1b8057ab40ca124acbfeb2372d5a280220532182bf852d3007ca5f38a66fc12341da858ea149581d7dd488af7a764e55b201210260b8728b196ce114ab01d08ce7024a63dba3a18ad33304443b0fbaa56082fcb2", "asm": "304402202c6f80a11561bd42a6d70f74104977f42c1b8057ab40ca124acbfeb2372d5a280220532182bf852d3007ca5f38a66fc12341da858ea149581d7dd488af7a764e55b2[ALL] 0260b8728b196ce114ab01d08ce7024a63dba3a18ad33304443b0fbaa56082fcb2"}, "vout": 0, "txid": "c79c39071f63ca26a18aabe5fbf560342f9631afde2d479e55e5eca09411ac38"}], "txid": "c6ed1d6a2bc4a7029749a550e90d0a64fdd7c19539d6942f308ee26e8ed9b839", "blocktime": 1537873282, "version": 1, "confirmations": 11482, "time": 1537873282, "locktime": 0, "vsize": 225, "size": 225}