{"hash": "81533e8df5e87a710be0612cfe3e5990af9c0e1c9f7ca50b1be4657629cb3972", "blockhash": "00000000000000000017f5eb5941039fbcee6240d03bc1f2f8e35350df66a1d8", "vout": [{"scriptPubKey": {"reqSigs": 1, "hex": "a914d430db8b2b2fff0f643093cd6ce7fe7d4cbe9efe87", "addresses": ["3M2yhtyBd8F8LU3AynC3pqUTUoXvx4bHd9"], "asm": "OP_HASH160 d430db8b2b2fff0f643093cd6ce7fe7d4cbe9efe OP_EQUAL", "type": "scripthash"}, "value": 1.97160754, "n": 0}, {"scriptPubKey": {"reqSigs": 1, "hex": "76a914fc9145d5d331b2a1582c426e41c29b2d58c5ba0188ac", "addresses": ["1Q2TK5B2MKiK3i293pcEHAADALkShHmwiP"], "asm": "OP_DUP OP_HASH160 fc9145d5d331b2a1582c426e41c29b2d58c5ba01 OP_EQUALVERIFY OP_CHECKSIG", "type": "pubkeyhash"}, "value": 1.0, "n": 1}], "hex": "0200000000010166352f7096483f0bfe7732bfba781dceafe9337010f3d4ba0ee02c88304278720000000017160014a0665f75fad52d107542280b301738daee90dff7feffffff02326fc00b0000000017a914d430db8b2b2fff0f643093cd6ce7fe7d4cbe9efe8700e1f505000000001976a914fc9145d5d331b2a1582c426e41c29b2d58c5ba0188ac024830450221008b13acead7792b9b33dd301d511046e9b178d127f399c3ce5ac60a3aa9963f2a02200fad147d34d7b2e61bb5687e039a5ea6281dbf5a35242b552ddf802b3a40932b01210206c220a6f15b1c481c47c1476cc462634d0f93d85681bbe2d67c8ebe9a7ff3d2f7480800", "vin": [{"txinwitness": ["30450221008b13acead7792b9b33dd301d511046e9b178d127f399c3ce5ac60a3aa9963f2a02200fad147d34d7b2e61bb5687e039a5ea6281dbf5a35242b552ddf802b3a40932b01", "0206c220a6f15b1c481c47c1476cc462634d0f93d85681bbe2d67c8ebe9a7ff3d2"], "sequence": 4294967294, "scriptSig": {"hex": "160014a0665f75fad52d107542280b301738daee90dff7", "asm": "0014a0665f75fad52d107542280b301738daee90dff7"}, "vout": 0, "txid": "72784230882ce00ebad4f3107033e9afce1d78babf3277fe0b3f4896702f3566"}], "txid": "c6fbca27d0377328938c6f50193bde587c49e43adee07d83b95949e661d6966f", "blocktime": 1537874412, "version": 2, "confirmations": 11467, "time": 1537874412, "locktime": 542967, "vsize": 168, "size": 250}