{"hash": "c6fc3f891685f4dbb0a4a7c23be0d0fe25b906178ed60f59dd9a73c2afdf3775", "blockhash": "0000000000000000001e0dab787dd257d1dbfcb92a98c2207d5e1078be1f4165", "vout": [{"scriptPubKey": {"reqSigs": 1, "hex": "76a914a833d07c8e6006e1ef16a556f325084adb8629ae88ac", "addresses": ["1GLNbMbpJ7ZVsTJyGLA52k1atRd1J8Jwv1"], "asm": "OP_DUP OP_HASH160 a833d07c8e6006e1ef16a556f325084adb8629ae OP_EQUALVERIFY OP_CHECKSIG", "type": "pubkeyhash"}, "value": 0.01402024, "n": 0}, {"scriptPubKey": {"type": "nulldata", "hex": "6a4c50000077b90001d6d5c92c0fd00b78d3393bafe5bf9ae76da98a211aaf6c953dd567cf27e73c0877eeca33786294573d0bc4a4cecf5baa11f506127da7d2117837bc9a9526289ac0f6612cd74e33776ee4", "asm": "OP_RETURN 000077b90001d6d5c92c0fd00b78d3393bafe5bf9ae76da98a211aaf6c953dd567cf27e73c0877eeca33786294573d0bc4a4cecf5baa11f506127da7d2117837bc9a9526289ac0f6612cd74e33776ee4"}, "value": 0.0, "n": 1}], "hex": "0100000001961e0b66e5a696c5c21b9e988d0fceb9378e18aa27c1e969255c47160db30073010000006b483045022100b2bf47179b23d961175cb4c09d1aadcc92c5daf219cea786441d0413e1f3d46302201cc2a46003f64c8989edfebaa1d13fb12ba38f28a14547827e7288007a8626b701210219cbd2f6f355032d8c6aa7f23935b18c683a925143ced6121d62ecfb879efd5fffffffff02a8641500000000001976a914a833d07c8e6006e1ef16a556f325084adb8629ae88ac0000000000000000536a4c50000077b90001d6d5c92c0fd00b78d3393bafe5bf9ae76da98a211aaf6c953dd567cf27e73c0877eeca33786294573d0bc4a4cecf5baa11f506127da7d2117837bc9a9526289ac0f6612cd74e33776ee400000000", "vin": [{"sequence": 4294967295, "scriptSig": {"hex": "483045022100b2bf47179b23d961175cb4c09d1aadcc92c5daf219cea786441d0413e1f3d46302201cc2a46003f64c8989edfebaa1d13fb12ba38f28a14547827e7288007a8626b701210219cbd2f6f355032d8c6aa7f23935b18c683a925143ced6121d62ecfb879efd5f", "asm": "3045022100b2bf47179b23d961175cb4c09d1aadcc92c5daf219cea786441d0413e1f3d46302201cc2a46003f64c8989edfebaa1d13fb12ba38f28a14547827e7288007a8626b7[ALL] 0219cbd2f6f355032d8c6aa7f23935b18c683a925143ced6121d62ecfb879efd5f"}, "vout": 1, "txid": "7300b30d16475c2569e9c127aa188e37b9ce0f8d989e1bc2c596a6e5660b1e96"}], "txid": "c6fc3f891685f4dbb0a4a7c23be0d0fe25b906178ed60f59dd9a73c2afdf3775", "blocktime": 1537872475, "version": 1, "confirmations": 11486, "time": 1537872475, "locktime": 0, "vsize": 284, "size": 284}