{"hash": "c701f275c98e328412efce80b901e2b53a4f398541a369e81ad70b41c5fe2b1c", "blockhash": "0000000000000000001cda96e906b7601b7a6fb1a3b62bca570a9e5d8f4b3de1", "vout": [{"scriptPubKey": {"reqSigs": 1, "hex": "a9140e80f33ba52d7eab10cc3bca8fec5959eaefeb2387", "addresses": ["331hrqkk1KZsPvf7SDvj3vbKYyZXTAUJ5A"], "asm": "OP_HASH160 0e80f33ba52d7eab10cc3bca8fec5959eaefeb23 OP_EQUAL", "type": "scripthash"}, "value": 0.01952523, "n": 0}, {"scriptPubKey": {"reqSigs": 1, "hex": "76a914c6850e1fb1a3944a560c82a85881653ef890392888ac", "addresses": ["1K6gBpS2cJPE5YFt3X33f1HjYfYpxWLYUU"], "asm": "OP_DUP OP_HASH160 c6850e1fb1a3944a560c82a85881653ef8903928 OP_EQUALVERIFY OP_CHECKSIG", "type": "pubkeyhash"}, "value": 0.54040655, "n": 1}], "hex": "010000000404f6469a73e8c126a35030363122da680b97e37670c4c89190f8397d47cf2e1b000000006b483045022100eb6489cf6c1ffed81c6d99e56e271d88dd00890c94519978f803ed0fce2b3ba302200d4e3a85ad8b46ab72ab80b2347784b1985d0301a299ae39aa814a4afa08d3b201210342ae1686925f58bb62fccf919d8e891ee5d65caa20c5ca621b5be6c0ba036446ffffffff9efeb697d7cb894d5be271a62d8b57c5e01f2b7c50c2a27828a38e58b0799f4b000000006b483045022100eae6398809cf353889e57fabee7fd2087aa1c452925ef1fbaa6de5c57d9ead3802205ef71d5e49b3db4f6bf8bc5fc12e46406354368e1f9629e8ecd175f7cc71a73801210394b79225b066b21f230e76b54498bcdb575f54249228ea8dc7397b469750c6f7ffffffff67c19a226d63eb2233b9c785bdc249fc93e055bc3ecc78dd5e2736dd07418b8c000000006a47304402204e73e3f2d4c1c56ea5cbeee99dc0f154c024631a1e94cce40c2f0a1339a74fcc022025f4408c5fd5691f8c32dcadc0b0a718924aa547db42964b1cbff00ce791e907012103e16d1c6bf46bd321edf1e7aa041eb2c82fc7272eb08acff0040b5909349f04bfffffffffb60a66238e40fed8409638cd768df224b59038dae8208a64493a8e8ddfc66ac3000000006b4830450221009c8ad4ca4e16a49ed6409ecf6cabc09229c6d14c8c3b6fc6baf0508d2ba0e75d02202eb6494c7a82945fc5145c0c07c927da5e533385f2e3bac7ff58395559be7e70012103232b8b2d38bffb4875a791bb03365f8f6576507ed39fd516abfd5376bc3629eeffffffff020bcb1d000000000017a9140e80f33ba52d7eab10cc3bca8fec5959eaefeb23874f983803000000001976a914c6850e1fb1a3944a560c82a85881653ef890392888ac00000000", "vin": [{"sequence": 4294967295, "scriptSig": {"hex": "483045022100eb6489cf6c1ffed81c6d99e56e271d88dd00890c94519978f803ed0fce2b3ba302200d4e3a85ad8b46ab72ab80b2347784b1985d0301a299ae39aa814a4afa08d3b201210342ae1686925f58bb62fccf919d8e891ee5d65caa20c5ca621b5be6c0ba036446", "asm": "3045022100eb6489cf6c1ffed81c6d99e56e271d88dd00890c94519978f803ed0fce2b3ba302200d4e3a85ad8b46ab72ab80b2347784b1985d0301a299ae39aa814a4afa08d3b2[ALL] 0342ae1686925f58bb62fccf919d8e891ee5d65caa20c5ca621b5be6c0ba036446"}, "vout": 0, "txid": "1b2ecf477d39f89091c8c47076e3970b68da2231363050a326c1e8739a46f604"}, {"sequence": 4294967295, "scriptSig": {"hex": "483045022100eae6398809cf353889e57fabee7fd2087aa1c452925ef1fbaa6de5c57d9ead3802205ef71d5e49b3db4f6bf8bc5fc12e46406354368e1f9629e8ecd175f7cc71a73801210394b79225b066b21f230e76b54498bcdb575f54249228ea8dc7397b469750c6f7", "asm": "3045022100eae6398809cf353889e57fabee7fd2087aa1c452925ef1fbaa6de5c57d9ead3802205ef71d5e49b3db4f6bf8bc5fc12e46406354368e1f9629e8ecd175f7cc71a738[ALL] 0394b79225b066b21f230e76b54498bcdb575f54249228ea8dc7397b469750c6f7"}, "vout": 0, "txid": "4b9f79b0588ea32878a2c2507c2b1fe0c5578b2da671e25b4d89cbd797b6fe9e"}, {"sequence": 4294967295, "scriptSig": {"hex": "47304402204e73e3f2d4c1c56ea5cbeee99dc0f154c024631a1e94cce40c2f0a1339a74fcc022025f4408c5fd5691f8c32dcadc0b0a718924aa547db42964b1cbff00ce791e907012103e16d1c6bf46bd321edf1e7aa041eb2c82fc7272eb08acff0040b5909349f04bf", "asm": "304402204e73e3f2d4c1c56ea5cbeee99dc0f154c024631a1e94cce40c2f0a1339a74fcc022025f4408c5fd5691f8c32dcadc0b0a718924aa547db42964b1cbff00ce791e907[ALL] 03e16d1c6bf46bd321edf1e7aa041eb2c82fc7272eb08acff0040b5909349f04bf"}, "vout": 0, "txid": "8c8b4107dd36275edd78cc3ebc55e093fc49c2bd85c7b93322eb636d229ac167"}, {"sequence": 4294967295, "scriptSig": {"hex": "4830450221009c8ad4ca4e16a49ed6409ecf6cabc09229c6d14c8c3b6fc6baf0508d2ba0e75d02202eb6494c7a82945fc5145c0c07c927da5e533385f2e3bac7ff58395559be7e70012103232b8b2d38bffb4875a791bb03365f8f6576507ed39fd516abfd5376bc3629ee", "asm": "30450221009c8ad4ca4e16a49ed6409ecf6cabc09229c6d14c8c3b6fc6baf0508d2ba0e75d02202eb6494c7a82945fc5145c0c07c927da5e533385f2e3bac7ff58395559be7e70[ALL] 03232b8b2d38bffb4875a791bb03365f8f6576507ed39fd516abfd5376bc3629ee"}, "vout": 0, "txid": "c36ac6df8d8e3a49648a20e8da3890b524f28d76cd389640d8fe408e23660ab6"}], "txid": "c701f275c98e328412efce80b901e2b53a4f398541a369e81ad70b41c5fe2b1c", "blocktime": 1537873282, "version": 1, "confirmations": 11483, "time": 1537873282, "locktime": 0, "vsize": 667, "size": 667}