{"hash": "c704122103909709e254acb1c2570cc360b7ea9a7dd5de8dd1ab971bfd21899e", "blockhash": "0000000000000000000e13cef7c366c0283d82e591d1acd082e914b08063cdf1", "vout": [{"scriptPubKey": {"reqSigs": 1, "hex": "a9148cafdcbb12ed9b1ced79204d27600818a55fe16c87", "addresses": ["3EWuCXE3W8vHKGMvWYess3ZVZWZmsRyU2r"], "asm": "OP_HASH160 8cafdcbb12ed9b1ced79204d27600818a55fe16c OP_EQUAL", "type": "scripthash"}, "value": 0.00552827, "n": 0}, {"scriptPubKey": {"reqSigs": 1, "hex": "a914b88f425091d45ef391e938f76fd2ea64d6ac489d87", "addresses": ["3JWssequCT3iC4nSJvpVUbK525f4vR15Hr"], "asm": "OP_HASH160 b88f425091d45ef391e938f76fd2ea64d6ac489d OP_EQUAL", "type": "scripthash"}, "value": 0.00031973, "n": 1}], "hex": "0100000001fb4835e70e4620270c5c79499e7ae8deaa625e80f1bc978d852103a4a5f8f12900000000fdfd000047304402202e96f2c4dfa826003a7e8cf403bb20c9fdb06143c3d0dcc7cdf37885799341980220420165af6a89fd04d0df27516e7730e1ef4a51cdd568269c9d9bb9c9f7a0290701483045022100d94526860de27f715968432127278f5df18d1c342ddd392b06c84f8092b0494702201ad73382305113a69bbf0d9e666bfed341cd5591a4ea37c4876118456b33f4d0014c695221032584d6f2819a7063cf55bbc4bc96eba1bf59b698de26159068e017c125a9950621039462561e65a403542131115a314dbe007805994ab3d93aab9c5f4b8c0aa91e7c21025b3d9211ce7cc6a7ac709e87b9bcc75b52a9d7f717d8f7922d9ef7696e7e75ba53aeffffffff027b6f08000000000017a9148cafdcbb12ed9b1ced79204d27600818a55fe16c87e57c00000000000017a914b88f425091d45ef391e938f76fd2ea64d6ac489d8700000000", "vin": [{"sequence": 4294967295, "scriptSig": {"hex": "0047304402202e96f2c4dfa826003a7e8cf403bb20c9fdb06143c3d0dcc7cdf37885799341980220420165af6a89fd04d0df27516e7730e1ef4a51cdd568269c9d9bb9c9f7a0290701483045022100d94526860de27f715968432127278f5df18d1c342ddd392b06c84f8092b0494702201ad73382305113a69bbf0d9e666bfed341cd5591a4ea37c4876118456b33f4d0014c695221032584d6f2819a7063cf55bbc4bc96eba1bf59b698de26159068e017c125a9950621039462561e65a403542131115a314dbe007805994ab3d93aab9c5f4b8c0aa91e7c21025b3d9211ce7cc6a7ac709e87b9bcc75b52a9d7f717d8f7922d9ef7696e7e75ba53ae", "asm": "0 304402202e96f2c4dfa826003a7e8cf403bb20c9fdb06143c3d0dcc7cdf37885799341980220420165af6a89fd04d0df27516e7730e1ef4a51cdd568269c9d9bb9c9f7a02907[ALL] 3045022100d94526860de27f715968432127278f5df18d1c342ddd392b06c84f8092b0494702201ad73382305113a69bbf0d9e666bfed341cd5591a4ea37c4876118456b33f4d0[ALL] 5221032584d6f2819a7063cf55bbc4bc96eba1bf59b698de26159068e017c125a9950621039462561e65a403542131115a314dbe007805994ab3d93aab9c5f4b8c0aa91e7c21025b3d9211ce7cc6a7ac709e87b9bcc75b52a9d7f717d8f7922d9ef7696e7e75ba53ae"}, "vout": 0, "txid": "29f1f8a5a40321858d97bcf1805e62aadee87a9e49795c0c2720460ee73548fb"}], "txid": "c704122103909709e254acb1c2570cc360b7ea9a7dd5de8dd1ab971bfd21899e", "blocktime": 1537871767, "version": 1, "confirmations": 11491, "time": 1537871767, "locktime": 0, "vsize": 370, "size": 370}