{"hash": "c706b7e01a39c54428ec02742949786afe0d255bf9ebe8390fd1efcc0b807ad5", "blockhash": "0000000000000000001cda96e906b7601b7a6fb1a3b62bca570a9e5d8f4b3de1", "vout": [{"scriptPubKey": {"reqSigs": 1, "hex": "76a914f52b7bf30e4bb3605c08a556dfe2ae682a60d3e388ac", "addresses": ["1PMLeLG6Gk5eqHomUaL43dAKTWF4GzMaB5"], "asm": "OP_DUP OP_HASH160 f52b7bf30e4bb3605c08a556dfe2ae682a60d3e3 OP_EQUALVERIFY OP_CHECKSIG", "type": "pubkeyhash"}, "value": 0.01613071, "n": 0}, {"scriptPubKey": {"reqSigs": 1, "hex": "a91477864fcecf1493fa51add06a8a61d4638088cc8287", "addresses": ["3Cb1EWrUvTbeQp487R2nfb5Ekz8bAXdA4M"], "asm": "OP_HASH160 77864fcecf1493fa51add06a8a61d4638088cc82 OP_EQUAL", "type": "scripthash"}, "value": 0.17718775, "n": 1}, {"scriptPubKey": {"reqSigs": 1, "hex": "a914e58996d1374685ac39575fa1842623fca78a291d87", "addresses": ["3NchVLHLd2WGzbtUak3GXSAhdrbPY4kXYt"], "asm": "OP_HASH160 e58996d1374685ac39575fa1842623fca78a291d OP_EQUAL", "type": "scripthash"}, "value": 0.00748667, "n": 2}, {"scriptPubKey": {"reqSigs": 1, "hex": "76a9140e229ea5bd4449f8112869f8f84a0da6a43a149b88ac", "addresses": ["12Hjw78Zix3hCP9DYg6AoFCTDcfAfbk9zk"], "asm": "OP_DUP OP_HASH160 0e229ea5bd4449f8112869f8f84a0da6a43a149b OP_EQUALVERIFY OP_CHECKSIG", "type": "pubkeyhash"}, "value": 0.00995871, "n": 3}, {"scriptPubKey": {"reqSigs": 1, "hex": "a91413106df4eaf378c599d94dbb5d4261797816792087", "addresses": ["33RpSjNxiLFFGesxpv2oEkTm8xwJg2iawb"], "asm": "OP_HASH160 13106df4eaf378c599d94dbb5d42617978167920 OP_EQUAL", "type": "scripthash"}, "value": 0.00306558, "n": 4}, {"scriptPubKey": {"reqSigs": 1, "hex": "76a9142604858873b560c2813718ec153eff043b4e33c088ac", "addresses": ["14U26TVY6iVBXPD2KV4qHUuSpBSiQLCVxA"], "asm": "OP_DUP OP_HASH160 2604858873b560c2813718ec153eff043b4e33c0 OP_EQUALVERIFY OP_CHECKSIG", "type": "pubkeyhash"}, "value": 0.49996, "n": 5}, {"scriptPubKey": {"reqSigs": 1, "hex": "a914a14a8c07d3cc5c5a362b91c8e29500a843f1af1187", "addresses": ["3GPr23XiPh4xeGYMPqBE7hMTZNVQqyD9Qa"], "asm": "OP_HASH160 a14a8c07d3cc5c5a362b91c8e29500a843f1af11 OP_EQUAL", "type": "scripthash"}, "value": 0.00104756, "n": 6}, {"scriptPubKey": {"reqSigs": 1, "hex": "a91419585d0a2bcceba177f27870b31e3e4b4b53d7ff87", "addresses": ["3412fwQ5rjoDaffwQLopZs96wZy3fJB5a1"], "asm": "OP_HASH160 19585d0a2bcceba177f27870b31e3e4b4b53d7ff OP_EQUAL", "type": "scripthash"}, "value": 0.00264616, "n": 7}, {"scriptPubKey": {"reqSigs": 1, "hex": "a9141da8266dadbc9c601e159e5daaab21a65824133187", "addresses": ["34PpxP5CM5xhnzLGuMQ5DK6gp6EpNjkzTu"], "asm": "OP_HASH160 1da8266dadbc9c601e159e5daaab21a658241331 OP_EQUAL", "type": "scripthash"}, "value": 0.26536, "n": 8}, {"scriptPubKey": {"reqSigs": 1, "hex": "a9140206c1ca8aa9d2115e6671417b168f7eab33b29187", "addresses": ["31sjNQqVKN3Sn8ZmirxqXawEcEuSeMYk3c"], "asm": "OP_HASH160 0206c1ca8aa9d2115e6671417b168f7eab33b291 OP_EQUAL", "type": "scripthash"}, "value": 0.00364725, "n": 9}, {"scriptPubKey": {"reqSigs": 1, "hex": "a914237e262509b6b3a93366a02a1fb26914a65f4f5787", "addresses": ["34vghF7gn312Gd6t7Jc6cmr2KY8TN9bjHn"], "asm": "OP_HASH160 237e262509b6b3a93366a02a1fb26914a65f4f57 OP_EQUAL", "type": "scripthash"}, "value": 0.00867499, "n": 10}, {"scriptPubKey": {"reqSigs": 1, "hex": "a9147eaed77bc55b83a9d55b9133408c21589867a1f187", "addresses": ["3DErWvwsp4mA1Yb3f8fd9ogMfBVRUmW6GX"], "asm": "OP_HASH160 7eaed77bc55b83a9d55b9133408c21589867a1f1 OP_EQUAL", "type": "scripthash"}, "value": 0.01124175, "n": 11}, {"scriptPubKey": {"reqSigs": 1, "hex": "a91469f37728f50a51004dbeeb3d15d34fd3c8d6a23887", "addresses": ["3BMEXxpiM13vAYPaY8Xz1wn7ZA1EFVx64E"], "asm": "OP_HASH160 69f37728f50a51004dbeeb3d15d34fd3c8d6a238 OP_EQUAL", "type": "scripthash"}, "value": 0.00444057, "n": 12}, {"scriptPubKey": {"reqSigs": 1, "hex": "a914ce8027310eb92087b0f705ec2ad61638911df3a587", "addresses": ["3LWteHzWnbDUKqvJKwc3yStGyFU3Rw2nLk"], "asm": "OP_HASH160 ce8027310eb92087b0f705ec2ad61638911df3a5 OP_EQUAL", "type": "scripthash"}, "value": 0.00214986, "n": 13}, {"scriptPubKey": {"reqSigs": 1, "hex": "a91459db2c43074e0ab689527c1bf4aa78c33156b7cf87", "addresses": ["39t8d1uzio7K35U1jHZ6QcvA9gUKW1B8zE"], "asm": "OP_HASH160 59db2c43074e0ab689527c1bf4aa78c33156b7cf OP_EQUAL", "type": "scripthash"}, "value": 0.00318, "n": 14}, {"scriptPubKey": {"reqSigs": 1, "hex": "a914011b4221d66a71dd4ef148aecfd2ec33623ab83687", "addresses": ["31nsFgFGuPZbgwY2qmjrjmihtnGRBKkBE1"], "asm": "OP_HASH160 011b4221d66a71dd4ef148aecfd2ec33623ab836 OP_EQUAL", "type": "scripthash"}, "value": 0.00258921, "n": 15}, {"scriptPubKey": {"reqSigs": 1, "hex": "76a9147473ff4fe93e4b3a68201b284397165ead72191188ac", "addresses": ["1BckLtSf9wgD3NdpLDocDBTcRynn3VEuBT"], "asm": "OP_DUP OP_HASH160 7473ff4fe93e4b3a68201b284397165ead721911 OP_EQUALVERIFY OP_CHECKSIG", "type": "pubkeyhash"}, "value": 0.44412792, "n": 16}, {"scriptPubKey": {"reqSigs": 1, "hex": "a914700827ce439b65553c03d9b66a082141adbce3b087", "addresses": ["3BuPNgXEA9rYZWtWqk7zhZCCCJCs4ZcdZo"], "asm": "OP_HASH160 700827ce439b65553c03d9b66a082141adbce3b0 OP_EQUAL", "type": "scripthash"}, "value": 0.00782558, "n": 17}], "hex": "020000000473f5aad855ca3989e0ed673cb0d5c1a20d15b1d1488b6012262f65a7b2f3618b000000006b4830450221008edab7568176e10afafd0377f33554d1637596b89c4b2b585d9557a1b306270c022046708f1c6297dab678ac59725a814aeec43cec197e7c6e11fe3788fbf6e77891012102d2f3a7cf7c8caa2687dae8c959c891d486740fe15b2ab600658a6799c52d3296feffffff89745e15b8eb5fb9b1a651824aefc7ecd117195f15c981d4d089564bf9a47d7c040000006a473044022044abb383f11967d26a2c4ce91448eaa2e56045fce4282cf152ead1a69a300b2d022034a780a55d7e8b9d3199da7883f0a9ed70b932e7f3e54292a081da0f40a0383e012103f32aa928ee5bda36bf72d4b167aa54285c1d4f80e5a62b342afc7338f2211fbefeffffff923b17097d3f7155d17eccc91604c33b1a5aa9bc85980c86023b0cb732b055c0000000006b483045022100f6d654e613a42c3065213e34f06eeea5fbebb6f06947dc3dee992314af5ac81d022062fbf39fe7a114ccdf6e99fafe590c59931c2895310fb39ed41e74c50b7277b10121022eb7d4a7c8a5f7dc491250d96022bee8415aca3a0f55327655cef1693fbef97afeffffffa625c2c4ea67579c4e998a825c1b7ced3dece660515b75ad02e8f5b6370cd1f2010000006b483045022100c998b2c288abb59bc5574e33f1444f2fa00f22c90fd7bf956e354b57a76ce85602200185c230d9154b717026bfc95d0987df5b7620d5d43073e4c278f95b5973a1cc01210227f6f2f7ab11ff1981b69f0c17a6d2a7246237a6f9dad4a217d53b8163c21084feffffff120f9d1800000000001976a914f52b7bf30e4bb3605c08a556dfe2ae682a60d3e388acf75d0e010000000017a91477864fcecf1493fa51add06a8a61d4638088cc82877b6c0b000000000017a914e58996d1374685ac39575fa1842623fca78a291d871f320f00000000001976a9140e229ea5bd4449f8112869f8f84a0da6a43a149b88ac7ead04000000000017a91413106df4eaf378c599d94dbb5d4261797816792087e0e0fa02000000001976a9142604858873b560c2813718ec153eff043b4e33c088ac349901000000000017a914a14a8c07d3cc5c5a362b91c8e29500a843f1af1187a80904000000000017a91419585d0a2bcceba177f27870b31e3e4b4b53d7ff8740e894010000000017a9141da8266dadbc9c601e159e5daaab21a65824133187b59005000000000017a9140206c1ca8aa9d2115e6671417b168f7eab33b29187ab3c0d000000000017a914237e262509b6b3a93366a02a1fb26914a65f4f57874f2711000000000017a9147eaed77bc55b83a9d55b9133408c21589867a1f18799c606000000000017a91469f37728f50a51004dbeeb3d15d34fd3c8d6a23887ca4703000000000017a914ce8027310eb92087b0f705ec2ad61638911df3a58730da04000000000017a91459db2c43074e0ab689527c1bf4aa78c33156b7cf8769f303000000000017a914011b4221d66a71dd4ef148aecfd2ec33623ab8368778afa502000000001976a9147473ff4fe93e4b3a68201b284397165ead72191188acdef00b000000000017a914700827ce439b65553c03d9b66a082141adbce3b08713490800", "vin": [{"sequence": 4294967294, "scriptSig": {"hex": "4830450221008edab7568176e10afafd0377f33554d1637596b89c4b2b585d9557a1b306270c022046708f1c6297dab678ac59725a814aeec43cec197e7c6e11fe3788fbf6e77891012102d2f3a7cf7c8caa2687dae8c959c891d486740fe15b2ab600658a6799c52d3296", "asm": "30450221008edab7568176e10afafd0377f33554d1637596b89c4b2b585d9557a1b306270c022046708f1c6297dab678ac59725a814aeec43cec197e7c6e11fe3788fbf6e77891[ALL] 02d2f3a7cf7c8caa2687dae8c959c891d486740fe15b2ab600658a6799c52d3296"}, "vout": 0, "txid": "8b61f3b2a7652f2612608b48d1b1150da2c1d5b03c67ede08939ca55d8aaf573"}, {"sequence": 4294967294, "scriptSig": {"hex": "473044022044abb383f11967d26a2c4ce91448eaa2e56045fce4282cf152ead1a69a300b2d022034a780a55d7e8b9d3199da7883f0a9ed70b932e7f3e54292a081da0f40a0383e012103f32aa928ee5bda36bf72d4b167aa54285c1d4f80e5a62b342afc7338f2211fbe", "asm": "3044022044abb383f11967d26a2c4ce91448eaa2e56045fce4282cf152ead1a69a300b2d022034a780a55d7e8b9d3199da7883f0a9ed70b932e7f3e54292a081da0f40a0383e[ALL] 03f32aa928ee5bda36bf72d4b167aa54285c1d4f80e5a62b342afc7338f2211fbe"}, "vout": 4, "txid": "7c7da4f94b5689d0d481c9155f1917d1ecc7ef4a8251a6b1b95febb8155e7489"}, {"sequence": 4294967294, "scriptSig": {"hex": "483045022100f6d654e613a42c3065213e34f06eeea5fbebb6f06947dc3dee992314af5ac81d022062fbf39fe7a114ccdf6e99fafe590c59931c2895310fb39ed41e74c50b7277b10121022eb7d4a7c8a5f7dc491250d96022bee8415aca3a0f55327655cef1693fbef97a", "asm": "3045022100f6d654e613a42c3065213e34f06eeea5fbebb6f06947dc3dee992314af5ac81d022062fbf39fe7a114ccdf6e99fafe590c59931c2895310fb39ed41e74c50b7277b1[ALL] 022eb7d4a7c8a5f7dc491250d96022bee8415aca3a0f55327655cef1693fbef97a"}, "vout": 0, "txid": "c055b032b70c3b02860c9885bca95a1a3bc30416c9cc7ed155713f7d09173b92"}, {"sequence": 4294967294, "scriptSig": {"hex": "483045022100c998b2c288abb59bc5574e33f1444f2fa00f22c90fd7bf956e354b57a76ce85602200185c230d9154b717026bfc95d0987df5b7620d5d43073e4c278f95b5973a1cc01210227f6f2f7ab11ff1981b69f0c17a6d2a7246237a6f9dad4a217d53b8163c21084", "asm": "3045022100c998b2c288abb59bc5574e33f1444f2fa00f22c90fd7bf956e354b57a76ce85602200185c230d9154b717026bfc95d0987df5b7620d5d43073e4c278f95b5973a1cc[ALL] 0227f6f2f7ab11ff1981b69f0c17a6d2a7246237a6f9dad4a217d53b8163c21084"}, "vout": 1, "txid": "f2d10c37b6f5e802ad755b5160e6ec3ded7c1b5c828a994e9c5767eac4c225a6"}], "txid": "c706b7e01a39c54428ec02742949786afe0d255bf9ebe8390fd1efcc0b807ad5", "blocktime": 1537873282, "version": 2, "confirmations": 11484, "time": 1537873282, "locktime": 542995, "vsize": 1185, "size": 1185}