{"hash": "c70ab02206f122d15cf68ddf639d864892e3bcf1f68e9a8d9062ffe7a7942522", "blockhash": "00000000000000000017f5eb5941039fbcee6240d03bc1f2f8e35350df66a1d8", "vout": [{"scriptPubKey": {"reqSigs": 1, "hex": "a9149779dcd1cc9352d081928784761b2afdcf34f3d287", "addresses": ["3FVwwfqS6YF6rZ9MVUJ8iGfLK4TtE64Zot"], "asm": "OP_HASH160 9779dcd1cc9352d081928784761b2afdcf34f3d2 OP_EQUAL", "type": "scripthash"}, "value": 0.9525, "n": 0}, {"scriptPubKey": {"reqSigs": 1, "hex": "76a914d5e133798ca1edb00edbfbe2c983a14ef04b38a488ac", "addresses": ["1LVti75UFpjMRwE17WWD7DsWrQBzMcFDi3"], "asm": "OP_DUP OP_HASH160 d5e133798ca1edb00edbfbe2c983a14ef04b38a4 OP_EQUALVERIFY OP_CHECKSIG", "type": "pubkeyhash"}, "value": 0.15747008, "n": 1}], "hex": "01000000022ab62e20a0114a66df3f96cfc4c2090db8709f0ecde460ba2244add6d6314a58000000006b483045022100a4c5db231461a5ed1646637188afe9d06a1970d57546e1797e0f898f53502df10220560a75600a26cebe7ad9352c6efe62c0f1fe38203244a212cf3a97ecd1ed058001210222b26e9f8c55a8ede0149b60a96c852fdd561b08a26c9ec7190466c6c3ee4991fffffffff323d0e3e7cbd8b7beae56449e9a64de36e987a66b9d9e7c9c685f2a2ab60740000000006b48304502210084ec7e9cbd6cc52de2a65bdfac3bc7f9ac9860d4e9be184930357f0f98dc42fd022009c408bd4cb632703c3502fd2011af2f42630f6c124c8a50e764b00b3f9d61c0012103017a2a72e6435b9bec83c31c53e69dc7e3ec87c8b3653a799b5db8bcc8aad472ffffffff025066ad050000000017a9149779dcd1cc9352d081928784761b2afdcf34f3d287c047f000000000001976a914d5e133798ca1edb00edbfbe2c983a14ef04b38a488ac00000000", "vin": [{"sequence": 4294967295, "scriptSig": {"hex": "483045022100a4c5db231461a5ed1646637188afe9d06a1970d57546e1797e0f898f53502df10220560a75600a26cebe7ad9352c6efe62c0f1fe38203244a212cf3a97ecd1ed058001210222b26e9f8c55a8ede0149b60a96c852fdd561b08a26c9ec7190466c6c3ee4991", "asm": "3045022100a4c5db231461a5ed1646637188afe9d06a1970d57546e1797e0f898f53502df10220560a75600a26cebe7ad9352c6efe62c0f1fe38203244a212cf3a97ecd1ed0580[ALL] 0222b26e9f8c55a8ede0149b60a96c852fdd561b08a26c9ec7190466c6c3ee4991"}, "vout": 0, "txid": "584a31d6d6ad4422ba60e4cd0e9f70b80d09c2c4cf963fdf664a11a0202eb62a"}, {"sequence": 4294967295, "scriptSig": {"hex": "48304502210084ec7e9cbd6cc52de2a65bdfac3bc7f9ac9860d4e9be184930357f0f98dc42fd022009c408bd4cb632703c3502fd2011af2f42630f6c124c8a50e764b00b3f9d61c0012103017a2a72e6435b9bec83c31c53e69dc7e3ec87c8b3653a799b5db8bcc8aad472", "asm": "304502210084ec7e9cbd6cc52de2a65bdfac3bc7f9ac9860d4e9be184930357f0f98dc42fd022009c408bd4cb632703c3502fd2011af2f42630f6c124c8a50e764b00b3f9d61c0[ALL] 03017a2a72e6435b9bec83c31c53e69dc7e3ec87c8b3653a799b5db8bcc8aad472"}, "vout": 0, "txid": "4007b62a2a5f689c7c9e9d6ba687e936de649a9e4456aebeb7d8cbe7e3d023f3"}], "txid": "c70ab02206f122d15cf68ddf639d864892e3bcf1f68e9a8d9062ffe7a7942522", "blocktime": 1537874412, "version": 1, "confirmations": 11467, "time": 1537874412, "locktime": 0, "vsize": 372, "size": 372}