{"hash": "c70c63dbb1d8d7209fa4f1ba41f8a3c847d7d6811ced33bb33e74cf87eb43d6d", "blockhash": "0000000000000000000dcc0f55137456b1a82d3642486a52398922ac4d620174", "vout": [{"scriptPubKey": {"reqSigs": 1, "hex": "a9148d27d02bbf4d62e7741c3688a974becd3b5c658f87", "addresses": ["3EZNtrnfaY2Ebn21khQx7ju3zqJj8h16KB"], "asm": "OP_HASH160 8d27d02bbf4d62e7741c3688a974becd3b5c658f OP_EQUAL", "type": "scripthash"}, "value": 1.8003065, "n": 0}, {"scriptPubKey": {"reqSigs": 1, "hex": "76a9144a0f1e2f2b0d7daeec5265f10bbbbe08ed725e8988ac", "addresses": ["17kb7c9ndg7ioSuzMWEHWECdEVUegNkcGc"], "asm": "OP_DUP OP_HASH160 4a0f1e2f2b0d7daeec5265f10bbbbe08ed725e89 OP_EQUALVERIFY OP_CHECKSIG", "type": "pubkeyhash"}, "value": 17.78591987, "n": 1}], "hex": "0100000001fa7f2f83121fc3880afead61b28bacb1002290bb53ba515a74e0e57dd033ae1d010000006b483045022100823babc548bb3f4f1b5174fbd958e798979724c7064960e2316efb06d55ec36002201d2a6275ab261e910a26e2ac43ce2520b4c28cb1b82c0cd54ad6abc6b8488a3801210363e1776495149c5a4e92acf453a3caa19000fc804e4ba2024b600ba25e09c943ffffffff02ba0cbb0a0000000017a9148d27d02bbf4d62e7741c3688a974becd3b5c658f87f328036a000000001976a9144a0f1e2f2b0d7daeec5265f10bbbbe08ed725e8988ac00000000", "vin": [{"sequence": 4294967295, "scriptSig": {"hex": "483045022100823babc548bb3f4f1b5174fbd958e798979724c7064960e2316efb06d55ec36002201d2a6275ab261e910a26e2ac43ce2520b4c28cb1b82c0cd54ad6abc6b8488a3801210363e1776495149c5a4e92acf453a3caa19000fc804e4ba2024b600ba25e09c943", "asm": "3045022100823babc548bb3f4f1b5174fbd958e798979724c7064960e2316efb06d55ec36002201d2a6275ab261e910a26e2ac43ce2520b4c28cb1b82c0cd54ad6abc6b8488a38[ALL] 0363e1776495149c5a4e92acf453a3caa19000fc804e4ba2024b600ba25e09c943"}, "vout": 1, "txid": "1dae33d07de5e0745a51ba53bb902200b1ac8bb261adfe0a88c31f12832f7ffa"}], "txid": "c70c63dbb1d8d7209fa4f1ba41f8a3c847d7d6811ced33bb33e74cf87eb43d6d", "blocktime": 1537870268, "version": 1, "confirmations": 11516, "time": 1537870268, "locktime": 0, "vsize": 224, "size": 224}