{"hash": "c71425835e850bfea15b125832fdbcbc7cd7af45e79eef11f8b716fe29d00a3b", "blockhash": "0000000000000000000baef3f32e3676a92c3b2e5da21b426e4f302fc371ce76", "vout": [{"scriptPubKey": {"reqSigs": 1, "hex": "76a91499d84c62f3e482eba35c580d5b4e40645079b4e888ac", "addresses": ["1F2TW2U8mExBVRzMAQBeWj9reS5FxT39Cz"], "asm": "OP_DUP OP_HASH160 99d84c62f3e482eba35c580d5b4e40645079b4e8 OP_EQUALVERIFY OP_CHECKSIG", "type": "pubkeyhash"}, "value": 2.18930114, "n": 0}, {"scriptPubKey": {"reqSigs": 1, "hex": "76a914a4125bf55fc85ddc7c68eccae72baaed4924eca688ac", "addresses": ["1FxXp5gM41equ1g3dGH3TnjYLU9qAwXAUv"], "asm": "OP_DUP OP_HASH160 a4125bf55fc85ddc7c68eccae72baaed4924eca6 OP_EQUALVERIFY OP_CHECKSIG", "type": "pubkeyhash"}, "value": 0.18031356, "n": 1}], "hex": "010000000184c89b472e1af5ced514d33ac86ba2a144891c087d0770b918e69b7161ef840f000000006a473044022044730f4ea25c6ebe26975db3da5adba598ced14651e796371c449d000b7b0ef702204065f6d14da8203d03b528d3e1435463bbd20b7661dfcccef06bc4d17a25cf4c0121030f08282803f565632e10460f06e1433dde5fd32a116ce6668ce7f411650ad3aaffffffff02c29b0c0d000000001976a91499d84c62f3e482eba35c580d5b4e40645079b4e888acfc221301000000001976a914a4125bf55fc85ddc7c68eccae72baaed4924eca688ac00000000", "vin": [{"sequence": 4294967295, "scriptSig": {"hex": "473044022044730f4ea25c6ebe26975db3da5adba598ced14651e796371c449d000b7b0ef702204065f6d14da8203d03b528d3e1435463bbd20b7661dfcccef06bc4d17a25cf4c0121030f08282803f565632e10460f06e1433dde5fd32a116ce6668ce7f411650ad3aa", "asm": "3044022044730f4ea25c6ebe26975db3da5adba598ced14651e796371c449d000b7b0ef702204065f6d14da8203d03b528d3e1435463bbd20b7661dfcccef06bc4d17a25cf4c[ALL] 030f08282803f565632e10460f06e1433dde5fd32a116ce6668ce7f411650ad3aa"}, "vout": 0, "txid": "0f84ef61719be618b970077d081c8944a1a26bc83ad314d5cef51a2e479bc884"}], "txid": "c71425835e850bfea15b125832fdbcbc7cd7af45e79eef11f8b716fe29d00a3b", "blocktime": 1537876114, "version": 1, "confirmations": 11460, "time": 1537876114, "locktime": 0, "vsize": 225, "size": 225}