{"hash": "c7234b2285252ffff43410b90df8d883dd2926f2fb23ee90615c21b00f673504", "blockhash": "0000000000000000001f76057863aec43deb6fa401d9628bb513d65a8098bfab", "vout": [{"scriptPubKey": {"reqSigs": 1, "hex": "76a914a9b1569b28173dc2711b3645257980a3c96e6da388ac", "addresses": ["1GUFe6r3ZnMQJusFYVqYeGip9gwWoU3N2W"], "asm": "OP_DUP OP_HASH160 a9b1569b28173dc2711b3645257980a3c96e6da3 OP_EQUALVERIFY OP_CHECKSIG", "type": "pubkeyhash"}, "value": 0.04052382, "n": 0}, {"scriptPubKey": {"reqSigs": 1, "hex": "76a91472417314327754835dc4817b36793083c7be400988ac", "addresses": ["1BR8SP8ScL4gqVj2uh2AM59vrnN3bY1dQB"], "asm": "OP_DUP OP_HASH160 72417314327754835dc4817b36793083c7be4009 OP_EQUALVERIFY OP_CHECKSIG", "type": "pubkeyhash"}, "value": 16.91384299, "n": 1}], "hex": "0200000001d357ef8f5178d3a5d3acd0dd114fc9d27d7de801827d1f14de0df35fa19335c3010000006b48304502210089983714d87cab3b2801b522ac3a6d6983a9b3388dfb6ff682afebb82b3b645602202a43c405c84787fa90daeb1a4165e6bb4fecfd7594b8fdb51eaf0954dd12db000121037a4144ef602e98759dfcd965d6586c86baee06549f0d692248641f62d6e4a659ffffffff029ed53d00000000001976a914a9b1569b28173dc2711b3645257980a3c96e6da388aceb79d064000000001976a91472417314327754835dc4817b36793083c7be400988ac00000000", "vin": [{"sequence": 4294967295, "scriptSig": {"hex": "48304502210089983714d87cab3b2801b522ac3a6d6983a9b3388dfb6ff682afebb82b3b645602202a43c405c84787fa90daeb1a4165e6bb4fecfd7594b8fdb51eaf0954dd12db000121037a4144ef602e98759dfcd965d6586c86baee06549f0d692248641f62d6e4a659", "asm": "304502210089983714d87cab3b2801b522ac3a6d6983a9b3388dfb6ff682afebb82b3b645602202a43c405c84787fa90daeb1a4165e6bb4fecfd7594b8fdb51eaf0954dd12db00[ALL] 037a4144ef602e98759dfcd965d6586c86baee06549f0d692248641f62d6e4a659"}, "vout": 1, "txid": "c33593a15ff30dde141f7d8201e87d7dd2c94f11ddd0acd3a5d378518fef57d3"}], "txid": "c7234b2285252ffff43410b90df8d883dd2926f2fb23ee90615c21b00f673504", "blocktime": 1537873891, "version": 2, "confirmations": 11474, "time": 1537873891, "locktime": 0, "vsize": 226, "size": 226}