{"hash": "c7300cc587b147f406bffa09725ec8a3df3f733f594e8a9c1b72b1ed56496169", "blockhash": "0000000000000000001f76057863aec43deb6fa401d9628bb513d65a8098bfab", "vout": [{"scriptPubKey": {"reqSigs": 1, "hex": "a91423c82d6cd6ea83dac09a2ae05913bac34a0ff40687", "addresses": ["34xDNq7TdTfcWVnHvQi1aukcFyjL6GBLbN"], "asm": "OP_HASH160 23c82d6cd6ea83dac09a2ae05913bac34a0ff406 OP_EQUAL", "type": "scripthash"}, "value": 0.01171919, "n": 0}, {"scriptPubKey": {"reqSigs": 1, "hex": "76a91457cd42ad5bd375eddf9645c89051bff6dda7f1f588ac", "addresses": ["191FgSHHbHD3yRt92GF1vLtCj6tQKSaf6p"], "asm": "OP_DUP OP_HASH160 57cd42ad5bd375eddf9645c89051bff6dda7f1f5 OP_EQUALVERIFY OP_CHECKSIG", "type": "pubkeyhash"}, "value": 0.01826213, "n": 1}], "hex": "0100000001c65c69332c7c39fa6788b02e409c6d82dc18512b026b5f327a8f69721f96d583090000006a47304402203e3f0fa12cb7250f464cdacbd689e004f48480b27ea4b62b7b2424edbbfd461a02205ecd944d5c6ecf185ca49920adbc3456eb399cdcd22e75aae130a1a43c40a793012103202d08403e9dfd8e64c0e3234c876af1725eac3b2d65090d04f52c3813723c4fffffffff02cfe111000000000017a91423c82d6cd6ea83dac09a2ae05913bac34a0ff40687a5dd1b00000000001976a91457cd42ad5bd375eddf9645c89051bff6dda7f1f588ac00000000", "vin": [{"sequence": 4294967295, "scriptSig": {"hex": "47304402203e3f0fa12cb7250f464cdacbd689e004f48480b27ea4b62b7b2424edbbfd461a02205ecd944d5c6ecf185ca49920adbc3456eb399cdcd22e75aae130a1a43c40a793012103202d08403e9dfd8e64c0e3234c876af1725eac3b2d65090d04f52c3813723c4f", "asm": "304402203e3f0fa12cb7250f464cdacbd689e004f48480b27ea4b62b7b2424edbbfd461a02205ecd944d5c6ecf185ca49920adbc3456eb399cdcd22e75aae130a1a43c40a793[ALL] 03202d08403e9dfd8e64c0e3234c876af1725eac3b2d65090d04f52c3813723c4f"}, "vout": 9, "txid": "83d5961f72698f7a325f6b022b5118dc826d9c402eb08867fa397c2c33695cc6"}], "txid": "c7300cc587b147f406bffa09725ec8a3df3f733f594e8a9c1b72b1ed56496169", "blocktime": 1537873891, "version": 1, "confirmations": 11478, "time": 1537873891, "locktime": 0, "vsize": 223, "size": 223}