{"hash": "b3c49e9641b948d8fdc0077bb85e1bd13b3ec94417e622760060cbf934ccef6e", "blockhash": "00000000000000000004ffacab907a6b429b9a5745fa0b75af4234bf69dd7176", "vout": [{"scriptPubKey": {"reqSigs": 1, "hex": "76a91495449a28f650f84ca5f63f31b6f8935dc855121888ac", "addresses": ["1EcFs9V77h7pNbTUeNkYPNbyc9Zk67dqVG"], "asm": "OP_DUP OP_HASH160 95449a28f650f84ca5f63f31b6f8935dc8551218 OP_EQUALVERIFY OP_CHECKSIG", "type": "pubkeyhash"}, "value": 0.00308911, "n": 0}, {"scriptPubKey": {"reqSigs": 1, "hex": "a9141988a27e3c2df4ddee7fad5a2303d086179b2a3087", "addresses": ["3422VtS7UtCvXYxoXMVp6eZupR252z85oC"], "asm": "OP_HASH160 1988a27e3c2df4ddee7fad5a2303d086179b2a30 OP_EQUAL", "type": "scripthash"}, "value": 2.05220904, "n": 1}], "hex": "010000000001016a5b0b4bbe9bb986eef8086c06a77255c9b43c982757ec5eb291a21e50aabfab01000000232200202035e78a6b34d583ad0a874b80ee41a0507b92cf0b671656108f594c7f75ca90ffffffff02afb60400000000001976a91495449a28f650f84ca5f63f31b6f8935dc855121888ac286c3b0c0000000017a9141988a27e3c2df4ddee7fad5a2303d086179b2a3087040047304402204241c1d4f7983b141c4995ccbbcfa8dc93ed4c1ad22ea41bf78913ea7e8e75850220415912b15c81cf6db5472d46bdeb509d49c5bb0907174750e5b534a9aa0cb20b0147304402201d4f4fd2e5ed060e9dab09aa78aa2f80de5177656dd787a55d8aaabb76b7a988022079f066b367c689ba5963ad451e0ec53281de03160d210abb6127ae66df0e82f501695221029103d1dfbbee9ea5249ee0b03ca59e08291ce34a7467513edf8ea767b5aa26382103dce07bea5905a1c3e70f86c1f74f0e98e7cf3b6f5d02226a4c531c9e930c613b210268d8878afaf4b55118519d8520fe0db27f9596a812d4378f4bf4a96a5333694653ae00000000", "vin": [{"txinwitness": ["", "304402204241c1d4f7983b141c4995ccbbcfa8dc93ed4c1ad22ea41bf78913ea7e8e75850220415912b15c81cf6db5472d46bdeb509d49c5bb0907174750e5b534a9aa0cb20b01", "304402201d4f4fd2e5ed060e9dab09aa78aa2f80de5177656dd787a55d8aaabb76b7a988022079f066b367c689ba5963ad451e0ec53281de03160d210abb6127ae66df0e82f501", "5221029103d1dfbbee9ea5249ee0b03ca59e08291ce34a7467513edf8ea767b5aa26382103dce07bea5905a1c3e70f86c1f74f0e98e7cf3b6f5d02226a4c531c9e930c613b210268d8878afaf4b55118519d8520fe0db27f9596a812d4378f4bf4a96a5333694653ae"], "sequence": 4294967295, "scriptSig": {"hex": "2200202035e78a6b34d583ad0a874b80ee41a0507b92cf0b671656108f594c7f75ca90", "asm": "00202035e78a6b34d583ad0a874b80ee41a0507b92cf0b671656108f594c7f75ca90"}, "vout": 1, "txid": "abbfaa501ea291b25eec5727983cb4c95572a7066c08f8ee86b99bbe4b0b5b6a"}], "txid": "c7427ffb1e0e00808d1724a7dc1f2c234318d5a991f418596ae6c6fc28d3abf9", "blocktime": 1537875543, "version": 1, "confirmations": 11464, "time": 1537875543, "locktime": 0, "vsize": 216, "size": 406}