{"hash": "c74a1f4908d97989693dfeb7d87d3d27a3e3895c9105a43a3c07ec49a083d69e", "blockhash": "00000000000000000004ffacab907a6b429b9a5745fa0b75af4234bf69dd7176", "vout": [{"scriptPubKey": {"reqSigs": 1, "hex": "76a914a25dec4d0011064ef106a983c39c7a540699f22088ac", "addresses": ["1FoWyxwPXuj4C6abqwhjDWdz6D4PZgYRjA"], "asm": "OP_DUP OP_HASH160 a25dec4d0011064ef106a983c39c7a540699f220 OP_EQUALVERIFY OP_CHECKSIG", "type": "pubkeyhash"}, "value": 0.01961536, "n": 0}, {"scriptPubKey": {"type": "nulldata", "hex": "6a146f6d6e69000000000000001f000000151284b440", "asm": "OP_RETURN 6f6d6e69000000000000001f000000151284b440"}, "value": 0.0, "n": 1}, {"scriptPubKey": {"reqSigs": 1, "hex": "76a914dcfad965b295de865456d92a8d99f45ce1ff7cd288ac", "addresses": ["1M9SAWekgfXVoq5hSiPJuGZvfmmgQGQEBB"], "asm": "OP_DUP OP_HASH160 dcfad965b295de865456d92a8d99f45ce1ff7cd2 OP_EQUALVERIFY OP_CHECKSIG", "type": "pubkeyhash"}, "value": 5.46e-06, "n": 2}], "hex": "01000000015cc68a298428c8446e42bcc3995ca6a944102685901aca8e02ff4816aad2cbf4010000006a47304402204fc305a31fabe6c1e9a229c4ab02395adcd980c9c1121fbaf6fa8f6e42dab95c022079244517b5ccc9a3bbb85b2b0dcf9e8a5b12c82f7bbb8c48e592f24ccad4bcb2012103da5bac7b36d5aa38f531c6b9601e21bb598a4b6716ebed38b009a55dabde9440feffffff0340ee1d00000000001976a914a25dec4d0011064ef106a983c39c7a540699f22088ac0000000000000000166a146f6d6e69000000000000001f000000151284b44022020000000000001976a914dcfad965b295de865456d92a8d99f45ce1ff7cd288ac16490800", "vin": [{"sequence": 4294967294, "scriptSig": {"hex": "47304402204fc305a31fabe6c1e9a229c4ab02395adcd980c9c1121fbaf6fa8f6e42dab95c022079244517b5ccc9a3bbb85b2b0dcf9e8a5b12c82f7bbb8c48e592f24ccad4bcb2012103da5bac7b36d5aa38f531c6b9601e21bb598a4b6716ebed38b009a55dabde9440", "asm": "304402204fc305a31fabe6c1e9a229c4ab02395adcd980c9c1121fbaf6fa8f6e42dab95c022079244517b5ccc9a3bbb85b2b0dcf9e8a5b12c82f7bbb8c48e592f24ccad4bcb2[ALL] 03da5bac7b36d5aa38f531c6b9601e21bb598a4b6716ebed38b009a55dabde9440"}, "vout": 1, "txid": "f4cbd2aa1648ff028eca1a9085261044a9a65c99c3bc426e44c82884298ac65c"}], "txid": "c74a1f4908d97989693dfeb7d87d3d27a3e3895c9105a43a3c07ec49a083d69e", "blocktime": 1537875543, "version": 1, "confirmations": 11464, "time": 1537875543, "locktime": 542998, "vsize": 256, "size": 256}