{"hash": "d3d4ee156eaf9cf92e586661ea1e106c8b1dbebc98a72673dfae74f06d51560c", "blockhash": "0000000000000000000e13cef7c366c0283d82e591d1acd082e914b08063cdf1", "vout": [{"scriptPubKey": {"reqSigs": 1, "hex": "a914e98b2056867cf5377b08cd3b770e2db5948ff3a487", "addresses": ["3Nyt2uXXPm6QmiAmbTcfTev6SHi7GmrWM8"], "asm": "OP_HASH160 e98b2056867cf5377b08cd3b770e2db5948ff3a4 OP_EQUAL", "type": "scripthash"}, "value": 0.00999493, "n": 0}, {"scriptPubKey": {"reqSigs": 1, "hex": "76a914a8d14ccf350599411331bfc3c7a17d02dc078df988ac", "addresses": ["1GPdFeeGJHdEZWYKu2yStedN2EGhNbmSXs"], "asm": "OP_DUP OP_HASH160 a8d14ccf350599411331bfc3c7a17d02dc078df9 OP_EQUALVERIFY OP_CHECKSIG", "type": "pubkeyhash"}, "value": 0.0052356, "n": 1}], "hex": "0200000000010224cf736d3b40d9fd0f761e7ef5c89198b53974e7e1ed251148552d4728854e910000000017160014b34dca877bbdfa2e3b1bee69e918dec5538500e8feffffff603188c5cf79735a6c6e75bb7732146de73bb4f42f9f4a9218d6f89bcfd69e3d00000000171600142f645078277f11185001bcf9f6216d87f45f69e1feffffff0245400f000000000017a914e98b2056867cf5377b08cd3b770e2db5948ff3a48728fd0700000000001976a914a8d14ccf350599411331bfc3c7a17d02dc078df988ac0247304402201fda559ddca2c52b0d7b2fd8278cfa3c7b14efa3d33ee1cf1e82aad93e60dc4b022054f08f735ce66bf01e4318ec928918e93d484f990a794657d7bfe7d187c7ac400121034abcfad23e252ddc636c732c9920a3c5f510dd767c4a022c2a0c5bd6d6b461bf02483045022100d7578aa3c03f2ee56d1b97b65c85149125242355dc3d3d77835d2eb4ae0d0d910220740260c8aab822ed1816073ecbeeb9a47c0f080fcea9d111e17a2f7a2d36c5f50121033720ce72ce0ef95184170938dae13e3c772060b51b56f6ccb81fd18223312c010f490800", "vin": [{"txinwitness": ["304402201fda559ddca2c52b0d7b2fd8278cfa3c7b14efa3d33ee1cf1e82aad93e60dc4b022054f08f735ce66bf01e4318ec928918e93d484f990a794657d7bfe7d187c7ac4001", "034abcfad23e252ddc636c732c9920a3c5f510dd767c4a022c2a0c5bd6d6b461bf"], "sequence": 4294967294, "scriptSig": {"hex": "160014b34dca877bbdfa2e3b1bee69e918dec5538500e8", "asm": "0014b34dca877bbdfa2e3b1bee69e918dec5538500e8"}, "vout": 0, "txid": "914e8528472d55481125ede1e77439b59891c8f57e1e760ffdd9403b6d73cf24"}, {"txinwitness": ["3045022100d7578aa3c03f2ee56d1b97b65c85149125242355dc3d3d77835d2eb4ae0d0d910220740260c8aab822ed1816073ecbeeb9a47c0f080fcea9d111e17a2f7a2d36c5f501", "033720ce72ce0ef95184170938dae13e3c772060b51b56f6ccb81fd18223312c01"], "sequence": 4294967294, "scriptSig": {"hex": "1600142f645078277f11185001bcf9f6216d87f45f69e1", "asm": "00142f645078277f11185001bcf9f6216d87f45f69e1"}, "vout": 0, "txid": "3d9ed6cf9bf8d618924a9f2ff4b43be76d143277bb756e6c5a7379cfc5883160"}], "txid": "c74ff0b8bfe6add2a0a656f59100f398572f663ccdc882c9f8fda91d259879d5", "blocktime": 1537871767, "version": 2, "confirmations": 11495, "time": 1537871767, "locktime": 542991, "vsize": 259, "size": 421}