{"hash": "c7531921f0001f4efa9cdeb626dc850eab335b590d80d0559e37089a42706599", "blockhash": "00000000000000000004ffacab907a6b429b9a5745fa0b75af4234bf69dd7176", "vout": [{"scriptPubKey": {"reqSigs": 1, "hex": "76a9144dad225ca82ae27a638539d5c72827739a43b80f88ac", "addresses": ["185iSMBGfX7tkYukpkaCLGysrksrJNUsPK"], "asm": "OP_DUP OP_HASH160 4dad225ca82ae27a638539d5c72827739a43b80f OP_EQUALVERIFY OP_CHECKSIG", "type": "pubkeyhash"}, "value": 1.85, "n": 0}, {"scriptPubKey": {"reqSigs": 1, "hex": "76a9148a1f95508d0c29c013a73ac7fc0a75ac69a28d3488ac", "addresses": ["1DbL5v8RP3u6QBkKS44NFRoR6mbctowx5h"], "asm": "OP_DUP OP_HASH160 8a1f95508d0c29c013a73ac7fc0a75ac69a28d34 OP_EQUALVERIFY OP_CHECKSIG", "type": "pubkeyhash"}, "value": 0.4834, "n": 1}], "hex": "0100000002f183745137bea8308973a0436b1634835b5a1548c770aacb4d2edb0e977209b9010000006a473044022077ece2ee284b84631b2a19cd32e383152b58440a3624533e283f2ef92d08c3c602202ec12e13f73c0617b69b78cc09ba7cafd48aa9ba8a26cc8019551198d7bf707f01210390fa89ac8b83c85dc31a42bda71b2387297da25ecdd8b500ac9f800d5ee94e94ffffffffea49f200419c8a8d862c46a3cac3d02865f1554ed7509c86f0b9b7330994c1a9000000006b483045022100f1e207ccb624a9d40d6d63ad9d9382fbad40bea952095c3df97ab7c3686c79ab0220097a6f54b517e625291369d2c169cb22536eaf757be7b97f653c4f981fb7d81f0121032326145e3fc07b35f43c4b1ae1b10b507a1858f4b11133c0fe76f28fdf0d0d27ffffffff0240e0060b000000001976a9144dad225ca82ae27a638539d5c72827739a43b80f88ac209ce102000000001976a9148a1f95508d0c29c013a73ac7fc0a75ac69a28d3488ac00000000", "vin": [{"sequence": 4294967295, "scriptSig": {"hex": "473044022077ece2ee284b84631b2a19cd32e383152b58440a3624533e283f2ef92d08c3c602202ec12e13f73c0617b69b78cc09ba7cafd48aa9ba8a26cc8019551198d7bf707f01210390fa89ac8b83c85dc31a42bda71b2387297da25ecdd8b500ac9f800d5ee94e94", "asm": "3044022077ece2ee284b84631b2a19cd32e383152b58440a3624533e283f2ef92d08c3c602202ec12e13f73c0617b69b78cc09ba7cafd48aa9ba8a26cc8019551198d7bf707f[ALL] 0390fa89ac8b83c85dc31a42bda71b2387297da25ecdd8b500ac9f800d5ee94e94"}, "vout": 1, "txid": "b90972970edb2e4dcbaa70c748155a5b8334166b43a0738930a8be37517483f1"}, {"sequence": 4294967295, "scriptSig": {"hex": "483045022100f1e207ccb624a9d40d6d63ad9d9382fbad40bea952095c3df97ab7c3686c79ab0220097a6f54b517e625291369d2c169cb22536eaf757be7b97f653c4f981fb7d81f0121032326145e3fc07b35f43c4b1ae1b10b507a1858f4b11133c0fe76f28fdf0d0d27", "asm": "3045022100f1e207ccb624a9d40d6d63ad9d9382fbad40bea952095c3df97ab7c3686c79ab0220097a6f54b517e625291369d2c169cb22536eaf757be7b97f653c4f981fb7d81f[ALL] 032326145e3fc07b35f43c4b1ae1b10b507a1858f4b11133c0fe76f28fdf0d0d27"}, "vout": 0, "txid": "a9c1940933b7b9f0869c50d74e55f16528d0c3caa3462c868d8a9c4100f249ea"}], "txid": "c7531921f0001f4efa9cdeb626dc850eab335b590d80d0559e37089a42706599", "blocktime": 1537875543, "version": 1, "confirmations": 11464, "time": 1537875543, "locktime": 0, "vsize": 373, "size": 373}