{"hash": "e46015f2cbb6b14dfe7adff03e2663fc1a857cce1886e01476f9cfa7b9129c16", "blockhash": "00000000000000000017f5eb5941039fbcee6240d03bc1f2f8e35350df66a1d8", "vout": [{"scriptPubKey": {"reqSigs": 1, "hex": "a914b8de1e70e7061a54bd1546a9f4a7c81ee52a355487", "addresses": ["3JYWLw4rLCMyrXDNDqfjSEeszJ8DyUCvrp"], "asm": "OP_HASH160 b8de1e70e7061a54bd1546a9f4a7c81ee52a3554 OP_EQUAL", "type": "scripthash"}, "value": 0.00253099, "n": 0}, {"scriptPubKey": {"reqSigs": 1, "hex": "a91461d3fcb3440071e0007e5942415405a10da9cfd487", "addresses": ["3AcHRGqq3cMjXapH26LVH7dwnwPHgEXQdu"], "asm": "OP_HASH160 61d3fcb3440071e0007e5942415405a10da9cfd4 OP_EQUAL", "type": "scripthash"}, "value": 13.84362231, "n": 1}, {"scriptPubKey": {"reqSigs": 1, "hex": "a91419a6ab719f9a175c97b2b1c61b7a836da1781ff987", "addresses": ["342eUkeuGzXW5hXKJL8o6v5v37uV3p3Y34"], "asm": "OP_HASH160 19a6ab719f9a175c97b2b1c61b7a836da1781ff9 OP_EQUAL", "type": "scripthash"}, "value": 1.58418782, "n": 2}, {"scriptPubKey": {"reqSigs": 1, "hex": "a914db2c9951ccb02a887eb034d7ecee9dd0d070b95f87", "addresses": ["3MfuLLimfFoByDoKRUWX1xBw8kfncRsEcN"], "asm": "OP_HASH160 db2c9951ccb02a887eb034d7ecee9dd0d070b95f OP_EQUAL", "type": "scripthash"}, "value": 0.3168232, "n": 3}], "hex": "01000000000101e9ebc6d32924b5106459e7cc41b0d7fc35d200e345bf15f3f6c78dc0300393c50200000023220020cd0e9706e32cbffa8dbbf31d2301d8b4491747562f9c6223c5169b86644bc1c8ffffffff04abdc03000000000017a914b8de1e70e7061a54bd1546a9f4a7c81ee52a355487f7b083520000000017a91461d3fcb3440071e0007e5942415405a10da9cfd4875e4771090000000017a91419a6ab719f9a175c97b2b1c61b7a836da1781ff987106fe3010000000017a914db2c9951ccb02a887eb034d7ecee9dd0d070b95f870400483045022100a9ea893e82ba7da62ba88a8970cf90832c3efde277417d817eb3df3364eb279402205b86044197f69294557185ceb8513572a1e216bd828dfc62c300570ca3ad02af0147304402200fb875e4184cf491611f7883f343c4356033b435589e54e98f2e6ac8c9d9b8c002201a4aaa9dd9ff8143ea1b44796c539e5ba91a4771c589f102316bb4b32af4cc6701695221037082de800a0d9e9eafe4860f89104b509567d34d8704fefa0220d27b7db18f03210274e3f69a688202aa1220c3150d0c0672125ad39abc78397370924f35f75423522102339bd9187838bc8d96f1ef94c95cfad0b0877aacf1cceed706d36107c86ba4f553ae00000000", "vin": [{"txinwitness": ["", "3045022100a9ea893e82ba7da62ba88a8970cf90832c3efde277417d817eb3df3364eb279402205b86044197f69294557185ceb8513572a1e216bd828dfc62c300570ca3ad02af01", "304402200fb875e4184cf491611f7883f343c4356033b435589e54e98f2e6ac8c9d9b8c002201a4aaa9dd9ff8143ea1b44796c539e5ba91a4771c589f102316bb4b32af4cc6701", "5221037082de800a0d9e9eafe4860f89104b509567d34d8704fefa0220d27b7db18f03210274e3f69a688202aa1220c3150d0c0672125ad39abc78397370924f35f75423522102339bd9187838bc8d96f1ef94c95cfad0b0877aacf1cceed706d36107c86ba4f553ae"], "sequence": 4294967295, "scriptSig": {"hex": "220020cd0e9706e32cbffa8dbbf31d2301d8b4491747562f9c6223c5169b86644bc1c8", "asm": "0020cd0e9706e32cbffa8dbbf31d2301d8b4491747562f9c6223c5169b86644bc1c8"}, "vout": 2, "txid": "c5930330c08dc7f6f315bf45e300d235fcd7b041cce7596410b52429d3c6ebe9"}], "txid": "c7571269abb32f1c971d9f85fb83e66c9cf6c2b58b6d377fc9234a31d0a35bad", "blocktime": 1537874412, "version": 1, "confirmations": 11466, "time": 1537874412, "locktime": 0, "vsize": 278, "size": 469}