{"hash": "c75e09980de3f2a3e060c2a542e68e1611bc167988c10d0f1d60f5ba9f395cfc", "blockhash": "0000000000000000001f76057863aec43deb6fa401d9628bb513d65a8098bfab", "vout": [{"scriptPubKey": {"type": "nulldata", "hex": "6a146f6d6e69000000000000001f00000004e9a87300", "asm": "OP_RETURN 6f6d6e69000000000000001f00000004e9a87300"}, "value": 0.0, "n": 0}, {"scriptPubKey": {"reqSigs": 1, "hex": "76a9142f758a82d15b679efc366306d19ea8136270de2088ac", "addresses": ["15KwZutpxPdU6tPFMEqyZTeUQ2vJyVe4gT"], "asm": "OP_DUP OP_HASH160 2f758a82d15b679efc366306d19ea8136270de20 OP_EQUALVERIFY OP_CHECKSIG", "type": "pubkeyhash"}, "value": 5.46e-06, "n": 1}, {"scriptPubKey": {"reqSigs": 1, "hex": "76a914882cc4f54c2ea08d18892bb11ab27fc43e466e7188ac", "addresses": ["1DR2XiiEjs91cTtp1LxyqEKm5ihNABmRZ7"], "asm": "OP_DUP OP_HASH160 882cc4f54c2ea08d18892bb11ab27fc43e466e71 OP_EQUALVERIFY OP_CHECKSIG", "type": "pubkeyhash"}, "value": 0.11119712, "n": 2}], "hex": "01000000012857db31b8a84c417dbc4d53396d331279d635bf65e89f07af38ee8369f63cf2000000006b483045022100c9daf840009e2182ab0383b94dee2d67dc1244ab9e36ccb7fbc7e5c6c89f2ccf022004bf5a4e79005706c685d26ce3baf6623d460fd107d747379fd9b8aa0eac83bf012102d7800c61a710c2c233322b2fbdcbbd492c162678a6cf6e859c3b7322e14189eefeffffff030000000000000000166a146f6d6e69000000000000001f00000004e9a8730022020000000000001976a9142f758a82d15b679efc366306d19ea8136270de2088ac60aca900000000001976a914882cc4f54c2ea08d18892bb11ab27fc43e466e7188ac14490800", "vin": [{"sequence": 4294967294, "scriptSig": {"hex": "483045022100c9daf840009e2182ab0383b94dee2d67dc1244ab9e36ccb7fbc7e5c6c89f2ccf022004bf5a4e79005706c685d26ce3baf6623d460fd107d747379fd9b8aa0eac83bf012102d7800c61a710c2c233322b2fbdcbbd492c162678a6cf6e859c3b7322e14189ee", "asm": "3045022100c9daf840009e2182ab0383b94dee2d67dc1244ab9e36ccb7fbc7e5c6c89f2ccf022004bf5a4e79005706c685d26ce3baf6623d460fd107d747379fd9b8aa0eac83bf[ALL] 02d7800c61a710c2c233322b2fbdcbbd492c162678a6cf6e859c3b7322e14189ee"}, "vout": 0, "txid": "f23cf66983ee38af079fe865bf35d67912336d39534dbc7d414ca8b831db5728"}], "txid": "c75e09980de3f2a3e060c2a542e68e1611bc167988c10d0f1d60f5ba9f395cfc", "blocktime": 1537873891, "version": 1, "confirmations": 11474, "time": 1537873891, "locktime": 542996, "vsize": 257, "size": 257}