{"hash": "edab06830bda9a21029a3a9e5be2d967da6c8f4e3d2337b8f8dad7e3fb6218af", "blockhash": "0000000000000000000baef3f32e3676a92c3b2e5da21b426e4f302fc371ce76", "vout": [{"scriptPubKey": {"reqSigs": 1, "hex": "76a914b146379c61d56b88be05cba867b02dd6cb99327a88ac", "addresses": ["1HALijVeDdV1NdFGicsGPGZSdQLyCRjPmN"], "asm": "OP_DUP OP_HASH160 b146379c61d56b88be05cba867b02dd6cb99327a OP_EQUALVERIFY OP_CHECKSIG", "type": "pubkeyhash"}, "value": 0.00075141, "n": 0}, {"scriptPubKey": {"reqSigs": 1, "hex": "a9145ce243af5db577efe8af4e6c8e5f969081714a2087", "addresses": ["3AA99KPfuChupijgRCztZgX2hMjGyZwaba"], "asm": "OP_HASH160 5ce243af5db577efe8af4e6c8e5f969081714a20 OP_EQUAL", "type": "scripthash"}, "value": 0.00183235, "n": 1}], "hex": "01000000000101a211936185271db791a207eae84d246961073f6be890fd667fa8d18e4718e7f80100000023220020fdb54f5f326ec4446e557471395428cdb580c76c812975b69b1b31565c138426ffffffff0285250100000000001976a914b146379c61d56b88be05cba867b02dd6cb99327a88acc3cb02000000000017a9145ce243af5db577efe8af4e6c8e5f969081714a2087040047304402200d110aa17a6603bb792d25fbf173ccd43aa87682886021b41bee6d78a6e632060220373e28ce6e5490dec6471a36bbaea7ceec25e6ddd92b100ab5dbcd11fe7cc2a1014730440220308fa60d01d97dad47a4f18954cd5298da8e613b24b724a524c1c4a99e6a6227022015b9aa6a7e8ebbc215a1b86d021ef35270a256a825f4eaf5981f3d6d48e27b4201475221029964f3b47ee23e51374c0c7e064cfcf62b2b67290faa60b6de1f42bc78f7dbc62103871fc2ca08e6950b38867e8e6a0e94ee625223d3aa0df5c65f414c6d784467e252ae00000000", "vin": [{"txinwitness": ["", "304402200d110aa17a6603bb792d25fbf173ccd43aa87682886021b41bee6d78a6e632060220373e28ce6e5490dec6471a36bbaea7ceec25e6ddd92b100ab5dbcd11fe7cc2a101", "30440220308fa60d01d97dad47a4f18954cd5298da8e613b24b724a524c1c4a99e6a6227022015b9aa6a7e8ebbc215a1b86d021ef35270a256a825f4eaf5981f3d6d48e27b4201", "5221029964f3b47ee23e51374c0c7e064cfcf62b2b67290faa60b6de1f42bc78f7dbc62103871fc2ca08e6950b38867e8e6a0e94ee625223d3aa0df5c65f414c6d784467e252ae"], "sequence": 4294967295, "scriptSig": {"hex": "220020fdb54f5f326ec4446e557471395428cdb580c76c812975b69b1b31565c138426", "asm": "0020fdb54f5f326ec4446e557471395428cdb580c76c812975b69b1b31565c138426"}, "vout": 1, "txid": "f8e718478ed1a87f66fd90e86b3f076169244de8ea07a291b71d2785619311a2"}], "txid": "c75fcd98c5837a1e8eedd9a1cf6b0b7205f037a6c993d096799e78bfd8e87bd7", "blocktime": 1537876114, "version": 1, "confirmations": 11460, "time": 1537876114, "locktime": 0, "vsize": 207, "size": 372}