{"hash": "c7637cc6c2cc1396a077c897d068fe389dfa3daca04c32bf58323ae3c2399d4f", "blockhash": "000000000000000000022b45ed06c6f4ccd3cf7fb5ba4856ebd2e58215665228", "vout": [{"scriptPubKey": {"reqSigs": 1, "hex": "76a914a025d9d2eaf9f660e3a3b596a430d8ddb441ffbf88ac", "addresses": ["1FbnTcq5WfnanoV4KxXaFRuaA9ZfBwtPTZ"], "asm": "OP_DUP OP_HASH160 a025d9d2eaf9f660e3a3b596a430d8ddb441ffbf OP_EQUALVERIFY OP_CHECKSIG", "type": "pubkeyhash"}, "value": 5.018e-05, "n": 0}, {"scriptPubKey": {"reqSigs": 1, "hex": "76a914659dda00b27f3c4ea2afab008ba7b8eccff11b0088ac", "addresses": ["1AGJM6UjYw3z5E4QfJVRvFPZFFikcN5zRk"], "asm": "OP_DUP OP_HASH160 659dda00b27f3c4ea2afab008ba7b8eccff11b00 OP_EQUALVERIFY OP_CHECKSIG", "type": "pubkeyhash"}, "value": 0.001657, "n": 1}], "hex": "0100000002ff8d3ecf564535d5815beca1fbc1290cb54c6dfc736431a0db4d508ae1716bec010000006a47304402200f1883f53e69a35124006f41e61ebcb6392f2fe4e445f6ec25b03e523d7498d902206be4e56d31c55fbdfd5a26d9d0965fc1fda081f63723ac45fa8a41f4e530c64c012102a58a4e50573bcf22374d7dc4e406195ab81884b17a7674f86969a7f1824c9df6ffffffffcb5e683c5926d02b06ae1462e4f35daec496a7c049f2ce7546837d72adf3ba7c010000006a47304402202e9b5c3971eb9f8f8d5ca396a5b018500f2ef5af81efb57a5c5ef3344bf55c8202201fd9e7b875307c0d309a83c5455c6d30306fa6fd44b75c19ef961166116c76fd012103b871372769e660ddc6aedf5c9437a74883219dc4bacd9c60b39e54688f2c3f93ffffffff029a130000000000001976a914a025d9d2eaf9f660e3a3b596a430d8ddb441ffbf88ac44870200000000001976a914659dda00b27f3c4ea2afab008ba7b8eccff11b0088ac00000000", "vin": [{"sequence": 4294967295, "scriptSig": {"hex": "47304402200f1883f53e69a35124006f41e61ebcb6392f2fe4e445f6ec25b03e523d7498d902206be4e56d31c55fbdfd5a26d9d0965fc1fda081f63723ac45fa8a41f4e530c64c012102a58a4e50573bcf22374d7dc4e406195ab81884b17a7674f86969a7f1824c9df6", "asm": "304402200f1883f53e69a35124006f41e61ebcb6392f2fe4e445f6ec25b03e523d7498d902206be4e56d31c55fbdfd5a26d9d0965fc1fda081f63723ac45fa8a41f4e530c64c[ALL] 02a58a4e50573bcf22374d7dc4e406195ab81884b17a7674f86969a7f1824c9df6"}, "vout": 1, "txid": "ec6b71e18a504ddba0316473fc6d4cb50c29c1fba1ec5b81d5354556cf3e8dff"}, {"sequence": 4294967295, "scriptSig": {"hex": "47304402202e9b5c3971eb9f8f8d5ca396a5b018500f2ef5af81efb57a5c5ef3344bf55c8202201fd9e7b875307c0d309a83c5455c6d30306fa6fd44b75c19ef961166116c76fd012103b871372769e660ddc6aedf5c9437a74883219dc4bacd9c60b39e54688f2c3f93", "asm": "304402202e9b5c3971eb9f8f8d5ca396a5b018500f2ef5af81efb57a5c5ef3344bf55c8202201fd9e7b875307c0d309a83c5455c6d30306fa6fd44b75c19ef961166116c76fd[ALL] 03b871372769e660ddc6aedf5c9437a74883219dc4bacd9c60b39e54688f2c3f93"}, "vout": 1, "txid": "7cbaf3ad727d834675cef249c0a796c4ae5df3e46214ae062bd026593c685ecb"}], "txid": "c7637cc6c2cc1396a077c897d068fe389dfa3daca04c32bf58323ae3c2399d4f", "blocktime": 1537869901, "version": 1, "confirmations": 11524, "time": 1537869901, "locktime": 0, "vsize": 372, "size": 372}