{"hash": "c76380faa880caba38356c01520a150db094842d4b6febad299743ff5c494a3a", "blockhash": "0000000000000000000dcc0f55137456b1a82d3642486a52398922ac4d620174", "vout": [{"scriptPubKey": {"reqSigs": 1, "hex": "76a9147b80b1aa84140a02d90de9753506fffdf0affd2f88ac", "addresses": ["1CG2HQsaPoJRUUzv55qbBNW7k3uqced6kR"], "asm": "OP_DUP OP_HASH160 7b80b1aa84140a02d90de9753506fffdf0affd2f OP_EQUALVERIFY OP_CHECKSIG", "type": "pubkeyhash"}, "value": 0.00077242, "n": 0}, {"scriptPubKey": {"reqSigs": 1, "hex": "a9146dc3e8759f2d0af954ff38a511c29f24f5d1746987", "addresses": ["3BhQGPAAt2QYe5QPF4unXtfv9QMgGaC6vQ"], "asm": "OP_HASH160 6dc3e8759f2d0af954ff38a511c29f24f5d17469 OP_EQUAL", "type": "scripthash"}, "value": 0.007792, "n": 1}], "hex": "0100000001ce80dbd93691e1ccce057644531fb79c8d592435911d13a0afadad7a8de23ff4010000006a47304402201005465c3d4feae1762c515546c5edb609306b2987294bac63b4d36aeb5c7296022022bc584a39402656b096a6af4e224df6dd2e361d655a60f78e58a54e5b1f66b7012102bf3a322c45bd32e0bcf527fafbaedc7b24aedd0a844de0e86474a7a89d286eccffffffff02ba2d0100000000001976a9147b80b1aa84140a02d90de9753506fffdf0affd2f88acc0e30b000000000017a9146dc3e8759f2d0af954ff38a511c29f24f5d174698700000000", "vin": [{"sequence": 4294967295, "scriptSig": {"hex": "47304402201005465c3d4feae1762c515546c5edb609306b2987294bac63b4d36aeb5c7296022022bc584a39402656b096a6af4e224df6dd2e361d655a60f78e58a54e5b1f66b7012102bf3a322c45bd32e0bcf527fafbaedc7b24aedd0a844de0e86474a7a89d286ecc", "asm": "304402201005465c3d4feae1762c515546c5edb609306b2987294bac63b4d36aeb5c7296022022bc584a39402656b096a6af4e224df6dd2e361d655a60f78e58a54e5b1f66b7[ALL] 02bf3a322c45bd32e0bcf527fafbaedc7b24aedd0a844de0e86474a7a89d286ecc"}, "vout": 1, "txid": "f43fe28d7aadadafa0131d913524598d9cb71f53447605cecce19136d9db80ce"}], "txid": "c76380faa880caba38356c01520a150db094842d4b6febad299743ff5c494a3a", "blocktime": 1537870268, "version": 1, "confirmations": 11518, "time": 1537870268, "locktime": 0, "vsize": 223, "size": 223}