{"hash": "c768336c5081261e256de72f9b521e7c87119ff690c16aedc405ec17b34cb2d9", "blockhash": "00000000000000000004ffacab907a6b429b9a5745fa0b75af4234bf69dd7176", "vout": [{"scriptPubKey": {"reqSigs": 1, "hex": "a91452506e6a7cc27aa4f8e65e0005703cf11d5bcb1f87", "addresses": ["39CFgjqcEdocMVj5G7wwAtZ2cnVRAuUwVs"], "asm": "OP_HASH160 52506e6a7cc27aa4f8e65e0005703cf11d5bcb1f OP_EQUAL", "type": "scripthash"}, "value": 0.10008522, "n": 0}, {"scriptPubKey": {"reqSigs": 1, "hex": "76a914acb2c57adf31176a0ca259e384a4979c3c28c71488ac", "addresses": ["1Gk9PFVdLxjtwbK6zVXigoEvE5SDcpEPPy"], "asm": "OP_DUP OP_HASH160 acb2c57adf31176a0ca259e384a4979c3c28c714 OP_EQUALVERIFY OP_CHECKSIG", "type": "pubkeyhash"}, "value": 0.14866587, "n": 1}], "hex": "0100000001094bcfef42a18f157047b24b080284eb7dc73e4c46f9b504f69549febf5e9570010000006b483045022100997e4ca186e5ea38011a776b5accc9ec1b98382bd19272b22b297c2caf7159de02204b5496ebac5e568cd88297a7272c3971c372f1b07da6f2ee251b5a28ffec2e8e0121032ef105ae3d8da366079caa08e81affac1099accb64ed4cf8025e6e2053395771ffffffff02cab798000000000017a91452506e6a7cc27aa4f8e65e0005703cf11d5bcb1f879bd8e200000000001976a914acb2c57adf31176a0ca259e384a4979c3c28c71488ac00000000", "vin": [{"sequence": 4294967295, "scriptSig": {"hex": "483045022100997e4ca186e5ea38011a776b5accc9ec1b98382bd19272b22b297c2caf7159de02204b5496ebac5e568cd88297a7272c3971c372f1b07da6f2ee251b5a28ffec2e8e0121032ef105ae3d8da366079caa08e81affac1099accb64ed4cf8025e6e2053395771", "asm": "3045022100997e4ca186e5ea38011a776b5accc9ec1b98382bd19272b22b297c2caf7159de02204b5496ebac5e568cd88297a7272c3971c372f1b07da6f2ee251b5a28ffec2e8e[ALL] 032ef105ae3d8da366079caa08e81affac1099accb64ed4cf8025e6e2053395771"}, "vout": 1, "txid": "70955ebffe4995f604b5f9464c3ec77deb8402084bb24770158fa142efcf4b09"}], "txid": "c768336c5081261e256de72f9b521e7c87119ff690c16aedc405ec17b34cb2d9", "blocktime": 1537875543, "version": 1, "confirmations": 11464, "time": 1537875543, "locktime": 0, "vsize": 224, "size": 224}