{"hash": "6f4f4837fe73ded1713de20bade7cd76d0b46d22e3a5a73a233828269071ddcc", "blockhash": "0000000000000000000baef3f32e3676a92c3b2e5da21b426e4f302fc371ce76", "vout": [{"scriptPubKey": {"reqSigs": 1, "hex": "a91490e99e8d26d05ead3c05430c292a887bbff695f587", "addresses": ["3EuF6KjJawxTiUsea3Sc8hsLUGmVEf7Xg5"], "asm": "OP_HASH160 90e99e8d26d05ead3c05430c292a887bbff695f5 OP_EQUAL", "type": "scripthash"}, "value": 0.00112624, "n": 0}, {"scriptPubKey": {"type": "nulldata", "hex": "6a146f6d6e69000000000000001f0000000005f5e100", "asm": "OP_RETURN 6f6d6e69000000000000001f0000000005f5e100"}, "value": 0.0, "n": 1}, {"scriptPubKey": {"reqSigs": 1, "hex": "a91490e99e8d26d05ead3c05430c292a887bbff695f587", "addresses": ["3EuF6KjJawxTiUsea3Sc8hsLUGmVEf7Xg5"], "asm": "OP_HASH160 90e99e8d26d05ead3c05430c292a887bbff695f5 OP_EQUAL", "type": "scripthash"}, "value": 5.4e-06, "n": 2}], "hex": "01000000000102e06fc17024a2259dc54f85f77a6e7d94425bc26327c72cdd5b5d21de9a50e8ae0000000017160014f6e1792e7852ebd5ae795c2a25d579acdfadec2dffffffffe06fc17024a2259dc54f85f77a6e7d94425bc26327c72cdd5b5d21de9a50e8ae0200000017160014f6e1792e7852ebd5ae795c2a25d579acdfadec2dffffffff03f0b701000000000017a91490e99e8d26d05ead3c05430c292a887bbff695f5870000000000000000166a146f6d6e69000000000000001f0000000005f5e1001c0200000000000017a91490e99e8d26d05ead3c05430c292a887bbff695f58702473044022006869210f97fc75e52ed4551f08482d9d22a2dd0903062f135e91878b9722a3102206289c428ebc725417d49d00b788372269f82902775c0a95167a8aa04f2f261e6012103f1cf988013a33e053d1e9bd54c4798c1a6dc362a5b2798b5344049fca40e2db00247304402207f2b33c3e93e4d1b17ea9d77e6d4fd23a76283a123cd9383c5a244155e5898e902207650f694e6692dac22be3c475b0c6bd0611f961dd06fd82ed99f81762d8d7b43012103f1cf988013a33e053d1e9bd54c4798c1a6dc362a5b2798b5344049fca40e2db000000000", "vin": [{"txinwitness": ["3044022006869210f97fc75e52ed4551f08482d9d22a2dd0903062f135e91878b9722a3102206289c428ebc725417d49d00b788372269f82902775c0a95167a8aa04f2f261e601", "03f1cf988013a33e053d1e9bd54c4798c1a6dc362a5b2798b5344049fca40e2db0"], "sequence": 4294967295, "scriptSig": {"hex": "160014f6e1792e7852ebd5ae795c2a25d579acdfadec2d", "asm": "0014f6e1792e7852ebd5ae795c2a25d579acdfadec2d"}, "vout": 0, "txid": "aee8509ade215d5bdd2cc72763c25b42947d6e7af7854fc59d25a22470c16fe0"}, {"txinwitness": ["304402207f2b33c3e93e4d1b17ea9d77e6d4fd23a76283a123cd9383c5a244155e5898e902207650f694e6692dac22be3c475b0c6bd0611f961dd06fd82ed99f81762d8d7b4301", "03f1cf988013a33e053d1e9bd54c4798c1a6dc362a5b2798b5344049fca40e2db0"], "sequence": 4294967295, "scriptSig": {"hex": "160014f6e1792e7852ebd5ae795c2a25d579acdfadec2d", "asm": "0014f6e1792e7852ebd5ae795c2a25d579acdfadec2d"}, "vout": 2, "txid": "aee8509ade215d5bdd2cc72763c25b42947d6e7af7854fc59d25a22470c16fe0"}], "txid": "c76c8a838fd175104f46ce6ee8094c8f4f747c768d542bc0fd4eef100ad76f9a", "blocktime": 1537876114, "version": 1, "confirmations": 11460, "time": 1537876114, "locktime": 0, "vsize": 287, "size": 449}