{"hash": "c77c4c1bd08040d92d2d6452ad381edbae6d85672a7a0aa0216efb6d852b916f", "blockhash": "0000000000000000001cda96e906b7601b7a6fb1a3b62bca570a9e5d8f4b3de1", "vout": [{"scriptPubKey": {"reqSigs": 1, "hex": "76a91432be74f76ae9504bebfa34ff0bad2941ff55c9f888ac", "addresses": ["15dJwmbjhWGQUMBkCAZToH61EVNUyDe4pG"], "asm": "OP_DUP OP_HASH160 32be74f76ae9504bebfa34ff0bad2941ff55c9f8 OP_EQUALVERIFY OP_CHECKSIG", "type": "pubkeyhash"}, "value": 0.03122274, "n": 0}], "hex": "01000000028d1cb313f35dafcde7d2d69c4feec996a449403f6a95a1f77091fd3b84b72401000000006b483045022100a4e0fb3cf0ae28131dedce3e23cd6e268ed941b5933c5858f5be122c0a9b10e602207f0b458482d58ebe545489a2a549be666be3032a6bcf48ccd3709fda139c01520121037ba855f43d03f92be7f34b58636e53f3abf6e720feb5f9df1713b4d5c57c4088ffffffff39b8d98e6ee28e302f94d63995c1d7fd640a0de950a5499702a7c42b6a1dedc6000000006b4830450221009e185f57952e1959c0ad718744eff486c506ccabba4bff978f5f58cc5dcb525702206f3fbad040032d94c9211099eb94fc59be9c424ecaad4f73a2f4e7230e87364c0121037ba855f43d03f92be7f34b58636e53f3abf6e720feb5f9df1713b4d5c57c4088ffffffff0162a42f00000000001976a91432be74f76ae9504bebfa34ff0bad2941ff55c9f888ac00000000", "vin": [{"sequence": 4294967295, "scriptSig": {"hex": "483045022100a4e0fb3cf0ae28131dedce3e23cd6e268ed941b5933c5858f5be122c0a9b10e602207f0b458482d58ebe545489a2a549be666be3032a6bcf48ccd3709fda139c01520121037ba855f43d03f92be7f34b58636e53f3abf6e720feb5f9df1713b4d5c57c4088", "asm": "3045022100a4e0fb3cf0ae28131dedce3e23cd6e268ed941b5933c5858f5be122c0a9b10e602207f0b458482d58ebe545489a2a549be666be3032a6bcf48ccd3709fda139c0152[ALL] 037ba855f43d03f92be7f34b58636e53f3abf6e720feb5f9df1713b4d5c57c4088"}, "vout": 0, "txid": "0124b7843bfd9170f7a1956a3f4049a496c9ee4f9cd6d2e7cdaf5df313b31c8d"}, {"sequence": 4294967295, "scriptSig": {"hex": "4830450221009e185f57952e1959c0ad718744eff486c506ccabba4bff978f5f58cc5dcb525702206f3fbad040032d94c9211099eb94fc59be9c424ecaad4f73a2f4e7230e87364c0121037ba855f43d03f92be7f34b58636e53f3abf6e720feb5f9df1713b4d5c57c4088", "asm": "30450221009e185f57952e1959c0ad718744eff486c506ccabba4bff978f5f58cc5dcb525702206f3fbad040032d94c9211099eb94fc59be9c424ecaad4f73a2f4e7230e87364c[ALL] 037ba855f43d03f92be7f34b58636e53f3abf6e720feb5f9df1713b4d5c57c4088"}, "vout": 0, "txid": "c6ed1d6a2bc4a7029749a550e90d0a64fdd7c19539d6942f308ee26e8ed9b839"}], "txid": "c77c4c1bd08040d92d2d6452ad381edbae6d85672a7a0aa0216efb6d852b916f", "blocktime": 1537873282, "version": 1, "confirmations": 11482, "time": 1537873282, "locktime": 0, "vsize": 340, "size": 340}