{"hash": "f424e353f64e721668d7cf6a6a0aed8c25560228190ea56cc6b138bf1a84d87c", "blockhash": "0000000000000000000dcc0f55137456b1a82d3642486a52398922ac4d620174", "vout": [{"scriptPubKey": {"reqSigs": 1, "hex": "76a9148475d19b71844fc472c4505c034f5ef63220c68d88ac", "addresses": ["1D5PLWoY3zzPWJr64ogQN96mYeDdavZJg1"], "asm": "OP_DUP OP_HASH160 8475d19b71844fc472c4505c034f5ef63220c68d OP_EQUALVERIFY OP_CHECKSIG", "type": "pubkeyhash"}, "value": 0.04953053, "n": 0}, {"scriptPubKey": {"reqSigs": 1, "hex": "a9147405138691f8c86c13e7a43a1cf879985547908d87", "addresses": ["3CGUPW3pEk5LHpDULfq3KmuggrJst8pgxS"], "asm": "OP_HASH160 7405138691f8c86c13e7a43a1cf879985547908d OP_EQUAL", "type": "scripthash"}, "value": 0.11917859, "n": 1}], "hex": "020000000001016f3839b60756ae7d7d48626f9957054d9a767d39caeb7f988a6c6a024db05e680100000017160014dcd50467847aefca0caa0d0d61a41eb77d6514eefeffffff02dd934b00000000001976a9148475d19b71844fc472c4505c034f5ef63220c68d88ac23dab5000000000017a9147405138691f8c86c13e7a43a1cf879985547908d8702483045022100c4e0fefb9ef00c5565f12c7045d8a474d0eba3642599bd2144c3240d8b028d7f022061c31340dea9b1dd3d22b0ae6fd676782baf31467461d5a49c07b95328b2300501210376bdec2577fe69b604bc6656ad9f428de24de9bf2c20f1853e5182b812e6b7610c490800", "vin": [{"txinwitness": ["3045022100c4e0fefb9ef00c5565f12c7045d8a474d0eba3642599bd2144c3240d8b028d7f022061c31340dea9b1dd3d22b0ae6fd676782baf31467461d5a49c07b95328b2300501", "0376bdec2577fe69b604bc6656ad9f428de24de9bf2c20f1853e5182b812e6b761"], "sequence": 4294967294, "scriptSig": {"hex": "160014dcd50467847aefca0caa0d0d61a41eb77d6514ee", "asm": "0014dcd50467847aefca0caa0d0d61a41eb77d6514ee"}, "vout": 1, "txid": "685eb04d026a6c8a987febca397d769a4d0557996f62487d7dae5607b639386f"}], "txid": "c77f1b0c10476ee24ec066b54d866bdc23a6591bf240f98c5b29c10de0dd93f5", "blocktime": 1537870268, "version": 2, "confirmations": 11518, "time": 1537870268, "locktime": 542988, "vsize": 168, "size": 250}