{"hash": "c78299329dd1e34584aa27a0b0c36042a32f72c07f3e851fe8a449f5dbf8568d", "blockhash": "000000000000000000022b45ed06c6f4ccd3cf7fb5ba4856ebd2e58215665228", "vout": [{"scriptPubKey": {"reqSigs": 1, "hex": "76a9148aba32e17ff53613b59e92a92ddf35d26508711988ac", "addresses": ["1DeXJnkUt3MP3EXdkUrhBTjPk7V6GFERRU"], "asm": "OP_DUP OP_HASH160 8aba32e17ff53613b59e92a92ddf35d265087119 OP_EQUALVERIFY OP_CHECKSIG", "type": "pubkeyhash"}, "value": 0.05492224, "n": 0}, {"scriptPubKey": {"reqSigs": 1, "hex": "a914bf783ebabd79d6a76ddb76181b217f0fbce4a44287", "addresses": ["3K9R2xLsNRECwuQWCpnjxjHoPErjvSUrZg"], "asm": "OP_HASH160 bf783ebabd79d6a76ddb76181b217f0fbce4a442 OP_EQUAL", "type": "scripthash"}, "value": 0.06229442, "n": 1}], "hex": "0100000001f5aac7e196691b5b696940bbfb334c51b15a13a7b3458988a49ef5bf4278ed48010000006a473044022053a9de90092b729c8a0a05ac8d2114ff3f8f3f6d53934a1b78997469436f5dea0220124870969a1e1ef1caf0716e8f559100552eb02f196d7cf4e2f3b43dcf80b3ae0121022c016e0afeee46735894babc6ed2157ddc9e12fc1cde72bc6b610c5bc9c17010ffffffff0200ce5300000000001976a9148aba32e17ff53613b59e92a92ddf35d26508711988acc20d5f000000000017a914bf783ebabd79d6a76ddb76181b217f0fbce4a4428700000000", "vin": [{"sequence": 4294967295, "scriptSig": {"hex": "473044022053a9de90092b729c8a0a05ac8d2114ff3f8f3f6d53934a1b78997469436f5dea0220124870969a1e1ef1caf0716e8f559100552eb02f196d7cf4e2f3b43dcf80b3ae0121022c016e0afeee46735894babc6ed2157ddc9e12fc1cde72bc6b610c5bc9c17010", "asm": "3044022053a9de90092b729c8a0a05ac8d2114ff3f8f3f6d53934a1b78997469436f5dea0220124870969a1e1ef1caf0716e8f559100552eb02f196d7cf4e2f3b43dcf80b3ae[ALL] 022c016e0afeee46735894babc6ed2157ddc9e12fc1cde72bc6b610c5bc9c17010"}, "vout": 1, "txid": "48ed7842bff59ea4888945b3a7135ab1514c33fbbb4069695b1b6996e1c7aaf5"}], "txid": "c78299329dd1e34584aa27a0b0c36042a32f72c07f3e851fe8a449f5dbf8568d", "blocktime": 1537869901, "version": 1, "confirmations": 11522, "time": 1537869901, "locktime": 0, "vsize": 223, "size": 223}