{"hash": "c78a75dd4194b14c1c0637d3d38cacf561674e740516dd12e39aec8e3e5376db", "blockhash": "0000000000000000000e13cef7c366c0283d82e591d1acd082e914b08063cdf1", "vout": [{"scriptPubKey": {"reqSigs": 1, "hex": "a914f8fc7ce7cd1ba6e887b29c1c08f6aea46d7a594b87", "addresses": ["3QPXyHWG2E3jNFnZREcKqbYyxZDRxdazNw"], "asm": "OP_HASH160 f8fc7ce7cd1ba6e887b29c1c08f6aea46d7a594b OP_EQUAL", "type": "scripthash"}, "value": 0.00439, "n": 0}, {"scriptPubKey": {"reqSigs": 1, "hex": "76a9149ec7c9eddd458dcf851d6bea0b4869a20bd0d55888ac", "addresses": ["1FUZ6staerJXLJRvXWw9y3QnvjcoL2euht"], "asm": "OP_DUP OP_HASH160 9ec7c9eddd458dcf851d6bea0b4869a20bd0d558 OP_EQUALVERIFY OP_CHECKSIG", "type": "pubkeyhash"}, "value": 0.01291805, "n": 1}], "hex": "0100000001bf55787e151993d1fdfc8073a7d89647b3b344cdd9dda2d910e1529cf5e234f8010000006a47304402207d9ccc1929f7ebcfbec7bb5da17a7fb8d24a07b77a29c36fb31dee06d2a8cfac0220022b677b810afe341a8d5c2ca45f16c1b06afa7566bbbe7c45d8641e410419ae0121033494f540f938fe1267cab480f3fe66bfd9ec0b52902907b4b9161db21faed34dffffffff02d8b206000000000017a914f8fc7ce7cd1ba6e887b29c1c08f6aea46d7a594b871db61300000000001976a9149ec7c9eddd458dcf851d6bea0b4869a20bd0d55888ac00000000", "vin": [{"sequence": 4294967295, "scriptSig": {"hex": "47304402207d9ccc1929f7ebcfbec7bb5da17a7fb8d24a07b77a29c36fb31dee06d2a8cfac0220022b677b810afe341a8d5c2ca45f16c1b06afa7566bbbe7c45d8641e410419ae0121033494f540f938fe1267cab480f3fe66bfd9ec0b52902907b4b9161db21faed34d", "asm": "304402207d9ccc1929f7ebcfbec7bb5da17a7fb8d24a07b77a29c36fb31dee06d2a8cfac0220022b677b810afe341a8d5c2ca45f16c1b06afa7566bbbe7c45d8641e410419ae[ALL] 033494f540f938fe1267cab480f3fe66bfd9ec0b52902907b4b9161db21faed34d"}, "vout": 1, "txid": "f834e2f59c52e110d9a2ddd9cd44b3b34796d8a77380fcfdd19319157e7855bf"}], "txid": "c78a75dd4194b14c1c0637d3d38cacf561674e740516dd12e39aec8e3e5376db", "blocktime": 1537871767, "version": 1, "confirmations": 11493, "time": 1537871767, "locktime": 0, "vsize": 223, "size": 223}