{"hash": "c78b14a99448aaf04509aa8134051485247555381a2262b4ba94102081c3d1f9", "blockhash": "00000000000000000017f5eb5941039fbcee6240d03bc1f2f8e35350df66a1d8", "vout": [{"scriptPubKey": {"reqSigs": 1, "hex": "76a91420d900037d15ebf1083fcc19a6e7d818783a319088ac", "addresses": ["13zgaZs2tNFUFMkK3gUkT4KS2r22C38VYK"], "asm": "OP_DUP OP_HASH160 20d900037d15ebf1083fcc19a6e7d818783a3190 OP_EQUALVERIFY OP_CHECKSIG", "type": "pubkeyhash"}, "value": 3.36e-05, "n": 0}, {"scriptPubKey": {"reqSigs": 1, "hex": "76a91428b2dee6bbfde1750331807356279ea39ffb54b488ac", "addresses": ["14iCJq257fFbokUwBj9NJ5ZuU1gWFxjH2N"], "asm": "OP_DUP OP_HASH160 28b2dee6bbfde1750331807356279ea39ffb54b4 OP_EQUALVERIFY OP_CHECKSIG", "type": "pubkeyhash"}, "value": 0.01219545, "n": 1}], "hex": "01000000046e3553297cb2817c0c72a5b6bf1557f8ec05767fcc07ac4f059c34696c32c981000000006a47304402203357d93e1d13f59fabc0d1b4b499d4d54912f5774db692d3c2c65a835a9556520220769cc451d074e1fdb2a82629ea4d4a07db3e063222f4e2b004cc9d9f0c2d6ee9012103f8fc2f0fb6f942e0e08a4ca40ddaa1c375a130211ade9f5e6a57b8eed9a4feedffffffff295b74f4ebd6a329817470d207406520371130a68c023e1e31f40a232484a085000000006a4730440220175025e51fd4c08c2ab9b5974f621f5a09e1f1796d91844b3fe7001b478f1a7102202b8806a7a2dd7e0a8707afa92f2e2b7f4300f9a00534c71840a6e136306292860121024490a13799a2d1324abc422e5326a0fdb9cd40c0d94fd8f9ebdad29b443df57fffffffffec56e15cbcb5a798853bf24bca6143005aa1ba56596ce152ad47d28d5ac2abcf000000006a47304402207e83b053aae2c9865b45ab7056df18d5f977cb7d3b2da16ffe2eb4fb6808ca9b02202260a28c0186bdbcc2e688df9f63eeeb0ed99ab8a02a488df11052f445a2dd9d012102dce9a66560796c62440c384591fc7ff1083ec477c61b1b54df82db840cd0579bffffffffeb40527ef0eceaa7524acb6dea8bebcd73a91f783620190f73de9c683703b5fa000000006a47304402206f96824ea5ca0fbe9c427b3180c8ffb96d9867aef2edf820fb9f58b4f79f84e902206b63fc34826386f0474ec37002e1b83f8b41b3aa03daf4b23c312a00bda88c830121027fc9ce6abd62417529e75b1e45b2c33f0375ab75abbd2bff054575fd99178608ffffffff02200d0000000000001976a91420d900037d15ebf1083fcc19a6e7d818783a319088acd99b1200000000001976a91428b2dee6bbfde1750331807356279ea39ffb54b488ac00000000", "vin": [{"sequence": 4294967295, "scriptSig": {"hex": "47304402203357d93e1d13f59fabc0d1b4b499d4d54912f5774db692d3c2c65a835a9556520220769cc451d074e1fdb2a82629ea4d4a07db3e063222f4e2b004cc9d9f0c2d6ee9012103f8fc2f0fb6f942e0e08a4ca40ddaa1c375a130211ade9f5e6a57b8eed9a4feed", "asm": "304402203357d93e1d13f59fabc0d1b4b499d4d54912f5774db692d3c2c65a835a9556520220769cc451d074e1fdb2a82629ea4d4a07db3e063222f4e2b004cc9d9f0c2d6ee9[ALL] 03f8fc2f0fb6f942e0e08a4ca40ddaa1c375a130211ade9f5e6a57b8eed9a4feed"}, "vout": 0, "txid": "81c9326c69349c054fac07cc7f7605ecf85715bfb6a5720c7c81b27c2953356e"}, {"sequence": 4294967295, "scriptSig": {"hex": "4730440220175025e51fd4c08c2ab9b5974f621f5a09e1f1796d91844b3fe7001b478f1a7102202b8806a7a2dd7e0a8707afa92f2e2b7f4300f9a00534c71840a6e136306292860121024490a13799a2d1324abc422e5326a0fdb9cd40c0d94fd8f9ebdad29b443df57f", "asm": "30440220175025e51fd4c08c2ab9b5974f621f5a09e1f1796d91844b3fe7001b478f1a7102202b8806a7a2dd7e0a8707afa92f2e2b7f4300f9a00534c71840a6e13630629286[ALL] 024490a13799a2d1324abc422e5326a0fdb9cd40c0d94fd8f9ebdad29b443df57f"}, "vout": 0, "txid": "85a08424230af4311e3e028ca630113720654007d270748129a3d6ebf4745b29"}, {"sequence": 4294967295, "scriptSig": {"hex": "47304402207e83b053aae2c9865b45ab7056df18d5f977cb7d3b2da16ffe2eb4fb6808ca9b02202260a28c0186bdbcc2e688df9f63eeeb0ed99ab8a02a488df11052f445a2dd9d012102dce9a66560796c62440c384591fc7ff1083ec477c61b1b54df82db840cd0579b", "asm": "304402207e83b053aae2c9865b45ab7056df18d5f977cb7d3b2da16ffe2eb4fb6808ca9b02202260a28c0186bdbcc2e688df9f63eeeb0ed99ab8a02a488df11052f445a2dd9d[ALL] 02dce9a66560796c62440c384591fc7ff1083ec477c61b1b54df82db840cd0579b"}, "vout": 0, "txid": "cfabc25a8dd247ad52e16c5956baa15a004361ca4bf23b8598a7b5bc5ce156ec"}, {"sequence": 4294967295, "scriptSig": {"hex": "47304402206f96824ea5ca0fbe9c427b3180c8ffb96d9867aef2edf820fb9f58b4f79f84e902206b63fc34826386f0474ec37002e1b83f8b41b3aa03daf4b23c312a00bda88c830121027fc9ce6abd62417529e75b1e45b2c33f0375ab75abbd2bff054575fd99178608", "asm": "304402206f96824ea5ca0fbe9c427b3180c8ffb96d9867aef2edf820fb9f58b4f79f84e902206b63fc34826386f0474ec37002e1b83f8b41b3aa03daf4b23c312a00bda88c83[ALL] 027fc9ce6abd62417529e75b1e45b2c33f0375ab75abbd2bff054575fd99178608"}, "vout": 0, "txid": "fab50337689cde730f192036781fa973cdeb8bea6dcb4a52a7eaecf07e5240eb"}], "txid": "c78b14a99448aaf04509aa8134051485247555381a2262b4ba94102081c3d1f9", "blocktime": 1537874412, "version": 1, "confirmations": 11467, "time": 1537874412, "locktime": 0, "vsize": 666, "size": 666}