{"hash": "7e2bc6292b191fa682cc29506bc6c414fbf9b01d3656840fcf8b8a371753815a", "blockhash": "0000000000000000001f0ddff1eddb255c1121bcd4da4f1bc9a0da00cae72433", "vout": [{"scriptPubKey": {"reqSigs": 1, "hex": "a9140d7f3f88b859cad6cc429f02c6e629cb23ac663f87", "addresses": ["32vP9PvhfJpHGcToVCnTXD54zZNoj5GKax"], "asm": "OP_HASH160 0d7f3f88b859cad6cc429f02c6e629cb23ac663f OP_EQUAL", "type": "scripthash"}, "value": 0.39412999, "n": 0}, {"scriptPubKey": {"reqSigs": 1, "hex": "a9149414b628310aa62661c92b4d307a3d96b65d5c7587", "addresses": ["3FBzjzrymLqKApwnNzyHqajzsW6eL5RWtw"], "asm": "OP_HASH160 9414b628310aa62661c92b4d307a3d96b65d5c75 OP_EQUAL", "type": "scripthash"}, "value": 0.00255279, "n": 1}, {"scriptPubKey": {"reqSigs": 1, "hex": "76a9140830aa33dc1239274889f720196971c25b7ba97f88ac", "addresses": ["1kJhq2Gp6MZJBArhtALTX5QXUWhDpZdok"], "asm": "OP_DUP OP_HASH160 0830aa33dc1239274889f720196971c25b7ba97f OP_EQUALVERIFY OP_CHECKSIG", "type": "pubkeyhash"}, "value": 0.01559975, "n": 2}], "hex": "01000000000101e23ecf4fd421e752e1484426f900d0009f5462ef63e0eecc9bb407236cc38e000c00000023220020168ea7074006221bf46ac7d282525d1e2688cdecfd1bdabed2d80b1b027cc276ffffffff03076559020000000017a9140d7f3f88b859cad6cc429f02c6e629cb23ac663f872fe503000000000017a9149414b628310aa62661c92b4d307a3d96b65d5c7587a7cd1700000000001976a9140830aa33dc1239274889f720196971c25b7ba97f88ac0400483045022100c17f8c4787f248de59edba2f42824fcd172987ad750861c77b0a65cb36b1ef58022039b70f34a587ed151c32b274bb7365299879535a4c39ad896953a9d893e31128014730440220187b45ff206e8e5808e8d4dfb98e6771ae49e3aacc417e55fddf6deaea4dc12c0220442ba0c77f339effb597400ab442a0b48389845c64079ff4c6a8ee5fc4dc3a430169522102429c8cf772a0749be44ac089802e4e30971fb0254dcbf8ee8fb1b250f0677ff52103887dcabcce8f2afdf1005a9f62df8f83da0d1ff25cb9ce337f31060f12f4327421038c8fb87efbbc4471add82c12ec7e30424a046079b3296527cdc4d1f569934c4f53ae00000000", "vin": [{"txinwitness": ["", "3045022100c17f8c4787f248de59edba2f42824fcd172987ad750861c77b0a65cb36b1ef58022039b70f34a587ed151c32b274bb7365299879535a4c39ad896953a9d893e3112801", "30440220187b45ff206e8e5808e8d4dfb98e6771ae49e3aacc417e55fddf6deaea4dc12c0220442ba0c77f339effb597400ab442a0b48389845c64079ff4c6a8ee5fc4dc3a4301", "522102429c8cf772a0749be44ac089802e4e30971fb0254dcbf8ee8fb1b250f0677ff52103887dcabcce8f2afdf1005a9f62df8f83da0d1ff25cb9ce337f31060f12f4327421038c8fb87efbbc4471add82c12ec7e30424a046079b3296527cdc4d1f569934c4f53ae"], "sequence": 4294967295, "scriptSig": {"hex": "220020168ea7074006221bf46ac7d282525d1e2688cdecfd1bdabed2d80b1b027cc276", "asm": "0020168ea7074006221bf46ac7d282525d1e2688cdecfd1bdabed2d80b1b027cc276"}, "vout": 12, "txid": "008ec36c2307b49bcceee063ef62549f00d000f9264448e152e721d44fcf3ee2"}], "txid": "c7948eb4f9a3555a4250a83f452938287102219c6e39aa13cbb97a687d204066", "blocktime": 1537872018, "version": 1, "confirmations": 11489, "time": 1537872018, "locktime": 0, "vsize": 248, "size": 439}