{"hash": "631831f3dbd88b2a1ea5d444113f33a91806d711a89d430eaa3c157af425e04e", "blockhash": "0000000000000000001f76057863aec43deb6fa401d9628bb513d65a8098bfab", "vout": [{"scriptPubKey": {"reqSigs": 1, "hex": "76a9145c9ef653a4727ac27b54fd182eee988058dde40688ac", "addresses": ["19SjbY8GJP6QBSBY67qPZUQqjm4dLL1Fgm"], "asm": "OP_DUP OP_HASH160 5c9ef653a4727ac27b54fd182eee988058dde406 OP_EQUALVERIFY OP_CHECKSIG", "type": "pubkeyhash"}, "value": 0.0052506, "n": 0}, {"scriptPubKey": {"reqSigs": 1, "hex": "a914b01cd82f0475470d1dacb1f3c7e1a00f94afec4287", "addresses": ["3HkDQTKfKWjD6KcxyzaWWxyoV4eyQxFGMF"], "asm": "OP_HASH160 b01cd82f0475470d1dacb1f3c7e1a00f94afec42 OP_EQUAL", "type": "scripthash"}, "value": 0.00999747, "n": 1}], "hex": "020000000001021a2c376869fe9fd902cea283288fd2afb93bb1145876e67cf99c791e7220d8840000000017160014200a878adb318bde88ea66f1fd859851ed5ee3a7feffffff350c2edf0404e7b696f3d5339197a94764a1d29df3a00636f24c18420232f4d001000000171600147423a043d2c9e7ba8892314909afe6daf81f2191feffffff0204030800000000001976a9145c9ef653a4727ac27b54fd182eee988058dde40688ac43410f000000000017a914b01cd82f0475470d1dacb1f3c7e1a00f94afec42870247304402202367253c36bb0a92e7000da4ec5fc4a874cd28ad895d0fa87e4b00714e58caf702200daf014435fb4d495512bc001ef7c0cc676b3fd6f1f874c0dbdc6ef3a490e5b30121027e85b7075f9532f0b9f8f627fa0aac58932ee91eb8fab3447858618a0655a40602483045022100f2807f04c4f6e850681a574fda8d0e3384b93eeb5fe887090e99078dc8fc9e0e02200df149ae5425415586ddfd9a4b6dd9f4f4de9245a7dc1c11263003d47db55380012102e12475f6521da7210479df5aaaac7b092683a03ab3b0f0a703d87cb6ad974deb14490800", "vin": [{"txinwitness": ["304402202367253c36bb0a92e7000da4ec5fc4a874cd28ad895d0fa87e4b00714e58caf702200daf014435fb4d495512bc001ef7c0cc676b3fd6f1f874c0dbdc6ef3a490e5b301", "027e85b7075f9532f0b9f8f627fa0aac58932ee91eb8fab3447858618a0655a406"], "sequence": 4294967294, "scriptSig": {"hex": "160014200a878adb318bde88ea66f1fd859851ed5ee3a7", "asm": "0014200a878adb318bde88ea66f1fd859851ed5ee3a7"}, "vout": 0, "txid": "84d820721e799cf97ce6765814b13bb9afd28f2883a2ce02d99ffe6968372c1a"}, {"txinwitness": ["3045022100f2807f04c4f6e850681a574fda8d0e3384b93eeb5fe887090e99078dc8fc9e0e02200df149ae5425415586ddfd9a4b6dd9f4f4de9245a7dc1c11263003d47db5538001", "02e12475f6521da7210479df5aaaac7b092683a03ab3b0f0a703d87cb6ad974deb"], "sequence": 4294967294, "scriptSig": {"hex": "1600147423a043d2c9e7ba8892314909afe6daf81f2191", "asm": "00147423a043d2c9e7ba8892314909afe6daf81f2191"}, "vout": 1, "txid": "d0f4320242184cf23606a0f39dd2a16447a9979133d5f396b6e70404df2e0c35"}], "txid": "c79ac7d405edc7c659b8a80ace24193e139a0327c84268941299824c73fbaac6", "blocktime": 1537873891, "version": 2, "confirmations": 11478, "time": 1537873891, "locktime": 542996, "vsize": 259, "size": 421}