{"hash": "c79c39071f63ca26a18aabe5fbf560342f9631afde2d479e55e5eca09411ac38", "blockhash": "0000000000000000000e13cef7c366c0283d82e591d1acd082e914b08063cdf1", "vout": [{"scriptPubKey": {"reqSigs": 1, "hex": "76a9140176748fbd43379b3167e2a594c4f4cbc7f378ed88ac", "addresses": ["18jacUY8mmt4o1th7HYywoDVodaJzpN7P"], "asm": "OP_DUP OP_HASH160 0176748fbd43379b3167e2a594c4f4cbc7f378ed OP_EQUALVERIFY OP_CHECKSIG", "type": "pubkeyhash"}, "value": 0.036728, "n": 0}, {"scriptPubKey": {"reqSigs": 1, "hex": "76a91419d7c4a4bd231410b8a604e1b6dc5f67f0bebacb88ac", "addresses": ["13MeNdUVhMg86L6DJqzMRey7u6ZNK4B6Jq"], "asm": "OP_DUP OP_HASH160 19d7c4a4bd231410b8a604e1b6dc5f67f0bebacb OP_EQUALVERIFY OP_CHECKSIG", "type": "pubkeyhash"}, "value": 0.05494997, "n": 1}], "hex": "0100000001879d6d507dc2bc4f6c922d07949b185a9caabee6dabd72f9d447041a5bebebac010000006b48304502210094b513a26d52328e71bbb3c07725f29ad4e1186b4d30d41f30b349fb991d9ab2022069e7527a550a43670c7be380b3e18d8e0ab98eb6de9d173f7cfb881106dff4a5012103978a51b449e7b058b6a9235c0cff9ca47d17148caf43c0eb9e12fc754e275fc0ffffffff02e00a3800000000001976a9140176748fbd43379b3167e2a594c4f4cbc7f378ed88acd5d85300000000001976a91419d7c4a4bd231410b8a604e1b6dc5f67f0bebacb88ac00000000", "vin": [{"sequence": 4294967295, "scriptSig": {"hex": "48304502210094b513a26d52328e71bbb3c07725f29ad4e1186b4d30d41f30b349fb991d9ab2022069e7527a550a43670c7be380b3e18d8e0ab98eb6de9d173f7cfb881106dff4a5012103978a51b449e7b058b6a9235c0cff9ca47d17148caf43c0eb9e12fc754e275fc0", "asm": "304502210094b513a26d52328e71bbb3c07725f29ad4e1186b4d30d41f30b349fb991d9ab2022069e7527a550a43670c7be380b3e18d8e0ab98eb6de9d173f7cfb881106dff4a5[ALL] 03978a51b449e7b058b6a9235c0cff9ca47d17148caf43c0eb9e12fc754e275fc0"}, "vout": 1, "txid": "acebeb5b1a0447d4f972bddae6beaa9c5a189b94072d926c4fbcc27d506d9d87"}], "txid": "c79c39071f63ca26a18aabe5fbf560342f9631afde2d479e55e5eca09411ac38", "blocktime": 1537871767, "version": 1, "confirmations": 11492, "time": 1537871767, "locktime": 0, "vsize": 226, "size": 226}