{"hash": "c79db1b2a42a17073c849d067cc323bbf7d2c7228c6bba39944a47dba1853e36", "blockhash": "00000000000000000004ffacab907a6b429b9a5745fa0b75af4234bf69dd7176", "vout": [{"scriptPubKey": {"reqSigs": 1, "hex": "76a9142a8dff91c6528cb509f5f7a9ad943faf72a0d8a188ac", "addresses": ["14t1VGqKhoAjLpRSZqNzn48BvX8JKZu4no"], "asm": "OP_DUP OP_HASH160 2a8dff91c6528cb509f5f7a9ad943faf72a0d8a1 OP_EQUALVERIFY OP_CHECKSIG", "type": "pubkeyhash"}, "value": 0.29998323, "n": 0}], "hex": "0100000002f942578e220fe2e387986aa75ad865a6225fae737563174123a604a3fadb2879010000006b483045022100e1fecc55b69fc07941103bbeae7ed787aa377eb454e147f15037ef52ea222f0102203bc5ec56ed6f46b334cf697ce4fced3b42c1393ec82cea3b8d4c4b928ef4030f01210359f1d3d570eedfc63259e2806facd5f8ef8c94ea05b0d887562cb03df13eb98effffffff8ac65e2758cc4092d595d2ade9be420e78cd5a1e77ee741e3c595ecd3c001799010000006b483045022100c1fcf4bb91d04565198b892f6ae3b0f7b06e74c8c5bcbda83596de3ef558cf5e02201a4e8991c4802fc1b36204dc5eacd77f89d42b14f1624e71ad148a1b76c1a7df0121024e54e2e523f8a701218a3a30225dbcbcfe6f3e1286146500c20141b4397ed111ffffffff01f3bcc901000000001976a9142a8dff91c6528cb509f5f7a9ad943faf72a0d8a188ac00000000", "vin": [{"sequence": 4294967295, "scriptSig": {"hex": "483045022100e1fecc55b69fc07941103bbeae7ed787aa377eb454e147f15037ef52ea222f0102203bc5ec56ed6f46b334cf697ce4fced3b42c1393ec82cea3b8d4c4b928ef4030f01210359f1d3d570eedfc63259e2806facd5f8ef8c94ea05b0d887562cb03df13eb98e", "asm": "3045022100e1fecc55b69fc07941103bbeae7ed787aa377eb454e147f15037ef52ea222f0102203bc5ec56ed6f46b334cf697ce4fced3b42c1393ec82cea3b8d4c4b928ef4030f[ALL] 0359f1d3d570eedfc63259e2806facd5f8ef8c94ea05b0d887562cb03df13eb98e"}, "vout": 1, "txid": "7928dbfaa304a6234117637573ae5f22a665d85aa76a9887e3e20f228e5742f9"}, {"sequence": 4294967295, "scriptSig": {"hex": "483045022100c1fcf4bb91d04565198b892f6ae3b0f7b06e74c8c5bcbda83596de3ef558cf5e02201a4e8991c4802fc1b36204dc5eacd77f89d42b14f1624e71ad148a1b76c1a7df0121024e54e2e523f8a701218a3a30225dbcbcfe6f3e1286146500c20141b4397ed111", "asm": "3045022100c1fcf4bb91d04565198b892f6ae3b0f7b06e74c8c5bcbda83596de3ef558cf5e02201a4e8991c4802fc1b36204dc5eacd77f89d42b14f1624e71ad148a1b76c1a7df[ALL] 024e54e2e523f8a701218a3a30225dbcbcfe6f3e1286146500c20141b4397ed111"}, "vout": 1, "txid": "9917003ccd5e593c1e74ee771e5acd780e42bee9add295d59240cc58275ec68a"}], "txid": "c79db1b2a42a17073c849d067cc323bbf7d2c7228c6bba39944a47dba1853e36", "blocktime": 1537875543, "version": 1, "confirmations": 11464, "time": 1537875543, "locktime": 0, "vsize": 340, "size": 340}