{"hash": "c7a7e6d485e7105b736222a99ef11c8432e96b07eba33d239f3e8e173e83c0f3", "blockhash": "0000000000000000001e0dab787dd257d1dbfcb92a98c2207d5e1078be1f4165", "vout": [{"scriptPubKey": {"reqSigs": 1, "hex": "a91479e857a32ec90d92b1ae522634ff93f8e24c38e987", "addresses": ["3Coc2BbsDT6ssn3NjmG3jrFciFdJuf4F9F"], "asm": "OP_HASH160 79e857a32ec90d92b1ae522634ff93f8e24c38e9 OP_EQUAL", "type": "scripthash"}, "value": 0.00369058, "n": 0}], "hex": "010000000183c42f8d8577b0608fcc35913dedb77af6a45951d090c46625a76e0076ade3b6020000006b483045022100ee84a87418b170309c53be1194b85a8067ea029bcd121de8d625a532db8a4776022014803b8d3b5c807a642fe62cce265c08ff246f92621efbbdfd3c51263802dc7401210381249ede9a6d4ed03f5856f1e6c7769e02a47a67280f29341cc21270f87b70d6ffffffff01a2a105000000000017a91479e857a32ec90d92b1ae522634ff93f8e24c38e98700000000", "vin": [{"sequence": 4294967295, "scriptSig": {"hex": "483045022100ee84a87418b170309c53be1194b85a8067ea029bcd121de8d625a532db8a4776022014803b8d3b5c807a642fe62cce265c08ff246f92621efbbdfd3c51263802dc7401210381249ede9a6d4ed03f5856f1e6c7769e02a47a67280f29341cc21270f87b70d6", "asm": "3045022100ee84a87418b170309c53be1194b85a8067ea029bcd121de8d625a532db8a4776022014803b8d3b5c807a642fe62cce265c08ff246f92621efbbdfd3c51263802dc74[ALL] 0381249ede9a6d4ed03f5856f1e6c7769e02a47a67280f29341cc21270f87b70d6"}, "vout": 2, "txid": "b6e3ad76006ea72566c490d05159a4f67ab7ed3d9135cc8f60b077858d2fc483"}], "txid": "c7a7e6d485e7105b736222a99ef11c8432e96b07eba33d239f3e8e173e83c0f3", "blocktime": 1537872475, "version": 1, "confirmations": 11486, "time": 1537872475, "locktime": 0, "vsize": 190, "size": 190}