{"hash": "886c4c4a6672389bbcb1b7bda4c2bfc19154efc04f533f29206e57281a1ec510", "blockhash": "0000000000000000001f76057863aec43deb6fa401d9628bb513d65a8098bfab", "vout": [{"scriptPubKey": {"reqSigs": 1, "hex": "a914f6c1a2496ac678591f8a421f1267b2c42346630287", "addresses": ["3QBk7eyWwW8QgUkmqH2MpAvsdzfEVJN2QY"], "asm": "OP_HASH160 f6c1a2496ac678591f8a421f1267b2c423466302 OP_EQUAL", "type": "scripthash"}, "value": 0.05218274, "n": 0}, {"scriptPubKey": {"reqSigs": 1, "hex": "a914a95e01b98d9b68d84f9870ca85716127d210e68787", "addresses": ["3H8YjfZmRqzTwLcCC1z6ezJEjXTWjvh9Eh"], "asm": "OP_HASH160 a95e01b98d9b68d84f9870ca85716127d210e687 OP_EQUAL", "type": "scripthash"}, "value": 0.05485335, "n": 1}], "hex": "02000000000101a74558cd737b7d458829d8097d2d0624ce6285d1f238ac1c57717ba797d0e5d70100000017160014506910c29af80528ff8e8fd1b9d69b3fd515a84cffffffff02e29f4f000000000017a914f6c1a2496ac678591f8a421f1267b2c4234663028717b353000000000017a914a95e01b98d9b68d84f9870ca85716127d210e687870247304402206f4be3956b038b5a372ec64b197e9fed333d6498e60fa7a04acbfaa508d80ab9022025d7eb3cad46d3cbbbaa243ae670e5c77464191821a6605435b51c5cbe7eebe901210277d9e3903de73c9f0f9d67170cd5e94bd3e80542576938344d1f17521530d85300000000", "vin": [{"txinwitness": ["304402206f4be3956b038b5a372ec64b197e9fed333d6498e60fa7a04acbfaa508d80ab9022025d7eb3cad46d3cbbbaa243ae670e5c77464191821a6605435b51c5cbe7eebe901", "0277d9e3903de73c9f0f9d67170cd5e94bd3e80542576938344d1f17521530d853"], "sequence": 4294967295, "scriptSig": {"hex": "160014506910c29af80528ff8e8fd1b9d69b3fd515a84c", "asm": "0014506910c29af80528ff8e8fd1b9d69b3fd515a84c"}, "vout": 1, "txid": "d7e5d097a77b71571cac38f2d18562ce24062d7d09d82988457d7b73cd5845a7"}], "txid": "c7b1fed5254e91087f8c5d6a93051513553be992bcf9afaf35bc24bbad8c4d97", "blocktime": 1537873891, "version": 2, "confirmations": 11475, "time": 1537873891, "locktime": 0, "vsize": 166, "size": 247}