{"hash": "31fdbf6484731eeb000a29afa00b46ca4b9af0cd74f3d5023dfd17958e637476", "blockhash": "0000000000000000001cda96e906b7601b7a6fb1a3b62bca570a9e5d8f4b3de1", "vout": [{"scriptPubKey": {"reqSigs": 1, "hex": "a91469f374bf0d486d81df0cac6042bd82dd695d581087", "addresses": ["3BMEXJpwwUyBvLR6GYStvozmSskTPs3fAY"], "asm": "OP_HASH160 69f374bf0d486d81df0cac6042bd82dd695d5810 OP_EQUAL", "type": "scripthash"}, "value": 0.00496405, "n": 0}, {"scriptPubKey": {"reqSigs": 1, "hex": "a914fc9600266e6a9c1196128557fc7c35c5ae15491987", "addresses": ["3QiZu7FAvo1CSTxSqCWvrXhrJ8nRv4f3YN"], "asm": "OP_HASH160 fc9600266e6a9c1196128557fc7c35c5ae154919 OP_EQUAL", "type": "scripthash"}, "value": 2.10857464, "n": 1}], "hex": "02000000000101d5a1b2873b9f9c90ae739a5705beb80cd1e27a1b1ff9c0896ab787720b75220e01000000171600147690e00f0bdbfcd35ed30cee27355f08cd58447cfeffffff02159307000000000017a91469f374bf0d486d81df0cac6042bd82dd695d581087f86d910c0000000017a914fc9600266e6a9c1196128557fc7c35c5ae15491987024730440220407b4c37643a3e64b0fc220c950acd8ee0d069f2f7567ade335d78d7947caa97022047af362aa6b7fcab69615e6a87ada8467ccb553fbd6df5ab2be032014eedc27b012102658df248247c893a880f2c35f333358991fbe2844cc1c18520b1197c96c7784113490800", "vin": [{"txinwitness": ["30440220407b4c37643a3e64b0fc220c950acd8ee0d069f2f7567ade335d78d7947caa97022047af362aa6b7fcab69615e6a87ada8467ccb553fbd6df5ab2be032014eedc27b01", "02658df248247c893a880f2c35f333358991fbe2844cc1c18520b1197c96c77841"], "sequence": 4294967294, "scriptSig": {"hex": "1600147690e00f0bdbfcd35ed30cee27355f08cd58447c", "asm": "00147690e00f0bdbfcd35ed30cee27355f08cd58447c"}, "vout": 1, "txid": "0e22750b7287b76a89c0f91f1b7ae2d10cb8be05579a73ae909c9f3b87b2a1d5"}], "txid": "c7b35eae39a39a97d4636bac473ff9b9609c59a8518054d052749185ec34ac2c", "blocktime": 1537873282, "version": 2, "confirmations": 11484, "time": 1537873282, "locktime": 542995, "vsize": 166, "size": 247}