{"hash": "c7bc5290daefc41672d1497e4101e6db6e2be1cb094c614f33050adfef0384d8", "blockhash": "0000000000000000001cda96e906b7601b7a6fb1a3b62bca570a9e5d8f4b3de1", "vout": [{"scriptPubKey": {"reqSigs": 1, "hex": "76a91481140e881fd9389c28405fd83f23a3de921a27b088ac", "addresses": ["1CmWCKFBEbt4Ln74Zea1gnF2bpiZcdHMr9"], "asm": "OP_DUP OP_HASH160 81140e881fd9389c28405fd83f23a3de921a27b0 OP_EQUALVERIFY OP_CHECKSIG", "type": "pubkeyhash"}, "value": 0.0033, "n": 0}, {"scriptPubKey": {"reqSigs": 1, "hex": "76a9147711eab6ffcc99e4376ac39f4022de413e1ea2a988ac", "addresses": ["1BrasiLb2KMbdtuhb1chAVnS2FvcNGfV9J"], "asm": "OP_DUP OP_HASH160 7711eab6ffcc99e4376ac39f4022de413e1ea2a9 OP_EQUALVERIFY OP_CHECKSIG", "type": "pubkeyhash"}, "value": 0.00431488, "n": 1}], "hex": "0200000001f3f2562f6c4832bd29645fc85c2959d4837fe083b21ddef44655be976183f9d0010000006a47304402204d0cfe60caae5547ab692896c20187ee4989dd2982ccce1e56e940a9a8d0e007022009906b2058485f60fda5df927efa86b107f93935c5028d720bffd4adc770dc0d012103395f19551be49539382743c3d36ab46cbea5bde02eb970d9475bd902427dc4f6ffffffff0210090500000000001976a91481140e881fd9389c28405fd83f23a3de921a27b088ac80950600000000001976a9147711eab6ffcc99e4376ac39f4022de413e1ea2a988ac00000000", "vin": [{"sequence": 4294967295, "scriptSig": {"hex": "47304402204d0cfe60caae5547ab692896c20187ee4989dd2982ccce1e56e940a9a8d0e007022009906b2058485f60fda5df927efa86b107f93935c5028d720bffd4adc770dc0d012103395f19551be49539382743c3d36ab46cbea5bde02eb970d9475bd902427dc4f6", "asm": "304402204d0cfe60caae5547ab692896c20187ee4989dd2982ccce1e56e940a9a8d0e007022009906b2058485f60fda5df927efa86b107f93935c5028d720bffd4adc770dc0d[ALL] 03395f19551be49539382743c3d36ab46cbea5bde02eb970d9475bd902427dc4f6"}, "vout": 1, "txid": "d0f9836197be5546f4de1db283e07f83d459295cc85f6429bd32486c2f56f2f3"}], "txid": "c7bc5290daefc41672d1497e4101e6db6e2be1cb094c614f33050adfef0384d8", "blocktime": 1537873282, "version": 2, "confirmations": 11484, "time": 1537873282, "locktime": 0, "vsize": 225, "size": 225}