{"hash": "c7c0efcfd06c2f6ef61e3c1189b21975152b44a3ef55db066cf55149a6502a6e", "blockhash": "0000000000000000001f76057863aec43deb6fa401d9628bb513d65a8098bfab", "vout": [{"scriptPubKey": {"reqSigs": 1, "hex": "76a9143e37a4bc7a616534784f27ab192a4cb3a40094e788ac", "addresses": ["16fyZ5AEa749C7H2K8NaTUCeoMXq29CYNQ"], "asm": "OP_DUP OP_HASH160 3e37a4bc7a616534784f27ab192a4cb3a40094e7 OP_EQUALVERIFY OP_CHECKSIG", "type": "pubkeyhash"}, "value": 0.00053458, "n": 0}, {"scriptPubKey": {"reqSigs": 1, "hex": "76a9147daa418c2e8ebfeb0fc0add84fbf08e7d5fa59a788ac", "addresses": ["1CTTRaRPBh2v9mppwpB4RVximFMeZUPPEA"], "asm": "OP_DUP OP_HASH160 7daa418c2e8ebfeb0fc0add84fbf08e7d5fa59a7 OP_EQUALVERIFY OP_CHECKSIG", "type": "pubkeyhash"}, "value": 0.00249727, "n": 1}], "hex": "0100000001bd5ce231af7badad934ccfffbcd75d7c5ff082317a2b4ac3eff7904560b3e8f8010000006a4730440220080ac22a50b9fe93bdcc4f00206737750081933fa676cedc633d4210286afee70220663406a8ebd11ff4a6b30488f0a953eab82f02fb0d284e2bee3d43af50c816220121037634685a98c0e38c28bd295cd1e15ad449c151bf87f2a1b949fc7064b8d4d02cffffffff02d2d00000000000001976a9143e37a4bc7a616534784f27ab192a4cb3a40094e788ac7fcf0300000000001976a9147daa418c2e8ebfeb0fc0add84fbf08e7d5fa59a788ac00000000", "vin": [{"sequence": 4294967295, "scriptSig": {"hex": "4730440220080ac22a50b9fe93bdcc4f00206737750081933fa676cedc633d4210286afee70220663406a8ebd11ff4a6b30488f0a953eab82f02fb0d284e2bee3d43af50c816220121037634685a98c0e38c28bd295cd1e15ad449c151bf87f2a1b949fc7064b8d4d02c", "asm": "30440220080ac22a50b9fe93bdcc4f00206737750081933fa676cedc633d4210286afee70220663406a8ebd11ff4a6b30488f0a953eab82f02fb0d284e2bee3d43af50c81622[ALL] 037634685a98c0e38c28bd295cd1e15ad449c151bf87f2a1b949fc7064b8d4d02c"}, "vout": 1, "txid": "f8e8b3604590f7efc34a2b7a3182f05f7c5dd7bcffcf4c93adad7baf31e25cbd"}], "txid": "c7c0efcfd06c2f6ef61e3c1189b21975152b44a3ef55db066cf55149a6502a6e", "blocktime": 1537873891, "version": 1, "confirmations": 11477, "time": 1537873891, "locktime": 0, "vsize": 225, "size": 225}