{"hash": "c7c5e2c35e6ad45fcc95d3179e92a04f9a9deb472036073c4bdb13ae40ecdbde", "blockhash": "00000000000000000017f5eb5941039fbcee6240d03bc1f2f8e35350df66a1d8", "vout": [{"scriptPubKey": {"reqSigs": 1, "hex": "76a91415c922b415415cc193c4654df01a5e03ab6c210488ac", "addresses": ["12zC9AzBwN6XBdmkpn3jEz9wECC2GXwNuM"], "asm": "OP_DUP OP_HASH160 15c922b415415cc193c4654df01a5e03ab6c2104 OP_EQUALVERIFY OP_CHECKSIG", "type": "pubkeyhash"}, "value": 0.00778035, "n": 0}, {"scriptPubKey": {"reqSigs": 1, "hex": "76a914ba362a552507ce1b85ce4cf0b472cda8d9e9404788ac", "addresses": ["1HybaA316NHGfHaZvvw2ksPUnbzuGMauKj"], "asm": "OP_DUP OP_HASH160 ba362a552507ce1b85ce4cf0b472cda8d9e94047 OP_EQUALVERIFY OP_CHECKSIG", "type": "pubkeyhash"}, "value": 0.00066509, "n": 1}], "hex": "01000000017b37336c7ca4e1579db2382dae043cc7039d18af0f702dc43a6b4b82a5d14edb000000006a473044022056905905f85c4066b182d8a8cdebc5dec6ccf51ed1c2c0fcb403598e14389e6c02201db18af0eae0eb95b253eee6566928458753200e323336f58ff1952695e1db05012103ed06b9f74ad52a3ff1c5de5b8f8814c301e8b24a6539b6e9eda74062ec2f422fffffffff0233df0b00000000001976a91415c922b415415cc193c4654df01a5e03ab6c210488accd030100000000001976a914ba362a552507ce1b85ce4cf0b472cda8d9e9404788ac00000000", "vin": [{"sequence": 4294967295, "scriptSig": {"hex": "473044022056905905f85c4066b182d8a8cdebc5dec6ccf51ed1c2c0fcb403598e14389e6c02201db18af0eae0eb95b253eee6566928458753200e323336f58ff1952695e1db05012103ed06b9f74ad52a3ff1c5de5b8f8814c301e8b24a6539b6e9eda74062ec2f422f", "asm": "3044022056905905f85c4066b182d8a8cdebc5dec6ccf51ed1c2c0fcb403598e14389e6c02201db18af0eae0eb95b253eee6566928458753200e323336f58ff1952695e1db05[ALL] 03ed06b9f74ad52a3ff1c5de5b8f8814c301e8b24a6539b6e9eda74062ec2f422f"}, "vout": 0, "txid": "db4ed1a5824b6b3ac42d700faf189d03c73c04ae2d38b29d57e1a47c6c33377b"}], "txid": "c7c5e2c35e6ad45fcc95d3179e92a04f9a9deb472036073c4bdb13ae40ecdbde", "blocktime": 1537874412, "version": 1, "confirmations": 11467, "time": 1537874412, "locktime": 0, "vsize": 225, "size": 225}