{"hash": "c7ccbe3fcd9a5598445f2cb6e995c0c47cc82449353500aa5cec0d742fcebb3d", "blockhash": "00000000000000000004ffacab907a6b429b9a5745fa0b75af4234bf69dd7176", "vout": [{"scriptPubKey": {"reqSigs": 1, "hex": "76a914f403496ccb36f360875bd33f8735ac28c8ffb95788ac", "addresses": ["1PFDpBMtZZbDrtk5LPyKTT1WaTsYU7LCqE"], "asm": "OP_DUP OP_HASH160 f403496ccb36f360875bd33f8735ac28c8ffb957 OP_EQUALVERIFY OP_CHECKSIG", "type": "pubkeyhash"}, "value": 0.38286014, "n": 0}, {"scriptPubKey": {"reqSigs": 1, "hex": "a9141d41fe5741459a90bb99f7a30d17c615b234278c87", "addresses": ["34MiaR8krVL54L9K8fdQkkzNrYZYrSmSuS"], "asm": "OP_HASH160 1d41fe5741459a90bb99f7a30d17c615b234278c OP_EQUAL", "type": "scripthash"}, "value": 0.12505568, "n": 1}], "hex": "0100000001eb973ccf35acc3a054ec3af52bafc11365bdd98d05bf3d9ab65935fd76921516010000006a47304402207b8b99cb1a5a1b5dfe448cb5df4e813deb60ab2e8c9fe767e39f26f355727d420220573e095968e5588357676e76c50cafa17afa2bd31a5e9595e2ee3c4a4b91d8fd0121030006e2a512d135031c4d3cb89e79072d281f0523f659fa1cb83fbe1d05db6165ffffffff02be324802000000001976a914f403496ccb36f360875bd33f8735ac28c8ffb95788ace0d1be000000000017a9141d41fe5741459a90bb99f7a30d17c615b234278c8700000000", "vin": [{"sequence": 4294967295, "scriptSig": {"hex": "47304402207b8b99cb1a5a1b5dfe448cb5df4e813deb60ab2e8c9fe767e39f26f355727d420220573e095968e5588357676e76c50cafa17afa2bd31a5e9595e2ee3c4a4b91d8fd0121030006e2a512d135031c4d3cb89e79072d281f0523f659fa1cb83fbe1d05db6165", "asm": "304402207b8b99cb1a5a1b5dfe448cb5df4e813deb60ab2e8c9fe767e39f26f355727d420220573e095968e5588357676e76c50cafa17afa2bd31a5e9595e2ee3c4a4b91d8fd[ALL] 030006e2a512d135031c4d3cb89e79072d281f0523f659fa1cb83fbe1d05db6165"}, "vout": 1, "txid": "16159276fd3559b69a3dbf058dd9bd6513c1af2bf53aec54a0c3ac35cf3c97eb"}], "txid": "c7ccbe3fcd9a5598445f2cb6e995c0c47cc82449353500aa5cec0d742fcebb3d", "blocktime": 1537875543, "version": 1, "confirmations": 11464, "time": 1537875543, "locktime": 0, "vsize": 223, "size": 223}