{"hash": "c7d1c497647e06f428707a0c3f73cc3109e7757d8c023d383b33196157ff2dc9", "blockhash": "0000000000000000001e0dab787dd257d1dbfcb92a98c2207d5e1078be1f4165", "vout": [{"scriptPubKey": {"reqSigs": 1, "hex": "76a914a9f65a2c90d81682cd0cc45dba591cdcd64ca81888ac", "addresses": ["1GVgKGr9RBGd7T8FPVAZKuHzmLpwsmqWkp"], "asm": "OP_DUP OP_HASH160 a9f65a2c90d81682cd0cc45dba591cdcd64ca818 OP_EQUALVERIFY OP_CHECKSIG", "type": "pubkeyhash"}, "value": 0.0001, "n": 0}, {"scriptPubKey": {"reqSigs": 1, "hex": "76a9146997e6577a3231a69492831d139d6e5d09e6619688ac", "addresses": ["1AdKvKkvL8wUapMcvD3MjVLpmf4QnuxSSY"], "asm": "OP_DUP OP_HASH160 6997e6577a3231a69492831d139d6e5d09e66196 OP_EQUALVERIFY OP_CHECKSIG", "type": "pubkeyhash"}, "value": 0.00212127, "n": 1}], "hex": "0100000001e24ffdea69f2dd97a042884de0400e4752722bd592c670cc06e38cf3dc5ab529010000006a47304402200a9f27470bcb7e867f7fdd66f3f793c68e8e1244d4747f57bd27d1a51fda4f920220404befa626d3f157543b27c005acb420368a2ffe12f823fc5815e5eca305b7a90121029b07acb4e31fb44f1aac1b5d6e6eeb04302e6a4cd153e9c596b60498e2d3c2baffffffff0210270000000000001976a914a9f65a2c90d81682cd0cc45dba591cdcd64ca81888ac9f3c0300000000001976a9146997e6577a3231a69492831d139d6e5d09e6619688ac00000000", "vin": [{"sequence": 4294967295, "scriptSig": {"hex": "47304402200a9f27470bcb7e867f7fdd66f3f793c68e8e1244d4747f57bd27d1a51fda4f920220404befa626d3f157543b27c005acb420368a2ffe12f823fc5815e5eca305b7a90121029b07acb4e31fb44f1aac1b5d6e6eeb04302e6a4cd153e9c596b60498e2d3c2ba", "asm": "304402200a9f27470bcb7e867f7fdd66f3f793c68e8e1244d4747f57bd27d1a51fda4f920220404befa626d3f157543b27c005acb420368a2ffe12f823fc5815e5eca305b7a9[ALL] 029b07acb4e31fb44f1aac1b5d6e6eeb04302e6a4cd153e9c596b60498e2d3c2ba"}, "vout": 1, "txid": "29b55adcf38ce306cc70c692d52b7252470e40e04d8842a097ddf269eafd4fe2"}], "txid": "c7d1c497647e06f428707a0c3f73cc3109e7757d8c023d383b33196157ff2dc9", "blocktime": 1537872475, "version": 1, "confirmations": 11487, "time": 1537872475, "locktime": 0, "vsize": 225, "size": 225}