{"hash": "6b6f9281b05c21a987c9ab42ff42afd923be88e602ead61a92378d812443e0c2", "blockhash": "00000000000000000024a2167bbff67b0be802c0b01cdd79e6331c2be6459f87", "vout": [{"scriptPubKey": {"reqSigs": 1, "hex": "76a91476186141e4c4a05ee5e730e0c04306dc3a3bc31d88ac", "addresses": ["1BmRwakgn1mC11wbRW2Yto39VW5e81SrAR"], "asm": "OP_DUP OP_HASH160 76186141e4c4a05ee5e730e0c04306dc3a3bc31d OP_EQUALVERIFY OP_CHECKSIG", "type": "pubkeyhash"}, "value": 0.000625, "n": 0}, {"scriptPubKey": {"reqSigs": 1, "hex": "a914627aa52932456d89054bd84f86246af3b71b93a887", "addresses": ["3Afj4stdiLG9EktGrMbm252ySonnhYaz8v"], "asm": "OP_HASH160 627aa52932456d89054bd84f86246af3b71b93a8 OP_EQUAL", "type": "scripthash"}, "value": 0.46487627, "n": 1}], "hex": "01000000000101b09b6a35d10c06778e6fcf325bd4c921b6ae4629f7635e08a58816cefddb006d01000000232200205fdd641234b13964b223bd85ad2a4a667ca2099df3d42a1d3b45706a8d81abf0ffffffff0224f40000000000001976a91476186141e4c4a05ee5e730e0c04306dc3a3bc31d88ac4b58c5020000000017a914627aa52932456d89054bd84f86246af3b71b93a887040047304402200c0acec1e4b729537f7c6858eeae9109b2ce243e6a1953c0e5b53e3068730bd1022015dda6644f30369bf127dc0ce8a3ed7d6ffada91d1875923f22a6bbc1f5ab91d01483045022100a2c6a07c333dd219ea4427aa6905744261778d950874d4b626a7bc9c193063fb0220554675aaf58073661aa4d8d5a5eb8dc28922211d0a671da4d1f7708c5bbec2670147522103dcde3832fa56def7b4e783faad1b8af85c3cdd74a5ff4f3c7c216b1075c18da12103c70ae8ded79be1afda73b9ce5ea14a3878908ee160d66a9a717e792bb6db276952ae00000000", "vin": [{"txinwitness": ["", "304402200c0acec1e4b729537f7c6858eeae9109b2ce243e6a1953c0e5b53e3068730bd1022015dda6644f30369bf127dc0ce8a3ed7d6ffada91d1875923f22a6bbc1f5ab91d01", "3045022100a2c6a07c333dd219ea4427aa6905744261778d950874d4b626a7bc9c193063fb0220554675aaf58073661aa4d8d5a5eb8dc28922211d0a671da4d1f7708c5bbec26701", "522103dcde3832fa56def7b4e783faad1b8af85c3cdd74a5ff4f3c7c216b1075c18da12103c70ae8ded79be1afda73b9ce5ea14a3878908ee160d66a9a717e792bb6db276952ae"], "sequence": 4294967295, "scriptSig": {"hex": "2200205fdd641234b13964b223bd85ad2a4a667ca2099df3d42a1d3b45706a8d81abf0", "asm": "00205fdd641234b13964b223bd85ad2a4a667ca2099df3d42a1d3b45706a8d81abf0"}, "vout": 1, "txid": "6d00dbfdce1688a5085e63f72946aeb621c9d45b32cf6f8e77060cd1356a9bb0"}], "txid": "c7d3458a818fa0473b8f7d779c9b9f3aa701f85e7b4ddcf9b93e9c755e8c2d6e", "blocktime": 1537870564, "version": 1, "confirmations": 11515, "time": 1537870564, "locktime": 0, "vsize": 208, "size": 373}