{"hash": "ff945240502c39aa7605c0b82a29f192f2b4e04a215c40a781ace66cac61d29f", "blockhash": "0000000000000000000e13cef7c366c0283d82e591d1acd082e914b08063cdf1", "vout": [{"scriptPubKey": {"reqSigs": 1, "hex": "a91432db6931b68d875c82ca3270247568cb6190658387", "addresses": ["36KvZ5BUrfLsupxJrKc5WoAKvGtHkEbXHa"], "asm": "OP_HASH160 32db6931b68d875c82ca3270247568cb61906583 OP_EQUAL", "type": "scripthash"}, "value": 0.00999646, "n": 0}, {"scriptPubKey": {"reqSigs": 1, "hex": "76a914d08996c47fceac06dc7bcb8b41ea858b0b4721f488ac", "addresses": ["1L1eNkMsn5dX6itogsaNiSFoJWhx2hCGfQ"], "asm": "OP_DUP OP_HASH160 d08996c47fceac06dc7bcb8b41ea858b0b4721f4 OP_EQUALVERIFY OP_CHECKSIG", "type": "pubkeyhash"}, "value": 0.0032226, "n": 1}], "hex": "02000000000102945120f39d507243a557a58b2899a79123cb25d312da64b580164cd643bfd5580100000017160014f372ee393241e745a4d688ec9708e9685c326209fefffffffcf6d58940f5de3699b19f0e5f564ab2b6c31af931d5aadda618f3c4d6a6ee330600000017160014ed1dc0a8a6965f70edee624763ccdb19ba0188c7feffffff02de400f000000000017a91432db6931b68d875c82ca3270247568cb6190658387d4ea0400000000001976a914d08996c47fceac06dc7bcb8b41ea858b0b4721f488ac02483045022100a768eae12ea53473a304fb8826753dffc7696f89ab071f8e047b7fa5980e971a022003a55010075fdad7bb767a1ddfd2d8b5ad23d5f74ed6521b7de95c10304fcbdc0121026d86d2ce9dcd3f4c34a196ed929955ce0d97f14782c5d64c0fe7ba9beb1d93af02483045022100ae556e93243b7f0fb86b461554f5adbd266f5d2238d2298c2fb80aa2278e65150220032ed76099d35acfa17bc11f27bfff974e3658076c74d237f2c7006d6fb147e601210272fb98b7b578066a5050ad6de69941a01b59e0104af8a90f388d497ec265d0f410490800", "vin": [{"txinwitness": ["3045022100a768eae12ea53473a304fb8826753dffc7696f89ab071f8e047b7fa5980e971a022003a55010075fdad7bb767a1ddfd2d8b5ad23d5f74ed6521b7de95c10304fcbdc01", "026d86d2ce9dcd3f4c34a196ed929955ce0d97f14782c5d64c0fe7ba9beb1d93af"], "sequence": 4294967294, "scriptSig": {"hex": "160014f372ee393241e745a4d688ec9708e9685c326209", "asm": "0014f372ee393241e745a4d688ec9708e9685c326209"}, "vout": 1, "txid": "58d5bf43d64c1680b564da12d325cb2391a799288ba557a54372509df3205194"}, {"txinwitness": ["3045022100ae556e93243b7f0fb86b461554f5adbd266f5d2238d2298c2fb80aa2278e65150220032ed76099d35acfa17bc11f27bfff974e3658076c74d237f2c7006d6fb147e601", "0272fb98b7b578066a5050ad6de69941a01b59e0104af8a90f388d497ec265d0f4"], "sequence": 4294967294, "scriptSig": {"hex": "160014ed1dc0a8a6965f70edee624763ccdb19ba0188c7", "asm": "0014ed1dc0a8a6965f70edee624763ccdb19ba0188c7"}, "vout": 6, "txid": "33eea6d6c4f318a6ddaad531f91ac3b6b24a565f0e9fb19936def54089d5f6fc"}], "txid": "c7d5d4c6215e699ae631168b23b797e9886b887685200c525a218039eb96f8bd", "blocktime": 1537871767, "version": 2, "confirmations": 11495, "time": 1537871767, "locktime": 542992, "vsize": 259, "size": 422}