{"hash": "c7d96d4d5461ad5359ea0cf2f2eb55fae14c4054b1719a7ddbec410a41d4693e", "blockhash": "0000000000000000001f76057863aec43deb6fa401d9628bb513d65a8098bfab", "vout": [{"scriptPubKey": {"reqSigs": 1, "hex": "76a9143a457fb28a7d67daeef00cc7be67d6eb0caf107988ac", "addresses": ["16K7SzLz86y7P9ishsKRTKjr3zgYJituG3"], "asm": "OP_DUP OP_HASH160 3a457fb28a7d67daeef00cc7be67d6eb0caf1079 OP_EQUALVERIFY OP_CHECKSIG", "type": "pubkeyhash"}, "value": 0.089525, "n": 0}, {"scriptPubKey": {"reqSigs": 1, "hex": "76a91433864b6d3d2df9fdf227842c37aeec8614e5fa0088ac", "addresses": ["15hSLjpMmZCV3o5T3yBtgKTDRLfZetryKD"], "asm": "OP_DUP OP_HASH160 33864b6d3d2df9fdf227842c37aeec8614e5fa00 OP_EQUALVERIFY OP_CHECKSIG", "type": "pubkeyhash"}, "value": 0.1, "n": 1}], "hex": "01000000013489719ffb1db8e5140e6460560a497c99c5d2cbe09e1d19e54249e3f637250e010000006b483045022100d11222aef705901ceff0bfc1513e5e968f8837c879e1d67c664db26a74487f3102204ccc8b3a3fba470d33495cd597b01c63b8fc1ea55f9be8e05a1c9c6a5cabf564012103f04534c85e0b68d903cae09447f82c09586d783e28f66c9bc9a7c557b1775413feffffff02b49a8800000000001976a9143a457fb28a7d67daeef00cc7be67d6eb0caf107988ac80969800000000001976a91433864b6d3d2df9fdf227842c37aeec8614e5fa0088ac14490800", "vin": [{"sequence": 4294967294, "scriptSig": {"hex": "483045022100d11222aef705901ceff0bfc1513e5e968f8837c879e1d67c664db26a74487f3102204ccc8b3a3fba470d33495cd597b01c63b8fc1ea55f9be8e05a1c9c6a5cabf564012103f04534c85e0b68d903cae09447f82c09586d783e28f66c9bc9a7c557b1775413", "asm": "3045022100d11222aef705901ceff0bfc1513e5e968f8837c879e1d67c664db26a74487f3102204ccc8b3a3fba470d33495cd597b01c63b8fc1ea55f9be8e05a1c9c6a5cabf564[ALL] 03f04534c85e0b68d903cae09447f82c09586d783e28f66c9bc9a7c557b1775413"}, "vout": 1, "txid": "0e2537f6e34942e5191d9ee0cbd2c5997c490a5660640e14e5b81dfb9f718934"}], "txid": "c7d96d4d5461ad5359ea0cf2f2eb55fae14c4054b1719a7ddbec410a41d4693e", "blocktime": 1537873891, "version": 1, "confirmations": 11477, "time": 1537873891, "locktime": 542996, "vsize": 226, "size": 226}