{"hash": "c7ded10a6c223eedc0ed174219fe8ea7955b186fc01283038e758139a6fbd47e", "blockhash": "00000000000000000017f5eb5941039fbcee6240d03bc1f2f8e35350df66a1d8", "vout": [{"scriptPubKey": {"reqSigs": 1, "hex": "76a9147a217c5cdb7aadaa372aca86f04fc7a4c908a22088ac", "addresses": ["1C8mZ39CcL8U6ydRE3T1j6CZ9yvzymy9hp"], "asm": "OP_DUP OP_HASH160 7a217c5cdb7aadaa372aca86f04fc7a4c908a220 OP_EQUALVERIFY OP_CHECKSIG", "type": "pubkeyhash"}, "value": 0.08961889, "n": 0}, {"scriptPubKey": {"reqSigs": 1, "hex": "76a9146a50c358387dcfbf1aa286c585d13ac0723e272188ac", "addresses": ["1Ah9NrJuPACTd9TFxibnkf6rv6nDNLQ7to"], "asm": "OP_DUP OP_HASH160 6a50c358387dcfbf1aa286c585d13ac0723e2721 OP_EQUALVERIFY OP_CHECKSIG", "type": "pubkeyhash"}, "value": 0.60159638, "n": 1}], "hex": "01000000016332d9ab2746e974d5e58aacb9a9113ffd8fa4960be7051a9fcdb5dddece1b66010000006a4730440220226a6d4b434e947fa373288723fd2e3d91c297df641789304821d1205eaabbb702207e5e27ccde45c361359abf48c575deceaab63aafd8145e20fb5058b090ca1c450121034f88bc2a34b224b79247b3ee7bb98c89d9bb6b015ae1e1671a0bfe1532e58d34ffffffff0261bf8800000000001976a9147a217c5cdb7aadaa372aca86f04fc7a4c908a22088ac96f69503000000001976a9146a50c358387dcfbf1aa286c585d13ac0723e272188ac00000000", "vin": [{"sequence": 4294967295, "scriptSig": {"hex": "4730440220226a6d4b434e947fa373288723fd2e3d91c297df641789304821d1205eaabbb702207e5e27ccde45c361359abf48c575deceaab63aafd8145e20fb5058b090ca1c450121034f88bc2a34b224b79247b3ee7bb98c89d9bb6b015ae1e1671a0bfe1532e58d34", "asm": "30440220226a6d4b434e947fa373288723fd2e3d91c297df641789304821d1205eaabbb702207e5e27ccde45c361359abf48c575deceaab63aafd8145e20fb5058b090ca1c45[ALL] 034f88bc2a34b224b79247b3ee7bb98c89d9bb6b015ae1e1671a0bfe1532e58d34"}, "vout": 1, "txid": "661bcededdb5cd9f1a05e70b96a48ffd3f11a9b9ac8ae5d574e94627abd93263"}], "txid": "c7ded10a6c223eedc0ed174219fe8ea7955b186fc01283038e758139a6fbd47e", "blocktime": 1537874412, "version": 1, "confirmations": 11467, "time": 1537874412, "locktime": 0, "vsize": 225, "size": 225}