{"hash": "06773dc0648fdbbba3bdd019405d58626e03cf1ff60766c6e292312dd556486f", "blockhash": "00000000000000000024a2167bbff67b0be802c0b01cdd79e6331c2be6459f87", "vout": [{"scriptPubKey": {"reqSigs": 1, "hex": "76a9146dd8b4cc066c81b9b7491aa695fae6a78ae450c788ac", "addresses": ["1B1pFvXg5tdTrv4UadkRybcvXwGF5nrSgf"], "asm": "OP_DUP OP_HASH160 6dd8b4cc066c81b9b7491aa695fae6a78ae450c7 OP_EQUALVERIFY OP_CHECKSIG", "type": "pubkeyhash"}, "value": 0.01715316, "n": 0}, {"scriptPubKey": {"reqSigs": 1, "hex": "00148316f9a31d834a18113a82de1464ffc9938693f0", "addresses": ["bc1qsvt0ngcasd9psyf6st0pge8lexfcdylsqa20lt"], "asm": "0 8316f9a31d834a18113a82de1464ffc9938693f0", "type": "witness_v0_keyhash"}, "value": 0.00036124, "n": 1}], "hex": "010000000001017f803f7e022f5381cb54a48f56fb174bb943e9639b68b1fe02838007b741ee9ecc03000017160014fe0df7bc61f2daee17981266ed4f8cd0fc80094dffffffff02742c1a00000000001976a9146dd8b4cc066c81b9b7491aa695fae6a78ae450c788ac1c8d0000000000001600148316f9a31d834a18113a82de1464ffc9938693f002483045022100b7ec443c462a91d50f51be588127a42d631d6f7e63dc92528cda0fa167d1db1d022057b8deb1e8a36d509efaeb38ea409abff825faa8a1b1211e12624870ecc9ee3d012102589f561ecffc07c4f51346d24a4299dd276e2176710169098736c14412eee7ed00000000", "vin": [{"txinwitness": ["3045022100b7ec443c462a91d50f51be588127a42d631d6f7e63dc92528cda0fa167d1db1d022057b8deb1e8a36d509efaeb38ea409abff825faa8a1b1211e12624870ecc9ee3d01", "02589f561ecffc07c4f51346d24a4299dd276e2176710169098736c14412eee7ed"], "sequence": 4294967295, "scriptSig": {"hex": "160014fe0df7bc61f2daee17981266ed4f8cd0fc80094d", "asm": "0014fe0df7bc61f2daee17981266ed4f8cd0fc80094d"}, "vout": 972, "txid": "9eee41b707808302feb1689b63e943b94b17fb568fa454cb81532f027e3f807f"}], "txid": "c7e0d9bcfc030f52d2edaf5fa8c8b3463590c184b0811fb032df10fe54ea56d1", "blocktime": 1537870564, "version": 1, "confirmations": 11515, "time": 1537870564, "locktime": 0, "vsize": 167, "size": 249}