{"hash": "37cbceec67726c6c8239e9858a36aff8373d3ea40b6a34934ec4b116c705e99e", "blockhash": "000000000000000000022b45ed06c6f4ccd3cf7fb5ba4856ebd2e58215665228", "vout": [{"scriptPubKey": {"reqSigs": 1, "hex": "76a9141ac9277b33760bfcc475a5f474794b888d16af7688ac", "addresses": ["13SdYRq3Gc36QYywaQ9T5wXrDrovWcdxhE"], "asm": "OP_DUP OP_HASH160 1ac9277b33760bfcc475a5f474794b888d16af76 OP_EQUALVERIFY OP_CHECKSIG", "type": "pubkeyhash"}, "value": 0.00035, "n": 0}, {"scriptPubKey": {"reqSigs": 1, "hex": "a914781de5cbaeafbd185425042c1665389ee3dd0ee287", "addresses": ["3Ce8ptSnpKbtt8cqKfFmNXw9LvNPrYtH56"], "asm": "OP_HASH160 781de5cbaeafbd185425042c1665389ee3dd0ee2 OP_EQUAL", "type": "scripthash"}, "value": 0.00737055, "n": 1}], "hex": "0100000000010244be4a0445d2e53f5db6c738a221bbf3ea920296e3e3dfe8a133008f71de869401000000232200202ce4a9e1f49512060d8bd5bac5b076fb4fb6ae11ed244a2e557b7637cc23dd55fffffffff1ef3f36b54fa6d150db5af0cdd9973d0bc3e188b248f644ee608cd84c2476ea0000000023220020a9203eb4bac25fc86cd186cc648f143ea4eefced23a0be5a4bf43e0c41f0c27fffffffff02b8880000000000001976a9141ac9277b33760bfcc475a5f474794b888d16af7688ac1f3f0b000000000017a914781de5cbaeafbd185425042c1665389ee3dd0ee287040047304402202e3a460458c16661fc7a54b018a2d16dd1d6699a823dc9ab7e629528491d94fe022020212f45f554856b704930cfd5b21f24e99964d9ba357b5d1ee0d0e1ca20961101483045022100b30f14f703088ae4252801414c57552e03eb0c0318407b995c35771e6f2db045022075e0d53341ddb80ded9f82c2c48878346bbb76599cf2e36ed4e94e47ac24fc450147522102e473b457bff79868a0a8d619a5a584ff8af65facd3cbf609dac1f3fcefd9343d210236912f09424642e5e1323cc60709095cc9d6b3cf78408de56fbe62ce05311f2152ae0400483045022100d41628db5aa45c61256d4cb6f8b9b46808d70a7fe28fd5127e478eeb7a7628ae02202f72a3556ddcf3f0bf178dd289f979d16f91597fd6b66a770a926165f76b4b0a0147304402207f817c0f91e7cd278d38a7d9eac0f0a5e79c394e871ded36dc0310503b6a67d9022069177a7607d56f6e312bc679e82eb6969b487aa4a8d9e1aae79640ebb05f239001475221037a3864954fc8eaadeefeeb419289682e1aa0354eec5b0f970b8ac5563495d452210236912f09424642e5e1323cc60709095cc9d6b3cf78408de56fbe62ce05311f2152ae00000000", "vin": [{"txinwitness": ["", "304402202e3a460458c16661fc7a54b018a2d16dd1d6699a823dc9ab7e629528491d94fe022020212f45f554856b704930cfd5b21f24e99964d9ba357b5d1ee0d0e1ca20961101", "3045022100b30f14f703088ae4252801414c57552e03eb0c0318407b995c35771e6f2db045022075e0d53341ddb80ded9f82c2c48878346bbb76599cf2e36ed4e94e47ac24fc4501", "522102e473b457bff79868a0a8d619a5a584ff8af65facd3cbf609dac1f3fcefd9343d210236912f09424642e5e1323cc60709095cc9d6b3cf78408de56fbe62ce05311f2152ae"], "sequence": 4294967295, "scriptSig": {"hex": "2200202ce4a9e1f49512060d8bd5bac5b076fb4fb6ae11ed244a2e557b7637cc23dd55", "asm": "00202ce4a9e1f49512060d8bd5bac5b076fb4fb6ae11ed244a2e557b7637cc23dd55"}, "vout": 1, "txid": "9486de718f0033a1e8dfe3e3960292eaf3bb21a238c7b65d3fe5d245044abe44"}, {"txinwitness": ["", "3045022100d41628db5aa45c61256d4cb6f8b9b46808d70a7fe28fd5127e478eeb7a7628ae02202f72a3556ddcf3f0bf178dd289f979d16f91597fd6b66a770a926165f76b4b0a01", "304402207f817c0f91e7cd278d38a7d9eac0f0a5e79c394e871ded36dc0310503b6a67d9022069177a7607d56f6e312bc679e82eb6969b487aa4a8d9e1aae79640ebb05f239001", "5221037a3864954fc8eaadeefeeb419289682e1aa0354eec5b0f970b8ac5563495d452210236912f09424642e5e1323cc60709095cc9d6b3cf78408de56fbe62ce05311f2152ae"], "sequence": 4294967295, "scriptSig": {"hex": "220020a9203eb4bac25fc86cd186cc648f143ea4eefced23a0be5a4bf43e0c41f0c27f", "asm": "0020a9203eb4bac25fc86cd186cc648f143ea4eefced23a0be5a4bf43e0c41f0c27f"}, "vout": 0, "txid": "ea76244cd88c60ee44f648b288e1c30b3d97d9cdf05adb50d1a64fb5363feff1"}], "txid": "c7ee397734a6f0d3860e348aafe9cebbd6ba523de8ea3c9ec3e30fe09a8f4569", "blocktime": 1537869901, "version": 1, "confirmations": 11524, "time": 1537869901, "locktime": 0, "vsize": 338, "size": 668}