{"hash": "6b8dffb36f866fa0e2ae91d170433e1cf19b4e9011ce8e0168d502b168fbdf8f", "blockhash": "0000000000000000000baef3f32e3676a92c3b2e5da21b426e4f302fc371ce76", "vout": [{"scriptPubKey": {"reqSigs": 1, "hex": "a9142653389539262579e9cb18fb72aa05af482af08887", "addresses": ["35BfJ8b4zzTBxBaGzfUSM1vxmLbTo3LutJ"], "asm": "OP_HASH160 2653389539262579e9cb18fb72aa05af482af088 OP_EQUAL", "type": "scripthash"}, "value": 0.01007506, "n": 0}, {"scriptPubKey": {"reqSigs": 1, "hex": "76a91439a55f603e8441cf25cbc4f0cbc0a752edd142ef88ac", "addresses": ["16FodDqoDsSyFoNNnkBestfcTUBbVHD35E"], "asm": "OP_DUP OP_HASH160 39a55f603e8441cf25cbc4f0cbc0a752edd142ef OP_EQUALVERIFY OP_CHECKSIG", "type": "pubkeyhash"}, "value": 0.0027546, "n": 1}], "hex": "0200000000010252e01e332189d8aba2697d35f70ca06997c99436744de9d912f3a68db20b30d90000000017160014caa2230f9ac9f107f165e183af6f37a0555b33f5feffffff578b1bf8c7a64e95fa6d87829be1ed572b79192d2920480782eaba8b2f4460210000000017160014eba45b4aa98ae5a5e441eb58ecc03e4efffef7fcfeffffff02925f0f000000000017a9142653389539262579e9cb18fb72aa05af482af0888704340400000000001976a91439a55f603e8441cf25cbc4f0cbc0a752edd142ef88ac02473044022014527b856975d6c642103068c7687723033f2affa6f292010e719e36f0827a91022075837341b0ae9d35ac1ce1746e1b10d6bac5758912670b36976549f79763a52f012102ab1c2718a9c035ab9b7f688706a5dd20d04839da3d08183a5bcaa1c5204e9df30247304402200eb3b4ec9df72f14208206aba4053ce160cd4c1772effaa19d0e00a6a75fa3a302206a934f3a5a502878c64162981c2e3d29c6c74fc7d55fd6f05fbd2769371d30c401210267c75bec9c64aef0618f7f87d440b77917c84aa7d9694fb12d3b6b9a70dd962517490800", "vin": [{"txinwitness": ["3044022014527b856975d6c642103068c7687723033f2affa6f292010e719e36f0827a91022075837341b0ae9d35ac1ce1746e1b10d6bac5758912670b36976549f79763a52f01", "02ab1c2718a9c035ab9b7f688706a5dd20d04839da3d08183a5bcaa1c5204e9df3"], "sequence": 4294967294, "scriptSig": {"hex": "160014caa2230f9ac9f107f165e183af6f37a0555b33f5", "asm": "0014caa2230f9ac9f107f165e183af6f37a0555b33f5"}, "vout": 0, "txid": "d9300bb28da6f312d9e94d743694c99769a00cf7357d69a2abd88921331ee052"}, {"txinwitness": ["304402200eb3b4ec9df72f14208206aba4053ce160cd4c1772effaa19d0e00a6a75fa3a302206a934f3a5a502878c64162981c2e3d29c6c74fc7d55fd6f05fbd2769371d30c401", "0267c75bec9c64aef0618f7f87d440b77917c84aa7d9694fb12d3b6b9a70dd9625"], "sequence": 4294967294, "scriptSig": {"hex": "160014eba45b4aa98ae5a5e441eb58ecc03e4efffef7fc", "asm": "0014eba45b4aa98ae5a5e441eb58ecc03e4efffef7fc"}, "vout": 0, "txid": "2160442f8bbaea82074820292d19792b57ede19b82876dfa954ea6c7f81b8b57"}], "txid": "c7ef79c519641d6a4638d8652286ddfded5218af24c20c7faf0f24c21f82b159", "blocktime": 1537876114, "version": 2, "confirmations": 11461, "time": 1537876114, "locktime": 542999, "vsize": 258, "size": 420}