{"hash": "38015d3b400638167b2e95070746228d57b8dcc9d9ef5cfcae5e403d0d4fd5b0", "blockhash": "0000000000000000000dcc0f55137456b1a82d3642486a52398922ac4d620174", "vout": [{"scriptPubKey": {"reqSigs": 1, "hex": "a9144d99053c8e59a2379406f839e6db7747f14717cc87", "addresses": ["38mKGMy6eSa5srdbqJ17bQRbYsZBpzC7xy"], "asm": "OP_HASH160 4d99053c8e59a2379406f839e6db7747f14717cc OP_EQUAL", "type": "scripthash"}, "value": 0.00999847, "n": 0}, {"scriptPubKey": {"reqSigs": 1, "hex": "76a91420ba1182bdb77b802cc46411a29c758a039da8b488ac", "addresses": ["13z3XQ4z9yMLWHRW6JfwuX3FFh3Ao9KPc1"], "asm": "OP_DUP OP_HASH160 20ba1182bdb77b802cc46411a29c758a039da8b4 OP_EQUALVERIFY OP_CHECKSIG", "type": "pubkeyhash"}, "value": 0.0022976, "n": 1}], "hex": "020000000001023177c2268ea6ca8c329c3400e9b58d97f93c11378f1bd2f7d961740d1263364f040000001716001405701a9f57aed603ca1f04e2385dfd9eaf7369a5fefffffffb0263ad62bcffacf74881576de9de584d4e4af7e74525682eaf07eab97518f9000000001716001451a01861bb77171919904fd05c9dcef35e73ba09feffffff02a7410f000000000017a9144d99053c8e59a2379406f839e6db7747f14717cc8780810300000000001976a91420ba1182bdb77b802cc46411a29c758a039da8b488ac02473044022011b950426499d95b25163248a3aed913f4975eb09b429ce9916d0ea51099e52e022066f4aa08fecb862707252b4bd0ffabfa005395eaffa6832fdc03069d62ad3491012103bc4df2aac6352e10b59a49d8c17c228606ab9a714736cd7474b55d3e859fc1da02483045022100e2285727f058363cb345333efc024b6b24ee70356463ebb384caa97e38992c97022025fc7a6981d3c2e06afa7a7547503050f7e717f953f4f39fdfc3692eef4e624b0121026a2ba944ca76b8b6a3f5b02557ac89341b27d472cecbaa58c8c4ad3f05f98cba0c490800", "vin": [{"txinwitness": ["3044022011b950426499d95b25163248a3aed913f4975eb09b429ce9916d0ea51099e52e022066f4aa08fecb862707252b4bd0ffabfa005395eaffa6832fdc03069d62ad349101", "03bc4df2aac6352e10b59a49d8c17c228606ab9a714736cd7474b55d3e859fc1da"], "sequence": 4294967294, "scriptSig": {"hex": "16001405701a9f57aed603ca1f04e2385dfd9eaf7369a5", "asm": "001405701a9f57aed603ca1f04e2385dfd9eaf7369a5"}, "vout": 4, "txid": "4f3663120d7461d9f7d21b8f37113cf9978db5e900349c328ccaa68e26c27731"}, {"txinwitness": ["3045022100e2285727f058363cb345333efc024b6b24ee70356463ebb384caa97e38992c97022025fc7a6981d3c2e06afa7a7547503050f7e717f953f4f39fdfc3692eef4e624b01", "026a2ba944ca76b8b6a3f5b02557ac89341b27d472cecbaa58c8c4ad3f05f98cba"], "sequence": 4294967294, "scriptSig": {"hex": "16001451a01861bb77171919904fd05c9dcef35e73ba09", "asm": "001451a01861bb77171919904fd05c9dcef35e73ba09"}, "vout": 0, "txid": "f91875b9ea07af2e682545e7f74a4e4d58dee96d578148f7acffbc62ad6302fb"}], "txid": "c7f80321474a0021c4c0d42aa3050548868d91dc9c1b5326379c785fdbcd65be", "blocktime": 1537870268, "version": 2, "confirmations": 11518, "time": 1537870268, "locktime": 542988, "vsize": 259, "size": 421}