{"hash": "c7f8c53774a1cb54ed394a65075a2c457c9aaa3684d3aafc150a296457357808", "blockhash": "000000000000000000205f8b0775d31398ef75b89a5e8ec8d2c57b4dc0ac4c20", "vout": [{"scriptPubKey": {"reqSigs": 1, "hex": "76a91492eea38667e35494e20d6cebd1c6684daee6a3d388ac", "addresses": ["1EPuXvLfHk8AaXx3kywMUNsEWFE4G5N4ns"], "asm": "OP_DUP OP_HASH160 92eea38667e35494e20d6cebd1c6684daee6a3d3 OP_EQUALVERIFY OP_CHECKSIG", "type": "pubkeyhash"}, "value": 0.06403088, "n": 0}, {"scriptPubKey": {"reqSigs": 1, "hex": "a914ca2f4ecb8fe9211cbbeb4a044bded531f45f7b1487", "addresses": ["3L856JA6Wn2nGe84fvxEoZHwHSoHuSW5cF"], "asm": "OP_HASH160 ca2f4ecb8fe9211cbbeb4a044bded531f45f7b14 OP_EQUAL", "type": "scripthash"}, "value": 0.85921, "n": 1}], "hex": "0100000005591fbc827fe96573bf26c612eb32650049cfe550de0014d85b648b60beb11303010000006a47304402204f83c6926ab8cee6cfc6248796e055ab3eb66ecddd7b47b4ec0bc4eebd05de4c02205779d86452a13b4a4f0f0bee8bbc67ff3612c2d43870c5ef32515a70c56bb00f01210342f9ce79f1e180255f492bbfb529e42e002a7adcaef9f17a5728a13358636a29ffffffff842f28d784273e2d1701915c8f138bf05b7600f442acccb8c59c307423b88c12010000006a47304402204f940cf4db1f91e235f02574f1fe5c9cac8c13a16fc8e93cc1788d567ff99e89022015bd789ffeb52bc9cd5de446d3f1ed20dd9b8f2e5d27ba0fa26480355122a52c01210374cb961a9fe02317a2a7cf82309b50b17617fb1fd8e950297f597eed8a57955affffffff57fcfef3eb9f4f0c0081445f7ba67673680b27825a0468725cbb3a69dfa873a8010000006b483045022100e81994237c775523dfc78eb2c2e4b2f6deee5207b1495777635c84629a7ade0002205922e35376e5d972d273f621b25f14e93feca7bed45be6b86be648d91f4b40490121039cbce857092dc6c97ef787382af2b34ddddb206d71759c757629858381ead0b2ffffffffa544d5182cfcea8be15baae429bffa5878517aaf7093535603ba4f81d61873a9010000006b48304502210086faa3a8e84bcb323f8de3eb7260613e5fa80ff13a8a15c2c82452caa8d094d002203c366d9f1aa3b4064919557f1e7b4fde396f1e448a5752640ac76009d7b81c8501210295c5beec02e1d4ef787033ab43dfd85a051188e1db83671bd38a40b8e318797dffffffff5339ef76c6173c2be3b74b95b2b00d085d9196705eda22e27068e471711501be010000006a473044022013ebe56ebf055a1cd5903069dcc8a319685e96221f198c2b3da5b5c554c0af64022042ce1e71eb73366e961865a8f17bfbb0eb44fdab4e274aa4827b4bea5619fbfc012103eb46f301d4f3e0c16e008cd2dadec66f05b7dada5aab65a0ef72a27325ed70daffffffff0210b46100000000001976a91492eea38667e35494e20d6cebd1c6684daee6a3d388ace80c1f050000000017a914ca2f4ecb8fe9211cbbeb4a044bded531f45f7b148700000000", "vin": [{"sequence": 4294967295, "scriptSig": {"hex": "47304402204f83c6926ab8cee6cfc6248796e055ab3eb66ecddd7b47b4ec0bc4eebd05de4c02205779d86452a13b4a4f0f0bee8bbc67ff3612c2d43870c5ef32515a70c56bb00f01210342f9ce79f1e180255f492bbfb529e42e002a7adcaef9f17a5728a13358636a29", "asm": "304402204f83c6926ab8cee6cfc6248796e055ab3eb66ecddd7b47b4ec0bc4eebd05de4c02205779d86452a13b4a4f0f0bee8bbc67ff3612c2d43870c5ef32515a70c56bb00f[ALL] 0342f9ce79f1e180255f492bbfb529e42e002a7adcaef9f17a5728a13358636a29"}, "vout": 1, "txid": "0313b1be608b645bd81400de50e5cf49006532eb12c626bf7365e97f82bc1f59"}, {"sequence": 4294967295, "scriptSig": {"hex": "47304402204f940cf4db1f91e235f02574f1fe5c9cac8c13a16fc8e93cc1788d567ff99e89022015bd789ffeb52bc9cd5de446d3f1ed20dd9b8f2e5d27ba0fa26480355122a52c01210374cb961a9fe02317a2a7cf82309b50b17617fb1fd8e950297f597eed8a57955a", "asm": "304402204f940cf4db1f91e235f02574f1fe5c9cac8c13a16fc8e93cc1788d567ff99e89022015bd789ffeb52bc9cd5de446d3f1ed20dd9b8f2e5d27ba0fa26480355122a52c[ALL] 0374cb961a9fe02317a2a7cf82309b50b17617fb1fd8e950297f597eed8a57955a"}, "vout": 1, "txid": "128cb82374309cc5b8ccac42f400765bf08b138f5c9101172d3e2784d7282f84"}, {"sequence": 4294967295, "scriptSig": {"hex": "483045022100e81994237c775523dfc78eb2c2e4b2f6deee5207b1495777635c84629a7ade0002205922e35376e5d972d273f621b25f14e93feca7bed45be6b86be648d91f4b40490121039cbce857092dc6c97ef787382af2b34ddddb206d71759c757629858381ead0b2", "asm": "3045022100e81994237c775523dfc78eb2c2e4b2f6deee5207b1495777635c84629a7ade0002205922e35376e5d972d273f621b25f14e93feca7bed45be6b86be648d91f4b4049[ALL] 039cbce857092dc6c97ef787382af2b34ddddb206d71759c757629858381ead0b2"}, "vout": 1, "txid": "a873a8df693abb5c7268045a82270b687376a67b5f4481000c4f9febf3fefc57"}, {"sequence": 4294967295, "scriptSig": {"hex": "48304502210086faa3a8e84bcb323f8de3eb7260613e5fa80ff13a8a15c2c82452caa8d094d002203c366d9f1aa3b4064919557f1e7b4fde396f1e448a5752640ac76009d7b81c8501210295c5beec02e1d4ef787033ab43dfd85a051188e1db83671bd38a40b8e318797d", "asm": "304502210086faa3a8e84bcb323f8de3eb7260613e5fa80ff13a8a15c2c82452caa8d094d002203c366d9f1aa3b4064919557f1e7b4fde396f1e448a5752640ac76009d7b81c85[ALL] 0295c5beec02e1d4ef787033ab43dfd85a051188e1db83671bd38a40b8e318797d"}, "vout": 1, "txid": "a97318d6814fba0356539370af7a517858fabf29e4aa5be18beafc2c18d544a5"}, {"sequence": 4294967295, "scriptSig": {"hex": "473044022013ebe56ebf055a1cd5903069dcc8a319685e96221f198c2b3da5b5c554c0af64022042ce1e71eb73366e961865a8f17bfbb0eb44fdab4e274aa4827b4bea5619fbfc012103eb46f301d4f3e0c16e008cd2dadec66f05b7dada5aab65a0ef72a27325ed70da", "asm": "3044022013ebe56ebf055a1cd5903069dcc8a319685e96221f198c2b3da5b5c554c0af64022042ce1e71eb73366e961865a8f17bfbb0eb44fdab4e274aa4827b4bea5619fbfc[ALL] 03eb46f301d4f3e0c16e008cd2dadec66f05b7dada5aab65a0ef72a27325ed70da"}, "vout": 1, "txid": "be01157171e46870e222da5e7096915d080db0b2954bb7e32b3c17c676ef3953"}], "txid": "c7f8c53774a1cb54ed394a65075a2c457c9aaa3684d3aafc150a296457357808", "blocktime": 1537871175, "version": 1, "confirmations": 11511, "time": 1537871175, "locktime": 0, "vsize": 813, "size": 813}