{"hash": "c7fc2bbee06bb225421e0fbbe14aed3493933067a43fc2941ff0c8efba31728f", "blockhash": "0000000000000000000dcc0f55137456b1a82d3642486a52398922ac4d620174", "vout": [{"scriptPubKey": {"reqSigs": 1, "hex": "76a914d15494a65821f10d86bc09f8753b53066550bf6388ac", "addresses": ["1L5qYrtFscS9UbT4D2iSp13fKxxBB6Rpmo"], "asm": "OP_DUP OP_HASH160 d15494a65821f10d86bc09f8753b53066550bf63 OP_EQUALVERIFY OP_CHECKSIG", "type": "pubkeyhash"}, "value": 0.00103796, "n": 0}, {"scriptPubKey": {"reqSigs": 1, "hex": "76a9148f87f7b2d149ffcd6f94ab6e03f5ec6290c16d1e88ac", "addresses": ["1E5vWdD84wSBYxy22De6tmA38AGpuq4b73"], "asm": "OP_DUP OP_HASH160 8f87f7b2d149ffcd6f94ab6e03f5ec6290c16d1e OP_EQUALVERIFY OP_CHECKSIG", "type": "pubkeyhash"}, "value": 0.03215631, "n": 1}], "hex": "01000000019799b59b0d0615128bd329b0717b804a2593ca5fb24366558c57ca8999633e80000000006b483045022100f9362288533e6a6f61a84cb653940106fb1af51ba573c5e0285852d0af2920280220456d40a36b5f7d34ea5f5d95adb29d239f32e748f9fe61de7467f7ab7f44676d012102b63c2631e38c6441ee5f4a68a37f8e792660a8b20229ae16f1affc4b95c4e9b4ffffffff0274950100000000001976a914d15494a65821f10d86bc09f8753b53066550bf6388ac0f113100000000001976a9148f87f7b2d149ffcd6f94ab6e03f5ec6290c16d1e88ac00000000", "vin": [{"sequence": 4294967295, "scriptSig": {"hex": "483045022100f9362288533e6a6f61a84cb653940106fb1af51ba573c5e0285852d0af2920280220456d40a36b5f7d34ea5f5d95adb29d239f32e748f9fe61de7467f7ab7f44676d012102b63c2631e38c6441ee5f4a68a37f8e792660a8b20229ae16f1affc4b95c4e9b4", "asm": "3045022100f9362288533e6a6f61a84cb653940106fb1af51ba573c5e0285852d0af2920280220456d40a36b5f7d34ea5f5d95adb29d239f32e748f9fe61de7467f7ab7f44676d[ALL] 02b63c2631e38c6441ee5f4a68a37f8e792660a8b20229ae16f1affc4b95c4e9b4"}, "vout": 0, "txid": "803e639989ca578c556643b25fca93254a807b71b029d38b1215060d9bb59997"}], "txid": "c7fc2bbee06bb225421e0fbbe14aed3493933067a43fc2941ff0c8efba31728f", "blocktime": 1537870268, "version": 1, "confirmations": 11518, "time": 1537870268, "locktime": 0, "vsize": 226, "size": 226}