{"hash": "c8014b65ae8d99d09acba0e8b46a6c8d0680c4f44e3e07d70f6d42c59963ad26", "blockhash": "00000000000000000024a2167bbff67b0be802c0b01cdd79e6331c2be6459f87", "vout": [{"scriptPubKey": {"reqSigs": 1, "hex": "76a91458e85702ebacdb6e28110b40807113855d29530388ac", "addresses": ["1976o96NU35g4D1FZeSwK6tndLpLzwUSaq"], "asm": "OP_DUP OP_HASH160 58e85702ebacdb6e28110b40807113855d295303 OP_EQUALVERIFY OP_CHECKSIG", "type": "pubkeyhash"}, "value": 0.00747293, "n": 0}, {"scriptPubKey": {"reqSigs": 1, "hex": "76a9148fca64a67719cdfd2e2002b9bdf13ac1da5a935d88ac", "addresses": ["1E7J5xQwDYvQFkoMVPJmQ5F3Y2rV1STPmP"], "asm": "OP_DUP OP_HASH160 8fca64a67719cdfd2e2002b9bdf13ac1da5a935d OP_EQUALVERIFY OP_CHECKSIG", "type": "pubkeyhash"}, "value": 0.01399271, "n": 1}], "hex": "01000000015621dfa9be0da47d39b2b477615cbb3552b4b292557ca2355e9d2c16c4bfa029000000006a47304402203065d5986418e4be9213a0d1cc26a046cb5516da98751bba3d69c7ee3c48310702203590d47d518472c3567126795e303f189d9a7561833c72ec5e6aa20257fc61d2012103ac339413dec59958b2761385fa389e37292995d8afe4607c96bf9739d68a1561ffffffff021d670b00000000001976a91458e85702ebacdb6e28110b40807113855d29530388ace7591500000000001976a9148fca64a67719cdfd2e2002b9bdf13ac1da5a935d88ac00000000", "vin": [{"sequence": 4294967295, "scriptSig": {"hex": "47304402203065d5986418e4be9213a0d1cc26a046cb5516da98751bba3d69c7ee3c48310702203590d47d518472c3567126795e303f189d9a7561833c72ec5e6aa20257fc61d2012103ac339413dec59958b2761385fa389e37292995d8afe4607c96bf9739d68a1561", "asm": "304402203065d5986418e4be9213a0d1cc26a046cb5516da98751bba3d69c7ee3c48310702203590d47d518472c3567126795e303f189d9a7561833c72ec5e6aa20257fc61d2[ALL] 03ac339413dec59958b2761385fa389e37292995d8afe4607c96bf9739d68a1561"}, "vout": 0, "txid": "29a0bfc4162c9d5e35a27c5592b2b45235bb5c6177b4b2397da40dbea9df2156"}], "txid": "c8014b65ae8d99d09acba0e8b46a6c8d0680c4f44e3e07d70f6d42c59963ad26", "blocktime": 1537870564, "version": 1, "confirmations": 11515, "time": 1537870564, "locktime": 0, "vsize": 225, "size": 225}