{"hash": "79bed9d8d79c9b10966b8da7044fa845248dbfe4e4788ba7ab371cfe436eab64", "blockhash": "0000000000000000001f76057863aec43deb6fa401d9628bb513d65a8098bfab", "vout": [{"scriptPubKey": {"reqSigs": 1, "hex": "76a9145529b03672311e3e943b956662893d9fc3adf67888ac", "addresses": ["18mJNryPELE4nLnCjYoFFydFSbxUqBUyGn"], "asm": "OP_DUP OP_HASH160 5529b03672311e3e943b956662893d9fc3adf678 OP_EQUALVERIFY OP_CHECKSIG", "type": "pubkeyhash"}, "value": 0.23346453, "n": 0}, {"scriptPubKey": {"reqSigs": 1, "hex": "a91498e43f153f4dfe38fdc0fe1cd2d7ac1abf58587c87", "addresses": ["3FdS4YLawb43WvsfvxfKoGcpzo6n1k3xGy"], "asm": "OP_HASH160 98e43f153f4dfe38fdc0fe1cd2d7ac1abf58587c OP_EQUAL", "type": "scripthash"}, "value": 0.66167269, "n": 1}], "hex": "01000000000101c6b228ffb88db6fb50a06a45e75f59b692c755abc262881952594a9baf42463600000000171600146e9cc0693bb5dc60408a19ae1a3e56c6c9c4659fffffffff02153d6401000000001976a9145529b03672311e3e943b956662893d9fc3adf67888ace5a1f1030000000017a91498e43f153f4dfe38fdc0fe1cd2d7ac1abf58587c870247304402203bc68876599b09aa75cf4de82014a4449e4b394a379fd1b98d44e305b3258cd202204656ac585d57e18286be9ddd9eea8ea78ca323e2e95dce80c39c5363ec1b44cc012102c138ec7d798620b9c30980dabb0e5e4580d06f42c5c3cdb8820708a4b27b875700000000", "vin": [{"txinwitness": ["304402203bc68876599b09aa75cf4de82014a4449e4b394a379fd1b98d44e305b3258cd202204656ac585d57e18286be9ddd9eea8ea78ca323e2e95dce80c39c5363ec1b44cc01", "02c138ec7d798620b9c30980dabb0e5e4580d06f42c5c3cdb8820708a4b27b8757"], "sequence": 4294967295, "scriptSig": {"hex": "1600146e9cc0693bb5dc60408a19ae1a3e56c6c9c4659f", "asm": "00146e9cc0693bb5dc60408a19ae1a3e56c6c9c4659f"}, "vout": 0, "txid": "364642af9b4a5952198862c2ab55c792b6595fe7456aa050fbb68db8ff28b2c6"}], "txid": "c806350132541c213efebb626ed30c3c0c2e0212096abd2ac3677d443f6ec10c", "blocktime": 1537873891, "version": 1, "confirmations": 11478, "time": 1537873891, "locktime": 0, "vsize": 168, "size": 249}