{"hash": "c809be3a851aae114a9324af4a2f7f95cdfd6616dad775059b72997bbadd0389", "blockhash": "0000000000000000000e13cef7c366c0283d82e591d1acd082e914b08063cdf1", "vout": [{"scriptPubKey": {"reqSigs": 1, "hex": "76a914e997b270a328dd23b070e1e8ac0dc19dfd35816c88ac", "addresses": ["1NJ8AnsuuTt7FcQFgMR7mHR29RKTaLYJQa"], "asm": "OP_DUP OP_HASH160 e997b270a328dd23b070e1e8ac0dc19dfd35816c OP_EQUALVERIFY OP_CHECKSIG", "type": "pubkeyhash"}, "value": 0.168, "n": 0}, {"scriptPubKey": {"reqSigs": 1, "hex": "76a9147ea023a974e3c5e5be5ddd6c9e88c8516bf8b95688ac", "addresses": ["1CYXyqz8jGNNc5DTmexsrGR7yQt4A2ascY"], "asm": "OP_DUP OP_HASH160 7ea023a974e3c5e5be5ddd6c9e88c8516bf8b956 OP_EQUALVERIFY OP_CHECKSIG", "type": "pubkeyhash"}, "value": 7.62077871, "n": 1}], "hex": "020000000136691ab667b757684d42912851c7faa3730efc336e2521a2aac8121bab89e637010000006a473044022032a71e56451bdd765066f81d9d48b5efddfbf21f13139ece70269ad3d3d41187022074511787f425b572dea54fa3f50b1f6f2f3a14d9b0b62308d6a53f04f9af591701210336f50a14a4c436059a53574724041068b2ded0fb91955bbaaf36bb3737e6b004ffffffff0200590001000000001976a914e997b270a328dd23b070e1e8ac0dc19dfd35816c88acaf626c2d000000001976a9147ea023a974e3c5e5be5ddd6c9e88c8516bf8b95688ac00000000", "vin": [{"sequence": 4294967295, "scriptSig": {"hex": "473044022032a71e56451bdd765066f81d9d48b5efddfbf21f13139ece70269ad3d3d41187022074511787f425b572dea54fa3f50b1f6f2f3a14d9b0b62308d6a53f04f9af591701210336f50a14a4c436059a53574724041068b2ded0fb91955bbaaf36bb3737e6b004", "asm": "3044022032a71e56451bdd765066f81d9d48b5efddfbf21f13139ece70269ad3d3d41187022074511787f425b572dea54fa3f50b1f6f2f3a14d9b0b62308d6a53f04f9af5917[ALL] 0336f50a14a4c436059a53574724041068b2ded0fb91955bbaaf36bb3737e6b004"}, "vout": 1, "txid": "37e689ab1b12c8aaa221256e33fc0e73a3fac7512891424d6857b767b61a6936"}], "txid": "c809be3a851aae114a9324af4a2f7f95cdfd6616dad775059b72997bbadd0389", "blocktime": 1537871767, "version": 2, "confirmations": 11493, "time": 1537871767, "locktime": 0, "vsize": 225, "size": 225}