{"hash": "eafedfb26bd9782834fe42f87e93886b0ef175c0721d970855aa3d8461a85b94", "blockhash": "0000000000000000000baef3f32e3676a92c3b2e5da21b426e4f302fc371ce76", "vout": [{"scriptPubKey": {"reqSigs": 1, "hex": "a914b6943dd51cdc22e9f598f9ca7a7369ac4560c2e987", "addresses": ["3JLQVTawJYm6e8faUvT5zkE12HAFMWfsmL"], "asm": "OP_HASH160 b6943dd51cdc22e9f598f9ca7a7369ac4560c2e9 OP_EQUAL", "type": "scripthash"}, "value": 0.4163, "n": 0}, {"scriptPubKey": {"reqSigs": 1, "hex": "a914a791807fda554d0868bc78e8f19809339c9ba29b87", "addresses": ["3Gy35ERRcpFzN61YuuKCFAgJAYvX3rp1GU"], "asm": "OP_HASH160 a791807fda554d0868bc78e8f19809339c9ba29b OP_EQUAL", "type": "scripthash"}, "value": 0.86609929, "n": 1}], "hex": "010000000001013f54c324c2d6fae2b8c55333ef09cffd0bda26cfabf6aa3b10200b7edf7d86af01000000171600147d9600d8feb816497af7cdf26ca247c0ab2706ceffffff000230397b020000000017a914b6943dd51cdc22e9f598f9ca7a7369ac4560c2e987099029050000000017a914a791807fda554d0868bc78e8f19809339c9ba29b8702483045022100b83507b866790bf71d2a8dfca2d816a26ac7e3fb9029304b1924c7e94237275802207e8a8f7309b08699f8dfab5f3e895e8ff34367ed63c0574298efa7a3401935b3012102f1c744d41ecf67b80899baca2c5b4f9d9f8774fa9d1998bb50d0587def9073fc00000000", "vin": [{"txinwitness": ["3045022100b83507b866790bf71d2a8dfca2d816a26ac7e3fb9029304b1924c7e94237275802207e8a8f7309b08699f8dfab5f3e895e8ff34367ed63c0574298efa7a3401935b301", "02f1c744d41ecf67b80899baca2c5b4f9d9f8774fa9d1998bb50d0587def9073fc"], "sequence": 16777215, "scriptSig": {"hex": "1600147d9600d8feb816497af7cdf26ca247c0ab2706ce", "asm": "00147d9600d8feb816497af7cdf26ca247c0ab2706ce"}, "vout": 1, "txid": "af867ddf7e0b20103baaf6abcf26da0bfdcf09ef3353c5b8e2fad6c224c3543f"}], "txid": "c80c6d54718583159ef51e4d5942cc3cda7833d81793fd92f6c981e805f7c46f", "blocktime": 1537876114, "version": 1, "confirmations": 11459, "time": 1537876114, "locktime": 0, "vsize": 166, "size": 248}