{"hash": "c80fde0bd3c5cd53e7086a375df22db4e1dd727bc6393e8faeb24c9489d5787a", "blockhash": "0000000000000000001e0dab787dd257d1dbfcb92a98c2207d5e1078be1f4165", "vout": [{"scriptPubKey": {"reqSigs": 1, "hex": "76a914fee9198da0f37531592bf01f5f0a34812c900a1888ac", "addresses": ["1QEqsnUx9LLvZLy7veWmQSxuHvmEHZSSgM"], "asm": "OP_DUP OP_HASH160 fee9198da0f37531592bf01f5f0a34812c900a18 OP_EQUALVERIFY OP_CHECKSIG", "type": "pubkeyhash"}, "value": 0.01127504, "n": 0}], "hex": "010000000190e8bc086bf29c6d9699e613fcccb7e9c3e6db815d43f726719c18f95edb3839010000006a473044022039ba7a1eb203d6f3e76fc53ea6ab439aea119dd570de7d0f57ca44cd58fde78d0220256612933f808685f3b491bcf3eb10e9c8bd390e8b3132ed7662d9600775d669012103c921a121e1b6c9b20213d47f1a3da0a1946d152fd8edf0b955fd863dec1e212bffffffff0150341100000000001976a914fee9198da0f37531592bf01f5f0a34812c900a1888ac00000000", "vin": [{"sequence": 4294967295, "scriptSig": {"hex": "473044022039ba7a1eb203d6f3e76fc53ea6ab439aea119dd570de7d0f57ca44cd58fde78d0220256612933f808685f3b491bcf3eb10e9c8bd390e8b3132ed7662d9600775d669012103c921a121e1b6c9b20213d47f1a3da0a1946d152fd8edf0b955fd863dec1e212b", "asm": "3044022039ba7a1eb203d6f3e76fc53ea6ab439aea119dd570de7d0f57ca44cd58fde78d0220256612933f808685f3b491bcf3eb10e9c8bd390e8b3132ed7662d9600775d669[ALL] 03c921a121e1b6c9b20213d47f1a3da0a1946d152fd8edf0b955fd863dec1e212b"}, "vout": 1, "txid": "3938db5ef9189c7126f7435d81dbe6c3e9b7ccfc13e699966d9cf26b08bce890"}], "txid": "c80fde0bd3c5cd53e7086a375df22db4e1dd727bc6393e8faeb24c9489d5787a", "blocktime": 1537872475, "version": 1, "confirmations": 11486, "time": 1537872475, "locktime": 0, "vsize": 191, "size": 191}