{"hash": "c81287e61ef71cbb5b80ebaa6d1cffed4089430a539f84d3cfd3ef64ef3ceaf5", "blockhash": "00000000000000000004ffacab907a6b429b9a5745fa0b75af4234bf69dd7176", "vout": [{"scriptPubKey": {"reqSigs": 1, "hex": "76a91438e1c15893990e6ed9241573bc88e1ef97e0695088ac", "addresses": ["16BmHVaoUdYXQC5ToWvSzBN2CZZVjAydLU"], "asm": "OP_DUP OP_HASH160 38e1c15893990e6ed9241573bc88e1ef97e06950 OP_EQUALVERIFY OP_CHECKSIG", "type": "pubkeyhash"}, "value": 3.988e-05, "n": 0}, {"scriptPubKey": {"reqSigs": 1, "hex": "76a9143ae21538e5ba1891438229f32ec7ec9499090bb788ac", "addresses": ["16NM2eCgymFW26eZHQRDqt6TNqU27rfSTH"], "asm": "OP_DUP OP_HASH160 3ae21538e5ba1891438229f32ec7ec9499090bb7 OP_EQUALVERIFY OP_CHECKSIG", "type": "pubkeyhash"}, "value": 0.08036486, "n": 1}], "hex": "0100000003ce046c0ae3c0fed1db22528c1d9087d7dd9f8aa40033766f776e67fb8fbe9a85000000006b483045022100ad3e857470b26237ffb1fc288d44920fd45a885746c5a5e03eb16bab1e109a8202206a3ae4a608e91be06a7dc4d2da971e5600b06b1508d68a1bbbe751d33f7a182a012102e7940712c3afa323721ae349e0d0e141c18e808a722b909202404074c16befebffffffffb24b5a0bed2136562c4d0e2eb191cc41fe201838d3d5c3df599912870177f38d090000006b483045022100bb78145485e6892993909212253650f6cbb3abbeb312ff1af1a58a035775b5dc022054d0eceb2d54078f57405b5de013e4fb7761ea48ece18a8f8a984e26657c19b40121025a0597417d6ccfa62d5f1ef711f6955310eb33377cec96afb4a9c37ec29ffcd7ffffffff1c26ad396c5c51ed943aa892896463cb60c485659bb8d8e47bf3fca7514a7eb8050000006b483045022100f51a1230fc685c8eafa2e3b701490c908f9b04d436e57d2a26edf464a4a4784702200d767c0319a0278b38904c77ced47cb25bd4d1786fcffc8c222c6f495b0da7a10121025a0597417d6ccfa62d5f1ef711f6955310eb33377cec96afb4a9c37ec29ffcd7ffffffff02940f0000000000001976a91438e1c15893990e6ed9241573bc88e1ef97e0695088ac86a07a00000000001976a9143ae21538e5ba1891438229f32ec7ec9499090bb788ac00000000", "vin": [{"sequence": 4294967295, "scriptSig": {"hex": "483045022100ad3e857470b26237ffb1fc288d44920fd45a885746c5a5e03eb16bab1e109a8202206a3ae4a608e91be06a7dc4d2da971e5600b06b1508d68a1bbbe751d33f7a182a012102e7940712c3afa323721ae349e0d0e141c18e808a722b909202404074c16befeb", "asm": "3045022100ad3e857470b26237ffb1fc288d44920fd45a885746c5a5e03eb16bab1e109a8202206a3ae4a608e91be06a7dc4d2da971e5600b06b1508d68a1bbbe751d33f7a182a[ALL] 02e7940712c3afa323721ae349e0d0e141c18e808a722b909202404074c16befeb"}, "vout": 0, "txid": "859abe8ffb676e776f763300a48a9fddd787901d8c5222dbd1fec0e30a6c04ce"}, {"sequence": 4294967295, "scriptSig": {"hex": "483045022100bb78145485e6892993909212253650f6cbb3abbeb312ff1af1a58a035775b5dc022054d0eceb2d54078f57405b5de013e4fb7761ea48ece18a8f8a984e26657c19b40121025a0597417d6ccfa62d5f1ef711f6955310eb33377cec96afb4a9c37ec29ffcd7", "asm": "3045022100bb78145485e6892993909212253650f6cbb3abbeb312ff1af1a58a035775b5dc022054d0eceb2d54078f57405b5de013e4fb7761ea48ece18a8f8a984e26657c19b4[ALL] 025a0597417d6ccfa62d5f1ef711f6955310eb33377cec96afb4a9c37ec29ffcd7"}, "vout": 9, "txid": "8df3770187129959dfc3d5d3381820fe41cc91b12e0e4d2c563621ed0b5a4bb2"}, {"sequence": 4294967295, "scriptSig": {"hex": "483045022100f51a1230fc685c8eafa2e3b701490c908f9b04d436e57d2a26edf464a4a4784702200d767c0319a0278b38904c77ced47cb25bd4d1786fcffc8c222c6f495b0da7a10121025a0597417d6ccfa62d5f1ef711f6955310eb33377cec96afb4a9c37ec29ffcd7", "asm": "3045022100f51a1230fc685c8eafa2e3b701490c908f9b04d436e57d2a26edf464a4a4784702200d767c0319a0278b38904c77ced47cb25bd4d1786fcffc8c222c6f495b0da7a1[ALL] 025a0597417d6ccfa62d5f1ef711f6955310eb33377cec96afb4a9c37ec29ffcd7"}, "vout": 5, "txid": "b87e4a51a7fcf37be4d8b89b6585c460cb63648992a83a94ed515c6c39ad261c"}], "txid": "c81287e61ef71cbb5b80ebaa6d1cffed4089430a539f84d3cfd3ef64ef3ceaf5", "blocktime": 1537875543, "version": 1, "confirmations": 11464, "time": 1537875543, "locktime": 0, "vsize": 522, "size": 522}