{"hash": "a8f2f28f1ab6007e42e21e14554d56c9b00b1a6cd0494d30761b1220df19b631", "blockhash": "0000000000000000000e13cef7c366c0283d82e591d1acd082e914b08063cdf1", "vout": [{"scriptPubKey": {"reqSigs": 1, "hex": "a91433d97f7ab015d925f53f000f51fb334bcee0809887", "addresses": ["36RAwMJ1nc7VctuL5vyNC54ao1kmm3Y2An"], "asm": "OP_HASH160 33d97f7ab015d925f53f000f51fb334bcee08098 OP_EQUAL", "type": "scripthash"}, "value": 0.00039191, "n": 0}, {"scriptPubKey": {"reqSigs": 1, "hex": "a9144a75f968af3436f88f38ef1c938958e2b5ee481c87", "addresses": ["38UjFjXbKTjsVoiquFG23urqpHotZTJUv5"], "asm": "OP_HASH160 4a75f968af3436f88f38ef1c938958e2b5ee481c OP_EQUAL", "type": "scripthash"}, "value": 0.22631171, "n": 1}], "hex": "02000000000108086b1f83ea69d02c699befd81720d77f29332b7e862571b5a15a7c4939c5989c010000001716001419242fee03cc1c8d779266c72b5dc0706fe09e8efeffffff0c7f029fd34b43215e69593ea2790355e32549a8af5123c089f3de895a3a305c0000000017160014ed76b75b08484353bc663add5f67f5eb5f217dc4feffffff191529ae01e6d26bbda4d06ec3a6979fc816269234942ca1a3f2c232da9d86e60000000017160014a5e3ece9ecd5104f287b1bc6b4dcff495b9367c0feffffff1eddc94c4854404a6a7281ed5061cc8201344022dffaf6baa1ef6e694e33af1c0100000017160014dca0fff0b9b5a922e38b65cbd4883a59136db49afeffffff30666e168bd27a596adcc2dd3fa94344a5d57639e9ef6973abf995cb0adb7ac10100000017160014ed76b75b08484353bc663add5f67f5eb5f217dc4feffffff502109ccd37c6c7f116cc4abb436bc29fdc7da511888e85688748d2c77e5442f0000000017160014a60bad1ffa364f5a8ca34f9882808d1a2f80585ffeffffff62565e5402e3bfed2392eff29c193c90875a03846baee49ff5fd8b755689fd1e00000000171600147b7fcc58f0ce0792970cbf5bbe3a8c96c66ba4fdfeffffff65e72b361d4eabd2c960b10d48b3a215e750725162e97d8ef5c25cbc2ca7c2c000000000171600149add834bae42bd52afb51ee3b5899c2d9b1da225feffffff02179900000000000017a91433d97f7ab015d925f53f000f51fb334bcee0809887035359010000000017a9144a75f968af3436f88f38ef1c938958e2b5ee481c8702473044022065bd324abcf0ca9ec19af370c223b9911fdb7c0b6714916a9f61450c5ab8c8d002204fd80177f499ee03e2eb5620bee5798514d8f5e027f347085dec2e8aa4ceb87b0121025ceeba9e7e09ec81f97aab8482a6701123f0c47cb70d8f99e48ade6bbeaac9af024830450221009bf4d3f004c2c893faba5ce0c2e307eccbc11511d39876477b0e31425e70602702203176ca6fabdd31fbb2a3d5bece3fc77655a607df476c44a768709a06d6c7d16e0121033467fcb67ff3be1a880fb30107816e9363bfd8af80acce99079eb6bbb932881302483045022100d14107ea9e21d233edd7966fb8d67b21a7a7da437b177482ed7824582b2147ab02205573af5c9f5ca00433228a1ff6718d2e60d0c97763d2264953390f9c5de80741012102ba32e578405abb7c65cb8aea06219f19543afcabb8319232d052c425b677d10e02483045022100a92a4c22ec887f2f3dfbb556fba2a8a6b0ca67783ca5d6c13251c267e4edde57022006e44d51c956fccaed30a6d6dd96564738826d5f8eef2d23c745fdda75507637012103bbb0748aa32e4484a31a75643b3bd887d654032530b011a3caa84f0282a9eaf302483045022100d0968e69b73e9ffe16f30def8709c7f0c02fa1d113adb458e8d1996b0c5b22fe022008c5b6f68887c91ac748c458ca55ccc42b667725b4d05b1543668983608d88940121033467fcb67ff3be1a880fb30107816e9363bfd8af80acce99079eb6bbb932881302483045022100efaea34461131aa3c2f53dcb2af0ee469eb7a6851839f4fe33c9de77579d710c022052c0d5bb845dbc5627384346489b24f9bf80480f199f5eaa13f71fadc16013a20121027b2d0eb6b8fb10088b4d2f5c6c5bc81a8ba8e937c20e80c33965e9977496daec02483045022100d3b4a8d81a4b61e2c92a7f37477f4f3982c0479fd0ee149a47c7088146ccc854022069f6106817e70385e995ec19fb1d7777b7f082322a0ab13f162f3869dc8c0e3b012102c8e607548ef6e63093231b5b6444e3e84cc59a408bf9313dd1025d5b06df173402473044022067e5cd895025ef6ed06d1f172c31d7ceb57addb08330b2c1875d1e22ec43329e0220702bbd05f0be2c5206b5777f67bb71ea1c6f0f44cdf7e7b0c43c0eb7ef4edcde012102cc995831300ddef5f07a585f624eaf5b9856faa400f3d38d1ca42818411b77f20f490800", "vin": [{"txinwitness": ["3044022065bd324abcf0ca9ec19af370c223b9911fdb7c0b6714916a9f61450c5ab8c8d002204fd80177f499ee03e2eb5620bee5798514d8f5e027f347085dec2e8aa4ceb87b01", "025ceeba9e7e09ec81f97aab8482a6701123f0c47cb70d8f99e48ade6bbeaac9af"], "sequence": 4294967294, "scriptSig": {"hex": "16001419242fee03cc1c8d779266c72b5dc0706fe09e8e", "asm": "001419242fee03cc1c8d779266c72b5dc0706fe09e8e"}, "vout": 1, "txid": "9c98c539497c5aa1b57125867e2b33297fd72017d8ef9b692cd069ea831f6b08"}, {"txinwitness": ["30450221009bf4d3f004c2c893faba5ce0c2e307eccbc11511d39876477b0e31425e70602702203176ca6fabdd31fbb2a3d5bece3fc77655a607df476c44a768709a06d6c7d16e01", "033467fcb67ff3be1a880fb30107816e9363bfd8af80acce99079eb6bbb9328813"], "sequence": 4294967294, "scriptSig": {"hex": "160014ed76b75b08484353bc663add5f67f5eb5f217dc4", "asm": "0014ed76b75b08484353bc663add5f67f5eb5f217dc4"}, "vout": 0, "txid": "5c303a5a89def389c02351afa84925e3550379a23e59695e21434bd39f027f0c"}, {"txinwitness": ["3045022100d14107ea9e21d233edd7966fb8d67b21a7a7da437b177482ed7824582b2147ab02205573af5c9f5ca00433228a1ff6718d2e60d0c97763d2264953390f9c5de8074101", "02ba32e578405abb7c65cb8aea06219f19543afcabb8319232d052c425b677d10e"], "sequence": 4294967294, "scriptSig": {"hex": "160014a5e3ece9ecd5104f287b1bc6b4dcff495b9367c0", "asm": "0014a5e3ece9ecd5104f287b1bc6b4dcff495b9367c0"}, "vout": 0, "txid": "e6869dda32c2f2a3a12c9434922616c89f97a6c36ed0a4bd6bd2e601ae291519"}, {"txinwitness": ["3045022100a92a4c22ec887f2f3dfbb556fba2a8a6b0ca67783ca5d6c13251c267e4edde57022006e44d51c956fccaed30a6d6dd96564738826d5f8eef2d23c745fdda7550763701", "03bbb0748aa32e4484a31a75643b3bd887d654032530b011a3caa84f0282a9eaf3"], "sequence": 4294967294, "scriptSig": {"hex": "160014dca0fff0b9b5a922e38b65cbd4883a59136db49a", "asm": "0014dca0fff0b9b5a922e38b65cbd4883a59136db49a"}, "vout": 1, "txid": "1caf334e696eefa1baf6fadf2240340182cc6150ed81726a4a4054484cc9dd1e"}, {"txinwitness": ["3045022100d0968e69b73e9ffe16f30def8709c7f0c02fa1d113adb458e8d1996b0c5b22fe022008c5b6f68887c91ac748c458ca55ccc42b667725b4d05b1543668983608d889401", "033467fcb67ff3be1a880fb30107816e9363bfd8af80acce99079eb6bbb9328813"], "sequence": 4294967294, "scriptSig": {"hex": "160014ed76b75b08484353bc663add5f67f5eb5f217dc4", "asm": "0014ed76b75b08484353bc663add5f67f5eb5f217dc4"}, "vout": 1, "txid": "c17adb0acb95f9ab7369efe93976d5a54443a93fddc2dc6a597ad28b166e6630"}, {"txinwitness": ["3045022100efaea34461131aa3c2f53dcb2af0ee469eb7a6851839f4fe33c9de77579d710c022052c0d5bb845dbc5627384346489b24f9bf80480f199f5eaa13f71fadc16013a201", "027b2d0eb6b8fb10088b4d2f5c6c5bc81a8ba8e937c20e80c33965e9977496daec"], "sequence": 4294967294, "scriptSig": {"hex": "160014a60bad1ffa364f5a8ca34f9882808d1a2f80585f", "asm": "0014a60bad1ffa364f5a8ca34f9882808d1a2f80585f"}, "vout": 0, "txid": "2f44e5772c8d748856e8881851dac7fd29bc36b4abc46c117f6c7cd3cc092150"}, {"txinwitness": ["3045022100d3b4a8d81a4b61e2c92a7f37477f4f3982c0479fd0ee149a47c7088146ccc854022069f6106817e70385e995ec19fb1d7777b7f082322a0ab13f162f3869dc8c0e3b01", "02c8e607548ef6e63093231b5b6444e3e84cc59a408bf9313dd1025d5b06df1734"], "sequence": 4294967294, "scriptSig": {"hex": "1600147b7fcc58f0ce0792970cbf5bbe3a8c96c66ba4fd", "asm": "00147b7fcc58f0ce0792970cbf5bbe3a8c96c66ba4fd"}, "vout": 0, "txid": "1efd8956758bfdf59fe4ae6b84035a87903c199cf2ef9223edbfe302545e5662"}, {"txinwitness": ["3044022067e5cd895025ef6ed06d1f172c31d7ceb57addb08330b2c1875d1e22ec43329e0220702bbd05f0be2c5206b5777f67bb71ea1c6f0f44cdf7e7b0c43c0eb7ef4edcde01", "02cc995831300ddef5f07a585f624eaf5b9856faa400f3d38d1ca42818411b77f2"], "sequence": 4294967294, "scriptSig": {"hex": "1600149add834bae42bd52afb51ee3b5899c2d9b1da225", "asm": "00149add834bae42bd52afb51ee3b5899c2d9b1da225"}, "vout": 0, "txid": "c0c2a72cbc5cc2f58e7de962517250e715a2b3480db160c9d2ab4e1d362be765"}], "txid": "c81411a7354df679c5edcee46957348fc61273f172cc32be1d12cc7d6cf1ef5a", "blocktime": 1537871767, "version": 2, "confirmations": 11495, "time": 1537871767, "locktime": 542991, "vsize": 802, "size": 1450}