{"hash": "c81bdacf8e7a3dfdb19416a6a4cf2c9bf60488a0f117f12549f0c0a62bf27c74", "blockhash": "000000000000000000022b45ed06c6f4ccd3cf7fb5ba4856ebd2e58215665228", "vout": [{"scriptPubKey": {"reqSigs": 1, "hex": "76a91445e5acc4cf437b1cca357cc7456f66e53537dc3688ac", "addresses": ["17NamKwez7YUqxC2XqoCKUrxZ9aodNY4q7"], "asm": "OP_DUP OP_HASH160 45e5acc4cf437b1cca357cc7456f66e53537dc36 OP_EQUALVERIFY OP_CHECKSIG", "type": "pubkeyhash"}, "value": 0.0048, "n": 0}], "hex": "010000000166981c0e7ebb5074114bb24edbd728d417f09bc3090317ac4f1bf9bf317de08c010000006a47304402205238d2eaf272044c221f79833fe128f09e2e02402a29d3e76e147b30d2ee99af022029f7b85e30c629eefc604e81ff4a80c21697b0d25c39dc703a015caebce97dc50121020328bff1853421bde1a56212bf1bd4a3be413c287ae5a51c0b13f216243a20f4ffffffff0100530700000000001976a91445e5acc4cf437b1cca357cc7456f66e53537dc3688ac00000000", "vin": [{"sequence": 4294967295, "scriptSig": {"hex": "47304402205238d2eaf272044c221f79833fe128f09e2e02402a29d3e76e147b30d2ee99af022029f7b85e30c629eefc604e81ff4a80c21697b0d25c39dc703a015caebce97dc50121020328bff1853421bde1a56212bf1bd4a3be413c287ae5a51c0b13f216243a20f4", "asm": "304402205238d2eaf272044c221f79833fe128f09e2e02402a29d3e76e147b30d2ee99af022029f7b85e30c629eefc604e81ff4a80c21697b0d25c39dc703a015caebce97dc5[ALL] 020328bff1853421bde1a56212bf1bd4a3be413c287ae5a51c0b13f216243a20f4"}, "vout": 1, "txid": "8ce07d31bff91b4fac170309c39bf017d428d7db4eb24b117450bb7e0e1c9866"}], "txid": "c81bdacf8e7a3dfdb19416a6a4cf2c9bf60488a0f117f12549f0c0a62bf27c74", "blocktime": 1537869901, "version": 1, "confirmations": 11522, "time": 1537869901, "locktime": 0, "vsize": 191, "size": 191}