{"hash": "c81cada8604605c1b0e4ae1e25170d2a481e7501928be618253204aa45a9925b", "blockhash": "0000000000000000000e13cef7c366c0283d82e591d1acd082e914b08063cdf1", "vout": [{"scriptPubKey": {"reqSigs": 1, "hex": "76a914d505a164f4e272ba776a77bbecd761593574886288ac", "addresses": ["1LRMg555DxZp2ptPB3He5Q4471G6x5aByD"], "asm": "OP_DUP OP_HASH160 d505a164f4e272ba776a77bbecd7615935748862 OP_EQUALVERIFY OP_CHECKSIG", "type": "pubkeyhash"}, "value": 2.963e-05, "n": 0}, {"scriptPubKey": {"reqSigs": 1, "hex": "76a9144ee7918ae5149ed982127bdce2bb3b991819513a88ac", "addresses": ["18CD7dJsmULaDMeYy48gyKvRSUnj1FCcBC"], "asm": "OP_DUP OP_HASH160 4ee7918ae5149ed982127bdce2bb3b991819513a OP_EQUALVERIFY OP_CHECKSIG", "type": "pubkeyhash"}, "value": 0.00039055, "n": 1}], "hex": "0100000001eb30939c87be8040595f1ffda58afcb0c1dda6bc7623a16e5e285afeb5624f56000000006b483045022100fc0bd090e724dfaa9c2d7d0ad6e5294b394158a766aa03615020ec6ad7f94d47022070d51b797edd43c4e9d105a53e519cd99f09d45a9b3459efff2bc338ead5713f012103efe49b0cbbe68611cacd3229307bad30499017502379b6904617856253689fcfffffffff02930b0000000000001976a914d505a164f4e272ba776a77bbecd761593574886288ac8f980000000000001976a9144ee7918ae5149ed982127bdce2bb3b991819513a88ac00000000", "vin": [{"sequence": 4294967295, "scriptSig": {"hex": "483045022100fc0bd090e724dfaa9c2d7d0ad6e5294b394158a766aa03615020ec6ad7f94d47022070d51b797edd43c4e9d105a53e519cd99f09d45a9b3459efff2bc338ead5713f012103efe49b0cbbe68611cacd3229307bad30499017502379b6904617856253689fcf", "asm": "3045022100fc0bd090e724dfaa9c2d7d0ad6e5294b394158a766aa03615020ec6ad7f94d47022070d51b797edd43c4e9d105a53e519cd99f09d45a9b3459efff2bc338ead5713f[ALL] 03efe49b0cbbe68611cacd3229307bad30499017502379b6904617856253689fcf"}, "vout": 0, "txid": "564f62b5fe5a285e6ea12376bca6ddc1b0fc8aa5fd1f5f594080be879c9330eb"}], "txid": "c81cada8604605c1b0e4ae1e25170d2a481e7501928be618253204aa45a9925b", "blocktime": 1537871767, "version": 1, "confirmations": 11495, "time": 1537871767, "locktime": 0, "vsize": 226, "size": 226}