{"hash": "63a11488a286338ea5d6b8204ae2fb6a7e3bb618c3f2080270db8b948815c2e6", "blockhash": "0000000000000000001e0dab787dd257d1dbfcb92a98c2207d5e1078be1f4165", "vout": [{"scriptPubKey": {"reqSigs": 1, "hex": "a9148b3d39d1a22c22675b9ff7f38f6e097a9fe9266d87", "addresses": ["3EPFCFkdeVasef3yqUwsyryj2ArRzrwzHG"], "asm": "OP_HASH160 8b3d39d1a22c22675b9ff7f38f6e097a9fe9266d OP_EQUAL", "type": "scripthash"}, "value": 0.01072975, "n": 0}, {"scriptPubKey": {"reqSigs": 1, "hex": "a9146fec91919525312bfc9d35dba06d331cf59b3bc187", "addresses": ["3BtpKuvjbwMqVQDt6tKuXrcp4j6LcA7xqu"], "asm": "OP_HASH160 6fec91919525312bfc9d35dba06d331cf59b3bc1 OP_EQUAL", "type": "scripthash"}, "value": 0.42394989, "n": 1}], "hex": "01000000000101530ba8a188c46394d3ee090ac5f83ee4ac99c11f4222d08055c2f79aa5c052200100000023220020d262e3e1e23a820a8127ffac7322122c04e1a4fbd4ad1db7187c77419f14e69cffffffff024f5f10000000000017a9148b3d39d1a22c22675b9ff7f38f6e097a9fe9266d876de586020000000017a9146fec91919525312bfc9d35dba06d331cf59b3bc187040047304402203ffa6d3eb21d989cc053d3098c816074be10e8993cf4e7aa1568069a91130e84022031210557f183cce04d1b203de482b1f4848a28942b3c95b255aef791df6a6c750147304402205e49a1693ed5b08c3654f4b0149d4d497edc5212692d72db8d53ac0ddd79934e0220082c29e3bcfe0213247745a398509e258c8946b6910929c0be0fbe576d5170a701475221035cc03f2595ea2ec32cf2371375129e558793ee0062cf9cb6cd1a8ea98e9d050221038f2c7ecee34c843be9d886e50ce79e5dc40a1694c0417d60b35340f292ff73fc52ae00000000", "vin": [{"txinwitness": ["", "304402203ffa6d3eb21d989cc053d3098c816074be10e8993cf4e7aa1568069a91130e84022031210557f183cce04d1b203de482b1f4848a28942b3c95b255aef791df6a6c7501", "304402205e49a1693ed5b08c3654f4b0149d4d497edc5212692d72db8d53ac0ddd79934e0220082c29e3bcfe0213247745a398509e258c8946b6910929c0be0fbe576d5170a701", "5221035cc03f2595ea2ec32cf2371375129e558793ee0062cf9cb6cd1a8ea98e9d050221038f2c7ecee34c843be9d886e50ce79e5dc40a1694c0417d60b35340f292ff73fc52ae"], "sequence": 4294967295, "scriptSig": {"hex": "220020d262e3e1e23a820a8127ffac7322122c04e1a4fbd4ad1db7187c77419f14e69c", "asm": "0020d262e3e1e23a820a8127ffac7322122c04e1a4fbd4ad1db7187c77419f14e69c"}, "vout": 1, "txid": "2052c0a59af7c25580d022421fc199ace43ef8c50a09eed39463c488a1a80b53"}], "txid": "c8257edd3e9bb05563d157ba58a74ad62eed56b9699e76d065bda60cdaacc4d0", "blocktime": 1537872475, "version": 1, "confirmations": 11487, "time": 1537872475, "locktime": 0, "vsize": 205, "size": 370}