{"hash": "c82760bb937edac2878586f30c15d1ce939a1a4dd2543960575eed65a95d2cd0", "blockhash": "00000000000000000017f5eb5941039fbcee6240d03bc1f2f8e35350df66a1d8", "vout": [{"scriptPubKey": {"reqSigs": 1, "hex": "76a914976e7bedc782f51df48992b97ed588cfa5c68e0788ac", "addresses": ["1EohPY6CyoV2Abx2yBthTcoBu9V7jmXFhM"], "asm": "OP_DUP OP_HASH160 976e7bedc782f51df48992b97ed588cfa5c68e07 OP_EQUALVERIFY OP_CHECKSIG", "type": "pubkeyhash"}, "value": 0.00063965, "n": 0}, {"scriptPubKey": {"reqSigs": 1, "hex": "a91441977b292e7c2d822b37f2564a4ae9403efcc44487", "addresses": ["37fqK6yhJhSMS1uibNxNZCt5GxkPvMp2Sr"], "asm": "OP_HASH160 41977b292e7c2d822b37f2564a4ae9403efcc444 OP_EQUAL", "type": "scripthash"}, "value": 0.03441236, "n": 1}], "hex": "01000000039a6f585b01b0349f69217dbfdf8b69ed493e19e8423272aa43a3c67f7a82833b000000006b483045022100d54bd1a8902d616eb96fee048ca691d8d8bbae6d1932fe7306de03d591cd32150220736d26c8578637d92bd5266a8ac54a32a49e58f75af9e6599dcec027a09c3398012103afe3403a08dd6bd14c3464ef1743d14a7bbc0ee0ed6a8db446d758bb5cb7b50dffffffffe35bf88e52ef2e1239344cf4c57e1e048089d761cd8bda79627422fd423ca249000000006b483045022100c9a6bfb409227d7573ee5e7ba201fd21b898b1a04e7bde089dccd3ca5c2fb3ca02206fab98b11ce2a647ac9ad0231f9bdf614a26eac6e417b206ab94571eefe3c388012103c87be70291c17ad4a61e16f96fdda9aae46ec745fb0d90ec10081bb67031d44affffffff990f07843668048c044bfd8bfec3106525514a4544b532cc9db106b3f8c5de4d010000006b483045022100e693bc64397b89d7df03ac699e32e5664d2f07e1ada16867513cbf2c22bf356302200da5cef3bbaf0c3f8cf391af85ea0d72a0a852443793541c501b15a69354504b01210229730f1e61514c685c2416cc7ad565b980b507bf63c858482f02828ee9a8959effffffff02ddf90000000000001976a914976e7bedc782f51df48992b97ed588cfa5c68e0788ac548234000000000017a91441977b292e7c2d822b37f2564a4ae9403efcc4448700000000", "vin": [{"sequence": 4294967295, "scriptSig": {"hex": "483045022100d54bd1a8902d616eb96fee048ca691d8d8bbae6d1932fe7306de03d591cd32150220736d26c8578637d92bd5266a8ac54a32a49e58f75af9e6599dcec027a09c3398012103afe3403a08dd6bd14c3464ef1743d14a7bbc0ee0ed6a8db446d758bb5cb7b50d", "asm": "3045022100d54bd1a8902d616eb96fee048ca691d8d8bbae6d1932fe7306de03d591cd32150220736d26c8578637d92bd5266a8ac54a32a49e58f75af9e6599dcec027a09c3398[ALL] 03afe3403a08dd6bd14c3464ef1743d14a7bbc0ee0ed6a8db446d758bb5cb7b50d"}, "vout": 0, "txid": "3b83827a7fc6a343aa723242e8193e49ed698bdfbf7d21699f34b0015b586f9a"}, {"sequence": 4294967295, "scriptSig": {"hex": "483045022100c9a6bfb409227d7573ee5e7ba201fd21b898b1a04e7bde089dccd3ca5c2fb3ca02206fab98b11ce2a647ac9ad0231f9bdf614a26eac6e417b206ab94571eefe3c388012103c87be70291c17ad4a61e16f96fdda9aae46ec745fb0d90ec10081bb67031d44a", "asm": "3045022100c9a6bfb409227d7573ee5e7ba201fd21b898b1a04e7bde089dccd3ca5c2fb3ca02206fab98b11ce2a647ac9ad0231f9bdf614a26eac6e417b206ab94571eefe3c388[ALL] 03c87be70291c17ad4a61e16f96fdda9aae46ec745fb0d90ec10081bb67031d44a"}, "vout": 0, "txid": "49a23c42fd22746279da8bcd61d78980041e7ec5f44c3439122eef528ef85be3"}, {"sequence": 4294967295, "scriptSig": {"hex": "483045022100e693bc64397b89d7df03ac699e32e5664d2f07e1ada16867513cbf2c22bf356302200da5cef3bbaf0c3f8cf391af85ea0d72a0a852443793541c501b15a69354504b01210229730f1e61514c685c2416cc7ad565b980b507bf63c858482f02828ee9a8959e", "asm": "3045022100e693bc64397b89d7df03ac699e32e5664d2f07e1ada16867513cbf2c22bf356302200da5cef3bbaf0c3f8cf391af85ea0d72a0a852443793541c501b15a69354504b[ALL] 0229730f1e61514c685c2416cc7ad565b980b507bf63c858482f02828ee9a8959e"}, "vout": 1, "txid": "4ddec5f8b306b19dcc32b544454a51256510c3fe8bfd4b048c04683684070f99"}], "txid": "c82760bb937edac2878586f30c15d1ce939a1a4dd2543960575eed65a95d2cd0", "blocktime": 1537874412, "version": 1, "confirmations": 11467, "time": 1537874412, "locktime": 0, "vsize": 520, "size": 520}