{"hash": "e9aa3c2f35eb961695db5bca0708677b27de3ce2c607b20baab7b5f5e8e2d9c7", "blockhash": "0000000000000000001f76057863aec43deb6fa401d9628bb513d65a8098bfab", "vout": [{"scriptPubKey": {"reqSigs": 1, "hex": "76a914722d0112b1d3d20bf0d83d927d007c0b527555c688ac", "addresses": ["1BQhwpFhFUQST66mwWohCtnPg1kiSBV36w"], "asm": "OP_DUP OP_HASH160 722d0112b1d3d20bf0d83d927d007c0b527555c6 OP_EQUALVERIFY OP_CHECKSIG", "type": "pubkeyhash"}, "value": 0.146773, "n": 0}, {"scriptPubKey": {"reqSigs": 1, "hex": "a9147e8f52717a51dd3cdcbda8fe1bd15e1601cfb59587", "addresses": ["3DECkuRH3FPw6wR4TsADc9p31F2UUYiW3y"], "asm": "OP_HASH160 7e8f52717a51dd3cdcbda8fe1bd15e1601cfb595 OP_EQUAL", "type": "scripthash"}, "value": 0.00036693, "n": 1}, {"scriptPubKey": {"reqSigs": 1, "hex": "a9149306a5ba935ec568010724a274683f2fbfaec9a787", "addresses": ["3F6RDcNqphA2fge3ksaH8acxSq445fPyxE"], "asm": "OP_HASH160 9306a5ba935ec568010724a274683f2fbfaec9a7 OP_EQUAL", "type": "scripthash"}, "value": 0.00045504, "n": 2}], "hex": "01000000000102ea8e90c30e7d1a2a796bd88416e3d8ff6084b1378a3cbf0055e0d019f10d40b501000000232200202e692b9d1a56f3d66170b6fb1b6c27b2993dbbd9eaa9a8883f498c6ffa05f9abfffffffff40343786f853f023144d3574cff5706e371629690b98e75721b005941ad724b1f000000fdfe0000483045022100bff41adf846dcf1cf61374f72767a6e37c2cbb9016d79a8c26570a5e54918e1f02200c272069c0e3908974a005d01df60a76491e2b4c282f68c6582684acb1a8ee8d01483045022100e2d228d8fcfe7dfbf7999116f4ca4cb63d6c458b19d9d57bc40712733aafe138022019927a9ba7c54ac2bd18616144d27cb42f899897acd5f204d4dda745d7cdedab014c69522103921f76e30c31bed3b03d1ce365624f72786cebeea12396da965ac73fdd7d9c6f210332096ed39cb5745dd56d726dda859dc017e83ccb4ff5e500af9c8d16d020e78b2103ffc7cf05777def8acd75061a9ffab7f509dc58fd2af9bd635bbf5196673abdb153aeffffffff0334f5df00000000001976a914722d0112b1d3d20bf0d83d927d007c0b527555c688ac558f00000000000017a9147e8f52717a51dd3cdcbda8fe1bd15e1601cfb59587c0b100000000000017a9149306a5ba935ec568010724a274683f2fbfaec9a787040047304402200d24dd31d4e26c48bfbc23a1c0b57db0663ecf24d368ccd62ed38ca622984bf802204f112197677d5ef53e64710396a352a2055d63cb52edf307360bc94fcce45cab014730440220763ceaa24b470d874d2889df21c1e9e26edf91fe076fc122267155027c4fec6f02205562afba9c3249802d4c413fa2722fe1902ffaaac758c904775d7ccc6eb1e8d8016952210206436996344911157afb5174a83826d7df998569f429f07a0e44d3640911cf4521021ecbb9423171f35a4b4edfe1e280d81e0fac9dfff6c58ed4d98f64425299a38621038770bf6b2b87c0a92fcd4a4f62571c31328f436fbf5026389277e7c31347818b53ae0015490800", "vin": [{"txinwitness": ["", "304402200d24dd31d4e26c48bfbc23a1c0b57db0663ecf24d368ccd62ed38ca622984bf802204f112197677d5ef53e64710396a352a2055d63cb52edf307360bc94fcce45cab01", "30440220763ceaa24b470d874d2889df21c1e9e26edf91fe076fc122267155027c4fec6f02205562afba9c3249802d4c413fa2722fe1902ffaaac758c904775d7ccc6eb1e8d801", "52210206436996344911157afb5174a83826d7df998569f429f07a0e44d3640911cf4521021ecbb9423171f35a4b4edfe1e280d81e0fac9dfff6c58ed4d98f64425299a38621038770bf6b2b87c0a92fcd4a4f62571c31328f436fbf5026389277e7c31347818b53ae"], "sequence": 4294967295, "scriptSig": {"hex": "2200202e692b9d1a56f3d66170b6fb1b6c27b2993dbbd9eaa9a8883f498c6ffa05f9ab", "asm": "00202e692b9d1a56f3d66170b6fb1b6c27b2993dbbd9eaa9a8883f498c6ffa05f9ab"}, "vout": 1, "txid": "b5400df119d0e05500bf3c8a37b18460ffd8e31684d86b792a1a7d0ec3908eea"}, {"sequence": 4294967295, "scriptSig": {"hex": "00483045022100bff41adf846dcf1cf61374f72767a6e37c2cbb9016d79a8c26570a5e54918e1f02200c272069c0e3908974a005d01df60a76491e2b4c282f68c6582684acb1a8ee8d01483045022100e2d228d8fcfe7dfbf7999116f4ca4cb63d6c458b19d9d57bc40712733aafe138022019927a9ba7c54ac2bd18616144d27cb42f899897acd5f204d4dda745d7cdedab014c69522103921f76e30c31bed3b03d1ce365624f72786cebeea12396da965ac73fdd7d9c6f210332096ed39cb5745dd56d726dda859dc017e83ccb4ff5e500af9c8d16d020e78b2103ffc7cf05777def8acd75061a9ffab7f509dc58fd2af9bd635bbf5196673abdb153ae", "asm": "0 3045022100bff41adf846dcf1cf61374f72767a6e37c2cbb9016d79a8c26570a5e54918e1f02200c272069c0e3908974a005d01df60a76491e2b4c282f68c6582684acb1a8ee8d[ALL] 3045022100e2d228d8fcfe7dfbf7999116f4ca4cb63d6c458b19d9d57bc40712733aafe138022019927a9ba7c54ac2bd18616144d27cb42f899897acd5f204d4dda745d7cdedab[ALL] 522103921f76e30c31bed3b03d1ce365624f72786cebeea12396da965ac73fdd7d9c6f210332096ed39cb5745dd56d726dda859dc017e83ccb4ff5e500af9c8d16d020e78b2103ffc7cf05777def8acd75061a9ffab7f509dc58fd2af9bd635bbf5196673abdb153ae"}, "vout": 31, "txid": "4b72ad4159001b72758eb990966271e30657ff4c57d34431023f856f784303f4"}], "txid": "c83133b33ba882e9a82d5a291325d320cc750a6f7527ad92f9e8a004afd1a829", "blocktime": 1537873891, "version": 1, "confirmations": 11478, "time": 1537873891, "locktime": 542997, "vsize": 545, "size": 736}