{"hash": "c8338309dd12705559d969b43f5233f55ad01e511e297354b8a76d8aa051cf82", "blockhash": "0000000000000000001f76057863aec43deb6fa401d9628bb513d65a8098bfab", "vout": [{"scriptPubKey": {"reqSigs": 1, "hex": "76a914be266e3739ee10fb4e04246b28c828044021038a88ac", "addresses": ["1JLRReaJBKJ9CfWguDHj8KHPqk77w7deRj"], "asm": "OP_DUP OP_HASH160 be266e3739ee10fb4e04246b28c828044021038a OP_EQUALVERIFY OP_CHECKSIG", "type": "pubkeyhash"}, "value": 0.000781, "n": 0}, {"scriptPubKey": {"reqSigs": 1, "hex": "76a914a9777cea7eca529134d27676a6323dce85025f4e88ac", "addresses": ["1GT4Lb6bWFMQ4WSvk6b4rC1uPiusDQdJc5"], "asm": "OP_DUP OP_HASH160 a9777cea7eca529134d27676a6323dce85025f4e OP_EQUALVERIFY OP_CHECKSIG", "type": "pubkeyhash"}, "value": 0.00183753, "n": 1}], "hex": "010000000180f5d9afa3c9fa6acb82a84751d9f5bff56a4452405db81ac85bba7fd05c38d5010000006b483045022100ec78f7bdc1bd7661804c6746a530aa65184c3de95b650359944aaf08226099cf02207c03d57b81a6d0b1080d4e589e2309569ed31758190c5023670d3d20f4b2abce012102aa6368445657b35aed6ebc536a236fb42a3e4c92b855abf714d9ac19cf61261bfdffffff0214310100000000001976a914be266e3739ee10fb4e04246b28c828044021038a88acc9cd0200000000001976a914a9777cea7eca529134d27676a6323dce85025f4e88ac14490800", "vin": [{"sequence": 4294967293, "scriptSig": {"hex": "483045022100ec78f7bdc1bd7661804c6746a530aa65184c3de95b650359944aaf08226099cf02207c03d57b81a6d0b1080d4e589e2309569ed31758190c5023670d3d20f4b2abce012102aa6368445657b35aed6ebc536a236fb42a3e4c92b855abf714d9ac19cf61261b", "asm": "3045022100ec78f7bdc1bd7661804c6746a530aa65184c3de95b650359944aaf08226099cf02207c03d57b81a6d0b1080d4e589e2309569ed31758190c5023670d3d20f4b2abce[ALL] 02aa6368445657b35aed6ebc536a236fb42a3e4c92b855abf714d9ac19cf61261b"}, "vout": 1, "txid": "d5385cd07fba5bc81ab85d4052446af5bff5d95147a882cb6afac9a3afd9f580"}], "txid": "c8338309dd12705559d969b43f5233f55ad01e511e297354b8a76d8aa051cf82", "blocktime": 1537873891, "version": 1, "confirmations": 11475, "time": 1537873891, "locktime": 542996, "vsize": 226, "size": 226}