{"hash": "5e46085506e7924835025af6435a3d9f5c6701f6a08e6b17b66bf2c4a943df53", "blockhash": "0000000000000000000baef3f32e3676a92c3b2e5da21b426e4f302fc371ce76", "vout": [{"scriptPubKey": {"reqSigs": 1, "hex": "76a91466f507000242bbaedf1214571c8f9a73f9e7a2a988ac", "addresses": ["1APPTNAvv3rSv8oAx1FtxbfwQTmvNb8vzU"], "asm": "OP_DUP OP_HASH160 66f507000242bbaedf1214571c8f9a73f9e7a2a9 OP_EQUALVERIFY OP_CHECKSIG", "type": "pubkeyhash"}, "value": 0.002736, "n": 0}, {"scriptPubKey": {"reqSigs": 1, "hex": "a9149649ad6d2730bb28020a268d9d80df10a9f74ad487", "addresses": ["3FPfYWwfMfKMGY7fuPHvz2b73RhTNGzsm3"], "asm": "OP_HASH160 9649ad6d2730bb28020a268d9d80df10a9f74ad4 OP_EQUAL", "type": "scripthash"}, "value": 13.78865293, "n": 1}], "hex": "01000000000101172ede9807863cbb776b2aac3a78beb4a29777521e60b2b7727110a181103bd401000000232200207768efcc1e5eb3d28410fac3f45831004c860cc24cddd940a616b34324823fceffffffff02c02c0400000000001976a91466f507000242bbaedf1214571c8f9a73f9e7a2a988ac8dd02f520000000017a9149649ad6d2730bb28020a268d9d80df10a9f74ad487040047304402201b832e5fa9f6716309ad04ba24d0d6a0f24e300d662bff236d4184bfc07a92b10220359e9d8ea5051b7c0146f8793b5a9e69bf766f72a20dca57528a29e55404c36401473044022002f1acffd1bf8e06f073e2d5f8f153cd60fdd3dd5fceec826b0db9fec73e0e1e02206e21a7c358fb4b254b366a4ce5a44a9711f738671217ab717bf82227df89d6380147522102529d5d1f6733ab45d9d50e07db42c7f6b967ae321c38b726c2247f149959b8262103d0c936a5988dd8421c63240496b723b0ec42400c38b9350e32c2eb4f47d8796952ae00000000", "vin": [{"txinwitness": ["", "304402201b832e5fa9f6716309ad04ba24d0d6a0f24e300d662bff236d4184bfc07a92b10220359e9d8ea5051b7c0146f8793b5a9e69bf766f72a20dca57528a29e55404c36401", "3044022002f1acffd1bf8e06f073e2d5f8f153cd60fdd3dd5fceec826b0db9fec73e0e1e02206e21a7c358fb4b254b366a4ce5a44a9711f738671217ab717bf82227df89d63801", "522102529d5d1f6733ab45d9d50e07db42c7f6b967ae321c38b726c2247f149959b8262103d0c936a5988dd8421c63240496b723b0ec42400c38b9350e32c2eb4f47d8796952ae"], "sequence": 4294967295, "scriptSig": {"hex": "2200207768efcc1e5eb3d28410fac3f45831004c860cc24cddd940a616b34324823fce", "asm": "00207768efcc1e5eb3d28410fac3f45831004c860cc24cddd940a616b34324823fce"}, "vout": 1, "txid": "d43b1081a1107172b7b2601e527797a2b4be783aac2a6b77bb3c860798de2e17"}], "txid": "c835a03e2af5db59798b6c3583ee2d0b9c37da68fed9ee24a8bea9807d897220", "blocktime": 1537876114, "version": 1, "confirmations": 11462, "time": 1537876114, "locktime": 0, "vsize": 207, "size": 372}