{"hash": "c83751396f25245406b794c86a14b27d1c3956dabfae063345dc41c4379dd787", "blockhash": "0000000000000000000e13cef7c366c0283d82e591d1acd082e914b08063cdf1", "vout": [{"scriptPubKey": {"reqSigs": 1, "hex": "76a9143dd15fb4312c9f725920c71300315c93b38929e488ac", "addresses": ["16ds3FaSnG9RbaqSHsJz7Av1qNSMzQ6gFq"], "asm": "OP_DUP OP_HASH160 3dd15fb4312c9f725920c71300315c93b38929e4 OP_EQUALVERIFY OP_CHECKSIG", "type": "pubkeyhash"}, "value": 0.00212633, "n": 0}, {"scriptPubKey": {"reqSigs": 1, "hex": "76a9142f699ce882f943e3ce3b45ec3897afe02de7a0fe88ac", "addresses": ["15KhH8aBpEJK2WnsKPKHxAogh9mCsqqq47"], "asm": "OP_DUP OP_HASH160 2f699ce882f943e3ce3b45ec3897afe02de7a0fe OP_EQUALVERIFY OP_CHECKSIG", "type": "pubkeyhash"}, "value": 0.00781134, "n": 1}], "hex": "0100000001e74111211a30372bce9ddbc7f3e6d5225ba37fad48e35b7a709bed9015e00d74010000006a47304402200ab51f1bf02638c6e65af75cb5ba1f1046d18024c34ab4d3899915ac6ef1c74102204624cdf29b444091ef063c19e1888b5c8718c1143ddc50e7bfbd8ae8e1a2b4ae012103b9002e68e99095ae3bea1eae5b48744015625a4e253b635cc95492cd119d0012feffffff02993e0300000000001976a9143dd15fb4312c9f725920c71300315c93b38929e488ac4eeb0b00000000001976a9142f699ce882f943e3ce3b45ec3897afe02de7a0fe88ac10490800", "vin": [{"sequence": 4294967294, "scriptSig": {"hex": "47304402200ab51f1bf02638c6e65af75cb5ba1f1046d18024c34ab4d3899915ac6ef1c74102204624cdf29b444091ef063c19e1888b5c8718c1143ddc50e7bfbd8ae8e1a2b4ae012103b9002e68e99095ae3bea1eae5b48744015625a4e253b635cc95492cd119d0012", "asm": "304402200ab51f1bf02638c6e65af75cb5ba1f1046d18024c34ab4d3899915ac6ef1c74102204624cdf29b444091ef063c19e1888b5c8718c1143ddc50e7bfbd8ae8e1a2b4ae[ALL] 03b9002e68e99095ae3bea1eae5b48744015625a4e253b635cc95492cd119d0012"}, "vout": 1, "txid": "740de01590ed9b707a5be348ad7fa35b22d5e6f3c7db9dce2b37301a211141e7"}], "txid": "c83751396f25245406b794c86a14b27d1c3956dabfae063345dc41c4379dd787", "blocktime": 1537871767, "version": 1, "confirmations": 11491, "time": 1537871767, "locktime": 542992, "vsize": 225, "size": 225}