{"hash": "4d60d39a479e33125d0c391c0a5e25b53435ce0ccbff05033c047c2903487baf", "blockhash": "0000000000000000001cda96e906b7601b7a6fb1a3b62bca570a9e5d8f4b3de1", "vout": [{"scriptPubKey": {"reqSigs": 1, "hex": "a914c17b42c4e57815b58fea2114b418041523508a0a87", "addresses": ["3KL3zsvHYYajc2s2kW57kwpEc88ywc5Kiy"], "asm": "OP_HASH160 c17b42c4e57815b58fea2114b418041523508a0a OP_EQUAL", "type": "scripthash"}, "value": 0.13336796, "n": 0}, {"scriptPubKey": {"reqSigs": 1, "hex": "76a914989c398ca0238c990d81d60dde4b09d6042d966988ac", "addresses": ["1EuvrrAsvz5gKYX6DrcDUZAi59bzzsbDAd"], "asm": "OP_DUP OP_HASH160 989c398ca0238c990d81d60dde4b09d6042d9669 OP_EQUALVERIFY OP_CHECKSIG", "type": "pubkeyhash"}, "value": 0.11639769, "n": 1}], "hex": "02000000000101e7a88e9a27fb4bcdb37cef1dd464fa561259211eb3fa8b809d71d8567f171fc501000000171600143850a12cb25d0db2e0bbbcf6725ce6c0f18fd24dfeffffff02dc80cb000000000017a914c17b42c4e57815b58fea2114b418041523508a0a87d99bb100000000001976a914989c398ca0238c990d81d60dde4b09d6042d966988ac02483045022100b071d210010726754ef83decb9efb1f4ecbb2998481c0d37181967386ad89949022036f74bd509fa4e45d79182ccb25fff985daa4621815dc3a0e8197bf235f4b66001210355760848028048492d6412aaa94f7b7ae7edd100c8f0760089dad826c0f0f36c04490800", "vin": [{"txinwitness": ["3045022100b071d210010726754ef83decb9efb1f4ecbb2998481c0d37181967386ad89949022036f74bd509fa4e45d79182ccb25fff985daa4621815dc3a0e8197bf235f4b66001", "0355760848028048492d6412aaa94f7b7ae7edd100c8f0760089dad826c0f0f36c"], "sequence": 4294967294, "scriptSig": {"hex": "1600143850a12cb25d0db2e0bbbcf6725ce6c0f18fd24d", "asm": "00143850a12cb25d0db2e0bbbcf6725ce6c0f18fd24d"}, "vout": 1, "txid": "c51f177f56d8719d808bfab31e21591256fa64d41def7cb3cd4bfb279a8ea8e7"}], "txid": "c83ddeb06ff6dfc34da3d503dada9db3f8676b45ba21c312eed5fde36d884518", "blocktime": 1537873282, "version": 2, "confirmations": 11485, "time": 1537873282, "locktime": 542980, "vsize": 168, "size": 250}