{"hash": "c83fa59e7ac9dd66088b0fcef043df962ab3043cfad655cae2adeff8bb2d3bc4", "blockhash": "0000000000000000000baef3f32e3676a92c3b2e5da21b426e4f302fc371ce76", "vout": [{"scriptPubKey": {"type": "nulldata", "hex": "6a146f6d6e69000000000000001f0000002373a44200", "asm": "OP_RETURN 6f6d6e69000000000000001f0000002373a44200"}, "value": 0.0, "n": 0}, {"scriptPubKey": {"reqSigs": 1, "hex": "76a914c45a0e7124331d1350a074a8b9e63c39226bd6d088ac", "addresses": ["1JuDKq2ibjmEaVnyxuK2rFAjp2wNzWjmXT"], "asm": "OP_DUP OP_HASH160 c45a0e7124331d1350a074a8b9e63c39226bd6d0 OP_EQUALVERIFY OP_CHECKSIG", "type": "pubkeyhash"}, "value": 5.46e-06, "n": 1}, {"scriptPubKey": {"reqSigs": 1, "hex": "76a91458f32143a95cd11ee5f37e5d1dff6f9fbafa660b88ac", "addresses": ["197Kir2psnjrTFwx8R9cUnmVCUFeUgCNxS"], "asm": "OP_DUP OP_HASH160 58f32143a95cd11ee5f37e5d1dff6f9fbafa660b OP_EQUALVERIFY OP_CHECKSIG", "type": "pubkeyhash"}, "value": 0.91688357, "n": 2}], "hex": "0100000001cb5c8edea7537a94186358531b528cc82a7fefee0836c583e1c0f7db79b5d052010000006a473044022024f9c967d4a32de503d170b78f0cb249f8e13b751450f3c92c4b701a69d7f5ea02205ca58318dd6d808f843967d190144b321ab9d78dfd7ebcfc76a33a255760510801210251e12972b557d5dbac73bfd2470adeac64ac46202389f0ef2db7231f645a0aeafeffffff030000000000000000166a146f6d6e69000000000000001f0000002373a4420022020000000000001976a914c45a0e7124331d1350a074a8b9e63c39226bd6d088aca50d7705000000001976a91458f32143a95cd11ee5f37e5d1dff6f9fbafa660b88ac17490800", "vin": [{"sequence": 4294967294, "scriptSig": {"hex": "473044022024f9c967d4a32de503d170b78f0cb249f8e13b751450f3c92c4b701a69d7f5ea02205ca58318dd6d808f843967d190144b321ab9d78dfd7ebcfc76a33a255760510801210251e12972b557d5dbac73bfd2470adeac64ac46202389f0ef2db7231f645a0aea", "asm": "3044022024f9c967d4a32de503d170b78f0cb249f8e13b751450f3c92c4b701a69d7f5ea02205ca58318dd6d808f843967d190144b321ab9d78dfd7ebcfc76a33a2557605108[ALL] 0251e12972b557d5dbac73bfd2470adeac64ac46202389f0ef2db7231f645a0aea"}, "vout": 1, "txid": "52d0b579dbf7c0e183c53608eeef7f2ac88c521b53586318947a53a7de8e5ccb"}], "txid": "c83fa59e7ac9dd66088b0fcef043df962ab3043cfad655cae2adeff8bb2d3bc4", "blocktime": 1537876114, "version": 1, "confirmations": 11460, "time": 1537876114, "locktime": 542999, "vsize": 256, "size": 256}