{"hash": "c8442e44939178490acf80be188061d611df8c0afad088e5953d0e98856277ec", "blockhash": "000000000000000000022b45ed06c6f4ccd3cf7fb5ba4856ebd2e58215665228", "vout": [{"scriptPubKey": {"reqSigs": 1, "hex": "76a9140d42e0d5e1097bf8aba42ec36aa04399f5debb6688ac", "addresses": ["12D7uH4rsaRoKbCV5fVCB1nryW6A4ffomP"], "asm": "OP_DUP OP_HASH160 0d42e0d5e1097bf8aba42ec36aa04399f5debb66 OP_EQUALVERIFY OP_CHECKSIG", "type": "pubkeyhash"}, "value": 0.00648794, "n": 0}, {"scriptPubKey": {"type": "nulldata", "hex": "6a4c5000007766000164a4edbeb4bc70a9238af0a086aeaeacb577c031fc3a016b46dc7dc7d096cd221468efcb3c4bbb0087076dd5c5575baa08190612ee9c036319661d100759d4ba30d2c37bb011d97e02cf", "asm": "OP_RETURN 00007766000164a4edbeb4bc70a9238af0a086aeaeacb577c031fc3a016b46dc7dc7d096cd221468efcb3c4bbb0087076dd5c5575baa08190612ee9c036319661d100759d4ba30d2c37bb011d97e02cf"}, "value": 0.0, "n": 1}], "hex": "01000000010ecfbc06e49993dd1f506a904c6698b671cd44368f04912130be7c28b26309b7010000006b483045022100cea28a9061c6d35946d964d59ae64b445fc3ab2605bb1d5e5d422a091907828d02206259c4d9a3288eeb43f7659cc550049d86d74a84d44b69a069b1199842f624480121028b516ed11c13b56106f3af1a49d8de328e580f3f56a775f7ad32f4ccee6ceb9dffffffff025ae60900000000001976a9140d42e0d5e1097bf8aba42ec36aa04399f5debb6688ac0000000000000000536a4c5000007766000164a4edbeb4bc70a9238af0a086aeaeacb577c031fc3a016b46dc7dc7d096cd221468efcb3c4bbb0087076dd5c5575baa08190612ee9c036319661d100759d4ba30d2c37bb011d97e02cf00000000", "vin": [{"sequence": 4294967295, "scriptSig": {"hex": "483045022100cea28a9061c6d35946d964d59ae64b445fc3ab2605bb1d5e5d422a091907828d02206259c4d9a3288eeb43f7659cc550049d86d74a84d44b69a069b1199842f624480121028b516ed11c13b56106f3af1a49d8de328e580f3f56a775f7ad32f4ccee6ceb9d", "asm": "3045022100cea28a9061c6d35946d964d59ae64b445fc3ab2605bb1d5e5d422a091907828d02206259c4d9a3288eeb43f7659cc550049d86d74a84d44b69a069b1199842f62448[ALL] 028b516ed11c13b56106f3af1a49d8de328e580f3f56a775f7ad32f4ccee6ceb9d"}, "vout": 1, "txid": "b70963b2287cbe302191048f3644cd71b698664c906a501fdd9399e406bccf0e"}], "txid": "c8442e44939178490acf80be188061d611df8c0afad088e5953d0e98856277ec", "blocktime": 1537869901, "version": 1, "confirmations": 11523, "time": 1537869901, "locktime": 0, "vsize": 284, "size": 284}