{"hash": "c8460cd6ab93de87c285a032013c53f09779ea352e0dbba3f35176b3356a7359", "blockhash": "0000000000000000001f0ddff1eddb255c1121bcd4da4f1bc9a0da00cae72433", "vout": [{"scriptPubKey": {"reqSigs": 1, "hex": "76a914ef2c566649d49c8eeb12b10df53310053d28505688ac", "addresses": ["1NodcUJyEEWx5pBgcMUbX7wPYobkZsafGv"], "asm": "OP_DUP OP_HASH160 ef2c566649d49c8eeb12b10df53310053d285056 OP_EQUALVERIFY OP_CHECKSIG", "type": "pubkeyhash"}, "value": 0.00015409, "n": 0}, {"scriptPubKey": {"reqSigs": 1, "hex": "a9149374a4ddfe5703dcca005bdec9dcae453d395c9287", "addresses": ["3F8gzJz5KEgxjLTzaRdpGVAhaMGJydPRUd"], "asm": "OP_HASH160 9374a4ddfe5703dcca005bdec9dcae453d395c92 OP_EQUAL", "type": "scripthash"}, "value": 0.00821367, "n": 1}], "hex": "0100000002291a1cef1f177a3e35bae44486a4ae9cafce4c3c527674b38dc4ba7be6a4f555000000006a47304402203066c27266a611f2880c2562f3a68290db89e8b4e929351342c4c0a9775d28a4022057ed2c0f315b3c0ed9df6cd850b0d84cd4bf2562156e0933371b1b7faa4ce6e7012103b65b1425d8654b70d101c551b3027a9eeab0e2b6a52c341b9a29fcc9bf54cb54ffffffffb1bf9e8aba9f1512325f986fef4dd5eebba256cc5957575cd67e12d6987ec2c0000000006a4730440220079c6c20dff3c41642bf208ec6e170f0b074d729bf20333d976ee88cca950b0e02200f04c77cbbe42ab4de942dcdcf1418785ede15877533b395bb78dc5e66c7e63c012102002838c2354020a7776a6b76c583c739b93070713d3cc5d9be6c226cc55e5f13ffffffff02313c0000000000001976a914ef2c566649d49c8eeb12b10df53310053d28505688ac77880c000000000017a9149374a4ddfe5703dcca005bdec9dcae453d395c928700000000", "vin": [{"sequence": 4294967295, "scriptSig": {"hex": "47304402203066c27266a611f2880c2562f3a68290db89e8b4e929351342c4c0a9775d28a4022057ed2c0f315b3c0ed9df6cd850b0d84cd4bf2562156e0933371b1b7faa4ce6e7012103b65b1425d8654b70d101c551b3027a9eeab0e2b6a52c341b9a29fcc9bf54cb54", "asm": "304402203066c27266a611f2880c2562f3a68290db89e8b4e929351342c4c0a9775d28a4022057ed2c0f315b3c0ed9df6cd850b0d84cd4bf2562156e0933371b1b7faa4ce6e7[ALL] 03b65b1425d8654b70d101c551b3027a9eeab0e2b6a52c341b9a29fcc9bf54cb54"}, "vout": 0, "txid": "55f5a4e67bbac48db37476523c4cceaf9caea48644e4ba353e7a171fef1c1a29"}, {"sequence": 4294967295, "scriptSig": {"hex": "4730440220079c6c20dff3c41642bf208ec6e170f0b074d729bf20333d976ee88cca950b0e02200f04c77cbbe42ab4de942dcdcf1418785ede15877533b395bb78dc5e66c7e63c012102002838c2354020a7776a6b76c583c739b93070713d3cc5d9be6c226cc55e5f13", "asm": "30440220079c6c20dff3c41642bf208ec6e170f0b074d729bf20333d976ee88cca950b0e02200f04c77cbbe42ab4de942dcdcf1418785ede15877533b395bb78dc5e66c7e63c[ALL] 02002838c2354020a7776a6b76c583c739b93070713d3cc5d9be6c226cc55e5f13"}, "vout": 0, "txid": "c0c27e98d6127ed65c575759cc56a2bbeed54def6f985f3212159fba8a9ebfb1"}], "txid": "c8460cd6ab93de87c285a032013c53f09779ea352e0dbba3f35176b3356a7359", "blocktime": 1537872018, "version": 1, "confirmations": 11489, "time": 1537872018, "locktime": 0, "vsize": 370, "size": 370}