{"hash": "c84f929917c9a7f666cb0b2101e49e6c81f2886abbeb760a9b5bb0fdf55ef7d8", "blockhash": "00000000000000000024a2167bbff67b0be802c0b01cdd79e6331c2be6459f87", "vout": [{"scriptPubKey": {"reqSigs": 1, "hex": "a91410f5c7e4cfd082f80317c87a6f9bad0c91dbe8e587", "addresses": ["33EhAmKCp4zxhT8V42dBXtYqqdFEi394Bo"], "asm": "OP_HASH160 10f5c7e4cfd082f80317c87a6f9bad0c91dbe8e5 OP_EQUAL", "type": "scripthash"}, "value": 0.022, "n": 0}, {"scriptPubKey": {"reqSigs": 1, "hex": "76a9142dbca59d6d80b6f6ebe8d3a74e657dc53820a08c88ac", "addresses": ["15AqQ3xsN7VUveG9v6zqTHwnLajwfU2S3j"], "asm": "OP_DUP OP_HASH160 2dbca59d6d80b6f6ebe8d3a74e657dc53820a08c OP_EQUALVERIFY OP_CHECKSIG", "type": "pubkeyhash"}, "value": 0.00989317, "n": 1}], "hex": "02000000070849c056b88a0efa326d152427e78f2b2e98a90354d0c9fd45e7a4c890eb72b34d0000006b483045022100e63b1fdf86c7e9ac9cb3443c440118c9a138f4c09ef0e761ada63db8d4ebbd8a02204e629b9c1aa060c17d3dbc42ab915e7101a8ed65d1c1589ff51b943850e04728012102bc92e7cbbb016fee0adc56a1a86fc4b8ee9683e30709c5b62779c12037feb470feffffff142bf3afde73c8a4530514a448cd96b420440b1b476daad47526dd6d63ac033d230000006b48304502210085009474fae379b601290738926ccd6f5e243ecc93a8c30b177305cd96804155022049a4cb8f5c93176e2217fe32d173d8ff816af0ef26907f049ecb755d6bf52e64012102df6c26fb1b4dadfc9b73f65a780dfbe6aa3f7c7f3093c587cc00f2789970ef77feffffff1dadd7ed482f8af4fda815cf97b8f72813860d77e40c266520aeddfba4141660000000006b483045022100e3b2300f0072fef64f424c72dbe1248393d61503893e61baee6736d3a9895a8f0220610b2685fadcf9231527a7c426b0cf227f81d5f467d25b758a2388076186ea88012102150483344090811827c9fdc635d67f416f7843155b939c7a45d75510ac82716dfeffffff40de4f972233c86827ce408dd45766a6d8308902a60d130ee574e647fab9805c010000006a47304402204ec1fdf28b85be8c0bb73a09ee65c0adaecfa518f4863984d11546bf6da0837f022061449ab9a89c2ec27678d67ff02c6308273b2aab38aa9b54c1468520eb67d823012102ff38a45f0ea3a2e0ae3f617381f5fc87cc7f33cc4e52880b2b0b5a20596862bffeffffff6c258d19c1b2918dc88bcb03aa499547f25ed2dafd453299b888920fbbc553a5b60600006b48304502210091e956014880cecb4ca73c447a038732adc869bcbc4857916144fe3c2d4a2069022064d54027d1764886de79b0ec2b3265d0ad466189b10bd7e275085ca400d8819b0121032001c95bb5fe0557e5b359f45199c333dc86631fe83a1035ccda430734c620d6feffffff7f73115603aab629f7efec2b2e01c32b680d1d9ba0ee5bf63d6f49c073a2a54f4b0000006a47304402201d326d49770194aa0007c6154cbcfe55d9dfc3eb19e8d22354d0cfa8f2b75774022045aea9de5fe4d2bf0b5fdf4fa0e82bf0446a19edf53314c44bb110e0121d9ac5012102bc92e7cbbb016fee0adc56a1a86fc4b8ee9683e30709c5b62779c12037feb470feffffff988e41dad379764853433c9450080f958aa687851c3ba486e3c0f3d125762a814c0000006a4730440220472d2646ea2817592628c39e366ffbe0007228a130f0162692bf3a9dc57014cc0220225fbe4c3c78320edfcdc0017fdeffa81804638447c2d896554d15a38e7cd9b0012102bc92e7cbbb016fee0adc56a1a86fc4b8ee9683e30709c5b62779c12037feb470feffffff02c09121000000000017a91410f5c7e4cfd082f80317c87a6f9bad0c91dbe8e58785180f00000000001976a9142dbca59d6d80b6f6ebe8d3a74e657dc53820a08c88ac0d490800", "vin": [{"sequence": 4294967294, "scriptSig": {"hex": "483045022100e63b1fdf86c7e9ac9cb3443c440118c9a138f4c09ef0e761ada63db8d4ebbd8a02204e629b9c1aa060c17d3dbc42ab915e7101a8ed65d1c1589ff51b943850e04728012102bc92e7cbbb016fee0adc56a1a86fc4b8ee9683e30709c5b62779c12037feb470", "asm": "3045022100e63b1fdf86c7e9ac9cb3443c440118c9a138f4c09ef0e761ada63db8d4ebbd8a02204e629b9c1aa060c17d3dbc42ab915e7101a8ed65d1c1589ff51b943850e04728[ALL] 02bc92e7cbbb016fee0adc56a1a86fc4b8ee9683e30709c5b62779c12037feb470"}, "vout": 77, "txid": "b372eb90c8a4e745fdc9d05403a9982e2b8fe72724156d32fa0e8ab856c04908"}, {"sequence": 4294967294, "scriptSig": {"hex": "48304502210085009474fae379b601290738926ccd6f5e243ecc93a8c30b177305cd96804155022049a4cb8f5c93176e2217fe32d173d8ff816af0ef26907f049ecb755d6bf52e64012102df6c26fb1b4dadfc9b73f65a780dfbe6aa3f7c7f3093c587cc00f2789970ef77", "asm": "304502210085009474fae379b601290738926ccd6f5e243ecc93a8c30b177305cd96804155022049a4cb8f5c93176e2217fe32d173d8ff816af0ef26907f049ecb755d6bf52e64[ALL] 02df6c26fb1b4dadfc9b73f65a780dfbe6aa3f7c7f3093c587cc00f2789970ef77"}, "vout": 35, "txid": "3d03ac636ddd2675d4aa6d471b0b4420b496cd48a4140553a4c873deaff32b14"}, {"sequence": 4294967294, "scriptSig": {"hex": "483045022100e3b2300f0072fef64f424c72dbe1248393d61503893e61baee6736d3a9895a8f0220610b2685fadcf9231527a7c426b0cf227f81d5f467d25b758a2388076186ea88012102150483344090811827c9fdc635d67f416f7843155b939c7a45d75510ac82716d", "asm": "3045022100e3b2300f0072fef64f424c72dbe1248393d61503893e61baee6736d3a9895a8f0220610b2685fadcf9231527a7c426b0cf227f81d5f467d25b758a2388076186ea88[ALL] 02150483344090811827c9fdc635d67f416f7843155b939c7a45d75510ac82716d"}, "vout": 0, "txid": "601614a4fbddae2065260ce4770d861328f7b897cf15a8fdf48a2f48edd7ad1d"}, {"sequence": 4294967294, "scriptSig": {"hex": "47304402204ec1fdf28b85be8c0bb73a09ee65c0adaecfa518f4863984d11546bf6da0837f022061449ab9a89c2ec27678d67ff02c6308273b2aab38aa9b54c1468520eb67d823012102ff38a45f0ea3a2e0ae3f617381f5fc87cc7f33cc4e52880b2b0b5a20596862bf", "asm": "304402204ec1fdf28b85be8c0bb73a09ee65c0adaecfa518f4863984d11546bf6da0837f022061449ab9a89c2ec27678d67ff02c6308273b2aab38aa9b54c1468520eb67d823[ALL] 02ff38a45f0ea3a2e0ae3f617381f5fc87cc7f33cc4e52880b2b0b5a20596862bf"}, "vout": 1, "txid": "5c80b9fa47e674e50e130da6028930d8a66657d48d40ce2768c83322974fde40"}, {"sequence": 4294967294, "scriptSig": {"hex": "48304502210091e956014880cecb4ca73c447a038732adc869bcbc4857916144fe3c2d4a2069022064d54027d1764886de79b0ec2b3265d0ad466189b10bd7e275085ca400d8819b0121032001c95bb5fe0557e5b359f45199c333dc86631fe83a1035ccda430734c620d6", "asm": "304502210091e956014880cecb4ca73c447a038732adc869bcbc4857916144fe3c2d4a2069022064d54027d1764886de79b0ec2b3265d0ad466189b10bd7e275085ca400d8819b[ALL] 032001c95bb5fe0557e5b359f45199c333dc86631fe83a1035ccda430734c620d6"}, "vout": 1718, "txid": "a553c5bb0f9288b8993245fddad25ef2479549aa03cb8bc88d91b2c1198d256c"}, {"sequence": 4294967294, "scriptSig": {"hex": "47304402201d326d49770194aa0007c6154cbcfe55d9dfc3eb19e8d22354d0cfa8f2b75774022045aea9de5fe4d2bf0b5fdf4fa0e82bf0446a19edf53314c44bb110e0121d9ac5012102bc92e7cbbb016fee0adc56a1a86fc4b8ee9683e30709c5b62779c12037feb470", "asm": "304402201d326d49770194aa0007c6154cbcfe55d9dfc3eb19e8d22354d0cfa8f2b75774022045aea9de5fe4d2bf0b5fdf4fa0e82bf0446a19edf53314c44bb110e0121d9ac5[ALL] 02bc92e7cbbb016fee0adc56a1a86fc4b8ee9683e30709c5b62779c12037feb470"}, "vout": 75, "txid": "4fa5a273c0496f3df65beea09b1d0d682bc3012e2beceff729b6aa035611737f"}, {"sequence": 4294967294, "scriptSig": {"hex": "4730440220472d2646ea2817592628c39e366ffbe0007228a130f0162692bf3a9dc57014cc0220225fbe4c3c78320edfcdc0017fdeffa81804638447c2d896554d15a38e7cd9b0012102bc92e7cbbb016fee0adc56a1a86fc4b8ee9683e30709c5b62779c12037feb470", "asm": "30440220472d2646ea2817592628c39e366ffbe0007228a130f0162692bf3a9dc57014cc0220225fbe4c3c78320edfcdc0017fdeffa81804638447c2d896554d15a38e7cd9b0[ALL] 02bc92e7cbbb016fee0adc56a1a86fc4b8ee9683e30709c5b62779c12037feb470"}, "vout": 76, "txid": "812a7625d1f3c0e386a43b1c8587a68a950f0850943c4353487679d3da418e98"}], "txid": "c84f929917c9a7f666cb0b2101e49e6c81f2886abbeb760a9b5bb0fdf55ef7d8", "blocktime": 1537870564, "version": 2, "confirmations": 11515, "time": 1537870564, "locktime": 542989, "vsize": 1109, "size": 1109}