{"hash": "cb90741953aeaa086ec238535ee4b30e515e7a0756adbcf8be2f50d5b748528a", "blockhash": "0000000000000000001cda96e906b7601b7a6fb1a3b62bca570a9e5d8f4b3de1", "vout": [{"scriptPubKey": {"reqSigs": 1, "hex": "76a9141e991e46e8e3a47b70d21e9ad9bfd765158f704188ac", "addresses": ["13nnhbjKraK2tPNqFMtUgJmteYnGTV7CQC"], "asm": "OP_DUP OP_HASH160 1e991e46e8e3a47b70d21e9ad9bfd765158f7041 OP_EQUALVERIFY OP_CHECKSIG", "type": "pubkeyhash"}, "value": 0.01251886, "n": 0}, {"scriptPubKey": {"reqSigs": 1, "hex": "76a9149e08a580af1df33f7db4ae9e643b8ed7a44f341b88ac", "addresses": ["1FQc85Y4PHrLgDRvdCnRLAjBZZKvxC2Z6A"], "asm": "OP_DUP OP_HASH160 9e08a580af1df33f7db4ae9e643b8ed7a44f341b OP_EQUALVERIFY OP_CHECKSIG", "type": "pubkeyhash"}, "value": 0.03296258, "n": 1}], "hex": "020000000001022914304097d63cfa462877febe1af72b980fb27935520504b60a13ed6d9cf5c1000000006b483045022100edaebcd2e6245bc0944dda9bc4f7efab6dd25062a079bcbb717d1ffebd0dcaae022018fb7c497cfd78afd7068411c02622999504ade1af4553df044ae087c2fe305101210201c4563bee171b032a74d54bfb82f0e9d6f6bd55f24bbeeccae73eeab01f346dfeffffffe2366bb31f9ce82829b74b2a2a53559591e10782f275a7af39cb469f98aa7b53000000001716001452e356a7a8c2a89fd8bb9400b7c82c991c08bc30feffffff022e1a1300000000001976a9141e991e46e8e3a47b70d21e9ad9bfd765158f704188ac024c3200000000001976a9149e08a580af1df33f7db4ae9e643b8ed7a44f341b88ac0002483045022100fc80a25c2c33d4c596efdfd67c8ef27b38d90f0b2a8cdf72403c01b24802dbf702202e2513678b004e0cff0dc385c402c630ade0ecb560983c6b8926fcbe181ef36e012102aa4843c3a354523ac5a07c9b45bde1b1d96ef5417131d4fb9056733a36930953da480800", "vin": [{"sequence": 4294967294, "scriptSig": {"hex": "483045022100edaebcd2e6245bc0944dda9bc4f7efab6dd25062a079bcbb717d1ffebd0dcaae022018fb7c497cfd78afd7068411c02622999504ade1af4553df044ae087c2fe305101210201c4563bee171b032a74d54bfb82f0e9d6f6bd55f24bbeeccae73eeab01f346d", "asm": "3045022100edaebcd2e6245bc0944dda9bc4f7efab6dd25062a079bcbb717d1ffebd0dcaae022018fb7c497cfd78afd7068411c02622999504ade1af4553df044ae087c2fe3051[ALL] 0201c4563bee171b032a74d54bfb82f0e9d6f6bd55f24bbeeccae73eeab01f346d"}, "vout": 0, "txid": "c1f59c6ded130ab60405523579b20f982bf71abefe772846fa3cd69740301429"}, {"txinwitness": ["3045022100fc80a25c2c33d4c596efdfd67c8ef27b38d90f0b2a8cdf72403c01b24802dbf702202e2513678b004e0cff0dc385c402c630ade0ecb560983c6b8926fcbe181ef36e01", "02aa4843c3a354523ac5a07c9b45bde1b1d96ef5417131d4fb9056733a36930953"], "sequence": 4294967294, "scriptSig": {"hex": "16001452e356a7a8c2a89fd8bb9400b7c82c991c08bc30", "asm": "001452e356a7a8c2a89fd8bb9400b7c82c991c08bc30"}, "vout": 0, "txid": "537baa989f46cb39afa775f28207e1919555532a2a4bb72928e89c1fb36b36e2"}], "txid": "c850ca03270f319d34101181820960ae5916c41803fbef5653c115e1087c6e89", "blocktime": 1537873282, "version": 2, "confirmations": 11480, "time": 1537873282, "locktime": 542938, "vsize": 318, "size": 401}