{"hash": "c8539510218e34389faec2f453777e65bb60ed3e4d5ab1898d262fcba8902446", "blockhash": "0000000000000000000dcc0f55137456b1a82d3642486a52398922ac4d620174", "vout": [{"scriptPubKey": {"reqSigs": 1, "hex": "76a914f0e5cd3d213af50a03f85388c39cf6f98b173c8288ac", "addresses": ["1NxkTwevqSxe6q4KeQa5CnT4faK6oYkWQ3"], "asm": "OP_DUP OP_HASH160 f0e5cd3d213af50a03f85388c39cf6f98b173c82 OP_EQUALVERIFY OP_CHECKSIG", "type": "pubkeyhash"}, "value": 0.00327046, "n": 0}, {"scriptPubKey": {"reqSigs": 1, "hex": "76a9144a0f1e2f2b0d7daeec5265f10bbbbe08ed725e8988ac", "addresses": ["17kb7c9ndg7ioSuzMWEHWECdEVUegNkcGc"], "asm": "OP_DUP OP_HASH160 4a0f1e2f2b0d7daeec5265f10bbbbe08ed725e89 OP_EQUALVERIFY OP_CHECKSIG", "type": "pubkeyhash"}, "value": 0.0005016, "n": 1}], "hex": "010000000102cbb250d1e3458d1b116aa7999bd4178e11542b3b65008b643b2087486745a3010000006b483045022100a7fa058bbd518074d4906b0811222d2300ca37d55706ca605da059afb2eb17f702200f96afefad19ccaad786dfcb7c28b4d237fe1c2eb2b8c615241def1b2786cb6301210363e1776495149c5a4e92acf453a3caa19000fc804e4ba2024b600ba25e09c943ffffffff0286fd0400000000001976a914f0e5cd3d213af50a03f85388c39cf6f98b173c8288acf0c30000000000001976a9144a0f1e2f2b0d7daeec5265f10bbbbe08ed725e8988ac00000000", "vin": [{"sequence": 4294967295, "scriptSig": {"hex": "483045022100a7fa058bbd518074d4906b0811222d2300ca37d55706ca605da059afb2eb17f702200f96afefad19ccaad786dfcb7c28b4d237fe1c2eb2b8c615241def1b2786cb6301210363e1776495149c5a4e92acf453a3caa19000fc804e4ba2024b600ba25e09c943", "asm": "3045022100a7fa058bbd518074d4906b0811222d2300ca37d55706ca605da059afb2eb17f702200f96afefad19ccaad786dfcb7c28b4d237fe1c2eb2b8c615241def1b2786cb63[ALL] 0363e1776495149c5a4e92acf453a3caa19000fc804e4ba2024b600ba25e09c943"}, "vout": 1, "txid": "a345674887203b648b00653b2b54118e17d49b99a76a111b8d45e3d150b2cb02"}], "txid": "c8539510218e34389faec2f453777e65bb60ed3e4d5ab1898d262fcba8902446", "blocktime": 1537870268, "version": 1, "confirmations": 11516, "time": 1537870268, "locktime": 0, "vsize": 226, "size": 226}