{"hash": "c853af9cbbbbfe0c269f7e88214b8e44988da1106004c521c0920ab03f7d5c4a", "blockhash": "0000000000000000000e13cef7c366c0283d82e591d1acd082e914b08063cdf1", "vout": [{"scriptPubKey": {"reqSigs": 1, "hex": "21020e46e79a2a8d12b9b5d12c7a91adb4e454edfae43c0a0cb805427d2ac7613fd9ac", "addresses": ["1P3rU1Nk1pmc2BiWC8dEy9bZa1ZbMp5jfg"], "asm": "020e46e79a2a8d12b9b5d12c7a91adb4e454edfae43c0a0cb805427d2ac7613fd9 OP_CHECKSIG", "type": "pubkey"}, "value": 0.000988, "n": 0}, {"scriptPubKey": {"type": "nulldata", "hex": "6a28682d1130480abd477d76285d4c13743fbf3ee90f9e6461728238294088eda10ae8a30f004b4d4400", "asm": "OP_RETURN 682d1130480abd477d76285d4c13743fbf3ee90f9e6461728238294088eda10ae8a30f004b4d4400"}, "value": 0.0, "n": 1}], "hex": "010000000dbb622ae245329f573945c31b7af73708c3b06336349c5fc63e818c0bf73409540800000049483045022100a831136f87c691a1248d79a9924d2b1e4fba093e6baa73f58a26751dbe79b35302204c449ec36a42a998400606b9b688069e5899747008ec35929b759f47775e8b1801ffffffff8406cda80cb1265e4bd2097043695a390b5ec2bd5f09fdcf1efe981d45876c871500000049483045022100e3b34ac27d50b4ae7d38f7ff926154941fa3d97e26d3bbd3d00d86e62a29e207022055dda49f727e7a98491d87aba2a9802d36a01174be3ac5847e2ed1b9e5c5c76201ffffffffdc5d57c9dd2ca528b17a81e63c3e8f1678a498c35977e2d9138c18c34486d0830f0000004847304402205843ff546ba0ba47e40c307967ddb7d35ebc89b82871ea317e8927e9b7fe40fd022042396323edae95441b9421f1314d707457156354c8b44403279ca55a2b1a3dc101ffffffff2822415869c914762c4631b441c3922380be0839f4080e0609a3152baae1bea3160000004847304402201e7d332fe0cb1ec2dc6e9c1d72b329dbc0e2c9363f1a3c4084430c0a6fd72bc20220649317538f1cbbb4d7ca308badc27084e8a237ea809668b0f85d0dcc96e99c8e01ffffffff51ef059fdec5dc58c84993ba81ccc3acf38f54dc79482bb45fe15447f9bc9cb70300000049483045022100aa6c2467b73a59e844855f28faa49815d3bd5f0b33e4f803c7258921db1eebe20220106e7eaed525cc81206f3d965a8402ae893035a8a5d05b9f81e25a71b3b1fde201ffffffff2c1d673078a73ea657c12056ba323040b9c5a7ee991ee73c150110e133bf54890a00000048473044022076117f574932e24bb8dd8c2d5726b6440fed53e3352ba993e42795eb853a6e8002206b7d709e6295a7277e627c3de8eaf50fd28e8dd2efb1bc2f1588c07b39ac2f2301ffffffff97b5c979660ad1b7c495f067f67f026d4fe31fd39e0dce566178367ca84801cc0d0000004847304402200f02a91c96a5b5325bb20c9b025494ea06f58dba3fe74be5565b26d0a9f5d47102202e30c0f80cd606ddf0bcf6dd7c6b5d875102bd2d2132773f70817f3fb4c645f301ffffffff5360bb7fdd1ea3041c95c8d247d2aec5a6836e90d1b925fe59200dfef96e14d60000000048473044022053afefb3433b7bb149ecea07fc3c3470387b95af96b64f6d1e5f74b44b08423a02201e99cbb1a78077ce1ce7f1eabe508dde1f1fd6c56df422cdf354b3d086f4f32201ffffffffe0b915302b850dd587a409a7fa470fa5d56cc3226a7a2fa60176c70b15ae1da82e00000049483045022100c393e0856e2857ba50f08e2e290c1b53ab0bacde194e6967dcd8cc28fb58b7c102201abd7d7f93d3e1d70fe916ceffd613f3cabff64c740c584854de66d06e7fae2701ffffffff33f584267a487a22a939249f5539249d638140e24298debb3925dd15c693ac4d0e00000048473044022068da13afd708e0cdb3b52667bb73e89b462fb80c0220310ddf5e177107bf73b5022001888a421b33133199a7efe7be49c45e9e59afde70695218540c25b1daed8f9401ffffffff41542ed5f384fbb74d34ae96ef31c5ee25c49d2b0dd9e8fbb28b0c940af599d41300000048473044022013864e2b40baf485dded812eccc9153b58ea826c1e7f6548384368c8526da6a30220763e8f1ee52026c28f9755224082d12045669854123b477269c84aa2c6e873c901ffffffffa68b4106c0a49092f66cfa76612fa9b3b6c2c1b21df00c7e6785c35a3718be8c0700000048473044022036db410bfadefd7528cab1f5681f861ae5f96180cf4beb83f3db08486f51beae02201a0747a0b96bcec7e421bd5e4c98e019d8959406e797891ebb923622d83951e801ffffffff1c4f723638f55e300d188968a331e1aea6dd60d2b2123ee702d21f23eda7008b0600000049483045022100fd6ef1ba238b7b1e823136d41fb08a2760b89dc9dd13fe68e2feb968881f4c0602205db326bd09642407d1e2649b7a82d3ea9f8f47daff6c9c1d573df45cdebf853e01ffffffff02f0810100000000002321020e46e79a2a8d12b9b5d12c7a91adb4e454edfae43c0a0cb805427d2ac7613fd9ac00000000000000002a6a28682d1130480abd477d76285d4c13743fbf3ee90f9e6461728238294088eda10ae8a30f004b4d440000000000", "vin": [{"sequence": 4294967295, "scriptSig": {"hex": "483045022100a831136f87c691a1248d79a9924d2b1e4fba093e6baa73f58a26751dbe79b35302204c449ec36a42a998400606b9b688069e5899747008ec35929b759f47775e8b1801", "asm": "3045022100a831136f87c691a1248d79a9924d2b1e4fba093e6baa73f58a26751dbe79b35302204c449ec36a42a998400606b9b688069e5899747008ec35929b759f47775e8b18[ALL]"}, "vout": 8, "txid": "540934f70b8c813ec65f9c343663b0c30837f77a1bc34539579f3245e22a62bb"}, {"sequence": 4294967295, "scriptSig": {"hex": "483045022100e3b34ac27d50b4ae7d38f7ff926154941fa3d97e26d3bbd3d00d86e62a29e207022055dda49f727e7a98491d87aba2a9802d36a01174be3ac5847e2ed1b9e5c5c76201", "asm": "3045022100e3b34ac27d50b4ae7d38f7ff926154941fa3d97e26d3bbd3d00d86e62a29e207022055dda49f727e7a98491d87aba2a9802d36a01174be3ac5847e2ed1b9e5c5c762[ALL]"}, "vout": 21, "txid": "876c87451d98fe1ecffd095fbdc25e0b395a69437009d24b5e26b10ca8cd0684"}, {"sequence": 4294967295, "scriptSig": {"hex": "47304402205843ff546ba0ba47e40c307967ddb7d35ebc89b82871ea317e8927e9b7fe40fd022042396323edae95441b9421f1314d707457156354c8b44403279ca55a2b1a3dc101", "asm": "304402205843ff546ba0ba47e40c307967ddb7d35ebc89b82871ea317e8927e9b7fe40fd022042396323edae95441b9421f1314d707457156354c8b44403279ca55a2b1a3dc1[ALL]"}, "vout": 15, "txid": "83d08644c3188c13d9e27759c398a478168f3e3ce6817ab128a52cddc9575ddc"}, {"sequence": 4294967295, "scriptSig": {"hex": "47304402201e7d332fe0cb1ec2dc6e9c1d72b329dbc0e2c9363f1a3c4084430c0a6fd72bc20220649317538f1cbbb4d7ca308badc27084e8a237ea809668b0f85d0dcc96e99c8e01", "asm": "304402201e7d332fe0cb1ec2dc6e9c1d72b329dbc0e2c9363f1a3c4084430c0a6fd72bc20220649317538f1cbbb4d7ca308badc27084e8a237ea809668b0f85d0dcc96e99c8e[ALL]"}, "vout": 22, "txid": "a3bee1aa2b15a309060e08f43908be802392c341b431462c7614c96958412228"}, {"sequence": 4294967295, "scriptSig": {"hex": "483045022100aa6c2467b73a59e844855f28faa49815d3bd5f0b33e4f803c7258921db1eebe20220106e7eaed525cc81206f3d965a8402ae893035a8a5d05b9f81e25a71b3b1fde201", "asm": "3045022100aa6c2467b73a59e844855f28faa49815d3bd5f0b33e4f803c7258921db1eebe20220106e7eaed525cc81206f3d965a8402ae893035a8a5d05b9f81e25a71b3b1fde2[ALL]"}, "vout": 3, "txid": "b79cbcf94754e15fb42b4879dc548ff3acc3cc81ba9349c858dcc5de9f05ef51"}, {"sequence": 4294967295, "scriptSig": {"hex": "473044022076117f574932e24bb8dd8c2d5726b6440fed53e3352ba993e42795eb853a6e8002206b7d709e6295a7277e627c3de8eaf50fd28e8dd2efb1bc2f1588c07b39ac2f2301", "asm": "3044022076117f574932e24bb8dd8c2d5726b6440fed53e3352ba993e42795eb853a6e8002206b7d709e6295a7277e627c3de8eaf50fd28e8dd2efb1bc2f1588c07b39ac2f23[ALL]"}, "vout": 10, "txid": "8954bf33e11001153ce71e99eea7c5b9403032ba5620c157a63ea77830671d2c"}, {"sequence": 4294967295, "scriptSig": {"hex": "47304402200f02a91c96a5b5325bb20c9b025494ea06f58dba3fe74be5565b26d0a9f5d47102202e30c0f80cd606ddf0bcf6dd7c6b5d875102bd2d2132773f70817f3fb4c645f301", "asm": "304402200f02a91c96a5b5325bb20c9b025494ea06f58dba3fe74be5565b26d0a9f5d47102202e30c0f80cd606ddf0bcf6dd7c6b5d875102bd2d2132773f70817f3fb4c645f3[ALL]"}, "vout": 13, "txid": "cc0148a87c36786156ce0d9ed31fe34f6d027ff667f095c4b7d10a6679c9b597"}, {"sequence": 4294967295, "scriptSig": {"hex": "473044022053afefb3433b7bb149ecea07fc3c3470387b95af96b64f6d1e5f74b44b08423a02201e99cbb1a78077ce1ce7f1eabe508dde1f1fd6c56df422cdf354b3d086f4f32201", "asm": "3044022053afefb3433b7bb149ecea07fc3c3470387b95af96b64f6d1e5f74b44b08423a02201e99cbb1a78077ce1ce7f1eabe508dde1f1fd6c56df422cdf354b3d086f4f322[ALL]"}, "vout": 0, "txid": "d6146ef9fe0d2059fe25b9d1906e83a6c5aed247d2c8951c04a31edd7fbb6053"}, {"sequence": 4294967295, "scriptSig": {"hex": "483045022100c393e0856e2857ba50f08e2e290c1b53ab0bacde194e6967dcd8cc28fb58b7c102201abd7d7f93d3e1d70fe916ceffd613f3cabff64c740c584854de66d06e7fae2701", "asm": "3045022100c393e0856e2857ba50f08e2e290c1b53ab0bacde194e6967dcd8cc28fb58b7c102201abd7d7f93d3e1d70fe916ceffd613f3cabff64c740c584854de66d06e7fae27[ALL]"}, "vout": 46, "txid": "a81dae150bc77601a62f7a6a22c36cd5a50f47faa709a487d50d852b3015b9e0"}, {"sequence": 4294967295, "scriptSig": {"hex": "473044022068da13afd708e0cdb3b52667bb73e89b462fb80c0220310ddf5e177107bf73b5022001888a421b33133199a7efe7be49c45e9e59afde70695218540c25b1daed8f9401", "asm": "3044022068da13afd708e0cdb3b52667bb73e89b462fb80c0220310ddf5e177107bf73b5022001888a421b33133199a7efe7be49c45e9e59afde70695218540c25b1daed8f94[ALL]"}, "vout": 14, "txid": "4dac93c615dd2539bbde9842e24081639d2439559f2439a9227a487a2684f533"}, {"sequence": 4294967295, "scriptSig": {"hex": "473044022013864e2b40baf485dded812eccc9153b58ea826c1e7f6548384368c8526da6a30220763e8f1ee52026c28f9755224082d12045669854123b477269c84aa2c6e873c901", "asm": "3044022013864e2b40baf485dded812eccc9153b58ea826c1e7f6548384368c8526da6a30220763e8f1ee52026c28f9755224082d12045669854123b477269c84aa2c6e873c9[ALL]"}, "vout": 19, "txid": "d499f50a940c8bb2fbe8d90d2b9dc425eec531ef96ae344db7fb84f3d52e5441"}, {"sequence": 4294967295, "scriptSig": {"hex": "473044022036db410bfadefd7528cab1f5681f861ae5f96180cf4beb83f3db08486f51beae02201a0747a0b96bcec7e421bd5e4c98e019d8959406e797891ebb923622d83951e801", "asm": "3044022036db410bfadefd7528cab1f5681f861ae5f96180cf4beb83f3db08486f51beae02201a0747a0b96bcec7e421bd5e4c98e019d8959406e797891ebb923622d83951e8[ALL]"}, "vout": 7, "txid": "8cbe18375ac385677e0cf01db2c1c2b6b3a92f6176fa6cf69290a4c006418ba6"}, {"sequence": 4294967295, "scriptSig": {"hex": "483045022100fd6ef1ba238b7b1e823136d41fb08a2760b89dc9dd13fe68e2feb968881f4c0602205db326bd09642407d1e2649b7a82d3ea9f8f47daff6c9c1d573df45cdebf853e01", "asm": "3045022100fd6ef1ba238b7b1e823136d41fb08a2760b89dc9dd13fe68e2feb968881f4c0602205db326bd09642407d1e2649b7a82d3ea9f8f47daff6c9c1d573df45cdebf853e[ALL]"}, "vout": 6, "txid": "8b00a7ed231fd202e73e12b2d260dda6aee131a36889180d305ef53836724f1c"}], "txid": "c853af9cbbbbfe0c269f7e88214b8e44988da1106004c521c0920ab03f7d5c4a", "blocktime": 1537871767, "version": 1, "confirmations": 11490, "time": 1537871767, "locktime": 0, "vsize": 1579, "size": 1579}