{"hash": "c85750062921a5da782786ac3adc99850cefae1a92cd3c8270a9109fcdba3c1f", "blockhash": "0000000000000000001e0dab787dd257d1dbfcb92a98c2207d5e1078be1f4165", "vout": [{"scriptPubKey": {"reqSigs": 1, "hex": "a91411f6b123ed223eca38ff329382182c64e606245887", "addresses": ["33KzwGApr2AQjYKKy9bWjsz4Hn5UUqDCFk"], "asm": "OP_HASH160 11f6b123ed223eca38ff329382182c64e6062458 OP_EQUAL", "type": "scripthash"}, "value": 0.4369883, "n": 0}, {"scriptPubKey": {"reqSigs": 1, "hex": "76a9141f42cdc861d66473e0759c94f47b5d71f3604b0488ac", "addresses": ["13rHyZQw6bRBaqfJyy3rZ8rd6foBojUeV6"], "asm": "OP_DUP OP_HASH160 1f42cdc861d66473e0759c94f47b5d71f3604b04 OP_EQUALVERIFY OP_CHECKSIG", "type": "pubkeyhash"}, "value": 0.003739, "n": 1}], "hex": "010000000103d78a1081f7734feef6ec6df2a2b2ffce40c35c9a39763428199af2acaa21ea01000000fdfe00004830450221009bfaf14f8c99f3a76774812593826b7674ab4137b87597961c2c07622cd81261022062aab5f61e9a1811e3a81fe2a2f4516839002351a3bda80fbb5b3420d595083c01483045022100815132a0d1d6b41312f91f0a9c9af054ec3d2b5f0938bcb46f08c1f6ce6728ae02202cceaf791fd27a3b6678e636b3861d079fbb5a6c883de2dcec1c02b1b19c3cac014c695221036de032c9b254ab0ca58fcec72c1bb426fab4c0d4e054293068e88bf4c142b41e2103feb9d2ab179f77aea62b890810e0f49726de1fd243a075615bfb603d2d744b3b2102b0d251b8427e7f56048dd227c4d27e51f3d05a9c3b76eae9c9eaa4d3b2c1265a53aeffffffff028eca9a020000000017a91411f6b123ed223eca38ff329382182c64e6062458878cb40500000000001976a9141f42cdc861d66473e0759c94f47b5d71f3604b0488ac00000000", "vin": [{"sequence": 4294967295, "scriptSig": {"hex": "004830450221009bfaf14f8c99f3a76774812593826b7674ab4137b87597961c2c07622cd81261022062aab5f61e9a1811e3a81fe2a2f4516839002351a3bda80fbb5b3420d595083c01483045022100815132a0d1d6b41312f91f0a9c9af054ec3d2b5f0938bcb46f08c1f6ce6728ae02202cceaf791fd27a3b6678e636b3861d079fbb5a6c883de2dcec1c02b1b19c3cac014c695221036de032c9b254ab0ca58fcec72c1bb426fab4c0d4e054293068e88bf4c142b41e2103feb9d2ab179f77aea62b890810e0f49726de1fd243a075615bfb603d2d744b3b2102b0d251b8427e7f56048dd227c4d27e51f3d05a9c3b76eae9c9eaa4d3b2c1265a53ae", "asm": "0 30450221009bfaf14f8c99f3a76774812593826b7674ab4137b87597961c2c07622cd81261022062aab5f61e9a1811e3a81fe2a2f4516839002351a3bda80fbb5b3420d595083c[ALL] 3045022100815132a0d1d6b41312f91f0a9c9af054ec3d2b5f0938bcb46f08c1f6ce6728ae02202cceaf791fd27a3b6678e636b3861d079fbb5a6c883de2dcec1c02b1b19c3cac[ALL] 5221036de032c9b254ab0ca58fcec72c1bb426fab4c0d4e054293068e88bf4c142b41e2103feb9d2ab179f77aea62b890810e0f49726de1fd243a075615bfb603d2d744b3b2102b0d251b8427e7f56048dd227c4d27e51f3d05a9c3b76eae9c9eaa4d3b2c1265a53ae"}, "vout": 1, "txid": "ea21aaacf29a19283476399a5cc340ceffb2a2f26decf6ee4f73f781108ad703"}], "txid": "c85750062921a5da782786ac3adc99850cefae1a92cd3c8270a9109fcdba3c1f", "blocktime": 1537872475, "version": 1, "confirmations": 11487, "time": 1537872475, "locktime": 0, "vsize": 373, "size": 373}