{"hash": "c85800b1c0edeff2df5396f0a3cfc7d30074de80743708201a2197379553c37f", "blockhash": "0000000000000000001cda96e906b7601b7a6fb1a3b62bca570a9e5d8f4b3de1", "vout": [{"scriptPubKey": {"reqSigs": 1, "hex": "76a914fc1d61a7e44a63cb1e99e0469adf22a86938547a88ac", "addresses": ["1Pz4UoV6qe5Qun2sKoXZsCgZ6SAxPi62vt"], "asm": "OP_DUP OP_HASH160 fc1d61a7e44a63cb1e99e0469adf22a86938547a OP_EQUALVERIFY OP_CHECKSIG", "type": "pubkeyhash"}, "value": 0.04058144, "n": 0}], "hex": "0100000001ad55925191d8e711532c7e9532a504d21fc09d830b638a500323348caaf5b3d4000000006b483045022100f59353d9f30b3e94c27313acb50090c2ba89fc13f28497f0d2fb59ba1fb0d11a022006e713949159f6c7aee3977872d02d29bb879dd2d1dddca466413e70c8563d48012103fd88d12f8db4d821be44dfbe98c644b709be9aa0d3fa582772c384365fb2c815ffffffff0120ec3d00000000001976a914fc1d61a7e44a63cb1e99e0469adf22a86938547a88ac00000000", "vin": [{"sequence": 4294967295, "scriptSig": {"hex": "483045022100f59353d9f30b3e94c27313acb50090c2ba89fc13f28497f0d2fb59ba1fb0d11a022006e713949159f6c7aee3977872d02d29bb879dd2d1dddca466413e70c8563d48012103fd88d12f8db4d821be44dfbe98c644b709be9aa0d3fa582772c384365fb2c815", "asm": "3045022100f59353d9f30b3e94c27313acb50090c2ba89fc13f28497f0d2fb59ba1fb0d11a022006e713949159f6c7aee3977872d02d29bb879dd2d1dddca466413e70c8563d48[ALL] 03fd88d12f8db4d821be44dfbe98c644b709be9aa0d3fa582772c384365fb2c815"}, "vout": 0, "txid": "d4b3f5aa8c342303508a630b839dc01fd204a532957e2c5311e7d891519255ad"}], "txid": "c85800b1c0edeff2df5396f0a3cfc7d30074de80743708201a2197379553c37f", "blocktime": 1537873282, "version": 1, "confirmations": 11484, "time": 1537873282, "locktime": 0, "vsize": 192, "size": 192}