{"hash": "c85b68790d4d81ddd6abde72f7331acac795b09a68ddb1b61277d60d264ec4aa", "blockhash": "0000000000000000000e13cef7c366c0283d82e591d1acd082e914b08063cdf1", "vout": [{"scriptPubKey": {"reqSigs": 1, "hex": "76a914cb64dec890babe4e38e6dacd49b172eff3238ef388ac", "addresses": ["1KYT1XhTLkAWox7nArTa7HbCDR4DTg6LZE"], "asm": "OP_DUP OP_HASH160 cb64dec890babe4e38e6dacd49b172eff3238ef3 OP_EQUALVERIFY OP_CHECKSIG", "type": "pubkeyhash"}, "value": 5.877e-05, "n": 0}, {"scriptPubKey": {"reqSigs": 1, "hex": "a9142fa878bbab2b49bb958155e25307fdb09378a6d187", "addresses": ["3631WAyFKvEwUZoXhNNh1gZLLqNAHMtxei"], "asm": "OP_HASH160 2fa878bbab2b49bb958155e25307fdb09378a6d1 OP_EQUAL", "type": "scripthash"}, "value": 0.002978, "n": 1}], "hex": "0100000001a41a446f442b9cb36ac84465c6b5fcbcc99c1420aafd2b95a7bd2861fd727360000000006a47304402207b7ba759d5eaf6cfb912a65f07513336c671065f6ada48efb364f819e69491e4022025a74c4cad53af44f3ecdda68c6eaf1d6e26983e8c2a14b0cf98f49679f5a24c01210272149b79e8ae7a89dbe852734df71a25798d56dcc082584a6974d46abff847faffffffff02f5160000000000001976a914cb64dec890babe4e38e6dacd49b172eff3238ef388ac488b04000000000017a9142fa878bbab2b49bb958155e25307fdb09378a6d18700000000", "vin": [{"sequence": 4294967295, "scriptSig": {"hex": "47304402207b7ba759d5eaf6cfb912a65f07513336c671065f6ada48efb364f819e69491e4022025a74c4cad53af44f3ecdda68c6eaf1d6e26983e8c2a14b0cf98f49679f5a24c01210272149b79e8ae7a89dbe852734df71a25798d56dcc082584a6974d46abff847fa", "asm": "304402207b7ba759d5eaf6cfb912a65f07513336c671065f6ada48efb364f819e69491e4022025a74c4cad53af44f3ecdda68c6eaf1d6e26983e8c2a14b0cf98f49679f5a24c[ALL] 0272149b79e8ae7a89dbe852734df71a25798d56dcc082584a6974d46abff847fa"}, "vout": 0, "txid": "607372fd6128bda7952bfdaa20149cc9bcfcb5c66544c86ab39c2b446f441aa4"}], "txid": "c85b68790d4d81ddd6abde72f7331acac795b09a68ddb1b61277d60d264ec4aa", "blocktime": 1537871767, "version": 1, "confirmations": 11493, "time": 1537871767, "locktime": 0, "vsize": 223, "size": 223}