{"hash": "c85e4b37b8763c679f6dd7ebf835330d0ae373e0c0556f06dce43e99c5879883", "blockhash": "000000000000000000022b45ed06c6f4ccd3cf7fb5ba4856ebd2e58215665228", "vout": [{"scriptPubKey": {"reqSigs": 1, "hex": "76a914a25dec4d0011064ef106a983c39c7a540699f22088ac", "addresses": ["1FoWyxwPXuj4C6abqwhjDWdz6D4PZgYRjA"], "asm": "OP_DUP OP_HASH160 a25dec4d0011064ef106a983c39c7a540699f220 OP_EQUALVERIFY OP_CHECKSIG", "type": "pubkeyhash"}, "value": 0.01985619, "n": 0}, {"scriptPubKey": {"type": "nulldata", "hex": "6a146f6d6e69000000000000001f00000015e9296d39", "asm": "OP_RETURN 6f6d6e69000000000000001f00000015e9296d39"}, "value": 0.0, "n": 1}, {"scriptPubKey": {"reqSigs": 1, "hex": "a9144c26b47aa7be6fe2a8ff2afff77714978b5988a187", "addresses": ["38dfePktXSsZfZJrncJmCLHsAGJoiUfxZz"], "asm": "OP_HASH160 4c26b47aa7be6fe2a8ff2afff77714978b5988a1 OP_EQUAL", "type": "scripthash"}, "value": 5.4e-06, "n": 2}], "hex": "0100000001506097cc7cc3151ae7d291525cfc7965e24166c3ad6a9b1c14f9b0176e1148f3010000006a4730440220604a1798b29e37701b8e02f53c4aeb6a0acf0b0c36914b5e75c4d73b55e2337b022032217b781a0b16d9ea8bcb9a8d6458f0cb5d917775fd381ffdfc8b409335ccf8012103da5bac7b36d5aa38f531c6b9601e21bb598a4b6716ebed38b009a55dabde9440feffffff03534c1e00000000001976a914a25dec4d0011064ef106a983c39c7a540699f22088ac0000000000000000166a146f6d6e69000000000000001f00000015e9296d391c0200000000000017a9144c26b47aa7be6fe2a8ff2afff77714978b5988a1870b490800", "vin": [{"sequence": 4294967294, "scriptSig": {"hex": "4730440220604a1798b29e37701b8e02f53c4aeb6a0acf0b0c36914b5e75c4d73b55e2337b022032217b781a0b16d9ea8bcb9a8d6458f0cb5d917775fd381ffdfc8b409335ccf8012103da5bac7b36d5aa38f531c6b9601e21bb598a4b6716ebed38b009a55dabde9440", "asm": "30440220604a1798b29e37701b8e02f53c4aeb6a0acf0b0c36914b5e75c4d73b55e2337b022032217b781a0b16d9ea8bcb9a8d6458f0cb5d917775fd381ffdfc8b409335ccf8[ALL] 03da5bac7b36d5aa38f531c6b9601e21bb598a4b6716ebed38b009a55dabde9440"}, "vout": 1, "txid": "f348116e17b0f9141c9b6aadc36641e26579fc5c5291d2e71a15c37ccc976050"}], "txid": "c85e4b37b8763c679f6dd7ebf835330d0ae373e0c0556f06dce43e99c5879883", "blocktime": 1537869901, "version": 1, "confirmations": 11522, "time": 1537869901, "locktime": 542987, "vsize": 254, "size": 254}