{"hash": "c8631b28a27e8179fc28fb1009822e40b7a32024d870b1e7db2de41e9549c1e4", "blockhash": "0000000000000000001cda96e906b7601b7a6fb1a3b62bca570a9e5d8f4b3de1", "vout": [{"scriptPubKey": {"type": "nulldata", "hex": "6a146f6d6e69000000000000001f00000000f4610900", "asm": "OP_RETURN 6f6d6e69000000000000001f00000000f4610900"}, "value": 0.0, "n": 0}, {"scriptPubKey": {"reqSigs": 1, "hex": "76a914a25dec4d0011064ef106a983c39c7a540699f22088ac", "addresses": ["1FoWyxwPXuj4C6abqwhjDWdz6D4PZgYRjA"], "asm": "OP_DUP OP_HASH160 a25dec4d0011064ef106a983c39c7a540699f220 OP_EQUALVERIFY OP_CHECKSIG", "type": "pubkeyhash"}, "value": 0.0198558, "n": 1}, {"scriptPubKey": {"reqSigs": 1, "hex": "76a914d6c6f14fc9a099ec0ed5c91b31ce53eeca7c38ad88ac", "addresses": ["1Ladvpzpz2fnABN1nca1h7JnLJWPYhkmSy"], "asm": "OP_DUP OP_HASH160 d6c6f14fc9a099ec0ed5c91b31ce53eeca7c38ad OP_EQUALVERIFY OP_CHECKSIG", "type": "pubkeyhash"}, "value": 5.46e-06, "n": 2}], "hex": "0100000001023f196b4878565ea5ea71344cd5ea242705cef421549e2df0f5d489c2f5af85010000006a4730440220450ae27142f2c62c3e45fe05dc0ae8a195c9362188b18b36afd1a4d931fd79ff02207dcb73599644494cd5de1b50db073834e9eef1372cbfc2af6b6f99a752a98b52012103da5bac7b36d5aa38f531c6b9601e21bb598a4b6716ebed38b009a55dabde9440feffffff030000000000000000166a146f6d6e69000000000000001f00000000f46109002c4c1e00000000001976a914a25dec4d0011064ef106a983c39c7a540699f22088ac22020000000000001976a914d6c6f14fc9a099ec0ed5c91b31ce53eeca7c38ad88ac13490800", "vin": [{"sequence": 4294967294, "scriptSig": {"hex": "4730440220450ae27142f2c62c3e45fe05dc0ae8a195c9362188b18b36afd1a4d931fd79ff02207dcb73599644494cd5de1b50db073834e9eef1372cbfc2af6b6f99a752a98b52012103da5bac7b36d5aa38f531c6b9601e21bb598a4b6716ebed38b009a55dabde9440", "asm": "30440220450ae27142f2c62c3e45fe05dc0ae8a195c9362188b18b36afd1a4d931fd79ff02207dcb73599644494cd5de1b50db073834e9eef1372cbfc2af6b6f99a752a98b52[ALL] 03da5bac7b36d5aa38f531c6b9601e21bb598a4b6716ebed38b009a55dabde9440"}, "vout": 1, "txid": "85aff5c289d4f5f02d9e5421f4ce052724ead54c3471eaa55e5678486b193f02"}], "txid": "c8631b28a27e8179fc28fb1009822e40b7a32024d870b1e7db2de41e9549c1e4", "blocktime": 1537873282, "version": 1, "confirmations": 11481, "time": 1537873282, "locktime": 542995, "vsize": 256, "size": 256}