{"hash": "c869f0e1ed3fa9c4881e21ec815bd4148b5729a898471b25aa9185f7aeb6d79d", "blockhash": "0000000000000000000baef3f32e3676a92c3b2e5da21b426e4f302fc371ce76", "vout": [{"scriptPubKey": {"reqSigs": 1, "hex": "76a91495d60f9205efefef383137b0463a39b32615ced588ac", "addresses": ["1EfG7nnUv2GgopjYM2Z5WKSmHgvgpePv2P"], "asm": "OP_DUP OP_HASH160 95d60f9205efefef383137b0463a39b32615ced5 OP_EQUALVERIFY OP_CHECKSIG", "type": "pubkeyhash"}, "value": 0.00631204, "n": 0}, {"scriptPubKey": {"type": "nulldata", "hex": "6a4c50000078090001756e9055158710ed1e56872f702940d64fa54d8eb2d19ed074892d00f8e82891cbcec963af73f0968bf457b2138e5baa1b000613a7cfec05b0381d100759d4ba30d2c37bb011d97e02cf", "asm": "OP_RETURN 000078090001756e9055158710ed1e56872f702940d64fa54d8eb2d19ed074892d00f8e82891cbcec963af73f0968bf457b2138e5baa1b000613a7cfec05b0381d100759d4ba30d2c37bb011d97e02cf"}, "value": 0.0, "n": 1}], "hex": "010000000165bbc8f39b598e4c59f2159e525b984d0cef477d29c963c0605691d157285b88010000006b483045022100c293f33703ab8ef9ce36b9e31e902dad94e8b05a928917bcef93d94bb3a9c027022053e5ed30277c00a278b9966624fbe432684ae3e10f50c617d9d12e4234a1a40b012103b8ad388105bc50bc4b75bb8574f42b67662382a9b6046ce40cebdbf44a237c08ffffffff02a4a10900000000001976a91495d60f9205efefef383137b0463a39b32615ced588ac0000000000000000536a4c50000078090001756e9055158710ed1e56872f702940d64fa54d8eb2d19ed074892d00f8e82891cbcec963af73f0968bf457b2138e5baa1b000613a7cfec05b0381d100759d4ba30d2c37bb011d97e02cf00000000", "vin": [{"sequence": 4294967295, "scriptSig": {"hex": "483045022100c293f33703ab8ef9ce36b9e31e902dad94e8b05a928917bcef93d94bb3a9c027022053e5ed30277c00a278b9966624fbe432684ae3e10f50c617d9d12e4234a1a40b012103b8ad388105bc50bc4b75bb8574f42b67662382a9b6046ce40cebdbf44a237c08", "asm": "3045022100c293f33703ab8ef9ce36b9e31e902dad94e8b05a928917bcef93d94bb3a9c027022053e5ed30277c00a278b9966624fbe432684ae3e10f50c617d9d12e4234a1a40b[ALL] 03b8ad388105bc50bc4b75bb8574f42b67662382a9b6046ce40cebdbf44a237c08"}, "vout": 1, "txid": "885b2857d1915660c063c9297d47ef0c4d985b529e15f2594c8e599bf3c8bb65"}], "txid": "c869f0e1ed3fa9c4881e21ec815bd4148b5729a898471b25aa9185f7aeb6d79d", "blocktime": 1537876114, "version": 1, "confirmations": 11460, "time": 1537876114, "locktime": 0, "vsize": 284, "size": 284}