{"hash": "668ec032ea1f0eccd4161994b4e102feaa066df5c83f83e9e7fd999af696f909", "blockhash": "0000000000000000001cda96e906b7601b7a6fb1a3b62bca570a9e5d8f4b3de1", "vout": [{"scriptPubKey": {"reqSigs": 1, "hex": "a914316442e1ef6b7d8c5e2f91f8fe01dc981cb8c8df87", "addresses": ["36CB9DbKh1akyBQ5BiNmF1yGNNCB4XejKQ"], "asm": "OP_HASH160 316442e1ef6b7d8c5e2f91f8fe01dc981cb8c8df OP_EQUAL", "type": "scripthash"}, "value": 0.14801122, "n": 0}, {"scriptPubKey": {"reqSigs": 1, "hex": "76a914a774f676da2553f67ccea73c49e28b00eee6b8cd88ac", "addresses": ["1GGRxkWKBXuWw2eJdKSWwr5QuKH9S2515h"], "asm": "OP_DUP OP_HASH160 a774f676da2553f67ccea73c49e28b00eee6b8cd OP_EQUALVERIFY OP_CHECKSIG", "type": "pubkeyhash"}, "value": 0.00269586, "n": 1}], "hex": "0200000000010181d6e6fc0ced931319dd37279b1932bf844aefe8e812ff78fbb4b85bb42b806201000000171600147a0e928949f53ecde0c781a3d1f5e95c1a8a99b7feffffff02e2d8e1000000000017a914316442e1ef6b7d8c5e2f91f8fe01dc981cb8c8df87121d0400000000001976a914a774f676da2553f67ccea73c49e28b00eee6b8cd88ac02483045022100919fb93d91d92e14dca5b38122c18025125e0560b753c9f866d3d912996756c002204d9da178c03c5997900f587a540aeea803eb572202e0edaa59023e2d615c5a3e01210332ffa8d66ebaccdac9e9f7d7a66e76b5a0ee1466e8b2866a171713c2ce0ad0cc13490800", "vin": [{"txinwitness": ["3045022100919fb93d91d92e14dca5b38122c18025125e0560b753c9f866d3d912996756c002204d9da178c03c5997900f587a540aeea803eb572202e0edaa59023e2d615c5a3e01", "0332ffa8d66ebaccdac9e9f7d7a66e76b5a0ee1466e8b2866a171713c2ce0ad0cc"], "sequence": 4294967294, "scriptSig": {"hex": "1600147a0e928949f53ecde0c781a3d1f5e95c1a8a99b7", "asm": "00147a0e928949f53ecde0c781a3d1f5e95c1a8a99b7"}, "vout": 1, "txid": "62802bb45bb8b4fb78ff12e8e8ef4a84bf32199b2737dd191393ed0cfce6d681"}], "txid": "c86fa25314573e9a2bcaf9d6626ce107d02dd86277805fe0a944c6c0c0b7c708", "blocktime": 1537873282, "version": 2, "confirmations": 11483, "time": 1537873282, "locktime": 542995, "vsize": 168, "size": 250}