{"hash": "c876a674b9081354cf1794c743e8592b3525a626279630b939c306095129bdb1", "blockhash": "0000000000000000000dcc0f55137456b1a82d3642486a52398922ac4d620174", "vout": [{"scriptPubKey": {"reqSigs": 1, "hex": "76a9148b954de2b964a2963a8b61b6e4af8f31c4c7974b88ac", "addresses": ["1Dj3nWHdbmeKDTGLu9jB4qiZRHZ2uD9suL"], "asm": "OP_DUP OP_HASH160 8b954de2b964a2963a8b61b6e4af8f31c4c7974b OP_EQUALVERIFY OP_CHECKSIG", "type": "pubkeyhash"}, "value": 0.0234, "n": 0}, {"scriptPubKey": {"reqSigs": 1, "hex": "a914fcbe83695f30cdf122bdb8c6667e9c151a31a43a87", "addresses": ["3QjQRyy7NQokxg8HaBRPrL69mnHThXbH2X"], "asm": "OP_HASH160 fcbe83695f30cdf122bdb8c6667e9c151a31a43a OP_EQUAL", "type": "scripthash"}, "value": 0.35221405, "n": 1}], "hex": "01000000027f1c3618313d33184ad7402bef490115d45fbd11a7c5032dbf8148657c0a764302000000fdfd0000483045022100a61a16be7cce8197d48b047c7e33ae3d49585d5c28f5191bffeee6577d033d3b022058bce79bb7e06b047d469b81a54ff6dacf76a6737bf75ceaf44277fcd97db864014730440220313c4e662c6f3f7fbc57b6e1804c5e521e18324ed9e712222edf0c65e3e582e002205e4c07695b595187b66aa61b2ce11893bccab9df3e9cb6fcb1f284679e2b23f3014c695221033a4347f3c0675fb8439fcca918dd004f7ce9170d0feeae2ad07265ac8a273c8721033de3cf779dbb0b80ea0d6c237844dc4b815fbd5c4e1f46e33bc96f4fabcde2012102dbd3a0baba1078f94af7d580fa10edb23f556bebf3bf9598bd171bc7f5e6657253aeffffffffa2eaced20b55b7a0b4b80783ac063eb405169ed99026ccbd6fc5d8dd82beaf6407000000fdfd0000483045022100f170f64ef04638689f1166ecc9b5fbdc78a9f4d029756e5567df570cd9171fb302205285df25dfef12d7c0b14df5273fba751735d6cb6e1c9bc6bcaa8c7212162c0f01473044022051b931cfd4d0e93b2dc3bd1cbda871d1e480ef3ac3b76809d817195cd517316402200912af887fd7acce0f1982b61f1017c939f8740202e9ea0408096f61847cad40014c69522102fc478a85a4359c45c1d591ba0387fe361140c3eb9298420694139bf0bddaca1f21035db7e7e32e0e8008f2bed2fef827a521e9692aa905c841802dfede7051c0abfa2102728ef921b81bc16d470162b7c0bc552de82894e660d35974904da01704e0c62653aeffffffff02a0b42300000000001976a9148b954de2b964a2963a8b61b6e4af8f31c4c7974b88ac9d6f19020000000017a914fcbe83695f30cdf122bdb8c6667e9c151a31a43a8700000000", "vin": [{"sequence": 4294967295, "scriptSig": {"hex": "00483045022100a61a16be7cce8197d48b047c7e33ae3d49585d5c28f5191bffeee6577d033d3b022058bce79bb7e06b047d469b81a54ff6dacf76a6737bf75ceaf44277fcd97db864014730440220313c4e662c6f3f7fbc57b6e1804c5e521e18324ed9e712222edf0c65e3e582e002205e4c07695b595187b66aa61b2ce11893bccab9df3e9cb6fcb1f284679e2b23f3014c695221033a4347f3c0675fb8439fcca918dd004f7ce9170d0feeae2ad07265ac8a273c8721033de3cf779dbb0b80ea0d6c237844dc4b815fbd5c4e1f46e33bc96f4fabcde2012102dbd3a0baba1078f94af7d580fa10edb23f556bebf3bf9598bd171bc7f5e6657253ae", "asm": "0 3045022100a61a16be7cce8197d48b047c7e33ae3d49585d5c28f5191bffeee6577d033d3b022058bce79bb7e06b047d469b81a54ff6dacf76a6737bf75ceaf44277fcd97db864[ALL] 30440220313c4e662c6f3f7fbc57b6e1804c5e521e18324ed9e712222edf0c65e3e582e002205e4c07695b595187b66aa61b2ce11893bccab9df3e9cb6fcb1f284679e2b23f3[ALL] 5221033a4347f3c0675fb8439fcca918dd004f7ce9170d0feeae2ad07265ac8a273c8721033de3cf779dbb0b80ea0d6c237844dc4b815fbd5c4e1f46e33bc96f4fabcde2012102dbd3a0baba1078f94af7d580fa10edb23f556bebf3bf9598bd171bc7f5e6657253ae"}, "vout": 2, "txid": "43760a7c654881bf2d03c5a711bd5fd4150149ef2b40d74a18333d3118361c7f"}, {"sequence": 4294967295, "scriptSig": {"hex": "00483045022100f170f64ef04638689f1166ecc9b5fbdc78a9f4d029756e5567df570cd9171fb302205285df25dfef12d7c0b14df5273fba751735d6cb6e1c9bc6bcaa8c7212162c0f01473044022051b931cfd4d0e93b2dc3bd1cbda871d1e480ef3ac3b76809d817195cd517316402200912af887fd7acce0f1982b61f1017c939f8740202e9ea0408096f61847cad40014c69522102fc478a85a4359c45c1d591ba0387fe361140c3eb9298420694139bf0bddaca1f21035db7e7e32e0e8008f2bed2fef827a521e9692aa905c841802dfede7051c0abfa2102728ef921b81bc16d470162b7c0bc552de82894e660d35974904da01704e0c62653ae", "asm": "0 3045022100f170f64ef04638689f1166ecc9b5fbdc78a9f4d029756e5567df570cd9171fb302205285df25dfef12d7c0b14df5273fba751735d6cb6e1c9bc6bcaa8c7212162c0f[ALL] 3044022051b931cfd4d0e93b2dc3bd1cbda871d1e480ef3ac3b76809d817195cd517316402200912af887fd7acce0f1982b61f1017c939f8740202e9ea0408096f61847cad40[ALL] 522102fc478a85a4359c45c1d591ba0387fe361140c3eb9298420694139bf0bddaca1f21035db7e7e32e0e8008f2bed2fef827a521e9692aa905c841802dfede7051c0abfa2102728ef921b81bc16d470162b7c0bc552de82894e660d35974904da01704e0c62653ae"}, "vout": 7, "txid": "64afbe82ddd8c56fbdcc2690d99e1605b43e06ac8307b8b4a0b7550bd2ceeaa2"}], "txid": "c876a674b9081354cf1794c743e8592b3525a626279630b939c306095129bdb1", "blocktime": 1537870268, "version": 1, "confirmations": 11518, "time": 1537870268, "locktime": 0, "vsize": 668, "size": 668}