{"hash": "78d01214b724c35c92b53598dbcc5e33405e8f774db289db8ccc065807440d3d", "blockhash": "00000000000000000018f53835495a110e01622372bf6ae95dc86f2b0ab887b0", "vout": [{"scriptPubKey": {"reqSigs": 1, "hex": "a914acacb332a3b5b996bf0e8f718abe438bf93ebdab87", "addresses": ["3HS32wj4jtRkBGMARxdrHVf6BazjC1Rcdm"], "asm": "OP_HASH160 acacb332a3b5b996bf0e8f718abe438bf93ebdab OP_EQUAL", "type": "scripthash"}, "value": 0.00012197, "n": 0}, {"scriptPubKey": {"reqSigs": 1, "hex": "a91432072553c1d13bea07b6aac18d09c879b2bc914a87", "addresses": ["36FYGdmkJNhHkEtbNyr8hWDKvGffZFKPCp"], "asm": "OP_HASH160 32072553c1d13bea07b6aac18d09c879b2bc914a OP_EQUAL", "type": "scripthash"}, "value": 0.00370885, "n": 1}], "hex": "0100000000010146ef763bb05ad2b0a1db9c6544c8c9bdc45103f45df8f149843cf66bec27267e0100000023220020b58b29a5c7a4beb628a03f2da5849859aaa374ee7a2998f1dadeb6ca3fd7e9a0ffffffff02a52f00000000000017a914acacb332a3b5b996bf0e8f718abe438bf93ebdab87c5a805000000000017a91432072553c1d13bea07b6aac18d09c879b2bc914a87040047304402202794eb43faeb33d82dd6d3851c8fa0569ff582722eac0d8c45d0906e3ca6bf66022059aaaa75c924b58520c6b92d68f5d9b768588c477af677df61119064c91994fa01483045022100f3ec7562e48473e072b554d60e833c2f65064a78961ecebd4a94bfd8b71aa3fa02202cbb09c6d2f58444a6a92330e0db06d9a6db54f4f8debf4d8047fd4843fc0aba0147522102ae69da8d7e68d58540f59af96793d6c611a658a3a5ca15ed11521fad83e95c272103871fc2ca08e6950b38867e8e6a0e94ee625223d3aa0df5c65f414c6d784467e252ae00000000", "vin": [{"txinwitness": ["", "304402202794eb43faeb33d82dd6d3851c8fa0569ff582722eac0d8c45d0906e3ca6bf66022059aaaa75c924b58520c6b92d68f5d9b768588c477af677df61119064c91994fa01", "3045022100f3ec7562e48473e072b554d60e833c2f65064a78961ecebd4a94bfd8b71aa3fa02202cbb09c6d2f58444a6a92330e0db06d9a6db54f4f8debf4d8047fd4843fc0aba01", "522102ae69da8d7e68d58540f59af96793d6c611a658a3a5ca15ed11521fad83e95c272103871fc2ca08e6950b38867e8e6a0e94ee625223d3aa0df5c65f414c6d784467e252ae"], "sequence": 4294967295, "scriptSig": {"hex": "220020b58b29a5c7a4beb628a03f2da5849859aaa374ee7a2998f1dadeb6ca3fd7e9a0", "asm": "0020b58b29a5c7a4beb628a03f2da5849859aaa374ee7a2998f1dadeb6ca3fd7e9a0"}, "vout": 1, "txid": "7e2627ec6bf63c8449f1f85df40351c4bdc9c844659cdba1b0d25ab03b76ef46"}], "txid": "c87b447aafcd29a3bb47d6f46ff0b275d6f89a7faae653a5b4ccc8144196717f", "blocktime": 1537870928, "version": 1, "confirmations": 11514, "time": 1537870928, "locktime": 0, "vsize": 206, "size": 371}