{"hash": "ad0448d2a9e20393a686b8437f68b233bbe23c7d99ae23765e11ec23acd991fc", "blockhash": "0000000000000000000e13cef7c366c0283d82e591d1acd082e914b08063cdf1", "vout": [{"scriptPubKey": {"reqSigs": 1, "hex": "a9146b0ab51e8252d34b76169265151670cd5824117887", "addresses": ["3BT143FDzrWsPVKQpwGky5CGRZxamimXLw"], "asm": "OP_HASH160 6b0ab51e8252d34b76169265151670cd58241178 OP_EQUAL", "type": "scripthash"}, "value": 0.0037, "n": 0}, {"scriptPubKey": {"reqSigs": 1, "hex": "00148a81761924052b60c53e8fca63024a4067ae6a82", "addresses": ["bc1q32qhvxfyq54kp3f73l9xxqj2gpn6u65zwphmj9"], "asm": "0 8a81761924052b60c53e8fca63024a4067ae6a82", "type": "witness_v0_keyhash"}, "value": 3.099e-05, "n": 1}], "hex": "01000000000101ce7545bd05e21a9d80e14853d900ff8d8c053142c650809ef3ccce1b3eb792b601000000171600149f6ce050434019d137553f33e3ab69e768fccb0effffffff0250a505000000000017a9146b0ab51e8252d34b76169265151670cd58241178871b0c0000000000001600148a81761924052b60c53e8fca63024a4067ae6a820247304402206a3ef36cae4323e2b168326ed6b5a43e161591187ac16ff3685bed92f517975a02205dea2758e55157527818ad1a9f6469e61978b77bdb94d6b29fc168fd2653ed9001210325c78afebcb347b7b949a2fe1b3a156480ee0248e6eb7b25eadf36190d12d95100000000", "vin": [{"txinwitness": ["304402206a3ef36cae4323e2b168326ed6b5a43e161591187ac16ff3685bed92f517975a02205dea2758e55157527818ad1a9f6469e61978b77bdb94d6b29fc168fd2653ed9001", "0325c78afebcb347b7b949a2fe1b3a156480ee0248e6eb7b25eadf36190d12d951"], "sequence": 4294967295, "scriptSig": {"hex": "1600149f6ce050434019d137553f33e3ab69e768fccb0e", "asm": "00149f6ce050434019d137553f33e3ab69e768fccb0e"}, "vout": 1, "txid": "b692b73e1bceccf39e8050c64231058c8dff00d95348e1809d1ae205bd4575ce"}], "txid": "c884b285fd6ef9e5a4a44934786bee1e06de54156fd4ed64e0a0e4694182d887", "blocktime": 1537871767, "version": 1, "confirmations": 11495, "time": 1537871767, "locktime": 0, "vsize": 165, "size": 246}