{"hash": "c8982f47cb61686d74ef19c73d935855e36687d1a4f242ee02f4b0d05f03a487", "blockhash": "0000000000000000001cda96e906b7601b7a6fb1a3b62bca570a9e5d8f4b3de1", "vout": [{"scriptPubKey": {"reqSigs": 1, "hex": "76a914e665be90be21b5907d4463031c8df2e97254840d88ac", "addresses": ["1N1EJSquFcF1E4rBpEPMB8svXXJdvTM92V"], "asm": "OP_DUP OP_HASH160 e665be90be21b5907d4463031c8df2e97254840d OP_EQUALVERIFY OP_CHECKSIG", "type": "pubkeyhash"}, "value": 8.96442647, "n": 0}, {"scriptPubKey": {"reqSigs": 1, "hex": "76a91484034cb673027eda6254b8387340780628d2c17188ac", "addresses": ["1D329az6hY7KDv4ntvSL68edHHtyQ7d45m"], "asm": "OP_DUP OP_HASH160 84034cb673027eda6254b8387340780628d2c171 OP_EQUALVERIFY OP_CHECKSIG", "type": "pubkeyhash"}, "value": 0.00609822, "n": 1}], "hex": "0100000001fa203192da9d898db4b77a2976c4fdddf8ea4eeab26a33385a462d5ec2215a89000000006b483045022100a7f87d8e835968a8903c2c09e6c83b70a1ec1cf2208d0227bc9cb7750ef2d82802204e07312f3eb30820d5648976731d62fc02e509ddc758439d4f037a85821055470121032518a77910555b7c5efcec5285781954fb97659ba86ab396a191c58a3dfcc55fffffffff0217a16e35000000001976a914e665be90be21b5907d4463031c8df2e97254840d88ac1e4e0900000000001976a91484034cb673027eda6254b8387340780628d2c17188ac00000000", "vin": [{"sequence": 4294967295, "scriptSig": {"hex": "483045022100a7f87d8e835968a8903c2c09e6c83b70a1ec1cf2208d0227bc9cb7750ef2d82802204e07312f3eb30820d5648976731d62fc02e509ddc758439d4f037a85821055470121032518a77910555b7c5efcec5285781954fb97659ba86ab396a191c58a3dfcc55f", "asm": "3045022100a7f87d8e835968a8903c2c09e6c83b70a1ec1cf2208d0227bc9cb7750ef2d82802204e07312f3eb30820d5648976731d62fc02e509ddc758439d4f037a8582105547[ALL] 032518a77910555b7c5efcec5285781954fb97659ba86ab396a191c58a3dfcc55f"}, "vout": 0, "txid": "895a21c25e2d465a38336ab2ea4eeaf8ddfdc476297ab7b48d899dda923120fa"}], "txid": "c8982f47cb61686d74ef19c73d935855e36687d1a4f242ee02f4b0d05f03a487", "blocktime": 1537873282, "version": 1, "confirmations": 11480, "time": 1537873282, "locktime": 0, "vsize": 226, "size": 226}