{"hash": "c89906c743e82007c449ed304cd2ad5dd6502017a00084982bf841de63a29283", "blockhash": "00000000000000000018f53835495a110e01622372bf6ae95dc86f2b0ab887b0", "vout": [{"scriptPubKey": {"type": "nulldata", "hex": "6a4c50000077810001ff1c0bec365306f189a5c1f2bcbefa6b8351586b4e86aeaeacb577c031fca0890c5975127e9f5c77f48d6206b15c5baa0ad906143fe9098cd302bc9a9526289ac0f6612cd74e33776ee4", "asm": "OP_RETURN 000077810001ff1c0bec365306f189a5c1f2bcbefa6b8351586b4e86aeaeacb577c031fca0890c5975127e9f5c77f48d6206b15c5baa0ad906143fe9098cd302bc9a9526289ac0f6612cd74e33776ee4"}, "value": 0.0, "n": 0}, {"scriptPubKey": {"reqSigs": 1, "hex": "76a9140a709b789759085521e45b7784a8ff96690bf6b488ac", "addresses": ["1xCf1eyDxwCuSxJkrz3PJF6CzjD59EVa2"], "asm": "OP_DUP OP_HASH160 0a709b789759085521e45b7784a8ff96690bf6b4 OP_EQUALVERIFY OP_CHECKSIG", "type": "pubkeyhash"}, "value": 0.00128424, "n": 1}], "hex": "01000000015817685dd82b3623b2f773da4dae64b98e1e657db069d45a20b9dfeaae16a117010000006b483045022100c39c4981272ce6df2b241eaf9aeef2c1a54192ac1f099592cdd70fd8e505ca7c0220593dbfca6a4714767f58d1398b98522650fa87c4e6c9afae07853a99748958e3012103c4082d831bc0c4695f35b34d0ec438e76e8a22368f65a74112163373eb1b6fd7ffffffff020000000000000000536a4c50000077810001ff1c0bec365306f189a5c1f2bcbefa6b8351586b4e86aeaeacb577c031fca0890c5975127e9f5c77f48d6206b15c5baa0ad906143fe9098cd302bc9a9526289ac0f6612cd74e33776ee4a8f50100000000001976a9140a709b789759085521e45b7784a8ff96690bf6b488ac00000000", "vin": [{"sequence": 4294967295, "scriptSig": {"hex": "483045022100c39c4981272ce6df2b241eaf9aeef2c1a54192ac1f099592cdd70fd8e505ca7c0220593dbfca6a4714767f58d1398b98522650fa87c4e6c9afae07853a99748958e3012103c4082d831bc0c4695f35b34d0ec438e76e8a22368f65a74112163373eb1b6fd7", "asm": "3045022100c39c4981272ce6df2b241eaf9aeef2c1a54192ac1f099592cdd70fd8e505ca7c0220593dbfca6a4714767f58d1398b98522650fa87c4e6c9afae07853a99748958e3[ALL] 03c4082d831bc0c4695f35b34d0ec438e76e8a22368f65a74112163373eb1b6fd7"}, "vout": 1, "txid": "17a116aeeadfb9205ad469b07d651e8eb964ae4dda73f7b223362bd85d681758"}], "txid": "c89906c743e82007c449ed304cd2ad5dd6502017a00084982bf841de63a29283", "blocktime": 1537870928, "version": 1, "confirmations": 11512, "time": 1537870928, "locktime": 0, "vsize": 284, "size": 284}