{"hash": "c89a7cae548359117d096b26f8e1962520b8e5ac9c8b28845fe2c0d8efc1ee7f", "blockhash": "00000000000000000004ffacab907a6b429b9a5745fa0b75af4234bf69dd7176", "vout": [{"scriptPubKey": {"reqSigs": 1, "hex": "76a91444d7c682abf7d558125fd791e1317cec833b51ff88ac", "addresses": ["17H1SPHhgJQVcsZhUvvSpUpLikVrR9cs4T"], "asm": "OP_DUP OP_HASH160 44d7c682abf7d558125fd791e1317cec833b51ff OP_EQUALVERIFY OP_CHECKSIG", "type": "pubkeyhash"}, "value": 1.0, "n": 0}, {"scriptPubKey": {"reqSigs": 1, "hex": "76a91427010f3ac6ba041913658d1823466a47a3499f8f88ac", "addresses": ["14ZEd6aEAn9UDjLWw6MjMWM5KcS5ekggE2"], "asm": "OP_DUP OP_HASH160 27010f3ac6ba041913658d1823466a47a3499f8f OP_EQUALVERIFY OP_CHECKSIG", "type": "pubkeyhash"}, "value": 0.39996, "n": 1}], "hex": "01000000019a13ec754b2fd56f412e6fc6a9e0afc6ef49865b1c69173d919ad0ce04707f6f000000006b4830450221008a35a704e11e1fa102a2e786623dc9f1a860b1c7b8687e4d0c545f7e0a2924de0220681a8ea7c914bfdb11a9129cfc2bf0e90f36102882cbf21e43960cef884dd0ec0121036d96fb83edfffb536458fc743cf7da4b7be49a0cca61d5c638a414720df388acffffffff0200e1f505000000001976a91444d7c682abf7d558125fd791e1317cec833b51ff88ac604a6202000000001976a91427010f3ac6ba041913658d1823466a47a3499f8f88ac00000000", "vin": [{"sequence": 4294967295, "scriptSig": {"hex": "4830450221008a35a704e11e1fa102a2e786623dc9f1a860b1c7b8687e4d0c545f7e0a2924de0220681a8ea7c914bfdb11a9129cfc2bf0e90f36102882cbf21e43960cef884dd0ec0121036d96fb83edfffb536458fc743cf7da4b7be49a0cca61d5c638a414720df388ac", "asm": "30450221008a35a704e11e1fa102a2e786623dc9f1a860b1c7b8687e4d0c545f7e0a2924de0220681a8ea7c914bfdb11a9129cfc2bf0e90f36102882cbf21e43960cef884dd0ec[ALL] 036d96fb83edfffb536458fc743cf7da4b7be49a0cca61d5c638a414720df388ac"}, "vout": 0, "txid": "6f7f7004ced09a913d17691c5b8649efc6afe0a9c66f2e416fd52f4b75ec139a"}], "txid": "c89a7cae548359117d096b26f8e1962520b8e5ac9c8b28845fe2c0d8efc1ee7f", "blocktime": 1537875543, "version": 1, "confirmations": 11464, "time": 1537875543, "locktime": 0, "vsize": 226, "size": 226}