{"hash": "12f1ebce5a33aeabcc29ea65fd6ea0d3fc16f752c4ea423e25cbbc9a80f87e4e", "blockhash": "0000000000000000001e0dab787dd257d1dbfcb92a98c2207d5e1078be1f4165", "vout": [{"scriptPubKey": {"reqSigs": 1, "hex": "76a91439220f7d6b145ea4ffa21b2d20a0dee12375d5e688ac", "addresses": ["16D6KVzc41iGd3UPLg66TVtf2pVAhPeTZr"], "asm": "OP_DUP OP_HASH160 39220f7d6b145ea4ffa21b2d20a0dee12375d5e6 OP_EQUALVERIFY OP_CHECKSIG", "type": "pubkeyhash"}, "value": 0.07, "n": 0}, {"scriptPubKey": {"reqSigs": 1, "hex": "a914a62d5d0cc9f9a81d4c11faebafc54485025b174d87", "addresses": ["3GqgSJC2ww3h5zcfZHkg7nFVcfYZucSNwY"], "asm": "OP_HASH160 a62d5d0cc9f9a81d4c11faebafc54485025b174d OP_EQUAL", "type": "scripthash"}, "value": 0.0106, "n": 1}, {"scriptPubKey": {"reqSigs": 1, "hex": "0020701a8d401c84fb13e6baf169d59684e17abd9fa216c8cc5b9fc63d622ff8c58d", "addresses": ["bc1qwqdg6squsna38e46795at95yu9atm8azzmyvckulcc7kytlcckxswvvzej"], "asm": "0 701a8d401c84fb13e6baf169d59684e17abd9fa216c8cc5b9fc63d622ff8c58d", "type": "witness_v0_scripthash"}, "value": 0.00778422, "n": 2}], "hex": "010000000001015289985e2065a1a90849005d9e74d7c92d4dcd84efca73a0b7336c6f3713318f0400000000ffffffff03c0cf6a00000000001976a91439220f7d6b145ea4ffa21b2d20a0dee12375d5e688aca02c10000000000017a914a62d5d0cc9f9a81d4c11faebafc54485025b174d87b6e00b0000000000220020701a8d401c84fb13e6baf169d59684e17abd9fa216c8cc5b9fc63d622ff8c58d04004830450221008062b29c2a17a19782dce5f3860c7a11888ed3a816358fb71f872789c05d2cd502206d34986fd3fdcbf33e0f5a80b6d93bb9c0223bcf91a00808d43543612519c08101483045022100b6ff5e55990cd7b449bf31cbaf2ce952d3b61c4fa59750e88211499586bcff5002205533bbcd1d4ffa59c8d3cb7a26a1faa0a098a4f2eca59b082d3caf8aeb6d4fd1016952210375e00eb72e29da82b89367947f29ef34afb75e8654f6ea368e0acdfd92976b7c2103a1b26313f430c4b15bb1fdce663207659d8cac749a0e53d70eff01874496feff2103c96d495bfdd5ba4145e3e046fee45e84a8a48ad05bd8dbb395c011a32cf9f88053ae00000000", "vin": [{"txinwitness": ["", "30450221008062b29c2a17a19782dce5f3860c7a11888ed3a816358fb71f872789c05d2cd502206d34986fd3fdcbf33e0f5a80b6d93bb9c0223bcf91a00808d43543612519c08101", "3045022100b6ff5e55990cd7b449bf31cbaf2ce952d3b61c4fa59750e88211499586bcff5002205533bbcd1d4ffa59c8d3cb7a26a1faa0a098a4f2eca59b082d3caf8aeb6d4fd101", "52210375e00eb72e29da82b89367947f29ef34afb75e8654f6ea368e0acdfd92976b7c2103a1b26313f430c4b15bb1fdce663207659d8cac749a0e53d70eff01874496feff2103c96d495bfdd5ba4145e3e046fee45e84a8a48ad05bd8dbb395c011a32cf9f88053ae"], "sequence": 4294967295, "scriptSig": {"hex": "", "asm": ""}, "vout": 4, "txid": "8f3113376f6c33b7a073caef84cd4d2dc9d7749e5d004908a9a165205e988952"}], "txid": "c89b47a8822f8fb97c57124224e7721b06fc23735f3eeb261b8e2acb82689958", "blocktime": 1537872475, "version": 1, "confirmations": 11486, "time": 1537872475, "locktime": 0, "vsize": 224, "size": 416}