{"hash": "c89ea2b350593aa5c1334f5d4acb70f4964858fef39bddf983ea75de1dc70c0f", "blockhash": "0000000000000000000dcc0f55137456b1a82d3642486a52398922ac4d620174", "vout": [{"scriptPubKey": {"reqSigs": 1, "hex": "a91495b4802ced903d35710fecf9c0f1ee02e081550687", "addresses": ["3FLaqXvaJ8UQ9VEJeDaeCxQyj8Nzm5kCGc"], "asm": "OP_HASH160 95b4802ced903d35710fecf9c0f1ee02e0815506 OP_EQUAL", "type": "scripthash"}, "value": 0.09299, "n": 0}, {"scriptPubKey": {"reqSigs": 1, "hex": "76a91494e06caf5cc2c156ff74685b6188a00f5011657088ac", "addresses": ["1EaBrgZTQjidFGtJBR9uVPFxmA9bpsUVmd"], "asm": "OP_DUP OP_HASH160 94e06caf5cc2c156ff74685b6188a00f50116570 OP_EQUALVERIFY OP_CHECKSIG", "type": "pubkeyhash"}, "value": 0.25049468, "n": 1}], "hex": "0100000001d580b8e7d519bedaf80339d84b0bae481eeb0572d27c97a1c9f03a2310bcdd72010000006a473044022067b382d26b341ef3d0ba1531f6f4e870273f5431080247f8de3f1a772288f4ec02204fcf2a9a4a559303f962ec87dd221b2cb8fb77e95888ba8edd548180b1094584012102c94a1df49b05b5bfff023f9fecae6c4d0656b085d675a6a5c1095410502216aeffffff000238e48d000000000017a91495b4802ced903d35710fecf9c0f1ee02e0815506877c397e01000000001976a91494e06caf5cc2c156ff74685b6188a00f5011657088ac00000000", "vin": [{"sequence": 16777215, "scriptSig": {"hex": "473044022067b382d26b341ef3d0ba1531f6f4e870273f5431080247f8de3f1a772288f4ec02204fcf2a9a4a559303f962ec87dd221b2cb8fb77e95888ba8edd548180b1094584012102c94a1df49b05b5bfff023f9fecae6c4d0656b085d675a6a5c1095410502216ae", "asm": "3044022067b382d26b341ef3d0ba1531f6f4e870273f5431080247f8de3f1a772288f4ec02204fcf2a9a4a559303f962ec87dd221b2cb8fb77e95888ba8edd548180b1094584[ALL] 02c94a1df49b05b5bfff023f9fecae6c4d0656b085d675a6a5c1095410502216ae"}, "vout": 1, "txid": "72ddbc10233af0c9a1977cd27205eb1e48ae0b4bd83903f8dabe19d5e7b880d5"}], "txid": "c89ea2b350593aa5c1334f5d4acb70f4964858fef39bddf983ea75de1dc70c0f", "blocktime": 1537870268, "version": 1, "confirmations": 11518, "time": 1537870268, "locktime": 0, "vsize": 223, "size": 223}