{"hash": "7a1b9f12532d910a0e8251049d5f53a3cc0f2b67ff375ba9e03148e6b3da0287", "blockhash": "00000000000000000004ffacab907a6b429b9a5745fa0b75af4234bf69dd7176", "vout": [{"scriptPubKey": {"reqSigs": 1, "hex": "a9141988a27e3c2df4ddee7fad5a2303d086179b2a3087", "addresses": ["3422VtS7UtCvXYxoXMVp6eZupR252z85oC"], "asm": "OP_HASH160 1988a27e3c2df4ddee7fad5a2303d086179b2a30 OP_EQUAL", "type": "scripthash"}, "value": 1.44135481, "n": 0}, {"scriptPubKey": {"reqSigs": 1, "hex": "a914fef3f66e27c60aad2f7981078da0afff75d9981887", "addresses": ["3Qw5p66CnmTEyFtUfBuvvBXgPUfPxpKcRH"], "asm": "OP_HASH160 fef3f66e27c60aad2f7981078da0afff75d99818 OP_EQUAL", "type": "scripthash"}, "value": 0.07025555, "n": 1}, {"scriptPubKey": {"reqSigs": 1, "hex": "76a9141ed49d2d45e2a87ec22b44ed5dc912c6b706115a88ac", "addresses": ["13p1yS6WrcfYWQkVJyjvh798R4fR7ZDsNR"], "asm": "OP_DUP OP_HASH160 1ed49d2d45e2a87ec22b44ed5dc912c6b706115a OP_EQUALVERIFY OP_CHECKSIG", "type": "pubkeyhash"}, "value": 0.018381, "n": 2}], "hex": "010000000001017ce5cce75aa92e4e67335198de814d719cfda0dece6b5562b0e6cc456a501dbe000000002322002065d416c48a8072e0ac51c2d111eb194f009caef0332446c1bf2097316cf07fa9ffffffff03395597080000000017a9141988a27e3c2df4ddee7fad5a2303d086179b2a308793336b000000000017a914fef3f66e27c60aad2f7981078da0afff75d9981887140c1c00000000001976a9141ed49d2d45e2a87ec22b44ed5dc912c6b706115a88ac04004730440220697ce53ca155f224fd53e3c38739779d1be15698f2fbf556859e9563c55272660220459a284c018bb745b747e5067ffdc3fc684aeaf170c640e83e7a47151aa0684d0147304402201d9ad87df11df23a2cfcf91c69c25e070e375d11d8b96ec1ed30865c0713022b02200fda817e8d5fc01af126cda382d7756b23b0a945cc606372829b395f040f2af10169522102f44abcf9e23c9a460da309ccca56c619c04eed3bde2c2cff5e7d78fbcd980b9c2103c9443cf3047bb6c2c82f1b0c44c36109cdc3d0d601d16d1189a1602bf8d1a0a02103bfe867059274412412e088af5572b92168c2ef495cfe6c9b7a753a009eb37c4853ae00000000", "vin": [{"txinwitness": ["", "30440220697ce53ca155f224fd53e3c38739779d1be15698f2fbf556859e9563c55272660220459a284c018bb745b747e5067ffdc3fc684aeaf170c640e83e7a47151aa0684d01", "304402201d9ad87df11df23a2cfcf91c69c25e070e375d11d8b96ec1ed30865c0713022b02200fda817e8d5fc01af126cda382d7756b23b0a945cc606372829b395f040f2af101", "522102f44abcf9e23c9a460da309ccca56c619c04eed3bde2c2cff5e7d78fbcd980b9c2103c9443cf3047bb6c2c82f1b0c44c36109cdc3d0d601d16d1189a1602bf8d1a0a02103bfe867059274412412e088af5572b92168c2ef495cfe6c9b7a753a009eb37c4853ae"], "sequence": 4294967295, "scriptSig": {"hex": "22002065d416c48a8072e0ac51c2d111eb194f009caef0332446c1bf2097316cf07fa9", "asm": "002065d416c48a8072e0ac51c2d111eb194f009caef0332446c1bf2097316cf07fa9"}, "vout": 0, "txid": "be1d506a45cce6b062556bcedea0fd9c714d81de985133674e2ea95ae7cce57c"}], "txid": "c8a0c808f8b7ed569e51d81c889d870253216748038cee0c56c1fa4f594b0341", "blocktime": 1537875543, "version": 1, "confirmations": 11464, "time": 1537875543, "locktime": 0, "vsize": 248, "size": 438}