{"hash": "7c9f9108b6b4209fa4a45798d4e334152e45719eb4c2f5c9ce0627834e825a1e", "blockhash": "000000000000000000022b45ed06c6f4ccd3cf7fb5ba4856ebd2e58215665228", "vout": [{"scriptPubKey": {"reqSigs": 1, "hex": "76a91491f3172565a21a1e2dbe12e57ae2351b30a5042b88ac", "addresses": ["1EJiC2wijXxnZXrQeZxJFMwd6XxvZTwvp4"], "asm": "OP_DUP OP_HASH160 91f3172565a21a1e2dbe12e57ae2351b30a5042b OP_EQUALVERIFY OP_CHECKSIG", "type": "pubkeyhash"}, "value": 0.001675, "n": 0}, {"scriptPubKey": {"reqSigs": 1, "hex": "a914d2ad0c493b1952d9a3eb433fc98217a9a320341e87", "addresses": ["3Lty8Qw5FFrFVaLtWN96vM8d9dmUhBS77e"], "asm": "OP_HASH160 d2ad0c493b1952d9a3eb433fc98217a9a320341e OP_EQUAL", "type": "scripthash"}, "value": 1.68049624, "n": 1}], "hex": "0200000000010164c534449197131bd0bae9b9bd8b6c308c09828f969149df7268eaa0d861f5d50000000017160014323bd25d9653e149e0934399f61257fe858a24e0feffffff024c8e0200000000001976a91491f3172565a21a1e2dbe12e57ae2351b30a5042b88acd83b040a0000000017a914d2ad0c493b1952d9a3eb433fc98217a9a320341e8702483045022100ee3202129def0fe7e49e044b512154b61d8b18f0f252e38df6c0d6903493bf7a0220278c7cf5f1ef92ba07bf972061e4ef06af6117195c2b4da9ca3b7cf211e3208e012103fec6d7bdabaa7c97d006a4b04998239835c32de081272f2114edffa57943b6f20b490800", "vin": [{"txinwitness": ["3045022100ee3202129def0fe7e49e044b512154b61d8b18f0f252e38df6c0d6903493bf7a0220278c7cf5f1ef92ba07bf972061e4ef06af6117195c2b4da9ca3b7cf211e3208e01", "03fec6d7bdabaa7c97d006a4b04998239835c32de081272f2114edffa57943b6f2"], "sequence": 4294967294, "scriptSig": {"hex": "160014323bd25d9653e149e0934399f61257fe858a24e0", "asm": "0014323bd25d9653e149e0934399f61257fe858a24e0"}, "vout": 0, "txid": "d5f561d8a0ea6872df4991968f82098c306c8bbdb9e9bad01b1397914434c564"}], "txid": "c8a0cdb0472cc711a1899e3f11724ba92314b064da39d428733809aec43548ae", "blocktime": 1537869901, "version": 2, "confirmations": 11523, "time": 1537869901, "locktime": 542987, "vsize": 168, "size": 250}