{"hash": "67574df68111a0710621fa1e4aa8da0483c8685eefe2de06358611064bdec0c2", "blockhash": "0000000000000000001f76057863aec43deb6fa401d9628bb513d65a8098bfab", "vout": [{"scriptPubKey": {"reqSigs": 1, "hex": "a9142c1295ab8db4a789e849e4808293b6cafc7d131987", "addresses": ["35i3vGWwpHCqfmniRbN1DT4AqwiZHzXFjP"], "asm": "OP_HASH160 2c1295ab8db4a789e849e4808293b6cafc7d1319 OP_EQUAL", "type": "scripthash"}, "value": 5.52389729, "n": 0}, {"scriptPubKey": {"reqSigs": 1, "hex": "a914efc53531f6ace45cdead070b3d0db5d0d522bc9e87", "addresses": ["3PYofdS1pDneAnp4zGcqVEUUyfoJ3FLLRc"], "asm": "OP_HASH160 efc53531f6ace45cdead070b3d0db5d0d522bc9e OP_EQUAL", "type": "scripthash"}, "value": 0.01329936, "n": 1}], "hex": "020000000001017902a99631396e66de036cc55414fd885dc655efce917b1b25854d06522c06d50100000017160014c5c1fd591b52240a650b1fcbb2ed8e80e515897ffeffffff0261ccec200000000017a9142c1295ab8db4a789e849e4808293b6cafc7d131987104b14000000000017a914efc53531f6ace45cdead070b3d0db5d0d522bc9e8702483045022100a3fce2ae8e22a906b107f3b5daaadd894c554d71d23e95550643ef3fa340274102203975276a3b2d480471ea097ea1ccb6ab5ebbd5361dd45a39d005e5ba1d9ba06c0121028e12e54771d4a40bd75060a25f9ff8adaf50b0c9ebcfcd05a638eec3d1f49b1e14490800", "vin": [{"txinwitness": ["3045022100a3fce2ae8e22a906b107f3b5daaadd894c554d71d23e95550643ef3fa340274102203975276a3b2d480471ea097ea1ccb6ab5ebbd5361dd45a39d005e5ba1d9ba06c01", "028e12e54771d4a40bd75060a25f9ff8adaf50b0c9ebcfcd05a638eec3d1f49b1e"], "sequence": 4294967294, "scriptSig": {"hex": "160014c5c1fd591b52240a650b1fcbb2ed8e80e515897f", "asm": "0014c5c1fd591b52240a650b1fcbb2ed8e80e515897f"}, "vout": 1, "txid": "d5062c52064d85251b7b91ceef55c65d88fd1454c56c03de666e393196a90279"}], "txid": "c8aa2c0328449ae596fe824907dd9b9f9fbc34d91961e0eafbf86988f23d062d", "blocktime": 1537873891, "version": 2, "confirmations": 11479, "time": 1537873891, "locktime": 542996, "vsize": 166, "size": 248}