{"hash": "c8ad7977b112a9881afdf8bca4f18c18f38dfdd0525dfe432acc7207937758f2", "blockhash": "0000000000000000001e0dab787dd257d1dbfcb92a98c2207d5e1078be1f4165", "vout": [{"scriptPubKey": {"reqSigs": 1, "hex": "76a914e0f9e2367fcf90ead062047abb6421576a4ca3f388ac", "addresses": ["1MWZiC27VgV7U2brSCb2cHgGkpMrH7yS2x"], "asm": "OP_DUP OP_HASH160 e0f9e2367fcf90ead062047abb6421576a4ca3f3 OP_EQUALVERIFY OP_CHECKSIG", "type": "pubkeyhash"}, "value": 0.00781151, "n": 0}, {"scriptPubKey": {"reqSigs": 1, "hex": "76a9148c028738c2297db3b46fc326fdd7b48c69c88c6188ac", "addresses": ["1DmJdX87eLfFwMYFHtJKtQBMFtTFQQJFNZ"], "asm": "OP_DUP OP_HASH160 8c028738c2297db3b46fc326fdd7b48c69c88c61 OP_EQUALVERIFY OP_CHECKSIG", "type": "pubkeyhash"}, "value": 0.01537877, "n": 1}], "hex": "01000000011137c00f5a80583c26503f449a56c1b2339464db9e3b183a0182c4ad2d678ea7010000006b483045022100d20073288ec5f02fa8ea64a3c4d309137f8e24deda87f5859de14894bb149e2d02205ee3d797b963c8ce5937e6ec780a563fa89437b12d8c8355f61e862bd2ac999f012102515c76f86a45d5f23fe7ff109cdc58e32f72f238c4b79b21d67f73abf35189bdffffffff025feb0b00000000001976a914e0f9e2367fcf90ead062047abb6421576a4ca3f388ac55771700000000001976a9148c028738c2297db3b46fc326fdd7b48c69c88c6188ac00000000", "vin": [{"sequence": 4294967295, "scriptSig": {"hex": "483045022100d20073288ec5f02fa8ea64a3c4d309137f8e24deda87f5859de14894bb149e2d02205ee3d797b963c8ce5937e6ec780a563fa89437b12d8c8355f61e862bd2ac999f012102515c76f86a45d5f23fe7ff109cdc58e32f72f238c4b79b21d67f73abf35189bd", "asm": "3045022100d20073288ec5f02fa8ea64a3c4d309137f8e24deda87f5859de14894bb149e2d02205ee3d797b963c8ce5937e6ec780a563fa89437b12d8c8355f61e862bd2ac999f[ALL] 02515c76f86a45d5f23fe7ff109cdc58e32f72f238c4b79b21d67f73abf35189bd"}, "vout": 1, "txid": "a78e672dadc482013a183b9edb649433b2c1569a443f50263c58805a0fc03711"}], "txid": "c8ad7977b112a9881afdf8bca4f18c18f38dfdd0525dfe432acc7207937758f2", "blocktime": 1537872475, "version": 1, "confirmations": 11487, "time": 1537872475, "locktime": 0, "vsize": 226, "size": 226}