{"hash": "4e444e63831b914fcc97ec67ed1340261c23d7ee070782a7040651a35b19a182", "blockhash": "0000000000000000001f76057863aec43deb6fa401d9628bb513d65a8098bfab", "vout": [{"scriptPubKey": {"reqSigs": 1, "hex": "a914fb8361c54c748238e5426cf1e4a6f23b4ce89d8d87", "addresses": ["3QctvGYWD5dCATgtgabjwgZSk39wVnxZCR"], "asm": "OP_HASH160 fb8361c54c748238e5426cf1e4a6f23b4ce89d8d OP_EQUAL", "type": "scripthash"}, "value": 0.01427, "n": 0}, {"scriptPubKey": {"reqSigs": 1, "hex": "a91437b2b8f58ac78c98f631c726d52fa1992c85ff3d87", "addresses": ["36mXBx85KabWLEn9r6mqN2rd8S42tQeBCU"], "asm": "OP_HASH160 37b2b8f58ac78c98f631c726d52fa1992c85ff3d OP_EQUAL", "type": "scripthash"}, "value": 0.01273407, "n": 1}], "hex": "02000000000101123a01ada927995461f79d3afa67bf1a43ea20b55d83303ea58a8db76e6697d90000000017160014be42eaf91f090e880796c8f69de67275fa8ac5a7feffffff0238c615000000000017a914fb8361c54c748238e5426cf1e4a6f23b4ce89d8d873f6e13000000000017a91437b2b8f58ac78c98f631c726d52fa1992c85ff3d870247304402207f31f36948abc00b551e75c8184a5eeda17484394bcd1bbf1f9961fdf747824702204becba3313ddd6f6585c88a93e116b6bd5ff76fd363d95aea2530aa98b89d14c012103a9ae87c305331dfc6eee4c9d8f9b6d78bd503e61c74eb78d40584b01081ea02714490800", "vin": [{"txinwitness": ["304402207f31f36948abc00b551e75c8184a5eeda17484394bcd1bbf1f9961fdf747824702204becba3313ddd6f6585c88a93e116b6bd5ff76fd363d95aea2530aa98b89d14c01", "03a9ae87c305331dfc6eee4c9d8f9b6d78bd503e61c74eb78d40584b01081ea027"], "sequence": 4294967294, "scriptSig": {"hex": "160014be42eaf91f090e880796c8f69de67275fa8ac5a7", "asm": "0014be42eaf91f090e880796c8f69de67275fa8ac5a7"}, "vout": 0, "txid": "d997666eb78d8aa53e30835db520ea431abf67fa3a9df761549927a9ad013a12"}], "txid": "c8ae14c217f2938997a77cd0e2d74ed105014c6273dc48e16a17d32099418aef", "blocktime": 1537873891, "version": 2, "confirmations": 11479, "time": 1537873891, "locktime": 542996, "vsize": 166, "size": 247}