{"hash": "c8b026643fb36b62251b37692e9ab83f12e690ef50b6cc5c3f78adfa6964b309", "blockhash": "00000000000000000017f5eb5941039fbcee6240d03bc1f2f8e35350df66a1d8", "vout": [{"scriptPubKey": {"type": "nulldata", "hex": "6a4c50000077f60001492ae4159f1ac9e1d165badfd19ed074892d00f8e87af8e8e963c7cfd5b9104f296b9e48a7b7787860fe9f867d7a5baa18b5061391692808a3361d100759d4ba30d2c37bb011d97e02cf", "asm": "OP_RETURN 000077f60001492ae4159f1ac9e1d165badfd19ed074892d00f8e87af8e8e963c7cfd5b9104f296b9e48a7b7787860fe9f867d7a5baa18b5061391692808a3361d100759d4ba30d2c37bb011d97e02cf"}, "value": 0.0, "n": 0}, {"scriptPubKey": {"reqSigs": 1, "hex": "76a9141d6115574e76d9d6c11e723dceb122fe1369afd888ac", "addresses": ["13gLu2wTcrD8uL8CGckK8xsv4wrUab8MVM"], "asm": "OP_DUP OP_HASH160 1d6115574e76d9d6c11e723dceb122fe1369afd8 OP_EQUALVERIFY OP_CHECKSIG", "type": "pubkeyhash"}, "value": 0.00633341, "n": 1}], "hex": "0100000001c3cde32be0edf98f68f2733ab86ccb49513c22783e559196e08fbec2eaef68ff000000006b4830450221009c5283714ed71a7c813c06dbf697bd044108297804918c5a304ce625bdae58c7022060f8c2f879d1b165a2925831ed0ccdcc90ec82627ff05f40c886ae6f585d3ab80121029bae2d07732e491396bb8ba012101d39ba8c373d692075514ea0666e2cc147bdffffffff020000000000000000536a4c50000077f60001492ae4159f1ac9e1d165badfd19ed074892d00f8e87af8e8e963c7cfd5b9104f296b9e48a7b7787860fe9f867d7a5baa18b5061391692808a3361d100759d4ba30d2c37bb011d97e02cffda90900000000001976a9141d6115574e76d9d6c11e723dceb122fe1369afd888ac00000000", "vin": [{"sequence": 4294967295, "scriptSig": {"hex": "4830450221009c5283714ed71a7c813c06dbf697bd044108297804918c5a304ce625bdae58c7022060f8c2f879d1b165a2925831ed0ccdcc90ec82627ff05f40c886ae6f585d3ab80121029bae2d07732e491396bb8ba012101d39ba8c373d692075514ea0666e2cc147bd", "asm": "30450221009c5283714ed71a7c813c06dbf697bd044108297804918c5a304ce625bdae58c7022060f8c2f879d1b165a2925831ed0ccdcc90ec82627ff05f40c886ae6f585d3ab8[ALL] 029bae2d07732e491396bb8ba012101d39ba8c373d692075514ea0666e2cc147bd"}, "vout": 0, "txid": "ff68efeac2be8fe09691553e78223c5149cb6cb83a73f2688ff9ede02be3cdc3"}], "txid": "c8b026643fb36b62251b37692e9ab83f12e690ef50b6cc5c3f78adfa6964b309", "blocktime": 1537874412, "version": 1, "confirmations": 11467, "time": 1537874412, "locktime": 0, "vsize": 284, "size": 284}