{"hash": "c8b22e853d7599faaf663007779a48cd7592a29f4e99bbbc3b8480474d3524fb", "blockhash": "0000000000000000000baef3f32e3676a92c3b2e5da21b426e4f302fc371ce76", "vout": [{"scriptPubKey": {"type": "nulldata", "hex": "6a4c500000781d0001ad42223ae4f35bb39ba81a5c019d6ddc0f1b8ff117702940d64fa54d8eb2e23c00c15bb4cc6028b3d7279f80780a5baa1cff0614a1619937fb381d100759d4ba30d2c37bb011d97e02cf", "asm": "OP_RETURN 0000781d0001ad42223ae4f35bb39ba81a5c019d6ddc0f1b8ff117702940d64fa54d8eb2e23c00c15bb4cc6028b3d7279f80780a5baa1cff0614a1619937fb381d100759d4ba30d2c37bb011d97e02cf"}, "value": 0.0, "n": 0}, {"scriptPubKey": {"reqSigs": 1, "hex": "76a91423bba5661b55404cd1ecbda40e18a2ec0c65b6ff88ac", "addresses": ["14FwSbPaD4zc8Ek5ed2YBWqFYvDrjhxGkD"], "asm": "OP_DUP OP_HASH160 23bba5661b55404cd1ecbda40e18a2ec0c65b6ff OP_EQUALVERIFY OP_CHECKSIG", "type": "pubkeyhash"}, "value": 0.00580225, "n": 1}], "hex": "0100000001a460dd88af80058c233b201d720ece52db4738bd4c2a54c85100403a10c427ea010000006a473044022041ecf2202a1c0dfe7a1475fb23b8a2d50b19b57eccc99fe07295cb038f1bfb4d022028105cc2427c8c5c033bd53a926a493aaf084cd0d361096561d7f5a4e92b9fc101210390caf9caf024972be8cbe3051580ca8598be9ec0148ac7da973b3ddd41d051fcffffffff020000000000000000536a4c500000781d0001ad42223ae4f35bb39ba81a5c019d6ddc0f1b8ff117702940d64fa54d8eb2e23c00c15bb4cc6028b3d7279f80780a5baa1cff0614a1619937fb381d100759d4ba30d2c37bb011d97e02cf81da0800000000001976a91423bba5661b55404cd1ecbda40e18a2ec0c65b6ff88ac00000000", "vin": [{"sequence": 4294967295, "scriptSig": {"hex": "473044022041ecf2202a1c0dfe7a1475fb23b8a2d50b19b57eccc99fe07295cb038f1bfb4d022028105cc2427c8c5c033bd53a926a493aaf084cd0d361096561d7f5a4e92b9fc101210390caf9caf024972be8cbe3051580ca8598be9ec0148ac7da973b3ddd41d051fc", "asm": "3044022041ecf2202a1c0dfe7a1475fb23b8a2d50b19b57eccc99fe07295cb038f1bfb4d022028105cc2427c8c5c033bd53a926a493aaf084cd0d361096561d7f5a4e92b9fc1[ALL] 0390caf9caf024972be8cbe3051580ca8598be9ec0148ac7da973b3ddd41d051fc"}, "vout": 1, "txid": "ea27c4103a400051c8542a4cbd3847db52ce0e721d203b238c0580af88dd60a4"}], "txid": "c8b22e853d7599faaf663007779a48cd7592a29f4e99bbbc3b8480474d3524fb", "blocktime": 1537876114, "version": 1, "confirmations": 11460, "time": 1537876114, "locktime": 0, "vsize": 283, "size": 283}