{"hash": "e8af5ccd4b0c63396f63f93269cabf5fd522b9bfb4033404354cabc6eeabbb83", "blockhash": "000000000000000000022b45ed06c6f4ccd3cf7fb5ba4856ebd2e58215665228", "vout": [{"scriptPubKey": {"reqSigs": 1, "hex": "a9143f364f3de737c8a6d5dc7c37df9896bec7faa5f287", "addresses": ["37TFZ82UrNSTNxZcEm1pjZAZcDD3kyyjkg"], "asm": "OP_HASH160 3f364f3de737c8a6d5dc7c37df9896bec7faa5f2 OP_EQUAL", "type": "scripthash"}, "value": 0.00593, "n": 0}, {"scriptPubKey": {"reqSigs": 1, "hex": "a9146966b6c90e124c3d9a03ef6e1ebfb7f570b7809587", "addresses": ["3BJKvP16PFcUWv1QhUFzB9fM3vvMcQD8rU"], "asm": "OP_HASH160 6966b6c90e124c3d9a03ef6e1ebfb7f570b78095 OP_EQUAL", "type": "scripthash"}, "value": 3.15644738, "n": 1}], "hex": "0200000000010109e64158f90a6062fc8c88e897a03d665f581d60bdc5dcada036b0302a080a5e01000000171600143c26127bf7b0fa2b121d9353077bbb8de57c40ddffffffff02680c09000000000017a9143f364f3de737c8a6d5dc7c37df9896bec7faa5f287425bd0120000000017a9146966b6c90e124c3d9a03ef6e1ebfb7f570b780958702483045022100b097dc966f7e7647630ee1ab073e5c95bfad8c2036cefe60273697ac354522680220651ceea3e8e40ac2437066457d8c446f47fd45f49cc2e03df6bdd261de458fab01210303dd391b21ad61e68b823a4a509b422d18494bc28947d55949fe1623c1897fd500000000", "vin": [{"txinwitness": ["3045022100b097dc966f7e7647630ee1ab073e5c95bfad8c2036cefe60273697ac354522680220651ceea3e8e40ac2437066457d8c446f47fd45f49cc2e03df6bdd261de458fab01", "0303dd391b21ad61e68b823a4a509b422d18494bc28947d55949fe1623c1897fd5"], "sequence": 4294967295, "scriptSig": {"hex": "1600143c26127bf7b0fa2b121d9353077bbb8de57c40dd", "asm": "00143c26127bf7b0fa2b121d9353077bbb8de57c40dd"}, "vout": 1, "txid": "5e0a082a30b036a0addcc5bd601d585f663da097e8888cfc62600af95841e609"}], "txid": "c8b390c6f4ab31811bfdb11720903d20359ee0afb1464fd495a57be2d87d8845", "blocktime": 1537869901, "version": 2, "confirmations": 11522, "time": 1537869901, "locktime": 0, "vsize": 166, "size": 248}