{"hash": "c8b3c21c4926ab6ff5149449656d185ac4ccabd053a63d917561c5849282d3ad", "blockhash": "0000000000000000001e0dab787dd257d1dbfcb92a98c2207d5e1078be1f4165", "vout": [{"scriptPubKey": {"reqSigs": 1, "hex": "76a914f7e918df1120243abf37ada20fe0276c271436d588ac", "addresses": ["1Pbq9Fs9ngwb2tfu6uS2WP4g2tEeCCb4RR"], "asm": "OP_DUP OP_HASH160 f7e918df1120243abf37ada20fe0276c271436d5 OP_EQUALVERIFY OP_CHECKSIG", "type": "pubkeyhash"}, "value": 0.00208097, "n": 0}, {"scriptPubKey": {"reqSigs": 1, "hex": "76a9144158bab25bb597d54b736ea1dadfd0ee6d7ec1e388ac", "addresses": ["16xXDVHfRKGzQRNov48urDZn6D1VsjyYkQ"], "asm": "OP_DUP OP_HASH160 4158bab25bb597d54b736ea1dadfd0ee6d7ec1e3 OP_EQUALVERIFY OP_CHECKSIG", "type": "pubkeyhash"}, "value": 0.03514482, "n": 1}], "hex": "0100000003bce10ae8ed4efada877ddf590108eef48ff8b8a54e8c8dd97a88d0b9383fff08000000006b483045022100937b4589648e2a355d2d7c08e0df2ca9dc48c37e42f424a4cc840bd9baea12cc02202a98cb9e4e78dcc1477e87ae5184b63b400993fe95660f6c2c77826fa830d2d4012103a820dddc62abf9c73404595598f94d9dea240b2c0f5914b618fbdc8b075d8a6fffffffff8c562439b8a407bf38e33b0270ad31078730b91c882fd167d2e67ca0ec14db16000000006a473044022071a1660f006f9c157286dc1dbbe69dfa01fe2dfedd386d8c055eacd300fda8bc02200c577e60435cbe10e6d71e0222cfb8535aa6ede3538ffa8a346ffffee3089830012103a820dddc62abf9c73404595598f94d9dea240b2c0f5914b618fbdc8b075d8a6fffffffff6caf9b805ebaee00d7e1a5321d5b7a4d18699d91048c6d6d0dc2eba728a74140000000006b483045022100825217dd8c9ce98df258cedcfc3054aedead2fecb07209f6d3e65117c5a0330b0220076911d5fda8006d238bb2ea3fe02f61418eed49cf9fd8c7b367fadfc33e0aea012102a6f3922338ad3e2b4a8c9c89484ce11f964546bc946b70cd9bec9847451a0f7effffffff02e12c0300000000001976a914f7e918df1120243abf37ada20fe0276c271436d588ac72a03500000000001976a9144158bab25bb597d54b736ea1dadfd0ee6d7ec1e388ac00000000", "vin": [{"sequence": 4294967295, "scriptSig": {"hex": "483045022100937b4589648e2a355d2d7c08e0df2ca9dc48c37e42f424a4cc840bd9baea12cc02202a98cb9e4e78dcc1477e87ae5184b63b400993fe95660f6c2c77826fa830d2d4012103a820dddc62abf9c73404595598f94d9dea240b2c0f5914b618fbdc8b075d8a6f", "asm": "3045022100937b4589648e2a355d2d7c08e0df2ca9dc48c37e42f424a4cc840bd9baea12cc02202a98cb9e4e78dcc1477e87ae5184b63b400993fe95660f6c2c77826fa830d2d4[ALL] 03a820dddc62abf9c73404595598f94d9dea240b2c0f5914b618fbdc8b075d8a6f"}, "vout": 0, "txid": "08ff3f38b9d0887ad98d8c4ea5b8f88ff4ee080159df7d87dafa4eede80ae1bc"}, {"sequence": 4294967295, "scriptSig": {"hex": "473044022071a1660f006f9c157286dc1dbbe69dfa01fe2dfedd386d8c055eacd300fda8bc02200c577e60435cbe10e6d71e0222cfb8535aa6ede3538ffa8a346ffffee3089830012103a820dddc62abf9c73404595598f94d9dea240b2c0f5914b618fbdc8b075d8a6f", "asm": "3044022071a1660f006f9c157286dc1dbbe69dfa01fe2dfedd386d8c055eacd300fda8bc02200c577e60435cbe10e6d71e0222cfb8535aa6ede3538ffa8a346ffffee3089830[ALL] 03a820dddc62abf9c73404595598f94d9dea240b2c0f5914b618fbdc8b075d8a6f"}, "vout": 0, "txid": "16db14eca07ce6d267d12f881cb930870731ad70023be338bf07a4b83924568c"}, {"sequence": 4294967295, "scriptSig": {"hex": "483045022100825217dd8c9ce98df258cedcfc3054aedead2fecb07209f6d3e65117c5a0330b0220076911d5fda8006d238bb2ea3fe02f61418eed49cf9fd8c7b367fadfc33e0aea012102a6f3922338ad3e2b4a8c9c89484ce11f964546bc946b70cd9bec9847451a0f7e", "asm": "3045022100825217dd8c9ce98df258cedcfc3054aedead2fecb07209f6d3e65117c5a0330b0220076911d5fda8006d238bb2ea3fe02f61418eed49cf9fd8c7b367fadfc33e0aea[ALL] 02a6f3922338ad3e2b4a8c9c89484ce11f964546bc946b70cd9bec9847451a0f7e"}, "vout": 0, "txid": "4041a728a7ebc20d6d6d8c04919d69184d7a5b1d32a5e1d700eeba5e809baf6c"}], "txid": "c8b3c21c4926ab6ff5149449656d185ac4ccabd053a63d917561c5849282d3ad", "blocktime": 1537872475, "version": 1, "confirmations": 11486, "time": 1537872475, "locktime": 0, "vsize": 521, "size": 521}