{"hash": "6be6c0c9e230e287684e731580e6a70168ec568a88f3dd9ae1499605f0808d2f", "blockhash": "0000000000000000000dcc0f55137456b1a82d3642486a52398922ac4d620174", "vout": [{"scriptPubKey": {"reqSigs": 1, "hex": "0014816aee48ee41d984c0ff035ccf4d442fede53c89", "addresses": ["bc1qs94wuj8wg8vcfs8lqdwv7n2y9lk720yf7c8ff4"], "asm": "0 816aee48ee41d984c0ff035ccf4d442fede53c89", "type": "witness_v0_keyhash"}, "value": 0.00020323, "n": 0}, {"scriptPubKey": {"reqSigs": 1, "hex": "a9149398c397a8bd9322a52fe9da2fdecc5d9921ad9687", "addresses": ["3F9SFySVFBs83tpMNabSwD4XgR7iN8B8h6"], "asm": "OP_HASH160 9398c397a8bd9322a52fe9da2fdecc5d9921ad96 OP_EQUAL", "type": "scripthash"}, "value": 0.175, "n": 1}], "hex": "01000000000101116659b7ed128f18420cd9b957ed5cd9583e9541771bdd8d3a6de777708f97f60100000000ffffffff02634f000000000000160014816aee48ee41d984c0ff035ccf4d442fede53c8960070b010000000017a9149398c397a8bd9322a52fe9da2fdecc5d9921ad968702483045022100a4f4ff4543a5bc0b550e54b84fa4aa5054e23b37bd8bfc5f67fc6135051fd56802203d19b4a56bc8e42c7f04ed7c233a65409a7c39e6c614d7509c5f703a63282a4b012102912720614eeb18292d9c20fd78509452a71ed107f5bcd793b019df8ae17733d500000000", "vin": [{"txinwitness": ["3045022100a4f4ff4543a5bc0b550e54b84fa4aa5054e23b37bd8bfc5f67fc6135051fd56802203d19b4a56bc8e42c7f04ed7c233a65409a7c39e6c614d7509c5f703a63282a4b01", "02912720614eeb18292d9c20fd78509452a71ed107f5bcd793b019df8ae17733d5"], "sequence": 4294967295, "scriptSig": {"hex": "", "asm": ""}, "vout": 1, "txid": "f6978f7077e76d3a8ddd1b7741953e58d95ced57b9d90c42188f12edb7596611"}], "txid": "c8b720bdbd3d997fee50fbc07f7018f88c00c568daca269cd085dfa1dd542d61", "blocktime": 1537870268, "version": 1, "confirmations": 11518, "time": 1537870268, "locktime": 0, "vsize": 142, "size": 224}