{"hash": "c8c0e7b2b9ae86ff325ddaacb7d4cc60516cd86a568af6bf6bf029b0adc7f2a2", "blockhash": "0000000000000000001e0dab787dd257d1dbfcb92a98c2207d5e1078be1f4165", "vout": [{"scriptPubKey": {"reqSigs": 1, "hex": "76a9140f727eacd920b1e8a01947c3ede66a7fcd24646188ac", "addresses": ["12QgJ7oo7HJLXt1oRa8nP4QW6XJRkTHJoS"], "asm": "OP_DUP OP_HASH160 0f727eacd920b1e8a01947c3ede66a7fcd246461 OP_EQUALVERIFY OP_CHECKSIG", "type": "pubkeyhash"}, "value": 0.01654853, "n": 0}, {"scriptPubKey": {"reqSigs": 1, "hex": "76a914aca3c00903682a86047b5da982eb9908b75ca41288ac", "addresses": ["1GjqPZ89mQrrJJi1ukFvZgdEMhdnUoJ4fd"], "asm": "OP_DUP OP_HASH160 aca3c00903682a86047b5da982eb9908b75ca412 OP_EQUALVERIFY OP_CHECKSIG", "type": "pubkeyhash"}, "value": 0.2889924, "n": 1}], "hex": "0100000004eee198b46ffd39038c9d1128becaced9b4360ab48a1b0a918ac58b0eb8ecf2651d0000006a473044022030de3e8ffd4edb5d428013e99129bbf61649f8d09d94630d2d0b6f162cdd933602203bd3901b5394e7c5e9effdb1808c35ce2d84c2c166be33ed60d91c288c44c8e401210249b85d3356d807ab6db8121de6699fcaec5f932bca604fd02db0f76aa5fc6830fffffffff4663880de7a07c9110718e6561989ea54fae54d4d91b0dd319a0263787dfd46010000006a473044022039b697e5dadfd4c3615a74683d9729508b87236f969952c7dc9ee25189be82c202204f1b5cc27b397925a13a157c7c942fcfc60eb6869cfe49d4267666c84ff86e430121021c066666a49f36a84cdc545361f58c61a53c0aefc1a3c3bc0b8a6943df0c3365ffffffffcf4591e50fac9df52e5c547134371d25c26531376e3ff9c829ad58004a273728010000006a473044022019791ea52660beb452d31e7f85c4de3abe4507586a331f4d5ad66757b5f1e1cb022075b920e9db2a23a7372e0faaf29324f88763c0bb15d145a0efd0175e8b6d906e0121021c066666a49f36a84cdc545361f58c61a53c0aefc1a3c3bc0b8a6943df0c3365ffffffffc3e3c5da1e4f5011913498c84590a119458aae48882f834c742b5e2e291c05a3010000006a473044022028a393e77cae3f9732f9008687510b5cea8db97ef0689b33eef270ab1a63319b02207d28b94d9dae8b21344d39a423acaf2464e2bd0e2bf8265dec80345d0c7276d20121025f44bd87fb37d8502e9704747b1dc7a23e810281fb8980e650b73e86f8d8d9ddffffffff0245401900000000001976a9140f727eacd920b1e8a01947c3ede66a7fcd24646188aca8f7b801000000001976a914aca3c00903682a86047b5da982eb9908b75ca41288ac00000000", "vin": [{"sequence": 4294967295, "scriptSig": {"hex": "473044022030de3e8ffd4edb5d428013e99129bbf61649f8d09d94630d2d0b6f162cdd933602203bd3901b5394e7c5e9effdb1808c35ce2d84c2c166be33ed60d91c288c44c8e401210249b85d3356d807ab6db8121de6699fcaec5f932bca604fd02db0f76aa5fc6830", "asm": "3044022030de3e8ffd4edb5d428013e99129bbf61649f8d09d94630d2d0b6f162cdd933602203bd3901b5394e7c5e9effdb1808c35ce2d84c2c166be33ed60d91c288c44c8e4[ALL] 0249b85d3356d807ab6db8121de6699fcaec5f932bca604fd02db0f76aa5fc6830"}, "vout": 29, "txid": "65f2ecb80e8bc58a910a1b8ab40a36b4d9cecabe28119d8c0339fd6fb498e1ee"}, {"sequence": 4294967295, "scriptSig": {"hex": "473044022039b697e5dadfd4c3615a74683d9729508b87236f969952c7dc9ee25189be82c202204f1b5cc27b397925a13a157c7c942fcfc60eb6869cfe49d4267666c84ff86e430121021c066666a49f36a84cdc545361f58c61a53c0aefc1a3c3bc0b8a6943df0c3365", "asm": "3044022039b697e5dadfd4c3615a74683d9729508b87236f969952c7dc9ee25189be82c202204f1b5cc27b397925a13a157c7c942fcfc60eb6869cfe49d4267666c84ff86e43[ALL] 021c066666a49f36a84cdc545361f58c61a53c0aefc1a3c3bc0b8a6943df0c3365"}, "vout": 1, "txid": "46fd7d7863029a31ddb0914d4de5fa54ea891956e6180711c9077ade803866f4"}, {"sequence": 4294967295, "scriptSig": {"hex": "473044022019791ea52660beb452d31e7f85c4de3abe4507586a331f4d5ad66757b5f1e1cb022075b920e9db2a23a7372e0faaf29324f88763c0bb15d145a0efd0175e8b6d906e0121021c066666a49f36a84cdc545361f58c61a53c0aefc1a3c3bc0b8a6943df0c3365", "asm": "3044022019791ea52660beb452d31e7f85c4de3abe4507586a331f4d5ad66757b5f1e1cb022075b920e9db2a23a7372e0faaf29324f88763c0bb15d145a0efd0175e8b6d906e[ALL] 021c066666a49f36a84cdc545361f58c61a53c0aefc1a3c3bc0b8a6943df0c3365"}, "vout": 1, "txid": "2837274a0058ad29c8f93f6e373165c2251d373471545c2ef59dac0fe59145cf"}, {"sequence": 4294967295, "scriptSig": {"hex": "473044022028a393e77cae3f9732f9008687510b5cea8db97ef0689b33eef270ab1a63319b02207d28b94d9dae8b21344d39a423acaf2464e2bd0e2bf8265dec80345d0c7276d20121025f44bd87fb37d8502e9704747b1dc7a23e810281fb8980e650b73e86f8d8d9dd", "asm": "3044022028a393e77cae3f9732f9008687510b5cea8db97ef0689b33eef270ab1a63319b02207d28b94d9dae8b21344d39a423acaf2464e2bd0e2bf8265dec80345d0c7276d2[ALL] 025f44bd87fb37d8502e9704747b1dc7a23e810281fb8980e650b73e86f8d8d9dd"}, "vout": 1, "txid": "a3051c292e5e2b744c832f8848ae8a4519a19045c898349111504f1edac5e3c3"}], "txid": "c8c0e7b2b9ae86ff325ddaacb7d4cc60516cd86a568af6bf6bf029b0adc7f2a2", "blocktime": 1537872475, "version": 1, "confirmations": 11487, "time": 1537872475, "locktime": 0, "vsize": 666, "size": 666}