{"hash": "b95f8567a4fb378bd3d650b67e91fdc018bc5126a9357ba1117209810a94ad59", "blockhash": "0000000000000000001cda96e906b7601b7a6fb1a3b62bca570a9e5d8f4b3de1", "vout": [{"scriptPubKey": {"reqSigs": 1, "hex": "a914b728aef86141ac2f07b46091ad022d5a4792427f87", "addresses": ["3JPUKPMjomX9uFbm8hVNUUcM2dtShzDw3C"], "asm": "OP_HASH160 b728aef86141ac2f07b46091ad022d5a4792427f OP_EQUAL", "type": "scripthash"}, "value": 6e-05, "n": 0}, {"scriptPubKey": {"reqSigs": 1, "hex": "a91449d7e96499e76d96ef877a2fcb98823c8bccba2187", "addresses": ["38RTuMXR3rjgmqC2TwiJHrCLzc9nbGoNw7"], "asm": "OP_HASH160 49d7e96499e76d96ef877a2fcb98823c8bccba21 OP_EQUAL", "type": "scripthash"}, "value": 0.00042814, "n": 1}], "hex": "01000000000101e2b87dc89b3c1b226f337a42aacfbd0587c1fd5c5f4ae432db14fccf57b7626300000000232200202a9a1aa43dd52fca361d638a9bb1c7c7a7b32bed598a04104268b8ecbdbfe96fffffffff02701700000000000017a914b728aef86141ac2f07b46091ad022d5a4792427f873ea700000000000017a91449d7e96499e76d96ef877a2fcb98823c8bccba218704004830450221009a530c022229f9fbd49cc81b04e9572d8de8f42186e40858443aadca036a0a9d02205db4678a065fe03e61d5aa9c2b64c4a2786437c5a516e7e220b5e0c1a14a324a014830450221009fc8299e6eb81245ff58a47019f1c3960adb9aa3db6861c85b84bb08ee1fbcbc022025cfdca2aaa26103ad374e059be6a05210ccf8f6459b0bd109a0efa23ee831110147522103ea39afa13bfc0b16775c1ffdd58dbb69a77441d8211cfd208f16ac7437c451312103338f346cab6ba87fe940591a03ac234be06520c5ab386d4b6632e8eef0d0db7652ae00000000", "vin": [{"txinwitness": ["", "30450221009a530c022229f9fbd49cc81b04e9572d8de8f42186e40858443aadca036a0a9d02205db4678a065fe03e61d5aa9c2b64c4a2786437c5a516e7e220b5e0c1a14a324a01", "30450221009fc8299e6eb81245ff58a47019f1c3960adb9aa3db6861c85b84bb08ee1fbcbc022025cfdca2aaa26103ad374e059be6a05210ccf8f6459b0bd109a0efa23ee8311101", "522103ea39afa13bfc0b16775c1ffdd58dbb69a77441d8211cfd208f16ac7437c451312103338f346cab6ba87fe940591a03ac234be06520c5ab386d4b6632e8eef0d0db7652ae"], "sequence": 4294967295, "scriptSig": {"hex": "2200202a9a1aa43dd52fca361d638a9bb1c7c7a7b32bed598a04104268b8ecbdbfe96f", "asm": "00202a9a1aa43dd52fca361d638a9bb1c7c7a7b32bed598a04104268b8ecbdbfe96f"}, "vout": 0, "txid": "6362b757cffc14db32e44a5f5cfdc18705bdcfaa427a336f221b3c9bc87db8e2"}], "txid": "c8c389b3e4585583ce8d9fe011f2423dc75401e656792444281b13ca2b7cdbf4", "blocktime": 1537873282, "version": 1, "confirmations": 11485, "time": 1537873282, "locktime": 0, "vsize": 206, "size": 372}