{"hash": "c8d047e3988db27b005d6784b4e29ed64c8906c1c5e8dc0de7c2f9e4d39440a1", "blockhash": "00000000000000000004ffacab907a6b429b9a5745fa0b75af4234bf69dd7176", "vout": [{"scriptPubKey": {"reqSigs": 1, "hex": "76a914ccb27650ebe5448456862d0361bcda45ebc5fe7e88ac", "addresses": ["1KfLduM4uRPgmgyrmKrZ1JQtEGTb3BwkYv"], "asm": "OP_DUP OP_HASH160 ccb27650ebe5448456862d0361bcda45ebc5fe7e OP_EQUALVERIFY OP_CHECKSIG", "type": "pubkeyhash"}, "value": 0.02095349, "n": 0}, {"scriptPubKey": {"reqSigs": 1, "hex": "76a914ec9bfce70884fcf31776ded9a153186dd268772388ac", "addresses": ["1Na5LW5NFWHqYWzmNqn3cJCpCmXpSG3TD4"], "asm": "OP_DUP OP_HASH160 ec9bfce70884fcf31776ded9a153186dd2687723 OP_EQUALVERIFY OP_CHECKSIG", "type": "pubkeyhash"}, "value": 0.0343728, "n": 1}], "hex": "0100000002041c5c0e99d8d2a666a3283469d6d467e974d726a0214beaab8ec6dcf0efd663180000006b483045022100bc7463acf1df4feaf7e7f855b8e88845989abb29f7bf847b9db9a6eff090437802207bc1381fce32ae8cf4b18221fcf8b86d0dc660d922638f64f1294bab887dfbad01210284c9dafaa277abc9404e6a9698784636aaac0be716f34c8252f618bc79c3006effffffff6b701732df33e76fed6802401d4a88c71061252cae75459d464747087864f2f3000000006b483045022100d762af24d35751c8ff6e7dd407dab6d12353b6b4225666f70382485e53ecf9b6022056596915ee60bcd063d33c7c0f5a357e28afec45f9d9c6a303852cfa3c55bb9e01210284c9dafaa277abc9404e6a9698784636aaac0be716f34c8252f618bc79c3006effffffff02f5f81f00000000001976a914ccb27650ebe5448456862d0361bcda45ebc5fe7e88ace0723400000000001976a914ec9bfce70884fcf31776ded9a153186dd268772388ac00000000", "vin": [{"sequence": 4294967295, "scriptSig": {"hex": "483045022100bc7463acf1df4feaf7e7f855b8e88845989abb29f7bf847b9db9a6eff090437802207bc1381fce32ae8cf4b18221fcf8b86d0dc660d922638f64f1294bab887dfbad01210284c9dafaa277abc9404e6a9698784636aaac0be716f34c8252f618bc79c3006e", "asm": "3045022100bc7463acf1df4feaf7e7f855b8e88845989abb29f7bf847b9db9a6eff090437802207bc1381fce32ae8cf4b18221fcf8b86d0dc660d922638f64f1294bab887dfbad[ALL] 0284c9dafaa277abc9404e6a9698784636aaac0be716f34c8252f618bc79c3006e"}, "vout": 24, "txid": "63d6eff0dcc68eabea4b21a026d774e967d4d6693428a366a6d2d8990e5c1c04"}, {"sequence": 4294967295, "scriptSig": {"hex": "483045022100d762af24d35751c8ff6e7dd407dab6d12353b6b4225666f70382485e53ecf9b6022056596915ee60bcd063d33c7c0f5a357e28afec45f9d9c6a303852cfa3c55bb9e01210284c9dafaa277abc9404e6a9698784636aaac0be716f34c8252f618bc79c3006e", "asm": "3045022100d762af24d35751c8ff6e7dd407dab6d12353b6b4225666f70382485e53ecf9b6022056596915ee60bcd063d33c7c0f5a357e28afec45f9d9c6a303852cfa3c55bb9e[ALL] 0284c9dafaa277abc9404e6a9698784636aaac0be716f34c8252f618bc79c3006e"}, "vout": 0, "txid": "f3f26478084747469d4575ae2c256110c7884a1d400268ed6fe733df3217706b"}], "txid": "c8d047e3988db27b005d6784b4e29ed64c8906c1c5e8dc0de7c2f9e4d39440a1", "blocktime": 1537875543, "version": 1, "confirmations": 11464, "time": 1537875543, "locktime": 0, "vsize": 374, "size": 374}