{"hash": "c8d619e89f02448fe9ff0031a1214be64e2b61fbd67df4df0b8b663c12484c73", "blockhash": "0000000000000000001f76057863aec43deb6fa401d9628bb513d65a8098bfab", "vout": [{"scriptPubKey": {"reqSigs": 1, "hex": "a914252f57960db91d5150a1ac8d7de4c8b45fca2f4487", "addresses": ["355de2j6zJkSws3GLMvHFzRF78qk7sxtp1"], "asm": "OP_HASH160 252f57960db91d5150a1ac8d7de4c8b45fca2f44 OP_EQUAL", "type": "scripthash"}, "value": 0.05, "n": 0}, {"scriptPubKey": {"reqSigs": 1, "hex": "76a914ddea1458abe2b9c8197a1573a72b31b85f2ba11188ac", "addresses": ["1MENkXGHUM5A7sphcCFAbzFymXc4hgGAYf"], "asm": "OP_DUP OP_HASH160 ddea1458abe2b9c8197a1573a72b31b85f2ba111 OP_EQUALVERIFY OP_CHECKSIG", "type": "pubkeyhash"}, "value": 0.09998644, "n": 1}], "hex": "010000000147c5574ab5fa7b2f5a28239518382043e7dec2a2bd17213447b67d3cbbc75d00000000006b483045022100d7e4e286e8d781c246dc8bee11fc83c695e7da3c809ce42a5666e4aa4041b9cb022011c29b483c4fbe8898a9dc4704e7f4bf678f3f48179f5949e926741ae1d2503c012102ffdfb3baf49fdd977960dbe98de9cbccf9fae57b1c5e00c3418a8982f29cff7dffffffff02404b4c000000000017a914252f57960db91d5150a1ac8d7de4c8b45fca2f448734919800000000001976a914ddea1458abe2b9c8197a1573a72b31b85f2ba11188ac00000000", "vin": [{"sequence": 4294967295, "scriptSig": {"hex": "483045022100d7e4e286e8d781c246dc8bee11fc83c695e7da3c809ce42a5666e4aa4041b9cb022011c29b483c4fbe8898a9dc4704e7f4bf678f3f48179f5949e926741ae1d2503c012102ffdfb3baf49fdd977960dbe98de9cbccf9fae57b1c5e00c3418a8982f29cff7d", "asm": "3045022100d7e4e286e8d781c246dc8bee11fc83c695e7da3c809ce42a5666e4aa4041b9cb022011c29b483c4fbe8898a9dc4704e7f4bf678f3f48179f5949e926741ae1d2503c[ALL] 02ffdfb3baf49fdd977960dbe98de9cbccf9fae57b1c5e00c3418a8982f29cff7d"}, "vout": 0, "txid": "005dc7bb3c7db647342117bda2c2dee7432038189523285a2f7bfab54a57c547"}], "txid": "c8d619e89f02448fe9ff0031a1214be64e2b61fbd67df4df0b8b663c12484c73", "blocktime": 1537873891, "version": 1, "confirmations": 11478, "time": 1537873891, "locktime": 0, "vsize": 224, "size": 224}