{"hash": "c8d8767ae6f285cf01992a04e31b82c69aa2081c4afc0e2712bc8f6be4174fa1", "blockhash": "0000000000000000001cda96e906b7601b7a6fb1a3b62bca570a9e5d8f4b3de1", "vout": [{"scriptPubKey": {"reqSigs": 1, "hex": "76a9149fe7d4cdbab61d8a0d962f095fc73653bde6089288ac", "addresses": ["1FaWARLkF7PmqsnrxemGARaFvnims7TH6M"], "asm": "OP_DUP OP_HASH160 9fe7d4cdbab61d8a0d962f095fc73653bde60892 OP_EQUALVERIFY OP_CHECKSIG", "type": "pubkeyhash"}, "value": 0.12893625, "n": 0}], "hex": "01000000046902cea20d190a4cbeaa9181fd07d7849a8d7ead0d43b349056ebe1b16d22e16000000006b483045022100b12db4d1b1f42032059ab4cfb144cb492098af08fc017d2ec74073cb543a374402201f92c2c14e19777a7c5c4d8e741249693e8d623aee9bd3df86b6524be4df18a5012102ccf80680d7e21bd70b8d8f379d52160c4c7472e4f45b7df59592ede42483a1c1ffffffff87b362ff4539a153a467e7674808c4ff65b23641a0a6685e940ea8975bed82aa000000006b48304502210095041a36e80f7f67633189d08d613b68f4da9d850d70523796739e681861f746022019e457762d482211b3f7c42a9fe99cfa34d09f0e6bafedc4c1965a88ab7d7575012102ccf80680d7e21bd70b8d8f379d52160c4c7472e4f45b7df59592ede42483a1c1ffffffff03004ce540020c706bc85c3c01139b061e6078ad768667c8955982fd253160b4000000006b4830450221008e9b82cada47c100ff51e5c8b8201e33f22cdb6ac70c7bb273e1ad5d0f3ca3b802207ce67d74294c2df229bd3e504fd2ffe23c898a07faafed348a26f41e4f5bdeaf012102ccf80680d7e21bd70b8d8f379d52160c4c7472e4f45b7df59592ede42483a1c1ffffffffd06cde75f85f50ecc87b78a2e360ee53024424e7d2e62ba5f3078c933d5470b9000000006a4730440220519c39e036e20863f49ac49c2cdfd862f8fa12bf4bf2b46471efa2a38588d95b02200a8e1d7bb4dff9b699303d3acc3d29fe629cd9a5d594e5d3b10c3f42b37d1ec7012102ccf80680d7e21bd70b8d8f379d52160c4c7472e4f45b7df59592ede42483a1c1ffffffff01b9bdc400000000001976a9149fe7d4cdbab61d8a0d962f095fc73653bde6089288ac00000000", "vin": [{"sequence": 4294967295, "scriptSig": {"hex": "483045022100b12db4d1b1f42032059ab4cfb144cb492098af08fc017d2ec74073cb543a374402201f92c2c14e19777a7c5c4d8e741249693e8d623aee9bd3df86b6524be4df18a5012102ccf80680d7e21bd70b8d8f379d52160c4c7472e4f45b7df59592ede42483a1c1", "asm": "3045022100b12db4d1b1f42032059ab4cfb144cb492098af08fc017d2ec74073cb543a374402201f92c2c14e19777a7c5c4d8e741249693e8d623aee9bd3df86b6524be4df18a5[ALL] 02ccf80680d7e21bd70b8d8f379d52160c4c7472e4f45b7df59592ede42483a1c1"}, "vout": 0, "txid": "162ed2161bbe6e0549b3430dad7e8d9a84d707fd8191aabe4c0a190da2ce0269"}, {"sequence": 4294967295, "scriptSig": {"hex": "48304502210095041a36e80f7f67633189d08d613b68f4da9d850d70523796739e681861f746022019e457762d482211b3f7c42a9fe99cfa34d09f0e6bafedc4c1965a88ab7d7575012102ccf80680d7e21bd70b8d8f379d52160c4c7472e4f45b7df59592ede42483a1c1", "asm": "304502210095041a36e80f7f67633189d08d613b68f4da9d850d70523796739e681861f746022019e457762d482211b3f7c42a9fe99cfa34d09f0e6bafedc4c1965a88ab7d7575[ALL] 02ccf80680d7e21bd70b8d8f379d52160c4c7472e4f45b7df59592ede42483a1c1"}, "vout": 0, "txid": "aa82ed5b97a80e945e68a6a04136b265ffc4084867e767a453a13945ff62b387"}, {"sequence": 4294967295, "scriptSig": {"hex": "4830450221008e9b82cada47c100ff51e5c8b8201e33f22cdb6ac70c7bb273e1ad5d0f3ca3b802207ce67d74294c2df229bd3e504fd2ffe23c898a07faafed348a26f41e4f5bdeaf012102ccf80680d7e21bd70b8d8f379d52160c4c7472e4f45b7df59592ede42483a1c1", "asm": "30450221008e9b82cada47c100ff51e5c8b8201e33f22cdb6ac70c7bb273e1ad5d0f3ca3b802207ce67d74294c2df229bd3e504fd2ffe23c898a07faafed348a26f41e4f5bdeaf[ALL] 02ccf80680d7e21bd70b8d8f379d52160c4c7472e4f45b7df59592ede42483a1c1"}, "vout": 0, "txid": "b4603125fd825995c8678676ad78601e069b13013c5cc86b700c0240e54c0003"}, {"sequence": 4294967295, "scriptSig": {"hex": "4730440220519c39e036e20863f49ac49c2cdfd862f8fa12bf4bf2b46471efa2a38588d95b02200a8e1d7bb4dff9b699303d3acc3d29fe629cd9a5d594e5d3b10c3f42b37d1ec7012102ccf80680d7e21bd70b8d8f379d52160c4c7472e4f45b7df59592ede42483a1c1", "asm": "30440220519c39e036e20863f49ac49c2cdfd862f8fa12bf4bf2b46471efa2a38588d95b02200a8e1d7bb4dff9b699303d3acc3d29fe629cd9a5d594e5d3b10c3f42b37d1ec7[ALL] 02ccf80680d7e21bd70b8d8f379d52160c4c7472e4f45b7df59592ede42483a1c1"}, "vout": 0, "txid": "b970543d938c07f3a52be6d2e724440253ee60e3a2787bc8ec505ff875de6cd0"}], "txid": "c8d8767ae6f285cf01992a04e31b82c69aa2081c4afc0e2712bc8f6be4174fa1", "blocktime": 1537873282, "version": 1, "confirmations": 11484, "time": 1537873282, "locktime": 0, "vsize": 635, "size": 635}