{"hash": "c8d94685cc71b8e189668b4d488d7ce615b0d8484067ab77456d00940e0c83a6", "blockhash": "0000000000000000000baef3f32e3676a92c3b2e5da21b426e4f302fc371ce76", "vout": [{"scriptPubKey": {"reqSigs": 1, "hex": "76a9141099e16a40706715112e9967ec40f47d1ec3a10b88ac", "addresses": ["12Wn9so7yqY6txsKxoZ3H2BHGXRpvgBYie"], "asm": "OP_DUP OP_HASH160 1099e16a40706715112e9967ec40f47d1ec3a10b OP_EQUALVERIFY OP_CHECKSIG", "type": "pubkeyhash"}, "value": 0.0063344, "n": 0}, {"scriptPubKey": {"type": "nulldata", "hex": "6a4c500000783500013bc97412f834aee962e8564f27b7256b4774d339f6019d6ddc0f1b8ff11788667ed6834b1ca9f5f6e90a8b6dfa855baa202a06158e6013eaa6ce1d100759d4ba30d2c37bb011d97e02cf", "asm": "OP_RETURN 0000783500013bc97412f834aee962e8564f27b7256b4774d339f6019d6ddc0f1b8ff11788667ed6834b1ca9f5f6e90a8b6dfa855baa202a06158e6013eaa6ce1d100759d4ba30d2c37bb011d97e02cf"}, "value": 0.0, "n": 1}], "hex": "0100000001fd217d60bc5e2032cd813c85494bcb961d295a8a7cba80f7d2a4ce74f57049ab000000006b483045022100fda83642f717a7dae2866903aa5156c4d9d21460ac820b94b5e26412a6b0b88b022035bc04de5bbf4d615bce18bd4d7aea373bf67a2ff53d59f1104669f49cf994e3012103acef8dce8619a4a429319fc7156cc8aeb9e0ec72256a22728634e0349fbc6e02ffffffff0260aa0900000000001976a9141099e16a40706715112e9967ec40f47d1ec3a10b88ac0000000000000000536a4c500000783500013bc97412f834aee962e8564f27b7256b4774d339f6019d6ddc0f1b8ff11788667ed6834b1ca9f5f6e90a8b6dfa855baa202a06158e6013eaa6ce1d100759d4ba30d2c37bb011d97e02cf00000000", "vin": [{"sequence": 4294967295, "scriptSig": {"hex": "483045022100fda83642f717a7dae2866903aa5156c4d9d21460ac820b94b5e26412a6b0b88b022035bc04de5bbf4d615bce18bd4d7aea373bf67a2ff53d59f1104669f49cf994e3012103acef8dce8619a4a429319fc7156cc8aeb9e0ec72256a22728634e0349fbc6e02", "asm": "3045022100fda83642f717a7dae2866903aa5156c4d9d21460ac820b94b5e26412a6b0b88b022035bc04de5bbf4d615bce18bd4d7aea373bf67a2ff53d59f1104669f49cf994e3[ALL] 03acef8dce8619a4a429319fc7156cc8aeb9e0ec72256a22728634e0349fbc6e02"}, "vout": 0, "txid": "ab4970f574cea4d2f780ba7c8a5a291d96cb4b49853c81cd32205ebc607d21fd"}], "txid": "c8d94685cc71b8e189668b4d488d7ce615b0d8484067ab77456d00940e0c83a6", "blocktime": 1537876114, "version": 1, "confirmations": 11460, "time": 1537876114, "locktime": 0, "vsize": 284, "size": 284}