{"hash": "c8dc7409c456412dadafe5df63beda6bc53fa4f27f4f7cd4c575221c8c2c1f9f", "blockhash": "0000000000000000000e13cef7c366c0283d82e591d1acd082e914b08063cdf1", "vout": [{"scriptPubKey": {"reqSigs": 1, "hex": "a91426727928eee1736450560c4dbf26ea401522a08687", "addresses": ["35CJjaNvu2KfPTRC7NRvJy6AiA8BWBENzD"], "asm": "OP_HASH160 26727928eee1736450560c4dbf26ea401522a086 OP_EQUAL", "type": "scripthash"}, "value": 0.00023902, "n": 0}, {"scriptPubKey": {"reqSigs": 1, "hex": "76a9140396c750f15f6e2aea1495bee284490a42c197e788ac", "addresses": ["1KyeraaoWhQ64rPgxTRNfHXJkNRkoxqhi"], "asm": "OP_DUP OP_HASH160 0396c750f15f6e2aea1495bee284490a42c197e7 OP_EQUALVERIFY OP_CHECKSIG", "type": "pubkeyhash"}, "value": 0.21141041, "n": 1}], "hex": "02000000012d027bb2e9ce019f63ae7413c1be19c97df95259e00a8e57ff80f1d5be74c912010000006b483045022100d7dcb2e420f68f5a1d42e790e0785e2f8ea36803fad209e99407222e6bc450150220272e8673b3c210cc32e23f3c0e813c49d35749b2cd09faf0502928a09dbcd9400121037aed202cc0420c61a4ecd5ba5d8ff2b6263caec8e7242e78157405b8890aaf5dffffffff025e5d00000000000017a91426727928eee1736450560c4dbf26ea401522a0868731964201000000001976a9140396c750f15f6e2aea1495bee284490a42c197e788ac00000000", "vin": [{"sequence": 4294967295, "scriptSig": {"hex": "483045022100d7dcb2e420f68f5a1d42e790e0785e2f8ea36803fad209e99407222e6bc450150220272e8673b3c210cc32e23f3c0e813c49d35749b2cd09faf0502928a09dbcd9400121037aed202cc0420c61a4ecd5ba5d8ff2b6263caec8e7242e78157405b8890aaf5d", "asm": "3045022100d7dcb2e420f68f5a1d42e790e0785e2f8ea36803fad209e99407222e6bc450150220272e8673b3c210cc32e23f3c0e813c49d35749b2cd09faf0502928a09dbcd940[ALL] 037aed202cc0420c61a4ecd5ba5d8ff2b6263caec8e7242e78157405b8890aaf5d"}, "vout": 1, "txid": "12c974bed5f180ff578e0ae05952f97dc919bec11374ae639f01cee9b27b022d"}], "txid": "c8dc7409c456412dadafe5df63beda6bc53fa4f27f4f7cd4c575221c8c2c1f9f", "blocktime": 1537871767, "version": 2, "confirmations": 11494, "time": 1537871767, "locktime": 0, "vsize": 224, "size": 224}