{"hash": "bf4be10416ed72427116ccaaaacbe55bb4d92913ae0a0a35f42845f07ab3a40e", "blockhash": "0000000000000000001cda96e906b7601b7a6fb1a3b62bca570a9e5d8f4b3de1", "vout": [{"scriptPubKey": {"reqSigs": 1, "hex": "a9146bdb85c5b43aace8b88f9f752b2a0414663341fa87", "addresses": ["3BXKCmF8utr24w7soSLidk2v4oTfchafyW"], "asm": "OP_HASH160 6bdb85c5b43aace8b88f9f752b2a0414663341fa OP_EQUAL", "type": "scripthash"}, "value": 0.15843499, "n": 0}, {"scriptPubKey": {"reqSigs": 1, "hex": "a914c1178efb7d5ca9f517f83d4d8b7b1d78c8304a2187", "addresses": ["3KHzZSbFdZ7raLgZUf63GTJmsEf8R3ar4n"], "asm": "OP_HASH160 c1178efb7d5ca9f517f83d4d8b7b1d78c8304a21 OP_EQUAL", "type": "scripthash"}, "value": 2.86420648, "n": 1}], "hex": "02000000000101515acd5b3a8e114a6953aa915bf41bc49b285d10ae7737b4a21263d91c2a0fcf0000000017160014112bdae377271da79a36e1d53406b28b8918ed06feffffff02abc0f1000000000017a9146bdb85c5b43aace8b88f9f752b2a0414663341fa87a86e12110000000017a914c1178efb7d5ca9f517f83d4d8b7b1d78c8304a2187024730440220330ef4f02194c4d17e6ee896afd8278e62857617aae5159028772ab809c1403d02205f47a9d527e6a3c2348622b4c264440beccbf228f5a91f31b238ec44cf336757012102c8f9450ad85d74e15ff041c73e2beeaf8c49737149a28a654f84549d42c5acaf13490800", "vin": [{"txinwitness": ["30440220330ef4f02194c4d17e6ee896afd8278e62857617aae5159028772ab809c1403d02205f47a9d527e6a3c2348622b4c264440beccbf228f5a91f31b238ec44cf33675701", "02c8f9450ad85d74e15ff041c73e2beeaf8c49737149a28a654f84549d42c5acaf"], "sequence": 4294967294, "scriptSig": {"hex": "160014112bdae377271da79a36e1d53406b28b8918ed06", "asm": "0014112bdae377271da79a36e1d53406b28b8918ed06"}, "vout": 0, "txid": "cf0f2a1cd96312a2b43777ae105d289bc41bf45b91aa53694a118e3a5bcd5a51"}], "txid": "c8df192065fe33d3935e3fb9ece8d25aaddf5a7152114477133bf57a456fe675", "blocktime": 1537873282, "version": 2, "confirmations": 11484, "time": 1537873282, "locktime": 542995, "vsize": 166, "size": 247}