{"hash": "0659023db39901387437005df8215cbeb1e26c0b1056f4165170ed76ef4a0e37", "blockhash": "0000000000000000000baef3f32e3676a92c3b2e5da21b426e4f302fc371ce76", "vout": [{"scriptPubKey": {"reqSigs": 1, "hex": "76a9149089a61e5ba71af721da163e327783dd88e3d0db88ac", "addresses": ["1EBFCdwSEqKWT2ZG3ZqRF9UcpHCBcqYWWY"], "asm": "OP_DUP OP_HASH160 9089a61e5ba71af721da163e327783dd88e3d0db OP_EQUALVERIFY OP_CHECKSIG", "type": "pubkeyhash"}, "value": 0.02520002, "n": 0}, {"scriptPubKey": {"reqSigs": 1, "hex": "a914d5a49934f342654ff9e04007fea0cb2dbe3d1c1687", "addresses": ["3MAf2uU6GzFoAqwVtU3XdocADxHbjxNfDt"], "asm": "OP_HASH160 d5a49934f342654ff9e04007fea0cb2dbe3d1c16 OP_EQUAL", "type": "scripthash"}, "value": 1.72024955, "n": 1}], "hex": "010000000001019ee5ed33fb90001108c80438ac80aa3b564853641fe303ff4f571935e59b59430100000017160014096d250887b7c7449d15bb615ec6f7d09f5a07a0ffffffff02c2732600000000001976a9149089a61e5ba71af721da163e327783dd88e3d0db88ac7be4400a0000000017a914d5a49934f342654ff9e04007fea0cb2dbe3d1c168702483045022100eacf8c31010dd66606e212786de423b33e46424c5e027bbadda022b99da0eb3f02202af152fd73b2c5f64b2e7adb7494c5e9a6ec8e7e83fcc43b6a4fa62e27e6042d0121034de73f524a51b915898468bba4e82814e0869e1d5a129579f1e2e28040f2bcdd00000000", "vin": [{"txinwitness": ["3045022100eacf8c31010dd66606e212786de423b33e46424c5e027bbadda022b99da0eb3f02202af152fd73b2c5f64b2e7adb7494c5e9a6ec8e7e83fcc43b6a4fa62e27e6042d01", "034de73f524a51b915898468bba4e82814e0869e1d5a129579f1e2e28040f2bcdd"], "sequence": 4294967295, "scriptSig": {"hex": "160014096d250887b7c7449d15bb615ec6f7d09f5a07a0", "asm": "0014096d250887b7c7449d15bb615ec6f7d09f5a07a0"}, "vout": 1, "txid": "43599be53519574fff03e31f645348563baa80ac3804c808110090fb33ede59e"}], "txid": "c8eae850275a57a35af6a4231a18c133d7c476fb879f90c27bcaa154a06af57b", "blocktime": 1537876114, "version": 1, "confirmations": 11460, "time": 1537876114, "locktime": 0, "vsize": 168, "size": 250}