{"hash": "c8f171f45535cbc7926ed1cee1492de1d96521b1d23770716f50660492a7df20", "blockhash": "0000000000000000001cda96e906b7601b7a6fb1a3b62bca570a9e5d8f4b3de1", "vout": [{"scriptPubKey": {"reqSigs": 1, "hex": "76a914a4d34da203afa1550a774ecd9fc5f33ce102bb2888ac", "addresses": ["1G2Wx4vUZnirfvmZhCNUtAuLQzLovqDuRC"], "asm": "OP_DUP OP_HASH160 a4d34da203afa1550a774ecd9fc5f33ce102bb28 OP_EQUALVERIFY OP_CHECKSIG", "type": "pubkeyhash"}, "value": 0.00232428, "n": 0}, {"scriptPubKey": {"reqSigs": 1, "hex": "76a9140c1ae5752e5f60bf116bf6c6887707f9602857f988ac", "addresses": ["1271L6H6YQ26VFUUdFc5hFTgQfS2tbA1XZ"], "asm": "OP_DUP OP_HASH160 0c1ae5752e5f60bf116bf6c6887707f9602857f9 OP_EQUALVERIFY OP_CHECKSIG", "type": "pubkeyhash"}, "value": 0.0077, "n": 1}], "hex": "0100000002848e615d7958933562d260968d5d3361b2c6e9ba75d145254bb62f192b109067010000006b483045022100e52a341ffaddbf85f3ff11aff9247d119b29480fa33f9b4388aa6aac7656e6cb022022e5b2c8c8666774fede7cd68d5a3b0900c8624ad37f52b450733102f2924457012102daad023c74c335b9c88ff0210bc2b5ca05d71776842f2bbfae8c863367ec5f20ffffffff0f3422b1c995f1a483b793d016085e21227e1886ba94a3d9db6f286164cb3de2010000006a4730440220716513d43910a3cb8a390c64ba0b17ee114f4e94745f76293dd75bc5344fe9d90220112c62b433051a004d703bdb4b71f15ebb148f9470176e4bd2427a5288e7df8e012102daad023c74c335b9c88ff0210bc2b5ca05d71776842f2bbfae8c863367ec5f20ffffffff02ec8b0300000000001976a914a4d34da203afa1550a774ecd9fc5f33ce102bb2888acd0bf0b00000000001976a9140c1ae5752e5f60bf116bf6c6887707f9602857f988ac00000000", "vin": [{"sequence": 4294967295, "scriptSig": {"hex": "483045022100e52a341ffaddbf85f3ff11aff9247d119b29480fa33f9b4388aa6aac7656e6cb022022e5b2c8c8666774fede7cd68d5a3b0900c8624ad37f52b450733102f2924457012102daad023c74c335b9c88ff0210bc2b5ca05d71776842f2bbfae8c863367ec5f20", "asm": "3045022100e52a341ffaddbf85f3ff11aff9247d119b29480fa33f9b4388aa6aac7656e6cb022022e5b2c8c8666774fede7cd68d5a3b0900c8624ad37f52b450733102f2924457[ALL] 02daad023c74c335b9c88ff0210bc2b5ca05d71776842f2bbfae8c863367ec5f20"}, "vout": 1, "txid": "6790102b192fb64b2545d175bae9c6b261335d8d9660d262359358795d618e84"}, {"sequence": 4294967295, "scriptSig": {"hex": "4730440220716513d43910a3cb8a390c64ba0b17ee114f4e94745f76293dd75bc5344fe9d90220112c62b433051a004d703bdb4b71f15ebb148f9470176e4bd2427a5288e7df8e012102daad023c74c335b9c88ff0210bc2b5ca05d71776842f2bbfae8c863367ec5f20", "asm": "30440220716513d43910a3cb8a390c64ba0b17ee114f4e94745f76293dd75bc5344fe9d90220112c62b433051a004d703bdb4b71f15ebb148f9470176e4bd2427a5288e7df8e[ALL] 02daad023c74c335b9c88ff0210bc2b5ca05d71776842f2bbfae8c863367ec5f20"}, "vout": 1, "txid": "e23dcb6461286fdbd9a394ba86187e22215e0816d093b783a4f195c9b122340f"}], "txid": "c8f171f45535cbc7926ed1cee1492de1d96521b1d23770716f50660492a7df20", "blocktime": 1537873282, "version": 1, "confirmations": 11484, "time": 1537873282, "locktime": 0, "vsize": 373, "size": 373}