{"hash": "c8fa20e361284d578275fa6992c7fdb7a61ed974108b8c0aa1987f2c475b3a02", "blockhash": "0000000000000000000dcc0f55137456b1a82d3642486a52398922ac4d620174", "vout": [{"scriptPubKey": {"reqSigs": 1, "hex": "76a9145ee80fdc95da06e9d147057c42ac527a4b80df6188ac", "addresses": ["19epWypfMyTMyeRzMmca6VuKRxXayMs3sJ"], "asm": "OP_DUP OP_HASH160 5ee80fdc95da06e9d147057c42ac527a4b80df61 OP_EQUALVERIFY OP_CHECKSIG", "type": "pubkeyhash"}, "value": 4.93e-05, "n": 0}, {"scriptPubKey": {"reqSigs": 1, "hex": "76a9149934a6683e4d4af5e78f670c15f9180928d8469d88ac", "addresses": ["1Ey5TYDJjnwWihANw71rASwpjmm2D7iyRH"], "asm": "OP_DUP OP_HASH160 9934a6683e4d4af5e78f670c15f9180928d8469d OP_EQUALVERIFY OP_CHECKSIG", "type": "pubkeyhash"}, "value": 0.01324697, "n": 1}], "hex": "01000000014db4fc87269cc24417dd5fae249a1cdec4270d76f33b3537b0d47623b2bb2463010000006b483045022100e416e0a9af1e530bd22b8c8e8b2ad46695fb56f6ef568cd34eeef79527e501e202207f67de2b856538c2482192277ae2363ee274dc4b5162548f1c0d93708d88dbea01210366d85362553c27ac08de8414f09c31f783b90d78b172e7f94ca0dc4cce7b3a63ffffffff0242130000000000001976a9145ee80fdc95da06e9d147057c42ac527a4b80df6188ac99361400000000001976a9149934a6683e4d4af5e78f670c15f9180928d8469d88ac00000000", "vin": [{"sequence": 4294967295, "scriptSig": {"hex": "483045022100e416e0a9af1e530bd22b8c8e8b2ad46695fb56f6ef568cd34eeef79527e501e202207f67de2b856538c2482192277ae2363ee274dc4b5162548f1c0d93708d88dbea01210366d85362553c27ac08de8414f09c31f783b90d78b172e7f94ca0dc4cce7b3a63", "asm": "3045022100e416e0a9af1e530bd22b8c8e8b2ad46695fb56f6ef568cd34eeef79527e501e202207f67de2b856538c2482192277ae2363ee274dc4b5162548f1c0d93708d88dbea[ALL] 0366d85362553c27ac08de8414f09c31f783b90d78b172e7f94ca0dc4cce7b3a63"}, "vout": 1, "txid": "6324bbb22376d4b037353bf3760d27c4de1c9a24ae5fdd1744c29c2687fcb44d"}], "txid": "c8fa20e361284d578275fa6992c7fdb7a61ed974108b8c0aa1987f2c475b3a02", "blocktime": 1537870268, "version": 1, "confirmations": 11518, "time": 1537870268, "locktime": 0, "vsize": 226, "size": 226}