{"hash": "c8fd43d8ee08db23e2da4d6894d3c8b22c8af43c6ee4c8467793debb8b5d76d5", "blockhash": "000000000000000000022b45ed06c6f4ccd3cf7fb5ba4856ebd2e58215665228", "vout": [{"scriptPubKey": {"reqSigs": 1, "hex": "a914465f773c3d9d4cad4d0df17b2ed115d636cfa5a087", "addresses": ["3877b3pN1pK2b6A5BaUu4iU1wYjXC1Rvxf"], "asm": "OP_HASH160 465f773c3d9d4cad4d0df17b2ed115d636cfa5a0 OP_EQUAL", "type": "scripthash"}, "value": 0.27643792, "n": 0}, {"scriptPubKey": {"reqSigs": 1, "hex": "a914b75ebc52412cb33b08a9126b279315c65111b95587", "addresses": ["3JQb4zhn1vQ5k2V6Xdu8jirjCXdU3kwRJ9"], "asm": "OP_HASH160 b75ebc52412cb33b08a9126b279315c65111b955 OP_EQUAL", "type": "scripthash"}, "value": 1.72353128, "n": 1}], "hex": "0200000001bba521a82f52ac8073420fbe4eef6b3c17efb8783a9d7d6e9c3ed7ecc64e1b1913000000fdfd0000483045022100a57f442ed8d78eccb762b999089f7ae98886ecd9ec6ee1ed812be08212179cb80220035ba7a113e2f52b82ff042000321027bd067bd7f0c52036a9199a5a574bca860147304402203fb3f5cf64f25f950a4da18befa46fd63b0428809060ec8cebadf84cd68ce434022004b85e306a8ad1c7205eecd9897c9cf2d5e183ff964234255baff78de7b1f9f2014c695221025e0bea93ccd5f59f5dacce083503ab9a836194733e7a615674c8b3999554f19c2102784bbdf344c3dc17ee30fd3b6d1c7c2e4b6191a2b5667dbb84272a935f9790fc210389f4e115ac1cc7b3751022f721db2283b44edf59454b7924a3f8ca45e40b019b53ae000000000290cfa5010000000017a914465f773c3d9d4cad4d0df17b2ed115d636cfa5a08768e6450a0000000017a914b75ebc52412cb33b08a9126b279315c65111b9558700000000", "vin": [{"sequence": 0, "scriptSig": {"hex": "00483045022100a57f442ed8d78eccb762b999089f7ae98886ecd9ec6ee1ed812be08212179cb80220035ba7a113e2f52b82ff042000321027bd067bd7f0c52036a9199a5a574bca860147304402203fb3f5cf64f25f950a4da18befa46fd63b0428809060ec8cebadf84cd68ce434022004b85e306a8ad1c7205eecd9897c9cf2d5e183ff964234255baff78de7b1f9f2014c695221025e0bea93ccd5f59f5dacce083503ab9a836194733e7a615674c8b3999554f19c2102784bbdf344c3dc17ee30fd3b6d1c7c2e4b6191a2b5667dbb84272a935f9790fc210389f4e115ac1cc7b3751022f721db2283b44edf59454b7924a3f8ca45e40b019b53ae", "asm": "0 3045022100a57f442ed8d78eccb762b999089f7ae98886ecd9ec6ee1ed812be08212179cb80220035ba7a113e2f52b82ff042000321027bd067bd7f0c52036a9199a5a574bca86[ALL] 304402203fb3f5cf64f25f950a4da18befa46fd63b0428809060ec8cebadf84cd68ce434022004b85e306a8ad1c7205eecd9897c9cf2d5e183ff964234255baff78de7b1f9f2[ALL] 5221025e0bea93ccd5f59f5dacce083503ab9a836194733e7a615674c8b3999554f19c2102784bbdf344c3dc17ee30fd3b6d1c7c2e4b6191a2b5667dbb84272a935f9790fc210389f4e115ac1cc7b3751022f721db2283b44edf59454b7924a3f8ca45e40b019b53ae"}, "vout": 19, "txid": "191b4ec6ecd73e9c6e7d9d3a78b8ef173c6bef4ebe0f427380ac522fa821a5bb"}], "txid": "c8fd43d8ee08db23e2da4d6894d3c8b22c8af43c6ee4c8467793debb8b5d76d5", "blocktime": 1537869901, "version": 2, "confirmations": 11522, "time": 1537869901, "locktime": 0, "vsize": 370, "size": 370}