{"hash": "a472e7364a11b558d5284141c5a06c07d350d1844fe805d5801c8496ca58e1af", "blockhash": "0000000000000000000baef3f32e3676a92c3b2e5da21b426e4f302fc371ce76", "vout": [{"scriptPubKey": {"reqSigs": 1, "hex": "a9142ffab405bacff6e4ad4a19bd67af2d98da68398787", "addresses": ["364i1iy1Hk4iYReVvt1cjRBusyjGC5QP7G"], "asm": "OP_HASH160 2ffab405bacff6e4ad4a19bd67af2d98da683987 OP_EQUAL", "type": "scripthash"}, "value": 0.0001089, "n": 0}, {"scriptPubKey": {"reqSigs": 1, "hex": "a9140136c10502ae5684e49b302f1af10f145f74b6b787", "addresses": ["31oSC7GvQMTZoouyNLBEHVRDhXEFbVhSmh"], "asm": "OP_HASH160 0136c10502ae5684e49b302f1af10f145f74b6b7 OP_EQUAL", "type": "scripthash"}, "value": 0.03833533, "n": 1}], "hex": "010000000001019417b27eb14159e21179f7a30cd73666e770a6c3026eb7b471c8b730fd8fb5560100000023220020efd02f10cc1074c68ec89b458572a71ce6bfc8a17595d8fde80232e47279444bffffffff028a2a00000000000017a9142ffab405bacff6e4ad4a19bd67af2d98da68398787bd7e3a000000000017a9140136c10502ae5684e49b302f1af10f145f74b6b7870400483045022100b6eab394888dbb36d80c522fca3b850f3d44e49ca9d7bc7cc214638fb46ccb8602201b425a592de06975d85c5994e258756bbff054bce8c8073a6d5702a2921a0bc20147304402203cdf9c6d9a2370c49fee136eb75405cc8ca2d5a9a65f96dd5027ad20496f8ee1022020343f8114d8659e0c46541a0093d90cc8c152223dbafed5d8be76584557d68e0147522103f985ea61f461801f3abc09ebed98ce7e20804639a64616f639f492883ea4e8d62103871fc2ca08e6950b38867e8e6a0e94ee625223d3aa0df5c65f414c6d784467e252ae00000000", "vin": [{"txinwitness": ["", "3045022100b6eab394888dbb36d80c522fca3b850f3d44e49ca9d7bc7cc214638fb46ccb8602201b425a592de06975d85c5994e258756bbff054bce8c8073a6d5702a2921a0bc201", "304402203cdf9c6d9a2370c49fee136eb75405cc8ca2d5a9a65f96dd5027ad20496f8ee1022020343f8114d8659e0c46541a0093d90cc8c152223dbafed5d8be76584557d68e01", "522103f985ea61f461801f3abc09ebed98ce7e20804639a64616f639f492883ea4e8d62103871fc2ca08e6950b38867e8e6a0e94ee625223d3aa0df5c65f414c6d784467e252ae"], "sequence": 4294967295, "scriptSig": {"hex": "220020efd02f10cc1074c68ec89b458572a71ce6bfc8a17595d8fde80232e47279444b", "asm": "0020efd02f10cc1074c68ec89b458572a71ce6bfc8a17595d8fde80232e47279444b"}, "vout": 1, "txid": "56b58ffd30b7c871b4b76e02c3a670e76636d70ca3f77911e25941b17eb21794"}], "txid": "c8fdbdf44549d7248f5c0f4de67866f7947a55f63ddae3459dd1a38307b7e4eb", "blocktime": 1537876114, "version": 1, "confirmations": 11460, "time": 1537876114, "locktime": 0, "vsize": 206, "size": 371}