{"hash": "c8fe09c5be3d3d44a95025adf815705daeae739a895c9dab6cb23a651c7ed554", "blockhash": "0000000000000000001cda96e906b7601b7a6fb1a3b62bca570a9e5d8f4b3de1", "vout": [{"scriptPubKey": {"reqSigs": 1, "hex": "76a914871ff7e265ea2a59153ee010923dd9dd6c1ff88488ac", "addresses": ["1DKUX6RF6H79Kz9adXQrcFExF2a4BtErAq"], "asm": "OP_DUP OP_HASH160 871ff7e265ea2a59153ee010923dd9dd6c1ff884 OP_EQUALVERIFY OP_CHECKSIG", "type": "pubkeyhash"}, "value": 0.72806865, "n": 0}, {"scriptPubKey": {"reqSigs": 1, "hex": "76a914e855aaa1060983be61993b6f060fa6373b293e5d88ac", "addresses": ["1NBUPigzEyLM5D36vvFk21UHmoLcQjxFkQ"], "asm": "OP_DUP OP_HASH160 e855aaa1060983be61993b6f060fa6373b293e5d OP_EQUALVERIFY OP_CHECKSIG", "type": "pubkeyhash"}, "value": 0.3888, "n": 1}], "hex": "02000000015919f2b4ef942e7d83fe8f7da8d44b86b50c2a12d6a15c8bfb19639e8bde611c000000006b483045022100f73d59b25cf32270df17281b2d714fc0c47aaa228325fd270f74a528627044c00220175f5567d78addff7219f959fb7f3be1b2e2d3fde008b86d34acc89e0426ccda0121029fcf3a02e4ea9008e47a67c206518c236a7d47d77c56018bd6263e65674b6956ffffffff02d1f15604000000001976a914871ff7e265ea2a59153ee010923dd9dd6c1ff88488ac00435102000000001976a914e855aaa1060983be61993b6f060fa6373b293e5d88ac00000000", "vin": [{"sequence": 4294967295, "scriptSig": {"hex": "483045022100f73d59b25cf32270df17281b2d714fc0c47aaa228325fd270f74a528627044c00220175f5567d78addff7219f959fb7f3be1b2e2d3fde008b86d34acc89e0426ccda0121029fcf3a02e4ea9008e47a67c206518c236a7d47d77c56018bd6263e65674b6956", "asm": "3045022100f73d59b25cf32270df17281b2d714fc0c47aaa228325fd270f74a528627044c00220175f5567d78addff7219f959fb7f3be1b2e2d3fde008b86d34acc89e0426ccda[ALL] 029fcf3a02e4ea9008e47a67c206518c236a7d47d77c56018bd6263e65674b6956"}, "vout": 0, "txid": "1c61de8b9e6319fb8b5ca1d6122a0cb5864bd4a87d8ffe837d2e94efb4f21959"}], "txid": "c8fe09c5be3d3d44a95025adf815705daeae739a895c9dab6cb23a651c7ed554", "blocktime": 1537873282, "version": 2, "confirmations": 11480, "time": 1537873282, "locktime": 0, "vsize": 226, "size": 226}