{"hash": "69ad6c9d94ddc7b1390e5adc0cc9c59c5eeeb16cf21a4059eaec9e61fd75ae1e", "blockhash": "00000000000000000017f5eb5941039fbcee6240d03bc1f2f8e35350df66a1d8", "vout": [{"scriptPubKey": {"reqSigs": 1, "hex": "a91407538f64d3282e79fd5d29de7534101ec1763f5487", "addresses": ["32MkkkEvtARaZiZAbcYb38sLGoaLJbtie6"], "asm": "OP_HASH160 07538f64d3282e79fd5d29de7534101ec1763f54 OP_EQUAL", "type": "scripthash"}, "value": 0.01034687, "n": 0}, {"scriptPubKey": {"reqSigs": 1, "hex": "a91437094a15f0eaba08350dc950cbac60fca4241e9587", "addresses": ["36i2DXsVGc6w3gqa7xk1ugyymFfDWWzVyW"], "asm": "OP_HASH160 37094a15f0eaba08350dc950cbac60fca4241e95 OP_EQUAL", "type": "scripthash"}, "value": 0.01515263, "n": 1}], "hex": "02000000000101fbf6a38b79c1cc56142a75a50a4eb1588237dce398e7199961aded049016384200000000171600141863c6585babe1986062056f3244b5ee7932dd65fdffffff02bfc90f000000000017a91407538f64d3282e79fd5d29de7534101ec1763f5487ff1e17000000000017a91437094a15f0eaba08350dc950cbac60fca4241e958702483045022100e2c93edc0475148ba166bae6dbc9cfa2ba5546c8839bff7e6e1e3d339742bbbc02205a33f5d37003bfd539589e41f90385886fab6932b025cecc633276558a17a050012103511619dba9cae358b665c3f7cf63a6fac396d39a839812379b73af7f202ad3eab9480800", "vin": [{"txinwitness": ["3045022100e2c93edc0475148ba166bae6dbc9cfa2ba5546c8839bff7e6e1e3d339742bbbc02205a33f5d37003bfd539589e41f90385886fab6932b025cecc633276558a17a05001", "03511619dba9cae358b665c3f7cf63a6fac396d39a839812379b73af7f202ad3ea"], "sequence": 4294967293, "scriptSig": {"hex": "1600141863c6585babe1986062056f3244b5ee7932dd65", "asm": "00141863c6585babe1986062056f3244b5ee7932dd65"}, "vout": 0, "txid": "4238169004edad619919e798e3dc378258b14e0aa5752a1456ccc1798ba3f6fb"}], "txid": "c9025c7ed783f8f597a172a37557f1bbc9b85d17c399228b15965757a4e82f90", "blocktime": 1537874412, "version": 2, "confirmations": 11468, "time": 1537874412, "locktime": 542905, "vsize": 166, "size": 248}