{"hash": "c90725f20f434455320cdf09e058942a73555037ac0181abdcc582323768779d", "blockhash": "0000000000000000001f0ddff1eddb255c1121bcd4da4f1bc9a0da00cae72433", "vout": [{"scriptPubKey": {"reqSigs": 1, "hex": "76a91466d1111582ac03e78607d73c6243f6c64f84c89488ac", "addresses": ["1ANeNn8StMS57DkNcuFvLTtq9UZdedE1LG"], "asm": "OP_DUP OP_HASH160 66d1111582ac03e78607d73c6243f6c64f84c894 OP_EQUALVERIFY OP_CHECKSIG", "type": "pubkeyhash"}, "value": 0.00312512, "n": 0}, {"scriptPubKey": {"reqSigs": 1, "hex": "76a914bac4819581c038d0c471bfe9c039930da116640888ac", "addresses": ["1J2Y6AqyRMYUr7RRr6PoJxbd9WXGxcgsBL"], "asm": "OP_DUP OP_HASH160 bac4819581c038d0c471bfe9c039930da1166408 OP_EQUALVERIFY OP_CHECKSIG", "type": "pubkeyhash"}, "value": 0.0406125, "n": 1}], "hex": "01000000010230d3fee616b05370d976a41407dd1b5c388c636da9a2ad29f79256c2f4f61d000000006b483045022100b36986ced5e2c81d12f26093b2494b6ac41e6a5a714f2912243e7d769a2c9b1e0220153b23c3a6c5fbe6853d5c141acd1dec8d317f5348fc171a17950d956d4a896d012102c5ed5a4db61222f882ea484302a71947eccb53c5ec029f8f1e01639891315785ffffffff02c0c40400000000001976a91466d1111582ac03e78607d73c6243f6c64f84c89488ac42f83d00000000001976a914bac4819581c038d0c471bfe9c039930da116640888ac00000000", "vin": [{"sequence": 4294967295, "scriptSig": {"hex": "483045022100b36986ced5e2c81d12f26093b2494b6ac41e6a5a714f2912243e7d769a2c9b1e0220153b23c3a6c5fbe6853d5c141acd1dec8d317f5348fc171a17950d956d4a896d012102c5ed5a4db61222f882ea484302a71947eccb53c5ec029f8f1e01639891315785", "asm": "3045022100b36986ced5e2c81d12f26093b2494b6ac41e6a5a714f2912243e7d769a2c9b1e0220153b23c3a6c5fbe6853d5c141acd1dec8d317f5348fc171a17950d956d4a896d[ALL] 02c5ed5a4db61222f882ea484302a71947eccb53c5ec029f8f1e01639891315785"}, "vout": 0, "txid": "1df6f4c25692f729ada2a96d638c385c1bdd0714a476d97053b016e6fed33002"}], "txid": "c90725f20f434455320cdf09e058942a73555037ac0181abdcc582323768779d", "blocktime": 1537872018, "version": 1, "confirmations": 11489, "time": 1537872018, "locktime": 0, "vsize": 226, "size": 226}