{"hash": "c9095283154fad14919aba65b1982a3e9019866964ab199462b2de2f1ab1936c", "blockhash": "0000000000000000001e0dab787dd257d1dbfcb92a98c2207d5e1078be1f4165", "vout": [{"scriptPubKey": {"reqSigs": 1, "hex": "a9143f538b29ffd80472c75c2c331270b730e3d7558d87", "addresses": ["37TraLioZJTuin8fJdnDYA26TF39rUUtH4"], "asm": "OP_HASH160 3f538b29ffd80472c75c2c331270b730e3d7558d OP_EQUAL", "type": "scripthash"}, "value": 4.736e-05, "n": 0}, {"scriptPubKey": {"reqSigs": 1, "hex": "76a91431a00897fc6e0effc1363dea8c0ff82dc00e9cd088ac", "addresses": ["15XPpjAf1iUJ6YTknxHZM1CUHFtXVEPrNd"], "asm": "OP_DUP OP_HASH160 31a00897fc6e0effc1363dea8c0ff82dc00e9cd0 OP_EQUALVERIFY OP_CHECKSIG", "type": "pubkeyhash"}, "value": 0.0089524, "n": 1}, {"scriptPubKey": {"reqSigs": 1, "hex": "76a914024ff7f42f45080b635c2c183718ad7c6946cf2f88ac", "addresses": ["1DE9hShGAWQwNBCJU8Y3ZheLNKhU7wusC"], "asm": "OP_DUP OP_HASH160 024ff7f42f45080b635c2c183718ad7c6946cf2f OP_EQUALVERIFY OP_CHECKSIG", "type": "pubkeyhash"}, "value": 0.00047118, "n": 2}], "hex": "0100000001b414b6e438a612cc3988b316a4393aca0ea007a5cd8ff2596c2e02baa8576303000000006b483045022100ba752f4a0a58387b1e243fb4e799ba396cbda6c095242247a1c29a711453b7da0220240d98714e9f0752576b1d926ce7d55f2d1313b82475d27456ad8519acfe079301210344067431d873bf8a4d72efcef425dec68ed42a4e6a09faf7e0b678fbfae3615effffffff03801200000000000017a9143f538b29ffd80472c75c2c331270b730e3d7558d8708a90d00000000001976a91431a00897fc6e0effc1363dea8c0ff82dc00e9cd088ac0eb80000000000001976a914024ff7f42f45080b635c2c183718ad7c6946cf2f88ac00000000", "vin": [{"sequence": 4294967295, "scriptSig": {"hex": "483045022100ba752f4a0a58387b1e243fb4e799ba396cbda6c095242247a1c29a711453b7da0220240d98714e9f0752576b1d926ce7d55f2d1313b82475d27456ad8519acfe079301210344067431d873bf8a4d72efcef425dec68ed42a4e6a09faf7e0b678fbfae3615e", "asm": "3045022100ba752f4a0a58387b1e243fb4e799ba396cbda6c095242247a1c29a711453b7da0220240d98714e9f0752576b1d926ce7d55f2d1313b82475d27456ad8519acfe0793[ALL] 0344067431d873bf8a4d72efcef425dec68ed42a4e6a09faf7e0b678fbfae3615e"}, "vout": 0, "txid": "036357a8ba022e6c59f28fcda507a00eca3a39a416b38839cc12a638e4b614b4"}], "txid": "c9095283154fad14919aba65b1982a3e9019866964ab199462b2de2f1ab1936c", "blocktime": 1537872475, "version": 1, "confirmations": 11487, "time": 1537872475, "locktime": 0, "vsize": 258, "size": 258}