{"hash": "0bf939adf278fd8e94d6b7bd85cd5bf2f51c7ac7e0c37b414874b298c8f85bc4", "blockhash": "00000000000000000017f5eb5941039fbcee6240d03bc1f2f8e35350df66a1d8", "vout": [{"scriptPubKey": {"reqSigs": 1, "hex": "a9143f6238c8166739295f57af79f11d7847a3829b5187", "addresses": ["37UAACXgSDd9diQ2R77xoAoDd8zbbzCZHz"], "asm": "OP_HASH160 3f6238c8166739295f57af79f11d7847a3829b51 OP_EQUAL", "type": "scripthash"}, "value": 0.00352262, "n": 0}, {"scriptPubKey": {"reqSigs": 1, "hex": "00141889b38d9f7c1d672022cb27a008ba1e46ca2367", "addresses": ["bc1qrzym8rvl0swkwgpzevn6qz96rerv5gm8lk4vrh"], "asm": "0 1889b38d9f7c1d672022cb27a008ba1e46ca2367", "type": "witness_v0_keyhash"}, "value": 1.874e-05, "n": 1}], "hex": "010000000001012761e220e5193dc479d6d0544538e1f209c2e05d6270aa7ccc21b57f886052510000000000ffffffff02066005000000000017a9143f6238c8166739295f57af79f11d7847a3829b518752070000000000001600141889b38d9f7c1d672022cb27a008ba1e46ca236702483045022100e40e226bf787ee6d606bb33b423c53789004ec37623957fd8d338ad722876515022017ba4edcb1c187e4cc932d28e14f519ee14cdcfba50e3d342f8b324b14ac32db0121020b88e7ad3af19aa66318c281322ec72721930c7967a9fc235d08f683678d171b00000000", "vin": [{"txinwitness": ["3045022100e40e226bf787ee6d606bb33b423c53789004ec37623957fd8d338ad722876515022017ba4edcb1c187e4cc932d28e14f519ee14cdcfba50e3d342f8b324b14ac32db01", "020b88e7ad3af19aa66318c281322ec72721930c7967a9fc235d08f683678d171b"], "sequence": 4294967295, "scriptSig": {"hex": "", "asm": ""}, "vout": 0, "txid": "515260887fb521cc7caa70625de0c209f2e1384554d0d679c43d19e520e26127"}], "txid": "c9094cb8eed74fc6c75a30545cb05d6bfaf1633349b4db2c413794dc45323777", "blocktime": 1537874412, "version": 1, "confirmations": 11467, "time": 1537874412, "locktime": 0, "vsize": 142, "size": 224}