{"hash": "a342b58803fed7bfb3fae9daa598624804f3b37e102eb8845bbb3a8d01e89023", "blockhash": "0000000000000000000e13cef7c366c0283d82e591d1acd082e914b08063cdf1", "vout": [{"scriptPubKey": {"reqSigs": 1, "hex": "76a91441148b7ed7b9f371cbb8250b29928bf04e9dd06188ac", "addresses": ["16w7XxL5e51K2bYBE4NtMZtCwLpx8CpytD"], "asm": "OP_DUP OP_HASH160 41148b7ed7b9f371cbb8250b29928bf04e9dd061 OP_EQUALVERIFY OP_CHECKSIG", "type": "pubkeyhash"}, "value": 0.0026056, "n": 0}, {"scriptPubKey": {"reqSigs": 1, "hex": "a91425e56da7de7a81972fbc34885b14344ee64b88af87", "addresses": ["359Pmbt3JuRzHdSDgcJXEp8kZsyvSRcSdz"], "asm": "OP_HASH160 25e56da7de7a81972fbc34885b14344ee64b88af OP_EQUAL", "type": "scripthash"}, "value": 0.01000819, "n": 1}], "hex": "020000000001025050070e15e2aa8c90dc2cd41ee283ae44ead6b6a0610b9a9c06dc63f3d654c10100000017160014cf20860c0f876e6ea510c32d0a5e28cc8c40da2afeffffffc03ba91bd74df800add9ae728883dd8a11a4c10d2b0a2b54b274fde329c137ee01000000171600147c04e8ce9384e1b16c8a35ab69a1202f2cf165bffeffffff02d0f90300000000001976a91441148b7ed7b9f371cbb8250b29928bf04e9dd06188ac73450f000000000017a91425e56da7de7a81972fbc34885b14344ee64b88af8702483045022100e3e6c43aeb23ea6920e31804e362fdb42fb0b6ee2533583029dd6282130acb7f0220093f064aa8cd0845f7d7bd422098eceaa867ea36fd7e26aa96dde5fb5912cace012102d98bea467850520eff7ee4d6cc582d8d379940397c661d6724467c3e6809a28c024830450221009ae2a142cee715f46073c7eb113ee25151542afbfc675e400ed5cb7c523902db022019743c7bdd19e1036b7198c4a72e5183e51556c7acf943b9680cd1a0228df9a20121026f946a47732c35e6f82d52dec85168118d18923999b7abdf85a5b4b87dffb77110490800", "vin": [{"txinwitness": ["3045022100e3e6c43aeb23ea6920e31804e362fdb42fb0b6ee2533583029dd6282130acb7f0220093f064aa8cd0845f7d7bd422098eceaa867ea36fd7e26aa96dde5fb5912cace01", "02d98bea467850520eff7ee4d6cc582d8d379940397c661d6724467c3e6809a28c"], "sequence": 4294967294, "scriptSig": {"hex": "160014cf20860c0f876e6ea510c32d0a5e28cc8c40da2a", "asm": "0014cf20860c0f876e6ea510c32d0a5e28cc8c40da2a"}, "vout": 1, "txid": "c154d6f363dc069c9a0b61a0b6d6ea44ae83e21ed42cdc908caae2150e075050"}, {"txinwitness": ["30450221009ae2a142cee715f46073c7eb113ee25151542afbfc675e400ed5cb7c523902db022019743c7bdd19e1036b7198c4a72e5183e51556c7acf943b9680cd1a0228df9a201", "026f946a47732c35e6f82d52dec85168118d18923999b7abdf85a5b4b87dffb771"], "sequence": 4294967294, "scriptSig": {"hex": "1600147c04e8ce9384e1b16c8a35ab69a1202f2cf165bf", "asm": "00147c04e8ce9384e1b16c8a35ab69a1202f2cf165bf"}, "vout": 1, "txid": "ee37c129e3fd74b2542b0a2b0dc1a4118add838872aed9ad00f84dd71ba93bc0"}], "txid": "c90ba5971332004069c6e48858a6f1d72a0529abc29274c7756d3b1c51bc97f5", "blocktime": 1537871767, "version": 2, "confirmations": 11495, "time": 1537871767, "locktime": 542992, "vsize": 259, "size": 422}