{"hash": "203f2bbadebcb6da0d73492d0a10001c8bd8f146e735f15e2be304c9cd9ed21c", "blockhash": "00000000000000000017f5eb5941039fbcee6240d03bc1f2f8e35350df66a1d8", "vout": [{"scriptPubKey": {"reqSigs": 1, "hex": "a91490e99e8d26d05ead3c05430c292a887bbff695f587", "addresses": ["3EuF6KjJawxTiUsea3Sc8hsLUGmVEf7Xg5"], "asm": "OP_HASH160 90e99e8d26d05ead3c05430c292a887bbff695f5 OP_EQUAL", "type": "scripthash"}, "value": 0.00123793, "n": 0}, {"scriptPubKey": {"type": "nulldata", "hex": "6a146f6d6e69000000000000001f0000000005f5e100", "asm": "OP_RETURN 6f6d6e69000000000000001f0000000005f5e100"}, "value": 0.0, "n": 1}, {"scriptPubKey": {"reqSigs": 1, "hex": "a91490e99e8d26d05ead3c05430c292a887bbff695f587", "addresses": ["3EuF6KjJawxTiUsea3Sc8hsLUGmVEf7Xg5"], "asm": "OP_HASH160 90e99e8d26d05ead3c05430c292a887bbff695f5 OP_EQUAL", "type": "scripthash"}, "value": 5.4e-06, "n": 2}], "hex": "01000000000102f411befd1affc90860c3627bc599fa8aa7c4a8a642e5672bc068f929d740ad400000000017160014f6e1792e7852ebd5ae795c2a25d579acdfadec2dfffffffff411befd1affc90860c3627bc599fa8aa7c4a8a642e5672bc068f929d740ad400200000017160014f6e1792e7852ebd5ae795c2a25d579acdfadec2dffffffff0391e301000000000017a91490e99e8d26d05ead3c05430c292a887bbff695f5870000000000000000166a146f6d6e69000000000000001f0000000005f5e1001c0200000000000017a91490e99e8d26d05ead3c05430c292a887bbff695f58702473044022014eb545c9b132f27b49fa003db9a4067dbd20803a0af72903b87a88370baf7ea02201b269745394098907af6ec10107e158cf5a7e1a2b2756b6f4843ef85f81b6f1a012103f1cf988013a33e053d1e9bd54c4798c1a6dc362a5b2798b5344049fca40e2db00247304402204dce882285796813ccd7ff1fcd41cd5526c9b9a58b64a292df6b9e1377753e3e0220508348fcc30092fee2d494185375dddc5c484a3e63e36f92bb545d417fd42eda012103f1cf988013a33e053d1e9bd54c4798c1a6dc362a5b2798b5344049fca40e2db000000000", "vin": [{"txinwitness": ["3044022014eb545c9b132f27b49fa003db9a4067dbd20803a0af72903b87a88370baf7ea02201b269745394098907af6ec10107e158cf5a7e1a2b2756b6f4843ef85f81b6f1a01", "03f1cf988013a33e053d1e9bd54c4798c1a6dc362a5b2798b5344049fca40e2db0"], "sequence": 4294967295, "scriptSig": {"hex": "160014f6e1792e7852ebd5ae795c2a25d579acdfadec2d", "asm": "0014f6e1792e7852ebd5ae795c2a25d579acdfadec2d"}, "vout": 0, "txid": "40ad40d729f968c02b67e542a6a8c4a78afa99c57b62c36008c9ff1afdbe11f4"}, {"txinwitness": ["304402204dce882285796813ccd7ff1fcd41cd5526c9b9a58b64a292df6b9e1377753e3e0220508348fcc30092fee2d494185375dddc5c484a3e63e36f92bb545d417fd42eda01", "03f1cf988013a33e053d1e9bd54c4798c1a6dc362a5b2798b5344049fca40e2db0"], "sequence": 4294967295, "scriptSig": {"hex": "160014f6e1792e7852ebd5ae795c2a25d579acdfadec2d", "asm": "0014f6e1792e7852ebd5ae795c2a25d579acdfadec2d"}, "vout": 2, "txid": "40ad40d729f968c02b67e542a6a8c4a78afa99c57b62c36008c9ff1afdbe11f4"}], "txid": "c913e204f6e9c0d456c9ce508e8284b6d072d8d452c22770d46c2ce9f9e8ef44", "blocktime": 1537874412, "version": 1, "confirmations": 11467, "time": 1537874412, "locktime": 0, "vsize": 287, "size": 449}