{"hash": "c916741b55d80a7b0d59dfc92ddd199a9513b3cc4840a48bdab1aa23f825936b", "blockhash": "0000000000000000001cda96e906b7601b7a6fb1a3b62bca570a9e5d8f4b3de1", "vout": [{"scriptPubKey": {"reqSigs": 1, "hex": "76a914d243e6abb9a60fbff430b421d2df4b7d59ec186088ac", "addresses": ["1LAnF8h3qMGx3TSwNUHVneBZUEpwE4gu3D"], "asm": "OP_DUP OP_HASH160 d243e6abb9a60fbff430b421d2df4b7d59ec1860 OP_EQUALVERIFY OP_CHECKSIG", "type": "pubkeyhash"}, "value": 5.64e-06, "n": 0}, {"scriptPubKey": {"reqSigs": 1, "hex": "76a9143851f34d13937b673a7d24a1950bb5b21ce94af388ac", "addresses": ["168o1kqNquEJeR9vosUB5fw4eAwcVAgh8P"], "asm": "OP_DUP OP_HASH160 3851f34d13937b673a7d24a1950bb5b21ce94af3 OP_EQUALVERIFY OP_CHECKSIG", "type": "pubkeyhash"}, "value": 5.46e-06, "n": 1}, {"scriptPubKey": {"type": "nulldata", "hex": "6a146f6d6e69000000000000001f000000e89f98bd80", "asm": "OP_RETURN 6f6d6e69000000000000001f000000e89f98bd80"}, "value": 0.0, "n": 2}], "hex": "0100000001d872cfe03148f2d25f38710c79cf8f645e1ab024b1491b74756fa992119791c1010000006b483045022100bc2c9a602c32222f05ba63b2e2649375ec3821ab6459716f4f3a58eab86972d2022034600280b5d2e48c834f3a8bc74963f4bd5173b1661c896a17b308fd73e767ee0121031391e9565a2568110f96b46f805f9f3f7f40738162af6a87e82842fb9592702effffffff0334020000000000001976a914d243e6abb9a60fbff430b421d2df4b7d59ec186088ac22020000000000001976a9143851f34d13937b673a7d24a1950bb5b21ce94af388ac0000000000000000166a146f6d6e69000000000000001f000000e89f98bd8000000000", "vin": [{"sequence": 4294967295, "scriptSig": {"hex": "483045022100bc2c9a602c32222f05ba63b2e2649375ec3821ab6459716f4f3a58eab86972d2022034600280b5d2e48c834f3a8bc74963f4bd5173b1661c896a17b308fd73e767ee0121031391e9565a2568110f96b46f805f9f3f7f40738162af6a87e82842fb9592702e", "asm": "3045022100bc2c9a602c32222f05ba63b2e2649375ec3821ab6459716f4f3a58eab86972d2022034600280b5d2e48c834f3a8bc74963f4bd5173b1661c896a17b308fd73e767ee[ALL] 031391e9565a2568110f96b46f805f9f3f7f40738162af6a87e82842fb9592702e"}, "vout": 1, "txid": "c191971192a96f75741b49b124b01a5e648fcf790c71385fd2f24831e0cf72d8"}], "txid": "c916741b55d80a7b0d59dfc92ddd199a9513b3cc4840a48bdab1aa23f825936b", "blocktime": 1537873282, "version": 1, "confirmations": 11483, "time": 1537873282, "locktime": 0, "vsize": 257, "size": 257}