{"hash": "c919124c181d54cd4c519fc0dd6977ac10d99375d55e1e5b16e01411d492b91f", "blockhash": "0000000000000000001e0dab787dd257d1dbfcb92a98c2207d5e1078be1f4165", "vout": [{"scriptPubKey": {"type": "nulldata", "hex": "6a146f6d6e69000000000000001f00000d80ba5cd120", "asm": "OP_RETURN 6f6d6e69000000000000001f00000d80ba5cd120"}, "value": 0.0, "n": 0}, {"scriptPubKey": {"reqSigs": 1, "hex": "76a914a25dec4d0011064ef106a983c39c7a540699f22088ac", "addresses": ["1FoWyxwPXuj4C6abqwhjDWdz6D4PZgYRjA"], "asm": "OP_DUP OP_HASH160 a25dec4d0011064ef106a983c39c7a540699f220 OP_EQUALVERIFY OP_CHECKSIG", "type": "pubkeyhash"}, "value": 5.46e-06, "n": 1}, {"scriptPubKey": {"reqSigs": 1, "hex": "76a914b2d0a1109490386392a9248ffc15ed296b94a81f88ac", "addresses": ["1HJVCxL1jhEHKGjXby69pbgi2VDmim8Zur"], "asm": "OP_DUP OP_HASH160 b2d0a1109490386392a9248ffc15ed296b94a81f OP_EQUALVERIFY OP_CHECKSIG", "type": "pubkeyhash"}, "value": 0.00473421, "n": 2}], "hex": "01000000048738739c336e7696cedc149e7f0be78e022bc212c52e7a148ff7e9d2fe59ca78010000006a47304402203e6e14c4d7649f7e1f48dcbecbbc49a0bfd09baaccc9b9c8d3e3f933c4b5162f022069eadc7bae10a644c5d3c2cbf73cb7c34fb1cbd0e8e113f929823864be701bb001210330c8d0b63346d58c7e42d1a3cabdb0faeb8f7dc0498b3b0d75a1c8c817c479a0feffffff1c83e961e28b07b3ef2fb3d150005ab813281d92613a26230288f9c16c4e5e26010000006a4730440220521283a77c6689bcd7d9a05eb40b9b841c09d115f6c8abc6a6fb0451af84eb5a02203152ae05f71603007e350023e7750cef8a9701c19c25c1ef033113239577a17e01210330c8d0b63346d58c7e42d1a3cabdb0faeb8f7dc0498b3b0d75a1c8c817c479a0feffffff283ec0a349f7a4446b1473231da54259daaf4019f972ae9c4221b52e0bd55a88010000006b483045022100aa23364bb81a38adebce085f1a9340845d0f8189e5bb88a644e798da84c84e0102207f8dc67d4602f962ba52b23376dbe6ab9cd06516ddf5eeacb36cc8ab0f2f9dcb01210330c8d0b63346d58c7e42d1a3cabdb0faeb8f7dc0498b3b0d75a1c8c817c479a0feffffff5c2ae8f85038ccc2148caca13acaa0c41cab0910c1f543b04b2a8672df853ee0010000006a47304402205ff8c1e355db31b48242e1a185cbcdc8f935b2acefe8381be3429297a19f4fe00220639a3f2d790125046bdc963aca7c653e66a3284239e6a7cddd70f6926bf193c101210330c8d0b63346d58c7e42d1a3cabdb0faeb8f7dc0498b3b0d75a1c8c817c479a0feffffff030000000000000000166a146f6d6e69000000000000001f00000d80ba5cd12022020000000000001976a914a25dec4d0011064ef106a983c39c7a540699f22088ac4d390700000000001976a914b2d0a1109490386392a9248ffc15ed296b94a81f88ac12490800", "vin": [{"sequence": 4294967294, "scriptSig": {"hex": "47304402203e6e14c4d7649f7e1f48dcbecbbc49a0bfd09baaccc9b9c8d3e3f933c4b5162f022069eadc7bae10a644c5d3c2cbf73cb7c34fb1cbd0e8e113f929823864be701bb001210330c8d0b63346d58c7e42d1a3cabdb0faeb8f7dc0498b3b0d75a1c8c817c479a0", "asm": "304402203e6e14c4d7649f7e1f48dcbecbbc49a0bfd09baaccc9b9c8d3e3f933c4b5162f022069eadc7bae10a644c5d3c2cbf73cb7c34fb1cbd0e8e113f929823864be701bb0[ALL] 0330c8d0b63346d58c7e42d1a3cabdb0faeb8f7dc0498b3b0d75a1c8c817c479a0"}, "vout": 1, "txid": "78ca59fed2e9f78f147a2ec512c22b028ee70b7f9e14dcce96766e339c733887"}, {"sequence": 4294967294, "scriptSig": {"hex": "4730440220521283a77c6689bcd7d9a05eb40b9b841c09d115f6c8abc6a6fb0451af84eb5a02203152ae05f71603007e350023e7750cef8a9701c19c25c1ef033113239577a17e01210330c8d0b63346d58c7e42d1a3cabdb0faeb8f7dc0498b3b0d75a1c8c817c479a0", "asm": "30440220521283a77c6689bcd7d9a05eb40b9b841c09d115f6c8abc6a6fb0451af84eb5a02203152ae05f71603007e350023e7750cef8a9701c19c25c1ef033113239577a17e[ALL] 0330c8d0b63346d58c7e42d1a3cabdb0faeb8f7dc0498b3b0d75a1c8c817c479a0"}, "vout": 1, "txid": "265e4e6cc1f9880223263a61921d2813b85a0050d1b32fefb3078be261e9831c"}, {"sequence": 4294967294, "scriptSig": {"hex": "483045022100aa23364bb81a38adebce085f1a9340845d0f8189e5bb88a644e798da84c84e0102207f8dc67d4602f962ba52b23376dbe6ab9cd06516ddf5eeacb36cc8ab0f2f9dcb01210330c8d0b63346d58c7e42d1a3cabdb0faeb8f7dc0498b3b0d75a1c8c817c479a0", "asm": "3045022100aa23364bb81a38adebce085f1a9340845d0f8189e5bb88a644e798da84c84e0102207f8dc67d4602f962ba52b23376dbe6ab9cd06516ddf5eeacb36cc8ab0f2f9dcb[ALL] 0330c8d0b63346d58c7e42d1a3cabdb0faeb8f7dc0498b3b0d75a1c8c817c479a0"}, "vout": 1, "txid": "885ad50b2eb521429cae72f91940afda5942a51d2373146b44a4f749a3c03e28"}, {"sequence": 4294967294, "scriptSig": {"hex": "47304402205ff8c1e355db31b48242e1a185cbcdc8f935b2acefe8381be3429297a19f4fe00220639a3f2d790125046bdc963aca7c653e66a3284239e6a7cddd70f6926bf193c101210330c8d0b63346d58c7e42d1a3cabdb0faeb8f7dc0498b3b0d75a1c8c817c479a0", "asm": "304402205ff8c1e355db31b48242e1a185cbcdc8f935b2acefe8381be3429297a19f4fe00220639a3f2d790125046bdc963aca7c653e66a3284239e6a7cddd70f6926bf193c1[ALL] 0330c8d0b63346d58c7e42d1a3cabdb0faeb8f7dc0498b3b0d75a1c8c817c479a0"}, "vout": 1, "txid": "e03e85df72862a4bb043f5c11009ab1cc4a0ca3aa1ac8c14c2cc3850f8e82a5c"}], "txid": "c919124c181d54cd4c519fc0dd6977ac10d99375d55e1e5b16e01411d492b91f", "blocktime": 1537872475, "version": 1, "confirmations": 11487, "time": 1537872475, "locktime": 542994, "vsize": 698, "size": 698}