{"hash": "c91b3883d4dc78a90fba579035e08b0d366245b0da355c210cb2b7fbac9104b3", "blockhash": "0000000000000000000e13cef7c366c0283d82e591d1acd082e914b08063cdf1", "vout": [{"scriptPubKey": {"reqSigs": 1, "hex": "76a9140b57258e02b72743d54c93964e25aa1ceb25501788ac", "addresses": ["122xqAo6Z8Dp6TJvzz6Unbta2RZzQhNTDp"], "asm": "OP_DUP OP_HASH160 0b57258e02b72743d54c93964e25aa1ceb255017 OP_EQUALVERIFY OP_CHECKSIG", "type": "pubkeyhash"}, "value": 0.01166496, "n": 0}, {"scriptPubKey": {"reqSigs": 1, "hex": "76a9144a0f1e2f2b0d7daeec5265f10bbbbe08ed725e8988ac", "addresses": ["17kb7c9ndg7ioSuzMWEHWECdEVUegNkcGc"], "asm": "OP_DUP OP_HASH160 4a0f1e2f2b0d7daeec5265f10bbbbe08ed725e89 OP_EQUALVERIFY OP_CHECKSIG", "type": "pubkeyhash"}, "value": 0.00052627, "n": 1}], "hex": "0100000001cd47c6847f682c1e9c7ca450731cd34666a29ba85953827af497c4d9f99de97e000000006b483045022100f2f4ef03da254dc6cbdb9e7ae28f963fd3cd0d190da4f35f701f925d86e911120220551eb6a7344b72863dbbf9e9adf498bb312c0b67da9567b2dae883ea3159778001210363e1776495149c5a4e92acf453a3caa19000fc804e4ba2024b600ba25e09c943ffffffff02a0cc1100000000001976a9140b57258e02b72743d54c93964e25aa1ceb25501788ac93cd0000000000001976a9144a0f1e2f2b0d7daeec5265f10bbbbe08ed725e8988ac00000000", "vin": [{"sequence": 4294967295, "scriptSig": {"hex": "483045022100f2f4ef03da254dc6cbdb9e7ae28f963fd3cd0d190da4f35f701f925d86e911120220551eb6a7344b72863dbbf9e9adf498bb312c0b67da9567b2dae883ea3159778001210363e1776495149c5a4e92acf453a3caa19000fc804e4ba2024b600ba25e09c943", "asm": "3045022100f2f4ef03da254dc6cbdb9e7ae28f963fd3cd0d190da4f35f701f925d86e911120220551eb6a7344b72863dbbf9e9adf498bb312c0b67da9567b2dae883ea31597780[ALL] 0363e1776495149c5a4e92acf453a3caa19000fc804e4ba2024b600ba25e09c943"}, "vout": 0, "txid": "7ee99df9d9c497f47a825359a89ba26646d31c7350a47c9c1e2c687f84c647cd"}], "txid": "c91b3883d4dc78a90fba579035e08b0d366245b0da355c210cb2b7fbac9104b3", "blocktime": 1537871767, "version": 1, "confirmations": 11490, "time": 1537871767, "locktime": 0, "vsize": 226, "size": 226}