{"hash": "c91c753ac01fb2c4ed0a4ae6a6e0f303601afdc160d5433da38166a9e6d151da", "blockhash": "0000000000000000001f76057863aec43deb6fa401d9628bb513d65a8098bfab", "vout": [{"scriptPubKey": {"reqSigs": 1, "hex": "a91470de4bfbc261baf298f223e4513e0144d4e6b8a087", "addresses": ["3ByouUuRRd3Pkdp6vaAFzZMbKa3MUN2BjF"], "asm": "OP_HASH160 70de4bfbc261baf298f223e4513e0144d4e6b8a0 OP_EQUAL", "type": "scripthash"}, "value": 0.01087536, "n": 0}, {"scriptPubKey": {"reqSigs": 1, "hex": "76a9144a0f1e2f2b0d7daeec5265f10bbbbe08ed725e8988ac", "addresses": ["17kb7c9ndg7ioSuzMWEHWECdEVUegNkcGc"], "asm": "OP_DUP OP_HASH160 4a0f1e2f2b0d7daeec5265f10bbbbe08ed725e89 OP_EQUALVERIFY OP_CHECKSIG", "type": "pubkeyhash"}, "value": 0.0005792, "n": 1}], "hex": "0100000001b25088b7e56ff513803dab3ab43b6ab9c1904dc7f94050982b5d7f98e707bde0000000006a4730440220413296ffab440a65133ffdcc61dfd8fdf2d788529ca8d7f059b3fed7eb8a4e9402204700d7dc73007373b7abbcdb1a2bdff512562cbd517dfea01f740b4e32f1189001210363e1776495149c5a4e92acf453a3caa19000fc804e4ba2024b600ba25e09c943ffffffff02309810000000000017a91470de4bfbc261baf298f223e4513e0144d4e6b8a08740e20000000000001976a9144a0f1e2f2b0d7daeec5265f10bbbbe08ed725e8988ac00000000", "vin": [{"sequence": 4294967295, "scriptSig": {"hex": "4730440220413296ffab440a65133ffdcc61dfd8fdf2d788529ca8d7f059b3fed7eb8a4e9402204700d7dc73007373b7abbcdb1a2bdff512562cbd517dfea01f740b4e32f1189001210363e1776495149c5a4e92acf453a3caa19000fc804e4ba2024b600ba25e09c943", "asm": "30440220413296ffab440a65133ffdcc61dfd8fdf2d788529ca8d7f059b3fed7eb8a4e9402204700d7dc73007373b7abbcdb1a2bdff512562cbd517dfea01f740b4e32f11890[ALL] 0363e1776495149c5a4e92acf453a3caa19000fc804e4ba2024b600ba25e09c943"}, "vout": 0, "txid": "e0bd07e7987f5d2b985040f9c74d90c1b96a3bb43aab3d8013f56fe5b78850b2"}], "txid": "c91c753ac01fb2c4ed0a4ae6a6e0f303601afdc160d5433da38166a9e6d151da", "blocktime": 1537873891, "version": 1, "confirmations": 11475, "time": 1537873891, "locktime": 0, "vsize": 223, "size": 223}