{"hash": "c91feab6f9b843baaaa86db21df27a3d875132945e567229202a13f3bc32a313", "blockhash": "00000000000000000004ffacab907a6b429b9a5745fa0b75af4234bf69dd7176", "vout": [{"scriptPubKey": {"reqSigs": 1, "hex": "a9143f94737195bace180513e4eb48ed2535f61c59e787", "addresses": ["37VCLBWd1xEqtaUyCo9gFJrq5EqgBqKq3t"], "asm": "OP_HASH160 3f94737195bace180513e4eb48ed2535f61c59e7 OP_EQUAL", "type": "scripthash"}, "value": 0.01564274, "n": 0}, {"scriptPubKey": {"reqSigs": 1, "hex": "76a9146e6fde20783eade79e5193bf476c01a17ab683ee88ac", "addresses": ["1B4wLoeQNcGtYTc8Sbg8KWR3vaSAA26PmQ"], "asm": "OP_DUP OP_HASH160 6e6fde20783eade79e5193bf476c01a17ab683ee OP_EQUALVERIFY OP_CHECKSIG", "type": "pubkeyhash"}, "value": 59.82840946, "n": 1}], "hex": "0100000001c4812242dbb555e199a6a2180896db3af9a22f0a07285c98b83e91a3a550a3c0010000006a473044022044afaf82c8d4a4260d951d347c2edd861cbda3edb0cbddc5fa1d711bd71d0a12022015b4b54eb4e586fdb08904dfab3d2e1d6dc6515292fdcaf8c69c7d61916ca238012102349914eb768c4bf4df3a4109e2fabb0b644f242bf0e6d568fff0cc56f88c65f9ffffffff0272de17000000000017a9143f94737195bace180513e4eb48ed2535f61c59e78772e89a64010000001976a9146e6fde20783eade79e5193bf476c01a17ab683ee88ac00000000", "vin": [{"sequence": 4294967295, "scriptSig": {"hex": "473044022044afaf82c8d4a4260d951d347c2edd861cbda3edb0cbddc5fa1d711bd71d0a12022015b4b54eb4e586fdb08904dfab3d2e1d6dc6515292fdcaf8c69c7d61916ca238012102349914eb768c4bf4df3a4109e2fabb0b644f242bf0e6d568fff0cc56f88c65f9", "asm": "3044022044afaf82c8d4a4260d951d347c2edd861cbda3edb0cbddc5fa1d711bd71d0a12022015b4b54eb4e586fdb08904dfab3d2e1d6dc6515292fdcaf8c69c7d61916ca238[ALL] 02349914eb768c4bf4df3a4109e2fabb0b644f242bf0e6d568fff0cc56f88c65f9"}, "vout": 1, "txid": "c0a350a5a3913eb8985c28070a2fa2f93adb960818a2a699e155b5db422281c4"}], "txid": "c91feab6f9b843baaaa86db21df27a3d875132945e567229202a13f3bc32a313", "blocktime": 1537875543, "version": 1, "confirmations": 11464, "time": 1537875543, "locktime": 0, "vsize": 223, "size": 223}