{"hash": "a447ce1f9fe6c78810e959f1b361e32628554158288d30ee787758be9371339f", "blockhash": "00000000000000000018f53835495a110e01622372bf6ae95dc86f2b0ab887b0", "vout": [{"scriptPubKey": {"reqSigs": 1, "hex": "76a914dcd9ddc3b38a09b0363c38386dde8d4f046df4c488ac", "addresses": ["1M8kepM9GkGxEKZUDkVJxEamAwm1VnQdRN"], "asm": "OP_DUP OP_HASH160 dcd9ddc3b38a09b0363c38386dde8d4f046df4c4 OP_EQUALVERIFY OP_CHECKSIG", "type": "pubkeyhash"}, "value": 0.0286, "n": 0}, {"scriptPubKey": {"reqSigs": 1, "hex": "a9141988a27e3c2df4ddee7fad5a2303d086179b2a3087", "addresses": ["3422VtS7UtCvXYxoXMVp6eZupR252z85oC"], "asm": "OP_HASH160 1988a27e3c2df4ddee7fad5a2303d086179b2a30 OP_EQUAL", "type": "scripthash"}, "value": 2.25508942, "n": 1}], "hex": "01000000000101a55b9b35bc51991b9edc4ec1d499d182f5aa9db28a59d9b585829359462cf7df010000002322002065d416c48a8072e0ac51c2d111eb194f009caef0332446c1bf2097316cf07fa9ffffffff02e0a32b00000000001976a914dcd9ddc3b38a09b0363c38386dde8d4f046df4c488ac4efe700d0000000017a9141988a27e3c2df4ddee7fad5a2303d086179b2a30870400473044022054d0a8107d7f96be9a3db37058cbded00690fa7ac0a108614e830bbbc5fb10fd022013ed4c946f88b8ba883ddf5fcc7b57a62ffaff1ee53ce85793d0f3b26b6ff31f0147304402205e1a5512b12e3fa5169e8877a6d7092499b852f6f48b2292688eeff1a8a0ecb4022038fa9362c6ef64f7123e57f16c2eddb933399c11fa4d695c27dc1caa3f07debc0169522102f44abcf9e23c9a460da309ccca56c619c04eed3bde2c2cff5e7d78fbcd980b9c2103c9443cf3047bb6c2c82f1b0c44c36109cdc3d0d601d16d1189a1602bf8d1a0a02103bfe867059274412412e088af5572b92168c2ef495cfe6c9b7a753a009eb37c4853ae00000000", "vin": [{"txinwitness": ["", "3044022054d0a8107d7f96be9a3db37058cbded00690fa7ac0a108614e830bbbc5fb10fd022013ed4c946f88b8ba883ddf5fcc7b57a62ffaff1ee53ce85793d0f3b26b6ff31f01", "304402205e1a5512b12e3fa5169e8877a6d7092499b852f6f48b2292688eeff1a8a0ecb4022038fa9362c6ef64f7123e57f16c2eddb933399c11fa4d695c27dc1caa3f07debc01", "522102f44abcf9e23c9a460da309ccca56c619c04eed3bde2c2cff5e7d78fbcd980b9c2103c9443cf3047bb6c2c82f1b0c44c36109cdc3d0d601d16d1189a1602bf8d1a0a02103bfe867059274412412e088af5572b92168c2ef495cfe6c9b7a753a009eb37c4853ae"], "sequence": 4294967295, "scriptSig": {"hex": "22002065d416c48a8072e0ac51c2d111eb194f009caef0332446c1bf2097316cf07fa9", "asm": "002065d416c48a8072e0ac51c2d111eb194f009caef0332446c1bf2097316cf07fa9"}, "vout": 1, "txid": "dff72c4659938285b5d9598ab29daaf582d199d4c14edc9e1b9951bc359b5ba5"}], "txid": "c9215db4607ca76c9a87c9566e16e8c3ae29166ea94610dbfacf35eabe967e02", "blocktime": 1537870928, "version": 1, "confirmations": 11512, "time": 1537870928, "locktime": 0, "vsize": 216, "size": 406}