{"hash": "c926af35df1f317883aaf53aa4c51d3b5e47a863605c9923ec70955951350bd2", "blockhash": "0000000000000000001f76057863aec43deb6fa401d9628bb513d65a8098bfab", "vout": [{"scriptPubKey": {"reqSigs": 1, "hex": "a9149f65a39c6cd904309f684c220b2459d6f5b1c2af87", "addresses": ["3GDq844k7X4Yq8EQsg7rVCc2uaLMhk1JtC"], "asm": "OP_HASH160 9f65a39c6cd904309f684c220b2459d6f5b1c2af OP_EQUAL", "type": "scripthash"}, "value": 0.1, "n": 0}, {"scriptPubKey": {"reqSigs": 1, "hex": "76a9141b3e0cf27f894c17f8341f262c260222857efb8788ac", "addresses": ["13V3aXgTe6nkRZYubM65u6ghmNJsGrgPmR"], "asm": "OP_DUP OP_HASH160 1b3e0cf27f894c17f8341f262c260222857efb87 OP_EQUALVERIFY OP_CHECKSIG", "type": "pubkeyhash"}, "value": 0.07236819, "n": 1}], "hex": "010000000293ed7504cc55927b72c88caf3cff024c2793f173d99349c48b15996af990f208010000006a47304402203c049d0983292c385ea16f57fc21beed4bf886c42fa88ca816ca2c94acd1d0610220325185540d3c1701681fa87da6bd8236c03d215237c545e1bb72e1109124d1f30121028b71a85b5508ebee40a5d831f6dc82ad822cebad7e155be7cd38469d785bbe9affffffffcea6bc26584c227f7609873bf8cd605ffd7224f073d7dc285501d2592d1f0842010000006b48304502210089e50d4bc7462efeb9e9e3e89556a1f4627d6445383241b6816ea62e670b30fb02201a3a5dd649d41b04e21e04db3becf9b32d5a94e3ae299071b6f9bee9d033578701210387257221d2ac1a61e265526efedbeff517f2aa0d4811ede03c3a561fac453ed3ffffffff02809698000000000017a9149f65a39c6cd904309f684c220b2459d6f5b1c2af87d36c6e00000000001976a9141b3e0cf27f894c17f8341f262c260222857efb8788ac00000000", "vin": [{"sequence": 4294967295, "scriptSig": {"hex": "47304402203c049d0983292c385ea16f57fc21beed4bf886c42fa88ca816ca2c94acd1d0610220325185540d3c1701681fa87da6bd8236c03d215237c545e1bb72e1109124d1f30121028b71a85b5508ebee40a5d831f6dc82ad822cebad7e155be7cd38469d785bbe9a", "asm": "304402203c049d0983292c385ea16f57fc21beed4bf886c42fa88ca816ca2c94acd1d0610220325185540d3c1701681fa87da6bd8236c03d215237c545e1bb72e1109124d1f3[ALL] 028b71a85b5508ebee40a5d831f6dc82ad822cebad7e155be7cd38469d785bbe9a"}, "vout": 1, "txid": "08f290f96a99158bc44993d973f193274c02ff3caf8cc8727b9255cc0475ed93"}, {"sequence": 4294967295, "scriptSig": {"hex": "48304502210089e50d4bc7462efeb9e9e3e89556a1f4627d6445383241b6816ea62e670b30fb02201a3a5dd649d41b04e21e04db3becf9b32d5a94e3ae299071b6f9bee9d033578701210387257221d2ac1a61e265526efedbeff517f2aa0d4811ede03c3a561fac453ed3", "asm": "304502210089e50d4bc7462efeb9e9e3e89556a1f4627d6445383241b6816ea62e670b30fb02201a3a5dd649d41b04e21e04db3becf9b32d5a94e3ae299071b6f9bee9d0335787[ALL] 0387257221d2ac1a61e265526efedbeff517f2aa0d4811ede03c3a561fac453ed3"}, "vout": 1, "txid": "42081f2d59d2015528dcd773f02472fd5f60cdf83b8709767f224c5826bca6ce"}], "txid": "c926af35df1f317883aaf53aa4c51d3b5e47a863605c9923ec70955951350bd2", "blocktime": 1537873891, "version": 1, "confirmations": 11475, "time": 1537873891, "locktime": 0, "vsize": 371, "size": 371}