{"hash": "c927763825ed2ab30c51e65647367c7e28fd3b73f908f5e2f21cdbf0ef3a1788", "blockhash": "00000000000000000004ffacab907a6b429b9a5745fa0b75af4234bf69dd7176", "vout": [{"scriptPubKey": {"reqSigs": 1, "hex": "76a914fb1bccd8357160390ca2b9b2a6c066a1d57c83a488ac", "addresses": ["1PtjujtKb7WP4MK8c6xjoH2YjPMF4UA8t5"], "asm": "OP_DUP OP_HASH160 fb1bccd8357160390ca2b9b2a6c066a1d57c83a4 OP_EQUALVERIFY OP_CHECKSIG", "type": "pubkeyhash"}, "value": 0.02, "n": 0}, {"scriptPubKey": {"reqSigs": 1, "hex": "76a9147f0c56e48fcb6bab2757b10664179d9fb5e84c6b88ac", "addresses": ["1Cambiobai1XfTSPtYD4vK32BwYtjH2sYW"], "asm": "OP_DUP OP_HASH160 7f0c56e48fcb6bab2757b10664179d9fb5e84c6b OP_EQUALVERIFY OP_CHECKSIG", "type": "pubkeyhash"}, "value": 15.52165549, "n": 1}], "hex": "010000000130267e489038d1bbf482c3d4a4a50953950dd8561a714e515ffcf9ebd1289fcd010000006a473044022030e3437ab3dc4bf480a6066ee75d43024a8e767261691b92c14beec76f200389022047186f55ab28f21ed6395f9cf49d02d5646d5b9d98784776a813a387c13f24f8012103c057886e5a60779095ae9b589040f47b5b0d9f25672c91c60a55081b92ba051affffffff0280841e00000000001976a914fb1bccd8357160390ca2b9b2a6c066a1d57c83a488acad2a845c000000001976a9147f0c56e48fcb6bab2757b10664179d9fb5e84c6b88ac00000000", "vin": [{"sequence": 4294967295, "scriptSig": {"hex": "473044022030e3437ab3dc4bf480a6066ee75d43024a8e767261691b92c14beec76f200389022047186f55ab28f21ed6395f9cf49d02d5646d5b9d98784776a813a387c13f24f8012103c057886e5a60779095ae9b589040f47b5b0d9f25672c91c60a55081b92ba051a", "asm": "3044022030e3437ab3dc4bf480a6066ee75d43024a8e767261691b92c14beec76f200389022047186f55ab28f21ed6395f9cf49d02d5646d5b9d98784776a813a387c13f24f8[ALL] 03c057886e5a60779095ae9b589040f47b5b0d9f25672c91c60a55081b92ba051a"}, "vout": 1, "txid": "cd9f28d1ebf9fc5f514e711a56d80d955309a5a4d4c382f4bbd13890487e2630"}], "txid": "c927763825ed2ab30c51e65647367c7e28fd3b73f908f5e2f21cdbf0ef3a1788", "blocktime": 1537875543, "version": 1, "confirmations": 11464, "time": 1537875543, "locktime": 0, "vsize": 225, "size": 225}