{"hash": "c9286288673162190c5d3acb3aee9e6f385331feae4263b5196c602130d4ac19", "blockhash": "000000000000000000022b45ed06c6f4ccd3cf7fb5ba4856ebd2e58215665228", "vout": [{"scriptPubKey": {"reqSigs": 1, "hex": "76a914756f36f987fa5c731a5da9dd763aecc036b0158a88ac", "addresses": ["1BhwHnFJc6SQKZCKs6te9PDLQoR55fH17k"], "asm": "OP_DUP OP_HASH160 756f36f987fa5c731a5da9dd763aecc036b0158a OP_EQUALVERIFY OP_CHECKSIG", "type": "pubkeyhash"}, "value": 0.00995953, "n": 0}, {"scriptPubKey": {"reqSigs": 1, "hex": "a91439b1a4770f20ac1ced47af3415232b57300b9a3d87", "addresses": ["36x5FHrFsCowKCNUjisdbUbZ7oAbGWRTht"], "asm": "OP_HASH160 39b1a4770f20ac1ced47af3415232b57300b9a3d OP_EQUAL", "type": "scripthash"}, "value": 1.13543549, "n": 1}], "hex": "020000000a9465ac64fe7641c8de7496c18a45ea5def238f2c730936d26c8a7a5b355cdb2e000000006b48304502210096026a301c561f8db56c5d0b66417306132269016f88c2fed6c91e51043d1e43022020f363425613921037d1f8dfc5193a595455360c6524d96dfb15a5440d4c47d4012103a5c77beff60d4765ce75e9b72055dc8ce4b5568bf044640acea2b00a47e0194ffeffffff1495399f6ad661340db439fc696fc90152aa8af0f15078db4095de1a2606c7cb000000006a47304402204445c48295ee400f85c0d0bcda61c9b4b24606df71a0e2161267145bac439ff602203815076a09571a3159be061fec1678373cb5e451bcaab1c570271263da12d71501210226374336988f85c8e76ab352b86869e62aa846c14702559a1e80d38eb8538dd7feffffffdefd40a884a1eba6941d7cb786380aa6f1683743a43ca7928a9a66ff6671400e000000006b483045022100e8edb87249cebb238c87f33a82b76a2cfcbc3a3142ec67f762d9fd017dcdba2a022059ed4f9b66267cbd861b62848cc4d920b2fd3e28c11ed979c306153834ce28c2012102b69ab1432aba85216ec71722b6eedc077d11f6db5e47fbbe148edfeb5ae8a423feffffff41022805e1faa27b16e381f32250080d573cb56794c1738a92c1cf124ab30cb2000000006a473044022046250a82d9a7b2136cc914676d3a81c91c5a79f939a25fd4ab239a83295eee6302206d99424cc5e2263eef90299650e8425b242c0e1e413556fa75893508bafea3f401210372636bb4e3b5a38d857f0f87d03c6607b8536fa916c0b72f0521fc80c6525301feffffff576837c13405a5fcdc9c766d244704fae69151f3d0844624121310fed7709f30000000006a473044022024317aaf61b7757d388ee123a1bcd30fcd5deed27b5a4919a39fb13ce4056e5402204174e8bd4cab13d34345df8fb914c6894dd17e7abc1d2eb4c4c663295ae6ea8201210340c682001f7b8e0ad7f156e67898ac719edc5e554b0ab8b831fa368e6cab692efeffffffc2a699566b566e0762fdeaf8be47f35c5351413dc853d2c4b094accb6e571577000000006a4730440220785bbb2a17dcd064543ae494ce4802d017625b120e06bf4f95896c184fb3eb3e02201144bca552f0d36aea189baf4a3485312cec29c0b7480ab670945badddeaa23101210373ac5a9f145efeaf4c598c7db821536927b361d6279a7b2b084d94aa29081124feffffffc6afc830af770cfdd1be088e1a1d792a5170c712a4bca701cf70f474956326d8000000006a47304402205600b0ca875460636a6da49fe516f361bc6b208415041767aed1ec6fdd7d4cf0022018dfd425f5e8767cc2495f650017a10d0a4c6c3c30b83a95b042c2b84947e82b012103b064c72767bdca2e2bc4cb4d5452030326e516dca3eca76c2ba74d3ead3bd870feffffffbcb94c20dda271208275afee644a0ae3f91be47474cfab71a4a5e08fb1527025000000006b483045022100dea91468c3433c965aa591a65ea4951bd7dd9dd93f3fcf831f8e78a37be31f43022038fdcb30f0396dea0942c6535e69984d5d6e671e172ccf52b338e2e99483ef4d012103a61949bd95497b1e0c269b61dcc2302d0f21f261ef8e214d2970caa0d9d0939afeffffffccf43c31d90e13ce0fa50ea14839ab8447be1c17363fd6cdc0f7912ca7db1866010000006a473044022051b5d8c0939c59b1868df7f4f6da680bd07c1040c0ae1e3bcc7ea55d8f8d5e6902200d3049af33768cff86addf63e301fdcf61fd8a5c9b473b0c05895fd78a2f49d001210221fb1a8cb922bcc5987151e0871f4b4031777eed56e8375730ff6e3b2a00ff38feffffffd63fd222ff94e09a21b8501b320ebc127f8eeb779771b441989e4d4592e00e5b010000006a47304402202072e43b8d8f3c0bdbade702b821893e63622661fb09a91acf69cf17c9f3851f02200c07ca9e44b9def92b051782bc354a7feb33a7392a19d0bbfd9692c0898935e9012102fc02282b8dcba9a3b319ca46a541b7e6b512f6fdbfa51c617ba6921550751327feffffff0271320f00000000001976a914756f36f987fa5c731a5da9dd763aecc036b0158a88ac7d89c4060000000017a91439b1a4770f20ac1ced47af3415232b57300b9a3d87ac480800", "vin": [{"sequence": 4294967294, "scriptSig": {"hex": "48304502210096026a301c561f8db56c5d0b66417306132269016f88c2fed6c91e51043d1e43022020f363425613921037d1f8dfc5193a595455360c6524d96dfb15a5440d4c47d4012103a5c77beff60d4765ce75e9b72055dc8ce4b5568bf044640acea2b00a47e0194f", "asm": "304502210096026a301c561f8db56c5d0b66417306132269016f88c2fed6c91e51043d1e43022020f363425613921037d1f8dfc5193a595455360c6524d96dfb15a5440d4c47d4[ALL] 03a5c77beff60d4765ce75e9b72055dc8ce4b5568bf044640acea2b00a47e0194f"}, "vout": 0, "txid": "2edb5c355b7a8a6cd23609732c8f23ef5dea458ac19674dec84176fe64ac6594"}, {"sequence": 4294967294, "scriptSig": {"hex": "47304402204445c48295ee400f85c0d0bcda61c9b4b24606df71a0e2161267145bac439ff602203815076a09571a3159be061fec1678373cb5e451bcaab1c570271263da12d71501210226374336988f85c8e76ab352b86869e62aa846c14702559a1e80d38eb8538dd7", "asm": "304402204445c48295ee400f85c0d0bcda61c9b4b24606df71a0e2161267145bac439ff602203815076a09571a3159be061fec1678373cb5e451bcaab1c570271263da12d715[ALL] 0226374336988f85c8e76ab352b86869e62aa846c14702559a1e80d38eb8538dd7"}, "vout": 0, "txid": "cbc706261ade9540db7850f1f08aaa5201c96f69fc39b40d3461d66a9f399514"}, {"sequence": 4294967294, "scriptSig": {"hex": "483045022100e8edb87249cebb238c87f33a82b76a2cfcbc3a3142ec67f762d9fd017dcdba2a022059ed4f9b66267cbd861b62848cc4d920b2fd3e28c11ed979c306153834ce28c2012102b69ab1432aba85216ec71722b6eedc077d11f6db5e47fbbe148edfeb5ae8a423", "asm": "3045022100e8edb87249cebb238c87f33a82b76a2cfcbc3a3142ec67f762d9fd017dcdba2a022059ed4f9b66267cbd861b62848cc4d920b2fd3e28c11ed979c306153834ce28c2[ALL] 02b69ab1432aba85216ec71722b6eedc077d11f6db5e47fbbe148edfeb5ae8a423"}, "vout": 0, "txid": "0e407166ff669a8a92a73ca4433768f1a60a3886b77c1d94a6eba184a840fdde"}, {"sequence": 4294967294, "scriptSig": {"hex": "473044022046250a82d9a7b2136cc914676d3a81c91c5a79f939a25fd4ab239a83295eee6302206d99424cc5e2263eef90299650e8425b242c0e1e413556fa75893508bafea3f401210372636bb4e3b5a38d857f0f87d03c6607b8536fa916c0b72f0521fc80c6525301", "asm": "3044022046250a82d9a7b2136cc914676d3a81c91c5a79f939a25fd4ab239a83295eee6302206d99424cc5e2263eef90299650e8425b242c0e1e413556fa75893508bafea3f4[ALL] 0372636bb4e3b5a38d857f0f87d03c6607b8536fa916c0b72f0521fc80c6525301"}, "vout": 0, "txid": "b20cb34a12cfc1928a73c19467b53c570d085022f381e3167ba2fae105280241"}, {"sequence": 4294967294, "scriptSig": {"hex": "473044022024317aaf61b7757d388ee123a1bcd30fcd5deed27b5a4919a39fb13ce4056e5402204174e8bd4cab13d34345df8fb914c6894dd17e7abc1d2eb4c4c663295ae6ea8201210340c682001f7b8e0ad7f156e67898ac719edc5e554b0ab8b831fa368e6cab692e", "asm": "3044022024317aaf61b7757d388ee123a1bcd30fcd5deed27b5a4919a39fb13ce4056e5402204174e8bd4cab13d34345df8fb914c6894dd17e7abc1d2eb4c4c663295ae6ea82[ALL] 0340c682001f7b8e0ad7f156e67898ac719edc5e554b0ab8b831fa368e6cab692e"}, "vout": 0, "txid": "309f70d7fe101312244684d0f35191e6fa0447246d769cdcfca50534c1376857"}, {"sequence": 4294967294, "scriptSig": {"hex": "4730440220785bbb2a17dcd064543ae494ce4802d017625b120e06bf4f95896c184fb3eb3e02201144bca552f0d36aea189baf4a3485312cec29c0b7480ab670945badddeaa23101210373ac5a9f145efeaf4c598c7db821536927b361d6279a7b2b084d94aa29081124", "asm": "30440220785bbb2a17dcd064543ae494ce4802d017625b120e06bf4f95896c184fb3eb3e02201144bca552f0d36aea189baf4a3485312cec29c0b7480ab670945badddeaa231[ALL] 0373ac5a9f145efeaf4c598c7db821536927b361d6279a7b2b084d94aa29081124"}, "vout": 0, "txid": "7715576ecbac94b0c4d253c83d4151535cf347bef8eafd62076e566b5699a6c2"}, {"sequence": 4294967294, "scriptSig": {"hex": "47304402205600b0ca875460636a6da49fe516f361bc6b208415041767aed1ec6fdd7d4cf0022018dfd425f5e8767cc2495f650017a10d0a4c6c3c30b83a95b042c2b84947e82b012103b064c72767bdca2e2bc4cb4d5452030326e516dca3eca76c2ba74d3ead3bd870", "asm": "304402205600b0ca875460636a6da49fe516f361bc6b208415041767aed1ec6fdd7d4cf0022018dfd425f5e8767cc2495f650017a10d0a4c6c3c30b83a95b042c2b84947e82b[ALL] 03b064c72767bdca2e2bc4cb4d5452030326e516dca3eca76c2ba74d3ead3bd870"}, "vout": 0, "txid": "d826639574f470cf01a7bca412c770512a791d1a8e08bed1fd0c77af30c8afc6"}, {"sequence": 4294967294, "scriptSig": {"hex": "483045022100dea91468c3433c965aa591a65ea4951bd7dd9dd93f3fcf831f8e78a37be31f43022038fdcb30f0396dea0942c6535e69984d5d6e671e172ccf52b338e2e99483ef4d012103a61949bd95497b1e0c269b61dcc2302d0f21f261ef8e214d2970caa0d9d0939a", "asm": "3045022100dea91468c3433c965aa591a65ea4951bd7dd9dd93f3fcf831f8e78a37be31f43022038fdcb30f0396dea0942c6535e69984d5d6e671e172ccf52b338e2e99483ef4d[ALL] 03a61949bd95497b1e0c269b61dcc2302d0f21f261ef8e214d2970caa0d9d0939a"}, "vout": 0, "txid": "257052b18fe0a5a471abcf7474e41bf9e30a4a64eeaf75822071a2dd204cb9bc"}, {"sequence": 4294967294, "scriptSig": {"hex": "473044022051b5d8c0939c59b1868df7f4f6da680bd07c1040c0ae1e3bcc7ea55d8f8d5e6902200d3049af33768cff86addf63e301fdcf61fd8a5c9b473b0c05895fd78a2f49d001210221fb1a8cb922bcc5987151e0871f4b4031777eed56e8375730ff6e3b2a00ff38", "asm": "3044022051b5d8c0939c59b1868df7f4f6da680bd07c1040c0ae1e3bcc7ea55d8f8d5e6902200d3049af33768cff86addf63e301fdcf61fd8a5c9b473b0c05895fd78a2f49d0[ALL] 0221fb1a8cb922bcc5987151e0871f4b4031777eed56e8375730ff6e3b2a00ff38"}, "vout": 1, "txid": "6618dba72c91f7c0cdd63f36171cbe4784ab3948a10ea50fce130ed9313cf4cc"}, {"sequence": 4294967294, "scriptSig": {"hex": "47304402202072e43b8d8f3c0bdbade702b821893e63622661fb09a91acf69cf17c9f3851f02200c07ca9e44b9def92b051782bc354a7feb33a7392a19d0bbfd9692c0898935e9012102fc02282b8dcba9a3b319ca46a541b7e6b512f6fdbfa51c617ba6921550751327", "asm": "304402202072e43b8d8f3c0bdbade702b821893e63622661fb09a91acf69cf17c9f3851f02200c07ca9e44b9def92b051782bc354a7feb33a7392a19d0bbfd9692c0898935e9[ALL] 02fc02282b8dcba9a3b319ca46a541b7e6b512f6fdbfa51c617ba6921550751327"}, "vout": 1, "txid": "5b0ee092454d9e9841b4719777eb8e7f12bc0e321b50b8219ae094ff22d23fd6"}], "txid": "c9286288673162190c5d3acb3aee9e6f385331feae4263b5196c602130d4ac19", "blocktime": 1537869901, "version": 2, "confirmations": 11523, "time": 1537869901, "locktime": 542892, "vsize": 1549, "size": 1549}