{"hash": "c92883cae0fb05b8265cf686ea850a8205b6298ecf2a867374906a5a775617aa", "blockhash": "0000000000000000001cda96e906b7601b7a6fb1a3b62bca570a9e5d8f4b3de1", "vout": [{"scriptPubKey": {"type": "nulldata", "hex": "6a146f6d6e69000000000000001f00000017d2e4643a", "asm": "OP_RETURN 6f6d6e69000000000000001f00000017d2e4643a"}, "value": 0.0, "n": 0}, {"scriptPubKey": {"reqSigs": 1, "hex": "76a914a25dec4d0011064ef106a983c39c7a540699f22088ac", "addresses": ["1FoWyxwPXuj4C6abqwhjDWdz6D4PZgYRjA"], "asm": "OP_DUP OP_HASH160 a25dec4d0011064ef106a983c39c7a540699f220 OP_EQUALVERIFY OP_CHECKSIG", "type": "pubkeyhash"}, "value": 0.01985564, "n": 1}, {"scriptPubKey": {"reqSigs": 1, "hex": "76a91425da57e2fcb8d6c361092c35b93b46e314453c1788ac", "addresses": ["14T9Zrgs9xbW5gMcaWqGXe1xTTEyTAkCTz"], "asm": "OP_DUP OP_HASH160 25da57e2fcb8d6c361092c35b93b46e314453c17 OP_EQUALVERIFY OP_CHECKSIG", "type": "pubkeyhash"}, "value": 5.46e-06, "n": 2}], "hex": "010000000160b9a5dbad86344034321b6738a86eb7a0fd80da6cc719065d25a9b90473db4c000000006b48304502210094634476d1a6b2fa3a6a039d57b9648fd98bb841e7153dcd5e9ce89e916b0581022010ade25c3b44382f8c80633e7e3cbed37cdbe373e0a1a396b2c95964c0414fa2012103da5bac7b36d5aa38f531c6b9601e21bb598a4b6716ebed38b009a55dabde9440feffffff030000000000000000166a146f6d6e69000000000000001f00000017d2e4643a1c4c1e00000000001976a914a25dec4d0011064ef106a983c39c7a540699f22088ac22020000000000001976a91425da57e2fcb8d6c361092c35b93b46e314453c1788ac13490800", "vin": [{"sequence": 4294967294, "scriptSig": {"hex": "48304502210094634476d1a6b2fa3a6a039d57b9648fd98bb841e7153dcd5e9ce89e916b0581022010ade25c3b44382f8c80633e7e3cbed37cdbe373e0a1a396b2c95964c0414fa2012103da5bac7b36d5aa38f531c6b9601e21bb598a4b6716ebed38b009a55dabde9440", "asm": "304502210094634476d1a6b2fa3a6a039d57b9648fd98bb841e7153dcd5e9ce89e916b0581022010ade25c3b44382f8c80633e7e3cbed37cdbe373e0a1a396b2c95964c0414fa2[ALL] 03da5bac7b36d5aa38f531c6b9601e21bb598a4b6716ebed38b009a55dabde9440"}, "vout": 0, "txid": "4cdb7304b9a9255d0619c76cda80fda0b76ea838671b3234403486addba5b960"}], "txid": "c92883cae0fb05b8265cf686ea850a8205b6298ecf2a867374906a5a775617aa", "blocktime": 1537873282, "version": 1, "confirmations": 11481, "time": 1537873282, "locktime": 542995, "vsize": 257, "size": 257}