{"hash": "c92da646adc660b4b0e452828ea1161828c218455c47eefa315b5803d33f0c5d", "blockhash": "0000000000000000000dcc0f55137456b1a82d3642486a52398922ac4d620174", "vout": [{"scriptPubKey": {"reqSigs": 1, "hex": "76a91460f01ec23d9f73ba4df44e36ec1c336734fc3ccf88ac", "addresses": ["19qZXFsHATE4vCbta9CQYCgyk8jJ4pNYd2"], "asm": "OP_DUP OP_HASH160 60f01ec23d9f73ba4df44e36ec1c336734fc3ccf OP_EQUALVERIFY OP_CHECKSIG", "type": "pubkeyhash"}, "value": 3.227e-05, "n": 0}, {"scriptPubKey": {"reqSigs": 1, "hex": "76a914ec9bfce70884fcf31776ded9a153186dd268772388ac", "addresses": ["1Na5LW5NFWHqYWzmNqn3cJCpCmXpSG3TD4"], "asm": "OP_DUP OP_HASH160 ec9bfce70884fcf31776ded9a153186dd2687723 OP_EQUALVERIFY OP_CHECKSIG", "type": "pubkeyhash"}, "value": 0.0124672, "n": 1}], "hex": "0100000002d8bcb8cb2041b39462368390b45973fca728b33ad52d589cbd0acda4f2a2a5aa000000006a473044022020ba348d02db797cdf046ecf07efa8eecc84bcce8736bd48364ffeb911e4a07e02201ee3e3c6c2c6b767e0272cd17bc1495543e754e9d2a8b3e0019087fd905e70b301210230939ea0ff2e9b8553dec7efae3d447f4c92d0f89fac5ef75b08d3e0fe50bf7affffffff5b0db1371c18d4c4e0356ee8c233d0a1db0508188ca384a49dc23645ed28e5fd000000006a473044022078c75e3e122956f482b5dd1aa605e4ea9ac6653ab6e81fc98ea46128313e4c0902207458f12a8744596bfe7b742b23a0c43a61d24f9d18b843609ccc509312e7ae62012103a2c0a5f0ea4a5228b52180dac8c75a94068b6151e1eb19ec5646991cb55077d7ffffffff029b0c0000000000001976a91460f01ec23d9f73ba4df44e36ec1c336734fc3ccf88ac00061300000000001976a914ec9bfce70884fcf31776ded9a153186dd268772388ac00000000", "vin": [{"sequence": 4294967295, "scriptSig": {"hex": "473044022020ba348d02db797cdf046ecf07efa8eecc84bcce8736bd48364ffeb911e4a07e02201ee3e3c6c2c6b767e0272cd17bc1495543e754e9d2a8b3e0019087fd905e70b301210230939ea0ff2e9b8553dec7efae3d447f4c92d0f89fac5ef75b08d3e0fe50bf7a", "asm": "3044022020ba348d02db797cdf046ecf07efa8eecc84bcce8736bd48364ffeb911e4a07e02201ee3e3c6c2c6b767e0272cd17bc1495543e754e9d2a8b3e0019087fd905e70b3[ALL] 0230939ea0ff2e9b8553dec7efae3d447f4c92d0f89fac5ef75b08d3e0fe50bf7a"}, "vout": 0, "txid": "aaa5a2f2a4cd0abd9c582dd53ab328a7fc7359b49083366294b34120cbb8bcd8"}, {"sequence": 4294967295, "scriptSig": {"hex": "473044022078c75e3e122956f482b5dd1aa605e4ea9ac6653ab6e81fc98ea46128313e4c0902207458f12a8744596bfe7b742b23a0c43a61d24f9d18b843609ccc509312e7ae62012103a2c0a5f0ea4a5228b52180dac8c75a94068b6151e1eb19ec5646991cb55077d7", "asm": "3044022078c75e3e122956f482b5dd1aa605e4ea9ac6653ab6e81fc98ea46128313e4c0902207458f12a8744596bfe7b742b23a0c43a61d24f9d18b843609ccc509312e7ae62[ALL] 03a2c0a5f0ea4a5228b52180dac8c75a94068b6151e1eb19ec5646991cb55077d7"}, "vout": 0, "txid": "fde528ed4536c29da484a38c180805dba1d033c2e86e35e0c4d4181c37b10d5b"}], "txid": "c92da646adc660b4b0e452828ea1161828c218455c47eefa315b5803d33f0c5d", "blocktime": 1537870268, "version": 1, "confirmations": 11518, "time": 1537870268, "locktime": 0, "vsize": 372, "size": 372}