{"hash": "94d3099ad022ff0873356fefef6f4aa5db476ef3aa96aab6406485a26e8226b2", "blockhash": "0000000000000000000e13cef7c366c0283d82e591d1acd082e914b08063cdf1", "vout": [{"scriptPubKey": {"reqSigs": 1, "hex": "a914079382dfff3684656020e0b0f9c83510fd05fbaa87", "addresses": ["32P5N9TCzPWXWrSa35PeD8RVfvNMLPnfN5"], "asm": "OP_HASH160 079382dfff3684656020e0b0f9c83510fd05fbaa OP_EQUAL", "type": "scripthash"}, "value": 0.10031781, "n": 0}, {"scriptPubKey": {"reqSigs": 1, "hex": "a914f624b88bea2e1d5e6b828fac56f97cd8d47db68e87", "addresses": ["3Q8W99QtyssdaYDWN3jC2KwkT2dwxaZgwj"], "asm": "OP_HASH160 f624b88bea2e1d5e6b828fac56f97cd8d47db68e OP_EQUAL", "type": "scripthash"}, "value": 0.1219448, "n": 1}], "hex": "0100000000010152005659878923a7da81d524108e8e16a11c1d5717f3b4b50051316ade121c590000000023220020677950e5513a7f1b85b7243843d527184f36a3085691e7720df4eaf08cd6a27bffffffff02a51299000000000017a914079382dfff3684656020e0b0f9c83510fd05fbaa87b012ba000000000017a914f624b88bea2e1d5e6b828fac56f97cd8d47db68e87040047304402202f96f08c0aeefa666de4a64c7669c8745d936e38ecc1a95e7ef4fd154b54f83502206aac565484a498308f5938815ad5e4b88003b21388aaa170f9a4e7c624271cef014730440220622e335035043220e092ddbac279f7c4bddef91bfcaed5bd5b6099a9af9a44b5022045e1ee80d6339718f3097443a276a70f37653b8ea4382f441b7c67cc1dc45db00169522102dd48b52c05f1b92d885ee6e8ddbe7321902fdc3a55249ef2cf30ca32e9f9b2d921036b974b104787f01b244e1ca62067b570ba5179e2c1a96ecef9b55797ac0829f12103e78b7bc60899dc6154a4e12eb9149bcc6f07f09132aa9932967f7a3b684e4e6053ae00000000", "vin": [{"txinwitness": ["", "304402202f96f08c0aeefa666de4a64c7669c8745d936e38ecc1a95e7ef4fd154b54f83502206aac565484a498308f5938815ad5e4b88003b21388aaa170f9a4e7c624271cef01", "30440220622e335035043220e092ddbac279f7c4bddef91bfcaed5bd5b6099a9af9a44b5022045e1ee80d6339718f3097443a276a70f37653b8ea4382f441b7c67cc1dc45db001", "522102dd48b52c05f1b92d885ee6e8ddbe7321902fdc3a55249ef2cf30ca32e9f9b2d921036b974b104787f01b244e1ca62067b570ba5179e2c1a96ecef9b55797ac0829f12103e78b7bc60899dc6154a4e12eb9149bcc6f07f09132aa9932967f7a3b684e4e6053ae"], "sequence": 4294967295, "scriptSig": {"hex": "220020677950e5513a7f1b85b7243843d527184f36a3085691e7720df4eaf08cd6a27b", "asm": "0020677950e5513a7f1b85b7243843d527184f36a3085691e7720df4eaf08cd6a27b"}, "vout": 0, "txid": "591c12de6a315100b5b4f317571d1ca1168e8e1024d581daa723898759560052"}], "txid": "c93153f6be16db93fa22f4d18fd9e7803de980240c1cabda946e6d3be40f66fc", "blocktime": 1537871767, "version": 1, "confirmations": 11495, "time": 1537871767, "locktime": 0, "vsize": 214, "size": 404}