{"hash": "c9369a92a9975844e4aa4437a35517876cdc3526e4ceebe7fc37021803df49a4", "blockhash": "0000000000000000001cda96e906b7601b7a6fb1a3b62bca570a9e5d8f4b3de1", "vout": [{"scriptPubKey": {"reqSigs": 1, "hex": "76a91437238ac9e6682da430b582c79aeb6734dac4481b88ac", "addresses": ["162Yk4bqTjKkBJSFnqwpQJyHuyYd1HWnhc"], "asm": "OP_DUP OP_HASH160 37238ac9e6682da430b582c79aeb6734dac4481b OP_EQUALVERIFY OP_CHECKSIG", "type": "pubkeyhash"}, "value": 0.0012754, "n": 0}, {"scriptPubKey": {"type": "nulldata", "hex": "6a4c50000077d500017b7451d3863b8d420c7093555b23cc0f42c2fc38c5e5bf9ae76da98a211a5bd994bab65537662fb9fa51cd26c93f5baa151f0612d711973bc782bc9a9526289ac0f6612cd74e33776ee4", "asm": "OP_RETURN 000077d500017b7451d3863b8d420c7093555b23cc0f42c2fc38c5e5bf9ae76da98a211a5bd994bab65537662fb9fa51cd26c93f5baa151f0612d711973bc782bc9a9526289ac0f6612cd74e33776ee4"}, "value": 0.0, "n": 1}], "hex": "01000000018a4a76c07c062183f84068623965370c67aa6f56207dfa67649ad70286b39988010000006a47304402202ca0ce54865fc9a07b31e26fc29d3e9779832896f55d8df48d1619748fd7b822022054f84d4596767d6cf4d8dc8957c1b4d3e772bfac23679d183967b33175202161012103325b385c49a56d5ea3c2401237ccd188635519ddb18d86a18250a19f6f7fa48cffffffff0234f20100000000001976a91437238ac9e6682da430b582c79aeb6734dac4481b88ac0000000000000000536a4c50000077d500017b7451d3863b8d420c7093555b23cc0f42c2fc38c5e5bf9ae76da98a211a5bd994bab65537662fb9fa51cd26c93f5baa151f0612d711973bc782bc9a9526289ac0f6612cd74e33776ee400000000", "vin": [{"sequence": 4294967295, "scriptSig": {"hex": "47304402202ca0ce54865fc9a07b31e26fc29d3e9779832896f55d8df48d1619748fd7b822022054f84d4596767d6cf4d8dc8957c1b4d3e772bfac23679d183967b33175202161012103325b385c49a56d5ea3c2401237ccd188635519ddb18d86a18250a19f6f7fa48c", "asm": "304402202ca0ce54865fc9a07b31e26fc29d3e9779832896f55d8df48d1619748fd7b822022054f84d4596767d6cf4d8dc8957c1b4d3e772bfac23679d183967b33175202161[ALL] 03325b385c49a56d5ea3c2401237ccd188635519ddb18d86a18250a19f6f7fa48c"}, "vout": 1, "txid": "8899b38602d79a6467fa7d20566faa670c376539626840f88321067cc0764a8a"}], "txid": "c9369a92a9975844e4aa4437a35517876cdc3526e4ceebe7fc37021803df49a4", "blocktime": 1537873282, "version": 1, "confirmations": 11484, "time": 1537873282, "locktime": 0, "vsize": 283, "size": 283}