{"hash": "c939e03698d10e2a4e1fde328f69f46e8c53f7ed82fe03243f306e55b91dfc94", "blockhash": "00000000000000000024a2167bbff67b0be802c0b01cdd79e6331c2be6459f87", "vout": [{"scriptPubKey": {"reqSigs": 1, "hex": "a9148ce153590a2f2119167144259902228f300c6cce87", "addresses": ["3EXvTJ6dxLyJ2pFGa4zxvAARwQjCZpBG3R"], "asm": "OP_HASH160 8ce153590a2f2119167144259902228f300c6cce OP_EQUAL", "type": "scripthash"}, "value": 0.00627031, "n": 0}, {"scriptPubKey": {"reqSigs": 1, "hex": "76a91437931a685db83bef739e1de793848271a035c2e388ac", "addresses": ["164rPTWaG6BtB9sGWaRzJsqJqStkknxzDg"], "asm": "OP_DUP OP_HASH160 37931a685db83bef739e1de793848271a035c2e3 OP_EQUALVERIFY OP_CHECKSIG", "type": "pubkeyhash"}, "value": 0.00097794, "n": 1}], "hex": "01000000018703b3366c14f35461149829b589c5bbf0d51893786303161ef8cc9be8f7b14700000000db00483045022100cb36a3d0b81250211aa351c60443343b1093f03818e3cd4e0cde319143bd4f550220018f2c46250d53a236a2ce5b301bd4dc41c4bfdd7db5f18c23c0cccf5a4599d101483045022100f6cf43268f60e25ae9fba583cef04315bbee8a0daa37dc6b1a5446d891e37ce50220622040848e8fa7ab744a8d16564e20dd19a333225afe937c104284b4eb1f09eb0147522102907a54bed8ad74b3f35638c60114ca240a308cb986f3f2f306178869a8880b612102a184279adb7057d55c6ce3c6b8d6fedb5a9c5f680652e5219af16a0ce9e46c7252aeffffffff02579109000000000017a9148ce153590a2f2119167144259902228f300c6cce87027e0100000000001976a91437931a685db83bef739e1de793848271a035c2e388ac00000000", "vin": [{"sequence": 4294967295, "scriptSig": {"hex": "00483045022100cb36a3d0b81250211aa351c60443343b1093f03818e3cd4e0cde319143bd4f550220018f2c46250d53a236a2ce5b301bd4dc41c4bfdd7db5f18c23c0cccf5a4599d101483045022100f6cf43268f60e25ae9fba583cef04315bbee8a0daa37dc6b1a5446d891e37ce50220622040848e8fa7ab744a8d16564e20dd19a333225afe937c104284b4eb1f09eb0147522102907a54bed8ad74b3f35638c60114ca240a308cb986f3f2f306178869a8880b612102a184279adb7057d55c6ce3c6b8d6fedb5a9c5f680652e5219af16a0ce9e46c7252ae", "asm": "0 3045022100cb36a3d0b81250211aa351c60443343b1093f03818e3cd4e0cde319143bd4f550220018f2c46250d53a236a2ce5b301bd4dc41c4bfdd7db5f18c23c0cccf5a4599d1[ALL] 3045022100f6cf43268f60e25ae9fba583cef04315bbee8a0daa37dc6b1a5446d891e37ce50220622040848e8fa7ab744a8d16564e20dd19a333225afe937c104284b4eb1f09eb[ALL] 522102907a54bed8ad74b3f35638c60114ca240a308cb986f3f2f306178869a8880b612102a184279adb7057d55c6ce3c6b8d6fedb5a9c5f680652e5219af16a0ce9e46c7252ae"}, "vout": 0, "txid": "47b1f7e89bccf81e160363789318d5f0bbc589b52998146154f3146c36b30387"}], "txid": "c939e03698d10e2a4e1fde328f69f46e8c53f7ed82fe03243f306e55b91dfc94", "blocktime": 1537870564, "version": 1, "confirmations": 11515, "time": 1537870564, "locktime": 0, "vsize": 336, "size": 336}