{"hash": "333671080d4daeb943e9c15a1080530884a6ae42782d77d5facbe46f2d6612c5", "blockhash": "0000000000000000000baef3f32e3676a92c3b2e5da21b426e4f302fc371ce76", "vout": [{"scriptPubKey": {"reqSigs": 1, "hex": "a914a6dfe31dae5d0d59bad355bfc320aff84c3c75a987", "addresses": ["3GuNJLjPaXMZNSokpkNfCWCWPaL2uVJYuZ"], "asm": "OP_HASH160 a6dfe31dae5d0d59bad355bfc320aff84c3c75a9 OP_EQUAL", "type": "scripthash"}, "value": 0.01001016, "n": 0}, {"scriptPubKey": {"reqSigs": 1, "hex": "a914356d2c9d7648b23cccc5db1e2f19d7f8a3f34fe587", "addresses": ["36ZWXGm9zJwwNBGbdk5AwC3on49ZHsRiYx"], "asm": "OP_HASH160 356d2c9d7648b23cccc5db1e2f19d7f8a3f34fe5 OP_EQUAL", "type": "scripthash"}, "value": 0.12687108, "n": 1}], "hex": "0100000000010118ebb0fff9864bcf6e948d8cdbc435f10d6e22d11617902a1d646c828cdce5980100000023220020f02106df819c0c079c5a1301424987bb2223d70b61998b41dc48ac495ee36ff0ffffffff0238460f000000000017a914a6dfe31dae5d0d59bad355bfc320aff84c3c75a9870497c1000000000017a914356d2c9d7648b23cccc5db1e2f19d7f8a3f34fe58704004830450221008f942af00681b46e556be06f1a5c507edf5c838f4f5f132ddc6e983e2bee905002201cd87d351e19b32f2cef2441a4af77a47936cc0e3aab8998b10011760cee713b0147304402206b49f41c712d756304f31407bd5d54068b798ed7ba95ed5467e31459d7a8a23002203cb99c8d15d24ecfd13f0206083d55b0608bda77174ddadcd3e62cbf464ea0760147522103276a6941cb6b56ad46991c0386ea82997b17623fa39c5ae259bfb10244544a3d21038f2c7ecee34c843be9d886e50ce79e5dc40a1694c0417d60b35340f292ff73fc52ae00000000", "vin": [{"txinwitness": ["", "30450221008f942af00681b46e556be06f1a5c507edf5c838f4f5f132ddc6e983e2bee905002201cd87d351e19b32f2cef2441a4af77a47936cc0e3aab8998b10011760cee713b01", "304402206b49f41c712d756304f31407bd5d54068b798ed7ba95ed5467e31459d7a8a23002203cb99c8d15d24ecfd13f0206083d55b0608bda77174ddadcd3e62cbf464ea07601", "522103276a6941cb6b56ad46991c0386ea82997b17623fa39c5ae259bfb10244544a3d21038f2c7ecee34c843be9d886e50ce79e5dc40a1694c0417d60b35340f292ff73fc52ae"], "sequence": 4294967295, "scriptSig": {"hex": "220020f02106df819c0c079c5a1301424987bb2223d70b61998b41dc48ac495ee36ff0", "asm": "0020f02106df819c0c079c5a1301424987bb2223d70b61998b41dc48ac495ee36ff0"}, "vout": 1, "txid": "98e5dc8c826c641d2a901716d1226e0df135c4db8c8d946ecf4b86f9ffb0eb18"}], "txid": "c939e9a5dad2501a57f2c609fded4ef91354bd23a9a47cbc3bb1ac45601b1cbc", "blocktime": 1537876114, "version": 1, "confirmations": 11460, "time": 1537876114, "locktime": 0, "vsize": 206, "size": 371}