{"hash": "c939afa58b35ba36ae61616a8bee6f7a79dccf0178a9b303709aea9a62ecb6a7", "blockhash": "0000000000000000000dcc0f55137456b1a82d3642486a52398922ac4d620174", "vout": [{"scriptPubKey": {"reqSigs": 1, "hex": "76a914284b1f894ca72430de8f19952125b6016a9dc7c688ac", "addresses": ["14g42KnXkRFfR8cUtS5tReprjeNvGQKW9v"], "asm": "OP_DUP OP_HASH160 284b1f894ca72430de8f19952125b6016a9dc7c6 OP_EQUALVERIFY OP_CHECKSIG", "type": "pubkeyhash"}, "value": 0.14472726, "n": 0}, {"scriptPubKey": {"type": "nulldata", "hex": "6a146f6d6e69000000000000001f00000006fc23ac00", "asm": "OP_RETURN 6f6d6e69000000000000001f00000006fc23ac00"}, "value": 0.0, "n": 1}, {"scriptPubKey": {"reqSigs": 1, "hex": "76a914efe116774407e53329890ddd6e3f53ae6beb506b88ac", "addresses": ["1NsN9DhovK2pSo9egWWR6zV9j8MViftn4m"], "asm": "OP_DUP OP_HASH160 efe116774407e53329890ddd6e3f53ae6beb506b OP_EQUALVERIFY OP_CHECKSIG", "type": "pubkeyhash"}, "value": 5.46e-06, "n": 2}], "hex": "01000000019986843234b32d5b3327e9de028e4226da60cbfa3278913567e3b2b2c648983d020000006a473044022014034df87ccfda2717dbf41bead0d47c4ca2534c3067dceef23d56e8553cdc0b0220152fd59fbe2b3318d7ea57949ee18b094ba1ec61c105e1aa1174091939aff1ff01210392260b2475e9dec1855e89404d00787579055270f3f1619ec29bd64ed6a6dd7dfeffffff0316d6dc00000000001976a914284b1f894ca72430de8f19952125b6016a9dc7c688ac0000000000000000166a146f6d6e69000000000000001f00000006fc23ac0022020000000000001976a914efe116774407e53329890ddd6e3f53ae6beb506b88ac0b490800", "vin": [{"sequence": 4294967294, "scriptSig": {"hex": "473044022014034df87ccfda2717dbf41bead0d47c4ca2534c3067dceef23d56e8553cdc0b0220152fd59fbe2b3318d7ea57949ee18b094ba1ec61c105e1aa1174091939aff1ff01210392260b2475e9dec1855e89404d00787579055270f3f1619ec29bd64ed6a6dd7d", "asm": "3044022014034df87ccfda2717dbf41bead0d47c4ca2534c3067dceef23d56e8553cdc0b0220152fd59fbe2b3318d7ea57949ee18b094ba1ec61c105e1aa1174091939aff1ff[ALL] 0392260b2475e9dec1855e89404d00787579055270f3f1619ec29bd64ed6a6dd7d"}, "vout": 2, "txid": "3d9848c6b2b2e36735917832facb60da26428e02dee927335b2db33432848699"}], "txid": "c939afa58b35ba36ae61616a8bee6f7a79dccf0178a9b303709aea9a62ecb6a7", "blocktime": 1537870268, "version": 1, "confirmations": 11516, "time": 1537870268, "locktime": 542987, "vsize": 256, "size": 256}