{"hash": "c942c4375a7edf1767fa998ff4289b6fb9cfe2a87a4baf30c15c130544627cd0", "blockhash": "00000000000000000018f53835495a110e01622372bf6ae95dc86f2b0ab887b0", "vout": [{"scriptPubKey": {"reqSigs": 1, "hex": "76a914eb785e7a2d445ee8de80ff57d12b031447183d5188ac", "addresses": ["1NU3zUAzBBqzuti6VLHe78KRWrBqfHN3Sd"], "asm": "OP_DUP OP_HASH160 eb785e7a2d445ee8de80ff57d12b031447183d51 OP_EQUALVERIFY OP_CHECKSIG", "type": "pubkeyhash"}, "value": 1.441e-05, "n": 0}, {"scriptPubKey": {"reqSigs": 1, "hex": "a914f7819f1a20d9bca758656a3ecae65e4d28d1286d87", "addresses": ["3QFi7BgmaVcMGbET3L54n9AhKBPRgvZJbx"], "asm": "OP_HASH160 f7819f1a20d9bca758656a3ecae65e4d28d1286d OP_EQUAL", "type": "scripthash"}, "value": 0.016, "n": 1}, {"scriptPubKey": {"reqSigs": 1, "hex": "76a9140f524559812139c562a6140402de01a46ce1ea8a88ac", "addresses": ["12Q1hAFsE9B59rSoaUHZNmMbToE5ECYf8W"], "asm": "OP_DUP OP_HASH160 0f524559812139c562a6140402de01a46ce1ea8a OP_EQUALVERIFY OP_CHECKSIG", "type": "pubkeyhash"}, "value": 0.01649067, "n": 2}, {"scriptPubKey": {"reqSigs": 1, "hex": "76a914f98ec082008ee5b9ce2e351661538b6f5ef16c6488ac", "addresses": ["1PkYGM9wSH13tWwpxXm8CSU3tZXKmCrXnY"], "asm": "OP_DUP OP_HASH160 f98ec082008ee5b9ce2e351661538b6f5ef16c64 OP_EQUALVERIFY OP_CHECKSIG", "type": "pubkeyhash"}, "value": 0.00633626, "n": 3}, {"scriptPubKey": {"reqSigs": 1, "hex": "a9140bc07d4c3352895c197545a84c240d9b46d167aa87", "addresses": ["32m9x492B4axKaMhR1vqEe37LpNrjAUwDK"], "asm": "OP_HASH160 0bc07d4c3352895c197545a84c240d9b46d167aa OP_EQUAL", "type": "scripthash"}, "value": 0.00238723, "n": 4}, {"scriptPubKey": {"reqSigs": 1, "hex": "76a9149d0df7b7dd79e55580a3328a0559d2ab311f0b4188ac", "addresses": ["1FKRpcBpNZowpf7bKmxDhGw7PGsRscJUgS"], "asm": "OP_DUP OP_HASH160 9d0df7b7dd79e55580a3328a0559d2ab311f0b41 OP_EQUALVERIFY OP_CHECKSIG", "type": "pubkeyhash"}, "value": 0.117, "n": 5}], "hex": "02000000043a72cdfab639833adf156c0d1a5a51abf67ba4ddfa773d38e9edabf573aec107100000006a47304402200a36f989f24808c8bdef13d7102c9f0b358aa01d247d7b432e7ff624e7ee8b4e022050578b18a216ea789f32c0e364cfda770e005c842cbd90673874c95d36dd051e012103d84571021c54be89c7a9da750cbdb4ebc7d3982f5638932c6a75eb192dd01d9bfeffffffade2f090f61dfc38e382bc1cfe8dd02b3ddb84d5479c4f40dadcfb755832dfb0150000006a473044022027ce115b27dc82ddcbc57471943a1dd588569d0b8b9797d169d9586c8b80a182022074ce875b3ad084e9ee243fc7bb5a8a9ed5eb31a2bf770e0508cb8722fb510fea0121020830f8640ff4b8141fc57b92b503f47099d22d655cb8d280a361d09f036827ddfeffffffc0ffe871618f097d6ab6a25e524768eda604752123a3d4d5c350203265c05169220000006a47304402204facd81357f88eee26691883dbca503cdce1289acd148e9aa61af1e586b4c0e5022065890c19a96aa9910b09e24c3e9675f2dc63d9ec5ccdd087394ff4367d1f4d7a01210272c81aa308f1c6d912a3f1875af19eafba3ceaea05c3f6c7df8016e28b9bcc56feffffffe46d8ae5be0c912ba990f4f12fe31252d9db8e6e478f4d37ca7f53150810fe99000000006a47304402200a4dee6579a4f628ca95ccfcd97aa1016323db987b8c68a75bbaa9eee3c54f0a02204049b899a03e17070a114627e96fd3db1d1cdb3f99fa1f3035efa7bea85dd1ff0121028a705d2691a7157bf0e1ed2417ceca11d6f9f5228bece5d7b5a2faf63a6cce8bfeffffff06a1050000000000001976a914eb785e7a2d445ee8de80ff57d12b031447183d5188ac006a18000000000017a914f7819f1a20d9bca758656a3ecae65e4d28d1286d87ab291900000000001976a9140f524559812139c562a6140402de01a46ce1ea8a88ac1aab0900000000001976a914f98ec082008ee5b9ce2e351661538b6f5ef16c6488ac83a403000000000017a9140bc07d4c3352895c197545a84c240d9b46d167aa872087b200000000001976a9149d0df7b7dd79e55580a3328a0559d2ab311f0b4188ac0e490800", "vin": [{"sequence": 4294967294, "scriptSig": {"hex": "47304402200a36f989f24808c8bdef13d7102c9f0b358aa01d247d7b432e7ff624e7ee8b4e022050578b18a216ea789f32c0e364cfda770e005c842cbd90673874c95d36dd051e012103d84571021c54be89c7a9da750cbdb4ebc7d3982f5638932c6a75eb192dd01d9b", "asm": "304402200a36f989f24808c8bdef13d7102c9f0b358aa01d247d7b432e7ff624e7ee8b4e022050578b18a216ea789f32c0e364cfda770e005c842cbd90673874c95d36dd051e[ALL] 03d84571021c54be89c7a9da750cbdb4ebc7d3982f5638932c6a75eb192dd01d9b"}, "vout": 16, "txid": "07c1ae73f5abede9383d77fadda47bf6ab515a1a0d6c15df3a8339b6facd723a"}, {"sequence": 4294967294, "scriptSig": {"hex": "473044022027ce115b27dc82ddcbc57471943a1dd588569d0b8b9797d169d9586c8b80a182022074ce875b3ad084e9ee243fc7bb5a8a9ed5eb31a2bf770e0508cb8722fb510fea0121020830f8640ff4b8141fc57b92b503f47099d22d655cb8d280a361d09f036827dd", "asm": "3044022027ce115b27dc82ddcbc57471943a1dd588569d0b8b9797d169d9586c8b80a182022074ce875b3ad084e9ee243fc7bb5a8a9ed5eb31a2bf770e0508cb8722fb510fea[ALL] 020830f8640ff4b8141fc57b92b503f47099d22d655cb8d280a361d09f036827dd"}, "vout": 21, "txid": "b0df325875fbdcda404f9c47d584db3d2bd08dfe1cbc82e338fc1df690f0e2ad"}, {"sequence": 4294967294, "scriptSig": {"hex": "47304402204facd81357f88eee26691883dbca503cdce1289acd148e9aa61af1e586b4c0e5022065890c19a96aa9910b09e24c3e9675f2dc63d9ec5ccdd087394ff4367d1f4d7a01210272c81aa308f1c6d912a3f1875af19eafba3ceaea05c3f6c7df8016e28b9bcc56", "asm": "304402204facd81357f88eee26691883dbca503cdce1289acd148e9aa61af1e586b4c0e5022065890c19a96aa9910b09e24c3e9675f2dc63d9ec5ccdd087394ff4367d1f4d7a[ALL] 0272c81aa308f1c6d912a3f1875af19eafba3ceaea05c3f6c7df8016e28b9bcc56"}, "vout": 34, "txid": "6951c065322050c3d5d4a323217504a6ed6847525ea2b66a7d098f6171e8ffc0"}, {"sequence": 4294967294, "scriptSig": {"hex": "47304402200a4dee6579a4f628ca95ccfcd97aa1016323db987b8c68a75bbaa9eee3c54f0a02204049b899a03e17070a114627e96fd3db1d1cdb3f99fa1f3035efa7bea85dd1ff0121028a705d2691a7157bf0e1ed2417ceca11d6f9f5228bece5d7b5a2faf63a6cce8b", "asm": "304402200a4dee6579a4f628ca95ccfcd97aa1016323db987b8c68a75bbaa9eee3c54f0a02204049b899a03e17070a114627e96fd3db1d1cdb3f99fa1f3035efa7bea85dd1ff[ALL] 028a705d2691a7157bf0e1ed2417ceca11d6f9f5228bece5d7b5a2faf63a6cce8b"}, "vout": 0, "txid": "99fe100815537fca374d8f476e8edbd95212e32ff1f490a92b910cbee58a6de4"}], "txid": "c942c4375a7edf1767fa998ff4289b6fb9cfe2a87a4baf30c15c130544627cd0", "blocktime": 1537870928, "version": 2, "confirmations": 11512, "time": 1537870928, "locktime": 542990, "vsize": 798, "size": 798}