{"hash": "fe8b4b9a57055b5257470e3006bfcc2d66aa608ce92849519a6fa51211f6e404", "blockhash": "0000000000000000001e0dab787dd257d1dbfcb92a98c2207d5e1078be1f4165", "vout": [{"scriptPubKey": {"reqSigs": 1, "hex": "76a91484a0e711ff742580a61c0b8db052d9462aa2330288ac", "addresses": ["1D6Gx2q5azd8LzFRkwvBkZSn4YrENgsxmN"], "asm": "OP_DUP OP_HASH160 84a0e711ff742580a61c0b8db052d9462aa23302 OP_EQUALVERIFY OP_CHECKSIG", "type": "pubkeyhash"}, "value": 0.00355591, "n": 0}], "hex": "01000000000101b9cc1c829b3e1eba7ede845086e7f4d0edec5f31dcee46c55dc44519288c7c550100000023220020ea8542efca1afa9163545bd2337b38b225adb351b2edfee1362f620b4c9f64dcffffffff01076d0500000000001976a91484a0e711ff742580a61c0b8db052d9462aa2330288ac0400473044022062e41abcd7715f1a9ef9f9af3b9ee55515acd8e69de1f2c388985af104e606cb0220524e322f293e6952d7f547349a626335bed5284dba4153378642adcf8d02baf201483045022100da58af2cfd7f600d5dd671d5703967738725dabd06b38f22955fd33a0475e51e022012a8ff919bdb99c2c8c23825fbf6dde984ea6a6513f878c4c28a8c3e065e36620147522102cd8b48bc32f21b0d369d8510a23e2ca1e3e6d0d9ac381aacffa3dfbc80cabd68210297d3a0c3e63b20b9e6f3ace4d89e21364009021bc5359dc849fc63b9f48feba552ae00000000", "vin": [{"txinwitness": ["", "3044022062e41abcd7715f1a9ef9f9af3b9ee55515acd8e69de1f2c388985af104e606cb0220524e322f293e6952d7f547349a626335bed5284dba4153378642adcf8d02baf201", "3045022100da58af2cfd7f600d5dd671d5703967738725dabd06b38f22955fd33a0475e51e022012a8ff919bdb99c2c8c23825fbf6dde984ea6a6513f878c4c28a8c3e065e366201", "522102cd8b48bc32f21b0d369d8510a23e2ca1e3e6d0d9ac381aacffa3dfbc80cabd68210297d3a0c3e63b20b9e6f3ace4d89e21364009021bc5359dc849fc63b9f48feba552ae"], "sequence": 4294967295, "scriptSig": {"hex": "220020ea8542efca1afa9163545bd2337b38b225adb351b2edfee1362f620b4c9f64dc", "asm": "0020ea8542efca1afa9163545bd2337b38b225adb351b2edfee1362f620b4c9f64dc"}, "vout": 1, "txid": "557c8c281945c45dc546eedc315fecedd0f4e7865084de7eba1e3e9b821cccb9"}], "txid": "c9426883c7fa862237b6fead2d882ee8a4236bb57e00fb64e755064bc5ceac39", "blocktime": 1537872475, "version": 1, "confirmations": 11486, "time": 1537872475, "locktime": 0, "vsize": 176, "size": 341}