{"hash": "a232a13baf9ec8c645c0364e61f9c3154a7e9fde71d6833ff325d6991e751da4", "blockhash": "0000000000000000001e0dab787dd257d1dbfcb92a98c2207d5e1078be1f4165", "vout": [{"scriptPubKey": {"reqSigs": 1, "hex": "76a914ad84ff67065e8eccd44da278eb85d95cf73a8e0188ac", "addresses": ["1GpVE2Y6Nds2g8kPpLKiFvXf8Fn6G69tA1"], "asm": "OP_DUP OP_HASH160 ad84ff67065e8eccd44da278eb85d95cf73a8e01 OP_EQUALVERIFY OP_CHECKSIG", "type": "pubkeyhash"}, "value": 0.0028, "n": 0}, {"scriptPubKey": {"reqSigs": 1, "hex": "a9145189685979633eff19054a5b9d5cdac7e0b11a1c87", "addresses": ["3989GL84PQgRVLEArcRgzYfhWFJLZAV9fJ"], "asm": "OP_HASH160 5189685979633eff19054a5b9d5cdac7e0b11a1c OP_EQUAL", "type": "scripthash"}, "value": 0.164268, "n": 1}], "hex": "01000000000101302c6ee44b261036ac7ed8919a0f27f313256b9f0acd6f8958bcdd69f7fde2a900000000232200208b6760b2625086c2707d1905c33dd6c7d5b8e2e580c7fee1e0f763f2e4042066ffffffff02c0450400000000001976a914ad84ff67065e8eccd44da278eb85d95cf73a8e0188ac30a7fa000000000017a9145189685979633eff19054a5b9d5cdac7e0b11a1c870400473044022017fd2010ef1d6c861f0f66d945f345027b468f17dae430c67bf461ed0468e6c702204f46fa0d0c50fba3bffcb6791153aa8ac00d0038741dc24b7ce0947918690e2d01483045022100c2a8e862c45ab4778b85c9d471c2781bb41c20924b4f4c9bf23c783375b1585a0220236be22eb41dfac9c999eb4310d2b94fff7627942e9b793d18861696f0f0ec4f0169522103830eeae6f298978abbdf06a0921392fbf364637b7ae83f9dd4634badf2346961210243ebb497421dcad1301093ff6b04d42327dbb06bd86bd4c0ecab26382ea395682103a1f8e575098aa42c0f78e2dfb517b7496ebed40c370267e09d804cd675b793ff53ae00000000", "vin": [{"txinwitness": ["", "3044022017fd2010ef1d6c861f0f66d945f345027b468f17dae430c67bf461ed0468e6c702204f46fa0d0c50fba3bffcb6791153aa8ac00d0038741dc24b7ce0947918690e2d01", "3045022100c2a8e862c45ab4778b85c9d471c2781bb41c20924b4f4c9bf23c783375b1585a0220236be22eb41dfac9c999eb4310d2b94fff7627942e9b793d18861696f0f0ec4f01", "522103830eeae6f298978abbdf06a0921392fbf364637b7ae83f9dd4634badf2346961210243ebb497421dcad1301093ff6b04d42327dbb06bd86bd4c0ecab26382ea395682103a1f8e575098aa42c0f78e2dfb517b7496ebed40c370267e09d804cd675b793ff53ae"], "sequence": 4294967295, "scriptSig": {"hex": "2200208b6760b2625086c2707d1905c33dd6c7d5b8e2e580c7fee1e0f763f2e4042066", "asm": "00208b6760b2625086c2707d1905c33dd6c7d5b8e2e580c7fee1e0f763f2e4042066"}, "vout": 0, "txid": "a9e2fdf769ddbc58896fcd0a9f6b2513f3270f9a91d87eac3610264be46e2c30"}], "txid": "c944415d1e24545290f3e4303e16479ba83f9b32cb143ed748a154460367c622", "blocktime": 1537872475, "version": 1, "confirmations": 11487, "time": 1537872475, "locktime": 0, "vsize": 216, "size": 407}