{"hash": "c94a73b185562f604aac1924169e3845215d0432850a077f333c934a53d7d817", "blockhash": "00000000000000000018f53835495a110e01622372bf6ae95dc86f2b0ab887b0", "vout": [{"scriptPubKey": {"type": "nulldata", "hex": "6a146f6d6e69000000000000001f00000012d13012c0", "asm": "OP_RETURN 6f6d6e69000000000000001f00000012d13012c0"}, "value": 0.0, "n": 0}, {"scriptPubKey": {"reqSigs": 1, "hex": "76a9142585bf83c3d6b8d7c0880a51aa470d41800c2d7688ac", "addresses": ["14RQE5aXMzroZEQkAu4XqLvf6SatfKpyaC"], "asm": "OP_DUP OP_HASH160 2585bf83c3d6b8d7c0880a51aa470d41800c2d76 OP_EQUALVERIFY OP_CHECKSIG", "type": "pubkeyhash"}, "value": 0.00497068, "n": 1}, {"scriptPubKey": {"reqSigs": 1, "hex": "76a914a25dec4d0011064ef106a983c39c7a540699f22088ac", "addresses": ["1FoWyxwPXuj4C6abqwhjDWdz6D4PZgYRjA"], "asm": "OP_DUP OP_HASH160 a25dec4d0011064ef106a983c39c7a540699f220 OP_EQUALVERIFY OP_CHECKSIG", "type": "pubkeyhash"}, "value": 5.46e-06, "n": 2}], "hex": "0100000002cca2a4ab847b092306b5328e3e3c597d485bb23e09b86a37e9d4e17990b9e8a6020000006a47304402207213b09ca00a2ead09ee135c4ff36371098bb9f487e56407c741cc72dd4aacb702205c2660490026c10d80e00ac17da68bbb9524d746a874744a297fcff772c8ec7b012102eeff4731d284d506b8ad64ff86e50c9e434ed206e13ab498807df54cb3d2b77efeffffff57f2bc5be6a7fda2175f9f1f96614103452ee0500507bbcec9f894fd68ffe5b4010000006a473044022012d9bcb3fe417329ce27b684ce5a4dbf97473ae052447250bb43e148a93af6650220504a4183d1d31db155a0bada5684c586bb96f28320953db77cd90ab3f08f3889012102eeff4731d284d506b8ad64ff86e50c9e434ed206e13ab498807df54cb3d2b77efeffffff030000000000000000166a146f6d6e69000000000000001f00000012d13012c0ac950700000000001976a9142585bf83c3d6b8d7c0880a51aa470d41800c2d7688ac22020000000000001976a914a25dec4d0011064ef106a983c39c7a540699f22088ac0e490800", "vin": [{"sequence": 4294967294, "scriptSig": {"hex": "47304402207213b09ca00a2ead09ee135c4ff36371098bb9f487e56407c741cc72dd4aacb702205c2660490026c10d80e00ac17da68bbb9524d746a874744a297fcff772c8ec7b012102eeff4731d284d506b8ad64ff86e50c9e434ed206e13ab498807df54cb3d2b77e", "asm": "304402207213b09ca00a2ead09ee135c4ff36371098bb9f487e56407c741cc72dd4aacb702205c2660490026c10d80e00ac17da68bbb9524d746a874744a297fcff772c8ec7b[ALL] 02eeff4731d284d506b8ad64ff86e50c9e434ed206e13ab498807df54cb3d2b77e"}, "vout": 2, "txid": "a6e8b99079e1d4e9376ab8093eb25b487d593c3e8e32b50623097b84aba4a2cc"}, {"sequence": 4294967294, "scriptSig": {"hex": "473044022012d9bcb3fe417329ce27b684ce5a4dbf97473ae052447250bb43e148a93af6650220504a4183d1d31db155a0bada5684c586bb96f28320953db77cd90ab3f08f3889012102eeff4731d284d506b8ad64ff86e50c9e434ed206e13ab498807df54cb3d2b77e", "asm": "3044022012d9bcb3fe417329ce27b684ce5a4dbf97473ae052447250bb43e148a93af6650220504a4183d1d31db155a0bada5684c586bb96f28320953db77cd90ab3f08f3889[ALL] 02eeff4731d284d506b8ad64ff86e50c9e434ed206e13ab498807df54cb3d2b77e"}, "vout": 1, "txid": "b4e5ff68fd94f8c9cebb070550e02e45034161961f9f5f17a2fda7e65bbcf257"}], "txid": "c94a73b185562f604aac1924169e3845215d0432850a077f333c934a53d7d817", "blocktime": 1537870928, "version": 1, "confirmations": 11514, "time": 1537870928, "locktime": 542990, "vsize": 403, "size": 403}