{"hash": "c94eca6b7d811e4ed4c0ed52b7820bf117959db0873f85edf6985a79ddd90aa7", "blockhash": "0000000000000000000dcc0f55137456b1a82d3642486a52398922ac4d620174", "vout": [{"scriptPubKey": {"reqSigs": 1, "hex": "76a9147cc28b3c295472c012a1154f9b8ffec2024998b288ac", "addresses": ["1CNfqw8GQJWu2QnDy7yzV3yfGUgtUheMhd"], "asm": "OP_DUP OP_HASH160 7cc28b3c295472c012a1154f9b8ffec2024998b2 OP_EQUALVERIFY OP_CHECKSIG", "type": "pubkeyhash"}, "value": 0.012, "n": 0}, {"scriptPubKey": {"reqSigs": 1, "hex": "76a914630c21360dadbbd8077cae15878c041696ada2af88ac", "addresses": ["1A2iRnDughNVCnSw1GvnUd3HmAWqBXrGfD"], "asm": "OP_DUP OP_HASH160 630c21360dadbbd8077cae15878c041696ada2af OP_EQUALVERIFY OP_CHECKSIG", "type": "pubkeyhash"}, "value": 1.57522076, "n": 1}], "hex": "01000000011905afafd18e2bf209b23c97f138624c0d461cd1f66c2cd06dcb48529a5644b6010000006b48304502210096fa6b64a3b4fe084fd0f5246668959a211ecf0105988648d0d368fd65c6fede022015dedc3c8b92244a3c0fa5a971b24451fc9046144f8bbf009f1f32373947a9c1012102d40c04ef6b061a5846ff40580c3f0058d451540bd8aad83f0a9073e7b2383d3bffffffff02804f1200000000001976a9147cc28b3c295472c012a1154f9b8ffec2024998b288ac9c986309000000001976a914630c21360dadbbd8077cae15878c041696ada2af88ac00000000", "vin": [{"sequence": 4294967295, "scriptSig": {"hex": "48304502210096fa6b64a3b4fe084fd0f5246668959a211ecf0105988648d0d368fd65c6fede022015dedc3c8b92244a3c0fa5a971b24451fc9046144f8bbf009f1f32373947a9c1012102d40c04ef6b061a5846ff40580c3f0058d451540bd8aad83f0a9073e7b2383d3b", "asm": "304502210096fa6b64a3b4fe084fd0f5246668959a211ecf0105988648d0d368fd65c6fede022015dedc3c8b92244a3c0fa5a971b24451fc9046144f8bbf009f1f32373947a9c1[ALL] 02d40c04ef6b061a5846ff40580c3f0058d451540bd8aad83f0a9073e7b2383d3b"}, "vout": 1, "txid": "b644569a5248cb6dd02c6cf6d11c460d4c6238f1973cb209f22b8ed1afaf0519"}], "txid": "c94eca6b7d811e4ed4c0ed52b7820bf117959db0873f85edf6985a79ddd90aa7", "blocktime": 1537870268, "version": 1, "confirmations": 11518, "time": 1537870268, "locktime": 0, "vsize": 226, "size": 226}