{"hash": "12ecfdac91a82b8faf9ffefe0a4aa5fbf799270806c31c9c5aa3b5b5053c6159", "blockhash": "00000000000000000017f5eb5941039fbcee6240d03bc1f2f8e35350df66a1d8", "vout": [{"scriptPubKey": {"reqSigs": 1, "hex": "76a9143c9fa675f70d73cd18c08a86583f2ec7b1d320c588ac", "addresses": ["16XYoCmCipi2FB3DH3PT6Y4P1gg5qJKoBq"], "asm": "OP_DUP OP_HASH160 3c9fa675f70d73cd18c08a86583f2ec7b1d320c5 OP_EQUALVERIFY OP_CHECKSIG", "type": "pubkeyhash"}, "value": 0.309685, "n": 0}, {"scriptPubKey": {"reqSigs": 1, "hex": "a9146b1ffc4927db8ed29addf615333e6451d8b1e9e587", "addresses": ["3BTSYTfPLVcFzj5hJuf6CrAbNh632AjMDv"], "asm": "OP_HASH160 6b1ffc4927db8ed29addf615333e6451d8b1e9e5 OP_EQUAL", "type": "scripthash"}, "value": 0.00992338, "n": 1}], "hex": "020000000001060290daa3738406fc9175d3367bd97553cf135805d553dc1100b103ab3ccc68f1010000001716001458bfe5998c8e7e839a0815ad9c890e77ad2cd341feffffff2aaef013ef4dfe5cbeb380091489b0c3e4a1cbe7bab165c285ab737503962ffb000000001716001408ce837c6e28404156a1df34960a89d8f340ebaefeffffff41b7e8c4a11ac883094a297c8665e14e97f59a94b369927aba50d218e37b5be500000000171600147c80a90f29187f0594fd86f49ea96a120de1123cfeffffff4281598e91e949f3e8030c5f933c8af8b72c30c185c7c0b22a716fbf4807de2e0200000017160014318486f388f5a3f37a15b680ae216dfbc776953afefffffff48b024c50036f46457c2f3934cb14c840885a334dbb70d17dc7485abf618248080000001716001499142106e575ddaf69fb511120d99d8f53d58916fefffffffedd870948eba4626cbfc30277148dfe7cd57f4375e6f741c29a6f74a35d85fd0000000017160014fe2b06a882bd73ddb7bc92b3e5f20e1e93dc5922feffffff02b48ad801000000001976a9143c9fa675f70d73cd18c08a86583f2ec7b1d320c588ac52240f000000000017a9146b1ffc4927db8ed29addf615333e6451d8b1e9e5870247304402203990d07043a1a581e99b5b1fba5b312585f91d1afc6b4bd7469ceaf16cbc1a2b022044897bc75461cdaef0fc78fb4dc690907a8a05463563809c668f43c0b30af77d0121021835260a09263351fc4eaccc6020ffacc8abcad2f65b5f59b55e7974014d4c0d02483045022100b15b84810b3b58b111159e5c1d1603f7667c5e8ab9fca44645f5e5b2a222052f02200828a8069cb87c0a3dd1201705a317f8fa6f7759e2cf088f657b046d3987fd7501210383534a156e34052ad041e79996d377f5985a209317f445e7440c8a836077343702483045022100d7679c1472f34952e94f9b958e7352e59dfb475fd34138bbaa436c0abcf8a8be02205ae8d7e67f34a4661dc66a85dc143ff6dc7a3e24d0e9b1443aa3b0aec8de082c0121036db70412d7f246e6454e2790da909aeb5302d27dc8f3ea311216aaf3861967c40248304502210095e71aa8f60eaafd8481616b8648bb2a900a1a182151db599e90929ca802cc60022029c3fdd8f0b0a91124f57c7d296511a62ea52b09da3a8ab9d8a2e7d5beb8824d0121026d03c426505fc90426ab98ec2b69da6cb291afece28d2c73661e0a6f9f7ee7aa0247304402203d61e6ce04a387e78ab9cd8a35ffd15eeef6bfb50357686217296528be66de2c02204c9699637fde129f421643c7e24a318510481ba1a1acf5a1b978664fe7aa66cf012103341d0304872f5e82337a055e3ade206e09abea2c26af0b5f3535c63980de9fb9024830450221008e97dcfb6ce3bcfd4a2f5e61dc2788dc054684c7b35a6794f7943d1a6b0f8e810220681d4f8969bfef5bd8de3d52e33ed98accef8d12e3c43a6a42a4d11938fe334d0121027fedbfc039f7c4b4cd00f8aba7222f720a23b14b96f92641f0bbee9600c6726815490800", "vin": [{"txinwitness": ["304402203990d07043a1a581e99b5b1fba5b312585f91d1afc6b4bd7469ceaf16cbc1a2b022044897bc75461cdaef0fc78fb4dc690907a8a05463563809c668f43c0b30af77d01", "021835260a09263351fc4eaccc6020ffacc8abcad2f65b5f59b55e7974014d4c0d"], "sequence": 4294967294, "scriptSig": {"hex": "16001458bfe5998c8e7e839a0815ad9c890e77ad2cd341", "asm": "001458bfe5998c8e7e839a0815ad9c890e77ad2cd341"}, "vout": 1, "txid": "f168cc3cab03b10011dc53d5055813cf5375d97b36d37591fc068473a3da9002"}, {"txinwitness": ["3045022100b15b84810b3b58b111159e5c1d1603f7667c5e8ab9fca44645f5e5b2a222052f02200828a8069cb87c0a3dd1201705a317f8fa6f7759e2cf088f657b046d3987fd7501", "0383534a156e34052ad041e79996d377f5985a209317f445e7440c8a8360773437"], "sequence": 4294967294, "scriptSig": {"hex": "16001408ce837c6e28404156a1df34960a89d8f340ebae", "asm": "001408ce837c6e28404156a1df34960a89d8f340ebae"}, "vout": 0, "txid": "fb2f96037573ab85c265b1bae7cba1e4c3b089140980b3be5cfe4def13f0ae2a"}, {"txinwitness": ["3045022100d7679c1472f34952e94f9b958e7352e59dfb475fd34138bbaa436c0abcf8a8be02205ae8d7e67f34a4661dc66a85dc143ff6dc7a3e24d0e9b1443aa3b0aec8de082c01", "036db70412d7f246e6454e2790da909aeb5302d27dc8f3ea311216aaf3861967c4"], "sequence": 4294967294, "scriptSig": {"hex": "1600147c80a90f29187f0594fd86f49ea96a120de1123c", "asm": "00147c80a90f29187f0594fd86f49ea96a120de1123c"}, "vout": 0, "txid": "e55b7be318d250ba7a9269b3949af5974ee165867c294a0983c81aa1c4e8b741"}, {"txinwitness": ["304502210095e71aa8f60eaafd8481616b8648bb2a900a1a182151db599e90929ca802cc60022029c3fdd8f0b0a91124f57c7d296511a62ea52b09da3a8ab9d8a2e7d5beb8824d01", "026d03c426505fc90426ab98ec2b69da6cb291afece28d2c73661e0a6f9f7ee7aa"], "sequence": 4294967294, "scriptSig": {"hex": "160014318486f388f5a3f37a15b680ae216dfbc776953a", "asm": "0014318486f388f5a3f37a15b680ae216dfbc776953a"}, "vout": 2, "txid": "2ede0748bf6f712ab2c0c785c1302cb7f88a3c935f0c03e8f349e9918e598142"}, {"txinwitness": ["304402203d61e6ce04a387e78ab9cd8a35ffd15eeef6bfb50357686217296528be66de2c02204c9699637fde129f421643c7e24a318510481ba1a1acf5a1b978664fe7aa66cf01", "03341d0304872f5e82337a055e3ade206e09abea2c26af0b5f3535c63980de9fb9"], "sequence": 4294967294, "scriptSig": {"hex": "16001499142106e575ddaf69fb511120d99d8f53d58916", "asm": "001499142106e575ddaf69fb511120d99d8f53d58916"}, "vout": 8, "txid": "488261bf5a48c77dd170bb4d335a8840c814cb34392f7c45466f03504c028bf4"}, {"txinwitness": ["30450221008e97dcfb6ce3bcfd4a2f5e61dc2788dc054684c7b35a6794f7943d1a6b0f8e810220681d4f8969bfef5bd8de3d52e33ed98accef8d12e3c43a6a42a4d11938fe334d01", "027fedbfc039f7c4b4cd00f8aba7222f720a23b14b96f92641f0bbee9600c67268"], "sequence": 4294967294, "scriptSig": {"hex": "160014fe2b06a882bd73ddb7bc92b3e5f20e1e93dc5922", "asm": "0014fe2b06a882bd73ddb7bc92b3e5f20e1e93dc5922"}, "vout": 0, "txid": "fd855da3746f9ac241f7e675437fd57cfe8d147702c3bf6c62a4eb480987ddfe"}], "txid": "c952e884561417be0d58f87425027237b0f6ce4b8504ed62c7402adeefa4d7ce", "blocktime": 1537874412, "version": 2, "confirmations": 11467, "time": 1537874412, "locktime": 542997, "vsize": 622, "size": 1108}