{"hash": "c95dfd6ba7dda96538f54c10433247691ae0912cddba1b8cce3cd5b01bc389bb", "blockhash": "0000000000000000001cda96e906b7601b7a6fb1a3b62bca570a9e5d8f4b3de1", "vout": [{"scriptPubKey": {"reqSigs": 1, "hex": "76a914f7f2a2eae5d09c651555abd37a8297ec89a76d6188ac", "addresses": ["1Pc2a4AP417otVPRm89cMerqEYG7AkeoNT"], "asm": "OP_DUP OP_HASH160 f7f2a2eae5d09c651555abd37a8297ec89a76d61 OP_EQUALVERIFY OP_CHECKSIG", "type": "pubkeyhash"}, "value": 51.5592834, "n": 0}, {"scriptPubKey": {"reqSigs": 1, "hex": "a914b9fc49d13206ae785403ca902e84751e8128066587", "addresses": ["3JeRALLGoiuZEFaYqmomWMT9nFtdMCSCQ2"], "asm": "OP_HASH160 b9fc49d13206ae785403ca902e84751e81280665 OP_EQUAL", "type": "scripthash"}, "value": 0.145222, "n": 1}], "hex": "01000000014879c9900ae2a5112e5e04cfaa4612d7f396b2ff835ee590e3f6137c5e3f7cc6010000006b483045022100fd86566d710830ce22c159cb8ba6f91f8d88e27304ba7d53ad2849b83a7b640502202b5e1ba00551e52be68d2ba1a8f9b1607b0f30b91afb101ed6eac8e3816705c001210308344c095c81f8d4cdc3f4a376c4470e852218823c4f7067f2208e1b9442e4edffffffff0214395133010000001976a914f7f2a2eae5d09c651555abd37a8297ec89a76d6188ac5897dd000000000017a914b9fc49d13206ae785403ca902e84751e812806658700000000", "vin": [{"sequence": 4294967295, "scriptSig": {"hex": "483045022100fd86566d710830ce22c159cb8ba6f91f8d88e27304ba7d53ad2849b83a7b640502202b5e1ba00551e52be68d2ba1a8f9b1607b0f30b91afb101ed6eac8e3816705c001210308344c095c81f8d4cdc3f4a376c4470e852218823c4f7067f2208e1b9442e4ed", "asm": "3045022100fd86566d710830ce22c159cb8ba6f91f8d88e27304ba7d53ad2849b83a7b640502202b5e1ba00551e52be68d2ba1a8f9b1607b0f30b91afb101ed6eac8e3816705c0[ALL] 0308344c095c81f8d4cdc3f4a376c4470e852218823c4f7067f2208e1b9442e4ed"}, "vout": 1, "txid": "c67c3f5e7c13f6e390e55e83ffb296f3d71246aacf045e2e11a5e20a90c97948"}], "txid": "c95dfd6ba7dda96538f54c10433247691ae0912cddba1b8cce3cd5b01bc389bb", "blocktime": 1537873282, "version": 1, "confirmations": 11480, "time": 1537873282, "locktime": 0, "vsize": 224, "size": 224}