{"hash": "14ff28deced55eb96414173da4ad285e3109925abab57e97c02620725c44b07b", "blockhash": "00000000000000000024a2167bbff67b0be802c0b01cdd79e6331c2be6459f87", "vout": [{"scriptPubKey": {"reqSigs": 1, "hex": "76a914a89fd52cb49d4976ecc611fcb20845a1b082064f88ac", "addresses": ["1GNbzbkU3mAkgcRi9L4D5vwvJTvRoodhJQ"], "asm": "OP_DUP OP_HASH160 a89fd52cb49d4976ecc611fcb20845a1b082064f OP_EQUALVERIFY OP_CHECKSIG", "type": "pubkeyhash"}, "value": 0.07511776, "n": 0}, {"scriptPubKey": {"reqSigs": 1, "hex": "a9143459502d5a772f49b45c000c5a549498b0250c2387", "addresses": ["36Tp47EcBMbcBWJ3Ts6JLSBJCku2uVc4y3"], "asm": "OP_HASH160 3459502d5a772f49b45c000c5a549498b0250c23 OP_EQUAL", "type": "scripthash"}, "value": 0.47395428, "n": 1}], "hex": "0200000000010197813ece6f1c4ed36f08469e03f6c9da104c2e3e7064b358a61d125eb484d73601000000171600140baf5c4f47ceb3e88b87858d8e947ee7ffa5a2a6ffffffff02e09e7200000000001976a914a89fd52cb49d4976ecc611fcb20845a1b082064f88ac6432d3020000000017a9143459502d5a772f49b45c000c5a549498b0250c2387024730440220501593fc5fa4941d9ae619ea4c708366665d09633a1d2b5d1d700a275453909202205d2ea59473c041f16d5eef0b03f73508c1d74d90ff80efac3cc50ee155259e1e0121034b4ab8523b884276cbff1635853178efc03c9701df9a72c5a96333a83d23c40400000000", "vin": [{"txinwitness": ["30440220501593fc5fa4941d9ae619ea4c708366665d09633a1d2b5d1d700a275453909202205d2ea59473c041f16d5eef0b03f73508c1d74d90ff80efac3cc50ee155259e1e01", "034b4ab8523b884276cbff1635853178efc03c9701df9a72c5a96333a83d23c404"], "sequence": 4294967295, "scriptSig": {"hex": "1600140baf5c4f47ceb3e88b87858d8e947ee7ffa5a2a6", "asm": "00140baf5c4f47ceb3e88b87858d8e947ee7ffa5a2a6"}, "vout": 1, "txid": "36d784b45e121da658b364703e2e4c10dac9f6039e46086fd34e1c6fce3e8197"}], "txid": "c95e7bc26c39f38a1d235d12fa834a11e62a82aaa1bd37446d71db5d04cea9bd", "blocktime": 1537870564, "version": 2, "confirmations": 11515, "time": 1537870564, "locktime": 0, "vsize": 168, "size": 249}