{"hash": "c96204335abb42f5ef0115c879b6ba7739f576241d83a5c4ae1932bb3360bbd6", "blockhash": "0000000000000000000baef3f32e3676a92c3b2e5da21b426e4f302fc371ce76", "vout": [{"scriptPubKey": {"type": "nulldata", "hex": "6a4c500000781400015db435de848d4898009fffa1702940d64fa54d8eb2d19ed074892d00f8e8966f861419e591b40a61c2bfa2d1b1055baa1bca06151c4efe29a49f1d100759d4ba30d2c37bb011d97e02cf", "asm": "OP_RETURN 0000781400015db435de848d4898009fffa1702940d64fa54d8eb2d19ed074892d00f8e8966f861419e591b40a61c2bfa2d1b1055baa1bca06151c4efe29a49f1d100759d4ba30d2c37bb011d97e02cf"}, "value": 0.0, "n": 0}, {"scriptPubKey": {"reqSigs": 1, "hex": "76a91431affda6d0c5f1256246a311d3096842e0340e5488ac", "addresses": ["15XiwTVLPLrzDom6SgMY4c2Mrbx9HuJ7ar"], "asm": "OP_DUP OP_HASH160 31affda6d0c5f1256246a311d3096842e0340e54 OP_EQUALVERIFY OP_CHECKSIG", "type": "pubkeyhash"}, "value": 0.00629169, "n": 1}], "hex": "010000000191d18e7b660eceeeef9bdef5c3bfd703888756188050c84676fed1ee1d74ce32000000006a47304402200ca376b04dd7c73f8bdf1ca6b8ae449906f01ff2b8a2d93a795485ff5c2670c3022043ddb458846ebddb81b17f0587b6d39ff8b688dcd9e504a7daad0ae12136331d01210247202cdab4da01c4f1ff5dbd0642d9a68e22d6401bf1cc47651040ba8d272cfcffffffff020000000000000000536a4c500000781400015db435de848d4898009fffa1702940d64fa54d8eb2d19ed074892d00f8e8966f861419e591b40a61c2bfa2d1b1055baa1bca06151c4efe29a49f1d100759d4ba30d2c37bb011d97e02cfb1990900000000001976a91431affda6d0c5f1256246a311d3096842e0340e5488ac00000000", "vin": [{"sequence": 4294967295, "scriptSig": {"hex": "47304402200ca376b04dd7c73f8bdf1ca6b8ae449906f01ff2b8a2d93a795485ff5c2670c3022043ddb458846ebddb81b17f0587b6d39ff8b688dcd9e504a7daad0ae12136331d01210247202cdab4da01c4f1ff5dbd0642d9a68e22d6401bf1cc47651040ba8d272cfc", "asm": "304402200ca376b04dd7c73f8bdf1ca6b8ae449906f01ff2b8a2d93a795485ff5c2670c3022043ddb458846ebddb81b17f0587b6d39ff8b688dcd9e504a7daad0ae12136331d[ALL] 0247202cdab4da01c4f1ff5dbd0642d9a68e22d6401bf1cc47651040ba8d272cfc"}, "vout": 0, "txid": "32ce741deed1fe7646c850801856878803d7bfc3f5de9befeece0e667b8ed191"}], "txid": "c96204335abb42f5ef0115c879b6ba7739f576241d83a5c4ae1932bb3360bbd6", "blocktime": 1537876114, "version": 1, "confirmations": 11463, "time": 1537876114, "locktime": 0, "vsize": 283, "size": 283}