{"hash": "c962c92a1b00d450a92179a6061f271aa20ec93c97429d947693a1b4338e4c1b", "blockhash": "00000000000000000017f5eb5941039fbcee6240d03bc1f2f8e35350df66a1d8", "vout": [{"scriptPubKey": {"reqSigs": 1, "hex": "76a9144d0c7d36640d32e271efa87f489903c7215d015b88ac", "addresses": ["182PzXiaQtcSe9T8UHriXd8b5Q5uwiWkV5"], "asm": "OP_DUP OP_HASH160 4d0c7d36640d32e271efa87f489903c7215d015b OP_EQUALVERIFY OP_CHECKSIG", "type": "pubkeyhash"}, "value": 0.0702, "n": 0}, {"scriptPubKey": {"reqSigs": 1, "hex": "00146bfeab8cce2da4ae2c113135c14b536b04b95ca7", "addresses": ["bc1qd0l2hrxw9kj2utq3xy6uzj6ndvztjh98vsdwly"], "asm": "0 6bfeab8cce2da4ae2c113135c14b536b04b95ca7", "type": "witness_v0_keyhash"}, "value": 0.00190418, "n": 1}], "hex": "01000000010004a6a5d906bb21402ad97f15fb965fef317dee5f59dd073b1113f4d0e7f775040000006b48304502210084f0ed8fcb168650c0a4e822942d8bff329063b2f2f30c0ab991daf23ba8950c02205a5338ea97beac62096f30b0649c49176cc0c0049db877964581972737908ee50121020e6946019cf310345758d4ba444953cb61fc982e6bc926419f1cbb0db8850e1bffffffff02e01d6b00000000001976a9144d0c7d36640d32e271efa87f489903c7215d015b88acd2e70200000000001600146bfeab8cce2da4ae2c113135c14b536b04b95ca700000000", "vin": [{"sequence": 4294967295, "scriptSig": {"hex": "48304502210084f0ed8fcb168650c0a4e822942d8bff329063b2f2f30c0ab991daf23ba8950c02205a5338ea97beac62096f30b0649c49176cc0c0049db877964581972737908ee50121020e6946019cf310345758d4ba444953cb61fc982e6bc926419f1cbb0db8850e1b", "asm": "304502210084f0ed8fcb168650c0a4e822942d8bff329063b2f2f30c0ab991daf23ba8950c02205a5338ea97beac62096f30b0649c49176cc0c0049db877964581972737908ee5[ALL] 020e6946019cf310345758d4ba444953cb61fc982e6bc926419f1cbb0db8850e1b"}, "vout": 4, "txid": "75f7e7d0f413113b07dd595fee7d31ef5f96fb157fd92a4021bb06d9a5a60400"}], "txid": "c962c92a1b00d450a92179a6061f271aa20ec93c97429d947693a1b4338e4c1b", "blocktime": 1537874412, "version": 1, "confirmations": 11467, "time": 1537874412, "locktime": 0, "vsize": 223, "size": 223}