{"hash": "c9626a27e1683352c6d6ac980167849f623c05a480f3bbe9a5e834291fa69623", "blockhash": "0000000000000000000e13cef7c366c0283d82e591d1acd082e914b08063cdf1", "vout": [{"scriptPubKey": {"reqSigs": 1, "hex": "76a914e449315781157e0704ae57314dd02b46e8370df388ac", "addresses": ["1Mp4kFyUZGmGhwBxexRCjzRbRy9Lupw6b5"], "asm": "OP_DUP OP_HASH160 e449315781157e0704ae57314dd02b46e8370df3 OP_EQUALVERIFY OP_CHECKSIG", "type": "pubkeyhash"}, "value": 0.00125084, "n": 0}, {"scriptPubKey": {"reqSigs": 1, "hex": "76a914c7c0320fa32691aafe0716ecc2aec4ea9be78dca88ac", "addresses": ["1KDBiA1HC1vQ5UnJYd5YHzRS1U5yqN2TUz"], "asm": "OP_DUP OP_HASH160 c7c0320fa32691aafe0716ecc2aec4ea9be78dca OP_EQUALVERIFY OP_CHECKSIG", "type": "pubkeyhash"}, "value": 0.03141651, "n": 1}], "hex": "01000000011ee582be007a024e6b96e83900a131a001ba67a9b8221963658e4a949f7a744a010000006b4830450221009228aaf9204265e55190aedc842c0c0bc60fcb897df0242ce1e92569a215f28f0220193519d42fe59d94e405f304980bded5f944baeb8414f38930faa55881dc750a0121024a551143ce889410e64a657ff068e0594c772e112c5cff133baf7a98a9bade89ffffffff029ce80100000000001976a914e449315781157e0704ae57314dd02b46e8370df388ac13f02f00000000001976a914c7c0320fa32691aafe0716ecc2aec4ea9be78dca88ac00000000", "vin": [{"sequence": 4294967295, "scriptSig": {"hex": "4830450221009228aaf9204265e55190aedc842c0c0bc60fcb897df0242ce1e92569a215f28f0220193519d42fe59d94e405f304980bded5f944baeb8414f38930faa55881dc750a0121024a551143ce889410e64a657ff068e0594c772e112c5cff133baf7a98a9bade89", "asm": "30450221009228aaf9204265e55190aedc842c0c0bc60fcb897df0242ce1e92569a215f28f0220193519d42fe59d94e405f304980bded5f944baeb8414f38930faa55881dc750a[ALL] 024a551143ce889410e64a657ff068e0594c772e112c5cff133baf7a98a9bade89"}, "vout": 1, "txid": "4a747a9f944a8e65631922b8a967ba01a031a10039e8966b4e027a00be82e51e"}], "txid": "c9626a27e1683352c6d6ac980167849f623c05a480f3bbe9a5e834291fa69623", "blocktime": 1537871767, "version": 1, "confirmations": 11495, "time": 1537871767, "locktime": 0, "vsize": 226, "size": 226}