{"hash": "c962f7d1843dda4a28826f3cfb3c4b96e8ef64eb9dbcf22765b2d8e82250269f", "blockhash": "00000000000000000018f53835495a110e01622372bf6ae95dc86f2b0ab887b0", "vout": [{"scriptPubKey": {"reqSigs": 1, "hex": "76a9149e0ca66be5c0882302f3cace7503b5f2131b70e188ac", "addresses": ["1FQgvFeDm7mQkYnvsfWWF5QLK3H5cHia74"], "asm": "OP_DUP OP_HASH160 9e0ca66be5c0882302f3cace7503b5f2131b70e1 OP_EQUALVERIFY OP_CHECKSIG", "type": "pubkeyhash"}, "value": 1.522e-05, "n": 0}, {"scriptPubKey": {"reqSigs": 1, "hex": "76a914864d6956a1c8bb248c715605bbe02d54b552d45888ac", "addresses": ["1DF8HMFH8fLUqBMcDu1C6K3u7NasvUZBwd"], "asm": "OP_DUP OP_HASH160 864d6956a1c8bb248c715605bbe02d54b552d458 OP_EQUALVERIFY OP_CHECKSIG", "type": "pubkeyhash"}, "value": 0.00045, "n": 1}], "hex": "010000000131f9d19db5445bdd77b74e648f70a0165f941087b17f95534e47e9069bbe7ceb000000006a47304402205a082c9e919f96af5cc00829d4163615ff5bf0dd57980cb20a32e686c27dca5f02206c62cb3b8f48757f030da601f375d3b461555b6ecc1b3b184eb6b4ac4ecbb2f9012102d2962ad9a546991850ab3876f3e2cc0a22fe6b9a446f74581bfc479fedc029f3ffffffff02f2050000000000001976a9149e0ca66be5c0882302f3cace7503b5f2131b70e188acc8af0000000000001976a914864d6956a1c8bb248c715605bbe02d54b552d45888ac00000000", "vin": [{"sequence": 4294967295, "scriptSig": {"hex": "47304402205a082c9e919f96af5cc00829d4163615ff5bf0dd57980cb20a32e686c27dca5f02206c62cb3b8f48757f030da601f375d3b461555b6ecc1b3b184eb6b4ac4ecbb2f9012102d2962ad9a546991850ab3876f3e2cc0a22fe6b9a446f74581bfc479fedc029f3", "asm": "304402205a082c9e919f96af5cc00829d4163615ff5bf0dd57980cb20a32e686c27dca5f02206c62cb3b8f48757f030da601f375d3b461555b6ecc1b3b184eb6b4ac4ecbb2f9[ALL] 02d2962ad9a546991850ab3876f3e2cc0a22fe6b9a446f74581bfc479fedc029f3"}, "vout": 0, "txid": "eb7cbe9b06e9474e53957fb18710945f16a0708f644eb777dd5b44b59dd1f931"}], "txid": "c962f7d1843dda4a28826f3cfb3c4b96e8ef64eb9dbcf22765b2d8e82250269f", "blocktime": 1537870928, "version": 1, "confirmations": 11514, "time": 1537870928, "locktime": 0, "vsize": 225, "size": 225}