{"hash": "c963d05d97153653fd6385e50a4b38f8faf4387c011cbeeae6ea35050a9515db", "blockhash": "00000000000000000017f5eb5941039fbcee6240d03bc1f2f8e35350df66a1d8", "vout": [{"scriptPubKey": {"reqSigs": 1, "hex": "a9144ff9653138a54ebd9432c54ff0a7308f8001e4a287", "addresses": ["38yt4zAMjYBQvwKxWRtMemoSjzEHyXy9JE"], "asm": "OP_HASH160 4ff9653138a54ebd9432c54ff0a7308f8001e4a2 OP_EQUAL", "type": "scripthash"}, "value": 0.0195366, "n": 0}, {"scriptPubKey": {"reqSigs": 1, "hex": "76a914e44481820ca2783db2cfdad39f72cfd13d6ed9cc88ac", "addresses": ["1Moy8cPFnpTTpMhjGxx2FayWa5CcZmzrRJ"], "asm": "OP_DUP OP_HASH160 e44481820ca2783db2cfdad39f72cfd13d6ed9cc OP_EQUALVERIFY OP_CHECKSIG", "type": "pubkeyhash"}, "value": 15.36500048, "n": 1}], "hex": "020000000116ab5877a7bbf82a2d9039e25b7614846d13852e997a8655095f6400ffc45d2b010000006b483045022100cd0f971695e7c84dd23a93e927584090cd2d7b8a91d5c66f7c4bd098ddb0d28302200fd3f682bde8b4a34c1dae392c8bb39d8b9058bb16121b9cfe1a367094ff3573012102e3ef9e66b78f08893edda47db3a0b9652bae19c5d9084bea8ee98a774179a40effffffff027ccf1d000000000017a9144ff9653138a54ebd9432c54ff0a7308f8001e4a2875021955b000000001976a914e44481820ca2783db2cfdad39f72cfd13d6ed9cc88ac00000000", "vin": [{"sequence": 4294967295, "scriptSig": {"hex": "483045022100cd0f971695e7c84dd23a93e927584090cd2d7b8a91d5c66f7c4bd098ddb0d28302200fd3f682bde8b4a34c1dae392c8bb39d8b9058bb16121b9cfe1a367094ff3573012102e3ef9e66b78f08893edda47db3a0b9652bae19c5d9084bea8ee98a774179a40e", "asm": "3045022100cd0f971695e7c84dd23a93e927584090cd2d7b8a91d5c66f7c4bd098ddb0d28302200fd3f682bde8b4a34c1dae392c8bb39d8b9058bb16121b9cfe1a367094ff3573[ALL] 02e3ef9e66b78f08893edda47db3a0b9652bae19c5d9084bea8ee98a774179a40e"}, "vout": 1, "txid": "2b5dc4ff00645f0955867a992e85136d8414765be239902d2af8bba77758ab16"}], "txid": "c963d05d97153653fd6385e50a4b38f8faf4387c011cbeeae6ea35050a9515db", "blocktime": 1537874412, "version": 2, "confirmations": 11468, "time": 1537874412, "locktime": 0, "vsize": 224, "size": 224}