{"hash": "c96411a4845875f86765ccc0785c5cb47e32561547e446d5d4c1223b3e4887bb", "blockhash": "00000000000000000017f5eb5941039fbcee6240d03bc1f2f8e35350df66a1d8", "vout": [{"scriptPubKey": {"reqSigs": 1, "hex": "76a9145a015461aa7d3d720a1fb4223b84ab83471eb82088ac", "addresses": ["19CuQeaxds7Zc4YatJ4wooqwsyMHgkf4hZ"], "asm": "OP_DUP OP_HASH160 5a015461aa7d3d720a1fb4223b84ab83471eb820 OP_EQUALVERIFY OP_CHECKSIG", "type": "pubkeyhash"}, "value": 0.00462767, "n": 0}, {"scriptPubKey": {"reqSigs": 1, "hex": "76a914389604632183e22e0d3777a8178c6ef8dae4dc2988ac", "addresses": ["16ACZ7j62m38LN71vHp2zEDvxHM7Q6p6cW"], "asm": "OP_DUP OP_HASH160 389604632183e22e0d3777a8178c6ef8dae4dc29 OP_EQUALVERIFY OP_CHECKSIG", "type": "pubkeyhash"}, "value": 0.006268, "n": 1}], "hex": "01000000026c613bcb30e05622e28676c0b87bac1020d7197e4911828cd0226a7e65b27c3c000000006b4830450221009befdf226e798db8b3ceff8dd88c9048f4de300404e1bd016bb6a1aa167a8c2902201ac46c412425a66e4a00000198551703900c9bfe77c60e339c11724c4f57b841012102384a847ce4a0dd326f756da7af1eefa38ae30869125a317de85d5e538a5e5d08ffffffff0188b8031a9d8ef495b9b0abee30f4a392122978580894ab470265383aa00c75000000006b483045022100ae5cdf78dd4bdbd6993d1342475f9d7656691c258a259e9fd0f1f5a087caa39702205b8be7d5e97375bd6045d28b069acbf10499658cf236b1ca08201abdf4a521ea012102fa611e4ca1cc5d9ada0dedf22fab62f91252fb4c7687a3f5738fb7ebbbcdb48fffffffff02af0f0700000000001976a9145a015461aa7d3d720a1fb4223b84ab83471eb82088ac70900900000000001976a914389604632183e22e0d3777a8178c6ef8dae4dc2988ac00000000", "vin": [{"sequence": 4294967295, "scriptSig": {"hex": "4830450221009befdf226e798db8b3ceff8dd88c9048f4de300404e1bd016bb6a1aa167a8c2902201ac46c412425a66e4a00000198551703900c9bfe77c60e339c11724c4f57b841012102384a847ce4a0dd326f756da7af1eefa38ae30869125a317de85d5e538a5e5d08", "asm": "30450221009befdf226e798db8b3ceff8dd88c9048f4de300404e1bd016bb6a1aa167a8c2902201ac46c412425a66e4a00000198551703900c9bfe77c60e339c11724c4f57b841[ALL] 02384a847ce4a0dd326f756da7af1eefa38ae30869125a317de85d5e538a5e5d08"}, "vout": 0, "txid": "3c7cb2657e6a22d08c8211497e19d72010ac7bb8c07686e22256e030cb3b616c"}, {"sequence": 4294967295, "scriptSig": {"hex": "483045022100ae5cdf78dd4bdbd6993d1342475f9d7656691c258a259e9fd0f1f5a087caa39702205b8be7d5e97375bd6045d28b069acbf10499658cf236b1ca08201abdf4a521ea012102fa611e4ca1cc5d9ada0dedf22fab62f91252fb4c7687a3f5738fb7ebbbcdb48f", "asm": "3045022100ae5cdf78dd4bdbd6993d1342475f9d7656691c258a259e9fd0f1f5a087caa39702205b8be7d5e97375bd6045d28b069acbf10499658cf236b1ca08201abdf4a521ea[ALL] 02fa611e4ca1cc5d9ada0dedf22fab62f91252fb4c7687a3f5738fb7ebbbcdb48f"}, "vout": 0, "txid": "750ca03a38650247ab94085878291292a3f430eeabb0b995f48e9d1a03b88801"}], "txid": "c96411a4845875f86765ccc0785c5cb47e32561547e446d5d4c1223b3e4887bb", "blocktime": 1537874412, "version": 1, "confirmations": 11468, "time": 1537874412, "locktime": 0, "vsize": 374, "size": 374}