{"hash": "c9640bbd205f5fea5176c66f7b03e05b52c80d235db41723d22501d4ab137f61", "blockhash": "00000000000000000018f53835495a110e01622372bf6ae95dc86f2b0ab887b0", "vout": [{"scriptPubKey": {"reqSigs": 1, "hex": "76a91416fdb114a2a1d15911ec47b60465ba1b393d2f1588ac", "addresses": ["136Zn2kAHE6oBNVN1rch9FJcWvEPfRHcch"], "asm": "OP_DUP OP_HASH160 16fdb114a2a1d15911ec47b60465ba1b393d2f15 OP_EQUALVERIFY OP_CHECKSIG", "type": "pubkeyhash"}, "value": 0.00373828, "n": 0}, {"scriptPubKey": {"reqSigs": 1, "hex": "a9147295f26788eceefbec57348fd9388f270b00005f87", "addresses": ["3C8tauTAwioug9J3ndE7aQFMPiyrTAcf4P"], "asm": "OP_HASH160 7295f26788eceefbec57348fd9388f270b00005f OP_EQUAL", "type": "scripthash"}, "value": 0.0339, "n": 1}], "hex": "01000000015773d9d735ab7fc79a691bc956f952d415782591b3ab2977d9eb2bf648af1802010000006a47304402202a1cf2dab1ffd72386d0c9cce9320859af60b20ca9cb121389c1d3ee7f60b84502206dcdcf5d5501bbdd1fe29a544f60276517de7ea8a7ce77ca0865e693354ab32801210360989ef1fc10bc143584a20fa55f0860a9cd018cb4395f97790f89c79e92f91affffffff0244b40500000000001976a91416fdb114a2a1d15911ec47b60465ba1b393d2f1588ac30ba33000000000017a9147295f26788eceefbec57348fd9388f270b00005f8700000000", "vin": [{"sequence": 4294967295, "scriptSig": {"hex": "47304402202a1cf2dab1ffd72386d0c9cce9320859af60b20ca9cb121389c1d3ee7f60b84502206dcdcf5d5501bbdd1fe29a544f60276517de7ea8a7ce77ca0865e693354ab32801210360989ef1fc10bc143584a20fa55f0860a9cd018cb4395f97790f89c79e92f91a", "asm": "304402202a1cf2dab1ffd72386d0c9cce9320859af60b20ca9cb121389c1d3ee7f60b84502206dcdcf5d5501bbdd1fe29a544f60276517de7ea8a7ce77ca0865e693354ab328[ALL] 0360989ef1fc10bc143584a20fa55f0860a9cd018cb4395f97790f89c79e92f91a"}, "vout": 1, "txid": "0218af48f62bebd97729abb391257815d452f956c91b699ac77fab35d7d97357"}], "txid": "c9640bbd205f5fea5176c66f7b03e05b52c80d235db41723d22501d4ab137f61", "blocktime": 1537870928, "version": 1, "confirmations": 11512, "time": 1537870928, "locktime": 0, "vsize": 223, "size": 223}