{"hash": "c965e23bc364c3483dd0832323e3d4eb2b38857ca2e50f804b52fd35f11a7641", "blockhash": "0000000000000000000baef3f32e3676a92c3b2e5da21b426e4f302fc371ce76", "vout": [{"scriptPubKey": {"reqSigs": 1, "hex": "a914bfb4a24dff44a98a9e3c7c7a450afc79bc59ed3e87", "addresses": ["3KAfNrUkvjUCeQMvUvSJFH5H69mH2puqRk"], "asm": "OP_HASH160 bfb4a24dff44a98a9e3c7c7a450afc79bc59ed3e OP_EQUAL", "type": "scripthash"}, "value": 0.01147, "n": 0}, {"scriptPubKey": {"reqSigs": 1, "hex": "a914e370231feecbfc25e2e2423a5a79bf79bfdca59887", "addresses": ["3NRbeX3vD5VaVE4TDU9ivCDsEf7NPPte6J"], "asm": "OP_HASH160 e370231feecbfc25e2e2423a5a79bf79bfdca598 OP_EQUAL", "type": "scripthash"}, "value": 8.83069694, "n": 1}], "hex": "0100000001fa0214c3d036eae7ab30e31431e98682c8671a6efde6549d95a157c634f3d5d301000000db00483045022100ce1a1f0081fb5a6b411f8a942da8e3a2b7734f0ad6d9eedf5265e84466f557e302203e434f3093fa5caa39cd5b3672fff20b943fc762ec82907bbc5d7255660d304401483045022100aa2beb70bc9f23b25b385cd106e210401d211a0fdda19ff5041d2050c6b3b739022041e48ccc548e6084d6257bc2e98130a54a80a38af2d19eb6724eb428b81354d1014752210327881b6abce6535553a3ce21fad12a7d74fd237ce7c4cd270a267162344e3082210256141f8eb687f5a68c5cc65054652dc25116fa285e44d72b44368827ffe77d9a52aeffffffff02788011000000000017a914bfb4a24dff44a98a9e3c7c7a450afc79bc59ed3e87fe92a2340000000017a914e370231feecbfc25e2e2423a5a79bf79bfdca5988700000000", "vin": [{"sequence": 4294967295, "scriptSig": {"hex": "00483045022100ce1a1f0081fb5a6b411f8a942da8e3a2b7734f0ad6d9eedf5265e84466f557e302203e434f3093fa5caa39cd5b3672fff20b943fc762ec82907bbc5d7255660d304401483045022100aa2beb70bc9f23b25b385cd106e210401d211a0fdda19ff5041d2050c6b3b739022041e48ccc548e6084d6257bc2e98130a54a80a38af2d19eb6724eb428b81354d1014752210327881b6abce6535553a3ce21fad12a7d74fd237ce7c4cd270a267162344e3082210256141f8eb687f5a68c5cc65054652dc25116fa285e44d72b44368827ffe77d9a52ae", "asm": "0 3045022100ce1a1f0081fb5a6b411f8a942da8e3a2b7734f0ad6d9eedf5265e84466f557e302203e434f3093fa5caa39cd5b3672fff20b943fc762ec82907bbc5d7255660d3044[ALL] 3045022100aa2beb70bc9f23b25b385cd106e210401d211a0fdda19ff5041d2050c6b3b739022041e48ccc548e6084d6257bc2e98130a54a80a38af2d19eb6724eb428b81354d1[ALL] 52210327881b6abce6535553a3ce21fad12a7d74fd237ce7c4cd270a267162344e3082210256141f8eb687f5a68c5cc65054652dc25116fa285e44d72b44368827ffe77d9a52ae"}, "vout": 1, "txid": "d3d5f334c657a1959d54e6fd6e1a67c88286e93114e330abe7ea36d0c31402fa"}], "txid": "c965e23bc364c3483dd0832323e3d4eb2b38857ca2e50f804b52fd35f11a7641", "blocktime": 1537876114, "version": 1, "confirmations": 11460, "time": 1537876114, "locktime": 0, "vsize": 334, "size": 334}