{"hash": "93f1b8a90d87d952703668a9654c06e83bc32baaf2152ec471e3c0df9e5e9884", "blockhash": "000000000000000000022b45ed06c6f4ccd3cf7fb5ba4856ebd2e58215665228", "vout": [{"scriptPubKey": {"reqSigs": 1, "hex": "76a9146af4487619239d3ab92b01156e52acd98bfb5cea88ac", "addresses": ["1AkXGRFHF2yymEwoiPFaiBhKSwWQqEFnXt"], "asm": "OP_DUP OP_HASH160 6af4487619239d3ab92b01156e52acd98bfb5cea OP_EQUALVERIFY OP_CHECKSIG", "type": "pubkeyhash"}, "value": 0.0024686, "n": 0}, {"scriptPubKey": {"reqSigs": 1, "hex": "a91475013bd1e342e0092dcff5ffb7f966e6b5467b1d87", "addresses": ["3CMgThqYkTetWHNoU9mhrof5br99pHPqCU"], "asm": "OP_HASH160 75013bd1e342e0092dcff5ffb7f966e6b5467b1d OP_EQUAL", "type": "scripthash"}, "value": 0.01035025, "n": 1}], "hex": "0200000000010219f7eafbbf744015340815b5b8e8bfd9c5ba99e4641b09b95949f1500c348a3900000000171600147a1114136fb4a5e6111c990207c2ae2026df6e88fefffffff186eca9492661f12ece84ae09d3a143a5eb2304e6f5bf1466a5a83ce667dd4b0000000017160014d0f1b3770e2e3be3fe0e01416608976bafda5e27feffffff024cc40300000000001976a9146af4487619239d3ab92b01156e52acd98bfb5cea88ac11cb0f000000000017a91475013bd1e342e0092dcff5ffb7f966e6b5467b1d8702483045022100f073a92d9df83ded3f38c57d432c963bbd29e5c8b7554b38c36b84bbe996849a02202efaf90f568d7f29539da0bf07d40520f4dc9dc9ad2a7de6c46771e77c19bb7101210303404b7df6456fdabacc10e2d054b50064a5107e1abeaac133bf9b45da806cbe024730440220193bf9256cb2514657c489777434644f5a502a2ec9733e45ab0c6f013b4fa47c0220258cf2b2baf73da72b12bf37596fd9cb23d1cd5ad684260647f986940321aa470121024eb4fe35413c161947bee24e852b32bfa1db1f71020a9c18a045fe1f8c12ca920b490800", "vin": [{"txinwitness": ["3045022100f073a92d9df83ded3f38c57d432c963bbd29e5c8b7554b38c36b84bbe996849a02202efaf90f568d7f29539da0bf07d40520f4dc9dc9ad2a7de6c46771e77c19bb7101", "0303404b7df6456fdabacc10e2d054b50064a5107e1abeaac133bf9b45da806cbe"], "sequence": 4294967294, "scriptSig": {"hex": "1600147a1114136fb4a5e6111c990207c2ae2026df6e88", "asm": "00147a1114136fb4a5e6111c990207c2ae2026df6e88"}, "vout": 0, "txid": "398a340c50f14959b9091b64e499bac5d9bfe8b8b5150834154074bffbeaf719"}, {"txinwitness": ["30440220193bf9256cb2514657c489777434644f5a502a2ec9733e45ab0c6f013b4fa47c0220258cf2b2baf73da72b12bf37596fd9cb23d1cd5ad684260647f986940321aa4701", "024eb4fe35413c161947bee24e852b32bfa1db1f71020a9c18a045fe1f8c12ca92"], "sequence": 4294967294, "scriptSig": {"hex": "160014d0f1b3770e2e3be3fe0e01416608976bafda5e27", "asm": "0014d0f1b3770e2e3be3fe0e01416608976bafda5e27"}, "vout": 0, "txid": "4bdd67e63ca8a56614bff5e60423eba543a1d309ae84ce2ef1612649a9ec86f1"}], "txid": "c970ada6083a2284327eebb6d4b5addba24d83172a5c208d3c17371fbc85e0c3", "blocktime": 1537869901, "version": 2, "confirmations": 11524, "time": 1537869901, "locktime": 542987, "vsize": 259, "size": 421}