{"hash": "b3908e7e3172d37c503d0bcf5b6b12587ac4eed0fa34e53a4fddc83c29987798", "blockhash": "0000000000000000000e13cef7c366c0283d82e591d1acd082e914b08063cdf1", "vout": [{"scriptPubKey": {"reqSigs": 1, "hex": "a9140cc48cbff5ee620eac03601dd11c376286e5013687", "addresses": ["32rXVN9sL3otLhLMAC1QFV8Bcy8xKjCEjP"], "asm": "OP_HASH160 0cc48cbff5ee620eac03601dd11c376286e50136 OP_EQUAL", "type": "scripthash"}, "value": 0.2, "n": 0}, {"scriptPubKey": {"reqSigs": 1, "hex": "a914a0daf5b6376257913b2c544fb3b3eaef06bf72e487", "addresses": ["3GMYLq9tqSMmC6rzof1En17BjrnLscey8c"], "asm": "OP_HASH160 a0daf5b6376257913b2c544fb3b3eaef06bf72e4 OP_EQUAL", "type": "scripthash"}, "value": 0.20806868, "n": 1}], "hex": "0100000000010ba8ca724f8abd9abfecb2cbae1c3cfdd5f9d1362cd77fe05097b4fc2ab7d86be700000000171600149d81f5f3acc297f7f25ad363b0ba7037c1e003e2ffffff00da62d13f93f25116a2d204b921994ede320344cfd87df2653c556a5375e213e3000000001716001432bc2a72558d8492c6ee167508b8038809221132ffffff00628cfcfeadffa1289620609c884aeb4a65f29eba7b46aff94b705905182b99f7000000001716001432bc2a72558d8492c6ee167508b8038809221132ffffff008ac1b76075f1dbbd8b9c1bdc9d41560fbfda4c9735f4daf31ab19ea968cddab601000000171600149d81f5f3acc297f7f25ad363b0ba7037c1e003e2ffffff00664d82cbf85dcc6ac604bfeb5d1a81d02da6f2356fed2f06438b5d4ccfc3b45d000000001716001464c9c60134e05d538dffbfe34ac671472cbd0205ffffff00183dd0a784faf118d52424d8d41bd36eaa8bc6393c3fcd1b5fecbbbfedb039df000000001716001432bc2a72558d8492c6ee167508b8038809221132ffffff00b83edcf8ca4820978eeaee1dba88aacd9e880de4ee885d759024d3964203d68a00000000171600149d81f5f3acc297f7f25ad363b0ba7037c1e003e2ffffff00bf71a9d2ebde07eb215bc1a47526b9d32a60abafaa495cfb244e06f4d27d8d8f000000001716001432bc2a72558d8492c6ee167508b8038809221132ffffff00d8667c15ae997e345ac22805a0d32706adcf57c957f7cf35118e5e9f3ec3564000000000171600149d81f5f3acc297f7f25ad363b0ba7037c1e003e2ffffff0057756acf841d4831324095b6218be5489809c11f73c2a7c0bd264fd6aec209eb01000000171600146283d0694e78b39d86febdda38bfa692281c9816ffffff008c31a7ad7e778ee18b47366ecea7df03160ece6c4039c0eacd63caf31454d2b20100000017160014f6712ff4645515921465fc3308573977dd9760b4ffffff0002002d31010000000017a9140cc48cbff5ee620eac03601dd11c376286e5013687d47c3d010000000017a914a0daf5b6376257913b2c544fb3b3eaef06bf72e4870248304502210091b92ab53a4449dc40168d8640eb8a11fcfff2cdbed155cae06e29c70d3065cd022020e201c4c1878de673fbcf589810e5151384d9e42828e6a4390827d8f4e26ea30121036aeefe44306c740f608f956437d93ae77c942a0284dd01c5904e78863298adde02473044022053c89a74309df6e7d73bcb45d66a9bda75b44e31b85b90f47ee44aa4211485610220405b1dd324bea6bd103f55defb4990cd4fa1ffef852d647a7d91fc473fa340d101210299e956a867100ab9d27160ce7db4989e0d251a19ee3eb60c325349c0483ac29702473044022015f5f78ef4498f5721ff2ecf21c7c3189a43dfea7637627da7150004aa776887022053293e42351d0cb8469b12083997570328f312cc4c75e2049fcb60a19127c68001210299e956a867100ab9d27160ce7db4989e0d251a19ee3eb60c325349c0483ac2970247304402203eca46c0ca0fd0cad570d69f8bfe713cb6692c3362e28c133d316bc082f7565502204166850373176a138b20f92353f8a21e6da5e45fdbe87a7552c7c6668fa0b8a30121036aeefe44306c740f608f956437d93ae77c942a0284dd01c5904e78863298adde02483045022100f06569bd1d2e32cd42cc29605f2744eddec193087894933ec6fa7f5058c758b7022071bccc836d28f14ee080414e994cd8230c582c2fb2b688cfd1c3e293112736ff0121035b1e37622fb39b160e7da6a9c5045d9a572ff62a0986ca32b5f73e92cc68b57802483045022100bf0d2f914d73a18477acc3f5b760a7de9c71242297ca733eb98a205f881f26340220025fa72546e5fb1ea48a61d0c7ed7344a4296a82cf2519ecf877afd9c558313d01210299e956a867100ab9d27160ce7db4989e0d251a19ee3eb60c325349c0483ac297024730440220368ed1c8aed38d6bda76e4d033387275bf4c6b4f54e2aa3b99b72a7cdc17a6d302203be1df38bbed2c11b00ff1039b448513e4cb58fdbe68b80e10f5e775cbad938c0121036aeefe44306c740f608f956437d93ae77c942a0284dd01c5904e78863298adde0247304402205425aaf47266463b72a24234ca8ae75fd8060ac2a528ca608411be4dbcd6f24502201266dd03d8dea8ea021086a970fa314cdf8cc407d745d0a12c36ba9478f6bdc501210299e956a867100ab9d27160ce7db4989e0d251a19ee3eb60c325349c0483ac2970247304402200e17be1c1f76d69900dfd85207a36f111a5bab49f9e34eec85c3bc2dee54830202201363379e7d14976fa0074942f684a0336924bce8e756ee4e268d40b39535c7900121036aeefe44306c740f608f956437d93ae77c942a0284dd01c5904e78863298adde02483045022100d2f075a15256d1d10c33d16b79f19504a0befae4ed756a99ae549044e9b4806202207e32856ea23d5a31fc917b8550de28c59986db414bebe47bf7f22a1c9803c7510121031633391bfa5c1ad7e9c4421a22c263ae456704a0d9a36b98891e0fbedd8c20d302483045022100af2f5bc15d878ff217fca6a1ec100f7230da9fbea66c23cfdc5045a989f645c202201836440a7307de2e3ab8fbe7e8f2da28d3b9d32018d57b14186be6d02ec8ef8f01210240a03f9c29a502b5ae92f669e36397549eaaef31588c9c49007d2e8278225b9600000000", "vin": [{"txinwitness": ["304502210091b92ab53a4449dc40168d8640eb8a11fcfff2cdbed155cae06e29c70d3065cd022020e201c4c1878de673fbcf589810e5151384d9e42828e6a4390827d8f4e26ea301", "036aeefe44306c740f608f956437d93ae77c942a0284dd01c5904e78863298adde"], "sequence": 16777215, "scriptSig": {"hex": "1600149d81f5f3acc297f7f25ad363b0ba7037c1e003e2", "asm": "00149d81f5f3acc297f7f25ad363b0ba7037c1e003e2"}, "vout": 0, "txid": "e76bd8b72afcb49750e07fd72c36d1f9d5fd3c1caecbb2ecbf9abd8a4f72caa8"}, {"txinwitness": ["3044022053c89a74309df6e7d73bcb45d66a9bda75b44e31b85b90f47ee44aa4211485610220405b1dd324bea6bd103f55defb4990cd4fa1ffef852d647a7d91fc473fa340d101", "0299e956a867100ab9d27160ce7db4989e0d251a19ee3eb60c325349c0483ac297"], "sequence": 16777215, "scriptSig": {"hex": "16001432bc2a72558d8492c6ee167508b8038809221132", "asm": "001432bc2a72558d8492c6ee167508b8038809221132"}, "vout": 0, "txid": "e313e275536a553c65f27dd8cf440332de4e9921b904d2a21651f2933fd162da"}, {"txinwitness": ["3044022015f5f78ef4498f5721ff2ecf21c7c3189a43dfea7637627da7150004aa776887022053293e42351d0cb8469b12083997570328f312cc4c75e2049fcb60a19127c68001", "0299e956a867100ab9d27160ce7db4989e0d251a19ee3eb60c325349c0483ac297"], "sequence": 16777215, "scriptSig": {"hex": "16001432bc2a72558d8492c6ee167508b8038809221132", "asm": "001432bc2a72558d8492c6ee167508b8038809221132"}, "vout": 0, "txid": "f7992b180559704bf9af467bba9ef2654aeb4a889c60209628a1ffadfefc8c62"}, {"txinwitness": ["304402203eca46c0ca0fd0cad570d69f8bfe713cb6692c3362e28c133d316bc082f7565502204166850373176a138b20f92353f8a21e6da5e45fdbe87a7552c7c6668fa0b8a301", "036aeefe44306c740f608f956437d93ae77c942a0284dd01c5904e78863298adde"], "sequence": 16777215, "scriptSig": {"hex": "1600149d81f5f3acc297f7f25ad363b0ba7037c1e003e2", "asm": "00149d81f5f3acc297f7f25ad363b0ba7037c1e003e2"}, "vout": 1, "txid": "b6dacd68a99eb11af3daf435974cdabf0f56419ddc1b9c8bbddbf17560b7c18a"}, {"txinwitness": ["3045022100f06569bd1d2e32cd42cc29605f2744eddec193087894933ec6fa7f5058c758b7022071bccc836d28f14ee080414e994cd8230c582c2fb2b688cfd1c3e293112736ff01", "035b1e37622fb39b160e7da6a9c5045d9a572ff62a0986ca32b5f73e92cc68b578"], "sequence": 16777215, "scriptSig": {"hex": "16001464c9c60134e05d538dffbfe34ac671472cbd0205", "asm": "001464c9c60134e05d538dffbfe34ac671472cbd0205"}, "vout": 0, "txid": "5db4c3cf4c5d8b43062fed6f35f2a62dd0811a5debbf04c66acc5df8cb824d66"}, {"txinwitness": ["3045022100bf0d2f914d73a18477acc3f5b760a7de9c71242297ca733eb98a205f881f26340220025fa72546e5fb1ea48a61d0c7ed7344a4296a82cf2519ecf877afd9c558313d01", "0299e956a867100ab9d27160ce7db4989e0d251a19ee3eb60c325349c0483ac297"], "sequence": 16777215, "scriptSig": {"hex": "16001432bc2a72558d8492c6ee167508b8038809221132", "asm": "001432bc2a72558d8492c6ee167508b8038809221132"}, "vout": 0, "txid": "df39b0edbfbbec5f1bcd3f3c39c68baa6ed31bd4d82424d518f1fa84a7d03d18"}, {"txinwitness": ["30440220368ed1c8aed38d6bda76e4d033387275bf4c6b4f54e2aa3b99b72a7cdc17a6d302203be1df38bbed2c11b00ff1039b448513e4cb58fdbe68b80e10f5e775cbad938c01", "036aeefe44306c740f608f956437d93ae77c942a0284dd01c5904e78863298adde"], "sequence": 16777215, "scriptSig": {"hex": "1600149d81f5f3acc297f7f25ad363b0ba7037c1e003e2", "asm": "00149d81f5f3acc297f7f25ad363b0ba7037c1e003e2"}, "vout": 0, "txid": "8ad6034296d32490755d88eee40d889ecdaa88ba1deeea8e972048caf8dc3eb8"}, {"txinwitness": ["304402205425aaf47266463b72a24234ca8ae75fd8060ac2a528ca608411be4dbcd6f24502201266dd03d8dea8ea021086a970fa314cdf8cc407d745d0a12c36ba9478f6bdc501", "0299e956a867100ab9d27160ce7db4989e0d251a19ee3eb60c325349c0483ac297"], "sequence": 16777215, "scriptSig": {"hex": "16001432bc2a72558d8492c6ee167508b8038809221132", "asm": "001432bc2a72558d8492c6ee167508b8038809221132"}, "vout": 0, "txid": "8f8d7dd2f4064e24fb5c49aaafab602ad3b92675a4c15b21eb07deebd2a971bf"}, {"txinwitness": ["304402200e17be1c1f76d69900dfd85207a36f111a5bab49f9e34eec85c3bc2dee54830202201363379e7d14976fa0074942f684a0336924bce8e756ee4e268d40b39535c79001", "036aeefe44306c740f608f956437d93ae77c942a0284dd01c5904e78863298adde"], "sequence": 16777215, "scriptSig": {"hex": "1600149d81f5f3acc297f7f25ad363b0ba7037c1e003e2", "asm": "00149d81f5f3acc297f7f25ad363b0ba7037c1e003e2"}, "vout": 0, "txid": "4056c33e9f5e8e1135cff757c957cfad0627d3a00528c25a347e99ae157c66d8"}, {"txinwitness": ["3045022100d2f075a15256d1d10c33d16b79f19504a0befae4ed756a99ae549044e9b4806202207e32856ea23d5a31fc917b8550de28c59986db414bebe47bf7f22a1c9803c75101", "031633391bfa5c1ad7e9c4421a22c263ae456704a0d9a36b98891e0fbedd8c20d3"], "sequence": 16777215, "scriptSig": {"hex": "1600146283d0694e78b39d86febdda38bfa692281c9816", "asm": "00146283d0694e78b39d86febdda38bfa692281c9816"}, "vout": 1, "txid": "eb09c2aed64f26bdc0a7c2731fc1099848e58b21b695403231481d84cf6a7557"}, {"txinwitness": ["3045022100af2f5bc15d878ff217fca6a1ec100f7230da9fbea66c23cfdc5045a989f645c202201836440a7307de2e3ab8fbe7e8f2da28d3b9d32018d57b14186be6d02ec8ef8f01", "0240a03f9c29a502b5ae92f669e36397549eaaef31588c9c49007d2e8278225b96"], "sequence": 16777215, "scriptSig": {"hex": "160014f6712ff4645515921465fc3308573977dd9760b4", "asm": "0014f6712ff4645515921465fc3308573977dd9760b4"}, "vout": 1, "txid": "b2d25414f3ca63cdeac039406cce0e1603dfa7ce6e36478be18e777eada7318c"}], "txid": "c97c678f0f9500d386a7ec14816889c9e25efe6ea354f63ce4c6e0e088fdb179", "blocktime": 1537871767, "version": 1, "confirmations": 11493, "time": 1537871767, "locktime": 0, "vsize": 1074, "size": 1962}