{"hash": "b37aa9a37193d8db374f78bd77ea71dd529d67a76c9d21ab9bff9ed736d2d8b7", "blockhash": "0000000000000000001cda96e906b7601b7a6fb1a3b62bca570a9e5d8f4b3de1", "vout": [{"scriptPubKey": {"reqSigs": 1, "hex": "a914c21b7b69752a90e698b3efe46d62dd602d3894fa87", "addresses": ["3KPMwFHWZapNcbNtRpGRVC61AZr9nwiY7y"], "asm": "OP_HASH160 c21b7b69752a90e698b3efe46d62dd602d3894fa OP_EQUAL", "type": "scripthash"}, "value": 0.047619, "n": 0}, {"scriptPubKey": {"reqSigs": 1, "hex": "001496d368c10e05338b0963fb767d944abe56927a3a", "addresses": ["bc1qjmfk3sgwq5eckztrldm8m9z2hetfy736e0hdn3"], "asm": "0 96d368c10e05338b0963fb767d944abe56927a3a", "type": "witness_v0_keyhash"}, "value": 0.02467212, "n": 1}], "hex": "01000000000101d05b673667a3f7fbc64ee016fdbdc9ada76de11941a652d667e2179d00a49bfd0500000017160014cbc283bcb2e0bcc1dd651b92ab21e5fc874ae7c7ffffffff022ca948000000000017a914c21b7b69752a90e698b3efe46d62dd602d3894fa878ca525000000000016001496d368c10e05338b0963fb767d944abe56927a3a02483045022100ce68e463e5db42995f9561cd9e295a66a795cef9bc5d31558dfb970587bcc77a022046c029c496c2c3f0b05f18bbba750b02134236c2142b7210051a3a2c2f89fb7301210247c177c3a08f670eb0028eb73d2b4beb4a42c93f02e7c36746cd2dd13585521c00000000", "vin": [{"txinwitness": ["3045022100ce68e463e5db42995f9561cd9e295a66a795cef9bc5d31558dfb970587bcc77a022046c029c496c2c3f0b05f18bbba750b02134236c2142b7210051a3a2c2f89fb7301", "0247c177c3a08f670eb0028eb73d2b4beb4a42c93f02e7c36746cd2dd13585521c"], "sequence": 4294967295, "scriptSig": {"hex": "160014cbc283bcb2e0bcc1dd651b92ab21e5fc874ae7c7", "asm": "0014cbc283bcb2e0bcc1dd651b92ab21e5fc874ae7c7"}, "vout": 5, "txid": "fd9ba4009d17e267d652a64119e16da7adc9bdfd16e04ec6fbf7a36736675bd0"}], "txid": "c98422d6d91d2c3bb384fee63f95e42caae5dd0c7a8d9a3ddbc058ddc5661651", "blocktime": 1537873282, "version": 1, "confirmations": 11484, "time": 1537873282, "locktime": 0, "vsize": 165, "size": 247}