{"hash": "c9841a053708d6e40edfac76c1fa041651a0f74372aa934118bbf6c8f1808df2", "blockhash": "0000000000000000001e0dab787dd257d1dbfcb92a98c2207d5e1078be1f4165", "vout": [{"scriptPubKey": {"reqSigs": 1, "hex": "76a914c5d4df8664621750098d0e391aa081769c30114888ac", "addresses": ["1K338Uc9P8c6DkEZwew9w9RWzMigAT3MG1"], "asm": "OP_DUP OP_HASH160 c5d4df8664621750098d0e391aa081769c301148 OP_EQUALVERIFY OP_CHECKSIG", "type": "pubkeyhash"}, "value": 0.0018315, "n": 0}, {"scriptPubKey": {"type": "nulldata", "hex": "6a4c50000077bc0001c3bd13c224aaea86eb8b9a95e5bf9ae76da98a211aaf6c953dd567cf27e717bec04e98f481516d0dd5eb94374f945baa121906130c1b5edcf4b4c288b2720c27cdda35b5f050e1b42260", "asm": "OP_RETURN 000077bc0001c3bd13c224aaea86eb8b9a95e5bf9ae76da98a211aaf6c953dd567cf27e717bec04e98f481516d0dd5eb94374f945baa121906130c1b5edcf4b4c288b2720c27cdda35b5f050e1b42260"}, "value": 0.0, "n": 1}], "hex": "0100000001d2dc16fc801531b489af290ddb036427f13e4e6e8a2ccae380b8aef8e8dc92b0000000006b483045022100dd8c5dbd62e774e5b3c2dd3e8a74d516e94e5b6d768889a198d8bb9619fc36bb02200cfb2b956ad016a083e65c012636471dda8b0aa9a8d1a9ceafb382dab3f7e198012102418a2129b9be7b414585f28c37073de1ae973707ee42a1b97e166af3034e871bffffffff026ecb0200000000001976a914c5d4df8664621750098d0e391aa081769c30114888ac0000000000000000536a4c50000077bc0001c3bd13c224aaea86eb8b9a95e5bf9ae76da98a211aaf6c953dd567cf27e717bec04e98f481516d0dd5eb94374f945baa121906130c1b5edcf4b4c288b2720c27cdda35b5f050e1b4226000000000", "vin": [{"sequence": 4294967295, "scriptSig": {"hex": "483045022100dd8c5dbd62e774e5b3c2dd3e8a74d516e94e5b6d768889a198d8bb9619fc36bb02200cfb2b956ad016a083e65c012636471dda8b0aa9a8d1a9ceafb382dab3f7e198012102418a2129b9be7b414585f28c37073de1ae973707ee42a1b97e166af3034e871b", "asm": "3045022100dd8c5dbd62e774e5b3c2dd3e8a74d516e94e5b6d768889a198d8bb9619fc36bb02200cfb2b956ad016a083e65c012636471dda8b0aa9a8d1a9ceafb382dab3f7e198[ALL] 02418a2129b9be7b414585f28c37073de1ae973707ee42a1b97e166af3034e871b"}, "vout": 0, "txid": "b092dce8f8aeb880e3ca2c8a6e4e3ef1276403db0d29af89b4311580fc16dcd2"}], "txid": "c9841a053708d6e40edfac76c1fa041651a0f74372aa934118bbf6c8f1808df2", "blocktime": 1537872475, "version": 1, "confirmations": 11486, "time": 1537872475, "locktime": 0, "vsize": 284, "size": 284}