{"hash": "fb41ab21501de28270dcb229cf275b135581f5726da39a7e47d73de7c182189b", "blockhash": "0000000000000000001cda96e906b7601b7a6fb1a3b62bca570a9e5d8f4b3de1", "vout": [{"scriptPubKey": {"reqSigs": 1, "hex": "a914ce7c7e77524086ab5fdc9196e6bcc47a41043e7487", "addresses": ["3LWpG4DA5AgW6bX2DGecCpVm7Vdh7e6bNd"], "asm": "OP_HASH160 ce7c7e77524086ab5fdc9196e6bcc47a41043e74 OP_EQUAL", "type": "scripthash"}, "value": 0.02309217, "n": 0}, {"scriptPubKey": {"reqSigs": 1, "hex": "0014b75b92b289c22766ac013b787f1fd8491df05d11", "addresses": ["bc1qkade9v5fcgnkdtqp8du8787cfywlqhg329hcua"], "asm": "0 b75b92b289c22766ac013b787f1fd8491df05d11", "type": "witness_v0_keyhash"}, "value": 0.49880239, "n": 1}], "hex": "020000000001012b0a0098b59fc3023b6e2d1cc77462d42792c5d3b25b4502610e573b174907f10100000000ffffffff02613c23000000000017a914ce7c7e77524086ab5fdc9196e6bcc47a41043e7487af1cf90200000000160014b75b92b289c22766ac013b787f1fd8491df05d1102483045022100b31e2b621fe479059f418ab9e6992c4ce4acebb8b672f3a7bc458ed1768ea1a3022032862bbd94ebe57b3c1045b9f4a95441ef8f248548b016a44dc29c5cd4af0cba0121038c9c7ba8852a08320c42297bfcb1bce8955e62a4cb92181b2ad949d23d493e1b00000000", "vin": [{"txinwitness": ["3045022100b31e2b621fe479059f418ab9e6992c4ce4acebb8b672f3a7bc458ed1768ea1a3022032862bbd94ebe57b3c1045b9f4a95441ef8f248548b016a44dc29c5cd4af0cba01", "038c9c7ba8852a08320c42297bfcb1bce8955e62a4cb92181b2ad949d23d493e1b"], "sequence": 4294967295, "scriptSig": {"hex": "", "asm": ""}, "vout": 1, "txid": "f10749173b570e6102455bb2d3c59227d46274c71c2d6e3b02c39fb598000a2b"}], "txid": "c985ef6630653e28c9212ed4debe263a2dc3f36f2e16927de7921398980fea04", "blocktime": 1537873282, "version": 2, "confirmations": 11482, "time": 1537873282, "locktime": 0, "vsize": 142, "size": 224}