{"hash": "c986532add4416b924db7ad76ca6ec292bb2c119d2a4f1712329d3c0c2c021f1", "blockhash": "0000000000000000001f76057863aec43deb6fa401d9628bb513d65a8098bfab", "vout": [{"scriptPubKey": {"reqSigs": 1, "hex": "a9142ba32eb0526637594b07a600d4c6787ad8b2c5d987", "addresses": ["35fkTuKT5RiExa8rWG7xu56x3QY4bZEtA2"], "asm": "OP_HASH160 2ba32eb0526637594b07a600d4c6787ad8b2c5d9 OP_EQUAL", "type": "scripthash"}, "value": 3.048e-05, "n": 0}, {"scriptPubKey": {"reqSigs": 1, "hex": "76a9147ad9b2aca9153ce66fa4e315fd6c4f5a34296c6f88ac", "addresses": ["1CCaEKfhq5oii3X43xpd8vaJwaxNgxpTUR"], "asm": "OP_DUP OP_HASH160 7ad9b2aca9153ce66fa4e315fd6c4f5a34296c6f OP_EQUALVERIFY OP_CHECKSIG", "type": "pubkeyhash"}, "value": 0.00375171, "n": 1}], "hex": "01000000022e6dd55edaa426875c82fd18a334849e0556351ae32107718778dd12ce4577ce47000000fdfe0000483045022100ab2eae5cb0a053aef2da5714764a2cd8bae53a2305a1f6051ece5010a13173e30220330691a93421b9b261fbd3a7e05d423040ba31c888a63738a8e33f6721c39c5201483045022100d645c3126b992288e7f5e0515ddbc6236dfa714efe178b950402a9efadf570e9022048f3c2fa8e4af4eafb5cadce531632059bda6d47fc6605defaada56ed2d57518014c69522102bc85e52646a3ce12a99cfcce9e8cdcac8af07f355ecf4d956d4f12cd5c3caf572102dcccd4554adb5ba8f8d94a73063b43b2cb648369229e1043b547030e022a7ed52103c3781f1900ce0496827e1f3d425324ea6ecf85934d79cdb4dc824172c41b6c5753aef30200001de3d1118e8cf47a3bf2e79c26587d29c25524aacc17d4edb9e25a020dcf834c010000006a4730440220234508643e76830cbefb6baec737934202b1289a4571ac53ca6fca0c477e0f2402203571f12622a42e9255db100a935248452d65690d0700bdb68acdfbf3692d8797012102e505c581544f41c1579bf950e0ad31db940ec2e06232bd2b2ba264e85f86cf38ffffffff02e80b00000000000017a9142ba32eb0526637594b07a600d4c6787ad8b2c5d98783b90500000000001976a9147ad9b2aca9153ce66fa4e315fd6c4f5a34296c6f88ac00000000", "vin": [{"sequence": 755, "scriptSig": {"hex": "00483045022100ab2eae5cb0a053aef2da5714764a2cd8bae53a2305a1f6051ece5010a13173e30220330691a93421b9b261fbd3a7e05d423040ba31c888a63738a8e33f6721c39c5201483045022100d645c3126b992288e7f5e0515ddbc6236dfa714efe178b950402a9efadf570e9022048f3c2fa8e4af4eafb5cadce531632059bda6d47fc6605defaada56ed2d57518014c69522102bc85e52646a3ce12a99cfcce9e8cdcac8af07f355ecf4d956d4f12cd5c3caf572102dcccd4554adb5ba8f8d94a73063b43b2cb648369229e1043b547030e022a7ed52103c3781f1900ce0496827e1f3d425324ea6ecf85934d79cdb4dc824172c41b6c5753ae", "asm": "0 3045022100ab2eae5cb0a053aef2da5714764a2cd8bae53a2305a1f6051ece5010a13173e30220330691a93421b9b261fbd3a7e05d423040ba31c888a63738a8e33f6721c39c52[ALL] 3045022100d645c3126b992288e7f5e0515ddbc6236dfa714efe178b950402a9efadf570e9022048f3c2fa8e4af4eafb5cadce531632059bda6d47fc6605defaada56ed2d57518[ALL] 522102bc85e52646a3ce12a99cfcce9e8cdcac8af07f355ecf4d956d4f12cd5c3caf572102dcccd4554adb5ba8f8d94a73063b43b2cb648369229e1043b547030e022a7ed52103c3781f1900ce0496827e1f3d425324ea6ecf85934d79cdb4dc824172c41b6c5753ae"}, "vout": 71, "txid": "ce7745ce12dd7887710721e31a3556059e8434a318fd825c8726a4da5ed56d2e"}, {"sequence": 4294967295, "scriptSig": {"hex": "4730440220234508643e76830cbefb6baec737934202b1289a4571ac53ca6fca0c477e0f2402203571f12622a42e9255db100a935248452d65690d0700bdb68acdfbf3692d8797012102e505c581544f41c1579bf950e0ad31db940ec2e06232bd2b2ba264e85f86cf38", "asm": "30440220234508643e76830cbefb6baec737934202b1289a4571ac53ca6fca0c477e0f2402203571f12622a42e9255db100a935248452d65690d0700bdb68acdfbf3692d8797[ALL] 02e505c581544f41c1579bf950e0ad31db940ec2e06232bd2b2ba264e85f86cf38"}, "vout": 1, "txid": "4c83cf0d025ae2b9edd417ccaa2455c2297d58269ce7f23b7af48c8e11d1e31d"}], "txid": "c986532add4416b924db7ad76ca6ec292bb2c119d2a4f1712329d3c0c2c021f1", "blocktime": 1537873891, "version": 1, "confirmations": 11475, "time": 1537873891, "locktime": 0, "vsize": 520, "size": 520}