{"hash": "51d8e3948e74dd204ea243091ab40410ea0cec0c56020b73652a2d4c67e09504", "blockhash": "0000000000000000001cda96e906b7601b7a6fb1a3b62bca570a9e5d8f4b3de1", "vout": [{"scriptPubKey": {"reqSigs": 1, "hex": "a914e8db75c900cf08f06518e96d167331f2a4abfb3387", "addresses": ["3NvFbQMAkkqEFj4i1sYPPLkSWzxTFUchjA"], "asm": "OP_HASH160 e8db75c900cf08f06518e96d167331f2a4abfb33 OP_EQUAL", "type": "scripthash"}, "value": 0.00049574, "n": 0}], "hex": "01000000000101ffd87caaa12ebbcc509b8e88ea256786e78abd24b6d7f28fc75eb50e2a9e9475000000001716001423c7c1d08e9b4205b022ee2a01a49faf51871a1cffffffff01a6c100000000000017a914e8db75c900cf08f06518e96d167331f2a4abfb3387024730440220110ee190d597154cd755b2a47e05cb1b377f91654ecaa7709b72f55fcefa0c6802205a8756a0c39f56ed17470ff76d5d64ace7e4381375094619234d2c2c23c7992b012102bef4590785b6ca14fe973645c5a6a12d1498e9c02e8796df1d3d904c99b8873a00000000", "vin": [{"txinwitness": ["30440220110ee190d597154cd755b2a47e05cb1b377f91654ecaa7709b72f55fcefa0c6802205a8756a0c39f56ed17470ff76d5d64ace7e4381375094619234d2c2c23c7992b01", "02bef4590785b6ca14fe973645c5a6a12d1498e9c02e8796df1d3d904c99b8873a"], "sequence": 4294967295, "scriptSig": {"hex": "16001423c7c1d08e9b4205b022ee2a01a49faf51871a1c", "asm": "001423c7c1d08e9b4205b022ee2a01a49faf51871a1c"}, "vout": 0, "txid": "75949e2a0eb55ec78ff2d7b624bd8ae7866725ea888e9b50ccbb2ea1aa7cd8ff"}], "txid": "c988f5e7739ab89a4f0483ca1f72e3e9052c9220d829092ef61f42dcd0573d72", "blocktime": 1537873282, "version": 1, "confirmations": 11485, "time": 1537873282, "locktime": 0, "vsize": 134, "size": 215}