{"hash": "855278060cc7715d5236fd7f4227156994f6bef78e83a138fd35eb0a0ad9c241", "blockhash": "00000000000000000018f53835495a110e01622372bf6ae95dc86f2b0ab887b0", "vout": [{"scriptPubKey": {"reqSigs": 1, "hex": "00140808a9d6e6d0501766a1fab631d1bb5a50bdf2d3", "addresses": ["bc1qpqy2n4hx6pgpwe4pl2mrr5dmtfgtmukn4kyj5c"], "asm": "0 0808a9d6e6d0501766a1fab631d1bb5a50bdf2d3", "type": "witness_v0_keyhash"}, "value": 0.0023201, "n": 0}, {"scriptPubKey": {"reqSigs": 1, "hex": "76a91462f9a19bb360a0c3c690c954a73ac93b0defb7bb88ac", "addresses": ["1A2LGV8JrkBhHwfUaMMLy55eF2uQ2wYnWE"], "asm": "OP_DUP OP_HASH160 62f9a19bb360a0c3c690c954a73ac93b0defb7bb OP_EQUALVERIFY OP_CHECKSIG", "type": "pubkeyhash"}, "value": 0.010552, "n": 1}], "hex": "0100000000010114969f0f1692624fdc97c1976733c79dc65e9f8ebd28eaea40508d1fb9ee9f650000000000ffffffff024a8a0300000000001600140808a9d6e6d0501766a1fab631d1bb5a50bdf2d3e0191000000000001976a91462f9a19bb360a0c3c690c954a73ac93b0defb7bb88ac0247304402203ec3305aa99c23ff84fbc8580bdc314db7717f9794b1431d4083b947de3406b802204395d2061e9e24a20a4174883147779d1885af9f12d86b6d7191e58b3c7ee31a012103ab7da4b1849178dd6f210041ad16c9559cad22812235b33946040e90efaf8cb400000000", "vin": [{"txinwitness": ["304402203ec3305aa99c23ff84fbc8580bdc314db7717f9794b1431d4083b947de3406b802204395d2061e9e24a20a4174883147779d1885af9f12d86b6d7191e58b3c7ee31a01", "03ab7da4b1849178dd6f210041ad16c9559cad22812235b33946040e90efaf8cb4"], "sequence": 4294967295, "scriptSig": {"hex": "", "asm": ""}, "vout": 0, "txid": "659feeb91f8d5040eaea28bd8e9f5ec69dc7336797c197dc4f6292160f9f9614"}], "txid": "c9893ff4487cde0d3d51e329ffcddf0b515b602a5ea0bdbcea0f2ded0dcdd285", "blocktime": 1537870928, "version": 1, "confirmations": 11514, "time": 1537870928, "locktime": 0, "vsize": 144, "size": 225}