{"hash": "2e448d66481f9e6ab02276a9e83c4a3e9059600d1bf6a06fb91610fabbdd6672", "blockhash": "0000000000000000000e13cef7c366c0283d82e591d1acd082e914b08063cdf1", "vout": [{"scriptPubKey": {"reqSigs": 1, "hex": "76a9149a1b8f9b1fa2d2297863adb1cb11c71df455684888ac", "addresses": ["1F3r5We2zwNiSzG6GQUTTWnnPMCz2HJbJu"], "asm": "OP_DUP OP_HASH160 9a1b8f9b1fa2d2297863adb1cb11c71df4556848 OP_EQUALVERIFY OP_CHECKSIG", "type": "pubkeyhash"}, "value": 3.263e-05, "n": 0}, {"scriptPubKey": {"reqSigs": 1, "hex": "a914e8db75c900cf08f06518e96d167331f2a4abfb3387", "addresses": ["3NvFbQMAkkqEFj4i1sYPPLkSWzxTFUchjA"], "asm": "OP_HASH160 e8db75c900cf08f06518e96d167331f2a4abfb33 OP_EQUAL", "type": "scripthash"}, "value": 0.00045687, "n": 1}], "hex": "01000000000101b48a7850b16936131e7e0003fd0826803d947e171561cfccc0ffdaadb1da5ea90000000023220020941cfaff8837763dc1f69ff82b6d6553fdea17a41cfc29a04403293eedd8ccc7ffffffff02bf0c0000000000001976a9149a1b8f9b1fa2d2297863adb1cb11c71df455684888ac77b200000000000017a914e8db75c900cf08f06518e96d167331f2a4abfb3387040047304402207c7f2626a9d0a8c1d5ead5482450f32b3aa55c0ad6c10a5b0bb2164b5527ddd802203cda1f3ffda73a75a7b57f90b137adfd95a1834d17b47a24a19aae5b24d0e7f901473044022027d802d19922e6495c85363e0ff5062a1a97393a4cb4f06ca1985529466048930220776919afb41bb8c80dee654f844dd1b62a83dff9bd106fda31b8c545ac2dca9d0147522102531db3a5883f29bab4241dd0cd726936667bcda445d89bdd22244e828b6993342103148c80a5bdfddb05ff5bcffc397c8ca748d8b435ec6a175bc9d7bfc7fc6f853752ae00000000", "vin": [{"txinwitness": ["", "304402207c7f2626a9d0a8c1d5ead5482450f32b3aa55c0ad6c10a5b0bb2164b5527ddd802203cda1f3ffda73a75a7b57f90b137adfd95a1834d17b47a24a19aae5b24d0e7f901", "3044022027d802d19922e6495c85363e0ff5062a1a97393a4cb4f06ca1985529466048930220776919afb41bb8c80dee654f844dd1b62a83dff9bd106fda31b8c545ac2dca9d01", "522102531db3a5883f29bab4241dd0cd726936667bcda445d89bdd22244e828b6993342103148c80a5bdfddb05ff5bcffc397c8ca748d8b435ec6a175bc9d7bfc7fc6f853752ae"], "sequence": 4294967295, "scriptSig": {"hex": "220020941cfaff8837763dc1f69ff82b6d6553fdea17a41cfc29a04403293eedd8ccc7", "asm": "0020941cfaff8837763dc1f69ff82b6d6553fdea17a41cfc29a04403293eedd8ccc7"}, "vout": 0, "txid": "a95edab1addaffc0cccf6115177e943d802608fd03007e1e133669b150788ab4"}], "txid": "c98ba3fd45f8cfd9f691026a99f94b6bbcb3b58eab5b7ea8d457316bcde304d8", "blocktime": 1537871767, "version": 1, "confirmations": 11495, "time": 1537871767, "locktime": 0, "vsize": 207, "size": 372}