{"hash": "c98d23db56c0451437f8c6aca7ffd350d60befbee663a82ef37ec04ba10f1d2d", "blockhash": "0000000000000000001e0dab787dd257d1dbfcb92a98c2207d5e1078be1f4165", "vout": [{"scriptPubKey": {"reqSigs": 1, "hex": "76a9144d86469cc5586f96f5eb6156c4852deb4de9bc8188ac", "addresses": ["184utRK1DapMh9DbnTxVQgm1upFHok8WoQ"], "asm": "OP_DUP OP_HASH160 4d86469cc5586f96f5eb6156c4852deb4de9bc81 OP_EQUALVERIFY OP_CHECKSIG", "type": "pubkeyhash"}, "value": 0.00196545, "n": 0}, {"scriptPubKey": {"reqSigs": 1, "hex": "a91441f1a66ef69446ef96d072c293dea1db1e147c3187", "addresses": ["37hhLA8JhRQYFEgnXZxVRmNvZjkDzuXS1o"], "asm": "OP_HASH160 41f1a66ef69446ef96d072c293dea1db1e147c31 OP_EQUAL", "type": "scripthash"}, "value": 0.093738, "n": 1}], "hex": "0100000001a4976308c3fda51b06460d210ea44d8dffd4e349bf5486c3640185bdafd4431b010000006b483045022100d2a170317f092241965ad1fefe189634fda9f3670ca69e133675336cad67a81302201121e5c20072dfa0884dd837a6f9db2044762c853428179196c9720f1a7538c40121039b5f077c47a149162798210d629ace6d2d9383192a97ee4abfd58ca7b31d6779ffffffff02c1ff0200000000001976a9144d86469cc5586f96f5eb6156c4852deb4de9bc8188ac68088f000000000017a91441f1a66ef69446ef96d072c293dea1db1e147c318700000000", "vin": [{"sequence": 4294967295, "scriptSig": {"hex": "483045022100d2a170317f092241965ad1fefe189634fda9f3670ca69e133675336cad67a81302201121e5c20072dfa0884dd837a6f9db2044762c853428179196c9720f1a7538c40121039b5f077c47a149162798210d629ace6d2d9383192a97ee4abfd58ca7b31d6779", "asm": "3045022100d2a170317f092241965ad1fefe189634fda9f3670ca69e133675336cad67a81302201121e5c20072dfa0884dd837a6f9db2044762c853428179196c9720f1a7538c4[ALL] 039b5f077c47a149162798210d629ace6d2d9383192a97ee4abfd58ca7b31d6779"}, "vout": 1, "txid": "1b43d4afbd850164c38654bf49e3d4ff8d4da40e210d46061ba5fdc3086397a4"}], "txid": "c98d23db56c0451437f8c6aca7ffd350d60befbee663a82ef37ec04ba10f1d2d", "blocktime": 1537872475, "version": 1, "confirmations": 11487, "time": 1537872475, "locktime": 0, "vsize": 224, "size": 224}