{"hash": "c98e51ae5133a50cef9582ec4343e18f61e24ea19d1ba50785575ac9f292731c", "blockhash": "0000000000000000001cda96e906b7601b7a6fb1a3b62bca570a9e5d8f4b3de1", "vout": [{"scriptPubKey": {"reqSigs": 1, "hex": "a91494e6860269d04c816200d6c866ee9c23df8f402287", "addresses": ["3FGL5zAfqvsc3ZaAvkqkfpAsNGBCj7S3en"], "asm": "OP_HASH160 94e6860269d04c816200d6c866ee9c23df8f4022 OP_EQUAL", "type": "scripthash"}, "value": 0.00903427, "n": 0}], "hex": "010000000144b21c6db018ad71838d1db65af7cface438e1043acdf4d680d56264f82cb180040000006b4830450221009836f542222265a90366268334b1cdd4b383344ecad230bdb59d040dd5402bae02200b814b2839038b5009db98b0d1cf617943af95495716f353f086468b7cb0510a0121025ee985354c61662126893e1d343f0a91e7549d9c946edd0b4a4db68bacc80cd7ffffffff0103c90d000000000017a91494e6860269d04c816200d6c866ee9c23df8f40228700000000", "vin": [{"sequence": 4294967295, "scriptSig": {"hex": "4830450221009836f542222265a90366268334b1cdd4b383344ecad230bdb59d040dd5402bae02200b814b2839038b5009db98b0d1cf617943af95495716f353f086468b7cb0510a0121025ee985354c61662126893e1d343f0a91e7549d9c946edd0b4a4db68bacc80cd7", "asm": "30450221009836f542222265a90366268334b1cdd4b383344ecad230bdb59d040dd5402bae02200b814b2839038b5009db98b0d1cf617943af95495716f353f086468b7cb0510a[ALL] 025ee985354c61662126893e1d343f0a91e7549d9c946edd0b4a4db68bacc80cd7"}, "vout": 4, "txid": "80b12cf86462d580d6f4cd3a04e138e4accff75ab61d8d8371ad18b06d1cb244"}], "txid": "c98e51ae5133a50cef9582ec4343e18f61e24ea19d1ba50785575ac9f292731c", "blocktime": 1537873282, "version": 1, "confirmations": 11484, "time": 1537873282, "locktime": 0, "vsize": 190, "size": 190}