{"hash": "c9904a77219350e7dc7c9a5265bb1debe2d6b2e867dc378a9654a3766d4fdc35", "blockhash": "0000000000000000001f76057863aec43deb6fa401d9628bb513d65a8098bfab", "vout": [{"scriptPubKey": {"reqSigs": 1, "hex": "76a9149789249421b385a9902e99490d7351c2c320d92d88ac", "addresses": ["1EpFKpdEj2yE6xYGKoUGCPPyu47L8qL1P1"], "asm": "OP_DUP OP_HASH160 9789249421b385a9902e99490d7351c2c320d92d OP_EQUALVERIFY OP_CHECKSIG", "type": "pubkeyhash"}, "value": 0.04873394, "n": 0}, {"scriptPubKey": {"reqSigs": 1, "hex": "76a914558a1fb10ff549af0a025d00bbaeb06506945b4888ac", "addresses": ["18oHuKH9SwAPVB9wr7KaAgW8evacKqugpk"], "asm": "OP_DUP OP_HASH160 558a1fb10ff549af0a025d00bbaeb06506945b48 OP_EQUALVERIFY OP_CHECKSIG", "type": "pubkeyhash"}, "value": 0.13715706, "n": 1}], "hex": "010000000176d2cc4291ef4b09f388de775e9e34df39541753cfc2ebb24ce6387d96b0ae05010000006a473044022062572aac463886bba73d14eba33869e02611010797b34d4ff0d83f87d0260aeb02205765d077bca8ab990606677fc858038e21b75d11a681a837e5c3d84c4d588180012103a2e7f5bdb2cff7d5f630ecf8532e489b8165a65ae7ece0c7ebec018abe093f1ffeffffff02b25c4a00000000001976a9149789249421b385a9902e99490d7351c2c320d92d88acfa48d100000000001976a914558a1fb10ff549af0a025d00bbaeb06506945b4888ac14490800", "vin": [{"sequence": 4294967294, "scriptSig": {"hex": "473044022062572aac463886bba73d14eba33869e02611010797b34d4ff0d83f87d0260aeb02205765d077bca8ab990606677fc858038e21b75d11a681a837e5c3d84c4d588180012103a2e7f5bdb2cff7d5f630ecf8532e489b8165a65ae7ece0c7ebec018abe093f1f", "asm": "3044022062572aac463886bba73d14eba33869e02611010797b34d4ff0d83f87d0260aeb02205765d077bca8ab990606677fc858038e21b75d11a681a837e5c3d84c4d588180[ALL] 03a2e7f5bdb2cff7d5f630ecf8532e489b8165a65ae7ece0c7ebec018abe093f1f"}, "vout": 1, "txid": "05aeb0967d38e64cb2ebc2cf53175439df349e5e77de88f3094bef9142ccd276"}], "txid": "c9904a77219350e7dc7c9a5265bb1debe2d6b2e867dc378a9654a3766d4fdc35", "blocktime": 1537873891, "version": 1, "confirmations": 11477, "time": 1537873891, "locktime": 542996, "vsize": 225, "size": 225}