{"hash": "ebbc7fde83801e119cddf7308bdb8362afb054ccefbfd5c4402574a015a78a93", "blockhash": "0000000000000000001f76057863aec43deb6fa401d9628bb513d65a8098bfab", "vout": [{"scriptPubKey": {"reqSigs": 1, "hex": "0014e1aa460017b11c5b00ae1036d414c91e0be2660c", "addresses": ["bc1qux4yvqqhkyw9kq9wzqmdg9xfrc97yesvkt7dqk"], "asm": "0 e1aa460017b11c5b00ae1036d414c91e0be2660c", "type": "witness_v0_keyhash"}, "value": 0.00415751, "n": 0}, {"scriptPubKey": {"reqSigs": 1, "hex": "a9142b625445857887cc51e05ea9421abc80e0f5631b87", "addresses": ["35eQmpkQkTKNjLHXDBQtaVsLXqRvFk35Fh"], "asm": "OP_HASH160 2b625445857887cc51e05ea9421abc80e0f5631b OP_EQUAL", "type": "scripthash"}, "value": 0.023088, "n": 1}], "hex": "0100000000010144dca8464502be02c777462f975addaf28cd13f2c372346a8182aecce9847caa0000000017160014444932d561ba78ae46c94a31f3b2778104e95013ffffffff020758060000000000160014e1aa460017b11c5b00ae1036d414c91e0be2660cc03a23000000000017a9142b625445857887cc51e05ea9421abc80e0f5631b8702483045022100c9bda2f9f9d88f3a85a1ef1ff154fde4db8fc61646958a2a9c3d87fc33cc2fb802200685add249d488b479cf90ec21e309e1feedb49a096fd46fa833ffbb90e43211012102af78f804e8d231da09f46af1f723d5b54bbc57005a36f0df8b0107f6c9e50d4800000000", "vin": [{"txinwitness": ["3045022100c9bda2f9f9d88f3a85a1ef1ff154fde4db8fc61646958a2a9c3d87fc33cc2fb802200685add249d488b479cf90ec21e309e1feedb49a096fd46fa833ffbb90e4321101", "02af78f804e8d231da09f46af1f723d5b54bbc57005a36f0df8b0107f6c9e50d48"], "sequence": 4294967295, "scriptSig": {"hex": "160014444932d561ba78ae46c94a31f3b2778104e95013", "asm": "0014444932d561ba78ae46c94a31f3b2778104e95013"}, "vout": 0, "txid": "aa7c84e9ccae82816a3472c3f213cd28afdd5a972f4677c702be024546a8dc44"}], "txid": "c993da2a02899c6ec8fca3edcda6d1d43de2e389c2ade7da2bf6e0746dfb7f7a", "blocktime": 1537873891, "version": 1, "confirmations": 11478, "time": 1537873891, "locktime": 0, "vsize": 165, "size": 247}