{"hash": "766bc20acb1d7dee3152fcfa1fbd409e10568f22777c58c433e83f603e9a49ba", "blockhash": "00000000000000000018f53835495a110e01622372bf6ae95dc86f2b0ab887b0", "vout": [{"scriptPubKey": {"reqSigs": 1, "hex": "a914b005542473177f05f6bdc36a21fb55f71b6bc10587", "addresses": ["3HjjEYoeekp3Wj8XVBpvRPMbpFQKcpiHUT"], "asm": "OP_HASH160 b005542473177f05f6bdc36a21fb55f71b6bc105 OP_EQUAL", "type": "scripthash"}, "value": 0.00887979, "n": 0}, {"scriptPubKey": {"reqSigs": 1, "hex": "a9142daa5a47bb4813bb1bd14084e1bb53ad850a7d5887", "addresses": ["35rUQV9xYGczzXccyoDwrTwyVwUtnhkaKM"], "asm": "OP_HASH160 2daa5a47bb4813bb1bd14084e1bb53ad850a7d58 OP_EQUAL", "type": "scripthash"}, "value": 0.01, "n": 1}], "hex": "01000000000102d84094cc2f8ae68c392264d07346debec519d9472e540a084fa134ca22b3f8290100000023220020e7056da7b11001393f9121036d8c85fe45890428a133b8e79fbeb7c5efe120faffffffff8767738fd338d6202de489773dff805e7b9ef5912a9fe222599674cac33e674800000000fdfd0000483045022100a5e1f65ca4c1d9c46f256981a6948e28098817b0fc668331b9504457bb0e558e0220119f67a658902295e5bd9eb1fdadb87d460365ca088f4cc1a9f79044810f15190147304402203ec1031f4c2774da2613a14d4b331afe3d019a7b617a84ce8cbaa68d2e7a630a02204ae042924f8bff3ae5069af2d24da6d301952aa701e1dff8c98896d60cc93842014c69522102cd9d3b85cb3619f6bde0aa445afb5a62bb3ead74438df0f23982f3495884a3502103c7534559d02d97ad572ed5f3dbed6c2a0e6639191877e7c2d9026268a7a142a42103b207f095c1ebdf25138ae884205780c73aa44616c17cca3765f9c28cbdc8cf2a53aeffffffff02ab8c0d000000000017a914b005542473177f05f6bdc36a21fb55f71b6bc1058740420f000000000017a9142daa5a47bb4813bb1bd14084e1bb53ad850a7d58870400473044022076fadfb5482bf6c2bac4392d337f862b15f2ba077fe09fe9df6a16e5f519d6c6022025890cd36a4b82ca0c6d6cf14d5705ddcba84b63e97b52f03b62c2aa69b5362501483045022100c0e4b9d5c6bd84a5f37544f12863a0eaea252792afaf05335cae4d1d69026e6702202dbcffd0034b1d334b14e7daa0abed70f1a38e3c5c8bd5486de2bfe3f67a20ab016952210324c5a287b96034551a3aae1dbac19e6592917dfbc97e980f8da882c1a8069d6d2102c8cd76784f4591fbe4c27e587a6989f777ffd77189f220503fa56ab4c54ab0ac2102b9839bb04fc80429f0995ae021a74404c120d0a98622c8491673716f5f907c3a53ae0000000000", "vin": [{"txinwitness": ["", "3044022076fadfb5482bf6c2bac4392d337f862b15f2ba077fe09fe9df6a16e5f519d6c6022025890cd36a4b82ca0c6d6cf14d5705ddcba84b63e97b52f03b62c2aa69b5362501", "3045022100c0e4b9d5c6bd84a5f37544f12863a0eaea252792afaf05335cae4d1d69026e6702202dbcffd0034b1d334b14e7daa0abed70f1a38e3c5c8bd5486de2bfe3f67a20ab01", "52210324c5a287b96034551a3aae1dbac19e6592917dfbc97e980f8da882c1a8069d6d2102c8cd76784f4591fbe4c27e587a6989f777ffd77189f220503fa56ab4c54ab0ac2102b9839bb04fc80429f0995ae021a74404c120d0a98622c8491673716f5f907c3a53ae"], "sequence": 4294967295, "scriptSig": {"hex": "220020e7056da7b11001393f9121036d8c85fe45890428a133b8e79fbeb7c5efe120fa", "asm": "0020e7056da7b11001393f9121036d8c85fe45890428a133b8e79fbeb7c5efe120fa"}, "vout": 1, "txid": "29f8b322ca34a14f080a542e47d919c5bede4673d06422398ce68a2fcc9440d8"}, {"sequence": 4294967295, "scriptSig": {"hex": "00483045022100a5e1f65ca4c1d9c46f256981a6948e28098817b0fc668331b9504457bb0e558e0220119f67a658902295e5bd9eb1fdadb87d460365ca088f4cc1a9f79044810f15190147304402203ec1031f4c2774da2613a14d4b331afe3d019a7b617a84ce8cbaa68d2e7a630a02204ae042924f8bff3ae5069af2d24da6d301952aa701e1dff8c98896d60cc93842014c69522102cd9d3b85cb3619f6bde0aa445afb5a62bb3ead74438df0f23982f3495884a3502103c7534559d02d97ad572ed5f3dbed6c2a0e6639191877e7c2d9026268a7a142a42103b207f095c1ebdf25138ae884205780c73aa44616c17cca3765f9c28cbdc8cf2a53ae", "asm": "0 3045022100a5e1f65ca4c1d9c46f256981a6948e28098817b0fc668331b9504457bb0e558e0220119f67a658902295e5bd9eb1fdadb87d460365ca088f4cc1a9f79044810f1519[ALL] 304402203ec1031f4c2774da2613a14d4b331afe3d019a7b617a84ce8cbaa68d2e7a630a02204ae042924f8bff3ae5069af2d24da6d301952aa701e1dff8c98896d60cc93842[ALL] 522102cd9d3b85cb3619f6bde0aa445afb5a62bb3ead74438df0f23982f3495884a3502103c7534559d02d97ad572ed5f3dbed6c2a0e6639191877e7c2d9026268a7a142a42103b207f095c1ebdf25138ae884205780c73aa44616c17cca3765f9c28cbdc8cf2a53ae"}, "vout": 0, "txid": "48673ec3ca74965922e29f2a91f59e7b5e80ff3d7789e42d20d638d38f736787"}], "txid": "c999300905f1e3386ecdd28677382e72193655b523e5c135cfbfb816f80505e4", "blocktime": 1537870928, "version": 1, "confirmations": 11514, "time": 1537870928, "locktime": 0, "vsize": 510, "size": 702}