{"hash": "c99b832c3a60534a336092b921de0f389635ee8f9b7cce40ac2a801bb6b7918e", "blockhash": "00000000000000000018f53835495a110e01622372bf6ae95dc86f2b0ab887b0", "vout": [{"scriptPubKey": {"reqSigs": 1, "hex": "76a9145b94c51295a956c02ba571c4cb0107286d133b8988ac", "addresses": ["19MEiAYSGffsnms3V1Ftw7qEa2fx9B8S21"], "asm": "OP_DUP OP_HASH160 5b94c51295a956c02ba571c4cb0107286d133b89 OP_EQUALVERIFY OP_CHECKSIG", "type": "pubkeyhash"}, "value": 0.012496, "n": 0}, {"scriptPubKey": {"reqSigs": 1, "hex": "76a9141999fdfb8d5d537581b98cbe98b98ac0e43a5a1788ac", "addresses": ["13LNNMdwVUqg8xE5yxqgQKTZxKdM4yzs75"], "asm": "OP_DUP OP_HASH160 1999fdfb8d5d537581b98cbe98b98ac0e43a5a17 OP_EQUALVERIFY OP_CHECKSIG", "type": "pubkeyhash"}, "value": 0.45716175, "n": 1}], "hex": "0100000001ff675f999b9513b23b6a0fe1587ba34e888dff699a08b59d65c74af01db62284010000006a473044022067f520ece7833862958d8bed15bfe637fe0532c7b20045f71aedfff9c993f0bf02207fb731975d5a9b878754b652fdcf5a680de1a9db8f852867c07c3128a85a3f0a0121026fd2c2712fb2010e4ad7f3835427dadc663a10c5254f590dc707f258b9527077ffffffff0240111300000000001976a9145b94c51295a956c02ba571c4cb0107286d133b8988accf92b902000000001976a9141999fdfb8d5d537581b98cbe98b98ac0e43a5a1788ac00000000", "vin": [{"sequence": 4294967295, "scriptSig": {"hex": "473044022067f520ece7833862958d8bed15bfe637fe0532c7b20045f71aedfff9c993f0bf02207fb731975d5a9b878754b652fdcf5a680de1a9db8f852867c07c3128a85a3f0a0121026fd2c2712fb2010e4ad7f3835427dadc663a10c5254f590dc707f258b9527077", "asm": "3044022067f520ece7833862958d8bed15bfe637fe0532c7b20045f71aedfff9c993f0bf02207fb731975d5a9b878754b652fdcf5a680de1a9db8f852867c07c3128a85a3f0a[ALL] 026fd2c2712fb2010e4ad7f3835427dadc663a10c5254f590dc707f258b9527077"}, "vout": 1, "txid": "8422b61df04ac7659db5089a69ff8d884ea37b58e10f6a3bb213959b995f67ff"}], "txid": "c99b832c3a60534a336092b921de0f389635ee8f9b7cce40ac2a801bb6b7918e", "blocktime": 1537870928, "version": 1, "confirmations": 11512, "time": 1537870928, "locktime": 0, "vsize": 225, "size": 225}