{"hash": "de5816168434c04f46b2a74ad91a85ae837ca0582b89eb466aab6f559064a376", "blockhash": "0000000000000000001f76057863aec43deb6fa401d9628bb513d65a8098bfab", "vout": [{"scriptPubKey": {"reqSigs": 1, "hex": "76a9147a537b5d132b3da9294eeb53b2f91841b8903eb888ac", "addresses": ["1C9oSpwqEs87t1KSAVY1TTuL5XZw5WnAVm"], "asm": "OP_DUP OP_HASH160 7a537b5d132b3da9294eeb53b2f91841b8903eb8 OP_EQUALVERIFY OP_CHECKSIG", "type": "pubkeyhash"}, "value": 0.0001, "n": 0}, {"scriptPubKey": {"reqSigs": 1, "hex": "a914aa04cfcefc64ba8f72c79bb995f24c997350ba0687", "addresses": ["3HBzZUsRTBHuDmLCg9YoyFRPduWv2dvuCQ"], "asm": "OP_HASH160 aa04cfcefc64ba8f72c79bb995f24c997350ba06 OP_EQUAL", "type": "scripthash"}, "value": 0.00355277, "n": 1}, {"scriptPubKey": {"reqSigs": 1, "hex": "a914a9340e92089260554e45699ee9a6fcf2471105df87", "addresses": ["3H7gUwXpn6kCFDhMjKG6W4LfVTa7H5RjTc"], "asm": "OP_HASH160 a9340e92089260554e45699ee9a6fcf2471105df OP_EQUAL", "type": "scripthash"}, "value": 4.07796336, "n": 2}, {"scriptPubKey": {"reqSigs": 1, "hex": "a914580b88b6e16417046231074c0e25f6f7b7337a7c87", "addresses": ["39iZCpkFAcXqCiP91A3yZ5gz6pBaua78ew"], "asm": "OP_HASH160 580b88b6e16417046231074c0e25f6f7b7337a7c OP_EQUAL", "type": "scripthash"}, "value": 0.00215311, "n": 3}, {"scriptPubKey": {"reqSigs": 1, "hex": "a914f11ca98754f7d0d89d58da6f086b5a4ee99e86b487", "addresses": ["3Pfu7G62LhrFVwFzmV9XpQHJH6AKdNxhKY"], "asm": "OP_HASH160 f11ca98754f7d0d89d58da6f086b5a4ee99e86b4 OP_EQUAL", "type": "scripthash"}, "value": 0.00215433, "n": 4}, {"scriptPubKey": {"reqSigs": 1, "hex": "a91458531a94e5084f5dc42575923cf88ff105b1190187", "addresses": ["39k2wacyXx6X9HGDduC14bNVqTDyBqHeat"], "asm": "OP_HASH160 58531a94e5084f5dc42575923cf88ff105b11901 OP_EQUAL", "type": "scripthash"}, "value": 0.00347693, "n": 5}, {"scriptPubKey": {"reqSigs": 1, "hex": "a9149e5d4044b90e0aaabc19863301abd2cc0268c01987", "addresses": ["3G8NQ3pTVydb3Vy3LsoefgoqG2mVi4xreb"], "asm": "OP_HASH160 9e5d4044b90e0aaabc19863301abd2cc0268c019 OP_EQUAL", "type": "scripthash"}, "value": 0.00440931, "n": 6}, {"scriptPubKey": {"reqSigs": 1, "hex": "a914e5708eafc32377a4a892cbacc4b3afa9a113281987", "addresses": ["3NcBW6XNXugWWKchVxCgcbc23nLyDRjAF4"], "asm": "OP_HASH160 e5708eafc32377a4a892cbacc4b3afa9a1132819 OP_EQUAL", "type": "scripthash"}, "value": 0.0059492, "n": 7}, {"scriptPubKey": {"reqSigs": 1, "hex": "a9147f65a75a9c621860829405481311a9001f33fa6f87", "addresses": ["3DJdWvwxm9j7iratHoE3cH5HumyBGTCvSF"], "asm": "OP_HASH160 7f65a75a9c621860829405481311a9001f33fa6f OP_EQUAL", "type": "scripthash"}, "value": 0.00797676, "n": 8}, {"scriptPubKey": {"reqSigs": 1, "hex": "a91458bae7582d172b316df7d64e842f004a661594fc87", "addresses": ["39nBHim6iSHqbAf9zbJxEixRJEKWQXNLtw"], "asm": "OP_HASH160 58bae7582d172b316df7d64e842f004a661594fc OP_EQUAL", "type": "scripthash"}, "value": 0.00363919, "n": 9}, {"scriptPubKey": {"reqSigs": 1, "hex": "a914431d1d1810c05dabac7f194050f1f3930f49183287", "addresses": ["37ot5FM2fxw42FKnMKAXx1N6p3Y2sfoPA5"], "asm": "OP_HASH160 431d1d1810c05dabac7f194050f1f3930f491832 OP_EQUAL", "type": "scripthash"}, "value": 0.00279918, "n": 10}, {"scriptPubKey": {"reqSigs": 1, "hex": "a9147858bf7a05637f36b09d7660fa54c9e1adc290b387", "addresses": ["3CfMKsxmqsZU4vWZFR8jGRW1bNRUhGeSaP"], "asm": "OP_HASH160 7858bf7a05637f36b09d7660fa54c9e1adc290b3 OP_EQUAL", "type": "scripthash"}, "value": 0.00225947, "n": 11}, {"scriptPubKey": {"reqSigs": 1, "hex": "76a914bc32fb0fcfbe137da1dea632c9bc3c9de352790388ac", "addresses": ["1JA77GReyAbgoAn5EqcvTrutLEn5tQCzfN"], "asm": "OP_DUP OP_HASH160 bc32fb0fcfbe137da1dea632c9bc3c9de3527903 OP_EQUALVERIFY OP_CHECKSIG", "type": "pubkeyhash"}, "value": 0.0028, "n": 12}, {"scriptPubKey": {"reqSigs": 1, "hex": "a91412b0c8cef2cf72da8ba6ff6a38c88d1f92abaab987", "addresses": ["33PqsC8UNymZWZH33ToPeA293vuVV1KFNj"], "asm": "OP_HASH160 12b0c8cef2cf72da8ba6ff6a38c88d1f92abaab9 OP_EQUAL", "type": "scripthash"}, "value": 0.00607832, "n": 13}, {"scriptPubKey": {"reqSigs": 1, "hex": "76a914e56dc199970747175f97aaea5ba8c183c805f61588ac", "addresses": ["1Mv7DvmkykJduaWRpcJ3ciTwsrGkpY7zmn"], "asm": "OP_DUP OP_HASH160 e56dc199970747175f97aaea5ba8c183c805f615 OP_EQUALVERIFY OP_CHECKSIG", "type": "pubkeyhash"}, "value": 0.03517958, "n": 14}, {"scriptPubKey": {"reqSigs": 1, "hex": "a914f482bc10e692dc6c611e3bb7b334426ff6d8794e87", "addresses": ["3PysQxAVjhrTD97vWY9ZBVNsYoHaJ6zf9Q"], "asm": "OP_HASH160 f482bc10e692dc6c611e3bb7b334426ff6d8794e OP_EQUAL", "type": "scripthash"}, "value": 0.00199075, "n": 15}, {"scriptPubKey": {"reqSigs": 1, "hex": "a9146cd25e9ad7dbb4a30ca45535687c1a414cf7af8187", "addresses": ["3BcQuzcCC1u3XZ9GpJGJuZCYkRRZkmiubA"], "asm": "OP_HASH160 6cd25e9ad7dbb4a30ca45535687c1a414cf7af81 OP_EQUAL", "type": "scripthash"}, "value": 0.00491112, "n": 16}, {"scriptPubKey": {"reqSigs": 1, "hex": "a9147262b5454da88602ce5f5199d5e3551be1e0772987", "addresses": ["3C7qCmem5KD8o2PcowYsLh677c5MznoLM6"], "asm": "OP_HASH160 7262b5454da88602ce5f5199d5e3551be1e07729 OP_EQUAL", "type": "scripthash"}, "value": 0.00390778, "n": 17}, {"scriptPubKey": {"reqSigs": 1, "hex": "a914f8178e8c90cae0a0c80b9ed81cfd73a0465377ce87", "addresses": ["3QJoisi74h3kGmt75tJ4NvDbg9kpXxjh2N"], "asm": "OP_HASH160 f8178e8c90cae0a0c80b9ed81cfd73a0465377ce OP_EQUAL", "type": "scripthash"}, "value": 0.00780519, "n": 18}], "hex": "0200000000010177d07e766634b500a5fc1ddcee2791e9ba399bed65131d075e2495241cc166ff0000000017160014361a0191820b7b81427ae2fb1b9ac6bfb0d7907ffeffffff1310270000000000001976a9147a537b5d132b3da9294eeb53b2f91841b8903eb888accd6b05000000000017a914aa04cfcefc64ba8f72c79bb995f24c997350ba0687707a4e180000000017a914a9340e92089260554e45699ee9a6fcf2471105df870f4903000000000017a914580b88b6e16417046231074c0e25f6f7b7337a7c87894903000000000017a914f11ca98754f7d0d89d58da6f086b5a4ee99e86b4872d4e05000000000017a91458531a94e5084f5dc42575923cf88ff105b119018763ba06000000000017a9149e5d4044b90e0aaabc19863301abd2cc0268c01987e81309000000000017a914e5708eafc32377a4a892cbacc4b3afa9a113281987ec2b0c000000000017a9147f65a75a9c621860829405481311a9001f33fa6f878f8d05000000000017a91458bae7582d172b316df7d64e842f004a661594fc876e4504000000000017a914431d1d1810c05dabac7f194050f1f3930f491832879b7203000000000017a9147858bf7a05637f36b09d7660fa54c9e1adc290b387c0450400000000001976a914bc32fb0fcfbe137da1dea632c9bc3c9de352790388ac584609000000000017a91412b0c8cef2cf72da8ba6ff6a38c88d1f92abaab98706ae3500000000001976a914e56dc199970747175f97aaea5ba8c183c805f61588aca30903000000000017a914f482bc10e692dc6c611e3bb7b334426ff6d8794e87687e07000000000017a9146cd25e9ad7dbb4a30ca45535687c1a414cf7af81877af605000000000017a9147262b5454da88602ce5f5199d5e3551be1e0772987e7e80b000000000017a914f8178e8c90cae0a0c80b9ed81cfd73a0465377ce87024830450221009e822bab1cee1b66b17a122d69c143fd54c0275d59d72839476d3b50e503143202201faeb8df39980ee16ea746d6679d142060dbf5d06b2456a152644b60503f548c0121039b3f32cd51bf9d6722b9cf4f1821d671533537666d91d306a70bc28836a3f90613490800", "vin": [{"txinwitness": ["30450221009e822bab1cee1b66b17a122d69c143fd54c0275d59d72839476d3b50e503143202201faeb8df39980ee16ea746d6679d142060dbf5d06b2456a152644b60503f548c01", "039b3f32cd51bf9d6722b9cf4f1821d671533537666d91d306a70bc28836a3f906"], "sequence": 4294967294, "scriptSig": {"hex": "160014361a0191820b7b81427ae2fb1b9ac6bfb0d7907f", "asm": "0014361a0191820b7b81427ae2fb1b9ac6bfb0d7907f"}, "vout": 0, "txid": "ff66c11c2495245e071d1365ed9b39bae99127eedc1dfca500b53466767ed077"}], "txid": "c9a073ade7f8516d9989862ca71d5e2a4ad6ee86db9044a2ab9a2fec22ffca94", "blocktime": 1537873891, "version": 2, "confirmations": 11475, "time": 1537873891, "locktime": 542995, "vsize": 716, "size": 798}