{"hash": "c9a029205c0b1c19f489d707f2c64b8d2f30b90a3e73c0bb45b2e4d9ba39dc37", "blockhash": "0000000000000000000e13cef7c366c0283d82e591d1acd082e914b08063cdf1", "vout": [{"scriptPubKey": {"reqSigs": 1, "hex": "a914b225ddedb5b3c74932f29371e8c4a3957a79865587", "addresses": ["3HvyZjCtrLi2qgbmo2J3znjb6BcMuPr6Di"], "asm": "OP_HASH160 b225ddedb5b3c74932f29371e8c4a3957a798655 OP_EQUAL", "type": "scripthash"}, "value": 0.0028677, "n": 0}, {"scriptPubKey": {"reqSigs": 1, "hex": "76a9147e619c736389be3c10bf779d4056b4b66d577c0288ac", "addresses": ["1CXF5K41ckY1WngkE8UwpKNn7GEZvqrgvK"], "asm": "OP_DUP OP_HASH160 7e619c736389be3c10bf779d4056b4b66d577c02 OP_EQUALVERIFY OP_CHECKSIG", "type": "pubkeyhash"}, "value": 0.08075503, "n": 1}], "hex": "0100000001bd76f487dc8b6c4aeed075762bef4370b07633f60e3122e4ae6877439571f7f5010000006b483045022100c80832832c89f35dad8d85704f23f38a7ff2aa4a56d715ea860a88852d269f360220327de811874aeabd8a2761394ff5b37f40fc9662f77c50dfb9ab635574bdb270012103692a262b9725dca1035a83d53ff502463084df00832b03ebc8d8a3da654f089dffffffff02326004000000000017a914b225ddedb5b3c74932f29371e8c4a3957a79865587ef387b00000000001976a9147e619c736389be3c10bf779d4056b4b66d577c0288ac00000000", "vin": [{"sequence": 4294967295, "scriptSig": {"hex": "483045022100c80832832c89f35dad8d85704f23f38a7ff2aa4a56d715ea860a88852d269f360220327de811874aeabd8a2761394ff5b37f40fc9662f77c50dfb9ab635574bdb270012103692a262b9725dca1035a83d53ff502463084df00832b03ebc8d8a3da654f089d", "asm": "3045022100c80832832c89f35dad8d85704f23f38a7ff2aa4a56d715ea860a88852d269f360220327de811874aeabd8a2761394ff5b37f40fc9662f77c50dfb9ab635574bdb270[ALL] 03692a262b9725dca1035a83d53ff502463084df00832b03ebc8d8a3da654f089d"}, "vout": 1, "txid": "f5f77195437768aee422310ef63376b07043ef2b7675d0ee4a6c8bdc87f476bd"}], "txid": "c9a029205c0b1c19f489d707f2c64b8d2f30b90a3e73c0bb45b2e4d9ba39dc37", "blocktime": 1537871767, "version": 1, "confirmations": 11492, "time": 1537871767, "locktime": 0, "vsize": 224, "size": 224}