{"hash": "c9a1632ecb3feeea4de8313a918ce9d3aba318a327d5e38cf9c49fe8ab0a3fa5", "blockhash": "0000000000000000001f76057863aec43deb6fa401d9628bb513d65a8098bfab", "vout": [{"scriptPubKey": {"reqSigs": 1, "hex": "76a914f614ca21c11e6a2be466211ee8efa74aa19d820388ac", "addresses": ["1PSA8gBENfPVL82nmwd9t2tUxDND28sy5T"], "asm": "OP_DUP OP_HASH160 f614ca21c11e6a2be466211ee8efa74aa19d8203 OP_EQUALVERIFY OP_CHECKSIG", "type": "pubkeyhash"}, "value": 0.00087625, "n": 0}, {"scriptPubKey": {"reqSigs": 1, "hex": "a914297c2aefd183c19d636945e02e77ea3e5f2f36c687", "addresses": ["35UNNjVHHpq8HC7G87mv6QJQ83wXDGwtxa"], "asm": "OP_HASH160 297c2aefd183c19d636945e02e77ea3e5f2f36c6 OP_EQUAL", "type": "scripthash"}, "value": 0.004, "n": 1}], "hex": "010000000157396c2f8635b8c642304fd50301f2c87e7a9b8bfb6343d3054e43a8a1d3f12d010000006b483045022100ad5973be8ff4eaab88e5fb914506eb30f97c7fb92c7a4132e38c16bb4150fa9902202fd9c54c9de48653aafbf36e29e2a4d995d86bee445f300d90929afc3a439bd30121037d266d3b5ac6a1635a65af58a6af3a086e3671b74ed40bed7f235fbdfc3cb9a2ffffffff0249560100000000001976a914f614ca21c11e6a2be466211ee8efa74aa19d820388ac801a06000000000017a914297c2aefd183c19d636945e02e77ea3e5f2f36c68700000000", "vin": [{"sequence": 4294967295, "scriptSig": {"hex": "483045022100ad5973be8ff4eaab88e5fb914506eb30f97c7fb92c7a4132e38c16bb4150fa9902202fd9c54c9de48653aafbf36e29e2a4d995d86bee445f300d90929afc3a439bd30121037d266d3b5ac6a1635a65af58a6af3a086e3671b74ed40bed7f235fbdfc3cb9a2", "asm": "3045022100ad5973be8ff4eaab88e5fb914506eb30f97c7fb92c7a4132e38c16bb4150fa9902202fd9c54c9de48653aafbf36e29e2a4d995d86bee445f300d90929afc3a439bd3[ALL] 037d266d3b5ac6a1635a65af58a6af3a086e3671b74ed40bed7f235fbdfc3cb9a2"}, "vout": 1, "txid": "2df1d3a1a8434e05d34363fb8b9b7a7ec8f20103d54f3042c6b835862f6c3957"}], "txid": "c9a1632ecb3feeea4de8313a918ce9d3aba318a327d5e38cf9c49fe8ab0a3fa5", "blocktime": 1537873891, "version": 1, "confirmations": 11474, "time": 1537873891, "locktime": 0, "vsize": 224, "size": 224}