{"hash": "06f5e644983313de7d2564c5278973ee3a1bf5997c7759abbbc6fa837e731a3f", "blockhash": "00000000000000000004ffacab907a6b429b9a5745fa0b75af4234bf69dd7176", "vout": [{"scriptPubKey": {"reqSigs": 1, "hex": "76a91430708337f44436fe585da37932680ca94894d3ab88ac", "addresses": ["15R8DifsLALf1TNcTq1osbAQmiURJswmBg"], "asm": "OP_DUP OP_HASH160 30708337f44436fe585da37932680ca94894d3ab OP_EQUALVERIFY OP_CHECKSIG", "type": "pubkeyhash"}, "value": 0.0031, "n": 0}, {"scriptPubKey": {"reqSigs": 1, "hex": "a9141988a27e3c2df4ddee7fad5a2303d086179b2a3087", "addresses": ["3422VtS7UtCvXYxoXMVp6eZupR252z85oC"], "asm": "OP_HASH160 1988a27e3c2df4ddee7fad5a2303d086179b2a30 OP_EQUAL", "type": "scripthash"}, "value": 1.6106772, "n": 1}], "hex": "010000000001018e8027a65fb8cb50f2de6466680aca1255acf90d0fc3cf400d948779e6c7e165010000002322002065d416c48a8072e0ac51c2d111eb194f009caef0332446c1bf2097316cf07fa9ffffffff02f0ba0400000000001976a91430708337f44436fe585da37932680ca94894d3ab88acc8b299090000000017a9141988a27e3c2df4ddee7fad5a2303d086179b2a30870400473044022020a51c2744d6a65338f914a0cd9d841da34e288a16448c3486326ca0489f648a022018d68c4a2ce95e2e38fda1989c6120ad597fcddf377bfd57b5f22fb74521201601483045022100ba1d22207786294c20df42093e30bdfe38359d91a0c5e5146363e3fa6af3115e02202bd154347ada4fb2da7bba3bcfed15e488fb191e9caee52d1ef90bf2a31293270169522102f44abcf9e23c9a460da309ccca56c619c04eed3bde2c2cff5e7d78fbcd980b9c2103c9443cf3047bb6c2c82f1b0c44c36109cdc3d0d601d16d1189a1602bf8d1a0a02103bfe867059274412412e088af5572b92168c2ef495cfe6c9b7a753a009eb37c4853ae00000000", "vin": [{"txinwitness": ["", "3044022020a51c2744d6a65338f914a0cd9d841da34e288a16448c3486326ca0489f648a022018d68c4a2ce95e2e38fda1989c6120ad597fcddf377bfd57b5f22fb74521201601", "3045022100ba1d22207786294c20df42093e30bdfe38359d91a0c5e5146363e3fa6af3115e02202bd154347ada4fb2da7bba3bcfed15e488fb191e9caee52d1ef90bf2a312932701", "522102f44abcf9e23c9a460da309ccca56c619c04eed3bde2c2cff5e7d78fbcd980b9c2103c9443cf3047bb6c2c82f1b0c44c36109cdc3d0d601d16d1189a1602bf8d1a0a02103bfe867059274412412e088af5572b92168c2ef495cfe6c9b7a753a009eb37c4853ae"], "sequence": 4294967295, "scriptSig": {"hex": "22002065d416c48a8072e0ac51c2d111eb194f009caef0332446c1bf2097316cf07fa9", "asm": "002065d416c48a8072e0ac51c2d111eb194f009caef0332446c1bf2097316cf07fa9"}, "vout": 1, "txid": "65e1c7e67987940d40cfc30f0df9ac5512ca0a686664def250cbb85fa627808e"}], "txid": "c9a2b351b9b9cb00d9560d6df1db2a5b6ca25718b2dfe63b72a0e243b992cf02", "blocktime": 1537875543, "version": 1, "confirmations": 11464, "time": 1537875543, "locktime": 0, "vsize": 216, "size": 407}