{"hash": "c9a4dd2639e60eee4c9a51c49802a26f181f7d7cd5347937948f1f34366152cf", "blockhash": "0000000000000000001cda96e906b7601b7a6fb1a3b62bca570a9e5d8f4b3de1", "vout": [{"scriptPubKey": {"reqSigs": 1, "hex": "a9146eb39daf7e03ec86d4c16809118b4faaabb72fc087", "addresses": ["3BnMRadocvSzL7PSnG5pNVGn2UWmPUCVY1"], "asm": "OP_HASH160 6eb39daf7e03ec86d4c16809118b4faaabb72fc0 OP_EQUAL", "type": "scripthash"}, "value": 3.90966058, "n": 0}, {"scriptPubKey": {"reqSigs": 1, "hex": "76a914a9fff47ce88ad9aec6e690211dddf1f8a78cb66188ac", "addresses": ["1GVspVE9a9cq81rYnBqiNEtsXYn24UQWUH"], "asm": "OP_DUP OP_HASH160 a9fff47ce88ad9aec6e690211dddf1f8a78cb661 OP_EQUALVERIFY OP_CHECKSIG", "type": "pubkeyhash"}, "value": 0.0304545, "n": 1}], "hex": "010000000127468e509282c16e34977e684cc518bd1da72ae46807a1dbc4068d5b0457e24100000000fdfd0000483045022100b6b2f0bf20b81e26cb75faa2f957d512cc23064a9ef0becf3c077c3fd3d1476e02202dc45a259edd049f69aa70dadd9d15cfc851800d489ea9140cbb16d7e2c073120147304402203cf2cb401ddf08be1a217fdac2b6787c6f382a66dc009c1c895d1f9fd82f57ae0220671e8de524b8cddffc49db02d4a0d645ddf4fff12828999e3739eef86d54bc0f014c6952210230cc509c17ded505144edaccf2bb6adc4612e106759b08d6211b0a796826a69d21024531c04061932fad432080dd11ac354a00b39c6b005418d1b921ccfd6817a0ee21034a98fde603b67c246b2433f029201c6f9ffee9808f9a2b580d942be24887ba6553aeffffffff022aab4d170000000017a9146eb39daf7e03ec86d4c16809118b4faaabb72fc0874a782e00000000001976a914a9fff47ce88ad9aec6e690211dddf1f8a78cb66188ac00000000", "vin": [{"sequence": 4294967295, "scriptSig": {"hex": "00483045022100b6b2f0bf20b81e26cb75faa2f957d512cc23064a9ef0becf3c077c3fd3d1476e02202dc45a259edd049f69aa70dadd9d15cfc851800d489ea9140cbb16d7e2c073120147304402203cf2cb401ddf08be1a217fdac2b6787c6f382a66dc009c1c895d1f9fd82f57ae0220671e8de524b8cddffc49db02d4a0d645ddf4fff12828999e3739eef86d54bc0f014c6952210230cc509c17ded505144edaccf2bb6adc4612e106759b08d6211b0a796826a69d21024531c04061932fad432080dd11ac354a00b39c6b005418d1b921ccfd6817a0ee21034a98fde603b67c246b2433f029201c6f9ffee9808f9a2b580d942be24887ba6553ae", "asm": "0 3045022100b6b2f0bf20b81e26cb75faa2f957d512cc23064a9ef0becf3c077c3fd3d1476e02202dc45a259edd049f69aa70dadd9d15cfc851800d489ea9140cbb16d7e2c07312[ALL] 304402203cf2cb401ddf08be1a217fdac2b6787c6f382a66dc009c1c895d1f9fd82f57ae0220671e8de524b8cddffc49db02d4a0d645ddf4fff12828999e3739eef86d54bc0f[ALL] 52210230cc509c17ded505144edaccf2bb6adc4612e106759b08d6211b0a796826a69d21024531c04061932fad432080dd11ac354a00b39c6b005418d1b921ccfd6817a0ee21034a98fde603b67c246b2433f029201c6f9ffee9808f9a2b580d942be24887ba6553ae"}, "vout": 0, "txid": "41e257045b8d06c4dba10768e42aa71dbd18c54c687e97346ec18292508e4627"}], "txid": "c9a4dd2639e60eee4c9a51c49802a26f181f7d7cd5347937948f1f34366152cf", "blocktime": 1537873282, "version": 1, "confirmations": 11484, "time": 1537873282, "locktime": 0, "vsize": 372, "size": 372}