{"hash": "c9af928dd4bc4bfc93505276f08848effcbc45ec109ba0aa41f8114ee13aafe9", "blockhash": "0000000000000000000e13cef7c366c0283d82e591d1acd082e914b08063cdf1", "vout": [{"scriptPubKey": {"reqSigs": 1, "hex": "76a9140f706fa3bd2a310dee31843fb8b7b54b246ca13588ac", "addresses": ["12Qdq5JGn9ssppAFSThbySgBD66DBWjze8"], "asm": "OP_DUP OP_HASH160 0f706fa3bd2a310dee31843fb8b7b54b246ca135 OP_EQUALVERIFY OP_CHECKSIG", "type": "pubkeyhash"}, "value": 0.00643756, "n": 0}, {"scriptPubKey": {"type": "nulldata", "hex": "6a4c500000778f0001e7a456ce0cb83b3484133e3ee3ef3236678a625097bcbefa6b8351586b4ef3d5191c4765e120d4619b974c49561c5baa0c760613d73ccb0eebae1d100759d4ba30d2c37bb011d97e02cf", "asm": "OP_RETURN 0000778f0001e7a456ce0cb83b3484133e3ee3ef3236678a625097bcbefa6b8351586b4ef3d5191c4765e120d4619b974c49561c5baa0c760613d73ccb0eebae1d100759d4ba30d2c37bb011d97e02cf"}, "value": 0.0, "n": 1}], "hex": "0100000001075a854091ffaf8ab5aeeab335a22c53ecc7f84c1b0ee1ac7117396a869e7477000000006b483045022100f4a21fd69dcbf3e871d3ca1b604fa9211de74f261ed9afe526a83640c7da4ea202205dd7c9f7f88a9d6c4461293bbda4be5b8342a9628b1d883ae817c22cdccfa2050121025e817fd44cbfffd9f7cc4c76d9c00c63a78fe84fc5b5e18613c48e5ebe9c9d6dffffffff02acd20900000000001976a9140f706fa3bd2a310dee31843fb8b7b54b246ca13588ac0000000000000000536a4c500000778f0001e7a456ce0cb83b3484133e3ee3ef3236678a625097bcbefa6b8351586b4ef3d5191c4765e120d4619b974c49561c5baa0c760613d73ccb0eebae1d100759d4ba30d2c37bb011d97e02cf00000000", "vin": [{"sequence": 4294967295, "scriptSig": {"hex": "483045022100f4a21fd69dcbf3e871d3ca1b604fa9211de74f261ed9afe526a83640c7da4ea202205dd7c9f7f88a9d6c4461293bbda4be5b8342a9628b1d883ae817c22cdccfa2050121025e817fd44cbfffd9f7cc4c76d9c00c63a78fe84fc5b5e18613c48e5ebe9c9d6d", "asm": "3045022100f4a21fd69dcbf3e871d3ca1b604fa9211de74f261ed9afe526a83640c7da4ea202205dd7c9f7f88a9d6c4461293bbda4be5b8342a9628b1d883ae817c22cdccfa205[ALL] 025e817fd44cbfffd9f7cc4c76d9c00c63a78fe84fc5b5e18613c48e5ebe9c9d6d"}, "vout": 0, "txid": "77749e866a391771ace10e1b4cf8c7ec532ca235b3eaaeb58aafff9140855a07"}], "txid": "c9af928dd4bc4bfc93505276f08848effcbc45ec109ba0aa41f8114ee13aafe9", "blocktime": 1537871767, "version": 1, "confirmations": 11495, "time": 1537871767, "locktime": 0, "vsize": 284, "size": 284}