{"hash": "c9b0ead166771f995e835f43e64ebaaac391e069ae1d25ce20c40e8415a3f8a3", "blockhash": "0000000000000000001f76057863aec43deb6fa401d9628bb513d65a8098bfab", "vout": [{"scriptPubKey": {"reqSigs": 1, "hex": "76a914ccaad66c7330555e30d7f373ab473835f922b1c188ac", "addresses": ["1KfBW8yGH3mYfVycqKM5TiaVnrPQUY1YxE"], "asm": "OP_DUP OP_HASH160 ccaad66c7330555e30d7f373ab473835f922b1c1 OP_EQUALVERIFY OP_CHECKSIG", "type": "pubkeyhash"}, "value": 0.00999197, "n": 0}], "hex": "01000000011b7895c8c2e87d49853422c1c73002ef39d31abcc849c334fd2325b036c9a815020000006b483045022100ca40006e5f3dcf178172c6ab99b50a5d43fef84f2825647136496b7d28384378022062fa0dffcbff216476dfa3fa89bd0686a3dd777b5a63270517e623f693200d1d0121034f2b9689de700318a1d22ed98643385ed84a8751652a0f2d675e16998935d77cffffffff011d3f0f00000000001976a914ccaad66c7330555e30d7f373ab473835f922b1c188ac00000000", "vin": [{"sequence": 4294967295, "scriptSig": {"hex": "483045022100ca40006e5f3dcf178172c6ab99b50a5d43fef84f2825647136496b7d28384378022062fa0dffcbff216476dfa3fa89bd0686a3dd777b5a63270517e623f693200d1d0121034f2b9689de700318a1d22ed98643385ed84a8751652a0f2d675e16998935d77c", "asm": "3045022100ca40006e5f3dcf178172c6ab99b50a5d43fef84f2825647136496b7d28384378022062fa0dffcbff216476dfa3fa89bd0686a3dd777b5a63270517e623f693200d1d[ALL] 034f2b9689de700318a1d22ed98643385ed84a8751652a0f2d675e16998935d77c"}, "vout": 2, "txid": "15a8c936b02523fd34c349c8bc1ad339ef0230c7c1223485497de8c2c895781b"}], "txid": "c9b0ead166771f995e835f43e64ebaaac391e069ae1d25ce20c40e8415a3f8a3", "blocktime": 1537873891, "version": 1, "confirmations": 11478, "time": 1537873891, "locktime": 0, "vsize": 192, "size": 192}