{"hash": "8af76608774d272e306c93f6c79d61b5884ca147e131b7036aca7c916fc5282a", "blockhash": "00000000000000000004ffacab907a6b429b9a5745fa0b75af4234bf69dd7176", "vout": [{"scriptPubKey": {"reqSigs": 1, "hex": "a914dbd7e7772d35773f00df7a85997104745946656987", "addresses": ["3MjSYqbyHPmsAsJ7osS3ViRGEuNYvXBHZB"], "asm": "OP_HASH160 dbd7e7772d35773f00df7a859971047459466569 OP_EQUAL", "type": "scripthash"}, "value": 0.20741533, "n": 0}, {"scriptPubKey": {"reqSigs": 1, "hex": "76a914397b9440e285d5bcedb669157ced9fe78eecfc1688ac", "addresses": ["16EwZMz2P2jyydr8o93Zw8qACezZyzenFF"], "asm": "OP_DUP OP_HASH160 397b9440e285d5bcedb669157ced9fe78eecfc16 OP_EQUALVERIFY OP_CHECKSIG", "type": "pubkeyhash"}, "value": 0.003, "n": 1}, {"scriptPubKey": {"reqSigs": 1, "hex": "a91459e3bb9c4a826a96b8d69d97b226db8be3f0dc6787", "addresses": ["39tJsmmhcwNzrshUpHrHXdW4C6e2iu9Qoj"], "asm": "OP_HASH160 59e3bb9c4a826a96b8d69d97b226db8be3f0dc67 OP_EQUAL", "type": "scripthash"}, "value": 15.86536157, "n": 2}], "hex": "02000000000101a5ccf0fd064520751e9af0587ebae2653867a292335f807535a7bf23620d72ab0100000017160014229d033a3bc1911e1b75988c6a19f7672994709efeffffff039d7d3c010000000017a914dbd7e7772d35773f00df7a85997104745946656987e0930400000000001976a914397b9440e285d5bcedb669157ced9fe78eecfc1688acdd9e905e0000000017a91459e3bb9c4a826a96b8d69d97b226db8be3f0dc6787024730440220411cdaedf2b64e1a0090daef82a4a7125d1b1bc9b3f8095597213370090c763d022041ae4d4bf9602a5ae7140359c93ad63e9f9a5a7f9ff65ffcd3ab0f842c49c586012102fab91e8ddfa9237cc36a49b29afc2af3f0e10ed63a84cc5b7665ec8562dd567716490800", "vin": [{"txinwitness": ["30440220411cdaedf2b64e1a0090daef82a4a7125d1b1bc9b3f8095597213370090c763d022041ae4d4bf9602a5ae7140359c93ad63e9f9a5a7f9ff65ffcd3ab0f842c49c58601", "02fab91e8ddfa9237cc36a49b29afc2af3f0e10ed63a84cc5b7665ec8562dd5677"], "sequence": 4294967294, "scriptSig": {"hex": "160014229d033a3bc1911e1b75988c6a19f7672994709e", "asm": "0014229d033a3bc1911e1b75988c6a19f7672994709e"}, "vout": 1, "txid": "ab720d6223bfa73575805f3392a2673865e2ba7e58f09a1e75204506fdf0cca5"}], "txid": "c9b1c72300750eae30d6250c664b06aa93ac8f209e0cd86e7694dbbafd4df2d0", "blocktime": 1537875543, "version": 2, "confirmations": 11464, "time": 1537875543, "locktime": 542998, "vsize": 200, "size": 281}