{"hash": "ff80c9c75df8b4069fd85500f9ae80c229d16834bd9bb015781ede84e4fbafbb", "blockhash": "00000000000000000017f5eb5941039fbcee6240d03bc1f2f8e35350df66a1d8", "vout": [{"scriptPubKey": {"reqSigs": 1, "hex": "a914483db34754558ef69baa77775b1b7b219198458d87", "addresses": ["38GzVNJLvF6wZqYwnXS7NRtiCdUfFhj5FW"], "asm": "OP_HASH160 483db34754558ef69baa77775b1b7b219198458d OP_EQUAL", "type": "scripthash"}, "value": 0.63108106, "n": 0}, {"scriptPubKey": {"reqSigs": 1, "hex": "a91469480d9f39bf15ee8d62826617bf927fbfc1cf7e87", "addresses": ["3BHhC2jsujcLC5q8h2sVP4tW16j7cuDJbQ"], "asm": "OP_HASH160 69480d9f39bf15ee8d62826617bf927fbfc1cf7e OP_EQUAL", "type": "scripthash"}, "value": 0.01001478, "n": 1}], "hex": "020000000001035692547f4df07906b84e5b825c2dcb591e521b78cbc67cc27bc0025f09f0485a2800000017160014c8025e8fe8fbf5f1cc016cf0957d371938529bb6feffffffba21c9a9697aed8d54dcf26d44c71d4d5fc6dba89531f6331214bec3190f3a9a01000000171600144f68d49ac22b1b4e4fb80438ce41a4d3dd9b33c9fefffffff35ac65cb1d9c44c28ce4def1379892c7f58f1e48ba2ca1382e7d73b36f0bb7f02000000171600148ae8f55cef37c3a9d8c897b176abedc6953dff2efeffffff020af4c2030000000017a914483db34754558ef69baa77775b1b7b219198458d8706480f000000000017a91469480d9f39bf15ee8d62826617bf927fbfc1cf7e8702483045022100831252604e0b10f75f15fd99c8f04554cb652f51e5c53166a48c38a1c8b3f0ab02205449c53f125de66d3d3245b64fabf3c7fa3d87db93a35c459ad14e409d0af112012102120e9ad6e1ff8989ee2faa479bddd58106d20b8ab4b0a40b11db45d6f633839702483045022100db41ecdc83ea16bea10e456b2bdaa7a7cac648dd114b79f4a7a1fb2cbca6c507022068d2d849b215dfc6d58d71565f29632387996ffb0daaafe4a75417abb58449ae0121034c78a9dd5370e19bdf0df6919f58717b0fd23fa7908c94dfefea8c25d7e232a702473044022010fcbe660b5d77c481ac5211078bc7156165c350ecd033a6a77c5700fa647b140220326dbafd09a45d5fe727da08816d9d8e600cb0b303968a35de153ae068b4f5bd0121021a83a2b2244f0fe01594185d5ac3ec63ae5c523885afb6402a3201575640af5615490800", "vin": [{"txinwitness": ["3045022100831252604e0b10f75f15fd99c8f04554cb652f51e5c53166a48c38a1c8b3f0ab02205449c53f125de66d3d3245b64fabf3c7fa3d87db93a35c459ad14e409d0af11201", "02120e9ad6e1ff8989ee2faa479bddd58106d20b8ab4b0a40b11db45d6f6338397"], "sequence": 4294967294, "scriptSig": {"hex": "160014c8025e8fe8fbf5f1cc016cf0957d371938529bb6", "asm": "0014c8025e8fe8fbf5f1cc016cf0957d371938529bb6"}, "vout": 40, "txid": "5a48f0095f02c07bc27cc6cb781b521e59cb2d5c825b4eb80679f04d7f549256"}, {"txinwitness": ["3045022100db41ecdc83ea16bea10e456b2bdaa7a7cac648dd114b79f4a7a1fb2cbca6c507022068d2d849b215dfc6d58d71565f29632387996ffb0daaafe4a75417abb58449ae01", "034c78a9dd5370e19bdf0df6919f58717b0fd23fa7908c94dfefea8c25d7e232a7"], "sequence": 4294967294, "scriptSig": {"hex": "1600144f68d49ac22b1b4e4fb80438ce41a4d3dd9b33c9", "asm": "00144f68d49ac22b1b4e4fb80438ce41a4d3dd9b33c9"}, "vout": 1, "txid": "9a3a0f19c3be141233f63195a8dbc65f4d1dc7446df2dc548ded7a69a9c921ba"}, {"txinwitness": ["3044022010fcbe660b5d77c481ac5211078bc7156165c350ecd033a6a77c5700fa647b140220326dbafd09a45d5fe727da08816d9d8e600cb0b303968a35de153ae068b4f5bd01", "021a83a2b2244f0fe01594185d5ac3ec63ae5c523885afb6402a3201575640af56"], "sequence": 4294967294, "scriptSig": {"hex": "1600148ae8f55cef37c3a9d8c897b176abedc6953dff2e", "asm": "00148ae8f55cef37c3a9d8c897b176abedc6953dff2e"}, "vout": 2, "txid": "7fbbf0363bd7e78213caa28be4f1587f2c897913ef4dce284cc4d9b15cc65af3"}], "txid": "c9b5f55e543c89f21fdf2cedfa9cce7d7604ce6c3425a984590615ee9cb682e7", "blocktime": 1537874412, "version": 2, "confirmations": 11468, "time": 1537874412, "locktime": 542997, "vsize": 348, "size": 591}