{"hash": "51892473eadaaeaaf06dd0a29f697b34824edf3156a03be1b9273e81689cedfe", "blockhash": "0000000000000000000dcc0f55137456b1a82d3642486a52398922ac4d620174", "vout": [{"scriptPubKey": {"reqSigs": 1, "hex": "76a9148291f3c723a34162b78dfabffe8c78cd79c42ed088ac", "addresses": ["1CuPgsxYQ6tqoio33oNPqmW49dtdDuTAcX"], "asm": "OP_DUP OP_HASH160 8291f3c723a34162b78dfabffe8c78cd79c42ed0 OP_EQUALVERIFY OP_CHECKSIG", "type": "pubkeyhash"}, "value": 0.1, "n": 0}, {"scriptPubKey": {"reqSigs": 1, "hex": "76a91471e89ee2449ce5afe7b00a7401a5c2fe8f13e15588ac", "addresses": ["1BPJ2SemfXJkibDfBvNfD3wPVKjqVC53rJ"], "asm": "OP_DUP OP_HASH160 71e89ee2449ce5afe7b00a7401a5c2fe8f13e155 OP_EQUALVERIFY OP_CHECKSIG", "type": "pubkeyhash"}, "value": 0.03123385, "n": 1}, {"scriptPubKey": {"reqSigs": 1, "hex": "a91457515b9da50f147aedf68262a4b86df4d241c79887", "addresses": ["39eiB5RxhM33mYoCKnBPSdHc5seBAbXgy9"], "asm": "OP_HASH160 57515b9da50f147aedf68262a4b86df4d241c798 OP_EQUAL", "type": "scripthash"}, "value": 0.00396036, "n": 2}, {"scriptPubKey": {"reqSigs": 1, "hex": "76a914bce8ad1de576049a6a038970b13f0f426734274388ac", "addresses": ["1JDrmhAd82Mjt6s1wiqSpYZTW4hMjEnbhT"], "asm": "OP_DUP OP_HASH160 bce8ad1de576049a6a038970b13f0f4267342743 OP_EQUALVERIFY OP_CHECKSIG", "type": "pubkeyhash"}, "value": 0.09489982, "n": 3}, {"scriptPubKey": {"reqSigs": 1, "hex": "a9147710b993911835c9c50dfe11fab36f5569af816887", "addresses": ["3CYaNSPXzcYQrYxm37XCa3seTJqDASJr56"], "asm": "OP_HASH160 7710b993911835c9c50dfe11fab36f5569af8168 OP_EQUAL", "type": "scripthash"}, "value": 2.53878663, "n": 4}, {"scriptPubKey": {"reqSigs": 1, "hex": "76a9145aeb34d37a589d81e6542d1232a066897a50332888ac", "addresses": ["19HjagwMAyXcjVzT6Ra7gc8bajkfoTbHwB"], "asm": "OP_DUP OP_HASH160 5aeb34d37a589d81e6542d1232a066897a503328 OP_EQUALVERIFY OP_CHECKSIG", "type": "pubkeyhash"}, "value": 0.00605586, "n": 5}, {"scriptPubKey": {"reqSigs": 1, "hex": "76a9148fc8bf3675cc23796620a46d2bc63d0f1cacee9a88ac", "addresses": ["1E7G7aDFpv5PWNJWCGmGdGoKayDW3y6akh"], "asm": "OP_DUP OP_HASH160 8fc8bf3675cc23796620a46d2bc63d0f1cacee9a OP_EQUALVERIFY OP_CHECKSIG", "type": "pubkeyhash"}, "value": 0.22686303, "n": 6}, {"scriptPubKey": {"reqSigs": 1, "hex": "76a914b41ab90bb6b774a9f2248697eebd716d233898e988ac", "addresses": ["1HRJeGM7sbJ9QvaRJeK45KvGhU8G4gHkoh"], "asm": "OP_DUP OP_HASH160 b41ab90bb6b774a9f2248697eebd716d233898e9 OP_EQUALVERIFY OP_CHECKSIG", "type": "pubkeyhash"}, "value": 0.00624817, "n": 7}, {"scriptPubKey": {"reqSigs": 1, "hex": "76a914972beb2a54e52e09c8aac850608fd684f32278cb88ac", "addresses": ["1EnKeV9Lku5fEF6QdQ5cHLPEy5P4YSqpaU"], "asm": "OP_DUP OP_HASH160 972beb2a54e52e09c8aac850608fd684f32278cb OP_EQUALVERIFY OP_CHECKSIG", "type": "pubkeyhash"}, "value": 0.0074, "n": 8}, {"scriptPubKey": {"reqSigs": 1, "hex": "a91452ab6623571129f90c8eeabc5d62e189b7911f4787", "addresses": ["39E8fHQ456A3s4kkoRsWM7aia31ELJNjWm"], "asm": "OP_HASH160 52ab6623571129f90c8eeabc5d62e189b7911f47 OP_EQUAL", "type": "scripthash"}, "value": 0.11973479, "n": 9}, {"scriptPubKey": {"reqSigs": 1, "hex": "a914d4fc89338f89a947c5d3c80431d4045f724f7d5b87", "addresses": ["3M7BhiXLyeguHCeWhifT9NYkhoz59qD3mG"], "asm": "OP_HASH160 d4fc89338f89a947c5d3c80431d4045f724f7d5b OP_EQUAL", "type": "scripthash"}, "value": 0.00781022, "n": 10}, {"scriptPubKey": {"reqSigs": 1, "hex": "76a914b0d8e07fa00ecafe33a2124c3130519dccccb66588ac", "addresses": ["1H85jdve5oZQqLMKa5EZ7CHL5Mn2PmLx8t"], "asm": "OP_DUP OP_HASH160 b0d8e07fa00ecafe33a2124c3130519dccccb665 OP_EQUALVERIFY OP_CHECKSIG", "type": "pubkeyhash"}, "value": 0.81477656, "n": 11}, {"scriptPubKey": {"reqSigs": 1, "hex": "a914b8e13874855c490d6de25a4f574d78e1b9d005ff87", "addresses": ["3JYa4SJuH2qyc9wvJgVHPkFJPYVG7Gqr2s"], "asm": "OP_HASH160 b8e13874855c490d6de25a4f574d78e1b9d005ff OP_EQUAL", "type": "scripthash"}, "value": 0.00502616, "n": 12}, {"scriptPubKey": {"reqSigs": 1, "hex": "76a914ad0e93254d4ed2e0465ac1ef41f172d28c77d8ae88ac", "addresses": ["1Gn3MrvLJQCtVkrpvR2VxrtHdGoMSF29GM"], "asm": "OP_DUP OP_HASH160 ad0e93254d4ed2e0465ac1ef41f172d28c77d8ae OP_EQUALVERIFY OP_CHECKSIG", "type": "pubkeyhash"}, "value": 0.0019, "n": 13}], "hex": "01000000000104554bd6d51993dfe7724ca6307df7b111825822950fc974ce0e0f1a778be06c0e00000000fdfd0000483045022100e6183c3b4084a7b3ca3f032e16f1ae89056df4e3a4740a4b53220d543771f9670220322d1e73f9e3d908268fc4ca729c8d102cdcbb603126949fad431ab66d40a9ed0147304402205acb9b22ec3a562904208e65d87c512dbdc80d4dd1de7e8b1b99759ac8e90f94022054fdf436fc0cc2ef942d79ed44b1fe1ac287a28e7d40c308843406bde3006393014c695221025bef1393f8e89bf75a2e9e5aee389c7cf4c6d4ff06619afcc88b0e6b266906ef210220c445033a774ea9becfcb806da0b2529bc96ce8134d9ff8a24d2fee8d7264e3210282c97ef82c61f2be4327645cfeca46d14c2d656e559484605f6688945bc3e86353aeffffffff6754562fbaeb66f14828326d5886e81fe503576b5620d3157489972bc7e38d5e0000000023220020ab12ea1c6156b12578ddc190d522c8b8d8f3baeb50db6ad6d7e1dda2d7231be2ffffffff2417c4b9543197e4591ba7d8b2721e32a2790d373a67569223decee2dd94431a0000000023220020ab12ea1c6156b12578ddc190d522c8b8d8f3baeb50db6ad6d7e1dda2d7231be2ffffffff33387ccacc49f4c6e347fecffa90d1d693d98c7dd789471714afc28d313b41b801000000fdfe00004830450221008f87450d7e3991259c6518fbd8d08695d1d837331cffac81be10d6049da331b10220023929ab277e223c4da0347fd831c7d9c0ee1993c176b5e28cb997353dc5745c01483045022100b6d336f6b1c4fe2718ae0c4c7d19cda60c8d6813247f4da804b5c644419a3d7502202f22b4185c96c8aeb8ad62190bed4d879864e8e6c99a851a96e9651ab3068d4b014c695221037e327f3ad1a03bdfedb65089895fe76a8876e3f68f1dcbdf430d310fd681fddb21032022f47e2eb7b7165d801b880cffc695f484ae688662b033dd347d5bff9ba47a21038c196742a2a65c53857e44b52c669f48eb0e468f34f5b7215803d7cfaa264e6753aeffffffff0e80969800000000001976a9148291f3c723a34162b78dfabffe8c78cd79c42ed088acb9a82f00000000001976a91471e89ee2449ce5afe7b00a7401a5c2fe8f13e15588ac040b06000000000017a91457515b9da50f147aedf68262a4b86df4d241c798873ece9000000000001976a914bce8ad1de576049a6a038970b13f0f426734274388ac87e1210f0000000017a9147710b993911835c9c50dfe11fab36f5569af816887923d0900000000001976a9145aeb34d37a589d81e6542d1232a066897a50332888ac5f2a5a01000000001976a9148fc8bf3675cc23796620a46d2bc63d0f1cacee9a88acb1880900000000001976a914b41ab90bb6b774a9f2248697eebd716d233898e988aca04a0b00000000001976a914972beb2a54e52e09c8aac850608fd684f32278cb88ac67b3b6000000000017a91452ab6623571129f90c8eeabc5d62e189b7911f4787deea0b000000000017a914d4fc89338f89a947c5d3c80431d4045f724f7d5b871840db04000000001976a914b0d8e07fa00ecafe33a2124c3130519dccccb66588ac58ab07000000000017a914b8e13874855c490d6de25a4f574d78e1b9d005ff8730e60200000000001976a914ad0e93254d4ed2e0465ac1ef41f172d28c77d8ae88ac000400473044022036c4ce40dbe05ec95694462b06ea6bce73374099bbaa66728596f9ff56c001a70220284b37797a4d47cc873bf591cf3a6f0c4ca08b136701c351a5519a3d9261bf9d01473044022064e2b0caa25e43bfe5f3012fda8297d42dc98121e5acd9de12f6fa5952793663022018e70c9864ddd29bef0af7ff7638fe9cc9b0af6eb883f68b1dc75ae5281e2ddb016952210245bf70354a084e5bc07245d12c48867d76bf11e0492fe123779b48c2f40521522102dbfa970aad099e63063b99abf89e9e9dd506ff65cf0bcccffe247bda3bf202b721030e08e11029c7134143859a8c826c1b57b90233ad28fa516ae6e2d080442bce9753ae04004730440220627d385958e5796bc4350193e567a37f6d0be0def000d1891da992a56818eff00220671f17b28864b145c564d99a50006239f982433a21a8f05a477e2aef78cb49a001483045022100ecd9cbf5fd4deed22d295b469961c0bbba5749bd534a043b0547e9f9d0c9cecd022034902ffa9e79783216c904742a4a54b81634a2b8ff375c0e934616c6c39e2845016952210245bf70354a084e5bc07245d12c48867d76bf11e0492fe123779b48c2f40521522102dbfa970aad099e63063b99abf89e9e9dd506ff65cf0bcccffe247bda3bf202b721030e08e11029c7134143859a8c826c1b57b90233ad28fa516ae6e2d080442bce9753ae0000000000", "vin": [{"sequence": 4294967295, "scriptSig": {"hex": "00483045022100e6183c3b4084a7b3ca3f032e16f1ae89056df4e3a4740a4b53220d543771f9670220322d1e73f9e3d908268fc4ca729c8d102cdcbb603126949fad431ab66d40a9ed0147304402205acb9b22ec3a562904208e65d87c512dbdc80d4dd1de7e8b1b99759ac8e90f94022054fdf436fc0cc2ef942d79ed44b1fe1ac287a28e7d40c308843406bde3006393014c695221025bef1393f8e89bf75a2e9e5aee389c7cf4c6d4ff06619afcc88b0e6b266906ef210220c445033a774ea9becfcb806da0b2529bc96ce8134d9ff8a24d2fee8d7264e3210282c97ef82c61f2be4327645cfeca46d14c2d656e559484605f6688945bc3e86353ae", "asm": "0 3045022100e6183c3b4084a7b3ca3f032e16f1ae89056df4e3a4740a4b53220d543771f9670220322d1e73f9e3d908268fc4ca729c8d102cdcbb603126949fad431ab66d40a9ed[ALL] 304402205acb9b22ec3a562904208e65d87c512dbdc80d4dd1de7e8b1b99759ac8e90f94022054fdf436fc0cc2ef942d79ed44b1fe1ac287a28e7d40c308843406bde3006393[ALL] 5221025bef1393f8e89bf75a2e9e5aee389c7cf4c6d4ff06619afcc88b0e6b266906ef210220c445033a774ea9becfcb806da0b2529bc96ce8134d9ff8a24d2fee8d7264e3210282c97ef82c61f2be4327645cfeca46d14c2d656e559484605f6688945bc3e86353ae"}, "vout": 0, "txid": "0e6ce08b771a0f0ece74c90f9522588211b1f77d30a64c72e7df9319d5d64b55"}, {"txinwitness": ["", "3044022036c4ce40dbe05ec95694462b06ea6bce73374099bbaa66728596f9ff56c001a70220284b37797a4d47cc873bf591cf3a6f0c4ca08b136701c351a5519a3d9261bf9d01", "3044022064e2b0caa25e43bfe5f3012fda8297d42dc98121e5acd9de12f6fa5952793663022018e70c9864ddd29bef0af7ff7638fe9cc9b0af6eb883f68b1dc75ae5281e2ddb01", "52210245bf70354a084e5bc07245d12c48867d76bf11e0492fe123779b48c2f40521522102dbfa970aad099e63063b99abf89e9e9dd506ff65cf0bcccffe247bda3bf202b721030e08e11029c7134143859a8c826c1b57b90233ad28fa516ae6e2d080442bce9753ae"], "sequence": 4294967295, "scriptSig": {"hex": "220020ab12ea1c6156b12578ddc190d522c8b8d8f3baeb50db6ad6d7e1dda2d7231be2", "asm": "0020ab12ea1c6156b12578ddc190d522c8b8d8f3baeb50db6ad6d7e1dda2d7231be2"}, "vout": 0, "txid": "5e8de3c72b97897415d320566b5703e51fe886586d322848f166ebba2f565467"}, {"txinwitness": ["", "30440220627d385958e5796bc4350193e567a37f6d0be0def000d1891da992a56818eff00220671f17b28864b145c564d99a50006239f982433a21a8f05a477e2aef78cb49a001", "3045022100ecd9cbf5fd4deed22d295b469961c0bbba5749bd534a043b0547e9f9d0c9cecd022034902ffa9e79783216c904742a4a54b81634a2b8ff375c0e934616c6c39e284501", "52210245bf70354a084e5bc07245d12c48867d76bf11e0492fe123779b48c2f40521522102dbfa970aad099e63063b99abf89e9e9dd506ff65cf0bcccffe247bda3bf202b721030e08e11029c7134143859a8c826c1b57b90233ad28fa516ae6e2d080442bce9753ae"], "sequence": 4294967295, "scriptSig": {"hex": "220020ab12ea1c6156b12578ddc190d522c8b8d8f3baeb50db6ad6d7e1dda2d7231be2", "asm": "0020ab12ea1c6156b12578ddc190d522c8b8d8f3baeb50db6ad6d7e1dda2d7231be2"}, "vout": 0, "txid": "1a4394dde2cede239256673a370d79a2321e72b2d8a71b59e4973154b9c41724"}, {"sequence": 4294967295, "scriptSig": {"hex": "004830450221008f87450d7e3991259c6518fbd8d08695d1d837331cffac81be10d6049da331b10220023929ab277e223c4da0347fd831c7d9c0ee1993c176b5e28cb997353dc5745c01483045022100b6d336f6b1c4fe2718ae0c4c7d19cda60c8d6813247f4da804b5c644419a3d7502202f22b4185c96c8aeb8ad62190bed4d879864e8e6c99a851a96e9651ab3068d4b014c695221037e327f3ad1a03bdfedb65089895fe76a8876e3f68f1dcbdf430d310fd681fddb21032022f47e2eb7b7165d801b880cffc695f484ae688662b033dd347d5bff9ba47a21038c196742a2a65c53857e44b52c669f48eb0e468f34f5b7215803d7cfaa264e6753ae", "asm": "0 30450221008f87450d7e3991259c6518fbd8d08695d1d837331cffac81be10d6049da331b10220023929ab277e223c4da0347fd831c7d9c0ee1993c176b5e28cb997353dc5745c[ALL] 3045022100b6d336f6b1c4fe2718ae0c4c7d19cda60c8d6813247f4da804b5c644419a3d7502202f22b4185c96c8aeb8ad62190bed4d879864e8e6c99a851a96e9651ab3068d4b[ALL] 5221037e327f3ad1a03bdfedb65089895fe76a8876e3f68f1dcbdf430d310fd681fddb21032022f47e2eb7b7165d801b880cffc695f484ae688662b033dd347d5bff9ba47a21038c196742a2a65c53857e44b52c669f48eb0e468f34f5b7215803d7cfaa264e6753ae"}, "vout": 1, "txid": "b8413b318dc2af14174789d77d8cd993d6d190facffe47e3c6f449ccca7c3833"}], "txid": "c9b6876c44fd91d96865db123d20331c7e9b9d571ca3380d8e7b431759398b7e", "blocktime": 1537870268, "version": 1, "confirmations": 11518, "time": 1537870268, "locktime": 0, "vsize": 1349, "size": 1730}