{"hash": "1549b0c5cb387e57b4804d056795a2d6e8e2a756a4a4a7a3ffeda71e97887ae7", "blockhash": "0000000000000000001cda96e906b7601b7a6fb1a3b62bca570a9e5d8f4b3de1", "vout": [{"scriptPubKey": {"reqSigs": 1, "hex": "a91473526abcaa73f1ff18ac04349af2d42865816ed987", "addresses": ["3CCnN2uhuRk8S65csPYtwAZf56F2Zzgkd4"], "asm": "OP_HASH160 73526abcaa73f1ff18ac04349af2d42865816ed9 OP_EQUAL", "type": "scripthash"}, "value": 0.0149, "n": 0}], "hex": "02000000000101fe959e81cbf2e7d4d9f781eb2a32f5191764c21f527e626607d1c90d158b83a20000000017160014f91509169a1124c8237b3dc74900323d2ce64990ffffffff0150bc16000000000017a91473526abcaa73f1ff18ac04349af2d42865816ed98702483045022100cc9ec109c676d8efc7062d1412f2bb8a7a7d6c3a11a0bedb369eadde4a604daf0220409dc4cd59c1c264db568cf64d8b45996569c2a8c05ac643fa2ea2ee886990c10121031d3c2670e4d2225889a94c9dca59b01a8afc1a6f2b77b5ee238423bb12eb9c8a00000000", "vin": [{"txinwitness": ["3045022100cc9ec109c676d8efc7062d1412f2bb8a7a7d6c3a11a0bedb369eadde4a604daf0220409dc4cd59c1c264db568cf64d8b45996569c2a8c05ac643fa2ea2ee886990c101", "031d3c2670e4d2225889a94c9dca59b01a8afc1a6f2b77b5ee238423bb12eb9c8a"], "sequence": 4294967295, "scriptSig": {"hex": "160014f91509169a1124c8237b3dc74900323d2ce64990", "asm": "0014f91509169a1124c8237b3dc74900323d2ce64990"}, "vout": 0, "txid": "a2838b150dc9d10766627e521fc2641719f5322aeb81f7d9d4e7f2cb819e95fe"}], "txid": "c9ba002288746e673cc1bb45c52beda9ecc81f025b6fa2f65886c4ef83c9a10f", "blocktime": 1537873282, "version": 2, "confirmations": 11480, "time": 1537873282, "locktime": 0, "vsize": 134, "size": 216}