{"hash": "c9bcc18b3edaed4a089c651ce1b796e2c2e9268dca3cd6fe1b39938f70ad52bf", "blockhash": "0000000000000000001cda96e906b7601b7a6fb1a3b62bca570a9e5d8f4b3de1", "vout": [{"scriptPubKey": {"reqSigs": 1, "hex": "a9147541cd6adbc96540e4fada8f6826773849ffc20787", "addresses": ["3CP1p26JznnvaPBWtxYCi71LcrnAwdZZD4"], "asm": "OP_HASH160 7541cd6adbc96540e4fada8f6826773849ffc207 OP_EQUAL", "type": "scripthash"}, "value": 0.00079786, "n": 0}, {"scriptPubKey": {"reqSigs": 1, "hex": "76a9149c0cce2be7404a0d8e9cb21c651845c0b0bc419688ac", "addresses": ["1FE7kf8R39XXYLpctjiEnDge8JNRsTiXwa"], "asm": "OP_DUP OP_HASH160 9c0cce2be7404a0d8e9cb21c651845c0b0bc4196 OP_EQUALVERIFY OP_CHECKSIG", "type": "pubkeyhash"}, "value": 8.673e-05, "n": 1}], "hex": "0100000002c50840df7ff0cc64f0605d6f095c1a5a15b44d078fbceba230559dd70083f5f001000000db00483045022100853abf33387a8b0f457c60a26baef36b0e239535e5479948e2997219290cf0fe02206d1c171cca450edb30917a7d91d043c0b62266b9a7b4564b920ec0628c87975a01483045022100e133af658241335eca42141de8276f15be921038340129a7ad17c934db05318d0220469e74a045a4ad87bde525fadaf98d8fe6ac2689549a3163a45c2fac9924ce890147522102907a54bed8ad74b3f35638c60114ca240a308cb986f3f2f306178869a8880b612102f6f606e53f9378ae9c10473ece00228a958cae5728116969327f5b6df219c2ce52aeffffffffa0c957be2f94e7dfbe33b1d47d40cb64f80abfa03f09828c914d8a777569c03e010000006b483045022100b7e05559f7e0d52566aa3ad0840b13d994fe23ae62150a35e53eaa83775bb8e302201496a3ef5914c2400542c90976d6a09e341ccba8ce153d468c70755b0e112652012103ad45099f51bf2c022db901d7395758ed19057a2a9b399f892e9e9a9507c1f51dffffffff02aa3701000000000017a9147541cd6adbc96540e4fada8f6826773849ffc20787e1210000000000001976a9149c0cce2be7404a0d8e9cb21c651845c0b0bc419688ac00000000", "vin": [{"sequence": 4294967295, "scriptSig": {"hex": "00483045022100853abf33387a8b0f457c60a26baef36b0e239535e5479948e2997219290cf0fe02206d1c171cca450edb30917a7d91d043c0b62266b9a7b4564b920ec0628c87975a01483045022100e133af658241335eca42141de8276f15be921038340129a7ad17c934db05318d0220469e74a045a4ad87bde525fadaf98d8fe6ac2689549a3163a45c2fac9924ce890147522102907a54bed8ad74b3f35638c60114ca240a308cb986f3f2f306178869a8880b612102f6f606e53f9378ae9c10473ece00228a958cae5728116969327f5b6df219c2ce52ae", "asm": "0 3045022100853abf33387a8b0f457c60a26baef36b0e239535e5479948e2997219290cf0fe02206d1c171cca450edb30917a7d91d043c0b62266b9a7b4564b920ec0628c87975a[ALL] 3045022100e133af658241335eca42141de8276f15be921038340129a7ad17c934db05318d0220469e74a045a4ad87bde525fadaf98d8fe6ac2689549a3163a45c2fac9924ce89[ALL] 522102907a54bed8ad74b3f35638c60114ca240a308cb986f3f2f306178869a8880b612102f6f606e53f9378ae9c10473ece00228a958cae5728116969327f5b6df219c2ce52ae"}, "vout": 1, "txid": "f0f58300d79d5530a2ebbc8f074db4155a1a5c096f5d60f064ccf07fdf4008c5"}, {"sequence": 4294967295, "scriptSig": {"hex": "483045022100b7e05559f7e0d52566aa3ad0840b13d994fe23ae62150a35e53eaa83775bb8e302201496a3ef5914c2400542c90976d6a09e341ccba8ce153d468c70755b0e112652012103ad45099f51bf2c022db901d7395758ed19057a2a9b399f892e9e9a9507c1f51d", "asm": "3045022100b7e05559f7e0d52566aa3ad0840b13d994fe23ae62150a35e53eaa83775bb8e302201496a3ef5914c2400542c90976d6a09e341ccba8ce153d468c70755b0e112652[ALL] 03ad45099f51bf2c022db901d7395758ed19057a2a9b399f892e9e9a9507c1f51d"}, "vout": 1, "txid": "3ec06975778a4d918c82093fa0bf0af864cb407dd4b133bedfe7942fbe57c9a0"}], "txid": "c9bcc18b3edaed4a089c651ce1b796e2c2e9268dca3cd6fe1b39938f70ad52bf", "blocktime": 1537873282, "version": 1, "confirmations": 11484, "time": 1537873282, "locktime": 0, "vsize": 484, "size": 484}