{"hash": "12046ec50aa76171672ca003a111ef9b6c5277c2d03029b168e12fdf7ec66957", "blockhash": "0000000000000000000e13cef7c366c0283d82e591d1acd082e914b08063cdf1", "vout": [{"scriptPubKey": {"reqSigs": 1, "hex": "a91491822e009e56a199b563ab9d8acabd0c3171fbd787", "addresses": ["3ExPrQLD3UeJY4gxtQx8G5mwCCsRkzA8a6"], "asm": "OP_HASH160 91822e009e56a199b563ab9d8acabd0c3171fbd7 OP_EQUAL", "type": "scripthash"}, "value": 0.016661, "n": 0}, {"scriptPubKey": {"reqSigs": 1, "hex": "a914295cad8e3fe8d9b03fc5caad3a83258a4f8a7faf87", "addresses": ["35TienXdF4PZDNoSxxjM7cGAhjBeweYtfb"], "asm": "OP_HASH160 295cad8e3fe8d9b03fc5caad3a83258a4f8a7faf OP_EQUAL", "type": "scripthash"}, "value": 0.01691272, "n": 1}], "hex": "02000000000101583e7e2dc603090d6a6d9dd62d1a5fd2487b06b9fbc32f31c6ef36bda364667d170000001716001422a7774aba7f7d6a24b7f8cc2e8b2cf01011f351ffffffff02346c19000000000017a91491822e009e56a199b563ab9d8acabd0c3171fbd78788ce19000000000017a914295cad8e3fe8d9b03fc5caad3a83258a4f8a7faf8702483045022100f4fa7186ef7f3dc44412fd4a2a506620981583ab5e4072b993c5ae685dfb7a630220379daab7ce83f9f2dc683946a56ce474ce2447ff40013d3d88cf9bc41099f6400121029d89d7465099b1d189aad0737c3d856db83fa8185a1bdb9a66d818fbc429c26800000000", "vin": [{"txinwitness": ["3045022100f4fa7186ef7f3dc44412fd4a2a506620981583ab5e4072b993c5ae685dfb7a630220379daab7ce83f9f2dc683946a56ce474ce2447ff40013d3d88cf9bc41099f64001", "029d89d7465099b1d189aad0737c3d856db83fa8185a1bdb9a66d818fbc429c268"], "sequence": 4294967295, "scriptSig": {"hex": "16001422a7774aba7f7d6a24b7f8cc2e8b2cf01011f351", "asm": "001422a7774aba7f7d6a24b7f8cc2e8b2cf01011f351"}, "vout": 23, "txid": "7d6664a3bd36efc6312fc3fbb9067b48d25f1a2dd69d6d6a0d0903c62d7e3e58"}], "txid": "c9c6c5aee6c863c586b5c83454940f277bb90a64fb76c0d7341601c5cd2f2ec9", "blocktime": 1537871767, "version": 2, "confirmations": 11490, "time": 1537871767, "locktime": 0, "vsize": 166, "size": 248}