{"hash": "eefe8f4f197a347b7f4ce5c6873dfc306db3c94de4fcb81eb3f23706950c4e88", "blockhash": "0000000000000000001f76057863aec43deb6fa401d9628bb513d65a8098bfab", "vout": [{"scriptPubKey": {"reqSigs": 1, "hex": "a914fbb48c581e4040fd1c873389e3c96ec6b388467587", "addresses": ["3QdupQMKZqHVidUvouNF2JarXwDR7Y1F5A"], "asm": "OP_HASH160 fbb48c581e4040fd1c873389e3c96ec6b3884675 OP_EQUAL", "type": "scripthash"}, "value": 0.01155, "n": 0}, {"scriptPubKey": {"reqSigs": 1, "hex": "a914332c3941af7cc7485b61eedd2c3f5ffea449933a87", "addresses": ["36MbN3KQ2mZnyxhY1VDB75VpvtZBFqA27H"], "asm": "OP_HASH160 332c3941af7cc7485b61eedd2c3f5ffea449933a OP_EQUAL", "type": "scripthash"}, "value": 0.02026182, "n": 1}], "hex": "02000000000101494c05337bf62ba1a928e2ded14e80594539ae36718d2bdb056dde2080dbc80c0500000017160014070b4434e191f1d14d05c17b704b4e5ff5a736bcfeffffff02b89f11000000000017a914fbb48c581e4040fd1c873389e3c96ec6b388467587c6ea1e000000000017a914332c3941af7cc7485b61eedd2c3f5ffea449933a870248304502210095f6aafb69d338331b9cfc6f87d63fbcbaff4da1c05f41ff41ab650d2ad39898022069629a77ff9953b41f7b206dabc1c46408cf3924384d75006f655da8d0e6bf3b012103069e593034b70c7e74a26236dcb27c1034382cc865fa45be0e94b6a128b3b33914490800", "vin": [{"txinwitness": ["304502210095f6aafb69d338331b9cfc6f87d63fbcbaff4da1c05f41ff41ab650d2ad39898022069629a77ff9953b41f7b206dabc1c46408cf3924384d75006f655da8d0e6bf3b01", "03069e593034b70c7e74a26236dcb27c1034382cc865fa45be0e94b6a128b3b339"], "sequence": 4294967294, "scriptSig": {"hex": "160014070b4434e191f1d14d05c17b704b4e5ff5a736bc", "asm": "0014070b4434e191f1d14d05c17b704b4e5ff5a736bc"}, "vout": 5, "txid": "0cc8db8020de6d05db2b8d7136ae394559804ed1dee228a9a12bf67b33054c49"}], "txid": "c9c6e32a8e26b7c4fd1cd5a1b7afb47f988349defa227b8a9f41401e80b1c905", "blocktime": 1537873891, "version": 2, "confirmations": 11474, "time": 1537873891, "locktime": 542996, "vsize": 166, "size": 248}