{"hash": "23bb16f4ee4b88746fd157eeef9f92976fab6f9861d1795d0936240878db7477", "blockhash": "0000000000000000001e0dab787dd257d1dbfcb92a98c2207d5e1078be1f4165", "vout": [{"scriptPubKey": {"reqSigs": 1, "hex": "0014f6e6fbc4f19e392c3820d419d5d99e5667817f61", "addresses": ["bc1q7mn0h383ncujcwpq6svatkv72enczlmpjc4a9s"], "asm": "0 f6e6fbc4f19e392c3820d419d5d99e5667817f61", "type": "witness_v0_keyhash"}, "value": 0.0003152, "n": 0}, {"scriptPubKey": {"reqSigs": 1, "hex": "76a9146360f4c154ffd7a2598ec03289d8188df43b0bc988ac", "addresses": ["1A4U3cox1a9MMfVr66UKGwrAhaSQ81RUXF"], "asm": "OP_DUP OP_HASH160 6360f4c154ffd7a2598ec03289d8188df43b0bc9 OP_EQUALVERIFY OP_CHECKSIG", "type": "pubkeyhash"}, "value": 0.00736917, "n": 1}], "hex": "010000000001013881d93dac83296cc6816307b91d2c1a6cf090c5cdd7dd74843aa285b70d8fd10000000017160014e2901734c8d4316f89f3bb270e629646115d5c9dffffffff02207b000000000000160014f6e6fbc4f19e392c3820d419d5d99e5667817f61953e0b00000000001976a9146360f4c154ffd7a2598ec03289d8188df43b0bc988ac02483045022100dabbe768ef599a450c4ff68c1487ab0e4aedde259de76816cbdcad38a66d843c022078ecebddb795ee1b1d907b8328499afaa16f0c5a611a350e217347af5ed44ae2012103c181ed28f6efbaeeab5dd405fc077f82c08877f02f45377be7911d31d18aa0a000000000", "vin": [{"txinwitness": ["3045022100dabbe768ef599a450c4ff68c1487ab0e4aedde259de76816cbdcad38a66d843c022078ecebddb795ee1b1d907b8328499afaa16f0c5a611a350e217347af5ed44ae201", "03c181ed28f6efbaeeab5dd405fc077f82c08877f02f45377be7911d31d18aa0a0"], "sequence": 4294967295, "scriptSig": {"hex": "160014e2901734c8d4316f89f3bb270e629646115d5c9d", "asm": "0014e2901734c8d4316f89f3bb270e629646115d5c9d"}, "vout": 0, "txid": "d18f0db785a23a8474ddd7cdc590f06c1a2c1db9076381c66c2983ac3dd98138"}], "txid": "c9c887e16fda710d52e3159d01e5e19bc48519e3c43f55f254771aa1b7c9cf70", "blocktime": 1537872475, "version": 1, "confirmations": 11487, "time": 1537872475, "locktime": 0, "vsize": 167, "size": 249}