{"hash": "c9d473354e05064540c9c1f1863bc5003e7a2959be648d7aafae05d3fa0b7856", "blockhash": "00000000000000000004ffacab907a6b429b9a5745fa0b75af4234bf69dd7176", "vout": [{"scriptPubKey": {"reqSigs": 1, "hex": "76a914a25dec4d0011064ef106a983c39c7a540699f22088ac", "addresses": ["1FoWyxwPXuj4C6abqwhjDWdz6D4PZgYRjA"], "asm": "OP_DUP OP_HASH160 a25dec4d0011064ef106a983c39c7a540699f220 OP_EQUALVERIFY OP_CHECKSIG", "type": "pubkeyhash"}, "value": 0.01985596, "n": 0}, {"scriptPubKey": {"type": "nulldata", "hex": "6a146f6d6e69000000000000001f0000063b11e17082", "asm": "OP_RETURN 6f6d6e69000000000000001f0000063b11e17082"}, "value": 0.0, "n": 1}, {"scriptPubKey": {"reqSigs": 1, "hex": "76a914c95ac5ceafadd01c238cfe045dd7e6ed138bffc088ac", "addresses": ["1KMfZZAooz3nAyfb347Pw6LMD85C9egEQM"], "asm": "OP_DUP OP_HASH160 c95ac5ceafadd01c238cfe045dd7e6ed138bffc0 OP_EQUALVERIFY OP_CHECKSIG", "type": "pubkeyhash"}, "value": 5.46e-06, "n": 2}], "hex": "010000000110dd802578a9b5117a89befdfd814585dfc547b2cd64064e04dcffc8a0766989010000006a4730440220386efbf1bdf437a4862840df5e1d72a6025336e18d9c08893807f7986214b81602203dabc3f138478fe4a37b8e10740a3fa9cd6700ca49fe2031cae730ac95ac52cf012103da5bac7b36d5aa38f531c6b9601e21bb598a4b6716ebed38b009a55dabde9440feffffff033c4c1e00000000001976a914a25dec4d0011064ef106a983c39c7a540699f22088ac0000000000000000166a146f6d6e69000000000000001f0000063b11e1708222020000000000001976a914c95ac5ceafadd01c238cfe045dd7e6ed138bffc088ac16490800", "vin": [{"sequence": 4294967294, "scriptSig": {"hex": "4730440220386efbf1bdf437a4862840df5e1d72a6025336e18d9c08893807f7986214b81602203dabc3f138478fe4a37b8e10740a3fa9cd6700ca49fe2031cae730ac95ac52cf012103da5bac7b36d5aa38f531c6b9601e21bb598a4b6716ebed38b009a55dabde9440", "asm": "30440220386efbf1bdf437a4862840df5e1d72a6025336e18d9c08893807f7986214b81602203dabc3f138478fe4a37b8e10740a3fa9cd6700ca49fe2031cae730ac95ac52cf[ALL] 03da5bac7b36d5aa38f531c6b9601e21bb598a4b6716ebed38b009a55dabde9440"}, "vout": 1, "txid": "896976a0c8ffdc044e0664cdb247c5df854581fdfdbe897a11b5a9782580dd10"}], "txid": "c9d473354e05064540c9c1f1863bc5003e7a2959be648d7aafae05d3fa0b7856", "blocktime": 1537875543, "version": 1, "confirmations": 11464, "time": 1537875543, "locktime": 542998, "vsize": 256, "size": 256}