{"hash": "c9dbf5ce1c257a3b8e22837619198a87ee87340545803fad3feb4e6cba60e110", "blockhash": "0000000000000000001cda96e906b7601b7a6fb1a3b62bca570a9e5d8f4b3de1", "vout": [{"scriptPubKey": {"reqSigs": 1, "hex": "76a91478d390dd35da903bb69c93ec1ab2d0777f39d11188ac", "addresses": ["1C1sXsiQrHsGaPJCQeAkupuH28MkMuVjPx"], "asm": "OP_DUP OP_HASH160 78d390dd35da903bb69c93ec1ab2d0777f39d111 OP_EQUALVERIFY OP_CHECKSIG", "type": "pubkeyhash"}, "value": 9.39577288, "n": 0}, {"scriptPubKey": {"reqSigs": 1, "hex": "76a914407f4756e455154efb6fcd468f9f2ffbd54dd2ac88ac", "addresses": ["16t2ikjxPLEgjHKVtmHmyrFmbSwtBLmqNB"], "asm": "OP_DUP OP_HASH160 407f4756e455154efb6fcd468f9f2ffbd54dd2ac OP_EQUALVERIFY OP_CHECKSIG", "type": "pubkeyhash"}, "value": 0.09625947, "n": 1}], "hex": "01000000014ecc8b77c58fc98051cb7bf754255cea19e2049e20a5b0f953a01bce4b25307b000000006a47304402203084d96a54a1a63afc9aadf4f8037ef8fa455793a2e753bfc61f13f81b2d44a50220570051e82aa8422d0b4239a997cb496b5b4d55cca1cd933ac5fec303fd0ec5cf012102683a840af6de3e79faa6d4d4c0b25c1baf96743df618c99fd3dcde44a601926affffffff02c8cf0038000000001976a91478d390dd35da903bb69c93ec1ab2d0777f39d11188ac5be19200000000001976a914407f4756e455154efb6fcd468f9f2ffbd54dd2ac88ac00000000", "vin": [{"sequence": 4294967295, "scriptSig": {"hex": "47304402203084d96a54a1a63afc9aadf4f8037ef8fa455793a2e753bfc61f13f81b2d44a50220570051e82aa8422d0b4239a997cb496b5b4d55cca1cd933ac5fec303fd0ec5cf012102683a840af6de3e79faa6d4d4c0b25c1baf96743df618c99fd3dcde44a601926a", "asm": "304402203084d96a54a1a63afc9aadf4f8037ef8fa455793a2e753bfc61f13f81b2d44a50220570051e82aa8422d0b4239a997cb496b5b4d55cca1cd933ac5fec303fd0ec5cf[ALL] 02683a840af6de3e79faa6d4d4c0b25c1baf96743df618c99fd3dcde44a601926a"}, "vout": 0, "txid": "7b30254bce1ba053f9b0a5209e04e219ea5c2554f77bcb5180c98fc5778bcc4e"}], "txid": "c9dbf5ce1c257a3b8e22837619198a87ee87340545803fad3feb4e6cba60e110", "blocktime": 1537873282, "version": 1, "confirmations": 11480, "time": 1537873282, "locktime": 0, "vsize": 225, "size": 225}