{"hash": "34d4d1ec1142d13f3d6667f808f79cbd899e541888afea4d494ec0308af281fb", "blockhash": "0000000000000000001e0dab787dd257d1dbfcb92a98c2207d5e1078be1f4165", "vout": [{"scriptPubKey": {"reqSigs": 1, "hex": "a9144fe75455f235e2bfbf153698e9b826dce6d83dc187", "addresses": ["38yWRkRAfmqC28rLnGa8geFTKpzYwU9CWt"], "asm": "OP_HASH160 4fe75455f235e2bfbf153698e9b826dce6d83dc1 OP_EQUAL", "type": "scripthash"}, "value": 0.01022369, "n": 0}, {"scriptPubKey": {"reqSigs": 1, "hex": "a914f7d5aceb5f9bb821a48c9ba4515e8c670b77b43d87", "addresses": ["3QHSoMh5BSi4AJfdCehms6pcSjbEmzB15E"], "asm": "OP_HASH160 f7d5aceb5f9bb821a48c9ba4515e8c670b77b43d OP_EQUAL", "type": "scripthash"}, "value": 0.0027406, "n": 1}], "hex": "02000000000102842bcf8c05c12729604f45415d8cb9657f142c684495fb987c309866e834c5160000000017160014ad9a21794bcd64a4c4b90afda9860f1ce7958d63feffffffbf34756785a2065b9e0699a6d8e5f414d86e0ca5aaa726de9ad19818c62581e805000000171600149459422bc593e1392bedd2de6be1eba9cf1d9825feffffff02a1990f000000000017a9144fe75455f235e2bfbf153698e9b826dce6d83dc1878c2e04000000000017a914f7d5aceb5f9bb821a48c9ba4515e8c670b77b43d8702483045022100f074607bb8c8abed26890b7e96299e1772225b2f6383789a4e9bf166074af8190220709d88f3275a1fb4f8c8ef60799131d35133e968af4fe9ec6fcf1a2176272b82012102b98220b65af944373e45fcddb02ee1a163687102174a523ae68b8620a1eae2a70248304502210086e9b4622a01adb631cde1189098f422852a31544805e039567298a9fe5a130302205aef6acecae7507034b0147deb8441d657b6a8f00dec831eee242f0dc96e94e60121037f13a38042022477a00c1515af6fa8ab281d50e18c05823aa582cb2b552cc37d12490800", "vin": [{"txinwitness": ["3045022100f074607bb8c8abed26890b7e96299e1772225b2f6383789a4e9bf166074af8190220709d88f3275a1fb4f8c8ef60799131d35133e968af4fe9ec6fcf1a2176272b8201", "02b98220b65af944373e45fcddb02ee1a163687102174a523ae68b8620a1eae2a7"], "sequence": 4294967294, "scriptSig": {"hex": "160014ad9a21794bcd64a4c4b90afda9860f1ce7958d63", "asm": "0014ad9a21794bcd64a4c4b90afda9860f1ce7958d63"}, "vout": 0, "txid": "16c534e86698307c98fb9544682c147f65b98c5d41454f602927c1058ccf2b84"}, {"txinwitness": ["304502210086e9b4622a01adb631cde1189098f422852a31544805e039567298a9fe5a130302205aef6acecae7507034b0147deb8441d657b6a8f00dec831eee242f0dc96e94e601", "037f13a38042022477a00c1515af6fa8ab281d50e18c05823aa582cb2b552cc37d"], "sequence": 4294967294, "scriptSig": {"hex": "1600149459422bc593e1392bedd2de6be1eba9cf1d9825", "asm": "00149459422bc593e1392bedd2de6be1eba9cf1d9825"}, "vout": 5, "txid": "e88125c61898d19ade26a7aaa50c6ed814f4e5d8a699069e5b06a285677534bf"}], "txid": "c9de689480a9073da1270d0c0263892fa842cdaf381b6cc45105572132b52ff7", "blocktime": 1537872475, "version": 2, "confirmations": 11487, "time": 1537872475, "locktime": 542994, "vsize": 257, "size": 420}