{"hash": "c9dec6fab08ac547bd9a29fc46342a9d66fa29e64aec82d635be634c4be73332", "blockhash": "0000000000000000000e13cef7c366c0283d82e591d1acd082e914b08063cdf1", "vout": [{"scriptPubKey": {"reqSigs": 1, "hex": "76a914c15ebce9098b539c02290e1cae8a8e120f2d95ee88ac", "addresses": ["1JdSuXkHBRrSCVzFiFZYzjR6RA9fJjyTvP"], "asm": "OP_DUP OP_HASH160 c15ebce9098b539c02290e1cae8a8e120f2d95ee OP_EQUALVERIFY OP_CHECKSIG", "type": "pubkeyhash"}, "value": 0.00359618, "n": 0}, {"scriptPubKey": {"reqSigs": 1, "hex": "76a914d7a9d2c4c336399e748d1df8eda20382adcb28af88ac", "addresses": ["1LfKimuoPcmoU3T7uQ9ZB9m6kWQYHdpgtv"], "asm": "OP_DUP OP_HASH160 d7a9d2c4c336399e748d1df8eda20382adcb28af OP_EQUALVERIFY OP_CHECKSIG", "type": "pubkeyhash"}, "value": 0.01110765, "n": 1}], "hex": "0100000001ef9b4ac102aa28ccd7dc0577c514b51e24bb2ae86e8edc9f2fa3d073da1c4a66040000006b483045022100f0895a9fbe212eabd3c6fd94b8bc4fc65cd259fcda28a29ad0481642da34a2cb02201bbb56f8a42b088161c3db719cc08304968456f2aad34bbd14763081cd809f4d0121029a826bc84ee1300abaa541a3a3f4a7ff652089f4f0b242893f88fa056a83ca71ffffffff02c27c0500000000001976a914c15ebce9098b539c02290e1cae8a8e120f2d95ee88acedf21000000000001976a914d7a9d2c4c336399e748d1df8eda20382adcb28af88ac00000000", "vin": [{"sequence": 4294967295, "scriptSig": {"hex": "483045022100f0895a9fbe212eabd3c6fd94b8bc4fc65cd259fcda28a29ad0481642da34a2cb02201bbb56f8a42b088161c3db719cc08304968456f2aad34bbd14763081cd809f4d0121029a826bc84ee1300abaa541a3a3f4a7ff652089f4f0b242893f88fa056a83ca71", "asm": "3045022100f0895a9fbe212eabd3c6fd94b8bc4fc65cd259fcda28a29ad0481642da34a2cb02201bbb56f8a42b088161c3db719cc08304968456f2aad34bbd14763081cd809f4d[ALL] 029a826bc84ee1300abaa541a3a3f4a7ff652089f4f0b242893f88fa056a83ca71"}, "vout": 4, "txid": "664a1cda73d0a32f9fdc8e6ee82abb241eb514c57705dcd7cc28aa02c14a9bef"}], "txid": "c9dec6fab08ac547bd9a29fc46342a9d66fa29e64aec82d635be634c4be73332", "blocktime": 1537871767, "version": 1, "confirmations": 11495, "time": 1537871767, "locktime": 0, "vsize": 226, "size": 226}