{"hash": "69ec9e8feae1c44673b8fb488c7b4b2e43cce4fac0128fdd534cbe5e5de36947", "blockhash": "000000000000000000205f8b0775d31398ef75b89a5e8ec8d2c57b4dc0ac4c20", "vout": [{"scriptPubKey": {"reqSigs": 1, "hex": "a914cfdaa6505095e6de0d424f63349672364987b83187", "addresses": ["3Le3jJDHHpmdzZZsh9Pwucy3HcrH5oo93c"], "asm": "OP_HASH160 cfdaa6505095e6de0d424f63349672364987b831 OP_EQUAL", "type": "scripthash"}, "value": 0.00434, "n": 0}, {"scriptPubKey": {"reqSigs": 1, "hex": "a9147f20e39bce674f28276ba3d517ced10d8776306987", "addresses": ["3DHD95dfNyoy3DVpy8kBSS6QUreTbA7jK4"], "asm": "OP_HASH160 7f20e39bce674f28276ba3d517ced10d87763069 OP_EQUAL", "type": "scripthash"}, "value": 0.027943, "n": 1}], "hex": "01000000000101397ff8e7fb6cec594aed58e39c7e6d7e0a110fa3bb1feae0ac6574b818c61a000000000023220020927f7df2a3b00a7029c5357ce3f20ffd223f9c946965efadea120ad56edd0cccffffffff02509f06000000000017a914cfdaa6505095e6de0d424f63349672364987b831873ca32a000000000017a9147f20e39bce674f28276ba3d517ced10d87763069870400483045022100ec0a322a59227186994b2d06bf896d5de67507c09b4c31019bce87a22417080802205faad6c0c96e51f77af7d6da10a7ab4ed45570974f13aea34064aa9ab71bd47501483045022100d5a518c3908a54bcd1144aaa3a008416763cfd43333938653ebab7b1387809e20220399c46532e37cf32a1b8e63e221b5b499b20654ecdb83a26af2372efa35854f40169522102daa7bf89c5f698f45ef76f6b44618853f1d70f775df1afff81e778bd27e010e621020306390acae5d7e520f67ea5ca1afa7b0f52f6ee57510a13c90b8848f1f1c26621020bb9763e8086c19acb25034fc3666c06573a496fa0dfe298c2e4752e4e35d10d53ae10490800", "vin": [{"txinwitness": ["", "3045022100ec0a322a59227186994b2d06bf896d5de67507c09b4c31019bce87a22417080802205faad6c0c96e51f77af7d6da10a7ab4ed45570974f13aea34064aa9ab71bd47501", "3045022100d5a518c3908a54bcd1144aaa3a008416763cfd43333938653ebab7b1387809e20220399c46532e37cf32a1b8e63e221b5b499b20654ecdb83a26af2372efa35854f401", "522102daa7bf89c5f698f45ef76f6b44618853f1d70f775df1afff81e778bd27e010e621020306390acae5d7e520f67ea5ca1afa7b0f52f6ee57510a13c90b8848f1f1c26621020bb9763e8086c19acb25034fc3666c06573a496fa0dfe298c2e4752e4e35d10d53ae"], "sequence": 4294967295, "scriptSig": {"hex": "220020927f7df2a3b00a7029c5357ce3f20ffd223f9c946965efadea120ad56edd0ccc", "asm": "0020927f7df2a3b00a7029c5357ce3f20ffd223f9c946965efadea120ad56edd0ccc"}, "vout": 0, "txid": "001ac618b87465ace0ea1fbba30f110a7e6d7e9ce358ed4a59ec6cfbe7f87f39"}], "txid": "c9df7a1cedef48fca9b310fb94e9a51fb0a9404b55d511869e469353fd34e311", "blocktime": 1537871175, "version": 1, "confirmations": 11511, "time": 1537871175, "locktime": 542992, "vsize": 214, "size": 406}