{"hash": "c9dfdd6db05e51c047d4bfd6398e2d51b8464bb8992908126d64f97c3cd6622f", "blockhash": "0000000000000000001f76057863aec43deb6fa401d9628bb513d65a8098bfab", "vout": [{"scriptPubKey": {"reqSigs": 1, "hex": "a914dd4fb69cf6ed6df17db01584f5488c2ec3e8ab4c87", "addresses": ["3MsCkWysZWovG3cHTFzXGmqGNBx7kWPmjg"], "asm": "OP_HASH160 dd4fb69cf6ed6df17db01584f5488c2ec3e8ab4c OP_EQUAL", "type": "scripthash"}, "value": 0.19998866, "n": 0}], "hex": "010000000126f5c325798286e90779737d6d28432e02552aba88e55df23bcd20ea2db88f51000000006b483045022100a432b050945c295b4dd3a95a9cff778a73393b22e212bdc70fe7277d18f43dd502203d27ec576ba9efc07f8ac2594a48da238f56452901e195fd558b51afa4ebaaee0121034af76a97f0ce21a46f8e7ad3c0ce11cab0fea30d20408da4eaf2572313423ae5ffffffff01922831010000000017a914dd4fb69cf6ed6df17db01584f5488c2ec3e8ab4c8700000000", "vin": [{"sequence": 4294967295, "scriptSig": {"hex": "483045022100a432b050945c295b4dd3a95a9cff778a73393b22e212bdc70fe7277d18f43dd502203d27ec576ba9efc07f8ac2594a48da238f56452901e195fd558b51afa4ebaaee0121034af76a97f0ce21a46f8e7ad3c0ce11cab0fea30d20408da4eaf2572313423ae5", "asm": "3045022100a432b050945c295b4dd3a95a9cff778a73393b22e212bdc70fe7277d18f43dd502203d27ec576ba9efc07f8ac2594a48da238f56452901e195fd558b51afa4ebaaee[ALL] 034af76a97f0ce21a46f8e7ad3c0ce11cab0fea30d20408da4eaf2572313423ae5"}, "vout": 0, "txid": "518fb82dea20cd3bf25de588ba2a55022e43286d7d737907e986827925c3f526"}], "txid": "c9dfdd6db05e51c047d4bfd6398e2d51b8464bb8992908126d64f97c3cd6622f", "blocktime": 1537873891, "version": 1, "confirmations": 11477, "time": 1537873891, "locktime": 0, "vsize": 190, "size": 190}