{"hash": "d1938dce7936f5b347065543b44f780292552fd19e4ff6ffff012713574adaaa", "blockhash": "0000000000000000001e0dab787dd257d1dbfcb92a98c2207d5e1078be1f4165", "vout": [{"scriptPubKey": {"reqSigs": 1, "hex": "76a91449e8df37274d6028e9f4705ee784ebb60faadc7588ac", "addresses": ["17joJEJX4Nob7t9e5wbWu2dEMaEuu3LxVn"], "asm": "OP_DUP OP_HASH160 49e8df37274d6028e9f4705ee784ebb60faadc75 OP_EQUALVERIFY OP_CHECKSIG", "type": "pubkeyhash"}, "value": 0.00507571, "n": 0}, {"scriptPubKey": {"reqSigs": 1, "hex": "76a914c3105e9158f655f3462c70d8a9807a633ba8f92188ac", "addresses": ["1JnQNmqtVR4dF5xwfGjxDDKfVhranQDV2E"], "asm": "OP_DUP OP_HASH160 c3105e9158f655f3462c70d8a9807a633ba8f921 OP_EQUALVERIFY OP_CHECKSIG", "type": "pubkeyhash"}, "value": 0.03576383, "n": 1}, {"scriptPubKey": {"reqSigs": 1, "hex": "a9141988a27e3c2df4ddee7fad5a2303d086179b2a3087", "addresses": ["3422VtS7UtCvXYxoXMVp6eZupR252z85oC"], "asm": "OP_HASH160 1988a27e3c2df4ddee7fad5a2303d086179b2a30 OP_EQUAL", "type": "scripthash"}, "value": 0.16487944, "n": 2}], "hex": "01000000000102140680587726c1e6e3c93e4dc072912ee79b680609f8feaf141f314e288cfb01020000002322002065d416c48a8072e0ac51c2d111eb194f009caef0332446c1bf2097316cf07fa9ffffffff3bdd07da26aaada6edb5decb2f298e2f0eba4dd63714f98f2d7fa8abf8bbe803020000002322002065d416c48a8072e0ac51c2d111eb194f009caef0332446c1bf2097316cf07fa9ffffffff03b3be0700000000001976a91449e8df37274d6028e9f4705ee784ebb60faadc7588ac3f923600000000001976a914c3105e9158f655f3462c70d8a9807a633ba8f92188ac0896fb000000000017a9141988a27e3c2df4ddee7fad5a2303d086179b2a3087040047304402207b9a1eed76cefea2cb287160da5a1745ea47b1909aee18cd147d0bd58c511a51022007ae2bc4eba697282eebdb51e421e465e60929fe8519702b80473fe9e424db1e0148304502210089fdf2d39f4607026a94f9a089fcc3a5e4fa05962a2547907af440d0d22107a60220520ad28a7c1215143e3b3002ae2bae66496a6d338494fdd7c165e7e40721f7660169522102f44abcf9e23c9a460da309ccca56c619c04eed3bde2c2cff5e7d78fbcd980b9c2103c9443cf3047bb6c2c82f1b0c44c36109cdc3d0d601d16d1189a1602bf8d1a0a02103bfe867059274412412e088af5572b92168c2ef495cfe6c9b7a753a009eb37c4853ae0400473044022020e85177c82c96f6a90a67deb31ee7695eb013dc71c537c38206ebe15a30ec7c022014ca06aba5a355a29891d21c521acfd6026de56ee72f4afc5b10e28444a4d7260147304402207e5eeaaad4e586b2abe4fe7e401687d413385cbe3b7b29476ec9fcd3c1cb1eba022037a7a4a2e0914f4493a8d697ae304e250e756baac48c7067c0599998943a54b20169522102f44abcf9e23c9a460da309ccca56c619c04eed3bde2c2cff5e7d78fbcd980b9c2103c9443cf3047bb6c2c82f1b0c44c36109cdc3d0d601d16d1189a1602bf8d1a0a02103bfe867059274412412e088af5572b92168c2ef495cfe6c9b7a753a009eb37c4853ae00000000", "vin": [{"txinwitness": ["", "304402207b9a1eed76cefea2cb287160da5a1745ea47b1909aee18cd147d0bd58c511a51022007ae2bc4eba697282eebdb51e421e465e60929fe8519702b80473fe9e424db1e01", "304502210089fdf2d39f4607026a94f9a089fcc3a5e4fa05962a2547907af440d0d22107a60220520ad28a7c1215143e3b3002ae2bae66496a6d338494fdd7c165e7e40721f76601", "522102f44abcf9e23c9a460da309ccca56c619c04eed3bde2c2cff5e7d78fbcd980b9c2103c9443cf3047bb6c2c82f1b0c44c36109cdc3d0d601d16d1189a1602bf8d1a0a02103bfe867059274412412e088af5572b92168c2ef495cfe6c9b7a753a009eb37c4853ae"], "sequence": 4294967295, "scriptSig": {"hex": "22002065d416c48a8072e0ac51c2d111eb194f009caef0332446c1bf2097316cf07fa9", "asm": "002065d416c48a8072e0ac51c2d111eb194f009caef0332446c1bf2097316cf07fa9"}, "vout": 2, "txid": "01fb8c284e311f14affef80906689be72e9172c04d3ec9e3e6c1267758800614"}, {"txinwitness": ["", "3044022020e85177c82c96f6a90a67deb31ee7695eb013dc71c537c38206ebe15a30ec7c022014ca06aba5a355a29891d21c521acfd6026de56ee72f4afc5b10e28444a4d72601", "304402207e5eeaaad4e586b2abe4fe7e401687d413385cbe3b7b29476ec9fcd3c1cb1eba022037a7a4a2e0914f4493a8d697ae304e250e756baac48c7067c0599998943a54b201", "522102f44abcf9e23c9a460da309ccca56c619c04eed3bde2c2cff5e7d78fbcd980b9c2103c9443cf3047bb6c2c82f1b0c44c36109cdc3d0d601d16d1189a1602bf8d1a0a02103bfe867059274412412e088af5572b92168c2ef495cfe6c9b7a753a009eb37c4853ae"], "sequence": 4294967295, "scriptSig": {"hex": "22002065d416c48a8072e0ac51c2d111eb194f009caef0332446c1bf2097316cf07fa9", "asm": "002065d416c48a8072e0ac51c2d111eb194f009caef0332446c1bf2097316cf07fa9"}, "vout": 2, "txid": "03e8bbf8aba87f2d8ff91437d64dba0e2f8e292fcbdeb5eda6adaa26da07dd3b"}], "txid": "c9e30025b2524992b67a66529dde2e544be56d5a6a3a53cbe42a2c05dad86816", "blocktime": 1537872475, "version": 1, "confirmations": 11486, "time": 1537872475, "locktime": 0, "vsize": 389, "size": 769}