{"hash": "c9e9845980860d0ab0e59ddfc9cfe17b3d8b7b956b3578a190ef94951fc37125", "blockhash": "0000000000000000001cda96e906b7601b7a6fb1a3b62bca570a9e5d8f4b3de1", "vout": [{"scriptPubKey": {"reqSigs": 1, "hex": "76a91487c96346fe3297c91b8b5bb44ef613f2cf7e218688ac", "addresses": ["1DNyUZt3kN4WXYRVS31STZ8sdjwRxXsqrA"], "asm": "OP_DUP OP_HASH160 87c96346fe3297c91b8b5bb44ef613f2cf7e2186 OP_EQUALVERIFY OP_CHECKSIG", "type": "pubkeyhash"}, "value": 0.0064281, "n": 0}, {"scriptPubKey": {"type": "nulldata", "hex": "6a4c50000077c4000198821ccaf0374b3a05f819d1e5bf9ae76da98a211aaf6c953dd567cf27e7178290483b5de464d458b0b2bf01bb335baa12f606131900bbc367911d100759d4ba30d2c37bb011d97e02cf", "asm": "OP_RETURN 000077c4000198821ccaf0374b3a05f819d1e5bf9ae76da98a211aaf6c953dd567cf27e7178290483b5de464d458b0b2bf01bb335baa12f606131900bbc367911d100759d4ba30d2c37bb011d97e02cf"}, "value": 0.0, "n": 1}], "hex": "01000000011f7d5aff138616b52bbd3b76d4ae6cd50ff08f78edc7064f2b6dbe90e70374cd010000006b483045022100e2a0c22c3d9307b6be1c13d8b8781faefc27e16446cf579191155a894355e6e902207ccb8d985777f2bcc3a478f012d897f99053b6b677b084c97212b651edf6595901210358b16e0c709965afcd184d696d18c82a3a8c8ec673da7c26a2abeb8481f6b95dffffffff02face0900000000001976a91487c96346fe3297c91b8b5bb44ef613f2cf7e218688ac0000000000000000536a4c50000077c4000198821ccaf0374b3a05f819d1e5bf9ae76da98a211aaf6c953dd567cf27e7178290483b5de464d458b0b2bf01bb335baa12f606131900bbc367911d100759d4ba30d2c37bb011d97e02cf00000000", "vin": [{"sequence": 4294967295, "scriptSig": {"hex": "483045022100e2a0c22c3d9307b6be1c13d8b8781faefc27e16446cf579191155a894355e6e902207ccb8d985777f2bcc3a478f012d897f99053b6b677b084c97212b651edf6595901210358b16e0c709965afcd184d696d18c82a3a8c8ec673da7c26a2abeb8481f6b95d", "asm": "3045022100e2a0c22c3d9307b6be1c13d8b8781faefc27e16446cf579191155a894355e6e902207ccb8d985777f2bcc3a478f012d897f99053b6b677b084c97212b651edf65959[ALL] 0358b16e0c709965afcd184d696d18c82a3a8c8ec673da7c26a2abeb8481f6b95d"}, "vout": 1, "txid": "cd7403e790be6d2b4f06c7ed788ff00fd56caed4763bbd2bb5168613ff5a7d1f"}], "txid": "c9e9845980860d0ab0e59ddfc9cfe17b3d8b7b956b3578a190ef94951fc37125", "blocktime": 1537873282, "version": 1, "confirmations": 11484, "time": 1537873282, "locktime": 0, "vsize": 284, "size": 284}