{"hash": "84e2691e4889176708cb562ce85c23a88abfae041cb3f27cfaa5f352569953a4", "blockhash": "000000000000000000205f8b0775d31398ef75b89a5e8ec8d2c57b4dc0ac4c20", "vout": [{"scriptPubKey": {"reqSigs": 1, "hex": "a91445da05d5667a42970d33a1787db0c20518b9ccda87", "addresses": ["384MjGYpqGi3GsV3zrx48hsy7rEfG8cjGK"], "asm": "OP_HASH160 45da05d5667a42970d33a1787db0c20518b9ccda OP_EQUAL", "type": "scripthash"}, "value": 0.00207665, "n": 0}, {"scriptPubKey": {"reqSigs": 1, "hex": "a914c3aac73b19a6df3a3a68ef69a8e9f79c8dff9a9c87", "addresses": ["3KXcGqASXznMituPhPnV7BkSc6CHZRLykC"], "asm": "OP_HASH160 c3aac73b19a6df3a3a68ef69a8e9f79c8dff9a9c OP_EQUAL", "type": "scripthash"}, "value": 0.02089595, "n": 1}], "hex": "010000000001013ddcc77d924df57ca4ebd9888ad084645b10e9774fdf9e354f6b45b8932a13cf01000000232200200b5c15b2a266c1fd9e615145cf3cd379109fe761c2844ebebbc12b381bddc9faffffffff02312b03000000000017a91445da05d5667a42970d33a1787db0c20518b9ccda877be21f000000000017a914c3aac73b19a6df3a3a68ef69a8e9f79c8dff9a9c8704004730440220173acdf73195117120d478dbac25f08ef947473480f57fd7b55aae5303b30bdf022039e9856de0b825570d7ea43da6731bd52d54d8d39515f3dcd2a237d535ccde1e01483045022100b646f939c0385724b9bf5a792ee04d086caa1b34592b2c41fb305d0c7416b5aa02203448b8e83dd01f6489712e9981cbe2884fd9718aa5b10525759f9315094d7a7f0147522102b590b6826675da568b914aa494372424b69f5fe06067fd7fa568cc41070c8e6b21024c55499905a522129124e75484b7ddea868aee9a7f01d75add901db6cf9b589f52ae00000000", "vin": [{"txinwitness": ["", "30440220173acdf73195117120d478dbac25f08ef947473480f57fd7b55aae5303b30bdf022039e9856de0b825570d7ea43da6731bd52d54d8d39515f3dcd2a237d535ccde1e01", "3045022100b646f939c0385724b9bf5a792ee04d086caa1b34592b2c41fb305d0c7416b5aa02203448b8e83dd01f6489712e9981cbe2884fd9718aa5b10525759f9315094d7a7f01", "522102b590b6826675da568b914aa494372424b69f5fe06067fd7fa568cc41070c8e6b21024c55499905a522129124e75484b7ddea868aee9a7f01d75add901db6cf9b589f52ae"], "sequence": 4294967295, "scriptSig": {"hex": "2200200b5c15b2a266c1fd9e615145cf3cd379109fe761c2844ebebbc12b381bddc9fa", "asm": "00200b5c15b2a266c1fd9e615145cf3cd379109fe761c2844ebebbc12b381bddc9fa"}, "vout": 1, "txid": "cf132a93b8456b4f359edf4f77e9105b6484d08a88d9eba47cf54d927dc7dc3d"}], "txid": "c9ea55a2e3190b034e8bbd9322a5c1af3d3bee28ab79ab163313db746d63b869", "blocktime": 1537871175, "version": 1, "confirmations": 11511, "time": 1537871175, "locktime": 0, "vsize": 206, "size": 371}