{"hash": "c9ebc22956eae96807fe9eae8bc2339f56b0ceacc81c06ac1172fabc517c8852", "blockhash": "00000000000000000024a2167bbff67b0be802c0b01cdd79e6331c2be6459f87", "vout": [{"scriptPubKey": {"type": "nulldata", "hex": "6a146f6d6e69000000000000001f000000155cb9e580", "asm": "OP_RETURN 6f6d6e69000000000000001f000000155cb9e580"}, "value": 0.0, "n": 0}, {"scriptPubKey": {"reqSigs": 1, "hex": "76a914b248ec01a77157e0d730fa21c3ed26e9de18814488ac", "addresses": ["1HFgdrCaNuZ8Bb32gvwHP9X6VzS7ocgcYM"], "asm": "OP_DUP OP_HASH160 b248ec01a77157e0d730fa21c3ed26e9de188144 OP_EQUALVERIFY OP_CHECKSIG", "type": "pubkeyhash"}, "value": 0.00024572, "n": 1}, {"scriptPubKey": {"reqSigs": 1, "hex": "76a9140ea2c16f9786cdfea33384770c72f226ae93ef3f88ac", "addresses": ["12LPS9L3BtpHJxCw7CBABQHFsKc7wFRjAR"], "asm": "OP_DUP OP_HASH160 0ea2c16f9786cdfea33384770c72f226ae93ef3f OP_EQUALVERIFY OP_CHECKSIG", "type": "pubkeyhash"}, "value": 5.46e-06, "n": 2}], "hex": "0100000002d991ad36afd8ac0397c5c080bfbc7cfc75d8ffaaff8a063f77ad725205bc9f43000000006a47304402205244985ee606531f6190be8e3ae74ebb3919ea6a00c16360fb1089089185703902206124e3060ce9f5e6b220a3c2885db2667b347a60314dbf6b39e4c292b4bf9dd801210253a7c24b0742e93bb643397e1a76f8ae7c792ec348d9b230223facebbe9a95bafeffffff74eaa6edda3c04b201457e76573221c501a89c979b9cebf038538f77e1b4ab7e010000006b483045022100eba0d7acf39f21290876a7d035b66a037a13aeb74ed2c70f17685831b0b9c8ad022077d8dda48b3fe67d2fe849b901f264d516e533df2b4ed2a2d62754b5ddf324a701210253a7c24b0742e93bb643397e1a76f8ae7c792ec348d9b230223facebbe9a95bafeffffff030000000000000000166a146f6d6e69000000000000001f000000155cb9e580fc5f0000000000001976a914b248ec01a77157e0d730fa21c3ed26e9de18814488ac22020000000000001976a9140ea2c16f9786cdfea33384770c72f226ae93ef3f88ac0d490800", "vin": [{"sequence": 4294967294, "scriptSig": {"hex": "47304402205244985ee606531f6190be8e3ae74ebb3919ea6a00c16360fb1089089185703902206124e3060ce9f5e6b220a3c2885db2667b347a60314dbf6b39e4c292b4bf9dd801210253a7c24b0742e93bb643397e1a76f8ae7c792ec348d9b230223facebbe9a95ba", "asm": "304402205244985ee606531f6190be8e3ae74ebb3919ea6a00c16360fb1089089185703902206124e3060ce9f5e6b220a3c2885db2667b347a60314dbf6b39e4c292b4bf9dd8[ALL] 0253a7c24b0742e93bb643397e1a76f8ae7c792ec348d9b230223facebbe9a95ba"}, "vout": 0, "txid": "439fbc055272ad773f068affaaffd875fc7cbcbf80c0c59703acd8af36ad91d9"}, {"sequence": 4294967294, "scriptSig": {"hex": "483045022100eba0d7acf39f21290876a7d035b66a037a13aeb74ed2c70f17685831b0b9c8ad022077d8dda48b3fe67d2fe849b901f264d516e533df2b4ed2a2d62754b5ddf324a701210253a7c24b0742e93bb643397e1a76f8ae7c792ec348d9b230223facebbe9a95ba", "asm": "3045022100eba0d7acf39f21290876a7d035b66a037a13aeb74ed2c70f17685831b0b9c8ad022077d8dda48b3fe67d2fe849b901f264d516e533df2b4ed2a2d62754b5ddf324a7[ALL] 0253a7c24b0742e93bb643397e1a76f8ae7c792ec348d9b230223facebbe9a95ba"}, "vout": 1, "txid": "7eabb4e1778f5338f0eb9c9b979ca801c5213257767e4501b2043cdaeda6ea74"}], "txid": "c9ebc22956eae96807fe9eae8bc2339f56b0ceacc81c06ac1172fabc517c8852", "blocktime": 1537870564, "version": 1, "confirmations": 11515, "time": 1537870564, "locktime": 542989, "vsize": 404, "size": 404}