{"hash": "c9efb9fb27b683a07bc0a6f6e45e78a69b59ef8ed6978cf4c52055d18f3f7a1e", "blockhash": "0000000000000000000e13cef7c366c0283d82e591d1acd082e914b08063cdf1", "vout": [{"scriptPubKey": {"reqSigs": 1, "hex": "a9145fe7d90427622ff31758b294d72e81df8658c1ee87", "addresses": ["3AS7rq55R7L4LUWyPwi2arxMDcxQfbHPwa"], "asm": "OP_HASH160 5fe7d90427622ff31758b294d72e81df8658c1ee OP_EQUAL", "type": "scripthash"}, "value": 0.02205977, "n": 0}, {"scriptPubKey": {"reqSigs": 1, "hex": "76a9149402ae450f849363aa069561a76ca192d32d270388ac", "addresses": ["1EVcDepa1wqm5KTE5kHvPBnet4H6Euhqie"], "asm": "OP_DUP OP_HASH160 9402ae450f849363aa069561a76ca192d32d2703 OP_EQUALVERIFY OP_CHECKSIG", "type": "pubkeyhash"}, "value": 0.21331891, "n": 1}], "hex": "01000000028902b7297b941550fa285434415fcbde2ae63455ead71616240902fe5db8ee7b010000006b4830450221008de8cf3691b253687a2b9a93a1ed9d27cc9a30e5ab277f23b924a719f454da2802202a49a145ac77e072cb10cba33ee6e420bebf1914b2e83c75de2ef866671a18b601210328639706546b8e95b1576b98e6eed1a5a420fd48f61e23f0c7b499bf7be4239effffffffb86a95b81d03c5336dd0d45edecf6957f99946e6e64a6541c7dff2efdb96fcdc010000006a4730440220311cd577c3d8874f9e24122393504f0b6f6c5d56e1a775013dd13f297e5baf0b02206562149da08c56d62383063e751df72d0eda7b99c1bb2544b62b03a1dd4c8d520121033fda06e84df67327c321552d5ebecfde34df03e0c218be68e15579738b351290ffffffff0219a921000000000017a9145fe7d90427622ff31758b294d72e81df8658c1ee87b37f4501000000001976a9149402ae450f849363aa069561a76ca192d32d270388ac00000000", "vin": [{"sequence": 4294967295, "scriptSig": {"hex": "4830450221008de8cf3691b253687a2b9a93a1ed9d27cc9a30e5ab277f23b924a719f454da2802202a49a145ac77e072cb10cba33ee6e420bebf1914b2e83c75de2ef866671a18b601210328639706546b8e95b1576b98e6eed1a5a420fd48f61e23f0c7b499bf7be4239e", "asm": "30450221008de8cf3691b253687a2b9a93a1ed9d27cc9a30e5ab277f23b924a719f454da2802202a49a145ac77e072cb10cba33ee6e420bebf1914b2e83c75de2ef866671a18b6[ALL] 0328639706546b8e95b1576b98e6eed1a5a420fd48f61e23f0c7b499bf7be4239e"}, "vout": 1, "txid": "7beeb85dfe0209241616d7ea5534e62adecb5f41345428fa5015947b29b70289"}, {"sequence": 4294967295, "scriptSig": {"hex": "4730440220311cd577c3d8874f9e24122393504f0b6f6c5d56e1a775013dd13f297e5baf0b02206562149da08c56d62383063e751df72d0eda7b99c1bb2544b62b03a1dd4c8d520121033fda06e84df67327c321552d5ebecfde34df03e0c218be68e15579738b351290", "asm": "30440220311cd577c3d8874f9e24122393504f0b6f6c5d56e1a775013dd13f297e5baf0b02206562149da08c56d62383063e751df72d0eda7b99c1bb2544b62b03a1dd4c8d52[ALL] 033fda06e84df67327c321552d5ebecfde34df03e0c218be68e15579738b351290"}, "vout": 1, "txid": "dcfc96dbeff2dfc741654ae6e64699f95769cfde5ed4d06d33c5031db8956ab8"}], "txid": "c9efb9fb27b683a07bc0a6f6e45e78a69b59ef8ed6978cf4c52055d18f3f7a1e", "blocktime": 1537871767, "version": 1, "confirmations": 11495, "time": 1537871767, "locktime": 0, "vsize": 371, "size": 371}