{"hash": "1d187bfd6e84d9fa3cdea0e899ab273814d51132745888fb0ce88f7747bfca65", "blockhash": "0000000000000000001cda96e906b7601b7a6fb1a3b62bca570a9e5d8f4b3de1", "vout": [{"scriptPubKey": {"reqSigs": 1, "hex": "76a9144aa24b884fe94113e548b6c32c00d05bb2eed5e188ac", "addresses": ["17odRet7WFpTWoUK49gvhXZJauraD1cQ7S"], "asm": "OP_DUP OP_HASH160 4aa24b884fe94113e548b6c32c00d05bb2eed5e1 OP_EQUALVERIFY OP_CHECKSIG", "type": "pubkeyhash"}, "value": 0.00031813, "n": 0}, {"scriptPubKey": {"reqSigs": 1, "hex": "a914c75b68f55d66ec954603c12b8bcbdb2dadf2a42f87", "addresses": ["3Ks7tzhuGH6ziqZPScDA7DFFnuG2TL27GL"], "asm": "OP_HASH160 c75b68f55d66ec954603c12b8bcbdb2dadf2a42f OP_EQUAL", "type": "scripthash"}, "value": 0.0078, "n": 1}, {"scriptPubKey": {"reqSigs": 1, "hex": "76a9147955c0143bf1bf73858906e727ff01a8fc4d486588ac", "addresses": ["1C4ZVFMCbKdNoao2swhdmV3EhMyLasfT3E"], "asm": "OP_DUP OP_HASH160 7955c0143bf1bf73858906e727ff01a8fc4d4865 OP_EQUALVERIFY OP_CHECKSIG", "type": "pubkeyhash"}, "value": 0.0025, "n": 2}, {"scriptPubKey": {"reqSigs": 1, "hex": "76a9147f89af46779965998c57b2ce72c94395ad66b3d888ac", "addresses": ["1CdMkrwKwVZepL6umGLzzhnMhJBq54PJ4j"], "asm": "OP_DUP OP_HASH160 7f89af46779965998c57b2ce72c94395ad66b3d8 OP_EQUALVERIFY OP_CHECKSIG", "type": "pubkeyhash"}, "value": 0.00377752, "n": 3}, {"scriptPubKey": {"reqSigs": 1, "hex": "76a9148c1108b7c3e1fad7f3ef349de6cb2f5fd16d3ee988ac", "addresses": ["1Dmc1QNy8ngMZvvJiKVz6kVHufW1qmE9J1"], "asm": "OP_DUP OP_HASH160 8c1108b7c3e1fad7f3ef349de6cb2f5fd16d3ee9 OP_EQUALVERIFY OP_CHECKSIG", "type": "pubkeyhash"}, "value": 0.01085, "n": 4}, {"scriptPubKey": {"reqSigs": 1, "hex": "76a914708cd74927501336c65d3298140067786fa4052b88ac", "addresses": ["1BG7QHcfSZmVLiw9DHmu5JyCApKCEnYmFF"], "asm": "OP_DUP OP_HASH160 708cd74927501336c65d3298140067786fa4052b OP_EQUALVERIFY OP_CHECKSIG", "type": "pubkeyhash"}, "value": 0.001, "n": 5}, {"scriptPubKey": {"reqSigs": 1, "hex": "a914ab83b99ffeb554ede311da177c0e5c015a90adcd87", "addresses": ["3HKuGmSQEd2dvMLHUdcZLH6Yb4o29KtZVp"], "asm": "OP_HASH160 ab83b99ffeb554ede311da177c0e5c015a90adcd OP_EQUAL", "type": "scripthash"}, "value": 0.001, "n": 6}, {"scriptPubKey": {"reqSigs": 1, "hex": "a914050e9b73041b548fc5c0102c08177fb3285ad59b87", "addresses": ["329koRvovTyNnd4ADrpR2uJHzXxfvKxta5"], "asm": "OP_HASH160 050e9b73041b548fc5c0102c08177fb3285ad59b OP_EQUAL", "type": "scripthash"}, "value": 48.18464675, "n": 7}], "hex": "02000000000101f40005d83a518c6ac092dee4cb18b057471e634e86700ff506cfe1d3531147140c0000001716001437de5da24ea7c8a3122ff93038f95492bd3834e5feffffff08457c0000000000001976a9144aa24b884fe94113e548b6c32c00d05bb2eed5e188ace0e60b000000000017a914c75b68f55d66ec954603c12b8bcbdb2dadf2a42f8790d00300000000001976a9147955c0143bf1bf73858906e727ff01a8fc4d486588ac98c30500000000001976a9147f89af46779965998c57b2ce72c94395ad66b3d888ac488e1000000000001976a9148c1108b7c3e1fad7f3ef349de6cb2f5fd16d3ee988aca0860100000000001976a914708cd74927501336c65d3298140067786fa4052b88aca08601000000000017a914ab83b99ffeb554ede311da177c0e5c015a90adcd87a3ef331f0100000017a914050e9b73041b548fc5c0102c08177fb3285ad59b87024830450221008c3852a4c5a33e690e80547485b799c8c4b7103bacdfaca2c572025c4b0eb4ff02207dc1c7818b6679b89c7f89bdb8111d4ef91d5da3a12f461ef044f7336223663c0121036f4dd476664e417eab722cf99a991c471d38a6a7562275be1bc2dc9a606b468d13490800", "vin": [{"txinwitness": ["30450221008c3852a4c5a33e690e80547485b799c8c4b7103bacdfaca2c572025c4b0eb4ff02207dc1c7818b6679b89c7f89bdb8111d4ef91d5da3a12f461ef044f7336223663c01", "036f4dd476664e417eab722cf99a991c471d38a6a7562275be1bc2dc9a606b468d"], "sequence": 4294967294, "scriptSig": {"hex": "16001437de5da24ea7c8a3122ff93038f95492bd3834e5", "asm": "001437de5da24ea7c8a3122ff93038f95492bd3834e5"}, "vout": 12, "txid": "14471153d3e1cf06f50f70864e631e4757b018cbe4de92c06a8c513ad80500f4"}], "txid": "c9f25f7d1d2ed4c2aa08d9d2471f1a5be0036ae3e746bb647a25c03180f25661", "blocktime": 1537873282, "version": 2, "confirmations": 11481, "time": 1537873282, "locktime": 542995, "vsize": 368, "size": 450}