{"hash": "ca0242b6fd15b4e8372f1484981d28c9ace02251e6f7c96d132fcaf004e7c2b7", "blockhash": "000000000000000000022b45ed06c6f4ccd3cf7fb5ba4856ebd2e58215665228", "vout": [{"scriptPubKey": {"reqSigs": 1, "hex": "76a9149667d06e47452064cd4df0ac65546903256bc53188ac", "addresses": ["1EiGiuohMS18NSd919uV1JAd638b9XoL8K"], "asm": "OP_DUP OP_HASH160 9667d06e47452064cd4df0ac65546903256bc531 OP_EQUALVERIFY OP_CHECKSIG", "type": "pubkeyhash"}, "value": 0.01423684, "n": 0}, {"scriptPubKey": {"type": "nulldata", "hex": "6a4c50000077670001670d60c16cedbe78618c959a86aeaeacb577c031fc3a016b46dc7dc7d09645cfc9aa416c3929337538c1649d678d5baa08210612ea0b974fd0b3bc9a9526289ac0f6612cd74e33776ee4", "asm": "OP_RETURN 000077670001670d60c16cedbe78618c959a86aeaeacb577c031fc3a016b46dc7dc7d09645cfc9aa416c3929337538c1649d678d5baa08210612ea0b974fd0b3bc9a9526289ac0f6612cd74e33776ee4"}, "value": 0.0, "n": 1}], "hex": "0100000001bb4bbe9df57896f84f6c9414ea28d42dcc876ef3ec0e5a3348731373368f475a000000006a473044022053bad3fe07b59774e4a4b4560776c98fc69022a607a30aa67cfab6c4196b20af022027412efa0b76058e862b3dad07275fbd847559010df3658039b6034a86bd7e2201210263468dcee8f5e05e261176606abb7e76ac202cf6e04f598e850927d086f5583cffffffff0244b91500000000001976a9149667d06e47452064cd4df0ac65546903256bc53188ac0000000000000000536a4c50000077670001670d60c16cedbe78618c959a86aeaeacb577c031fc3a016b46dc7dc7d09645cfc9aa416c3929337538c1649d678d5baa08210612ea0b974fd0b3bc9a9526289ac0f6612cd74e33776ee400000000", "vin": [{"sequence": 4294967295, "scriptSig": {"hex": "473044022053bad3fe07b59774e4a4b4560776c98fc69022a607a30aa67cfab6c4196b20af022027412efa0b76058e862b3dad07275fbd847559010df3658039b6034a86bd7e2201210263468dcee8f5e05e261176606abb7e76ac202cf6e04f598e850927d086f5583c", "asm": "3044022053bad3fe07b59774e4a4b4560776c98fc69022a607a30aa67cfab6c4196b20af022027412efa0b76058e862b3dad07275fbd847559010df3658039b6034a86bd7e22[ALL] 0263468dcee8f5e05e261176606abb7e76ac202cf6e04f598e850927d086f5583c"}, "vout": 0, "txid": "5a478f3673137348335a0eecf36e87cc2dd428ea14946c4ff89678f59dbe4bbb"}], "txid": "ca0242b6fd15b4e8372f1484981d28c9ace02251e6f7c96d132fcaf004e7c2b7", "blocktime": 1537869901, "version": 1, "confirmations": 11523, "time": 1537869901, "locktime": 0, "vsize": 283, "size": 283}