{"hash": "ca0c03ba12ca19cafc6f657ae0dbe148602019b021ccf6bcc80de26aab23292e", "blockhash": "0000000000000000001f76057863aec43deb6fa401d9628bb513d65a8098bfab", "vout": [{"scriptPubKey": {"reqSigs": 1, "hex": "a9143f538b29ffd80472c75c2c331270b730e3d7558d87", "addresses": ["37TraLioZJTuin8fJdnDYA26TF39rUUtH4"], "asm": "OP_HASH160 3f538b29ffd80472c75c2c331270b730e3d7558d OP_EQUAL", "type": "scripthash"}, "value": 3.334e-05, "n": 0}, {"scriptPubKey": {"reqSigs": 1, "hex": "76a91431a00897fc6e0effc1363dea8c0ff82dc00e9cd088ac", "addresses": ["15XPpjAf1iUJ6YTknxHZM1CUHFtXVEPrNd"], "asm": "OP_DUP OP_HASH160 31a00897fc6e0effc1363dea8c0ff82dc00e9cd0 OP_EQUALVERIFY OP_CHECKSIG", "type": "pubkeyhash"}, "value": 0.00651002, "n": 1}, {"scriptPubKey": {"reqSigs": 1, "hex": "76a914ed9e93a9f390a9e0482e7b0b014d7e1ca1bacc2d88ac", "addresses": ["1NfR7aHVWPZz2pwWSMehMaLrBcYYJg26Lw"], "asm": "OP_DUP OP_HASH160 ed9e93a9f390a9e0482e7b0b014d7e1ca1bacc2d OP_EQUALVERIFY OP_CHECKSIG", "type": "pubkeyhash"}, "value": 0.00012281, "n": 2}], "hex": "0100000001744442cae5c3602000ada6ff6e696d73c98927e84d58961a378a6b81c0b94c84020000006a47304402206b273778aa95c4bd125a9af02a0cbe6eaa034223f11fa44bbb5608b456c2349702204427ea8cd34b3e084017ed645e7caf23e40df3653973fa4284986637f66c3b4b01210357dbc59950e6083b73419ebc72ae01b449f2f1cee4b17286c5fb1c2ce03cadd1ffffffff03060d00000000000017a9143f538b29ffd80472c75c2c331270b730e3d7558d87faee0900000000001976a91431a00897fc6e0effc1363dea8c0ff82dc00e9cd088acf92f0000000000001976a914ed9e93a9f390a9e0482e7b0b014d7e1ca1bacc2d88ac00000000", "vin": [{"sequence": 4294967295, "scriptSig": {"hex": "47304402206b273778aa95c4bd125a9af02a0cbe6eaa034223f11fa44bbb5608b456c2349702204427ea8cd34b3e084017ed645e7caf23e40df3653973fa4284986637f66c3b4b01210357dbc59950e6083b73419ebc72ae01b449f2f1cee4b17286c5fb1c2ce03cadd1", "asm": "304402206b273778aa95c4bd125a9af02a0cbe6eaa034223f11fa44bbb5608b456c2349702204427ea8cd34b3e084017ed645e7caf23e40df3653973fa4284986637f66c3b4b[ALL] 0357dbc59950e6083b73419ebc72ae01b449f2f1cee4b17286c5fb1c2ce03cadd1"}, "vout": 2, "txid": "844cb9c0816b8a371a96584de82789c9736d696effa6ad002060c3e5ca424474"}], "txid": "ca0c03ba12ca19cafc6f657ae0dbe148602019b021ccf6bcc80de26aab23292e", "blocktime": 1537873891, "version": 1, "confirmations": 11478, "time": 1537873891, "locktime": 0, "vsize": 257, "size": 257}