{"hash": "ca127265b819833bbb953a84a688c84528b4202142809d962ab05769d1b3fd50", "blockhash": "0000000000000000000baef3f32e3676a92c3b2e5da21b426e4f302fc371ce76", "vout": [{"scriptPubKey": {"reqSigs": 1, "hex": "76a914d243e6abb9a60fbff430b421d2df4b7d59ec186088ac", "addresses": ["1LAnF8h3qMGx3TSwNUHVneBZUEpwE4gu3D"], "asm": "OP_DUP OP_HASH160 d243e6abb9a60fbff430b421d2df4b7d59ec1860 OP_EQUALVERIFY OP_CHECKSIG", "type": "pubkeyhash"}, "value": 0.00077314, "n": 0}, {"scriptPubKey": {"reqSigs": 1, "hex": "76a9144cb113476d957ff1498e946e45290b6072bfbc6988ac", "addresses": ["17zWUzG7RdqqCyRJxaQH4jW28JBXbceZ78"], "asm": "OP_DUP OP_HASH160 4cb113476d957ff1498e946e45290b6072bfbc69 OP_EQUALVERIFY OP_CHECKSIG", "type": "pubkeyhash"}, "value": 5.46e-06, "n": 1}, {"scriptPubKey": {"type": "nulldata", "hex": "6a146f6d6e69000000000000001f00000006a969b180", "asm": "OP_RETURN 6f6d6e69000000000000001f00000006a969b180"}, "value": 0.0, "n": 2}], "hex": "010000000177559f5f3105ce33e031a19b19a1002ec222c5e4adf283b903a9e51522583860000000006a47304402203a1b31c8e0f3e4dcaafbb5beeb7ba918d3078d640519f114f72e8d4f3a942b6d0220518ed9fa2e27951dcd4c59420aade84e9e446b7728a0ba263696f54877104e3b01210271977291b74f1f5f5c42157e8aae804664eaaeccfd097918450d37f28fb94d77ffffffff03022e0100000000001976a914d243e6abb9a60fbff430b421d2df4b7d59ec186088ac22020000000000001976a9144cb113476d957ff1498e946e45290b6072bfbc6988ac0000000000000000166a146f6d6e69000000000000001f00000006a969b18000000000", "vin": [{"sequence": 4294967295, "scriptSig": {"hex": "47304402203a1b31c8e0f3e4dcaafbb5beeb7ba918d3078d640519f114f72e8d4f3a942b6d0220518ed9fa2e27951dcd4c59420aade84e9e446b7728a0ba263696f54877104e3b01210271977291b74f1f5f5c42157e8aae804664eaaeccfd097918450d37f28fb94d77", "asm": "304402203a1b31c8e0f3e4dcaafbb5beeb7ba918d3078d640519f114f72e8d4f3a942b6d0220518ed9fa2e27951dcd4c59420aade84e9e446b7728a0ba263696f54877104e3b[ALL] 0271977291b74f1f5f5c42157e8aae804664eaaeccfd097918450d37f28fb94d77"}, "vout": 0, "txid": "6038582215e5a903b983f2ade4c522c22e00a1199ba131e033ce05315f9f5577"}], "txid": "ca127265b819833bbb953a84a688c84528b4202142809d962ab05769d1b3fd50", "blocktime": 1537876114, "version": 1, "confirmations": 11460, "time": 1537876114, "locktime": 0, "vsize": 256, "size": 256}