{"hash": "ca1568176f9bacd3ff18d2d724d59c25138df185be2a1b00d25c524bf90b7b47", "blockhash": "0000000000000000001f0ddff1eddb255c1121bcd4da4f1bc9a0da00cae72433", "vout": [{"scriptPubKey": {"type": "nulldata", "hex": "6a146f6d6e69000000000000001f00000004e363d5c0", "asm": "OP_RETURN 6f6d6e69000000000000001f00000004e363d5c0"}, "value": 0.0, "n": 0}, {"scriptPubKey": {"reqSigs": 1, "hex": "76a914ac2bacd9ba8737e1d749906be8a1bf88a942d20188ac", "addresses": ["1GhMYbqtQJT9U5rjYFgii1hE55zGqKbYdv"], "asm": "OP_DUP OP_HASH160 ac2bacd9ba8737e1d749906be8a1bf88a942d201 OP_EQUALVERIFY OP_CHECKSIG", "type": "pubkeyhash"}, "value": 5.46e-06, "n": 1}, {"scriptPubKey": {"reqSigs": 1, "hex": "76a9148ca97f7fee2cdb63117f997efad074eef25e62d388ac", "addresses": ["1DpkeneHTzjgDQ3oCMUMTBAXBMGDN7yaby"], "asm": "OP_DUP OP_HASH160 8ca97f7fee2cdb63117f997efad074eef25e62d3 OP_EQUALVERIFY OP_CHECKSIG", "type": "pubkeyhash"}, "value": 0.00767582, "n": 2}], "hex": "0100000001a2e177339009cafa1e41fd0cc7e7781de5cf0f2df1ad60cb3cc1e95443edf595000000006a4730440220700c03a5dcd8fc919a8c0a418383e9e0d7349b439b568c4214d6a043348d4420022019234a651f11680069a1b0bfbbc983dcf12f855394441cf1211334db4bdf2adc012102075f126abc08779f20ec9155d351eea72c70b869489a0b1db08c34e51595ea92feffffff030000000000000000166a146f6d6e69000000000000001f00000004e363d5c022020000000000001976a914ac2bacd9ba8737e1d749906be8a1bf88a942d20188ac5eb60b00000000001976a9148ca97f7fee2cdb63117f997efad074eef25e62d388ac10490800", "vin": [{"sequence": 4294967294, "scriptSig": {"hex": "4730440220700c03a5dcd8fc919a8c0a418383e9e0d7349b439b568c4214d6a043348d4420022019234a651f11680069a1b0bfbbc983dcf12f855394441cf1211334db4bdf2adc012102075f126abc08779f20ec9155d351eea72c70b869489a0b1db08c34e51595ea92", "asm": "30440220700c03a5dcd8fc919a8c0a418383e9e0d7349b439b568c4214d6a043348d4420022019234a651f11680069a1b0bfbbc983dcf12f855394441cf1211334db4bdf2adc[ALL] 02075f126abc08779f20ec9155d351eea72c70b869489a0b1db08c34e51595ea92"}, "vout": 0, "txid": "95f5ed4354e9c13ccb60adf12d0fcfe51d78e7c70cfd411efaca09903377e1a2"}], "txid": "ca1568176f9bacd3ff18d2d724d59c25138df185be2a1b00d25c524bf90b7b47", "blocktime": 1537872018, "version": 1, "confirmations": 11489, "time": 1537872018, "locktime": 542992, "vsize": 256, "size": 256}