{"hash": "78e41a3272a426b7b49f3cd956234f8af94b5ca34affcf543a65c61ef2dad177", "blockhash": "000000000000000000022b45ed06c6f4ccd3cf7fb5ba4856ebd2e58215665228", "vout": [{"scriptPubKey": {"reqSigs": 1, "hex": "76a9149bda33a259c78794923b233509a4b540b1be81bd88ac", "addresses": ["1FD58etrBiaotcR4yhhnj44EJvj6FBf2HL"], "asm": "OP_DUP OP_HASH160 9bda33a259c78794923b233509a4b540b1be81bd OP_EQUALVERIFY OP_CHECKSIG", "type": "pubkeyhash"}, "value": 0.0293662, "n": 0}, {"scriptPubKey": {"reqSigs": 1, "hex": "76a914a17661efe6b32598ee98efc0d5a7408fe5406f9788ac", "addresses": ["1FijcFUoHwDtbgtR36yt13bGp4NL435Qkq"], "asm": "OP_DUP OP_HASH160 a17661efe6b32598ee98efc0d5a7408fe5406f97 OP_EQUALVERIFY OP_CHECKSIG", "type": "pubkeyhash"}, "value": 0.00614697, "n": 1}, {"scriptPubKey": {"reqSigs": 1, "hex": "a9147ab36b3e4f0141d50beee302f10c483b0ec91da287", "addresses": ["3CsoJC6cVkRcKDbYGfwxnBhguxMwS4sPX6"], "asm": "OP_HASH160 7ab36b3e4f0141d50beee302f10c483b0ec91da2 OP_EQUAL", "type": "scripthash"}, "value": 0.19810629, "n": 2}, {"scriptPubKey": {"reqSigs": 1, "hex": "a9148681e8eaf9863b744712935489f9864d77f5276487", "addresses": ["3DxE6YRghCSZJGak4KmwEgMfPQzabWig8V"], "asm": "OP_HASH160 8681e8eaf9863b744712935489f9864d77f52764 OP_EQUAL", "type": "scripthash"}, "value": 0.01573032, "n": 3}], "hex": "020000000001015fc36f292a054395dd38dcf9a745d2b7bb7f857524c40c5ae3649ec18b619a2e0000000017160014772890be0ae4b5c328ca558df752b148c7482f5dfdffffff042ccf2c00000000001976a9149bda33a259c78794923b233509a4b540b1be81bd88ac29610900000000001976a914a17661efe6b32598ee98efc0d5a7408fe5406f9788ac45492e010000000017a9147ab36b3e4f0141d50beee302f10c483b0ec91da287a80018000000000017a9148681e8eaf9863b744712935489f9864d77f52764870247304402206d25e76067cb6aaa1318e74056bd08955ed74627eec1e575ead5c9d675637611022031f6357e4209f319cf9ec60a895f86057bcf20fc6b1858f490579a0ca3eecad8012102f0551a5bc3bac6202f33fadbba1d2b0a292ec73d90b283bb026f311c453754170b490800", "vin": [{"txinwitness": ["304402206d25e76067cb6aaa1318e74056bd08955ed74627eec1e575ead5c9d675637611022031f6357e4209f319cf9ec60a895f86057bcf20fc6b1858f490579a0ca3eecad801", "02f0551a5bc3bac6202f33fadbba1d2b0a292ec73d90b283bb026f311c45375417"], "sequence": 4294967293, "scriptSig": {"hex": "160014772890be0ae4b5c328ca558df752b148c7482f5d", "asm": "0014772890be0ae4b5c328ca558df752b148c7482f5d"}, "vout": 0, "txid": "2e9a618bc19e64e35a0cc42475857fbbb7d245a7f9dc38dd9543052a296fc35f"}], "txid": "ca15aad1b6f18f4f2673a85520824527aa7fe2bd6a1256572e8e7fc9f756f961", "blocktime": 1537869901, "version": 2, "confirmations": 11523, "time": 1537869901, "locktime": 542987, "vsize": 234, "size": 315}