{"hash": "ca187e4ad5f2c3f7590db68cbbea7efb47563a5bb6fca7ffffc444df88305b10", "blockhash": "000000000000000000022b45ed06c6f4ccd3cf7fb5ba4856ebd2e58215665228", "vout": [{"scriptPubKey": {"reqSigs": 1, "hex": "76a914d7f6a29f2b28d15a12db68e5f2a321485dfb6bbc88ac", "addresses": ["1Lgujm7QGEmZtWaxFZuUF1hd142Fzxmyuv"], "asm": "OP_DUP OP_HASH160 d7f6a29f2b28d15a12db68e5f2a321485dfb6bbc OP_EQUALVERIFY OP_CHECKSIG", "type": "pubkeyhash"}, "value": 0.00497219, "n": 0}, {"scriptPubKey": {"type": "nulldata", "hex": "6a146f6d6e69000000000000001f000000ba2edaac80", "asm": "OP_RETURN 6f6d6e69000000000000001f000000ba2edaac80"}, "value": 0.0, "n": 1}, {"scriptPubKey": {"reqSigs": 1, "hex": "76a914a25dec4d0011064ef106a983c39c7a540699f22088ac", "addresses": ["1FoWyxwPXuj4C6abqwhjDWdz6D4PZgYRjA"], "asm": "OP_DUP OP_HASH160 a25dec4d0011064ef106a983c39c7a540699f220 OP_EQUALVERIFY OP_CHECKSIG", "type": "pubkeyhash"}, "value": 5.46e-06, "n": 2}], "hex": "010000000185756400ddc343319916e5a202b0e03e04f15315162a04e2e746b0b0bf77c808020000006b483045022100f29dd75f0995c72c8c556508200b2d76d37fa57b50ba02a5a4989600c0d6f34702207650aaa620997f484109545398204f30c7be0a5b5d66bafc9dfef257ebf2abee0121033b147a2d822a445b21838aa270004b1cef471827d16355f69d413c2bbf595ba3feffffff0343960700000000001976a914d7f6a29f2b28d15a12db68e5f2a321485dfb6bbc88ac0000000000000000166a146f6d6e69000000000000001f000000ba2edaac8022020000000000001976a914a25dec4d0011064ef106a983c39c7a540699f22088ac0b490800", "vin": [{"sequence": 4294967294, "scriptSig": {"hex": "483045022100f29dd75f0995c72c8c556508200b2d76d37fa57b50ba02a5a4989600c0d6f34702207650aaa620997f484109545398204f30c7be0a5b5d66bafc9dfef257ebf2abee0121033b147a2d822a445b21838aa270004b1cef471827d16355f69d413c2bbf595ba3", "asm": "3045022100f29dd75f0995c72c8c556508200b2d76d37fa57b50ba02a5a4989600c0d6f34702207650aaa620997f484109545398204f30c7be0a5b5d66bafc9dfef257ebf2abee[ALL] 033b147a2d822a445b21838aa270004b1cef471827d16355f69d413c2bbf595ba3"}, "vout": 2, "txid": "08c877bfb0b046e7e2042a161553f1043ee0b002a2e516993143c3dd00647585"}], "txid": "ca187e4ad5f2c3f7590db68cbbea7efb47563a5bb6fca7ffffc444df88305b10", "blocktime": 1537869901, "version": 1, "confirmations": 11524, "time": 1537869901, "locktime": 542987, "vsize": 257, "size": 257}