{"hash": "ca21879084ab65fd033d91b2f3d79a0dfbaf3a5da9aa5a19d8a320f5e31be114", "blockhash": "0000000000000000001cda96e906b7601b7a6fb1a3b62bca570a9e5d8f4b3de1", "vout": [{"scriptPubKey": {"type": "nulldata", "hex": "6a4c50000077bd0001e114dccca371221793029e86e5bf9ae76da98a211aaf6c953dd567cf27e7aabbd76bd997c85d7b94def4bd7c07605baa1258061338e3eb59029dbc9a9526289ac0f6612cd74e33776ee4", "asm": "OP_RETURN 000077bd0001e114dccca371221793029e86e5bf9ae76da98a211aaf6c953dd567cf27e7aabbd76bd997c85d7b94def4bd7c07605baa1258061338e3eb59029dbc9a9526289ac0f6612cd74e33776ee4"}, "value": 0.0, "n": 0}, {"scriptPubKey": {"reqSigs": 1, "hex": "76a914900346fa552a592a0cca8ecba3b6a70f748286d788ac", "addresses": ["1E8UELDrdo8ezBTBKeyTbSRan5pp6Dxn9t"], "asm": "OP_DUP OP_HASH160 900346fa552a592a0cca8ecba3b6a70f748286d7 OP_EQUALVERIFY OP_CHECKSIG", "type": "pubkeyhash"}, "value": 0.0013324, "n": 1}], "hex": "010000000124552c3731e73a8ee7fefe2e4e2eb08d4b0465bf8c8b76123016ad8590693c6f000000006b48304502210086db8866e1089c70c87fe4261e520f98ccf199d1e0cc55365bd12452f69a70d702207f4028dfedba00446161f1c970915f06579313de360491b2dcca4d1f76e61653012102cd99f83bcc04ba8de2d327a71c1f1caae303033dddf5c07d49fe3a44a3e28345ffffffff020000000000000000536a4c50000077bd0001e114dccca371221793029e86e5bf9ae76da98a211aaf6c953dd567cf27e7aabbd76bd997c85d7b94def4bd7c07605baa1258061338e3eb59029dbc9a9526289ac0f6612cd74e33776ee478080200000000001976a914900346fa552a592a0cca8ecba3b6a70f748286d788ac00000000", "vin": [{"sequence": 4294967295, "scriptSig": {"hex": "48304502210086db8866e1089c70c87fe4261e520f98ccf199d1e0cc55365bd12452f69a70d702207f4028dfedba00446161f1c970915f06579313de360491b2dcca4d1f76e61653012102cd99f83bcc04ba8de2d327a71c1f1caae303033dddf5c07d49fe3a44a3e28345", "asm": "304502210086db8866e1089c70c87fe4261e520f98ccf199d1e0cc55365bd12452f69a70d702207f4028dfedba00446161f1c970915f06579313de360491b2dcca4d1f76e61653[ALL] 02cd99f83bcc04ba8de2d327a71c1f1caae303033dddf5c07d49fe3a44a3e28345"}, "vout": 0, "txid": "6f3c699085ad163012768b8cbf65044b8db02e4e2efefee78e3ae731372c5524"}], "txid": "ca21879084ab65fd033d91b2f3d79a0dfbaf3a5da9aa5a19d8a320f5e31be114", "blocktime": 1537873282, "version": 1, "confirmations": 11484, "time": 1537873282, "locktime": 0, "vsize": 284, "size": 284}