{"hash": "4566014e2c33a9aa205ef95ea5c089ae2eb75d1f07df1cb86e7d28ef78158799", "blockhash": "0000000000000000001cda96e906b7601b7a6fb1a3b62bca570a9e5d8f4b3de1", "vout": [{"scriptPubKey": {"reqSigs": 1, "hex": "0014a9139a408aa836c0733cd816c9b3e9fe0110ac16", "addresses": ["bc1q4yfe5sy24qmvqueumqtvnvlflcq3ptqkxgdjuz"], "asm": "0 a9139a408aa836c0733cd816c9b3e9fe0110ac16", "type": "witness_v0_keyhash"}, "value": 0.00031659, "n": 0}, {"scriptPubKey": {"reqSigs": 1, "hex": "76a914cd49c6e40a20001562f21074faab0e47a86c50b988ac", "addresses": ["1KiTuSFMv7i7gC5j1wzRQzwhYDhBkVJJZ9"], "asm": "OP_DUP OP_HASH160 cd49c6e40a20001562f21074faab0e47a86c50b9 OP_EQUALVERIFY OP_CHECKSIG", "type": "pubkeyhash"}, "value": 0.01418263, "n": 1}], "hex": "01000000000101056262cc8d09f16094e68a4f290a2f0965ca3b748b5f19b9f8afe3dd3895c3760000000017160014b03172a13137c10f75df84ae52513877ae821403ffffffff02ab7b000000000000160014a9139a408aa836c0733cd816c9b3e9fe0110ac1617a41500000000001976a914cd49c6e40a20001562f21074faab0e47a86c50b988ac02483045022100f922c2fdce99382c136c99306fc748a88d9cecda32b4c74b25a67cd17201e48602202a29114e569fef2338a8679443b3790cc69b7e92b7d19dfaa4629aa826bd884d0121027750f0c81a72454ace2387dfda52db4d213fc91f7d04c2bf389b5571a6dac31d00000000", "vin": [{"txinwitness": ["3045022100f922c2fdce99382c136c99306fc748a88d9cecda32b4c74b25a67cd17201e48602202a29114e569fef2338a8679443b3790cc69b7e92b7d19dfaa4629aa826bd884d01", "027750f0c81a72454ace2387dfda52db4d213fc91f7d04c2bf389b5571a6dac31d"], "sequence": 4294967295, "scriptSig": {"hex": "160014b03172a13137c10f75df84ae52513877ae821403", "asm": "0014b03172a13137c10f75df84ae52513877ae821403"}, "vout": 0, "txid": "76c39538dde3aff8b9195f8b743bca65092f0a294f8ae69460f1098dcc626205"}], "txid": "ca22aff8ec9f7ba4cd4423abeed46d6eb975180b8a949a4b63a294f2c990f697", "blocktime": 1537873282, "version": 1, "confirmations": 11484, "time": 1537873282, "locktime": 0, "vsize": 167, "size": 249}