{"hash": "a6ff9c003b25fa3edbe3acfdb4849f08ed354c361afddc7907e8c6262978ff36", "blockhash": "000000000000000000022b45ed06c6f4ccd3cf7fb5ba4856ebd2e58215665228", "vout": [{"scriptPubKey": {"reqSigs": 1, "hex": "a914ac735734d1f41c28fc44a18b5d3605cfcd8f919c87", "addresses": ["3HQrKYhnaRVZbXn9AgTmN4JfNVbDZtmvLb"], "asm": "OP_HASH160 ac735734d1f41c28fc44a18b5d3605cfcd8f919c OP_EQUAL", "type": "scripthash"}, "value": 0.01334366, "n": 0}, {"scriptPubKey": {"reqSigs": 1, "hex": "76a9140a3195c50a139c1268b517078c4818eb7c3cee7288ac", "addresses": ["1vuA9XxA95fff3zonS6wemPTWBvQ16vN9"], "asm": "OP_DUP OP_HASH160 0a3195c50a139c1268b517078c4818eb7c3cee72 OP_EQUALVERIFY OP_CHECKSIG", "type": "pubkeyhash"}, "value": 0.00283111, "n": 1}], "hex": "02000000000101e779a1b4582cdddd8f2b5af6a662a2e22f9661dfcc7bae06eb8baa0fcc0d59a5010000001716001415df28ab186bec5e21da13896027f855065fe3a7feffffff025e5c14000000000017a914ac735734d1f41c28fc44a18b5d3605cfcd8f919c87e7510400000000001976a9140a3195c50a139c1268b517078c4818eb7c3cee7288ac0247304402202fea25701ca99833bf8d0ec314aa4dda3921366faacb20f3e6739eea95a3e5d402200fc1908578751b5d8ab71c773905cf65e8a1614b4d214118e4bf8cbb6bcd56280121029982389abdb3d9f1f550e21d67ce9668b68fe705428fd3d2cc7ae4def82c3a4a0b490800", "vin": [{"txinwitness": ["304402202fea25701ca99833bf8d0ec314aa4dda3921366faacb20f3e6739eea95a3e5d402200fc1908578751b5d8ab71c773905cf65e8a1614b4d214118e4bf8cbb6bcd562801", "029982389abdb3d9f1f550e21d67ce9668b68fe705428fd3d2cc7ae4def82c3a4a"], "sequence": 4294967294, "scriptSig": {"hex": "16001415df28ab186bec5e21da13896027f855065fe3a7", "asm": "001415df28ab186bec5e21da13896027f855065fe3a7"}, "vout": 1, "txid": "a5590dcc0faa8beb06ae7bccdf61962fe2a262a6f65a2b8fdddd2c58b4a179e7"}], "txid": "ca276a4a7be5b1c290e1d4cec6f41e8c09bb8c26ff4d14aba0e02ed5f33b8696", "blocktime": 1537869901, "version": 2, "confirmations": 11524, "time": 1537869901, "locktime": 542987, "vsize": 168, "size": 249}