{"hash": "ca29949f608adc3fe4bb7d7fdf79f38d9bd9ec8ff20a442bd88e1cb434b3e454", "blockhash": "0000000000000000001cda96e906b7601b7a6fb1a3b62bca570a9e5d8f4b3de1", "vout": [{"scriptPubKey": {"reqSigs": 1, "hex": "76a914b6c861c6ac709df5ed1e11bfeb1d1f75684405f588ac", "addresses": ["1HfU2hGUY3PF2vkvQyqB4eHztQiFwFXMCS"], "asm": "OP_DUP OP_HASH160 b6c861c6ac709df5ed1e11bfeb1d1f75684405f5 OP_EQUALVERIFY OP_CHECKSIG", "type": "pubkeyhash"}, "value": 0.0981732, "n": 0}, {"scriptPubKey": {"reqSigs": 1, "hex": "76a9148cd1e3beafb9d22e76b9d1dc0f10caf75ed2126c88ac", "addresses": ["1Dqb3F7USEP1Ar7SGUzSgp7efnPiYqUR2R"], "asm": "OP_DUP OP_HASH160 8cd1e3beafb9d22e76b9d1dc0f10caf75ed2126c OP_EQUALVERIFY OP_CHECKSIG", "type": "pubkeyhash"}, "value": 3e-05, "n": 1}], "hex": "01000000010f16c148638c566de77f1ae0b17d03ceb0b482a82e67d5bf19dddd0e75c66af7000000006a473044022001499fc622dcbdeca3fab784f8b917956b65389411f39c7369302784fd45390602207e9655513409eb6fd9b5e02851f9825847601ef00cc1b4e837bb3cee7a601fbd012103a7f2dac7cf76656c8edfeda81de02bcabce85644b4e17019efb2ff074006ce2ffeffffff02e8cc9500000000001976a914b6c861c6ac709df5ed1e11bfeb1d1f75684405f588acb80b0000000000001976a9148cd1e3beafb9d22e76b9d1dc0f10caf75ed2126c88ac13490800", "vin": [{"sequence": 4294967294, "scriptSig": {"hex": "473044022001499fc622dcbdeca3fab784f8b917956b65389411f39c7369302784fd45390602207e9655513409eb6fd9b5e02851f9825847601ef00cc1b4e837bb3cee7a601fbd012103a7f2dac7cf76656c8edfeda81de02bcabce85644b4e17019efb2ff074006ce2f", "asm": "3044022001499fc622dcbdeca3fab784f8b917956b65389411f39c7369302784fd45390602207e9655513409eb6fd9b5e02851f9825847601ef00cc1b4e837bb3cee7a601fbd[ALL] 03a7f2dac7cf76656c8edfeda81de02bcabce85644b4e17019efb2ff074006ce2f"}, "vout": 0, "txid": "f76ac6750edddd19bfd5672ea882b4b0ce037db1e01a7fe76d568c6348c1160f"}], "txid": "ca29949f608adc3fe4bb7d7fdf79f38d9bd9ec8ff20a442bd88e1cb434b3e454", "blocktime": 1537873282, "version": 1, "confirmations": 11485, "time": 1537873282, "locktime": 542995, "vsize": 225, "size": 225}