{"hash": "d2368657eb260a14b2863b23524730582f65bb01402c40ec72ee88eca71abb88", "blockhash": "0000000000000000000dcc0f55137456b1a82d3642486a52398922ac4d620174", "vout": [{"scriptPubKey": {"reqSigs": 1, "hex": "76a91413a2d8dd6e4fab3aae7d20cc87522621c8b05b8c88ac", "addresses": ["12npvTmyqAGF8yvPC98GvgqWS9LALHYeGo"], "asm": "OP_DUP OP_HASH160 13a2d8dd6e4fab3aae7d20cc87522621c8b05b8c OP_EQUALVERIFY OP_CHECKSIG", "type": "pubkeyhash"}, "value": 9.656e-05, "n": 0}, {"scriptPubKey": {"reqSigs": 1, "hex": "a9141d7370ccde4590204155e4074f69743a8e4fac0287", "addresses": ["34Njp4ZKtmCDfqqps26wHBYQQGUo2pGkLi"], "asm": "OP_HASH160 1d7370ccde4590204155e4074f69743a8e4fac02 OP_EQUAL", "type": "scripthash"}, "value": 0.00026518, "n": 1}], "hex": "01000000000101337d4b538ad77d001c65c1fa2e4e6b306cb22c06f85c53f0d9a259e290392c020100000023220020f63dfc12340f6360d0251c22746d6b56093e3243e96ca012a65484a5d9cf0ec0ffffffff02b8250000000000001976a91413a2d8dd6e4fab3aae7d20cc87522621c8b05b8c88ac966700000000000017a9141d7370ccde4590204155e4074f69743a8e4fac02870400483045022100b9d977eb0881375b3638734fd07ebc27e420e6b641270174165c0d6add3de1a802204c3c39ef81e89abbebfdf8437f67cec61715972551f4b6c7585269dbd7d0e0200147304402202d9f08443d65b33b5cc407b28b2b9c4516def5f2575e1cfccc1ec98744118ec70220067cb5b25be7dd08c97cf3c0e896ebdc36f18f5b8f80177d6eb7626d6fa42f830147522102097067a6a0cc130a9a6f6577b47bf369b840a79de31cd7457187994266b1bb7c2103338f346cab6ba87fe940591a03ac234be06520c5ab386d4b6632e8eef0d0db7652ae00000000", "vin": [{"txinwitness": ["", "3045022100b9d977eb0881375b3638734fd07ebc27e420e6b641270174165c0d6add3de1a802204c3c39ef81e89abbebfdf8437f67cec61715972551f4b6c7585269dbd7d0e02001", "304402202d9f08443d65b33b5cc407b28b2b9c4516def5f2575e1cfccc1ec98744118ec70220067cb5b25be7dd08c97cf3c0e896ebdc36f18f5b8f80177d6eb7626d6fa42f8301", "522102097067a6a0cc130a9a6f6577b47bf369b840a79de31cd7457187994266b1bb7c2103338f346cab6ba87fe940591a03ac234be06520c5ab386d4b6632e8eef0d0db7652ae"], "sequence": 4294967295, "scriptSig": {"hex": "220020f63dfc12340f6360d0251c22746d6b56093e3243e96ca012a65484a5d9cf0ec0", "asm": "0020f63dfc12340f6360d0251c22746d6b56093e3243e96ca012a65484a5d9cf0ec0"}, "vout": 1, "txid": "022c3990e259a2d9f0535cf8062cb26c306b4e2efac1651c007dd78a534b7d33"}], "txid": "ca3423cd0b2696e783cde6a37f0daf789a28efb8629d432e5f6e7f6bffeeb861", "blocktime": 1537870268, "version": 1, "confirmations": 11518, "time": 1537870268, "locktime": 0, "vsize": 208, "size": 373}