{"hash": "fc768af5c7d8fe26e61d383ec5b5e0cd478c6afb6762ce9174500c75d3904324", "blockhash": "0000000000000000001f0ddff1eddb255c1121bcd4da4f1bc9a0da00cae72433", "vout": [{"scriptPubKey": {"reqSigs": 1, "hex": "001467a472db5805d78e8e8bb096e1a4be14738cc12e", "addresses": ["bc1qv7j89k6cqhtcar5tkztwrf97z3ecesfw9as7u5"], "asm": "0 67a472db5805d78e8e8bb096e1a4be14738cc12e", "type": "witness_v0_keyhash"}, "value": 0.00254293, "n": 0}, {"scriptPubKey": {"reqSigs": 1, "hex": "a9148fadc583a92796adfc4c16225c00d4207329cdc887", "addresses": ["3EniiqK7k5hrCFhSUtSWEwGmtJEUVzknLt"], "asm": "OP_HASH160 8fadc583a92796adfc4c16225c00d4207329cdc8 OP_EQUAL", "type": "scripthash"}, "value": 0.01494758, "n": 1}], "hex": "01000000000101e190ed704432c9f38e8edf4a1da3055f623ee549b8c064cea61d4363c95b0f1a0000000000ffffffff0255e103000000000016001467a472db5805d78e8e8bb096e1a4be14738cc12ee6ce16000000000017a9148fadc583a92796adfc4c16225c00d4207329cdc88702483045022100c0c087c3938ca449e176dbf6163586e4d44508b31afd4c2b7a544d8de6f56e88022004a8162d6d0bd630203a4796c6509359986ac28f2af3e001ab4d7c5a9fc0c3e7012102c81724a762c99aa072c5157ed0f48a11f955a8f9a67c14b233e5ec2e911a468900000000", "vin": [{"txinwitness": ["3045022100c0c087c3938ca449e176dbf6163586e4d44508b31afd4c2b7a544d8de6f56e88022004a8162d6d0bd630203a4796c6509359986ac28f2af3e001ab4d7c5a9fc0c3e701", "02c81724a762c99aa072c5157ed0f48a11f955a8f9a67c14b233e5ec2e911a4689"], "sequence": 4294967295, "scriptSig": {"hex": "", "asm": ""}, "vout": 0, "txid": "1a0f5bc963431da6ce64c0b849e53e625f05a31d4adf8e8ef3c9324470ed90e1"}], "txid": "ca4376a08d737e02f1d84bf5f16a393fb2da22cc58a6e680fc09bcbff78cc718", "blocktime": 1537872018, "version": 1, "confirmations": 11489, "time": 1537872018, "locktime": 0, "vsize": 142, "size": 224}