{"hash": "ef80fd21e80b783153674ff4ffc87f49016be398f75975e3f4b64f0261c60343", "blockhash": "0000000000000000000baef3f32e3676a92c3b2e5da21b426e4f302fc371ce76", "vout": [{"scriptPubKey": {"reqSigs": 1, "hex": "76a9143d81cd1462ed58e8a6ea3c5b8f814888efb8643088ac", "addresses": ["16cDiSW1o8jRAhKmWUTSQpSsc3KcPpCktx"], "asm": "OP_DUP OP_HASH160 3d81cd1462ed58e8a6ea3c5b8f814888efb86430 OP_EQUALVERIFY OP_CHECKSIG", "type": "pubkeyhash"}, "value": 0.00210091, "n": 0}, {"scriptPubKey": {"reqSigs": 1, "hex": "76a9144bb56aa778721117e99fb09cc3c1981e0445157088ac", "addresses": ["17uK1SDvC1wKct8hiShYHfZ3J2vsJTP7vD"], "asm": "OP_DUP OP_HASH160 4bb56aa778721117e99fb09cc3c1981e04451570 OP_EQUALVERIFY OP_CHECKSIG", "type": "pubkeyhash"}, "value": 0.01286452, "n": 1}, {"scriptPubKey": {"reqSigs": 1, "hex": "0020701a8d401c84fb13e6baf169d59684e17abd9fa216c8cc5b9fc63d622ff8c58d", "addresses": ["bc1qwqdg6squsna38e46795at95yu9atm8azzmyvckulcc7kytlcckxswvvzej"], "asm": "0 701a8d401c84fb13e6baf169d59684e17abd9fa216c8cc5b9fc63d622ff8c58d", "type": "witness_v0_scripthash"}, "value": 0.00211604, "n": 2}], "hex": "010000000001018b150c0b304f699cfbb6d6544759c0c29091c15d5285b20e961f2c9dc4b5756e0100000000ffffffff03ab340300000000001976a9143d81cd1462ed58e8a6ea3c5b8f814888efb8643088ac34a11300000000001976a9144bb56aa778721117e99fb09cc3c1981e0445157088ac943a030000000000220020701a8d401c84fb13e6baf169d59684e17abd9fa216c8cc5b9fc63d622ff8c58d0400473044022054d2608ad3e5b474470a0212194a13106f58e612af731c8c54162388d846d4f902201a67147d0905599ab8ecf6a28aff146cfbd9c7bf9fa00bce7b17fd9a3d9b6eee014730440220029ced4556b087948c71bc1c36164888dd43846dc6b7a888c4437ae4fc7ff80902200e09d366a88eb2462642465e410a8129a90701ee9b9b35b8c54b68b6e4cc4f14016952210375e00eb72e29da82b89367947f29ef34afb75e8654f6ea368e0acdfd92976b7c2103a1b26313f430c4b15bb1fdce663207659d8cac749a0e53d70eff01874496feff2103c96d495bfdd5ba4145e3e046fee45e84a8a48ad05bd8dbb395c011a32cf9f88053ae00000000", "vin": [{"txinwitness": ["", "3044022054d2608ad3e5b474470a0212194a13106f58e612af731c8c54162388d846d4f902201a67147d0905599ab8ecf6a28aff146cfbd9c7bf9fa00bce7b17fd9a3d9b6eee01", "30440220029ced4556b087948c71bc1c36164888dd43846dc6b7a888c4437ae4fc7ff80902200e09d366a88eb2462642465e410a8129a90701ee9b9b35b8c54b68b6e4cc4f1401", "52210375e00eb72e29da82b89367947f29ef34afb75e8654f6ea368e0acdfd92976b7c2103a1b26313f430c4b15bb1fdce663207659d8cac749a0e53d70eff01874496feff2103c96d495bfdd5ba4145e3e046fee45e84a8a48ad05bd8dbb395c011a32cf9f88053ae"], "sequence": 4294967295, "scriptSig": {"hex": "", "asm": ""}, "vout": 1, "txid": "6e75b5c49d2c1f960eb285525dc19190c2c0594754d6b6fb9c694f300b0c158b"}], "txid": "ca462ace653428163739fa481d90de39c709abdce0bb4c49716b2f27558ff780", "blocktime": 1537876114, "version": 1, "confirmations": 11459, "time": 1537876114, "locktime": 0, "vsize": 226, "size": 416}