{"hash": "bbe2c8c386061b8e3b7dc403b4d04d0d536a7c77d2dd0200b077b0de83587015", "blockhash": "000000000000000000205f8b0775d31398ef75b89a5e8ec8d2c57b4dc0ac4c20", "vout": [{"scriptPubKey": {"reqSigs": 1, "hex": "a9141387a5aff481f9151e74f746d26d79d5c51119f687", "addresses": ["33UHG83oA56HH272jfRFqAYBDK3nS73WWr"], "asm": "OP_HASH160 1387a5aff481f9151e74f746d26d79d5c51119f6 OP_EQUAL", "type": "scripthash"}, "value": 0.00192152, "n": 0}, {"scriptPubKey": {"reqSigs": 1, "hex": "a91446ca7197b0a6603bfadd7916883e385756c6fc7a87", "addresses": ["389Kk1Rr4DKhAru1T6Z8fg1BvYRZg5cGK8"], "asm": "OP_HASH160 46ca7197b0a6603bfadd7916883e385756c6fc7a OP_EQUAL", "type": "scripthash"}, "value": 0.0033196, "n": 1}, {"scriptPubKey": {"reqSigs": 1, "hex": "a91473df5f61ebf8d672526516f717482ce7fd3e721587", "addresses": ["3CFhDoa4Xc3ZC1Yms7kXW7CFNus8cZCenM"], "asm": "OP_HASH160 73df5f61ebf8d672526516f717482ce7fd3e7215 OP_EQUAL", "type": "scripthash"}, "value": 0.0037936, "n": 2}, {"scriptPubKey": {"reqSigs": 1, "hex": "a914cee23a179a96b8006b12f991ebeb57bc413408e787", "addresses": ["3LYv8amNMfhejHLGfeUaomZ83yGUz8te3Z"], "asm": "OP_HASH160 cee23a179a96b8006b12f991ebeb57bc413408e7 OP_EQUAL", "type": "scripthash"}, "value": 0.0022186, "n": 3}, {"scriptPubKey": {"reqSigs": 1, "hex": "a914ddf8783b9aa8b2d2075accc10176cd1d7a9831e087", "addresses": ["3MvguuuAd84CJ6CzBodX5FTmbCWWM3KuG7"], "asm": "OP_HASH160 ddf8783b9aa8b2d2075accc10176cd1d7a9831e0 OP_EQUAL", "type": "scripthash"}, "value": 5.429e-05, "n": 4}, {"scriptPubKey": {"reqSigs": 1, "hex": "a9147c6d01e906e23b09f840fb0796fda68f17445d4687", "addresses": ["3D2vJJU4KvxAmS4xNRkNuFZTPVE21QDsw9"], "asm": "OP_HASH160 7c6d01e906e23b09f840fb0796fda68f17445d46 OP_EQUAL", "type": "scripthash"}, "value": 0.0025616, "n": 5}, {"scriptPubKey": {"reqSigs": 1, "hex": "76a914ebd9c347cfa97312b8d0b2a7f94145c5fb252c8188ac", "addresses": ["1NW4fWLMkGs8SFF6GjT78dhpjVuyCJ46oE"], "asm": "OP_DUP OP_HASH160 ebd9c347cfa97312b8d0b2a7f94145c5fb252c81 OP_EQUALVERIFY OP_CHECKSIG", "type": "pubkeyhash"}, "value": 0.00229889, "n": 6}, {"scriptPubKey": {"reqSigs": 1, "hex": "a91483eae6f5ee0740054dc780e0bc1a15741b6f404387", "addresses": ["3DiXqxrbxztdQFj53C6Sf1q7q1ypt6bLqe"], "asm": "OP_HASH160 83eae6f5ee0740054dc780e0bc1a15741b6f4043 OP_EQUAL", "type": "scripthash"}, "value": 0.0025616, "n": 7}, {"scriptPubKey": {"reqSigs": 1, "hex": "a914c9d585e3658bfc603931bd460be653d17d7a256287", "addresses": ["3L6DXwTyhnDbce43Kc8CEEyPiYMDgDipMn"], "asm": "OP_HASH160 c9d585e3658bfc603931bd460be653d17d7a2562 OP_EQUAL", "type": "scripthash"}, "value": 0.0030296, "n": 8}, {"scriptPubKey": {"reqSigs": 1, "hex": "a914633c90da037e44affe95d6cebb9894e9d4ab4ec887", "addresses": ["3AjjNirKS23cbHgzcDYuTgHBQXWxipPLY2"], "asm": "OP_HASH160 633c90da037e44affe95d6cebb9894e9d4ab4ec8 OP_EQUAL", "type": "scripthash"}, "value": 0.0027036, "n": 9}, {"scriptPubKey": {"reqSigs": 1, "hex": "a914e2eaa80a7e8c3c2e763f15a5f4ac42eef98da8a987", "addresses": ["3NNqk7NSBbgXT6XfQfdFeyC8WBer24sQhb"], "asm": "OP_HASH160 e2eaa80a7e8c3c2e763f15a5f4ac42eef98da8a9 OP_EQUAL", "type": "scripthash"}, "value": 1.82864304, "n": 10}, {"scriptPubKey": {"reqSigs": 1, "hex": "a91423a8795539f961e9865b430c17fde8d030896ccd87", "addresses": ["34wZQ2u6vqStrUPxCDopRfChT5zKoqH2RZ"], "asm": "OP_HASH160 23a8795539f961e9865b430c17fde8d030896ccd OP_EQUAL", "type": "scripthash"}, "value": 0.00245301, "n": 11}, {"scriptPubKey": {"reqSigs": 1, "hex": "a914d171c3d458e96d33c7164ae205130fbb2ca644c187", "addresses": ["3LnTSAUjP5KMEtUoyAHTirFrmAgPU3nHcg"], "asm": "OP_HASH160 d171c3d458e96d33c7164ae205130fbb2ca644c1 OP_EQUAL", "type": "scripthash"}, "value": 0.00277396, "n": 12}, {"scriptPubKey": {"reqSigs": 1, "hex": "76a91441f1040bfe8c871ee35db5339ad56c3659da21b288ac", "addresses": ["171feYNaTSAneaZt554n5uuG9FPTUWy9B9"], "asm": "OP_DUP OP_HASH160 41f1040bfe8c871ee35db5339ad56c3659da21b2 OP_EQUALVERIFY OP_CHECKSIG", "type": "pubkeyhash"}, "value": 0.0024, "n": 13}, {"scriptPubKey": {"reqSigs": 1, "hex": "a914bfdee011cf2ffc5ff75ca124c6b45e14e3cbc46487", "addresses": ["3KBXyq26B49tog2EiaAvK4wn54dcErr9ys"], "asm": "OP_HASH160 bfdee011cf2ffc5ff75ca124c6b45e14e3cbc464 OP_EQUAL", "type": "scripthash"}, "value": 0.0019266, "n": 14}, {"scriptPubKey": {"reqSigs": 1, "hex": "a914fe1a6a2267cca6263c683b7c021fc860b23bb27587", "addresses": ["3QrbCaxtCaQAbUK3NPnUTJNBQJDQ4hXF5B"], "asm": "OP_HASH160 fe1a6a2267cca6263c683b7c021fc860b23bb275 OP_EQUAL", "type": "scripthash"}, "value": 0.00196284, "n": 15}, {"scriptPubKey": {"reqSigs": 1, "hex": "a914d937159eb847d4a1e500012e2a5eca70aa2ac32c87", "addresses": ["3MVYYWHx94g53u6hsBQGaJjsMp5Z8ypfk7"], "asm": "OP_HASH160 d937159eb847d4a1e500012e2a5eca70aa2ac32c OP_EQUAL", "type": "scripthash"}, "value": 0.00228614, "n": 16}, {"scriptPubKey": {"reqSigs": 1, "hex": "a914903af0c72597bc0c080be3ae837289230ab6d55287", "addresses": ["3EqdqRmEtLUVvy4tMrwxLYMoK3FiqYFkbD"], "asm": "OP_HASH160 903af0c72597bc0c080be3ae837289230ab6d552 OP_EQUAL", "type": "scripthash"}, "value": 0.0029286, "n": 17}, {"scriptPubKey": {"reqSigs": 1, "hex": "a91498eda3a602f0d4cffa169bccce43fb96ecaf38de87", "addresses": ["3FddKAcunq1jYVhR2inBop8BgChPq9AEw4"], "asm": "OP_HASH160 98eda3a602f0d4cffa169bccce43fb96ecaf38de OP_EQUAL", "type": "scripthash"}, "value": 0.00150837, "n": 18}, {"scriptPubKey": {"reqSigs": 1, "hex": "a9143d3cfa30d6027fc77e12867964637f4c898117e687", "addresses": ["37GpC2Hhdrss6CZJw6ZLGAjyMorUoEfpXt"], "asm": "OP_HASH160 3d3cfa30d6027fc77e12867964637f4c898117e6 OP_EQUAL", "type": "scripthash"}, "value": 0.00234781, "n": 19}], "hex": "02000000000101a5ebdbd3d98228774007ff18c5e3bbb108122c4340b92b8bea3fad0c4b670cec0700000017160014d77793292708b00244332db9445379db2bd55b4afeffffff1498ee02000000000017a9141387a5aff481f9151e74f746d26d79d5c51119f687b81005000000000017a91446ca7197b0a6603bfadd7916883e385756c6fc7a87e0c905000000000017a91473df5f61ebf8d672526516f717482ce7fd3e721587a46203000000000017a914cee23a179a96b8006b12f991ebeb57bc413408e787351500000000000017a914ddf8783b9aa8b2d2075accc10176cd1d7a9831e087a0e803000000000017a9147c6d01e906e23b09f840fb0796fda68f17445d468701820300000000001976a914ebd9c347cfa97312b8d0b2a7f94145c5fb252c8188aca0e803000000000017a91483eae6f5ee0740054dc780e0bc1a15741b6f404387709f04000000000017a914c9d585e3658bfc603931bd460be653d17d7a256287182004000000000017a914633c90da037e44affe95d6cebb9894e9d4ab4ec887b049e60a0000000017a914e2eaa80a7e8c3c2e763f15a5f4ac42eef98da8a98735be03000000000017a91423a8795539f961e9865b430c17fde8d030896ccd87943b04000000000017a914d171c3d458e96d33c7164ae205130fbb2ca644c18780a90300000000001976a91441f1040bfe8c871ee35db5339ad56c3659da21b288ac94f002000000000017a914bfdee011cf2ffc5ff75ca124c6b45e14e3cbc46487bcfe02000000000017a914fe1a6a2267cca6263c683b7c021fc860b23bb27587067d03000000000017a914d937159eb847d4a1e500012e2a5eca70aa2ac32c87fc7704000000000017a914903af0c72597bc0c080be3ae837289230ab6d55287354d02000000000017a91498eda3a602f0d4cffa169bccce43fb96ecaf38de871d9503000000000017a9143d3cfa30d6027fc77e12867964637f4c898117e6870247304402203e9db82e31bc79e161efb5c75816e7957d6aa60e0751a4a8205da19ffd828f1702206a2b076e7f9f51cc8839b027089a636c4ba9d48abc0b236001585f5d0a6f5ace012103f67a55cddd4240e30398da92261abc7de701fd0ce5312df1ad8668be89d4faac0f490800", "vin": [{"txinwitness": ["304402203e9db82e31bc79e161efb5c75816e7957d6aa60e0751a4a8205da19ffd828f1702206a2b076e7f9f51cc8839b027089a636c4ba9d48abc0b236001585f5d0a6f5ace01", "03f67a55cddd4240e30398da92261abc7de701fd0ce5312df1ad8668be89d4faac"], "sequence": 4294967294, "scriptSig": {"hex": "160014d77793292708b00244332db9445379db2bd55b4a", "asm": "0014d77793292708b00244332db9445379db2bd55b4a"}, "vout": 7, "txid": "ec0c674b0cad3fea8b2bb940432c1208b1bbe3c518ff0740772882d9d3dbeba5"}], "txid": "ca4e865229d1c8fbe053185dc28b66021c61b20a408e8e90978644bf4792a563", "blocktime": 1537871175, "version": 2, "confirmations": 11511, "time": 1537871175, "locktime": 542991, "vsize": 746, "size": 827}