{"hash": "ca575e4ea7619e8917ac648c849e77d58e36922accb4f8d5db24d1199db839e6", "blockhash": "0000000000000000001cda96e906b7601b7a6fb1a3b62bca570a9e5d8f4b3de1", "vout": [{"scriptPubKey": {"reqSigs": 1, "hex": "76a91482be2a9008cda4d2cdf8fc469e5c4001a9d4bacb88ac", "addresses": ["1CvJevST8sXJC81cDa8hFVDznL7ckZT2ua"], "asm": "OP_DUP OP_HASH160 82be2a9008cda4d2cdf8fc469e5c4001a9d4bacb OP_EQUALVERIFY OP_CHECKSIG", "type": "pubkeyhash"}, "value": 0.0005391, "n": 0}, {"scriptPubKey": {"reqSigs": 1, "hex": "a9141ce091cf4458dd7bf97392465ee2f520f76ea3d787", "addresses": ["34KhsHKZokHM7rneBdwDcPY7YAR4Ursf9g"], "asm": "OP_HASH160 1ce091cf4458dd7bf97392465ee2f520f76ea3d7 OP_EQUAL", "type": "scripthash"}, "value": 0.00359, "n": 1}], "hex": "01000000033b8858600b7ee31a11d0e400fbdc1ff9ba9ee038577827e2f7155aff0d6bde13000000006a4730440220358972bc878d2a6dd70f6299022f9b618a08613abdd0bf5577281a966b8cbd1d0220359dc09a2c203ea9a3e086a21886797252f16271ac6dbb985ffb65506d7f8464012103e5ccdca2e8098de18aa8d7aaf13ad0a5ebf5b0c00ff6c0b1a140baba10054eafffffffffe7abca1b721c3b24f76e0ef3d4f8b7741c88174e7ef9ba789afa01ada02d78bd000000006a47304402201ede6063185b99e28ead86e68fd22c7e64a4af7c0e8f6e962242339ab640c19f02205b647b8287282d888b90fbaf3bc57d9fcdc3b9a1f726dc3b48405842ec16a3ec012103dc97188d61cab678a8863e59145b4bafa134a7b3afb432ce72c1a97542179a50ffffffff444c6c54e70aa61f800d78417f34cc6df8a507fac60f79cc28202491e512e9bf010000006a47304402202f52d279ac2fc15ec23f6fd261c12cff9dff00e1e84d4094ff72db82ebf6815c0220024bb781e8e688e22c16f9601e88293993986a39c8e54154dff580e869ef94bf012102f65953eb0cab8921aeb430ba450c1ec43afc8b9a69fc64591b4c334dd2c6ce05ffffffff0296d20000000000001976a91482be2a9008cda4d2cdf8fc469e5c4001a9d4bacb88ac587a05000000000017a9141ce091cf4458dd7bf97392465ee2f520f76ea3d78700000000", "vin": [{"sequence": 4294967295, "scriptSig": {"hex": "4730440220358972bc878d2a6dd70f6299022f9b618a08613abdd0bf5577281a966b8cbd1d0220359dc09a2c203ea9a3e086a21886797252f16271ac6dbb985ffb65506d7f8464012103e5ccdca2e8098de18aa8d7aaf13ad0a5ebf5b0c00ff6c0b1a140baba10054eaf", "asm": "30440220358972bc878d2a6dd70f6299022f9b618a08613abdd0bf5577281a966b8cbd1d0220359dc09a2c203ea9a3e086a21886797252f16271ac6dbb985ffb65506d7f8464[ALL] 03e5ccdca2e8098de18aa8d7aaf13ad0a5ebf5b0c00ff6c0b1a140baba10054eaf"}, "vout": 0, "txid": "13de6b0dff5a15f7e227785738e09ebaf91fdcfb00e4d0111ae37e0b6058883b"}, {"sequence": 4294967295, "scriptSig": {"hex": "47304402201ede6063185b99e28ead86e68fd22c7e64a4af7c0e8f6e962242339ab640c19f02205b647b8287282d888b90fbaf3bc57d9fcdc3b9a1f726dc3b48405842ec16a3ec012103dc97188d61cab678a8863e59145b4bafa134a7b3afb432ce72c1a97542179a50", "asm": "304402201ede6063185b99e28ead86e68fd22c7e64a4af7c0e8f6e962242339ab640c19f02205b647b8287282d888b90fbaf3bc57d9fcdc3b9a1f726dc3b48405842ec16a3ec[ALL] 03dc97188d61cab678a8863e59145b4bafa134a7b3afb432ce72c1a97542179a50"}, "vout": 0, "txid": "bd782da0ad01fa9a78baf97e4e17881c74b7f8d4f30e6ef7243b1c721bcaabe7"}, {"sequence": 4294967295, "scriptSig": {"hex": "47304402202f52d279ac2fc15ec23f6fd261c12cff9dff00e1e84d4094ff72db82ebf6815c0220024bb781e8e688e22c16f9601e88293993986a39c8e54154dff580e869ef94bf012102f65953eb0cab8921aeb430ba450c1ec43afc8b9a69fc64591b4c334dd2c6ce05", "asm": "304402202f52d279ac2fc15ec23f6fd261c12cff9dff00e1e84d4094ff72db82ebf6815c0220024bb781e8e688e22c16f9601e88293993986a39c8e54154dff580e869ef94bf[ALL] 02f65953eb0cab8921aeb430ba450c1ec43afc8b9a69fc64591b4c334dd2c6ce05"}, "vout": 1, "txid": "bfe912e591242028cc790fc6fa07a5f86dcc347f41780d801fa60ae7546c4c44"}], "txid": "ca575e4ea7619e8917ac648c849e77d58e36922accb4f8d5db24d1199db839e6", "blocktime": 1537873282, "version": 1, "confirmations": 11484, "time": 1537873282, "locktime": 0, "vsize": 517, "size": 517}