{"hash": "40de694d0ce3d087a1a87d3415ded58b91bd7f33fdc04a961e3554e91b14584f", "blockhash": "00000000000000000018f53835495a110e01622372bf6ae95dc86f2b0ab887b0", "vout": [{"scriptPubKey": {"reqSigs": 1, "hex": "a91423d46a4351d70bf11bc45f1880ffe29c95cb845d87", "addresses": ["34xU37jpExzh7t6iAui4n5uLSYF4R2yTuJ"], "asm": "OP_HASH160 23d46a4351d70bf11bc45f1880ffe29c95cb845d OP_EQUAL", "type": "scripthash"}, "value": 11.56695686, "n": 0}, {"scriptPubKey": {"reqSigs": 1, "hex": "a91467871fd000dd88f488e8da779bf0f94a32ec063587", "addresses": ["3B8RPuDCcwWnenyQd5GNfdGkYBAeL96z3Z"], "asm": "OP_HASH160 67871fd000dd88f488e8da779bf0f94a32ec0635 OP_EQUAL", "type": "scripthash"}, "value": 0.00091699, "n": 1}], "hex": "0200000000010158b1ba28e43622db0377343a69aa2af21d609b196e04af42b4cedeec0f99470700000000171600142178926abada6cc43d2071596a927c1a3ca96b88feffffff0286c6f1440000000017a91423d46a4351d70bf11bc45f1880ffe29c95cb845d87336601000000000017a91467871fd000dd88f488e8da779bf0f94a32ec063587024830450221009e90713a9363269d1626f09170982df94ed68a9c935198b74a6c555a5ad7a7df022068ce3eb7c2d27ae23a7d75da84727517597011d0a5139f5baa6ee3ac009da5b00121029aedc9a0269af5477fb59d802f195b22f94ff798582dfd68b4c61c3a4b4a2c250e490800", "vin": [{"txinwitness": ["30450221009e90713a9363269d1626f09170982df94ed68a9c935198b74a6c555a5ad7a7df022068ce3eb7c2d27ae23a7d75da84727517597011d0a5139f5baa6ee3ac009da5b001", "029aedc9a0269af5477fb59d802f195b22f94ff798582dfd68b4c61c3a4b4a2c25"], "sequence": 4294967294, "scriptSig": {"hex": "1600142178926abada6cc43d2071596a927c1a3ca96b88", "asm": "00142178926abada6cc43d2071596a927c1a3ca96b88"}, "vout": 0, "txid": "0747990fecdeceb442af046e199b601df22aaa693a347703db2236e428bab158"}], "txid": "ca621935f97fe3669e5f0baa8a4389c8ad643752cd195ed4a2b9aefeffc3d743", "blocktime": 1537870928, "version": 2, "confirmations": 11512, "time": 1537870928, "locktime": 542990, "vsize": 166, "size": 248}