{"hash": "ca6651afcad278d0e367cd3054342068f14ff6d131bffe145d040281c1f13426", "blockhash": "0000000000000000000baef3f32e3676a92c3b2e5da21b426e4f302fc371ce76", "vout": [{"scriptPubKey": {"reqSigs": 1, "hex": "a914172d56ac03423faf208769010585b15601a0f47287", "addresses": ["33oZn8kKAzU7CHCvwf4RzRH12FSEZURgnP"], "asm": "OP_HASH160 172d56ac03423faf208769010585b15601a0f472 OP_EQUAL", "type": "scripthash"}, "value": 0.0016, "n": 0}, {"scriptPubKey": {"reqSigs": 1, "hex": "76a914e349bc52d6b8100b58d3fce45135a91c5c128a1d88ac", "addresses": ["1MiningDkXkhKaXBTMKXfLemnk1YY5rbkT"], "asm": "OP_DUP OP_HASH160 e349bc52d6b8100b58d3fce45135a91c5c128a1d OP_EQUALVERIFY OP_CHECKSIG", "type": "pubkeyhash"}, "value": 0.00192741, "n": 1}], "hex": "02000000018062026bc61826bec0e4ba1c1291d600419425631e0521072b05a31a69210450010000008b483045022100f02da204973148bec6074a0ad31220c9d0223fbb733c64e45d0c8715fd6fd6ce02206e765259d0d327dd2690614d89a1c67a3221739f891be3d1ca1116287408699e014104ae414abde7876c34e01694b38b2341d10b9b4c8db18a66262bd8df26bcb57893885c9fe8b79aa25330d5f05bb5aa9ab636a908a72e27956572b44190b22809beffffffff02007102000000000017a914172d56ac03423faf208769010585b15601a0f47287e5f00200000000001976a914e349bc52d6b8100b58d3fce45135a91c5c128a1d88ac00000000", "vin": [{"sequence": 4294967295, "scriptSig": {"hex": "483045022100f02da204973148bec6074a0ad31220c9d0223fbb733c64e45d0c8715fd6fd6ce02206e765259d0d327dd2690614d89a1c67a3221739f891be3d1ca1116287408699e014104ae414abde7876c34e01694b38b2341d10b9b4c8db18a66262bd8df26bcb57893885c9fe8b79aa25330d5f05bb5aa9ab636a908a72e27956572b44190b22809be", "asm": "3045022100f02da204973148bec6074a0ad31220c9d0223fbb733c64e45d0c8715fd6fd6ce02206e765259d0d327dd2690614d89a1c67a3221739f891be3d1ca1116287408699e[ALL] 04ae414abde7876c34e01694b38b2341d10b9b4c8db18a66262bd8df26bcb57893885c9fe8b79aa25330d5f05bb5aa9ab636a908a72e27956572b44190b22809be"}, "vout": 1, "txid": "500421691aa3052b0721051e6325944100d691121cbae4c0be2618c66b026280"}], "txid": "ca6651afcad278d0e367cd3054342068f14ff6d131bffe145d040281c1f13426", "blocktime": 1537876114, "version": 2, "confirmations": 11460, "time": 1537876114, "locktime": 0, "vsize": 256, "size": 256}