{"hash": "661ec7caa5dac27ee48d9df477a9a2522fc541830070c3b3c97a1df541f4fa0a", "blockhash": "00000000000000000017f5eb5941039fbcee6240d03bc1f2f8e35350df66a1d8", "vout": [{"scriptPubKey": {"reqSigs": 1, "hex": "a91473a08d4bae0d854fb3d04704add3fbfef58c623f87", "addresses": ["3CEPxwxSzyBB1GMUahHMqAVYDQgZFpmoj1"], "asm": "OP_HASH160 73a08d4bae0d854fb3d04704add3fbfef58c623f OP_EQUAL", "type": "scripthash"}, "value": 0.01167836, "n": 0}, {"scriptPubKey": {"reqSigs": 1, "hex": "0014e6b58da7372dfdb46833c3cfc07ffde932f77c80", "addresses": ["bc1qu66cmfeh9h7mg6pnc08uqllaaye0wlyqkxgxne"], "asm": "0 e6b58da7372dfdb46833c3cfc07ffde932f77c80", "type": "witness_v0_keyhash"}, "value": 0.59083098, "n": 1}], "hex": "01000000000101921e19a7ffcc7592a6f768455888fb95a9d8869b97c08838f219157b1ba8c4250100000000ffffffff02dcd111000000000017a91473a08d4bae0d854fb3d04704add3fbfef58c623f875a89850300000000160014e6b58da7372dfdb46833c3cfc07ffde932f77c800247304402201be94da8842bedb8b3d97f09a1d9e55d18200b3d957c556b3e9bb917e3216e65022017c239ea8b42862c3730c6cd1df84107a92d113edebd27ecb2d69b51054873e20121023ea972f2bc704822c51c43f0c8e5ac50e0812b3a1b97c8d307cc7f20b06c383500000000", "vin": [{"txinwitness": ["304402201be94da8842bedb8b3d97f09a1d9e55d18200b3d957c556b3e9bb917e3216e65022017c239ea8b42862c3730c6cd1df84107a92d113edebd27ecb2d69b51054873e201", "023ea972f2bc704822c51c43f0c8e5ac50e0812b3a1b97c8d307cc7f20b06c3835"], "sequence": 4294967295, "scriptSig": {"hex": "", "asm": ""}, "vout": 1, "txid": "25c4a81b7b1519f23888c0979b86d8a995fb88584568f7a69275ccffa7191e92"}], "txid": "ca6ca01e24c9131328c41638e15a2f183bd5278f750e1d2fbe97c50f34f76a24", "blocktime": 1537874412, "version": 1, "confirmations": 11467, "time": 1537874412, "locktime": 0, "vsize": 142, "size": 223}