{"hash": "e93012d7efc9c092af473d83cc668ef1bd993197a49427f0b2ae3a571b4a01a5", "blockhash": "00000000000000000017f5eb5941039fbcee6240d03bc1f2f8e35350df66a1d8", "vout": [{"scriptPubKey": {"reqSigs": 1, "hex": "76a91497be9e99a5dca5a0c56b30db86e2caf777ec2d7088ac", "addresses": ["1EqMPSjVhCjv8n4yo1gPZwrxTXuaG8y1Nf"], "asm": "OP_DUP OP_HASH160 97be9e99a5dca5a0c56b30db86e2caf777ec2d70 OP_EQUALVERIFY OP_CHECKSIG", "type": "pubkeyhash"}, "value": 0.005928, "n": 0}, {"scriptPubKey": {"reqSigs": 1, "hex": "0014b7a89d090beff184cf1fc7386b81e7e8d381de86", "addresses": ["bc1qk75f6zgtalccfnclcuuxhq08arfcrh5xvpylww"], "asm": "0 b7a89d090beff184cf1fc7386b81e7e8d381de86", "type": "witness_v0_keyhash"}, "value": 6.697e-05, "n": 1}], "hex": "0100000000010171db73b42627f24f45067e89501c21498d29ab22d6cdd993f0d7458f3cfe17c4090000001716001442e2388fa7b319f95fbe62f87be0863386804c83ffffffff02a00b0900000000001976a91497be9e99a5dca5a0c56b30db86e2caf777ec2d7088ac291a000000000000160014b7a89d090beff184cf1fc7386b81e7e8d381de860247304402204f0e7c4d54423212f2c7fc0050e3dee372bb758e8bdb250cfa7cbd9a864cdffd0220596ba282fefd343ef2698446adefec790d0672bb913e4d9863fee93c758e972601210308c4643a71b7636e070399ff701c2b3ea5ac08b8d8c0cb2591dd10a174c8096000000000", "vin": [{"txinwitness": ["304402204f0e7c4d54423212f2c7fc0050e3dee372bb758e8bdb250cfa7cbd9a864cdffd0220596ba282fefd343ef2698446adefec790d0672bb913e4d9863fee93c758e972601", "0308c4643a71b7636e070399ff701c2b3ea5ac08b8d8c0cb2591dd10a174c80960"], "sequence": 4294967295, "scriptSig": {"hex": "16001442e2388fa7b319f95fbe62f87be0863386804c83", "asm": "001442e2388fa7b319f95fbe62f87be0863386804c83"}, "vout": 9, "txid": "c417fe3c8f45d7f093d9cdd622ab298d49211c50897e06454ff22726b473db71"}], "txid": "ca6fee184f2fc8699d1882cc3cd44843af89a7d3c04ea23c71ac3365b9b6111b", "blocktime": 1537874412, "version": 1, "confirmations": 11468, "time": 1537874412, "locktime": 0, "vsize": 167, "size": 248}