{"hash": "307703a53c51f860309460474654eb06c66deaa39e851dbead976ea4b2abc675", "blockhash": "00000000000000000024a2167bbff67b0be802c0b01cdd79e6331c2be6459f87", "vout": [{"scriptPubKey": {"reqSigs": 1, "hex": "76a9145da3a9b8f6704bdec89150ffe355fccc7b4b55bb88ac", "addresses": ["19Y7uLuymWgk98uXvMUkBSAK4hGeyoCMgo"], "asm": "OP_DUP OP_HASH160 5da3a9b8f6704bdec89150ffe355fccc7b4b55bb OP_EQUALVERIFY OP_CHECKSIG", "type": "pubkeyhash"}, "value": 0.00077696, "n": 0}], "hex": "010000000001014e4f54fdcdfcd50b3af9d8c70824034a7868dfe76400d36e4a0003124b9c21d50100000000ffffffff01802f0100000000001976a9145da3a9b8f6704bdec89150ffe355fccc7b4b55bb88ac02483045022100f9d60be8cd2c3055117b78a7fbef73798f0410419cedc657251d730be6dcb9a0022042b0dbcd39da1240c469141c61f2588400762065e935982e6fcb1b5cc0f19aca012102ea198b48c5aeb9c445c06ca19e7e5d7cbe1102042cc3f6da8683282472956fdc00000000", "vin": [{"txinwitness": ["3045022100f9d60be8cd2c3055117b78a7fbef73798f0410419cedc657251d730be6dcb9a0022042b0dbcd39da1240c469141c61f2588400762065e935982e6fcb1b5cc0f19aca01", "02ea198b48c5aeb9c445c06ca19e7e5d7cbe1102042cc3f6da8683282472956fdc"], "sequence": 4294967295, "scriptSig": {"hex": "", "asm": ""}, "vout": 1, "txid": "d5219c4b1203004a6ed30064e7df68784a032408c7d8f93a0bd5fccdfd544f4e"}], "txid": "ca74459fc729ee9f9af94d48bdd33ee7efdcc67f0a873a04abdd4641d6a00934", "blocktime": 1537870564, "version": 1, "confirmations": 11515, "time": 1537870564, "locktime": 0, "vsize": 113, "size": 195}