{"hash": "ca7e3989210cca75582b92b83130bad95c8797fc93c28b2c812ff8627e6128d5", "blockhash": "0000000000000000000e13cef7c366c0283d82e591d1acd082e914b08063cdf1", "vout": [{"scriptPubKey": {"reqSigs": 1, "hex": "76a914168eb554d887e14a42f8cf83d38bfdcd9584f47088ac", "addresses": ["134GpmaWtVDBaLUGXMs8bis68yH913rap8"], "asm": "OP_DUP OP_HASH160 168eb554d887e14a42f8cf83d38bfdcd9584f470 OP_EQUALVERIFY OP_CHECKSIG", "type": "pubkeyhash"}, "value": 0.08428782, "n": 0}, {"scriptPubKey": {"reqSigs": 1, "hex": "a914aa6df8092285535b4d75ac808a262ba5762173a587", "addresses": ["3HEAXvjjFg4o8KojnfJ2jkDXkgwTaou3Zg"], "asm": "OP_HASH160 aa6df8092285535b4d75ac808a262ba5762173a5 OP_EQUAL", "type": "scripthash"}, "value": 0.2344054, "n": 1}], "hex": "010000000184e52e89eb5bced76b8ab3da14f105dc1b908e7996f07e06ba93b9d4125d14d8010000006b483045022100acbc7f787f557f6dac065719a4c4f45c4667a8326fb27a7fde21afafa46d60f802207ffc18b60836c9726cffc5d7470e84ad0772fe2eec049f3d9c33771750ab4bc3012103f59662ada08fa619349005e92744651fa4a0458b2a5b4c6298d480c511bd6afdffffffff02ee9c8000000000001976a914168eb554d887e14a42f8cf83d38bfdcd9584f47088ac9cac65010000000017a914aa6df8092285535b4d75ac808a262ba5762173a58700000000", "vin": [{"sequence": 4294967295, "scriptSig": {"hex": "483045022100acbc7f787f557f6dac065719a4c4f45c4667a8326fb27a7fde21afafa46d60f802207ffc18b60836c9726cffc5d7470e84ad0772fe2eec049f3d9c33771750ab4bc3012103f59662ada08fa619349005e92744651fa4a0458b2a5b4c6298d480c511bd6afd", "asm": "3045022100acbc7f787f557f6dac065719a4c4f45c4667a8326fb27a7fde21afafa46d60f802207ffc18b60836c9726cffc5d7470e84ad0772fe2eec049f3d9c33771750ab4bc3[ALL] 03f59662ada08fa619349005e92744651fa4a0458b2a5b4c6298d480c511bd6afd"}, "vout": 1, "txid": "d8145d12d4b993ba067ef096798e901bdc05f114dab38a6bd7ce5beb892ee584"}], "txid": "ca7e3989210cca75582b92b83130bad95c8797fc93c28b2c812ff8627e6128d5", "blocktime": 1537871767, "version": 1, "confirmations": 11495, "time": 1537871767, "locktime": 0, "vsize": 224, "size": 224}