{"hash": "c6473b12d5449bc8197c14837fc8e26378fec4af3a18ced8a8db1ea1c5870653", "blockhash": "0000000000000000001f0ddff1eddb255c1121bcd4da4f1bc9a0da00cae72433", "vout": [{"scriptPubKey": {"reqSigs": 1, "hex": "a914700842fda14294fc12b4ccfc56b407b935ab2a5887", "addresses": ["3BuPW4Tsr13LV952R5S2zinzh3AwP1sA9K"], "asm": "OP_HASH160 700842fda14294fc12b4ccfc56b407b935ab2a58 OP_EQUAL", "type": "scripthash"}, "value": 0.00145338, "n": 0}, {"scriptPubKey": {"reqSigs": 1, "hex": "a914b7020e0e7533f602bd1ab69beaa68329cf0b17fe87", "addresses": ["3JNg3Rg81nNZSZVGyoxkqRyC9aZHmFS8Va"], "asm": "OP_HASH160 b7020e0e7533f602bd1ab69beaa68329cf0b17fe OP_EQUAL", "type": "scripthash"}, "value": 0.01785188, "n": 1}], "hex": "02000000000101cb85168aef34132e63cdf62e81816017f7d70effa454dac7b48c22fbaac6043300000000171600140c8e1de8711faf238c0dd2ee069edcb68431189efeffffff02ba3702000000000017a914700842fda14294fc12b4ccfc56b407b935ab2a5887643d1b000000000017a914b7020e0e7533f602bd1ab69beaa68329cf0b17fe8702483045022100af503fcb27d0f97f2018beea1b33a18a0d0839bb19599411a491f07f69379160022028fb01185d05c52c5cd59f3265104e7c2926c15f194b66575989b76e3f1923590121023aae5ed9e2dbd9cf47256fe8b119812aad81c62999f24768e0cfd2c04a23e10b11490800", "vin": [{"txinwitness": ["3045022100af503fcb27d0f97f2018beea1b33a18a0d0839bb19599411a491f07f69379160022028fb01185d05c52c5cd59f3265104e7c2926c15f194b66575989b76e3f19235901", "023aae5ed9e2dbd9cf47256fe8b119812aad81c62999f24768e0cfd2c04a23e10b"], "sequence": 4294967294, "scriptSig": {"hex": "1600140c8e1de8711faf238c0dd2ee069edcb68431189e", "asm": "00140c8e1de8711faf238c0dd2ee069edcb68431189e"}, "vout": 0, "txid": "3304c6aafb228cb4c7da54a4ff0ed7f7176081812ef6cd632e1334ef8a1685cb"}], "txid": "ca825912017ca673b82c6be351b84de10e809a44e19bd271f4ac62ecb61c872b", "blocktime": 1537872018, "version": 2, "confirmations": 11489, "time": 1537872018, "locktime": 542993, "vsize": 166, "size": 248}