{"hash": "0c478947ab815cb7c0733989c5fa8990c50770a5e26db1dff6f10d9f428bfa35", "blockhash": "0000000000000000001e0dab787dd257d1dbfcb92a98c2207d5e1078be1f4165", "vout": [{"scriptPubKey": {"reqSigs": 1, "hex": "001474588192e86f3fae65f07f88b41adc5f296e27f0", "addresses": ["bc1qw3vgryhgdul6ue0s07ytgxkutu5kuflsumgg20"], "asm": "0 74588192e86f3fae65f07f88b41adc5f296e27f0", "type": "witness_v0_keyhash"}, "value": 1.936e-05, "n": 0}, {"scriptPubKey": {"reqSigs": 1, "hex": "76a914bbc7449a3bd4dc9685863bae6f598b485cfaa52488ac", "addresses": ["1J7t5FjygCCaFqDEvmHvai9fTXBedDspUx"], "asm": "OP_DUP OP_HASH160 bbc7449a3bd4dc9685863bae6f598b485cfaa524 OP_EQUALVERIFY OP_CHECKSIG", "type": "pubkeyhash"}, "value": 0.0023423, "n": 1}], "hex": "010000000001019e5eeedc749202de5a0e1e4755e1a9f19af1e6a552637ea3004d804ded71ebd610000000171600145b79d50d868fad373e5dd865b63e13e639252d1dffffffff02900700000000000016001474588192e86f3fae65f07f88b41adc5f296e27f0f6920300000000001976a914bbc7449a3bd4dc9685863bae6f598b485cfaa52488ac024730440220232d51873c594c32e24eb0d86738bd655d117ba99a67801e462267244324171e02207e5c0029bbe9bd5cba7af84f514b4e88a406870b0b463dec3b8abe7eb7b2b503012102a1629353241b643a3db6c98fba42202ec55a8aa90fc6ba712241ca934fce5c6600000000", "vin": [{"txinwitness": ["30440220232d51873c594c32e24eb0d86738bd655d117ba99a67801e462267244324171e02207e5c0029bbe9bd5cba7af84f514b4e88a406870b0b463dec3b8abe7eb7b2b50301", "02a1629353241b643a3db6c98fba42202ec55a8aa90fc6ba712241ca934fce5c66"], "sequence": 4294967295, "scriptSig": {"hex": "1600145b79d50d868fad373e5dd865b63e13e639252d1d", "asm": "00145b79d50d868fad373e5dd865b63e13e639252d1d"}, "vout": 16, "txid": "d6eb71ed4d804d00a37e6352a5e6f19af1a9e155471e0e5ade029274dcee5e9e"}], "txid": "ca8dd2eb5bd22656ddd7430538e3cc388eb73300741157a75b901762f9d09e47", "blocktime": 1537872475, "version": 1, "confirmations": 11487, "time": 1537872475, "locktime": 0, "vsize": 167, "size": 248}