{"hash": "90813a43c9f9294df539dd977439b295c0e825a34e042222a7553ae3902c0d14", "blockhash": "0000000000000000000dcc0f55137456b1a82d3642486a52398922ac4d620174", "vout": [{"scriptPubKey": {"reqSigs": 1, "hex": "76a914fd5a438f52d34a1ed93131901a75129d91c73d3088ac", "addresses": ["1Q6c6BPsdMVD8wrUHQpmTEYRVw15YNdUMa"], "asm": "OP_DUP OP_HASH160 fd5a438f52d34a1ed93131901a75129d91c73d30 OP_EQUALVERIFY OP_CHECKSIG", "type": "pubkeyhash"}, "value": 0.001564, "n": 0}, {"scriptPubKey": {"reqSigs": 1, "hex": "a9148092c7927d5e7053eaf67d7dfe71f4c190461e3087", "addresses": ["3DQrFXEDdSfVV4S6rvuvQ1wtw1eUKd18Hy"], "asm": "OP_HASH160 8092c7927d5e7053eaf67d7dfe71f4c190461e30 OP_EQUAL", "type": "scripthash"}, "value": 0.008, "n": 1}, {"scriptPubKey": {"reqSigs": 1, "hex": "a914f5cdac612aca8c43df3e0b0791b138689bf4efd987", "addresses": ["3Q6hryeyw3wLHDZLdVFZFVGAwhsMUNbLik"], "asm": "OP_HASH160 f5cdac612aca8c43df3e0b0791b138689bf4efd9 OP_EQUAL", "type": "scripthash"}, "value": 0.00027276, "n": 2}, {"scriptPubKey": {"reqSigs": 1, "hex": "a914fac9e088458c2845066a285df23578d9b33a401f87", "addresses": ["3QZ4hAd9i7Rmw5oAh3N1w23TaZ4ZkSzPnx"], "asm": "OP_HASH160 fac9e088458c2845066a285df23578d9b33a401f OP_EQUAL", "type": "scripthash"}, "value": 0.0003, "n": 3}, {"scriptPubKey": {"reqSigs": 1, "hex": "a9146cdda16b03f74ed43380a4511d1838858882759187", "addresses": ["3BceQRPPpEWFUDGNhAYrfZykQgy2W63ZJg"], "asm": "OP_HASH160 6cdda16b03f74ed43380a4511d18388588827591 OP_EQUAL", "type": "scripthash"}, "value": 0.00012, "n": 4}, {"scriptPubKey": {"reqSigs": 1, "hex": "76a9148bbd8c76c89d5681d69de838a883ec5a0c9d085b88ac", "addresses": ["1Djszjp3XjxjZRy8pMERQd9R6vptEjAXJv"], "asm": "OP_DUP OP_HASH160 8bbd8c76c89d5681d69de838a883ec5a0c9d085b OP_EQUALVERIFY OP_CHECKSIG", "type": "pubkeyhash"}, "value": 0.00282744, "n": 5}, {"scriptPubKey": {"reqSigs": 1, "hex": "76a914a580117bc8581c0731c36ca4795bbe5c5022184288ac", "addresses": ["1G65uzbycfTWxKHyGqWSMFQ9N5axa8gCWF"], "asm": "OP_DUP OP_HASH160 a580117bc8581c0731c36ca4795bbe5c50221842 OP_EQUALVERIFY OP_CHECKSIG", "type": "pubkeyhash"}, "value": 3e-05, "n": 6}, {"scriptPubKey": {"reqSigs": 1, "hex": "a914c869260a0b0a2e8921cc7c7ac36ae8ba58e4dfdd87", "addresses": ["3Kxh2m9daUu7A3rzqizc6JnZYiDVZnrUhm"], "asm": "OP_HASH160 c869260a0b0a2e8921cc7c7ac36ae8ba58e4dfdd OP_EQUAL", "type": "scripthash"}, "value": 0.00225, "n": 7}, {"scriptPubKey": {"reqSigs": 1, "hex": "76a914c25df514cee2d65dd905eb848b591a30503b0a8288ac", "addresses": ["1JiieVCP1UoYZYHEEgp42Rex5A1EeLNxVX"], "asm": "OP_DUP OP_HASH160 c25df514cee2d65dd905eb848b591a30503b0a82 OP_EQUALVERIFY OP_CHECKSIG", "type": "pubkeyhash"}, "value": 0.0001, "n": 8}, {"scriptPubKey": {"reqSigs": 1, "hex": "76a91440a15c83b4295d75ffe21dd02414e71d0d03f99388ac", "addresses": ["16tjYs38taUV7a2k8Zy8TVkFtasoG2b56Y"], "asm": "OP_DUP OP_HASH160 40a15c83b4295d75ffe21dd02414e71d0d03f993 OP_EQUALVERIFY OP_CHECKSIG", "type": "pubkeyhash"}, "value": 0.00467209, "n": 9}, {"scriptPubKey": {"reqSigs": 1, "hex": "a914e1c35ef53f7ffd49b12f15efb31df75eb8b6eaab87", "addresses": ["3NGk1KGWYAHa8LwHfAGBT8n36ZQNqGwBL6"], "asm": "OP_HASH160 e1c35ef53f7ffd49b12f15efb31df75eb8b6eaab OP_EQUAL", "type": "scripthash"}, "value": 0.0019, "n": 10}, {"scriptPubKey": {"reqSigs": 1, "hex": "a914f07a05d9c9a0a418d0084b74c33cd874eb5aa71787", "addresses": ["3PcYGsyH18BBZ4nyhq9kVJX2g2UpnVVfBW"], "asm": "OP_HASH160 f07a05d9c9a0a418d0084b74c33cd874eb5aa717 OP_EQUAL", "type": "scripthash"}, "value": 0.00014138, "n": 11}], "hex": "0100000000010b0d96d436c9dfe4ccab22a26f2b3a330901add24cac144e3a5da6a940363ab5180400000023220020be327ed03efe0456207ebe3e0108b0a88cab89084eb75e35fdfba5b0386eb018ffffffff35520b2ac6c370b277617d72943daa0971ceffc7130548e3c14696d126e6a73e000000002322002018d9a6ac258c1c976a26e6fbc80a79332ec909d380d6d3414311cf1a07935f23ffffffff0d96d436c9dfe4ccab22a26f2b3a330901add24cac144e3a5da6a940363ab51805000000fc004730440220412a7f347b523715401dca41f26666bc312229daa73dd1234e8f27784ec1b3e902201c6eb060fa806fad0e4e659a304316ded61c85c1da506fad645fd90c0a6be1ad0147304402206b4d4cc5bd0c6b42325241c14ac8830b5e084ad64e6dac3792272e5d4a779dae02204e8b65cc0395d7cbeae153a9266ce190665020673e10cc8d76673f8f741c28e8014c695221025efab1f89b2da8068df635d47b29bac6c8d8dd0cbea559f7ff587925f9e5e254210275a66c2143603af096f8dccef64d053b5a1cda6c5cbb668086e9e91abf32c9b82103d191d6cd0bff2ced45204adaf96b9fa6386f072c462cdb7a4a20c914a365911c53aeffffffffbd6485e64168fb730e7bed035356d4f1816121cd63195605af7ce1323734e79c00000000232200207949951339232df82d57ad0655a4ba02d3d0a3f06751ff7c194dc8c12a896e12ffffffff6a05287d81fcacf0c3d9dfafd3b1f8d05593ea3a47704b453c74f0780f12098801000000fc00473044022032eef5b62180736e0c33b8d368f061168a1a05f3247f3b668c15554a8b06859302205c956f95ffed684336cb39da6548d40ab2934c8ddb5ad0f955b619dcd9c371d8014730440220326cfd5ffa919c23b95f69eb64aacaf5eb7f0fb444bf30b21d6d417190580a2d02201073e846c293ae04485e4399da1e36c775c8a8545e27e30f7139923e1b6dcf6e014c695221036116346aeb3500d133ac5ba9309401a83dd2931af54cb790feedf241b43829be2102c43cf1f8dda25309459389fe14dffdff87429e758e3078fa19b928fb35f955472103e5a79bb075e47929711d2824af315a56557371b778ceccb199dc8b934e125a3653aeffffffff0cbea4d2a8154acc6f615ab51e33bbc623c5faa1c16c0e898e21a2ae18e459850000000023220020c6a243235697c2b1767af4fc94ee2e3d1c0ffac7d03486ae7bc50cb6f8c5d111ffffffff88316175deb391d2096f6253ed56a5d4fb0928db1e854c650dd9aa794b2e0ca501000000fdfe0000483045022100ab32d9ba79214fbe6f22ad9a39e5b23289c17b06bc5776906421a1a8a23d52cd022063d14536078e3a23378f2db6c536426ccc8df4d5125f0148cb6c1470073acdb90148304502210082a74f5f6bd347cbca8b8f4c4b44ea3ef0145ecd70e5ede685afedb1ff8d9cdc022064f27c56f2da65211e1dbe85c66acbedc3053258da4b0221dbea98704c67b1ce014c695221036116346aeb3500d133ac5ba9309401a83dd2931af54cb790feedf241b43829be2102c43cf1f8dda25309459389fe14dffdff87429e758e3078fa19b928fb35f955472103e5a79bb075e47929711d2824af315a56557371b778ceccb199dc8b934e125a3653aeffffffff7482478cb358d287320f1e7e8f7edd1d2c1f9fba4812250c0af4114b4a314bda00000000fc0047304402203bd12dcebc4f8fd650a8b215e6c48c6a4eb22998822f401a59b36594ba75086102207294e021c39fa8cbf957a77fe89f4537b73830be7b5e4c83e88b4fe065f0c35d01473044022006219ce08a8a430959633af08318d9264a19cc038be3b81b4a51f5998ead40cd022009171f00669a8815b3556ce180889968c1cbc55d8319d59861f3bd52b4bed06f014c6952210386eb3e8a9b160e962466195b21f8259e7ebaf3ea80dfea365587866735108f1721023114f34eb66f01505a7897695c653e22a5fb84dbb07771013fb389d02ef0acb521024b9acb86815a6e18df5cbd159724861b3508f970771f79dcd9f60a940030d48153aeffffffff53848ede589eade9f18c195a04d7953030bc22cbac9c1681bd791ab96b8bca6bb5000000fdfd0000483045022100b6ca68967720b19d7c6bb70dee83e0c3ee101f1e9efa5c34bb3391cf9a35f70e02204ecdf78335579daa17fb9b1e94f6aff90ff92215535a9f31752e21392ecc9c0c0147304402204e6b2d4a94765fde90fb113a98c50a8f01f75046dba23d7fc99471d87c461eb202200dace251a10b2d0ef1e99b48a2bbbebdd28acc96b7621a7b7b2ea0050c86eb63014c695221035dd174acf363fa92d34972ab03b4807307359573e741a05288f4d99acdf9b2ff2103a5ad7c6e80f3fb3a5bdc2fa4419b90b90116fbb8819891974fd4ee53b33707d32102b2529c3ed8638587fb237c1161263b9e6bc92c1d123abd56b5517397a4d9299d53aeffffffff555295a6cc10dd3a7bbdf8cd6413818fba94280f391e0347ef8c4d4f5f41faa30000000023220020bd45960686225d17f78f7a5ba65f547a3441954c30f59b658fe84cbf9d99ebbdffffffff65cf1f41d1766a1d8d50c82caa1e27e1c7dc0147a6ca593e9a143744b1558e930100000023220020531c7cc4022a5c03ccbddf265e49150439fb06a256d45a72e467a384301150a5ffffffff0cf0620200000000001976a914fd5a438f52d34a1ed93131901a75129d91c73d3088ac00350c000000000017a9148092c7927d5e7053eaf67d7dfe71f4c190461e30878c6a00000000000017a914f5cdac612aca8c43df3e0b0791b138689bf4efd987307500000000000017a914fac9e088458c2845066a285df23578d9b33a401f87e02e00000000000017a9146cdda16b03f74ed43380a4511d183885888275918778500400000000001976a9148bbd8c76c89d5681d69de838a883ec5a0c9d085b88acb80b0000000000001976a914a580117bc8581c0731c36ca4795bbe5c5022184288ace86e03000000000017a914c869260a0b0a2e8921cc7c7ac36ae8ba58e4dfdd8710270000000000001976a914c25df514cee2d65dd905eb848b591a30503b0a8288ac09210700000000001976a91440a15c83b4295d75ffe21dd02414e71d0d03f99388ac30e602000000000017a914e1c35ef53f7ffd49b12f15efb31df75eb8b6eaab873a3700000000000017a914f07a05d9c9a0a418d0084b74c33cd874eb5aa717870400483045022100ecfd2362f76ffaea668ebd8cafb6d3fcfbb7d10136402229b80f2ce3373ed24b02203fefc1a50d58539aa5d5deccdb2deea69ddc1a1f5461aa0a4e833956e01139930147304402205b08d45321b4f80b21017e8d65d0754d35eee23c106cfe4235ca9e857d20099502206584c59f6731b1a6959273df74e54a77fb91a396a5b04a873d2847b9fa4d8c0001695221034a9ef0fda7942ed1715bbaa56991b52bda1262a19227ed9e2a1fcfa183f796112103525ec8380e651946ada55b611aefc38e46f3c576cc069e31210acfc7eb5301382102206a4a7cf172c0a5360355834301591215f99b9c022b35363e8147311634908c53ae040047304402205b98026691a3a07110c93ed0daa8144dbe03c54f210412be51d939d80ae9198e02205849f1942b65191fe7d0d8e91b0bc6d9eb45ced06a3d893d075f5bd65068626301483045022100c1922527ba2aff46f027cf4a00d24a0a2c9bdd33c3f83b64560875cdb432c704022054eb3cb632cc9724d6d2de1abb443bd806da0b36ad12cb4bc4ffd16b2b7b6d460169522102a8f29d7f9a21d7f5e7dc84ff0547ed73b9345184bc0f7313f48e5a200c2f93d02102f17a97cb66c2a3ecdad1eb6ed813db9ae95d5251d849af2a764f7644147b20712103ab67f658793c31bfcb0326bfb229ef77fc033f57ff7390fc9593743c4fd7db5953ae00040047304402204c9e4f3942ea8010100c4c9a44e62d9f05dc8d79a23b2222f8e364b53dacce51022075fb1561fc0e9a84ba62fb0597210789eeb75459a3a7bf78b4f2cfd61e4aa8bf01483045022100ad93de971dec3eae5dc5fc11bcd7540b5086ade5262c5e9fcaddb76bc4ad870d022053361a2556e50dce13b5a4202f306a59b60c398a30e762f65957bedc707faaf601695221037ffc4e30ec622ab02e7706d2531f3093700afffade8607fa075849c36f6d5a4221024bd4c60bbc8632ef6b58bf9d4f297ca773c54db312626ab596bafddaa72851282103702405a8be3b47723ff21cda5533d86f9bc129a55fa748b486e2a978e04e063f53ae000400483045022100d995a00664955875019424a8a7f2f9a042ce58e6bfd2d5228f58b9a2cb05417802206e803cb75e0fe77fec3ad32b0fe4935091e699a11c3d733573f845671fa6ef680147304402200e450aa60d7272d8b5b7af1d7ba449ef8a485def8ddda85d99049bde7f493df3022061e12fa02f2c56a7995e48e9f0311f6bdcc9d8d71b11d5bfb2cb219835a900660169522102f19a279f43a544719b95322d7894a7d233caed2d2f79bb06ae4933af24c9c63521027b5b0e6028ff9b78005bd9cb6b26c8def2efddbbf073a9b6630f30d33239da442102b496c6afc0423f158c0e1b32f9fdc10b37e97735bb3d371eae5b8ca2e56b3de053ae0000000400483045022100fd84f7dd74b566e955637c173aef267987144a8a1d83ea2e8bf3dcd8ad20a21302201d22e5ae847dd7dd78fa5969168d91e0b7853d7e13a16b10b7d49c8f4edcdea00147304402204358f57cfccc0004c5fe84a7bdeea92166444879d5ed3b6e0a11bd01daf866ce02200402d367f40ba68c43ba9b413ee5487be8e6dfb3ebd591037d38ed11dd09225101695221026d1060fe39b2b548dc71ccf59bbc7eb74af18f62d52aa0c2ceba05041cd5780b2103c29bdfd76281fc6be55fceb4b7c425eecdb751c14a7659aa8215231adb01ce6a21028e239d9fad06e303c2f60380ea3db369d3f346c944ea70e4ce18bea7b905d72753ae04004830450221008e0799eebaf62a5871595b34e03e8229adb511c6aae430aeae43eaa62930629f02202ee74f2853e20aadd82956140aa4501ded834122a70da5fd116334b4e27402f301473044022011bdb016e1911ec26a9717fec34d262c4772031892b9b576a7aa54960fe3e8af02201dcea7fea9da56d7e0b5bbb2faad5819fd1f9b7fa60601751f249c02d9181cba01695221035dc4b1c24c7909b5831b25b2055f6b5f6caf006f03c64da7719eb009a3612f0f2103d15d22ef84b026cd1514e76de781a2c575fee55736e445a7fda1e8538135f3b9210270b017fae426a4b587a1f155f0fe13b58651468abb63786cf3216543d5cb6b4353ae00000000", "vin": [{"txinwitness": ["", "3045022100ecfd2362f76ffaea668ebd8cafb6d3fcfbb7d10136402229b80f2ce3373ed24b02203fefc1a50d58539aa5d5deccdb2deea69ddc1a1f5461aa0a4e833956e011399301", "304402205b08d45321b4f80b21017e8d65d0754d35eee23c106cfe4235ca9e857d20099502206584c59f6731b1a6959273df74e54a77fb91a396a5b04a873d2847b9fa4d8c0001", "5221034a9ef0fda7942ed1715bbaa56991b52bda1262a19227ed9e2a1fcfa183f796112103525ec8380e651946ada55b611aefc38e46f3c576cc069e31210acfc7eb5301382102206a4a7cf172c0a5360355834301591215f99b9c022b35363e8147311634908c53ae"], "sequence": 4294967295, "scriptSig": {"hex": "220020be327ed03efe0456207ebe3e0108b0a88cab89084eb75e35fdfba5b0386eb018", "asm": "0020be327ed03efe0456207ebe3e0108b0a88cab89084eb75e35fdfba5b0386eb018"}, "vout": 4, "txid": "18b53a3640a9a65d3a4e14ac4cd2ad0109333a2b6fa222abcce4dfc936d4960d"}, {"txinwitness": ["", "304402205b98026691a3a07110c93ed0daa8144dbe03c54f210412be51d939d80ae9198e02205849f1942b65191fe7d0d8e91b0bc6d9eb45ced06a3d893d075f5bd65068626301", "3045022100c1922527ba2aff46f027cf4a00d24a0a2c9bdd33c3f83b64560875cdb432c704022054eb3cb632cc9724d6d2de1abb443bd806da0b36ad12cb4bc4ffd16b2b7b6d4601", "522102a8f29d7f9a21d7f5e7dc84ff0547ed73b9345184bc0f7313f48e5a200c2f93d02102f17a97cb66c2a3ecdad1eb6ed813db9ae95d5251d849af2a764f7644147b20712103ab67f658793c31bfcb0326bfb229ef77fc033f57ff7390fc9593743c4fd7db5953ae"], "sequence": 4294967295, "scriptSig": {"hex": "22002018d9a6ac258c1c976a26e6fbc80a79332ec909d380d6d3414311cf1a07935f23", "asm": "002018d9a6ac258c1c976a26e6fbc80a79332ec909d380d6d3414311cf1a07935f23"}, "vout": 0, "txid": "3ea7e626d19646c1e3480513c7ffce7109aa3d94727d6177b270c3c62a0b5235"}, {"sequence": 4294967295, "scriptSig": {"hex": "004730440220412a7f347b523715401dca41f26666bc312229daa73dd1234e8f27784ec1b3e902201c6eb060fa806fad0e4e659a304316ded61c85c1da506fad645fd90c0a6be1ad0147304402206b4d4cc5bd0c6b42325241c14ac8830b5e084ad64e6dac3792272e5d4a779dae02204e8b65cc0395d7cbeae153a9266ce190665020673e10cc8d76673f8f741c28e8014c695221025efab1f89b2da8068df635d47b29bac6c8d8dd0cbea559f7ff587925f9e5e254210275a66c2143603af096f8dccef64d053b5a1cda6c5cbb668086e9e91abf32c9b82103d191d6cd0bff2ced45204adaf96b9fa6386f072c462cdb7a4a20c914a365911c53ae", "asm": "0 30440220412a7f347b523715401dca41f26666bc312229daa73dd1234e8f27784ec1b3e902201c6eb060fa806fad0e4e659a304316ded61c85c1da506fad645fd90c0a6be1ad[ALL] 304402206b4d4cc5bd0c6b42325241c14ac8830b5e084ad64e6dac3792272e5d4a779dae02204e8b65cc0395d7cbeae153a9266ce190665020673e10cc8d76673f8f741c28e8[ALL] 5221025efab1f89b2da8068df635d47b29bac6c8d8dd0cbea559f7ff587925f9e5e254210275a66c2143603af096f8dccef64d053b5a1cda6c5cbb668086e9e91abf32c9b82103d191d6cd0bff2ced45204adaf96b9fa6386f072c462cdb7a4a20c914a365911c53ae"}, "vout": 5, "txid": "18b53a3640a9a65d3a4e14ac4cd2ad0109333a2b6fa222abcce4dfc936d4960d"}, {"txinwitness": ["", "304402204c9e4f3942ea8010100c4c9a44e62d9f05dc8d79a23b2222f8e364b53dacce51022075fb1561fc0e9a84ba62fb0597210789eeb75459a3a7bf78b4f2cfd61e4aa8bf01", "3045022100ad93de971dec3eae5dc5fc11bcd7540b5086ade5262c5e9fcaddb76bc4ad870d022053361a2556e50dce13b5a4202f306a59b60c398a30e762f65957bedc707faaf601", "5221037ffc4e30ec622ab02e7706d2531f3093700afffade8607fa075849c36f6d5a4221024bd4c60bbc8632ef6b58bf9d4f297ca773c54db312626ab596bafddaa72851282103702405a8be3b47723ff21cda5533d86f9bc129a55fa748b486e2a978e04e063f53ae"], "sequence": 4294967295, "scriptSig": {"hex": "2200207949951339232df82d57ad0655a4ba02d3d0a3f06751ff7c194dc8c12a896e12", "asm": "00207949951339232df82d57ad0655a4ba02d3d0a3f06751ff7c194dc8c12a896e12"}, "vout": 0, "txid": "9ce7343732e17caf05561963cd216181f1d4565303ed7b0e73fb6841e68564bd"}, {"sequence": 4294967295, "scriptSig": {"hex": "00473044022032eef5b62180736e0c33b8d368f061168a1a05f3247f3b668c15554a8b06859302205c956f95ffed684336cb39da6548d40ab2934c8ddb5ad0f955b619dcd9c371d8014730440220326cfd5ffa919c23b95f69eb64aacaf5eb7f0fb444bf30b21d6d417190580a2d02201073e846c293ae04485e4399da1e36c775c8a8545e27e30f7139923e1b6dcf6e014c695221036116346aeb3500d133ac5ba9309401a83dd2931af54cb790feedf241b43829be2102c43cf1f8dda25309459389fe14dffdff87429e758e3078fa19b928fb35f955472103e5a79bb075e47929711d2824af315a56557371b778ceccb199dc8b934e125a3653ae", "asm": "0 3044022032eef5b62180736e0c33b8d368f061168a1a05f3247f3b668c15554a8b06859302205c956f95ffed684336cb39da6548d40ab2934c8ddb5ad0f955b619dcd9c371d8[ALL] 30440220326cfd5ffa919c23b95f69eb64aacaf5eb7f0fb444bf30b21d6d417190580a2d02201073e846c293ae04485e4399da1e36c775c8a8545e27e30f7139923e1b6dcf6e[ALL] 5221036116346aeb3500d133ac5ba9309401a83dd2931af54cb790feedf241b43829be2102c43cf1f8dda25309459389fe14dffdff87429e758e3078fa19b928fb35f955472103e5a79bb075e47929711d2824af315a56557371b778ceccb199dc8b934e125a3653ae"}, "vout": 1, "txid": "8809120f78f0743c454b70473aea9355d0f8b1d3afdfd9c3f0acfc817d28056a"}, {"txinwitness": ["", "3045022100d995a00664955875019424a8a7f2f9a042ce58e6bfd2d5228f58b9a2cb05417802206e803cb75e0fe77fec3ad32b0fe4935091e699a11c3d733573f845671fa6ef6801", "304402200e450aa60d7272d8b5b7af1d7ba449ef8a485def8ddda85d99049bde7f493df3022061e12fa02f2c56a7995e48e9f0311f6bdcc9d8d71b11d5bfb2cb219835a9006601", "522102f19a279f43a544719b95322d7894a7d233caed2d2f79bb06ae4933af24c9c63521027b5b0e6028ff9b78005bd9cb6b26c8def2efddbbf073a9b6630f30d33239da442102b496c6afc0423f158c0e1b32f9fdc10b37e97735bb3d371eae5b8ca2e56b3de053ae"], "sequence": 4294967295, "scriptSig": {"hex": "220020c6a243235697c2b1767af4fc94ee2e3d1c0ffac7d03486ae7bc50cb6f8c5d111", "asm": "0020c6a243235697c2b1767af4fc94ee2e3d1c0ffac7d03486ae7bc50cb6f8c5d111"}, "vout": 0, "txid": "8559e418aea2218e890e6cc1a1fac523c6bb331eb55a616fcc4a15a8d2a4be0c"}, {"sequence": 4294967295, "scriptSig": {"hex": "00483045022100ab32d9ba79214fbe6f22ad9a39e5b23289c17b06bc5776906421a1a8a23d52cd022063d14536078e3a23378f2db6c536426ccc8df4d5125f0148cb6c1470073acdb90148304502210082a74f5f6bd347cbca8b8f4c4b44ea3ef0145ecd70e5ede685afedb1ff8d9cdc022064f27c56f2da65211e1dbe85c66acbedc3053258da4b0221dbea98704c67b1ce014c695221036116346aeb3500d133ac5ba9309401a83dd2931af54cb790feedf241b43829be2102c43cf1f8dda25309459389fe14dffdff87429e758e3078fa19b928fb35f955472103e5a79bb075e47929711d2824af315a56557371b778ceccb199dc8b934e125a3653ae", "asm": "0 3045022100ab32d9ba79214fbe6f22ad9a39e5b23289c17b06bc5776906421a1a8a23d52cd022063d14536078e3a23378f2db6c536426ccc8df4d5125f0148cb6c1470073acdb9[ALL] 304502210082a74f5f6bd347cbca8b8f4c4b44ea3ef0145ecd70e5ede685afedb1ff8d9cdc022064f27c56f2da65211e1dbe85c66acbedc3053258da4b0221dbea98704c67b1ce[ALL] 5221036116346aeb3500d133ac5ba9309401a83dd2931af54cb790feedf241b43829be2102c43cf1f8dda25309459389fe14dffdff87429e758e3078fa19b928fb35f955472103e5a79bb075e47929711d2824af315a56557371b778ceccb199dc8b934e125a3653ae"}, "vout": 1, "txid": "a50c2e4b79aad90d654c851edb2809fbd4a556ed53626f09d291b3de75613188"}, {"sequence": 4294967295, "scriptSig": {"hex": "0047304402203bd12dcebc4f8fd650a8b215e6c48c6a4eb22998822f401a59b36594ba75086102207294e021c39fa8cbf957a77fe89f4537b73830be7b5e4c83e88b4fe065f0c35d01473044022006219ce08a8a430959633af08318d9264a19cc038be3b81b4a51f5998ead40cd022009171f00669a8815b3556ce180889968c1cbc55d8319d59861f3bd52b4bed06f014c6952210386eb3e8a9b160e962466195b21f8259e7ebaf3ea80dfea365587866735108f1721023114f34eb66f01505a7897695c653e22a5fb84dbb07771013fb389d02ef0acb521024b9acb86815a6e18df5cbd159724861b3508f970771f79dcd9f60a940030d48153ae", "asm": "0 304402203bd12dcebc4f8fd650a8b215e6c48c6a4eb22998822f401a59b36594ba75086102207294e021c39fa8cbf957a77fe89f4537b73830be7b5e4c83e88b4fe065f0c35d[ALL] 3044022006219ce08a8a430959633af08318d9264a19cc038be3b81b4a51f5998ead40cd022009171f00669a8815b3556ce180889968c1cbc55d8319d59861f3bd52b4bed06f[ALL] 52210386eb3e8a9b160e962466195b21f8259e7ebaf3ea80dfea365587866735108f1721023114f34eb66f01505a7897695c653e22a5fb84dbb07771013fb389d02ef0acb521024b9acb86815a6e18df5cbd159724861b3508f970771f79dcd9f60a940030d48153ae"}, "vout": 0, "txid": "da4b314a4b11f40a0c251248ba9f1f2c1ddd7e8f7e1e0f3287d258b38c478274"}, {"sequence": 4294967295, "scriptSig": {"hex": "00483045022100b6ca68967720b19d7c6bb70dee83e0c3ee101f1e9efa5c34bb3391cf9a35f70e02204ecdf78335579daa17fb9b1e94f6aff90ff92215535a9f31752e21392ecc9c0c0147304402204e6b2d4a94765fde90fb113a98c50a8f01f75046dba23d7fc99471d87c461eb202200dace251a10b2d0ef1e99b48a2bbbebdd28acc96b7621a7b7b2ea0050c86eb63014c695221035dd174acf363fa92d34972ab03b4807307359573e741a05288f4d99acdf9b2ff2103a5ad7c6e80f3fb3a5bdc2fa4419b90b90116fbb8819891974fd4ee53b33707d32102b2529c3ed8638587fb237c1161263b9e6bc92c1d123abd56b5517397a4d9299d53ae", "asm": "0 3045022100b6ca68967720b19d7c6bb70dee83e0c3ee101f1e9efa5c34bb3391cf9a35f70e02204ecdf78335579daa17fb9b1e94f6aff90ff92215535a9f31752e21392ecc9c0c[ALL] 304402204e6b2d4a94765fde90fb113a98c50a8f01f75046dba23d7fc99471d87c461eb202200dace251a10b2d0ef1e99b48a2bbbebdd28acc96b7621a7b7b2ea0050c86eb63[ALL] 5221035dd174acf363fa92d34972ab03b4807307359573e741a05288f4d99acdf9b2ff2103a5ad7c6e80f3fb3a5bdc2fa4419b90b90116fbb8819891974fd4ee53b33707d32102b2529c3ed8638587fb237c1161263b9e6bc92c1d123abd56b5517397a4d9299d53ae"}, "vout": 181, "txid": "6bca8b6bb91a79bd81169caccb22bc303095d7045a198cf1e9ad9e58de8e8453"}, {"txinwitness": ["", "3045022100fd84f7dd74b566e955637c173aef267987144a8a1d83ea2e8bf3dcd8ad20a21302201d22e5ae847dd7dd78fa5969168d91e0b7853d7e13a16b10b7d49c8f4edcdea001", "304402204358f57cfccc0004c5fe84a7bdeea92166444879d5ed3b6e0a11bd01daf866ce02200402d367f40ba68c43ba9b413ee5487be8e6dfb3ebd591037d38ed11dd09225101", "5221026d1060fe39b2b548dc71ccf59bbc7eb74af18f62d52aa0c2ceba05041cd5780b2103c29bdfd76281fc6be55fceb4b7c425eecdb751c14a7659aa8215231adb01ce6a21028e239d9fad06e303c2f60380ea3db369d3f346c944ea70e4ce18bea7b905d72753ae"], "sequence": 4294967295, "scriptSig": {"hex": "220020bd45960686225d17f78f7a5ba65f547a3441954c30f59b658fe84cbf9d99ebbd", "asm": "0020bd45960686225d17f78f7a5ba65f547a3441954c30f59b658fe84cbf9d99ebbd"}, "vout": 0, "txid": "a3fa415f4f4d8cef47031e390f2894ba8f811364cdf8bd7b3add10cca6955255"}, {"txinwitness": ["", "30450221008e0799eebaf62a5871595b34e03e8229adb511c6aae430aeae43eaa62930629f02202ee74f2853e20aadd82956140aa4501ded834122a70da5fd116334b4e27402f301", "3044022011bdb016e1911ec26a9717fec34d262c4772031892b9b576a7aa54960fe3e8af02201dcea7fea9da56d7e0b5bbb2faad5819fd1f9b7fa60601751f249c02d9181cba01", "5221035dc4b1c24c7909b5831b25b2055f6b5f6caf006f03c64da7719eb009a3612f0f2103d15d22ef84b026cd1514e76de781a2c575fee55736e445a7fda1e8538135f3b9210270b017fae426a4b587a1f155f0fe13b58651468abb63786cf3216543d5cb6b4353ae"], "sequence": 4294967295, "scriptSig": {"hex": "220020531c7cc4022a5c03ccbddf265e49150439fb06a256d45a72e467a384301150a5", "asm": "0020531c7cc4022a5c03ccbddf265e49150439fb06a256d45a72e467a384301150a5"}, "vout": 1, "txid": "938e55b14437149a3e59caa64701dcc7e1271eaa2cc8508d1d6a76d1411fcf65"}], "txid": "ca8df9d820359cafb0278fbecc08a58d5d4c22c0398cf8ea2308f3399d4f6538", "blocktime": 1537870268, "version": 1, "confirmations": 11518, "time": 1537870268, "locktime": 0, "vsize": 2714, "size": 3857}