{"hash": "ca8eb56fdd0c09e2d35caf44097483d5f8f471057695f0a94aae59dffd714400", "blockhash": "0000000000000000001f76057863aec43deb6fa401d9628bb513d65a8098bfab", "vout": [{"scriptPubKey": {"reqSigs": 1, "hex": "76a914a4783035e9c841a441575a310a4af80bdc21741b88ac", "addresses": ["1FzdoHtkgVGdTT8mCiTZ9RDkPRoNgRgBux"], "asm": "OP_DUP OP_HASH160 a4783035e9c841a441575a310a4af80bdc21741b OP_EQUALVERIFY OP_CHECKSIG", "type": "pubkeyhash"}, "value": 0.01929145, "n": 0}, {"scriptPubKey": {"reqSigs": 1, "hex": "a914d5a35fdbbc77c1ead5ced5fbb1f1da1948fc9d6787", "addresses": ["3MAdZrnaD7r66pBcDnZQTFjc9s13m7jhu9"], "asm": "OP_HASH160 d5a35fdbbc77c1ead5ced5fbb1f1da1948fc9d67 OP_EQUAL", "type": "scripthash"}, "value": 0.03121034, "n": 1}], "hex": "0100000001d0d311dd2af9ab6145887b2a37e5433680bebf0946aa91b3713b6c6efb69e620000000006a473044022016d47bf94bfa4a6f9d76f9906da2aaf70c6ec5ac4fd3c3a2104653733a673d3502205f56d4602794f060049877898497fde7fb3a86d48ae6ebf76930325f280d900301210336416614e4babfbeb988e087369e376a6d7b1a2fee3485cdaaa7fee000cfb77affffffff02b96f1d00000000001976a914a4783035e9c841a441575a310a4af80bdc21741b88ac8a9f2f000000000017a914d5a35fdbbc77c1ead5ced5fbb1f1da1948fc9d678700000000", "vin": [{"sequence": 4294967295, "scriptSig": {"hex": "473044022016d47bf94bfa4a6f9d76f9906da2aaf70c6ec5ac4fd3c3a2104653733a673d3502205f56d4602794f060049877898497fde7fb3a86d48ae6ebf76930325f280d900301210336416614e4babfbeb988e087369e376a6d7b1a2fee3485cdaaa7fee000cfb77a", "asm": "3044022016d47bf94bfa4a6f9d76f9906da2aaf70c6ec5ac4fd3c3a2104653733a673d3502205f56d4602794f060049877898497fde7fb3a86d48ae6ebf76930325f280d9003[ALL] 0336416614e4babfbeb988e087369e376a6d7b1a2fee3485cdaaa7fee000cfb77a"}, "vout": 0, "txid": "20e669fb6e6c3b71b391aa4609bfbe803643e5372a7b884561abf92add11d3d0"}], "txid": "ca8eb56fdd0c09e2d35caf44097483d5f8f471057695f0a94aae59dffd714400", "blocktime": 1537873891, "version": 1, "confirmations": 11478, "time": 1537873891, "locktime": 0, "vsize": 223, "size": 223}