{"hash": "ca91233a01fdee6fbbc5eb2a56598a9db6cd5b8543d17493a9f87d6d45b5e775", "blockhash": "000000000000000000205f8b0775d31398ef75b89a5e8ec8d2c57b4dc0ac4c20", "vout": [{"scriptPubKey": {"reqSigs": 1, "hex": "76a91494a52d679341c2c990369325edea51f50ce858a388ac", "addresses": ["1EYxt7gWQAC62EF9aa9Y6Mpuhpmc5WwwqZ"], "asm": "OP_DUP OP_HASH160 94a52d679341c2c990369325edea51f50ce858a3 OP_EQUALVERIFY OP_CHECKSIG", "type": "pubkeyhash"}, "value": 2.466725, "n": 0}, {"scriptPubKey": {"reqSigs": 1, "hex": "a914d0846707c561b5946e295df581acd49f7b4277ad87", "addresses": ["3LhZ5vpskEpo1cEqyZ79Z5TXZFmdN8t3cw"], "asm": "OP_HASH160 d0846707c561b5946e295df581acd49f7b4277ad OP_EQUAL", "type": "scripthash"}, "value": 0.28588067, "n": 1}], "hex": "01000000019f201fae37d200a5c9ec24f4f8fe54dde6066ffa9dde6a23625bffc69902bcb300000000fdfd000047304402201f5500382e4cf8e876bed8ffbaa52a8e97a0e86592619015947a9e221928ac9d0220229202c86433920533672864451a8ea2f475aa65b716dd7023b3bf69337cdccb01483045022100a37f8b2b4b78a73a75386c27c695644fc496c66ba16bc94b4c49047795b83e0f0220537608385621e279e8e58547893d30cd9cfac7bc32d2592ba692352a90bbbae6014c6952210213dc9a12b37465d32ba81a7bedf052792a78839c04c8befd7eec48e602b3769b21029899a946b733ebaf10b790bf4b0bec99aec1a825299e16ec7348a6d9df4967e82102b8b842440f9601436dbc9cc6ec46717334c70fc498e7e1b9824a792fb2b2305d53aeffffffff0274ecb30e000000001976a91494a52d679341c2c990369325edea51f50ce858a388ac2338b4010000000017a914d0846707c561b5946e295df581acd49f7b4277ad8700000000", "vin": [{"sequence": 4294967295, "scriptSig": {"hex": "0047304402201f5500382e4cf8e876bed8ffbaa52a8e97a0e86592619015947a9e221928ac9d0220229202c86433920533672864451a8ea2f475aa65b716dd7023b3bf69337cdccb01483045022100a37f8b2b4b78a73a75386c27c695644fc496c66ba16bc94b4c49047795b83e0f0220537608385621e279e8e58547893d30cd9cfac7bc32d2592ba692352a90bbbae6014c6952210213dc9a12b37465d32ba81a7bedf052792a78839c04c8befd7eec48e602b3769b21029899a946b733ebaf10b790bf4b0bec99aec1a825299e16ec7348a6d9df4967e82102b8b842440f9601436dbc9cc6ec46717334c70fc498e7e1b9824a792fb2b2305d53ae", "asm": "0 304402201f5500382e4cf8e876bed8ffbaa52a8e97a0e86592619015947a9e221928ac9d0220229202c86433920533672864451a8ea2f475aa65b716dd7023b3bf69337cdccb[ALL] 3045022100a37f8b2b4b78a73a75386c27c695644fc496c66ba16bc94b4c49047795b83e0f0220537608385621e279e8e58547893d30cd9cfac7bc32d2592ba692352a90bbbae6[ALL] 52210213dc9a12b37465d32ba81a7bedf052792a78839c04c8befd7eec48e602b3769b21029899a946b733ebaf10b790bf4b0bec99aec1a825299e16ec7348a6d9df4967e82102b8b842440f9601436dbc9cc6ec46717334c70fc498e7e1b9824a792fb2b2305d53ae"}, "vout": 0, "txid": "b3bc0299c6ff5b62236ade9dfa6f06e6dd54fef8f424ecc9a500d237ae1f209f"}], "txid": "ca91233a01fdee6fbbc5eb2a56598a9db6cd5b8543d17493a9f87d6d45b5e775", "blocktime": 1537871175, "version": 1, "confirmations": 11511, "time": 1537871175, "locktime": 0, "vsize": 372, "size": 372}