{"hash": "ca920f95acae6e94d96f2ba2296cf8fb4c5c6ae83ffec4a8d9888ed31e13ee52", "blockhash": "0000000000000000000baef3f32e3676a92c3b2e5da21b426e4f302fc371ce76", "vout": [{"scriptPubKey": {"reqSigs": 1, "hex": "76a9142aadc444b09aa4392846fe6fa3a91f6555e30ac688ac", "addresses": ["14tfYaTzYEfBKgTyyVkTBZkPp4zpgUh45M"], "asm": "OP_DUP OP_HASH160 2aadc444b09aa4392846fe6fa3a91f6555e30ac6 OP_EQUALVERIFY OP_CHECKSIG", "type": "pubkeyhash"}, "value": 1.735e-05, "n": 0}, {"scriptPubKey": {"reqSigs": 1, "hex": "a914ff7f57b1853cb6b35e07a26bd50504e62430077887", "addresses": ["3QyxnNmhTzrPkKEfeb8G3H4ug1orpenadq"], "asm": "OP_HASH160 ff7f57b1853cb6b35e07a26bd50504e624300778 OP_EQUAL", "type": "scripthash"}, "value": 0.00281, "n": 1}], "hex": "010000000144d26ba3a610034d6aa7c72178de5dec8d09adbfe5197146f07b338456bd8f1d000000006a47304402206beca88a8086002c793293d8396919274c836d561fc3f4240d221ef703ab4e4502200ea5c572cbf9e4c511373a9a8150f6648c16be91280bd8d96d1bc95bc51a1738012102e005c7c9f6da66a2011a050a90ce842e050f1d47ec61376e938eaebd9d43dd3afdffffff02c7060000000000001976a9142aadc444b09aa4392846fe6fa3a91f6555e30ac688aca84904000000000017a914ff7f57b1853cb6b35e07a26bd50504e6243007788717490800", "vin": [{"sequence": 4294967293, "scriptSig": {"hex": "47304402206beca88a8086002c793293d8396919274c836d561fc3f4240d221ef703ab4e4502200ea5c572cbf9e4c511373a9a8150f6648c16be91280bd8d96d1bc95bc51a1738012102e005c7c9f6da66a2011a050a90ce842e050f1d47ec61376e938eaebd9d43dd3a", "asm": "304402206beca88a8086002c793293d8396919274c836d561fc3f4240d221ef703ab4e4502200ea5c572cbf9e4c511373a9a8150f6648c16be91280bd8d96d1bc95bc51a1738[ALL] 02e005c7c9f6da66a2011a050a90ce842e050f1d47ec61376e938eaebd9d43dd3a"}, "vout": 0, "txid": "1d8fbd5684337bf0467119e5bfad098dec5dde7821c7a76a4d0310a6a36bd244"}], "txid": "ca920f95acae6e94d96f2ba2296cf8fb4c5c6ae83ffec4a8d9888ed31e13ee52", "blocktime": 1537876114, "version": 1, "confirmations": 11459, "time": 1537876114, "locktime": 542999, "vsize": 223, "size": 223}