{"hash": "ca9243e9abcd353a08650b1027134ae869e11e7d077c5bcbae9834fb6e3dbb28", "blockhash": "0000000000000000000baef3f32e3676a92c3b2e5da21b426e4f302fc371ce76", "vout": [{"scriptPubKey": {"reqSigs": 1, "hex": "76a914dc3c0c871ff3c22990bf5f69b1752e23cd6b91a988ac", "addresses": ["1M5VbUcAF8a94i2jnWEVLnpYGsgZdpyWPk"], "asm": "OP_DUP OP_HASH160 dc3c0c871ff3c22990bf5f69b1752e23cd6b91a9 OP_EQUALVERIFY OP_CHECKSIG", "type": "pubkeyhash"}, "value": 0.000275, "n": 0}, {"scriptPubKey": {"reqSigs": 1, "hex": "76a91495dda6f15ae47bf2b1c1ad563e9faf46fcce5a0b88ac", "addresses": ["1EfRDF3EEf3uQgyfq1Ro6gvHtbETzTJyHu"], "asm": "OP_DUP OP_HASH160 95dda6f15ae47bf2b1c1ad563e9faf46fcce5a0b OP_EQUALVERIFY OP_CHECKSIG", "type": "pubkeyhash"}, "value": 0.002, "n": 1}], "hex": "010000000120d1be0a49c3eb3929441a99c2b3fcbd247a3fb524046f2a543c271cbc0e816b000000006b483045022100a915a9e3644ceec3afa2a4336ea41572d09fd5de1649bf9cddd27ac80fcac71c0220624b38d0f2c37089fcb6edfd48d6ca805e4726fa816e3e0e862e5d17ef3aece90121020aff5711b28eec67bb663a52e46c52d4dbdf579dff09ae4dd597172c8a74bd05feffffff026c6b0000000000001976a914dc3c0c871ff3c22990bf5f69b1752e23cd6b91a988ac400d0300000000001976a91495dda6f15ae47bf2b1c1ad563e9faf46fcce5a0b88ac16490800", "vin": [{"sequence": 4294967294, "scriptSig": {"hex": "483045022100a915a9e3644ceec3afa2a4336ea41572d09fd5de1649bf9cddd27ac80fcac71c0220624b38d0f2c37089fcb6edfd48d6ca805e4726fa816e3e0e862e5d17ef3aece90121020aff5711b28eec67bb663a52e46c52d4dbdf579dff09ae4dd597172c8a74bd05", "asm": "3045022100a915a9e3644ceec3afa2a4336ea41572d09fd5de1649bf9cddd27ac80fcac71c0220624b38d0f2c37089fcb6edfd48d6ca805e4726fa816e3e0e862e5d17ef3aece9[ALL] 020aff5711b28eec67bb663a52e46c52d4dbdf579dff09ae4dd597172c8a74bd05"}, "vout": 0, "txid": "6b810ebc1c273c542a6f0424b53f7a24bdfcb3c2991a442939ebc3490abed120"}], "txid": "ca9243e9abcd353a08650b1027134ae869e11e7d077c5bcbae9834fb6e3dbb28", "blocktime": 1537876114, "version": 1, "confirmations": 11460, "time": 1537876114, "locktime": 542998, "vsize": 226, "size": 226}