{"hash": "ca94ac087702bd268b021abf43c9d7399f715b2de0e8335bd90f12cdd76e9c42", "blockhash": "00000000000000000017f5eb5941039fbcee6240d03bc1f2f8e35350df66a1d8", "vout": [{"scriptPubKey": {"reqSigs": 1, "hex": "76a91401e20b8f9e46a5a7130d4b4de5cfd178fa7032ec88ac", "addresses": ["1AxU5vcecscqm4a1qfXKhXcTL9QyGEG74"], "asm": "OP_DUP OP_HASH160 01e20b8f9e46a5a7130d4b4de5cfd178fa7032ec OP_EQUALVERIFY OP_CHECKSIG", "type": "pubkeyhash"}, "value": 0.00308755, "n": 0}, {"scriptPubKey": {"reqSigs": 1, "hex": "76a914d8f653992b85c13d6e5d6fa6578f471d7848a16388ac", "addresses": ["1LnC3WGDoXFja9wTXGgrgSK7ZZQVwECdHn"], "asm": "OP_DUP OP_HASH160 d8f653992b85c13d6e5d6fa6578f471d7848a163 OP_EQUALVERIFY OP_CHECKSIG", "type": "pubkeyhash"}, "value": 0.0109417, "n": 1}], "hex": "010000000322d808257e18ed6c91be4fc7c2c4efbea5e9883ea12a3c54068764236ed05802000000006a473044022054625c470616935bfc4d661b546a37debcd74a95e89dc8a574ead70c58508ce902207013758e8ffd183e23c35a992ce9ebe5be80ac0604662f241609884d56eb9e6b012103d70c8de590102797971f61352f711bc04caec009dd38d5792f51c00fa5f42301ffffffff7e3e1c3d41eb8ea006d03f2ec4a9bfbc71d15207148d3e7eaa78cab986bd5737000000006b483045022100a54daf54d975fc474f7228b67d951ac397250240d01c073ad9e25dac0d498d0e02200983dcc3d3d69e6ef8cda340527183b5a3b2b72a6780cc36ad1adbdca372faab012103a8ad0eb562146a0d173a6d71b3e83f31f20c04dcbc2d81f81cffa36ece1caac0ffffffff571290a92089ed04c80a5ba894ab9922fb8c55f7dce9bd1a6db95e9532edd365000000006a473044022060d54b225796ae594a5db2d3c4642eec01ec88000052587aa64c0a3964421482022048ca3e04ed74e4b818edefbbcb01737d1efaec1a85cf1ab4c81fa1a17319591e0121035a8f6a22820ff76039d326953385cc816ed1f3d67be58c897f4d780627ebfb48ffffffff0213b60400000000001976a91401e20b8f9e46a5a7130d4b4de5cfd178fa7032ec88ac1ab21000000000001976a914d8f653992b85c13d6e5d6fa6578f471d7848a16388ac00000000", "vin": [{"sequence": 4294967295, "scriptSig": {"hex": "473044022054625c470616935bfc4d661b546a37debcd74a95e89dc8a574ead70c58508ce902207013758e8ffd183e23c35a992ce9ebe5be80ac0604662f241609884d56eb9e6b012103d70c8de590102797971f61352f711bc04caec009dd38d5792f51c00fa5f42301", "asm": "3044022054625c470616935bfc4d661b546a37debcd74a95e89dc8a574ead70c58508ce902207013758e8ffd183e23c35a992ce9ebe5be80ac0604662f241609884d56eb9e6b[ALL] 03d70c8de590102797971f61352f711bc04caec009dd38d5792f51c00fa5f42301"}, "vout": 0, "txid": "0258d06e23648706543c2aa13e88e9a5beefc4c2c74fbe916ced187e2508d822"}, {"sequence": 4294967295, "scriptSig": {"hex": "483045022100a54daf54d975fc474f7228b67d951ac397250240d01c073ad9e25dac0d498d0e02200983dcc3d3d69e6ef8cda340527183b5a3b2b72a6780cc36ad1adbdca372faab012103a8ad0eb562146a0d173a6d71b3e83f31f20c04dcbc2d81f81cffa36ece1caac0", "asm": "3045022100a54daf54d975fc474f7228b67d951ac397250240d01c073ad9e25dac0d498d0e02200983dcc3d3d69e6ef8cda340527183b5a3b2b72a6780cc36ad1adbdca372faab[ALL] 03a8ad0eb562146a0d173a6d71b3e83f31f20c04dcbc2d81f81cffa36ece1caac0"}, "vout": 0, "txid": "3757bd86b9ca78aa7e3e8d140752d171bcbfa9c42e3fd006a08eeb413d1c3e7e"}, {"sequence": 4294967295, "scriptSig": {"hex": "473044022060d54b225796ae594a5db2d3c4642eec01ec88000052587aa64c0a3964421482022048ca3e04ed74e4b818edefbbcb01737d1efaec1a85cf1ab4c81fa1a17319591e0121035a8f6a22820ff76039d326953385cc816ed1f3d67be58c897f4d780627ebfb48", "asm": "3044022060d54b225796ae594a5db2d3c4642eec01ec88000052587aa64c0a3964421482022048ca3e04ed74e4b818edefbbcb01737d1efaec1a85cf1ab4c81fa1a17319591e[ALL] 035a8f6a22820ff76039d326953385cc816ed1f3d67be58c897f4d780627ebfb48"}, "vout": 0, "txid": "65d3ed32955eb96d1abde9dcf7558cfb2299ab94a85b0ac804ed8920a9901257"}], "txid": "ca94ac087702bd268b021abf43c9d7399f715b2de0e8335bd90f12cdd76e9c42", "blocktime": 1537874412, "version": 1, "confirmations": 11468, "time": 1537874412, "locktime": 0, "vsize": 520, "size": 520}