{"hash": "80a1c00a35e96d51ff1efe7114f73bbfc647300696896f2f7d227d9620819c31", "blockhash": "0000000000000000000e13cef7c366c0283d82e591d1acd082e914b08063cdf1", "vout": [{"scriptPubKey": {"reqSigs": 1, "hex": "a9144bf3c1d26ffad31b8a1cafdf9f61097c838a76fd87", "addresses": ["38cccUMcR6CLvRgvbghU62ok6W7jsDUaey"], "asm": "OP_HASH160 4bf3c1d26ffad31b8a1cafdf9f61097c838a76fd OP_EQUAL", "type": "scripthash"}, "value": 0.0004, "n": 0}, {"scriptPubKey": {"reqSigs": 1, "hex": "001494f76885598c968e2c96d14519ad074d8ac627ad", "addresses": ["bc1qjnmk3p2e3jtgutyk69z3ntg8fk9vvfadhezwpm"], "asm": "0 94f76885598c968e2c96d14519ad074d8ac627ad", "type": "witness_v0_keyhash"}, "value": 0.07676617, "n": 1}], "hex": "01000000000101aae9d9fe84061bfb2ee509f8034202aeea2d68020644cfb60c6e897b72c1da3f0100000000ffffffff02409c00000000000017a9144bf3c1d26ffad31b8a1cafdf9f61097c838a76fd87c92275000000000016001494f76885598c968e2c96d14519ad074d8ac627ad02473044022005cddcfe710d2c767d3c365f9d5af3eebcf0b040899b1035e3c3bb4f0ce47b7702207af92259911ebbbf8368fd2af79a090a47aee95d30564070eb82e4fcb0670e2d0121020e287af4d8430164187b3a6ab34b60274f366976853103a5ba46e7a0b727675500000000", "vin": [{"txinwitness": ["3044022005cddcfe710d2c767d3c365f9d5af3eebcf0b040899b1035e3c3bb4f0ce47b7702207af92259911ebbbf8368fd2af79a090a47aee95d30564070eb82e4fcb0670e2d01", "020e287af4d8430164187b3a6ab34b60274f366976853103a5ba46e7a0b7276755"], "sequence": 4294967295, "scriptSig": {"hex": "", "asm": ""}, "vout": 1, "txid": "3fdac1727b896e0cb6cf440602682deaae024203f809e52efb1b0684fed9e9aa"}], "txid": "ca99e4cc8b0426909e9c3b8bab6277ecb5c514236645abb51bd6077b320c00e5", "blocktime": 1537871767, "version": 1, "confirmations": 11495, "time": 1537871767, "locktime": 0, "vsize": 142, "size": 223}