{"hash": "ca9c5b3263e60f65979a84603f3b68c28cdab33793dc2efdc9eb1816813bd8d4", "blockhash": "0000000000000000001f0ddff1eddb255c1121bcd4da4f1bc9a0da00cae72433", "vout": [{"scriptPubKey": {"reqSigs": 1, "hex": "76a9146b21a74f8facecaa81fc7b4b79b63a096e448bf288ac", "addresses": ["1AmTcpLANiRpMfzKfVbv42EgQnTqE5Yob8"], "asm": "OP_DUP OP_HASH160 6b21a74f8facecaa81fc7b4b79b63a096e448bf2 OP_EQUALVERIFY OP_CHECKSIG", "type": "pubkeyhash"}, "value": 7.142e-05, "n": 0}, {"scriptPubKey": {"reqSigs": 1, "hex": "76a91431a00897fc6e0effc1363dea8c0ff82dc00e9cd088ac", "addresses": ["15XPpjAf1iUJ6YTknxHZM1CUHFtXVEPrNd"], "asm": "OP_DUP OP_HASH160 31a00897fc6e0effc1363dea8c0ff82dc00e9cd0 OP_EQUALVERIFY OP_CHECKSIG", "type": "pubkeyhash"}, "value": 0.00092953, "n": 1}], "hex": "0100000001c26e8bcfb02499e519fe57c3a2a7f3fca53a519d580310500c1fb0224b32e4bf000000006b483045022100ae4702982d4f94cbba3c25ba8d27f14acb68723a84827cbbe087af4e8b84112f022064559274d3fe7a7c098e437f66c94d4b7f3f4aa90c0bc8e04865e1dafebe54a60121025773ee2fc95accee8d96a7ed3ef9eda598a74b4ad8f515d27f149d083fe5d457ffffffff02e61b0000000000001976a9146b21a74f8facecaa81fc7b4b79b63a096e448bf288ac196b0100000000001976a91431a00897fc6e0effc1363dea8c0ff82dc00e9cd088ac00000000", "vin": [{"sequence": 4294967295, "scriptSig": {"hex": "483045022100ae4702982d4f94cbba3c25ba8d27f14acb68723a84827cbbe087af4e8b84112f022064559274d3fe7a7c098e437f66c94d4b7f3f4aa90c0bc8e04865e1dafebe54a60121025773ee2fc95accee8d96a7ed3ef9eda598a74b4ad8f515d27f149d083fe5d457", "asm": "3045022100ae4702982d4f94cbba3c25ba8d27f14acb68723a84827cbbe087af4e8b84112f022064559274d3fe7a7c098e437f66c94d4b7f3f4aa90c0bc8e04865e1dafebe54a6[ALL] 025773ee2fc95accee8d96a7ed3ef9eda598a74b4ad8f515d27f149d083fe5d457"}, "vout": 0, "txid": "bfe4324b22b01f0c501003589d513aa5fcf3a7a2c357fe19e59924b0cf8b6ec2"}], "txid": "ca9c5b3263e60f65979a84603f3b68c28cdab33793dc2efdc9eb1816813bd8d4", "blocktime": 1537872018, "version": 1, "confirmations": 11489, "time": 1537872018, "locktime": 0, "vsize": 226, "size": 226}