{"hash": "caa11c2f4871e1f405f7e356dbf5f734c8aa0800727a1b8b1868826eabeec5dd", "blockhash": "0000000000000000000e13cef7c366c0283d82e591d1acd082e914b08063cdf1", "vout": [{"scriptPubKey": {"reqSigs": 1, "hex": "76a914eb7913961cc9bba48e9910fd0d6693ca78e6b37a88ac", "addresses": ["1NU4qdAST4pYtWyGUYNWnqkbRqgiBTif6o"], "asm": "OP_DUP OP_HASH160 eb7913961cc9bba48e9910fd0d6693ca78e6b37a OP_EQUALVERIFY OP_CHECKSIG", "type": "pubkeyhash"}, "value": 0.01085929, "n": 0}, {"scriptPubKey": {"reqSigs": 1, "hex": "76a91409398b5099d6634d035da87afd138844490c580c88ac", "addresses": ["1qn1y7dWThqjL6syJCJd7aUHFGfFSWzBT"], "asm": "OP_DUP OP_HASH160 09398b5099d6634d035da87afd138844490c580c OP_EQUALVERIFY OP_CHECKSIG", "type": "pubkeyhash"}, "value": 0.0126886, "n": 1}], "hex": "020000000263205eb3b2a4f7c50f26c8122f87c6cf372195731b583231feb099c43a7a6706010000006a473044022027e34c097213f315b956e49b3cf2a0d783726572b1230d5fd796a5e3bf9aae5d0220586e19b7375a108d9299371b396555697dbc36fd0e49da37773577e3d1962aa80121025fa9df739d55446b89037f583a7aa947a1a1744dfe0f979e85082606e5d36b39feffffff7bb0ce7d1bd9942fc49f24d3ce281cfef8c631abc74445a87a3dfe3181e8fa94000000006a4730440220277b184d8848329de36bfd0bf7e8b54a05022e0660ff78df5fdf462e5a40a7ef022079726f49dcb340b832d06309c6a16bce5eb29e049cd1d4daee578709f18582a001210225f5a0f35f1647ccae856a8b03cbe720b09d8d5b07b6c299c8eb410a90db04adfeffffff02e9911000000000001976a914eb7913961cc9bba48e9910fd0d6693ca78e6b37a88ac7c5c1300000000001976a91409398b5099d6634d035da87afd138844490c580c88acb9480800", "vin": [{"sequence": 4294967294, "scriptSig": {"hex": "473044022027e34c097213f315b956e49b3cf2a0d783726572b1230d5fd796a5e3bf9aae5d0220586e19b7375a108d9299371b396555697dbc36fd0e49da37773577e3d1962aa80121025fa9df739d55446b89037f583a7aa947a1a1744dfe0f979e85082606e5d36b39", "asm": "3044022027e34c097213f315b956e49b3cf2a0d783726572b1230d5fd796a5e3bf9aae5d0220586e19b7375a108d9299371b396555697dbc36fd0e49da37773577e3d1962aa8[ALL] 025fa9df739d55446b89037f583a7aa947a1a1744dfe0f979e85082606e5d36b39"}, "vout": 1, "txid": "06677a3ac499b0fe3132581b73952137cfc6872f12c8260fc5f7a4b2b35e2063"}, {"sequence": 4294967294, "scriptSig": {"hex": "4730440220277b184d8848329de36bfd0bf7e8b54a05022e0660ff78df5fdf462e5a40a7ef022079726f49dcb340b832d06309c6a16bce5eb29e049cd1d4daee578709f18582a001210225f5a0f35f1647ccae856a8b03cbe720b09d8d5b07b6c299c8eb410a90db04ad", "asm": "30440220277b184d8848329de36bfd0bf7e8b54a05022e0660ff78df5fdf462e5a40a7ef022079726f49dcb340b832d06309c6a16bce5eb29e049cd1d4daee578709f18582a0[ALL] 0225f5a0f35f1647ccae856a8b03cbe720b09d8d5b07b6c299c8eb410a90db04ad"}, "vout": 0, "txid": "94fae88131fe3d7aa84544c7ab31c6f8fe1c28ced3249fc42f94d91b7dceb07b"}], "txid": "caa11c2f4871e1f405f7e356dbf5f734c8aa0800727a1b8b1868826eabeec5dd", "blocktime": 1537871767, "version": 2, "confirmations": 11495, "time": 1537871767, "locktime": 542905, "vsize": 372, "size": 372}