{"hash": "caae36e6a11fb5251e98ae0f978f0699510fd493dc41ef0828e2fd2ce6752fcf", "blockhash": "0000000000000000000dcc0f55137456b1a82d3642486a52398922ac4d620174", "vout": [{"scriptPubKey": {"reqSigs": 1, "hex": "76a914d243e6abb9a60fbff430b421d2df4b7d59ec186088ac", "addresses": ["1LAnF8h3qMGx3TSwNUHVneBZUEpwE4gu3D"], "asm": "OP_DUP OP_HASH160 d243e6abb9a60fbff430b421d2df4b7d59ec1860 OP_EQUALVERIFY OP_CHECKSIG", "type": "pubkeyhash"}, "value": 0.00076972, "n": 0}, {"scriptPubKey": {"reqSigs": 1, "hex": "76a9143851f34d13937b673a7d24a1950bb5b21ce94af388ac", "addresses": ["168o1kqNquEJeR9vosUB5fw4eAwcVAgh8P"], "asm": "OP_DUP OP_HASH160 3851f34d13937b673a7d24a1950bb5b21ce94af3 OP_EQUALVERIFY OP_CHECKSIG", "type": "pubkeyhash"}, "value": 5.46e-06, "n": 1}, {"scriptPubKey": {"type": "nulldata", "hex": "6a146f6d6e69000000000000001f0000007c354a3380", "asm": "OP_RETURN 6f6d6e69000000000000001f0000007c354a3380"}, "value": 0.0, "n": 2}], "hex": "0100000002e04364335d69e67849b33ebbe812f11d0e02b3e3e9c127884093d15138e5186e020000006a473044022062c034bf06f1f9b481a6f6941a29b645ef3e05092cc39220874fe9da8cbac26e02202cc2d11ba671056205e3208ef3b8b179e43195bdfe4afa89a00995bc4a7b61a8012102787d1e1421a59f6b3a8c3b770890f7affdb91a1e538c10c97ee3aff224b0fa53ffffffff401eca58d6560b392119b4cd83528970506627e67dab073ed9a3fafc02159c25000000006b483045022100adff4823ff1f05ca42174165c6505677291393107febee5a6c7589772d0357cb02203bc40a17e875515332068ef581c33ec4cc189b045a68cb974df7cb17d0cf139001210271977291b74f1f5f5c42157e8aae804664eaaeccfd097918450d37f28fb94d77ffffffff03ac2c0100000000001976a914d243e6abb9a60fbff430b421d2df4b7d59ec186088ac22020000000000001976a9143851f34d13937b673a7d24a1950bb5b21ce94af388ac0000000000000000166a146f6d6e69000000000000001f0000007c354a338000000000", "vin": [{"sequence": 4294967295, "scriptSig": {"hex": "473044022062c034bf06f1f9b481a6f6941a29b645ef3e05092cc39220874fe9da8cbac26e02202cc2d11ba671056205e3208ef3b8b179e43195bdfe4afa89a00995bc4a7b61a8012102787d1e1421a59f6b3a8c3b770890f7affdb91a1e538c10c97ee3aff224b0fa53", "asm": "3044022062c034bf06f1f9b481a6f6941a29b645ef3e05092cc39220874fe9da8cbac26e02202cc2d11ba671056205e3208ef3b8b179e43195bdfe4afa89a00995bc4a7b61a8[ALL] 02787d1e1421a59f6b3a8c3b770890f7affdb91a1e538c10c97ee3aff224b0fa53"}, "vout": 2, "txid": "6e18e53851d193408827c1e9e3b3020e1df112e8bb3eb34978e6695d336443e0"}, {"sequence": 4294967295, "scriptSig": {"hex": "483045022100adff4823ff1f05ca42174165c6505677291393107febee5a6c7589772d0357cb02203bc40a17e875515332068ef581c33ec4cc189b045a68cb974df7cb17d0cf139001210271977291b74f1f5f5c42157e8aae804664eaaeccfd097918450d37f28fb94d77", "asm": "3045022100adff4823ff1f05ca42174165c6505677291393107febee5a6c7589772d0357cb02203bc40a17e875515332068ef581c33ec4cc189b045a68cb974df7cb17d0cf1390[ALL] 0271977291b74f1f5f5c42157e8aae804664eaaeccfd097918450d37f28fb94d77"}, "vout": 0, "txid": "259c1502fcfaa3d93e07ab7de627665070895283cdb41921390b56d658ca1e40"}], "txid": "caae36e6a11fb5251e98ae0f978f0699510fd493dc41ef0828e2fd2ce6752fcf", "blocktime": 1537870268, "version": 1, "confirmations": 11516, "time": 1537870268, "locktime": 0, "vsize": 404, "size": 404}