{"hash": "6b4e46c5e061032a579a877f34fecae441051ca9c1854fe431a4d0037b990c74", "blockhash": "0000000000000000000e13cef7c366c0283d82e591d1acd082e914b08063cdf1", "vout": [{"scriptPubKey": {"reqSigs": 1, "hex": "76a914ffb8029af21af22de2a8908bca9c765d339ca82b88ac", "addresses": ["1QK7kAk61QPoQJM9Ed1p2kCSc1rLC2rHja"], "asm": "OP_DUP OP_HASH160 ffb8029af21af22de2a8908bca9c765d339ca82b OP_EQUALVERIFY OP_CHECKSIG", "type": "pubkeyhash"}, "value": 0.00046136, "n": 0}, {"scriptPubKey": {"reqSigs": 1, "hex": "a91406a70abe943199cf52fd3de103addb5adeebc1f187", "addresses": ["32JC5yTruszNmHPhZJgaCjiwtFakK4cvuX"], "asm": "OP_HASH160 06a70abe943199cf52fd3de103addb5adeebc1f1 OP_EQUAL", "type": "scripthash"}, "value": 0.35437821, "n": 1}], "hex": "01000000000101091341bdb4b15e65425e1117e8fa74a67d30251aac93aad897c9513d2b198d2e01000000232200208154504cc3583cbc165929f0354bfaac22b66efd51749be4149c6ca6fd18d102ffffffff0238b40000000000001976a914ffb8029af21af22de2a8908bca9c765d339ca82b88acfdbc1c020000000017a91406a70abe943199cf52fd3de103addb5adeebc1f1870400473044022049cde6ede1a8acaa446984238c6932f4c83445040a88bc937ee5ee1b81afa7b802205c88826fe0cb7b02d90107bc85cc8b9dacd9b987394c242f4fe88ab1e8b6cea101473044022054c67311d0d2a9b9df072b6e3fa642235c37db37222f423aa12b0dc3c34fc1a6022032c65d70f086c3a2142a0b0a75c25b2ced59d6939caf5d9b1bd9f4ed3759efe40147522103718b64e8ba47600d017f06d890ee819ad3580106752c30d969fb973442b1206021030580d373ab00643a581abb399b43fa66d7b6fc29624eb75b2d5ec8d99faa163f52ae00000000", "vin": [{"txinwitness": ["", "3044022049cde6ede1a8acaa446984238c6932f4c83445040a88bc937ee5ee1b81afa7b802205c88826fe0cb7b02d90107bc85cc8b9dacd9b987394c242f4fe88ab1e8b6cea101", "3044022054c67311d0d2a9b9df072b6e3fa642235c37db37222f423aa12b0dc3c34fc1a6022032c65d70f086c3a2142a0b0a75c25b2ced59d6939caf5d9b1bd9f4ed3759efe401", "522103718b64e8ba47600d017f06d890ee819ad3580106752c30d969fb973442b1206021030580d373ab00643a581abb399b43fa66d7b6fc29624eb75b2d5ec8d99faa163f52ae"], "sequence": 4294967295, "scriptSig": {"hex": "2200208154504cc3583cbc165929f0354bfaac22b66efd51749be4149c6ca6fd18d102", "asm": "00208154504cc3583cbc165929f0354bfaac22b66efd51749be4149c6ca6fd18d102"}, "vout": 1, "txid": "2e8d192b3d51c997d8aa93ac1a25307da674fae817115e42655eb1b4bd411309"}], "txid": "caaf477dbe2800a0a1a79381a2cd47246f432803e36d6164b284e0144b978914", "blocktime": 1537871767, "version": 1, "confirmations": 11495, "time": 1537871767, "locktime": 0, "vsize": 207, "size": 372}