{"hash": "9d02b4958252f36bcfb21ff648c9b242175cd299786924f46c1c112e44ed9198", "blockhash": "0000000000000000000e13cef7c366c0283d82e591d1acd082e914b08063cdf1", "vout": [{"scriptPubKey": {"reqSigs": 1, "hex": "a914422fcc7cfbec301c80b002f410a232b06a157bf587", "addresses": ["37iynKe1yUsvFmC4vTUtwJrSYvWZ1RaAgv"], "asm": "OP_HASH160 422fcc7cfbec301c80b002f410a232b06a157bf5 OP_EQUAL", "type": "scripthash"}, "value": 9.383e-05, "n": 0}, {"scriptPubKey": {"reqSigs": 1, "hex": "a9146bd30ca1f4fb6fb8ff9ad07a58f983c4d05a441687", "addresses": ["3BX942zt5HeSkfkVnfrCkfFRbAZN6DJGKn"], "asm": "OP_HASH160 6bd30ca1f4fb6fb8ff9ad07a58f983c4d05a4416 OP_EQUAL", "type": "scripthash"}, "value": 0.01551264, "n": 1}], "hex": "0100000000010132d3bdd43a22b05babea82ffdcec801bcb14f34ec0f71f30d573dc253f018a4a00000000232200202d5470dfb768980f1e374cf51f22f9cf3c1bba51f62cf9d9b9e06d1cb26f63a3ffffffff02a72400000000000017a914422fcc7cfbec301c80b002f410a232b06a157bf587a0ab17000000000017a9146bd30ca1f4fb6fb8ff9ad07a58f983c4d05a4416870400473044022055f995d9d16a472d7dd5c4099dc8b3cbcae72a1d89737c1ad2748b6bdd611e710220177ac8004e412af366cff4aa296eb3424d0fabeacb1df4f6590a2b75c7c6647c0148304502210097c9c892ce843f9585e7f532479afedf70e5cee2db30ea25f042ab891d6f979e022025c81d14491e8da08e9e451e9bf7acd8b90ad3abb56c3060132eb7ba6ef0b4e80147522102ba2bce4978fa8dc53549d5c8df72ef73743b112560a675933310be15fbfbb98821030580d373ab00643a581abb399b43fa66d7b6fc29624eb75b2d5ec8d99faa163f52ae00000000", "vin": [{"txinwitness": ["", "3044022055f995d9d16a472d7dd5c4099dc8b3cbcae72a1d89737c1ad2748b6bdd611e710220177ac8004e412af366cff4aa296eb3424d0fabeacb1df4f6590a2b75c7c6647c01", "304502210097c9c892ce843f9585e7f532479afedf70e5cee2db30ea25f042ab891d6f979e022025c81d14491e8da08e9e451e9bf7acd8b90ad3abb56c3060132eb7ba6ef0b4e801", "522102ba2bce4978fa8dc53549d5c8df72ef73743b112560a675933310be15fbfbb98821030580d373ab00643a581abb399b43fa66d7b6fc29624eb75b2d5ec8d99faa163f52ae"], "sequence": 4294967295, "scriptSig": {"hex": "2200202d5470dfb768980f1e374cf51f22f9cf3c1bba51f62cf9d9b9e06d1cb26f63a3", "asm": "00202d5470dfb768980f1e374cf51f22f9cf3c1bba51f62cf9d9b9e06d1cb26f63a3"}, "vout": 0, "txid": "4a8a013f25dc73d5301ff7c04ef314cb1b80ecdcff82eaab5bb0223ad4bdd332"}], "txid": "cab1906af51994bff1855376bb4a95a87c6171d2c50f9e7e0fbd296b1e6fce35", "blocktime": 1537871767, "version": 1, "confirmations": 11495, "time": 1537871767, "locktime": 0, "vsize": 206, "size": 371}