{"hash": "9501de851e1c6d38e594d9cf9b9d982a282acaf10557b8a44fccee61cbfb22c2", "blockhash": "0000000000000000000e13cef7c366c0283d82e591d1acd082e914b08063cdf1", "vout": [{"scriptPubKey": {"reqSigs": 1, "hex": "76a914e7da99d48c491d9bd9703987630a99e360cd3f2288ac", "addresses": ["1N8vxyEj7BVqYNGG51qjER234ZgGh4W1AB"], "asm": "OP_DUP OP_HASH160 e7da99d48c491d9bd9703987630a99e360cd3f22 OP_EQUALVERIFY OP_CHECKSIG", "type": "pubkeyhash"}, "value": 0.0025086, "n": 0}, {"scriptPubKey": {"reqSigs": 1, "hex": "a9142b48ce0ca9e627d921f99d18f1a28425f9e0398f87", "addresses": ["35dtCN5cjbvLYUcRdRfeXYZd5ZGS95FjCR"], "asm": "OP_HASH160 2b48ce0ca9e627d921f99d18f1a28425f9e0398f OP_EQUAL", "type": "scripthash"}, "value": 0.01023554, "n": 1}], "hex": "020000000001021e68e9364bc3ee7025ddcec8d3314297186a8f8de0ae05fb1295e059c6d8e0b20700000017160014cae8e2a87286d9cd72220e1f23bc92fe41fe5919feffffff8ca2f47981743f15cd840bfea86193df308c29a417c9d92e75a314b4593d56f70000000017160014f0b69b4b7ac53ea64346ffb94d97e07d2363cbc6feffffff02ecd30300000000001976a914e7da99d48c491d9bd9703987630a99e360cd3f2288ac429e0f000000000017a9142b48ce0ca9e627d921f99d18f1a28425f9e0398f870247304402203ca517489af5612fdf6c951aac1b19e161c298dc8bae9983047feacc6132b7e9022014c126fe6dee044d66a02e83d07c289f2b46454a23811b28389211036d36169c0121033fce2efd70c5ccc064f19fade8aa85ed3feb1487dc686648218e0a9a6737270e02483045022100cad3ac0697ac142e6677d552ddb93f5f3a22175c8dd4a4dab0a7a4ac2c36748602205b44b6f94afb4b992f59fdc253ddd94fc74d82a207df56346028e7f9c66f6823012103c1e4d3f10a86f892d4c8e0d0dc8849e0eb94a3a6fcb0d00d1242e5b73c470d8cfb480800", "vin": [{"txinwitness": ["304402203ca517489af5612fdf6c951aac1b19e161c298dc8bae9983047feacc6132b7e9022014c126fe6dee044d66a02e83d07c289f2b46454a23811b28389211036d36169c01", "033fce2efd70c5ccc064f19fade8aa85ed3feb1487dc686648218e0a9a6737270e"], "sequence": 4294967294, "scriptSig": {"hex": "160014cae8e2a87286d9cd72220e1f23bc92fe41fe5919", "asm": "0014cae8e2a87286d9cd72220e1f23bc92fe41fe5919"}, "vout": 7, "txid": "b2e0d8c659e09512fb05aee08d8f6a18974231d3c8cedd2570eec34b36e9681e"}, {"txinwitness": ["3045022100cad3ac0697ac142e6677d552ddb93f5f3a22175c8dd4a4dab0a7a4ac2c36748602205b44b6f94afb4b992f59fdc253ddd94fc74d82a207df56346028e7f9c66f682301", "03c1e4d3f10a86f892d4c8e0d0dc8849e0eb94a3a6fcb0d00d1242e5b73c470d8c"], "sequence": 4294967294, "scriptSig": {"hex": "160014f0b69b4b7ac53ea64346ffb94d97e07d2363cbc6", "asm": "0014f0b69b4b7ac53ea64346ffb94d97e07d2363cbc6"}, "vout": 0, "txid": "f7563d59b414a3752ed9c917a4298c30df9361a8fe0b84cd153f748179f4a28c"}], "txid": "cab177fb126ccd61c4d90827f482c6dac7d44f30c030215f516bbb92d1dcabf2", "blocktime": 1537871767, "version": 2, "confirmations": 11495, "time": 1537871767, "locktime": 542971, "vsize": 259, "size": 421}