{"hash": "cab4814649a522b0ae037713c381e8feb5c2490e943da45cd9e1f2fa9d16164e", "blockhash": "000000000000000000205f8b0775d31398ef75b89a5e8ec8d2c57b4dc0ac4c20", "vout": [{"scriptPubKey": {"reqSigs": 1, "hex": "76a91440c5f2c23bfafa583674af0cf61f7569ca21142588ac", "addresses": ["16uVNxwakJAhWtEfYqC8f91huoAq5zDn4c"], "asm": "OP_DUP OP_HASH160 40c5f2c23bfafa583674af0cf61f7569ca211425 OP_EQUALVERIFY OP_CHECKSIG", "type": "pubkeyhash"}, "value": 0.235, "n": 0}, {"scriptPubKey": {"reqSigs": 1, "hex": "76a914cacd643bf6e34a32fd2ed39a508c101d50a4e7dc88ac", "addresses": ["1KVKYc3HaJTC9KUa7uUqM9ni6nvfijLAWM"], "asm": "OP_DUP OP_HASH160 cacd643bf6e34a32fd2ed39a508c101d50a4e7dc OP_EQUALVERIFY OP_CHECKSIG", "type": "pubkeyhash"}, "value": 0.05232758, "n": 1}], "hex": "0100000002b7712eddd2d0f325684afacb17734c82030c0373e0660d01cbc2d3ddde24d9d8010000006a473044022021cefffec15f16523c4cc52dd24b8575f1aac82e55a01344a7c8d502362bd9d1022068f2da001240b9793f7502cbb1d9816619d352fde27eca5e54d81624b06d31fc0121034432ad1eead49c4239311d83d6d1d4433c4a7e6f9c8062bf091666d9ea6ab884ffffffff8e872755bfeb31014bc92d6f946b91fecd34f94e49292b54709dfbb44c525c802b0000006a473044022032ea3082d75828bf5e3489e2010bf700c46156dfd53158ab705ab8e8a9e6b849022002889b3e94a60771c0afdd4e256a2864a5441b53ff7eb23f2e5d466224d26e870121020d5b0d34cf2c4be3be6b1fa55d416c8495473ef4ce91b8bc4cbaef55fdf807e7ffffffff02e0946601000000001976a91440c5f2c23bfafa583674af0cf61f7569ca21142588ac76d84f00000000001976a914cacd643bf6e34a32fd2ed39a508c101d50a4e7dc88ac00000000", "vin": [{"sequence": 4294967295, "scriptSig": {"hex": "473044022021cefffec15f16523c4cc52dd24b8575f1aac82e55a01344a7c8d502362bd9d1022068f2da001240b9793f7502cbb1d9816619d352fde27eca5e54d81624b06d31fc0121034432ad1eead49c4239311d83d6d1d4433c4a7e6f9c8062bf091666d9ea6ab884", "asm": "3044022021cefffec15f16523c4cc52dd24b8575f1aac82e55a01344a7c8d502362bd9d1022068f2da001240b9793f7502cbb1d9816619d352fde27eca5e54d81624b06d31fc[ALL] 034432ad1eead49c4239311d83d6d1d4433c4a7e6f9c8062bf091666d9ea6ab884"}, "vout": 1, "txid": "d8d924deddd3c2cb010d66e073030c03824c7317cbfa4a6825f3d0d2dd2e71b7"}, {"sequence": 4294967295, "scriptSig": {"hex": "473044022032ea3082d75828bf5e3489e2010bf700c46156dfd53158ab705ab8e8a9e6b849022002889b3e94a60771c0afdd4e256a2864a5441b53ff7eb23f2e5d466224d26e870121020d5b0d34cf2c4be3be6b1fa55d416c8495473ef4ce91b8bc4cbaef55fdf807e7", "asm": "3044022032ea3082d75828bf5e3489e2010bf700c46156dfd53158ab705ab8e8a9e6b849022002889b3e94a60771c0afdd4e256a2864a5441b53ff7eb23f2e5d466224d26e87[ALL] 020d5b0d34cf2c4be3be6b1fa55d416c8495473ef4ce91b8bc4cbaef55fdf807e7"}, "vout": 43, "txid": "805c524cb4fb9d70542b29494ef934cdfe916b946f2dc94b0131ebbf5527878e"}], "txid": "cab4814649a522b0ae037713c381e8feb5c2490e943da45cd9e1f2fa9d16164e", "blocktime": 1537871175, "version": 1, "confirmations": 11511, "time": 1537871175, "locktime": 0, "vsize": 372, "size": 372}