{"hash": "cab47cd3834cd9ddea4d848636bd88f6892d5b0b852152e2e5b006bd76c1c32c", "blockhash": "00000000000000000004ffacab907a6b429b9a5745fa0b75af4234bf69dd7176", "vout": [{"scriptPubKey": {"reqSigs": 1, "hex": "76a91458fbb8328d26e3020005d0127172b6def010329988ac", "addresses": ["197W1fHN8PTG9qrJbESJKWBScaexD2DeY3"], "asm": "OP_DUP OP_HASH160 58fbb8328d26e3020005d0127172b6def0103299 OP_EQUALVERIFY OP_CHECKSIG", "type": "pubkeyhash"}, "value": 1.36, "n": 0}, {"scriptPubKey": {"reqSigs": 1, "hex": "76a9148b2869c511387692fa660dc404963b71139e0e2288ac", "addresses": ["1DgoLcyUvmcsPum4MZQeykTaZuR2guv8ua"], "asm": "OP_DUP OP_HASH160 8b2869c511387692fa660dc404963b71139e0e22 OP_EQUALVERIFY OP_CHECKSIG", "type": "pubkeyhash"}, "value": 0.95356, "n": 1}], "hex": "0100000003a1c822c8f0386095e73ae3ad8d099b140e8079ef7261bbebd69f9dfb1d18bbe1010000006b483045022100d7bca165cbab3024233c583cc9813ee14960c4700e786a2dbf369dea3f14e37502200fea0c3b29d92151c9eb2a24383ef229ecf64465ae944c6f45c149cff6b99d81012102d2cb8e084ef666d9c3890cecca52f217644794cb424ec3dbd4dcc0a6d6bcee11ffffffff8794de2c45150a48fd078252f88d8953f1e1e854f2fa4ac48abfc0b8bb2d9895000000006b483045022100bbcbe1fcd9004cc29a7069388e8e83b15c44fc5039ba1329de966407c3080dbb0220721bbdb1b13f1943c19077dd0e685811c58170c0ab934aa1ac43190fc2770d910121034c5c736cc871518c1c279883809d17269ef030d98f90b2e227bf422fc7739a01ffffffff9a47fc416c5722cfa3a5f94a4aaa8cacaf3f1a9c85483f8dc179b8e086ba3823000000006a4730440220742aad0b67d44c2d75b9d9ed5e29fa2b4ffc963fbdc116135ebc696412433b8002200089a05f7d580775bc0fc9edec8ee23849c009f7a711b7955bcf5f428b9f46c20121038c948594e5fec52b81f92751a7c7e29da3920d09fb88558d17d133d82688e142ffffffff0200321b08000000001976a91458fbb8328d26e3020005d0127172b6def010329988ac6004af05000000001976a9148b2869c511387692fa660dc404963b71139e0e2288ac00000000", "vin": [{"sequence": 4294967295, "scriptSig": {"hex": "483045022100d7bca165cbab3024233c583cc9813ee14960c4700e786a2dbf369dea3f14e37502200fea0c3b29d92151c9eb2a24383ef229ecf64465ae944c6f45c149cff6b99d81012102d2cb8e084ef666d9c3890cecca52f217644794cb424ec3dbd4dcc0a6d6bcee11", "asm": "3045022100d7bca165cbab3024233c583cc9813ee14960c4700e786a2dbf369dea3f14e37502200fea0c3b29d92151c9eb2a24383ef229ecf64465ae944c6f45c149cff6b99d81[ALL] 02d2cb8e084ef666d9c3890cecca52f217644794cb424ec3dbd4dcc0a6d6bcee11"}, "vout": 1, "txid": "e1bb181dfb9d9fd6ebbb6172ef79800e149b098dade33ae7956038f0c822c8a1"}, {"sequence": 4294967295, "scriptSig": {"hex": "483045022100bbcbe1fcd9004cc29a7069388e8e83b15c44fc5039ba1329de966407c3080dbb0220721bbdb1b13f1943c19077dd0e685811c58170c0ab934aa1ac43190fc2770d910121034c5c736cc871518c1c279883809d17269ef030d98f90b2e227bf422fc7739a01", "asm": "3045022100bbcbe1fcd9004cc29a7069388e8e83b15c44fc5039ba1329de966407c3080dbb0220721bbdb1b13f1943c19077dd0e685811c58170c0ab934aa1ac43190fc2770d91[ALL] 034c5c736cc871518c1c279883809d17269ef030d98f90b2e227bf422fc7739a01"}, "vout": 0, "txid": "95982dbbb8c0bf8ac44afaf254e8e1f153898df8528207fd480a15452cde9487"}, {"sequence": 4294967295, "scriptSig": {"hex": "4730440220742aad0b67d44c2d75b9d9ed5e29fa2b4ffc963fbdc116135ebc696412433b8002200089a05f7d580775bc0fc9edec8ee23849c009f7a711b7955bcf5f428b9f46c20121038c948594e5fec52b81f92751a7c7e29da3920d09fb88558d17d133d82688e142", "asm": "30440220742aad0b67d44c2d75b9d9ed5e29fa2b4ffc963fbdc116135ebc696412433b8002200089a05f7d580775bc0fc9edec8ee23849c009f7a711b7955bcf5f428b9f46c2[ALL] 038c948594e5fec52b81f92751a7c7e29da3920d09fb88558d17d133d82688e142"}, "vout": 0, "txid": "2338ba86e0b879c18d3f48859c1a3fafac8caa4a4af9a5a3cf22576c41fc479a"}], "txid": "cab47cd3834cd9ddea4d848636bd88f6892d5b0b852152e2e5b006bd76c1c32c", "blocktime": 1537875543, "version": 1, "confirmations": 11464, "time": 1537875543, "locktime": 0, "vsize": 521, "size": 521}