{"hash": "cab84b20f65352576a1e61809f054f00a0748320667e8a78a0cd7690a0478fce", "blockhash": "0000000000000000000dcc0f55137456b1a82d3642486a52398922ac4d620174", "vout": [{"scriptPubKey": {"reqSigs": 1, "hex": "76a9142d03c1af5bf652b84049e187520386135ffb06d388ac", "addresses": ["1571ueNJXfGDh4RGcwUfqY8Lo2MBcdeFXk"], "asm": "OP_DUP OP_HASH160 2d03c1af5bf652b84049e187520386135ffb06d3 OP_EQUALVERIFY OP_CHECKSIG", "type": "pubkeyhash"}, "value": 0.00120952, "n": 0}], "hex": "0200000001b3e240dc1b770850cd2021a5c713deb73a4507abe5d43526de5adbc8024875a0800000006a47304402206054177cc29f959b9a3e7ac0d86cc59575ec0b371ad461b4f5d5340e4dbf4520022068643f2f8bcc74c27510170998eaf0acf9d7fef33427c58ae41468a4c606f9b9012102c20e8d87c4cc5f6e9c927a3089fc0492d1bf3fbfa020bf90d6cf6d457fd3f59ffeffffff0178d80100000000001976a9142d03c1af5bf652b84049e187520386135ffb06d388ac0c490800", "vin": [{"sequence": 4294967294, "scriptSig": {"hex": "47304402206054177cc29f959b9a3e7ac0d86cc59575ec0b371ad461b4f5d5340e4dbf4520022068643f2f8bcc74c27510170998eaf0acf9d7fef33427c58ae41468a4c606f9b9012102c20e8d87c4cc5f6e9c927a3089fc0492d1bf3fbfa020bf90d6cf6d457fd3f59f", "asm": "304402206054177cc29f959b9a3e7ac0d86cc59575ec0b371ad461b4f5d5340e4dbf4520022068643f2f8bcc74c27510170998eaf0acf9d7fef33427c58ae41468a4c606f9b9[ALL] 02c20e8d87c4cc5f6e9c927a3089fc0492d1bf3fbfa020bf90d6cf6d457fd3f59f"}, "vout": 128, "txid": "a0754802c8db5ade2635d4e5ab07453ab7de13c7a52120cd5008771bdc40e2b3"}], "txid": "cab84b20f65352576a1e61809f054f00a0748320667e8a78a0cd7690a0478fce", "blocktime": 1537870268, "version": 2, "confirmations": 11519, "time": 1537870268, "locktime": 542988, "vsize": 191, "size": 191}