{"hash": "2ef06278da0ab4501aac0ee9979a90b13a286769b189133f3be9516a5c199ca6", "blockhash": "000000000000000000022b45ed06c6f4ccd3cf7fb5ba4856ebd2e58215665228", "vout": [{"scriptPubKey": {"reqSigs": 1, "hex": "76a9141561da9f751abe041e2891a7af15473076943f7788ac", "addresses": ["12x4R3WVYYJPxouYkuyCmMC8GkBjGwomT5"], "asm": "OP_DUP OP_HASH160 1561da9f751abe041e2891a7af15473076943f77 OP_EQUALVERIFY OP_CHECKSIG", "type": "pubkeyhash"}, "value": 0.0034, "n": 0}, {"scriptPubKey": {"reqSigs": 1, "hex": "a914627aa52932456d89054bd84f86246af3b71b93a887", "addresses": ["3Afj4stdiLG9EktGrMbm252ySonnhYaz8v"], "asm": "OP_HASH160 627aa52932456d89054bd84f86246af3b71b93a8 OP_EQUAL", "type": "scripthash"}, "value": 0.74612912, "n": 1}], "hex": "01000000000101c105ad8d58a2acda107b3b7437522d473b9e0b03131b7803546edb13b20316d301000000232200205fdd641234b13964b223bd85ad2a4a667ca2099df3d42a1d3b45706a8d81abf0ffffffff0220300500000000001976a9141561da9f751abe041e2891a7af15473076943f7788acb08072040000000017a914627aa52932456d89054bd84f86246af3b71b93a8870400483045022100c8a75a0f21c32c67455a33d05419b95028f1a34affbceed700f88ac059e793c702201f6123087d3dc7adddf789a9377bc744d84df7e660f7267c22b45251ed24898c01473044022058cd05379df512cb181eb1e755ace089de88a42c0f69b82b0c543fd0c8812564022026cdd3ed8b0c2275c8160487ce00d08af18afc2aa3de84e16c2ecaf55bd0b1d00147522103dcde3832fa56def7b4e783faad1b8af85c3cdd74a5ff4f3c7c216b1075c18da12103c70ae8ded79be1afda73b9ce5ea14a3878908ee160d66a9a717e792bb6db276952ae00000000", "vin": [{"txinwitness": ["", "3045022100c8a75a0f21c32c67455a33d05419b95028f1a34affbceed700f88ac059e793c702201f6123087d3dc7adddf789a9377bc744d84df7e660f7267c22b45251ed24898c01", "3044022058cd05379df512cb181eb1e755ace089de88a42c0f69b82b0c543fd0c8812564022026cdd3ed8b0c2275c8160487ce00d08af18afc2aa3de84e16c2ecaf55bd0b1d001", "522103dcde3832fa56def7b4e783faad1b8af85c3cdd74a5ff4f3c7c216b1075c18da12103c70ae8ded79be1afda73b9ce5ea14a3878908ee160d66a9a717e792bb6db276952ae"], "sequence": 4294967295, "scriptSig": {"hex": "2200205fdd641234b13964b223bd85ad2a4a667ca2099df3d42a1d3b45706a8d81abf0", "asm": "00205fdd641234b13964b223bd85ad2a4a667ca2099df3d42a1d3b45706a8d81abf0"}, "vout": 1, "txid": "d31603b213db6e5403781b13030b9e3b472d5237743b7b10daaca2588dad05c1"}], "txid": "cabbfb1be2b39bfff2fcb486ba5812e1382000bced7c2ddb7cafa4806191f1a0", "blocktime": 1537869901, "version": 1, "confirmations": 11523, "time": 1537869901, "locktime": 0, "vsize": 208, "size": 373}