{"hash": "cac235db2375e06e2b0dff3e36e2cee5627938e7b37d32c65323690ff488bd4d", "blockhash": "0000000000000000000e13cef7c366c0283d82e591d1acd082e914b08063cdf1", "vout": [{"scriptPubKey": {"reqSigs": 1, "hex": "76a9149f64069a4b6d515f56203014b3e9ba4e4a024c9288ac", "addresses": ["1FXnGR4huwBRkpy1FN9snpiCsWektGpJw7"], "asm": "OP_DUP OP_HASH160 9f64069a4b6d515f56203014b3e9ba4e4a024c92 OP_EQUALVERIFY OP_CHECKSIG", "type": "pubkeyhash"}, "value": 0.0078095, "n": 0}, {"scriptPubKey": {"reqSigs": 1, "hex": "76a91421e92c60b162eef5e36fd1ccd301b48be17398b388ac", "addresses": ["146JdVw24SqRtqmP5xRNgmmvzZoo6s1yJJ"], "asm": "OP_DUP OP_HASH160 21e92c60b162eef5e36fd1ccd301b48be17398b3 OP_EQUALVERIFY OP_CHECKSIG", "type": "pubkeyhash"}, "value": 0.00784699, "n": 1}], "hex": "0100000001827ebf8dff05c6a675eda2b5c9238923f4c679eef0fd15e51a5384ef4d83b285070000006a47304402207ecb9c563f6fc9b895aec6d66775654aa9cb85266bef97d217bb947ea53a90f302204987123e0562db006dfc2f0deff7398a6e4acbf15e6d1d54bfe89413cf00b05401210300350afcbc40a438e6099f80024a10e00cfe342deba174bdc57e91bedd490df6ffffffff0296ea0b00000000001976a9149f64069a4b6d515f56203014b3e9ba4e4a024c9288ac3bf90b00000000001976a91421e92c60b162eef5e36fd1ccd301b48be17398b388ac00000000", "vin": [{"sequence": 4294967295, "scriptSig": {"hex": "47304402207ecb9c563f6fc9b895aec6d66775654aa9cb85266bef97d217bb947ea53a90f302204987123e0562db006dfc2f0deff7398a6e4acbf15e6d1d54bfe89413cf00b05401210300350afcbc40a438e6099f80024a10e00cfe342deba174bdc57e91bedd490df6", "asm": "304402207ecb9c563f6fc9b895aec6d66775654aa9cb85266bef97d217bb947ea53a90f302204987123e0562db006dfc2f0deff7398a6e4acbf15e6d1d54bfe89413cf00b054[ALL] 0300350afcbc40a438e6099f80024a10e00cfe342deba174bdc57e91bedd490df6"}, "vout": 7, "txid": "85b2834def84531ae515fdf0ee79c6f4238923c9b5a2ed75a6c605ff8dbf7e82"}], "txid": "cac235db2375e06e2b0dff3e36e2cee5627938e7b37d32c65323690ff488bd4d", "blocktime": 1537871767, "version": 1, "confirmations": 11495, "time": 1537871767, "locktime": 0, "vsize": 225, "size": 225}