{"hash": "cac250aabc1afdc6ea8ab198cef413ebab29af555a67acfa85852d6bec5705a8", "blockhash": "0000000000000000001f0ddff1eddb255c1121bcd4da4f1bc9a0da00cae72433", "vout": [{"scriptPubKey": {"reqSigs": 1, "hex": "76a914ba5a3f81ca5675b0a0507e50c5fd21a56afb26df88ac", "addresses": ["1HzLoE9E5tym55P7GahmfVVGT8B5bNa8kc"], "asm": "OP_DUP OP_HASH160 ba5a3f81ca5675b0a0507e50c5fd21a56afb26df OP_EQUALVERIFY OP_CHECKSIG", "type": "pubkeyhash"}, "value": 0.46859624, "n": 0}, {"scriptPubKey": {"reqSigs": 1, "hex": "76a914d353896f6aa0ed3ef9036179d2791429eb1fb40f88ac", "addresses": ["1LGPeigt53C9NB8S6b8qWauZm833qepbJb"], "asm": "OP_DUP OP_HASH160 d353896f6aa0ed3ef9036179d2791429eb1fb40f OP_EQUALVERIFY OP_CHECKSIG", "type": "pubkeyhash"}, "value": 3.12513342, "n": 1}], "hex": "01000000011341e9170474a93f53f645f2a77f1bb21fedc326d6b8e2091b3d0dab08501bcd010000006b483045022100a64189347185b71c3cecb8c5e5a65361eb9d42628152c76cf9850b57f1cffc77022070c70b4edeea14b2860bd67e8c1a131b1a6e3edf93291803b1944264903096b4012103f4fcb61ae77347c8efa7ec9aa154dc9ab5bcf281c6457a490b4d0f9180116fc3ffffffff026805cb02000000001976a914ba5a3f81ca5675b0a0507e50c5fd21a56afb26df88ac3e93a012000000001976a914d353896f6aa0ed3ef9036179d2791429eb1fb40f88ac00000000", "vin": [{"sequence": 4294967295, "scriptSig": {"hex": "483045022100a64189347185b71c3cecb8c5e5a65361eb9d42628152c76cf9850b57f1cffc77022070c70b4edeea14b2860bd67e8c1a131b1a6e3edf93291803b1944264903096b4012103f4fcb61ae77347c8efa7ec9aa154dc9ab5bcf281c6457a490b4d0f9180116fc3", "asm": "3045022100a64189347185b71c3cecb8c5e5a65361eb9d42628152c76cf9850b57f1cffc77022070c70b4edeea14b2860bd67e8c1a131b1a6e3edf93291803b1944264903096b4[ALL] 03f4fcb61ae77347c8efa7ec9aa154dc9ab5bcf281c6457a490b4d0f9180116fc3"}, "vout": 1, "txid": "cd1b5008ab0d3d1b09e2b8d626c3ed1fb21b7fa7f245f6533fa9740417e94113"}], "txid": "cac250aabc1afdc6ea8ab198cef413ebab29af555a67acfa85852d6bec5705a8", "blocktime": 1537872018, "version": 1, "confirmations": 11489, "time": 1537872018, "locktime": 0, "vsize": 226, "size": 226}