{"hash": "cac4572b2b7600bd0fe487e91e22989f7fbfa1c43b436d6ef35c4c7f4506817a", "blockhash": "0000000000000000001f0ddff1eddb255c1121bcd4da4f1bc9a0da00cae72433", "vout": [{"scriptPubKey": {"reqSigs": 1, "hex": "76a9141508276fd4193e83f5fce7a810a40e8f983c161988ac", "addresses": ["12vCxak5xc1t6T275xbm6AJ4xsZCxkTSc5"], "asm": "OP_DUP OP_HASH160 1508276fd4193e83f5fce7a810a40e8f983c1619 OP_EQUALVERIFY OP_CHECKSIG", "type": "pubkeyhash"}, "value": 49.99880155, "n": 0}, {"scriptPubKey": {"type": "nulldata", "hex": "6a146f6d6e69000000000000001f00001d1a94a20000", "asm": "OP_RETURN 6f6d6e69000000000000001f00001d1a94a20000"}, "value": 0.0, "n": 1}, {"scriptPubKey": {"reqSigs": 1, "hex": "a914e5797eac1b25b201fadfa39d8d6e63c7a0c4176087", "addresses": ["3NcND5dGKEfs3akGkszFPrWLfj3iLMfncc"], "asm": "OP_HASH160 e5797eac1b25b201fadfa39d8d6e63c7a0c41760 OP_EQUAL", "type": "scripthash"}, "value": 5.4e-06, "n": 2}], "hex": "010000000105c4ffd03b05a69539dfb8269b04f896dfb898a3dfbcabd0fe924717946d17e1000000006a47304402201fcf31ff245f3f911ca15322dedabb896eea54e0655032028952fb632426b1110220403d49927d4068d935d7ea08ae3dadb10809409a3dfed4078ffdfa78989070720121035bb5ec1330953265719fecb2345ebd0cd02272efa8a3a940a8a28021b37703eeffffffff03db1d042a010000001976a9141508276fd4193e83f5fce7a810a40e8f983c161988ac0000000000000000166a146f6d6e69000000000000001f00001d1a94a200001c0200000000000017a914e5797eac1b25b201fadfa39d8d6e63c7a0c417608700000000", "vin": [{"sequence": 4294967295, "scriptSig": {"hex": "47304402201fcf31ff245f3f911ca15322dedabb896eea54e0655032028952fb632426b1110220403d49927d4068d935d7ea08ae3dadb10809409a3dfed4078ffdfa78989070720121035bb5ec1330953265719fecb2345ebd0cd02272efa8a3a940a8a28021b37703ee", "asm": "304402201fcf31ff245f3f911ca15322dedabb896eea54e0655032028952fb632426b1110220403d49927d4068d935d7ea08ae3dadb10809409a3dfed4078ffdfa7898907072[ALL] 035bb5ec1330953265719fecb2345ebd0cd02272efa8a3a940a8a28021b37703ee"}, "vout": 0, "txid": "e1176d94174792fed0abbcdfa398b8df96f8049b26b8df3995a6053bd0ffc405"}], "txid": "cac4572b2b7600bd0fe487e91e22989f7fbfa1c43b436d6ef35c4c7f4506817a", "blocktime": 1537872018, "version": 1, "confirmations": 11489, "time": 1537872018, "locktime": 0, "vsize": 254, "size": 254}