{"hash": "cac82eee751f20c8d4a8ee7c17339d6bcb48ec6590ff5eba4a351cd5690a0bc4", "blockhash": "0000000000000000001f76057863aec43deb6fa401d9628bb513d65a8098bfab", "vout": [{"scriptPubKey": {"reqSigs": 1, "hex": "76a914908cf53485892f725c1a3f63f67bade01d4068e488ac", "addresses": ["1EBKAYe3FBSn5U8yYGPw5Zi2nvRGHyREng"], "asm": "OP_DUP OP_HASH160 908cf53485892f725c1a3f63f67bade01d4068e4 OP_EQUALVERIFY OP_CHECKSIG", "type": "pubkeyhash"}, "value": 0.01, "n": 0}, {"scriptPubKey": {"reqSigs": 1, "hex": "76a9148efc39a4002d7780aa70f6aee9d3c7da6baada6088ac", "addresses": ["1E3379mZkHet2kTBHH5z3B9VmffSgstmPE"], "asm": "OP_DUP OP_HASH160 8efc39a4002d7780aa70f6aee9d3c7da6baada60 OP_EQUALVERIFY OP_CHECKSIG", "type": "pubkeyhash"}, "value": 0.06974129, "n": 1}], "hex": "0100000001f3e3804edf0ee35e8a25fc830a267b17f8e4fb9164942b822a092a03c58e0488010000006a473044022029d3c2b30be5d6ba34ac86609a99f7bafd6811ac45ff60a0e2e0043adb6e57fc02207844450f6b421708bd13635e7f9910b1f80ea970a517d062aeff76f3cf476e690121023e4eea2d450dbaff5f90dd6b668c14bab9cd35c38c4f516e2cf1a6a7a6c94258ffffffff0240420f00000000001976a914908cf53485892f725c1a3f63f67bade01d4068e488acb16a6a00000000001976a9148efc39a4002d7780aa70f6aee9d3c7da6baada6088ac00000000", "vin": [{"sequence": 4294967295, "scriptSig": {"hex": "473044022029d3c2b30be5d6ba34ac86609a99f7bafd6811ac45ff60a0e2e0043adb6e57fc02207844450f6b421708bd13635e7f9910b1f80ea970a517d062aeff76f3cf476e690121023e4eea2d450dbaff5f90dd6b668c14bab9cd35c38c4f516e2cf1a6a7a6c94258", "asm": "3044022029d3c2b30be5d6ba34ac86609a99f7bafd6811ac45ff60a0e2e0043adb6e57fc02207844450f6b421708bd13635e7f9910b1f80ea970a517d062aeff76f3cf476e69[ALL] 023e4eea2d450dbaff5f90dd6b668c14bab9cd35c38c4f516e2cf1a6a7a6c94258"}, "vout": 1, "txid": "88048ec5032a092a822b946491fbe4f8177b260a83fc258a5ee30edf4e80e3f3"}], "txid": "cac82eee751f20c8d4a8ee7c17339d6bcb48ec6590ff5eba4a351cd5690a0bc4", "blocktime": 1537873891, "version": 1, "confirmations": 11475, "time": 1537873891, "locktime": 0, "vsize": 225, "size": 225}