{"hash": "cac9719e3264ee6bc05f1502cbf26390fc198f9b733626dc6fdf992a9297fb5e", "blockhash": "0000000000000000000dcc0f55137456b1a82d3642486a52398922ac4d620174", "vout": [{"scriptPubKey": {"reqSigs": 1, "hex": "76a914426c8f59a43e80d2a1acd9ff90f3b15f08f187f788ac", "addresses": ["174DeYGnAz12zTaygFeWY7czAzeXnEstnd"], "asm": "OP_DUP OP_HASH160 426c8f59a43e80d2a1acd9ff90f3b15f08f187f7 OP_EQUALVERIFY OP_CHECKSIG", "type": "pubkeyhash"}, "value": 0.02308891, "n": 0}, {"scriptPubKey": {"reqSigs": 1, "hex": "a9146edb78133a4d3ea515bc579ae6713eff22c7f38d87", "addresses": ["3BoBAd1CugVDpyW24aEyWMVYv6c5PqDp4P"], "asm": "OP_HASH160 6edb78133a4d3ea515bc579ae6713eff22c7f38d OP_EQUAL", "type": "scripthash"}, "value": 0.00197, "n": 1}, {"scriptPubKey": {"reqSigs": 1, "hex": "76a9143581d828d0f4e5a5fe720268d5a1a8efa6e00a5788ac", "addresses": ["15svMuudWfW1BgmZreMpizj5Nh4Yc9rmop"], "asm": "OP_DUP OP_HASH160 3581d828d0f4e5a5fe720268d5a1a8efa6e00a57 OP_EQUALVERIFY OP_CHECKSIG", "type": "pubkeyhash"}, "value": 0.0001027, "n": 2}], "hex": "01000000029614837b345019251c6a7da7d339e1a6881ecf611a62ff1efaddc485144c164d030000006a47304402204f751ddd8383bb2aef254a8dda83e5e0c2c21997675b4c0473ebc70fd81f069a02204c61515bdde2f007127673985f6c39f8fc7eb1bcaf9246cf0ab688e83ee55b050121022b0e530de189f3c1d2c8413f6ed16e13c1cac11faaa0ab3493a3eff1ebc5dec5ffffffff957e8c5a0ab911249ca9f9151d6254f707b91c0aa376412d55fde9a43c11b136020000006b483045022100c4724287079fd2144b5d0f634334dad1f183bd6c8419f4d9e4e3a6b6146eee4302202eccaf479f9caab297b94d2eede4a049fa689123aa4a14110427d174d348dfa001210252982c8bcf27e1df9fb5b5eead32caddfc38378e5375b0cc83c061a2790bb34affffffff031b3b2300000000001976a914426c8f59a43e80d2a1acd9ff90f3b15f08f187f788ac880103000000000017a9146edb78133a4d3ea515bc579ae6713eff22c7f38d871e280000000000001976a9143581d828d0f4e5a5fe720268d5a1a8efa6e00a5788ac00000000", "vin": [{"sequence": 4294967295, "scriptSig": {"hex": "47304402204f751ddd8383bb2aef254a8dda83e5e0c2c21997675b4c0473ebc70fd81f069a02204c61515bdde2f007127673985f6c39f8fc7eb1bcaf9246cf0ab688e83ee55b050121022b0e530de189f3c1d2c8413f6ed16e13c1cac11faaa0ab3493a3eff1ebc5dec5", "asm": "304402204f751ddd8383bb2aef254a8dda83e5e0c2c21997675b4c0473ebc70fd81f069a02204c61515bdde2f007127673985f6c39f8fc7eb1bcaf9246cf0ab688e83ee55b05[ALL] 022b0e530de189f3c1d2c8413f6ed16e13c1cac11faaa0ab3493a3eff1ebc5dec5"}, "vout": 3, "txid": "4d164c1485c4ddfa1eff621a61cf1e88a6e139d3a77d6a1c251950347b831496"}, {"sequence": 4294967295, "scriptSig": {"hex": "483045022100c4724287079fd2144b5d0f634334dad1f183bd6c8419f4d9e4e3a6b6146eee4302202eccaf479f9caab297b94d2eede4a049fa689123aa4a14110427d174d348dfa001210252982c8bcf27e1df9fb5b5eead32caddfc38378e5375b0cc83c061a2790bb34a", "asm": "3045022100c4724287079fd2144b5d0f634334dad1f183bd6c8419f4d9e4e3a6b6146eee4302202eccaf479f9caab297b94d2eede4a049fa689123aa4a14110427d174d348dfa0[ALL] 0252982c8bcf27e1df9fb5b5eead32caddfc38378e5375b0cc83c061a2790bb34a"}, "vout": 2, "txid": "36b1113ca4e9fd552d4176a30a1cb907f754621d15f9a99c2411b90a5a8c7e95"}], "txid": "cac9719e3264ee6bc05f1502cbf26390fc198f9b733626dc6fdf992a9297fb5e", "blocktime": 1537870268, "version": 1, "confirmations": 11518, "time": 1537870268, "locktime": 0, "vsize": 405, "size": 405}