{"hash": "9f6eabed2b3d677c72955167d2cb914030e6603fd5969f55b99e80003e08a563", "blockhash": "0000000000000000001e0dab787dd257d1dbfcb92a98c2207d5e1078be1f4165", "vout": [{"scriptPubKey": {"reqSigs": 1, "hex": "00145a257919de59de63e6850e9e6d84fb2841859d6b", "addresses": ["bc1qtgjhjxw7t80x8e59p60xmp8m9pqct8tt9wtep3"], "asm": "0 5a257919de59de63e6850e9e6d84fb2841859d6b", "type": "witness_v0_keyhash"}, "value": 0.01483187, "n": 0}, {"scriptPubKey": {"reqSigs": 1, "hex": "76a9149503928fe4c63417fb0f00c1d853c7ccb003ce1e88ac", "addresses": ["1EauxogrPXjGKZyNG6bRd3bjGMVoD6mH4C"], "asm": "OP_DUP OP_HASH160 9503928fe4c63417fb0f00c1d853c7ccb003ce1e OP_EQUALVERIFY OP_CHECKSIG", "type": "pubkeyhash"}, "value": 0.03737791, "n": 1}], "hex": "010000000001016e2277552fad27a62638b2c238346b698d1077cc1752dd04577f4070a78a50d32b0000001716001498fdf533b510e39ccb39298ec27253ec1413917dffffffff02b3a11600000000001600145a257919de59de63e6850e9e6d84fb2841859d6bbf083900000000001976a9149503928fe4c63417fb0f00c1d853c7ccb003ce1e88ac02483045022100e581c21cb2ff99f4f604eac313ca124c3459c4ddc715bb5366f5a880aaab906b02203c1c8c40cb838317a372772d21f09353e7b69aa5a5655f59d23babb5fd745f9d0121022bfe99251d2d3aa8f830cf3275095ba5b6e4d20fd33964a7ebe71dfca1723a9700000000", "vin": [{"txinwitness": ["3045022100e581c21cb2ff99f4f604eac313ca124c3459c4ddc715bb5366f5a880aaab906b02203c1c8c40cb838317a372772d21f09353e7b69aa5a5655f59d23babb5fd745f9d01", "022bfe99251d2d3aa8f830cf3275095ba5b6e4d20fd33964a7ebe71dfca1723a97"], "sequence": 4294967295, "scriptSig": {"hex": "16001498fdf533b510e39ccb39298ec27253ec1413917d", "asm": "001498fdf533b510e39ccb39298ec27253ec1413917d"}, "vout": 43, "txid": "d3508aa770407f5704dd5217cc77108d696b3438c2b23826a627ad2f5577226e"}], "txid": "caca1487dd953afedbd9cc38d219094ae8bfe246af254a2a97c2a99a3b9fe2ac", "blocktime": 1537872475, "version": 1, "confirmations": 11487, "time": 1537872475, "locktime": 0, "vsize": 167, "size": 249}