{"hash": "c3912a2235f9fe1796df1b2fd5a62bc5d4d04aaa754d294136c4fb9dc1c601c9", "blockhash": "0000000000000000001cda96e906b7601b7a6fb1a3b62bca570a9e5d8f4b3de1", "vout": [{"scriptPubKey": {"reqSigs": 1, "hex": "a914b4856b417b77b226ea29cfb59f44a0a7cf355de287", "addresses": ["3J9XPBijh6U7Bvcb6eFLcK3WQMYUWhUPc9"], "asm": "OP_HASH160 b4856b417b77b226ea29cfb59f44a0a7cf355de2 OP_EQUAL", "type": "scripthash"}, "value": 0.0036, "n": 0}, {"scriptPubKey": {"reqSigs": 1, "hex": "0014a27374f162551615ca56e64c1f11ac2f056d7c17", "addresses": ["bc1q5fehfutz25tptjjkuexp7ydv9uzk6lqhly30cy"], "asm": "0 a27374f162551615ca56e64c1f11ac2f056d7c17", "type": "witness_v0_keyhash"}, "value": 0.1146844, "n": 1}], "hex": "010000000001010ec644a09578f409ba072344f5872c2ea25d9dea79dd31c6e4b07920db5c009a000000001716001498059715607f999280576eaf982fde240bee21dfffffffff02407e05000000000017a914b4856b417b77b226ea29cfb59f44a0a7cf355de28798feae0000000000160014a27374f162551615ca56e64c1f11ac2f056d7c170248304502210082ea9dcc97e8cc99a4d805ebdc0211d3cfbd30c0666514588110b36bef0cdfb502205e43136528afe6ab1540c48368db6774822c8bf70099108cfec1b1c9168edf70012103e52189d14ff0ab46f0a8d7561a3611cc5f3a33c4702ce0cc1a646275097c9f9700000000", "vin": [{"txinwitness": ["304502210082ea9dcc97e8cc99a4d805ebdc0211d3cfbd30c0666514588110b36bef0cdfb502205e43136528afe6ab1540c48368db6774822c8bf70099108cfec1b1c9168edf7001", "03e52189d14ff0ab46f0a8d7561a3611cc5f3a33c4702ce0cc1a646275097c9f97"], "sequence": 4294967295, "scriptSig": {"hex": "16001498059715607f999280576eaf982fde240bee21df", "asm": "001498059715607f999280576eaf982fde240bee21df"}, "vout": 0, "txid": "9a005cdb2079b0e4c631dd79ea9d5da22e2c87f5442307ba09f47895a044c60e"}], "txid": "cacbc4ba0cc6e29e6c12fc2a8f7e9c53ff4942d0b161326b071a0fdd192112ca", "blocktime": 1537873282, "version": 1, "confirmations": 11481, "time": 1537873282, "locktime": 0, "vsize": 165, "size": 247}