{"hash": "9fdf985629860d1a2991bbb365f0b4dd746f7b016bd3387eb8985ee93f4e48fe", "blockhash": "00000000000000000018f53835495a110e01622372bf6ae95dc86f2b0ab887b0", "vout": [{"scriptPubKey": {"reqSigs": 1, "hex": "a914f60707c1842f21ef4ff6d941fba24737ce61d8d987", "addresses": ["3Q7taCzeCGnQi8kUeE69bExzRyKRb9bNvJ"], "asm": "OP_HASH160 f60707c1842f21ef4ff6d941fba24737ce61d8d9 OP_EQUAL", "type": "scripthash"}, "value": 0.01504999, "n": 0}, {"scriptPubKey": {"reqSigs": 1, "hex": "a9149d9a0a91eb9dc8871630f596dbfb67763240927787", "addresses": ["3G4LYdvuQ3WR6njecwXueGypfiaSg54XAZ"], "asm": "OP_HASH160 9d9a0a91eb9dc8871630f596dbfb677632409277 OP_EQUAL", "type": "scripthash"}, "value": 0.00791175, "n": 1}], "hex": "02000000000102c041162231234cc722a0af512d7437e90c305e5a931699bdf36f140ae0550109010000001716001471dddef37b7c92c5551719f358310683a4c757c3feffffffc473155a207bb94275b24d0177a4c29b6d2067073ee2182f8f9b97f21b5222980000000017160014eda77e5a7a1cd2afda5a8bf4abec9a8ef44e9b12feffffff02e7f616000000000017a914f60707c1842f21ef4ff6d941fba24737ce61d8d98787120c000000000017a9149d9a0a91eb9dc8871630f596dbfb6776324092778702473044022005062a46357f21719c11280bff272e2f1ec99896d046617f68e97c77424a1d8802201dd9fed915a768c0cccf4080e9032092509095a719b7e3e4059445f272bdaef70121034ec4ece484dd6e147db262e1bb8b8d09570d5c09aefe08ea3032e952e7fbce7602473044022047ea550bb6157b1464436aaf1d0b0de9084ec4ca1af67fd8bcda14cfb66b96420220416e4ab8bc619b95b5180ce83e15fc6a87012a4fdc8cd1c572625f9e2586e17f0121029ab7380f1e84c992fe9c1d7c639a821794bc91b470100d3c3ceb61660292ee740e490800", "vin": [{"txinwitness": ["3044022005062a46357f21719c11280bff272e2f1ec99896d046617f68e97c77424a1d8802201dd9fed915a768c0cccf4080e9032092509095a719b7e3e4059445f272bdaef701", "034ec4ece484dd6e147db262e1bb8b8d09570d5c09aefe08ea3032e952e7fbce76"], "sequence": 4294967294, "scriptSig": {"hex": "16001471dddef37b7c92c5551719f358310683a4c757c3", "asm": "001471dddef37b7c92c5551719f358310683a4c757c3"}, "vout": 1, "txid": "090155e00a146ff3bd9916935a5e300ce937742d51afa022c74c2331221641c0"}, {"txinwitness": ["3044022047ea550bb6157b1464436aaf1d0b0de9084ec4ca1af67fd8bcda14cfb66b96420220416e4ab8bc619b95b5180ce83e15fc6a87012a4fdc8cd1c572625f9e2586e17f01", "029ab7380f1e84c992fe9c1d7c639a821794bc91b470100d3c3ceb61660292ee74"], "sequence": 4294967294, "scriptSig": {"hex": "160014eda77e5a7a1cd2afda5a8bf4abec9a8ef44e9b12", "asm": "0014eda77e5a7a1cd2afda5a8bf4abec9a8ef44e9b12"}, "vout": 0, "txid": "9822521bf2979b8f2f18e23e0767206d9bc2a477014db27542b97b205a1573c4"}], "txid": "cacd63ce22928907ae5b731ec8f0885917abd6d7dd690e3518d3f39600c8af32", "blocktime": 1537870928, "version": 2, "confirmations": 11514, "time": 1537870928, "locktime": 542990, "vsize": 256, "size": 418}