{"hash": "cacf5d6623106141685f2ecc408a0619b0daa622cfd026255f3ac43ca8910857", "blockhash": "00000000000000000004ffacab907a6b429b9a5745fa0b75af4234bf69dd7176", "vout": [{"scriptPubKey": {"reqSigs": 1, "hex": "76a914335a6effe143eb01c53f000b9cd4a872552b684688ac", "addresses": ["15gXoDjJzZ6zFbyR7sahBCYcRs4uQMDmG7"], "asm": "OP_DUP OP_HASH160 335a6effe143eb01c53f000b9cd4a872552b6846 OP_EQUALVERIFY OP_CHECKSIG", "type": "pubkeyhash"}, "value": 0.00022, "n": 0}, {"scriptPubKey": {"reqSigs": 1, "hex": "76a914910f85006a17a688e88157626c809ea520a5da1b88ac", "addresses": ["1EE1a8eKxQUeNQMMxGNSDcbeG8xLJPXPgn"], "asm": "OP_DUP OP_HASH160 910f85006a17a688e88157626c809ea520a5da1b OP_EQUALVERIFY OP_CHECKSIG", "type": "pubkeyhash"}, "value": 0.04742378, "n": 1}], "hex": "0200000001e6000227521a5fdb04d385819468b9a4d3c999946a0a48bcce7fc6ea614e5f45010000006b483045022100a217267812bca2a77e5b9c841e4f3f2ec712a98377bb1420aa09256e3a6176e10220671f0a908c9eb6a0fb9e3dafc762d8844a8c48046df777e47de33d5f4ff4c518012102b757718678f8cc61064cd7f925569056b9462e01819a3c5cb6212edd61b14c3dffffffff02f0550000000000001976a914335a6effe143eb01c53f000b9cd4a872552b684688acea5c4800000000001976a914910f85006a17a688e88157626c809ea520a5da1b88ac00000000", "vin": [{"sequence": 4294967295, "scriptSig": {"hex": "483045022100a217267812bca2a77e5b9c841e4f3f2ec712a98377bb1420aa09256e3a6176e10220671f0a908c9eb6a0fb9e3dafc762d8844a8c48046df777e47de33d5f4ff4c518012102b757718678f8cc61064cd7f925569056b9462e01819a3c5cb6212edd61b14c3d", "asm": "3045022100a217267812bca2a77e5b9c841e4f3f2ec712a98377bb1420aa09256e3a6176e10220671f0a908c9eb6a0fb9e3dafc762d8844a8c48046df777e47de33d5f4ff4c518[ALL] 02b757718678f8cc61064cd7f925569056b9462e01819a3c5cb6212edd61b14c3d"}, "vout": 1, "txid": "455f4e61eac67fcebc480a6a9499c9d3a4b968948185d304db5f1a52270200e6"}], "txid": "cacf5d6623106141685f2ecc408a0619b0daa622cfd026255f3ac43ca8910857", "blocktime": 1537875543, "version": 2, "confirmations": 11464, "time": 1537875543, "locktime": 0, "vsize": 226, "size": 226}