{"hash": "cad04608c179cc8e5326fe7bdad3b0fd0854eef5a732c2522175ca91225434d5", "blockhash": "00000000000000000018f53835495a110e01622372bf6ae95dc86f2b0ab887b0", "vout": [{"scriptPubKey": {"reqSigs": 1, "hex": "76a914047d0cbef46bc60a6727680265783dc68761a9f988ac", "addresses": ["1QjWNyqax3B6cdHeM28tn7kh7sLHJG5aD"], "asm": "OP_DUP OP_HASH160 047d0cbef46bc60a6727680265783dc68761a9f9 OP_EQUALVERIFY OP_CHECKSIG", "type": "pubkeyhash"}, "value": 0.00488722, "n": 0}, {"scriptPubKey": {"reqSigs": 1, "hex": "76a9147ab6ffc336343cb8289990f4f9bb5960dd6b327988ac", "addresses": ["1CBrfQJZqkrjfw9bUMgqAEzSAxgCScsBa8"], "asm": "OP_DUP OP_HASH160 7ab6ffc336343cb8289990f4f9bb5960dd6b3279 OP_EQUALVERIFY OP_CHECKSIG", "type": "pubkeyhash"}, "value": 0.00331105, "n": 1}], "hex": "0100000001f66f327293a7fd273324c3639aa98698bf6d8dbcf7ea103013aa9df96a1b4bae000000006a4730440220255bb3d16e579dec185a09d46ef883363535674cfdc2b14edaf08b67133c927302207505301e47e5f91d31d396fe36b3a56df3827fc96aeb12272cf20b233c9b3719012103bbebf4dafc1295e3cff7535e397ae3f78ce914baf0e98fe522e99898f535f828ffffffff0212750700000000001976a914047d0cbef46bc60a6727680265783dc68761a9f988ac610d0500000000001976a9147ab6ffc336343cb8289990f4f9bb5960dd6b327988ac00000000", "vin": [{"sequence": 4294967295, "scriptSig": {"hex": "4730440220255bb3d16e579dec185a09d46ef883363535674cfdc2b14edaf08b67133c927302207505301e47e5f91d31d396fe36b3a56df3827fc96aeb12272cf20b233c9b3719012103bbebf4dafc1295e3cff7535e397ae3f78ce914baf0e98fe522e99898f535f828", "asm": "30440220255bb3d16e579dec185a09d46ef883363535674cfdc2b14edaf08b67133c927302207505301e47e5f91d31d396fe36b3a56df3827fc96aeb12272cf20b233c9b3719[ALL] 03bbebf4dafc1295e3cff7535e397ae3f78ce914baf0e98fe522e99898f535f828"}, "vout": 0, "txid": "ae4b1b6af99daa133010eaf7bc8d6dbf9886a99a63c3243327fda79372326ff6"}], "txid": "cad04608c179cc8e5326fe7bdad3b0fd0854eef5a732c2522175ca91225434d5", "blocktime": 1537870928, "version": 1, "confirmations": 11512, "time": 1537870928, "locktime": 0, "vsize": 225, "size": 225}