{"hash": "cad1497b8bdef311d15ee88538c0d959d1ff7d77f99b3f190df5a747c9f806e9", "blockhash": "0000000000000000001f0ddff1eddb255c1121bcd4da4f1bc9a0da00cae72433", "vout": [{"scriptPubKey": {"reqSigs": 1, "hex": "76a914197d414fe1fcdd7bc0af0ffcebc9b8786b756fd888ac", "addresses": ["13Kmwg7n7jAPuSMqTXTFYxZmLTRD59598c"], "asm": "OP_DUP OP_HASH160 197d414fe1fcdd7bc0af0ffcebc9b8786b756fd8 OP_EQUALVERIFY OP_CHECKSIG", "type": "pubkeyhash"}, "value": 0.01026713, "n": 0}, {"scriptPubKey": {"reqSigs": 1, "hex": "76a9142bc9eaa71dbb75304815939c6cae84d557af7ff188ac", "addresses": ["14zXwfLFjXcqur3AxXbkrGzB7YsniPC78r"], "asm": "OP_DUP OP_HASH160 2bc9eaa71dbb75304815939c6cae84d557af7ff1 OP_EQUALVERIFY OP_CHECKSIG", "type": "pubkeyhash"}, "value": 0.0036288, "n": 1}], "hex": "0100000004ce3fb21244f451aacb01f71ce59ffdbea6002dff2a4536cabf1a0fefbd17367f010000006a47304402203bd630ca32cb3e7a00a84191de56e549985ff61b439296d892332e15bd41951c02200d29ce61d49ec27a528e60d57f9bdeb7bfcda01e2b220a3bd437668e0dae82e0012102f51cdbadc235b342b62950cd1b37a7266de678e4cc6f9a501c55fbaa1da7c36fffffffff94d29c875ba5fa6de4560aa64d28219eed7b4f9776565c36ba00fbaa2c83f2db010000006a473044022061e9ca3e67e8459395516407e3da5dd850c9c843b7fef5754b8738f62e05eb9d02207579b822dfb7c3eece88868067c8cf4204e05c882480d5c0f83e23cb4d9f17fa012103396a0dafeb4399a6b1c1d729a3ffdf11142e56e6ecb8a6bf086c42809c68a9ddffffffffe13856bdd08e6932c835118a7b1cc1f1b58a1a248ed70614ca5438c3036ea34b010000006b483045022100d9d205f11399d301f329c3652d9f85867cdfe570aae7ca29d7972b052ae1b3e2022003a1e5b4136acfcc24bb12109e5a0aa7a9cf1b4ce6bd674d82c2fcede9671930012103315a3a41c79e1ebc65cce68f1289d782d60575ed654efbcabcd944a6c4502579ffffffff2ace968a961489ede59e54c7952c4e87b5327a24ad54d282157c5606d922dec6010000006b483045022100f81144d511519f5911a987ccdafd104d7076269d6b0366dcef57bfc6bc5805870220180d3e8bf69e60b81aee94c1b12b9f4c7d1f2042673a9134692272b55fa8bd3d0121031f41d00bc7f8140454c00c5e5e358d4ceb57fc6bf5a22132aa79cd3b8f5c7e35ffffffff0299aa0f00000000001976a914197d414fe1fcdd7bc0af0ffcebc9b8786b756fd888ac80890500000000001976a9142bc9eaa71dbb75304815939c6cae84d557af7ff188ac00000000", "vin": [{"sequence": 4294967295, "scriptSig": {"hex": "47304402203bd630ca32cb3e7a00a84191de56e549985ff61b439296d892332e15bd41951c02200d29ce61d49ec27a528e60d57f9bdeb7bfcda01e2b220a3bd437668e0dae82e0012102f51cdbadc235b342b62950cd1b37a7266de678e4cc6f9a501c55fbaa1da7c36f", "asm": "304402203bd630ca32cb3e7a00a84191de56e549985ff61b439296d892332e15bd41951c02200d29ce61d49ec27a528e60d57f9bdeb7bfcda01e2b220a3bd437668e0dae82e0[ALL] 02f51cdbadc235b342b62950cd1b37a7266de678e4cc6f9a501c55fbaa1da7c36f"}, "vout": 1, "txid": "7f3617bdef0f1abfca36452aff2d00a6befd9fe51cf701cbaa51f44412b23fce"}, {"sequence": 4294967295, "scriptSig": {"hex": "473044022061e9ca3e67e8459395516407e3da5dd850c9c843b7fef5754b8738f62e05eb9d02207579b822dfb7c3eece88868067c8cf4204e05c882480d5c0f83e23cb4d9f17fa012103396a0dafeb4399a6b1c1d729a3ffdf11142e56e6ecb8a6bf086c42809c68a9dd", "asm": "3044022061e9ca3e67e8459395516407e3da5dd850c9c843b7fef5754b8738f62e05eb9d02207579b822dfb7c3eece88868067c8cf4204e05c882480d5c0f83e23cb4d9f17fa[ALL] 03396a0dafeb4399a6b1c1d729a3ffdf11142e56e6ecb8a6bf086c42809c68a9dd"}, "vout": 1, "txid": "dbf2832caafb00ba365c5676974f7bed9e21284da60a56e46dfaa55b879cd294"}, {"sequence": 4294967295, "scriptSig": {"hex": "483045022100d9d205f11399d301f329c3652d9f85867cdfe570aae7ca29d7972b052ae1b3e2022003a1e5b4136acfcc24bb12109e5a0aa7a9cf1b4ce6bd674d82c2fcede9671930012103315a3a41c79e1ebc65cce68f1289d782d60575ed654efbcabcd944a6c4502579", "asm": "3045022100d9d205f11399d301f329c3652d9f85867cdfe570aae7ca29d7972b052ae1b3e2022003a1e5b4136acfcc24bb12109e5a0aa7a9cf1b4ce6bd674d82c2fcede9671930[ALL] 03315a3a41c79e1ebc65cce68f1289d782d60575ed654efbcabcd944a6c4502579"}, "vout": 1, "txid": "4ba36e03c33854ca1406d78e241a8ab5f1c11c7b8a1135c832698ed0bd5638e1"}, {"sequence": 4294967295, "scriptSig": {"hex": "483045022100f81144d511519f5911a987ccdafd104d7076269d6b0366dcef57bfc6bc5805870220180d3e8bf69e60b81aee94c1b12b9f4c7d1f2042673a9134692272b55fa8bd3d0121031f41d00bc7f8140454c00c5e5e358d4ceb57fc6bf5a22132aa79cd3b8f5c7e35", "asm": "3045022100f81144d511519f5911a987ccdafd104d7076269d6b0366dcef57bfc6bc5805870220180d3e8bf69e60b81aee94c1b12b9f4c7d1f2042673a9134692272b55fa8bd3d[ALL] 031f41d00bc7f8140454c00c5e5e358d4ceb57fc6bf5a22132aa79cd3b8f5c7e35"}, "vout": 1, "txid": "c6de22d906567c1582d254ad247a32b5874e2c95c7549ee5ed8914968a96ce2a"}], "txid": "cad1497b8bdef311d15ee88538c0d959d1ff7d77f99b3f190df5a747c9f806e9", "blocktime": 1537872018, "version": 1, "confirmations": 11489, "time": 1537872018, "locktime": 0, "vsize": 668, "size": 668}