{"hash": "cad4c0796b90d13faea8ff560d6bb9bca1c5916e56573875e0bb4d18045abe21", "blockhash": "000000000000000000022b45ed06c6f4ccd3cf7fb5ba4856ebd2e58215665228", "vout": [{"scriptPubKey": {"reqSigs": 1, "hex": "76a9144ffd251f0b182d11377d625e9bf9ea87f100c7d488ac", "addresses": ["18Hwdyien6vja41cwFq3k9hcLMfiJKeMQw"], "asm": "OP_DUP OP_HASH160 4ffd251f0b182d11377d625e9bf9ea87f100c7d4 OP_EQUALVERIFY OP_CHECKSIG", "type": "pubkeyhash"}, "value": 0.047674, "n": 0}, {"scriptPubKey": {"reqSigs": 1, "hex": "76a91420035e3e966f35eb3319ddf798c1637780eb162088ac", "addresses": ["13vGfAMLXpmAz7xM7WSsqLhkvEZdoKrMe3"], "asm": "OP_DUP OP_HASH160 20035e3e966f35eb3319ddf798c1637780eb1620 OP_EQUALVERIFY OP_CHECKSIG", "type": "pubkeyhash"}, "value": 16.41000354, "n": 1}], "hex": "02000000013dd8d178327415d38f9201f47851e7f0d0ca093537d4ff111c5ab6c7fc30bc1d010000006b483045022100f2f0b1571607b10cfc0120c9a8285bb36b49af90976e73a42e4521dc1950a726022010c85acb09cbe733756efb563d4a33f330388f09d76aeb096563b3cb7330edb7012102aebb22a6d860a488e4541297e722e959d95f69d8d5922cd50ddb9e9cdf1ac257ffffffff02a8be4800000000001976a9144ffd251f0b182d11377d625e9bf9ea87f100c7d488aca2adcf61000000001976a91420035e3e966f35eb3319ddf798c1637780eb162088ac00000000", "vin": [{"sequence": 4294967295, "scriptSig": {"hex": "483045022100f2f0b1571607b10cfc0120c9a8285bb36b49af90976e73a42e4521dc1950a726022010c85acb09cbe733756efb563d4a33f330388f09d76aeb096563b3cb7330edb7012102aebb22a6d860a488e4541297e722e959d95f69d8d5922cd50ddb9e9cdf1ac257", "asm": "3045022100f2f0b1571607b10cfc0120c9a8285bb36b49af90976e73a42e4521dc1950a726022010c85acb09cbe733756efb563d4a33f330388f09d76aeb096563b3cb7330edb7[ALL] 02aebb22a6d860a488e4541297e722e959d95f69d8d5922cd50ddb9e9cdf1ac257"}, "vout": 1, "txid": "1dbc30fcc7b65a1c11ffd4373509cad0f0e75178f401928fd315743278d1d83d"}], "txid": "cad4c0796b90d13faea8ff560d6bb9bca1c5916e56573875e0bb4d18045abe21", "blocktime": 1537869901, "version": 2, "confirmations": 11524, "time": 1537869901, "locktime": 0, "vsize": 226, "size": 226}