{"hash": "cad5909f66a98789d332b0e96518f95eee5713e44072497d67eede3df5e9a743", "blockhash": "0000000000000000001f76057863aec43deb6fa401d9628bb513d65a8098bfab", "vout": [{"scriptPubKey": {"reqSigs": 1, "hex": "76a914ac6c3ea30dcb192431f3f65239ec2e21686ccdd988ac", "addresses": ["1Gigty578oS1Q6V3NipwhqxzuG6LSqE8jm"], "asm": "OP_DUP OP_HASH160 ac6c3ea30dcb192431f3f65239ec2e21686ccdd9 OP_EQUALVERIFY OP_CHECKSIG", "type": "pubkeyhash"}, "value": 0.00588775, "n": 0}, {"scriptPubKey": {"type": "nulldata", "hex": "6a4c50000077e4000167df72fb503605953f25f60a7af8e8e963c7cfd5b95b23cc0f42c2fc38c5f5201554d03010031cbc1a7f37323a855baa17330612509c148db5821d100759d4ba30d2c37bb011d97e02cf", "asm": "OP_RETURN 000077e4000167df72fb503605953f25f60a7af8e8e963c7cfd5b95b23cc0f42c2fc38c5f5201554d03010031cbc1a7f37323a855baa17330612509c148db5821d100759d4ba30d2c37bb011d97e02cf"}, "value": 0.0, "n": 1}], "hex": "01000000015c4dd8886e69618c7f5b41678c3c1e67dea8d1684bb55beb733dd3cf4a5780d7000000006b483045022100b5c77f98a65fc038c9bf5c7cbc6b9809a4ed9b62383d01bf9a17cde5eeff1bb50220069b235ce6d454182c0726b3939b90fe7b9d54648ccad5e37ba86f7907187ea80121023a94758ce5305b4526e2f4e04e0486c1c36f469b4a6bb2e55a80fc47255d3486ffffffff02e7fb0800000000001976a914ac6c3ea30dcb192431f3f65239ec2e21686ccdd988ac0000000000000000536a4c50000077e4000167df72fb503605953f25f60a7af8e8e963c7cfd5b95b23cc0f42c2fc38c5f5201554d03010031cbc1a7f37323a855baa17330612509c148db5821d100759d4ba30d2c37bb011d97e02cf00000000", "vin": [{"sequence": 4294967295, "scriptSig": {"hex": "483045022100b5c77f98a65fc038c9bf5c7cbc6b9809a4ed9b62383d01bf9a17cde5eeff1bb50220069b235ce6d454182c0726b3939b90fe7b9d54648ccad5e37ba86f7907187ea80121023a94758ce5305b4526e2f4e04e0486c1c36f469b4a6bb2e55a80fc47255d3486", "asm": "3045022100b5c77f98a65fc038c9bf5c7cbc6b9809a4ed9b62383d01bf9a17cde5eeff1bb50220069b235ce6d454182c0726b3939b90fe7b9d54648ccad5e37ba86f7907187ea8[ALL] 023a94758ce5305b4526e2f4e04e0486c1c36f469b4a6bb2e55a80fc47255d3486"}, "vout": 0, "txid": "d780574acfd33d73eb5bb54b68d1a8de671e3c8c67415b7f8c61696e88d84d5c"}], "txid": "cad5909f66a98789d332b0e96518f95eee5713e44072497d67eede3df5e9a743", "blocktime": 1537873891, "version": 1, "confirmations": 11477, "time": 1537873891, "locktime": 0, "vsize": 284, "size": 284}