{"hash": "8eb70e3db2f91ae31a7a3b273af2fb0eb9507146d8b917f8c1a8c42c89b6f169", "blockhash": "00000000000000000004ffacab907a6b429b9a5745fa0b75af4234bf69dd7176", "vout": [{"scriptPubKey": {"reqSigs": 1, "hex": "a914cc8b4af206cd1951079171defb760be7c7e686a787", "addresses": ["3LLYdub2ngB13EtSi2yaxvrmWHnPuraXAZ"], "asm": "OP_HASH160 cc8b4af206cd1951079171defb760be7c7e686a7 OP_EQUAL", "type": "scripthash"}, "value": 0.00437, "n": 0}, {"scriptPubKey": {"reqSigs": 1, "hex": "76a91477914a9f321d8d0074ae4b8a7c9985362e925fd088ac", "addresses": ["1BuDTrk6Af7P258jBpDZJYsbkcMDudk172"], "asm": "OP_DUP OP_HASH160 77914a9f321d8d0074ae4b8a7c9985362e925fd0 OP_EQUALVERIFY OP_CHECKSIG", "type": "pubkeyhash"}, "value": 0.05475162, "n": 1}, {"scriptPubKey": {"reqSigs": 1, "hex": "a9149c7b5487324966cb502fb438dc319858992b666e87", "addresses": ["3FxR5boxpqPCZJJ1fPNWzV8CFYberB9vt7"], "asm": "OP_HASH160 9c7b5487324966cb502fb438dc319858992b666e OP_EQUAL", "type": "scripthash"}, "value": 0.00234371, "n": 2}, {"scriptPubKey": {"reqSigs": 1, "hex": "a9141988a27e3c2df4ddee7fad5a2303d086179b2a3087", "addresses": ["3422VtS7UtCvXYxoXMVp6eZupR252z85oC"], "asm": "OP_HASH160 1988a27e3c2df4ddee7fad5a2303d086179b2a30 OP_EQUAL", "type": "scripthash"}, "value": 2.65598057, "n": 3}], "hex": "01000000000101221792402bcfb3c9fcaae28871992945257f0f0b3952e228a610b6965cadb4ec010000002322002065d416c48a8072e0ac51c2d111eb194f009caef0332446c1bf2097316cf07fa9ffffffff0408ab06000000000017a914cc8b4af206cd1951079171defb760be7c7e686a7875a8b5300000000001976a91477914a9f321d8d0074ae4b8a7c9985362e925fd088ac839303000000000017a9149c7b5487324966cb502fb438dc319858992b666e8769b4d40f0000000017a9141988a27e3c2df4ddee7fad5a2303d086179b2a30870400483045022100b0e7aaaa9a30c5075c32be33facc791a8a42f9455f9cd595d44f0e52abcb431c02205c46eb55cc4e7cd3b6a8bae66b231ab42228ec999174ee0ca7c299fec1527c8601473044022033a7fcc5065f26aa4c157fa87f004065a269e8b2a89bd9a8a1a5e18c3a267b2802205aff74c8d2395cedf244e0ad334639989b40d95703d9ded0cd6db87a98de12b20169522102f44abcf9e23c9a460da309ccca56c619c04eed3bde2c2cff5e7d78fbcd980b9c2103c9443cf3047bb6c2c82f1b0c44c36109cdc3d0d601d16d1189a1602bf8d1a0a02103bfe867059274412412e088af5572b92168c2ef495cfe6c9b7a753a009eb37c4853ae00000000", "vin": [{"txinwitness": ["", "3045022100b0e7aaaa9a30c5075c32be33facc791a8a42f9455f9cd595d44f0e52abcb431c02205c46eb55cc4e7cd3b6a8bae66b231ab42228ec999174ee0ca7c299fec1527c8601", "3044022033a7fcc5065f26aa4c157fa87f004065a269e8b2a89bd9a8a1a5e18c3a267b2802205aff74c8d2395cedf244e0ad334639989b40d95703d9ded0cd6db87a98de12b201", "522102f44abcf9e23c9a460da309ccca56c619c04eed3bde2c2cff5e7d78fbcd980b9c2103c9443cf3047bb6c2c82f1b0c44c36109cdc3d0d601d16d1189a1602bf8d1a0a02103bfe867059274412412e088af5572b92168c2ef495cfe6c9b7a753a009eb37c4853ae"], "sequence": 4294967295, "scriptSig": {"hex": "22002065d416c48a8072e0ac51c2d111eb194f009caef0332446c1bf2097316cf07fa9", "asm": "002065d416c48a8072e0ac51c2d111eb194f009caef0332446c1bf2097316cf07fa9"}, "vout": 1, "txid": "ecb4ad5c96b610a628e252390b0f7f254529997188e2aafcc9b3cf2b40921722"}], "txid": "cad55ca7195cdad4912d52d715479c71fe41fe797e0ef12e5ab51b37e3b398d5", "blocktime": 1537875543, "version": 1, "confirmations": 11464, "time": 1537875543, "locktime": 0, "vsize": 280, "size": 471}