{"hash": "253881d6d238d152d18024fdf302fe8ba9938ca61c6e1f7deb9e02e713ce26a7", "blockhash": "000000000000000000205f8b0775d31398ef75b89a5e8ec8d2c57b4dc0ac4c20", "vout": [{"scriptPubKey": {"reqSigs": 1, "hex": "a91406542b24b827dfa3e3afe165fc471f2fb9857a2b87", "addresses": ["32GUopu8itvsEUPge6xEr3eh9Gec6t6hhE"], "asm": "OP_HASH160 06542b24b827dfa3e3afe165fc471f2fb9857a2b OP_EQUAL", "type": "scripthash"}, "value": 0.0015, "n": 0}], "hex": "01000000000101ce76f72c0a70ad37ec82d89f8b0e02b9e642471306f51adb1ecf08e4ba8e3b670000000017160014a613d348dad2b64f05ae39b37eaf6038068a2df7ffffffff01f04902000000000017a91406542b24b827dfa3e3afe165fc471f2fb9857a2b8702483045022100ad88e0bfd6ddd0ceac802aaf96b0c0e3db6c7d28baf4be7ddf8999e0dc1f149702202e33852089fcc7040bc4a833af003ed3ab90a85ca2c1fa3141307aa483bbe54c012102ddfeee15ef5e541cb76225bf26869141f0813d2acb6c6d64690d6b3f623e60e700000000", "vin": [{"txinwitness": ["3045022100ad88e0bfd6ddd0ceac802aaf96b0c0e3db6c7d28baf4be7ddf8999e0dc1f149702202e33852089fcc7040bc4a833af003ed3ab90a85ca2c1fa3141307aa483bbe54c01", "02ddfeee15ef5e541cb76225bf26869141f0813d2acb6c6d64690d6b3f623e60e7"], "sequence": 4294967295, "scriptSig": {"hex": "160014a613d348dad2b64f05ae39b37eaf6038068a2df7", "asm": "0014a613d348dad2b64f05ae39b37eaf6038068a2df7"}, "vout": 0, "txid": "673b8ebae408cf1edb1af506134742e6b9020e8b9fd882ec37ad700a2cf776ce"}], "txid": "cad6591f63cb403ce7476b2f21d124b76c6796946e2dc416252d7d828b8aa361", "blocktime": 1537871175, "version": 1, "confirmations": 11511, "time": 1537871175, "locktime": 0, "vsize": 134, "size": 216}