{"hash": "cad78bcb15cd6dd43b7359ae0231a9f10e0eaf5b657e90c5e4db74180b5a1fe7", "blockhash": "0000000000000000000e13cef7c366c0283d82e591d1acd082e914b08063cdf1", "vout": [{"scriptPubKey": {"reqSigs": 1, "hex": "76a914e0c76689d97203d89ddebf3b4a12a0bc497b415e88ac", "addresses": ["1MVXEZdCPtbBZUGycxnG3BjMWb62voAJfQ"], "asm": "OP_DUP OP_HASH160 e0c76689d97203d89ddebf3b4a12a0bc497b415e OP_EQUALVERIFY OP_CHECKSIG", "type": "pubkeyhash"}, "value": 0.00246354, "n": 0}, {"scriptPubKey": {"reqSigs": 1, "hex": "76a9142b4fcc217b910a97156d35f9a1b31fd1b42776db88ac", "addresses": ["14x1efm6dbMSEnSuzNdXChpNNdfn1Aigt1"], "asm": "OP_DUP OP_HASH160 2b4fcc217b910a97156d35f9a1b31fd1b42776db OP_EQUALVERIFY OP_CHECKSIG", "type": "pubkeyhash"}, "value": 0.04580597, "n": 1}], "hex": "0100000001136bfb7ac32fafbce970e854f67dcd675d2b3b3ff5c23a0336882fffead09f3f010000006a473044022029c19467d1ce958ac6429871782dcdd3b62711aa692111b6e7f4cbf3ae13566d02200e449500ff0d4d929496cf5d56dd4a6dce986568b441607b94439ef655892f320121029f858fdd2c5794f8e9db40cc39772a86388f6ab4eb081e2252949f04b79885c6ffffffff0252c20300000000001976a914e0c76689d97203d89ddebf3b4a12a0bc497b415e88acf5e44500000000001976a9142b4fcc217b910a97156d35f9a1b31fd1b42776db88ac00000000", "vin": [{"sequence": 4294967295, "scriptSig": {"hex": "473044022029c19467d1ce958ac6429871782dcdd3b62711aa692111b6e7f4cbf3ae13566d02200e449500ff0d4d929496cf5d56dd4a6dce986568b441607b94439ef655892f320121029f858fdd2c5794f8e9db40cc39772a86388f6ab4eb081e2252949f04b79885c6", "asm": "3044022029c19467d1ce958ac6429871782dcdd3b62711aa692111b6e7f4cbf3ae13566d02200e449500ff0d4d929496cf5d56dd4a6dce986568b441607b94439ef655892f32[ALL] 029f858fdd2c5794f8e9db40cc39772a86388f6ab4eb081e2252949f04b79885c6"}, "vout": 1, "txid": "3f9fd0eaff2f8836033ac2f53f3b2b5d67cd7df654e870e9bcaf2fc37afb6b13"}], "txid": "cad78bcb15cd6dd43b7359ae0231a9f10e0eaf5b657e90c5e4db74180b5a1fe7", "blocktime": 1537871767, "version": 1, "confirmations": 11492, "time": 1537871767, "locktime": 0, "vsize": 225, "size": 225}