{"hash": "cada6964a6979a70629ce1d5121d12aafeb2cd08d8cb8a5ac60fc457eb3ee55d", "blockhash": "00000000000000000024a2167bbff67b0be802c0b01cdd79e6331c2be6459f87", "vout": [{"scriptPubKey": {"reqSigs": 1, "hex": "76a91409b5c7d3b59265f5cd48394642b6ada776ea935f88ac", "addresses": ["1tLr4cDTQYTiTCadrqEjwcdf9gt6TALuZ"], "asm": "OP_DUP OP_HASH160 09b5c7d3b59265f5cd48394642b6ada776ea935f OP_EQUALVERIFY OP_CHECKSIG", "type": "pubkeyhash"}, "value": 0.00077518, "n": 0}, {"scriptPubKey": {"reqSigs": 1, "hex": "76a914cd545a6b57dc07522709b58c7ca662fc8f50cb0388ac", "addresses": ["1KigaHj1oJPbdYUTfh6coSoYLqS6uEqzwt"], "asm": "OP_DUP OP_HASH160 cd545a6b57dc07522709b58c7ca662fc8f50cb03 OP_EQUALVERIFY OP_CHECKSIG", "type": "pubkeyhash"}, "value": 0.00311916, "n": 1}], "hex": "01000000018523e44a97468499e304e6d9c075333730310cd17adcb5114decfc084bb4f64a000000006b483045022100a8821736d55086c87e1dcaeb0584dffceb2c2ca2155bb42f5c17db7674977fbb022051ce8e743319a6e1986cdbcd615f7b36406d2a7534e79716fa832441b2ebf0db012103725806055244906a7bd7807444f9184e9120b508d359ece8036417a0f8f39c70ffffffff02ce2e0100000000001976a91409b5c7d3b59265f5cd48394642b6ada776ea935f88ac6cc20400000000001976a914cd545a6b57dc07522709b58c7ca662fc8f50cb0388ac00000000", "vin": [{"sequence": 4294967295, "scriptSig": {"hex": "483045022100a8821736d55086c87e1dcaeb0584dffceb2c2ca2155bb42f5c17db7674977fbb022051ce8e743319a6e1986cdbcd615f7b36406d2a7534e79716fa832441b2ebf0db012103725806055244906a7bd7807444f9184e9120b508d359ece8036417a0f8f39c70", "asm": "3045022100a8821736d55086c87e1dcaeb0584dffceb2c2ca2155bb42f5c17db7674977fbb022051ce8e743319a6e1986cdbcd615f7b36406d2a7534e79716fa832441b2ebf0db[ALL] 03725806055244906a7bd7807444f9184e9120b508d359ece8036417a0f8f39c70"}, "vout": 0, "txid": "4af6b44b08fcec4d11b5dc7ad10c3130373375c0d9e604e3998446974ae42385"}], "txid": "cada6964a6979a70629ce1d5121d12aafeb2cd08d8cb8a5ac60fc457eb3ee55d", "blocktime": 1537870564, "version": 1, "confirmations": 11515, "time": 1537870564, "locktime": 0, "vsize": 226, "size": 226}