{"hash": "cadb01315d9e08e95e750bc77946e6e70927f89e319d5829f119e124fb060e54", "blockhash": "00000000000000000024a2167bbff67b0be802c0b01cdd79e6331c2be6459f87", "vout": [{"scriptPubKey": {"reqSigs": 1, "hex": "a91458d4876014d444d81f83e829172b22af1e26e90187", "addresses": ["39nhzBhzhWPto7JhQ9B5dieMpcxhRqLD2c"], "asm": "OP_HASH160 58d4876014d444d81f83e829172b22af1e26e901 OP_EQUAL", "type": "scripthash"}, "value": 0.0033296, "n": 0}, {"scriptPubKey": {"reqSigs": 1, "hex": "76a914126b56f152b8d0a3431b4322d68578efdc71bdef88ac", "addresses": ["12gPkYMBBMkkqkw9yKgMmz8aTRS7Xyy3Vf"], "asm": "OP_DUP OP_HASH160 126b56f152b8d0a3431b4322d68578efdc71bdef OP_EQUALVERIFY OP_CHECKSIG", "type": "pubkeyhash"}, "value": 0.05444837, "n": 1}], "hex": "01000000011a7af5ec73429aa1d4fb3feea3de901991e6e72b4ae9233a956825b6e323fde2010000006b483045022100869ef7866a75984b01260d050c08a2caef8c783fe2ac6cfad0fd70c99d4cec7802203c37fa328b11394a3499617c5b5022a35e771e83eafc371c3e662d9a1f97e12101210217553dab8e5486855639ef7cb8e6997cb7df52a422a65ae8e5c7513998e8097fffffffff02a01405000000000017a91458d4876014d444d81f83e829172b22af1e26e90187e5145300000000001976a914126b56f152b8d0a3431b4322d68578efdc71bdef88ac00000000", "vin": [{"sequence": 4294967295, "scriptSig": {"hex": "483045022100869ef7866a75984b01260d050c08a2caef8c783fe2ac6cfad0fd70c99d4cec7802203c37fa328b11394a3499617c5b5022a35e771e83eafc371c3e662d9a1f97e12101210217553dab8e5486855639ef7cb8e6997cb7df52a422a65ae8e5c7513998e8097f", "asm": "3045022100869ef7866a75984b01260d050c08a2caef8c783fe2ac6cfad0fd70c99d4cec7802203c37fa328b11394a3499617c5b5022a35e771e83eafc371c3e662d9a1f97e121[ALL] 0217553dab8e5486855639ef7cb8e6997cb7df52a422a65ae8e5c7513998e8097f"}, "vout": 1, "txid": "e2fd23e3b62568953a23e94a2be7e6911990dea3ee3ffbd4a19a4273ecf57a1a"}], "txid": "cadb01315d9e08e95e750bc77946e6e70927f89e319d5829f119e124fb060e54", "blocktime": 1537870564, "version": 1, "confirmations": 11515, "time": 1537870564, "locktime": 0, "vsize": 224, "size": 224}