{"hash": "80305f627839acb6971722c105495c319ce01f8b03376664fc445ad9640b0362", "blockhash": "0000000000000000001cda96e906b7601b7a6fb1a3b62bca570a9e5d8f4b3de1", "vout": [{"scriptPubKey": {"reqSigs": 1, "hex": "76a914413c0d758205483497c163832a19edbaa2938cd488ac", "addresses": ["16wvrzi8z8K6d1QGnbUm4MkcpsutSYG7Xs"], "asm": "OP_DUP OP_HASH160 413c0d758205483497c163832a19edbaa2938cd4 OP_EQUALVERIFY OP_CHECKSIG", "type": "pubkeyhash"}, "value": 0.0194225, "n": 0}, {"scriptPubKey": {"reqSigs": 1, "hex": "a9148dff236f0d39a828f7ff919d8eeffe32267748c987", "addresses": ["3EdpqvHiG1Fw53M9r6m9ZvE8yXbmDPEASq"], "asm": "OP_HASH160 8dff236f0d39a828f7ff919d8eeffe32267748c9 OP_EQUAL", "type": "scripthash"}, "value": 0.01761013, "n": 1}, {"scriptPubKey": {"reqSigs": 1, "hex": "a914dd9dc6a441b75c3a3cf7d52601fba93d55728ce687", "addresses": ["3MtpGQL5k6tYHku7eJBRa35C5DZGaJGvFy"], "asm": "OP_HASH160 dd9dc6a441b75c3a3cf7d52601fba93d55728ce6 OP_EQUAL", "type": "scripthash"}, "value": 0.34682216, "n": 2}, {"scriptPubKey": {"reqSigs": 1, "hex": "76a91410a8e70837648150ae69ea33929a5e231578ca2388ac", "addresses": ["12X69csuFGGAdnEstUtuFmTBikeut3GGfW"], "asm": "OP_DUP OP_HASH160 10a8e70837648150ae69ea33929a5e231578ca23 OP_EQUALVERIFY OP_CHECKSIG", "type": "pubkeyhash"}, "value": 0.0554035, "n": 3}, {"scriptPubKey": {"reqSigs": 1, "hex": "76a914d773d6caf60ab57fec673d792a84af2778d4f3f088ac", "addresses": ["1LeD3t5rvD7mL8WJ4BCRCtJvCKP2sud4S5"], "asm": "OP_DUP OP_HASH160 d773d6caf60ab57fec673d792a84af2778d4f3f0 OP_EQUALVERIFY OP_CHECKSIG", "type": "pubkeyhash"}, "value": 0.04334666, "n": 4}, {"scriptPubKey": {"reqSigs": 1, "hex": "a9143cf8bfb947b249c634ce452e2080b67c4ab2e12887", "addresses": ["37FQTRzACeC2Se7pgXN1WJH7YA75QsHNXJ"], "asm": "OP_HASH160 3cf8bfb947b249c634ce452e2080b67c4ab2e128 OP_EQUAL", "type": "scripthash"}, "value": 1.28704939, "n": 5}], "hex": "02000000000101856fa113ca2a44e2b9796318f7f8d0911afa992c064d443f2242f94a2b2bd2be000000001716001408252a4f60bea213aa3fc4dba2f2993664f75faffdffffff06eaa21d00000000001976a914413c0d758205483497c163832a19edbaa2938cd488acf5de1a000000000017a9148dff236f0d39a828f7ff919d8eeffe32267748c987683511020000000017a914dd9dc6a441b75c3a3cf7d52601fba93d55728ce687fe895400000000001976a91410a8e70837648150ae69ea33929a5e231578ca2388ac4a244200000000001976a914d773d6caf60ab57fec673d792a84af2778d4f3f088acabe1ab070000000017a9143cf8bfb947b249c634ce452e2080b67c4ab2e128870247304402207643a164ca79e76f9aac0c94320737ff5cf71a3b0691cd345331b098f31e2b0e022026689a6d66842e026da7b34b196a08dae9b3e061690b096ae21fd28380709c1a012103f2cb5adb168d38a6dadfad9a4b2561022688477fbd8b86a423756853b57bb56e01000000", "vin": [{"txinwitness": ["304402207643a164ca79e76f9aac0c94320737ff5cf71a3b0691cd345331b098f31e2b0e022026689a6d66842e026da7b34b196a08dae9b3e061690b096ae21fd28380709c1a01", "03f2cb5adb168d38a6dadfad9a4b2561022688477fbd8b86a423756853b57bb56e"], "sequence": 4294967293, "scriptSig": {"hex": "16001408252a4f60bea213aa3fc4dba2f2993664f75faf", "asm": "001408252a4f60bea213aa3fc4dba2f2993664f75faf"}, "vout": 0, "txid": "bed22b2b4af942223f444d062c99fa1a91d0f8f7186379b9e2442aca13a16f85"}], "txid": "cadd573ec2a5c63e9aa37c8262c9aae3285f0a26f2f7271b3ed7a5358dc6f689", "blocktime": 1537873282, "version": 2, "confirmations": 11480, "time": 1537873282, "locktime": 1, "vsize": 300, "size": 381}