{"hash": "cae005069c4f8b51bbd54f1a88b03ca862b1220280850255214b960166454074", "blockhash": "0000000000000000000baef3f32e3676a92c3b2e5da21b426e4f302fc371ce76", "vout": [{"scriptPubKey": {"reqSigs": 1, "hex": "76a9145f2915f7aa299c12f9d5e1598f02db0e14e2441688ac", "addresses": ["19gAQv8YizsqruRPkBfoVpdL8jccnGauq8"], "asm": "OP_DUP OP_HASH160 5f2915f7aa299c12f9d5e1598f02db0e14e24416 OP_EQUALVERIFY OP_CHECKSIG", "type": "pubkeyhash"}, "value": 4.46333536, "n": 0}], "hex": "0100000013f357c68def8cb92ae2cfa97f4b256dbe6def6f900d939de70ef08881d5596b0a010000006b483045022100bc356660d909a9e8b02d05b4112386f550f775d29e063dba8c08037a3a9216d102207f1ab3dccaa1bbc3fb7670b3b9e0c829954dd6dfb8b20340e2101bf16117eba101210282cc89c614433a85fee7289107396c78b1f6fd11eabab3f8f808551c151dc4abfeffffff44b504e6d8a713101a2ce919e849e2eba5f698abf32e7a1f3b91be59b59fb81e010000006a4730440220312e3752ca0cfd6731f8234f82eaefe274004d90a1bc09e2a8a91c7fcc0238c70220385154e42a60e59536bc8a16b7a0af5c243fadcc3dca5ae4b35d65de661f76c20121035bd6c7adfe49bb49b5d48daf99e47fccfe3936d04d588b77ad419da5553c89e0feffffff608eb7d0d488ba790e5761ae43e9b6325a94db6c01b66a8bbd27118800a67f34000000006b483045022100fe2ce017e68e4ae6b3f72820e019e22c48060f79a8887df34f74cdd008277c6a02206a731e5efa021b9c9efd407cb0a3d90efc400a4fd797e175fbd457af641e24b6012102900fd8564ecfbbd5bfe19fcb766fbb460014042cd3e22d231e119890fb3f9d96fefffffffd1374bb84b3c348865ad36325af31a1c673ace8c6742a8083410174d9581f46000000006a4730440220704aa5ebc43ec1fcb93564d8bd0b5ed352177e6366194b2be630a5c158b7995d02205881e43f2379bfcbb3a2d521bf55951298a365450f47cc8fcd9a098bed4deb6701210282cc89c614433a85fee7289107396c78b1f6fd11eabab3f8f808551c151dc4abfeffffff77bfe504c6d2ed1b2f36d8540356384b86927cd2c508efef47c1199756858a49000000006b483045022100d83a839fa4d0d7c5d426932bf73a5d256dd9bd3f7cbb36a011d548fba6e5cc8e022026d145e59c5c432daae9ce558bed1e824bb2f605763751d7f53cf0576f84c3ed01210335071cfb351ab23a437f1beb839a4fa4009a22409ebe473097fc28ee72d9b30efeffffffb1dd14d5b3918a20883f8c913466b716096f58188cc2ba31a462ffb4fe3fe976010000006a47304402203fce1ef3cce5efd2a2308f3eb32d722a7606aebed0a6d701e975a6184180708e02205ef7f6e3c881e93f485c9673f3bfb591a80cd1a16d07439ee892f9da10952eb90121020d4ad7c6bf8a0be6b46d8327fcfc348008e05927d22ea0551338e229500ba129feffffff66c40e40491cabf628ec6d9c46a4c734105c93107830106646f14f6601128878000000006b483045022100d23defc26dca6594e3e6734a5ad1cf5923299a7a763dd73afb47ec60e82689910220546787c3d7e9098b4679099c7bf9dc7758a8949e1b05b30336c618876340f62701210274139ba46713de15bd824c46bc7b34c6ddb8141b8075140975806b514318e7fdfeffffff02b40e5e466b9c2ff6ed1b91669fc7d8561d378e34372fc9ceb016da112e0279010000006b483045022100918dfe1227aaed899a53a7ee647a65e31bd2d714265cce640bf40668ec1b059e02205f8296e0802ba23dba5d1f033ab2d937463d23b9c46c7c1eb15b7fe62d98308e0121026b42cdf6907e77053ef6678b3c5a7866ff6eb36cee0a65611363f2a951932abafeffffff677ec8b616782e28cd4ddf84be1b644906a06f8b9521f71ec19d385f823e6787010000006a473044022067391a6a277be73f7fab9363d45457b190aab6397d5a56d7d1227addb89fb94d0220111c162f0afe2780a41c012b32e2444381e26186886bfd4018362d93924068530121021eef741dbd5ca5b9f6d64cecefc710df01a1ae227d1fc05f37abe69d88ba4b51feffffff58d5cd168aa730c424c54686fe38d695a62768e6e0c850dc284cee0119b11aa4000000006b483045022100a0991458429bf17a43eed6cbb860ed75773eb7c423499b1f6c8fc0999698b7a202207a361512e2d784f3b9cf500220f9faf41e6ee1b8e1c659ea50ced59c22051d5f012102a90c7ed3239555253169ea9c81345ba4100f7030019ba0f548e53075fef2516afeffffff7675c40f529bb9f2c2c213877926000dec1b7c3f9c8ab38aeb0a069579c921a6000000006b483045022100ccc39aa6204b231adbae355e48442bf1b7c00f39bfc3c80db830308bf5226eb60220334d45ccc1b4188b34d0a7d58bf9f18c0b3354a8dfce464d164cc99edfafeb0e01210282cc89c614433a85fee7289107396c78b1f6fd11eabab3f8f808551c151dc4abfeffffffd63c1de8626f703549c9628b57085885586da444b4272e4dffa39afb4f5c2dac010000006b483045022100d54d6990f900d750e21969375df2960006a9dbea4e7a892e318639078756d6d202207c44f4b662655fb9f058713d043194064f587a2c0c7037eaaf7b1a950a9abc0801210282cc89c614433a85fee7289107396c78b1f6fd11eabab3f8f808551c151dc4abfeffffff1ee73f5016517458d82d5b73ddc5f135fd7810f89b30423e2c428512ea960fae000000006a47304402204065b63bbe90dc3993977fa14bf2f4d80fde6134edba2d0c4474e13fe5493bad02203ee65df655f761fa93da64a025d43bd81936c93fad2d55c60252abf0dc7ca4b501210282cc89c614433a85fee7289107396c78b1f6fd11eabab3f8f808551c151dc4abfeffffffd3bfa58a3f480e86512f9bf380d758cd88b5f825dbd3ec427fadc2553e798baf000000006a4730440220472a794820bcb4f6abc413d3b0b7ee9642e7515fa2fd4b5b0b1b9a3fac99744202201b7bdd51abaf480ea646ea45ba9f6e4fab426539490e6cae82033c8b53838e28012103980ef049a9bb102ed574631fce78dfde65fb027327991121c56284dfa88b3ffcfeffffff52a2b54c276d789db4f0536480e841f3ef409c8e533d8708200507bb6f1287b5160000006b483045022100e85524e424983fa09f691a3431c57b152417d47462818fd98fe26f5d8259c59302207e6d7c82399489bad02491310981bc9d304ef8c34d24eb722d0aededa54e9cbe012103bc84c276d628be961505b655cf7cc75b18c1a681413be82fb0c0b8eb91adf81efeffffff47fc463527f5a766b1861eb234a9b0a8819e94cd68002578e012b1249a442dbd000000006b483045022100f576fd323d97d6ab853ca2d075d7fa3cf45c88e6e1b860bb062720e7de021fce02200c4db1f11dce2e9afeb6da6681ba4653f7169274c1f616d8cc58561befba568a01210282cc89c614433a85fee7289107396c78b1f6fd11eabab3f8f808551c151dc4abfeffffff5295171878b3c1df5834c022dbe7764e381b02e66133a8ccfa719f7cc1fe98c8000000006b48304502210080ea0b195f62c964c3af111b4272568f7201b70626edf4b1b232edeccb058897022063a0a8c437ed06978b77da6a981ed5d2062fd033d7f5b7c41e5e22f15dfd837a012102aa81893bbe2c4785f90237c90bb0f42506189ac804756d61b670a79c701b35e8feffffffedcbf9efc0fd411203dcd8f5418a5b84dd64aa6379e455cd42279aecc8eebedf010000006a473044022057ff6ddd8b274c5413074cc46ac1e27f9dc214b2f60657d549c6cf3b1d1255d5022036840e930b67433768258773d005709335642ac4a650eea481e612145aabb6a801210278b3b02753272c1711a53ba755f8c04eac182cad2ac649d3f97c0df480c23a12feffffff054657b271f3a2e4bd007adcfc11dd893c5fb18453c44ac053742c7d7c1552e9010000006b4830450221008b7154f5cf6995189834de221066788f0e6d5a601e926e38133e7cc260a76e5402200c6038836fe726d836f7b09ef88d20a78a7438b16b52c876e91e07b1d980b350012103e195a65e76522272b6c4573d44ffc7ffc60d8eae2fec22458731af211608a57cfeffffff0160829a1a000000001976a9145f2915f7aa299c12f9d5e1598f02db0e14e2441688ac16490800", "vin": [{"sequence": 4294967294, "scriptSig": {"hex": "483045022100bc356660d909a9e8b02d05b4112386f550f775d29e063dba8c08037a3a9216d102207f1ab3dccaa1bbc3fb7670b3b9e0c829954dd6dfb8b20340e2101bf16117eba101210282cc89c614433a85fee7289107396c78b1f6fd11eabab3f8f808551c151dc4ab", "asm": "3045022100bc356660d909a9e8b02d05b4112386f550f775d29e063dba8c08037a3a9216d102207f1ab3dccaa1bbc3fb7670b3b9e0c829954dd6dfb8b20340e2101bf16117eba1[ALL] 0282cc89c614433a85fee7289107396c78b1f6fd11eabab3f8f808551c151dc4ab"}, "vout": 1, "txid": "0a6b59d58188f00ee79d930d906fef6dbe6d254b7fa9cfe22ab98cef8dc657f3"}, {"sequence": 4294967294, "scriptSig": {"hex": "4730440220312e3752ca0cfd6731f8234f82eaefe274004d90a1bc09e2a8a91c7fcc0238c70220385154e42a60e59536bc8a16b7a0af5c243fadcc3dca5ae4b35d65de661f76c20121035bd6c7adfe49bb49b5d48daf99e47fccfe3936d04d588b77ad419da5553c89e0", "asm": "30440220312e3752ca0cfd6731f8234f82eaefe274004d90a1bc09e2a8a91c7fcc0238c70220385154e42a60e59536bc8a16b7a0af5c243fadcc3dca5ae4b35d65de661f76c2[ALL] 035bd6c7adfe49bb49b5d48daf99e47fccfe3936d04d588b77ad419da5553c89e0"}, "vout": 1, "txid": "1eb89fb559be913b1f7a2ef3ab98f6a5ebe249e819e92c1a1013a7d8e604b544"}, {"sequence": 4294967294, "scriptSig": {"hex": "483045022100fe2ce017e68e4ae6b3f72820e019e22c48060f79a8887df34f74cdd008277c6a02206a731e5efa021b9c9efd407cb0a3d90efc400a4fd797e175fbd457af641e24b6012102900fd8564ecfbbd5bfe19fcb766fbb460014042cd3e22d231e119890fb3f9d96", "asm": "3045022100fe2ce017e68e4ae6b3f72820e019e22c48060f79a8887df34f74cdd008277c6a02206a731e5efa021b9c9efd407cb0a3d90efc400a4fd797e175fbd457af641e24b6[ALL] 02900fd8564ecfbbd5bfe19fcb766fbb460014042cd3e22d231e119890fb3f9d96"}, "vout": 0, "txid": "347fa600881127bd8b6ab6016cdb945a32b6e943ae61570e79ba88d4d0b78e60"}, {"sequence": 4294967294, "scriptSig": {"hex": "4730440220704aa5ebc43ec1fcb93564d8bd0b5ed352177e6366194b2be630a5c158b7995d02205881e43f2379bfcbb3a2d521bf55951298a365450f47cc8fcd9a098bed4deb6701210282cc89c614433a85fee7289107396c78b1f6fd11eabab3f8f808551c151dc4ab", "asm": "30440220704aa5ebc43ec1fcb93564d8bd0b5ed352177e6366194b2be630a5c158b7995d02205881e43f2379bfcbb3a2d521bf55951298a365450f47cc8fcd9a098bed4deb67[ALL] 0282cc89c614433a85fee7289107396c78b1f6fd11eabab3f8f808551c151dc4ab"}, "vout": 0, "txid": "461f58d974014183802a74c6e8ac73c6a131af2563d35a8648c3b384bb7413fd"}, {"sequence": 4294967294, "scriptSig": {"hex": "483045022100d83a839fa4d0d7c5d426932bf73a5d256dd9bd3f7cbb36a011d548fba6e5cc8e022026d145e59c5c432daae9ce558bed1e824bb2f605763751d7f53cf0576f84c3ed01210335071cfb351ab23a437f1beb839a4fa4009a22409ebe473097fc28ee72d9b30e", "asm": "3045022100d83a839fa4d0d7c5d426932bf73a5d256dd9bd3f7cbb36a011d548fba6e5cc8e022026d145e59c5c432daae9ce558bed1e824bb2f605763751d7f53cf0576f84c3ed[ALL] 0335071cfb351ab23a437f1beb839a4fa4009a22409ebe473097fc28ee72d9b30e"}, "vout": 0, "txid": "498a85569719c147efef08c5d27c92864b38560354d8362f1bedd2c604e5bf77"}, {"sequence": 4294967294, "scriptSig": {"hex": "47304402203fce1ef3cce5efd2a2308f3eb32d722a7606aebed0a6d701e975a6184180708e02205ef7f6e3c881e93f485c9673f3bfb591a80cd1a16d07439ee892f9da10952eb90121020d4ad7c6bf8a0be6b46d8327fcfc348008e05927d22ea0551338e229500ba129", "asm": "304402203fce1ef3cce5efd2a2308f3eb32d722a7606aebed0a6d701e975a6184180708e02205ef7f6e3c881e93f485c9673f3bfb591a80cd1a16d07439ee892f9da10952eb9[ALL] 020d4ad7c6bf8a0be6b46d8327fcfc348008e05927d22ea0551338e229500ba129"}, "vout": 1, "txid": "76e93ffeb4ff62a431bac28c18586f0916b76634918c3f88208a91b3d514ddb1"}, {"sequence": 4294967294, "scriptSig": {"hex": "483045022100d23defc26dca6594e3e6734a5ad1cf5923299a7a763dd73afb47ec60e82689910220546787c3d7e9098b4679099c7bf9dc7758a8949e1b05b30336c618876340f62701210274139ba46713de15bd824c46bc7b34c6ddb8141b8075140975806b514318e7fd", "asm": "3045022100d23defc26dca6594e3e6734a5ad1cf5923299a7a763dd73afb47ec60e82689910220546787c3d7e9098b4679099c7bf9dc7758a8949e1b05b30336c618876340f627[ALL] 0274139ba46713de15bd824c46bc7b34c6ddb8141b8075140975806b514318e7fd"}, "vout": 0, "txid": "78881201664ff1466610307810935c1034c7a4469c6dec28f6ab1c49400ec466"}, {"sequence": 4294967294, "scriptSig": {"hex": "483045022100918dfe1227aaed899a53a7ee647a65e31bd2d714265cce640bf40668ec1b059e02205f8296e0802ba23dba5d1f033ab2d937463d23b9c46c7c1eb15b7fe62d98308e0121026b42cdf6907e77053ef6678b3c5a7866ff6eb36cee0a65611363f2a951932aba", "asm": "3045022100918dfe1227aaed899a53a7ee647a65e31bd2d714265cce640bf40668ec1b059e02205f8296e0802ba23dba5d1f033ab2d937463d23b9c46c7c1eb15b7fe62d98308e[ALL] 026b42cdf6907e77053ef6678b3c5a7866ff6eb36cee0a65611363f2a951932aba"}, "vout": 1, "txid": "79022e11da16b0cec92f37348e371d56d8c79f66911bedf62f9c6b465e0eb402"}, {"sequence": 4294967294, "scriptSig": {"hex": "473044022067391a6a277be73f7fab9363d45457b190aab6397d5a56d7d1227addb89fb94d0220111c162f0afe2780a41c012b32e2444381e26186886bfd4018362d93924068530121021eef741dbd5ca5b9f6d64cecefc710df01a1ae227d1fc05f37abe69d88ba4b51", "asm": "3044022067391a6a277be73f7fab9363d45457b190aab6397d5a56d7d1227addb89fb94d0220111c162f0afe2780a41c012b32e2444381e26186886bfd4018362d9392406853[ALL] 021eef741dbd5ca5b9f6d64cecefc710df01a1ae227d1fc05f37abe69d88ba4b51"}, "vout": 1, "txid": "87673e825f389dc11ef721958b6fa00649641bbe84df4dcd282e7816b6c87e67"}, {"sequence": 4294967294, "scriptSig": {"hex": "483045022100a0991458429bf17a43eed6cbb860ed75773eb7c423499b1f6c8fc0999698b7a202207a361512e2d784f3b9cf500220f9faf41e6ee1b8e1c659ea50ced59c22051d5f012102a90c7ed3239555253169ea9c81345ba4100f7030019ba0f548e53075fef2516a", "asm": "3045022100a0991458429bf17a43eed6cbb860ed75773eb7c423499b1f6c8fc0999698b7a202207a361512e2d784f3b9cf500220f9faf41e6ee1b8e1c659ea50ced59c22051d5f[ALL] 02a90c7ed3239555253169ea9c81345ba4100f7030019ba0f548e53075fef2516a"}, "vout": 0, "txid": "a41ab11901ee4c28dc50c8e0e66827a695d638fe8646c524c430a78a16cdd558"}, {"sequence": 4294967294, "scriptSig": {"hex": "483045022100ccc39aa6204b231adbae355e48442bf1b7c00f39bfc3c80db830308bf5226eb60220334d45ccc1b4188b34d0a7d58bf9f18c0b3354a8dfce464d164cc99edfafeb0e01210282cc89c614433a85fee7289107396c78b1f6fd11eabab3f8f808551c151dc4ab", "asm": "3045022100ccc39aa6204b231adbae355e48442bf1b7c00f39bfc3c80db830308bf5226eb60220334d45ccc1b4188b34d0a7d58bf9f18c0b3354a8dfce464d164cc99edfafeb0e[ALL] 0282cc89c614433a85fee7289107396c78b1f6fd11eabab3f8f808551c151dc4ab"}, "vout": 0, "txid": "a621c97995060aeb8ab38a9c3f7c1bec0d0026798713c2c2f2b99b520fc47576"}, {"sequence": 4294967294, "scriptSig": {"hex": "483045022100d54d6990f900d750e21969375df2960006a9dbea4e7a892e318639078756d6d202207c44f4b662655fb9f058713d043194064f587a2c0c7037eaaf7b1a950a9abc0801210282cc89c614433a85fee7289107396c78b1f6fd11eabab3f8f808551c151dc4ab", "asm": "3045022100d54d6990f900d750e21969375df2960006a9dbea4e7a892e318639078756d6d202207c44f4b662655fb9f058713d043194064f587a2c0c7037eaaf7b1a950a9abc08[ALL] 0282cc89c614433a85fee7289107396c78b1f6fd11eabab3f8f808551c151dc4ab"}, "vout": 1, "txid": "ac2d5c4ffb9aa3ff4d2e27b444a46d58855808578b62c94935706f62e81d3cd6"}, {"sequence": 4294967294, "scriptSig": {"hex": "47304402204065b63bbe90dc3993977fa14bf2f4d80fde6134edba2d0c4474e13fe5493bad02203ee65df655f761fa93da64a025d43bd81936c93fad2d55c60252abf0dc7ca4b501210282cc89c614433a85fee7289107396c78b1f6fd11eabab3f8f808551c151dc4ab", "asm": "304402204065b63bbe90dc3993977fa14bf2f4d80fde6134edba2d0c4474e13fe5493bad02203ee65df655f761fa93da64a025d43bd81936c93fad2d55c60252abf0dc7ca4b5[ALL] 0282cc89c614433a85fee7289107396c78b1f6fd11eabab3f8f808551c151dc4ab"}, "vout": 0, "txid": "ae0f96ea1285422c3e42309bf81078fd35f1c5dd735b2dd858745116503fe71e"}, {"sequence": 4294967294, "scriptSig": {"hex": "4730440220472a794820bcb4f6abc413d3b0b7ee9642e7515fa2fd4b5b0b1b9a3fac99744202201b7bdd51abaf480ea646ea45ba9f6e4fab426539490e6cae82033c8b53838e28012103980ef049a9bb102ed574631fce78dfde65fb027327991121c56284dfa88b3ffc", "asm": "30440220472a794820bcb4f6abc413d3b0b7ee9642e7515fa2fd4b5b0b1b9a3fac99744202201b7bdd51abaf480ea646ea45ba9f6e4fab426539490e6cae82033c8b53838e28[ALL] 03980ef049a9bb102ed574631fce78dfde65fb027327991121c56284dfa88b3ffc"}, "vout": 0, "txid": "af8b793e55c2ad7f42ecd3db25f8b588cd58d780f39b2f51860e483f8aa5bfd3"}, {"sequence": 4294967294, "scriptSig": {"hex": "483045022100e85524e424983fa09f691a3431c57b152417d47462818fd98fe26f5d8259c59302207e6d7c82399489bad02491310981bc9d304ef8c34d24eb722d0aededa54e9cbe012103bc84c276d628be961505b655cf7cc75b18c1a681413be82fb0c0b8eb91adf81e", "asm": "3045022100e85524e424983fa09f691a3431c57b152417d47462818fd98fe26f5d8259c59302207e6d7c82399489bad02491310981bc9d304ef8c34d24eb722d0aededa54e9cbe[ALL] 03bc84c276d628be961505b655cf7cc75b18c1a681413be82fb0c0b8eb91adf81e"}, "vout": 22, "txid": "b587126fbb07052008873d538e9c40eff341e8806453f0b49d786d274cb5a252"}, {"sequence": 4294967294, "scriptSig": {"hex": "483045022100f576fd323d97d6ab853ca2d075d7fa3cf45c88e6e1b860bb062720e7de021fce02200c4db1f11dce2e9afeb6da6681ba4653f7169274c1f616d8cc58561befba568a01210282cc89c614433a85fee7289107396c78b1f6fd11eabab3f8f808551c151dc4ab", "asm": "3045022100f576fd323d97d6ab853ca2d075d7fa3cf45c88e6e1b860bb062720e7de021fce02200c4db1f11dce2e9afeb6da6681ba4653f7169274c1f616d8cc58561befba568a[ALL] 0282cc89c614433a85fee7289107396c78b1f6fd11eabab3f8f808551c151dc4ab"}, "vout": 0, "txid": "bd2d449a24b112e078250068cd949e81a8b0a934b21e86b166a7f5273546fc47"}, {"sequence": 4294967294, "scriptSig": {"hex": "48304502210080ea0b195f62c964c3af111b4272568f7201b70626edf4b1b232edeccb058897022063a0a8c437ed06978b77da6a981ed5d2062fd033d7f5b7c41e5e22f15dfd837a012102aa81893bbe2c4785f90237c90bb0f42506189ac804756d61b670a79c701b35e8", "asm": "304502210080ea0b195f62c964c3af111b4272568f7201b70626edf4b1b232edeccb058897022063a0a8c437ed06978b77da6a981ed5d2062fd033d7f5b7c41e5e22f15dfd837a[ALL] 02aa81893bbe2c4785f90237c90bb0f42506189ac804756d61b670a79c701b35e8"}, "vout": 0, "txid": "c898fec17c9f71facca83361e6021b384e76e7db22c03458dfc1b37818179552"}, {"sequence": 4294967294, "scriptSig": {"hex": "473044022057ff6ddd8b274c5413074cc46ac1e27f9dc214b2f60657d549c6cf3b1d1255d5022036840e930b67433768258773d005709335642ac4a650eea481e612145aabb6a801210278b3b02753272c1711a53ba755f8c04eac182cad2ac649d3f97c0df480c23a12", "asm": "3044022057ff6ddd8b274c5413074cc46ac1e27f9dc214b2f60657d549c6cf3b1d1255d5022036840e930b67433768258773d005709335642ac4a650eea481e612145aabb6a8[ALL] 0278b3b02753272c1711a53ba755f8c04eac182cad2ac649d3f97c0df480c23a12"}, "vout": 1, "txid": "dfbeeec8ec9a2742cd55e47963aa64dd845b8a41f5d8dc031241fdc0eff9cbed"}, {"sequence": 4294967294, "scriptSig": {"hex": "4830450221008b7154f5cf6995189834de221066788f0e6d5a601e926e38133e7cc260a76e5402200c6038836fe726d836f7b09ef88d20a78a7438b16b52c876e91e07b1d980b350012103e195a65e76522272b6c4573d44ffc7ffc60d8eae2fec22458731af211608a57c", "asm": "30450221008b7154f5cf6995189834de221066788f0e6d5a601e926e38133e7cc260a76e5402200c6038836fe726d836f7b09ef88d20a78a7438b16b52c876e91e07b1d980b350[ALL] 03e195a65e76522272b6c4573d44ffc7ffc60d8eae2fec22458731af211608a57c"}, "vout": 1, "txid": "e952157c7d2c7453c04ac45384b15f3c89dd11fcdc7a00bde4a2f371b2574605"}], "txid": "cae005069c4f8b51bbd54f1a88b03ca862b1220280850255214b960166454074", "blocktime": 1537876114, "version": 1, "confirmations": 11460, "time": 1537876114, "locktime": 542998, "vsize": 2849, "size": 2849}