{"hash": "cae435fdf7bcd6b62c354fff37b220fa6eea7a6c2b6c146e40154fc6e18fb442", "blockhash": "0000000000000000000baef3f32e3676a92c3b2e5da21b426e4f302fc371ce76", "vout": [{"scriptPubKey": {"reqSigs": 1, "hex": "76a91437837bee9cafa7abd8954484e343ae7c9b0af49c88ac", "addresses": ["164XgE9s7N6MiWDbGSxFiUau4phFoxxYmy"], "asm": "OP_DUP OP_HASH160 37837bee9cafa7abd8954484e343ae7c9b0af49c OP_EQUALVERIFY OP_CHECKSIG", "type": "pubkeyhash"}, "value": 0.02259659, "n": 0}, {"scriptPubKey": {"reqSigs": 1, "hex": "76a9145ef012f7de9a6862469c0365577647074d15beb688ac", "addresses": ["19ez7g1bKpipbsFiVZN4tqGsWijqSgwN7E"], "asm": "OP_DUP OP_HASH160 5ef012f7de9a6862469c0365577647074d15beb6 OP_EQUALVERIFY OP_CHECKSIG", "type": "pubkeyhash"}, "value": 0.00153604, "n": 1}], "hex": "01000000027882abd4b44fdb3f9e6de63917dd2a4c05b015077c7bfbe2d51c0d5d2c252fbb010000006a47304402201a46c916619d93237cedfcedd3d2b32e2c111c30947f7d60c4a8c42896aa4cd802202368d3fa31bcdd714beddd7c8f0a36d0938b7be05efe52b968ae32ea4228ca25012103443b510a5a39a07f93fed50a50477aa4abfebb725312108766ffeff8d182ada4fffffffffc7fdc00c615d10d8a3f9ef7ca7ecf041b0c216626ed837e3485ea7de2a41c5d000000006a47304402205ba8e9768177452838148aab5044ada66a04e96998d0e6fd6964848b537c01ad02202a1e16c670b78d72635b6f0989eb19907ea73549248f1d09a7c476fbb7c788b20121026eac06ba8584e155b3457992f1d842f5359725caf6026fbe06a6c15c519a674cffffffff02cb7a2200000000001976a91437837bee9cafa7abd8954484e343ae7c9b0af49c88ac04580200000000001976a9145ef012f7de9a6862469c0365577647074d15beb688ac00000000", "vin": [{"sequence": 4294967295, "scriptSig": {"hex": "47304402201a46c916619d93237cedfcedd3d2b32e2c111c30947f7d60c4a8c42896aa4cd802202368d3fa31bcdd714beddd7c8f0a36d0938b7be05efe52b968ae32ea4228ca25012103443b510a5a39a07f93fed50a50477aa4abfebb725312108766ffeff8d182ada4", "asm": "304402201a46c916619d93237cedfcedd3d2b32e2c111c30947f7d60c4a8c42896aa4cd802202368d3fa31bcdd714beddd7c8f0a36d0938b7be05efe52b968ae32ea4228ca25[ALL] 03443b510a5a39a07f93fed50a50477aa4abfebb725312108766ffeff8d182ada4"}, "vout": 1, "txid": "bb2f252c5d0d1cd5e2fb7b7c0715b0054c2add1739e66d9e3fdb4fb4d4ab8278"}, {"sequence": 4294967295, "scriptSig": {"hex": "47304402205ba8e9768177452838148aab5044ada66a04e96998d0e6fd6964848b537c01ad02202a1e16c670b78d72635b6f0989eb19907ea73549248f1d09a7c476fbb7c788b20121026eac06ba8584e155b3457992f1d842f5359725caf6026fbe06a6c15c519a674c", "asm": "304402205ba8e9768177452838148aab5044ada66a04e96998d0e6fd6964848b537c01ad02202a1e16c670b78d72635b6f0989eb19907ea73549248f1d09a7c476fbb7c788b2[ALL] 026eac06ba8584e155b3457992f1d842f5359725caf6026fbe06a6c15c519a674c"}, "vout": 0, "txid": "5d1ca4e27dea85347e83ed2666210c1b04cf7ecaf79e3f8a0dd115c600dc7ffc"}], "txid": "cae435fdf7bcd6b62c354fff37b220fa6eea7a6c2b6c146e40154fc6e18fb442", "blocktime": 1537876114, "version": 1, "confirmations": 11459, "time": 1537876114, "locktime": 0, "vsize": 372, "size": 372}