{"hash": "cae9697099ce3c7e5f742a4daa6735583993c38d7eb54394cf3768baffbf3e99", "blockhash": "0000000000000000000baef3f32e3676a92c3b2e5da21b426e4f302fc371ce76", "vout": [{"scriptPubKey": {"reqSigs": 1, "hex": "76a914d218889524436b812efd99b2d98132be0838ccca88ac", "addresses": ["1L9tHuQqrSK6einGpZrmjvh8Vtrihf54yt"], "asm": "OP_DUP OP_HASH160 d218889524436b812efd99b2d98132be0838ccca OP_EQUALVERIFY OP_CHECKSIG", "type": "pubkeyhash"}, "value": 3.909e-05, "n": 0}], "hex": "0100000001af2ded04b7d99ea8f54377d8f3f43abada66da96c81ddf12f5f53d7d96b6484f000000006a47304402205b182702fc6213a976842a971a1815416b42e4aea47a2a755bd21cb4222dba6f022064a51d79086d77723bf8c4018a594a20f68e58d611317dae7857d831286d2c7601210257a42c1d9e737cde587229d9c2bb455b2b8544b4c693c6fd2c563abcf7df3381ffffffff01450f0000000000001976a914d218889524436b812efd99b2d98132be0838ccca88ac00000000", "vin": [{"sequence": 4294967295, "scriptSig": {"hex": "47304402205b182702fc6213a976842a971a1815416b42e4aea47a2a755bd21cb4222dba6f022064a51d79086d77723bf8c4018a594a20f68e58d611317dae7857d831286d2c7601210257a42c1d9e737cde587229d9c2bb455b2b8544b4c693c6fd2c563abcf7df3381", "asm": "304402205b182702fc6213a976842a971a1815416b42e4aea47a2a755bd21cb4222dba6f022064a51d79086d77723bf8c4018a594a20f68e58d611317dae7857d831286d2c76[ALL] 0257a42c1d9e737cde587229d9c2bb455b2b8544b4c693c6fd2c563abcf7df3381"}, "vout": 0, "txid": "4f48b6967d3df5f512df1dc896da66daba3af4f3d87743f5a89ed9b704ed2daf"}], "txid": "cae9697099ce3c7e5f742a4daa6735583993c38d7eb54394cf3768baffbf3e99", "blocktime": 1537876114, "version": 1, "confirmations": 11462, "time": 1537876114, "locktime": 0, "vsize": 191, "size": 191}