{"hash": "caef89e1eb2fc5b5cedeb4085dd67b9d197c7dd54abf9846ddc741b6df377133", "blockhash": "0000000000000000000e13cef7c366c0283d82e591d1acd082e914b08063cdf1", "vout": [{"scriptPubKey": {"reqSigs": 1, "hex": "76a914c16f8c7956ddb027ce28b05c4c747a643c7c070a88ac", "addresses": ["1Jdo3ZkXfbqnzXgZB6TJY5smnRfJZZ8Nkm"], "asm": "OP_DUP OP_HASH160 c16f8c7956ddb027ce28b05c4c747a643c7c070a OP_EQUALVERIFY OP_CHECKSIG", "type": "pubkeyhash"}, "value": 0.0010294, "n": 0}, {"scriptPubKey": {"type": "nulldata", "hex": "6a4c500000778b0001ff92ec952c90c61a89457c40e3ef3236678a625097bcbefa6b8351586b4ef91c4b25dab5f9ade75bb888c7948e425baa0bed06142d45a2d56b27bc9a9526289ac0f6612cd74e33776ee4", "asm": "OP_RETURN 0000778b0001ff92ec952c90c61a89457c40e3ef3236678a625097bcbefa6b8351586b4ef91c4b25dab5f9ade75bb888c7948e425baa0bed06142d45a2d56b27bc9a9526289ac0f6612cd74e33776ee4"}, "value": 0.0, "n": 1}], "hex": "01000000015cc32f97741953dc6a7b61ebccbcdd1e044ea2675d2484a54f83d2c15ad20b62010000006a47304402207628b23ef4cef4cf987eaff8a884c84c73a18683276c3205b84393e996730ffd02202f912732f04facee8ba7d5574ef1f58b7a66ca324bc5864a668e7b1bf4bb44d5012103205d4a1cc82811636dbae6eb633ff026ff1459828704162b39cbd6d56d19ffe6ffffffff021c920100000000001976a914c16f8c7956ddb027ce28b05c4c747a643c7c070a88ac0000000000000000536a4c500000778b0001ff92ec952c90c61a89457c40e3ef3236678a625097bcbefa6b8351586b4ef91c4b25dab5f9ade75bb888c7948e425baa0bed06142d45a2d56b27bc9a9526289ac0f6612cd74e33776ee400000000", "vin": [{"sequence": 4294967295, "scriptSig": {"hex": "47304402207628b23ef4cef4cf987eaff8a884c84c73a18683276c3205b84393e996730ffd02202f912732f04facee8ba7d5574ef1f58b7a66ca324bc5864a668e7b1bf4bb44d5012103205d4a1cc82811636dbae6eb633ff026ff1459828704162b39cbd6d56d19ffe6", "asm": "304402207628b23ef4cef4cf987eaff8a884c84c73a18683276c3205b84393e996730ffd02202f912732f04facee8ba7d5574ef1f58b7a66ca324bc5864a668e7b1bf4bb44d5[ALL] 03205d4a1cc82811636dbae6eb633ff026ff1459828704162b39cbd6d56d19ffe6"}, "vout": 1, "txid": "620bd25ac1d2834fa584245d67a24e041eddbccceb617b6adc531974972fc35c"}], "txid": "caef89e1eb2fc5b5cedeb4085dd67b9d197c7dd54abf9846ddc741b6df377133", "blocktime": 1537871767, "version": 1, "confirmations": 11493, "time": 1537871767, "locktime": 0, "vsize": 283, "size": 283}