{"hash": "caf32b3ae0c64cd6842e11d37d3172774ef995ae72cf9737e78ded9908b60af5", "blockhash": "00000000000000000017f5eb5941039fbcee6240d03bc1f2f8e35350df66a1d8", "vout": [{"scriptPubKey": {"reqSigs": 1, "hex": "a914863237046790f37b2b766a252e2cc6a3c3ea0db887", "addresses": ["3DvadF13empYoWFKNuaKgKkQ4dApqpwWmm"], "asm": "OP_HASH160 863237046790f37b2b766a252e2cc6a3c3ea0db8 OP_EQUAL", "type": "scripthash"}, "value": 0.00269264, "n": 0}, {"scriptPubKey": {"reqSigs": 1, "hex": "76a9149776fa60780d1cb64f091a4cc16f61c449f62df188ac", "addresses": ["1EosZhu9QaU1jHqLuNYZwVNif1K7aj9vkd"], "asm": "OP_DUP OP_HASH160 9776fa60780d1cb64f091a4cc16f61c449f62df1 OP_EQUALVERIFY OP_CHECKSIG", "type": "pubkeyhash"}, "value": 0.00907149, "n": 1}], "hex": "010000000143e1cb77af5dca8ad0777a3276ee187fae9428503573108cd6f6829e88493529010000006b483045022100b3cdc19434d494263d4e3dd1f7a1c24c7ed359b2b53fb3f05f5980607d86de510220737f0af6d2b1ad4f4cae1e5b77fd96ad8b3dab43cb7982f6c9848a394630108301210326d8984e0af09f9acaf20b5cbf8262dbb246fe3a8a7d179c74c0cc86d5f7427affffffff02d01b04000000000017a914863237046790f37b2b766a252e2cc6a3c3ea0db8878dd70d00000000001976a9149776fa60780d1cb64f091a4cc16f61c449f62df188ac00000000", "vin": [{"sequence": 4294967295, "scriptSig": {"hex": "483045022100b3cdc19434d494263d4e3dd1f7a1c24c7ed359b2b53fb3f05f5980607d86de510220737f0af6d2b1ad4f4cae1e5b77fd96ad8b3dab43cb7982f6c9848a394630108301210326d8984e0af09f9acaf20b5cbf8262dbb246fe3a8a7d179c74c0cc86d5f7427a", "asm": "3045022100b3cdc19434d494263d4e3dd1f7a1c24c7ed359b2b53fb3f05f5980607d86de510220737f0af6d2b1ad4f4cae1e5b77fd96ad8b3dab43cb7982f6c9848a3946301083[ALL] 0326d8984e0af09f9acaf20b5cbf8262dbb246fe3a8a7d179c74c0cc86d5f7427a"}, "vout": 1, "txid": "293549889e82f6d68c107335502894ae7f18ee76327a77d08aca5daf77cbe143"}], "txid": "caf32b3ae0c64cd6842e11d37d3172774ef995ae72cf9737e78ded9908b60af5", "blocktime": 1537874412, "version": 1, "confirmations": 11467, "time": 1537874412, "locktime": 0, "vsize": 224, "size": 224}