{"hash": "caf9d349ea123cc600e2e575c3f003c043d3f118f4d70dc41c748793a4fc42b2", "blockhash": "0000000000000000000e13cef7c366c0283d82e591d1acd082e914b08063cdf1", "vout": [{"scriptPubKey": {"reqSigs": 1, "hex": "76a91412fe5edfd86a54add2521dceb24df1609428addf88ac", "addresses": ["12jRtS5FPDnoNppitQVF1f75PBhHRLEiXs"], "asm": "OP_DUP OP_HASH160 12fe5edfd86a54add2521dceb24df1609428addf OP_EQUALVERIFY OP_CHECKSIG", "type": "pubkeyhash"}, "value": 0.01017216, "n": 0}], "hex": "0100000003a725f8d223389e4939ea31657e584c21bfeeb0be38a72d0f04845e5b2235568a010000006b483045022100c1c9a11fa43804dc6c4045c9bf1d0148c01a56b9aa3cf483c5bb43664e443aaf02200350cd7cd146da2df1ee18c803caba519a19b2e338f64343d8763d97a809e136012102aed303659cfb88e741f836b873d9b1c0016ee572b6325727cd7f78e06bab045fffffffff823b7db87e2c9152b42cc57b1817295348d5fe9cce135afa23ad2a157cb8c5a6000000006b483045022100fb37b8de1d6b2fe622677bfe8ab29f2ed29549550b36b615d7518a3d076a97c002201c19c54b675b302aca560fb9321b82e974d3392e6c0ad0c0c6640eb016fb1ca60121035546b5f41ea6d06e3cbcf865f7ff3386a62876b713f761e205191df67424bf98ffffffff04684631c40114487bbca180204e633bf51c19eed353cbd76b4bf3694c772bae010000006a473044022038ffa735614aed185bb70b9650083f1736910e04090745df9310df53db11b2a9022005b24ef4de6c306d65ee8acb3666a7bb9282a782fd065fdb410ae651b673114d012102aed303659cfb88e741f836b873d9b1c0016ee572b6325727cd7f78e06bab045fffffffff0180850f00000000001976a91412fe5edfd86a54add2521dceb24df1609428addf88ac00000000", "vin": [{"sequence": 4294967295, "scriptSig": {"hex": "483045022100c1c9a11fa43804dc6c4045c9bf1d0148c01a56b9aa3cf483c5bb43664e443aaf02200350cd7cd146da2df1ee18c803caba519a19b2e338f64343d8763d97a809e136012102aed303659cfb88e741f836b873d9b1c0016ee572b6325727cd7f78e06bab045f", "asm": "3045022100c1c9a11fa43804dc6c4045c9bf1d0148c01a56b9aa3cf483c5bb43664e443aaf02200350cd7cd146da2df1ee18c803caba519a19b2e338f64343d8763d97a809e136[ALL] 02aed303659cfb88e741f836b873d9b1c0016ee572b6325727cd7f78e06bab045f"}, "vout": 1, "txid": "8a5635225b5e84040f2da738beb0eebf214c587e6531ea39499e3823d2f825a7"}, {"sequence": 4294967295, "scriptSig": {"hex": "483045022100fb37b8de1d6b2fe622677bfe8ab29f2ed29549550b36b615d7518a3d076a97c002201c19c54b675b302aca560fb9321b82e974d3392e6c0ad0c0c6640eb016fb1ca60121035546b5f41ea6d06e3cbcf865f7ff3386a62876b713f761e205191df67424bf98", "asm": "3045022100fb37b8de1d6b2fe622677bfe8ab29f2ed29549550b36b615d7518a3d076a97c002201c19c54b675b302aca560fb9321b82e974d3392e6c0ad0c0c6640eb016fb1ca6[ALL] 035546b5f41ea6d06e3cbcf865f7ff3386a62876b713f761e205191df67424bf98"}, "vout": 0, "txid": "a6c5b87c152aad23fa5a13ce9cfed548532917187bc52cb452912c7eb87d3b82"}, {"sequence": 4294967295, "scriptSig": {"hex": "473044022038ffa735614aed185bb70b9650083f1736910e04090745df9310df53db11b2a9022005b24ef4de6c306d65ee8acb3666a7bb9282a782fd065fdb410ae651b673114d012102aed303659cfb88e741f836b873d9b1c0016ee572b6325727cd7f78e06bab045f", "asm": "3044022038ffa735614aed185bb70b9650083f1736910e04090745df9310df53db11b2a9022005b24ef4de6c306d65ee8acb3666a7bb9282a782fd065fdb410ae651b673114d[ALL] 02aed303659cfb88e741f836b873d9b1c0016ee572b6325727cd7f78e06bab045f"}, "vout": 1, "txid": "ae2b774c69f34b6bd7cb53d3ee191cf53b634e2080a1bc7b481401c431466804"}], "txid": "caf9d349ea123cc600e2e575c3f003c043d3f118f4d70dc41c748793a4fc42b2", "blocktime": 1537871767, "version": 1, "confirmations": 11495, "time": 1537871767, "locktime": 0, "vsize": 487, "size": 487}