{"hash": "cafbbcc60b3eb010aaa5adec6d5f36f4ed2238654e55894358b826d4c75a3bb0", "blockhash": "0000000000000000000e13cef7c366c0283d82e591d1acd082e914b08063cdf1", "vout": [{"scriptPubKey": {"reqSigs": 1, "hex": "76a914f1e294c94567532eb209ef68e658aa47da21920a88ac", "addresses": ["1P3yHNP6EPzSeUSeMViASbAu4k2XxU3fVs"], "asm": "OP_DUP OP_HASH160 f1e294c94567532eb209ef68e658aa47da21920a OP_EQUALVERIFY OP_CHECKSIG", "type": "pubkeyhash"}, "value": 0.00251728, "n": 0}, {"scriptPubKey": {"reqSigs": 1, "hex": "76a9145d9ab43561db67f010db013891d8e1c36323c44888ac", "addresses": ["19XwArndYSqnzEkk3CLGhp5Y6aqzMpssTc"], "asm": "OP_DUP OP_HASH160 5d9ab43561db67f010db013891d8e1c36323c448 OP_EQUALVERIFY OP_CHECKSIG", "type": "pubkeyhash"}, "value": 0.007507, "n": 1}], "hex": "01000000029b5eb4d746666f99a933c58976cbd706752b5972a6c324cecb57eccc6e7e4c42090000006b483045022100dbcdfb25907e1b4b2a0a0e8877350ff7c7ff82b3e88e4fd600f88eaaa81b232f0220553001e59ac23462eccd6e34882f382c5f77f668873d46fae7c447572ef78496012103c4bc751e7dba804dc5883cc07952cc87801673749ac524a76818beae6d5dd8aeffffffffa561f69ff2b8103912c09c8db1d5638ff673277a543ad6191a3df9eb4eb5eca1040000006b483045022100e98d6fbf10a374fe38edbf6e31d2946dc7b8f45ff98c80c8a69dd77b9d01e3840220538f3446c20e248df8d01b7fba06b275b2398de210cce104defa37350288ec15012103c4bc751e7dba804dc5883cc07952cc87801673749ac524a76818beae6d5dd8aeffffffff0250d70300000000001976a914f1e294c94567532eb209ef68e658aa47da21920a88ac6c740b00000000001976a9145d9ab43561db67f010db013891d8e1c36323c44888ac00000000", "vin": [{"sequence": 4294967295, "scriptSig": {"hex": "483045022100dbcdfb25907e1b4b2a0a0e8877350ff7c7ff82b3e88e4fd600f88eaaa81b232f0220553001e59ac23462eccd6e34882f382c5f77f668873d46fae7c447572ef78496012103c4bc751e7dba804dc5883cc07952cc87801673749ac524a76818beae6d5dd8ae", "asm": "3045022100dbcdfb25907e1b4b2a0a0e8877350ff7c7ff82b3e88e4fd600f88eaaa81b232f0220553001e59ac23462eccd6e34882f382c5f77f668873d46fae7c447572ef78496[ALL] 03c4bc751e7dba804dc5883cc07952cc87801673749ac524a76818beae6d5dd8ae"}, "vout": 9, "txid": "424c7e6eccec57cbce24c3a672592b7506d7cb7689c533a9996f6646d7b45e9b"}, {"sequence": 4294967295, "scriptSig": {"hex": "483045022100e98d6fbf10a374fe38edbf6e31d2946dc7b8f45ff98c80c8a69dd77b9d01e3840220538f3446c20e248df8d01b7fba06b275b2398de210cce104defa37350288ec15012103c4bc751e7dba804dc5883cc07952cc87801673749ac524a76818beae6d5dd8ae", "asm": "3045022100e98d6fbf10a374fe38edbf6e31d2946dc7b8f45ff98c80c8a69dd77b9d01e3840220538f3446c20e248df8d01b7fba06b275b2398de210cce104defa37350288ec15[ALL] 03c4bc751e7dba804dc5883cc07952cc87801673749ac524a76818beae6d5dd8ae"}, "vout": 4, "txid": "a1ecb54eebf93d1a19d63a547a2773f68f63d5b18d9cc0123910b8f29ff661a5"}], "txid": "cafbbcc60b3eb010aaa5adec6d5f36f4ed2238654e55894358b826d4c75a3bb0", "blocktime": 1537871767, "version": 1, "confirmations": 11495, "time": 1537871767, "locktime": 0, "vsize": 374, "size": 374}