{"hash": "038222fd0820bb39a8377c76b71a123ba80cd79cd6f7f5b751d1ccf70570d711", "blockhash": "0000000000000000000e13cef7c366c0283d82e591d1acd082e914b08063cdf1", "vout": [{"scriptPubKey": {"reqSigs": 1, "hex": "76a9148eeff7603bd515cf688231609f4f78c8a0e28f4388ac", "addresses": ["1E2nRPiJc9HGbm6yfJ7g15n7moAhjZH6m1"], "asm": "OP_DUP OP_HASH160 8eeff7603bd515cf688231609f4f78c8a0e28f43 OP_EQUALVERIFY OP_CHECKSIG", "type": "pubkeyhash"}, "value": 0.00024333, "n": 0}, {"scriptPubKey": {"reqSigs": 1, "hex": "a914f5342287aaa57f5c05756dbd5ef14091cc70030f87", "addresses": ["3Q3XvwKWsx3ocmCXheK6pAo5ieooFx75hh"], "asm": "OP_HASH160 f5342287aaa57f5c05756dbd5ef14091cc70030f OP_EQUAL", "type": "scripthash"}, "value": 0.11609319, "n": 1}], "hex": "01000000000101069e73a31073acd9c5191fac574f287902300834594ae023a3784c048e8330bd01000000232200204fd7968ffe15cb453352a1e9ee2915eff8b6d6252d5a351f9092b82ca10eb12cffffffff020d5f0000000000001976a9148eeff7603bd515cf688231609f4f78c8a0e28f4388ace724b1000000000017a914f5342287aaa57f5c05756dbd5ef14091cc70030f870400483045022100a2917f54c4b0b2700ca0e3f97dc335fb742cfbd486db08720b14f1641dc84299022059636a28f2c5e81be9e90da60572f73ba0e399ea4e5c4e66ee963fd2e525f8cc0147304402200879e20f86dba8a41500022c2dacca98209d67a946796c70d8a5907ec6e38c1502200cfd5cad83ec7f0c88d1f00af9ece73aad4a2b2408d4e9640c4a8d1bb98b32dc0147522103b70e79262cbb7310fe069dea7c473b53276b75c67fb841ff66279f152a3fe0172103871fc2ca08e6950b38867e8e6a0e94ee625223d3aa0df5c65f414c6d784467e252ae00000000", "vin": [{"txinwitness": ["", "3045022100a2917f54c4b0b2700ca0e3f97dc335fb742cfbd486db08720b14f1641dc84299022059636a28f2c5e81be9e90da60572f73ba0e399ea4e5c4e66ee963fd2e525f8cc01", "304402200879e20f86dba8a41500022c2dacca98209d67a946796c70d8a5907ec6e38c1502200cfd5cad83ec7f0c88d1f00af9ece73aad4a2b2408d4e9640c4a8d1bb98b32dc01", "522103b70e79262cbb7310fe069dea7c473b53276b75c67fb841ff66279f152a3fe0172103871fc2ca08e6950b38867e8e6a0e94ee625223d3aa0df5c65f414c6d784467e252ae"], "sequence": 4294967295, "scriptSig": {"hex": "2200204fd7968ffe15cb453352a1e9ee2915eff8b6d6252d5a351f9092b82ca10eb12c", "asm": "00204fd7968ffe15cb453352a1e9ee2915eff8b6d6252d5a351f9092b82ca10eb12c"}, "vout": 1, "txid": "bd30838e044c78a323e04a593408300279284f57ac1f19c5d9ac7310a3739e06"}], "txid": "cafc072679c91ece3069b74ab398b756e8052796065f6c3a33cae42cd329038c", "blocktime": 1537871767, "version": 1, "confirmations": 11495, "time": 1537871767, "locktime": 0, "vsize": 208, "size": 373}