{"hash": "cb05c7a0ba4bb5eafb1ede98ffb2381693e1c776275aa83f753d6c4aa8e27402", "blockhash": "0000000000000000000e13cef7c366c0283d82e591d1acd082e914b08063cdf1", "vout": [{"scriptPubKey": {"reqSigs": 1, "hex": "76a9141303d2a39d83f66710eec872b25b6233973c388888ac", "addresses": ["12jYRFycdR19TNVHHv1xuh5gcafdBJkEW2"], "asm": "OP_DUP OP_HASH160 1303d2a39d83f66710eec872b25b6233973c3888 OP_EQUALVERIFY OP_CHECKSIG", "type": "pubkeyhash"}, "value": 0.01999197, "n": 0}, {"scriptPubKey": {"type": "nulldata", "hex": "6a146f6d6e69000000000000001f000002092b097000", "asm": "OP_RETURN 6f6d6e69000000000000001f000002092b097000"}, "value": 0.0, "n": 1}, {"scriptPubKey": {"reqSigs": 1, "hex": "76a914628a073fe8ce7a239e56a9158ebd5d291a8bc0d988ac", "addresses": ["19z2aBA5FYQm9bK1Q5UW5u7bJWHbZZ4Z5E"], "asm": "OP_DUP OP_HASH160 628a073fe8ce7a239e56a9158ebd5d291a8bc0d9 OP_EQUALVERIFY OP_CHECKSIG", "type": "pubkeyhash"}, "value": 5.46e-06, "n": 2}], "hex": "0100000001070cc69ae71f2b35b90916fc265d58c2fdcf15f0069e3c1ec5201f5d6594dad9000000006b483045022100c023d29e789bc03d2e61f4915847a336007bfb77a830bb4ca9da33fa60ea3f0e02206650c503021bc39f53e6b4b456a17fe85ad7f93cf438e240cf97db27df773ccf01210320ca9d3f94dae7ee99fde240639bc0baf675debb427215e67279cfd33171eba7feffffff035d811e00000000001976a9141303d2a39d83f66710eec872b25b6233973c388888ac0000000000000000166a146f6d6e69000000000000001f000002092b09700022020000000000001976a914628a073fe8ce7a239e56a9158ebd5d291a8bc0d988ac10490800", "vin": [{"sequence": 4294967294, "scriptSig": {"hex": "483045022100c023d29e789bc03d2e61f4915847a336007bfb77a830bb4ca9da33fa60ea3f0e02206650c503021bc39f53e6b4b456a17fe85ad7f93cf438e240cf97db27df773ccf01210320ca9d3f94dae7ee99fde240639bc0baf675debb427215e67279cfd33171eba7", "asm": "3045022100c023d29e789bc03d2e61f4915847a336007bfb77a830bb4ca9da33fa60ea3f0e02206650c503021bc39f53e6b4b456a17fe85ad7f93cf438e240cf97db27df773ccf[ALL] 0320ca9d3f94dae7ee99fde240639bc0baf675debb427215e67279cfd33171eba7"}, "vout": 0, "txid": "d9da94655d1f20c51e3c9e06f015cffdc2585d26fc1609b9352b1fe79ac60c07"}], "txid": "cb05c7a0ba4bb5eafb1ede98ffb2381693e1c776275aa83f753d6c4aa8e27402", "blocktime": 1537871767, "version": 1, "confirmations": 11495, "time": 1537871767, "locktime": 542992, "vsize": 257, "size": 257}