{"hash": "cb06a766b2224e7f247073585ec7a3b66508badcceee4d32609be3348e554fc4", "blockhash": "00000000000000000004ffacab907a6b429b9a5745fa0b75af4234bf69dd7176", "vout": [{"scriptPubKey": {"reqSigs": 1, "hex": "a9145de21e70d38d79a8081be24486fd44d103eae76287", "addresses": ["3AFReQDxMrAf9qzmGxG9R8EwuWReeCbLM9"], "asm": "OP_HASH160 5de21e70d38d79a8081be24486fd44d103eae762 OP_EQUAL", "type": "scripthash"}, "value": 0.21, "n": 0}, {"scriptPubKey": {"reqSigs": 1, "hex": "76a914725cac4901f2964a38649c59d86b21ce63edf05688ac", "addresses": ["1BRh3uFPLS2hEkuYvCaqDXrBjHBx8Pe2fe"], "asm": "OP_DUP OP_HASH160 725cac4901f2964a38649c59d86b21ce63edf056 OP_EQUALVERIFY OP_CHECKSIG", "type": "pubkeyhash"}, "value": 0.1999628, "n": 1}], "hex": "0100000002513e620aa0b2dbc4ca58bc58509ad7f658d5d73775897018bfc58f9719004d37060000006a47304402203b5db9053bd4a751612cd757c733c16ce406b7670b521dd2194852d497e7dc600220014bfa5dc9d14924b4ab3519399abcb330383ccc0cc44de3f74eb20f17b91a5c012102ea9a560db2d2c20640cdfc6c802764836aa5c5ea83085f311728d4b531aec0e0ffffffff006117afec450b7ba0cc786b422eac206592ccc85cffbc396a11b82ed2fed33f000000006a47304402206f49102771e3137e24d7e15f7266e56a8468c0029ce3b0c3e683d317988b18f6022068066717ae760dd77f05997bac9c3fb236d988255e30f5d5c5e759c41b95d722012102ea9a560db2d2c20640cdfc6c802764836aa5c5ea83085f311728d4b531aec0e0ffffffff02406f40010000000017a9145de21e70d38d79a8081be24486fd44d103eae76287781e3101000000001976a914725cac4901f2964a38649c59d86b21ce63edf05688ac00000000", "vin": [{"sequence": 4294967295, "scriptSig": {"hex": "47304402203b5db9053bd4a751612cd757c733c16ce406b7670b521dd2194852d497e7dc600220014bfa5dc9d14924b4ab3519399abcb330383ccc0cc44de3f74eb20f17b91a5c012102ea9a560db2d2c20640cdfc6c802764836aa5c5ea83085f311728d4b531aec0e0", "asm": "304402203b5db9053bd4a751612cd757c733c16ce406b7670b521dd2194852d497e7dc600220014bfa5dc9d14924b4ab3519399abcb330383ccc0cc44de3f74eb20f17b91a5c[ALL] 02ea9a560db2d2c20640cdfc6c802764836aa5c5ea83085f311728d4b531aec0e0"}, "vout": 6, "txid": "374d0019978fc5bf1870897537d7d558f6d79a5058bc58cac4dbb2a00a623e51"}, {"sequence": 4294967295, "scriptSig": {"hex": "47304402206f49102771e3137e24d7e15f7266e56a8468c0029ce3b0c3e683d317988b18f6022068066717ae760dd77f05997bac9c3fb236d988255e30f5d5c5e759c41b95d722012102ea9a560db2d2c20640cdfc6c802764836aa5c5ea83085f311728d4b531aec0e0", "asm": "304402206f49102771e3137e24d7e15f7266e56a8468c0029ce3b0c3e683d317988b18f6022068066717ae760dd77f05997bac9c3fb236d988255e30f5d5c5e759c41b95d722[ALL] 02ea9a560db2d2c20640cdfc6c802764836aa5c5ea83085f311728d4b531aec0e0"}, "vout": 0, "txid": "3fd3fed22eb8116a39bcff5cc8cc926520ac2e426b78cca07b0b45ecaf176100"}], "txid": "cb06a766b2224e7f247073585ec7a3b66508badcceee4d32609be3348e554fc4", "blocktime": 1537875543, "version": 1, "confirmations": 11464, "time": 1537875543, "locktime": 0, "vsize": 370, "size": 370}