{"hash": "cb066eafe7a39edebee8d2f57ebddd7d39feebe0995f190a6247a4b0a0865e19", "blockhash": "0000000000000000001cda96e906b7601b7a6fb1a3b62bca570a9e5d8f4b3de1", "vout": [{"scriptPubKey": {"reqSigs": 1, "hex": "76a9146c37cc9baef378cf628678b1da3c7cc2a965ed3f88ac", "addresses": ["1AsCpicwi6NS8bAygGZ4QL3P4fd8X64y7T"], "asm": "OP_DUP OP_HASH160 6c37cc9baef378cf628678b1da3c7cc2a965ed3f OP_EQUALVERIFY OP_CHECKSIG", "type": "pubkeyhash"}, "value": 0.54650696, "n": 0}, {"scriptPubKey": {"reqSigs": 1, "hex": "76a914778e7b3ecdf08ab57f9c369a16ace91530c746e188ac", "addresses": ["1BuA6cSAJqLgWYmkWWugrjwuYNWQZmuN83"], "asm": "OP_DUP OP_HASH160 778e7b3ecdf08ab57f9c369a16ace91530c746e1 OP_EQUALVERIFY OP_CHECKSIG", "type": "pubkeyhash"}, "value": 0.52092611, "n": 1}], "hex": "010000000417b805fec030829632ff5c53b151c4eb6e5dae02a35a54d223ff0f53bae6df80000000006b483045022100a40a121e0768928305dff78e6890432c1d50d7770edb0ca520480178a4101998022045966a6038506520af7af6ce46213f62f8cbd3ef8fdb49d595d883c1d31841de0121036cfa7770412ea18bcd7fe4bef843f0403ac2144e34416efeb6e1f5992b47fde1ffffffff46f930ee078d58c12e935c771876a55194a8005fa53e2d51622b161ba458382a000000006b483045022100cc3f34184be3da6fbe224c7ee181a8b910e49eb785f051bff1b9005f0a3ce71302205ea8a6338c8028eeaccc60575d751cf2ada899b4efab88f16fcb928965930ed80121036cfa7770412ea18bcd7fe4bef843f0403ac2144e34416efeb6e1f5992b47fde1ffffffff8ad3c207b876777264e94539fe18091cfe13efa53a9de4f42f2216580af936eb000000006a47304402204a51858adb2f23eb6708c60c4b5bc709169179dc7c9b4f9ef62e4e727e45cc0102207b7206eeb4b743fa14f9acffdeca34c8c66c042dc98ee78f1f53cd0e8d68fe630121036cfa7770412ea18bcd7fe4bef843f0403ac2144e34416efeb6e1f5992b47fde1ffffffffce22f83d37012b1fd9b960999001bd20e05e275e558348cb1253eef2b32ab3ae000000006a47304402202ec6193cad10e08d30b4bb2377fee3c77f594b3ea14c9c31abc61b44a70c552d022037794ecfcfd2844cf5c18a1776bac7584c6f8386c1edb4b42162dd04629aef890121036cfa7770412ea18bcd7fe4bef843f0403ac2144e34416efeb6e1f5992b47fde1ffffffff0248e74103000000001976a9146c37cc9baef378cf628678b1da3c7cc2a965ed3f88acc3de1a03000000001976a914778e7b3ecdf08ab57f9c369a16ace91530c746e188ac00000000", "vin": [{"sequence": 4294967295, "scriptSig": {"hex": "483045022100a40a121e0768928305dff78e6890432c1d50d7770edb0ca520480178a4101998022045966a6038506520af7af6ce46213f62f8cbd3ef8fdb49d595d883c1d31841de0121036cfa7770412ea18bcd7fe4bef843f0403ac2144e34416efeb6e1f5992b47fde1", "asm": "3045022100a40a121e0768928305dff78e6890432c1d50d7770edb0ca520480178a4101998022045966a6038506520af7af6ce46213f62f8cbd3ef8fdb49d595d883c1d31841de[ALL] 036cfa7770412ea18bcd7fe4bef843f0403ac2144e34416efeb6e1f5992b47fde1"}, "vout": 0, "txid": "80dfe6ba530fff23d2545aa302ae5d6eebc451b1535cff32968230c0fe05b817"}, {"sequence": 4294967295, "scriptSig": {"hex": "483045022100cc3f34184be3da6fbe224c7ee181a8b910e49eb785f051bff1b9005f0a3ce71302205ea8a6338c8028eeaccc60575d751cf2ada899b4efab88f16fcb928965930ed80121036cfa7770412ea18bcd7fe4bef843f0403ac2144e34416efeb6e1f5992b47fde1", "asm": "3045022100cc3f34184be3da6fbe224c7ee181a8b910e49eb785f051bff1b9005f0a3ce71302205ea8a6338c8028eeaccc60575d751cf2ada899b4efab88f16fcb928965930ed8[ALL] 036cfa7770412ea18bcd7fe4bef843f0403ac2144e34416efeb6e1f5992b47fde1"}, "vout": 0, "txid": "2a3858a41b162b62512d3ea55f00a89451a57618775c932ec1588d07ee30f946"}, {"sequence": 4294967295, "scriptSig": {"hex": "47304402204a51858adb2f23eb6708c60c4b5bc709169179dc7c9b4f9ef62e4e727e45cc0102207b7206eeb4b743fa14f9acffdeca34c8c66c042dc98ee78f1f53cd0e8d68fe630121036cfa7770412ea18bcd7fe4bef843f0403ac2144e34416efeb6e1f5992b47fde1", "asm": "304402204a51858adb2f23eb6708c60c4b5bc709169179dc7c9b4f9ef62e4e727e45cc0102207b7206eeb4b743fa14f9acffdeca34c8c66c042dc98ee78f1f53cd0e8d68fe63[ALL] 036cfa7770412ea18bcd7fe4bef843f0403ac2144e34416efeb6e1f5992b47fde1"}, "vout": 0, "txid": "eb36f90a5816222ff4e49d3aa5ef13fe1c0918fe3945e964727776b807c2d38a"}, {"sequence": 4294967295, "scriptSig": {"hex": "47304402202ec6193cad10e08d30b4bb2377fee3c77f594b3ea14c9c31abc61b44a70c552d022037794ecfcfd2844cf5c18a1776bac7584c6f8386c1edb4b42162dd04629aef890121036cfa7770412ea18bcd7fe4bef843f0403ac2144e34416efeb6e1f5992b47fde1", "asm": "304402202ec6193cad10e08d30b4bb2377fee3c77f594b3ea14c9c31abc61b44a70c552d022037794ecfcfd2844cf5c18a1776bac7584c6f8386c1edb4b42162dd04629aef89[ALL] 036cfa7770412ea18bcd7fe4bef843f0403ac2144e34416efeb6e1f5992b47fde1"}, "vout": 0, "txid": "aeb32ab3f2ee5312cb4883555e275ee020bd01909960b9d91f2b01373df822ce"}], "txid": "cb066eafe7a39edebee8d2f57ebddd7d39feebe0995f190a6247a4b0a0865e19", "blocktime": 1537873282, "version": 1, "confirmations": 11481, "time": 1537873282, "locktime": 0, "vsize": 668, "size": 668}