{"hash": "cb1bbcb73207e9e9cad8d495122ee76175f5b600446ac6241cb2429dffceea03", "blockhash": "0000000000000000001f76057863aec43deb6fa401d9628bb513d65a8098bfab", "vout": [{"scriptPubKey": {"reqSigs": 1, "hex": "76a91445011badd0a4cdb9751b61645ab6c1fa2d9a793888ac", "addresses": ["17HrxELMr5P3zWAjUW94U43FeH84vYyqSr"], "asm": "OP_DUP OP_HASH160 45011badd0a4cdb9751b61645ab6c1fa2d9a7938 OP_EQUALVERIFY OP_CHECKSIG", "type": "pubkeyhash"}, "value": 0.00010275, "n": 0}, {"scriptPubKey": {"reqSigs": 1, "hex": "76a9140e34b493e6953963ea97ef8e542ec9337cc8c44988ac", "addresses": ["12J7bikFH2TXm4c1pkHBrXuohBAaU1fw3k"], "asm": "OP_DUP OP_HASH160 0e34b493e6953963ea97ef8e542ec9337cc8c449 OP_EQUALVERIFY OP_CHECKSIG", "type": "pubkeyhash"}, "value": 0.05609585, "n": 1}], "hex": "010000000158dee758c05b70d14e4ad512637a215535ea810cb6967b754b1ee94e5978d81e010000006a47304402204a2ad04e6de3c3fdf141bbe5c86c092dacf75f02dc4ad591db895113e8b5820f02203fae3a194a896b94ab551fcf120143941b309b1a9f5a92189cf63e004e4e6b910121025a119363a5cddd61206addaefd49537f94cb579cd4b9a3dcea3ccc8149f2111bffffffff0223280000000000001976a91445011badd0a4cdb9751b61645ab6c1fa2d9a793888ac71985500000000001976a9140e34b493e6953963ea97ef8e542ec9337cc8c44988ac00000000", "vin": [{"sequence": 4294967295, "scriptSig": {"hex": "47304402204a2ad04e6de3c3fdf141bbe5c86c092dacf75f02dc4ad591db895113e8b5820f02203fae3a194a896b94ab551fcf120143941b309b1a9f5a92189cf63e004e4e6b910121025a119363a5cddd61206addaefd49537f94cb579cd4b9a3dcea3ccc8149f2111b", "asm": "304402204a2ad04e6de3c3fdf141bbe5c86c092dacf75f02dc4ad591db895113e8b5820f02203fae3a194a896b94ab551fcf120143941b309b1a9f5a92189cf63e004e4e6b91[ALL] 025a119363a5cddd61206addaefd49537f94cb579cd4b9a3dcea3ccc8149f2111b"}, "vout": 1, "txid": "1ed878594ee91e4b757b96b60c81ea3555217a6312d54a4ed1705bc058e7de58"}], "txid": "cb1bbcb73207e9e9cad8d495122ee76175f5b600446ac6241cb2429dffceea03", "blocktime": 1537873891, "version": 1, "confirmations": 11478, "time": 1537873891, "locktime": 0, "vsize": 225, "size": 225}