{"hash": "cb1cbed1f23802956a3990862d587a77ded0c115909215dcbada8d772d161086", "blockhash": "00000000000000000004ffacab907a6b429b9a5745fa0b75af4234bf69dd7176", "vout": [{"scriptPubKey": {"reqSigs": 1, "hex": "76a9143a7752ad1331b773ca35805d416f50de6f578b0f88ac", "addresses": ["16L98qAB7AQF2ky5N5cd3vodmbZYTN8kq6"], "asm": "OP_DUP OP_HASH160 3a7752ad1331b773ca35805d416f50de6f578b0f OP_EQUALVERIFY OP_CHECKSIG", "type": "pubkeyhash"}, "value": 0.01474493, "n": 0}], "hex": "0100000001e9ed7dc801a9662394602e577b5f5317962d845eff6881e5e25d31770defc7e2000000006b483045022100dd46d4d3a4456d87272328ec43fde971fb5a8b974e5b98c6e30cfa3937f7e8030220654d619c9d18acab7276a646bc0cf8cdf18bf6e810baee25804eb540407195b3012102e76cccf81baf120680eb6dca84616b5060d38c3fb5e6d7cbace6bb313d63834fffffffff01bd7f1600000000001976a9143a7752ad1331b773ca35805d416f50de6f578b0f88ac00000000", "vin": [{"sequence": 4294967295, "scriptSig": {"hex": "483045022100dd46d4d3a4456d87272328ec43fde971fb5a8b974e5b98c6e30cfa3937f7e8030220654d619c9d18acab7276a646bc0cf8cdf18bf6e810baee25804eb540407195b3012102e76cccf81baf120680eb6dca84616b5060d38c3fb5e6d7cbace6bb313d63834f", "asm": "3045022100dd46d4d3a4456d87272328ec43fde971fb5a8b974e5b98c6e30cfa3937f7e8030220654d619c9d18acab7276a646bc0cf8cdf18bf6e810baee25804eb540407195b3[ALL] 02e76cccf81baf120680eb6dca84616b5060d38c3fb5e6d7cbace6bb313d63834f"}, "vout": 0, "txid": "e2c7ef0d77315de2e58168ff5e842d9617535f7b572e60942366a901c87dede9"}], "txid": "cb1cbed1f23802956a3990862d587a77ded0c115909215dcbada8d772d161086", "blocktime": 1537875543, "version": 1, "confirmations": 11464, "time": 1537875543, "locktime": 0, "vsize": 192, "size": 192}