{"hash": "918f87edde056302392a1e5735103424bb74c02df2cba552d410a64b9f2b09a0", "blockhash": "00000000000000000024a2167bbff67b0be802c0b01cdd79e6331c2be6459f87", "vout": [{"scriptPubKey": {"reqSigs": 1, "hex": "76a914d766ce0f424c46e8edbff7069b151e9dbefeb98588ac", "addresses": ["1LdwSFmaSncRU6PuS63Ja6DPVUYDxyB2S7"], "asm": "OP_DUP OP_HASH160 d766ce0f424c46e8edbff7069b151e9dbefeb985 OP_EQUALVERIFY OP_CHECKSIG", "type": "pubkeyhash"}, "value": 0.153, "n": 0}, {"scriptPubKey": {"reqSigs": 1, "hex": "a9143fd78661064c463a8f8defd24948357e6c1febfd87", "addresses": ["37WagZbr7uzE8gsKTdz8gAwKDVi6N22LZY"], "asm": "OP_HASH160 3fd78661064c463a8f8defd24948357e6c1febfd OP_EQUAL", "type": "scripthash"}, "value": 0.00999663, "n": 1}], "hex": "020000000001037c72ac1a0dcd3abfeba15649b357792a01bd72fbfb029d34127c57f7d7a931ee1f0000001716001481520326b039427473fd399e9e6ff3b966590103feffffff9f78891ac77a970a8efb83dc75fea450e01a8a1702bc1f06a7809c3412bedb01000000001716001467749bbcc3c88e84c52489ee67b92bb73f627abafeffffffd24e9e40f9d64d0cb9627a5e2821319637808463c11aec9924d58c7a061753600100000017160014b74358318a796ed9b2dc99520eacd5faeb005331feffffff02a075e900000000001976a914d766ce0f424c46e8edbff7069b151e9dbefeb98588acef400f000000000017a9143fd78661064c463a8f8defd24948357e6c1febfd8702483045022100cbe4e7461499646f1e6bb84d590cb103d9ce2efcf87a1a0301e0326c974943020220793d9b30f34f1e9c97313b67e215e2ab6c686e506c79c933e9ee5084fde83f5c012102784b652845848c3d036b427a3015ac6f43b0819062566c6db1b7670935758d3c02483045022100cf65a1aa81934a6ab082c157307d60bf1b464c68b3abf99238cb03d61ed25f0a022011e63d87b281ad0bce51da21adaef3a692a884da3de969f8a1d6df5b476559c3012102226030ad959e9f82a24df9d66228cbf59d3558e2f1b9805b530ec121304ab9c202483045022100e6e4010b3e6b5d13410fc04021a3bba3f7daa943929b71dafaee0267cd2903c702202ddacd3a519a213aa979116fd344ed57a6fa45e2f65e38fbf92a6baf22cded9101210369fc5692705ad54007e72b9abe15bb3893aaba5fb35e63d226343f6f509c447abf480800", "vin": [{"txinwitness": ["3045022100cbe4e7461499646f1e6bb84d590cb103d9ce2efcf87a1a0301e0326c974943020220793d9b30f34f1e9c97313b67e215e2ab6c686e506c79c933e9ee5084fde83f5c01", "02784b652845848c3d036b427a3015ac6f43b0819062566c6db1b7670935758d3c"], "sequence": 4294967294, "scriptSig": {"hex": "16001481520326b039427473fd399e9e6ff3b966590103", "asm": "001481520326b039427473fd399e9e6ff3b966590103"}, "vout": 31, "txid": "ee31a9d7f7577c12349d02fbfb72bd012a7957b34956a1ebbf3acd0d1aac727c"}, {"txinwitness": ["3045022100cf65a1aa81934a6ab082c157307d60bf1b464c68b3abf99238cb03d61ed25f0a022011e63d87b281ad0bce51da21adaef3a692a884da3de969f8a1d6df5b476559c301", "02226030ad959e9f82a24df9d66228cbf59d3558e2f1b9805b530ec121304ab9c2"], "sequence": 4294967294, "scriptSig": {"hex": "16001467749bbcc3c88e84c52489ee67b92bb73f627aba", "asm": "001467749bbcc3c88e84c52489ee67b92bb73f627aba"}, "vout": 0, "txid": "01dbbe12349c80a7061fbc02178a1ae050a4fe75dc83fb8e0a977ac71a89789f"}, {"txinwitness": ["3045022100e6e4010b3e6b5d13410fc04021a3bba3f7daa943929b71dafaee0267cd2903c702202ddacd3a519a213aa979116fd344ed57a6fa45e2f65e38fbf92a6baf22cded9101", "0369fc5692705ad54007e72b9abe15bb3893aaba5fb35e63d226343f6f509c447a"], "sequence": 4294967294, "scriptSig": {"hex": "160014b74358318a796ed9b2dc99520eacd5faeb005331", "asm": "0014b74358318a796ed9b2dc99520eacd5faeb005331"}, "vout": 1, "txid": "605317067a8cd52499ec1ac163848037963121285e7a62b90c4dd6f9409e4ed2"}], "txid": "cb1d7374ef60a56656244338f89c0cd1c886de1680846de471ddc3ee2142de31", "blocktime": 1537870564, "version": 2, "confirmations": 11515, "time": 1537870564, "locktime": 542911, "vsize": 350, "size": 594}