{"hash": "cb2062fe14ae57fd2eb9c89521aec9025e9b5523c06292e5d3766c892a45f4e7", "blockhash": "0000000000000000001f0ddff1eddb255c1121bcd4da4f1bc9a0da00cae72433", "vout": [{"scriptPubKey": {"reqSigs": 1, "hex": "a914476a8be27205eda28fed82e0664ea8529f0901b687", "addresses": ["38CdY91yh5jacDugszgVv7gHzRmVgpDWvm"], "asm": "OP_HASH160 476a8be27205eda28fed82e0664ea8529f0901b6 OP_EQUAL", "type": "scripthash"}, "value": 0.00391144, "n": 0}, {"scriptPubKey": {"reqSigs": 1, "hex": "a9141701e3e7135bdee9865fa8fd4fd81e709da7d0d987", "addresses": ["33nfjHujwP89NJs19JvUDyK1cFJf9itt4X"], "asm": "OP_HASH160 1701e3e7135bdee9865fa8fd4fd81e709da7d0d9 OP_EQUAL", "type": "scripthash"}, "value": 0.01172883, "n": 1}], "hex": "0100000001e2d6c83af475ff15305466b84e3104ab9ff7cfb4289f2e620125b8c658d8b77101000000fdfe000048304502210089aec543ac12f2c9835c0c3cedd2f4084e636693a6a52944b065260b81c79afb022034b65a4e2dbd7c9e63d958d2ae4ed1e79c798d0ea03f711b6b8b098081c4956501483045022100cccff992c0006250e5771468cb6345c104239a1fcc7e2394e6079013fa3174ab022000d852f4f7c6737bfbb4e5a99f2c96eae8e91d1f1fd38414a332b85bc70d63de014c695221031ebcdc29ba5bd2925d4919d4d9ad764908216d70f79f40d158cd2d5d9e3227a22103ac7b86208edf8c8fe6b4b5fe1ae6b64b300dfe95fc2ead2da5f7cd29e31174012103dff336443734c4875b90b8d02f6274e91bc6ebd9b76afc06ddec5707f224386853aeffffffff02e8f705000000000017a914476a8be27205eda28fed82e0664ea8529f0901b68793e511000000000017a9141701e3e7135bdee9865fa8fd4fd81e709da7d0d98700000000", "vin": [{"sequence": 4294967295, "scriptSig": {"hex": "0048304502210089aec543ac12f2c9835c0c3cedd2f4084e636693a6a52944b065260b81c79afb022034b65a4e2dbd7c9e63d958d2ae4ed1e79c798d0ea03f711b6b8b098081c4956501483045022100cccff992c0006250e5771468cb6345c104239a1fcc7e2394e6079013fa3174ab022000d852f4f7c6737bfbb4e5a99f2c96eae8e91d1f1fd38414a332b85bc70d63de014c695221031ebcdc29ba5bd2925d4919d4d9ad764908216d70f79f40d158cd2d5d9e3227a22103ac7b86208edf8c8fe6b4b5fe1ae6b64b300dfe95fc2ead2da5f7cd29e31174012103dff336443734c4875b90b8d02f6274e91bc6ebd9b76afc06ddec5707f224386853ae", "asm": "0 304502210089aec543ac12f2c9835c0c3cedd2f4084e636693a6a52944b065260b81c79afb022034b65a4e2dbd7c9e63d958d2ae4ed1e79c798d0ea03f711b6b8b098081c49565[ALL] 3045022100cccff992c0006250e5771468cb6345c104239a1fcc7e2394e6079013fa3174ab022000d852f4f7c6737bfbb4e5a99f2c96eae8e91d1f1fd38414a332b85bc70d63de[ALL] 5221031ebcdc29ba5bd2925d4919d4d9ad764908216d70f79f40d158cd2d5d9e3227a22103ac7b86208edf8c8fe6b4b5fe1ae6b64b300dfe95fc2ead2da5f7cd29e31174012103dff336443734c4875b90b8d02f6274e91bc6ebd9b76afc06ddec5707f224386853ae"}, "vout": 1, "txid": "71b7d858c6b82501622e9f28b4cff79fab04314eb866543015ff75f43ac8d6e2"}], "txid": "cb2062fe14ae57fd2eb9c89521aec9025e9b5523c06292e5d3766c892a45f4e7", "blocktime": 1537872018, "version": 1, "confirmations": 11489, "time": 1537872018, "locktime": 0, "vsize": 371, "size": 371}