{"hash": "7de5e0f39510786a5e8cf73835de814d84860c8b8ba0dad0cb845ea06f42ba4d", "blockhash": "0000000000000000001e0dab787dd257d1dbfcb92a98c2207d5e1078be1f4165", "vout": [{"scriptPubKey": {"reqSigs": 1, "hex": "0014917f9fdd2bf524962dbdcac4d195daa0ae208798", "addresses": ["bc1qj9lelhft75jfvtdaetzdr9w65zhzppuczpvtd9"], "asm": "0 917f9fdd2bf524962dbdcac4d195daa0ae208798", "type": "witness_v0_keyhash"}, "value": 0.00219193, "n": 0}, {"scriptPubKey": {"reqSigs": 1, "hex": "a91422c6bbe9f0e50b2a66471e8a2ca408a2500407d987", "addresses": ["34rtyMCTtmHmnFuJUCKDWpn2qDtizcyNRZ"], "asm": "OP_HASH160 22c6bbe9f0e50b2a66471e8a2ca408a2500407d9 OP_EQUAL", "type": "scripthash"}, "value": 0.00750478, "n": 1}], "hex": "0100000000010100e845397e511a52a6df9039a0b79ea6a12358e048c0e8262e0cb34bfb2c0ad90000000000ffffffff023958030000000000160014917f9fdd2bf524962dbdcac4d195daa0ae2087988e730b000000000017a91422c6bbe9f0e50b2a66471e8a2ca408a2500407d987024730440220304537e4b2a8a7515b3e0868455df0f4db2bb25d4b9ec2e0f94a59c3eb6e867e02202061fcacffac26fe7d8da1085d0d3eea2d9dd6c5d57a5bbc8b3aa8e0f37e3b1801210315bfce45675b094bd0748c22d391ee47aedad802e7c3ddefae7c582929aa3d0c00000000", "vin": [{"txinwitness": ["30440220304537e4b2a8a7515b3e0868455df0f4db2bb25d4b9ec2e0f94a59c3eb6e867e02202061fcacffac26fe7d8da1085d0d3eea2d9dd6c5d57a5bbc8b3aa8e0f37e3b1801", "0315bfce45675b094bd0748c22d391ee47aedad802e7c3ddefae7c582929aa3d0c"], "sequence": 4294967295, "scriptSig": {"hex": "", "asm": ""}, "vout": 0, "txid": "d90a2cfb4bb30c2e26e8c048e05823a1a69eb7a03990dfa6521a517e3945e800"}], "txid": "cb2c13cb718d001209c1bae4350ec1ef79a8f3d4449c9bd463eab997518adaa7", "blocktime": 1537872475, "version": 1, "confirmations": 11486, "time": 1537872475, "locktime": 0, "vsize": 142, "size": 223}