{"hash": "cb391fa07852cba337b03a5b0049c8bbee26570ec919221b5476b2a724a4b6ab", "blockhash": "0000000000000000001e0dab787dd257d1dbfcb92a98c2207d5e1078be1f4165", "vout": [{"scriptPubKey": {"reqSigs": 1, "hex": "76a914c5921dd29fb8d1e4ec916c3689522500cfd0e41888ac", "addresses": ["1K1fA9Gtu8QiWvHt4Xes4us4RMHAYJxizy"], "asm": "OP_DUP OP_HASH160 c5921dd29fb8d1e4ec916c3689522500cfd0e418 OP_EQUALVERIFY OP_CHECKSIG", "type": "pubkeyhash"}, "value": 0.00692872, "n": 0}, {"scriptPubKey": {"reqSigs": 1, "hex": "76a914c62204c8cd5e6c5be414e05cc00d88c180d7147a88ac", "addresses": ["1K4dYeFwaQwfMzoga9xJtygPwAd8z654RX"], "asm": "OP_DUP OP_HASH160 c62204c8cd5e6c5be414e05cc00d88c180d7147a OP_EQUALVERIFY OP_CHECKSIG", "type": "pubkeyhash"}, "value": 0.403056, "n": 1}], "hex": "01000000018e0fc427d76a7a30d13500cfb288ea928c3f682f05390be54458e86a7e644733010000006b483045022100916a06e2c665bf25f19de3b01ae23b17a6df428e1b38e6f1e911a70f28635a1c0220376394dbe75212222bb2a6a793d79e648f0e7240019b151ed5a62fcaa6ce7920012102a6f3b027d19e877aeffbb049172560a0c90f3484c1afa178074f5aed3e9c182effffffff0288920a00000000001976a914c5921dd29fb8d1e4ec916c3689522500cfd0e41888acc0036702000000001976a914c62204c8cd5e6c5be414e05cc00d88c180d7147a88ac00000000", "vin": [{"sequence": 4294967295, "scriptSig": {"hex": "483045022100916a06e2c665bf25f19de3b01ae23b17a6df428e1b38e6f1e911a70f28635a1c0220376394dbe75212222bb2a6a793d79e648f0e7240019b151ed5a62fcaa6ce7920012102a6f3b027d19e877aeffbb049172560a0c90f3484c1afa178074f5aed3e9c182e", "asm": "3045022100916a06e2c665bf25f19de3b01ae23b17a6df428e1b38e6f1e911a70f28635a1c0220376394dbe75212222bb2a6a793d79e648f0e7240019b151ed5a62fcaa6ce7920[ALL] 02a6f3b027d19e877aeffbb049172560a0c90f3484c1afa178074f5aed3e9c182e"}, "vout": 1, "txid": "3347647e6ae85844e50b39052f683f8c92ea88b2cf0035d1307a6ad727c40f8e"}], "txid": "cb391fa07852cba337b03a5b0049c8bbee26570ec919221b5476b2a724a4b6ab", "blocktime": 1537872475, "version": 1, "confirmations": 11486, "time": 1537872475, "locktime": 0, "vsize": 226, "size": 226}