{"hash": "cb39c81c86d4490b279dad428050391943ee4f13f10e6a7241ccc3318a8ba1aa", "blockhash": "0000000000000000001e0dab787dd257d1dbfcb92a98c2207d5e1078be1f4165", "vout": [{"scriptPubKey": {"reqSigs": 1, "hex": "76a914a25dec4d0011064ef106a983c39c7a540699f22088ac", "addresses": ["1FoWyxwPXuj4C6abqwhjDWdz6D4PZgYRjA"], "asm": "OP_DUP OP_HASH160 a25dec4d0011064ef106a983c39c7a540699f220 OP_EQUALVERIFY OP_CHECKSIG", "type": "pubkeyhash"}, "value": 0.01961575, "n": 0}, {"scriptPubKey": {"type": "nulldata", "hex": "6a146f6d6e69000000000000001f0000006fc23ac000", "asm": "OP_RETURN 6f6d6e69000000000000001f0000006fc23ac000"}, "value": 0.0, "n": 1}, {"scriptPubKey": {"reqSigs": 1, "hex": "76a914176470b934fb29aed1909859e6f2d88a6b24375988ac", "addresses": ["138gs8SbQH92LCzPdCYewEhs8teUzx4EtG"], "asm": "OP_DUP OP_HASH160 176470b934fb29aed1909859e6f2d88a6b243759 OP_EQUALVERIFY OP_CHECKSIG", "type": "pubkeyhash"}, "value": 5.46e-06, "n": 2}], "hex": "01000000016af92480e69bd4ad8b81568521114efe2b522d426d74236f86e5124bc4ccce34000000006b483045022100d837e30f4f50b28ef999d3a1a92c34670d19fd0a69e022e64e51773f21401b25022006f1b51080f8db1f8221e10993916f81d060c7fcb6bed29fd4599fd7187a8120012103da5bac7b36d5aa38f531c6b9601e21bb598a4b6716ebed38b009a55dabde9440feffffff0367ee1d00000000001976a914a25dec4d0011064ef106a983c39c7a540699f22088ac0000000000000000166a146f6d6e69000000000000001f0000006fc23ac00022020000000000001976a914176470b934fb29aed1909859e6f2d88a6b24375988ac12490800", "vin": [{"sequence": 4294967294, "scriptSig": {"hex": "483045022100d837e30f4f50b28ef999d3a1a92c34670d19fd0a69e022e64e51773f21401b25022006f1b51080f8db1f8221e10993916f81d060c7fcb6bed29fd4599fd7187a8120012103da5bac7b36d5aa38f531c6b9601e21bb598a4b6716ebed38b009a55dabde9440", "asm": "3045022100d837e30f4f50b28ef999d3a1a92c34670d19fd0a69e022e64e51773f21401b25022006f1b51080f8db1f8221e10993916f81d060c7fcb6bed29fd4599fd7187a8120[ALL] 03da5bac7b36d5aa38f531c6b9601e21bb598a4b6716ebed38b009a55dabde9440"}, "vout": 0, "txid": "34ceccc44b12e5866f23746d422d522bfe4e11218556818badd49be68024f96a"}], "txid": "cb39c81c86d4490b279dad428050391943ee4f13f10e6a7241ccc3318a8ba1aa", "blocktime": 1537872475, "version": 1, "confirmations": 11486, "time": 1537872475, "locktime": 542994, "vsize": 257, "size": 257}