{"hash": "cb421ba72073383cbc538a69c9a6defd18f4c39a2df31f83129a9258f7355cd3", "blockhash": "00000000000000000018f53835495a110e01622372bf6ae95dc86f2b0ab887b0", "vout": [{"scriptPubKey": {"reqSigs": 1, "hex": "76a91486080360f7ab985d8592ec2808b0fea5d107c35688ac", "addresses": ["1DDh9UP1LNg9mKof3iKEJqdHTvGuccaXp6"], "asm": "OP_DUP OP_HASH160 86080360f7ab985d8592ec2808b0fea5d107c356 OP_EQUALVERIFY OP_CHECKSIG", "type": "pubkeyhash"}, "value": 0.01646594, "n": 0}], "hex": "020000000193199c8ef9f3775f31ca35a741e68a3491e7586fb0c00dc7c4882e19d35d78a7010000006b483045022100a51ed4612d52d34216c946e95d03d5a87e7f7e0aae4d71eecea91d63de7366ed022008a0ae04099e788837eea068a7824840ca0d3ac02b6f5ea8c9862bd35045ae3e012102fc95a6c82faedc34a49a92974c348cb0fa444745aeb7ef3c149212188d7be092ffffffff0102201900000000001976a91486080360f7ab985d8592ec2808b0fea5d107c35688ac00000000", "vin": [{"sequence": 4294967295, "scriptSig": {"hex": "483045022100a51ed4612d52d34216c946e95d03d5a87e7f7e0aae4d71eecea91d63de7366ed022008a0ae04099e788837eea068a7824840ca0d3ac02b6f5ea8c9862bd35045ae3e012102fc95a6c82faedc34a49a92974c348cb0fa444745aeb7ef3c149212188d7be092", "asm": "3045022100a51ed4612d52d34216c946e95d03d5a87e7f7e0aae4d71eecea91d63de7366ed022008a0ae04099e788837eea068a7824840ca0d3ac02b6f5ea8c9862bd35045ae3e[ALL] 02fc95a6c82faedc34a49a92974c348cb0fa444745aeb7ef3c149212188d7be092"}, "vout": 1, "txid": "a7785dd3192e88c4c70dc0b06f58e791348ae641a735ca315f77f3f98e9c1993"}], "txid": "cb421ba72073383cbc538a69c9a6defd18f4c39a2df31f83129a9258f7355cd3", "blocktime": 1537870928, "version": 2, "confirmations": 11514, "time": 1537870928, "locktime": 0, "vsize": 192, "size": 192}