{"hash": "3ee6e38d7b2873d63c963750aa18a8b63c09b1c54fc311407e54689891bb3f58", "blockhash": "0000000000000000001f0ddff1eddb255c1121bcd4da4f1bc9a0da00cae72433", "vout": [{"scriptPubKey": {"reqSigs": 1, "hex": "a9144acb69edae1f48174cf062de1cf013892c40eefd87", "addresses": ["38WVcBCQW17umAqwztHVbuiqeb25YPccym"], "asm": "OP_HASH160 4acb69edae1f48174cf062de1cf013892c40eefd OP_EQUAL", "type": "scripthash"}, "value": 0.00746407, "n": 0}, {"scriptPubKey": {"reqSigs": 1, "hex": "00142ab2d4c7aa5c69450ca8cb5df2cd5ecd2ce2b099", "addresses": ["bc1q92edf3a2t3552r9gedwl9n27e5kw9vyelaty20"], "asm": "0 2ab2d4c7aa5c69450ca8cb5df2cd5ecd2ce2b099", "type": "witness_v0_keyhash"}, "value": 0.00036683, "n": 1}], "hex": "01000000000101f41aa4d2a4fd58a45bfca8064e889fb6257340d36c871a151afd5875b56b67ac0000000000ffffffff02a7630b000000000017a9144acb69edae1f48174cf062de1cf013892c40eefd874b8f0000000000001600142ab2d4c7aa5c69450ca8cb5df2cd5ecd2ce2b099024830450221009a1a24afe7f0860dc1e417fd1c5befade45d6a75adeddec4bfe7ea1184c3c9c502207a9dcc7827c49aa5a606e18251d4a3656b21c1ee072949f144dac8a81a73dea00121023e0d28966dc865a73e72d2f403e9635d42e0d8ef92be448dd22bf863d5a2511300000000", "vin": [{"txinwitness": ["30450221009a1a24afe7f0860dc1e417fd1c5befade45d6a75adeddec4bfe7ea1184c3c9c502207a9dcc7827c49aa5a606e18251d4a3656b21c1ee072949f144dac8a81a73dea001", "023e0d28966dc865a73e72d2f403e9635d42e0d8ef92be448dd22bf863d5a25113"], "sequence": 4294967295, "scriptSig": {"hex": "", "asm": ""}, "vout": 0, "txid": "ac676bb57558fd1a151a876cd3407325b69f884e06a8fc5ba458fda4d2a41af4"}], "txid": "cb4bad32d8ad55dd389599b3f4021548c2b178383e9cfdfa2b6398aa8e43d452", "blocktime": 1537872018, "version": 1, "confirmations": 11489, "time": 1537872018, "locktime": 0, "vsize": 142, "size": 224}