{"hash": "cb4c75291ee672382e2c8f81f1a68d21571475a4756098ef7ff0c665a18cc850", "blockhash": "0000000000000000000dcc0f55137456b1a82d3642486a52398922ac4d620174", "vout": [{"scriptPubKey": {"reqSigs": 1, "hex": "a914bb10f77661699c29a097d73b16ebca91621a79ff87", "addresses": ["3Jk8cHAghvn1hRn4B33ujrXg5kpr46yYbF"], "asm": "OP_HASH160 bb10f77661699c29a097d73b16ebca91621a79ff OP_EQUAL", "type": "scripthash"}, "value": 0.00273344, "n": 0}, {"scriptPubKey": {"reqSigs": 1, "hex": "a9143d68d7aa428b11c190d8a8a71487183d57671d9b87", "addresses": ["37HijprogDS3Uncx4uszLbDotTLuBtDokd"], "asm": "OP_HASH160 3d68d7aa428b11c190d8a8a71487183d57671d9b OP_EQUAL", "type": "scripthash"}, "value": 0.00725758, "n": 1}], "hex": "0100000001af61c1779a9e7c0032dca8849f1b08922226f3ad76347fd5001a068a1bf69c2b01000000fdfd0000483045022100fc3d745fec7d6fc24b9bdab0ec76bf9995385d88e3eadfaa32c07504d7d96b99022069b34628aae7bc05bfd8445ca1a889406907b160f3ea870f772abb4562b791270147304402206a621a91984c9f738c96edb8b81c4e531c5a93f55a55ff19cd94ccfa1ce37fbe02200bb5ec337dc0db1c6f45653da47c0d05264d914ea4eaf748aef62a96eb8c0002014c69522102a0c0fe44be6a8b296b68b6efe88ab16bb08b4ec67931cc5a45be0afcc78eff8e21024e16a60788f21a45ab83c4940d73bcd786e2d42cac7301a7ab17905083a012ad2103d11623d7c875bc0d25a2aa969a03eb3ae2bac471237de9ca2edb6e716d090adb53aeffffffff02c02b04000000000017a914bb10f77661699c29a097d73b16ebca91621a79ff87fe120b000000000017a9143d68d7aa428b11c190d8a8a71487183d57671d9b8700000000", "vin": [{"sequence": 4294967295, "scriptSig": {"hex": "00483045022100fc3d745fec7d6fc24b9bdab0ec76bf9995385d88e3eadfaa32c07504d7d96b99022069b34628aae7bc05bfd8445ca1a889406907b160f3ea870f772abb4562b791270147304402206a621a91984c9f738c96edb8b81c4e531c5a93f55a55ff19cd94ccfa1ce37fbe02200bb5ec337dc0db1c6f45653da47c0d05264d914ea4eaf748aef62a96eb8c0002014c69522102a0c0fe44be6a8b296b68b6efe88ab16bb08b4ec67931cc5a45be0afcc78eff8e21024e16a60788f21a45ab83c4940d73bcd786e2d42cac7301a7ab17905083a012ad2103d11623d7c875bc0d25a2aa969a03eb3ae2bac471237de9ca2edb6e716d090adb53ae", "asm": "0 3045022100fc3d745fec7d6fc24b9bdab0ec76bf9995385d88e3eadfaa32c07504d7d96b99022069b34628aae7bc05bfd8445ca1a889406907b160f3ea870f772abb4562b79127[ALL] 304402206a621a91984c9f738c96edb8b81c4e531c5a93f55a55ff19cd94ccfa1ce37fbe02200bb5ec337dc0db1c6f45653da47c0d05264d914ea4eaf748aef62a96eb8c0002[ALL] 522102a0c0fe44be6a8b296b68b6efe88ab16bb08b4ec67931cc5a45be0afcc78eff8e21024e16a60788f21a45ab83c4940d73bcd786e2d42cac7301a7ab17905083a012ad2103d11623d7c875bc0d25a2aa969a03eb3ae2bac471237de9ca2edb6e716d090adb53ae"}, "vout": 1, "txid": "2b9cf61b8a061a00d57f3476adf3262292081b9f84a8dc32007c9e9a77c161af"}], "txid": "cb4c75291ee672382e2c8f81f1a68d21571475a4756098ef7ff0c665a18cc850", "blocktime": 1537870268, "version": 1, "confirmations": 11518, "time": 1537870268, "locktime": 0, "vsize": 370, "size": 370}