{"hash": "db20425233a8ca1d8d2b16d90eddfdcd46be70ba67f59765cb7f0d8089e40ccc", "blockhash": "0000000000000000000dcc0f55137456b1a82d3642486a52398922ac4d620174", "vout": [{"scriptPubKey": {"reqSigs": 1, "hex": "76a9149259668350e6960434bccb9d1cb87d278206853288ac", "addresses": ["1ELpkfDBpQSdMRLyCsgc9WNsw3tuh5zMoN"], "asm": "OP_DUP OP_HASH160 9259668350e6960434bccb9d1cb87d2782068532 OP_EQUALVERIFY OP_CHECKSIG", "type": "pubkeyhash"}, "value": 0.05274253, "n": 0}, {"scriptPubKey": {"reqSigs": 1, "hex": "a91405c6712d7175aeccf7491bb7ca0a39b530b6e89287", "addresses": ["32DZ2W41JWCo4YKxVqFAbuCbtscadzn5Y7"], "asm": "OP_HASH160 05c6712d7175aeccf7491bb7ca0a39b530b6e892 OP_EQUAL", "type": "scripthash"}, "value": 0.03306643, "n": 1}], "hex": "02000000000101a20e1316923a3be4219246ea545eff5d08839ca3c6493becf8ebccc325c8be5c00000000171600148189a5e664a9c28e9720ce38fcf9ce440a1087f2feffffff028d7a5000000000001976a9149259668350e6960434bccb9d1cb87d278206853288ac937432000000000017a91405c6712d7175aeccf7491bb7ca0a39b530b6e892870248304502210095ea29abd70bbbca94d507ba609c5a58ad455a5caf2caf943f0831522b2d104a02202782e51da9d32c2ddfa6d05e8738650a882773333b61b4335746f15bbc0e9465012102b83d59a3599917fd7368920d7e45273409ad65cac681bdd4e3a4b28dbafbf1590c490800", "vin": [{"txinwitness": ["304502210095ea29abd70bbbca94d507ba609c5a58ad455a5caf2caf943f0831522b2d104a02202782e51da9d32c2ddfa6d05e8738650a882773333b61b4335746f15bbc0e946501", "02b83d59a3599917fd7368920d7e45273409ad65cac681bdd4e3a4b28dbafbf159"], "sequence": 4294967294, "scriptSig": {"hex": "1600148189a5e664a9c28e9720ce38fcf9ce440a1087f2", "asm": "00148189a5e664a9c28e9720ce38fcf9ce440a1087f2"}, "vout": 0, "txid": "5cbec825c3ccebf8ec3b49c6a39c83085dff5e54ea469221e43b3a9216130ea2"}], "txid": "cb4dd081018c392b9d9a414eb695a71d6a0c4ab7f4c7267f2c9437134017349f", "blocktime": 1537870268, "version": 2, "confirmations": 11516, "time": 1537870268, "locktime": 542988, "vsize": 168, "size": 250}