{"hash": "cb4e4a5d123fad029b210ae2140890c69cee537ce0ee65e7f6f49c1285b5cf11", "blockhash": "00000000000000000004ffacab907a6b429b9a5745fa0b75af4234bf69dd7176", "vout": [{"scriptPubKey": {"reqSigs": 1, "hex": "76a914197d414fe1fcdd7bc0af0ffcebc9b8786b756fd888ac", "addresses": ["13Kmwg7n7jAPuSMqTXTFYxZmLTRD59598c"], "asm": "OP_DUP OP_HASH160 197d414fe1fcdd7bc0af0ffcebc9b8786b756fd8 OP_EQUALVERIFY OP_CHECKSIG", "type": "pubkeyhash"}, "value": 0.0046911, "n": 0}, {"scriptPubKey": {"reqSigs": 1, "hex": "76a9144f1b1035335b0b065741944937645a7a7a6f2c1588ac", "addresses": ["18DGoYhL2enyVR1fzKPz7MC6xcDLpBDezU"], "asm": "OP_DUP OP_HASH160 4f1b1035335b0b065741944937645a7a7a6f2c15 OP_EQUALVERIFY OP_CHECKSIG", "type": "pubkeyhash"}, "value": 0.01069834, "n": 1}], "hex": "01000000018e616f461fce3e8e7b4560e22c4bc03de794578077e39e27808619803900df0c000000006a4730440220318047bf3241e16726dc46efe1f9c5a605720c8dd77b3dd5148628f9c25ccafa02202205c5217ccae269d475268ceba5317060976662e36c82b938637ac1db0f10440121027886f2628612b673df935fa105aa4579c7bed6e46f226040e653379935a7373cffffffff0276280700000000001976a914197d414fe1fcdd7bc0af0ffcebc9b8786b756fd888ac0a531000000000001976a9144f1b1035335b0b065741944937645a7a7a6f2c1588ac00000000", "vin": [{"sequence": 4294967295, "scriptSig": {"hex": "4730440220318047bf3241e16726dc46efe1f9c5a605720c8dd77b3dd5148628f9c25ccafa02202205c5217ccae269d475268ceba5317060976662e36c82b938637ac1db0f10440121027886f2628612b673df935fa105aa4579c7bed6e46f226040e653379935a7373c", "asm": "30440220318047bf3241e16726dc46efe1f9c5a605720c8dd77b3dd5148628f9c25ccafa02202205c5217ccae269d475268ceba5317060976662e36c82b938637ac1db0f1044[ALL] 027886f2628612b673df935fa105aa4579c7bed6e46f226040e653379935a7373c"}, "vout": 0, "txid": "0cdf003980198680279ee377805794e73dc04b2ce260457b8e3ece1f466f618e"}], "txid": "cb4e4a5d123fad029b210ae2140890c69cee537ce0ee65e7f6f49c1285b5cf11", "blocktime": 1537875543, "version": 1, "confirmations": 11464, "time": 1537875543, "locktime": 0, "vsize": 225, "size": 225}