{"hash": "cb5375419eff01a84948c5f7837d530410eae7e9ec0768f9790f0010f347015d", "blockhash": "000000000000000000022b45ed06c6f4ccd3cf7fb5ba4856ebd2e58215665228", "vout": [{"scriptPubKey": {"type": "nulldata", "hex": "6a146f6d6e69000000000000001f0000001d149ec100", "asm": "OP_RETURN 6f6d6e69000000000000001f0000001d149ec100"}, "value": 0.0, "n": 0}, {"scriptPubKey": {"reqSigs": 1, "hex": "76a914284b1f894ca72430de8f19952125b6016a9dc7c688ac", "addresses": ["14g42KnXkRFfR8cUtS5tReprjeNvGQKW9v"], "asm": "OP_DUP OP_HASH160 284b1f894ca72430de8f19952125b6016a9dc7c6 OP_EQUALVERIFY OP_CHECKSIG", "type": "pubkeyhash"}, "value": 0.14505364, "n": 1}, {"scriptPubKey": {"reqSigs": 1, "hex": "76a914d1763339f9e597c84b288eca0188ea67aa6b011988ac", "addresses": ["1L6XpnDygG2VySVEVmaqHtYTYwJAHhvRYZ"], "asm": "OP_DUP OP_HASH160 d1763339f9e597c84b288eca0188ea67aa6b0119 OP_EQUALVERIFY OP_CHECKSIG", "type": "pubkeyhash"}, "value": 5.46e-06, "n": 2}], "hex": "0100000001293d759a75112cfb11ec0b29a95f25e4fe873d6753fb9e22113c94bd07fcf234020000006b483045022100ca82025d5992eea2ad34b35ee051ef8c248995c85edba1d71f124bf298764b060220181f6821573b30c6e3dbd7bfa603ab9c32b66a302d3084f1addcce277327389c01210392260b2475e9dec1855e89404d00787579055270f3f1619ec29bd64ed6a6dd7dfeffffff030000000000000000166a146f6d6e69000000000000001f0000001d149ec1009455dd00000000001976a914284b1f894ca72430de8f19952125b6016a9dc7c688ac22020000000000001976a914d1763339f9e597c84b288eca0188ea67aa6b011988ac0b490800", "vin": [{"sequence": 4294967294, "scriptSig": {"hex": "483045022100ca82025d5992eea2ad34b35ee051ef8c248995c85edba1d71f124bf298764b060220181f6821573b30c6e3dbd7bfa603ab9c32b66a302d3084f1addcce277327389c01210392260b2475e9dec1855e89404d00787579055270f3f1619ec29bd64ed6a6dd7d", "asm": "3045022100ca82025d5992eea2ad34b35ee051ef8c248995c85edba1d71f124bf298764b060220181f6821573b30c6e3dbd7bfa603ab9c32b66a302d3084f1addcce277327389c[ALL] 0392260b2475e9dec1855e89404d00787579055270f3f1619ec29bd64ed6a6dd7d"}, "vout": 2, "txid": "34f2fc07bd943c11229efb53673d87fee4255fa9290bec11fb2c11759a753d29"}], "txid": "cb5375419eff01a84948c5f7837d530410eae7e9ec0768f9790f0010f347015d", "blocktime": 1537869901, "version": 1, "confirmations": 11522, "time": 1537869901, "locktime": 542987, "vsize": 257, "size": 257}