{"hash": "52f3178f9bad966a22406937357004218b02759724c12cb37cd038a0c0a73076", "blockhash": "0000000000000000000e13cef7c366c0283d82e591d1acd082e914b08063cdf1", "vout": [{"scriptPubKey": {"reqSigs": 1, "hex": "a914c55c24639d52d85d6db67269a4fd03a657a664b087", "addresses": ["3KgZRUxTG8VxFyc4Amkc6mZkSUgJKYxgyL"], "asm": "OP_HASH160 c55c24639d52d85d6db67269a4fd03a657a664b0 OP_EQUAL", "type": "scripthash"}, "value": 0.0049873, "n": 0}, {"scriptPubKey": {"reqSigs": 1, "hex": "76a9140377efe0d2b830b0b930994eb688cca04e662d4488ac", "addresses": ["1KLhwsTBcxQmgv364gPFB1to1MxvBzeEb"], "asm": "OP_DUP OP_HASH160 0377efe0d2b830b0b930994eb688cca04e662d44 OP_EQUALVERIFY OP_CHECKSIG", "type": "pubkeyhash"}, "value": 0.006251, "n": 1}], "hex": "01000000000101dbdb45bf86f0f4426606230dcddf1358c6717afd1703cc52864d720f434ee5c0010000002322002079610eb328ac54df8ea04955178754df5d6b3aa5e391e98b3b6f6af6366138efffffffff022a9c07000000000017a914c55c24639d52d85d6db67269a4fd03a657a664b087cc890900000000001976a9140377efe0d2b830b0b930994eb688cca04e662d4488ac04004830450221008cca0ed465857cbfcf4be6cb54f52ff75d79a1976c058494ea8d22eaa0041bbc02201213e48e46bb9f0d4cb59fd14c0e261c3e537f94954bdfce436591cd20511a7b01473044022045f60cde9ab97d2059f5e21357c713ad3028703c90270764bf7fd6e3595aac36022038545249907b4bb4fc8c3cf44f646e488bbe7c15808988146895ce72299319b801695221022ddce5ffdd39f3f3cc7e8665ac5b11ff55340929cf5e3f6a554bbef27990934121030547da4752ea1f74771eaca6d979dfe173f08fbfe378adf849affc427c7193112103284956b8b830c12618b3144826662abd6903182ceb287ce6e4217e28b4a28ce653ae00000000", "vin": [{"txinwitness": ["", "30450221008cca0ed465857cbfcf4be6cb54f52ff75d79a1976c058494ea8d22eaa0041bbc02201213e48e46bb9f0d4cb59fd14c0e261c3e537f94954bdfce436591cd20511a7b01", "3044022045f60cde9ab97d2059f5e21357c713ad3028703c90270764bf7fd6e3595aac36022038545249907b4bb4fc8c3cf44f646e488bbe7c15808988146895ce72299319b801", "5221022ddce5ffdd39f3f3cc7e8665ac5b11ff55340929cf5e3f6a554bbef27990934121030547da4752ea1f74771eaca6d979dfe173f08fbfe378adf849affc427c7193112103284956b8b830c12618b3144826662abd6903182ceb287ce6e4217e28b4a28ce653ae"], "sequence": 4294967295, "scriptSig": {"hex": "22002079610eb328ac54df8ea04955178754df5d6b3aa5e391e98b3b6f6af6366138ef", "asm": "002079610eb328ac54df8ea04955178754df5d6b3aa5e391e98b3b6f6af6366138ef"}, "vout": 1, "txid": "c0e54e430f724d8652cc0317fd7a71c65813dfcd0d23066642f4f086bf45dbdb"}], "txid": "cb594abfad70ab1c35a18f3fcdebf6e279ba9be8dd3d2bde7ce822efcc58eb0d", "blocktime": 1537871767, "version": 1, "confirmations": 11493, "time": 1537871767, "locktime": 0, "vsize": 216, "size": 407}