{"hash": "caa58c3473a625b52d75409a233b42fdc3ac7fd725f5022975eb922faa8544d0", "blockhash": "0000000000000000000dcc0f55137456b1a82d3642486a52398922ac4d620174", "vout": [{"scriptPubKey": {"reqSigs": 1, "hex": "76a914658bc2e4001cfacc64a3e041943e921b3086737588ac", "addresses": ["1AFvgAG4FN8fhtp3ZtSF8hsmKvPTDiB4RV"], "asm": "OP_DUP OP_HASH160 658bc2e4001cfacc64a3e041943e921b30867375 OP_EQUALVERIFY OP_CHECKSIG", "type": "pubkeyhash"}, "value": 0.00014138, "n": 0}, {"scriptPubKey": {"reqSigs": 1, "hex": "a9148ddb66c3371910a0ef8f38021cc4094e61e69f3a87", "addresses": ["3Ed62sPENkraPwpovPty9YMFGJ8FtTyv63"], "asm": "OP_HASH160 8ddb66c3371910a0ef8f38021cc4094e61e69f3a OP_EQUAL", "type": "scripthash"}, "value": 0.00014067, "n": 1}], "hex": "01000000000102fee7b1f60900f14314a4c87b74f7b1c49cc8ce2ad532672d0edf81e8d596955f0100000023220020941cfaff8837763dc1f69ff82b6d6553fdea17a41cfc29a04403293eedd8ccc7ffffffff015b00a5c84d5a844ed6981c8f6e92942b36bce5b70f1e4092a0b5937b1de05d0100000023220020fdd23d707f55451c4e006c77b5e8df35a185a8e99f9bda70bf0ded7913bb1eb3ffffffff023a370000000000001976a914658bc2e4001cfacc64a3e041943e921b3086737588acf33600000000000017a9148ddb66c3371910a0ef8f38021cc4094e61e69f3a87040047304402206bc2e1dccf9a1fd8a2c890d97a106db9330948f395d2eb97daf073a3a5b1a43602203e643113c18e1bab8004a47d34b3c6aeea32d1fb147f5b0346a8a276d51118f60147304402204c0c1c1bfbba79901304a3c321cb193f7ef07c11dd656fb6361e339b9c090f7002200cd1fc3866226ff03d8259cdf0d17e3833960b4a6c30466dd0e2832dea42cf9a0147522102531db3a5883f29bab4241dd0cd726936667bcda445d89bdd22244e828b6993342103148c80a5bdfddb05ff5bcffc397c8ca748d8b435ec6a175bc9d7bfc7fc6f853752ae0400483045022100d78dd368f88c4c613b8ac736736270e1ad5b7ebe302caaa8ea85873cb48c39f802207d5488e5625a2ff639c8c719971f7f804545f01f09160fe1c33dbdf0fbc402ce01473044022058e1300b915d04f65bcea6f30bdf5a48ab66cf542fb969ec4771d6af9dbd5be302203ed885b631f4b76624e0e044cbbe16ec5ce995d358ffad5fbc85765f2d05bd9c014752210286c104577b978160849865bc23f9a6df9b53d41c8ffb486754b97b2a474a181c2103148c80a5bdfddb05ff5bcffc397c8ca748d8b435ec6a175bc9d7bfc7fc6f853752ae00000000", "vin": [{"txinwitness": ["", "304402206bc2e1dccf9a1fd8a2c890d97a106db9330948f395d2eb97daf073a3a5b1a43602203e643113c18e1bab8004a47d34b3c6aeea32d1fb147f5b0346a8a276d51118f601", "304402204c0c1c1bfbba79901304a3c321cb193f7ef07c11dd656fb6361e339b9c090f7002200cd1fc3866226ff03d8259cdf0d17e3833960b4a6c30466dd0e2832dea42cf9a01", "522102531db3a5883f29bab4241dd0cd726936667bcda445d89bdd22244e828b6993342103148c80a5bdfddb05ff5bcffc397c8ca748d8b435ec6a175bc9d7bfc7fc6f853752ae"], "sequence": 4294967295, "scriptSig": {"hex": "220020941cfaff8837763dc1f69ff82b6d6553fdea17a41cfc29a04403293eedd8ccc7", "asm": "0020941cfaff8837763dc1f69ff82b6d6553fdea17a41cfc29a04403293eedd8ccc7"}, "vout": 1, "txid": "5f9596d5e881df0e2d6732d52acec89cc4b1f7747bc8a41443f10009f6b1e7fe"}, {"txinwitness": ["", "3045022100d78dd368f88c4c613b8ac736736270e1ad5b7ebe302caaa8ea85873cb48c39f802207d5488e5625a2ff639c8c719971f7f804545f01f09160fe1c33dbdf0fbc402ce01", "3044022058e1300b915d04f65bcea6f30bdf5a48ab66cf542fb969ec4771d6af9dbd5be302203ed885b631f4b76624e0e044cbbe16ec5ce995d358ffad5fbc85765f2d05bd9c01", "52210286c104577b978160849865bc23f9a6df9b53d41c8ffb486754b97b2a474a181c2103148c80a5bdfddb05ff5bcffc397c8ca748d8b435ec6a175bc9d7bfc7fc6f853752ae"], "sequence": 4294967295, "scriptSig": {"hex": "220020fdd23d707f55451c4e006c77b5e8df35a185a8e99f9bda70bf0ded7913bb1eb3", "asm": "0020fdd23d707f55451c4e006c77b5e8df35a185a8e99f9bda70bf0ded7913bb1eb3"}, "vout": 1, "txid": "5de01d7b93b5a092401e0fb7e5bc362b94926e8f1c98d64e845a4dc8a5005b01"}], "txid": "cb5ebaa0a77e139ef7e02d7a12a54815652b8319ac59a62c1e6a732601ca8dd7", "blocktime": 1537870268, "version": 1, "confirmations": 11518, "time": 1537870268, "locktime": 0, "vsize": 338, "size": 667}