{"hash": "cb66816e5a55e8df266a18e5488be5eb0445eb60f89307a7863c6ad032922751", "blockhash": "00000000000000000017f5eb5941039fbcee6240d03bc1f2f8e35350df66a1d8", "vout": [{"scriptPubKey": {"reqSigs": 1, "hex": "a9146208932179f72caca825675520829a14c332c3ea87", "addresses": ["3AdNR8FQhf3pKHf2Lx6ekofksQwhhzLodD"], "asm": "OP_HASH160 6208932179f72caca825675520829a14c332c3ea OP_EQUAL", "type": "scripthash"}, "value": 0.00105, "n": 0}, {"scriptPubKey": {"reqSigs": 1, "hex": "76a9148b15e5c97ca2a5e6f42b51d48a327af4a37d012488ac", "addresses": ["1DgRA8w1e5eHAiFcQcoZAT35TotMpLrUem"], "asm": "OP_DUP OP_HASH160 8b15e5c97ca2a5e6f42b51d48a327af4a37d0124 OP_EQUALVERIFY OP_CHECKSIG", "type": "pubkeyhash"}, "value": 0.00439743, "n": 1}], "hex": "01000000010641c1bdf944986944f2f617037a17c059f53075f3d0a52eb87dea9ddc3bfabf010000006b4830450221009daf38e46c4a9afff1916e005b7759d9fd1d59b92417a4651ed19e404d5164e30220066a437b99c773026b86fdbad3b3a9e409d198f4ec693ef426d73a6e3ef315b501210306026c3b601f2e7d8db67cf834f6e22ddf003e2afca5604bcbbbd4b904b4fdb4ffffffff02289a01000000000017a9146208932179f72caca825675520829a14c332c3ea87bfb50600000000001976a9148b15e5c97ca2a5e6f42b51d48a327af4a37d012488ac00000000", "vin": [{"sequence": 4294967295, "scriptSig": {"hex": "4830450221009daf38e46c4a9afff1916e005b7759d9fd1d59b92417a4651ed19e404d5164e30220066a437b99c773026b86fdbad3b3a9e409d198f4ec693ef426d73a6e3ef315b501210306026c3b601f2e7d8db67cf834f6e22ddf003e2afca5604bcbbbd4b904b4fdb4", "asm": "30450221009daf38e46c4a9afff1916e005b7759d9fd1d59b92417a4651ed19e404d5164e30220066a437b99c773026b86fdbad3b3a9e409d198f4ec693ef426d73a6e3ef315b5[ALL] 0306026c3b601f2e7d8db67cf834f6e22ddf003e2afca5604bcbbbd4b904b4fdb4"}, "vout": 1, "txid": "bffa3bdc9dea7db82ea5d0f37530f559c0177a0317f6f244699844f9bdc14106"}], "txid": "cb66816e5a55e8df266a18e5488be5eb0445eb60f89307a7863c6ad032922751", "blocktime": 1537874412, "version": 1, "confirmations": 11466, "time": 1537874412, "locktime": 0, "vsize": 224, "size": 224}