{"hash": "82b3bc817da528a02710dbfd376e30f9d080f1512bced86502c80ee78398a96b", "blockhash": "0000000000000000001f0ddff1eddb255c1121bcd4da4f1bc9a0da00cae72433", "vout": [{"scriptPubKey": {"reqSigs": 1, "hex": "a91473e3af43e9e5ba9d95c4991d6a8dd7f312690f1887", "addresses": ["3CFnPQiSPTgT1uK2EFBFgwQEBZsJHuzQ6G"], "asm": "OP_HASH160 73e3af43e9e5ba9d95c4991d6a8dd7f312690f18 OP_EQUAL", "type": "scripthash"}, "value": 0.029, "n": 0}, {"scriptPubKey": {"reqSigs": 1, "hex": "a914aab71ddad13ab6b443f3de7e6a6310e4fe4eef7e87", "addresses": ["3HFgAKZEjFUcqKEPnCqCjbPdCoE3Bq1vuw"], "asm": "OP_HASH160 aab71ddad13ab6b443f3de7e6a6310e4fe4eef7e OP_EQUAL", "type": "scripthash"}, "value": 0.05874299, "n": 1}], "hex": "0100000000010368e9257329b4c5f9695c11209978c5cee5f5e5cfaf3e2bc1980f2495ab692832050000002322002061356a0148dbc143074faa06c318ffbc35f8779f49ef134a99997801c377a89fffffffffae762d426a5285fff6b06b946890f97819b8ad4485eaa31cf6f6a514c2107f690c0000002322002061356a0148dbc143074faa06c318ffbc35f8779f49ef134a99997801c377a89fffffffffb38ee5e983217c38fccd2b2c4cd13778269e815bdce9fd951d439d169c86df440000000023220020a7b1b64c9f4412fc8806f203b9cb30a14239d6e848431f6aa72192468ba31cccffffffff0220402c000000000017a91473e3af43e9e5ba9d95c4991d6a8dd7f312690f18877ba259000000000017a914aab71ddad13ab6b443f3de7e6a6310e4fe4eef7e87040048304502210082e7b714ed20c3d7822cbd91d854b478f344bf1c7b0e1977711d9ca1ef07a66e0220761fd76a07dd0513b31b75bb9c285cb99c9b18e81d7e3d428c381c5eb1826b7f0147304402202822d993d53a7294c7b471ec2add597b426e2a3feffaf1e7fe94b6094984aa83022032713ecf19bb1065b92cf97031d630a84323e1338cbe1f30a8d36a553008d806014752210267eab6b2f4cb4665e35b96f9672e2705317ed24da253f4b7bebef53c32f440f821034e899be97857d56df673524bc834f2afa9241c6d850e15208d03016bc6bac47b52ae0400483045022100b3ca9320c87edf959806a1fb55c2a7fa97d83ffcd008367073556af27fe651fc02207d92de606c1376a356364dd990f03d5beeac0b95e2bf93db597150a558d3aaca014830450221008c7c720b3810f2c1c5bb1cfcf7ed4619b2e429cc07a95b724d747df06a8d69e0022010c11520ff71959bf05b08feb211ff76cc2dc9beb5bf53ce5094111dc99f85c3014752210267eab6b2f4cb4665e35b96f9672e2705317ed24da253f4b7bebef53c32f440f821034e899be97857d56df673524bc834f2afa9241c6d850e15208d03016bc6bac47b52ae04004730440220567650e9e9be912229ee5f13b5ec2b72771304284133df97e0bd72b3509889cf022037c874055ab0676d7ed2c319f97a29a6aa9acedc966d4ff1154195ff6c625e0f0148304502210082d88d6f8bd851fa69e4a8b350a915a0f92342f06b718b8f3125ab82b21f64f602201fe2e74eec49de7a9bba2f974101814ef0d94b2f9813721bd9c10e43e430fcec01475221022fd79e08d3882274824d5d0cf552e70ab63ce47c214632a0881ad8fea158f19021034e899be97857d56df673524bc834f2afa9241c6d850e15208d03016bc6bac47b52ae00000000", "vin": [{"txinwitness": ["", "304502210082e7b714ed20c3d7822cbd91d854b478f344bf1c7b0e1977711d9ca1ef07a66e0220761fd76a07dd0513b31b75bb9c285cb99c9b18e81d7e3d428c381c5eb1826b7f01", "304402202822d993d53a7294c7b471ec2add597b426e2a3feffaf1e7fe94b6094984aa83022032713ecf19bb1065b92cf97031d630a84323e1338cbe1f30a8d36a553008d80601", "52210267eab6b2f4cb4665e35b96f9672e2705317ed24da253f4b7bebef53c32f440f821034e899be97857d56df673524bc834f2afa9241c6d850e15208d03016bc6bac47b52ae"], "sequence": 4294967295, "scriptSig": {"hex": "22002061356a0148dbc143074faa06c318ffbc35f8779f49ef134a99997801c377a89f", "asm": "002061356a0148dbc143074faa06c318ffbc35f8779f49ef134a99997801c377a89f"}, "vout": 5, "txid": "322869ab95240f98c12b3eafcfe5f5e5cec5789920115c69f9c5b4297325e968"}, {"txinwitness": ["", "3045022100b3ca9320c87edf959806a1fb55c2a7fa97d83ffcd008367073556af27fe651fc02207d92de606c1376a356364dd990f03d5beeac0b95e2bf93db597150a558d3aaca01", "30450221008c7c720b3810f2c1c5bb1cfcf7ed4619b2e429cc07a95b724d747df06a8d69e0022010c11520ff71959bf05b08feb211ff76cc2dc9beb5bf53ce5094111dc99f85c301", "52210267eab6b2f4cb4665e35b96f9672e2705317ed24da253f4b7bebef53c32f440f821034e899be97857d56df673524bc834f2afa9241c6d850e15208d03016bc6bac47b52ae"], "sequence": 4294967295, "scriptSig": {"hex": "22002061356a0148dbc143074faa06c318ffbc35f8779f49ef134a99997801c377a89f", "asm": "002061356a0148dbc143074faa06c318ffbc35f8779f49ef134a99997801c377a89f"}, "vout": 12, "txid": "697f10c214a5f6f61ca3ea8544adb81978f99068946bb0f6ff85526a422d76ae"}, {"txinwitness": ["", "30440220567650e9e9be912229ee5f13b5ec2b72771304284133df97e0bd72b3509889cf022037c874055ab0676d7ed2c319f97a29a6aa9acedc966d4ff1154195ff6c625e0f01", "304502210082d88d6f8bd851fa69e4a8b350a915a0f92342f06b718b8f3125ab82b21f64f602201fe2e74eec49de7a9bba2f974101814ef0d94b2f9813721bd9c10e43e430fcec01", "5221022fd79e08d3882274824d5d0cf552e70ab63ce47c214632a0881ad8fea158f19021034e899be97857d56df673524bc834f2afa9241c6d850e15208d03016bc6bac47b52ae"], "sequence": 4294967295, "scriptSig": {"hex": "220020a7b1b64c9f4412fc8806f203b9cb30a14239d6e848431f6aa72192468ba31ccc", "asm": "0020a7b1b64c9f4412fc8806f203b9cb30a14239d6e848431f6aa72192468ba31ccc"}, "vout": 0, "txid": "44df869c169d431d95fde9dc5b819e267837d14c2c2bcdfc387c2183e9e58eb3"}], "txid": "cb677dac2102c7a255ea30f71789d7d9ada4f19cdfb8283f5cf8eecab6bb8dfa", "blocktime": 1537872018, "version": 1, "confirmations": 11489, "time": 1537872018, "locktime": 0, "vsize": 467, "size": 962}