{"hash": "fd3977364c72aac5c563712488126af92de7e572723e46da032d604084ab5b26", "blockhash": "0000000000000000000baef3f32e3676a92c3b2e5da21b426e4f302fc371ce76", "vout": [{"scriptPubKey": {"reqSigs": 1, "hex": "76a9146a50d437caad7642ade87f157d6e35645694c2d688ac", "addresses": ["1Ah9TRvhTuMYNRdYP5Ru56J44WPErYYZwi"], "asm": "OP_DUP OP_HASH160 6a50d437caad7642ade87f157d6e35645694c2d6 OP_EQUALVERIFY OP_CHECKSIG", "type": "pubkeyhash"}, "value": 0.01568069, "n": 0}, {"scriptPubKey": {"reqSigs": 1, "hex": "a914e488a9b1352428a2a084ae60be7f2b0d30f4858b87", "addresses": ["3NXPhnNYxjsE4Y7V27AvkoPzZGWVx7azdN"], "asm": "OP_HASH160 e488a9b1352428a2a084ae60be7f2b0d30f4858b OP_EQUAL", "type": "scripthash"}, "value": 0.00060144, "n": 1}], "hex": "010000000001015f78238b340e53b899aba0c210a6c02917eb990578387d62dcef8dfea5ffa0d70000000017160014adfc70a97a7416c5d8278bc5149585291ccbec45ffffffff0245ed1700000000001976a9146a50d437caad7642ade87f157d6e35645694c2d688acf0ea00000000000017a914e488a9b1352428a2a084ae60be7f2b0d30f4858b870248304502210094d170c15b36669a280ca2885f392c8ccd799c16ef5f8b43cd00a9e469d6133e02204308beba04c3e29533d0dad36107ef272e7c043a21fe4bff5cc554532d3d7991012102f2730f0820feedd0706151ef597b2b76b45e39467028b156c3c634ac0a95a54d00000000", "vin": [{"txinwitness": ["304502210094d170c15b36669a280ca2885f392c8ccd799c16ef5f8b43cd00a9e469d6133e02204308beba04c3e29533d0dad36107ef272e7c043a21fe4bff5cc554532d3d799101", "02f2730f0820feedd0706151ef597b2b76b45e39467028b156c3c634ac0a95a54d"], "sequence": 4294967295, "scriptSig": {"hex": "160014adfc70a97a7416c5d8278bc5149585291ccbec45", "asm": "0014adfc70a97a7416c5d8278bc5149585291ccbec45"}, "vout": 0, "txid": "d7a0ffa5fe8defdc627d38780599eb1729c0a610c2a0ab99b8530e348b23785f"}], "txid": "cb6920da9898881fe41ae61a690a697b7449fe27d11378c7c1d47e570de1eb5c", "blocktime": 1537876114, "version": 1, "confirmations": 11460, "time": 1537876114, "locktime": 0, "vsize": 168, "size": 250}