{"hash": "987bd36d80aa419f5ec2ef201c2d336be01c1af7a07310234c47e622b75616a4", "blockhash": "0000000000000000001f0ddff1eddb255c1121bcd4da4f1bc9a0da00cae72433", "vout": [{"scriptPubKey": {"reqSigs": 1, "hex": "76a91497dd7742b19893cf2d4c828d5412681cf349d95388ac", "addresses": ["1EqzLgggTE7beKpczLEWa8qb2GNQ6hPrcU"], "asm": "OP_DUP OP_HASH160 97dd7742b19893cf2d4c828d5412681cf349d953 OP_EQUALVERIFY OP_CHECKSIG", "type": "pubkeyhash"}, "value": 0.0013893, "n": 0}, {"scriptPubKey": {"reqSigs": 1, "hex": "76a91483fc550da452a6e6bc427eb843ed765bb81acee388ac", "addresses": ["1D2soUuZYr63sN6zqmdtRUfLssKY8CL8rU"], "asm": "OP_DUP OP_HASH160 83fc550da452a6e6bc427eb843ed765bb81acee3 OP_EQUALVERIFY OP_CHECKSIG", "type": "pubkeyhash"}, "value": 0.00223849, "n": 1}, {"scriptPubKey": {"reqSigs": 1, "hex": "a91420f305c43f9c460ea1182d17a0e84bafd7cb133787", "addresses": ["34hEgBbM1gFtY86tihzvJ7uubHqBRBkGSc"], "asm": "OP_HASH160 20f305c43f9c460ea1182d17a0e84bafd7cb1337 OP_EQUAL", "type": "scripthash"}, "value": 0.70593444, "n": 2}, {"scriptPubKey": {"reqSigs": 1, "hex": "a9146ce67e81ce9657793e53f68d46ca9160eae77a3487", "addresses": ["3Bcq2H27A6HU7Eivv8tFXCfidnNRvcXpRA"], "asm": "OP_HASH160 6ce67e81ce9657793e53f68d46ca9160eae77a34 OP_EQUAL", "type": "scripthash"}, "value": 0.00172642, "n": 3}], "hex": "010000000001011fca87bb700695eb2de900a6f0e46cc61eb649be3cfb2c948c961f4033e0a11301000000171600146ec97670e02c15901ce2c4a59b875fcc07c95b2dfdffffff04b21e0200000000001976a91497dd7742b19893cf2d4c828d5412681cf349d95388ac696a0300000000001976a91483fc550da452a6e6bc427eb843ed765bb81acee388aca42b35040000000017a91420f305c43f9c460ea1182d17a0e84bafd7cb13378762a202000000000017a9146ce67e81ce9657793e53f68d46ca9160eae77a348702483045022100e35599f8f1d8fc70f55626e4cd49ebb061f82472042fcbfbc1c0550f8e18208e02206c4ac19cde7f643a0cca81770006ccc1c05e251141dac9988ada318140fd9ec501210303d1d7e299e2c771369e059c3bf672ffa43a076146ba1f8ec063b5b9bffd534111490800", "vin": [{"txinwitness": ["3045022100e35599f8f1d8fc70f55626e4cd49ebb061f82472042fcbfbc1c0550f8e18208e02206c4ac19cde7f643a0cca81770006ccc1c05e251141dac9988ada318140fd9ec501", "0303d1d7e299e2c771369e059c3bf672ffa43a076146ba1f8ec063b5b9bffd5341"], "sequence": 4294967293, "scriptSig": {"hex": "1600146ec97670e02c15901ce2c4a59b875fcc07c95b2d", "asm": "00146ec97670e02c15901ce2c4a59b875fcc07c95b2d"}, "vout": 1, "txid": "13a1e033401f968c942cfb3cbe49b61ec66ce4f0a600e92deb950670bb87ca1f"}], "txid": "cb6983acf1f927d026396397e538b686116039f0b196ae4de74c1222d6da5863", "blocktime": 1537872018, "version": 1, "confirmations": 11489, "time": 1537872018, "locktime": 542993, "vsize": 234, "size": 316}