{"hash": "cb765b56151257f5f05cedcd4679f87b37a56138dfd7648890a259f00e0702b5", "blockhash": "0000000000000000001f76057863aec43deb6fa401d9628bb513d65a8098bfab", "vout": [{"scriptPubKey": {"reqSigs": 1, "hex": "a914b2022d32fee86ad7ec425fe3dce1e17e887226f687", "addresses": ["3HvEovHfxViafCcEfonknnUdAqpzBwAjcc"], "asm": "OP_HASH160 b2022d32fee86ad7ec425fe3dce1e17e887226f6 OP_EQUAL", "type": "scripthash"}, "value": 6.24e-06, "n": 0}], "hex": "0100000001b20019f4ce1d335eef0e0e367b4a2c38413061ed5af72d267918dbbc11ba3b95000000006b483045022100fa72c4203983f6228952fd445f243bc6970def823ff6fa883ae2882636f8f83e02205dfffc64b3af677b114e00333065c0e71445f0ae67cca3c79eeae72028581543012102ca5025a46f941e92b3dd0e1c03e5153a619dc41c8e2ede8eef8115e26fb65856fdffffff01700200000000000017a914b2022d32fee86ad7ec425fe3dce1e17e887226f68714490800", "vin": [{"sequence": 4294967293, "scriptSig": {"hex": "483045022100fa72c4203983f6228952fd445f243bc6970def823ff6fa883ae2882636f8f83e02205dfffc64b3af677b114e00333065c0e71445f0ae67cca3c79eeae72028581543012102ca5025a46f941e92b3dd0e1c03e5153a619dc41c8e2ede8eef8115e26fb65856", "asm": "3045022100fa72c4203983f6228952fd445f243bc6970def823ff6fa883ae2882636f8f83e02205dfffc64b3af677b114e00333065c0e71445f0ae67cca3c79eeae72028581543[ALL] 02ca5025a46f941e92b3dd0e1c03e5153a619dc41c8e2ede8eef8115e26fb65856"}, "vout": 0, "txid": "953bba11bcdb1879262df75aed613041382c4a7b360e0eef5e331dcef41900b2"}], "txid": "cb765b56151257f5f05cedcd4679f87b37a56138dfd7648890a259f00e0702b5", "blocktime": 1537873891, "version": 1, "confirmations": 11478, "time": 1537873891, "locktime": 542996, "vsize": 190, "size": 190}