{"hash": "cb79ef8f3a125919981b5fa0ae728330d0363e9e95b405abba944dad52bf5c7c", "blockhash": "000000000000000000022b45ed06c6f4ccd3cf7fb5ba4856ebd2e58215665228", "vout": [{"scriptPubKey": {"reqSigs": 1, "hex": "a914711dcc39e10f1df76353b4639b0201ffcc62c1e287", "addresses": ["3C17yc3tn2aEbNmnGHhXK8qeXJNtc1WgbM"], "asm": "OP_HASH160 711dcc39e10f1df76353b4639b0201ffcc62c1e2 OP_EQUAL", "type": "scripthash"}, "value": 0.00205906, "n": 0}, {"scriptPubKey": {"reqSigs": 1, "hex": "76a9144b92e7e00e7a1e87043a250aaf9f199796d2c33988ac", "addresses": ["17tbfaZShhGy3WE64wx8EL9oMVzDWfXrar"], "asm": "OP_DUP OP_HASH160 4b92e7e00e7a1e87043a250aaf9f199796d2c339 OP_EQUALVERIFY OP_CHECKSIG", "type": "pubkeyhash"}, "value": 0.06839762, "n": 1}], "hex": "0100000001792603cac2cbf758fe9903f73e56c800ba4693b9897e3942dae9168ecb0bdd34010000006a47304402202e9b9800228d83d9d80f7691f03b873967cc52d2b3d85dd9c5484ddf64607cdb0220404b70cb6a22aa7ed9fef18f3d7ab7210d2bab1bf61d0b6ce1eff778dae9f32101210306e1a06ef367b1b98dfb9432d6fbfc864c88ea4ab7d7a4d9d7671af3271d4e0fffffffff02522403000000000017a914711dcc39e10f1df76353b4639b0201ffcc62c1e287d25d6800000000001976a9144b92e7e00e7a1e87043a250aaf9f199796d2c33988ac00000000", "vin": [{"sequence": 4294967295, "scriptSig": {"hex": "47304402202e9b9800228d83d9d80f7691f03b873967cc52d2b3d85dd9c5484ddf64607cdb0220404b70cb6a22aa7ed9fef18f3d7ab7210d2bab1bf61d0b6ce1eff778dae9f32101210306e1a06ef367b1b98dfb9432d6fbfc864c88ea4ab7d7a4d9d7671af3271d4e0f", "asm": "304402202e9b9800228d83d9d80f7691f03b873967cc52d2b3d85dd9c5484ddf64607cdb0220404b70cb6a22aa7ed9fef18f3d7ab7210d2bab1bf61d0b6ce1eff778dae9f321[ALL] 0306e1a06ef367b1b98dfb9432d6fbfc864c88ea4ab7d7a4d9d7671af3271d4e0f"}, "vout": 1, "txid": "34dd0bcb8e16e9da42397e89b99346ba00c8563ef70399fe58f7cbc2ca032679"}], "txid": "cb79ef8f3a125919981b5fa0ae728330d0363e9e95b405abba944dad52bf5c7c", "blocktime": 1537869901, "version": 1, "confirmations": 11522, "time": 1537869901, "locktime": 0, "vsize": 223, "size": 223}