{"hash": "8bf734211a2376fa3373acb47087ba6cf3c3da90a92dfa9f120edfbc03b7966b", "blockhash": "000000000000000000022b45ed06c6f4ccd3cf7fb5ba4856ebd2e58215665228", "vout": [{"scriptPubKey": {"reqSigs": 1, "hex": "a914d94b4b9e2221cef0b135c24710c29b728461a6a187", "addresses": ["3MVxknXehCaf8Eq24JFZMjdatMcLftEfsM"], "asm": "OP_HASH160 d94b4b9e2221cef0b135c24710c29b728461a6a1 OP_EQUAL", "type": "scripthash"}, "value": 0.009229, "n": 0}, {"scriptPubKey": {"reqSigs": 1, "hex": "a914f02f9215d542098e59462b7f3913b1c53dfb5efe87", "addresses": ["3Pb15rDqLjY5XB4Nxib7n2N2TKr5TJ41bz"], "asm": "OP_HASH160 f02f9215d542098e59462b7f3913b1c53dfb5efe OP_EQUAL", "type": "scripthash"}, "value": 0.126924, "n": 1}], "hex": "0100000000010197083ddb0f67e66ef451f9768c2457b120823e52cf128ed6e8a7610b7ef4cbcc0100000023220020670e93aab12599b55b65fdd38e1ac28e9219356c9782fef1a9e95a172db303c2ffffffff0214150e000000000017a914d94b4b9e2221cef0b135c24710c29b728461a6a187b0abc1000000000017a914f02f9215d542098e59462b7f3913b1c53dfb5efe870400483045022100eadc53fcf0b88cafe8b7a086b54526d85df36b3035ac553a86ee4f2f90c5972502202a3c6cb93e9d68a77b1bbe7da3d7a69c7f08f7984c896df540583ae7d1c93d5e01483045022100ed3f93c0f36bc065ad6ae97ba0b7c507cbf4053f6a94cebcd4ac18f894322287022031b9cb969364315c1506d577993758b79fe5a84d45687b805ec479d4adfea371016952210319532c0e2b13747b97015c0cd5cc6fde1a7cc25612ae1bc5bf2f8e9ca3d1c8c421033fe64df245b665460e99de3b51ddabcd9d3ee1455525112c5be15fce29f05a76210288b6eb2c45e7a0aced9d20d9ec6fe512db982cf60ccdc4771e8a14881237540d53ae00000000", "vin": [{"txinwitness": ["", "3045022100eadc53fcf0b88cafe8b7a086b54526d85df36b3035ac553a86ee4f2f90c5972502202a3c6cb93e9d68a77b1bbe7da3d7a69c7f08f7984c896df540583ae7d1c93d5e01", "3045022100ed3f93c0f36bc065ad6ae97ba0b7c507cbf4053f6a94cebcd4ac18f894322287022031b9cb969364315c1506d577993758b79fe5a84d45687b805ec479d4adfea37101", "52210319532c0e2b13747b97015c0cd5cc6fde1a7cc25612ae1bc5bf2f8e9ca3d1c8c421033fe64df245b665460e99de3b51ddabcd9d3ee1455525112c5be15fce29f05a76210288b6eb2c45e7a0aced9d20d9ec6fe512db982cf60ccdc4771e8a14881237540d53ae"], "sequence": 4294967295, "scriptSig": {"hex": "220020670e93aab12599b55b65fdd38e1ac28e9219356c9782fef1a9e95a172db303c2", "asm": "0020670e93aab12599b55b65fdd38e1ac28e9219356c9782fef1a9e95a172db303c2"}, "vout": 1, "txid": "cccbf47e0b61a7e8d68e12cf523e8220b157248c76f951f46ee6670fdb3d0897"}], "txid": "cb7b9a0899697e6c59d390dd028fac0c7ec9ddc18da9b2a5f87f990039e3fc63", "blocktime": 1537869901, "version": 1, "confirmations": 11524, "time": 1537869901, "locktime": 0, "vsize": 214, "size": 406}