{"hash": "cb7e2089d3a6097a32ad6c794e587204be2a56a5e8df0cc77bf3ee12bd293575", "blockhash": "00000000000000000024a2167bbff67b0be802c0b01cdd79e6331c2be6459f87", "vout": [{"scriptPubKey": {"type": "nulldata", "hex": "6a4c500000777b0001964f2c680e7d576e9683a0f5bcbefa6b8351586b4e86aeaeacb577c031fcdc9390c47f37d723e84212e59a02b5255baa09ec0614bb3b86f21dff1d100759d4ba30d2c37bb011d97e02cf", "asm": "OP_RETURN 0000777b0001964f2c680e7d576e9683a0f5bcbefa6b8351586b4e86aeaeacb577c031fcdc9390c47f37d723e84212e59a02b5255baa09ec0614bb3b86f21dff1d100759d4ba30d2c37bb011d97e02cf"}, "value": 0.0, "n": 0}, {"scriptPubKey": {"reqSigs": 1, "hex": "76a914016d2aad9b21a8233ff4ad68cb388ccc4164917c88ac", "addresses": ["18YTEDjAofd8RGpLgZ6dadmpJzyDHnBhK"], "asm": "OP_DUP OP_HASH160 016d2aad9b21a8233ff4ad68cb388ccc4164917c OP_EQUALVERIFY OP_CHECKSIG", "type": "pubkeyhash"}, "value": 0.0060445, "n": 1}], "hex": "010000000147395285923cd0d38bbb584fd02aa88330b055c7d9e653e9d42a449ff3fdcc4c000000006a473044022049ad4172a76b6d774d3e815c801b8df000c3d6402ca1403953104da501436ef102200fe2bed31a46ea432a6a3326c71e6ba874385507dc4504ea552899360778c171012102a92c3251694e15d42fad00fdfc2c1103f6cc5964ef8047881af72fccd732aca6ffffffff020000000000000000536a4c500000777b0001964f2c680e7d576e9683a0f5bcbefa6b8351586b4e86aeaeacb577c031fcdc9390c47f37d723e84212e59a02b5255baa09ec0614bb3b86f21dff1d100759d4ba30d2c37bb011d97e02cf22390900000000001976a914016d2aad9b21a8233ff4ad68cb388ccc4164917c88ac00000000", "vin": [{"sequence": 4294967295, "scriptSig": {"hex": "473044022049ad4172a76b6d774d3e815c801b8df000c3d6402ca1403953104da501436ef102200fe2bed31a46ea432a6a3326c71e6ba874385507dc4504ea552899360778c171012102a92c3251694e15d42fad00fdfc2c1103f6cc5964ef8047881af72fccd732aca6", "asm": "3044022049ad4172a76b6d774d3e815c801b8df000c3d6402ca1403953104da501436ef102200fe2bed31a46ea432a6a3326c71e6ba874385507dc4504ea552899360778c171[ALL] 02a92c3251694e15d42fad00fdfc2c1103f6cc5964ef8047881af72fccd732aca6"}, "vout": 0, "txid": "4cccfdf39f442ad4e953e6d9c755b03083a82ad04f58bb8bd3d03c9285523947"}], "txid": "cb7e2089d3a6097a32ad6c794e587204be2a56a5e8df0cc77bf3ee12bd293575", "blocktime": 1537870564, "version": 1, "confirmations": 11515, "time": 1537870564, "locktime": 0, "vsize": 283, "size": 283}