{"hash": "cb7f9636bdbc71708ae07f9b0afc4efdd99b7e132851abfb718dccb5ce0c9711", "blockhash": "00000000000000000024a2167bbff67b0be802c0b01cdd79e6331c2be6459f87", "vout": [{"scriptPubKey": {"reqSigs": 1, "hex": "a9146622bdeb9d39775f774a7c420b6c2b0bbdfd11a087", "addresses": ["3B14U21yykqJobRxbWy6pikUb7mDfTnRPn"], "asm": "OP_HASH160 6622bdeb9d39775f774a7c420b6c2b0bbdfd11a0 OP_EQUAL", "type": "scripthash"}, "value": 0.00026, "n": 0}, {"scriptPubKey": {"reqSigs": 1, "hex": "76a9144841703c01e6e4f52e57e9c359485a03f5ed66d788ac", "addresses": ["17b43Z41XktNMtYaQAeZcj4aAsT5d7tiVT"], "asm": "OP_DUP OP_HASH160 4841703c01e6e4f52e57e9c359485a03f5ed66d7 OP_EQUALVERIFY OP_CHECKSIG", "type": "pubkeyhash"}, "value": 0.13008346, "n": 1}], "hex": "0100000001f9a182967dfa1cbd22c722c2d6746ff99e89ba7ecfa20313a64e28778fa1c4a9010000006b4830450221008a8f80948c069abe6466a2ac7fac1e80352815ad158c9209ad32d40eff424d5c02205d2ad72dbca9712041e799eef4a3d86b7c9b5a0c08323830f73b30945b9f93e80121039664361c175a5b0e78ff8fc03a25c02c17ab04e5add7f83534967d3bc12c7eafffffffff02906500000000000017a9146622bdeb9d39775f774a7c420b6c2b0bbdfd11a087da7dc600000000001976a9144841703c01e6e4f52e57e9c359485a03f5ed66d788ac00000000", "vin": [{"sequence": 4294967295, "scriptSig": {"hex": "4830450221008a8f80948c069abe6466a2ac7fac1e80352815ad158c9209ad32d40eff424d5c02205d2ad72dbca9712041e799eef4a3d86b7c9b5a0c08323830f73b30945b9f93e80121039664361c175a5b0e78ff8fc03a25c02c17ab04e5add7f83534967d3bc12c7eaf", "asm": "30450221008a8f80948c069abe6466a2ac7fac1e80352815ad158c9209ad32d40eff424d5c02205d2ad72dbca9712041e799eef4a3d86b7c9b5a0c08323830f73b30945b9f93e8[ALL] 039664361c175a5b0e78ff8fc03a25c02c17ab04e5add7f83534967d3bc12c7eaf"}, "vout": 1, "txid": "a9c4a18f77284ea61303a2cf7eba899ef96f74d6c222c722bd1cfa7d9682a1f9"}], "txid": "cb7f9636bdbc71708ae07f9b0afc4efdd99b7e132851abfb718dccb5ce0c9711", "blocktime": 1537870564, "version": 1, "confirmations": 11515, "time": 1537870564, "locktime": 0, "vsize": 224, "size": 224}