{"hash": "70d2520f2f4f919db87dc0b74d912b06c718142504296a3f06db77c8b5b9f2e1", "blockhash": "0000000000000000000e13cef7c366c0283d82e591d1acd082e914b08063cdf1", "vout": [{"scriptPubKey": {"reqSigs": 1, "hex": "a9140c7b52585a0608ed5299f083113a517598845ef887", "addresses": ["32q1mPH7WkYkoFWPiDcHMjJGAnn1tcq9UG"], "asm": "OP_HASH160 0c7b52585a0608ed5299f083113a517598845ef8 OP_EQUAL", "type": "scripthash"}, "value": 0.017, "n": 0}, {"scriptPubKey": {"reqSigs": 1, "hex": "a914345ea0a4dbaac05605d137b2cb27541e450d34b087", "addresses": ["36TvRMV3KXcHYEBu113pXr2oTQCsWVdaWC"], "asm": "OP_HASH160 345ea0a4dbaac05605d137b2cb27541e450d34b0 OP_EQUAL", "type": "scripthash"}, "value": 0.00066337, "n": 1}], "hex": "0100000000010217b9c8c356b730867ca63911223a93259e9f88ffa55e79f9c51989661260966b00000000232200207f3c476e9b067630598eacafde646a2f7e8a31cb583dc90de3c2c4d6362915ccfdffffffb9dc20c7e24872e60ca5428575becb5d21f603e7770a09a956d12dd89b5afde10000000023220020886d005750a008cc858504cc78abf734baacaeccd28bcbd1b6d36523f4b6a653fdffffff02a0f019000000000017a9140c7b52585a0608ed5299f083113a517598845ef887210301000000000017a914345ea0a4dbaac05605d137b2cb27541e450d34b0870400483045022100abb6af6d6c520b2a3ba0a51d4095b9ce381cc714b7ce562f66b1edae89c5c319022002a5088c5d9033f726fa4723bc65c4b565f1051df1dfed4c379f5111f88ffcf10148304502210096ee8e570798ce80d3da54cfa00e7c45857a1cffd9af2f4bb710deba74691301022045213c82b123518672dfda94fa0dd2c88caee46ad4ff15bcc9386c512e44f1bd01475221026694128c35b9392b017961bc5054ff406ccb79d68e49d02de2211f92f41136b2210275160374dc1ca37ec1ed45e2e9b6f66b1a009856aecadc112f042423697bcc9252ae0400483045022100c66e7182e9feab1f2ebbb9975a77006ed005258f033dc9217ae9ab544c533eb502201996f1cc2ba4fd4317a310c9133d2d10e626d2f77474e06f2562bc2c9ae49e8701473044022044657ea23ee9e1decd8f23f4e3a9ae19a5963f7e169b9c9239576f799cacd2d902204991203ccb66bfcac3cc7387f74c9f016a471966cdf02aabf4a9d353a71aba0a0147522103e72a8c10260a27d1ec8487157965e2f1e8d6da01c2ce4bf63dd32df43d660b232102e16f31095b9f89e090580ef4eef611cbf127fe67fc0b9c1da6dc705940fb41be52ae00000000", "vin": [{"txinwitness": ["", "3045022100abb6af6d6c520b2a3ba0a51d4095b9ce381cc714b7ce562f66b1edae89c5c319022002a5088c5d9033f726fa4723bc65c4b565f1051df1dfed4c379f5111f88ffcf101", "304502210096ee8e570798ce80d3da54cfa00e7c45857a1cffd9af2f4bb710deba74691301022045213c82b123518672dfda94fa0dd2c88caee46ad4ff15bcc9386c512e44f1bd01", "5221026694128c35b9392b017961bc5054ff406ccb79d68e49d02de2211f92f41136b2210275160374dc1ca37ec1ed45e2e9b6f66b1a009856aecadc112f042423697bcc9252ae"], "sequence": 4294967293, "scriptSig": {"hex": "2200207f3c476e9b067630598eacafde646a2f7e8a31cb583dc90de3c2c4d6362915cc", "asm": "00207f3c476e9b067630598eacafde646a2f7e8a31cb583dc90de3c2c4d6362915cc"}, "vout": 0, "txid": "6b966012668919c5f9795ea5ff889f9e25933a221139a67c8630b756c3c8b917"}, {"txinwitness": ["", "3045022100c66e7182e9feab1f2ebbb9975a77006ed005258f033dc9217ae9ab544c533eb502201996f1cc2ba4fd4317a310c9133d2d10e626d2f77474e06f2562bc2c9ae49e8701", "3044022044657ea23ee9e1decd8f23f4e3a9ae19a5963f7e169b9c9239576f799cacd2d902204991203ccb66bfcac3cc7387f74c9f016a471966cdf02aabf4a9d353a71aba0a01", "522103e72a8c10260a27d1ec8487157965e2f1e8d6da01c2ce4bf63dd32df43d660b232102e16f31095b9f89e090580ef4eef611cbf127fe67fc0b9c1da6dc705940fb41be52ae"], "sequence": 4294967293, "scriptSig": {"hex": "220020886d005750a008cc858504cc78abf734baacaeccd28bcbd1b6d36523f4b6a653", "asm": "0020886d005750a008cc858504cc78abf734baacaeccd28bcbd1b6d36523f4b6a653"}, "vout": 0, "txid": "e1fd5a9bd82dd156a9090a77e703f6215dcbbe758542a50ce67248e2c720dcb9"}], "txid": "cb80795542eaa244122deb39c464a9a8531eccd963ac3546139bfdf56ceb0d19", "blocktime": 1537871767, "version": 1, "confirmations": 11495, "time": 1537871767, "locktime": 0, "vsize": 337, "size": 667}