{"hash": "cb8944558171ba5ae7f2933fa532f1e7480c86dfe2aa0fcc849b76190976d883", "blockhash": "0000000000000000001f0ddff1eddb255c1121bcd4da4f1bc9a0da00cae72433", "vout": [{"scriptPubKey": {"reqSigs": 1, "hex": "76a914edace9861c1b0c60d9609ab922d8878e881a3ad388ac", "addresses": ["1NfiHcdQAB6CdeV95Arb6PCST26kJxkD76"], "asm": "OP_DUP OP_HASH160 edace9861c1b0c60d9609ab922d8878e881a3ad3 OP_EQUALVERIFY OP_CHECKSIG", "type": "pubkeyhash"}, "value": 5.929e-05, "n": 0}], "hex": "010000000151d683f8dc6a98529293616aa913e91e9d33c1baa1b9b450ac76e2e68bea717f000000006b483045022100c8451d9dcc8ae3d1674f60c3a259c5477667a370d5a9660419ce33138f106d600220292a55e0656a80c054d938f269920c80463bf6f0ed7d8d753da1f92eed6bc5b3012102d19b83699a0f4a1eb7d2c133f3003f70c18ecc478bb46204aa92231134096b4dffffffff0129170000000000001976a914edace9861c1b0c60d9609ab922d8878e881a3ad388ac00000000", "vin": [{"sequence": 4294967295, "scriptSig": {"hex": "483045022100c8451d9dcc8ae3d1674f60c3a259c5477667a370d5a9660419ce33138f106d600220292a55e0656a80c054d938f269920c80463bf6f0ed7d8d753da1f92eed6bc5b3012102d19b83699a0f4a1eb7d2c133f3003f70c18ecc478bb46204aa92231134096b4d", "asm": "3045022100c8451d9dcc8ae3d1674f60c3a259c5477667a370d5a9660419ce33138f106d600220292a55e0656a80c054d938f269920c80463bf6f0ed7d8d753da1f92eed6bc5b3[ALL] 02d19b83699a0f4a1eb7d2c133f3003f70c18ecc478bb46204aa92231134096b4d"}, "vout": 0, "txid": "7f71ea8be6e276ac50b4b9a1bac1339d1ee913a96a61939252986adcf883d651"}], "txid": "cb8944558171ba5ae7f2933fa532f1e7480c86dfe2aa0fcc849b76190976d883", "blocktime": 1537872018, "version": 1, "confirmations": 11489, "time": 1537872018, "locktime": 0, "vsize": 192, "size": 192}