{"hash": "33fdeba1a7fcf54b155c2b2ee9debaf1fd80b077d93cea878d7f3dd00a6b160c", "blockhash": "0000000000000000000dcc0f55137456b1a82d3642486a52398922ac4d620174", "vout": [{"scriptPubKey": {"reqSigs": 1, "hex": "76a914946c3ca9e0f5ce5ad654128013b8bfa6bd76b76988ac", "addresses": ["1EXnfpympQydQtXGrBT953XSEdYwiwt9vN"], "asm": "OP_DUP OP_HASH160 946c3ca9e0f5ce5ad654128013b8bfa6bd76b769 OP_EQUALVERIFY OP_CHECKSIG", "type": "pubkeyhash"}, "value": 0.093509, "n": 0}, {"scriptPubKey": {"reqSigs": 1, "hex": "76a914bb1dd64d3015e3422baa80e2514196fa013347cd88ac", "addresses": ["1J4P6zW5fog2bBo9cHiEvPuMywbJpNF73P"], "asm": "OP_DUP OP_HASH160 bb1dd64d3015e3422baa80e2514196fa013347cd OP_EQUALVERIFY OP_CHECKSIG", "type": "pubkeyhash"}, "value": 0.093509, "n": 1}, {"scriptPubKey": {"reqSigs": 1, "hex": "a914fe81905ff2f0471899ef6035c9b1689e7cc3218b87", "addresses": ["3QtimXjcG2ioW5f8wwybm222S4Mbet4T39"], "asm": "OP_HASH160 fe81905ff2f0471899ef6035c9b1689e7cc3218b OP_EQUAL", "type": "scripthash"}, "value": 0.24977819, "n": 2}], "hex": "010000000001011def6f2adfe735b5738d75302bdd8b96d9e7a2ba222944822b5d91f85c4b9b680800000017160014cb2fc1cf1d510ff74a6898fcdba0f57221bee344ffffffff03f4ae8e00000000001976a914946c3ca9e0f5ce5ad654128013b8bfa6bd76b76988acf4ae8e00000000001976a914bb1dd64d3015e3422baa80e2514196fa013347cd88ac9b217d010000000017a914fe81905ff2f0471899ef6035c9b1689e7cc3218b8702483045022100e86e7e7b905a5b9dd2b0abf18e5706e3fa8f4ac83d5c17c31d40bfd03783c1470220213d37edb5d0632861bd0265a3bf769392f196a4c456f6f36e65fa6d72b5eae90121036be93c1f7ea45f0db1ec9d482557a9d07db677f23bf8dc0759f5c3fa361c769200000000", "vin": [{"txinwitness": ["3045022100e86e7e7b905a5b9dd2b0abf18e5706e3fa8f4ac83d5c17c31d40bfd03783c1470220213d37edb5d0632861bd0265a3bf769392f196a4c456f6f36e65fa6d72b5eae901", "036be93c1f7ea45f0db1ec9d482557a9d07db677f23bf8dc0759f5c3fa361c7692"], "sequence": 4294967295, "scriptSig": {"hex": "160014cb2fc1cf1d510ff74a6898fcdba0f57221bee344", "asm": "0014cb2fc1cf1d510ff74a6898fcdba0f57221bee344"}, "vout": 8, "txid": "689b4b5cf8915d2b82442922baa2e7d9968bdd2b30758d73b535e7df2a6fef1d"}], "txid": "cb971ce62c5475c9b4335e3d1fd27d470628f080ab990471168155d15c71e05c", "blocktime": 1537870268, "version": 1, "confirmations": 11516, "time": 1537870268, "locktime": 0, "vsize": 202, "size": 284}