{"hash": "ac4d925b8bd63937a557750b80462e9d7f69868eb3722db2697c86034f39a6c8", "blockhash": "0000000000000000000dcc0f55137456b1a82d3642486a52398922ac4d620174", "vout": [{"scriptPubKey": {"reqSigs": 1, "hex": "76a914ef12acbf5ef535f47ada46890629646dffe45d5088ac", "addresses": ["1No6sPuiTEsDQYapg7Drezb8CWAfBzCDyC"], "asm": "OP_DUP OP_HASH160 ef12acbf5ef535f47ada46890629646dffe45d50 OP_EQUALVERIFY OP_CHECKSIG", "type": "pubkeyhash"}, "value": 0.00056467, "n": 0}, {"scriptPubKey": {"reqSigs": 1, "hex": "a9141988a27e3c2df4ddee7fad5a2303d086179b2a3087", "addresses": ["3422VtS7UtCvXYxoXMVp6eZupR252z85oC"], "asm": "OP_HASH160 1988a27e3c2df4ddee7fad5a2303d086179b2a30 OP_EQUAL", "type": "scripthash"}, "value": 0.77865449, "n": 1}], "hex": "0100000000010150031cfd5af95eba8eed9afc454d8c97fe7b7d1ef9b7994391d7686ca5742b44020000002322002065d416c48a8072e0ac51c2d111eb194f009caef0332446c1bf2097316cf07fa9ffffffff0293dc0000000000001976a914ef12acbf5ef535f47ada46890629646dffe45d5088ace921a4040000000017a9141988a27e3c2df4ddee7fad5a2303d086179b2a30870400483045022100d8bb68d1235eb5088152e7edb67ecd1db265fe7cf731f97a990d5ca5dbf6656e02204e576d5f65ccad7d56dbae7f82fdf88b52dee229890d50ae564a6dadd9d4013001483045022100e056fbb3069b65f551c570b825df658c5e8378c8c2d25f6e356cb3011b2897f60220309afdb7f6c0f47d29f190b94fd1ebeac550aa579f8bc19a9567a57b7e06fe0a0169522102f44abcf9e23c9a460da309ccca56c619c04eed3bde2c2cff5e7d78fbcd980b9c2103c9443cf3047bb6c2c82f1b0c44c36109cdc3d0d601d16d1189a1602bf8d1a0a02103bfe867059274412412e088af5572b92168c2ef495cfe6c9b7a753a009eb37c4853ae00000000", "vin": [{"txinwitness": ["", "3045022100d8bb68d1235eb5088152e7edb67ecd1db265fe7cf731f97a990d5ca5dbf6656e02204e576d5f65ccad7d56dbae7f82fdf88b52dee229890d50ae564a6dadd9d4013001", "3045022100e056fbb3069b65f551c570b825df658c5e8378c8c2d25f6e356cb3011b2897f60220309afdb7f6c0f47d29f190b94fd1ebeac550aa579f8bc19a9567a57b7e06fe0a01", "522102f44abcf9e23c9a460da309ccca56c619c04eed3bde2c2cff5e7d78fbcd980b9c2103c9443cf3047bb6c2c82f1b0c44c36109cdc3d0d601d16d1189a1602bf8d1a0a02103bfe867059274412412e088af5572b92168c2ef495cfe6c9b7a753a009eb37c4853ae"], "sequence": 4294967295, "scriptSig": {"hex": "22002065d416c48a8072e0ac51c2d111eb194f009caef0332446c1bf2097316cf07fa9", "asm": "002065d416c48a8072e0ac51c2d111eb194f009caef0332446c1bf2097316cf07fa9"}, "vout": 2, "txid": "442b74a56c68d7914399b7f91e7d7bfe978c4d45fc9aed8eba5ef95afd1c0350"}], "txid": "cb98663198ba3627176f5d5b5c4f9905c40ad5edd3412aab3c78c07668604c8f", "blocktime": 1537870268, "version": 1, "confirmations": 11516, "time": 1537870268, "locktime": 0, "vsize": 216, "size": 408}