{"hash": "cb9a39af518ac8abc585150f3ac08f6dfd016ebb63e1b180e975ad1ba81c802a", "blockhash": "00000000000000000017f5eb5941039fbcee6240d03bc1f2f8e35350df66a1d8", "vout": [{"scriptPubKey": {"reqSigs": 1, "hex": "76a91463918478360a87f1a5ded3d2127b0896f3d21dd388ac", "addresses": ["1A5UDirF9Lh2fd9HkgM6aRpiqSs2pdw9f9"], "asm": "OP_DUP OP_HASH160 63918478360a87f1a5ded3d2127b0896f3d21dd3 OP_EQUALVERIFY OP_CHECKSIG", "type": "pubkeyhash"}, "value": 2.74, "n": 0}, {"scriptPubKey": {"reqSigs": 1, "hex": "a9140283048caa8820277ba34ec236cd612ce784853b87", "addresses": ["31vJECeyuEiy8W5TPGk2wRjEsagLGepHNS"], "asm": "OP_HASH160 0283048caa8820277ba34ec236cd612ce784853b OP_EQUAL", "type": "scripthash"}, "value": 0.7361431, "n": 1}], "hex": "02000000021e4ff124f4468c487e75a6ba38f36532d58bcc2272b777224f3b1aca9cb5687601000000fc00473044022015e469f2cf782a70bf33b2db13174dddf767805ee6e1e3d0a09a98f5c48e4bae02200efd9d6c258afeaa71fd8bb2beeb49f08c06ca41d7fe02eae9f33dde3a4fb7cc014730440220167f87baa5a94deb087a9d9284911a4980fc52cfcaba55752eeccf15d31f51a702207fa3083ddd93e57ec5e3db87bc32606206aada2e8d555940e036ee5c16f076d2014c695221024b216650ebe6be0b206f4437eb5c2a794182300377dcb337e9a9f1bbb5139d132102ec72e6f236850ae9e7c3db378211f8d524d7e09d9f05729f269ca633b80da4f62103c8a08be5d47200c0facf73d646189cd618f6e944a2fded2d3e640074e43e4d7653ae00000000a80c631bc39035b2155c5237c1cc70682ce6dc072dc69ee2f620347a55d8dd8900000000fdfd0000483045022100efc8ce703f3836c8d4a2fe8093b7afd3dc9a7c841e5efb126dab980ab08e547a02207b80469da1de63fa6063fead4b1de22342b9f0e415ab2fc73261835658f411d901473044022039a11373963481d2ce89f9f561805965425af6985bf78c5ee58c222f14b094130220656a237c53374e1dcfe2602932be6f0f4ea15ea1f3d05a34f389bc85b9735826014c695221035e27b29d1584dc0e3088b8d7690ebfc711f49d968a4a245a04d642d54ff1c41121031e3f3d2ea2fcbd606fb90306c553011ff6997b6846961fffd3afaefacb7ea68421032ac9fd2cfee754a5dc30a943e169752f31ef4743ff4e7ab41a00483a8b4d2ff053ae000000000280e85410000000001976a91463918478360a87f1a5ded3d2127b0896f3d21dd388ace64363040000000017a9140283048caa8820277ba34ec236cd612ce784853b8700000000", "vin": [{"sequence": 0, "scriptSig": {"hex": "00473044022015e469f2cf782a70bf33b2db13174dddf767805ee6e1e3d0a09a98f5c48e4bae02200efd9d6c258afeaa71fd8bb2beeb49f08c06ca41d7fe02eae9f33dde3a4fb7cc014730440220167f87baa5a94deb087a9d9284911a4980fc52cfcaba55752eeccf15d31f51a702207fa3083ddd93e57ec5e3db87bc32606206aada2e8d555940e036ee5c16f076d2014c695221024b216650ebe6be0b206f4437eb5c2a794182300377dcb337e9a9f1bbb5139d132102ec72e6f236850ae9e7c3db378211f8d524d7e09d9f05729f269ca633b80da4f62103c8a08be5d47200c0facf73d646189cd618f6e944a2fded2d3e640074e43e4d7653ae", "asm": "0 3044022015e469f2cf782a70bf33b2db13174dddf767805ee6e1e3d0a09a98f5c48e4bae02200efd9d6c258afeaa71fd8bb2beeb49f08c06ca41d7fe02eae9f33dde3a4fb7cc[ALL] 30440220167f87baa5a94deb087a9d9284911a4980fc52cfcaba55752eeccf15d31f51a702207fa3083ddd93e57ec5e3db87bc32606206aada2e8d555940e036ee5c16f076d2[ALL] 5221024b216650ebe6be0b206f4437eb5c2a794182300377dcb337e9a9f1bbb5139d132102ec72e6f236850ae9e7c3db378211f8d524d7e09d9f05729f269ca633b80da4f62103c8a08be5d47200c0facf73d646189cd618f6e944a2fded2d3e640074e43e4d7653ae"}, "vout": 1, "txid": "7668b59cca1a3b4f2277b77222cc8bd53265f338baa6757e488c46f424f14f1e"}, {"sequence": 0, "scriptSig": {"hex": "00483045022100efc8ce703f3836c8d4a2fe8093b7afd3dc9a7c841e5efb126dab980ab08e547a02207b80469da1de63fa6063fead4b1de22342b9f0e415ab2fc73261835658f411d901473044022039a11373963481d2ce89f9f561805965425af6985bf78c5ee58c222f14b094130220656a237c53374e1dcfe2602932be6f0f4ea15ea1f3d05a34f389bc85b9735826014c695221035e27b29d1584dc0e3088b8d7690ebfc711f49d968a4a245a04d642d54ff1c41121031e3f3d2ea2fcbd606fb90306c553011ff6997b6846961fffd3afaefacb7ea68421032ac9fd2cfee754a5dc30a943e169752f31ef4743ff4e7ab41a00483a8b4d2ff053ae", "asm": "0 3045022100efc8ce703f3836c8d4a2fe8093b7afd3dc9a7c841e5efb126dab980ab08e547a02207b80469da1de63fa6063fead4b1de22342b9f0e415ab2fc73261835658f411d9[ALL] 3044022039a11373963481d2ce89f9f561805965425af6985bf78c5ee58c222f14b094130220656a237c53374e1dcfe2602932be6f0f4ea15ea1f3d05a34f389bc85b9735826[ALL] 5221035e27b29d1584dc0e3088b8d7690ebfc711f49d968a4a245a04d642d54ff1c41121031e3f3d2ea2fcbd606fb90306c553011ff6997b6846961fffd3afaefacb7ea68421032ac9fd2cfee754a5dc30a943e169752f31ef4743ff4e7ab41a00483a8b4d2ff053ae"}, "vout": 0, "txid": "89ddd8557a3420f6e29ec62d07dce62c6870ccc137525c15b23590c31b630ca8"}], "txid": "cb9a39af518ac8abc585150f3ac08f6dfd016ebb63e1b180e975ad1ba81c802a", "blocktime": 1537874412, "version": 2, "confirmations": 11467, "time": 1537874412, "locktime": 0, "vsize": 665, "size": 665}