{"hash": "cb9d1434ca03ee3fcf25dbe3625e80dd0c74ad4eb75c0ae6e04a0bf1312f72a5", "blockhash": "0000000000000000000baef3f32e3676a92c3b2e5da21b426e4f302fc371ce76", "vout": [{"scriptPubKey": {"reqSigs": 1, "hex": "76a91415e9cb09783de13ccf4e235560a38833b55a930888ac", "addresses": ["12zsGG1MsFqL4AhScbcUBjAesMpBES3XdN"], "asm": "OP_DUP OP_HASH160 15e9cb09783de13ccf4e235560a38833b55a9308 OP_EQUALVERIFY OP_CHECKSIG", "type": "pubkeyhash"}, "value": 0.0053832, "n": 0}, {"scriptPubKey": {"reqSigs": 1, "hex": "76a914fd1406ce5386a67ca4ff0620af5d781bafa35d2988ac", "addresses": ["1Q59x1GiMYf2aTKsWHrTRJpy8b7auyN1Py"], "asm": "OP_DUP OP_HASH160 fd1406ce5386a67ca4ff0620af5d781bafa35d29 OP_EQUALVERIFY OP_CHECKSIG", "type": "pubkeyhash"}, "value": 0.103163, "n": 1}], "hex": "010000000443a6e545a462270720685ddc32f49f151f45da8f6877ef1df159c336b0ec8c09000000006a47304402206e6330f3c1dda4b4549395bfe63606a281fb1adf66e99cacc4e9078dd2ec6b65022049a5dd79cdd98e4f4d354b556ced1aa51ee218e680be992ef164e94eea3fb2f2012102260e1bb9b531e82fea85e59769634d2a151cceb4f8cc201229d49521007e817afeffffffbab01d74be47173701f5b8ab9b9f24c43a5d84880060805bb3dd71074b419c0f000000006b483045022100f1a96c12e581e95d2ed56f16480a7bf694f6288a2c2e4e36553f4e1ee4897c87022032c0f74bf21dae6af9429bc508014f80132f588c30f15013722372307de797da01210222fc71fd9c0d4caec92da680081a460a715e9d05c01c23e49f13f9922deba02efeffffff5ecaed0e78cda49d1895f3e84b0398244192724742aa43d2f6ff552e9a43a13d010000006a473044022063491bc78e714d30ed02c5fe4699af3441cff6c86bc7bd6664bbb0aee4732cda02203c359162ba7da7305398d062faa51b5e5c6e2145c85a10bd1ac0002b0917cfeb01210219fcc7247598e6b9ed0c196850041e7ffdfeaf3e190adcd0a21d3ad05c6f41b6fefffffff299a99d8ac7e6dea9f57f0076a5342aba8084f2c1560048feb68df6711e81d4000000006a4730440220285f1c01a0df372b0801c5b8c3729e11c811785ce3f3872b424c92f9f270121c022018d9529f75bafa545dcebbe79bbbd1336cc0ff702a18b540244e4afb0e7332b80121030c63d3a6a6bce33ed41447b80dedab8957ac5afab9d2c69b3dccd22c6ca673f6feffffff02d0360800000000001976a91415e9cb09783de13ccf4e235560a38833b55a930888ac0c6a9d00000000001976a914fd1406ce5386a67ca4ff0620af5d781bafa35d2988ac17490800", "vin": [{"sequence": 4294967294, "scriptSig": {"hex": "47304402206e6330f3c1dda4b4549395bfe63606a281fb1adf66e99cacc4e9078dd2ec6b65022049a5dd79cdd98e4f4d354b556ced1aa51ee218e680be992ef164e94eea3fb2f2012102260e1bb9b531e82fea85e59769634d2a151cceb4f8cc201229d49521007e817a", "asm": "304402206e6330f3c1dda4b4549395bfe63606a281fb1adf66e99cacc4e9078dd2ec6b65022049a5dd79cdd98e4f4d354b556ced1aa51ee218e680be992ef164e94eea3fb2f2[ALL] 02260e1bb9b531e82fea85e59769634d2a151cceb4f8cc201229d49521007e817a"}, "vout": 0, "txid": "098cecb036c359f11def77688fda451f159ff432dc5d6820072762a445e5a643"}, {"sequence": 4294967294, "scriptSig": {"hex": "483045022100f1a96c12e581e95d2ed56f16480a7bf694f6288a2c2e4e36553f4e1ee4897c87022032c0f74bf21dae6af9429bc508014f80132f588c30f15013722372307de797da01210222fc71fd9c0d4caec92da680081a460a715e9d05c01c23e49f13f9922deba02e", "asm": "3045022100f1a96c12e581e95d2ed56f16480a7bf694f6288a2c2e4e36553f4e1ee4897c87022032c0f74bf21dae6af9429bc508014f80132f588c30f15013722372307de797da[ALL] 0222fc71fd9c0d4caec92da680081a460a715e9d05c01c23e49f13f9922deba02e"}, "vout": 0, "txid": "0f9c414b0771ddb35b80600088845d3ac4249f9babb8f501371747be741db0ba"}, {"sequence": 4294967294, "scriptSig": {"hex": "473044022063491bc78e714d30ed02c5fe4699af3441cff6c86bc7bd6664bbb0aee4732cda02203c359162ba7da7305398d062faa51b5e5c6e2145c85a10bd1ac0002b0917cfeb01210219fcc7247598e6b9ed0c196850041e7ffdfeaf3e190adcd0a21d3ad05c6f41b6", "asm": "3044022063491bc78e714d30ed02c5fe4699af3441cff6c86bc7bd6664bbb0aee4732cda02203c359162ba7da7305398d062faa51b5e5c6e2145c85a10bd1ac0002b0917cfeb[ALL] 0219fcc7247598e6b9ed0c196850041e7ffdfeaf3e190adcd0a21d3ad05c6f41b6"}, "vout": 1, "txid": "3da1439a2e55fff6d243aa42477292412498034be8f395189da4cd780eedca5e"}, {"sequence": 4294967294, "scriptSig": {"hex": "4730440220285f1c01a0df372b0801c5b8c3729e11c811785ce3f3872b424c92f9f270121c022018d9529f75bafa545dcebbe79bbbd1336cc0ff702a18b540244e4afb0e7332b80121030c63d3a6a6bce33ed41447b80dedab8957ac5afab9d2c69b3dccd22c6ca673f6", "asm": "30440220285f1c01a0df372b0801c5b8c3729e11c811785ce3f3872b424c92f9f270121c022018d9529f75bafa545dcebbe79bbbd1336cc0ff702a18b540244e4afb0e7332b8[ALL] 030c63d3a6a6bce33ed41447b80dedab8957ac5afab9d2c69b3dccd22c6ca673f6"}, "vout": 0, "txid": "d4811e71f68db6fe480056c1f28480ba2a34a576007ff5a9dee6c78a9da999f2"}], "txid": "cb9d1434ca03ee3fcf25dbe3625e80dd0c74ad4eb75c0ae6e04a0bf1312f72a5", "blocktime": 1537876114, "version": 1, "confirmations": 11460, "time": 1537876114, "locktime": 542999, "vsize": 667, "size": 667}