{"hash": "cba00cd6acd0285e7bb6ef74cf01c5ab2c6c1dfc3e76dddaa8858372430d4c5d", "blockhash": "0000000000000000000baef3f32e3676a92c3b2e5da21b426e4f302fc371ce76", "vout": [{"scriptPubKey": {"reqSigs": 1, "hex": "76a914d243e6abb9a60fbff430b421d2df4b7d59ec186088ac", "addresses": ["1LAnF8h3qMGx3TSwNUHVneBZUEpwE4gu3D"], "asm": "OP_DUP OP_HASH160 d243e6abb9a60fbff430b421d2df4b7d59ec1860 OP_EQUALVERIFY OP_CHECKSIG", "type": "pubkeyhash"}, "value": 0.00077314, "n": 0}, {"scriptPubKey": {"reqSigs": 1, "hex": "76a914d044094f7cf3f4380d0603cba49e21a2bff031ae88ac", "addresses": ["1KzD49jP7sYPF7h2Rxi4LSt8oSi188BdGa"], "asm": "OP_DUP OP_HASH160 d044094f7cf3f4380d0603cba49e21a2bff031ae OP_EQUALVERIFY OP_CHECKSIG", "type": "pubkeyhash"}, "value": 5.46e-06, "n": 1}, {"scriptPubKey": {"type": "nulldata", "hex": "6a146f6d6e69000000000000001f00000e8d4a510000", "asm": "OP_RETURN 6f6d6e69000000000000001f00000e8d4a510000"}, "value": 0.0, "n": 2}], "hex": "0100000001f737fdfbef312edce585d4c7c2631ed02c385d47bea925b6a00c6e41dd58ada2000000006a47304402203fbba5b091c8fda5b827dabe5f4e5417f4bdf429a37f8d20e24bd05e067fa8880220430b2883aedbb5196f901bbad95d5c4c978fa0f23f72ff82b1d226dbb76569e201210271977291b74f1f5f5c42157e8aae804664eaaeccfd097918450d37f28fb94d77ffffffff03022e0100000000001976a914d243e6abb9a60fbff430b421d2df4b7d59ec186088ac22020000000000001976a914d044094f7cf3f4380d0603cba49e21a2bff031ae88ac0000000000000000166a146f6d6e69000000000000001f00000e8d4a51000000000000", "vin": [{"sequence": 4294967295, "scriptSig": {"hex": "47304402203fbba5b091c8fda5b827dabe5f4e5417f4bdf429a37f8d20e24bd05e067fa8880220430b2883aedbb5196f901bbad95d5c4c978fa0f23f72ff82b1d226dbb76569e201210271977291b74f1f5f5c42157e8aae804664eaaeccfd097918450d37f28fb94d77", "asm": "304402203fbba5b091c8fda5b827dabe5f4e5417f4bdf429a37f8d20e24bd05e067fa8880220430b2883aedbb5196f901bbad95d5c4c978fa0f23f72ff82b1d226dbb76569e2[ALL] 0271977291b74f1f5f5c42157e8aae804664eaaeccfd097918450d37f28fb94d77"}, "vout": 0, "txid": "a2ad58dd416e0ca0b625a9be475d382cd01e63c2c7d485e5dc2e31effbfd37f7"}], "txid": "cba00cd6acd0285e7bb6ef74cf01c5ab2c6c1dfc3e76dddaa8858372430d4c5d", "blocktime": 1537876114, "version": 1, "confirmations": 11460, "time": 1537876114, "locktime": 0, "vsize": 256, "size": 256}