{"hash": "72ae00b95930811d48f12235a8a6b25380c7a661690d4b20455cf0d4aadd0463", "blockhash": "00000000000000000017f5eb5941039fbcee6240d03bc1f2f8e35350df66a1d8", "vout": [{"scriptPubKey": {"reqSigs": 1, "hex": "a914c094efe947dbb86b90a4762ad30279d5836778b987", "addresses": ["3KFJ5i8nJywrZyvtr5ZqNmFX4UsLtTCbCo"], "asm": "OP_HASH160 c094efe947dbb86b90a4762ad30279d5836778b9 OP_EQUAL", "type": "scripthash"}, "value": 0.04206372, "n": 0}, {"scriptPubKey": {"reqSigs": 1, "hex": "76a914a74f51c48b9b365c5fa12f5383c93ae26ee2701688ac", "addresses": ["1GFesFBm5a71R1JkzszokHnVRTuJetp8oz"], "asm": "OP_DUP OP_HASH160 a74f51c48b9b365c5fa12f5383c93ae26ee27016 OP_EQUALVERIFY OP_CHECKSIG", "type": "pubkeyhash"}, "value": 0.00392868, "n": 1}, {"scriptPubKey": {"reqSigs": 1, "hex": "a914c7e6b04cc9c45353d5290cab7857b6d1d4a6d0a087", "addresses": ["3KuzkFLEyPudvETzUzo5XDuD9tyHvZNFig"], "asm": "OP_HASH160 c7e6b04cc9c45353d5290cab7857b6d1d4a6d0a0 OP_EQUAL", "type": "scripthash"}, "value": 0.13039697, "n": 2}, {"scriptPubKey": {"reqSigs": 1, "hex": "76a9143bc806b7ebc3da681680c5ed4ecbc1df19b05ee588ac", "addresses": ["16T6VPLP1WekmUEU4VSGQaft42Tr59aNDr"], "asm": "OP_DUP OP_HASH160 3bc806b7ebc3da681680c5ed4ecbc1df19b05ee5 OP_EQUALVERIFY OP_CHECKSIG", "type": "pubkeyhash"}, "value": 0.08289263, "n": 3}, {"scriptPubKey": {"reqSigs": 1, "hex": "76a914ba52137159531bdbcef72e9a3c2d3b7c6a1f789188ac", "addresses": ["1HzB1RCshAzPFV3tTkAs8nNima7fiSGcHJ"], "asm": "OP_DUP OP_HASH160 ba52137159531bdbcef72e9a3c2d3b7c6a1f7891 OP_EQUALVERIFY OP_CHECKSIG", "type": "pubkeyhash"}, "value": 0.00381415, "n": 4}, {"scriptPubKey": {"reqSigs": 1, "hex": "76a9147c11bda11b0c610aaf5e7ff001030dde119a601088ac", "addresses": ["1CK23SEtkW9epSZzpngweNums8CBH7nZTu"], "asm": "OP_DUP OP_HASH160 7c11bda11b0c610aaf5e7ff001030dde119a6010 OP_EQUALVERIFY OP_CHECKSIG", "type": "pubkeyhash"}, "value": 0.01576696, "n": 5}, {"scriptPubKey": {"reqSigs": 1, "hex": "a914fdb3e3d786148aea7213f4d5b5b17d7419d0442487", "addresses": ["3QpUP44rAvZuS6efu8uNJiPzhcJxjqczei"], "asm": "OP_HASH160 fdb3e3d786148aea7213f4d5b5b17d7419d04424 OP_EQUAL", "type": "scripthash"}, "value": 0.018, "n": 6}, {"scriptPubKey": {"reqSigs": 1, "hex": "a91469f376a2deafd64dc582b4967ee70b3209e2fa5f87", "addresses": ["3BMEXpaVN9KGk9SbYSHZVj48zoNUuAFp8j"], "asm": "OP_HASH160 69f376a2deafd64dc582b4967ee70b3209e2fa5f OP_EQUAL", "type": "scripthash"}, "value": 0.02, "n": 7}, {"scriptPubKey": {"reqSigs": 1, "hex": "a91469f373ca524264281b4e8dc3d61415519aa6092687", "addresses": ["3BMEX3n7ZhgLtG16HBqDtRpYcycBn9CpDi"], "asm": "OP_HASH160 69f373ca524264281b4e8dc3d61415519aa60926 OP_EQUAL", "type": "scripthash"}, "value": 0.01559837, "n": 8}, {"scriptPubKey": {"reqSigs": 1, "hex": "a914727e693211d6cfabc9092050186cdc15e70ae48287", "addresses": ["3C8QPbb2upQRRNtqxa4G6rEpBQMXQXeEgN"], "asm": "OP_HASH160 727e693211d6cfabc9092050186cdc15e70ae482 OP_EQUAL", "type": "scripthash"}, "value": 0.0005, "n": 9}], "hex": "010000000001022dba8a00978187ff9522e94d8409a136a76e8ee7f3b14685855d129f0408022b2b0000002322002008465438d2b91129a6d68f95436eac46d5b4c1781988503751af05520435dbecffffffff02f7522e573c6dd6a90fb3125edbe0d6df5bcf95529ac16de1d1477f58c523080200000023220020fb34a2d5590986c5a4ef5603302a0436eb882bf937c70bd8af7ba16961acdc17ffffffff0a242f40000000000017a914c094efe947dbb86b90a4762ad30279d5836778b987a4fe0500000000001976a914a74f51c48b9b365c5fa12f5383c93ae26ee2701688ac51f8c6000000000017a914c7e6b04cc9c45353d5290cab7857b6d1d4a6d0a087ef7b7e00000000001976a9143bc806b7ebc3da681680c5ed4ecbc1df19b05ee588ace7d10500000000001976a914ba52137159531bdbcef72e9a3c2d3b7c6a1f789188acf80e1800000000001976a9147c11bda11b0c610aaf5e7ff001030dde119a601088ac40771b000000000017a914fdb3e3d786148aea7213f4d5b5b17d7419d044248780841e000000000017a91469f376a2deafd64dc582b4967ee70b3209e2fa5f871dcd17000000000017a91469f373ca524264281b4e8dc3d61415519aa609268750c300000000000017a914727e693211d6cfabc9092050186cdc15e70ae482870400473044022061c19b643cc2aa3e8569054466248abb2517f5c3d37b85f7b4f29ed9a860649d022028958cc36409dd31942791270ed971b59c3b14f95583c0e85d017282c07cd8de0147304402207d45539324353b5c0ac23ec0f3c088a1d3585c515713052a8ec61de75a359aa402202f07706d4adee00ea533a496d20206053c292e622eb296aaa0c2654ccc3f03ef0169522102364b904d2b8132d26af187331182630b2338b195b4d152517a86677227ac6e5021035e72d59c77e5125083e5eb4422098396614846384146d5088147b09cf41b3b2021024c030c9c01ab127e21eef8c86a88ceab13b5c63e016a7cfce8426442f4d9112b53ae0400483045022100e1229c72966e418ea23317384789dc414f998da8b90db98ac0b97e398d531897022010d481070fd9fb2ed721a1027b3a9a73abd8d291ec62fb251781c94c9e47d16001483045022100d0e2157c90a0f4598058db0c8999c58ae1399a626f74549d816f150d102ec865022075c71c8e1d6879caa7eb0a8985b315b185e102f3137088c7b94a8f943572b6f50169522103ef0b972e853505278ae4f49c7f831c99edc437c1bc0244e16af75b68297d7de32103b8efca4da1ad64a79d8cfdc5b7a5c3dadf451bca0662b2174ffdef6c7cf72fea210208056accc77d6443cfe72c646749a68eb4f95c52b92473a87c857a737f9dba3853ae00000000", "vin": [{"txinwitness": ["", "3044022061c19b643cc2aa3e8569054466248abb2517f5c3d37b85f7b4f29ed9a860649d022028958cc36409dd31942791270ed971b59c3b14f95583c0e85d017282c07cd8de01", "304402207d45539324353b5c0ac23ec0f3c088a1d3585c515713052a8ec61de75a359aa402202f07706d4adee00ea533a496d20206053c292e622eb296aaa0c2654ccc3f03ef01", "522102364b904d2b8132d26af187331182630b2338b195b4d152517a86677227ac6e5021035e72d59c77e5125083e5eb4422098396614846384146d5088147b09cf41b3b2021024c030c9c01ab127e21eef8c86a88ceab13b5c63e016a7cfce8426442f4d9112b53ae"], "sequence": 4294967295, "scriptSig": {"hex": "22002008465438d2b91129a6d68f95436eac46d5b4c1781988503751af05520435dbec", "asm": "002008465438d2b91129a6d68f95436eac46d5b4c1781988503751af05520435dbec"}, "vout": 43, "txid": "2b0208049f125d858546b1f3e78e6ea736a109844de92295ff878197008aba2d"}, {"txinwitness": ["", "3045022100e1229c72966e418ea23317384789dc414f998da8b90db98ac0b97e398d531897022010d481070fd9fb2ed721a1027b3a9a73abd8d291ec62fb251781c94c9e47d16001", "3045022100d0e2157c90a0f4598058db0c8999c58ae1399a626f74549d816f150d102ec865022075c71c8e1d6879caa7eb0a8985b315b185e102f3137088c7b94a8f943572b6f501", "522103ef0b972e853505278ae4f49c7f831c99edc437c1bc0244e16af75b68297d7de32103b8efca4da1ad64a79d8cfdc5b7a5c3dadf451bca0662b2174ffdef6c7cf72fea210208056accc77d6443cfe72c646749a68eb4f95c52b92473a87c857a737f9dba3853ae"], "sequence": 4294967295, "scriptSig": {"hex": "220020fb34a2d5590986c5a4ef5603302a0436eb882bf937c70bd8af7ba16961acdc17", "asm": "0020fb34a2d5590986c5a4ef5603302a0436eb882bf937c70bd8af7ba16961acdc17"}, "vout": 2, "txid": "0823c5587f47d1e16dc19a5295cf5bdfd6e0db5e12b30fa9d66d3c572e52f702"}], "txid": "cba0990d9ce98e30bc018bd98cb741a6c54877e5fc195a7621211ecd137e16c9", "blocktime": 1537874412, "version": 1, "confirmations": 11466, "time": 1537874412, "locktime": 0, "vsize": 617, "size": 998}