{"hash": "cbafbde4e594ea00a595d8d2857df8de963e9af9dc1d2ec20a8aa522dfe4bfbf", "blockhash": "0000000000000000000e13cef7c366c0283d82e591d1acd082e914b08063cdf1", "vout": [{"scriptPubKey": {"reqSigs": 1, "hex": "a9146d469dd7c20dac0e64e16f2949b94925ad8c21d087", "addresses": ["3BepAyiyKfZztzY9pZyZT44eZfYqM6mD1C"], "asm": "OP_HASH160 6d469dd7c20dac0e64e16f2949b94925ad8c21d0 OP_EQUAL", "type": "scripthash"}, "value": 0.5, "n": 0}, {"scriptPubKey": {"reqSigs": 1, "hex": "76a9147b40b6de9ebc6ff6ccfd1ed5789bf5170e5cf37488ac", "addresses": ["1CEhe2WD9Z9ftxFA34JupX5G62gEv592LH"], "asm": "OP_DUP OP_HASH160 7b40b6de9ebc6ff6ccfd1ed5789bf5170e5cf374 OP_EQUALVERIFY OP_CHECKSIG", "type": "pubkeyhash"}, "value": 3.48105716, "n": 1}], "hex": "01000000017786c37b7f08fa8d4c133cbd73a9e788238b955dfc56bdbd900a2f6506d223fe010000006b483045022100c6ba1e63e980ad99b40bc4315bc6d3a0b2c06cad5667c78d011e70fb2e373921022042c43a13b4abb7a55e5ca9cbdf3b32b8b28f7c7d8c35bdeef2f6e50486402db901210305ed4ed8188a34ab8a7e8e5edd3a83b32e3cf48fe3d7e2e15604a4af3c287557ffffffff0280f0fa020000000017a9146d469dd7c20dac0e64e16f2949b94925ad8c21d087f4abbf14000000001976a9147b40b6de9ebc6ff6ccfd1ed5789bf5170e5cf37488ac00000000", "vin": [{"sequence": 4294967295, "scriptSig": {"hex": "483045022100c6ba1e63e980ad99b40bc4315bc6d3a0b2c06cad5667c78d011e70fb2e373921022042c43a13b4abb7a55e5ca9cbdf3b32b8b28f7c7d8c35bdeef2f6e50486402db901210305ed4ed8188a34ab8a7e8e5edd3a83b32e3cf48fe3d7e2e15604a4af3c287557", "asm": "3045022100c6ba1e63e980ad99b40bc4315bc6d3a0b2c06cad5667c78d011e70fb2e373921022042c43a13b4abb7a55e5ca9cbdf3b32b8b28f7c7d8c35bdeef2f6e50486402db9[ALL] 0305ed4ed8188a34ab8a7e8e5edd3a83b32e3cf48fe3d7e2e15604a4af3c287557"}, "vout": 1, "txid": "fe23d206652f0a90bdbd56fc5d958b2388e7a973bd3c134c8dfa087f7bc38677"}], "txid": "cbafbde4e594ea00a595d8d2857df8de963e9af9dc1d2ec20a8aa522dfe4bfbf", "blocktime": 1537871767, "version": 1, "confirmations": 11495, "time": 1537871767, "locktime": 0, "vsize": 224, "size": 224}