{"hash": "0a580374e28f838a24c36282b860ef36f446343913693bf967983178b3753fcf", "blockhash": "0000000000000000000e13cef7c366c0283d82e591d1acd082e914b08063cdf1", "vout": [{"scriptPubKey": {"reqSigs": 1, "hex": "a914983433f1a87f7f9ee354ad38761032a9cd09672b87", "addresses": ["3FZoApiTYM7QXNjcRB4Qu2s2swsNCYF27j"], "asm": "OP_HASH160 983433f1a87f7f9ee354ad38761032a9cd09672b OP_EQUAL", "type": "scripthash"}, "value": 1.58342304, "n": 0}, {"scriptPubKey": {"reqSigs": 1, "hex": "76a914d30eed09edc10d5d6df3ac2b7dd2e91ca8d027d088ac", "addresses": ["1LEyTYoAnoYckB2eXKvJXCaUkqwzntt49z"], "asm": "OP_DUP OP_HASH160 d30eed09edc10d5d6df3ac2b7dd2e91ca8d027d0 OP_EQUALVERIFY OP_CHECKSIG", "type": "pubkeyhash"}, "value": 0.0156148, "n": 1}, {"scriptPubKey": {"reqSigs": 1, "hex": "a9140e5656abe6c994159624c25734d484998e789d8887", "addresses": ["32zpp8wan9eZxmtuFzkoMf4xcU8oVxNEzy"], "asm": "OP_HASH160 0e5656abe6c994159624c25734d484998e789d88 OP_EQUAL", "type": "scripthash"}, "value": 1.11534553, "n": 2}, {"scriptPubKey": {"reqSigs": 1, "hex": "a914590a936e54d2cdbb50f37262f6e060eb02b367ab87", "addresses": ["39opjSfHpWgHPt4R4ZugVhUxFyPnHTcNzj"], "asm": "OP_HASH160 590a936e54d2cdbb50f37262f6e060eb02b367ab OP_EQUAL", "type": "scripthash"}, "value": 13.11614122, "n": 3}, {"scriptPubKey": {"reqSigs": 1, "hex": "a914f054b0dc3d40969495e995b1ddfd2a4d38391e7187", "addresses": ["3PbmZ1NWBfgTHSpi1msUP69iJ9d8ML2vkW"], "asm": "OP_HASH160 f054b0dc3d40969495e995b1ddfd2a4d38391e71 OP_EQUAL", "type": "scripthash"}, "value": 0.00077957, "n": 4}], "hex": "020000000001013ddd619f8634d6223c55306ccd06dac95a3ebd49080a14f6307c62c5581548c20200000017160014ef10edb4cbf17dfddc1f7ddc50e662949abe567efeffffff05a01c70090000000017a914983433f1a87f7f9ee354ad38761032a9cd09672b8788d31700000000001976a914d30eed09edc10d5d6df3ac2b7dd2e91ca8d027d088acd9e1a5060000000017a9140e5656abe6c994159624c25734d484998e789d8887aaa42d4e0000000017a914590a936e54d2cdbb50f37262f6e060eb02b367ab87853001000000000017a914f054b0dc3d40969495e995b1ddfd2a4d38391e718702473044022006e935bcfeca21b643e0983f157418ae469284c575951567abbf779fe734a96f022032d35376c36b80f47dcfaecfdc309e7e621291d70ed49f227aa73adf476cff71012103629769d3534a8159c558415c6156fc8d291c5f94ffdfe68083f164d5e3135cdc10490800", "vin": [{"txinwitness": ["3044022006e935bcfeca21b643e0983f157418ae469284c575951567abbf779fe734a96f022032d35376c36b80f47dcfaecfdc309e7e621291d70ed49f227aa73adf476cff7101", "03629769d3534a8159c558415c6156fc8d291c5f94ffdfe68083f164d5e3135cdc"], "sequence": 4294967294, "scriptSig": {"hex": "160014ef10edb4cbf17dfddc1f7ddc50e662949abe567e", "asm": "0014ef10edb4cbf17dfddc1f7ddc50e662949abe567e"}, "vout": 2, "txid": "c2481558c5627c30f6140a0849bd3e5ac9da06cd6c30553c22d634869f61dd3d"}], "txid": "cbb5ba2f437c72e85bff2cb077f5e708efc54af7096c69e5177c131b7545c08a", "blocktime": 1537871767, "version": 2, "confirmations": 11491, "time": 1537871767, "locktime": 542992, "vsize": 264, "size": 345}