{"hash": "f0989820bda5bf777e001072974cef3ad4e421e10b5553a4a4ca02f96e9a10bf", "blockhash": "0000000000000000000e13cef7c366c0283d82e591d1acd082e914b08063cdf1", "vout": [{"scriptPubKey": {"reqSigs": 1, "hex": "76a914d83c289eed2c09289db25813f8d1c3f590c74b9c88ac", "addresses": ["1LiM2LLXNo4gp8U7HeHjdnCL3cGbpTm6Xt"], "asm": "OP_DUP OP_HASH160 d83c289eed2c09289db25813f8d1c3f590c74b9c OP_EQUALVERIFY OP_CHECKSIG", "type": "pubkeyhash"}, "value": 0.00099, "n": 0}, {"scriptPubKey": {"reqSigs": 1, "hex": "a91432072553c1d13bea07b6aac18d09c879b2bc914a87", "addresses": ["36FYGdmkJNhHkEtbNyr8hWDKvGffZFKPCp"], "asm": "OP_HASH160 32072553c1d13bea07b6aac18d09c879b2bc914a OP_EQUAL", "type": "scripthash"}, "value": 0.00271261, "n": 1}], "hex": "010000000001017f71964114c8ccb4a553e6aa7f9af8d675b2f06ff4d647bba329cdaf7a447bc80100000023220020b58b29a5c7a4beb628a03f2da5849859aaa374ee7a2998f1dadeb6ca3fd7e9a0ffffffff02b8820100000000001976a914d83c289eed2c09289db25813f8d1c3f590c74b9c88ac9d2304000000000017a91432072553c1d13bea07b6aac18d09c879b2bc914a87040047304402206ce75875485348481fe4cf31aecb68981be5cfcc54bceb5602632d9a5a7f8fb002207271f69552d4a334e222ab1e2c1816723379da27164a9636ed784142bde784c70147304402201e36489c7b82457f13babaf8593688555f8ada558f686865e897d9f979f78f7902207dc74425f9f414ce110fe6a4eb04365a93c2526011f56fcf0dcdb7efa8db06920147522102ae69da8d7e68d58540f59af96793d6c611a658a3a5ca15ed11521fad83e95c272103871fc2ca08e6950b38867e8e6a0e94ee625223d3aa0df5c65f414c6d784467e252ae00000000", "vin": [{"txinwitness": ["", "304402206ce75875485348481fe4cf31aecb68981be5cfcc54bceb5602632d9a5a7f8fb002207271f69552d4a334e222ab1e2c1816723379da27164a9636ed784142bde784c701", "304402201e36489c7b82457f13babaf8593688555f8ada558f686865e897d9f979f78f7902207dc74425f9f414ce110fe6a4eb04365a93c2526011f56fcf0dcdb7efa8db069201", "522102ae69da8d7e68d58540f59af96793d6c611a658a3a5ca15ed11521fad83e95c272103871fc2ca08e6950b38867e8e6a0e94ee625223d3aa0df5c65f414c6d784467e252ae"], "sequence": 4294967295, "scriptSig": {"hex": "220020b58b29a5c7a4beb628a03f2da5849859aaa374ee7a2998f1dadeb6ca3fd7e9a0", "asm": "0020b58b29a5c7a4beb628a03f2da5849859aaa374ee7a2998f1dadeb6ca3fd7e9a0"}, "vout": 1, "txid": "c87b447aafcd29a3bb47d6f46ff0b275d6f89a7faae653a5b4ccc8144196717f"}], "txid": "cbbb6e471cf25af16b5fc7fc930f7727056ddb49e01d292d2183b2f5b4763816", "blocktime": 1537871767, "version": 1, "confirmations": 11495, "time": 1537871767, "locktime": 0, "vsize": 207, "size": 372}