{"hash": "cbc9c91b4e66f94b490258489e8fcf06db8534fdca4766026fe784c075f52e99", "blockhash": "0000000000000000001cda96e906b7601b7a6fb1a3b62bca570a9e5d8f4b3de1", "vout": [{"scriptPubKey": {"reqSigs": 1, "hex": "76a9144c89e6d1b1ad33053321bdef9bf0d1efd5b78d0988ac", "addresses": ["17yhZ9s9meJ8tVE9W168bK4LkkQBJpDdbJ"], "asm": "OP_DUP OP_HASH160 4c89e6d1b1ad33053321bdef9bf0d1efd5b78d09 OP_EQUALVERIFY OP_CHECKSIG", "type": "pubkeyhash"}, "value": 0.0222128, "n": 0}, {"scriptPubKey": {"type": "nulldata", "hex": "6a4c50000077cc00011fd98323c298a2716baafe825b23cc0f42c2fc38c5e5bf9ae76da98a211a4361990d2ae22babf8c3122f1191b9115baa13e90613397824270e01bc9a9526289ac0f6612cd74e33776ee4", "asm": "OP_RETURN 000077cc00011fd98323c298a2716baafe825b23cc0f42c2fc38c5e5bf9ae76da98a211a4361990d2ae22babf8c3122f1191b9115baa13e90613397824270e01bc9a9526289ac0f6612cd74e33776ee4"}, "value": 0.0, "n": 1}], "hex": "0100000001c2de8295448d7dd0b46a0847ceab8ab3ade5ed787e1a37a3fbe8f4e09215a02b010000006b48304502210083784de71e4f1fbc08f99101bb40bd52dd5d55792d111aa26550d0f572acf0530220728156a1a3991747f26ac4bd55f216dc8c5e1fb54e291155dce10a38000d21f3012102e07467273a7fc61cd5e26106707c2cb80008fe0216fe91e6ff969c5983534873ffffffff02e0e42100000000001976a9144c89e6d1b1ad33053321bdef9bf0d1efd5b78d0988ac0000000000000000536a4c50000077cc00011fd98323c298a2716baafe825b23cc0f42c2fc38c5e5bf9ae76da98a211a4361990d2ae22babf8c3122f1191b9115baa13e90613397824270e01bc9a9526289ac0f6612cd74e33776ee400000000", "vin": [{"sequence": 4294967295, "scriptSig": {"hex": "48304502210083784de71e4f1fbc08f99101bb40bd52dd5d55792d111aa26550d0f572acf0530220728156a1a3991747f26ac4bd55f216dc8c5e1fb54e291155dce10a38000d21f3012102e07467273a7fc61cd5e26106707c2cb80008fe0216fe91e6ff969c5983534873", "asm": "304502210083784de71e4f1fbc08f99101bb40bd52dd5d55792d111aa26550d0f572acf0530220728156a1a3991747f26ac4bd55f216dc8c5e1fb54e291155dce10a38000d21f3[ALL] 02e07467273a7fc61cd5e26106707c2cb80008fe0216fe91e6ff969c5983534873"}, "vout": 1, "txid": "2ba01592e0f4e8fba3371a7e78ede5adb38aabce47086ab4d07d8d449582dec2"}], "txid": "cbc9c91b4e66f94b490258489e8fcf06db8534fdca4766026fe784c075f52e99", "blocktime": 1537873282, "version": 1, "confirmations": 11484, "time": 1537873282, "locktime": 0, "vsize": 284, "size": 284}