{"hash": "cbcffef572d1ee13dcbbaad595282db841233f2904569f50a83853490c20cf23", "blockhash": "0000000000000000000e13cef7c366c0283d82e591d1acd082e914b08063cdf1", "vout": [{"scriptPubKey": {"reqSigs": 1, "hex": "76a9148b6e47a2f9c47030a2ad4c3236fc33827fe3b6ff88ac", "addresses": ["1DiF33QDwrVo7GPHDBAxbWfZKGdYH5WB7m"], "asm": "OP_DUP OP_HASH160 8b6e47a2f9c47030a2ad4c3236fc33827fe3b6ff OP_EQUALVERIFY OP_CHECKSIG", "type": "pubkeyhash"}, "value": 7.129e-05, "n": 0}], "hex": "01000000018b18aec5a2f1e61ff6808b8197df1390078add0ec8aa84782bd469d4c4a4c855000000006a473044022018443201069cb4f14099bec4ab36d60b95f00e1fc5c16b8edc30c975c36bdd010220796326110c24becd206ffb4d4ee070034e3af47e6d54f8a7c0654f5c31ddc8a9012102d19c75130a3b29bb042bbf5b7d46cc8285ad90a60e126c1baa70b3d53547b31fffffffff01d91b0000000000001976a9148b6e47a2f9c47030a2ad4c3236fc33827fe3b6ff88ac00000000", "vin": [{"sequence": 4294967295, "scriptSig": {"hex": "473044022018443201069cb4f14099bec4ab36d60b95f00e1fc5c16b8edc30c975c36bdd010220796326110c24becd206ffb4d4ee070034e3af47e6d54f8a7c0654f5c31ddc8a9012102d19c75130a3b29bb042bbf5b7d46cc8285ad90a60e126c1baa70b3d53547b31f", "asm": "3044022018443201069cb4f14099bec4ab36d60b95f00e1fc5c16b8edc30c975c36bdd010220796326110c24becd206ffb4d4ee070034e3af47e6d54f8a7c0654f5c31ddc8a9[ALL] 02d19c75130a3b29bb042bbf5b7d46cc8285ad90a60e126c1baa70b3d53547b31f"}, "vout": 0, "txid": "55c8a4c4d469d42b7884aac80edd8a079013df97818b80f61fe6f1a2c5ae188b"}], "txid": "cbcffef572d1ee13dcbbaad595282db841233f2904569f50a83853490c20cf23", "blocktime": 1537871767, "version": 1, "confirmations": 11495, "time": 1537871767, "locktime": 0, "vsize": 191, "size": 191}