{"hash": "cbd149b5b2cc25dbc5f061e6984d20160dfe63dc10b1eb6d5df11bbbdace09c2", "blockhash": "0000000000000000001f76057863aec43deb6fa401d9628bb513d65a8098bfab", "vout": [{"scriptPubKey": {"reqSigs": 1, "hex": "76a91427a39342805c0c38a59cb76838e6c7dc8f2f1abf88ac", "addresses": ["14cbJtVkfjrGKB7fzhtd7eMNEYA3e1u9Wc"], "asm": "OP_DUP OP_HASH160 27a39342805c0c38a59cb76838e6c7dc8f2f1abf OP_EQUALVERIFY OP_CHECKSIG", "type": "pubkeyhash"}, "value": 0.01009322, "n": 0}], "hex": "0100000001f7a8d4e5c27b38e3a4daa9eb34c09572deb5a30958b5f00f5aa725fd82f82014000000006a473044022076ab1106d7e67209815758d3757dcb942af925568705a076887ccd0085ea6359022027cd384eb5ea28e96ba1d22db0d37800d5cc1b8bd787ba5327dabc431a89d1cc0121026806f214eead42fb2b6a8b67fa75fa6fbeedf563b6ecbc989f08db222c144564ffffffff01aa660f00000000001976a91427a39342805c0c38a59cb76838e6c7dc8f2f1abf88ac00000000", "vin": [{"sequence": 4294967295, "scriptSig": {"hex": "473044022076ab1106d7e67209815758d3757dcb942af925568705a076887ccd0085ea6359022027cd384eb5ea28e96ba1d22db0d37800d5cc1b8bd787ba5327dabc431a89d1cc0121026806f214eead42fb2b6a8b67fa75fa6fbeedf563b6ecbc989f08db222c144564", "asm": "3044022076ab1106d7e67209815758d3757dcb942af925568705a076887ccd0085ea6359022027cd384eb5ea28e96ba1d22db0d37800d5cc1b8bd787ba5327dabc431a89d1cc[ALL] 026806f214eead42fb2b6a8b67fa75fa6fbeedf563b6ecbc989f08db222c144564"}, "vout": 0, "txid": "1420f882fd25a75a0ff0b55809a3b5de7295c034eba9daa4e3387bc2e5d4a8f7"}], "txid": "cbd149b5b2cc25dbc5f061e6984d20160dfe63dc10b1eb6d5df11bbbdace09c2", "blocktime": 1537873891, "version": 1, "confirmations": 11478, "time": 1537873891, "locktime": 0, "vsize": 191, "size": 191}