{"hash": "29b6ce9ac09ec409b2f83a0994465cb4fdb29655cf5391e9ad11f9d8b40d1b3e", "blockhash": "00000000000000000018f53835495a110e01622372bf6ae95dc86f2b0ab887b0", "vout": [{"scriptPubKey": {"reqSigs": 1, "hex": "a91499222a0820cafb77672f687188d9e08f768bd70f87", "addresses": ["3FeiEfQvxZJacVRu4ipcgywDP7Ghk2xaCD"], "asm": "OP_HASH160 99222a0820cafb77672f687188d9e08f768bd70f OP_EQUAL", "type": "scripthash"}, "value": 0.089382, "n": 0}, {"scriptPubKey": {"reqSigs": 1, "hex": "a91410d983adadb970c8ddd66a1e9a64ca14761d5f9787", "addresses": ["33E7JmysCuFhEjhubKfxHFRqeHL4b5q6X8"], "asm": "OP_HASH160 10d983adadb970c8ddd66a1e9a64ca14761d5f97 OP_EQUAL", "type": "scripthash"}, "value": 0.11976, "n": 1}], "hex": "01000000000101b3cc7ab6014a488206eb5f5deca58e47105e6120ab6e437fe5bd03e6ca764d530000000023220020aa7c062921507f2d35474eb86560edd5789377f3db51b4c5a79c9fa0f822ff83ffffffff02d86288000000000017a91499222a0820cafb77672f687188d9e08f768bd70f8740bdb6000000000017a91410d983adadb970c8ddd66a1e9a64ca14761d5f97870400483045022100973130932da05c435f26277f9ae1cf3e45a89f1f50ad475a50f7fe802abeedd902203f8bf8d1cd73529ee7e329844137d726f4deb50689ebf863bc525b6ca8e9a52e0147304402205cf9054daa0755cf9830a331abc4b21131fd7660062d919c1a23196b52b0d18f0220786d88858c3bdf0ab3fbf45897459b8638c8a5b6f9e7e316144705f04e5ebc770169522102c88d1dbd9af282de3c43b80adabe1d1367722e6e06d75f9c9b49acfcc55593692103c46c85a9917973beab1ec31f5d1be8f3708a1d22d572f01f23e9c8af21977f0c2102012affc9cbb94ffef3899064ef61c3e6834134b82582108ea55db8207166c16b53ae00000000", "vin": [{"txinwitness": ["", "3045022100973130932da05c435f26277f9ae1cf3e45a89f1f50ad475a50f7fe802abeedd902203f8bf8d1cd73529ee7e329844137d726f4deb50689ebf863bc525b6ca8e9a52e01", "304402205cf9054daa0755cf9830a331abc4b21131fd7660062d919c1a23196b52b0d18f0220786d88858c3bdf0ab3fbf45897459b8638c8a5b6f9e7e316144705f04e5ebc7701", "522102c88d1dbd9af282de3c43b80adabe1d1367722e6e06d75f9c9b49acfcc55593692103c46c85a9917973beab1ec31f5d1be8f3708a1d22d572f01f23e9c8af21977f0c2102012affc9cbb94ffef3899064ef61c3e6834134b82582108ea55db8207166c16b53ae"], "sequence": 4294967295, "scriptSig": {"hex": "220020aa7c062921507f2d35474eb86560edd5789377f3db51b4c5a79c9fa0f822ff83", "asm": "0020aa7c062921507f2d35474eb86560edd5789377f3db51b4c5a79c9fa0f822ff83"}, "vout": 0, "txid": "534d76cae603bde57f436eab20615e10478ea5ec5d5feb0682484a01b67accb3"}], "txid": "cbd48053284c8b57b737574d35bb1ecbc916791ee0f4d82e585972a63b573d25", "blocktime": 1537870928, "version": 1, "confirmations": 11514, "time": 1537870928, "locktime": 0, "vsize": 214, "size": 405}