{"hash": "cbd56bd5aa2df367e87eb99256d9668e054f96b649d7d9bdcf9f80eed8e15465", "blockhash": "00000000000000000018f53835495a110e01622372bf6ae95dc86f2b0ab887b0", "vout": [{"scriptPubKey": {"reqSigs": 1, "hex": "a914212ef0a2e55079e34f4df79ef26fc5ec779ad25887", "addresses": ["34iUTKbtir5gRihxu7FAxXRyiRd14tYvSF"], "asm": "OP_HASH160 212ef0a2e55079e34f4df79ef26fc5ec779ad258 OP_EQUAL", "type": "scripthash"}, "value": 0.0282251, "n": 0}, {"scriptPubKey": {"reqSigs": 1, "hex": "76a9144d5ffca72e924965a9cf5f538e7e7a3b7f8c294d88ac", "addresses": ["184824T6Rc4hyRcHZNsehPe4ZZHhWBLhmm"], "asm": "OP_DUP OP_HASH160 4d5ffca72e924965a9cf5f538e7e7a3b7f8c294d OP_EQUALVERIFY OP_CHECKSIG", "type": "pubkeyhash"}, "value": 0.81024806, "n": 1}], "hex": "0100000001e74c0bb1b6da185c8f34b0843ba492adc3a06c3bbec5e296cc45b30a4bbcc593010000006b483045022100dfe18c0e7e22be6963b9bc6895114ad5badfd84a970bf972e97149c70ab6045a02200cc2a074b6a9fd53dcc213e98a4c54e0b35e4176c7ed1f074ee9609074d0df43012102fbc9843298787d8b4b9beaf1a46402b4c008740f7fdddf1fcc36179357a9d29cffffffff026e112b000000000017a914212ef0a2e55079e34f4df79ef26fc5ec779ad258872657d404000000001976a9144d5ffca72e924965a9cf5f538e7e7a3b7f8c294d88ac00000000", "vin": [{"sequence": 4294967295, "scriptSig": {"hex": "483045022100dfe18c0e7e22be6963b9bc6895114ad5badfd84a970bf972e97149c70ab6045a02200cc2a074b6a9fd53dcc213e98a4c54e0b35e4176c7ed1f074ee9609074d0df43012102fbc9843298787d8b4b9beaf1a46402b4c008740f7fdddf1fcc36179357a9d29c", "asm": "3045022100dfe18c0e7e22be6963b9bc6895114ad5badfd84a970bf972e97149c70ab6045a02200cc2a074b6a9fd53dcc213e98a4c54e0b35e4176c7ed1f074ee9609074d0df43[ALL] 02fbc9843298787d8b4b9beaf1a46402b4c008740f7fdddf1fcc36179357a9d29c"}, "vout": 1, "txid": "93c5bc4b0ab345cc96e2c5be3b6ca0c3ad92a43b84b0348f5c18dab6b10b4ce7"}], "txid": "cbd56bd5aa2df367e87eb99256d9668e054f96b649d7d9bdcf9f80eed8e15465", "blocktime": 1537870928, "version": 1, "confirmations": 11512, "time": 1537870928, "locktime": 0, "vsize": 224, "size": 224}