{"hash": "e970cfa2fe8a209cddcb7d89b0fbc02004e2b6f21267d3538e5f7d7b39f8b5d4", "blockhash": "0000000000000000001e0dab787dd257d1dbfcb92a98c2207d5e1078be1f4165", "vout": [{"scriptPubKey": {"reqSigs": 1, "hex": "a9147a48e66041d641bdfe836e4a7f084698cf3e8a6d87", "addresses": ["3Cqbh7zUgsncwpZUUU5Wfw5gK687rrJ98e"], "asm": "OP_HASH160 7a48e66041d641bdfe836e4a7f084698cf3e8a6d OP_EQUAL", "type": "scripthash"}, "value": 0.00994717, "n": 0}, {"scriptPubKey": {"reqSigs": 1, "hex": "76a914e05c55c29ac820f5a7ea62d2bfd09529d9f1404b88ac", "addresses": ["1MTJyX4g53FYmRNuZbTk8ZK7FTF6xSLKHi"], "asm": "OP_DUP OP_HASH160 e05c55c29ac820f5a7ea62d2bfd09529d9f1404b OP_EQUALVERIFY OP_CHECKSIG", "type": "pubkeyhash"}, "value": 0.181623, "n": 1}], "hex": "0200000000010406d4deb1f2302cb6cd2f19e95220c8abe77cab0f68cfbe2f574f0b4140dea6dc0100000017160014fe5249fdaf2b7a94d2e82bd5b1cdcef61a7e20a8feffffff457635a22027de12235488d8528ea3bca78849e1203ef9027a62456990fa720700000000171600147ef3c171455586f57ab88193392b902978892922feffffffb05e490f8b50507bf36822c60879c49bbdaa3bf62c6fd6668f876e15eb284af3040000001716001452aa6c5bcb556f7ae433b03139c9905a303334a9feffffffe3111774435116f0db780d5fd39d920ee4216c303426b99dd15ca32de22e38b0000000001716001496ffcae9ab5542b39dbc58ec7bc0cac25b02640efeffffff029d2d0f000000000017a9147a48e66041d641bdfe836e4a7f084698cf3e8a6d877c221501000000001976a914e05c55c29ac820f5a7ea62d2bfd09529d9f1404b88ac02473044022070bf24a215f0f0805e86b530f1d73884dd29651efd1888f91fd73044a4ddb2180220569010df7752d823163d1818f86acec62bd8b9b4b787576768637712ffecad6b01210251d7a60dba0ca6d86c1519417b5b9c21db8d8cde98bfd754ed040584bdc5639602473044022041fdd6fb558c7a859138419a39a680230fb96d4b2c36e3c5489b635d03719fc202206bd2ff802f5703f7629f18f373e2da6f2db7e9498744dff25b090f749d7a71ed012102ea6d4f693867d0bea780bf4eaf46b78002e17e3bb53fbfbef7f0f4c062e2572b02483045022100c01b8e35f61b109370a0b7d7751342bce951c751ad7a4504530e81c62fea365102203cf470df14a2f063227f661a83b208e490da6b5f1520dcf8180ae5a2065737440121035414d4c765d75cb97c5f6a17503fc60276ba8db436a721847264789b7511748502473044022026a78d4eef316bad32218f9748d98e1fab2b470879ef83c78b4825df75a8583e02205fbd4c3a5f6bcb4df3da615a737707cbe8fbd769fcc4b01600fa23d052be8eac012103264b4cd7ad0798e052f871ce77f69b4fe0a01f91b6da0abab8cf1e866ec4332412490800", "vin": [{"txinwitness": ["3044022070bf24a215f0f0805e86b530f1d73884dd29651efd1888f91fd73044a4ddb2180220569010df7752d823163d1818f86acec62bd8b9b4b787576768637712ffecad6b01", "0251d7a60dba0ca6d86c1519417b5b9c21db8d8cde98bfd754ed040584bdc56396"], "sequence": 4294967294, "scriptSig": {"hex": "160014fe5249fdaf2b7a94d2e82bd5b1cdcef61a7e20a8", "asm": "0014fe5249fdaf2b7a94d2e82bd5b1cdcef61a7e20a8"}, "vout": 1, "txid": "dca6de40410b4f572fbecf680fab7ce7abc82052e9192fcdb62c30f2b1ded406"}, {"txinwitness": ["3044022041fdd6fb558c7a859138419a39a680230fb96d4b2c36e3c5489b635d03719fc202206bd2ff802f5703f7629f18f373e2da6f2db7e9498744dff25b090f749d7a71ed01", "02ea6d4f693867d0bea780bf4eaf46b78002e17e3bb53fbfbef7f0f4c062e2572b"], "sequence": 4294967294, "scriptSig": {"hex": "1600147ef3c171455586f57ab88193392b902978892922", "asm": "00147ef3c171455586f57ab88193392b902978892922"}, "vout": 0, "txid": "0772fa906945627a02f93e20e14988a7bca38e52d888542312de2720a2357645"}, {"txinwitness": ["3045022100c01b8e35f61b109370a0b7d7751342bce951c751ad7a4504530e81c62fea365102203cf470df14a2f063227f661a83b208e490da6b5f1520dcf8180ae5a20657374401", "035414d4c765d75cb97c5f6a17503fc60276ba8db436a721847264789b75117485"], "sequence": 4294967294, "scriptSig": {"hex": "16001452aa6c5bcb556f7ae433b03139c9905a303334a9", "asm": "001452aa6c5bcb556f7ae433b03139c9905a303334a9"}, "vout": 4, "txid": "f34a28eb156e878f66d66f2cf63baabd9bc47908c62268f37b50508b0f495eb0"}, {"txinwitness": ["3044022026a78d4eef316bad32218f9748d98e1fab2b470879ef83c78b4825df75a8583e02205fbd4c3a5f6bcb4df3da615a737707cbe8fbd769fcc4b01600fa23d052be8eac01", "03264b4cd7ad0798e052f871ce77f69b4fe0a01f91b6da0abab8cf1e866ec43324"], "sequence": 4294967294, "scriptSig": {"hex": "16001496ffcae9ab5542b39dbc58ec7bc0cac25b02640e", "asm": "001496ffcae9ab5542b39dbc58ec7bc0cac25b02640e"}, "vout": 0, "txid": "b0382ee22da35cd19db92634306c21e40e929dd35f0d78dbf0165143741711e3"}], "txid": "cbd7fd7fb116f4e7d70155ec64cf9a1db1e9401ee343010354081c330a275cac", "blocktime": 1537872475, "version": 2, "confirmations": 11486, "time": 1537872475, "locktime": 542994, "vsize": 440, "size": 763}