{"hash": "69fc0ffc8435882dfda31758323f50b6a42326bdde3b57b582ca7b92d9417b43", "blockhash": "0000000000000000001e0dab787dd257d1dbfcb92a98c2207d5e1078be1f4165", "vout": [{"scriptPubKey": {"reqSigs": 1, "hex": "a914b38723829a29364f0407e60e86a72b6ed340d9bd87", "addresses": ["3J4GmV1PTKWhAtJFw8AByFor75zGgg9BXk"], "asm": "OP_HASH160 b38723829a29364f0407e60e86a72b6ed340d9bd OP_EQUAL", "type": "scripthash"}, "value": 0.02750318, "n": 0}], "hex": "01000000000101bb36b9922b396d53d131ee1704d04205fbe10afa1ef45de3f96c513bbdd38ce60000000000ffffffff016ef729000000000017a914b38723829a29364f0407e60e86a72b6ed340d9bd8702483045022100a4d12c550ab5b7337ba24864dfbc28866377b71217f211d7108b37aa7bff17ef0220557bb3e270c8a28318fa1631d3dbf9af5c6f19d2b55caa4108d485a280cdd9c10121020588e402fa7b8ed6991ab1ff5f0db25292553e0d29abb5745f995c86f6d7f9a800000000", "vin": [{"txinwitness": ["3045022100a4d12c550ab5b7337ba24864dfbc28866377b71217f211d7108b37aa7bff17ef0220557bb3e270c8a28318fa1631d3dbf9af5c6f19d2b55caa4108d485a280cdd9c101", "020588e402fa7b8ed6991ab1ff5f0db25292553e0d29abb5745f995c86f6d7f9a8"], "sequence": 4294967295, "scriptSig": {"hex": "", "asm": ""}, "vout": 0, "txid": "e68cd3bd3b516cf9e35df41efa0ae1fb0542d00417ee31d1536d392b92b936bb"}], "txid": "cbde91db0e4713b37c060ca09bc64b40b33b190e1ee032c549cd36d66460ab35", "blocktime": 1537872475, "version": 1, "confirmations": 11487, "time": 1537872475, "locktime": 0, "vsize": 111, "size": 193}