{"hash": "82d851a04430a344d9ffa6eada5c52a8305a0214c23a273d676890f8ab4b06aa", "blockhash": "0000000000000000001e0dab787dd257d1dbfcb92a98c2207d5e1078be1f4165", "vout": [{"scriptPubKey": {"reqSigs": 1, "hex": "a914a547a8ed256ac0e13092ac1ddb04d37cf97f684f87", "addresses": ["3GkwGDB9NvdxuGsHGpoZc3eyB3ohKhWvHJ"], "asm": "OP_HASH160 a547a8ed256ac0e13092ac1ddb04d37cf97f684f OP_EQUAL", "type": "scripthash"}, "value": 0.0002371, "n": 0}, {"scriptPubKey": {"reqSigs": 1, "hex": "76a91412185a55202ecb95dafb2ef4c2f54fa0f71f919188ac", "addresses": ["12egLX8Larqc8hVt72vXhzvCqkuG5K6Cyo"], "asm": "OP_DUP OP_HASH160 12185a55202ecb95dafb2ef4c2f54fa0f71f9191 OP_EQUALVERIFY OP_CHECKSIG", "type": "pubkeyhash"}, "value": 0.001, "n": 1}], "hex": "020000000001028c2cd443fca7d59af5ccd67c35860c4f3407f02ff26c39a6b1873fcc42d7d69900000000171600144d2d0aa6ca052203a6bdc2793d5bbb6c827d1d8dfeffffff9330c250c5c680fe0ee70108ef3ddcd575edd9f84a389f66f8e72537bd263857000000006a473044022022bee89f9d125c6b661a44f45699701012648bc237fa449b98d4d43cb38d921502205f7c4b9615bd026fbfea00b4df3f3b26f119e7d103a40be6bb980d9a0013bb59012102fe455dbd0047b66d895fa5cca83b02800ada23fb5acecf618b6335e8d6fb3d34feffffff029e5c00000000000017a914a547a8ed256ac0e13092ac1ddb04d37cf97f684f87a0860100000000001976a91412185a55202ecb95dafb2ef4c2f54fa0f71f919188ac02483045022100feb3378852ab6402473a0ea8bfe0becfd32fd64891a321232e83e0d07064bdc702206516849e232f4aa71d1dde9a4ffd484e5199b5a9590fa4d8705ca730bba112fb0121027d7c89666835ca2d23e2e25aa97dcc10e24a98a5f6ccc896d37e85f511fe0be80000000000", "vin": [{"txinwitness": ["3045022100feb3378852ab6402473a0ea8bfe0becfd32fd64891a321232e83e0d07064bdc702206516849e232f4aa71d1dde9a4ffd484e5199b5a9590fa4d8705ca730bba112fb01", "027d7c89666835ca2d23e2e25aa97dcc10e24a98a5f6ccc896d37e85f511fe0be8"], "sequence": 4294967294, "scriptSig": {"hex": "1600144d2d0aa6ca052203a6bdc2793d5bbb6c827d1d8d", "asm": "00144d2d0aa6ca052203a6bdc2793d5bbb6c827d1d8d"}, "vout": 0, "txid": "99d6d742cc3f87b1a6396cf22ff007344f0c86357cd6ccf59ad5a7fc43d42c8c"}, {"sequence": 4294967294, "scriptSig": {"hex": "473044022022bee89f9d125c6b661a44f45699701012648bc237fa449b98d4d43cb38d921502205f7c4b9615bd026fbfea00b4df3f3b26f119e7d103a40be6bb980d9a0013bb59012102fe455dbd0047b66d895fa5cca83b02800ada23fb5acecf618b6335e8d6fb3d34", "asm": "3044022022bee89f9d125c6b661a44f45699701012648bc237fa449b98d4d43cb38d921502205f7c4b9615bd026fbfea00b4df3f3b26f119e7d103a40be6bb980d9a0013bb59[ALL] 02fe455dbd0047b66d895fa5cca83b02800ada23fb5acecf618b6335e8d6fb3d34"}, "vout": 0, "txid": "573826bd3725e7f8669f384af8d9ed75d5dc3def0801e70efe80c6c550c23093"}], "txid": "cbee0c85af51079a3109a2cd44ecb314eeaec4321f31895e319f65471df881d2", "blocktime": 1537872475, "version": 2, "confirmations": 11487, "time": 1537872475, "locktime": 0, "vsize": 315, "size": 398}