{"hash": "cbf14906212e984b3c5418c266e7dd866ffc4c092ee6aebd0a9555e156f823ed", "blockhash": "00000000000000000017f5eb5941039fbcee6240d03bc1f2f8e35350df66a1d8", "vout": [{"scriptPubKey": {"reqSigs": 1, "hex": "76a9145aef8c95aea94a1a0850fae1bfc5e8409ac2adc588ac", "addresses": ["19HpnS4ZtsumdbRyYFR3qXUjdtKuVcVy5V"], "asm": "OP_DUP OP_HASH160 5aef8c95aea94a1a0850fae1bfc5e8409ac2adc5 OP_EQUALVERIFY OP_CHECKSIG", "type": "pubkeyhash"}, "value": 3.5, "n": 0}, {"scriptPubKey": {"reqSigs": 1, "hex": "76a9146ef99f00e76f44071f18eb6bcbb169ab3fda24df88ac", "addresses": ["1B7nN5dyucoLqb8AttUPmYxnTppofxu2Aa"], "asm": "OP_DUP OP_HASH160 6ef99f00e76f44071f18eb6bcbb169ab3fda24df OP_EQUALVERIFY OP_CHECKSIG", "type": "pubkeyhash"}, "value": 4.31481434, "n": 1}], "hex": "01000000012e82660b2f6a68e4426847cb981fd095359dfeccf9b37adfb3c9002775522377010000006b483045022100ea98790851929aa9572507fe55b74bcc9ea74ff7051bc791dbd1bfa1e31af1b4022039a62fa1c5d7555b9c5f6b084831a2933d6bba0c74c64ce29990622775c4872b012102c2159ce0e0811dac6332825b718a6e510ef0839be4d39849182f2533c37f765dffffffff028093dc14000000001976a9145aef8c95aea94a1a0850fae1bfc5e8409ac2adc588ac5ae2b719000000001976a9146ef99f00e76f44071f18eb6bcbb169ab3fda24df88ac00000000", "vin": [{"sequence": 4294967295, "scriptSig": {"hex": "483045022100ea98790851929aa9572507fe55b74bcc9ea74ff7051bc791dbd1bfa1e31af1b4022039a62fa1c5d7555b9c5f6b084831a2933d6bba0c74c64ce29990622775c4872b012102c2159ce0e0811dac6332825b718a6e510ef0839be4d39849182f2533c37f765d", "asm": "3045022100ea98790851929aa9572507fe55b74bcc9ea74ff7051bc791dbd1bfa1e31af1b4022039a62fa1c5d7555b9c5f6b084831a2933d6bba0c74c64ce29990622775c4872b[ALL] 02c2159ce0e0811dac6332825b718a6e510ef0839be4d39849182f2533c37f765d"}, "vout": 1, "txid": "772352752700c9b3df7ab3f9ccfe9d3595d01f98cb476842e4686a2f0b66822e"}], "txid": "cbf14906212e984b3c5418c266e7dd866ffc4c092ee6aebd0a9555e156f823ed", "blocktime": 1537874412, "version": 1, "confirmations": 11468, "time": 1537874412, "locktime": 0, "vsize": 226, "size": 226}