{"hash": "cbf3b0e037d38294ba974c0d8a48e5cc5c070f118c4717c7504f24092da0397c", "blockhash": "0000000000000000001f76057863aec43deb6fa401d9628bb513d65a8098bfab", "vout": [{"scriptPubKey": {"reqSigs": 1, "hex": "76a914969772f23671568e30a31bd39132688173348daf88ac", "addresses": ["1EjFndtz6JfQjc1K5DNRNK3LUw5zoSevZN"], "asm": "OP_DUP OP_HASH160 969772f23671568e30a31bd39132688173348daf OP_EQUALVERIFY OP_CHECKSIG", "type": "pubkeyhash"}, "value": 0.00044004, "n": 0}, {"scriptPubKey": {"reqSigs": 1, "hex": "a9143bc9c67d84097030645be807f87ae1ab729ed2c887", "addresses": ["3799WTaSzbvfRb851BHqizsBKHAipr7uKW"], "asm": "OP_HASH160 3bc9c67d84097030645be807f87ae1ab729ed2c8 OP_EQUAL", "type": "scripthash"}, "value": 0.00312243, "n": 1}], "hex": "01000000016813eadd2568e38113e48384e5a52ff380e34256891f327832b3c4c4b13eacbd000000006a47304402207fe59cc5bb53bfa21fcc15c52db88ace26eb254d73104dd401f983b909a670d802200464436f53d0f917b7a05617eac71aa0e045ddf2cfec816fede6f72a8074cf41012103ae4c31fd16a54d3de02ee26840befd76bdbb93b610072fc3606f7ffd65ac8b3cffffffff02e4ab0000000000001976a914969772f23671568e30a31bd39132688173348daf88acb3c304000000000017a9143bc9c67d84097030645be807f87ae1ab729ed2c88700000000", "vin": [{"sequence": 4294967295, "scriptSig": {"hex": "47304402207fe59cc5bb53bfa21fcc15c52db88ace26eb254d73104dd401f983b909a670d802200464436f53d0f917b7a05617eac71aa0e045ddf2cfec816fede6f72a8074cf41012103ae4c31fd16a54d3de02ee26840befd76bdbb93b610072fc3606f7ffd65ac8b3c", "asm": "304402207fe59cc5bb53bfa21fcc15c52db88ace26eb254d73104dd401f983b909a670d802200464436f53d0f917b7a05617eac71aa0e045ddf2cfec816fede6f72a8074cf41[ALL] 03ae4c31fd16a54d3de02ee26840befd76bdbb93b610072fc3606f7ffd65ac8b3c"}, "vout": 0, "txid": "bdac3eb1c4c4b33278321f895642e380f32fa5e58483e41381e36825ddea1368"}], "txid": "cbf3b0e037d38294ba974c0d8a48e5cc5c070f118c4717c7504f24092da0397c", "blocktime": 1537873891, "version": 1, "confirmations": 11478, "time": 1537873891, "locktime": 0, "vsize": 223, "size": 223}