{"hash": "cbf738e059ff10944b94dbbd559e6c71a57ddf00417c3266ca2b739612fac123", "blockhash": "0000000000000000000e13cef7c366c0283d82e591d1acd082e914b08063cdf1", "vout": [{"scriptPubKey": {"reqSigs": 1, "hex": "76a9146752d5cae4ba7395ce893c737a9b5747a050a29188ac", "addresses": ["1ARKqFA3irNq83kemuZGYxNjPBckhnfPJy"], "asm": "OP_DUP OP_HASH160 6752d5cae4ba7395ce893c737a9b5747a050a291 OP_EQUALVERIFY OP_CHECKSIG", "type": "pubkeyhash"}, "value": 0.00582024, "n": 0}, {"scriptPubKey": {"reqSigs": 1, "hex": "76a91437238d7dbb9029cadf8f7edddcd0e90cc7bcb2be88ac", "addresses": ["162Yko9GJHWst1W4JyESG1j2EswDQV8niy"], "asm": "OP_DUP OP_HASH160 37238d7dbb9029cadf8f7edddcd0e90cc7bcb2be OP_EQUALVERIFY OP_CHECKSIG", "type": "pubkeyhash"}, "value": 0.00828635, "n": 1}], "hex": "0100000001688c9f582d5a96eb69253e53cb15297bc732c93816b89795417e0ac39dcb7e9c030000006b483045022100e395f6f25326bb8049db10740243a92a9400fd1e9f9855362d6ecddbd8f39e2b0220433c1ad5100c09eec071801a9092db863888675b02a763d394d3749acc73a0bb012103a57889ac77753abd238cf207ef6e5a1002ec28ad20be23a32421eb6f736af7faffffffff0288e10800000000001976a9146752d5cae4ba7395ce893c737a9b5747a050a29188acdba40c00000000001976a91437238d7dbb9029cadf8f7edddcd0e90cc7bcb2be88ac00000000", "vin": [{"sequence": 4294967295, "scriptSig": {"hex": "483045022100e395f6f25326bb8049db10740243a92a9400fd1e9f9855362d6ecddbd8f39e2b0220433c1ad5100c09eec071801a9092db863888675b02a763d394d3749acc73a0bb012103a57889ac77753abd238cf207ef6e5a1002ec28ad20be23a32421eb6f736af7fa", "asm": "3045022100e395f6f25326bb8049db10740243a92a9400fd1e9f9855362d6ecddbd8f39e2b0220433c1ad5100c09eec071801a9092db863888675b02a763d394d3749acc73a0bb[ALL] 03a57889ac77753abd238cf207ef6e5a1002ec28ad20be23a32421eb6f736af7fa"}, "vout": 3, "txid": "9c7ecb9dc30a7e419597b81638c932c77b2915cb533e2569eb965a2d589f8c68"}], "txid": "cbf738e059ff10944b94dbbd559e6c71a57ddf00417c3266ca2b739612fac123", "blocktime": 1537871767, "version": 1, "confirmations": 11495, "time": 1537871767, "locktime": 0, "vsize": 226, "size": 226}