{"hash": "cbfa9980ed00cc047f03318e480ea87297fc31168c9843b850b54716ca1b4ad5", "blockhash": "0000000000000000000baef3f32e3676a92c3b2e5da21b426e4f302fc371ce76", "vout": [{"scriptPubKey": {"reqSigs": 1, "hex": "a91469f3755f06a385e1d9c21cb9f9762a3174f91d5d87", "addresses": ["3BMEXUfVnb8eCBQtKbeVDokfXAQow3SzDd"], "asm": "OP_HASH160 69f3755f06a385e1d9c21cb9f9762a3174f91d5d OP_EQUAL", "type": "scripthash"}, "value": 0.11177981, "n": 0}, {"scriptPubKey": {"reqSigs": 1, "hex": "76a914bae025140c454518b8cba0c25d45a6dc87f4b9ce88ac", "addresses": ["1J37CY8hcdUXQ1KfBhMCsUVafa8XjDsdCn"], "asm": "OP_DUP OP_HASH160 bae025140c454518b8cba0c25d45a6dc87f4b9ce OP_EQUALVERIFY OP_CHECKSIG", "type": "pubkeyhash"}, "value": 0.03808218, "n": 1}], "hex": "0100000001cd881b1d056ff2a453f4e67f5096dbfcebff7beaacced9c2a97b473b02706089000000006a47304402201063ef96c6d052e6c7fcf173a76cced24ecf8398fae03ef0f592a168ce732c5202207b905eccdc1e06339b9b4bf2186dd94f08ad5086e64c73b455864e69ac6c2147012102050f2b025018ea87ecc16de7247c1fbdecb8c4d8476e85638622f9f4b30472b5ffffffff02fd8faa000000000017a91469f3755f06a385e1d9c21cb9f9762a3174f91d5d87da1b3a00000000001976a914bae025140c454518b8cba0c25d45a6dc87f4b9ce88ac00000000", "vin": [{"sequence": 4294967295, "scriptSig": {"hex": "47304402201063ef96c6d052e6c7fcf173a76cced24ecf8398fae03ef0f592a168ce732c5202207b905eccdc1e06339b9b4bf2186dd94f08ad5086e64c73b455864e69ac6c2147012102050f2b025018ea87ecc16de7247c1fbdecb8c4d8476e85638622f9f4b30472b5", "asm": "304402201063ef96c6d052e6c7fcf173a76cced24ecf8398fae03ef0f592a168ce732c5202207b905eccdc1e06339b9b4bf2186dd94f08ad5086e64c73b455864e69ac6c2147[ALL] 02050f2b025018ea87ecc16de7247c1fbdecb8c4d8476e85638622f9f4b30472b5"}, "vout": 0, "txid": "896070023b477ba9c2d9ceacea7bffebfcdb96507fe6f453a4f26f051d1b88cd"}], "txid": "cbfa9980ed00cc047f03318e480ea87297fc31168c9843b850b54716ca1b4ad5", "blocktime": 1537876114, "version": 1, "confirmations": 11459, "time": 1537876114, "locktime": 0, "vsize": 223, "size": 223}