{"hash": "cc0d065457df3aad8930693ec968ac1d13e390f32b50af7980d16978a4d4ba0a", "blockhash": "0000000000000000000dcc0f55137456b1a82d3642486a52398922ac4d620174", "vout": [{"scriptPubKey": {"reqSigs": 1, "hex": "76a91419ef8ea17fa14870059df70bfc206bfda4c0d21d88ac", "addresses": ["13N8sX58BJ29hNiNk7cLP7DW17zAE9YNmV"], "asm": "OP_DUP OP_HASH160 19ef8ea17fa14870059df70bfc206bfda4c0d21d OP_EQUALVERIFY OP_CHECKSIG", "type": "pubkeyhash"}, "value": 9.44e-05, "n": 0}, {"scriptPubKey": {"reqSigs": 1, "hex": "a9145a64214323732c19e7f30c006bfe282e2fa35cdd87", "addresses": ["39vxgxX7VXuKXDMVWBU4Ln4cm2Gho3JCEM"], "asm": "OP_HASH160 5a64214323732c19e7f30c006bfe282e2fa35cdd OP_EQUAL", "type": "scripthash"}, "value": 0.00124682, "n": 1}], "hex": "010000000207ceba81f5043c38f8d1d060bdbdbb9c0b5f3fe562ec1465aabeeeac4816fd58010000006b4830450221009c0582ef1625a8b5e09c99075a5723912ac8c021b9905948b996545d7c83981a02207c53f18a38a298e26cfdfe96ee8fa2528daa6145c393265cdb9da9e8f391e72b012103e7b71d563e5156eb532758bad693efd2e4bac2ce6c0c37b25b7ecfe62c0fbb1cffffffffe1828e23ea644d09548b315dcdef1602e3e91c6da72627fbca712989969ff18b000000006a47304402205460de0161be2d502bbd2e77864f0348628acda5a3b042dadb19d5fcfe6c520302206a7626b0dad2c7cf2bb02a2f38e3f165ebf5ddc716e5fbf14e1f4c176c8b6a6c0121023e61b95b1c9395f25501816a4d61e7b2a316dcd9881588558c86eaeda8dc1f29ffffffff02e0240000000000001976a91419ef8ea17fa14870059df70bfc206bfda4c0d21d88ac0ae701000000000017a9145a64214323732c19e7f30c006bfe282e2fa35cdd8700000000", "vin": [{"sequence": 4294967295, "scriptSig": {"hex": "4830450221009c0582ef1625a8b5e09c99075a5723912ac8c021b9905948b996545d7c83981a02207c53f18a38a298e26cfdfe96ee8fa2528daa6145c393265cdb9da9e8f391e72b012103e7b71d563e5156eb532758bad693efd2e4bac2ce6c0c37b25b7ecfe62c0fbb1c", "asm": "30450221009c0582ef1625a8b5e09c99075a5723912ac8c021b9905948b996545d7c83981a02207c53f18a38a298e26cfdfe96ee8fa2528daa6145c393265cdb9da9e8f391e72b[ALL] 03e7b71d563e5156eb532758bad693efd2e4bac2ce6c0c37b25b7ecfe62c0fbb1c"}, "vout": 1, "txid": "58fd1648aceebeaa6514ec62e53f5f0b9cbbbdbd60d0d1f8383c04f581bace07"}, {"sequence": 4294967295, "scriptSig": {"hex": "47304402205460de0161be2d502bbd2e77864f0348628acda5a3b042dadb19d5fcfe6c520302206a7626b0dad2c7cf2bb02a2f38e3f165ebf5ddc716e5fbf14e1f4c176c8b6a6c0121023e61b95b1c9395f25501816a4d61e7b2a316dcd9881588558c86eaeda8dc1f29", "asm": "304402205460de0161be2d502bbd2e77864f0348628acda5a3b042dadb19d5fcfe6c520302206a7626b0dad2c7cf2bb02a2f38e3f165ebf5ddc716e5fbf14e1f4c176c8b6a6c[ALL] 023e61b95b1c9395f25501816a4d61e7b2a316dcd9881588558c86eaeda8dc1f29"}, "vout": 0, "txid": "8bf19f96892971cafb2726a76d1ce9e30216efcd5d318b54094d64ea238e82e1"}], "txid": "cc0d065457df3aad8930693ec968ac1d13e390f32b50af7980d16978a4d4ba0a", "blocktime": 1537870268, "version": 1, "confirmations": 11516, "time": 1537870268, "locktime": 0, "vsize": 371, "size": 371}