{"hash": "cc0e7440d71874704c005e031fd2bf8a7bd91aa67518827e415d2edf731d068f", "blockhash": "0000000000000000001f76057863aec43deb6fa401d9628bb513d65a8098bfab", "vout": [{"scriptPubKey": {"reqSigs": 1, "hex": "76a9143b79b9bbe285ce0c0629713f23dfd4508ff2cf9088ac", "addresses": ["16RUgxRh16zkKD1xwpxEqws7hN8167Up1V"], "asm": "OP_DUP OP_HASH160 3b79b9bbe285ce0c0629713f23dfd4508ff2cf90 OP_EQUALVERIFY OP_CHECKSIG", "type": "pubkeyhash"}, "value": 0.0070227, "n": 0}, {"scriptPubKey": {"reqSigs": 1, "hex": "76a9146746ed5fc4211e9f894724c1bc83bdf23b4edcc688ac", "addresses": ["1AR5ZsSocBLaZkHXLe2ZNJbVKjVg1sHg2z"], "asm": "OP_DUP OP_HASH160 6746ed5fc4211e9f894724c1bc83bdf23b4edcc6 OP_EQUALVERIFY OP_CHECKSIG", "type": "pubkeyhash"}, "value": 0.03619221, "n": 1}], "hex": "0100000001f09f7af70e0a908f5e31abce5fd232583a31a70abfd594dea788bcfe2d47e4c3010000006b483045022100b5a02003a545da05c451d8de0b5123629f3bd5db45834486adc4a9ef81f38e07022027dbab8959c9fadf63f12559a2599b19560e2a087fed2f1f5224ca10371c448c012102649e4fdf879b436f15cd7381ccfad0ee4d842a0d5701f9df39701c6724c8c60effffffff023eb70a00000000001976a9143b79b9bbe285ce0c0629713f23dfd4508ff2cf9088ac95393700000000001976a9146746ed5fc4211e9f894724c1bc83bdf23b4edcc688ac00000000", "vin": [{"sequence": 4294967295, "scriptSig": {"hex": "483045022100b5a02003a545da05c451d8de0b5123629f3bd5db45834486adc4a9ef81f38e07022027dbab8959c9fadf63f12559a2599b19560e2a087fed2f1f5224ca10371c448c012102649e4fdf879b436f15cd7381ccfad0ee4d842a0d5701f9df39701c6724c8c60e", "asm": "3045022100b5a02003a545da05c451d8de0b5123629f3bd5db45834486adc4a9ef81f38e07022027dbab8959c9fadf63f12559a2599b19560e2a087fed2f1f5224ca10371c448c[ALL] 02649e4fdf879b436f15cd7381ccfad0ee4d842a0d5701f9df39701c6724c8c60e"}, "vout": 1, "txid": "c3e4472dfebc88a7de94d5bf0aa7313a5832d25fceab315e8f900a0ef77a9ff0"}], "txid": "cc0e7440d71874704c005e031fd2bf8a7bd91aa67518827e415d2edf731d068f", "blocktime": 1537873891, "version": 1, "confirmations": 11478, "time": 1537873891, "locktime": 0, "vsize": 226, "size": 226}