{"hash": "cc1ff11d2fea19c8e71a905d761f3ba9f8c17438b634108cf98c97d73529c6e3", "blockhash": "00000000000000000004ffacab907a6b429b9a5745fa0b75af4234bf69dd7176", "vout": [{"scriptPubKey": {"reqSigs": 1, "hex": "76a91401806e225d5255aac776bc13c26b5d4c9f1906a888ac", "addresses": ["18wXgQU6mUXKHNbEDbMhkvptyGdqBHivn"], "asm": "OP_DUP OP_HASH160 01806e225d5255aac776bc13c26b5d4c9f1906a8 OP_EQUALVERIFY OP_CHECKSIG", "type": "pubkeyhash"}, "value": 0.10490462, "n": 0}, {"scriptPubKey": {"reqSigs": 1, "hex": "76a91494e4f93019d20299f0f1b74e5481765005d0816b88ac", "addresses": ["1EaHJjybtd6BEmbGqysXQVaPXoj8dkUziL"], "asm": "OP_DUP OP_HASH160 94e4f93019d20299f0f1b74e5481765005d0816b OP_EQUALVERIFY OP_CHECKSIG", "type": "pubkeyhash"}, "value": 0.2, "n": 1}], "hex": "02000000011e732c2c8077ffa2b16fbec074d4dd637dfb5a30304b015397e278318d8c0be0010000006a4730440220501e2569f1a5c8c6e695d01b837d6ec13ebc10f419a87de4d2b584224ff97e3f0220633aa2574a74adb3b0fda9ca356feefbe3768b4cc6c49c5fbf3696b1e7cbe54d012102b1c0492d2adc83ca6c6c86db955dbc37a3bd2fecb024dff918f0d0ec51892a55feffffff025e12a000000000001976a91401806e225d5255aac776bc13c26b5d4c9f1906a888ac002d3101000000001976a91494e4f93019d20299f0f1b74e5481765005d0816b88ac16490800", "vin": [{"sequence": 4294967294, "scriptSig": {"hex": "4730440220501e2569f1a5c8c6e695d01b837d6ec13ebc10f419a87de4d2b584224ff97e3f0220633aa2574a74adb3b0fda9ca356feefbe3768b4cc6c49c5fbf3696b1e7cbe54d012102b1c0492d2adc83ca6c6c86db955dbc37a3bd2fecb024dff918f0d0ec51892a55", "asm": "30440220501e2569f1a5c8c6e695d01b837d6ec13ebc10f419a87de4d2b584224ff97e3f0220633aa2574a74adb3b0fda9ca356feefbe3768b4cc6c49c5fbf3696b1e7cbe54d[ALL] 02b1c0492d2adc83ca6c6c86db955dbc37a3bd2fecb024dff918f0d0ec51892a55"}, "vout": 1, "txid": "e00b8c8d3178e29753014b30305afb7d63ddd474c0be6fb1a2ff77802c2c731e"}], "txid": "cc1ff11d2fea19c8e71a905d761f3ba9f8c17438b634108cf98c97d73529c6e3", "blocktime": 1537875543, "version": 2, "confirmations": 11464, "time": 1537875543, "locktime": 542998, "vsize": 225, "size": 225}