{"hash": "d9957e26acf5c4e4973846fb42c5031c72bf27d85db5bbadb0f7487378b7593e", "blockhash": "0000000000000000001e0dab787dd257d1dbfcb92a98c2207d5e1078be1f4165", "vout": [{"scriptPubKey": {"reqSigs": 1, "hex": "0014c017669cb65487ccfb931a67a5a49553855fc7c0", "addresses": ["bc1qcqtkd89k2jrue7unrfn6tfy42wz4l37qcs0dxv"], "asm": "0 c017669cb65487ccfb931a67a5a49553855fc7c0", "type": "witness_v0_keyhash"}, "value": 3.288e-05, "n": 0}, {"scriptPubKey": {"reqSigs": 1, "hex": "a914d5640befd3fe0a9fdf175140765ba21bd2e7a58887", "addresses": ["3M9KhmLUwYwNxSBNcVtsJ9xLt1KUNnWdFZ"], "asm": "OP_HASH160 d5640befd3fe0a9fdf175140765ba21bd2e7a588 OP_EQUAL", "type": "scripthash"}, "value": 0.00045795, "n": 1}], "hex": "0100000000010166557b20d1882c1674684741763bcb35d255f38f707b5792cbee9d3c5fb150780100000000ffffffff02d80c000000000000160014c017669cb65487ccfb931a67a5a49553855fc7c0e3b200000000000017a914d5640befd3fe0a9fdf175140765ba21bd2e7a58887024730440220292e39a4ca8f0cf518f6241516f84cfb66383a2d8e19b2a0d4bb7512ba06b24702200e4e5f0eea98a0c4dc1cfce69cf080103ff2dbd2a9b6c1fc028558e0e9bf1c66012103282b5288bcd24ec846b2c782c6394067878c0d72a81271d7d88e8f1d77d7bfd100000000", "vin": [{"txinwitness": ["30440220292e39a4ca8f0cf518f6241516f84cfb66383a2d8e19b2a0d4bb7512ba06b24702200e4e5f0eea98a0c4dc1cfce69cf080103ff2dbd2a9b6c1fc028558e0e9bf1c6601", "03282b5288bcd24ec846b2c782c6394067878c0d72a81271d7d88e8f1d77d7bfd1"], "sequence": 4294967295, "scriptSig": {"hex": "", "asm": ""}, "vout": 1, "txid": "7850b15f3c9deecb92577b708ff355d235cb3b7641476874162c88d1207b5566"}], "txid": "cc2323d1452dcc796735e4562feaa5b05de119268260c80693bacb2cc2574828", "blocktime": 1537872475, "version": 1, "confirmations": 11486, "time": 1537872475, "locktime": 0, "vsize": 142, "size": 223}