{"hash": "cc244e3a54c7859696029be2dd987bd4d5947407c44e7f823cf578586407dc26", "blockhash": "00000000000000000018f53835495a110e01622372bf6ae95dc86f2b0ab887b0", "vout": [{"scriptPubKey": {"reqSigs": 1, "hex": "76a91474be7e1828b5594c24bd47fa1de047fb1c7fd3fc88ac", "addresses": ["1BeHauchvCr478kW8KKpoCfDpuHHdf1rzT"], "asm": "OP_DUP OP_HASH160 74be7e1828b5594c24bd47fa1de047fb1c7fd3fc OP_EQUALVERIFY OP_CHECKSIG", "type": "pubkeyhash"}, "value": 0.01801869, "n": 0}], "hex": "01000000012ed1ab0acca5161f8b8461b358e847a45212fdec6897cdf8f81d48ba9de2682c030000006a4730440220264c8632766fb9d2e7dd2b4c7eb2ee31354ad72b7e5fc96e38010d77786679f10220176f719ffcab391b054a256951f2c8cdbdc202bab41195ae97d638d1ed6ebb6d0121033b53f34aaef4aa26e03085281e32b8ee8f3e57226936f5e173eac3860e9ef28dfeffffff018d7e1b00000000001976a91474be7e1828b5594c24bd47fa1de047fb1c7fd3fc88ac0e490800", "vin": [{"sequence": 4294967294, "scriptSig": {"hex": "4730440220264c8632766fb9d2e7dd2b4c7eb2ee31354ad72b7e5fc96e38010d77786679f10220176f719ffcab391b054a256951f2c8cdbdc202bab41195ae97d638d1ed6ebb6d0121033b53f34aaef4aa26e03085281e32b8ee8f3e57226936f5e173eac3860e9ef28d", "asm": "30440220264c8632766fb9d2e7dd2b4c7eb2ee31354ad72b7e5fc96e38010d77786679f10220176f719ffcab391b054a256951f2c8cdbdc202bab41195ae97d638d1ed6ebb6d[ALL] 033b53f34aaef4aa26e03085281e32b8ee8f3e57226936f5e173eac3860e9ef28d"}, "vout": 3, "txid": "2c68e29dba481df8f8cd9768ecfd1252a447e858b361848b1f16a5cc0aabd12e"}], "txid": "cc244e3a54c7859696029be2dd987bd4d5947407c44e7f823cf578586407dc26", "blocktime": 1537870928, "version": 1, "confirmations": 11514, "time": 1537870928, "locktime": 542990, "vsize": 191, "size": 191}