{"hash": "cc273d2f832c13485a5c01a1c1fed9b8e17271c8059f35237561f7049abb565f", "blockhash": "0000000000000000000baef3f32e3676a92c3b2e5da21b426e4f302fc371ce76", "vout": [{"scriptPubKey": {"reqSigs": 1, "hex": "76a91402596c289a7764c33acec494717b270f1a56381188ac", "addresses": ["1DRUZv6TsJ4y45Pmk8LJ9Up3C7btaH7Wn"], "asm": "OP_DUP OP_HASH160 02596c289a7764c33acec494717b270f1a563811 OP_EQUALVERIFY OP_CHECKSIG", "type": "pubkeyhash"}, "value": 0.0016018, "n": 0}, {"scriptPubKey": {"reqSigs": 1, "hex": "76a9140387272f4598578cecf6153e716ad6f2de97d79b88ac", "addresses": ["1KewB9yCxgSXf6NRArg4uumV79HqY9b8c"], "asm": "OP_DUP OP_HASH160 0387272f4598578cecf6153e716ad6f2de97d79b OP_EQUALVERIFY OP_CHECKSIG", "type": "pubkeyhash"}, "value": 0.06671944, "n": 1}], "hex": "01000000010ffeecb1b372a2246762ffd7ad121e34cb05a829fdc4f7afa6f18ed89f98a2de010000006b483045022100e438726143e3d8387b7e661c4c2b052c99f97247b75c9ee400d2e4d9e86c624302207020ead96cbfbf0d2e9b01cd206944b4e6005007d03cf9798156c066f184a079012103a0abe066cedba63f4914e5653c799d80dbd84deb8ec548b535da9cf850c3762affffffff02b4710200000000001976a91402596c289a7764c33acec494717b270f1a56381188ac48ce6500000000001976a9140387272f4598578cecf6153e716ad6f2de97d79b88ac00000000", "vin": [{"sequence": 4294967295, "scriptSig": {"hex": "483045022100e438726143e3d8387b7e661c4c2b052c99f97247b75c9ee400d2e4d9e86c624302207020ead96cbfbf0d2e9b01cd206944b4e6005007d03cf9798156c066f184a079012103a0abe066cedba63f4914e5653c799d80dbd84deb8ec548b535da9cf850c3762a", "asm": "3045022100e438726143e3d8387b7e661c4c2b052c99f97247b75c9ee400d2e4d9e86c624302207020ead96cbfbf0d2e9b01cd206944b4e6005007d03cf9798156c066f184a079[ALL] 03a0abe066cedba63f4914e5653c799d80dbd84deb8ec548b535da9cf850c3762a"}, "vout": 1, "txid": "dea2989fd88ef1a6aff7c4fd29a805cb341e12add7ff626724a272b3b1ecfe0f"}], "txid": "cc273d2f832c13485a5c01a1c1fed9b8e17271c8059f35237561f7049abb565f", "blocktime": 1537876114, "version": 1, "confirmations": 11460, "time": 1537876114, "locktime": 0, "vsize": 226, "size": 226}