{"hash": "8f7dbeee1fecc3ff62bd9c6e49d4d421f814b5c867a3447d78188f0e3fdbc7d0", "blockhash": "0000000000000000001e0dab787dd257d1dbfcb92a98c2207d5e1078be1f4165", "vout": [{"scriptPubKey": {"reqSigs": 1, "hex": "76a9144d621791ac142996382031fad0ec34f49058ab7a88ac", "addresses": ["184AYKyjXNEki3DhzjnzLkAQUcK7fhRp3F"], "asm": "OP_DUP OP_HASH160 4d621791ac142996382031fad0ec34f49058ab7a OP_EQUALVERIFY OP_CHECKSIG", "type": "pubkeyhash"}, "value": 0.234, "n": 0}, {"scriptPubKey": {"reqSigs": 1, "hex": "a9141988a27e3c2df4ddee7fad5a2303d086179b2a3087", "addresses": ["3422VtS7UtCvXYxoXMVp6eZupR252z85oC"], "asm": "OP_HASH160 1988a27e3c2df4ddee7fad5a2303d086179b2a30 OP_EQUAL", "type": "scripthash"}, "value": 0.27050894, "n": 1}, {"scriptPubKey": {"reqSigs": 1, "hex": "76a9144c244f4a9645589b9c660e807524b2295f97d31388ac", "addresses": ["17wbrRZgqaLgHKjXBriiduJDGsNzD8ahpW"], "asm": "OP_DUP OP_HASH160 4c244f4a9645589b9c660e807524b2295f97d313 OP_EQUALVERIFY OP_CHECKSIG", "type": "pubkeyhash"}, "value": 0.0154777, "n": 2}], "hex": "01000000000102b62058553936f5b29e549d211f5e0a28def9ef9cf725c27bbd6bf7c414fdbca2010000002322002065d416c48a8072e0ac51c2d111eb194f009caef0332446c1bf2097316cf07fa9ffffffffa1fc5f407b762a4984275f88e6d6b0dd9fc5eb6fe65e8e7a239a60a83ca22b6a000000002322002065d416c48a8072e0ac51c2d111eb194f009caef0332446c1bf2097316cf07fa9ffffffff03400e6501000000001976a9144d621791ac142996382031fad0ec34f49058ab7a88ac8ec39c010000000017a9141988a27e3c2df4ddee7fad5a2303d086179b2a3087fa9d1700000000001976a9144c244f4a9645589b9c660e807524b2295f97d31388ac04004830450221009d12c818dec045fce105a1f840c0c960e2b3edd91b52d064710bddeef11fdefa02202efcf934819b906fb90a35633bce98c143c7b9a381ecf1be8dd754a607d964b001483045022100aace0132d0df4fad8495b9a328ecc913818cdbac6495d3547363f30a1278ac3c02206ed9bed1ae57a6a15b43fdc3aeddfbc4e29586ee569baba9880877576336cbec0169522102f44abcf9e23c9a460da309ccca56c619c04eed3bde2c2cff5e7d78fbcd980b9c2103c9443cf3047bb6c2c82f1b0c44c36109cdc3d0d601d16d1189a1602bf8d1a0a02103bfe867059274412412e088af5572b92168c2ef495cfe6c9b7a753a009eb37c4853ae040047304402205b755907747e8e01614f8d186d85d27c9f5d5aad371c0184c34f0edcba451d2902207e8a03460dc05af1d2c8041e422c5b44035ea79c758144f22d1da0e9e39846f601483045022100f6d079f5f892bcb92aa602950fa2446ef3aeafcb323b30bdefeffc42c5cc76f202203e626b696ccac9378cec599e96b6d08bb66f71c88b7da6f10e8312f2a228f2150169522102f44abcf9e23c9a460da309ccca56c619c04eed3bde2c2cff5e7d78fbcd980b9c2103c9443cf3047bb6c2c82f1b0c44c36109cdc3d0d601d16d1189a1602bf8d1a0a02103bfe867059274412412e088af5572b92168c2ef495cfe6c9b7a753a009eb37c4853ae00000000", "vin": [{"txinwitness": ["", "30450221009d12c818dec045fce105a1f840c0c960e2b3edd91b52d064710bddeef11fdefa02202efcf934819b906fb90a35633bce98c143c7b9a381ecf1be8dd754a607d964b001", "3045022100aace0132d0df4fad8495b9a328ecc913818cdbac6495d3547363f30a1278ac3c02206ed9bed1ae57a6a15b43fdc3aeddfbc4e29586ee569baba9880877576336cbec01", "522102f44abcf9e23c9a460da309ccca56c619c04eed3bde2c2cff5e7d78fbcd980b9c2103c9443cf3047bb6c2c82f1b0c44c36109cdc3d0d601d16d1189a1602bf8d1a0a02103bfe867059274412412e088af5572b92168c2ef495cfe6c9b7a753a009eb37c4853ae"], "sequence": 4294967295, "scriptSig": {"hex": "22002065d416c48a8072e0ac51c2d111eb194f009caef0332446c1bf2097316cf07fa9", "asm": "002065d416c48a8072e0ac51c2d111eb194f009caef0332446c1bf2097316cf07fa9"}, "vout": 1, "txid": "a2bcfd14c4f76bbd7bc225f79ceff9de280a5e1f219d549eb2f53639555820b6"}, {"txinwitness": ["", "304402205b755907747e8e01614f8d186d85d27c9f5d5aad371c0184c34f0edcba451d2902207e8a03460dc05af1d2c8041e422c5b44035ea79c758144f22d1da0e9e39846f601", "3045022100f6d079f5f892bcb92aa602950fa2446ef3aeafcb323b30bdefeffc42c5cc76f202203e626b696ccac9378cec599e96b6d08bb66f71c88b7da6f10e8312f2a228f21501", "522102f44abcf9e23c9a460da309ccca56c619c04eed3bde2c2cff5e7d78fbcd980b9c2103c9443cf3047bb6c2c82f1b0c44c36109cdc3d0d601d16d1189a1602bf8d1a0a02103bfe867059274412412e088af5572b92168c2ef495cfe6c9b7a753a009eb37c4853ae"], "sequence": 4294967295, "scriptSig": {"hex": "22002065d416c48a8072e0ac51c2d111eb194f009caef0332446c1bf2097316cf07fa9", "asm": "002065d416c48a8072e0ac51c2d111eb194f009caef0332446c1bf2097316cf07fa9"}, "vout": 0, "txid": "6a2ba23ca8609a237a8e5ee66febc59fddb0d6e6885f2784492a767b405ffca1"}], "txid": "cc28f873aab167be6a70dc53bf87fa71cac764b148db0c203c48d374a353c177", "blocktime": 1537872475, "version": 1, "confirmations": 11486, "time": 1537872475, "locktime": 0, "vsize": 390, "size": 771}