{"hash": "704fe6a0ae4cfd07abcafef11c506a95bfb74ce4021d212bcb31097d0312b5c8", "blockhash": "00000000000000000018f53835495a110e01622372bf6ae95dc86f2b0ab887b0", "vout": [{"scriptPubKey": {"reqSigs": 1, "hex": "76a914e84b62d15499a4d9a4c5ad5014bb2271e897943c88ac", "addresses": ["1NBG5R9BSVM6nkEYPjRB2wXEJmuypDMtkJ"], "asm": "OP_DUP OP_HASH160 e84b62d15499a4d9a4c5ad5014bb2271e897943c OP_EQUALVERIFY OP_CHECKSIG", "type": "pubkeyhash"}, "value": 0.00745643, "n": 0}, {"scriptPubKey": {"reqSigs": 1, "hex": "00144f7f57e1025225c1f6d0c9393c613f1daedfda89", "addresses": ["bc1qfal40cgz2gjurakseyunccflrkhdlk5fwtxv03"], "asm": "0 4f7f57e1025225c1f6d0c9393c613f1daedfda89", "type": "witness_v0_keyhash"}, "value": 0.00034871, "n": 1}], "hex": "0100000000010167394c9fb3569456a72472707b2b2fe7c54bbd0c795b98065c2befcb65bd3baa01000000171600149203c94b91418a1c3bab2c499eda242be9e7729affffffff02ab600b00000000001976a914e84b62d15499a4d9a4c5ad5014bb2271e897943c88ac37880000000000001600144f7f57e1025225c1f6d0c9393c613f1daedfda8902483045022100a7efd4a5c87f57d91905a1e0470d1b4c4e8ecb84d09f33882492f99be7bdd74f0220365cba71e1ea2021ac0d56fdcfa6f335abfa93006f72e51241171bcdf41e30830121033a859c626ec5806c30b1ed28198fa53e2a02a631379cd0a4cf0446611ba1f09800000000", "vin": [{"txinwitness": ["3045022100a7efd4a5c87f57d91905a1e0470d1b4c4e8ecb84d09f33882492f99be7bdd74f0220365cba71e1ea2021ac0d56fdcfa6f335abfa93006f72e51241171bcdf41e308301", "033a859c626ec5806c30b1ed28198fa53e2a02a631379cd0a4cf0446611ba1f098"], "sequence": 4294967295, "scriptSig": {"hex": "1600149203c94b91418a1c3bab2c499eda242be9e7729a", "asm": "00149203c94b91418a1c3bab2c499eda242be9e7729a"}, "vout": 1, "txid": "aa3bbd65cbef2b5c06985b790cbd4bc5e72f2b7b707224a7569456b39f4c3967"}], "txid": "cc287a3a12e5fa5ba356978e1654a152d48b388a50092bcf779692487c0cd38c", "blocktime": 1537870928, "version": 1, "confirmations": 11514, "time": 1537870928, "locktime": 0, "vsize": 167, "size": 249}