{"hash": "cc2d79bf4fbabf778dea938427ec0971db8f5a444f5f79990cd51f703ced1238", "blockhash": "0000000000000000001e0dab787dd257d1dbfcb92a98c2207d5e1078be1f4165", "vout": [{"scriptPubKey": {"reqSigs": 1, "hex": "a914b36d6e087c45ce1fad6a47a9370283524f09aaac87", "addresses": ["3J3jyCTbWgkKDpTw2X8oZfkdFx9fYVrrqv"], "asm": "OP_HASH160 b36d6e087c45ce1fad6a47a9370283524f09aaac OP_EQUAL", "type": "scripthash"}, "value": 0.008707, "n": 0}], "hex": "010000000165ca16ae53b7effac439e7e66884a48e936922cadfab44727ba32cd06a7d90d7010000006b483045022100ea46670631cb6cb0cc913b96f829efbe33ac9773d9f68612222a45a41c6d72f702205c7ae1f276e1510c56acfe9627ab48647f87693e9e23c9d8be4476422d6cb077012102acb12d5579e6464540e3c1148599b8987b32dfbc6cfaa8770f4e5159d50cc2f5ffffffff012c490d000000000017a914b36d6e087c45ce1fad6a47a9370283524f09aaac8700000000", "vin": [{"sequence": 4294967295, "scriptSig": {"hex": "483045022100ea46670631cb6cb0cc913b96f829efbe33ac9773d9f68612222a45a41c6d72f702205c7ae1f276e1510c56acfe9627ab48647f87693e9e23c9d8be4476422d6cb077012102acb12d5579e6464540e3c1148599b8987b32dfbc6cfaa8770f4e5159d50cc2f5", "asm": "3045022100ea46670631cb6cb0cc913b96f829efbe33ac9773d9f68612222a45a41c6d72f702205c7ae1f276e1510c56acfe9627ab48647f87693e9e23c9d8be4476422d6cb077[ALL] 02acb12d5579e6464540e3c1148599b8987b32dfbc6cfaa8770f4e5159d50cc2f5"}, "vout": 1, "txid": "d7907d6ad02ca37b7244abdfca2269938ea48468e6e739c4faefb753ae16ca65"}], "txid": "cc2d79bf4fbabf778dea938427ec0971db8f5a444f5f79990cd51f703ced1238", "blocktime": 1537872475, "version": 1, "confirmations": 11486, "time": 1537872475, "locktime": 0, "vsize": 190, "size": 190}