{"hash": "b489e0eb760a761ca1e24d033d27382f236f9933f6c46192a3058ed68d8204ba", "blockhash": "0000000000000000001f76057863aec43deb6fa401d9628bb513d65a8098bfab", "vout": [{"scriptPubKey": {"reqSigs": 1, "hex": "76a9141a875f5e8a6be4c7bc961170d0257dd1c91afb8888ac", "addresses": ["13RGjqWMDPfx5VC5JTz1bFogbzyEwqfkmM"], "asm": "OP_DUP OP_HASH160 1a875f5e8a6be4c7bc961170d0257dd1c91afb88 OP_EQUALVERIFY OP_CHECKSIG", "type": "pubkeyhash"}, "value": 0.0163, "n": 0}, {"scriptPubKey": {"reqSigs": 1, "hex": "a91432b3c184fd358fe9ea9b71761b8129e99464f08187", "addresses": ["36K73oA87kcGVRYr5ju6AnRVDZVMUXQHT3"], "asm": "OP_HASH160 32b3c184fd358fe9ea9b71761b8129e99464f081 OP_EQUAL", "type": "scripthash"}, "value": 0.01017029, "n": 1}], "hex": "0200000000010411b70b4212daaaf933d5aae2b6b556bfe58643489bb0f253821a3e430040374c010000001716001432f81a7d664b8c841a85ca6eacabad596b5418c3feffffff1e3c18135b76b1aa99ca1a3a799f4c6624f6e8ca0595449c5bc3bdf1158164350000000017160014dfffbd19411f9e5992c0b456c2831d162b428cfffeffffffad9f8a03f4bf6ee240977149aaaac61344118448ceaaed326a8091e6487d882602000000171600148cf357a77959e3d299b076be75096f1bd88eca0afefffffff5ee41b7c8d576011a0f3195668d791469f0e98a5e80da1fbd28e62c75eb53590300000017160014c5a5ca8500776e3ae0e632a17b7a38544b211d60feffffff0230df1800000000001976a9141a875f5e8a6be4c7bc961170d0257dd1c91afb8888acc5840f000000000017a91432b3c184fd358fe9ea9b71761b8129e99464f0818702483045022100e37e8262180cfbe0f53cb2402345392c3b7610305a3b381de9431ffef02904c4022015cdc2f34dd7bd82e4dd77a74e63495025902f744a7eef6cffc0b4ca264222cd012102e4c26d2dad4cc185594ad6fd013ec10dfb7d1fd4c63af8a61ea2b949a3b52e55024830450221008775861addf04dd510a629e2ad396fbb05f34dca9fe96c76a73ccf8b22b84fd402201da3ad040ebe45988e26e75d1dda55f2c7541673f561e25cdd92e189f72b8f9f0121025eba473d952381359b1c7990e015499d02321fa98d4fe3f6b9fb1e7816ac5eeb02483045022100a4d5778172ddffad41388e71a21b8339dec4ee3a81974c4405fd1d542badb97c0220120c2b8cc7bb7fb28ea2d68d8eb8f85ec41bbf3614cd7e01191edd98cf977708012103e3975a014eb22e1e9282bb6377b4efebdeebb270ddbbc927f0a6f0b0cd51bbbc024730440220446a48f5fbd25a76337732d697debbfe1cf2a22b1d53b1585acd4335e0a3aa29022069febf83e8ffcda6b570606d6ac2ca27d12e60040e317886fb9ca2a3b2e25c5801210317f8a825564666e62d55d2c49c2ea2151bf6335b9f2dc12db19dab94cd32739914490800", "vin": [{"txinwitness": ["3045022100e37e8262180cfbe0f53cb2402345392c3b7610305a3b381de9431ffef02904c4022015cdc2f34dd7bd82e4dd77a74e63495025902f744a7eef6cffc0b4ca264222cd01", "02e4c26d2dad4cc185594ad6fd013ec10dfb7d1fd4c63af8a61ea2b949a3b52e55"], "sequence": 4294967294, "scriptSig": {"hex": "16001432f81a7d664b8c841a85ca6eacabad596b5418c3", "asm": "001432f81a7d664b8c841a85ca6eacabad596b5418c3"}, "vout": 1, "txid": "4c374000433e1a8253f2b09b484386e5bf56b5b6e2aad533f9aada12420bb711"}, {"txinwitness": ["30450221008775861addf04dd510a629e2ad396fbb05f34dca9fe96c76a73ccf8b22b84fd402201da3ad040ebe45988e26e75d1dda55f2c7541673f561e25cdd92e189f72b8f9f01", "025eba473d952381359b1c7990e015499d02321fa98d4fe3f6b9fb1e7816ac5eeb"], "sequence": 4294967294, "scriptSig": {"hex": "160014dfffbd19411f9e5992c0b456c2831d162b428cff", "asm": "0014dfffbd19411f9e5992c0b456c2831d162b428cff"}, "vout": 0, "txid": "35648115f1bdc35b9c449505cae8f624664c9f793a1aca99aab1765b13183c1e"}, {"txinwitness": ["3045022100a4d5778172ddffad41388e71a21b8339dec4ee3a81974c4405fd1d542badb97c0220120c2b8cc7bb7fb28ea2d68d8eb8f85ec41bbf3614cd7e01191edd98cf97770801", "03e3975a014eb22e1e9282bb6377b4efebdeebb270ddbbc927f0a6f0b0cd51bbbc"], "sequence": 4294967294, "scriptSig": {"hex": "1600148cf357a77959e3d299b076be75096f1bd88eca0a", "asm": "00148cf357a77959e3d299b076be75096f1bd88eca0a"}, "vout": 2, "txid": "26887d48e691806a32edaace4884114413c6aaaa49719740e26ebff4038a9fad"}, {"txinwitness": ["30440220446a48f5fbd25a76337732d697debbfe1cf2a22b1d53b1585acd4335e0a3aa29022069febf83e8ffcda6b570606d6ac2ca27d12e60040e317886fb9ca2a3b2e25c5801", "0317f8a825564666e62d55d2c49c2ea2151bf6335b9f2dc12db19dab94cd327399"], "sequence": 4294967294, "scriptSig": {"hex": "160014c5a5ca8500776e3ae0e632a17b7a38544b211d60", "asm": "0014c5a5ca8500776e3ae0e632a17b7a38544b211d60"}, "vout": 3, "txid": "5953eb752ce628bd1fda805e8ae9f06914798d6695310f1a0176d5c8b741eef5"}], "txid": "cc3107c8cedc451bffd01e299fdbf8f0a44f048a9f07a146973b77f30b5e71af", "blocktime": 1537873891, "version": 2, "confirmations": 11475, "time": 1537873891, "locktime": 542996, "vsize": 441, "size": 765}