{"hash": "cc32c6c82074cede9d5ec8ecba779ceb3a96e913ab66c4bb54a72e128152991b", "blockhash": "00000000000000000017f5eb5941039fbcee6240d03bc1f2f8e35350df66a1d8", "vout": [{"scriptPubKey": {"reqSigs": 1, "hex": "a9146395498c02a6a99f80cbbcb2433dcae33673ebf187", "addresses": ["3AmZfCRzt9aHgqEnbg5i2FfcAHJutTbtRB"], "asm": "OP_HASH160 6395498c02a6a99f80cbbcb2433dcae33673ebf1 OP_EQUAL", "type": "scripthash"}, "value": 0.00039062, "n": 0}, {"scriptPubKey": {"reqSigs": 1, "hex": "76a914eb0c7fcb36bf53b086859c31f3ee30e48517742188ac", "addresses": ["1NRpmYHaY4fdaPVrjLWRLHbdGwyfdv1zrL"], "asm": "OP_DUP OP_HASH160 eb0c7fcb36bf53b086859c31f3ee30e485177421 OP_EQUALVERIFY OP_CHECKSIG", "type": "pubkeyhash"}, "value": 0.01554619, "n": 1}], "hex": "0100000001567eace8249d0ddf6a8fc316d50596f5268762c1eafe867ca318ebd853702690010000006b483045022100d5e5a306ef6bd6911e316660121cbe79f548162168776997aef111e18364caa3022017a13afcb56beae08e5f1053894be8ed382bfcdb269e326db14d12d805394292012102b8afb6770cfab76df11be7a48abfa9318763bb475d78d6f8bb9db0b149bea0f9ffffffff02969800000000000017a9146395498c02a6a99f80cbbcb2433dcae33673ebf187bbb81700000000001976a914eb0c7fcb36bf53b086859c31f3ee30e48517742188ac00000000", "vin": [{"sequence": 4294967295, "scriptSig": {"hex": "483045022100d5e5a306ef6bd6911e316660121cbe79f548162168776997aef111e18364caa3022017a13afcb56beae08e5f1053894be8ed382bfcdb269e326db14d12d805394292012102b8afb6770cfab76df11be7a48abfa9318763bb475d78d6f8bb9db0b149bea0f9", "asm": "3045022100d5e5a306ef6bd6911e316660121cbe79f548162168776997aef111e18364caa3022017a13afcb56beae08e5f1053894be8ed382bfcdb269e326db14d12d805394292[ALL] 02b8afb6770cfab76df11be7a48abfa9318763bb475d78d6f8bb9db0b149bea0f9"}, "vout": 1, "txid": "90267053d8eb18a37c86feeac1628726f59605d516c38f6adf0d9d24e8ac7e56"}], "txid": "cc32c6c82074cede9d5ec8ecba779ceb3a96e913ab66c4bb54a72e128152991b", "blocktime": 1537874412, "version": 1, "confirmations": 11468, "time": 1537874412, "locktime": 0, "vsize": 224, "size": 224}