{"hash": "cc35cec0ac4b0b0e85d96e5b1ad2e81018c990c36e16fa55ddf5e6ec2b8e5588", "blockhash": "00000000000000000017f5eb5941039fbcee6240d03bc1f2f8e35350df66a1d8", "vout": [{"scriptPubKey": {"reqSigs": 1, "hex": "76a91496f72e35f5e0aab2c26a7d75192207749681b26088ac", "addresses": ["1EmEUBJGKEF1MrTZBbVS14BkWoRNnhaMzi"], "asm": "OP_DUP OP_HASH160 96f72e35f5e0aab2c26a7d75192207749681b260 OP_EQUALVERIFY OP_CHECKSIG", "type": "pubkeyhash"}, "value": 0.31252, "n": 0}, {"scriptPubKey": {"reqSigs": 1, "hex": "76a9147b18d650c77a225e1842df0e0b22f101041d13d388ac", "addresses": ["1CDssK6Un4UZd5Jjt8kDGTgCfJFm9oCmzu"], "asm": "OP_DUP OP_HASH160 7b18d650c77a225e1842df0e0b22f101041d13d3 OP_EQUALVERIFY OP_CHECKSIG", "type": "pubkeyhash"}, "value": 0.36275966, "n": 1}], "hex": "01000000010a0933a2d80a0e2727a0274b8af32fecc1f84db08c7708d6a1427794450a89d6010000006b483045022100d888827beda3ba027923e88596467d800be711b2bb210a7cb58929c38f87600502200c2f586a2573fe5de273aed0d787f4c21e978d1dbf2acafc9197e3651c8ebdd5012102079f169a9118244f474b2c4f19293b87df3387bc20f3572664e965a5635eb906ffffffff0220dedc01000000001976a91496f72e35f5e0aab2c26a7d75192207749681b26088acfe862902000000001976a9147b18d650c77a225e1842df0e0b22f101041d13d388ac00000000", "vin": [{"sequence": 4294967295, "scriptSig": {"hex": "483045022100d888827beda3ba027923e88596467d800be711b2bb210a7cb58929c38f87600502200c2f586a2573fe5de273aed0d787f4c21e978d1dbf2acafc9197e3651c8ebdd5012102079f169a9118244f474b2c4f19293b87df3387bc20f3572664e965a5635eb906", "asm": "3045022100d888827beda3ba027923e88596467d800be711b2bb210a7cb58929c38f87600502200c2f586a2573fe5de273aed0d787f4c21e978d1dbf2acafc9197e3651c8ebdd5[ALL] 02079f169a9118244f474b2c4f19293b87df3387bc20f3572664e965a5635eb906"}, "vout": 1, "txid": "d6890a45947742a1d608778cb04df8c1ec2ff38a4b27a027270e0ad8a233090a"}], "txid": "cc35cec0ac4b0b0e85d96e5b1ad2e81018c990c36e16fa55ddf5e6ec2b8e5588", "blocktime": 1537874412, "version": 1, "confirmations": 11468, "time": 1537874412, "locktime": 0, "vsize": 226, "size": 226}