{"hash": "cc3645442ec8dbfaab3ed9fca57cfcde667d989a66a23aa8f8a1227fe7dec427", "blockhash": "00000000000000000018f53835495a110e01622372bf6ae95dc86f2b0ab887b0", "vout": [{"scriptPubKey": {"reqSigs": 1, "hex": "76a914072e8a369ad463e51dd1d7c7952820a4346a221088ac", "addresses": ["1eyUzWFya3FgkYteam1vbba4Cnw7nB5nf"], "asm": "OP_DUP OP_HASH160 072e8a369ad463e51dd1d7c7952820a4346a2210 OP_EQUALVERIFY OP_CHECKSIG", "type": "pubkeyhash"}, "value": 0.00063705, "n": 0}, {"scriptPubKey": {"reqSigs": 1, "hex": "76a914a6658117b7604bea698d9b58076770609909b06288ac", "addresses": ["1GApmV5K8DooXuzWZXheVcpqkNztnVKQLY"], "asm": "OP_DUP OP_HASH160 a6658117b7604bea698d9b58076770609909b062 OP_EQUALVERIFY OP_CHECKSIG", "type": "pubkeyhash"}, "value": 0.56, "n": 1}], "hex": "0100000001461f5e670c6bd37042371898110d538dcea10019d0df26685dd8316bd9609472000000006a4730440220325c2427de4f139cd2631501eaac5aa101bc4bd5daea05b2030f53a61677766302201be49f6ea00b5adfd139dcc21fc8ed274e1701b5c6a5793acf7a00969d672666012102ce9ce6494a2c142afd98fba3474459d9ebd29f3314ce59b3e705554cba7d92beffffffff02d9f80000000000001976a914072e8a369ad463e51dd1d7c7952820a4346a221088ac007e5603000000001976a914a6658117b7604bea698d9b58076770609909b06288ac00000000", "vin": [{"sequence": 4294967295, "scriptSig": {"hex": "4730440220325c2427de4f139cd2631501eaac5aa101bc4bd5daea05b2030f53a61677766302201be49f6ea00b5adfd139dcc21fc8ed274e1701b5c6a5793acf7a00969d672666012102ce9ce6494a2c142afd98fba3474459d9ebd29f3314ce59b3e705554cba7d92be", "asm": "30440220325c2427de4f139cd2631501eaac5aa101bc4bd5daea05b2030f53a61677766302201be49f6ea00b5adfd139dcc21fc8ed274e1701b5c6a5793acf7a00969d672666[ALL] 02ce9ce6494a2c142afd98fba3474459d9ebd29f3314ce59b3e705554cba7d92be"}, "vout": 0, "txid": "729460d96b31d85d6826dfd01900a1ce8d530d119818374270d36b0c675e1f46"}], "txid": "cc3645442ec8dbfaab3ed9fca57cfcde667d989a66a23aa8f8a1227fe7dec427", "blocktime": 1537870928, "version": 1, "confirmations": 11514, "time": 1537870928, "locktime": 0, "vsize": 225, "size": 225}