{"hash": "cc3ff64238fe1fcbba63e8f3e6dbe86fc61032c0a4c81986ee3d0fef96b95ace", "blockhash": "00000000000000000004ffacab907a6b429b9a5745fa0b75af4234bf69dd7176", "vout": [{"scriptPubKey": {"reqSigs": 1, "hex": "76a9149add7d5f55fe7f334bef64de023007c092a3489d88ac", "addresses": ["1F7rPvGwpjSFsv8BoWGUxhfMoRd2imH2th"], "asm": "OP_DUP OP_HASH160 9add7d5f55fe7f334bef64de023007c092a3489d OP_EQUALVERIFY OP_CHECKSIG", "type": "pubkeyhash"}, "value": 0.01375771, "n": 0}, {"scriptPubKey": {"reqSigs": 1, "hex": "76a914e7a6e50a9d42645fcc9fcd947d43bd777536595f88ac", "addresses": ["1N7s2Mr2xVTvsi4gpMgugagNxKEniqWbth"], "asm": "OP_DUP OP_HASH160 e7a6e50a9d42645fcc9fcd947d43bd777536595f OP_EQUALVERIFY OP_CHECKSIG", "type": "pubkeyhash"}, "value": 0.00051884, "n": 1}], "hex": "010000000167f8fe7e0253a0c096813b7adfb442271c9a34695c0a56c83c9888b081cbe888010000008b483045022100d5ba427088819434f603c8dadc3057b00b23b84aa0925ed4c8fd1fd91625c25d022007546dfb7a530b437f9f0724312c1178e7ef6d78ecb80a36ea2c6cb90e3fcf5a014104930abd829cd1f75df25686edb40e56afe50748c637909bba4cb1c7cad0e462bca3e324c98e8db03d478bc44bccbf01087f577c7cef71fb72daef44adefae963affffffff021bfe1400000000001976a9149add7d5f55fe7f334bef64de023007c092a3489d88acacca0000000000001976a914e7a6e50a9d42645fcc9fcd947d43bd777536595f88ac00000000", "vin": [{"sequence": 4294967295, "scriptSig": {"hex": "483045022100d5ba427088819434f603c8dadc3057b00b23b84aa0925ed4c8fd1fd91625c25d022007546dfb7a530b437f9f0724312c1178e7ef6d78ecb80a36ea2c6cb90e3fcf5a014104930abd829cd1f75df25686edb40e56afe50748c637909bba4cb1c7cad0e462bca3e324c98e8db03d478bc44bccbf01087f577c7cef71fb72daef44adefae963a", "asm": "3045022100d5ba427088819434f603c8dadc3057b00b23b84aa0925ed4c8fd1fd91625c25d022007546dfb7a530b437f9f0724312c1178e7ef6d78ecb80a36ea2c6cb90e3fcf5a[ALL] 04930abd829cd1f75df25686edb40e56afe50748c637909bba4cb1c7cad0e462bca3e324c98e8db03d478bc44bccbf01087f577c7cef71fb72daef44adefae963a"}, "vout": 1, "txid": "88e8cb81b088983cc8560a5c69349a1c2742b4df7a3b8196c0a053027efef867"}], "txid": "cc3ff64238fe1fcbba63e8f3e6dbe86fc61032c0a4c81986ee3d0fef96b95ace", "blocktime": 1537875543, "version": 1, "confirmations": 11464, "time": 1537875543, "locktime": 0, "vsize": 258, "size": 258}