{"hash": "cc407871c1dae3bcd5b6ea467ac7d9563516b9189af53746c4b09344bdc0a5f4", "blockhash": "0000000000000000001e0dab787dd257d1dbfcb92a98c2207d5e1078be1f4165", "vout": [{"scriptPubKey": {"reqSigs": 1, "hex": "76a91458706f31ded70575c652b2c1446df825ccbe5cad88ac", "addresses": ["194d9xWLeqPyJfcqAbTiio6kzb8T4bKLAn"], "asm": "OP_DUP OP_HASH160 58706f31ded70575c652b2c1446df825ccbe5cad OP_EQUALVERIFY OP_CHECKSIG", "type": "pubkeyhash"}, "value": 2.468e-05, "n": 0}, {"scriptPubKey": {"reqSigs": 1, "hex": "76a914d1124cf39e3a0ebec4fb2d2964122b141c9a43fc88ac", "addresses": ["1L4U9e7yPAe8ZBdxofguuwCrq1JeKdotT9"], "asm": "OP_DUP OP_HASH160 d1124cf39e3a0ebec4fb2d2964122b141c9a43fc OP_EQUALVERIFY OP_CHECKSIG", "type": "pubkeyhash"}, "value": 0.00124947, "n": 1}], "hex": "010000000337f3b4d40a54a6220dbbd1f8604649573ec61510ee2f24b817448d38c2e052c5000000006a47304402204960e866ad95c04814b81b4fe344acea10d104f818c0c7a28e7d5063b6843c1c022075d2d03dd91131ec60792ff50d7533755423562e62dfaa10371a0de387a5e49c0121035e5b477244e165e7a30f7d2dd6a38834a14a461504dae8a7a4aabec0fee2bd09ffffffffa7d2ca449b7f14f72daa4d07c547b6815cfd6b6668a47d3d2ab884f810d4d9d8000000006b483045022100b0b8fa97002875bf9dcc344359df53f399d712db3d117d102cc808c15635c36f022011313e2d402ff9a36947f4dd3821884b23ec7ec09056204011812c1651c5976d012103a060bab0cb45ef8e09da69e766ce8ee123346be597b73f54e908d223aa7afc53ffffffff78a33c26c3826749ff0a6408d772c9f4bc0a7a6f30450ac6be4527352e270bdb000000006b483045022100df766095af40529efa75f626f61ee1db726afcc6b9925ce5fb0a8d2c4792eb72022017371b8f2172a29f94ee1f7853e5f30a84082eee5e5f2637e922038dc927f07b01210391dd82420736d92b155849defffa48cc58797090aa13d4f755f3b69d504ef09bffffffff02a4090000000000001976a91458706f31ded70575c652b2c1446df825ccbe5cad88ac13e80100000000001976a914d1124cf39e3a0ebec4fb2d2964122b141c9a43fc88ac00000000", "vin": [{"sequence": 4294967295, "scriptSig": {"hex": "47304402204960e866ad95c04814b81b4fe344acea10d104f818c0c7a28e7d5063b6843c1c022075d2d03dd91131ec60792ff50d7533755423562e62dfaa10371a0de387a5e49c0121035e5b477244e165e7a30f7d2dd6a38834a14a461504dae8a7a4aabec0fee2bd09", "asm": "304402204960e866ad95c04814b81b4fe344acea10d104f818c0c7a28e7d5063b6843c1c022075d2d03dd91131ec60792ff50d7533755423562e62dfaa10371a0de387a5e49c[ALL] 035e5b477244e165e7a30f7d2dd6a38834a14a461504dae8a7a4aabec0fee2bd09"}, "vout": 0, "txid": "c552e0c2388d4417b8242fee1015c63e57494660f8d1bb0d22a6540ad4b4f337"}, {"sequence": 4294967295, "scriptSig": {"hex": "483045022100b0b8fa97002875bf9dcc344359df53f399d712db3d117d102cc808c15635c36f022011313e2d402ff9a36947f4dd3821884b23ec7ec09056204011812c1651c5976d012103a060bab0cb45ef8e09da69e766ce8ee123346be597b73f54e908d223aa7afc53", "asm": "3045022100b0b8fa97002875bf9dcc344359df53f399d712db3d117d102cc808c15635c36f022011313e2d402ff9a36947f4dd3821884b23ec7ec09056204011812c1651c5976d[ALL] 03a060bab0cb45ef8e09da69e766ce8ee123346be597b73f54e908d223aa7afc53"}, "vout": 0, "txid": "d8d9d410f884b82a3d7da468666bfd5c81b647c5074daa2df7147f9b44cad2a7"}, {"sequence": 4294967295, "scriptSig": {"hex": "483045022100df766095af40529efa75f626f61ee1db726afcc6b9925ce5fb0a8d2c4792eb72022017371b8f2172a29f94ee1f7853e5f30a84082eee5e5f2637e922038dc927f07b01210391dd82420736d92b155849defffa48cc58797090aa13d4f755f3b69d504ef09b", "asm": "3045022100df766095af40529efa75f626f61ee1db726afcc6b9925ce5fb0a8d2c4792eb72022017371b8f2172a29f94ee1f7853e5f30a84082eee5e5f2637e922038dc927f07b[ALL] 0391dd82420736d92b155849defffa48cc58797090aa13d4f755f3b69d504ef09b"}, "vout": 0, "txid": "db0b272e352745bec60a45306f7a0abcf4c972d708640aff496782c3263ca378"}], "txid": "cc407871c1dae3bcd5b6ea467ac7d9563516b9189af53746c4b09344bdc0a5f4", "blocktime": 1537872475, "version": 1, "confirmations": 11487, "time": 1537872475, "locktime": 0, "vsize": 521, "size": 521}