{"hash": "55b05e2a9b249568b8943bd5ab6373d5554a2274defda21fb96adf8343127d59", "blockhash": "0000000000000000000baef3f32e3676a92c3b2e5da21b426e4f302fc371ce76", "vout": [{"scriptPubKey": {"reqSigs": 1, "hex": "a9143e2c3b156c73047d3398400de5b24cea81950c1987", "addresses": ["37MkoeU5oUqTN5RH9BeG84fNiTr5mUHgvK"], "asm": "OP_HASH160 3e2c3b156c73047d3398400de5b24cea81950c19 OP_EQUAL", "type": "scripthash"}, "value": 0.01081641, "n": 0}, {"scriptPubKey": {"reqSigs": 1, "hex": "76a914f1c7c1a50e5a3abcc51916bc449a690df7d8254988ac", "addresses": ["1P3R9Yx3wxbt38AVdvY7aq6iNvozVzj2uf"], "asm": "OP_DUP OP_HASH160 f1c7c1a50e5a3abcc51916bc449a690df7d82549 OP_EQUALVERIFY OP_CHECKSIG", "type": "pubkeyhash"}, "value": 0.0078906, "n": 1}], "hex": "020000000001022f4d3f22800164d19aa2b8fb0824d182d8bb4824498b5711f76671c73753f74d01000000171600145510b62905b260b29b323fbe3884234855d72475feffffffecbe23b25b2bce24211e937744a868a2136cb170f458262b45576fd27e7c3c090000000017160014b9d72305bc482d04cc939da5c3ad05d706f419a0feffffff02298110000000000017a9143e2c3b156c73047d3398400de5b24cea81950c1987440a0c00000000001976a914f1c7c1a50e5a3abcc51916bc449a690df7d8254988ac02483045022100aebeba9ab420b683f923fb55c084488761bda9ef41004ad49037dd1202b2e3a302206883ba85c754bb36ba05812330d0622e81cc5915a9c9dcef4887d5a66f9892d80121035f2aab2b754ccf2639e4b85b4e0b23b889b1c41fd0a1e851118779b58f05ed6702483045022100a60e0cb0eb99cf70f8f621782312a28d7dda767924484ce876f455815e43d830022067642ea89ce991a22e68fcf1853ef72bf3bbd125f94736e6fdc7f49f04934f1a012103e0de0322a6c5cda5a0dd88dee663ddfda519cb59f12f7ff3ce6d6f60599352f717490800", "vin": [{"txinwitness": ["3045022100aebeba9ab420b683f923fb55c084488761bda9ef41004ad49037dd1202b2e3a302206883ba85c754bb36ba05812330d0622e81cc5915a9c9dcef4887d5a66f9892d801", "035f2aab2b754ccf2639e4b85b4e0b23b889b1c41fd0a1e851118779b58f05ed67"], "sequence": 4294967294, "scriptSig": {"hex": "1600145510b62905b260b29b323fbe3884234855d72475", "asm": "00145510b62905b260b29b323fbe3884234855d72475"}, "vout": 1, "txid": "4df75337c77166f711578b492448bbd882d12408fbb8a29ad1640180223f4d2f"}, {"txinwitness": ["3045022100a60e0cb0eb99cf70f8f621782312a28d7dda767924484ce876f455815e43d830022067642ea89ce991a22e68fcf1853ef72bf3bbd125f94736e6fdc7f49f04934f1a01", "03e0de0322a6c5cda5a0dd88dee663ddfda519cb59f12f7ff3ce6d6f60599352f7"], "sequence": 4294967294, "scriptSig": {"hex": "160014b9d72305bc482d04cc939da5c3ad05d706f419a0", "asm": "0014b9d72305bc482d04cc939da5c3ad05d706f419a0"}, "vout": 0, "txid": "093c7c7ed26f57452b2658f470b16c13a268a84477931e2124ce2b5bb223beec"}], "txid": "cc499eb93c60bd552de96facc8316bd784a4c97c41c0a1b455b9e28703b00ed3", "blocktime": 1537876114, "version": 2, "confirmations": 11462, "time": 1537876114, "locktime": 542999, "vsize": 259, "size": 422}