{"hash": "bd9729a57e04ab0c39e6512893765e3265e25dd006bd5a6c55fa218c4b429698", "blockhash": "0000000000000000001f76057863aec43deb6fa401d9628bb513d65a8098bfab", "vout": [{"scriptPubKey": {"reqSigs": 1, "hex": "76a914f945797e904d02bc3e7b09c3b5f17fa336e525ca88ac", "addresses": ["1Pj2Uwo6a7PR9orKuWsYE14Qrd66ffbY7H"], "asm": "OP_DUP OP_HASH160 f945797e904d02bc3e7b09c3b5f17fa336e525ca OP_EQUALVERIFY OP_CHECKSIG", "type": "pubkeyhash"}, "value": 0.00754004, "n": 0}, {"scriptPubKey": {"reqSigs": 1, "hex": "a914e204b2b4be235998a37c6b25d71f6353552c150387", "addresses": ["3NJ6GKoqQ5WwrhWctpic9jQctmRC5xGUJH"], "asm": "OP_HASH160 e204b2b4be235998a37c6b25d71f6353552c1503 OP_EQUAL", "type": "scripthash"}, "value": 0.00344279, "n": 1}, {"scriptPubKey": {"reqSigs": 1, "hex": "76a914f6e8de05521deba0ce068ecc4d0ef15b42d7c71788ac", "addresses": ["1PWYC6KhLrE98ST1y7oAP7akajrt1u9Gzg"], "asm": "OP_DUP OP_HASH160 f6e8de05521deba0ce068ecc4d0ef15b42d7c717 OP_EQUALVERIFY OP_CHECKSIG", "type": "pubkeyhash"}, "value": 0.01718369, "n": 2}], "hex": "020000000001016554e1d8ee809fcfbdd9d749b6964f058e66d95692b97ee867f32daad56bd5cb0000000017160014c73adb405c2157e95c6e4c647fd9b9255ef2fb41feffffff0354810b00000000001976a914f945797e904d02bc3e7b09c3b5f17fa336e525ca88acd74005000000000017a914e204b2b4be235998a37c6b25d71f6353552c15038761381a00000000001976a914f6e8de05521deba0ce068ecc4d0ef15b42d7c71788ac02483045022100de6402fa79f76c1ee9398caae5e9d264d06f574951e893537a0a78f65847806f02201bc24fae6eb943c54eddc7c91b1566fdf99749f2e857bdbb712a122580dcf3ac01210254feaaa2a46b9592b42ad05f440ec2119eb7a14616b220ef264fd85dedf40ed514490800", "vin": [{"txinwitness": ["3045022100de6402fa79f76c1ee9398caae5e9d264d06f574951e893537a0a78f65847806f02201bc24fae6eb943c54eddc7c91b1566fdf99749f2e857bdbb712a122580dcf3ac01", "0254feaaa2a46b9592b42ad05f440ec2119eb7a14616b220ef264fd85dedf40ed5"], "sequence": 4294967294, "scriptSig": {"hex": "160014c73adb405c2157e95c6e4c647fd9b9255ef2fb41", "asm": "0014c73adb405c2157e95c6e4c647fd9b9255ef2fb41"}, "vout": 0, "txid": "cbd56bd5aa2df367e87eb99256d9668e054f96b649d7d9bdcf9f80eed8e15465"}], "txid": "cc50fb8fa1119858c930dd9f032c4388bf664f84aa8b2595b6e38f2481f9226b", "blocktime": 1537873891, "version": 2, "confirmations": 11474, "time": 1537873891, "locktime": 542996, "vsize": 202, "size": 284}