{"hash": "0df809ac5534c8e4173c00fd46bf5296212e6e3528a8e56ce69148be9c40118a", "blockhash": "0000000000000000001e0dab787dd257d1dbfcb92a98c2207d5e1078be1f4165", "vout": [{"scriptPubKey": {"reqSigs": 1, "hex": "a91412a5e666ef2639091539acece5e8c7d4c5319ff887", "addresses": ["33PcpvyJuq4wDSK6ykExHQKDWiTJ6ckpeR"], "asm": "OP_HASH160 12a5e666ef2639091539acece5e8c7d4c5319ff8 OP_EQUAL", "type": "scripthash"}, "value": 0.01002779, "n": 0}, {"scriptPubKey": {"reqSigs": 1, "hex": "a914baa9bf25a275922b777becb9da1842b1966abc3d87", "addresses": ["3JhzxRrzgVFg95PJVCNa6eNnGzQUDpousp"], "asm": "OP_HASH160 baa9bf25a275922b777becb9da1842b1966abc3d OP_EQUAL", "type": "scripthash"}, "value": 0.017434, "n": 1}], "hex": "0200000000010221fdf8f52b4416e5c2fb9a735139853d82767eba25dcec76a5fcf6a79e0140c80000000017160014b7a99b3b2232a97c327ddd74ffe14dc2470c9308fdffffff970a6411db9afcdff653ce1eea3131dca3df0e99168620d020fcfca6035b867d03000000171600144c630dbb92abef4b25d1fd9a9a9f9851dbbb94cafdffffff021b4d0f000000000017a91412a5e666ef2639091539acece5e8c7d4c5319ff887289a1a000000000017a914baa9bf25a275922b777becb9da1842b1966abc3d87024730440220742b53b60408b0d965473bf931bcfa6f26a39a8096a11bb3e8c9dfe072ded720022033b34aeed56afad0d3d3c361fd3cf0404afa5f24c43f12f16e6fedb71a5d8a87012103745856f20211e64bba162e92ff2d474b47919776ca325c92bc8d0eecf16a893d024730440220024cf2d3785fc3beb7e99228d3b375a72d0e80b621f63e5d35e5112e42c09cc8022041d1d6cad2969ea39feeb475f0b303bc6e4e0324f8092cfc5eea8d40e286777401210384a6e2ad0c57f93ffacdbfcaaa2f93974c3fd5e93a69023e9f831c30e93cd69c00000000", "vin": [{"txinwitness": ["30440220742b53b60408b0d965473bf931bcfa6f26a39a8096a11bb3e8c9dfe072ded720022033b34aeed56afad0d3d3c361fd3cf0404afa5f24c43f12f16e6fedb71a5d8a8701", "03745856f20211e64bba162e92ff2d474b47919776ca325c92bc8d0eecf16a893d"], "sequence": 4294967293, "scriptSig": {"hex": "160014b7a99b3b2232a97c327ddd74ffe14dc2470c9308", "asm": "0014b7a99b3b2232a97c327ddd74ffe14dc2470c9308"}, "vout": 0, "txid": "c840019ea7f6fca576ecdc25ba7e76823d853951739afbc2e516442bf5f8fd21"}, {"txinwitness": ["30440220024cf2d3785fc3beb7e99228d3b375a72d0e80b621f63e5d35e5112e42c09cc8022041d1d6cad2969ea39feeb475f0b303bc6e4e0324f8092cfc5eea8d40e286777401", "0384a6e2ad0c57f93ffacdbfcaaa2f93974c3fd5e93a69023e9f831c30e93cd69c"], "sequence": 4294967293, "scriptSig": {"hex": "1600144c630dbb92abef4b25d1fd9a9a9f9851dbbb94ca", "asm": "00144c630dbb92abef4b25d1fd9a9a9f9851dbbb94ca"}, "vout": 3, "txid": "7d865b03a6fcfc20d0208616990edfa3dc3131ea1ece53f6dffc9adb11640a97"}], "txid": "cc512e59e87317402cd5924ddc33d21b08593610f47fd5b127da809775143f40", "blocktime": 1537872475, "version": 2, "confirmations": 11486, "time": 1537872475, "locktime": 0, "vsize": 256, "size": 418}