{"hash": "cc53566bb5f7e8c3a3c959650e82ee813ca3b200c3382c1dd873dc43ff90c759", "blockhash": "00000000000000000004ffacab907a6b429b9a5745fa0b75af4234bf69dd7176", "vout": [{"scriptPubKey": {"reqSigs": 1, "hex": "76a9145579708b64011fccc075e3d4fe93be6d5d7c391788ac", "addresses": ["18nwv5a3gnNajdbbXfUMqCF4LCHpFs8Jk8"], "asm": "OP_DUP OP_HASH160 5579708b64011fccc075e3d4fe93be6d5d7c3917 OP_EQUALVERIFY OP_CHECKSIG", "type": "pubkeyhash"}, "value": 0.00574, "n": 0}, {"scriptPubKey": {"reqSigs": 1, "hex": "76a914b7d67d55cf4991b7a544b53d8c3536521ea3a23f88ac", "addresses": ["1Hm3c6yTP42p5M4bBFoJo94y6LFGzu8PZE"], "asm": "OP_DUP OP_HASH160 b7d67d55cf4991b7a544b53d8c3536521ea3a23f OP_EQUALVERIFY OP_CHECKSIG", "type": "pubkeyhash"}, "value": 0.01088105, "n": 1}], "hex": "01000000021c29d04f8d5a30a6a1d6f06058e6aa84010eb496b3f84346a48aa3db226c0fab000000006b4830450221009c7ab321cbde15b571c3ad6e7aeb0db1728e7422eaef62069afa35779c85453b022070a46be5afcfed07914a91cebf2c87a16ab2f178f2a628c9f44b22a4182ba19301210339b8cf63df84c24e28027188a96e3b910479a231122d79e74ac8b4452a0fa12affffffffbc5c77a09597754340bbaf595392f8f64adaa65d14d0362514707cfab241bf02010000006b483045022100c2a06e2a4f592ad8357203d2966f776b7a9e6b32d535f48a493219e96b096c3f02203febfbdbe31c2d183c2a1b48cfef83c45c413be9e0bb18aea5e05a2ea798f7250121025f697acae5306089a3355e9a7f1f4bdb8039fbe6e2d55abbe1d4cea173c17a8affffffff0230c20800000000001976a9145579708b64011fccc075e3d4fe93be6d5d7c391788ac699a1000000000001976a914b7d67d55cf4991b7a544b53d8c3536521ea3a23f88ac00000000", "vin": [{"sequence": 4294967295, "scriptSig": {"hex": "4830450221009c7ab321cbde15b571c3ad6e7aeb0db1728e7422eaef62069afa35779c85453b022070a46be5afcfed07914a91cebf2c87a16ab2f178f2a628c9f44b22a4182ba19301210339b8cf63df84c24e28027188a96e3b910479a231122d79e74ac8b4452a0fa12a", "asm": "30450221009c7ab321cbde15b571c3ad6e7aeb0db1728e7422eaef62069afa35779c85453b022070a46be5afcfed07914a91cebf2c87a16ab2f178f2a628c9f44b22a4182ba193[ALL] 0339b8cf63df84c24e28027188a96e3b910479a231122d79e74ac8b4452a0fa12a"}, "vout": 0, "txid": "ab0f6c22dba38aa44643f8b396b40e0184aae65860f0d6a1a6305a8d4fd0291c"}, {"sequence": 4294967295, "scriptSig": {"hex": "483045022100c2a06e2a4f592ad8357203d2966f776b7a9e6b32d535f48a493219e96b096c3f02203febfbdbe31c2d183c2a1b48cfef83c45c413be9e0bb18aea5e05a2ea798f7250121025f697acae5306089a3355e9a7f1f4bdb8039fbe6e2d55abbe1d4cea173c17a8a", "asm": "3045022100c2a06e2a4f592ad8357203d2966f776b7a9e6b32d535f48a493219e96b096c3f02203febfbdbe31c2d183c2a1b48cfef83c45c413be9e0bb18aea5e05a2ea798f725[ALL] 025f697acae5306089a3355e9a7f1f4bdb8039fbe6e2d55abbe1d4cea173c17a8a"}, "vout": 1, "txid": "02bf41b2fa7c70142536d0145da6da4af6f8925359afbb4043759795a0775cbc"}], "txid": "cc53566bb5f7e8c3a3c959650e82ee813ca3b200c3382c1dd873dc43ff90c759", "blocktime": 1537875543, "version": 1, "confirmations": 11464, "time": 1537875543, "locktime": 0, "vsize": 374, "size": 374}