{"hash": "cc568ca9f4f5fde87991658a521e23492652ceb0e6a787107a2a3570997eb954", "blockhash": "00000000000000000004ffacab907a6b429b9a5745fa0b75af4234bf69dd7176", "vout": [{"scriptPubKey": {"reqSigs": 1, "hex": "a914ca10b92c072c48f7d62749c55990ef2db4f63b2c87", "addresses": ["3L7STFVcp8EEMi5Li4uiMe8bVT8FW7s8FL"], "asm": "OP_HASH160 ca10b92c072c48f7d62749c55990ef2db4f63b2c OP_EQUAL", "type": "scripthash"}, "value": 0.005, "n": 0}, {"scriptPubKey": {"reqSigs": 1, "hex": "76a914c90bbced3c236eeb02a68364f0cfd52186ac073a88ac", "addresses": ["1KL2t8RvgDMXHKUqyqWfH2hr9xbHkSHu3p"], "asm": "OP_DUP OP_HASH160 c90bbced3c236eeb02a68364f0cfd52186ac073a OP_EQUALVERIFY OP_CHECKSIG", "type": "pubkeyhash"}, "value": 0.00315123, "n": 1}], "hex": "01000000025e370487bec25677de1b37100f0e4e3175b9651049583fc3bd568c5bc9242d59010000006b483045022100de361833a3944975a220273010ebbac67c36b3a92147a28b789da906def77ab2022079967f9d93d9e9e5e8d18f905133a0c17771d3574ccc722f4cd5e58a1069df32012103d501db1dc3470c6353317bd2bfacedcb3e0af78c63349801056fc602c60a9217ffffffff617f13abd40125d22317b45d230dc8525be0037b6fc67651ea5f5f20bd0b64c9000000006a47304402202d848db4a7cb8c0cb77c5cf205cf7be27e74f8c418f0f794916f4d8095c6abbd022002a1e398c9b87ef974746efda2f560d1d91f454dbdfa884dd7f6826731ad6b310121039120ff30e477c24790f0b524df8f16f13c7faa86dcd71612895022c3db752405ffffffff0220a107000000000017a914ca10b92c072c48f7d62749c55990ef2db4f63b2c87f3ce0400000000001976a914c90bbced3c236eeb02a68364f0cfd52186ac073a88ac00000000", "vin": [{"sequence": 4294967295, "scriptSig": {"hex": "483045022100de361833a3944975a220273010ebbac67c36b3a92147a28b789da906def77ab2022079967f9d93d9e9e5e8d18f905133a0c17771d3574ccc722f4cd5e58a1069df32012103d501db1dc3470c6353317bd2bfacedcb3e0af78c63349801056fc602c60a9217", "asm": "3045022100de361833a3944975a220273010ebbac67c36b3a92147a28b789da906def77ab2022079967f9d93d9e9e5e8d18f905133a0c17771d3574ccc722f4cd5e58a1069df32[ALL] 03d501db1dc3470c6353317bd2bfacedcb3e0af78c63349801056fc602c60a9217"}, "vout": 1, "txid": "592d24c95b8c56bdc33f58491065b975314e0e0f10371bde7756c2be8704375e"}, {"sequence": 4294967295, "scriptSig": {"hex": "47304402202d848db4a7cb8c0cb77c5cf205cf7be27e74f8c418f0f794916f4d8095c6abbd022002a1e398c9b87ef974746efda2f560d1d91f454dbdfa884dd7f6826731ad6b310121039120ff30e477c24790f0b524df8f16f13c7faa86dcd71612895022c3db752405", "asm": "304402202d848db4a7cb8c0cb77c5cf205cf7be27e74f8c418f0f794916f4d8095c6abbd022002a1e398c9b87ef974746efda2f560d1d91f454dbdfa884dd7f6826731ad6b31[ALL] 039120ff30e477c24790f0b524df8f16f13c7faa86dcd71612895022c3db752405"}, "vout": 0, "txid": "c9640bbd205f5fea5176c66f7b03e05b52c80d235db41723d22501d4ab137f61"}], "txid": "cc568ca9f4f5fde87991658a521e23492652ceb0e6a787107a2a3570997eb954", "blocktime": 1537875543, "version": 1, "confirmations": 11464, "time": 1537875543, "locktime": 0, "vsize": 371, "size": 371}