{"hash": "8ca0df0898b975ef5caaec938264bb0c92c052c964d6c32820fd1910c4326338", "blockhash": "0000000000000000001e0dab787dd257d1dbfcb92a98c2207d5e1078be1f4165", "vout": [{"scriptPubKey": {"reqSigs": 1, "hex": "a91499808d406555f652e3304d2ba04acffcadd919f687", "addresses": ["3FgfJpv76YC9vVY4TdyupkaU6xmkWjRW65"], "asm": "OP_HASH160 99808d406555f652e3304d2ba04acffcadd919f6 OP_EQUAL", "type": "scripthash"}, "value": 0.05, "n": 0}, {"scriptPubKey": {"reqSigs": 1, "hex": "a9140313fe37f2bcd118b1bb339afc474854ef0fba7587", "addresses": ["31yHuG3EVS3gA23Pmnd9i1xa7bBsz4CCMD"], "asm": "OP_HASH160 0313fe37f2bcd118b1bb339afc474854ef0fba75 OP_EQUAL", "type": "scripthash"}, "value": 0.280007, "n": 1}], "hex": "010000000001018a7c81ead742ba29df1c90203e746015be60676b4276251ff121439d769747dc01000000232200204274174311ea18346c6e65e5ef0f2e445705c53600159133c6b31a38628738d0ffffffff02404b4c000000000017a91499808d406555f652e3304d2ba04acffcadd919f687bc41ab010000000017a9140313fe37f2bcd118b1bb339afc474854ef0fba758704004830450221008f1639f9feda12a1593c38ae875dac04fbde606ada1463fefaff21bc2edbe1f1022057346829bc9cdca2c6caf23830e7b7c7bf8b124f1c3114c0563011dff72be7080147304402201019bcafb155119b0a395670a2a05e29d29d02ff1d397da7ce34b2b79a6eb47302200ae423aa6f1ed6f280dd4ef5740cc8be4fb78af1287706ba30c86a34a2d6aeaa0169522103742b50a36c510a5c093abbbe71cb30b6f55718a3247f1a41bfceb9903085577c21031ccab2f09344867a1d9ecc5aff9bf7c70ada159cd908eeb90f224dcb39014100210396686ab30808294edcb5ff5497301e6efd1fb5afd15b646dd6862e9394c08bc753ae00000000", "vin": [{"txinwitness": ["", "30450221008f1639f9feda12a1593c38ae875dac04fbde606ada1463fefaff21bc2edbe1f1022057346829bc9cdca2c6caf23830e7b7c7bf8b124f1c3114c0563011dff72be70801", "304402201019bcafb155119b0a395670a2a05e29d29d02ff1d397da7ce34b2b79a6eb47302200ae423aa6f1ed6f280dd4ef5740cc8be4fb78af1287706ba30c86a34a2d6aeaa01", "522103742b50a36c510a5c093abbbe71cb30b6f55718a3247f1a41bfceb9903085577c21031ccab2f09344867a1d9ecc5aff9bf7c70ada159cd908eeb90f224dcb39014100210396686ab30808294edcb5ff5497301e6efd1fb5afd15b646dd6862e9394c08bc753ae"], "sequence": 4294967295, "scriptSig": {"hex": "2200204274174311ea18346c6e65e5ef0f2e445705c53600159133c6b31a38628738d0", "asm": "00204274174311ea18346c6e65e5ef0f2e445705c53600159133c6b31a38628738d0"}, "vout": 1, "txid": "dc4797769d4321f11f2576426b6760be1560743e20901cdf29ba42d7ea817c8a"}], "txid": "cc5be8f7da31e05eaa879c44a930ce7eec0cff04884cd62212e9ec4b304f8cff", "blocktime": 1537872475, "version": 1, "confirmations": 11487, "time": 1537872475, "locktime": 0, "vsize": 214, "size": 405}