{"hash": "fd5132c6e076875aaeb561b91952956aab1e8d0169dd2903398847bf0735dcdf", "blockhash": "0000000000000000000baef3f32e3676a92c3b2e5da21b426e4f302fc371ce76", "vout": [{"scriptPubKey": {"reqSigs": 1, "hex": "76a9148e002d2d8bafb058fa73f7b48d3eda9bf5f279c788ac", "addresses": ["1DwqAW6jAR4xNeHSyCAs7GjkaJDchpmmJC"], "asm": "OP_DUP OP_HASH160 8e002d2d8bafb058fa73f7b48d3eda9bf5f279c7 OP_EQUALVERIFY OP_CHECKSIG", "type": "pubkeyhash"}, "value": 9.9e-05, "n": 0}, {"scriptPubKey": {"reqSigs": 1, "hex": "a914f5342287aaa57f5c05756dbd5ef14091cc70030f87", "addresses": ["3Q3XvwKWsx3ocmCXheK6pAo5ieooFx75hh"], "asm": "OP_HASH160 f5342287aaa57f5c05756dbd5ef14091cc70030f OP_EQUAL", "type": "scripthash"}, "value": 0.07450996, "n": 1}], "hex": "01000000000101266dcf4ee3b22802e9b88ad0cf1aaf4e5189457c47c4b76f23b73f2245eb65f301000000232200204fd7968ffe15cb453352a1e9ee2915eff8b6d6252d5a351f9092b82ca10eb12cffffffff02ac260000000000001976a9148e002d2d8bafb058fa73f7b48d3eda9bf5f279c788ac74b171000000000017a914f5342287aaa57f5c05756dbd5ef14091cc70030f870400483045022100eeb589dc133161c8027ed5912c95a341fbb9b5579d3e75041f5e674ff394740c022065769688948bbd6003b151c6c746ec9922a7ca1f45ab81554249ac042704f94501483045022100caf8ae906f1e30e17c732d04204d74639ab6356ac24b6f89e21dc83b2f467c1802207e8b090cbbbd83727290323e8d0d8215252b3fba8fb68742f54732e02c5723db0147522103b70e79262cbb7310fe069dea7c473b53276b75c67fb841ff66279f152a3fe0172103871fc2ca08e6950b38867e8e6a0e94ee625223d3aa0df5c65f414c6d784467e252ae00000000", "vin": [{"txinwitness": ["", "3045022100eeb589dc133161c8027ed5912c95a341fbb9b5579d3e75041f5e674ff394740c022065769688948bbd6003b151c6c746ec9922a7ca1f45ab81554249ac042704f94501", "3045022100caf8ae906f1e30e17c732d04204d74639ab6356ac24b6f89e21dc83b2f467c1802207e8b090cbbbd83727290323e8d0d8215252b3fba8fb68742f54732e02c5723db01", "522103b70e79262cbb7310fe069dea7c473b53276b75c67fb841ff66279f152a3fe0172103871fc2ca08e6950b38867e8e6a0e94ee625223d3aa0df5c65f414c6d784467e252ae"], "sequence": 4294967295, "scriptSig": {"hex": "2200204fd7968ffe15cb453352a1e9ee2915eff8b6d6252d5a351f9092b82ca10eb12c", "asm": "00204fd7968ffe15cb453352a1e9ee2915eff8b6d6252d5a351f9092b82ca10eb12c"}, "vout": 1, "txid": "f365eb45223fb7236fb7c4477c4589514eaf1acfd08ab8e90228b2e34ecf6d26"}], "txid": "cc625212c501a55ba1fd87654b59700a334a6a7404048662cf16312f32ebe282", "blocktime": 1537876114, "version": 1, "confirmations": 11462, "time": 1537876114, "locktime": 0, "vsize": 208, "size": 374}