{"hash": "1b42c5c76caeb4f79d4a6bc94ea34ebddb360c9cd553a5933c6848ea2d95e940", "blockhash": "0000000000000000001e0dab787dd257d1dbfcb92a98c2207d5e1078be1f4165", "vout": [{"scriptPubKey": {"reqSigs": 1, "hex": "a914c4a011e02a7bbdb7009371a06d0aa891ce8c01a587", "addresses": ["3Kcg7zKShXQY2xVsCvZGQKUsvBkxTEVQmY"], "asm": "OP_HASH160 c4a011e02a7bbdb7009371a06d0aa891ce8c01a5 OP_EQUAL", "type": "scripthash"}, "value": 5.626e-05, "n": 0}, {"scriptPubKey": {"reqSigs": 1, "hex": "a914e8db75c900cf08f06518e96d167331f2a4abfb3387", "addresses": ["3NvFbQMAkkqEFj4i1sYPPLkSWzxTFUchjA"], "asm": "OP_HASH160 e8db75c900cf08f06518e96d167331f2a4abfb33 OP_EQUAL", "type": "scripthash"}, "value": 5.908e-05, "n": 1}], "hex": "0100000000010125f454452f5d55eff8e80af16b14457e68d94d46f141ec17ad045c1ed25589110100000023220020941cfaff8837763dc1f69ff82b6d6553fdea17a41cfc29a04403293eedd8ccc7ffffffff02fa1500000000000017a914c4a011e02a7bbdb7009371a06d0aa891ce8c01a587141700000000000017a914e8db75c900cf08f06518e96d167331f2a4abfb33870400473044022004d13ce00718901f95aa3b713d7d63257a6d32639ca066a45ca0506d429084270220222904a24d01d724de7e3136fe4e41da7d10a2b9cca4ca0e23defe1a35ccf4b40147304402205d258a66e9e88c863eb5d47cf4bdcf3882d07fbfd2ba32c7b8b97162f36fbdb602207fb3bfe619fd2073cebc6778744e7e79def45ded8e62711c8e786bb0640ec1cc0147522102531db3a5883f29bab4241dd0cd726936667bcda445d89bdd22244e828b6993342103148c80a5bdfddb05ff5bcffc397c8ca748d8b435ec6a175bc9d7bfc7fc6f853752ae00000000", "vin": [{"txinwitness": ["", "3044022004d13ce00718901f95aa3b713d7d63257a6d32639ca066a45ca0506d429084270220222904a24d01d724de7e3136fe4e41da7d10a2b9cca4ca0e23defe1a35ccf4b401", "304402205d258a66e9e88c863eb5d47cf4bdcf3882d07fbfd2ba32c7b8b97162f36fbdb602207fb3bfe619fd2073cebc6778744e7e79def45ded8e62711c8e786bb0640ec1cc01", "522102531db3a5883f29bab4241dd0cd726936667bcda445d89bdd22244e828b6993342103148c80a5bdfddb05ff5bcffc397c8ca748d8b435ec6a175bc9d7bfc7fc6f853752ae"], "sequence": 4294967295, "scriptSig": {"hex": "220020941cfaff8837763dc1f69ff82b6d6553fdea17a41cfc29a04403293eedd8ccc7", "asm": "0020941cfaff8837763dc1f69ff82b6d6553fdea17a41cfc29a04403293eedd8ccc7"}, "vout": 1, "txid": "118955d21e5c04ad17ec41f1464dd9687e45146bf10ae8f8ef555d2f4554f425"}], "txid": "cc69cbc406cb7e91c5059dbc04afa3928b8d506a3859c200d5a4b5126d66cf7f", "blocktime": 1537872475, "version": 1, "confirmations": 11487, "time": 1537872475, "locktime": 0, "vsize": 205, "size": 370}