{"hash": "cc6e791309abc52d78aee1f868fadc7aadb9d8f62bbe8fdd57c788c66ffff97b", "blockhash": "00000000000000000024a2167bbff67b0be802c0b01cdd79e6331c2be6459f87", "vout": [{"scriptPubKey": {"reqSigs": 1, "hex": "a91420615273ad6ee1eec404afb788cf5576aaa4966987", "addresses": ["34eE8jofPimxEVJtn6V6PmnHsFg4KrKMwd"], "asm": "OP_HASH160 20615273ad6ee1eec404afb788cf5576aaa49669 OP_EQUAL", "type": "scripthash"}, "value": 0.00296555, "n": 0}, {"scriptPubKey": {"reqSigs": 1, "hex": "76a9146c6d156e48e44a78773abcc26e3dbd5d75ada43d88ac", "addresses": ["1AtJezFJrRQ45ewqPHbGbXSj4iDdpBftmF"], "asm": "OP_DUP OP_HASH160 6c6d156e48e44a78773abcc26e3dbd5d75ada43d OP_EQUALVERIFY OP_CHECKSIG", "type": "pubkeyhash"}, "value": 0.00630571, "n": 1}], "hex": "0100000001e864883dc69d1bdc30a1d936807ea85921d2eeec2294c8e1859a9de6de58c042000000006b483045022100a7c49cd924cbb4ff951a5bb8f55feaa58635980e419893349a8b086c053ec128022011a89e2a96ae9d35237333d19ad26a3262fd9ae993e0ad34d133b83948100c11012102f280b782b5ff30fd3cb693845a21098be0d6c8022ac8bc58dede8ab23556fd17ffffffff026b8604000000000017a91420615273ad6ee1eec404afb788cf5576aaa49669872b9f0900000000001976a9146c6d156e48e44a78773abcc26e3dbd5d75ada43d88ac00000000", "vin": [{"sequence": 4294967295, "scriptSig": {"hex": "483045022100a7c49cd924cbb4ff951a5bb8f55feaa58635980e419893349a8b086c053ec128022011a89e2a96ae9d35237333d19ad26a3262fd9ae993e0ad34d133b83948100c11012102f280b782b5ff30fd3cb693845a21098be0d6c8022ac8bc58dede8ab23556fd17", "asm": "3045022100a7c49cd924cbb4ff951a5bb8f55feaa58635980e419893349a8b086c053ec128022011a89e2a96ae9d35237333d19ad26a3262fd9ae993e0ad34d133b83948100c11[ALL] 02f280b782b5ff30fd3cb693845a21098be0d6c8022ac8bc58dede8ab23556fd17"}, "vout": 0, "txid": "42c058dee69d9a85e1c89422eceed22159a87e8036d9a130dc1b9dc63d8864e8"}], "txid": "cc6e791309abc52d78aee1f868fadc7aadb9d8f62bbe8fdd57c788c66ffff97b", "blocktime": 1537870564, "version": 1, "confirmations": 11515, "time": 1537870564, "locktime": 0, "vsize": 224, "size": 224}