{"hash": "cc7aebc82a6157c8769189d997dffc572330740ff433b9f40f9593a0eff9b47b", "blockhash": "00000000000000000024a2167bbff67b0be802c0b01cdd79e6331c2be6459f87", "vout": [{"scriptPubKey": {"reqSigs": 1, "hex": "a91431765de28392971647774385c382f61eaf2caff687", "addresses": ["36CYqD3pjNypahXjGB36Vtw2n39FDamP36"], "asm": "OP_HASH160 31765de28392971647774385c382f61eaf2caff6 OP_EQUAL", "type": "scripthash"}, "value": 0.00689319, "n": 0}, {"scriptPubKey": {"reqSigs": 1, "hex": "76a91427a411a39cb101dda7490aa812df69170de9ca5988ac", "addresses": ["14cbuBwTNVEPGJog6RTskuYPrCEaMW55Nq"], "asm": "OP_DUP OP_HASH160 27a411a39cb101dda7490aa812df69170de9ca59 OP_EQUALVERIFY OP_CHECKSIG", "type": "pubkeyhash"}, "value": 0.09547141, "n": 1}], "hex": "01000000011f7854703159f9ff8ef8bcde94aeb746b6e9363fc7bd4ce147dbc4acec1b7508010000006a47304402201bdc7d7e322d00d2811b834e8ea32a8494f2a193a82eb6e722f305ecd418a0280220099d8b03d1b1a0cfc83da1b24568b563072651c7a4e6fdad1fc94d9daa3576aa0121034dc29384924a58dbc0c6299a614680358bce2b6021510db73a2ca39e4f6d35c0ffffffff02a7840a000000000017a91431765de28392971647774385c382f61eaf2caff68785ad9100000000001976a91427a411a39cb101dda7490aa812df69170de9ca5988ac00000000", "vin": [{"sequence": 4294967295, "scriptSig": {"hex": "47304402201bdc7d7e322d00d2811b834e8ea32a8494f2a193a82eb6e722f305ecd418a0280220099d8b03d1b1a0cfc83da1b24568b563072651c7a4e6fdad1fc94d9daa3576aa0121034dc29384924a58dbc0c6299a614680358bce2b6021510db73a2ca39e4f6d35c0", "asm": "304402201bdc7d7e322d00d2811b834e8ea32a8494f2a193a82eb6e722f305ecd418a0280220099d8b03d1b1a0cfc83da1b24568b563072651c7a4e6fdad1fc94d9daa3576aa[ALL] 034dc29384924a58dbc0c6299a614680358bce2b6021510db73a2ca39e4f6d35c0"}, "vout": 1, "txid": "08751becacc4db47e14cbdc73f36e9b646b7ae94debcf88efff959317054781f"}], "txid": "cc7aebc82a6157c8769189d997dffc572330740ff433b9f40f9593a0eff9b47b", "blocktime": 1537870564, "version": 1, "confirmations": 11515, "time": 1537870564, "locktime": 0, "vsize": 223, "size": 223}