{"hash": "cc7f9804ebe03eaf00c7a28dc16b7731b3e86d59f1be524c3ed4ec56a049a6d2", "blockhash": "00000000000000000017f5eb5941039fbcee6240d03bc1f2f8e35350df66a1d8", "vout": [{"scriptPubKey": {"reqSigs": 1, "hex": "76a914408752eaa926256b405f6404ef68195b6dd043be88ac", "addresses": ["16tCMkGosDV3gghycpnXp2tTYjag44rzuy"], "asm": "OP_DUP OP_HASH160 408752eaa926256b405f6404ef68195b6dd043be OP_EQUALVERIFY OP_CHECKSIG", "type": "pubkeyhash"}, "value": 0.01607, "n": 0}, {"scriptPubKey": {"reqSigs": 1, "hex": "a914e370231feecbfc25e2e2423a5a79bf79bfdca59887", "addresses": ["3NRbeX3vD5VaVE4TDU9ivCDsEf7NPPte6J"], "asm": "OP_HASH160 e370231feecbfc25e2e2423a5a79bf79bfdca598 OP_EQUAL", "type": "scripthash"}, "value": 0.36126762, "n": 1}], "hex": "0100000001acb1d2f1202d50afa45833424ea28c2df72d27b60e140b53834ebc7ca674c09001000000db00483045022100e34fde2a61260cc69a681ab336437aaee577fe2d24e25260b29f0d18876e775c022047220bc41e173940b83c88157734bbf6d122e338834c428b882c6da41e92f94e01483045022100f6b4c6ed4f9ad077b458b48a68dc5f6591b21cc96d2c79c1e3eddd10df70b16d022061db40d16c80d75a6ff8d142167a12020a57e09c1bcb70dbbe5042e7b379df44014752210327881b6abce6535553a3ce21fad12a7d74fd237ce7c4cd270a267162344e3082210256141f8eb687f5a68c5cc65054652dc25116fa285e44d72b44368827ffe77d9a52aeffffffff0258851800000000001976a914408752eaa926256b405f6404ef68195b6dd043be88ac2a4027020000000017a914e370231feecbfc25e2e2423a5a79bf79bfdca5988700000000", "vin": [{"sequence": 4294967295, "scriptSig": {"hex": "00483045022100e34fde2a61260cc69a681ab336437aaee577fe2d24e25260b29f0d18876e775c022047220bc41e173940b83c88157734bbf6d122e338834c428b882c6da41e92f94e01483045022100f6b4c6ed4f9ad077b458b48a68dc5f6591b21cc96d2c79c1e3eddd10df70b16d022061db40d16c80d75a6ff8d142167a12020a57e09c1bcb70dbbe5042e7b379df44014752210327881b6abce6535553a3ce21fad12a7d74fd237ce7c4cd270a267162344e3082210256141f8eb687f5a68c5cc65054652dc25116fa285e44d72b44368827ffe77d9a52ae", "asm": "0 3045022100e34fde2a61260cc69a681ab336437aaee577fe2d24e25260b29f0d18876e775c022047220bc41e173940b83c88157734bbf6d122e338834c428b882c6da41e92f94e[ALL] 3045022100f6b4c6ed4f9ad077b458b48a68dc5f6591b21cc96d2c79c1e3eddd10df70b16d022061db40d16c80d75a6ff8d142167a12020a57e09c1bcb70dbbe5042e7b379df44[ALL] 52210327881b6abce6535553a3ce21fad12a7d74fd237ce7c4cd270a267162344e3082210256141f8eb687f5a68c5cc65054652dc25116fa285e44d72b44368827ffe77d9a52ae"}, "vout": 1, "txid": "90c074a67cbc4e83530b140eb6272df72d8ca24e423358a4af502d20f1d2b1ac"}], "txid": "cc7f9804ebe03eaf00c7a28dc16b7731b3e86d59f1be524c3ed4ec56a049a6d2", "blocktime": 1537874412, "version": 1, "confirmations": 11468, "time": 1537874412, "locktime": 0, "vsize": 336, "size": 336}