{"hash": "cc841ee7cbeeae450fdef042e21b9591a7c0e3f64eb79f00b86019c348376659", "blockhash": "0000000000000000001e0dab787dd257d1dbfcb92a98c2207d5e1078be1f4165", "vout": [{"scriptPubKey": {"reqSigs": 1, "hex": "a91443b652ca2dd1f893f7b06e3ddab861e9de84941287", "addresses": ["37s3cSwnUUBWtV9oyXRbXUBLa7Au1yQQH8"], "asm": "OP_HASH160 43b652ca2dd1f893f7b06e3ddab861e9de849412 OP_EQUAL", "type": "scripthash"}, "value": 0.00997, "n": 0}, {"scriptPubKey": {"reqSigs": 1, "hex": "76a91415a806746d632afaeda423279e3a885724af639188ac", "addresses": ["12yWUdFS3KtiagXoxfVsRgxJDrAC6fmSh5"], "asm": "OP_DUP OP_HASH160 15a806746d632afaeda423279e3a885724af6391 OP_EQUALVERIFY OP_CHECKSIG", "type": "pubkeyhash"}, "value": 0.13792433, "n": 1}], "hex": "0100000001fc391b7bf2c8124f32fa9df69da9d6eb35a257df3053f9283e0c01bd5de6f904260000006b483045022100b53c3b7970326c506a8272eb667a2f1c127fe129c3401ee7ad147e06a7dc347802202e75055e9a029df308e5ad1ab812f424daf6bf8425bd8757ad88ea5c8e390b0a012103c03a7c964acea2a8ea87a3a5b7d1f3acf6b99ebff2f1163adb0f7113938acf2bffffffff0288360f000000000017a91443b652ca2dd1f893f7b06e3ddab861e9de84941287b174d200000000001976a91415a806746d632afaeda423279e3a885724af639188ac00000000", "vin": [{"sequence": 4294967295, "scriptSig": {"hex": "483045022100b53c3b7970326c506a8272eb667a2f1c127fe129c3401ee7ad147e06a7dc347802202e75055e9a029df308e5ad1ab812f424daf6bf8425bd8757ad88ea5c8e390b0a012103c03a7c964acea2a8ea87a3a5b7d1f3acf6b99ebff2f1163adb0f7113938acf2b", "asm": "3045022100b53c3b7970326c506a8272eb667a2f1c127fe129c3401ee7ad147e06a7dc347802202e75055e9a029df308e5ad1ab812f424daf6bf8425bd8757ad88ea5c8e390b0a[ALL] 03c03a7c964acea2a8ea87a3a5b7d1f3acf6b99ebff2f1163adb0f7113938acf2b"}, "vout": 38, "txid": "04f9e65dbd010c3e28f95330df57a235ebd6a99df69dfa324f12c8f27b1b39fc"}], "txid": "cc841ee7cbeeae450fdef042e21b9591a7c0e3f64eb79f00b86019c348376659", "blocktime": 1537872475, "version": 1, "confirmations": 11487, "time": 1537872475, "locktime": 0, "vsize": 224, "size": 224}