{"hash": "cc89875c7a1b477afb078b904ef9a14f87abcb310bdfc47f2b5ed7a8a7e348aa", "blockhash": "00000000000000000017f5eb5941039fbcee6240d03bc1f2f8e35350df66a1d8", "vout": [{"scriptPubKey": {"reqSigs": 1, "hex": "76a914cee4cd9a2d013cb97f8656413461ac584a64e82d88ac", "addresses": ["1KrxJ3BAWavej9qhYpPLZhK2rk4YYTQazk"], "asm": "OP_DUP OP_HASH160 cee4cd9a2d013cb97f8656413461ac584a64e82d OP_EQUALVERIFY OP_CHECKSIG", "type": "pubkeyhash"}, "value": 0.998, "n": 0}, {"scriptPubKey": {"reqSigs": 1, "hex": "76a914546723d61b2a7adb9508579cb655854c4b670e3288ac", "addresses": ["18hHKQXSB4oPa7NTwRcvfbxAD29hbasehZ"], "asm": "OP_DUP OP_HASH160 546723d61b2a7adb9508579cb655854c4b670e32 OP_EQUALVERIFY OP_CHECKSIG", "type": "pubkeyhash"}, "value": 0.04168, "n": 1}], "hex": "010000000235e38756affe023dee26fff8065eab2f85a1ef43a567857cc1a493a5d0de6eb7010000006b483045022100af0546f4dbba1c18e016d184e506610a39fa9dcf4870edb47514b0f462334e9a02207334c7f33f82c9989ffabc3c266c6d0b69cb0169a39ac002def4a5631e94137701210226d23cc0d21d6e86a819b80670838ed36255a4e4f260a29a5404ee82e89583ddffffffff35e38756affe023dee26fff8065eab2f85a1ef43a567857cc1a493a5d0de6eb7000000006a473044022004a7ad985ea44f0020a6be2287560b65abdb446cfd7714749fdd11294c9cf94a02206b804c2950de81ca53632a8e2e5f467483bf3b1d2d31bc93c121ec1edb6b064e012103290169a8d709db49332713d82ada2fbaac342109de666e5180efeb7e669dfaadffffffff02c0d3f205000000001976a914cee4cd9a2d013cb97f8656413461ac584a64e82d88ac40993f00000000001976a914546723d61b2a7adb9508579cb655854c4b670e3288ac00000000", "vin": [{"sequence": 4294967295, "scriptSig": {"hex": "483045022100af0546f4dbba1c18e016d184e506610a39fa9dcf4870edb47514b0f462334e9a02207334c7f33f82c9989ffabc3c266c6d0b69cb0169a39ac002def4a5631e94137701210226d23cc0d21d6e86a819b80670838ed36255a4e4f260a29a5404ee82e89583dd", "asm": "3045022100af0546f4dbba1c18e016d184e506610a39fa9dcf4870edb47514b0f462334e9a02207334c7f33f82c9989ffabc3c266c6d0b69cb0169a39ac002def4a5631e941377[ALL] 0226d23cc0d21d6e86a819b80670838ed36255a4e4f260a29a5404ee82e89583dd"}, "vout": 1, "txid": "b76eded0a593a4c17c8567a543efa1852fab5e06f8ff26ee3d02feaf5687e335"}, {"sequence": 4294967295, "scriptSig": {"hex": "473044022004a7ad985ea44f0020a6be2287560b65abdb446cfd7714749fdd11294c9cf94a02206b804c2950de81ca53632a8e2e5f467483bf3b1d2d31bc93c121ec1edb6b064e012103290169a8d709db49332713d82ada2fbaac342109de666e5180efeb7e669dfaad", "asm": "3044022004a7ad985ea44f0020a6be2287560b65abdb446cfd7714749fdd11294c9cf94a02206b804c2950de81ca53632a8e2e5f467483bf3b1d2d31bc93c121ec1edb6b064e[ALL] 03290169a8d709db49332713d82ada2fbaac342109de666e5180efeb7e669dfaad"}, "vout": 0, "txid": "b76eded0a593a4c17c8567a543efa1852fab5e06f8ff26ee3d02feaf5687e335"}], "txid": "cc89875c7a1b477afb078b904ef9a14f87abcb310bdfc47f2b5ed7a8a7e348aa", "blocktime": 1537874412, "version": 1, "confirmations": 11467, "time": 1537874412, "locktime": 0, "vsize": 373, "size": 373}