{"hash": "cf52361e088eb9e653d41cb64773830ad8342ddf54034599cf3c5d0a275c47bd", "blockhash": "0000000000000000001cda96e906b7601b7a6fb1a3b62bca570a9e5d8f4b3de1", "vout": [{"scriptPubKey": {"reqSigs": 1, "hex": "76a914971b2da12f3d172ade42a6313e1d375828523afc88ac", "addresses": ["1EmybLw68T3Bd4mzWJoWu7ozkAFMjSid4f"], "asm": "OP_DUP OP_HASH160 971b2da12f3d172ade42a6313e1d375828523afc OP_EQUALVERIFY OP_CHECKSIG", "type": "pubkeyhash"}, "value": 0.0086296, "n": 0}, {"scriptPubKey": {"reqSigs": 1, "hex": "a9149649ad6d2730bb28020a268d9d80df10a9f74ad487", "addresses": ["3FPfYWwfMfKMGY7fuPHvz2b73RhTNGzsm3"], "asm": "OP_HASH160 9649ad6d2730bb28020a268d9d80df10a9f74ad4 OP_EQUAL", "type": "scripthash"}, "value": 13.85784027, "n": 1}], "hex": "01000000000101eb16246a81449d366b49db69a9b685067a7d1430988e99d2e243fd969e6b9f7201000000232200207768efcc1e5eb3d28410fac3f45831004c860cc24cddd940a616b34324823fceffffffff02f02a0d00000000001976a914971b2da12f3d172ade42a6313e1d375828523afc88acdb6299520000000017a9149649ad6d2730bb28020a268d9d80df10a9f74ad4870400483045022100999246cce24c5b702f0b530da89afa0d139155d400b875bd5943a5f14433eda1022064693fa33d5fed40bdb94ece2b4cc6c0ebc924ca69fd0a2ab2ebb1eb482a94d90147304402204f06f4616cacafef7e369ebbeb0fd7cf70fa8f6c1e868164a507a4c420e7be5c022006a3f982249b506daf2ef3890c7f33ef130e1ec388808fcd6db9e4f6085ae7920147522102529d5d1f6733ab45d9d50e07db42c7f6b967ae321c38b726c2247f149959b8262103d0c936a5988dd8421c63240496b723b0ec42400c38b9350e32c2eb4f47d8796952ae00000000", "vin": [{"txinwitness": ["", "3045022100999246cce24c5b702f0b530da89afa0d139155d400b875bd5943a5f14433eda1022064693fa33d5fed40bdb94ece2b4cc6c0ebc924ca69fd0a2ab2ebb1eb482a94d901", "304402204f06f4616cacafef7e369ebbeb0fd7cf70fa8f6c1e868164a507a4c420e7be5c022006a3f982249b506daf2ef3890c7f33ef130e1ec388808fcd6db9e4f6085ae79201", "522102529d5d1f6733ab45d9d50e07db42c7f6b967ae321c38b726c2247f149959b8262103d0c936a5988dd8421c63240496b723b0ec42400c38b9350e32c2eb4f47d8796952ae"], "sequence": 4294967295, "scriptSig": {"hex": "2200207768efcc1e5eb3d28410fac3f45831004c860cc24cddd940a616b34324823fce", "asm": "00207768efcc1e5eb3d28410fac3f45831004c860cc24cddd940a616b34324823fce"}, "vout": 1, "txid": "729f6b9e96fd43e2d2998e9830147d7a0685b6a969db496b369d44816a2416eb"}], "txid": "cc9011f8a5853997b0a5e7a8608ccd2f65ec10588a814a2e5369c5ac5fff9a7b", "blocktime": 1537873282, "version": 1, "confirmations": 11484, "time": 1537873282, "locktime": 0, "vsize": 208, "size": 373}