{"hash": "cc965ffea88731937142e980875b57a3db2886f5af47a6afc43f20cbd47a9428", "blockhash": "0000000000000000001f76057863aec43deb6fa401d9628bb513d65a8098bfab", "vout": [{"scriptPubKey": {"reqSigs": 1, "hex": "76a91459541425f08f2bffb87f8f9ba8bca23d9ffa6dec88ac", "addresses": ["199KrxtngGm6KprjVjSaZt9ssakR8oG3ES"], "asm": "OP_DUP OP_HASH160 59541425f08f2bffb87f8f9ba8bca23d9ffa6dec OP_EQUALVERIFY OP_CHECKSIG", "type": "pubkeyhash"}, "value": 0.00156055, "n": 0}, {"scriptPubKey": {"reqSigs": 1, "hex": "76a9144346cd42084bd2c73913738925052b7df1be1d2088ac", "addresses": ["178j6FLUXWGbg57Wzk5bygYxLWB4EQJetA"], "asm": "OP_DUP OP_HASH160 4346cd42084bd2c73913738925052b7df1be1d20 OP_EQUALVERIFY OP_CHECKSIG", "type": "pubkeyhash"}, "value": 0.01175607, "n": 1}], "hex": "0100000001df749fc8cb6a82f31dfd466032a33d705d71a2ea6d826e25d18c1803430db03d010000006b483045022100ba9e3d142be10941006828c4815f777d4374e712ea485cbcaea0da8521cb4a3c02203c4e0cafaa621d7d256c69964067b775aa7f34879d11e21718e637a7f36767b2012103e2ec626da2af98b519e2776535984c9f7df791279c2596c93a20464ec26d5f1dffffffff0297610200000000001976a91459541425f08f2bffb87f8f9ba8bca23d9ffa6dec88ac37f01100000000001976a9144346cd42084bd2c73913738925052b7df1be1d2088ac00000000", "vin": [{"sequence": 4294967295, "scriptSig": {"hex": "483045022100ba9e3d142be10941006828c4815f777d4374e712ea485cbcaea0da8521cb4a3c02203c4e0cafaa621d7d256c69964067b775aa7f34879d11e21718e637a7f36767b2012103e2ec626da2af98b519e2776535984c9f7df791279c2596c93a20464ec26d5f1d", "asm": "3045022100ba9e3d142be10941006828c4815f777d4374e712ea485cbcaea0da8521cb4a3c02203c4e0cafaa621d7d256c69964067b775aa7f34879d11e21718e637a7f36767b2[ALL] 03e2ec626da2af98b519e2776535984c9f7df791279c2596c93a20464ec26d5f1d"}, "vout": 1, "txid": "3db00d4303188cd1256e826deaa2715d703da3326046fd1df3826acbc89f74df"}], "txid": "cc965ffea88731937142e980875b57a3db2886f5af47a6afc43f20cbd47a9428", "blocktime": 1537873891, "version": 1, "confirmations": 11478, "time": 1537873891, "locktime": 0, "vsize": 226, "size": 226}