{"hash": "cca03b22c1c9a38950838cad89dbb4687db38a46ab0d7983af357ecf6a448c19", "blockhash": "0000000000000000001e0dab787dd257d1dbfcb92a98c2207d5e1078be1f4165", "vout": [{"scriptPubKey": {"reqSigs": 1, "hex": "76a914a4950ed15935e5d32cc176d0ccf76c9ba3253e6a88ac", "addresses": ["1G1EPBdvQqASsCczXZnamUxuz92u3bjjKj"], "asm": "OP_DUP OP_HASH160 a4950ed15935e5d32cc176d0ccf76c9ba3253e6a OP_EQUALVERIFY OP_CHECKSIG", "type": "pubkeyhash"}, "value": 0.40440872, "n": 0}, {"scriptPubKey": {"type": "nulldata", "hex": "6a146f6d6e69000000000000001f0000000ba43b7400", "asm": "OP_RETURN 6f6d6e69000000000000001f0000000ba43b7400"}, "value": 0.0, "n": 1}, {"scriptPubKey": {"reqSigs": 1, "hex": "76a914a2fddae8e5b6e06e7075b4414b0254dedac9498f88ac", "addresses": ["1FrpaEsjywUJXWBPLwtWPftWgBzk5wcyCf"], "asm": "OP_DUP OP_HASH160 a2fddae8e5b6e06e7075b4414b0254dedac9498f OP_EQUALVERIFY OP_CHECKSIG", "type": "pubkeyhash"}, "value": 5.46e-06, "n": 2}], "hex": "010000000156a89ea1d484c21a81e2d33f7b0f54403b6b720c0aa1c108c7502c649c9606d1000000006a47304402207950d8f946e34db2456384ac304165208a57d95c40508b8b8d84d48ff0c48c0802201b3c55b63362e8674e75045a05704a004aa7cc020d06e67523161c224a802d9701210307698abae2b47d5eba1fc0cb0c49a8f1fb7e7c895b977ac436fed836856aafa1feffffff0328146902000000001976a914a4950ed15935e5d32cc176d0ccf76c9ba3253e6a88ac0000000000000000166a146f6d6e69000000000000001f0000000ba43b740022020000000000001976a914a2fddae8e5b6e06e7075b4414b0254dedac9498f88ac12490800", "vin": [{"sequence": 4294967294, "scriptSig": {"hex": "47304402207950d8f946e34db2456384ac304165208a57d95c40508b8b8d84d48ff0c48c0802201b3c55b63362e8674e75045a05704a004aa7cc020d06e67523161c224a802d9701210307698abae2b47d5eba1fc0cb0c49a8f1fb7e7c895b977ac436fed836856aafa1", "asm": "304402207950d8f946e34db2456384ac304165208a57d95c40508b8b8d84d48ff0c48c0802201b3c55b63362e8674e75045a05704a004aa7cc020d06e67523161c224a802d97[ALL] 0307698abae2b47d5eba1fc0cb0c49a8f1fb7e7c895b977ac436fed836856aafa1"}, "vout": 0, "txid": "d106969c642c50c708c1a10a0c726b3b40540f7b3fd3e2811ac284d4a19ea856"}], "txid": "cca03b22c1c9a38950838cad89dbb4687db38a46ab0d7983af357ecf6a448c19", "blocktime": 1537872475, "version": 1, "confirmations": 11486, "time": 1537872475, "locktime": 542994, "vsize": 256, "size": 256}