{"hash": "68c65562341250d3b32bb412a341bcf97e96977bab4e40e52bfae2ba8ef531ce", "blockhash": "0000000000000000000baef3f32e3676a92c3b2e5da21b426e4f302fc371ce76", "vout": [{"scriptPubKey": {"reqSigs": 1, "hex": "a914f72a12a7286f93d3afd4ff9ba3ba5d42945cc18487", "addresses": ["3QDuECXrzV7S3Yf52NGpN6hd8QJcGUAtQM"], "asm": "OP_HASH160 f72a12a7286f93d3afd4ff9ba3ba5d42945cc184 OP_EQUAL", "type": "scripthash"}, "value": 0.9971, "n": 0}], "hex": "02000000000106ddb30d49d6b92d618228410c44170daa65d612849c4adffd9a6fce2c80ba6a4d00000000171600146194ee87b83d22d59a1627e833435dfc05f243f6feffffff201885936c7f6aa8b853cac905e03519d1fb028f561c9ebaafbd8ee6afd3e3a00100000017160014d2c1c42b1b357ca6127202afbeecb5b4f52044a5feffffff854918ffb74640f6cbcaae35f5282870a74586404bdf654a6b483d98ef952d2700000000171600146194ee87b83d22d59a1627e833435dfc05f243f6feffffff0b79566d55abcdc2527aad65b420148defb534a79756bcd534479631debe49fa00000000171600140f37bd12261418954adf9a8e2e0fda887c634bbdfeffffff3ab0ed20115f67cdd0c37390e8b6b4883f38c35494f4671310c3f687af22d96f010000001716001469b8aeee9bd9d1587efb1ce0a238fbd7850ed491fefffffffb382cb946ab3ecc96e8017c9cad2e23066c92c465d47030aad1794144b73be4000000001716001494ac1d0c94049beff12cd1779c2e6e61c46c2f93feffffff013074f1050000000017a914f72a12a7286f93d3afd4ff9ba3ba5d42945cc184870247304402203e556557c64124c94705f37b2fc8348ff56b114f0fae9109f6c4808117966177022078f8bc47e78642cf5d3fff01733fbc701796938256000f7d09ac9e881b0d948e01210360d7108a1719512f428dc5e64cb4e407c1f7c17e8e77eaf9f7acd4665054a35f02473044022037302f1df292ac32c85433a23a32764962e8b2bd778926f51ea2bf4d543ea57b02202c3db463c41ba72bc27d159eac8f45758543c43d504fdea662fd9cc1611c33b90121021b068966a976881681301d383338254b3c6f58238de9abb86c66bb2de9a4cd480247304402201970217f2ff5dae31ef303cbe6edc007a3e52e7d4557c5f1fbec3ec4ee03014702207230664c9d1d38b195075e837bfcca637ad21f724b81c67393160cba0955c32f01210360d7108a1719512f428dc5e64cb4e407c1f7c17e8e77eaf9f7acd4665054a35f024730440220677c04a78fa86c0180991a3fd3ffb4d2501e8cd1c78a2b7f5d3208ac01e3a0cf02203e06101afa346bdb5d0751cd57a8d4aa965b1eec926c8a14d6c8f13d0d394ec10121029e30a129401b5d5d6325adae52f01d983d3c4c1f40cb3df8f1762d95758c08d102473044022056e753c1a4cafbc8c552b93710846661b8e788d21f46000fe6225e030a9da3ce022051b9cb0ec6691bed3f302e614eab2c2ec10d8fd7f614a738f6761087b8cd4b70012103524f12d8f4b060c0d448733a167d7ae09f3924ce1bcc593c2b37446b14df8cac0247304402204f76d412142e8fa95a300062cf2c9451c1bff7adff535b8c561c5b677591d17902202624609935e9ab61d6dd24088c5cc5f2d6c67c91ca33ccc8612b378f3f31a3ff012103ebee614518f194a9632b4199e1db93f39da64c66ed05eefbb226f35b9f19fd13c8480800", "vin": [{"txinwitness": ["304402203e556557c64124c94705f37b2fc8348ff56b114f0fae9109f6c4808117966177022078f8bc47e78642cf5d3fff01733fbc701796938256000f7d09ac9e881b0d948e01", "0360d7108a1719512f428dc5e64cb4e407c1f7c17e8e77eaf9f7acd4665054a35f"], "sequence": 4294967294, "scriptSig": {"hex": "1600146194ee87b83d22d59a1627e833435dfc05f243f6", "asm": "00146194ee87b83d22d59a1627e833435dfc05f243f6"}, "vout": 0, "txid": "4d6aba802cce6f9afddf4a9c8412d665aa0d17440c412882612db9d6490db3dd"}, {"txinwitness": ["3044022037302f1df292ac32c85433a23a32764962e8b2bd778926f51ea2bf4d543ea57b02202c3db463c41ba72bc27d159eac8f45758543c43d504fdea662fd9cc1611c33b901", "021b068966a976881681301d383338254b3c6f58238de9abb86c66bb2de9a4cd48"], "sequence": 4294967294, "scriptSig": {"hex": "160014d2c1c42b1b357ca6127202afbeecb5b4f52044a5", "asm": "0014d2c1c42b1b357ca6127202afbeecb5b4f52044a5"}, "vout": 1, "txid": "a0e3d3afe68ebdafba9e1c568f02fbd11935e005c9ca53b8a86a7f6c93851820"}, {"txinwitness": ["304402201970217f2ff5dae31ef303cbe6edc007a3e52e7d4557c5f1fbec3ec4ee03014702207230664c9d1d38b195075e837bfcca637ad21f724b81c67393160cba0955c32f01", "0360d7108a1719512f428dc5e64cb4e407c1f7c17e8e77eaf9f7acd4665054a35f"], "sequence": 4294967294, "scriptSig": {"hex": "1600146194ee87b83d22d59a1627e833435dfc05f243f6", "asm": "00146194ee87b83d22d59a1627e833435dfc05f243f6"}, "vout": 0, "txid": "272d95ef983d486b4a65df4b408645a7702828f535aecacbf64046b7ff184985"}, {"txinwitness": ["30440220677c04a78fa86c0180991a3fd3ffb4d2501e8cd1c78a2b7f5d3208ac01e3a0cf02203e06101afa346bdb5d0751cd57a8d4aa965b1eec926c8a14d6c8f13d0d394ec101", "029e30a129401b5d5d6325adae52f01d983d3c4c1f40cb3df8f1762d95758c08d1"], "sequence": 4294967294, "scriptSig": {"hex": "1600140f37bd12261418954adf9a8e2e0fda887c634bbd", "asm": "00140f37bd12261418954adf9a8e2e0fda887c634bbd"}, "vout": 0, "txid": "fa49bede31964734d5bc5697a734b5ef8d1420b465ad7a52c2cdab556d56790b"}, {"txinwitness": ["3044022056e753c1a4cafbc8c552b93710846661b8e788d21f46000fe6225e030a9da3ce022051b9cb0ec6691bed3f302e614eab2c2ec10d8fd7f614a738f6761087b8cd4b7001", "03524f12d8f4b060c0d448733a167d7ae09f3924ce1bcc593c2b37446b14df8cac"], "sequence": 4294967294, "scriptSig": {"hex": "16001469b8aeee9bd9d1587efb1ce0a238fbd7850ed491", "asm": "001469b8aeee9bd9d1587efb1ce0a238fbd7850ed491"}, "vout": 1, "txid": "6fd922af87f6c3101367f49454c3383f88b4b6e89073c3d0cd675f1120edb03a"}, {"txinwitness": ["304402204f76d412142e8fa95a300062cf2c9451c1bff7adff535b8c561c5b677591d17902202624609935e9ab61d6dd24088c5cc5f2d6c67c91ca33ccc8612b378f3f31a3ff01", "03ebee614518f194a9632b4199e1db93f39da64c66ed05eefbb226f35b9f19fd13"], "sequence": 4294967294, "scriptSig": {"hex": "16001494ac1d0c94049beff12cd1779c2e6e61c46c2f93", "asm": "001494ac1d0c94049beff12cd1779c2e6e61c46c2f93"}, "vout": 0, "txid": "e43bb7444179d1aa3070d465c4926c06232ead9c7c01e896cc3eab46b92c38fb"}], "txid": "ccaa66aa9f63e3364699ed8cec7cbf589f0b1556ba2b8dae275620f2aad12538", "blocktime": 1537876114, "version": 2, "confirmations": 11459, "time": 1537876114, "locktime": 542920, "vsize": 587, "size": 1070}