{"hash": "ccab745e98cc7461f9769f2599bfc7bf8a2c042e9d3ac09009ed74f6f130c0c9", "blockhash": "0000000000000000001f76057863aec43deb6fa401d9628bb513d65a8098bfab", "vout": [{"scriptPubKey": {"reqSigs": 1, "hex": "76a9148fd3f3fc3322a30ca92075b1f5478f34da8adb5388ac", "addresses": ["1E7VYBxsk8WtQygwPyk1Vs6h5QSVxZjxnq"], "asm": "OP_DUP OP_HASH160 8fd3f3fc3322a30ca92075b1f5478f34da8adb53 OP_EQUALVERIFY OP_CHECKSIG", "type": "pubkeyhash"}, "value": 0.01060445, "n": 0}], "hex": "0100000001dd64257f2bce48eb60ade847b72b0f06cbdc2a4a32b14b570ca4c17477c8f8d1000000006b483045022100aed28fd9516e9a5f6d4926613fb2ec2531f04b7cca44281023b42e1f4a47baa902207d2ad3fd6543f44a19a8d9134da59cfe1c8c39bfd1a266cf2d4f8fd74d63d90b012102589433b128cff04abff8836835a07f76a77b65ad1650593fda259652f1eb16fbffffffff015d2e1000000000001976a9148fd3f3fc3322a30ca92075b1f5478f34da8adb5388ac00000000", "vin": [{"sequence": 4294967295, "scriptSig": {"hex": "483045022100aed28fd9516e9a5f6d4926613fb2ec2531f04b7cca44281023b42e1f4a47baa902207d2ad3fd6543f44a19a8d9134da59cfe1c8c39bfd1a266cf2d4f8fd74d63d90b012102589433b128cff04abff8836835a07f76a77b65ad1650593fda259652f1eb16fb", "asm": "3045022100aed28fd9516e9a5f6d4926613fb2ec2531f04b7cca44281023b42e1f4a47baa902207d2ad3fd6543f44a19a8d9134da59cfe1c8c39bfd1a266cf2d4f8fd74d63d90b[ALL] 02589433b128cff04abff8836835a07f76a77b65ad1650593fda259652f1eb16fb"}, "vout": 0, "txid": "d1f8c87774c1a40c574bb1324a2adccb060f2bb747e8ad60eb48ce2b7f2564dd"}], "txid": "ccab745e98cc7461f9769f2599bfc7bf8a2c042e9d3ac09009ed74f6f130c0c9", "blocktime": 1537873891, "version": 1, "confirmations": 11478, "time": 1537873891, "locktime": 0, "vsize": 192, "size": 192}