{"hash": "ccb3862e2f5d8c91e134e6a989f2752135b5c45931c9c76dccd2d92a2198a051", "blockhash": "000000000000000000022b45ed06c6f4ccd3cf7fb5ba4856ebd2e58215665228", "vout": [{"scriptPubKey": {"reqSigs": 1, "hex": "76a914e573d5b5d6f7cb68205e5f7c69abf0d5f76f436f88ac", "addresses": ["1MvEWGox6E53crm6W99yCNs9cz3Lu5niWo"], "asm": "OP_DUP OP_HASH160 e573d5b5d6f7cb68205e5f7c69abf0d5f76f436f OP_EQUALVERIFY OP_CHECKSIG", "type": "pubkeyhash"}, "value": 0.35, "n": 0}, {"scriptPubKey": {"reqSigs": 1, "hex": "76a914729ef739d34b4af911c4411e091605e016988c2d88ac", "addresses": ["1BT4U14Ca8iDNd8wnwreqrhFoptviR9BT5"], "asm": "OP_DUP OP_HASH160 729ef739d34b4af911c4411e091605e016988c2d OP_EQUALVERIFY OP_CHECKSIG", "type": "pubkeyhash"}, "value": 0.01011148, "n": 1}], "hex": "01000000050989904c7ca2f9eb4d726dfd5a28ae1f8eddcd0292f5c03c1e56953f6b2edea7090000006a4730440220365fe2d88868e79137d321a9028bb9d0201e5812900ad1f7439e526afb589eb002204ea525d3c998e6a94b14da187cdae8787f2369177a1818508f0580aae0b24cb40121028a6bf8b8317577289f37bf4f746dea1029c5632d989e0e5f16392e041b2d606efeffffff015299f4ceadcbb76d28b7ce2898fb84cc9a6090745d8553fa3882995562261c000000006a4730440220657a0c2c72bc2d46e2962838c888b0b066904d0fd0562fdd64fff9f31d6ccab302203d164dcb2798534c87f0ded18a32bf5ec6b4ecb39a8be17b368edc8f0401926c012103063a7a79c539dad3162368f8b3aef213761fb6f2511f2c751d285f7689027cbbfeffffff7ce93afada7ccd84f78a7bb23bc9bb77e4753c2218462382cdadfa51615be178000000006b483045022100d1a7de82c3cf2934ab5f747cc12e86dbba860a368825f9fa21e705b590e1fa5602204688a0f00ebb79a58e015730bb1f98a6db3fc586fdd15dc54d88ce18a0d6f226012102344a8745f1ca3df42946de586285b2ef8d35c1e48f7a074467816c6fb806d17afeffffff4984d304cb3698e2568244c42b2d7a72dad5b3c6968ae6e8ea7c36c1032f4f43000000006b483045022100cca83154748ca1c8491c7cc40b904165024d20a415d18f8707ef5339b9590f34022004e1a89299d91b0f10f9c38ad53dd18cc133742012f591ba5f0ae696e6d9847d01210382cd6ad0504146c4928888fdd7033fd74f0f7a24a25f670380ec74ea11632532feffffff5b455ca6bc0e095cb35dc36e37b3c0ee97b278f98cbbeba4862796bb4566d575010000006b483045022100c73299129c46fc72c422adf894ec65c8588c68cd7869e6b1c825c7e72484319f02203ff4b50c48ebb00bbcdf0ee88fd547e155e4a9424d717d54ec3a68417f89396801210267ca50ece639c859fa6715a8caeaed7567c637e91f7efbf0aeffa1ebdd4e8153feffffff02c00e1602000000001976a914e573d5b5d6f7cb68205e5f7c69abf0d5f76f436f88accc6d0f00000000001976a914729ef739d34b4af911c4411e091605e016988c2d88ac0b490800", "vin": [{"sequence": 4294967294, "scriptSig": {"hex": "4730440220365fe2d88868e79137d321a9028bb9d0201e5812900ad1f7439e526afb589eb002204ea525d3c998e6a94b14da187cdae8787f2369177a1818508f0580aae0b24cb40121028a6bf8b8317577289f37bf4f746dea1029c5632d989e0e5f16392e041b2d606e", "asm": "30440220365fe2d88868e79137d321a9028bb9d0201e5812900ad1f7439e526afb589eb002204ea525d3c998e6a94b14da187cdae8787f2369177a1818508f0580aae0b24cb4[ALL] 028a6bf8b8317577289f37bf4f746dea1029c5632d989e0e5f16392e041b2d606e"}, "vout": 9, "txid": "a7de2e6b3f95561e3cc0f59202cddd8e1fae285afd6d724debf9a27c4c908909"}, {"sequence": 4294967294, "scriptSig": {"hex": "4730440220657a0c2c72bc2d46e2962838c888b0b066904d0fd0562fdd64fff9f31d6ccab302203d164dcb2798534c87f0ded18a32bf5ec6b4ecb39a8be17b368edc8f0401926c012103063a7a79c539dad3162368f8b3aef213761fb6f2511f2c751d285f7689027cbb", "asm": "30440220657a0c2c72bc2d46e2962838c888b0b066904d0fd0562fdd64fff9f31d6ccab302203d164dcb2798534c87f0ded18a32bf5ec6b4ecb39a8be17b368edc8f0401926c[ALL] 03063a7a79c539dad3162368f8b3aef213761fb6f2511f2c751d285f7689027cbb"}, "vout": 0, "txid": "1c266255998238fa53855d7490609acc84fb9828ceb7286db7cbadcef4995201"}, {"sequence": 4294967294, "scriptSig": {"hex": "483045022100d1a7de82c3cf2934ab5f747cc12e86dbba860a368825f9fa21e705b590e1fa5602204688a0f00ebb79a58e015730bb1f98a6db3fc586fdd15dc54d88ce18a0d6f226012102344a8745f1ca3df42946de586285b2ef8d35c1e48f7a074467816c6fb806d17a", "asm": "3045022100d1a7de82c3cf2934ab5f747cc12e86dbba860a368825f9fa21e705b590e1fa5602204688a0f00ebb79a58e015730bb1f98a6db3fc586fdd15dc54d88ce18a0d6f226[ALL] 02344a8745f1ca3df42946de586285b2ef8d35c1e48f7a074467816c6fb806d17a"}, "vout": 0, "txid": "78e15b6151faadcd82234618223c75e477bbc93bb27b8af784cd7cdafa3ae97c"}, {"sequence": 4294967294, "scriptSig": {"hex": "483045022100cca83154748ca1c8491c7cc40b904165024d20a415d18f8707ef5339b9590f34022004e1a89299d91b0f10f9c38ad53dd18cc133742012f591ba5f0ae696e6d9847d01210382cd6ad0504146c4928888fdd7033fd74f0f7a24a25f670380ec74ea11632532", "asm": "3045022100cca83154748ca1c8491c7cc40b904165024d20a415d18f8707ef5339b9590f34022004e1a89299d91b0f10f9c38ad53dd18cc133742012f591ba5f0ae696e6d9847d[ALL] 0382cd6ad0504146c4928888fdd7033fd74f0f7a24a25f670380ec74ea11632532"}, "vout": 0, "txid": "434f2f03c1367ceae8e68a96c6b3d5da727a2d2bc4448256e29836cb04d38449"}, {"sequence": 4294967294, "scriptSig": {"hex": "483045022100c73299129c46fc72c422adf894ec65c8588c68cd7869e6b1c825c7e72484319f02203ff4b50c48ebb00bbcdf0ee88fd547e155e4a9424d717d54ec3a68417f89396801210267ca50ece639c859fa6715a8caeaed7567c637e91f7efbf0aeffa1ebdd4e8153", "asm": "3045022100c73299129c46fc72c422adf894ec65c8588c68cd7869e6b1c825c7e72484319f02203ff4b50c48ebb00bbcdf0ee88fd547e155e4a9424d717d54ec3a68417f893968[ALL] 0267ca50ece639c859fa6715a8caeaed7567c637e91f7efbf0aeffa1ebdd4e8153"}, "vout": 1, "txid": "75d56645bb962786a4ebbb8cf978b297eec0b3376ec35db35c090ebca65c455b"}], "txid": "ccb3862e2f5d8c91e134e6a989f2752135b5c45931c9c76dccd2d92a2198a051", "blocktime": 1537869901, "version": 1, "confirmations": 11522, "time": 1537869901, "locktime": 542987, "vsize": 816, "size": 816}