{"hash": "c8741c6ac755178570ad8aa8e6a055a16aa6d625e3ed8561829e833d51a7a729", "blockhash": "0000000000000000000dcc0f55137456b1a82d3642486a52398922ac4d620174", "vout": [{"scriptPubKey": {"reqSigs": 1, "hex": "0014c71f7b031c0431d70ee35ca7b24b3b14527b7a52", "addresses": ["bc1qcu0hkqcuqscawrhrtjnmyjemz3f8k7jj6pmlx5"], "asm": "0 c71f7b031c0431d70ee35ca7b24b3b14527b7a52", "type": "witness_v0_keyhash"}, "value": 0.00199412, "n": 0}, {"scriptPubKey": {"reqSigs": 1, "hex": "76a9148a45516ae6eb17f5599467e27a417415e9fe172388ac", "addresses": ["1Dc7HmufMce5N1b6WrXWEHdQ1g6buu75Jq"], "asm": "OP_DUP OP_HASH160 8a45516ae6eb17f5599467e27a417415e9fe1723 OP_EQUALVERIFY OP_CHECKSIG", "type": "pubkeyhash"}, "value": 0.005, "n": 1}], "hex": "0100000000010160cfc443fe5fa573522cc285b099494dc1cbf44a7691ba623d834ff9a33d1342000000001716001482efb54cf34655a38c49f90017d316d1affdae2affffffff02f40a030000000000160014c71f7b031c0431d70ee35ca7b24b3b14527b7a5220a10700000000001976a9148a45516ae6eb17f5599467e27a417415e9fe172388ac02483045022100e8757694f9eb7773df5d8b88837a558e0f33db0b70fe924bc3d795f327fdf19a02204c888e0f83a0062dc60041bea25e56a5c7eb6b607c66570e543db016b74525b3012102304f45a309d22514a714b42a0441b33f9a16e9f51e472eaa14cdb2d07e1f45bb00000000", "vin": [{"txinwitness": ["3045022100e8757694f9eb7773df5d8b88837a558e0f33db0b70fe924bc3d795f327fdf19a02204c888e0f83a0062dc60041bea25e56a5c7eb6b607c66570e543db016b74525b301", "02304f45a309d22514a714b42a0441b33f9a16e9f51e472eaa14cdb2d07e1f45bb"], "sequence": 4294967295, "scriptSig": {"hex": "16001482efb54cf34655a38c49f90017d316d1affdae2a", "asm": "001482efb54cf34655a38c49f90017d316d1affdae2a"}, "vout": 0, "txid": "42133da3f94f833d62ba91764af4cbc14d4999b085c22c5273a55ffe43c4cf60"}], "txid": "ccb8e75ac647ecd4eb8b4772a556bb1f0a0ec6e219869011b93dd337c726a4a1", "blocktime": 1537870268, "version": 1, "confirmations": 11518, "time": 1537870268, "locktime": 0, "vsize": 167, "size": 249}