{"hash": "7a7b12be1d5b8a2e3584d5d55c7594bff5b34d32d82dda50682d59f56cd85f0c", "blockhash": "0000000000000000000dcc0f55137456b1a82d3642486a52398922ac4d620174", "vout": [{"scriptPubKey": {"reqSigs": 1, "hex": "76a914808e63832d85b054dc8dfa4b3b63f1032fac17a588ac", "addresses": ["1Cik4tyEYFuAVGV66XDwUN7DCqhdViZZ4f"], "asm": "OP_DUP OP_HASH160 808e63832d85b054dc8dfa4b3b63f1032fac17a5 OP_EQUALVERIFY OP_CHECKSIG", "type": "pubkeyhash"}, "value": 0.11476, "n": 0}, {"scriptPubKey": {"reqSigs": 1, "hex": "a914816fd254f3c041c2c06c7fe8a3e47c71b5fca96387", "addresses": ["3DVR3nrjhaUcL2JevKmDPxj5mcUNwQvB9H"], "asm": "OP_HASH160 816fd254f3c041c2c06c7fe8a3e47c71b5fca963 OP_EQUAL", "type": "scripthash"}, "value": 0.21449211, "n": 1}], "hex": "010000000001028ac859413593f434ef3e81e67bfb43ca65222ede3e8a447ad0dd43e8a31a265d0100000023220020cdd867a148c10254ddb44d8ce4fa921f159eb16c25bf55fa3107f40c09f3df63fffffffff12526ee96b47de556aacbf0a5e67c369286f3c174fec3c6428bdfc3d96762f10100000023220020ab1d11f4a1fddc4c84fbdcd34b0e4f6b03307a188d10ee485b392cafd608fa3bffffffff02201caf00000000001976a914808e63832d85b054dc8dfa4b3b63f1032fac17a588acfb4947010000000017a914816fd254f3c041c2c06c7fe8a3e47c71b5fca96387040047304402206367da1601850fb6a6e4c35084b903c1168350636362a4ec526166cb386e4da702201e5b13dc70f0befc8a9352e82ab955908a5ce4a2980571041ee19b3562cab5b3014830450221008a2f1deb1d01f1d1ef2c8c42cc1f36a0fc8c221c927e61fbe2ff02c106df2d050220039e074015b695ae9cfeabd110bacdbb845577b5c287001b5097f0435b8f78860147522103963110792401cc15319b2452f4d4408e8346ab9e611f4a9a15ad2a898943d5542103775727e939d2d52832d787818e9cc31e086ea173bbfa7d8248bbfa2aaee3bde052ae0400473044022052bd6134b4c376eab78c3f1f07aa252fc17f5ffc0b19f28bafcb3eaa5994b4e70220398cd6a63fa0181f457e0fbb28f0fae1924c094efc7d36b7cca8328df058b36e014830450221008eabfdb33247dc68187c412982cb426e1c99c4e7c6658c76191ac1f8d8046cfa02200c3a56ffa7702a52896196d24a699887c92257767f35365159004fd8333b952a0147522103a84bf6b5a31ea30ec955d6b6d3ca60799a7f71d64001cb33f70b2d01ff87b86b2103775727e939d2d52832d787818e9cc31e086ea173bbfa7d8248bbfa2aaee3bde052ae00000000", "vin": [{"txinwitness": ["", "304402206367da1601850fb6a6e4c35084b903c1168350636362a4ec526166cb386e4da702201e5b13dc70f0befc8a9352e82ab955908a5ce4a2980571041ee19b3562cab5b301", "30450221008a2f1deb1d01f1d1ef2c8c42cc1f36a0fc8c221c927e61fbe2ff02c106df2d050220039e074015b695ae9cfeabd110bacdbb845577b5c287001b5097f0435b8f788601", "522103963110792401cc15319b2452f4d4408e8346ab9e611f4a9a15ad2a898943d5542103775727e939d2d52832d787818e9cc31e086ea173bbfa7d8248bbfa2aaee3bde052ae"], "sequence": 4294967295, "scriptSig": {"hex": "220020cdd867a148c10254ddb44d8ce4fa921f159eb16c25bf55fa3107f40c09f3df63", "asm": "0020cdd867a148c10254ddb44d8ce4fa921f159eb16c25bf55fa3107f40c09f3df63"}, "vout": 1, "txid": "5d261aa3e843ddd07a448a3ede2e2265ca43fb7be6813eef34f493354159c88a"}, {"txinwitness": ["", "3044022052bd6134b4c376eab78c3f1f07aa252fc17f5ffc0b19f28bafcb3eaa5994b4e70220398cd6a63fa0181f457e0fbb28f0fae1924c094efc7d36b7cca8328df058b36e01", "30450221008eabfdb33247dc68187c412982cb426e1c99c4e7c6658c76191ac1f8d8046cfa02200c3a56ffa7702a52896196d24a699887c92257767f35365159004fd8333b952a01", "522103a84bf6b5a31ea30ec955d6b6d3ca60799a7f71d64001cb33f70b2d01ff87b86b2103775727e939d2d52832d787818e9cc31e086ea173bbfa7d8248bbfa2aaee3bde052ae"], "sequence": 4294967295, "scriptSig": {"hex": "220020ab1d11f4a1fddc4c84fbdcd34b0e4f6b03307a188d10ee485b392cafd608fa3b", "asm": "0020ab1d11f4a1fddc4c84fbdcd34b0e4f6b03307a188d10ee485b392cafd608fa3b"}, "vout": 1, "txid": "f16267d9c3df8b42c6c3fe74c1f38692367ce6a5f0cbaa56e57db496ee2625f1"}], "txid": "ccb9c86f41e11d4a2c0778e8d770bfbc3d4496f38167a32daa7e9f5dd337f983", "blocktime": 1537870268, "version": 1, "confirmations": 11518, "time": 1537870268, "locktime": 0, "vsize": 338, "size": 668}