{"hash": "6aad5ae4a089678066c7e9d652c29942db09a8d98df44b5c3bdca62a546e27c8", "blockhash": "0000000000000000000baef3f32e3676a92c3b2e5da21b426e4f302fc371ce76", "vout": [{"scriptPubKey": {"reqSigs": 1, "hex": "76a9148fee250c6e0f46bd05a0b844438fdb79a297948188ac", "addresses": ["1E82v1zKn12MnVzWoktTpHrD32hPsgSE8c"], "asm": "OP_DUP OP_HASH160 8fee250c6e0f46bd05a0b844438fdb79a2979481 OP_EQUALVERIFY OP_CHECKSIG", "type": "pubkeyhash"}, "value": 0.00013591, "n": 0}, {"scriptPubKey": {"reqSigs": 1, "hex": "a914414cec0fc72a9410f6836edaf08de1aa3b2a321c87", "addresses": ["37eHzewnAFRR2SVZu8rZM3nBsmuE2XBU7D"], "asm": "OP_HASH160 414cec0fc72a9410f6836edaf08de1aa3b2a321c OP_EQUAL", "type": "scripthash"}, "value": 0.22930616, "n": 1}], "hex": "010000000001019a87176298fb489ed0ac1773cc13f7fa05a832160bef9b5bfa083129b9aff5c50100000023220020ce74cde37cfb8dd71d0179287e12fc721ee236ce3c89c2745bcd365b39807eb3ffffffff0217350000000000001976a9148fee250c6e0f46bd05a0b844438fdb79a297948188acb8e45d010000000017a914414cec0fc72a9410f6836edaf08de1aa3b2a321c870400483045022100da099b23598a8c8bfda5b89f7ef72b5c6122d9b5f90242d39ae90e97bd2b2cfd0220269d819e2dde465a418358482093fe6b243af4b33d189144278b74c20a841eff01483045022100b3fbec67b8ed10b596d5d0c867e527297e8af5007830dc8adb6c0aa3d0d3214e02204225d5d40532fcd73550e5608e4cc23c1602669d78f84779fa8cda4970e7a0f80147522103ada901d90d5a76319a60f228e0b1bbc84b1d9a87238550bae5d5d190067b66712103871fc2ca08e6950b38867e8e6a0e94ee625223d3aa0df5c65f414c6d784467e252ae00000000", "vin": [{"txinwitness": ["", "3045022100da099b23598a8c8bfda5b89f7ef72b5c6122d9b5f90242d39ae90e97bd2b2cfd0220269d819e2dde465a418358482093fe6b243af4b33d189144278b74c20a841eff01", "3045022100b3fbec67b8ed10b596d5d0c867e527297e8af5007830dc8adb6c0aa3d0d3214e02204225d5d40532fcd73550e5608e4cc23c1602669d78f84779fa8cda4970e7a0f801", "522103ada901d90d5a76319a60f228e0b1bbc84b1d9a87238550bae5d5d190067b66712103871fc2ca08e6950b38867e8e6a0e94ee625223d3aa0df5c65f414c6d784467e252ae"], "sequence": 4294967295, "scriptSig": {"hex": "220020ce74cde37cfb8dd71d0179287e12fc721ee236ce3c89c2745bcd365b39807eb3", "asm": "0020ce74cde37cfb8dd71d0179287e12fc721ee236ce3c89c2745bcd365b39807eb3"}, "vout": 1, "txid": "c5f5afb9293108fa5b9bef0b1632a805faf713cc7317acd09e48fb986217879a"}], "txid": "ccbbca1c86579f2419522ed8a49640bd668d525843b0e119689a75fcb921d700", "blocktime": 1537876114, "version": 1, "confirmations": 11462, "time": 1537876114, "locktime": 0, "vsize": 208, "size": 374}