{"hash": "ccc031c212493dd1fea691208f3010540a3600a54d6fccff4ef226b40e0d6cda", "blockhash": "000000000000000000022b45ed06c6f4ccd3cf7fb5ba4856ebd2e58215665228", "vout": [{"scriptPubKey": {"reqSigs": 1, "hex": "76a91463b20ff4f07c458204f98e5209c9f1a15ca15e0d88ac", "addresses": ["1A69CymxPsmn37awSMdwNbwmyY2rSCuJJY"], "asm": "OP_DUP OP_HASH160 63b20ff4f07c458204f98e5209c9f1a15ca15e0d OP_EQUALVERIFY OP_CHECKSIG", "type": "pubkeyhash"}, "value": 0.17390925, "n": 0}], "hex": "0100000001cf93c1a0706e2f9115ff45b3f4a31f967a8f40f4d023ec39a1e1316f2498d525010000006a4730440220273f84a0b36c618ceef859dcb9cd821dbd5d0ef44e7589993bad668927ac8f0202204c2892cd0221fe4359ed4a531fd8a5646a24b26b955073656407fcecdebfcbbb0121032bc42deeaa62b50eda0f5faea140f6874d9eb70667917c07bcabe7bd1c689657ffffffff014d5d0901000000001976a91463b20ff4f07c458204f98e5209c9f1a15ca15e0d88ac00000000", "vin": [{"sequence": 4294967295, "scriptSig": {"hex": "4730440220273f84a0b36c618ceef859dcb9cd821dbd5d0ef44e7589993bad668927ac8f0202204c2892cd0221fe4359ed4a531fd8a5646a24b26b955073656407fcecdebfcbbb0121032bc42deeaa62b50eda0f5faea140f6874d9eb70667917c07bcabe7bd1c689657", "asm": "30440220273f84a0b36c618ceef859dcb9cd821dbd5d0ef44e7589993bad668927ac8f0202204c2892cd0221fe4359ed4a531fd8a5646a24b26b955073656407fcecdebfcbbb[ALL] 032bc42deeaa62b50eda0f5faea140f6874d9eb70667917c07bcabe7bd1c689657"}, "vout": 1, "txid": "25d598246f31e1a139ec23d0f4408f7a961fa3f4b345ff15912f6e70a0c193cf"}], "txid": "ccc031c212493dd1fea691208f3010540a3600a54d6fccff4ef226b40e0d6cda", "blocktime": 1537869901, "version": 1, "confirmations": 11522, "time": 1537869901, "locktime": 0, "vsize": 191, "size": 191}