{"hash": "ccc2c82d3585d93653794e29919ba4d3a05de1bc73a44355927377a6e5762df5", "blockhash": "00000000000000000024a2167bbff67b0be802c0b01cdd79e6331c2be6459f87", "vout": [{"scriptPubKey": {"reqSigs": 1, "hex": "76a914ba3f9715e08332adaa01c8ba4fea5cc1fdc5bd2e88ac", "addresses": ["1Hyns1CcsiAgWed1Eiq8RU9MtchD7n6nyt"], "asm": "OP_DUP OP_HASH160 ba3f9715e08332adaa01c8ba4fea5cc1fdc5bd2e OP_EQUALVERIFY OP_CHECKSIG", "type": "pubkeyhash"}, "value": 0.0010522, "n": 0}, {"scriptPubKey": {"type": "nulldata", "hex": "6a4c500000777d0001de4215b43db0a279af8825cebcbefa6b8351586b4e86aeaeacb577c031fc9c1e8c6132e0f3bf2d685b9279d73f765baa0a7f0614a37d269892c0bc9a9526289ac0f6612cd74e33776ee4", "asm": "OP_RETURN 0000777d0001de4215b43db0a279af8825cebcbefa6b8351586b4e86aeaeacb577c031fc9c1e8c6132e0f3bf2d685b9279d73f765baa0a7f0614a37d269892c0bc9a9526289ac0f6612cd74e33776ee4"}, "value": 0.0, "n": 1}], "hex": "01000000015a926fd008aca7922753fe9010151ce779896a8b03a298b1269a039e3fdc3b8d000000006a473044022061593f69409db00d001355af1d10100b5fd0d2b3cbb9d1cee94995d4703b8ea902205e0c4b79ab5ad9860a2f29aa5f5010d9e022b4dc3ef5439517eddc4806e8121b0121030d676152b5e5e101bc229762ff7ef618807153412aa979d47d489799e1fdc867ffffffff02049b0100000000001976a914ba3f9715e08332adaa01c8ba4fea5cc1fdc5bd2e88ac0000000000000000536a4c500000777d0001de4215b43db0a279af8825cebcbefa6b8351586b4e86aeaeacb577c031fc9c1e8c6132e0f3bf2d685b9279d73f765baa0a7f0614a37d269892c0bc9a9526289ac0f6612cd74e33776ee400000000", "vin": [{"sequence": 4294967295, "scriptSig": {"hex": "473044022061593f69409db00d001355af1d10100b5fd0d2b3cbb9d1cee94995d4703b8ea902205e0c4b79ab5ad9860a2f29aa5f5010d9e022b4dc3ef5439517eddc4806e8121b0121030d676152b5e5e101bc229762ff7ef618807153412aa979d47d489799e1fdc867", "asm": "3044022061593f69409db00d001355af1d10100b5fd0d2b3cbb9d1cee94995d4703b8ea902205e0c4b79ab5ad9860a2f29aa5f5010d9e022b4dc3ef5439517eddc4806e8121b[ALL] 030d676152b5e5e101bc229762ff7ef618807153412aa979d47d489799e1fdc867"}, "vout": 0, "txid": "8d3bdc3f9e039a26b198a2038b6a8979e71c151090fe532792a7ac08d06f925a"}], "txid": "ccc2c82d3585d93653794e29919ba4d3a05de1bc73a44355927377a6e5762df5", "blocktime": 1537870564, "version": 1, "confirmations": 11515, "time": 1537870564, "locktime": 0, "vsize": 283, "size": 283}