{"hash": "6513be410aee764844d10d39fbaa41ce9d136b4fe6ac9f8d3a327b84e739de0e", "blockhash": "0000000000000000001f0ddff1eddb255c1121bcd4da4f1bc9a0da00cae72433", "vout": [{"scriptPubKey": {"reqSigs": 1, "hex": "a914635266eacbdaa05738af653e9c29f6ca54c9aea987", "addresses": ["3AkBXvm3VhWzn2V6yhuxEJRuyW9jXW4435"], "asm": "OP_HASH160 635266eacbdaa05738af653e9c29f6ca54c9aea9 OP_EQUAL", "type": "scripthash"}, "value": 0.01009305, "n": 0}, {"scriptPubKey": {"reqSigs": 1, "hex": "76a914a8d14ccf350599411331bfc3c7a17d02dc078df988ac", "addresses": ["1GPdFeeGJHdEZWYKu2yStedN2EGhNbmSXs"], "asm": "OP_DUP OP_HASH160 a8d14ccf350599411331bfc3c7a17d02dc078df9 OP_EQUALVERIFY OP_CHECKSIG", "type": "pubkeyhash"}, "value": 0.00211013, "n": 1}], "hex": "020000000001032a3e2e15fe75724ae724232d90ac4c579fbba157861290a7acea01d99041a4fe1100000017160014c21cbd0c3f7559b63f6a527dbbe7001272fd0a4afeffffff35a3e89ce9f230c3951bf4d2fc049d2f717f7fc212017a1802953af182691e9a010000001716001474d370c13d732daae4dd52d6ec445cb436b65958feffffff9b8d1b19fb4ddb0f25c9f597a1113837f530b376618570ed4bbdfa0cccb2650e0000000017160014596fd2074e648371e8e146f4a14886452c4bbbd3feffffff0299660f000000000017a914635266eacbdaa05738af653e9c29f6ca54c9aea98745380300000000001976a914a8d14ccf350599411331bfc3c7a17d02dc078df988ac0248304502210092caf590a8d36709ea7aab679a53b6810b28c0b2e337032f835a740fb2662a9e02202264f2ff2b249f9067db2b948e3f7cdb91b044083278c40c807144931f4628bb012102cb28ad75ba30e0dfa3ef423ba425bb221541f9136408b28d212e0c430e4c0ae5024730440220744e2d986bb79e7b6a6afc7e73345c496d70f04fd1f69a3641408bb1be4c45be02207fbed61e9107cf2bba43870c52d0c01bda74f78331aee33549aff7d138c6063b012102b9f7756ea6d291cf4bc9f5a0d14d680c05adfbe7a35d210d56d60a45488ebdab0247304402200f61c8eba355b1870c1a59674fbcd6e40789ad55509144134694e9a292f4206b022041460e1824f2d6305293595af105eb0645009a7f5ad62230e48b85b295ef47140121026e8b53accec2106988b09d758f48d23ae9c324b1c7c7bb9d5a7978ee97770019d1480800", "vin": [{"txinwitness": ["304502210092caf590a8d36709ea7aab679a53b6810b28c0b2e337032f835a740fb2662a9e02202264f2ff2b249f9067db2b948e3f7cdb91b044083278c40c807144931f4628bb01", "02cb28ad75ba30e0dfa3ef423ba425bb221541f9136408b28d212e0c430e4c0ae5"], "sequence": 4294967294, "scriptSig": {"hex": "160014c21cbd0c3f7559b63f6a527dbbe7001272fd0a4a", "asm": "0014c21cbd0c3f7559b63f6a527dbbe7001272fd0a4a"}, "vout": 17, "txid": "fea44190d901eaaca790128657a1bb9f574cac902d2324e74a7275fe152e3e2a"}, {"txinwitness": ["30440220744e2d986bb79e7b6a6afc7e73345c496d70f04fd1f69a3641408bb1be4c45be02207fbed61e9107cf2bba43870c52d0c01bda74f78331aee33549aff7d138c6063b01", "02b9f7756ea6d291cf4bc9f5a0d14d680c05adfbe7a35d210d56d60a45488ebdab"], "sequence": 4294967294, "scriptSig": {"hex": "16001474d370c13d732daae4dd52d6ec445cb436b65958", "asm": "001474d370c13d732daae4dd52d6ec445cb436b65958"}, "vout": 1, "txid": "9a1e6982f13a9502187a0112c27f7f712f9d04fcd2f41b95c330f2e99ce8a335"}, {"txinwitness": ["304402200f61c8eba355b1870c1a59674fbcd6e40789ad55509144134694e9a292f4206b022041460e1824f2d6305293595af105eb0645009a7f5ad62230e48b85b295ef471401", "026e8b53accec2106988b09d758f48d23ae9c324b1c7c7bb9d5a7978ee97770019"], "sequence": 4294967294, "scriptSig": {"hex": "160014596fd2074e648371e8e146f4a14886452c4bbbd3", "asm": "0014596fd2074e648371e8e146f4a14886452c4bbbd3"}, "vout": 0, "txid": "0e65b2cc0cfabd4bed70856176b330f5373811a197f5c9250fdb4dfb191b8d9b"}], "txid": "ccc4b5fd3c43a05f3d2038bf62ad746caf0f46aa91f06239e9ba94c6135d439d", "blocktime": 1537872018, "version": 2, "confirmations": 11489, "time": 1537872018, "locktime": 542929, "vsize": 349, "size": 592}