{"hash": "ccc739c4381d8c20e5b0bc58e0128702ac089b65af95f915cd3e6cd26ab2539d", "blockhash": "00000000000000000004ffacab907a6b429b9a5745fa0b75af4234bf69dd7176", "vout": [{"scriptPubKey": {"reqSigs": 1, "hex": "76a914ce76aa894ee3699ee5ca239d7681029c131a3df388ac", "addresses": ["1KpgMb18fT4YSNpHAwdv7kuyiPRqsNAUjg"], "asm": "OP_DUP OP_HASH160 ce76aa894ee3699ee5ca239d7681029c131a3df3 OP_EQUALVERIFY OP_CHECKSIG", "type": "pubkeyhash"}, "value": 0.07984281, "n": 0}, {"scriptPubKey": {"reqSigs": 1, "hex": "76a91433c9891dbd88a29bb2780e821f07490b2099289488ac", "addresses": ["15iptiwG1yWbsV3GZQAvEy31VVnjNZLa5w"], "asm": "OP_DUP OP_HASH160 33c9891dbd88a29bb2780e821f07490b20992894 OP_EQUALVERIFY OP_CHECKSIG", "type": "pubkeyhash"}, "value": 0.106038, "n": 1}], "hex": "0100000001f44e9d9328a9e72dd1fc88a96c6b00b21a08464ff76489430e6e569b36ce6970010000006b483045022100c54589bc9f4f68154d1fab6bda4c35c8bf347a4dbddd5390d172b9e8527a27bf02200a2b24f61f66ada97d0dcd1c9e3e947589b25d08c35788bf12966760801cbbb70121032b8d7402bd6a3b988539ad8fc888eca88b11cf4652ae43f7c3ee5bcf871ec409ffffffff0299d47900000000001976a914ce76aa894ee3699ee5ca239d7681029c131a3df388ac18cda100000000001976a91433c9891dbd88a29bb2780e821f07490b2099289488ac00000000", "vin": [{"sequence": 4294967295, "scriptSig": {"hex": "483045022100c54589bc9f4f68154d1fab6bda4c35c8bf347a4dbddd5390d172b9e8527a27bf02200a2b24f61f66ada97d0dcd1c9e3e947589b25d08c35788bf12966760801cbbb70121032b8d7402bd6a3b988539ad8fc888eca88b11cf4652ae43f7c3ee5bcf871ec409", "asm": "3045022100c54589bc9f4f68154d1fab6bda4c35c8bf347a4dbddd5390d172b9e8527a27bf02200a2b24f61f66ada97d0dcd1c9e3e947589b25d08c35788bf12966760801cbbb7[ALL] 032b8d7402bd6a3b988539ad8fc888eca88b11cf4652ae43f7c3ee5bcf871ec409"}, "vout": 1, "txid": "7069ce369b566e0e438964f74f46081ab2006b6ca988fcd12de7a928939d4ef4"}], "txid": "ccc739c4381d8c20e5b0bc58e0128702ac089b65af95f915cd3e6cd26ab2539d", "blocktime": 1537875543, "version": 1, "confirmations": 11464, "time": 1537875543, "locktime": 0, "vsize": 226, "size": 226}