{"hash": "837af1d6565cb88dddd6b8ba3ed830120acf5fd16df547369facafe2cc81a02b", "blockhash": "0000000000000000000dcc0f55137456b1a82d3642486a52398922ac4d620174", "vout": [{"scriptPubKey": {"reqSigs": 1, "hex": "a914fd90f468a343c403103a19e04de16264df62ee4587", "addresses": ["3QokXhzCzmgBXE8uo15NBYG1Yc6j1s66kP"], "asm": "OP_HASH160 fd90f468a343c403103a19e04de16264df62ee45 OP_EQUAL", "type": "scripthash"}, "value": 0.03428411, "n": 0}, {"scriptPubKey": {"reqSigs": 1, "hex": "a914bf6da071c1dd34955c7aff139f5972e32b44e9ec87", "addresses": ["3K9CKBYC2TKSyNXk4GTqZenTFh1BjH36cz"], "asm": "OP_HASH160 bf6da071c1dd34955c7aff139f5972e32b44e9ec OP_EQUAL", "type": "scripthash"}, "value": 8.55462903, "n": 1}], "hex": "0200000000010155d0bef33a79f0ba63e3cd69c9071ec5d8098db7f671bc2906c09720bfcafe4c0000000017160014cae4a71c40e50339d826db3b444d586430a78507feffffff023b5034000000000017a914fd90f468a343c403103a19e04de16264df62ee4587f753fd320000000017a914bf6da071c1dd34955c7aff139f5972e32b44e9ec8702483045022100837c161fd4eb7d2972602b729183d77999ec4a09640ddb82d84aaa44ce22c7ef02207f6174546d73a2fd6639646e9b23545e4f6c8e7b6ee2624930706d4af94edb0e012103674dc19dd8c7d9553645eef9aad163222ee138abeffa35e05c90d4f05181b3390c490800", "vin": [{"txinwitness": ["3045022100837c161fd4eb7d2972602b729183d77999ec4a09640ddb82d84aaa44ce22c7ef02207f6174546d73a2fd6639646e9b23545e4f6c8e7b6ee2624930706d4af94edb0e01", "03674dc19dd8c7d9553645eef9aad163222ee138abeffa35e05c90d4f05181b339"], "sequence": 4294967294, "scriptSig": {"hex": "160014cae4a71c40e50339d826db3b444d586430a78507", "asm": "0014cae4a71c40e50339d826db3b444d586430a78507"}, "vout": 0, "txid": "4cfecabf2097c00629bc71f6b78d09d8c51e07c969cde363baf0793af3bed055"}], "txid": "cccdf7395fa496a4c0eefd1d10333a042844cd6aa9f50045da9a2e148cac7a9f", "blocktime": 1537870268, "version": 2, "confirmations": 11516, "time": 1537870268, "locktime": 542988, "vsize": 166, "size": 248}