{"hash": "ccd02c6331ee25e78f060226986bd81131a8ab9161a8160e75560ef7d19f7251", "blockhash": "00000000000000000017f5eb5941039fbcee6240d03bc1f2f8e35350df66a1d8", "vout": [{"scriptPubKey": {"reqSigs": 1, "hex": "a9145a84bf623d1eeed89b3e33c070f1b416fecd1fad87", "addresses": ["39wdmGnQRYAP3pDHSPC76RzkUF7cE3P3L7"], "asm": "OP_HASH160 5a84bf623d1eeed89b3e33c070f1b416fecd1fad OP_EQUAL", "type": "scripthash"}, "value": 0.00234592, "n": 0}, {"scriptPubKey": {"reqSigs": 1, "hex": "76a914c7d744047398279126cb1ce5f32ae1868aa71fbc88ac", "addresses": ["1KDfM6cfsdNtsyJWexpPZAzBNNmebBUUNU"], "asm": "OP_DUP OP_HASH160 c7d744047398279126cb1ce5f32ae1868aa71fbc OP_EQUALVERIFY OP_CHECKSIG", "type": "pubkeyhash"}, "value": 0.00285255, "n": 1}], "hex": "010000000133bae2e006f02176571b3a2c9f5d7d5c7092d5de5511033b166b48adc26b1e51000000006a47304402200324d5f7b18b1ebf4e75594014a1f26a99bcc67913c725ef4fda752af5a6c72a02202d019d84ef8752c38a9506515bbd36711aff50ace0f179d5fd0e0710c1b8907301210249f7fd36ca9f39dafe08f57f7b0f9cdb1a4408b6206684d74f5ba9709f753d58ffffffff02609403000000000017a9145a84bf623d1eeed89b3e33c070f1b416fecd1fad87475a0400000000001976a914c7d744047398279126cb1ce5f32ae1868aa71fbc88ac00000000", "vin": [{"sequence": 4294967295, "scriptSig": {"hex": "47304402200324d5f7b18b1ebf4e75594014a1f26a99bcc67913c725ef4fda752af5a6c72a02202d019d84ef8752c38a9506515bbd36711aff50ace0f179d5fd0e0710c1b8907301210249f7fd36ca9f39dafe08f57f7b0f9cdb1a4408b6206684d74f5ba9709f753d58", "asm": "304402200324d5f7b18b1ebf4e75594014a1f26a99bcc67913c725ef4fda752af5a6c72a02202d019d84ef8752c38a9506515bbd36711aff50ace0f179d5fd0e0710c1b89073[ALL] 0249f7fd36ca9f39dafe08f57f7b0f9cdb1a4408b6206684d74f5ba9709f753d58"}, "vout": 0, "txid": "511e6bc2ad486b163b031155ded592705c7d5d9f2c3a1b577621f006e0e2ba33"}], "txid": "ccd02c6331ee25e78f060226986bd81131a8ab9161a8160e75560ef7d19f7251", "blocktime": 1537874412, "version": 1, "confirmations": 11467, "time": 1537874412, "locktime": 0, "vsize": 223, "size": 223}