{"hash": "7d6ba90f1b384f4c7c514489420b3e35ae19b1c2f1ed04dde8d0752afbab77db", "blockhash": "000000000000000000022b45ed06c6f4ccd3cf7fb5ba4856ebd2e58215665228", "vout": [{"scriptPubKey": {"reqSigs": 1, "hex": "a914a04b8c5758c0c5f3b520f2192966565e2e28f97b87", "addresses": ["3GJaYRCpafTaniwsnuXmWhHnQmLz8zkzke"], "asm": "OP_HASH160 a04b8c5758c0c5f3b520f2192966565e2e28f97b OP_EQUAL", "type": "scripthash"}, "value": 0.01331786, "n": 0}, {"scriptPubKey": {"reqSigs": 1, "hex": "76a914bbaec083b5e6b2619a44122d11954d363152fd0488ac", "addresses": ["1J7NhraWXwxB5EzsPgHjvHxXqAAYgWV397"], "asm": "OP_DUP OP_HASH160 bbaec083b5e6b2619a44122d11954d363152fd04 OP_EQUALVERIFY OP_CHECKSIG", "type": "pubkeyhash"}, "value": 0.00283301, "n": 1}], "hex": "02000000000101c2042de02b1d37f00f6569480e75bc94c9cfe5d332bdad0394453cc870b1d6d5000000001716001492fbd07481017c74e8ce47f46f536a0b1dd60864feffffff024a5214000000000017a914a04b8c5758c0c5f3b520f2192966565e2e28f97b87a5520400000000001976a914bbaec083b5e6b2619a44122d11954d363152fd0488ac0247304402204ea0e5b153ff8e98a7ccbb9283fbcdd3be1d48ddeaa856c6a6b952501b5481510220040202eb07e50377ec7ffa4037c0f6e7f5b4abfe1f242f796542f1e51a3578450121038a9fa0b384ae994da5de1e0c7b2349c2f679f0612e865dfb82047c1194a9f8a90b490800", "vin": [{"txinwitness": ["304402204ea0e5b153ff8e98a7ccbb9283fbcdd3be1d48ddeaa856c6a6b952501b5481510220040202eb07e50377ec7ffa4037c0f6e7f5b4abfe1f242f796542f1e51a35784501", "038a9fa0b384ae994da5de1e0c7b2349c2f679f0612e865dfb82047c1194a9f8a9"], "sequence": 4294967294, "scriptSig": {"hex": "16001492fbd07481017c74e8ce47f46f536a0b1dd60864", "asm": "001492fbd07481017c74e8ce47f46f536a0b1dd60864"}, "vout": 0, "txid": "d5d6b170c83c459403adbd32d3e5cfc994bc750e4869650ff0371d2be02d04c2"}], "txid": "ccd1ed18fd9f7d26652dfb4d007e9132771f795eb3263863719acbcffcb7c513", "blocktime": 1537869901, "version": 2, "confirmations": 11524, "time": 1537869901, "locktime": 542987, "vsize": 168, "size": 249}