{"hash": "ccd227d864b52d5b8d9c8f7742007a84b230ab82c88f986441564f30441dbcf4", "blockhash": "00000000000000000024a2167bbff67b0be802c0b01cdd79e6331c2be6459f87", "vout": [{"scriptPubKey": {"reqSigs": 1, "hex": "76a9143d8bc8fffdd148dea2b7a6543f5f43956985573a88ac", "addresses": ["16cRg9PLzyqoUfPQvSedo9TGHp5NfqHJye"], "asm": "OP_DUP OP_HASH160 3d8bc8fffdd148dea2b7a6543f5f43956985573a OP_EQUALVERIFY OP_CHECKSIG", "type": "pubkeyhash"}, "value": 0.267236, "n": 0}, {"scriptPubKey": {"reqSigs": 1, "hex": "76a91465e2f2613add70901267f794b3220c8c7aa2cfa888ac", "addresses": ["1AHj7v45N3pNgt3mDMVNgD1WX5dfGDGVFd"], "asm": "OP_DUP OP_HASH160 65e2f2613add70901267f794b3220c8c7aa2cfa8 OP_EQUALVERIFY OP_CHECKSIG", "type": "pubkeyhash"}, "value": 0.0002, "n": 1}], "hex": "0100000001cf841838acb9f4d9528b728f124084c6613aff3ff35011cec1969883055a597a3b0000006b483045022100fa76418a864a41641a16d0b9634dc92f650c5dfc1b5e8ea19e2bce8becb7f31802207572647465549494c2715416c0af813d59f864835c0a96644061d0b72264dd0b0121025a55bf8af6c9bb7c1d533d9d3acee06676dc498f6b3c5b04f3e63e2df1077eb9ffffffff0210c59701000000001976a9143d8bc8fffdd148dea2b7a6543f5f43956985573a88ac204e0000000000001976a91465e2f2613add70901267f794b3220c8c7aa2cfa888ac00000000", "vin": [{"sequence": 4294967295, "scriptSig": {"hex": "483045022100fa76418a864a41641a16d0b9634dc92f650c5dfc1b5e8ea19e2bce8becb7f31802207572647465549494c2715416c0af813d59f864835c0a96644061d0b72264dd0b0121025a55bf8af6c9bb7c1d533d9d3acee06676dc498f6b3c5b04f3e63e2df1077eb9", "asm": "3045022100fa76418a864a41641a16d0b9634dc92f650c5dfc1b5e8ea19e2bce8becb7f31802207572647465549494c2715416c0af813d59f864835c0a96644061d0b72264dd0b[ALL] 025a55bf8af6c9bb7c1d533d9d3acee06676dc498f6b3c5b04f3e63e2df1077eb9"}, "vout": 59, "txid": "7a595a05839896c1ce1150f33fff3a61c68440128f728b52d9f4b9ac381884cf"}], "txid": "ccd227d864b52d5b8d9c8f7742007a84b230ab82c88f986441564f30441dbcf4", "blocktime": 1537870564, "version": 1, "confirmations": 11515, "time": 1537870564, "locktime": 0, "vsize": 226, "size": 226}