{"hash": "208dcd9540614f92dbead05bfd63e6234873497100ec202f22e75da0416a5876", "blockhash": "0000000000000000001cda96e906b7601b7a6fb1a3b62bca570a9e5d8f4b3de1", "vout": [{"scriptPubKey": {"reqSigs": 1, "hex": "00144e54a42ff98cdd7875ed281689590a6648bd2af1", "addresses": ["bc1qfe22gtle3nwhsa0d9qtgjkg2veyt62h3m772q9"], "asm": "0 4e54a42ff98cdd7875ed281689590a6648bd2af1", "type": "witness_v0_keyhash"}, "value": 0.002256, "n": 0}, {"scriptPubKey": {"reqSigs": 1, "hex": "a914e192887c777d90cca485dccaab1483e4b2f7f75a87", "addresses": ["3NFjW1No8id1RrPSVL4vxJ78kVnownyREa"], "asm": "OP_HASH160 e192887c777d90cca485dccaab1483e4b2f7f75a OP_EQUAL", "type": "scripthash"}, "value": 0.0218523, "n": 1}], "hex": "0100000000010199dcfcf5dd737fed2bacf7a43724680e1dbdeea5a742931896805f06e85d71130100000017160014ba41272a0995aa60496b44a765fd128fa5a4d1dbffffffff0240710300000000001600144e54a42ff98cdd7875ed281689590a6648bd2af10e5821000000000017a914e192887c777d90cca485dccaab1483e4b2f7f75a87024730440220480d607f0b7b917aa3a5043eaf3ccbec274bcb22851bd70bf727e6f3a4bf276d02203ebff5b239b464f1410987d7107684aebc13d5f83c8127b85daa2a901c02951e01210356100789f69d3ba5e209621105ed34296853856fe60b9821049c94344ee6677a00000000", "vin": [{"txinwitness": ["30440220480d607f0b7b917aa3a5043eaf3ccbec274bcb22851bd70bf727e6f3a4bf276d02203ebff5b239b464f1410987d7107684aebc13d5f83c8127b85daa2a901c02951e01", "0356100789f69d3ba5e209621105ed34296853856fe60b9821049c94344ee6677a"], "sequence": 4294967295, "scriptSig": {"hex": "160014ba41272a0995aa60496b44a765fd128fa5a4d1db", "asm": "0014ba41272a0995aa60496b44a765fd128fa5a4d1db"}, "vout": 1, "txid": "13715de8065f8096189342a7a5eebd1d0e682437a4f7ac2bed7f73ddf5fcdc99"}], "txid": "ccdc59d267a024630e710e1e5b0b509cc5969fcbf2add73124597cffdc03696c", "blocktime": 1537873282, "version": 1, "confirmations": 11485, "time": 1537873282, "locktime": 0, "vsize": 165, "size": 246}