{"hash": "ccdc2116a7abf268ad7f40c8e5126b5d14c37c0ec82404bb691269ce113582ca", "blockhash": "0000000000000000001cda96e906b7601b7a6fb1a3b62bca570a9e5d8f4b3de1", "vout": [{"scriptPubKey": {"type": "nulldata", "hex": "6a2e04c2dd9a83ce35935f71f42f6fe070f65207d723d815a4613cea55156a15ae4f86c88d3098efb96a29f26b5c82b4", "asm": "OP_RETURN 04c2dd9a83ce35935f71f42f6fe070f65207d723d815a4613cea55156a15ae4f86c88d3098efb96a29f26b5c82b4"}, "value": 0.0, "n": 0}, {"scriptPubKey": {"reqSigs": 1, "hex": "76a914d6576f47d42bfe9eea4a43871fa23f1132fd139188ac", "addresses": ["1LYLM7zDqK9VGuhPkaPd1Z7g5WLWp2N3U9"], "asm": "OP_DUP OP_HASH160 d6576f47d42bfe9eea4a43871fa23f1132fd1391 OP_EQUALVERIFY OP_CHECKSIG", "type": "pubkeyhash"}, "value": 0.0013296, "n": 1}], "hex": "01000000017de231e172d4358cfc0e3a7d1a4d6f92b5e121b72f0968657773c40872271569010000006b483045022100e355565447bad890db6854084506df418d887135434bd248b655480c64224e62022045819528b568f63bf7a37058f57d7c0cd3e097fd46c82ea8c7e0bca8e69d20c8012102c12cf5edfac7d1cb6a22456c359fccadb9bace1363a321e4cd42d6850dac3542fdffffff020000000000000000306a2e04c2dd9a83ce35935f71f42f6fe070f65207d723d815a4613cea55156a15ae4f86c88d3098efb96a29f26b5c82b460070200000000001976a914d6576f47d42bfe9eea4a43871fa23f1132fd139188ac00000000", "vin": [{"sequence": 4294967293, "scriptSig": {"hex": "483045022100e355565447bad890db6854084506df418d887135434bd248b655480c64224e62022045819528b568f63bf7a37058f57d7c0cd3e097fd46c82ea8c7e0bca8e69d20c8012102c12cf5edfac7d1cb6a22456c359fccadb9bace1363a321e4cd42d6850dac3542", "asm": "3045022100e355565447bad890db6854084506df418d887135434bd248b655480c64224e62022045819528b568f63bf7a37058f57d7c0cd3e097fd46c82ea8c7e0bca8e69d20c8[ALL] 02c12cf5edfac7d1cb6a22456c359fccadb9bace1363a321e4cd42d6850dac3542"}, "vout": 1, "txid": "6915277208c473776568092fb721e1b5926f4d1a7d3a0efc8c35d472e131e27d"}], "txid": "ccdc2116a7abf268ad7f40c8e5126b5d14c37c0ec82404bb691269ce113582ca", "blocktime": 1537873282, "version": 1, "confirmations": 11480, "time": 1537873282, "locktime": 0, "vsize": 249, "size": 249}