{"hash": "9b7bfade60c46eed58d4a357b9a85316ca81202629f5b8b6505db259863b39c0", "blockhash": "0000000000000000001cda96e906b7601b7a6fb1a3b62bca570a9e5d8f4b3de1", "vout": [{"scriptPubKey": {"reqSigs": 1, "hex": "a914aff044587c520217f02a73a2c32b97ccce34195c87", "addresses": ["3HjJ1A1e6Y55BNdrp5m6i66UCbkefaiSDQ"], "asm": "OP_HASH160 aff044587c520217f02a73a2c32b97ccce34195c OP_EQUAL", "type": "scripthash"}, "value": 0.01156019, "n": 0}, {"scriptPubKey": {"reqSigs": 1, "hex": "a914c0db4b5751b76fef728752d8687a447dffbbe4d187", "addresses": ["3KGkND9tpQhWSXdwsE2JueAF6vRNhz2iNP"], "asm": "OP_HASH160 c0db4b5751b76fef728752d8687a447dffbbe4d1 OP_EQUAL", "type": "scripthash"}, "value": 0.73463813, "n": 1}], "hex": "01000000000102f18feb1f7aad9f1fa4e09bb23bc7f992ee20855e1ad8279531581827f562213900000000232200205a206aa37ab1a2c939512bc39f91e879513a3490b662760f3d3905f448ed4eedffffffffbe8825bbd23455e0265ecdf225714779f86d744acdca2d51a69d81b2e2d8f16701000000232200209e1b44ca0a86cd52b4ff5de4dfd4b4a2fa210028485bd1db62020e32d2cc7969ffffffff02b3a311000000000017a914aff044587c520217f02a73a2c32b97ccce34195c8705f860040000000017a914c0db4b5751b76fef728752d8687a447dffbbe4d187040048304502210081789fcfd3fd4089aa3f18d349f511981ea7080344dcc6e753980d3ceab191c102207f0f907c3f9ce4aeb994a83bf8ef2c2d7d64d0c650b360b065d8b0711ec44ef901473044022034d2bb6cf79376eee174b0d1246c9815be798466bdcac2d2e1ac9967453d6f7b022039bd362e5d8bd5b30029bc580eae6b7a92402be9f99fea4fc082d94bcd96106501475221037764b0096bab54e3f398d6786cc7d30ab163b6dfda8296e8217123f867796d8321038f2c7ecee34c843be9d886e50ce79e5dc40a1694c0417d60b35340f292ff73fc52ae040047304402201d6c79ae22b81b35acf472ac7f95c25ace30cebbda084ccf5faa28915d9bd93202207d7e11e8801580cdd79e487c2c81ec7fd39d51216c981737971e073e3730d6f701483045022100db99333d33e8458a2e4046ce3cb65aac2b6612481112059d161e93528fff566f0220648a8630b1ffba9836e787b5159db101c9f5bb023926cf0be6d8d1b48e6e99a301475221026014a6bee2e74cf4622fd4e89ca3cbb673183c1856a81e9670172c348288446f21038f2c7ecee34c843be9d886e50ce79e5dc40a1694c0417d60b35340f292ff73fc52ae00000000", "vin": [{"txinwitness": ["", "304502210081789fcfd3fd4089aa3f18d349f511981ea7080344dcc6e753980d3ceab191c102207f0f907c3f9ce4aeb994a83bf8ef2c2d7d64d0c650b360b065d8b0711ec44ef901", "3044022034d2bb6cf79376eee174b0d1246c9815be798466bdcac2d2e1ac9967453d6f7b022039bd362e5d8bd5b30029bc580eae6b7a92402be9f99fea4fc082d94bcd96106501", "5221037764b0096bab54e3f398d6786cc7d30ab163b6dfda8296e8217123f867796d8321038f2c7ecee34c843be9d886e50ce79e5dc40a1694c0417d60b35340f292ff73fc52ae"], "sequence": 4294967295, "scriptSig": {"hex": "2200205a206aa37ab1a2c939512bc39f91e879513a3490b662760f3d3905f448ed4eed", "asm": "00205a206aa37ab1a2c939512bc39f91e879513a3490b662760f3d3905f448ed4eed"}, "vout": 0, "txid": "392162f5271858319527d81a5e8520ee92f9c73bb29be0a41f9fad7a1feb8ff1"}, {"txinwitness": ["", "304402201d6c79ae22b81b35acf472ac7f95c25ace30cebbda084ccf5faa28915d9bd93202207d7e11e8801580cdd79e487c2c81ec7fd39d51216c981737971e073e3730d6f701", "3045022100db99333d33e8458a2e4046ce3cb65aac2b6612481112059d161e93528fff566f0220648a8630b1ffba9836e787b5159db101c9f5bb023926cf0be6d8d1b48e6e99a301", "5221026014a6bee2e74cf4622fd4e89ca3cbb673183c1856a81e9670172c348288446f21038f2c7ecee34c843be9d886e50ce79e5dc40a1694c0417d60b35340f292ff73fc52ae"], "sequence": 4294967295, "scriptSig": {"hex": "2200209e1b44ca0a86cd52b4ff5de4dfd4b4a2fa210028485bd1db62020e32d2cc7969", "asm": "00209e1b44ca0a86cd52b4ff5de4dfd4b4a2fa210028485bd1db62020e32d2cc7969"}, "vout": 1, "txid": "67f1d8e2b2819da6512dcacd4a746df879477125f2cd5e26e05534d2bb2588be"}], "txid": "ccde9052a09e17a5aa82345ccea2b7c4d79322e4d518f638e26d246780ceb818", "blocktime": 1537873282, "version": 1, "confirmations": 11484, "time": 1537873282, "locktime": 0, "vsize": 336, "size": 666}