{"hash": "cce88b891a2ab39ffeaade2876691456ff226f1b9e016ed92adf6817f926a457", "blockhash": "0000000000000000000e13cef7c366c0283d82e591d1acd082e914b08063cdf1", "vout": [{"scriptPubKey": {"reqSigs": 1, "hex": "76a9143f9d6d0cb4c8e269dd89e15e85b4281acdb7fd4a88ac", "addresses": ["16oNAEZbVDoYiS4N59McinEWiGULsGEKh8"], "asm": "OP_DUP OP_HASH160 3f9d6d0cb4c8e269dd89e15e85b4281acdb7fd4a OP_EQUALVERIFY OP_CHECKSIG", "type": "pubkeyhash"}, "value": 0.0154767, "n": 0}, {"scriptPubKey": {"reqSigs": 1, "hex": "76a914069207ed90376cabda46e89d73e4235f6905c6c188ac", "addresses": ["1bjzZWjvo5FNY8BfVgdqFiyE3Ciz7DpCw"], "asm": "OP_DUP OP_HASH160 069207ed90376cabda46e89d73e4235f6905c6c1 OP_EQUALVERIFY OP_CHECKSIG", "type": "pubkeyhash"}, "value": 0.9583416, "n": 1}], "hex": "0100000001bb7ae2e99424257a3f747eccdceb967b044d8b47c088a31b6c95c81d0fcce8c3010000006a473044022059bfd4d31ff77b7821aa2e2c31ab8ed6d4ce5a10a0fe86dfcab9d4d94addc7580220463a3a808343fee68f2ce4a48a7e6e496d0af8fa8d66b85fd19af2bb004ee4ad012102c320025d8c304c00e2e42bb8dda0eb4285b45dea9847589f827112540c77a810ffffffff02969d1700000000001976a9143f9d6d0cb4c8e269dd89e15e85b4281acdb7fd4a88ac3050b605000000001976a914069207ed90376cabda46e89d73e4235f6905c6c188ac00000000", "vin": [{"sequence": 4294967295, "scriptSig": {"hex": "473044022059bfd4d31ff77b7821aa2e2c31ab8ed6d4ce5a10a0fe86dfcab9d4d94addc7580220463a3a808343fee68f2ce4a48a7e6e496d0af8fa8d66b85fd19af2bb004ee4ad012102c320025d8c304c00e2e42bb8dda0eb4285b45dea9847589f827112540c77a810", "asm": "3044022059bfd4d31ff77b7821aa2e2c31ab8ed6d4ce5a10a0fe86dfcab9d4d94addc7580220463a3a808343fee68f2ce4a48a7e6e496d0af8fa8d66b85fd19af2bb004ee4ad[ALL] 02c320025d8c304c00e2e42bb8dda0eb4285b45dea9847589f827112540c77a810"}, "vout": 1, "txid": "c3e8cc0f1dc8956c1ba388c0478b4d047b96ebdccc7e743f7a252494e9e27abb"}], "txid": "cce88b891a2ab39ffeaade2876691456ff226f1b9e016ed92adf6817f926a457", "blocktime": 1537871767, "version": 1, "confirmations": 11495, "time": 1537871767, "locktime": 0, "vsize": 225, "size": 225}