{"hash": "cceeafc0a4162f2e12d76e45ea00f746b51f6f4b4b38d1cad43d68afeb974725", "blockhash": "0000000000000000001f0ddff1eddb255c1121bcd4da4f1bc9a0da00cae72433", "vout": [{"scriptPubKey": {"reqSigs": 1, "hex": "76a9143abfb66a6a16febecede7675c05302a00cf2d0de88ac", "addresses": ["16MdrYoxpNa741z8ArEesd9rZsUTA9hE3T"], "asm": "OP_DUP OP_HASH160 3abfb66a6a16febecede7675c05302a00cf2d0de OP_EQUALVERIFY OP_CHECKSIG", "type": "pubkeyhash"}, "value": 0.53911459, "n": 0}, {"scriptPubKey": {"reqSigs": 1, "hex": "a91415a05aa0e910ed7a4ded43e2a28522d7524d803087", "addresses": ["33fNDAWDd4YG25CnKsTaxLw7GH7o9FN3VP"], "asm": "OP_HASH160 15a05aa0e910ed7a4ded43e2a28522d7524d8030 OP_EQUAL", "type": "scripthash"}, "value": 0.001, "n": 1}], "hex": "0100000001452c8920899e102639e9f2ba8cc016e9d8e6e37a1983f30177b0101899e15d4f000000006b483045022100bb51830cc63b4efef7bd8c148eca5cd4f53f33d50fa7678aa7cfba2460388f49022047bf6557ed45ec956ed71faad369122d0a9176014656854d833995e6660dce710121032508db7066a6c3281e2203233c442ed1849906f6d628588ca96c872dc273cae1ffffffff02a39f3603000000001976a9143abfb66a6a16febecede7675c05302a00cf2d0de88aca08601000000000017a91415a05aa0e910ed7a4ded43e2a28522d7524d80308700000000", "vin": [{"sequence": 4294967295, "scriptSig": {"hex": "483045022100bb51830cc63b4efef7bd8c148eca5cd4f53f33d50fa7678aa7cfba2460388f49022047bf6557ed45ec956ed71faad369122d0a9176014656854d833995e6660dce710121032508db7066a6c3281e2203233c442ed1849906f6d628588ca96c872dc273cae1", "asm": "3045022100bb51830cc63b4efef7bd8c148eca5cd4f53f33d50fa7678aa7cfba2460388f49022047bf6557ed45ec956ed71faad369122d0a9176014656854d833995e6660dce71[ALL] 032508db7066a6c3281e2203233c442ed1849906f6d628588ca96c872dc273cae1"}, "vout": 0, "txid": "4f5de1991810b07701f383197ae3e6d8e916c08cbaf2e93926109e8920892c45"}], "txid": "cceeafc0a4162f2e12d76e45ea00f746b51f6f4b4b38d1cad43d68afeb974725", "blocktime": 1537872018, "version": 1, "confirmations": 11489, "time": 1537872018, "locktime": 0, "vsize": 224, "size": 224}