{"hash": "7c25f7f4a41187e70dc3d2aae9f4fd72945adc3e11429ae1cdead0b930a77a80", "blockhash": "0000000000000000000dcc0f55137456b1a82d3642486a52398922ac4d620174", "vout": [{"scriptPubKey": {"reqSigs": 1, "hex": "76a914f8f0152d97d394fbf0c83892ac3c2fc8ad6f8aee88ac", "addresses": ["1PhGBpE9j8zGVGvkmwhaHayEvYgdpPWryB"], "asm": "OP_DUP OP_HASH160 f8f0152d97d394fbf0c83892ac3c2fc8ad6f8aee OP_EQUALVERIFY OP_CHECKSIG", "type": "pubkeyhash"}, "value": 0.02913668, "n": 0}, {"scriptPubKey": {"reqSigs": 1, "hex": "76a9142551b353ad2bf6ab78d2b841ad7769bc62e0af4f88ac", "addresses": ["14QKskNBKnnzEKB4XnivKagvy3UpgywHsj"], "asm": "OP_DUP OP_HASH160 2551b353ad2bf6ab78d2b841ad7769bc62e0af4f OP_EQUALVERIFY OP_CHECKSIG", "type": "pubkeyhash"}, "value": 0.01965298, "n": 1}, {"scriptPubKey": {"reqSigs": 1, "hex": "76a9147df20721552139e203ced74b047dce596cb903c188ac", "addresses": ["1CUwQNPdVcjosyTa3JnUvmw758jiNvSzCy"], "asm": "OP_DUP OP_HASH160 7df20721552139e203ced74b047dce596cb903c1 OP_EQUALVERIFY OP_CHECKSIG", "type": "pubkeyhash"}, "value": 0.02759565, "n": 2}, {"scriptPubKey": {"reqSigs": 1, "hex": "76a9149661a2c230865b5e57ee18a255a4c24cca1ddfc188ac", "addresses": ["1Ei9KdNqRE7H562sWehHFuDjSU491sj6Gb"], "asm": "OP_DUP OP_HASH160 9661a2c230865b5e57ee18a255a4c24cca1ddfc1 OP_EQUALVERIFY OP_CHECKSIG", "type": "pubkeyhash"}, "value": 0.02102417, "n": 3}, {"scriptPubKey": {"reqSigs": 1, "hex": "a9143cf8bfb947b249c634ce452e2080b67c4ab2e12887", "addresses": ["37FQTRzACeC2Se7pgXN1WJH7YA75QsHNXJ"], "asm": "OP_HASH160 3cf8bfb947b249c634ce452e2080b67c4ab2e128 OP_EQUAL", "type": "scripthash"}, "value": 0.00253632, "n": 4}], "hex": "02000000000101280af6d7614a94d2b76a2759ee9bfb5c255bd6e7bdd90087a7065f475b42d8ad4000000017160014da9979ea38a5767b0105308a41d2d12a7845297bfdffffff0584752c00000000001976a914f8f0152d97d394fbf0c83892ac3c2fc8ad6f8aee88acf2fc1d00000000001976a9142551b353ad2bf6ab78d2b841ad7769bc62e0af4f88ac8d1b2a00000000001976a9147df20721552139e203ced74b047dce596cb903c188ac91142000000000001976a9149661a2c230865b5e57ee18a255a4c24cca1ddfc188acc0de03000000000017a9143cf8bfb947b249c634ce452e2080b67c4ab2e1288702483045022100edec5bc907f26ed657f4ccd7162b9b6259112517af80c9215380668ff974d6eb022072b3d357dcc6d7b26fa887fe8a73af181b02e3fe916096983d575c37e68c44ca01210354e0c7aba3ec76880d0fa4b9a8c2af66c02aab3d413e9a9a900766d71ca1a35e01000000", "vin": [{"txinwitness": ["3045022100edec5bc907f26ed657f4ccd7162b9b6259112517af80c9215380668ff974d6eb022072b3d357dcc6d7b26fa887fe8a73af181b02e3fe916096983d575c37e68c44ca01", "0354e0c7aba3ec76880d0fa4b9a8c2af66c02aab3d413e9a9a900766d71ca1a35e"], "sequence": 4294967293, "scriptSig": {"hex": "160014da9979ea38a5767b0105308a41d2d12a7845297b", "asm": "0014da9979ea38a5767b0105308a41d2d12a7845297b"}, "vout": 64, "txid": "add8425b475f06a78700d9bde7d65b255cfb9bee59276ab7d2944a61d7f60a28"}], "txid": "ccf0eaaa4783ad15cb4479a2179472f4435af5d8a795f56faf70902cb6a6c1c9", "blocktime": 1537870268, "version": 2, "confirmations": 11516, "time": 1537870268, "locktime": 1, "vsize": 270, "size": 352}