{"hash": "ccfa9258f221fc81a5b789ce13086e6cedf56645ee9fda7b1ef6e02203767b95", "blockhash": "0000000000000000000dcc0f55137456b1a82d3642486a52398922ac4d620174", "vout": [{"scriptPubKey": {"type": "nulldata", "hex": "6a4c500000776c0001ab806348ac0458a304e2218a86aeaeacb577c031fc3a016b46dc7dc7d096c53662e1a68b38bd2bb20a9e62968ad45baa0878061399fb5ed936abbc9a9526289ac0f6612cd74e33776ee4", "asm": "OP_RETURN 0000776c0001ab806348ac0458a304e2218a86aeaeacb577c031fc3a016b46dc7dc7d096c53662e1a68b38bd2bb20a9e62968ad45baa0878061399fb5ed936abbc9a9526289ac0f6612cd74e33776ee4"}, "value": 0.0, "n": 0}, {"scriptPubKey": {"reqSigs": 1, "hex": "76a9146769d740f10941c6ae181c4b8a4c3651b36dfc2e88ac", "addresses": ["1ARoPi6u9bvho9fssjGezJ2Jn5bbCy2ocx"], "asm": "OP_DUP OP_HASH160 6769d740f10941c6ae181c4b8a4c3651b36dfc2e OP_EQUALVERIFY OP_CHECKSIG", "type": "pubkeyhash"}, "value": 0.014829, "n": 1}], "hex": "01000000012e08ab8af06bcb0fbe4684adc4396cf8391f39ebf4ed98b5ffdcf8db57cf01b7000000006b483045022100d108a20186db5744d46aa11f8034f3c5b20b9b36c1dfbbc8e04d5d597f2fcebf02204b31ca9cd1199eac04a2965c9bada63e42d97d2a06a3c5ef1142bda2858d3b7c0121035131aa423c154dc42ecb34138d4385987ab7347c228edd6879767b898541973bffffffff020000000000000000536a4c500000776c0001ab806348ac0458a304e2218a86aeaeacb577c031fc3a016b46dc7dc7d096c53662e1a68b38bd2bb20a9e62968ad45baa0878061399fb5ed936abbc9a9526289ac0f6612cd74e33776ee494a01600000000001976a9146769d740f10941c6ae181c4b8a4c3651b36dfc2e88ac00000000", "vin": [{"sequence": 4294967295, "scriptSig": {"hex": "483045022100d108a20186db5744d46aa11f8034f3c5b20b9b36c1dfbbc8e04d5d597f2fcebf02204b31ca9cd1199eac04a2965c9bada63e42d97d2a06a3c5ef1142bda2858d3b7c0121035131aa423c154dc42ecb34138d4385987ab7347c228edd6879767b898541973b", "asm": "3045022100d108a20186db5744d46aa11f8034f3c5b20b9b36c1dfbbc8e04d5d597f2fcebf02204b31ca9cd1199eac04a2965c9bada63e42d97d2a06a3c5ef1142bda2858d3b7c[ALL] 035131aa423c154dc42ecb34138d4385987ab7347c228edd6879767b898541973b"}, "vout": 0, "txid": "b701cf57dbf8dcffb598edf4eb391f39f86c39c4ad8446be0fcb6bf08aab082e"}], "txid": "ccfa9258f221fc81a5b789ce13086e6cedf56645ee9fda7b1ef6e02203767b95", "blocktime": 1537870268, "version": 1, "confirmations": 11518, "time": 1537870268, "locktime": 0, "vsize": 284, "size": 284}