{"hash": "ccfb9490dca04bfe8c63a7b381ac7dc425077937ab0c48e7b85dc93156c6ef73", "blockhash": "0000000000000000001f76057863aec43deb6fa401d9628bb513d65a8098bfab", "vout": [{"scriptPubKey": {"type": "nulldata", "hex": "6a4c50000077ea0001814f99a93273efe365e63dda7af8e8e963c7cfd5b95b23cc0f42c2fc38c5f95a17fe4d9a42fd821436f134d7ed095baa178f0612d4ae1d00a910bc9a9526289ac0f6612cd74e33776ee4", "asm": "OP_RETURN 000077ea0001814f99a93273efe365e63dda7af8e8e963c7cfd5b95b23cc0f42c2fc38c5f95a17fe4d9a42fd821436f134d7ed095baa178f0612d4ae1d00a910bc9a9526289ac0f6612cd74e33776ee4"}, "value": 0.0, "n": 0}, {"scriptPubKey": {"reqSigs": 1, "hex": "76a9142cf0dc567a45bde9bf7430d61fd41e4bfef3acf388ac", "addresses": ["156dGjdVMTCr2Rt4ziJnqbTnQCBZBMP4YK"], "asm": "OP_DUP OP_HASH160 2cf0dc567a45bde9bf7430d61fd41e4bfef3acf3 OP_EQUALVERIFY OP_CHECKSIG", "type": "pubkeyhash"}, "value": 0.01388344, "n": 1}], "hex": "0100000001592c03d40d28d86fc073af1ba9d63b186869753e5934ec926eab0e9bbb16a543010000006a4730440220065b8809868f5ab5f4fd9be30b7a5200f99d48145902a8c11ff606f5ebe5e8b802202f7fdb26e24537e653d7fe0360eb8410068b5aa926661d97deec07149a1b7ec301210267464ccf0427b37e88b57ae2a54904c5d0d5938520e5a37fb1a50a81e7330096ffffffff020000000000000000536a4c50000077ea0001814f99a93273efe365e63dda7af8e8e963c7cfd5b95b23cc0f42c2fc38c5f95a17fe4d9a42fd821436f134d7ed095baa178f0612d4ae1d00a910bc9a9526289ac0f6612cd74e33776ee4382f1500000000001976a9142cf0dc567a45bde9bf7430d61fd41e4bfef3acf388ac00000000", "vin": [{"sequence": 4294967295, "scriptSig": {"hex": "4730440220065b8809868f5ab5f4fd9be30b7a5200f99d48145902a8c11ff606f5ebe5e8b802202f7fdb26e24537e653d7fe0360eb8410068b5aa926661d97deec07149a1b7ec301210267464ccf0427b37e88b57ae2a54904c5d0d5938520e5a37fb1a50a81e7330096", "asm": "30440220065b8809868f5ab5f4fd9be30b7a5200f99d48145902a8c11ff606f5ebe5e8b802202f7fdb26e24537e653d7fe0360eb8410068b5aa926661d97deec07149a1b7ec3[ALL] 0267464ccf0427b37e88b57ae2a54904c5d0d5938520e5a37fb1a50a81e7330096"}, "vout": 1, "txid": "43a516bb9b0eab6e92ec34593e756968183bd6a91baf73c06fd8280dd4032c59"}], "txid": "ccfb9490dca04bfe8c63a7b381ac7dc425077937ab0c48e7b85dc93156c6ef73", "blocktime": 1537873891, "version": 1, "confirmations": 11478, "time": 1537873891, "locktime": 0, "vsize": 283, "size": 283}