{"hash": "cd103bde4c91e2479f9c79995c148affa354608f06426c1c9a3b298d004ab0af", "blockhash": "0000000000000000001e0dab787dd257d1dbfcb92a98c2207d5e1078be1f4165", "vout": [{"scriptPubKey": {"reqSigs": 1, "hex": "76a914dbd5d38fe137f718a3fbce9ab44c8b54c2609c9988ac", "addresses": ["1M3P8vyU2kAr3PBBhP7grpPMjTKKRFVhFL"], "asm": "OP_DUP OP_HASH160 dbd5d38fe137f718a3fbce9ab44c8b54c2609c99 OP_EQUALVERIFY OP_CHECKSIG", "type": "pubkeyhash"}, "value": 0.00781223, "n": 0}, {"scriptPubKey": {"reqSigs": 1, "hex": "76a91417b3700281fe1fc076ea0d4370139781be5e3d0c88ac", "addresses": ["13AKVx9b9UwtZXzsBhpEU65JaizrNbGNU6"], "asm": "OP_DUP OP_HASH160 17b3700281fe1fc076ea0d4370139781be5e3d0c OP_EQUALVERIFY OP_CHECKSIG", "type": "pubkeyhash"}, "value": 0.15301124, "n": 1}], "hex": "0100000001e8eaeb1852a2b1eb336c8bb396ba81ddfe0d565f9796c600eb44603c11734b4a010000006b483045022100eab18a8264bff203855cf5db4214e35ffd1caa6fc540f32be41ed8af04a33ae202201556743c9b931d7fad84df5fe1d14d6121f651682f5a6d0a7ffa41bffe8f2c45012102c9eb81dcbb2d8853e237ffc3aaea9fb839fbb13d9932767d4a1a3a615e8ea5c2ffffffff02a7eb0b00000000001976a914dbd5d38fe137f718a3fbce9ab44c8b54c2609c9988ac047ae900000000001976a91417b3700281fe1fc076ea0d4370139781be5e3d0c88ac00000000", "vin": [{"sequence": 4294967295, "scriptSig": {"hex": "483045022100eab18a8264bff203855cf5db4214e35ffd1caa6fc540f32be41ed8af04a33ae202201556743c9b931d7fad84df5fe1d14d6121f651682f5a6d0a7ffa41bffe8f2c45012102c9eb81dcbb2d8853e237ffc3aaea9fb839fbb13d9932767d4a1a3a615e8ea5c2", "asm": "3045022100eab18a8264bff203855cf5db4214e35ffd1caa6fc540f32be41ed8af04a33ae202201556743c9b931d7fad84df5fe1d14d6121f651682f5a6d0a7ffa41bffe8f2c45[ALL] 02c9eb81dcbb2d8853e237ffc3aaea9fb839fbb13d9932767d4a1a3a615e8ea5c2"}, "vout": 1, "txid": "4a4b73113c6044eb00c696975f560dfedd81ba96b38b6c33ebb1a25218ebeae8"}], "txid": "cd103bde4c91e2479f9c79995c148affa354608f06426c1c9a3b298d004ab0af", "blocktime": 1537872475, "version": 1, "confirmations": 11487, "time": 1537872475, "locktime": 0, "vsize": 226, "size": 226}