{"hash": "e0d80ecbb1625bb47ebb88876b4afb5cecc27969cf6cd7f755d26c53422d1eda", "blockhash": "0000000000000000001f0ddff1eddb255c1121bcd4da4f1bc9a0da00cae72433", "vout": [{"scriptPubKey": {"reqSigs": 1, "hex": "a9147362be3d9ba91c01ae45915a45464f08ae0cbf7e87", "addresses": ["3CD7vPysZXcqKZ53WCtCv6CGS6iMLc1KBU"], "asm": "OP_HASH160 7362be3d9ba91c01ae45915a45464f08ae0cbf7e OP_EQUAL", "type": "scripthash"}, "value": 0.03, "n": 0}, {"scriptPubKey": {"reqSigs": 1, "hex": "001481fa68123817745b80f15924cac92489dbe6b0f4", "addresses": ["bc1qs8axsy3cza69hq83tyjv4jfy38d7dv85n95ez8"], "asm": "0 81fa68123817745b80f15924cac92489dbe6b0f4", "type": "witness_v0_keyhash"}, "value": 0.00197419, "n": 1}], "hex": "01000000000101b9bfb5f09d47133f13e934bc2a688dc52dcf43c3ad7582c5ec1e8875d44bcbc30100000017160014f897584bab15eff92f88d9ace7b3f9b390ead5aeffffffff02c0c62d000000000017a9147362be3d9ba91c01ae45915a45464f08ae0cbf7e872b0303000000000016001481fa68123817745b80f15924cac92489dbe6b0f402483045022100af4499812b2936f5bb23fadd679892292df8501910175ed08a77b9f7e171220b022058e6f4baae7a31ea44780984980b5dc6c7bc84e49d771095c6d2000a276e09190121037bfb74814a442ddc1f0c05576ee393310d5987986357f0c1395b3bc5b72cbd1f00000000", "vin": [{"txinwitness": ["3045022100af4499812b2936f5bb23fadd679892292df8501910175ed08a77b9f7e171220b022058e6f4baae7a31ea44780984980b5dc6c7bc84e49d771095c6d2000a276e091901", "037bfb74814a442ddc1f0c05576ee393310d5987986357f0c1395b3bc5b72cbd1f"], "sequence": 4294967295, "scriptSig": {"hex": "160014f897584bab15eff92f88d9ace7b3f9b390ead5ae", "asm": "0014f897584bab15eff92f88d9ace7b3f9b390ead5ae"}, "vout": 1, "txid": "c3cb4bd475881eecc58275adc343cf2dc58d682abc34e9133f13479df0b5bfb9"}], "txid": "cd111c05bab16524e1ec77be2389a1c392a2cb528cb8142985be77c8833e16fa", "blocktime": 1537872018, "version": 1, "confirmations": 11489, "time": 1537872018, "locktime": 0, "vsize": 165, "size": 247}