{"hash": "163b88a90194e2297b0448e9056002ba26df95f970cdb019bd79d510d557ee4c", "blockhash": "0000000000000000001cda96e906b7601b7a6fb1a3b62bca570a9e5d8f4b3de1", "vout": [{"scriptPubKey": {"reqSigs": 1, "hex": "a91496ea5595ba5eda07ddf9a0a71f5ab5ce3f67263e87", "addresses": ["3FSz19mfqyPBt5xfEA7y1jBQVyckVcwy2W"], "asm": "OP_HASH160 96ea5595ba5eda07ddf9a0a71f5ab5ce3f67263e OP_EQUAL", "type": "scripthash"}, "value": 0.002, "n": 0}, {"scriptPubKey": {"reqSigs": 1, "hex": "a9141d7370ccde4590204155e4074f69743a8e4fac0287", "addresses": ["34Njp4ZKtmCDfqqps26wHBYQQGUo2pGkLi"], "asm": "OP_HASH160 1d7370ccde4590204155e4074f69743a8e4fac02 OP_EQUAL", "type": "scripthash"}, "value": 0.01160689, "n": 1}], "hex": "01000000000104eebc554ec8f4dfb0807e87b94456113f6f2e65fb88ffab5e3a4128f9562207540100000023220020f63dfc12340f6360d0251c22746d6b56093e3243e96ca012a65484a5d9cf0ec0ffffffff40995edea84152ae8858dbed6cd3e15683ca584dd51e6a1e7eff6ab7fea9ee960100000023220020f63dfc12340f6360d0251c22746d6b56093e3243e96ca012a65484a5d9cf0ec0ffffffff0bbe4e097cb53bcb9fe2088ce77802d10df61ba4e559f7d1482ad480cd4adc020100000023220020f63dfc12340f6360d0251c22746d6b56093e3243e96ca012a65484a5d9cf0ec0ffffffff8cb70600c49902614fa0ab67f526346b54c059dad729ae16cf0227e58bf567b20000000023220020f63dfc12340f6360d0251c22746d6b56093e3243e96ca012a65484a5d9cf0ec0ffffffff02400d03000000000017a91496ea5595ba5eda07ddf9a0a71f5ab5ce3f67263e87f1b511000000000017a9141d7370ccde4590204155e4074f69743a8e4fac02870400483045022100fcfa79e5d1934dec9557add09c416247dfb4d6b707448c30866eac4f11558bec0220674ddfd08db673398c7d7b3ef546471848e9040227beef7340dee7d70b88f79401483045022100dee984fa67c216fe8aa1b4a7411ee2ba627f76adf02dce8757de12fdf65bbfd802204ad04f6debd1a89ace36552d6a1e100982ba75cb5e7a8a8cc94d3a94886bff2f0147522102097067a6a0cc130a9a6f6577b47bf369b840a79de31cd7457187994266b1bb7c2103338f346cab6ba87fe940591a03ac234be06520c5ab386d4b6632e8eef0d0db7652ae0400483045022100c5e19de4754697576bf36d08e84cc503ee0453d3f62aebd20b3376d8f845fb8902202f5c679aa5fcf9b59258d46e278eec596b6e58a1d1819c6d0528be02b906238a014830450221009251223b884d2ef0a6d1bbb06c9bb494bf22019feae5b45776013b590289c4f402204b1ed6fa9b1999c55c6864daf5491c23b28cf2b49f44b3df0140718d193459740147522102097067a6a0cc130a9a6f6577b47bf369b840a79de31cd7457187994266b1bb7c2103338f346cab6ba87fe940591a03ac234be06520c5ab386d4b6632e8eef0d0db7652ae0400473044022067f41dc424f2d7555ba2fe62521c96de5aca965769a279d7ea7469930f326e9b0220157548b15e59361690d9ae0b31f9c3be420548505983ca5cea9b3347076c8ab501473044022050154865f97edde79861af55e52248bc500a3fab37ff41e8e8d5b2b106c85086022038ab3163e058a329537b9593d6ebedcf2627f95fea963cde4ec0db56c24d58570147522102097067a6a0cc130a9a6f6577b47bf369b840a79de31cd7457187994266b1bb7c2103338f346cab6ba87fe940591a03ac234be06520c5ab386d4b6632e8eef0d0db7652ae040047304402202f43ea0490d99e53cd0f388eadc6901c03b7d369745ba3bbda3f4fec287234a602202f4b3981ae21eddcf7276d41ca257212482590610da6ffd6247a3741f609b9de01483045022100cb3c213782123b45244ee3d095519d07ab478e7f20f38e814c8b5d891827e64d02200c4581e17cd09e1f1a970fdb94fc6ed0685c3db2306cdfdf57bdcf83a0840a9b0147522102097067a6a0cc130a9a6f6577b47bf369b840a79de31cd7457187994266b1bb7c2103338f346cab6ba87fe940591a03ac234be06520c5ab386d4b6632e8eef0d0db7652ae00000000", "vin": [{"txinwitness": ["", "3045022100fcfa79e5d1934dec9557add09c416247dfb4d6b707448c30866eac4f11558bec0220674ddfd08db673398c7d7b3ef546471848e9040227beef7340dee7d70b88f79401", "3045022100dee984fa67c216fe8aa1b4a7411ee2ba627f76adf02dce8757de12fdf65bbfd802204ad04f6debd1a89ace36552d6a1e100982ba75cb5e7a8a8cc94d3a94886bff2f01", "522102097067a6a0cc130a9a6f6577b47bf369b840a79de31cd7457187994266b1bb7c2103338f346cab6ba87fe940591a03ac234be06520c5ab386d4b6632e8eef0d0db7652ae"], "sequence": 4294967295, "scriptSig": {"hex": "220020f63dfc12340f6360d0251c22746d6b56093e3243e96ca012a65484a5d9cf0ec0", "asm": "0020f63dfc12340f6360d0251c22746d6b56093e3243e96ca012a65484a5d9cf0ec0"}, "vout": 1, "txid": "54072256f928413a5eabff88fb652e6f3f115644b9877e80b0dff4c84e55bcee"}, {"txinwitness": ["", "3045022100c5e19de4754697576bf36d08e84cc503ee0453d3f62aebd20b3376d8f845fb8902202f5c679aa5fcf9b59258d46e278eec596b6e58a1d1819c6d0528be02b906238a01", "30450221009251223b884d2ef0a6d1bbb06c9bb494bf22019feae5b45776013b590289c4f402204b1ed6fa9b1999c55c6864daf5491c23b28cf2b49f44b3df0140718d1934597401", "522102097067a6a0cc130a9a6f6577b47bf369b840a79de31cd7457187994266b1bb7c2103338f346cab6ba87fe940591a03ac234be06520c5ab386d4b6632e8eef0d0db7652ae"], "sequence": 4294967295, "scriptSig": {"hex": "220020f63dfc12340f6360d0251c22746d6b56093e3243e96ca012a65484a5d9cf0ec0", "asm": "0020f63dfc12340f6360d0251c22746d6b56093e3243e96ca012a65484a5d9cf0ec0"}, "vout": 1, "txid": "96eea9feb76aff7e1e6a1ed54d58ca8356e1d36ceddb5888ae5241a8de5e9940"}, {"txinwitness": ["", "3044022067f41dc424f2d7555ba2fe62521c96de5aca965769a279d7ea7469930f326e9b0220157548b15e59361690d9ae0b31f9c3be420548505983ca5cea9b3347076c8ab501", "3044022050154865f97edde79861af55e52248bc500a3fab37ff41e8e8d5b2b106c85086022038ab3163e058a329537b9593d6ebedcf2627f95fea963cde4ec0db56c24d585701", "522102097067a6a0cc130a9a6f6577b47bf369b840a79de31cd7457187994266b1bb7c2103338f346cab6ba87fe940591a03ac234be06520c5ab386d4b6632e8eef0d0db7652ae"], "sequence": 4294967295, "scriptSig": {"hex": "220020f63dfc12340f6360d0251c22746d6b56093e3243e96ca012a65484a5d9cf0ec0", "asm": "0020f63dfc12340f6360d0251c22746d6b56093e3243e96ca012a65484a5d9cf0ec0"}, "vout": 1, "txid": "02dc4acd80d42a48d1f759e5a41bf60dd10278e78c08e29fcb3bb57c094ebe0b"}, {"txinwitness": ["", "304402202f43ea0490d99e53cd0f388eadc6901c03b7d369745ba3bbda3f4fec287234a602202f4b3981ae21eddcf7276d41ca257212482590610da6ffd6247a3741f609b9de01", "3045022100cb3c213782123b45244ee3d095519d07ab478e7f20f38e814c8b5d891827e64d02200c4581e17cd09e1f1a970fdb94fc6ed0685c3db2306cdfdf57bdcf83a0840a9b01", "522102097067a6a0cc130a9a6f6577b47bf369b840a79de31cd7457187994266b1bb7c2103338f346cab6ba87fe940591a03ac234be06520c5ab386d4b6632e8eef0d0db7652ae"], "sequence": 4294967295, "scriptSig": {"hex": "220020f63dfc12340f6360d0251c22746d6b56093e3243e96ca012a65484a5d9cf0ec0", "asm": "0020f63dfc12340f6360d0251c22746d6b56093e3243e96ca012a65484a5d9cf0ec0"}, "vout": 0, "txid": "b267f58be52702cf16ae29d7da59c0546b3426f567aba04f610299c40006b78c"}], "txid": "cd12f4a5daab08bf7bd1c20c04be208174be5c0e7ecec89c5827131d41c4081f", "blocktime": 1537873282, "version": 1, "confirmations": 11484, "time": 1537873282, "locktime": 0, "vsize": 598, "size": 1257}