{"hash": "67d6f26b69feec32eaa0d60d19f6f2a3949f382d40056892eb875f7dc3636b0f", "blockhash": "00000000000000000017f5eb5941039fbcee6240d03bc1f2f8e35350df66a1d8", "vout": [{"scriptPubKey": {"reqSigs": 1, "hex": "002058c8797f181e000075cb9a18a9662013b795012e86acc04d56a2d229e7b8d7c4", "addresses": ["bc1qtry8jlccrcqqqawtngv2je3qzwme2qfws6kvqn2k5tfzneac6lzqpgummp"], "asm": "0 58c8797f181e000075cb9a18a9662013b795012e86acc04d56a2d229e7b8d7c4", "type": "witness_v0_scripthash"}, "value": 0.05099574, "n": 0}], "hex": "010000000001011233fa40a949f09b381aa00fe1a24689dae9f1d3f52d4f30f167959cb9d97bf0000000001716001443282774df95ec22a2e00ed913951048de9fbb38ffffffff0136d04d000000000022002058c8797f181e000075cb9a18a9662013b795012e86acc04d56a2d229e7b8d7c40248304502210098cd0c9a17e64ca16379646abdb41c8ee52571e26d6bbb698ab1f61677f50ed0022012a2bd323782f5d8ee727de41338aafcb22838278f874e9f284ccf63e0fc85c50121029d0a3fb47b22bf98e66ed3642d15b0b40f18cbd5efd46dc1f32a0cfa1dfff18500000000", "vin": [{"txinwitness": ["304502210098cd0c9a17e64ca16379646abdb41c8ee52571e26d6bbb698ab1f61677f50ed0022012a2bd323782f5d8ee727de41338aafcb22838278f874e9f284ccf63e0fc85c501", "029d0a3fb47b22bf98e66ed3642d15b0b40f18cbd5efd46dc1f32a0cfa1dfff185"], "sequence": 4294967295, "scriptSig": {"hex": "16001443282774df95ec22a2e00ed913951048de9fbb38", "asm": "001443282774df95ec22a2e00ed913951048de9fbb38"}, "vout": 0, "txid": "f07bd9b99c9567f1304f2df5d3f1e9da8946a2e10fa01a389bf049a940fa3312"}], "txid": "cd19114eeeb6fc53dfdafc1026acd59e0b818c8b7418838c6acb38b8ce41c54b", "blocktime": 1537874412, "version": 1, "confirmations": 11468, "time": 1537874412, "locktime": 0, "vsize": 145, "size": 227}