{"hash": "cd1b5008ab0d3d1b09e2b8d626c3ed1fb21b7fa7f245f6533fa9740417e94113", "blockhash": "0000000000000000001f0ddff1eddb255c1121bcd4da4f1bc9a0da00cae72433", "vout": [{"scriptPubKey": {"reqSigs": 1, "hex": "76a914ba5a3f81ca5675b0a0507e50c5fd21a56afb26df88ac", "addresses": ["1HzLoE9E5tym55P7GahmfVVGT8B5bNa8kc"], "asm": "OP_DUP OP_HASH160 ba5a3f81ca5675b0a0507e50c5fd21a56afb26df OP_EQUALVERIFY OP_CHECKSIG", "type": "pubkeyhash"}, "value": 0.46859551, "n": 0}, {"scriptPubKey": {"reqSigs": 1, "hex": "76a914b69917c6f3a8a6e63a5c51f3d98d34d8b003f40188ac", "addresses": ["1HeVNzb4sojYwkSGH9WeUmCXS4VSVyoXY6"], "asm": "OP_DUP OP_HASH160 b69917c6f3a8a6e63a5c51f3d98d34d8b003f401 OP_EQUALVERIFY OP_CHECKSIG", "type": "pubkeyhash"}, "value": 3.59375226, "n": 1}], "hex": "01000000018aa04aac4f29c9fb7165f769fbf5f2086857a5773a92252be1676bda67920cf4010000006a47304402200f4369d37b3b41351a126725436cc98070b7dab2be54805bc05c92acd59b68c70220057cb46e6548d92df438db018302ced3c4886f77874f53fa4d12f090505fce39012103f543267885bb59defa027ddcae602e9860d592df100b32b1eabb0ea0fcd96251ffffffff021f05cb02000000001976a914ba5a3f81ca5675b0a0507e50c5fd21a56afb26df88ac7aa16b15000000001976a914b69917c6f3a8a6e63a5c51f3d98d34d8b003f40188ac00000000", "vin": [{"sequence": 4294967295, "scriptSig": {"hex": "47304402200f4369d37b3b41351a126725436cc98070b7dab2be54805bc05c92acd59b68c70220057cb46e6548d92df438db018302ced3c4886f77874f53fa4d12f090505fce39012103f543267885bb59defa027ddcae602e9860d592df100b32b1eabb0ea0fcd96251", "asm": "304402200f4369d37b3b41351a126725436cc98070b7dab2be54805bc05c92acd59b68c70220057cb46e6548d92df438db018302ced3c4886f77874f53fa4d12f090505fce39[ALL] 03f543267885bb59defa027ddcae602e9860d592df100b32b1eabb0ea0fcd96251"}, "vout": 1, "txid": "f40c9267da6b67e12b25923a77a5576808f2f5fb69f76571fbc9294fac4aa08a"}], "txid": "cd1b5008ab0d3d1b09e2b8d626c3ed1fb21b7fa7f245f6533fa9740417e94113", "blocktime": 1537872018, "version": 1, "confirmations": 11489, "time": 1537872018, "locktime": 0, "vsize": 225, "size": 225}