{"hash": "cd1de75e94c513ef6492118dd947befd24392754f567ced688092527df27bf46", "blockhash": "0000000000000000001f0ddff1eddb255c1121bcd4da4f1bc9a0da00cae72433", "vout": [{"scriptPubKey": {"reqSigs": 1, "hex": "76a9146606a399945e6130eec6ab82f7ae65945e9acb6588ac", "addresses": ["1AJTsrhNw2bpk1HJ1Mtbfd9TGCSd7btPP7"], "asm": "OP_DUP OP_HASH160 6606a399945e6130eec6ab82f7ae65945e9acb65 OP_EQUALVERIFY OP_CHECKSIG", "type": "pubkeyhash"}, "value": 0.03788167, "n": 0}, {"scriptPubKey": {"reqSigs": 1, "hex": "76a9149e146a351c23569ef70e8435e2c4984432c7b04b88ac", "addresses": ["1FQrDm3mFTvGxrMryuqANVnAsEq1VcFzqP"], "asm": "OP_DUP OP_HASH160 9e146a351c23569ef70e8435e2c4984432c7b04b OP_EQUALVERIFY OP_CHECKSIG", "type": "pubkeyhash"}, "value": 0.3, "n": 1}], "hex": "0100000001573e4329b25b0d047f2a00b14a9ce8b9faa6d72aea4e4eecd8c3446f2305aa8e010000006a47304402203cad8b434cb7d8aa37940c2990b0a314abdbc6b625fd2194b16bf6dfbf82cbcf02201f8ab88af1d41810fe43202b8d9c5c457b7bc76e0d3802a24fa7210fc14dd32901210283bb705265278ec33f9e8afa92536ed8d228aec0601aa77bf66fdbdeace58567ffffffff0287cd3900000000001976a9146606a399945e6130eec6ab82f7ae65945e9acb6588ac80c3c901000000001976a9149e146a351c23569ef70e8435e2c4984432c7b04b88ac00000000", "vin": [{"sequence": 4294967295, "scriptSig": {"hex": "47304402203cad8b434cb7d8aa37940c2990b0a314abdbc6b625fd2194b16bf6dfbf82cbcf02201f8ab88af1d41810fe43202b8d9c5c457b7bc76e0d3802a24fa7210fc14dd32901210283bb705265278ec33f9e8afa92536ed8d228aec0601aa77bf66fdbdeace58567", "asm": "304402203cad8b434cb7d8aa37940c2990b0a314abdbc6b625fd2194b16bf6dfbf82cbcf02201f8ab88af1d41810fe43202b8d9c5c457b7bc76e0d3802a24fa7210fc14dd329[ALL] 0283bb705265278ec33f9e8afa92536ed8d228aec0601aa77bf66fdbdeace58567"}, "vout": 1, "txid": "8eaa05236f44c3d8ec4e4eea2ad7a6fab9e89c4ab1002a7f040d5bb229433e57"}], "txid": "cd1de75e94c513ef6492118dd947befd24392754f567ced688092527df27bf46", "blocktime": 1537872018, "version": 1, "confirmations": 11489, "time": 1537872018, "locktime": 0, "vsize": 225, "size": 225}