{"hash": "cd2209c6120fc82ee70f45f392bde8293f009d85f62f8039e9dd084ab806c4fc", "blockhash": "0000000000000000000dcc0f55137456b1a82d3642486a52398922ac4d620174", "vout": [{"scriptPubKey": {"reqSigs": 1, "hex": "a9140e65fbf6f2d31d40f959c47949f1b5f3ab3f513687", "addresses": ["3319ZDcu3Kj3EaSqqL3qEAEHc4CEXJRKfk"], "asm": "OP_HASH160 0e65fbf6f2d31d40f959c47949f1b5f3ab3f5136 OP_EQUAL", "type": "scripthash"}, "value": 0.00512445, "n": 0}, {"scriptPubKey": {"reqSigs": 1, "hex": "76a9148ce961a4ae87b4e5f546f5a7b90fa8f4cb28588188ac", "addresses": ["1Dr5BUvtXzdcyVrbR5mfgNjHjX8DaK6ceZ"], "asm": "OP_DUP OP_HASH160 8ce961a4ae87b4e5f546f5a7b90fa8f4cb285881 OP_EQUALVERIFY OP_CHECKSIG", "type": "pubkeyhash"}, "value": 0.1099634, "n": 1}], "hex": "01000000018f924bb43559b534d17d6aa68d529758569c695c720acee44020b1d03773dcc5010000006b4830450221008bee59f7341a5049c7c7aad2ac002c28919d0261f2c68c323a76c17f849c21fb02200e5889855cd81456fa751e211ddc786a3660d3f70b0898abd5ff330a5c609b4b0121029dd84dc1f50463025b9e292ff81c500a5071b408d077b69da80cfbb12bc7a9beffffffff02bdd107000000000017a9140e65fbf6f2d31d40f959c47949f1b5f3ab3f51368774caa700000000001976a9148ce961a4ae87b4e5f546f5a7b90fa8f4cb28588188ac00000000", "vin": [{"sequence": 4294967295, "scriptSig": {"hex": "4830450221008bee59f7341a5049c7c7aad2ac002c28919d0261f2c68c323a76c17f849c21fb02200e5889855cd81456fa751e211ddc786a3660d3f70b0898abd5ff330a5c609b4b0121029dd84dc1f50463025b9e292ff81c500a5071b408d077b69da80cfbb12bc7a9be", "asm": "30450221008bee59f7341a5049c7c7aad2ac002c28919d0261f2c68c323a76c17f849c21fb02200e5889855cd81456fa751e211ddc786a3660d3f70b0898abd5ff330a5c609b4b[ALL] 029dd84dc1f50463025b9e292ff81c500a5071b408d077b69da80cfbb12bc7a9be"}, "vout": 1, "txid": "c5dc7337d0b12040e4ce0a725c699c565897528da66a7dd134b55935b44b928f"}], "txid": "cd2209c6120fc82ee70f45f392bde8293f009d85f62f8039e9dd084ab806c4fc", "blocktime": 1537870268, "version": 1, "confirmations": 11517, "time": 1537870268, "locktime": 0, "vsize": 224, "size": 224}