{"hash": "0b9eac3fc4f0cef35a791df8defbb56bc12ae3d6eda3f332a1138a6cead4d668", "blockhash": "0000000000000000000dcc0f55137456b1a82d3642486a52398922ac4d620174", "vout": [{"scriptPubKey": {"reqSigs": 1, "hex": "a914a2f2aa2c9d5161d25701b49d21cc0e27e2f99afd87", "addresses": ["3GYc6GAQ1F1EDBjrSiwPSqbkeMqjfnW465"], "asm": "OP_HASH160 a2f2aa2c9d5161d25701b49d21cc0e27e2f99afd OP_EQUAL", "type": "scripthash"}, "value": 0.0009, "n": 0}, {"scriptPubKey": {"reqSigs": 1, "hex": "001443fb94b8e049fcea6beca441c86072e7cc2787fe", "addresses": ["bc1qg0aefw8qf87w56lv53quscrjulxz0pl70ksq3y"], "asm": "0 43fb94b8e049fcea6beca441c86072e7cc2787fe", "type": "witness_v0_keyhash"}, "value": 1.652e-05, "n": 1}], "hex": "010000000001011913dd166a8480e0fca978fbef91839d3a84853ae144333733297688cae732ed1700000017160014e71360c79dc90c5d3025e585690ead2ffcb74b04ffffffff02905f01000000000017a914a2f2aa2c9d5161d25701b49d21cc0e27e2f99afd87740600000000000016001443fb94b8e049fcea6beca441c86072e7cc2787fe02473044022027b6c90ecfbe83dfefd363992c7695d18cfe28550396c804a168b83246104e240220299beefd374450fb0eb8c042f57b4b19f813daadc2c0800a75dbc35c982ccf76012102c880a1fd6d14eddea225283cc72fd2fc2a0c9219882406aff8c9bcbd3dca844700000000", "vin": [{"txinwitness": ["3044022027b6c90ecfbe83dfefd363992c7695d18cfe28550396c804a168b83246104e240220299beefd374450fb0eb8c042f57b4b19f813daadc2c0800a75dbc35c982ccf7601", "02c880a1fd6d14eddea225283cc72fd2fc2a0c9219882406aff8c9bcbd3dca8447"], "sequence": 4294967295, "scriptSig": {"hex": "160014e71360c79dc90c5d3025e585690ead2ffcb74b04", "asm": "0014e71360c79dc90c5d3025e585690ead2ffcb74b04"}, "vout": 23, "txid": "ed32e7ca88762933373344e13a85843a9d8391effb78a9fce080846a16dd1319"}], "txid": "cd229e6b1d26b8656e324968dfbe1dbf6e73692daed9d08d574e3eadbdaed847", "blocktime": 1537870268, "version": 1, "confirmations": 11518, "time": 1537870268, "locktime": 0, "vsize": 165, "size": 246}