{"hash": "83b3096e10960e5f02efa1d5da65c3ca592fe86766fe12f82587670b8e1a7bd0", "blockhash": "0000000000000000001cda96e906b7601b7a6fb1a3b62bca570a9e5d8f4b3de1", "vout": [{"scriptPubKey": {"reqSigs": 1, "hex": "00146377442cedc51880f87f941fc9418be2da40fa0b", "addresses": ["bc1qvdm5gt8dc5vgp7rljs0ujsvtutdyp7stkt6zjp"], "asm": "0 6377442cedc51880f87f941fc9418be2da40fa0b", "type": "witness_v0_keyhash"}, "value": 0.50711775, "n": 0}, {"scriptPubKey": {"reqSigs": 1, "hex": "76a914f711fe24c265e789abb7fd1bd0c2ffeb271fe8c288ac", "addresses": ["1PXPTYLCSudvAVxLtDazp8xu3bAZEuYE8v"], "asm": "OP_DUP OP_HASH160 f711fe24c265e789abb7fd1bd0c2ffeb271fe8c2 OP_EQUALVERIFY OP_CHECKSIG", "type": "pubkeyhash"}, "value": 0.02707659, "n": 1}], "hex": "01000000000101fce5ca14b7bc90cccdfd95542df9989fbd3a80b1a3f6966ce92382923f41344e0000000000ffffffff02dfcc0503000000001600146377442cedc51880f87f941fc9418be2da40fa0bcb502900000000001976a914f711fe24c265e789abb7fd1bd0c2ffeb271fe8c288ac02483045022100b9f7729e25f8884cc99caaded5852cd39964306fd5e27d7136abd40d5e32c014022064b2a8d3c41d6941ee52cf9d692362e03de1222a196a5d74d7f383a923aceea701210246bda238e7e9327b0ba9eb56702f531d3a12b7024fbf44b65e64232ce5bc70e300000000", "vin": [{"txinwitness": ["3045022100b9f7729e25f8884cc99caaded5852cd39964306fd5e27d7136abd40d5e32c014022064b2a8d3c41d6941ee52cf9d692362e03de1222a196a5d74d7f383a923aceea701", "0246bda238e7e9327b0ba9eb56702f531d3a12b7024fbf44b65e64232ce5bc70e3"], "sequence": 4294967295, "scriptSig": {"hex": "", "asm": ""}, "vout": 0, "txid": "4e34413f928223e96c96f6a3b1803abd9f98f92d5495fdcdcc90bcb714cae5fc"}], "txid": "cd375e3c61b6d2187d75096aec0feb4a91f763a6eb2a089a5f812db6c52b3db3", "blocktime": 1537873282, "version": 1, "confirmations": 11484, "time": 1537873282, "locktime": 0, "vsize": 144, "size": 226}