{"hash": "cd39d3c5564ff3bbe2cef84eea053a56ce81caacde58e89c66c37af76cdfa5f8", "blockhash": "00000000000000000004ffacab907a6b429b9a5745fa0b75af4234bf69dd7176", "vout": [{"scriptPubKey": {"reqSigs": 1, "hex": "76a9142c79b188537979fa680fb54d4c9f8a68cb75216e88ac", "addresses": ["154AWrRq4ryRSG2CbmcyXQJ8cTb8uDR5Qz"], "asm": "OP_DUP OP_HASH160 2c79b188537979fa680fb54d4c9f8a68cb75216e OP_EQUALVERIFY OP_CHECKSIG", "type": "pubkeyhash"}, "value": 2.677e-05, "n": 0}, {"scriptPubKey": {"reqSigs": 1, "hex": "a914909eeff72c5738b17a31c7400f8888daeb121cf187", "addresses": ["3EshdL3GJsHrnddFi6D8L7WVEGsBwgud9A"], "asm": "OP_HASH160 909eeff72c5738b17a31c7400f8888daeb121cf1 OP_EQUAL", "type": "scripthash"}, "value": 0.0944, "n": 1}], "hex": "0100000001189d6f95924504383063ebe3caf6423f54ed51024ed47e99c5cf1fba13f63b59010000006b483045022100950d6fa1f7d8c746be9972eeb2fbf723b881614130fce8a9192b1f67426694f1022017214723b827ae23feaff652b28afd3f8d3904f4bd5e54cb3817e420de2ea72b0121029da39d01dc4bb030e484b6067d7e80590b9246307846015853f9abc307188847ffffffff02750a0000000000001976a9142c79b188537979fa680fb54d4c9f8a68cb75216e88ac000b90000000000017a914909eeff72c5738b17a31c7400f8888daeb121cf18700000000", "vin": [{"sequence": 4294967295, "scriptSig": {"hex": "483045022100950d6fa1f7d8c746be9972eeb2fbf723b881614130fce8a9192b1f67426694f1022017214723b827ae23feaff652b28afd3f8d3904f4bd5e54cb3817e420de2ea72b0121029da39d01dc4bb030e484b6067d7e80590b9246307846015853f9abc307188847", "asm": "3045022100950d6fa1f7d8c746be9972eeb2fbf723b881614130fce8a9192b1f67426694f1022017214723b827ae23feaff652b28afd3f8d3904f4bd5e54cb3817e420de2ea72b[ALL] 029da39d01dc4bb030e484b6067d7e80590b9246307846015853f9abc307188847"}, "vout": 1, "txid": "593bf613ba1fcfc5997ed44e0251ed543f42f6cae3eb633038044592956f9d18"}], "txid": "cd39d3c5564ff3bbe2cef84eea053a56ce81caacde58e89c66c37af76cdfa5f8", "blocktime": 1537875543, "version": 1, "confirmations": 11464, "time": 1537875543, "locktime": 0, "vsize": 224, "size": 224}