{"hash": "cd3ca84909b855349e2ed8e5ed628060a8e95177b146d1b8d65ce8831219ae18", "blockhash": "0000000000000000000dcc0f55137456b1a82d3642486a52398922ac4d620174", "vout": [{"scriptPubKey": {"reqSigs": 1, "hex": "a91459138bb92be9b7a42a43e7c293d1b1b9b91dfaf087", "addresses": ["39p1UgXMY6pfvpnkHzwaFx2VyftSdthsSV"], "asm": "OP_HASH160 59138bb92be9b7a42a43e7c293d1b1b9b91dfaf0 OP_EQUAL", "type": "scripthash"}, "value": 0.00116483, "n": 0}, {"scriptPubKey": {"reqSigs": 1, "hex": "76a9147aceb0a0a834c375dfd6ea154f8ac4f9a97a8f7988ac", "addresses": ["1CCM3URr5jL4fvHrgCAT9dySXMMDRS9RHU"], "asm": "OP_DUP OP_HASH160 7aceb0a0a834c375dfd6ea154f8ac4f9a97a8f79 OP_EQUALVERIFY OP_CHECKSIG", "type": "pubkeyhash"}, "value": 0.0737559, "n": 1}], "hex": "0100000001c64090256c3a67d08133e6c574133a64274b800833e2485cf6f04829cff2ebac010000006a473044022027185674dfaafe7176d47d8f6d072d31098ecd55ddbe3f427d8d3bc914b309160220011d7e097eeabf7354446c810c3d4924c984da6145c057f3f6635796612d362101210359e9f6f0e64d8cad17a7b222d212492baf89d7778f82b02a97e57be2a35b3c3affffffff0203c701000000000017a91459138bb92be9b7a42a43e7c293d1b1b9b91dfaf087e68a7000000000001976a9147aceb0a0a834c375dfd6ea154f8ac4f9a97a8f7988ac00000000", "vin": [{"sequence": 4294967295, "scriptSig": {"hex": "473044022027185674dfaafe7176d47d8f6d072d31098ecd55ddbe3f427d8d3bc914b309160220011d7e097eeabf7354446c810c3d4924c984da6145c057f3f6635796612d362101210359e9f6f0e64d8cad17a7b222d212492baf89d7778f82b02a97e57be2a35b3c3a", "asm": "3044022027185674dfaafe7176d47d8f6d072d31098ecd55ddbe3f427d8d3bc914b309160220011d7e097eeabf7354446c810c3d4924c984da6145c057f3f6635796612d3621[ALL] 0359e9f6f0e64d8cad17a7b222d212492baf89d7778f82b02a97e57be2a35b3c3a"}, "vout": 1, "txid": "acebf2cf2948f0f65c48e23308804b27643a1374c5e63381d0673a6c259040c6"}], "txid": "cd3ca84909b855349e2ed8e5ed628060a8e95177b146d1b8d65ce8831219ae18", "blocktime": 1537870268, "version": 1, "confirmations": 11518, "time": 1537870268, "locktime": 0, "vsize": 223, "size": 223}