{"hash": "cd3c371f62a3179baf6343df80479e0baa188a04a6a6969894a77eb200de6e59", "blockhash": "00000000000000000018f53835495a110e01622372bf6ae95dc86f2b0ab887b0", "vout": [{"scriptPubKey": {"reqSigs": 1, "hex": "76a914e4bcd094920ca7badb08964e5d57987e6bc5f77988ac", "addresses": ["1MrTFpQXsqRU8nZ6ZheFc13Da6qGGWyRFX"], "asm": "OP_DUP OP_HASH160 e4bcd094920ca7badb08964e5d57987e6bc5f779 OP_EQUALVERIFY OP_CHECKSIG", "type": "pubkeyhash"}, "value": 0.0148062, "n": 0}, {"scriptPubKey": {"type": "nulldata", "hex": "6a4c500000778500011343bf3df5a55b4c8efc4953bcbefa6b8351586b4e86aeaeacb577c031fc02ef87d56d6274dc15270394bd3085cd5baa0b420613f08875856429bc9a9526289ac0f6612cd74e33776ee4", "asm": "OP_RETURN 0000778500011343bf3df5a55b4c8efc4953bcbefa6b8351586b4e86aeaeacb577c031fc02ef87d56d6274dc15270394bd3085cd5baa0b420613f08875856429bc9a9526289ac0f6612cd74e33776ee4"}, "value": 0.0, "n": 1}], "hex": "01000000016bda1d0b8a4626b7b29abc378c7339b6b178a9b01c0f2f7a2789c82ac4eba1ad000000006a47304402203d393a4340bdb2fbeb35768d0fe288eead8f40d34df078a4e19c8e9ae3bd4b2002207f246a4b456cffba001b99bb7b8e74084d1e397c06ebc46e28b01b450b4d95e0012102f503716b2d4b1a22919730af164b8bf9bd71df8090efffdc2eab8359a5d538eaffffffff02ac971600000000001976a914e4bcd094920ca7badb08964e5d57987e6bc5f77988ac0000000000000000536a4c500000778500011343bf3df5a55b4c8efc4953bcbefa6b8351586b4e86aeaeacb577c031fc02ef87d56d6274dc15270394bd3085cd5baa0b420613f08875856429bc9a9526289ac0f6612cd74e33776ee400000000", "vin": [{"sequence": 4294967295, "scriptSig": {"hex": "47304402203d393a4340bdb2fbeb35768d0fe288eead8f40d34df078a4e19c8e9ae3bd4b2002207f246a4b456cffba001b99bb7b8e74084d1e397c06ebc46e28b01b450b4d95e0012102f503716b2d4b1a22919730af164b8bf9bd71df8090efffdc2eab8359a5d538ea", "asm": "304402203d393a4340bdb2fbeb35768d0fe288eead8f40d34df078a4e19c8e9ae3bd4b2002207f246a4b456cffba001b99bb7b8e74084d1e397c06ebc46e28b01b450b4d95e0[ALL] 02f503716b2d4b1a22919730af164b8bf9bd71df8090efffdc2eab8359a5d538ea"}, "vout": 0, "txid": "ada1ebc42ac889277a2f0f1cb0a978b1b639738c37bc9ab2b726468a0b1dda6b"}], "txid": "cd3c371f62a3179baf6343df80479e0baa188a04a6a6969894a77eb200de6e59", "blocktime": 1537870928, "version": 1, "confirmations": 11512, "time": 1537870928, "locktime": 0, "vsize": 283, "size": 283}