{"hash": "462ee1edc76d76662a9268ef7769684412cf37e0064140e552b634cd47e0d3b2", "blockhash": "00000000000000000017f5eb5941039fbcee6240d03bc1f2f8e35350df66a1d8", "vout": [{"scriptPubKey": {"reqSigs": 1, "hex": "76a914d27d1d15460a377344476c6cd45b3f642ebe545c88ac", "addresses": ["1LBxnL9Xsa9F259qLo4dY3349gTZP5FAnn"], "asm": "OP_DUP OP_HASH160 d27d1d15460a377344476c6cd45b3f642ebe545c OP_EQUALVERIFY OP_CHECKSIG", "type": "pubkeyhash"}, "value": 0.01560798, "n": 0}, {"scriptPubKey": {"reqSigs": 1, "hex": "a91460831c61ba638326b1b38b04b1624f137213871f87", "addresses": ["3AVKrhgL6FexghgX51SxszPBkuhaPzZvzG"], "asm": "OP_HASH160 60831c61ba638326b1b38b04b1624f137213871f OP_EQUAL", "type": "scripthash"}, "value": 0.00207984, "n": 1}, {"scriptPubKey": {"reqSigs": 1, "hex": "76a914c665734d237bdb1995459a19f4286ecaa6ad7bb288ac", "addresses": ["1K62Kt1deUgNhfH1nzHy4HtuxiTU8nDWvi"], "asm": "OP_DUP OP_HASH160 c665734d237bdb1995459a19f4286ecaa6ad7bb2 OP_EQUALVERIFY OP_CHECKSIG", "type": "pubkeyhash"}, "value": 0.01570798, "n": 2}, {"scriptPubKey": {"reqSigs": 1, "hex": "76a9142a0ecb76526abdec919f8bea06c016130d1bff2f88ac", "addresses": ["14qP71vBneQM1wrwbWzbCcmXQZeXz6ZQRd"], "asm": "OP_DUP OP_HASH160 2a0ecb76526abdec919f8bea06c016130d1bff2f OP_EQUALVERIFY OP_CHECKSIG", "type": "pubkeyhash"}, "value": 0.02010732, "n": 3}, {"scriptPubKey": {"reqSigs": 1, "hex": "76a91453320986a7da328ca29ea4caa1fb7c7d204c331988ac", "addresses": ["18au2ZxjDwFJpJmQyXLhuR2EvGVHdn6uXr"], "asm": "OP_DUP OP_HASH160 53320986a7da328ca29ea4caa1fb7c7d204c3319 OP_EQUALVERIFY OP_CHECKSIG", "type": "pubkeyhash"}, "value": 0.01561689, "n": 4}, {"scriptPubKey": {"reqSigs": 1, "hex": "a914d42f91864e96f1240ebec13679bc21a8669184df87", "addresses": ["3M2xAKs4DVwvvwXxg6zdcTVkuKAGqxcd4s"], "asm": "OP_HASH160 d42f91864e96f1240ebec13679bc21a8669184df OP_EQUAL", "type": "scripthash"}, "value": 0.01237051, "n": 5}, {"scriptPubKey": {"reqSigs": 1, "hex": "76a91497384eda4837b5e0f90bf454302b3029c4d2e02388ac", "addresses": ["1EnaVKLKT5CRnxGSSiPUmRmG2C5GomESYx"], "asm": "OP_DUP OP_HASH160 97384eda4837b5e0f90bf454302b3029c4d2e023 OP_EQUALVERIFY OP_CHECKSIG", "type": "pubkeyhash"}, "value": 0.01562559, "n": 6}, {"scriptPubKey": {"reqSigs": 1, "hex": "a9148e43b8d06d6dad40962d3c39d02fe2fe78ceb94287", "addresses": ["3EfF1Bja8SsGyx6GCfaTDsoSnwnC9gZmvH"], "asm": "OP_HASH160 8e43b8d06d6dad40962d3c39d02fe2fe78ceb942 OP_EQUAL", "type": "scripthash"}, "value": 0.01186574, "n": 7}, {"scriptPubKey": {"reqSigs": 1, "hex": "a914e488a9b1352428a2a084ae60be7f2b0d30f4858b87", "addresses": ["3NXPhnNYxjsE4Y7V27AvkoPzZGWVx7azdN"], "asm": "OP_HASH160 e488a9b1352428a2a084ae60be7f2b0d30f4858b OP_EQUAL", "type": "scripthash"}, "value": 0.00937713, "n": 8}], "hex": "0100000000010131514a2edcab92581d015026b2624ddf87317203b958ea0d4377f2e843d52d170000000017160014fce9e2d296f4770adc3ff13c9ba1cc061ae0355fffffffff09ded01700000000001976a914d27d1d15460a377344476c6cd45b3f642ebe545c88ac702c03000000000017a91460831c61ba638326b1b38b04b1624f137213871f87eef71700000000001976a914c665734d237bdb1995459a19f4286ecaa6ad7bb288ac6cae1e00000000001976a9142a0ecb76526abdec919f8bea06c016130d1bff2f88ac59d41700000000001976a91453320986a7da328ca29ea4caa1fb7c7d204c331988ac3be012000000000017a914d42f91864e96f1240ebec13679bc21a8669184df87bfd71700000000001976a91497384eda4837b5e0f90bf454302b3029c4d2e02388ac0e1b12000000000017a9148e43b8d06d6dad40962d3c39d02fe2fe78ceb94287f14e0e000000000017a914e488a9b1352428a2a084ae60be7f2b0d30f4858b8702483045022100dae90d542c250220db75fed9864d5a952372eda837a9f3d235696960bf5604da022021a1b8a84536c699afadd7cc1ddcaaad45b8d9986852f4a1cb9af25861288040012102b62b6330e976a91b5ea05bd630df0b50bad2e2c8af4e807652bf05fa76ca839a00000000", "vin": [{"txinwitness": ["3045022100dae90d542c250220db75fed9864d5a952372eda837a9f3d235696960bf5604da022021a1b8a84536c699afadd7cc1ddcaaad45b8d9986852f4a1cb9af2586128804001", "02b62b6330e976a91b5ea05bd630df0b50bad2e2c8af4e807652bf05fa76ca839a"], "sequence": 4294967295, "scriptSig": {"hex": "160014fce9e2d296f4770adc3ff13c9ba1cc061ae0355f", "asm": "0014fce9e2d296f4770adc3ff13c9ba1cc061ae0355f"}, "vout": 0, "txid": "172dd543e8f277430dea58b903723187df4d62b22650011d5892abdc2e4a5131"}], "txid": "cd3c66451134673d7692253423d4c33a513c50c56edbfcb401e7ccb13eb12eed", "blocktime": 1537874412, "version": 1, "confirmations": 11467, "time": 1537874412, "locktime": 0, "vsize": 400, "size": 482}