{"hash": "13d7e457575d01ba0f5fce2b19a63b654a85a4f61517a9171a10cdd7ee0c0d7d", "blockhash": "0000000000000000000baef3f32e3676a92c3b2e5da21b426e4f302fc371ce76", "vout": [{"scriptPubKey": {"reqSigs": 1, "hex": "a91490e99e8d26d05ead3c05430c292a887bbff695f587", "addresses": ["3EuF6KjJawxTiUsea3Sc8hsLUGmVEf7Xg5"], "asm": "OP_HASH160 90e99e8d26d05ead3c05430c292a887bbff695f5 OP_EQUAL", "type": "scripthash"}, "value": 0.00092768, "n": 0}, {"scriptPubKey": {"type": "nulldata", "hex": "6a146f6d6e69000000000000001f0000000005f5e100", "asm": "OP_RETURN 6f6d6e69000000000000001f0000000005f5e100"}, "value": 0.0, "n": 1}, {"scriptPubKey": {"reqSigs": 1, "hex": "a91490e99e8d26d05ead3c05430c292a887bbff695f587", "addresses": ["3EuF6KjJawxTiUsea3Sc8hsLUGmVEf7Xg5"], "asm": "OP_HASH160 90e99e8d26d05ead3c05430c292a887bbff695f5 OP_EQUAL", "type": "scripthash"}, "value": 5.4e-06, "n": 2}], "hex": "01000000000102ce1dff2428dae11015e82632125c66059561a7d947396980133e9385c7fcdd7b0000000017160014f6e1792e7852ebd5ae795c2a25d579acdfadec2dffffffffce1dff2428dae11015e82632125c66059561a7d947396980133e9385c7fcdd7b0200000017160014f6e1792e7852ebd5ae795c2a25d579acdfadec2dffffffff03606a01000000000017a91490e99e8d26d05ead3c05430c292a887bbff695f5870000000000000000166a146f6d6e69000000000000001f0000000005f5e1001c0200000000000017a91490e99e8d26d05ead3c05430c292a887bbff695f5870248304502210097c16df3ed3a73011a0d0ca43a13506b2ebd6b225d21d9d9682b1b68baad81d502202b70d41df9d551603f7292284eba6a1e231a69fc855d351f8b5f769e0fed1963012103f1cf988013a33e053d1e9bd54c4798c1a6dc362a5b2798b5344049fca40e2db002473044022024fae84f61a854b0e9eae2b8176d4a3d2a7574fd2989d146b68914488320e48002201031798bad31ac68ae2d8494a4a8d72862ff4cef4ef1c0d3b1a42ed8194aa822012103f1cf988013a33e053d1e9bd54c4798c1a6dc362a5b2798b5344049fca40e2db000000000", "vin": [{"txinwitness": ["304502210097c16df3ed3a73011a0d0ca43a13506b2ebd6b225d21d9d9682b1b68baad81d502202b70d41df9d551603f7292284eba6a1e231a69fc855d351f8b5f769e0fed196301", "03f1cf988013a33e053d1e9bd54c4798c1a6dc362a5b2798b5344049fca40e2db0"], "sequence": 4294967295, "scriptSig": {"hex": "160014f6e1792e7852ebd5ae795c2a25d579acdfadec2d", "asm": "0014f6e1792e7852ebd5ae795c2a25d579acdfadec2d"}, "vout": 0, "txid": "7bddfcc785933e1380693947d9a7619505665c123226e81510e1da2824ff1dce"}, {"txinwitness": ["3044022024fae84f61a854b0e9eae2b8176d4a3d2a7574fd2989d146b68914488320e48002201031798bad31ac68ae2d8494a4a8d72862ff4cef4ef1c0d3b1a42ed8194aa82201", "03f1cf988013a33e053d1e9bd54c4798c1a6dc362a5b2798b5344049fca40e2db0"], "sequence": 4294967295, "scriptSig": {"hex": "160014f6e1792e7852ebd5ae795c2a25d579acdfadec2d", "asm": "0014f6e1792e7852ebd5ae795c2a25d579acdfadec2d"}, "vout": 2, "txid": "7bddfcc785933e1380693947d9a7619505665c123226e81510e1da2824ff1dce"}], "txid": "cd41e93933162e04c30cc553a4f75ab0913375e7284f6009616867029056bf25", "blocktime": 1537876114, "version": 1, "confirmations": 11460, "time": 1537876114, "locktime": 0, "vsize": 288, "size": 450}