{"hash": "cd4454656f94f6a48c47d637cf5f488e866a818372051b505d0adc8cf935ea21", "blockhash": "0000000000000000000baef3f32e3676a92c3b2e5da21b426e4f302fc371ce76", "vout": [{"scriptPubKey": {"reqSigs": 1, "hex": "76a914282a3dc0817e18d45d33311e3132444d4064892488ac", "addresses": ["14fNdePEybvHJ716rYjY77xxqiWRZrgiWw"], "asm": "OP_DUP OP_HASH160 282a3dc0817e18d45d33311e3132444d40648924 OP_EQUALVERIFY OP_CHECKSIG", "type": "pubkeyhash"}, "value": 0.01338951, "n": 0}, {"scriptPubKey": {"reqSigs": 1, "hex": "a91469f376ed75950567c87e48ffdb814605ae6004c087", "addresses": ["3BMEXuAWkq6aYom2cKZk7xUMf3rWwQs9CJ"], "asm": "OP_HASH160 69f376ed75950567c87e48ffdb814605ae6004c0 OP_EQUAL", "type": "scripthash"}, "value": 0.01, "n": 1}], "hex": "0200000002727e668a3e052b14860872407565115e8bbddbd634e19f3615d2a60c52a2cc8b6a0000006b483045022100d72e59d9b4e297c9deafd796252294179aca17378ea2b78bc9e0effe2153344e022046a20a255cbd30f3811526e5263cb151c6ddf4bf4f976004ae11854b4b3a008b012102201a09c86bed2be9bdad96812f036fd15f9addcf3a510bfdd5b3d3d873a5acf1feffffff8e32ce95911e095770bb33fe2f863005ee75d5ce4d2db966a04bca431f56f618690000006b483045022100b0e899edb9247725a627ed76a9ae1494ae90ac07dc4258f888d348a224182d2602206f6961e1d7ff88a5692ad4ef89c8d2c0f8580cd781490ebb12b57b0df0ac1e30012102201a09c86bed2be9bdad96812f036fd15f9addcf3a510bfdd5b3d3d873a5acf1feffffff02476e1400000000001976a914282a3dc0817e18d45d33311e3132444d4064892488ac40420f000000000017a91469f376ed75950567c87e48ffdb814605ae6004c08717490800", "vin": [{"sequence": 4294967294, "scriptSig": {"hex": "483045022100d72e59d9b4e297c9deafd796252294179aca17378ea2b78bc9e0effe2153344e022046a20a255cbd30f3811526e5263cb151c6ddf4bf4f976004ae11854b4b3a008b012102201a09c86bed2be9bdad96812f036fd15f9addcf3a510bfdd5b3d3d873a5acf1", "asm": "3045022100d72e59d9b4e297c9deafd796252294179aca17378ea2b78bc9e0effe2153344e022046a20a255cbd30f3811526e5263cb151c6ddf4bf4f976004ae11854b4b3a008b[ALL] 02201a09c86bed2be9bdad96812f036fd15f9addcf3a510bfdd5b3d3d873a5acf1"}, "vout": 106, "txid": "8bcca2520ca6d215369fe134d6dbbd8b5e11657540720886142b053e8a667e72"}, {"sequence": 4294967294, "scriptSig": {"hex": "483045022100b0e899edb9247725a627ed76a9ae1494ae90ac07dc4258f888d348a224182d2602206f6961e1d7ff88a5692ad4ef89c8d2c0f8580cd781490ebb12b57b0df0ac1e30012102201a09c86bed2be9bdad96812f036fd15f9addcf3a510bfdd5b3d3d873a5acf1", "asm": "3045022100b0e899edb9247725a627ed76a9ae1494ae90ac07dc4258f888d348a224182d2602206f6961e1d7ff88a5692ad4ef89c8d2c0f8580cd781490ebb12b57b0df0ac1e30[ALL] 02201a09c86bed2be9bdad96812f036fd15f9addcf3a510bfdd5b3d3d873a5acf1"}, "vout": 105, "txid": "18f6561f43ca4ba066b92d4dced575ee0530862ffe33bb7057091e9195ce328e"}], "txid": "cd4454656f94f6a48c47d637cf5f488e866a818372051b505d0adc8cf935ea21", "blocktime": 1537876114, "version": 2, "confirmations": 11460, "time": 1537876114, "locktime": 542999, "vsize": 372, "size": 372}