{"hash": "cd495edc6fe445f91a9f9a926ba79203e92436b09478ffabf8a22acd40918a8f", "blockhash": "0000000000000000001f76057863aec43deb6fa401d9628bb513d65a8098bfab", "vout": [{"scriptPubKey": {"reqSigs": 1, "hex": "76a914f51467fd0a774d69af3c166bb3402f2e464ca37288ac", "addresses": ["1PLrzr6N7x6eWABpZMP4d1qafNJAMEKUPA"], "asm": "OP_DUP OP_HASH160 f51467fd0a774d69af3c166bb3402f2e464ca372 OP_EQUALVERIFY OP_CHECKSIG", "type": "pubkeyhash"}, "value": 0.3, "n": 0}, {"scriptPubKey": {"reqSigs": 1, "hex": "76a91446407bea5b5bfdb89c6ef723fc08b4dd510e929288ac", "addresses": ["17QTYrmfmhSP8yQPCi7k4QEGpeGy5H1BBK"], "asm": "OP_DUP OP_HASH160 46407bea5b5bfdb89c6ef723fc08b4dd510e9292 OP_EQUALVERIFY OP_CHECKSIG", "type": "pubkeyhash"}, "value": 0.44294745, "n": 1}], "hex": "0100000001d953c40af69742bcf938c404ce02c4bca9e93b53a6d49bc7ad793e35243ba723010000006b483045022100960564fc5481206e9793d2405f1f5c5d1266eedc6bceb4285e2694c0643bb993022017034f0dff51aa589129b5c2b667034e57d38781318a5688e2b4f59af66d5fd90121021b91c57cbc1a9f0be406a7b7bf41626d6ca77662668d3ec22952045fd686e6e1ffffffff0280c3c901000000001976a914f51467fd0a774d69af3c166bb3402f2e464ca37288ac59e2a302000000001976a91446407bea5b5bfdb89c6ef723fc08b4dd510e929288ac00000000", "vin": [{"sequence": 4294967295, "scriptSig": {"hex": "483045022100960564fc5481206e9793d2405f1f5c5d1266eedc6bceb4285e2694c0643bb993022017034f0dff51aa589129b5c2b667034e57d38781318a5688e2b4f59af66d5fd90121021b91c57cbc1a9f0be406a7b7bf41626d6ca77662668d3ec22952045fd686e6e1", "asm": "3045022100960564fc5481206e9793d2405f1f5c5d1266eedc6bceb4285e2694c0643bb993022017034f0dff51aa589129b5c2b667034e57d38781318a5688e2b4f59af66d5fd9[ALL] 021b91c57cbc1a9f0be406a7b7bf41626d6ca77662668d3ec22952045fd686e6e1"}, "vout": 1, "txid": "23a73b24353e79adc79bd4a6533be9a9bcc402ce04c438f9bc4297f60ac453d9"}], "txid": "cd495edc6fe445f91a9f9a926ba79203e92436b09478ffabf8a22acd40918a8f", "blocktime": 1537873891, "version": 1, "confirmations": 11478, "time": 1537873891, "locktime": 0, "vsize": 226, "size": 226}