{"hash": "cd549e23cf4e066547d857e9abed0fe3ccba0fb90f94f36082719eb1491ff059", "blockhash": "00000000000000000018f53835495a110e01622372bf6ae95dc86f2b0ab887b0", "vout": [{"scriptPubKey": {"reqSigs": 1, "hex": "a914cdb09ae00bb844e50a613a44a7d4c75b96fda3a087", "addresses": ["3LSc1bebyvpoqHfHMgN8cSZ986qEfdDDNN"], "asm": "OP_HASH160 cdb09ae00bb844e50a613a44a7d4c75b96fda3a0 OP_EQUAL", "type": "scripthash"}, "value": 0.00304649, "n": 0}, {"scriptPubKey": {"reqSigs": 1, "hex": "76a91473d000a839c96c3444e740cc00a358f211ce772288ac", "addresses": ["1BZMtLGZo6yivTNFmMRtaL7dKTwZYETk6o"], "asm": "OP_DUP OP_HASH160 73d000a839c96c3444e740cc00a358f211ce7722 OP_EQUALVERIFY OP_CHECKSIG", "type": "pubkeyhash"}, "value": 0.01777825, "n": 1}], "hex": "0100000001019a90829a06049ea75fa0e9601af3adb1f33ee5d4c7fae51e6922b00edcc8ca010000006b483045022100c7dbff4c48ca14cf467b5eb5e9d39bed9a161a661e8ffd4eef13e3d8d50c4c66022004b5789f05b3606af78e9b12d75cbd5f264a6754d14ee2e72ec9c5d04f41bba6012103db7e501d3df73e6314158f796707c98218a21f860ebb77c381f2db56fd4eff2dffffffff0209a604000000000017a914cdb09ae00bb844e50a613a44a7d4c75b96fda3a087a1201b00000000001976a91473d000a839c96c3444e740cc00a358f211ce772288ac00000000", "vin": [{"sequence": 4294967295, "scriptSig": {"hex": "483045022100c7dbff4c48ca14cf467b5eb5e9d39bed9a161a661e8ffd4eef13e3d8d50c4c66022004b5789f05b3606af78e9b12d75cbd5f264a6754d14ee2e72ec9c5d04f41bba6012103db7e501d3df73e6314158f796707c98218a21f860ebb77c381f2db56fd4eff2d", "asm": "3045022100c7dbff4c48ca14cf467b5eb5e9d39bed9a161a661e8ffd4eef13e3d8d50c4c66022004b5789f05b3606af78e9b12d75cbd5f264a6754d14ee2e72ec9c5d04f41bba6[ALL] 03db7e501d3df73e6314158f796707c98218a21f860ebb77c381f2db56fd4eff2d"}, "vout": 1, "txid": "cac8dc0eb022691ee5fac7d4e53ef3b1adf31a60e9a05fa79e04069a82909a01"}], "txid": "cd549e23cf4e066547d857e9abed0fe3ccba0fb90f94f36082719eb1491ff059", "blocktime": 1537870928, "version": 1, "confirmations": 11512, "time": 1537870928, "locktime": 0, "vsize": 224, "size": 224}