{"hash": "cd548a632d7bf2cf67fe31b4717af8f1eea60edcbc2c97881ee0dd6d31292c9e", "blockhash": "00000000000000000024a2167bbff67b0be802c0b01cdd79e6331c2be6459f87", "vout": [{"scriptPubKey": {"reqSigs": 1, "hex": "76a91433489048632269ccc601f8c87a4a7982281ff9fe88ac", "addresses": ["15gAPbH52cgW66VhKv24f6JjtzKZHA6KRq"], "asm": "OP_DUP OP_HASH160 33489048632269ccc601f8c87a4a7982281ff9fe OP_EQUALVERIFY OP_CHECKSIG", "type": "pubkeyhash"}, "value": 0.0485, "n": 0}, {"scriptPubKey": {"reqSigs": 1, "hex": "76a9147c31b5d1c13e8440516c0a3f964633765e06a46488ac", "addresses": ["1CKgLiSMQLCJ95HoV9RcZkodcZN8MaFEmz"], "asm": "OP_DUP OP_HASH160 7c31b5d1c13e8440516c0a3f964633765e06a464 OP_EQUALVERIFY OP_CHECKSIG", "type": "pubkeyhash"}, "value": 0.28422793, "n": 1}], "hex": "0100000001d9bc187671db1f91f6ec593a29a09b334119c9428dbbf15362bb01ba0a1cca41010000006b4830450221009ab161acc3116f30d5902cb0538d0d33a4006b0ab72e9d8aa41c7aa2582aee2402202a3a45550a0577883dbbadcb62f41b37afec962532e6183c3e8e809f15f535d70121034e099eb0280d961f1a5ce339150d1a37572ad5fa6aaa5b14670b49230b5620ffffffffff0250014a00000000001976a91433489048632269ccc601f8c87a4a7982281ff9fe88ac89b2b101000000001976a9147c31b5d1c13e8440516c0a3f964633765e06a46488ac00000000", "vin": [{"sequence": 4294967295, "scriptSig": {"hex": "4830450221009ab161acc3116f30d5902cb0538d0d33a4006b0ab72e9d8aa41c7aa2582aee2402202a3a45550a0577883dbbadcb62f41b37afec962532e6183c3e8e809f15f535d70121034e099eb0280d961f1a5ce339150d1a37572ad5fa6aaa5b14670b49230b5620ff", "asm": "30450221009ab161acc3116f30d5902cb0538d0d33a4006b0ab72e9d8aa41c7aa2582aee2402202a3a45550a0577883dbbadcb62f41b37afec962532e6183c3e8e809f15f535d7[ALL] 034e099eb0280d961f1a5ce339150d1a37572ad5fa6aaa5b14670b49230b5620ff"}, "vout": 1, "txid": "41ca1c0aba01bb6253f1bb8d42c91941339ba0293a59ecf6911fdb717618bcd9"}], "txid": "cd548a632d7bf2cf67fe31b4717af8f1eea60edcbc2c97881ee0dd6d31292c9e", "blocktime": 1537870564, "version": 1, "confirmations": 11515, "time": 1537870564, "locktime": 0, "vsize": 226, "size": 226}