{"hash": "cd57a6d98f27efbd595affd0461c028bbbe6856df843c6be346d10e1928e16bd", "blockhash": "0000000000000000000e13cef7c366c0283d82e591d1acd082e914b08063cdf1", "vout": [{"scriptPubKey": {"reqSigs": 1, "hex": "a914ddba5b8f090054a2e70a7ccc11e03a768080e7f387", "addresses": ["3MuQWJ4FuwQPpKZipmLbxvxGgVT2S3m5q2"], "asm": "OP_HASH160 ddba5b8f090054a2e70a7ccc11e03a768080e7f3 OP_EQUAL", "type": "scripthash"}, "value": 0.010476, "n": 0}], "hex": "0100000001a91217c36b75d10efb9ca328d66563ed87dda75cc71ae1bfdd535344d1bbc75c000000006b483045022100d09cf0349881ff5deae653035bc37e5582d1df75ecc197e77692c2353c90060302203c96558b6dfd9e0d13de5399998cf3b28e8fb9972b43eeb3f8bbdbc76be741bc0121028f580d1f631dddaa3306d9b91346e50c4db90a84ddb2a1e90c52241692896729ffffffff0130fc0f000000000017a914ddba5b8f090054a2e70a7ccc11e03a768080e7f38700000000", "vin": [{"sequence": 4294967295, "scriptSig": {"hex": "483045022100d09cf0349881ff5deae653035bc37e5582d1df75ecc197e77692c2353c90060302203c96558b6dfd9e0d13de5399998cf3b28e8fb9972b43eeb3f8bbdbc76be741bc0121028f580d1f631dddaa3306d9b91346e50c4db90a84ddb2a1e90c52241692896729", "asm": "3045022100d09cf0349881ff5deae653035bc37e5582d1df75ecc197e77692c2353c90060302203c96558b6dfd9e0d13de5399998cf3b28e8fb9972b43eeb3f8bbdbc76be741bc[ALL] 028f580d1f631dddaa3306d9b91346e50c4db90a84ddb2a1e90c52241692896729"}, "vout": 0, "txid": "5cc7bbd1445353ddbfe11ac75ca7dd87ed6365d628a39cfb0ed1756bc31712a9"}], "txid": "cd57a6d98f27efbd595affd0461c028bbbe6856df843c6be346d10e1928e16bd", "blocktime": 1537871767, "version": 1, "confirmations": 11495, "time": 1537871767, "locktime": 0, "vsize": 190, "size": 190}