{"hash": "cd59ed016b89c34c5dbad87bd3b9b74dfac4a8f2621130debb66e093aa2a77b6", "blockhash": "0000000000000000001cda96e906b7601b7a6fb1a3b62bca570a9e5d8f4b3de1", "vout": [{"scriptPubKey": {"reqSigs": 1, "hex": "76a914b098a386969d7e2cea15de60fd6c8a34ac3bc84088ac", "addresses": ["1H6knHpX8XfkESgUXQAoiXsS7BL8TuktMx"], "asm": "OP_DUP OP_HASH160 b098a386969d7e2cea15de60fd6c8a34ac3bc840 OP_EQUALVERIFY OP_CHECKSIG", "type": "pubkeyhash"}, "value": 0.61195991, "n": 0}, {"scriptPubKey": {"reqSigs": 1, "hex": "a9142e2741140519b8266cefdef34c06466c672d6bcb87", "addresses": ["35u42oG4v4kK4KXHEuMaciXqEQ4mSaew9J"], "asm": "OP_HASH160 2e2741140519b8266cefdef34c06466c672d6bcb OP_EQUAL", "type": "scripthash"}, "value": 0.19800487, "n": 1}], "hex": "010000000130648b6e51f1fa040b7aa023cf31b91527105487ff9afe47f2c0d6d1747e63f1000000006b483045022100a7f5e4e0dcea322b667bfd3a7c0a72059e12a41e37c664cd53ca2ed8a01a3aae02202e0a79b1fb72e4eb346ee8a8ed2fb614c7fc8b87bd33726a31edc6b135a0ab6f0121032816e008bc7af22715c90f6ca15451a3c505984e5809623ce1becf5a4a09799effffffff02d7c6a503000000001976a914b098a386969d7e2cea15de60fd6c8a34ac3bc84088aca7212e010000000017a9142e2741140519b8266cefdef34c06466c672d6bcb8700000000", "vin": [{"sequence": 4294967295, "scriptSig": {"hex": "483045022100a7f5e4e0dcea322b667bfd3a7c0a72059e12a41e37c664cd53ca2ed8a01a3aae02202e0a79b1fb72e4eb346ee8a8ed2fb614c7fc8b87bd33726a31edc6b135a0ab6f0121032816e008bc7af22715c90f6ca15451a3c505984e5809623ce1becf5a4a09799e", "asm": "3045022100a7f5e4e0dcea322b667bfd3a7c0a72059e12a41e37c664cd53ca2ed8a01a3aae02202e0a79b1fb72e4eb346ee8a8ed2fb614c7fc8b87bd33726a31edc6b135a0ab6f[ALL] 032816e008bc7af22715c90f6ca15451a3c505984e5809623ce1becf5a4a09799e"}, "vout": 0, "txid": "f1637e74d1d6c0f247fe9aff8754102715b931cf23a07a0b04faf1516e8b6430"}], "txid": "cd59ed016b89c34c5dbad87bd3b9b74dfac4a8f2621130debb66e093aa2a77b6", "blocktime": 1537873282, "version": 1, "confirmations": 11481, "time": 1537873282, "locktime": 0, "vsize": 224, "size": 224}