{"hash": "cd5c2bb9d0a551b13724f8e41a53994d4b39e2999ec61749acb8cde826182cf1", "blockhash": "0000000000000000000e13cef7c366c0283d82e591d1acd082e914b08063cdf1", "vout": [{"scriptPubKey": {"reqSigs": 1, "hex": "76a91476dee4697c3a5682eb0aa9262c25f4e65517502788ac", "addresses": ["1BqXkTgGoo7bjJFAgjYxjj7yJMnbfxgnQm"], "asm": "OP_DUP OP_HASH160 76dee4697c3a5682eb0aa9262c25f4e655175027 OP_EQUALVERIFY OP_CHECKSIG", "type": "pubkeyhash"}, "value": 9.25e-06, "n": 0}, {"scriptPubKey": {"reqSigs": 1, "hex": "76a91428a50cfb917b2e92204a4bf160f652223a5326b088ac", "addresses": ["14hukbg9u5LrcmEQup2nrXMUmvVAYXSae4"], "asm": "OP_DUP OP_HASH160 28a50cfb917b2e92204a4bf160f652223a5326b0 OP_EQUALVERIFY OP_CHECKSIG", "type": "pubkeyhash"}, "value": 0.00068814, "n": 1}], "hex": "01000000021c35325a32bd24f387a724f0883fb5f795332a16c0668ee8606f6bff59f88131000000006b483045022100b8f5812b270165dbcf5e7976e136260f9b4ba06b86cfabb5267b4de15104630b02207c7ec118b3f4b7c02dcb6e59bb6d940b0f45b5983411e79ef3002d1204e19126012102373d04a148da9d6ea621e1b8b5f45af429249f6489ac5f06b7f0b525be319b71ffffffff05ff11698bc3888aa4ea895ba359907e7b307749d4378b53abf2aac7a425e56f000000006a47304402205f3bf5b94875895c92b42780a9a794bfed2cb876d3b10b340f7baf7e8e3ca1f30220022b04458b1391578428165339448fe2880b22129490bcc73d612e2305aafdef012103d69432eac649bfb3da144ee273c6da157e55da6e51d4dc089af66ae4664c250fffffffff029d030000000000001976a91476dee4697c3a5682eb0aa9262c25f4e65517502788acce0c0100000000001976a91428a50cfb917b2e92204a4bf160f652223a5326b088ac00000000", "vin": [{"sequence": 4294967295, "scriptSig": {"hex": "483045022100b8f5812b270165dbcf5e7976e136260f9b4ba06b86cfabb5267b4de15104630b02207c7ec118b3f4b7c02dcb6e59bb6d940b0f45b5983411e79ef3002d1204e19126012102373d04a148da9d6ea621e1b8b5f45af429249f6489ac5f06b7f0b525be319b71", "asm": "3045022100b8f5812b270165dbcf5e7976e136260f9b4ba06b86cfabb5267b4de15104630b02207c7ec118b3f4b7c02dcb6e59bb6d940b0f45b5983411e79ef3002d1204e19126[ALL] 02373d04a148da9d6ea621e1b8b5f45af429249f6489ac5f06b7f0b525be319b71"}, "vout": 0, "txid": "3181f859ff6b6f60e88e66c0162a3395f7b53f88f024a787f324bd325a32351c"}, {"sequence": 4294967295, "scriptSig": {"hex": "47304402205f3bf5b94875895c92b42780a9a794bfed2cb876d3b10b340f7baf7e8e3ca1f30220022b04458b1391578428165339448fe2880b22129490bcc73d612e2305aafdef012103d69432eac649bfb3da144ee273c6da157e55da6e51d4dc089af66ae4664c250f", "asm": "304402205f3bf5b94875895c92b42780a9a794bfed2cb876d3b10b340f7baf7e8e3ca1f30220022b04458b1391578428165339448fe2880b22129490bcc73d612e2305aafdef[ALL] 03d69432eac649bfb3da144ee273c6da157e55da6e51d4dc089af66ae4664c250f"}, "vout": 0, "txid": "6fe525a4c7aaf2ab538b37d44977307b7e9059a35b89eaa48a88c38b6911ff05"}], "txid": "cd5c2bb9d0a551b13724f8e41a53994d4b39e2999ec61749acb8cde826182cf1", "blocktime": 1537871767, "version": 1, "confirmations": 11495, "time": 1537871767, "locktime": 0, "vsize": 373, "size": 373}