{"hash": "cd5ffbbfeba0cb166ef8388e1df88f7963dd82084fa5330c0524cccc49cab28b", "blockhash": "00000000000000000017f5eb5941039fbcee6240d03bc1f2f8e35350df66a1d8", "vout": [{"scriptPubKey": {"reqSigs": 1, "hex": "a91494b243b87a6b2ee1c40f73000170a80eb1a9123b87", "addresses": ["3FFFUyJhqEjFwjnbbhhDm9tWbSYTjZDzVr"], "asm": "OP_HASH160 94b243b87a6b2ee1c40f73000170a80eb1a9123b OP_EQUAL", "type": "scripthash"}, "value": 0.0331356, "n": 0}, {"scriptPubKey": {"reqSigs": 1, "hex": "76a9142b25017440017584660a4a630ea57e9296c3893c88ac", "addresses": ["14w8PT1YLdDYvysAT71QpcaNJ1mgzdz9hP"], "asm": "OP_DUP OP_HASH160 2b25017440017584660a4a630ea57e9296c3893c OP_EQUALVERIFY OP_CHECKSIG", "type": "pubkeyhash"}, "value": 0.11791593, "n": 1}], "hex": "0100000001c6501aa812233e579855d90840a508d4843e8c4c89e529e6a5c00f6336ca8d34010000006a47304402206c541683539b424442e7c68d21eadd402fbc36b3f13cf4ff541692bd5f57434d02206c0d023dfa452e2be2b768897b17ce99f99730880d4536b6864cc501cc6097eb01210343e2334ffe1fb5547784afef2b8d5b43f8f4fa0f88327c7a408580c7c2af3685ffffffff02988f32000000000017a91494b243b87a6b2ee1c40f73000170a80eb1a9123b87e9ecb300000000001976a9142b25017440017584660a4a630ea57e9296c3893c88ac00000000", "vin": [{"sequence": 4294967295, "scriptSig": {"hex": "47304402206c541683539b424442e7c68d21eadd402fbc36b3f13cf4ff541692bd5f57434d02206c0d023dfa452e2be2b768897b17ce99f99730880d4536b6864cc501cc6097eb01210343e2334ffe1fb5547784afef2b8d5b43f8f4fa0f88327c7a408580c7c2af3685", "asm": "304402206c541683539b424442e7c68d21eadd402fbc36b3f13cf4ff541692bd5f57434d02206c0d023dfa452e2be2b768897b17ce99f99730880d4536b6864cc501cc6097eb[ALL] 0343e2334ffe1fb5547784afef2b8d5b43f8f4fa0f88327c7a408580c7c2af3685"}, "vout": 1, "txid": "348dca36630fc0a5e629e5894c8c3e84d408a54008d95598573e2312a81a50c6"}], "txid": "cd5ffbbfeba0cb166ef8388e1df88f7963dd82084fa5330c0524cccc49cab28b", "blocktime": 1537874412, "version": 1, "confirmations": 11467, "time": 1537874412, "locktime": 0, "vsize": 223, "size": 223}