{"hash": "cd6c34d4f5f1acd0a0e349d3c1c80ac0091142f7f6a97e0bc617801028e00324", "blockhash": "0000000000000000001f0ddff1eddb255c1121bcd4da4f1bc9a0da00cae72433", "vout": [{"scriptPubKey": {"reqSigs": 1, "hex": "76a914f88c9741bdaa33a811b17f42cd0915e3a2484e2b88ac", "addresses": ["1PfCzzqhuRnWa3cuwXdDTkzodKLmYiB9RR"], "asm": "OP_DUP OP_HASH160 f88c9741bdaa33a811b17f42cd0915e3a2484e2b OP_EQUALVERIFY OP_CHECKSIG", "type": "pubkeyhash"}, "value": 0.03063371, "n": 0}, {"scriptPubKey": {"reqSigs": 1, "hex": "76a914206d87dac5fa5f0f1bb42410df49215608fec3ae88ac", "addresses": ["13xTqTu8xMQu5EVstkxiRuYx7U7rQGjyUr"], "asm": "OP_DUP OP_HASH160 206d87dac5fa5f0f1bb42410df49215608fec3ae OP_EQUALVERIFY OP_CHECKSIG", "type": "pubkeyhash"}, "value": 2.44937433, "n": 1}], "hex": "010000000184375d21384057cb00c5bfa2cdc556bff107a2eb0d9c4726f7e87c811a644645010000006b483045022100883b3d36a582e4fb2948ffe82de6b81b6ba301057474eee94738b2a7335cca5a02203f7bd1b8e623f254b6ddfd8cc0ac4500cf80ba7fe850a29d15d581aaa45d42f1012103020c81c165c1e808d2ddabb49a30880a9f17b50b5db212f80386bc31728f70d0ffffffff024bbe2e00000000001976a914f88c9741bdaa33a811b17f42cd0915e3a2484e2b88acd972990e000000001976a914206d87dac5fa5f0f1bb42410df49215608fec3ae88ac00000000", "vin": [{"sequence": 4294967295, "scriptSig": {"hex": "483045022100883b3d36a582e4fb2948ffe82de6b81b6ba301057474eee94738b2a7335cca5a02203f7bd1b8e623f254b6ddfd8cc0ac4500cf80ba7fe850a29d15d581aaa45d42f1012103020c81c165c1e808d2ddabb49a30880a9f17b50b5db212f80386bc31728f70d0", "asm": "3045022100883b3d36a582e4fb2948ffe82de6b81b6ba301057474eee94738b2a7335cca5a02203f7bd1b8e623f254b6ddfd8cc0ac4500cf80ba7fe850a29d15d581aaa45d42f1[ALL] 03020c81c165c1e808d2ddabb49a30880a9f17b50b5db212f80386bc31728f70d0"}, "vout": 1, "txid": "4546641a817ce8f726479c0deba207f1bf56c5cda2bfc500cb574038215d3784"}], "txid": "cd6c34d4f5f1acd0a0e349d3c1c80ac0091142f7f6a97e0bc617801028e00324", "blocktime": 1537872018, "version": 1, "confirmations": 11489, "time": 1537872018, "locktime": 0, "vsize": 226, "size": 226}