{"hash": "3b13f9adbffe37605b17d22b021ae3ed558752a6d467292a7de3f0a390a9e5c0", "blockhash": "0000000000000000000baef3f32e3676a92c3b2e5da21b426e4f302fc371ce76", "vout": [{"scriptPubKey": {"reqSigs": 1, "hex": "76a91449c8a219b02cc82a1a8ee060d958924a0ca52a7088ac", "addresses": ["17j8gF6e9xd5q6EpC9hvih5LYMBbv8J1an"], "asm": "OP_DUP OP_HASH160 49c8a219b02cc82a1a8ee060d958924a0ca52a70 OP_EQUALVERIFY OP_CHECKSIG", "type": "pubkeyhash"}, "value": 0.02265732, "n": 0}, {"scriptPubKey": {"reqSigs": 1, "hex": "a914b47c8132260bb40dcb656f1dd2d036bec071c5c187", "addresses": ["3J9LhouGyTj7mf3XaQ1fU1vnotUu9bnf3P"], "asm": "OP_HASH160 b47c8132260bb40dcb656f1dd2d036bec071c5c1 OP_EQUAL", "type": "scripthash"}, "value": 0.10162383, "n": 1}, {"scriptPubKey": {"reqSigs": 1, "hex": "76a9148dfaca01c77c236efc29bab883981ca85b1f031e88ac", "addresses": ["1DwiiBQuiKcsj1SDCEG7eYc9f9ibB8bLSa"], "asm": "OP_DUP OP_HASH160 8dfaca01c77c236efc29bab883981ca85b1f031e OP_EQUALVERIFY OP_CHECKSIG", "type": "pubkeyhash"}, "value": 0.398, "n": 2}], "hex": "02000000000102e63132335ff02a5537b827b89bf53cfa0cf0a035e05bd6fc2e10e09ee042136e0000000017160014fa2951a9c04343c508eaf05b8f8fee9e92595114ffffffffbe9d36dbaf4c67fb162cce5e9b2946b69181894b3de6640c4c587631a0e63ac30100000017160014bc2ebb6591d8b8bb304e41168e1e4dec32d7d0b2ffffffff0384922200000000001976a91449c8a219b02cc82a1a8ee060d958924a0ca52a7088accf109b000000000017a914b47c8132260bb40dcb656f1dd2d036bec071c5c187c04c5f02000000001976a9148dfaca01c77c236efc29bab883981ca85b1f031e88ac02483045022100dc331a6c987f75e1b032f65c41671520fed79503e2de779615e62a3e636ef90802203433a732f0cf3a3b3acc03b1443e80ec05916f6bf1aa012d881cfc04b2e2626e012102c9ad7532a21e1c6f7749cf18b675b2f95bf3e8cfef9dbaa639f12e0020c0d38302483045022100d0c01590c811e59b34cdbeea4e1a47b75379096278fdb10d9755973bde7be3b402204b83540abf38db6950db319e58b3999deec08c82a4b96d9be7b03a5bf673bb750121035c1aa87ee9d96ab275586703df68beebe2a39406c5987ac3054578c06064c03100000000", "vin": [{"txinwitness": ["3045022100dc331a6c987f75e1b032f65c41671520fed79503e2de779615e62a3e636ef90802203433a732f0cf3a3b3acc03b1443e80ec05916f6bf1aa012d881cfc04b2e2626e01", "02c9ad7532a21e1c6f7749cf18b675b2f95bf3e8cfef9dbaa639f12e0020c0d383"], "sequence": 4294967295, "scriptSig": {"hex": "160014fa2951a9c04343c508eaf05b8f8fee9e92595114", "asm": "0014fa2951a9c04343c508eaf05b8f8fee9e92595114"}, "vout": 0, "txid": "6e1342e09ee0102efcd65be035a0f00cfa3cf59bb827b837552af05f333231e6"}, {"txinwitness": ["3045022100d0c01590c811e59b34cdbeea4e1a47b75379096278fdb10d9755973bde7be3b402204b83540abf38db6950db319e58b3999deec08c82a4b96d9be7b03a5bf673bb7501", "035c1aa87ee9d96ab275586703df68beebe2a39406c5987ac3054578c06064c031"], "sequence": 4294967295, "scriptSig": {"hex": "160014bc2ebb6591d8b8bb304e41168e1e4dec32d7d0b2", "asm": "0014bc2ebb6591d8b8bb304e41168e1e4dec32d7d0b2"}, "vout": 1, "txid": "c33ae6a03176584c0c64e63d4b898191b646299b5ece2c16fb674cafdb369dbe"}], "txid": "cd6d6a20e3e031c0b522520aa9eab52a3ded024267b9122d2c54f7d0f49eb64d", "blocktime": 1537876114, "version": 2, "confirmations": 11459, "time": 1537876114, "locktime": 0, "vsize": 293, "size": 456}