{"hash": "cd71014f5b70d63081ebf1cb16f47d7c89adac4f3bdeee8c5e584cf869b5598b", "blockhash": "0000000000000000001cda96e906b7601b7a6fb1a3b62bca570a9e5d8f4b3de1", "vout": [{"scriptPubKey": {"reqSigs": 1, "hex": "a914b210e878747a4fcce371a19417c51d84baf39f4287", "addresses": ["3HvYTV2puWk4xcoWSJyq52GiNQKDaaz6DX"], "asm": "OP_HASH160 b210e878747a4fcce371a19417c51d84baf39f42 OP_EQUAL", "type": "scripthash"}, "value": 0.06832039, "n": 0}], "hex": "010000000150525e2f274d6dd5204d9970feeddab76f3760a43875c35e98b1d0df826ed994000000006a47304402205e77b9f8784bb3e4443de96ca4bd1b51e75fbf9d7df6c9d5fa3c635290d8191402204928162f768b136fc0478ac8fa826eec7febe836bd9eb9769a199e2448fcff5501210203ca41a5e5d147ee3b741d737ad936a1b79d7ca3a2904f311984d946c05a4ba0ffffffff01a73f68000000000017a914b210e878747a4fcce371a19417c51d84baf39f428700000000", "vin": [{"sequence": 4294967295, "scriptSig": {"hex": "47304402205e77b9f8784bb3e4443de96ca4bd1b51e75fbf9d7df6c9d5fa3c635290d8191402204928162f768b136fc0478ac8fa826eec7febe836bd9eb9769a199e2448fcff5501210203ca41a5e5d147ee3b741d737ad936a1b79d7ca3a2904f311984d946c05a4ba0", "asm": "304402205e77b9f8784bb3e4443de96ca4bd1b51e75fbf9d7df6c9d5fa3c635290d8191402204928162f768b136fc0478ac8fa826eec7febe836bd9eb9769a199e2448fcff55[ALL] 0203ca41a5e5d147ee3b741d737ad936a1b79d7ca3a2904f311984d946c05a4ba0"}, "vout": 0, "txid": "94d96e82dfd0b1985ec37538a460376fb7daedfe70994d20d56d4d272f5e5250"}], "txid": "cd71014f5b70d63081ebf1cb16f47d7c89adac4f3bdeee8c5e584cf869b5598b", "blocktime": 1537873282, "version": 1, "confirmations": 11481, "time": 1537873282, "locktime": 0, "vsize": 189, "size": 189}