{"hash": "cd719f3ea99c74d37e91c8de47cb51e20cbc8913cc411376c7ece420069b9e58", "blockhash": "00000000000000000024a2167bbff67b0be802c0b01cdd79e6331c2be6459f87", "vout": [{"scriptPubKey": {"reqSigs": 1, "hex": "a9141a2cdd6c93be7d5676b6a1bdff2d4dc778e06ca487", "addresses": ["345REoToPS6BkzMrizAzEHuTRtA8wZUs4J"], "asm": "OP_HASH160 1a2cdd6c93be7d5676b6a1bdff2d4dc778e06ca4 OP_EQUAL", "type": "scripthash"}, "value": 0.035, "n": 0}, {"scriptPubKey": {"reqSigs": 1, "hex": "76a91405e673452119cbc8c9cec4b872b816991e9c40b888ac", "addresses": ["1YCSveG3TZe6xyA5gWn1VLKXfV79PoYzr"], "asm": "OP_DUP OP_HASH160 05e673452119cbc8c9cec4b872b816991e9c40b8 OP_EQUALVERIFY OP_CHECKSIG", "type": "pubkeyhash"}, "value": 0.09430225, "n": 1}], "hex": "010000000137e3538775ef531bc461d5d69e0304370d704047bd8bb83054e6115923f4f7a2010000006b483045022100d0c279f45ade753e73df3536445b610eb68651154704a27280e496ccb585a873022012c80aaaf5be3f9ef1308b16e49839cf98794ecf6dee4b89854c9cd5fd088f790121029d9a43f3beb47ec207588da9395d6eef81fbe219333ecab3f63819f3bf30a61dffffffff02e06735000000000017a9141a2cdd6c93be7d5676b6a1bdff2d4dc778e06ca487d1e48f00000000001976a91405e673452119cbc8c9cec4b872b816991e9c40b888ac00000000", "vin": [{"sequence": 4294967295, "scriptSig": {"hex": "483045022100d0c279f45ade753e73df3536445b610eb68651154704a27280e496ccb585a873022012c80aaaf5be3f9ef1308b16e49839cf98794ecf6dee4b89854c9cd5fd088f790121029d9a43f3beb47ec207588da9395d6eef81fbe219333ecab3f63819f3bf30a61d", "asm": "3045022100d0c279f45ade753e73df3536445b610eb68651154704a27280e496ccb585a873022012c80aaaf5be3f9ef1308b16e49839cf98794ecf6dee4b89854c9cd5fd088f79[ALL] 029d9a43f3beb47ec207588da9395d6eef81fbe219333ecab3f63819f3bf30a61d"}, "vout": 1, "txid": "a2f7f4235911e65430b88bbd4740700d3704039ed6d561c41b53ef758753e337"}], "txid": "cd719f3ea99c74d37e91c8de47cb51e20cbc8913cc411376c7ece420069b9e58", "blocktime": 1537870564, "version": 1, "confirmations": 11515, "time": 1537870564, "locktime": 0, "vsize": 224, "size": 224}