{"hash": "cd731ede28bc8a210fd4d1ce881737502241564fbd97561526be631711fbd827", "blockhash": "0000000000000000001cda96e906b7601b7a6fb1a3b62bca570a9e5d8f4b3de1", "vout": [{"scriptPubKey": {"reqSigs": 1, "hex": "76a9144ae494f09c8560ac79d49332c2143651eec99fb488ac", "addresses": ["17pzqLZ1JntHMPESG9hKGTXhPNdTcVMWvY"], "asm": "OP_DUP OP_HASH160 4ae494f09c8560ac79d49332c2143651eec99fb4 OP_EQUALVERIFY OP_CHECKSIG", "type": "pubkeyhash"}, "value": 0.0430601, "n": 0}, {"scriptPubKey": {"reqSigs": 1, "hex": "76a914551b04a1f2fb60a5724ed60f86e2dd53cb43bcf888ac", "addresses": ["18kzoZEmTRn8LHcSttAMb2YrQTZ9CRB4oS"], "asm": "OP_DUP OP_HASH160 551b04a1f2fb60a5724ed60f86e2dd53cb43bcf8 OP_EQUALVERIFY OP_CHECKSIG", "type": "pubkeyhash"}, "value": 0.06987962, "n": 1}], "hex": "01000000028681b3719ddf5d12ea2a10688729bdaa7ca5feeb8ffb25a2e70caef2030d5d24020000006b483045022100b625a695ec43bd08893c5519c27ed711d1917785f0cd4da31d71291669507d59022069e9e397c53f04b7d606b63ca66994bbfc25b65c1669ce50f487f08155b96d130121024221bf473e4d8b0c75ded05a380b9b6af0b9b40c05ca969dccbf7a216b4fd934ffffffffa948560057aa3f5c6e523c5a1cac1a241323d189dc83a3d18fe5cbfb72e9ce2b000000006a47304402203019f1b1afd1d734d1db9edf819337a251bbfa39d7e49e89557aa5dd0973a677022061446094b806a9e2dcc67544efdbda2fa334b8988056f649a75dd712d1a65b7a012102bc34859d42a24453bd28cf3f492b7c134c3964f158bfabf8e81205db04aebb55ffffffff025ab44100000000001976a9144ae494f09c8560ac79d49332c2143651eec99fb488acbaa06a00000000001976a914551b04a1f2fb60a5724ed60f86e2dd53cb43bcf888ac00000000", "vin": [{"sequence": 4294967295, "scriptSig": {"hex": "483045022100b625a695ec43bd08893c5519c27ed711d1917785f0cd4da31d71291669507d59022069e9e397c53f04b7d606b63ca66994bbfc25b65c1669ce50f487f08155b96d130121024221bf473e4d8b0c75ded05a380b9b6af0b9b40c05ca969dccbf7a216b4fd934", "asm": "3045022100b625a695ec43bd08893c5519c27ed711d1917785f0cd4da31d71291669507d59022069e9e397c53f04b7d606b63ca66994bbfc25b65c1669ce50f487f08155b96d13[ALL] 024221bf473e4d8b0c75ded05a380b9b6af0b9b40c05ca969dccbf7a216b4fd934"}, "vout": 2, "txid": "245d0d03f2ae0ce7a225fb8febfea57caabd298768102aea125ddf9d71b38186"}, {"sequence": 4294967295, "scriptSig": {"hex": "47304402203019f1b1afd1d734d1db9edf819337a251bbfa39d7e49e89557aa5dd0973a677022061446094b806a9e2dcc67544efdbda2fa334b8988056f649a75dd712d1a65b7a012102bc34859d42a24453bd28cf3f492b7c134c3964f158bfabf8e81205db04aebb55", "asm": "304402203019f1b1afd1d734d1db9edf819337a251bbfa39d7e49e89557aa5dd0973a677022061446094b806a9e2dcc67544efdbda2fa334b8988056f649a75dd712d1a65b7a[ALL] 02bc34859d42a24453bd28cf3f492b7c134c3964f158bfabf8e81205db04aebb55"}, "vout": 0, "txid": "2bcee972fbcbe58fd1a383dc89d12313241aac1c5a3c526e5c3faa57005648a9"}], "txid": "cd731ede28bc8a210fd4d1ce881737502241564fbd97561526be631711fbd827", "blocktime": 1537873282, "version": 1, "confirmations": 11485, "time": 1537873282, "locktime": 0, "vsize": 373, "size": 373}