{"hash": "cd74e80fd90170b3cccadca937ea9d0811327749a25e986a667d5040382cb424", "blockhash": "0000000000000000001f76057863aec43deb6fa401d9628bb513d65a8098bfab", "vout": [{"scriptPubKey": {"reqSigs": 1, "hex": "76a9148a2d160ddcbc8e62e17abab9fd47d60b14b7c3c288ac", "addresses": ["1DbcG7Ze5LsYRUh22Di8EHxqhqTU3x6hE2"], "asm": "OP_DUP OP_HASH160 8a2d160ddcbc8e62e17abab9fd47d60b14b7c3c2 OP_EQUALVERIFY OP_CHECKSIG", "type": "pubkeyhash"}, "value": 0.00065263, "n": 0}, {"scriptPubKey": {"reqSigs": 1, "hex": "76a914b520984c1c6d9448650bbbfe4d5a55e40c4cf19a88ac", "addresses": ["1HWiMTR8vxiGdCQp3LH67w7A7cohumFa8u"], "asm": "OP_DUP OP_HASH160 b520984c1c6d9448650bbbfe4d5a55e40c4cf19a OP_EQUALVERIFY OP_CHECKSIG", "type": "pubkeyhash"}, "value": 0.09054787, "n": 1}], "hex": "0200000001be7b504974a6337225d8a590f8ee6d01f0215333f710e92fee178c3d3dbd1298010000006a47304402206c2a627e74bf0065735a1a0cfa6bc7df2373c01c7bd78debc2a766fd11c63aca0220598a39679fbb7d3b5a51536fd04fda832463fb830ac01ac7fa6942b67114f0c4012102db979748bb82aac24e3e82f688b9262d56fd7ae3c9442f309259e127f2db4a52ffffffff02effe0000000000001976a9148a2d160ddcbc8e62e17abab9fd47d60b14b7c3c288ac432a8a00000000001976a914b520984c1c6d9448650bbbfe4d5a55e40c4cf19a88ac00000000", "vin": [{"sequence": 4294967295, "scriptSig": {"hex": "47304402206c2a627e74bf0065735a1a0cfa6bc7df2373c01c7bd78debc2a766fd11c63aca0220598a39679fbb7d3b5a51536fd04fda832463fb830ac01ac7fa6942b67114f0c4012102db979748bb82aac24e3e82f688b9262d56fd7ae3c9442f309259e127f2db4a52", "asm": "304402206c2a627e74bf0065735a1a0cfa6bc7df2373c01c7bd78debc2a766fd11c63aca0220598a39679fbb7d3b5a51536fd04fda832463fb830ac01ac7fa6942b67114f0c4[ALL] 02db979748bb82aac24e3e82f688b9262d56fd7ae3c9442f309259e127f2db4a52"}, "vout": 1, "txid": "9812bd3d3d8c17ee2fe910f7335321f0016deef890a5d8257233a67449507bbe"}], "txid": "cd74e80fd90170b3cccadca937ea9d0811327749a25e986a667d5040382cb424", "blocktime": 1537873891, "version": 2, "confirmations": 11475, "time": 1537873891, "locktime": 0, "vsize": 225, "size": 225}