{"hash": "cd7403e790be6d2b4f06c7ed788ff00fd56caed4763bbd2bb5168613ff5a7d1f", "blockhash": "0000000000000000001e0dab787dd257d1dbfcb92a98c2207d5e1078be1f4165", "vout": [{"scriptPubKey": {"type": "nulldata", "hex": "6a4c50000077ba0001a193388fa27c539194a8bb0ee5bf9ae76da98a211aaf6c953dd567cf27e760c101fe53482902ac58689587b753e35baa120d0612ad374a98508c1d100759d4ba30d2c37bb011d97e02cf", "asm": "OP_RETURN 000077ba0001a193388fa27c539194a8bb0ee5bf9ae76da98a211aaf6c953dd567cf27e760c101fe53482902ac58689587b753e35baa120d0612ad374a98508c1d100759d4ba30d2c37bb011d97e02cf"}, "value": 0.0, "n": 0}, {"scriptPubKey": {"reqSigs": 1, "hex": "76a914b91f729acb33add22c6fa86f5b31e346680531e388ac", "addresses": ["1HsqgWfCbVzRiqtCHTvuEeBZYo4esT6AaX"], "asm": "OP_DUP OP_HASH160 b91f729acb33add22c6fa86f5b31e346680531e3 OP_EQUALVERIFY OP_CHECKSIG", "type": "pubkeyhash"}, "value": 0.0064381, "n": 1}], "hex": "0100000001d329a4408d47ce07c00cae580609851b0571ae453aefdf92967740dc65cac17c010000006b483045022100a833694f3eb196bf41fdad9b905fa03f1fd0a602a1a67a40fc22255c26217fec02204e40ec18753a7d6802e51d2d0d48bbdf5174b7e509b5e01bd0175ee07e7fe826012103e2de1ea4692dc1c497ee948520d3b399a46a0a071f97c92759db84a4d7b317dbffffffff020000000000000000536a4c50000077ba0001a193388fa27c539194a8bb0ee5bf9ae76da98a211aaf6c953dd567cf27e760c101fe53482902ac58689587b753e35baa120d0612ad374a98508c1d100759d4ba30d2c37bb011d97e02cfe2d20900000000001976a914b91f729acb33add22c6fa86f5b31e346680531e388ac00000000", "vin": [{"sequence": 4294967295, "scriptSig": {"hex": "483045022100a833694f3eb196bf41fdad9b905fa03f1fd0a602a1a67a40fc22255c26217fec02204e40ec18753a7d6802e51d2d0d48bbdf5174b7e509b5e01bd0175ee07e7fe826012103e2de1ea4692dc1c497ee948520d3b399a46a0a071f97c92759db84a4d7b317db", "asm": "3045022100a833694f3eb196bf41fdad9b905fa03f1fd0a602a1a67a40fc22255c26217fec02204e40ec18753a7d6802e51d2d0d48bbdf5174b7e509b5e01bd0175ee07e7fe826[ALL] 03e2de1ea4692dc1c497ee948520d3b399a46a0a071f97c92759db84a4d7b317db"}, "vout": 1, "txid": "7cc1ca65dc40779692dfef3a45ae71051b85090658ae0cc007ce478d40a429d3"}], "txid": "cd7403e790be6d2b4f06c7ed788ff00fd56caed4763bbd2bb5168613ff5a7d1f", "blocktime": 1537872475, "version": 1, "confirmations": 11486, "time": 1537872475, "locktime": 0, "vsize": 284, "size": 284}