{"hash": "3684d660bfc2a5b2b1a6ea852bee9ec33789088d3e064c7e571fa11afb0675bf", "blockhash": "0000000000000000001e0dab787dd257d1dbfcb92a98c2207d5e1078be1f4165", "vout": [{"scriptPubKey": {"reqSigs": 1, "hex": "76a91413b83580193f15fb664e3610ebc142f58d46bb2188ac", "addresses": ["12oGWi9kt9eBCHTh5bHjYrAvKhmGGeUdXm"], "asm": "OP_DUP OP_HASH160 13b83580193f15fb664e3610ebc142f58d46bb21 OP_EQUALVERIFY OP_CHECKSIG", "type": "pubkeyhash"}, "value": 0.00252285, "n": 0}, {"scriptPubKey": {"reqSigs": 1, "hex": "a91408d001e3551d3ce83bd32e12f5296206cc4dd5a687", "addresses": ["32VcWgdry8nUd42dA72Vq4YqN6M9eDA4rT"], "asm": "OP_HASH160 08d001e3551d3ce83bd32e12f5296206cc4dd5a6 OP_EQUAL", "type": "scripthash"}, "value": 1.31707345, "n": 1}], "hex": "0100000000010100ffc11f978b2f6cd427f9943ca5adab6558a55a52ac35cd26c084613bfa1fdd0100000023220020ca96902fcb665c94a3834ad4f51d6b18c7ec1284932199a2addfdde7a8d1a7bbffffffff027dd90300000000001976a91413b83580193f15fb664e3610ebc142f58d46bb2188acd1b1d9070000000017a91408d001e3551d3ce83bd32e12f5296206cc4dd5a6870400473044022054f23ddeb4b19a417acffceed177394c1eab63426d7ffc61184cb500ab78a3d40220463f2234ee6da74de1cca85547919956ae3794df450779a7b825d5ff55e3f20401483045022100997818b2023e9f9cbbf0354ccd60262b21d36b291dd923b7b558ab829e5e135a0220297a05a1e73c78a5f9ab7f701f61bb4fd4dff45a2703c9865787242b00e034f2014752210236155d50029dca74760e35f0eabb4424eb6d649bf250f7d17826d4bc70264eac21035103ae7fde57e8b6bb3bb5f71f41a1a19d611723da7ff266c973839886408c4452ae00000000", "vin": [{"txinwitness": ["", "3044022054f23ddeb4b19a417acffceed177394c1eab63426d7ffc61184cb500ab78a3d40220463f2234ee6da74de1cca85547919956ae3794df450779a7b825d5ff55e3f20401", "3045022100997818b2023e9f9cbbf0354ccd60262b21d36b291dd923b7b558ab829e5e135a0220297a05a1e73c78a5f9ab7f701f61bb4fd4dff45a2703c9865787242b00e034f201", "52210236155d50029dca74760e35f0eabb4424eb6d649bf250f7d17826d4bc70264eac21035103ae7fde57e8b6bb3bb5f71f41a1a19d611723da7ff266c973839886408c4452ae"], "sequence": 4294967295, "scriptSig": {"hex": "220020ca96902fcb665c94a3834ad4f51d6b18c7ec1284932199a2addfdde7a8d1a7bb", "asm": "0020ca96902fcb665c94a3834ad4f51d6b18c7ec1284932199a2addfdde7a8d1a7bb"}, "vout": 1, "txid": "dd1ffa3b6184c026cd35ac525aa55865abada53c94f927d46c2f8b971fc1ff00"}], "txid": "cd7484fae37d6ad88d1304024098e5b8d8c032c4c34bec5d8023f1e75eb36122", "blocktime": 1537872475, "version": 1, "confirmations": 11487, "time": 1537872475, "locktime": 0, "vsize": 208, "size": 373}