{"hash": "cd7bf8a649e63ed461924c3d723394a4b17a482e68d843037e29a30723aa4255", "blockhash": "00000000000000000004ffacab907a6b429b9a5745fa0b75af4234bf69dd7176", "vout": [{"scriptPubKey": {"reqSigs": 1, "hex": "a914b225ddedb5b3c74932f29371e8c4a3957a79865587", "addresses": ["3HvyZjCtrLi2qgbmo2J3znjb6BcMuPr6Di"], "asm": "OP_HASH160 b225ddedb5b3c74932f29371e8c4a3957a798655 OP_EQUAL", "type": "scripthash"}, "value": 0.00237711, "n": 0}, {"scriptPubKey": {"reqSigs": 1, "hex": "76a914601f0589bc782bec01440b4ed5fd37dd1858577f88ac", "addresses": ["19mF2qXCeeFCfqJbM8JiwpiD23fmDctnJa"], "asm": "OP_DUP OP_HASH160 601f0589bc782bec01440b4ed5fd37dd1858577f OP_EQUALVERIFY OP_CHECKSIG", "type": "pubkeyhash"}, "value": 0.01363021, "n": 1}], "hex": "0100000001c2a19d91293e263ce86e28f5eb8596895047c2d542ef0e8d136a213e0f142b9f010000006b483045022100fae2624bf187d799520216d53a488935392dfffb8598125c80fa33b65c0c2fd00220797af33775b8e01e1a73620c51ddf83594ad58a9826ea4ab16c4f12f84e001b5012102440121aba418c17ce0d3a53968c0e0b03035b8dff073c8c7c2980a780a2428feffffffff028fa003000000000017a914b225ddedb5b3c74932f29371e8c4a3957a798655874dcc1400000000001976a914601f0589bc782bec01440b4ed5fd37dd1858577f88ac00000000", "vin": [{"sequence": 4294967295, "scriptSig": {"hex": "483045022100fae2624bf187d799520216d53a488935392dfffb8598125c80fa33b65c0c2fd00220797af33775b8e01e1a73620c51ddf83594ad58a9826ea4ab16c4f12f84e001b5012102440121aba418c17ce0d3a53968c0e0b03035b8dff073c8c7c2980a780a2428fe", "asm": "3045022100fae2624bf187d799520216d53a488935392dfffb8598125c80fa33b65c0c2fd00220797af33775b8e01e1a73620c51ddf83594ad58a9826ea4ab16c4f12f84e001b5[ALL] 02440121aba418c17ce0d3a53968c0e0b03035b8dff073c8c7c2980a780a2428fe"}, "vout": 1, "txid": "9f2b140f3e216a138d0eef42d5c24750899685ebf5286ee83c263e29919da1c2"}], "txid": "cd7bf8a649e63ed461924c3d723394a4b17a482e68d843037e29a30723aa4255", "blocktime": 1537875543, "version": 1, "confirmations": 11464, "time": 1537875543, "locktime": 0, "vsize": 224, "size": 224}