{"hash": "cd8039b3bc38adc35aa6a4e8c17b91b8a881351c206e326363101b939eb15f42", "blockhash": "00000000000000000017f5eb5941039fbcee6240d03bc1f2f8e35350df66a1d8", "vout": [{"scriptPubKey": {"type": "nulldata", "hex": "6a146f6d6e69000000000000001f000009184e72a000", "asm": "OP_RETURN 6f6d6e69000000000000001f000009184e72a000"}, "value": 0.0, "n": 0}, {"scriptPubKey": {"reqSigs": 1, "hex": "76a9144b84fbd864788cd5627a94d822bebbda602e813088ac", "addresses": ["17tJzGBCHrPjZoaSD5TuYQ2kJpnzDnazdi"], "asm": "OP_DUP OP_HASH160 4b84fbd864788cd5627a94d822bebbda602e8130 OP_EQUALVERIFY OP_CHECKSIG", "type": "pubkeyhash"}, "value": 15.64424, "n": 1}, {"scriptPubKey": {"reqSigs": 1, "hex": "76a9145abc584bb118e8a9bac23030ab8f7bba64db0ede88ac", "addresses": ["19GmShVbUwGrLvD3AfHuf9kkmtaGWxdi2k"], "asm": "OP_DUP OP_HASH160 5abc584bb118e8a9bac23030ab8f7bba64db0ede OP_EQUALVERIFY OP_CHECKSIG", "type": "pubkeyhash"}, "value": 5.46e-06, "n": 2}], "hex": "01000000021a36ac89038638f3bb2a0d41837d27c3322c46645e3572d3e73109572a8ab366020000006b483045022100de4da00b51cd900424f55344221129f2ae8006d4016ba2cbabb28a5b40713432022001d01574e70fa813b6a002a31d989ce5523b71a8a213b1225a5e10db781bc98b012103a0f5f0e111fa85bee4467d5ccd26ba5a59247098d8bfc525523422dac4399cecffffffffa8761cc6ccc6b857a8a9ccf04c06d3ceed1e4a8e9b73d13c9f69e44e1a089be8010000006b4830450221009e023b078df4631aa3481b1602c0cd03686dcf42bbedbf42180f598d4b447805022043852e2dd4d271a91e94c7ebc4d4153591f11226ca1792cd2d9f1593cdc78e600121021e16512acf22b7da03c62eabbdfdd7f07609981ba15d3dd475cc2f0de37850ceffffffff030000000000000000166a146f6d6e69000000000000001f000009184e72a00040373f5d000000001976a9144b84fbd864788cd5627a94d822bebbda602e813088ac22020000000000001976a9145abc584bb118e8a9bac23030ab8f7bba64db0ede88ac00000000", "vin": [{"sequence": 4294967295, "scriptSig": {"hex": "483045022100de4da00b51cd900424f55344221129f2ae8006d4016ba2cbabb28a5b40713432022001d01574e70fa813b6a002a31d989ce5523b71a8a213b1225a5e10db781bc98b012103a0f5f0e111fa85bee4467d5ccd26ba5a59247098d8bfc525523422dac4399cec", "asm": "3045022100de4da00b51cd900424f55344221129f2ae8006d4016ba2cbabb28a5b40713432022001d01574e70fa813b6a002a31d989ce5523b71a8a213b1225a5e10db781bc98b[ALL] 03a0f5f0e111fa85bee4467d5ccd26ba5a59247098d8bfc525523422dac4399cec"}, "vout": 2, "txid": "66b38a2a570931e7d372355e64462c32c3277d83410d2abbf338860389ac361a"}, {"sequence": 4294967295, "scriptSig": {"hex": "4830450221009e023b078df4631aa3481b1602c0cd03686dcf42bbedbf42180f598d4b447805022043852e2dd4d271a91e94c7ebc4d4153591f11226ca1792cd2d9f1593cdc78e600121021e16512acf22b7da03c62eabbdfdd7f07609981ba15d3dd475cc2f0de37850ce", "asm": "30450221009e023b078df4631aa3481b1602c0cd03686dcf42bbedbf42180f598d4b447805022043852e2dd4d271a91e94c7ebc4d4153591f11226ca1792cd2d9f1593cdc78e60[ALL] 021e16512acf22b7da03c62eabbdfdd7f07609981ba15d3dd475cc2f0de37850ce"}, "vout": 1, "txid": "e89b081a4ee4699f3cd1739b8e4a1eedced3064cf0cca9a857b8c6ccc61c76a8"}], "txid": "cd8039b3bc38adc35aa6a4e8c17b91b8a881351c206e326363101b939eb15f42", "blocktime": 1537874412, "version": 1, "confirmations": 11467, "time": 1537874412, "locktime": 0, "vsize": 405, "size": 405}