{"hash": "7e18c043c1ed45e4bd7fc5afaddc6e6d04ef5d8db168a9fc910e2baf814ee190", "blockhash": "0000000000000000001e0dab787dd257d1dbfcb92a98c2207d5e1078be1f4165", "vout": [{"scriptPubKey": {"reqSigs": 1, "hex": "76a9148053654f9858ee7f6cfbef207f983124f192322988ac", "addresses": ["1ChXPzZ5NBYYQC6zNoA79L1CejG5yGrP2h"], "asm": "OP_DUP OP_HASH160 8053654f9858ee7f6cfbef207f983124f1923229 OP_EQUALVERIFY OP_CHECKSIG", "type": "pubkeyhash"}, "value": 0.0019216, "n": 0}, {"scriptPubKey": {"reqSigs": 1, "hex": "a91475cb34ff59423678f3f3f36dd4490d25a0a101e287", "addresses": ["3CRrR4PfRXAqJEZfy1RaGEVFphNFEtfW7z"], "asm": "OP_HASH160 75cb34ff59423678f3f3f36dd4490d25a0a101e2 OP_EQUAL", "type": "scripthash"}, "value": 0.01004723, "n": 1}], "hex": "0200000000010287411bbf370b413f6c573b6a07490daaa2401274364cbe6a13cc73716a3e0ae914000000171600146b31cdf12f81f4d3cc58e03de52603e0c178f7aafeffffffebed34f60f79715d1b7af76cdacc96882952890fa4fda60df0238e85a01f84a701000000171600146f0bec6444b2147a613f74ed57637b8beb3e462ffeffffff02a0ee0200000000001976a9148053654f9858ee7f6cfbef207f983124f192322988acb3540f000000000017a91475cb34ff59423678f3f3f36dd4490d25a0a101e28702483045022100d8c9c0c7ddc82611c857734a5a56018a8b3aeb8de644943c223ec70d26bfb82a022031e9076e3f7f89afc3976fefb229da79720f1daa26ceb96f85ad75c001f3293f0121022afc7621adcab4d21d13f49d882a408127cdf2b57528cd6f0b28389bc6dcc1b002483045022100e0c5091383ef6c5fe7e9fede2a4f2490719f9a1e76619458b480d7fda64e9e0f02203fa4b8f2533eda701a452ee57c7aad312063bba3401858224c460c857124c7980121037fe4fc600c11d397df9a5f9ab9d8161ebc60d4d3934871a215194edc92f8535712490800", "vin": [{"txinwitness": ["3045022100d8c9c0c7ddc82611c857734a5a56018a8b3aeb8de644943c223ec70d26bfb82a022031e9076e3f7f89afc3976fefb229da79720f1daa26ceb96f85ad75c001f3293f01", "022afc7621adcab4d21d13f49d882a408127cdf2b57528cd6f0b28389bc6dcc1b0"], "sequence": 4294967294, "scriptSig": {"hex": "1600146b31cdf12f81f4d3cc58e03de52603e0c178f7aa", "asm": "00146b31cdf12f81f4d3cc58e03de52603e0c178f7aa"}, "vout": 20, "txid": "e90a3e6a7173cc136abe4c36741240a2aa0d49076a3b576c3f410b37bf1b4187"}, {"txinwitness": ["3045022100e0c5091383ef6c5fe7e9fede2a4f2490719f9a1e76619458b480d7fda64e9e0f02203fa4b8f2533eda701a452ee57c7aad312063bba3401858224c460c857124c79801", "037fe4fc600c11d397df9a5f9ab9d8161ebc60d4d3934871a215194edc92f85357"], "sequence": 4294967294, "scriptSig": {"hex": "1600146f0bec6444b2147a613f74ed57637b8beb3e462f", "asm": "00146f0bec6444b2147a613f74ed57637b8beb3e462f"}, "vout": 1, "txid": "a7841fa0858e23f00da6fda40f8952298896ccda6cf77a1b5d71790ff634edeb"}], "txid": "cd88f0678fc48db70ae03c7edc2c0d31342baaf612dc6a5578675f8f51957aae", "blocktime": 1537872475, "version": 2, "confirmations": 11487, "time": 1537872475, "locktime": 542994, "vsize": 259, "size": 422}