{"hash": "8f71315f9fc247363bf361a3aeeb50d0838582ee9273f09d764f92d766a68def", "blockhash": "0000000000000000001e0dab787dd257d1dbfcb92a98c2207d5e1078be1f4165", "vout": [{"scriptPubKey": {"reqSigs": 1, "hex": "a91459c0e648e1f15386b777e7bdfcab72d07f33497087", "addresses": ["39sb9WfkYQRpaJBv9ZnKi7QMDnTvrBt2dx"], "asm": "OP_HASH160 59c0e648e1f15386b777e7bdfcab72d07f334970 OP_EQUAL", "type": "scripthash"}, "value": 0.00897889, "n": 0}, {"scriptPubKey": {"reqSigs": 1, "hex": "76a914c9f4f247720573303731cd89635036d09cb94b2d88ac", "addresses": ["1KQrFjUawYYQdDwDhy7c8ZHu1fkn6NdszZ"], "asm": "OP_DUP OP_HASH160 c9f4f247720573303731cd89635036d09cb94b2d OP_EQUALVERIFY OP_CHECKSIG", "type": "pubkeyhash"}, "value": 0.01092261, "n": 1}], "hex": "0200000000010255e077d472c0fb4cd663c8fdce1a6fc2a9d2f3aca6dfd7e6a659c67ff328189a00000000171600143206534d27de7b5da6d75e0b63ff6009f9b443f9feffffffb9d88f8c9f14a0b5c0fc1455ac95bcde9a8155b29571f4b33e722916ce22ccbd0000000017160014a14d766c1fe58bf29591d09cc925f93d2e74fa31feffffff0261b30d000000000017a91459c0e648e1f15386b777e7bdfcab72d07f33497087a5aa1000000000001976a914c9f4f247720573303731cd89635036d09cb94b2d88ac02483045022100919d7f322965749fb62155fc2700d1d3ea5bd32bb596e010f80ca4b4aa04ed60022008e767a509b6c74f41c35b9d5fafc4a3b0ba93e06ca4fb8d2a2edf590109aaac012103fb2ae12efe9f7075e0e70fe369dba5637e291e9d76a71dfbef5facfbe402924602483045022100c0fcc37ec994134228528a449d4c0f142d97508de09f24459d9382ea2a36ec19022069ce7e07cd7da099325ad73a31396ae1c17a88f368eb395120aa84eb7ce5307e012103258fec03b85b817b701ce0741ec2d3484d5d5ec8388a1ec3b1f620c5465d46c612490800", "vin": [{"txinwitness": ["3045022100919d7f322965749fb62155fc2700d1d3ea5bd32bb596e010f80ca4b4aa04ed60022008e767a509b6c74f41c35b9d5fafc4a3b0ba93e06ca4fb8d2a2edf590109aaac01", "03fb2ae12efe9f7075e0e70fe369dba5637e291e9d76a71dfbef5facfbe4029246"], "sequence": 4294967294, "scriptSig": {"hex": "1600143206534d27de7b5da6d75e0b63ff6009f9b443f9", "asm": "00143206534d27de7b5da6d75e0b63ff6009f9b443f9"}, "vout": 0, "txid": "9a1828f37fc659a6e6d7dfa6acf3d2a9c26f1acefdc863d64cfbc072d477e055"}, {"txinwitness": ["3045022100c0fcc37ec994134228528a449d4c0f142d97508de09f24459d9382ea2a36ec19022069ce7e07cd7da099325ad73a31396ae1c17a88f368eb395120aa84eb7ce5307e01", "03258fec03b85b817b701ce0741ec2d3484d5d5ec8388a1ec3b1f620c5465d46c6"], "sequence": 4294967294, "scriptSig": {"hex": "160014a14d766c1fe58bf29591d09cc925f93d2e74fa31", "asm": "0014a14d766c1fe58bf29591d09cc925f93d2e74fa31"}, "vout": 0, "txid": "bdcc22ce1629723eb3f47195b255819adebc95ac5514fcc0b5a0149f8c8fd8b9"}], "txid": "cd8d27d7b2a563d17cb344f33cace292035fb739b0aaa4181104d30c0dfdf4f9", "blocktime": 1537872475, "version": 2, "confirmations": 11488, "time": 1537872475, "locktime": 542994, "vsize": 259, "size": 422}