{"hash": "cd951875f999a25b7256a5b3070490ddb53da91838f6a3bd6e58bfe2e6d89bc1", "blockhash": "0000000000000000001f0ddff1eddb255c1121bcd4da4f1bc9a0da00cae72433", "vout": [{"scriptPubKey": {"reqSigs": 1, "hex": "a9148db680147129bf9b2b4f2fed88356326be7cf1f387", "addresses": ["3EcKpwELhuFEVzEgLtjn3XMHZr34rrUuY9"], "asm": "OP_HASH160 8db680147129bf9b2b4f2fed88356326be7cf1f3 OP_EQUAL", "type": "scripthash"}, "value": 0.0005, "n": 0}, {"scriptPubKey": {"reqSigs": 1, "hex": "76a9144568bce85df330de38f5fd5d858bf1dfceeb7a5888ac", "addresses": ["17L16ZAh5D77F4L9xN81UXDw6QB19RnG3M"], "asm": "OP_DUP OP_HASH160 4568bce85df330de38f5fd5d858bf1dfceeb7a58 OP_EQUALVERIFY OP_CHECKSIG", "type": "pubkeyhash"}, "value": 0.12182981, "n": 1}], "hex": "01000000015669e407f434aaeab8f43a371b67599aadb06fe5c92ca8ebec3747def5924f47000000006b483045022100980ce4753cc13d2990d5d46f92856e8528250b4c2dca67ce645128bfd0250b44022029c8d7872fcc1b8dfe34638fa4480e87755b079f2de89eb519b501e10a4cde2b012103309e2a5698d25210d0faca5f0eaf5743d158cb76e4d1a7680d80a358df2538baffffffff0250c300000000000017a9148db680147129bf9b2b4f2fed88356326be7cf1f387c5e5b900000000001976a9144568bce85df330de38f5fd5d858bf1dfceeb7a5888ac00000000", "vin": [{"sequence": 4294967295, "scriptSig": {"hex": "483045022100980ce4753cc13d2990d5d46f92856e8528250b4c2dca67ce645128bfd0250b44022029c8d7872fcc1b8dfe34638fa4480e87755b079f2de89eb519b501e10a4cde2b012103309e2a5698d25210d0faca5f0eaf5743d158cb76e4d1a7680d80a358df2538ba", "asm": "3045022100980ce4753cc13d2990d5d46f92856e8528250b4c2dca67ce645128bfd0250b44022029c8d7872fcc1b8dfe34638fa4480e87755b079f2de89eb519b501e10a4cde2b[ALL] 03309e2a5698d25210d0faca5f0eaf5743d158cb76e4d1a7680d80a358df2538ba"}, "vout": 0, "txid": "474f92f5de4737eceba82cc9e56fb0ad9a59671b373af4b8eaaa34f407e46956"}], "txid": "cd951875f999a25b7256a5b3070490ddb53da91838f6a3bd6e58bfe2e6d89bc1", "blocktime": 1537872018, "version": 1, "confirmations": 11489, "time": 1537872018, "locktime": 0, "vsize": 224, "size": 224}