{"hash": "cd9a31732b7420ab8bd3d03472feab3229bdbb9110dcb4658c4a50d1dc5c8db9", "blockhash": "00000000000000000017f5eb5941039fbcee6240d03bc1f2f8e35350df66a1d8", "vout": [{"scriptPubKey": {"reqSigs": 1, "hex": "a9146b3b7e9cc3e7ed2e5d26a2d1727ce5aa2dd3cbc287", "addresses": ["3BU1Vpq7r1jt4AQ1WGF7qSAY5J3x7YfZzj"], "asm": "OP_HASH160 6b3b7e9cc3e7ed2e5d26a2d1727ce5aa2dd3cbc2 OP_EQUAL", "type": "scripthash"}, "value": 0.0032056, "n": 0}, {"scriptPubKey": {"reqSigs": 1, "hex": "76a914e26b51e97279739571a3a862befe484477818bad88ac", "addresses": ["1MeCH5PzxKWd7FhtnHbJi3FTLWfwGiShGF"], "asm": "OP_DUP OP_HASH160 e26b51e97279739571a3a862befe484477818bad OP_EQUALVERIFY OP_CHECKSIG", "type": "pubkeyhash"}, "value": 0.04638426, "n": 1}], "hex": "01000000016333b656d136604a1ed58a0f14f7e366e09953eb08011c895046e2795ac7ab5d010000006b483045022100d8bbb48723fea08ff5a6adaf1b866797a8efee87e79e2706edf64017740e4c8702206963a8f2fbb01134e3cc6adfa2fa8df4f882d0dc3bacc18c2750436171d29d32012103c7bca24443feffabd7d7430ef10b4bfce08310100753ab931b52bd2583424f7bffffffff0230e404000000000017a9146b3b7e9cc3e7ed2e5d26a2d1727ce5aa2dd3cbc287dac64600000000001976a914e26b51e97279739571a3a862befe484477818bad88ac00000000", "vin": [{"sequence": 4294967295, "scriptSig": {"hex": "483045022100d8bbb48723fea08ff5a6adaf1b866797a8efee87e79e2706edf64017740e4c8702206963a8f2fbb01134e3cc6adfa2fa8df4f882d0dc3bacc18c2750436171d29d32012103c7bca24443feffabd7d7430ef10b4bfce08310100753ab931b52bd2583424f7b", "asm": "3045022100d8bbb48723fea08ff5a6adaf1b866797a8efee87e79e2706edf64017740e4c8702206963a8f2fbb01134e3cc6adfa2fa8df4f882d0dc3bacc18c2750436171d29d32[ALL] 03c7bca24443feffabd7d7430ef10b4bfce08310100753ab931b52bd2583424f7b"}, "vout": 1, "txid": "5dabc75a79e24650891c0108eb5399e066e3f7140f8ad51e4a6036d156b63363"}], "txid": "cd9a31732b7420ab8bd3d03472feab3229bdbb9110dcb4658c4a50d1dc5c8db9", "blocktime": 1537874412, "version": 1, "confirmations": 11467, "time": 1537874412, "locktime": 0, "vsize": 224, "size": 224}