{"hash": "cd9f28d1ebf9fc5f514e711a56d80d955309a5a4d4c382f4bbd13890487e2630", "blockhash": "0000000000000000001f76057863aec43deb6fa401d9628bb513d65a8098bfab", "vout": [{"scriptPubKey": {"reqSigs": 1, "hex": "76a91452656124bd7c679bda918814b057cbb4f82b714788ac", "addresses": ["18WfrhYEmYfaPLU7zHUrudhKF4Z9thyGYZ"], "asm": "OP_DUP OP_HASH160 52656124bd7c679bda918814b057cbb4f82b7147 OP_EQUALVERIFY OP_CHECKSIG", "type": "pubkeyhash"}, "value": 0.006218, "n": 0}, {"scriptPubKey": {"reqSigs": 1, "hex": "76a9147f0c56e48fcb6bab2757b10664179d9fb5e84c6b88ac", "addresses": ["1Cambiobai1XfTSPtYD4vK32BwYtjH2sYW"], "asm": "OP_DUP OP_HASH160 7f0c56e48fcb6bab2757b10664179d9fb5e84c6b OP_EQUALVERIFY OP_CHECKSIG", "type": "pubkeyhash"}, "value": 15.54168349, "n": 1}], "hex": "0100000001abdfb1bff45651c47002d2f235f70425b5264c3ef5b58783b9a452476682e022010000006a47304402201e60fa74d5297813c6e651ae1ff07650d1a12db65c1bde51eb7fc564586924b0022066b91f58aaaec98f9cb40a74a39592579380275cad4114afe948c3142ff16816012103c057886e5a60779095ae9b589040f47b5b0d9f25672c91c60a55081b92ba051affffffff02e87c0900000000001976a91452656124bd7c679bda918814b057cbb4f82b714788ac1dbaa25c000000001976a9147f0c56e48fcb6bab2757b10664179d9fb5e84c6b88ac00000000", "vin": [{"sequence": 4294967295, "scriptSig": {"hex": "47304402201e60fa74d5297813c6e651ae1ff07650d1a12db65c1bde51eb7fc564586924b0022066b91f58aaaec98f9cb40a74a39592579380275cad4114afe948c3142ff16816012103c057886e5a60779095ae9b589040f47b5b0d9f25672c91c60a55081b92ba051a", "asm": "304402201e60fa74d5297813c6e651ae1ff07650d1a12db65c1bde51eb7fc564586924b0022066b91f58aaaec98f9cb40a74a39592579380275cad4114afe948c3142ff16816[ALL] 03c057886e5a60779095ae9b589040f47b5b0d9f25672c91c60a55081b92ba051a"}, "vout": 1, "txid": "22e082664752a4b98387b5f53e4c26b52504f735f2d20270c45156f4bfb1dfab"}], "txid": "cd9f28d1ebf9fc5f514e711a56d80d955309a5a4d4c382f4bbd13890487e2630", "blocktime": 1537873891, "version": 1, "confirmations": 11475, "time": 1537873891, "locktime": 0, "vsize": 225, "size": 225}