{"hash": "018537e7d84d71a9a748bef913156be753b23fc0e2513724f7956b97116cc639", "blockhash": "0000000000000000001e0dab787dd257d1dbfcb92a98c2207d5e1078be1f4165", "vout": [{"scriptPubKey": {"reqSigs": 1, "hex": "76a914cd7515d97d94a02a815250a8f0c1bc9a276aabbe88ac", "addresses": ["1KjMnZN11cPCbMui4kCeVdUXY1KJPvRdNj"], "asm": "OP_DUP OP_HASH160 cd7515d97d94a02a815250a8f0c1bc9a276aabbe OP_EQUALVERIFY OP_CHECKSIG", "type": "pubkeyhash"}, "value": 0.0152, "n": 0}, {"scriptPubKey": {"reqSigs": 1, "hex": "a9140c54f418c67f6428670a594c0ae6ef9b6dc644fb87", "addresses": ["32pDoX2nzS1udBKLoPVsWNzuuZ9ucvsZot"], "asm": "OP_HASH160 0c54f418c67f6428670a594c0ae6ef9b6dc644fb OP_EQUAL", "type": "scripthash"}, "value": 0.6546292, "n": 1}], "hex": "010000000001018c6c5e5f23933b2ca8b9b20ceb8707cd446558028612c2be85ae7cc6673efbb301000000232200209e9da6891fa95d32e450594cd220706e7ae21de4b263650083984ffd27c02864ffffffff0280311700000000001976a914cd7515d97d94a02a815250a8f0c1bc9a276aabbe88ac88e2e6030000000017a9140c54f418c67f6428670a594c0ae6ef9b6dc644fb870400483045022100f229263b479a04aa8f49a6d3c28df4a4c3424a7d4c6f59293e3d03e9ff6a85fe022017316da8341c853e5135891a97f58ffdcd8f22aaabf2e63665a26ec122bd1f09014730440220303c9e6eb14ce902920fcd03ef68b8d393a7e292a6ecac60f5d6f7fe09f62132022009f04d505a25304f0995d7bcb563766e44476c2a7b1b916cbe3866776cbc6589014752210248e0a896ac9c991f101c01d620d5c4c1cbd328bc1fe3e9bc1c16537b8779371b2103d9d2be3f5a20e2bda8a215b3765d46030eae17d676a304cec3e22e5fcb12136f52ae00000000", "vin": [{"txinwitness": ["", "3045022100f229263b479a04aa8f49a6d3c28df4a4c3424a7d4c6f59293e3d03e9ff6a85fe022017316da8341c853e5135891a97f58ffdcd8f22aaabf2e63665a26ec122bd1f0901", "30440220303c9e6eb14ce902920fcd03ef68b8d393a7e292a6ecac60f5d6f7fe09f62132022009f04d505a25304f0995d7bcb563766e44476c2a7b1b916cbe3866776cbc658901", "52210248e0a896ac9c991f101c01d620d5c4c1cbd328bc1fe3e9bc1c16537b8779371b2103d9d2be3f5a20e2bda8a215b3765d46030eae17d676a304cec3e22e5fcb12136f52ae"], "sequence": 4294967295, "scriptSig": {"hex": "2200209e9da6891fa95d32e450594cd220706e7ae21de4b263650083984ffd27c02864", "asm": "00209e9da6891fa95d32e450594cd220706e7ae21de4b263650083984ffd27c02864"}, "vout": 1, "txid": "b3fb3e67c67cae85bec2128602586544cd0787eb0cb2b9a82c3b93235f5e6c8c"}], "txid": "cdafed1c5b17ad2da6396ac2fb1f85decf2867ab2809d023cd1318e4dd5f7abb", "blocktime": 1537872475, "version": 1, "confirmations": 11487, "time": 1537872475, "locktime": 0, "vsize": 208, "size": 373}