{"hash": "cdb38378b15dbf528685db298678ce2be19a66c1178024477df1e4aab778824b", "blockhash": "0000000000000000001f76057863aec43deb6fa401d9628bb513d65a8098bfab", "vout": [{"scriptPubKey": {"type": "nulldata", "hex": "6a4c50000077ed000124b1f0d19ed074892d00f8e87af8e8e963c7cfd5b95b23cc0f42c2fc38c521244acc7a4e581f7130df2fcaf9cf5b5baa17b206137dee4312661d1d100759d4ba30d2c37bb011d97e02cf", "asm": "OP_RETURN 000077ed000124b1f0d19ed074892d00f8e87af8e8e963c7cfd5b95b23cc0f42c2fc38c521244acc7a4e581f7130df2fcaf9cf5b5baa17b206137dee4312661d1d100759d4ba30d2c37bb011d97e02cf"}, "value": 0.0, "n": 0}, {"scriptPubKey": {"reqSigs": 1, "hex": "76a914fbcd8e5a7da459f6467e4a76399001e7740be35c88ac", "addresses": ["1PxQrSFqVHC2zTMhiyQ1iAobjUdfLSm7iz"], "asm": "OP_DUP OP_HASH160 fbcd8e5a7da459f6467e4a76399001e7740be35c OP_EQUALVERIFY OP_CHECKSIG", "type": "pubkeyhash"}, "value": 0.0058735, "n": 1}], "hex": "010000000143a7e9f53ddeee677d497240e41357ee5ef91865e9b032d38987a9669f90d5ca000000006a473044022037fb2e2b809354f4d1be2168defb9b2ad4f7c09d0ca86fd12b58793163f3ad6f02205e89cb37caabdccf8803cdcd89e3d578e89c28a0071b2180936c6b11996821ab0121036160eab8ef485cfb73a28c8c66625e67ee76d87bbd0f49d88d76ecea4ce2e792ffffffff020000000000000000536a4c50000077ed000124b1f0d19ed074892d00f8e87af8e8e963c7cfd5b95b23cc0f42c2fc38c521244acc7a4e581f7130df2fcaf9cf5b5baa17b206137dee4312661d1d100759d4ba30d2c37bb011d97e02cf56f60800000000001976a914fbcd8e5a7da459f6467e4a76399001e7740be35c88ac00000000", "vin": [{"sequence": 4294967295, "scriptSig": {"hex": "473044022037fb2e2b809354f4d1be2168defb9b2ad4f7c09d0ca86fd12b58793163f3ad6f02205e89cb37caabdccf8803cdcd89e3d578e89c28a0071b2180936c6b11996821ab0121036160eab8ef485cfb73a28c8c66625e67ee76d87bbd0f49d88d76ecea4ce2e792", "asm": "3044022037fb2e2b809354f4d1be2168defb9b2ad4f7c09d0ca86fd12b58793163f3ad6f02205e89cb37caabdccf8803cdcd89e3d578e89c28a0071b2180936c6b11996821ab[ALL] 036160eab8ef485cfb73a28c8c66625e67ee76d87bbd0f49d88d76ecea4ce2e792"}, "vout": 0, "txid": "cad5909f66a98789d332b0e96518f95eee5713e44072497d67eede3df5e9a743"}], "txid": "cdb38378b15dbf528685db298678ce2be19a66c1178024477df1e4aab778824b", "blocktime": 1537873891, "version": 1, "confirmations": 11477, "time": 1537873891, "locktime": 0, "vsize": 283, "size": 283}