{"hash": "42d412b26cd5d2ae9eda811ad2a8b497329490cc3f612413a5f56c00c164c3b1", "blockhash": "0000000000000000001f76057863aec43deb6fa401d9628bb513d65a8098bfab", "vout": [{"scriptPubKey": {"reqSigs": 1, "hex": "76a9145577dd7f3ae27171b7f33cd7f6b73489283a39db88ac", "addresses": ["18nv2grwgkGVFew3BMkLzLdnVaaAsSCsLY"], "asm": "OP_DUP OP_HASH160 5577dd7f3ae27171b7f33cd7f6b73489283a39db OP_EQUALVERIFY OP_CHECKSIG", "type": "pubkeyhash"}, "value": 0.00183, "n": 0}, {"scriptPubKey": {"reqSigs": 1, "hex": "00145b8e396a6014e0f16902874b4004b7115b98c620", "addresses": ["bc1qtw8rj6nqzns0z6gzsa95qp9hz9de333qg2rtsn"], "asm": "0 5b8e396a6014e0f16902874b4004b7115b98c620", "type": "witness_v0_keyhash"}, "value": 1.773e-05, "n": 1}], "hex": "01000000000101a108c3d1aca945f3280ad16d7dc9ffe3a353b1dc02eebf9358b86c728892c2730100000000ffffffff02d8ca0200000000001976a9145577dd7f3ae27171b7f33cd7f6b73489283a39db88aced060000000000001600145b8e396a6014e0f16902874b4004b7115b98c620024730440220792f4c42cba7b5be8e539fbc10da821ee48a782639e5516c6df345c451e616b902200e060c801e7b9298f51cb810bd727a1fa72eefea11bff1e0e614d77b7c2845a4012103fc71ba92a6dfee36fb2c90c7fd5716f6ddc94fa3297d58fbd7477241dafc5b9500000000", "vin": [{"txinwitness": ["30440220792f4c42cba7b5be8e539fbc10da821ee48a782639e5516c6df345c451e616b902200e060c801e7b9298f51cb810bd727a1fa72eefea11bff1e0e614d77b7c2845a401", "03fc71ba92a6dfee36fb2c90c7fd5716f6ddc94fa3297d58fbd7477241dafc5b95"], "sequence": 4294967295, "scriptSig": {"hex": "", "asm": ""}, "vout": 1, "txid": "73c29288726cb85893bfee02dcb153a3e3ffc97d6dd10a28f345a9acd1c308a1"}], "txid": "cdb4185b01757b95c6e2851cda51b10f24a3db055390cd12948a7aa9997aeb4e", "blocktime": 1537873891, "version": 1, "confirmations": 11478, "time": 1537873891, "locktime": 0, "vsize": 144, "size": 225}