{"hash": "cdbf7be1b5dc1d2fa49f67b0bd6ab5562fd9a621d5b1624606e65ae4ed849ae5", "blockhash": "0000000000000000001f76057863aec43deb6fa401d9628bb513d65a8098bfab", "vout": [{"scriptPubKey": {"reqSigs": 1, "hex": "76a914ebfa82c9fe95e46bcf861aab0ed5ed45666f429a88ac", "addresses": ["1NWjttAuj32MaaZxDMcczE6vqYjnBZBnXU"], "asm": "OP_DUP OP_HASH160 ebfa82c9fe95e46bcf861aab0ed5ed45666f429a OP_EQUALVERIFY OP_CHECKSIG", "type": "pubkeyhash"}, "value": 0.04683972, "n": 0}, {"scriptPubKey": {"reqSigs": 1, "hex": "76a914963a9ea4315558d79bb806adbd0977bc91ccc7bc88ac", "addresses": ["1EhLak3reaxwutH2aqMjtYjowReRhAYnVL"], "asm": "OP_DUP OP_HASH160 963a9ea4315558d79bb806adbd0977bc91ccc7bc OP_EQUALVERIFY OP_CHECKSIG", "type": "pubkeyhash"}, "value": 0.3908503, "n": 1}], "hex": "0100000001e6bb5b10535d241ab9365c1f37c15b9251ced192f4010593dbd6fcb7b816fb9d010000006b483045022100ecb7d5543f2a863ff7faa80c6c95c46207c79950035ed6ec5f6f00fa12a466f4022017fe167a0250da502b948a751164922fb23a033bbead47566225d9ecae947f340121022ce3abc5978bee5dc480f1d07feab42ed5cc1b6b04204ecd51fc3e088d317ed1ffffffff02c4784700000000001976a914ebfa82c9fe95e46bcf861aab0ed5ed45666f429a88ace6635402000000001976a914963a9ea4315558d79bb806adbd0977bc91ccc7bc88ac00000000", "vin": [{"sequence": 4294967295, "scriptSig": {"hex": "483045022100ecb7d5543f2a863ff7faa80c6c95c46207c79950035ed6ec5f6f00fa12a466f4022017fe167a0250da502b948a751164922fb23a033bbead47566225d9ecae947f340121022ce3abc5978bee5dc480f1d07feab42ed5cc1b6b04204ecd51fc3e088d317ed1", "asm": "3045022100ecb7d5543f2a863ff7faa80c6c95c46207c79950035ed6ec5f6f00fa12a466f4022017fe167a0250da502b948a751164922fb23a033bbead47566225d9ecae947f34[ALL] 022ce3abc5978bee5dc480f1d07feab42ed5cc1b6b04204ecd51fc3e088d317ed1"}, "vout": 1, "txid": "9dfb16b8b7fcd6db930501f492d1ce51925bc1371f5c36b91a245d53105bbbe6"}], "txid": "cdbf7be1b5dc1d2fa49f67b0bd6ab5562fd9a621d5b1624606e65ae4ed849ae5", "blocktime": 1537873891, "version": 1, "confirmations": 11478, "time": 1537873891, "locktime": 0, "vsize": 226, "size": 226}