{"hash": "3c673af04c0cb563e11406c58b8748dc604b611aad285fdbf9c088896b0a8c09", "blockhash": "0000000000000000001f0ddff1eddb255c1121bcd4da4f1bc9a0da00cae72433", "vout": [{"scriptPubKey": {"reqSigs": 1, "hex": "76a91462f9a19bb360a0c3c690c954a73ac93b0defb7bb88ac", "addresses": ["1A2LGV8JrkBhHwfUaMMLy55eF2uQ2wYnWE"], "asm": "OP_DUP OP_HASH160 62f9a19bb360a0c3c690c954a73ac93b0defb7bb OP_EQUALVERIFY OP_CHECKSIG", "type": "pubkeyhash"}, "value": 0.010552, "n": 0}, {"scriptPubKey": {"reqSigs": 1, "hex": "0014e8009b418970f75fb558d2dfceb0dd05aea0f282", "addresses": ["bc1qaqqfksvfwrm4ld2c6t0uavxaqkh2pu5zng08r4"], "asm": "0 e8009b418970f75fb558d2dfceb0dd05aea0f282", "type": "witness_v0_keyhash"}, "value": 0.00010483, "n": 1}], "hex": "01000000000101f18feb1f7aad9f1fa4e09bb23bc7f992ee20855e1ad8279531581827f56221390100000000ffffffff02e0191000000000001976a91462f9a19bb360a0c3c690c954a73ac93b0defb7bb88acf328000000000000160014e8009b418970f75fb558d2dfceb0dd05aea0f2820247304402200df4702a9338c6e7f173e4120af8a4343fa76db46f9134e2236aa17e359394ca022011d2f0d4aa5b407824a00e19a618cbbd2e6bd607771dfc23a9e1d20d668800bb0121020b1c8863183b5e5a2265e05ce31a28911990f352973b70c12ee8b688a5048eab00000000", "vin": [{"txinwitness": ["304402200df4702a9338c6e7f173e4120af8a4343fa76db46f9134e2236aa17e359394ca022011d2f0d4aa5b407824a00e19a618cbbd2e6bd607771dfc23a9e1d20d668800bb01", "020b1c8863183b5e5a2265e05ce31a28911990f352973b70c12ee8b688a5048eab"], "sequence": 4294967295, "scriptSig": {"hex": "", "asm": ""}, "vout": 1, "txid": "392162f5271858319527d81a5e8520ee92f9c73bb29be0a41f9fad7a1feb8ff1"}], "txid": "cdc84c0f1f32db4ff22b9d762989d7ee23cbf586af8ce3f2e98b664b9b05d43d", "blocktime": 1537872018, "version": 1, "confirmations": 11489, "time": 1537872018, "locktime": 0, "vsize": 144, "size": 225}