{"hash": "cdca09b9881d572cf89d265fe4758d3ea959b751eef316bd0e899ef758ab3cda", "blockhash": "0000000000000000000e13cef7c366c0283d82e591d1acd082e914b08063cdf1", "vout": [{"scriptPubKey": {"reqSigs": 1, "hex": "76a91442669e66f08d9fbda0f1fa6419e6186959f26cc188ac", "addresses": ["1746XjkhcNJADctKwSSyvnYDgoLShefKhM"], "asm": "OP_DUP OP_HASH160 42669e66f08d9fbda0f1fa6419e6186959f26cc1 OP_EQUALVERIFY OP_CHECKSIG", "type": "pubkeyhash"}, "value": 0.00079427, "n": 0}], "hex": "010000000197f26f79a5f7250ff89ad588eb1a722f085892ae8ee60c093539897fddd45c2a010000006a473044022017ca4c350daed2a28c84b50f35960e1c8d011ee0ff7f5eb7e6a11ada707ae90d022079d08dfca4f43eb33475f740df40cca34da425c2e2c934e03bb23d335e21c5f1012103696a52e64ac7a763eee842d92e32bc69c15e74dbe8675316c1119ca731991406ffffffff0143360100000000001976a91442669e66f08d9fbda0f1fa6419e6186959f26cc188ac00000000", "vin": [{"sequence": 4294967295, "scriptSig": {"hex": "473044022017ca4c350daed2a28c84b50f35960e1c8d011ee0ff7f5eb7e6a11ada707ae90d022079d08dfca4f43eb33475f740df40cca34da425c2e2c934e03bb23d335e21c5f1012103696a52e64ac7a763eee842d92e32bc69c15e74dbe8675316c1119ca731991406", "asm": "3044022017ca4c350daed2a28c84b50f35960e1c8d011ee0ff7f5eb7e6a11ada707ae90d022079d08dfca4f43eb33475f740df40cca34da425c2e2c934e03bb23d335e21c5f1[ALL] 03696a52e64ac7a763eee842d92e32bc69c15e74dbe8675316c1119ca731991406"}, "vout": 1, "txid": "2a5cd4dd7f893935090ce68eae9258082f721aeb88d59af80f25f7a5796ff297"}], "txid": "cdca09b9881d572cf89d265fe4758d3ea959b751eef316bd0e899ef758ab3cda", "blocktime": 1537871767, "version": 1, "confirmations": 11495, "time": 1537871767, "locktime": 0, "vsize": 191, "size": 191}