{"hash": "40b901b717eb64ff6888088da677167e7400630ee8e0e7b5076da43eb63a206e", "blockhash": "0000000000000000000e13cef7c366c0283d82e591d1acd082e914b08063cdf1", "vout": [{"scriptPubKey": {"reqSigs": 1, "hex": "a9142817533e67e85d94fbc8229e9c9f77a921bfb25087", "addresses": ["35LztstjJQHPmWQcrSRXasecg6omKrF3Zx"], "asm": "OP_HASH160 2817533e67e85d94fbc8229e9c9f77a921bfb250 OP_EQUAL", "type": "scripthash"}, "value": 0.00093309, "n": 0}, {"scriptPubKey": {"reqSigs": 1, "hex": "a9141ea31ee0c58fc1e57f2ef8e550e150b03b4c5f3c87", "addresses": ["34V1c7nhAV6Grt6hexfHHt451X2fbhSDyw"], "asm": "OP_HASH160 1ea31ee0c58fc1e57f2ef8e550e150b03b4c5f3c OP_EQUAL", "type": "scripthash"}, "value": 0.00102669, "n": 1}], "hex": "01000000000101f97f5f96b5e15234fcb81e29d0829e01361ed0b49b916ce2e2f561f86bec3f0e0100000023220020b5afc8940ff0cfaa9ea8bc432325ad3bebb7d9d80d862f4a9d71599834a1ebedffffffff027d6c01000000000017a9142817533e67e85d94fbc8229e9c9f77a921bfb250870d9101000000000017a9141ea31ee0c58fc1e57f2ef8e550e150b03b4c5f3c87040047304402200c6256545438690ebeff0ed2bc40a1daf05b5639d21899d58255945746ab0177022067f778eb8c240d8ed2403133b42c57a68283db0369c796ade814a377ab3c98a701483045022100bd0b7fa5267b0a9b943ac8f84b971ae479fdf12e1cb015b73031323149897d4c0220646048f5620370166d734fa4f1279c5f8fcb97d8f7c2e98bbc7358367e06c48201475221033f1a1e9827ea969509a10cae1794b1ae9f7e2087f09823b9ee1bd9d63f8e7fe82103871fc2ca08e6950b38867e8e6a0e94ee625223d3aa0df5c65f414c6d784467e252ae00000000", "vin": [{"txinwitness": ["", "304402200c6256545438690ebeff0ed2bc40a1daf05b5639d21899d58255945746ab0177022067f778eb8c240d8ed2403133b42c57a68283db0369c796ade814a377ab3c98a701", "3045022100bd0b7fa5267b0a9b943ac8f84b971ae479fdf12e1cb015b73031323149897d4c0220646048f5620370166d734fa4f1279c5f8fcb97d8f7c2e98bbc7358367e06c48201", "5221033f1a1e9827ea969509a10cae1794b1ae9f7e2087f09823b9ee1bd9d63f8e7fe82103871fc2ca08e6950b38867e8e6a0e94ee625223d3aa0df5c65f414c6d784467e252ae"], "sequence": 4294967295, "scriptSig": {"hex": "220020b5afc8940ff0cfaa9ea8bc432325ad3bebb7d9d80d862f4a9d71599834a1ebed", "asm": "0020b5afc8940ff0cfaa9ea8bc432325ad3bebb7d9d80d862f4a9d71599834a1ebed"}, "vout": 1, "txid": "0e3fec6bf861f5e2e26c919bb4d01e36019e82d0291eb8fc3452e1b5965f7ff9"}], "txid": "cdca4585fd999ac794adf2be0a0dc40210d0547aaa8fe711cb57874843a8529f", "blocktime": 1537871767, "version": 1, "confirmations": 11495, "time": 1537871767, "locktime": 0, "vsize": 206, "size": 371}