{"hash": "cdcbf60f7426316d6b7090fce49cae19df50d1298236da66337b76838e326139", "blockhash": "0000000000000000000e13cef7c366c0283d82e591d1acd082e914b08063cdf1", "vout": [{"scriptPubKey": {"reqSigs": 1, "hex": "76a914f32e6dfef253a94ce456e7c094b9dc4e2974726788ac", "addresses": ["1PAppc5wmwLcY4VRpecoK76jgBtWKqXiAu"], "asm": "OP_DUP OP_HASH160 f32e6dfef253a94ce456e7c094b9dc4e29747267 OP_EQUALVERIFY OP_CHECKSIG", "type": "pubkeyhash"}, "value": 0.0080373, "n": 0}, {"scriptPubKey": {"reqSigs": 1, "hex": "76a914fe3188a447b549a4d219dcd66cf29f01ce80320988ac", "addresses": ["1QB3yPfFHZ2YmfbBmPgz6wCsKdMEDzuCdm"], "asm": "OP_DUP OP_HASH160 fe3188a447b549a4d219dcd66cf29f01ce803209 OP_EQUALVERIFY OP_CHECKSIG", "type": "pubkeyhash"}, "value": 0.1627552, "n": 1}], "hex": "02000000014b35e13552be71bb2d4ed665febea3977723e020a7a13bdd64db69e93d8fb83f010000006b483045022100e80abf016903df0c514346387289abd59b651d46d3d50184d110b00a3da0e3c502207544a13bd4265abd19932b41c61d7ab1fe30c9d323c534ae134025fb1e8b7a6701210388616aa76e5d2ffb73546cc03af39413c45463b113ea68f5f742c27e79cca252ffffffff0292430c00000000001976a914f32e6dfef253a94ce456e7c094b9dc4e2974726788ac4058f800000000001976a914fe3188a447b549a4d219dcd66cf29f01ce80320988ac00000000", "vin": [{"sequence": 4294967295, "scriptSig": {"hex": "483045022100e80abf016903df0c514346387289abd59b651d46d3d50184d110b00a3da0e3c502207544a13bd4265abd19932b41c61d7ab1fe30c9d323c534ae134025fb1e8b7a6701210388616aa76e5d2ffb73546cc03af39413c45463b113ea68f5f742c27e79cca252", "asm": "3045022100e80abf016903df0c514346387289abd59b651d46d3d50184d110b00a3da0e3c502207544a13bd4265abd19932b41c61d7ab1fe30c9d323c534ae134025fb1e8b7a67[ALL] 0388616aa76e5d2ffb73546cc03af39413c45463b113ea68f5f742c27e79cca252"}, "vout": 1, "txid": "3fb88f3de969db64dd3ba1a720e0237797a3befe65d64e2dbb71be5235e1354b"}], "txid": "cdcbf60f7426316d6b7090fce49cae19df50d1298236da66337b76838e326139", "blocktime": 1537871767, "version": 2, "confirmations": 11491, "time": 1537871767, "locktime": 0, "vsize": 226, "size": 226}