{"hash": "02db4e12a004c5084a2631a3fcb506b0891fd13a29bb151898813df47d530b39", "blockhash": "0000000000000000001e0dab787dd257d1dbfcb92a98c2207d5e1078be1f4165", "vout": [{"scriptPubKey": {"reqSigs": 1, "hex": "76a9143b77a39a777786c0c0777821f6b9f01a3c22404a88ac", "addresses": ["16RSBzEHNJeYZduVCFJPgSQufagQZZVG5W"], "asm": "OP_DUP OP_HASH160 3b77a39a777786c0c0777821f6b9f01a3c22404a OP_EQUALVERIFY OP_CHECKSIG", "type": "pubkeyhash"}, "value": 0.00944644, "n": 0}, {"scriptPubKey": {"reqSigs": 1, "hex": "76a9145c328d94c2df6488831fb48516ece3b3cff3ee4388ac", "addresses": ["19QVj8tQhs6WoE1pvPp8pKrSm24pLwDQQf"], "asm": "OP_DUP OP_HASH160 5c328d94c2df6488831fb48516ece3b3cff3ee43 OP_EQUALVERIFY OP_CHECKSIG", "type": "pubkeyhash"}, "value": 0.01508577, "n": 1}], "hex": "02000000000102555cf212e2b437db856c648d150d2519e10055048cecedbce9d1a50fa4687bfb000000001716001411b15678749986ec7ba99f4a6994b43a1a570479feffffffd2db80a5f481e9c440be473c77a63e8d37a85094e65140d924e8fd0e531b3d97010000006b483045022100dcd08b6be507fb33572100f91d3fcd7266caa161af35bc8ecbc383d3b417ff2202206ffdc1583c00eb798c8f58ad0eada8f213944809546f25922758d10fd77ae3f501210219d5736baf8d001315c8ef264a0e45bd7897538043d649bfe8d1bfb782bfdf71feffffff02046a0e00000000001976a9143b77a39a777786c0c0777821f6b9f01a3c22404a88ace1041700000000001976a9145c328d94c2df6488831fb48516ece3b3cff3ee4388ac02483045022100f7b518b9cb4669afb41afacc0f5022ada6322799b975730eba997635a8350b8102204a16bbda51257dea8b18ea92c46d825351ae59645f1b97151060ddfd272d23e40121039e2dd0831022bfbd972c0882dc232df87c85ef715078cc67b95cc9c248bf2ec70012490800", "vin": [{"txinwitness": ["3045022100f7b518b9cb4669afb41afacc0f5022ada6322799b975730eba997635a8350b8102204a16bbda51257dea8b18ea92c46d825351ae59645f1b97151060ddfd272d23e401", "039e2dd0831022bfbd972c0882dc232df87c85ef715078cc67b95cc9c248bf2ec7"], "sequence": 4294967294, "scriptSig": {"hex": "16001411b15678749986ec7ba99f4a6994b43a1a570479", "asm": "001411b15678749986ec7ba99f4a6994b43a1a570479"}, "vout": 0, "txid": "fb7b68a40fa5d1e9bcedec8c045500e119250d158d646c85db37b4e212f25c55"}, {"sequence": 4294967294, "scriptSig": {"hex": "483045022100dcd08b6be507fb33572100f91d3fcd7266caa161af35bc8ecbc383d3b417ff2202206ffdc1583c00eb798c8f58ad0eada8f213944809546f25922758d10fd77ae3f501210219d5736baf8d001315c8ef264a0e45bd7897538043d649bfe8d1bfb782bfdf71", "asm": "3045022100dcd08b6be507fb33572100f91d3fcd7266caa161af35bc8ecbc383d3b417ff2202206ffdc1583c00eb798c8f58ad0eada8f213944809546f25922758d10fd77ae3f5[ALL] 0219d5736baf8d001315c8ef264a0e45bd7897538043d649bfe8d1bfb782bfdf71"}, "vout": 1, "txid": "973d1b530efde824d94051e69450a8378d3ea6773c47be40c4e981f4a580dbd2"}], "txid": "cdcd470f35cfc80ffccfe97039d076d5b012b6e0a889c46dd76334fa8ff1d8eb", "blocktime": 1537872475, "version": 2, "confirmations": 11486, "time": 1537872475, "locktime": 542994, "vsize": 318, "size": 401}