{"hash": "cdd2e272538bea7b2a45d85c74c9bb0a1ba059610e42bb1f0060731509da9ee2", "blockhash": "0000000000000000000e13cef7c366c0283d82e591d1acd082e914b08063cdf1", "vout": [{"scriptPubKey": {"reqSigs": 1, "hex": "76a914d243e6abb9a60fbff430b421d2df4b7d59ec186088ac", "addresses": ["1LAnF8h3qMGx3TSwNUHVneBZUEpwE4gu3D"], "asm": "OP_DUP OP_HASH160 d243e6abb9a60fbff430b421d2df4b7d59ec1860 OP_EQUALVERIFY OP_CHECKSIG", "type": "pubkeyhash"}, "value": 0.00076972, "n": 0}, {"scriptPubKey": {"reqSigs": 1, "hex": "76a9143851f34d13937b673a7d24a1950bb5b21ce94af388ac", "addresses": ["168o1kqNquEJeR9vosUB5fw4eAwcVAgh8P"], "asm": "OP_DUP OP_HASH160 3851f34d13937b673a7d24a1950bb5b21ce94af3 OP_EQUALVERIFY OP_CHECKSIG", "type": "pubkeyhash"}, "value": 5.46e-06, "n": 1}, {"scriptPubKey": {"type": "nulldata", "hex": "6a146f6d6e69000000000000001f000000225eca3c00", "asm": "OP_RETURN 6f6d6e69000000000000001f000000225eca3c00"}, "value": 0.0, "n": 2}], "hex": "0100000002777b6b8aa86cee4d0974eb960d2729a8c18f6bea9aee4ce0aabea7d0642c7c62000000006a47304402206025e9ab6303a5ebec358aaa708b6b4b31e239cc66c4e603c8186bcf0717fc8302203b4f6f389339ffdf227ced3bef6ce344ce2a2361ba47dce866e2448023caf888012103626cedca4bde36bbc9cfd9d3bf77cde25b1cdbc632b272430948b2cce4e9c203ffffffff8ab176880a1c0888827ce01cf3e4c84ad1d0e16e133427d44c2c6fda06d861f3000000006a4730440220778332dcf00b4f59bf8eee30670415e899a18f37e803904834add006bf5b74d402207a22f17abdedf05f0f9d97d931ad6f85809217e27acdc6fe179476e56a6d610101210271977291b74f1f5f5c42157e8aae804664eaaeccfd097918450d37f28fb94d77ffffffff03ac2c0100000000001976a914d243e6abb9a60fbff430b421d2df4b7d59ec186088ac22020000000000001976a9143851f34d13937b673a7d24a1950bb5b21ce94af388ac0000000000000000166a146f6d6e69000000000000001f000000225eca3c0000000000", "vin": [{"sequence": 4294967295, "scriptSig": {"hex": "47304402206025e9ab6303a5ebec358aaa708b6b4b31e239cc66c4e603c8186bcf0717fc8302203b4f6f389339ffdf227ced3bef6ce344ce2a2361ba47dce866e2448023caf888012103626cedca4bde36bbc9cfd9d3bf77cde25b1cdbc632b272430948b2cce4e9c203", "asm": "304402206025e9ab6303a5ebec358aaa708b6b4b31e239cc66c4e603c8186bcf0717fc8302203b4f6f389339ffdf227ced3bef6ce344ce2a2361ba47dce866e2448023caf888[ALL] 03626cedca4bde36bbc9cfd9d3bf77cde25b1cdbc632b272430948b2cce4e9c203"}, "vout": 0, "txid": "627c2c64d0a7beaae04cee9aea6b8fc1a829270d96eb74094dee6ca88a6b7b77"}, {"sequence": 4294967295, "scriptSig": {"hex": "4730440220778332dcf00b4f59bf8eee30670415e899a18f37e803904834add006bf5b74d402207a22f17abdedf05f0f9d97d931ad6f85809217e27acdc6fe179476e56a6d610101210271977291b74f1f5f5c42157e8aae804664eaaeccfd097918450d37f28fb94d77", "asm": "30440220778332dcf00b4f59bf8eee30670415e899a18f37e803904834add006bf5b74d402207a22f17abdedf05f0f9d97d931ad6f85809217e27acdc6fe179476e56a6d6101[ALL] 0271977291b74f1f5f5c42157e8aae804664eaaeccfd097918450d37f28fb94d77"}, "vout": 0, "txid": "f361d806da6f2c4cd42734136ee1d0d14ac8e4f31ce07c8288081c0a8876b18a"}], "txid": "cdd2e272538bea7b2a45d85c74c9bb0a1ba059610e42bb1f0060731509da9ee2", "blocktime": 1537871767, "version": 1, "confirmations": 11491, "time": 1537871767, "locktime": 0, "vsize": 403, "size": 403}