{"hash": "cdd447bf3a8f5157fbdbf1d8aee2ae04015e6a65ae82357e8421f7f975d2d6a3", "blockhash": "0000000000000000001e0dab787dd257d1dbfcb92a98c2207d5e1078be1f4165", "vout": [{"scriptPubKey": {"reqSigs": 1, "hex": "76a9148e11175367dd8559f139d4fac89a6bbec631c12288ac", "addresses": ["1DxBRkb52QDxPqcjK3HBxua5RXyUZjedgp"], "asm": "OP_DUP OP_HASH160 8e11175367dd8559f139d4fac89a6bbec631c122 OP_EQUALVERIFY OP_CHECKSIG", "type": "pubkeyhash"}, "value": 0.05, "n": 0}, {"scriptPubKey": {"reqSigs": 1, "hex": "0014014f4ccf1d627e60f66ff7ad36dc6cbca8adfebe", "addresses": ["bc1qq985encavflxpan077kndhrvhj52ml47r0v3zc"], "asm": "0 014f4ccf1d627e60f66ff7ad36dc6cbca8adfebe", "type": "witness_v0_keyhash"}, "value": 0.00379134, "n": 1}], "hex": "0100000001054b0ed5fffa1492ed93255c6bf3785f71e9da79c6acb3acb13d65ff261b3d09240000006b483045022100aaf4b2e0edadf07b0e5a58f6438c8706d9d58faf3996d69998960c55ee4d5bc902200a3d0a2668de2d15e3cfb9deb09a51f1a1170906e3a7607a701f413770cc7ff701210220a37876b8e4f6fc1ccb2060da6a33defa05cc3303a29147f2da5915191e5ecdffffffff02404b4c00000000001976a9148e11175367dd8559f139d4fac89a6bbec631c12288acfec8050000000000160014014f4ccf1d627e60f66ff7ad36dc6cbca8adfebe00000000", "vin": [{"sequence": 4294967295, "scriptSig": {"hex": "483045022100aaf4b2e0edadf07b0e5a58f6438c8706d9d58faf3996d69998960c55ee4d5bc902200a3d0a2668de2d15e3cfb9deb09a51f1a1170906e3a7607a701f413770cc7ff701210220a37876b8e4f6fc1ccb2060da6a33defa05cc3303a29147f2da5915191e5ecd", "asm": "3045022100aaf4b2e0edadf07b0e5a58f6438c8706d9d58faf3996d69998960c55ee4d5bc902200a3d0a2668de2d15e3cfb9deb09a51f1a1170906e3a7607a701f413770cc7ff7[ALL] 0220a37876b8e4f6fc1ccb2060da6a33defa05cc3303a29147f2da5915191e5ecd"}, "vout": 36, "txid": "093d1b26ff653db1acb3acc679dae9715f78f36b5c2593ed9214faffd50e4b05"}], "txid": "cdd447bf3a8f5157fbdbf1d8aee2ae04015e6a65ae82357e8421f7f975d2d6a3", "blocktime": 1537872475, "version": 1, "confirmations": 11487, "time": 1537872475, "locktime": 0, "vsize": 223, "size": 223}