{"hash": "cdd955b89999dbfdb8c4ae9915c26313108d254e8fab1a75d66a181954ddc14a", "blockhash": "0000000000000000001cda96e906b7601b7a6fb1a3b62bca570a9e5d8f4b3de1", "vout": [{"scriptPubKey": {"reqSigs": 1, "hex": "76a91481d32a0219ee3ff2aff8a755795e34d2fe0cf83488ac", "addresses": ["1CqT8gi6g47BTkpcHhTpaJwzddHBF3ZCQm"], "asm": "OP_DUP OP_HASH160 81d32a0219ee3ff2aff8a755795e34d2fe0cf834 OP_EQUALVERIFY OP_CHECKSIG", "type": "pubkeyhash"}, "value": 0.00700382, "n": 0}, {"scriptPubKey": {"reqSigs": 1, "hex": "76a91482708234d636cfa0a0b230fb5f0a09985323839b88ac", "addresses": ["1CthdB5m7PGX5GqKyuMLBwAEiQrvxo9YeE"], "asm": "OP_DUP OP_HASH160 82708234d636cfa0a0b230fb5f0a09985323839b OP_EQUALVERIFY OP_CHECKSIG", "type": "pubkeyhash"}, "value": 0.03277253, "n": 1}], "hex": "0100000001690c3189447f348b497a4c6aa0dbb93464f9d84fd97322cfd0113aa9a2a79d25000000006b483045022100dc33561ba17165ee7857b1009b4351d9240c744007dd8242113a7ceaba54d06b02200bead7a42a84515ab7fa05ad03ba2d49e134970f658869f27c52f4442baf040d012103d7078bd742718463336ebff07ef48df02de767a53b537b9310632ae0e695e793ffffffff02deaf0a00000000001976a91481d32a0219ee3ff2aff8a755795e34d2fe0cf83488acc5013200000000001976a91482708234d636cfa0a0b230fb5f0a09985323839b88ac00000000", "vin": [{"sequence": 4294967295, "scriptSig": {"hex": "483045022100dc33561ba17165ee7857b1009b4351d9240c744007dd8242113a7ceaba54d06b02200bead7a42a84515ab7fa05ad03ba2d49e134970f658869f27c52f4442baf040d012103d7078bd742718463336ebff07ef48df02de767a53b537b9310632ae0e695e793", "asm": "3045022100dc33561ba17165ee7857b1009b4351d9240c744007dd8242113a7ceaba54d06b02200bead7a42a84515ab7fa05ad03ba2d49e134970f658869f27c52f4442baf040d[ALL] 03d7078bd742718463336ebff07ef48df02de767a53b537b9310632ae0e695e793"}, "vout": 0, "txid": "259da7a2a93a11d0cf2273d94fd8f96434b9dba06a4c7a498b347f4489310c69"}], "txid": "cdd955b89999dbfdb8c4ae9915c26313108d254e8fab1a75d66a181954ddc14a", "blocktime": 1537873282, "version": 1, "confirmations": 11484, "time": 1537873282, "locktime": 0, "vsize": 226, "size": 226}