{"hash": "ad7b34b40f8b1fbb5bcb12409cc5a8a3110d3ccee5723acf3491643c59ccc55c", "blockhash": "00000000000000000004ffacab907a6b429b9a5745fa0b75af4234bf69dd7176", "vout": [{"scriptPubKey": {"reqSigs": 1, "hex": "a91444bbe6bb7e054023e787769eb002065845ba623687", "addresses": ["37xSyCWkZ5YxsYbsHE6biDXJeFiD1jDyoF"], "asm": "OP_HASH160 44bbe6bb7e054023e787769eb002065845ba6236 OP_EQUAL", "type": "scripthash"}, "value": 0.05382459, "n": 0}, {"scriptPubKey": {"reqSigs": 1, "hex": "a914f47aba05d61e79b68959d375f5ca962e68090da687", "addresses": ["3PyhpYiSXiDRS6F7Zznfx5GvgyPgN5AvrZ"], "asm": "OP_HASH160 f47aba05d61e79b68959d375f5ca962e68090da6 OP_EQUAL", "type": "scripthash"}, "value": 0.00105237, "n": 1}], "hex": "02000000000101b2819e3fa090bb0a818ff534de3b6717840639d5ee3fec23863257a167053e17010000001716001477750c3edfe02dc3d385a86831ef3d6185badf14feffffff023b2152000000000017a91444bbe6bb7e054023e787769eb002065845ba623687159b01000000000017a914f47aba05d61e79b68959d375f5ca962e68090da68702473044022007c815ae1f02b90199525db5899f3d391452489974be4fbf86334bc517320e84022034beb4c415578465d8890736efc4f715cc7b6af7d444c0d6df576125dd8a2d8e0121027d09cac745015202c2ccdab522d4876e19d4f358a9a30dc8f4ccc10da1cecf1ae7480800", "vin": [{"txinwitness": ["3044022007c815ae1f02b90199525db5899f3d391452489974be4fbf86334bc517320e84022034beb4c415578465d8890736efc4f715cc7b6af7d444c0d6df576125dd8a2d8e01", "027d09cac745015202c2ccdab522d4876e19d4f358a9a30dc8f4ccc10da1cecf1a"], "sequence": 4294967294, "scriptSig": {"hex": "16001477750c3edfe02dc3d385a86831ef3d6185badf14", "asm": "001477750c3edfe02dc3d385a86831ef3d6185badf14"}, "vout": 1, "txid": "173e0567a157328623ec3feed539068417673bde34f58f810abb90a03f9e81b2"}], "txid": "cdde29710acff1dbc937efae65793b9927f6c844a9032dc2660df820cdb7c442", "blocktime": 1537875543, "version": 2, "confirmations": 11464, "time": 1537875543, "locktime": 542951, "vsize": 166, "size": 247}