{"hash": "cde253f4c8f86d48e48ff1adc9756325d50b68e263e309f68691fca8ca2fe8a2", "blockhash": "00000000000000000018f53835495a110e01622372bf6ae95dc86f2b0ab887b0", "vout": [{"scriptPubKey": {"reqSigs": 1, "hex": "76a9145260f7622b56ddf2fd2f9d712ada3700c09e147d88ac", "addresses": ["18Waa53ERXv2fjm1T4wRxrafR8W6m4JmtY"], "asm": "OP_DUP OP_HASH160 5260f7622b56ddf2fd2f9d712ada3700c09e147d OP_EQUALVERIFY OP_CHECKSIG", "type": "pubkeyhash"}, "value": 0.02098373, "n": 0}, {"scriptPubKey": {"reqSigs": 1, "hex": "76a914e013eca1ef63cd6ff45168f81db305fdcdd755e588ac", "addresses": ["1MRpELbVTZ7MzTRczYaRxBy9RkhosLJrk4"], "asm": "OP_DUP OP_HASH160 e013eca1ef63cd6ff45168f81db305fdcdd755e5 OP_EQUALVERIFY OP_CHECKSIG", "type": "pubkeyhash"}, "value": 0.039501, "n": 1}], "hex": "0100000001602dc54f07185f22fb3b08ad590c6a00e114aad2274a3cf8946feaeeb81309fd010000006b483045022100960c47e36548a122b22e92eca997d47c15b849a06c703960fca1026f7858754002201d941883b2ce598eb488bc0504be0bc8a8d7d905408fd7d19c12e40f00c717330121027f6c8c793cc53bee89630f7c3dd4442312e273b50066c935fd36d6b957aeeb0fffffffff02c5042000000000001976a9145260f7622b56ddf2fd2f9d712ada3700c09e147d88ac14463c00000000001976a914e013eca1ef63cd6ff45168f81db305fdcdd755e588ac00000000", "vin": [{"sequence": 4294967295, "scriptSig": {"hex": "483045022100960c47e36548a122b22e92eca997d47c15b849a06c703960fca1026f7858754002201d941883b2ce598eb488bc0504be0bc8a8d7d905408fd7d19c12e40f00c717330121027f6c8c793cc53bee89630f7c3dd4442312e273b50066c935fd36d6b957aeeb0f", "asm": "3045022100960c47e36548a122b22e92eca997d47c15b849a06c703960fca1026f7858754002201d941883b2ce598eb488bc0504be0bc8a8d7d905408fd7d19c12e40f00c71733[ALL] 027f6c8c793cc53bee89630f7c3dd4442312e273b50066c935fd36d6b957aeeb0f"}, "vout": 1, "txid": "fd0913b8eeea6f94f83c4a27d2aa14e1006a0c59ad083bfb225f18074fc52d60"}], "txid": "cde253f4c8f86d48e48ff1adc9756325d50b68e263e309f68691fca8ca2fe8a2", "blocktime": 1537870928, "version": 1, "confirmations": 11514, "time": 1537870928, "locktime": 0, "vsize": 226, "size": 226}