{"hash": "cde5e8eb0884948e8512d12dbfdd269c57d9c253273fff0ea9f6b0fa65d99f80", "blockhash": "0000000000000000001cda96e906b7601b7a6fb1a3b62bca570a9e5d8f4b3de1", "vout": [{"scriptPubKey": {"reqSigs": 1, "hex": "76a9141f679455cbe9e1b80ed5848166842e65705f84f888ac", "addresses": ["13s42mmzp8A9jJXZr4v9h6ZAM11WUbPZjw"], "asm": "OP_DUP OP_HASH160 1f679455cbe9e1b80ed5848166842e65705f84f8 OP_EQUALVERIFY OP_CHECKSIG", "type": "pubkeyhash"}, "value": 0.01005543, "n": 0}, {"scriptPubKey": {"reqSigs": 1, "hex": "a914022c16b189684b01c0484a05cde378b860efada987", "addresses": ["31tW6G3pppJqYhPB7S1XKaLzXHsDVAvYFp"], "asm": "OP_HASH160 022c16b189684b01c0484a05cde378b860efada9 OP_EQUAL", "type": "scripthash"}, "value": 0.03903353, "n": 1}], "hex": "010000000357e24615f62075c20b4a2954a4b0447384d801b7a88682fb910533f02ae42876170000006b483045022100e7c5c2bda4a8428e7935dae3a91c321785113ea9b030b98f03e52de74ef54eb9022054b4810e988e9263d88ae5eced17e2ea2f835c605fb2ea33ae6b4468c189407601210365182638ddef0097c1a9312523071d625d92c9802534456c1746e1f21287c5dfffffffff7b23487dd85cdd8fb772a02fa6986d4da571e8db9add574594c6442f2966528e000000006a47304402200710f032d74c0cbe5ac7b5a98c2489680dd0dc3bf5689cef938e951a51bea1650220372988b9488e044b2d3c5575e2e301103c9a38e768f35573f6e9c68c1c3a41f201210365182638ddef0097c1a9312523071d625d92c9802534456c1746e1f21287c5dfffffffff73b39526ed47e53a23427da5a9c0038b070cd022dc6662f36c8eacb6f9f3aacb170000006a47304402202cb4819f8fce97332bb5c2ba3b2b82a81ec844d136b41359b4e818f795dbca0f02202f19fd03895272bf0fed75aabe3689a1ea7578c264e46d3ef7f8ac7ada3d23bf01210365182638ddef0097c1a9312523071d625d92c9802534456c1746e1f21287c5dfffffffff02e7570f00000000001976a9141f679455cbe9e1b80ed5848166842e65705f84f888ac798f3b000000000017a914022c16b189684b01c0484a05cde378b860efada98700000000", "vin": [{"sequence": 4294967295, "scriptSig": {"hex": "483045022100e7c5c2bda4a8428e7935dae3a91c321785113ea9b030b98f03e52de74ef54eb9022054b4810e988e9263d88ae5eced17e2ea2f835c605fb2ea33ae6b4468c189407601210365182638ddef0097c1a9312523071d625d92c9802534456c1746e1f21287c5df", "asm": "3045022100e7c5c2bda4a8428e7935dae3a91c321785113ea9b030b98f03e52de74ef54eb9022054b4810e988e9263d88ae5eced17e2ea2f835c605fb2ea33ae6b4468c1894076[ALL] 0365182638ddef0097c1a9312523071d625d92c9802534456c1746e1f21287c5df"}, "vout": 23, "txid": "7628e42af0330591fb8286a8b701d8847344b0a454294a0bc27520f61546e257"}, {"sequence": 4294967295, "scriptSig": {"hex": "47304402200710f032d74c0cbe5ac7b5a98c2489680dd0dc3bf5689cef938e951a51bea1650220372988b9488e044b2d3c5575e2e301103c9a38e768f35573f6e9c68c1c3a41f201210365182638ddef0097c1a9312523071d625d92c9802534456c1746e1f21287c5df", "asm": "304402200710f032d74c0cbe5ac7b5a98c2489680dd0dc3bf5689cef938e951a51bea1650220372988b9488e044b2d3c5575e2e301103c9a38e768f35573f6e9c68c1c3a41f2[ALL] 0365182638ddef0097c1a9312523071d625d92c9802534456c1746e1f21287c5df"}, "vout": 0, "txid": "8e5266292f44c6944557dd9adbe871a54d6d98a62fa072b78fdd5cd87d48237b"}, {"sequence": 4294967295, "scriptSig": {"hex": "47304402202cb4819f8fce97332bb5c2ba3b2b82a81ec844d136b41359b4e818f795dbca0f02202f19fd03895272bf0fed75aabe3689a1ea7578c264e46d3ef7f8ac7ada3d23bf01210365182638ddef0097c1a9312523071d625d92c9802534456c1746e1f21287c5df", "asm": "304402202cb4819f8fce97332bb5c2ba3b2b82a81ec844d136b41359b4e818f795dbca0f02202f19fd03895272bf0fed75aabe3689a1ea7578c264e46d3ef7f8ac7ada3d23bf[ALL] 0365182638ddef0097c1a9312523071d625d92c9802534456c1746e1f21287c5df"}, "vout": 23, "txid": "cbaaf3f9b6ac8e6cf36266dc22d00c078b03c0a9a57d42233ae547ed2695b373"}], "txid": "cde5e8eb0884948e8512d12dbfdd269c57d9c253273fff0ea9f6b0fa65d99f80", "blocktime": 1537873282, "version": 1, "confirmations": 11484, "time": 1537873282, "locktime": 0, "vsize": 518, "size": 518}