{"hash": "cde95438db8c892d8c94e3c7ff2be1283f5375cabb456c33629d25812179c959", "blockhash": "0000000000000000001f76057863aec43deb6fa401d9628bb513d65a8098bfab", "vout": [{"scriptPubKey": {"reqSigs": 1, "hex": "76a914238f64db91aa730e51330dc01f902fb25a2a84c488ac", "addresses": ["14F2RuKo8WmH8RS667xmDT5LpysQvcgodq"], "asm": "OP_DUP OP_HASH160 238f64db91aa730e51330dc01f902fb25a2a84c4 OP_EQUALVERIFY OP_CHECKSIG", "type": "pubkeyhash"}, "value": 5.46e-06, "n": 0}, {"scriptPubKey": {"reqSigs": 1, "hex": "a9143f4eecba122ad73039d481c8d37f99cb4f887cd887", "addresses": ["37Tm3Qz8Zw2VJrheUUhArDAoq58S6YrS3g"], "asm": "OP_HASH160 3f4eecba122ad73039d481c8d37f99cb4f887cd8 OP_EQUAL", "type": "scripthash"}, "value": 0.99994908, "n": 1}, {"scriptPubKey": {"type": "nulldata", "hex": "6a146f6d6e69000000000000001f000001d1a94a2000", "asm": "OP_RETURN 6f6d6e69000000000000001f000001d1a94a2000"}, "value": 0.0, "n": 2}], "hex": "01000000015e22458ce42c5df1fc3a6c7a0b5bf72f79c398bca7b09947626b7aa609b2c44601000000fdfd0000483045022100a96fc677e4a40a43503d50cc978a2aabb3493b61540fadb3f4b4d860c3c47b5f02204caacd23fefcbbdad17f2a980809b0b0ea8168d5d20cf8bf9ba01dbf5ce6152c014730440220609ccf71555295d8968221e021cc84a53ab8972765d246b51343559a161aa3d5022062908879f6315d7376e11b8509958c48ee0712b7e58a6db5d0604063579c9acd014c6952210246ccf4de0c54cc7f3354cdd993c2c50cf965fd82238b89659fbd73a1b4bf05a121024fc59f72272a897fe43803374969f396058152fe4765a8d15216f94624257b1b21022593bc69ecbf3bbcc3c58082267cb49dadaf4ca8dbf1b2297338a9d628c4297653aeffffffff0322020000000000001976a914238f64db91aa730e51330dc01f902fb25a2a84c488ac1ccdf5050000000017a9143f4eecba122ad73039d481c8d37f99cb4f887cd8870000000000000000166a146f6d6e69000000000000001f000001d1a94a200000000000", "vin": [{"sequence": 4294967295, "scriptSig": {"hex": "00483045022100a96fc677e4a40a43503d50cc978a2aabb3493b61540fadb3f4b4d860c3c47b5f02204caacd23fefcbbdad17f2a980809b0b0ea8168d5d20cf8bf9ba01dbf5ce6152c014730440220609ccf71555295d8968221e021cc84a53ab8972765d246b51343559a161aa3d5022062908879f6315d7376e11b8509958c48ee0712b7e58a6db5d0604063579c9acd014c6952210246ccf4de0c54cc7f3354cdd993c2c50cf965fd82238b89659fbd73a1b4bf05a121024fc59f72272a897fe43803374969f396058152fe4765a8d15216f94624257b1b21022593bc69ecbf3bbcc3c58082267cb49dadaf4ca8dbf1b2297338a9d628c4297653ae", "asm": "0 3045022100a96fc677e4a40a43503d50cc978a2aabb3493b61540fadb3f4b4d860c3c47b5f02204caacd23fefcbbdad17f2a980809b0b0ea8168d5d20cf8bf9ba01dbf5ce6152c[ALL] 30440220609ccf71555295d8968221e021cc84a53ab8972765d246b51343559a161aa3d5022062908879f6315d7376e11b8509958c48ee0712b7e58a6db5d0604063579c9acd[ALL] 52210246ccf4de0c54cc7f3354cdd993c2c50cf965fd82238b89659fbd73a1b4bf05a121024fc59f72272a897fe43803374969f396058152fe4765a8d15216f94624257b1b21022593bc69ecbf3bbcc3c58082267cb49dadaf4ca8dbf1b2297338a9d628c4297653ae"}, "vout": 1, "txid": "46c4b209a67a6b624799b0a7bc98c3792ff75b0b7a6c3afcf15d2ce48c45225e"}], "txid": "cde95438db8c892d8c94e3c7ff2be1283f5375cabb456c33629d25812179c959", "blocktime": 1537873891, "version": 1, "confirmations": 11477, "time": 1537873891, "locktime": 0, "vsize": 403, "size": 403}