{"hash": "e474a80aff68fbb87c861395202ff2775f46abecc14a5df4207989f81eaa75e6", "blockhash": "0000000000000000001e0dab787dd257d1dbfcb92a98c2207d5e1078be1f4165", "vout": [{"scriptPubKey": {"reqSigs": 1, "hex": "76a91488f40e8b51948b9af88ed7f0b63993d54a971a7988ac", "addresses": ["1DV9GTJwmx3oEzLsk6cfNLMpK4YSKHqSJ4"], "asm": "OP_DUP OP_HASH160 88f40e8b51948b9af88ed7f0b63993d54a971a79 OP_EQUALVERIFY OP_CHECKSIG", "type": "pubkeyhash"}, "value": 10.0049, "n": 0}, {"scriptPubKey": {"reqSigs": 1, "hex": "a914467f159f2ba739be09c8030ce49c7b083f74efa887", "addresses": ["387mTxLkak8XQgizs8CfB5sjXxDRzQBAqr"], "asm": "OP_HASH160 467f159f2ba739be09c8030ce49c7b083f74efa8 OP_EQUAL", "type": "scripthash"}, "value": 0.00096708, "n": 1}], "hex": "010000000001013596a5a58d4d2ee911f8b1897a207e49b14dbd012f8e6d28b703e8dd7ea20dc50100000017160014a0a388356e074b4e35974ae7598e632709638d98ffffffff021044a23b000000001976a91488f40e8b51948b9af88ed7f0b63993d54a971a7988acc47901000000000017a914467f159f2ba739be09c8030ce49c7b083f74efa8870247304402200c7cdb68b9200fb5c48a290d89398ef79a73774990ff52159be889d7057ad18502201250236e793386ffb61b7b7f878fd530933b38e6dee4e0e88efc9deb9d67a606012103a7f2a96826f2cb220052c93056fa3fdcda326b93642d8ae436f8df577637dde600000000", "vin": [{"txinwitness": ["304402200c7cdb68b9200fb5c48a290d89398ef79a73774990ff52159be889d7057ad18502201250236e793386ffb61b7b7f878fd530933b38e6dee4e0e88efc9deb9d67a60601", "03a7f2a96826f2cb220052c93056fa3fdcda326b93642d8ae436f8df577637dde6"], "sequence": 4294967295, "scriptSig": {"hex": "160014a0a388356e074b4e35974ae7598e632709638d98", "asm": "0014a0a388356e074b4e35974ae7598e632709638d98"}, "vout": 1, "txid": "c50da27edde803b7286d8e2f01bd4db1497e207a89b1f811e92e4d8da5a59635"}], "txid": "cdedcd2b6c387ef153d019f3143dcbf0cb29bb4ef8cad918093478e02c3e029b", "blocktime": 1537872475, "version": 1, "confirmations": 11486, "time": 1537872475, "locktime": 0, "vsize": 168, "size": 249}