{"hash": "a91e75e067a7ab243493768ea7cd4226b4bb09d85c4d0a2f2879ca9564a95cd3", "blockhash": "00000000000000000017f5eb5941039fbcee6240d03bc1f2f8e35350df66a1d8", "vout": [{"scriptPubKey": {"reqSigs": 1, "hex": "76a914b66e8e86a01b0055b3f4f29a2d0423e692fd6dea88ac", "addresses": ["1HdcRXkf5McQuBSZT5oSd9otwrgpWVmGGv"], "asm": "OP_DUP OP_HASH160 b66e8e86a01b0055b3f4f29a2d0423e692fd6dea OP_EQUALVERIFY OP_CHECKSIG", "type": "pubkeyhash"}, "value": 0.01597316, "n": 0}, {"scriptPubKey": {"reqSigs": 1, "hex": "a91458e1935af24954f08043a72d984dabcb51a7f47d87", "addresses": ["39nych8dYJGceMkaC1kWuG4LDy9hrYcFv6"], "asm": "OP_HASH160 58e1935af24954f08043a72d984dabcb51a7f47d OP_EQUAL", "type": "scripthash"}, "value": 0.01017138, "n": 1}], "hex": "02000000000108040661d9de6e3920a838fd376c19085a25ee2e108739f1127af2ce5a59ff73ee0100000017160014fd56c5614fd2cdfb4dfceca215968bf19989d66bfeffffff04192e73985443d58591c6dfe345878acbd7858991e2485c61d79ffb1268c4fe0000000017160014bc0dace1ae4d371865e2c3e7771dcc0f99fc9564feffffff092b8dd352bfc0e52474e3ddfe779af852f4879f429fc873a7ae88967125c82d000000001716001492c8915d44b7c4c6a5962bfb8a80e85a6cd6db8ffeffffff23ff3edabc903bb256b2c586aec8d9f0d98f36d3839619f9206867080f2a01a8020000001716001416d3ff9ae67b53b881740b2b5f623ca642dcbeaafeffffff5df12528cb06d650979836a1e68a497d099e418f7a7cec0c4261853f3ac7d9c5000000001716001416b0c126f491a63af28c97e94a7c6292c788187bfeffffff7f70c5bf4c8ab58e124c4fda681a94e78cc4a040090feaa2765273f18e36584e0100000017160014d3e9c7c2c539c347fd5e2058d314827b6ab376f0feffffffb3b1af80dd4fafb29fc9539943f9585cdfbfca4b4f9d38b620556b50b01440f2000000001716001483e594332e0e6c5eccbb97143f0e4909030b5842feffffffb53e0e1d23fc729c1f7d57b4aecfee95e955163a303fca8d8f87f84600b7f07701000000171600142c1e1fff15d2b44111213edd0f20a74f76bbf487feffffff02845f1800000000001976a914b66e8e86a01b0055b3f4f29a2d0423e692fd6dea88ac32850f000000000017a91458e1935af24954f08043a72d984dabcb51a7f47d870247304402203db30729a7ebea015f4ea351ca1a887506ba35b74ac05bbad77fac2e76115a5a02205521187401e0f8d7caf227f822e85dd86ed0da5c67a03830df21fbab88fe4361012103b0959fdf9990c0b1f4e655fb2c04e6d1c092e1a30cc2322740e0b97637ec9dfa02483045022100def5ebc2fb35c99870a5526d647acc8f7f6959f5139f6a4a893c6565fb51c75d02202d8ae2cf683f515538aea469c4cc23713f090c4867531ffb6f95368a6b76070101210367341af332e3741f1ef68fcefc771e30d1a384340d49e98d1b2d04ead034e7d102483045022100d4ec6287e46e5a8facc3f0f8b3fcfe0ac81740d4ce2a2125ca716756502958d10220674cdfd69c9e388b6482926b5e0511764bf6c3f3e35fe4e1c4306aea92e18b3a012103a05c93a6135faeb51baa8a8dbe8035dbcf396ff6068ebb5f7a8db2be4d9cf65002473044022069e5f8b156117e1f2efaa55cde171f7ab6b0443eb683a6fbb818c166f87cc1c202201fdc927d238b1da966923fa3ec84ca225dfbf86508720d5b88d7b785c91971160121029658bd9134d70a0bdf2ecddbcebaa86f3d8158290e8a8044dac800bfad54ca2e02483045022100bc76845b0d9359f1446b3ff61255e1f786af771147c4be04bca2d0b43d8fe5dc02200d34b6ddaebb8eee7912be8a3a30513791bb61c5f917d75c49b7e1551bf0479e012103fa39c4ca0ee5af0b2ffad135460bce50262efc3174072f472b5785325aebedcd024730440220462b6ff92f26b714cf6842adf8030a54bd2a2b4e0bca66ea387d674a8eba658e022047c79edc41694c8d2a07c47ef8ecdaaec38c6623c8f22aacf541563b07fc7b02012103bbac9eb729151e8dad428fd351ad0aefe5f78ad83393d8858fbcbf49725aa52802483045022100e11a3238548ed4616fe24e4d36e823cf41baec0757cfd4e0bfdc0029e71a9f39022036f91c165d5c551f4a287d00983e5f6e4142c2d5adbcd9b063d9d4f80e649033012103b69f7828f0fcbe9f86c657f5d22d180dd7a4df2225d453c8c5e14c0e03e53fdf02483045022100cbf6394587fec3e21a10c11567d29f400decd7cb751ebd1c00500bb6148e999602204045d720da34089571813d1cf70d2a4ae2d7f94cfb042d98f2a488865a642b25012102cb001545d98ee042a857a728e4f8eacb7634e5beed3738b830db61c2206a610915490800", "vin": [{"txinwitness": ["304402203db30729a7ebea015f4ea351ca1a887506ba35b74ac05bbad77fac2e76115a5a02205521187401e0f8d7caf227f822e85dd86ed0da5c67a03830df21fbab88fe436101", "03b0959fdf9990c0b1f4e655fb2c04e6d1c092e1a30cc2322740e0b97637ec9dfa"], "sequence": 4294967294, "scriptSig": {"hex": "160014fd56c5614fd2cdfb4dfceca215968bf19989d66b", "asm": "0014fd56c5614fd2cdfb4dfceca215968bf19989d66b"}, "vout": 1, "txid": "ee73ff595acef27a12f13987102eee255a08196c37fd38a820396eded9610604"}, {"txinwitness": ["3045022100def5ebc2fb35c99870a5526d647acc8f7f6959f5139f6a4a893c6565fb51c75d02202d8ae2cf683f515538aea469c4cc23713f090c4867531ffb6f95368a6b76070101", "0367341af332e3741f1ef68fcefc771e30d1a384340d49e98d1b2d04ead034e7d1"], "sequence": 4294967294, "scriptSig": {"hex": "160014bc0dace1ae4d371865e2c3e7771dcc0f99fc9564", "asm": "0014bc0dace1ae4d371865e2c3e7771dcc0f99fc9564"}, "vout": 0, "txid": "fec46812fb9fd7615c48e2918985d7cb8a8745e3dfc69185d5435498732e1904"}, {"txinwitness": ["3045022100d4ec6287e46e5a8facc3f0f8b3fcfe0ac81740d4ce2a2125ca716756502958d10220674cdfd69c9e388b6482926b5e0511764bf6c3f3e35fe4e1c4306aea92e18b3a01", "03a05c93a6135faeb51baa8a8dbe8035dbcf396ff6068ebb5f7a8db2be4d9cf650"], "sequence": 4294967294, "scriptSig": {"hex": "16001492c8915d44b7c4c6a5962bfb8a80e85a6cd6db8f", "asm": "001492c8915d44b7c4c6a5962bfb8a80e85a6cd6db8f"}, "vout": 0, "txid": "2dc825719688aea773c89f429f87f452f89a77fedde37424e5c0bf52d38d2b09"}, {"txinwitness": ["3044022069e5f8b156117e1f2efaa55cde171f7ab6b0443eb683a6fbb818c166f87cc1c202201fdc927d238b1da966923fa3ec84ca225dfbf86508720d5b88d7b785c919711601", "029658bd9134d70a0bdf2ecddbcebaa86f3d8158290e8a8044dac800bfad54ca2e"], "sequence": 4294967294, "scriptSig": {"hex": "16001416d3ff9ae67b53b881740b2b5f623ca642dcbeaa", "asm": "001416d3ff9ae67b53b881740b2b5f623ca642dcbeaa"}, "vout": 2, "txid": "a8012a0f08676820f9199683d3368fd9f0d9c8ae86c5b256b23b90bcda3eff23"}, {"txinwitness": ["3045022100bc76845b0d9359f1446b3ff61255e1f786af771147c4be04bca2d0b43d8fe5dc02200d34b6ddaebb8eee7912be8a3a30513791bb61c5f917d75c49b7e1551bf0479e01", "03fa39c4ca0ee5af0b2ffad135460bce50262efc3174072f472b5785325aebedcd"], "sequence": 4294967294, "scriptSig": {"hex": "16001416b0c126f491a63af28c97e94a7c6292c788187b", "asm": "001416b0c126f491a63af28c97e94a7c6292c788187b"}, "vout": 0, "txid": "c5d9c73a3f8561420cec7c7a8f419e097d498ae6a136989750d606cb2825f15d"}, {"txinwitness": ["30440220462b6ff92f26b714cf6842adf8030a54bd2a2b4e0bca66ea387d674a8eba658e022047c79edc41694c8d2a07c47ef8ecdaaec38c6623c8f22aacf541563b07fc7b0201", "03bbac9eb729151e8dad428fd351ad0aefe5f78ad83393d8858fbcbf49725aa528"], "sequence": 4294967294, "scriptSig": {"hex": "160014d3e9c7c2c539c347fd5e2058d314827b6ab376f0", "asm": "0014d3e9c7c2c539c347fd5e2058d314827b6ab376f0"}, "vout": 1, "txid": "4e58368ef1735276a2ea0f0940a0c48ce7941a68da4f4c128eb58a4cbfc5707f"}, {"txinwitness": ["3045022100e11a3238548ed4616fe24e4d36e823cf41baec0757cfd4e0bfdc0029e71a9f39022036f91c165d5c551f4a287d00983e5f6e4142c2d5adbcd9b063d9d4f80e64903301", "03b69f7828f0fcbe9f86c657f5d22d180dd7a4df2225d453c8c5e14c0e03e53fdf"], "sequence": 4294967294, "scriptSig": {"hex": "16001483e594332e0e6c5eccbb97143f0e4909030b5842", "asm": "001483e594332e0e6c5eccbb97143f0e4909030b5842"}, "vout": 0, "txid": "f24014b0506b5520b6389d4f4bcabfdf5c58f9439953c99fb2af4fdd80afb1b3"}, {"txinwitness": ["3045022100cbf6394587fec3e21a10c11567d29f400decd7cb751ebd1c00500bb6148e999602204045d720da34089571813d1cf70d2a4ae2d7f94cfb042d98f2a488865a642b2501", "02cb001545d98ee042a857a728e4f8eacb7634e5beed3738b830db61c2206a6109"], "sequence": 4294967294, "scriptSig": {"hex": "1600142c1e1fff15d2b44111213edd0f20a74f76bbf487", "asm": "00142c1e1fff15d2b44111213edd0f20a74f76bbf487"}, "vout": 1, "txid": "77f0b70046f8878f8dca3f303a1655e995eecfaeb4577d1f9c72fc231d0e3eb5"}], "txid": "cdf23e1a33a5c72b4e2fb4a6c5d5543085094de2d1a275b48613506867fc501d", "blocktime": 1537874412, "version": 2, "confirmations": 11467, "time": 1537874412, "locktime": 542997, "vsize": 804, "size": 1451}