{"hash": "2d2bf03a021cc570e8ee4b96b1084a142146a115d485c27ce750c3a21f88b16e", "blockhash": "0000000000000000001cda96e906b7601b7a6fb1a3b62bca570a9e5d8f4b3de1", "vout": [{"scriptPubKey": {"reqSigs": 1, "hex": "76a9146e6a73d8735e442e0e42a4c35222f9eee0553f4388ac", "addresses": ["1B4prZ2dqadQ3fQYRqeTxvp4Tg2c9P1Wm8"], "asm": "OP_DUP OP_HASH160 6e6a73d8735e442e0e42a4c35222f9eee0553f43 OP_EQUALVERIFY OP_CHECKSIG", "type": "pubkeyhash"}, "value": 0.092952, "n": 0}, {"scriptPubKey": {"reqSigs": 1, "hex": "a914c042a06babc4fd8fc9af635180eb2b44befb864587", "addresses": ["3KDbUg8eEUtEcxFMkPG87jEjQu82ghXz4U"], "asm": "OP_HASH160 c042a06babc4fd8fc9af635180eb2b44befb8645 OP_EQUAL", "type": "scripthash"}, "value": 0.4129422, "n": 1}], "hex": "010000000001013b5ecf8bfa88a25e3ef32389980acfca8214bcda2dad64a28ee43e408b4090150100000023220020440078b05a2bc6b41fcce8725aa4de3462086a212bf1d8847254066ab5037b92ffffffff0260d58d00000000001976a9146e6a73d8735e442e0e42a4c35222f9eee0553f4388ac8c1976020000000017a914c042a06babc4fd8fc9af635180eb2b44befb8645870400473044022010e0d77a6a1927e37245a49cca448997c01302d9bbb5e09eeb81e57b1370077602203c58954111abfd2331881386daa20034a3ecbe08513f77cd3a0219446859a8080148304502210081e12d62e63d4284039fbeac96a8515af192fbbb1abbcd4804b25704e0f748b702202a7b5ed68f40810e1046dae342702199a9ad9cdc6fec2d8d5c82c83614d63a8e014752210294e85d763e5b925f653e62be404ec0be1ff7a7172c59eceba9b1c692ef6727fe2102dd2332c0512dee4ea813748993f8056f254166d97719c8c2e4e8f542e54e1af152ae00000000", "vin": [{"txinwitness": ["", "3044022010e0d77a6a1927e37245a49cca448997c01302d9bbb5e09eeb81e57b1370077602203c58954111abfd2331881386daa20034a3ecbe08513f77cd3a0219446859a80801", "304502210081e12d62e63d4284039fbeac96a8515af192fbbb1abbcd4804b25704e0f748b702202a7b5ed68f40810e1046dae342702199a9ad9cdc6fec2d8d5c82c83614d63a8e01", "52210294e85d763e5b925f653e62be404ec0be1ff7a7172c59eceba9b1c692ef6727fe2102dd2332c0512dee4ea813748993f8056f254166d97719c8c2e4e8f542e54e1af152ae"], "sequence": 4294967295, "scriptSig": {"hex": "220020440078b05a2bc6b41fcce8725aa4de3462086a212bf1d8847254066ab5037b92", "asm": "0020440078b05a2bc6b41fcce8725aa4de3462086a212bf1d8847254066ab5037b92"}, "vout": 1, "txid": "1590408b403ee48ea264ad2ddabc1482cacf0a988923f33e5ea288fa8bcf5e3b"}], "txid": "ce04c513ba895abb2cbb3f3bbebdfe894d88a5fbe379758899350c703b7f5efe", "blocktime": 1537873282, "version": 1, "confirmations": 11485, "time": 1537873282, "locktime": 0, "vsize": 208, "size": 373}