{"hash": "26bc55a4b528905af633c994a47850e2f956fff06103a1523e2f37da26099009", "blockhash": "0000000000000000000e13cef7c366c0283d82e591d1acd082e914b08063cdf1", "vout": [{"scriptPubKey": {"reqSigs": 1, "hex": "76a9140604f4885c8f9e5778d9fc3996ca84664c383f2b88ac", "addresses": ["1YpzSo1WWwtfS8bWDMLTGwmZc1ifZiHUt"], "asm": "OP_DUP OP_HASH160 0604f4885c8f9e5778d9fc3996ca84664c383f2b OP_EQUALVERIFY OP_CHECKSIG", "type": "pubkeyhash"}, "value": 0.0025, "n": 0}, {"scriptPubKey": {"reqSigs": 1, "hex": "a914c5a1c81859926c4b98ba7012e9365bbe0e15780c87", "addresses": ["3Khzr7poje7ib5SZVfDF1PxtyHwS3pCmhn"], "asm": "OP_HASH160 c5a1c81859926c4b98ba7012e9365bbe0e15780c OP_EQUAL", "type": "scripthash"}, "value": 2.27708889, "n": 1}], "hex": "0200000000010131a285b13b06a2591ed0cfa81395e56d143a5607ec14ed6aeb80db77a35212990000000017160014c5bfa908793bf327383e312d09e3fa40e1193afafdffffff0290d00300000000001976a9140604f4885c8f9e5778d9fc3996ca84664c383f2b88acd98f920d0000000017a914c5a1c81859926c4b98ba7012e9365bbe0e15780c8702483045022100c365cb7906e04aa18541e8ba503f6f98e4e02ab3aaa1d6df7cefa34188acd783022062340aeb1bbf97c7628844e4cb03b5f6a7fe479b7643f89a733c333299a17a070121031c40176bb259851e523529c7bc3ea8f81e894a8cae578eff285230fdf7c59a5910490800", "vin": [{"txinwitness": ["3045022100c365cb7906e04aa18541e8ba503f6f98e4e02ab3aaa1d6df7cefa34188acd783022062340aeb1bbf97c7628844e4cb03b5f6a7fe479b7643f89a733c333299a17a0701", "031c40176bb259851e523529c7bc3ea8f81e894a8cae578eff285230fdf7c59a59"], "sequence": 4294967293, "scriptSig": {"hex": "160014c5bfa908793bf327383e312d09e3fa40e1193afa", "asm": "0014c5bfa908793bf327383e312d09e3fa40e1193afa"}, "vout": 0, "txid": "991252a377db80eb6aed14ec07563a146de59513a8cfd01e59a2063bb185a231"}], "txid": "ce0cf3cdfe77f29f1c7014ac42816968de67edf83199c5aec8fa1e5a72e7cf85", "blocktime": 1537871767, "version": 2, "confirmations": 11493, "time": 1537871767, "locktime": 542992, "vsize": 168, "size": 250}