{"hash": "ce0d9e06d464bcc5d1383df0480c244b6b09357ee4c50fcc88092cb95c51b6a9", "blockhash": "00000000000000000017f5eb5941039fbcee6240d03bc1f2f8e35350df66a1d8", "vout": [{"scriptPubKey": {"reqSigs": 1, "hex": "a914a85375853b20a85966d3e1b5a31e9b47cb0afa1e87", "addresses": ["3H33RcFwHgvdVF4Xm1jkSUvH2CQh6Cfdza"], "asm": "OP_HASH160 a85375853b20a85966d3e1b5a31e9b47cb0afa1e OP_EQUAL", "type": "scripthash"}, "value": 0.00432181, "n": 0}, {"scriptPubKey": {"reqSigs": 1, "hex": "76a914f92c9360ba40b71a721f31d38b9e2fcffc02171888ac", "addresses": ["1PiWewUwKEWhbzLTJjKavZRGh6RAzNzJ1B"], "asm": "OP_DUP OP_HASH160 f92c9360ba40b71a721f31d38b9e2fcffc021718 OP_EQUALVERIFY OP_CHECKSIG", "type": "pubkeyhash"}, "value": 0.02166685, "n": 1}], "hex": "0100000001196efd67590bd8d8a41441dd902baa23aba8e2bc4a35372c92d598f06ec80903000000006b483045022100ecabf0b547464a5aec8fbe25987062e2e2909b43acaa6cbd5008f4c8730ddde30220779095043b8aab6c70878cf3680b20d49952ed7dbf2b8e8ff00cc80ebae0778d0121020c60c869739fb2f450178d030abbb4e6ad5d9e4724ca123c18438c7eeff9125dffffffff02359806000000000017a914a85375853b20a85966d3e1b5a31e9b47cb0afa1e879d0f2100000000001976a914f92c9360ba40b71a721f31d38b9e2fcffc02171888ac00000000", "vin": [{"sequence": 4294967295, "scriptSig": {"hex": "483045022100ecabf0b547464a5aec8fbe25987062e2e2909b43acaa6cbd5008f4c8730ddde30220779095043b8aab6c70878cf3680b20d49952ed7dbf2b8e8ff00cc80ebae0778d0121020c60c869739fb2f450178d030abbb4e6ad5d9e4724ca123c18438c7eeff9125d", "asm": "3045022100ecabf0b547464a5aec8fbe25987062e2e2909b43acaa6cbd5008f4c8730ddde30220779095043b8aab6c70878cf3680b20d49952ed7dbf2b8e8ff00cc80ebae0778d[ALL] 020c60c869739fb2f450178d030abbb4e6ad5d9e4724ca123c18438c7eeff9125d"}, "vout": 0, "txid": "0309c86ef098d5922c37354abce2a8ab23aa2b90dd4114a4d8d80b5967fd6e19"}], "txid": "ce0d9e06d464bcc5d1383df0480c244b6b09357ee4c50fcc88092cb95c51b6a9", "blocktime": 1537874412, "version": 1, "confirmations": 11467, "time": 1537874412, "locktime": 0, "vsize": 224, "size": 224}