{"hash": "ce0e5bd8e38ba181c3f8b41ce5950540eb713c0e6cd5d8037c0956fde66d3f63", "blockhash": "0000000000000000001f76057863aec43deb6fa401d9628bb513d65a8098bfab", "vout": [{"scriptPubKey": {"reqSigs": 1, "hex": "76a9142132b02a95c4c6b6a404af63fcbb817b59e8e60b88ac", "addresses": ["142Y2CsvpgfsJXq3wy1Frs1LyBePxN8anK"], "asm": "OP_DUP OP_HASH160 2132b02a95c4c6b6a404af63fcbb817b59e8e60b OP_EQUALVERIFY OP_CHECKSIG", "type": "pubkeyhash"}, "value": 0.00427339, "n": 0}, {"scriptPubKey": {"reqSigs": 1, "hex": "76a9146e1f094ddb0bac2f25ccf49f66f53cf64b7f8c7688ac", "addresses": ["1B3GWYaBv27V77FQdYez7XxfqARXG5DGp9"], "asm": "OP_DUP OP_HASH160 6e1f094ddb0bac2f25ccf49f66f53cf64b7f8c76 OP_EQUALVERIFY OP_CHECKSIG", "type": "pubkeyhash"}, "value": 4.34343116, "n": 1}], "hex": "01000000037e5c377623ccec8a860d66f375d6e0a3f89e1389feb6ae0203170e31d616e503020000006a47304402207b9931a5727462e4b9e57a298cca264dee5180c6428991602d31f43fd31ebeab0220010b46d4be4762a84e67df6389ea4fb2ec87ac3da232ba00f8dd5ab88cf2dab90121021b5b4f170d141f11ad98fa26453dc4364ced8194c959d2b08081ef4245fd2775ffffffff69cae0801de53e26797b3d9d4eccfbb7ea6ebb4ef76f9720b091185baf180a45000000006b483045022100d9c7890988bd8939cc94e34ff45af687bea9ced23069dcd582f525113b9ec2c7022030885d5dc5acea68313751fe93dc4f8523b2dbd2f1cf8a52930bd35605154964012102d71d6874394ab32c85defc1d0671f00debbf2c286bd7204052c0dfbaf4882254ffffffffe39ee29c51b05d890a32ae197483920b1e6cc84a339566ad5a7c3f6a39dd9eb6010000006a47304402206feb1fe10c1adf8830f7d249da92512183f069c9c181380d02226fb2fc2c92de02201030e10d9b7972bd6e5c7ac16ed09e9ec4d4b0063a5a2c14041c57cfcc39fd20012102b27e1c16790fce7b0a3d50a6a1aae1a6d1434dee18042f1eb01d946e5b98bc11ffffffff024b850600000000001976a9142132b02a95c4c6b6a404af63fcbb817b59e8e60b88accc8ce319000000001976a9146e1f094ddb0bac2f25ccf49f66f53cf64b7f8c7688ac00000000", "vin": [{"sequence": 4294967295, "scriptSig": {"hex": "47304402207b9931a5727462e4b9e57a298cca264dee5180c6428991602d31f43fd31ebeab0220010b46d4be4762a84e67df6389ea4fb2ec87ac3da232ba00f8dd5ab88cf2dab90121021b5b4f170d141f11ad98fa26453dc4364ced8194c959d2b08081ef4245fd2775", "asm": "304402207b9931a5727462e4b9e57a298cca264dee5180c6428991602d31f43fd31ebeab0220010b46d4be4762a84e67df6389ea4fb2ec87ac3da232ba00f8dd5ab88cf2dab9[ALL] 021b5b4f170d141f11ad98fa26453dc4364ced8194c959d2b08081ef4245fd2775"}, "vout": 2, "txid": "03e516d6310e170302aeb6fe89139ef8a3e0d675f3660d868aeccc2376375c7e"}, {"sequence": 4294967295, "scriptSig": {"hex": "483045022100d9c7890988bd8939cc94e34ff45af687bea9ced23069dcd582f525113b9ec2c7022030885d5dc5acea68313751fe93dc4f8523b2dbd2f1cf8a52930bd35605154964012102d71d6874394ab32c85defc1d0671f00debbf2c286bd7204052c0dfbaf4882254", "asm": "3045022100d9c7890988bd8939cc94e34ff45af687bea9ced23069dcd582f525113b9ec2c7022030885d5dc5acea68313751fe93dc4f8523b2dbd2f1cf8a52930bd35605154964[ALL] 02d71d6874394ab32c85defc1d0671f00debbf2c286bd7204052c0dfbaf4882254"}, "vout": 0, "txid": "450a18af5b1891b020976ff74ebb6eeab7fbcc4e9d3d7b79263ee51d80e0ca69"}, {"sequence": 4294967295, "scriptSig": {"hex": "47304402206feb1fe10c1adf8830f7d249da92512183f069c9c181380d02226fb2fc2c92de02201030e10d9b7972bd6e5c7ac16ed09e9ec4d4b0063a5a2c14041c57cfcc39fd20012102b27e1c16790fce7b0a3d50a6a1aae1a6d1434dee18042f1eb01d946e5b98bc11", "asm": "304402206feb1fe10c1adf8830f7d249da92512183f069c9c181380d02226fb2fc2c92de02201030e10d9b7972bd6e5c7ac16ed09e9ec4d4b0063a5a2c14041c57cfcc39fd20[ALL] 02b27e1c16790fce7b0a3d50a6a1aae1a6d1434dee18042f1eb01d946e5b98bc11"}, "vout": 1, "txid": "b69edd396a3f7c5aad6695334ac86c1e0b92837419ae320a895db0519ce29ee3"}], "txid": "ce0e5bd8e38ba181c3f8b41ce5950540eb713c0e6cd5d8037c0956fde66d3f63", "blocktime": 1537873891, "version": 1, "confirmations": 11475, "time": 1537873891, "locktime": 0, "vsize": 520, "size": 520}