{"hash": "ce1143780ea2f6ae95a777afe7a2948dffd101a3243de693855646cc172635dc", "blockhash": "00000000000000000024a2167bbff67b0be802c0b01cdd79e6331c2be6459f87", "vout": [{"scriptPubKey": {"type": "nulldata", "hex": "6a146f6d6e69000000000000001f00000009961a1f40", "asm": "OP_RETURN 6f6d6e69000000000000001f00000009961a1f40"}, "value": 0.0, "n": 0}, {"scriptPubKey": {"reqSigs": 1, "hex": "76a91458f32143a95cd11ee5f37e5d1dff6f9fbafa660b88ac", "addresses": ["197Kir2psnjrTFwx8R9cUnmVCUFeUgCNxS"], "asm": "OP_DUP OP_HASH160 58f32143a95cd11ee5f37e5d1dff6f9fbafa660b OP_EQUALVERIFY OP_CHECKSIG", "type": "pubkeyhash"}, "value": 0.91704879, "n": 1}, {"scriptPubKey": {"reqSigs": 1, "hex": "76a914d7f6bfceee3868e86c4861fc496711da0511cff888ac", "addresses": ["1LgusgZWyrpahoHwXSZj7gRcA6PZp4YAe3"], "asm": "OP_DUP OP_HASH160 d7f6bfceee3868e86c4861fc496711da0511cff8 OP_EQUALVERIFY OP_CHECKSIG", "type": "pubkeyhash"}, "value": 5.46e-06, "n": 2}], "hex": "01000000015fc9320cada8fbc036886885c519d5e71b0ad0afff6fac6b4af408fb210023d3000000006a47304402203418a8fb6b45cb61eea73829a1d62ebc985821bfdc083025344f4413c28d1e5102200176ec812c050b1f1fdc0e5459ca747bd8e065d55cc5b12d6133e454b13f28fe01210251e12972b557d5dbac73bfd2470adeac64ac46202389f0ef2db7231f645a0aeafeffffff030000000000000000166a146f6d6e69000000000000001f00000009961a1f402f4e7705000000001976a91458f32143a95cd11ee5f37e5d1dff6f9fbafa660b88ac22020000000000001976a914d7f6bfceee3868e86c4861fc496711da0511cff888ac0d490800", "vin": [{"sequence": 4294967294, "scriptSig": {"hex": "47304402203418a8fb6b45cb61eea73829a1d62ebc985821bfdc083025344f4413c28d1e5102200176ec812c050b1f1fdc0e5459ca747bd8e065d55cc5b12d6133e454b13f28fe01210251e12972b557d5dbac73bfd2470adeac64ac46202389f0ef2db7231f645a0aea", "asm": "304402203418a8fb6b45cb61eea73829a1d62ebc985821bfdc083025344f4413c28d1e5102200176ec812c050b1f1fdc0e5459ca747bd8e065d55cc5b12d6133e454b13f28fe[ALL] 0251e12972b557d5dbac73bfd2470adeac64ac46202389f0ef2db7231f645a0aea"}, "vout": 0, "txid": "d3230021fb08f44a6bac6fffafd00a1be7d519c585688836c0fba8ad0c32c95f"}], "txid": "ce1143780ea2f6ae95a777afe7a2948dffd101a3243de693855646cc172635dc", "blocktime": 1537870564, "version": 1, "confirmations": 11515, "time": 1537870564, "locktime": 542989, "vsize": 256, "size": 256}