{"hash": "ce17a678326ce4dfeac10b41037ebdc6dda6d5269371d3f5a646a770d8729537", "blockhash": "0000000000000000001f76057863aec43deb6fa401d9628bb513d65a8098bfab", "vout": [{"scriptPubKey": {"reqSigs": 1, "hex": "76a91494ae312f42b31c742a1f1191a342391c28bda66688ac", "addresses": ["1EZ9gUP8GhWGpniyY8KBTB3hM6ewm4f5Zk"], "asm": "OP_DUP OP_HASH160 94ae312f42b31c742a1f1191a342391c28bda666 OP_EQUALVERIFY OP_CHECKSIG", "type": "pubkeyhash"}, "value": 0.0067, "n": 0}, {"scriptPubKey": {"reqSigs": 1, "hex": "76a9149d207039e20f951538067762c2f13a25cb749d7f88ac", "addresses": ["1FKowybSYRXBfxrobqZZMmTRUSgWnmP5Yt"], "asm": "OP_DUP OP_HASH160 9d207039e20f951538067762c2f13a25cb749d7f OP_EQUALVERIFY OP_CHECKSIG", "type": "pubkeyhash"}, "value": 0.05357585, "n": 1}], "hex": "0100000001b1bd0ba939cd872371af9bfecc2959daa564d1a82670ff76aca48d01cd4d79c0010000006b483045022100896eaea75abe3d276fb4295ff33f616d572861196093878f96b21031cc73484e02202e5c6fc40a9a7a97c2070bc7547e092b1073e33e2c55f2db349907082646b7c901210313dae86d8db52f0e52d6932a22f510675f52ee11c0c289f0d44958944596b18bffffffff0230390a00000000001976a91494ae312f42b31c742a1f1191a342391c28bda66688ac11c05100000000001976a9149d207039e20f951538067762c2f13a25cb749d7f88ac00000000", "vin": [{"sequence": 4294967295, "scriptSig": {"hex": "483045022100896eaea75abe3d276fb4295ff33f616d572861196093878f96b21031cc73484e02202e5c6fc40a9a7a97c2070bc7547e092b1073e33e2c55f2db349907082646b7c901210313dae86d8db52f0e52d6932a22f510675f52ee11c0c289f0d44958944596b18b", "asm": "3045022100896eaea75abe3d276fb4295ff33f616d572861196093878f96b21031cc73484e02202e5c6fc40a9a7a97c2070bc7547e092b1073e33e2c55f2db349907082646b7c9[ALL] 0313dae86d8db52f0e52d6932a22f510675f52ee11c0c289f0d44958944596b18b"}, "vout": 1, "txid": "c0794dcd018da4ac76ff7026a8d164a5da5929ccfe9baf712387cd39a90bbdb1"}], "txid": "ce17a678326ce4dfeac10b41037ebdc6dda6d5269371d3f5a646a770d8729537", "blocktime": 1537873891, "version": 1, "confirmations": 11475, "time": 1537873891, "locktime": 0, "vsize": 226, "size": 226}