{"hash": "ed6cb9280840a592411ec3e2bcaf37419f5d8209cce497554e21fde33ab27e84", "blockhash": "0000000000000000000e13cef7c366c0283d82e591d1acd082e914b08063cdf1", "vout": [{"scriptPubKey": {"reqSigs": 1, "hex": "a91437a410a193e67ec740dae95d78596a25482dd07287", "addresses": ["36mDdXahE97986YTGjTLvu73Tbm88Ju4jH"], "asm": "OP_HASH160 37a410a193e67ec740dae95d78596a25482dd072 OP_EQUAL", "type": "scripthash"}, "value": 0.0015834, "n": 0}, {"scriptPubKey": {"reqSigs": 1, "hex": "a9141988a27e3c2df4ddee7fad5a2303d086179b2a3087", "addresses": ["3422VtS7UtCvXYxoXMVp6eZupR252z85oC"], "asm": "OP_HASH160 1988a27e3c2df4ddee7fad5a2303d086179b2a30 OP_EQUAL", "type": "scripthash"}, "value": 2.71945019, "n": 1}], "hex": "0100000000010129842802332801b1cdb6cdfb12fe337dd9c76d7d6963177ee715a8e92f95317b010000002322002065d416c48a8072e0ac51c2d111eb194f009caef0332446c1bf2097316cf07fa9ffffffff02846a02000000000017a91437a410a193e67ec740dae95d78596a25482dd072873b8d35100000000017a9141988a27e3c2df4ddee7fad5a2303d086179b2a30870400483045022100ed4c2c138b0b07510827c2cc4153099559802527b0a2d7b262d2601b3388c3e602205a13c6b685298baa5116daaa1872692dcb8c771029b4600a28f6ab38f933d54901483045022100972b906526a5fcc840569c43a9adca731416962341f9ad22b7763310662b1c7002204ad95c5d529ed5f17d3b5412d2ca882f4d47dbf496110f4211c062f4ba1ccc3d0169522102f44abcf9e23c9a460da309ccca56c619c04eed3bde2c2cff5e7d78fbcd980b9c2103c9443cf3047bb6c2c82f1b0c44c36109cdc3d0d601d16d1189a1602bf8d1a0a02103bfe867059274412412e088af5572b92168c2ef495cfe6c9b7a753a009eb37c4853ae00000000", "vin": [{"txinwitness": ["", "3045022100ed4c2c138b0b07510827c2cc4153099559802527b0a2d7b262d2601b3388c3e602205a13c6b685298baa5116daaa1872692dcb8c771029b4600a28f6ab38f933d54901", "3045022100972b906526a5fcc840569c43a9adca731416962341f9ad22b7763310662b1c7002204ad95c5d529ed5f17d3b5412d2ca882f4d47dbf496110f4211c062f4ba1ccc3d01", "522102f44abcf9e23c9a460da309ccca56c619c04eed3bde2c2cff5e7d78fbcd980b9c2103c9443cf3047bb6c2c82f1b0c44c36109cdc3d0d601d16d1189a1602bf8d1a0a02103bfe867059274412412e088af5572b92168c2ef495cfe6c9b7a753a009eb37c4853ae"], "sequence": 4294967295, "scriptSig": {"hex": "22002065d416c48a8072e0ac51c2d111eb194f009caef0332446c1bf2097316cf07fa9", "asm": "002065d416c48a8072e0ac51c2d111eb194f009caef0332446c1bf2097316cf07fa9"}, "vout": 1, "txid": "7b31952fe9a815e77e1763697d6dc7d97d33fe12fbcdb6cdb101283302288429"}], "txid": "ce1a0490713a86e413cd533fc1723a682fb978305a79cf31d01d429b6ebf91e1", "blocktime": 1537871767, "version": 1, "confirmations": 11491, "time": 1537871767, "locktime": 0, "vsize": 214, "size": 406}