{"hash": "12c237775c1c02673faeae1f9651257d75aeaa7f21a61ba42bb8d78e18db1851", "blockhash": "0000000000000000000dcc0f55137456b1a82d3642486a52398922ac4d620174", "vout": [{"scriptPubKey": {"reqSigs": 1, "hex": "76a914a7d5ee7bc3243fdcfe3661bca6fe2a6e8d5c5db188ac", "addresses": ["1GJS8GCvc3MUKjbBzJL7tGBnaMAqiadFHN"], "asm": "OP_DUP OP_HASH160 a7d5ee7bc3243fdcfe3661bca6fe2a6e8d5c5db1 OP_EQUALVERIFY OP_CHECKSIG", "type": "pubkeyhash"}, "value": 0.01262886, "n": 0}, {"scriptPubKey": {"reqSigs": 1, "hex": "0014cf3190a18e7ccc6debf7ddcadd2413e92b6ddc7a", "addresses": ["bc1qeucepgvw0nxxm6lhmh9d6fqnay4kmhr6mr26lf"], "asm": "0 cf3190a18e7ccc6debf7ddcadd2413e92b6ddc7a", "type": "witness_v0_keyhash"}, "value": 0.00241626, "n": 1}], "hex": "01000000000101078074e926f02bc7cbe08d2292278c9ef91e97e6bb4a243dcffe9ea881664b3c010000001716001438e8f0675a97137a4f00881e5814b5c7da3b3322ffffffff0226451300000000001976a914a7d5ee7bc3243fdcfe3661bca6fe2a6e8d5c5db188acdaaf030000000000160014cf3190a18e7ccc6debf7ddcadd2413e92b6ddc7a02483045022100820ec5b01667a819ca01d454bea8435e2db22e2ee8e5ea16a88b3cf26847ed44022039b1922448d88e21ddce6ab532581c0b6fb6296685425c48ef927ba4e72ac4db0121035e2a67a4c0f3d772a9c8921cc1ec277acf3954a2006614e9482043a31eac626a00000000", "vin": [{"txinwitness": ["3045022100820ec5b01667a819ca01d454bea8435e2db22e2ee8e5ea16a88b3cf26847ed44022039b1922448d88e21ddce6ab532581c0b6fb6296685425c48ef927ba4e72ac4db01", "035e2a67a4c0f3d772a9c8921cc1ec277acf3954a2006614e9482043a31eac626a"], "sequence": 4294967295, "scriptSig": {"hex": "16001438e8f0675a97137a4f00881e5814b5c7da3b3322", "asm": "001438e8f0675a97137a4f00881e5814b5c7da3b3322"}, "vout": 1, "txid": "3c4b6681a89efecf3d244abbe6971ef99e8c2792228de0cbc72bf026e9748007"}], "txid": "ce26edc5b687656411ae262322fb60dedb6c130028fd7dadce8ffb0f512929f9", "blocktime": 1537870268, "version": 1, "confirmations": 11518, "time": 1537870268, "locktime": 0, "vsize": 167, "size": 249}