{"hash": "b141d35360a330085398f1004efc6f9ad1879f290328c500a2501902088cab85", "blockhash": "000000000000000000022b45ed06c6f4ccd3cf7fb5ba4856ebd2e58215665228", "vout": [{"scriptPubKey": {"type": "nulldata", "hex": "6a146f6d6e69000000000000001f00000022f0de7980", "asm": "OP_RETURN 6f6d6e69000000000000001f00000022f0de7980"}, "value": 0.0, "n": 0}, {"scriptPubKey": {"reqSigs": 1, "hex": "a914e818e90b8e6b38dba66f74b35cb708bbc73e2ea787", "addresses": ["3NrEXrB9qAxXYfRt6jKtBD8QzoU2qtNWDR"], "asm": "OP_HASH160 e818e90b8e6b38dba66f74b35cb708bbc73e2ea7 OP_EQUAL", "type": "scripthash"}, "value": 2.73e-05, "n": 1}, {"scriptPubKey": {"reqSigs": 1, "hex": "a914e818e90b8e6b38dba66f74b35cb708bbc73e2ea787", "addresses": ["3NrEXrB9qAxXYfRt6jKtBD8QzoU2qtNWDR"], "asm": "OP_HASH160 e818e90b8e6b38dba66f74b35cb708bbc73e2ea7 OP_EQUAL", "type": "scripthash"}, "value": 0.01243446, "n": 2}], "hex": "0100000000010254d5a2d6f63b925499ecdec5a08e1a09545b21eeb1df40d72699678a1e86621d0200000017160014245b6d84671e443d97d8dc8857a1987bd2309485ffffffffb3b4078b6fc2c613be9de3b3b71f72ff7ac18e49f6f2f7e588c4caa3c9f26922000000001716001438484e14aee25e29a3b03ce64621cc3ceb2aa019ffffffff030000000000000000166a146f6d6e69000000000000001f00000022f0de7980aa0a00000000000017a914e818e90b8e6b38dba66f74b35cb708bbc73e2ea78736f912000000000017a914e818e90b8e6b38dba66f74b35cb708bbc73e2ea787024730440220182cea88d851da7fc814d92c27fcb69642bc4d3e484a708a25f09cf971961d770220386d872b862e89f4435fff1f7db693ee521b3f1acf920e2c1a627058f81b9c9f0121037b80ff8da4be59fbaf057198b9d4184aaafbb421063d7a9f65a4b0dde77acb1a0247304402205d3d1685b1514c3c35af6c0780d0b97acd480d720d032ce35e6e8649c5680cda0220776beadf4752ae38d95853f355c60477a2f538c9cb89568acd9d069b79d5c79a012103bf9c6ae84b9729882d7b90046423d2aea0a56e8718f7b86262dc501ed3a3083800000000", "vin": [{"txinwitness": ["30440220182cea88d851da7fc814d92c27fcb69642bc4d3e484a708a25f09cf971961d770220386d872b862e89f4435fff1f7db693ee521b3f1acf920e2c1a627058f81b9c9f01", "037b80ff8da4be59fbaf057198b9d4184aaafbb421063d7a9f65a4b0dde77acb1a"], "sequence": 4294967295, "scriptSig": {"hex": "160014245b6d84671e443d97d8dc8857a1987bd2309485", "asm": "0014245b6d84671e443d97d8dc8857a1987bd2309485"}, "vout": 2, "txid": "1d62861e8a679926d740dfb1ee215b54091a8ea0c5deec9954923bf6d6a2d554"}, {"txinwitness": ["304402205d3d1685b1514c3c35af6c0780d0b97acd480d720d032ce35e6e8649c5680cda0220776beadf4752ae38d95853f355c60477a2f538c9cb89568acd9d069b79d5c79a01", "03bf9c6ae84b9729882d7b90046423d2aea0a56e8718f7b86262dc501ed3a30838"], "sequence": 4294967295, "scriptSig": {"hex": "16001438484e14aee25e29a3b03ce64621cc3ceb2aa019", "asm": "001438484e14aee25e29a3b03ce64621cc3ceb2aa019"}, "vout": 0, "txid": "2269f2c9a3cac488e5f7f2f6498ec17aff721fb7b3e39dbe13c6c26f8b07b4b3"}], "txid": "ce2f283a1475b6d15b461dbeb2612290ce0f05a7c51b633dbca65c16b187df37", "blocktime": 1537869901, "version": 1, "confirmations": 11522, "time": 1537869901, "locktime": 0, "vsize": 287, "size": 449}