{"hash": "ce2f114f4ec18b7a9511cd312d02195bae19cc6d0bdddd39105d4c25a781b75c", "blockhash": "0000000000000000001cda96e906b7601b7a6fb1a3b62bca570a9e5d8f4b3de1", "vout": [{"scriptPubKey": {"reqSigs": 1, "hex": "a9149e6a5ca56e052b0c198c087f4841bd7c3d2bb54587", "addresses": ["3G8e71Njp1q5Q1LgsCG25MB1V9EitdHDdT"], "asm": "OP_HASH160 9e6a5ca56e052b0c198c087f4841bd7c3d2bb545 OP_EQUAL", "type": "scripthash"}, "value": 0.00288558, "n": 0}, {"scriptPubKey": {"reqSigs": 1, "hex": "a91449b2f3112f553f771b7ed3d74f784bd5a325620b87", "addresses": ["38QhdB7vXri76g81aMt6UbEsQNLhk7gTMv"], "asm": "OP_HASH160 49b2f3112f553f771b7ed3d74f784bd5a325620b OP_EQUAL", "type": "scripthash"}, "value": 0.02349562, "n": 1}], "hex": "0200000001079a675cab3048dc64ff720c5746fc95e5bbe0f11dfefa859e84afbaa8c2f07201000000fdfd000047304402202fb95c2cef58d1e1ff859499d81f0c44a986d01d190b582434425f61cf15485a02200fa4aa8cef73cc86a39816a382a16d953229b92d26e5c5d4884cd26bbab26b9701483045022100c62b3c9fdfcbebe0097de7e15b364d9f02ff94f5256c093e8509af52c01cf2a302207aab730d8826745b4a018238a3e24271662c450a73c26d479492b2703aeb4aa0014c69522102ffa5fa917a56716dbb4cfa98c8cc0b7587dc491dcacc994e67b064f345c4d725210332ecd4548709d37033f4546954ec0791ca185651172e381ed0c800686ab26eee2103c27c4bbb4817a8ee5e25ad9f67ee7b19222b46b4e0f5dc67e172efd286d48b6753aeffffffff022e6704000000000017a9149e6a5ca56e052b0c198c087f4841bd7c3d2bb54587fad923000000000017a91449b2f3112f553f771b7ed3d74f784bd5a325620b8700000000", "vin": [{"sequence": 4294967295, "scriptSig": {"hex": "0047304402202fb95c2cef58d1e1ff859499d81f0c44a986d01d190b582434425f61cf15485a02200fa4aa8cef73cc86a39816a382a16d953229b92d26e5c5d4884cd26bbab26b9701483045022100c62b3c9fdfcbebe0097de7e15b364d9f02ff94f5256c093e8509af52c01cf2a302207aab730d8826745b4a018238a3e24271662c450a73c26d479492b2703aeb4aa0014c69522102ffa5fa917a56716dbb4cfa98c8cc0b7587dc491dcacc994e67b064f345c4d725210332ecd4548709d37033f4546954ec0791ca185651172e381ed0c800686ab26eee2103c27c4bbb4817a8ee5e25ad9f67ee7b19222b46b4e0f5dc67e172efd286d48b6753ae", "asm": "0 304402202fb95c2cef58d1e1ff859499d81f0c44a986d01d190b582434425f61cf15485a02200fa4aa8cef73cc86a39816a382a16d953229b92d26e5c5d4884cd26bbab26b97[ALL] 3045022100c62b3c9fdfcbebe0097de7e15b364d9f02ff94f5256c093e8509af52c01cf2a302207aab730d8826745b4a018238a3e24271662c450a73c26d479492b2703aeb4aa0[ALL] 522102ffa5fa917a56716dbb4cfa98c8cc0b7587dc491dcacc994e67b064f345c4d725210332ecd4548709d37033f4546954ec0791ca185651172e381ed0c800686ab26eee2103c27c4bbb4817a8ee5e25ad9f67ee7b19222b46b4e0f5dc67e172efd286d48b6753ae"}, "vout": 1, "txid": "72f0c2a8baaf849e85fafe1df1e0bbe595fc46570c72ff64dc4830ab5c679a07"}], "txid": "ce2f114f4ec18b7a9511cd312d02195bae19cc6d0bdddd39105d4c25a781b75c", "blocktime": 1537873282, "version": 2, "confirmations": 11484, "time": 1537873282, "locktime": 0, "vsize": 370, "size": 370}