{"hash": "ce31685dd69442cbebbe3f10b2a02fabf2b7fdd6f184b8b59947fdab4178aa00", "blockhash": "0000000000000000001e0dab787dd257d1dbfcb92a98c2207d5e1078be1f4165", "vout": [{"scriptPubKey": {"reqSigs": 1, "hex": "76a9149146b15e7f740dd982ef03459a301705e7f072b088ac", "addresses": ["1EF9feA25ymM2AqUfA9oYTm1pGK9gQJTYo"], "asm": "OP_DUP OP_HASH160 9146b15e7f740dd982ef03459a301705e7f072b0 OP_EQUALVERIFY OP_CHECKSIG", "type": "pubkeyhash"}, "value": 0.02426179, "n": 0}], "hex": "0100000009f5994445c7d568ecb18bc2ecd076e4653828646035768e9821dd4bc05dda653b010000006a47304402204dcc8d8e36cab7bc9d727705a204041b90254b41048bb514aff714f88f2697f802201a92c04d22b60571d05a30017004103546689dae33de316baa34af44cef989e4812103ec452311bdc0d613e325dd79c9ddea8752bfc69ab6c80859d32773cf60f3a05dfffffffff5994445c7d568ecb18bc2ecd076e4653828646035768e9821dd4bc05dda653b020000006a47304402203cee45dc11f15061207e7a9a7a09998178ecedc0e0fdded735521b3682cf9ccc02200d6d515a7ac1eb6cefcc8fd375bb899497ebe78fba40bcb532eb72e43dff89308121030ed19b0295a4cbd16120c50ca945900dbd8f2df84c19f6f596f76ff9713b36edffffffff8cced54556f08b190fdb43b92d22cac658e1995ecded70e9da20b68b42d14b52010000006a47304402200b41c33c9afdc6d8d7f75fa2492a56a3c44f5e77e625a35884069720dd2c55680220301c1869300dd6852b10df346232b66b4055b5134ab57cac159eb67d0bcfa0148121030ed19b0295a4cbd16120c50ca945900dbd8f2df84c19f6f596f76ff9713b36edffffffff61aa3a97b1ca5ee8835a3b524439e3e26876aa179d9068cf26c4b3ab89a15e4c020000006b483045022100a8eb5a227c74339d050f9102dc6e62a3238a7d2700cefa15ac0e54984d10393102204cad9cc3c303a31fb9eee4d7a66a0d1255f6f215143a6cfbbcfc57c9a1ceb222812103541257094d13325dcbe6b33c4ffa38abe23cc641a7f65b64cda0b9484ce79047ffffffffd9910ae7f39e6eadf599b7c0b0b18b9db0c6683ad5859822a04f3d593edcfc70010000006b48304502210081c33899fff07660aec0859f0f788ad42a3fb1371703ad7bf987f39abcd4b700022046039ca921226be7815cc80d22886be29701f025c520e71662d8774db1847d5b812102b97d85d73b4a139b4a931f5b639a47881e3b23716f613b023f17d288f6d0b177ffffffff61aa3a97b1ca5ee8835a3b524439e3e26876aa179d9068cf26c4b3ab89a15e4c000000006a473044022016fc3d02c50fd4e598a08951a95346f12fa8e2c21fc7aaf50aefb03f2172329402204d4a11b2881d7a9521a3a6c37458882a87a07e04504bf8f54921256206a4e06c812102b97d85d73b4a139b4a931f5b639a47881e3b23716f613b023f17d288f6d0b177ffffffff9856f533d38a7eb0912a58852ccd05bca0375eda555407c45abb306e52b570d8000000006b483045022100861d3b28f4e1c2d8beacead1ea7c4524ada4762cd453dd55ac1455a8bf59bfb902200c233d1ff88961d91703b692487be20cbe8b7ad8d7256d7054f583d9fc156f2d8121033f9ae3b96c0e5d35cfcef53f0bf46fbd3a71faf87366d49f933d55a6d710ee74ffffffffd9910ae7f39e6eadf599b7c0b0b18b9db0c6683ad5859822a04f3d593edcfc700e0000006b483045022100eb66393a4bb65538abbba2eeeb8fd3e0903c86bb3c283c21bec1a29835373ebe022013b87aa46b0221988a07b2a3a1f6df92ad5374aef4656ebe4c1f093b5b9dc06b81210355d49719225a6f510dca5fa689b095adf22c9bfcfee1827d6b48c225314af07fffffffff97a1a8f39dcd16829aab12b7d6df0dd1ee64a59420f6719d3276e3dd9cc6dca4010000006b483045022100a21956585c7e33d935136c44e2fbd42ecd0d06e2281738a8a8a5708c57eaf7d702206ca3ab8d3327a461b0147ba03e9db2af94d621ac40d219fbd9f94ec5db5ed15181210355d49719225a6f510dca5fa689b095adf22c9bfcfee1827d6b48c225314af07fffffffff0143052500000000001976a9149146b15e7f740dd982ef03459a301705e7f072b088ac00000000", "vin": [{"sequence": 4294967295, "scriptSig": {"hex": "47304402204dcc8d8e36cab7bc9d727705a204041b90254b41048bb514aff714f88f2697f802201a92c04d22b60571d05a30017004103546689dae33de316baa34af44cef989e4812103ec452311bdc0d613e325dd79c9ddea8752bfc69ab6c80859d32773cf60f3a05d", "asm": "304402204dcc8d8e36cab7bc9d727705a204041b90254b41048bb514aff714f88f2697f802201a92c04d22b60571d05a30017004103546689dae33de316baa34af44cef989e4[ALL|ANYONECANPAY] 03ec452311bdc0d613e325dd79c9ddea8752bfc69ab6c80859d32773cf60f3a05d"}, "vout": 1, "txid": "3b65da5dc04bdd21988e76356064283865e476d0ecc28bb1ec68d5c7454499f5"}, {"sequence": 4294967295, "scriptSig": {"hex": "47304402203cee45dc11f15061207e7a9a7a09998178ecedc0e0fdded735521b3682cf9ccc02200d6d515a7ac1eb6cefcc8fd375bb899497ebe78fba40bcb532eb72e43dff89308121030ed19b0295a4cbd16120c50ca945900dbd8f2df84c19f6f596f76ff9713b36ed", "asm": "304402203cee45dc11f15061207e7a9a7a09998178ecedc0e0fdded735521b3682cf9ccc02200d6d515a7ac1eb6cefcc8fd375bb899497ebe78fba40bcb532eb72e43dff8930[ALL|ANYONECANPAY] 030ed19b0295a4cbd16120c50ca945900dbd8f2df84c19f6f596f76ff9713b36ed"}, "vout": 2, "txid": "3b65da5dc04bdd21988e76356064283865e476d0ecc28bb1ec68d5c7454499f5"}, {"sequence": 4294967295, "scriptSig": {"hex": "47304402200b41c33c9afdc6d8d7f75fa2492a56a3c44f5e77e625a35884069720dd2c55680220301c1869300dd6852b10df346232b66b4055b5134ab57cac159eb67d0bcfa0148121030ed19b0295a4cbd16120c50ca945900dbd8f2df84c19f6f596f76ff9713b36ed", "asm": "304402200b41c33c9afdc6d8d7f75fa2492a56a3c44f5e77e625a35884069720dd2c55680220301c1869300dd6852b10df346232b66b4055b5134ab57cac159eb67d0bcfa014[ALL|ANYONECANPAY] 030ed19b0295a4cbd16120c50ca945900dbd8f2df84c19f6f596f76ff9713b36ed"}, "vout": 1, "txid": "524bd1428bb620dae970edcd5e99e158c6ca222db943db0f198bf05645d5ce8c"}, {"sequence": 4294967295, "scriptSig": {"hex": "483045022100a8eb5a227c74339d050f9102dc6e62a3238a7d2700cefa15ac0e54984d10393102204cad9cc3c303a31fb9eee4d7a66a0d1255f6f215143a6cfbbcfc57c9a1ceb222812103541257094d13325dcbe6b33c4ffa38abe23cc641a7f65b64cda0b9484ce79047", "asm": "3045022100a8eb5a227c74339d050f9102dc6e62a3238a7d2700cefa15ac0e54984d10393102204cad9cc3c303a31fb9eee4d7a66a0d1255f6f215143a6cfbbcfc57c9a1ceb222[ALL|ANYONECANPAY] 03541257094d13325dcbe6b33c4ffa38abe23cc641a7f65b64cda0b9484ce79047"}, "vout": 2, "txid": "4c5ea189abb3c426cf68909d17aa7668e2e33944523b5a83e85ecab1973aaa61"}, {"sequence": 4294967295, "scriptSig": {"hex": "48304502210081c33899fff07660aec0859f0f788ad42a3fb1371703ad7bf987f39abcd4b700022046039ca921226be7815cc80d22886be29701f025c520e71662d8774db1847d5b812102b97d85d73b4a139b4a931f5b639a47881e3b23716f613b023f17d288f6d0b177", "asm": "304502210081c33899fff07660aec0859f0f788ad42a3fb1371703ad7bf987f39abcd4b700022046039ca921226be7815cc80d22886be29701f025c520e71662d8774db1847d5b[ALL|ANYONECANPAY] 02b97d85d73b4a139b4a931f5b639a47881e3b23716f613b023f17d288f6d0b177"}, "vout": 1, "txid": "70fcdc3e593d4fa0229885d53a68c6b09d8bb1b0c0b799f5ad6e9ef3e70a91d9"}, {"sequence": 4294967295, "scriptSig": {"hex": "473044022016fc3d02c50fd4e598a08951a95346f12fa8e2c21fc7aaf50aefb03f2172329402204d4a11b2881d7a9521a3a6c37458882a87a07e04504bf8f54921256206a4e06c812102b97d85d73b4a139b4a931f5b639a47881e3b23716f613b023f17d288f6d0b177", "asm": "3044022016fc3d02c50fd4e598a08951a95346f12fa8e2c21fc7aaf50aefb03f2172329402204d4a11b2881d7a9521a3a6c37458882a87a07e04504bf8f54921256206a4e06c[ALL|ANYONECANPAY] 02b97d85d73b4a139b4a931f5b639a47881e3b23716f613b023f17d288f6d0b177"}, "vout": 0, "txid": "4c5ea189abb3c426cf68909d17aa7668e2e33944523b5a83e85ecab1973aaa61"}, {"sequence": 4294967295, "scriptSig": {"hex": "483045022100861d3b28f4e1c2d8beacead1ea7c4524ada4762cd453dd55ac1455a8bf59bfb902200c233d1ff88961d91703b692487be20cbe8b7ad8d7256d7054f583d9fc156f2d8121033f9ae3b96c0e5d35cfcef53f0bf46fbd3a71faf87366d49f933d55a6d710ee74", "asm": "3045022100861d3b28f4e1c2d8beacead1ea7c4524ada4762cd453dd55ac1455a8bf59bfb902200c233d1ff88961d91703b692487be20cbe8b7ad8d7256d7054f583d9fc156f2d[ALL|ANYONECANPAY] 033f9ae3b96c0e5d35cfcef53f0bf46fbd3a71faf87366d49f933d55a6d710ee74"}, "vout": 0, "txid": "d870b5526e30bb5ac4075455da5e37a0bc05cd2c85582a91b07e8ad333f55698"}, {"sequence": 4294967295, "scriptSig": {"hex": "483045022100eb66393a4bb65538abbba2eeeb8fd3e0903c86bb3c283c21bec1a29835373ebe022013b87aa46b0221988a07b2a3a1f6df92ad5374aef4656ebe4c1f093b5b9dc06b81210355d49719225a6f510dca5fa689b095adf22c9bfcfee1827d6b48c225314af07f", "asm": "3045022100eb66393a4bb65538abbba2eeeb8fd3e0903c86bb3c283c21bec1a29835373ebe022013b87aa46b0221988a07b2a3a1f6df92ad5374aef4656ebe4c1f093b5b9dc06b[ALL|ANYONECANPAY] 0355d49719225a6f510dca5fa689b095adf22c9bfcfee1827d6b48c225314af07f"}, "vout": 14, "txid": "70fcdc3e593d4fa0229885d53a68c6b09d8bb1b0c0b799f5ad6e9ef3e70a91d9"}, {"sequence": 4294967295, "scriptSig": {"hex": "483045022100a21956585c7e33d935136c44e2fbd42ecd0d06e2281738a8a8a5708c57eaf7d702206ca3ab8d3327a461b0147ba03e9db2af94d621ac40d219fbd9f94ec5db5ed15181210355d49719225a6f510dca5fa689b095adf22c9bfcfee1827d6b48c225314af07f", "asm": "3045022100a21956585c7e33d935136c44e2fbd42ecd0d06e2281738a8a8a5708c57eaf7d702206ca3ab8d3327a461b0147ba03e9db2af94d621ac40d219fbd9f94ec5db5ed151[ALL|ANYONECANPAY] 0355d49719225a6f510dca5fa689b095adf22c9bfcfee1827d6b48c225314af07f"}, "vout": 1, "txid": "a4dcc69cdde376329d71f62094a564eed10ddfd6b712ab9a8216cd9df3a8a197"}], "txid": "ce31685dd69442cbebbe3f10b2a02fabf2b7fdd6f184b8b59947fdab4178aa00", "blocktime": 1537872475, "version": 1, "confirmations": 11487, "time": 1537872475, "locktime": 0, "vsize": 1372, "size": 1372}