{"hash": "6dcfa77fd3256412a156d60c982590dd13721bfb4887badbe6534d78aa55aa7b", "blockhash": "00000000000000000024a2167bbff67b0be802c0b01cdd79e6331c2be6459f87", "vout": [{"scriptPubKey": {"reqSigs": 1, "hex": "76a914e24e3a0502a5276b537d67cc963628c4a3a1c84b88ac", "addresses": ["1MdbRdsxFbcMJPeCUGuq5Kytiq5nbosELB"], "asm": "OP_DUP OP_HASH160 e24e3a0502a5276b537d67cc963628c4a3a1c84b OP_EQUALVERIFY OP_CHECKSIG", "type": "pubkeyhash"}, "value": 0.0029846, "n": 0}, {"scriptPubKey": {"reqSigs": 1, "hex": "a914fc4637ce7889845e38940033581b372b49e1454087", "addresses": ["3QgvKiXYFpiq3dTSXtk2DTpvdQWsynJHa1"], "asm": "OP_HASH160 fc4637ce7889845e38940033581b372b49e14540 OP_EQUAL", "type": "scripthash"}, "value": 0.00999279, "n": 1}], "hex": "0200000000010236fd1bade1380815b1acd413ce2aceb720b9cc05ba44f0d08e680bb5162eea550a000000171600147e5dcb80c0890c37057cbf7bedb1a1a827b70e68feffffffe0718c43612391dba9c7f6d85f37d396e5e87bc80e762893de259471bb257ae2000000001716001473613e05484dd40ab7bfa99acdcd65db7d6573f6feffffff02dc8d0400000000001976a914e24e3a0502a5276b537d67cc963628c4a3a1c84b88ac6f3f0f000000000017a914fc4637ce7889845e38940033581b372b49e14540870247304402200c0dc361863ddf4f6a65ceadb0751e44df7312d1a3184858c24b1f0af1d8926902205f4019f8b9c00570e495997d75346409098b3ccc85ac69a61d076e6b056bba9f01210337723eeecbdc0e843b3e73341069e0b9afd487ff529bdc14aa5c4ab8ddddc33c024730440220019be1fb50b7c909d89f463ab486d8cb424b5c66a7b5094a80eb64b71719b6ed02207eff814694c52e51b710d70c867072309adbf6d9e9d147b0899c4c55d3548b2d012103553636a979c3126567d133223277bf96b40133452e2199cb4cdfdb979fb811020d490800", "vin": [{"txinwitness": ["304402200c0dc361863ddf4f6a65ceadb0751e44df7312d1a3184858c24b1f0af1d8926902205f4019f8b9c00570e495997d75346409098b3ccc85ac69a61d076e6b056bba9f01", "0337723eeecbdc0e843b3e73341069e0b9afd487ff529bdc14aa5c4ab8ddddc33c"], "sequence": 4294967294, "scriptSig": {"hex": "1600147e5dcb80c0890c37057cbf7bedb1a1a827b70e68", "asm": "00147e5dcb80c0890c37057cbf7bedb1a1a827b70e68"}, "vout": 10, "txid": "55ea2e16b50b688ed0f044ba05ccb920b7ce2ace13d4acb1150838e1ad1bfd36"}, {"txinwitness": ["30440220019be1fb50b7c909d89f463ab486d8cb424b5c66a7b5094a80eb64b71719b6ed02207eff814694c52e51b710d70c867072309adbf6d9e9d147b0899c4c55d3548b2d01", "03553636a979c3126567d133223277bf96b40133452e2199cb4cdfdb979fb81102"], "sequence": 4294967294, "scriptSig": {"hex": "16001473613e05484dd40ab7bfa99acdcd65db7d6573f6", "asm": "001473613e05484dd40ab7bfa99acdcd65db7d6573f6"}, "vout": 0, "txid": "e27a25bb719425de9328760ec87be8e596d3375fd8f6c7a9db912361438c71e0"}], "txid": "ce34c0b4259dac4bfe3cbb723f6a8c6c2fb013445c7560062947ec3c071f0bc8", "blocktime": 1537870564, "version": 2, "confirmations": 11515, "time": 1537870564, "locktime": 542989, "vsize": 258, "size": 420}