{"hash": "ce549bda414ca08b7446537b67b7c4770d5fb190560049cfaf3cf0424076791d", "blockhash": "0000000000000000000baef3f32e3676a92c3b2e5da21b426e4f302fc371ce76", "vout": [{"scriptPubKey": {"reqSigs": 1, "hex": "a914ad06a7932cce1897cffd1f70f8285aea230d5bcb87", "addresses": ["3HTto6idRjsNxhjRrMQkntHq8v5m73NZHA"], "asm": "OP_HASH160 ad06a7932cce1897cffd1f70f8285aea230d5bcb OP_EQUAL", "type": "scripthash"}, "value": 0.001, "n": 0}, {"scriptPubKey": {"reqSigs": 1, "hex": "76a914e980406100f1b02d9023620d15858ca5a5fb144c88ac", "addresses": ["1NHe5mQK8w5uu6QxqnWsd6M8fPLPiYGWzA"], "asm": "OP_DUP OP_HASH160 e980406100f1b02d9023620d15858ca5a5fb144c OP_EQUALVERIFY OP_CHECKSIG", "type": "pubkeyhash"}, "value": 0.06133384, "n": 1}], "hex": "010000000125a61760c795fc133c680808915b830e7fa61420bc1c31cf8a2eac88bd79f9a2010000006b483045022100ee69feea400f489d9ad5e6f58771d91fa369e85e201313eadaafa6cb892b6f500220060ba756c39c9c29662b2e6b2caac6105dbb968b351ff4200e9cf5f46b37ea53012103ad603f5d3610dce0c476cc5ff31b70d340cb842f4285d362fdb63d990e4c8e16ffffffff02a08601000000000017a914ad06a7932cce1897cffd1f70f8285aea230d5bcb8788965d00000000001976a914e980406100f1b02d9023620d15858ca5a5fb144c88ac00000000", "vin": [{"sequence": 4294967295, "scriptSig": {"hex": "483045022100ee69feea400f489d9ad5e6f58771d91fa369e85e201313eadaafa6cb892b6f500220060ba756c39c9c29662b2e6b2caac6105dbb968b351ff4200e9cf5f46b37ea53012103ad603f5d3610dce0c476cc5ff31b70d340cb842f4285d362fdb63d990e4c8e16", "asm": "3045022100ee69feea400f489d9ad5e6f58771d91fa369e85e201313eadaafa6cb892b6f500220060ba756c39c9c29662b2e6b2caac6105dbb968b351ff4200e9cf5f46b37ea53[ALL] 03ad603f5d3610dce0c476cc5ff31b70d340cb842f4285d362fdb63d990e4c8e16"}, "vout": 1, "txid": "a2f979bd88ac2e8acf311cbc2014a67f0e835b910808683c13fc95c76017a625"}], "txid": "ce549bda414ca08b7446537b67b7c4770d5fb190560049cfaf3cf0424076791d", "blocktime": 1537876114, "version": 1, "confirmations": 11459, "time": 1537876114, "locktime": 0, "vsize": 224, "size": 224}