{"hash": "3bb5bc3fa5c33ab8f27fbff96075e748759066d3c16395a3e47670b64c52e502", "blockhash": "0000000000000000000e13cef7c366c0283d82e591d1acd082e914b08063cdf1", "vout": [{"scriptPubKey": {"reqSigs": 1, "hex": "a91459067f2c2b615db9c6f629805ce6147da62315dd87", "addresses": ["39ojr27X9Lb66R9vyCpNHLRvMpeyo7zvuF"], "asm": "OP_HASH160 59067f2c2b615db9c6f629805ce6147da62315dd OP_EQUAL", "type": "scripthash"}, "value": 0.255817, "n": 0}, {"scriptPubKey": {"reqSigs": 1, "hex": "76a914613b1582bce3aab32ed528e8f39f38b49d370d0f88ac", "addresses": ["19s7KqasyVcdAF3Jruae8NyRaN4VZxF5Y3"], "asm": "OP_DUP OP_HASH160 613b1582bce3aab32ed528e8f39f38b49d370d0f OP_EQUALVERIFY OP_CHECKSIG", "type": "pubkeyhash"}, "value": 0.011892, "n": 1}], "hex": "010000000001015ba7730bf9798cce6b0f9e73d1aa10e2d38ca61b9e815be0bcfda3357e0de4c80000000023220020776205598d83b92f986d802dc2f86c929d937dddd552fb8b1ace86fdfd0c2fd8ffffffff02845886010000000017a91459067f2c2b615db9c6f629805ce6147da62315dd8750251200000000001976a914613b1582bce3aab32ed528e8f39f38b49d370d0f88ac0400483045022100e5e7962c98c9a986cfdbadbcfc2dd0923e61230e4e9b7ecd56ef157661d67f7d02205317d893062210d9c4c95ef67e23275b83f7d16604d939673de4cb8f137134ee0147304402200c1f93c9fc20388cb887cd5d61c760848657335d1e2c17a3d502bbb944c6e9f602200e177c6ec16936a7d57cc2a54b6e1f8f9e3b27850ae74289f9f989d1c71958390169522103f1dbbf1a5ce21a7521924880bfcee2f772feb322efe54eb093243dca0290e3302103930d33387bfdfd1d5d504e1ca43c5ffa711d6e9262162e9887a4489efb30df85210356eb7174a4a900b04538d9188d8a8f2b516b5e58596001ecd93e0539b7820c2953ae00000000", "vin": [{"txinwitness": ["", "3045022100e5e7962c98c9a986cfdbadbcfc2dd0923e61230e4e9b7ecd56ef157661d67f7d02205317d893062210d9c4c95ef67e23275b83f7d16604d939673de4cb8f137134ee01", "304402200c1f93c9fc20388cb887cd5d61c760848657335d1e2c17a3d502bbb944c6e9f602200e177c6ec16936a7d57cc2a54b6e1f8f9e3b27850ae74289f9f989d1c719583901", "522103f1dbbf1a5ce21a7521924880bfcee2f772feb322efe54eb093243dca0290e3302103930d33387bfdfd1d5d504e1ca43c5ffa711d6e9262162e9887a4489efb30df85210356eb7174a4a900b04538d9188d8a8f2b516b5e58596001ecd93e0539b7820c2953ae"], "sequence": 4294967295, "scriptSig": {"hex": "220020776205598d83b92f986d802dc2f86c929d937dddd552fb8b1ace86fdfd0c2fd8", "asm": "0020776205598d83b92f986d802dc2f86c929d937dddd552fb8b1ace86fdfd0c2fd8"}, "vout": 0, "txid": "c8e40d7e35a3fdbce05b819e1ba68cd3e210aad1739e0f6bce8c79f90b73a75b"}], "txid": "ce5c30f8c47350010a1960783215a996e9f4aadad845c356a6b0f06d406bba79", "blocktime": 1537871767, "version": 1, "confirmations": 11495, "time": 1537871767, "locktime": 0, "vsize": 216, "size": 407}