{"hash": "ce5f5d0900180dd76d0ff353a147c3ea30cc73fc6aa6971b0fd63b12e79c64f6", "blockhash": "0000000000000000001cda96e906b7601b7a6fb1a3b62bca570a9e5d8f4b3de1", "vout": [{"scriptPubKey": {"reqSigs": 1, "hex": "76a914d243e6abb9a60fbff430b421d2df4b7d59ec186088ac", "addresses": ["1LAnF8h3qMGx3TSwNUHVneBZUEpwE4gu3D"], "asm": "OP_DUP OP_HASH160 d243e6abb9a60fbff430b421d2df4b7d59ec1860 OP_EQUALVERIFY OP_CHECKSIG", "type": "pubkeyhash"}, "value": 0.00077314, "n": 0}, {"scriptPubKey": {"reqSigs": 1, "hex": "76a91442308233d35332004d4677cca47a8a6ebbb230be88ac", "addresses": ["172yi6fW8uK7jsftnoyoSah2yz8XPpM8Q9"], "asm": "OP_DUP OP_HASH160 42308233d35332004d4677cca47a8a6ebbb230be OP_EQUALVERIFY OP_CHECKSIG", "type": "pubkeyhash"}, "value": 5.46e-06, "n": 1}, {"scriptPubKey": {"type": "nulldata", "hex": "6a146f6d6e69000000000000001f00000021c2ac6a00", "asm": "OP_RETURN 6f6d6e69000000000000001f00000021c2ac6a00"}, "value": 0.0, "n": 2}], "hex": "01000000014bd8771062e259d94312a54d0505789f43540e46612d0388368200b503414bb3000000006b483045022100e022dd2d5c73c8c423cb6245088edf2a1ed94afa307bc0ce9fa8d464247ab25602200de2e201b544bf1c5bb14b1c3e1c20813b5f074ed85bd919e5533ddfa1e0356701210271977291b74f1f5f5c42157e8aae804664eaaeccfd097918450d37f28fb94d77ffffffff03022e0100000000001976a914d243e6abb9a60fbff430b421d2df4b7d59ec186088ac22020000000000001976a91442308233d35332004d4677cca47a8a6ebbb230be88ac0000000000000000166a146f6d6e69000000000000001f00000021c2ac6a0000000000", "vin": [{"sequence": 4294967295, "scriptSig": {"hex": "483045022100e022dd2d5c73c8c423cb6245088edf2a1ed94afa307bc0ce9fa8d464247ab25602200de2e201b544bf1c5bb14b1c3e1c20813b5f074ed85bd919e5533ddfa1e0356701210271977291b74f1f5f5c42157e8aae804664eaaeccfd097918450d37f28fb94d77", "asm": "3045022100e022dd2d5c73c8c423cb6245088edf2a1ed94afa307bc0ce9fa8d464247ab25602200de2e201b544bf1c5bb14b1c3e1c20813b5f074ed85bd919e5533ddfa1e03567[ALL] 0271977291b74f1f5f5c42157e8aae804664eaaeccfd097918450d37f28fb94d77"}, "vout": 0, "txid": "b34b4103b500823688032d61460e54439f7805054da51243d959e2621077d84b"}], "txid": "ce5f5d0900180dd76d0ff353a147c3ea30cc73fc6aa6971b0fd63b12e79c64f6", "blocktime": 1537873282, "version": 1, "confirmations": 11483, "time": 1537873282, "locktime": 0, "vsize": 257, "size": 257}