{"hash": "ce60dd19347557999cbe7d87d85836e1eb154ca86379fd402ea038cf2fca40e2", "blockhash": "0000000000000000001f76057863aec43deb6fa401d9628bb513d65a8098bfab", "vout": [{"scriptPubKey": {"reqSigs": 1, "hex": "a9140a39ef21590e285411036ba3f6ef532e337b4d0f87", "addresses": ["32d65o1XHTL6HSZZmdbsFXrFX9SHKuaK7k"], "asm": "OP_HASH160 0a39ef21590e285411036ba3f6ef532e337b4d0f OP_EQUAL", "type": "scripthash"}, "value": 1.92189111, "n": 0}, {"scriptPubKey": {"reqSigs": 1, "hex": "76a91423d0d57d9b17bbda19946fbdf9cf850b81e0f7cd88ac", "addresses": ["14GNpkZqCmYUBMTSajBkjU1LmWQBohqFAw"], "asm": "OP_DUP OP_HASH160 23d0d57d9b17bbda19946fbdf9cf850b81e0f7cd OP_EQUALVERIFY OP_CHECKSIG", "type": "pubkeyhash"}, "value": 0.025, "n": 1}], "hex": "02000000011c61e98bcc836cce12586b5d6e0f6df0be603544c0ca3bb6b6137f6f4b738b3201000000fdfd0000473044022062eb80bde193b54d59605acabc5384010a94a6b1168e534882920fcfc6759bf402206aefdef292a206f37e51f2dc02ede4744d751d9c8897fea87d2b1cf8af6172b2014830450221009bed7d79a4375df9ca95064c965e3e6f2f792a5f41bcac13714e5656ba31349b02206ee81f0035757d528c4ba26825616e08cae55a63de9b843b1ea951e8769b9eb4014c69522103156758c0c48e503f791050cfcc8048439c45b1d10514e39b9c5b589534602d712103d2bbaaba4bb9926f79395a6f32038455683980589c63575dbf435c516e8bccb821036d8e6e5c57783b84c8e64afffadf9101deb56fe09f10e95d1b285aa59701c30c53ae0000000002b792740b0000000017a9140a39ef21590e285411036ba3f6ef532e337b4d0f87a0252600000000001976a91423d0d57d9b17bbda19946fbdf9cf850b81e0f7cd88ac00000000", "vin": [{"sequence": 0, "scriptSig": {"hex": "00473044022062eb80bde193b54d59605acabc5384010a94a6b1168e534882920fcfc6759bf402206aefdef292a206f37e51f2dc02ede4744d751d9c8897fea87d2b1cf8af6172b2014830450221009bed7d79a4375df9ca95064c965e3e6f2f792a5f41bcac13714e5656ba31349b02206ee81f0035757d528c4ba26825616e08cae55a63de9b843b1ea951e8769b9eb4014c69522103156758c0c48e503f791050cfcc8048439c45b1d10514e39b9c5b589534602d712103d2bbaaba4bb9926f79395a6f32038455683980589c63575dbf435c516e8bccb821036d8e6e5c57783b84c8e64afffadf9101deb56fe09f10e95d1b285aa59701c30c53ae", "asm": "0 3044022062eb80bde193b54d59605acabc5384010a94a6b1168e534882920fcfc6759bf402206aefdef292a206f37e51f2dc02ede4744d751d9c8897fea87d2b1cf8af6172b2[ALL] 30450221009bed7d79a4375df9ca95064c965e3e6f2f792a5f41bcac13714e5656ba31349b02206ee81f0035757d528c4ba26825616e08cae55a63de9b843b1ea951e8769b9eb4[ALL] 522103156758c0c48e503f791050cfcc8048439c45b1d10514e39b9c5b589534602d712103d2bbaaba4bb9926f79395a6f32038455683980589c63575dbf435c516e8bccb821036d8e6e5c57783b84c8e64afffadf9101deb56fe09f10e95d1b285aa59701c30c53ae"}, "vout": 1, "txid": "328b734b6f7f13b6b63bcac0443560bef06d0f6e5d6b5812ce6c83cc8be9611c"}], "txid": "ce60dd19347557999cbe7d87d85836e1eb154ca86379fd402ea038cf2fca40e2", "blocktime": 1537873891, "version": 2, "confirmations": 11475, "time": 1537873891, "locktime": 0, "vsize": 372, "size": 372}