{"hash": "ce64a16abde0f2ceeccd9bf88290a0f07829ac983aaba38e3b3410127a09ea28", "blockhash": "0000000000000000000baef3f32e3676a92c3b2e5da21b426e4f302fc371ce76", "vout": [{"scriptPubKey": {"reqSigs": 1, "hex": "76a914842ac1106750e110dead3bb23083076ee302884188ac", "addresses": ["1D3qQw5u8LHNZAjC2Xmgg3n9LboSoPa6mN"], "asm": "OP_DUP OP_HASH160 842ac1106750e110dead3bb23083076ee3028841 OP_EQUALVERIFY OP_CHECKSIG", "type": "pubkeyhash"}, "value": 0.0063138, "n": 0}, {"scriptPubKey": {"type": "nulldata", "hex": "6a4c500000783200016bdc16db5ed6bde5cde210b227b7256b4774d339f6019d6ddc0f1b8ff117119dabc52cdcdc58877e3ad9ccbc02935baa1fa20614115bf03120041d100759d4ba30d2c37bb011d97e02cf", "asm": "OP_RETURN 0000783200016bdc16db5ed6bde5cde210b227b7256b4774d339f6019d6ddc0f1b8ff117119dabc52cdcdc58877e3ad9ccbc02935baa1fa20614115bf03120041d100759d4ba30d2c37bb011d97e02cf"}, "value": 0.0, "n": 1}], "hex": "01000000011a30fe5c759857a298715102fbec405e94dea770fe48f60658233eb0a4798b44010000006b483045022100d022731e3a5856351f6ec7c69bf4aadedfe3b8ac80bf94e992ed7a7c6702e5f002200c641422d0481eb96caa696e4bdaffcb2c607ba520a07b73130b8fd2f3ba833c01210295f7769801c5b8204dc142f08b1a3c45ea7d4c8cae5e0c5fe0e26b7d90e9d423ffffffff0254a20900000000001976a914842ac1106750e110dead3bb23083076ee302884188ac0000000000000000536a4c500000783200016bdc16db5ed6bde5cde210b227b7256b4774d339f6019d6ddc0f1b8ff117119dabc52cdcdc58877e3ad9ccbc02935baa1fa20614115bf03120041d100759d4ba30d2c37bb011d97e02cf00000000", "vin": [{"sequence": 4294967295, "scriptSig": {"hex": "483045022100d022731e3a5856351f6ec7c69bf4aadedfe3b8ac80bf94e992ed7a7c6702e5f002200c641422d0481eb96caa696e4bdaffcb2c607ba520a07b73130b8fd2f3ba833c01210295f7769801c5b8204dc142f08b1a3c45ea7d4c8cae5e0c5fe0e26b7d90e9d423", "asm": "3045022100d022731e3a5856351f6ec7c69bf4aadedfe3b8ac80bf94e992ed7a7c6702e5f002200c641422d0481eb96caa696e4bdaffcb2c607ba520a07b73130b8fd2f3ba833c[ALL] 0295f7769801c5b8204dc142f08b1a3c45ea7d4c8cae5e0c5fe0e26b7d90e9d423"}, "vout": 1, "txid": "448b79a4b03e235806f648fe70a7de945e40ecfb02517198a25798755cfe301a"}], "txid": "ce64a16abde0f2ceeccd9bf88290a0f07829ac983aaba38e3b3410127a09ea28", "blocktime": 1537876114, "version": 1, "confirmations": 11462, "time": 1537876114, "locktime": 0, "vsize": 284, "size": 284}