{"hash": "7a1c3b4581a390e0380d7be4c0dd184f805d33cdeaee42b6dc67637f27653acf", "blockhash": "0000000000000000001f0ddff1eddb255c1121bcd4da4f1bc9a0da00cae72433", "vout": [{"scriptPubKey": {"reqSigs": 1, "hex": "a9145237b73cf233467d603e285c39b9151f73ca2cba87", "addresses": ["39Bk5URgrR2npqHmG9CYwetWjvV7zgT57K"], "asm": "OP_HASH160 5237b73cf233467d603e285c39b9151f73ca2cba OP_EQUAL", "type": "scripthash"}, "value": 0.00646564, "n": 0}], "hex": "01000000000106b56e2c36836b71605825c9d780e0965bf6372f64d8e8bc39849ac2e83dd4ae2600000000171600147aebcd8171e29911691b74ef20568d6275fe476cfdffffff15072e91ac9f8f0dab89ea397c5d9e330732233c7d66a4875cf0db80c0fcf02c010000001716001469cfe577590c0734b684c1d857afed9df95dffedfdffffff4d99d8af74d3c8acbf3bead26d5052fc7cb0e3b55a1cb4cc97bf80a2ebcf83410100000017160014cc72828751eb48e35d3f6e9951e66d97affab57dfdffffffc481832f2b024723b99938cc8eecd16ae5f13be5cb4462242c9b69e0daebd1620000000017160014f51bf75982c5993f2ecc71d382911f9c4f2dd821fdffffffae44e65a7af1008682742183472759aad1ade107900c399ce0fd7e540848247d00000000171600142a1fd67d4fe6841ffb481939ff184bd1867fb16cfdffffff239c20360232e7c1266cc5968f91e7a147ee75ace3a4efb1e7b3b59038dd47f201000000171600145a0df99bcc1694c0f9711b04d867279d6c31fabefdffffff01a4dd09000000000017a9145237b73cf233467d603e285c39b9151f73ca2cba8702473044022051892fb2a813471cfe3dab66e4a2d260742ff0a8e37595a94e342dccfeab579b02204dcc3efc3af3213eb71d4113634cc5679bbaeb738702ef5da21d03c5ffb7a5380121024799b498d845d5493246ea398d9bb384a6a90cf6a6a394eb895feaf30a0374a902483045022100ae525405380dcf15690e4721e858e096621849e718e2f321deb52773985f28e90220283aa91793363b38733abdd6a3f9fd9a512c66fef067858bb11feba569a9df8c012102bca3d58b2461ac3c2bb7ba089ff53f21c4f778312b2df0c0557eab38dd1177ee0247304402206d0d9b62181df3bc340f2695b1513c12f36694dc000c0846ad7e1b9ac11b139902207507942b5d254614b960bd41d7e7a5637a3e90accc8258d0f4d02c80e33e7952012102293618c5a1b7fd9d9b30ae3a82a3f79109f70d4a7f90ab133f40abba3c296bdc024730440220721561722aa52e77d5e39e06e89cfe63d5c54fcc7ffda82b35cc71b31edc1b7602206680b0f37c2f03ffb7b954b81567f21667e7a50ee5bbddabb619fabe50a0030e012102587275f7de18525a5887d074aa9000abb3a3a010cf0946e5898e75b3dcacc31202473044022078562babac90f02629215cef9d0b4e3786a71d5a88ba95cd2bba153292959ed102200eedc31accf16274bd10420348700362a8c377758764a90ec25dc03d4b667230012103c7a4bd9c9cc61b66d8e21b647a55c8ac8349fdba1640dae44dc08bc09c7f48a202483045022100aa861973f66d5c143773460fed895bb265f5bde1dd79aa25148a50ca086cf2b8022039700424893b22d23504b66cf78113990af0733df5068d311993d581576981cd0121031d779fe0e069abcc5def77d71cef7eab5d1084b9af1177bcaa9e278ca44c59b711490800", "vin": [{"txinwitness": ["3044022051892fb2a813471cfe3dab66e4a2d260742ff0a8e37595a94e342dccfeab579b02204dcc3efc3af3213eb71d4113634cc5679bbaeb738702ef5da21d03c5ffb7a53801", "024799b498d845d5493246ea398d9bb384a6a90cf6a6a394eb895feaf30a0374a9"], "sequence": 4294967293, "scriptSig": {"hex": "1600147aebcd8171e29911691b74ef20568d6275fe476c", "asm": "00147aebcd8171e29911691b74ef20568d6275fe476c"}, "vout": 0, "txid": "26aed43de8c29a8439bce8d8642f37f65b96e080d7c9255860716b83362c6eb5"}, {"txinwitness": ["3045022100ae525405380dcf15690e4721e858e096621849e718e2f321deb52773985f28e90220283aa91793363b38733abdd6a3f9fd9a512c66fef067858bb11feba569a9df8c01", "02bca3d58b2461ac3c2bb7ba089ff53f21c4f778312b2df0c0557eab38dd1177ee"], "sequence": 4294967293, "scriptSig": {"hex": "16001469cfe577590c0734b684c1d857afed9df95dffed", "asm": "001469cfe577590c0734b684c1d857afed9df95dffed"}, "vout": 1, "txid": "2cf0fcc080dbf05c87a4667d3c233207339e5d7c39ea89ab0d8f9fac912e0715"}, {"txinwitness": ["304402206d0d9b62181df3bc340f2695b1513c12f36694dc000c0846ad7e1b9ac11b139902207507942b5d254614b960bd41d7e7a5637a3e90accc8258d0f4d02c80e33e795201", "02293618c5a1b7fd9d9b30ae3a82a3f79109f70d4a7f90ab133f40abba3c296bdc"], "sequence": 4294967293, "scriptSig": {"hex": "160014cc72828751eb48e35d3f6e9951e66d97affab57d", "asm": "0014cc72828751eb48e35d3f6e9951e66d97affab57d"}, "vout": 1, "txid": "4183cfeba280bf97ccb41c5ab5e3b07cfc52506dd2ea3bbfacc8d374afd8994d"}, {"txinwitness": ["30440220721561722aa52e77d5e39e06e89cfe63d5c54fcc7ffda82b35cc71b31edc1b7602206680b0f37c2f03ffb7b954b81567f21667e7a50ee5bbddabb619fabe50a0030e01", "02587275f7de18525a5887d074aa9000abb3a3a010cf0946e5898e75b3dcacc312"], "sequence": 4294967293, "scriptSig": {"hex": "160014f51bf75982c5993f2ecc71d382911f9c4f2dd821", "asm": "0014f51bf75982c5993f2ecc71d382911f9c4f2dd821"}, "vout": 0, "txid": "62d1ebdae0699b2c246244cbe53bf1e56ad1ec8ecc3899b92347022b2f8381c4"}, {"txinwitness": ["3044022078562babac90f02629215cef9d0b4e3786a71d5a88ba95cd2bba153292959ed102200eedc31accf16274bd10420348700362a8c377758764a90ec25dc03d4b66723001", "03c7a4bd9c9cc61b66d8e21b647a55c8ac8349fdba1640dae44dc08bc09c7f48a2"], "sequence": 4294967293, "scriptSig": {"hex": "1600142a1fd67d4fe6841ffb481939ff184bd1867fb16c", "asm": "00142a1fd67d4fe6841ffb481939ff184bd1867fb16c"}, "vout": 0, "txid": "7d244808547efde09c390c9007e1add1aa592747832174828600f17a5ae644ae"}, {"txinwitness": ["3045022100aa861973f66d5c143773460fed895bb265f5bde1dd79aa25148a50ca086cf2b8022039700424893b22d23504b66cf78113990af0733df5068d311993d581576981cd01", "031d779fe0e069abcc5def77d71cef7eab5d1084b9af1177bcaa9e278ca44c59b7"], "sequence": 4294967293, "scriptSig": {"hex": "1600145a0df99bcc1694c0f9711b04d867279d6c31fabe", "asm": "00145a0df99bcc1694c0f9711b04d867279d6c31fabe"}, "vout": 1, "txid": "f247dd3890b5b3e7b1efa4e3ac75ee47a1e7918f96c56c26c1e7320236209c23"}], "txid": "ce69fe97e34364427d3380176e51f2693e671be7adb298d3a30db152620b09aa", "blocktime": 1537872018, "version": 1, "confirmations": 11489, "time": 1537872018, "locktime": 542993, "vsize": 588, "size": 1072}