{"hash": "ce6d3998595abe1c49ad7bda8171e9ebf092333c42ec03797188070b5fbccd3a", "blockhash": "0000000000000000001cda96e906b7601b7a6fb1a3b62bca570a9e5d8f4b3de1", "vout": [{"scriptPubKey": {"reqSigs": 1, "hex": "a91452e039d5de23338f7f15332aa139c4b44c34fbc987", "addresses": ["39FDwmFuoXmFBqdfwdQa6MPi1by6Mv8C58"], "asm": "OP_HASH160 52e039d5de23338f7f15332aa139c4b44c34fbc9 OP_EQUAL", "type": "scripthash"}, "value": 0.00285153, "n": 0}, {"scriptPubKey": {"reqSigs": 1, "hex": "76a914b291fd120f45327f87052f5ca7600de19441197d88ac", "addresses": ["1HHCAcJEAsGqhqcWTmjBA6k1ft1jvw4fFx"], "asm": "OP_DUP OP_HASH160 b291fd120f45327f87052f5ca7600de19441197d OP_EQUALVERIFY OP_CHECKSIG", "type": "pubkeyhash"}, "value": 0.06355036, "n": 1}], "hex": "010000000199e90ee5fff63049d06566bb5d4b285a814d5ef69e31a18d6ef9e56a09f85f7e010000006a47304402202f90034c5eef51d8ddd063436647198110cb8907a95f170eca3d9cea839578420220281e694d13a849b3a8e559a0a766673db2038bdd114346dfae9177b9110156e9012102e673d4146afab1455670e8a43daceb1f2a1dfeba50bc63e15da0bdb463bdf61bffffffff02e15904000000000017a91452e039d5de23338f7f15332aa139c4b44c34fbc9875cf86000000000001976a914b291fd120f45327f87052f5ca7600de19441197d88ac00000000", "vin": [{"sequence": 4294967295, "scriptSig": {"hex": "47304402202f90034c5eef51d8ddd063436647198110cb8907a95f170eca3d9cea839578420220281e694d13a849b3a8e559a0a766673db2038bdd114346dfae9177b9110156e9012102e673d4146afab1455670e8a43daceb1f2a1dfeba50bc63e15da0bdb463bdf61b", "asm": "304402202f90034c5eef51d8ddd063436647198110cb8907a95f170eca3d9cea839578420220281e694d13a849b3a8e559a0a766673db2038bdd114346dfae9177b9110156e9[ALL] 02e673d4146afab1455670e8a43daceb1f2a1dfeba50bc63e15da0bdb463bdf61b"}, "vout": 1, "txid": "7e5ff8096ae5f96e8da1319ef65e4d815a284b5dbb6665d04930f6ffe50ee999"}], "txid": "ce6d3998595abe1c49ad7bda8171e9ebf092333c42ec03797188070b5fbccd3a", "blocktime": 1537873282, "version": 1, "confirmations": 11484, "time": 1537873282, "locktime": 0, "vsize": 223, "size": 223}