{"hash": "ce6eb984eeb3996eecf77c8a7ffa761ad8e7c702748a6c714a574a4cee286e71", "blockhash": "0000000000000000001cda96e906b7601b7a6fb1a3b62bca570a9e5d8f4b3de1", "vout": [{"scriptPubKey": {"reqSigs": 1, "hex": "76a914938c227f9115248ac0d76e05aaf6bba1e7b95ad088ac", "addresses": ["1ETACw72EJkLdda5NP7VkZHHUEHEcrfomG"], "asm": "OP_DUP OP_HASH160 938c227f9115248ac0d76e05aaf6bba1e7b95ad0 OP_EQUALVERIFY OP_CHECKSIG", "type": "pubkeyhash"}, "value": 0.015624, "n": 0}, {"scriptPubKey": {"reqSigs": 1, "hex": "76a91455e8535aa98a350f1703e819ab86056d895ccd1788ac", "addresses": ["18qEka9F4pCyUhpANPhNfRS3m8i2AcKXu5"], "asm": "OP_DUP OP_HASH160 55e8535aa98a350f1703e819ab86056d895ccd17 OP_EQUALVERIFY OP_CHECKSIG", "type": "pubkeyhash"}, "value": 0.01886941, "n": 1}], "hex": "010000000119c59dae8477b162daa96b3685bbee1c99381ea69c57b949a93f8c89b97ba394010000006a473044022001e9cdd5adeb93636b0f045b06f9245b42d091f644af36a27f6b1f23ca0722b4022008082689222793f17b765668fca6974a05a95a94562c674e8e7f9ebd92f2443701210332dac4e139467796eaeaa59c80f85791aafd23f88c19dd51758194085d15b933ffffffff0220d71700000000001976a914938c227f9115248ac0d76e05aaf6bba1e7b95ad088acddca1c00000000001976a91455e8535aa98a350f1703e819ab86056d895ccd1788ac00000000", "vin": [{"sequence": 4294967295, "scriptSig": {"hex": "473044022001e9cdd5adeb93636b0f045b06f9245b42d091f644af36a27f6b1f23ca0722b4022008082689222793f17b765668fca6974a05a95a94562c674e8e7f9ebd92f2443701210332dac4e139467796eaeaa59c80f85791aafd23f88c19dd51758194085d15b933", "asm": "3044022001e9cdd5adeb93636b0f045b06f9245b42d091f644af36a27f6b1f23ca0722b4022008082689222793f17b765668fca6974a05a95a94562c674e8e7f9ebd92f24437[ALL] 0332dac4e139467796eaeaa59c80f85791aafd23f88c19dd51758194085d15b933"}, "vout": 1, "txid": "94a37bb9898c3fa949b9579ca61e38991ceebb85366ba9da62b17784ae9dc519"}], "txid": "ce6eb984eeb3996eecf77c8a7ffa761ad8e7c702748a6c714a574a4cee286e71", "blocktime": 1537873282, "version": 1, "confirmations": 11484, "time": 1537873282, "locktime": 0, "vsize": 225, "size": 225}