{"hash": "ce6fadda00a2af3a61f97e7586f5e43599689e311a99db7c0284c9698891fe79", "blockhash": "00000000000000000024a2167bbff67b0be802c0b01cdd79e6331c2be6459f87", "vout": [{"scriptPubKey": {"reqSigs": 1, "hex": "76a91491f16845fd205c5c81bf78712cce836ab8c9ee9288ac", "addresses": ["1EJgB6DUreoMB9Y41BWmkqVfHiz3pr8Bwa"], "asm": "OP_DUP OP_HASH160 91f16845fd205c5c81bf78712cce836ab8c9ee92 OP_EQUALVERIFY OP_CHECKSIG", "type": "pubkeyhash"}, "value": 0.3, "n": 0}, {"scriptPubKey": {"reqSigs": 1, "hex": "76a9145b740541f4f2958900149e6fc754795854c04ba388ac", "addresses": ["19LZUht7TE4E7rVKjgh7TeNoToEcuKvfBS"], "asm": "OP_DUP OP_HASH160 5b740541f4f2958900149e6fc754795854c04ba3 OP_EQUALVERIFY OP_CHECKSIG", "type": "pubkeyhash"}, "value": 0.01998446, "n": 1}], "hex": "0200000001138987869ea53f9a5aff2ee1f0f1ca882d53c584d034734b9d682a79cfe446e2000000006b483045022100c737a39bda2fcc6834b76719119422581b810bba31561dcfa40205f2ea7f27b602201143cc848e503ee3218fef93077afe52001557bfc9af6be34ef377193297409401210269abd2ae672278b7e8abc6d56e414e2f7e7aa759074e5f27506467ec5c6d0f9effffffff0280c3c901000000001976a91491f16845fd205c5c81bf78712cce836ab8c9ee9288ac6e7e1e00000000001976a9145b740541f4f2958900149e6fc754795854c04ba388ac00000000", "vin": [{"sequence": 4294967295, "scriptSig": {"hex": "483045022100c737a39bda2fcc6834b76719119422581b810bba31561dcfa40205f2ea7f27b602201143cc848e503ee3218fef93077afe52001557bfc9af6be34ef377193297409401210269abd2ae672278b7e8abc6d56e414e2f7e7aa759074e5f27506467ec5c6d0f9e", "asm": "3045022100c737a39bda2fcc6834b76719119422581b810bba31561dcfa40205f2ea7f27b602201143cc848e503ee3218fef93077afe52001557bfc9af6be34ef3771932974094[ALL] 0269abd2ae672278b7e8abc6d56e414e2f7e7aa759074e5f27506467ec5c6d0f9e"}, "vout": 0, "txid": "e246e4cf792a689d4b7334d084c5532d88caf1f0e12eff5a9a3fa59e86878913"}], "txid": "ce6fadda00a2af3a61f97e7586f5e43599689e311a99db7c0284c9698891fe79", "blocktime": 1537870564, "version": 2, "confirmations": 11515, "time": 1537870564, "locktime": 0, "vsize": 226, "size": 226}