{"hash": "ce8613e71dc6c73e4cbeb772020e521bf47d5ec22b55389134097744b107edfc", "blockhash": "0000000000000000000e13cef7c366c0283d82e591d1acd082e914b08063cdf1", "vout": [{"scriptPubKey": {"reqSigs": 1, "hex": "76a914085077393951fb8e423841b7a21aaa2c2508c1a788ac", "addresses": ["1kxoPfDE3qffi4qyWa94hA4QTsPC28Wnn"], "asm": "OP_DUP OP_HASH160 085077393951fb8e423841b7a21aaa2c2508c1a7 OP_EQUALVERIFY OP_CHECKSIG", "type": "pubkeyhash"}, "value": 0.00123864, "n": 0}, {"scriptPubKey": {"type": "nulldata", "hex": "6a4c500000779c000114a898f23fe1bc665f662dbfe3ef3236678a625097bcbefa6b8351586b4eba21a813ee8def98f42073a9709d8c795baa0d99061567b421566cf6bc9a9526289ac0f6612cd74e33776ee4", "asm": "OP_RETURN 0000779c000114a898f23fe1bc665f662dbfe3ef3236678a625097bcbefa6b8351586b4eba21a813ee8def98f42073a9709d8c795baa0d99061567b421566cf6bc9a9526289ac0f6612cd74e33776ee4"}, "value": 0.0, "n": 1}], "hex": "01000000012d5caf0379897e14f10a0c8f63ff165ecd72927f7637c4e3ff0c1e0af881873b010000006a473044022014873f66d4e2f36d77d24cb5da710fe868e292fe3400d7af8920ae9dca9d5eca02206089eff2fc67f148c7595ab8bbfada638aab42fbb9040c5f1f0380b91e9795b70121026374d4dcecf36f4a4fd86561d069285bf4f587be701cdf86ba97353d621289ccffffffff02d8e30100000000001976a914085077393951fb8e423841b7a21aaa2c2508c1a788ac0000000000000000536a4c500000779c000114a898f23fe1bc665f662dbfe3ef3236678a625097bcbefa6b8351586b4eba21a813ee8def98f42073a9709d8c795baa0d99061567b421566cf6bc9a9526289ac0f6612cd74e33776ee400000000", "vin": [{"sequence": 4294967295, "scriptSig": {"hex": "473044022014873f66d4e2f36d77d24cb5da710fe868e292fe3400d7af8920ae9dca9d5eca02206089eff2fc67f148c7595ab8bbfada638aab42fbb9040c5f1f0380b91e9795b70121026374d4dcecf36f4a4fd86561d069285bf4f587be701cdf86ba97353d621289cc", "asm": "3044022014873f66d4e2f36d77d24cb5da710fe868e292fe3400d7af8920ae9dca9d5eca02206089eff2fc67f148c7595ab8bbfada638aab42fbb9040c5f1f0380b91e9795b7[ALL] 026374d4dcecf36f4a4fd86561d069285bf4f587be701cdf86ba97353d621289cc"}, "vout": 1, "txid": "3b8781f80a1e0cffe3c437767f9272cd5e16ff638f0c0af1147e897903af5c2d"}], "txid": "ce8613e71dc6c73e4cbeb772020e521bf47d5ec22b55389134097744b107edfc", "blocktime": 1537871767, "version": 1, "confirmations": 11493, "time": 1537871767, "locktime": 0, "vsize": 283, "size": 283}