{"hash": "ce8bd9e3f1ec2252f8f77b85aa42bae89fee95e417ea1de147bcb6b867bfd0a8", "blockhash": "0000000000000000000e13cef7c366c0283d82e591d1acd082e914b08063cdf1", "vout": [{"scriptPubKey": {"reqSigs": 1, "hex": "76a914fd9cba3bf508db5772fe169d54e2abe8ece26d4088ac", "addresses": ["1Q7yi9egRRxV6WxnRdj3rEspiunhfA1S16"], "asm": "OP_DUP OP_HASH160 fd9cba3bf508db5772fe169d54e2abe8ece26d40 OP_EQUALVERIFY OP_CHECKSIG", "type": "pubkeyhash"}, "value": 0.00013776, "n": 0}, {"scriptPubKey": {"reqSigs": 1, "hex": "76a9146913e8dd325a1935d43a2870d1a9a0741eee52d588ac", "addresses": ["1AaboVFxP9jMk6UDauMCRq1yQS1kFbqa3N"], "asm": "OP_DUP OP_HASH160 6913e8dd325a1935d43a2870d1a9a0741eee52d5 OP_EQUALVERIFY OP_CHECKSIG", "type": "pubkeyhash"}, "value": 0.07029383, "n": 1}], "hex": "010000000225ed6a54005f767780b82d86d1890c8a70c57d1f055f200c07d5f55f30c00f15000000006b483045022100b450e8a3e9789945d4e4c531194f1fa97029347867a59f402600893fab92d0e302206088669db2c0754c3fda19e9143b5c39cf81309fb0119ee33139913d9bc2c7ae0121026ddc09ae13df13c8be0d6949dd1d0cb2a5799556b5147a46a19daf086a67d652ffffffff3fa54e1cf641cc0e9e7e163a1da37ee653ba8d1f7dbd2ccad16a4e1fc345eb50000000006b483045022100a0c9262546c4558d5eb93790d72f9b169471689bfc4950c2119a361d3f6775d402203e1a2e29312c1d9a8d9dd980e3f29af2a671d3315a52e1b527561fb0989770260121022457147c3662389b8e1336f0f3f314e37d1732718bba4d095310b216b0439769ffffffff02d0350000000000001976a914fd9cba3bf508db5772fe169d54e2abe8ece26d4088ac87426b00000000001976a9146913e8dd325a1935d43a2870d1a9a0741eee52d588ac00000000", "vin": [{"sequence": 4294967295, "scriptSig": {"hex": "483045022100b450e8a3e9789945d4e4c531194f1fa97029347867a59f402600893fab92d0e302206088669db2c0754c3fda19e9143b5c39cf81309fb0119ee33139913d9bc2c7ae0121026ddc09ae13df13c8be0d6949dd1d0cb2a5799556b5147a46a19daf086a67d652", "asm": "3045022100b450e8a3e9789945d4e4c531194f1fa97029347867a59f402600893fab92d0e302206088669db2c0754c3fda19e9143b5c39cf81309fb0119ee33139913d9bc2c7ae[ALL] 026ddc09ae13df13c8be0d6949dd1d0cb2a5799556b5147a46a19daf086a67d652"}, "vout": 0, "txid": "150fc0305ff5d5070c205f051f7dc5708a0c89d1862db88077765f00546aed25"}, {"sequence": 4294967295, "scriptSig": {"hex": "483045022100a0c9262546c4558d5eb93790d72f9b169471689bfc4950c2119a361d3f6775d402203e1a2e29312c1d9a8d9dd980e3f29af2a671d3315a52e1b527561fb0989770260121022457147c3662389b8e1336f0f3f314e37d1732718bba4d095310b216b0439769", "asm": "3045022100a0c9262546c4558d5eb93790d72f9b169471689bfc4950c2119a361d3f6775d402203e1a2e29312c1d9a8d9dd980e3f29af2a671d3315a52e1b527561fb098977026[ALL] 022457147c3662389b8e1336f0f3f314e37d1732718bba4d095310b216b0439769"}, "vout": 0, "txid": "50eb45c31f4e6ad1ca2cbd7d1f8dba53e67ea31d3a167e9e0ecc41f61c4ea53f"}], "txid": "ce8bd9e3f1ec2252f8f77b85aa42bae89fee95e417ea1de147bcb6b867bfd0a8", "blocktime": 1537871767, "version": 1, "confirmations": 11495, "time": 1537871767, "locktime": 0, "vsize": 374, "size": 374}