{"hash": "fb036dd9d41e41ed80898d4a1dc5070155dc97457671e5cd6ea503b468f207ed", "blockhash": "00000000000000000024a2167bbff67b0be802c0b01cdd79e6331c2be6459f87", "vout": [{"scriptPubKey": {"reqSigs": 1, "hex": "76a914ebd8c89c40da45ff8227da39919268e80591507388ac", "addresses": ["1NW3VUKqYgBYnpiQZcPgr2dH2Z3yuBBNvg"], "asm": "OP_DUP OP_HASH160 ebd8c89c40da45ff8227da39919268e805915073 OP_EQUALVERIFY OP_CHECKSIG", "type": "pubkeyhash"}, "value": 0.00766046, "n": 0}, {"scriptPubKey": {"reqSigs": 1, "hex": "76a9142ea7e96ac7e2b584929bad8e911f5d24a253314288ac", "addresses": ["15FhEYJCDagzYELbKhZT2ihQMzuhALRaVz"], "asm": "OP_DUP OP_HASH160 2ea7e96ac7e2b584929bad8e911f5d24a2533142 OP_EQUALVERIFY OP_CHECKSIG", "type": "pubkeyhash"}, "value": 0.01582385, "n": 1}, {"scriptPubKey": {"reqSigs": 1, "hex": "a9141bc1eeba15e98432521cae05a899d7e2f42b519087", "addresses": ["34DnVPeqP2Z4NtjFizLAykV66M8E7b7YfC"], "asm": "OP_HASH160 1bc1eeba15e98432521cae05a899d7e2f42b5190 OP_EQUAL", "type": "scripthash"}, "value": 0.11476323, "n": 2}, {"scriptPubKey": {"reqSigs": 1, "hex": "a914c2aa29a4378e484739c3301acfa1882e1f34797f87", "addresses": ["3KSJrsHpH92UfvwjA3D3vdhoyedCuSzwoj"], "asm": "OP_HASH160 c2aa29a4378e484739c3301acfa1882e1f34797f OP_EQUAL", "type": "scripthash"}, "value": 0.00766462, "n": 3}, {"scriptPubKey": {"reqSigs": 1, "hex": "76a914d275157561e9f95d32a08236fd8ea0df22de073588ac", "addresses": ["1LBoAQqYyonFxcw7N5bVbEzsgZCLKc5pHY"], "asm": "OP_DUP OP_HASH160 d275157561e9f95d32a08236fd8ea0df22de0735 OP_EQUALVERIFY OP_CHECKSIG", "type": "pubkeyhash"}, "value": 0.01583929, "n": 4}, {"scriptPubKey": {"reqSigs": 1, "hex": "76a9144e577095e67b12267ef8ba5085596cb5bdc6c91388ac", "addresses": ["189ETPNWNjSeHqS9WFYaAekcLpxLKQtDWv"], "asm": "OP_DUP OP_HASH160 4e577095e67b12267ef8ba5085596cb5bdc6c913 OP_EQUALVERIFY OP_CHECKSIG", "type": "pubkeyhash"}, "value": 0.08934475, "n": 5}], "hex": "0100000000010129789027d2b154a1c755157593e0e91c10ab2fcecf1c4299c6163ed7cacb33950600000023220020a66caa4eebf41e2bfbf2cc83526e6fa13b477f175677f943dccef5b40d92e260ffffffff065eb00b00000000001976a914ebd8c89c40da45ff8227da39919268e80591507388ac31251800000000001976a9142ea7e96ac7e2b584929bad8e911f5d24a253314288ac631daf000000000017a9141bc1eeba15e98432521cae05a899d7e2f42b519087feb10b000000000017a914c2aa29a4378e484739c3301acfa1882e1f34797f87392b1800000000001976a914d275157561e9f95d32a08236fd8ea0df22de073588ac4b548800000000001976a9144e577095e67b12267ef8ba5085596cb5bdc6c91388ac0400473044022008fbcaac5a3c06bfa394450fea0fc6c6c01872a4fe83c08848aecb43f1aeddb1022017382f83690f207d0c6b70ffee7844219f1f6932768af430330cce820f322a4e01473044022019a3144f73224ad6354b5a3c6bf5d58fd5fd7e2617b890fea0ebd67d5e110aed022022ba2d26baabfac8efda76124af132236a047664f6afc26067b4b51265b8a2c70169522102aa7d9bdedc63f68a612d94857acca5d7c8cb4678ba1d7d5827caf126b2701e37210262cae067ce507cff5d8bf66b4cf03a4b1d4c55bbe4e9149eca96556d532fe0e421020efb0f16f81c85633faea11583a236c33562034f6eac7aa200cfebb9beff2d5253ae00000000", "vin": [{"txinwitness": ["", "3044022008fbcaac5a3c06bfa394450fea0fc6c6c01872a4fe83c08848aecb43f1aeddb1022017382f83690f207d0c6b70ffee7844219f1f6932768af430330cce820f322a4e01", "3044022019a3144f73224ad6354b5a3c6bf5d58fd5fd7e2617b890fea0ebd67d5e110aed022022ba2d26baabfac8efda76124af132236a047664f6afc26067b4b51265b8a2c701", "522102aa7d9bdedc63f68a612d94857acca5d7c8cb4678ba1d7d5827caf126b2701e37210262cae067ce507cff5d8bf66b4cf03a4b1d4c55bbe4e9149eca96556d532fe0e421020efb0f16f81c85633faea11583a236c33562034f6eac7aa200cfebb9beff2d5253ae"], "sequence": 4294967295, "scriptSig": {"hex": "220020a66caa4eebf41e2bfbf2cc83526e6fa13b477f175677f943dccef5b40d92e260", "asm": "0020a66caa4eebf41e2bfbf2cc83526e6fa13b477f175677f943dccef5b40d92e260"}, "vout": 6, "txid": "9533cbcad73e16c699421ccfce2fab101ce9e093751555c7a154b1d227907829"}], "txid": "ce8e5241129dc9d5cb321ec5d47d5889a23bbb34c24fbf1cc519792941691921", "blocktime": 1537870564, "version": 1, "confirmations": 11515, "time": 1537870564, "locktime": 0, "vsize": 350, "size": 540}