{"hash": "ce91a019d8147f173410542d02ef90a776e7db9fb2cb71d9fa445614d926b5a1", "blockhash": "00000000000000000018f53835495a110e01622372bf6ae95dc86f2b0ab887b0", "vout": [{"scriptPubKey": {"type": "nulldata", "hex": "6a4c50000077840001d3d0aafa0ea7566c4a949c34bcbefa6b8351586b4e86aeaeacb577c031fcf933b6180d67f2de332cb3be5bc9774c5baa0b3b0613b2bb4892ffeb1d100759d4ba30d2c37bb011d97e02cf", "asm": "OP_RETURN 000077840001d3d0aafa0ea7566c4a949c34bcbefa6b8351586b4e86aeaeacb577c031fcf933b6180d67f2de332cb3be5bc9774c5baa0b3b0613b2bb4892ffeb1d100759d4ba30d2c37bb011d97e02cf"}, "value": 0.0, "n": 0}, {"scriptPubKey": {"reqSigs": 1, "hex": "76a9148fb23fe14724ac6a6cf9dedc8237f8c54a25942688ac", "addresses": ["1E6oARj5kP4GC7zY9crhn7u2ub1JQf1YbZ"], "asm": "OP_DUP OP_HASH160 8fb23fe14724ac6a6cf9dedc8237f8c54a259426 OP_EQUALVERIFY OP_CHECKSIG", "type": "pubkeyhash"}, "value": 0.00645341, "n": 1}], "hex": "01000000011cfdecebb745a514bebddd7b46205dfaa52e0a1f7c0fdf4ad6962883ee9e2ad3010000006b483045022100ab7768acf717bc109929ecb50c4ddcc2b140651519763bd68456a8f65888e0790220766dfeb70e3bbfa7d14a025a94730ae28d9a87e3d3dedb22d7f4b6634e36c834012102ba5c6e745308ae0666ca6b26e4259bb3bd58ae97292e15a0f383a1c63fe9451bffffffff020000000000000000536a4c50000077840001d3d0aafa0ea7566c4a949c34bcbefa6b8351586b4e86aeaeacb577c031fcf933b6180d67f2de332cb3be5bc9774c5baa0b3b0613b2bb4892ffeb1d100759d4ba30d2c37bb011d97e02cfddd80900000000001976a9148fb23fe14724ac6a6cf9dedc8237f8c54a25942688ac00000000", "vin": [{"sequence": 4294967295, "scriptSig": {"hex": "483045022100ab7768acf717bc109929ecb50c4ddcc2b140651519763bd68456a8f65888e0790220766dfeb70e3bbfa7d14a025a94730ae28d9a87e3d3dedb22d7f4b6634e36c834012102ba5c6e745308ae0666ca6b26e4259bb3bd58ae97292e15a0f383a1c63fe9451b", "asm": "3045022100ab7768acf717bc109929ecb50c4ddcc2b140651519763bd68456a8f65888e0790220766dfeb70e3bbfa7d14a025a94730ae28d9a87e3d3dedb22d7f4b6634e36c834[ALL] 02ba5c6e745308ae0666ca6b26e4259bb3bd58ae97292e15a0f383a1c63fe9451b"}, "vout": 1, "txid": "d32a9eee832896d64adf0f7c1f0a2ea5fa5d20467bddbdbe14a545b7ebecfd1c"}], "txid": "ce91a019d8147f173410542d02ef90a776e7db9fb2cb71d9fa445614d926b5a1", "blocktime": 1537870928, "version": 1, "confirmations": 11513, "time": 1537870928, "locktime": 0, "vsize": 284, "size": 284}