{"hash": "ce916efc65e37361b3b65895795f167c9236ab0e052eb3e59a59ef59733f2171", "blockhash": "0000000000000000000e13cef7c366c0283d82e591d1acd082e914b08063cdf1", "vout": [{"scriptPubKey": {"reqSigs": 1, "hex": "76a914c22993ab54dedfaa7a3b72ed8dc2b510b2fb676088ac", "addresses": ["1Jhdu2Q6Wz6yEbFYHCsSdP1X5jHwVsCmLb"], "asm": "OP_DUP OP_HASH160 c22993ab54dedfaa7a3b72ed8dc2b510b2fb6760 OP_EQUALVERIFY OP_CHECKSIG", "type": "pubkeyhash"}, "value": 0.0095, "n": 0}, {"scriptPubKey": {"reqSigs": 1, "hex": "76a9148346f231bd5bc2d16927b9cc0762b4a420e9671a88ac", "addresses": ["1Cy8WYrg5feBuL5jeddNFBq7xuEAXYjL8V"], "asm": "OP_DUP OP_HASH160 8346f231bd5bc2d16927b9cc0762b4a420e9671a OP_EQUALVERIFY OP_CHECKSIG", "type": "pubkeyhash"}, "value": 0.30078398, "n": 1}], "hex": "010000000168ae95209b20ad082b9997c82b6728d30d691d1d37eb03aedbaa4480401ca83d010000006a47304402201938ba93825776d0fbe65788bf47565b4240a314fdd4d60a75dddfc516e49ee50220367327256d0056ed41696123b7506a86580ad9cb85eaa3dba2247bc32c4664f001210323c6e592c4de96a96e8a16d1122bb5a38a2fd87c2279c169164f5b478829de44ffffffff02f07e0e00000000001976a914c22993ab54dedfaa7a3b72ed8dc2b510b2fb676088acbef5ca01000000001976a9148346f231bd5bc2d16927b9cc0762b4a420e9671a88ac00000000", "vin": [{"sequence": 4294967295, "scriptSig": {"hex": "47304402201938ba93825776d0fbe65788bf47565b4240a314fdd4d60a75dddfc516e49ee50220367327256d0056ed41696123b7506a86580ad9cb85eaa3dba2247bc32c4664f001210323c6e592c4de96a96e8a16d1122bb5a38a2fd87c2279c169164f5b478829de44", "asm": "304402201938ba93825776d0fbe65788bf47565b4240a314fdd4d60a75dddfc516e49ee50220367327256d0056ed41696123b7506a86580ad9cb85eaa3dba2247bc32c4664f0[ALL] 0323c6e592c4de96a96e8a16d1122bb5a38a2fd87c2279c169164f5b478829de44"}, "vout": 1, "txid": "3da81c408044aadbae03eb371d1d690dd328672bc897992b08ad209b2095ae68"}], "txid": "ce916efc65e37361b3b65895795f167c9236ab0e052eb3e59a59ef59733f2171", "blocktime": 1537871767, "version": 1, "confirmations": 11495, "time": 1537871767, "locktime": 0, "vsize": 225, "size": 225}