{"hash": "ce94647b9dc41020d3e915b34feb2297e5e00528054acf069908da0c047812c4", "blockhash": "0000000000000000000dcc0f55137456b1a82d3642486a52398922ac4d620174", "vout": [{"scriptPubKey": {"reqSigs": 1, "hex": "76a914c1c09ae9c2cdfd48675de2c5d83628dd4fbb85c588ac", "addresses": ["1JfU9Tp5s56YVwtty7TVx6a8p1EQUnXUYZ"], "asm": "OP_DUP OP_HASH160 c1c09ae9c2cdfd48675de2c5d83628dd4fbb85c5 OP_EQUALVERIFY OP_CHECKSIG", "type": "pubkeyhash"}, "value": 59.8699698, "n": 0}, {"scriptPubKey": {"reqSigs": 1, "hex": "a9149b8fe00bbec99d9dff90a4b0bb58b7f9e558afc887", "addresses": ["3FsZ1uASKAcF1eiV8E8kMvRrnhefsLVb9Z"], "asm": "OP_HASH160 9b8fe00bbec99d9dff90a4b0bb58b7f9e558afc8 OP_EQUAL", "type": "scripthash"}, "value": 0.01540941, "n": 1}], "hex": "0100000001464e50b32131fb7b40dd6a4ec999edb71b6cca9e2855b9beca05a1d23ab6ef06000000006b483045022100cd16a63bf5874ddd7800df46e1fafcca903461f34584e594f9d461cea387d394022029bea3dca3f9c734499921eb847ada5dd29f86d8bf4d96231beaf91ded122c60012103ff88ac68fc735043277f62824b1701dc886df0997aee666130ed32de8e2856e3ffffffff02f452da64010000001976a914c1c09ae9c2cdfd48675de2c5d83628dd4fbb85c588ac4d8317000000000017a9149b8fe00bbec99d9dff90a4b0bb58b7f9e558afc88700000000", "vin": [{"sequence": 4294967295, "scriptSig": {"hex": "483045022100cd16a63bf5874ddd7800df46e1fafcca903461f34584e594f9d461cea387d394022029bea3dca3f9c734499921eb847ada5dd29f86d8bf4d96231beaf91ded122c60012103ff88ac68fc735043277f62824b1701dc886df0997aee666130ed32de8e2856e3", "asm": "3045022100cd16a63bf5874ddd7800df46e1fafcca903461f34584e594f9d461cea387d394022029bea3dca3f9c734499921eb847ada5dd29f86d8bf4d96231beaf91ded122c60[ALL] 03ff88ac68fc735043277f62824b1701dc886df0997aee666130ed32de8e2856e3"}, "vout": 0, "txid": "06efb63ad2a105cabeb955289eca6c1bb7ed99c94e6add407bfb3121b3504e46"}], "txid": "ce94647b9dc41020d3e915b34feb2297e5e00528054acf069908da0c047812c4", "blocktime": 1537870268, "version": 1, "confirmations": 11516, "time": 1537870268, "locktime": 0, "vsize": 224, "size": 224}