{"hash": "ce97fbc0c3f73e9fb3ea7b41d2730d500a9572ce01c2bac3a9c4d54d873e89a4", "blockhash": "0000000000000000000dcc0f55137456b1a82d3642486a52398922ac4d620174", "vout": [{"scriptPubKey": {"reqSigs": 1, "hex": "76a914d243e6abb9a60fbff430b421d2df4b7d59ec186088ac", "addresses": ["1LAnF8h3qMGx3TSwNUHVneBZUEpwE4gu3D"], "asm": "OP_DUP OP_HASH160 d243e6abb9a60fbff430b421d2df4b7d59ec1860 OP_EQUALVERIFY OP_CHECKSIG", "type": "pubkeyhash"}, "value": 0.00076972, "n": 0}, {"scriptPubKey": {"reqSigs": 1, "hex": "76a9143851f34d13937b673a7d24a1950bb5b21ce94af388ac", "addresses": ["168o1kqNquEJeR9vosUB5fw4eAwcVAgh8P"], "asm": "OP_DUP OP_HASH160 3851f34d13937b673a7d24a1950bb5b21ce94af3 OP_EQUALVERIFY OP_CHECKSIG", "type": "pubkeyhash"}, "value": 5.46e-06, "n": 1}, {"scriptPubKey": {"type": "nulldata", "hex": "6a146f6d6e69000000000000001f0000009638eab400", "asm": "OP_RETURN 6f6d6e69000000000000001f0000009638eab400"}, "value": 0.0, "n": 2}], "hex": "010000000260d6c38ab4c565b496cbea190494a731dfa47c104d8b8871d5016a3e7038c944010000006a47304402206c182064b7f92ed1272ae211eebde137819b36e8825688fea5cd478c21abc5240220363d5049179a3c170114a5c3f893f59cd6c16dba1f6dff7bcf9522e067aed343012102573f4801aa9ba4218c9802652aabe3ecb62297f27e3051eb637b8e407498eecfffffffff2482401306128406f7f5dab483c0bdcd865691b09b77b264af3620a6335877be000000006b48304502210082e79ebde8696820f1b74b2978143ce74ba24e4ef7f08d955e20f08bb89edd2302207cf18b5a673c7675abb07451a3704495c28f983d8fca84050eaaea014760cfdc01210271977291b74f1f5f5c42157e8aae804664eaaeccfd097918450d37f28fb94d77ffffffff03ac2c0100000000001976a914d243e6abb9a60fbff430b421d2df4b7d59ec186088ac22020000000000001976a9143851f34d13937b673a7d24a1950bb5b21ce94af388ac0000000000000000166a146f6d6e69000000000000001f0000009638eab40000000000", "vin": [{"sequence": 4294967295, "scriptSig": {"hex": "47304402206c182064b7f92ed1272ae211eebde137819b36e8825688fea5cd478c21abc5240220363d5049179a3c170114a5c3f893f59cd6c16dba1f6dff7bcf9522e067aed343012102573f4801aa9ba4218c9802652aabe3ecb62297f27e3051eb637b8e407498eecf", "asm": "304402206c182064b7f92ed1272ae211eebde137819b36e8825688fea5cd478c21abc5240220363d5049179a3c170114a5c3f893f59cd6c16dba1f6dff7bcf9522e067aed343[ALL] 02573f4801aa9ba4218c9802652aabe3ecb62297f27e3051eb637b8e407498eecf"}, "vout": 1, "txid": "44c938703e6a01d571888b4d107ca4df31a7940419eacb96b465c5b48ac3d660"}, {"sequence": 4294967295, "scriptSig": {"hex": "48304502210082e79ebde8696820f1b74b2978143ce74ba24e4ef7f08d955e20f08bb89edd2302207cf18b5a673c7675abb07451a3704495c28f983d8fca84050eaaea014760cfdc01210271977291b74f1f5f5c42157e8aae804664eaaeccfd097918450d37f28fb94d77", "asm": "304502210082e79ebde8696820f1b74b2978143ce74ba24e4ef7f08d955e20f08bb89edd2302207cf18b5a673c7675abb07451a3704495c28f983d8fca84050eaaea014760cfdc[ALL] 0271977291b74f1f5f5c42157e8aae804664eaaeccfd097918450d37f28fb94d77"}, "vout": 0, "txid": "be775833a62036af64b2779bb0915686cdbdc083b4daf5f70684120613408224"}], "txid": "ce97fbc0c3f73e9fb3ea7b41d2730d500a9572ce01c2bac3a9c4d54d873e89a4", "blocktime": 1537870268, "version": 1, "confirmations": 11516, "time": 1537870268, "locktime": 0, "vsize": 404, "size": 404}