{"hash": "4f72e53933f9cff539d37aadf7a20211b19e757c55487431f230634fcd9e9dae", "blockhash": "0000000000000000001f76057863aec43deb6fa401d9628bb513d65a8098bfab", "vout": [{"scriptPubKey": {"reqSigs": 1, "hex": "76a91422c5657ddd21ab5da9cd9f5a97d277820576a2dd88ac", "addresses": ["14ArSsMTVWfRvmxsLDq8kVp4ESVAYnPXza"], "asm": "OP_DUP OP_HASH160 22c5657ddd21ab5da9cd9f5a97d277820576a2dd OP_EQUALVERIFY OP_CHECKSIG", "type": "pubkeyhash"}, "value": 0.87, "n": 0}, {"scriptPubKey": {"reqSigs": 1, "hex": "a9141217fcdb9315cb81fe8200f1149a9b0ee08c4e5187", "addresses": ["33Lgph9nhkLGXrBRN1RN7Sm7Q8qkssY1d4"], "asm": "OP_HASH160 1217fcdb9315cb81fe8200f1149a9b0ee08c4e51 OP_EQUAL", "type": "scripthash"}, "value": 0.2223974, "n": 1}], "hex": "010000000001025764a9bfd483df69dc219195656810e63dd9c1541d977aa0093789934ace56cf0000000017160014ec77bc2ae1d8661667f4c34dfc621f0e36333cd2ffffffff772934a3374d9ea88108b8c9c3904730676dc96f33cd88ca89156c32b8ee09d801000000171600143c0292e100b272b7bcdbe6a3e1b43381bab672faffffffff02c0832f05000000001976a91422c5657ddd21ab5da9cd9f5a97d277820576a2dd88acfc5953010000000017a9141217fcdb9315cb81fe8200f1149a9b0ee08c4e518702483045022100d81c12e9463151bb3af86773c038249ef50e72628cd5b9c4c4b40de74e8208f502200fe18bb49ce16258b63c9bacb5e3046ad233e31447cf85d51fa11f80e50fe8e401210395725c20db54d513407a64470db7e649b98d2d3516d1ae1de69ddf1af224b4ab024730440220456e278fa31681f57d0317dc3836c843bde616da6c9029fb226da219fbbde7d502201ae45655c116971fc99ea92cb711656cdbf03edfb3af47c83bc3646b8988669301210257c0774f1851be2326f936dbeceda7cb459d2196b93607572163106e737380b100000000", "vin": [{"txinwitness": ["3045022100d81c12e9463151bb3af86773c038249ef50e72628cd5b9c4c4b40de74e8208f502200fe18bb49ce16258b63c9bacb5e3046ad233e31447cf85d51fa11f80e50fe8e401", "0395725c20db54d513407a64470db7e649b98d2d3516d1ae1de69ddf1af224b4ab"], "sequence": 4294967295, "scriptSig": {"hex": "160014ec77bc2ae1d8661667f4c34dfc621f0e36333cd2", "asm": "0014ec77bc2ae1d8661667f4c34dfc621f0e36333cd2"}, "vout": 0, "txid": "cf56ce4a93893709a07a971d54c1d93de6106865959121dc69df83d4bfa96457"}, {"txinwitness": ["30440220456e278fa31681f57d0317dc3836c843bde616da6c9029fb226da219fbbde7d502201ae45655c116971fc99ea92cb711656cdbf03edfb3af47c83bc3646b8988669301", "0257c0774f1851be2326f936dbeceda7cb459d2196b93607572163106e737380b1"], "sequence": 4294967295, "scriptSig": {"hex": "1600143c0292e100b272b7bcdbe6a3e1b43381bab672fa", "asm": "00143c0292e100b272b7bcdbe6a3e1b43381bab672fa"}, "vout": 1, "txid": "d809eeb8326c1589ca88cd336fc96d67304790c3c9b80881a89e4d37a3342977"}], "txid": "ce9c67a1da40891fb0466ed05fc9bf1b58ae2286f0f6734d2f750e36af7bdf4b", "blocktime": 1537873891, "version": 1, "confirmations": 11478, "time": 1537873891, "locktime": 0, "vsize": 259, "size": 421}