{"hash": "ceaaa47f7b56f14f32dd1b0a093a2b5a368b9ff0286c7e081dce4781e37c1cc1", "blockhash": "00000000000000000017f5eb5941039fbcee6240d03bc1f2f8e35350df66a1d8", "vout": [{"scriptPubKey": {"reqSigs": 1, "hex": "a9142a9c7ad117198b88d54b63e67843aad433e52b9f87", "addresses": ["35aKm1DJUJeV3pc7BLvWLg43QurQAXsoPf"], "asm": "OP_HASH160 2a9c7ad117198b88d54b63e67843aad433e52b9f OP_EQUAL", "type": "scripthash"}, "value": 0.0112951, "n": 0}, {"scriptPubKey": {"reqSigs": 1, "hex": "a914152609fe6283de68449d70f0b1ad0c6f6cd362a687", "addresses": ["33cqga4gjSHsJCG4Z3brYizfY3vzEKKNpo"], "asm": "OP_HASH160 152609fe6283de68449d70f0b1ad0c6f6cd362a6 OP_EQUAL", "type": "scripthash"}, "value": 0.0037904, "n": 1}, {"scriptPubKey": {"reqSigs": 1, "hex": "a914768ae0f14fec93f9b14c07adb704b586441a3f4787", "addresses": ["3CVp2e4MSQfmBpxfUBipCkGKvUMHCBLKxJ"], "asm": "OP_HASH160 768ae0f14fec93f9b14c07adb704b586441a3f47 OP_EQUAL", "type": "scripthash"}, "value": 0.0033213, "n": 2}, {"scriptPubKey": {"reqSigs": 1, "hex": "76a9141a809c6f2309cc31211c6abe7f34cf794308fb4e88ac", "addresses": ["13R8e3QSWjwQ2s5JCLWJQ5CvQ7E3NzU4sX"], "asm": "OP_DUP OP_HASH160 1a809c6f2309cc31211c6abe7f34cf794308fb4e OP_EQUALVERIFY OP_CHECKSIG", "type": "pubkeyhash"}, "value": 0.0033253, "n": 3}, {"scriptPubKey": {"reqSigs": 1, "hex": "76a914d5727f30c2e05e6301d381ff0a8b09421b7a07b988ac", "addresses": ["1LTc6Eu8s9fy2zpsJRUjRHBF12th43N9je"], "asm": "OP_DUP OP_HASH160 d5727f30c2e05e6301d381ff0a8b09421b7a07b9 OP_EQUALVERIFY OP_CHECKSIG", "type": "pubkeyhash"}, "value": 0.02117139, "n": 4}], "hex": "0100000001072ff67310d1ec53136f661feb753cdb6e8d999e68976144bb6c62ed4e0b995b040000006a47304402205624854c667e9d5f1247852dab0d26d3987532abbdbbafc6413af317b7ed616502200f48ba6ef409a85876e4588ea63ae4845badc51c47fae29930cef609c87963c9012102a54b6c425a974cba19782ff7ae9d2f63c388b8d4e48e0f78cadae72bc48cb5f1ffffffff05263c11000000000017a9142a9c7ad117198b88d54b63e67843aad433e52b9f87a0c805000000000017a914152609fe6283de68449d70f0b1ad0c6f6cd362a687621105000000000017a914768ae0f14fec93f9b14c07adb704b586441a3f4787f2120500000000001976a9141a809c6f2309cc31211c6abe7f34cf794308fb4e88ac134e2000000000001976a914d5727f30c2e05e6301d381ff0a8b09421b7a07b988ac00000000", "vin": [{"sequence": 4294967295, "scriptSig": {"hex": "47304402205624854c667e9d5f1247852dab0d26d3987532abbdbbafc6413af317b7ed616502200f48ba6ef409a85876e4588ea63ae4845badc51c47fae29930cef609c87963c9012102a54b6c425a974cba19782ff7ae9d2f63c388b8d4e48e0f78cadae72bc48cb5f1", "asm": "304402205624854c667e9d5f1247852dab0d26d3987532abbdbbafc6413af317b7ed616502200f48ba6ef409a85876e4588ea63ae4845badc51c47fae29930cef609c87963c9[ALL] 02a54b6c425a974cba19782ff7ae9d2f63c388b8d4e48e0f78cadae72bc48cb5f1"}, "vout": 4, "txid": "5b990b4eed626cbb446197689e998d6edb3c75eb1f666f1353ecd11073f62f07"}], "txid": "ceaaa47f7b56f14f32dd1b0a093a2b5a368b9ff0286c7e081dce4781e37c1cc1", "blocktime": 1537874412, "version": 1, "confirmations": 11466, "time": 1537874412, "locktime": 0, "vsize": 321, "size": 321}