{"hash": "cead38fb697c2a2f5d488825833ccfb29cab2245e1f5ddb31a85fa1a10e5eab9", "blockhash": "0000000000000000000dcc0f55137456b1a82d3642486a52398922ac4d620174", "vout": [{"scriptPubKey": {"reqSigs": 1, "hex": "76a9149fbcd490ecb770bac800591d3db1c51f800a4ba288ac", "addresses": ["1FZcefSj8Gc4nWDunWA5x2kxmVruchq91J"], "asm": "OP_DUP OP_HASH160 9fbcd490ecb770bac800591d3db1c51f800a4ba2 OP_EQUALVERIFY OP_CHECKSIG", "type": "pubkeyhash"}, "value": 0.00095915, "n": 0}, {"scriptPubKey": {"type": "nulldata", "hex": "6a146f6d6e69000000000000001f000000041314cf00", "asm": "OP_RETURN 6f6d6e69000000000000001f000000041314cf00"}, "value": 0.0, "n": 1}, {"scriptPubKey": {"reqSigs": 1, "hex": "76a9141e5937605900a7c092e8ef725b2ffea9945c364688ac", "addresses": ["13mU9cZPQ57sVpeDHSFUWF93wxDJxSyuNz"], "asm": "OP_DUP OP_HASH160 1e5937605900a7c092e8ef725b2ffea9945c3646 OP_EQUALVERIFY OP_CHECKSIG", "type": "pubkeyhash"}, "value": 5.46e-06, "n": 2}], "hex": "01000000019908df9e288a6e7eff31a67644ede634b30cb3f0428a04258e4e501daf355deb000000006b483045022100826138e68d4302408999f639181141e36a1b1e2f9c9153aed1ca6bff69d8877a022071f09487312a58104ab42c92a4af590e53467222ef274874b78a7148bd5c59b2012102756bbdad1bf938254b3a13f57707e65a4c2c96fb94e72db678be4209cb39d58dfeffffff03ab760100000000001976a9149fbcd490ecb770bac800591d3db1c51f800a4ba288ac0000000000000000166a146f6d6e69000000000000001f000000041314cf0022020000000000001976a9141e5937605900a7c092e8ef725b2ffea9945c364688ac0c490800", "vin": [{"sequence": 4294967294, "scriptSig": {"hex": "483045022100826138e68d4302408999f639181141e36a1b1e2f9c9153aed1ca6bff69d8877a022071f09487312a58104ab42c92a4af590e53467222ef274874b78a7148bd5c59b2012102756bbdad1bf938254b3a13f57707e65a4c2c96fb94e72db678be4209cb39d58d", "asm": "3045022100826138e68d4302408999f639181141e36a1b1e2f9c9153aed1ca6bff69d8877a022071f09487312a58104ab42c92a4af590e53467222ef274874b78a7148bd5c59b2[ALL] 02756bbdad1bf938254b3a13f57707e65a4c2c96fb94e72db678be4209cb39d58d"}, "vout": 0, "txid": "eb5d35af1d504e8e25048a42f0b30cb334e6ed4476a631ff7e6e8a289edf0899"}], "txid": "cead38fb697c2a2f5d488825833ccfb29cab2245e1f5ddb31a85fa1a10e5eab9", "blocktime": 1537870268, "version": 1, "confirmations": 11516, "time": 1537870268, "locktime": 542988, "vsize": 257, "size": 257}