{"hash": "ceb508535bf7d9e2a30fb0ba100d4795c432246f1e348da6ea0c0a6c48d46efc", "blockhash": "00000000000000000024a2167bbff67b0be802c0b01cdd79e6331c2be6459f87", "vout": [{"scriptPubKey": {"reqSigs": 1, "hex": "76a9145535eef145e78cc3f3187dd3db7b531e10cd012388ac", "addresses": ["18mZ3fPAfTqAw3wdMQv4wLE32cAKQunzfU"], "asm": "OP_DUP OP_HASH160 5535eef145e78cc3f3187dd3db7b531e10cd0123 OP_EQUALVERIFY OP_CHECKSIG", "type": "pubkeyhash"}, "value": 0.00309083, "n": 0}, {"scriptPubKey": {"reqSigs": 1, "hex": "76a91499961420364037af6b7b11fb486fe31f8be23ac588ac", "addresses": ["1F16AzieUUN7rVR2wcEivaNzju5Gz4Q6Sx"], "asm": "OP_DUP OP_HASH160 99961420364037af6b7b11fb486fe31f8be23ac5 OP_EQUALVERIFY OP_CHECKSIG", "type": "pubkeyhash"}, "value": 0.00781207, "n": 1}], "hex": "0100000001e886849f8ef4160b246b01f926acd2db7124393cf867ea3e8ef7adae527e692f000000006b4830450221009f566c92b62c8f14fd7906570ea22f98208ba750c044d0bda8e4bf847354a16b02201e7ec05733fade35837f89ad3ca756e1182c7df3ddf9a564a14fe055897ae844012102af279bdaf92ea520d8058baaad34d59b3bd1a06534efce582cc843b2dd0495c9ffffffff025bb70400000000001976a9145535eef145e78cc3f3187dd3db7b531e10cd012388ac97eb0b00000000001976a91499961420364037af6b7b11fb486fe31f8be23ac588ac00000000", "vin": [{"sequence": 4294967295, "scriptSig": {"hex": "4830450221009f566c92b62c8f14fd7906570ea22f98208ba750c044d0bda8e4bf847354a16b02201e7ec05733fade35837f89ad3ca756e1182c7df3ddf9a564a14fe055897ae844012102af279bdaf92ea520d8058baaad34d59b3bd1a06534efce582cc843b2dd0495c9", "asm": "30450221009f566c92b62c8f14fd7906570ea22f98208ba750c044d0bda8e4bf847354a16b02201e7ec05733fade35837f89ad3ca756e1182c7df3ddf9a564a14fe055897ae844[ALL] 02af279bdaf92ea520d8058baaad34d59b3bd1a06534efce582cc843b2dd0495c9"}, "vout": 0, "txid": "2f697e52aeadf78e3eea67f83c392471dbd2ac26f9016b240b16f48e9f8486e8"}], "txid": "ceb508535bf7d9e2a30fb0ba100d4795c432246f1e348da6ea0c0a6c48d46efc", "blocktime": 1537870564, "version": 1, "confirmations": 11515, "time": 1537870564, "locktime": 0, "vsize": 226, "size": 226}