{"hash": "ceb8623dce88e8b7c52e110da981be4251341767ad794558ac8f8b933edc023b", "blockhash": "00000000000000000018f53835495a110e01622372bf6ae95dc86f2b0ab887b0", "vout": [{"scriptPubKey": {"type": "nulldata", "hex": "6a146f6d6e69000000000000001f00000003a7d103f8", "asm": "OP_RETURN 6f6d6e69000000000000001f00000003a7d103f8"}, "value": 0.0, "n": 0}, {"scriptPubKey": {"reqSigs": 1, "hex": "76a9141a05fcff0728cb865df483850bee14089e7a63f188ac", "addresses": ["13Nbk4Tcfzg7BKDqeRzZ2fLbBXTKbBjQ39"], "asm": "OP_DUP OP_HASH160 1a05fcff0728cb865df483850bee14089e7a63f1 OP_EQUALVERIFY OP_CHECKSIG", "type": "pubkeyhash"}, "value": 5.46e-06, "n": 1}, {"scriptPubKey": {"reqSigs": 1, "hex": "76a9140ea2c16f9786cdfea33384770c72f226ae93ef3f88ac", "addresses": ["12LPS9L3BtpHJxCw7CBABQHFsKc7wFRjAR"], "asm": "OP_DUP OP_HASH160 0ea2c16f9786cdfea33384770c72f226ae93ef3f OP_EQUALVERIFY OP_CHECKSIG", "type": "pubkeyhash"}, "value": 0.36172123, "n": 2}], "hex": "01000000012b061436a797ddf4561c48ad45aca7d0110a0319d585ffd24b5c0942abadabe6020000006b483045022100ea731bf18d6f5d4dd9f16a71cf1873b05c0b02aa77425e37e0cbef7549822b950220326eecc03970404fcefd7692625d517a1921d22458c555e1943dce41abd6905301210242604bdd2261b6188326b9f490e074dda990f5bb746eb9716e491b86b498f4c5feffffff030000000000000000166a146f6d6e69000000000000001f00000003a7d103f822020000000000001976a9141a05fcff0728cb865df483850bee14089e7a63f188ac5bf12702000000001976a9140ea2c16f9786cdfea33384770c72f226ae93ef3f88ac0e490800", "vin": [{"sequence": 4294967294, "scriptSig": {"hex": "483045022100ea731bf18d6f5d4dd9f16a71cf1873b05c0b02aa77425e37e0cbef7549822b950220326eecc03970404fcefd7692625d517a1921d22458c555e1943dce41abd6905301210242604bdd2261b6188326b9f490e074dda990f5bb746eb9716e491b86b498f4c5", "asm": "3045022100ea731bf18d6f5d4dd9f16a71cf1873b05c0b02aa77425e37e0cbef7549822b950220326eecc03970404fcefd7692625d517a1921d22458c555e1943dce41abd69053[ALL] 0242604bdd2261b6188326b9f490e074dda990f5bb746eb9716e491b86b498f4c5"}, "vout": 2, "txid": "e6abadab42095c4bd2ff85d519030a11d0a7ac45ad481c56f4dd97a73614062b"}], "txid": "ceb8623dce88e8b7c52e110da981be4251341767ad794558ac8f8b933edc023b", "blocktime": 1537870928, "version": 1, "confirmations": 11512, "time": 1537870928, "locktime": 542990, "vsize": 257, "size": 257}