{"hash": "1e3091b2ea00d87fd04d23953e296a98a2987c4933caed15a40e443e33541f01", "blockhash": "0000000000000000000baef3f32e3676a92c3b2e5da21b426e4f302fc371ce76", "vout": [{"scriptPubKey": {"reqSigs": 1, "hex": "a91490e99e8d26d05ead3c05430c292a887bbff695f587", "addresses": ["3EuF6KjJawxTiUsea3Sc8hsLUGmVEf7Xg5"], "asm": "OP_HASH160 90e99e8d26d05ead3c05430c292a887bbff695f5 OP_EQUAL", "type": "scripthash"}, "value": 0.00102696, "n": 0}, {"scriptPubKey": {"type": "nulldata", "hex": "6a146f6d6e69000000000000001f0000000005f5e100", "asm": "OP_RETURN 6f6d6e69000000000000001f0000000005f5e100"}, "value": 0.0, "n": 1}, {"scriptPubKey": {"reqSigs": 1, "hex": "a91490e99e8d26d05ead3c05430c292a887bbff695f587", "addresses": ["3EuF6KjJawxTiUsea3Sc8hsLUGmVEf7Xg5"], "asm": "OP_HASH160 90e99e8d26d05ead3c05430c292a887bbff695f5 OP_EQUAL", "type": "scripthash"}, "value": 5.4e-06, "n": 2}], "hex": "010000000001025815c4579ff654e7bd1aa74af3de96b74da64f7d326e5681f7152e766dc3055b0000000017160014f6e1792e7852ebd5ae795c2a25d579acdfadec2dffffffff5815c4579ff654e7bd1aa74af3de96b74da64f7d326e5681f7152e766dc3055b0200000017160014f6e1792e7852ebd5ae795c2a25d579acdfadec2dffffffff03289101000000000017a91490e99e8d26d05ead3c05430c292a887bbff695f5870000000000000000166a146f6d6e69000000000000001f0000000005f5e1001c0200000000000017a91490e99e8d26d05ead3c05430c292a887bbff695f58702483045022100dd8866609a3550276451e5c9e7714a1ec4881cfe8c8646ba8f8e0cbe4ad5320a022041932bc842c11f2c1a6be031079cc85e87b44f49f01705fed71918010981bd95012103f1cf988013a33e053d1e9bd54c4798c1a6dc362a5b2798b5344049fca40e2db002473044022001afc9a55f57b93e060a4b76892d35456835e09b9bab4882523f3771cea752da02202743ed76b1405b5790b44814dd7b20d00a1f327e383a9bf53f2919bc5dd1f9b9012103f1cf988013a33e053d1e9bd54c4798c1a6dc362a5b2798b5344049fca40e2db000000000", "vin": [{"txinwitness": ["3045022100dd8866609a3550276451e5c9e7714a1ec4881cfe8c8646ba8f8e0cbe4ad5320a022041932bc842c11f2c1a6be031079cc85e87b44f49f01705fed71918010981bd9501", "03f1cf988013a33e053d1e9bd54c4798c1a6dc362a5b2798b5344049fca40e2db0"], "sequence": 4294967295, "scriptSig": {"hex": "160014f6e1792e7852ebd5ae795c2a25d579acdfadec2d", "asm": "0014f6e1792e7852ebd5ae795c2a25d579acdfadec2d"}, "vout": 0, "txid": "5b05c36d762e15f781566e327d4fa64db796def34aa71abde754f69f57c41558"}, {"txinwitness": ["3044022001afc9a55f57b93e060a4b76892d35456835e09b9bab4882523f3771cea752da02202743ed76b1405b5790b44814dd7b20d00a1f327e383a9bf53f2919bc5dd1f9b901", "03f1cf988013a33e053d1e9bd54c4798c1a6dc362a5b2798b5344049fca40e2db0"], "sequence": 4294967295, "scriptSig": {"hex": "160014f6e1792e7852ebd5ae795c2a25d579acdfadec2d", "asm": "0014f6e1792e7852ebd5ae795c2a25d579acdfadec2d"}, "vout": 2, "txid": "5b05c36d762e15f781566e327d4fa64db796def34aa71abde754f69f57c41558"}], "txid": "ceb93c35f46f638c785bd3f8655d25e8d8ff19a1173aeddc77fdf93530d7d5dc", "blocktime": 1537876114, "version": 1, "confirmations": 11460, "time": 1537876114, "locktime": 0, "vsize": 288, "size": 450}