{"hash": "0d2dfd1f681fd0cbe8e910b0a9551da48cb78013a804e91d70b586fb5f55512c", "blockhash": "00000000000000000004ffacab907a6b429b9a5745fa0b75af4234bf69dd7176", "vout": [{"scriptPubKey": {"reqSigs": 1, "hex": "76a91410b61f8825d46702a909c5937ad43470447a593888ac", "addresses": ["12XMzD8HqD5wBGij28DaogiLSazTKhVrRB"], "asm": "OP_DUP OP_HASH160 10b61f8825d46702a909c5937ad43470447a5938 OP_EQUALVERIFY OP_CHECKSIG", "type": "pubkeyhash"}, "value": 0.0021, "n": 0}, {"scriptPubKey": {"reqSigs": 1, "hex": "a9141ee6a275d2ddec51179ff2334a6931984cdecf6987", "addresses": ["34WQV59ZRBToPk3ZxhB4vPCFcUN681TMhr"], "asm": "OP_HASH160 1ee6a275d2ddec51179ff2334a6931984cdecf69 OP_EQUAL", "type": "scripthash"}, "value": 0.0026636, "n": 1}, {"scriptPubKey": {"reqSigs": 1, "hex": "a9140970e08ae890ee2a5662e59a99ec252862e120c987", "addresses": ["32YwE7LFzziozyF1w7JgERr5B6vkBELoGe"], "asm": "OP_HASH160 0970e08ae890ee2a5662e59a99ec252862e120c9 OP_EQUAL", "type": "scripthash"}, "value": 0.0033866, "n": 2}, {"scriptPubKey": {"reqSigs": 1, "hex": "76a914a2445dade395fc58af62bfe8892b70c0c10544a588ac", "addresses": ["1FnzNE3hEnUaWuQNGVWsLHkbEE3dpBj9XS"], "asm": "OP_DUP OP_HASH160 a2445dade395fc58af62bfe8892b70c0c10544a5 OP_EQUALVERIFY OP_CHECKSIG", "type": "pubkeyhash"}, "value": 0.00307876, "n": 3}, {"scriptPubKey": {"reqSigs": 1, "hex": "a9147e2eab8a7afead3d29a09f5385dbe29c0eb9d20987", "addresses": ["3DCCyQeWR7e7oMDELfpPUdvvG9Virxnr2d"], "asm": "OP_HASH160 7e2eab8a7afead3d29a09f5385dbe29c0eb9d209 OP_EQUAL", "type": "scripthash"}, "value": 0.00850195, "n": 4}, {"scriptPubKey": {"reqSigs": 1, "hex": "76a914ebd9c347cfa97312b8d0b2a7f94145c5fb252c8188ac", "addresses": ["1NW4fWLMkGs8SFF6GjT78dhpjVuyCJ46oE"], "asm": "OP_DUP OP_HASH160 ebd9c347cfa97312b8d0b2a7f94145c5fb252c81 OP_EQUALVERIFY OP_CHECKSIG", "type": "pubkeyhash"}, "value": 0.00229444, "n": 5}, {"scriptPubKey": {"reqSigs": 1, "hex": "a914ec3886dd465a35ebae3d0d20b75cb88e41a25d0087", "addresses": ["3PE37NGuzia9EW8EjqMpFQnJ3DPtQUVK7L"], "asm": "OP_HASH160 ec3886dd465a35ebae3d0d20b75cb88e41a25d00 OP_EQUAL", "type": "scripthash"}, "value": 0.0025666, "n": 6}, {"scriptPubKey": {"reqSigs": 1, "hex": "a914abfc20f4bfa22716d44804a0e65347aae3470dd287", "addresses": ["3HNPWZLY5emTkx9vuoLtx3TQv2rzFtWQPw"], "asm": "OP_HASH160 abfc20f4bfa22716d44804a0e65347aae3470dd2 OP_EQUAL", "type": "scripthash"}, "value": 0.00464314, "n": 7}, {"scriptPubKey": {"reqSigs": 1, "hex": "a914c4ef08bbe560fa21cf35f0d7d1e565dc2a516d3887", "addresses": ["3KeJiXMSYPzWH7Y4nkJRcfpwUaBHw4gUKz"], "asm": "OP_HASH160 c4ef08bbe560fa21cf35f0d7d1e565dc2a516d38 OP_EQUAL", "type": "scripthash"}, "value": 0.0018196, "n": 8}, {"scriptPubKey": {"reqSigs": 1, "hex": "a9141e4a6b08b5037401b1811cb7aad4ef28c58a07d987", "addresses": ["34TBLxaNo8z1gujStz8AxVn2ohbGKwNqy1"], "asm": "OP_HASH160 1e4a6b08b5037401b1811cb7aad4ef28c58a07d9 OP_EQUAL", "type": "scripthash"}, "value": 0.0026636, "n": 9}, {"scriptPubKey": {"reqSigs": 1, "hex": "a9140da63ce36b8060b085a46e08719cffe7cfad52e087", "addresses": ["32wBrSnzVGZN5jSZgm4h1cVQvfbTQDCNGS"], "asm": "OP_HASH160 0da63ce36b8060b085a46e08719cffe7cfad52e0 OP_EQUAL", "type": "scripthash"}, "value": 0.0047526, "n": 10}, {"scriptPubKey": {"reqSigs": 1, "hex": "a91477ba7583d41dbbf2efe581e715de067ff69fbaeb87", "addresses": ["3Cc5hmnbPZKtuVnRTRXYabvfwH71GWvfZv"], "asm": "OP_HASH160 77ba7583d41dbbf2efe581e715de067ff69fbaeb OP_EQUAL", "type": "scripthash"}, "value": 0.0053, "n": 11}, {"scriptPubKey": {"reqSigs": 1, "hex": "a9141693c76fc0142cda3923d8fd987bf922731f286987", "addresses": ["33kPpddUkpLEcjwRtS9ubJuvvb2iLpSsgL"], "asm": "OP_HASH160 1693c76fc0142cda3923d8fd987bf922731f2869 OP_EQUAL", "type": "scripthash"}, "value": 0.0052476, "n": 12}, {"scriptPubKey": {"reqSigs": 1, "hex": "76a9149baa75e40a3afe0c44baeba689fa43e494c1937088ac", "addresses": ["1FC5wYBe8DwQv9c5roXADdoPJCvS7LrhCM"], "asm": "OP_DUP OP_HASH160 9baa75e40a3afe0c44baeba689fa43e494c19370 OP_EQUALVERIFY OP_CHECKSIG", "type": "pubkeyhash"}, "value": 0.00186897, "n": 13}, {"scriptPubKey": {"reqSigs": 1, "hex": "a914420076fc0e9ab9133a8a437e45d6f3436b2ab57c87", "addresses": ["37i15VrWF2chVfhM7Ja44bP93FE4BuTJAQ"], "asm": "OP_HASH160 420076fc0e9ab9133a8a437e45d6f3436b2ab57c OP_EQUAL", "type": "scripthash"}, "value": 0.0023786, "n": 14}, {"scriptPubKey": {"reqSigs": 1, "hex": "a914cdd901b40a2aa7ebb68db6c94bf989dc852cfe9587", "addresses": ["3LTSQkn72f6c1NutYu34CrtrhDypMU8Tb8"], "asm": "OP_HASH160 cdd901b40a2aa7ebb68db6c94bf989dc852cfe95 OP_EQUAL", "type": "scripthash"}, "value": 2.93725999, "n": 15}, {"scriptPubKey": {"reqSigs": 1, "hex": "a914e3c7a95b3768ed76b7bd9fc278921ea322bb8c0987", "addresses": ["3NTQVpL4JgBzXqL4jejsVQDaQPqJNLCG4b"], "asm": "OP_HASH160 e3c7a95b3768ed76b7bd9fc278921ea322bb8c09 OP_EQUAL", "type": "scripthash"}, "value": 0.0035626, "n": 16}, {"scriptPubKey": {"reqSigs": 1, "hex": "76a9142914e42f6276c463660b0c78c5edf1753c0dba9c88ac", "addresses": ["14kDjRSSc2kNPFDjkQHsuyX7sNAG7PHF2G"], "asm": "OP_DUP OP_HASH160 2914e42f6276c463660b0c78c5edf1753c0dba9c OP_EQUALVERIFY OP_CHECKSIG", "type": "pubkeyhash"}, "value": 0.0022, "n": 17}], "hex": "02000000000101f5ea937bdc7cd47de7986d11847b2c683437f9f8ca4da6511d18a7221cbbe06d4800000017160014d3e3cd00d74e6f7bdbff7df00dc0e5e522bf1e36feffffff1250340300000000001976a91410b61f8825d46702a909c5937ad43470447a593888ac781004000000000017a9141ee6a275d2ddec51179ff2334a6931984cdecf6987e42a05000000000017a9140970e08ae890ee2a5662e59a99ec252862e120c987a4b20400000000001976a914a2445dade395fc58af62bfe8892b70c0c10544a588ac13f90c000000000017a9147e2eab8a7afead3d29a09f5385dbe29c0eb9d2098744800300000000001976a914ebd9c347cfa97312b8d0b2a7f94145c5fb252c8188ac94ea03000000000017a914ec3886dd465a35ebae3d0d20b75cb88e41a25d0087ba1507000000000017a914abfc20f4bfa22716d44804a0e65347aae3470dd287c8c602000000000017a914c4ef08bbe560fa21cf35f0d7d1e565dc2a516d3887781004000000000017a9141e4a6b08b5037401b1811cb7aad4ef28c58a07d9877c4007000000000017a9140da63ce36b8060b085a46e08719cffe7cfad52e087501608000000000017a91477ba7583d41dbbf2efe581e715de067ff69fbaeb87d80108000000000017a9141693c76fc0142cda3923d8fd987bf922731f28698711da0200000000001976a9149baa75e40a3afe0c44baeba689fa43e494c1937088ac24a103000000000017a914420076fc0e9ab9133a8a437e45d6f3436b2ab57c872fe781110000000017a914cdd901b40a2aa7ebb68db6c94bf989dc852cfe9587a46f05000000000017a914e3c7a95b3768ed76b7bd9fc278921ea322bb8c0987605b0300000000001976a9142914e42f6276c463660b0c78c5edf1753c0dba9c88ac0247304402204c9e180a8782751bef2a07118e42048591ae525447551c536acde27bfc54518502206856885ec7ab149c9b80939f92bf26a36e2e22792fa2f0c0f5d9b75e20dc973d012103e2963b6f9450b5265d3ee700c911af966907d1e5da4612a98fd80c9886836f0116490800", "vin": [{"txinwitness": ["304402204c9e180a8782751bef2a07118e42048591ae525447551c536acde27bfc54518502206856885ec7ab149c9b80939f92bf26a36e2e22792fa2f0c0f5d9b75e20dc973d01", "03e2963b6f9450b5265d3ee700c911af966907d1e5da4612a98fd80c9886836f01"], "sequence": 4294967294, "scriptSig": {"hex": "160014d3e3cd00d74e6f7bdbff7df00dc0e5e522bf1e36", "asm": "0014d3e3cd00d74e6f7bdbff7df00dc0e5e522bf1e36"}, "vout": 72, "txid": "6de0bb1c22a7181d51a64dcaf8f93734682c7b84116d98e77dd47cdc7b93eaf5"}], "txid": "cebd6fec8a7769ef3922e05303e7d90e0bfbd31eb45a159d6d803b6bf7069cb9", "blocktime": 1537875543, "version": 2, "confirmations": 11464, "time": 1537875543, "locktime": 542998, "vsize": 688, "size": 769}