{"hash": "cebef630332b324f3b1a1d92d8ca9b9e5293dc568b3e3a6406ce0c5e347a101b", "blockhash": "0000000000000000000e13cef7c366c0283d82e591d1acd082e914b08063cdf1", "vout": [{"scriptPubKey": {"reqSigs": 1, "hex": "76a914133fc25d43054526a99fe03ae4f684294ec8dc9a88ac", "addresses": ["12knDiRLAohRnAmRfzLwt5RiJJu8KbeUp7"], "asm": "OP_DUP OP_HASH160 133fc25d43054526a99fe03ae4f684294ec8dc9a OP_EQUALVERIFY OP_CHECKSIG", "type": "pubkeyhash"}, "value": 0.00499066, "n": 0}, {"scriptPubKey": {"type": "nulldata", "hex": "6a146f6d6e69000000000000001f0000001dac123993", "asm": "OP_RETURN 6f6d6e69000000000000001f0000001dac123993"}, "value": 0.0, "n": 1}, {"scriptPubKey": {"reqSigs": 1, "hex": "76a914a25dec4d0011064ef106a983c39c7a540699f22088ac", "addresses": ["1FoWyxwPXuj4C6abqwhjDWdz6D4PZgYRjA"], "asm": "OP_DUP OP_HASH160 a25dec4d0011064ef106a983c39c7a540699f220 OP_EQUALVERIFY OP_CHECKSIG", "type": "pubkeyhash"}, "value": 5.46e-06, "n": 2}], "hex": "010000000182366975b575a0aa648e7100821770b7fb21d0e5dd81ee3fe71899f24d6c1041010000006a47304402203e26a810f4f9f3c2376214af617f051cb0124f52495cd518663bd7434b8a008402204d320c1de3f412b917ff07024495640a061e439f87c5e238781e37ecd70030280121021f09f9b898dc52d93cee3e8fed9bbe9d2f5c048246e85706d46b9e0a1d68c283feffffff037a9d0700000000001976a914133fc25d43054526a99fe03ae4f684294ec8dc9a88ac0000000000000000166a146f6d6e69000000000000001f0000001dac12399322020000000000001976a914a25dec4d0011064ef106a983c39c7a540699f22088ac10490800", "vin": [{"sequence": 4294967294, "scriptSig": {"hex": "47304402203e26a810f4f9f3c2376214af617f051cb0124f52495cd518663bd7434b8a008402204d320c1de3f412b917ff07024495640a061e439f87c5e238781e37ecd70030280121021f09f9b898dc52d93cee3e8fed9bbe9d2f5c048246e85706d46b9e0a1d68c283", "asm": "304402203e26a810f4f9f3c2376214af617f051cb0124f52495cd518663bd7434b8a008402204d320c1de3f412b917ff07024495640a061e439f87c5e238781e37ecd7003028[ALL] 021f09f9b898dc52d93cee3e8fed9bbe9d2f5c048246e85706d46b9e0a1d68c283"}, "vout": 1, "txid": "41106c4df29918e73fee81dde5d021fbb770178200718e64aaa075b575693682"}], "txid": "cebef630332b324f3b1a1d92d8ca9b9e5293dc568b3e3a6406ce0c5e347a101b", "blocktime": 1537871767, "version": 1, "confirmations": 11495, "time": 1537871767, "locktime": 542992, "vsize": 256, "size": 256}