{"hash": "ced1bd72fed6fd98f449fc558a0d3b720cbe2d1de3102a31abc7094d964a11d4", "blockhash": "00000000000000000024a2167bbff67b0be802c0b01cdd79e6331c2be6459f87", "vout": [{"scriptPubKey": {"reqSigs": 1, "hex": "76a9142bfe509b458d5ece76ae81eee4aaefc81210564188ac", "addresses": ["151ciMdFC8LbjfQ6LSVEAaPbFP9482w24L"], "asm": "OP_DUP OP_HASH160 2bfe509b458d5ece76ae81eee4aaefc812105641 OP_EQUALVERIFY OP_CHECKSIG", "type": "pubkeyhash"}, "value": 0.04678778, "n": 0}, {"scriptPubKey": {"reqSigs": 1, "hex": "76a914bc8758758a7bbbb6fa6b12f62047f4fc61d01a3788ac", "addresses": ["1JBrB3AdhoGZSY7GMFv3no9dnSPSXZaGLN"], "asm": "OP_DUP OP_HASH160 bc8758758a7bbbb6fa6b12f62047f4fc61d01a37 OP_EQUALVERIFY OP_CHECKSIG", "type": "pubkeyhash"}, "value": 0.12348504, "n": 1}], "hex": "01000000016c5deb99985aa755c9b8bc07472f2414e803e4e6c9a779c87cd9f458048bf1a3000000006b4830450221008546c2db45fd010248b98bde34c5b4ebe7e73a58e093396ff34e31481ae84400022018cf6deebb3bcf9e34c8e971dc109474e2e4f57447444f6893cd8f1d53bf33c101210249846f60829732d449ff4a50cf7f6b70b6f11c8d7debe9f6571066701e25033cffffffff027a644700000000001976a9142bfe509b458d5ece76ae81eee4aaefc81210564188ac586cbc00000000001976a914bc8758758a7bbbb6fa6b12f62047f4fc61d01a3788ac00000000", "vin": [{"sequence": 4294967295, "scriptSig": {"hex": "4830450221008546c2db45fd010248b98bde34c5b4ebe7e73a58e093396ff34e31481ae84400022018cf6deebb3bcf9e34c8e971dc109474e2e4f57447444f6893cd8f1d53bf33c101210249846f60829732d449ff4a50cf7f6b70b6f11c8d7debe9f6571066701e25033c", "asm": "30450221008546c2db45fd010248b98bde34c5b4ebe7e73a58e093396ff34e31481ae84400022018cf6deebb3bcf9e34c8e971dc109474e2e4f57447444f6893cd8f1d53bf33c1[ALL] 0249846f60829732d449ff4a50cf7f6b70b6f11c8d7debe9f6571066701e25033c"}, "vout": 0, "txid": "a3f18b0458f4d97cc879a7c9e6e403e814242f4707bcb8c955a75a9899eb5d6c"}], "txid": "ced1bd72fed6fd98f449fc558a0d3b720cbe2d1de3102a31abc7094d964a11d4", "blocktime": 1537870564, "version": 1, "confirmations": 11515, "time": 1537870564, "locktime": 0, "vsize": 226, "size": 226}