{"hash": "81e67f0a3558678249121f637ecb07449b2efbed6ddfc4ce2abe32bcc412bbba", "blockhash": "0000000000000000000e13cef7c366c0283d82e591d1acd082e914b08063cdf1", "vout": [{"scriptPubKey": {"reqSigs": 1, "hex": "a9144c8509e53040108494b7bacbbb025ded1b55e65087", "addresses": ["38fceoxxqQkuSZh7jmGBabLayK2EHGSEwm"], "asm": "OP_HASH160 4c8509e53040108494b7bacbbb025ded1b55e650 OP_EQUAL", "type": "scripthash"}, "value": 0.00999598, "n": 0}, {"scriptPubKey": {"reqSigs": 1, "hex": "76a914f01ec91df5fd5ad53bef641d8bb98e7fca28a2b088ac", "addresses": ["1Nte44YwrYHD8HTTrgZrG4ajbsdTqfPSA9"], "asm": "OP_DUP OP_HASH160 f01ec91df5fd5ad53bef641d8bb98e7fca28a2b0 OP_EQUALVERIFY OP_CHECKSIG", "type": "pubkeyhash"}, "value": 5.3, "n": 1}], "hex": "02000000000103195b5fe5f247fe74a27b86e31b5d5aaa746e7f05838e3e194942b6e7c007bcd50000000017160014bf4d71052c849e36bd31530252d1ce2383bad6c6fdffffff485324143eaf86ee4955a86c20b8d3bc6ebf777c397daca4cc538a03c17ef88f0100000017160014dce4dc2ac54ccce4dff47a337be3e53ae1911807fdffffff866da57fbd85f8c19a144f08ee241c83fb94ca311ef488bd0ecb39b5472d347800000000171600146aeacdd4dd53a8744fb2ca7ea2a563c82315a98efdffffff02ae400f000000000017a9144c8509e53040108494b7bacbbb025ded1b55e650878028971f000000001976a914f01ec91df5fd5ad53bef641d8bb98e7fca28a2b088ac02473044022058c5970eb67f222a641e919dd1d1882e2d8daec9eec084e080fcb3a4422d358002202cd4b23bfd06ae7cc21c86423c755f1a31831c5fec835fd9935ffc428e1fff680121020f13e29a9eb2cd8ec3d98a91ac4a9c83173af7c76f41c52ba87c6a47b0f2b1a302473044022067c5ebc9ffcb34afa7ff30fb7cb54a188ed76ecb9a0c219b7383bb72b6781c2d022077f94d0c24109b367adeb9c65b83e24789e03840355b55552afbb5ad89951e9e0121026d0301c0a50e40007312b605a6aaa8df2c34c761dc33559b311fad37cf32583d02483045022100b8273b008f6019579beea43869ab1850127f18cbbfedc62358b16948211de5a102207d7eb0beec4128594803f66544449058f6c9eaaaf8d7ad7dbc9cec9e615d720a01210248fbad921c6e5dc69de5b4a6d13824ce83b6f7054502bf5ca4a0f6e493e35c6a00000000", "vin": [{"txinwitness": ["3044022058c5970eb67f222a641e919dd1d1882e2d8daec9eec084e080fcb3a4422d358002202cd4b23bfd06ae7cc21c86423c755f1a31831c5fec835fd9935ffc428e1fff6801", "020f13e29a9eb2cd8ec3d98a91ac4a9c83173af7c76f41c52ba87c6a47b0f2b1a3"], "sequence": 4294967293, "scriptSig": {"hex": "160014bf4d71052c849e36bd31530252d1ce2383bad6c6", "asm": "0014bf4d71052c849e36bd31530252d1ce2383bad6c6"}, "vout": 0, "txid": "d5bc07c0e7b64249193e8e83057f6e74aa5a5d1be3867ba274fe47f2e55f5b19"}, {"txinwitness": ["3044022067c5ebc9ffcb34afa7ff30fb7cb54a188ed76ecb9a0c219b7383bb72b6781c2d022077f94d0c24109b367adeb9c65b83e24789e03840355b55552afbb5ad89951e9e01", "026d0301c0a50e40007312b605a6aaa8df2c34c761dc33559b311fad37cf32583d"], "sequence": 4294967293, "scriptSig": {"hex": "160014dce4dc2ac54ccce4dff47a337be3e53ae1911807", "asm": "0014dce4dc2ac54ccce4dff47a337be3e53ae1911807"}, "vout": 1, "txid": "8ff87ec1038a53cca4ac7d397c77bf6ebcd3b8206ca85549ee86af3e14245348"}, {"txinwitness": ["3045022100b8273b008f6019579beea43869ab1850127f18cbbfedc62358b16948211de5a102207d7eb0beec4128594803f66544449058f6c9eaaaf8d7ad7dbc9cec9e615d720a01", "0248fbad921c6e5dc69de5b4a6d13824ce83b6f7054502bf5ca4a0f6e493e35c6a"], "sequence": 4294967293, "scriptSig": {"hex": "1600146aeacdd4dd53a8744fb2ca7ea2a563c82315a98e", "asm": "00146aeacdd4dd53a8744fb2ca7ea2a563c82315a98e"}, "vout": 0, "txid": "78342d47b539cb0ebd88f41e31ca94fb831c24ee084f149ac1f885bd7fa56d86"}], "txid": "ced1750788ed63cf1a03bf0522ca72e47b96df58a351beb8a64e4351768b9409", "blocktime": 1537871767, "version": 2, "confirmations": 11495, "time": 1537871767, "locktime": 0, "vsize": 349, "size": 592}