{"hash": "ced793e5dfa4c27d88758c0821e6225c1a74a6f5caea7cb7920b1f4bf0a15860", "blockhash": "00000000000000000004ffacab907a6b429b9a5745fa0b75af4234bf69dd7176", "vout": [{"scriptPubKey": {"reqSigs": 1, "hex": "a91449f91e9957a1bd5f8d9778e8c8b6482cb86178ca87", "addresses": ["38S9gg8unwUrNAymZAJqV8wKC6258nmCNw"], "asm": "OP_HASH160 49f91e9957a1bd5f8d9778e8c8b6482cb86178ca OP_EQUAL", "type": "scripthash"}, "value": 0.15734841, "n": 0}, {"scriptPubKey": {"reqSigs": 1, "hex": "76a91439f8542f5a415ba324414559d76fd5b57ccd346a88ac", "addresses": ["16HX18Fzms1Yos1xzj4EM974QuiqLcPgTE"], "asm": "OP_DUP OP_HASH160 39f8542f5a415ba324414559d76fd5b57ccd346a OP_EQUALVERIFY OP_CHECKSIG", "type": "pubkeyhash"}, "value": 11.32607112, "n": 1}], "hex": "01000000019a4f63b41f0c59c45fb6273e9c0f201ca1dcd2013adbcea9218083129e7e808b010000006b483045022100cde5d6254c19b689874e4102849dd17be3a1cdb36a39d1d0ead576e90300860a02203e413f34b6a40d329fa36b77223edf80df87188be02031cd7b0fc9db87d8a41c01210279b9215bb3100fa4ae3c5a42955e390d3d1814e157cfd6a42fd7e68f4837464cffffffff023918f0000000000017a91449f91e9957a1bd5f8d9778e8c8b6482cb86178ca8788368243000000001976a91439f8542f5a415ba324414559d76fd5b57ccd346a88ac00000000", "vin": [{"sequence": 4294967295, "scriptSig": {"hex": "483045022100cde5d6254c19b689874e4102849dd17be3a1cdb36a39d1d0ead576e90300860a02203e413f34b6a40d329fa36b77223edf80df87188be02031cd7b0fc9db87d8a41c01210279b9215bb3100fa4ae3c5a42955e390d3d1814e157cfd6a42fd7e68f4837464c", "asm": "3045022100cde5d6254c19b689874e4102849dd17be3a1cdb36a39d1d0ead576e90300860a02203e413f34b6a40d329fa36b77223edf80df87188be02031cd7b0fc9db87d8a41c[ALL] 0279b9215bb3100fa4ae3c5a42955e390d3d1814e157cfd6a42fd7e68f4837464c"}, "vout": 1, "txid": "8b807e9e12838021a9cedb3a01d2dca11c200f9c3e27b65fc4590c1fb4634f9a"}], "txid": "ced793e5dfa4c27d88758c0821e6225c1a74a6f5caea7cb7920b1f4bf0a15860", "blocktime": 1537875543, "version": 1, "confirmations": 11464, "time": 1537875543, "locktime": 0, "vsize": 224, "size": 224}