{"hash": "ced87f77fd5562ff8fd745dab95eb9dacd6e0fa1d95b5f2cefd4b8efa97c18a0", "blockhash": "0000000000000000000e13cef7c366c0283d82e591d1acd082e914b08063cdf1", "vout": [{"scriptPubKey": {"type": "nulldata", "hex": "6a146f6d6e69000000000000001f0000002e90edd000", "asm": "OP_RETURN 6f6d6e69000000000000001f0000002e90edd000"}, "value": 0.0, "n": 0}, {"scriptPubKey": {"reqSigs": 1, "hex": "76a9147a5fe51c4bad13c00a4627a09f53909e594c473a88ac", "addresses": ["1CA4KJXRy6wZL22GL2HyaVMjJxUsgrG2ny"], "asm": "OP_DUP OP_HASH160 7a5fe51c4bad13c00a4627a09f53909e594c473a OP_EQUALVERIFY OP_CHECKSIG", "type": "pubkeyhash"}, "value": 5.46e-06, "n": 1}, {"scriptPubKey": {"reqSigs": 1, "hex": "76a914a25dec4d0011064ef106a983c39c7a540699f22088ac", "addresses": ["1FoWyxwPXuj4C6abqwhjDWdz6D4PZgYRjA"], "asm": "OP_DUP OP_HASH160 a25dec4d0011064ef106a983c39c7a540699f220 OP_EQUALVERIFY OP_CHECKSIG", "type": "pubkeyhash"}, "value": 0.01980807, "n": 2}], "hex": "0100000001827d494c078e00834e17f602f290e80fa0ef7cd63f2408275fe841b399ab9d9d000000006a473044022011896a458a13720f6aea8be8adbc3039c7dd209ab8d6af5c3e634a73fdfa008a022066aadc433bbc36f6074f34194f99fcb08a05badfcb248e3c89341ada0bf02d13012103da5bac7b36d5aa38f531c6b9601e21bb598a4b6716ebed38b009a55dabde9440feffffff030000000000000000166a146f6d6e69000000000000001f0000002e90edd00022020000000000001976a9147a5fe51c4bad13c00a4627a09f53909e594c473a88ac87391e00000000001976a914a25dec4d0011064ef106a983c39c7a540699f22088ac10490800", "vin": [{"sequence": 4294967294, "scriptSig": {"hex": "473044022011896a458a13720f6aea8be8adbc3039c7dd209ab8d6af5c3e634a73fdfa008a022066aadc433bbc36f6074f34194f99fcb08a05badfcb248e3c89341ada0bf02d13012103da5bac7b36d5aa38f531c6b9601e21bb598a4b6716ebed38b009a55dabde9440", "asm": "3044022011896a458a13720f6aea8be8adbc3039c7dd209ab8d6af5c3e634a73fdfa008a022066aadc433bbc36f6074f34194f99fcb08a05badfcb248e3c89341ada0bf02d13[ALL] 03da5bac7b36d5aa38f531c6b9601e21bb598a4b6716ebed38b009a55dabde9440"}, "vout": 0, "txid": "9d9dab99b341e85f2708243fd67cefa00fe890f202f6174e83008e074c497d82"}], "txid": "ced87f77fd5562ff8fd745dab95eb9dacd6e0fa1d95b5f2cefd4b8efa97c18a0", "blocktime": 1537871767, "version": 1, "confirmations": 11490, "time": 1537871767, "locktime": 542992, "vsize": 256, "size": 256}