{"hash": "ced93b64b54daad2c65447c64d3aad5152b7beafe84055b1736e1e9c9cd48d2a", "blockhash": "0000000000000000001f76057863aec43deb6fa401d9628bb513d65a8098bfab", "vout": [{"scriptPubKey": {"reqSigs": 1, "hex": "76a914c673bf171255b04f5ccfd98694e4d2d5c721dee188ac", "addresses": ["1K6KTBpGoMhKnj3SsbKYiuUnAZrp9cYxdq"], "asm": "OP_DUP OP_HASH160 c673bf171255b04f5ccfd98694e4d2d5c721dee1 OP_EQUALVERIFY OP_CHECKSIG", "type": "pubkeyhash"}, "value": 0.0068574, "n": 0}], "hex": "01000000010eb6aba30f7f92890224a77c2accd5722380a6fb6dff8bc8dc8ba0787e9d887b000000006a4730440220305d1314320700c2cb9e313fa3ff4129a2d4b47c64d43a2369230cf13e014b6f0220744128eb937cf2c53b20f8899739c4c310d6a513ef2eb0efdee653784689e5d0012102221555b02bb1a1e03d26310f8a18c1512580ff3dd9836073f10962f5e10a989effffffff01ac760a00000000001976a914c673bf171255b04f5ccfd98694e4d2d5c721dee188ac00000000", "vin": [{"sequence": 4294967295, "scriptSig": {"hex": "4730440220305d1314320700c2cb9e313fa3ff4129a2d4b47c64d43a2369230cf13e014b6f0220744128eb937cf2c53b20f8899739c4c310d6a513ef2eb0efdee653784689e5d0012102221555b02bb1a1e03d26310f8a18c1512580ff3dd9836073f10962f5e10a989e", "asm": "30440220305d1314320700c2cb9e313fa3ff4129a2d4b47c64d43a2369230cf13e014b6f0220744128eb937cf2c53b20f8899739c4c310d6a513ef2eb0efdee653784689e5d0[ALL] 02221555b02bb1a1e03d26310f8a18c1512580ff3dd9836073f10962f5e10a989e"}, "vout": 0, "txid": "7b889d7e78a08bdcc88bff6dfba6802372d5cc2a7ca7240289927f0fa3abb60e"}], "txid": "ced93b64b54daad2c65447c64d3aad5152b7beafe84055b1736e1e9c9cd48d2a", "blocktime": 1537873891, "version": 1, "confirmations": 11475, "time": 1537873891, "locktime": 0, "vsize": 191, "size": 191}