{"hash": "ced974ef5039b5915102acce0a1b020b33577a7aed299767db2676bef04e80ca", "blockhash": "0000000000000000000e13cef7c366c0283d82e591d1acd082e914b08063cdf1", "vout": [{"scriptPubKey": {"reqSigs": 1, "hex": "76a914d243e6abb9a60fbff430b421d2df4b7d59ec186088ac", "addresses": ["1LAnF8h3qMGx3TSwNUHVneBZUEpwE4gu3D"], "asm": "OP_DUP OP_HASH160 d243e6abb9a60fbff430b421d2df4b7d59ec1860 OP_EQUALVERIFY OP_CHECKSIG", "type": "pubkeyhash"}, "value": 0.00076972, "n": 0}, {"scriptPubKey": {"reqSigs": 1, "hex": "76a9143851f34d13937b673a7d24a1950bb5b21ce94af388ac", "addresses": ["168o1kqNquEJeR9vosUB5fw4eAwcVAgh8P"], "asm": "OP_DUP OP_HASH160 3851f34d13937b673a7d24a1950bb5b21ce94af3 OP_EQUALVERIFY OP_CHECKSIG", "type": "pubkeyhash"}, "value": 5.46e-06, "n": 1}, {"scriptPubKey": {"type": "nulldata", "hex": "6a146f6d6e69000000000000001f0000062c3c2e8790", "asm": "OP_RETURN 6f6d6e69000000000000001f0000062c3c2e8790"}, "value": 0.0, "n": 2}], "hex": "01000000022b65fc14ef6e58bd161047f3a48600bca1de3555a5f993989109156eaeee69b0000000006b483045022100afdfb580e74814bd1d613b4b68ebb5ffd90433fe768244ade7bbb60aad13da09022065b9e36bdbc58e325ab1aaf51eec2488aff5b9f3af45cfd98557658da6162c9b0121038e946a2319b8ff9bce3dfedcf7846e1369391c1055048ff85562ee04c0d68454ffffffff267c87be9a3b615d4355ca28fa6dbdc49fdd1257372389b61b78e70f5f239560000000006b483045022100c4577828e7495a66b3d30805e24e800b796e4e2e5286883472a6e45723ad192b02202303d355c201cc052f4075d038ac44a2c89a6df3a7b70147f84102d2245400ea01210271977291b74f1f5f5c42157e8aae804664eaaeccfd097918450d37f28fb94d77ffffffff03ac2c0100000000001976a914d243e6abb9a60fbff430b421d2df4b7d59ec186088ac22020000000000001976a9143851f34d13937b673a7d24a1950bb5b21ce94af388ac0000000000000000166a146f6d6e69000000000000001f0000062c3c2e879000000000", "vin": [{"sequence": 4294967295, "scriptSig": {"hex": "483045022100afdfb580e74814bd1d613b4b68ebb5ffd90433fe768244ade7bbb60aad13da09022065b9e36bdbc58e325ab1aaf51eec2488aff5b9f3af45cfd98557658da6162c9b0121038e946a2319b8ff9bce3dfedcf7846e1369391c1055048ff85562ee04c0d68454", "asm": "3045022100afdfb580e74814bd1d613b4b68ebb5ffd90433fe768244ade7bbb60aad13da09022065b9e36bdbc58e325ab1aaf51eec2488aff5b9f3af45cfd98557658da6162c9b[ALL] 038e946a2319b8ff9bce3dfedcf7846e1369391c1055048ff85562ee04c0d68454"}, "vout": 0, "txid": "b069eeae6e1509919893f9a55535dea1bc0086a4f3471016bd586eef14fc652b"}, {"sequence": 4294967295, "scriptSig": {"hex": "483045022100c4577828e7495a66b3d30805e24e800b796e4e2e5286883472a6e45723ad192b02202303d355c201cc052f4075d038ac44a2c89a6df3a7b70147f84102d2245400ea01210271977291b74f1f5f5c42157e8aae804664eaaeccfd097918450d37f28fb94d77", "asm": "3045022100c4577828e7495a66b3d30805e24e800b796e4e2e5286883472a6e45723ad192b02202303d355c201cc052f4075d038ac44a2c89a6df3a7b70147f84102d2245400ea[ALL] 0271977291b74f1f5f5c42157e8aae804664eaaeccfd097918450d37f28fb94d77"}, "vout": 0, "txid": "6095235f0fe7781bb68923375712dd9fc4bd6dfa28ca55435d613b9abe877c26"}], "txid": "ced974ef5039b5915102acce0a1b020b33577a7aed299767db2676bef04e80ca", "blocktime": 1537871767, "version": 1, "confirmations": 11491, "time": 1537871767, "locktime": 0, "vsize": 405, "size": 405}