{"hash": "7b9a903242222e8977c51ed179795237c1b1f1b6feb8c8c794e6ee5b190290fc", "blockhash": "0000000000000000001f0ddff1eddb255c1121bcd4da4f1bc9a0da00cae72433", "vout": [{"scriptPubKey": {"reqSigs": 1, "hex": "a9140d7aed7a9ba0ac8ced6059bee0e7a978df36d8e687", "addresses": ["32vHyCav6KMEKakGTKs5GZBvwgcuPnLW4F"], "asm": "OP_HASH160 0d7aed7a9ba0ac8ced6059bee0e7a978df36d8e6 OP_EQUAL", "type": "scripthash"}, "value": 0.00776586, "n": 0}, {"scriptPubKey": {"reqSigs": 1, "hex": "a9141988a27e3c2df4ddee7fad5a2303d086179b2a3087", "addresses": ["3422VtS7UtCvXYxoXMVp6eZupR252z85oC"], "asm": "OP_HASH160 1988a27e3c2df4ddee7fad5a2303d086179b2a30 OP_EQUAL", "type": "scripthash"}, "value": 3.19843731, "n": 1}], "hex": "01000000000101792a98b0f47a428ad858a3596dc363347394779f73524e6e827b924ec80cfee2020000002322002065d416c48a8072e0ac51c2d111eb194f009caef0332446c1bf2097316cf07fa9ffffffff028ad90b000000000017a9140d7aed7a9ba0ac8ced6059bee0e7a978df36d8e687936d10130000000017a9141988a27e3c2df4ddee7fad5a2303d086179b2a30870400483045022100aec9d0ffe8f486b2447da6da22782fb4df83eec4b28dc4fb0b95118b962a2caf022046f619bb24b60c83473247e33aedcf0a1e4d7b05da6f1cc96bcf00fc0fe71e12014830450221008b0f6f0bdb4ec1cf7dee783c19f04af034db913d7c21da78a784c43b4623244d02204273641471bdbcc54bc30cd316d63255a6d79d8d23219abab0b956a4a96d00280169522102f44abcf9e23c9a460da309ccca56c619c04eed3bde2c2cff5e7d78fbcd980b9c2103c9443cf3047bb6c2c82f1b0c44c36109cdc3d0d601d16d1189a1602bf8d1a0a02103bfe867059274412412e088af5572b92168c2ef495cfe6c9b7a753a009eb37c4853ae00000000", "vin": [{"txinwitness": ["", "3045022100aec9d0ffe8f486b2447da6da22782fb4df83eec4b28dc4fb0b95118b962a2caf022046f619bb24b60c83473247e33aedcf0a1e4d7b05da6f1cc96bcf00fc0fe71e1201", "30450221008b0f6f0bdb4ec1cf7dee783c19f04af034db913d7c21da78a784c43b4623244d02204273641471bdbcc54bc30cd316d63255a6d79d8d23219abab0b956a4a96d002801", "522102f44abcf9e23c9a460da309ccca56c619c04eed3bde2c2cff5e7d78fbcd980b9c2103c9443cf3047bb6c2c82f1b0c44c36109cdc3d0d601d16d1189a1602bf8d1a0a02103bfe867059274412412e088af5572b92168c2ef495cfe6c9b7a753a009eb37c4853ae"], "sequence": 4294967295, "scriptSig": {"hex": "22002065d416c48a8072e0ac51c2d111eb194f009caef0332446c1bf2097316cf07fa9", "asm": "002065d416c48a8072e0ac51c2d111eb194f009caef0332446c1bf2097316cf07fa9"}, "vout": 2, "txid": "e2fe0cc84e927b826e4e52739f7794733463c36d59a358d88a427af4b0982a79"}], "txid": "cedaca765282446f1af896c9fd1446ed0988c077a28ff365e9cea9a5cefb2322", "blocktime": 1537872018, "version": 1, "confirmations": 11489, "time": 1537872018, "locktime": 0, "vsize": 214, "size": 406}