{"hash": "ceddeef3334be23859969e29593db53d8e687f29771b5a14923615ff36015345", "blockhash": "0000000000000000001cda96e906b7601b7a6fb1a3b62bca570a9e5d8f4b3de1", "vout": [{"scriptPubKey": {"reqSigs": 1, "hex": "76a914da920b4de3641e4f44a7504d7f4631aa8d876cd988ac", "addresses": ["1LvhG9QgU9MHaEGSeEnghw55EszLsMNFKR"], "asm": "OP_DUP OP_HASH160 da920b4de3641e4f44a7504d7f4631aa8d876cd9 OP_EQUALVERIFY OP_CHECKSIG", "type": "pubkeyhash"}, "value": 2.0687023, "n": 0}], "hex": "0100000002ab45d6fd57e92ccdfc4f9d221945dc0bf375eb3a69a3931e3ae7e2378abf4695010000006b483045022100c54ef857586fb55ad4a7b5ae02f4ecf89d8e9ba00624632768f62436d9651079022056cf63ca3e8d2e89151f9d22ad41f132359d5a2f0d2ee2eca0790ce6257444d9012102ffbd6d7278538b4d98da46e4e9e26d37a836314f0b278e974f38c4dd8bfc32d7ffffffff2a9f85ff9b41649404b6e1e4887e32cd3c9ea183cbf6646e6769e602a7cd4cd0000000006a47304402202ed250a6fbcb1626cf3bdeeae986bba74f205e8c6749c4cb44a1b3f5d317961102201f9c34704b68d0209fc3a2bc9782fa8a46ad931b4b86ce5e9f6c60f2efeb9633012102ffbd6d7278538b4d98da46e4e9e26d37a836314f0b278e974f38c4dd8bfc32d7ffffffff01d696540c000000001976a914da920b4de3641e4f44a7504d7f4631aa8d876cd988ac00000000", "vin": [{"sequence": 4294967295, "scriptSig": {"hex": "483045022100c54ef857586fb55ad4a7b5ae02f4ecf89d8e9ba00624632768f62436d9651079022056cf63ca3e8d2e89151f9d22ad41f132359d5a2f0d2ee2eca0790ce6257444d9012102ffbd6d7278538b4d98da46e4e9e26d37a836314f0b278e974f38c4dd8bfc32d7", "asm": "3045022100c54ef857586fb55ad4a7b5ae02f4ecf89d8e9ba00624632768f62436d9651079022056cf63ca3e8d2e89151f9d22ad41f132359d5a2f0d2ee2eca0790ce6257444d9[ALL] 02ffbd6d7278538b4d98da46e4e9e26d37a836314f0b278e974f38c4dd8bfc32d7"}, "vout": 1, "txid": "9546bf8a37e2e73a1e93a3693aeb75f30bdc4519229d4ffccd2ce957fdd645ab"}, {"sequence": 4294967295, "scriptSig": {"hex": "47304402202ed250a6fbcb1626cf3bdeeae986bba74f205e8c6749c4cb44a1b3f5d317961102201f9c34704b68d0209fc3a2bc9782fa8a46ad931b4b86ce5e9f6c60f2efeb9633012102ffbd6d7278538b4d98da46e4e9e26d37a836314f0b278e974f38c4dd8bfc32d7", "asm": "304402202ed250a6fbcb1626cf3bdeeae986bba74f205e8c6749c4cb44a1b3f5d317961102201f9c34704b68d0209fc3a2bc9782fa8a46ad931b4b86ce5e9f6c60f2efeb9633[ALL] 02ffbd6d7278538b4d98da46e4e9e26d37a836314f0b278e974f38c4dd8bfc32d7"}, "vout": 0, "txid": "d04ccda702e669676e64f6cb83a19e3ccd327e88e4e1b6049464419bff859f2a"}], "txid": "ceddeef3334be23859969e29593db53d8e687f29771b5a14923615ff36015345", "blocktime": 1537873282, "version": 1, "confirmations": 11480, "time": 1537873282, "locktime": 0, "vsize": 339, "size": 339}