{"hash": "cedf41c18a4d95409b8f8aa8f9703c382c98692c4bfb40867bd1feb68cbcc914", "blockhash": "000000000000000000022b45ed06c6f4ccd3cf7fb5ba4856ebd2e58215665228", "vout": [{"scriptPubKey": {"reqSigs": 1, "hex": "76a914239e3dd6853740c2ff35fee861e17be9f1ab6c2c88ac", "addresses": ["14FLDXk1tqaSw2WeBxE5jsHDDhv6q4trco"], "asm": "OP_DUP OP_HASH160 239e3dd6853740c2ff35fee861e17be9f1ab6c2c OP_EQUALVERIFY OP_CHECKSIG", "type": "pubkeyhash"}, "value": 0.00100417, "n": 0}, {"scriptPubKey": {"reqSigs": 1, "hex": "a91409b241cb007eddfa0b342e11caf05317d5d7a9bc87", "addresses": ["32aHYnRaaXkZZMFwrZjQj2Qb9DwosgVccb"], "asm": "OP_HASH160 09b241cb007eddfa0b342e11caf05317d5d7a9bc OP_EQUAL", "type": "scripthash"}, "value": 0.00156018, "n": 1}], "hex": "01000000026f94c29023e16707be13685e426d3b4e91651d5562860aced1e56dc337477e79000000006b483045022100d1a2e9a0d3bc40442f8ce00311b30d6681fa3ab21e8ee131e543c7242bf523d502201cf56c956a37edc31fbbe9a01385ca2e46ddc2b6b40342aa58bc5ebe34ff0b21012103d907473b2cc3aba49db44969f4d1045094e206052856fc48c471343e01f76d96ffffffffcc5eaff6ea84b56a5bb953eb7004e1cbe4c64d806ddc7122180788bd8298c5bb000000006a4730440220496365e64e81c3b0bdf0e2d12b093977b22683deda23c143098cc82f206a89ef022059de3976e3718e1faea5e70bba4c4be792fea5537d4c37e63f49c83c64282ebc012102f9f78b4eb31a3613a8b295034ea7ec96b38554d75961f68512a6a777c63adb89ffffffff0241880100000000001976a914239e3dd6853740c2ff35fee861e17be9f1ab6c2c88ac726102000000000017a91409b241cb007eddfa0b342e11caf05317d5d7a9bc8700000000", "vin": [{"sequence": 4294967295, "scriptSig": {"hex": "483045022100d1a2e9a0d3bc40442f8ce00311b30d6681fa3ab21e8ee131e543c7242bf523d502201cf56c956a37edc31fbbe9a01385ca2e46ddc2b6b40342aa58bc5ebe34ff0b21012103d907473b2cc3aba49db44969f4d1045094e206052856fc48c471343e01f76d96", "asm": "3045022100d1a2e9a0d3bc40442f8ce00311b30d6681fa3ab21e8ee131e543c7242bf523d502201cf56c956a37edc31fbbe9a01385ca2e46ddc2b6b40342aa58bc5ebe34ff0b21[ALL] 03d907473b2cc3aba49db44969f4d1045094e206052856fc48c471343e01f76d96"}, "vout": 0, "txid": "797e4737c36de5d1ce0a8662551d65914e3b6d425e6813be0767e12390c2946f"}, {"sequence": 4294967295, "scriptSig": {"hex": "4730440220496365e64e81c3b0bdf0e2d12b093977b22683deda23c143098cc82f206a89ef022059de3976e3718e1faea5e70bba4c4be792fea5537d4c37e63f49c83c64282ebc012102f9f78b4eb31a3613a8b295034ea7ec96b38554d75961f68512a6a777c63adb89", "asm": "30440220496365e64e81c3b0bdf0e2d12b093977b22683deda23c143098cc82f206a89ef022059de3976e3718e1faea5e70bba4c4be792fea5537d4c37e63f49c83c64282ebc[ALL] 02f9f78b4eb31a3613a8b295034ea7ec96b38554d75961f68512a6a777c63adb89"}, "vout": 0, "txid": "bbc59882bd8807182271dc6d804dc6e4cbe10470eb53b95b6ab584eaf6af5ecc"}], "txid": "cedf41c18a4d95409b8f8aa8f9703c382c98692c4bfb40867bd1feb68cbcc914", "blocktime": 1537869901, "version": 1, "confirmations": 11523, "time": 1537869901, "locktime": 0, "vsize": 371, "size": 371}