{"hash": "ceea85b4d43adfbd2a1b14679f9a6aefb0172eb5dee878a4da14b2f34ccd30f3", "blockhash": "0000000000000000001cda96e906b7601b7a6fb1a3b62bca570a9e5d8f4b3de1", "vout": [{"scriptPubKey": {"reqSigs": 1, "hex": "76a9144a0f1e2f2b0d7daeec5265f10bbbbe08ed725e8988ac", "addresses": ["17kb7c9ndg7ioSuzMWEHWECdEVUegNkcGc"], "asm": "OP_DUP OP_HASH160 4a0f1e2f2b0d7daeec5265f10bbbbe08ed725e89 OP_EQUALVERIFY OP_CHECKSIG", "type": "pubkeyhash"}, "value": 0.00155472, "n": 0}], "hex": "010000000116b6fa7c5c94d7fb0fb84216100e86ab08f17454b2a9f1bc79e226711a86d557000000006a47304402204b0f62526f0dd5d0b5d56bc02e26e073c0f5c19c5059b4dad40bb64a67ecc6dc022050af7f8c403c69e458a2b9f505fbe4232598f348a3823bd639fd6f9409e02b45012102bbcb734c6d1048587cef0726e95f51575bd960f9826795dd99b1ade71565eaa0ffffffff01505f0200000000001976a9144a0f1e2f2b0d7daeec5265f10bbbbe08ed725e8988ac00000000", "vin": [{"sequence": 4294967295, "scriptSig": {"hex": "47304402204b0f62526f0dd5d0b5d56bc02e26e073c0f5c19c5059b4dad40bb64a67ecc6dc022050af7f8c403c69e458a2b9f505fbe4232598f348a3823bd639fd6f9409e02b45012102bbcb734c6d1048587cef0726e95f51575bd960f9826795dd99b1ade71565eaa0", "asm": "304402204b0f62526f0dd5d0b5d56bc02e26e073c0f5c19c5059b4dad40bb64a67ecc6dc022050af7f8c403c69e458a2b9f505fbe4232598f348a3823bd639fd6f9409e02b45[ALL] 02bbcb734c6d1048587cef0726e95f51575bd960f9826795dd99b1ade71565eaa0"}, "vout": 0, "txid": "57d5861a7126e279bcf1a9b25474f108ab860e101642b80ffbd7945c7cfab616"}], "txid": "ceea85b4d43adfbd2a1b14679f9a6aefb0172eb5dee878a4da14b2f34ccd30f3", "blocktime": 1537873282, "version": 1, "confirmations": 11482, "time": 1537873282, "locktime": 0, "vsize": 191, "size": 191}