{"hash": "d0d7c77dc381e2c3e9610d456b5d78d9c464a1fce9c86b6237a225cb888615be", "blockhash": "0000000000000000001f76057863aec43deb6fa401d9628bb513d65a8098bfab", "vout": [{"scriptPubKey": {"reqSigs": 1, "hex": "76a914ca756e8e92453f7eb8486c0df0ff40390484a9a088ac", "addresses": ["1KTWB4QDdYHLrdUoBysmvMhtNKRikqq6FY"], "asm": "OP_DUP OP_HASH160 ca756e8e92453f7eb8486c0df0ff40390484a9a0 OP_EQUALVERIFY OP_CHECKSIG", "type": "pubkeyhash"}, "value": 0.00056, "n": 0}, {"scriptPubKey": {"reqSigs": 1, "hex": "a914953bf44403960eadb39ed3e4ba599b3d824f357287", "addresses": ["3FJ6RpD4kMwvTFXtoj8D8Gkugfy1gbKdYx"], "asm": "OP_HASH160 953bf44403960eadb39ed3e4ba599b3d824f3572 OP_EQUAL", "type": "scripthash"}, "value": 0.01023227, "n": 1}], "hex": "0200000000010191dac31cfedddad48c86b374a8c385c9b9b020d592cb4f15040f948dfdfe806a0000000017160014f876358594edfcde4145b6183f3cbd69a48b243afeffffff02c0da0000000000001976a914ca756e8e92453f7eb8486c0df0ff40390484a9a088acfb9c0f000000000017a914953bf44403960eadb39ed3e4ba599b3d824f357287024730440220228f3ccb2f6c1b96065551cb3c466f7cb21b68671eca68ee6f870fce99ca302502201996c66b66bb8ff9ace2f4ab5e2a5c3c31e9ce205def9401f779e58cc99f2a3a01210327827fca1101916ca0bef9ec0c9abf9a0efd3ff6d5f9aebde800f1d260f0f94414490800", "vin": [{"txinwitness": ["30440220228f3ccb2f6c1b96065551cb3c466f7cb21b68671eca68ee6f870fce99ca302502201996c66b66bb8ff9ace2f4ab5e2a5c3c31e9ce205def9401f779e58cc99f2a3a01", "0327827fca1101916ca0bef9ec0c9abf9a0efd3ff6d5f9aebde800f1d260f0f944"], "sequence": 4294967294, "scriptSig": {"hex": "160014f876358594edfcde4145b6183f3cbd69a48b243a", "asm": "0014f876358594edfcde4145b6183f3cbd69a48b243a"}, "vout": 0, "txid": "6a80fefd8d940f04154fcb92d520b0b9c985c3a874b3868cd4daddfe1cc3da91"}], "txid": "ceec79b873c895fabdac43610cf4ddca15d2ef27b93fafcfa0e52ad07d03efc5", "blocktime": 1537873891, "version": 2, "confirmations": 11475, "time": 1537873891, "locktime": 542996, "vsize": 168, "size": 249}