{"hash": "ceeed60bcb8dcd6aacf59748f479ba9a60c92decc0893999b85e44418160e7b2", "blockhash": "0000000000000000001f0ddff1eddb255c1121bcd4da4f1bc9a0da00cae72433", "vout": [{"scriptPubKey": {"reqSigs": 1, "hex": "76a914088d466bf619f832a9b912529c4891136303112e88ac", "addresses": ["1nDeVyjo4qpK7mYgKVs7L8vZcrG3bf4Fd"], "asm": "OP_DUP OP_HASH160 088d466bf619f832a9b912529c4891136303112e OP_EQUALVERIFY OP_CHECKSIG", "type": "pubkeyhash"}, "value": 0.00158, "n": 0}, {"scriptPubKey": {"reqSigs": 1, "hex": "76a914a63d1dfbff18524f7543aebbece7af5ffe7cb5ea88ac", "addresses": ["1G9zPLW7CvKwCMLGSQTJRa41vmBBj9JFGM"], "asm": "OP_DUP OP_HASH160 a63d1dfbff18524f7543aebbece7af5ffe7cb5ea OP_EQUALVERIFY OP_CHECKSIG", "type": "pubkeyhash"}, "value": 0.024865, "n": 1}], "hex": "0100000001dc61b2f03928643992d97415ec74c28a1b7c8f8d5716f664b4c5465c2171b0f6010000006a47304402200454bcec85e841f8803f6bf8857e004786116d4008bbb210e643ebcd9570ac3a02200a35896ad9c05782a6113da29ec6c7bd0522b150f0963daa788539bd7ab8878b0121037d25ba1e4cb803f081508d330a6ef8385f4f8044ffc0b8f1cb8750e63f439e9affffffff0230690200000000001976a914088d466bf619f832a9b912529c4891136303112e88ace4f02500000000001976a914a63d1dfbff18524f7543aebbece7af5ffe7cb5ea88ac00000000", "vin": [{"sequence": 4294967295, "scriptSig": {"hex": "47304402200454bcec85e841f8803f6bf8857e004786116d4008bbb210e643ebcd9570ac3a02200a35896ad9c05782a6113da29ec6c7bd0522b150f0963daa788539bd7ab8878b0121037d25ba1e4cb803f081508d330a6ef8385f4f8044ffc0b8f1cb8750e63f439e9a", "asm": "304402200454bcec85e841f8803f6bf8857e004786116d4008bbb210e643ebcd9570ac3a02200a35896ad9c05782a6113da29ec6c7bd0522b150f0963daa788539bd7ab8878b[ALL] 037d25ba1e4cb803f081508d330a6ef8385f4f8044ffc0b8f1cb8750e63f439e9a"}, "vout": 1, "txid": "f6b071215c46c5b464f616578d8f7c1b8ac274ec1574d99239642839f0b261dc"}], "txid": "ceeed60bcb8dcd6aacf59748f479ba9a60c92decc0893999b85e44418160e7b2", "blocktime": 1537872018, "version": 1, "confirmations": 11489, "time": 1537872018, "locktime": 0, "vsize": 225, "size": 225}