{"hash": "ceefa682b0df910bb262f3b14c575f81bd8e3f0e0d26d2407f9f002c09af9b12", "blockhash": "0000000000000000000e13cef7c366c0283d82e591d1acd082e914b08063cdf1", "vout": [{"scriptPubKey": {"type": "nulldata", "hex": "6a4c50000077a100017aeeb0efea85e68cbd4bafe4af6c953dd567cf27e7e3ef3236678a62509789436e322618ef0bc4455e3aa58ec0eb5baa0e670614b397304af9fd1d100759d4ba30d2c37bb011d97e02cf", "asm": "OP_RETURN 000077a100017aeeb0efea85e68cbd4bafe4af6c953dd567cf27e7e3ef3236678a62509789436e322618ef0bc4455e3aa58ec0eb5baa0e670614b397304af9fd1d100759d4ba30d2c37bb011d97e02cf"}, "value": 0.0, "n": 0}, {"scriptPubKey": {"reqSigs": 1, "hex": "76a914d36d4e6521da393e4cf681600a1e262597b9c4a888ac", "addresses": ["1LGvXCxtZqLusqjQZJXSDbvpWZA2T7b5sU"], "asm": "OP_DUP OP_HASH160 d36d4e6521da393e4cf681600a1e262597b9c4a8 OP_EQUALVERIFY OP_CHECKSIG", "type": "pubkeyhash"}, "value": 0.00641309, "n": 1}], "hex": "01000000012fd355ba8b63ece5ee1fecb6f65d82d6497777d0885e4b09b6f6749983467338000000006a47304402206c77fbb2fc4dc38c208cd7f6e233d629b3266fdd9a0049c3ddbb3356eee1211e02206ff3ff31f48052c839ab0348f4776ad51d3f69b548187d83ccae61ce420bab1e01210223da03c4db4895274a6be5d5ef0713d98c6d54220b5e053a2eeaeff8723ba1ccffffffff020000000000000000536a4c50000077a100017aeeb0efea85e68cbd4bafe4af6c953dd567cf27e7e3ef3236678a62509789436e322618ef0bc4455e3aa58ec0eb5baa0e670614b397304af9fd1d100759d4ba30d2c37bb011d97e02cf1dc90900000000001976a914d36d4e6521da393e4cf681600a1e262597b9c4a888ac00000000", "vin": [{"sequence": 4294967295, "scriptSig": {"hex": "47304402206c77fbb2fc4dc38c208cd7f6e233d629b3266fdd9a0049c3ddbb3356eee1211e02206ff3ff31f48052c839ab0348f4776ad51d3f69b548187d83ccae61ce420bab1e01210223da03c4db4895274a6be5d5ef0713d98c6d54220b5e053a2eeaeff8723ba1cc", "asm": "304402206c77fbb2fc4dc38c208cd7f6e233d629b3266fdd9a0049c3ddbb3356eee1211e02206ff3ff31f48052c839ab0348f4776ad51d3f69b548187d83ccae61ce420bab1e[ALL] 0223da03c4db4895274a6be5d5ef0713d98c6d54220b5e053a2eeaeff8723ba1cc"}, "vout": 0, "txid": "387346839974f6b6094b5e88d0777749d6825df6b6ec1feee5ec638bba55d32f"}], "txid": "ceefa682b0df910bb262f3b14c575f81bd8e3f0e0d26d2407f9f002c09af9b12", "blocktime": 1537871767, "version": 1, "confirmations": 11495, "time": 1537871767, "locktime": 0, "vsize": 283, "size": 283}