{"hash": "88f1bdd562bfb08b2c26556de857755c66a9a499e9fe496a2b05bcd1155aba3c", "blockhash": "0000000000000000000baef3f32e3676a92c3b2e5da21b426e4f302fc371ce76", "vout": [{"scriptPubKey": {"reqSigs": 1, "hex": "76a914c39859a4171386ce1d71f2e267b71b7b53ee789c88ac", "addresses": ["1JqDGt8oRKJ8x6cBrJKSjAW8TH1TdPRKhk"], "asm": "OP_DUP OP_HASH160 c39859a4171386ce1d71f2e267b71b7b53ee789c OP_EQUALVERIFY OP_CHECKSIG", "type": "pubkeyhash"}, "value": 0.02113386, "n": 0}, {"scriptPubKey": {"reqSigs": 1, "hex": "a914b4e8d7a2587c24e01d9a6ee047127e18383ac41787", "addresses": ["3JBaVEx2MhndvDQbFtDSq6AAXW3GMPFHVR"], "asm": "OP_HASH160 b4e8d7a2587c24e01d9a6ee047127e18383ac417 OP_EQUAL", "type": "scripthash"}, "value": 0.00069529, "n": 1}], "hex": "020000000001040f03193ade67198ac6df3cfc081ff2b76e43a39a7be959945aa934f3ce1ba19b01000000171600142d00e41cb0522cf978b532d9fd2074fb58119faeffffffffdf84ac02ea579631fb8446437cddccb66df09ac94fd9125d6a035435e87c7baf0100000017160014cbe33b723b83fb3ad016b6e86ba5f3921790d430ffffffff32bc1465c4613b82a2135f6fd4a1e593852db83b14aa5fb4f6be0785d9ac5a2a01000000171600145143ae31a0c9c310e0926acf7565c2ab457051ccffffffff49b195a54c81cc884e31c733efd86bf4aa2fc044684e1337bd2f8283b2db95d50100000017160014da1845e42b9fd4e5fd11e9f6b9b7814de5941dc0ffffffff026a3f2000000000001976a914c39859a4171386ce1d71f2e267b71b7b53ee789c88ac990f01000000000017a914b4e8d7a2587c24e01d9a6ee047127e18383ac4178702483045022100b936329c5ae4b943689777e7c835c40a999fad27c2260f12b5ff0a0538cf59910220034516e22b02329c0e60cd47ea579ee171b86d6fbb3798ae992fbe2380a9a7400121032c2426d9d348746f626d3dbfb0368297b12120a9640c410117759438252e77ec024730440220371ac1c5168f620ccd87a15a0d67cfb0db174b2544f8524a92bcc60ce8fa762e022046cb9e0ec191ae83e29676cf9f78329c44a619607ef196f4bcd3c3d3b65ab1d201210231af422a10443ef8fea20ca22a48a87f765f5785469bd3eac84682544faff55402473044022070a35ad2d0d692c25b165c4d567c255511367b1c02b5ecad765938442e27ea4302201225abf30057c091249e15d8bf82377284cbc54484583efb8588e95737978df601210336351a474b24cccadfa87a2ae1e1031ea58bf07222b410026226c9bf4b59e3c002473044022059cebc4e60ab305a454e6a48d79217cbcf7541823fc91719f0ccccb33295fb2f022053cbef51df839e374642e2c51aa00d267b3f1014811375da70f11f47c765d78001210203d0cd8c3ea8dee801fe9bccca16a28e58b148139624d03f5500ac2400b15bd300000000", "vin": [{"txinwitness": ["3045022100b936329c5ae4b943689777e7c835c40a999fad27c2260f12b5ff0a0538cf59910220034516e22b02329c0e60cd47ea579ee171b86d6fbb3798ae992fbe2380a9a74001", "032c2426d9d348746f626d3dbfb0368297b12120a9640c410117759438252e77ec"], "sequence": 4294967295, "scriptSig": {"hex": "1600142d00e41cb0522cf978b532d9fd2074fb58119fae", "asm": "00142d00e41cb0522cf978b532d9fd2074fb58119fae"}, "vout": 1, "txid": "9ba11bcef334a95a9459e97b9aa3436eb7f21f08fc3cdfc68a1967de3a19030f"}, {"txinwitness": ["30440220371ac1c5168f620ccd87a15a0d67cfb0db174b2544f8524a92bcc60ce8fa762e022046cb9e0ec191ae83e29676cf9f78329c44a619607ef196f4bcd3c3d3b65ab1d201", "0231af422a10443ef8fea20ca22a48a87f765f5785469bd3eac84682544faff554"], "sequence": 4294967295, "scriptSig": {"hex": "160014cbe33b723b83fb3ad016b6e86ba5f3921790d430", "asm": "0014cbe33b723b83fb3ad016b6e86ba5f3921790d430"}, "vout": 1, "txid": "af7b7ce83554036a5d12d94fc99af06db6ccdd7c434684fb319657ea02ac84df"}, {"txinwitness": ["3044022070a35ad2d0d692c25b165c4d567c255511367b1c02b5ecad765938442e27ea4302201225abf30057c091249e15d8bf82377284cbc54484583efb8588e95737978df601", "0336351a474b24cccadfa87a2ae1e1031ea58bf07222b410026226c9bf4b59e3c0"], "sequence": 4294967295, "scriptSig": {"hex": "1600145143ae31a0c9c310e0926acf7565c2ab457051cc", "asm": "00145143ae31a0c9c310e0926acf7565c2ab457051cc"}, "vout": 1, "txid": "2a5aacd98507bef6b45faa143bb82d8593e5a1d46f5f13a2823b61c46514bc32"}, {"txinwitness": ["3044022059cebc4e60ab305a454e6a48d79217cbcf7541823fc91719f0ccccb33295fb2f022053cbef51df839e374642e2c51aa00d267b3f1014811375da70f11f47c765d78001", "0203d0cd8c3ea8dee801fe9bccca16a28e58b148139624d03f5500ac2400b15bd3"], "sequence": 4294967295, "scriptSig": {"hex": "160014da1845e42b9fd4e5fd11e9f6b9b7814de5941dc0", "asm": "0014da1845e42b9fd4e5fd11e9f6b9b7814de5941dc0"}, "vout": 1, "txid": "d595dbb283822fbd37134e6844c02faaf46bd8ef33c7314e88cc814ca595b149"}], "txid": "cef0249764c3bbd3a8bf3bb0baa27619c1922019b5be16a88a4d817cb72eb2b3", "blocktime": 1537876114, "version": 2, "confirmations": 11459, "time": 1537876114, "locktime": 0, "vsize": 440, "size": 763}