{"hash": "8aba454430bbcb63ec8c8aa54ad02b6192e47e7cb3c7b26d1d7eb59ff30daba4", "blockhash": "0000000000000000001e0dab787dd257d1dbfcb92a98c2207d5e1078be1f4165", "vout": [{"scriptPubKey": {"reqSigs": 1, "hex": "76a9148dce5fc1e415529841e6909824fe9dd3e626a72788ac", "addresses": ["1DvoWAnFa6f76tfTdUcuDP1yttsDhg2XCw"], "asm": "OP_DUP OP_HASH160 8dce5fc1e415529841e6909824fe9dd3e626a727 OP_EQUALVERIFY OP_CHECKSIG", "type": "pubkeyhash"}, "value": 0.0026096, "n": 0}, {"scriptPubKey": {"reqSigs": 1, "hex": "a914ed3469b5ca2117c01c69e342c89de18cc04cfe1a87", "addresses": ["3PKEripN6qhn7VViUWy5qZre3UuVZnTFc4"], "asm": "OP_HASH160 ed3469b5ca2117c01c69e342c89de18cc04cfe1a OP_EQUAL", "type": "scripthash"}, "value": 0.01011927, "n": 1}], "hex": "0200000000010251163ecdc53c262243cb957ab038388d57699e9f52f939ccd4ca071ee95e90bc0100000017160014366a1582988d55354c94093b9cd59aa2c7d90be0feffffff7a0063c277804d6ac2b5df026170534112644c3cf7f2c37b25f6925d7bbce9000a000000171600140d53b5cf6faa6e08aa0c0be84a71f6bb469e2b3ffeffffff0260fb0300000000001976a9148dce5fc1e415529841e6909824fe9dd3e626a72788acd7700f000000000017a914ed3469b5ca2117c01c69e342c89de18cc04cfe1a8702483045022100ec15f39b4e0d0ef8385c123d5d678550a4e48a44eb7d92eac0ef751cc7be8d1602200ed4b04f9ce41e565cb4bbf709b8957d419c9a9143908219098b302cebda386d012103ab16f19a589646cf63f1c6d104078dd95c2b636505fc2a7cf66f545481dc8f3a0247304402206c31591b424b636ce3df8c4722050074cf618a1a3b5f2880be53782475e0931002200a2258f00b3b2aaff4fb5d4e2193a201e5eed0f9cf6a1e9fda92c30e38ee6e8b01210283c546ae377d478a09488025a7438828b3415120ef60cbe2d94154a38763518412490800", "vin": [{"txinwitness": ["3045022100ec15f39b4e0d0ef8385c123d5d678550a4e48a44eb7d92eac0ef751cc7be8d1602200ed4b04f9ce41e565cb4bbf709b8957d419c9a9143908219098b302cebda386d01", "03ab16f19a589646cf63f1c6d104078dd95c2b636505fc2a7cf66f545481dc8f3a"], "sequence": 4294967294, "scriptSig": {"hex": "160014366a1582988d55354c94093b9cd59aa2c7d90be0", "asm": "0014366a1582988d55354c94093b9cd59aa2c7d90be0"}, "vout": 1, "txid": "bc905ee91e07cad4cc39f9529f9e69578d3838b07a95cb4322263cc5cd3e1651"}, {"txinwitness": ["304402206c31591b424b636ce3df8c4722050074cf618a1a3b5f2880be53782475e0931002200a2258f00b3b2aaff4fb5d4e2193a201e5eed0f9cf6a1e9fda92c30e38ee6e8b01", "0283c546ae377d478a09488025a7438828b3415120ef60cbe2d94154a387635184"], "sequence": 4294967294, "scriptSig": {"hex": "1600140d53b5cf6faa6e08aa0c0be84a71f6bb469e2b3f", "asm": "00140d53b5cf6faa6e08aa0c0be84a71f6bb469e2b3f"}, "vout": 10, "txid": "00e9bc7b5d92f6257bc3f2f73c4c64124153706102dfb5c26a4d8077c263007a"}], "txid": "cef3876dcd02c8021d9f9be0a35a94f4d002f34aff9468cd724e0842793e9a0d", "blocktime": 1537872475, "version": 2, "confirmations": 11487, "time": 1537872475, "locktime": 542994, "vsize": 259, "size": 421}