{"hash": "0b7384f3f84e542d0279db95cba64249f766dbb1186a1690f4e8756cfc7212cb", "blockhash": "0000000000000000000e13cef7c366c0283d82e591d1acd082e914b08063cdf1", "vout": [{"scriptPubKey": {"reqSigs": 1, "hex": "76a9144c75f30d1455c1263477b42effc41e49247768ec88ac", "addresses": ["17yHerCv9sfzMYPcPs2gBSzhbUdgYG6FEk"], "asm": "OP_DUP OP_HASH160 4c75f30d1455c1263477b42effc41e49247768ec OP_EQUALVERIFY OP_CHECKSIG", "type": "pubkeyhash"}, "value": 0.002, "n": 0}, {"scriptPubKey": {"reqSigs": 1, "hex": "a9146709fe1b62533618741c4bea0ee2db679971a75287", "addresses": ["3B5qVbnwEehSpgDo1wMD2xXnxpYyS2hiKf"], "asm": "OP_HASH160 6709fe1b62533618741c4bea0ee2db679971a752 OP_EQUAL", "type": "scripthash"}, "value": 0.01014723, "n": 1}], "hex": "02000000000102517f8efdb380f701425b04e94f0b02735a0df8bb98764d7e78d5e07d0b833f4301000000171600147b2888982a214d52164554e2205a8a17d06e2cc6feffffff5b5c54daab63a777b0b4424f3e9df45a8fd1ea10bf6249f399106bb95973f246000000001716001486af1d8f2fda068f4d8d7af7c4ca10e79fbcfb32feffffff02400d0300000000001976a9144c75f30d1455c1263477b42effc41e49247768ec88acc37b0f000000000017a9146709fe1b62533618741c4bea0ee2db679971a7528702473044022068f3c6b05443e32bac6356a067445fba54ccad184d50c581fcfbaad9beae552a0220546ee1bf63fc72f2b915a0c29e1929f4bb49a295c8421c8849dc9f105a77a24d01210236c31d8a2b277890658ea385ecd7a32af405ac80b4252e50c4add0d9cbb0f18b0247304402205b7987fed3f8c950e1effd1b9c50a5041334f3a5a76309c7b8f5fc4efbe6a1b002207d9c9e3374e227b6ae7d89956e2cc128e05bb53d83215be8369049a39a295cf40121029afbdf743378c2b309e77ef1915220f7bf676254b61f7201b13412ddcd2a939510490800", "vin": [{"txinwitness": ["3044022068f3c6b05443e32bac6356a067445fba54ccad184d50c581fcfbaad9beae552a0220546ee1bf63fc72f2b915a0c29e1929f4bb49a295c8421c8849dc9f105a77a24d01", "0236c31d8a2b277890658ea385ecd7a32af405ac80b4252e50c4add0d9cbb0f18b"], "sequence": 4294967294, "scriptSig": {"hex": "1600147b2888982a214d52164554e2205a8a17d06e2cc6", "asm": "00147b2888982a214d52164554e2205a8a17d06e2cc6"}, "vout": 1, "txid": "433f830b7de0d5787e4d7698bbf80d5a73020b4fe9045b4201f780b3fd8e7f51"}, {"txinwitness": ["304402205b7987fed3f8c950e1effd1b9c50a5041334f3a5a76309c7b8f5fc4efbe6a1b002207d9c9e3374e227b6ae7d89956e2cc128e05bb53d83215be8369049a39a295cf401", "029afbdf743378c2b309e77ef1915220f7bf676254b61f7201b13412ddcd2a9395"], "sequence": 4294967294, "scriptSig": {"hex": "16001486af1d8f2fda068f4d8d7af7c4ca10e79fbcfb32", "asm": "001486af1d8f2fda068f4d8d7af7c4ca10e79fbcfb32"}, "vout": 0, "txid": "46f27359b96b1099f34962bf10ead18f5af49d3e4f42b4b077a763abda545c5b"}], "txid": "cef6fbdbeedcad631c58a9756b55525ffe4fbbdb0610277151138577ad526f17", "blocktime": 1537871767, "version": 2, "confirmations": 11490, "time": 1537871767, "locktime": 542992, "vsize": 258, "size": 420}