{"hash": "cef766ad96f885e74b3844f32f603ebe0cb4479a742a3980d6cfcdc3348e4ad3", "blockhash": "0000000000000000000dcc0f55137456b1a82d3642486a52398922ac4d620174", "vout": [{"scriptPubKey": {"type": "nulldata", "hex": "6a146f6d6e69000000000000001f000000093c842980", "asm": "OP_RETURN 6f6d6e69000000000000001f000000093c842980"}, "value": 0.0, "n": 0}, {"scriptPubKey": {"reqSigs": 1, "hex": "76a914ecce07f586afc0406fa16c3ab2a962a3e9282d6988ac", "addresses": ["1Nb7HZfENUBdFVZF7Xd1LuSqUiMgEiD8cw"], "asm": "OP_DUP OP_HASH160 ecce07f586afc0406fa16c3ab2a962a3e9282d69 OP_EQUALVERIFY OP_CHECKSIG", "type": "pubkeyhash"}, "value": 5.46e-06, "n": 1}, {"scriptPubKey": {"reqSigs": 1, "hex": "76a914a25dec4d0011064ef106a983c39c7a540699f22088ac", "addresses": ["1FoWyxwPXuj4C6abqwhjDWdz6D4PZgYRjA"], "asm": "OP_DUP OP_HASH160 a25dec4d0011064ef106a983c39c7a540699f220 OP_EQUALVERIFY OP_CHECKSIG", "type": "pubkeyhash"}, "value": 0.01995188, "n": 2}], "hex": "0100000001a44813c76173a4fe9689194c29809e35be05f1741d9b5e1e9e8bd44070ac1fea5e0000006b483045022100830824f9cac44423b83ec8fe80b4f05cc9ca139f74d51e921ba1fe89baf6d4e502200862a353f4c327072f70f46851811007b83e49be60e886a6e84c99f6aa24969e012103da5bac7b36d5aa38f531c6b9601e21bb598a4b6716ebed38b009a55dabde9440feffffff030000000000000000166a146f6d6e69000000000000001f000000093c84298022020000000000001976a914ecce07f586afc0406fa16c3ab2a962a3e9282d6988acb4711e00000000001976a914a25dec4d0011064ef106a983c39c7a540699f22088acdc480800", "vin": [{"sequence": 4294967294, "scriptSig": {"hex": "483045022100830824f9cac44423b83ec8fe80b4f05cc9ca139f74d51e921ba1fe89baf6d4e502200862a353f4c327072f70f46851811007b83e49be60e886a6e84c99f6aa24969e012103da5bac7b36d5aa38f531c6b9601e21bb598a4b6716ebed38b009a55dabde9440", "asm": "3045022100830824f9cac44423b83ec8fe80b4f05cc9ca139f74d51e921ba1fe89baf6d4e502200862a353f4c327072f70f46851811007b83e49be60e886a6e84c99f6aa24969e[ALL] 03da5bac7b36d5aa38f531c6b9601e21bb598a4b6716ebed38b009a55dabde9440"}, "vout": 94, "txid": "ea1fac7040d48b9e1e5e9b1d74f105be359e80294c198996fea47361c71348a4"}], "txid": "cef766ad96f885e74b3844f32f603ebe0cb4479a742a3980d6cfcdc3348e4ad3", "blocktime": 1537870268, "version": 1, "confirmations": 11516, "time": 1537870268, "locktime": 542940, "vsize": 257, "size": 257}