{"hash": "cef92f771394b4b42eca1c97a9ba05b60085382347092b36f6f365df2bb48994", "blockhash": "000000000000000000022b45ed06c6f4ccd3cf7fb5ba4856ebd2e58215665228", "vout": [{"scriptPubKey": {"type": "nulldata", "hex": "6a146f6d6e69000000000000001f0000000089773d08", "asm": "OP_RETURN 6f6d6e69000000000000001f0000000089773d08"}, "value": 0.0, "n": 0}, {"scriptPubKey": {"reqSigs": 1, "hex": "76a9140ea2c16f9786cdfea33384770c72f226ae93ef3f88ac", "addresses": ["12LPS9L3BtpHJxCw7CBABQHFsKc7wFRjAR"], "asm": "OP_DUP OP_HASH160 0ea2c16f9786cdfea33384770c72f226ae93ef3f OP_EQUALVERIFY OP_CHECKSIG", "type": "pubkeyhash"}, "value": 0.36178735, "n": 1}, {"scriptPubKey": {"reqSigs": 1, "hex": "a9145c588477c3a1584043073fb615bb8fac5729370387", "addresses": ["3A7J8VXGBuRh9L2xz1HPhWTe6t8TStKL73"], "asm": "OP_HASH160 5c588477c3a1584043073fb615bb8fac57293703 OP_EQUAL", "type": "scripthash"}, "value": 5.4e-06, "n": 2}], "hex": "0100000001a5108d0b9ea90138f8ed8a69dfc5f776ba65630a9f7f46e32336fa015560f39d000000006a47304402200a7c13a11e6c873b784ba0ab11b0652d2f41dbc788602552f0e1fa32a68e8f00022074366aa47a14b5ea9c3541cfc7ca61f33b7b9a4f00a516905f9556dc383fc8c401210242604bdd2261b6188326b9f490e074dda990f5bb746eb9716e491b86b498f4c5feffffff030000000000000000166a146f6d6e69000000000000001f0000000089773d082f0b2802000000001976a9140ea2c16f9786cdfea33384770c72f226ae93ef3f88ac1c0200000000000017a9145c588477c3a1584043073fb615bb8fac57293703870b490800", "vin": [{"sequence": 4294967294, "scriptSig": {"hex": "47304402200a7c13a11e6c873b784ba0ab11b0652d2f41dbc788602552f0e1fa32a68e8f00022074366aa47a14b5ea9c3541cfc7ca61f33b7b9a4f00a516905f9556dc383fc8c401210242604bdd2261b6188326b9f490e074dda990f5bb746eb9716e491b86b498f4c5", "asm": "304402200a7c13a11e6c873b784ba0ab11b0652d2f41dbc788602552f0e1fa32a68e8f00022074366aa47a14b5ea9c3541cfc7ca61f33b7b9a4f00a516905f9556dc383fc8c4[ALL] 0242604bdd2261b6188326b9f490e074dda990f5bb746eb9716e491b86b498f4c5"}, "vout": 0, "txid": "9df3605501fa3623e3467f9f0a6365ba76f7c5df698aedf83801a99e0b8d10a5"}], "txid": "cef92f771394b4b42eca1c97a9ba05b60085382347092b36f6f365df2bb48994", "blocktime": 1537869901, "version": 1, "confirmations": 11523, "time": 1537869901, "locktime": 542987, "vsize": 254, "size": 254}