{"hash": "89dbde360c801570467cf1f154bb7a7bd10a82abff6d37b0ba4f141cfc2b83da", "blockhash": "000000000000000000022b45ed06c6f4ccd3cf7fb5ba4856ebd2e58215665228", "vout": [{"scriptPubKey": {"reqSigs": 1, "hex": "001469c4cac47bc0966ebe3527d6949007ab04433c79", "addresses": ["bc1qd8zv43rmcztxa034yltffyq84vzyx0red4ayjj"], "asm": "0 69c4cac47bc0966ebe3527d6949007ab04433c79", "type": "witness_v0_keyhash"}, "value": 0.00159127, "n": 0}, {"scriptPubKey": {"reqSigs": 1, "hex": "76a9143da304435dcc60fa6f817295c84238238890d07188ac", "addresses": ["16cuWJF1tWQ67xcH9D7fhgpjXkuTxUiXw9"], "asm": "OP_DUP OP_HASH160 3da304435dcc60fa6f817295c84238238890d071 OP_EQUALVERIFY OP_CHECKSIG", "type": "pubkeyhash"}, "value": 0.00955533, "n": 1}], "hex": "010000000001011a0153dc2d214533b54dd5d607f3c0c86f1b1655e7f86fc592608750f2a37abc0000000000ffffffff02976d02000000000016001469c4cac47bc0966ebe3527d6949007ab04433c798d940e00000000001976a9143da304435dcc60fa6f817295c84238238890d07188ac02483045022100f8fb697f55a702148cae5cc73e4aeea4a0dcbb58b335f6111173f283c226b6590220070f93bfa4308d13c755a96064598277a967794ce21613bb242443ddeaa016c70121038053fc6c5cf401e5dc23a6ac08b758955c599f00f685bc93e1a87db9f8d801d700000000", "vin": [{"txinwitness": ["3045022100f8fb697f55a702148cae5cc73e4aeea4a0dcbb58b335f6111173f283c226b6590220070f93bfa4308d13c755a96064598277a967794ce21613bb242443ddeaa016c701", "038053fc6c5cf401e5dc23a6ac08b758955c599f00f685bc93e1a87db9f8d801d7"], "sequence": 4294967295, "scriptSig": {"hex": "", "asm": ""}, "vout": 0, "txid": "bc7aa3f250876092c56ff8e755161b6fc8c0f307d6d54db53345212ddc53011a"}], "txid": "cf017dd0ead2bed8f4c48556926ad3f5d3a642320ead009b1759fdcb4b520507", "blocktime": 1537869901, "version": 1, "confirmations": 11523, "time": 1537869901, "locktime": 0, "vsize": 144, "size": 226}