{"hash": "cf01cfa9b08f3ed41574213b9a6974ef8da9fa06bb372244f8fcddff6be15ccd", "blockhash": "0000000000000000000e13cef7c366c0283d82e591d1acd082e914b08063cdf1", "vout": [{"scriptPubKey": {"reqSigs": 1, "hex": "76a91471f8da09abb1b507fb5892e33e0e6e615e0d037488ac", "addresses": ["1BPdUCQxK9EDQqZZgkESo1zME5dPzihZq3"], "asm": "OP_DUP OP_HASH160 71f8da09abb1b507fb5892e33e0e6e615e0d0374 OP_EQUALVERIFY OP_CHECKSIG", "type": "pubkeyhash"}, "value": 0.33372868, "n": 0}, {"scriptPubKey": {"reqSigs": 1, "hex": "76a914a845f2dfcb6ea439af11d2cfef5757a08ff19c2a88ac", "addresses": ["1GLkKMKNg5SjNX3x9W5LByiZ4pPB4Wni6c"], "asm": "OP_DUP OP_HASH160 a845f2dfcb6ea439af11d2cfef5757a08ff19c2a OP_EQUALVERIFY OP_CHECKSIG", "type": "pubkeyhash"}, "value": 0.08325819, "n": 1}], "hex": "0200000001e10868c6d4d66044b508dacfa71284a478b0edcf582e48e72a9fd8461bec96af000000006a47304402204e1ad92972b652513093602b8650102fd478ef9c3968792449f0ea7be719c90f02203d519c4e8f6d2143b59695d429c3d70288f52013f124dc73a4fe957ce6f2b5e10121021e1c023fa74d6d2f2f833ba9a358719a54a5c4dacf0b2dba9efbe1c1c07be73efeffffff02c43afd01000000001976a91471f8da09abb1b507fb5892e33e0e6e615e0d037488acbb0a7f00000000001976a914a845f2dfcb6ea439af11d2cfef5757a08ff19c2a88ac00000000", "vin": [{"sequence": 4294967294, "scriptSig": {"hex": "47304402204e1ad92972b652513093602b8650102fd478ef9c3968792449f0ea7be719c90f02203d519c4e8f6d2143b59695d429c3d70288f52013f124dc73a4fe957ce6f2b5e10121021e1c023fa74d6d2f2f833ba9a358719a54a5c4dacf0b2dba9efbe1c1c07be73e", "asm": "304402204e1ad92972b652513093602b8650102fd478ef9c3968792449f0ea7be719c90f02203d519c4e8f6d2143b59695d429c3d70288f52013f124dc73a4fe957ce6f2b5e1[ALL] 021e1c023fa74d6d2f2f833ba9a358719a54a5c4dacf0b2dba9efbe1c1c07be73e"}, "vout": 0, "txid": "af96ec1b46d89f2ae7482e58cfedb078a48412a7cfda08b54460d6d4c66808e1"}], "txid": "cf01cfa9b08f3ed41574213b9a6974ef8da9fa06bb372244f8fcddff6be15ccd", "blocktime": 1537871767, "version": 2, "confirmations": 11493, "time": 1537871767, "locktime": 0, "vsize": 225, "size": 225}