{"hash": "819b44b545bf264672fa44862f7e05f436d2d2fd25d9cb4af92b1f10a030fe7a", "blockhash": "0000000000000000001cda96e906b7601b7a6fb1a3b62bca570a9e5d8f4b3de1", "vout": [{"scriptPubKey": {"reqSigs": 1, "hex": "a914c13686e8c966c159b99123e1211eeca4caeb452f87", "addresses": ["3KJdfAjgYuy3dCFoZXgcLxC5y4jKXhVvMT"], "asm": "OP_HASH160 c13686e8c966c159b99123e1211eeca4caeb452f OP_EQUAL", "type": "scripthash"}, "value": 0.00627223, "n": 0}, {"scriptPubKey": {"reqSigs": 1, "hex": "a914d5b6c8b07c2131ba5a6dd0a717c98aed670543d987", "addresses": ["3MB2pTKeaSrm9jmWjLdjfKozGgSmp72ENL"], "asm": "OP_HASH160 d5b6c8b07c2131ba5a6dd0a717c98aed670543d9 OP_EQUAL", "type": "scripthash"}, "value": 0.00059602, "n": 1}], "hex": "010000000001014c4ec07ea9f793af20ec4429d3cf01e5a7c895292166e3ab5347ea7d653f4a910000000023220020718db99e07ffb0373975996f5ceca64ede9b57b44673d6c44748c53f3b58f6c4fdffffff02179209000000000017a914c13686e8c966c159b99123e1211eeca4caeb452f87d2e800000000000017a914d5b6c8b07c2131ba5a6dd0a717c98aed670543d98704004830450221008982404f2bb9d76541c67e46e7dab4a8b5c193b0d9db2379196c533eaa4c68280220593755d49bb3f3ae0feeb06e521f928d51715da7a4cff4861ca74330f4c59fea01483045022100d7a398860fc732eec03ea90bec45a72e78a517950664c49597b290d7c26ed6be02201c1a0254a1125a896646284d39e43af18f04b86bccfffee4d17c664cf1bc55dc0147522102e9ef6f0498b6e00e4a383fafcbcabe8addf6fe763554e7aeb00584454e4f2fc12102b65bc14912683bda6ae20293655b26f103b782a05f1072c0d11ecbc70ee0761252ae12490800", "vin": [{"txinwitness": ["", "30450221008982404f2bb9d76541c67e46e7dab4a8b5c193b0d9db2379196c533eaa4c68280220593755d49bb3f3ae0feeb06e521f928d51715da7a4cff4861ca74330f4c59fea01", "3045022100d7a398860fc732eec03ea90bec45a72e78a517950664c49597b290d7c26ed6be02201c1a0254a1125a896646284d39e43af18f04b86bccfffee4d17c664cf1bc55dc01", "522102e9ef6f0498b6e00e4a383fafcbcabe8addf6fe763554e7aeb00584454e4f2fc12102b65bc14912683bda6ae20293655b26f103b782a05f1072c0d11ecbc70ee0761252ae"], "sequence": 4294967293, "scriptSig": {"hex": "220020718db99e07ffb0373975996f5ceca64ede9b57b44673d6c44748c53f3b58f6c4", "asm": "0020718db99e07ffb0373975996f5ceca64ede9b57b44673d6c44748c53f3b58f6c4"}, "vout": 0, "txid": "914a3f657dea4753abe366212995c8a7e501cfd32944ec20af93f7a97ec04e4c"}], "txid": "cf0435d6b6832623abe68ecbaacb91bb905d74969b6771879f134797c563f954", "blocktime": 1537873282, "version": 1, "confirmations": 11485, "time": 1537873282, "locktime": 542994, "vsize": 206, "size": 372}