{"hash": "cf0b62b8cacfaec3fbff267dee5d907b7ba862471b0ac50aad02cdf39d5c67a1", "blockhash": "0000000000000000001e0dab787dd257d1dbfcb92a98c2207d5e1078be1f4165", "vout": [{"scriptPubKey": {"reqSigs": 1, "hex": "76a914350b38b2be5334166e588ae84f9615b44d0ea7e788ac", "addresses": ["15qUFrEoh7YLs6UgkVkoFUCN1kZgSNGBza"], "asm": "OP_DUP OP_HASH160 350b38b2be5334166e588ae84f9615b44d0ea7e7 OP_EQUALVERIFY OP_CHECKSIG", "type": "pubkeyhash"}, "value": 0.002, "n": 0}, {"scriptPubKey": {"reqSigs": 1, "hex": "76a9147270369ca535168102e92153ebc600ec4ab4a97388ac", "addresses": ["1BS6Tb4te8Bmzc1SxHq5xig27B8D7Y8itw"], "asm": "OP_DUP OP_HASH160 7270369ca535168102e92153ebc600ec4ab4a973 OP_EQUALVERIFY OP_CHECKSIG", "type": "pubkeyhash"}, "value": 0.0113143, "n": 1}, {"scriptPubKey": {"reqSigs": 1, "hex": "76a9140e3199ed8c10e20ec6af1a72ea6b59c198c46da588ac", "addresses": ["12J3t3VoLvcneUSG8rUNXxHMm6S4nqhYbm"], "asm": "OP_DUP OP_HASH160 0e3199ed8c10e20ec6af1a72ea6b59c198c46da5 OP_EQUALVERIFY OP_CHECKSIG", "type": "pubkeyhash"}, "value": 0.13018152, "n": 2}], "hex": "0100000006e17b9e332db283a6f68c6c13f96906014e99829827c159c8e3d3ef3e047b0db0010000006a47304402203b1dc335a0b82c33ceb6b9c754ae7d4a4c9740a6fc5e3c27d2304614acdc8f1a0220340503fc466dc03bb5a65afacd55bfd5273492696c6fd4e190c36c072e44b67a0121028b539608aa0cdccfd5f7296149e6b3181876261eb8340f7f8c30e154c4909f39fefffffff37eb61ddead91359aa5b7ccf0f5c971c1df52b63d310d0df7c7a9bc69448400020000006a47304402202afc0cb7c370ad5b85fb500098879e58196627d3053e2048b8fd2c515b76728e02202ac73540749af7e7a565cd27f8a5581550c5cea7927bc359655f0461b671c8da012103945a8b018fde093abcc5c1bd521b132a2a4de185897167c4c66dca4bae1036fafeffffff76d69834ababbadcd844588e0bde2d80dbe3021d9581c48785595b3e2be29289000000006a47304402205b32cfca28389debf65b70fa8ece88f7a930f9487b32c1e333535e7b6e204299022067aed407358a0e8659d121c3fb0a4cb9917bc22e03061efe91fae092a15b509401210297208b6e85b8c56c3358f23f6ba82cd5c648c86f778079d65e097ec92ff6e6e0feffffffa5b627da2875034982f12c200b0cfc93998f7e4d045e7157b05cc32408082479010000006a473044022035cbffdd71a387a3688b2641ed99c4db4d007c7d3939f536bf61f8840c6588f4022058d81809cc347dda20aad7533aa7fdffe15d43ebc0c08dcc49eff31bfb4e7253012103592d21955356ff143b96a52fad3208f6bd174e49f7d9769410668a0b1c6b69ddfeffffff7854168aa8ac273661510e71bdaa98a7757ced2e6e27bdb93a69dedc98b7e98e010000006b483045022100c8a63e1b4925f77bac499ac92cb4ddf2e94a5663349951cb5ff08e8a56a5e360022060ae2a4582f8cc03b7746f1d92a5b74076ef133848fe7ce832ec3af626763399012102e1b4218593347670a0853b55d86259d9c676388dd0124043b942a9f74aba854bfeffffff2630ce6356e7d83cf28fef9531b94cf8e3d139bb3a5c2e6e50efb4b8eeb7c9b8010000006b4830450221009d4386e3d3832f357c5206699b709a68247696ee41aba4f70df14ee979d0fdab022071bdb1a9261d7ef094f40e2278eafe56d45c422688844b65bf412c59f79060ed012103d4bf1b5452a3a37896a2feca3221fd1ef53506c1078309468a497a35f77f1b9ffeffffff03400d0300000000001976a914350b38b2be5334166e588ae84f9615b44d0ea7e788aca6431100000000001976a9147270369ca535168102e92153ebc600ec4ab4a97388ac28a4c600000000001976a9140e3199ed8c10e20ec6af1a72ea6b59c198c46da588ac11490800", "vin": [{"sequence": 4294967294, "scriptSig": {"hex": "47304402203b1dc335a0b82c33ceb6b9c754ae7d4a4c9740a6fc5e3c27d2304614acdc8f1a0220340503fc466dc03bb5a65afacd55bfd5273492696c6fd4e190c36c072e44b67a0121028b539608aa0cdccfd5f7296149e6b3181876261eb8340f7f8c30e154c4909f39", "asm": "304402203b1dc335a0b82c33ceb6b9c754ae7d4a4c9740a6fc5e3c27d2304614acdc8f1a0220340503fc466dc03bb5a65afacd55bfd5273492696c6fd4e190c36c072e44b67a[ALL] 028b539608aa0cdccfd5f7296149e6b3181876261eb8340f7f8c30e154c4909f39"}, "vout": 1, "txid": "b00d7b043eefd3e3c859c1279882994e010669f9136c8cf6a683b22d339e7be1"}, {"sequence": 4294967294, "scriptSig": {"hex": "47304402202afc0cb7c370ad5b85fb500098879e58196627d3053e2048b8fd2c515b76728e02202ac73540749af7e7a565cd27f8a5581550c5cea7927bc359655f0461b671c8da012103945a8b018fde093abcc5c1bd521b132a2a4de185897167c4c66dca4bae1036fa", "asm": "304402202afc0cb7c370ad5b85fb500098879e58196627d3053e2048b8fd2c515b76728e02202ac73540749af7e7a565cd27f8a5581550c5cea7927bc359655f0461b671c8da[ALL] 03945a8b018fde093abcc5c1bd521b132a2a4de185897167c4c66dca4bae1036fa"}, "vout": 2, "txid": "00844469bca9c7f70d0d313db652dfc171c9f5f0ccb7a59a3591adde1db67ef3"}, {"sequence": 4294967294, "scriptSig": {"hex": "47304402205b32cfca28389debf65b70fa8ece88f7a930f9487b32c1e333535e7b6e204299022067aed407358a0e8659d121c3fb0a4cb9917bc22e03061efe91fae092a15b509401210297208b6e85b8c56c3358f23f6ba82cd5c648c86f778079d65e097ec92ff6e6e0", "asm": "304402205b32cfca28389debf65b70fa8ece88f7a930f9487b32c1e333535e7b6e204299022067aed407358a0e8659d121c3fb0a4cb9917bc22e03061efe91fae092a15b5094[ALL] 0297208b6e85b8c56c3358f23f6ba82cd5c648c86f778079d65e097ec92ff6e6e0"}, "vout": 0, "txid": "8992e22b3e5b598587c481951d02e3db802dde0b8e5844d8dcbaabab3498d676"}, {"sequence": 4294967294, "scriptSig": {"hex": "473044022035cbffdd71a387a3688b2641ed99c4db4d007c7d3939f536bf61f8840c6588f4022058d81809cc347dda20aad7533aa7fdffe15d43ebc0c08dcc49eff31bfb4e7253012103592d21955356ff143b96a52fad3208f6bd174e49f7d9769410668a0b1c6b69dd", "asm": "3044022035cbffdd71a387a3688b2641ed99c4db4d007c7d3939f536bf61f8840c6588f4022058d81809cc347dda20aad7533aa7fdffe15d43ebc0c08dcc49eff31bfb4e7253[ALL] 03592d21955356ff143b96a52fad3208f6bd174e49f7d9769410668a0b1c6b69dd"}, "vout": 1, "txid": "7924080824c35cb057715e044d7e8f9993fc0c0b202cf18249037528da27b6a5"}, {"sequence": 4294967294, "scriptSig": {"hex": "483045022100c8a63e1b4925f77bac499ac92cb4ddf2e94a5663349951cb5ff08e8a56a5e360022060ae2a4582f8cc03b7746f1d92a5b74076ef133848fe7ce832ec3af626763399012102e1b4218593347670a0853b55d86259d9c676388dd0124043b942a9f74aba854b", "asm": "3045022100c8a63e1b4925f77bac499ac92cb4ddf2e94a5663349951cb5ff08e8a56a5e360022060ae2a4582f8cc03b7746f1d92a5b74076ef133848fe7ce832ec3af626763399[ALL] 02e1b4218593347670a0853b55d86259d9c676388dd0124043b942a9f74aba854b"}, "vout": 1, "txid": "8ee9b798dcde693ab9bd276e2eed7c75a798aabd710e51613627aca88a165478"}, {"sequence": 4294967294, "scriptSig": {"hex": "4830450221009d4386e3d3832f357c5206699b709a68247696ee41aba4f70df14ee979d0fdab022071bdb1a9261d7ef094f40e2278eafe56d45c422688844b65bf412c59f79060ed012103d4bf1b5452a3a37896a2feca3221fd1ef53506c1078309468a497a35f77f1b9f", "asm": "30450221009d4386e3d3832f357c5206699b709a68247696ee41aba4f70df14ee979d0fdab022071bdb1a9261d7ef094f40e2278eafe56d45c422688844b65bf412c59f79060ed[ALL] 03d4bf1b5452a3a37896a2feca3221fd1ef53506c1078309468a497a35f77f1b9f"}, "vout": 1, "txid": "b8c9b7eeb8b4ef506e2e5c3abb39d1e3f84cb93195ef8ff23cd8e75663ce3026"}], "txid": "cf0b62b8cacfaec3fbff267dee5d907b7ba862471b0ac50aad02cdf39d5c67a1", "blocktime": 1537872475, "version": 1, "confirmations": 11486, "time": 1537872475, "locktime": 542993, "vsize": 996, "size": 996}