{"hash": "cf0ca0e44918df44f0bfb617fabe198dc4fc2643ea699871bc28cbdcbc655dc5", "blockhash": "00000000000000000018f53835495a110e01622372bf6ae95dc86f2b0ab887b0", "vout": [{"scriptPubKey": {"reqSigs": 1, "hex": "76a9143cecd722248f639040755e6912dfb66730f0f27d88ac", "addresses": ["16Z9GU5WkZhJPNhwuNapnay9HG8GSvRffH"], "asm": "OP_DUP OP_HASH160 3cecd722248f639040755e6912dfb66730f0f27d OP_EQUALVERIFY OP_CHECKSIG", "type": "pubkeyhash"}, "value": 33.999988, "n": 0}, {"scriptPubKey": {"reqSigs": 1, "hex": "76a91492ed0770f3a4ff2a0de6ea2b1b0ec62f98a94e8a88ac", "addresses": ["1EPsc5PAxzUrh1cuKuSf24GAhhvsbyfLRQ"], "asm": "OP_DUP OP_HASH160 92ed0770f3a4ff2a0de6ea2b1b0ec62f98a94e8a OP_EQUALVERIFY OP_CHECKSIG", "type": "pubkeyhash"}, "value": 35.0, "n": 1}], "hex": "0100000001936727f039413cfdb64537ee440a4a5802670cefeeb77d9b013f7f192ac55df6000000006b483045022100e558e20ba4ea16f97cffb34c0d4fb50da2e49e163dd109680e84fc5a58b1b07c02203c710c7f167406599eaf439bdd3ad87bf1bae8a6148ba6d22f165dfd97186860012102f44298306455296776738b41e7f7de8c6cbed11cfb9b1297d49a09613e6f34e5feffffff0250dda7ca000000001976a9143cecd722248f639040755e6912dfb66730f0f27d88ac00c39dd0000000001976a91492ed0770f3a4ff2a0de6ea2b1b0ec62f98a94e8a88ac0e490800", "vin": [{"sequence": 4294967294, "scriptSig": {"hex": "483045022100e558e20ba4ea16f97cffb34c0d4fb50da2e49e163dd109680e84fc5a58b1b07c02203c710c7f167406599eaf439bdd3ad87bf1bae8a6148ba6d22f165dfd97186860012102f44298306455296776738b41e7f7de8c6cbed11cfb9b1297d49a09613e6f34e5", "asm": "3045022100e558e20ba4ea16f97cffb34c0d4fb50da2e49e163dd109680e84fc5a58b1b07c02203c710c7f167406599eaf439bdd3ad87bf1bae8a6148ba6d22f165dfd97186860[ALL] 02f44298306455296776738b41e7f7de8c6cbed11cfb9b1297d49a09613e6f34e5"}, "vout": 0, "txid": "f65dc52a197f3f019b7db7eeef0c6702584a0a44ee3745b6fd3c4139f0276793"}], "txid": "cf0ca0e44918df44f0bfb617fabe198dc4fc2643ea699871bc28cbdcbc655dc5", "blocktime": 1537870928, "version": 1, "confirmations": 11512, "time": 1537870928, "locktime": 542990, "vsize": 226, "size": 226}