{"hash": "eb74ca3875b743053c3797e311c8c94907a79c0921ae2ff08408fbe9cf7cb52b", "blockhash": "0000000000000000001e0dab787dd257d1dbfcb92a98c2207d5e1078be1f4165", "vout": [{"scriptPubKey": {"reqSigs": 1, "hex": "a91430897cc6c9d69f6a2c2f1c651d51f22219f1a4f687", "addresses": ["367f4YWz1VCFaqBqwbTrzwi2b1h2U3w1AF"], "asm": "OP_HASH160 30897cc6c9d69f6a2c2f1c651d51f22219f1a4f6 OP_EQUAL", "type": "scripthash"}, "value": 0.07165603, "n": 0}, {"scriptPubKey": {"reqSigs": 1, "hex": "a91469f3752031ecbb71749c8b23e568dfc634fd0fba87", "addresses": ["3BMEXQoQjae767PpjPEeTgJ1kLxf3yE2vz"], "asm": "OP_HASH160 69f3752031ecbb71749c8b23e568dfc634fd0fba OP_EQUAL", "type": "scripthash"}, "value": 0.05192421, "n": 1}], "hex": "010000000001019e809e4defa8591995543a2419c477410eec32c55b6c994341ac790bec19b0280000000023220020bcf9f822194145acea0f3235f4107b5bf1a91b6b9f8489f63bf79ec29b360913ffffffff02a3566d000000000017a91430897cc6c9d69f6a2c2f1c651d51f22219f1a4f687e53a4f000000000017a91469f3752031ecbb71749c8b23e568dfc634fd0fba870400473044022068a3b6ddb3eb43eaf3d2bfaaf21f1a28fb05ac7e2ad0048272dfe33791316e0002201b8ede3bf65993b527a51181fb47abc0d3856483c41e9624599602b212e49f6c0147304402204f96eabaed6d831ff950187ff35691e5c81d1346f30aac1b2c1c90a7e73fda6b02206090802c489a4806560a7ca8aa44f5ebb90345a26322fcb11068067daa16f42a01695221026c8f72b9e63db63907115e65d4da86eaae595b22fdc85ec75301bb4adbf203582103806535be3e3920e5eedee92de5714188fd6a784f2bf7b04f87de0b9c3ae1ecdb21024b23bfdce2afcae7e28c42f7f79aa100f22931712c52d7414a526ba494d44a2553ae00000000", "vin": [{"txinwitness": ["", "3044022068a3b6ddb3eb43eaf3d2bfaaf21f1a28fb05ac7e2ad0048272dfe33791316e0002201b8ede3bf65993b527a51181fb47abc0d3856483c41e9624599602b212e49f6c01", "304402204f96eabaed6d831ff950187ff35691e5c81d1346f30aac1b2c1c90a7e73fda6b02206090802c489a4806560a7ca8aa44f5ebb90345a26322fcb11068067daa16f42a01", "5221026c8f72b9e63db63907115e65d4da86eaae595b22fdc85ec75301bb4adbf203582103806535be3e3920e5eedee92de5714188fd6a784f2bf7b04f87de0b9c3ae1ecdb21024b23bfdce2afcae7e28c42f7f79aa100f22931712c52d7414a526ba494d44a2553ae"], "sequence": 4294967295, "scriptSig": {"hex": "220020bcf9f822194145acea0f3235f4107b5bf1a91b6b9f8489f63bf79ec29b360913", "asm": "0020bcf9f822194145acea0f3235f4107b5bf1a91b6b9f8489f63bf79ec29b360913"}, "vout": 0, "txid": "28b019ec0b79ac4143996c5bc532ec0e4177c419243a54951959a8ef4d9e809e"}], "txid": "cf0f7d67eb27091af33d5914f30ed60084e3297effa9283255c4b88622e0daf0", "blocktime": 1537872475, "version": 1, "confirmations": 11486, "time": 1537872475, "locktime": 0, "vsize": 214, "size": 404}