{"hash": "cf1360a67ee4ba7c9ca542997e27a6745a72246c625b2a155eeb9f318fd46e56", "blockhash": "00000000000000000017f5eb5941039fbcee6240d03bc1f2f8e35350df66a1d8", "vout": [{"scriptPubKey": {"reqSigs": 1, "hex": "76a914730835a0f6e12a33a9fd9e77a94db69748522a4188ac", "addresses": ["1BVEYU1YtmPLYfJuf4AW8QMALgpvoA5vUA"], "asm": "OP_DUP OP_HASH160 730835a0f6e12a33a9fd9e77a94db69748522a41 OP_EQUALVERIFY OP_CHECKSIG", "type": "pubkeyhash"}, "value": 5.46e-06, "n": 0}, {"scriptPubKey": {"reqSigs": 1, "hex": "a9143f4eecba122ad73039d481c8d37f99cb4f887cd887", "addresses": ["37Tm3Qz8Zw2VJrheUUhArDAoq58S6YrS3g"], "asm": "OP_HASH160 3f4eecba122ad73039d481c8d37f99cb4f887cd8 OP_EQUAL", "type": "scripthash"}, "value": 0.99994908, "n": 1}, {"scriptPubKey": {"type": "nulldata", "hex": "6a146f6d6e69000000000000001f0000065dc497ae00", "asm": "OP_RETURN 6f6d6e69000000000000001f0000065dc497ae00"}, "value": 0.0, "n": 2}], "hex": "01000000012bc30b2fa171ad4c9e355ddc4153ad98b61ecd58be4e826c85e35bc228ee0c2601000000fdfe0000483045022100e867b77199353f5a42f21c966959e8a96eff43010cc6e268545f6813f9b7155d0220617fd5e2fa6946d05a3074efc82d81bd7b75b0e177e429f553b30210e6eb9da201483045022100bc866543d7b4ce4e6c8ee4654f91a27d6ed2a64a1b5f1fbfe7237cdf7ea272c2022003f44e98ba2919552b133e126d0a5056c559b24128d8e7921ff992e4f78f0d60014c6952210246ccf4de0c54cc7f3354cdd993c2c50cf965fd82238b89659fbd73a1b4bf05a121024fc59f72272a897fe43803374969f396058152fe4765a8d15216f94624257b1b21022593bc69ecbf3bbcc3c58082267cb49dadaf4ca8dbf1b2297338a9d628c4297653aeffffffff0322020000000000001976a914730835a0f6e12a33a9fd9e77a94db69748522a4188ac1ccdf5050000000017a9143f4eecba122ad73039d481c8d37f99cb4f887cd8870000000000000000166a146f6d6e69000000000000001f0000065dc497ae0000000000", "vin": [{"sequence": 4294967295, "scriptSig": {"hex": "00483045022100e867b77199353f5a42f21c966959e8a96eff43010cc6e268545f6813f9b7155d0220617fd5e2fa6946d05a3074efc82d81bd7b75b0e177e429f553b30210e6eb9da201483045022100bc866543d7b4ce4e6c8ee4654f91a27d6ed2a64a1b5f1fbfe7237cdf7ea272c2022003f44e98ba2919552b133e126d0a5056c559b24128d8e7921ff992e4f78f0d60014c6952210246ccf4de0c54cc7f3354cdd993c2c50cf965fd82238b89659fbd73a1b4bf05a121024fc59f72272a897fe43803374969f396058152fe4765a8d15216f94624257b1b21022593bc69ecbf3bbcc3c58082267cb49dadaf4ca8dbf1b2297338a9d628c4297653ae", "asm": "0 3045022100e867b77199353f5a42f21c966959e8a96eff43010cc6e268545f6813f9b7155d0220617fd5e2fa6946d05a3074efc82d81bd7b75b0e177e429f553b30210e6eb9da2[ALL] 3045022100bc866543d7b4ce4e6c8ee4654f91a27d6ed2a64a1b5f1fbfe7237cdf7ea272c2022003f44e98ba2919552b133e126d0a5056c559b24128d8e7921ff992e4f78f0d60[ALL] 52210246ccf4de0c54cc7f3354cdd993c2c50cf965fd82238b89659fbd73a1b4bf05a121024fc59f72272a897fe43803374969f396058152fe4765a8d15216f94624257b1b21022593bc69ecbf3bbcc3c58082267cb49dadaf4ca8dbf1b2297338a9d628c4297653ae"}, "vout": 1, "txid": "260cee28c25be3856c824ebe58cd1eb698ad5341dc5d359e4cad71a12f0bc32b"}], "txid": "cf1360a67ee4ba7c9ca542997e27a6745a72246c625b2a155eeb9f318fd46e56", "blocktime": 1537874412, "version": 1, "confirmations": 11467, "time": 1537874412, "locktime": 0, "vsize": 404, "size": 404}