{"hash": "cf131a49764d1ca17132ecf72b669c9eed2e43e4deeeaf86ad5873651d65b444", "blockhash": "0000000000000000000e13cef7c366c0283d82e591d1acd082e914b08063cdf1", "vout": [{"scriptPubKey": {"reqSigs": 1, "hex": "76a914fe247e7f66b8cc5826de3a4baefce19b50f2255f88ac", "addresses": ["1QAnMP8pfSdwQCoHm5fk1VxQpqbS4sDAWY"], "asm": "OP_DUP OP_HASH160 fe247e7f66b8cc5826de3a4baefce19b50f2255f OP_EQUALVERIFY OP_CHECKSIG", "type": "pubkeyhash"}, "value": 0.0270973, "n": 0}, {"scriptPubKey": {"reqSigs": 1, "hex": "76a9144e307564086b156f30a4f140a261f7cefe1b73a988ac", "addresses": ["188RkvVu8CjQeR2VdpTGNZfeWiYYn786Dz"], "asm": "OP_DUP OP_HASH160 4e307564086b156f30a4f140a261f7cefe1b73a9 OP_EQUALVERIFY OP_CHECKSIG", "type": "pubkeyhash"}, "value": 0.27970427, "n": 1}], "hex": "0100000001f5bc57cb2fc55816a871b7ebf402e6bb0bbf34632a90d3d5a48b009b57697b8a010000006b483045022100862c4c245a27afb65393b76104ea68601b78fe3ce00a1b69ad204e11412db8080220140cf85d0291b6d28c0267c85c1dd00af57cb39ae8611c1d26efb83ff47931e601210209efab18da43ebfabd439ce49549815218f2042d3a9ac5447edf28e91ae0c48fffffffff02e2582900000000001976a914fe247e7f66b8cc5826de3a4baefce19b50f2255f88ac7bcbaa01000000001976a9144e307564086b156f30a4f140a261f7cefe1b73a988ac00000000", "vin": [{"sequence": 4294967295, "scriptSig": {"hex": "483045022100862c4c245a27afb65393b76104ea68601b78fe3ce00a1b69ad204e11412db8080220140cf85d0291b6d28c0267c85c1dd00af57cb39ae8611c1d26efb83ff47931e601210209efab18da43ebfabd439ce49549815218f2042d3a9ac5447edf28e91ae0c48f", "asm": "3045022100862c4c245a27afb65393b76104ea68601b78fe3ce00a1b69ad204e11412db8080220140cf85d0291b6d28c0267c85c1dd00af57cb39ae8611c1d26efb83ff47931e6[ALL] 0209efab18da43ebfabd439ce49549815218f2042d3a9ac5447edf28e91ae0c48f"}, "vout": 1, "txid": "8a7b69579b008ba4d5d3902a6334bf0bbbe602f4ebb771a81658c52fcb57bcf5"}], "txid": "cf131a49764d1ca17132ecf72b669c9eed2e43e4deeeaf86ad5873651d65b444", "blocktime": 1537871767, "version": 1, "confirmations": 11495, "time": 1537871767, "locktime": 0, "vsize": 226, "size": 226}