{"hash": "cf1c72324d94b6cb8b25311c262c6e6e511505b070a83950cb62ca8f87681665", "blockhash": "00000000000000000018f53835495a110e01622372bf6ae95dc86f2b0ab887b0", "vout": [{"scriptPubKey": {"reqSigs": 1, "hex": "76a914259dcfb78ab78fe6abaae163bba8410d3e2718ee88ac", "addresses": ["14Ru42VEgMmHswLkEhdaML4mogLLYCeQeB"], "asm": "OP_DUP OP_HASH160 259dcfb78ab78fe6abaae163bba8410d3e2718ee OP_EQUALVERIFY OP_CHECKSIG", "type": "pubkeyhash"}, "value": 0.00670965, "n": 0}, {"scriptPubKey": {"type": "nulldata", "hex": "6a146f6d6e69000000000000001f0000001bf08eb000", "asm": "OP_RETURN 6f6d6e69000000000000001f0000001bf08eb000"}, "value": 0.0, "n": 1}, {"scriptPubKey": {"reqSigs": 1, "hex": "76a914a25dec4d0011064ef106a983c39c7a540699f22088ac", "addresses": ["1FoWyxwPXuj4C6abqwhjDWdz6D4PZgYRjA"], "asm": "OP_DUP OP_HASH160 a25dec4d0011064ef106a983c39c7a540699f220 OP_EQUALVERIFY OP_CHECKSIG", "type": "pubkeyhash"}, "value": 5.46e-06, "n": 2}], "hex": "0100000005034e96db5731466324ec77a52d6de4a1cade3f6dd566ee421a9b1402b90b2c8d020000006b4830450221009accd4f4b09afcce458655c74426e68739a9e6b6464dad782bd220157ad5f15a02200c7072fb6dbe9de3b296bc0416ee393daaba79215504a4a1b53aa0d5564bb172012102de6492ca3def58f51c2f060efc17dde6f82cd6518efbbe89f705f8b2a3c7b562feffffff06de6c855457489533aae2ed0682a34e68f1e215afbbafdf4cc2dbde33b5870f020000006a473044022026b67f1cf4c19b22fe115fc6abd44adac23a3fadacb989cdc9b81fb39da4ae1b0220400c61d33afb3398c8ebb961796a6f211bd965f0ce817ca621ada701c26168ed012102de6492ca3def58f51c2f060efc17dde6f82cd6518efbbe89f705f8b2a3c7b562feffffff112b02a0b8d545b835261fdfed21bf29e56e55a30a596feb5e57360f8eea95a6020000006a473044022055e283caed5912721a22c9e471d68eb924fa7fbdf31bcf44a9534a2dcfe16ae8022078bc803c3a985f513d31264dddc25925bc507436e5abd2ade904e15f787f78e1012102de6492ca3def58f51c2f060efc17dde6f82cd6518efbbe89f705f8b2a3c7b562feffffff143b33ce9e7ad7be10a08dd1aeaaad130006cd9d6afda678af5ee554b516af35020000006a473044022055ad97645610c40d80c81d41180940a14591d742dc2563aff1a8c67242955d940220181ef8592fa522eb3012eba3a48e1f520d1ef6e04dce8b3c6d3eee6f3cfc29e7012102de6492ca3def58f51c2f060efc17dde6f82cd6518efbbe89f705f8b2a3c7b562feffffff18233d330bba3521627fc561c9a88a7d9f4b1423aa6d69cf4f45cbfdd42fd436020000006a47304402200da84c4c6d0dfbdd398df8048e1caf7d310ea7cd775122945eba2a9f0e0a2e46022043c86e02ba6087ed13b5eca3c8ffd198a6d588353f31399b82046203e12e5f57012102de6492ca3def58f51c2f060efc17dde6f82cd6518efbbe89f705f8b2a3c7b562feffffff03f53c0a00000000001976a914259dcfb78ab78fe6abaae163bba8410d3e2718ee88ac0000000000000000166a146f6d6e69000000000000001f0000001bf08eb00022020000000000001976a914a25dec4d0011064ef106a983c39c7a540699f22088accc480800", "vin": [{"sequence": 4294967294, "scriptSig": {"hex": "4830450221009accd4f4b09afcce458655c74426e68739a9e6b6464dad782bd220157ad5f15a02200c7072fb6dbe9de3b296bc0416ee393daaba79215504a4a1b53aa0d5564bb172012102de6492ca3def58f51c2f060efc17dde6f82cd6518efbbe89f705f8b2a3c7b562", "asm": "30450221009accd4f4b09afcce458655c74426e68739a9e6b6464dad782bd220157ad5f15a02200c7072fb6dbe9de3b296bc0416ee393daaba79215504a4a1b53aa0d5564bb172[ALL] 02de6492ca3def58f51c2f060efc17dde6f82cd6518efbbe89f705f8b2a3c7b562"}, "vout": 2, "txid": "8d2c0bb902149b1a42ee66d56d3fdecaa1e46d2da577ec2463463157db964e03"}, {"sequence": 4294967294, "scriptSig": {"hex": "473044022026b67f1cf4c19b22fe115fc6abd44adac23a3fadacb989cdc9b81fb39da4ae1b0220400c61d33afb3398c8ebb961796a6f211bd965f0ce817ca621ada701c26168ed012102de6492ca3def58f51c2f060efc17dde6f82cd6518efbbe89f705f8b2a3c7b562", "asm": "3044022026b67f1cf4c19b22fe115fc6abd44adac23a3fadacb989cdc9b81fb39da4ae1b0220400c61d33afb3398c8ebb961796a6f211bd965f0ce817ca621ada701c26168ed[ALL] 02de6492ca3def58f51c2f060efc17dde6f82cd6518efbbe89f705f8b2a3c7b562"}, "vout": 2, "txid": "0f87b533dedbc24cdfafbbaf15e2f1684ea38206ede2aa3395485754856cde06"}, {"sequence": 4294967294, "scriptSig": {"hex": "473044022055e283caed5912721a22c9e471d68eb924fa7fbdf31bcf44a9534a2dcfe16ae8022078bc803c3a985f513d31264dddc25925bc507436e5abd2ade904e15f787f78e1012102de6492ca3def58f51c2f060efc17dde6f82cd6518efbbe89f705f8b2a3c7b562", "asm": "3044022055e283caed5912721a22c9e471d68eb924fa7fbdf31bcf44a9534a2dcfe16ae8022078bc803c3a985f513d31264dddc25925bc507436e5abd2ade904e15f787f78e1[ALL] 02de6492ca3def58f51c2f060efc17dde6f82cd6518efbbe89f705f8b2a3c7b562"}, "vout": 2, "txid": "a695ea8e0f36575eeb6f590aa3556ee529bf21eddf1f2635b845d5b8a0022b11"}, {"sequence": 4294967294, "scriptSig": {"hex": "473044022055ad97645610c40d80c81d41180940a14591d742dc2563aff1a8c67242955d940220181ef8592fa522eb3012eba3a48e1f520d1ef6e04dce8b3c6d3eee6f3cfc29e7012102de6492ca3def58f51c2f060efc17dde6f82cd6518efbbe89f705f8b2a3c7b562", "asm": "3044022055ad97645610c40d80c81d41180940a14591d742dc2563aff1a8c67242955d940220181ef8592fa522eb3012eba3a48e1f520d1ef6e04dce8b3c6d3eee6f3cfc29e7[ALL] 02de6492ca3def58f51c2f060efc17dde6f82cd6518efbbe89f705f8b2a3c7b562"}, "vout": 2, "txid": "35af16b554e55eaf78a6fd6a9dcd060013adaaaed18da010bed77a9ece333b14"}, {"sequence": 4294967294, "scriptSig": {"hex": "47304402200da84c4c6d0dfbdd398df8048e1caf7d310ea7cd775122945eba2a9f0e0a2e46022043c86e02ba6087ed13b5eca3c8ffd198a6d588353f31399b82046203e12e5f57012102de6492ca3def58f51c2f060efc17dde6f82cd6518efbbe89f705f8b2a3c7b562", "asm": "304402200da84c4c6d0dfbdd398df8048e1caf7d310ea7cd775122945eba2a9f0e0a2e46022043c86e02ba6087ed13b5eca3c8ffd198a6d588353f31399b82046203e12e5f57[ALL] 02de6492ca3def58f51c2f060efc17dde6f82cd6518efbbe89f705f8b2a3c7b562"}, "vout": 2, "txid": "36d42fd4fdcb454fcf696daa23144b9f7d8aa8c961c57f622135ba0b333d2318"}], "txid": "cf1c72324d94b6cb8b25311c262c6e6e511505b070a83950cb62ca8f87681665", "blocktime": 1537870928, "version": 1, "confirmations": 11514, "time": 1537870928, "locktime": 542924, "vsize": 845, "size": 845}