{"hash": "cf211828c03e1cbade542a15a2588af82c82cf747131e757b2c65fb13d38345f", "blockhash": "0000000000000000001f76057863aec43deb6fa401d9628bb513d65a8098bfab", "vout": [{"scriptPubKey": {"reqSigs": 1, "hex": "76a914492e597d01967202a6e3c3245ddd307c3532133388ac", "addresses": ["17fwrRozs7gDr93UEyFCnP8QL64NfanzxC"], "asm": "OP_DUP OP_HASH160 492e597d01967202a6e3c3245ddd307c35321333 OP_EQUALVERIFY OP_CHECKSIG", "type": "pubkeyhash"}, "value": 0.01566483, "n": 0}, {"scriptPubKey": {"reqSigs": 1, "hex": "76a914c57dfe86684a00c2d21f9eb7f968e749c7ba693e88ac", "addresses": ["1K1F42NtaRQUF6ygihYv44GpDJobGdyHKN"], "asm": "OP_DUP OP_HASH160 c57dfe86684a00c2d21f9eb7f968e749c7ba693e OP_EQUALVERIFY OP_CHECKSIG", "type": "pubkeyhash"}, "value": 0.11352985, "n": 1}], "hex": "01000000010464e086df0561accca6d712330a034a697bf89d04a5299a0aadfff3dc7caf41010000006a473044022030d416fe22b96e1450c7ddcd0202868f0750d7300fade19d4df2db7b212cf01102201f7c923ca0974e95dc3351fb61c96355727bb64b3949e6d2fda46b3f89a611f9012103aad4ac5320b638b8b7b978cf7eecece5dc0b3832b149dbcf0b238126f84cf844ffffffff0213e71700000000001976a914492e597d01967202a6e3c3245ddd307c3532133388ac993bad00000000001976a914c57dfe86684a00c2d21f9eb7f968e749c7ba693e88ac00000000", "vin": [{"sequence": 4294967295, "scriptSig": {"hex": "473044022030d416fe22b96e1450c7ddcd0202868f0750d7300fade19d4df2db7b212cf01102201f7c923ca0974e95dc3351fb61c96355727bb64b3949e6d2fda46b3f89a611f9012103aad4ac5320b638b8b7b978cf7eecece5dc0b3832b149dbcf0b238126f84cf844", "asm": "3044022030d416fe22b96e1450c7ddcd0202868f0750d7300fade19d4df2db7b212cf01102201f7c923ca0974e95dc3351fb61c96355727bb64b3949e6d2fda46b3f89a611f9[ALL] 03aad4ac5320b638b8b7b978cf7eecece5dc0b3832b149dbcf0b238126f84cf844"}, "vout": 1, "txid": "41af7cdcf3ffad0a9a29a5049df87b694a030a3312d7a6ccac6105df86e06404"}], "txid": "cf211828c03e1cbade542a15a2588af82c82cf747131e757b2c65fb13d38345f", "blocktime": 1537873891, "version": 1, "confirmations": 11475, "time": 1537873891, "locktime": 0, "vsize": 225, "size": 225}