{"hash": "cf227e776c4c4810f04e355d9bbadfa2bd046fcc82380fc11a2a54d79d9feaca", "blockhash": "00000000000000000004ffacab907a6b429b9a5745fa0b75af4234bf69dd7176", "vout": [{"scriptPubKey": {"reqSigs": 1, "hex": "76a91471fd974a1e4c1cea38e6d8cb882c7f0f3e577f4e88ac", "addresses": ["1BPj9VE7Rxioya5xp1ifR9gPpA2BWzebo2"], "asm": "OP_DUP OP_HASH160 71fd974a1e4c1cea38e6d8cb882c7f0f3e577f4e OP_EQUALVERIFY OP_CHECKSIG", "type": "pubkeyhash"}, "value": 0.00188, "n": 0}, {"scriptPubKey": {"reqSigs": 1, "hex": "76a91404804e0773fa686554b392f4e01180294d07601f88ac", "addresses": ["1QoQYPb5JiKyeK2jj47Rv9YTRGn6FVFCX"], "asm": "OP_DUP OP_HASH160 04804e0773fa686554b392f4e01180294d07601f OP_EQUALVERIFY OP_CHECKSIG", "type": "pubkeyhash"}, "value": 0.007927, "n": 1}], "hex": "0100000001081dfd9af5bcc7b8ff2baacb0d9f97701b8d2fa74384ccb10863cd56a822a155000000006a4730440220500cfaaea4294cd25a9b52cdc6c06d71ab89b6d030144b0613f5b66592c8f1e4022048d52605139cc5098c5028adc1a79b2747300cae0e769ed1fa9115a1043cff6c012102355ec030075ff36cd91b814894ce05a2ca712f97366a0713ffb58ca01059bb88ffffffff0260de0200000000001976a91471fd974a1e4c1cea38e6d8cb882c7f0f3e577f4e88ac7c180c00000000001976a91404804e0773fa686554b392f4e01180294d07601f88ac00000000", "vin": [{"sequence": 4294967295, "scriptSig": {"hex": "4730440220500cfaaea4294cd25a9b52cdc6c06d71ab89b6d030144b0613f5b66592c8f1e4022048d52605139cc5098c5028adc1a79b2747300cae0e769ed1fa9115a1043cff6c012102355ec030075ff36cd91b814894ce05a2ca712f97366a0713ffb58ca01059bb88", "asm": "30440220500cfaaea4294cd25a9b52cdc6c06d71ab89b6d030144b0613f5b66592c8f1e4022048d52605139cc5098c5028adc1a79b2747300cae0e769ed1fa9115a1043cff6c[ALL] 02355ec030075ff36cd91b814894ce05a2ca712f97366a0713ffb58ca01059bb88"}, "vout": 0, "txid": "55a122a856cd6308b1cc8443a72f8d1b70979f0dcbaa2bffb8c7bcf59afd1d08"}], "txid": "cf227e776c4c4810f04e355d9bbadfa2bd046fcc82380fc11a2a54d79d9feaca", "blocktime": 1537875543, "version": 1, "confirmations": 11464, "time": 1537875543, "locktime": 0, "vsize": 225, "size": 225}