{"hash": "4c20947f10338feb18d7436b9a1a8cb3855bf66f1f49d4443a163b95e8ddade7", "blockhash": "0000000000000000000e13cef7c366c0283d82e591d1acd082e914b08063cdf1", "vout": [{"scriptPubKey": {"reqSigs": 1, "hex": "001467204a66e01dce219e28ee9d09c0bcd34f3b71ec", "addresses": ["bc1qvusy5ehqrh8zr83ga6wsns9u6d8nku0v47r3jf"], "asm": "0 67204a66e01dce219e28ee9d09c0bcd34f3b71ec", "type": "witness_v0_keyhash"}, "value": 2.079e-05, "n": 0}, {"scriptPubKey": {"reqSigs": 1, "hex": "a91474956be6db5e47a6eacbe9b5e86f64c4437175a687", "addresses": ["3CKTJnPJnWKMQiruomWyxLnQpiBUaTN2kd"], "asm": "OP_HASH160 74956be6db5e47a6eacbe9b5e86f64c4437175a6 OP_EQUAL", "type": "scripthash"}, "value": 0.001085, "n": 1}], "hex": "01000000000101c998ab966533befbf97d5f8cab8fb35e4175aac71a8d491da62cde55b493086e0100000000ffffffff021f0800000000000016001467204a66e01dce219e28ee9d09c0bcd34f3b71ecd4a701000000000017a91474956be6db5e47a6eacbe9b5e86f64c4437175a68702483045022100b67591285dfa63246d8d83e025aa461bd28c48c42f7eb61147b18f9002f2e48d02207894d4f57507f9d5dc1b288d4f89aeff9b37b84e06022a0e59f7c017f493ef9c0121027c1f9f5a2826798282471f61b608f0d3543397a208df0965885f0f3ba2f3b05200000000", "vin": [{"txinwitness": ["3045022100b67591285dfa63246d8d83e025aa461bd28c48c42f7eb61147b18f9002f2e48d02207894d4f57507f9d5dc1b288d4f89aeff9b37b84e06022a0e59f7c017f493ef9c01", "027c1f9f5a2826798282471f61b608f0d3543397a208df0965885f0f3ba2f3b052"], "sequence": 4294967295, "scriptSig": {"hex": "", "asm": ""}, "vout": 1, "txid": "6e0893b455de2ca61d498d1ac7aa75415eb38fab8c5f7df9fbbe336596ab98c9"}], "txid": "cf271dd4fc608dd7109ab8736e397c4eddecd56c41d64b520702c01b17bcde1c", "blocktime": 1537871767, "version": 1, "confirmations": 11495, "time": 1537871767, "locktime": 0, "vsize": 142, "size": 224}