{"hash": "cf2dbbbe433611a1bbd4ad69a6b8fb0876fb2e79d5406a99fe87a16290336106", "blockhash": "00000000000000000017f5eb5941039fbcee6240d03bc1f2f8e35350df66a1d8", "vout": [{"scriptPubKey": {"reqSigs": 1, "hex": "76a914b75f1f4b24e6ea6f95a2343b72bba4e290fd7c7588ac", "addresses": ["1HiacKDcY2r5N6CL6HiyNpSMxd6tpBbRDb"], "asm": "OP_DUP OP_HASH160 b75f1f4b24e6ea6f95a2343b72bba4e290fd7c75 OP_EQUALVERIFY OP_CHECKSIG", "type": "pubkeyhash"}, "value": 0.01, "n": 0}, {"scriptPubKey": {"reqSigs": 1, "hex": "76a914ef1dba9a2fe6d63589f8497e27a2fe6b348c4a7e88ac", "addresses": ["1NoL7T2TyvekKWXNnFiqnFCq4L5h3Ewo7L"], "asm": "OP_DUP OP_HASH160 ef1dba9a2fe6d63589f8497e27a2fe6b348c4a7e OP_EQUALVERIFY OP_CHECKSIG", "type": "pubkeyhash"}, "value": 0.01321782, "n": 1}], "hex": "01000000010c352b6e097b7bf16f5232f98bb1419a93ae888cb6d9bfc5c08c6c1b3fefcb80000000006b483045022100ce4d188637b66a0ba39b02547f03377030bb40e940601c04afe34a4782968a5102206f795593f6efaa3712b48bb62e7763447082b03184d7689bead0b77c27c1a1e501210318880fb2ba58657607802bb5fba54f34d61d733b2c0bf93ef7c939d84489fb52fdffffff0240420f00000000001976a914b75f1f4b24e6ea6f95a2343b72bba4e290fd7c7588ac362b1400000000001976a914ef1dba9a2fe6d63589f8497e27a2fe6b348c4a7e88ac15490800", "vin": [{"sequence": 4294967293, "scriptSig": {"hex": "483045022100ce4d188637b66a0ba39b02547f03377030bb40e940601c04afe34a4782968a5102206f795593f6efaa3712b48bb62e7763447082b03184d7689bead0b77c27c1a1e501210318880fb2ba58657607802bb5fba54f34d61d733b2c0bf93ef7c939d84489fb52", "asm": "3045022100ce4d188637b66a0ba39b02547f03377030bb40e940601c04afe34a4782968a5102206f795593f6efaa3712b48bb62e7763447082b03184d7689bead0b77c27c1a1e5[ALL] 0318880fb2ba58657607802bb5fba54f34d61d733b2c0bf93ef7c939d84489fb52"}, "vout": 0, "txid": "80cbef3f1b6c8cc0c5bfd9b68c88ae939a41b18bf932526ff17b7b096e2b350c"}], "txid": "cf2dbbbe433611a1bbd4ad69a6b8fb0876fb2e79d5406a99fe87a16290336106", "blocktime": 1537874412, "version": 1, "confirmations": 11467, "time": 1537874412, "locktime": 542997, "vsize": 226, "size": 226}