{"hash": "cf2f824f1e610e324f5431e8f4006a587334bbcaf4781812084d0636bd01b6d7", "blockhash": "0000000000000000001f76057863aec43deb6fa401d9628bb513d65a8098bfab", "vout": [{"scriptPubKey": {"reqSigs": 1, "hex": "76a91438d428103237da637577227eed9b78fd115a23a088ac", "addresses": ["16BUzdnxDBu88kVw2xNYTF3mQnGmCBsZFn"], "asm": "OP_DUP OP_HASH160 38d428103237da637577227eed9b78fd115a23a0 OP_EQUALVERIFY OP_CHECKSIG", "type": "pubkeyhash"}, "value": 0.00040039, "n": 0}, {"scriptPubKey": {"reqSigs": 1, "hex": "76a9147712d2d4eda9d5b5a632397f70523c1b7cd0790c88ac", "addresses": ["1BrbxiHWT2W3hWctk4dWWjoStc5ZtCHXgW"], "asm": "OP_DUP OP_HASH160 7712d2d4eda9d5b5a632397f70523c1b7cd0790c OP_EQUALVERIFY OP_CHECKSIG", "type": "pubkeyhash"}, "value": 0.1, "n": 1}], "hex": "010000000229221bfa563fccd425300df048812dad534ef3fbc8e617204698b8a036e6fd75000000006b48304502210091cd09f5b97cfede0895cd9ae434fe9647b1295f847463f21bbb7f454a5b001202200114272d08ca53b39c62a10e531d2c8f0242095dc6b315cb185288d8f5a1095d0121038adf77b157ab14d620da8fef0a64c683308c68259de0ffdc485fddd1a6b1259bffffffff367510071dfa0f72ebaf4693e94396084b17dbe06c6d8f9fda7ee651ec9506b9000000006a47304402202038b16ec6a30956d69e2444f6172785b085e272f278ca61bfa32e2692b2c593022045413131700e341bd9c40329e5fdb65987c8d220cf9d9f55f91ad992e80667e60121020eb20489c05dd2f04bf0ff757b5118a8eae254424fcb55fac53782d8bc955445ffffffff02679c0000000000001976a91438d428103237da637577227eed9b78fd115a23a088ac80969800000000001976a9147712d2d4eda9d5b5a632397f70523c1b7cd0790c88ac00000000", "vin": [{"sequence": 4294967295, "scriptSig": {"hex": "48304502210091cd09f5b97cfede0895cd9ae434fe9647b1295f847463f21bbb7f454a5b001202200114272d08ca53b39c62a10e531d2c8f0242095dc6b315cb185288d8f5a1095d0121038adf77b157ab14d620da8fef0a64c683308c68259de0ffdc485fddd1a6b1259b", "asm": "304502210091cd09f5b97cfede0895cd9ae434fe9647b1295f847463f21bbb7f454a5b001202200114272d08ca53b39c62a10e531d2c8f0242095dc6b315cb185288d8f5a1095d[ALL] 038adf77b157ab14d620da8fef0a64c683308c68259de0ffdc485fddd1a6b1259b"}, "vout": 0, "txid": "75fde636a0b898462017e6c8fbf34e53ad2d8148f00d3025d4cc3f56fa1b2229"}, {"sequence": 4294967295, "scriptSig": {"hex": "47304402202038b16ec6a30956d69e2444f6172785b085e272f278ca61bfa32e2692b2c593022045413131700e341bd9c40329e5fdb65987c8d220cf9d9f55f91ad992e80667e60121020eb20489c05dd2f04bf0ff757b5118a8eae254424fcb55fac53782d8bc955445", "asm": "304402202038b16ec6a30956d69e2444f6172785b085e272f278ca61bfa32e2692b2c593022045413131700e341bd9c40329e5fdb65987c8d220cf9d9f55f91ad992e80667e6[ALL] 020eb20489c05dd2f04bf0ff757b5118a8eae254424fcb55fac53782d8bc955445"}, "vout": 0, "txid": "b90695ec51e67eda9f8f6d6ce0db174b089643e99346afeb720ffa1d07107536"}], "txid": "cf2f824f1e610e324f5431e8f4006a587334bbcaf4781812084d0636bd01b6d7", "blocktime": 1537873891, "version": 1, "confirmations": 11478, "time": 1537873891, "locktime": 0, "vsize": 373, "size": 373}