{"hash": "fbfcc8ffa78c17df8b01afbf33ba19a3c9bf35059ffe7da22884c664f6c9dcb5", "blockhash": "0000000000000000000baef3f32e3676a92c3b2e5da21b426e4f302fc371ce76", "vout": [{"scriptPubKey": {"reqSigs": 1, "hex": "a91490e99e8d26d05ead3c05430c292a887bbff695f587", "addresses": ["3EuF6KjJawxTiUsea3Sc8hsLUGmVEf7Xg5"], "asm": "OP_HASH160 90e99e8d26d05ead3c05430c292a887bbff695f5 OP_EQUAL", "type": "scripthash"}, "value": 0.00106419, "n": 0}, {"scriptPubKey": {"type": "nulldata", "hex": "6a146f6d6e69000000000000001f0000000005f5e100", "asm": "OP_RETURN 6f6d6e69000000000000001f0000000005f5e100"}, "value": 0.0, "n": 1}, {"scriptPubKey": {"reqSigs": 1, "hex": "a91490e99e8d26d05ead3c05430c292a887bbff695f587", "addresses": ["3EuF6KjJawxTiUsea3Sc8hsLUGmVEf7Xg5"], "asm": "OP_HASH160 90e99e8d26d05ead3c05430c292a887bbff695f5 OP_EQUAL", "type": "scripthash"}, "value": 5.4e-06, "n": 2}], "hex": "0100000000010283f46c80f4043dac687de9bfbfa5d9a9f0831b42e9cb17103669cd269e1a2a180000000017160014f6e1792e7852ebd5ae795c2a25d579acdfadec2dffffffff83f46c80f4043dac687de9bfbfa5d9a9f0831b42e9cb17103669cd269e1a2a180200000017160014f6e1792e7852ebd5ae795c2a25d579acdfadec2dffffffff03b39f01000000000017a91490e99e8d26d05ead3c05430c292a887bbff695f5870000000000000000166a146f6d6e69000000000000001f0000000005f5e1001c0200000000000017a91490e99e8d26d05ead3c05430c292a887bbff695f587024730440220053695b2a2033afd92355ac556cb99f37fd385758ce17556884af540b28e29b402203672854ee8b37821a8856bc5556e2f21a702d46f3188c53ded3a2cc43fa6f8d7012103f1cf988013a33e053d1e9bd54c4798c1a6dc362a5b2798b5344049fca40e2db0024830450221009015b951ec10ae6e9f3e24fd5703fa69163090ca52b0a36656cc06709b9b73d50220117bca44c961ded3ab07decf4d927980468c22765f1238d3e9de4c7bbaf5cc7e012103f1cf988013a33e053d1e9bd54c4798c1a6dc362a5b2798b5344049fca40e2db000000000", "vin": [{"txinwitness": ["30440220053695b2a2033afd92355ac556cb99f37fd385758ce17556884af540b28e29b402203672854ee8b37821a8856bc5556e2f21a702d46f3188c53ded3a2cc43fa6f8d701", "03f1cf988013a33e053d1e9bd54c4798c1a6dc362a5b2798b5344049fca40e2db0"], "sequence": 4294967295, "scriptSig": {"hex": "160014f6e1792e7852ebd5ae795c2a25d579acdfadec2d", "asm": "0014f6e1792e7852ebd5ae795c2a25d579acdfadec2d"}, "vout": 0, "txid": "182a1a9e26cd69361017cbe9421b83f0a9d9a5bfbfe97d68ac3d04f4806cf483"}, {"txinwitness": ["30450221009015b951ec10ae6e9f3e24fd5703fa69163090ca52b0a36656cc06709b9b73d50220117bca44c961ded3ab07decf4d927980468c22765f1238d3e9de4c7bbaf5cc7e01", "03f1cf988013a33e053d1e9bd54c4798c1a6dc362a5b2798b5344049fca40e2db0"], "sequence": 4294967295, "scriptSig": {"hex": "160014f6e1792e7852ebd5ae795c2a25d579acdfadec2d", "asm": "0014f6e1792e7852ebd5ae795c2a25d579acdfadec2d"}, "vout": 2, "txid": "182a1a9e26cd69361017cbe9421b83f0a9d9a5bfbfe97d68ac3d04f4806cf483"}], "txid": "cf2fb22a0fae26253284d168b5f201f11cf523d6e8df0d7cbf3b4832ae89e042", "blocktime": 1537876114, "version": 1, "confirmations": 11460, "time": 1537876114, "locktime": 0, "vsize": 288, "size": 450}