{"hash": "cf38fbd6120d9a09bad04b79d040c00c4c08082ba2f4b3ce77053c50a8857848", "blockhash": "0000000000000000001f0ddff1eddb255c1121bcd4da4f1bc9a0da00cae72433", "vout": [{"scriptPubKey": {"reqSigs": 1, "hex": "a91423180f8215cae4a09a8f08ccb5eb389f3fd9c93b87", "addresses": ["34taQ1tXa2XeQbEEgjF8TZgBjW3ofUYXpd"], "asm": "OP_HASH160 23180f8215cae4a09a8f08ccb5eb389f3fd9c93b OP_EQUAL", "type": "scripthash"}, "value": 0.01586067, "n": 0}, {"scriptPubKey": {"reqSigs": 1, "hex": "76a914e75d7a9605510324cd548fd52ab079a4e8e8e4b388ac", "addresses": ["1N6M5LZh49VBEmev7R1ttCss7Smp2wis1W"], "asm": "OP_DUP OP_HASH160 e75d7a9605510324cd548fd52ab079a4e8e8e4b3 OP_EQUALVERIFY OP_CHECKSIG", "type": "pubkeyhash"}, "value": 0.08413366, "n": 1}], "hex": "010000000177aa6729a3dcd2e915091890a63aecf131ae29b7e6e755c8e197df1b6af69d2e200000006a47304402204047d8ececb030da8a66dfea0d8d9aa7ffe6f4c9b8ea9d61028bce1eb402550402203f6d4c3f30aacd62baf55a477200d6796ab7d2391ede7a0793d52b1a2ca2d2480121022a34b27ec3abb34186d4dfa0e368aff1648613e81a20ad6ac4755f2df2f672fdffffffff02933318000000000017a91423180f8215cae4a09a8f08ccb5eb389f3fd9c93b87b6608000000000001976a914e75d7a9605510324cd548fd52ab079a4e8e8e4b388ac00000000", "vin": [{"sequence": 4294967295, "scriptSig": {"hex": "47304402204047d8ececb030da8a66dfea0d8d9aa7ffe6f4c9b8ea9d61028bce1eb402550402203f6d4c3f30aacd62baf55a477200d6796ab7d2391ede7a0793d52b1a2ca2d2480121022a34b27ec3abb34186d4dfa0e368aff1648613e81a20ad6ac4755f2df2f672fd", "asm": "304402204047d8ececb030da8a66dfea0d8d9aa7ffe6f4c9b8ea9d61028bce1eb402550402203f6d4c3f30aacd62baf55a477200d6796ab7d2391ede7a0793d52b1a2ca2d248[ALL] 022a34b27ec3abb34186d4dfa0e368aff1648613e81a20ad6ac4755f2df2f672fd"}, "vout": 32, "txid": "2e9df66a1bdf97e1c855e7e6b729ae31f1ec3aa690180915e9d2dca32967aa77"}], "txid": "cf38fbd6120d9a09bad04b79d040c00c4c08082ba2f4b3ce77053c50a8857848", "blocktime": 1537872018, "version": 1, "confirmations": 11489, "time": 1537872018, "locktime": 0, "vsize": 223, "size": 223}