{"hash": "cf428f1878bfc31b0bfa3456a2e08252168cae9f1fc5a3fea0d9871929eb1dd3", "blockhash": "000000000000000000022b45ed06c6f4ccd3cf7fb5ba4856ebd2e58215665228", "vout": [{"scriptPubKey": {"reqSigs": 1, "hex": "76a914d4236f90d5260e0b3ba166d0d55854899118ac0788ac", "addresses": ["1LLghnsSNWsgnM9WrTR6g786C3Q7jseK18"], "asm": "OP_DUP OP_HASH160 d4236f90d5260e0b3ba166d0d55854899118ac07 OP_EQUALVERIFY OP_CHECKSIG", "type": "pubkeyhash"}, "value": 1.15215121, "n": 0}, {"scriptPubKey": {"reqSigs": 1, "hex": "76a9142763f7e768515d554d7f9c9023a5c92914b63e2388ac", "addresses": ["14bH7QYE6xgCzmxqkt32zn8uheXakvoJZr"], "asm": "OP_DUP OP_HASH160 2763f7e768515d554d7f9c9023a5c92914b63e23 OP_EQUALVERIFY OP_CHECKSIG", "type": "pubkeyhash"}, "value": 1.48069504, "n": 1}], "hex": "0100000001685fc4a5f68f814245812001f439d37e3630b41d31be8746a0429a0f2785f402000000006b4830450221009d13ef5514c11ada48dddb37a403c9249427e494fb87ab4aaec5a05733be650f022068990990a878c85ff07055fda06d13cbcfa07f29c04c4745480b7542547fc6350121031ebac4728240cf01b7b7c2786b2bc7b4791b5013685b6e50455cef34fc7b9a80ffffffff02110bde06000000001976a914d4236f90d5260e0b3ba166d0d55854899118ac0788ac805cd308000000001976a9142763f7e768515d554d7f9c9023a5c92914b63e2388ac00000000", "vin": [{"sequence": 4294967295, "scriptSig": {"hex": "4830450221009d13ef5514c11ada48dddb37a403c9249427e494fb87ab4aaec5a05733be650f022068990990a878c85ff07055fda06d13cbcfa07f29c04c4745480b7542547fc6350121031ebac4728240cf01b7b7c2786b2bc7b4791b5013685b6e50455cef34fc7b9a80", "asm": "30450221009d13ef5514c11ada48dddb37a403c9249427e494fb87ab4aaec5a05733be650f022068990990a878c85ff07055fda06d13cbcfa07f29c04c4745480b7542547fc635[ALL] 031ebac4728240cf01b7b7c2786b2bc7b4791b5013685b6e50455cef34fc7b9a80"}, "vout": 0, "txid": "02f485270f9a42a04687be311db430367ed339f40120814542818ff6a5c45f68"}], "txid": "cf428f1878bfc31b0bfa3456a2e08252168cae9f1fc5a3fea0d9871929eb1dd3", "blocktime": 1537869901, "version": 1, "confirmations": 11522, "time": 1537869901, "locktime": 0, "vsize": 226, "size": 226}