{"hash": "cf4d29fcdbfaa76f24fd15e34d56e08001b03c2ded50d5a97a26a4aa051d674f", "blockhash": "0000000000000000000dcc0f55137456b1a82d3642486a52398922ac4d620174", "vout": [{"scriptPubKey": {"reqSigs": 1, "hex": "76a914ca894a83b9c57edf9a1161e3b270440e16e43fe688ac", "addresses": ["1KTuxuEvyk6WSpdK8RHq5cKtemhJ4d5948"], "asm": "OP_DUP OP_HASH160 ca894a83b9c57edf9a1161e3b270440e16e43fe6 OP_EQUALVERIFY OP_CHECKSIG", "type": "pubkeyhash"}, "value": 0.014, "n": 0}, {"scriptPubKey": {"reqSigs": 1, "hex": "76a9147711eab6ffcc99e4376ac39f4022de413e1ea2a988ac", "addresses": ["1BrasiLb2KMbdtuhb1chAVnS2FvcNGfV9J"], "asm": "OP_DUP OP_HASH160 7711eab6ffcc99e4376ac39f4022de413e1ea2a9 OP_EQUALVERIFY OP_CHECKSIG", "type": "pubkeyhash"}, "value": 0.00464889, "n": 1}], "hex": "0200000001337a0d2cd9dd71609898f631edbb66559285158d1482f9f5016a2516b9a880aa050000006a473044022001c860c6b443a480e38a51f19916d041be3f3d6d37d5171c010dac9b3742beb602202511c242a75965f89a3b9b4b941212d8c293bce7eaf95af9e85f4fbc08655a080121027819946d88071caff39ae942cbef133fafe454e853d13525c96ab58ba09823c8ffffffff02c05c1500000000001976a914ca894a83b9c57edf9a1161e3b270440e16e43fe688acf9170700000000001976a9147711eab6ffcc99e4376ac39f4022de413e1ea2a988ac00000000", "vin": [{"sequence": 4294967295, "scriptSig": {"hex": "473044022001c860c6b443a480e38a51f19916d041be3f3d6d37d5171c010dac9b3742beb602202511c242a75965f89a3b9b4b941212d8c293bce7eaf95af9e85f4fbc08655a080121027819946d88071caff39ae942cbef133fafe454e853d13525c96ab58ba09823c8", "asm": "3044022001c860c6b443a480e38a51f19916d041be3f3d6d37d5171c010dac9b3742beb602202511c242a75965f89a3b9b4b941212d8c293bce7eaf95af9e85f4fbc08655a08[ALL] 027819946d88071caff39ae942cbef133fafe454e853d13525c96ab58ba09823c8"}, "vout": 5, "txid": "aa80a8b916256a01f5f982148d1585925566bbed31f698986071ddd92c0d7a33"}], "txid": "cf4d29fcdbfaa76f24fd15e34d56e08001b03c2ded50d5a97a26a4aa051d674f", "blocktime": 1537870268, "version": 2, "confirmations": 11517, "time": 1537870268, "locktime": 0, "vsize": 225, "size": 225}