{"hash": "79b26be1e43529bd742c902f1414e63705ab886273f3295cc89fbb9e465a9cca", "blockhash": "0000000000000000001e0dab787dd257d1dbfcb92a98c2207d5e1078be1f4165", "vout": [{"scriptPubKey": {"reqSigs": 1, "hex": "76a9145154f10d4afaeda5524b7d5b2af76e9de509037488ac", "addresses": ["18R3VPKEL1NsTypopiF58QBeKrksWvsxaF"], "asm": "OP_DUP OP_HASH160 5154f10d4afaeda5524b7d5b2af76e9de5090374 OP_EQUALVERIFY OP_CHECKSIG", "type": "pubkeyhash"}, "value": 0.3119, "n": 0}, {"scriptPubKey": {"reqSigs": 1, "hex": "a91489a78170e311e74e00fbe9a08619b1713c71209d87", "addresses": ["3EEsAKVYAr818XSCWDokvdvxhyd4ybbvqJ"], "asm": "OP_HASH160 89a78170e311e74e00fbe9a08619b1713c71209d OP_EQUAL", "type": "scripthash"}, "value": 0.0101216, "n": 1}], "hex": "020000000001033a687999c9541b83b80e1f27dc9f7cec1b2f8400cba9563bba8c9f6197f228a20b000000171600148e13c2fca9003b941c1b0105555d227f488456a7feffffff55f464f867dc6f015624ba80d388fffa3151ea961687ddfc226b80c5dbcc460708000000171600146c1b8ef4c80157e3563e8b8d110a8ef4f0e41723feffffffdb2af93f2985767c09cf76cf9a7694d5330650c2cdfd6bc9d839f63c67ae491f00000000171600147309598f375bede0e5e44aead4bd5a5d0e891f5efeffffff02f0ebdb01000000001976a9145154f10d4afaeda5524b7d5b2af76e9de509037488acc0710f000000000017a91489a78170e311e74e00fbe9a08619b1713c71209d8702483045022100e46d5b651d7338e02f23705b6f8eefcd2dd05dcccc8b86084e35334b57670f330220559354fab57cd94338fbc991763fee0b6b1c2ae67d571ad2f7febd49fa9ed9ea0121037a276956854a87d0eb87e939baa590d9c236eff22479264cc1da7a2790c7a19f02483045022100ca2df403f99231e73076727a995ae966d78a0e2f70a5ba4f28205f7ac9939c8e022060524047b865ee413f77e211ac556edc27d26ba75f800f111e3f96b0d06f9d7f012102267e4b75927862169e86000ec90f3ebc7030a22dadf7d790119911184ab8d21402473044022002d68e98a2b13d9db2643fdd6248b44649ca3fe49e46672dc3ebed13a3caa6960220539ccb6a158bc2fcf583a1516739091d58a2fa23da2a62c000c0d04f9a7aef650121034f95c769eba3ab9d0bd65a484929adecb4ea78d6dae6032c1344751b6dd1551a12490800", "vin": [{"txinwitness": ["3045022100e46d5b651d7338e02f23705b6f8eefcd2dd05dcccc8b86084e35334b57670f330220559354fab57cd94338fbc991763fee0b6b1c2ae67d571ad2f7febd49fa9ed9ea01", "037a276956854a87d0eb87e939baa590d9c236eff22479264cc1da7a2790c7a19f"], "sequence": 4294967294, "scriptSig": {"hex": "1600148e13c2fca9003b941c1b0105555d227f488456a7", "asm": "00148e13c2fca9003b941c1b0105555d227f488456a7"}, "vout": 11, "txid": "a228f297619f8cba3b56a9cb00842f1bec7c9fdc271f0eb8831b54c99979683a"}, {"txinwitness": ["3045022100ca2df403f99231e73076727a995ae966d78a0e2f70a5ba4f28205f7ac9939c8e022060524047b865ee413f77e211ac556edc27d26ba75f800f111e3f96b0d06f9d7f01", "02267e4b75927862169e86000ec90f3ebc7030a22dadf7d790119911184ab8d214"], "sequence": 4294967294, "scriptSig": {"hex": "1600146c1b8ef4c80157e3563e8b8d110a8ef4f0e41723", "asm": "00146c1b8ef4c80157e3563e8b8d110a8ef4f0e41723"}, "vout": 8, "txid": "0746ccdbc5806b22fcdd871696ea5131faff88d380ba2456016fdc67f864f455"}, {"txinwitness": ["3044022002d68e98a2b13d9db2643fdd6248b44649ca3fe49e46672dc3ebed13a3caa6960220539ccb6a158bc2fcf583a1516739091d58a2fa23da2a62c000c0d04f9a7aef6501", "034f95c769eba3ab9d0bd65a484929adecb4ea78d6dae6032c1344751b6dd1551a"], "sequence": 4294967294, "scriptSig": {"hex": "1600147309598f375bede0e5e44aead4bd5a5d0e891f5e", "asm": "00147309598f375bede0e5e44aead4bd5a5d0e891f5e"}, "vout": 0, "txid": "1f49ae673cf639d8c96bfdcdc2500633d594769acf76cf097c7685293ff92adb"}], "txid": "cf4d9b1c63175fe4354c3c5d8e60d5d8772b4535a4ffcd2c14b42c83debf6261", "blocktime": 1537872475, "version": 2, "confirmations": 11487, "time": 1537872475, "locktime": 542994, "vsize": 350, "size": 593}