{"hash": "cf4dd7e486c259ec51269d866ad231a89a44d82f73ed537b2f9346068dc81f57", "blockhash": "0000000000000000000baef3f32e3676a92c3b2e5da21b426e4f302fc371ce76", "vout": [{"scriptPubKey": {"reqSigs": 1, "hex": "76a91453b851f603bbbb33f9e64933fbfea8330b594a9e88ac", "addresses": ["18dftiFNd4g5CBJrt3qPjV7PzkRCR6r4zB"], "asm": "OP_DUP OP_HASH160 53b851f603bbbb33f9e64933fbfea8330b594a9e OP_EQUALVERIFY OP_CHECKSIG", "type": "pubkeyhash"}, "value": 0.001093, "n": 0}, {"scriptPubKey": {"type": "nulldata", "hex": "6a4c500000783000010166cb4da3c53a17d0d06ce027b7256b4774d339f6019d6ddc0f1b8ff1172ded1b922fe774e5476d7618ccf947095baa1f730613e5d27e617af0bc9a9526289ac0f6612cd74e33776ee4", "asm": "OP_RETURN 0000783000010166cb4da3c53a17d0d06ce027b7256b4774d339f6019d6ddc0f1b8ff1172ded1b922fe774e5476d7618ccf947095baa1f730613e5d27e617af0bc9a9526289ac0f6612cd74e33776ee4"}, "value": 0.0, "n": 1}], "hex": "0100000001c0260483b4cc3d6c0e3d6b6d186a93355603f26f9ac53dec726a52b0ea180c73010000006a47304402201b5653b5bd6fc8870bd0f10243179e4bb2590fa8a75733d968b508bc052ea9a6022067e476b724ed901c3ba74a954a63103e4c450860ecaf5e27b1d2c7bb45be6c57012103078c3999d2ff69ffa4d2387027250b9b91ab86540e6ed8bc6f81bea06be89557ffffffff02f4aa0100000000001976a91453b851f603bbbb33f9e64933fbfea8330b594a9e88ac0000000000000000536a4c500000783000010166cb4da3c53a17d0d06ce027b7256b4774d339f6019d6ddc0f1b8ff1172ded1b922fe774e5476d7618ccf947095baa1f730613e5d27e617af0bc9a9526289ac0f6612cd74e33776ee400000000", "vin": [{"sequence": 4294967295, "scriptSig": {"hex": "47304402201b5653b5bd6fc8870bd0f10243179e4bb2590fa8a75733d968b508bc052ea9a6022067e476b724ed901c3ba74a954a63103e4c450860ecaf5e27b1d2c7bb45be6c57012103078c3999d2ff69ffa4d2387027250b9b91ab86540e6ed8bc6f81bea06be89557", "asm": "304402201b5653b5bd6fc8870bd0f10243179e4bb2590fa8a75733d968b508bc052ea9a6022067e476b724ed901c3ba74a954a63103e4c450860ecaf5e27b1d2c7bb45be6c57[ALL] 03078c3999d2ff69ffa4d2387027250b9b91ab86540e6ed8bc6f81bea06be89557"}, "vout": 1, "txid": "730c18eab0526a72ec3dc59a6ff2035635936a186d6b3d0e6c3dccb4830426c0"}], "txid": "cf4dd7e486c259ec51269d866ad231a89a44d82f73ed537b2f9346068dc81f57", "blocktime": 1537876114, "version": 1, "confirmations": 11461, "time": 1537876114, "locktime": 0, "vsize": 283, "size": 283}