{"hash": "589bc9c556c2b8fe1699159c9529b89a59357ccbe7b2d15767f6daffdf8689f9", "blockhash": "00000000000000000018f53835495a110e01622372bf6ae95dc86f2b0ab887b0", "vout": [{"scriptPubKey": {"reqSigs": 1, "hex": "a91430897cc6c9d69f6a2c2f1c651d51f22219f1a4f687", "addresses": ["367f4YWz1VCFaqBqwbTrzwi2b1h2U3w1AF"], "asm": "OP_HASH160 30897cc6c9d69f6a2c2f1c651d51f22219f1a4f6 OP_EQUAL", "type": "scripthash"}, "value": 0.00873975, "n": 0}, {"scriptPubKey": {"reqSigs": 1, "hex": "a9146b2a04ecd81240801f2b8479d4f54a3a540d9a2787", "addresses": ["3BTeZcma71EnYdb5zic96tfTShBwgbNH95"], "asm": "OP_HASH160 6b2a04ecd81240801f2b8479d4f54a3a540d9a27 OP_EQUAL", "type": "scripthash"}, "value": 0.00142398, "n": 1}], "hex": "01000000000101cc9156a66c1e0c116adaa1d8b06cfd6c615aa5a606d08fe5048edc82171975e70000000023220020bcf9f822194145acea0f3235f4107b5bf1a91b6b9f8489f63bf79ec29b360913ffffffff02f7550d000000000017a91430897cc6c9d69f6a2c2f1c651d51f22219f1a4f6873e2c02000000000017a9146b2a04ecd81240801f2b8479d4f54a3a540d9a27870400473044022026c1d7b7390bc48884cf14d8a7e7425b26cdd59aa280882484bce7dcdb93df4f0220752cdd64a939fc305f8acea89b9f2da1b08f313dad66ceda7805abec14f0f0ca01473044022100a074948274cf8d3fb282121961c0c09e4d4a83f1d0fc399d4e8af6662330f2c9021f218c2daccf04d11161b70d96ffaac877dc1015e104690943294282ce24986101695221026c8f72b9e63db63907115e65d4da86eaae595b22fdc85ec75301bb4adbf203582103806535be3e3920e5eedee92de5714188fd6a784f2bf7b04f87de0b9c3ae1ecdb21024b23bfdce2afcae7e28c42f7f79aa100f22931712c52d7414a526ba494d44a2553ae00000000", "vin": [{"txinwitness": ["", "3044022026c1d7b7390bc48884cf14d8a7e7425b26cdd59aa280882484bce7dcdb93df4f0220752cdd64a939fc305f8acea89b9f2da1b08f313dad66ceda7805abec14f0f0ca01", "3044022100a074948274cf8d3fb282121961c0c09e4d4a83f1d0fc399d4e8af6662330f2c9021f218c2daccf04d11161b70d96ffaac877dc1015e104690943294282ce24986101", "5221026c8f72b9e63db63907115e65d4da86eaae595b22fdc85ec75301bb4adbf203582103806535be3e3920e5eedee92de5714188fd6a784f2bf7b04f87de0b9c3ae1ecdb21024b23bfdce2afcae7e28c42f7f79aa100f22931712c52d7414a526ba494d44a2553ae"], "sequence": 4294967295, "scriptSig": {"hex": "220020bcf9f822194145acea0f3235f4107b5bf1a91b6b9f8489f63bf79ec29b360913", "asm": "0020bcf9f822194145acea0f3235f4107b5bf1a91b6b9f8489f63bf79ec29b360913"}, "vout": 0, "txid": "e775191782dc8e04e58fd006a6a55a616cfd6cb0d8a1da6a110c1e6ca65691cc"}], "txid": "cf57252b72659ba466ef75d27088cccbd4bec6b8616affd64c286bcd844df88a", "blocktime": 1537870928, "version": 1, "confirmations": 11512, "time": 1537870928, "locktime": 0, "vsize": 214, "size": 404}