{"hash": "cf59ad171139eeaa2b258951df089c79a0506734752d7ade9d846305f4aca654", "blockhash": "0000000000000000000e13cef7c366c0283d82e591d1acd082e914b08063cdf1", "vout": [{"scriptPubKey": {"reqSigs": 1, "hex": "a91438e24db001cc843755d5c857cd8b03857f23debd87", "addresses": ["36sns8Jnw16cdKSnnpdwqG3RM53HGTW77g"], "asm": "OP_HASH160 38e24db001cc843755d5c857cd8b03857f23debd OP_EQUAL", "type": "scripthash"}, "value": 0.06392, "n": 0}], "hex": "0100000006da8fa769d63a616776077be8e78fd7cb3165795df6f51b756159beac9d187666000000006a4730440220232319add613fa1f02228f07c09759a4a16bd102aa032b63763c1beb2fd36bba02207dfe081f50c288880a955451317413161554d498e98b32e41b7a5e28a313d04b0121031514790f59d1b8e956480c4bb341a516fcc633e2c6f3160960a71c3aee9632afffffffff2fddf20ef5c2323a2e3e6703b451f2b7d8ea7b187c8f7180c458bdc873dd0d6e000000006b483045022100c8aa0db6cdb2305fc56d311a02987006f773e118fedc0dc3b08e8a8bc4b7b1d4022037f3af76e6f1c366c07b4ba0bdc6d8e6807991d9ee311099a120afa4758bd5fc0121031514790f59d1b8e956480c4bb341a516fcc633e2c6f3160960a71c3aee9632afffffffffd8e3334aee7821380a5f6ad8aa0b93b01e3c80c09a61485346eb8d6d3966fb6f000000006b483045022100a61b0b3906c43b2c760a40cdcb5783a98af605393db29efd7470c0697dbff8a2022023ba114a46d6922927071c912b12724bc4f9f156fa0741876e3ecc2ea142dd6c0121031514790f59d1b8e956480c4bb341a516fcc633e2c6f3160960a71c3aee9632affffffffff94d7f2ea0bb666689f418bd8cddabbe0966939b875d1d54cb395d7946984f9f000000006a47304402201b0a410467be95b2a94915d3369a3d29be008a7bf57784be224ef3b53da6933e02202b60a43ff4813c2c106b24ec17189428aba7e3833d7e4fa0eae1c7bc20484d540121031514790f59d1b8e956480c4bb341a516fcc633e2c6f3160960a71c3aee9632afffffffff9bb7f8e05da1460ce59fb4a1699a856a21231a101f855f221540c8188d5707cb000000006b483045022100d714d9bde610b8715ddd13fff9e159f6f79bae7f718a79cbad21767ab8526957022009597b822d66d7d49267373c559ea5ca45aa605d2f9817812767a6e8b902180c0121031514790f59d1b8e956480c4bb341a516fcc633e2c6f3160960a71c3aee9632afffffffffe2f293547242fa08af452e4b99cab04aad55ed9e6a2dffbf58a76a6793fa61e6240000006a473044022025b242eb01dc02b92ac92f8dcacd84606b351e56d36d98199472ba6d565d6baa022063c5aef695d4e12bac607c7d2ac46c88d92413f639a72a0b47229a123d3a778a012103bb3d4a52e496ff97a5b1a00cbe284f1e9eb00b55994b5f99ebfa650688fc6e9cffffffff01c08861000000000017a91438e24db001cc843755d5c857cd8b03857f23debd8700000000", "vin": [{"sequence": 4294967295, "scriptSig": {"hex": "4730440220232319add613fa1f02228f07c09759a4a16bd102aa032b63763c1beb2fd36bba02207dfe081f50c288880a955451317413161554d498e98b32e41b7a5e28a313d04b0121031514790f59d1b8e956480c4bb341a516fcc633e2c6f3160960a71c3aee9632af", "asm": "30440220232319add613fa1f02228f07c09759a4a16bd102aa032b63763c1beb2fd36bba02207dfe081f50c288880a955451317413161554d498e98b32e41b7a5e28a313d04b[ALL] 031514790f59d1b8e956480c4bb341a516fcc633e2c6f3160960a71c3aee9632af"}, "vout": 0, "txid": "6676189dacbe5961751bf5f65d796531cbd78fe7e87b077667613ad669a78fda"}, {"sequence": 4294967295, "scriptSig": {"hex": "483045022100c8aa0db6cdb2305fc56d311a02987006f773e118fedc0dc3b08e8a8bc4b7b1d4022037f3af76e6f1c366c07b4ba0bdc6d8e6807991d9ee311099a120afa4758bd5fc0121031514790f59d1b8e956480c4bb341a516fcc633e2c6f3160960a71c3aee9632af", "asm": "3045022100c8aa0db6cdb2305fc56d311a02987006f773e118fedc0dc3b08e8a8bc4b7b1d4022037f3af76e6f1c366c07b4ba0bdc6d8e6807991d9ee311099a120afa4758bd5fc[ALL] 031514790f59d1b8e956480c4bb341a516fcc633e2c6f3160960a71c3aee9632af"}, "vout": 0, "txid": "6e0ddd73c8bd58c480718f7c187bead8b7f251b403673e2e3a32c2f50ef2dd2f"}, {"sequence": 4294967295, "scriptSig": {"hex": "483045022100a61b0b3906c43b2c760a40cdcb5783a98af605393db29efd7470c0697dbff8a2022023ba114a46d6922927071c912b12724bc4f9f156fa0741876e3ecc2ea142dd6c0121031514790f59d1b8e956480c4bb341a516fcc633e2c6f3160960a71c3aee9632af", "asm": "3045022100a61b0b3906c43b2c760a40cdcb5783a98af605393db29efd7470c0697dbff8a2022023ba114a46d6922927071c912b12724bc4f9f156fa0741876e3ecc2ea142dd6c[ALL] 031514790f59d1b8e956480c4bb341a516fcc633e2c6f3160960a71c3aee9632af"}, "vout": 0, "txid": "6ffb66396d8deb465348619ac0803c1eb0930baad86a5f0a382178ee4a33e3d8"}, {"sequence": 4294967295, "scriptSig": {"hex": "47304402201b0a410467be95b2a94915d3369a3d29be008a7bf57784be224ef3b53da6933e02202b60a43ff4813c2c106b24ec17189428aba7e3833d7e4fa0eae1c7bc20484d540121031514790f59d1b8e956480c4bb341a516fcc633e2c6f3160960a71c3aee9632af", "asm": "304402201b0a410467be95b2a94915d3369a3d29be008a7bf57784be224ef3b53da6933e02202b60a43ff4813c2c106b24ec17189428aba7e3833d7e4fa0eae1c7bc20484d54[ALL] 031514790f59d1b8e956480c4bb341a516fcc633e2c6f3160960a71c3aee9632af"}, "vout": 0, "txid": "9f4f9846795d39cb541d5d879b936609beabdd8cbd18f4896666bba02e7f4df9"}, {"sequence": 4294967295, "scriptSig": {"hex": "483045022100d714d9bde610b8715ddd13fff9e159f6f79bae7f718a79cbad21767ab8526957022009597b822d66d7d49267373c559ea5ca45aa605d2f9817812767a6e8b902180c0121031514790f59d1b8e956480c4bb341a516fcc633e2c6f3160960a71c3aee9632af", "asm": "3045022100d714d9bde610b8715ddd13fff9e159f6f79bae7f718a79cbad21767ab8526957022009597b822d66d7d49267373c559ea5ca45aa605d2f9817812767a6e8b902180c[ALL] 031514790f59d1b8e956480c4bb341a516fcc633e2c6f3160960a71c3aee9632af"}, "vout": 0, "txid": "cb07578d18c84015225f851f101a23216a859a69a1b49fe50c46a15de0f8b79b"}, {"sequence": 4294967295, "scriptSig": {"hex": "473044022025b242eb01dc02b92ac92f8dcacd84606b351e56d36d98199472ba6d565d6baa022063c5aef695d4e12bac607c7d2ac46c88d92413f639a72a0b47229a123d3a778a012103bb3d4a52e496ff97a5b1a00cbe284f1e9eb00b55994b5f99ebfa650688fc6e9c", "asm": "3044022025b242eb01dc02b92ac92f8dcacd84606b351e56d36d98199472ba6d565d6baa022063c5aef695d4e12bac607c7d2ac46c88d92413f639a72a0b47229a123d3a778a[ALL] 03bb3d4a52e496ff97a5b1a00cbe284f1e9eb00b55994b5f99ebfa650688fc6e9c"}, "vout": 36, "txid": "e661fa93676aa758bfff2d6a9eed55ad4ab0ca994b2e45af08fa42725493f2e2"}], "txid": "cf59ad171139eeaa2b258951df089c79a0506734752d7ade9d846305f4aca654", "blocktime": 1537871767, "version": 1, "confirmations": 11491, "time": 1537871767, "locktime": 0, "vsize": 927, "size": 927}