{"hash": "cf5abf6bbf369723017977fc3e3c7f026b7581fe71b24127aa4225f9d7c42420", "blockhash": "0000000000000000000e13cef7c366c0283d82e591d1acd082e914b08063cdf1", "vout": [{"scriptPubKey": {"reqSigs": 1, "hex": "76a914594a116e092448f4431da05780ff0666e0490e9b88ac", "addresses": ["1997sQzfRHSrjmZ7fQpfAPsTSiHX6QWWf8"], "asm": "OP_DUP OP_HASH160 594a116e092448f4431da05780ff0666e0490e9b OP_EQUALVERIFY OP_CHECKSIG", "type": "pubkeyhash"}, "value": 0.022878, "n": 0}, {"scriptPubKey": {"reqSigs": 1, "hex": "76a914aad171becb883e061253e2d4cfbfe650fd6552d988ac", "addresses": ["1GaCn4LMKewAjccV3TboUjSBDKjVkUt5G3"], "asm": "OP_DUP OP_HASH160 aad171becb883e061253e2d4cfbfe650fd6552d9 OP_EQUALVERIFY OP_CHECKSIG", "type": "pubkeyhash"}, "value": 0.12438114, "n": 1}], "hex": "01000000016a9675e7e018d7ddc944a7c52c3b77ae73773fcbf600146d04146d645f61c660010000006b483045022100ac281aa56d53ba940745a968b0824f075a8c566bea546428f9c4c7f4fb86fd2c0220669ac5d316f411ce3275be81dbb09dafdfa16ab314d5a29dec22d43ac664490d0121032edd693f468498e930d7466e16ea9f7bd1ab67e9ebaa480ffaae431e04e46b59ffffffff02b8e82200000000001976a914594a116e092448f4431da05780ff0666e0490e9b88ac62cabd00000000001976a914aad171becb883e061253e2d4cfbfe650fd6552d988ac00000000", "vin": [{"sequence": 4294967295, "scriptSig": {"hex": "483045022100ac281aa56d53ba940745a968b0824f075a8c566bea546428f9c4c7f4fb86fd2c0220669ac5d316f411ce3275be81dbb09dafdfa16ab314d5a29dec22d43ac664490d0121032edd693f468498e930d7466e16ea9f7bd1ab67e9ebaa480ffaae431e04e46b59", "asm": "3045022100ac281aa56d53ba940745a968b0824f075a8c566bea546428f9c4c7f4fb86fd2c0220669ac5d316f411ce3275be81dbb09dafdfa16ab314d5a29dec22d43ac664490d[ALL] 032edd693f468498e930d7466e16ea9f7bd1ab67e9ebaa480ffaae431e04e46b59"}, "vout": 1, "txid": "60c6615f646d14046d1400f6cb3f7773ae773b2cc5a744c9ddd718e0e775966a"}], "txid": "cf5abf6bbf369723017977fc3e3c7f026b7581fe71b24127aa4225f9d7c42420", "blocktime": 1537871767, "version": 1, "confirmations": 11495, "time": 1537871767, "locktime": 0, "vsize": 226, "size": 226}