{"hash": "cf5bfeac8f60ec84ee26cea786cf698464b4bf3dd2dc677f13a479351093bef3", "blockhash": "00000000000000000024a2167bbff67b0be802c0b01cdd79e6331c2be6459f87", "vout": [{"scriptPubKey": {"reqSigs": 1, "hex": "a9147035d3325ab45c68a807195fb3f92aeb38f06b2b87", "addresses": ["3BvL5rWYmcqnjhzt8wqcCqWugAWUA2Nq2D"], "asm": "OP_HASH160 7035d3325ab45c68a807195fb3f92aeb38f06b2b OP_EQUAL", "type": "scripthash"}, "value": 0.00225, "n": 0}], "hex": "01000000016c5f88be5cd50206e794adc3b8d8f884a70af478a46245b4a05f47fe7344ee0c00000000fdfd000047304402200500a02c8ad441211fd998d8a40aabaec2d66310e29470080c0f1f0647be5f1702202a475238094c8334288a670eccad5f822948aed6ba8456a19bd43d8f1e2229dd01483045022100871c2130a7eb681c03693a95780d2b631dd6a0950fce64ddad6fee67b65c17e0022050d895aead82832515c43039755e4a8902a1399b9242d0ae9edd79bc27959444014c6952210380463b0703a07a3565f79f978da8eaf44ef69916a4dd5e34cd035bb052808c4b21038f32fe129d9543ebfde00560f3a59e5a741602ada08ccb1e6958651a8baf361e21027e64412c95eab83bc6475cc88b6bda5280836666edfaf0ebada786c72cc3cdcf53aeffffffff01e86e03000000000017a9147035d3325ab45c68a807195fb3f92aeb38f06b2b8700000000", "vin": [{"sequence": 4294967295, "scriptSig": {"hex": "0047304402200500a02c8ad441211fd998d8a40aabaec2d66310e29470080c0f1f0647be5f1702202a475238094c8334288a670eccad5f822948aed6ba8456a19bd43d8f1e2229dd01483045022100871c2130a7eb681c03693a95780d2b631dd6a0950fce64ddad6fee67b65c17e0022050d895aead82832515c43039755e4a8902a1399b9242d0ae9edd79bc27959444014c6952210380463b0703a07a3565f79f978da8eaf44ef69916a4dd5e34cd035bb052808c4b21038f32fe129d9543ebfde00560f3a59e5a741602ada08ccb1e6958651a8baf361e21027e64412c95eab83bc6475cc88b6bda5280836666edfaf0ebada786c72cc3cdcf53ae", "asm": "0 304402200500a02c8ad441211fd998d8a40aabaec2d66310e29470080c0f1f0647be5f1702202a475238094c8334288a670eccad5f822948aed6ba8456a19bd43d8f1e2229dd[ALL] 3045022100871c2130a7eb681c03693a95780d2b631dd6a0950fce64ddad6fee67b65c17e0022050d895aead82832515c43039755e4a8902a1399b9242d0ae9edd79bc27959444[ALL] 52210380463b0703a07a3565f79f978da8eaf44ef69916a4dd5e34cd035bb052808c4b21038f32fe129d9543ebfde00560f3a59e5a741602ada08ccb1e6958651a8baf361e21027e64412c95eab83bc6475cc88b6bda5280836666edfaf0ebada786c72cc3cdcf53ae"}, "vout": 0, "txid": "0cee4473fe475fa0b44562a478f40aa784f8d8b8c3ad94e70602d55cbe885f6c"}], "txid": "cf5bfeac8f60ec84ee26cea786cf698464b4bf3dd2dc677f13a479351093bef3", "blocktime": 1537870564, "version": 1, "confirmations": 11515, "time": 1537870564, "locktime": 0, "vsize": 338, "size": 338}