{"hash": "cf62f5c88933056a7fc67f12b34b05e715b7c0617725c6a9e0edeef23d86f93a", "blockhash": "0000000000000000001cda96e906b7601b7a6fb1a3b62bca570a9e5d8f4b3de1", "vout": [{"scriptPubKey": {"reqSigs": 1, "hex": "76a914db89080861657fbd61ff0b1831ad01e7c111163a88ac", "addresses": ["1M1o97qfE3BBiTnsjgrjYE6V7AV7UqCByy"], "asm": "OP_DUP OP_HASH160 db89080861657fbd61ff0b1831ad01e7c111163a OP_EQUALVERIFY OP_CHECKSIG", "type": "pubkeyhash"}, "value": 0.00135924, "n": 0}, {"scriptPubKey": {"type": "nulldata", "hex": "6a4c50000077ca000156ad56564651153b13e171da5b23cc0f42c2fc38c5e5bf9ae76da98a211af20c93f69a8b1c3b9601b103f5867b205baa13d90612c0ea5619812ebc9a9526289ac0f6612cd74e33776ee4", "asm": "OP_RETURN 000077ca000156ad56564651153b13e171da5b23cc0f42c2fc38c5e5bf9ae76da98a211af20c93f69a8b1c3b9601b103f5867b205baa13d90612c0ea5619812ebc9a9526289ac0f6612cd74e33776ee4"}, "value": 0.0, "n": 1}], "hex": "0100000001810cec142676405ef16e2104d0ba7b558ecbfd4a7b226704a2ad29ce2e15d6bf000000006a47304402204de110b283d2c617b01ff9edc285d5f902563a1fbccf801b2f80e5b0c2aae2eb022003c2623c3b056910985d58d864048eb500bdcaada863ed5fba27d47bf7985afb012103d74b6c4a3df58e01746cd3f86df2c7b173de672d4acf96c514eaa6584c8b21c2ffffffff02f4120200000000001976a914db89080861657fbd61ff0b1831ad01e7c111163a88ac0000000000000000536a4c50000077ca000156ad56564651153b13e171da5b23cc0f42c2fc38c5e5bf9ae76da98a211af20c93f69a8b1c3b9601b103f5867b205baa13d90612c0ea5619812ebc9a9526289ac0f6612cd74e33776ee400000000", "vin": [{"sequence": 4294967295, "scriptSig": {"hex": "47304402204de110b283d2c617b01ff9edc285d5f902563a1fbccf801b2f80e5b0c2aae2eb022003c2623c3b056910985d58d864048eb500bdcaada863ed5fba27d47bf7985afb012103d74b6c4a3df58e01746cd3f86df2c7b173de672d4acf96c514eaa6584c8b21c2", "asm": "304402204de110b283d2c617b01ff9edc285d5f902563a1fbccf801b2f80e5b0c2aae2eb022003c2623c3b056910985d58d864048eb500bdcaada863ed5fba27d47bf7985afb[ALL] 03d74b6c4a3df58e01746cd3f86df2c7b173de672d4acf96c514eaa6584c8b21c2"}, "vout": 0, "txid": "bfd6152ece29ada20467227b4afdcb8e557bbad004216ef15e40762614ec0c81"}], "txid": "cf62f5c88933056a7fc67f12b34b05e715b7c0617725c6a9e0edeef23d86f93a", "blocktime": 1537873282, "version": 1, "confirmations": 11484, "time": 1537873282, "locktime": 0, "vsize": 283, "size": 283}