{"hash": "ca66c2af704fc4889e957c8144736d948f8d97de641fd771c7e0007c1af9caa7", "blockhash": "0000000000000000001f76057863aec43deb6fa401d9628bb513d65a8098bfab", "vout": [{"scriptPubKey": {"reqSigs": 1, "hex": "a914ae7d6903c4cb2cd6852e6846a1aecdd4f1c2ad1d87", "addresses": ["3HbdjaQ8nxAEiGZ4XvDzNMnQQzrgo9ZPYM"], "asm": "OP_HASH160 ae7d6903c4cb2cd6852e6846a1aecdd4f1c2ad1d OP_EQUAL", "type": "scripthash"}, "value": 0.0035646, "n": 0}, {"scriptPubKey": {"reqSigs": 1, "hex": "a914dc3ec1700de1b6f0eadcfe1cabf5f3356af13e7187", "addresses": ["3MmZm5mmtggD6gid2iP2iFhnUiNhMHz7xZ"], "asm": "OP_HASH160 dc3ec1700de1b6f0eadcfe1cabf5f3356af13e71 OP_EQUAL", "type": "scripthash"}, "value": 0.00282356, "n": 1}, {"scriptPubKey": {"reqSigs": 1, "hex": "a9145efb752fcc09cb3dc9aea52cf44bc3419a6e4de287", "addresses": ["3AMEgAf6vxuxZt8kNTwcpzTLxfhGan2Bb3"], "asm": "OP_HASH160 5efb752fcc09cb3dc9aea52cf44bc3419a6e4de2 OP_EQUAL", "type": "scripthash"}, "value": 0.0028496, "n": 2}, {"scriptPubKey": {"reqSigs": 1, "hex": "a914678862e997e34015c0730799348ca5a8976bed9787", "addresses": ["3B8SubQ51GAEHdj5eCgaSTPRUgWApPPdtP"], "asm": "OP_HASH160 678862e997e34015c0730799348ca5a8976bed97 OP_EQUAL", "type": "scripthash"}, "value": 0.00485524, "n": 3}, {"scriptPubKey": {"reqSigs": 1, "hex": "a9148a56d68879767e9d4fddb45d639ee88208d998dd87", "addresses": ["3EJVCdN1pmkEL7ecBTzHoQr4sxAxppbixm"], "asm": "OP_HASH160 8a56d68879767e9d4fddb45d639ee88208d998dd OP_EQUAL", "type": "scripthash"}, "value": 0.00273841, "n": 4}, {"scriptPubKey": {"reqSigs": 1, "hex": "76a9147f471b45d5360a26f909f85e5fddd4e07677d1c488ac", "addresses": ["1Cbyzw1AAmYWNuYJMeXDfPL7xthv6a11Yi"], "asm": "OP_DUP OP_HASH160 7f471b45d5360a26f909f85e5fddd4e07677d1c4 OP_EQUALVERIFY OP_CHECKSIG", "type": "pubkeyhash"}, "value": 0.00678997, "n": 5}, {"scriptPubKey": {"reqSigs": 1, "hex": "a914af82fa6bbd67be846cf4769903ef0d8edb4927b087", "addresses": ["3Hh35e3DWyh4ixuuh5CtcvGxAbKooah4Bk"], "asm": "OP_HASH160 af82fa6bbd67be846cf4769903ef0d8edb4927b0 OP_EQUAL", "type": "scripthash"}, "value": 0.00410321, "n": 6}, {"scriptPubKey": {"reqSigs": 1, "hex": "a914205da52709629a6906d7613a01e61b3546e8eaed87", "addresses": ["34e9jG2GAhWLNfPj1kYLUXpDSkn6NLtPJv"], "asm": "OP_HASH160 205da52709629a6906d7613a01e61b3546e8eaed OP_EQUAL", "type": "scripthash"}, "value": 0.00293851, "n": 7}, {"scriptPubKey": {"reqSigs": 1, "hex": "a91440dd99aa5f2100e387b0251ae880aa8dc99ece9387", "addresses": ["37bzdsoAosgo4vVvFmMLRChKhRvdTvLqEs"], "asm": "OP_HASH160 40dd99aa5f2100e387b0251ae880aa8dc99ece93 OP_EQUAL", "type": "scripthash"}, "value": 0.0025126, "n": 8}, {"scriptPubKey": {"reqSigs": 1, "hex": "76a914f2fbfaed7b4f3c72bd75c2d323f6d2d88c22219b88ac", "addresses": ["1P9nPKAiDfgTRhMkhUDHRSJ5hkRsMB6wUU"], "asm": "OP_DUP OP_HASH160 f2fbfaed7b4f3c72bd75c2d323f6d2d88c22219b OP_EQUALVERIFY OP_CHECKSIG", "type": "pubkeyhash"}, "value": 0.00366005, "n": 9}, {"scriptPubKey": {"reqSigs": 1, "hex": "a9143e7cc31c5d5a77ebec98ae845c43409bdb1b203387", "addresses": ["37PRH4dsZDheVbj9DR2zxvQcsazw4aMwfd"], "asm": "OP_HASH160 3e7cc31c5d5a77ebec98ae845c43409bdb1b2033 OP_EQUAL", "type": "scripthash"}, "value": 0.00256832, "n": 10}, {"scriptPubKey": {"reqSigs": 1, "hex": "76a91440ca626bdbc725d1b483e643874941135e74d5d688ac", "addresses": ["16uahCMmx6Aanzw2rTzebgmj1yDmfk195E"], "asm": "OP_DUP OP_HASH160 40ca626bdbc725d1b483e643874941135e74d5d6 OP_EQUALVERIFY OP_CHECKSIG", "type": "pubkeyhash"}, "value": 0.00248026, "n": 11}, {"scriptPubKey": {"reqSigs": 1, "hex": "76a914e781a238ec6b773d2039e20916a440457f058f7488ac", "addresses": ["1N76PRJADGA69ckwRHi32xk34G8MpAb5Gc"], "asm": "OP_DUP OP_HASH160 e781a238ec6b773d2039e20916a440457f058f74 OP_EQUALVERIFY OP_CHECKSIG", "type": "pubkeyhash"}, "value": 0.00329821, "n": 12}, {"scriptPubKey": {"reqSigs": 1, "hex": "a914e0b6db0ab1cae61feb02c4de8622e956c0f8163787", "addresses": ["3NBCLYcMWbrdDLPaWGYtHJAV6ULWwJBUse"], "asm": "OP_HASH160 e0b6db0ab1cae61feb02c4de8622e956c0f81637 OP_EQUAL", "type": "scripthash"}, "value": 0.00393925, "n": 13}, {"scriptPubKey": {"reqSigs": 1, "hex": "a9148957c1e7f197c4c6c738d772ecb0dad3ccaa589287", "addresses": ["3EDDdKSSwCHtKPCASxzQ3nktBu1XNMdRhe"], "asm": "OP_HASH160 8957c1e7f197c4c6c738d772ecb0dad3ccaa5892 OP_EQUAL", "type": "scripthash"}, "value": 0.00202759, "n": 14}, {"scriptPubKey": {"reqSigs": 1, "hex": "a9143fc2acfa682b41cdeee858c331bf9ab81a6f07d387", "addresses": ["37W9hw6jDavccE6QBVy7jWuqMgwKn2Fa9P"], "asm": "OP_HASH160 3fc2acfa682b41cdeee858c331bf9ab81a6f07d3 OP_EQUAL", "type": "scripthash"}, "value": 1.32727045, "n": 15}, {"scriptPubKey": {"reqSigs": 1, "hex": "a914b11ca9f486be41694210b2af88773627309e986f87", "addresses": ["3HqVs6j9MuPtXa3jhfexcwUxehH6hkDRVZ"], "asm": "OP_HASH160 b11ca9f486be41694210b2af88773627309e986f OP_EQUAL", "type": "scripthash"}, "value": 0.00259096, "n": 16}, {"scriptPubKey": {"reqSigs": 1, "hex": "a9145ff6067d124f74a889c27e54c3ca3744edf4a7f387", "addresses": ["3ASQqudybTAVevVsmy5znXq4RLBmZMDkax"], "asm": "OP_HASH160 5ff6067d124f74a889c27e54c3ca3744edf4a7f3 OP_EQUAL", "type": "scripthash"}, "value": 0.00407486, "n": 17}, {"scriptPubKey": {"reqSigs": 1, "hex": "a91444a1cb46e271ae271bee86045a9d389ad7aaa3b987", "addresses": ["37wuhEdteNoTt4QxEWz1UWYWayAWHEwPbr"], "asm": "OP_HASH160 44a1cb46e271ae271bee86045a9d389ad7aaa3b9 OP_EQUAL", "type": "scripthash"}, "value": 0.00456894, "n": 18}, {"scriptPubKey": {"reqSigs": 1, "hex": "a91491899ca0989e9490433192d50ddd966470e6e4da87", "addresses": ["3ExYko9RWaimZWRik2goaCgJjCV4XaHCia"], "asm": "OP_HASH160 91899ca0989e9490433192d50ddd966470e6e4da OP_EQUAL", "type": "scripthash"}, "value": 0.00977143, "n": 19}, {"scriptPubKey": {"reqSigs": 1, "hex": "a914857ba86a519d77119f0ecabb0ac4378dbc82578387", "addresses": ["3DrovxSuRwgVTYHnRSrNwKBwnUc4bvBqGh"], "asm": "OP_HASH160 857ba86a519d77119f0ecabb0ac4378dbc825783 OP_EQUAL", "type": "scripthash"}, "value": 0.0079696, "n": 20}, {"scriptPubKey": {"reqSigs": 1, "hex": "a9148ec072c6669207371b99894fe6891f4d472fded687", "addresses": ["3EhpRL29prw8DsZNyYpQ7o74zai2xSnRZD"], "asm": "OP_HASH160 8ec072c6669207371b99894fe6891f4d472fded6 OP_EQUAL", "type": "scripthash"}, "value": 0.00281632, "n": 21}, {"scriptPubKey": {"reqSigs": 1, "hex": "a914b4ee7e10dbc133d9ee097dfa3431d6b3f5f0a17687", "addresses": ["3JBhFpSgHj46iUkhAiTdUnMTbLQCah68T3"], "asm": "OP_HASH160 b4ee7e10dbc133d9ee097dfa3431d6b3f5f0a176 OP_EQUAL", "type": "scripthash"}, "value": 0.0027188, "n": 22}, {"scriptPubKey": {"reqSigs": 1, "hex": "a914a81b86a8078aee3f7298544f717b035c7794ce5587", "addresses": ["3H1tRK1iAV18EKtSghui1Eo8kX82s5vLHh"], "asm": "OP_HASH160 a81b86a8078aee3f7298544f717b035c7794ce55 OP_EQUAL", "type": "scripthash"}, "value": 0.00294969, "n": 23}, {"scriptPubKey": {"reqSigs": 1, "hex": "a9141442df168916629fdcd3e23e897678708a889faf87", "addresses": ["33Y9Ygw4vpBqRH7Kes8aVNrky46sDcVeXB"], "asm": "OP_HASH160 1442df168916629fdcd3e23e897678708a889faf OP_EQUAL", "type": "scripthash"}, "value": 0.00643003, "n": 24}, {"scriptPubKey": {"reqSigs": 1, "hex": "76a9144e80f5680da8969e019bd2ee40b39636562eea8a88ac", "addresses": ["18A6CAZ4P6LAqK8j5sMrNXPntJcvuE7k28"], "asm": "OP_DUP OP_HASH160 4e80f5680da8969e019bd2ee40b39636562eea8a OP_EQUALVERIFY OP_CHECKSIG", "type": "pubkeyhash"}, "value": 0.00337313, "n": 25}, {"scriptPubKey": {"reqSigs": 1, "hex": "76a914eb51d22a199c6dc8645e70cd50e416fb58e2122988ac", "addresses": ["1NTFp6nbLzs5fZmRHALyvqDu586Np9jspi"], "asm": "OP_DUP OP_HASH160 eb51d22a199c6dc8645e70cd50e416fb58e21229 OP_EQUALVERIFY OP_CHECKSIG", "type": "pubkeyhash"}, "value": 0.39831303, "n": 26}, {"scriptPubKey": {"reqSigs": 1, "hex": "a9145ac2a7bcee7dd83c873643882039a426ebb214da87", "addresses": ["39xuvh1v7gTAdKfuuxnGYobqQVVL27m9ud"], "asm": "OP_HASH160 5ac2a7bcee7dd83c873643882039a426ebb214da OP_EQUAL", "type": "scripthash"}, "value": 0.00456894, "n": 27}, {"scriptPubKey": {"reqSigs": 1, "hex": "a9141204e4028441895815033b3fc81c9662cd1e799087", "addresses": ["33LHwohUWEyB4DmtVBUGzT3Vn8nQdi8ciA"], "asm": "OP_HASH160 1204e4028441895815033b3fc81c9662cd1e7990 OP_EQUAL", "type": "scripthash"}, "value": 0.0117546, "n": 28}], "hex": "02000000000101d4576de89c70c7ec0d309d3b3b94828a408b8f7c6d4f3ac205c9b1beda880b3808000000171600143a6dd70141f627c866c42920a0465b03881f6f7dfeffffff1d6c7005000000000017a914ae7d6903c4cb2cd6852e6846a1aecdd4f1c2ad1d87f44e04000000000017a914dc3ec1700de1b6f0eadcfe1cabf5f3356af13e7187205904000000000017a9145efb752fcc09cb3dc9aea52cf44bc3419a6e4de287946807000000000017a914678862e997e34015c0730799348ca5a8976bed9787b12d04000000000017a9148a56d68879767e9d4fddb45d639ee88208d998dd87555c0a00000000001976a9147f471b45d5360a26f909f85e5fddd4e07677d1c488acd14206000000000017a914af82fa6bbd67be846cf4769903ef0d8edb4927b087db7b04000000000017a914205da52709629a6906d7613a01e61b3546e8eaed877cd503000000000017a91440dd99aa5f2100e387b0251ae880aa8dc99ece9387b5950500000000001976a914f2fbfaed7b4f3c72bd75c2d323f6d2d88c22219b88ac40eb03000000000017a9143e7cc31c5d5a77ebec98ae845c43409bdb1b203387dac80300000000001976a91440ca626bdbc725d1b483e643874941135e74d5d688ac5d080500000000001976a914e781a238ec6b773d2039e20916a440457f058f7488acc50206000000000017a914e0b6db0ab1cae61feb02c4de8622e956c0f8163787071803000000000017a9148957c1e7f197c4c6c738d772ecb0dad3ccaa5892870541e9070000000017a9143fc2acfa682b41cdeee858c331bf9ab81a6f07d38718f403000000000017a914b11ca9f486be41694210b2af88773627309e986f87be3706000000000017a9145ff6067d124f74a889c27e54c3ca3744edf4a7f387bef806000000000017a91444a1cb46e271ae271bee86045a9d389ad7aaa3b987f7e80e000000000017a91491899ca0989e9490433192d50ddd966470e6e4da8720290c000000000017a914857ba86a519d77119f0ecabb0ac4378dbc82578387204c04000000000017a9148ec072c6669207371b99894fe6891f4d472fded687082604000000000017a914b4ee7e10dbc133d9ee097dfa3431d6b3f5f0a17687398004000000000017a914a81b86a8078aee3f7298544f717b035c7794ce5587bbcf09000000000017a9141442df168916629fdcd3e23e897678708a889faf87a1250500000000001976a9144e80f5680da8969e019bd2ee40b39636562eea8a88ac07c75f02000000001976a914eb51d22a199c6dc8645e70cd50e416fb58e2122988acbef806000000000017a9145ac2a7bcee7dd83c873643882039a426ebb214da87a4ef11000000000017a9141204e4028441895815033b3fc81c9662cd1e79908702483045022100ee0e6798f10a99444bf1eed63579660f6c5346d66c9432fe5bc892a2dd178f5c02205907b6d703a81e08deb2f2eb94023c4585cbe8ca8c98e0c55403312bf30e2bf6012102a3e89f68fe81ec7100889756b8a2b861caf1eb875f2d40197e36fff5a9e6e52014490800", "vin": [{"txinwitness": ["3045022100ee0e6798f10a99444bf1eed63579660f6c5346d66c9432fe5bc892a2dd178f5c02205907b6d703a81e08deb2f2eb94023c4585cbe8ca8c98e0c55403312bf30e2bf601", "02a3e89f68fe81ec7100889756b8a2b861caf1eb875f2d40197e36fff5a9e6e520"], "sequence": 4294967294, "scriptSig": {"hex": "1600143a6dd70141f627c866c42920a0465b03881f6f7d", "asm": "00143a6dd70141f627c866c42920a0465b03881f6f7d"}, "vout": 8, "txid": "380b88dabeb1c905c23a4f6d7c8f8b408a82943b3b9d300decc7709ce86d57d4"}], "txid": "cf633e5a2e7d265883d4ad41f5336f675b37679dd6a45fc98f2094f04de45162", "blocktime": 1537873891, "version": 2, "confirmations": 11475, "time": 1537873891, "locktime": 542996, "vsize": 1042, "size": 1124}