{"hash": "171789a1fdb63f0f49c183ce5a5c96c79270a0a406f639867fcdcc26fda184a2", "blockhash": "0000000000000000001f0ddff1eddb255c1121bcd4da4f1bc9a0da00cae72433", "vout": [{"scriptPubKey": {"reqSigs": 1, "hex": "a914e4d7890a5dbb8e8a99dd2fead36d82048a34f60687", "addresses": ["3NZ2BwKFa6fBLBiADt5qeghpkBKiArxuoc"], "asm": "OP_HASH160 e4d7890a5dbb8e8a99dd2fead36d82048a34f606 OP_EQUAL", "type": "scripthash"}, "value": 0.015215, "n": 0}, {"scriptPubKey": {"reqSigs": 1, "hex": "a9143aada9e3c1abbec2c99dabb8a581196b85ee09b987", "addresses": ["373HA2j7Ch1DMKvWHugempMBZGij8pM62C"], "asm": "OP_HASH160 3aada9e3c1abbec2c99dabb8a581196b85ee09b9 OP_EQUAL", "type": "scripthash"}, "value": 0.01066522, "n": 1}], "hex": "020000000001028bb9648a84ae9c1fa18e1ba5d754614f81affd5fbf23648c585f90c00ef0a4dc00000000171600144e4d807288cdb01e1b901d1da483c73c3946758efdffffffcf8d154e128e85e05168448cd1b1d1a5dbb29cb17be0d98a02065d673cd999a70100000017160014fc041e4e9690ff465725b1af7e0b83a6ed27aa62fdffffff025c3717000000000017a914e4d7890a5dbb8e8a99dd2fead36d82048a34f606871a4610000000000017a9143aada9e3c1abbec2c99dabb8a581196b85ee09b987024730440220644e108f851fcc89db73ead36ba58e47c7396685cca3c6b9b0ae64d3b57413a30220554550118723226b82fc4c2ae49c5a890d12eb149a8f2519d8a8f64f78d0cff7012103811cc8a75625f67fccbc8551dcb6f8db1ec8332a59685dfc80811dc95ff2eb3d02483045022100b573b2fb36835825ca34eb9b7988b2e8465edc46e7b54223409b21d290738f3b02200e0efa6611a974c99f271d843b69532f2671310db115f876a146b0a9de3270ac01210304310f6c936d037688bbf4b8b0f0ee910476fa7ecfa0a9fd730e9a5eb9f5ce0900000000", "vin": [{"txinwitness": ["30440220644e108f851fcc89db73ead36ba58e47c7396685cca3c6b9b0ae64d3b57413a30220554550118723226b82fc4c2ae49c5a890d12eb149a8f2519d8a8f64f78d0cff701", "03811cc8a75625f67fccbc8551dcb6f8db1ec8332a59685dfc80811dc95ff2eb3d"], "sequence": 4294967293, "scriptSig": {"hex": "1600144e4d807288cdb01e1b901d1da483c73c3946758e", "asm": "00144e4d807288cdb01e1b901d1da483c73c3946758e"}, "vout": 0, "txid": "dca4f00ec0905f588c6423bf5ffdaf814f6154d7a51b8ea11f9cae848a64b98b"}, {"txinwitness": ["3045022100b573b2fb36835825ca34eb9b7988b2e8465edc46e7b54223409b21d290738f3b02200e0efa6611a974c99f271d843b69532f2671310db115f876a146b0a9de3270ac01", "0304310f6c936d037688bbf4b8b0f0ee910476fa7ecfa0a9fd730e9a5eb9f5ce09"], "sequence": 4294967293, "scriptSig": {"hex": "160014fc041e4e9690ff465725b1af7e0b83a6ed27aa62", "asm": "0014fc041e4e9690ff465725b1af7e0b83a6ed27aa62"}, "vout": 1, "txid": "a799d93c675d06028ad9e07bb19cb2dba5d1b1d18c446851e0858e124e158dcf"}], "txid": "cf69dec560bbc3c18d836beff1d6ddbcc39cdde8effd0039f756c37b1742b137", "blocktime": 1537872018, "version": 2, "confirmations": 11489, "time": 1537872018, "locktime": 0, "vsize": 257, "size": 419}