{"hash": "cf6b6b1bf52191f3953974339dab1cbe454fa51f8da77fa75b30fa0b6bb81062", "blockhash": "0000000000000000000dcc0f55137456b1a82d3642486a52398922ac4d620174", "vout": [{"scriptPubKey": {"reqSigs": 1, "hex": "76a91475fb77f5263b95eb3d396d6ecf7d439e720fe94988ac", "addresses": ["1BkqJngstGEBqvCJmCnFsCthWGFp63MUNk"], "asm": "OP_DUP OP_HASH160 75fb77f5263b95eb3d396d6ecf7d439e720fe949 OP_EQUALVERIFY OP_CHECKSIG", "type": "pubkeyhash"}, "value": 0.00237089, "n": 0}, {"scriptPubKey": {"reqSigs": 1, "hex": "76a91452666a342f3b831b53c85ed23ab83eb43af963af88ac", "addresses": ["18Wh6e5NsNkMjubK5Rz2CQiSVVui6VYuuK"], "asm": "OP_DUP OP_HASH160 52666a342f3b831b53c85ed23ab83eb43af963af OP_EQUALVERIFY OP_CHECKSIG", "type": "pubkeyhash"}, "value": 0.09762338, "n": 1}], "hex": "010000000168ec63c159e8aae7efb90192bc170affc3bec8512e7c006283940ad44fff2478010000006a4730440220561e542d8097702e79960e36cd51e6bd6084872f4720c5398ac21d4c39b849c30220792131f745f2e77aa53cd111831529030cf390e9571cb84481ed97013aca9b07012103a15aad06c9d6102030eb5ddc6a2d175331cafb6b0a05d1d5abf18c3ca2ef0f3effffffff02219e0300000000001976a91475fb77f5263b95eb3d396d6ecf7d439e720fe94988ac22f69400000000001976a91452666a342f3b831b53c85ed23ab83eb43af963af88ac00000000", "vin": [{"sequence": 4294967295, "scriptSig": {"hex": "4730440220561e542d8097702e79960e36cd51e6bd6084872f4720c5398ac21d4c39b849c30220792131f745f2e77aa53cd111831529030cf390e9571cb84481ed97013aca9b07012103a15aad06c9d6102030eb5ddc6a2d175331cafb6b0a05d1d5abf18c3ca2ef0f3e", "asm": "30440220561e542d8097702e79960e36cd51e6bd6084872f4720c5398ac21d4c39b849c30220792131f745f2e77aa53cd111831529030cf390e9571cb84481ed97013aca9b07[ALL] 03a15aad06c9d6102030eb5ddc6a2d175331cafb6b0a05d1d5abf18c3ca2ef0f3e"}, "vout": 1, "txid": "7824ff4fd40a948362007c2e51c8bec3ff0a17bc9201b9efe7aae859c163ec68"}], "txid": "cf6b6b1bf52191f3953974339dab1cbe454fa51f8da77fa75b30fa0b6bb81062", "blocktime": 1537870268, "version": 1, "confirmations": 11518, "time": 1537870268, "locktime": 0, "vsize": 225, "size": 225}