{"hash": "cf70ef25e7f1002e5176bc1d3b57d856736aa9f499421a22ccc16b70882e904d", "blockhash": "0000000000000000001f76057863aec43deb6fa401d9628bb513d65a8098bfab", "vout": [{"scriptPubKey": {"reqSigs": 1, "hex": "76a91449f39eb3b0d8003bd37718c7443181d949c56f3d88ac", "addresses": ["17k2B1kwoDeAxtbQFtNiUCXpozPc4cB849"], "asm": "OP_DUP OP_HASH160 49f39eb3b0d8003bd37718c7443181d949c56f3d OP_EQUALVERIFY OP_CHECKSIG", "type": "pubkeyhash"}, "value": 0.021178, "n": 0}, {"scriptPubKey": {"reqSigs": 1, "hex": "76a914d2d24c7746d28e72c94c1a2ec154e7f37f15919088ac", "addresses": ["1LDiq6Sp9LcMgeHBVt87V96pirsF1iHvkc"], "asm": "OP_DUP OP_HASH160 d2d24c7746d28e72c94c1a2ec154e7f37f159190 OP_EQUALVERIFY OP_CHECKSIG", "type": "pubkeyhash"}, "value": 0.071, "n": 1}], "hex": "0100000002c8969597d15fe8a12ccfe2f521a777edc775b721c045fbc538b6c224cf474ef0010000006b483045022100b01e21b2a8ac8df04b3fd66958eae04e81fcb6a05a7fe0162d7a8948c43e90ae022013695a1d8305b7ed1af926116bd00d98afccbf81a53e8d31f9db61320e32eff3012102b9043264f1e87024d543ada5839daf36591c412eb2ec5c5526e6a40d8fe4cf6dffffffff12cdfd674a6fd999fd0af91c830c681100ad3b1e16a7647e9b678d2d1a773315010000006a47304402200490215e6b6d13c1f2dc7ccd3aba8fbc63292cd6d15931c28e23e7c79ba1eb3d02205b4f97177722b9af06de61dc0cb30da36631a1a8a3883d92f3990ab855dc953a0121033e7285d2f37ff085ac5ceec87b953f8ca0fa6cc65a05cf3f757a6d8734c9ad32ffffffff02a8502000000000001976a91449f39eb3b0d8003bd37718c7443181d949c56f3d88ac60566c00000000001976a914d2d24c7746d28e72c94c1a2ec154e7f37f15919088ac00000000", "vin": [{"sequence": 4294967295, "scriptSig": {"hex": "483045022100b01e21b2a8ac8df04b3fd66958eae04e81fcb6a05a7fe0162d7a8948c43e90ae022013695a1d8305b7ed1af926116bd00d98afccbf81a53e8d31f9db61320e32eff3012102b9043264f1e87024d543ada5839daf36591c412eb2ec5c5526e6a40d8fe4cf6d", "asm": "3045022100b01e21b2a8ac8df04b3fd66958eae04e81fcb6a05a7fe0162d7a8948c43e90ae022013695a1d8305b7ed1af926116bd00d98afccbf81a53e8d31f9db61320e32eff3[ALL] 02b9043264f1e87024d543ada5839daf36591c412eb2ec5c5526e6a40d8fe4cf6d"}, "vout": 1, "txid": "f04e47cf24c2b638c5fb45c021b775c7ed77a721f5e2cf2ca1e85fd1979596c8"}, {"sequence": 4294967295, "scriptSig": {"hex": "47304402200490215e6b6d13c1f2dc7ccd3aba8fbc63292cd6d15931c28e23e7c79ba1eb3d02205b4f97177722b9af06de61dc0cb30da36631a1a8a3883d92f3990ab855dc953a0121033e7285d2f37ff085ac5ceec87b953f8ca0fa6cc65a05cf3f757a6d8734c9ad32", "asm": "304402200490215e6b6d13c1f2dc7ccd3aba8fbc63292cd6d15931c28e23e7c79ba1eb3d02205b4f97177722b9af06de61dc0cb30da36631a1a8a3883d92f3990ab855dc953a[ALL] 033e7285d2f37ff085ac5ceec87b953f8ca0fa6cc65a05cf3f757a6d8734c9ad32"}, "vout": 1, "txid": "1533771a2d8d679b7e64a7161e3bad0011680c831cf90afd99d96f4a67fdcd12"}], "txid": "cf70ef25e7f1002e5176bc1d3b57d856736aa9f499421a22ccc16b70882e904d", "blocktime": 1537873891, "version": 1, "confirmations": 11474, "time": 1537873891, "locktime": 0, "vsize": 373, "size": 373}