{"hash": "1e5b1cfd1ebb27a880c644de5c7780e07e0888ef5269f98b8f6ad3502b1a6f34", "blockhash": "0000000000000000001e0dab787dd257d1dbfcb92a98c2207d5e1078be1f4165", "vout": [{"scriptPubKey": {"reqSigs": 1, "hex": "76a914b47a1c0c9ceac2e08fd102a63fdf8ccedcc8f08988ac", "addresses": ["1HTGurMe2w5xc5t8kBxjJ3VGMCaokaBXDp"], "asm": "OP_DUP OP_HASH160 b47a1c0c9ceac2e08fd102a63fdf8ccedcc8f089 OP_EQUALVERIFY OP_CHECKSIG", "type": "pubkeyhash"}, "value": 0.0468, "n": 0}, {"scriptPubKey": {"reqSigs": 1, "hex": "0014fe3ba159bfde3115452be61b103e5204aee3d54c", "addresses": ["bc1qlca6zkdlmcc323ftucd3q0jjqjhw842vne0yd2"], "asm": "0 fe3ba159bfde3115452be61b103e5204aee3d54c", "type": "witness_v0_keyhash"}, "value": 0.00424756, "n": 1}], "hex": "0100000000010135611fa1dbd713d1ee445abc4f124a4e5bfbbc381675e6ce13f1a133d1eb607f4f000000171600144c33935ca7e110fdb112fd71262e38c19a7cafa3ffffffff0240694700000000001976a914b47a1c0c9ceac2e08fd102a63fdf8ccedcc8f08988ac347b060000000000160014fe3ba159bfde3115452be61b103e5204aee3d54c0247304402203474b6069c95c1202e1f8085382399ae2ca5ca06a2b64c06169a5b826602475d02204d88d9493be572ddd81471514a3ab51fd00652fee18ae33de6ee6b1b5bfaf20401210283e3cf27cb4b4e6e733937a74a101484c309e4b9cda0bbb7a0cb5aac3cc4c2a600000000", "vin": [{"txinwitness": ["304402203474b6069c95c1202e1f8085382399ae2ca5ca06a2b64c06169a5b826602475d02204d88d9493be572ddd81471514a3ab51fd00652fee18ae33de6ee6b1b5bfaf20401", "0283e3cf27cb4b4e6e733937a74a101484c309e4b9cda0bbb7a0cb5aac3cc4c2a6"], "sequence": 4294967295, "scriptSig": {"hex": "1600144c33935ca7e110fdb112fd71262e38c19a7cafa3", "asm": "00144c33935ca7e110fdb112fd71262e38c19a7cafa3"}, "vout": 79, "txid": "7f60ebd133a1f113cee6751638bcfb5b4e4a124fbc5a44eed113d7dba11f6135"}], "txid": "cf72fec0cfb7ca433e2188e4e73fcc3e83e1c2b17979012632640cfe7f0d4522", "blocktime": 1537872475, "version": 1, "confirmations": 11487, "time": 1537872475, "locktime": 0, "vsize": 167, "size": 248}