{"hash": "cf7239fabf90bb672cd115cea1313d80fbf2a2a852b7802b4e603d96e198c9e1", "blockhash": "00000000000000000018f53835495a110e01622372bf6ae95dc86f2b0ab887b0", "vout": [{"scriptPubKey": {"reqSigs": 1, "hex": "76a9146a8067cb2bbc5c1d7986ebe18f17576175eeb9b988ac", "addresses": ["1Ai8T6qfvSXTVDHEcNxei5h6e6LyUm5MkH"], "asm": "OP_DUP OP_HASH160 6a8067cb2bbc5c1d7986ebe18f17576175eeb9b9 OP_EQUALVERIFY OP_CHECKSIG", "type": "pubkeyhash"}, "value": 5.999, "n": 0}, {"scriptPubKey": {"reqSigs": 1, "hex": "76a914a8df6efbf4dc74a1496e6bef5a798cebca45733088ac", "addresses": ["1GPvBfNDVXYzdkbdZBLGxfmBNNwYGqGDmN"], "asm": "OP_DUP OP_HASH160 a8df6efbf4dc74a1496e6bef5a798cebca457330 OP_EQUALVERIFY OP_CHECKSIG", "type": "pubkeyhash"}, "value": 0.4, "n": 1}, {"scriptPubKey": {"reqSigs": 1, "hex": "a914efc80f2ddbe08bbfdf2b42e83a43fdf70ef6eacc87", "addresses": ["3PYs5kipJfkYE3MAi4qaKEgRDmr6eGFW2e"], "asm": "OP_HASH160 efc80f2ddbe08bbfdf2b42e83a43fdf70ef6eacc OP_EQUAL", "type": "scripthash"}, "value": 0.019, "n": 2}, {"scriptPubKey": {"reqSigs": 1, "hex": "a9142d2fd80ba9d7d40b15f302c79ed9fce2ca8aae1287", "addresses": ["35oweRvWXPodGrJXxE3UdMoEKb2U3PrDS5"], "asm": "OP_HASH160 2d2fd80ba9d7d40b15f302c79ed9fce2ca8aae12 OP_EQUAL", "type": "scripthash"}, "value": 0.5232247, "n": 3}], "hex": "0100000009aa9b39ba93452ecb968aca82d110fdb74c67153cc039b265e998ef5a9ef3871300000000fdfe000048304502210090f8b28346315971d5540220e1cf4892808bc501f36364d889aae730198b3d8802207451df0c32deaacb5b670ea005dac140d392d2699cbf2752986fb7622200b2820148304502210080850056a0a9b612b4afaf7a3bf3ee9bc135cc1e4398d29a1175ac306b73efd202204a9c7e11a4ddb969373d6c3354198408d95c685172c29c75e409cf09d6790440014c69522103a1a055cfeab195c1f0e0294c2abde81d579f9bf8eeb49248f0067455fca9b57c210204592ec368ee845fa7375f051f7696b9d62827b0bbce031b35343ed39c60ca7b210305cca7bd9c401cf2778d95ae389353822da89ede0f768574a9d87790812b4e7053aeffffffff48d1303e909c5ded272a246d330e571ed6cb54ed2e426f6d1370cc729dc4430600000000fc004730440220792b0353632794259adb3e8e1af39a227e2dd0dcf7deeafc6f360a10ad4e25a002200a4534fcf5b51a97290e071e3282f14aee7630653856ce81a80e0c9883c8f9d801473044022055fe6668caa18a54021fb7a5134b7f486f11ded66b7d7c06a75d8ebf3851eab70220087586bfed6eba88b1ffb1e8f14d3c8d56afd9861de9b16be50e6c255f6541b5014c69522102ddbd2cadffa271a930b539a93feb796c50b5eacb697b0505e43a086253fbf18e2103f46e458a84c415dae3330c6ff83e7e5b45ef5addf1179e0fab58b1918a0d0ee0210311393e79fceb4e250956e707c45c26dbf1a954bb1c152cc98d0e951133cc17f253aefffffffffd8698d0260801289ea1fbdb12418fefcc6beb864281932c026892cc3098d21a1b000000fdfd000048304502210092e73d57ec0dce58ef9f02c017f761ec4057561fc409a5337d9104cd32b061dd02207a8ec2fa5ecca106fda7241f2306688b2513f35fe3ccd7e47d9329456fed9e000147304402200ecafde6b781d33451d8c84d76afe1bd347e49ec08d928e4af53de0c64b4745002207aa6e69e18f1ef1745bfebe60f2dbdad97c0a88afc1d57029e60a19fe4759499014c69522103d18f3ec9ced598698c48d48b2af52b6de9aa766e5c526f3d84f1ed05661c233a21028f5827078a0d954c09b1f46ae60f4899229f06ae74ede014c4e7038af9f78bdf210216c871425ce10e1699e15175cbccf13f597f2d192c48421127ec03fc53fe85aa53aeffffffff47ba9c1fee8a4c0d3793298cfbb3f9e0afa54ad8134930917bf0912917160c2f04000000fdfe0000483045022100bf4cc57873730ac4961c72321e6de5a488491a0a4bbb2a3211af4fb395d2de2d02206f0663d77e3e216aa900eea82c9d5684ef7a0923e575eff4dcde51847807d8f601483045022100c0f8347590b6b999d0060c0b924a63c891c88712520fa7c24aaa48c441dfe303022067afb7c42de458673a6a337890ac3ee0546be2c5929a8c8ba228cd05c4b37cd7014c6952210378e6462f7bf2c4ad1c6dc7e4581d4f2b933872d75282566bdde5a90f6e6e62fa2103dfba4fa6a0830083272932e0724235ca4cf2b17d4d160f115d69ae813e4353ac210360c1d0c5fa0c7baceb66dde50f1e0a0cce69f223db5fbc82ed9dafd87f1c963753aeffffffff043e68063b756b448f2430ab9beb985928c484852ab85bd909cc875022b0d57100000000fdfd00004830450221009ca460cb08e3ab7be7b08c991695f45b4136774f73b3693b9e3924e4fb9d4f8e022000c0fcf66898f3055bb7aa7d74a8d10bd397c193fc5e707266396132c750db53014730440220089003eb1c986baacb5268b117fe5ec5e665d3a90e345e0a7b6c585cd3a0f1e602204e469ef0f3e0c52516e12a916926e1eb9d9a22c54712b3f5741452802c3eca7e014c6952210246ccf4de0c54cc7f3354cdd993c2c50cf965fd82238b89659fbd73a1b4bf05a121024fc59f72272a897fe43803374969f396058152fe4765a8d15216f94624257b1b21022593bc69ecbf3bbcc3c58082267cb49dadaf4ca8dbf1b2297338a9d628c4297653aeffffffffd95397736d3b7a0e83a58931eacbbf2784049948f8b535469919716784904bf200000000fdfd000047304402205be7ddd1f2fa42821df07817ca529e13a88ed288db19e38f69f1de7721a8a01c02204b78258cd84f1604f21cbaa4809fd2cddb443337385b9e29d702a65cd4d9023601483045022100f4a94451c4ea55d663410350213439210f591ae8fc60fc5b14e6bb57a8de41b802206913045255a007e128faef86c9b63f867f77ca6f76544d5d3febd4f3638e1b85014c6952210246ccf4de0c54cc7f3354cdd993c2c50cf965fd82238b89659fbd73a1b4bf05a121024fc59f72272a897fe43803374969f396058152fe4765a8d15216f94624257b1b21022593bc69ecbf3bbcc3c58082267cb49dadaf4ca8dbf1b2297338a9d628c4297653aeffffffff9cf92a875b7c789055d8ce83ffb60931c8f841c8d722a477462a74d533a3ad3000000000fdfd000047304402207d51e740f28814c442529e302a9496afc4f677be52439c0cc19af22c2aee9c0a02206125fa2007983dc461f29668bc677a730d80f2f2b6c08dc0cb0595df687bf04c014830450221009ed2e4d35e77d31df8053b489573f9345e7a8369a1f08b32ba47ec8eee53efea02207a566b8f659354fcab5335f9c6c4b07fb3140452950f5b7ce66fa84b07dac023014c6952210238fc7379e926cec9c63e0e595fb267a512dc3c5b9b9089d378080f4bc952ac422103c460cf7955c4d7552308cb950652d689e26e57c0fa843c70005020c6862ab34e2102e216dfa6740e72502b005c21824e80f2649c242551376797d58f88ef4a0b476353aeffffffffb55a80142953486decbe19e7dba8a5baee902b4ba1eed62a1e5a8d242b7295b100000000fdfd0000483045022100affc4562049df446166d8eaf3f51ee5aefa79a8d128bf370cc7fec26d174bd5902201e168629ab6bcc8acc2c996a561410b1ee6e7e49940f280c6bb84faecb4488cb0147304402204c394d2db8c49e7964711859b1ffe70bb3e1875959fa27db0539f8f4ae388de102203704ca9aad2a53e3b0b5203a68633592840724d614839f328edba82fdca3ca3c014c695221028142e1e3a8c9866f21fecd908459787fcaec50b95fcd9c3ceff3b3fba0c2ac6e21025b14ab1011b3dc694a5a04a05cf0dc8f347fff1ec3b5262fabfd4c3bb40db49221034f65e8d7748613adb78d7b518d6da3bee8fbceee8c0af7f0aae23701bb6fdcae53aeffffffff38929ace046ead804cff33d2a6533d4d3b7f1c36e8ab5333fcce4a8224be295907000000fdfe00004830450221008c5d20b76787ff0bfadec16ba2058115e720bf4c23dfa6c016bbfab8993a00ee02205da0940b21e05e32123e47425f798e8fae65f4e81b1e81a5af428d364406ba8b01483045022100dfaa40d9aae7c6e6adcf9552c27a7471d79126a261134f2056173f6e32e21c3f022045a3d80fded781f9bfedfdcacf8f1f0245f47ac2bb0a1f6df0e88d6da6068f42014c695221021958829c3aea71b887c0919aefc690ccdf7dce986dfdbf41c6a6ecfcd4b7b14a210371b5cbdce4122dd7e25eb4fd8c365b7d382b976ccce374ecda883877c203c8b221021e736b2a9341cb37096b3b76734b96febff26ed388d4c1aa9c8952322c7ebb3653aeffffffff0460bfc123000000001976a9146a8067cb2bbc5c1d7986ebe18f17576175eeb9b988ac005a6202000000001976a914a8df6efbf4dc74a1496e6bef5a798cebca45733088ace0fd1c000000000017a914efc80f2ddbe08bbfdf2b42e83a43fdf70ef6eacc87a6601e030000000017a9142d2fd80ba9d7d40b15f302c79ed9fce2ca8aae128700000000", "vin": [{"sequence": 4294967295, "scriptSig": {"hex": "0048304502210090f8b28346315971d5540220e1cf4892808bc501f36364d889aae730198b3d8802207451df0c32deaacb5b670ea005dac140d392d2699cbf2752986fb7622200b2820148304502210080850056a0a9b612b4afaf7a3bf3ee9bc135cc1e4398d29a1175ac306b73efd202204a9c7e11a4ddb969373d6c3354198408d95c685172c29c75e409cf09d6790440014c69522103a1a055cfeab195c1f0e0294c2abde81d579f9bf8eeb49248f0067455fca9b57c210204592ec368ee845fa7375f051f7696b9d62827b0bbce031b35343ed39c60ca7b210305cca7bd9c401cf2778d95ae389353822da89ede0f768574a9d87790812b4e7053ae", "asm": "0 304502210090f8b28346315971d5540220e1cf4892808bc501f36364d889aae730198b3d8802207451df0c32deaacb5b670ea005dac140d392d2699cbf2752986fb7622200b282[ALL] 304502210080850056a0a9b612b4afaf7a3bf3ee9bc135cc1e4398d29a1175ac306b73efd202204a9c7e11a4ddb969373d6c3354198408d95c685172c29c75e409cf09d6790440[ALL] 522103a1a055cfeab195c1f0e0294c2abde81d579f9bf8eeb49248f0067455fca9b57c210204592ec368ee845fa7375f051f7696b9d62827b0bbce031b35343ed39c60ca7b210305cca7bd9c401cf2778d95ae389353822da89ede0f768574a9d87790812b4e7053ae"}, "vout": 0, "txid": "1387f39e5aef98e965b239c03c15674cb7fd10d182ca8a96cb2e4593ba399baa"}, {"sequence": 4294967295, "scriptSig": {"hex": "004730440220792b0353632794259adb3e8e1af39a227e2dd0dcf7deeafc6f360a10ad4e25a002200a4534fcf5b51a97290e071e3282f14aee7630653856ce81a80e0c9883c8f9d801473044022055fe6668caa18a54021fb7a5134b7f486f11ded66b7d7c06a75d8ebf3851eab70220087586bfed6eba88b1ffb1e8f14d3c8d56afd9861de9b16be50e6c255f6541b5014c69522102ddbd2cadffa271a930b539a93feb796c50b5eacb697b0505e43a086253fbf18e2103f46e458a84c415dae3330c6ff83e7e5b45ef5addf1179e0fab58b1918a0d0ee0210311393e79fceb4e250956e707c45c26dbf1a954bb1c152cc98d0e951133cc17f253ae", "asm": "0 30440220792b0353632794259adb3e8e1af39a227e2dd0dcf7deeafc6f360a10ad4e25a002200a4534fcf5b51a97290e071e3282f14aee7630653856ce81a80e0c9883c8f9d8[ALL] 3044022055fe6668caa18a54021fb7a5134b7f486f11ded66b7d7c06a75d8ebf3851eab70220087586bfed6eba88b1ffb1e8f14d3c8d56afd9861de9b16be50e6c255f6541b5[ALL] 522102ddbd2cadffa271a930b539a93feb796c50b5eacb697b0505e43a086253fbf18e2103f46e458a84c415dae3330c6ff83e7e5b45ef5addf1179e0fab58b1918a0d0ee0210311393e79fceb4e250956e707c45c26dbf1a954bb1c152cc98d0e951133cc17f253ae"}, "vout": 0, "txid": "0643c49d72cc70136d6f422eed54cbd61e570e336d242a27ed5d9c903e30d148"}, {"sequence": 4294967295, "scriptSig": {"hex": "0048304502210092e73d57ec0dce58ef9f02c017f761ec4057561fc409a5337d9104cd32b061dd02207a8ec2fa5ecca106fda7241f2306688b2513f35fe3ccd7e47d9329456fed9e000147304402200ecafde6b781d33451d8c84d76afe1bd347e49ec08d928e4af53de0c64b4745002207aa6e69e18f1ef1745bfebe60f2dbdad97c0a88afc1d57029e60a19fe4759499014c69522103d18f3ec9ced598698c48d48b2af52b6de9aa766e5c526f3d84f1ed05661c233a21028f5827078a0d954c09b1f46ae60f4899229f06ae74ede014c4e7038af9f78bdf210216c871425ce10e1699e15175cbccf13f597f2d192c48421127ec03fc53fe85aa53ae", "asm": "0 304502210092e73d57ec0dce58ef9f02c017f761ec4057561fc409a5337d9104cd32b061dd02207a8ec2fa5ecca106fda7241f2306688b2513f35fe3ccd7e47d9329456fed9e00[ALL] 304402200ecafde6b781d33451d8c84d76afe1bd347e49ec08d928e4af53de0c64b4745002207aa6e69e18f1ef1745bfebe60f2dbdad97c0a88afc1d57029e60a19fe4759499[ALL] 522103d18f3ec9ced598698c48d48b2af52b6de9aa766e5c526f3d84f1ed05661c233a21028f5827078a0d954c09b1f46ae60f4899229f06ae74ede014c4e7038af9f78bdf210216c871425ce10e1699e15175cbccf13f597f2d192c48421127ec03fc53fe85aa53ae"}, "vout": 27, "txid": "1ad29830cc9268022c93814286eb6bccef8f4112dbfba19e28010826d09886fd"}, {"sequence": 4294967295, "scriptSig": {"hex": "00483045022100bf4cc57873730ac4961c72321e6de5a488491a0a4bbb2a3211af4fb395d2de2d02206f0663d77e3e216aa900eea82c9d5684ef7a0923e575eff4dcde51847807d8f601483045022100c0f8347590b6b999d0060c0b924a63c891c88712520fa7c24aaa48c441dfe303022067afb7c42de458673a6a337890ac3ee0546be2c5929a8c8ba228cd05c4b37cd7014c6952210378e6462f7bf2c4ad1c6dc7e4581d4f2b933872d75282566bdde5a90f6e6e62fa2103dfba4fa6a0830083272932e0724235ca4cf2b17d4d160f115d69ae813e4353ac210360c1d0c5fa0c7baceb66dde50f1e0a0cce69f223db5fbc82ed9dafd87f1c963753ae", "asm": "0 3045022100bf4cc57873730ac4961c72321e6de5a488491a0a4bbb2a3211af4fb395d2de2d02206f0663d77e3e216aa900eea82c9d5684ef7a0923e575eff4dcde51847807d8f6[ALL] 3045022100c0f8347590b6b999d0060c0b924a63c891c88712520fa7c24aaa48c441dfe303022067afb7c42de458673a6a337890ac3ee0546be2c5929a8c8ba228cd05c4b37cd7[ALL] 52210378e6462f7bf2c4ad1c6dc7e4581d4f2b933872d75282566bdde5a90f6e6e62fa2103dfba4fa6a0830083272932e0724235ca4cf2b17d4d160f115d69ae813e4353ac210360c1d0c5fa0c7baceb66dde50f1e0a0cce69f223db5fbc82ed9dafd87f1c963753ae"}, "vout": 4, "txid": "2f0c16172991f07b91304913d84aa5afe0f9b3fb8c2993370d4c8aee1f9cba47"}, {"sequence": 4294967295, "scriptSig": {"hex": "004830450221009ca460cb08e3ab7be7b08c991695f45b4136774f73b3693b9e3924e4fb9d4f8e022000c0fcf66898f3055bb7aa7d74a8d10bd397c193fc5e707266396132c750db53014730440220089003eb1c986baacb5268b117fe5ec5e665d3a90e345e0a7b6c585cd3a0f1e602204e469ef0f3e0c52516e12a916926e1eb9d9a22c54712b3f5741452802c3eca7e014c6952210246ccf4de0c54cc7f3354cdd993c2c50cf965fd82238b89659fbd73a1b4bf05a121024fc59f72272a897fe43803374969f396058152fe4765a8d15216f94624257b1b21022593bc69ecbf3bbcc3c58082267cb49dadaf4ca8dbf1b2297338a9d628c4297653ae", "asm": "0 30450221009ca460cb08e3ab7be7b08c991695f45b4136774f73b3693b9e3924e4fb9d4f8e022000c0fcf66898f3055bb7aa7d74a8d10bd397c193fc5e707266396132c750db53[ALL] 30440220089003eb1c986baacb5268b117fe5ec5e665d3a90e345e0a7b6c585cd3a0f1e602204e469ef0f3e0c52516e12a916926e1eb9d9a22c54712b3f5741452802c3eca7e[ALL] 52210246ccf4de0c54cc7f3354cdd993c2c50cf965fd82238b89659fbd73a1b4bf05a121024fc59f72272a897fe43803374969f396058152fe4765a8d15216f94624257b1b21022593bc69ecbf3bbcc3c58082267cb49dadaf4ca8dbf1b2297338a9d628c4297653ae"}, "vout": 0, "txid": "71d5b0225087cc09d95bb82a8584c4285998eb9bab30248f446b753b06683e04"}, {"sequence": 4294967295, "scriptSig": {"hex": "0047304402205be7ddd1f2fa42821df07817ca529e13a88ed288db19e38f69f1de7721a8a01c02204b78258cd84f1604f21cbaa4809fd2cddb443337385b9e29d702a65cd4d9023601483045022100f4a94451c4ea55d663410350213439210f591ae8fc60fc5b14e6bb57a8de41b802206913045255a007e128faef86c9b63f867f77ca6f76544d5d3febd4f3638e1b85014c6952210246ccf4de0c54cc7f3354cdd993c2c50cf965fd82238b89659fbd73a1b4bf05a121024fc59f72272a897fe43803374969f396058152fe4765a8d15216f94624257b1b21022593bc69ecbf3bbcc3c58082267cb49dadaf4ca8dbf1b2297338a9d628c4297653ae", "asm": "0 304402205be7ddd1f2fa42821df07817ca529e13a88ed288db19e38f69f1de7721a8a01c02204b78258cd84f1604f21cbaa4809fd2cddb443337385b9e29d702a65cd4d90236[ALL] 3045022100f4a94451c4ea55d663410350213439210f591ae8fc60fc5b14e6bb57a8de41b802206913045255a007e128faef86c9b63f867f77ca6f76544d5d3febd4f3638e1b85[ALL] 52210246ccf4de0c54cc7f3354cdd993c2c50cf965fd82238b89659fbd73a1b4bf05a121024fc59f72272a897fe43803374969f396058152fe4765a8d15216f94624257b1b21022593bc69ecbf3bbcc3c58082267cb49dadaf4ca8dbf1b2297338a9d628c4297653ae"}, "vout": 0, "txid": "f24b9084677119994635b5f84899048427bfcbea3189a5830e7a3b6d739753d9"}, {"sequence": 4294967295, "scriptSig": {"hex": "0047304402207d51e740f28814c442529e302a9496afc4f677be52439c0cc19af22c2aee9c0a02206125fa2007983dc461f29668bc677a730d80f2f2b6c08dc0cb0595df687bf04c014830450221009ed2e4d35e77d31df8053b489573f9345e7a8369a1f08b32ba47ec8eee53efea02207a566b8f659354fcab5335f9c6c4b07fb3140452950f5b7ce66fa84b07dac023014c6952210238fc7379e926cec9c63e0e595fb267a512dc3c5b9b9089d378080f4bc952ac422103c460cf7955c4d7552308cb950652d689e26e57c0fa843c70005020c6862ab34e2102e216dfa6740e72502b005c21824e80f2649c242551376797d58f88ef4a0b476353ae", "asm": "0 304402207d51e740f28814c442529e302a9496afc4f677be52439c0cc19af22c2aee9c0a02206125fa2007983dc461f29668bc677a730d80f2f2b6c08dc0cb0595df687bf04c[ALL] 30450221009ed2e4d35e77d31df8053b489573f9345e7a8369a1f08b32ba47ec8eee53efea02207a566b8f659354fcab5335f9c6c4b07fb3140452950f5b7ce66fa84b07dac023[ALL] 52210238fc7379e926cec9c63e0e595fb267a512dc3c5b9b9089d378080f4bc952ac422103c460cf7955c4d7552308cb950652d689e26e57c0fa843c70005020c6862ab34e2102e216dfa6740e72502b005c21824e80f2649c242551376797d58f88ef4a0b476353ae"}, "vout": 0, "txid": "30ada333d5742a4677a422d7c841f8c83109b6ff83ced85590787c5b872af99c"}, {"sequence": 4294967295, "scriptSig": {"hex": "00483045022100affc4562049df446166d8eaf3f51ee5aefa79a8d128bf370cc7fec26d174bd5902201e168629ab6bcc8acc2c996a561410b1ee6e7e49940f280c6bb84faecb4488cb0147304402204c394d2db8c49e7964711859b1ffe70bb3e1875959fa27db0539f8f4ae388de102203704ca9aad2a53e3b0b5203a68633592840724d614839f328edba82fdca3ca3c014c695221028142e1e3a8c9866f21fecd908459787fcaec50b95fcd9c3ceff3b3fba0c2ac6e21025b14ab1011b3dc694a5a04a05cf0dc8f347fff1ec3b5262fabfd4c3bb40db49221034f65e8d7748613adb78d7b518d6da3bee8fbceee8c0af7f0aae23701bb6fdcae53ae", "asm": "0 3045022100affc4562049df446166d8eaf3f51ee5aefa79a8d128bf370cc7fec26d174bd5902201e168629ab6bcc8acc2c996a561410b1ee6e7e49940f280c6bb84faecb4488cb[ALL] 304402204c394d2db8c49e7964711859b1ffe70bb3e1875959fa27db0539f8f4ae388de102203704ca9aad2a53e3b0b5203a68633592840724d614839f328edba82fdca3ca3c[ALL] 5221028142e1e3a8c9866f21fecd908459787fcaec50b95fcd9c3ceff3b3fba0c2ac6e21025b14ab1011b3dc694a5a04a05cf0dc8f347fff1ec3b5262fabfd4c3bb40db49221034f65e8d7748613adb78d7b518d6da3bee8fbceee8c0af7f0aae23701bb6fdcae53ae"}, "vout": 0, "txid": "b195722b248d5a1e2ad6eea14b2b90eebaa5a8dbe719beec6d48532914805ab5"}, {"sequence": 4294967295, "scriptSig": {"hex": "004830450221008c5d20b76787ff0bfadec16ba2058115e720bf4c23dfa6c016bbfab8993a00ee02205da0940b21e05e32123e47425f798e8fae65f4e81b1e81a5af428d364406ba8b01483045022100dfaa40d9aae7c6e6adcf9552c27a7471d79126a261134f2056173f6e32e21c3f022045a3d80fded781f9bfedfdcacf8f1f0245f47ac2bb0a1f6df0e88d6da6068f42014c695221021958829c3aea71b887c0919aefc690ccdf7dce986dfdbf41c6a6ecfcd4b7b14a210371b5cbdce4122dd7e25eb4fd8c365b7d382b976ccce374ecda883877c203c8b221021e736b2a9341cb37096b3b76734b96febff26ed388d4c1aa9c8952322c7ebb3653ae", "asm": "0 30450221008c5d20b76787ff0bfadec16ba2058115e720bf4c23dfa6c016bbfab8993a00ee02205da0940b21e05e32123e47425f798e8fae65f4e81b1e81a5af428d364406ba8b[ALL] 3045022100dfaa40d9aae7c6e6adcf9552c27a7471d79126a261134f2056173f6e32e21c3f022045a3d80fded781f9bfedfdcacf8f1f0245f47ac2bb0a1f6df0e88d6da6068f42[ALL] 5221021958829c3aea71b887c0919aefc690ccdf7dce986dfdbf41c6a6ecfcd4b7b14a210371b5cbdce4122dd7e25eb4fd8c365b7d382b976ccce374ecda883877c203c8b221021e736b2a9341cb37096b3b76734b96febff26ed388d4c1aa9c8952322c7ebb3653ae"}, "vout": 7, "txid": "5929be24824acefc3353abe8361c7f3b4d3d53a6d233ff4c80ad6e04ce9a9238"}], "txid": "cf7239fabf90bb672cd115cea1313d80fbf2a2a852b7802b4e603d96e198c9e1", "blocktime": 1537870928, "version": 1, "confirmations": 11512, "time": 1537870928, "locktime": 0, "vsize": 2806, "size": 2806}