{"hash": "cf748e22c68509c833df61b70f463ce045a32e4f1af7bf28d4266628e3aae001", "blockhash": "0000000000000000001f76057863aec43deb6fa401d9628bb513d65a8098bfab", "vout": [{"scriptPubKey": {"reqSigs": 1, "hex": "76a914d7b4e076c5d6df1116d5ad8ad2af7fc08e912cc088ac", "addresses": ["1LfYxnX1uRWq9dJp9JVs4NCQjDnUcVTNf9"], "asm": "OP_DUP OP_HASH160 d7b4e076c5d6df1116d5ad8ad2af7fc08e912cc0 OP_EQUALVERIFY OP_CHECKSIG", "type": "pubkeyhash"}, "value": 0.000637, "n": 0}, {"scriptPubKey": {"reqSigs": 1, "hex": "a9146f740125a29f3afdb87ef018c9a41c171863463b87", "addresses": ["3BrKtyBndHNBNzK97v2nPsjWhwgR5VuWAZ"], "asm": "OP_HASH160 6f740125a29f3afdb87ef018c9a41c171863463b OP_EQUAL", "type": "scripthash"}, "value": 0.213, "n": 1}], "hex": "0100000004a118c7371d24b0d1bcf7e9a3e098ba7555b7c2928e4f0856712b53107602e54e010000006b483045022100f20b3e121bdde438f87bf68f9f8c44efd705f21bc81673eadeca255da1b3952d02206db983b7637967fd39d3a213a24d9af73a8a2042389a86363d0c49a521b68849012103a63306818fd52ed2c9d1503df280c3c885c65a01e7b30f380156c068cff07187ffffffff83b86f225ceb9bdc7683b3cb19a705cc6d4cc4bc10b4a4431f52853bf7ad0356000000006a473044022000ded6d5f48d778e049908f775cc46e02829f98e4b7bba04367553737ab63273022033c79978faa2bdb6e310c959cc8ccd6a63c43c0d51646dc9d064b22bfbf25cb9012103a63306818fd52ed2c9d1503df280c3c885c65a01e7b30f380156c068cff07187ffffffff4fd53ba955073f73bb2cae93b98fce1bebc2ffccca687af6401b9e13ce7cb2b8010000006b4830450221009170dbacfef374d34d202bf484288830d5037415e3e6139871ec48838492af8602202d61968d4acbf87f3818f58fcd44987e7ca851c4a4e3694db8b53e2e5e053c94012103410e31043946770f0eb86e86e5c0c283930e2211a4fdf1dbe5a72ad01e63c6b6ffffffff7c7e55fe3297ef0adb93b1078c442aadf186ec9f51543d54a9fe16c41bf9b1f9010000006a4730440220365c1807f6f88647cadf73d41b2ae14c6b81bc12e0aa387ae8920c630dc7c6bc02201959a2fceebe4d418b0b52da8c9dfb0c6ec93248096966ee78833e62c7708e740121023e6604aff2a11011aa556412c9e6db37e9f0710a00cbd9ce3581cae4aba2602bffffffff02d4f80000000000001976a914d7b4e076c5d6df1116d5ad8ad2af7fc08e912cc088ac200345010000000017a9146f740125a29f3afdb87ef018c9a41c171863463b8700000000", "vin": [{"sequence": 4294967295, "scriptSig": {"hex": "483045022100f20b3e121bdde438f87bf68f9f8c44efd705f21bc81673eadeca255da1b3952d02206db983b7637967fd39d3a213a24d9af73a8a2042389a86363d0c49a521b68849012103a63306818fd52ed2c9d1503df280c3c885c65a01e7b30f380156c068cff07187", "asm": "3045022100f20b3e121bdde438f87bf68f9f8c44efd705f21bc81673eadeca255da1b3952d02206db983b7637967fd39d3a213a24d9af73a8a2042389a86363d0c49a521b68849[ALL] 03a63306818fd52ed2c9d1503df280c3c885c65a01e7b30f380156c068cff07187"}, "vout": 1, "txid": "4ee5027610532b7156084f8e92c2b75575ba98e0a3e9f7bcd1b0241d37c718a1"}, {"sequence": 4294967295, "scriptSig": {"hex": "473044022000ded6d5f48d778e049908f775cc46e02829f98e4b7bba04367553737ab63273022033c79978faa2bdb6e310c959cc8ccd6a63c43c0d51646dc9d064b22bfbf25cb9012103a63306818fd52ed2c9d1503df280c3c885c65a01e7b30f380156c068cff07187", "asm": "3044022000ded6d5f48d778e049908f775cc46e02829f98e4b7bba04367553737ab63273022033c79978faa2bdb6e310c959cc8ccd6a63c43c0d51646dc9d064b22bfbf25cb9[ALL] 03a63306818fd52ed2c9d1503df280c3c885c65a01e7b30f380156c068cff07187"}, "vout": 0, "txid": "5603adf73b85521f43a4b410bcc44c6dcc05a719cbb38376dc9beb5c226fb883"}, {"sequence": 4294967295, "scriptSig": {"hex": "4830450221009170dbacfef374d34d202bf484288830d5037415e3e6139871ec48838492af8602202d61968d4acbf87f3818f58fcd44987e7ca851c4a4e3694db8b53e2e5e053c94012103410e31043946770f0eb86e86e5c0c283930e2211a4fdf1dbe5a72ad01e63c6b6", "asm": "30450221009170dbacfef374d34d202bf484288830d5037415e3e6139871ec48838492af8602202d61968d4acbf87f3818f58fcd44987e7ca851c4a4e3694db8b53e2e5e053c94[ALL] 03410e31043946770f0eb86e86e5c0c283930e2211a4fdf1dbe5a72ad01e63c6b6"}, "vout": 1, "txid": "b8b27cce139e1b40f67a68caccffc2eb1bce8fb993ae2cbb733f0755a93bd54f"}, {"sequence": 4294967295, "scriptSig": {"hex": "4730440220365c1807f6f88647cadf73d41b2ae14c6b81bc12e0aa387ae8920c630dc7c6bc02201959a2fceebe4d418b0b52da8c9dfb0c6ec93248096966ee78833e62c7708e740121023e6604aff2a11011aa556412c9e6db37e9f0710a00cbd9ce3581cae4aba2602b", "asm": "30440220365c1807f6f88647cadf73d41b2ae14c6b81bc12e0aa387ae8920c630dc7c6bc02201959a2fceebe4d418b0b52da8c9dfb0c6ec93248096966ee78833e62c7708e74[ALL] 023e6604aff2a11011aa556412c9e6db37e9f0710a00cbd9ce3581cae4aba2602b"}, "vout": 1, "txid": "f9b1f91bc416fea9543d54519fec86f1ad2a448c07b193db0aef9732fe557e7c"}], "txid": "cf748e22c68509c833df61b70f463ce045a32e4f1af7bf28d4266628e3aae001", "blocktime": 1537873891, "version": 1, "confirmations": 11478, "time": 1537873891, "locktime": 0, "vsize": 666, "size": 666}