{"hash": "a6ce517ef4692c67fc51afef021d3eb1edd38329f7a2ad624072ddb7089605a0", "blockhash": "000000000000000000022b45ed06c6f4ccd3cf7fb5ba4856ebd2e58215665228", "vout": [{"scriptPubKey": {"reqSigs": 1, "hex": "a91469f376542c7f74e3e2caac1bf2292cce8a8df84887", "addresses": ["3BMEXjjpVLr2dv5iM5Am2P4yheabRE21Yr"], "asm": "OP_HASH160 69f376542c7f74e3e2caac1bf2292cce8a8df848 OP_EQUAL", "type": "scripthash"}, "value": 0.02, "n": 0}, {"scriptPubKey": {"reqSigs": 1, "hex": "0020701a8d401c84fb13e6baf169d59684e17abd9fa216c8cc5b9fc63d622ff8c58d", "addresses": ["bc1qwqdg6squsna38e46795at95yu9atm8azzmyvckulcc7kytlcckxswvvzej"], "asm": "0 701a8d401c84fb13e6baf169d59684e17abd9fa216c8cc5b9fc63d622ff8c58d", "type": "witness_v0_scripthash"}, "value": 0.0249, "n": 1}], "hex": "01000000000101e6f8d036334071c7a7767e39742a700313945ab216688d051e359db03f7bdfe40100000000ffffffff0280841e000000000017a91469f376542c7f74e3e2caac1bf2292cce8a8df8488790fe250000000000220020701a8d401c84fb13e6baf169d59684e17abd9fa216c8cc5b9fc63d622ff8c58d0400483045022100dc45f2027d4c38eab90ddb0fda68c50bdf9539036d3a2c82be29f8673028d16802203eb42905b339a46afe557c21a5b169e35918caf94dd503ed66f895e42fa81eaf0147304402206812b93167709be12518f865734d99ea45901450f8da13c2aaafd51adeec193802201619309a45053ba13288de5e46d599c04d6542d3e929efdbfec47688a9594fb8016952210375e00eb72e29da82b89367947f29ef34afb75e8654f6ea368e0acdfd92976b7c2103a1b26313f430c4b15bb1fdce663207659d8cac749a0e53d70eff01874496feff2103c96d495bfdd5ba4145e3e046fee45e84a8a48ad05bd8dbb395c011a32cf9f88053ae00000000", "vin": [{"txinwitness": ["", "3045022100dc45f2027d4c38eab90ddb0fda68c50bdf9539036d3a2c82be29f8673028d16802203eb42905b339a46afe557c21a5b169e35918caf94dd503ed66f895e42fa81eaf01", "304402206812b93167709be12518f865734d99ea45901450f8da13c2aaafd51adeec193802201619309a45053ba13288de5e46d599c04d6542d3e929efdbfec47688a9594fb801", "52210375e00eb72e29da82b89367947f29ef34afb75e8654f6ea368e0acdfd92976b7c2103a1b26313f430c4b15bb1fdce663207659d8cac749a0e53d70eff01874496feff2103c96d495bfdd5ba4145e3e046fee45e84a8a48ad05bd8dbb395c011a32cf9f88053ae"], "sequence": 4294967295, "scriptSig": {"hex": "", "asm": ""}, "vout": 1, "txid": "e4df7b3fb09d351e058d6816b25a941303702a74397e76a7c771403336d0f8e6"}], "txid": "cf77453624d7d430f1b9ba809fe300144f035a38ed6f801c2bf585696cffdaca", "blocktime": 1537869901, "version": 1, "confirmations": 11522, "time": 1537869901, "locktime": 0, "vsize": 190, "size": 381}