{"hash": "cf796ed76f121aa841175d40ba2d0e2dba4809301fc5df863595702edf9319d2", "blockhash": "0000000000000000001f0ddff1eddb255c1121bcd4da4f1bc9a0da00cae72433", "vout": [{"scriptPubKey": {"reqSigs": 1, "hex": "76a914046dc1989e44a01cc01108d372aae93dddb6575d88ac", "addresses": ["1QRBmKrBbGqbE7owFfsHnpfPzAFLZV6Qx"], "asm": "OP_DUP OP_HASH160 046dc1989e44a01cc01108d372aae93dddb6575d OP_EQUALVERIFY OP_CHECKSIG", "type": "pubkeyhash"}, "value": 0.00012799, "n": 0}, {"scriptPubKey": {"reqSigs": 1, "hex": "76a914a7f488f1e804309e65736750e5b37e5b852ac3b288ac", "addresses": ["1GK4nd2vB5Tvqc6oFrCfYg1ktLvLPgQkgv"], "asm": "OP_DUP OP_HASH160 a7f488f1e804309e65736750e5b37e5b852ac3b2 OP_EQUALVERIFY OP_CHECKSIG", "type": "pubkeyhash"}, "value": 0.01596205, "n": 1}], "hex": "0100000001fecea5a933388f6c0e0965222acac7db05bd894dce743d1b3d9c8a785b80b9bc000000006a473044022020114d619c0893448fecf70aadf41644a3c8d466b5709e417bc1e12d2193bbe30220174281978fea2faca09dc093091f1452016c99ca71c49adcb275f59958d8a49d012102706788cdba040366fac2624b55792116be47ba797ce05a9d3b81db4487e8e4a8ffffffff02ff310000000000001976a914046dc1989e44a01cc01108d372aae93dddb6575d88ac2d5b1800000000001976a914a7f488f1e804309e65736750e5b37e5b852ac3b288ac00000000", "vin": [{"sequence": 4294967295, "scriptSig": {"hex": "473044022020114d619c0893448fecf70aadf41644a3c8d466b5709e417bc1e12d2193bbe30220174281978fea2faca09dc093091f1452016c99ca71c49adcb275f59958d8a49d012102706788cdba040366fac2624b55792116be47ba797ce05a9d3b81db4487e8e4a8", "asm": "3044022020114d619c0893448fecf70aadf41644a3c8d466b5709e417bc1e12d2193bbe30220174281978fea2faca09dc093091f1452016c99ca71c49adcb275f59958d8a49d[ALL] 02706788cdba040366fac2624b55792116be47ba797ce05a9d3b81db4487e8e4a8"}, "vout": 0, "txid": "bcb9805b788a9c3d1b3d74ce4d89bd05dbc7ca2a2265090e6c8f3833a9a5cefe"}], "txid": "cf796ed76f121aa841175d40ba2d0e2dba4809301fc5df863595702edf9319d2", "blocktime": 1537872018, "version": 1, "confirmations": 11489, "time": 1537872018, "locktime": 0, "vsize": 225, "size": 225}