{"hash": "cf852a8b72a9c90f58cff8f23e797a163ebb7340bafe84affb874091b54272df", "blockhash": "0000000000000000001e0dab787dd257d1dbfcb92a98c2207d5e1078be1f4165", "vout": [{"scriptPubKey": {"reqSigs": 1, "hex": "76a9144d1de12a0ed896ba8cea12bba90bae2f0b8e5bf088ac", "addresses": ["182kpqd9w8p9RHBjPRJrViec3xJwRFboss"], "asm": "OP_DUP OP_HASH160 4d1de12a0ed896ba8cea12bba90bae2f0b8e5bf0 OP_EQUALVERIFY OP_CHECKSIG", "type": "pubkeyhash"}, "value": 0.04139514, "n": 0}, {"scriptPubKey": {"reqSigs": 1, "hex": "00147237ae09f6fdfa2ce24a60091ac105daa5a0727b", "addresses": ["bc1qwgm6uz0klhazecj2vqy34sg9m2j6qunmq9tmte"], "asm": "0 7237ae09f6fdfa2ce24a60091ac105daa5a0727b", "type": "witness_v0_keyhash"}, "value": 0.01457989, "n": 1}], "hex": "01000000019650dc2926dbea774e245fac9d7e69ef36a17dbc3a55c91c9a544a6473b1ddd2330000006b4830450221008d6bc1f550ed46360f9057dfb115371a37bd01aca86b68e70750f5c4e984cea7022020c17ae2cde5cdb6582fc626ec8c2a2ba4f056c71ba1692fa7d8e07e982b1e48012103a5472bccf14a849f9541c3c7ad381a8ab8729bcf2066df6d021b0c232d0465c1ffffffff02fa293f00000000001976a9144d1de12a0ed896ba8cea12bba90bae2f0b8e5bf088ac453f1600000000001600147237ae09f6fdfa2ce24a60091ac105daa5a0727b00000000", "vin": [{"sequence": 4294967295, "scriptSig": {"hex": "4830450221008d6bc1f550ed46360f9057dfb115371a37bd01aca86b68e70750f5c4e984cea7022020c17ae2cde5cdb6582fc626ec8c2a2ba4f056c71ba1692fa7d8e07e982b1e48012103a5472bccf14a849f9541c3c7ad381a8ab8729bcf2066df6d021b0c232d0465c1", "asm": "30450221008d6bc1f550ed46360f9057dfb115371a37bd01aca86b68e70750f5c4e984cea7022020c17ae2cde5cdb6582fc626ec8c2a2ba4f056c71ba1692fa7d8e07e982b1e48[ALL] 03a5472bccf14a849f9541c3c7ad381a8ab8729bcf2066df6d021b0c232d0465c1"}, "vout": 51, "txid": "d2ddb173644a549a1cc9553abc7da136ef697e9dac5f244e77eadb2629dc5096"}], "txid": "cf852a8b72a9c90f58cff8f23e797a163ebb7340bafe84affb874091b54272df", "blocktime": 1537872475, "version": 1, "confirmations": 11487, "time": 1537872475, "locktime": 0, "vsize": 223, "size": 223}