{"hash": "cf8b2b5b403e3083366258717c3cb65813715d63a027f53605a0c2f37fbfede6", "blockhash": "0000000000000000001cda96e906b7601b7a6fb1a3b62bca570a9e5d8f4b3de1", "vout": [{"scriptPubKey": {"type": "nulldata", "hex": "6a4c50000077c300010b5e46bdc81f8d0f3b962b94e5bf9ae76da98a211aaf6c953dd567cf27e7601ec98dd929e2171bc9b1ec737f212d5baa12f7061341c2a4e4d7241d100759d4ba30d2c37bb011d97e02cf", "asm": "OP_RETURN 000077c300010b5e46bdc81f8d0f3b962b94e5bf9ae76da98a211aaf6c953dd567cf27e7601ec98dd929e2171bc9b1ec737f212d5baa12f7061341c2a4e4d7241d100759d4ba30d2c37bb011d97e02cf"}, "value": 0.0, "n": 0}, {"scriptPubKey": {"reqSigs": 1, "hex": "76a91469c4242a27dacd1d4e3a4c4edbed5e03eee5881988ac", "addresses": ["1AeEvH2uc2m6MJePvT8vB9aB9bfYEgqjKR"], "asm": "OP_DUP OP_HASH160 69c4242a27dacd1d4e3a4c4edbed5e03eee58819 OP_EQUALVERIFY OP_CHECKSIG", "type": "pubkeyhash"}, "value": 0.00645145, "n": 1}], "hex": "01000000016240c34db063442ececf2642669262988c9c41457309c107d08454009e895a99010000006b483045022100d7f1c6a306b4c96d361d2d63b57b07b27413d830cb8afc1f6780300860deef36022077de9b02ff32ef7d638221bcd3291f0baea0016144c02c6740fd0349481bc7b0012102d1788fec666cd411bb15445cb9b361c521c236a47305935995a95d827e2b4ea0ffffffff020000000000000000536a4c50000077c300010b5e46bdc81f8d0f3b962b94e5bf9ae76da98a211aaf6c953dd567cf27e7601ec98dd929e2171bc9b1ec737f212d5baa12f7061341c2a4e4d7241d100759d4ba30d2c37bb011d97e02cf19d80900000000001976a91469c4242a27dacd1d4e3a4c4edbed5e03eee5881988ac00000000", "vin": [{"sequence": 4294967295, "scriptSig": {"hex": "483045022100d7f1c6a306b4c96d361d2d63b57b07b27413d830cb8afc1f6780300860deef36022077de9b02ff32ef7d638221bcd3291f0baea0016144c02c6740fd0349481bc7b0012102d1788fec666cd411bb15445cb9b361c521c236a47305935995a95d827e2b4ea0", "asm": "3045022100d7f1c6a306b4c96d361d2d63b57b07b27413d830cb8afc1f6780300860deef36022077de9b02ff32ef7d638221bcd3291f0baea0016144c02c6740fd0349481bc7b0[ALL] 02d1788fec666cd411bb15445cb9b361c521c236a47305935995a95d827e2b4ea0"}, "vout": 1, "txid": "995a899e005484d007c1097345419c8c986292664226cfce2e4463b04dc34062"}], "txid": "cf8b2b5b403e3083366258717c3cb65813715d63a027f53605a0c2f37fbfede6", "blocktime": 1537873282, "version": 1, "confirmations": 11484, "time": 1537873282, "locktime": 0, "vsize": 284, "size": 284}