{"hash": "cf93307107f623ddd5b3759799e433fcf60606f935ea0da6543394cdce2a61b9", "blockhash": "0000000000000000001f0ddff1eddb255c1121bcd4da4f1bc9a0da00cae72433", "vout": [{"scriptPubKey": {"reqSigs": 1, "hex": "a91469f3762ec9c78ed7084a98457a469d90c16df77d87", "addresses": ["3BMEXhSUzPaCaDdPFvCbDnrCEzMpf3rCxX"], "asm": "OP_HASH160 69f3762ec9c78ed7084a98457a469d90c16df77d OP_EQUAL", "type": "scripthash"}, "value": 0.00304813, "n": 0}, {"scriptPubKey": {"reqSigs": 1, "hex": "76a914e9f4572edb93155f436b3875a9050e029a8b73ea88ac", "addresses": ["1NL39n1viPnd3zj8BW4WUEPifWh8dwpJW4"], "asm": "OP_DUP OP_HASH160 e9f4572edb93155f436b3875a9050e029a8b73ea OP_EQUALVERIFY OP_CHECKSIG", "type": "pubkeyhash"}, "value": 0.05224735, "n": 1}], "hex": "01000000023be605ebecd7ecd3c48792598f4c78d69746ce30c74a97554d7752c32729af94000000006a47304402203aabf24645c07960761ae4782861d0a1fe6f03a97c1bfed84a7aae226053b80d02200a9eed62aa40cc194aa4de945b892440830708db6a1dfd861ed93880f07dfe6c01210341b6c348dc1e77d7b49c3bfc08a116835376483c07b74868220c9aea0f9df046ffffffff1eb6d6672b8366e76c3ab7f80dbdd1bf33146561a4f4db655e356ab3890db2e3010000006b483045022100a645bbe97c217a9a1cd6f69b8a9a169cec262fca89a1bbe6762a16e2a5bca7e9022023ebc8733c63ff71e2d3d846a8ed002aef8dbd0c4eec0895a4375d6149bb0fac012102476561c7ccacb388da26f6af2ce9251ab22c86b404311ad80ccb3847af395479ffffffff02ada604000000000017a91469f3762ec9c78ed7084a98457a469d90c16df77d871fb94f00000000001976a914e9f4572edb93155f436b3875a9050e029a8b73ea88ac00000000", "vin": [{"sequence": 4294967295, "scriptSig": {"hex": "47304402203aabf24645c07960761ae4782861d0a1fe6f03a97c1bfed84a7aae226053b80d02200a9eed62aa40cc194aa4de945b892440830708db6a1dfd861ed93880f07dfe6c01210341b6c348dc1e77d7b49c3bfc08a116835376483c07b74868220c9aea0f9df046", "asm": "304402203aabf24645c07960761ae4782861d0a1fe6f03a97c1bfed84a7aae226053b80d02200a9eed62aa40cc194aa4de945b892440830708db6a1dfd861ed93880f07dfe6c[ALL] 0341b6c348dc1e77d7b49c3bfc08a116835376483c07b74868220c9aea0f9df046"}, "vout": 0, "txid": "94af2927c352774d55974ac730ce4697d6784c8f599287c4d3ecd7eceb05e63b"}, {"sequence": 4294967295, "scriptSig": {"hex": "483045022100a645bbe97c217a9a1cd6f69b8a9a169cec262fca89a1bbe6762a16e2a5bca7e9022023ebc8733c63ff71e2d3d846a8ed002aef8dbd0c4eec0895a4375d6149bb0fac012102476561c7ccacb388da26f6af2ce9251ab22c86b404311ad80ccb3847af395479", "asm": "3045022100a645bbe97c217a9a1cd6f69b8a9a169cec262fca89a1bbe6762a16e2a5bca7e9022023ebc8733c63ff71e2d3d846a8ed002aef8dbd0c4eec0895a4375d6149bb0fac[ALL] 02476561c7ccacb388da26f6af2ce9251ab22c86b404311ad80ccb3847af395479"}, "vout": 1, "txid": "e3b20d89b36a355e65dbf4a461651433bfd1bd0df8b73a6ce766832b67d6b61e"}], "txid": "cf93307107f623ddd5b3759799e433fcf60606f935ea0da6543394cdce2a61b9", "blocktime": 1537872018, "version": 1, "confirmations": 11489, "time": 1537872018, "locktime": 0, "vsize": 371, "size": 371}