{"hash": "cf9599d12ea63c4228dbe955d79db4dba8759cb98cff5e12f8fb8c8159681680", "blockhash": "0000000000000000001f76057863aec43deb6fa401d9628bb513d65a8098bfab", "vout": [{"scriptPubKey": {"reqSigs": 1, "hex": "76a914c440aa62746d17f8742f6db2f315dc8a92686c9688ac", "addresses": ["1JtgueBEWeKpJAibiTaSCS2oxwadNiWPdL"], "asm": "OP_DUP OP_HASH160 c440aa62746d17f8742f6db2f315dc8a92686c96 OP_EQUALVERIFY OP_CHECKSIG", "type": "pubkeyhash"}, "value": 0.001264, "n": 0}, {"scriptPubKey": {"type": "nulldata", "hex": "6a4c50000077d90001e2f44b7af8e8e963c7cfd5b95b23cc0f42c2fc38c5e5bf9ae76da98a211a07db48f46fdb9c29dca5443a9ed423bd5baa15920612ad038fbbd7eabc9a9526289ac0f6612cd74e33776ee4", "asm": "OP_RETURN 000077d90001e2f44b7af8e8e963c7cfd5b95b23cc0f42c2fc38c5e5bf9ae76da98a211a07db48f46fdb9c29dca5443a9ed423bd5baa15920612ad038fbbd7eabc9a9526289ac0f6612cd74e33776ee4"}, "value": 0.0, "n": 1}], "hex": "0100000001a449df03180237fce7ebcee42635dc6c871755a33744aae4445897a9929a36c9000000006a4730440220525b1d28664aabe70998508a01243b6cd99e6889fa90d82daed5a26284af032202205d4532e07d9389cb64d16baf8a2952d1b89e62aed59c8c9149e153bdb981de050121031db83f4c4ce975fdcaf4a3964574634cd2d25b0570de4d9785d5cb339128521effffffff02c0ed0100000000001976a914c440aa62746d17f8742f6db2f315dc8a92686c9688ac0000000000000000536a4c50000077d90001e2f44b7af8e8e963c7cfd5b95b23cc0f42c2fc38c5e5bf9ae76da98a211a07db48f46fdb9c29dca5443a9ed423bd5baa15920612ad038fbbd7eabc9a9526289ac0f6612cd74e33776ee400000000", "vin": [{"sequence": 4294967295, "scriptSig": {"hex": "4730440220525b1d28664aabe70998508a01243b6cd99e6889fa90d82daed5a26284af032202205d4532e07d9389cb64d16baf8a2952d1b89e62aed59c8c9149e153bdb981de050121031db83f4c4ce975fdcaf4a3964574634cd2d25b0570de4d9785d5cb339128521e", "asm": "30440220525b1d28664aabe70998508a01243b6cd99e6889fa90d82daed5a26284af032202205d4532e07d9389cb64d16baf8a2952d1b89e62aed59c8c9149e153bdb981de05[ALL] 031db83f4c4ce975fdcaf4a3964574634cd2d25b0570de4d9785d5cb339128521e"}, "vout": 0, "txid": "c9369a92a9975844e4aa4437a35517876cdc3526e4ceebe7fc37021803df49a4"}], "txid": "cf9599d12ea63c4228dbe955d79db4dba8759cb98cff5e12f8fb8c8159681680", "blocktime": 1537873891, "version": 1, "confirmations": 11478, "time": 1537873891, "locktime": 0, "vsize": 283, "size": 283}