{"hash": "cfa6a223946de67f4afdacfce23237985309c4ba3fa5435a3450020b4446b545", "blockhash": "0000000000000000000dcc0f55137456b1a82d3642486a52398922ac4d620174", "vout": [{"scriptPubKey": {"reqSigs": 1, "hex": "76a9142d0db8cc7029678cb056a147645de0c1b39c790e88ac", "addresses": ["157Dr3ax49i3t9JdEF7EdgqBrng7Jaa9b2"], "asm": "OP_DUP OP_HASH160 2d0db8cc7029678cb056a147645de0c1b39c790e OP_EQUALVERIFY OP_CHECKSIG", "type": "pubkeyhash"}, "value": 0.00679065, "n": 0}, {"scriptPubKey": {"type": "nulldata", "hex": "6a146f6d6e69000000000000001f000000a2fb405800", "asm": "OP_RETURN 6f6d6e69000000000000001f000000a2fb405800"}, "value": 0.0, "n": 1}, {"scriptPubKey": {"reqSigs": 1, "hex": "76a914a25dec4d0011064ef106a983c39c7a540699f22088ac", "addresses": ["1FoWyxwPXuj4C6abqwhjDWdz6D4PZgYRjA"], "asm": "OP_DUP OP_HASH160 a25dec4d0011064ef106a983c39c7a540699f220 OP_EQUALVERIFY OP_CHECKSIG", "type": "pubkeyhash"}, "value": 5.46e-06, "n": 2}], "hex": "01000000037dd9821824bb1d152e6543647659abb54471310d8adc3bef2d8503d322d79fec010000006a47304402206a100fcc53d8e1a52e320c864c55ab251b30db9db77fdb15870b62d51e877a050220075495532965c1970c20ca331a98c04fcc3aca701919add13477cd907fb9bba80121024676c5bf32656f3ebb7565be1936656c4ca097ca8f3b901581efc148b448271afeffffff8504d25c286b1e149b25b1d628fe9e77b8c6bffc03e6a970a269d12726f6e4a8000000006a47304402206e5fa820e2e6bdca45353f4e53c71d7832ab552759579c74dcd1f7743baf7b8a0220661071ea9e412c320123aeea618db53a46caffa7c14f0255235e0011c8293a820121024676c5bf32656f3ebb7565be1936656c4ca097ca8f3b901581efc148b448271afeffffff71dcf792f2b2a4d8786cea1efcb5365e4add70ab532b85a562d8240595a7e9d7020000006a473044022070cf96c251e75cfb47ad410ae9bc7dddbf695358609867b05501093b2df6c9ac02203249d482033c0256dc7240518214dc345f5e4270733acc9bc1a7a425ffaa62d20121024676c5bf32656f3ebb7565be1936656c4ca097ca8f3b901581efc148b448271afeffffff03995c0a00000000001976a9142d0db8cc7029678cb056a147645de0c1b39c790e88ac0000000000000000166a146f6d6e69000000000000001f000000a2fb40580022020000000000001976a914a25dec4d0011064ef106a983c39c7a540699f22088ac0b490800", "vin": [{"sequence": 4294967294, "scriptSig": {"hex": "47304402206a100fcc53d8e1a52e320c864c55ab251b30db9db77fdb15870b62d51e877a050220075495532965c1970c20ca331a98c04fcc3aca701919add13477cd907fb9bba80121024676c5bf32656f3ebb7565be1936656c4ca097ca8f3b901581efc148b448271a", "asm": "304402206a100fcc53d8e1a52e320c864c55ab251b30db9db77fdb15870b62d51e877a050220075495532965c1970c20ca331a98c04fcc3aca701919add13477cd907fb9bba8[ALL] 024676c5bf32656f3ebb7565be1936656c4ca097ca8f3b901581efc148b448271a"}, "vout": 1, "txid": "ec9fd722d303852def3bdc8a0d317144b5ab59766443652e151dbb241882d97d"}, {"sequence": 4294967294, "scriptSig": {"hex": "47304402206e5fa820e2e6bdca45353f4e53c71d7832ab552759579c74dcd1f7743baf7b8a0220661071ea9e412c320123aeea618db53a46caffa7c14f0255235e0011c8293a820121024676c5bf32656f3ebb7565be1936656c4ca097ca8f3b901581efc148b448271a", "asm": "304402206e5fa820e2e6bdca45353f4e53c71d7832ab552759579c74dcd1f7743baf7b8a0220661071ea9e412c320123aeea618db53a46caffa7c14f0255235e0011c8293a82[ALL] 024676c5bf32656f3ebb7565be1936656c4ca097ca8f3b901581efc148b448271a"}, "vout": 0, "txid": "a8e4f62627d169a270a9e603fcbfc6b8779efe28d6b1259b141e6b285cd20485"}, {"sequence": 4294967294, "scriptSig": {"hex": "473044022070cf96c251e75cfb47ad410ae9bc7dddbf695358609867b05501093b2df6c9ac02203249d482033c0256dc7240518214dc345f5e4270733acc9bc1a7a425ffaa62d20121024676c5bf32656f3ebb7565be1936656c4ca097ca8f3b901581efc148b448271a", "asm": "3044022070cf96c251e75cfb47ad410ae9bc7dddbf695358609867b05501093b2df6c9ac02203249d482033c0256dc7240518214dc345f5e4270733acc9bc1a7a425ffaa62d2[ALL] 024676c5bf32656f3ebb7565be1936656c4ca097ca8f3b901581efc148b448271a"}, "vout": 2, "txid": "d7e9a7950524d862a5852b53ab70dd4a5e36b5fc1eea6c78d8a4b2f292f7dc71"}], "txid": "cfa6a223946de67f4afdacfce23237985309c4ba3fa5435a3450020b4446b545", "blocktime": 1537870268, "version": 1, "confirmations": 11518, "time": 1537870268, "locktime": 542987, "vsize": 550, "size": 550}