{"hash": "cfa78dac9b374291c5fce0ee3b43417f3a54407df55deb7ea1375fb4b9f49727", "blockhash": "0000000000000000000e13cef7c366c0283d82e591d1acd082e914b08063cdf1", "vout": [{"scriptPubKey": {"reqSigs": 1, "hex": "a9140ef93425f2ad74e8eae5a3de8e4a6cd404225e0e87", "addresses": ["334BvCvCyxiLhZtXhyuSjFrqWpstpxccBA"], "asm": "OP_HASH160 0ef93425f2ad74e8eae5a3de8e4a6cd404225e0e OP_EQUAL", "type": "scripthash"}, "value": 0.00400336, "n": 0}, {"scriptPubKey": {"reqSigs": 1, "hex": "76a914b572f6d0f1ab212c4efea93055e7c5f618fd545188ac", "addresses": ["1HYR2ZzSMwuD36t6jyK6mzwMYwzZc3rJCC"], "asm": "OP_DUP OP_HASH160 b572f6d0f1ab212c4efea93055e7c5f618fd5451 OP_EQUALVERIFY OP_CHECKSIG", "type": "pubkeyhash"}, "value": 0.04310478, "n": 1}], "hex": "0100000001a97c1bdc6943a7e552a42a094338ea238be9862aca47a7b288c820169c4666fe010000006b483045022100c1fd5bc4d654e8d891f42256f4b81292b2c1122dc488ba6f2f66ce0c2c87fe8a02203209d36936475126f1038b399877b19a7188b26f8ecc391ca074dbe0d68722f8012102f438868a45bbb028c95e7f3a5e50ac818061c5e917759259482f6869ce1f8068ffffffff02d01b06000000000017a9140ef93425f2ad74e8eae5a3de8e4a6cd404225e0e87cec54100000000001976a914b572f6d0f1ab212c4efea93055e7c5f618fd545188ac00000000", "vin": [{"sequence": 4294967295, "scriptSig": {"hex": "483045022100c1fd5bc4d654e8d891f42256f4b81292b2c1122dc488ba6f2f66ce0c2c87fe8a02203209d36936475126f1038b399877b19a7188b26f8ecc391ca074dbe0d68722f8012102f438868a45bbb028c95e7f3a5e50ac818061c5e917759259482f6869ce1f8068", "asm": "3045022100c1fd5bc4d654e8d891f42256f4b81292b2c1122dc488ba6f2f66ce0c2c87fe8a02203209d36936475126f1038b399877b19a7188b26f8ecc391ca074dbe0d68722f8[ALL] 02f438868a45bbb028c95e7f3a5e50ac818061c5e917759259482f6869ce1f8068"}, "vout": 1, "txid": "fe66469c1620c888b2a747ca2a86e98b23ea3843092aa452e5a74369dc1b7ca9"}], "txid": "cfa78dac9b374291c5fce0ee3b43417f3a54407df55deb7ea1375fb4b9f49727", "blocktime": 1537871767, "version": 1, "confirmations": 11493, "time": 1537871767, "locktime": 0, "vsize": 224, "size": 224}