{"hash": "cfa9d8960b0e38e68adc3ddd4b32f4194ab80fee22e92c3430467223fb593dbd", "blockhash": "00000000000000000024a2167bbff67b0be802c0b01cdd79e6331c2be6459f87", "vout": [{"scriptPubKey": {"reqSigs": 1, "hex": "76a9141645e5c77518688c50b6ca38e26322ddc7e1f24388ac", "addresses": ["132mbnksPcWZ57qyzmaBUrjRZUCx7GjZFT"], "asm": "OP_DUP OP_HASH160 1645e5c77518688c50b6ca38e26322ddc7e1f243 OP_EQUALVERIFY OP_CHECKSIG", "type": "pubkeyhash"}, "value": 0.00497, "n": 0}, {"scriptPubKey": {"reqSigs": 1, "hex": "76a9145e8629a1507062d91b004fdaecff0806b89dced388ac", "addresses": ["19coEpDqLGoTEtBsJjJ1etxGDF37PfBH72"], "asm": "OP_DUP OP_HASH160 5e8629a1507062d91b004fdaecff0806b89dced3 OP_EQUALVERIFY OP_CHECKSIG", "type": "pubkeyhash"}, "value": 0.09900032, "n": 1}], "hex": "01000000013176cf0a8b2fa1e14cbc5384d247e1ec75745e5f0ea1aef5edc6247befd85c7f010000006b483045022100ef0a7632bc95137720fa6c1b775f38bbbb31c8d6ca1e1df824e0086e9d8a92e80220067cd57faecc9f6059ab01e20b0165cf8c60af3c2ae14240c8d78a05d3b28d6b012102297a3328d2b82f66b820f146b69e804ef3c82bd83ea3a8a561f9936f7d1b5a02ffffffff0268950700000000001976a9141645e5c77518688c50b6ca38e26322ddc7e1f24388ac00109700000000001976a9145e8629a1507062d91b004fdaecff0806b89dced388ac00000000", "vin": [{"sequence": 4294967295, "scriptSig": {"hex": "483045022100ef0a7632bc95137720fa6c1b775f38bbbb31c8d6ca1e1df824e0086e9d8a92e80220067cd57faecc9f6059ab01e20b0165cf8c60af3c2ae14240c8d78a05d3b28d6b012102297a3328d2b82f66b820f146b69e804ef3c82bd83ea3a8a561f9936f7d1b5a02", "asm": "3045022100ef0a7632bc95137720fa6c1b775f38bbbb31c8d6ca1e1df824e0086e9d8a92e80220067cd57faecc9f6059ab01e20b0165cf8c60af3c2ae14240c8d78a05d3b28d6b[ALL] 02297a3328d2b82f66b820f146b69e804ef3c82bd83ea3a8a561f9936f7d1b5a02"}, "vout": 1, "txid": "7f5cd8ef7b24c6edf5aea10e5f5e7475ece147d28453bc4ce1a12f8b0acf7631"}], "txid": "cfa9d8960b0e38e68adc3ddd4b32f4194ab80fee22e92c3430467223fb593dbd", "blocktime": 1537870564, "version": 1, "confirmations": 11515, "time": 1537870564, "locktime": 0, "vsize": 226, "size": 226}