{"hash": "cfba5ce5c25cea63404147e43a166f0fb3831d7ddc6b0287ac5394925cd46faa", "blockhash": "00000000000000000004ffacab907a6b429b9a5745fa0b75af4234bf69dd7176", "vout": [{"scriptPubKey": {"reqSigs": 1, "hex": "76a91416d8192289f19c78ff6ae5db3eccb7da01b0fe7a88ac", "addresses": ["135njz9StK8W3qE7ve1QZyqCXvsv4tVKkv"], "asm": "OP_DUP OP_HASH160 16d8192289f19c78ff6ae5db3eccb7da01b0fe7a OP_EQUALVERIFY OP_CHECKSIG", "type": "pubkeyhash"}, "value": 0.00264994, "n": 0}, {"scriptPubKey": {"reqSigs": 1, "hex": "a914c318428ecf85b6de2a8c553a649dcdb169fac4eb87", "addresses": ["3KUakZh5QbDAptEt8aZaHXrZacaty41P69"], "asm": "OP_HASH160 c318428ecf85b6de2a8c553a649dcdb169fac4eb OP_EQUAL", "type": "scripthash"}, "value": 0.005, "n": 1}], "hex": "0100000002710d0f39f14ac39707480b84bd46ab36b7eb79c13b181dd3566e05124748fac3010000006b483045022100c73e4ef49630c02a3e05621077118366bcbf6889ef93506eb268c512b7c40e4002202896ea76cc7c76277d8cf2389e413e037b376da51f37a092ea4665490e628824012102585de5c4ccb54d81e57a1dabd53aa28a902b5ae8471709dbbee05bcd2814edadffffffff8497e1cdbb982f7c0fd8e16df64db1f0e950b5c0153668ecb9915e5ddeb29df2000000006b483045022100f2554d1899abe09caa2d9a0cd2bdc415a7bdd643504dfe1a6b31fd988f3a165002207f7075fdf01b421eb4baf9787aa0b90bb54be14e33bd212d62dceaaac9e4e0db012102585de5c4ccb54d81e57a1dabd53aa28a902b5ae8471709dbbee05bcd2814edadffffffff02220b0400000000001976a91416d8192289f19c78ff6ae5db3eccb7da01b0fe7a88ac20a107000000000017a914c318428ecf85b6de2a8c553a649dcdb169fac4eb8700000000", "vin": [{"sequence": 4294967295, "scriptSig": {"hex": "483045022100c73e4ef49630c02a3e05621077118366bcbf6889ef93506eb268c512b7c40e4002202896ea76cc7c76277d8cf2389e413e037b376da51f37a092ea4665490e628824012102585de5c4ccb54d81e57a1dabd53aa28a902b5ae8471709dbbee05bcd2814edad", "asm": "3045022100c73e4ef49630c02a3e05621077118366bcbf6889ef93506eb268c512b7c40e4002202896ea76cc7c76277d8cf2389e413e037b376da51f37a092ea4665490e628824[ALL] 02585de5c4ccb54d81e57a1dabd53aa28a902b5ae8471709dbbee05bcd2814edad"}, "vout": 1, "txid": "c3fa484712056e56d31d183bc179ebb736ab46bd840b480797c34af1390f0d71"}, {"sequence": 4294967295, "scriptSig": {"hex": "483045022100f2554d1899abe09caa2d9a0cd2bdc415a7bdd643504dfe1a6b31fd988f3a165002207f7075fdf01b421eb4baf9787aa0b90bb54be14e33bd212d62dceaaac9e4e0db012102585de5c4ccb54d81e57a1dabd53aa28a902b5ae8471709dbbee05bcd2814edad", "asm": "3045022100f2554d1899abe09caa2d9a0cd2bdc415a7bdd643504dfe1a6b31fd988f3a165002207f7075fdf01b421eb4baf9787aa0b90bb54be14e33bd212d62dceaaac9e4e0db[ALL] 02585de5c4ccb54d81e57a1dabd53aa28a902b5ae8471709dbbee05bcd2814edad"}, "vout": 0, "txid": "f29db2de5d5e91b9ec683615c0b550e9f0b14df66de1d80f7c2f98bbcde19784"}], "txid": "cfba5ce5c25cea63404147e43a166f0fb3831d7ddc6b0287ac5394925cd46faa", "blocktime": 1537875543, "version": 1, "confirmations": 11464, "time": 1537875543, "locktime": 0, "vsize": 372, "size": 372}