{"hash": "cfc218d09e2246f3a9b6db3dcc7db1fc804b6095d3418e9682ebc95d8771eede", "blockhash": "00000000000000000024a2167bbff67b0be802c0b01cdd79e6331c2be6459f87", "vout": [{"scriptPubKey": {"reqSigs": 1, "hex": "76a9140dcd6c5d402dab49979c690f67bc85d757025ec288ac", "addresses": ["12FysZBCfwKqs3d6B555qPXD3iXHT9z59o"], "asm": "OP_DUP OP_HASH160 0dcd6c5d402dab49979c690f67bc85d757025ec2 OP_EQUALVERIFY OP_CHECKSIG", "type": "pubkeyhash"}, "value": 0.02942202, "n": 0}, {"scriptPubKey": {"reqSigs": 1, "hex": "76a9146f8d81ac986bb0dcd7532ef84de5d55842c9977088ac", "addresses": ["1BAqXLiXud6vanK7C1YWuLsaAdedtF8QsS"], "asm": "OP_DUP OP_HASH160 6f8d81ac986bb0dcd7532ef84de5d55842c99770 OP_EQUALVERIFY OP_CHECKSIG", "type": "pubkeyhash"}, "value": 0.1015572, "n": 1}], "hex": "01000000017379fdb2f6a46e55f8c0d0c06f7b49b0c35d05f33157771e253c3692fa852efa010000006a47304402206ea38d6aa1e3b42c25cc0946fbe9bcb1ee53a8fdd38a5f23a9f66ee0a818ba2202207136fbc544cc2fc0089a9c14e033beeea25754397823f30a7acc1d08264b0e5f012103508e3b29833c1428d1ed7310b52c12ba6f9e44d68b8d4b178a49b40c6116d57effffffff02fae42c00000000001976a9140dcd6c5d402dab49979c690f67bc85d757025ec288acc8f69a00000000001976a9146f8d81ac986bb0dcd7532ef84de5d55842c9977088ac00000000", "vin": [{"sequence": 4294967295, "scriptSig": {"hex": "47304402206ea38d6aa1e3b42c25cc0946fbe9bcb1ee53a8fdd38a5f23a9f66ee0a818ba2202207136fbc544cc2fc0089a9c14e033beeea25754397823f30a7acc1d08264b0e5f012103508e3b29833c1428d1ed7310b52c12ba6f9e44d68b8d4b178a49b40c6116d57e", "asm": "304402206ea38d6aa1e3b42c25cc0946fbe9bcb1ee53a8fdd38a5f23a9f66ee0a818ba2202207136fbc544cc2fc0089a9c14e033beeea25754397823f30a7acc1d08264b0e5f[ALL] 03508e3b29833c1428d1ed7310b52c12ba6f9e44d68b8d4b178a49b40c6116d57e"}, "vout": 1, "txid": "fa2e85fa92363c251e775731f3055dc3b0497b6fc0d0c0f8556ea4f6b2fd7973"}], "txid": "cfc218d09e2246f3a9b6db3dcc7db1fc804b6095d3418e9682ebc95d8771eede", "blocktime": 1537870564, "version": 1, "confirmations": 11515, "time": 1537870564, "locktime": 0, "vsize": 225, "size": 225}