{"hash": "cfc7b373e931ebe45cad93ea893fdfd8c32480de89c17549c3a878017e858057", "blockhash": "0000000000000000000baef3f32e3676a92c3b2e5da21b426e4f302fc371ce76", "vout": [{"scriptPubKey": {"reqSigs": 1, "hex": "76a91441ba6b0ecdfc0a5383d120d37ba53fc65c0065b788ac", "addresses": ["16zYF2sNbENjAARVjCuTF7cMZKLQ6iNYXh"], "asm": "OP_DUP OP_HASH160 41ba6b0ecdfc0a5383d120d37ba53fc65c0065b7 OP_EQUALVERIFY OP_CHECKSIG", "type": "pubkeyhash"}, "value": 0.00098451, "n": 0}, {"scriptPubKey": {"reqSigs": 1, "hex": "76a914bb7c6039606314c255eccb241a904f4d72d1d2ab88ac", "addresses": ["1J6LMfFxWoe65nfda948VMgWF6VHJLjPcm"], "asm": "OP_DUP OP_HASH160 bb7c6039606314c255eccb241a904f4d72d1d2ab OP_EQUALVERIFY OP_CHECKSIG", "type": "pubkeyhash"}, "value": 0.01721347, "n": 1}], "hex": "01000000025c75650b3f83f6af488933caccd98f8a35d4cd5e15ce48d545716a18e4eccd69000000006a47304402206561a1d6317d31f1f78766188e37453d9f43bc112d58e9cac09548d0debf87fc0220659c7c0d973ad565b14e6a768cf8aac35876a145719442ddccb6529a323fb46501210384d237b4bf28cb3f692003c0c6e9b8ca447a80739dcb82f4f9a3583498ab2e61fdffffff693859dbaf3b3a9ae2925ca315818f200e5c0abdb99d40f0c74430cf71d27771000000006b4830450221009e15256924e533ae7917e876b5a2642ecaae086f0cd8065cbb657dfb6fafa24302206a6d95bb84bbdda62dde80b80bf315c51ba161d8fc6cde2da76708bb18104f7f0121038ada19c78fc61a68bfd088532adc31aff31a589dddb7b2610c68237b770f2665fdffffff0293800100000000001976a91441ba6b0ecdfc0a5383d120d37ba53fc65c0065b788ac03441a00000000001976a914bb7c6039606314c255eccb241a904f4d72d1d2ab88ac16490800", "vin": [{"sequence": 4294967293, "scriptSig": {"hex": "47304402206561a1d6317d31f1f78766188e37453d9f43bc112d58e9cac09548d0debf87fc0220659c7c0d973ad565b14e6a768cf8aac35876a145719442ddccb6529a323fb46501210384d237b4bf28cb3f692003c0c6e9b8ca447a80739dcb82f4f9a3583498ab2e61", "asm": "304402206561a1d6317d31f1f78766188e37453d9f43bc112d58e9cac09548d0debf87fc0220659c7c0d973ad565b14e6a768cf8aac35876a145719442ddccb6529a323fb465[ALL] 0384d237b4bf28cb3f692003c0c6e9b8ca447a80739dcb82f4f9a3583498ab2e61"}, "vout": 0, "txid": "69cdece4186a7145d548ce155ecdd4358a8fd9ccca338948aff6833f0b65755c"}, {"sequence": 4294967293, "scriptSig": {"hex": "4830450221009e15256924e533ae7917e876b5a2642ecaae086f0cd8065cbb657dfb6fafa24302206a6d95bb84bbdda62dde80b80bf315c51ba161d8fc6cde2da76708bb18104f7f0121038ada19c78fc61a68bfd088532adc31aff31a589dddb7b2610c68237b770f2665", "asm": "30450221009e15256924e533ae7917e876b5a2642ecaae086f0cd8065cbb657dfb6fafa24302206a6d95bb84bbdda62dde80b80bf315c51ba161d8fc6cde2da76708bb18104f7f[ALL] 038ada19c78fc61a68bfd088532adc31aff31a589dddb7b2610c68237b770f2665"}, "vout": 0, "txid": "7177d271cf3044c7f0409db9bd0a5c0e208f8115a35c92e29a3a3bafdb593869"}], "txid": "cfc7b373e931ebe45cad93ea893fdfd8c32480de89c17549c3a878017e858057", "blocktime": 1537876114, "version": 1, "confirmations": 11460, "time": 1537876114, "locktime": 542998, "vsize": 373, "size": 373}