{"hash": "cfcc6aac32f228a33c70d41832a91c2e82db98462badf90e03813ba4e728b26e", "blockhash": "0000000000000000001e0dab787dd257d1dbfcb92a98c2207d5e1078be1f4165", "vout": [{"scriptPubKey": {"reqSigs": 1, "hex": "76a914ca01f2cacf4ae52eb9e5e8f8bd376df48c2ba46188ac", "addresses": ["1KR7q8PjA9dDu41AYammaiw8BGrnZUiUy5"], "asm": "OP_DUP OP_HASH160 ca01f2cacf4ae52eb9e5e8f8bd376df48c2ba461 OP_EQUALVERIFY OP_CHECKSIG", "type": "pubkeyhash"}, "value": 0.00038578, "n": 0}, {"scriptPubKey": {"reqSigs": 1, "hex": "a91400610d44053abea5dfe0d361a218136393b2675c87", "addresses": ["31j2BpehFd4tzcveZ4eHHYTptFLtmMDVKg"], "asm": "OP_HASH160 00610d44053abea5dfe0d361a218136393b2675c OP_EQUAL", "type": "scripthash"}, "value": 0.07148192, "n": 1}], "hex": "01000000019f7594461b66738c6e2c3847f4777d3b4044787ac6ef85d3a2e1b154fa152ffd000000006b483045022100fd411b0e83501466cb6943c95b7eb58d27d74bfd138acc89183980ebf2d3341c022011b6241d1724da392454b81efaf341c9899d79d8381e3b5883e021dbd568258d012102fee0d05297676105fa1b42888721a4eb65d5cf2fa621177b4071f6aa0bc61db6ffffffff02b2960000000000001976a914ca01f2cacf4ae52eb9e5e8f8bd376df48c2ba46188aca0126d000000000017a91400610d44053abea5dfe0d361a218136393b2675c8700000000", "vin": [{"sequence": 4294967295, "scriptSig": {"hex": "483045022100fd411b0e83501466cb6943c95b7eb58d27d74bfd138acc89183980ebf2d3341c022011b6241d1724da392454b81efaf341c9899d79d8381e3b5883e021dbd568258d012102fee0d05297676105fa1b42888721a4eb65d5cf2fa621177b4071f6aa0bc61db6", "asm": "3045022100fd411b0e83501466cb6943c95b7eb58d27d74bfd138acc89183980ebf2d3341c022011b6241d1724da392454b81efaf341c9899d79d8381e3b5883e021dbd568258d[ALL] 02fee0d05297676105fa1b42888721a4eb65d5cf2fa621177b4071f6aa0bc61db6"}, "vout": 0, "txid": "fd2f15fa54b1e1a2d385efc67a7844403b7d77f447382c6e8c73661b4694759f"}], "txid": "cfcc6aac32f228a33c70d41832a91c2e82db98462badf90e03813ba4e728b26e", "blocktime": 1537872475, "version": 1, "confirmations": 11486, "time": 1537872475, "locktime": 0, "vsize": 224, "size": 224}