{"hash": "e886ff1c7ae55bd886cff271ea2e8afcee2c759d2a32f96cdbebbf60dbcd6ce2", "blockhash": "0000000000000000001cda96e906b7601b7a6fb1a3b62bca570a9e5d8f4b3de1", "vout": [{"scriptPubKey": {"reqSigs": 1, "hex": "a914cc49bbb59a2c1260808782b6f5840eaa5d52579f87", "addresses": ["3LKC6kba9WCmy6xNVYXoHE6SFxKCkA7p7M"], "asm": "OP_HASH160 cc49bbb59a2c1260808782b6f5840eaa5d52579f OP_EQUAL", "type": "scripthash"}, "value": 0.89999736, "n": 0}, {"scriptPubKey": {"reqSigs": 1, "hex": "a91442d3edb7ab9a473a8f1a52700700b5351fcd29ad87", "addresses": ["37nNQG5J6f7j37vUPCLb346GLRFaMkB81d"], "asm": "OP_HASH160 42d3edb7ab9a473a8f1a52700700b5351fcd29ad OP_EQUAL", "type": "scripthash"}, "value": 0.051, "n": 1}], "hex": "010000000001019447f6bbf11142e5f739d9feabce95e3a2b7b0a5305ea4643615dea7703104fe0100000017160014c9da21d67aa88f3855b68b5774ecfa3532d9c567ffffffff0278495d050000000017a914cc49bbb59a2c1260808782b6f5840eaa5d52579f87e0d14d000000000017a91442d3edb7ab9a473a8f1a52700700b5351fcd29ad870247304402200f40c740d7474377c25b2dfc3bd0efe429c39f7e213b0efcd1037367dc6344a40220079656ec4b09346ea6fdb0757731fe0e1dd06048ed36880a6e48216dd44465490121028b6ee825ff827502a88305c9b83025945e80bb86fb888a68c0d986307902082900000000", "vin": [{"txinwitness": ["304402200f40c740d7474377c25b2dfc3bd0efe429c39f7e213b0efcd1037367dc6344a40220079656ec4b09346ea6fdb0757731fe0e1dd06048ed36880a6e48216dd444654901", "028b6ee825ff827502a88305c9b83025945e80bb86fb888a68c0d9863079020829"], "sequence": 4294967295, "scriptSig": {"hex": "160014c9da21d67aa88f3855b68b5774ecfa3532d9c567", "asm": "0014c9da21d67aa88f3855b68b5774ecfa3532d9c567"}, "vout": 1, "txid": "fe043170a7de153664a45e30a5b0b7a2e395ceabfed939f7e54211f1bbf64794"}], "txid": "cfcf1843160e6ff32f6166f0600a48f5b94e283942e92d976db27736a1fb6f31", "blocktime": 1537873282, "version": 1, "confirmations": 11485, "time": 1537873282, "locktime": 0, "vsize": 166, "size": 247}