{"hash": "cfd268fc484b3de84c99ff3a486aa04e4e0bff5cf8c090d4b8afa34dfd3d2250", "blockhash": "00000000000000000018f53835495a110e01622372bf6ae95dc86f2b0ab887b0", "vout": [{"scriptPubKey": {"reqSigs": 1, "hex": "a9144e91ce3c8259b58cea0da471a139471a24e1706687", "addresses": ["38rTJFv4SwwQ78pt6wieoc3z6NNwCZHNuX"], "asm": "OP_HASH160 4e91ce3c8259b58cea0da471a139471a24e17066 OP_EQUAL", "type": "scripthash"}, "value": 0.00050213, "n": 0}, {"scriptPubKey": {"reqSigs": 1, "hex": "76a914b68aba44dda31f113aad994da37668841a793b4b88ac", "addresses": ["1HeCAsrC1t5uYxdRCvioMoXQJufRFmsMRa"], "asm": "OP_DUP OP_HASH160 b68aba44dda31f113aad994da37668841a793b4b OP_EQUALVERIFY OP_CHECKSIG", "type": "pubkeyhash"}, "value": 0.02287274, "n": 1}], "hex": "01000000010d446e4745c361762051270ddfc3d5f4d8d016d42faeab82019797eeea8db3b7010000006a47304402205af349f6248420abf70a48447b05b907546c0e0739b79f9950c2e6a0c7ce14400220118380baa84fecd8359164b08012d9211e4cb6dbc1765b445b74e6926166104e0121022b94536cc7d1e290f4976e19b5c08226216bd46f3c5fd18eaa176473752d97efffffffff0225c400000000000017a9144e91ce3c8259b58cea0da471a139471a24e1706687aae62200000000001976a914b68aba44dda31f113aad994da37668841a793b4b88ac00000000", "vin": [{"sequence": 4294967295, "scriptSig": {"hex": "47304402205af349f6248420abf70a48447b05b907546c0e0739b79f9950c2e6a0c7ce14400220118380baa84fecd8359164b08012d9211e4cb6dbc1765b445b74e6926166104e0121022b94536cc7d1e290f4976e19b5c08226216bd46f3c5fd18eaa176473752d97ef", "asm": "304402205af349f6248420abf70a48447b05b907546c0e0739b79f9950c2e6a0c7ce14400220118380baa84fecd8359164b08012d9211e4cb6dbc1765b445b74e6926166104e[ALL] 022b94536cc7d1e290f4976e19b5c08226216bd46f3c5fd18eaa176473752d97ef"}, "vout": 1, "txid": "b7b38deaee97970182abae2fd416d0d8f4d5c3df0d2751207661c345476e440d"}], "txid": "cfd268fc484b3de84c99ff3a486aa04e4e0bff5cf8c090d4b8afa34dfd3d2250", "blocktime": 1537870928, "version": 1, "confirmations": 11514, "time": 1537870928, "locktime": 0, "vsize": 223, "size": 223}