{"hash": "cfd35996af000318c6e507ea0cf640537d50679586cbbd0a93a6d860fdf1e8f4", "blockhash": "000000000000000000022b45ed06c6f4ccd3cf7fb5ba4856ebd2e58215665228", "vout": [{"scriptPubKey": {"type": "nulldata", "hex": "6a4c5000007766000164a4edbeb4bc70a9238af0a086aeaeacb577c031fc3a016b46dc7dc7d096cd221468efcb3c4bbb0087076dd5c5575baa08190612ee9c036319664bbf23acfcfaac8058b692fe6808c31d", "asm": "OP_RETURN 00007766000164a4edbeb4bc70a9238af0a086aeaeacb577c031fc3a016b46dc7dc7d096cd221468efcb3c4bbb0087076dd5c5575baa08190612ee9c036319664bbf23acfcfaac8058b692fe6808c31d"}, "value": 0.0, "n": 0}, {"scriptPubKey": {"reqSigs": 1, "hex": "76a91442216de1b8d2f0d8087844fa0ea5b6beb9a8d6d688ac", "addresses": ["172feN7t9xtqqJhnTpSmUDY9pdd54xtjot"], "asm": "OP_DUP OP_HASH160 42216de1b8d2f0d8087844fa0ea5b6beb9a8d6d6 OP_EQUALVERIFY OP_CHECKSIG", "type": "pubkeyhash"}, "value": 0.00031575, "n": 1}], "hex": "010000000111e29369227d0b1dc2fe27f5c9acc9d38ce19f5084c8293418ff89c60ad059f3000000006b483045022100b21765c5197bcc8b545e9b7093f0cbfc0165f62f85323be000d317272d8c6ad50220280bbce2a3fb9a5c4a02d80f7dd9cf515f9b2c5e717e3d6da4c03d487b10d4d10121026e7a8be33e9f2408ca2b27f4db84f0e4109234d42a3cf5152fe91fec161d24fcffffffff020000000000000000536a4c5000007766000164a4edbeb4bc70a9238af0a086aeaeacb577c031fc3a016b46dc7dc7d096cd221468efcb3c4bbb0087076dd5c5575baa08190612ee9c036319664bbf23acfcfaac8058b692fe6808c31d577b0000000000001976a91442216de1b8d2f0d8087844fa0ea5b6beb9a8d6d688ac00000000", "vin": [{"sequence": 4294967295, "scriptSig": {"hex": "483045022100b21765c5197bcc8b545e9b7093f0cbfc0165f62f85323be000d317272d8c6ad50220280bbce2a3fb9a5c4a02d80f7dd9cf515f9b2c5e717e3d6da4c03d487b10d4d10121026e7a8be33e9f2408ca2b27f4db84f0e4109234d42a3cf5152fe91fec161d24fc", "asm": "3045022100b21765c5197bcc8b545e9b7093f0cbfc0165f62f85323be000d317272d8c6ad50220280bbce2a3fb9a5c4a02d80f7dd9cf515f9b2c5e717e3d6da4c03d487b10d4d1[ALL] 026e7a8be33e9f2408ca2b27f4db84f0e4109234d42a3cf5152fe91fec161d24fc"}, "vout": 0, "txid": "f359d00ac689ff183429c884509fe18cd3c9acc9f527fec21d0b7d226993e211"}], "txid": "cfd35996af000318c6e507ea0cf640537d50679586cbbd0a93a6d860fdf1e8f4", "blocktime": 1537869901, "version": 1, "confirmations": 11523, "time": 1537869901, "locktime": 0, "vsize": 284, "size": 284}