{"hash": "a72e407069c3f55591dfd9d09d6a217f745dfab46b0f44d6c5a15c8b8f4162df", "blockhash": "0000000000000000000e13cef7c366c0283d82e591d1acd082e914b08063cdf1", "vout": [{"scriptPubKey": {"reqSigs": 1, "hex": "76a9145dc6f446d2c41dca496319992cb99c15d699fc8788ac", "addresses": ["19YrBRQWr56Ffa9dNKCCSdzDNBTrRgckhC"], "asm": "OP_DUP OP_HASH160 5dc6f446d2c41dca496319992cb99c15d699fc87 OP_EQUALVERIFY OP_CHECKSIG", "type": "pubkeyhash"}, "value": 0.00276426, "n": 0}, {"scriptPubKey": {"reqSigs": 1, "hex": "76a91479acc77455c02e51beba89efb54f3457829afdfd88ac", "addresses": ["1C6Mk7gGRyh1iGHwPYBYrMSSSvy3VM6rLv"], "asm": "OP_DUP OP_HASH160 79acc77455c02e51beba89efb54f3457829afdfd OP_EQUALVERIFY OP_CHECKSIG", "type": "pubkeyhash"}, "value": 0.00276398, "n": 1}, {"scriptPubKey": {"reqSigs": 1, "hex": "a914779609cb42284d57ecdd93b0b175896dea3d264687", "addresses": ["3CbL5DH38ZQ8sES8sc6rVw7JvdAEJQpSD1"], "asm": "OP_HASH160 779609cb42284d57ecdd93b0b175896dea3d2646 OP_EQUAL", "type": "scripthash"}, "value": 0.12261023, "n": 2}, {"scriptPubKey": {"reqSigs": 1, "hex": "a91412311450e4165cd6310e34d20450e787f822531887", "addresses": ["33MCt6CFcGQwzRjQi2xYRwrc64eNcznP7D"], "asm": "OP_HASH160 12311450e4165cd6310e34d20450e787f8225318 OP_EQUAL", "type": "scripthash"}, "value": 0.0015, "n": 3}, {"scriptPubKey": {"reqSigs": 1, "hex": "a9142f0838249e1c0b0c1eac7819caa5eba7b881b5cd87", "addresses": ["35yhXeVzfHir4tmf7Lq3Vn5Vfa1unrqqsP"], "asm": "OP_HASH160 2f0838249e1c0b0c1eac7819caa5eba7b881b5cd OP_EQUAL", "type": "scripthash"}, "value": 0.00283663, "n": 4}, {"scriptPubKey": {"reqSigs": 1, "hex": "76a9147aacdadb8e4d97f9f573a9af1779014f3396babb88ac", "addresses": ["1CBeWaFEE19BDkEBYvGbaGNsu1wY7Kis4o"], "asm": "OP_DUP OP_HASH160 7aacdadb8e4d97f9f573a9af1779014f3396babb OP_EQUALVERIFY OP_CHECKSIG", "type": "pubkeyhash"}, "value": 0.002, "n": 5}, {"scriptPubKey": {"reqSigs": 1, "hex": "a9143cb2e611627771d578ed18924fd3bbbc388580fc87", "addresses": ["37Dxn9rAMMRzWifZqRyQguHUETsyx2XctL"], "asm": "OP_HASH160 3cb2e611627771d578ed18924fd3bbbc388580fc OP_EQUAL", "type": "scripthash"}, "value": 0.0425, "n": 6}, {"scriptPubKey": {"reqSigs": 1, "hex": "76a9147d988d89514faf3216f274fab6ad616a32249fde88ac", "addresses": ["1CT6DYEUToQqh6YhSCnCqh81gzKtiwRZQs"], "asm": "OP_DUP OP_HASH160 7d988d89514faf3216f274fab6ad616a32249fde OP_EQUALVERIFY OP_CHECKSIG", "type": "pubkeyhash"}, "value": 0.00138, "n": 7}, {"scriptPubKey": {"reqSigs": 1, "hex": "76a9146accba107ec2e4013020c6f03dcb45e699d9b4f688ac", "addresses": ["1Ajht19F2f9degSNr9wAxzBTXvSYm84afD"], "asm": "OP_DUP OP_HASH160 6accba107ec2e4013020c6f03dcb45e699d9b4f6 OP_EQUALVERIFY OP_CHECKSIG", "type": "pubkeyhash"}, "value": 0.01418026, "n": 8}, {"scriptPubKey": {"reqSigs": 1, "hex": "76a914275d652ea4cce6bf1c61281d6b70a182a5bd8eaa88ac", "addresses": ["14b9EhQUGHwhApda8EXucDhxEQoAXYGHab"], "asm": "OP_DUP OP_HASH160 275d652ea4cce6bf1c61281d6b70a182a5bd8eaa OP_EQUALVERIFY OP_CHECKSIG", "type": "pubkeyhash"}, "value": 0.0002, "n": 9}, {"scriptPubKey": {"reqSigs": 1, "hex": "a91437c8e2a47e29a72e589b36b653068df006e121ee87", "addresses": ["36myjrL7rPGm5bYXyHkDyeH8xmGoBSajEN"], "asm": "OP_HASH160 37c8e2a47e29a72e589b36b653068df006e121ee OP_EQUAL", "type": "scripthash"}, "value": 0.00015208, "n": 10}], "hex": "01000000000101e23ecf4fd421e752e1484426f900d0009f5462ef63e0eecc9bb407236cc38e000000000023220020ecc13ec087adc991b6d4debb276ed154b975c326d98ed27289e9c24b9a2b0b95ffffffff0bca370400000000001976a9145dc6f446d2c41dca496319992cb99c15d699fc8788acae370400000000001976a91479acc77455c02e51beba89efb54f3457829afdfd88ac9f16bb000000000017a914779609cb42284d57ecdd93b0b175896dea3d264687f04902000000000017a91412311450e4165cd6310e34d20450e787f8225318870f5404000000000017a9142f0838249e1c0b0c1eac7819caa5eba7b881b5cd87400d0300000000001976a9147aacdadb8e4d97f9f573a9af1779014f3396babb88ac90d940000000000017a9143cb2e611627771d578ed18924fd3bbbc388580fc87101b0200000000001976a9147d988d89514faf3216f274fab6ad616a32249fde88ac2aa31500000000001976a9146accba107ec2e4013020c6f03dcb45e699d9b4f688ac204e0000000000001976a914275d652ea4cce6bf1c61281d6b70a182a5bd8eaa88ac683b00000000000017a91437c8e2a47e29a72e589b36b653068df006e121ee87040047304402205b21a61fe426168f5a346bd02cb7752ba6593e8fc9a90abd738fa36c569cadee02204ddb79f180b48f4b9b14f04ca59e7b60aa24a49d96a40864f212af1a5a4d4bf301483045022100f9304a3d9fcae43b7273e09c471ad91409db04fdebdb162f05111cb9caa555770220722c19450884ac5bc9e83f82debffbf30986d19b0b489d596b3d6279258cd6e70169522102cb6db2ef16ee2013169e0578f929a64f2e02b0c209d729520886a2f0c177b6362102dfc5399ab36cf33ccd174a01c6650f219e08d32412d1a33519503cdf30d7cc402103c3bb1cca0e05142d78df0429a4fd8b2ff4e1060583b8948f53a28865bee845d053ae00000000", "vin": [{"txinwitness": ["", "304402205b21a61fe426168f5a346bd02cb7752ba6593e8fc9a90abd738fa36c569cadee02204ddb79f180b48f4b9b14f04ca59e7b60aa24a49d96a40864f212af1a5a4d4bf301", "3045022100f9304a3d9fcae43b7273e09c471ad91409db04fdebdb162f05111cb9caa555770220722c19450884ac5bc9e83f82debffbf30986d19b0b489d596b3d6279258cd6e701", "522102cb6db2ef16ee2013169e0578f929a64f2e02b0c209d729520886a2f0c177b6362102dfc5399ab36cf33ccd174a01c6650f219e08d32412d1a33519503cdf30d7cc402103c3bb1cca0e05142d78df0429a4fd8b2ff4e1060583b8948f53a28865bee845d053ae"], "sequence": 4294967295, "scriptSig": {"hex": "220020ecc13ec087adc991b6d4debb276ed154b975c326d98ed27289e9c24b9a2b0b95", "asm": "0020ecc13ec087adc991b6d4debb276ed154b975c326d98ed27289e9c24b9a2b0b95"}, "vout": 0, "txid": "008ec36c2307b49bcceee063ef62549f00d000f9264448e152e721d44fcf3ee2"}], "txid": "cfd7f75c8ddd4b2a73fdb89f215ab697a98f7041129a123b828f0fbe00fac560", "blocktime": 1537871767, "version": 1, "confirmations": 11495, "time": 1537871767, "locktime": 0, "vsize": 514, "size": 705}