{"hash": "95c64226f2e20d3d9fc275a6e0994d9163e0449efe8c3f5ad04353f186f7604a", "blockhash": "0000000000000000001f76057863aec43deb6fa401d9628bb513d65a8098bfab", "vout": [{"scriptPubKey": {"type": "nulldata", "hex": "6a146f6d6e69000000000000001f0000001c174ce680", "asm": "OP_RETURN 6f6d6e69000000000000001f0000001c174ce680"}, "value": 0.0, "n": 0}, {"scriptPubKey": {"reqSigs": 1, "hex": "76a914cba581f403685177546cbb869b27b58cefcfabe388ac", "addresses": ["1KZnSca5m2AEtvYcyXvN3S3wfFJpuhdQLD"], "asm": "OP_DUP OP_HASH160 cba581f403685177546cbb869b27b58cefcfabe3 OP_EQUALVERIFY OP_CHECKSIG", "type": "pubkeyhash"}, "value": 2.73e-05, "n": 1}, {"scriptPubKey": {"reqSigs": 1, "hex": "a914e818e90b8e6b38dba66f74b35cb708bbc73e2ea787", "addresses": ["3NrEXrB9qAxXYfRt6jKtBD8QzoU2qtNWDR"], "asm": "OP_HASH160 e818e90b8e6b38dba66f74b35cb708bbc73e2ea7 OP_EQUAL", "type": "scripthash"}, "value": 198.20233903, "n": 2}], "hex": "01000000000102f7e669aba4048916c66f05f20f76a1d7b8779c5bc1e51ae608d710a18061e6d70100000017160014000b814f2c1a19852357ed615a08ec572a781ed1ffffffff1947c38f7973193152badd9a3fbad6297e65f57309f682490146e53e6f0dc49e0500000017160014860020a29e288c6a82a6b3f5adc0a711368d6e95ffffffff030000000000000000166a146f6d6e69000000000000001f0000001c174ce680aa0a0000000000001976a914cba581f403685177546cbb869b27b58cefcfabe388acafc4609d0400000017a914e818e90b8e6b38dba66f74b35cb708bbc73e2ea78702473044022063606f13e0336d83355c7389310911c0b3ce88238b7253be28c1eaeba8acf4d1022057b30e6c835c3637b05a80038051e1f1d7eeacbf661adb0d05fdb02b7d535d12012102aad79950b2c2af3689e8644c89e9d10dff06c2d8926200496b92e9f7ccb0304c0247304402202dfe4c1efabbd8461c5523d5b72cb03fc8f8e80dbea7e080f193595b2ed8720f02206d3b001882fdae8dffbe32e64f579ebfd4bd56143a3323e9955663fc40d943f20121020086b3f7e4e4f9c6b816e6953a520532beb6870d0d5cf1c09acc74a0a42dd9ae00000000", "vin": [{"txinwitness": ["3044022063606f13e0336d83355c7389310911c0b3ce88238b7253be28c1eaeba8acf4d1022057b30e6c835c3637b05a80038051e1f1d7eeacbf661adb0d05fdb02b7d535d1201", "02aad79950b2c2af3689e8644c89e9d10dff06c2d8926200496b92e9f7ccb0304c"], "sequence": 4294967295, "scriptSig": {"hex": "160014000b814f2c1a19852357ed615a08ec572a781ed1", "asm": "0014000b814f2c1a19852357ed615a08ec572a781ed1"}, "vout": 1, "txid": "d7e66180a110d708e61ae5c15b9c77b8d7a1760ff2056fc6168904a4ab69e6f7"}, {"txinwitness": ["304402202dfe4c1efabbd8461c5523d5b72cb03fc8f8e80dbea7e080f193595b2ed8720f02206d3b001882fdae8dffbe32e64f579ebfd4bd56143a3323e9955663fc40d943f201", "020086b3f7e4e4f9c6b816e6953a520532beb6870d0d5cf1c09acc74a0a42dd9ae"], "sequence": 4294967295, "scriptSig": {"hex": "160014860020a29e288c6a82a6b3f5adc0a711368d6e95", "asm": "0014860020a29e288c6a82a6b3f5adc0a711368d6e95"}, "vout": 5, "txid": "9ec40d6f3ee546014982f60973f5657e29d6ba3f9addba52311973798fc34719"}], "txid": "cfd96c89203251307dcee58fd2bdffcb59af9d363251f6be859841b710cc089f", "blocktime": 1537873891, "version": 1, "confirmations": 11477, "time": 1537873891, "locktime": 0, "vsize": 289, "size": 451}