{"hash": "cfda38a3fad7d03e57220465c2b0df28ef9e92058e7ab08c2a62e4182026a185", "blockhash": "0000000000000000000e13cef7c366c0283d82e591d1acd082e914b08063cdf1", "vout": [{"scriptPubKey": {"reqSigs": 1, "hex": "76a9142165d396196da12c0c786765fbd790341b1e105b88ac", "addresses": ["143bHMu1dcdZmMCnt8UkP7yXRa1P8AfFGK"], "asm": "OP_DUP OP_HASH160 2165d396196da12c0c786765fbd790341b1e105b OP_EQUALVERIFY OP_CHECKSIG", "type": "pubkeyhash"}, "value": 0.00784143, "n": 0}, {"scriptPubKey": {"reqSigs": 1, "hex": "a9147e1f485e11e81f93eb3609d73ba9492c785cc39187", "addresses": ["3DBtYGpDVn9cBsZurM787969VPFeFwkjML"], "asm": "OP_HASH160 7e1f485e11e81f93eb3609d73ba9492c785cc391 OP_EQUAL", "type": "scripthash"}, "value": 0.01560659, "n": 1}], "hex": "0100000001579dc2e12264d1d3020c3bfd991381cdb40597c496992493e0671dbde0e5f940010000006a473044022041defe52e4ce59069d8ff0a4e1ddb7992a448ed098210fd7eb0014b7e489d27b02203d870595808c8767034b070dfba38a517995df4410e098575524cc51811515eb012102e45f1108064e0ba93b35912931608d40b90cd9cf098a811372454153c78cdc44ffffffff020ff70b00000000001976a9142165d396196da12c0c786765fbd790341b1e105b88ac53d017000000000017a9147e1f485e11e81f93eb3609d73ba9492c785cc3918700000000", "vin": [{"sequence": 4294967295, "scriptSig": {"hex": "473044022041defe52e4ce59069d8ff0a4e1ddb7992a448ed098210fd7eb0014b7e489d27b02203d870595808c8767034b070dfba38a517995df4410e098575524cc51811515eb012102e45f1108064e0ba93b35912931608d40b90cd9cf098a811372454153c78cdc44", "asm": "3044022041defe52e4ce59069d8ff0a4e1ddb7992a448ed098210fd7eb0014b7e489d27b02203d870595808c8767034b070dfba38a517995df4410e098575524cc51811515eb[ALL] 02e45f1108064e0ba93b35912931608d40b90cd9cf098a811372454153c78cdc44"}, "vout": 1, "txid": "40f9e5e0bd1d67e093249996c49705b4cd811399fd3b0c02d3d16422e1c29d57"}], "txid": "cfda38a3fad7d03e57220465c2b0df28ef9e92058e7ab08c2a62e4182026a185", "blocktime": 1537871767, "version": 1, "confirmations": 11493, "time": 1537871767, "locktime": 0, "vsize": 223, "size": 223}