{"hash": "fc7f9a7a869a8115bdbd7f4890ed9303be82f327629d1776cde3ed8cc61ed87d", "blockhash": "0000000000000000000dcc0f55137456b1a82d3642486a52398922ac4d620174", "vout": [{"scriptPubKey": {"reqSigs": 1, "hex": "a9145269d26482bdfbf58516a75ec7eaaba4182c56a587", "addresses": ["39Cn6uRPyTc8epwbWWyDP64MAJRg8vjLJz"], "asm": "OP_HASH160 5269d26482bdfbf58516a75ec7eaaba4182c56a5 OP_EQUAL", "type": "scripthash"}, "value": 0.047036, "n": 0}, {"scriptPubKey": {"reqSigs": 1, "hex": "001430bd01ed2384e3e48b827e9fdf705ea19ebfaf96", "addresses": ["bc1qxz7srmfrsn37fzuz060a7uz75x0tltukq2ytj3"], "asm": "0 30bd01ed2384e3e48b827e9fdf705ea19ebfaf96", "type": "witness_v0_keyhash"}, "value": 0.01549093, "n": 1}], "hex": "0100000000010115211708370b40532a9c07346f15ff6c8fcb2b3b32dc68ed28b3560d08027688000000001716001474e46d2be7c02e5bcacd82a2aedfe8887fd01522ffffffff0270c547000000000017a9145269d26482bdfbf58516a75ec7eaaba4182c56a58725a317000000000016001430bd01ed2384e3e48b827e9fdf705ea19ebfaf96024730440220537777bfb53fae4968798c0da3647edb9e87b9b91d65f975fa4285d7b8beb73002206859ddf59cd985056a342cd33510535283c2bd941b1c0a17da3879a27834372f0121028c2c43f88ba0c1efdeed7e8687f4a92f156e3b853fbb32819b50df4c8b61e41000000000", "vin": [{"txinwitness": ["30440220537777bfb53fae4968798c0da3647edb9e87b9b91d65f975fa4285d7b8beb73002206859ddf59cd985056a342cd33510535283c2bd941b1c0a17da3879a27834372f01", "028c2c43f88ba0c1efdeed7e8687f4a92f156e3b853fbb32819b50df4c8b61e410"], "sequence": 4294967295, "scriptSig": {"hex": "16001474e46d2be7c02e5bcacd82a2aedfe8887fd01522", "asm": "001474e46d2be7c02e5bcacd82a2aedfe8887fd01522"}, "vout": 0, "txid": "887602080d56b328ed68dc323b2bcb8f6cff156f34079c2a53400b3708172115"}], "txid": "cfe002d5372b6498151704e55d97c32e95360085de2d40740859bd7043ab7f87", "blocktime": 1537870268, "version": 1, "confirmations": 11518, "time": 1537870268, "locktime": 0, "vsize": 165, "size": 246}