{"hash": "234b4eea98d6f605ec53957a47fe7a5bfa9cf6f876124526635c7a4459ac131e", "blockhash": "0000000000000000000dcc0f55137456b1a82d3642486a52398922ac4d620174", "vout": [{"scriptPubKey": {"reqSigs": 1, "hex": "76a914daf888a539eb9ab9657b0ee4858cb08ed5058fc988ac", "addresses": ["1Lxp3FPuGqDcpF6gD444g1vGQS8K6PqU4a"], "asm": "OP_DUP OP_HASH160 daf888a539eb9ab9657b0ee4858cb08ed5058fc9 OP_EQUALVERIFY OP_CHECKSIG", "type": "pubkeyhash"}, "value": 0.02339856, "n": 0}, {"scriptPubKey": {"reqSigs": 1, "hex": "a9144e5254ba2c7e363dda6dba89bf92111afcd0bf8687", "addresses": ["38q9FxmV1DeSBqVHiYbrihA6sRw8b5x582"], "asm": "OP_HASH160 4e5254ba2c7e363dda6dba89bf92111afcd0bf86 OP_EQUAL", "type": "scripthash"}, "value": 0.12695476, "n": 1}], "hex": "01000000000102c3ee1b9eaf39967b44ac3d494d9db06fcfa0b3986849faaddb01fa742991b81800000000fdfd0000483045022100dc197e315cb6bf23e906587783b65fa82e37aee5c02d1b534031d77d4f67faa6022020095d66a9c4fcda0d9e80f95b214b0775386ad8b069d25057d2c74b16a31bc501473044022009372a798459e518eccdc7baa33444dbe0c81ee59a3d2dd8578a9f948df27524022068ea927cb4d95cc0af6c748d9e1f34a2d7c923c5475b7510093ef271134ff97d014c69522103ffbaa8024bbc1f5b01967336cf3f91e4681568e7f0ec63a2d6591b47b6d97302210289debc43571d07c0ea3d3f1d3d9bb5785763d9653edc9e8c2cc45114e6cd26f22102fadc2a54dc83aaf7b3436bb1256ca5124a2913540d7eb1034f2bf49b9da84a5253aeffffffffe139c13fe7a1b88e27eee43392a2d10812fc0ec06e893ceb8c1726341329d35600000000232200209c1209e8c721aeaf1634d556baba7caef5dee870af300699a19e5eba24056f56ffffffff0210b42300000000001976a914daf888a539eb9ab9657b0ee4858cb08ed5058fc988acb4b7c1000000000017a9144e5254ba2c7e363dda6dba89bf92111afcd0bf868700040047304402203c8ce951223a7c54b6571958cf227830221906af492d9cd2d919402cfbbe8c32022051c860533341190db4de69d4e5402fa97ba9ab2fbd127b41deddf253a7b4790e01483045022100e49d30c1e5a9284778b41aa58d9aee747719a6061b7307e18514042bb981f5f702200cad8a54216d48879e5a55c8a64d7731528d8dec6a9ed28c2136cb4331b08ae20169522103d463f56356a3a30acc69272391ec418d898eba558eaf2f80777c0327e9d4bfbc2102762c462a2f8479cdf2bafdaa192375daa8b119770825e23992dc8fa91198bbf72102a0df72c3993ab2c5601092a7a96a877469bd74c68e0f4847b9871a1c90bd595e53ae00000000", "vin": [{"sequence": 4294967295, "scriptSig": {"hex": "00483045022100dc197e315cb6bf23e906587783b65fa82e37aee5c02d1b534031d77d4f67faa6022020095d66a9c4fcda0d9e80f95b214b0775386ad8b069d25057d2c74b16a31bc501473044022009372a798459e518eccdc7baa33444dbe0c81ee59a3d2dd8578a9f948df27524022068ea927cb4d95cc0af6c748d9e1f34a2d7c923c5475b7510093ef271134ff97d014c69522103ffbaa8024bbc1f5b01967336cf3f91e4681568e7f0ec63a2d6591b47b6d97302210289debc43571d07c0ea3d3f1d3d9bb5785763d9653edc9e8c2cc45114e6cd26f22102fadc2a54dc83aaf7b3436bb1256ca5124a2913540d7eb1034f2bf49b9da84a5253ae", "asm": "0 3045022100dc197e315cb6bf23e906587783b65fa82e37aee5c02d1b534031d77d4f67faa6022020095d66a9c4fcda0d9e80f95b214b0775386ad8b069d25057d2c74b16a31bc5[ALL] 3044022009372a798459e518eccdc7baa33444dbe0c81ee59a3d2dd8578a9f948df27524022068ea927cb4d95cc0af6c748d9e1f34a2d7c923c5475b7510093ef271134ff97d[ALL] 522103ffbaa8024bbc1f5b01967336cf3f91e4681568e7f0ec63a2d6591b47b6d97302210289debc43571d07c0ea3d3f1d3d9bb5785763d9653edc9e8c2cc45114e6cd26f22102fadc2a54dc83aaf7b3436bb1256ca5124a2913540d7eb1034f2bf49b9da84a5253ae"}, "vout": 0, "txid": "18b8912974fa01dbadfa496898b3a0cf6fb09d4d493dac447b9639af9e1beec3"}, {"txinwitness": ["", "304402203c8ce951223a7c54b6571958cf227830221906af492d9cd2d919402cfbbe8c32022051c860533341190db4de69d4e5402fa97ba9ab2fbd127b41deddf253a7b4790e01", "3045022100e49d30c1e5a9284778b41aa58d9aee747719a6061b7307e18514042bb981f5f702200cad8a54216d48879e5a55c8a64d7731528d8dec6a9ed28c2136cb4331b08ae201", "522103d463f56356a3a30acc69272391ec418d898eba558eaf2f80777c0327e9d4bfbc2102762c462a2f8479cdf2bafdaa192375daa8b119770825e23992dc8fa91198bbf72102a0df72c3993ab2c5601092a7a96a877469bd74c68e0f4847b9871a1c90bd595e53ae"], "sequence": 4294967295, "scriptSig": {"hex": "2200209c1209e8c721aeaf1634d556baba7caef5dee870af300699a19e5eba24056f56", "asm": "00209c1209e8c721aeaf1634d556baba7caef5dee870af300699a19e5eba24056f56"}, "vout": 0, "txid": "56d329133426178ceb3c896ec00efc1208d1a29233e4ee278eb8a1e73fc139e1"}], "txid": "cfe51bc21cd0bdcc3494f6913c1bb7230acde794a81db7079f2b22358934e94f", "blocktime": 1537870268, "version": 1, "confirmations": 11518, "time": 1537870268, "locktime": 0, "vsize": 512, "size": 704}