{"hash": "cff0928196374e3041e1194ef42ea2dbd2a5c40c7b99c240ab0b90eb885bb3d2", "blockhash": "00000000000000000024a2167bbff67b0be802c0b01cdd79e6331c2be6459f87", "vout": [{"scriptPubKey": {"reqSigs": 1, "hex": "76a914a34af9aa2b0e6e4029ae6f432e483c1c93a3c79a88ac", "addresses": ["1FtQxe8oUgACj4jDhubLWiJRdmBmfuDqjy"], "asm": "OP_DUP OP_HASH160 a34af9aa2b0e6e4029ae6f432e483c1c93a3c79a OP_EQUALVERIFY OP_CHECKSIG", "type": "pubkeyhash"}, "value": 13.0, "n": 0}, {"scriptPubKey": {"reqSigs": 1, "hex": "76a914bfd0483bb6fba9f3c4e2b54a3bf375daec4b370f88ac", "addresses": ["1JVDaLbcNcHK9iL5Z3LnkW5uAoBw7jSgcr"], "asm": "OP_DUP OP_HASH160 bfd0483bb6fba9f3c4e2b54a3bf375daec4b370f OP_EQUALVERIFY OP_CHECKSIG", "type": "pubkeyhash"}, "value": 38.79788059, "n": 1}], "hex": "0200000002a0c613e1d85b99dddb3cab10e29ea773ba58d5bd826b19200a94222747304930010000006b483045022100fcc79ca91d151ad643c2e0ad566b09b266ca0fb69e6b8de56032ba0e1073dbcc02204b103c13ff9c34b488ca26654e1a17140280bd1097ff537187dd4dd67b425a2c0121035369e9e1aa9d075571f4246bdaf0ae8115ee69e918a13b265a229c81a7263b83ffffffff588d5c4b955d5876fdbe93cba6daca3379bcd7df4419b69f4561dc7a43552ec6010000006a47304402203bc37b3ea8d92cb266cee15cf471e3d68f7429be698338c68415c59735ce712b022064af573308a98fe597c8979183e66e91483781167d12f12a40468e210623000a01210250aa1bad930b23b7d2a77762255b522db8ee0160cf5e53433c0f9157f8154807ffffffff02006d7c4d000000001976a914a34af9aa2b0e6e4029ae6f432e483c1c93a3c79a88ac1bde40e7000000001976a914bfd0483bb6fba9f3c4e2b54a3bf375daec4b370f88ac00000000", "vin": [{"sequence": 4294967295, "scriptSig": {"hex": "483045022100fcc79ca91d151ad643c2e0ad566b09b266ca0fb69e6b8de56032ba0e1073dbcc02204b103c13ff9c34b488ca26654e1a17140280bd1097ff537187dd4dd67b425a2c0121035369e9e1aa9d075571f4246bdaf0ae8115ee69e918a13b265a229c81a7263b83", "asm": "3045022100fcc79ca91d151ad643c2e0ad566b09b266ca0fb69e6b8de56032ba0e1073dbcc02204b103c13ff9c34b488ca26654e1a17140280bd1097ff537187dd4dd67b425a2c[ALL] 035369e9e1aa9d075571f4246bdaf0ae8115ee69e918a13b265a229c81a7263b83"}, "vout": 1, "txid": "304930472722940a20196b82bdd558ba73a79ee210ab3cdbdd995bd8e113c6a0"}, {"sequence": 4294967295, "scriptSig": {"hex": "47304402203bc37b3ea8d92cb266cee15cf471e3d68f7429be698338c68415c59735ce712b022064af573308a98fe597c8979183e66e91483781167d12f12a40468e210623000a01210250aa1bad930b23b7d2a77762255b522db8ee0160cf5e53433c0f9157f8154807", "asm": "304402203bc37b3ea8d92cb266cee15cf471e3d68f7429be698338c68415c59735ce712b022064af573308a98fe597c8979183e66e91483781167d12f12a40468e210623000a[ALL] 0250aa1bad930b23b7d2a77762255b522db8ee0160cf5e53433c0f9157f8154807"}, "vout": 1, "txid": "c62e55437adc61459fb61944dfd7bc7933cadaa6cb93befd76585d954b5c8d58"}], "txid": "cff0928196374e3041e1194ef42ea2dbd2a5c40c7b99c240ab0b90eb885bb3d2", "blocktime": 1537870564, "version": 2, "confirmations": 11515, "time": 1537870564, "locktime": 0, "vsize": 373, "size": 373}