{"hash": "cff14f81e4a18c086332a910419c66e155c6337e7d09bd418aa6a83c8079e61c", "blockhash": "0000000000000000001cda96e906b7601b7a6fb1a3b62bca570a9e5d8f4b3de1", "vout": [{"scriptPubKey": {"reqSigs": 1, "hex": "76a91497396627658db8a0f00783f5591794542f0264b188ac", "addresses": ["1Enbo83n943FM8xsC3iGKsjakijJ6KvygZ"], "asm": "OP_DUP OP_HASH160 97396627658db8a0f00783f5591794542f0264b1 OP_EQUALVERIFY OP_CHECKSIG", "type": "pubkeyhash"}, "value": 1.001e-05, "n": 0}, {"scriptPubKey": {"reqSigs": 1, "hex": "76a914f3324eb7911118499b31476116e5b77ed91df1b688ac", "addresses": ["1PAuU3Lp7AvEh8okrrnZcGkkuVWnv95wak"], "asm": "OP_DUP OP_HASH160 f3324eb7911118499b31476116e5b77ed91df1b6 OP_EQUALVERIFY OP_CHECKSIG", "type": "pubkeyhash"}, "value": 0.00486391, "n": 1}], "hex": "01000000017ada04a4cbb9a8d2f7e5a81f4368862878e70de8a30c44353176db57d84a1932010000006a4730440220034e34d3fec084041ca1190c1c0b324b9dd6c87b610480b9dde8f0419805b3cb0220258ee53b33553a1f73f8f94cd82b6fadeadb2b219d103b8a8dd0ec277ce55761012103b4f93ca48035b1108079b289cf18f441d505dfbe4e06714d5814d35000858ebdffffffff02e9030000000000001976a91497396627658db8a0f00783f5591794542f0264b188acf76b0700000000001976a914f3324eb7911118499b31476116e5b77ed91df1b688ac00000000", "vin": [{"sequence": 4294967295, "scriptSig": {"hex": "4730440220034e34d3fec084041ca1190c1c0b324b9dd6c87b610480b9dde8f0419805b3cb0220258ee53b33553a1f73f8f94cd82b6fadeadb2b219d103b8a8dd0ec277ce55761012103b4f93ca48035b1108079b289cf18f441d505dfbe4e06714d5814d35000858ebd", "asm": "30440220034e34d3fec084041ca1190c1c0b324b9dd6c87b610480b9dde8f0419805b3cb0220258ee53b33553a1f73f8f94cd82b6fadeadb2b219d103b8a8dd0ec277ce55761[ALL] 03b4f93ca48035b1108079b289cf18f441d505dfbe4e06714d5814d35000858ebd"}, "vout": 1, "txid": "32194ad857db763135440ca3e80de778288668431fa8e5f7d2a8b9cba404da7a"}], "txid": "cff14f81e4a18c086332a910419c66e155c6337e7d09bd418aa6a83c8079e61c", "blocktime": 1537873282, "version": 1, "confirmations": 11481, "time": 1537873282, "locktime": 0, "vsize": 225, "size": 225}