{"hash": "fc9fb796c8a2af0836c72511f07533d7bc2c5fd804e8165a59d1f8e1e197f732", "blockhash": "0000000000000000001f76057863aec43deb6fa401d9628bb513d65a8098bfab", "vout": [{"scriptPubKey": {"reqSigs": 1, "hex": "a914ea033e6f41c4b4a260e1345107f0be9cdca977c187", "addresses": ["3P2MvpaeTsVDxkJuHTjKrTTEN7wXxQGeZ8"], "asm": "OP_HASH160 ea033e6f41c4b4a260e1345107f0be9cdca977c1 OP_EQUAL", "type": "scripthash"}, "value": 0.01021318, "n": 0}, {"scriptPubKey": {"reqSigs": 1, "hex": "a91469f374a0b6f7a691178eee00bd33bfb9396f8fd487", "addresses": ["3BMEXGxkTzBhSoAd3pENpFHHPG7a8C4EG4"], "asm": "OP_HASH160 69f374a0b6f7a691178eee00bd33bfb9396f8fd4 OP_EQUAL", "type": "scripthash"}, "value": 0.00218231, "n": 1}], "hex": "020000000001022fbba25b36cc7f704150c550e3e8e098035516b97bf7a5f0f9544460bb1784e40100000017160014d55b7096e116e16b0edf94e41e833fc94a6a00a8feffffff50ff0c04486be7ab95a95428002b266ca4fe3d33dbf23913eed7a72999a89d98060000006a47304402201d45064543b16c212ac8dd9a76e3c6e2d62b5bfb41e20dbb02f7adbc08840c8c02202a5c56522e2ab24639f4eeb27714c69a26d929bef530bad52ca26f11a982771c0121029c1543b26fa87316a934028e02f1ff93e6aac7a930a80dd7f0b7546a307cb678feffffff0286950f000000000017a914ea033e6f41c4b4a260e1345107f0be9cdca977c187775403000000000017a91469f374a0b6f7a691178eee00bd33bfb9396f8fd48702473044022025da8716aa14061e142b5296fa7d67c4dfbf1490bf0eec01db972b8f9e60987102201b383d432f31e915a46ee2e6813baf198011df48f10c0b270b8604849b944082012102d7cccfd366c410fe2e85f200e972e3947e4feb76d4ef47268a379c3172fdcb4c0014490800", "vin": [{"txinwitness": ["3044022025da8716aa14061e142b5296fa7d67c4dfbf1490bf0eec01db972b8f9e60987102201b383d432f31e915a46ee2e6813baf198011df48f10c0b270b8604849b94408201", "02d7cccfd366c410fe2e85f200e972e3947e4feb76d4ef47268a379c3172fdcb4c"], "sequence": 4294967294, "scriptSig": {"hex": "160014d55b7096e116e16b0edf94e41e833fc94a6a00a8", "asm": "0014d55b7096e116e16b0edf94e41e833fc94a6a00a8"}, "vout": 1, "txid": "e48417bb604454f9f0a5f77bb916550398e0e8e350c55041707fcc365ba2bb2f"}, {"sequence": 4294967294, "scriptSig": {"hex": "47304402201d45064543b16c212ac8dd9a76e3c6e2d62b5bfb41e20dbb02f7adbc08840c8c02202a5c56522e2ab24639f4eeb27714c69a26d929bef530bad52ca26f11a982771c0121029c1543b26fa87316a934028e02f1ff93e6aac7a930a80dd7f0b7546a307cb678", "asm": "304402201d45064543b16c212ac8dd9a76e3c6e2d62b5bfb41e20dbb02f7adbc08840c8c02202a5c56522e2ab24639f4eeb27714c69a26d929bef530bad52ca26f11a982771c[ALL] 029c1543b26fa87316a934028e02f1ff93e6aac7a930a80dd7f0b7546a307cb678"}, "vout": 6, "txid": "989da89929a7d7ee1339f2db333dfea46c262b002854a995abe76b48040cff50"}], "txid": "cff4c479938563f547439285d47123812e93c9108e3f34278d1c0f1390eda2be", "blocktime": 1537873891, "version": 2, "confirmations": 11479, "time": 1537873891, "locktime": 542996, "vsize": 313, "size": 395}