{"hash": "cff80aba6d051a306e4a015eb0cfc7a7a1d3d4a7e6f78e63999b4948c5e82f7f", "blockhash": "000000000000000000022b45ed06c6f4ccd3cf7fb5ba4856ebd2e58215665228", "vout": [{"scriptPubKey": {"reqSigs": 1, "hex": "76a914e580438fbb013e5fd79cfbd5fc6a3b8a6720339288ac", "addresses": ["1MvVPrzmu1oAbrXfkXuej7SgqKob2zh5Hg"], "asm": "OP_DUP OP_HASH160 e580438fbb013e5fd79cfbd5fc6a3b8a67203392 OP_EQUALVERIFY OP_CHECKSIG", "type": "pubkeyhash"}, "value": 0.00268877, "n": 0}, {"scriptPubKey": {"reqSigs": 1, "hex": "76a91439dc538eabe1995d3dea95d88be449c3e8bc68b388ac", "addresses": ["16GwTUt2oMcU1igjHAARR2dtyizU6vJ9oA"], "asm": "OP_DUP OP_HASH160 39dc538eabe1995d3dea95d88be449c3e8bc68b3 OP_EQUALVERIFY OP_CHECKSIG", "type": "pubkeyhash"}, "value": 0.023, "n": 1}], "hex": "01000000018e4c1beaf99fccc96f01e0206cc925f38dce1529c4b08718d32bc58605d73f9b010000006a473044022077f1b1609c202144fa0982bdd75761ecf7226f5a03afb383214494ed690c035102203ae8d8347a9276ca4fbd1b69809ae44b3737dc1908a0f188550d204786bb82310121022f39ce6a868ecaf44a5da186c8f7c8fde37daf7563de3d6f0a49f7b5c9822559ffffffff024d1a0400000000001976a914e580438fbb013e5fd79cfbd5fc6a3b8a6720339288ac60182300000000001976a91439dc538eabe1995d3dea95d88be449c3e8bc68b388ac00000000", "vin": [{"sequence": 4294967295, "scriptSig": {"hex": "473044022077f1b1609c202144fa0982bdd75761ecf7226f5a03afb383214494ed690c035102203ae8d8347a9276ca4fbd1b69809ae44b3737dc1908a0f188550d204786bb82310121022f39ce6a868ecaf44a5da186c8f7c8fde37daf7563de3d6f0a49f7b5c9822559", "asm": "3044022077f1b1609c202144fa0982bdd75761ecf7226f5a03afb383214494ed690c035102203ae8d8347a9276ca4fbd1b69809ae44b3737dc1908a0f188550d204786bb8231[ALL] 022f39ce6a868ecaf44a5da186c8f7c8fde37daf7563de3d6f0a49f7b5c9822559"}, "vout": 1, "txid": "9b3fd70586c52bd31887b0c42915ce8df325c96c20e0016fc9cc9ff9ea1b4c8e"}], "txid": "cff80aba6d051a306e4a015eb0cfc7a7a1d3d4a7e6f78e63999b4948c5e82f7f", "blocktime": 1537869901, "version": 1, "confirmations": 11522, "time": 1537869901, "locktime": 0, "vsize": 225, "size": 225}