{"hash": "cffb4489a177875beb115a0abdc98081faad7ba435090bc7a94b285bc06d23e0", "blockhash": "0000000000000000001cda96e906b7601b7a6fb1a3b62bca570a9e5d8f4b3de1", "vout": [{"scriptPubKey": {"reqSigs": 1, "hex": "76a91464078cbde919ea98011dd7d4bdc3a4b5995540c588ac", "addresses": ["1A7uckXXLTqLH2GdhmCrYCUASmxMPwocM3"], "asm": "OP_DUP OP_HASH160 64078cbde919ea98011dd7d4bdc3a4b5995540c5 OP_EQUALVERIFY OP_CHECKSIG", "type": "pubkeyhash"}, "value": 0.00026806, "n": 0}, {"scriptPubKey": {"reqSigs": 1, "hex": "a9143f538b29ffd80472c75c2c331270b730e3d7558d87", "addresses": ["37TraLioZJTuin8fJdnDYA26TF39rUUtH4"], "asm": "OP_HASH160 3f538b29ffd80472c75c2c331270b730e3d7558d OP_EQUAL", "type": "scripthash"}, "value": 1.458e-05, "n": 1}, {"scriptPubKey": {"reqSigs": 1, "hex": "76a91431a00897fc6e0effc1363dea8c0ff82dc00e9cd088ac", "addresses": ["15XPpjAf1iUJ6YTknxHZM1CUHFtXVEPrNd"], "asm": "OP_DUP OP_HASH160 31a00897fc6e0effc1363dea8c0ff82dc00e9cd0 OP_EQUALVERIFY OP_CHECKSIG", "type": "pubkeyhash"}, "value": 0.00263201, "n": 2}], "hex": "0100000001aa5d4059e9517e4665f23ca8556ba7462ca8bb1dbb8444397f248b80caa82e01010000006b483045022100c098d3357d28f2678c00c3e0157f9a6e7759a50b4aa36dec4cd3c243b4611fef0220450bc4fb1adcad8ea3d9d08f13e808bf38b9a683234c8e524028292853580163012103b613e85ba98c0cd8cda96066e9f7e858114b0ed034682f69913e469f7999b2a0ffffffff03b6680000000000001976a91464078cbde919ea98011dd7d4bdc3a4b5995540c588acb20500000000000017a9143f538b29ffd80472c75c2c331270b730e3d7558d8721040400000000001976a91431a00897fc6e0effc1363dea8c0ff82dc00e9cd088ac00000000", "vin": [{"sequence": 4294967295, "scriptSig": {"hex": "483045022100c098d3357d28f2678c00c3e0157f9a6e7759a50b4aa36dec4cd3c243b4611fef0220450bc4fb1adcad8ea3d9d08f13e808bf38b9a683234c8e524028292853580163012103b613e85ba98c0cd8cda96066e9f7e858114b0ed034682f69913e469f7999b2a0", "asm": "3045022100c098d3357d28f2678c00c3e0157f9a6e7759a50b4aa36dec4cd3c243b4611fef0220450bc4fb1adcad8ea3d9d08f13e808bf38b9a683234c8e524028292853580163[ALL] 03b613e85ba98c0cd8cda96066e9f7e858114b0ed034682f69913e469f7999b2a0"}, "vout": 1, "txid": "012ea8ca808b247f394484bb1dbba82c46a76b55a83cf265467e51e959405daa"}], "txid": "cffb4489a177875beb115a0abdc98081faad7ba435090bc7a94b285bc06d23e0", "blocktime": 1537873282, "version": 1, "confirmations": 11485, "time": 1537873282, "locktime": 0, "vsize": 258, "size": 258}