{"hash": "cffe97a4336d2f02415242aa874d676e9331375b4837465b3a75eeb436353588", "blockhash": "000000000000000000205f8b0775d31398ef75b89a5e8ec8d2c57b4dc0ac4c20", "vout": [{"scriptPubKey": {"reqSigs": 1, "hex": "76a914052940f6c0019f6a109b53def427b4dd45b933c788ac", "addresses": ["1UHoKcrRQ8jBjjf96s2RpunyGN4jyzu6x"], "asm": "OP_DUP OP_HASH160 052940f6c0019f6a109b53def427b4dd45b933c7 OP_EQUALVERIFY OP_CHECKSIG", "type": "pubkeyhash"}, "value": 0.196995, "n": 0}], "hex": "01000000016ab520e574eb601988d47fbcbe334d14f2102e56ed45409d15adfd65d4a801c2000000006b483045022100d3a75be6455b3b11d67c1a9ab68611554d18ead0f891db35aa31cc3a1df20dbc02202ce7dc1da07f96884b0308e7abd369eed930e8487ab60663e59ca3ae2e12465801210332d8ed2a2f4b6f8e81b3cb65537cce71ba84cdc00b20f38a90b4f43f646d5acdffffffff012c972c01000000001976a914052940f6c0019f6a109b53def427b4dd45b933c788ac00000000", "vin": [{"sequence": 4294967295, "scriptSig": {"hex": "483045022100d3a75be6455b3b11d67c1a9ab68611554d18ead0f891db35aa31cc3a1df20dbc02202ce7dc1da07f96884b0308e7abd369eed930e8487ab60663e59ca3ae2e12465801210332d8ed2a2f4b6f8e81b3cb65537cce71ba84cdc00b20f38a90b4f43f646d5acd", "asm": "3045022100d3a75be6455b3b11d67c1a9ab68611554d18ead0f891db35aa31cc3a1df20dbc02202ce7dc1da07f96884b0308e7abd369eed930e8487ab60663e59ca3ae2e124658[ALL] 0332d8ed2a2f4b6f8e81b3cb65537cce71ba84cdc00b20f38a90b4f43f646d5acd"}, "vout": 0, "txid": "c201a8d465fdad159d4045ed562e10f2144d33bebc7fd4881960eb74e520b56a"}], "txid": "cffe97a4336d2f02415242aa874d676e9331375b4837465b3a75eeb436353588", "blocktime": 1537871175, "version": 1, "confirmations": 11511, "time": 1537871175, "locktime": 0, "vsize": 192, "size": 192}