{"hash": "402c0167bfe97344d34340a8cbc71bbd5dfc2e8f50e355623bcb04efd6f8d948", "blockhash": "0000000000000000000e13cef7c366c0283d82e591d1acd082e914b08063cdf1", "vout": [{"scriptPubKey": {"reqSigs": 1, "hex": "76a9148f8c51c7703803ba08ab1e55a5488d658dad347c88ac", "addresses": ["1E61iztLMN8yGsjorSzGpjjwnzsWrYnDLJ"], "asm": "OP_DUP OP_HASH160 8f8c51c7703803ba08ab1e55a5488d658dad347c OP_EQUALVERIFY OP_CHECKSIG", "type": "pubkeyhash"}, "value": 0.0029826, "n": 0}, {"scriptPubKey": {"reqSigs": 1, "hex": "a914d3d5bbd9e1d3b3ac20a93c59c2c545af4395725f87", "addresses": ["3M16YWCf8S6zMXNVhmeZngnKphhqz1qEcm"], "asm": "OP_HASH160 d3d5bbd9e1d3b3ac20a93c59c2c545af4395725f OP_EQUAL", "type": "scripthash"}, "value": 0.01004214, "n": 1}], "hex": "02000000000102036664da680d0a3dea3785f71137484f894e755c101b25c49c9e3c08f914bb980000000017160014dcbee383d0e0f683ac0e9de6fa1844a4c8a5f7e4feffffff305ee7ef07e6d1de43e93f356f4ada5879bd9df329533ac27c5918860d13de99010000001716001409af3a5a67deff48b8ea7b51b7f7b6b2dadcfc25feffffff02148d0400000000001976a9148f8c51c7703803ba08ab1e55a5488d658dad347c88acb6520f000000000017a914d3d5bbd9e1d3b3ac20a93c59c2c545af4395725f870247304402204c1245c7d7cb110736aa30e10d0b3851bce9839f627ec2f15529bb5eab8bce3f022077f8437dea7157a6c45cb0fc343f3d682d5d34846006c52f3f976811059c2908012103f2808472ff13f0018fed1e3f3b0b8ff23f248c1f30db9232985bd4a0280b794a02483045022100aba12f27105fb2571f1e0f42e0f4e2fee63e6f110b6194c77d6025dcefbc298002203c3140af7b0136754f637e14bba4e9c9424ab73bddbb5004d83b5d401c092344012102663cadcc4b974e8883c9062aac0bae8d91436793ee07c7ac4b959c840ac9ea3a10490800", "vin": [{"txinwitness": ["304402204c1245c7d7cb110736aa30e10d0b3851bce9839f627ec2f15529bb5eab8bce3f022077f8437dea7157a6c45cb0fc343f3d682d5d34846006c52f3f976811059c290801", "03f2808472ff13f0018fed1e3f3b0b8ff23f248c1f30db9232985bd4a0280b794a"], "sequence": 4294967294, "scriptSig": {"hex": "160014dcbee383d0e0f683ac0e9de6fa1844a4c8a5f7e4", "asm": "0014dcbee383d0e0f683ac0e9de6fa1844a4c8a5f7e4"}, "vout": 0, "txid": "98bb14f9083c9e9cc4251b105c754e894f483711f78537ea3d0a0d68da646603"}, {"txinwitness": ["3045022100aba12f27105fb2571f1e0f42e0f4e2fee63e6f110b6194c77d6025dcefbc298002203c3140af7b0136754f637e14bba4e9c9424ab73bddbb5004d83b5d401c09234401", "02663cadcc4b974e8883c9062aac0bae8d91436793ee07c7ac4b959c840ac9ea3a"], "sequence": 4294967294, "scriptSig": {"hex": "16001409af3a5a67deff48b8ea7b51b7f7b6b2dadcfc25", "asm": "001409af3a5a67deff48b8ea7b51b7f7b6b2dadcfc25"}, "vout": 1, "txid": "99de130d8618597cc23a5329f39dbd7958da4a6f353fe943ded1e607efe75e30"}], "txid": "d0012ae762a89fe05d9ad62caddd4f0c3726d41125692448d31a7af5d0cabada", "blocktime": 1537871767, "version": 2, "confirmations": 11495, "time": 1537871767, "locktime": 542992, "vsize": 259, "size": 421}