{"hash": "d0043b78e3a10d1faa3c215596b5aa3e5d2aed5e783429ccf629714cb0c438b9", "blockhash": "0000000000000000000e13cef7c366c0283d82e591d1acd082e914b08063cdf1", "vout": [{"scriptPubKey": {"reqSigs": 1, "hex": "76a914a7835bbf98a5a01f3b00c662b097f2ca669d36f788ac", "addresses": ["1GGjCyetoChUYPgB2RFnuNs4iDcxvUfM9C"], "asm": "OP_DUP OP_HASH160 a7835bbf98a5a01f3b00c662b097f2ca669d36f7 OP_EQUALVERIFY OP_CHECKSIG", "type": "pubkeyhash"}, "value": 0.01368447, "n": 0}, {"scriptPubKey": {"reqSigs": 1, "hex": "76a914a195cf658253b7a2d2d8a3d2db02b94940f4ab4488ac", "addresses": ["1FjPFsoVsoUGVjqEgrvkERmQ4HqshxvfaT"], "asm": "OP_DUP OP_HASH160 a195cf658253b7a2d2d8a3d2db02b94940f4ab44 OP_EQUALVERIFY OP_CHECKSIG", "type": "pubkeyhash"}, "value": 0.02624496, "n": 1}], "hex": "01000000016bed5e5793ab63f5f8e1680ef1d80a780aea292724a86d9f6a93b560959f32db010000006b4830450221008a0d3dd37b2c25877fc6ba58f84dc3f392978d63cdf578e016c333e2986c144e02204f6ef5f940d6b207f149a04d029df80ae1b5f714eaad0aaa3038440169488fdf012103a0b562e3768f0c9bdd03cde7b2664f7acd3084e4aee9b13cc26c66f4288c4edaffffffff027fe11400000000001976a914a7835bbf98a5a01f3b00c662b097f2ca669d36f788acf00b2800000000001976a914a195cf658253b7a2d2d8a3d2db02b94940f4ab4488ac00000000", "vin": [{"sequence": 4294967295, "scriptSig": {"hex": "4830450221008a0d3dd37b2c25877fc6ba58f84dc3f392978d63cdf578e016c333e2986c144e02204f6ef5f940d6b207f149a04d029df80ae1b5f714eaad0aaa3038440169488fdf012103a0b562e3768f0c9bdd03cde7b2664f7acd3084e4aee9b13cc26c66f4288c4eda", "asm": "30450221008a0d3dd37b2c25877fc6ba58f84dc3f392978d63cdf578e016c333e2986c144e02204f6ef5f940d6b207f149a04d029df80ae1b5f714eaad0aaa3038440169488fdf[ALL] 03a0b562e3768f0c9bdd03cde7b2664f7acd3084e4aee9b13cc26c66f4288c4eda"}, "vout": 1, "txid": "db329f9560b5936a9f6da8242729ea0a780ad8f10e68e1f8f563ab93575eed6b"}], "txid": "d0043b78e3a10d1faa3c215596b5aa3e5d2aed5e783429ccf629714cb0c438b9", "blocktime": 1537871767, "version": 1, "confirmations": 11495, "time": 1537871767, "locktime": 0, "vsize": 226, "size": 226}