{"hash": "eeac1e611424b0fbf0201e98875a4e5cacc558611592fea384c1c9c0814540da", "blockhash": "00000000000000000018f53835495a110e01622372bf6ae95dc86f2b0ab887b0", "vout": [{"scriptPubKey": {"reqSigs": 1, "hex": "a9142f096d9a5222cb5540a87391d34dacddd471429187", "addresses": ["35yiydy1kpRwHn6zrbT2NY24qQsf5WXhou"], "asm": "OP_HASH160 2f096d9a5222cb5540a87391d34dacddd4714291 OP_EQUAL", "type": "scripthash"}, "value": 0.07608852, "n": 0}, {"scriptPubKey": {"reqSigs": 1, "hex": "a914c30c5e4b28fa2e6174138e6b07747cd1ad702af187", "addresses": ["3KULWKNjYMNcFkEeQXevn23fHA7wioXPgb"], "asm": "OP_HASH160 c30c5e4b28fa2e6174138e6b07747cd1ad702af1 OP_EQUAL", "type": "scripthash"}, "value": 0.05324448, "n": 1}], "hex": "01000000000101e2220c46aeaf4ff7989a8f2218c381ea0a500e82863ac9346a3601a465cdf2de0000000023220020798461988a2b56bee459415ad823afc5f96fb1330e0ffd926bb3f020e0d4ad12ffffffff02141a74000000000017a9142f096d9a5222cb5540a87391d34dacddd471429187a03e51000000000017a914c30c5e4b28fa2e6174138e6b07747cd1ad702af1870400483045022100ab0276caeafcec8f7b0ef51f6cb8590c83f94b0eb72337a1228be40e7bee440402203ddd76a9e087838badf05908270a3d249d1a251a7c645ecb7afc022ceb5f62ad01473044022010fd3143c1819df6fc8a9a18ddc12306ca847aea70b2e20ab8a1fbe00894ad710220641df262fb5e67e3f9236b41c01a400ae25934c6929ee71491225f289511a4a601695221023f39f065a2ac9e66a9b984db79c3b0a78a3bba29faddfa0fd4eb524e497ab1ef21025da9672ee5e6d1ffeea0b2060cec045a74ac88148c7dda08ac392aa74027d1d02103c4ff3db81fb8d603c3f7e14798ddc459770c69e56e78a232176216d2a07612c553ae00000000", "vin": [{"txinwitness": ["", "3045022100ab0276caeafcec8f7b0ef51f6cb8590c83f94b0eb72337a1228be40e7bee440402203ddd76a9e087838badf05908270a3d249d1a251a7c645ecb7afc022ceb5f62ad01", "3044022010fd3143c1819df6fc8a9a18ddc12306ca847aea70b2e20ab8a1fbe00894ad710220641df262fb5e67e3f9236b41c01a400ae25934c6929ee71491225f289511a4a601", "5221023f39f065a2ac9e66a9b984db79c3b0a78a3bba29faddfa0fd4eb524e497ab1ef21025da9672ee5e6d1ffeea0b2060cec045a74ac88148c7dda08ac392aa74027d1d02103c4ff3db81fb8d603c3f7e14798ddc459770c69e56e78a232176216d2a07612c553ae"], "sequence": 4294967295, "scriptSig": {"hex": "220020798461988a2b56bee459415ad823afc5f96fb1330e0ffd926bb3f020e0d4ad12", "asm": "0020798461988a2b56bee459415ad823afc5f96fb1330e0ffd926bb3f020e0d4ad12"}, "vout": 0, "txid": "def2cd65a401366a34c93a86820e500aea81c318228f9a98f74fafae460c22e2"}], "txid": "d0069e6b0b1237e87debec6ec28fd0e62dcc8026ca199a3c954a0c7a895ae545", "blocktime": 1537870928, "version": 1, "confirmations": 11514, "time": 1537870928, "locktime": 0, "vsize": 214, "size": 405}