{"hash": "d00ea4eab4987cdb9ac45f0b5261ae16e1c448b373a0d3ec32989ac0554044b1", "blockhash": "0000000000000000001cda96e906b7601b7a6fb1a3b62bca570a9e5d8f4b3de1", "vout": [{"scriptPubKey": {"reqSigs": 1, "hex": "76a914fcfe915861c1eb37273fa2d0b32009a31c5ae60e88ac", "addresses": ["1Q4iF26n3VivTgCBiUrBJSi6XjytoFkCVD"], "asm": "OP_DUP OP_HASH160 fcfe915861c1eb37273fa2d0b32009a31c5ae60e OP_EQUALVERIFY OP_CHECKSIG", "type": "pubkeyhash"}, "value": 0.0005563, "n": 0}, {"scriptPubKey": {"reqSigs": 1, "hex": "76a9146f6ec67caa53ed4aa7de4cecc0c94cbb80d2d8bb88ac", "addresses": ["1BACi6j5fSQCwPKWepZNoKXuQAHbwT6AWU"], "asm": "OP_DUP OP_HASH160 6f6ec67caa53ed4aa7de4cecc0c94cbb80d2d8bb OP_EQUALVERIFY OP_CHECKSIG", "type": "pubkeyhash"}, "value": 0.00078242, "n": 1}], "hex": "01000000014a506cdcf7723bc7249665fc79e9b34bc574a124320a48721ee9a2d85091257f000000006b483045022100a2d7111adcec93f14f6c9d93673698e25b13a5e7bb82c520fbe15f4361a931f6022039de0a986b463b0c6443197132975e3c94a3e35ca19abcc800678e35beda5084012102e2ec52b88ec443399c2bd2f748825f4db44e3b81eedbb7780551cfb23bbdc21fffffffff024ed90000000000001976a914fcfe915861c1eb37273fa2d0b32009a31c5ae60e88aca2310100000000001976a9146f6ec67caa53ed4aa7de4cecc0c94cbb80d2d8bb88ac00000000", "vin": [{"sequence": 4294967295, "scriptSig": {"hex": "483045022100a2d7111adcec93f14f6c9d93673698e25b13a5e7bb82c520fbe15f4361a931f6022039de0a986b463b0c6443197132975e3c94a3e35ca19abcc800678e35beda5084012102e2ec52b88ec443399c2bd2f748825f4db44e3b81eedbb7780551cfb23bbdc21f", "asm": "3045022100a2d7111adcec93f14f6c9d93673698e25b13a5e7bb82c520fbe15f4361a931f6022039de0a986b463b0c6443197132975e3c94a3e35ca19abcc800678e35beda5084[ALL] 02e2ec52b88ec443399c2bd2f748825f4db44e3b81eedbb7780551cfb23bbdc21f"}, "vout": 0, "txid": "7f259150d8a2e91e72480a3224a174c54bb3e979fc659624c73b72f7dc6c504a"}], "txid": "d00ea4eab4987cdb9ac45f0b5261ae16e1c448b373a0d3ec32989ac0554044b1", "blocktime": 1537873282, "version": 1, "confirmations": 11481, "time": 1537873282, "locktime": 0, "vsize": 226, "size": 226}