{"hash": "7431093ff4e06d6a29678242d1f802cc6041bdf97e1fc6b0ae64d0c7f2d1ac03", "blockhash": "0000000000000000000dcc0f55137456b1a82d3642486a52398922ac4d620174", "vout": [{"scriptPubKey": {"reqSigs": 1, "hex": "001454b11488727103a01e1082a369d31d263f796776", "addresses": ["bc1q2jc3fzrjwyp6q8sss23kn5cayclhjemkpywhxk"], "asm": "0 54b11488727103a01e1082a369d31d263f796776", "type": "witness_v0_keyhash"}, "value": 0.00138288, "n": 0}, {"scriptPubKey": {"reqSigs": 1, "hex": "76a9149944c0504306ac9a919b7136f039a9e8ae3ea45d88ac", "addresses": ["1EyQkGbYuixeqD659qmziUa9tUjZeJhQmL"], "asm": "OP_DUP OP_HASH160 9944c0504306ac9a919b7136f039a9e8ae3ea45d OP_EQUALVERIFY OP_CHECKSIG", "type": "pubkeyhash"}, "value": 0.06041791, "n": 1}], "hex": "010000000001018af86f2fcba389b0fc6395fd2e9749b136ff4af4c727795ba94177d89a713ae00100000017160014349f95954a2e5254161759c3b0ef497d3a728dd1ffffffff02301c02000000000016001454b11488727103a01e1082a369d31d263f796776bf305c00000000001976a9149944c0504306ac9a919b7136f039a9e8ae3ea45d88ac0248304502210093b9a43e2c8d2a78c77a0261ebea481f54d7f0d4978d32d449286c0b14e3471b022078bd7a7aa5771cf7a29362372049616240622bcc8a571e3eb6ab0f7d2ad7a74401210315bf9452be9997b64a4009d01a388e70683a4c2a9f0091762947ad284894f43000000000", "vin": [{"txinwitness": ["304502210093b9a43e2c8d2a78c77a0261ebea481f54d7f0d4978d32d449286c0b14e3471b022078bd7a7aa5771cf7a29362372049616240622bcc8a571e3eb6ab0f7d2ad7a74401", "0315bf9452be9997b64a4009d01a388e70683a4c2a9f0091762947ad284894f430"], "sequence": 4294967295, "scriptSig": {"hex": "160014349f95954a2e5254161759c3b0ef497d3a728dd1", "asm": "0014349f95954a2e5254161759c3b0ef497d3a728dd1"}, "vout": 1, "txid": "e03a719ad87741a95b7927c7f44aff36b149972efd9563fcb089a3cb2f6ff88a"}], "txid": "d00f725f47f967a7ed86f54d4f2473d28beae33c5cbc1c626c06b2864d196d62", "blocktime": 1537870268, "version": 1, "confirmations": 11518, "time": 1537870268, "locktime": 0, "vsize": 167, "size": 249}