{"hash": "d010f7de69da04206a423de17a3c84581490f32bfa29f2817225907b7c8b58a9", "blockhash": "00000000000000000004ffacab907a6b429b9a5745fa0b75af4234bf69dd7176", "vout": [{"scriptPubKey": {"reqSigs": 1, "hex": "a914b1e1a2bf3bf9e91bd81a40bc51c704bfd48e7f2787", "addresses": ["3HuZpwey7SeBjbktfNQPZzjvcQs32rPfY9"], "asm": "OP_HASH160 b1e1a2bf3bf9e91bd81a40bc51c704bfd48e7f27 OP_EQUAL", "type": "scripthash"}, "value": 0.00203447, "n": 0}, {"scriptPubKey": {"reqSigs": 1, "hex": "76a914512e44268e3581c441c5f98d3e6f6492cddc611288ac", "addresses": ["18QFAAven8XJtNUWMqA43CcjrJx8w1yFby"], "asm": "OP_DUP OP_HASH160 512e44268e3581c441c5f98d3e6f6492cddc6112 OP_EQUALVERIFY OP_CHECKSIG", "type": "pubkeyhash"}, "value": 0.0236948, "n": 1}], "hex": "01000000016a76343db4408415b39193910bc7d5fac6f938df1174c3202aff7d61e14a21dd010000006a473044022041048cb1adf4836aa5e9faa82fc8e9430073c94154cd8d0d391c7bef3601865d022014b1b080620be8fe67e99666d25ecf2690336044490a54f62c8de4261613dd0c012103614831b0da6f6bbd5ee81dc2a55fc9c6bb7d29afa7d5686c8d0de9d02b65c37dffffffff02b71a03000000000017a914b1e1a2bf3bf9e91bd81a40bc51c704bfd48e7f2787c8272400000000001976a914512e44268e3581c441c5f98d3e6f6492cddc611288ac00000000", "vin": [{"sequence": 4294967295, "scriptSig": {"hex": "473044022041048cb1adf4836aa5e9faa82fc8e9430073c94154cd8d0d391c7bef3601865d022014b1b080620be8fe67e99666d25ecf2690336044490a54f62c8de4261613dd0c012103614831b0da6f6bbd5ee81dc2a55fc9c6bb7d29afa7d5686c8d0de9d02b65c37d", "asm": "3044022041048cb1adf4836aa5e9faa82fc8e9430073c94154cd8d0d391c7bef3601865d022014b1b080620be8fe67e99666d25ecf2690336044490a54f62c8de4261613dd0c[ALL] 03614831b0da6f6bbd5ee81dc2a55fc9c6bb7d29afa7d5686c8d0de9d02b65c37d"}, "vout": 1, "txid": "dd214ae1617dff2a20c37411df38f9c6fad5c70b919391b3158440b43d34766a"}], "txid": "d010f7de69da04206a423de17a3c84581490f32bfa29f2817225907b7c8b58a9", "blocktime": 1537875543, "version": 1, "confirmations": 11464, "time": 1537875543, "locktime": 0, "vsize": 223, "size": 223}