{"hash": "d012124dda03bd543a056a9c0a71390e31a387d265ac73c14d3a4b819f472cef", "blockhash": "0000000000000000001f76057863aec43deb6fa401d9628bb513d65a8098bfab", "vout": [{"scriptPubKey": {"reqSigs": 1, "hex": "a91477f600fada865aae1af458b6fb64059e383fb97687", "addresses": ["3CdK31x3K1ttD3sWVmERuynLzf8kd4hVd9"], "asm": "OP_HASH160 77f600fada865aae1af458b6fb64059e383fb976 OP_EQUAL", "type": "scripthash"}, "value": 0.0220087, "n": 0}, {"scriptPubKey": {"reqSigs": 1, "hex": "76a9143ed37331d7acac8d74ea36ad3fd6328b737d474c88ac", "addresses": ["16jCChM38YDqmtcyENEA6Zb2f98YSuy61j"], "asm": "OP_DUP OP_HASH160 3ed37331d7acac8d74ea36ad3fd6328b737d474c OP_EQUALVERIFY OP_CHECKSIG", "type": "pubkeyhash"}, "value": 0.00112309, "n": 1}], "hex": "01000000027829f0fb17e4bfa11c72b635631a6afe4b947be9b8d5d722a57156900d61375d1b0000006a47304402204e31f3842fd956b1ff55800d48163606fc655c45cce1c6feb48ddc112030c555022053729e92724ebf9fb77dc7d738c27477382b53ee9cc4e338eab7cbdb12049d360121029b70706214fbf83be37010418eac7eec8ecf5f93fa86d949117f561b3358a846ffffffffdb7c8b55f792e82404e774898d9e141348876fbbc18ecc55c77a609e26954ebc010000006a473044022042fef9490d1d6d2faa994138d2d25573c19b604d793cb0f248412f0b0245352b02202e70d82eb3c38a924a95baf4c5cb623487993d4477aaff63c7bf87b23820fb14012103ae4317688e03b7fdd2bbb8faf5590ea827419d121b052268f51fedc358a80f90ffffffff02269521000000000017a91477f600fada865aae1af458b6fb64059e383fb97687b5b60100000000001976a9143ed37331d7acac8d74ea36ad3fd6328b737d474c88ac00000000", "vin": [{"sequence": 4294967295, "scriptSig": {"hex": "47304402204e31f3842fd956b1ff55800d48163606fc655c45cce1c6feb48ddc112030c555022053729e92724ebf9fb77dc7d738c27477382b53ee9cc4e338eab7cbdb12049d360121029b70706214fbf83be37010418eac7eec8ecf5f93fa86d949117f561b3358a846", "asm": "304402204e31f3842fd956b1ff55800d48163606fc655c45cce1c6feb48ddc112030c555022053729e92724ebf9fb77dc7d738c27477382b53ee9cc4e338eab7cbdb12049d36[ALL] 029b70706214fbf83be37010418eac7eec8ecf5f93fa86d949117f561b3358a846"}, "vout": 27, "txid": "5d37610d905671a522d7d5b8e97b944bfe6a1a6335b6721ca1bfe417fbf02978"}, {"sequence": 4294967295, "scriptSig": {"hex": "473044022042fef9490d1d6d2faa994138d2d25573c19b604d793cb0f248412f0b0245352b02202e70d82eb3c38a924a95baf4c5cb623487993d4477aaff63c7bf87b23820fb14012103ae4317688e03b7fdd2bbb8faf5590ea827419d121b052268f51fedc358a80f90", "asm": "3044022042fef9490d1d6d2faa994138d2d25573c19b604d793cb0f248412f0b0245352b02202e70d82eb3c38a924a95baf4c5cb623487993d4477aaff63c7bf87b23820fb14[ALL] 03ae4317688e03b7fdd2bbb8faf5590ea827419d121b052268f51fedc358a80f90"}, "vout": 1, "txid": "bc4e95269e607ac755cc8ec1bb6f874813149e8d8974e70424e892f7558b7cdb"}], "txid": "d012124dda03bd543a056a9c0a71390e31a387d265ac73c14d3a4b819f472cef", "blocktime": 1537873891, "version": 1, "confirmations": 11475, "time": 1537873891, "locktime": 0, "vsize": 370, "size": 370}