{"hash": "d01ebb6bc7b681c94f51eb8348feb25da6cf6057680c8cfc60ea2095f0deada4", "blockhash": "0000000000000000000e13cef7c366c0283d82e591d1acd082e914b08063cdf1", "vout": [{"scriptPubKey": {"reqSigs": 1, "hex": "76a914d49baf27b8e2d44e77019cc69d12a023f2daf59f88ac", "addresses": ["1LPAkoAPARErWCAcuWbfBSdn3rrRRvcXfW"], "asm": "OP_DUP OP_HASH160 d49baf27b8e2d44e77019cc69d12a023f2daf59f OP_EQUALVERIFY OP_CHECKSIG", "type": "pubkeyhash"}, "value": 0.096059, "n": 0}, {"scriptPubKey": {"reqSigs": 1, "hex": "76a914c5ed6be3506679fe2659d490f14e9b2a2a120cb688ac", "addresses": ["1K3YY82uQLj5iUfPRAswEpkKAaJRD8LSzi"], "asm": "OP_DUP OP_HASH160 c5ed6be3506679fe2659d490f14e9b2a2a120cb6 OP_EQUALVERIFY OP_CHECKSIG", "type": "pubkeyhash"}, "value": 0.90393874, "n": 1}], "hex": "010000000143a35b375dc6c0fc301a88b353275c71f96161551b6356744eafb42b59c90cf7000000006a473044022064177e123f005a882c862324c9a9958e45a88054e3353a477aa2df3018d420f1022078cf4a11843560c7f67433498c7fc5de2946d8e79d4de94489f8729ba91762e80121031da6d2d6683f03872f57601ce9f0a3464a5262b7fcce294f09a939d7ef224948fdffffff020c939200000000001976a914d49baf27b8e2d44e77019cc69d12a023f2daf59f88ac124d6305000000001976a914c5ed6be3506679fe2659d490f14e9b2a2a120cb688ac10490800", "vin": [{"sequence": 4294967293, "scriptSig": {"hex": "473044022064177e123f005a882c862324c9a9958e45a88054e3353a477aa2df3018d420f1022078cf4a11843560c7f67433498c7fc5de2946d8e79d4de94489f8729ba91762e80121031da6d2d6683f03872f57601ce9f0a3464a5262b7fcce294f09a939d7ef224948", "asm": "3044022064177e123f005a882c862324c9a9958e45a88054e3353a477aa2df3018d420f1022078cf4a11843560c7f67433498c7fc5de2946d8e79d4de94489f8729ba91762e8[ALL] 031da6d2d6683f03872f57601ce9f0a3464a5262b7fcce294f09a939d7ef224948"}, "vout": 0, "txid": "f70cc9592bb4af4e7456631b556161f9715c2753b3881a30fcc0c65d375ba343"}], "txid": "d01ebb6bc7b681c94f51eb8348feb25da6cf6057680c8cfc60ea2095f0deada4", "blocktime": 1537871767, "version": 1, "confirmations": 11490, "time": 1537871767, "locktime": 542992, "vsize": 225, "size": 225}