{"hash": "027b2b554d57d6fd74a87d477ba0d0cf2914a4c06e2b41946ec9c9992a526afa", "blockhash": "0000000000000000000baef3f32e3676a92c3b2e5da21b426e4f302fc371ce76", "vout": [{"scriptPubKey": {"reqSigs": 1, "hex": "76a9147fde06d4782ae9bc2a8cf4777c5c1f434c6b84d088ac", "addresses": ["1Cf6o3hn8mgFoXwbi8ZZ3ryV19ry1ujCPo"], "asm": "OP_DUP OP_HASH160 7fde06d4782ae9bc2a8cf4777c5c1f434c6b84d0 OP_EQUALVERIFY OP_CHECKSIG", "type": "pubkeyhash"}, "value": 0.00198433, "n": 0}], "hex": "01000000000102e4e178e25c5b08f812d43942607caaccd1bdeefc5b58d7646bb95f9152038eeb01000000232200203892751a44fc8aae87da1d080044ecb8780f3a961dc0446154e08cbeb7178616ffffffff362d68f00de38d832e88cb7b07286d1fd3571976d6ea8a7c5acf6b81781ed7560b000000232200203892751a44fc8aae87da1d080044ecb8780f3a961dc0446154e08cbeb7178616ffffffff0121070300000000001976a9147fde06d4782ae9bc2a8cf4777c5c1f434c6b84d088ac0400483045022100c27b3ce65cb2ba9c9e257dfb3e72dc8cc829e169c1bba4a57a2920eaeaf1cee8022050eee9f3c0ca68367e427330fc70451b3b186b1821daa67e6fbd943e8b15729c01483045022100d7654a57cafba803aed81bd15a22a7f6c4e3830c6fd0cbc8876b2353ec494a1002207a8ef864f7ec2541a9d68e922f50de945bd7facf9b36eb5551b5760de75f1e2b01695221024f0f0944c62690c5c2422791fd07a64434236ef2c0aa53ae53d7bf26bc3cad8b210230791f57b15be37ee5745ca6192e2a8dbd7c88e9e88bda401e4d5a1f79f13c652102683e786e0b54e4a244749ffefb55b758ba5e1fa2020acc6d692fad6c139f32af53ae0400483045022100ebf890473dabb4f88a05027c8e077e9efc256b2ea7cb1d83eec1edb75fe67bef022006f054360830b591c7bc286efb871cbcc04514ee50764a3ad22683272224de2a01483045022100ed7d0c46d1c69ece3b241c4cdc613bcd257c1c27646d16d9d46bca750019efb002207693a551155537cf10dd64bac086fdafdd05160704d6b30609c270013f36e9cd01695221024f0f0944c62690c5c2422791fd07a64434236ef2c0aa53ae53d7bf26bc3cad8b210230791f57b15be37ee5745ca6192e2a8dbd7c88e9e88bda401e4d5a1f79f13c652102683e786e0b54e4a244749ffefb55b758ba5e1fa2020acc6d692fad6c139f32af53ae18490800", "vin": [{"txinwitness": ["", "3045022100c27b3ce65cb2ba9c9e257dfb3e72dc8cc829e169c1bba4a57a2920eaeaf1cee8022050eee9f3c0ca68367e427330fc70451b3b186b1821daa67e6fbd943e8b15729c01", "3045022100d7654a57cafba803aed81bd15a22a7f6c4e3830c6fd0cbc8876b2353ec494a1002207a8ef864f7ec2541a9d68e922f50de945bd7facf9b36eb5551b5760de75f1e2b01", "5221024f0f0944c62690c5c2422791fd07a64434236ef2c0aa53ae53d7bf26bc3cad8b210230791f57b15be37ee5745ca6192e2a8dbd7c88e9e88bda401e4d5a1f79f13c652102683e786e0b54e4a244749ffefb55b758ba5e1fa2020acc6d692fad6c139f32af53ae"], "sequence": 4294967295, "scriptSig": {"hex": "2200203892751a44fc8aae87da1d080044ecb8780f3a961dc0446154e08cbeb7178616", "asm": "00203892751a44fc8aae87da1d080044ecb8780f3a961dc0446154e08cbeb7178616"}, "vout": 1, "txid": "eb8e0352915fb96b64d7585bfceebdd1ccaa7c604239d412f8085b5ce278e1e4"}, {"txinwitness": ["", "3045022100ebf890473dabb4f88a05027c8e077e9efc256b2ea7cb1d83eec1edb75fe67bef022006f054360830b591c7bc286efb871cbcc04514ee50764a3ad22683272224de2a01", "3045022100ed7d0c46d1c69ece3b241c4cdc613bcd257c1c27646d16d9d46bca750019efb002207693a551155537cf10dd64bac086fdafdd05160704d6b30609c270013f36e9cd01", "5221024f0f0944c62690c5c2422791fd07a64434236ef2c0aa53ae53d7bf26bc3cad8b210230791f57b15be37ee5745ca6192e2a8dbd7c88e9e88bda401e4d5a1f79f13c652102683e786e0b54e4a244749ffefb55b758ba5e1fa2020acc6d692fad6c139f32af53ae"], "sequence": 4294967295, "scriptSig": {"hex": "2200203892751a44fc8aae87da1d080044ecb8780f3a961dc0446154e08cbeb7178616", "asm": "00203892751a44fc8aae87da1d080044ecb8780f3a961dc0446154e08cbeb7178616"}, "vout": 11, "txid": "56d71e78816bcf5a7c8aead6761957d31f6d28077bcb882e838de30df0682d36"}], "txid": "d02400478c7003fd0fe23f1dbb9ddd2a08b6efd58519ed7889c4c681aae83945", "blocktime": 1537876114, "version": 1, "confirmations": 11460, "time": 1537876114, "locktime": 543000, "vsize": 324, "size": 706}