{"hash": "d02806e8e2c0910fa2ea293f0f0bd63f848c12d1be7edd69006485642a8cb17f", "blockhash": "0000000000000000001e0dab787dd257d1dbfcb92a98c2207d5e1078be1f4165", "vout": [{"scriptPubKey": {"reqSigs": 1, "hex": "76a914499ed1adc73db95bb49a8cfc79719a49e3f3204088ac", "addresses": ["17iGawpiXaTGU8nRJqtDcPT1bhU1Eqon3V"], "asm": "OP_DUP OP_HASH160 499ed1adc73db95bb49a8cfc79719a49e3f32040 OP_EQUALVERIFY OP_CHECKSIG", "type": "pubkeyhash"}, "value": 0.0049582, "n": 0}, {"scriptPubKey": {"reqSigs": 1, "hex": "76a914c25aedc45f961c72b408acc148620b3b6d3e1a3c88ac", "addresses": ["1Jif24KsPEd3GYvV418Zh9kC4DCRhYaY9r"], "asm": "OP_DUP OP_HASH160 c25aedc45f961c72b408acc148620b3b6d3e1a3c OP_EQUALVERIFY OP_CHECKSIG", "type": "pubkeyhash"}, "value": 0.0028492, "n": 1}, {"scriptPubKey": {"reqSigs": 1, "hex": "76a914ae6d19986240384a0b4b918a808a0ffb2ee2e6b788ac", "addresses": ["1GuHGn8X41YopPocmxd8Jv4CiYmxym32x9"], "asm": "OP_DUP OP_HASH160 ae6d19986240384a0b4b918a808a0ffb2ee2e6b7 OP_EQUALVERIFY OP_CHECKSIG", "type": "pubkeyhash"}, "value": 0.0035512, "n": 2}, {"scriptPubKey": {"reqSigs": 1, "hex": "a914cc22876232d541b0a19b7acd4994a8e3c5f8175287", "addresses": ["3LJP8nNqdNxoyEPDriJYd8WoLN4fRFitfu"], "asm": "OP_HASH160 cc22876232d541b0a19b7acd4994a8e3c5f81752 OP_EQUAL", "type": "scripthash"}, "value": 0.0037831, "n": 3}, {"scriptPubKey": {"reqSigs": 1, "hex": "a9141dbd93d31f93d76f6a8aeee50252419959f6e22587", "addresses": ["34QGdBJ5D6h2TmjhhkD3Huj2j1xmeyF1hL"], "asm": "OP_HASH160 1dbd93d31f93d76f6a8aeee50252419959f6e225 OP_EQUAL", "type": "scripthash"}, "value": 0.0117508, "n": 4}, {"scriptPubKey": {"reqSigs": 1, "hex": "76a914d5727f30c2e05e6301d381ff0a8b09421b7a07b988ac", "addresses": ["1LTc6Eu8s9fy2zpsJRUjRHBF12th43N9je"], "asm": "OP_DUP OP_HASH160 d5727f30c2e05e6301d381ff0a8b09421b7a07b9 OP_EQUALVERIFY OP_CHECKSIG", "type": "pubkeyhash"}, "value": 0.00832997, "n": 5}], "hex": "01000000025e0686d4d451812f56a72efc1a03b877040cf730bbb2991a3939d969069afa6e050000006a47304402201a24f861ded8d6ddad3a22919d0340d65b4cb7cc2845eb88842ec894753405d002205b438a6128ab6f1f43d299694772a3f2705e5150797f87d0b713cdae83fb4119012102a54b6c425a974cba19782ff7ae9d2f63c388b8d4e48e0f78cadae72bc48cb5f1ffffffffbec9d44ca1a48adfeea105e85cb46c00ff28ff8903f08e2c9026c62a75e3fce1050000006a47304402206096c45f49b3c0060141bbd63f8afa8f56ca2b41d41102d145906d7400036d4a02201fa7f4a736806dbdd8e80f97a0fb4b029c5f7f5d98a615b824d526b744f710dc012102a54b6c425a974cba19782ff7ae9d2f63c388b8d4e48e0f78cadae72bc48cb5f1ffffffff06cc900700000000001976a914499ed1adc73db95bb49a8cfc79719a49e3f3204088acf8580400000000001976a914c25aedc45f961c72b408acc148620b3b6d3e1a3c88ac306b0500000000001976a914ae6d19986240384a0b4b918a808a0ffb2ee2e6b788acc6c505000000000017a914cc22876232d541b0a19b7acd4994a8e3c5f817528728ee11000000000017a9141dbd93d31f93d76f6a8aeee50252419959f6e22587e5b50c00000000001976a914d5727f30c2e05e6301d381ff0a8b09421b7a07b988ac00000000", "vin": [{"sequence": 4294967295, "scriptSig": {"hex": "47304402201a24f861ded8d6ddad3a22919d0340d65b4cb7cc2845eb88842ec894753405d002205b438a6128ab6f1f43d299694772a3f2705e5150797f87d0b713cdae83fb4119012102a54b6c425a974cba19782ff7ae9d2f63c388b8d4e48e0f78cadae72bc48cb5f1", "asm": "304402201a24f861ded8d6ddad3a22919d0340d65b4cb7cc2845eb88842ec894753405d002205b438a6128ab6f1f43d299694772a3f2705e5150797f87d0b713cdae83fb4119[ALL] 02a54b6c425a974cba19782ff7ae9d2f63c388b8d4e48e0f78cadae72bc48cb5f1"}, "vout": 5, "txid": "6efa9a0669d939391a99b2bb30f70c0477b8031afc2ea7562f8151d4d486065e"}, {"sequence": 4294967295, "scriptSig": {"hex": "47304402206096c45f49b3c0060141bbd63f8afa8f56ca2b41d41102d145906d7400036d4a02201fa7f4a736806dbdd8e80f97a0fb4b029c5f7f5d98a615b824d526b744f710dc012102a54b6c425a974cba19782ff7ae9d2f63c388b8d4e48e0f78cadae72bc48cb5f1", "asm": "304402206096c45f49b3c0060141bbd63f8afa8f56ca2b41d41102d145906d7400036d4a02201fa7f4a736806dbdd8e80f97a0fb4b029c5f7f5d98a615b824d526b744f710dc[ALL] 02a54b6c425a974cba19782ff7ae9d2f63c388b8d4e48e0f78cadae72bc48cb5f1"}, "vout": 5, "txid": "e1fce3752ac626902c8ef00389ff28ff006cb45ce805a1eedf8aa4a14cd4c9be"}], "txid": "d02806e8e2c0910fa2ea293f0f0bd63f848c12d1be7edd69006485642a8cb17f", "blocktime": 1537872475, "version": 1, "confirmations": 11486, "time": 1537872475, "locktime": 0, "vsize": 504, "size": 504}