{"hash": "d02c832449912bfa53605ff5a40372d75234d87c95ed8be6a03bf12ffbabdf1f", "blockhash": "0000000000000000000baef3f32e3676a92c3b2e5da21b426e4f302fc371ce76", "vout": [{"scriptPubKey": {"type": "nulldata", "hex": "6a4c5000007833000113ebaf7cd9b676bc920c422527b7256b4774d339f6019d6ddc0f1b8ff117d7172aea7977eb95a7abebfedd1ec6c05baa1fb806141a05a5bf87141d100759d4ba30d2c37bb011d97e02cf", "asm": "OP_RETURN 00007833000113ebaf7cd9b676bc920c422527b7256b4774d339f6019d6ddc0f1b8ff117d7172aea7977eb95a7abebfedd1ec6c05baa1fb806141a05a5bf87141d100759d4ba30d2c37bb011d97e02cf"}, "value": 0.0, "n": 0}, {"scriptPubKey": {"reqSigs": 1, "hex": "76a914918eba76dc79248ae29f53205f53303d9e523f6288ac", "addresses": ["1EGdxku2E5iHgmJHww1BDN3DRkcEVyRdMD"], "asm": "OP_DUP OP_HASH160 918eba76dc79248ae29f53205f53303d9e523f62 OP_EQUALVERIFY OP_CHECKSIG", "type": "pubkeyhash"}, "value": 0.00628235, "n": 1}], "hex": "01000000018fa66127a6b0d7cdd559d848998b6b46f8ee2de3009cd02c14af1f6e597debdb010000006b483045022100cdfc703c294691ea5d8227bcb7be36453b7ba42d0cdf86840fa5f95abd60adfd0220508a129191577af48ac927f91f09dc81b49e7eb05b4684b51d3f52d9fdd72adc0121020c49798c3ce97a77556aecfb42712b6164918ba5e5397016717d830331a58b05ffffffff020000000000000000536a4c5000007833000113ebaf7cd9b676bc920c422527b7256b4774d339f6019d6ddc0f1b8ff117d7172aea7977eb95a7abebfedd1ec6c05baa1fb806141a05a5bf87141d100759d4ba30d2c37bb011d97e02cf0b960900000000001976a914918eba76dc79248ae29f53205f53303d9e523f6288ac00000000", "vin": [{"sequence": 4294967295, "scriptSig": {"hex": "483045022100cdfc703c294691ea5d8227bcb7be36453b7ba42d0cdf86840fa5f95abd60adfd0220508a129191577af48ac927f91f09dc81b49e7eb05b4684b51d3f52d9fdd72adc0121020c49798c3ce97a77556aecfb42712b6164918ba5e5397016717d830331a58b05", "asm": "3045022100cdfc703c294691ea5d8227bcb7be36453b7ba42d0cdf86840fa5f95abd60adfd0220508a129191577af48ac927f91f09dc81b49e7eb05b4684b51d3f52d9fdd72adc[ALL] 020c49798c3ce97a77556aecfb42712b6164918ba5e5397016717d830331a58b05"}, "vout": 1, "txid": "dbeb7d596e1faf142cd09c00e32deef8466b8b9948d859d5cdd7b0a62761a68f"}], "txid": "d02c832449912bfa53605ff5a40372d75234d87c95ed8be6a03bf12ffbabdf1f", "blocktime": 1537876114, "version": 1, "confirmations": 11463, "time": 1537876114, "locktime": 0, "vsize": 284, "size": 284}