{"hash": "d02e8680fdf8fe0fbc6a4acb343b29ddc7bff939522598d22dea529396f69a71", "blockhash": "0000000000000000001cda96e906b7601b7a6fb1a3b62bca570a9e5d8f4b3de1", "vout": [{"scriptPubKey": {"reqSigs": 1, "hex": "76a914408752eaa926256b405f6404ef68195b6dd043be88ac", "addresses": ["16tCMkGosDV3gghycpnXp2tTYjag44rzuy"], "asm": "OP_DUP OP_HASH160 408752eaa926256b405f6404ef68195b6dd043be OP_EQUALVERIFY OP_CHECKSIG", "type": "pubkeyhash"}, "value": 0.01536, "n": 0}, {"scriptPubKey": {"reqSigs": 1, "hex": "a914e370231feecbfc25e2e2423a5a79bf79bfdca59887", "addresses": ["3NRbeX3vD5VaVE4TDU9ivCDsEf7NPPte6J"], "asm": "OP_HASH160 e370231feecbfc25e2e2423a5a79bf79bfdca598 OP_EQUAL", "type": "scripthash"}, "value": 11.5141666, "n": 1}], "hex": "01000000019530c6101d8dcf7fb39bc0bfb71269186b0d1a173bb74c2b64a3626b3ffb3fba01000000da0047304402200bf625561106a30143fc0cf5dba7c3c7d97d8fbd5d8e5722de130808cd913a0c022039751cafa71f6e1d6a9c72bd462733016b334c2eda62157086f56e6f499d70da014830450221008a0474c74f206b7e46efb2374db37244c68d426747e33c6b83efd9f5b1ed591a02204da598c5ce278fc54ba80ffa42ff06e91c93cfae1dab71dfd1014179a5c23095014752210327881b6abce6535553a3ce21fad12a7d74fd237ce7c4cd270a267162344e3082210256141f8eb687f5a68c5cc65054652dc25116fa285e44d72b44368827ffe77d9a52aeffffffff0200701700000000001976a914408752eaa926256b405f6404ef68195b6dd043be88ac5439a1440000000017a914e370231feecbfc25e2e2423a5a79bf79bfdca5988700000000", "vin": [{"sequence": 4294967295, "scriptSig": {"hex": "0047304402200bf625561106a30143fc0cf5dba7c3c7d97d8fbd5d8e5722de130808cd913a0c022039751cafa71f6e1d6a9c72bd462733016b334c2eda62157086f56e6f499d70da014830450221008a0474c74f206b7e46efb2374db37244c68d426747e33c6b83efd9f5b1ed591a02204da598c5ce278fc54ba80ffa42ff06e91c93cfae1dab71dfd1014179a5c23095014752210327881b6abce6535553a3ce21fad12a7d74fd237ce7c4cd270a267162344e3082210256141f8eb687f5a68c5cc65054652dc25116fa285e44d72b44368827ffe77d9a52ae", "asm": "0 304402200bf625561106a30143fc0cf5dba7c3c7d97d8fbd5d8e5722de130808cd913a0c022039751cafa71f6e1d6a9c72bd462733016b334c2eda62157086f56e6f499d70da[ALL] 30450221008a0474c74f206b7e46efb2374db37244c68d426747e33c6b83efd9f5b1ed591a02204da598c5ce278fc54ba80ffa42ff06e91c93cfae1dab71dfd1014179a5c23095[ALL] 52210327881b6abce6535553a3ce21fad12a7d74fd237ce7c4cd270a267162344e3082210256141f8eb687f5a68c5cc65054652dc25116fa285e44d72b44368827ffe77d9a52ae"}, "vout": 1, "txid": "ba3ffb3f6b62a3642b4cb73b171a0d6b186912b7bfc09bb37fcf8d1d10c63095"}], "txid": "d02e8680fdf8fe0fbc6a4acb343b29ddc7bff939522598d22dea529396f69a71", "blocktime": 1537873282, "version": 1, "confirmations": 11484, "time": 1537873282, "locktime": 0, "vsize": 335, "size": 335}