{"hash": "bbc5655a9f1057eb8ab3a151ce46bd85c1c4ede89e611cafd484318cac4cc29e", "blockhash": "0000000000000000001f76057863aec43deb6fa401d9628bb513d65a8098bfab", "vout": [{"scriptPubKey": {"reqSigs": 1, "hex": "76a914026d04ab7dd16aedd9ef7e2fbecbfe8b9af63f0288ac", "addresses": ["1Dpx72VVLr8BPRg4X6KNURJf3jjyv7oxC"], "asm": "OP_DUP OP_HASH160 026d04ab7dd16aedd9ef7e2fbecbfe8b9af63f02 OP_EQUALVERIFY OP_CHECKSIG", "type": "pubkeyhash"}, "value": 0.00020909, "n": 0}, {"scriptPubKey": {"reqSigs": 1, "hex": "a914f5342287aaa57f5c05756dbd5ef14091cc70030f87", "addresses": ["3Q3XvwKWsx3ocmCXheK6pAo5ieooFx75hh"], "asm": "OP_HASH160 f5342287aaa57f5c05756dbd5ef14091cc70030f OP_EQUAL", "type": "scripthash"}, "value": 0.08900977, "n": 1}], "hex": "0100000000010105da3aadecc77e35d32ceb5ef778f0bf0e0e7abaa7a1ee9bacd5ba5bf7b1847201000000232200204fd7968ffe15cb453352a1e9ee2915eff8b6d6252d5a351f9092b82ca10eb12cffffffff02ad510000000000001976a914026d04ab7dd16aedd9ef7e2fbecbfe8b9af63f0288ac71d187000000000017a914f5342287aaa57f5c05756dbd5ef14091cc70030f870400473044022077cd3268b674fe5d952706ffe9eff16c0174f11fc5edd0407b1797b5235bd84602207e09c8180fb549098d5e4fb8937c49df7c0088a44d0cb95a6206c7cfa1ea4f3601483045022100cee82fb746fa8e23b2e85f9ae07cf1511b95ac4c2b86e35fccaa78948755022a022043cfc110c611a0badce3854e24c5cd61518dd75a16b092bcbcf4607f3adc21a20147522103b70e79262cbb7310fe069dea7c473b53276b75c67fb841ff66279f152a3fe0172103871fc2ca08e6950b38867e8e6a0e94ee625223d3aa0df5c65f414c6d784467e252ae00000000", "vin": [{"txinwitness": ["", "3044022077cd3268b674fe5d952706ffe9eff16c0174f11fc5edd0407b1797b5235bd84602207e09c8180fb549098d5e4fb8937c49df7c0088a44d0cb95a6206c7cfa1ea4f3601", "3045022100cee82fb746fa8e23b2e85f9ae07cf1511b95ac4c2b86e35fccaa78948755022a022043cfc110c611a0badce3854e24c5cd61518dd75a16b092bcbcf4607f3adc21a201", "522103b70e79262cbb7310fe069dea7c473b53276b75c67fb841ff66279f152a3fe0172103871fc2ca08e6950b38867e8e6a0e94ee625223d3aa0df5c65f414c6d784467e252ae"], "sequence": 4294967295, "scriptSig": {"hex": "2200204fd7968ffe15cb453352a1e9ee2915eff8b6d6252d5a351f9092b82ca10eb12c", "asm": "00204fd7968ffe15cb453352a1e9ee2915eff8b6d6252d5a351f9092b82ca10eb12c"}, "vout": 1, "txid": "7284b1f75bbad5ac9beea1a7ba7a0e0ebff078f75eeb2cd3357ec7ecad3ada05"}], "txid": "d02f01ecf7f541932e2ae6cc3fa51721011ffe655aeec23f54b844ed8ad2cc72", "blocktime": 1537873891, "version": 1, "confirmations": 11478, "time": 1537873891, "locktime": 0, "vsize": 208, "size": 373}