{"hash": "d03969f6d53575dd52f5e1269d969db2cbdde8b4b9d53718020f6ac0a444b6fd", "blockhash": "0000000000000000000e13cef7c366c0283d82e591d1acd082e914b08063cdf1", "vout": [{"scriptPubKey": {"reqSigs": 1, "hex": "a914624602274f11fa89798ec6013c28fc4af3399fd987", "addresses": ["3Aee1cW3UQ8nnoJ1zvmPuuYrrHc5JVxxZp"], "asm": "OP_HASH160 624602274f11fa89798ec6013c28fc4af3399fd9 OP_EQUAL", "type": "scripthash"}, "value": 0.00528, "n": 0}, {"scriptPubKey": {"reqSigs": 1, "hex": "76a9146586ced214191eaee684bf8787713d2671eff5aa88ac", "addresses": ["1AFpjzWNNtmMamjbbSSNLiVdktzrYMspCQ"], "asm": "OP_DUP OP_HASH160 6586ced214191eaee684bf8787713d2671eff5aa OP_EQUALVERIFY OP_CHECKSIG", "type": "pubkeyhash"}, "value": 0.30027349, "n": 1}], "hex": "02000000014b7bf21e13145ca53db4379dc79229703f9efd18478df0499e9dd36856b2f56b010000006a47304402206b2436c2d87f05bf8f5ed845fb3eea54e890228220b7b1c31eb2aa832f32c27a02205c25f40a4d93de4dd0967b6aaecf7b25c5f8aa4121fb7ac875f5c6859607e42401210210dac65f236a05432a1dbd2f909aa1c6e1870304203e734e8d07db9b57443d46ffffffff02800e08000000000017a914624602274f11fa89798ec6013c28fc4af3399fd987552eca01000000001976a9146586ced214191eaee684bf8787713d2671eff5aa88ac00000000", "vin": [{"sequence": 4294967295, "scriptSig": {"hex": "47304402206b2436c2d87f05bf8f5ed845fb3eea54e890228220b7b1c31eb2aa832f32c27a02205c25f40a4d93de4dd0967b6aaecf7b25c5f8aa4121fb7ac875f5c6859607e42401210210dac65f236a05432a1dbd2f909aa1c6e1870304203e734e8d07db9b57443d46", "asm": "304402206b2436c2d87f05bf8f5ed845fb3eea54e890228220b7b1c31eb2aa832f32c27a02205c25f40a4d93de4dd0967b6aaecf7b25c5f8aa4121fb7ac875f5c6859607e424[ALL] 0210dac65f236a05432a1dbd2f909aa1c6e1870304203e734e8d07db9b57443d46"}, "vout": 1, "txid": "6bf5b25668d39d9e49f08d4718fd9e3f702992c79d37b43da55c14131ef27b4b"}], "txid": "d03969f6d53575dd52f5e1269d969db2cbdde8b4b9d53718020f6ac0a444b6fd", "blocktime": 1537871767, "version": 2, "confirmations": 11493, "time": 1537871767, "locktime": 0, "vsize": 223, "size": 223}