{"hash": "d03c8478bf1e6682987c63436f3dd143ba552f2a12105a30a55c5807787a81c1", "blockhash": "0000000000000000001cda96e906b7601b7a6fb1a3b62bca570a9e5d8f4b3de1", "vout": [{"scriptPubKey": {"type": "nulldata", "hex": "6a4c50000077c500011ac8685b23cc0f42c2fc38c5e5bf9ae76da98a211aaf6c953dd567cf27e7dd8adcd0cd4bfb78da54f1f70f6253cd5baa134c06136d4758d12efc1d100759d4ba30d2c37bb011d97e02cf", "asm": "OP_RETURN 000077c500011ac8685b23cc0f42c2fc38c5e5bf9ae76da98a211aaf6c953dd567cf27e7dd8adcd0cd4bfb78da54f1f70f6253cd5baa134c06136d4758d12efc1d100759d4ba30d2c37bb011d97e02cf"}, "value": 0.0, "n": 0}, {"scriptPubKey": {"reqSigs": 1, "hex": "76a914b0b1ba35500b39c502b17be34a3dc1652683016988ac", "addresses": ["1H7GqUehkjt3TByM5BMufzC5GvTUv4dKir"], "asm": "OP_DUP OP_HASH160 b0b1ba35500b39c502b17be34a3dc16526830169 OP_EQUALVERIFY OP_CHECKSIG", "type": "pubkeyhash"}, "value": 0.00639106, "n": 1}], "hex": "0100000001286aba526deca42c9c8db141685e4bdba355ffa4ec95c03188e855f629dc6a58010000006b48304502210098dde209c8520b88a82e27af86ecb1f5a687d6a9ae36f848e9acc45478784c5c02204a1d91e92641fab3cb61f69e01c4230b16145f6e1b861be2455878feaafedd5e012103faca1271e5d78ea741351619e7a424a8fec809b2388a63429834c1a95415b2cbffffffff020000000000000000536a4c50000077c500011ac8685b23cc0f42c2fc38c5e5bf9ae76da98a211aaf6c953dd567cf27e7dd8adcd0cd4bfb78da54f1f70f6253cd5baa134c06136d4758d12efc1d100759d4ba30d2c37bb011d97e02cf82c00900000000001976a914b0b1ba35500b39c502b17be34a3dc1652683016988ac00000000", "vin": [{"sequence": 4294967295, "scriptSig": {"hex": "48304502210098dde209c8520b88a82e27af86ecb1f5a687d6a9ae36f848e9acc45478784c5c02204a1d91e92641fab3cb61f69e01c4230b16145f6e1b861be2455878feaafedd5e012103faca1271e5d78ea741351619e7a424a8fec809b2388a63429834c1a95415b2cb", "asm": "304502210098dde209c8520b88a82e27af86ecb1f5a687d6a9ae36f848e9acc45478784c5c02204a1d91e92641fab3cb61f69e01c4230b16145f6e1b861be2455878feaafedd5e[ALL] 03faca1271e5d78ea741351619e7a424a8fec809b2388a63429834c1a95415b2cb"}, "vout": 1, "txid": "586adc29f655e88831c095eca4ff55a3db4b5e6841b18d9c2ca4ec6d52ba6a28"}], "txid": "d03c8478bf1e6682987c63436f3dd143ba552f2a12105a30a55c5807787a81c1", "blocktime": 1537873282, "version": 1, "confirmations": 11484, "time": 1537873282, "locktime": 0, "vsize": 284, "size": 284}