{"hash": "d04d482e90dd9e5502bf25bc6ea9d7cefa224dbbcb8cdc1d0dcf2cc6cb9267b4", "blockhash": "0000000000000000000baef3f32e3676a92c3b2e5da21b426e4f302fc371ce76", "vout": [{"scriptPubKey": {"reqSigs": 1, "hex": "76a914219134660ab0dfbd86c19a0e29ab4efdb711eaf088ac", "addresses": ["144VFL4MbekexFSWFXZRASn47LYdDSjENF"], "asm": "OP_DUP OP_HASH160 219134660ab0dfbd86c19a0e29ab4efdb711eaf0 OP_EQUALVERIFY OP_CHECKSIG", "type": "pubkeyhash"}, "value": 0.03871365, "n": 0}, {"scriptPubKey": {"reqSigs": 1, "hex": "76a91496d3d4ce06a85f51d77bc546d098d9d18285b93f88ac", "addresses": ["1EkW851bPa8yrn1QCHBZAo5R6eGZkmtwVG"], "asm": "OP_DUP OP_HASH160 96d3d4ce06a85f51d77bc546d098d9d18285b93f OP_EQUALVERIFY OP_CHECKSIG", "type": "pubkeyhash"}, "value": 0.2010788, "n": 1}], "hex": "0100000001f39301a0d9b5b8a8c3daf356190a9afa6a7c016cdc674e230a34464833775b6b000000006b483045022100dc2ef6fd25c2f3260a15381cd990398430c9898fcceec02d07eb14f40e534a3c022011b256e18d6b68521b72e09c8734b6faad7b75bdafe866d0bc75f6514cfc3b8c0121027c98b93cb7ad5ddbd1cde535641e04760d522fe2e158e67a87ff6553792bb965fdffffff0285123b00000000001976a914219134660ab0dfbd86c19a0e29ab4efdb711eaf088ac68d23201000000001976a91496d3d4ce06a85f51d77bc546d098d9d18285b93f88ac00000000", "vin": [{"sequence": 4294967293, "scriptSig": {"hex": "483045022100dc2ef6fd25c2f3260a15381cd990398430c9898fcceec02d07eb14f40e534a3c022011b256e18d6b68521b72e09c8734b6faad7b75bdafe866d0bc75f6514cfc3b8c0121027c98b93cb7ad5ddbd1cde535641e04760d522fe2e158e67a87ff6553792bb965", "asm": "3045022100dc2ef6fd25c2f3260a15381cd990398430c9898fcceec02d07eb14f40e534a3c022011b256e18d6b68521b72e09c8734b6faad7b75bdafe866d0bc75f6514cfc3b8c[ALL] 027c98b93cb7ad5ddbd1cde535641e04760d522fe2e158e67a87ff6553792bb965"}, "vout": 0, "txid": "6b5b77334846340a234e67dc6c017c6afa9a0a1956f3dac3a8b8b5d9a00193f3"}], "txid": "d04d482e90dd9e5502bf25bc6ea9d7cefa224dbbcb8cdc1d0dcf2cc6cb9267b4", "blocktime": 1537876114, "version": 1, "confirmations": 11460, "time": 1537876114, "locktime": 0, "vsize": 226, "size": 226}