{"hash": "5ad379d21cd00bd4da00b896ce8103a9f588b2add65944ef08be705723820529", "blockhash": "0000000000000000001f76057863aec43deb6fa401d9628bb513d65a8098bfab", "vout": [{"scriptPubKey": {"reqSigs": 1, "hex": "a914caeadb7d66af908eec6fd48a4496337a5e58194c87", "addresses": ["3LBwmUEzJCoZLz3n8FUNtqmf17UwevGdxv"], "asm": "OP_HASH160 caeadb7d66af908eec6fd48a4496337a5e58194c OP_EQUAL", "type": "scripthash"}, "value": 0.00024, "n": 0}, {"scriptPubKey": {"reqSigs": 1, "hex": "a914465b35e0944a0dc721e7f4f1b6dce8a75c73a5df87", "addresses": ["3872VPKT4KSvdsSBNRF4DVaUkP6MPwwM1W"], "asm": "OP_HASH160 465b35e0944a0dc721e7f4f1b6dce8a75c73a5df OP_EQUAL", "type": "scripthash"}, "value": 0.0325, "n": 1}, {"scriptPubKey": {"reqSigs": 1, "hex": "a914986f6bdc06ebc0cd345fbcef9903cbfe93fcf95087", "addresses": ["3Fb27Pf3TTUjqHb2PtGsPmivdcthanTnVt"], "asm": "OP_HASH160 986f6bdc06ebc0cd345fbcef9903cbfe93fcf950 OP_EQUAL", "type": "scripthash"}, "value": 0.94195813, "n": 2}, {"scriptPubKey": {"reqSigs": 1, "hex": "76a91402a344e4aa93126f954066047aee9e752a3058e188ac", "addresses": ["1EwwXCGGAznJuzCsYcd98YmsaXtezvQqv"], "asm": "OP_DUP OP_HASH160 02a344e4aa93126f954066047aee9e752a3058e1 OP_EQUALVERIFY OP_CHECKSIG", "type": "pubkeyhash"}, "value": 0.00312265, "n": 3}, {"scriptPubKey": {"reqSigs": 1, "hex": "76a91473a93942744c5acdfeaa8c1e707186ed17715d5288ac", "addresses": ["1BYZRvnE8LE135XS3BVaQWy5uKhYbDEHji"], "asm": "OP_DUP OP_HASH160 73a93942744c5acdfeaa8c1e707186ed17715d52 OP_EQUALVERIFY OP_CHECKSIG", "type": "pubkeyhash"}, "value": 0.02667995, "n": 4}], "hex": "01000000000101a61ee21e3ec08d1960c24c6134414d953d322a38f1e71f34a4a3f5cef2ba72bd010000002322002001850ec2063ead1c875ff6d8e597c7429196436e6922c8564822550368cee644ffffffff05c05d00000000000017a914caeadb7d66af908eec6fd48a4496337a5e58194c87509731000000000017a914465b35e0944a0dc721e7f4f1b6dce8a75c73a5df8765509d050000000017a914986f6bdc06ebc0cd345fbcef9903cbfe93fcf95087c9c30400000000001976a91402a344e4aa93126f954066047aee9e752a3058e188acdbb52800000000001976a91473a93942744c5acdfeaa8c1e707186ed17715d5288ac0400473044022069948b5a464eba77a017776028455a430e31f4f0b49f85f55c0882330b30526302203aa060a85fc3c0d3cd9b5e2b527f91c058f80cdfdbd31f19e9bdd86dfe3898780148304502210090eada526f87a7703cf9ff322985e6fd2cb648c81a62a06ee83a60e8299e6d63022054c29ca762d9b86f1b6cfff126264599189fc8958cdcc23d135af7e31e23a9ea0169522103a8f8cc080483bb5769bc0ba4d72d675eb7f83357be1e63f028d4c1395521419d2102713ec8feef432cef2ea4540b2af56d537f2051c3f8b779e32b05fcefe9768d0d2103030c797f34c623b9140e8922c91819f76dc4298edeac471cf8ece98abdecc76453ae00000000", "vin": [{"txinwitness": ["", "3044022069948b5a464eba77a017776028455a430e31f4f0b49f85f55c0882330b30526302203aa060a85fc3c0d3cd9b5e2b527f91c058f80cdfdbd31f19e9bdd86dfe38987801", "304502210090eada526f87a7703cf9ff322985e6fd2cb648c81a62a06ee83a60e8299e6d63022054c29ca762d9b86f1b6cfff126264599189fc8958cdcc23d135af7e31e23a9ea01", "522103a8f8cc080483bb5769bc0ba4d72d675eb7f83357be1e63f028d4c1395521419d2102713ec8feef432cef2ea4540b2af56d537f2051c3f8b779e32b05fcefe9768d0d2103030c797f34c623b9140e8922c91819f76dc4298edeac471cf8ece98abdecc76453ae"], "sequence": 4294967295, "scriptSig": {"hex": "22002001850ec2063ead1c875ff6d8e597c7429196436e6922c8564822550368cee644", "asm": "002001850ec2063ead1c875ff6d8e597c7429196436e6922c8564822550368cee644"}, "vout": 1, "txid": "bd72baf2cef5a3a4341fe7f1382a323d954d4134614cc260198dc03e1ee21ea6"}], "txid": "d052668b500b1c386847b9dc69ad28c93a55bb6da06e63c18c8f3fc59cba6a8c", "blocktime": 1537873891, "version": 1, "confirmations": 11478, "time": 1537873891, "locktime": 0, "vsize": 314, "size": 505}