{"hash": "d0560006e3ec5b0998309e5a6bba961ec438c11f3266f16da7d485e8c263e694", "blockhash": "0000000000000000001cda96e906b7601b7a6fb1a3b62bca570a9e5d8f4b3de1", "vout": [{"scriptPubKey": {"reqSigs": 1, "hex": "76a914871d10eda8b464ad330ae9f9aedb5f85360b3e1588ac", "addresses": ["1DKR3SvcqdPoQnEqZu6Cb1q9DBYNTXhG7Q"], "asm": "OP_DUP OP_HASH160 871d10eda8b464ad330ae9f9aedb5f85360b3e15 OP_EQUALVERIFY OP_CHECKSIG", "type": "pubkeyhash"}, "value": 0.02346858, "n": 0}, {"scriptPubKey": {"reqSigs": 1, "hex": "76a91418d5721cfd7b0e4efa9ca07a369107a07e1b5dd088ac", "addresses": ["13GJv5MD8edtot59nXvsbCwybzDHEiGw6N"], "asm": "OP_DUP OP_HASH160 18d5721cfd7b0e4efa9ca07a369107a07e1b5dd0 OP_EQUALVERIFY OP_CHECKSIG", "type": "pubkeyhash"}, "value": 0.09505213, "n": 1}], "hex": "0100000001a5177af7a38ae16f2f9c58e6323f737a86c94b18f92e394df96b2bfddb3f9ed1030000006b483045022100c3e5a18b784d4bc90c35f8f68dbfd810e3224c5481693407695bb43c72758e7a02201c728ee65b7dcd028aabb468aa609f2f10e9c5ffe2e4aa534384d00a66f0472e01210300c144a5d0d84b9195ec4eb34862a1a9b9e10afabda60e9227c6008124ca8fbaffffffff026acf2300000000001976a914871d10eda8b464ad330ae9f9aedb5f85360b3e1588acbd099100000000001976a91418d5721cfd7b0e4efa9ca07a369107a07e1b5dd088ac00000000", "vin": [{"sequence": 4294967295, "scriptSig": {"hex": "483045022100c3e5a18b784d4bc90c35f8f68dbfd810e3224c5481693407695bb43c72758e7a02201c728ee65b7dcd028aabb468aa609f2f10e9c5ffe2e4aa534384d00a66f0472e01210300c144a5d0d84b9195ec4eb34862a1a9b9e10afabda60e9227c6008124ca8fba", "asm": "3045022100c3e5a18b784d4bc90c35f8f68dbfd810e3224c5481693407695bb43c72758e7a02201c728ee65b7dcd028aabb468aa609f2f10e9c5ffe2e4aa534384d00a66f0472e[ALL] 0300c144a5d0d84b9195ec4eb34862a1a9b9e10afabda60e9227c6008124ca8fba"}, "vout": 3, "txid": "d19e3fdbfd2b6bf94d392ef9184bc9867a733f32e6589c2f6fe18aa3f77a17a5"}], "txid": "d0560006e3ec5b0998309e5a6bba961ec438c11f3266f16da7d485e8c263e694", "blocktime": 1537873282, "version": 1, "confirmations": 11485, "time": 1537873282, "locktime": 0, "vsize": 226, "size": 226}