{"hash": "3b5bf2fd56ab8d7e0af07f7ce112bf09edee3fc0b65de7781048d899c401b062", "blockhash": "00000000000000000017f5eb5941039fbcee6240d03bc1f2f8e35350df66a1d8", "vout": [{"scriptPubKey": {"reqSigs": 1, "hex": "76a91428a10c59b3716e97e7b0a60d2591f94812287d0f88ac", "addresses": ["14hpxW5aiWmx1QdBcxFhiiBHsTwqRjZjwP"], "asm": "OP_DUP OP_HASH160 28a10c59b3716e97e7b0a60d2591f94812287d0f OP_EQUALVERIFY OP_CHECKSIG", "type": "pubkeyhash"}, "value": 0.0026346, "n": 0}, {"scriptPubKey": {"reqSigs": 1, "hex": "a914018d7d0bac1e9b72af70bb063e2b6b6a4032860e87", "addresses": ["31qE6XU1GjkGUEANsMRXHv5ZXyDNw4gisE"], "asm": "OP_HASH160 018d7d0bac1e9b72af70bb063e2b6b6a4032860e OP_EQUAL", "type": "scripthash"}, "value": 0.00999903, "n": 1}], "hex": "0200000000010263a59247bf448697908e8e400ab2611c02668bc25d1853e0fbc8d12952864eca0e00000017160014a9629dfd941aa4de67ddec42418430c178c7d936fefffffff72e6fbfa9ab6b4b742bdde12780ca8ce41f7789da860c81c2eff91f2b58ed580000000017160014833837399627d97ff074231f5ae59ab331ef77a7feffffff0224050400000000001976a91428a10c59b3716e97e7b0a60d2591f94812287d0f88acdf410f000000000017a914018d7d0bac1e9b72af70bb063e2b6b6a4032860e870248304502210087c04d1ff16807bc6575a3d8cf6789ca8266dade6d0a4eedaa5136c96daf5475022016e9f72e6ac416c59c82a513c82334393967413004e1fb09d5ac2731af058ae50121034fa4a4283414ce996e6f2bb182647e92be77939db59beceeed8ecb09bdd2aabd0247304402205d16d27d08b6bb95eab9f73f8b141c6ce11c8d9820f7d579e98c128ac1c757330220040bf6ea6b8d2245bd18944b863109c4a76556ccc1140ae8c55577341261ce96012103ab97ff8439a6bcffe04533964369a1631b5e52e1e4d172b66bbce85192f6108d15490800", "vin": [{"txinwitness": ["304502210087c04d1ff16807bc6575a3d8cf6789ca8266dade6d0a4eedaa5136c96daf5475022016e9f72e6ac416c59c82a513c82334393967413004e1fb09d5ac2731af058ae501", "034fa4a4283414ce996e6f2bb182647e92be77939db59beceeed8ecb09bdd2aabd"], "sequence": 4294967294, "scriptSig": {"hex": "160014a9629dfd941aa4de67ddec42418430c178c7d936", "asm": "0014a9629dfd941aa4de67ddec42418430c178c7d936"}, "vout": 14, "txid": "ca4e865229d1c8fbe053185dc28b66021c61b20a408e8e90978644bf4792a563"}, {"txinwitness": ["304402205d16d27d08b6bb95eab9f73f8b141c6ce11c8d9820f7d579e98c128ac1c757330220040bf6ea6b8d2245bd18944b863109c4a76556ccc1140ae8c55577341261ce9601", "03ab97ff8439a6bcffe04533964369a1631b5e52e1e4d172b66bbce85192f6108d"], "sequence": 4294967294, "scriptSig": {"hex": "160014833837399627d97ff074231f5ae59ab331ef77a7", "asm": "0014833837399627d97ff074231f5ae59ab331ef77a7"}, "vout": 0, "txid": "58ed582b1ff9efc2810c86da89771fe48cca8027e1dd2b744b6baba9bf6f2ef7"}], "txid": "d05af83fe5066c7d17e50de412e4befd88d3221781d0e6038f213f6f0dab55c6", "blocktime": 1537874412, "version": 2, "confirmations": 11468, "time": 1537874412, "locktime": 542997, "vsize": 259, "size": 421}