{"hash": "d061125380f21f809789c8dfee88da856fa2e213d2b45079bbac4569c8575b61", "blockhash": "00000000000000000004ffacab907a6b429b9a5745fa0b75af4234bf69dd7176", "vout": [{"scriptPubKey": {"reqSigs": 1, "hex": "a9142c13fb162c047e53e2d8e1585927880b2420cc0287", "addresses": ["35i5bGui5Dcie7e38xWbfeoqapehRps3U1"], "asm": "OP_HASH160 2c13fb162c047e53e2d8e1585927880b2420cc02 OP_EQUAL", "type": "scripthash"}, "value": 0.00035397, "n": 0}, {"scriptPubKey": {"reqSigs": 1, "hex": "76a9149874f3f826ef04555fe09fbd8b72a88ec294638488ac", "addresses": ["1Eu7pCLcyQgxJvTgccyaLNmV2fiveMTLjr"], "asm": "OP_DUP OP_HASH160 9874f3f826ef04555fe09fbd8b72a88ec2946384 OP_EQUALVERIFY OP_CHECKSIG", "type": "pubkeyhash"}, "value": 0.00150244, "n": 1}], "hex": "010000000124c9999ac5b3b78eb855f5128cad8e9e43c23f3369142efa65d1e59a7caf5a73010000006b483045022100c7a01744158ba233615d9f26eb70e3efac36a19fea916f2e8f84b23028b6ed2b02203a714e565d52a692eb7897744bdd5b2390104f99a0d7253dbe2d0c835a251fa80121021e9b21db2c9c22b5ecb1da4bfd2c96c025d1d0d033069a11228d016020c94c40ffffffff02458a00000000000017a9142c13fb162c047e53e2d8e1585927880b2420cc0287e44a0200000000001976a9149874f3f826ef04555fe09fbd8b72a88ec294638488ac00000000", "vin": [{"sequence": 4294967295, "scriptSig": {"hex": "483045022100c7a01744158ba233615d9f26eb70e3efac36a19fea916f2e8f84b23028b6ed2b02203a714e565d52a692eb7897744bdd5b2390104f99a0d7253dbe2d0c835a251fa80121021e9b21db2c9c22b5ecb1da4bfd2c96c025d1d0d033069a11228d016020c94c40", "asm": "3045022100c7a01744158ba233615d9f26eb70e3efac36a19fea916f2e8f84b23028b6ed2b02203a714e565d52a692eb7897744bdd5b2390104f99a0d7253dbe2d0c835a251fa8[ALL] 021e9b21db2c9c22b5ecb1da4bfd2c96c025d1d0d033069a11228d016020c94c40"}, "vout": 1, "txid": "735aaf7c9ae5d165fa2e1469333fc2439e8ead8c12f555b88eb7b3c59a99c924"}], "txid": "d061125380f21f809789c8dfee88da856fa2e213d2b45079bbac4569c8575b61", "blocktime": 1537875543, "version": 1, "confirmations": 11464, "time": 1537875543, "locktime": 0, "vsize": 224, "size": 224}