{"hash": "d062a1641b6a43575fcaa9424724e31d064a3efca8751b1db11b9a6454f03b4a", "blockhash": "0000000000000000001cda96e906b7601b7a6fb1a3b62bca570a9e5d8f4b3de1", "vout": [{"scriptPubKey": {"reqSigs": 1, "hex": "76a914cff5fb750bc48054d02902548ea80e9c040dd15a88ac", "addresses": ["1KxbYrdBbHaSSVtJozW36sP7DdAtGLL68y"], "asm": "OP_DUP OP_HASH160 cff5fb750bc48054d02902548ea80e9c040dd15a OP_EQUALVERIFY OP_CHECKSIG", "type": "pubkeyhash"}, "value": 0.03645228, "n": 0}, {"scriptPubKey": {"type": "nulldata", "hex": "6a146f6d6e69000000000000001f000000067a1bc41c", "asm": "OP_RETURN 6f6d6e69000000000000001f000000067a1bc41c"}, "value": 0.0, "n": 1}, {"scriptPubKey": {"reqSigs": 1, "hex": "76a914632eb94b7b4a28ffd9333d936ff6b4d011a44e4288ac", "addresses": ["1A3RsRGBSqw1mppuV5cjnrBVEHbXLQWajF"], "asm": "OP_DUP OP_HASH160 632eb94b7b4a28ffd9333d936ff6b4d011a44e42 OP_EQUALVERIFY OP_CHECKSIG", "type": "pubkeyhash"}, "value": 5.46e-06, "n": 2}], "hex": "010000000168d6c1b27e1da4fbe22cf3371dc6fcb4124f1f61488e13a11dbcb64b35ba8703000000006a473044022049f636a3461de2c251de3a8dff18ff2463b34d633b86ea40aba6ff5c4a6116b602202acb990f8917d84181700a2e9ac2c20908b90622487d4a12f3633f9e90827cde0121034c9ee28259d5e83fc3b92adc9f2d784bb204330205de629c33336451f91808faffffffff032c9f3700000000001976a914cff5fb750bc48054d02902548ea80e9c040dd15a88ac0000000000000000166a146f6d6e69000000000000001f000000067a1bc41c22020000000000001976a914632eb94b7b4a28ffd9333d936ff6b4d011a44e4288ac00000000", "vin": [{"sequence": 4294967295, "scriptSig": {"hex": "473044022049f636a3461de2c251de3a8dff18ff2463b34d633b86ea40aba6ff5c4a6116b602202acb990f8917d84181700a2e9ac2c20908b90622487d4a12f3633f9e90827cde0121034c9ee28259d5e83fc3b92adc9f2d784bb204330205de629c33336451f91808fa", "asm": "3044022049f636a3461de2c251de3a8dff18ff2463b34d633b86ea40aba6ff5c4a6116b602202acb990f8917d84181700a2e9ac2c20908b90622487d4a12f3633f9e90827cde[ALL] 034c9ee28259d5e83fc3b92adc9f2d784bb204330205de629c33336451f91808fa"}, "vout": 0, "txid": "0387ba354bb6bc1da1138e48611f4f12b4fcc61d37f32ce2fba41d7eb2c1d668"}], "txid": "d062a1641b6a43575fcaa9424724e31d064a3efca8751b1db11b9a6454f03b4a", "blocktime": 1537873282, "version": 1, "confirmations": 11480, "time": 1537873282, "locktime": 0, "vsize": 256, "size": 256}