{"hash": "d0628b474b833dca4b756ba73e3a09f572cf1526558856daefe9bea50b073b50", "blockhash": "00000000000000000017f5eb5941039fbcee6240d03bc1f2f8e35350df66a1d8", "vout": [{"scriptPubKey": {"reqSigs": 1, "hex": "76a9145dcdd8e59308fb0680310582bf4360dc3b4b365a88ac", "addresses": ["19YzSMmgRUCPoFktirXv9BBbngnd3padDJ"], "asm": "OP_DUP OP_HASH160 5dcdd8e59308fb0680310582bf4360dc3b4b365a OP_EQUALVERIFY OP_CHECKSIG", "type": "pubkeyhash"}, "value": 0.00107425, "n": 0}, {"scriptPubKey": {"reqSigs": 1, "hex": "76a9148b15e5c97ca2a5e6f42b51d48a327af4a37d012488ac", "addresses": ["1DgRA8w1e5eHAiFcQcoZAT35TotMpLrUem"], "asm": "OP_DUP OP_HASH160 8b15e5c97ca2a5e6f42b51d48a327af4a37d0124 OP_EQUALVERIFY OP_CHECKSIG", "type": "pubkeyhash"}, "value": 0.00481383, "n": 1}], "hex": "0100000001f9e687d7da9138af173d6820ebad2d6434d15526dbc7405092b0fec24860d578010000006a473044022004822fc7a8a1cdebaa60d108bc9606f53213beb4ab456ea2616e80681e2bd54402200f4a0228ceb23b7a1131084cdf2ed03d755913f5f27a15d20d3caade0bd883ab01210306026c3b601f2e7d8db67cf834f6e22ddf003e2afca5604bcbbbd4b904b4fdb4ffffffff02a1a30100000000001976a9145dcdd8e59308fb0680310582bf4360dc3b4b365a88ac67580700000000001976a9148b15e5c97ca2a5e6f42b51d48a327af4a37d012488ac00000000", "vin": [{"sequence": 4294967295, "scriptSig": {"hex": "473044022004822fc7a8a1cdebaa60d108bc9606f53213beb4ab456ea2616e80681e2bd54402200f4a0228ceb23b7a1131084cdf2ed03d755913f5f27a15d20d3caade0bd883ab01210306026c3b601f2e7d8db67cf834f6e22ddf003e2afca5604bcbbbd4b904b4fdb4", "asm": "3044022004822fc7a8a1cdebaa60d108bc9606f53213beb4ab456ea2616e80681e2bd54402200f4a0228ceb23b7a1131084cdf2ed03d755913f5f27a15d20d3caade0bd883ab[ALL] 0306026c3b601f2e7d8db67cf834f6e22ddf003e2afca5604bcbbbd4b904b4fdb4"}, "vout": 1, "txid": "78d56048c2feb0925040c7db2655d134642dadeb20683d17af3891dad787e6f9"}], "txid": "d0628b474b833dca4b756ba73e3a09f572cf1526558856daefe9bea50b073b50", "blocktime": 1537874412, "version": 1, "confirmations": 11466, "time": 1537874412, "locktime": 0, "vsize": 225, "size": 225}