{"hash": "ecc5934f16825aafc6854203a61e30f8b210cf7561014c379b7979fb5b0737d9", "blockhash": "00000000000000000004ffacab907a6b429b9a5745fa0b75af4234bf69dd7176", "vout": [{"scriptPubKey": {"reqSigs": 1, "hex": "76a9146d1f662d59d44ab929028e2d92e0c987b5f79a3988ac", "addresses": ["1AwzGZSRHy2EnFYWst7mvQ4ZAKvjdvLcQb"], "asm": "OP_DUP OP_HASH160 6d1f662d59d44ab929028e2d92e0c987b5f79a39 OP_EQUALVERIFY OP_CHECKSIG", "type": "pubkeyhash"}, "value": 0.03798, "n": 0}, {"scriptPubKey": {"reqSigs": 1, "hex": "a9147d844191a0fdb2954dcd1e3713a2452807ec6c0487", "addresses": ["3D8gpqeBPx3t673WhLnwz9VyrCpSSxdRTq"], "asm": "OP_HASH160 7d844191a0fdb2954dcd1e3713a2452807ec6c04 OP_EQUAL", "type": "scripthash"}, "value": 0.04474524, "n": 1}], "hex": "0200000000010139cacc92723424de19eb1f19b068dca992479f61b267b0b674fae4becf3dde330d00000017160014bc5abb9d37dc0b98f3954f89908f3f18b208e161feffffff02f0f33900000000001976a9146d1f662d59d44ab929028e2d92e0c987b5f79a3988ac9c4644000000000017a9147d844191a0fdb2954dcd1e3713a2452807ec6c0487024730440220435ecfa2db7bdb88652b899865d53b226e96306b6627fdbf4ad948fcc722bd70022052ff5e2efb44a6a04d8594a043a14a25c342fa19370d98161acd82203049775e012103151b85a4dc3c548a733c78fed04b037dc75feb1ffa494be2134574d32db8ddf6e2480800", "vin": [{"txinwitness": ["30440220435ecfa2db7bdb88652b899865d53b226e96306b6627fdbf4ad948fcc722bd70022052ff5e2efb44a6a04d8594a043a14a25c342fa19370d98161acd82203049775e01", "03151b85a4dc3c548a733c78fed04b037dc75feb1ffa494be2134574d32db8ddf6"], "sequence": 4294967294, "scriptSig": {"hex": "160014bc5abb9d37dc0b98f3954f89908f3f18b208e161", "asm": "0014bc5abb9d37dc0b98f3954f89908f3f18b208e161"}, "vout": 13, "txid": "33de3dcfbee4fa74b6b067b2619f4792a9dc68b0191feb19de24347292ccca39"}], "txid": "d062d61bf614144159b0edb48608992235eaa104a12195a705e4af41532ee91d", "blocktime": 1537875543, "version": 2, "confirmations": 11464, "time": 1537875543, "locktime": 542946, "vsize": 168, "size": 249}