{"hash": "d064504e6eb45d41b440df3263760493f46c36b6ef69eef1de0e2ca6fd82a941", "blockhash": "00000000000000000024a2167bbff67b0be802c0b01cdd79e6331c2be6459f87", "vout": [{"scriptPubKey": {"reqSigs": 1, "hex": "a914998461cdea585953aea3d6ab4c46703441ea23d887", "addresses": ["3FgjtxcwDyPUxQZsgWmBR81tmHjX5oAkVN"], "asm": "OP_HASH160 998461cdea585953aea3d6ab4c46703441ea23d8 OP_EQUAL", "type": "scripthash"}, "value": 0.07, "n": 0}, {"scriptPubKey": {"reqSigs": 1, "hex": "76a914e4034db814c79612d830210f8b49c34b0a73912e88ac", "addresses": ["1Mnd2GwRqLv3UAq1ikNuPjYHNPzevfd7wa"], "asm": "OP_DUP OP_HASH160 e4034db814c79612d830210f8b49c34b0a73912e OP_EQUALVERIFY OP_CHECKSIG", "type": "pubkeyhash"}, "value": 0.01504876, "n": 1}], "hex": "0100000003083cdedf402d832358d7384dbf4589fce16069bb5e7cdf32ca8e8c48df0e5d0f010000006b483045022100e5cbc091dfea14ff74be596f248b80209976f8ac8deccd553c7aff26c545907c02201e9009779c1f7023a1ef6c8cb299a1ffb06e470eb5bb5b5a51dc2a64cd4a5afc0121024480adfa288852d4ef23fc51d64a6716f9b33977a101fa74608f11fa662bedfdffffffff2c46870c0afb40883c4905e5d361b3c5a975afabf78dfaa922dde7c09fcd632c000000006a473044022040980c416d3925152e6da07f0186a72f4727df6c711e47b3a8a72aed6cc86dff0220468528aa323056663dd40a8923ba0b711be622c8830f853a182eebef5ae0d692012103cf650dbe8f14ea703f13eeadd57abd5d867c5bd53c78c45fc54a2260260e5b36ffffffff05560f28b55705dd79f193886bf8f0dd420983eb3c772b493d13cb1260d7186b000000006a47304402203d5b8e17d1cebe72b44b8d008ff9103a91255c00f0dc38ea7ade35fc3d6ba89b022033bc7d9403a5ac6e18ad6d78c31252239e8f0af9d942ad87f87c2362ee1acced01210318a6ba68dc040b3d2878c17763d80e474e20e66dc37196abfd7b5d64fc600b8fffffffff02c0cf6a000000000017a914998461cdea585953aea3d6ab4c46703441ea23d8876cf61600000000001976a914e4034db814c79612d830210f8b49c34b0a73912e88ac00000000", "vin": [{"sequence": 4294967295, "scriptSig": {"hex": "483045022100e5cbc091dfea14ff74be596f248b80209976f8ac8deccd553c7aff26c545907c02201e9009779c1f7023a1ef6c8cb299a1ffb06e470eb5bb5b5a51dc2a64cd4a5afc0121024480adfa288852d4ef23fc51d64a6716f9b33977a101fa74608f11fa662bedfd", "asm": "3045022100e5cbc091dfea14ff74be596f248b80209976f8ac8deccd553c7aff26c545907c02201e9009779c1f7023a1ef6c8cb299a1ffb06e470eb5bb5b5a51dc2a64cd4a5afc[ALL] 024480adfa288852d4ef23fc51d64a6716f9b33977a101fa74608f11fa662bedfd"}, "vout": 1, "txid": "0f5d0edf488c8eca32df7c5ebb6960e1fc8945bf4d38d75823832d40dfde3c08"}, {"sequence": 4294967295, "scriptSig": {"hex": "473044022040980c416d3925152e6da07f0186a72f4727df6c711e47b3a8a72aed6cc86dff0220468528aa323056663dd40a8923ba0b711be622c8830f853a182eebef5ae0d692012103cf650dbe8f14ea703f13eeadd57abd5d867c5bd53c78c45fc54a2260260e5b36", "asm": "3044022040980c416d3925152e6da07f0186a72f4727df6c711e47b3a8a72aed6cc86dff0220468528aa323056663dd40a8923ba0b711be622c8830f853a182eebef5ae0d692[ALL] 03cf650dbe8f14ea703f13eeadd57abd5d867c5bd53c78c45fc54a2260260e5b36"}, "vout": 0, "txid": "2c63cd9fc0e7dd22a9fa8df7abaf75a9c5b361d3e505493c8840fb0a0c87462c"}, {"sequence": 4294967295, "scriptSig": {"hex": "47304402203d5b8e17d1cebe72b44b8d008ff9103a91255c00f0dc38ea7ade35fc3d6ba89b022033bc7d9403a5ac6e18ad6d78c31252239e8f0af9d942ad87f87c2362ee1acced01210318a6ba68dc040b3d2878c17763d80e474e20e66dc37196abfd7b5d64fc600b8f", "asm": "304402203d5b8e17d1cebe72b44b8d008ff9103a91255c00f0dc38ea7ade35fc3d6ba89b022033bc7d9403a5ac6e18ad6d78c31252239e8f0af9d942ad87f87c2362ee1acced[ALL] 0318a6ba68dc040b3d2878c17763d80e474e20e66dc37196abfd7b5d64fc600b8f"}, "vout": 0, "txid": "6b18d76012cb133d492b773ceb830942ddf0f86b8893f179dd0557b5280f5605"}], "txid": "d064504e6eb45d41b440df3263760493f46c36b6ef69eef1de0e2ca6fd82a941", "blocktime": 1537870564, "version": 1, "confirmations": 11515, "time": 1537870564, "locktime": 0, "vsize": 518, "size": 518}