{"hash": "d06ad2860ea0983e657817998f412b5cc65b794a80b1cefc4a635d5e08937685", "blockhash": "0000000000000000000e13cef7c366c0283d82e591d1acd082e914b08063cdf1", "vout": [{"scriptPubKey": {"reqSigs": 1, "hex": "76a9142b669bdabf8be3e001b84ec0696817d4ad23860088ac", "addresses": ["14xUydkMGh4haN5RZcjVVWBbPfCC5Y2HJm"], "asm": "OP_DUP OP_HASH160 2b669bdabf8be3e001b84ec0696817d4ad238600 OP_EQUALVERIFY OP_CHECKSIG", "type": "pubkeyhash"}, "value": 0.073, "n": 0}, {"scriptPubKey": {"reqSigs": 1, "hex": "a91471911d42de30068f973ba94d6add44819b9bcc2f87", "addresses": ["3C3W7wR8zXQqMdk5pyDLLyTAEgc6W9j1SE"], "asm": "OP_HASH160 71911d42de30068f973ba94d6add44819b9bcc2f OP_EQUAL", "type": "scripthash"}, "value": 0.00985001, "n": 1}, {"scriptPubKey": {"reqSigs": 1, "hex": "76a9142e5e039c7b483cb16813cb07a15609c51609110d88ac", "addresses": ["15EAi3Fe27mpxURpELf7TwweSAorV4ouVZ"], "asm": "OP_DUP OP_HASH160 2e5e039c7b483cb16813cb07a15609c51609110d OP_EQUALVERIFY OP_CHECKSIG", "type": "pubkeyhash"}, "value": 0.00014082, "n": 2}], "hex": "0100000001cfc3465cefd333a4450d828240aa129b33a7b5873da78e356a7ea1adf9ae1069000000006b483045022100864434ef3696ab680b4b7934e182b9a8bf156ad3163d6536b77a0050b59143a202202b394ca5b499868633364b7eda44cee93a04329bb2dcb230db1acd748a1bd18d0121035c147c4b78976e3b91c43d5e8f0736f4e079f0c75eca6754cb243dd682a9f330ffffffff03a0636f00000000001976a9142b669bdabf8be3e001b84ec0696817d4ad23860088aca9070f000000000017a91471911d42de30068f973ba94d6add44819b9bcc2f8702370000000000001976a9142e5e039c7b483cb16813cb07a15609c51609110d88ac00000000", "vin": [{"sequence": 4294967295, "scriptSig": {"hex": "483045022100864434ef3696ab680b4b7934e182b9a8bf156ad3163d6536b77a0050b59143a202202b394ca5b499868633364b7eda44cee93a04329bb2dcb230db1acd748a1bd18d0121035c147c4b78976e3b91c43d5e8f0736f4e079f0c75eca6754cb243dd682a9f330", "asm": "3045022100864434ef3696ab680b4b7934e182b9a8bf156ad3163d6536b77a0050b59143a202202b394ca5b499868633364b7eda44cee93a04329bb2dcb230db1acd748a1bd18d[ALL] 035c147c4b78976e3b91c43d5e8f0736f4e079f0c75eca6754cb243dd682a9f330"}, "vout": 0, "txid": "6910aef9ada17e6a358ea73d87b5a7339b12aa4082820d45a433d3ef5c46c3cf"}], "txid": "d06ad2860ea0983e657817998f412b5cc65b794a80b1cefc4a635d5e08937685", "blocktime": 1537871767, "version": 1, "confirmations": 11495, "time": 1537871767, "locktime": 0, "vsize": 258, "size": 258}