{"hash": "d07017c482d8efc3acb126f5fd9a588a7b103dcb24ca24b9583f1f4604d11d40", "blockhash": "0000000000000000000dcc0f55137456b1a82d3642486a52398922ac4d620174", "vout": [{"scriptPubKey": {"reqSigs": 1, "hex": "76a91406b251162377b45323c962aba120f523bc2016f488ac", "addresses": ["1cQfpJZXUCgcma5T2mCYT6hAG2tVF2vKH"], "asm": "OP_DUP OP_HASH160 06b251162377b45323c962aba120f523bc2016f4 OP_EQUALVERIFY OP_CHECKSIG", "type": "pubkeyhash"}, "value": 0.029608, "n": 0}, {"scriptPubKey": {"reqSigs": 1, "hex": "76a914fe2f6a06e3166e9373f3891b72a90bbacb9ee07488ac", "addresses": ["1QB1S7uU9p52TGnwLd9hVzPGRQdshhHbwP"], "asm": "OP_DUP OP_HASH160 fe2f6a06e3166e9373f3891b72a90bbacb9ee074 OP_EQUALVERIFY OP_CHECKSIG", "type": "pubkeyhash"}, "value": 10.81954124, "n": 1}], "hex": "010000000110aedd89e949c85c1dcb19002d69415c37f52a01238cd7f26769b717f90d72ef010000006a47304402202cea2d9fd70ffb74136b6c7c9d05d220365545df7cacec9227639392e1ee86d2022041829b8b99954f4b977934a8e65e6df82253ea17673984c1e9ad5b9db7d3c26e012103ff0ff63130b6211d85c59d4ac745967e4ec57d3bb92416ba504c17d74b5335e8ffffffff02a02d2d00000000001976a91406b251162377b45323c962aba120f523bc2016f488ac4c4f7d40000000001976a914fe2f6a06e3166e9373f3891b72a90bbacb9ee07488ac00000000", "vin": [{"sequence": 4294967295, "scriptSig": {"hex": "47304402202cea2d9fd70ffb74136b6c7c9d05d220365545df7cacec9227639392e1ee86d2022041829b8b99954f4b977934a8e65e6df82253ea17673984c1e9ad5b9db7d3c26e012103ff0ff63130b6211d85c59d4ac745967e4ec57d3bb92416ba504c17d74b5335e8", "asm": "304402202cea2d9fd70ffb74136b6c7c9d05d220365545df7cacec9227639392e1ee86d2022041829b8b99954f4b977934a8e65e6df82253ea17673984c1e9ad5b9db7d3c26e[ALL] 03ff0ff63130b6211d85c59d4ac745967e4ec57d3bb92416ba504c17d74b5335e8"}, "vout": 1, "txid": "ef720df917b76967f2d78c23012af5375c41692d0019cb1d5cc849e989ddae10"}], "txid": "d07017c482d8efc3acb126f5fd9a588a7b103dcb24ca24b9583f1f4604d11d40", "blocktime": 1537870268, "version": 1, "confirmations": 11518, "time": 1537870268, "locktime": 0, "vsize": 225, "size": 225}