{"hash": "d07765a7eee30844a02816a89dc7f3d8a9758df20f4ef7f7039260456ab1c55a", "blockhash": "0000000000000000000baef3f32e3676a92c3b2e5da21b426e4f302fc371ce76", "vout": [{"scriptPubKey": {"reqSigs": 1, "hex": "a914c38216d5f573c47cdd0b2a4ee0923b6a5d9a802087", "addresses": ["3KWmXhxKscxjgkBNCphVyvyAQpfdCw84vT"], "asm": "OP_HASH160 c38216d5f573c47cdd0b2a4ee0923b6a5d9a8020 OP_EQUAL", "type": "scripthash"}, "value": 0.0038242, "n": 0}, {"scriptPubKey": {"reqSigs": 1, "hex": "76a9143dd61cd48222469067b24b7a95ab5b7651d8de1888ac", "addresses": ["16dxiWR1GduDhmP3cYfKZVpZPk3ZRSkCRq"], "asm": "OP_DUP OP_HASH160 3dd61cd48222469067b24b7a95ab5b7651d8de18 OP_EQUALVERIFY OP_CHECKSIG", "type": "pubkeyhash"}, "value": 0.01874894, "n": 1}], "hex": "010000000111f7eefc59ae22f9009ea414d738f6e7794c5ba74db3a1db1ddfd03c1595ff59010000006a4730440220459470befe8c5deaaabe5665c584e30fa52bc6908629233760f32a8c1352566d022079219bace9f5defc632a2d5f6a9459369f65d62bc6e7dbe88e4f205c08290f7801210369e45d1d9a4e282ca3f7d66d57e2ae5263bf8b6d28846017f19b3065ff0c4d01ffffffff02d4d505000000000017a914c38216d5f573c47cdd0b2a4ee0923b6a5d9a802087ce9b1c00000000001976a9143dd61cd48222469067b24b7a95ab5b7651d8de1888ac00000000", "vin": [{"sequence": 4294967295, "scriptSig": {"hex": "4730440220459470befe8c5deaaabe5665c584e30fa52bc6908629233760f32a8c1352566d022079219bace9f5defc632a2d5f6a9459369f65d62bc6e7dbe88e4f205c08290f7801210369e45d1d9a4e282ca3f7d66d57e2ae5263bf8b6d28846017f19b3065ff0c4d01", "asm": "30440220459470befe8c5deaaabe5665c584e30fa52bc6908629233760f32a8c1352566d022079219bace9f5defc632a2d5f6a9459369f65d62bc6e7dbe88e4f205c08290f78[ALL] 0369e45d1d9a4e282ca3f7d66d57e2ae5263bf8b6d28846017f19b3065ff0c4d01"}, "vout": 1, "txid": "59ff95153cd0df1ddba1b34da75b4c79e7f638d714a49e00f922ae59fceef711"}], "txid": "d07765a7eee30844a02816a89dc7f3d8a9758df20f4ef7f7039260456ab1c55a", "blocktime": 1537876114, "version": 1, "confirmations": 11460, "time": 1537876114, "locktime": 0, "vsize": 223, "size": 223}