{"hash": "bbb298b0f02ab430846bc3f1cafe8fc512c7903ee328986f845141db496b003f", "blockhash": "00000000000000000018f53835495a110e01622372bf6ae95dc86f2b0ab887b0", "vout": [{"scriptPubKey": {"reqSigs": 1, "hex": "00143c625d6930c1e64403025dafde8b61ff6621460d", "addresses": ["bc1q833966fsc8nygqcztkhaazmplanzz3sduj6r7g"], "asm": "0 3c625d6930c1e64403025dafde8b61ff6621460d", "type": "witness_v0_keyhash"}, "value": 1.264e-05, "n": 0}, {"scriptPubKey": {"reqSigs": 1, "hex": "a9149877f0f4209794700359428a62d45e5d3fc89d8d87", "addresses": ["3FbCKN65c51GXXuXyaNJu6ut5uGsexbeFk"], "asm": "OP_HASH160 9877f0f4209794700359428a62d45e5d3fc89d8d OP_EQUAL", "type": "scripthash"}, "value": 0.00120179, "n": 1}], "hex": "01000000000101da27ad52603460b1ec26e08ebd842eeed1df09300f1e22733033d6cd897d70ab0100000000ffffffff02f0040000000000001600143c625d6930c1e64403025dafde8b61ff6621460d73d501000000000017a9149877f0f4209794700359428a62d45e5d3fc89d8d8702483045022100fea3a7609b5f25732764703bf2ae6f7929a2e336b23d757bd7955c242be1ef7502201db115cea85dd40a6a152331227327555b134f8dbd0226ef6bcc3c7f63081cd50121031185e7eb1a403358972120f9b45fafa75e01b18d7f997419717980874b75b5da00000000", "vin": [{"txinwitness": ["3045022100fea3a7609b5f25732764703bf2ae6f7929a2e336b23d757bd7955c242be1ef7502201db115cea85dd40a6a152331227327555b134f8dbd0226ef6bcc3c7f63081cd501", "031185e7eb1a403358972120f9b45fafa75e01b18d7f997419717980874b75b5da"], "sequence": 4294967295, "scriptSig": {"hex": "", "asm": ""}, "vout": 1, "txid": "ab707d89cdd6333073221e0f3009dfd1ee2e84bd8ee026ecb160346052ad27da"}], "txid": "d07f2c6b0e0fbadcc791165797f6d8b1041f7e9f3edb0077f3c28b93cf121af0", "blocktime": 1537870928, "version": 1, "confirmations": 11513, "time": 1537870928, "locktime": 0, "vsize": 142, "size": 224}