{"hash": "d085f4945573b5dabec5f47ad8bb62ab80f523d42753a340636d20679f8ad378", "blockhash": "0000000000000000001cda96e906b7601b7a6fb1a3b62bca570a9e5d8f4b3de1", "vout": [{"scriptPubKey": {"reqSigs": 1, "hex": "a91437f2d121768499205a64fdec7e9097d996332ded87", "addresses": ["36nqyJugrk9EAnusQT3pXtDrUcAQcyVmVc"], "asm": "OP_HASH160 37f2d121768499205a64fdec7e9097d996332ded OP_EQUAL", "type": "scripthash"}, "value": 0.0053506, "n": 0}, {"scriptPubKey": {"reqSigs": 1, "hex": "76a914750fc8df288be173ba7840f02049a169be02fbc188ac", "addresses": ["1BfxyBWe48SZnwm3cds1EYhaJo3n61SSWn"], "asm": "OP_DUP OP_HASH160 750fc8df288be173ba7840f02049a169be02fbc1 OP_EQUALVERIFY OP_CHECKSIG", "type": "pubkeyhash"}, "value": 0.08602658, "n": 1}], "hex": "0100000001552dcfaacb1f97dd6ba836d50188d4665157f51f89fc66701159f135491377f3010000006a47304402205e963a3a6bd7d6b3fa92f554b607e3e97359fe93d87e00e8cb959cf3035e7c3902206bbfac3470ea3e0aac8eab207d50f38ab24da09f7700b4926398507677431598012103abec8fd76521b5e3e00af96265fc64613f2fd2c3cfb26049060eb7f853b6fb65ffffffff02142a08000000000017a91437f2d121768499205a64fdec7e9097d996332ded8722448300000000001976a914750fc8df288be173ba7840f02049a169be02fbc188ac00000000", "vin": [{"sequence": 4294967295, "scriptSig": {"hex": "47304402205e963a3a6bd7d6b3fa92f554b607e3e97359fe93d87e00e8cb959cf3035e7c3902206bbfac3470ea3e0aac8eab207d50f38ab24da09f7700b4926398507677431598012103abec8fd76521b5e3e00af96265fc64613f2fd2c3cfb26049060eb7f853b6fb65", "asm": "304402205e963a3a6bd7d6b3fa92f554b607e3e97359fe93d87e00e8cb959cf3035e7c3902206bbfac3470ea3e0aac8eab207d50f38ab24da09f7700b4926398507677431598[ALL] 03abec8fd76521b5e3e00af96265fc64613f2fd2c3cfb26049060eb7f853b6fb65"}, "vout": 1, "txid": "f377134935f159117066fc891ff5575166d48801d536a86bdd971fcbaacf2d55"}], "txid": "d085f4945573b5dabec5f47ad8bb62ab80f523d42753a340636d20679f8ad378", "blocktime": 1537873282, "version": 1, "confirmations": 11482, "time": 1537873282, "locktime": 0, "vsize": 223, "size": 223}