{"hash": "c90365c8f32b8328e95d8579822cadf92646bd145652f04848b8c1f74a621cb9", "blockhash": "0000000000000000001f76057863aec43deb6fa401d9628bb513d65a8098bfab", "vout": [{"scriptPubKey": {"reqSigs": 1, "hex": "a9141a0e6714898ec477e1c729557c9a96d5df722c3487", "addresses": ["344nkFC8iZuy8EBaGj4vnzc41F7znzCJdp"], "asm": "OP_HASH160 1a0e6714898ec477e1c729557c9a96d5df722c34 OP_EQUAL", "type": "scripthash"}, "value": 0.0100073, "n": 0}, {"scriptPubKey": {"reqSigs": 1, "hex": "76a9143d75cfa204a952dda695de2a60079fa08bb1ab2f88ac", "addresses": ["16byMMmPQqibvtqLggfLTXmyvhPbbscuBk"], "asm": "OP_DUP OP_HASH160 3d75cfa204a952dda695de2a60079fa08bb1ab2f OP_EQUALVERIFY OP_CHECKSIG", "type": "pubkeyhash"}, "value": 0.0089756, "n": 1}], "hex": "020000000001035d6030da4e95d9d1d4545e7355b0c4b657b1d40b3410c0a031ce35962d0d75eb00000000171600147aad2828b0b28743885d5a1f3899b51e6d0c7daafeffffff809d4306e258dc26ea7724679c082ef3e68e5b30929ca52fcf3a7ab6cfc21a2f0100000017160014c947b993b7e4b954ca622e53f8053da5544c64fafeffffffa808abd0814e4375272564334bd048abb83797cf9d92ceb6007e7e943adc70070200000017160014f299940c78c2a4bdac40476360efa877ab9bfa49feffffff021a450f000000000017a9141a0e6714898ec477e1c729557c9a96d5df722c348718b20d00000000001976a9143d75cfa204a952dda695de2a60079fa08bb1ab2f88ac0247304402200ae9fa4cf03dd122e89565a3d4bb3127acb1c0f81074e9e42319d353c59d78c4022000c19790ec9d7440605b92978501c6299c00df2f311db598c6f18a7a68cced96012102096febcc73b932d6635f071b328f1eed4264cda85c99e2d12e8cccf74b9d5ff90248304502210088b56467f242850a8a368f957916f7ba15c6c7b8f96bd33411055ecdb6fc31b102203651f0114ef1f006d127df887279b07d5e5cb706b2b4ae01b7d38f3560da1c38012102446440ffc9a24ac8385c6745063502fa3026e4acfbfc62f0792c21425cd1bdf5024830450221008b47edddaf78bc1673a2bbd36d4d3eba8ac24e8778b28889cb9014c26f7fa18d02204e783d2bdf30df81f63062b8ae41558982d5aa3ff1cf7c4de9985816918a2ff50121024008c94f6bb7d1115b43fb1c3121f7754d15bb97e6944b780e8c0e8c85291efb14490800", "vin": [{"txinwitness": ["304402200ae9fa4cf03dd122e89565a3d4bb3127acb1c0f81074e9e42319d353c59d78c4022000c19790ec9d7440605b92978501c6299c00df2f311db598c6f18a7a68cced9601", "02096febcc73b932d6635f071b328f1eed4264cda85c99e2d12e8cccf74b9d5ff9"], "sequence": 4294967294, "scriptSig": {"hex": "1600147aad2828b0b28743885d5a1f3899b51e6d0c7daa", "asm": "00147aad2828b0b28743885d5a1f3899b51e6d0c7daa"}, "vout": 0, "txid": "eb750d2d9635ce31a0c010340bd4b157b6c4b055735e54d4d1d9954eda30605d"}, {"txinwitness": ["304502210088b56467f242850a8a368f957916f7ba15c6c7b8f96bd33411055ecdb6fc31b102203651f0114ef1f006d127df887279b07d5e5cb706b2b4ae01b7d38f3560da1c3801", "02446440ffc9a24ac8385c6745063502fa3026e4acfbfc62f0792c21425cd1bdf5"], "sequence": 4294967294, "scriptSig": {"hex": "160014c947b993b7e4b954ca622e53f8053da5544c64fa", "asm": "0014c947b993b7e4b954ca622e53f8053da5544c64fa"}, "vout": 1, "txid": "2f1ac2cfb67a3acf2fa59c92305b8ee6f32e089c672477ea26dc58e206439d80"}, {"txinwitness": ["30450221008b47edddaf78bc1673a2bbd36d4d3eba8ac24e8778b28889cb9014c26f7fa18d02204e783d2bdf30df81f63062b8ae41558982d5aa3ff1cf7c4de9985816918a2ff501", "024008c94f6bb7d1115b43fb1c3121f7754d15bb97e6944b780e8c0e8c85291efb"], "sequence": 4294967294, "scriptSig": {"hex": "160014f299940c78c2a4bdac40476360efa877ab9bfa49", "asm": "0014f299940c78c2a4bdac40476360efa877ab9bfa49"}, "vout": 2, "txid": "0770dc3a947e7e00b6ce929dcf9737b8ab48d04b3364252775434e81d0ab08a8"}], "txid": "d09cec90ce73ed6dfe49857dea65ae8176ae2f3ff731c503b203b7209ccad43e", "blocktime": 1537873891, "version": 2, "confirmations": 11478, "time": 1537873891, "locktime": 542996, "vsize": 350, "size": 593}