{"hash": "e4dc047320e39a8bacc4752c6cc2fcac8e3f43a18f83092f3e05018fc8c7999f", "blockhash": "00000000000000000004ffacab907a6b429b9a5745fa0b75af4234bf69dd7176", "vout": [{"scriptPubKey": {"reqSigs": 1, "hex": "a914c090bb042e30f515450561eab53f934369867f4687", "addresses": ["3KFD3Rq3AdxrU6aXBQ1VL1j3DByyTY5NZe"], "asm": "OP_HASH160 c090bb042e30f515450561eab53f934369867f46 OP_EQUAL", "type": "scripthash"}, "value": 0.0098817, "n": 0}, {"scriptPubKey": {"reqSigs": 1, "hex": "a91469f374535f87e97aad1db90669aefeb77f8864d487", "addresses": ["3BMEXCCun9bKAFrZUTSvJFC1kQiteC9TdU"], "asm": "OP_HASH160 69f374535f87e97aad1db90669aefeb77f8864d4 OP_EQUAL", "type": "scripthash"}, "value": 0.0004006, "n": 1}, {"scriptPubKey": {"reqSigs": 1, "hex": "76a914e0f90dc801a4da6befad877f7c0d97fc6257e56488ac", "addresses": ["1MWYiXxPkaKn34b8Bq4HmxubUPz6wvohbH"], "asm": "OP_DUP OP_HASH160 e0f90dc801a4da6befad877f7c0d97fc6257e564 OP_EQUALVERIFY OP_CHECKSIG", "type": "pubkeyhash"}, "value": 0.0021, "n": 2}, {"scriptPubKey": {"reqSigs": 1, "hex": "a91485f47b64a90d81f99b29257f44b7376879c2da5087", "addresses": ["3DuJfxuTg3nFPsuGkMYqD4ssS2x24H7FDp"], "asm": "OP_HASH160 85f47b64a90d81f99b29257f44b7376879c2da50 OP_EQUAL", "type": "scripthash"}, "value": 0.0105, "n": 3}, {"scriptPubKey": {"reqSigs": 1, "hex": "a9141988a27e3c2df4ddee7fad5a2303d086179b2a3087", "addresses": ["3422VtS7UtCvXYxoXMVp6eZupR252z85oC"], "asm": "OP_HASH160 1988a27e3c2df4ddee7fad5a2303d086179b2a30 OP_EQUAL", "type": "scripthash"}, "value": 2.39860017, "n": 4}], "hex": "01000000000101872fd6583c29686741d8eaf3eb2a8ca08930b51ac22e80398a980162b473f11c020000002322002065d416c48a8072e0ac51c2d111eb194f009caef0332446c1bf2097316cf07fa9ffffffff050a140f000000000017a914c090bb042e30f515450561eab53f934369867f46877c9c00000000000017a91469f374535f87e97aad1db90669aefeb77f8864d48750340300000000001976a914e0f90dc801a4da6befad877f7c0d97fc6257e56488ac900510000000000017a91485f47b64a90d81f99b29257f44b7376879c2da508731f94b0e0000000017a9141988a27e3c2df4ddee7fad5a2303d086179b2a30870400473044022017180d97cb9876f0d0afee2c612ff197812107d07ee5317436ff7ea54a4222b202205a3b4491a41bea1e123dbd8deae6f18929090c26ea188ea974ce4504f228d8a50147304402206d0b95007711d08de49368ca03e6a8ba3ec21f52ecc41dab649d40eb0d2daea20220509196a43afec16c1669975d17cfcacd3aff0f70c54c64abf360cba163f1615d0169522102f44abcf9e23c9a460da309ccca56c619c04eed3bde2c2cff5e7d78fbcd980b9c2103c9443cf3047bb6c2c82f1b0c44c36109cdc3d0d601d16d1189a1602bf8d1a0a02103bfe867059274412412e088af5572b92168c2ef495cfe6c9b7a753a009eb37c4853ae00000000", "vin": [{"txinwitness": ["", "3044022017180d97cb9876f0d0afee2c612ff197812107d07ee5317436ff7ea54a4222b202205a3b4491a41bea1e123dbd8deae6f18929090c26ea188ea974ce4504f228d8a501", "304402206d0b95007711d08de49368ca03e6a8ba3ec21f52ecc41dab649d40eb0d2daea20220509196a43afec16c1669975d17cfcacd3aff0f70c54c64abf360cba163f1615d01", "522102f44abcf9e23c9a460da309ccca56c619c04eed3bde2c2cff5e7d78fbcd980b9c2103c9443cf3047bb6c2c82f1b0c44c36109cdc3d0d601d16d1189a1602bf8d1a0a02103bfe867059274412412e088af5572b92168c2ef495cfe6c9b7a753a009eb37c4853ae"], "sequence": 4294967295, "scriptSig": {"hex": "22002065d416c48a8072e0ac51c2d111eb194f009caef0332446c1bf2097316cf07fa9", "asm": "002065d416c48a8072e0ac51c2d111eb194f009caef0332446c1bf2097316cf07fa9"}, "vout": 2, "txid": "1cf173b46201988a39802ec21ab53089a08c2aebf3ead8416768293c58d62f87"}], "txid": "d09eb743bb726f5821a649d8f021a90458f35ffa25833c801951bd94006ab133", "blocktime": 1537875543, "version": 1, "confirmations": 11464, "time": 1537875543, "locktime": 0, "vsize": 312, "size": 502}