{"hash": "d09f26037637878006a91115cc98c804f59f76ba569ae519489475f6e31fcb05", "blockhash": "0000000000000000000baef3f32e3676a92c3b2e5da21b426e4f302fc371ce76", "vout": [{"scriptPubKey": {"reqSigs": 1, "hex": "76a9148b7ece8100da2bd706b96ae1b5f45e812510238488ac", "addresses": ["1DiaqM2jp8GBUm7TLXcGcYa1DPrex6ZGsU"], "asm": "OP_DUP OP_HASH160 8b7ece8100da2bd706b96ae1b5f45e8125102384 OP_EQUALVERIFY OP_CHECKSIG", "type": "pubkeyhash"}, "value": 0.0063482, "n": 0}, {"scriptPubKey": {"type": "nulldata", "hex": "6a4c50000078050001b859c50e1ae598c8376d8452702940d64fa54d8eb2d19ed074892d00f8e8350128e2829c0a0b9e29ef9a620edb8c5baa1aad061386b3b85568331d100759d4ba30d2c37bb011d97e02cf", "asm": "OP_RETURN 000078050001b859c50e1ae598c8376d8452702940d64fa54d8eb2d19ed074892d00f8e8350128e2829c0a0b9e29ef9a620edb8c5baa1aad061386b3b85568331d100759d4ba30d2c37bb011d97e02cf"}, "value": 0.0, "n": 1}], "hex": "0100000001aa4284c81a12a28fb52e7aebae70be72650ea5957a90013b63eb3c43095c047e010000006b483045022100db2b37c168ddc515d288352ec1e726677ba8f6f095d224d1ff27fa487f57a4b602206456e1dc872835c0fb9dc4e81a481aedfeda4c52ff80113aceb7db79fef910a40121037b74f92a52e4078d7af17205e5aba73e729b286d6cf26d3a67f304b135f72083ffffffff02c4af0900000000001976a9148b7ece8100da2bd706b96ae1b5f45e812510238488ac0000000000000000536a4c50000078050001b859c50e1ae598c8376d8452702940d64fa54d8eb2d19ed074892d00f8e8350128e2829c0a0b9e29ef9a620edb8c5baa1aad061386b3b85568331d100759d4ba30d2c37bb011d97e02cf00000000", "vin": [{"sequence": 4294967295, "scriptSig": {"hex": "483045022100db2b37c168ddc515d288352ec1e726677ba8f6f095d224d1ff27fa487f57a4b602206456e1dc872835c0fb9dc4e81a481aedfeda4c52ff80113aceb7db79fef910a40121037b74f92a52e4078d7af17205e5aba73e729b286d6cf26d3a67f304b135f72083", "asm": "3045022100db2b37c168ddc515d288352ec1e726677ba8f6f095d224d1ff27fa487f57a4b602206456e1dc872835c0fb9dc4e81a481aedfeda4c52ff80113aceb7db79fef910a4[ALL] 037b74f92a52e4078d7af17205e5aba73e729b286d6cf26d3a67f304b135f72083"}, "vout": 1, "txid": "7e045c09433ceb633b01907a95a50e6572be70aeeb7a2eb58fa2121ac88442aa"}], "txid": "d09f26037637878006a91115cc98c804f59f76ba569ae519489475f6e31fcb05", "blocktime": 1537876114, "version": 1, "confirmations": 11460, "time": 1537876114, "locktime": 0, "vsize": 284, "size": 284}