{"hash": "d0a22dc7ed37814c11c057f5c504bd9f2fbed19f7e788cb0972aa878a897f106", "blockhash": "00000000000000000018f53835495a110e01622372bf6ae95dc86f2b0ab887b0", "vout": [{"scriptPubKey": {"reqSigs": 1, "hex": "a914333dba8930e46c1bd29527f7d4ea0cee0e3a67e487", "addresses": ["36MxLJtkwWEdc7DH4soih72FCtPMahrMMC"], "asm": "OP_HASH160 333dba8930e46c1bd29527f7d4ea0cee0e3a67e4 OP_EQUAL", "type": "scripthash"}, "value": 0.01344607, "n": 0}, {"scriptPubKey": {"reqSigs": 1, "hex": "a914aa6c34b2d341795f319c1619f2e6289591e71bd487", "addresses": ["3HE8RRrtptJ52r8kqoFsSEzfsQu2kRCmzR"], "asm": "OP_HASH160 aa6c34b2d341795f319c1619f2e6289591e71bd4 OP_EQUAL", "type": "scripthash"}, "value": 9.98586693, "n": 1}], "hex": "01000000019652dcf0c9600a8a0fb62be2457d2ae6a6edb2663205f63a9a334c728a5cd6c000000000fdfd0000483045022100aec1a61c0930f1aad571dd55ba078a78ee0bd099471624cd779b146199d6d37502203cdd0bab13c2fba79ab761809e2a3f1e99ad0cb6316ee5d714069a840153b10f0147304402206e5bd71fc459c66d0250c42052a2cc002d367c488fc7330a54ffe351b26ac6c70220786f0eef959294e476ac6abe7659d8030bba453f8dcb00754d5e3101c29b8f2f014c69522103d345296e083e22c2f476b3c8587bdf79024d88ae983bfe0bbdf90dc07ccbd54d21036127dcbe29c32033487a91f1f0046285e19f8e6a27904adffb24a8e17fa0b56121038dd38af3454e6feb4104a8b023eb1a7cdee31811a76e6fa8fb74972bcc2bc85d53aeffffffff025f8414000000000017a914333dba8930e46c1bd29527f7d4ea0cee0e3a67e4874539853b0000000017a914aa6c34b2d341795f319c1619f2e6289591e71bd48700000000", "vin": [{"sequence": 4294967295, "scriptSig": {"hex": "00483045022100aec1a61c0930f1aad571dd55ba078a78ee0bd099471624cd779b146199d6d37502203cdd0bab13c2fba79ab761809e2a3f1e99ad0cb6316ee5d714069a840153b10f0147304402206e5bd71fc459c66d0250c42052a2cc002d367c488fc7330a54ffe351b26ac6c70220786f0eef959294e476ac6abe7659d8030bba453f8dcb00754d5e3101c29b8f2f014c69522103d345296e083e22c2f476b3c8587bdf79024d88ae983bfe0bbdf90dc07ccbd54d21036127dcbe29c32033487a91f1f0046285e19f8e6a27904adffb24a8e17fa0b56121038dd38af3454e6feb4104a8b023eb1a7cdee31811a76e6fa8fb74972bcc2bc85d53ae", "asm": "0 3045022100aec1a61c0930f1aad571dd55ba078a78ee0bd099471624cd779b146199d6d37502203cdd0bab13c2fba79ab761809e2a3f1e99ad0cb6316ee5d714069a840153b10f[ALL] 304402206e5bd71fc459c66d0250c42052a2cc002d367c488fc7330a54ffe351b26ac6c70220786f0eef959294e476ac6abe7659d8030bba453f8dcb00754d5e3101c29b8f2f[ALL] 522103d345296e083e22c2f476b3c8587bdf79024d88ae983bfe0bbdf90dc07ccbd54d21036127dcbe29c32033487a91f1f0046285e19f8e6a27904adffb24a8e17fa0b56121038dd38af3454e6feb4104a8b023eb1a7cdee31811a76e6fa8fb74972bcc2bc85d53ae"}, "vout": 0, "txid": "c0d65c8a724c339a3af6053266b2eda6e62a7d45e22bb60f8a0a60c9f0dc5296"}], "txid": "d0a22dc7ed37814c11c057f5c504bd9f2fbed19f7e788cb0972aa878a897f106", "blocktime": 1537870928, "version": 1, "confirmations": 11512, "time": 1537870928, "locktime": 0, "vsize": 370, "size": 370}