{"hash": "e7efbbaa5b00d04c4c69d4a8ecd51bf56c02be36ffd0e18e1c26f93dbdf4764d", "blockhash": "00000000000000000024a2167bbff67b0be802c0b01cdd79e6331c2be6459f87", "vout": [{"scriptPubKey": {"reqSigs": 1, "hex": "a91413971855727b14bf57fe0b083f5a270aec3410b487", "addresses": ["33UbmTTKtdzQPQ2W1zvVPggz5AHiPh1xE8"], "asm": "OP_HASH160 13971855727b14bf57fe0b083f5a270aec3410b4 OP_EQUAL", "type": "scripthash"}, "value": 0.0005, "n": 0}, {"scriptPubKey": {"reqSigs": 1, "hex": "0014de33f970c001e0e44e8f015aad423696b04b2506", "addresses": ["bc1qmceljuxqq8swgn50q9d26s3kj6cykfgxxxgt2m"], "asm": "0 de33f970c001e0e44e8f015aad423696b04b2506", "type": "witness_v0_keyhash"}, "value": 1.502e-05, "n": 1}], "hex": "0100000000010149e822a4c15151f7fb8b17c118e355748472bda374bb16318bb5213ed1f658070000000000ffffffff0250c300000000000017a91413971855727b14bf57fe0b083f5a270aec3410b487de05000000000000160014de33f970c001e0e44e8f015aad423696b04b250602483045022100b2c39dad569cbb37b1802a55c452966592a76e015a4052eef0bc2934bee70122022066533ed23a304851b94b5ccccaca2cbc2360425266eaa1bdf4d722cb92373ee80121034c56b6570978503663989308dd245ff7efef1353ea50c93e8d74635c1d523ec500000000", "vin": [{"txinwitness": ["3045022100b2c39dad569cbb37b1802a55c452966592a76e015a4052eef0bc2934bee70122022066533ed23a304851b94b5ccccaca2cbc2360425266eaa1bdf4d722cb92373ee801", "034c56b6570978503663989308dd245ff7efef1353ea50c93e8d74635c1d523ec5"], "sequence": 4294967295, "scriptSig": {"hex": "", "asm": ""}, "vout": 0, "txid": "0758f6d13e21b58b3116bb74a3bd72847455e318c1178bfbf75151c1a422e849"}], "txid": "d0a4f216ea9e901da4e4c92c1c2ff0d07c9f8c28362f8852d23d97867dff687d", "blocktime": 1537870564, "version": 1, "confirmations": 11515, "time": 1537870564, "locktime": 0, "vsize": 142, "size": 224}