{"hash": "d0a64f0b98864af1b21a3af2f527546cfd06e60cc98a59cb270ae8bf092e3ffb", "blockhash": "000000000000000000205f8b0775d31398ef75b89a5e8ec8d2c57b4dc0ac4c20", "vout": [{"scriptPubKey": {"reqSigs": 1, "hex": "76a9144e3df233f93f4fe14ddf65df3517af670e5ec4a288ac", "addresses": ["188hv47THVFug9bhAtSsZVPZaxroAnm9ST"], "asm": "OP_DUP OP_HASH160 4e3df233f93f4fe14ddf65df3517af670e5ec4a2 OP_EQUALVERIFY OP_CHECKSIG", "type": "pubkeyhash"}, "value": 0.00981583, "n": 0}, {"scriptPubKey": {"reqSigs": 1, "hex": "76a9142725e5204c8842c0e5f9229af0c14d642e2565d188ac", "addresses": ["14ZzkUUvvsuBcBKmfXXEfPCf7ejhYnN9pi"], "asm": "OP_DUP OP_HASH160 2725e5204c8842c0e5f9229af0c14d642e2565d1 OP_EQUALVERIFY OP_CHECKSIG", "type": "pubkeyhash"}, "value": 0.00165076, "n": 1}], "hex": "0100000001a170b45b16d816af4c214878c748bc0f6060325f3ff0221edc002d42853ebdfe090000006b483045022100bb542f9f8f64a9c9cfbbb1a71f1f2635602f0896ddb2ac9fd096edabe57f9d2b0220620cc653a34886da5fc25e6fa3e1bd8dfb78e951ab05844e49e75265bfea68e50121034f6726f327cb0777c25658a9b65e39bdf2a22c06fa5477c550d3f14d6cb0e4f7ffffffff024ffa0e00000000001976a9144e3df233f93f4fe14ddf65df3517af670e5ec4a288acd4840200000000001976a9142725e5204c8842c0e5f9229af0c14d642e2565d188ac00000000", "vin": [{"sequence": 4294967295, "scriptSig": {"hex": "483045022100bb542f9f8f64a9c9cfbbb1a71f1f2635602f0896ddb2ac9fd096edabe57f9d2b0220620cc653a34886da5fc25e6fa3e1bd8dfb78e951ab05844e49e75265bfea68e50121034f6726f327cb0777c25658a9b65e39bdf2a22c06fa5477c550d3f14d6cb0e4f7", "asm": "3045022100bb542f9f8f64a9c9cfbbb1a71f1f2635602f0896ddb2ac9fd096edabe57f9d2b0220620cc653a34886da5fc25e6fa3e1bd8dfb78e951ab05844e49e75265bfea68e5[ALL] 034f6726f327cb0777c25658a9b65e39bdf2a22c06fa5477c550d3f14d6cb0e4f7"}, "vout": 9, "txid": "febd3e85422d00dc1e22f03f5f3260600fbc48c77848214caf16d8165bb470a1"}], "txid": "d0a64f0b98864af1b21a3af2f527546cfd06e60cc98a59cb270ae8bf092e3ffb", "blocktime": 1537871175, "version": 1, "confirmations": 11511, "time": 1537871175, "locktime": 0, "vsize": 226, "size": 226}