{"hash": "1f3d8f4d02a08c4598061a33a1c01a3689e4dc5ec357747e03511ae55294c5ad", "blockhash": "0000000000000000000baef3f32e3676a92c3b2e5da21b426e4f302fc371ce76", "vout": [{"scriptPubKey": {"reqSigs": 1, "hex": "76a9144b1f6d271a6fb4fd1976160b37f197581d3cd16c88ac", "addresses": ["17rDKvxXZf2ntucpCYkkoFbzCG2tzBucom"], "asm": "OP_DUP OP_HASH160 4b1f6d271a6fb4fd1976160b37f197581d3cd16c OP_EQUALVERIFY OP_CHECKSIG", "type": "pubkeyhash"}, "value": 0.00010326, "n": 0}, {"scriptPubKey": {"reqSigs": 1, "hex": "a9140be7846be16b05bea00dbec2fcd7e045a793cb1787", "addresses": ["32mxhko5mJHfkbkDPpz7SfdJwEJi21P1WK"], "asm": "OP_HASH160 0be7846be16b05bea00dbec2fcd7e045a793cb17 OP_EQUAL", "type": "scripthash"}, "value": 0.17696959, "n": 1}], "hex": "01000000000101459f56a537d060f05413ad94848a2876a70b509de297aff05c1a6f7a4a56389d01000000232200202c66ece6da72bcbfeadf83a91236f4891c13e14d8ecebdcaa81666fc1aa73a31ffffffff0256280000000000001976a9144b1f6d271a6fb4fd1976160b37f197581d3cd16c88acbf080e010000000017a9140be7846be16b05bea00dbec2fcd7e045a793cb17870400483045022100f1f48f77489d260ab5d0d9e01b274d5b0a6584ac959535978e25a406fbdd03b4022068fe1e3a21d8c80aaffcb098a0902d55710cf64df6aec3304bd06051e65a17860147304402207f61c0016fcf21699b79cb0d988019c0929aa05d85668684c8487b8b17a4cc4602200c6f28b01234b76c8ca1238db6c03a17b7d14c6e7068fe09132c7c2fa02d441601475221029e6fbb942d34a473faaa5557c1bfe08d72102f0b9754ad140fd369d7a3ba3cdc2103871fc2ca08e6950b38867e8e6a0e94ee625223d3aa0df5c65f414c6d784467e252ae00000000", "vin": [{"txinwitness": ["", "3045022100f1f48f77489d260ab5d0d9e01b274d5b0a6584ac959535978e25a406fbdd03b4022068fe1e3a21d8c80aaffcb098a0902d55710cf64df6aec3304bd06051e65a178601", "304402207f61c0016fcf21699b79cb0d988019c0929aa05d85668684c8487b8b17a4cc4602200c6f28b01234b76c8ca1238db6c03a17b7d14c6e7068fe09132c7c2fa02d441601", "5221029e6fbb942d34a473faaa5557c1bfe08d72102f0b9754ad140fd369d7a3ba3cdc2103871fc2ca08e6950b38867e8e6a0e94ee625223d3aa0df5c65f414c6d784467e252ae"], "sequence": 4294967295, "scriptSig": {"hex": "2200202c66ece6da72bcbfeadf83a91236f4891c13e14d8ecebdcaa81666fc1aa73a31", "asm": "00202c66ece6da72bcbfeadf83a91236f4891c13e14d8ecebdcaa81666fc1aa73a31"}, "vout": 1, "txid": "9d38564a7a6f1a5cf0af97e29d500ba776288a8494ad1354f060d037a5569f45"}], "txid": "d0a9312e16a2ba3c6d73744d9e46f8077e460ba6f9fd97a75c83e1a01f5d6e33", "blocktime": 1537876114, "version": 1, "confirmations": 11462, "time": 1537876114, "locktime": 0, "vsize": 208, "size": 373}