{"hash": "d0ae44d1022d513b26928ef54a3e46f8b4c68b3c3a4e60651f6290c906c3949b", "blockhash": "0000000000000000001f0ddff1eddb255c1121bcd4da4f1bc9a0da00cae72433", "vout": [{"scriptPubKey": {"reqSigs": 1, "hex": "76a91476b94016a906183d07b9a6c6df2501164619a65b88ac", "addresses": ["1Bpkf4EFqSzQ5ebPnS1qZbWWbGjTy1VMo6"], "asm": "OP_DUP OP_HASH160 76b94016a906183d07b9a6c6df2501164619a65b OP_EQUALVERIFY OP_CHECKSIG", "type": "pubkeyhash"}, "value": 0.004528, "n": 0}, {"scriptPubKey": {"reqSigs": 1, "hex": "76a9146586ced214191eaee684bf8787713d2671eff5aa88ac", "addresses": ["1AFpjzWNNtmMamjbbSSNLiVdktzrYMspCQ"], "asm": "OP_DUP OP_HASH160 6586ced214191eaee684bf8787713d2671eff5aa OP_EQUALVERIFY OP_CHECKSIG", "type": "pubkeyhash"}, "value": 0.05981939, "n": 1}], "hex": "0200000001858354bb4d9f9ab3afedfdc4a71480a1fa599ceec441a91b9e023e98133e0f0a000000006a473044022078404b1243cd986f7a56d3b5a116e4971b350864999f6398b47620964e59acad02200c32a78effaaa78891aa6a2118d62c6e2f62f93ab1ce960f439b31fcafdf8a73012103bb92e2be6c9a0ebcc658bc1b1a98fae99e967460c94972fbf04e80059069cbe6ffffffff02c0e80600000000001976a91476b94016a906183d07b9a6c6df2501164619a65b88acf3465b00000000001976a9146586ced214191eaee684bf8787713d2671eff5aa88ac00000000", "vin": [{"sequence": 4294967295, "scriptSig": {"hex": "473044022078404b1243cd986f7a56d3b5a116e4971b350864999f6398b47620964e59acad02200c32a78effaaa78891aa6a2118d62c6e2f62f93ab1ce960f439b31fcafdf8a73012103bb92e2be6c9a0ebcc658bc1b1a98fae99e967460c94972fbf04e80059069cbe6", "asm": "3044022078404b1243cd986f7a56d3b5a116e4971b350864999f6398b47620964e59acad02200c32a78effaaa78891aa6a2118d62c6e2f62f93ab1ce960f439b31fcafdf8a73[ALL] 03bb92e2be6c9a0ebcc658bc1b1a98fae99e967460c94972fbf04e80059069cbe6"}, "vout": 0, "txid": "0a0f3e13983e029e1ba941c4ee9c59faa18014a7c4fdedafb39a9f4dbb548385"}], "txid": "d0ae44d1022d513b26928ef54a3e46f8b4c68b3c3a4e60651f6290c906c3949b", "blocktime": 1537872018, "version": 2, "confirmations": 11489, "time": 1537872018, "locktime": 0, "vsize": 225, "size": 225}