{"hash": "9fa07296ced79fec0e5ad1bba29a4409bef77cb9513c077ff7eceb74f4af5fe0", "blockhash": "00000000000000000018f53835495a110e01622372bf6ae95dc86f2b0ab887b0", "vout": [{"scriptPubKey": {"reqSigs": 1, "hex": "a9140a5a68efee1cffb688a20cfef1e7c78e7edd21f187", "addresses": ["32dkzFcgqyf1H4odWHRDobPKcg8KziazfN"], "asm": "OP_HASH160 0a5a68efee1cffb688a20cfef1e7c78e7edd21f1 OP_EQUAL", "type": "scripthash"}, "value": 3.18285359, "n": 0}, {"scriptPubKey": {"reqSigs": 1, "hex": "a914448a842a3d4c474d67d83927d7d7a7c751dab7bf87", "addresses": ["37wRosG2nASAaLYhNdep6MpmrYiUJFkTVb"], "asm": "OP_HASH160 448a842a3d4c474d67d83927d7d7a7c751dab7bf OP_EQUAL", "type": "scripthash"}, "value": 0.10491885, "n": 1}], "hex": "020000000001015570df61823935d017cda09a2acd6051282c9b65b8ea6863c4e41e273d8e567d0100000017160014a37b3259cce23c2fd356fc67224f017ac2f7f148feffffff022fa6f8120000000017a9140a5a68efee1cffb688a20cfef1e7c78e7edd21f187ed17a0000000000017a914448a842a3d4c474d67d83927d7d7a7c751dab7bf8702473044022062f33458b2607ade013f066d317a4167398cdc4320772ec1f9a1c5a5323d6d6802202dae35a510cfab9d4fab86a287dfc3c521f167e94fcd5b2d2f44a610eef29cd8012103617ce44792820e371b6e65c0986a7f02a7a4043e8f3f9db7fee914f61d8016220e490800", "vin": [{"txinwitness": ["3044022062f33458b2607ade013f066d317a4167398cdc4320772ec1f9a1c5a5323d6d6802202dae35a510cfab9d4fab86a287dfc3c521f167e94fcd5b2d2f44a610eef29cd801", "03617ce44792820e371b6e65c0986a7f02a7a4043e8f3f9db7fee914f61d801622"], "sequence": 4294967294, "scriptSig": {"hex": "160014a37b3259cce23c2fd356fc67224f017ac2f7f148", "asm": "0014a37b3259cce23c2fd356fc67224f017ac2f7f148"}, "vout": 1, "txid": "7d568e3d271ee4c46368eab8659b2c285160cd2a9aa0cd17d035398261df7055"}], "txid": "d0b68316143f6b1fc005c2442a87c88559ab49fb8a819e0b43673812cb3be54c", "blocktime": 1537870928, "version": 2, "confirmations": 11512, "time": 1537870928, "locktime": 542990, "vsize": 166, "size": 247}