{"hash": "9bd24f8c2199e1455cde9a7c18c04ab7c84f1b25150e18e36bdc49f5bcbdfae8", "blockhash": "0000000000000000001cda96e906b7601b7a6fb1a3b62bca570a9e5d8f4b3de1", "vout": [{"scriptPubKey": {"reqSigs": 1, "hex": "76a9140ab56840ca5b21b008524ff6076ce1499bd0025d88ac", "addresses": ["1yd5KE1rv963KoKaavhEgakLMgH11jppS"], "asm": "OP_DUP OP_HASH160 0ab56840ca5b21b008524ff6076ce1499bd0025d OP_EQUALVERIFY OP_CHECKSIG", "type": "pubkeyhash"}, "value": 0.11012812, "n": 0}, {"scriptPubKey": {"reqSigs": 1, "hex": "a9148d3e58dbbf128cdebf7a0129d9ec4a03ffb5fbe387", "addresses": ["3EZqtYXyiUyieef6r9Q1tyqB4UP1gvPSoe"], "asm": "OP_HASH160 8d3e58dbbf128cdebf7a0129d9ec4a03ffb5fbe3 OP_EQUAL", "type": "scripthash"}, "value": 0.11042614, "n": 1}], "hex": "010000000001030a3475db64dfee10e17a45fdad7d07d4276a02cab0151fbc0a363c19c968d08c0200000017160014652a598032d7fc05eda9d626e9d9ab36e3e84e35ffffff00a8ebd36151514ac2662d64770a34e996342d56fc4c1c8f25d2f6f8fe8ff4203901000000171600141cd4d26f10b2425e298172dc5ab4c89f7c433abeffffff0028edfae6e1e85622cf7ac04e28c831f149ff64b189faa29cc249e5f15eafdeb5040000001716001486f15930f46df670e7f41486e2735cb2746a0260ffffff0002cc0aa800000000001976a9140ab56840ca5b21b008524ff6076ce1499bd0025d88ac367fa8000000000017a9148d3e58dbbf128cdebf7a0129d9ec4a03ffb5fbe3870247304402207abc63c79132df08da7d8fac126ed8a8069bc6bd751d6d75c4a17ef95ad7c1b1022070990a2d099c9f33fe54311e409cdb07ceddcc9aae9c9da2a899e915c6f601c3012102b46978d145242ec38a059ee634ea0a07c0f47eedaeb87a3fa64c7de3df0e91c20247304402202b36c0171aa91e14ea1d4bc3bc31a85bb96dd95ef5edac178ebf600b251d6f320220751164ebbd319820069dbf9c4c78f6ab3611c344601984b7e6754d6c12ed30750121028cfff29b5415d653a54f9279bbe3f85bbf40c6bd6c6824563776444fafde5cb702483045022100ef1ffd092d9785bcd20689773650d84441b7d79cbae114412eb57fbfd55a87a102206f25c6bc2f33f1df9203f15e0398dddc961f0e6899a15dc658dc1bb7b12588290121021671da5338c81369890cf6d1a253dbef28dd3626ae9312b74f233a0857e3a6d300000000", "vin": [{"txinwitness": ["304402207abc63c79132df08da7d8fac126ed8a8069bc6bd751d6d75c4a17ef95ad7c1b1022070990a2d099c9f33fe54311e409cdb07ceddcc9aae9c9da2a899e915c6f601c301", "02b46978d145242ec38a059ee634ea0a07c0f47eedaeb87a3fa64c7de3df0e91c2"], "sequence": 16777215, "scriptSig": {"hex": "160014652a598032d7fc05eda9d626e9d9ab36e3e84e35", "asm": "0014652a598032d7fc05eda9d626e9d9ab36e3e84e35"}, "vout": 2, "txid": "8cd068c9193c360abc1f15b0ca026a27d4077dadfd457ae110eedf64db75340a"}, {"txinwitness": ["304402202b36c0171aa91e14ea1d4bc3bc31a85bb96dd95ef5edac178ebf600b251d6f320220751164ebbd319820069dbf9c4c78f6ab3611c344601984b7e6754d6c12ed307501", "028cfff29b5415d653a54f9279bbe3f85bbf40c6bd6c6824563776444fafde5cb7"], "sequence": 16777215, "scriptSig": {"hex": "1600141cd4d26f10b2425e298172dc5ab4c89f7c433abe", "asm": "00141cd4d26f10b2425e298172dc5ab4c89f7c433abe"}, "vout": 1, "txid": "3920f48ffef8f6d2258f1c4cfc562d3496e9340a77642d66c24a515161d3eba8"}, {"txinwitness": ["3045022100ef1ffd092d9785bcd20689773650d84441b7d79cbae114412eb57fbfd55a87a102206f25c6bc2f33f1df9203f15e0398dddc961f0e6899a15dc658dc1bb7b125882901", "021671da5338c81369890cf6d1a253dbef28dd3626ae9312b74f233a0857e3a6d3"], "sequence": 16777215, "scriptSig": {"hex": "16001486f15930f46df670e7f41486e2735cb2746a0260", "asm": "001486f15930f46df670e7f41486e2735cb2746a0260"}, "vout": 4, "txid": "b5deaf5ef1e549c29ca2fa89b164ff49f131c8284ec07acf2256e8e1e6faed28"}], "txid": "d0bff1ab3f40759b4ce2100b8108acb96a4ac0d131100b5961c033a1834cf742", "blocktime": 1537873282, "version": 1, "confirmations": 11485, "time": 1537873282, "locktime": 0, "vsize": 349, "size": 592}