{"hash": "2261321b7fb2d2a6232f5a85e17087af82b6599f33feaf5e363126c11fd571e9", "blockhash": "0000000000000000001f76057863aec43deb6fa401d9628bb513d65a8098bfab", "vout": [{"scriptPubKey": {"reqSigs": 1, "hex": "a91439b120b53088c6e21fa01e61a4a053401fd2d67a87", "addresses": ["36x4dXkL98QJ1vWaMsmrepo1DBwoXnpH2J"], "asm": "OP_HASH160 39b120b53088c6e21fa01e61a4a053401fd2d67a OP_EQUAL", "type": "scripthash"}, "value": 0.01011952, "n": 0}, {"scriptPubKey": {"reqSigs": 1, "hex": "76a914bbaec083b5e6b2619a44122d11954d363152fd0488ac", "addresses": ["1J7NhraWXwxB5EzsPgHjvHxXqAAYgWV397"], "asm": "OP_DUP OP_HASH160 bbaec083b5e6b2619a44122d11954d363152fd04 OP_EQUALVERIFY OP_CHECKSIG", "type": "pubkeyhash"}, "value": 0.0028286, "n": 1}], "hex": "0200000000010266164203f2aa0d1a9bbc49e9f89b8e57854e4a3826de7ae8dcf69c89dd0366f80000000017160014f11edea646cba63e84a6b4efe97264909a5d3ab4feffffffcfcc1d3419d563c60dfa92b9fa92d77c51fd91fe66f4dd0c4da1154e62c5b5a6010000001716001414877672ee409cd932da0051b17e77345a8e08e5feffffff02f0700f000000000017a91439b120b53088c6e21fa01e61a4a053401fd2d67a87ec500400000000001976a914bbaec083b5e6b2619a44122d11954d363152fd0488ac0247304402201e6169f6ec6df49018d77e157ad969a921d6fa172e0156adcb77fe9f650724e30220557984d164d6bdf4e8b45eae4fb738c33ba334bd226b7c99fb8c58696b7e36dd0121030dbb21de9ca7ad8ca384a85b9470ac5bc0a775789e4727f57799de99e84d0fcb02483045022100bc8ef09fee67bf1371be3e9755d33ce21f030e003c522989df325bc6ec28e0b5022004bb7049bb45df0f7aafd609407031f8068b81c7c65188336914f0c9d6cfa3b20121039c5d2fc0cc5d44f4a6dc871f86e5c831cc21932b15947b6b500b372985e63ef3d6480800", "vin": [{"txinwitness": ["304402201e6169f6ec6df49018d77e157ad969a921d6fa172e0156adcb77fe9f650724e30220557984d164d6bdf4e8b45eae4fb738c33ba334bd226b7c99fb8c58696b7e36dd01", "030dbb21de9ca7ad8ca384a85b9470ac5bc0a775789e4727f57799de99e84d0fcb"], "sequence": 4294967294, "scriptSig": {"hex": "160014f11edea646cba63e84a6b4efe97264909a5d3ab4", "asm": "0014f11edea646cba63e84a6b4efe97264909a5d3ab4"}, "vout": 0, "txid": "f86603dd899cf6dce87ade26384a4e85578e9bf8e949bc9b1a0daaf203421666"}, {"txinwitness": ["3045022100bc8ef09fee67bf1371be3e9755d33ce21f030e003c522989df325bc6ec28e0b5022004bb7049bb45df0f7aafd609407031f8068b81c7c65188336914f0c9d6cfa3b201", "039c5d2fc0cc5d44f4a6dc871f86e5c831cc21932b15947b6b500b372985e63ef3"], "sequence": 4294967294, "scriptSig": {"hex": "16001414877672ee409cd932da0051b17e77345a8e08e5", "asm": "001414877672ee409cd932da0051b17e77345a8e08e5"}, "vout": 1, "txid": "a6b5c5624e15a14d0cddf466fe91fd517cd792fab992fa0dc663d519341dcccf"}], "txid": "d0c20f39500a1943c3fc074de35c1b3d85682b9372064017bc1f23539f27113e", "blocktime": 1537873891, "version": 2, "confirmations": 11478, "time": 1537873891, "locktime": 542934, "vsize": 259, "size": 421}