{"hash": "ca47c5a077ed02cc0ff110a6337278f44e7b7c4b14a47290124bf8a0b1cee228", "blockhash": "0000000000000000001cda96e906b7601b7a6fb1a3b62bca570a9e5d8f4b3de1", "vout": [{"scriptPubKey": {"reqSigs": 1, "hex": "76a914201531ed765ac05e058693f8d7b48bade3af67fa88ac", "addresses": ["13ve1o7Yodi7CmNaXVbULMKxZNwHaUF6PR"], "asm": "OP_DUP OP_HASH160 201531ed765ac05e058693f8d7b48bade3af67fa OP_EQUALVERIFY OP_CHECKSIG", "type": "pubkeyhash"}, "value": 0.00234283, "n": 0}, {"scriptPubKey": {"reqSigs": 1, "hex": "a9144ea24341ea9616d5e3c41e505a00eb6e225425a687", "addresses": ["38ro1icYTcLBpvTKCheE47JcJkSPboFVef"], "asm": "OP_HASH160 4ea24341ea9616d5e3c41e505a00eb6e225425a6 OP_EQUAL", "type": "scripthash"}, "value": 0.00895905, "n": 1}, {"scriptPubKey": {"reqSigs": 1, "hex": "76a914b19a212682dd0fa02ae95b96357c8f138d4f95cc88ac", "addresses": ["1HC5F4RMJbMBgcswaZGSq57imwFxgCddAF"], "asm": "OP_DUP OP_HASH160 b19a212682dd0fa02ae95b96357c8f138d4f95cc OP_EQUALVERIFY OP_CHECKSIG", "type": "pubkeyhash"}, "value": 0.31224, "n": 2}, {"scriptPubKey": {"reqSigs": 1, "hex": "a9147263817ba6102609110417d3f247d733f5768ef687", "addresses": ["3C7rACL1vUoQy4KKgPuCgdB6oxLbcp8ZKZ"], "asm": "OP_HASH160 7263817ba6102609110417d3f247d733f5768ef6 OP_EQUAL", "type": "scripthash"}, "value": 0.00325396, "n": 3}, {"scriptPubKey": {"reqSigs": 1, "hex": "a914260643357d3e752850cfebd4437ca16a0b71f9a887", "addresses": ["35A56xjy5MGYMUaTkpGqtFXotTHuZGLneN"], "asm": "OP_HASH160 260643357d3e752850cfebd4437ca16a0b71f9a8 OP_EQUAL", "type": "scripthash"}, "value": 0.00721644, "n": 4}, {"scriptPubKey": {"reqSigs": 1, "hex": "a914a5ad2d461ce29245b6ce759858d77d7153b81c3387", "addresses": ["3Go2sjYYUVYgoi2rzWhWfTYtGPZTCbPwWb"], "asm": "OP_HASH160 a5ad2d461ce29245b6ce759858d77d7153b81c33 OP_EQUAL", "type": "scripthash"}, "value": 0.00184, "n": 5}, {"scriptPubKey": {"reqSigs": 1, "hex": "76a914bbea18a6b9e504d6358174e57919dea30b36823188ac", "addresses": ["1J8boAjyh1YtebhyiiJXyCx3wAF4zEYeLm"], "asm": "OP_DUP OP_HASH160 bbea18a6b9e504d6358174e57919dea30b368231 OP_EQUALVERIFY OP_CHECKSIG", "type": "pubkeyhash"}, "value": 0.00424344, "n": 6}, {"scriptPubKey": {"reqSigs": 1, "hex": "a914181e1fc46b0335ad4567aa6cb88fb9076462841187", "addresses": ["33tYECuwhgrygm5nSQGCiPxHi25esymaD6"], "asm": "OP_HASH160 181e1fc46b0335ad4567aa6cb88fb90764628411 OP_EQUAL", "type": "scripthash"}, "value": 0.00015807, "n": 7}, {"scriptPubKey": {"reqSigs": 1, "hex": "a91474a98b56aa796d72ea6ebd7d1ccf28530a58c86387", "addresses": ["3CKsQwUFgUUd4HAVVjJsiWGPv2SJRfF2nz"], "asm": "OP_HASH160 74a98b56aa796d72ea6ebd7d1ccf28530a58c863 OP_EQUAL", "type": "scripthash"}, "value": 0.00259026, "n": 8}, {"scriptPubKey": {"reqSigs": 1, "hex": "a9141091a9e75b4d06cc820d73dc8c66900ebf39b69987", "addresses": ["33CdEW9iYnG2iQ5kKVTotQ2V5p3SA9wZDY"], "asm": "OP_HASH160 1091a9e75b4d06cc820d73dc8c66900ebf39b699 OP_EQUAL", "type": "scripthash"}, "value": 0.00483549, "n": 9}, {"scriptPubKey": {"reqSigs": 1, "hex": "a9143a60075fec8b7bbd1ce8b49cdbe6a8070406b00487", "addresses": ["371g9sKeodUBcoey611DnPeLDPMkhP69yA"], "asm": "OP_HASH160 3a60075fec8b7bbd1ce8b49cdbe6a8070406b004 OP_EQUAL", "type": "scripthash"}, "value": 0.19192001, "n": 10}, {"scriptPubKey": {"reqSigs": 1, "hex": "76a9145ae1e764f0880125f5644d46194913f11150564d88ac", "addresses": ["19HYSLphjJMduCNiQsQZdfLWmoQETBifaR"], "asm": "OP_DUP OP_HASH160 5ae1e764f0880125f5644d46194913f11150564d OP_EQUALVERIFY OP_CHECKSIG", "type": "pubkeyhash"}, "value": 0.00917722, "n": 11}, {"scriptPubKey": {"reqSigs": 1, "hex": "a9140529db88370cc5c72c898c5e32cef3587a56f54a87", "addresses": ["32AKSpJCPNgirfwW5NvbWds33wLqkhsb1P"], "asm": "OP_HASH160 0529db88370cc5c72c898c5e32cef3587a56f54a OP_EQUAL", "type": "scripthash"}, "value": 0.00285828, "n": 12}, {"scriptPubKey": {"reqSigs": 1, "hex": "a9146ab4ad743e1d0d46936c1e6e0967b2f39f1fb92487", "addresses": ["3BRDzaGTrfGoxwwXiQRSF5gmFsoa2AMNhu"], "asm": "OP_HASH160 6ab4ad743e1d0d46936c1e6e0967b2f39f1fb924 OP_EQUAL", "type": "scripthash"}, "value": 0.00992921, "n": 13}, {"scriptPubKey": {"reqSigs": 1, "hex": "76a914bfe78477da2558f8d9d08e8301b6a3382ee0e47088ac", "addresses": ["1JVhQkkVfESjNug6UQq9xPpdJSRq1fvFY1"], "asm": "OP_DUP OP_HASH160 bfe78477da2558f8d9d08e8301b6a3382ee0e470 OP_EQUALVERIFY OP_CHECKSIG", "type": "pubkeyhash"}, "value": 0.00137717, "n": 14}, {"scriptPubKey": {"reqSigs": 1, "hex": "a9146ba20b345088e1fba5f54338f718fff7b9c55af987", "addresses": ["3BW8M4tkRMcs3d8EJj9igJkf4vzdZcuqr6"], "asm": "OP_HASH160 6ba20b345088e1fba5f54338f718fff7b9c55af9 OP_EQUAL", "type": "scripthash"}, "value": 0.00248712, "n": 15}, {"scriptPubKey": {"reqSigs": 1, "hex": "76a9143aac18f39a59d12877d5f417e92805c75c4158d188ac", "addresses": ["16MEMfjWD1qPVRHfqb2gzUGazuz96Aq6Yp"], "asm": "OP_DUP OP_HASH160 3aac18f39a59d12877d5f417e92805c75c4158d1 OP_EQUALVERIFY OP_CHECKSIG", "type": "pubkeyhash"}, "value": 0.171196, "n": 16}, {"scriptPubKey": {"reqSigs": 1, "hex": "76a9142e90ccd9f7b9abb29ea942c86e7b83c1fdda934988ac", "addresses": ["15FDYigAXqfxkET8UmQmBko48aYsAhaCFe"], "asm": "OP_DUP OP_HASH160 2e90ccd9f7b9abb29ea942c86e7b83c1fdda9349 OP_EQUALVERIFY OP_CHECKSIG", "type": "pubkeyhash"}, "value": 0.00077932, "n": 17}, {"scriptPubKey": {"reqSigs": 1, "hex": "a91449b805b552c551dd8db5259e3114a5cf0f0ed77287", "addresses": ["38Qohe7tjYm32MPfdvrZ3WFvBWDJXGRzWi"], "asm": "OP_HASH160 49b805b552c551dd8db5259e3114a5cf0f0ed772 OP_EQUAL", "type": "scripthash"}, "value": 0.00385985, "n": 18}, {"scriptPubKey": {"reqSigs": 1, "hex": "a914642ae90f994f6b464c2d418b936555727e6c269687", "addresses": ["3ApeuCANfQy8pdvF34hLfPiUfA93vgBDFe"], "asm": "OP_HASH160 642ae90f994f6b464c2d418b936555727e6c2696 OP_EQUAL", "type": "scripthash"}, "value": 0.009381, "n": 19}, {"scriptPubKey": {"reqSigs": 1, "hex": "a914dd5136e7808cf6317d1b0ccd6460c16490ad8c0e87", "addresses": ["3MsEYpRwN2vTRm1EQEU9yAvPWtmzbJJuZQ"], "asm": "OP_HASH160 dd5136e7808cf6317d1b0ccd6460c16490ad8c0e OP_EQUAL", "type": "scripthash"}, "value": 0.00128984, "n": 20}, {"scriptPubKey": {"reqSigs": 1, "hex": "76a914ce86b53bbf612af63ef071de6a801b55325a833b88ac", "addresses": ["1Kq1aBxtSCWLP3Bfh22hwYzVwmggo7ERDe"], "asm": "OP_DUP OP_HASH160 ce86b53bbf612af63ef071de6a801b55325a833b OP_EQUALVERIFY OP_CHECKSIG", "type": "pubkeyhash"}, "value": 0.00285041, "n": 21}, {"scriptPubKey": {"reqSigs": 1, "hex": "a914f253bf2781799d1b56d168b40f422aedca72da2087", "addresses": ["3PnKmnj8faGTppY9dK8rBS3nUM48vvhb2c"], "asm": "OP_HASH160 f253bf2781799d1b56d168b40f422aedca72da20 OP_EQUAL", "type": "scripthash"}, "value": 29.76551868, "n": 22}, {"scriptPubKey": {"reqSigs": 1, "hex": "a9149f4c35b8fd779581c2f4f042bcb176c66c52f89987", "addresses": ["3GDJfCTFVEo9NBTaWJYg5SMHpgGS1KUmpB"], "asm": "OP_HASH160 9f4c35b8fd779581c2f4f042bcb176c66c52f899 OP_EQUAL", "type": "scripthash"}, "value": 0.00027898, "n": 23}, {"scriptPubKey": {"reqSigs": 1, "hex": "a91489cea79355fc5645e01a25b8e68d0b45335cce3287", "addresses": ["3EFg4SKJQ17mmVatkLL1KGiZUCngnH8UTn"], "asm": "OP_HASH160 89cea79355fc5645e01a25b8e68d0b45335cce32 OP_EQUAL", "type": "scripthash"}, "value": 0.0041075, "n": 24}, {"scriptPubKey": {"reqSigs": 1, "hex": "a914f61e8df0f9e3062ed721b4e77d37e92c85383e2687", "addresses": ["3Q8NkhGHL7sHxiorC5XRRBoDoUaWkynm6A"], "asm": "OP_HASH160 f61e8df0f9e3062ed721b4e77d37e92c85383e26 OP_EQUAL", "type": "scripthash"}, "value": 0.0043, "n": 25}, {"scriptPubKey": {"reqSigs": 1, "hex": "76a914d36b17f52f12e6d5a3acd887501e33eaf3ee706488ac", "addresses": ["1LGssUCYwe5WZZieB9yAP7nitazGEn7sPQ"], "asm": "OP_DUP OP_HASH160 d36b17f52f12e6d5a3acd887501e33eaf3ee7064 OP_EQUALVERIFY OP_CHECKSIG", "type": "pubkeyhash"}, "value": 0.00409738, "n": 26}, {"scriptPubKey": {"reqSigs": 1, "hex": "a9140db65dc4a90e2b68ce279411142d09509d7e6d4587", "addresses": ["32wXB4xFPXRKXMcR1whQivFLstUmYKDwJg"], "asm": "OP_HASH160 0db65dc4a90e2b68ce279411142d09509d7e6d45 OP_EQUAL", "type": "scripthash"}, "value": 0.0695379, "n": 27}, {"scriptPubKey": {"reqSigs": 1, "hex": "a9147173133c934f8554b62c74f93362edeb18d12f8087", "addresses": ["3C2t8nHuC7BaqHnahcrzvUYaYB8dForhhL"], "asm": "OP_HASH160 7173133c934f8554b62c74f93362edeb18d12f80 OP_EQUAL", "type": "scripthash"}, "value": 0.00468567, "n": 28}], "hex": "0200000000010187e0662cac839d345eef42a20fa677b1ca0003faf7ada3e00ee0fa8f9053dd9415000000171600145b94f15df81c6d5a9c3248fdc6973741d224baaffeffffff1d2b930300000000001976a914201531ed765ac05e058693f8d7b48bade3af67fa88aca1ab0d000000000017a9144ea24341ea9616d5e3c41e505a00eb6e225425a687c070dc01000000001976a914b19a212682dd0fa02ae95b96357c8f138d4f95cc88ac14f704000000000017a9147263817ba6102609110417d3f247d733f5768ef687ec020b000000000017a914260643357d3e752850cfebd4437ca16a0b71f9a887c0ce02000000000017a914a5ad2d461ce29245b6ce759858d77d7153b81c338798790600000000001976a914bbea18a6b9e504d6358174e57919dea30b36823188acbf3d00000000000017a914181e1fc46b0335ad4567aa6cb88fb9076462841187d2f303000000000017a91474a98b56aa796d72ea6ebd7d1ccf28530a58c86387dd6007000000000017a9141091a9e75b4d06cc820d73dc8c66900ebf39b69987c1d824010000000017a9143a60075fec8b7bbd1ce8b49cdbe6a8070406b00487da000e00000000001976a9145ae1e764f0880125f5644d46194913f11150564d88ac845c04000000000017a9140529db88370cc5c72c898c5e32cef3587a56f54a8799260f000000000017a9146ab4ad743e1d0d46936c1e6e0967b2f39f1fb92487f5190200000000001976a914bfe78477da2558f8d9d08e8301b6a3382ee0e47088ac88cb03000000000017a9146ba20b345088e1fba5f54338f718fff7b9c55af98770390501000000001976a9143aac18f39a59d12877d5f417e92805c75c4158d188ac6c300100000000001976a9142e90ccd9f7b9abb29ea942c86e7b83c1fdda934988acc1e305000000000017a91449b805b552c551dd8db5259e3114a5cf0f0ed7728774500e000000000017a914642ae90f994f6b464c2d418b936555727e6c269687d8f701000000000017a914dd5136e7808cf6317d1b0ccd6460c16490ad8c0e8771590400000000001976a914ce86b53bbf612af63ef071de6a801b55325a833b88acbc936ab10000000017a914f253bf2781799d1b56d168b40f422aedca72da2087fa6c00000000000017a9149f4c35b8fd779581c2f4f042bcb176c66c52f899877e4406000000000017a91489cea79355fc5645e01a25b8e68d0b45335cce3287b08f06000000000017a914f61e8df0f9e3062ed721b4e77d37e92c85383e26878a400600000000001976a914d36b17f52f12e6d5a3acd887501e33eaf3ee706488ac3e1b6a000000000017a9140db65dc4a90e2b68ce279411142d09509d7e6d4587572607000000000017a9147173133c934f8554b62c74f93362edeb18d12f80870247304402204392cc4246c4aae7db24d9f4a62363540bbd36e3c83e8325cf2b24d8029f23e80220053ad69d742eec9ba533a1fe1588870a6811118e4d52036730157110cef97a9a01210337ab6fe5984e1fb60aaa6b08cd9c0b9e457a009f92e726fd315212af45e9eb3413490800", "vin": [{"txinwitness": ["304402204392cc4246c4aae7db24d9f4a62363540bbd36e3c83e8325cf2b24d8029f23e80220053ad69d742eec9ba533a1fe1588870a6811118e4d52036730157110cef97a9a01", "0337ab6fe5984e1fb60aaa6b08cd9c0b9e457a009f92e726fd315212af45e9eb34"], "sequence": 4294967294, "scriptSig": {"hex": "1600145b94f15df81c6d5a9c3248fdc6973741d224baaf", "asm": "00145b94f15df81c6d5a9c3248fdc6973741d224baaf"}, "vout": 21, "txid": "94dd53908ffae00ee0a3adf7fa0300cab177a60fa242ef5e349d83ac2c66e087"}], "txid": "d0ca54e52996ffa79d6a76c8693ab7ad2e21f81de3940ae96c5b64a42024bcb4", "blocktime": 1537873282, "version": 2, "confirmations": 11481, "time": 1537873282, "locktime": 542995, "vsize": 1048, "size": 1129}