{"hash": "8aa029f795d38f5a4b3bd841c64438d57c53ae1c23b08d81e81a597faa910be3", "blockhash": "0000000000000000001f76057863aec43deb6fa401d9628bb513d65a8098bfab", "vout": [{"scriptPubKey": {"reqSigs": 1, "hex": "a914048e83ccb10f9ac998537a434ace0f53e15087e087", "addresses": ["3277MR5LisimsYfAQMD4febg9CMd2i2nuc"], "asm": "OP_HASH160 048e83ccb10f9ac998537a434ace0f53e15087e0 OP_EQUAL", "type": "scripthash"}, "value": 0.01689717, "n": 0}, {"scriptPubKey": {"reqSigs": 1, "hex": "76a914d84a2b7e65fe4e8219af1213b8843826cd0bf4ef88ac", "addresses": ["1LidorK3GSVhVZSoHvoeDJ7BPRPBgWdDDk"], "asm": "OP_DUP OP_HASH160 d84a2b7e65fe4e8219af1213b8843826cd0bf4ef OP_EQUALVERIFY OP_CHECKSIG", "type": "pubkeyhash"}, "value": 0.00362604, "n": 1}], "hex": "0200000000010277f7fd35ab08989b4008d78049dd73a108555c488aaa472f36b2b9b6d1a1658e0100000017160014dc45975ecc333c5a34b6807ca93bc7b79db4fd01feffffff9122ed985ea5938c016dd714e399c680ae205bf4d6828561ff27a093dedb66450100000017160014524acba54f071f89c336e8d1a757b75d34cd51f6feffffff0275c819000000000017a914048e83ccb10f9ac998537a434ace0f53e15087e0876c880500000000001976a914d84a2b7e65fe4e8219af1213b8843826cd0bf4ef88ac0247304402206457cf6a0ed4d6723b3af067c7fd01587e242f64656bee65ef2b4c0adc34048302204cb9aca0a008df34f70a47a47d9ab1ace2f992d4a6b96084e0f88565240d42b3012102a8302cb40ea82806e53bd3a6415434802f9b686334a18769a445fdbe47c6ac5d024730440220563080184129a18afd3fdb2b16ef724198d55ce9cbbd0e3c5e19dc1aab82fce302201439771ca72856398e079f62f09fad23792a8bad2a46a80fe73aac64112b71760121028de8823c859020324a07cdfe633697d30023f157f572e13582d84872ad5dc46714490800", "vin": [{"txinwitness": ["304402206457cf6a0ed4d6723b3af067c7fd01587e242f64656bee65ef2b4c0adc34048302204cb9aca0a008df34f70a47a47d9ab1ace2f992d4a6b96084e0f88565240d42b301", "02a8302cb40ea82806e53bd3a6415434802f9b686334a18769a445fdbe47c6ac5d"], "sequence": 4294967294, "scriptSig": {"hex": "160014dc45975ecc333c5a34b6807ca93bc7b79db4fd01", "asm": "0014dc45975ecc333c5a34b6807ca93bc7b79db4fd01"}, "vout": 1, "txid": "8e65a1d1b6b9b2362f47aa8a485c5508a173dd4980d708409b9808ab35fdf777"}, {"txinwitness": ["30440220563080184129a18afd3fdb2b16ef724198d55ce9cbbd0e3c5e19dc1aab82fce302201439771ca72856398e079f62f09fad23792a8bad2a46a80fe73aac64112b717601", "028de8823c859020324a07cdfe633697d30023f157f572e13582d84872ad5dc467"], "sequence": 4294967294, "scriptSig": {"hex": "160014524acba54f071f89c336e8d1a757b75d34cd51f6", "asm": "0014524acba54f071f89c336e8d1a757b75d34cd51f6"}, "vout": 1, "txid": "4566dbde93a027ff618582d6f45b20ae80c699e314d76d018c93a55e98ed2291"}], "txid": "d0cc1abd2bd1641afd83ff00ae598726d0ba2043b3f5fe1794c8db07b812051c", "blocktime": 1537873891, "version": 2, "confirmations": 11478, "time": 1537873891, "locktime": 542996, "vsize": 258, "size": 420}