{"hash": "16db742a1b8923d6f56a5b0274e47f3ac1b9f1bb314e1e2e5bcb5b0a5dfcea5a", "blockhash": "0000000000000000001cda96e906b7601b7a6fb1a3b62bca570a9e5d8f4b3de1", "vout": [{"scriptPubKey": {"reqSigs": 1, "hex": "76a9148600cb15dd8665887f55852acab3e7995f0c6c2588ac", "addresses": ["1DDYVpqwRd4fVaQ64KPAi2cWSaapyDYW9A"], "asm": "OP_DUP OP_HASH160 8600cb15dd8665887f55852acab3e7995f0c6c25 OP_EQUALVERIFY OP_CHECKSIG", "type": "pubkeyhash"}, "value": 0.1596, "n": 0}, {"scriptPubKey": {"reqSigs": 1, "hex": "76a914cebb2851a9c7cfe2582c12ecaf7f3ff4383d1dc088ac", "addresses": ["1Kr6QSydW9bFQG1mXiPNNu6WpJGmUa9i1g"], "asm": "OP_DUP OP_HASH160 cebb2851a9c7cfe2582c12ecaf7f3ff4383d1dc0 OP_EQUALVERIFY OP_CHECKSIG", "type": "pubkeyhash"}, "value": 33.72541217, "n": 1}], "hex": "02000000000103eab65ffe83fd95b80bb6921bdf0697721e2a5534747c1a831be40447fed01c44010000006b483045022100cb3acff00f5cffee711bbaa729fe720c5f74aade5b2e119544ad0f472194a3d4022048463764e6b356a3724383ad8241718f045955efe1d51a5019300d4a8370b02e012102b499635f503ded4e22cc47d42cfdea87de668f6b3da9a48411fa8de6a15266f8ffffffff37dccb9af6b1d8640a5f801aa56de96b371e6c0e6ddc8033329bae1451822e41010000006a47304402204108a65f1e2b1b0d265f1a5ecb39fff6972227b9e4fd80acf5697c867a94c80b022051533c055171409812f04f771d16ff4c9132789deddea92c9953189755f8bf1b012103786af4b32017ec640dba2d2a7e1fd5aa4a231a658e4cbc114d51c031576e19bcfffffffffbb59853c441861ba581b2e1385a8c4a913b52e68e697064e8762ddba24b30600100000017160014d486464c819a3a91d8f54bd86624a00a49bd1715ffffffff02c087f300000000001976a9148600cb15dd8665887f55852acab3e7995f0c6c2588ac21e504c9000000001976a914cebb2851a9c7cfe2582c12ecaf7f3ff4383d1dc088ac0000024830450221009b5460e65a34f9f5d80532f7c82569b70c1b1f7610c80297278d68a379e7185f02207b5e7a4eab891b45054b7f9caaac9dc89682a559dbc6dfee60cf93975cc2468501210354702ea46dc6e497a56197c320d5f6fff6abd36320ceca4e83c4aad0c71fc74a00000000", "vin": [{"sequence": 4294967295, "scriptSig": {"hex": "483045022100cb3acff00f5cffee711bbaa729fe720c5f74aade5b2e119544ad0f472194a3d4022048463764e6b356a3724383ad8241718f045955efe1d51a5019300d4a8370b02e012102b499635f503ded4e22cc47d42cfdea87de668f6b3da9a48411fa8de6a15266f8", "asm": "3045022100cb3acff00f5cffee711bbaa729fe720c5f74aade5b2e119544ad0f472194a3d4022048463764e6b356a3724383ad8241718f045955efe1d51a5019300d4a8370b02e[ALL] 02b499635f503ded4e22cc47d42cfdea87de668f6b3da9a48411fa8de6a15266f8"}, "vout": 1, "txid": "441cd0fe4704e41b831a7c7434552a1e729706df1b92b60bb895fd83fe5fb6ea"}, {"sequence": 4294967295, "scriptSig": {"hex": "47304402204108a65f1e2b1b0d265f1a5ecb39fff6972227b9e4fd80acf5697c867a94c80b022051533c055171409812f04f771d16ff4c9132789deddea92c9953189755f8bf1b012103786af4b32017ec640dba2d2a7e1fd5aa4a231a658e4cbc114d51c031576e19bc", "asm": "304402204108a65f1e2b1b0d265f1a5ecb39fff6972227b9e4fd80acf5697c867a94c80b022051533c055171409812f04f771d16ff4c9132789deddea92c9953189755f8bf1b[ALL] 03786af4b32017ec640dba2d2a7e1fd5aa4a231a658e4cbc114d51c031576e19bc"}, "vout": 1, "txid": "412e825114ae9b323380dc6d0e6c1e376be96da51a805f0a64d8b1f69acbdc37"}, {"txinwitness": ["30450221009b5460e65a34f9f5d80532f7c82569b70c1b1f7610c80297278d68a379e7185f02207b5e7a4eab891b45054b7f9caaac9dc89682a559dbc6dfee60cf93975cc2468501", "0354702ea46dc6e497a56197c320d5f6fff6abd36320ceca4e83c4aad0c71fc74a"], "sequence": 4294967295, "scriptSig": {"hex": "160014d486464c819a3a91d8f54bd86624a00a49bd1715", "asm": "0014d486464c819a3a91d8f54bd86624a00a49bd1715"}, "vout": 1, "txid": "60304ba2db2d76e86470698ee6523b914a8c5a38e1b281a51b8641c45398b5fb"}], "txid": "d0d10f7c8727e80dd529ee84ecf63296735348585b7632393ed1ea4ba142def9", "blocktime": 1537873282, "version": 2, "confirmations": 11481, "time": 1537873282, "locktime": 0, "vsize": 465, "size": 549}