{"hash": "d0d2c1ae971a1edecff2ba0970699aeb11d9f97996e094c015f7070ed895bb00", "blockhash": "0000000000000000000baef3f32e3676a92c3b2e5da21b426e4f302fc371ce76", "vout": [{"scriptPubKey": {"reqSigs": 1, "hex": "a9143e68d6b529950c96ee9161f474101b08823aaaae87", "addresses": ["37P1Qkuyp84TMJ73TZQtq6Ez5yaQfsHFvk"], "asm": "OP_HASH160 3e68d6b529950c96ee9161f474101b08823aaaae OP_EQUAL", "type": "scripthash"}, "value": 0.00032, "n": 0}, {"scriptPubKey": {"reqSigs": 1, "hex": "76a914f5c625d68bf032e5828022c8b86cc576aa7141cd88ac", "addresses": ["1PQXvYrrjNHzD7YdaxRUXCpigP4pppt4Q8"], "asm": "OP_DUP OP_HASH160 f5c625d68bf032e5828022c8b86cc576aa7141cd OP_EQUALVERIFY OP_CHECKSIG", "type": "pubkeyhash"}, "value": 0.05073562, "n": 1}], "hex": "0100000001fb45aa7592fb62eff543de8b1132ed7d47fd24c4387cf99ec909aea9ecd1e0f3010000006a473044022008727f8551ec1987d1d5d94599fd0d5c0fa1e010666755f72ba49d58789245aa02205d4162b0f5025721ab1c772233859262c464d9182e7451ac2185c776f7874d6b012102e5cd76ab832f233e1c7989a44f61e558a56404810e7eee07d4829b5601785805ffffffff02007d00000000000017a9143e68d6b529950c96ee9161f474101b08823aaaae879a6a4d00000000001976a914f5c625d68bf032e5828022c8b86cc576aa7141cd88ac00000000", "vin": [{"sequence": 4294967295, "scriptSig": {"hex": "473044022008727f8551ec1987d1d5d94599fd0d5c0fa1e010666755f72ba49d58789245aa02205d4162b0f5025721ab1c772233859262c464d9182e7451ac2185c776f7874d6b012102e5cd76ab832f233e1c7989a44f61e558a56404810e7eee07d4829b5601785805", "asm": "3044022008727f8551ec1987d1d5d94599fd0d5c0fa1e010666755f72ba49d58789245aa02205d4162b0f5025721ab1c772233859262c464d9182e7451ac2185c776f7874d6b[ALL] 02e5cd76ab832f233e1c7989a44f61e558a56404810e7eee07d4829b5601785805"}, "vout": 1, "txid": "f3e0d1eca9ae09c99ef97c38c424fd477ded32118bde43f5ef62fb9275aa45fb"}], "txid": "d0d2c1ae971a1edecff2ba0970699aeb11d9f97996e094c015f7070ed895bb00", "blocktime": 1537876114, "version": 1, "confirmations": 11460, "time": 1537876114, "locktime": 0, "vsize": 223, "size": 223}