{"hash": "2205feb447d992ee8d4727341ad1f7ea626e84da183e331f928b5710525bb9f4", "blockhash": "000000000000000000022b45ed06c6f4ccd3cf7fb5ba4856ebd2e58215665228", "vout": [{"scriptPubKey": {"reqSigs": 1, "hex": "76a914ad094c65db7ff909e401ad51e903ec1df3e7840588ac", "addresses": ["1Gmw3FfbJDe3sqdsp3D2jfJNAeeuEoWYyy"], "asm": "OP_DUP OP_HASH160 ad094c65db7ff909e401ad51e903ec1df3e78405 OP_EQUALVERIFY OP_CHECKSIG", "type": "pubkeyhash"}, "value": 0.3522336, "n": 0}, {"scriptPubKey": {"reqSigs": 1, "hex": "a9146b374f7572964bd3193be809520d04ab0447ab0287", "addresses": ["3BTvV6uNQ8ajGRFW9rpjduNrgHp8ifmJx5"], "asm": "OP_HASH160 6b374f7572964bd3193be809520d04ab0447ab02 OP_EQUAL", "type": "scripthash"}, "value": 0.12248232, "n": 1}], "hex": "0100000000010358467a27228b9f53d91a70a29b85f9ea0ac5b337f6bc5594e0941fc6bf5d96bd0100000023220020f7055a6819ffc353fe3b4f56295baaf919c8adf08de31a2fd397c0361781f44bfdffffff704606d48adba13ea386a93e3025a069b0ea8cd59f0bbca7cc6bc4e4c1668d2300000000232200200accc3f74a737f38ad274e28f5bac8d9cc1ba4fe02d4f15590a6ff31a11dcad4fdffffff7f118f22a93a9a7903e128dae9e0fbfa11ba090261e3bed9a12bad385d7fbe0a00000000232200208d383271dedfab6112d3a1e882ae2333b54251864a881888e806ce0ca801fb6efdffffff0240771902000000001976a914ad094c65db7ff909e401ad51e903ec1df3e7840588aca8e4ba000000000017a9146b374f7572964bd3193be809520d04ab0447ab0287040047304402205dfa4297f914d626556cadf5857a3796766b2a1b2fbc73727a59178b86756aec022064495212a3d603c8282c315beeb99b7d3b8774b6cf22d6684abf68a0065b43af014730440220220947b3b586ea0b4f17beafd660dabf9aef2bed3b26bcd72d8586959ce00ff602201e6c6f3565a05c8453ae75d1f50f03925bfd77b40bee827eb55a3ce8d280e0b10147522102fbe6c1be5bbcffeb72b175732c58d60a6f4f65266b927db5a55463d65055a4562102a68ef5457f672d721c4827751626254a905b1a7b922efb652f3ccd83bc0e384a52ae0400473044022030aa6b0feb3cdc3bf2be929c7adaf42e9ec9668fa7f588f86c6d7d9793bb4be60220661ec622e8f46a1b04a3d2b0bcb34ebe18a586f244a8f89df7094306bb3fbbeb01483045022100e62bc51aed3703e0e2995fdb11fcbac04050fb6372469859a62ebad9b24101b302204447d2d23167fc1a02067220be48e840c62a6848f595876a306b1662ebbefd450147522103be0c90b89deb975e63c5456f105a8d15ab95d6472d1e01fad361231c369c732f2103f31e8731d43cc543916d4d5427fb69401d98e1daeb60a89f3650b379d67ac12452ae040047304402202c9c140928a854b8573d1f29fe699264bcd5fa94db8f4f505eb95247049dc72d02201eaff7ab1d80347d86b16c9226b16173945833e899c61c57272f22483f591b0f0147304402200909c0d496f380bad64509e999547138bc8c0aab11aac504c80e2503e8871bb602203bee002906b28ada12d477c6183c186b5b25d0ff4e0b37072ada6b88896b1cc40147522102f7802f8ab73cd8626cfec7c5609bb9573c0c87304ef2aa083181f3c01a58276221020a1be67d4c9b32f41fc9c25629456911a54ead278c309ae95bb842120ebb38c752aefd480800", "vin": [{"txinwitness": ["", "304402205dfa4297f914d626556cadf5857a3796766b2a1b2fbc73727a59178b86756aec022064495212a3d603c8282c315beeb99b7d3b8774b6cf22d6684abf68a0065b43af01", "30440220220947b3b586ea0b4f17beafd660dabf9aef2bed3b26bcd72d8586959ce00ff602201e6c6f3565a05c8453ae75d1f50f03925bfd77b40bee827eb55a3ce8d280e0b101", "522102fbe6c1be5bbcffeb72b175732c58d60a6f4f65266b927db5a55463d65055a4562102a68ef5457f672d721c4827751626254a905b1a7b922efb652f3ccd83bc0e384a52ae"], "sequence": 4294967293, "scriptSig": {"hex": "220020f7055a6819ffc353fe3b4f56295baaf919c8adf08de31a2fd397c0361781f44b", "asm": "0020f7055a6819ffc353fe3b4f56295baaf919c8adf08de31a2fd397c0361781f44b"}, "vout": 1, "txid": "bd965dbfc61f94e09455bcf637b3c50aeaf9859ba2701ad9539f8b22277a4658"}, {"txinwitness": ["", "3044022030aa6b0feb3cdc3bf2be929c7adaf42e9ec9668fa7f588f86c6d7d9793bb4be60220661ec622e8f46a1b04a3d2b0bcb34ebe18a586f244a8f89df7094306bb3fbbeb01", "3045022100e62bc51aed3703e0e2995fdb11fcbac04050fb6372469859a62ebad9b24101b302204447d2d23167fc1a02067220be48e840c62a6848f595876a306b1662ebbefd4501", "522103be0c90b89deb975e63c5456f105a8d15ab95d6472d1e01fad361231c369c732f2103f31e8731d43cc543916d4d5427fb69401d98e1daeb60a89f3650b379d67ac12452ae"], "sequence": 4294967293, "scriptSig": {"hex": "2200200accc3f74a737f38ad274e28f5bac8d9cc1ba4fe02d4f15590a6ff31a11dcad4", "asm": "00200accc3f74a737f38ad274e28f5bac8d9cc1ba4fe02d4f15590a6ff31a11dcad4"}, "vout": 0, "txid": "238d66c1e4c46bcca7bc0b9fd58ceab069a025303ea986a33ea1db8ad4064670"}, {"txinwitness": ["", "304402202c9c140928a854b8573d1f29fe699264bcd5fa94db8f4f505eb95247049dc72d02201eaff7ab1d80347d86b16c9226b16173945833e899c61c57272f22483f591b0f01", "304402200909c0d496f380bad64509e999547138bc8c0aab11aac504c80e2503e8871bb602203bee002906b28ada12d477c6183c186b5b25d0ff4e0b37072ada6b88896b1cc401", "522102f7802f8ab73cd8626cfec7c5609bb9573c0c87304ef2aa083181f3c01a58276221020a1be67d4c9b32f41fc9c25629456911a54ead278c309ae95bb842120ebb38c752ae"], "sequence": 4294967293, "scriptSig": {"hex": "2200208d383271dedfab6112d3a1e882ae2333b54251864a881888e806ce0ca801fb6e", "asm": "00208d383271dedfab6112d3a1e882ae2333b54251864a881888e806ce0ca801fb6e"}, "vout": 0, "txid": "0abe7f5d38ad2ba1d9bee3610209ba11fafbe0e9da28e103799a3aa9228f117f"}], "txid": "d0d3a1db3a438f37e136474af49bea8aaa7fa225d3ee8c56ab8b106821ddf09b", "blocktime": 1537869901, "version": 1, "confirmations": 11522, "time": 1537869901, "locktime": 542973, "vsize": 469, "size": 961}