{"hash": "d0d4484f5e56302af9c41cd81c78d14adf3105ab47d225381c26eaccac768c3c", "blockhash": "0000000000000000001f76057863aec43deb6fa401d9628bb513d65a8098bfab", "vout": [{"scriptPubKey": {"reqSigs": 1, "hex": "76a914b1df8aad9b74ee3d6808fa9754bd9c5b7d3f8ae988ac", "addresses": ["1HDWPuTPMn1CvuPCiiBRQbpcJYgoiyvuwK"], "asm": "OP_DUP OP_HASH160 b1df8aad9b74ee3d6808fa9754bd9c5b7d3f8ae9 OP_EQUALVERIFY OP_CHECKSIG", "type": "pubkeyhash"}, "value": 0.0003368, "n": 0}, {"scriptPubKey": {"reqSigs": 1, "hex": "76a91460605d2f1b1a2f4c0b705beccc283677ea58aee988ac", "addresses": ["19nbJuRTXhCsfUfFqMijpbsdc2wgERFS8J"], "asm": "OP_DUP OP_HASH160 60605d2f1b1a2f4c0b705beccc283677ea58aee9 OP_EQUALVERIFY OP_CHECKSIG", "type": "pubkeyhash"}, "value": 0.02965747, "n": 1}], "hex": "0100000001577583fa710c2fe8496f6afb2c59bf01bf8dfd28b35d7b51e2b854d78b75e5fe000000006a47304402205a15a4e9c4b871af2ffb45aa0d4f04c6971bf2b25e29cae0f444f005815a7989022037b96a82705fd412cfb34ad604eb3740b48e9478bde71be2df4da7974b271cd301210321742e3b5cadbaf670255f7612c74da648323416564b0ecaee19488960e6d996ffffffff0290830000000000001976a914b1df8aad9b74ee3d6808fa9754bd9c5b7d3f8ae988acf3402d00000000001976a91460605d2f1b1a2f4c0b705beccc283677ea58aee988ac00000000", "vin": [{"sequence": 4294967295, "scriptSig": {"hex": "47304402205a15a4e9c4b871af2ffb45aa0d4f04c6971bf2b25e29cae0f444f005815a7989022037b96a82705fd412cfb34ad604eb3740b48e9478bde71be2df4da7974b271cd301210321742e3b5cadbaf670255f7612c74da648323416564b0ecaee19488960e6d996", "asm": "304402205a15a4e9c4b871af2ffb45aa0d4f04c6971bf2b25e29cae0f444f005815a7989022037b96a82705fd412cfb34ad604eb3740b48e9478bde71be2df4da7974b271cd3[ALL] 0321742e3b5cadbaf670255f7612c74da648323416564b0ecaee19488960e6d996"}, "vout": 0, "txid": "fee5758bd754b8e2517b5db328fd8dbf01bf592cfb6a6f49e82f0c71fa837557"}], "txid": "d0d4484f5e56302af9c41cd81c78d14adf3105ab47d225381c26eaccac768c3c", "blocktime": 1537873891, "version": 1, "confirmations": 11478, "time": 1537873891, "locktime": 0, "vsize": 225, "size": 225}