{"hash": "690a028353b3bfe39fb805840b10ce8cb030e3b3213fb02f150d9dc2ee70dd86", "blockhash": "0000000000000000001e0dab787dd257d1dbfcb92a98c2207d5e1078be1f4165", "vout": [{"scriptPubKey": {"reqSigs": 1, "hex": "a9142b1c135a23c3855f795c4caa45752d12ff47d13987", "addresses": ["35cxcX3ymCSTQDwL7kNpSzjBqEUnpzkoMe"], "asm": "OP_HASH160 2b1c135a23c3855f795c4caa45752d12ff47d139 OP_EQUAL", "type": "scripthash"}, "value": 0.00999476, "n": 0}, {"scriptPubKey": {"reqSigs": 1, "hex": "a914d5f7e35c1ab6090e3e912ed6825402e0339e973d87", "addresses": ["3MCNoyMa465vAffqeVF9nH6ZQSymVNxtZ7"], "asm": "OP_HASH160 d5f7e35c1ab6090e3e912ed6825402e0339e973d OP_EQUAL", "type": "scripthash"}, "value": 0.1413986, "n": 1}], "hex": "020000000001050c6bc7848460a4bfa61590b31beba8c7a567b5d1db108085dc2dfbe9fa97da0b0100000017160014b17aad2643f847ec9b22e44efb1fbfc4a7411053feffffff2c5e2e5bed4cb0fe00e6a77e61f4bd673718f6f91ab8af5ae034b7fcfaca9ef50100000017160014b207168d96c8aaf83dbf742fc50b0fb4a531cf48feffffffa85264a947af6cc598d5a0b0c5799f81345c1b26c11fd494073215943494598900000000171600144c4c8e25b33619f83af8a883fb04b7579eaae4a3feffffffb82f13d5e851bde1a43e5e74c7adeb14a82e3026dbb56288e58bf06d4e8ed95d01000000171600143d466c9dd1143176418bab043a2c24aa498e851bfeffffffe9a3bec46444d5b27d7377973a687297709ef9ae95baa2614e4475a236e0fb4100000000171600145d0628fecac07a62860768096b4acb13fb00d9d7feffffff0234400f000000000017a9142b1c135a23c3855f795c4caa45752d12ff47d13987d4c1d7000000000017a914d5f7e35c1ab6090e3e912ed6825402e0339e973d8702483045022100c85f210d157108deec5723d3755d681aa5cf46948e5a191a1ba80624e3372cb902202a937b1042ea8df995626cfce55412823c96db5337996316e0b265823e9929cf012102195313c303d0f2c357f7873ce410adbd6ea6bec498663ea61b3f70bd69b0b77502483045022100f021d8f1534ab91d710ddec04cb8da29df798b2d2cb88d9b3994a7a890ff635a0220293c1f9d3134bb7593f78231fbb641372ea0ff1ca9cb062eedae1c4cb1be81670121031ec4b038809cd25afd6643ade93349b3f031826ffbab6cf6cec4cfad94a0eb2002483045022100b745af6cef20a0b1d27e838b4a2ff9f8bd24d8f6cfa80e382f753deca6fdb54b02200328b2b574ba78b6d0670adde71884a4c5cdc0fe3bba084fc441079295328ecf01210392c8c61077d64882dc336ff4a3bf18c872ecd5a29ef142a83eea0e7d754799e702483045022100bbaabfe036fae6d3458f9755876fdb7af1c281c91f2b4f20d0784cb0d3480bae022015b45a82e461fff6f2766f5682adcd8b8f8f66dc14253bb8e0792511815d47ed0121021cd6daf9b89402e828162cc17f2b2cda413e6e2b88262ba68039a956741b4d2402473044022069c6b821f075f9f57fb31ea7cb2d7a9af4fbbf470d5ae252a62dd057843a9891022076e99def7122cb5645c82c832bf4122b8c5afd2288fcb8a6f62dfa8262fd5df9012103db9b1e4a1c367d0a09ed285a01e82fd3668c74e46f339f91044b484888118b4900000000", "vin": [{"txinwitness": ["3045022100c85f210d157108deec5723d3755d681aa5cf46948e5a191a1ba80624e3372cb902202a937b1042ea8df995626cfce55412823c96db5337996316e0b265823e9929cf01", "02195313c303d0f2c357f7873ce410adbd6ea6bec498663ea61b3f70bd69b0b775"], "sequence": 4294967294, "scriptSig": {"hex": "160014b17aad2643f847ec9b22e44efb1fbfc4a7411053", "asm": "0014b17aad2643f847ec9b22e44efb1fbfc4a7411053"}, "vout": 1, "txid": "0bda97fae9fb2ddc858010dbd1b567a5c7a8eb1bb39015a6bfa4608484c76b0c"}, {"txinwitness": ["3045022100f021d8f1534ab91d710ddec04cb8da29df798b2d2cb88d9b3994a7a890ff635a0220293c1f9d3134bb7593f78231fbb641372ea0ff1ca9cb062eedae1c4cb1be816701", "031ec4b038809cd25afd6643ade93349b3f031826ffbab6cf6cec4cfad94a0eb20"], "sequence": 4294967294, "scriptSig": {"hex": "160014b207168d96c8aaf83dbf742fc50b0fb4a531cf48", "asm": "0014b207168d96c8aaf83dbf742fc50b0fb4a531cf48"}, "vout": 1, "txid": "f59ecafafcb734e05aafb81af9f6183767bdf4617ea7e600feb04ced5b2e5e2c"}, {"txinwitness": ["3045022100b745af6cef20a0b1d27e838b4a2ff9f8bd24d8f6cfa80e382f753deca6fdb54b02200328b2b574ba78b6d0670adde71884a4c5cdc0fe3bba084fc441079295328ecf01", "0392c8c61077d64882dc336ff4a3bf18c872ecd5a29ef142a83eea0e7d754799e7"], "sequence": 4294967294, "scriptSig": {"hex": "1600144c4c8e25b33619f83af8a883fb04b7579eaae4a3", "asm": "00144c4c8e25b33619f83af8a883fb04b7579eaae4a3"}, "vout": 0, "txid": "895994349415320794d41fc1261b5c34819f79c5b0a0d598c56caf47a96452a8"}, {"txinwitness": ["3045022100bbaabfe036fae6d3458f9755876fdb7af1c281c91f2b4f20d0784cb0d3480bae022015b45a82e461fff6f2766f5682adcd8b8f8f66dc14253bb8e0792511815d47ed01", "021cd6daf9b89402e828162cc17f2b2cda413e6e2b88262ba68039a956741b4d24"], "sequence": 4294967294, "scriptSig": {"hex": "1600143d466c9dd1143176418bab043a2c24aa498e851b", "asm": "00143d466c9dd1143176418bab043a2c24aa498e851b"}, "vout": 1, "txid": "5dd98e4e6df08be58862b5db26302ea814ebadc7745e3ea4e1bd51e8d5132fb8"}, {"txinwitness": ["3044022069c6b821f075f9f57fb31ea7cb2d7a9af4fbbf470d5ae252a62dd057843a9891022076e99def7122cb5645c82c832bf4122b8c5afd2288fcb8a6f62dfa8262fd5df901", "03db9b1e4a1c367d0a09ed285a01e82fd3668c74e46f339f91044b484888118b49"], "sequence": 4294967294, "scriptSig": {"hex": "1600145d0628fecac07a62860768096b4acb13fb00d9d7", "asm": "00145d0628fecac07a62860768096b4acb13fb00d9d7"}, "vout": 0, "txid": "41fbe036a275444e61a2ba95aef99e709772683a9777737db2d54464c4bea3e9"}], "txid": "d0d5a5359ea6093f68829c5290f33d02404f65767c332128966dde9927835fa3", "blocktime": 1537872475, "version": 2, "confirmations": 11487, "time": 1537872475, "locktime": 0, "vsize": 530, "size": 935}