{"hash": "25fd2df706a2c268e55ebb38dbdefe729eea63761b802fe65d62c109a7c97cca", "blockhash": "000000000000000000022b45ed06c6f4ccd3cf7fb5ba4856ebd2e58215665228", "vout": [{"scriptPubKey": {"reqSigs": 1, "hex": "76a91407b4d2113b35aa1f93cde14c3e6db9ca5288643b88ac", "addresses": ["1hkLyeSwdwWKxJdGwWCDa6yGFfig7dp9Z"], "asm": "OP_DUP OP_HASH160 07b4d2113b35aa1f93cde14c3e6db9ca5288643b OP_EQUALVERIFY OP_CHECKSIG", "type": "pubkeyhash"}, "value": 0.00634724, "n": 0}], "hex": "01000000000101631a3d4cef404488deeaeca823bc6a3a43fa94c09008b62b58580b3fc47a0b460100000000ffffffff0164af0900000000001976a91407b4d2113b35aa1f93cde14c3e6db9ca5288643b88ac0247304402200305cc96a92d54bfdd0fe25017746cb488d3fe26c82d3cf0bc0d5460197c564e022068ceee63a52ecb7ad4abbd260f806c464d2ab93193cbcb7f02b40ac48a737ebf0121037bd8762fb61895fd44bb1041755c7229ccc87387e3649b415714370190e134fe00000000", "vin": [{"txinwitness": ["304402200305cc96a92d54bfdd0fe25017746cb488d3fe26c82d3cf0bc0d5460197c564e022068ceee63a52ecb7ad4abbd260f806c464d2ab93193cbcb7f02b40ac48a737ebf01", "037bd8762fb61895fd44bb1041755c7229ccc87387e3649b415714370190e134fe"], "sequence": 4294967295, "scriptSig": {"hex": "", "asm": ""}, "vout": 1, "txid": "460b7ac43f0b58582bb60890c094fa433a6abc23a8eceade884440ef4c3d1a63"}], "txid": "d0d64a6c6a848de9123c85717e568c0baf0d3548e7e78a72656709e0f9a06932", "blocktime": 1537869901, "version": 1, "confirmations": 11523, "time": 1537869901, "locktime": 0, "vsize": 113, "size": 194}