{"hash": "d0d8997f0563cc36c68131a5304b6064bbdc2fe07b9d63780eb85e18cf4394e5", "blockhash": "0000000000000000001f0ddff1eddb255c1121bcd4da4f1bc9a0da00cae72433", "vout": [{"scriptPubKey": {"reqSigs": 1, "hex": "76a914400fe8f2cd0d009ba41633dc31ead7e048e1c93e88ac", "addresses": ["16qjJimicMhh7WfAkXZwC4JpGsRR3GLTWw"], "asm": "OP_DUP OP_HASH160 400fe8f2cd0d009ba41633dc31ead7e048e1c93e OP_EQUALVERIFY OP_CHECKSIG", "type": "pubkeyhash"}, "value": 0.02604304, "n": 0}, {"scriptPubKey": {"reqSigs": 1, "hex": "a914191a580b1fc3a798552f7307594a5d00eb2df09d87", "addresses": ["33ykNkHf1XiihajTkFwprxkxTBwpJM7wXy"], "asm": "OP_HASH160 191a580b1fc3a798552f7307594a5d00eb2df09d OP_EQUAL", "type": "scripthash"}, "value": 0.07809205, "n": 1}], "hex": "0100000005a03351054630bca2a5e626949bb9c295730a85273aef91a4eed8b5cc6899fa4d020000006b483045022100bf1f5dc82a5d55107dc8dac7251fe8fec27d590bf37b05a51858a061b56bdeb702206d211f88963394bc09bd05d48b1cbb03683c2c7a8874bd659740687123b64c79012102cf2f0073644c4de6ca228c1eeaa05f1d1d8d1cdcea68f90ac1c87b54b1cb870cffffffff8b3c202d8165eea194958cea2b87f6176f6b6598bc527a059a13629cf7939884010000006a47304402207997e70e69e893ee3cfc8d27ed25debd963d7b9767b09b2ff8de64ae8af4e36c022050792a5d979b04520531c199e70ed9c65826f6dfed21fe12916b3e8db1db4355012103b79993428a589516ffc2d8d513176779328083d8c8523173d87ed0878d99aa97ffffffff9e8792ef2e0be2f610adcf168a6d483c89eabe7152522e06524e3931acb277c8000000006a47304402202b6fce2750263c4893eff03e114e5ec934be811e9942ee19297dab02db18d42e0220210c6e2495948f057eef922cc30443b221a2240c33e03c0c1a27ea12675863a70121035a0d93da6260e3c69a7b924cbe025a0b92e7cd75e5570ebd871b486d5f838156ffffffff10cfc369f3303d37f099d1207f605c92828cc054b5c94805d7c1e826285521cc010000006a473044022006b9c8ecba37652ba908215b3e6732e723129d7e5413281f34ecc1e044a9635902206a1d1a65dce68c0ede838f6972eae5e32eed916ebd5e3165ddb1a028ad65c9830121026cb2167c8f616a09493bb92ba02e1abe8abc5e31899ba352a3d59eadea0d07d9ffffffffbbd5c0660a61dea72c99defe399345e9e5a2cb0cc95398096be64b1e56ec2df0010000006a47304402201e8cc35456cdb99522f928c58c078209a6033ba475ab6662147fbdba2d334de602205d19cb58d5db428131d66f08f817bbe78bd21525358b0ee3e8c555b85935a70d012102cf2f0073644c4de6ca228c1eeaa05f1d1d8d1cdcea68f90ac1c87b54b1cb870cffffffff0210bd2700000000001976a914400fe8f2cd0d009ba41633dc31ead7e048e1c93e88acb52877000000000017a914191a580b1fc3a798552f7307594a5d00eb2df09d8700000000", "vin": [{"sequence": 4294967295, "scriptSig": {"hex": "483045022100bf1f5dc82a5d55107dc8dac7251fe8fec27d590bf37b05a51858a061b56bdeb702206d211f88963394bc09bd05d48b1cbb03683c2c7a8874bd659740687123b64c79012102cf2f0073644c4de6ca228c1eeaa05f1d1d8d1cdcea68f90ac1c87b54b1cb870c", "asm": "3045022100bf1f5dc82a5d55107dc8dac7251fe8fec27d590bf37b05a51858a061b56bdeb702206d211f88963394bc09bd05d48b1cbb03683c2c7a8874bd659740687123b64c79[ALL] 02cf2f0073644c4de6ca228c1eeaa05f1d1d8d1cdcea68f90ac1c87b54b1cb870c"}, "vout": 2, "txid": "4dfa9968ccb5d8eea491ef3a27850a7395c2b99b9426e6a5a2bc3046055133a0"}, {"sequence": 4294967295, "scriptSig": {"hex": "47304402207997e70e69e893ee3cfc8d27ed25debd963d7b9767b09b2ff8de64ae8af4e36c022050792a5d979b04520531c199e70ed9c65826f6dfed21fe12916b3e8db1db4355012103b79993428a589516ffc2d8d513176779328083d8c8523173d87ed0878d99aa97", "asm": "304402207997e70e69e893ee3cfc8d27ed25debd963d7b9767b09b2ff8de64ae8af4e36c022050792a5d979b04520531c199e70ed9c65826f6dfed21fe12916b3e8db1db4355[ALL] 03b79993428a589516ffc2d8d513176779328083d8c8523173d87ed0878d99aa97"}, "vout": 1, "txid": "849893f79c62139a057a52bc98656b6f17f6872bea8c9594a1ee65812d203c8b"}, {"sequence": 4294967295, "scriptSig": {"hex": "47304402202b6fce2750263c4893eff03e114e5ec934be811e9942ee19297dab02db18d42e0220210c6e2495948f057eef922cc30443b221a2240c33e03c0c1a27ea12675863a70121035a0d93da6260e3c69a7b924cbe025a0b92e7cd75e5570ebd871b486d5f838156", "asm": "304402202b6fce2750263c4893eff03e114e5ec934be811e9942ee19297dab02db18d42e0220210c6e2495948f057eef922cc30443b221a2240c33e03c0c1a27ea12675863a7[ALL] 035a0d93da6260e3c69a7b924cbe025a0b92e7cd75e5570ebd871b486d5f838156"}, "vout": 0, "txid": "c877b2ac31394e52062e525271beea893c486d8a16cfad10f6e20b2eef92879e"}, {"sequence": 4294967295, "scriptSig": {"hex": "473044022006b9c8ecba37652ba908215b3e6732e723129d7e5413281f34ecc1e044a9635902206a1d1a65dce68c0ede838f6972eae5e32eed916ebd5e3165ddb1a028ad65c9830121026cb2167c8f616a09493bb92ba02e1abe8abc5e31899ba352a3d59eadea0d07d9", "asm": "3044022006b9c8ecba37652ba908215b3e6732e723129d7e5413281f34ecc1e044a9635902206a1d1a65dce68c0ede838f6972eae5e32eed916ebd5e3165ddb1a028ad65c983[ALL] 026cb2167c8f616a09493bb92ba02e1abe8abc5e31899ba352a3d59eadea0d07d9"}, "vout": 1, "txid": "cc21552826e8c1d70548c9b554c08c82925c607f20d199f0373d30f369c3cf10"}, {"sequence": 4294967295, "scriptSig": {"hex": "47304402201e8cc35456cdb99522f928c58c078209a6033ba475ab6662147fbdba2d334de602205d19cb58d5db428131d66f08f817bbe78bd21525358b0ee3e8c555b85935a70d012102cf2f0073644c4de6ca228c1eeaa05f1d1d8d1cdcea68f90ac1c87b54b1cb870c", "asm": "304402201e8cc35456cdb99522f928c58c078209a6033ba475ab6662147fbdba2d334de602205d19cb58d5db428131d66f08f817bbe78bd21525358b0ee3e8c555b85935a70d[ALL] 02cf2f0073644c4de6ca228c1eeaa05f1d1d8d1cdcea68f90ac1c87b54b1cb870c"}, "vout": 1, "txid": "f02dec561e4be66b099853c90ccba2e5e9459339fede992ca7de610a66c0d5bb"}], "txid": "d0d8997f0563cc36c68131a5304b6064bbdc2fe07b9d63780eb85e18cf4394e5", "blocktime": 1537872018, "version": 1, "confirmations": 11489, "time": 1537872018, "locktime": 0, "vsize": 812, "size": 812}