{"hash": "73bcb2bb03faa916ecb2fa7bf3100131ca79eafd36a993525184d166a1bad325", "blockhash": "0000000000000000001f0ddff1eddb255c1121bcd4da4f1bc9a0da00cae72433", "vout": [{"scriptPubKey": {"reqSigs": 1, "hex": "76a9147a25d00ce2fd7eb6ca5dd10a65cf0052b77ef4b888ac", "addresses": ["1C8rjgBVWkbvWQGGHfsgjQHGLkeow6qZGH"], "asm": "OP_DUP OP_HASH160 7a25d00ce2fd7eb6ca5dd10a65cf0052b77ef4b8 OP_EQUALVERIFY OP_CHECKSIG", "type": "pubkeyhash"}, "value": 0.01693092, "n": 0}, {"scriptPubKey": {"reqSigs": 1, "hex": "a914e25fd902d18741b87bc4cde6692545594b39669f87", "addresses": ["3NKyTWfiCC1UPet68KdvBP4XPQ4bJkSVwD"], "asm": "OP_HASH160 e25fd902d18741b87bc4cde6692545594b39669f OP_EQUAL", "type": "scripthash"}, "value": 0.01313817, "n": 1}], "hex": "02000000000103c01465726cabc91e1038698f69eaa2231d8e5086e2914a8a3dc59e6ef271828f0100000017160014c57e622472d3cb974c5e5a35949645d2a3c7b6d2feffffffe4f42da73ce4ae09b22642518d02b84fb025e3147af5b1c80c3734279d6b9f9a000000001716001485a3a2c9bd516201805aaf1ff4f15b59016e9810feffffffebeb3e4cedc59768736599941e3e142c22564c67025d986706d03c3d133421fc000000001716001418d3ee6d19eacf55845db946490aae4098623fb2feffffff02a4d51900000000001976a9147a25d00ce2fd7eb6ca5dd10a65cf0052b77ef4b888ac190c14000000000017a914e25fd902d18741b87bc4cde6692545594b39669f87024830450221009d7bc246aefee0dc05ef51f82632afb98208780f54720676edd9d2054351a852022026b1333a1d0dd28764242db10c2aedeccd485e8a71712e6ca289b79d400bb905012103695abbe5e0d5109d8df51dea51c3935a5d0efa14bb9d5f3b5c6076e44173bb49024830450221008e4a0e2345d5a184fd8ff2352c93bc140b0a31a4b809584bd963342f98d15f3602201a99560f53305f0fd7b41a348069a24a64e2fe6ec8f178a0710966a9b287c78f012103319b5817ca19e14c2079877b1c0e1332b244d6727009140fb70fbc4eacb7e34602473044022007a32551a0c97eee4cf05b562d192d7e86ef52e1dc5d6c5f225487490e87643b022075b91c287370d990abe875a0e1efb9e25306130be66f69382b631041beeb36ec012102aec11382782b134e4475595f6f9fb312b57ecae049f21f27552649669e747cce0f490800", "vin": [{"txinwitness": ["30450221009d7bc246aefee0dc05ef51f82632afb98208780f54720676edd9d2054351a852022026b1333a1d0dd28764242db10c2aedeccd485e8a71712e6ca289b79d400bb90501", "03695abbe5e0d5109d8df51dea51c3935a5d0efa14bb9d5f3b5c6076e44173bb49"], "sequence": 4294967294, "scriptSig": {"hex": "160014c57e622472d3cb974c5e5a35949645d2a3c7b6d2", "asm": "0014c57e622472d3cb974c5e5a35949645d2a3c7b6d2"}, "vout": 1, "txid": "8f8271f26e9ec53d8a4a91e286508e1d23a2ea698f6938101ec9ab6c726514c0"}, {"txinwitness": ["30450221008e4a0e2345d5a184fd8ff2352c93bc140b0a31a4b809584bd963342f98d15f3602201a99560f53305f0fd7b41a348069a24a64e2fe6ec8f178a0710966a9b287c78f01", "03319b5817ca19e14c2079877b1c0e1332b244d6727009140fb70fbc4eacb7e346"], "sequence": 4294967294, "scriptSig": {"hex": "16001485a3a2c9bd516201805aaf1ff4f15b59016e9810", "asm": "001485a3a2c9bd516201805aaf1ff4f15b59016e9810"}, "vout": 0, "txid": "9a9f6b9d2734370cc8b1f57a14e325b04fb8028d514226b209aee43ca72df4e4"}, {"txinwitness": ["3044022007a32551a0c97eee4cf05b562d192d7e86ef52e1dc5d6c5f225487490e87643b022075b91c287370d990abe875a0e1efb9e25306130be66f69382b631041beeb36ec01", "02aec11382782b134e4475595f6f9fb312b57ecae049f21f27552649669e747cce"], "sequence": 4294967294, "scriptSig": {"hex": "16001418d3ee6d19eacf55845db946490aae4098623fb2", "asm": "001418d3ee6d19eacf55845db946490aae4098623fb2"}, "vout": 0, "txid": "fc2134133d3cd00667985d02674c56222c143e1e949965736897c5ed4c3eebeb"}], "txid": "d0e1d08b2c456ea8db4e3aae4a7f8583318d5298fdb63f6cca771817d6d80941", "blocktime": 1537872018, "version": 2, "confirmations": 11489, "time": 1537872018, "locktime": 542991, "vsize": 350, "size": 593}