{"hash": "d0e62116405ae95d3d77ccff7949cca3eca7bb9405b39538ab0988c42e19f3dc", "blockhash": "000000000000000000022b45ed06c6f4ccd3cf7fb5ba4856ebd2e58215665228", "vout": [{"scriptPubKey": {"reqSigs": 1, "hex": "76a914fa8c1467397b5e723a4c485c8ddd98f8c875c65088ac", "addresses": ["1PqmjsDYAy7rAqogDfcz5vfgQHYfuYBVDv"], "asm": "OP_DUP OP_HASH160 fa8c1467397b5e723a4c485c8ddd98f8c875c650 OP_EQUALVERIFY OP_CHECKSIG", "type": "pubkeyhash"}, "value": 0.00222658, "n": 0}, {"scriptPubKey": {"reqSigs": 1, "hex": "a9147f11834a83e66427eb349c50a5cdcc597e9502a087", "addresses": ["3DGtiikv5PMy2zf6xh5UwhzACFT2BouJGQ"], "asm": "OP_HASH160 7f11834a83e66427eb349c50a5cdcc597e9502a0 OP_EQUAL", "type": "scripthash"}, "value": 0.0139, "n": 1}], "hex": "0100000001b691b99cc57143f74773abc8dd6fe56c551fdb84ed4bffed7c52c5747a56cb6a010000006b483045022100ce601ef4ed0a3093c5ce263ef313fd8a8a878649a085becbaae913b539e54aff02206118db1569adc482bc819e895a341d42b365c36cd66491406effa8dd31ebb3770121039d63bd987e9f28590cadcc341d52f852fd4d6771de98213fc42e9efcd6fa0a74ffffffff02c2650300000000001976a914fa8c1467397b5e723a4c485c8ddd98f8c875c65088acb03515000000000017a9147f11834a83e66427eb349c50a5cdcc597e9502a08700000000", "vin": [{"sequence": 4294967295, "scriptSig": {"hex": "483045022100ce601ef4ed0a3093c5ce263ef313fd8a8a878649a085becbaae913b539e54aff02206118db1569adc482bc819e895a341d42b365c36cd66491406effa8dd31ebb3770121039d63bd987e9f28590cadcc341d52f852fd4d6771de98213fc42e9efcd6fa0a74", "asm": "3045022100ce601ef4ed0a3093c5ce263ef313fd8a8a878649a085becbaae913b539e54aff02206118db1569adc482bc819e895a341d42b365c36cd66491406effa8dd31ebb377[ALL] 039d63bd987e9f28590cadcc341d52f852fd4d6771de98213fc42e9efcd6fa0a74"}, "vout": 1, "txid": "6acb567a74c5527cedff4bed84db1f556ce56fddc8ab7347f74371c59cb991b6"}], "txid": "d0e62116405ae95d3d77ccff7949cca3eca7bb9405b39538ab0988c42e19f3dc", "blocktime": 1537869901, "version": 1, "confirmations": 11522, "time": 1537869901, "locktime": 0, "vsize": 224, "size": 224}