{"hash": "ebaea876a58fa01221c82b6c05729bbf1919116f7c43195487cfc36fff3b353d", "blockhash": "0000000000000000001cda96e906b7601b7a6fb1a3b62bca570a9e5d8f4b3de1", "vout": [{"scriptPubKey": {"reqSigs": 1, "hex": "a9141407d7339a06a8ebed43ca7fab265f16619902cb87", "addresses": ["33WvqA4H9CnTXLh8Yk23yUuv49Vpj685Pv"], "asm": "OP_HASH160 1407d7339a06a8ebed43ca7fab265f16619902cb OP_EQUAL", "type": "scripthash"}, "value": 0.0125, "n": 0}, {"scriptPubKey": {"reqSigs": 1, "hex": "00145f4d40252174807603a78589904a165716b3eab2", "addresses": ["bc1qtax5qffpwjq8vqa8skyeqjsk2utt864j0qlxcn"], "asm": "0 5f4d40252174807603a78589904a165716b3eab2", "type": "witness_v0_keyhash"}, "value": 0.00059927, "n": 1}], "hex": "010000000001016b85365996aa6ff115524b365510dee9c6f060ba7e2996a3e4444cb6d79b9c270000000000ffffffff02d01213000000000017a9141407d7339a06a8ebed43ca7fab265f16619902cb8717ea0000000000001600145f4d40252174807603a78589904a165716b3eab202473044022033865bd5c4b30256327c5d4006a8e7ddcd70e9f97dd4ee73994dde65f1d7ec2d0220713ee1127bd8f6b25f2c1a2526e1748826fa6a5391d5da4de3cee1225f9ffe350121030eab577e17584a224f930cdfb67bd35e12f0200df450e88fe71c4dac48cae8dc00000000", "vin": [{"txinwitness": ["3044022033865bd5c4b30256327c5d4006a8e7ddcd70e9f97dd4ee73994dde65f1d7ec2d0220713ee1127bd8f6b25f2c1a2526e1748826fa6a5391d5da4de3cee1225f9ffe3501", "030eab577e17584a224f930cdfb67bd35e12f0200df450e88fe71c4dac48cae8dc"], "sequence": 4294967295, "scriptSig": {"hex": "", "asm": ""}, "vout": 0, "txid": "279c9bd7b64c44e4a396297eba60f0c6e9de1055364b5215f16faa965936856b"}], "txid": "d0e7833573edb34535c90961474658390ed3ff22430bb0ed109c293f53caf1a5", "blocktime": 1537873282, "version": 1, "confirmations": 11484, "time": 1537873282, "locktime": 0, "vsize": 142, "size": 223}