{"hash": "d0ed7e71458e7643edd86133f2e7a49baa09a4ea312de88cd3e49330d5383588", "blockhash": "00000000000000000018f53835495a110e01622372bf6ae95dc86f2b0ab887b0", "vout": [{"scriptPubKey": {"reqSigs": 1, "hex": "76a9146f9d4bf8610881776190b764085241583d4de8f588ac", "addresses": ["1BBASTtThMur2vnGAVe7nrMivRbdR9HAPB"], "asm": "OP_DUP OP_HASH160 6f9d4bf8610881776190b764085241583d4de8f5 OP_EQUALVERIFY OP_CHECKSIG", "type": "pubkeyhash"}, "value": 0.004753, "n": 0}, {"scriptPubKey": {"reqSigs": 1, "hex": "76a914b9d3c595a4849fd5064166257b165b29605f7ccf88ac", "addresses": ["1HwZheqDV2R4E4g6HmHmgsfQn4NoSPwzvV"], "asm": "OP_DUP OP_HASH160 b9d3c595a4849fd5064166257b165b29605f7ccf OP_EQUALVERIFY OP_CHECKSIG", "type": "pubkeyhash"}, "value": 0.68277921, "n": 1}], "hex": "01000000016c16f2fd61d6ed254dad3ab8f679f9de57e4a0fb9006d3ed7d9d4e56b60fb46d010000006a4730440220543e375090cb0ec40967ca57912b284a10de943136b6f2895be30e4cbf0c8b3f02206daaa2bce05505fd944ff86ecb47ef9f57f91fa3cde7fa76b260040c22e6f39a012103bad54772cfb9674bff20d16afd9d21cc1f2e9056efbb309ce1c3f9d34fa743daffffffff02a4400700000000001976a9146f9d4bf8610881776190b764085241583d4de8f588aca1d61104000000001976a914b9d3c595a4849fd5064166257b165b29605f7ccf88ac00000000", "vin": [{"sequence": 4294967295, "scriptSig": {"hex": "4730440220543e375090cb0ec40967ca57912b284a10de943136b6f2895be30e4cbf0c8b3f02206daaa2bce05505fd944ff86ecb47ef9f57f91fa3cde7fa76b260040c22e6f39a012103bad54772cfb9674bff20d16afd9d21cc1f2e9056efbb309ce1c3f9d34fa743da", "asm": "30440220543e375090cb0ec40967ca57912b284a10de943136b6f2895be30e4cbf0c8b3f02206daaa2bce05505fd944ff86ecb47ef9f57f91fa3cde7fa76b260040c22e6f39a[ALL] 03bad54772cfb9674bff20d16afd9d21cc1f2e9056efbb309ce1c3f9d34fa743da"}, "vout": 1, "txid": "6db40fb6564e9d7dedd30690fba0e457def979f6b83aad4d25edd661fdf2166c"}], "txid": "d0ed7e71458e7643edd86133f2e7a49baa09a4ea312de88cd3e49330d5383588", "blocktime": 1537870928, "version": 1, "confirmations": 11514, "time": 1537870928, "locktime": 0, "vsize": 225, "size": 225}