{"hash": "d0f0939aa7957e9db280d7fd3be0cbb94edc695099df969b77b17a38610f79c9", "blockhash": "0000000000000000001e0dab787dd257d1dbfcb92a98c2207d5e1078be1f4165", "vout": [{"scriptPubKey": {"reqSigs": 1, "hex": "76a9147da2dda1e06ccfdacfdac3e5e1992566cc05dcdd88ac", "addresses": ["1CTJa6CNVTEV3561gSqWL5WDzWAYybe8bm"], "asm": "OP_DUP OP_HASH160 7da2dda1e06ccfdacfdac3e5e1992566cc05dcdd OP_EQUALVERIFY OP_CHECKSIG", "type": "pubkeyhash"}, "value": 0.001533, "n": 0}], "hex": "01000000011b02219fdae9f2110992311c79a1d52e6153777266236df0b9e2587b8c132afa000000006b483045022100cb7b31a734988e1aff9b32142250b8a3b67cb44bcd68e6f55456eb759e7f711102205ce519112a7b5d266182ac04081aed5d76800f03846e2b7b93c1cafc62423f450121025fcdedf668159ffdf50cfb0a097d7e76a6cbf875edd8c9ad80820c6935f625feffffffff01d4560200000000001976a9147da2dda1e06ccfdacfdac3e5e1992566cc05dcdd88ac00000000", "vin": [{"sequence": 4294967295, "scriptSig": {"hex": "483045022100cb7b31a734988e1aff9b32142250b8a3b67cb44bcd68e6f55456eb759e7f711102205ce519112a7b5d266182ac04081aed5d76800f03846e2b7b93c1cafc62423f450121025fcdedf668159ffdf50cfb0a097d7e76a6cbf875edd8c9ad80820c6935f625fe", "asm": "3045022100cb7b31a734988e1aff9b32142250b8a3b67cb44bcd68e6f55456eb759e7f711102205ce519112a7b5d266182ac04081aed5d76800f03846e2b7b93c1cafc62423f45[ALL] 025fcdedf668159ffdf50cfb0a097d7e76a6cbf875edd8c9ad80820c6935f625fe"}, "vout": 0, "txid": "fa2a138c7b58e2b9f06d2366727753612ed5a1791c31920911f2e9da9f21021b"}], "txid": "d0f0939aa7957e9db280d7fd3be0cbb94edc695099df969b77b17a38610f79c9", "blocktime": 1537872475, "version": 1, "confirmations": 11487, "time": 1537872475, "locktime": 0, "vsize": 192, "size": 192}