{"hash": "87da8adf88351871026396eaf07e90e4c1c9b2d9d113a8a9830959d6d14956f2", "blockhash": "00000000000000000018f53835495a110e01622372bf6ae95dc86f2b0ab887b0", "vout": [{"scriptPubKey": {"reqSigs": 1, "hex": "a91425e60c07ddd0f3b8199bf191424a4bf6ea02b9b287", "addresses": ["359QWazd9tKTT82q8X9nnDnKjeP2Fvvdbm"], "asm": "OP_HASH160 25e60c07ddd0f3b8199bf191424a4bf6ea02b9b2 OP_EQUAL", "type": "scripthash"}, "value": 0.0452766, "n": 0}, {"scriptPubKey": {"reqSigs": 1, "hex": "a914db7da4bf02ae3cd7101bfe2dcdf8323eb53dec9e87", "addresses": ["3MhaRRMo4VDDZLVJud436ALLzTAyASeWDs"], "asm": "OP_HASH160 db7da4bf02ae3cd7101bfe2dcdf8323eb53dec9e OP_EQUAL", "type": "scripthash"}, "value": 0.00999365, "n": 1}], "hex": "0200000000010360197ce4ee518aebe39e01f15106c9f923fd3e8dd1dd484800bea468713432bc00000000171600147b8a45f34c8abc32da4fa376a072b59c74db0bdbfefffffff7c8124d3026a24393e5d4e6c820c611c2f30837314e45d4604d3668ce69304d00000000171600147137efb6cbad5c053d780938a2682e679f869ca0fefffffff837d07d095b214755a42bfb55f430091715839dfe772a7f8958f5324371d93704000000171600144cff95a6571755cb1278921178fbc05a095e300efeffffff022c1645000000000017a91425e60c07ddd0f3b8199bf191424a4bf6ea02b9b287c53f0f000000000017a914db7da4bf02ae3cd7101bfe2dcdf8323eb53dec9e8702483045022100a89a769948e1959229db3a22a516675164225d250c39ac31b55d21bd14dcf94b022002da3d2011d717ee182846669a2f75866a9f7d395a2143659014f30a5aff6b0f0121024ea9b59872d50131e3f3e4e7b13cb477dba5ef8a8644070c64141f6acb1449f802483045022100c52e9b7bd01f84fff659befacbdb4b32f8af2a6697c3ea68de83a9bbcc3bb21702201b125ff822648684b9d2d7ba7ee560d7821b7cf495e9aeaaa792539d8f71beb8012102de728779b3a4da820eb0ae9b96fc31dbe1a5eab2a0f1ceca2f2fd903e68e6b2602473044022032dec6b0c854bf64d7151e0eda83a04340b002753b3a028718b66daba71f85d9022054a5b5e5d2239d24300ee7eae199519800d3280567760e8a6717c831f9595caa012103a29b8a5f08f6bffd875d3457abac44ae5d0e1c9f951cedf1cdc1cc6819d3c2d50d490800", "vin": [{"txinwitness": ["3045022100a89a769948e1959229db3a22a516675164225d250c39ac31b55d21bd14dcf94b022002da3d2011d717ee182846669a2f75866a9f7d395a2143659014f30a5aff6b0f01", "024ea9b59872d50131e3f3e4e7b13cb477dba5ef8a8644070c64141f6acb1449f8"], "sequence": 4294967294, "scriptSig": {"hex": "1600147b8a45f34c8abc32da4fa376a072b59c74db0bdb", "asm": "00147b8a45f34c8abc32da4fa376a072b59c74db0bdb"}, "vout": 0, "txid": "bc32347168a4be004848ddd18d3efd23f9c90651f1019ee3eb8a51eee47c1960"}, {"txinwitness": ["3045022100c52e9b7bd01f84fff659befacbdb4b32f8af2a6697c3ea68de83a9bbcc3bb21702201b125ff822648684b9d2d7ba7ee560d7821b7cf495e9aeaaa792539d8f71beb801", "02de728779b3a4da820eb0ae9b96fc31dbe1a5eab2a0f1ceca2f2fd903e68e6b26"], "sequence": 4294967294, "scriptSig": {"hex": "1600147137efb6cbad5c053d780938a2682e679f869ca0", "asm": "00147137efb6cbad5c053d780938a2682e679f869ca0"}, "vout": 0, "txid": "4d3069ce68364d60d4454e313708f3c211c620c8e6d4e59343a226304d12c8f7"}, {"txinwitness": ["3044022032dec6b0c854bf64d7151e0eda83a04340b002753b3a028718b66daba71f85d9022054a5b5e5d2239d24300ee7eae199519800d3280567760e8a6717c831f9595caa01", "03a29b8a5f08f6bffd875d3457abac44ae5d0e1c9f951cedf1cdc1cc6819d3c2d5"], "sequence": 4294967294, "scriptSig": {"hex": "1600144cff95a6571755cb1278921178fbc05a095e300e", "asm": "00144cff95a6571755cb1278921178fbc05a095e300e"}, "vout": 4, "txid": "37d9714332f558897f2a77fe9d8315170930f455fb2ba45547215b097dd037f8"}], "txid": "d0f4320242184cf23606a0f39dd2a16447a9979133d5f396b6e70404df2e0c35", "blocktime": 1537870928, "version": 2, "confirmations": 11514, "time": 1537870928, "locktime": 542989, "vsize": 348, "size": 591}