{"hash": "b5ff1d7a0b62c036ae42923fc4f28c9cc73c90ce4c6a3545d73edccd46750dc4", "blockhash": "0000000000000000001f0ddff1eddb255c1121bcd4da4f1bc9a0da00cae72433", "vout": [{"scriptPubKey": {"reqSigs": 1, "hex": "76a9144034beddf228f47632953251e7d69f0d6e7ec56888ac", "addresses": ["16rVS72UP7C7RVsKUtKbfZHGFoK157auXF"], "asm": "OP_DUP OP_HASH160 4034beddf228f47632953251e7d69f0d6e7ec568 OP_EQUALVERIFY OP_CHECKSIG", "type": "pubkeyhash"}, "value": 0.03531365, "n": 0}], "hex": "01000000000101ecd7991c59f06f0c0e1db3c2f16c20a5a2ecbdce19bd784dbecc7b6c49f0ef09000000001716001456f83f84dc8bc9ab40dfdb652d6870f0fb9e6cdaffffffff0165e23500000000001976a9144034beddf228f47632953251e7d69f0d6e7ec56888ac02483045022100d8906fd26b2db921f5c037882c10f4fe0b289579d14738c60b73d9fdd67502690220365aa27e3b20b47a4337c2de4d67266c7d7a057c1dbb64b032fce437b2da3edc0121027567b7159333b6128ee4a597dda342855a4477e23f46de1c8277cf08e2feff5e00000000", "vin": [{"txinwitness": ["3045022100d8906fd26b2db921f5c037882c10f4fe0b289579d14738c60b73d9fdd67502690220365aa27e3b20b47a4337c2de4d67266c7d7a057c1dbb64b032fce437b2da3edc01", "027567b7159333b6128ee4a597dda342855a4477e23f46de1c8277cf08e2feff5e"], "sequence": 4294967295, "scriptSig": {"hex": "16001456f83f84dc8bc9ab40dfdb652d6870f0fb9e6cda", "asm": "001456f83f84dc8bc9ab40dfdb652d6870f0fb9e6cda"}, "vout": 0, "txid": "09eff0496c7bccbe4d78bd19cebdeca2a5206cf1c2b31d0e0c6ff0591c99d7ec"}], "txid": "d0f66f39821a6278cf63d69d59897b5251bfbf9e850a0e2592a56de189751302", "blocktime": 1537872018, "version": 1, "confirmations": 11489, "time": 1537872018, "locktime": 0, "vsize": 136, "size": 218}