{"hash": "f07fd31b88a3a3fd35c05f7f050c77e7532144ab58e7868a2d0507d0d0652b3a", "blockhash": "0000000000000000000e13cef7c366c0283d82e591d1acd082e914b08063cdf1", "vout": [{"scriptPubKey": {"reqSigs": 1, "hex": "76a9149e2119ac38733e151ec597476dc30e4dbc4def5888ac", "addresses": ["1FR7RA83aA4pid4s2JZBL1yVEta76MXbFU"], "asm": "OP_DUP OP_HASH160 9e2119ac38733e151ec597476dc30e4dbc4def58 OP_EQUALVERIFY OP_CHECKSIG", "type": "pubkeyhash"}, "value": 0.06839359, "n": 0}, {"scriptPubKey": {"reqSigs": 1, "hex": "00146ad775fb0be4e6dcadd0e576e5bd5b554af079cc", "addresses": ["bc1qdttht7ctunndetwsu4mwt02m2490q7wv4zfygt"], "asm": "0 6ad775fb0be4e6dcadd0e576e5bd5b554af079cc", "type": "witness_v0_keyhash"}, "value": 0.10137029, "n": 1}], "hex": "0100000000010147755a6a347e4f4771c8f5331bcd5985b41c9e1737a7639640bc903d24370da80100000000ffffffff023f5c6800000000001976a9149e2119ac38733e151ec597476dc30e4dbc4def5888acc5ad9a00000000001600146ad775fb0be4e6dcadd0e576e5bd5b554af079cc02483045022100a608e535b46c942c1e6f8420d8b7de2de716a231f5fc3e7adb923a122aec87000220582a67fc7b69ce862a3b6e31bdcecb689a205655e88cb9842695ce0f48f8d31701210377cafaf2d130bf3fc192ed15a57b248827a2886865df23f45a66dc69c32fa71800000000", "vin": [{"txinwitness": ["3045022100a608e535b46c942c1e6f8420d8b7de2de716a231f5fc3e7adb923a122aec87000220582a67fc7b69ce862a3b6e31bdcecb689a205655e88cb9842695ce0f48f8d31701", "0377cafaf2d130bf3fc192ed15a57b248827a2886865df23f45a66dc69c32fa718"], "sequence": 4294967295, "scriptSig": {"hex": "", "asm": ""}, "vout": 1, "txid": "a80d37243d90bc409663a737179e1cb48559cd1b33f5c871474f7e346a5a7547"}], "txid": "d0f7058f55ef85a5b7173833e0161ec6122d1226d04be8d94e492be7557dce7e", "blocktime": 1537871767, "version": 1, "confirmations": 11495, "time": 1537871767, "locktime": 0, "vsize": 144, "size": 226}