{"hash": "835dabfb61af2d4bb76fb58c32fbf801fbb60cc7a48c811e10a9857393564fc9", "blockhash": "0000000000000000000baef3f32e3676a92c3b2e5da21b426e4f302fc371ce76", "vout": [{"scriptPubKey": {"reqSigs": 1, "hex": "a91469f373e369be130edf45b7c5f69a3bc03e71e3b287", "addresses": ["3BMEX5KbynH3Fyd2Xaqo4N9v5HJz4mmWNx"], "asm": "OP_HASH160 69f373e369be130edf45b7c5f69a3bc03e71e3b2 OP_EQUAL", "type": "scripthash"}, "value": 0.05631292, "n": 0}, {"scriptPubKey": {"reqSigs": 1, "hex": "a9143dfa58f433fea7f24a9ac35320dbd4421251ebf387", "addresses": ["37Lj3h9X3ic3QhQdXvswbDR2CkjQXVCtUR"], "asm": "OP_HASH160 3dfa58f433fea7f24a9ac35320dbd4421251ebf3 OP_EQUAL", "type": "scripthash"}, "value": 1.65355174, "n": 1}], "hex": "02000000000101bf09d7fb2945278a641bb21601abc4a659c9425a52308b04475209b7a7988a350100000017160014a529747445824bedb2a4b56d009945b7c8494f30ffffffff023ced55000000000017a91469f373e369be130edf45b7c5f69a3bc03e71e3b287a61edb090000000017a9143dfa58f433fea7f24a9ac35320dbd4421251ebf38702473044022027b365a723740a534cbe67c489d57c54f6d0b34277b3d765e9a26be436ef8f7702204307aa04acb9e735cae658dbbc0e1ca2f33abc6fc2e39a1fcaa77cd1232203e8012103bef004de7c63d3022d0275615353ae9c1bd1d022a6e16738ed33ad1f4ebd0e5500000000", "vin": [{"txinwitness": ["3044022027b365a723740a534cbe67c489d57c54f6d0b34277b3d765e9a26be436ef8f7702204307aa04acb9e735cae658dbbc0e1ca2f33abc6fc2e39a1fcaa77cd1232203e801", "03bef004de7c63d3022d0275615353ae9c1bd1d022a6e16738ed33ad1f4ebd0e55"], "sequence": 4294967295, "scriptSig": {"hex": "160014a529747445824bedb2a4b56d009945b7c8494f30", "asm": "0014a529747445824bedb2a4b56d009945b7c8494f30"}, "vout": 1, "txid": "358a98a7b7095247048b30525a42c959a6c4ab0116b21b648a274529fbd709bf"}], "txid": "d10537d906ec6e599220707e51d9b16600d97efbd2b9ce3005878d98dcb3a83b", "blocktime": 1537876114, "version": 2, "confirmations": 11460, "time": 1537876114, "locktime": 0, "vsize": 166, "size": 247}