{"hash": "2c8625179b26244db47b1b987ea0bdec674293f2de38eff12157953de973fb14", "blockhash": "0000000000000000001f0ddff1eddb255c1121bcd4da4f1bc9a0da00cae72433", "vout": [{"scriptPubKey": {"reqSigs": 1, "hex": "76a914d8a3598d97c50d221909ddf90d02d7864632884088ac", "addresses": ["1LkUeBRE6Z6R7Y2j4C8iVmFGgppsGuWj88"], "asm": "OP_DUP OP_HASH160 d8a3598d97c50d221909ddf90d02d78646328840 OP_EQUALVERIFY OP_CHECKSIG", "type": "pubkeyhash"}, "value": 0.00027778, "n": 0}], "hex": "02000000000101b6fd80081cef3c1e6bf67b681459f6188bd99252122671c7af4ed9504a56b32d000000001716001409d0213ebbca2ac95c6c1d20109d0ab0d9d84e12ffffffff01826c0000000000001976a914d8a3598d97c50d221909ddf90d02d7864632884088ac02483045022100a9c275b460337a6c50148c26dfb932229a0df1499231364a28135fb1b524111a022018a16bb2221e70ade63db04018c7ad9c73564e49a52de18daccfb4338604992101210222895baafbe734b723ac075015b763682bb0fe3e629ad3b42e02a51529e4de4200000000", "vin": [{"txinwitness": ["3045022100a9c275b460337a6c50148c26dfb932229a0df1499231364a28135fb1b524111a022018a16bb2221e70ade63db04018c7ad9c73564e49a52de18daccfb4338604992101", "0222895baafbe734b723ac075015b763682bb0fe3e629ad3b42e02a51529e4de42"], "sequence": 4294967295, "scriptSig": {"hex": "16001409d0213ebbca2ac95c6c1d20109d0ab0d9d84e12", "asm": "001409d0213ebbca2ac95c6c1d20109d0ab0d9d84e12"}, "vout": 0, "txid": "2db3564a50d94eafc77126125292d98b18f65914687bf66b1e3cef1c0880fdb6"}], "txid": "d10548cbe148c9dab207c3f4cc80605b237f23bfae3858f5d477a77801cff49c", "blocktime": 1537872018, "version": 2, "confirmations": 11489, "time": 1537872018, "locktime": 0, "vsize": 136, "size": 218}