{"hash": "d106969c642c50c708c1a10a0c726b3b40540f7b3fd3e2811ac284d4a19ea856", "blockhash": "0000000000000000001f0ddff1eddb255c1121bcd4da4f1bc9a0da00cae72433", "vout": [{"scriptPubKey": {"reqSigs": 1, "hex": "76a914a4950ed15935e5d32cc176d0ccf76c9ba3253e6a88ac", "addresses": ["1G1EPBdvQqASsCczXZnamUxuz92u3bjjKj"], "asm": "OP_DUP OP_HASH160 a4950ed15935e5d32cc176d0ccf76c9ba3253e6a OP_EQUALVERIFY OP_CHECKSIG", "type": "pubkeyhash"}, "value": 0.40444943, "n": 0}, {"scriptPubKey": {"type": "nulldata", "hex": "6a146f6d6e69000000000000001f00000002540be400", "asm": "OP_RETURN 6f6d6e69000000000000001f00000002540be400"}, "value": 0.0, "n": 1}, {"scriptPubKey": {"reqSigs": 1, "hex": "a914fe18b37462bccbd5737570278f33c524d6730aec87", "addresses": ["3QrZ9XLaLsvFrDJdP42hUcaQqxU5HGTRUC"], "asm": "OP_HASH160 fe18b37462bccbd5737570278f33c524d6730aec OP_EQUAL", "type": "scripthash"}, "value": 5.4e-06, "n": 2}], "hex": "010000000197d7d18cce5ae74249a568646884cb794f1e4b639b733f19b52e1db94f2115b5000000006b483045022100874494e3633b7d6dde37c453d3b15c324964effc582a0c55166a1d2294813e6602204de89212dfca8515b600e3e8f569643c76b6c314b7814f9c91defd22e298f16101210307698abae2b47d5eba1fc0cb0c49a8f1fb7e7c895b977ac436fed836856aafa1feffffff030f246902000000001976a914a4950ed15935e5d32cc176d0ccf76c9ba3253e6a88ac0000000000000000166a146f6d6e69000000000000001f00000002540be4001c0200000000000017a914fe18b37462bccbd5737570278f33c524d6730aec87e0480800", "vin": [{"sequence": 4294967294, "scriptSig": {"hex": "483045022100874494e3633b7d6dde37c453d3b15c324964effc582a0c55166a1d2294813e6602204de89212dfca8515b600e3e8f569643c76b6c314b7814f9c91defd22e298f16101210307698abae2b47d5eba1fc0cb0c49a8f1fb7e7c895b977ac436fed836856aafa1", "asm": "3045022100874494e3633b7d6dde37c453d3b15c324964effc582a0c55166a1d2294813e6602204de89212dfca8515b600e3e8f569643c76b6c314b7814f9c91defd22e298f161[ALL] 0307698abae2b47d5eba1fc0cb0c49a8f1fb7e7c895b977ac436fed836856aafa1"}, "vout": 0, "txid": "b515214fb91d2eb5193f739b634b1e4f79cb84686468a54942e75ace8cd1d797"}], "txid": "d106969c642c50c708c1a10a0c726b3b40540f7b3fd3e2811ac284d4a19ea856", "blocktime": 1537872018, "version": 1, "confirmations": 11489, "time": 1537872018, "locktime": 542944, "vsize": 255, "size": 255}