{"hash": "dbd751b2496a0daf573ef72b26e0fe4fb3e13cf9edcfd097c41dac87319de89d", "blockhash": "0000000000000000001e0dab787dd257d1dbfcb92a98c2207d5e1078be1f4165", "vout": [{"scriptPubKey": {"reqSigs": 1, "hex": "a914d3d19d0e6395aeba6e0fdfa75e37059222e2ce3487", "addresses": ["3M11cDnpzhyxZQwPKZMfGJuRBgVLhxfcrc"], "asm": "OP_HASH160 d3d19d0e6395aeba6e0fdfa75e37059222e2ce34 OP_EQUAL", "type": "scripthash"}, "value": 1.797e-05, "n": 0}, {"scriptPubKey": {"reqSigs": 1, "hex": "a914fc728ea480dab48de1e3896b2010998cde2e172187", "addresses": ["3QhqSTZ9yTeKbq7E3yUBRDfGXBK2WL5aS4"], "asm": "OP_HASH160 fc728ea480dab48de1e3896b2010998cde2e1721 OP_EQUAL", "type": "scripthash"}, "value": 0.00070378, "n": 1}], "hex": "02000000000101b6848470256d8bae3bac7ab38743a1bfa74be436a5c86f74e0907eaeb04aaac4010000001716001484a287d48d0527aae288ae69c9cfb5bd0c81f967feffffff02050700000000000017a914d3d19d0e6395aeba6e0fdfa75e37059222e2ce3487ea1201000000000017a914fc728ea480dab48de1e3896b2010998cde2e17218702473044022012738ee162a1ebb758fcee100c80d7b1fd350d9732c7c9ff10d39791988b1cca02203d1754caadd1fa8f540a83ca63cd24e947587466c7cac2b0cb9433fa3929f0340121037719b3580dfbc31ba7de8f09414534627eca9bdfe128c359c214efa956cd0ab712490800", "vin": [{"txinwitness": ["3044022012738ee162a1ebb758fcee100c80d7b1fd350d9732c7c9ff10d39791988b1cca02203d1754caadd1fa8f540a83ca63cd24e947587466c7cac2b0cb9433fa3929f03401", "037719b3580dfbc31ba7de8f09414534627eca9bdfe128c359c214efa956cd0ab7"], "sequence": 4294967294, "scriptSig": {"hex": "16001484a287d48d0527aae288ae69c9cfb5bd0c81f967", "asm": "001484a287d48d0527aae288ae69c9cfb5bd0c81f967"}, "vout": 1, "txid": "c4aa4ab0ae7e90e0746fc8a536e44ba7bfa14387b37aac3bae8b6d25708484b6"}], "txid": "d109f9f062283fca96890641f61b87c7d830e42fde46df0ec5233aa9ae04a26d", "blocktime": 1537872475, "version": 2, "confirmations": 11487, "time": 1537872475, "locktime": 542994, "vsize": 166, "size": 247}