{"hash": "d10a8c8cead60db39c295078285d225743751f95bf408a8d717eef6cb64cf201", "blockhash": "0000000000000000000baef3f32e3676a92c3b2e5da21b426e4f302fc371ce76", "vout": [{"scriptPubKey": {"reqSigs": 1, "hex": "a9148c8842803a8a91949fb4f2a5e91f15226a51fd8587", "addresses": ["3EW5ktrBXRR5sFcbXSDtWJFYMnbsmF25hX"], "asm": "OP_HASH160 8c8842803a8a91949fb4f2a5e91f15226a51fd85 OP_EQUAL", "type": "scripthash"}, "value": 0.03060442, "n": 0}, {"scriptPubKey": {"reqSigs": 1, "hex": "76a914d79e3a0c035677196f294e13b041abca22794a6d88ac", "addresses": ["1Lf5q2mr7MbcxcfmpuD31gDEdXZ6DR9p8K"], "asm": "OP_DUP OP_HASH160 d79e3a0c035677196f294e13b041abca22794a6d OP_EQUALVERIFY OP_CHECKSIG", "type": "pubkeyhash"}, "value": 70.26948237, "n": 1}], "hex": "0200000001a3f4eda0a02395dcab834a9b81f795713676e4b5b6b00133886a5c9da5ee607a010000006b483045022100c273e1f0a7576eefb712d1b8df5827a6f900d6e21251a7d1eca78f694b1d79c302200e76fac5719cb1b8fc16933a48313dd4de1b69f234047f14247d6f7f63bf4a6a012102987c1ae636119c22bc699ebb934224b973243f724d9a3c5f6d8e04a6d63dec08feffffff02dab22e000000000017a9148c8842803a8a91949fb4f2a5e91f15226a51fd85878db8d6a2010000001976a914d79e3a0c035677196f294e13b041abca22794a6d88ac0a490800", "vin": [{"sequence": 4294967294, "scriptSig": {"hex": "483045022100c273e1f0a7576eefb712d1b8df5827a6f900d6e21251a7d1eca78f694b1d79c302200e76fac5719cb1b8fc16933a48313dd4de1b69f234047f14247d6f7f63bf4a6a012102987c1ae636119c22bc699ebb934224b973243f724d9a3c5f6d8e04a6d63dec08", "asm": "3045022100c273e1f0a7576eefb712d1b8df5827a6f900d6e21251a7d1eca78f694b1d79c302200e76fac5719cb1b8fc16933a48313dd4de1b69f234047f14247d6f7f63bf4a6a[ALL] 02987c1ae636119c22bc699ebb934224b973243f724d9a3c5f6d8e04a6d63dec08"}, "vout": 1, "txid": "7a60eea59d5c6a883301b0b6b5e476367195f7819b4a83abdc9523a0a0edf4a3"}], "txid": "d10a8c8cead60db39c295078285d225743751f95bf408a8d717eef6cb64cf201", "blocktime": 1537876114, "version": 2, "confirmations": 11459, "time": 1537876114, "locktime": 542986, "vsize": 224, "size": 224}