{"hash": "391f1febad70604dedc64b3c7ad9455dd6902bb1549a63f423d053a2aa0256e1", "blockhash": "00000000000000000024a2167bbff67b0be802c0b01cdd79e6331c2be6459f87", "vout": [{"scriptPubKey": {"reqSigs": 1, "hex": "76a91486fb57bbbf5684406406b94808b33bd3f1e44f3588ac", "addresses": ["1DJieJZhWwjq58Aq75JuLMTCbB5NR1bSh7"], "asm": "OP_DUP OP_HASH160 86fb57bbbf5684406406b94808b33bd3f1e44f35 OP_EQUALVERIFY OP_CHECKSIG", "type": "pubkeyhash"}, "value": 0.00322478, "n": 0}, {"scriptPubKey": {"reqSigs": 1, "hex": "a91468e9012c45a6cfd566ba8a57672a6cf6fcd8f4c687", "addresses": ["3BFjKwFu8xYjZ5ueXQ47YK6TYKzTfD7r9g"], "asm": "OP_HASH160 68e9012c45a6cfd566ba8a57672a6cf6fcd8f4c6 OP_EQUAL", "type": "scripthash"}, "value": 1.99676438, "n": 1}], "hex": "02000000000101f1aecf23d29583b059cfa83e42fb246848fc339fd22fd58c7f6f492e084ea50a02000000171600140182efb88587eb2ecfa67719c3474352c471acc0ffffffff02aeeb0400000000001976a91486fb57bbbf5684406406b94808b33bd3f1e44f3588ac16d2e60b0000000017a91468e9012c45a6cfd566ba8a57672a6cf6fcd8f4c687024730440220213d4f34c1fca1c689913f41a4df84dd738a3e2bb359c6cd7220c6636624207a0220736fbd82bad09a9c5ad3a5b20353ebfef606bb653e8ea5d14188e89d67905209012102b5d859782a3fde1c88f381eaade0504010792d7bcffc2349fcda66081aa7d56600000000", "vin": [{"txinwitness": ["30440220213d4f34c1fca1c689913f41a4df84dd738a3e2bb359c6cd7220c6636624207a0220736fbd82bad09a9c5ad3a5b20353ebfef606bb653e8ea5d14188e89d6790520901", "02b5d859782a3fde1c88f381eaade0504010792d7bcffc2349fcda66081aa7d566"], "sequence": 4294967295, "scriptSig": {"hex": "1600140182efb88587eb2ecfa67719c3474352c471acc0", "asm": "00140182efb88587eb2ecfa67719c3474352c471acc0"}, "vout": 2, "txid": "0aa54e082e496f7f8cd52fd29f33fc486824fb423ea8cf59b08395d223cfaef1"}], "txid": "d10d20e3b464dd5d7a2f63c20bb27e98770cf6a43cb709a3bf9e69f96071fd4d", "blocktime": 1537870564, "version": 2, "confirmations": 11515, "time": 1537870564, "locktime": 0, "vsize": 168, "size": 249}