{"hash": "d112e4a7f634ed5ec93c5d08cb5472ba2d65ab089f3c2cdad00dce2a16a3f231", "blockhash": "00000000000000000017f5eb5941039fbcee6240d03bc1f2f8e35350df66a1d8", "vout": [{"scriptPubKey": {"reqSigs": 1, "hex": "76a914032cdf8d9ab3f61c4fade05fc87c2fd537429d4e88ac", "addresses": ["1HnnRauGDuh1QrP9hwQcqt8uigg8SDfjg"], "asm": "OP_DUP OP_HASH160 032cdf8d9ab3f61c4fade05fc87c2fd537429d4e OP_EQUALVERIFY OP_CHECKSIG", "type": "pubkeyhash"}, "value": 0.986, "n": 0}, {"scriptPubKey": {"reqSigs": 1, "hex": "76a914ec829a4accd2644c661aa00847ac819217067db288ac", "addresses": ["1NZYvi17GTXsbcK1n8NhujTGWAuQcfvEpv"], "asm": "OP_DUP OP_HASH160 ec829a4accd2644c661aa00847ac819217067db2 OP_EQUALVERIFY OP_CHECKSIG", "type": "pubkeyhash"}, "value": 4.84396, "n": 1}], "hex": "010000000192f5219c7bfd03c8e822efa5f0bcd676ca1508ea8f8f781046a5af996e60089e000000006a47304402206f9023a6f9f71559967585c4ed7cd925edcb4a9d83b2239118851d545d651dc102205e516bd21555267aeaadef395341b312cc4363afae2bed062000d16a228f8dc7012103d8155200290b5c12f39d053adcf7c03c576a232826e4e3fa1c7a284d19053c57ffffffff024084e005000000001976a914032cdf8d9ab3f61c4fade05fc87c2fd537429d4e88ace04bdf1c000000001976a914ec829a4accd2644c661aa00847ac819217067db288ac00000000", "vin": [{"sequence": 4294967295, "scriptSig": {"hex": "47304402206f9023a6f9f71559967585c4ed7cd925edcb4a9d83b2239118851d545d651dc102205e516bd21555267aeaadef395341b312cc4363afae2bed062000d16a228f8dc7012103d8155200290b5c12f39d053adcf7c03c576a232826e4e3fa1c7a284d19053c57", "asm": "304402206f9023a6f9f71559967585c4ed7cd925edcb4a9d83b2239118851d545d651dc102205e516bd21555267aeaadef395341b312cc4363afae2bed062000d16a228f8dc7[ALL] 03d8155200290b5c12f39d053adcf7c03c576a232826e4e3fa1c7a284d19053c57"}, "vout": 0, "txid": "9e08606e99afa54610788f8fea0815ca76d6bcf0a5ef22e8c803fd7b9c21f592"}], "txid": "d112e4a7f634ed5ec93c5d08cb5472ba2d65ab089f3c2cdad00dce2a16a3f231", "blocktime": 1537874412, "version": 1, "confirmations": 11466, "time": 1537874412, "locktime": 0, "vsize": 225, "size": 225}