{"hash": "e1c2d81ca35ba838f81410eb11d4f4062d0d79a2b3cef3cd55362adaa3f4aa16", "blockhash": "00000000000000000018f53835495a110e01622372bf6ae95dc86f2b0ab887b0", "vout": [{"scriptPubKey": {"reqSigs": 1, "hex": "76a914b2d4bcf15af480568286f0fee2b04d47179ce13e88ac", "addresses": ["1HJa8SpfYaT6YDEhDM7VFeuFxBVtU8mKPX"], "asm": "OP_DUP OP_HASH160 b2d4bcf15af480568286f0fee2b04d47179ce13e OP_EQUALVERIFY OP_CHECKSIG", "type": "pubkeyhash"}, "value": 0.01200365, "n": 0}, {"scriptPubKey": {"reqSigs": 1, "hex": "76a9146cd49dc429df53aa4fc5d522459a2a157fa3c31788ac", "addresses": ["1AvSgZDSEM33c9ytgH2zHS3YML2rtV1yMF"], "asm": "OP_DUP OP_HASH160 6cd49dc429df53aa4fc5d522459a2a157fa3c317 OP_EQUALVERIFY OP_CHECKSIG", "type": "pubkeyhash"}, "value": 0.295, "n": 1}], "hex": "0200000000010512172df47db4b5bf896568578eb7d5d24771a2206e2fa788ba90e7d1ea7811660000000017160014e6e2efca5cc57faddb01517e2c3a5557f775b513feffffffb9c7d21e57737bb6210841de7289c466a42930407a5bacc873f11534d845aac90100000017160014d03d856650b621485c482c192ab5847c6309f9bcfeffffffc85f1f771e7c7f1617130c5c1318fa5c0669eaf433cbd0f4fe1014f5e4de29e30000000017160014f2044fc888059fb09c9419c924456d1b303168bdfefffffff79fda5c1c42e25643f467d73a2890a5bdcbe08766ca75597019831e4077baad010000006a47304402202a5d2171357de59e4b90a3cdbb2b22ae025a381357e4349574fada9e840fa6810220189c6ec2502c2fbffa2b53eaa6f3fa49ef89234ae0a2435a5b310c30e95e3842012103a64446bad3080e64a5a1589c7ab65b2ba8102670aa2e664090cf88b2da856742fefffffffa2fc7ddb125f3e6f3805b2f5af7046c4f0c32656afc761f9905ada645290424010000006a47304402204307b1115d0d96ac104f7ee49eba7726be3ce683365f0271106f436ebbcc1770022049a93f210180a3cf26a39b215a17c447f9187b8e123fe429ef61bd273c8f8e2f0121024fe9e37883e2941ff34e609c7fbea3b9bfd22181f5a9bb3cc28b0fa6312c5725feffffff02ed501200000000001976a914b2d4bcf15af480568286f0fee2b04d47179ce13e88ac6022c201000000001976a9146cd49dc429df53aa4fc5d522459a2a157fa3c31788ac02483045022100d7fe4641655106659f1e1d84669eda0a22845898fdf26552dc7364120a63f094022007a8ea80d5ac23cefc6113211241250764acda604b9fc18dced05ea08efb663b012102aef2e31267046dd4cb806b39152422a72e3027294a1155312b71bb6e4d16051402483045022100f8b58fdc1b50e33c67c3ce181050146db7940eb7ef4abc86386587819a77250b022000b7b523c6dff7ef3eb9505462926684e05ee0873989624e41fe4ac7df0809810121036aa4135260f973ede8eb294d4737afe63053ec495bd7ebbbf9435786d6194ead02483045022100fb5aec873fabec26ef2196f9d03700103600f78d93d7de94345cbccf23f7f80f022033bb9c921c2873c8e2323901c3089e7d13ce743a83bae0b94693341dae80462c01210317af8fb02de1ee491b899fabddf532ae651d0b8bfe3a190e71064a5751ca36b000000e490800", "vin": [{"txinwitness": ["3045022100d7fe4641655106659f1e1d84669eda0a22845898fdf26552dc7364120a63f094022007a8ea80d5ac23cefc6113211241250764acda604b9fc18dced05ea08efb663b01", "02aef2e31267046dd4cb806b39152422a72e3027294a1155312b71bb6e4d160514"], "sequence": 4294967294, "scriptSig": {"hex": "160014e6e2efca5cc57faddb01517e2c3a5557f775b513", "asm": "0014e6e2efca5cc57faddb01517e2c3a5557f775b513"}, "vout": 0, "txid": "661178ead1e790ba88a72f6e20a27147d2d5b78e57686589bfb5b47df42d1712"}, {"txinwitness": ["3045022100f8b58fdc1b50e33c67c3ce181050146db7940eb7ef4abc86386587819a77250b022000b7b523c6dff7ef3eb9505462926684e05ee0873989624e41fe4ac7df08098101", "036aa4135260f973ede8eb294d4737afe63053ec495bd7ebbbf9435786d6194ead"], "sequence": 4294967294, "scriptSig": {"hex": "160014d03d856650b621485c482c192ab5847c6309f9bc", "asm": "0014d03d856650b621485c482c192ab5847c6309f9bc"}, "vout": 1, "txid": "c9aa45d83415f173c8ac5b7a403029a466c48972de410821b67b73571ed2c7b9"}, {"txinwitness": ["3045022100fb5aec873fabec26ef2196f9d03700103600f78d93d7de94345cbccf23f7f80f022033bb9c921c2873c8e2323901c3089e7d13ce743a83bae0b94693341dae80462c01", "0317af8fb02de1ee491b899fabddf532ae651d0b8bfe3a190e71064a5751ca36b0"], "sequence": 4294967294, "scriptSig": {"hex": "160014f2044fc888059fb09c9419c924456d1b303168bd", "asm": "0014f2044fc888059fb09c9419c924456d1b303168bd"}, "vout": 0, "txid": "e329dee4f51410fef4d0cb33f4ea69065cfa18135c0c1317167f7c1e771f5fc8"}, {"sequence": 4294967294, "scriptSig": {"hex": "47304402202a5d2171357de59e4b90a3cdbb2b22ae025a381357e4349574fada9e840fa6810220189c6ec2502c2fbffa2b53eaa6f3fa49ef89234ae0a2435a5b310c30e95e3842012103a64446bad3080e64a5a1589c7ab65b2ba8102670aa2e664090cf88b2da856742", "asm": "304402202a5d2171357de59e4b90a3cdbb2b22ae025a381357e4349574fada9e840fa6810220189c6ec2502c2fbffa2b53eaa6f3fa49ef89234ae0a2435a5b310c30e95e3842[ALL] 03a64446bad3080e64a5a1589c7ab65b2ba8102670aa2e664090cf88b2da856742"}, "vout": 1, "txid": "adba77401e8319705975ca6687e0cbbda590283ad767f44356e2421c5cda9ff7"}, {"sequence": 4294967294, "scriptSig": {"hex": "47304402204307b1115d0d96ac104f7ee49eba7726be3ce683365f0271106f436ebbcc1770022049a93f210180a3cf26a39b215a17c447f9187b8e123fe429ef61bd273c8f8e2f0121024fe9e37883e2941ff34e609c7fbea3b9bfd22181f5a9bb3cc28b0fa6312c5725", "asm": "304402204307b1115d0d96ac104f7ee49eba7726be3ce683365f0271106f436ebbcc1770022049a93f210180a3cf26a39b215a17c447f9187b8e123fe429ef61bd273c8f8e2f[ALL] 024fe9e37883e2941ff34e609c7fbea3b9bfd22181f5a9bb3cc28b0fa6312c5725"}, "vout": 1, "txid": "24042945a6ad05991f76fc6a65320c4f6c04f75a2f5b80f3e6f325b1ddc72ffa"}], "txid": "d123eaba3ac5dc8451785fc16b63d1793a5e10690fd6aab4d548b56d8d8e60ce", "blocktime": 1537870928, "version": 2, "confirmations": 11512, "time": 1537870928, "locktime": 542990, "vsize": 646, "size": 892}