{"hash": "c0d974afe2a58bdaa36783c9ca490bb959446471815f7e0e4a9b40329c70a2ab", "blockhash": "0000000000000000000dcc0f55137456b1a82d3642486a52398922ac4d620174", "vout": [{"scriptPubKey": {"reqSigs": 1, "hex": "a914e39479f39d0b57cc0578d470d9f9d9d1323fded087", "addresses": ["3NSMBQec3WSGLPs3RNe3P5jLNqb3MsDzBB"], "asm": "OP_HASH160 e39479f39d0b57cc0578d470d9f9d9d1323fded0 OP_EQUAL", "type": "scripthash"}, "value": 0.0019506, "n": 0}, {"scriptPubKey": {"reqSigs": 1, "hex": "76a91470ec58d24903c9f909bbe3296d21f81e128de62b88ac", "addresses": ["1BJ5pAFret7272c26mD7ZGEER9HtaB1xVm"], "asm": "OP_DUP OP_HASH160 70ec58d24903c9f909bbe3296d21f81e128de62b OP_EQUALVERIFY OP_CHECKSIG", "type": "pubkeyhash"}, "value": 0.00156055, "n": 1}, {"scriptPubKey": {"reqSigs": 1, "hex": "a914b8a9a8ba8cf965b7df6b05afd948e53c351b2c0d87", "addresses": ["3JXRVxhrk2o9f4w3cQchBLwUeegJBj6BEp"], "asm": "OP_HASH160 b8a9a8ba8cf965b7df6b05afd948e53c351b2c0d OP_EQUAL", "type": "scripthash"}, "value": 0.16719948, "n": 2}, {"scriptPubKey": {"reqSigs": 1, "hex": "a914f8d29092def580dafe1c542322d27906353a62a887", "addresses": ["3QNfkQsYezXMavHB6e4M7VQeLXEbLjLvto"], "asm": "OP_HASH160 f8d29092def580dafe1c542322d27906353a62a8 OP_EQUAL", "type": "scripthash"}, "value": 0.00061093, "n": 3}], "hex": "01000000000101bd5fea6d4f323c604c0804ca7f52444f05d30de1b719dda94b1bd3a52e7620f2000000002322002065d416c48a8072e0ac51c2d111eb194f009caef0332446c1bf2097316cf07fa9ffffffff04f4f902000000000017a914e39479f39d0b57cc0578d470d9f9d9d1323fded08797610200000000001976a91470ec58d24903c9f909bbe3296d21f81e128de62b88ac4c20ff000000000017a914b8a9a8ba8cf965b7df6b05afd948e53c351b2c0d87a5ee00000000000017a914f8d29092def580dafe1c542322d27906353a62a8870400483045022100857136a60ae24669f1777743c1afcc870053b100e0153ae62388a57874eb969002204d47bbb026fff9f3c5ae27213e823d78e7107dd447a64cd90d9a5c69692d510f0147304402206b13bf0c07bfd793a4e4b8b06f24f90530cd56fb8570b05912afaaf0673a24f202206bbe718e9b42f2bd9f593970c023a71d69c73d6e3a4d6f1abcf6e58fc63917c90169522102f44abcf9e23c9a460da309ccca56c619c04eed3bde2c2cff5e7d78fbcd980b9c2103c9443cf3047bb6c2c82f1b0c44c36109cdc3d0d601d16d1189a1602bf8d1a0a02103bfe867059274412412e088af5572b92168c2ef495cfe6c9b7a753a009eb37c4853ae00000000", "vin": [{"txinwitness": ["", "3045022100857136a60ae24669f1777743c1afcc870053b100e0153ae62388a57874eb969002204d47bbb026fff9f3c5ae27213e823d78e7107dd447a64cd90d9a5c69692d510f01", "304402206b13bf0c07bfd793a4e4b8b06f24f90530cd56fb8570b05912afaaf0673a24f202206bbe718e9b42f2bd9f593970c023a71d69c73d6e3a4d6f1abcf6e58fc63917c901", "522102f44abcf9e23c9a460da309ccca56c619c04eed3bde2c2cff5e7d78fbcd980b9c2103c9443cf3047bb6c2c82f1b0c44c36109cdc3d0d601d16d1189a1602bf8d1a0a02103bfe867059274412412e088af5572b92168c2ef495cfe6c9b7a753a009eb37c4853ae"], "sequence": 4294967295, "scriptSig": {"hex": "22002065d416c48a8072e0ac51c2d111eb194f009caef0332446c1bf2097316cf07fa9", "asm": "002065d416c48a8072e0ac51c2d111eb194f009caef0332446c1bf2097316cf07fa9"}, "vout": 0, "txid": "f220762ea5d31b4ba9dd19b7e10dd3054f44527fca04084c603c324f6dea5fbd"}], "txid": "d124e37da22f686ab7780ee1c8ff8acda76c750389d29dfa707f9b2ccf30e32b", "blocktime": 1537870268, "version": 1, "confirmations": 11516, "time": 1537870268, "locktime": 0, "vsize": 280, "size": 471}