{"hash": "4890f918d0f652d87d24d8fc0facaf833c1aa3abb1fe26ae809c51f9ee471e6f", "blockhash": "0000000000000000000dcc0f55137456b1a82d3642486a52398922ac4d620174", "vout": [{"scriptPubKey": {"reqSigs": 1, "hex": "a914972db075d816ddda865b454b89c542d3c37aa60887", "addresses": ["3FUNh4LAMLQjNgfWG6jghwphyrWD3xaovM"], "asm": "OP_HASH160 972db075d816ddda865b454b89c542d3c37aa608 OP_EQUAL", "type": "scripthash"}, "value": 0.00702, "n": 0}, {"scriptPubKey": {"reqSigs": 1, "hex": "00143de373e3f7001df3edb20e6a83e9b3b030092edd", "addresses": ["bc1q8h3h8clhqqwl8mdjpe4g86dnkqcqjtka7rpydy"], "asm": "0 3de373e3f7001df3edb20e6a83e9b3b030092edd", "type": "witness_v0_keyhash"}, "value": 0.00063663, "n": 1}], "hex": "01000000000101c23b01c7e2198ef6fe0a4adf01a9762200d67a075b421ed4fe9e710a96a45c5d010000001716001437642ca8759dba7a17b29ebc46d463bfe161f135ffffffff0230b60a000000000017a914972db075d816ddda865b454b89c542d3c37aa60887aff80000000000001600143de373e3f7001df3edb20e6a83e9b3b030092edd02483045022100e9ed0331cf306949af845cf35f41e9b610163e1d93a452205770088f8120c85402203c40dc0d8fdc1030622d435254a3baded7d59e47e6e8accd54068cff5b6e6024012103a7ec20ab0cb3f0d1f791690ae1c923c6f6755410dbbd7377a44f1625d0b6e00600000000", "vin": [{"txinwitness": ["3045022100e9ed0331cf306949af845cf35f41e9b610163e1d93a452205770088f8120c85402203c40dc0d8fdc1030622d435254a3baded7d59e47e6e8accd54068cff5b6e602401", "03a7ec20ab0cb3f0d1f791690ae1c923c6f6755410dbbd7377a44f1625d0b6e006"], "sequence": 4294967295, "scriptSig": {"hex": "16001437642ca8759dba7a17b29ebc46d463bfe161f135", "asm": "001437642ca8759dba7a17b29ebc46d463bfe161f135"}, "vout": 1, "txid": "5d5ca4960a719efed41e425b077ad6002276a901df4a0afef68e19e2c7013bc2"}], "txid": "d1286fd18e3c780a4c44f0b93620f8961f181ec6b85ac7c2e5ce541ec6926a0b", "blocktime": 1537870268, "version": 1, "confirmations": 11518, "time": 1537870268, "locktime": 0, "vsize": 165, "size": 247}