{"hash": "135b1006d644ea192b6ce7be64c7ebe03aeb34dd8df774dfc186ace2df171616", "blockhash": "0000000000000000000dcc0f55137456b1a82d3642486a52398922ac4d620174", "vout": [{"scriptPubKey": {"reqSigs": 1, "hex": "00149df4eb662a01a9e46d2a186650abae5b57bd0df9", "addresses": ["bc1qnh6wke32qx57gmf2rpn9p2awtdtm6r0eh6v22x"], "asm": "0 9df4eb662a01a9e46d2a186650abae5b57bd0df9", "type": "witness_v0_keyhash"}, "value": 1.171e-05, "n": 0}, {"scriptPubKey": {"reqSigs": 1, "hex": "a9149db1978b93ae75a2a9e36157f0055fa0419a2e9f87", "addresses": ["3G4pky5qjJzAo5owrNdcD5wXZ3LFtgEUZs"], "asm": "OP_HASH160 9db1978b93ae75a2a9e36157f0055fa0419a2e9f OP_EQUAL", "type": "scripthash"}, "value": 0.00141, "n": 1}], "hex": "01000000000101770a63406f4b29bbb2899a8cb5d71b85864c4c7501a7eb4a73290b7625d0d1580100000000ffffffff0293040000000000001600149df4eb662a01a9e46d2a186650abae5b57bd0df9c82602000000000017a9149db1978b93ae75a2a9e36157f0055fa0419a2e9f87024730440220788c12f41ce2eb6e59775d4d417bdb0331f626c185ba894096a382956909277402203913f044d7b40883e619051540fa50a3371cc1b880d4bdd07534e0f3ae9df741012102bff9b2abbd170d48bf8297c91648c6fc34b96a325b73d7d34bd3c07be5216d1600000000", "vin": [{"txinwitness": ["30440220788c12f41ce2eb6e59775d4d417bdb0331f626c185ba894096a382956909277402203913f044d7b40883e619051540fa50a3371cc1b880d4bdd07534e0f3ae9df74101", "02bff9b2abbd170d48bf8297c91648c6fc34b96a325b73d7d34bd3c07be5216d16"], "sequence": 4294967295, "scriptSig": {"hex": "", "asm": ""}, "vout": 1, "txid": "58d1d025760b29734aeba701754c4c86851bd7b58c9a89b2bb294b6f40630a77"}], "txid": "d138c2f528bbc9a32d1822d01368686dab1a791855a4c8fe5c4049c5ab13aa5b", "blocktime": 1537870268, "version": 1, "confirmations": 11518, "time": 1537870268, "locktime": 0, "vsize": 142, "size": 223}