{"hash": "bbeb880681af7df0b169a2bc9a2eb443f94518285bd3a50633504c01e604e09a", "blockhash": "00000000000000000018f53835495a110e01622372bf6ae95dc86f2b0ab887b0", "vout": [{"scriptPubKey": {"reqSigs": 1, "hex": "a91418eda52024b7a03a4f86abb7a861f9c04ec233f287", "addresses": ["33xpq1isu9ujUkE75HMg8nScS4XNSkf4Nh"], "asm": "OP_HASH160 18eda52024b7a03a4f86abb7a861f9c04ec233f2 OP_EQUAL", "type": "scripthash"}, "value": 5.7e-05, "n": 0}], "hex": "010000000001018801ded453b9f14e14002ddd269ad56d3fe532b8beb50483004c52b2ee8defc6010000001716001438a6db02dfdf8714c52a5d066428684f8d513b77ffffff0001441600000000000017a91418eda52024b7a03a4f86abb7a861f9c04ec233f2870247304402207b160873910caf75dfa0cf19b8099810a871f6d45f897027f3279283b0cc2a90022010f62454089c064d48bcf632cb3a45b68ead1f8b47d66e5cc63d61fdd9b423ef0121035940e2da09e6660993db02da1fd42e9f8aa8ba560150899066abfcb8cfafe3ee00000000", "vin": [{"txinwitness": ["304402207b160873910caf75dfa0cf19b8099810a871f6d45f897027f3279283b0cc2a90022010f62454089c064d48bcf632cb3a45b68ead1f8b47d66e5cc63d61fdd9b423ef01", "035940e2da09e6660993db02da1fd42e9f8aa8ba560150899066abfcb8cfafe3ee"], "sequence": 16777215, "scriptSig": {"hex": "16001438a6db02dfdf8714c52a5d066428684f8d513b77", "asm": "001438a6db02dfdf8714c52a5d066428684f8d513b77"}, "vout": 1, "txid": "c6ef8deeb2524c008304b5beb832e53f6dd59a26dd2d00144ef1b953d4de0188"}], "txid": "d13be2131741aba9269c805824dff0b6c529f7699da258414783ea32b97ec0dc", "blocktime": 1537870928, "version": 1, "confirmations": 11514, "time": 1537870928, "locktime": 0, "vsize": 134, "size": 215}