{"hash": "0a7624af48a12e56e0c6e84e2fa9c89a0c7c4fa2c42daeb866e789a631788fad", "blockhash": "0000000000000000001f0ddff1eddb255c1121bcd4da4f1bc9a0da00cae72433", "vout": [{"scriptPubKey": {"reqSigs": 1, "hex": "a9147f2513d3aa10714a2bb8ab7dd04bb85028e15e8f87", "addresses": ["3DHJA6KRsrK5rNWjfr7p1cTNm5nzAyzBH8"], "asm": "OP_HASH160 7f2513d3aa10714a2bb8ab7dd04bb85028e15e8f OP_EQUAL", "type": "scripthash"}, "value": 5.60263813, "n": 0}, {"scriptPubKey": {"reqSigs": 1, "hex": "a914dd10531132d3785080a02cedd704c1414bee637f87", "addresses": ["3MqtpBaFJLyc6cyb4S3HSszux2oLgzmAu9"], "asm": "OP_HASH160 dd10531132d3785080a02cedd704c1414bee637f OP_EQUAL", "type": "scripthash"}, "value": 0.01, "n": 1}], "hex": "02000000000101e74f9311e0859f28cd76d8c4836ad20f61598c69ecc72a5fd91761a1774ba4370100000017160014bcd559f7125b1d1df027feb88a85655a79a9f0d8feffffff0285f264210000000017a9147f2513d3aa10714a2bb8ab7dd04bb85028e15e8f8740420f000000000017a914dd10531132d3785080a02cedd704c1414bee637f870247304402205d1b15bf240df96c534fe2e6af9c9733c4b25d6a9bf2eac32be0d7b9a8dd902502203e06ff9b82cf8de8edaead87aa2e793696a553b5351547a7ea362aa396df147f0121025be451b869863dea7dd59bac033c99e71013351f4f76400d209346299b149e4011490800", "vin": [{"txinwitness": ["304402205d1b15bf240df96c534fe2e6af9c9733c4b25d6a9bf2eac32be0d7b9a8dd902502203e06ff9b82cf8de8edaead87aa2e793696a553b5351547a7ea362aa396df147f01", "025be451b869863dea7dd59bac033c99e71013351f4f76400d209346299b149e40"], "sequence": 4294967294, "scriptSig": {"hex": "160014bcd559f7125b1d1df027feb88a85655a79a9f0d8", "asm": "0014bcd559f7125b1d1df027feb88a85655a79a9f0d8"}, "vout": 1, "txid": "37a44b77a16117d95f2ac7ec698c59610fd26a83c4d876cd289f85e011934fe7"}], "txid": "d13c17bc1991b67dbdb85cfe8d91896a71ddbd0ad538e44322402f939bb5bf05", "blocktime": 1537872018, "version": 2, "confirmations": 11489, "time": 1537872018, "locktime": 542993, "vsize": 166, "size": 247}