{"hash": "d1484e50bd1f28e736e055dea9cd0a6ddfa7a0839e5550709a4fffe0848e84db", "blockhash": "0000000000000000000baef3f32e3676a92c3b2e5da21b426e4f302fc371ce76", "vout": [{"scriptPubKey": {"reqSigs": 1, "hex": "76a914e6e76da72eb29d959e82ae8df9c585d5b642d9ce88ac", "addresses": ["1N3uf3X521u4vByiJ9kFCX6AXifZVrSyx9"], "asm": "OP_DUP OP_HASH160 e6e76da72eb29d959e82ae8df9c585d5b642d9ce OP_EQUALVERIFY OP_CHECKSIG", "type": "pubkeyhash"}, "value": 0.00059372, "n": 0}, {"scriptPubKey": {"reqSigs": 1, "hex": "a91464c6e22cd7dc8ef4994c65f4ab90f7283ceb582687", "addresses": ["3AsskPq3LAyMt2PnatPzsGZL9eAAQ1aaDZ"], "asm": "OP_HASH160 64c6e22cd7dc8ef4994c65f4ab90f7283ceb5826 OP_EQUAL", "type": "scripthash"}, "value": 0.0282, "n": 1}], "hex": "0100000001a2c28641aa9f833fafc202b49670f25ebd762ca379c0c456894d588ddac781f40a0000006a4730440220659425749bd58e59dc05e2f1e2baaf57e39451421125138f4d530907b723074602204db3a8c545669a58afe63cf53a9cf44849b320f0e319e2628b7f271ef7c45c3e012103c8b87bbbaeaa9832c1ef75f910125716e3b05dfd2ae85bd2b0a7ab275ce9b173ffffffff02ece70000000000001976a914e6e76da72eb29d959e82ae8df9c585d5b642d9ce88aca0072b000000000017a91464c6e22cd7dc8ef4994c65f4ab90f7283ceb58268700000000", "vin": [{"sequence": 4294967295, "scriptSig": {"hex": "4730440220659425749bd58e59dc05e2f1e2baaf57e39451421125138f4d530907b723074602204db3a8c545669a58afe63cf53a9cf44849b320f0e319e2628b7f271ef7c45c3e012103c8b87bbbaeaa9832c1ef75f910125716e3b05dfd2ae85bd2b0a7ab275ce9b173", "asm": "30440220659425749bd58e59dc05e2f1e2baaf57e39451421125138f4d530907b723074602204db3a8c545669a58afe63cf53a9cf44849b320f0e319e2628b7f271ef7c45c3e[ALL] 03c8b87bbbaeaa9832c1ef75f910125716e3b05dfd2ae85bd2b0a7ab275ce9b173"}, "vout": 10, "txid": "f481c7da8d584d8956c4c079a32c76bd5ef27096b402c2af3f839faa4186c2a2"}], "txid": "d1484e50bd1f28e736e055dea9cd0a6ddfa7a0839e5550709a4fffe0848e84db", "blocktime": 1537876114, "version": 1, "confirmations": 11463, "time": 1537876114, "locktime": 0, "vsize": 223, "size": 223}