{"hash": "d14fd58d2274cb83257da0504a7ede849618fe42907d48ed0a95a144122b3c70", "blockhash": "0000000000000000000dcc0f55137456b1a82d3642486a52398922ac4d620174", "vout": [{"scriptPubKey": {"reqSigs": 1, "hex": "76a914f5d07655f60bae393d571ebb285ffe5dc3607c6c88ac", "addresses": ["1PQkHD9bBx3faKA8hcvcgndTQeBf1cvfdu"], "asm": "OP_DUP OP_HASH160 f5d07655f60bae393d571ebb285ffe5dc3607c6c OP_EQUALVERIFY OP_CHECKSIG", "type": "pubkeyhash"}, "value": 0.009, "n": 0}, {"scriptPubKey": {"reqSigs": 1, "hex": "76a914ae1c1c1b3fdc2bf9d94e59a0c25452842528b87288ac", "addresses": ["1GscFUu5PpQdLvNRwg7TwzJ9WPfYpidojf"], "asm": "OP_DUP OP_HASH160 ae1c1c1b3fdc2bf9d94e59a0c25452842528b872 OP_EQUALVERIFY OP_CHECKSIG", "type": "pubkeyhash"}, "value": 0.1572958, "n": 1}], "hex": "0100000001d895fa7b6fcee15d5a1d78219c8bd8583bba3fec3729ad26f1af5ff3d0324937010000006b483045022100cdb9c0580afefe5d833ea1ba76faa1f8761ecdaf4a607a6140975d7be0beb10f02200bca9ef99195c96ac316b547a02737c446ab3fd4db50e12b66ffe980ec15f25201210382877f8a31b773cefc2c7ec027ad7d4f9baea2842daee79bce2ad375cf30a5b8ffffffff02a0bb0d00000000001976a914f5d07655f60bae393d571ebb285ffe5dc3607c6c88acac03f000000000001976a914ae1c1c1b3fdc2bf9d94e59a0c25452842528b87288ac00000000", "vin": [{"sequence": 4294967295, "scriptSig": {"hex": "483045022100cdb9c0580afefe5d833ea1ba76faa1f8761ecdaf4a607a6140975d7be0beb10f02200bca9ef99195c96ac316b547a02737c446ab3fd4db50e12b66ffe980ec15f25201210382877f8a31b773cefc2c7ec027ad7d4f9baea2842daee79bce2ad375cf30a5b8", "asm": "3045022100cdb9c0580afefe5d833ea1ba76faa1f8761ecdaf4a607a6140975d7be0beb10f02200bca9ef99195c96ac316b547a02737c446ab3fd4db50e12b66ffe980ec15f252[ALL] 0382877f8a31b773cefc2c7ec027ad7d4f9baea2842daee79bce2ad375cf30a5b8"}, "vout": 1, "txid": "374932d0f35faff126ad2937ec3fba3b58d88b9c21781d5a5de1ce6f7bfa95d8"}], "txid": "d14fd58d2274cb83257da0504a7ede849618fe42907d48ed0a95a144122b3c70", "blocktime": 1537870268, "version": 1, "confirmations": 11518, "time": 1537870268, "locktime": 0, "vsize": 226, "size": 226}