{"hash": "64373e9659e69a30374240d79b4affaa3abdda4601506625acd7d382636b7b9f", "blockhash": "0000000000000000001e0dab787dd257d1dbfcb92a98c2207d5e1078be1f4165", "vout": [{"scriptPubKey": {"reqSigs": 1, "hex": "a91457d088b3ce793e97fe454c68b5acff57453a4cd887", "addresses": ["39hLXRq3KaY2FMo1z6A6eiRSEkVYg4eJUe"], "asm": "OP_HASH160 57d088b3ce793e97fe454c68b5acff57453a4cd8 OP_EQUAL", "type": "scripthash"}, "value": 6.044e-05, "n": 0}, {"scriptPubKey": {"reqSigs": 1, "hex": "76a914a82b02dadacb8e0b61b962ad84644cd0dfd2007988ac", "addresses": ["1GLC3hJ75aeeyEM3rFHMrMgKa1GXbsJnP9"], "asm": "OP_DUP OP_HASH160 a82b02dadacb8e0b61b962ad84644cd0dfd20079 OP_EQUALVERIFY OP_CHECKSIG", "type": "pubkeyhash"}, "value": 0.0535, "n": 1}], "hex": "010000000001035d66db29ec2c65d020864e20629bf5d303726f0bbe9331e4d9dff03da513b27700000000fdfd00004730440220638293b90b540f967b2bebbbb18ff477481796194071dbc61085be41301c2e0902203820ef094ea1ac1e77f7ec0d497c49e59ff5afa17f56bcaa50413fc1f104a60b01483045022100e02a0707055360b7c9d9f129c973ac3098897c776ca343f22f1decedf0eb3d10022067303868945c58324349e87ee34f1680b7333e92366f7942217de74a89cee9fb014c69522102365bb4d6fb749ff7f7e7453ffd616ec943d55fc5aad218b3104ecd44c1d3c5bd2102d1678c5c0cd445fe8a35540c6dbe67a8aaf5da2aac0d5388b43f9a13d50abc7f21033702e5b8644d7c8544478602a73366e396b608f4c25a28a8bbeb1d501990186d53aeffffffff352791ce157baf7cd5c3150ecb3fd06d80b0cdc04f563a0ff408e75411dd24fa01000000232200206cacb1c43325fa4469036a27908007cb4faa86bb09e9162e1660c5edb469b315ffffffff868de9758664cba4b0055fa3b9f99cc6cd76ede657664323185a6fe0360c442c000000002322002016795b5d266718fb1eabde070ae6a90d0d5aec73c446440b0f5b17ca42753929ffffffff029c1700000000000017a91457d088b3ce793e97fe454c68b5acff57453a4cd88770a25100000000001976a914a82b02dadacb8e0b61b962ad84644cd0dfd2007988ac000400473044022066b5d44115ad27b6ff179e0f0031aaf375ab9c80af6cbde5940266d9b2c4ce4d022051e6688dfedcebb4d5180e9e8a4805c40c16c6144868c1c0407bedd80bdb9c890147304402206650d8401c5b703742b589496fff1bb7b84ad6beb784baceb66a80b43a7f94da02201c6f28792a49d370ceff67eb2f71a84b1ed8ef7442e0656a7ff316afee6d076a016952210243bd6fbdffbdd5f6c07a8f21419091574a77ca66faf83fa83c1585a5e568e5172103331bdb32b999d19d13704ccf5a3df081d259aab324c76744abfa8107b1dece57210397fc155dc63d89526809372396672ca453830213bd2e36f61041c945aae5659753ae0400483045022100b31fe3bf40dd6086c75e26a93bbc45862fd52b7f5db3cb9ce8a9f673ccbbd83502205a813152dc45eab0aa6478e15fc2b4994eaaf1a515e807d3aa6faa33dd280ac9014730440220730d77be897f1a8bde36dff6c7da5ea78099acd5ea0190efe98d1f237710d6b902200d360b3c851c47a1c6b46d078eb364bee94cba229b0986dbbc5e10e505aa1cf10169522102446d1ae659a09c6066522737ed255f14d9583c062b161460bbf803a095f9df8221027f5edd594b7aab8f2eadf0721c752586645ad67d6b4c77898fd747800f031e5d2103144169d759a1d81a3acbc9195867207d1f2b94ce36a383209b1d324f9f38b24353ae00000000", "vin": [{"sequence": 4294967295, "scriptSig": {"hex": "004730440220638293b90b540f967b2bebbbb18ff477481796194071dbc61085be41301c2e0902203820ef094ea1ac1e77f7ec0d497c49e59ff5afa17f56bcaa50413fc1f104a60b01483045022100e02a0707055360b7c9d9f129c973ac3098897c776ca343f22f1decedf0eb3d10022067303868945c58324349e87ee34f1680b7333e92366f7942217de74a89cee9fb014c69522102365bb4d6fb749ff7f7e7453ffd616ec943d55fc5aad218b3104ecd44c1d3c5bd2102d1678c5c0cd445fe8a35540c6dbe67a8aaf5da2aac0d5388b43f9a13d50abc7f21033702e5b8644d7c8544478602a73366e396b608f4c25a28a8bbeb1d501990186d53ae", "asm": "0 30440220638293b90b540f967b2bebbbb18ff477481796194071dbc61085be41301c2e0902203820ef094ea1ac1e77f7ec0d497c49e59ff5afa17f56bcaa50413fc1f104a60b[ALL] 3045022100e02a0707055360b7c9d9f129c973ac3098897c776ca343f22f1decedf0eb3d10022067303868945c58324349e87ee34f1680b7333e92366f7942217de74a89cee9fb[ALL] 522102365bb4d6fb749ff7f7e7453ffd616ec943d55fc5aad218b3104ecd44c1d3c5bd2102d1678c5c0cd445fe8a35540c6dbe67a8aaf5da2aac0d5388b43f9a13d50abc7f21033702e5b8644d7c8544478602a73366e396b608f4c25a28a8bbeb1d501990186d53ae"}, "vout": 0, "txid": "77b213a53df0dfd9e43193be0b6f7203d3f59b62204e8620d0652cec29db665d"}, {"txinwitness": ["", "3044022066b5d44115ad27b6ff179e0f0031aaf375ab9c80af6cbde5940266d9b2c4ce4d022051e6688dfedcebb4d5180e9e8a4805c40c16c6144868c1c0407bedd80bdb9c8901", "304402206650d8401c5b703742b589496fff1bb7b84ad6beb784baceb66a80b43a7f94da02201c6f28792a49d370ceff67eb2f71a84b1ed8ef7442e0656a7ff316afee6d076a01", "52210243bd6fbdffbdd5f6c07a8f21419091574a77ca66faf83fa83c1585a5e568e5172103331bdb32b999d19d13704ccf5a3df081d259aab324c76744abfa8107b1dece57210397fc155dc63d89526809372396672ca453830213bd2e36f61041c945aae5659753ae"], "sequence": 4294967295, "scriptSig": {"hex": "2200206cacb1c43325fa4469036a27908007cb4faa86bb09e9162e1660c5edb469b315", "asm": "00206cacb1c43325fa4469036a27908007cb4faa86bb09e9162e1660c5edb469b315"}, "vout": 1, "txid": "fa24dd1154e708f40f3a564fc0cdb0806dd03fcb0e15c3d57caf7b15ce912735"}, {"txinwitness": ["", "3045022100b31fe3bf40dd6086c75e26a93bbc45862fd52b7f5db3cb9ce8a9f673ccbbd83502205a813152dc45eab0aa6478e15fc2b4994eaaf1a515e807d3aa6faa33dd280ac901", "30440220730d77be897f1a8bde36dff6c7da5ea78099acd5ea0190efe98d1f237710d6b902200d360b3c851c47a1c6b46d078eb364bee94cba229b0986dbbc5e10e505aa1cf101", "522102446d1ae659a09c6066522737ed255f14d9583c062b161460bbf803a095f9df8221027f5edd594b7aab8f2eadf0721c752586645ad67d6b4c77898fd747800f031e5d2103144169d759a1d81a3acbc9195867207d1f2b94ce36a383209b1d324f9f38b24353ae"], "sequence": 4294967295, "scriptSig": {"hex": "22002016795b5d266718fb1eabde070ae6a90d0d5aec73c446440b0f5b17ca42753929", "asm": "002016795b5d266718fb1eabde070ae6a90d0d5aec73c446440b0f5b17ca42753929"}, "vout": 0, "txid": "2c440c36e06f5a1823436657e6ed76cdc69cf9b9a35f05b0a4cb648675e98d86"}], "txid": "d1541ca065b5703d0c31eae8d318be07826e266119dbcf543594ab20324755be", "blocktime": 1537872475, "version": 1, "confirmations": 11486, "time": 1537872475, "locktime": 0, "vsize": 651, "size": 1032}