{"hash": "b75246b6f0b8a08cbb8a0bbeda0f1853dfb72d3a949645e00039d814beecdbbd", "blockhash": "00000000000000000017f5eb5941039fbcee6240d03bc1f2f8e35350df66a1d8", "vout": [{"scriptPubKey": {"reqSigs": 1, "hex": "a914e87e1be435d45a498ad21586ce63b8560edcd47b87", "addresses": ["3NtKmFZmMKjx8NRYU4tHdEwduzJKWcKJdk"], "asm": "OP_HASH160 e87e1be435d45a498ad21586ce63b8560edcd47b OP_EQUAL", "type": "scripthash"}, "value": 0.20370681, "n": 0}, {"scriptPubKey": {"reqSigs": 1, "hex": "76a91425e9943ae91cb27ddc20958822111ccf15ab2bc488ac", "addresses": ["14TTpTGJopkKESBTKVSxsbBkjnWfpxme4k"], "asm": "OP_DUP OP_HASH160 25e9943ae91cb27ddc20958822111ccf15ab2bc4 OP_EQUALVERIFY OP_CHECKSIG", "type": "pubkeyhash"}, "value": 3.0, "n": 1}], "hex": "0100000000010875712c9078b9632a9e91df9f2ffcf9da26b8a4192cd585eff11b0fd8c87a19110000000017160014c3a46e66a01873d59943147b312236d2ae84654dffffffff8681b3719ddf5d12ea2a10688729bdaa7ca5feeb8ffb25a2e70caef2030d5d240600000017160014c3a46e66a01873d59943147b312236d2ae84654dffffffffbe3c91e5eb2741fd61cef3c58b0c1ff1007ce4bfa1a6cb5e00b7b09822f2de400200000017160014c3a46e66a01873d59943147b312236d2ae84654dffffffffc56aa172a8fac7dcde48da73dc48589299c6d92353bd57992b67b2747fc21b590000000017160014c3a46e66a01873d59943147b312236d2ae84654dffffffff2ee113fd3620578070830b68897dc93cbc849b3ad636520058c04229b5ac756c0200000017160014c3a46e66a01873d59943147b312236d2ae84654dffffffff94f78396682385aa6cedd7850e68b5010de3a2b087281df0e393835dcbdb8d890000000017160014c3a46e66a01873d59943147b312236d2ae84654dffffffff2a14bacf12c14ad83cf8c49bf5511e58a513ee55793c150cd3d7ff6694848ea600000000171600141a52ed113aae6c2918dcfcfcca5c198c9e1022bdffffffff89f6c68d35a5d73e1b27f7f2260a5f28e3aac962827ca39a3ec6a5c23e57ddca0200000017160014c3a46e66a01873d59943147b312236d2ae84654dffffffff02f9d436010000000017a914e87e1be435d45a498ad21586ce63b8560edcd47b8700a3e111000000001976a91425e9943ae91cb27ddc20958822111ccf15ab2bc488ac02483045022100efd42d5779a36670514652841522958f9c152e8ca130244fb75cac2c82426c18022063cf4f64e08fe629cf345b30b8c630d28113d9a984f20fed8f8f62ca2885750a012102e52adbab7094e671ce9763c338b77aa35ebb14b8fcee2af6be447020abdc7b0f02483045022100b1a22a34c0c53bc83eb66a605265cff4ec79534f4672408f910100599253226602204185174c4fba2ac616326c39313b1bc81bc2908598390af00d5ef3d592b7c037012102e52adbab7094e671ce9763c338b77aa35ebb14b8fcee2af6be447020abdc7b0f0247304402205596c8eafd0a55c320224fee26196313ca4a2a06841a18eba4000e5a9efbed28022057d1ede31637b45ca81deac654ece35371e6dde73c4c2586e4d25f625df9e406012102e52adbab7094e671ce9763c338b77aa35ebb14b8fcee2af6be447020abdc7b0f02473044022004e2f04982cb5ff10a7f53709551f58db949dcc9f8cd085e8b8b224acd9ca83d022033d808bcb53a36a479d29dc5d8af8960e655cbea72ff5ac44c1c4b0a9315ca4b012102e52adbab7094e671ce9763c338b77aa35ebb14b8fcee2af6be447020abdc7b0f024830450221008a5d2e6b61f7da11f28267fd47ba2c9985450e1473f96b308543486fe1b9dd120220444f7b39456e088b912002822f279fbdd54ca37086f1a23f34ecce309c689d0a012102e52adbab7094e671ce9763c338b77aa35ebb14b8fcee2af6be447020abdc7b0f02483045022100ed778b621176ce1fb1a124bffac6aef182512e4c53b53ed59fe1f996ea4f3f9902205c122842acaeffc02e46fb30c6bf8bf97f035900650c19018879dc2995c01b7b012102e52adbab7094e671ce9763c338b77aa35ebb14b8fcee2af6be447020abdc7b0f024730440220711034b9a02ab0ce5fffad60006f74100889027e3e6e46853fc269c70d91d47d022057b834106d1b144d330f6a4a60117fce4e8b47f341824db85656a354610da287012102a69e6df7923af8f7f2f8491ab7a0941a1fad0141785a5687876819aef34c0ae4024830450221008462a4e82dcf03117cc7aff435a509519b0253024600b4b0e66b51aa4f8cd5c602201f093cbbee3ea9ca6ee7d0009806655ccdb94d7ec3b7e4a06936b252f6b70168012102e52adbab7094e671ce9763c338b77aa35ebb14b8fcee2af6be447020abdc7b0f00000000", "vin": [{"txinwitness": ["3045022100efd42d5779a36670514652841522958f9c152e8ca130244fb75cac2c82426c18022063cf4f64e08fe629cf345b30b8c630d28113d9a984f20fed8f8f62ca2885750a01", "02e52adbab7094e671ce9763c338b77aa35ebb14b8fcee2af6be447020abdc7b0f"], "sequence": 4294967295, "scriptSig": {"hex": "160014c3a46e66a01873d59943147b312236d2ae84654d", "asm": "0014c3a46e66a01873d59943147b312236d2ae84654d"}, "vout": 0, "txid": "11197ac8d80f1bf1ef85d52c19a4b826daf9fc2f9fdf919e2a63b978902c7175"}, {"txinwitness": ["3045022100b1a22a34c0c53bc83eb66a605265cff4ec79534f4672408f910100599253226602204185174c4fba2ac616326c39313b1bc81bc2908598390af00d5ef3d592b7c03701", "02e52adbab7094e671ce9763c338b77aa35ebb14b8fcee2af6be447020abdc7b0f"], "sequence": 4294967295, "scriptSig": {"hex": "160014c3a46e66a01873d59943147b312236d2ae84654d", "asm": "0014c3a46e66a01873d59943147b312236d2ae84654d"}, "vout": 6, "txid": "245d0d03f2ae0ce7a225fb8febfea57caabd298768102aea125ddf9d71b38186"}, {"txinwitness": ["304402205596c8eafd0a55c320224fee26196313ca4a2a06841a18eba4000e5a9efbed28022057d1ede31637b45ca81deac654ece35371e6dde73c4c2586e4d25f625df9e40601", "02e52adbab7094e671ce9763c338b77aa35ebb14b8fcee2af6be447020abdc7b0f"], "sequence": 4294967295, "scriptSig": {"hex": "160014c3a46e66a01873d59943147b312236d2ae84654d", "asm": "0014c3a46e66a01873d59943147b312236d2ae84654d"}, "vout": 2, "txid": "40def22298b0b7005ecba6a1bfe47c00f11f0c8bc5f3ce61fd4127ebe5913cbe"}, {"txinwitness": ["3044022004e2f04982cb5ff10a7f53709551f58db949dcc9f8cd085e8b8b224acd9ca83d022033d808bcb53a36a479d29dc5d8af8960e655cbea72ff5ac44c1c4b0a9315ca4b01", "02e52adbab7094e671ce9763c338b77aa35ebb14b8fcee2af6be447020abdc7b0f"], "sequence": 4294967295, "scriptSig": {"hex": "160014c3a46e66a01873d59943147b312236d2ae84654d", "asm": "0014c3a46e66a01873d59943147b312236d2ae84654d"}, "vout": 0, "txid": "591bc27f74b2672b9957bd5323d9c699925848dc73da48dedcc7faa872a16ac5"}, {"txinwitness": ["30450221008a5d2e6b61f7da11f28267fd47ba2c9985450e1473f96b308543486fe1b9dd120220444f7b39456e088b912002822f279fbdd54ca37086f1a23f34ecce309c689d0a01", "02e52adbab7094e671ce9763c338b77aa35ebb14b8fcee2af6be447020abdc7b0f"], "sequence": 4294967295, "scriptSig": {"hex": "160014c3a46e66a01873d59943147b312236d2ae84654d", "asm": "0014c3a46e66a01873d59943147b312236d2ae84654d"}, "vout": 2, "txid": "6c75acb52942c058005236d63a9b84bc3cc97d89680b837080572036fd13e12e"}, {"txinwitness": ["3045022100ed778b621176ce1fb1a124bffac6aef182512e4c53b53ed59fe1f996ea4f3f9902205c122842acaeffc02e46fb30c6bf8bf97f035900650c19018879dc2995c01b7b01", "02e52adbab7094e671ce9763c338b77aa35ebb14b8fcee2af6be447020abdc7b0f"], "sequence": 4294967295, "scriptSig": {"hex": "160014c3a46e66a01873d59943147b312236d2ae84654d", "asm": "0014c3a46e66a01873d59943147b312236d2ae84654d"}, "vout": 0, "txid": "898ddbcb5d8393e3f01d2887b0a2e30d01b5680e85d7ed6caa8523689683f794"}, {"txinwitness": ["30440220711034b9a02ab0ce5fffad60006f74100889027e3e6e46853fc269c70d91d47d022057b834106d1b144d330f6a4a60117fce4e8b47f341824db85656a354610da28701", "02a69e6df7923af8f7f2f8491ab7a0941a1fad0141785a5687876819aef34c0ae4"], "sequence": 4294967295, "scriptSig": {"hex": "1600141a52ed113aae6c2918dcfcfcca5c198c9e1022bd", "asm": "00141a52ed113aae6c2918dcfcfcca5c198c9e1022bd"}, "vout": 0, "txid": "a68e849466ffd7d30c153c7955ee13a5581e51f59bc4f83cd84ac112cfba142a"}, {"txinwitness": ["30450221008462a4e82dcf03117cc7aff435a509519b0253024600b4b0e66b51aa4f8cd5c602201f093cbbee3ea9ca6ee7d0009806655ccdb94d7ec3b7e4a06936b252f6b7016801", "02e52adbab7094e671ce9763c338b77aa35ebb14b8fcee2af6be447020abdc7b0f"], "sequence": 4294967295, "scriptSig": {"hex": "160014c3a46e66a01873d59943147b312236d2ae84654d", "asm": "0014c3a46e66a01873d59943147b312236d2ae84654d"}, "vout": 2, "txid": "cadd573ec2a5c63e9aa37c8262c9aae3285f0a26f2f7271b3ed7a5358dc6f689"}], "txid": "d158865a8807a9fe12be369b5001b9456e287313b543391e25cb0ad9f753e56d", "blocktime": 1537874412, "version": 1, "confirmations": 11468, "time": 1537874412, "locktime": 0, "vsize": 804, "size": 1451}