{"hash": "32769fd4158f63baadddac3b157a50c07a5b63e418b622e6e657dd37c54c7b34", "blockhash": "0000000000000000000dcc0f55137456b1a82d3642486a52398922ac4d620174", "vout": [{"scriptPubKey": {"reqSigs": 1, "hex": "a914c5e2a81be5ee3558a823720da10042faadba97f987", "addresses": ["3KjLZiVkpiYGUUxCcEsJ9NVJfYMj4WJdoZ"], "asm": "OP_HASH160 c5e2a81be5ee3558a823720da10042faadba97f9 OP_EQUAL", "type": "scripthash"}, "value": 0.105636, "n": 0}, {"scriptPubKey": {"reqSigs": 1, "hex": "a914583a4c07923ff78473889d9872488430a5c8b9fd87", "addresses": ["39jXDyFqN9psqu5Ft17taoiRsx57w2m6Ec"], "asm": "OP_HASH160 583a4c07923ff78473889d9872488430a5c8b9fd OP_EQUAL", "type": "scripthash"}, "value": 0.044706, "n": 1}], "hex": "01000000000101c779ce0f039d0c592bc361b318e81564b7c6839a5c150226946e9893c9be33da01000000232200208fc78ae66e2e01c9d07b37ad720ec769fb1cca16ae156ef3cc6bb57fd741fe4effffffff021030a1000000000017a914c5e2a81be5ee3558a823720da10042faadba97f987483744000000000017a914583a4c07923ff78473889d9872488430a5c8b9fd870400483045022100f77b1922835251091f86f075a1cb9da1cc4e5008e62b65c74d1c5f6703fbad56022076d5aa517c30ed2e9a3d059b30bf9c228cdb7f8b8b675f66e08f116ee5e24d730147304402207270fcc040aa7ab4ea6814e0ec9cb725575b9203c525e73a8482025fed5ed162022019f425717c712c2e4fda762322e018f782e86f965e5eb85d6ac272184f1dc61d0169522102cef934b66607d3cea5d8f8bcd06a94c8ca8e9c8482dc67e83a447ab4d016b5042102d916aaf243cfd0c81702d412c9f637e3f95ac1df612651bc0520163854128d86210368e0350723b590d1e1097790b7b7c9d5c00073c5a5408b202753839f14e4c71e53ae00000000", "vin": [{"txinwitness": ["", "3045022100f77b1922835251091f86f075a1cb9da1cc4e5008e62b65c74d1c5f6703fbad56022076d5aa517c30ed2e9a3d059b30bf9c228cdb7f8b8b675f66e08f116ee5e24d7301", "304402207270fcc040aa7ab4ea6814e0ec9cb725575b9203c525e73a8482025fed5ed162022019f425717c712c2e4fda762322e018f782e86f965e5eb85d6ac272184f1dc61d01", "522102cef934b66607d3cea5d8f8bcd06a94c8ca8e9c8482dc67e83a447ab4d016b5042102d916aaf243cfd0c81702d412c9f637e3f95ac1df612651bc0520163854128d86210368e0350723b590d1e1097790b7b7c9d5c00073c5a5408b202753839f14e4c71e53ae"], "sequence": 4294967295, "scriptSig": {"hex": "2200208fc78ae66e2e01c9d07b37ad720ec769fb1cca16ae156ef3cc6bb57fd741fe4e", "asm": "00208fc78ae66e2e01c9d07b37ad720ec769fb1cca16ae156ef3cc6bb57fd741fe4e"}, "vout": 1, "txid": "da33bec993986e942602155c9a83c6b76415e818b361c32b590c9d030fce79c7"}], "txid": "d15c0d9785d5d3aef5a47bbf7a0066a93eb6f088d68e242682e85ca630075b82", "blocktime": 1537870268, "version": 1, "confirmations": 11518, "time": 1537870268, "locktime": 0, "vsize": 214, "size": 405}