{"hash": "d15c8c0f412ce29eb6784e2f24ae01775d79b81b90517b229b32b5a73c151f77", "blockhash": "00000000000000000004ffacab907a6b429b9a5745fa0b75af4234bf69dd7176", "vout": [{"scriptPubKey": {"reqSigs": 1, "hex": "76a914b01fdf76bb6e1821fdc88df299153b2288fa799288ac", "addresses": ["1H4G7LAdbCC8eEzEo5TkNEvhjMnYT8ddjm"], "asm": "OP_DUP OP_HASH160 b01fdf76bb6e1821fdc88df299153b2288fa7992 OP_EQUALVERIFY OP_CHECKSIG", "type": "pubkeyhash"}, "value": 0.00868504, "n": 0}], "hex": "0100000001959944c59dfbef1af41cf68c38b6fefd3f27fac86ea51b79728f0ff180ad87df000000006a47304402207de6c9dafdb4668fcbf46e990629a7424c7f9d53c998a7cbcad5ad6dcbbfe57f022066f89086127b8c3c635bbd4b64bbe3e0055458a4bf7545411f88e570c2c2c82e012103c8bbfc222fa66fd6195704cc830ec395a74e2e9da4cb3d47c27d3ed50efcf7edffffffff0198400d00000000001976a914b01fdf76bb6e1821fdc88df299153b2288fa799288ac00000000", "vin": [{"sequence": 4294967295, "scriptSig": {"hex": "47304402207de6c9dafdb4668fcbf46e990629a7424c7f9d53c998a7cbcad5ad6dcbbfe57f022066f89086127b8c3c635bbd4b64bbe3e0055458a4bf7545411f88e570c2c2c82e012103c8bbfc222fa66fd6195704cc830ec395a74e2e9da4cb3d47c27d3ed50efcf7ed", "asm": "304402207de6c9dafdb4668fcbf46e990629a7424c7f9d53c998a7cbcad5ad6dcbbfe57f022066f89086127b8c3c635bbd4b64bbe3e0055458a4bf7545411f88e570c2c2c82e[ALL] 03c8bbfc222fa66fd6195704cc830ec395a74e2e9da4cb3d47c27d3ed50efcf7ed"}, "vout": 0, "txid": "df87ad80f10f8f72791ba56ec8fa273ffdfeb6388cf61cf41aeffb9dc5449995"}], "txid": "d15c8c0f412ce29eb6784e2f24ae01775d79b81b90517b229b32b5a73c151f77", "blocktime": 1537875543, "version": 1, "confirmations": 11464, "time": 1537875543, "locktime": 0, "vsize": 191, "size": 191}