{"hash": "28cd2775b9378481249e16ac3ee99ef5ad6ea3a2ecc729ec4364d421ddd21b14", "blockhash": "0000000000000000000e13cef7c366c0283d82e591d1acd082e914b08063cdf1", "vout": [{"scriptPubKey": {"reqSigs": 1, "hex": "76a9140ccd1ecb61308e06c761c4a856553c84a75ada6188ac", "addresses": ["12AgqJxanTkC5yRjUfmgPcoyTCtEHMcQkZ"], "asm": "OP_DUP OP_HASH160 0ccd1ecb61308e06c761c4a856553c84a75ada61 OP_EQUALVERIFY OP_CHECKSIG", "type": "pubkeyhash"}, "value": 0.02737, "n": 0}, {"scriptPubKey": {"reqSigs": 1, "hex": "a91407dc6ebb26e473c11cdcbb1edf720f741ee8c2cc87", "addresses": ["32QaiopxLxgRwqqYL7Q6RT4Ep4ugcNFeC2"], "asm": "OP_HASH160 07dc6ebb26e473c11cdcbb1edf720f741ee8c2cc OP_EQUAL", "type": "scripthash"}, "value": 0.01007829, "n": 1}], "hex": "020000000001026ebae0ce0ae2ef51d1469a72b32406a46bcad406bc20ae62919fc3b92d25e4910100000017160014641e8e28fa270acb54af69ea7f0adb9032b3b8ccfeffffff8385f291de79ddfc51f5c6c156552f9456ec73bb594ecdd8ca7a277a23dd14100000000017160014a7dabddfe9534569d2c7f9a09b6462b9e9213914feffffff0268c32900000000001976a9140ccd1ecb61308e06c761c4a856553c84a75ada6188acd5600f000000000017a91407dc6ebb26e473c11cdcbb1edf720f741ee8c2cc8702473044022001b69f6b7d1aff29f619d7dc7cbbf725aad296adc9df3d6db3af0c11a7cd4aa50220280817238512408b1ef34f0d5ece35f0d5882fa5e82fe3f7ae2b4a1333dcff230121033cb19e7878e891a9878151a6369ac0b286461de9edec8efa9dd63eb731e2d94b02483045022100e7a36aa0a6e7cf1386787e10eddebcd53b68c826f941b18108947c12d559c3a902205925a14b547eb20650ad8b4304c6a9b6a35ea8b6945e31979d74cd0657bc5400012103c2b37d96a423c694fe2b09f0025184739416e626ac1060b0529d5faae06b04ccc7480800", "vin": [{"txinwitness": ["3044022001b69f6b7d1aff29f619d7dc7cbbf725aad296adc9df3d6db3af0c11a7cd4aa50220280817238512408b1ef34f0d5ece35f0d5882fa5e82fe3f7ae2b4a1333dcff2301", "033cb19e7878e891a9878151a6369ac0b286461de9edec8efa9dd63eb731e2d94b"], "sequence": 4294967294, "scriptSig": {"hex": "160014641e8e28fa270acb54af69ea7f0adb9032b3b8cc", "asm": "0014641e8e28fa270acb54af69ea7f0adb9032b3b8cc"}, "vout": 1, "txid": "91e4252db9c39f9162ae20bc06d4ca6ba40624b3729a46d151efe20acee0ba6e"}, {"txinwitness": ["3045022100e7a36aa0a6e7cf1386787e10eddebcd53b68c826f941b18108947c12d559c3a902205925a14b547eb20650ad8b4304c6a9b6a35ea8b6945e31979d74cd0657bc540001", "03c2b37d96a423c694fe2b09f0025184739416e626ac1060b0529d5faae06b04cc"], "sequence": 4294967294, "scriptSig": {"hex": "160014a7dabddfe9534569d2c7f9a09b6462b9e9213914", "asm": "0014a7dabddfe9534569d2c7f9a09b6462b9e9213914"}, "vout": 0, "txid": "1014dd237a277acad8cd4e59bb73ec56942f5556c1c6f551fcdd79de91f28583"}], "txid": "d15f556410f0d7de47bfb3177ac4ff5b170825669b38645b007ee8deb8d0752c", "blocktime": 1537871767, "version": 2, "confirmations": 11495, "time": 1537871767, "locktime": 542919, "vsize": 259, "size": 421}