{"hash": "d15f6e954ed9ee2807a1cca15d4024ba55dc5d8703fef5560d4714a4b72a4431", "blockhash": "0000000000000000001e0dab787dd257d1dbfcb92a98c2207d5e1078be1f4165", "vout": [{"scriptPubKey": {"reqSigs": 1, "hex": "76a914dda855390bf11d7f9edd8ac2d8c969612276530c88ac", "addresses": ["1MD1zNSG6VbTToA8Tba5fAmsoyvEteNnmo"], "asm": "OP_DUP OP_HASH160 dda855390bf11d7f9edd8ac2d8c969612276530c OP_EQUALVERIFY OP_CHECKSIG", "type": "pubkeyhash"}, "value": 0.01375391, "n": 0}, {"scriptPubKey": {"reqSigs": 1, "hex": "76a9142a2fbeb938fad8bdaf06c2627ec1a40592ddbc0e88ac", "addresses": ["14r4aSSRb4iDgFnL4DDPXSiRubVdsZYYTH"], "asm": "OP_DUP OP_HASH160 2a2fbeb938fad8bdaf06c2627ec1a40592ddbc0e OP_EQUALVERIFY OP_CHECKSIG", "type": "pubkeyhash"}, "value": 2.21362535, "n": 1}], "hex": "0100000001d0f0921dbb9dc95b2e8cde190174977fd39bd257761fd7ba5d02c1e890f57416010000006a473044022040696da01f5dd2a55242519311dd35b89be7012b30090d6f727311a57e1a788b02202a3c0e52286d98463f7146d1450748efbed64e26d7f48fb0dce560de351d863e012102854cfdd5a22491172982002579bfa1074430752e8ea797f461cf396bb475b93effffffff029ffc1400000000001976a914dda855390bf11d7f9edd8ac2d8c969612276530c88ac67b9310d000000001976a9142a2fbeb938fad8bdaf06c2627ec1a40592ddbc0e88ac00000000", "vin": [{"sequence": 4294967295, "scriptSig": {"hex": "473044022040696da01f5dd2a55242519311dd35b89be7012b30090d6f727311a57e1a788b02202a3c0e52286d98463f7146d1450748efbed64e26d7f48fb0dce560de351d863e012102854cfdd5a22491172982002579bfa1074430752e8ea797f461cf396bb475b93e", "asm": "3044022040696da01f5dd2a55242519311dd35b89be7012b30090d6f727311a57e1a788b02202a3c0e52286d98463f7146d1450748efbed64e26d7f48fb0dce560de351d863e[ALL] 02854cfdd5a22491172982002579bfa1074430752e8ea797f461cf396bb475b93e"}, "vout": 1, "txid": "1674f590e8c1025dbad71f7657d29bd37f97740119de8c2e5bc99dbb1d92f0d0"}], "txid": "d15f6e954ed9ee2807a1cca15d4024ba55dc5d8703fef5560d4714a4b72a4431", "blocktime": 1537872475, "version": 1, "confirmations": 11487, "time": 1537872475, "locktime": 0, "vsize": 225, "size": 225}