{"hash": "d1642653c63a4aea2b2fd154dd8a8554cea61254bb4481b0a615a0ba9aee592b", "blockhash": "0000000000000000001f76057863aec43deb6fa401d9628bb513d65a8098bfab", "vout": [{"scriptPubKey": {"reqSigs": 1, "hex": "76a914088a907db8fb9fc4a57cda1fe5360eeeefeb3e7988ac", "addresses": ["1nAQAEbsqZZSuyHaZkUjnz4ncLvTUqdz9"], "asm": "OP_DUP OP_HASH160 088a907db8fb9fc4a57cda1fe5360eeeefeb3e79 OP_EQUALVERIFY OP_CHECKSIG", "type": "pubkeyhash"}, "value": 0.0005125, "n": 0}, {"scriptPubKey": {"reqSigs": 1, "hex": "a914720072369e7a8d2fe17caa855b111a9c8b05171487", "addresses": ["3C5oVQoUXMPMUGR8GBWUbAhnbBsrSmdmTX"], "asm": "OP_HASH160 720072369e7a8d2fe17caa855b111a9c8b051714 OP_EQUAL", "type": "scripthash"}, "value": 0.0036336, "n": 1}], "hex": "01000000015ed94e91531a176275faf79666aa240cd99ab7873509b684528dbbed8e133929000000006a473044022040d7179bbe5bd928f21b412fa9c4dc962f805dad109821ed48d17d1f77a96b7c02207f407ac2ae93dd3fef7e0eadc41dd922e0470979e441565fe816d6ce6287ac6101210344f72fafd170fdbe4954361f288d275357dc728b72599aaaaaf37162ecd6fa82ffffffff0232c80000000000001976a914088a907db8fb9fc4a57cda1fe5360eeeefeb3e7988ac608b05000000000017a914720072369e7a8d2fe17caa855b111a9c8b0517148700000000", "vin": [{"sequence": 4294967295, "scriptSig": {"hex": "473044022040d7179bbe5bd928f21b412fa9c4dc962f805dad109821ed48d17d1f77a96b7c02207f407ac2ae93dd3fef7e0eadc41dd922e0470979e441565fe816d6ce6287ac6101210344f72fafd170fdbe4954361f288d275357dc728b72599aaaaaf37162ecd6fa82", "asm": "3044022040d7179bbe5bd928f21b412fa9c4dc962f805dad109821ed48d17d1f77a96b7c02207f407ac2ae93dd3fef7e0eadc41dd922e0470979e441565fe816d6ce6287ac61[ALL] 0344f72fafd170fdbe4954361f288d275357dc728b72599aaaaaf37162ecd6fa82"}, "vout": 0, "txid": "2939138eedbb8d5284b6093587b79ad90c24aa6696f7fa7562171a53914ed95e"}], "txid": "d1642653c63a4aea2b2fd154dd8a8554cea61254bb4481b0a615a0ba9aee592b", "blocktime": 1537873891, "version": 1, "confirmations": 11475, "time": 1537873891, "locktime": 0, "vsize": 223, "size": 223}