{"hash": "d169d71c33d3eaf539b2bc2160bc43cc9c6798e924bb66e493f9248410121813", "blockhash": "00000000000000000018f53835495a110e01622372bf6ae95dc86f2b0ab887b0", "vout": [{"scriptPubKey": {"reqSigs": 1, "hex": "a91472d79e460b316c9e479c1030fa6ffbee3a87a0fb87", "addresses": ["3CAFFqBTFT4swfZBHXHh3Bd9EitPBEAUwU"], "asm": "OP_HASH160 72d79e460b316c9e479c1030fa6ffbee3a87a0fb OP_EQUAL", "type": "scripthash"}, "value": 0.00043, "n": 0}, {"scriptPubKey": {"reqSigs": 1, "hex": "76a9147d40e1f77f3d70a3a97c2cea22b8d0ffbb594ba088ac", "addresses": ["1CRHC7BiPcRTgTUp7b1SALPBa5sq65dhRD"], "asm": "OP_DUP OP_HASH160 7d40e1f77f3d70a3a97c2cea22b8d0ffbb594ba0 OP_EQUALVERIFY OP_CHECKSIG", "type": "pubkeyhash"}, "value": 0.00057458, "n": 1}], "hex": "01000000018f1be72b730c0103e38f07cfa59fd7a2616858a79a6fc71cc9aea07f44f8f6de010000006a47304402204297ebe205473220f964d7d7a4449215a4c6f74854b7fb4484e330cc81e6a0ec02205ae89ca14982ff613b9aed1f33179734b4f814492d98e66860f1f173d2f1a9580121038533cec400155fed411682c175bc2dbd3966bbdd2c78434a7292484d174eecb1ffffffff02f8a700000000000017a91472d79e460b316c9e479c1030fa6ffbee3a87a0fb8772e00000000000001976a9147d40e1f77f3d70a3a97c2cea22b8d0ffbb594ba088ac00000000", "vin": [{"sequence": 4294967295, "scriptSig": {"hex": "47304402204297ebe205473220f964d7d7a4449215a4c6f74854b7fb4484e330cc81e6a0ec02205ae89ca14982ff613b9aed1f33179734b4f814492d98e66860f1f173d2f1a9580121038533cec400155fed411682c175bc2dbd3966bbdd2c78434a7292484d174eecb1", "asm": "304402204297ebe205473220f964d7d7a4449215a4c6f74854b7fb4484e330cc81e6a0ec02205ae89ca14982ff613b9aed1f33179734b4f814492d98e66860f1f173d2f1a958[ALL] 038533cec400155fed411682c175bc2dbd3966bbdd2c78434a7292484d174eecb1"}, "vout": 1, "txid": "def6f8447fa0aec91cc76f9aa7586861a2d79fa5cf078fe303010c732be71b8f"}], "txid": "d169d71c33d3eaf539b2bc2160bc43cc9c6798e924bb66e493f9248410121813", "blocktime": 1537870928, "version": 1, "confirmations": 11512, "time": 1537870928, "locktime": 0, "vsize": 223, "size": 223}