{"hash": "d16c4cfabd76c6b6fa76a5a99b1a2573f5240139aed5304095250c15481fac7f", "blockhash": "0000000000000000001cda96e906b7601b7a6fb1a3b62bca570a9e5d8f4b3de1", "vout": [{"scriptPubKey": {"reqSigs": 1, "hex": "76a91487a9a34be1ad95227339dfc1a9ffea9062acbff488ac", "addresses": ["1DNKSYX2J5jGAmA7brjFXbHoHt33nKBcTt"], "asm": "OP_DUP OP_HASH160 87a9a34be1ad95227339dfc1a9ffea9062acbff4 OP_EQUALVERIFY OP_CHECKSIG", "type": "pubkeyhash"}, "value": 0.02283642, "n": 0}, {"scriptPubKey": {"reqSigs": 1, "hex": "a91407a79b55e91eb0b48cbf23709d7a6b04892e037287", "addresses": ["32PVSQijsjnKDGy4jFaqu3P7Rx3rqtpbHp"], "asm": "OP_HASH160 07a79b55e91eb0b48cbf23709d7a6b04892e0372 OP_EQUAL", "type": "scripthash"}, "value": 0.02978425, "n": 1}, {"scriptPubKey": {"reqSigs": 1, "hex": "76a91443849383122ebb8a28268a89700c9f723663b5b888ac", "addresses": ["17A16QmavnUfCW11DAApiJxp7ARnxN5pGX"], "asm": "OP_DUP OP_HASH160 43849383122ebb8a28268a89700c9f723663b5b8 OP_EQUALVERIFY OP_CHECKSIG", "type": "pubkeyhash"}, "value": 132.17788615, "n": 2}], "hex": "0200000001b93d0f4dccdf12f122490f6a48d4c119e1d3cd58d8b7ac82a9fd625dcfc8302b040000008a47304402201145a39ec6cc5d9e9c09b169ce0393b9da28d40136004aa93a27b3e1f8fbb0b002205b8abe1d17a250cc335d5c0cb958cc10fd5d69cd230fca52eb327df1f8d721130141047146f0e0fcb3139947cf0beb870fe251930ca10d4545793d31033e801b5219abf56c11a3cf3406ca590e4c14b0dab749d20862b3adc4709153c280c2a78be10cffffffff037ad82200000000001976a91487a9a34be1ad95227339dfc1a9ffea9062acbff488ac79722d000000000017a91407a79b55e91eb0b48cbf23709d7a6b04892e037287c772d713030000001976a91443849383122ebb8a28268a89700c9f723663b5b888ac00000000", "vin": [{"sequence": 4294967295, "scriptSig": {"hex": "47304402201145a39ec6cc5d9e9c09b169ce0393b9da28d40136004aa93a27b3e1f8fbb0b002205b8abe1d17a250cc335d5c0cb958cc10fd5d69cd230fca52eb327df1f8d721130141047146f0e0fcb3139947cf0beb870fe251930ca10d4545793d31033e801b5219abf56c11a3cf3406ca590e4c14b0dab749d20862b3adc4709153c280c2a78be10c", "asm": "304402201145a39ec6cc5d9e9c09b169ce0393b9da28d40136004aa93a27b3e1f8fbb0b002205b8abe1d17a250cc335d5c0cb958cc10fd5d69cd230fca52eb327df1f8d72113[ALL] 047146f0e0fcb3139947cf0beb870fe251930ca10d4545793d31033e801b5219abf56c11a3cf3406ca590e4c14b0dab749d20862b3adc4709153c280c2a78be10c"}, "vout": 4, "txid": "2b30c8cf5d62fda982acb7d858cdd3e119c1d4486a0f4922f112dfcc4d0f3db9"}], "txid": "d16c4cfabd76c6b6fa76a5a99b1a2573f5240139aed5304095250c15481fac7f", "blocktime": 1537873282, "version": 2, "confirmations": 11480, "time": 1537873282, "locktime": 0, "vsize": 289, "size": 289}