{"hash": "d1715cc04e9d70f9998cf34b372fb0ee2b06a5da11da71e5cd7495198b6232dc", "blockhash": "00000000000000000017f5eb5941039fbcee6240d03bc1f2f8e35350df66a1d8", "vout": [{"scriptPubKey": {"reqSigs": 1, "hex": "a91464e17d37af264be3a6667309b69df80688e9e18587", "addresses": ["3AtRczA6J7JatFfit8jpPpVEU8QSABkma8"], "asm": "OP_HASH160 64e17d37af264be3a6667309b69df80688e9e185 OP_EQUAL", "type": "scripthash"}, "value": 0.44324164, "n": 0}], "hex": "010000000464770c72a17c4fae278a88dda3184f118d2a6b47eb24f24ff60c0a2234f04812040000006a47304402205e175028a114565acbdc40645fbc39aac6bbebc343e2195da5acaef10b16651c0220183938854977ffec99b34452fca48e639f5604856877a784748caa2e21685067012103e0fe25fe35ded2e8ef54740cb855ea5478b6d71d036e88982553249ab56afdc5ffffffff64770c72a17c4fae278a88dda3184f118d2a6b47eb24f24ff60c0a2234f048120d0000006a47304402203845d4eeaa99a801ab5c65afab62728057b9543e3732807b469645fcbc18bccb022046b89cf2740dabfda31c16041bf3d255b4a8d7b244e9a4f7ebcd31452f32b338012102a6c043f4aa0ad6e841b811dec26a3cb1be166aea3096a287124f05fdf2bf0b0dffffffffc4b89614dfa1f6df43a6f533ea998828833524e572a996616fbe4ff336374818010000006b483045022100e15ed36ad27e84b17a5c7ea593540fd3b78cc7d0c3c92dce09d45c13add30b70022015dc9aa6e9feb14326a73f55a9c3187dc8fb848841fdec1bebf99b22806d82810121038bc6b0ee8066ac6dff8efe2e4ac6885763ca09b347640a1f0df9c28819355beeffffffffaf717c9544a69c9f2ce079c23c66a239b516687697a5df7b46aa4da8837027b0000000006b483045022100fd941ae3e4b5b425127a6f21ddbc7801234435f9d6114ce0110140dbc45a2a4f02203aba370951828357d7b9032ec8aa2af106abddc5e0c5b0924637c82011631b7d012103119a954c0318f25531ba17bc82f1804e26199d2ba9cae9bfee4e396cdd4aba60ffffffff014455a4020000000017a91464e17d37af264be3a6667309b69df80688e9e1858700000000", "vin": [{"sequence": 4294967295, "scriptSig": {"hex": "47304402205e175028a114565acbdc40645fbc39aac6bbebc343e2195da5acaef10b16651c0220183938854977ffec99b34452fca48e639f5604856877a784748caa2e21685067012103e0fe25fe35ded2e8ef54740cb855ea5478b6d71d036e88982553249ab56afdc5", "asm": "304402205e175028a114565acbdc40645fbc39aac6bbebc343e2195da5acaef10b16651c0220183938854977ffec99b34452fca48e639f5604856877a784748caa2e21685067[ALL] 03e0fe25fe35ded2e8ef54740cb855ea5478b6d71d036e88982553249ab56afdc5"}, "vout": 4, "txid": "1248f034220a0cf64ff224eb476b2a8d114f18a3dd888a27ae4f7ca1720c7764"}, {"sequence": 4294967295, "scriptSig": {"hex": "47304402203845d4eeaa99a801ab5c65afab62728057b9543e3732807b469645fcbc18bccb022046b89cf2740dabfda31c16041bf3d255b4a8d7b244e9a4f7ebcd31452f32b338012102a6c043f4aa0ad6e841b811dec26a3cb1be166aea3096a287124f05fdf2bf0b0d", "asm": "304402203845d4eeaa99a801ab5c65afab62728057b9543e3732807b469645fcbc18bccb022046b89cf2740dabfda31c16041bf3d255b4a8d7b244e9a4f7ebcd31452f32b338[ALL] 02a6c043f4aa0ad6e841b811dec26a3cb1be166aea3096a287124f05fdf2bf0b0d"}, "vout": 13, "txid": "1248f034220a0cf64ff224eb476b2a8d114f18a3dd888a27ae4f7ca1720c7764"}, {"sequence": 4294967295, "scriptSig": {"hex": "483045022100e15ed36ad27e84b17a5c7ea593540fd3b78cc7d0c3c92dce09d45c13add30b70022015dc9aa6e9feb14326a73f55a9c3187dc8fb848841fdec1bebf99b22806d82810121038bc6b0ee8066ac6dff8efe2e4ac6885763ca09b347640a1f0df9c28819355bee", "asm": "3045022100e15ed36ad27e84b17a5c7ea593540fd3b78cc7d0c3c92dce09d45c13add30b70022015dc9aa6e9feb14326a73f55a9c3187dc8fb848841fdec1bebf99b22806d8281[ALL] 038bc6b0ee8066ac6dff8efe2e4ac6885763ca09b347640a1f0df9c28819355bee"}, "vout": 1, "txid": "18483736f34fbe6f6196a972e5243583288899ea33f5a643dff6a1df1496b8c4"}, {"sequence": 4294967295, "scriptSig": {"hex": "483045022100fd941ae3e4b5b425127a6f21ddbc7801234435f9d6114ce0110140dbc45a2a4f02203aba370951828357d7b9032ec8aa2af106abddc5e0c5b0924637c82011631b7d012103119a954c0318f25531ba17bc82f1804e26199d2ba9cae9bfee4e396cdd4aba60", "asm": "3045022100fd941ae3e4b5b425127a6f21ddbc7801234435f9d6114ce0110140dbc45a2a4f02203aba370951828357d7b9032ec8aa2af106abddc5e0c5b0924637c82011631b7d[ALL] 03119a954c0318f25531ba17bc82f1804e26199d2ba9cae9bfee4e396cdd4aba60"}, "vout": 0, "txid": "b0277083a84daa467bdfa597766816b539a2663cc279e02c9f9ca644957c71af"}], "txid": "d1715cc04e9d70f9998cf34b372fb0ee2b06a5da11da71e5cd7495198b6232dc", "blocktime": 1537874412, "version": 1, "confirmations": 11467, "time": 1537874412, "locktime": 0, "vsize": 632, "size": 632}