{"hash": "d171f4ff2962e3f21683e5572bb370b6ad44eaad08edae728746554340da3c39", "blockhash": "000000000000000000022b45ed06c6f4ccd3cf7fb5ba4856ebd2e58215665228", "vout": [{"scriptPubKey": {"reqSigs": 1, "hex": "76a9144a0f1e2f2b0d7daeec5265f10bbbbe08ed725e8988ac", "addresses": ["17kb7c9ndg7ioSuzMWEHWECdEVUegNkcGc"], "asm": "OP_DUP OP_HASH160 4a0f1e2f2b0d7daeec5265f10bbbbe08ed725e89 OP_EQUALVERIFY OP_CHECKSIG", "type": "pubkeyhash"}, "value": 0.00120497, "n": 0}], "hex": "0100000001f55fc53d5eb321554e764a4cc80a8f955cdf4173efdaa5b07ba545daf34f7558050000006b483045022100e58c76785c2953060a9309b089b3140815f23870fe45cc62ee1cd01c0cb7fc2802207a7968859e41dc18c578cbe55acb2c03f4191929a92c9b239f1d68bead7af11f0121038df6eede1ecb69263ea8795fedb9ef9c8ef3a29afa36a60f0a0593068a0c8131ffffffff01b1d60100000000001976a9144a0f1e2f2b0d7daeec5265f10bbbbe08ed725e8988ac00000000", "vin": [{"sequence": 4294967295, "scriptSig": {"hex": "483045022100e58c76785c2953060a9309b089b3140815f23870fe45cc62ee1cd01c0cb7fc2802207a7968859e41dc18c578cbe55acb2c03f4191929a92c9b239f1d68bead7af11f0121038df6eede1ecb69263ea8795fedb9ef9c8ef3a29afa36a60f0a0593068a0c8131", "asm": "3045022100e58c76785c2953060a9309b089b3140815f23870fe45cc62ee1cd01c0cb7fc2802207a7968859e41dc18c578cbe55acb2c03f4191929a92c9b239f1d68bead7af11f[ALL] 038df6eede1ecb69263ea8795fedb9ef9c8ef3a29afa36a60f0a0593068a0c8131"}, "vout": 5, "txid": "58754ff3da45a57bb0a5daef7341df5c958f0ac84c4a764e5521b35e3dc55ff5"}], "txid": "d171f4ff2962e3f21683e5572bb370b6ad44eaad08edae728746554340da3c39", "blocktime": 1537869901, "version": 1, "confirmations": 11522, "time": 1537869901, "locktime": 0, "vsize": 192, "size": 192}