{"hash": "d172c66cf06800db58b5e9eec6fe888b426c113e1708f153250c89c9416e0693", "blockhash": "00000000000000000017f5eb5941039fbcee6240d03bc1f2f8e35350df66a1d8", "vout": [{"scriptPubKey": {"reqSigs": 1, "hex": "a9145fbcc837567595fbffa6a1c22bd079f02f1069a087", "addresses": ["3AREGaT1ivdWH7kdzuriUGed2JfjeVtM36"], "asm": "OP_HASH160 5fbcc837567595fbffa6a1c22bd079f02f1069a0 OP_EQUAL", "type": "scripthash"}, "value": 0.01157, "n": 0}, {"scriptPubKey": {"reqSigs": 1, "hex": "76a9149646c30e384c082113d5a4ee77d37952056303be88ac", "addresses": ["1Ehb8QCmsNovKSuRswpXneSuuFPgXFKEpJ"], "asm": "OP_DUP OP_HASH160 9646c30e384c082113d5a4ee77d37952056303be OP_EQUALVERIFY OP_CHECKSIG", "type": "pubkeyhash"}, "value": 0.05699843, "n": 1}], "hex": "0100000001569ee2037bf766ef113129f5d4359816012efd91be75dd523177fb238a91df1a010000006b48304502210098669b22450ea73a869db3a56c021af740cc06816f6152507ac88e9eddceb7de02204989531736c3302e47254c3522360395f19c9d53a3134b46f3c173879fce0f78012102f7482d3dd35aa377ad8489c2df632674a12c9cb595bc0eabd5f60c9ac3cb602effffffff0288a711000000000017a9145fbcc837567595fbffa6a1c22bd079f02f1069a08703f95600000000001976a9149646c30e384c082113d5a4ee77d37952056303be88ac00000000", "vin": [{"sequence": 4294967295, "scriptSig": {"hex": "48304502210098669b22450ea73a869db3a56c021af740cc06816f6152507ac88e9eddceb7de02204989531736c3302e47254c3522360395f19c9d53a3134b46f3c173879fce0f78012102f7482d3dd35aa377ad8489c2df632674a12c9cb595bc0eabd5f60c9ac3cb602e", "asm": "304502210098669b22450ea73a869db3a56c021af740cc06816f6152507ac88e9eddceb7de02204989531736c3302e47254c3522360395f19c9d53a3134b46f3c173879fce0f78[ALL] 02f7482d3dd35aa377ad8489c2df632674a12c9cb595bc0eabd5f60c9ac3cb602e"}, "vout": 1, "txid": "1adf918a23fb773152dd75be91fd2e01169835d4f5293111ef66f77b03e29e56"}], "txid": "d172c66cf06800db58b5e9eec6fe888b426c113e1708f153250c89c9416e0693", "blocktime": 1537874412, "version": 1, "confirmations": 11467, "time": 1537874412, "locktime": 0, "vsize": 224, "size": 224}