{"hash": "d17977061d0615a2c589772ef0fe56b9ed8b152afad7f67024b8006ec2cc36ff", "blockhash": "00000000000000000004ffacab907a6b429b9a5745fa0b75af4234bf69dd7176", "vout": [{"scriptPubKey": {"reqSigs": 1, "hex": "a914f7a5531d17d9e4d4346acd0d8fdcdf6b9ad725eb87", "addresses": ["3QGSstGkjXRYW1zzSAmUESXxyjSnVuDL7s"], "asm": "OP_HASH160 f7a5531d17d9e4d4346acd0d8fdcdf6b9ad725eb OP_EQUAL", "type": "scripthash"}, "value": 0.213, "n": 0}, {"scriptPubKey": {"reqSigs": 1, "hex": "76a914295b998b23a7e8e2fbb9c5dea6b238ec44bb398e88ac", "addresses": ["14mgSL6jyU6P8zmAV6SNQsD5Bp9R2dkgzW"], "asm": "OP_DUP OP_HASH160 295b998b23a7e8e2fbb9c5dea6b238ec44bb398e OP_EQUALVERIFY OP_CHECKSIG", "type": "pubkeyhash"}, "value": 0.00080608, "n": 1}], "hex": "0100000004054b0ed5fffa1492ed93255c6bf3785f71e9da79c6acb3acb13d65ff261b3d09170000008b483045022100ff4d8eba7589a63dc661f1a12d81ff01eefe5257b1c7327466830a96cc585bf102206cde98b8f1034de441e46367cef7ee9165170a251dc8015e4b5059d42a5d5d4e014104ed8cc6632d6f8300df6d375559284a53a2304b18e1f7d05f742184254f81d705a091a1a917525efddbbd5fb86221f4b8fae04daa900db36d4ac507fe8623f890ffffffff9ed12308acc390eb5c390c36e6384e49cb71f33b4861efe3cb89286a29674aee270400008b48304502210098121cbe46fedcdd62965f9ad75491653551ef52e456653447198a982541578f022032e58be9a2ee21392a1ada29c3f369eabb970097ae8118db6d53bfaa201a4fff01410404814f6317373f8e88df93197386b44e03901eadd046bf79995b5d38e80d16bb052ab063f74f2d1bf077cf972ad1e6dab1969e61bf1a2733794a285467282d44ffffffff054b0ed5fffa1492ed93255c6bf3785f71e9da79c6acb3acb13d65ff261b3d094d0000008a473044022042cb7d42c294878b66d1d9e791782c08b47584b8d51d7033edcdbb124181504e02202af61725173949ff96ac8ae79e8253a53853c766db70356f6327bb18f4df82ea014104ad6070d6f222c8c36996e68b4282e46736c0325a568777fbc8493f6fe0e74dfa19bf65b7d5a2e1bbdfe21eef21530b8dadd6e67ab6c6e62c8b5501a26a9c857dffffffff44959a3f831551f8db6764f92a12daa2ba94cb07450ada889809449cd0058071ae0100008b483045022100ec5c6425464a3cf3bcc8bf4402e387ee7c9e32bf89d982026562f3332104ca820220486715d63cebaf63b7708a3911a8f324b21a08755537ba30a759e14c4217bafb014104683348431ed4ad12bc43353129ab620cebc9885c05cb00e58baa49704e7732855d52a9881cb68b5acbdc640a2960ba5b54dec0e2855c0a0778cdf62466c23ee1ffffffff02200345010000000017a914f7a5531d17d9e4d4346acd0d8fdcdf6b9ad725eb87e03a0100000000001976a914295b998b23a7e8e2fbb9c5dea6b238ec44bb398e88ac00000000", "vin": [{"sequence": 4294967295, "scriptSig": {"hex": "483045022100ff4d8eba7589a63dc661f1a12d81ff01eefe5257b1c7327466830a96cc585bf102206cde98b8f1034de441e46367cef7ee9165170a251dc8015e4b5059d42a5d5d4e014104ed8cc6632d6f8300df6d375559284a53a2304b18e1f7d05f742184254f81d705a091a1a917525efddbbd5fb86221f4b8fae04daa900db36d4ac507fe8623f890", "asm": "3045022100ff4d8eba7589a63dc661f1a12d81ff01eefe5257b1c7327466830a96cc585bf102206cde98b8f1034de441e46367cef7ee9165170a251dc8015e4b5059d42a5d5d4e[ALL] 04ed8cc6632d6f8300df6d375559284a53a2304b18e1f7d05f742184254f81d705a091a1a917525efddbbd5fb86221f4b8fae04daa900db36d4ac507fe8623f890"}, "vout": 23, "txid": "093d1b26ff653db1acb3acc679dae9715f78f36b5c2593ed9214faffd50e4b05"}, {"sequence": 4294967295, "scriptSig": {"hex": "48304502210098121cbe46fedcdd62965f9ad75491653551ef52e456653447198a982541578f022032e58be9a2ee21392a1ada29c3f369eabb970097ae8118db6d53bfaa201a4fff01410404814f6317373f8e88df93197386b44e03901eadd046bf79995b5d38e80d16bb052ab063f74f2d1bf077cf972ad1e6dab1969e61bf1a2733794a285467282d44", "asm": "304502210098121cbe46fedcdd62965f9ad75491653551ef52e456653447198a982541578f022032e58be9a2ee21392a1ada29c3f369eabb970097ae8118db6d53bfaa201a4fff[ALL] 0404814f6317373f8e88df93197386b44e03901eadd046bf79995b5d38e80d16bb052ab063f74f2d1bf077cf972ad1e6dab1969e61bf1a2733794a285467282d44"}, "vout": 1063, "txid": "ee4a67296a2889cbe3ef61483bf371cb494e38e6360c395ceb90c3ac0823d19e"}, {"sequence": 4294967295, "scriptSig": {"hex": "473044022042cb7d42c294878b66d1d9e791782c08b47584b8d51d7033edcdbb124181504e02202af61725173949ff96ac8ae79e8253a53853c766db70356f6327bb18f4df82ea014104ad6070d6f222c8c36996e68b4282e46736c0325a568777fbc8493f6fe0e74dfa19bf65b7d5a2e1bbdfe21eef21530b8dadd6e67ab6c6e62c8b5501a26a9c857d", "asm": "3044022042cb7d42c294878b66d1d9e791782c08b47584b8d51d7033edcdbb124181504e02202af61725173949ff96ac8ae79e8253a53853c766db70356f6327bb18f4df82ea[ALL] 04ad6070d6f222c8c36996e68b4282e46736c0325a568777fbc8493f6fe0e74dfa19bf65b7d5a2e1bbdfe21eef21530b8dadd6e67ab6c6e62c8b5501a26a9c857d"}, "vout": 77, "txid": "093d1b26ff653db1acb3acc679dae9715f78f36b5c2593ed9214faffd50e4b05"}, {"sequence": 4294967295, "scriptSig": {"hex": "483045022100ec5c6425464a3cf3bcc8bf4402e387ee7c9e32bf89d982026562f3332104ca820220486715d63cebaf63b7708a3911a8f324b21a08755537ba30a759e14c4217bafb014104683348431ed4ad12bc43353129ab620cebc9885c05cb00e58baa49704e7732855d52a9881cb68b5acbdc640a2960ba5b54dec0e2855c0a0778cdf62466c23ee1", "asm": "3045022100ec5c6425464a3cf3bcc8bf4402e387ee7c9e32bf89d982026562f3332104ca820220486715d63cebaf63b7708a3911a8f324b21a08755537ba30a759e14c4217bafb[ALL] 04683348431ed4ad12bc43353129ab620cebc9885c05cb00e58baa49704e7732855d52a9881cb68b5acbdc640a2960ba5b54dec0e2855c0a0778cdf62466c23ee1"}, "vout": 430, "txid": "718005d09c44099888da0a4507cb94baa2da122af96467dbf85115833f9a9544"}], "txid": "d17977061d0615a2c589772ef0fe56b9ed8b152afad7f67024b8006ec2cc36ff", "blocktime": 1537875543, "version": 1, "confirmations": 11464, "time": 1537875543, "locktime": 0, "vsize": 795, "size": 795}