{"hash": "d17b5abb21c3bb2530e4f4215b6475e0d76954691500fd2f47dd8648ff9a50db", "blockhash": "0000000000000000000baef3f32e3676a92c3b2e5da21b426e4f302fc371ce76", "vout": [{"scriptPubKey": {"reqSigs": 1, "hex": "76a9140b3b03ac1103ba5b2bd83692666342f146b351e888ac", "addresses": ["122P8VvVTip7m18n7rowx1p4EdeKEcwVqu"], "asm": "OP_DUP OP_HASH160 0b3b03ac1103ba5b2bd83692666342f146b351e8 OP_EQUALVERIFY OP_CHECKSIG", "type": "pubkeyhash"}, "value": 2.91166287, "n": 0}, {"scriptPubKey": {"reqSigs": 1, "hex": "76a914e9eeb36c844256047cf0b6c3233f7c1f47ebc61b88ac", "addresses": ["1NKvPvbNtu7rJU8yHxNRJ2fYhCVyofPyjT"], "asm": "OP_DUP OP_HASH160 e9eeb36c844256047cf0b6c3233f7c1f47ebc61b OP_EQUALVERIFY OP_CHECKSIG", "type": "pubkeyhash"}, "value": 0.54163435, "n": 1}], "hex": "01000000020ce11f1e959937a3c8731cda8d1b86d7d1aed4d199813f55353bafb75a404dee010000006a47304402206cf9e85bceed993b90e98f21e79815bfa111b0a8f305c65fd21baf17eabb4d3c02207552ecbde63561b308618a6462ac098052268de3bdff3cbea5b3333d8b19edeb012102f706fd0028a5a1699ec2923723ab1bc9ec76965bb64ed3a4a7dbe0478fcce98bfcffffffc06cff6b07f071ec1ac5c812a8e5fd860f8fdd1e3eab8a5c6c345288cf2dcff9000000006a473044022070c6f022cb317d60207d4649e0d5aeea8cbcb2b9b360f0fbc6844c12e7314bcd022067e9886aee0e71941bcd65047977f13a23144029410ee1b5c1abadbeeb0b6e69012102f706fd0028a5a1699ec2923723ab1bc9ec76965bb64ed3a4a7dbe0478fcce98bfcffffff024fd85a11000000001976a9140b3b03ac1103ba5b2bd83692666342f146b351e888aceb773a03000000001976a914e9eeb36c844256047cf0b6c3233f7c1f47ebc61b88ac00000000", "vin": [{"sequence": 4294967292, "scriptSig": {"hex": "47304402206cf9e85bceed993b90e98f21e79815bfa111b0a8f305c65fd21baf17eabb4d3c02207552ecbde63561b308618a6462ac098052268de3bdff3cbea5b3333d8b19edeb012102f706fd0028a5a1699ec2923723ab1bc9ec76965bb64ed3a4a7dbe0478fcce98b", "asm": "304402206cf9e85bceed993b90e98f21e79815bfa111b0a8f305c65fd21baf17eabb4d3c02207552ecbde63561b308618a6462ac098052268de3bdff3cbea5b3333d8b19edeb[ALL] 02f706fd0028a5a1699ec2923723ab1bc9ec76965bb64ed3a4a7dbe0478fcce98b"}, "vout": 1, "txid": "ee4d405ab7af3b35553f8199d1d4aed1d7861b8dda1c73c8a33799951e1fe10c"}, {"sequence": 4294967292, "scriptSig": {"hex": "473044022070c6f022cb317d60207d4649e0d5aeea8cbcb2b9b360f0fbc6844c12e7314bcd022067e9886aee0e71941bcd65047977f13a23144029410ee1b5c1abadbeeb0b6e69012102f706fd0028a5a1699ec2923723ab1bc9ec76965bb64ed3a4a7dbe0478fcce98b", "asm": "3044022070c6f022cb317d60207d4649e0d5aeea8cbcb2b9b360f0fbc6844c12e7314bcd022067e9886aee0e71941bcd65047977f13a23144029410ee1b5c1abadbeeb0b6e69[ALL] 02f706fd0028a5a1699ec2923723ab1bc9ec76965bb64ed3a4a7dbe0478fcce98b"}, "vout": 0, "txid": "f9cf2dcf8852346c5c8aab3e1edd8f0f86fde5a812c8c51aec71f0076bff6cc0"}], "txid": "d17b5abb21c3bb2530e4f4215b6475e0d76954691500fd2f47dd8648ff9a50db", "blocktime": 1537876114, "version": 1, "confirmations": 11459, "time": 1537876114, "locktime": 0, "vsize": 372, "size": 372}