{"hash": "d18063a3fdec6d7a156c79e5913ec2da953763a4593e89c477a7d4fd22a2294c", "blockhash": "0000000000000000001e0dab787dd257d1dbfcb92a98c2207d5e1078be1f4165", "vout": [{"scriptPubKey": {"reqSigs": 1, "hex": "76a9149ec56bf47950f767b2aba3ff1e0f0c35e64d37a588ac", "addresses": ["1FUWGQk1r6VTm9q7cyeRfQn9rsUkVVRXUZ"], "asm": "OP_DUP OP_HASH160 9ec56bf47950f767b2aba3ff1e0f0c35e64d37a5 OP_EQUALVERIFY OP_CHECKSIG", "type": "pubkeyhash"}, "value": 0.00995209, "n": 0}, {"scriptPubKey": {"reqSigs": 1, "hex": "76a914ac39bf983bc40e997f88fa2fba16e08d9c1ec71388ac", "addresses": ["1GheQRfFWMfKfQb5Tio4TmcNrkccDVFWf8"], "asm": "OP_DUP OP_HASH160 ac39bf983bc40e997f88fa2fba16e08d9c1ec713 OP_EQUALVERIFY OP_CHECKSIG", "type": "pubkeyhash"}, "value": 0.0118383, "n": 1}], "hex": "02000000046b0f6927999769ef08a1cf38caf841a3996b5e4de566feb954e5b478f758fc47000000006a4730440220110b3df2d46316f4ecbfe0add4bfbfa70eaacda44fb147b2b3ff3c633cd567c502203e53867f8486b47d0884596b5acdeb0497dba5a92a0b188a49559d0e434f124201210329205e02dee8066507e67322db98dd39153a3d49b118c2cd27b509fba6ea9178feffffffc66073f1e11e966cd8ce32547fb53788485c82126cca5b27bdc19cdecc01ff18010000006b483045022100a354feeb0a2aa67c0bb1190bd269682047017aa4408011b48f7c97be9d9981fd0220296d7932a6135009e2de726255ea48e455b808df9cc3476b5a0b893951c88f470121024f5499d507d3f15c670c526ca9b644d70f4c57710948219950e7b86f88d9bcbdfeffffffc9e51ee594d9cbcdbbdc0214eab54d3a89d21b458a020bd91dd4fa163b6560a5000000006a47304402201fb6c0a9b0f5769d315bffe4563c5d55c78bc29fbe01e27d540504b11ee0028f022021f99ad154c1ffe3f28cc44f73a0a1b7dd34f9bd0486421870e02929b5acae4a01210226ee735b1fef4990edab9450066697cfe5e91dd9d1365f202239bf355d17d782feffffffdbcd57a19cad2c726e763a8946ec0b1d8a8eacc34cc2ac27fda2ed8a600fc8ba030000006a47304402201904663ce3250cf2e8e7b86e7e9661359df44b2447b9723201d72bd39a0a23d1022016baef084aded0ab197761ac593277916da7ce32b9a9da1f0eb79db5d666f7e0012103522a150ae32c3812e3d594b2a5ac34b559031953331262febcde8c8ea2a9e993feffffff02892f0f00000000001976a9149ec56bf47950f767b2aba3ff1e0f0c35e64d37a588ac56101200000000001976a914ac39bf983bc40e997f88fa2fba16e08d9c1ec71388ac12490800", "vin": [{"sequence": 4294967294, "scriptSig": {"hex": "4730440220110b3df2d46316f4ecbfe0add4bfbfa70eaacda44fb147b2b3ff3c633cd567c502203e53867f8486b47d0884596b5acdeb0497dba5a92a0b188a49559d0e434f124201210329205e02dee8066507e67322db98dd39153a3d49b118c2cd27b509fba6ea9178", "asm": "30440220110b3df2d46316f4ecbfe0add4bfbfa70eaacda44fb147b2b3ff3c633cd567c502203e53867f8486b47d0884596b5acdeb0497dba5a92a0b188a49559d0e434f1242[ALL] 0329205e02dee8066507e67322db98dd39153a3d49b118c2cd27b509fba6ea9178"}, "vout": 0, "txid": "47fc58f778b4e554b9fe66e54d5e6b99a341f8ca38cfa108ef69979927690f6b"}, {"sequence": 4294967294, "scriptSig": {"hex": "483045022100a354feeb0a2aa67c0bb1190bd269682047017aa4408011b48f7c97be9d9981fd0220296d7932a6135009e2de726255ea48e455b808df9cc3476b5a0b893951c88f470121024f5499d507d3f15c670c526ca9b644d70f4c57710948219950e7b86f88d9bcbd", "asm": "3045022100a354feeb0a2aa67c0bb1190bd269682047017aa4408011b48f7c97be9d9981fd0220296d7932a6135009e2de726255ea48e455b808df9cc3476b5a0b893951c88f47[ALL] 024f5499d507d3f15c670c526ca9b644d70f4c57710948219950e7b86f88d9bcbd"}, "vout": 1, "txid": "18ff01ccde9cc1bd275bca6c12825c488837b57f5432ced86c961ee1f17360c6"}, {"sequence": 4294967294, "scriptSig": {"hex": "47304402201fb6c0a9b0f5769d315bffe4563c5d55c78bc29fbe01e27d540504b11ee0028f022021f99ad154c1ffe3f28cc44f73a0a1b7dd34f9bd0486421870e02929b5acae4a01210226ee735b1fef4990edab9450066697cfe5e91dd9d1365f202239bf355d17d782", "asm": "304402201fb6c0a9b0f5769d315bffe4563c5d55c78bc29fbe01e27d540504b11ee0028f022021f99ad154c1ffe3f28cc44f73a0a1b7dd34f9bd0486421870e02929b5acae4a[ALL] 0226ee735b1fef4990edab9450066697cfe5e91dd9d1365f202239bf355d17d782"}, "vout": 0, "txid": "a560653b16fad41dd90b028a451bd2893a4db5ea1402dcbbcdcbd994e51ee5c9"}, {"sequence": 4294967294, "scriptSig": {"hex": "47304402201904663ce3250cf2e8e7b86e7e9661359df44b2447b9723201d72bd39a0a23d1022016baef084aded0ab197761ac593277916da7ce32b9a9da1f0eb79db5d666f7e0012103522a150ae32c3812e3d594b2a5ac34b559031953331262febcde8c8ea2a9e993", "asm": "304402201904663ce3250cf2e8e7b86e7e9661359df44b2447b9723201d72bd39a0a23d1022016baef084aded0ab197761ac593277916da7ce32b9a9da1f0eb79db5d666f7e0[ALL] 03522a150ae32c3812e3d594b2a5ac34b559031953331262febcde8c8ea2a9e993"}, "vout": 3, "txid": "bac80f608aeda2fd27acc24cc3ac8e8a1d0bec46893a766e722cad9ca157cddb"}], "txid": "d18063a3fdec6d7a156c79e5913ec2da953763a4593e89c477a7d4fd22a2294c", "blocktime": 1537872475, "version": 2, "confirmations": 11486, "time": 1537872475, "locktime": 542994, "vsize": 667, "size": 667}