{"hash": "d182b104f61d5f9221ed5cdee593910d6f57e3cba22d094cc65be63e8641cf61", "blockhash": "00000000000000000024a2167bbff67b0be802c0b01cdd79e6331c2be6459f87", "vout": [{"scriptPubKey": {"reqSigs": 1, "hex": "76a914360c014c84750f72e9e70ca67055e7a62de14daf88ac", "addresses": ["15vmsVBtLvhxo7fuAFDzmD2TyW6J8g81vD"], "asm": "OP_DUP OP_HASH160 360c014c84750f72e9e70ca67055e7a62de14daf OP_EQUALVERIFY OP_CHECKSIG", "type": "pubkeyhash"}, "value": 0.0118252, "n": 0}, {"scriptPubKey": {"reqSigs": 1, "hex": "76a914f6df92e939882a524bc4c87021664da8a80bba5a88ac", "addresses": ["1PWM4Nm8ojK7ZeTuRVuyutnxCCwcjpbpDr"], "asm": "OP_DUP OP_HASH160 f6df92e939882a524bc4c87021664da8a80bba5a OP_EQUALVERIFY OP_CHECKSIG", "type": "pubkeyhash"}, "value": 0.04662292, "n": 1}], "hex": "02000000013bea5d9fd9403f9b5982b48551170dda6f42c777321e699034e15c3c7bf00cbe010000006b483045022100f7a30669502939cc8cd342fa913f54540c6096e24ba867599cf92bd01f58a2ae02207eddf83158c8866526d1d804172440b929dd8289ddcbdd60c0c7f3db27b9c423012102e236319c77cacb3696df71955ec2f119fcadff4d9e87957ee98a99c746b98438ffffffff02380b1200000000001976a914360c014c84750f72e9e70ca67055e7a62de14daf88ac14244700000000001976a914f6df92e939882a524bc4c87021664da8a80bba5a88ac00000000", "vin": [{"sequence": 4294967295, "scriptSig": {"hex": "483045022100f7a30669502939cc8cd342fa913f54540c6096e24ba867599cf92bd01f58a2ae02207eddf83158c8866526d1d804172440b929dd8289ddcbdd60c0c7f3db27b9c423012102e236319c77cacb3696df71955ec2f119fcadff4d9e87957ee98a99c746b98438", "asm": "3045022100f7a30669502939cc8cd342fa913f54540c6096e24ba867599cf92bd01f58a2ae02207eddf83158c8866526d1d804172440b929dd8289ddcbdd60c0c7f3db27b9c423[ALL] 02e236319c77cacb3696df71955ec2f119fcadff4d9e87957ee98a99c746b98438"}, "vout": 1, "txid": "be0cf07b3c5ce13490691e3277c7426fda0d175185b482599b3f40d99f5dea3b"}], "txid": "d182b104f61d5f9221ed5cdee593910d6f57e3cba22d094cc65be63e8641cf61", "blocktime": 1537870564, "version": 2, "confirmations": 11515, "time": 1537870564, "locktime": 0, "vsize": 226, "size": 226}