{"hash": "d034594cbe4ea43ed46eb5aee59315cc4e89fd8b7bf5eac808175faf408318ab", "blockhash": "00000000000000000004ffacab907a6b429b9a5745fa0b75af4234bf69dd7176", "vout": [{"scriptPubKey": {"reqSigs": 1, "hex": "76a9147c2a56a650593320c346ba265a901f05b558a72f88ac", "addresses": ["1CKXWWvAbgKU9Vg48JXJFVDYkmDWzt1XsN"], "asm": "OP_DUP OP_HASH160 7c2a56a650593320c346ba265a901f05b558a72f OP_EQUALVERIFY OP_CHECKSIG", "type": "pubkeyhash"}, "value": 0.0527, "n": 0}, {"scriptPubKey": {"reqSigs": 1, "hex": "a914dee0a1cc9f055700143e0f4ecee53180ab3530dc87", "addresses": ["3N1V2qWA5hpScEmS72pMooYRmXUiLmwPQQ"], "asm": "OP_HASH160 dee0a1cc9f055700143e0f4ecee53180ab3530dc OP_EQUAL", "type": "scripthash"}, "value": 0.11410971, "n": 1}], "hex": "02000000000101336b91a753b146d797e7fe07e1bd6b3ed65485a1f232e09f4ddd393643280c370100000017160014cb5dbe423de4d42b6425c6921084c6197a5d2937ffffffff02f0695000000000001976a9147c2a56a650593320c346ba265a901f05b558a72f88ac1b1eae000000000017a914dee0a1cc9f055700143e0f4ecee53180ab3530dc870247304402202aaa71b609283d785cf0c3d13a81b9ca800eed75feca1fd0d3c9397d43681f2d022058826c33c60519774f2dbfd054757cdeeccb7359eb2652213957bda7c13716b3012102acecad485eda786cbe0422823b7594aea6854abb5ec85e267f1c4b87f3f758f700000000", "vin": [{"txinwitness": ["304402202aaa71b609283d785cf0c3d13a81b9ca800eed75feca1fd0d3c9397d43681f2d022058826c33c60519774f2dbfd054757cdeeccb7359eb2652213957bda7c13716b301", "02acecad485eda786cbe0422823b7594aea6854abb5ec85e267f1c4b87f3f758f7"], "sequence": 4294967295, "scriptSig": {"hex": "160014cb5dbe423de4d42b6425c6921084c6197a5d2937", "asm": "0014cb5dbe423de4d42b6425c6921084c6197a5d2937"}, "vout": 1, "txid": "370c28433639dd4d9fe032f2a18554d63e6bbde107fee797d746b153a7916b33"}], "txid": "d184416a78bfeded138fc03d285279521a52cbc65478908ae68cc27f5576e249", "blocktime": 1537875543, "version": 2, "confirmations": 11464, "time": 1537875543, "locktime": 0, "vsize": 168, "size": 249}