{"hash": "d1844cfafd7713eaf96dff3765c8c21e8191c6efd827508c2b025e61b46d67ce", "blockhash": "00000000000000000017f5eb5941039fbcee6240d03bc1f2f8e35350df66a1d8", "vout": [{"scriptPubKey": {"reqSigs": 1, "hex": "76a9141c9f5f937599a6c9ec4321d8beaee439a977c12688ac", "addresses": ["13cLqpsLqhWFzCNKc9mX6mSU5Nu2uLkkNo"], "asm": "OP_DUP OP_HASH160 1c9f5f937599a6c9ec4321d8beaee439a977c126 OP_EQUALVERIFY OP_CHECKSIG", "type": "pubkeyhash"}, "value": 0.06252671, "n": 0}, {"scriptPubKey": {"reqSigs": 1, "hex": "76a91453a82aefad67afb0eeee1e7cde40738ade81b95d88ac", "addresses": ["18dLYRMeho53Jbu4EumFtDFj4RP8K8EB34"], "asm": "OP_DUP OP_HASH160 53a82aefad67afb0eeee1e7cde40738ade81b95d OP_EQUALVERIFY OP_CHECKSIG", "type": "pubkeyhash"}, "value": 0.12746651, "n": 1}], "hex": "0100000001ceae3906f44be0cc7fa780a80037ad1622bc88e0ca8db85af0d9f7a80c4789ff210000006b4830450221009a09db179b8e4ba84a6ef54b7c34fdc0723a031fda8966540c651d65d6245b4f02205ff57de9c92a979c8b671b98af81c9366d808e0db1bf31c7266108c3c954dabd012102ff3938c9e5bdcb61b631de20a2a391fc3cb863f16c2a4dd8ee9c00df56b3fbe0ffffffff027f685f00000000001976a9141c9f5f937599a6c9ec4321d8beaee439a977c12688ac9b7fc200000000001976a91453a82aefad67afb0eeee1e7cde40738ade81b95d88ac00000000", "vin": [{"sequence": 4294967295, "scriptSig": {"hex": "4830450221009a09db179b8e4ba84a6ef54b7c34fdc0723a031fda8966540c651d65d6245b4f02205ff57de9c92a979c8b671b98af81c9366d808e0db1bf31c7266108c3c954dabd012102ff3938c9e5bdcb61b631de20a2a391fc3cb863f16c2a4dd8ee9c00df56b3fbe0", "asm": "30450221009a09db179b8e4ba84a6ef54b7c34fdc0723a031fda8966540c651d65d6245b4f02205ff57de9c92a979c8b671b98af81c9366d808e0db1bf31c7266108c3c954dabd[ALL] 02ff3938c9e5bdcb61b631de20a2a391fc3cb863f16c2a4dd8ee9c00df56b3fbe0"}, "vout": 33, "txid": "ff89470ca8f7d9f05ab88dcae088bc2216ad3700a880a77fcce04bf40639aece"}], "txid": "d1844cfafd7713eaf96dff3765c8c21e8191c6efd827508c2b025e61b46d67ce", "blocktime": 1537874412, "version": 1, "confirmations": 11468, "time": 1537874412, "locktime": 0, "vsize": 226, "size": 226}