{"hash": "66c85e9eae8e5498a0019dcd6a0ce8e4e46d759ba678ba1ceda5eecdb7b7bdc7", "blockhash": "000000000000000000022b45ed06c6f4ccd3cf7fb5ba4856ebd2e58215665228", "vout": [{"scriptPubKey": {"reqSigs": 1, "hex": "a914a32f6d535dd18c123c0de785153a28ccc1cf2a8c87", "addresses": ["3GZrt6qrkdZTjAqxcx1dZQbLpjqHgJhMGA"], "asm": "OP_HASH160 a32f6d535dd18c123c0de785153a28ccc1cf2a8c OP_EQUAL", "type": "scripthash"}, "value": 0.01030194, "n": 0}, {"scriptPubKey": {"reqSigs": 1, "hex": "76a914b1ee2ef33568367b7a75f6c321945b1a0eb895db88ac", "addresses": ["1HDowE9SBH6rRpB8WdrEh74xqZx6uBFn2e"], "asm": "OP_DUP OP_HASH160 b1ee2ef33568367b7a75f6c321945b1a0eb895db OP_EQUALVERIFY OP_CHECKSIG", "type": "pubkeyhash"}, "value": 0.0018596, "n": 1}], "hex": "0200000000010230a3120474f5efd1dc46b9c77c3227c43455b13579b921cfcc16c02e5a2235a20e00000017160014b191ac518def68953da6933b5d0a3b9964a8d9e5feffffff5bedbd3dbd1a1bf08564971b34d69d678e64b0bb4d3a6304ae3b478d6f452f080000000017160014198fc8526b22d88a7f11c2f8496756d363279d70feffffff0232b80f000000000017a914a32f6d535dd18c123c0de785153a28ccc1cf2a8c8768d60200000000001976a914b1ee2ef33568367b7a75f6c321945b1a0eb895db88ac02483045022100ead17cfe59c959468bcd83ae37447a5b2fc39a3ba2bae8d587dbb985855ff492022006233cacfb3315540d7e43c615db69b82029d83cf40eb3ff4ca4ff76f11a2ff4012103eed1cfaebd6829ec304ba346ed81c67b68bbe68368f0f40add85dcf96e0d4ef702483045022100b3d148b74e40b06d7d46d8f14739777433783d9f96cdd4290ebc5d31af265b4c022065d6ad3bf017964025f6bf2bb88c6c1219b03b4b044ce86248c0bd250bde209f012103c5a3343aae05428405e02643a5a59eee166d421319c4d26a52f91e7302906456d5480800", "vin": [{"txinwitness": ["3045022100ead17cfe59c959468bcd83ae37447a5b2fc39a3ba2bae8d587dbb985855ff492022006233cacfb3315540d7e43c615db69b82029d83cf40eb3ff4ca4ff76f11a2ff401", "03eed1cfaebd6829ec304ba346ed81c67b68bbe68368f0f40add85dcf96e0d4ef7"], "sequence": 4294967294, "scriptSig": {"hex": "160014b191ac518def68953da6933b5d0a3b9964a8d9e5", "asm": "0014b191ac518def68953da6933b5d0a3b9964a8d9e5"}, "vout": 14, "txid": "a235225a2ec016cccf21b97935b15534c427327cc7b946dcd1eff5740412a330"}, {"txinwitness": ["3045022100b3d148b74e40b06d7d46d8f14739777433783d9f96cdd4290ebc5d31af265b4c022065d6ad3bf017964025f6bf2bb88c6c1219b03b4b044ce86248c0bd250bde209f01", "03c5a3343aae05428405e02643a5a59eee166d421319c4d26a52f91e7302906456"], "sequence": 4294967294, "scriptSig": {"hex": "160014198fc8526b22d88a7f11c2f8496756d363279d70", "asm": "0014198fc8526b22d88a7f11c2f8496756d363279d70"}, "vout": 0, "txid": "082f456f8d473bae04633a4dbbb0648e679dd6341b976485f01b1abd3dbded5b"}], "txid": "d1855829dcfa3b3a7b0f8169f3ce7683b82c78db4681c47fc6caf332acac0375", "blocktime": 1537869901, "version": 2, "confirmations": 11524, "time": 1537869901, "locktime": 542933, "vsize": 259, "size": 422}