{"hash": "d18727c766091e50eb47cc7ca08d2315b5002f479f590efe3b92cd3b57a1d280", "blockhash": "000000000000000000022b45ed06c6f4ccd3cf7fb5ba4856ebd2e58215665228", "vout": [{"scriptPubKey": {"reqSigs": 1, "hex": "76a914befc352659bb06653ed4f2a4e77044f7e806955f88ac", "addresses": ["1JQqX98Zt6fbe7NQH2kvboeCM7Y3kDg5Aw"], "asm": "OP_DUP OP_HASH160 befc352659bb06653ed4f2a4e77044f7e806955f OP_EQUALVERIFY OP_CHECKSIG", "type": "pubkeyhash"}, "value": 0.0160271, "n": 0}, {"scriptPubKey": {"reqSigs": 1, "hex": "76a914e407e613f8cb0ded08c93ae0f5d5354aa9fda6c388ac", "addresses": ["1MniXYzUbWUt8RTdfHGXMWDPyLdXjkG98P"], "asm": "OP_DUP OP_HASH160 e407e613f8cb0ded08c93ae0f5d5354aa9fda6c3 OP_EQUALVERIFY OP_CHECKSIG", "type": "pubkeyhash"}, "value": 0.046785, "n": 1}], "hex": "0100000003b201af090ef5bc3b20ba4ffc069ff028bcfa155b9e95a4a788e0a82036f83418000000006a473044022075acc2238cbadd96ce05730474443751058e511bb017eac599ee90428e64f02f0220406d90257ee17b72713cc54776180381889686c7274eb9298e05435775f002b6012103fb1c0e01c82ca7b4714ede3a71f432b93bbf75b5e672828c572f3b799e623916ffffffffd4f5e141b70ed327f19e74d2d0b0275a431b3c7f36408466971c341b750a9343000000006b483045022100ab3a86f2f8524049a29269ef71dc7e604e6fcce1f5eb46772cacef8123c43b2702201a17cf599711b556afa5c2be26e234baa53a1e570e24852f15e04e4819e852e00121029632ffc0b2948e5466d8e575575dbd57e4d55dbb73cd4f74be03ec786448fa08ffffffffca3d01ac7bf61a6ebc269a13d8fdbe2215220655080f7a1cd36011d678d1eadb000000006a47304402202cf48b3cff658751a907ff8f00d3c51fa8954b8033cfebdd6edab3388629e08502206436a96fbe13ba5598f9d37cc2f7cd26b0c2dd62fbea5d8843095cc5d1bc2f060121026ea559a048ccfb375d80dee627676a9ed2aa852ef067f271c97294d3c3169702ffffffff0296741800000000001976a914befc352659bb06653ed4f2a4e77044f7e806955f88ac64634700000000001976a914e407e613f8cb0ded08c93ae0f5d5354aa9fda6c388ac00000000", "vin": [{"sequence": 4294967295, "scriptSig": {"hex": "473044022075acc2238cbadd96ce05730474443751058e511bb017eac599ee90428e64f02f0220406d90257ee17b72713cc54776180381889686c7274eb9298e05435775f002b6012103fb1c0e01c82ca7b4714ede3a71f432b93bbf75b5e672828c572f3b799e623916", "asm": "3044022075acc2238cbadd96ce05730474443751058e511bb017eac599ee90428e64f02f0220406d90257ee17b72713cc54776180381889686c7274eb9298e05435775f002b6[ALL] 03fb1c0e01c82ca7b4714ede3a71f432b93bbf75b5e672828c572f3b799e623916"}, "vout": 0, "txid": "1834f83620a8e088a7a4959e5b15fabc28f09f06fc4fba203bbcf50e09af01b2"}, {"sequence": 4294967295, "scriptSig": {"hex": "483045022100ab3a86f2f8524049a29269ef71dc7e604e6fcce1f5eb46772cacef8123c43b2702201a17cf599711b556afa5c2be26e234baa53a1e570e24852f15e04e4819e852e00121029632ffc0b2948e5466d8e575575dbd57e4d55dbb73cd4f74be03ec786448fa08", "asm": "3045022100ab3a86f2f8524049a29269ef71dc7e604e6fcce1f5eb46772cacef8123c43b2702201a17cf599711b556afa5c2be26e234baa53a1e570e24852f15e04e4819e852e0[ALL] 029632ffc0b2948e5466d8e575575dbd57e4d55dbb73cd4f74be03ec786448fa08"}, "vout": 0, "txid": "43930a751b341c97668440367f3c1b435a27b0d0d2749ef127d30eb741e1f5d4"}, {"sequence": 4294967295, "scriptSig": {"hex": "47304402202cf48b3cff658751a907ff8f00d3c51fa8954b8033cfebdd6edab3388629e08502206436a96fbe13ba5598f9d37cc2f7cd26b0c2dd62fbea5d8843095cc5d1bc2f060121026ea559a048ccfb375d80dee627676a9ed2aa852ef067f271c97294d3c3169702", "asm": "304402202cf48b3cff658751a907ff8f00d3c51fa8954b8033cfebdd6edab3388629e08502206436a96fbe13ba5598f9d37cc2f7cd26b0c2dd62fbea5d8843095cc5d1bc2f06[ALL] 026ea559a048ccfb375d80dee627676a9ed2aa852ef067f271c97294d3c3169702"}, "vout": 0, "txid": "dbead178d61160d31c7a0f085506221522befdd8139a26bc6e1af67bac013dca"}], "txid": "d18727c766091e50eb47cc7ca08d2315b5002f479f590efe3b92cd3b57a1d280", "blocktime": 1537869901, "version": 1, "confirmations": 11524, "time": 1537869901, "locktime": 0, "vsize": 520, "size": 520}