{"hash": "db5160d0e6e7334be7a245564f9bd7749af0030371ec96350c1784be05c67c9c", "blockhash": "0000000000000000001f76057863aec43deb6fa401d9628bb513d65a8098bfab", "vout": [{"scriptPubKey": {"reqSigs": 1, "hex": "a914c8948f84ab8bc2187580e4fb86ecf2a0a06e11cf87", "addresses": ["3Kyb35jwJ7YCiAF7JRfW5VZdpyywKap5YB"], "asm": "OP_HASH160 c8948f84ab8bc2187580e4fb86ecf2a0a06e11cf OP_EQUAL", "type": "scripthash"}, "value": 4.021e-05, "n": 0}, {"scriptPubKey": {"reqSigs": 1, "hex": "a9141d7370ccde4590204155e4074f69743a8e4fac0287", "addresses": ["34Njp4ZKtmCDfqqps26wHBYQQGUo2pGkLi"], "asm": "OP_HASH160 1d7370ccde4590204155e4074f69743a8e4fac02 OP_EQUAL", "type": "scripthash"}, "value": 5.744e-05, "n": 1}], "hex": "01000000000101ec7b07a7287a299be1e9b93db0e9201e6f32cf0d9a360741a3ef4729cddab8710100000023220020f63dfc12340f6360d0251c22746d6b56093e3243e96ca012a65484a5d9cf0ec0ffffffff02b50f00000000000017a914c8948f84ab8bc2187580e4fb86ecf2a0a06e11cf87701600000000000017a9141d7370ccde4590204155e4074f69743a8e4fac02870400483045022100b46cc19b63825a1748b25d98bc8f1f8771202b6decb55d508fdb28239f4007ba022022458f07e24a20893e2b813471034c12d2730f718e20170e0c181f3452061f5201483045022100ea9d95eae53d0d5203df2af5d93195be1284b2d148ed6da008589f9f649f12c10220079ff7fe04698d5ce8643380c4ccbf6d98d9149ead0e457bf3d1babbbf807e870147522102097067a6a0cc130a9a6f6577b47bf369b840a79de31cd7457187994266b1bb7c2103338f346cab6ba87fe940591a03ac234be06520c5ab386d4b6632e8eef0d0db7652ae00000000", "vin": [{"txinwitness": ["", "3045022100b46cc19b63825a1748b25d98bc8f1f8771202b6decb55d508fdb28239f4007ba022022458f07e24a20893e2b813471034c12d2730f718e20170e0c181f3452061f5201", "3045022100ea9d95eae53d0d5203df2af5d93195be1284b2d148ed6da008589f9f649f12c10220079ff7fe04698d5ce8643380c4ccbf6d98d9149ead0e457bf3d1babbbf807e8701", "522102097067a6a0cc130a9a6f6577b47bf369b840a79de31cd7457187994266b1bb7c2103338f346cab6ba87fe940591a03ac234be06520c5ab386d4b6632e8eef0d0db7652ae"], "sequence": 4294967295, "scriptSig": {"hex": "220020f63dfc12340f6360d0251c22746d6b56093e3243e96ca012a65484a5d9cf0ec0", "asm": "0020f63dfc12340f6360d0251c22746d6b56093e3243e96ca012a65484a5d9cf0ec0"}, "vout": 1, "txid": "71b8dacd2947efa34107369a0dcf326f1e20e9b03db9e9e19b297a28a7077bec"}], "txid": "d1891e63dee2490e97e385bf911d65215c889ec66edd5055d3bdbf9e18edeaa0", "blocktime": 1537873891, "version": 1, "confirmations": 11478, "time": 1537873891, "locktime": 0, "vsize": 206, "size": 372}