{"hash": "fdfecbb57b9bbf7349238ccca520d9411b3ca7d24e9e9efe10571642d244d232", "blockhash": "0000000000000000000baef3f32e3676a92c3b2e5da21b426e4f302fc371ce76", "vout": [{"scriptPubKey": {"reqSigs": 1, "hex": "a914c55afe1f580cddd2b7417057ca09af0ebd8b9e1187", "addresses": ["3KgY3cf8rHGSihw9dL8prTmFEKmyu4jyiT"], "asm": "OP_HASH160 c55afe1f580cddd2b7417057ca09af0ebd8b9e11 OP_EQUAL", "type": "scripthash"}, "value": 10.0667, "n": 0}, {"scriptPubKey": {"reqSigs": 1, "hex": "76a914992f292cc245ef9f637c112302b04394c8c6b28c88ac", "addresses": ["1Exxt9Gjj1igDxy6jJ9RsQrVhpiLnz7rYS"], "asm": "OP_DUP OP_HASH160 992f292cc245ef9f637c112302b04394c8c6b28c OP_EQUALVERIFY OP_CHECKSIG", "type": "pubkeyhash"}, "value": 5.0, "n": 1}, {"scriptPubKey": {"reqSigs": 1, "hex": "a914feb8339318e4eb7ba0ef3cf885885a8a3b15b03487", "addresses": ["3QurDoyXJuxnTn8AjTDVmbPTP54KBChnmg"], "asm": "OP_HASH160 feb8339318e4eb7ba0ef3cf885885a8a3b15b034 OP_EQUAL", "type": "scripthash"}, "value": 10.3222, "n": 2}, {"scriptPubKey": {"reqSigs": 1, "hex": "a914af9db0b3a9f9e92dc0677a19d50481b2ecdd119f87", "addresses": ["3Hhb5d9qhRGaJ6FbCJfmneWrsRjkhFRpBr"], "asm": "OP_HASH160 af9db0b3a9f9e92dc0677a19d50481b2ecdd119f OP_EQUAL", "type": "scripthash"}, "value": 7.5775, "n": 3}, {"scriptPubKey": {"reqSigs": 1, "hex": "a914bcb8c9ba204c24028a8962cc2c94d564988f615787", "addresses": ["3JttKuKkvL35Mp9wz43JWMCmZFr3vTpcTA"], "asm": "OP_HASH160 bcb8c9ba204c24028a8962cc2c94d564988f6157 OP_EQUAL", "type": "scripthash"}, "value": 10.9364, "n": 4}, {"scriptPubKey": {"reqSigs": 1, "hex": "76a914e8e832ce7c1ee5da2aacb31087eadb05ffdbe20288ac", "addresses": ["1NEVvwL89dhvAjaw2Qo1uWsfoTztZV8mD9"], "asm": "OP_DUP OP_HASH160 e8e832ce7c1ee5da2aacb31087eadb05ffdbe202 OP_EQUALVERIFY OP_CHECKSIG", "type": "pubkeyhash"}, "value": 0.001, "n": 5}, {"scriptPubKey": {"reqSigs": 1, "hex": "a9149a4dab5168002467db30420ca43c8db33df7ead587", "addresses": ["3Fku2duBz7YzK49WfdNxXBEAJ8nTeqngkt"], "asm": "OP_HASH160 9a4dab5168002467db30420ca43c8db33df7ead5 OP_EQUAL", "type": "scripthash"}, "value": 6.1842, "n": 6}, {"scriptPubKey": {"reqSigs": 1, "hex": "a91486272d6b96e55d2c27f0c1c2aca8f491ea4444e587", "addresses": ["3DvMQLuo896iLYirLSpbt6y2JTCo3473ra"], "asm": "OP_HASH160 86272d6b96e55d2c27f0c1c2aca8f491ea4444e5 OP_EQUAL", "type": "scripthash"}, "value": 11.1536, "n": 7}, {"scriptPubKey": {"reqSigs": 1, "hex": "a91469f37513460ffca37ddeb344bc1b964052ef3ba887", "addresses": ["3BMEXQ1KrjLw4GAJYEoVa3TMDJ3fzcHxjv"], "asm": "OP_HASH160 69f37513460ffca37ddeb344bc1b964052ef3ba8 OP_EQUAL", "type": "scripthash"}, "value": 0.0956322, "n": 8}, {"scriptPubKey": {"reqSigs": 1, "hex": "a914fdb91c7a141ef95b91dfe51e3383023e274545f687", "addresses": ["3QpadqABVZDJ3tNPP8DtH1Fmmde6ABruhf"], "asm": "OP_HASH160 fdb91c7a141ef95b91dfe51e3383023e274545f6 OP_EQUAL", "type": "scripthash"}, "value": 17.3958726, "n": 9}, {"scriptPubKey": {"reqSigs": 1, "hex": "a914ca1ca6d7473382dd1e861364514a053d8dd8ff9687", "addresses": ["3L7gk3rgw77AANcsiWe7gk9uYshFW4tuAM"], "asm": "OP_HASH160 ca1ca6d7473382dd1e861364514a053d8dd8ff96 OP_EQUAL", "type": "scripthash"}, "value": 7.8326, "n": 10}], "hex": "01000000000101066f28aab0fc2a9d857596f53df2c4aab96c418b01f470b8fa3ca55539ec26400000000023220020b2675d35b1a916394f9ae2715724ae207c1315d2bfd68986578a09445e99a6daffffffff0bb090003c0000000017a914c55afe1f580cddd2b7417057ca09af0ebd8b9e11870065cd1d000000001976a914992f292cc245ef9f637c112302b04394c8c6b28c88ac606d863d0000000017a914feb8339318e4eb7ba0ef3cf885885a8a3b15b03487f0582a2d0000000017a914af9db0b3a9f9e92dc0677a19d50481b2ecdd119f87409f2f410000000017a914bcb8c9ba204c24028a8962cc2c94d564988f615787a0860100000000001976a914e8e832ce7c1ee5da2aacb31087eadb05ffdbe20288ac2057dc240000000017a9149a4dab5168002467db30420ca43c8db33df7ead587000b7b420000000017a91486272d6b96e55d2c27f0c1c2aca8f491ea4444e58754ec91000000000017a91469f37513460ffca37ddeb344bc1b964052ef3ba887bcfeaf670000000017a914fdb91c7a141ef95b91dfe51e3383023e274545f6876099af2e0000000017a914ca1ca6d7473382dd1e861364514a053d8dd8ff968704004830450221009e5cb59f181e9a4d8c3bdfcc4069587ee1a9e93b067b6c02e3874823f066ad0d022031e3fde57f93727b8227b51e5bc736e0a237aa961caeb0547084d786d3bd70660147304402203db820efae7806a294ceb9236c244431879e5d20e0931e0da9c27f18325d03a502200f32222beef86852260f68d1a6e8c1069a7828f4c4c84a38a895d9b94a444f0d0169522103748e01e8f3f27bbb3a06edc910f38a649ea207f86dd2340b893ed2d6f2f1aa7a21025ced99e5cfdd50eb53d91b36ecc6a2ae64d80fc758ad23b376ef3ee784053f282103592dd09f2f222c4afdb7aa734ed3225dfca4226a4bb7f160723507428ed0f1e753ae00000000", "vin": [{"txinwitness": ["", "30450221009e5cb59f181e9a4d8c3bdfcc4069587ee1a9e93b067b6c02e3874823f066ad0d022031e3fde57f93727b8227b51e5bc736e0a237aa961caeb0547084d786d3bd706601", "304402203db820efae7806a294ceb9236c244431879e5d20e0931e0da9c27f18325d03a502200f32222beef86852260f68d1a6e8c1069a7828f4c4c84a38a895d9b94a444f0d01", "522103748e01e8f3f27bbb3a06edc910f38a649ea207f86dd2340b893ed2d6f2f1aa7a21025ced99e5cfdd50eb53d91b36ecc6a2ae64d80fc758ad23b376ef3ee784053f282103592dd09f2f222c4afdb7aa734ed3225dfca4226a4bb7f160723507428ed0f1e753ae"], "sequence": 4294967295, "scriptSig": {"hex": "220020b2675d35b1a916394f9ae2715724ae207c1315d2bfd68986578a09445e99a6da", "asm": "0020b2675d35b1a916394f9ae2715724ae207c1315d2bfd68986578a09445e99a6da"}, "vout": 0, "txid": "4026ec3955a53cfab870f4018b416cb9aac4f23df59675859d2afcb0aa286f06"}], "txid": "d18a872d622c9a7ee46168b1f5bcbacfa4889b6873b187aa935dd4d1a0b2f9a6", "blocktime": 1537876114, "version": 1, "confirmations": 11463, "time": 1537876114, "locktime": 0, "vsize": 506, "size": 697}