{"hash": "d18f0db785a23a8474ddd7cdc590f06c1a2c1db9076381c66c2983ac3dd98138", "blockhash": "0000000000000000001f0ddff1eddb255c1121bcd4da4f1bc9a0da00cae72433", "vout": [{"scriptPubKey": {"reqSigs": 1, "hex": "a91444d0829a3446cf2d10a523994f647f5a18cc8cfd87", "addresses": ["37xsf8QY6ZLqC26usN44GBguigXnfiSoyT"], "asm": "OP_HASH160 44d0829a3446cf2d10a523994f647f5a18cc8cfd OP_EQUAL", "type": "scripthash"}, "value": 0.00769025, "n": 0}, {"scriptPubKey": {"reqSigs": 1, "hex": "76a9143bc913281616e313a2007a331f02b9ac2101fcba88ac", "addresses": ["16T7kF3ZDf85uat2YkhDPbWwtfDJtCHdcB"], "asm": "OP_DUP OP_HASH160 3bc913281616e313a2007a331f02b9ac2101fcba OP_EQUALVERIFY OP_CHECKSIG", "type": "pubkeyhash"}, "value": 0.0102539, "n": 1}], "hex": "0100000001533efbf86abcf47d838aaf5b4c170b967bc4c1f0b8537cc7a6020aa71b3e66b1000000006a4730440220619651a93a7ef8293e784b0e2fbcb54e26274db9d505034d15e2e7af1342643a022071808f02bc0160ecd51d449789d5d2b2493bca274f05fcbb868422c3736f0abe012102bad4f05e61178b7f9949cc1be39a66099e6ed6bba00007e2c3dfa9f41766ba78fdffffff0201bc0b000000000017a91444d0829a3446cf2d10a523994f647f5a18cc8cfd876ea50f00000000001976a9143bc913281616e313a2007a331f02b9ac2101fcba88ac0e490800", "vin": [{"sequence": 4294967293, "scriptSig": {"hex": "4730440220619651a93a7ef8293e784b0e2fbcb54e26274db9d505034d15e2e7af1342643a022071808f02bc0160ecd51d449789d5d2b2493bca274f05fcbb868422c3736f0abe012102bad4f05e61178b7f9949cc1be39a66099e6ed6bba00007e2c3dfa9f41766ba78", "asm": "30440220619651a93a7ef8293e784b0e2fbcb54e26274db9d505034d15e2e7af1342643a022071808f02bc0160ecd51d449789d5d2b2493bca274f05fcbb868422c3736f0abe[ALL] 02bad4f05e61178b7f9949cc1be39a66099e6ed6bba00007e2c3dfa9f41766ba78"}, "vout": 0, "txid": "b1663e1ba70a02a6c77c53b8f0c1c47b960b174c5baf8a837df4bc6af8fb3e53"}], "txid": "d18f0db785a23a8474ddd7cdc590f06c1a2c1db9076381c66c2983ac3dd98138", "blocktime": 1537872018, "version": 1, "confirmations": 11489, "time": 1537872018, "locktime": 542990, "vsize": 223, "size": 223}