{"hash": "1642093193f049d3c68a8b2d7bc0d9e3408bcbad6c34394faef7ea928149249a", "blockhash": "0000000000000000000dcc0f55137456b1a82d3642486a52398922ac4d620174", "vout": [{"scriptPubKey": {"reqSigs": 1, "hex": "a914af6131450410bb66a8009de43abd1cc5d17bec4387", "addresses": ["3HgLcAVmis3vfLmW6R45v7r6hT2PChLYCS"], "asm": "OP_HASH160 af6131450410bb66a8009de43abd1cc5d17bec43 OP_EQUAL", "type": "scripthash"}, "value": 0.01137368, "n": 0}, {"scriptPubKey": {"reqSigs": 1, "hex": "a914adb3553c6bb07d949cd3ebe9e46645a45e99a70987", "addresses": ["3HXTf16VEfR4G2itXNik3cjhA7XtmPFRCy"], "asm": "OP_HASH160 adb3553c6bb07d949cd3ebe9e46645a45e99a709 OP_EQUAL", "type": "scripthash"}, "value": 0.01118322, "n": 1}], "hex": "02000000000101473cbc5ada4e9d67993bbd67b1bd7c66f6ef6bc51612bb133b4780edcb9054cf01000000171600141fbb9b1314222b09f05cac77b956d63645fd7a74ffffffff02d85a11000000000017a914af6131450410bb66a8009de43abd1cc5d17bec4387721011000000000017a914adb3553c6bb07d949cd3ebe9e46645a45e99a7098702483045022100fa75ad3206e18bb70de1e75f18ae172097ddbd54af418867da57c2a8b190407e022004683e1a33efee05bcf7b37a2e5cce28c8be9acb29eb06371d1c34aa4607613a012103c4469fd32a4f26076d935495770cece18a7e60bd720d2c87e6142c63cfd8d5c700000000", "vin": [{"txinwitness": ["3045022100fa75ad3206e18bb70de1e75f18ae172097ddbd54af418867da57c2a8b190407e022004683e1a33efee05bcf7b37a2e5cce28c8be9acb29eb06371d1c34aa4607613a01", "03c4469fd32a4f26076d935495770cece18a7e60bd720d2c87e6142c63cfd8d5c7"], "sequence": 4294967295, "scriptSig": {"hex": "1600141fbb9b1314222b09f05cac77b956d63645fd7a74", "asm": "00141fbb9b1314222b09f05cac77b956d63645fd7a74"}, "vout": 1, "txid": "cf5490cbed80473b13bb1216c56beff6667cbdb167bd3b99679d4eda5abc3c47"}], "txid": "d193cddd77138e8a5163b642553811bedeea158d75634e426c28c04d8ffe44ac", "blocktime": 1537870268, "version": 2, "confirmations": 11516, "time": 1537870268, "locktime": 0, "vsize": 166, "size": 248}