{"hash": "d19783a786b72648377672c9dab9f11bc99c1f9f3869cea857c4f10f944a1845", "blockhash": "0000000000000000001f0ddff1eddb255c1121bcd4da4f1bc9a0da00cae72433", "vout": [{"scriptPubKey": {"reqSigs": 1, "hex": "76a914d7c13a93a391b7dc3578dfe81b3c7438b8a350a488ac", "addresses": ["1Lfom1zBBUrVVg9uFgZ3ppyaKaoPEM2pvw"], "asm": "OP_DUP OP_HASH160 d7c13a93a391b7dc3578dfe81b3c7438b8a350a4 OP_EQUALVERIFY OP_CHECKSIG", "type": "pubkeyhash"}, "value": 0.04248, "n": 0}, {"scriptPubKey": {"reqSigs": 1, "hex": "76a914d5ba2eb2d52670fbe9522748bf642da754eb0d6f88ac", "addresses": ["1LV5y3NkVkmdWnF6xRCEXrAnUkRgge4KSq"], "asm": "OP_DUP OP_HASH160 d5ba2eb2d52670fbe9522748bf642da754eb0d6f OP_EQUALVERIFY OP_CHECKSIG", "type": "pubkeyhash"}, "value": 2.95449467, "n": 1}], "hex": "010000000195b1b935e685be5f79f7e2db624480468d8b8b97b5c1d2aba62c276f40c0a037000000006b483045022100f41db2c6a42fdff1e6d0041fb809b3822ffec4152381649da651374264feb4d6022067b673dd118a1a9f28a978d1e13a12b852a0668162310b27402dcaccd36cb892012103c47cb183f647a58ac48ac5a0b41f6e0efdc3903201106312a81cb59650b94d1cffffffff02c0d14000000000001976a914d7c13a93a391b7dc3578dfe81b3c7438b8a350a488ac7b339c11000000001976a914d5ba2eb2d52670fbe9522748bf642da754eb0d6f88ac00000000", "vin": [{"sequence": 4294967295, "scriptSig": {"hex": "483045022100f41db2c6a42fdff1e6d0041fb809b3822ffec4152381649da651374264feb4d6022067b673dd118a1a9f28a978d1e13a12b852a0668162310b27402dcaccd36cb892012103c47cb183f647a58ac48ac5a0b41f6e0efdc3903201106312a81cb59650b94d1c", "asm": "3045022100f41db2c6a42fdff1e6d0041fb809b3822ffec4152381649da651374264feb4d6022067b673dd118a1a9f28a978d1e13a12b852a0668162310b27402dcaccd36cb892[ALL] 03c47cb183f647a58ac48ac5a0b41f6e0efdc3903201106312a81cb59650b94d1c"}, "vout": 0, "txid": "37a0c0406f272ca6abd2c1b5978b8b8d46804462dbe2f7795fbe85e635b9b195"}], "txid": "d19783a786b72648377672c9dab9f11bc99c1f9f3869cea857c4f10f944a1845", "blocktime": 1537872018, "version": 1, "confirmations": 11489, "time": 1537872018, "locktime": 0, "vsize": 226, "size": 226}