{"hash": "d1ae6c2a2db89f6d3f559b1f3332c975dd063363764def486e6a1288a526ba6a", "blockhash": "00000000000000000004ffacab907a6b429b9a5745fa0b75af4234bf69dd7176", "vout": [{"scriptPubKey": {"type": "nulldata", "hex": "6a146f6d6e69000000000000001f00000010d43c5340", "asm": "OP_RETURN 6f6d6e69000000000000001f00000010d43c5340"}, "value": 0.0, "n": 0}, {"scriptPubKey": {"reqSigs": 1, "hex": "76a914c40e6b4569d373ed039df202e615d0a4357099d688ac", "addresses": ["1JseiT86bAcQhasGjArkWs5k4obVwg5w1P"], "asm": "OP_DUP OP_HASH160 c40e6b4569d373ed039df202e615d0a4357099d6 OP_EQUALVERIFY OP_CHECKSIG", "type": "pubkeyhash"}, "value": 2.73e-05, "n": 1}], "hex": "0100000001524a2044a8c6157ab1d5fd7b30b652b24a81c61dec2970370f66d59e6614d31d010000006b483045022100fdae50b88ca7df4bdba789b2e49f77ec8bf5862b9f70e1af04ec5d8fea97b24d022036414e1dd95e3f33e39db4955b63eb4e11e9b86e089f331b1c99c73818c8fb5a01210378883d49bfc00d2b3c5444b3cf67c6758d3ae2bf3d9491109b54943e49d87d9efeffffff020000000000000000166a146f6d6e69000000000000001f00000010d43c5340aa0a0000000000001976a914c40e6b4569d373ed039df202e615d0a4357099d688ac16490800", "vin": [{"sequence": 4294967294, "scriptSig": {"hex": "483045022100fdae50b88ca7df4bdba789b2e49f77ec8bf5862b9f70e1af04ec5d8fea97b24d022036414e1dd95e3f33e39db4955b63eb4e11e9b86e089f331b1c99c73818c8fb5a01210378883d49bfc00d2b3c5444b3cf67c6758d3ae2bf3d9491109b54943e49d87d9e", "asm": "3045022100fdae50b88ca7df4bdba789b2e49f77ec8bf5862b9f70e1af04ec5d8fea97b24d022036414e1dd95e3f33e39db4955b63eb4e11e9b86e089f331b1c99c73818c8fb5a[ALL] 0378883d49bfc00d2b3c5444b3cf67c6758d3ae2bf3d9491109b54943e49d87d9e"}, "vout": 1, "txid": "1dd314669ed5660f377029ec1dc6814ab252b6307bfdd5b17a15c6a844204a52"}], "txid": "d1ae6c2a2db89f6d3f559b1f3332c975dd063363764def486e6a1288a526ba6a", "blocktime": 1537875543, "version": 1, "confirmations": 11464, "time": 1537875543, "locktime": 542998, "vsize": 223, "size": 223}