{"hash": "d1bf9ea7383ceca98eb1247d154503a8b76cac9e05019417eb75f9708ec024e7", "blockhash": "000000000000000000022b45ed06c6f4ccd3cf7fb5ba4856ebd2e58215665228", "vout": [{"scriptPubKey": {"reqSigs": 1, "hex": "76a914d26e2afb3971e847ec0c0d4a05c94b239fa5b5d888ac", "addresses": ["1LBestGjfprA7vybS52TThy2Ew7TriASuw"], "asm": "OP_DUP OP_HASH160 d26e2afb3971e847ec0c0d4a05c94b239fa5b5d8 OP_EQUALVERIFY OP_CHECKSIG", "type": "pubkeyhash"}, "value": 0.013497, "n": 0}], "hex": "01000000017761b33551aaa0829cd3016b7bcc429cb4a23cc4b521f18fbc9a7161cd862284000000006b483045022100b38615fd37968eb28c1411113ecd21d826b563c28aec790d1b50a08293b5de2702201dfd3ff3af3752429b9f2f936b62b738be35e8a58a998078b957b6e8d0cc715d0121028710506bc5669204b1342a4be791644438775c6046f869e91c43a4b283af8ba4ffffffff0144981400000000001976a914d26e2afb3971e847ec0c0d4a05c94b239fa5b5d888ac00000000", "vin": [{"sequence": 4294967295, "scriptSig": {"hex": "483045022100b38615fd37968eb28c1411113ecd21d826b563c28aec790d1b50a08293b5de2702201dfd3ff3af3752429b9f2f936b62b738be35e8a58a998078b957b6e8d0cc715d0121028710506bc5669204b1342a4be791644438775c6046f869e91c43a4b283af8ba4", "asm": "3045022100b38615fd37968eb28c1411113ecd21d826b563c28aec790d1b50a08293b5de2702201dfd3ff3af3752429b9f2f936b62b738be35e8a58a998078b957b6e8d0cc715d[ALL] 028710506bc5669204b1342a4be791644438775c6046f869e91c43a4b283af8ba4"}, "vout": 0, "txid": "842286cd61719abc8ff121b5c43ca2b49c42cc7b6b01d39c82a0aa5135b36177"}], "txid": "d1bf9ea7383ceca98eb1247d154503a8b76cac9e05019417eb75f9708ec024e7", "blocktime": 1537869901, "version": 1, "confirmations": 11524, "time": 1537869901, "locktime": 0, "vsize": 192, "size": 192}