{"hash": "d1c19337d534ae2567d5d60b537a2974d8cf1d9dee4279aae17b77bdc8dbc0ce", "blockhash": "0000000000000000000baef3f32e3676a92c3b2e5da21b426e4f302fc371ce76", "vout": [{"scriptPubKey": {"reqSigs": 1, "hex": "76a9141b53c5e66a03bee03079d5e6bd48e09b057b998388ac", "addresses": ["13VVbqJTcCxbkjpNeRr64WFXj6NPXmUFzE"], "asm": "OP_DUP OP_HASH160 1b53c5e66a03bee03079d5e6bd48e09b057b9983 OP_EQUALVERIFY OP_CHECKSIG", "type": "pubkeyhash"}, "value": 0.14446722, "n": 0}, {"scriptPubKey": {"reqSigs": 1, "hex": "76a9140f358f8d13812b2010634c2d137eb3796a185bcd88ac", "addresses": ["12PRJLv4G8JU2TUgFraHkzkQA2gYzLK4ab"], "asm": "OP_DUP OP_HASH160 0f358f8d13812b2010634c2d137eb3796a185bcd OP_EQUALVERIFY OP_CHECKSIG", "type": "pubkeyhash"}, "value": 0.07439847, "n": 1}], "hex": "0100000001a1717fe0bd3e8917a572883ce06b70a0947ca5e5d425a829ff9b1a39528c80cc000000006a4730440220196d723d0a46cc6825e3d4af10d6c53398e42083c2f2c5118f9b5d74ff250a53022050fbe984983cffb401c78f4f1ee764d16340fe0d33c50b26ee1a4ff5fb104b15012103ff6586e51ef7f128819ed6f1577c0b76e3d37d0e1b222829a8ee02951a0c5596ffffffff028270dc00000000001976a9141b53c5e66a03bee03079d5e6bd48e09b057b998388ace7857100000000001976a9140f358f8d13812b2010634c2d137eb3796a185bcd88ac00000000", "vin": [{"sequence": 4294967295, "scriptSig": {"hex": "4730440220196d723d0a46cc6825e3d4af10d6c53398e42083c2f2c5118f9b5d74ff250a53022050fbe984983cffb401c78f4f1ee764d16340fe0d33c50b26ee1a4ff5fb104b15012103ff6586e51ef7f128819ed6f1577c0b76e3d37d0e1b222829a8ee02951a0c5596", "asm": "30440220196d723d0a46cc6825e3d4af10d6c53398e42083c2f2c5118f9b5d74ff250a53022050fbe984983cffb401c78f4f1ee764d16340fe0d33c50b26ee1a4ff5fb104b15[ALL] 03ff6586e51ef7f128819ed6f1577c0b76e3d37d0e1b222829a8ee02951a0c5596"}, "vout": 0, "txid": "cc808c52391a9bff29a825d4e5a57c94a0706be03c8872a517893ebde07f71a1"}], "txid": "d1c19337d534ae2567d5d60b537a2974d8cf1d9dee4279aae17b77bdc8dbc0ce", "blocktime": 1537876114, "version": 1, "confirmations": 11459, "time": 1537876114, "locktime": 0, "vsize": 225, "size": 225}