{"hash": "d7aa0e1ba128a9572182b473d85bd309a07722d227b397d860d22e7d1e64494b", "blockhash": "0000000000000000000e13cef7c366c0283d82e591d1acd082e914b08063cdf1", "vout": [{"scriptPubKey": {"reqSigs": 1, "hex": "76a9141b5e7b9eb6c08d9637703200d7087f17e51404e888ac", "addresses": ["13ViRy1mDxCyS4SZcGvn5JCgf5YqsxUEsB"], "asm": "OP_DUP OP_HASH160 1b5e7b9eb6c08d9637703200d7087f17e51404e8 OP_EQUALVERIFY OP_CHECKSIG", "type": "pubkeyhash"}, "value": 0.2, "n": 0}, {"scriptPubKey": {"reqSigs": 1, "hex": "001420e8ed5d0253abed435796821986779d050ef9dd", "addresses": ["bc1qyr5w6hgz2w476s6hj6ppnpnhn5zsa7wa4mp0zu"], "asm": "0 20e8ed5d0253abed435796821986779d050ef9dd", "type": "witness_v0_keyhash"}, "value": 0.01989398, "n": 1}], "hex": "010000000001011539377893a0f449a78344f2750b454e104714ddb334f4e7b0bd9d56ce7448d20100000000ffffffff02002d3101000000001976a9141b5e7b9eb6c08d9637703200d7087f17e51404e888ac165b1e000000000016001420e8ed5d0253abed435796821986779d050ef9dd02473044022018b260b6e772df493edf7200e01929069f73e1f2c878bf318deb488b34536acd022004f71896b2fc51385f477cb744ab7d05d9768b9524ac287a636d9aa394f183a1012103826ba1c9fa65182846bebf94075f2894f3c2eed8d23c012c65d778b06130aa0b00000000", "vin": [{"txinwitness": ["3044022018b260b6e772df493edf7200e01929069f73e1f2c878bf318deb488b34536acd022004f71896b2fc51385f477cb744ab7d05d9768b9524ac287a636d9aa394f183a101", "03826ba1c9fa65182846bebf94075f2894f3c2eed8d23c012c65d778b06130aa0b"], "sequence": 4294967295, "scriptSig": {"hex": "", "asm": ""}, "vout": 1, "txid": "d24874ce569dbdb0e7f434b3dd1447104e450b75f24483a749f4a09378373915"}], "txid": "d1c4a6d22bde44ebec592013b34778368100f11cb9bbee40c261f86bfcb18d05", "blocktime": 1537871767, "version": 1, "confirmations": 11495, "time": 1537871767, "locktime": 0, "vsize": 144, "size": 225}