{"hash": "0c34ce5e3115f7e42dbb21fc050e91b5f842ae880585b8b383da79567d986c79", "blockhash": "0000000000000000001f0ddff1eddb255c1121bcd4da4f1bc9a0da00cae72433", "vout": [{"scriptPubKey": {"reqSigs": 1, "hex": "76a914375039f5dedfa1a0ce1e35738321da25790d04bc88ac", "addresses": ["163UGnCJ3xbbUBtvD4rK6a5nkULcVRXXoB"], "asm": "OP_DUP OP_HASH160 375039f5dedfa1a0ce1e35738321da25790d04bc OP_EQUALVERIFY OP_CHECKSIG", "type": "pubkeyhash"}, "value": 0.01433941, "n": 0}, {"scriptPubKey": {"reqSigs": 1, "hex": "a9146eb7112031a211446570ef3fe81d2a3819350dc787", "addresses": ["3BnRZMcGiBvfPiw6G7SfcECx6N97GsSgZh"], "asm": "OP_HASH160 6eb7112031a211446570ef3fe81d2a3819350dc7 OP_EQUAL", "type": "scripthash"}, "value": 0.02251268, "n": 1}], "hex": "01000000000101ef44ede5520292a3d464828b8aaa8246b40ac4b7de6a3bc2b01be3b330da8f460100000023220020c4365bb9b0732079a7e63b2a5f490dca921abce6762f9b67b5a55b320477f302ffffffff0255e11500000000001976a914375039f5dedfa1a0ce1e35738321da25790d04bc88ac045a22000000000017a9146eb7112031a211446570ef3fe81d2a3819350dc787040048304502210086f206acb14098ac726979f2133d2834c8648849dff49170637bc086bce77d93022010a7dffc7aea91a7861d409e412d7eae194de6fdca96eed3427191a27fc3636701483045022100ee9382be455f7ed6c8c808409f040f0db4425fdeb75fdf7fbf96aac128c5fabf022017aa7a4d58a5eda17718781e0b1fc2ad0c7c1f0c96e36b90b394d9599df712080147522103a510001473f5864a43f75e6603c89aff7488e56b077d4c979c1b749161196178210397f564f927d43bb4f9f32ef3dd815dcc604b33d88ed1173d0fcd46dea42c77b252ae00000000", "vin": [{"txinwitness": ["", "304502210086f206acb14098ac726979f2133d2834c8648849dff49170637bc086bce77d93022010a7dffc7aea91a7861d409e412d7eae194de6fdca96eed3427191a27fc3636701", "3045022100ee9382be455f7ed6c8c808409f040f0db4425fdeb75fdf7fbf96aac128c5fabf022017aa7a4d58a5eda17718781e0b1fc2ad0c7c1f0c96e36b90b394d9599df7120801", "522103a510001473f5864a43f75e6603c89aff7488e56b077d4c979c1b749161196178210397f564f927d43bb4f9f32ef3dd815dcc604b33d88ed1173d0fcd46dea42c77b252ae"], "sequence": 4294967295, "scriptSig": {"hex": "220020c4365bb9b0732079a7e63b2a5f490dca921abce6762f9b67b5a55b320477f302", "asm": "0020c4365bb9b0732079a7e63b2a5f490dca921abce6762f9b67b5a55b320477f302"}, "vout": 1, "txid": "468fda30b3e31bb0c23b6adeb7c40ab44682aa8a8b8264d4a3920252e5ed44ef"}], "txid": "d1c90beed814e69eaded0e0b88ac96c888cb3aa7ffa6d8af3f8fc2aba126741f", "blocktime": 1537872018, "version": 1, "confirmations": 11489, "time": 1537872018, "locktime": 0, "vsize": 208, "size": 374}