{"hash": "d1d5ec25a7b7db7ed265d4d1c362348e1f91d0309b3b3ae46f27392bf4420891", "blockhash": "000000000000000000022b45ed06c6f4ccd3cf7fb5ba4856ebd2e58215665228", "vout": [{"scriptPubKey": {"reqSigs": 1, "hex": "76a914604babb4dd10fbdea034a69dbc8fc56bda7929b688ac", "addresses": ["19nAX7PQubHzUQsQF2NunfCjmcmuHLmng5"], "asm": "OP_DUP OP_HASH160 604babb4dd10fbdea034a69dbc8fc56bda7929b6 OP_EQUALVERIFY OP_CHECKSIG", "type": "pubkeyhash"}, "value": 0.03144842, "n": 0}], "hex": "0100000003990a4c6a788ad39411c5f2e8156b9f2d5715594fe128880950e68c41f1b126b5000000006a473044022078c06aa8771dd9e5cd61b87c30cbaaf55a817997cd5ea264e7f60a6042f47d2a02207f77547902c2a18f1aef7bd1019ce1247bf786e87a3228c161b6a458133b4c92012102354bed8ed1b32243e31e8a463f8cc8708d770e2d63ec7a68ebba990b4ba91aa0ffffffff0c3324355fb2d9c6138650501c3f4455276664b4c9763115adb592fac7562705000000006a47304402203b4dc5461b8b063dcbb524c67ef4209d791b53d322840ad5aa53ed80a4ee18ff0220695b77131333da3fb122207e37e1f0062cf2babdfab4444204e45aa007822162012102354bed8ed1b32243e31e8a463f8cc8708d770e2d63ec7a68ebba990b4ba91aa0ffffffff0994d785ea8fa6253ed7c631f601a2689b4806a83c88d0eab8de4089d1aa6228000000006a473044022049eaeea468c0f5e8948521cadd7c24692f65d2636223b813700b4d317f182e0002201b722237375188f8261884b6af75c66c742e2c34a43dc955b17767ac696c05f3012102354bed8ed1b32243e31e8a463f8cc8708d770e2d63ec7a68ebba990b4ba91aa0ffffffff018afc2f00000000001976a914604babb4dd10fbdea034a69dbc8fc56bda7929b688ac00000000", "vin": [{"sequence": 4294967295, "scriptSig": {"hex": "473044022078c06aa8771dd9e5cd61b87c30cbaaf55a817997cd5ea264e7f60a6042f47d2a02207f77547902c2a18f1aef7bd1019ce1247bf786e87a3228c161b6a458133b4c92012102354bed8ed1b32243e31e8a463f8cc8708d770e2d63ec7a68ebba990b4ba91aa0", "asm": "3044022078c06aa8771dd9e5cd61b87c30cbaaf55a817997cd5ea264e7f60a6042f47d2a02207f77547902c2a18f1aef7bd1019ce1247bf786e87a3228c161b6a458133b4c92[ALL] 02354bed8ed1b32243e31e8a463f8cc8708d770e2d63ec7a68ebba990b4ba91aa0"}, "vout": 0, "txid": "b526b1f1418ce650098828e14f5915572d9f6b15e8f2c51194d38a786a4c0a99"}, {"sequence": 4294967295, "scriptSig": {"hex": "47304402203b4dc5461b8b063dcbb524c67ef4209d791b53d322840ad5aa53ed80a4ee18ff0220695b77131333da3fb122207e37e1f0062cf2babdfab4444204e45aa007822162012102354bed8ed1b32243e31e8a463f8cc8708d770e2d63ec7a68ebba990b4ba91aa0", "asm": "304402203b4dc5461b8b063dcbb524c67ef4209d791b53d322840ad5aa53ed80a4ee18ff0220695b77131333da3fb122207e37e1f0062cf2babdfab4444204e45aa007822162[ALL] 02354bed8ed1b32243e31e8a463f8cc8708d770e2d63ec7a68ebba990b4ba91aa0"}, "vout": 0, "txid": "052756c7fa92b5ad153176c9b464662755443f1c50508613c6d9b25f3524330c"}, {"sequence": 4294967295, "scriptSig": {"hex": "473044022049eaeea468c0f5e8948521cadd7c24692f65d2636223b813700b4d317f182e0002201b722237375188f8261884b6af75c66c742e2c34a43dc955b17767ac696c05f3012102354bed8ed1b32243e31e8a463f8cc8708d770e2d63ec7a68ebba990b4ba91aa0", "asm": "3044022049eaeea468c0f5e8948521cadd7c24692f65d2636223b813700b4d317f182e0002201b722237375188f8261884b6af75c66c742e2c34a43dc955b17767ac696c05f3[ALL] 02354bed8ed1b32243e31e8a463f8cc8708d770e2d63ec7a68ebba990b4ba91aa0"}, "vout": 0, "txid": "2862aad18940deb8ead0883ca806489b68a201f631c6d73e25a68fea85d79409"}], "txid": "d1d5ec25a7b7db7ed265d4d1c362348e1f91d0309b3b3ae46f27392bf4420891", "blocktime": 1537869901, "version": 1, "confirmations": 11522, "time": 1537869901, "locktime": 0, "vsize": 485, "size": 485}