{"hash": "d1d7bdb0f27bda9ac92b90028efc85565e11067b61c858087f37fcb360a63f0f", "blockhash": "00000000000000000017f5eb5941039fbcee6240d03bc1f2f8e35350df66a1d8", "vout": [{"scriptPubKey": {"reqSigs": 1, "hex": "76a914adba8dfa947b64e4be05c07768b99443cc2a70e888ac", "addresses": ["1GqbPEDU49BKkD8jemm4jmrCv8hbBRHwPz"], "asm": "OP_DUP OP_HASH160 adba8dfa947b64e4be05c07768b99443cc2a70e8 OP_EQUALVERIFY OP_CHECKSIG", "type": "pubkeyhash"}, "value": 0.07842148, "n": 0}, {"scriptPubKey": {"reqSigs": 1, "hex": "a914db0407773dc760db51f3cd1d0b7b8d47ddf1b7ae87", "addresses": ["3Mf4jWHiKPWLy8dawteQSH28eJBxJQEdJX"], "asm": "OP_HASH160 db0407773dc760db51f3cd1d0b7b8d47ddf1b7ae OP_EQUAL", "type": "scripthash"}, "value": 0.11726396, "n": 1}], "hex": "0100000002fc99a34062ea988ec36ab3da4fc18d623e91d2f5e6eb56e9134a69fc14327704030000006a47304402201a69bb93255afc6bb7621f681f3cee00ee14b3354bb6ecf8c156a6957f9009fa02202a384339278e0057793596693a6d14789f913d0aa4d77906d60ff4f33253a69d012102172e29b32b6198b777256d52edf8806de1717200b9ba3b312bf424dc49553121ffffffffb20ba81ae421fc723657f46243bd8af7b6db659af446c93b338efa3ab0c59271010000006a47304402207ea0cadbb19a1eccecb11cd1edfb628e39e243caf478e57dba73ca4a1dc574b302201be50d8056eb0f0f570ff3777211d21967d6d0d6c41440395b80a7b3e4bf801001210243d5c15c125f7b0d71dad4c6c816c360dd3c9f8c5a39479410fb6d631e7b0386ffffffff0264a97700000000001976a914adba8dfa947b64e4be05c07768b99443cc2a70e888ac3ceeb2000000000017a914db0407773dc760db51f3cd1d0b7b8d47ddf1b7ae8700000000", "vin": [{"sequence": 4294967295, "scriptSig": {"hex": "47304402201a69bb93255afc6bb7621f681f3cee00ee14b3354bb6ecf8c156a6957f9009fa02202a384339278e0057793596693a6d14789f913d0aa4d77906d60ff4f33253a69d012102172e29b32b6198b777256d52edf8806de1717200b9ba3b312bf424dc49553121", "asm": "304402201a69bb93255afc6bb7621f681f3cee00ee14b3354bb6ecf8c156a6957f9009fa02202a384339278e0057793596693a6d14789f913d0aa4d77906d60ff4f33253a69d[ALL] 02172e29b32b6198b777256d52edf8806de1717200b9ba3b312bf424dc49553121"}, "vout": 3, "txid": "04773214fc694a13e956ebe6f5d2913e628dc14fdab36ac38e98ea6240a399fc"}, {"sequence": 4294967295, "scriptSig": {"hex": "47304402207ea0cadbb19a1eccecb11cd1edfb628e39e243caf478e57dba73ca4a1dc574b302201be50d8056eb0f0f570ff3777211d21967d6d0d6c41440395b80a7b3e4bf801001210243d5c15c125f7b0d71dad4c6c816c360dd3c9f8c5a39479410fb6d631e7b0386", "asm": "304402207ea0cadbb19a1eccecb11cd1edfb628e39e243caf478e57dba73ca4a1dc574b302201be50d8056eb0f0f570ff3777211d21967d6d0d6c41440395b80a7b3e4bf8010[ALL] 0243d5c15c125f7b0d71dad4c6c816c360dd3c9f8c5a39479410fb6d631e7b0386"}, "vout": 1, "txid": "7192c5b03afa8e333bc946f49a65dbb6f78abd4362f4573672fc21e41aa80bb2"}], "txid": "d1d7bdb0f27bda9ac92b90028efc85565e11067b61c858087f37fcb360a63f0f", "blocktime": 1537874412, "version": 1, "confirmations": 11467, "time": 1537874412, "locktime": 0, "vsize": 370, "size": 370}