{"hash": "d1d92711c36242dcf6fec9cd532d3eb59115f31751c5e37babe87e42576a8310", "blockhash": "0000000000000000001f0ddff1eddb255c1121bcd4da4f1bc9a0da00cae72433", "vout": [{"scriptPubKey": {"reqSigs": 1, "hex": "76a914cd293c35cfbf1105ea06b6a3ed9609c72cee814888ac", "addresses": ["1KhnvQ28p5zaQYEdRoMZ8HeKWSFN4tyNsB"], "asm": "OP_DUP OP_HASH160 cd293c35cfbf1105ea06b6a3ed9609c72cee8148 OP_EQUALVERIFY OP_CHECKSIG", "type": "pubkeyhash"}, "value": 0.01103171, "n": 0}, {"scriptPubKey": {"reqSigs": 1, "hex": "76a914a8a9f0a20a3e1e410df4510c82ec4568f1a773f988ac", "addresses": ["1GNp6s6qWzNXsdpmkiJkeAWJ6YZLyEod5J"], "asm": "OP_DUP OP_HASH160 a8a9f0a20a3e1e410df4510c82ec4568f1a773f9 OP_EQUALVERIFY OP_CHECKSIG", "type": "pubkeyhash"}, "value": 0.002351, "n": 1}], "hex": "01000000010effce5466b12084fa2869c2f095165c21c414292a3aec2ff518714826000c33000000006a47304402206c5a3d406101b1c63bb52f0ee03008ee353095408c254c6d8d90e6b9970ebef6022076538d4c4d5b468382f17d562f692e298255ae5728370913bf5201d1c31cc0420121034f40936dfad18d2cbc101939ac03b7d965a92aa1bb4deb2680316e7bb1e121b4ffffffff0243d51000000000001976a914cd293c35cfbf1105ea06b6a3ed9609c72cee814888ac5c960300000000001976a914a8a9f0a20a3e1e410df4510c82ec4568f1a773f988ac00000000", "vin": [{"sequence": 4294967295, "scriptSig": {"hex": "47304402206c5a3d406101b1c63bb52f0ee03008ee353095408c254c6d8d90e6b9970ebef6022076538d4c4d5b468382f17d562f692e298255ae5728370913bf5201d1c31cc0420121034f40936dfad18d2cbc101939ac03b7d965a92aa1bb4deb2680316e7bb1e121b4", "asm": "304402206c5a3d406101b1c63bb52f0ee03008ee353095408c254c6d8d90e6b9970ebef6022076538d4c4d5b468382f17d562f692e298255ae5728370913bf5201d1c31cc042[ALL] 034f40936dfad18d2cbc101939ac03b7d965a92aa1bb4deb2680316e7bb1e121b4"}, "vout": 0, "txid": "330c0026487118f52fec3a2a2914c4215c1695f0c26928fa8420b16654ceff0e"}], "txid": "d1d92711c36242dcf6fec9cd532d3eb59115f31751c5e37babe87e42576a8310", "blocktime": 1537872018, "version": 1, "confirmations": 11489, "time": 1537872018, "locktime": 0, "vsize": 225, "size": 225}