{"hash": "d1e7ee7e649a79641102178f5dd1f28665f25457ac7b4e947b59b2dde10584f3", "blockhash": "0000000000000000001cda96e906b7601b7a6fb1a3b62bca570a9e5d8f4b3de1", "vout": [{"scriptPubKey": {"reqSigs": 1, "hex": "76a9144738801a38140106cf2ac1443cb8d3f4e9b8cab788ac", "addresses": ["17VafLXFdmsaDw4mURDLFP7y4qKnjooMUG"], "asm": "OP_DUP OP_HASH160 4738801a38140106cf2ac1443cb8d3f4e9b8cab7 OP_EQUALVERIFY OP_CHECKSIG", "type": "pubkeyhash"}, "value": 0.00031224, "n": 0}, {"scriptPubKey": {"reqSigs": 1, "hex": "76a914e3532d16360b4a96846070bffcf51aa9b578ba9888ac", "addresses": ["1Miz2iyMpQaNGpSAaybZDe3HybvMmmQi6x"], "asm": "OP_DUP OP_HASH160 e3532d16360b4a96846070bffcf51aa9b578ba98 OP_EQUALVERIFY OP_CHECKSIG", "type": "pubkeyhash"}, "value": 0.00034724, "n": 1}], "hex": "0100000001ac27fa1ef485c88c41734689fc992bc2687c4ba55f5b4480b6bdcf19111fa6ae010000006a47304402201720423914a9bebf3475dc0602d26f716399abb8788c4d137d6c0874d9904597022051be2fa1b3e20ed25242aa9a893ea3a992551f3ec317d0f96146851ea90c5ffe0121023101d2aaef5ae57bd6a0c5d51c25f4bd53fe1a9a167ccb9ed20e75794f5b0873ffffffff02f8790000000000001976a9144738801a38140106cf2ac1443cb8d3f4e9b8cab788aca4870000000000001976a914e3532d16360b4a96846070bffcf51aa9b578ba9888ac00000000", "vin": [{"sequence": 4294967295, "scriptSig": {"hex": "47304402201720423914a9bebf3475dc0602d26f716399abb8788c4d137d6c0874d9904597022051be2fa1b3e20ed25242aa9a893ea3a992551f3ec317d0f96146851ea90c5ffe0121023101d2aaef5ae57bd6a0c5d51c25f4bd53fe1a9a167ccb9ed20e75794f5b0873", "asm": "304402201720423914a9bebf3475dc0602d26f716399abb8788c4d137d6c0874d9904597022051be2fa1b3e20ed25242aa9a893ea3a992551f3ec317d0f96146851ea90c5ffe[ALL] 023101d2aaef5ae57bd6a0c5d51c25f4bd53fe1a9a167ccb9ed20e75794f5b0873"}, "vout": 1, "txid": "aea61f1119cfbdb680445b5fa54b7c68c22b99fc894673418cc885f41efa27ac"}], "txid": "d1e7ee7e649a79641102178f5dd1f28665f25457ac7b4e947b59b2dde10584f3", "blocktime": 1537873282, "version": 1, "confirmations": 11485, "time": 1537873282, "locktime": 0, "vsize": 225, "size": 225}