{"hash": "d1ed0bf37e945f71b90613edcd1bc43d48db8d5b73fb90e4a68d4a79b21f47ed", "blockhash": "0000000000000000000baef3f32e3676a92c3b2e5da21b426e4f302fc371ce76", "vout": [{"scriptPubKey": {"reqSigs": 1, "hex": "76a91401ebe1bbdac7723cee6cea4d83c71fbdbe1643cc88ac", "addresses": ["1BAFYbSdgfh8vVSyuCsVFq1fVKg8mATaS"], "asm": "OP_DUP OP_HASH160 01ebe1bbdac7723cee6cea4d83c71fbdbe1643cc OP_EQUALVERIFY OP_CHECKSIG", "type": "pubkeyhash"}, "value": 0.04, "n": 0}, {"scriptPubKey": {"reqSigs": 1, "hex": "a9144f06b8e0ee79970d7c660768d9b675cffdd9d71e87", "addresses": ["38tsMmFZ2jtiHuQ2g4BnuNg7UF6wb9ZoGn"], "asm": "OP_HASH160 4f06b8e0ee79970d7c660768d9b675cffdd9d71e OP_EQUAL", "type": "scripthash"}, "value": 0.19330226, "n": 1}], "hex": "01000000013e12130d52b55888efdec6c560adaef3ed7a82ca6664a368ad0471ce6c21d6f201000000fc00473044022048d15813898321bd6de7437d1c6c1445d3364fc4878b210fb836117f800885d202207427d09a1f272d96ec37f5ce8bf41c2edc1ed8b7c3d2e4f9a1ed54f8f724916301473044022039a08c825bad799969734196f67f022a20c9f76d19cdee1e7c342cb4377a1789022045f09ac0fb1125301da24b96c4bfd1fa4929b0b173e07f921ac119cf89b9da2a014c695221028dd09f2f5922e925ad272dec3b6a1800163b130acf5cc505dd72ba7f193ce8ca210300c59c0a4beb1ac8dcfba2aec40adc1fc7bbc13a52b6c3ea9f2481e3ae044aa12103b329c91d45dfab0a0ff99f4ee4ab6ed42a72070b8dbf3288cb532e73e407517a53aefdffffff0200093d00000000001976a91401ebe1bbdac7723cee6cea4d83c71fbdbe1643cc88acb2f426010000000017a9144f06b8e0ee79970d7c660768d9b675cffdd9d71e8716490800", "vin": [{"sequence": 4294967293, "scriptSig": {"hex": "00473044022048d15813898321bd6de7437d1c6c1445d3364fc4878b210fb836117f800885d202207427d09a1f272d96ec37f5ce8bf41c2edc1ed8b7c3d2e4f9a1ed54f8f724916301473044022039a08c825bad799969734196f67f022a20c9f76d19cdee1e7c342cb4377a1789022045f09ac0fb1125301da24b96c4bfd1fa4929b0b173e07f921ac119cf89b9da2a014c695221028dd09f2f5922e925ad272dec3b6a1800163b130acf5cc505dd72ba7f193ce8ca210300c59c0a4beb1ac8dcfba2aec40adc1fc7bbc13a52b6c3ea9f2481e3ae044aa12103b329c91d45dfab0a0ff99f4ee4ab6ed42a72070b8dbf3288cb532e73e407517a53ae", "asm": "0 3044022048d15813898321bd6de7437d1c6c1445d3364fc4878b210fb836117f800885d202207427d09a1f272d96ec37f5ce8bf41c2edc1ed8b7c3d2e4f9a1ed54f8f7249163[ALL] 3044022039a08c825bad799969734196f67f022a20c9f76d19cdee1e7c342cb4377a1789022045f09ac0fb1125301da24b96c4bfd1fa4929b0b173e07f921ac119cf89b9da2a[ALL] 5221028dd09f2f5922e925ad272dec3b6a1800163b130acf5cc505dd72ba7f193ce8ca210300c59c0a4beb1ac8dcfba2aec40adc1fc7bbc13a52b6c3ea9f2481e3ae044aa12103b329c91d45dfab0a0ff99f4ee4ab6ed42a72070b8dbf3288cb532e73e407517a53ae"}, "vout": 1, "txid": "f2d6216cce7104ad68a36466ca827aedf3aead60c5c6deef8858b5520d13123e"}], "txid": "d1ed0bf37e945f71b90613edcd1bc43d48db8d5b73fb90e4a68d4a79b21f47ed", "blocktime": 1537876114, "version": 1, "confirmations": 11460, "time": 1537876114, "locktime": 542998, "vsize": 369, "size": 369}