{"hash": "d1f11234e674986f15de987d3ffa08768a55ec336a383a3eb5ceb6df428ec0bf", "blockhash": "0000000000000000000e13cef7c366c0283d82e591d1acd082e914b08063cdf1", "vout": [{"scriptPubKey": {"reqSigs": 1, "hex": "76a9140c49dd1511b51bf30fa36d2b451ee080d2e4ae5388ac", "addresses": ["127ybSEXbeEdy5hGcq2xYDMRU5AU1BarrV"], "asm": "OP_DUP OP_HASH160 0c49dd1511b51bf30fa36d2b451ee080d2e4ae53 OP_EQUALVERIFY OP_CHECKSIG", "type": "pubkeyhash"}, "value": 0.015866, "n": 0}], "hex": "0100000001ff0c139be8881d31a2f5cbb21ba1d45c8483aa6745b401ccd259ca4c42ef6c37080000006b4830450221009cc1473bf69a28235ec69efb39ce324105b3db468a182075412fd59400d60cc3022034d9cad2ececc67011c9c45bf64102f4944cded76521d610cfefb35d519fbc1a012102120d8f009cfcdff1608495cf2ec53f0516425534160474d03e24ab78a395827bffffffff01a8351800000000001976a9140c49dd1511b51bf30fa36d2b451ee080d2e4ae5388ac00000000", "vin": [{"sequence": 4294967295, "scriptSig": {"hex": "4830450221009cc1473bf69a28235ec69efb39ce324105b3db468a182075412fd59400d60cc3022034d9cad2ececc67011c9c45bf64102f4944cded76521d610cfefb35d519fbc1a012102120d8f009cfcdff1608495cf2ec53f0516425534160474d03e24ab78a395827b", "asm": "30450221009cc1473bf69a28235ec69efb39ce324105b3db468a182075412fd59400d60cc3022034d9cad2ececc67011c9c45bf64102f4944cded76521d610cfefb35d519fbc1a[ALL] 02120d8f009cfcdff1608495cf2ec53f0516425534160474d03e24ab78a395827b"}, "vout": 8, "txid": "376cef424cca59d2cc01b44567aa83845cd4a11bb2cbf5a2311d88e89b130cff"}], "txid": "d1f11234e674986f15de987d3ffa08768a55ec336a383a3eb5ceb6df428ec0bf", "blocktime": 1537871767, "version": 1, "confirmations": 11490, "time": 1537871767, "locktime": 0, "vsize": 192, "size": 192}