{"hash": "d1f7b70a1c52cd93845090084385890ddc48d57f8d8640384441884b09781505", "blockhash": "00000000000000000024a2167bbff67b0be802c0b01cdd79e6331c2be6459f87", "vout": [{"scriptPubKey": {"reqSigs": 1, "hex": "76a91491dc6e06ccd2691edc11ed504e107a1ef033587d88ac", "addresses": ["1EJF3Yf7ArKWLx6Ef2GGxaJ4yBjKQSPBT5"], "asm": "OP_DUP OP_HASH160 91dc6e06ccd2691edc11ed504e107a1ef033587d OP_EQUALVERIFY OP_CHECKSIG", "type": "pubkeyhash"}, "value": 3.0, "n": 0}, {"scriptPubKey": {"reqSigs": 1, "hex": "a9148de82aeaaf0655606f229c4f37839e27d0e454ef87", "addresses": ["3EdMKt92ZBefRBEwgDDBQBkCvQQ7Cra1h5"], "asm": "OP_HASH160 8de82aeaaf0655606f229c4f37839e27d0e454ef OP_EQUAL", "type": "scripthash"}, "value": 6.3238849, "n": 1}, {"scriptPubKey": {"reqSigs": 1, "hex": "a9148f9fb2e43bc9fe548139052794d41488913bba0d87", "addresses": ["3EnRs3QbHK1LJGvXDpaipMWB8QFhTcsDZ7"], "asm": "OP_HASH160 8f9fb2e43bc9fe548139052794d41488913bba0d OP_EQUAL", "type": "scripthash"}, "value": 0.26639807, "n": 2}, {"scriptPubKey": {"reqSigs": 1, "hex": "a9141f425e591507abf790d9acd29c1d339a7a140fe787", "addresses": ["34YJNriTwLP2TZ1x2en1n5bCGZ3oeLBFYL"], "asm": "OP_HASH160 1f425e591507abf790d9acd29c1d339a7a140fe7 OP_EQUAL", "type": "scripthash"}, "value": 0.40899603, "n": 3}], "hex": "01000000016000bfc6d99ceeea7db775c9d595a4cb7278d9f80cae8b5ef20b6fbf1323ca9300000000fdfe0000483045022100ebed45f5fdc92fcc2e88a54c0756ad10c1bfcdd12979ec2e21576d6cc61f823802207c53ff1dc3f3546c48f3fd205d6c319ad99439d56735fd9ebc0c6ff6285939bb01483045022100903511fa59541595a1efa0f3f35a986d24703c9079c9189c69e596231900a679022006c3f0bd05b7bf3ec59db808fe98eef505f95c023825b56270df553c76939f67014c69522103d345296e083e22c2f476b3c8587bdf79024d88ae983bfe0bbdf90dc07ccbd54d21036127dcbe29c32033487a91f1f0046285e19f8e6a27904adffb24a8e17fa0b56121038dd38af3454e6feb4104a8b023eb1a7cdee31811a76e6fa8fb74972bcc2bc85d53aeffffffff0400a3e111000000001976a91491dc6e06ccd2691edc11ed504e107a1ef033587d88ac8a7bb1250000000017a9148de82aeaaf0655606f229c4f37839e27d0e454ef87bf7d96010000000017a9148f9fb2e43bc9fe548139052794d41488913bba0d87131470020000000017a9141f425e591507abf790d9acd29c1d339a7a140fe78700000000", "vin": [{"sequence": 4294967295, "scriptSig": {"hex": "00483045022100ebed45f5fdc92fcc2e88a54c0756ad10c1bfcdd12979ec2e21576d6cc61f823802207c53ff1dc3f3546c48f3fd205d6c319ad99439d56735fd9ebc0c6ff6285939bb01483045022100903511fa59541595a1efa0f3f35a986d24703c9079c9189c69e596231900a679022006c3f0bd05b7bf3ec59db808fe98eef505f95c023825b56270df553c76939f67014c69522103d345296e083e22c2f476b3c8587bdf79024d88ae983bfe0bbdf90dc07ccbd54d21036127dcbe29c32033487a91f1f0046285e19f8e6a27904adffb24a8e17fa0b56121038dd38af3454e6feb4104a8b023eb1a7cdee31811a76e6fa8fb74972bcc2bc85d53ae", "asm": "0 3045022100ebed45f5fdc92fcc2e88a54c0756ad10c1bfcdd12979ec2e21576d6cc61f823802207c53ff1dc3f3546c48f3fd205d6c319ad99439d56735fd9ebc0c6ff6285939bb[ALL] 3045022100903511fa59541595a1efa0f3f35a986d24703c9079c9189c69e596231900a679022006c3f0bd05b7bf3ec59db808fe98eef505f95c023825b56270df553c76939f67[ALL] 522103d345296e083e22c2f476b3c8587bdf79024d88ae983bfe0bbdf90dc07ccbd54d21036127dcbe29c32033487a91f1f0046285e19f8e6a27904adffb24a8e17fa0b56121038dd38af3454e6feb4104a8b023eb1a7cdee31811a76e6fa8fb74972bcc2bc85d53ae"}, "vout": 0, "txid": "93ca2313bf6f0bf25e8bae0cf8d97872cba495d5c975b77deaee9cd9c6bf0060"}], "txid": "d1f7b70a1c52cd93845090084385890ddc48d57f8d8640384441884b09781505", "blocktime": 1537870564, "version": 1, "confirmations": 11515, "time": 1537870564, "locktime": 0, "vsize": 437, "size": 437}