{"hash": "90034e79fff7427d9f83b5a311577005b77b836e1defcff08634a4dd1aa436bc", "blockhash": "00000000000000000024a2167bbff67b0be802c0b01cdd79e6331c2be6459f87", "vout": [{"scriptPubKey": {"reqSigs": 1, "hex": "a9144759d66f85cf9ee457086078f88725c579ba1de487", "addresses": ["38CHXC7ChqHYevPyL47EM1njpwPddcUQDN"], "asm": "OP_HASH160 4759d66f85cf9ee457086078f88725c579ba1de4 OP_EQUAL", "type": "scripthash"}, "value": 0.296227, "n": 0}, {"scriptPubKey": {"reqSigs": 1, "hex": "a9147ad63b89128bf17ff09fd8c0c573b10bded2854587", "addresses": ["3CtX15xbeKuQbUJnoefP49TXciA5JBidq2"], "asm": "OP_HASH160 7ad63b89128bf17ff09fd8c0c573b10bded28545 OP_EQUAL", "type": "scripthash"}, "value": 0.04332922, "n": 1}], "hex": "010000000001063996a3e6dfff464a1067ad418382ccb9d0d5bc9c44a8130324ebf029b2b9a5100200000017160014000b814f2c1a19852357ed615a08ec572a781ed1fffffffff106d3c3198e9cd750a609ba06f84eda57fa44b9ddb4c45e631d0ecea71d30c302000000171600142572fd82ce13d3acce52164941f93b692be8e9e5ffffffff3e9ab80420c03d3faedf89412c45bbd0639b8feeb482e39b9ec551c43c5c846b0200000017160014000b814f2c1a19852357ed615a08ec572a781ed1ffffffff9b094f2ce2a8eb8514a5f8c8bc1d9562d27cd0137ffeb54df10449b48dd8a8280200000017160014000b814f2c1a19852357ed615a08ec572a781ed1ffffffff208df173fdb2343bf33f0d899d1b7cd66ef5df74f9100a939b994b9998ec158e0200000017160014000b814f2c1a19852357ed615a08ec572a781ed1ffffffff3780dd087285c966b309b18dff2fb422a52b60b4b35a28c0b551b5ac53666f7902000000171600147b5939465f3c42d4087326098cadabfcf5877c0effffffff02ac01c4010000000017a9144759d66f85cf9ee457086078f88725c579ba1de4877a1d42000000000017a9147ad63b89128bf17ff09fd8c0c573b10bded28545870247304402205e84c2a32ab1d8c7002fbfa9cb617642ff64297141562b5cd89534ad5568b19702200d628a9cccd722546e3f60f1d3640a8f358a50c6fe838e69516458e45195e95c012102aad79950b2c2af3689e8644c89e9d10dff06c2d8926200496b92e9f7ccb0304c0247304402201468ee4c0fa193c822a79913a84f6eb045e15eb647c9ae44496f0fd43abbf95f02206d459d38ada2e256ab722b455f06a74a337a9df5a053b5c92bbdb58bd4b8db62012102f711144cf1d35a0f109e999197446befc95648f5912bc252d7fffe677861dbdf02473044022020af963ea0d8426aff1863825f758c0b2b7b01fa0f2dbfd1b875bd23756f74f4022068d4a98ec1ff93acc8bfd406055b3083205420a4c81bde551967af5c9861d26e012102aad79950b2c2af3689e8644c89e9d10dff06c2d8926200496b92e9f7ccb0304c02483045022100c6a91306872a991fc551386dba2cdbed0fd758221f82bdfc53711922b4501c78022071d1620aaee312e385e3214a2583a5c588b1f08a7393074b91d3cf7323132fdd012102aad79950b2c2af3689e8644c89e9d10dff06c2d8926200496b92e9f7ccb0304c02473044022004b42049ad65fccda839c0d1b81ffc9dd6402d87809853d4d38418850a20dbc402206c823ef8387632f6deaad988b439e1d83a8dedac1827d0850a1e5aff24ad6f21012102aad79950b2c2af3689e8644c89e9d10dff06c2d8926200496b92e9f7ccb0304c02473044022036d976ef9b2625d2377c7c2a8e98760688022d64c6ce3924469056fb85d38387022019094a2f074f312b771ef978c49855ab57336fb5bf08a7e2688e9f351cf75f25012103acc765727d0f320166ee530e98a4712d72a1480442b8456540407f550b4c252200000000", "vin": [{"txinwitness": ["304402205e84c2a32ab1d8c7002fbfa9cb617642ff64297141562b5cd89534ad5568b19702200d628a9cccd722546e3f60f1d3640a8f358a50c6fe838e69516458e45195e95c01", "02aad79950b2c2af3689e8644c89e9d10dff06c2d8926200496b92e9f7ccb0304c"], "sequence": 4294967295, "scriptSig": {"hex": "160014000b814f2c1a19852357ed615a08ec572a781ed1", "asm": "0014000b814f2c1a19852357ed615a08ec572a781ed1"}, "vout": 2, "txid": "10a5b9b229f0eb240313a8449cbcd5d0b9cc828341ad67104a46ffdfe6a39639"}, {"txinwitness": ["304402201468ee4c0fa193c822a79913a84f6eb045e15eb647c9ae44496f0fd43abbf95f02206d459d38ada2e256ab722b455f06a74a337a9df5a053b5c92bbdb58bd4b8db6201", "02f711144cf1d35a0f109e999197446befc95648f5912bc252d7fffe677861dbdf"], "sequence": 4294967295, "scriptSig": {"hex": "1600142572fd82ce13d3acce52164941f93b692be8e9e5", "asm": "00142572fd82ce13d3acce52164941f93b692be8e9e5"}, "vout": 2, "txid": "c3301da7ce0e1d635ec4b4ddb944fa57da4ef806ba09a650d79c8e19c3d306f1"}, {"txinwitness": ["3044022020af963ea0d8426aff1863825f758c0b2b7b01fa0f2dbfd1b875bd23756f74f4022068d4a98ec1ff93acc8bfd406055b3083205420a4c81bde551967af5c9861d26e01", "02aad79950b2c2af3689e8644c89e9d10dff06c2d8926200496b92e9f7ccb0304c"], "sequence": 4294967295, "scriptSig": {"hex": "160014000b814f2c1a19852357ed615a08ec572a781ed1", "asm": "0014000b814f2c1a19852357ed615a08ec572a781ed1"}, "vout": 2, "txid": "6b845c3cc451c59e9be382b4ee8f9b63d0bb452c4189dfae3f3dc02004b89a3e"}, {"txinwitness": ["3045022100c6a91306872a991fc551386dba2cdbed0fd758221f82bdfc53711922b4501c78022071d1620aaee312e385e3214a2583a5c588b1f08a7393074b91d3cf7323132fdd01", "02aad79950b2c2af3689e8644c89e9d10dff06c2d8926200496b92e9f7ccb0304c"], "sequence": 4294967295, "scriptSig": {"hex": "160014000b814f2c1a19852357ed615a08ec572a781ed1", "asm": "0014000b814f2c1a19852357ed615a08ec572a781ed1"}, "vout": 2, "txid": "28a8d88db44904f14db5fe7f13d07cd262951dbcc8f8a51485eba8e22c4f099b"}, {"txinwitness": ["3044022004b42049ad65fccda839c0d1b81ffc9dd6402d87809853d4d38418850a20dbc402206c823ef8387632f6deaad988b439e1d83a8dedac1827d0850a1e5aff24ad6f2101", "02aad79950b2c2af3689e8644c89e9d10dff06c2d8926200496b92e9f7ccb0304c"], "sequence": 4294967295, "scriptSig": {"hex": "160014000b814f2c1a19852357ed615a08ec572a781ed1", "asm": "0014000b814f2c1a19852357ed615a08ec572a781ed1"}, "vout": 2, "txid": "8e15ec98994b999b930a10f974dff56ed67c1b9d890d3ff33b34b2fd73f18d20"}, {"txinwitness": ["3044022036d976ef9b2625d2377c7c2a8e98760688022d64c6ce3924469056fb85d38387022019094a2f074f312b771ef978c49855ab57336fb5bf08a7e2688e9f351cf75f2501", "03acc765727d0f320166ee530e98a4712d72a1480442b8456540407f550b4c2522"], "sequence": 4294967295, "scriptSig": {"hex": "1600147b5939465f3c42d4087326098cadabfcf5877c0e", "asm": "00147b5939465f3c42d4087326098cadabfcf5877c0e"}, "vout": 2, "txid": "796f6653acb551b5c0285ab3b4602ba522b42fff8db109b366c9857208dd8037"}], "txid": "d200acae455162c989e3822a3ccbdfd4e8117fe9525018d7c509ad019c7457d0", "blocktime": 1537870564, "version": 1, "confirmations": 11515, "time": 1537870564, "locktime": 0, "vsize": 620, "size": 1103}