{"hash": "d206018f529c218d32222a4de9b82525f4c941bd617f2a3a096b6699f54a6a89", "blockhash": "0000000000000000001cda96e906b7601b7a6fb1a3b62bca570a9e5d8f4b3de1", "vout": [{"scriptPubKey": {"reqSigs": 1, "hex": "76a914d8998023246dcf410371aa6f101de9fdf40b75e888ac", "addresses": ["1LkGqqhRzn1VogYXFgs92T7bqkYhCMPpm6"], "asm": "OP_DUP OP_HASH160 d8998023246dcf410371aa6f101de9fdf40b75e8 OP_EQUALVERIFY OP_CHECKSIG", "type": "pubkeyhash"}, "value": 9.687e-05, "n": 0}, {"scriptPubKey": {"reqSigs": 1, "hex": "76a9146cb856c90937dd394892c05bfbac76aa9ff60b4888ac", "addresses": ["1AuropM2c9UcGLbdJTiNZGQ7Evu64c1Fp3"], "asm": "OP_DUP OP_HASH160 6cb856c90937dd394892c05bfbac76aa9ff60b48 OP_EQUALVERIFY OP_CHECKSIG", "type": "pubkeyhash"}, "value": 0.04731648, "n": 1}], "hex": "01000000020d02b98620dc68464e6fecf030cafdaf87f2842d724f4f11c9108d7a6da92c32010000006b483045022100bc2af9145745c3da49d4591ef0be45d81f2d1f8064e75a4240c6070fc8a49cae022030f55ce0d971b104744c09b3e00922273a9d5685aa31c1c35740a7cd6146d4010121024d78d8f63ac610a0c2917df759ad65422e951e34207aefb79bcd4709dcc24806ffffffff26797ac7e702c79ecb0530ae1c1c8c39b493fb122665dfddc222eeea52c29060000000006a473044022070810689b60786bdda3143ab1146d148d0a78006d716ef5394e70d821a1804750220716cc98a03a96b8c1112a3f508f8431ab8f17302ec8987eefb434873d1f82dfe01210377ba034b69caebd926aac19ad40f26beb2feb4e873376c2dc51055d51210186effffffff02d7250000000000001976a914d8998023246dcf410371aa6f101de9fdf40b75e888ac00334800000000001976a9146cb856c90937dd394892c05bfbac76aa9ff60b4888ac00000000", "vin": [{"sequence": 4294967295, "scriptSig": {"hex": "483045022100bc2af9145745c3da49d4591ef0be45d81f2d1f8064e75a4240c6070fc8a49cae022030f55ce0d971b104744c09b3e00922273a9d5685aa31c1c35740a7cd6146d4010121024d78d8f63ac610a0c2917df759ad65422e951e34207aefb79bcd4709dcc24806", "asm": "3045022100bc2af9145745c3da49d4591ef0be45d81f2d1f8064e75a4240c6070fc8a49cae022030f55ce0d971b104744c09b3e00922273a9d5685aa31c1c35740a7cd6146d401[ALL] 024d78d8f63ac610a0c2917df759ad65422e951e34207aefb79bcd4709dcc24806"}, "vout": 1, "txid": "322ca96d7a8d10c9114f4f722d84f287affdca30f0ec6f4e4668dc2086b9020d"}, {"sequence": 4294967295, "scriptSig": {"hex": "473044022070810689b60786bdda3143ab1146d148d0a78006d716ef5394e70d821a1804750220716cc98a03a96b8c1112a3f508f8431ab8f17302ec8987eefb434873d1f82dfe01210377ba034b69caebd926aac19ad40f26beb2feb4e873376c2dc51055d51210186e", "asm": "3044022070810689b60786bdda3143ab1146d148d0a78006d716ef5394e70d821a1804750220716cc98a03a96b8c1112a3f508f8431ab8f17302ec8987eefb434873d1f82dfe[ALL] 0377ba034b69caebd926aac19ad40f26beb2feb4e873376c2dc51055d51210186e"}, "vout": 0, "txid": "6090c252eaee22c2dddf652612fb93b4398c1c1cae3005cb9ec702e7c77a7926"}], "txid": "d206018f529c218d32222a4de9b82525f4c941bd617f2a3a096b6699f54a6a89", "blocktime": 1537873282, "version": 1, "confirmations": 11484, "time": 1537873282, "locktime": 0, "vsize": 373, "size": 373}