{"hash": "d20aced8a6d7096f9e0fd12eb179d500f1cb858dffea7b039524635403109d86", "blockhash": "00000000000000000004ffacab907a6b429b9a5745fa0b75af4234bf69dd7176", "vout": [{"scriptPubKey": {"reqSigs": 1, "hex": "76a914c5b56a51e604d71829d808fe2e5ab040d8f9120c88ac", "addresses": ["1K2PSkMTq9A1WpHobAVm35Z1zwmf8UdR6d"], "asm": "OP_DUP OP_HASH160 c5b56a51e604d71829d808fe2e5ab040d8f9120c OP_EQUALVERIFY OP_CHECKSIG", "type": "pubkeyhash"}, "value": 16.1688853, "n": 0}, {"scriptPubKey": {"reqSigs": 1, "hex": "76a914ed1e2ec6bf884efd107e0f7c592720e8a69090b588ac", "addresses": ["1NcmJbZr7ohXi2pbWoxhVUSGf9ob6b1Lrk"], "asm": "OP_DUP OP_HASH160 ed1e2ec6bf884efd107e0f7c592720e8a69090b5 OP_EQUALVERIFY OP_CHECKSIG", "type": "pubkeyhash"}, "value": 0.00339866, "n": 1}], "hex": "01000000014ab0694c355faa66a20b5abeda531b95e77b90c2bb6ea086be0a295d912e3158010000006a473044022076a197d0c94a9d2a924547f72d4a00ac44c1e4f474ca4707fa816de94b7d354d022061338a139fbf666a0d85e8bd53ddf6569450e0a48639664140fc52860cfbac1f0121039c7d7a47e37b6bd9716021ff880c144d2f9683a24ab869004d6fe6e2dd24fde8ffffffff02d2c25f60000000001976a914c5b56a51e604d71829d808fe2e5ab040d8f9120c88ac9a2f0500000000001976a914ed1e2ec6bf884efd107e0f7c592720e8a69090b588ac00000000", "vin": [{"sequence": 4294967295, "scriptSig": {"hex": "473044022076a197d0c94a9d2a924547f72d4a00ac44c1e4f474ca4707fa816de94b7d354d022061338a139fbf666a0d85e8bd53ddf6569450e0a48639664140fc52860cfbac1f0121039c7d7a47e37b6bd9716021ff880c144d2f9683a24ab869004d6fe6e2dd24fde8", "asm": "3044022076a197d0c94a9d2a924547f72d4a00ac44c1e4f474ca4707fa816de94b7d354d022061338a139fbf666a0d85e8bd53ddf6569450e0a48639664140fc52860cfbac1f[ALL] 039c7d7a47e37b6bd9716021ff880c144d2f9683a24ab869004d6fe6e2dd24fde8"}, "vout": 1, "txid": "58312e915d290abe86a06ebbc2907be7951b53dabe5a0ba266aa5f354c69b04a"}], "txid": "d20aced8a6d7096f9e0fd12eb179d500f1cb858dffea7b039524635403109d86", "blocktime": 1537875543, "version": 1, "confirmations": 11464, "time": 1537875543, "locktime": 0, "vsize": 225, "size": 225}