{"hash": "d20e88b1590ee30011d45424d9dcf03c6cc592431fac48af85be03a0edb6e900", "blockhash": "0000000000000000001f0ddff1eddb255c1121bcd4da4f1bc9a0da00cae72433", "vout": [{"scriptPubKey": {"reqSigs": 1, "hex": "76a9141d8d4ff0d1f47ee1dc6b06cb6ff7b443df062b9088ac", "addresses": ["13hFt7UVJXAEzjf4Rvc6ubkKmgFyjwk2Ur"], "asm": "OP_DUP OP_HASH160 1d8d4ff0d1f47ee1dc6b06cb6ff7b443df062b90 OP_EQUALVERIFY OP_CHECKSIG", "type": "pubkeyhash"}, "value": 0.16389986, "n": 0}], "hex": "010000000c47e9bf11635397663514c17509708551682e80ccb347c184c96d97d8eeee9410000000006a47304402204c137bb529503b6f9ea58f9179a45228aa12924af8499dcd59bebe29887da76902201275d511f359efdb7fd0a862ebcac241804d571cfebcf3e1f7c9e1f5581c6a61012102c344770da39d6e91e1af8123ce9117b225724092834499a20435a539227780c7ffffffffa02f01c7f41c3d07b4d4bcf7e4dcb8476221c98b99a0d21420707f6e9d565713000000006a47304402207c92c5dd903a459fb706e3a05b3224cc37fd25d8a59c3e6a9982b4b9c314382a0220563dbb4ea709534f18adcc86f48c992a507b8dda20f75e05e553abb1d8fb9a4a012103ffb4a960683a842923f64c5bb5c79b6d0daaed2b080a615a0ddba910f33227dcffffffffeb30f5228ed0ca4d6a240a6fc4edf64f1f794ea646a8259aea7843b3d44ccc42000000006a47304402207bd19fa125e08e7e9425b5af58b47a7577780ffcac9ad142086de4df5d1beb2002201acd511f337be6cc965dfb40951b4c6602a03e484d2370d53c38ca72f541c331012103edf85a1ed8bcd22caed357b4a94a3e1f8d62521531b50e9529d2e6cc524ca397ffffffff6bc22876275fc14c076cd8a0a8a0c1b028ff923dfb5c3c6a34311c469ff72f43000000006b483045022100d4e86546d7187fb1fda8af94fae3bf3b3ef42142284c4f2bb7ec354d4bd93e95022016de05a8b398bf2029dfcab6d5daa22d35ee2065e065d8cce29becc2393c213b0121034549b309c83dfbe8cecfb2ac97cae1ce096f6de9d808d64485f252dc0ccafd9cffffffff871fb50c098ee8fd1202f1168fba9b724b3d50782c0cd888e5bec16a15aee74c000000006a473044022017ba7f68d76acd418695039c2096b3a439a97ee32001d12f9f8f6d277ec4492d022057e70b3a33661fcdaeb6e2900567bc1933b0612770cc7f40c91f4ea8e8da6182012102ca55008a01671ed78a924af1eaabbf3dc64472d2017a9ca9a8ae2ef326586966ffffffff7751ac0b1ee8518783bb48e6ac3aaa8bf0d555601ba4bf4485e30c9c950af492000000006b4830450221009f45207104f5f68b611f2a05b495471d2a93d74f34596f03170a2b7eb92b81e902202803a2df48d927d566c4f9512b22e95c22cbee65e766eebb4b27c64b8da862ce012102d13423ccc0fbb1430d5699438c86d35e1937d9c436f5492012bde371bda2e66affffffff715a2b3d843193ee3985a62c3e016d1a68dc4df3f866a6cdcffdb44836071aad000000006a47304402202ceaf557f422f033cba9106215749aa8575d25498d0c2c50d9449d79571fc4e2022009081a178c220d792da97e8e3c4f559b945b0d155b75922a0de97ca689ad37c001210376197e8f93415e9e66b28dabb438f54a5ce65bd96fdcbdf8f4c1f224d95b32a1ffffffff0b81b67cfffb4e88c784258f39c448bccb700e7914750fa9de2d557b92e842ae000000006b483045022100c476b9c67bf5c53dcc0253667f1f9b84ef8f7610483ef5bc0b15a7624a61f8d5022046eaab71ee21666d4faf2ae6731d0b54343663bc1cf6bc86a30418cbd461a76f012102f6cee6a2dedb825f8d3cf0751cbf5680c6e53a14a4abf5342733b5298d97a1c2ffffffffc84bd6f42847c1e96dbdb896f2c0a7a8d0a51b00a89a8f7397ec74a1f52d37b5000000006a473044022003e1e38ca9fea36a05c7faf9da01e6d3008e66bbb5cdf772685f82c29ce8aa68022013b3f09387db15046ca35b023af816385e45bffc8f511fb8e8ebed497ea5ca3b012102f2305e71bc395be005bdd9d30c238e7e5b6c0351448d18c8954f56e5bb5a2005ffffffff3b6940e0dbdf9c520c901ffa912653f81205a21293894b753231b2f810325bc5000000006a4730440220068a53d2a66fbdfe1e62134a774f5e0c15525e80b5bf10e95e787c121cb3b6770220319577e49fa676601803ac6428a9fff1da4b4fab6a5de378e2ad7dfdeb53b343012103aca1d589eec4cc8270f6aae310882fe34492a8f48370eec057929db2fd6f4753ffffffff1a852343564ac2a8ed3bd5a8844e967b0ddf82041878ea07ad90eda3b9b936cf000000006a47304402200ec640bcb08ae11414199348c40a47ae7afbddbd3479b6b2bb332f9b8f5f739c02205cf32724942eb731027e8b85427c0bda10596a26358569e60cceccdb0f8269e10121034549b309c83dfbe8cecfb2ac97cae1ce096f6de9d808d64485f252dc0ccafd9cffffffff870e00c47fa9b2544c079403337498cc87ef7b14fe5c343b68a358444fde99e6000000006a4730440220020e9f3f94234cf6d3fedd2c377276c24bc1eef524fcf5bec82e44febe9233a302202ff1bc90e86fc7851f7726d2b99293ca959aeebc12bebf413dcd7e2146316dc6012103e2b7c1ebd5827a37201ba9ebc0def2d500adfcc470050f25a6350bb7da7af446ffffffff016217fa00000000001976a9141d8d4ff0d1f47ee1dc6b06cb6ff7b443df062b9088ac00000000", "vin": [{"sequence": 4294967295, "scriptSig": {"hex": "47304402204c137bb529503b6f9ea58f9179a45228aa12924af8499dcd59bebe29887da76902201275d511f359efdb7fd0a862ebcac241804d571cfebcf3e1f7c9e1f5581c6a61012102c344770da39d6e91e1af8123ce9117b225724092834499a20435a539227780c7", "asm": "304402204c137bb529503b6f9ea58f9179a45228aa12924af8499dcd59bebe29887da76902201275d511f359efdb7fd0a862ebcac241804d571cfebcf3e1f7c9e1f5581c6a61[ALL] 02c344770da39d6e91e1af8123ce9117b225724092834499a20435a539227780c7"}, "vout": 0, "txid": "1094eeeed8976dc984c147b3cc802e685185700975c114356697536311bfe947"}, {"sequence": 4294967295, "scriptSig": {"hex": "47304402207c92c5dd903a459fb706e3a05b3224cc37fd25d8a59c3e6a9982b4b9c314382a0220563dbb4ea709534f18adcc86f48c992a507b8dda20f75e05e553abb1d8fb9a4a012103ffb4a960683a842923f64c5bb5c79b6d0daaed2b080a615a0ddba910f33227dc", "asm": "304402207c92c5dd903a459fb706e3a05b3224cc37fd25d8a59c3e6a9982b4b9c314382a0220563dbb4ea709534f18adcc86f48c992a507b8dda20f75e05e553abb1d8fb9a4a[ALL] 03ffb4a960683a842923f64c5bb5c79b6d0daaed2b080a615a0ddba910f33227dc"}, "vout": 0, "txid": "1357569d6e7f702014d2a0998bc9216247b8dce4f7bcd4b4073d1cf4c7012fa0"}, {"sequence": 4294967295, "scriptSig": {"hex": "47304402207bd19fa125e08e7e9425b5af58b47a7577780ffcac9ad142086de4df5d1beb2002201acd511f337be6cc965dfb40951b4c6602a03e484d2370d53c38ca72f541c331012103edf85a1ed8bcd22caed357b4a94a3e1f8d62521531b50e9529d2e6cc524ca397", "asm": "304402207bd19fa125e08e7e9425b5af58b47a7577780ffcac9ad142086de4df5d1beb2002201acd511f337be6cc965dfb40951b4c6602a03e484d2370d53c38ca72f541c331[ALL] 03edf85a1ed8bcd22caed357b4a94a3e1f8d62521531b50e9529d2e6cc524ca397"}, "vout": 0, "txid": "42cc4cd4b34378ea9a25a846a64e791f4ff6edc46f0a246a4dcad08e22f530eb"}, {"sequence": 4294967295, "scriptSig": {"hex": "483045022100d4e86546d7187fb1fda8af94fae3bf3b3ef42142284c4f2bb7ec354d4bd93e95022016de05a8b398bf2029dfcab6d5daa22d35ee2065e065d8cce29becc2393c213b0121034549b309c83dfbe8cecfb2ac97cae1ce096f6de9d808d64485f252dc0ccafd9c", "asm": "3045022100d4e86546d7187fb1fda8af94fae3bf3b3ef42142284c4f2bb7ec354d4bd93e95022016de05a8b398bf2029dfcab6d5daa22d35ee2065e065d8cce29becc2393c213b[ALL] 034549b309c83dfbe8cecfb2ac97cae1ce096f6de9d808d64485f252dc0ccafd9c"}, "vout": 0, "txid": "432ff79f461c31346a3c5cfb3d92ff28b0c1a0a8a0d86c074cc15f277628c26b"}, {"sequence": 4294967295, "scriptSig": {"hex": "473044022017ba7f68d76acd418695039c2096b3a439a97ee32001d12f9f8f6d277ec4492d022057e70b3a33661fcdaeb6e2900567bc1933b0612770cc7f40c91f4ea8e8da6182012102ca55008a01671ed78a924af1eaabbf3dc64472d2017a9ca9a8ae2ef326586966", "asm": "3044022017ba7f68d76acd418695039c2096b3a439a97ee32001d12f9f8f6d277ec4492d022057e70b3a33661fcdaeb6e2900567bc1933b0612770cc7f40c91f4ea8e8da6182[ALL] 02ca55008a01671ed78a924af1eaabbf3dc64472d2017a9ca9a8ae2ef326586966"}, "vout": 0, "txid": "4ce7ae156ac1bee588d80c2c78503d4b729bba8f16f10212fde88e090cb51f87"}, {"sequence": 4294967295, "scriptSig": {"hex": "4830450221009f45207104f5f68b611f2a05b495471d2a93d74f34596f03170a2b7eb92b81e902202803a2df48d927d566c4f9512b22e95c22cbee65e766eebb4b27c64b8da862ce012102d13423ccc0fbb1430d5699438c86d35e1937d9c436f5492012bde371bda2e66a", "asm": "30450221009f45207104f5f68b611f2a05b495471d2a93d74f34596f03170a2b7eb92b81e902202803a2df48d927d566c4f9512b22e95c22cbee65e766eebb4b27c64b8da862ce[ALL] 02d13423ccc0fbb1430d5699438c86d35e1937d9c436f5492012bde371bda2e66a"}, "vout": 0, "txid": "92f40a959c0ce38544bfa41b6055d5f08baa3aace648bb838751e81e0bac5177"}, {"sequence": 4294967295, "scriptSig": {"hex": "47304402202ceaf557f422f033cba9106215749aa8575d25498d0c2c50d9449d79571fc4e2022009081a178c220d792da97e8e3c4f559b945b0d155b75922a0de97ca689ad37c001210376197e8f93415e9e66b28dabb438f54a5ce65bd96fdcbdf8f4c1f224d95b32a1", "asm": "304402202ceaf557f422f033cba9106215749aa8575d25498d0c2c50d9449d79571fc4e2022009081a178c220d792da97e8e3c4f559b945b0d155b75922a0de97ca689ad37c0[ALL] 0376197e8f93415e9e66b28dabb438f54a5ce65bd96fdcbdf8f4c1f224d95b32a1"}, "vout": 0, "txid": "ad1a073648b4fdcfcda666f8f34ddc681a6d013e2ca68539ee9331843d2b5a71"}, {"sequence": 4294967295, "scriptSig": {"hex": "483045022100c476b9c67bf5c53dcc0253667f1f9b84ef8f7610483ef5bc0b15a7624a61f8d5022046eaab71ee21666d4faf2ae6731d0b54343663bc1cf6bc86a30418cbd461a76f012102f6cee6a2dedb825f8d3cf0751cbf5680c6e53a14a4abf5342733b5298d97a1c2", "asm": "3045022100c476b9c67bf5c53dcc0253667f1f9b84ef8f7610483ef5bc0b15a7624a61f8d5022046eaab71ee21666d4faf2ae6731d0b54343663bc1cf6bc86a30418cbd461a76f[ALL] 02f6cee6a2dedb825f8d3cf0751cbf5680c6e53a14a4abf5342733b5298d97a1c2"}, "vout": 0, "txid": "ae42e8927b552ddea90f7514790e70cbbc48c4398f2584c7884efbff7cb6810b"}, {"sequence": 4294967295, "scriptSig": {"hex": "473044022003e1e38ca9fea36a05c7faf9da01e6d3008e66bbb5cdf772685f82c29ce8aa68022013b3f09387db15046ca35b023af816385e45bffc8f511fb8e8ebed497ea5ca3b012102f2305e71bc395be005bdd9d30c238e7e5b6c0351448d18c8954f56e5bb5a2005", "asm": "3044022003e1e38ca9fea36a05c7faf9da01e6d3008e66bbb5cdf772685f82c29ce8aa68022013b3f09387db15046ca35b023af816385e45bffc8f511fb8e8ebed497ea5ca3b[ALL] 02f2305e71bc395be005bdd9d30c238e7e5b6c0351448d18c8954f56e5bb5a2005"}, "vout": 0, "txid": "b5372df5a174ec97738f9aa8001ba5d0a8a7c0f296b8bd6de9c14728f4d64bc8"}, {"sequence": 4294967295, "scriptSig": {"hex": "4730440220068a53d2a66fbdfe1e62134a774f5e0c15525e80b5bf10e95e787c121cb3b6770220319577e49fa676601803ac6428a9fff1da4b4fab6a5de378e2ad7dfdeb53b343012103aca1d589eec4cc8270f6aae310882fe34492a8f48370eec057929db2fd6f4753", "asm": "30440220068a53d2a66fbdfe1e62134a774f5e0c15525e80b5bf10e95e787c121cb3b6770220319577e49fa676601803ac6428a9fff1da4b4fab6a5de378e2ad7dfdeb53b343[ALL] 03aca1d589eec4cc8270f6aae310882fe34492a8f48370eec057929db2fd6f4753"}, "vout": 0, "txid": "c55b3210f8b23132754b899312a20512f8532691fa1f900c529cdfdbe040693b"}, {"sequence": 4294967295, "scriptSig": {"hex": "47304402200ec640bcb08ae11414199348c40a47ae7afbddbd3479b6b2bb332f9b8f5f739c02205cf32724942eb731027e8b85427c0bda10596a26358569e60cceccdb0f8269e10121034549b309c83dfbe8cecfb2ac97cae1ce096f6de9d808d64485f252dc0ccafd9c", "asm": "304402200ec640bcb08ae11414199348c40a47ae7afbddbd3479b6b2bb332f9b8f5f739c02205cf32724942eb731027e8b85427c0bda10596a26358569e60cceccdb0f8269e1[ALL] 034549b309c83dfbe8cecfb2ac97cae1ce096f6de9d808d64485f252dc0ccafd9c"}, "vout": 0, "txid": "cf36b9b9a3ed90ad07ea78180482df0d7b964e84a8d53beda8c24a564323851a"}, {"sequence": 4294967295, "scriptSig": {"hex": "4730440220020e9f3f94234cf6d3fedd2c377276c24bc1eef524fcf5bec82e44febe9233a302202ff1bc90e86fc7851f7726d2b99293ca959aeebc12bebf413dcd7e2146316dc6012103e2b7c1ebd5827a37201ba9ebc0def2d500adfcc470050f25a6350bb7da7af446", "asm": "30440220020e9f3f94234cf6d3fedd2c377276c24bc1eef524fcf5bec82e44febe9233a302202ff1bc90e86fc7851f7726d2b99293ca959aeebc12bebf413dcd7e2146316dc6[ALL] 03e2b7c1ebd5827a37201ba9ebc0def2d500adfcc470050f25a6350bb7da7af446"}, "vout": 0, "txid": "e699de4f4458a3683b345cfe147bef87cc9874330394074c54b2a97fc4000e87"}], "txid": "d20e88b1590ee30011d45424d9dcf03c6cc592431fac48af85be03a0edb6e900", "blocktime": 1537872018, "version": 1, "confirmations": 11489, "time": 1537872018, "locktime": 0, "vsize": 1811, "size": 1811}