{"hash": "80ccfe989b6842da4eac2ebd294f8ebc5d606d4bde01bcad6411fa024cfe524b", "blockhash": "0000000000000000000dcc0f55137456b1a82d3642486a52398922ac4d620174", "vout": [{"scriptPubKey": {"reqSigs": 1, "hex": "76a9146182899e08548e1ba2ded49c61da034d38da797588ac", "addresses": ["19tavWyNLL5ktBMig3gZYb5aTpskTfTEHD"], "asm": "OP_DUP OP_HASH160 6182899e08548e1ba2ded49c61da034d38da7975 OP_EQUALVERIFY OP_CHECKSIG", "type": "pubkeyhash"}, "value": 0.00234, "n": 0}, {"scriptPubKey": {"reqSigs": 1, "hex": "001415f327ff88399d65a1f3ca38cf5b9d2df46b6744", "addresses": ["bc1qzhej0lug8xwktg0neguv7kua9h6xke6y0m7nsg"], "asm": "0 15f327ff88399d65a1f3ca38cf5b9d2df46b6744", "type": "witness_v0_keyhash"}, "value": 2.408e-05, "n": 1}], "hex": "01000000000101986f9c0faaabb0d58addb4574027a26a1ff827700dbca63cd2119f311b7f57b30100000000ffffffff0210920300000000001976a9146182899e08548e1ba2ded49c61da034d38da797588ac680900000000000016001415f327ff88399d65a1f3ca38cf5b9d2df46b67440247304402205143d8f782b9564b91546e95ebe9968d24c47b289d670f924542aba8beb476a402201ebe3c85b835edcf8fc3f1553f34b7892d81593594216cb3cc48cade0ade576e0121030b7c6ef09c87f96e8200078c1d4c6bd305fea469d4674cb09000d3ce50a6289c00000000", "vin": [{"txinwitness": ["304402205143d8f782b9564b91546e95ebe9968d24c47b289d670f924542aba8beb476a402201ebe3c85b835edcf8fc3f1553f34b7892d81593594216cb3cc48cade0ade576e01", "030b7c6ef09c87f96e8200078c1d4c6bd305fea469d4674cb09000d3ce50a6289c"], "sequence": 4294967295, "scriptSig": {"hex": "", "asm": ""}, "vout": 1, "txid": "b3577f1b319f11d23ca6bc0d7027f81f6aa2274057b4dd8ad5b0abaa0f9c6f98"}], "txid": "d214bc72227d77d586b3e9454599f4ea83cdf42f150a5434325150b39e6e32bd", "blocktime": 1537870268, "version": 1, "confirmations": 11518, "time": 1537870268, "locktime": 0, "vsize": 144, "size": 225}