{"hash": "d217c430b530ab32bd80ae6e07c31665eac979961a802e4ad8714c36634ee739", "blockhash": "00000000000000000004ffacab907a6b429b9a5745fa0b75af4234bf69dd7176", "vout": [{"scriptPubKey": {"reqSigs": 1, "hex": "76a914b4b322e9f69b3fbf020788989a894a4ad68a3b8788ac", "addresses": ["1HUTE9KrSdZLa77rveg69r6xK2NQ87CrUk"], "asm": "OP_DUP OP_HASH160 b4b322e9f69b3fbf020788989a894a4ad68a3b87 OP_EQUALVERIFY OP_CHECKSIG", "type": "pubkeyhash"}, "value": 0.5699221, "n": 0}, {"scriptPubKey": {"reqSigs": 1, "hex": "76a914189710f4836b08b0b611b00704cdee8b89cdb36888ac", "addresses": ["13F2BsSa7TETjiNpyNsvHeuDUDfRdAsuLf"], "asm": "OP_DUP OP_HASH160 189710f4836b08b0b611b00704cdee8b89cdb368 OP_EQUALVERIFY OP_CHECKSIG", "type": "pubkeyhash"}, "value": 5.03957133, "n": 1}], "hex": "0100000004c8ed1492d1e72fc27caa311763b875f1b62b19e2246b91b71afb65b3cf264675010000006b483045022100e7db67b7c815d1afa61aace6bf73fa5b6a84e39f2e9ffa1a22ca072d971b4dd10220209488ba2ccf9520eaded6595a5533393508427913662300f7de26b61ce9ae8901210322962736e8bd4f0fc37b2268fc61aef5c57d32f246ae6f03b60217549f11d2daffffffff00a06acac82ee184cd0b1646970248b31a871f1f483e66c03142a3b0d7accf93010000006a47304402206ca4c9849183b95e653df83049ed7a2f98fa0cc61498f26ee87eecde26d0463c022029b61fa16a1a0adbe18d2b101639929e14d57d2a75fef397701c75d45054805701210334d6d15388a8dbc51a8772b912f1115e3c83c28490a8d3bbbbcede26477ab141fffffffff95ece934b52707729907b2844956029188d7df4dadd0c41ce60e8dc5d2021a3010000006b4830450221008df4336c673afbbb3378b10babd04abdccda93811f1b2926643eb8345a065075022065175089018eb6d7255de8a43aaa1a3289eaa62c06a09e522f4f9ffacc203912012103b91bc811adf989092a9b88b681a9c50062974a5d46afbca8abd99b9c69184af1fffffffff978db99978f4c2f42cc94ec27df3d902075e30dfc6b0e33a0ecfb772ad27be1010000006b483045022100805db3bfbbb8e869038a304884fa594986c0975ea395ef3d066ab54cd56a4ed70220244497512c50ed581692bbcc6f46bf85a33949a8164cbb6dac18c62e86b06fe5012103897a5c91148f5252050b336f3607d60ce28214e4c0769e6c5248c0cdbfa6ce56ffffffff02d2a16503000000001976a914b4b322e9f69b3fbf020788989a894a4ad68a3b8788ac8dc6091e000000001976a914189710f4836b08b0b611b00704cdee8b89cdb36888ac00000000", "vin": [{"sequence": 4294967295, "scriptSig": {"hex": "483045022100e7db67b7c815d1afa61aace6bf73fa5b6a84e39f2e9ffa1a22ca072d971b4dd10220209488ba2ccf9520eaded6595a5533393508427913662300f7de26b61ce9ae8901210322962736e8bd4f0fc37b2268fc61aef5c57d32f246ae6f03b60217549f11d2da", "asm": "3045022100e7db67b7c815d1afa61aace6bf73fa5b6a84e39f2e9ffa1a22ca072d971b4dd10220209488ba2ccf9520eaded6595a5533393508427913662300f7de26b61ce9ae89[ALL] 0322962736e8bd4f0fc37b2268fc61aef5c57d32f246ae6f03b60217549f11d2da"}, "vout": 1, "txid": "754626cfb365fb1ab7916b24e2192bb6f175b8631731aa7cc22fe7d19214edc8"}, {"sequence": 4294967295, "scriptSig": {"hex": "47304402206ca4c9849183b95e653df83049ed7a2f98fa0cc61498f26ee87eecde26d0463c022029b61fa16a1a0adbe18d2b101639929e14d57d2a75fef397701c75d45054805701210334d6d15388a8dbc51a8772b912f1115e3c83c28490a8d3bbbbcede26477ab141", "asm": "304402206ca4c9849183b95e653df83049ed7a2f98fa0cc61498f26ee87eecde26d0463c022029b61fa16a1a0adbe18d2b101639929e14d57d2a75fef397701c75d450548057[ALL] 0334d6d15388a8dbc51a8772b912f1115e3c83c28490a8d3bbbbcede26477ab141"}, "vout": 1, "txid": "93cfacd7b0a34231c0663e481f1f871ab348029746160bcd84e12ec8ca6aa000"}, {"sequence": 4294967295, "scriptSig": {"hex": "4830450221008df4336c673afbbb3378b10babd04abdccda93811f1b2926643eb8345a065075022065175089018eb6d7255de8a43aaa1a3289eaa62c06a09e522f4f9ffacc203912012103b91bc811adf989092a9b88b681a9c50062974a5d46afbca8abd99b9c69184af1", "asm": "30450221008df4336c673afbbb3378b10babd04abdccda93811f1b2926643eb8345a065075022065175089018eb6d7255de8a43aaa1a3289eaa62c06a09e522f4f9ffacc203912[ALL] 03b91bc811adf989092a9b88b681a9c50062974a5d46afbca8abd99b9c69184af1"}, "vout": 1, "txid": "a321205ddce860ce410cdddaf47d8d1829609544287b90297770524b93ce5ef9"}, {"sequence": 4294967295, "scriptSig": {"hex": "483045022100805db3bfbbb8e869038a304884fa594986c0975ea395ef3d066ab54cd56a4ed70220244497512c50ed581692bbcc6f46bf85a33949a8164cbb6dac18c62e86b06fe5012103897a5c91148f5252050b336f3607d60ce28214e4c0769e6c5248c0cdbfa6ce56", "asm": "3045022100805db3bfbbb8e869038a304884fa594986c0975ea395ef3d066ab54cd56a4ed70220244497512c50ed581692bbcc6f46bf85a33949a8164cbb6dac18c62e86b06fe5[ALL] 03897a5c91148f5252050b336f3607d60ce28214e4c0769e6c5248c0cdbfa6ce56"}, "vout": 1, "txid": "e17bd22a77fbeca0330e6bfc0de37520903ddf27ec94cc422f4c8f9799db78f9"}], "txid": "d217c430b530ab32bd80ae6e07c31665eac979961a802e4ad8714c36634ee739", "blocktime": 1537875543, "version": 1, "confirmations": 11464, "time": 1537875543, "locktime": 0, "vsize": 669, "size": 669}