{"hash": "d21730051d88da65d170a37a4aae0563225365e3e2081a8ed71dfe9692709857", "blockhash": "0000000000000000001f0ddff1eddb255c1121bcd4da4f1bc9a0da00cae72433", "vout": [{"scriptPubKey": {"reqSigs": 1, "hex": "a914644964e252187fb8f12226e17cb78b45cb84b4f587", "addresses": ["3AqHREgimMqcsKdN8i7gJAD8H3RnqozETp"], "asm": "OP_HASH160 644964e252187fb8f12226e17cb78b45cb84b4f5 OP_EQUAL", "type": "scripthash"}, "value": 0.02209007, "n": 0}], "hex": "0100000001e29c2a211735290439df4b5da1a9c9cfbcc81a196ec2568b7140a53af7c04c2a0e0000006a47304402206487ff227a950ff57ccff166fcb818e365a459fbca09cebf56046403595ff08302204a1c3bcc3d5db7ccd849492d8cdb833876696ce9e5d36d099cb515147a360e9b0121020335ee4050b0302ffeda978eec109a20022e33b14419689761573d062213bec4ffffffff01efb421000000000017a914644964e252187fb8f12226e17cb78b45cb84b4f58700000000", "vin": [{"sequence": 4294967295, "scriptSig": {"hex": "47304402206487ff227a950ff57ccff166fcb818e365a459fbca09cebf56046403595ff08302204a1c3bcc3d5db7ccd849492d8cdb833876696ce9e5d36d099cb515147a360e9b0121020335ee4050b0302ffeda978eec109a20022e33b14419689761573d062213bec4", "asm": "304402206487ff227a950ff57ccff166fcb818e365a459fbca09cebf56046403595ff08302204a1c3bcc3d5db7ccd849492d8cdb833876696ce9e5d36d099cb515147a360e9b[ALL] 020335ee4050b0302ffeda978eec109a20022e33b14419689761573d062213bec4"}, "vout": 14, "txid": "2a4cc0f73aa540718b56c26e191ac8bccfc9a9a15d4bdf3904293517212a9ce2"}], "txid": "d21730051d88da65d170a37a4aae0563225365e3e2081a8ed71dfe9692709857", "blocktime": 1537872018, "version": 1, "confirmations": 11489, "time": 1537872018, "locktime": 0, "vsize": 189, "size": 189}