{"hash": "d226d3f4d3203ecaa4b3917ecfbcb14e88675bd9ea2d17efeb48a8f1976b31cf", "blockhash": "0000000000000000001f76057863aec43deb6fa401d9628bb513d65a8098bfab", "vout": [{"scriptPubKey": {"reqSigs": 1, "hex": "76a914c4ddee2154e5545b5280b23a0e55bedd9a59483b88ac", "addresses": ["1JwwJab9pDRKBu2kRkPmvuv8UxWd7uJZTy"], "asm": "OP_DUP OP_HASH160 c4ddee2154e5545b5280b23a0e55bedd9a59483b OP_EQUALVERIFY OP_CHECKSIG", "type": "pubkeyhash"}, "value": 0.00029544, "n": 0}, {"scriptPubKey": {"reqSigs": 1, "hex": "a91491b7fd9edd5b7b87e950607f50f2def17ade647087", "addresses": ["3EyWKFtSeYEwjWmhgriZnnmdTtNMLWxTQG"], "asm": "OP_HASH160 91b7fd9edd5b7b87e950607f50f2def17ade6470 OP_EQUAL", "type": "scripthash"}, "value": 0.0015, "n": 1}], "hex": "0100000003a653ddcdc8e2828985a224b677ab26a8ebec6eec09e0b1f76db76ad2b69cf236000000006b483045022100b2f8332000eed5af9732e25f402659b8f12c62ed15d5818006b126d7b30ca20e02204806f76e75695b649c9b77dd8fd181a946965d694b169c4098641c72e34ebc1b012103ce0a669a5cd437f68775016a84332252506bf28001d7d0e0f0fcdf52fce50e8bffffffff4717815b5abd43c8a19f303b662f9b65f9ee64362afcacf11546f688cd94e2a6000000006b483045022100eacea7a70287455e119901e1407736047608bfb56918e20bcc9ef082377802a702207033f754c2ab5006eab7d91aa72813844c35efa1e5346f96c3c5c1af555c920f012103ce0a669a5cd437f68775016a84332252506bf28001d7d0e0f0fcdf52fce50e8bffffffff294d1ffacc61da29d12ab10a1ea93cb8a6fea5b9eec59d1379bfe637b40e1dff0e0000006b483045022100f1963773c4a2a403cde5619c758f90f23f9bb6c9e9061942e980bbb843f1eed502200a3982cb416e4ee837a821b5f726a4b4cd029172ea21c1c06a609945a9bf2333012103ce0a669a5cd437f68775016a84332252506bf28001d7d0e0f0fcdf52fce50e8bffffffff0268730000000000001976a914c4ddee2154e5545b5280b23a0e55bedd9a59483b88acf04902000000000017a91491b7fd9edd5b7b87e950607f50f2def17ade64708700000000", "vin": [{"sequence": 4294967295, "scriptSig": {"hex": "483045022100b2f8332000eed5af9732e25f402659b8f12c62ed15d5818006b126d7b30ca20e02204806f76e75695b649c9b77dd8fd181a946965d694b169c4098641c72e34ebc1b012103ce0a669a5cd437f68775016a84332252506bf28001d7d0e0f0fcdf52fce50e8b", "asm": "3045022100b2f8332000eed5af9732e25f402659b8f12c62ed15d5818006b126d7b30ca20e02204806f76e75695b649c9b77dd8fd181a946965d694b169c4098641c72e34ebc1b[ALL] 03ce0a669a5cd437f68775016a84332252506bf28001d7d0e0f0fcdf52fce50e8b"}, "vout": 0, "txid": "36f29cb6d26ab76df7b1e009ec6eeceba826ab77b624a2858982e2c8cddd53a6"}, {"sequence": 4294967295, "scriptSig": {"hex": "483045022100eacea7a70287455e119901e1407736047608bfb56918e20bcc9ef082377802a702207033f754c2ab5006eab7d91aa72813844c35efa1e5346f96c3c5c1af555c920f012103ce0a669a5cd437f68775016a84332252506bf28001d7d0e0f0fcdf52fce50e8b", "asm": "3045022100eacea7a70287455e119901e1407736047608bfb56918e20bcc9ef082377802a702207033f754c2ab5006eab7d91aa72813844c35efa1e5346f96c3c5c1af555c920f[ALL] 03ce0a669a5cd437f68775016a84332252506bf28001d7d0e0f0fcdf52fce50e8b"}, "vout": 0, "txid": "a6e294cd88f64615f1acfc2a3664eef9659b2f663b309fa1c843bd5a5b811747"}, {"sequence": 4294967295, "scriptSig": {"hex": "483045022100f1963773c4a2a403cde5619c758f90f23f9bb6c9e9061942e980bbb843f1eed502200a3982cb416e4ee837a821b5f726a4b4cd029172ea21c1c06a609945a9bf2333012103ce0a669a5cd437f68775016a84332252506bf28001d7d0e0f0fcdf52fce50e8b", "asm": "3045022100f1963773c4a2a403cde5619c758f90f23f9bb6c9e9061942e980bbb843f1eed502200a3982cb416e4ee837a821b5f726a4b4cd029172ea21c1c06a609945a9bf2333[ALL] 03ce0a669a5cd437f68775016a84332252506bf28001d7d0e0f0fcdf52fce50e8b"}, "vout": 14, "txid": "ff1d0eb437e6bf79139dc5eeb9a5fea6b83ca91e0ab12ad129da61ccfa1f4d29"}], "txid": "d226d3f4d3203ecaa4b3917ecfbcb14e88675bd9ea2d17efeb48a8f1976b31cf", "blocktime": 1537873891, "version": 1, "confirmations": 11478, "time": 1537873891, "locktime": 0, "vsize": 520, "size": 520}