{"hash": "d22898080a0c1c3e34376f149aaa40f365a1c6b6629254c89771b7d7d19295b1", "blockhash": "0000000000000000001cda96e906b7601b7a6fb1a3b62bca570a9e5d8f4b3de1", "vout": [{"scriptPubKey": {"reqSigs": 1, "hex": "76a914d6e1eea6c17612252f34dd5735fedf492cab6b0988ac", "addresses": ["1LbCG6hzoBkVVLmbNa67YTFjnt6xTAAW4T"], "asm": "OP_DUP OP_HASH160 d6e1eea6c17612252f34dd5735fedf492cab6b09 OP_EQUALVERIFY OP_CHECKSIG", "type": "pubkeyhash"}, "value": 0.00078062, "n": 0}, {"scriptPubKey": {"reqSigs": 1, "hex": "76a914852ea35f071813ecf9751abe65049de61cbf8c5788ac", "addresses": ["1D9CjzS6u5ArSoEGqkqUEz4j55iA3rsFCL"], "asm": "OP_DUP OP_HASH160 852ea35f071813ecf9751abe65049de61cbf8c57 OP_EQUALVERIFY OP_CHECKSIG", "type": "pubkeyhash"}, "value": 0.0436112, "n": 1}], "hex": "02000000019f9aa647e44a789c8394683a4c1e75f6b69d6148cc35c79c76e223ce011bd049010000006b483045022100bc3f91c9885579400ecb0de7a4b1d376cbfc29b407957464970a521efa9993ce02200558a81615ea0a79371e65327d0a2549d8342fb06e92b8a14be4ee8339cd2c97012103ad9345c23921567f0abf3339bb67fe7dde30c759d2837f65e6d4230853bddca5ffffffff02ee300100000000001976a914d6e1eea6c17612252f34dd5735fedf492cab6b0988aca08b4200000000001976a914852ea35f071813ecf9751abe65049de61cbf8c5788ac00000000", "vin": [{"sequence": 4294967295, "scriptSig": {"hex": "483045022100bc3f91c9885579400ecb0de7a4b1d376cbfc29b407957464970a521efa9993ce02200558a81615ea0a79371e65327d0a2549d8342fb06e92b8a14be4ee8339cd2c97012103ad9345c23921567f0abf3339bb67fe7dde30c759d2837f65e6d4230853bddca5", "asm": "3045022100bc3f91c9885579400ecb0de7a4b1d376cbfc29b407957464970a521efa9993ce02200558a81615ea0a79371e65327d0a2549d8342fb06e92b8a14be4ee8339cd2c97[ALL] 03ad9345c23921567f0abf3339bb67fe7dde30c759d2837f65e6d4230853bddca5"}, "vout": 1, "txid": "49d01b01ce23e2769cc735cc48619db6f6751e4c3a6894839c784ae447a69a9f"}], "txid": "d22898080a0c1c3e34376f149aaa40f365a1c6b6629254c89771b7d7d19295b1", "blocktime": 1537873282, "version": 2, "confirmations": 11484, "time": 1537873282, "locktime": 0, "vsize": 226, "size": 226}