{"hash": "d22aecbc3b342b5a0c7425b06ce0e4b64aa26f915c0bec376f38d78555be89ef", "blockhash": "0000000000000000000e13cef7c366c0283d82e591d1acd082e914b08063cdf1", "vout": [{"scriptPubKey": {"reqSigs": 1, "hex": "a9145dfdfb88ce31db4276976149d935a09b1dcd241b87", "addresses": ["3AG12QESQhk8ENp8MCjquBzQm9v6jbJENy"], "asm": "OP_HASH160 5dfdfb88ce31db4276976149d935a09b1dcd241b OP_EQUAL", "type": "scripthash"}, "value": 0.00282, "n": 0}, {"scriptPubKey": {"reqSigs": 1, "hex": "76a91437cef050a8fbd5bad1e6eae643864a17c013037288ac", "addresses": ["16664uXy2k9dBVUMgxytzS1s1hAruzV2n3"], "asm": "OP_DUP OP_HASH160 37cef050a8fbd5bad1e6eae643864a17c0130372 OP_EQUALVERIFY OP_CHECKSIG", "type": "pubkeyhash"}, "value": 0.00484611, "n": 1}], "hex": "0100000001c9889dbf346be3a2add93bb3d9d36fb7077ba3d0f38f2fe0ef1cae78288b45e2040000006b483045022100a8a3d3b08682c82175125f01d4e3d03067a31f23ed4bb2f79a3c06c59035c402022011bd09911a4e245c9d344ec451ac90c9536aecdf69ed3832fe218a534f486ae2012102b1b4ba027b598139676e4237cce8b7874065226e980a0a8102ec493a39308043ffffffff02904d04000000000017a9145dfdfb88ce31db4276976149d935a09b1dcd241b8703650700000000001976a91437cef050a8fbd5bad1e6eae643864a17c013037288ac00000000", "vin": [{"sequence": 4294967295, "scriptSig": {"hex": "483045022100a8a3d3b08682c82175125f01d4e3d03067a31f23ed4bb2f79a3c06c59035c402022011bd09911a4e245c9d344ec451ac90c9536aecdf69ed3832fe218a534f486ae2012102b1b4ba027b598139676e4237cce8b7874065226e980a0a8102ec493a39308043", "asm": "3045022100a8a3d3b08682c82175125f01d4e3d03067a31f23ed4bb2f79a3c06c59035c402022011bd09911a4e245c9d344ec451ac90c9536aecdf69ed3832fe218a534f486ae2[ALL] 02b1b4ba027b598139676e4237cce8b7874065226e980a0a8102ec493a39308043"}, "vout": 4, "txid": "e2458b2878ae1cefe02f8ff3d0a37b07b76fd3d9b33bd9ada2e36b34bf9d88c9"}], "txid": "d22aecbc3b342b5a0c7425b06ce0e4b64aa26f915c0bec376f38d78555be89ef", "blocktime": 1537871767, "version": 1, "confirmations": 11495, "time": 1537871767, "locktime": 0, "vsize": 224, "size": 224}