{"hash": "acc463c82cfefd44917a0b311f03c2b34cd9a9e4741b7f54a2df32b546f0d596", "blockhash": "00000000000000000024a2167bbff67b0be802c0b01cdd79e6331c2be6459f87", "vout": [{"scriptPubKey": {"reqSigs": 1, "hex": "00142dd9e1839294eb6d62995963014f825f0e73d3ac", "addresses": ["bc1q9hv7rqujjn4k6c5et93sznuztu8885avx9zun2"], "asm": "0 2dd9e1839294eb6d62995963014f825f0e73d3ac", "type": "witness_v0_keyhash"}, "value": 1.044e-05, "n": 0}, {"scriptPubKey": {"reqSigs": 1, "hex": "a9149021d58c6dc3e0bbe69f85750cbc2d8f8fa13bc487", "addresses": ["3Eq7m1MfK8Rq4EThGMfjkqURJQJoamV8vj"], "asm": "OP_HASH160 9021d58c6dc3e0bbe69f85750cbc2d8f8fa13bc4 OP_EQUAL", "type": "scripthash"}, "value": 0.00048536, "n": 1}], "hex": "01000000000101725c5dc00034153451b579706496bdaf7dca4a9e0de2be92a7cd4312e1b3bc770000000000ffffffff0214040000000000001600142dd9e1839294eb6d62995963014f825f0e73d3ac98bd00000000000017a9149021d58c6dc3e0bbe69f85750cbc2d8f8fa13bc48702483045022100fc3c232e6f6f752938b553137a61d6efc7dbbc44b96ecc021eafca1cf5b2248b0220682b49c0028f24a0ec7eb231dcbfde36856733b6af49f4ef62422a5ffc8441040121021f8bc2a97836bb354dc89768619f22626d47cae327fef2354a2d0d6e2d7ef93f00000000", "vin": [{"txinwitness": ["3045022100fc3c232e6f6f752938b553137a61d6efc7dbbc44b96ecc021eafca1cf5b2248b0220682b49c0028f24a0ec7eb231dcbfde36856733b6af49f4ef62422a5ffc84410401", "021f8bc2a97836bb354dc89768619f22626d47cae327fef2354a2d0d6e2d7ef93f"], "sequence": 4294967295, "scriptSig": {"hex": "", "asm": ""}, "vout": 0, "txid": "77bcb3e11243cda792bee20d9e4aca7dafbd96647079b55134153400c05d5c72"}], "txid": "d22a4fee2807b56a327956f9c83d757ae46ef7de61a55a79657091dfa5fd5f2d", "blocktime": 1537870564, "version": 1, "confirmations": 11515, "time": 1537870564, "locktime": 0, "vsize": 142, "size": 224}