{"hash": "d22e3619d0ba236ef4f78564a07de93afe052f04525098bd35559a57ba201ab0", "blockhash": "0000000000000000000e13cef7c366c0283d82e591d1acd082e914b08063cdf1", "vout": [{"scriptPubKey": {"reqSigs": 1, "hex": "76a914b1a836dbde532b481107cd084f01f6bce4d8b21e88ac", "addresses": ["1HCN7guAoKMemjC9LiuhHut8wicaXCFzMs"], "asm": "OP_DUP OP_HASH160 b1a836dbde532b481107cd084f01f6bce4d8b21e OP_EQUALVERIFY OP_CHECKSIG", "type": "pubkeyhash"}, "value": 5.5e-05, "n": 0}, {"scriptPubKey": {"reqSigs": 1, "hex": "76a9148b7d973ac46e8292b259ab1b7e46ed7b66083e3388ac", "addresses": ["1DiZNrzxahF8aH82i2HtVYJdng1Nvu4rkx"], "asm": "OP_DUP OP_HASH160 8b7d973ac46e8292b259ab1b7e46ed7b66083e33 OP_EQUALVERIFY OP_CHECKSIG", "type": "pubkeyhash"}, "value": 0.01281065, "n": 1}], "hex": "010000000182b912065947d7b51a26fbf4490b97da4f53c0238131563ed223a7914c75c2a7140000006a473044022020c79a777d057a62067dd15bdd803676b1a58b37bcfde6fcf14fda61b04bc94b02202d1081e8aa085749cfafb1aed50fca5ab3da3ff3adcfadc027d22fe7673f7b3c0121027dfdbf0c0814944566d4ad5ddaa73a6e2703715339bb0897b4cd03b03cd75ce8ffffffff027c150000000000001976a914b1a836dbde532b481107cd084f01f6bce4d8b21e88ac298c1300000000001976a9148b7d973ac46e8292b259ab1b7e46ed7b66083e3388ac00000000", "vin": [{"sequence": 4294967295, "scriptSig": {"hex": "473044022020c79a777d057a62067dd15bdd803676b1a58b37bcfde6fcf14fda61b04bc94b02202d1081e8aa085749cfafb1aed50fca5ab3da3ff3adcfadc027d22fe7673f7b3c0121027dfdbf0c0814944566d4ad5ddaa73a6e2703715339bb0897b4cd03b03cd75ce8", "asm": "3044022020c79a777d057a62067dd15bdd803676b1a58b37bcfde6fcf14fda61b04bc94b02202d1081e8aa085749cfafb1aed50fca5ab3da3ff3adcfadc027d22fe7673f7b3c[ALL] 027dfdbf0c0814944566d4ad5ddaa73a6e2703715339bb0897b4cd03b03cd75ce8"}, "vout": 20, "txid": "a7c2754c91a723d23e56318123c0534fda970b49f4fb261ab5d747590612b982"}], "txid": "d22e3619d0ba236ef4f78564a07de93afe052f04525098bd35559a57ba201ab0", "blocktime": 1537871767, "version": 1, "confirmations": 11495, "time": 1537871767, "locktime": 0, "vsize": 225, "size": 225}