{"hash": "a1752a1daa66ad323278f8d9f518b9294e89a135f2d8c5deba79438a8ad2e3b2", "blockhash": "00000000000000000024a2167bbff67b0be802c0b01cdd79e6331c2be6459f87", "vout": [{"scriptPubKey": {"reqSigs": 1, "hex": "76a91428a10c59b3716e97e7b0a60d2591f94812287d0f88ac", "addresses": ["14hpxW5aiWmx1QdBcxFhiiBHsTwqRjZjwP"], "asm": "OP_DUP OP_HASH160 28a10c59b3716e97e7b0a60d2591f94812287d0f OP_EQUALVERIFY OP_CHECKSIG", "type": "pubkeyhash"}, "value": 0.0026286, "n": 0}, {"scriptPubKey": {"reqSigs": 1, "hex": "a9142d9bdf0fb60da3034af92c5b2e26af68d7ef2ed787", "addresses": ["35rB4JiSNYRVS8b98iH7wMUeZnVJzn2T81"], "asm": "OP_HASH160 2d9bdf0fb60da3034af92c5b2e26af68d7ef2ed7 OP_EQUAL", "type": "scripthash"}, "value": 0.0100101, "n": 1}], "hex": "020000000001024feeadaa083d885647f978d8770f17f7ff2a09cd941b54ce0aaab4ce97584c11000000001716001480cdc1e6fef804f8ad4d973f3825ed95f1277c20feffffffc60f3d9fd9d72b3857d6dfb27bfa8d1926b052a107e4d68c12a26422c6748de806000000171600146423277df797d246b58d5211dd12273a1103f416feffffff02cc020400000000001976a91428a10c59b3716e97e7b0a60d2591f94812287d0f88ac32460f000000000017a9142d9bdf0fb60da3034af92c5b2e26af68d7ef2ed78702473044022012ef35c0f43b64c1fe67bc930ceab034c82ae655cf8248dd2a229fa2ddc3e9c602207eba1bc1c8220384de690064f9ac60ece0ccf772f574f5262898285f6b7690250121032acb29db8d49833a8a51ad068ec6c0cfd7c1141672ddef02bba37c5299c1724502483045022100d21cf2d929cb8f7e09714e6ffb8dbf9330ef8151ff7fce96ce685da6f738db63022027a589eced9f4ece516d1b985b905a1c1858ec8cc75ff6da0a265b8a77b01a4c01210349b46e45da1f4c2f1bc7f9cb86d69f046a5a587d4202eff17336f9705603c7680d490800", "vin": [{"txinwitness": ["3044022012ef35c0f43b64c1fe67bc930ceab034c82ae655cf8248dd2a229fa2ddc3e9c602207eba1bc1c8220384de690064f9ac60ece0ccf772f574f5262898285f6b76902501", "032acb29db8d49833a8a51ad068ec6c0cfd7c1141672ddef02bba37c5299c17245"], "sequence": 4294967294, "scriptSig": {"hex": "16001480cdc1e6fef804f8ad4d973f3825ed95f1277c20", "asm": "001480cdc1e6fef804f8ad4d973f3825ed95f1277c20"}, "vout": 0, "txid": "114c5897ceb4aa0ace541b94cd092afff7170f77d878f94756883d08aaadee4f"}, {"txinwitness": ["3045022100d21cf2d929cb8f7e09714e6ffb8dbf9330ef8151ff7fce96ce685da6f738db63022027a589eced9f4ece516d1b985b905a1c1858ec8cc75ff6da0a265b8a77b01a4c01", "0349b46e45da1f4c2f1bc7f9cb86d69f046a5a587d4202eff17336f9705603c768"], "sequence": 4294967294, "scriptSig": {"hex": "1600146423277df797d246b58d5211dd12273a1103f416", "asm": "00146423277df797d246b58d5211dd12273a1103f416"}, "vout": 6, "txid": "e88d74c62264a2128cd6e407a152b026198dfa7bb2dfd657382bd7d99f3d0fc6"}], "txid": "d2320183f27c06855ac28658ae9f1432706e07431f5373500d4a1372b39b67ec", "blocktime": 1537870564, "version": 2, "confirmations": 11515, "time": 1537870564, "locktime": 542989, "vsize": 259, "size": 421}