{"hash": "d236d8fa94787923b20e169341d439d09c69d8eb07c43333f12b58f40434e513", "blockhash": "0000000000000000001f76057863aec43deb6fa401d9628bb513d65a8098bfab", "vout": [{"scriptPubKey": {"reqSigs": 1, "hex": "a91469f37747321499a5154869e02292b5162b2444a887", "addresses": ["3BMEXzgZPwNn5PW5jS1hH16DuD4rdbud73"], "asm": "OP_HASH160 69f37747321499a5154869e02292b5162b2444a8 OP_EQUAL", "type": "scripthash"}, "value": 0.00883421, "n": 0}], "hex": "01000000014382ccd9b3f9573a68efa11dd1ac5619589273f559506099e6c3d045612a9c8b000000006b483045022100979d2f06fd8414d2e054df02e0cc9a13f7aa4406755d6379936596de828d2f0902203831163333f8e529bc84eb5e34d10762c2cbd6e01f8d235b9e3123d52862a31b01210331c5ac9a7c4f27818fef0b9d38a8dd97d9d5d8290a90598cd8e40af58c133124ffffffff01dd7a0d000000000017a91469f37747321499a5154869e02292b5162b2444a88700000000", "vin": [{"sequence": 4294967295, "scriptSig": {"hex": "483045022100979d2f06fd8414d2e054df02e0cc9a13f7aa4406755d6379936596de828d2f0902203831163333f8e529bc84eb5e34d10762c2cbd6e01f8d235b9e3123d52862a31b01210331c5ac9a7c4f27818fef0b9d38a8dd97d9d5d8290a90598cd8e40af58c133124", "asm": "3045022100979d2f06fd8414d2e054df02e0cc9a13f7aa4406755d6379936596de828d2f0902203831163333f8e529bc84eb5e34d10762c2cbd6e01f8d235b9e3123d52862a31b[ALL] 0331c5ac9a7c4f27818fef0b9d38a8dd97d9d5d8290a90598cd8e40af58c133124"}, "vout": 0, "txid": "8b9c2a6145d0c3e699605059f57392581956acd11da1ef683a57f9b3d9cc8243"}], "txid": "d236d8fa94787923b20e169341d439d09c69d8eb07c43333f12b58f40434e513", "blocktime": 1537873891, "version": 1, "confirmations": 11475, "time": 1537873891, "locktime": 0, "vsize": 190, "size": 190}