{"hash": "d2376a5aa41f3c35a1aa2b6cad72618d69e53c78413f790f9df6106321a0881d", "blockhash": "0000000000000000000dcc0f55137456b1a82d3642486a52398922ac4d620174", "vout": [{"scriptPubKey": {"reqSigs": 1, "hex": "76a914284b1f894ca72430de8f19952125b6016a9dc7c688ac", "addresses": ["14g42KnXkRFfR8cUtS5tReprjeNvGQKW9v"], "asm": "OP_DUP OP_HASH160 284b1f894ca72430de8f19952125b6016a9dc7c6 OP_EQUALVERIFY OP_CHECKSIG", "type": "pubkeyhash"}, "value": 0.14464556, "n": 0}, {"scriptPubKey": {"type": "nulldata", "hex": "6a146f6d6e69000000000000001f0000003c11ff9400", "asm": "OP_RETURN 6f6d6e69000000000000001f0000003c11ff9400"}, "value": 0.0, "n": 1}, {"scriptPubKey": {"reqSigs": 1, "hex": "76a9149845ad448a83878da5851e6e06fe18f64417f7ae88ac", "addresses": ["1Et9BPZk3QTAdExtYLUn4ie8qJdNEzkeqG"], "asm": "OP_DUP OP_HASH160 9845ad448a83878da5851e6e06fe18f64417f7ae OP_EQUALVERIFY OP_CHECKSIG", "type": "pubkeyhash"}, "value": 5.46e-06, "n": 2}], "hex": "010000000146166ffe4c09d5545f5f4115e117ec5813832db53b08173c8ed6190a9414b15d000000006b483045022100eb80d6d4c395a73a23a7df6b29151cf73d7c374cac3c7d6a9a3edbd832bf025d02206b074d2137a3ebee3485b819374f29a80d98034131bc3f0f36883dfe1c46e53301210392260b2475e9dec1855e89404d00787579055270f3f1619ec29bd64ed6a6dd7dfeffffff032cb6dc00000000001976a914284b1f894ca72430de8f19952125b6016a9dc7c688ac0000000000000000166a146f6d6e69000000000000001f0000003c11ff940022020000000000001976a9149845ad448a83878da5851e6e06fe18f64417f7ae88ac0c490800", "vin": [{"sequence": 4294967294, "scriptSig": {"hex": "483045022100eb80d6d4c395a73a23a7df6b29151cf73d7c374cac3c7d6a9a3edbd832bf025d02206b074d2137a3ebee3485b819374f29a80d98034131bc3f0f36883dfe1c46e53301210392260b2475e9dec1855e89404d00787579055270f3f1619ec29bd64ed6a6dd7d", "asm": "3045022100eb80d6d4c395a73a23a7df6b29151cf73d7c374cac3c7d6a9a3edbd832bf025d02206b074d2137a3ebee3485b819374f29a80d98034131bc3f0f36883dfe1c46e533[ALL] 0392260b2475e9dec1855e89404d00787579055270f3f1619ec29bd64ed6a6dd7d"}, "vout": 0, "txid": "5db114940a19d68e3c17083bb52d831358ec17e115415f5f54d5094cfe6f1646"}], "txid": "d2376a5aa41f3c35a1aa2b6cad72618d69e53c78413f790f9df6106321a0881d", "blocktime": 1537870268, "version": 1, "confirmations": 11516, "time": 1537870268, "locktime": 542988, "vsize": 257, "size": 257}