{"hash": "d23e04c184d650d28c32d485cdc63bf4a329f50841598b30526c30729b0ab987", "blockhash": "0000000000000000001f76057863aec43deb6fa401d9628bb513d65a8098bfab", "vout": [{"scriptPubKey": {"reqSigs": 1, "hex": "76a9149a63d08727ddc45b1565473efb125bba8768510388ac", "addresses": ["1F5LdnCRPdGAJAEafA3QBWevwhEc57tAWF"], "asm": "OP_DUP OP_HASH160 9a63d08727ddc45b1565473efb125bba87685103 OP_EQUALVERIFY OP_CHECKSIG", "type": "pubkeyhash"}, "value": 0.00561587, "n": 0}, {"scriptPubKey": {"reqSigs": 1, "hex": "76a9149b8649ae294d5f2d135672c124b8867ebcb5a8be88ac", "addresses": ["1FBLcDSsiJ7gvPhd7nqX9DRr2TqSqQBqnP"], "asm": "OP_DUP OP_HASH160 9b8649ae294d5f2d135672c124b8867ebcb5a8be OP_EQUALVERIFY OP_CHECKSIG", "type": "pubkeyhash"}, "value": 0.00722587, "n": 1}], "hex": "01000000017b39181659d1d868ac9da6fffa1552d9cf29da292cf1f943e2459c4d1548f913010000006a4730440220341510ac3b982aa8003165b614be7fc011a8cec40572e76e3f51650f94b70a8402204cdb7544f745e96fecf4d67e12597adfd64109b0a33ac64e5e7449c5bfb42ffc012103becfeb3c517500471f8beb1222fb655c7aeb2f8a71d4002ae5b66965b6a00afefdffffff02b3910800000000001976a9149a63d08727ddc45b1565473efb125bba8768510388ac9b060b00000000001976a9149b8649ae294d5f2d135672c124b8867ebcb5a8be88ac00000000", "vin": [{"sequence": 4294967293, "scriptSig": {"hex": "4730440220341510ac3b982aa8003165b614be7fc011a8cec40572e76e3f51650f94b70a8402204cdb7544f745e96fecf4d67e12597adfd64109b0a33ac64e5e7449c5bfb42ffc012103becfeb3c517500471f8beb1222fb655c7aeb2f8a71d4002ae5b66965b6a00afe", "asm": "30440220341510ac3b982aa8003165b614be7fc011a8cec40572e76e3f51650f94b70a8402204cdb7544f745e96fecf4d67e12597adfd64109b0a33ac64e5e7449c5bfb42ffc[ALL] 03becfeb3c517500471f8beb1222fb655c7aeb2f8a71d4002ae5b66965b6a00afe"}, "vout": 1, "txid": "13f948154d9c45e243f9f12c29da29cfd95215faffa69dac68d8d1591618397b"}], "txid": "d23e04c184d650d28c32d485cdc63bf4a329f50841598b30526c30729b0ab987", "blocktime": 1537873891, "version": 1, "confirmations": 11479, "time": 1537873891, "locktime": 0, "vsize": 225, "size": 225}