{"hash": "d23f3854e66414bb7dd1a6b843f7e8e0c66ae4852ae4585baa5f5b760acbb889", "blockhash": "00000000000000000018f53835495a110e01622372bf6ae95dc86f2b0ab887b0", "vout": [{"scriptPubKey": {"reqSigs": 1, "hex": "76a9148b2c5b51e73afeadc152a80ab8a2248591401e2588ac", "addresses": ["1Dgt4d9eShw5NFjXuTpWCk6wt3sCmXn5Jk"], "asm": "OP_DUP OP_HASH160 8b2c5b51e73afeadc152a80ab8a2248591401e25 OP_EQUALVERIFY OP_CHECKSIG", "type": "pubkeyhash"}, "value": 0.00878002, "n": 0}, {"scriptPubKey": {"reqSigs": 1, "hex": "a914845ff4822c3dfda653441a96aadbd92e2404dcae87", "addresses": ["3Dkx4wfnvweuYsMdqrbCJutdEfQiNcWR2c"], "asm": "OP_HASH160 845ff4822c3dfda653441a96aadbd92e2404dcae OP_EQUAL", "type": "scripthash"}, "value": 0.01125, "n": 1}], "hex": "01000000028fd4bfccd57bc0ebfcda66523ede36ed646164998b86ef5a00b52b9e897905552f0000006b483045022100f4a2c5a13898311522186752511e1b4687b463c1b8e61eeb8ea5b5ba090a7b0602201bf5adc410ef99dddaa1bcbfc70e59a4c16a97e4e50f2a422b3a7914c63c12a10121028dc3410e0a06aceb8bbfc5291ed463f8f8ab67fd4ac14ee597173a1b3f363046fffffffffb7928285a602c21552c9251a10b7b1b0e55352f2e0b4eaf58e6dfac827481cf010000006b483045022100a59383868cf567fba85d25b872579719588b6ac78cf612b2a9b6269f5382730302206f4f306b9b5e75dc9cd8016596602e3f1052afa86d97ede962e3cf290ac330030121021060cb2209745fa02a00e46da38002f4afcca07b90b8190247cc19a7fddcf354ffffffff02b2650d00000000001976a9148b2c5b51e73afeadc152a80ab8a2248591401e2588ac882a11000000000017a914845ff4822c3dfda653441a96aadbd92e2404dcae8700000000", "vin": [{"sequence": 4294967295, "scriptSig": {"hex": "483045022100f4a2c5a13898311522186752511e1b4687b463c1b8e61eeb8ea5b5ba090a7b0602201bf5adc410ef99dddaa1bcbfc70e59a4c16a97e4e50f2a422b3a7914c63c12a10121028dc3410e0a06aceb8bbfc5291ed463f8f8ab67fd4ac14ee597173a1b3f363046", "asm": "3045022100f4a2c5a13898311522186752511e1b4687b463c1b8e61eeb8ea5b5ba090a7b0602201bf5adc410ef99dddaa1bcbfc70e59a4c16a97e4e50f2a422b3a7914c63c12a1[ALL] 028dc3410e0a06aceb8bbfc5291ed463f8f8ab67fd4ac14ee597173a1b3f363046"}, "vout": 47, "txid": "550579899e2bb5005aef868b99646164ed36de3e5266dafcebc07bd5ccbfd48f"}, {"sequence": 4294967295, "scriptSig": {"hex": "483045022100a59383868cf567fba85d25b872579719588b6ac78cf612b2a9b6269f5382730302206f4f306b9b5e75dc9cd8016596602e3f1052afa86d97ede962e3cf290ac330030121021060cb2209745fa02a00e46da38002f4afcca07b90b8190247cc19a7fddcf354", "asm": "3045022100a59383868cf567fba85d25b872579719588b6ac78cf612b2a9b6269f5382730302206f4f306b9b5e75dc9cd8016596602e3f1052afa86d97ede962e3cf290ac33003[ALL] 021060cb2209745fa02a00e46da38002f4afcca07b90b8190247cc19a7fddcf354"}, "vout": 1, "txid": "cf817482acdfe658af4e0b2e2f35550e1b7b0ba151922c55212c605a282879fb"}], "txid": "d23f3854e66414bb7dd1a6b843f7e8e0c66ae4852ae4585baa5f5b760acbb889", "blocktime": 1537870928, "version": 1, "confirmations": 11514, "time": 1537870928, "locktime": 0, "vsize": 372, "size": 372}