{"hash": "d240258cc706d937fb18cb0b7158e5f1b6d72ddb8da0f5a6f3c95bd20234479a", "blockhash": "0000000000000000000e13cef7c366c0283d82e591d1acd082e914b08063cdf1", "vout": [{"scriptPubKey": {"reqSigs": 1, "hex": "a914e582cde32ca2b7a950311dd9520cb6d3bd0ded7387", "addresses": ["3NcZMup8T7VdNxk3So5DYMZNQGHftP1gnu"], "asm": "OP_HASH160 e582cde32ca2b7a950311dd9520cb6d3bd0ded73 OP_EQUAL", "type": "scripthash"}, "value": 0.0059806, "n": 0}, {"scriptPubKey": {"reqSigs": 1, "hex": "76a9140c2b0de7d2821751e4bec49678618eaa1a74089e88ac", "addresses": ["127Lgma7VmUsqrd2XxRNSEATkCQWpXsNGK"], "asm": "OP_DUP OP_HASH160 0c2b0de7d2821751e4bec49678618eaa1a74089e OP_EQUALVERIFY OP_CHECKSIG", "type": "pubkeyhash"}, "value": 0.0099822, "n": 1}], "hex": "0200000002179e6e62441a6e8ebe5a05f6077185c2f0e879568522b72eac2c7d023d6a446f7f0000006b483045022100cf5e600effdbd8a73a558fe78e9bcb19e637d424f929f06ad2d7b4dfdac8bb2b022063ff36957275773ab9b556da3f80841228da1fe46c258d711abdf6992a0758b2012103f860d333a327f08814c9676a1b61886feddd45ead1960a43287273204ea33f5ffeffffff9e049a7b5219175279c5f1be4852abbc4bfd7113a4dd63782724c88baf3cafff010000006b483045022100d382f579baa5277d5793ddd30db29a7d09b14b2e5baf68edbb1d14df1c44a8fe022044d16c0ec2fcb6f4334a4c27b52b4f223dee89bca6b8f78a070999634ac9a8be0121024b8610a86be11200043b9d27f77e7721155a4a21952baa732393cab06bc27be5feffffff022c2009000000000017a914e582cde32ca2b7a950311dd9520cb6d3bd0ded73874c3b0f00000000001976a9140c2b0de7d2821751e4bec49678618eaa1a74089e88ac10490800", "vin": [{"sequence": 4294967294, "scriptSig": {"hex": "483045022100cf5e600effdbd8a73a558fe78e9bcb19e637d424f929f06ad2d7b4dfdac8bb2b022063ff36957275773ab9b556da3f80841228da1fe46c258d711abdf6992a0758b2012103f860d333a327f08814c9676a1b61886feddd45ead1960a43287273204ea33f5f", "asm": "3045022100cf5e600effdbd8a73a558fe78e9bcb19e637d424f929f06ad2d7b4dfdac8bb2b022063ff36957275773ab9b556da3f80841228da1fe46c258d711abdf6992a0758b2[ALL] 03f860d333a327f08814c9676a1b61886feddd45ead1960a43287273204ea33f5f"}, "vout": 127, "txid": "6f446a3d027d2cac2eb722855679e8f0c2857107f6055abe8e6e1a44626e9e17"}, {"sequence": 4294967294, "scriptSig": {"hex": "483045022100d382f579baa5277d5793ddd30db29a7d09b14b2e5baf68edbb1d14df1c44a8fe022044d16c0ec2fcb6f4334a4c27b52b4f223dee89bca6b8f78a070999634ac9a8be0121024b8610a86be11200043b9d27f77e7721155a4a21952baa732393cab06bc27be5", "asm": "3045022100d382f579baa5277d5793ddd30db29a7d09b14b2e5baf68edbb1d14df1c44a8fe022044d16c0ec2fcb6f4334a4c27b52b4f223dee89bca6b8f78a070999634ac9a8be[ALL] 024b8610a86be11200043b9d27f77e7721155a4a21952baa732393cab06bc27be5"}, "vout": 1, "txid": "ffaf3caf8bc824277863dda41371fd4bbcab5248bef1c579521719527b9a049e"}], "txid": "d240258cc706d937fb18cb0b7158e5f1b6d72ddb8da0f5a6f3c95bd20234479a", "blocktime": 1537871767, "version": 2, "confirmations": 11491, "time": 1537871767, "locktime": 542992, "vsize": 372, "size": 372}