{"hash": "d241327c77d57bc9d988f7db4683ad5729391e50f0633575007d19355b4b4566", "blockhash": "0000000000000000000e13cef7c366c0283d82e591d1acd082e914b08063cdf1", "vout": [{"scriptPubKey": {"reqSigs": 1, "hex": "0014ad58c3c23e988011f421e90cc5434e83527ec4c0", "addresses": ["bc1q44vv8s37nzqprappayxv2s6wsdf8a3xqxycacn"], "asm": "0 ad58c3c23e988011f421e90cc5434e83527ec4c0", "type": "witness_v0_keyhash"}, "value": 1.87694919, "n": 0}, {"scriptPubKey": {"reqSigs": 1, "hex": "76a91489469b7f98a531c236b19880613c79d46fb23ccd88ac", "addresses": ["1DWrAArwRicKNR9JcyiQnxwCCWn7qHQ62D"], "asm": "OP_DUP OP_HASH160 89469b7f98a531c236b19880613c79d46fb23ccd OP_EQUALVERIFY OP_CHECKSIG", "type": "pubkeyhash"}, "value": 0.0205, "n": 1}], "hex": "01000000019cf05997c8289f2f31007c438454af9f728eb1c7d4a7686148040157868b978bc80000006a47304402201a9a848a76222ad94eb47f2bd3b29bceba87eac7b6126bbbb44fcf3e41c8d26002201115359815cfd1b65d90f5321ea8fd53533586a02028e38230784d91cd342e93012102321d4d89c891db32b742e0469d87161800dfaa1ba314c709b5abece501bdcaf9ffffffff0247ff2f0b00000000160014ad58c3c23e988011f421e90cc5434e83527ec4c0d0471f00000000001976a91489469b7f98a531c236b19880613c79d46fb23ccd88ac00000000", "vin": [{"sequence": 4294967295, "scriptSig": {"hex": "47304402201a9a848a76222ad94eb47f2bd3b29bceba87eac7b6126bbbb44fcf3e41c8d26002201115359815cfd1b65d90f5321ea8fd53533586a02028e38230784d91cd342e93012102321d4d89c891db32b742e0469d87161800dfaa1ba314c709b5abece501bdcaf9", "asm": "304402201a9a848a76222ad94eb47f2bd3b29bceba87eac7b6126bbbb44fcf3e41c8d26002201115359815cfd1b65d90f5321ea8fd53533586a02028e38230784d91cd342e93[ALL] 02321d4d89c891db32b742e0469d87161800dfaa1ba314c709b5abece501bdcaf9"}, "vout": 200, "txid": "8b978b86570104486168a7d4c7b18e729faf5484437c00312f9f28c89759f09c"}], "txid": "d241327c77d57bc9d988f7db4683ad5729391e50f0633575007d19355b4b4566", "blocktime": 1537871767, "version": 1, "confirmations": 11495, "time": 1537871767, "locktime": 0, "vsize": 222, "size": 222}