{"hash": "d243e7c48dc7eb58735f404075b6ab2142cbf23b9104ebeebf0dda1cb53432bd", "blockhash": "00000000000000000004ffacab907a6b429b9a5745fa0b75af4234bf69dd7176", "vout": [{"scriptPubKey": {"reqSigs": 1, "hex": "a914b33791f03a065bdd9bb51fdcafc2672b379ddae087", "addresses": ["3J2dSxVt8tb79UQjDobLzuTdDfHuMFLsBp"], "asm": "OP_HASH160 b33791f03a065bdd9bb51fdcafc2672b379ddae0 OP_EQUAL", "type": "scripthash"}, "value": 0.00499, "n": 0}, {"scriptPubKey": {"reqSigs": 1, "hex": "76a9140a6af10d6d856efd7f56a4e930cda105056d731d88ac", "addresses": ["1x5sMQ9xfztRQhXp6amWsmH4DD1w5yjkH"], "asm": "OP_DUP OP_HASH160 0a6af10d6d856efd7f56a4e930cda105056d731d OP_EQUALVERIFY OP_CHECKSIG", "type": "pubkeyhash"}, "value": 0.00054649, "n": 1}], "hex": "0100000002f491ca43cf836dbe807f29adc5e9657e3a7f6d2d592a060a724dd1a1a1c782da020000006a473044022035cf9544994063ce91266d3aa0542c44a9262f916535621ef8a2f9c197ba8b7702202e9955eed0eafc2fc992c4e435175144b9784d44dced71d83ec28be11dc65cbd012103dd013cd903dae55f61f3b793324cca872fe24fef30ccda742d63e1cf3c518f48ffffffff9d9f105cc033bb350a7e24a86d9160833c1d795ce817e4ebf9c7fff122daff5d010000006a4730440220021e0a840542d69eb10011dc95b149efc29fa3a4f7127df403709309d7d4738f02201e959dc26cd787f4044a96c0d8181feb7af8b379da4bbeb7e37d3e0bfacb042b012103dd013cd903dae55f61f3b793324cca872fe24fef30ccda742d63e1cf3c518f48ffffffff02389d07000000000017a914b33791f03a065bdd9bb51fdcafc2672b379ddae08779d50000000000001976a9140a6af10d6d856efd7f56a4e930cda105056d731d88ac00000000", "vin": [{"sequence": 4294967295, "scriptSig": {"hex": "473044022035cf9544994063ce91266d3aa0542c44a9262f916535621ef8a2f9c197ba8b7702202e9955eed0eafc2fc992c4e435175144b9784d44dced71d83ec28be11dc65cbd012103dd013cd903dae55f61f3b793324cca872fe24fef30ccda742d63e1cf3c518f48", "asm": "3044022035cf9544994063ce91266d3aa0542c44a9262f916535621ef8a2f9c197ba8b7702202e9955eed0eafc2fc992c4e435175144b9784d44dced71d83ec28be11dc65cbd[ALL] 03dd013cd903dae55f61f3b793324cca872fe24fef30ccda742d63e1cf3c518f48"}, "vout": 2, "txid": "da82c7a1a1d14d720a062a592d6d7f3a7e65e9c5ad297f80be6d83cf43ca91f4"}, {"sequence": 4294967295, "scriptSig": {"hex": "4730440220021e0a840542d69eb10011dc95b149efc29fa3a4f7127df403709309d7d4738f02201e959dc26cd787f4044a96c0d8181feb7af8b379da4bbeb7e37d3e0bfacb042b012103dd013cd903dae55f61f3b793324cca872fe24fef30ccda742d63e1cf3c518f48", "asm": "30440220021e0a840542d69eb10011dc95b149efc29fa3a4f7127df403709309d7d4738f02201e959dc26cd787f4044a96c0d8181feb7af8b379da4bbeb7e37d3e0bfacb042b[ALL] 03dd013cd903dae55f61f3b793324cca872fe24fef30ccda742d63e1cf3c518f48"}, "vout": 1, "txid": "5dffda22f1ffc7f9ebe417e85c791d3c8360916da8247e0a35bb33c05c109f9d"}], "txid": "d243e7c48dc7eb58735f404075b6ab2142cbf23b9104ebeebf0dda1cb53432bd", "blocktime": 1537875543, "version": 1, "confirmations": 11464, "time": 1537875543, "locktime": 0, "vsize": 370, "size": 370}