{"hash": "ccbc4064e7eddff82a22f30b8bdc22e5fbe02ea13a42a5b3abd68c6670801cfb", "blockhash": "000000000000000000022b45ed06c6f4ccd3cf7fb5ba4856ebd2e58215665228", "vout": [{"scriptPubKey": {"reqSigs": 1, "hex": "a91450d737fc9e98cbdc6f3a4ff948f473c26fb3037587", "addresses": ["394ToYi5AufoH2xkZpegayo3SWbWyFKZNd"], "asm": "OP_HASH160 50d737fc9e98cbdc6f3a4ff948f473c26fb30375 OP_EQUAL", "type": "scripthash"}, "value": 0.43841, "n": 0}, {"scriptPubKey": {"type": "nulldata", "hex": "6a28565800000006301d4449e5cb9b69be11e650b7279f6d1fada5e6c29106db81e2494494ba11af49d0", "asm": "OP_RETURN 565800000006301d4449e5cb9b69be11e650b7279f6d1fada5e6c29106db81e2494494ba11af49d0"}, "value": 0.0, "n": 1}], "hex": "020000000001013ea2dcc1628da901c3c08ed737968297bb77b82e8e6657f417c38d77c1bd32050000000017160014113ce6ff61e0d8228f2819ff1ee5fc5cb8d1789bffffffff02e8f59c020000000017a91450d737fc9e98cbdc6f3a4ff948f473c26fb303758700000000000000002a6a28565800000006301d4449e5cb9b69be11e650b7279f6d1fada5e6c29106db81e2494494ba11af49d002483045022100da089514a1c52b04976c534c820055e1b422bf8ad496fdc8499b6143abf2411502201ddc4e530e0658add1cb0ff5697a56503698c539a79f025e5938c3c1040398b6012103e49f1fdfe4f7e45fdc91bb67575b81913e141341ab8a1b30c409a2d5937b5a6100000000", "vin": [{"txinwitness": ["3045022100da089514a1c52b04976c534c820055e1b422bf8ad496fdc8499b6143abf2411502201ddc4e530e0658add1cb0ff5697a56503698c539a79f025e5938c3c1040398b601", "03e49f1fdfe4f7e45fdc91bb67575b81913e141341ab8a1b30c409a2d5937b5a61"], "sequence": 4294967295, "scriptSig": {"hex": "160014113ce6ff61e0d8228f2819ff1ee5fc5cb8d1789b", "asm": "0014113ce6ff61e0d8228f2819ff1ee5fc5cb8d1789b"}, "vout": 0, "txid": "0532bdc1778dc317f457668e2eb877bb97829637d78ec0c301a98d62c1dca23e"}], "txid": "d24514c413fb4ed337a09b0bc4930e4e556dd479b904b4e405d49f900e828f89", "blocktime": 1537869901, "version": 2, "confirmations": 11522, "time": 1537869901, "locktime": 0, "vsize": 185, "size": 267}