{"hash": "3f3b6c0ab41cd08008777bab3c89448b52bc085ca3299ffe6493a46d7e686f75", "blockhash": "00000000000000000018f53835495a110e01622372bf6ae95dc86f2b0ab887b0", "vout": [{"scriptPubKey": {"reqSigs": 1, "hex": "76a914e33f1124c2b6ba941e232d8c6bbaa307b196550088ac", "addresses": ["1MiZwWt9mhAhyA8wq5R5MPFAPFZg3r6rjB"], "asm": "OP_DUP OP_HASH160 e33f1124c2b6ba941e232d8c6bbaa307b1965500 OP_EQUALVERIFY OP_CHECKSIG", "type": "pubkeyhash"}, "value": 0.02009507, "n": 0}, {"scriptPubKey": {"reqSigs": 1, "hex": "00143f874929ddf3383c4b63f134a5fedacb12fd3357", "addresses": ["bc1q87r5j2wa7vurcjmr7y62tlk6evf06v6hda9swn"], "asm": "0 3f874929ddf3383c4b63f134a5fedacb12fd3357", "type": "witness_v0_keyhash"}, "value": 0.21989905, "n": 1}], "hex": "010000000001010bfa6b4cf640c822838ea906d25d66d6adbd3dc72899491cd6acec5f65c240a11300000017160014b359b773ca48eae349c80b37a2766c171619138fffffffff02a3a91e00000000001976a914e33f1124c2b6ba941e232d8c6bbaa307b196550088ac118a4f01000000001600143f874929ddf3383c4b63f134a5fedacb12fd33570247304402204677edda7196546a79b57aa9de45f6da9704a32071a6f58018c77c18cffdc83402203912494f8b9ca1d8875e18d8849977dcd1b17c094efeb023463e9dd241ed0624012102cea7bd3d8fb944343ec7f7be21caee85841c89fcf4ece2f80850fc5c8941539f00000000", "vin": [{"txinwitness": ["304402204677edda7196546a79b57aa9de45f6da9704a32071a6f58018c77c18cffdc83402203912494f8b9ca1d8875e18d8849977dcd1b17c094efeb023463e9dd241ed062401", "02cea7bd3d8fb944343ec7f7be21caee85841c89fcf4ece2f80850fc5c8941539f"], "sequence": 4294967295, "scriptSig": {"hex": "160014b359b773ca48eae349c80b37a2766c171619138f", "asm": "0014b359b773ca48eae349c80b37a2766c171619138f"}, "vout": 19, "txid": "a140c2655fecacd61c499928c73dbdadd6665dd206a98e8322c840f64c6bfa0b"}], "txid": "d24874ce569dbdb0e7f434b3dd1447104e450b75f24483a749f4a09378373915", "blocktime": 1537870928, "version": 1, "confirmations": 11514, "time": 1537870928, "locktime": 0, "vsize": 167, "size": 248}