{"hash": "cce08909886f4090aaa093ff1e5880058c92cd3d5f4f0f5ec1466acd72606846", "blockhash": "0000000000000000001e0dab787dd257d1dbfcb92a98c2207d5e1078be1f4165", "vout": [{"scriptPubKey": {"reqSigs": 1, "hex": "a914160176671832a3b26a8c586eda735f6ad02998b387", "addresses": ["33hNYP45J622CayQ3sgUodinYK7Cu5SuQp"], "asm": "OP_HASH160 160176671832a3b26a8c586eda735f6ad02998b3 OP_EQUAL", "type": "scripthash"}, "value": 0.5, "n": 0}, {"scriptPubKey": {"reqSigs": 1, "hex": "0014c9f3deb320fc5ea6992c7101873a398f0fe15027", "addresses": ["bc1qe8eaaveql302dxfvwyqcww3e3u87z5p8xllvwc"], "asm": "0 c9f3deb320fc5ea6992c7101873a398f0fe15027", "type": "witness_v0_keyhash"}, "value": 0.00088724, "n": 1}], "hex": "01000000000101e407f4609fad44e4b33ace5785e7b31bbc3b69b1774f025186b19db2e4e2dee20000000000ffffffff0280f0fa020000000017a914160176671832a3b26a8c586eda735f6ad02998b387945a010000000000160014c9f3deb320fc5ea6992c7101873a398f0fe150270247304402204fbe3af809f6431947aef6efcf80452685bb4c7df5aae23ea07008e5f5cfff6302203ed2e7f99172e7d581a51770c542fe510efa1c905f93d0c17348b0f282fc0a9a01210397e39d17dd4c7a32aef10e669bf75b157acf6aa5917715f1b81ec277724fe85600000000", "vin": [{"txinwitness": ["304402204fbe3af809f6431947aef6efcf80452685bb4c7df5aae23ea07008e5f5cfff6302203ed2e7f99172e7d581a51770c542fe510efa1c905f93d0c17348b0f282fc0a9a01", "0397e39d17dd4c7a32aef10e669bf75b157acf6aa5917715f1b81ec277724fe856"], "sequence": 4294967295, "scriptSig": {"hex": "", "asm": ""}, "vout": 0, "txid": "e2dee2e4b29db18651024f77b1693bbc1bb3e78557ce3ab3e444ad9f60f407e4"}], "txid": "d24db2b557d421e4f18ca2762f5cd25fed02afedffab96084b248c9fa74be2bc", "blocktime": 1537872475, "version": 1, "confirmations": 11486, "time": 1537872475, "locktime": 0, "vsize": 142, "size": 223}