{"hash": "d2501c1aebd26e69492cef5de6a0b26028ee10695a7a18cc82b44e07ef30c36d", "blockhash": "0000000000000000000e13cef7c366c0283d82e591d1acd082e914b08063cdf1", "vout": [{"scriptPubKey": {"type": "nulldata", "hex": "6a146f6d6e69000000000000001f000000012d819bdc", "asm": "OP_RETURN 6f6d6e69000000000000001f000000012d819bdc"}, "value": 0.0, "n": 0}, {"scriptPubKey": {"reqSigs": 1, "hex": "76a914a25dec4d0011064ef106a983c39c7a540699f22088ac", "addresses": ["1FoWyxwPXuj4C6abqwhjDWdz6D4PZgYRjA"], "asm": "OP_DUP OP_HASH160 a25dec4d0011064ef106a983c39c7a540699f220 OP_EQUALVERIFY OP_CHECKSIG", "type": "pubkeyhash"}, "value": 0.01995188, "n": 1}, {"scriptPubKey": {"reqSigs": 1, "hex": "76a914c785b2c6472c90f198379e0832a9e767e7edc85a88ac", "addresses": ["1KBydhTqY1J5ScEVfqoS7K48VLfmRFmY9E"], "asm": "OP_DUP OP_HASH160 c785b2c6472c90f198379e0832a9e767e7edc85a OP_EQUALVERIFY OP_CHECKSIG", "type": "pubkeyhash"}, "value": 5.46e-06, "n": 2}], "hex": "0100000001a44813c76173a4fe9689194c29809e35be05f1741d9b5e1e9e8bd44070ac1fea700000006b483045022100a73a5d50371665d9587f67154ec18ee729bc77afa375d06842fc1a3a987187db022050d2c1c28ca231b0f16ee7a67ca0f1242049636aae112b06ef44dcea303781e8012103da5bac7b36d5aa38f531c6b9601e21bb598a4b6716ebed38b009a55dabde9440feffffff030000000000000000166a146f6d6e69000000000000001f000000012d819bdcb4711e00000000001976a914a25dec4d0011064ef106a983c39c7a540699f22088ac22020000000000001976a914c785b2c6472c90f198379e0832a9e767e7edc85a88ac10490800", "vin": [{"sequence": 4294967294, "scriptSig": {"hex": "483045022100a73a5d50371665d9587f67154ec18ee729bc77afa375d06842fc1a3a987187db022050d2c1c28ca231b0f16ee7a67ca0f1242049636aae112b06ef44dcea303781e8012103da5bac7b36d5aa38f531c6b9601e21bb598a4b6716ebed38b009a55dabde9440", "asm": "3045022100a73a5d50371665d9587f67154ec18ee729bc77afa375d06842fc1a3a987187db022050d2c1c28ca231b0f16ee7a67ca0f1242049636aae112b06ef44dcea303781e8[ALL] 03da5bac7b36d5aa38f531c6b9601e21bb598a4b6716ebed38b009a55dabde9440"}, "vout": 112, "txid": "ea1fac7040d48b9e1e5e9b1d74f105be359e80294c198996fea47361c71348a4"}], "txid": "d2501c1aebd26e69492cef5de6a0b26028ee10695a7a18cc82b44e07ef30c36d", "blocktime": 1537871767, "version": 1, "confirmations": 11490, "time": 1537871767, "locktime": 542992, "vsize": 257, "size": 257}