{"hash": "8ccf9270cb2b7b9d8a528f69a3f377680959112da4f1f52007cc11cd68bc8245", "blockhash": "0000000000000000000e13cef7c366c0283d82e591d1acd082e914b08063cdf1", "vout": [{"scriptPubKey": {"reqSigs": 1, "hex": "76a9145154f10d4afaeda5524b7d5b2af76e9de509037488ac", "addresses": ["18R3VPKEL1NsTypopiF58QBeKrksWvsxaF"], "asm": "OP_DUP OP_HASH160 5154f10d4afaeda5524b7d5b2af76e9de5090374 OP_EQUALVERIFY OP_CHECKSIG", "type": "pubkeyhash"}, "value": 0.2181, "n": 0}, {"scriptPubKey": {"reqSigs": 1, "hex": "a91492d2a8d0489259e371ad03efd4172baeb5578fdd87", "addresses": ["3F5LwRaprwiX5uycwrB7iaa1RsRgPYkrbc"], "asm": "OP_HASH160 92d2a8d0489259e371ad03efd4172baeb5578fdd OP_EQUAL", "type": "scripthash"}, "value": 0.01182452, "n": 1}], "hex": "020000000001028897e6c8b86301bdb6c66851543e7dd5ec4d85f9ff80dc20528c4babe391ca370000000017160014220ef0e8375602557d540c545442f58eb404da49feffffffab3b1e91818e24b05d5e761cfe349cffa230a6e808ad9d063c217c55a115809802000000171600148e886b1868c4c92750d04a57a50524d0dc39969ffeffffff0250cb4c01000000001976a9145154f10d4afaeda5524b7d5b2af76e9de509037488acf40a12000000000017a91492d2a8d0489259e371ad03efd4172baeb5578fdd87024830450221009f409e158af1bd4ee1f6991aef790965062c016a9aaa1f62f9e296c8008289d4022076971ef8138430324aa898710fd1c9cc513705e5d9803d7fcf05aeae58494244012102435a7e3737ad6632268bc3a9867ef7cbef4382f65d8e0e230f6b0f169c3945b40248304502210092b4405e161b3892acb580a48f1ac426e8006c740d174bd629aa6df0c12f1c790220781077df9c178cdc9185555e146f204efeef3bf523c0823af0f3bf73c11bf6bb01210381fadb5b202e2a6d87c6dc7fbb70a8dfc0bbe9205332e16246c98480a6a82b470f490800", "vin": [{"txinwitness": ["30450221009f409e158af1bd4ee1f6991aef790965062c016a9aaa1f62f9e296c8008289d4022076971ef8138430324aa898710fd1c9cc513705e5d9803d7fcf05aeae5849424401", "02435a7e3737ad6632268bc3a9867ef7cbef4382f65d8e0e230f6b0f169c3945b4"], "sequence": 4294967294, "scriptSig": {"hex": "160014220ef0e8375602557d540c545442f58eb404da49", "asm": "0014220ef0e8375602557d540c545442f58eb404da49"}, "vout": 0, "txid": "37ca91e3ab4b8c5220dc80fff9854decd57d3e545168c6b6bd0163b8c8e69788"}, {"txinwitness": ["304502210092b4405e161b3892acb580a48f1ac426e8006c740d174bd629aa6df0c12f1c790220781077df9c178cdc9185555e146f204efeef3bf523c0823af0f3bf73c11bf6bb01", "0381fadb5b202e2a6d87c6dc7fbb70a8dfc0bbe9205332e16246c98480a6a82b47"], "sequence": 4294967294, "scriptSig": {"hex": "1600148e886b1868c4c92750d04a57a50524d0dc39969f", "asm": "00148e886b1868c4c92750d04a57a50524d0dc39969f"}, "vout": 2, "txid": "988015a1557c213c069dad08e8a630a2ff9c34fe1c765e5db0248e81911e3bab"}], "txid": "d256448d4e2c7647f4ac3721a1ddd81deb7c942db3a22c5eb43442e616aef6ea", "blocktime": 1537871767, "version": 2, "confirmations": 11495, "time": 1537871767, "locktime": 542991, "vsize": 259, "size": 422}