{"hash": "9b2b8bf6b26202689294eaee760b95d156f008ba0432ff3f8ea9e8571163c2c1", "blockhash": "000000000000000000022b45ed06c6f4ccd3cf7fb5ba4856ebd2e58215665228", "vout": [{"scriptPubKey": {"reqSigs": 1, "hex": "a914f41cd7bcea99938de284e7c62ca213ba7c53757a87", "addresses": ["3PwmMNtK1DKPFUZgQwz491jsEFe13sDgWw"], "asm": "OP_HASH160 f41cd7bcea99938de284e7c62ca213ba7c53757a OP_EQUAL", "type": "scripthash"}, "value": 0.043, "n": 0}, {"scriptPubKey": {"reqSigs": 1, "hex": "a914fcd51f3057e9b84a1b057030b508d43dfd8ba5e087", "addresses": ["3QjsWrDrtG6mLLKiiDPJGTM4sU8jh57qAW"], "asm": "OP_HASH160 fcd51f3057e9b84a1b057030b508d43dfd8ba5e0 OP_EQUAL", "type": "scripthash"}, "value": 0.05696, "n": 1}], "hex": "0100000000010164ac9b512bec8b1ef277f65f82d0827202cb3e270f1375bf3943f46c9b4e9af901000000171600148e7df63830b7d5940f7a6a96af268ff785a9b9d4ffffffff02e09c41000000000017a914f41cd7bcea99938de284e7c62ca213ba7c53757a8700ea56000000000017a914fcd51f3057e9b84a1b057030b508d43dfd8ba5e0870247304402201ee2ff767b3f9ab4664ca4870ba860f13d29745721b09021e0c8b07fe369bd320220477968deaba2c6456d56a03d319436e5b5952c7a751df6b9089272d5b4a53bfe012103f85d5382a14f149ce63cf53cd82a4d6fddc7e24d7e68d56a701ba5e1b55f3e9700000000", "vin": [{"txinwitness": ["304402201ee2ff767b3f9ab4664ca4870ba860f13d29745721b09021e0c8b07fe369bd320220477968deaba2c6456d56a03d319436e5b5952c7a751df6b9089272d5b4a53bfe01", "03f85d5382a14f149ce63cf53cd82a4d6fddc7e24d7e68d56a701ba5e1b55f3e97"], "sequence": 4294967295, "scriptSig": {"hex": "1600148e7df63830b7d5940f7a6a96af268ff785a9b9d4", "asm": "00148e7df63830b7d5940f7a6a96af268ff785a9b9d4"}, "vout": 1, "txid": "f99a4e9b6cf44339bf75130f273ecb027282d0825ff677f21e8bec2b519bac64"}], "txid": "d25bd72ab954608ef3488427d2dae971bc9ca10519400de19d4005d2914910bb", "blocktime": 1537869901, "version": 1, "confirmations": 11522, "time": 1537869901, "locktime": 0, "vsize": 166, "size": 247}