{"hash": "d25c136f68222b706be01fd8c402d0fc4c711106ea4692833044ac698d73cd22", "blockhash": "0000000000000000000e13cef7c366c0283d82e591d1acd082e914b08063cdf1", "vout": [{"scriptPubKey": {"reqSigs": 1, "hex": "76a914a4ae8dbc6b2335e1ae4ccbb4d0fb0fad1587cc8288ac", "addresses": ["1G1kvfL6eDr2W5MNpF8g9g8iyjgC49iex1"], "asm": "OP_DUP OP_HASH160 a4ae8dbc6b2335e1ae4ccbb4d0fb0fad1587cc82 OP_EQUALVERIFY OP_CHECKSIG", "type": "pubkeyhash"}, "value": 0.0064781, "n": 0}, {"scriptPubKey": {"type": "nulldata", "hex": "6a4c5000007794000197b46aacbf9d8ecbd73510f5e3ef3236678a625097bcbefa6b8351586b4ecfd1cf2fc0f8da7267914631a8e740655baa0cd806147062147c1c741d100759d4ba30d2c37bb011d97e02cf", "asm": "OP_RETURN 00007794000197b46aacbf9d8ecbd73510f5e3ef3236678a625097bcbefa6b8351586b4ecfd1cf2fc0f8da7267914631a8e740655baa0cd806147062147c1c741d100759d4ba30d2c37bb011d97e02cf"}, "value": 0.0, "n": 1}], "hex": "010000000123367ed97847a1e2d7d9a71d50c2fbd5dccc088ea221b26034330337fbf2c002010000006a4730440220237bb0831c335d7f616261e6ce60cf4925c833d1bc3d51a1ce475506b38449fe02205a0c9274897adbaee836390f6bb38d08d8ac80af1f003264101f6b6910ba8729012102086c5506eb6e979ac800678591b431a77e12af7ea68dac31373bce791b8a8052ffffffff0282e20900000000001976a914a4ae8dbc6b2335e1ae4ccbb4d0fb0fad1587cc8288ac0000000000000000536a4c5000007794000197b46aacbf9d8ecbd73510f5e3ef3236678a625097bcbefa6b8351586b4ecfd1cf2fc0f8da7267914631a8e740655baa0cd806147062147c1c741d100759d4ba30d2c37bb011d97e02cf00000000", "vin": [{"sequence": 4294967295, "scriptSig": {"hex": "4730440220237bb0831c335d7f616261e6ce60cf4925c833d1bc3d51a1ce475506b38449fe02205a0c9274897adbaee836390f6bb38d08d8ac80af1f003264101f6b6910ba8729012102086c5506eb6e979ac800678591b431a77e12af7ea68dac31373bce791b8a8052", "asm": "30440220237bb0831c335d7f616261e6ce60cf4925c833d1bc3d51a1ce475506b38449fe02205a0c9274897adbaee836390f6bb38d08d8ac80af1f003264101f6b6910ba8729[ALL] 02086c5506eb6e979ac800678591b431a77e12af7ea68dac31373bce791b8a8052"}, "vout": 1, "txid": "02c0f2fb3703333460b221a28e08ccdcd5fbc2501da7d9d7e2a14778d97e3623"}], "txid": "d25c136f68222b706be01fd8c402d0fc4c711106ea4692833044ac698d73cd22", "blocktime": 1537871767, "version": 1, "confirmations": 11495, "time": 1537871767, "locktime": 0, "vsize": 283, "size": 283}