{"hash": "d25d56a484cd3c915d716ed3f4b70b542f3ecb53c0f5619cf0a4399973574fbc", "blockhash": "0000000000000000001cda96e906b7601b7a6fb1a3b62bca570a9e5d8f4b3de1", "vout": [{"scriptPubKey": {"type": "nulldata", "hex": "6a20cbe06db88aaba78eac2c65b631528c1104d8ddab03e76fdcf26b564770b401e1", "asm": "OP_RETURN cbe06db88aaba78eac2c65b631528c1104d8ddab03e76fdcf26b564770b401e1"}, "value": 0.0, "n": 0}, {"scriptPubKey": {"reqSigs": 1, "hex": "76a9147003cc5915f6c23fd512b38daeeecfdde7a587e988ac", "addresses": ["1BDHEPgB8iGipkaaJDxkAYjuzvEowNvGG7"], "asm": "OP_DUP OP_HASH160 7003cc5915f6c23fd512b38daeeecfdde7a587e9 OP_EQUALVERIFY OP_CHECKSIG", "type": "pubkeyhash"}, "value": 0.094282, "n": 1}], "hex": "0100000001a74160be1e3a9064da030147d7ba115b0168ea6964edbc2de79c2c34c8432124010000006b483045022100beaca4cf646df0fbc39bb24186836cca10b784fd31addb23f17f6b53af413b360220790d1468775f3a16e1c87a47aacfc9eb59d79659322abfc490b29f43447354700121035b690114679d44d75b75aa170e34596c94c778f589bcb9063b0e4e293fcacd1dffffffff020000000000000000226a20cbe06db88aaba78eac2c65b631528c1104d8ddab03e76fdcf26b564770b401e1e8dc8f00000000001976a9147003cc5915f6c23fd512b38daeeecfdde7a587e988ac00000000", "vin": [{"sequence": 4294967295, "scriptSig": {"hex": "483045022100beaca4cf646df0fbc39bb24186836cca10b784fd31addb23f17f6b53af413b360220790d1468775f3a16e1c87a47aacfc9eb59d79659322abfc490b29f43447354700121035b690114679d44d75b75aa170e34596c94c778f589bcb9063b0e4e293fcacd1d", "asm": "3045022100beaca4cf646df0fbc39bb24186836cca10b784fd31addb23f17f6b53af413b360220790d1468775f3a16e1c87a47aacfc9eb59d79659322abfc490b29f4344735470[ALL] 035b690114679d44d75b75aa170e34596c94c778f589bcb9063b0e4e293fcacd1d"}, "vout": 1, "txid": "242143c8342c9ce72dbced6469ea68015b11bad7470103da64903a1ebe6041a7"}], "txid": "d25d56a484cd3c915d716ed3f4b70b542f3ecb53c0f5619cf0a4399973574fbc", "blocktime": 1537873282, "version": 1, "confirmations": 11480, "time": 1537873282, "locktime": 0, "vsize": 235, "size": 235}