{"hash": "1f3546dcc2c84da40dc60e0cae98ddcb2693945135e885be5820c4964c659ba9", "blockhash": "0000000000000000001cda96e906b7601b7a6fb1a3b62bca570a9e5d8f4b3de1", "vout": [{"scriptPubKey": {"reqSigs": 1, "hex": "76a9141d201e89bab2b4a9b72e5b6302a5ff1193df7daf88ac", "addresses": ["13f15FXPL4vzpC3qqmRDT1aywANw5XmJz3"], "asm": "OP_DUP OP_HASH160 1d201e89bab2b4a9b72e5b6302a5ff1193df7daf OP_EQUALVERIFY OP_CHECKSIG", "type": "pubkeyhash"}, "value": 0.00576173, "n": 0}, {"scriptPubKey": {"reqSigs": 1, "hex": "a9143c2abd74a5583b3cec4ed51ea3ff593e62e5e24887", "addresses": ["37B9fggtNHLDT1Uaf2tNoE27nZwhbMpJXr"], "asm": "OP_HASH160 3c2abd74a5583b3cec4ed51ea3ff593e62e5e248 OP_EQUAL", "type": "scripthash"}, "value": 0.01045068, "n": 1}], "hex": "010000000001015bd410ec0d185fcf15bb5a01a55962ad938b1568c933ab7fd7afc596533faeb301000000232200203007cfdfa3d04715ba87fe77d6aae58465a3b447c26363480b8ad27d87a20cc4ffffffff02adca0800000000001976a9141d201e89bab2b4a9b72e5b6302a5ff1193df7daf88ac4cf20f000000000017a9143c2abd74a5583b3cec4ed51ea3ff593e62e5e248870400473044022007347d6a419d1f678074a9211452ff7359d5af7bddce20c04dd38f5fc023139e02203ed70b862829ea10c5a35b7f2d9f814bb718be08fae0875016aed1ccc9b48f6d014730440220010b5c383eb918589afbf96657e0c40175b6d9004f7d22a7c97d98f43ecb45430220705e82581b7b0cd4e037afc21545ee563197730bc2115958ea767e22e9200410014752210201ed15c113c7964299ab43d2d186d32f0fdc62ed236a6047dc1d4fc9cb3bf0df210292d679353fa4a760eaad69284c09d063a1fd1a15ad8c70e83dbf86f7063f8c1852ae00000000", "vin": [{"txinwitness": ["", "3044022007347d6a419d1f678074a9211452ff7359d5af7bddce20c04dd38f5fc023139e02203ed70b862829ea10c5a35b7f2d9f814bb718be08fae0875016aed1ccc9b48f6d01", "30440220010b5c383eb918589afbf96657e0c40175b6d9004f7d22a7c97d98f43ecb45430220705e82581b7b0cd4e037afc21545ee563197730bc2115958ea767e22e920041001", "52210201ed15c113c7964299ab43d2d186d32f0fdc62ed236a6047dc1d4fc9cb3bf0df210292d679353fa4a760eaad69284c09d063a1fd1a15ad8c70e83dbf86f7063f8c1852ae"], "sequence": 4294967295, "scriptSig": {"hex": "2200203007cfdfa3d04715ba87fe77d6aae58465a3b447c26363480b8ad27d87a20cc4", "asm": "00203007cfdfa3d04715ba87fe77d6aae58465a3b447c26363480b8ad27d87a20cc4"}, "vout": 1, "txid": "b3ae3f5396c5afd77fab33c968158b93ad6259a5015abb15cf5f180dec10d45b"}], "txid": "d260160afbfd3e87ab03cdb79b03e1ccba51d6e4e75aa5bb8dc181b4c2eabdb1", "blocktime": 1537873282, "version": 1, "confirmations": 11481, "time": 1537873282, "locktime": 0, "vsize": 207, "size": 372}