{"hash": "d263219ec8d391b53f97a3addc2cc7e948fa72f855574492ad6e3b27a7c660aa", "blockhash": "0000000000000000001f76057863aec43deb6fa401d9628bb513d65a8098bfab", "vout": [{"scriptPubKey": {"reqSigs": 1, "hex": "76a91467317a3f6853f289ac6303d70c27c6212daca7af88ac", "addresses": ["1AQdsX2ATdmo3z6ouzHoYnsWf4r5YDkQK5"], "asm": "OP_DUP OP_HASH160 67317a3f6853f289ac6303d70c27c6212daca7af OP_EQUALVERIFY OP_CHECKSIG", "type": "pubkeyhash"}, "value": 0.09353368, "n": 0}, {"scriptPubKey": {"reqSigs": 1, "hex": "76a914da3178ec76e8ad094ed21df4e1b7f66c14fdf15288ac", "addresses": ["1LthaDgqTEE7mL7aP2P7gtTpkjADz7LbzL"], "asm": "OP_DUP OP_HASH160 da3178ec76e8ad094ed21df4e1b7f66c14fdf152 OP_EQUALVERIFY OP_CHECKSIG", "type": "pubkeyhash"}, "value": 24.37034372, "n": 1}], "hex": "0100000001fd598dace330677dcd18d7f14af5006672bc068a9ad886afcaa0be866379ef7d010000006b4830450221009e750feacde12a1c4022aee93be223ae751fc6768401b0263a8650103c4e8682022062d4a43e6ad6a5f1ec9c31c1d2b4bdb2219a27096a16a4b4102e2662298b19710121029b3d0a0a71e3d537a7d5059445f84d267df83e95c95f5cdb166d4ae91d59fb79ffffffff0298b88e00000000001976a91467317a3f6853f289ac6303d70c27c6212daca7af88ac84314291000000001976a914da3178ec76e8ad094ed21df4e1b7f66c14fdf15288ac00000000", "vin": [{"sequence": 4294967295, "scriptSig": {"hex": "4830450221009e750feacde12a1c4022aee93be223ae751fc6768401b0263a8650103c4e8682022062d4a43e6ad6a5f1ec9c31c1d2b4bdb2219a27096a16a4b4102e2662298b19710121029b3d0a0a71e3d537a7d5059445f84d267df83e95c95f5cdb166d4ae91d59fb79", "asm": "30450221009e750feacde12a1c4022aee93be223ae751fc6768401b0263a8650103c4e8682022062d4a43e6ad6a5f1ec9c31c1d2b4bdb2219a27096a16a4b4102e2662298b1971[ALL] 029b3d0a0a71e3d537a7d5059445f84d267df83e95c95f5cdb166d4ae91d59fb79"}, "vout": 1, "txid": "7def796386bea0caaf86d89a8a06bc726600f54af1d718cd7d6730e3ac8d59fd"}], "txid": "d263219ec8d391b53f97a3addc2cc7e948fa72f855574492ad6e3b27a7c660aa", "blocktime": 1537873891, "version": 1, "confirmations": 11477, "time": 1537873891, "locktime": 0, "vsize": 226, "size": 226}