{"hash": "d26d94e11bd9b4487f883e3d3156b0fa3413cd4adf335808fcb2c6f83033b6e8", "blockhash": "0000000000000000000dcc0f55137456b1a82d3642486a52398922ac4d620174", "vout": [{"scriptPubKey": {"reqSigs": 1, "hex": "76a914c42871bea3eb831f857d3aabde0d100f9e23fb0088ac", "addresses": ["1JtBtihsabEDoPydEtAS2SQyALTZRfwHB7"], "asm": "OP_DUP OP_HASH160 c42871bea3eb831f857d3aabde0d100f9e23fb00 OP_EQUALVERIFY OP_CHECKSIG", "type": "pubkeyhash"}, "value": 0.00311826, "n": 0}], "hex": "01000000025c8c27cea7847c0b122175ab64523d6ae9525d08595cbb334a89e3e9f9ad1bc1000000006a47304402200403dcab3a283d55f28c817545772d2d9c28c77d062bf685faee0f59e3d5f571022014fc105ac6393fffcf2a1a9a361207207a42a7c878abca694fa28d785975747a012103667df0b9623b8ed943b79508333eb0b0abc7f7a8f85edaad9bd201a0e69ec242ffffffff4abb1c4cb94da66eb52e400d824a446a10d63de5f72c520f088b524efa9251c21b0000006b483045022100d62300b8ca69a5a113a46960996647df2a97681afea8514c3ce1f0569ed72ee102204484e458ced4a72832207fff95726473d1f3e68bd5dae63f6aa1d49dfd3783610121032fbf15c710da0ed8c18876a78c34bfc1fdcdf3b422d1df2d6bdd96a1fc6c0465ffffffff0112c20400000000001976a914c42871bea3eb831f857d3aabde0d100f9e23fb0088ac00000000", "vin": [{"sequence": 4294967295, "scriptSig": {"hex": "47304402200403dcab3a283d55f28c817545772d2d9c28c77d062bf685faee0f59e3d5f571022014fc105ac6393fffcf2a1a9a361207207a42a7c878abca694fa28d785975747a012103667df0b9623b8ed943b79508333eb0b0abc7f7a8f85edaad9bd201a0e69ec242", "asm": "304402200403dcab3a283d55f28c817545772d2d9c28c77d062bf685faee0f59e3d5f571022014fc105ac6393fffcf2a1a9a361207207a42a7c878abca694fa28d785975747a[ALL] 03667df0b9623b8ed943b79508333eb0b0abc7f7a8f85edaad9bd201a0e69ec242"}, "vout": 0, "txid": "c11badf9e9e3894a33bb5c59085d52e96a3d5264ab7521120b7c84a7ce278c5c"}, {"sequence": 4294967295, "scriptSig": {"hex": "483045022100d62300b8ca69a5a113a46960996647df2a97681afea8514c3ce1f0569ed72ee102204484e458ced4a72832207fff95726473d1f3e68bd5dae63f6aa1d49dfd3783610121032fbf15c710da0ed8c18876a78c34bfc1fdcdf3b422d1df2d6bdd96a1fc6c0465", "asm": "3045022100d62300b8ca69a5a113a46960996647df2a97681afea8514c3ce1f0569ed72ee102204484e458ced4a72832207fff95726473d1f3e68bd5dae63f6aa1d49dfd378361[ALL] 032fbf15c710da0ed8c18876a78c34bfc1fdcdf3b422d1df2d6bdd96a1fc6c0465"}, "vout": 27, "txid": "c25192fa4e528b080f522cf7e53dd6106a444a820d402eb56ea64db94c1cbb4a"}], "txid": "d26d94e11bd9b4487f883e3d3156b0fa3413cd4adf335808fcb2c6f83033b6e8", "blocktime": 1537870268, "version": 1, "confirmations": 11518, "time": 1537870268, "locktime": 0, "vsize": 339, "size": 339}