{"hash": "d26d63b12d2982999f763e99ec186fac0e1ba7a0ed4cdf290257fe6fd66020af", "blockhash": "00000000000000000004ffacab907a6b429b9a5745fa0b75af4234bf69dd7176", "vout": [{"scriptPubKey": {"reqSigs": 1, "hex": "76a91446ae444c0410ce7c51daf9f39272df61d03bf66888ac", "addresses": ["17Sj4hQRNAjTDXh1wgANTAbvZRR7cd2NJN"], "asm": "OP_DUP OP_HASH160 46ae444c0410ce7c51daf9f39272df61d03bf668 OP_EQUALVERIFY OP_CHECKSIG", "type": "pubkeyhash"}, "value": 0.0033925, "n": 0}, {"scriptPubKey": {"type": "nulldata", "hex": "6a146f6d6e69000000000000001f0000000a5c681d00", "asm": "OP_RETURN 6f6d6e69000000000000001f0000000a5c681d00"}, "value": 0.0, "n": 1}, {"scriptPubKey": {"reqSigs": 1, "hex": "76a914e004004a401e9e445e38eeae243c3f54bee3a51088ac", "addresses": ["1MRV9yUDLdUaBb4wz95RUEVomKu7YokNUy"], "asm": "OP_DUP OP_HASH160 e004004a401e9e445e38eeae243c3f54bee3a510 OP_EQUALVERIFY OP_CHECKSIG", "type": "pubkeyhash"}, "value": 5.46e-06, "n": 2}], "hex": "01000000026513e7ed30eaed062648b3c243d69f3b13928feee48853a71be3bd52aefbdaa3010000006b4830450221008aeb59f79a77d460329849d4eb4f0932e3cb91942583aa190f117c055a0d157902200743e9f4b3dd8f2ebfa43737dd9cc08d3fb896e9ab2e64cef864e8e366eff24b0121020e9c3fa89773b22c5e5d181a84774a3fe71fb9746cc7370e03663b9be49f2dcfffffffff59568803ea98733c237877e50cac1b2b178f70cc01ce99ba01cf65bde0ecdb0b000000006a47304402204bf5aec30586ea43f2dcf9cbdac6f28d73bf101c04a28e6af0789351bcbfc097022061ab297c475d275fa914e670f80f7c1ea0b5a4b3f7dea2261429c28812ee1f020121023b6d8cd84467cfe6fe831bbdf44cb20cb3180001523862a359bd0bb5ada5b7ecffffffff03322d0500000000001976a91446ae444c0410ce7c51daf9f39272df61d03bf66888ac0000000000000000166a146f6d6e69000000000000001f0000000a5c681d0022020000000000001976a914e004004a401e9e445e38eeae243c3f54bee3a51088ac00000000", "vin": [{"sequence": 4294967295, "scriptSig": {"hex": "4830450221008aeb59f79a77d460329849d4eb4f0932e3cb91942583aa190f117c055a0d157902200743e9f4b3dd8f2ebfa43737dd9cc08d3fb896e9ab2e64cef864e8e366eff24b0121020e9c3fa89773b22c5e5d181a84774a3fe71fb9746cc7370e03663b9be49f2dcf", "asm": "30450221008aeb59f79a77d460329849d4eb4f0932e3cb91942583aa190f117c055a0d157902200743e9f4b3dd8f2ebfa43737dd9cc08d3fb896e9ab2e64cef864e8e366eff24b[ALL] 020e9c3fa89773b22c5e5d181a84774a3fe71fb9746cc7370e03663b9be49f2dcf"}, "vout": 1, "txid": "a3dafbae52bde31ba75388e4ee8f92133b9fd643c2b3482606edea30ede71365"}, {"sequence": 4294967295, "scriptSig": {"hex": "47304402204bf5aec30586ea43f2dcf9cbdac6f28d73bf101c04a28e6af0789351bcbfc097022061ab297c475d275fa914e670f80f7c1ea0b5a4b3f7dea2261429c28812ee1f020121023b6d8cd84467cfe6fe831bbdf44cb20cb3180001523862a359bd0bb5ada5b7ec", "asm": "304402204bf5aec30586ea43f2dcf9cbdac6f28d73bf101c04a28e6af0789351bcbfc097022061ab297c475d275fa914e670f80f7c1ea0b5a4b3f7dea2261429c28812ee1f02[ALL] 023b6d8cd84467cfe6fe831bbdf44cb20cb3180001523862a359bd0bb5ada5b7ec"}, "vout": 0, "txid": "0bdbece0bd65cf01ba99ce01cc708f172b1bac0ce57778233c7398ea03885659"}], "txid": "d26d63b12d2982999f763e99ec186fac0e1ba7a0ed4cdf290257fe6fd66020af", "blocktime": 1537875543, "version": 1, "confirmations": 11464, "time": 1537875543, "locktime": 0, "vsize": 404, "size": 404}