{"hash": "14be0f15fa54c62bbb139f190475f1acaee82a930199b11ba932f6d1c277c509", "blockhash": "000000000000000000022b45ed06c6f4ccd3cf7fb5ba4856ebd2e58215665228", "vout": [{"scriptPubKey": {"reqSigs": 1, "hex": "76a9145008869ec10af88cf176930de6e9fc6b818c382288ac", "addresses": ["18JBGjYiCdKsqq6KfAo7qqR125Snb5BjNF"], "asm": "OP_DUP OP_HASH160 5008869ec10af88cf176930de6e9fc6b818c3822 OP_EQUALVERIFY OP_CHECKSIG", "type": "pubkeyhash"}, "value": 0.00306844, "n": 0}, {"scriptPubKey": {"reqSigs": 1, "hex": "a914bddce1db77593a7ac8d67f0d488c4311d5103ffa87", "addresses": ["3JzvEy64J63pDv7KjyKsVzupMgKcwdgQU4"], "asm": "OP_HASH160 bddce1db77593a7ac8d67f0d488c4311d5103ffa OP_EQUAL", "type": "scripthash"}, "value": 0.19267934, "n": 1}], "hex": "020000000001010bb60488a2305abd6a00f6e891f8c6ba0457fadf373b0c7f45c21cf5948a3b770300000017160014394c1d55120fea8442873d75d93263e22518f914ffffffff029cae0400000000001976a9145008869ec10af88cf176930de6e9fc6b818c382288ac5e0126010000000017a914bddce1db77593a7ac8d67f0d488c4311d5103ffa870247304402201158441a534af4df205ad29bc149c9e89fdadd6c3562bbe0eedce8fdc2c00e6102205c51a772e70ff50ffff5b30a47e5775e971d9b7769ada7053c6a2d8863c54926012103e196163b6d30d0fef27eff5bae2754a7ccba75d466b78c87116b6535bacce31b00000000", "vin": [{"txinwitness": ["304402201158441a534af4df205ad29bc149c9e89fdadd6c3562bbe0eedce8fdc2c00e6102205c51a772e70ff50ffff5b30a47e5775e971d9b7769ada7053c6a2d8863c5492601", "03e196163b6d30d0fef27eff5bae2754a7ccba75d466b78c87116b6535bacce31b"], "sequence": 4294967295, "scriptSig": {"hex": "160014394c1d55120fea8442873d75d93263e22518f914", "asm": "0014394c1d55120fea8442873d75d93263e22518f914"}, "vout": 3, "txid": "773b8a94f51cc2457f0c3b37dffa5704bac6f891e8f6006abd5a30a28804b60b"}], "txid": "d26ddb6078ddddce0d3dffae158b8c5bb5e1d0d1433ba61667f00c743893f5b3", "blocktime": 1537869901, "version": 2, "confirmations": 11522, "time": 1537869901, "locktime": 0, "vsize": 168, "size": 249}