{"hash": "c1e4d397417f859d4ecf530efa9ed3d57b6262596a6421ee3d221e01086154af", "blockhash": "0000000000000000001cda96e906b7601b7a6fb1a3b62bca570a9e5d8f4b3de1", "vout": [{"scriptPubKey": {"reqSigs": 1, "hex": "76a914f67002e5213b8a04126dfc96512dc0a1fbf1609e88ac", "addresses": ["1PU3QsbwJkDn9PktdaY7C4GXbUkYhcvn99"], "asm": "OP_DUP OP_HASH160 f67002e5213b8a04126dfc96512dc0a1fbf1609e OP_EQUALVERIFY OP_CHECKSIG", "type": "pubkeyhash"}, "value": 0.16546, "n": 0}], "hex": "02000000000101abbf38261380a55ecd8cbcc6b7d01dedd6252c5baad76e058d465f7217ccd461010000001716001474c1329fed85ab3decec31bb9e2325e1ef3d645bffffffff01d078fc00000000001976a914f67002e5213b8a04126dfc96512dc0a1fbf1609e88ac02483045022100ca98ef4abb5b980741cc540ab801a3caa3d66f5fabf810bcd5d75b74b4beb88e0220448c811da7a457082b988689e286c8fda363af9bf3eaf93dfc808a85a8a083f50121023de896d10c547e21f3a9aebe4f5edb2055f9dc9c95c8668c6ee392c2e94a9bc100000000", "vin": [{"txinwitness": ["3045022100ca98ef4abb5b980741cc540ab801a3caa3d66f5fabf810bcd5d75b74b4beb88e0220448c811da7a457082b988689e286c8fda363af9bf3eaf93dfc808a85a8a083f501", "023de896d10c547e21f3a9aebe4f5edb2055f9dc9c95c8668c6ee392c2e94a9bc1"], "sequence": 4294967295, "scriptSig": {"hex": "16001474c1329fed85ab3decec31bb9e2325e1ef3d645b", "asm": "001474c1329fed85ab3decec31bb9e2325e1ef3d645b"}, "vout": 1, "txid": "61d4cc17725f468d056ed7aa5b2c25d6ed1dd0b7c6bc8ccd5ea580132638bfab"}], "txid": "d26e51523a3e376a0aee3ba255eb465dda5846ad1aad765eb056edb4c8a3109d", "blocktime": 1537873282, "version": 2, "confirmations": 11481, "time": 1537873282, "locktime": 0, "vsize": 136, "size": 218}