{"hash": "d2725ff8881686b238f1abee3c460249d108b1014291a2a3edc3982267b1503d", "blockhash": "00000000000000000004ffacab907a6b429b9a5745fa0b75af4234bf69dd7176", "vout": [{"scriptPubKey": {"reqSigs": 1, "hex": "a914a1aa7dcdf2ae3e0c21cfb2487e5d45564bd61e1687", "addresses": ["3GRpxP1QducZprWvyUCGks57TZUzEnm1p4"], "asm": "OP_HASH160 a1aa7dcdf2ae3e0c21cfb2487e5d45564bd61e16 OP_EQUAL", "type": "scripthash"}, "value": 0.021233, "n": 0}], "hex": "01000000013237b0fc3ee6283b424bfcef500288a270b033ac6562dc6583193b32bd48533a010000006a47304402203b56c40d91aea0e56eaf410ca2479ef96c91eae121082640329287554e81f0bf02205ec14e1870409c3e0e88841d96c7db2b5faaf78e528dbc5340ad2993b6b248ea012103963e314bc714980609bec062db34fc9d93520220f12f31cbc38e5c53d73e4f59ffffffff01246620000000000017a914a1aa7dcdf2ae3e0c21cfb2487e5d45564bd61e168700000000", "vin": [{"sequence": 4294967295, "scriptSig": {"hex": "47304402203b56c40d91aea0e56eaf410ca2479ef96c91eae121082640329287554e81f0bf02205ec14e1870409c3e0e88841d96c7db2b5faaf78e528dbc5340ad2993b6b248ea012103963e314bc714980609bec062db34fc9d93520220f12f31cbc38e5c53d73e4f59", "asm": "304402203b56c40d91aea0e56eaf410ca2479ef96c91eae121082640329287554e81f0bf02205ec14e1870409c3e0e88841d96c7db2b5faaf78e528dbc5340ad2993b6b248ea[ALL] 03963e314bc714980609bec062db34fc9d93520220f12f31cbc38e5c53d73e4f59"}, "vout": 1, "txid": "3a5348bd323b198365dc6265ac33b070a2880250effc4b423b28e63efcb03732"}], "txid": "d2725ff8881686b238f1abee3c460249d108b1014291a2a3edc3982267b1503d", "blocktime": 1537875543, "version": 1, "confirmations": 11464, "time": 1537875543, "locktime": 0, "vsize": 189, "size": 189}