{"hash": "d277f53ea41a5217413302e3cb8b69242126224d6622f744d15d60a1b50a2c12", "blockhash": "0000000000000000000dcc0f55137456b1a82d3642486a52398922ac4d620174", "vout": [{"scriptPubKey": {"reqSigs": 1, "hex": "76a9140d5ad2b8de3275d5c3ef1b9607301059c36443cc88ac", "addresses": ["12DcazkeFHYLWfaiXtjmRLAUzJVhf3cPRM"], "asm": "OP_DUP OP_HASH160 0d5ad2b8de3275d5c3ef1b9607301059c36443cc OP_EQUALVERIFY OP_CHECKSIG", "type": "pubkeyhash"}, "value": 0.03518032, "n": 0}, {"scriptPubKey": {"reqSigs": 1, "hex": "76a9140b5eccbb20bab07bb206c279c6955cf7bc558fc188ac", "addresses": ["1237zuqBKFB7G1LJamzofTjfLXp7LpUSvD"], "asm": "OP_DUP OP_HASH160 0b5eccbb20bab07bb206c279c6955cf7bc558fc1 OP_EQUALVERIFY OP_CHECKSIG", "type": "pubkeyhash"}, "value": 0.32868241, "n": 1}], "hex": "01000000029d27e75efc26354da2342146e2bc8da05a7b9d48aa0cbcaaca3ae554e26a2554010000006b483045022100af0523dd44d3b162305d5950b6889a0158bea303c4bdf6ba0e19e21f290addb702200d97915f828191a9fc3bef7bf78e1d1495ab5702b48a54274fd099bdd7a02a0d0121032688ff8c8ec1ce18d08857ec544e5df1cf3ea32c72b5d76cf866406cfc1045e0ffffffff76a7b3f658ff40c5b430e176cab9dd562ed25eafad5d8566673fffc28c6edcbd010000006a47304402201987d2a000300fb93433f776a585e1d9da28cbaae54cfa6e879f15a99d96e5d102202e7f08a499f44a127239d6fdf2fca6a58343cfcb649280fa20ea6eb8ea68b3d6012102a38b115d3dffac5752c96102e96fe1d2890099ff9cba04d17bdbac15ab03f1a4ffffffff0250ae3500000000001976a9140d5ad2b8de3275d5c3ef1b9607301059c36443cc88ac9187f501000000001976a9140b5eccbb20bab07bb206c279c6955cf7bc558fc188ac00000000", "vin": [{"sequence": 4294967295, "scriptSig": {"hex": "483045022100af0523dd44d3b162305d5950b6889a0158bea303c4bdf6ba0e19e21f290addb702200d97915f828191a9fc3bef7bf78e1d1495ab5702b48a54274fd099bdd7a02a0d0121032688ff8c8ec1ce18d08857ec544e5df1cf3ea32c72b5d76cf866406cfc1045e0", "asm": "3045022100af0523dd44d3b162305d5950b6889a0158bea303c4bdf6ba0e19e21f290addb702200d97915f828191a9fc3bef7bf78e1d1495ab5702b48a54274fd099bdd7a02a0d[ALL] 032688ff8c8ec1ce18d08857ec544e5df1cf3ea32c72b5d76cf866406cfc1045e0"}, "vout": 1, "txid": "54256ae254e53acaaabc0caa489d7b5aa08dbce2462134a24d3526fc5ee7279d"}, {"sequence": 4294967295, "scriptSig": {"hex": "47304402201987d2a000300fb93433f776a585e1d9da28cbaae54cfa6e879f15a99d96e5d102202e7f08a499f44a127239d6fdf2fca6a58343cfcb649280fa20ea6eb8ea68b3d6012102a38b115d3dffac5752c96102e96fe1d2890099ff9cba04d17bdbac15ab03f1a4", "asm": "304402201987d2a000300fb93433f776a585e1d9da28cbaae54cfa6e879f15a99d96e5d102202e7f08a499f44a127239d6fdf2fca6a58343cfcb649280fa20ea6eb8ea68b3d6[ALL] 02a38b115d3dffac5752c96102e96fe1d2890099ff9cba04d17bdbac15ab03f1a4"}, "vout": 1, "txid": "bddc6e8cc2ff3f6766855dadaf5ed22e56ddb9ca76e130b4c540ff58f6b3a776"}], "txid": "d277f53ea41a5217413302e3cb8b69242126224d6622f744d15d60a1b50a2c12", "blocktime": 1537870268, "version": 1, "confirmations": 11518, "time": 1537870268, "locktime": 0, "vsize": 373, "size": 373}