{"hash": "d278d41f6c0ada8b78da2e8d17fdf40b698761cc87d60d07441b7b1eddae358c", "blockhash": "0000000000000000001cda96e906b7601b7a6fb1a3b62bca570a9e5d8f4b3de1", "vout": [{"scriptPubKey": {"reqSigs": 1, "hex": "76a914068a8d69d51353eb2824795851089ef5bf7646d588ac", "addresses": ["1bb2wXwxW3AwSCZ61YCXGV5VVga9ozGaT"], "asm": "OP_DUP OP_HASH160 068a8d69d51353eb2824795851089ef5bf7646d5 OP_EQUALVERIFY OP_CHECKSIG", "type": "pubkeyhash"}, "value": 0.00364569, "n": 0}, {"scriptPubKey": {"reqSigs": 1, "hex": "76a91429b0037f78ac62c8d4526d288d62681e39e3398d88ac", "addresses": ["14oRZWWdgg9Q79h2iQAQCFgNVXCxg66B2f"], "asm": "OP_DUP OP_HASH160 29b0037f78ac62c8d4526d288d62681e39e3398d OP_EQUALVERIFY OP_CHECKSIG", "type": "pubkeyhash"}, "value": 0.01977662, "n": 1}], "hex": "010000000128f82bfe0a30a6dfc40d50dee63ec10380b1c8b97735147cf8d1a9257bbaf683010000006b483045022100cf93ebf30b8aa990d3105506b2b4186cf4f1c55dd8c89ca6b7241b058c1c433a022047f7de99674baa0819ea3b669b8bf47f4d916ccea54e6dd80380c3c8879896a8012102977859f11b10bafab83dd96aed3420825c8b43bacd86eb3fd87a98a4d4bac7a1ffffffff0219900500000000001976a914068a8d69d51353eb2824795851089ef5bf7646d588ac3e2d1e00000000001976a91429b0037f78ac62c8d4526d288d62681e39e3398d88ac00000000", "vin": [{"sequence": 4294967295, "scriptSig": {"hex": "483045022100cf93ebf30b8aa990d3105506b2b4186cf4f1c55dd8c89ca6b7241b058c1c433a022047f7de99674baa0819ea3b669b8bf47f4d916ccea54e6dd80380c3c8879896a8012102977859f11b10bafab83dd96aed3420825c8b43bacd86eb3fd87a98a4d4bac7a1", "asm": "3045022100cf93ebf30b8aa990d3105506b2b4186cf4f1c55dd8c89ca6b7241b058c1c433a022047f7de99674baa0819ea3b669b8bf47f4d916ccea54e6dd80380c3c8879896a8[ALL] 02977859f11b10bafab83dd96aed3420825c8b43bacd86eb3fd87a98a4d4bac7a1"}, "vout": 1, "txid": "83f6ba7b25a9d1f87c143577b9c8b18003c13ee6de500dc4dfa6300afe2bf828"}], "txid": "d278d41f6c0ada8b78da2e8d17fdf40b698761cc87d60d07441b7b1eddae358c", "blocktime": 1537873282, "version": 1, "confirmations": 11481, "time": 1537873282, "locktime": 0, "vsize": 226, "size": 226}