{"hash": "d27c3634e1290a14995eaf6cf3cdb99159a73f8b7f6f1c2df5280debea0b0bdc", "blockhash": "00000000000000000018f53835495a110e01622372bf6ae95dc86f2b0ab887b0", "vout": [{"scriptPubKey": {"reqSigs": 1, "hex": "76a91403d3273a309be0f7c287c0e79a4f9e95066c5e9488ac", "addresses": ["1MDym33sNGCH9XEwCjQR6NbYTpeJnPBRB"], "asm": "OP_DUP OP_HASH160 03d3273a309be0f7c287c0e79a4f9e95066c5e94 OP_EQUALVERIFY OP_CHECKSIG", "type": "pubkeyhash"}, "value": 0.01027738, "n": 0}, {"scriptPubKey": {"reqSigs": 1, "hex": "76a914023ab62b3ddf4ca3594195aa98d11c1f1503336288ac", "addresses": ["1Cngjk8Pcy55yFDpogBEMpH1doKxwDL3h"], "asm": "OP_DUP OP_HASH160 023ab62b3ddf4ca3594195aa98d11c1f15033362 OP_EQUALVERIFY OP_CHECKSIG", "type": "pubkeyhash"}, "value": 0.02655411, "n": 1}], "hex": "0100000001cf0351b39891d9be80e6a4d19c006aef719b9abbc12d6ba92b0dcd33bb714073010000006a47304402202cd29c66c294d99b36a8545b02ff844f8b0cbdb7d0aeba3510aabb8e46e8ec250220475e101b99ae28b565a16476b938aa8402670799c51fde2a71ac9cc8367ae1a201210373c41904fa73069b8f3248d530baabd3be6220525611ebee4db0ce46c4329e5cffffffff029aae0f00000000001976a91403d3273a309be0f7c287c0e79a4f9e95066c5e9488acb3842800000000001976a914023ab62b3ddf4ca3594195aa98d11c1f1503336288ac00000000", "vin": [{"sequence": 4294967295, "scriptSig": {"hex": "47304402202cd29c66c294d99b36a8545b02ff844f8b0cbdb7d0aeba3510aabb8e46e8ec250220475e101b99ae28b565a16476b938aa8402670799c51fde2a71ac9cc8367ae1a201210373c41904fa73069b8f3248d530baabd3be6220525611ebee4db0ce46c4329e5c", "asm": "304402202cd29c66c294d99b36a8545b02ff844f8b0cbdb7d0aeba3510aabb8e46e8ec250220475e101b99ae28b565a16476b938aa8402670799c51fde2a71ac9cc8367ae1a2[ALL] 0373c41904fa73069b8f3248d530baabd3be6220525611ebee4db0ce46c4329e5c"}, "vout": 1, "txid": "734071bb33cd0d2ba96b2dc1bb9a9b71ef6a009cd1a4e680bed99198b35103cf"}], "txid": "d27c3634e1290a14995eaf6cf3cdb99159a73f8b7f6f1c2df5280debea0b0bdc", "blocktime": 1537870928, "version": 1, "confirmations": 11514, "time": 1537870928, "locktime": 0, "vsize": 225, "size": 225}