{"hash": "d2856ac70d094e069b9f5e003023b1ed91e8a8f4cbb0ed8713cf2f57f1ae9e71", "blockhash": "0000000000000000000e13cef7c366c0283d82e591d1acd082e914b08063cdf1", "vout": [{"scriptPubKey": {"reqSigs": 1, "hex": "76a914bbfc4c89ac947faad1b33988a99e9c8c8265c24388ac", "addresses": ["1J8ybuvU1FcztHdcxBAccaUPJruKKfX7xb"], "asm": "OP_DUP OP_HASH160 bbfc4c89ac947faad1b33988a99e9c8c8265c243 OP_EQUALVERIFY OP_CHECKSIG", "type": "pubkeyhash"}, "value": 0.0013938, "n": 0}, {"scriptPubKey": {"type": "nulldata", "hex": "6a146f6d6e69000000000000001f0000000000000001", "asm": "OP_RETURN 6f6d6e69000000000000001f0000000000000001"}, "value": 0.0, "n": 1}, {"scriptPubKey": {"reqSigs": 1, "hex": "76a9148b80b2920c044bdfb3ef56f0ded112c06d7ec9f288ac", "addresses": ["1Did6j8R1caPnxGHhLCsFgWZ6bQdWgx9Xm"], "asm": "OP_DUP OP_HASH160 8b80b2920c044bdfb3ef56f0ded112c06d7ec9f2 OP_EQUALVERIFY OP_CHECKSIG", "type": "pubkeyhash"}, "value": 5.46e-06, "n": 2}], "hex": "0100000001d391fff9f237f81683b6f133c06d521fa94a0d4e9041b2b9e5749eda1a0d12cb020000006b483045022100f4e57926a983d82107b0802000eab14b3aed7af0d39cb2e92b6dbddadc83afe102203e60df62f28b6ef5923920b49a6e6cac63699f2b75da7f04f66452df1733b50c012103ff140573bbd7eb60c2eba3819ea7c6b94094e9ceae01f4263b49069a2773c69efeffffff0374200200000000001976a914bbfc4c89ac947faad1b33988a99e9c8c8265c24388ac0000000000000000166a146f6d6e69000000000000001f000000000000000122020000000000001976a9148b80b2920c044bdfb3ef56f0ded112c06d7ec9f288ac10490800", "vin": [{"sequence": 4294967294, "scriptSig": {"hex": "483045022100f4e57926a983d82107b0802000eab14b3aed7af0d39cb2e92b6dbddadc83afe102203e60df62f28b6ef5923920b49a6e6cac63699f2b75da7f04f66452df1733b50c012103ff140573bbd7eb60c2eba3819ea7c6b94094e9ceae01f4263b49069a2773c69e", "asm": "3045022100f4e57926a983d82107b0802000eab14b3aed7af0d39cb2e92b6dbddadc83afe102203e60df62f28b6ef5923920b49a6e6cac63699f2b75da7f04f66452df1733b50c[ALL] 03ff140573bbd7eb60c2eba3819ea7c6b94094e9ceae01f4263b49069a2773c69e"}, "vout": 2, "txid": "cb120d1ada9e74e5b9b241904e0d4aa91f526dc033f1b68316f837f2f9ff91d3"}], "txid": "d2856ac70d094e069b9f5e003023b1ed91e8a8f4cbb0ed8713cf2f57f1ae9e71", "blocktime": 1537871767, "version": 1, "confirmations": 11490, "time": 1537871767, "locktime": 542992, "vsize": 257, "size": 257}