{"hash": "d28996b3649065de9fcafdd4b655873c6e10040e0b0bd22b4e39c5edd4f6042d", "blockhash": "0000000000000000000baef3f32e3676a92c3b2e5da21b426e4f302fc371ce76", "vout": [{"scriptPubKey": {"reqSigs": 1, "hex": "a914c69c1206cf90e48a9ab784f63505ab4574c4b06587", "addresses": ["3KoAgVJdpZLCG25vzcH3EaFZMm9q67F8Ty"], "asm": "OP_HASH160 c69c1206cf90e48a9ab784f63505ab4574c4b065 OP_EQUAL", "type": "scripthash"}, "value": 0.0035, "n": 0}, {"scriptPubKey": {"reqSigs": 1, "hex": "76a914b7888cc82fdecaf88856880550ac43fe948b8cae88ac", "addresses": ["1HjSEm71Kqt31Va9JhJk2SvztwotZkQJFN"], "asm": "OP_DUP OP_HASH160 b7888cc82fdecaf88856880550ac43fe948b8cae OP_EQUALVERIFY OP_CHECKSIG", "type": "pubkeyhash"}, "value": 0.0099, "n": 1}], "hex": "0200000001ce0b0ee88c82a4703d67a0b5bf138fcb213b59a9799d5ddcc79416b37bdb7159110000006b483045022100807dbbb425850039b9be5bdeae79bd85ec03b42dde8a3552ad14b12132520346022075abe4ba8d2f74ce83a030a441ca0d546129d127e68b6d84165c2617f8487729012102b79d514f1e8600550de73139dedfd376748f8695894cdc0d09b70b96b446f5edffffffff02305705000000000017a914c69c1206cf90e48a9ab784f63505ab4574c4b06587301b0f00000000001976a914b7888cc82fdecaf88856880550ac43fe948b8cae88ac00000000", "vin": [{"sequence": 4294967295, "scriptSig": {"hex": "483045022100807dbbb425850039b9be5bdeae79bd85ec03b42dde8a3552ad14b12132520346022075abe4ba8d2f74ce83a030a441ca0d546129d127e68b6d84165c2617f8487729012102b79d514f1e8600550de73139dedfd376748f8695894cdc0d09b70b96b446f5ed", "asm": "3045022100807dbbb425850039b9be5bdeae79bd85ec03b42dde8a3552ad14b12132520346022075abe4ba8d2f74ce83a030a441ca0d546129d127e68b6d84165c2617f8487729[ALL] 02b79d514f1e8600550de73139dedfd376748f8695894cdc0d09b70b96b446f5ed"}, "vout": 17, "txid": "5971db7bb31694c7dc5d9d79a9593b21cb8f13bfb5a0673d70a4828ce80e0bce"}], "txid": "d28996b3649065de9fcafdd4b655873c6e10040e0b0bd22b4e39c5edd4f6042d", "blocktime": 1537876114, "version": 2, "confirmations": 11459, "time": 1537876114, "locktime": 0, "vsize": 224, "size": 224}