{"hash": "d28a7b114994063037a460f7f1180c19c46578dc57a36f3b249e18cbf73f2a32", "blockhash": "0000000000000000001f76057863aec43deb6fa401d9628bb513d65a8098bfab", "vout": [{"scriptPubKey": {"reqSigs": 1, "hex": "a914a5c0e788d54807b6a6147bea2db34fe18c7f76e387", "addresses": ["3GoSWRvzRR4A3Etun1aG8GQsEFEYNydLYR"], "asm": "OP_HASH160 a5c0e788d54807b6a6147bea2db34fe18c7f76e3 OP_EQUAL", "type": "scripthash"}, "value": 2.57480549, "n": 0}], "hex": "010000000328214ab92bc1b561783b2e6b967bb536a8304ba038d8336e406d6257d7a17836020000006a473044022037974ff6cb367f5cecf5d716c417ac9edcdaaf97fc386d076dc987d37b3ba16e022003d61dc036abb64b869a3bb950216351978526f2d85a3086c27ab523ab82966b012103ce195a95995a86de5e379d706cd378746029ed3d122e365e2857282904c0284cffffffff8ea7c0971cfa73e74474b27c62e0fcc3f40e7710e1145c65e2c27f4a6691cafb020000006b483045022100a92ca750afa33bd763aa4449868ff3a727563df47d8382d67f78f146290112150220466a2bbb231ef3f706f98143c7b3a4c077329115818406e04da2b2ad15f54017012103ce195a95995a86de5e379d706cd378746029ed3d122e365e2857282904c0284cffffffff08ecec399b46872271f16bdd6794703e73bdd8b433682d890d5775817ab8efd7010000006a47304402205a5377ea74a59daec187f88f2734dcdd3a63fc527b3e3b1a6a920f18a5a5945302207dcb82f8b14b7b1b990c7536399246e1661643dd7a545b736fbb62f92929c0ca0121039761a8979df633922aa5eec91d192ef74f21cc14a8aa60e942199ca88dbec721ffffffff0165d7580f0000000017a914a5c0e788d54807b6a6147bea2db34fe18c7f76e38700000000", "vin": [{"sequence": 4294967295, "scriptSig": {"hex": "473044022037974ff6cb367f5cecf5d716c417ac9edcdaaf97fc386d076dc987d37b3ba16e022003d61dc036abb64b869a3bb950216351978526f2d85a3086c27ab523ab82966b012103ce195a95995a86de5e379d706cd378746029ed3d122e365e2857282904c0284c", "asm": "3044022037974ff6cb367f5cecf5d716c417ac9edcdaaf97fc386d076dc987d37b3ba16e022003d61dc036abb64b869a3bb950216351978526f2d85a3086c27ab523ab82966b[ALL] 03ce195a95995a86de5e379d706cd378746029ed3d122e365e2857282904c0284c"}, "vout": 2, "txid": "3678a1d757626d406e33d838a04b30a836b57b966b2e3b7861b5c12bb94a2128"}, {"sequence": 4294967295, "scriptSig": {"hex": "483045022100a92ca750afa33bd763aa4449868ff3a727563df47d8382d67f78f146290112150220466a2bbb231ef3f706f98143c7b3a4c077329115818406e04da2b2ad15f54017012103ce195a95995a86de5e379d706cd378746029ed3d122e365e2857282904c0284c", "asm": "3045022100a92ca750afa33bd763aa4449868ff3a727563df47d8382d67f78f146290112150220466a2bbb231ef3f706f98143c7b3a4c077329115818406e04da2b2ad15f54017[ALL] 03ce195a95995a86de5e379d706cd378746029ed3d122e365e2857282904c0284c"}, "vout": 2, "txid": "fbca91664a7fc2e2655c14e110770ef4c3fce0627cb27444e773fa1c97c0a78e"}, {"sequence": 4294967295, "scriptSig": {"hex": "47304402205a5377ea74a59daec187f88f2734dcdd3a63fc527b3e3b1a6a920f18a5a5945302207dcb82f8b14b7b1b990c7536399246e1661643dd7a545b736fbb62f92929c0ca0121039761a8979df633922aa5eec91d192ef74f21cc14a8aa60e942199ca88dbec721", "asm": "304402205a5377ea74a59daec187f88f2734dcdd3a63fc527b3e3b1a6a920f18a5a5945302207dcb82f8b14b7b1b990c7536399246e1661643dd7a545b736fbb62f92929c0ca[ALL] 039761a8979df633922aa5eec91d192ef74f21cc14a8aa60e942199ca88dbec721"}, "vout": 1, "txid": "d7efb87a8175570d892d6833b4d8bd733e709467dd6bf1712287469b39ecec08"}], "txid": "d28a7b114994063037a460f7f1180c19c46578dc57a36f3b249e18cbf73f2a32", "blocktime": 1537873891, "version": 1, "confirmations": 11475, "time": 1537873891, "locktime": 0, "vsize": 484, "size": 484}