{"hash": "d296a61eedbd8a357fa654c0fc7292080bed6caf0a00ca6c64386713bc23b92c", "blockhash": "0000000000000000001cda96e906b7601b7a6fb1a3b62bca570a9e5d8f4b3de1", "vout": [{"scriptPubKey": {"reqSigs": 1, "hex": "76a914680d5573a86bd92a3bb80794bef7670a1b44dfcf88ac", "addresses": ["1AVBFQ8Qs6Xs2nctTcT473BTmDRAKEKV2M"], "asm": "OP_DUP OP_HASH160 680d5573a86bd92a3bb80794bef7670a1b44dfcf OP_EQUALVERIFY OP_CHECKSIG", "type": "pubkeyhash"}, "value": 0.0041594, "n": 0}, {"scriptPubKey": {"reqSigs": 1, "hex": "76a914d8bbe77465312a42c2d1f7ea6264432b83f31d2e88ac", "addresses": ["1Lkz4F4mHgwH2Nse4JZx8v4SzXLGCcWeQ2"], "asm": "OP_DUP OP_HASH160 d8bbe77465312a42c2d1f7ea6264432b83f31d2e OP_EQUALVERIFY OP_CHECKSIG", "type": "pubkeyhash"}, "value": 16.25221427, "n": 1}], "hex": "020000000119d066bbf5f54b501814834ced8c9e8cefee6dd5990778bedd6bc51f5de43c3e010000006a47304402200e54ea5e24111e6440583bc404cef580bb89d467605349b0a37df79d856c93b602205b09a248cb293a9af485e9cfc88bcdb6e570b3e7e8d526df10e2372c3874fc19012103b0177418ae5e3499e4d65f3fefdeeb9c908b61731dcd68edda26287d9204152dffffffff02c4580600000000001976a914680d5573a86bd92a3bb80794bef7670a1b44dfcf88ac33e9de60000000001976a914d8bbe77465312a42c2d1f7ea6264432b83f31d2e88ac00000000", "vin": [{"sequence": 4294967295, "scriptSig": {"hex": "47304402200e54ea5e24111e6440583bc404cef580bb89d467605349b0a37df79d856c93b602205b09a248cb293a9af485e9cfc88bcdb6e570b3e7e8d526df10e2372c3874fc19012103b0177418ae5e3499e4d65f3fefdeeb9c908b61731dcd68edda26287d9204152d", "asm": "304402200e54ea5e24111e6440583bc404cef580bb89d467605349b0a37df79d856c93b602205b09a248cb293a9af485e9cfc88bcdb6e570b3e7e8d526df10e2372c3874fc19[ALL] 03b0177418ae5e3499e4d65f3fefdeeb9c908b61731dcd68edda26287d9204152d"}, "vout": 1, "txid": "3e3ce45d1fc56bddbe780799d56deeef8c9e8ced4c831418504bf5f5bb66d019"}], "txid": "d296a61eedbd8a357fa654c0fc7292080bed6caf0a00ca6c64386713bc23b92c", "blocktime": 1537873282, "version": 2, "confirmations": 11484, "time": 1537873282, "locktime": 0, "vsize": 225, "size": 225}