{"hash": "d29794f1e36072f995a06f3b7994489664b181c1fc28c0ad254e9ec88e59cb18", "blockhash": "0000000000000000000baef3f32e3676a92c3b2e5da21b426e4f302fc371ce76", "vout": [{"scriptPubKey": {"type": "nulldata", "hex": "6a146f6d6e69000000000000001f00000003adc0de00", "asm": "OP_RETURN 6f6d6e69000000000000001f00000003adc0de00"}, "value": 0.0, "n": 0}, {"scriptPubKey": {"reqSigs": 1, "hex": "76a91457d3630b30bc0459b6a22565116ea4805b88a81288ac", "addresses": ["191P27FhMZFVEerEAcLkvbgnS4QY2eZgNZ"], "asm": "OP_DUP OP_HASH160 57d3630b30bc0459b6a22565116ea4805b88a812 OP_EQUALVERIFY OP_CHECKSIG", "type": "pubkeyhash"}, "value": 5.46e-06, "n": 1}, {"scriptPubKey": {"reqSigs": 1, "hex": "76a9140ea2c16f9786cdfea33384770c72f226ae93ef3f88ac", "addresses": ["12LPS9L3BtpHJxCw7CBABQHFsKc7wFRjAR"], "asm": "OP_DUP OP_HASH160 0ea2c16f9786cdfea33384770c72f226ae93ef3f OP_EQUALVERIFY OP_CHECKSIG", "type": "pubkeyhash"}, "value": 0.36160553, "n": 2}], "hex": "01000000011ccdc6cea761c2905c7c698ffab06ff7823416b412d54004a2f4eaa538f5bf0d020000006a47304402200386f88040c150a6841c2b6eb7192abcc49c573d6687ee71b3de7f4a5e06ff2602207a671a5d57ca06676c9031361fc0b86cf8422fc7c7e5645afd9f368edefe1fa201210242604bdd2261b6188326b9f490e074dda990f5bb746eb9716e491b86b498f4c5feffffff030000000000000000166a146f6d6e69000000000000001f00000003adc0de0022020000000000001976a91457d3630b30bc0459b6a22565116ea4805b88a81288ac29c42702000000001976a9140ea2c16f9786cdfea33384770c72f226ae93ef3f88ac16490800", "vin": [{"sequence": 4294967294, "scriptSig": {"hex": "47304402200386f88040c150a6841c2b6eb7192abcc49c573d6687ee71b3de7f4a5e06ff2602207a671a5d57ca06676c9031361fc0b86cf8422fc7c7e5645afd9f368edefe1fa201210242604bdd2261b6188326b9f490e074dda990f5bb746eb9716e491b86b498f4c5", "asm": "304402200386f88040c150a6841c2b6eb7192abcc49c573d6687ee71b3de7f4a5e06ff2602207a671a5d57ca06676c9031361fc0b86cf8422fc7c7e5645afd9f368edefe1fa2[ALL] 0242604bdd2261b6188326b9f490e074dda990f5bb746eb9716e491b86b498f4c5"}, "vout": 2, "txid": "0dbff538a5eaf4a20440d512b4163482f76fb0fa8f697c5c90c261a7cec6cd1c"}], "txid": "d29794f1e36072f995a06f3b7994489664b181c1fc28c0ad254e9ec88e59cb18", "blocktime": 1537876114, "version": 1, "confirmations": 11460, "time": 1537876114, "locktime": 542998, "vsize": 256, "size": 256}