{"hash": "d2a2c1df05ff804b1f3713d397309617ac5bcfa118f8ad582922d87ba802a42d", "blockhash": "0000000000000000000baef3f32e3676a92c3b2e5da21b426e4f302fc371ce76", "vout": [{"scriptPubKey": {"reqSigs": 1, "hex": "76a9140c7ff9d110db0b53357db9c98613f2678bc3e57388ac", "addresses": ["1296RDjvFq7PT1C3ahe8iseu4X77EYEwnA"], "asm": "OP_DUP OP_HASH160 0c7ff9d110db0b53357db9c98613f2678bc3e573 OP_EQUALVERIFY OP_CHECKSIG", "type": "pubkeyhash"}, "value": 0.16989463, "n": 0}, {"scriptPubKey": {"reqSigs": 1, "hex": "76a91425cb394d3680db168d65325aebc3faf61b0a216f88ac", "addresses": ["14SqTLZdWmbsCWU8GCAjePrB49j1TQGamM"], "asm": "OP_DUP OP_HASH160 25cb394d3680db168d65325aebc3faf61b0a216f OP_EQUALVERIFY OP_CHECKSIG", "type": "pubkeyhash"}, "value": 0.46953, "n": 1}], "hex": "0100000002fde49c5a995250fffecd8fc864899231559aa137c573848af7c829536c5bb02b000000006a4730440220147ad632d543cd2bf3b5df0c5afc18ad8f32eb9746521654151a293942bb0d8102204c8dc52c30e9b3ff971d1eb8ddb24b8957c3a0a832d7e4eea9e1c647e307d3270121023884d2f8d0b1736c828541aaf1fa83e8cef0e6488a04c56fe28f93c7404f5493fdffffff1026b59cfa1db7148ebb6f723159b60ee6d22141cc0ea059853c407cff6977a4000000006b483045022100afe54b97e7f7b79230b4704fad07494faf8aab53e7eb4d11eadd66be5c6e7179022066abe49772e8d1e7cc454fc5ab21de8bf507b666c228c4083d779e19597402410121027abbdb653b0dc50fadd8ca37e16d593326a2504e5820181c6dd31ac06f03a1f6fdffffff02173d0301000000001976a9140c7ff9d110db0b53357db9c98613f2678bc3e57388ac2872cc02000000001976a91425cb394d3680db168d65325aebc3faf61b0a216f88ac16490800", "vin": [{"sequence": 4294967293, "scriptSig": {"hex": "4730440220147ad632d543cd2bf3b5df0c5afc18ad8f32eb9746521654151a293942bb0d8102204c8dc52c30e9b3ff971d1eb8ddb24b8957c3a0a832d7e4eea9e1c647e307d3270121023884d2f8d0b1736c828541aaf1fa83e8cef0e6488a04c56fe28f93c7404f5493", "asm": "30440220147ad632d543cd2bf3b5df0c5afc18ad8f32eb9746521654151a293942bb0d8102204c8dc52c30e9b3ff971d1eb8ddb24b8957c3a0a832d7e4eea9e1c647e307d327[ALL] 023884d2f8d0b1736c828541aaf1fa83e8cef0e6488a04c56fe28f93c7404f5493"}, "vout": 0, "txid": "2bb05b6c5329c8f78a8473c537a19a5531928964c88fcdfeff5052995a9ce4fd"}, {"sequence": 4294967293, "scriptSig": {"hex": "483045022100afe54b97e7f7b79230b4704fad07494faf8aab53e7eb4d11eadd66be5c6e7179022066abe49772e8d1e7cc454fc5ab21de8bf507b666c228c4083d779e19597402410121027abbdb653b0dc50fadd8ca37e16d593326a2504e5820181c6dd31ac06f03a1f6", "asm": "3045022100afe54b97e7f7b79230b4704fad07494faf8aab53e7eb4d11eadd66be5c6e7179022066abe49772e8d1e7cc454fc5ab21de8bf507b666c228c4083d779e1959740241[ALL] 027abbdb653b0dc50fadd8ca37e16d593326a2504e5820181c6dd31ac06f03a1f6"}, "vout": 0, "txid": "a47769ff7c403c8559a00ecc4121d2e60eb65931726fbb8e14b71dfa9cb52610"}], "txid": "d2a2c1df05ff804b1f3713d397309617ac5bcfa118f8ad582922d87ba802a42d", "blocktime": 1537876114, "version": 1, "confirmations": 11460, "time": 1537876114, "locktime": 542998, "vsize": 373, "size": 373}