{"hash": "d2a2e56d5fe6f72f496683f710d219df313c052510ba7b8ec364c4a89a2cb1c5", "blockhash": "0000000000000000001cda96e906b7601b7a6fb1a3b62bca570a9e5d8f4b3de1", "vout": [{"scriptPubKey": {"reqSigs": 1, "hex": "76a9143dd19b79d5a8cb98d59d3f45efafef45f8491db988ac", "addresses": ["16dsKUVume8WxzzmpuKPghmuzawpn99n3u"], "asm": "OP_DUP OP_HASH160 3dd19b79d5a8cb98d59d3f45efafef45f8491db9 OP_EQUALVERIFY OP_CHECKSIG", "type": "pubkeyhash"}, "value": 0.00740527, "n": 0}, {"scriptPubKey": {"reqSigs": 1, "hex": "76a914b88008183a6bf178cbbbfad4c37bbb5d4189238c88ac", "addresses": ["1HpYi6Ci43Kdxqd77SdDSMPV7cAahvxkKf"], "asm": "OP_DUP OP_HASH160 b88008183a6bf178cbbbfad4c37bbb5d4189238c OP_EQUALVERIFY OP_CHECKSIG", "type": "pubkeyhash"}, "value": 0.01873463, "n": 1}], "hex": "0100000001260467f3e17dba1aca34061b637487a527153d0e3e936e6f91ab299a71a4fed1000000006a47304402203d8e44dbcb60bb20466bf070eed8867c232451a5cbeaa96f27b0e8f1eb8eb7dd02201688daa0eb59d76d554becda8a2a53ea37e4b68d2c520776ac34701a300ce100012103bc5b60fcfb905b7c4c1f0d8f74b4df93f9cd446394403f8f7875ef7103411fe4ffffffff02af4c0b00000000001976a9143dd19b79d5a8cb98d59d3f45efafef45f8491db988ac37961c00000000001976a914b88008183a6bf178cbbbfad4c37bbb5d4189238c88ac00000000", "vin": [{"sequence": 4294967295, "scriptSig": {"hex": "47304402203d8e44dbcb60bb20466bf070eed8867c232451a5cbeaa96f27b0e8f1eb8eb7dd02201688daa0eb59d76d554becda8a2a53ea37e4b68d2c520776ac34701a300ce100012103bc5b60fcfb905b7c4c1f0d8f74b4df93f9cd446394403f8f7875ef7103411fe4", "asm": "304402203d8e44dbcb60bb20466bf070eed8867c232451a5cbeaa96f27b0e8f1eb8eb7dd02201688daa0eb59d76d554becda8a2a53ea37e4b68d2c520776ac34701a300ce100[ALL] 03bc5b60fcfb905b7c4c1f0d8f74b4df93f9cd446394403f8f7875ef7103411fe4"}, "vout": 0, "txid": "d1fea4719a29ab916f6e933e0e3d1527a58774631b0634ca1aba7de1f3670426"}], "txid": "d2a2e56d5fe6f72f496683f710d219df313c052510ba7b8ec364c4a89a2cb1c5", "blocktime": 1537873282, "version": 1, "confirmations": 11483, "time": 1537873282, "locktime": 0, "vsize": 225, "size": 225}