{"hash": "d2a48f0be44c07439a0152c19a1de9b887af38d70edd9c31446cceb2b8920dec", "blockhash": "0000000000000000001cda96e906b7601b7a6fb1a3b62bca570a9e5d8f4b3de1", "vout": [{"scriptPubKey": {"type": "nulldata", "hex": "6a4c50000077c700016c535a3287fb36221fb713d25b23cc0f42c2fc38c5e5bf9ae76da98a211aa106f2130baf7bfe3da336a60ae474bc5baa139006128acde03ca0041d100759d4ba30d2c37bb011d97e02cf", "asm": "OP_RETURN 000077c700016c535a3287fb36221fb713d25b23cc0f42c2fc38c5e5bf9ae76da98a211aa106f2130baf7bfe3da336a60ae474bc5baa139006128acde03ca0041d100759d4ba30d2c37bb011d97e02cf"}, "value": 0.0, "n": 0}, {"scriptPubKey": {"reqSigs": 1, "hex": "76a9140a816ba01dcc05a12f433e618973d1f27425152988ac", "addresses": ["1xYoCxZNJvxjcpJ9gZqUX4LSmp33yByXo"], "asm": "OP_DUP OP_HASH160 0a816ba01dcc05a12f433e618973d1f274251529 OP_EQUALVERIFY OP_CHECKSIG", "type": "pubkeyhash"}, "value": 0.00637309, "n": 1}], "hex": "01000000015f817637a64d918cc2a3931fb7e79b19091444e39b29d49be00235adf97b4e48000000006b483045022100ed760b4db69dc8b69962e74964d04562e7cafe206fe2d20c0f02e4bfc339dc6e022023cfe96b27b4bf3bb56400986b8b0013b427a500cf5b1c062793ca2a3bb3394b012103dd02242dc1d7fbe93be62858a5070c07afec41a2b2d83a5f2ceceb7debadad31ffffffff020000000000000000536a4c50000077c700016c535a3287fb36221fb713d25b23cc0f42c2fc38c5e5bf9ae76da98a211aa106f2130baf7bfe3da336a60ae474bc5baa139006128acde03ca0041d100759d4ba30d2c37bb011d97e02cf7db90900000000001976a9140a816ba01dcc05a12f433e618973d1f27425152988ac00000000", "vin": [{"sequence": 4294967295, "scriptSig": {"hex": "483045022100ed760b4db69dc8b69962e74964d04562e7cafe206fe2d20c0f02e4bfc339dc6e022023cfe96b27b4bf3bb56400986b8b0013b427a500cf5b1c062793ca2a3bb3394b012103dd02242dc1d7fbe93be62858a5070c07afec41a2b2d83a5f2ceceb7debadad31", "asm": "3045022100ed760b4db69dc8b69962e74964d04562e7cafe206fe2d20c0f02e4bfc339dc6e022023cfe96b27b4bf3bb56400986b8b0013b427a500cf5b1c062793ca2a3bb3394b[ALL] 03dd02242dc1d7fbe93be62858a5070c07afec41a2b2d83a5f2ceceb7debadad31"}, "vout": 0, "txid": "484e7bf9ad3502e09bd4299be3441409199be7b71f93a3c28c914da63776815f"}], "txid": "d2a48f0be44c07439a0152c19a1de9b887af38d70edd9c31446cceb2b8920dec", "blocktime": 1537873282, "version": 1, "confirmations": 11484, "time": 1537873282, "locktime": 0, "vsize": 284, "size": 284}