{"hash": "1989a7dc0904cf77690bf66d04a110fb662830e687153eb4aa13986b553afef3", "blockhash": "0000000000000000001cda96e906b7601b7a6fb1a3b62bca570a9e5d8f4b3de1", "vout": [{"scriptPubKey": {"reqSigs": 1, "hex": "76a91494f05a158810f67aadc0bf71c4715f057bddeea588ac", "addresses": ["1EaWwLKRJg9diXgNCHqRa4rzxN4a9912sR"], "asm": "OP_DUP OP_HASH160 94f05a158810f67aadc0bf71c4715f057bddeea5 OP_EQUALVERIFY OP_CHECKSIG", "type": "pubkeyhash"}, "value": 0.00680687, "n": 0}, {"scriptPubKey": {"reqSigs": 1, "hex": "a91443f62a3d4933e05622cd51c77017b970eed9a05b87", "addresses": ["37tN6EtYzsorm6zBcpfWz8w5xRNy3mab33"], "asm": "OP_HASH160 43f62a3d4933e05622cd51c77017b970eed9a05b OP_EQUAL", "type": "scripthash"}, "value": 0.34463098, "n": 1}], "hex": "010000000001019e141d5850b177941b42e912a783c7729f4525f04ef426ed554f3763f2d6daf801000000232200201dd6ce43abdc84f34fdcc73ab17bc29ae9c934e26a45e54e686de9b71cb3af4affffffff02ef620a00000000001976a91494f05a158810f67aadc0bf71c4715f057bddeea588ac7add0d020000000017a91443f62a3d4933e05622cd51c77017b970eed9a05b87040047304402206f961d6bc053a2f2b73b6771e6795d2fffa37c29901c535a21baf1ef0c5f69e9022013df2ad60aaaa92c14880340dc93fbd48daaacaedd75107a0385649811321129014730440220250135f2b2befc4ba04ae6c257e9c6677e32088dbcd301dda7db3be325d78bab02201f8261359af2187010516dbf869ff427b22498e9d784aa6eb47c9cccc1632a6f01475221023d094ce44231935102dd1c672bc70808e5831d5d55d4082df3b1d9c342a4f7b92103c86ff487c5c7bef620008af5c952420bf509584280226750bb54cc3b293fd7ec52ae00000000", "vin": [{"txinwitness": ["", "304402206f961d6bc053a2f2b73b6771e6795d2fffa37c29901c535a21baf1ef0c5f69e9022013df2ad60aaaa92c14880340dc93fbd48daaacaedd75107a038564981132112901", "30440220250135f2b2befc4ba04ae6c257e9c6677e32088dbcd301dda7db3be325d78bab02201f8261359af2187010516dbf869ff427b22498e9d784aa6eb47c9cccc1632a6f01", "5221023d094ce44231935102dd1c672bc70808e5831d5d55d4082df3b1d9c342a4f7b92103c86ff487c5c7bef620008af5c952420bf509584280226750bb54cc3b293fd7ec52ae"], "sequence": 4294967295, "scriptSig": {"hex": "2200201dd6ce43abdc84f34fdcc73ab17bc29ae9c934e26a45e54e686de9b71cb3af4a", "asm": "00201dd6ce43abdc84f34fdcc73ab17bc29ae9c934e26a45e54e686de9b71cb3af4a"}, "vout": 1, "txid": "f8dad6f263374f55ed26f44ef025459f72c783a712e9421b9477b150581d149e"}], "txid": "d2a6b32df0362dd45a316da2bfafbefdaa9a672f0eabfd95938ae16d988976da", "blocktime": 1537873282, "version": 1, "confirmations": 11484, "time": 1537873282, "locktime": 0, "vsize": 207, "size": 372}