{"hash": "d2a8504bee32dd3cd762a7cf42abee87c4e84955dc7f3a09e634cea0db479f1b", "blockhash": "0000000000000000001e0dab787dd257d1dbfcb92a98c2207d5e1078be1f4165", "vout": [{"scriptPubKey": {"reqSigs": 1, "hex": "76a91458d12ecb554de34b12c34ef0639b3a95fd9aa30a88ac", "addresses": ["196d4A4FGWkZb85QEC2zC7Wp2gB8XkcPH8"], "asm": "OP_DUP OP_HASH160 58d12ecb554de34b12c34ef0639b3a95fd9aa30a OP_EQUALVERIFY OP_CHECKSIG", "type": "pubkeyhash"}, "value": 0.01166091, "n": 0}, {"scriptPubKey": {"reqSigs": 1, "hex": "76a9144f857f3bbfe9c9512e6866d77629583dbf9e909d88ac", "addresses": ["18FUJgyK6URzMciZAu979noaguCnJSP9Tr"], "asm": "OP_DUP OP_HASH160 4f857f3bbfe9c9512e6866d77629583dbf9e909d OP_EQUALVERIFY OP_CHECKSIG", "type": "pubkeyhash"}, "value": 0.01, "n": 1}, {"scriptPubKey": {"reqSigs": 1, "hex": "76a914e9bbc30f60be432470b9a98e27f401fa1ed2193d88ac", "addresses": ["1NJsNdHvZDcAL2tmnTtNkJJqtHqQ8qpDFk"], "asm": "OP_DUP OP_HASH160 e9bbc30f60be432470b9a98e27f401fa1ed2193d OP_EQUALVERIFY OP_CHECKSIG", "type": "pubkeyhash"}, "value": 0.18376627, "n": 2}, {"scriptPubKey": {"reqSigs": 1, "hex": "76a91455749ee30dcec010f85441569975f4ed55ef0c9e88ac", "addresses": ["18nr9FXqSUkyZnGhjsoBo5zdomjBQbiw6X"], "asm": "OP_DUP OP_HASH160 55749ee30dcec010f85441569975f4ed55ef0c9e OP_EQUALVERIFY OP_CHECKSIG", "type": "pubkeyhash"}, "value": 0.00970024, "n": 3}], "hex": "01000000025d500b81072d828b3e8679e89099ca64f4286111edd7f47f90bb2e06f9fd459c6b0100006b483045022100aa42aeb7d399d71eb27112fe5d482af69874554b7f0ebcdd8f32427a8501472e02201c29d24dfb07fa3f0184be9a7b6394e0eb885188fd09dddc94f35e1f09a2b92c012102ad3a3b5ccf3f34243401d607a5f3ad95d7d947b92ab7d9beaa0bfc2569d9163bffffffff20859c07ccd7c53ed80c7ceb41f34bbd295e71655f44e3c72100841147cba42b230000006b483045022100a471bb921cc56ca759fb40ad9b312deec20231b5614eeb78ac0f217078b1d028022077f63b5c3040fac9d9f9a618f1091b5bca0cdb71bed765caf06f22e1e0167afc012103e29f99b62620c2d1e1b105f2d237a50a7cc0fe4cb454f0c290d84be0df0b9682ffffffff040bcb1100000000001976a91458d12ecb554de34b12c34ef0639b3a95fd9aa30a88ac40420f00000000001976a9144f857f3bbfe9c9512e6866d77629583dbf9e909d88acb3671801000000001976a914e9bbc30f60be432470b9a98e27f401fa1ed2193d88ac28cd0e00000000001976a91455749ee30dcec010f85441569975f4ed55ef0c9e88ac00000000", "vin": [{"sequence": 4294967295, "scriptSig": {"hex": "483045022100aa42aeb7d399d71eb27112fe5d482af69874554b7f0ebcdd8f32427a8501472e02201c29d24dfb07fa3f0184be9a7b6394e0eb885188fd09dddc94f35e1f09a2b92c012102ad3a3b5ccf3f34243401d607a5f3ad95d7d947b92ab7d9beaa0bfc2569d9163b", "asm": "3045022100aa42aeb7d399d71eb27112fe5d482af69874554b7f0ebcdd8f32427a8501472e02201c29d24dfb07fa3f0184be9a7b6394e0eb885188fd09dddc94f35e1f09a2b92c[ALL] 02ad3a3b5ccf3f34243401d607a5f3ad95d7d947b92ab7d9beaa0bfc2569d9163b"}, "vout": 363, "txid": "9c45fdf9062ebb907ff4d7ed116128f464ca9990e879863e8b822d07810b505d"}, {"sequence": 4294967295, "scriptSig": {"hex": "483045022100a471bb921cc56ca759fb40ad9b312deec20231b5614eeb78ac0f217078b1d028022077f63b5c3040fac9d9f9a618f1091b5bca0cdb71bed765caf06f22e1e0167afc012103e29f99b62620c2d1e1b105f2d237a50a7cc0fe4cb454f0c290d84be0df0b9682", "asm": "3045022100a471bb921cc56ca759fb40ad9b312deec20231b5614eeb78ac0f217078b1d028022077f63b5c3040fac9d9f9a618f1091b5bca0cdb71bed765caf06f22e1e0167afc[ALL] 03e29f99b62620c2d1e1b105f2d237a50a7cc0fe4cb454f0c290d84be0df0b9682"}, "vout": 35, "txid": "2ba4cb4711840021c7e3445f65715e29bd4bf341eb7c0cd83ec5d7cc079c8520"}], "txid": "d2a8504bee32dd3cd762a7cf42abee87c4e84955dc7f3a09e634cea0db479f1b", "blocktime": 1537872475, "version": 1, "confirmations": 11486, "time": 1537872475, "locktime": 0, "vsize": 442, "size": 442}