{"hash": "d2aefaddc961673f1400923fb012c961eb305d54f7355544fd28c0c529afdc75", "blockhash": "0000000000000000001e0dab787dd257d1dbfcb92a98c2207d5e1078be1f4165", "vout": [{"scriptPubKey": {"reqSigs": 1, "hex": "76a91420c3dadfb46c37995c61378e2d1289585a136b8f88ac", "addresses": ["13zFFP6FgZCuLRKHE7tLNVzMXNvd7ycc2d"], "asm": "OP_DUP OP_HASH160 20c3dadfb46c37995c61378e2d1289585a136b8f OP_EQUALVERIFY OP_CHECKSIG", "type": "pubkeyhash"}, "value": 0.00635086, "n": 0}, {"scriptPubKey": {"reqSigs": 1, "hex": "a91471eff1ff6da1a3a8c8f63567f8ff44156fb9f22487", "addresses": ["3C5Tiut9Q3LfMBWEnfX9R8Hss4VfR61eLK"], "asm": "OP_HASH160 71eff1ff6da1a3a8c8f63567f8ff44156fb9f224 OP_EQUAL", "type": "scripthash"}, "value": 0.00732, "n": 1}], "hex": "010000000192a0d8be5ddc78737b96767e6979b9e43fb9e8009e7c94921967f728f4af16f1010000006a47304402200bef8484bc711faa895a89bfc3a90e25a79adef2f653971bd51bbffdf92e985102205e0794dc47af7a3e73f2ef3b17b9f57d0fb9834b577a601aee26112feb93f85f012103f3df94e48e26108a6b49988fb1dd362238d1fe06d7b16abe43084a917b708bf2feffffff02ceb00900000000001976a91420c3dadfb46c37995c61378e2d1289585a136b8f88ac602b0b000000000017a91471eff1ff6da1a3a8c8f63567f8ff44156fb9f2248712490800", "vin": [{"sequence": 4294967294, "scriptSig": {"hex": "47304402200bef8484bc711faa895a89bfc3a90e25a79adef2f653971bd51bbffdf92e985102205e0794dc47af7a3e73f2ef3b17b9f57d0fb9834b577a601aee26112feb93f85f012103f3df94e48e26108a6b49988fb1dd362238d1fe06d7b16abe43084a917b708bf2", "asm": "304402200bef8484bc711faa895a89bfc3a90e25a79adef2f653971bd51bbffdf92e985102205e0794dc47af7a3e73f2ef3b17b9f57d0fb9834b577a601aee26112feb93f85f[ALL] 03f3df94e48e26108a6b49988fb1dd362238d1fe06d7b16abe43084a917b708bf2"}, "vout": 1, "txid": "f116aff428f7671992947c9e00e8b93fe4b979697e76967b7378dc5dbed8a092"}], "txid": "d2aefaddc961673f1400923fb012c961eb305d54f7355544fd28c0c529afdc75", "blocktime": 1537872475, "version": 1, "confirmations": 11486, "time": 1537872475, "locktime": 542994, "vsize": 223, "size": 223}