{"hash": "f2e3a6955ce29f9430d5c3a49810227b2561e661c95ea7714853e42b74b0883a", "blockhash": "00000000000000000017f5eb5941039fbcee6240d03bc1f2f8e35350df66a1d8", "vout": [{"scriptPubKey": {"reqSigs": 1, "hex": "76a9146bf5d825fdc826a564706de3e597daf6a5aaf14b88ac", "addresses": ["1Aqqp6BYo68MNUBoX7myFDEicK2Xk7yxRH"], "asm": "OP_DUP OP_HASH160 6bf5d825fdc826a564706de3e597daf6a5aaf14b OP_EQUALVERIFY OP_CHECKSIG", "type": "pubkeyhash"}, "value": 0.0117726, "n": 0}, {"scriptPubKey": {"reqSigs": 1, "hex": "a914d4745989fd6a16fba776cad39030fda42dd8c7f587", "addresses": ["3M4NZLP7n1qtvzDForLNhFGdfpgen1Wu85"], "asm": "OP_HASH160 d4745989fd6a16fba776cad39030fda42dd8c7f5 OP_EQUAL", "type": "scripthash"}, "value": 0.01001217, "n": 1}], "hex": "0200000000010247cf5a625c48240e09fc0affd8d2ba6ea6b8aa64d3bcb9d0cb892b050af8c829010000001716001436efc300c7b7ed4b576530cf64602847d635c8b2feffffff7f38429e7cef3970fc4d956c0fadebbd8d59cbe7fa2f0d6e8bc8f618f0ab10620100000017160014683e3da907a394c9243ac61cc1283ff685ed7d1ffeffffff02acf61100000000001976a9146bf5d825fdc826a564706de3e597daf6a5aaf14b88ac01470f000000000017a914d4745989fd6a16fba776cad39030fda42dd8c7f5870247304402201ebb7357b67496a4ebce71ed6f00015d6af245f83cc7c44dcb7e501a9c752e2602203b3efd0c7a1e71050ca2a68de97380f77df953ffdf9c327eb91719dbbaa2f48b012103c8ad3ec103e362d698524c155c83d36cc41bbe37ebd25dce98aaad74eeb50be002483045022100c70b19b6cd4c3e8cebb4d74da10fb5abadfef35c6c1248844ec8dc69afbaca570220627f79908c2e05ec80dda22df149913ff780e480aee1faf7e540c4635ead4e23012103a278c1c40559afd1ac8967c347f5ca8f4d420f7e20b2c55d834063c6c9df70c315490800", "vin": [{"txinwitness": ["304402201ebb7357b67496a4ebce71ed6f00015d6af245f83cc7c44dcb7e501a9c752e2602203b3efd0c7a1e71050ca2a68de97380f77df953ffdf9c327eb91719dbbaa2f48b01", "03c8ad3ec103e362d698524c155c83d36cc41bbe37ebd25dce98aaad74eeb50be0"], "sequence": 4294967294, "scriptSig": {"hex": "16001436efc300c7b7ed4b576530cf64602847d635c8b2", "asm": "001436efc300c7b7ed4b576530cf64602847d635c8b2"}, "vout": 1, "txid": "29c8f80a052b89cbd0b9bcd364aab8a66ebad2d8ff0afc090e24485c625acf47"}, {"txinwitness": ["3045022100c70b19b6cd4c3e8cebb4d74da10fb5abadfef35c6c1248844ec8dc69afbaca570220627f79908c2e05ec80dda22df149913ff780e480aee1faf7e540c4635ead4e2301", "03a278c1c40559afd1ac8967c347f5ca8f4d420f7e20b2c55d834063c6c9df70c3"], "sequence": 4294967294, "scriptSig": {"hex": "160014683e3da907a394c9243ac61cc1283ff685ed7d1f", "asm": "0014683e3da907a394c9243ac61cc1283ff685ed7d1f"}, "vout": 1, "txid": "6210abf018f6c88b6e0d2ffae7cb598dbdebad0f6c954dfc7039ef7c9e42387f"}], "txid": "d2b61b761552851c23b2a87d8742a66acb854efa2b2d39cd148e9dabfeead29e", "blocktime": 1537874412, "version": 2, "confirmations": 11468, "time": 1537874412, "locktime": 542997, "vsize": 259, "size": 421}