{"hash": "d2b72bcd0ab051d85d4e9954f170fc5a1a17e763183e7aab67bc97ce466d98d6", "blockhash": "0000000000000000000e13cef7c366c0283d82e591d1acd082e914b08063cdf1", "vout": [{"scriptPubKey": {"reqSigs": 1, "hex": "76a914e5cfb28438e0cf8ced73bc91bb0d2e69fb8a451588ac", "addresses": ["1Mx8YzaHE6wXiK7Bt2bjMLQmoqjvjixFy9"], "asm": "OP_DUP OP_HASH160 e5cfb28438e0cf8ced73bc91bb0d2e69fb8a4515 OP_EQUALVERIFY OP_CHECKSIG", "type": "pubkeyhash"}, "value": 0.01031138, "n": 0}, {"scriptPubKey": {"reqSigs": 1, "hex": "76a914dc5c9badadeb1414f4964fd2ba7667cf689c763288ac", "addresses": ["1M6AbjCdyok7FDBpR8kETJRkDUm2pXCN4p"], "asm": "OP_DUP OP_HASH160 dc5c9badadeb1414f4964fd2ba7667cf689c7632 OP_EQUALVERIFY OP_CHECKSIG", "type": "pubkeyhash"}, "value": 0.01395426, "n": 1}], "hex": "0100000001b5feb57122cc3148e2b8f53210acfb3f31f5fae25d804f0868b9e29e0362193c010000006a4730440220634b81391a2222c64027e2822275041bfac6ccf1ff00a15bac6b9fd0dd69838a022021dd3044359df5191a63f7769e20b07d689cdedabb56c56f97d7fd69eeaa33180121033ed95e8ac2c5486ec79e63bf82f872d8b1fd4769186894d19e4863de6757ff10ffffffff02e2bb0f00000000001976a914e5cfb28438e0cf8ced73bc91bb0d2e69fb8a451588ace24a1500000000001976a914dc5c9badadeb1414f4964fd2ba7667cf689c763288ac00000000", "vin": [{"sequence": 4294967295, "scriptSig": {"hex": "4730440220634b81391a2222c64027e2822275041bfac6ccf1ff00a15bac6b9fd0dd69838a022021dd3044359df5191a63f7769e20b07d689cdedabb56c56f97d7fd69eeaa33180121033ed95e8ac2c5486ec79e63bf82f872d8b1fd4769186894d19e4863de6757ff10", "asm": "30440220634b81391a2222c64027e2822275041bfac6ccf1ff00a15bac6b9fd0dd69838a022021dd3044359df5191a63f7769e20b07d689cdedabb56c56f97d7fd69eeaa3318[ALL] 033ed95e8ac2c5486ec79e63bf82f872d8b1fd4769186894d19e4863de6757ff10"}, "vout": 1, "txid": "3c1962039ee2b968084f805de2faf5313ffbac1032f5b8e24831cc2271b5feb5"}], "txid": "d2b72bcd0ab051d85d4e9954f170fc5a1a17e763183e7aab67bc97ce466d98d6", "blocktime": 1537871767, "version": 1, "confirmations": 11495, "time": 1537871767, "locktime": 0, "vsize": 225, "size": 225}