{"hash": "d2bab93b05ef347a4957dd30c6e8b737505f3e9e727a04db050239e332ac8e58", "blockhash": "00000000000000000004ffacab907a6b429b9a5745fa0b75af4234bf69dd7176", "vout": [{"scriptPubKey": {"reqSigs": 1, "hex": "a91433cb142b3c2421dd23df36e87679bd44a663a78c87", "addresses": ["36QsfVHM9RYJjgxsv9gLir6jjRLLVpSYUT"], "asm": "OP_HASH160 33cb142b3c2421dd23df36e87679bd44a663a78c OP_EQUAL", "type": "scripthash"}, "value": 0.00772735, "n": 0}], "hex": "0100000006917b2959572e1ea811567f3d7e883f034a6bab93f466fc78f9e30fb243396523000000006b483045022100db921de67d7b49ae4c1077c74d6bbd2762b2e763bd06e202142204107ed8267102201e42e89fecb02e63ba7f964cc426929c89ab5f0139abac291e0319d66cf148e001210325bd4fb9848f7aa07882399d2b6a67753988ee4a37f4213666e473afc73360caffffffff55f7d898db4a57563d36a6fd8d56ee8f876e110c18c63da2429925c795435265000000006b483045022100c95c6fb64a573c6382100a82ec0f13665e85e2b72c6cad8a040694479ea7489d02202060c235dd551a2505ea2455e7dff35a796441dda0ba34e2ccf44c3739c0e736012102069763a66de3928b82e9550364dbde21d9026c51b5e013400c957fb38d3ec8bcffffffffb88a22c3c17bfe29ff7919e68de1dadd945e3eb5fff3d981bffade70af4460a0000000006b483045022100ada0b63c4d4023168435227c205a708e0f7640bf7ef2ddc38ca57c74eda1e2c502205abd00399b2dd52c6764c37735de7c0543faacbb840e8c83de80ffbef32090700121029b38a5cf73f7fe7a62e918212a16c1bea9e03c48530b5529da4a9dad8c9c75e6ffffffff16eb255c6d9674794a7a75e3821b164fe8ee124467a2d2994895a2bcc9abfba9010000006a473044022055974c4676e193e4a11b73460f13f4bcbf82fd169c764ddf0b4b0f0659d71867022067f461074532f097cf16fc4f2c8b92778b4df9461182acdcb60cc8a0bf6adb0a012103ae7cb1fb49392e0a0eb7c8e6be95586aa6606830a4b5c0b600b5885807ad4a57ffffffffa3b930d8f0f9c3bd52c253753a9414a1350566e55b4a8cb1120afcf81e9fe4bf000000006a473044022036d40a11ba4b75c6c5e072b9849e1440f6d553bf0cbb128d902866a0a28b411602204e36c40c49198a2d0386677e570cb28dfc4e6bc639ea6ca3ca4dddb6f993a67901210249a51d7d1a38c9496fd16119e5bdee517181370cdc2c2ec29c02b26861b698e7fffffffffd02296c403555e12324e5e03452c1455e545d66b6f5547517eb4e36ece892c4000000006b483045022100f320a1b441f2d169242e6a5146b7ead3b57d2c18f3c845c54a4e62ae45bd0ded02200fa9014f5e5460ead6ec27d80a8fe2a09cdd9f66fc2d83035e048809856095ea0121035859ebbe4e6efa5bb23ea9c0c740735709d0828b5191d2bfe25a33974b9fc133ffffffff017fca0b000000000017a91433cb142b3c2421dd23df36e87679bd44a663a78c8700000000", "vin": [{"sequence": 4294967295, "scriptSig": {"hex": "483045022100db921de67d7b49ae4c1077c74d6bbd2762b2e763bd06e202142204107ed8267102201e42e89fecb02e63ba7f964cc426929c89ab5f0139abac291e0319d66cf148e001210325bd4fb9848f7aa07882399d2b6a67753988ee4a37f4213666e473afc73360ca", "asm": "3045022100db921de67d7b49ae4c1077c74d6bbd2762b2e763bd06e202142204107ed8267102201e42e89fecb02e63ba7f964cc426929c89ab5f0139abac291e0319d66cf148e0[ALL] 0325bd4fb9848f7aa07882399d2b6a67753988ee4a37f4213666e473afc73360ca"}, "vout": 0, "txid": "23653943b20fe3f978fc66f493ab6b4a033f887e3d7f5611a81e2e5759297b91"}, {"sequence": 4294967295, "scriptSig": {"hex": "483045022100c95c6fb64a573c6382100a82ec0f13665e85e2b72c6cad8a040694479ea7489d02202060c235dd551a2505ea2455e7dff35a796441dda0ba34e2ccf44c3739c0e736012102069763a66de3928b82e9550364dbde21d9026c51b5e013400c957fb38d3ec8bc", "asm": "3045022100c95c6fb64a573c6382100a82ec0f13665e85e2b72c6cad8a040694479ea7489d02202060c235dd551a2505ea2455e7dff35a796441dda0ba34e2ccf44c3739c0e736[ALL] 02069763a66de3928b82e9550364dbde21d9026c51b5e013400c957fb38d3ec8bc"}, "vout": 0, "txid": "65524395c7259942a23dc6180c116e878fee568dfda6363d56574adb98d8f755"}, {"sequence": 4294967295, "scriptSig": {"hex": "483045022100ada0b63c4d4023168435227c205a708e0f7640bf7ef2ddc38ca57c74eda1e2c502205abd00399b2dd52c6764c37735de7c0543faacbb840e8c83de80ffbef32090700121029b38a5cf73f7fe7a62e918212a16c1bea9e03c48530b5529da4a9dad8c9c75e6", "asm": "3045022100ada0b63c4d4023168435227c205a708e0f7640bf7ef2ddc38ca57c74eda1e2c502205abd00399b2dd52c6764c37735de7c0543faacbb840e8c83de80ffbef3209070[ALL] 029b38a5cf73f7fe7a62e918212a16c1bea9e03c48530b5529da4a9dad8c9c75e6"}, "vout": 0, "txid": "a06044af70defabf81d9f3ffb53e5e94dddae18de61979ff29fe7bc1c3228ab8"}, {"sequence": 4294967295, "scriptSig": {"hex": "473044022055974c4676e193e4a11b73460f13f4bcbf82fd169c764ddf0b4b0f0659d71867022067f461074532f097cf16fc4f2c8b92778b4df9461182acdcb60cc8a0bf6adb0a012103ae7cb1fb49392e0a0eb7c8e6be95586aa6606830a4b5c0b600b5885807ad4a57", "asm": "3044022055974c4676e193e4a11b73460f13f4bcbf82fd169c764ddf0b4b0f0659d71867022067f461074532f097cf16fc4f2c8b92778b4df9461182acdcb60cc8a0bf6adb0a[ALL] 03ae7cb1fb49392e0a0eb7c8e6be95586aa6606830a4b5c0b600b5885807ad4a57"}, "vout": 1, "txid": "a9fbabc9bca2954899d2a2674412eee84f161b82e3757a4a7974966d5c25eb16"}, {"sequence": 4294967295, "scriptSig": {"hex": "473044022036d40a11ba4b75c6c5e072b9849e1440f6d553bf0cbb128d902866a0a28b411602204e36c40c49198a2d0386677e570cb28dfc4e6bc639ea6ca3ca4dddb6f993a67901210249a51d7d1a38c9496fd16119e5bdee517181370cdc2c2ec29c02b26861b698e7", "asm": "3044022036d40a11ba4b75c6c5e072b9849e1440f6d553bf0cbb128d902866a0a28b411602204e36c40c49198a2d0386677e570cb28dfc4e6bc639ea6ca3ca4dddb6f993a679[ALL] 0249a51d7d1a38c9496fd16119e5bdee517181370cdc2c2ec29c02b26861b698e7"}, "vout": 0, "txid": "bfe49f1ef8fc0a12b18c4a5be5660535a114943a7553c252bdc3f9f0d830b9a3"}, {"sequence": 4294967295, "scriptSig": {"hex": "483045022100f320a1b441f2d169242e6a5146b7ead3b57d2c18f3c845c54a4e62ae45bd0ded02200fa9014f5e5460ead6ec27d80a8fe2a09cdd9f66fc2d83035e048809856095ea0121035859ebbe4e6efa5bb23ea9c0c740735709d0828b5191d2bfe25a33974b9fc133", "asm": "3045022100f320a1b441f2d169242e6a5146b7ead3b57d2c18f3c845c54a4e62ae45bd0ded02200fa9014f5e5460ead6ec27d80a8fe2a09cdd9f66fc2d83035e048809856095ea[ALL] 035859ebbe4e6efa5bb23ea9c0c740735709d0828b5191d2bfe25a33974b9fc133"}, "vout": 0, "txid": "c492e8ec364eeb177554f5b6665d545e45c15234e0e52423e15535406c2902fd"}], "txid": "d2bab93b05ef347a4957dd30c6e8b737505f3e9e727a04db050239e332ac8e58", "blocktime": 1537875543, "version": 1, "confirmations": 11464, "time": 1537875543, "locktime": 0, "vsize": 928, "size": 928}