{"hash": "d2bfc4cdefa9db22f4a864e6f718f15b3efaa8834b952b2a89642c2e160d5489", "blockhash": "00000000000000000004ffacab907a6b429b9a5745fa0b75af4234bf69dd7176", "vout": [{"scriptPubKey": {"reqSigs": 1, "hex": "76a91404d5e0b90a7549b29ee317a4d529b1d7f21128d088ac", "addresses": ["1SZvG2LyYqRuJRCx8FjxaTuDDDnUcSFkT"], "asm": "OP_DUP OP_HASH160 04d5e0b90a7549b29ee317a4d529b1d7f21128d0 OP_EQUALVERIFY OP_CHECKSIG", "type": "pubkeyhash"}, "value": 0.001623, "n": 0}, {"scriptPubKey": {"reqSigs": 1, "hex": "76a91482131fc3b5086b4d4d5b536dbf1e7424ceddfe3288ac", "addresses": ["1CrmkhjddcFH8j5GAYDaXGLtVAv4AVUDJ5"], "asm": "OP_DUP OP_HASH160 82131fc3b5086b4d4d5b536dbf1e7424ceddfe32 OP_EQUALVERIFY OP_CHECKSIG", "type": "pubkeyhash"}, "value": 0.004445, "n": 1}], "hex": "0100000002f5325700388aa693daa5027d4a16e3a5f6eaa08071068b28f08b622f03141991000000006a473044022005919f0ef3e62663bb32d918d1b2be36807d2edbecb1b65c15f114f4e73cca7a02206b0d976c37ae76ad9df12a1e46857842d91d76929b7c4b061d2c86ff7e4ac3cf012102dc7ccfd3e1cc8e92be627756f8576273aea40bdba46cdf0a148be49ef16b4f6bffffffff7d73cd2bdd51f7087180038c18acfe2c003f354593a8e571cd8e5739b1fd7895000000006a47304402200ccd7ab518f2ce6ecce2ba904c7ae62053c74955de2cf54609af7376deaf02f202203a6859c5ad74e2b3201d59ef322a72fd9aa48c047a6319e2d4c0e3349d7642810121035496bdef9940fc173322ef5b71f958814654da134afc7c075bcc13a102dc4fcbffffffff02fc790200000000001976a91404d5e0b90a7549b29ee317a4d529b1d7f21128d088ac54c80600000000001976a91482131fc3b5086b4d4d5b536dbf1e7424ceddfe3288ac00000000", "vin": [{"sequence": 4294967295, "scriptSig": {"hex": "473044022005919f0ef3e62663bb32d918d1b2be36807d2edbecb1b65c15f114f4e73cca7a02206b0d976c37ae76ad9df12a1e46857842d91d76929b7c4b061d2c86ff7e4ac3cf012102dc7ccfd3e1cc8e92be627756f8576273aea40bdba46cdf0a148be49ef16b4f6b", "asm": "3044022005919f0ef3e62663bb32d918d1b2be36807d2edbecb1b65c15f114f4e73cca7a02206b0d976c37ae76ad9df12a1e46857842d91d76929b7c4b061d2c86ff7e4ac3cf[ALL] 02dc7ccfd3e1cc8e92be627756f8576273aea40bdba46cdf0a148be49ef16b4f6b"}, "vout": 0, "txid": "911914032f628bf0288b067180a0eaf6a5e3164a7d02a5da93a68a38005732f5"}, {"sequence": 4294967295, "scriptSig": {"hex": "47304402200ccd7ab518f2ce6ecce2ba904c7ae62053c74955de2cf54609af7376deaf02f202203a6859c5ad74e2b3201d59ef322a72fd9aa48c047a6319e2d4c0e3349d7642810121035496bdef9940fc173322ef5b71f958814654da134afc7c075bcc13a102dc4fcb", "asm": "304402200ccd7ab518f2ce6ecce2ba904c7ae62053c74955de2cf54609af7376deaf02f202203a6859c5ad74e2b3201d59ef322a72fd9aa48c047a6319e2d4c0e3349d764281[ALL] 035496bdef9940fc173322ef5b71f958814654da134afc7c075bcc13a102dc4fcb"}, "vout": 0, "txid": "9578fdb139578ecd71e5a89345353f002cfeac188c03807108f751dd2bcd737d"}], "txid": "d2bfc4cdefa9db22f4a864e6f718f15b3efaa8834b952b2a89642c2e160d5489", "blocktime": 1537875543, "version": 1, "confirmations": 11464, "time": 1537875543, "locktime": 0, "vsize": 372, "size": 372}