{"hash": "9a70f665eb8748b5f76ab799862c56ea81659bd1250345246e30a8afc5f0b785", "blockhash": "000000000000000000022b45ed06c6f4ccd3cf7fb5ba4856ebd2e58215665228", "vout": [{"scriptPubKey": {"reqSigs": 1, "hex": "a9142f971006b575d4eccdb949a262d107a3e4739b0c87", "addresses": ["362eeaDBaSbFrKWNc4kKNoX8UHW4gxQ1wv"], "asm": "OP_HASH160 2f971006b575d4eccdb949a262d107a3e4739b0c OP_EQUAL", "type": "scripthash"}, "value": 0.00999888, "n": 0}, {"scriptPubKey": {"reqSigs": 1, "hex": "76a9145d0af442a21f4c19f5aa3eb29273694ca368ddf788ac", "addresses": ["19UxxwwrVUmBcmLPwgHRinejh7fXu3kekw"], "asm": "OP_DUP OP_HASH160 5d0af442a21f4c19f5aa3eb29273694ca368ddf7 OP_EQUALVERIFY OP_CHECKSIG", "type": "pubkeyhash"}, "value": 0.0070076, "n": 1}], "hex": "0200000000010330a3120474f5efd1dc46b9c77c3227c43455b13579b921cfcc16c02e5a2235a20800000017160014f3931fc151eaa21e79bab4bae12a29d0bdca8d01feffffff9edb31341244ddc73dd8df4f0a758402158f8d23eaf1378bc44ef3ad54338e880100000017160014d684c4716bc0a956a7677a071f22ef4470335b31feffffffa162a34bab1fe5346dcf85707c34214d94975b5f3e61052db492619ddfc21f5d0100000017160014b84705901d984983e681fedd47402cd61b868e92feffffff02d0410f000000000017a9142f971006b575d4eccdb949a262d107a3e4739b0c8758b10a00000000001976a9145d0af442a21f4c19f5aa3eb29273694ca368ddf788ac02473044022032ffbd8182f7d8b92bc2fd5c9346e0dd35685290d2565b6036b9ff008e7d2384022040b274ab84f45e0f59098c24b97a3ee5501fe0834ec3cc0ea3a4d8a429ee502001210358b876442f2c50820fb9e87aafbb8455fb8a1e6ef0ebd44f62dd2c8257e80e4102473044022050e6284b29a990bd8e77c96c637ed30507bdfa9b94030f62ba99ac4fdce78c86022012b3876c9460deaf31dd02ee283d6104263383eb2a449cc70a3267df3c70329b01210341c92bd48ca2c3eaf4f89c1a7ac55195352753ae77e0fb8ff6eb5013c1b678c702483045022100d072994809dc1d615962727a78f0830abbb3062db86f20bfe1ce1455ea2c14d802205dd9b89adaa16297330b22721a277c3bd7785b84cb966d80688e16528100958f012102127c7e2c98a18bb6d03eff25a3d5645cfb68f7f9f8cb192470d1b043e5b20f1d0b490800", "vin": [{"txinwitness": ["3044022032ffbd8182f7d8b92bc2fd5c9346e0dd35685290d2565b6036b9ff008e7d2384022040b274ab84f45e0f59098c24b97a3ee5501fe0834ec3cc0ea3a4d8a429ee502001", "0358b876442f2c50820fb9e87aafbb8455fb8a1e6ef0ebd44f62dd2c8257e80e41"], "sequence": 4294967294, "scriptSig": {"hex": "160014f3931fc151eaa21e79bab4bae12a29d0bdca8d01", "asm": "0014f3931fc151eaa21e79bab4bae12a29d0bdca8d01"}, "vout": 8, "txid": "a235225a2ec016cccf21b97935b15534c427327cc7b946dcd1eff5740412a330"}, {"txinwitness": ["3044022050e6284b29a990bd8e77c96c637ed30507bdfa9b94030f62ba99ac4fdce78c86022012b3876c9460deaf31dd02ee283d6104263383eb2a449cc70a3267df3c70329b01", "0341c92bd48ca2c3eaf4f89c1a7ac55195352753ae77e0fb8ff6eb5013c1b678c7"], "sequence": 4294967294, "scriptSig": {"hex": "160014d684c4716bc0a956a7677a071f22ef4470335b31", "asm": "0014d684c4716bc0a956a7677a071f22ef4470335b31"}, "vout": 1, "txid": "888e3354adf34ec48b37f1ea238d8f150284750a4fdfd83dc7dd44123431db9e"}, {"txinwitness": ["3045022100d072994809dc1d615962727a78f0830abbb3062db86f20bfe1ce1455ea2c14d802205dd9b89adaa16297330b22721a277c3bd7785b84cb966d80688e16528100958f01", "02127c7e2c98a18bb6d03eff25a3d5645cfb68f7f9f8cb192470d1b043e5b20f1d"], "sequence": 4294967294, "scriptSig": {"hex": "160014b84705901d984983e681fedd47402cd61b868e92", "asm": "0014b84705901d984983e681fedd47402cd61b868e92"}, "vout": 1, "txid": "5d1fc2df9d6192b42d05613e5f5b97944d21347c7085cf6d34e51fab4ba362a1"}], "txid": "d2ce097a53088a31ca5ca3d7b2329af85ec5e3abd13e7fcb749ab6735c341f28", "blocktime": 1537869901, "version": 2, "confirmations": 11524, "time": 1537869901, "locktime": 542987, "vsize": 349, "size": 592}