{"hash": "d2cef5253247bb10a4c025ef50760b69b9397c5baf220034ed5f7cd6e4aac688", "blockhash": "0000000000000000000dcc0f55137456b1a82d3642486a52398922ac4d620174", "vout": [{"scriptPubKey": {"reqSigs": 1, "hex": "76a9149a70bcb106e49920f74107254fd42b91cd1d55f788ac", "addresses": ["1F5c7emrNxPnuwBjzSpdfGivCNoo4ovR9W"], "asm": "OP_DUP OP_HASH160 9a70bcb106e49920f74107254fd42b91cd1d55f7 OP_EQUALVERIFY OP_CHECKSIG", "type": "pubkeyhash"}, "value": 0.00074145, "n": 0}, {"scriptPubKey": {"reqSigs": 1, "hex": "a914dfbe3ee2f3c08b887f6b2bb2d7de1e8fd7dd1fac87", "addresses": ["3N64WpbgWq76GzKAeN71vrb4MtB12tGeZu"], "asm": "OP_HASH160 dfbe3ee2f3c08b887f6b2bb2d7de1e8fd7dd1fac OP_EQUAL", "type": "scripthash"}, "value": 0.0327, "n": 1}], "hex": "01000000027f892d7577da3f0fe19f958cca7eb20d05dc9ca6db5c343a1c132b37d17e3e00000000006a4730440220346590347d60977398623ce49b51b2a231de0b3deca74a1d134fb241b77a90de02202d91fbee4232a22c00706502c9fb32fab8a0841aa77dbaa38f57a7b8404c0f62012103d0e7936ed525c031e7d5e694502ba5e73c2f6ec9f8d03208b2bcf6c14d85c313ffffffff5a9ffb7bc3327bc93c39d0aac5628f4406b53ed0a0e208cec8009dc227e664d1000000006a473044022020dac85f9ee739904657e6ff2b94c8b3735ebd353c5e8e8abf7d8e2d68379eb902203699bd9551bba40ea8d74e9730d52d5c21c4758e646b46530c0801d48ee3bcfd012103d2946015fe8059b37238f99e86903bd7131d48c3960d9819f7a5a3afd9899badffffffff02a1210100000000001976a9149a70bcb106e49920f74107254fd42b91cd1d55f788ac70e531000000000017a914dfbe3ee2f3c08b887f6b2bb2d7de1e8fd7dd1fac8700000000", "vin": [{"sequence": 4294967295, "scriptSig": {"hex": "4730440220346590347d60977398623ce49b51b2a231de0b3deca74a1d134fb241b77a90de02202d91fbee4232a22c00706502c9fb32fab8a0841aa77dbaa38f57a7b8404c0f62012103d0e7936ed525c031e7d5e694502ba5e73c2f6ec9f8d03208b2bcf6c14d85c313", "asm": "30440220346590347d60977398623ce49b51b2a231de0b3deca74a1d134fb241b77a90de02202d91fbee4232a22c00706502c9fb32fab8a0841aa77dbaa38f57a7b8404c0f62[ALL] 03d0e7936ed525c031e7d5e694502ba5e73c2f6ec9f8d03208b2bcf6c14d85c313"}, "vout": 0, "txid": "003e7ed1372b131c3a345cdba69cdc050db27eca8c959fe10f3fda77752d897f"}, {"sequence": 4294967295, "scriptSig": {"hex": "473044022020dac85f9ee739904657e6ff2b94c8b3735ebd353c5e8e8abf7d8e2d68379eb902203699bd9551bba40ea8d74e9730d52d5c21c4758e646b46530c0801d48ee3bcfd012103d2946015fe8059b37238f99e86903bd7131d48c3960d9819f7a5a3afd9899bad", "asm": "3044022020dac85f9ee739904657e6ff2b94c8b3735ebd353c5e8e8abf7d8e2d68379eb902203699bd9551bba40ea8d74e9730d52d5c21c4758e646b46530c0801d48ee3bcfd[ALL] 03d2946015fe8059b37238f99e86903bd7131d48c3960d9819f7a5a3afd9899bad"}, "vout": 0, "txid": "d164e627c29d00c8ce08e2a0d03eb506448f62c5aad0393cc97b32c37bfb9f5a"}], "txid": "d2cef5253247bb10a4c025ef50760b69b9397c5baf220034ed5f7cd6e4aac688", "blocktime": 1537870268, "version": 1, "confirmations": 11518, "time": 1537870268, "locktime": 0, "vsize": 370, "size": 370}