{"hash": "d2cfc5028cc9f3191f415c9477e73a410d27f76e1d92f94fd90f98465ad56997", "blockhash": "00000000000000000004ffacab907a6b429b9a5745fa0b75af4234bf69dd7176", "vout": [{"scriptPubKey": {"reqSigs": 1, "hex": "a9143ee56c0aee400fdb598b01c9f2f041aaf184bfcd87", "addresses": ["37RaexeEHckpv5BBaJ9J8yiS5VgHCQAAzE"], "asm": "OP_HASH160 3ee56c0aee400fdb598b01c9f2f041aaf184bfcd OP_EQUAL", "type": "scripthash"}, "value": 0.007973, "n": 0}, {"scriptPubKey": {"reqSigs": 1, "hex": "76a914bfb754bf45b8e32ac5bbd7cc9e796ab53398938e88ac", "addresses": ["1JUhghph1Evcwix5WZciQFws1QpHL5a4bJ"], "asm": "OP_DUP OP_HASH160 bfb754bf45b8e32ac5bbd7cc9e796ab53398938e OP_EQUALVERIFY OP_CHECKSIG", "type": "pubkeyhash"}, "value": 0.52213317, "n": 1}], "hex": "0100000001033cef19b8fc8b3fd5a393b621308f72cf8ffe0853b03a9d66b0a797d819f6c2010000006b483045022100fe6044377c015bd6b1410fa7596de95885abffdfec16662b0548991859dd577b022003345a281f8cee6e4b746ef59e4823689b0d57c11172c780e7c186d01625fed5012102da27b7920ccfb04077343285cdf0a2b20e9b3f9017874891e02383a694dec35cffffffff02742a0c000000000017a9143ee56c0aee400fdb598b01c9f2f041aaf184bfcd8745b61c03000000001976a914bfb754bf45b8e32ac5bbd7cc9e796ab53398938e88ac00000000", "vin": [{"sequence": 4294967295, "scriptSig": {"hex": "483045022100fe6044377c015bd6b1410fa7596de95885abffdfec16662b0548991859dd577b022003345a281f8cee6e4b746ef59e4823689b0d57c11172c780e7c186d01625fed5012102da27b7920ccfb04077343285cdf0a2b20e9b3f9017874891e02383a694dec35c", "asm": "3045022100fe6044377c015bd6b1410fa7596de95885abffdfec16662b0548991859dd577b022003345a281f8cee6e4b746ef59e4823689b0d57c11172c780e7c186d01625fed5[ALL] 02da27b7920ccfb04077343285cdf0a2b20e9b3f9017874891e02383a694dec35c"}, "vout": 1, "txid": "c2f619d897a7b0669d3ab05308fe8fcf728f3021b693a3d53f8bfcb819ef3c03"}], "txid": "d2cfc5028cc9f3191f415c9477e73a410d27f76e1d92f94fd90f98465ad56997", "blocktime": 1537875543, "version": 1, "confirmations": 11464, "time": 1537875543, "locktime": 0, "vsize": 224, "size": 224}