{"hash": "d2d56d0cce1856fe9edcd04e057fb2b60794205b15ca069bebfa3bf23a5cc064", "blockhash": "00000000000000000004ffacab907a6b429b9a5745fa0b75af4234bf69dd7176", "vout": [{"scriptPubKey": {"reqSigs": 1, "hex": "76a914d243e6abb9a60fbff430b421d2df4b7d59ec186088ac", "addresses": ["1LAnF8h3qMGx3TSwNUHVneBZUEpwE4gu3D"], "asm": "OP_DUP OP_HASH160 d243e6abb9a60fbff430b421d2df4b7d59ec1860 OP_EQUALVERIFY OP_CHECKSIG", "type": "pubkeyhash"}, "value": 0.00077314, "n": 0}, {"scriptPubKey": {"reqSigs": 1, "hex": "a914452cc7dc18460a4442ad797f3b1f68cc51522e0787", "addresses": ["37znCCRbcSMArUkiiBKEdDGVsbmw7y7yhP"], "asm": "OP_HASH160 452cc7dc18460a4442ad797f3b1f68cc51522e07 OP_EQUAL", "type": "scripthash"}, "value": 5.46e-06, "n": 1}, {"scriptPubKey": {"type": "nulldata", "hex": "6a146f6d6e69000000000000001f0000001423cd4100", "asm": "OP_RETURN 6f6d6e69000000000000001f0000001423cd4100"}, "value": 0.0, "n": 2}], "hex": "01000000015ad19f5bb25d492dc57d67912c7e99c896611b29393ff557de039a3a578f4af2000000006b4830450221009b8d95ce8f878b31e2cbac828d2c46607effe24ae53a69168b3bb775e5b7bf1d022049eae1dcb3a50ff647d9d91efdaf16a7b211b20d9d2b4e51e695ae571257eeab01210271977291b74f1f5f5c42157e8aae804664eaaeccfd097918450d37f28fb94d77ffffffff03022e0100000000001976a914d243e6abb9a60fbff430b421d2df4b7d59ec186088ac220200000000000017a914452cc7dc18460a4442ad797f3b1f68cc51522e07870000000000000000166a146f6d6e69000000000000001f0000001423cd410000000000", "vin": [{"sequence": 4294967295, "scriptSig": {"hex": "4830450221009b8d95ce8f878b31e2cbac828d2c46607effe24ae53a69168b3bb775e5b7bf1d022049eae1dcb3a50ff647d9d91efdaf16a7b211b20d9d2b4e51e695ae571257eeab01210271977291b74f1f5f5c42157e8aae804664eaaeccfd097918450d37f28fb94d77", "asm": "30450221009b8d95ce8f878b31e2cbac828d2c46607effe24ae53a69168b3bb775e5b7bf1d022049eae1dcb3a50ff647d9d91efdaf16a7b211b20d9d2b4e51e695ae571257eeab[ALL] 0271977291b74f1f5f5c42157e8aae804664eaaeccfd097918450d37f28fb94d77"}, "vout": 0, "txid": "f24a8f573a9a03de57f53f39291b6196c8997e2c91677dc52d495db25b9fd15a"}], "txid": "d2d56d0cce1856fe9edcd04e057fb2b60794205b15ca069bebfa3bf23a5cc064", "blocktime": 1537875543, "version": 1, "confirmations": 11464, "time": 1537875543, "locktime": 0, "vsize": 255, "size": 255}