{"hash": "6cf1f87c61eedd062b00826d42aba2a7ac81f656692169e7c41514795bfb879b", "blockhash": "000000000000000000022b45ed06c6f4ccd3cf7fb5ba4856ebd2e58215665228", "vout": [{"scriptPubKey": {"reqSigs": 1, "hex": "a91464db0982c6572b7219af415473a44961b1b5b2db87", "addresses": ["3AtHthFudvG5htsfkh8rWPY2LkXRamKP89"], "asm": "OP_HASH160 64db0982c6572b7219af415473a44961b1b5b2db OP_EQUAL", "type": "scripthash"}, "value": 0.122593, "n": 0}, {"scriptPubKey": {"reqSigs": 1, "hex": "76a914897c5a97d71363a306f4b1306504bbfaa49ba29b88ac", "addresses": ["1DXxYYJpvYx4TsF4hQGekmBJrwdJbKAkL7"], "asm": "OP_DUP OP_HASH160 897c5a97d71363a306f4b1306504bbfaa49ba29b OP_EQUALVERIFY OP_CHECKSIG", "type": "pubkeyhash"}, "value": 0.002, "n": 1}], "hex": "010000000001011aaea2641ebb564eee05eccf7c13a14b26405bc69b15ce4dc4946d30ab1cf8f701000000232200202b2a80a07965af546f85a7c194479dc5580e7f7c467fef786b6359c1ebf75dcdffffffff02e40fbb000000000017a91464db0982c6572b7219af415473a44961b1b5b2db87400d0300000000001976a914897c5a97d71363a306f4b1306504bbfaa49ba29b88ac0400473044022035990550435ae0eace42349877b91bdc7f316d77fde6d5bce001159c4fd585860220600946bbc367bbfac4432374a81e1d800e9ba30336a07b64d0fdb9a4f3cecc50014830450221009b6d4ef58a0daf1387264706eaf83e067bd2877133d0bc8465ff47106168f6160220253d60f80789c22dc65e3bed0c8101a042eba3d68458ae6e265ba73c1d1a955d01695221032460caa168d8087477f9696a67acb8690a47a7370902cc3054c1bc64bc047ed821022e5eccb555813ee77915d981eff4867729846dac09b58c0c84b8141f9e761c5a2102b1109285b14b35091d037453d5207e363e2d1fb38599d11be82097d1c35ec52f53ae00000000", "vin": [{"txinwitness": ["", "3044022035990550435ae0eace42349877b91bdc7f316d77fde6d5bce001159c4fd585860220600946bbc367bbfac4432374a81e1d800e9ba30336a07b64d0fdb9a4f3cecc5001", "30450221009b6d4ef58a0daf1387264706eaf83e067bd2877133d0bc8465ff47106168f6160220253d60f80789c22dc65e3bed0c8101a042eba3d68458ae6e265ba73c1d1a955d01", "5221032460caa168d8087477f9696a67acb8690a47a7370902cc3054c1bc64bc047ed821022e5eccb555813ee77915d981eff4867729846dac09b58c0c84b8141f9e761c5a2102b1109285b14b35091d037453d5207e363e2d1fb38599d11be82097d1c35ec52f53ae"], "sequence": 4294967295, "scriptSig": {"hex": "2200202b2a80a07965af546f85a7c194479dc5580e7f7c467fef786b6359c1ebf75dcd", "asm": "00202b2a80a07965af546f85a7c194479dc5580e7f7c467fef786b6359c1ebf75dcd"}, "vout": 1, "txid": "f7f81cab306d94c44dce159bc65b40264ba1137ccfec05ee4e56bb1e64a2ae1a"}], "txid": "d2d5fa6e16c0b254c9b54b4e610a17ab3397cb8be7bdbf917d55bb7c19a24279", "blocktime": 1537869901, "version": 1, "confirmations": 11524, "time": 1537869901, "locktime": 0, "vsize": 216, "size": 407}