{"hash": "d2dd1891554bb45385c3ae9d213fb01bcacbccdb6fd29a9d5c27959dca46cb03", "blockhash": "0000000000000000000e13cef7c366c0283d82e591d1acd082e914b08063cdf1", "vout": [{"scriptPubKey": {"type": "nulldata", "hex": "6a4c5000007794000197b46aacbf9d8ecbd73510f5e3ef3236678a625097bcbefa6b8351586b4ecfd1cf2fc0f8da7267914631a8e740655baa0cd806147062147c1c74bc9a9526289ac0f6612cd74e33776ee4", "asm": "OP_RETURN 00007794000197b46aacbf9d8ecbd73510f5e3ef3236678a625097bcbefa6b8351586b4ecfd1cf2fc0f8da7267914631a8e740655baa0cd806147062147c1c74bc9a9526289ac0f6612cd74e33776ee4"}, "value": 0.0, "n": 0}, {"scriptPubKey": {"reqSigs": 1, "hex": "76a914d2317d21fa13fa954592d40ce6956f4f93c0e95c88ac", "addresses": ["1LAQBpwFjpJyY3axm6caVvBFYWJnu9UZiW"], "asm": "OP_DUP OP_HASH160 d2317d21fa13fa954592d40ce6956f4f93c0e95c OP_EQUALVERIFY OP_CHECKSIG", "type": "pubkeyhash"}, "value": 0.0010408, "n": 1}], "hex": "0100000001b54b26035db2194d003ecf79b603a81f95dfbc9cab21d001563f1e238f9ef665010000006b483045022100a4b5b097b7f4151228e043978233fad4c656e48bb079a031a338fbc2beceaaaa022011d57c28ef1256b5f3cad17dd548729ddbca58a0966b543b91a5a58bc299e45b0121021618c80cad80f56e993b7c96278382ae3eef3029ec616f740f4689a0d3c3a747ffffffff020000000000000000536a4c5000007794000197b46aacbf9d8ecbd73510f5e3ef3236678a625097bcbefa6b8351586b4ecfd1cf2fc0f8da7267914631a8e740655baa0cd806147062147c1c74bc9a9526289ac0f6612cd74e33776ee490960100000000001976a914d2317d21fa13fa954592d40ce6956f4f93c0e95c88ac00000000", "vin": [{"sequence": 4294967295, "scriptSig": {"hex": "483045022100a4b5b097b7f4151228e043978233fad4c656e48bb079a031a338fbc2beceaaaa022011d57c28ef1256b5f3cad17dd548729ddbca58a0966b543b91a5a58bc299e45b0121021618c80cad80f56e993b7c96278382ae3eef3029ec616f740f4689a0d3c3a747", "asm": "3045022100a4b5b097b7f4151228e043978233fad4c656e48bb079a031a338fbc2beceaaaa022011d57c28ef1256b5f3cad17dd548729ddbca58a0966b543b91a5a58bc299e45b[ALL] 021618c80cad80f56e993b7c96278382ae3eef3029ec616f740f4689a0d3c3a747"}, "vout": 1, "txid": "65f69e8f231e3f5601d021ab9cbcdf951fa803b679cf3e004d19b25d03264bb5"}], "txid": "d2dd1891554bb45385c3ae9d213fb01bcacbccdb6fd29a9d5c27959dca46cb03", "blocktime": 1537871767, "version": 1, "confirmations": 11493, "time": 1537871767, "locktime": 0, "vsize": 284, "size": 284}