{"hash": "d2e1363caec1b2eb6f0aa321dbe7bb25657fba3f0c2762502f53a3d8f1fd5f51", "blockhash": "00000000000000000018f53835495a110e01622372bf6ae95dc86f2b0ab887b0", "vout": [{"scriptPubKey": {"reqSigs": 1, "hex": "76a9144eb7f9c5409e947f9df98dc5bc8ce32aa307a53f88ac", "addresses": ["18BE6pLXndufFPv2Q7gnDodhSx2HDvqyzk"], "asm": "OP_DUP OP_HASH160 4eb7f9c5409e947f9df98dc5bc8ce32aa307a53f OP_EQUALVERIFY OP_CHECKSIG", "type": "pubkeyhash"}, "value": 0.01270698, "n": 0}, {"scriptPubKey": {"reqSigs": 1, "hex": "a914f0cb8be8172a3e8c6d9f2f2b1d9a19209c7a9afd87", "addresses": ["3PeDwF25wopJTmWahu7XHGD3bi8f3c1XnM"], "asm": "OP_HASH160 f0cb8be8172a3e8c6d9f2f2b1d9a19209c7a9afd OP_EQUAL", "type": "scripthash"}, "value": 0.09675949, "n": 1}], "hex": "0100000001d85eb2e4c97bdcb99d9f5fda0d32126b723bb1929c1c4df5b381f9f6d1d7fc82000000006b483045022100c80637102d677e6739c196bc3e479f83e2db49cdacf350f5f4afdf397428ba3a02201b9ca33f27e13b7f43a310ae8c14e23d6f5a6bb10964406da12b8cdf132527310121020aaa4b6d268cf7ef65136ffa0257960c33bc6463605fe96ad87e0f803cd9bf9bffffffff02aa631300000000001976a9144eb7f9c5409e947f9df98dc5bc8ce32aa307a53f88acada493000000000017a914f0cb8be8172a3e8c6d9f2f2b1d9a19209c7a9afd8700000000", "vin": [{"sequence": 4294967295, "scriptSig": {"hex": "483045022100c80637102d677e6739c196bc3e479f83e2db49cdacf350f5f4afdf397428ba3a02201b9ca33f27e13b7f43a310ae8c14e23d6f5a6bb10964406da12b8cdf132527310121020aaa4b6d268cf7ef65136ffa0257960c33bc6463605fe96ad87e0f803cd9bf9b", "asm": "3045022100c80637102d677e6739c196bc3e479f83e2db49cdacf350f5f4afdf397428ba3a02201b9ca33f27e13b7f43a310ae8c14e23d6f5a6bb10964406da12b8cdf13252731[ALL] 020aaa4b6d268cf7ef65136ffa0257960c33bc6463605fe96ad87e0f803cd9bf9b"}, "vout": 0, "txid": "82fcd7d1f6f981b3f54d1c9c92b13b726b12320dda5f9f9db9dc7bc9e4b25ed8"}], "txid": "d2e1363caec1b2eb6f0aa321dbe7bb25657fba3f0c2762502f53a3d8f1fd5f51", "blocktime": 1537870928, "version": 1, "confirmations": 11512, "time": 1537870928, "locktime": 0, "vsize": 224, "size": 224}