{"hash": "d2e233449109d8d47f033cabebfe0f163c1544222ad5b5590d14b1bd17615e43", "blockhash": "00000000000000000004ffacab907a6b429b9a5745fa0b75af4234bf69dd7176", "vout": [{"scriptPubKey": {"reqSigs": 1, "hex": "76a91450b7f3063249c4106d7a54bc52d80926b625f99d88ac", "addresses": ["18MoRNPbyMgJD62pJuDL7rZ5qJ49w9EuXH"], "asm": "OP_DUP OP_HASH160 50b7f3063249c4106d7a54bc52d80926b625f99d OP_EQUALVERIFY OP_CHECKSIG", "type": "pubkeyhash"}, "value": 0.003946, "n": 0}], "hex": "0100000001c9bc84fa9acdb3393fcce629dbea975f239a1a7948f647a19f920e0b2bee7c9a000000006a473044022050d670aeb5f4fb59c5937d5b219fb6a1937436833e0ead3be0265938543a09000220728ed127f0c5533a13acc83eda0d74dbc2c3a30f578e071ef69ac2bf9886de00012102850324eb50b3a07db580ba06d6c1506155064dfc80657f40a0e5c39cc2132d71ffffffff0168050600000000001976a91450b7f3063249c4106d7a54bc52d80926b625f99d88ac00000000", "vin": [{"sequence": 4294967295, "scriptSig": {"hex": "473044022050d670aeb5f4fb59c5937d5b219fb6a1937436833e0ead3be0265938543a09000220728ed127f0c5533a13acc83eda0d74dbc2c3a30f578e071ef69ac2bf9886de00012102850324eb50b3a07db580ba06d6c1506155064dfc80657f40a0e5c39cc2132d71", "asm": "3044022050d670aeb5f4fb59c5937d5b219fb6a1937436833e0ead3be0265938543a09000220728ed127f0c5533a13acc83eda0d74dbc2c3a30f578e071ef69ac2bf9886de00[ALL] 02850324eb50b3a07db580ba06d6c1506155064dfc80657f40a0e5c39cc2132d71"}, "vout": 0, "txid": "9a7cee2b0b0e929fa147f648791a9a235f97eadb29e6cc3f39b3cd9afa84bcc9"}], "txid": "d2e233449109d8d47f033cabebfe0f163c1544222ad5b5590d14b1bd17615e43", "blocktime": 1537875543, "version": 1, "confirmations": 11464, "time": 1537875543, "locktime": 0, "vsize": 191, "size": 191}