{"hash": "d2e3bf7316e214977ce40026b79299dc5d601a0ec52dc66bb2851c8dd9dd8cdf", "blockhash": "0000000000000000000e13cef7c366c0283d82e591d1acd082e914b08063cdf1", "vout": [{"scriptPubKey": {"reqSigs": 1, "hex": "76a91479891555fe0c2760af8254420a6580554e5bb75588ac", "addresses": ["1C5cyvth53cbEUAoiBXiUqv7aD9eLqZCHM"], "asm": "OP_DUP OP_HASH160 79891555fe0c2760af8254420a6580554e5bb755 OP_EQUALVERIFY OP_CHECKSIG", "type": "pubkeyhash"}, "value": 0.00013849, "n": 0}, {"scriptPubKey": {"reqSigs": 1, "hex": "76a914d3f57bf6016260ed45684006002e1f5864a8252088ac", "addresses": ["1LKjf26yncwUbw4hU3XFs6qXixVroeoNGo"], "asm": "OP_DUP OP_HASH160 d3f57bf6016260ed45684006002e1f5864a82520 OP_EQUALVERIFY OP_CHECKSIG", "type": "pubkeyhash"}, "value": 0.02159937, "n": 1}], "hex": "0100000001d044ab6874aaedb25f77b4fc56383446ec0b2d12fe013edbfe51d084ed9eb6f8000000006b4830450221009544a81ed0be4fdbf8ab65fccb7257a8129f60909f5b019574d5a3e2a1c1221f02202817e39c38ed35703439d7a95ac359671211e8159b1ea53452883ce113210b6d012102f86134bc038fec0f06228ab3a123f5def1555dec9a6406d3cb833035c7d33a7bffffffff0219360000000000001976a91479891555fe0c2760af8254420a6580554e5bb75588ac41f52000000000001976a914d3f57bf6016260ed45684006002e1f5864a8252088ac00000000", "vin": [{"sequence": 4294967295, "scriptSig": {"hex": "4830450221009544a81ed0be4fdbf8ab65fccb7257a8129f60909f5b019574d5a3e2a1c1221f02202817e39c38ed35703439d7a95ac359671211e8159b1ea53452883ce113210b6d012102f86134bc038fec0f06228ab3a123f5def1555dec9a6406d3cb833035c7d33a7b", "asm": "30450221009544a81ed0be4fdbf8ab65fccb7257a8129f60909f5b019574d5a3e2a1c1221f02202817e39c38ed35703439d7a95ac359671211e8159b1ea53452883ce113210b6d[ALL] 02f86134bc038fec0f06228ab3a123f5def1555dec9a6406d3cb833035c7d33a7b"}, "vout": 0, "txid": "f8b69eed84d051fedb3e01fe122d0bec46343856fcb4775fb2edaa7468ab44d0"}], "txid": "d2e3bf7316e214977ce40026b79299dc5d601a0ec52dc66bb2851c8dd9dd8cdf", "blocktime": 1537871767, "version": 1, "confirmations": 11495, "time": 1537871767, "locktime": 0, "vsize": 226, "size": 226}