{"hash": "153639804f85054d508387979933596fbe64e7d3952a4c51b5f1ca6a43fbc693", "blockhash": "0000000000000000000baef3f32e3676a92c3b2e5da21b426e4f302fc371ce76", "vout": [{"scriptPubKey": {"reqSigs": 1, "hex": "a914ff8b3e8f64bf8ca2273a48513db75114969c658887", "addresses": ["3QzD3L48XEyyKJ6zn1EQQGtPHNW23azs8K"], "asm": "OP_HASH160 ff8b3e8f64bf8ca2273a48513db75114969c6588 OP_EQUAL", "type": "scripthash"}, "value": 0.0053606, "n": 0}, {"scriptPubKey": {"reqSigs": 1, "hex": "a9147e7f1432e775812323df812e95a9b4317a1a87a887", "addresses": ["3DDsJK1Nf48C1fZMpvx1fWTD8P5LYBfqpe"], "asm": "OP_HASH160 7e7f1432e775812323df812e95a9b4317a1a87a8 OP_EQUAL", "type": "scripthash"}, "value": 0.00362452, "n": 1}, {"scriptPubKey": {"reqSigs": 1, "hex": "a91436ed47a07982a6f6b11cfad8ef46a82b54c621c687", "addresses": ["36hSfPfbVtHQnfpLquJLXw8jDGdSeZwygo"], "asm": "OP_HASH160 36ed47a07982a6f6b11cfad8ef46a82b54c621c6 OP_EQUAL", "type": "scripthash"}, "value": 0.0021396, "n": 2}, {"scriptPubKey": {"reqSigs": 1, "hex": "a9149f60c48eaa8aa6eb4522326983c29df7c1c18a6987", "addresses": ["3GDjHb9Tp6mC3SCH6v9mXDTqZ7DVSxK9ZF"], "asm": "OP_HASH160 9f60c48eaa8aa6eb4522326983c29df7c1c18a69 OP_EQUAL", "type": "scripthash"}, "value": 0.0029356, "n": 3}, {"scriptPubKey": {"reqSigs": 1, "hex": "a914751df847aafd2630afeecbfd2e6c367f117d28a687", "addresses": ["3CNGtL3Wiv9pM81hH91FDxXoWuHPFU3k81"], "asm": "OP_HASH160 751df847aafd2630afeecbfd2e6c367f117d28a6 OP_EQUAL", "type": "scripthash"}, "value": 0.0025736, "n": 4}, {"scriptPubKey": {"reqSigs": 1, "hex": "a9148382d4027b97aaa66c0ac7e09b726e6a298bbc5087", "addresses": ["3DgPAmpqFi3wKPNZmJhtW3tdXGhAuuzKhh"], "asm": "OP_HASH160 8382d4027b97aaa66c0ac7e09b726e6a298bbc50 OP_EQUAL", "type": "scripthash"}, "value": 2.10455943, "n": 5}, {"scriptPubKey": {"reqSigs": 1, "hex": "a914cb46010b270341d000a43530f5a236c0e9646f6787", "addresses": ["3LDpxTGwKGHPWa4xacgL5cXYyBhgw8vqrT"], "asm": "OP_HASH160 cb46010b270341d000a43530f5a236c0e9646f67 OP_EQUAL", "type": "scripthash"}, "value": 0.0059406, "n": 6}, {"scriptPubKey": {"reqSigs": 1, "hex": "a914b4b9a6cb14ab9c75637d917206472e92124bab0d87", "addresses": ["3JAbxNJa8ZxqGaYCVSNsEKrTXEGFK5Bizy"], "asm": "OP_HASH160 b4b9a6cb14ab9c75637d917206472e92124bab0d OP_EQUAL", "type": "scripthash"}, "value": 0.0030586, "n": 7}, {"scriptPubKey": {"reqSigs": 1, "hex": "76a9147a6e0ceff5b736e25fab2bcd411bb3e4a79ce12388ac", "addresses": ["1CAMGrDpVHwCTiXAkwipci29gp2j27QWvj"], "asm": "OP_DUP OP_HASH160 7a6e0ceff5b736e25fab2bcd411bb3e4a79ce123 OP_EQUALVERIFY OP_CHECKSIG", "type": "pubkeyhash"}, "value": 0.0034, "n": 8}, {"scriptPubKey": {"reqSigs": 1, "hex": "a91403ac5c18656c751e30da84de3e5d9a66fdb74ef087", "addresses": ["322SRtFVHXFdxhHgZDNRRWpdHnJVFTCcpi"], "asm": "OP_HASH160 03ac5c18656c751e30da84de3e5d9a66fdb74ef0 OP_EQUAL", "type": "scripthash"}, "value": 1.2e-05, "n": 9}, {"scriptPubKey": {"reqSigs": 1, "hex": "76a91401219e90a2e891167c0c31225a1e1e85efa4d65088ac", "addresses": ["16yx7HMaEBMrg7JhefjJ4hWCUNkAwnH33"], "asm": "OP_DUP OP_HASH160 01219e90a2e891167c0c31225a1e1e85efa4d650 OP_EQUALVERIFY OP_CHECKSIG", "type": "pubkeyhash"}, "value": 0.00362452, "n": 10}, {"scriptPubKey": {"reqSigs": 1, "hex": "a91494a1998997362f44a162a121b4626a946743932187", "addresses": ["3FEuX5jsRrQ1b86y5th6HZABsJkLx6zy7k"], "asm": "OP_HASH160 94a1998997362f44a162a121b4626a9467439321 OP_EQUAL", "type": "scripthash"}, "value": 0.0012, "n": 11}, {"scriptPubKey": {"reqSigs": 1, "hex": "a914bd7db6ba4c413b4bbd213d7e32655679681c55e887", "addresses": ["3JxxEYdwXDZ6HQnfMdzV9M8bvEY6AGnkWQ"], "asm": "OP_HASH160 bd7db6ba4c413b4bbd213d7e32655679681c55e8 OP_EQUAL", "type": "scripthash"}, "value": 0.00333225, "n": 12}, {"scriptPubKey": {"reqSigs": 1, "hex": "76a914d38e7196e6d3a33ae3bced27f5fa1a830c892a8088ac", "addresses": ["1LHcDe3JniuZhHGQsy42yVJzDfZthTWmoP"], "asm": "OP_DUP OP_HASH160 d38e7196e6d3a33ae3bced27f5fa1a830c892a80 OP_EQUALVERIFY OP_CHECKSIG", "type": "pubkeyhash"}, "value": 0.01884753, "n": 13}, {"scriptPubKey": {"reqSigs": 1, "hex": "a91410a943bdfeb29e7c276e90867462d33ed69e73ec87", "addresses": ["33D7WKo7AzHDXjPn7my7nEpVKG4TSgppqo"], "asm": "OP_HASH160 10a943bdfeb29e7c276e90867462d33ed69e73ec OP_EQUAL", "type": "scripthash"}, "value": 0.0007479, "n": 14}], "hex": "0200000000010184d05e71b3788cdb4d81351e0526e484df01b7e84a4b4b5ca89baac2af7d54be07000000171600145c1b8f11ba0c8c7d94bb58e009cb3850fd8eef88feffffff0ffc2d08000000000017a914ff8b3e8f64bf8ca2273a48513db75114969c658887d48705000000000017a9147e7f1432e775812323df812e95a9b4317a1a87a887c84303000000000017a91436ed47a07982a6f6b11cfad8ef46a82b54c621c687b87a04000000000017a9149f60c48eaa8aa6eb4522326983c29df7c1c18a698750ed03000000000017a914751df847aafd2630afeecbfd2e6c367f117d28a687874d8b0c0000000017a9148382d4027b97aaa66c0ac7e09b726e6a298bbc50878c1009000000000017a914cb46010b270341d000a43530f5a236c0e9646f6787c4aa04000000000017a914b4b9a6cb14ab9c75637d917206472e92124bab0d8720300500000000001976a9147a6e0ceff5b736e25fab2bcd411bb3e4a79ce12388acb00400000000000017a91403ac5c18656c751e30da84de3e5d9a66fdb74ef087d4870500000000001976a91401219e90a2e891167c0c31225a1e1e85efa4d65088acc0d401000000000017a91494a1998997362f44a162a121b4626a946743932187a91505000000000017a914bd7db6ba4c413b4bbd213d7e32655679681c55e88751c21c00000000001976a914d38e7196e6d3a33ae3bced27f5fa1a830c892a8088ac262401000000000017a91410a943bdfeb29e7c276e90867462d33ed69e73ec870248304502210095fc326059d6b7e7c7a051bcf74b2091062eb94fd8970c11a3fa8d214972c45d0220274e6c75b5677c2515dd09a90a68c3b281d568f3ecdb051a07deff355fc6a9dd012103b098cd488a2b5b2043a53aee2f7caa473f7b937999fd6861eb976243e8ebdfd517490800", "vin": [{"txinwitness": ["304502210095fc326059d6b7e7c7a051bcf74b2091062eb94fd8970c11a3fa8d214972c45d0220274e6c75b5677c2515dd09a90a68c3b281d568f3ecdb051a07deff355fc6a9dd01", "03b098cd488a2b5b2043a53aee2f7caa473f7b937999fd6861eb976243e8ebdfd5"], "sequence": 4294967294, "scriptSig": {"hex": "1600145c1b8f11ba0c8c7d94bb58e009cb3850fd8eef88", "asm": "00145c1b8f11ba0c8c7d94bb58e009cb3850fd8eef88"}, "vout": 7, "txid": "be547dafc2aa9ba85c4b4b4ae8b701df84e426051e35814ddb8c78b3715ed084"}], "txid": "d2ffc1d4e5c5390bfa60c3fd4371787dd52894e6150431a757f1d7b45de93996", "blocktime": 1537876114, "version": 2, "confirmations": 11459, "time": 1537876114, "locktime": 542999, "vsize": 588, "size": 670}