{"hash": "d305948a3c43ba15db06d4ac488a414fd0d072c9cc3dffe632be0adcf5d1d010", "blockhash": "0000000000000000000baef3f32e3676a92c3b2e5da21b426e4f302fc371ce76", "vout": [{"scriptPubKey": {"reqSigs": 1, "hex": "a9146356369c6538da518162d430d40113225757a9c287", "addresses": ["3AkG6jyRDzQfkqmK9zw1cCn5un7Do61p8J"], "asm": "OP_HASH160 6356369c6538da518162d430d40113225757a9c2 OP_EQUAL", "type": "scripthash"}, "value": 0.00118227, "n": 0}, {"scriptPubKey": {"reqSigs": 1, "hex": "76a914e163d073e054266d0f5e025eebd6100b0c946b5b88ac", "addresses": ["1MYkcNyCtPmxivKoMy5v5VBkv6LuBrgrAy"], "asm": "OP_DUP OP_HASH160 e163d073e054266d0f5e025eebd6100b0c946b5b OP_EQUALVERIFY OP_CHECKSIG", "type": "pubkeyhash"}, "value": 0.06367324, "n": 1}], "hex": "0100000001e09c071ab10d8b5d16b9fd93ec3a3438d308029b18a4c85bfb2aeac1bb07f94f010000006a473044022079b66901c3fb0ea00f32dd54638612699f76fb8b4d754376c5f510f41c8ace5102204f98d5cb03406bf8d2a76d97ae11d67bca0a6fb1808352116161837a6190d8050121033387315522fd785dc6a3184e4f2acbd937f90409a105c06583c94e6554220085ffffffff02d3cd01000000000017a9146356369c6538da518162d430d40113225757a9c2875c286100000000001976a914e163d073e054266d0f5e025eebd6100b0c946b5b88ac00000000", "vin": [{"sequence": 4294967295, "scriptSig": {"hex": "473044022079b66901c3fb0ea00f32dd54638612699f76fb8b4d754376c5f510f41c8ace5102204f98d5cb03406bf8d2a76d97ae11d67bca0a6fb1808352116161837a6190d8050121033387315522fd785dc6a3184e4f2acbd937f90409a105c06583c94e6554220085", "asm": "3044022079b66901c3fb0ea00f32dd54638612699f76fb8b4d754376c5f510f41c8ace5102204f98d5cb03406bf8d2a76d97ae11d67bca0a6fb1808352116161837a6190d805[ALL] 033387315522fd785dc6a3184e4f2acbd937f90409a105c06583c94e6554220085"}, "vout": 1, "txid": "4ff907bbc1ea2afb5bc8a4189b0208d338343aec93fdb9165d8b0db11a079ce0"}], "txid": "d305948a3c43ba15db06d4ac488a414fd0d072c9cc3dffe632be0adcf5d1d010", "blocktime": 1537876114, "version": 1, "confirmations": 11459, "time": 1537876114, "locktime": 0, "vsize": 223, "size": 223}