{"hash": "bc811a5fd3e2afdfe87000344d8f0bc7abf1fbfe8a6cf43b5c10ca4cd2309c16", "blockhash": "0000000000000000000baef3f32e3676a92c3b2e5da21b426e4f302fc371ce76", "vout": [{"scriptPubKey": {"reqSigs": 1, "hex": "76a914b7be3e452735ba040850819d430ff8818ce1965488ac", "addresses": ["1HkYZSMkNV4ywdVnqj7msXkFFFCEFc9CtV"], "asm": "OP_DUP OP_HASH160 b7be3e452735ba040850819d430ff8818ce19654 OP_EQUALVERIFY OP_CHECKSIG", "type": "pubkeyhash"}, "value": 0.0034626, "n": 0}, {"scriptPubKey": {"reqSigs": 1, "hex": "a914916259bb9dbe0eaa7d23e761248811f629c7f59787", "addresses": ["3Ewjisb7oJStUEFBmR4UN9qy4mKrEp4zYw"], "asm": "OP_HASH160 916259bb9dbe0eaa7d23e761248811f629c7f597 OP_EQUAL", "type": "scripthash"}, "value": 0.01069626, "n": 1}], "hex": "02000000000102ae5af058c44b24b82eba29f34a4fd8dd00263ebf4dc77aa5959eac7c44b7ada80100000017160014a1bea89927bc40abda5daa41f80cd43089dcea0afeffffffede76a8d32b35d31544c66c0b5424c0bd12148e57a3149a20fff8804a7eaae5d0100000017160014cc80540c41fbdaf3c3b29ca78d274f9fdc33ed21feffffff0294480500000000001976a914b7be3e452735ba040850819d430ff8818ce1965488ac3a5210000000000017a914916259bb9dbe0eaa7d23e761248811f629c7f5978702483045022100d7a254dcfa7f8f840adafc137a8093884ac62c9816ce8f4222b07591ba16d70802201860acc041718a0f5cc3ea4b1599a55ee4d3862a82d01d36bb880b4b0e4f2c6a0121026507c314e46dfc7417460695618a8dee3f66b7c1095e538e97f0c05d43d8455302483045022100cfe851f69ab9ff1046945db58e87c43a500d835a8f899cf5516bb9dd76eec6d902203977859d1b1e4aab2f3f6573b8970fdd162adb0a90cbd9a7dbc599920042acd9012102d58fcf75b80c957fdc57757b040bf49c4e8b04d2a2bbc39cd37794a511fc7d8c17490800", "vin": [{"txinwitness": ["3045022100d7a254dcfa7f8f840adafc137a8093884ac62c9816ce8f4222b07591ba16d70802201860acc041718a0f5cc3ea4b1599a55ee4d3862a82d01d36bb880b4b0e4f2c6a01", "026507c314e46dfc7417460695618a8dee3f66b7c1095e538e97f0c05d43d84553"], "sequence": 4294967294, "scriptSig": {"hex": "160014a1bea89927bc40abda5daa41f80cd43089dcea0a", "asm": "0014a1bea89927bc40abda5daa41f80cd43089dcea0a"}, "vout": 1, "txid": "a8adb7447cac9e95a57ac74dbf3e2600ddd84f4af329ba2eb8244bc458f05aae"}, {"txinwitness": ["3045022100cfe851f69ab9ff1046945db58e87c43a500d835a8f899cf5516bb9dd76eec6d902203977859d1b1e4aab2f3f6573b8970fdd162adb0a90cbd9a7dbc599920042acd901", "02d58fcf75b80c957fdc57757b040bf49c4e8b04d2a2bbc39cd37794a511fc7d8c"], "sequence": 4294967294, "scriptSig": {"hex": "160014cc80540c41fbdaf3c3b29ca78d274f9fdc33ed21", "asm": "0014cc80540c41fbdaf3c3b29ca78d274f9fdc33ed21"}, "vout": 1, "txid": "5daeeaa70488ff0fa249317ae54821d10b4c42b5c0664c54315db3328d6ae7ed"}], "txid": "d3064ed943922ab41079ba342e7d2167218931d213411502df16864b3f567ec3", "blocktime": 1537876114, "version": 2, "confirmations": 11462, "time": 1537876114, "locktime": 542999, "vsize": 259, "size": 422}