{"hash": "1fd119051eb52432c8fed647af447862e173adb1be6c138e7fc1d9fe359521ad", "blockhash": "0000000000000000000dcc0f55137456b1a82d3642486a52398922ac4d620174", "vout": [{"scriptPubKey": {"reqSigs": 1, "hex": "76a914160acf5314ab320485ea6f924f149e5b955c094388ac", "addresses": ["131YpJYz2PhsL3exCoW5aaJE9VVPHXbSRf"], "asm": "OP_DUP OP_HASH160 160acf5314ab320485ea6f924f149e5b955c0943 OP_EQUALVERIFY OP_CHECKSIG", "type": "pubkeyhash"}, "value": 0.0002475, "n": 0}, {"scriptPubKey": {"reqSigs": 1, "hex": "a91408c364340a91e77e4376b26fdad3b5aedc5661f787", "addresses": ["32VMQ7Th4qGhbDYY68FZrfSF9hTbsPivgt"], "asm": "OP_HASH160 08c364340a91e77e4376b26fdad3b5aedc5661f7 OP_EQUAL", "type": "scripthash"}, "value": 0.08325915, "n": 1}], "hex": "010000000001019833f465b817065f48ca493c0e4a35e578a8f1ea9d79e6cfd82c831cd74a1032010000002322002027561ef61439ff4994ea3793249bbb358319edb59fff63c1eeada48f299e81b5ffffffff02ae600000000000001976a914160acf5314ab320485ea6f924f149e5b955c094388ac1b0b7f000000000017a91408c364340a91e77e4376b26fdad3b5aedc5661f787040047304402203898641cf0854c1c006182d1473c10aa53e32fd6810cf2133a9c1abef27287430220652e15dc421dd2dc7fd6b555205e64752f34705979ab5c0650fc72a59e4a85fc01483045022100e0c53449fbe588e08f69f8e7da66ba6d67b0d54506fbfe6b43ce5db448b96cea02206641c2ca26fc3a5d938c3a723b9a96d6623fd270e66c6f335dd1b2e6deeb19e10147522102f484437eae67e7d1f9cf7235bd52510c99f379408a1f6fe737011d4bc259358a2103871fc2ca08e6950b38867e8e6a0e94ee625223d3aa0df5c65f414c6d784467e252ae00000000", "vin": [{"txinwitness": ["", "304402203898641cf0854c1c006182d1473c10aa53e32fd6810cf2133a9c1abef27287430220652e15dc421dd2dc7fd6b555205e64752f34705979ab5c0650fc72a59e4a85fc01", "3045022100e0c53449fbe588e08f69f8e7da66ba6d67b0d54506fbfe6b43ce5db448b96cea02206641c2ca26fc3a5d938c3a723b9a96d6623fd270e66c6f335dd1b2e6deeb19e101", "522102f484437eae67e7d1f9cf7235bd52510c99f379408a1f6fe737011d4bc259358a2103871fc2ca08e6950b38867e8e6a0e94ee625223d3aa0df5c65f414c6d784467e252ae"], "sequence": 4294967295, "scriptSig": {"hex": "22002027561ef61439ff4994ea3793249bbb358319edb59fff63c1eeada48f299e81b5", "asm": "002027561ef61439ff4994ea3793249bbb358319edb59fff63c1eeada48f299e81b5"}, "vout": 1, "txid": "32104ad71c832cd8cfe6799deaf1a878e5354a0e3c49ca485f0617b865f43398"}], "txid": "d30c7c22d2f7be47e45f39720abfe073d32e4a42dc90ae6e0eba40d55570d906", "blocktime": 1537870268, "version": 1, "confirmations": 11518, "time": 1537870268, "locktime": 0, "vsize": 208, "size": 373}