{"hash": "d3129d546453cc99bcdaf90179ce684d07ff17a9bde25646ec8ce894b1749dba", "blockhash": "0000000000000000000baef3f32e3676a92c3b2e5da21b426e4f302fc371ce76", "vout": [{"scriptPubKey": {"type": "nulldata", "hex": "6a146f6d6e69000000000000001f0000004a035ce700", "asm": "OP_RETURN 6f6d6e69000000000000001f0000004a035ce700"}, "value": 0.0, "n": 0}, {"scriptPubKey": {"reqSigs": 1, "hex": "76a9140137109d2722a9cee92b7f60aec768b68f650c7188ac", "addresses": ["17ReAkCgxf4eDRJKVyKWwjHzm9R3A8aHH"], "asm": "OP_DUP OP_HASH160 0137109d2722a9cee92b7f60aec768b68f650c71 OP_EQUALVERIFY OP_CHECKSIG", "type": "pubkeyhash"}, "value": 0.05998, "n": 1}, {"scriptPubKey": {"reqSigs": 1, "hex": "a914205d8ad8194260b916c06b21124271088400309687", "addresses": ["34e9c7t35ruDDK8UAPxGKC3QTcqGZkSY23"], "asm": "OP_HASH160 205d8ad8194260b916c06b211242710884003096 OP_EQUAL", "type": "scripthash"}, "value": 5.46e-06, "n": 2}], "hex": "0100000002735e631b4bdc07cb56068a691b038f9f52a7614b06ca6e70e02beff6193c7530010000006b483045022100e16f1c8b9f6794c17574ba9e1ffa2224f524aaa9cf33f1c40605539bd4119adc02206ffca96e05f2a3051e3b6e87f4d76b7206cb068f309b57d4371c4b4d78db067c0121037c5208241f3c47c5ec9a112be41b1025c14de69156b482d22e939ee1f8961c40ffffffff0f7df424fad8894efefb67fdd90c044fad55f98079e74178e49b5472b5e3b4c3000000006b4830450221008ddddb0933300c8fe85884b5da39cbd4607e8e6de639f400d134937415628d5e02203166664e3d66626d64b8883d322df78bfd2ef517e3be152f42f3a3ec19641ab0012102d65b757c0c16eb5b2d9587f521f933a19b7a1bd3b7edbc4c2cf2469fc7538b29ffffffff030000000000000000166a146f6d6e69000000000000001f0000004a035ce700b0855b00000000001976a9140137109d2722a9cee92b7f60aec768b68f650c7188ac220200000000000017a914205d8ad8194260b916c06b2112427108840030968700000000", "vin": [{"sequence": 4294967295, "scriptSig": {"hex": "483045022100e16f1c8b9f6794c17574ba9e1ffa2224f524aaa9cf33f1c40605539bd4119adc02206ffca96e05f2a3051e3b6e87f4d76b7206cb068f309b57d4371c4b4d78db067c0121037c5208241f3c47c5ec9a112be41b1025c14de69156b482d22e939ee1f8961c40", "asm": "3045022100e16f1c8b9f6794c17574ba9e1ffa2224f524aaa9cf33f1c40605539bd4119adc02206ffca96e05f2a3051e3b6e87f4d76b7206cb068f309b57d4371c4b4d78db067c[ALL] 037c5208241f3c47c5ec9a112be41b1025c14de69156b482d22e939ee1f8961c40"}, "vout": 1, "txid": "30753c19f6ef2be0706eca064b61a7529f8f031b698a0656cb07dc4b1b635e73"}, {"sequence": 4294967295, "scriptSig": {"hex": "4830450221008ddddb0933300c8fe85884b5da39cbd4607e8e6de639f400d134937415628d5e02203166664e3d66626d64b8883d322df78bfd2ef517e3be152f42f3a3ec19641ab0012102d65b757c0c16eb5b2d9587f521f933a19b7a1bd3b7edbc4c2cf2469fc7538b29", "asm": "30450221008ddddb0933300c8fe85884b5da39cbd4607e8e6de639f400d134937415628d5e02203166664e3d66626d64b8883d322df78bfd2ef517e3be152f42f3a3ec19641ab0[ALL] 02d65b757c0c16eb5b2d9587f521f933a19b7a1bd3b7edbc4c2cf2469fc7538b29"}, "vout": 0, "txid": "c3b4e3b572549be47841e77980f955ad4f040cd9fd67fbfe4e89d8fa24f47d0f"}], "txid": "d3129d546453cc99bcdaf90179ce684d07ff17a9bde25646ec8ce894b1749dba", "blocktime": 1537876114, "version": 1, "confirmations": 11460, "time": 1537876114, "locktime": 0, "vsize": 403, "size": 403}