{"hash": "d68f9505b416fa0ac45b61a20ee3e0b0903dbc204f4b731a4a613d4d2b44539e", "blockhash": "000000000000000000022b45ed06c6f4ccd3cf7fb5ba4856ebd2e58215665228", "vout": [{"scriptPubKey": {"reqSigs": 1, "hex": "a914ed85cb750f510f2f9570fcc1b097a57756e428eb87", "addresses": ["3PLvMEJLwWJWevyLBYHbMEadaQvwsgum7g"], "asm": "OP_HASH160 ed85cb750f510f2f9570fcc1b097a57756e428eb OP_EQUAL", "type": "scripthash"}, "value": 0.0021, "n": 0}, {"scriptPubKey": {"reqSigs": 1, "hex": "a914627aa52932456d89054bd84f86246af3b71b93a887", "addresses": ["3Afj4stdiLG9EktGrMbm252ySonnhYaz8v"], "asm": "OP_HASH160 627aa52932456d89054bd84f86246af3b71b93a8 OP_EQUAL", "type": "scripthash"}, "value": 0.74953328, "n": 1}], "hex": "010000000001010f965a762110a7daf7a45be1e74696fd4aaadca5991cea05e1c4a6f33860677101000000232200205fdd641234b13964b223bd85ad2a4a667ca2099df3d42a1d3b45706a8d81abf0ffffffff02503403000000000017a914ed85cb750f510f2f9570fcc1b097a57756e428eb8770b277040000000017a914627aa52932456d89054bd84f86246af3b71b93a8870400483045022100bcc812a4af5e45ebf4e6211c085bf192345e28eb165147ebd4aa660407a0cd33022064187454b98a300d4edeef50bfb7748e90374d31ae039e1b8560f8d6535a29940147304402207458c307245e7853e2d4c1d95279127b5c6c8a84b7b5fa7f7b57f5e3de082a53022010aa5252f508dfe92f6b6eade601b78b8f7e84fb30e096697d62e25a570d16c10147522103dcde3832fa56def7b4e783faad1b8af85c3cdd74a5ff4f3c7c216b1075c18da12103c70ae8ded79be1afda73b9ce5ea14a3878908ee160d66a9a717e792bb6db276952ae00000000", "vin": [{"txinwitness": ["", "3045022100bcc812a4af5e45ebf4e6211c085bf192345e28eb165147ebd4aa660407a0cd33022064187454b98a300d4edeef50bfb7748e90374d31ae039e1b8560f8d6535a299401", "304402207458c307245e7853e2d4c1d95279127b5c6c8a84b7b5fa7f7b57f5e3de082a53022010aa5252f508dfe92f6b6eade601b78b8f7e84fb30e096697d62e25a570d16c101", "522103dcde3832fa56def7b4e783faad1b8af85c3cdd74a5ff4f3c7c216b1075c18da12103c70ae8ded79be1afda73b9ce5ea14a3878908ee160d66a9a717e792bb6db276952ae"], "sequence": 4294967295, "scriptSig": {"hex": "2200205fdd641234b13964b223bd85ad2a4a667ca2099df3d42a1d3b45706a8d81abf0", "asm": "00205fdd641234b13964b223bd85ad2a4a667ca2099df3d42a1d3b45706a8d81abf0"}, "vout": 1, "txid": "71676038f3a6c4e105ea1c99a5dcaa4afd9646e7e15ba4f7daa71021765a960f"}], "txid": "d31603b213db6e5403781b13030b9e3b472d5237743b7b10daaca2588dad05c1", "blocktime": 1537869901, "version": 1, "confirmations": 11523, "time": 1537869901, "locktime": 0, "vsize": 206, "size": 371}