{"hash": "d31b878194dd871982b8a18b5bc5f81b19a69afeca21bfedd638ba002cea925c", "blockhash": "0000000000000000000e13cef7c366c0283d82e591d1acd082e914b08063cdf1", "vout": [{"scriptPubKey": {"reqSigs": 1, "hex": "a91469f374bbbdde3f7b7e0e46c0f8ebb0c0fa0c78e387", "addresses": ["3BMEXJd9CPsPU9fu34zk5U7qceooasSUym"], "asm": "OP_HASH160 69f374bbbdde3f7b7e0e46c0f8ebb0c0fa0c78e3 OP_EQUAL", "type": "scripthash"}, "value": 0.00183457, "n": 0}, {"scriptPubKey": {"reqSigs": 1, "hex": "00149937dcd3e10d416d9ab48383f669c01f7cb8aa44", "addresses": ["bc1qnymae5lpp4qkmx45swplv6wqra7t32jy75tru5"], "asm": "0 9937dcd3e10d416d9ab48383f669c01f7cb8aa44", "type": "witness_v0_keyhash"}, "value": 1.245e-05, "n": 1}], "hex": "0100000001e870bbea8bb93979f1564545ccde9aeccdb7d036581128f6581c976f01410a06040400006b483045022100eecb86c1f07f02c057c8cd5a342458478cfeef8f0f4cbd1d3c484b1c79e581c9022069b30730d5ec13f67fde7b013e103f6c8ee1719d017445832ab9e8dba511f98d0121039c55f2d617214d3f0b897752844660674d64642fb65d6ad3fa0ce9f46eb66bdeffffffff02a1cc02000000000017a91469f374bbbdde3f7b7e0e46c0f8ebb0c0fa0c78e387dd040000000000001600149937dcd3e10d416d9ab48383f669c01f7cb8aa4400000000", "vin": [{"sequence": 4294967295, "scriptSig": {"hex": "483045022100eecb86c1f07f02c057c8cd5a342458478cfeef8f0f4cbd1d3c484b1c79e581c9022069b30730d5ec13f67fde7b013e103f6c8ee1719d017445832ab9e8dba511f98d0121039c55f2d617214d3f0b897752844660674d64642fb65d6ad3fa0ce9f46eb66bde", "asm": "3045022100eecb86c1f07f02c057c8cd5a342458478cfeef8f0f4cbd1d3c484b1c79e581c9022069b30730d5ec13f67fde7b013e103f6c8ee1719d017445832ab9e8dba511f98d[ALL] 039c55f2d617214d3f0b897752844660674d64642fb65d6ad3fa0ce9f46eb66bde"}, "vout": 1028, "txid": "060a41016f971c58f628115836d0b7cdec9adecc454556f17939b98beabb70e8"}], "txid": "d31b878194dd871982b8a18b5bc5f81b19a69afeca21bfedd638ba002cea925c", "blocktime": 1537871767, "version": 1, "confirmations": 11495, "time": 1537871767, "locktime": 0, "vsize": 221, "size": 221}