{"hash": "d31e9ea76686d9021092e23351e2587b37a4abf1d0a03acffdb8cca82f17504c", "blockhash": "0000000000000000001f0ddff1eddb255c1121bcd4da4f1bc9a0da00cae72433", "vout": [{"scriptPubKey": {"reqSigs": 1, "hex": "76a914fd7adf4ed82c29b6b7c9844775ac305cf692407888ac", "addresses": ["1Q7H9rJE9Tb5vA68QXDX7HLT7c9PNx2N5J"], "asm": "OP_DUP OP_HASH160 fd7adf4ed82c29b6b7c9844775ac305cf6924078 OP_EQUALVERIFY OP_CHECKSIG", "type": "pubkeyhash"}, "value": 0.003125, "n": 0}, {"scriptPubKey": {"reqSigs": 1, "hex": "76a914b884c53d4137874634138f989f01d8daf1a0f8b188ac", "addresses": ["1HpePML4uKYepjCusptFfAnr1VutVeCPSA"], "asm": "OP_DUP OP_HASH160 b884c53d4137874634138f989f01d8daf1a0f8b1 OP_EQUALVERIFY OP_CHECKSIG", "type": "pubkeyhash"}, "value": 0.67964743, "n": 1}], "hex": "0100000001883538d53093e4d38ce82d31eaa409aa9ba4e7f23361d8ed43768e45717eedd0010000006946304302201516a56eddd0b604fd52887ed77687c4dc98f487dc8b4fcb849e3f4e88c95da4021f626d1353eb120dc3fe6e3e12e39ad086f696f1fdd4e4c918b24ba776b78204012102f78403442eded37605b8479403fb48e236e78597bc22c5402fbbd4057e89b28cffffffff02b4c40400000000001976a914fd7adf4ed82c29b6b7c9844775ac305cf692407888ac470f0d04000000001976a914b884c53d4137874634138f989f01d8daf1a0f8b188ac00000000", "vin": [{"sequence": 4294967295, "scriptSig": {"hex": "46304302201516a56eddd0b604fd52887ed77687c4dc98f487dc8b4fcb849e3f4e88c95da4021f626d1353eb120dc3fe6e3e12e39ad086f696f1fdd4e4c918b24ba776b78204012102f78403442eded37605b8479403fb48e236e78597bc22c5402fbbd4057e89b28c", "asm": "304302201516a56eddd0b604fd52887ed77687c4dc98f487dc8b4fcb849e3f4e88c95da4021f626d1353eb120dc3fe6e3e12e39ad086f696f1fdd4e4c918b24ba776b78204[ALL] 02f78403442eded37605b8479403fb48e236e78597bc22c5402fbbd4057e89b28c"}, "vout": 1, "txid": "d0ed7e71458e7643edd86133f2e7a49baa09a4ea312de88cd3e49330d5383588"}], "txid": "d31e9ea76686d9021092e23351e2587b37a4abf1d0a03acffdb8cca82f17504c", "blocktime": 1537872018, "version": 1, "confirmations": 11489, "time": 1537872018, "locktime": 0, "vsize": 224, "size": 224}