{"hash": "d32157b51694a0a324f846a2d7e5b1b1dfc09567cf99a117b15d214575b1999f", "blockhash": "00000000000000000018f53835495a110e01622372bf6ae95dc86f2b0ab887b0", "vout": [{"scriptPubKey": {"reqSigs": 1, "hex": "76a914e7516089d00df70e8af0bd1b3e55d6aaa8fee53588ac", "addresses": ["1N66aVbeV2cp5h8VMpjy5sYy2Q3o9UrFRz"], "asm": "OP_DUP OP_HASH160 e7516089d00df70e8af0bd1b3e55d6aaa8fee535 OP_EQUALVERIFY OP_CHECKSIG", "type": "pubkeyhash"}, "value": 0.0008014, "n": 0}, {"scriptPubKey": {"type": "nulldata", "hex": "6a4c500000778b0001ff92ec952c90c61a89457c40e3ef3236678a625097bcbefa6b8351586b4ef91c4b25dab5f9ade75bb888c7948e425baa0bed06142d45a2d56b27bc9a9526289ac0f6612cd74e33776ee4", "asm": "OP_RETURN 0000778b0001ff92ec952c90c61a89457c40e3ef3236678a625097bcbefa6b8351586b4ef91c4b25dab5f9ade75bb888c7948e425baa0bed06142d45a2d56b27bc9a9526289ac0f6612cd74e33776ee4"}, "value": 0.0, "n": 1}], "hex": "010000000146b1a794804136611869cdb990d70276c8e167ad13df1eb570fa484aff0d2d8c000000006b48304502210088b52474a0c8145612c504a1817d0db45b64c1950de100ed7e366abe9c72d9cb02206da88ea499848221ad39d323ae73da740ce38c7dc171ab61beb84c02d610f6750121023ed146db3ba657f759e4f4f3c88bddc6d234266726fe1747bfdf0c5a0aa90c1cffffffff020c390100000000001976a914e7516089d00df70e8af0bd1b3e55d6aaa8fee53588ac0000000000000000536a4c500000778b0001ff92ec952c90c61a89457c40e3ef3236678a625097bcbefa6b8351586b4ef91c4b25dab5f9ade75bb888c7948e425baa0bed06142d45a2d56b27bc9a9526289ac0f6612cd74e33776ee400000000", "vin": [{"sequence": 4294967295, "scriptSig": {"hex": "48304502210088b52474a0c8145612c504a1817d0db45b64c1950de100ed7e366abe9c72d9cb02206da88ea499848221ad39d323ae73da740ce38c7dc171ab61beb84c02d610f6750121023ed146db3ba657f759e4f4f3c88bddc6d234266726fe1747bfdf0c5a0aa90c1c", "asm": "304502210088b52474a0c8145612c504a1817d0db45b64c1950de100ed7e366abe9c72d9cb02206da88ea499848221ad39d323ae73da740ce38c7dc171ab61beb84c02d610f675[ALL] 023ed146db3ba657f759e4f4f3c88bddc6d234266726fe1747bfdf0c5a0aa90c1c"}, "vout": 0, "txid": "8c2d0dff4a48fa70b51edf13ad67e1c87602d790b9cd69186136418094a7b146"}], "txid": "d32157b51694a0a324f846a2d7e5b1b1dfc09567cf99a117b15d214575b1999f", "blocktime": 1537870928, "version": 1, "confirmations": 11512, "time": 1537870928, "locktime": 0, "vsize": 284, "size": 284}