{"hash": "d3212a13495661b8dad56418a949bcbe3671425d89c1ac6cb2c71f9fc3b96ab4", "blockhash": "00000000000000000004ffacab907a6b429b9a5745fa0b75af4234bf69dd7176", "vout": [{"scriptPubKey": {"reqSigs": 1, "hex": "a914a91890875b1fcb0521c1fe1020f327a1bc4f8b4987", "addresses": ["3H77YjpJzZJBStFJosiHMm1wm7dhF3hns4"], "asm": "OP_HASH160 a91890875b1fcb0521c1fe1020f327a1bc4f8b49 OP_EQUAL", "type": "scripthash"}, "value": 0.00237711, "n": 0}, {"scriptPubKey": {"reqSigs": 1, "hex": "76a914fa000e797d8247a058fac5a4fe8068a58c73f50388ac", "addresses": ["1PnsztQ4265r54ocqRXkWJm7DjCK8EK8Jf"], "asm": "OP_DUP OP_HASH160 fa000e797d8247a058fac5a4fe8068a58c73f503 OP_EQUALVERIFY OP_CHECKSIG", "type": "pubkeyhash"}, "value": 0.09010208, "n": 1}], "hex": "0100000001729eda97b1b1b522efe27123477ac59c694b1d6ecb03fb9516d625a157b52d09010000006a4730440220490eec0799057194be6aa96db7b94ced47dce45d2b294a941d8e89fa52a8d33f02205bad67bdc5e072e23a8fd9eb1eaf42ee4c710929283afd28f1e7106fe9ac403f01210213adc5165b86f1dda25bb41045517780bf09311c66a4dcc689123b242f5a7048ffffffff028fa003000000000017a914a91890875b1fcb0521c1fe1020f327a1bc4f8b4987207c8900000000001976a914fa000e797d8247a058fac5a4fe8068a58c73f50388ac00000000", "vin": [{"sequence": 4294967295, "scriptSig": {"hex": "4730440220490eec0799057194be6aa96db7b94ced47dce45d2b294a941d8e89fa52a8d33f02205bad67bdc5e072e23a8fd9eb1eaf42ee4c710929283afd28f1e7106fe9ac403f01210213adc5165b86f1dda25bb41045517780bf09311c66a4dcc689123b242f5a7048", "asm": "30440220490eec0799057194be6aa96db7b94ced47dce45d2b294a941d8e89fa52a8d33f02205bad67bdc5e072e23a8fd9eb1eaf42ee4c710929283afd28f1e7106fe9ac403f[ALL] 0213adc5165b86f1dda25bb41045517780bf09311c66a4dcc689123b242f5a7048"}, "vout": 1, "txid": "092db557a125d61695fb03cb6e1d4b699cc57a472371e2ef22b5b1b197da9e72"}], "txid": "d3212a13495661b8dad56418a949bcbe3671425d89c1ac6cb2c71f9fc3b96ab4", "blocktime": 1537875543, "version": 1, "confirmations": 11464, "time": 1537875543, "locktime": 0, "vsize": 223, "size": 223}