{"hash": "d89b8fc979a5c8764d8fd498666bc4b49873f36b1f63c514f166370d13f2d41c", "blockhash": "0000000000000000001f76057863aec43deb6fa401d9628bb513d65a8098bfab", "vout": [{"scriptPubKey": {"reqSigs": 1, "hex": "a9142b06d912aca3a4c1701ec4eab8a71550bca1bada87", "addresses": ["35cXBbWP8mTxpcucAaduh1DMh7PY2K6Uzh"], "asm": "OP_HASH160 2b06d912aca3a4c1701ec4eab8a71550bca1bada OP_EQUAL", "type": "scripthash"}, "value": 0.0173, "n": 0}, {"scriptPubKey": {"reqSigs": 1, "hex": "a914c076ff8ab912d7b32c30861c4b734cc98cd328c387", "addresses": ["3KEgDWsSL7Q7XH2sn2g92sFvUwg2FuMRBr"], "asm": "OP_HASH160 c076ff8ab912d7b32c30861c4b734cc98cd328c3 OP_EQUAL", "type": "scripthash"}, "value": 4.612e-05, "n": 1}], "hex": "010000000001015723920f6229b12c83bab3a3ebb95da9665c6f6192414b6e554995468795c0600100000017160014dbc6fa613b8156d8f00de7b1b526778bdb07a865ffffff0002d0651a000000000017a9142b06d912aca3a4c1701ec4eab8a71550bca1bada87041200000000000017a914c076ff8ab912d7b32c30861c4b734cc98cd328c387024830450221008648607b38f5676c365452dcfa513f807a9f690f8298d5ee5b4652f558bb5a8c0220644ca6f79702395a7b1d7710739ceab7c6ce59f306a069b7833f6bf4d4e5a73d012103174800e3b8d78e5dc559c98c8ea9b3ff43464930358ca0a567459472e9c5282600000000", "vin": [{"txinwitness": ["30450221008648607b38f5676c365452dcfa513f807a9f690f8298d5ee5b4652f558bb5a8c0220644ca6f79702395a7b1d7710739ceab7c6ce59f306a069b7833f6bf4d4e5a73d01", "03174800e3b8d78e5dc559c98c8ea9b3ff43464930358ca0a567459472e9c52826"], "sequence": 16777215, "scriptSig": {"hex": "160014dbc6fa613b8156d8f00de7b1b526778bdb07a865", "asm": "0014dbc6fa613b8156d8f00de7b1b526778bdb07a865"}, "vout": 1, "txid": "60c09587469549556e4b4192616f5c66a95db9eba3b3ba832cb129620f922357"}], "txid": "d322a5afd2d3ddf2f8f544a32be974b8497397e38bfcadd9eb80256439c4ed03", "blocktime": 1537873891, "version": 1, "confirmations": 11478, "time": 1537873891, "locktime": 0, "vsize": 166, "size": 248}