{"hash": "d3230021fb08f44a6bac6fffafd00a1be7d519c585688836c0fba8ad0c32c95f", "blockhash": "00000000000000000024a2167bbff67b0be802c0b01cdd79e6331c2be6459f87", "vout": [{"scriptPubKey": {"reqSigs": 1, "hex": "76a91458f32143a95cd11ee5f37e5d1dff6f9fbafa660b88ac", "addresses": ["197Kir2psnjrTFwx8R9cUnmVCUFeUgCNxS"], "asm": "OP_DUP OP_HASH160 58f32143a95cd11ee5f37e5d1dff6f9fbafa660b OP_EQUALVERIFY OP_CHECKSIG", "type": "pubkeyhash"}, "value": 0.91706533, "n": 0}, {"scriptPubKey": {"type": "nulldata", "hex": "6a146f6d6e69000000000000001f000000013be79500", "asm": "OP_RETURN 6f6d6e69000000000000001f000000013be79500"}, "value": 0.0, "n": 1}, {"scriptPubKey": {"reqSigs": 1, "hex": "76a91451e3659c2941627f2e071858c6e6b3ca0fd91b3c88ac", "addresses": ["18Tz9MTy2ZB1r4gxSz7XgQYCZFywGDYXEB"], "asm": "OP_DUP OP_HASH160 51e3659c2941627f2e071858c6e6b3ca0fd91b3c OP_EQUALVERIFY OP_CHECKSIG", "type": "pubkeyhash"}, "value": 5.46e-06, "n": 2}], "hex": "0100000001dcf0c3ffaec70ec390d578a0ad4d7ad059eb418a1ed789e81be40845266c98e1000000006a473044022074cf0ffbef29fffbfc9ba79981136b191bd306bb2ff92d9a5b56e9fb04be272502203dd3a59bbe650615eac297755d595623b54b75dbee17247eb571fee732767fb501210251e12972b557d5dbac73bfd2470adeac64ac46202389f0ef2db7231f645a0aeafeffffff03a5547705000000001976a91458f32143a95cd11ee5f37e5d1dff6f9fbafa660b88ac0000000000000000166a146f6d6e69000000000000001f000000013be7950022020000000000001976a91451e3659c2941627f2e071858c6e6b3ca0fd91b3c88ac0d490800", "vin": [{"sequence": 4294967294, "scriptSig": {"hex": "473044022074cf0ffbef29fffbfc9ba79981136b191bd306bb2ff92d9a5b56e9fb04be272502203dd3a59bbe650615eac297755d595623b54b75dbee17247eb571fee732767fb501210251e12972b557d5dbac73bfd2470adeac64ac46202389f0ef2db7231f645a0aea", "asm": "3044022074cf0ffbef29fffbfc9ba79981136b191bd306bb2ff92d9a5b56e9fb04be272502203dd3a59bbe650615eac297755d595623b54b75dbee17247eb571fee732767fb5[ALL] 0251e12972b557d5dbac73bfd2470adeac64ac46202389f0ef2db7231f645a0aea"}, "vout": 0, "txid": "e1986c264508e41be889d71e8a41eb59d07a4dada078d590c30ec7aeffc3f0dc"}], "txid": "d3230021fb08f44a6bac6fffafd00a1be7d519c585688836c0fba8ad0c32c95f", "blocktime": 1537870564, "version": 1, "confirmations": 11515, "time": 1537870564, "locktime": 542989, "vsize": 256, "size": 256}