{"hash": "b5da6fa73754220e63e3353e0fc9becfdf1ba62f60c5c83fe18de63712a2c8dc", "blockhash": "0000000000000000000baef3f32e3676a92c3b2e5da21b426e4f302fc371ce76", "vout": [{"scriptPubKey": {"reqSigs": 1, "hex": "a91490e99e8d26d05ead3c05430c292a887bbff695f587", "addresses": ["3EuF6KjJawxTiUsea3Sc8hsLUGmVEf7Xg5"], "asm": "OP_HASH160 90e99e8d26d05ead3c05430c292a887bbff695f5 OP_EQUAL", "type": "scripthash"}, "value": 0.00098973, "n": 0}, {"scriptPubKey": {"type": "nulldata", "hex": "6a146f6d6e69000000000000001f0000000005f5e100", "asm": "OP_RETURN 6f6d6e69000000000000001f0000000005f5e100"}, "value": 0.0, "n": 1}, {"scriptPubKey": {"reqSigs": 1, "hex": "a91490e99e8d26d05ead3c05430c292a887bbff695f587", "addresses": ["3EuF6KjJawxTiUsea3Sc8hsLUGmVEf7Xg5"], "asm": "OP_HASH160 90e99e8d26d05ead3c05430c292a887bbff695f5 OP_EQUAL", "type": "scripthash"}, "value": 5.4e-06, "n": 2}], "hex": "01000000000102cec23ee98277736cf37ca393641b35ad7ca2d31bcc4642b82c69dc9f7120d46a0000000017160014f6e1792e7852ebd5ae795c2a25d579acdfadec2dffffffffcec23ee98277736cf37ca393641b35ad7ca2d31bcc4642b82c69dc9f7120d46a0200000017160014f6e1792e7852ebd5ae795c2a25d579acdfadec2dffffffff039d8201000000000017a91490e99e8d26d05ead3c05430c292a887bbff695f5870000000000000000166a146f6d6e69000000000000001f0000000005f5e1001c0200000000000017a91490e99e8d26d05ead3c05430c292a887bbff695f5870247304402206634eb4943e1180c67da8c2d732370e3c1a1bb1ff1705bb4c5035280ddb52cfb0220202246e345ff51e5afca90dbce58a1ccd502ad8e3b0646f9299933b66ff58a49012103f1cf988013a33e053d1e9bd54c4798c1a6dc362a5b2798b5344049fca40e2db002473044022022b29ccd908b3848db772ea608c18a510bd391c4b62db66557ca2a1872bfa987022060b6c867e9547af1c4d1d835a707d2f6ab85cd90df5e1b57b7548f14fc651937012103f1cf988013a33e053d1e9bd54c4798c1a6dc362a5b2798b5344049fca40e2db000000000", "vin": [{"txinwitness": ["304402206634eb4943e1180c67da8c2d732370e3c1a1bb1ff1705bb4c5035280ddb52cfb0220202246e345ff51e5afca90dbce58a1ccd502ad8e3b0646f9299933b66ff58a4901", "03f1cf988013a33e053d1e9bd54c4798c1a6dc362a5b2798b5344049fca40e2db0"], "sequence": 4294967295, "scriptSig": {"hex": "160014f6e1792e7852ebd5ae795c2a25d579acdfadec2d", "asm": "0014f6e1792e7852ebd5ae795c2a25d579acdfadec2d"}, "vout": 0, "txid": "6ad420719fdc692cb84246cc1bd3a27cad351b6493a37cf36c737782e93ec2ce"}, {"txinwitness": ["3044022022b29ccd908b3848db772ea608c18a510bd391c4b62db66557ca2a1872bfa987022060b6c867e9547af1c4d1d835a707d2f6ab85cd90df5e1b57b7548f14fc65193701", "03f1cf988013a33e053d1e9bd54c4798c1a6dc362a5b2798b5344049fca40e2db0"], "sequence": 4294967295, "scriptSig": {"hex": "160014f6e1792e7852ebd5ae795c2a25d579acdfadec2d", "asm": "0014f6e1792e7852ebd5ae795c2a25d579acdfadec2d"}, "vout": 2, "txid": "6ad420719fdc692cb84246cc1bd3a27cad351b6493a37cf36c737782e93ec2ce"}], "txid": "d329abf28d18b4ee85e5918f76c65ba83f00d648b6c78a65f1709041690145c2", "blocktime": 1537876114, "version": 1, "confirmations": 11460, "time": 1537876114, "locktime": 0, "vsize": 287, "size": 449}