{"hash": "d32a9eee832896d64adf0f7c1f0a2ea5fa5d20467bddbdbe14a545b7ebecfd1c", "blockhash": "00000000000000000024a2167bbff67b0be802c0b01cdd79e6331c2be6459f87", "vout": [{"scriptPubKey": {"type": "nulldata", "hex": "6a4c500000777a00015963e841548c685615ec514fbcbefa6b8351586b4e86aeaeacb577c031fc68e703af81e629c82d1ee2a75426408a5baa09c9061499be96d0575a1d100759d4ba30d2c37bb011d97e02cf", "asm": "OP_RETURN 0000777a00015963e841548c685615ec514fbcbefa6b8351586b4e86aeaeacb577c031fc68e703af81e629c82d1ee2a75426408a5baa09c9061499be96d0575a1d100759d4ba30d2c37bb011d97e02cf"}, "value": 0.0, "n": 0}, {"scriptPubKey": {"reqSigs": 1, "hex": "76a9143ff8736680ff2a0c698da8a8716eabd755a3755488ac", "addresses": ["16qFCkQRdYn4nVukF3wsFrWR8XT7E7ZQiS"], "asm": "OP_DUP OP_HASH160 3ff8736680ff2a0c698da8a8716eabd755a37554 OP_EQUALVERIFY OP_CHECKSIG", "type": "pubkeyhash"}, "value": 0.00646341, "n": 1}], "hex": "01000000019a119eba615a68e95101178b65cd0f281c4147c298c2c487b1987858d734f9a7010000006a4730440220018c07343aeb1a52902f88e30af73b95c91fa859d39c6e069f8e229ecb4dc7420220111efedd238a725380012e52cae3a0826ab6f6ddcbf36bfe8247405b00813156012102fabb803e6126199762cfd911028c026b4db885db7127e1526fc32001c714ab6effffffff020000000000000000536a4c500000777a00015963e841548c685615ec514fbcbefa6b8351586b4e86aeaeacb577c031fc68e703af81e629c82d1ee2a75426408a5baa09c9061499be96d0575a1d100759d4ba30d2c37bb011d97e02cfc5dc0900000000001976a9143ff8736680ff2a0c698da8a8716eabd755a3755488ac00000000", "vin": [{"sequence": 4294967295, "scriptSig": {"hex": "4730440220018c07343aeb1a52902f88e30af73b95c91fa859d39c6e069f8e229ecb4dc7420220111efedd238a725380012e52cae3a0826ab6f6ddcbf36bfe8247405b00813156012102fabb803e6126199762cfd911028c026b4db885db7127e1526fc32001c714ab6e", "asm": "30440220018c07343aeb1a52902f88e30af73b95c91fa859d39c6e069f8e229ecb4dc7420220111efedd238a725380012e52cae3a0826ab6f6ddcbf36bfe8247405b00813156[ALL] 02fabb803e6126199762cfd911028c026b4db885db7127e1526fc32001c714ab6e"}, "vout": 1, "txid": "a7f934d7587898b187c4c298c247411c280fcd658b170151e9685a61ba9e119a"}], "txid": "d32a9eee832896d64adf0f7c1f0a2ea5fa5d20467bddbdbe14a545b7ebecfd1c", "blocktime": 1537870564, "version": 1, "confirmations": 11515, "time": 1537870564, "locktime": 0, "vsize": 283, "size": 283}