{"hash": "d32a29b5d5ac661eaa91e5e94d53914b66409197567bea8d2a3999817f8da4eb", "blockhash": "000000000000000000022b45ed06c6f4ccd3cf7fb5ba4856ebd2e58215665228", "vout": [{"scriptPubKey": {"reqSigs": 1, "hex": "76a914586d10619cb3cabc67dc5be94d6077c307b4c20f88ac", "addresses": ["194Z7nEdNCkWxUDj6Civt5EzH57xUERZCv"], "asm": "OP_DUP OP_HASH160 586d10619cb3cabc67dc5be94d6077c307b4c20f OP_EQUALVERIFY OP_CHECKSIG", "type": "pubkeyhash"}, "value": 0.00041622, "n": 0}, {"scriptPubKey": {"reqSigs": 1, "hex": "a914e41c7740f57a3a765bfe21066fa013f2503dd7c487", "addresses": ["3NVA682aVtJvjt2RwmYnVXMLxVNMQu6r4K"], "asm": "OP_HASH160 e41c7740f57a3a765bfe21066fa013f2503dd7c4 OP_EQUAL", "type": "scripthash"}, "value": 0.00781, "n": 1}], "hex": "0100000001382c6e54334454a6307db9121507c113444006dabca24ade3fddac29a9a9ed2b000000006a473044022075bdb30704280d7e7d92e75bfd1fc949d5a2e99ac7ac50b7da7936d39f20a5d3022004962129b01217022fb790720711bd7b654bf1276fdd0947ce681f274005761301210269fee35ccc661b6ef30df3a5b0179588cafa462921f0b8504f1cc1d6c2a8983affffffff0296a20000000000001976a914586d10619cb3cabc67dc5be94d6077c307b4c20f88acc8ea0b000000000017a914e41c7740f57a3a765bfe21066fa013f2503dd7c48700000000", "vin": [{"sequence": 4294967295, "scriptSig": {"hex": "473044022075bdb30704280d7e7d92e75bfd1fc949d5a2e99ac7ac50b7da7936d39f20a5d3022004962129b01217022fb790720711bd7b654bf1276fdd0947ce681f274005761301210269fee35ccc661b6ef30df3a5b0179588cafa462921f0b8504f1cc1d6c2a8983a", "asm": "3044022075bdb30704280d7e7d92e75bfd1fc949d5a2e99ac7ac50b7da7936d39f20a5d3022004962129b01217022fb790720711bd7b654bf1276fdd0947ce681f2740057613[ALL] 0269fee35ccc661b6ef30df3a5b0179588cafa462921f0b8504f1cc1d6c2a8983a"}, "vout": 0, "txid": "2beda9a929acdd3fde4aa2bcda06404413c1071512b97d30a6544433546e2c38"}], "txid": "d32a29b5d5ac661eaa91e5e94d53914b66409197567bea8d2a3999817f8da4eb", "blocktime": 1537869901, "version": 1, "confirmations": 11523, "time": 1537869901, "locktime": 0, "vsize": 223, "size": 223}