{"hash": "4346dee088ef6357deb8f128ac299dd9646508db933db8b45de5fa35f470efcb", "blockhash": "0000000000000000000baef3f32e3676a92c3b2e5da21b426e4f302fc371ce76", "vout": [{"scriptPubKey": {"reqSigs": 1, "hex": "a914c8948f84ab8bc2187580e4fb86ecf2a0a06e11cf87", "addresses": ["3Kyb35jwJ7YCiAF7JRfW5VZdpyywKap5YB"], "asm": "OP_HASH160 c8948f84ab8bc2187580e4fb86ecf2a0a06e11cf OP_EQUAL", "type": "scripthash"}, "value": 1.942e-05, "n": 0}, {"scriptPubKey": {"reqSigs": 1, "hex": "a9145fd6ccf3fa4f5e40b590aac3f24664f0653a71dc87", "addresses": ["3ARmSNhAYCtKywjSMAxYdagMtKiGcdVuY2"], "asm": "OP_HASH160 5fd6ccf3fa4f5e40b590aac3f24664f0653a71dc OP_EQUAL", "type": "scripthash"}, "value": 0.00056353, "n": 1}], "hex": "01000000000101a32a60180ad257e4d4c3ca09773102392bc075f8cdf77169f7d7c9ab692d091501000000232200206594052309991fbaf27880f6c24f3eaa8cdd7edacf1bc50579894b9e3fe7faccffffffff02960700000000000017a914c8948f84ab8bc2187580e4fb86ecf2a0a06e11cf8721dc00000000000017a9145fd6ccf3fa4f5e40b590aac3f24664f0653a71dc870400483045022100bc19bf771c4a6a06d8bcf0f10236e026d141686790b45e70ff2634d7072bbfa6022059d83cf36b911770ba2bed41487981f82abe3919c09fa92190956f1cc743ba1801483045022100e76563ccaecf0fe70e0c064ec13ed6099042e5dfa5f261c493bb2a7435ace40b022065847961624f5466361ef57a733a139723261645e942a4708818123267deb0250147522102762a59cc11c9e209028b4fdb72709e323a3db710158b03d150a252f3d53009582103148c80a5bdfddb05ff5bcffc397c8ca748d8b435ec6a175bc9d7bfc7fc6f853752ae00000000", "vin": [{"txinwitness": ["", "3045022100bc19bf771c4a6a06d8bcf0f10236e026d141686790b45e70ff2634d7072bbfa6022059d83cf36b911770ba2bed41487981f82abe3919c09fa92190956f1cc743ba1801", "3045022100e76563ccaecf0fe70e0c064ec13ed6099042e5dfa5f261c493bb2a7435ace40b022065847961624f5466361ef57a733a139723261645e942a4708818123267deb02501", "522102762a59cc11c9e209028b4fdb72709e323a3db710158b03d150a252f3d53009582103148c80a5bdfddb05ff5bcffc397c8ca748d8b435ec6a175bc9d7bfc7fc6f853752ae"], "sequence": 4294967295, "scriptSig": {"hex": "2200206594052309991fbaf27880f6c24f3eaa8cdd7edacf1bc50579894b9e3fe7facc", "asm": "00206594052309991fbaf27880f6c24f3eaa8cdd7edacf1bc50579894b9e3fe7facc"}, "vout": 1, "txid": "15092d69abc9d7f76971f7cdf875c02b3902317709cac3d4e457d20a18602aa3"}], "txid": "d32b1711765bcf42214c24acfca92ff2d6facb510712f363669c4a57f078ae02", "blocktime": 1537876114, "version": 1, "confirmations": 11460, "time": 1537876114, "locktime": 0, "vsize": 206, "size": 372}