{"hash": "f9aea9e7e4073d3037d304bc6eff1735e2cc15520cd176f253e4f7b0fc9aa489", "blockhash": "0000000000000000000e13cef7c366c0283d82e591d1acd082e914b08063cdf1", "vout": [{"scriptPubKey": {"reqSigs": 1, "hex": "76a9140adbf1a0d88071bf4d3a56a908efe9cbb52cf0af88ac", "addresses": ["1zREtNKKwpJHSiEiGGyatoTbDShcqAeCK"], "asm": "OP_DUP OP_HASH160 0adbf1a0d88071bf4d3a56a908efe9cbb52cf0af OP_EQUALVERIFY OP_CHECKSIG", "type": "pubkeyhash"}, "value": 1e-05, "n": 0}, {"scriptPubKey": {"reqSigs": 1, "hex": "0014ec966c412f9d3d37dde3193b3c1856da35e61900", "addresses": ["bc1qajtxcsf0n57n0h0rryancxzkmg67vxgq69ze4f"], "asm": "0 ec966c412f9d3d37dde3193b3c1856da35e61900", "type": "witness_v0_keyhash"}, "value": 0.01231957, "n": 1}], "hex": "02000000000101efa7226126ff3203abde315280029b7e1410aed903f16b619593b7d004a7d8af0100000000feffffff02e8030000000000001976a9140adbf1a0d88071bf4d3a56a908efe9cbb52cf0af88ac55cc120000000000160014ec966c412f9d3d37dde3193b3c1856da35e6190002483045022100a4f7622e682d3344d6622b108e44ded6b1553374aad34d38b4da5bcd588adcc20220077bce26b924c277274bb108841cf5b609a194571170a7b1e1bff66e0f8ffeb40121035f48ded15ae441da342b1453e2ca8b314ad7afd1045e3af79ad9cd5e0e069599f6480800", "vin": [{"txinwitness": ["3045022100a4f7622e682d3344d6622b108e44ded6b1553374aad34d38b4da5bcd588adcc20220077bce26b924c277274bb108841cf5b609a194571170a7b1e1bff66e0f8ffeb401", "035f48ded15ae441da342b1453e2ca8b314ad7afd1045e3af79ad9cd5e0e069599"], "sequence": 4294967294, "scriptSig": {"hex": "", "asm": ""}, "vout": 1, "txid": "afd8a704d0b79395616bf103d9ae10147e9b02805231deab0332ff266122a7ef"}], "txid": "d32b60eb0a5b001836c75da3a23891343200071a880e579fd03daf3e5f592e8d", "blocktime": 1537871767, "version": 2, "confirmations": 11495, "time": 1537871767, "locktime": 542966, "vsize": 144, "size": 226}