{"hash": "f18f783ea4fbb9ae44e98e220fa79190c1eb00ebd2da74f210a18ff49045e3b8", "blockhash": "0000000000000000000dcc0f55137456b1a82d3642486a52398922ac4d620174", "vout": [{"scriptPubKey": {"reqSigs": 1, "hex": "a9140c3f02816311848b149ea16dcef376a663ce538987", "addresses": ["32omWqpH1ArepxMPGHf91z9Aber7T53Dwv"], "asm": "OP_HASH160 0c3f02816311848b149ea16dcef376a663ce5389 OP_EQUAL", "type": "scripthash"}, "value": 0.00063, "n": 0}, {"scriptPubKey": {"reqSigs": 1, "hex": "a914627aa52932456d89054bd84f86246af3b71b93a887", "addresses": ["3Afj4stdiLG9EktGrMbm252ySonnhYaz8v"], "asm": "OP_HASH160 627aa52932456d89054bd84f86246af3b71b93a8 OP_EQUAL", "type": "scripthash"}, "value": 0.6057084, "n": 1}], "hex": "0100000000010167c2de90b8bc72cef54486c6105b5930fb7a04ef87d72721ae6e22acc78bb06b01000000232200205fdd641234b13964b223bd85ad2a4a667ca2099df3d42a1d3b45706a8d81abf0ffffffff0218f600000000000017a9140c3f02816311848b149ea16dcef376a663ce538987d83c9c030000000017a914627aa52932456d89054bd84f86246af3b71b93a887040047304402205791a0bcf01968f06342b7a9e82cfb313b1d279bc508d6a521bc55f45551c60602202e735eded6f7bda6383fdcbb37fdb9d9ed4c3a99f3b471033706a4f30792cf3401483045022100f5e6d2440b1ff27c8e919b153559d7b70f392b6afa2e316f6e298fb9a3d260a7022049f50e50927b2f9a119e4f3174f9a5430337c767d8efe5d0aae905cc443c12f80147522103dcde3832fa56def7b4e783faad1b8af85c3cdd74a5ff4f3c7c216b1075c18da12103c70ae8ded79be1afda73b9ce5ea14a3878908ee160d66a9a717e792bb6db276952ae00000000", "vin": [{"txinwitness": ["", "304402205791a0bcf01968f06342b7a9e82cfb313b1d279bc508d6a521bc55f45551c60602202e735eded6f7bda6383fdcbb37fdb9d9ed4c3a99f3b471033706a4f30792cf3401", "3045022100f5e6d2440b1ff27c8e919b153559d7b70f392b6afa2e316f6e298fb9a3d260a7022049f50e50927b2f9a119e4f3174f9a5430337c767d8efe5d0aae905cc443c12f801", "522103dcde3832fa56def7b4e783faad1b8af85c3cdd74a5ff4f3c7c216b1075c18da12103c70ae8ded79be1afda73b9ce5ea14a3878908ee160d66a9a717e792bb6db276952ae"], "sequence": 4294967295, "scriptSig": {"hex": "2200205fdd641234b13964b223bd85ad2a4a667ca2099df3d42a1d3b45706a8d81abf0", "asm": "00205fdd641234b13964b223bd85ad2a4a667ca2099df3d42a1d3b45706a8d81abf0"}, "vout": 1, "txid": "6bb08bc7ac226eae2127d787ef047afb30595b10c68644f5ce72bcb890dec267"}], "txid": "d32dfff81b496eae5d7c3e376b3725eb8fecae804c74855e1a43529bbf0698fe", "blocktime": 1537870268, "version": 1, "confirmations": 11518, "time": 1537870268, "locktime": 0, "vsize": 206, "size": 371}