{"hash": "5a7ffcb2827d66046bf7ac2fe2a5d33d9d9ea58cf66e282275d82cd167963d90", "blockhash": "0000000000000000001cda96e906b7601b7a6fb1a3b62bca570a9e5d8f4b3de1", "vout": [{"scriptPubKey": {"reqSigs": 1, "hex": "00144c10555631533aa0da770a1d6975dd59719ed8fb", "addresses": ["bc1qfsg924332va2pknhpgwkjawat9ceak8md3tcus"], "asm": "0 4c10555631533aa0da770a1d6975dd59719ed8fb", "type": "witness_v0_keyhash"}, "value": 0.0025456, "n": 0}, {"scriptPubKey": {"reqSigs": 1, "hex": "76a9148d400b87133eb820ba75908719ad5d29d001e9f388ac", "addresses": ["1DsrzyY9CKJsCj72qK8SJ8obuYzqt8sNJC"], "asm": "OP_DUP OP_HASH160 8d400b87133eb820ba75908719ad5d29d001e9f3 OP_EQUALVERIFY OP_CHECKSIG", "type": "pubkeyhash"}, "value": 0.01619788, "n": 1}], "hex": "01000000000101579af58314727229fdd37d7918dffef8c6892ade50e7c7b1bb11caccbed6e2550100000017160014f00cb247df669a13c48ed9998d92fb5099e603f7ffffffff0260e20300000000001600144c10555631533aa0da770a1d6975dd59719ed8fb4cb71800000000001976a9148d400b87133eb820ba75908719ad5d29d001e9f388ac0247304402203ef7194ae97c5f751cec1eac7ac473e1f3383c2eb9dea1694c57ce5def86aed602203d7f9e6468b7e658feeaa5ff3ce8cb106f6b920df61b19cf33145fedbb92996d0121025f1a6f6fae187227136d2e0a40f346824ae6ea2bd95fe7896fc9da7199a6bdcb00000000", "vin": [{"txinwitness": ["304402203ef7194ae97c5f751cec1eac7ac473e1f3383c2eb9dea1694c57ce5def86aed602203d7f9e6468b7e658feeaa5ff3ce8cb106f6b920df61b19cf33145fedbb92996d01", "025f1a6f6fae187227136d2e0a40f346824ae6ea2bd95fe7896fc9da7199a6bdcb"], "sequence": 4294967295, "scriptSig": {"hex": "160014f00cb247df669a13c48ed9998d92fb5099e603f7", "asm": "0014f00cb247df669a13c48ed9998d92fb5099e603f7"}, "vout": 1, "txid": "55e2d6beccca11bbb1c7e750de2a89c6f8fedf18797dd3fd2972721483f59a57"}], "txid": "d342fd6a41651248c4eec944ca707bbd67fd4f1948eff2f830adc8502cc69d07", "blocktime": 1537873282, "version": 1, "confirmations": 11484, "time": 1537873282, "locktime": 0, "vsize": 167, "size": 248}