{"hash": "d34c04929fcc825aae1c05184e047fb225cb9455f11dc5f6b2ee7ac7be59a52e", "blockhash": "0000000000000000001e0dab787dd257d1dbfcb92a98c2207d5e1078be1f4165", "vout": [{"scriptPubKey": {"reqSigs": 1, "hex": "76a91434f470621bbd34c664a6204f9cfa2b8ac5b95c7188ac", "addresses": ["15pzxtsuU4yFkHoB38c9ZK7BXeVfwV9TRL"], "asm": "OP_DUP OP_HASH160 34f470621bbd34c664a6204f9cfa2b8ac5b95c71 OP_EQUALVERIFY OP_CHECKSIG", "type": "pubkeyhash"}, "value": 0.00640375, "n": 0}, {"scriptPubKey": {"type": "nulldata", "hex": "6a4c50000077b700016c4a6e389b27c0f7b2c81bf3e5bf9ae76da98a211aaf6c953dd567cf27e746aadbe921a799d6b34dd41139cf4efb5baa11e40612621fe311414e1d100759d4ba30d2c37bb011d97e02cf", "asm": "OP_RETURN 000077b700016c4a6e389b27c0f7b2c81bf3e5bf9ae76da98a211aaf6c953dd567cf27e746aadbe921a799d6b34dd41139cf4efb5baa11e40612621fe311414e1d100759d4ba30d2c37bb011d97e02cf"}, "value": 0.0, "n": 1}], "hex": "0100000001f0cdb0b13cd0bd9672822dd594d105c944c51fd50f60caf9d67068225a893c0c000000006b483045022100ac449f8aa7a705f67b59860f6724fa61b61ae669d28482972a3cfac6643a844f022072c9afc3dee0b12afbc94ced776ef87d34538932ef6d6f3e3a4af4ee74f98b55012103bbc0ed62a19f27b2c5f8071d9c211d10d5f304e783ded5414369815cb4231b99ffffffff0277c50900000000001976a91434f470621bbd34c664a6204f9cfa2b8ac5b95c7188ac0000000000000000536a4c50000077b700016c4a6e389b27c0f7b2c81bf3e5bf9ae76da98a211aaf6c953dd567cf27e746aadbe921a799d6b34dd41139cf4efb5baa11e40612621fe311414e1d100759d4ba30d2c37bb011d97e02cf00000000", "vin": [{"sequence": 4294967295, "scriptSig": {"hex": "483045022100ac449f8aa7a705f67b59860f6724fa61b61ae669d28482972a3cfac6643a844f022072c9afc3dee0b12afbc94ced776ef87d34538932ef6d6f3e3a4af4ee74f98b55012103bbc0ed62a19f27b2c5f8071d9c211d10d5f304e783ded5414369815cb4231b99", "asm": "3045022100ac449f8aa7a705f67b59860f6724fa61b61ae669d28482972a3cfac6643a844f022072c9afc3dee0b12afbc94ced776ef87d34538932ef6d6f3e3a4af4ee74f98b55[ALL] 03bbc0ed62a19f27b2c5f8071d9c211d10d5f304e783ded5414369815cb4231b99"}, "vout": 0, "txid": "0c3c895a226870d6f9ca600fd51fc544c905d194d52d827296bdd03cb1b0cdf0"}], "txid": "d34c04929fcc825aae1c05184e047fb225cb9455f11dc5f6b2ee7ac7be59a52e", "blocktime": 1537872475, "version": 1, "confirmations": 11486, "time": 1537872475, "locktime": 0, "vsize": 284, "size": 284}