{"hash": "d34e6bd1aadfa75aa96c8e81bd2d9ebc0f215fc48dcaf26e2c5c2e577fa24402", "blockhash": "000000000000000000022b45ed06c6f4ccd3cf7fb5ba4856ebd2e58215665228", "vout": [{"scriptPubKey": {"reqSigs": 1, "hex": "a914f924d36b4cf3fd9f034460081999360ff15c214587", "addresses": ["3QQNJ1pFSxYQVQ6Yxv35nzDQ52pj1PkSMx"], "asm": "OP_HASH160 f924d36b4cf3fd9f034460081999360ff15c2145 OP_EQUAL", "type": "scripthash"}, "value": 0.00429848, "n": 0}], "hex": "0100000001e962af83ac2eb7caf0dd1b388c62500d37a534574d3d2c8a62e3b3d3ca34e679010000006a47304402200b48f115bd537bebc8f8fea595ec8595b92df6d6ca7e21d8dc7fade2101913f20220164a6ed910c239b82d8ed6a47db9cfede9a20f623fa4b7b0522f63afc1a2db0e01210225b462f538b4a2158766d6ae17bc997e068aaa3adbfb34268bfa0bef392d2c5effffffff01188f06000000000017a914f924d36b4cf3fd9f034460081999360ff15c21458700000000", "vin": [{"sequence": 4294967295, "scriptSig": {"hex": "47304402200b48f115bd537bebc8f8fea595ec8595b92df6d6ca7e21d8dc7fade2101913f20220164a6ed910c239b82d8ed6a47db9cfede9a20f623fa4b7b0522f63afc1a2db0e01210225b462f538b4a2158766d6ae17bc997e068aaa3adbfb34268bfa0bef392d2c5e", "asm": "304402200b48f115bd537bebc8f8fea595ec8595b92df6d6ca7e21d8dc7fade2101913f20220164a6ed910c239b82d8ed6a47db9cfede9a20f623fa4b7b0522f63afc1a2db0e[ALL] 0225b462f538b4a2158766d6ae17bc997e068aaa3adbfb34268bfa0bef392d2c5e"}, "vout": 1, "txid": "79e634cad3b3e3628a2c3d4d5734a5370d50628c381bddf0cab72eac83af62e9"}], "txid": "d34e6bd1aadfa75aa96c8e81bd2d9ebc0f215fc48dcaf26e2c5c2e577fa24402", "blocktime": 1537869901, "version": 1, "confirmations": 11522, "time": 1537869901, "locktime": 0, "vsize": 189, "size": 189}