{"hash": "d350ddd96cda4364ad4f4fe5bd27b504ab888ab900f4c86f9de818a517266bbc", "blockhash": "0000000000000000001f76057863aec43deb6fa401d9628bb513d65a8098bfab", "vout": [{"scriptPubKey": {"reqSigs": 1, "hex": "76a914b6a28b3357072e3b070bdf7f5df133ea9e229ab788ac", "addresses": ["1Heghem4EYsMVmjF7WowtxfqAAJnuGCSks"], "asm": "OP_DUP OP_HASH160 b6a28b3357072e3b070bdf7f5df133ea9e229ab7 OP_EQUALVERIFY OP_CHECKSIG", "type": "pubkeyhash"}, "value": 0.0066134, "n": 0}, {"scriptPubKey": {"reqSigs": 1, "hex": "76a9142c7c156af0dac110f962a3f372aa8dff3a1c3a9188ac", "addresses": ["154DNvdKpPBV2kVh8VjvQauHw3d3YM5psE"], "asm": "OP_DUP OP_HASH160 2c7c156af0dac110f962a3f372aa8dff3a1c3a91 OP_EQUALVERIFY OP_CHECKSIG", "type": "pubkeyhash"}, "value": 0.406, "n": 1}], "hex": "01000000013a706b013152e402e47c8bee14d0afebeedc0b558da1f6e7146f5c40e90e1a71000000006b483045022100ee0e42e518f4e24bf012a3348e160d0e7902cbb70b3283bad67c0a7cd9addcb202205ba68a0de6f5fd8e6ffc1f14cfad5b98a4bc8e0ef1d1b01ec837b92d7599a5540121031bc80296677ede27ba920ef18903b05575fa597d7a6abc05fb443b6a659ac11cffffffff025c170a00000000001976a914b6a28b3357072e3b070bdf7f5df133ea9e229ab788acc0816b02000000001976a9142c7c156af0dac110f962a3f372aa8dff3a1c3a9188ac00000000", "vin": [{"sequence": 4294967295, "scriptSig": {"hex": "483045022100ee0e42e518f4e24bf012a3348e160d0e7902cbb70b3283bad67c0a7cd9addcb202205ba68a0de6f5fd8e6ffc1f14cfad5b98a4bc8e0ef1d1b01ec837b92d7599a5540121031bc80296677ede27ba920ef18903b05575fa597d7a6abc05fb443b6a659ac11c", "asm": "3045022100ee0e42e518f4e24bf012a3348e160d0e7902cbb70b3283bad67c0a7cd9addcb202205ba68a0de6f5fd8e6ffc1f14cfad5b98a4bc8e0ef1d1b01ec837b92d7599a554[ALL] 031bc80296677ede27ba920ef18903b05575fa597d7a6abc05fb443b6a659ac11c"}, "vout": 0, "txid": "711a0ee9405c6f14e7f6a18d550bdceeebafd014ee8b7ce402e45231016b703a"}], "txid": "d350ddd96cda4364ad4f4fe5bd27b504ab888ab900f4c86f9de818a517266bbc", "blocktime": 1537873891, "version": 1, "confirmations": 11478, "time": 1537873891, "locktime": 0, "vsize": 226, "size": 226}