{"hash": "d3512454d0584ba012e73797959f538b751c45388c375c5b5e62963a8aaf885e", "blockhash": "0000000000000000001f76057863aec43deb6fa401d9628bb513d65a8098bfab", "vout": [{"scriptPubKey": {"type": "nulldata", "hex": "6a4c50000077df0001cee0ca792d4372e1e5bab9477af8e8e963c7cfd5b95b23cc0f42c2fc38c56c56a870d38cbba081e492a10e12ce2e5baa169606127773b48f52d61d100759d4ba30d2c37bb011d97e02cf", "asm": "OP_RETURN 000077df0001cee0ca792d4372e1e5bab9477af8e8e963c7cfd5b95b23cc0f42c2fc38c56c56a870d38cbba081e492a10e12ce2e5baa169606127773b48f52d61d100759d4ba30d2c37bb011d97e02cf"}, "value": 0.0, "n": 0}, {"scriptPubKey": {"reqSigs": 1, "hex": "76a9149b3e2890cf2184c823c04004f63392036b26354d88ac", "addresses": ["1F9rCabSWsperGBxiX5hme7b2cKKe3nVdq"], "asm": "OP_DUP OP_HASH160 9b3e2890cf2184c823c04004f63392036b26354d OP_EQUALVERIFY OP_CHECKSIG", "type": "pubkeyhash"}, "value": 0.0063882, "n": 1}], "hex": "01000000011f360639924d2915b5ec911972214ce6c8b876aabfc1c7b974623ee941986b7a000000006a47304402202cccae4ec0e3d421f516093dd2e2eca7c06f2bb2ee0d2b58b6e92c398385f79f02205faad62b564f4b3256746671bd9941a8a81efec691355390ce8ed53dcaaf340d012102f0118b9f1851249b467ccacd2daba5228394ea4b09173c246340d8229de767ccffffffff020000000000000000536a4c50000077df0001cee0ca792d4372e1e5bab9477af8e8e963c7cfd5b95b23cc0f42c2fc38c56c56a870d38cbba081e492a10e12ce2e5baa169606127773b48f52d61d100759d4ba30d2c37bb011d97e02cf64bf0900000000001976a9149b3e2890cf2184c823c04004f63392036b26354d88ac00000000", "vin": [{"sequence": 4294967295, "scriptSig": {"hex": "47304402202cccae4ec0e3d421f516093dd2e2eca7c06f2bb2ee0d2b58b6e92c398385f79f02205faad62b564f4b3256746671bd9941a8a81efec691355390ce8ed53dcaaf340d012102f0118b9f1851249b467ccacd2daba5228394ea4b09173c246340d8229de767cc", "asm": "304402202cccae4ec0e3d421f516093dd2e2eca7c06f2bb2ee0d2b58b6e92c398385f79f02205faad62b564f4b3256746671bd9941a8a81efec691355390ce8ed53dcaaf340d[ALL] 02f0118b9f1851249b467ccacd2daba5228394ea4b09173c246340d8229de767cc"}, "vout": 0, "txid": "7a6b9841e93e6274b9c7c1bfaa76b8c8e64c21721991ecb515294d923906361f"}], "txid": "d3512454d0584ba012e73797959f538b751c45388c375c5b5e62963a8aaf885e", "blocktime": 1537873891, "version": 1, "confirmations": 11478, "time": 1537873891, "locktime": 0, "vsize": 283, "size": 283}