{"hash": "d6a7bc7477cc9912d529b595a22fc113cb6864ddc40e51d25d26a38797eded90", "blockhash": "0000000000000000001f76057863aec43deb6fa401d9628bb513d65a8098bfab", "vout": [{"scriptPubKey": {"reqSigs": 1, "hex": "76a9146af4487619239d3ab92b01156e52acd98bfb5cea88ac", "addresses": ["1AkXGRFHF2yymEwoiPFaiBhKSwWQqEFnXt"], "asm": "OP_DUP OP_HASH160 6af4487619239d3ab92b01156e52acd98bfb5cea OP_EQUALVERIFY OP_CHECKSIG", "type": "pubkeyhash"}, "value": 0.0018256, "n": 0}, {"scriptPubKey": {"reqSigs": 1, "hex": "a91490330065fab3f8fc88197e391e443dde9f280b7987", "addresses": ["3EqUKpNaNL3iYPBZKuqcKuu3dj6TvJWin6"], "asm": "OP_HASH160 90330065fab3f8fc88197e391e443dde9f280b79 OP_EQUAL", "type": "scripthash"}, "value": 0.01072994, "n": 1}], "hex": "020000000001024fd4c70fcb4c98eb883c544a968ace3af0920dca8ae6f24a629aaf827c3558210100000017160014401a011aa3db793fb06b81ff9cb5f259209dca7afeffffff74f1ce284c967a8dde80412c3f5326492c1ac848c08e0fef67d13b70a661118d000000001716001428121cf277d42ca8f72bd0d95f0cc324b223e623feffffff0220c90200000000001976a9146af4487619239d3ab92b01156e52acd98bfb5cea88ac625f10000000000017a91490330065fab3f8fc88197e391e443dde9f280b798702473044022048c60f37c200db771b29fcd4a788e0643a310dd484514ea54dfd5b5d49e3f6200220105a7c5c99225f7312febd272dce5a1699151334d6201e1b866df0f757ff93030121024c90c3b4a841ee6564fd5877395ea196bb13dc8009c0ca0b2423f3177f3abc0e0247304402203bc8c0323946509da570fac4c61537f5d7214240fb8ab9aa802f7074ad01c71402200a716b31fc740cffe39f2cab1766cb1cdd952d4b1eb4e757ad774d7abe9123760121035074f9d68a4a41b89af2f9fab92293327b0be98015dea161c921ae96d7e632c014490800", "vin": [{"txinwitness": ["3044022048c60f37c200db771b29fcd4a788e0643a310dd484514ea54dfd5b5d49e3f6200220105a7c5c99225f7312febd272dce5a1699151334d6201e1b866df0f757ff930301", "024c90c3b4a841ee6564fd5877395ea196bb13dc8009c0ca0b2423f3177f3abc0e"], "sequence": 4294967294, "scriptSig": {"hex": "160014401a011aa3db793fb06b81ff9cb5f259209dca7a", "asm": "0014401a011aa3db793fb06b81ff9cb5f259209dca7a"}, "vout": 1, "txid": "2158357c82af9a624af2e68aca0d92f03ace8a964a543c88eb984ccb0fc7d44f"}, {"txinwitness": ["304402203bc8c0323946509da570fac4c61537f5d7214240fb8ab9aa802f7074ad01c71402200a716b31fc740cffe39f2cab1766cb1cdd952d4b1eb4e757ad774d7abe91237601", "035074f9d68a4a41b89af2f9fab92293327b0be98015dea161c921ae96d7e632c0"], "sequence": 4294967294, "scriptSig": {"hex": "16001428121cf277d42ca8f72bd0d95f0cc324b223e623", "asm": "001428121cf277d42ca8f72bd0d95f0cc324b223e623"}, "vout": 0, "txid": "8d1161a6703bd167ef0f8ec048c81a2c4926533f2c4180de8d7a964c28cef174"}], "txid": "d35a49c166c8ed75bd137b573cf5bd3a4189f81d57e78b86377060b8ec04cd28", "blocktime": 1537873891, "version": 2, "confirmations": 11478, "time": 1537873891, "locktime": 542996, "vsize": 258, "size": 420}