{"hash": "d35b6b9d89aa50b22fed5e7a09e7ba7897121d5d7c47f70e1982206e625c0b4b", "blockhash": "0000000000000000000e13cef7c366c0283d82e591d1acd082e914b08063cdf1", "vout": [{"scriptPubKey": {"reqSigs": 1, "hex": "76a914d243e6abb9a60fbff430b421d2df4b7d59ec186088ac", "addresses": ["1LAnF8h3qMGx3TSwNUHVneBZUEpwE4gu3D"], "asm": "OP_DUP OP_HASH160 d243e6abb9a60fbff430b421d2df4b7d59ec1860 OP_EQUALVERIFY OP_CHECKSIG", "type": "pubkeyhash"}, "value": 0.00076972, "n": 0}, {"scriptPubKey": {"reqSigs": 1, "hex": "76a9143851f34d13937b673a7d24a1950bb5b21ce94af388ac", "addresses": ["168o1kqNquEJeR9vosUB5fw4eAwcVAgh8P"], "asm": "OP_DUP OP_HASH160 3851f34d13937b673a7d24a1950bb5b21ce94af3 OP_EQUALVERIFY OP_CHECKSIG", "type": "pubkeyhash"}, "value": 5.46e-06, "n": 1}, {"scriptPubKey": {"type": "nulldata", "hex": "6a146f6d6e69000000000000001f000000c1757fd500", "asm": "OP_RETURN 6f6d6e69000000000000001f000000c1757fd500"}, "value": 0.0, "n": 2}], "hex": "0100000002603306fa94643a44eefd1d0e1e652250d68388ba985c97c4bc83c74f51941ba7020000006a47304402207830bcaefc7f1d84bd77827c67dd45ff442ed8c99a518ce1317d77223f818e05022013ec0bdc384d05b2eb62e57dbf01346ab78346ed7d9be1fb8012999c2bea411a0121031011189da3d8f6e40f79ebac89c2dabee67702587c489ee446cd0b19cbddfa1fffffffff7dd7491ecb225ef07db83af772058a77c99cb6876974a7157c85c5f9904788e6000000006b483045022100ea426785d10739e8d5bccf6e7f6c7bc92a1fb2e24ccc4583b114798cb01f3c9d02204eddd4bfae1916b1f22648ce0cbdc8528b5fb8061b561a79858dc5f172f8a00001210271977291b74f1f5f5c42157e8aae804664eaaeccfd097918450d37f28fb94d77ffffffff03ac2c0100000000001976a914d243e6abb9a60fbff430b421d2df4b7d59ec186088ac22020000000000001976a9143851f34d13937b673a7d24a1950bb5b21ce94af388ac0000000000000000166a146f6d6e69000000000000001f000000c1757fd50000000000", "vin": [{"sequence": 4294967295, "scriptSig": {"hex": "47304402207830bcaefc7f1d84bd77827c67dd45ff442ed8c99a518ce1317d77223f818e05022013ec0bdc384d05b2eb62e57dbf01346ab78346ed7d9be1fb8012999c2bea411a0121031011189da3d8f6e40f79ebac89c2dabee67702587c489ee446cd0b19cbddfa1f", "asm": "304402207830bcaefc7f1d84bd77827c67dd45ff442ed8c99a518ce1317d77223f818e05022013ec0bdc384d05b2eb62e57dbf01346ab78346ed7d9be1fb8012999c2bea411a[ALL] 031011189da3d8f6e40f79ebac89c2dabee67702587c489ee446cd0b19cbddfa1f"}, "vout": 2, "txid": "a71b94514fc783bcc4975c98ba8883d65022651e0e1dfdee443a6494fa063360"}, {"sequence": 4294967295, "scriptSig": {"hex": "483045022100ea426785d10739e8d5bccf6e7f6c7bc92a1fb2e24ccc4583b114798cb01f3c9d02204eddd4bfae1916b1f22648ce0cbdc8528b5fb8061b561a79858dc5f172f8a00001210271977291b74f1f5f5c42157e8aae804664eaaeccfd097918450d37f28fb94d77", "asm": "3045022100ea426785d10739e8d5bccf6e7f6c7bc92a1fb2e24ccc4583b114798cb01f3c9d02204eddd4bfae1916b1f22648ce0cbdc8528b5fb8061b561a79858dc5f172f8a000[ALL] 0271977291b74f1f5f5c42157e8aae804664eaaeccfd097918450d37f28fb94d77"}, "vout": 0, "txid": "e6884790f9c5857c15a7746987b69cc9778a0572f73ab87df05e22cb1e49d77d"}], "txid": "d35b6b9d89aa50b22fed5e7a09e7ba7897121d5d7c47f70e1982206e625c0b4b", "blocktime": 1537871767, "version": 1, "confirmations": 11491, "time": 1537871767, "locktime": 0, "vsize": 404, "size": 404}