{"hash": "d35f0b7e7af640b94106f991e93860d80b81b1ff3b7918def360e78d1a01afba", "blockhash": "0000000000000000000baef3f32e3676a92c3b2e5da21b426e4f302fc371ce76", "vout": [{"scriptPubKey": {"reqSigs": 1, "hex": "76a914a8f4fcb14cb47c90e8115256049e43cfeadd313788ac", "addresses": ["1GQN1EEuPETUbKvetecgoHRx3d9R2MZrXT"], "asm": "OP_DUP OP_HASH160 a8f4fcb14cb47c90e8115256049e43cfeadd3137 OP_EQUALVERIFY OP_CHECKSIG", "type": "pubkeyhash"}, "value": 0.01367824, "n": 0}, {"scriptPubKey": {"type": "nulldata", "hex": "6a4c500000783400010a53450cfc10e8d6c32ccfec27b7256b4774d339f6019d6ddc0f1b8ff11780309731b4121d73dcd1c4c53523ba425baa1f680614324c36cb570ebc9a9526289ac0f6612cd74e33776ee4", "asm": "OP_RETURN 0000783400010a53450cfc10e8d6c32ccfec27b7256b4774d339f6019d6ddc0f1b8ff11780309731b4121d73dcd1c4c53523ba425baa1f680614324c36cb570ebc9a9526289ac0f6612cd74e33776ee4"}, "value": 0.0, "n": 1}], "hex": "0100000001320e51ab319bef8390c1b3f2ba2c5f65446ddc3937eb1c6541e9e749c525cb92000000006b483045022100ac01b406e025e4cd1591feac2fcd0b54bb6c14232e8e003b4a8abc3500126953022004be176387bf6110871c5b9c80a36c2e6acd73bd25c10ea38809286af65c6ea40121023dd373f4a05735e9f753a5cef114a7358e7cf0f05c308a8a1125c31c5a7122d4ffffffff0210df1400000000001976a914a8f4fcb14cb47c90e8115256049e43cfeadd313788ac0000000000000000536a4c500000783400010a53450cfc10e8d6c32ccfec27b7256b4774d339f6019d6ddc0f1b8ff11780309731b4121d73dcd1c4c53523ba425baa1f680614324c36cb570ebc9a9526289ac0f6612cd74e33776ee400000000", "vin": [{"sequence": 4294967295, "scriptSig": {"hex": "483045022100ac01b406e025e4cd1591feac2fcd0b54bb6c14232e8e003b4a8abc3500126953022004be176387bf6110871c5b9c80a36c2e6acd73bd25c10ea38809286af65c6ea40121023dd373f4a05735e9f753a5cef114a7358e7cf0f05c308a8a1125c31c5a7122d4", "asm": "3045022100ac01b406e025e4cd1591feac2fcd0b54bb6c14232e8e003b4a8abc3500126953022004be176387bf6110871c5b9c80a36c2e6acd73bd25c10ea38809286af65c6ea4[ALL] 023dd373f4a05735e9f753a5cef114a7358e7cf0f05c308a8a1125c31c5a7122d4"}, "vout": 0, "txid": "92cb25c549e7e941651ceb3739dc6d44655f2cbaf2b3c19083ef9b31ab510e32"}], "txid": "d35f0b7e7af640b94106f991e93860d80b81b1ff3b7918def360e78d1a01afba", "blocktime": 1537876114, "version": 1, "confirmations": 11462, "time": 1537876114, "locktime": 0, "vsize": 284, "size": 284}