{"hash": "7ca96bc031844c99dc539935ccb72c7fa2c3a6fe571752a722dfbba1f5c0e0ca", "blockhash": "00000000000000000017f5eb5941039fbcee6240d03bc1f2f8e35350df66a1d8", "vout": [{"scriptPubKey": {"reqSigs": 1, "hex": "a91482e7e273ec4e0dff2590e50d5fec2ebc665cd1f787", "addresses": ["3DdBZ734DjaqBf29PvjxWv9mvU6VaQEs8H"], "asm": "OP_HASH160 82e7e273ec4e0dff2590e50d5fec2ebc665cd1f7 OP_EQUAL", "type": "scripthash"}, "value": 59.98117214, "n": 0}, {"scriptPubKey": {"reqSigs": 1, "hex": "76a9140b089bc031e2de983b63e9fbddf91068310d07d788ac", "addresses": ["121LkEUdMmxCSixWTJs8arziQWkQVkF6Yv"], "asm": "OP_DUP OP_HASH160 0b089bc031e2de983b63e9fbddf91068310d07d7 OP_EQUALVERIFY OP_CHECKSIG", "type": "pubkeyhash"}, "value": 0.00538177, "n": 1}, {"scriptPubKey": {"reqSigs": 1, "hex": "a914647562540c1990dbae2e6d079256e0bcc8fa653687", "addresses": ["3ArC7iXDyN8X9uZFwRhpp4QMB4nRTbWbEq"], "asm": "OP_HASH160 647562540c1990dbae2e6d079256e0bcc8fa6536 OP_EQUAL", "type": "scripthash"}, "value": 0.01553048, "n": 2}], "hex": "01000000000102f8ec1839c60bb368502bc44e49a124622a6549be5630a63923991af9697cf7820100000023220020812514e030001357897a71b4739ae3506f766bfc4d575fa1f1198b2829913cc6ffffffffe17f4d7eb815eed31851a05f8310978489904961ba8dbb589c2a841762217c2e0000000023220020396e410c1f0faa6cf44962c0624cd22732a29701c600c1d906e0db9f939fa239ffffffff035e0184650100000017a91482e7e273ec4e0dff2590e50d5fec2ebc665cd1f78741360800000000001976a9140b089bc031e2de983b63e9fbddf91068310d07d788ac98b217000000000017a914647562540c1990dbae2e6d079256e0bcc8fa65368703483045022100aec87ae6ff8697e1b744247e8efee8e86ac1df5f5bb5125654d92da5e9a3d228022070796a87b6bb312964861e8402ac190abe1b9d6b175faea26e76651f1151d096012103effbcc6b609c489be18273c0d9a25c40c3aabba852c5d3e0e971d9c4cd20bec21976a91423c4e9704e07eae2d53f8745eb8079fa5958b3b388ac03473044022053ad42d9ffb77d68abb57d9d860d9b3bf413dfbc7b4c29658ca95dbd7057b35d02202eddc2c541b08fb2bae5d1cdbc209b16d1177ae09976a187e05e6d285d260e3e012102d941dfddbc2339802d015e0777dc30cd416ff591acd587c3e34824c6583b4dac1976a914d1cd43434d93559101682b017ed06e55a1c7119e88ac00000000", "vin": [{"txinwitness": ["3045022100aec87ae6ff8697e1b744247e8efee8e86ac1df5f5bb5125654d92da5e9a3d228022070796a87b6bb312964861e8402ac190abe1b9d6b175faea26e76651f1151d09601", "03effbcc6b609c489be18273c0d9a25c40c3aabba852c5d3e0e971d9c4cd20bec2", "76a91423c4e9704e07eae2d53f8745eb8079fa5958b3b388ac"], "sequence": 4294967295, "scriptSig": {"hex": "220020812514e030001357897a71b4739ae3506f766bfc4d575fa1f1198b2829913cc6", "asm": "0020812514e030001357897a71b4739ae3506f766bfc4d575fa1f1198b2829913cc6"}, "vout": 1, "txid": "82f77c69f91a992339a63056be49652a6224a1494ec42b5068b30bc63918ecf8"}, {"txinwitness": ["3044022053ad42d9ffb77d68abb57d9d860d9b3bf413dfbc7b4c29658ca95dbd7057b35d02202eddc2c541b08fb2bae5d1cdbc209b16d1177ae09976a187e05e6d285d260e3e01", "02d941dfddbc2339802d015e0777dc30cd416ff591acd587c3e34824c6583b4dac", "76a914d1cd43434d93559101682b017ed06e55a1c7119e88ac"], "sequence": 4294967295, "scriptSig": {"hex": "220020396e410c1f0faa6cf44962c0624cd22732a29701c600c1d906e0db9f939fa239", "asm": "0020396e410c1f0faa6cf44962c0624cd22732a29701c600c1d906e0db9f939fa239"}, "vout": 0, "txid": "2e7c216217842a9c58bb8dba61499089849710835fa05118d3ee15b87e4d7fe1"}], "txid": "d3603970f210fd578dd96b84060ca83dcea35cce32fa480788ed916458ada6b8", "blocktime": 1537874412, "version": 1, "confirmations": 11467, "time": 1537874412, "locktime": 0, "vsize": 328, "size": 529}