{"hash": "d3625c23cd64d6c0ba4c446071bb9f9cefd74a5aeec61805550c07605aa1e07c", "blockhash": "0000000000000000000baef3f32e3676a92c3b2e5da21b426e4f302fc371ce76", "vout": [{"scriptPubKey": {"reqSigs": 1, "hex": "76a914c31196a95685839cc9a05f8bb53b2e8ca3a865e388ac", "addresses": ["1JnRqUmm2JTKtU5p7mTWD56GqGoj7rVKUG"], "asm": "OP_DUP OP_HASH160 c31196a95685839cc9a05f8bb53b2e8ca3a865e3 OP_EQUALVERIFY OP_CHECKSIG", "type": "pubkeyhash"}, "value": 0.00634332, "n": 0}, {"scriptPubKey": {"type": "nulldata", "hex": "6a4c50000078060001a11da0fe281f0e23e68ed950702940d64fa54d8eb2d19ed074892d00f8e87642e4e669468212af2faafdb5b130845baa1ab00613342795073ea91d100759d4ba30d2c37bb011d97e02cf", "asm": "OP_RETURN 000078060001a11da0fe281f0e23e68ed950702940d64fa54d8eb2d19ed074892d00f8e87642e4e669468212af2faafdb5b130845baa1ab00613342795073ea91d100759d4ba30d2c37bb011d97e02cf"}, "value": 0.0, "n": 1}], "hex": "0100000001e2c0016dde8ba43f24e26a20c87cd503c5ff1464aa1e42f2d0bc2b04c400ce58000000006b483045022100fa8fff3492a9af7fb776e1db911ff9e537bee42195e7cb185c1e4006402a9a1702207766229053f0d577a34de31a736e3d83403ce49cb9285f0dc5c8e2a854eeef0d0121026d28f2b9e594ec345e61dd5001dc5db1ff14f3870c015c2f4de3180be48bb334ffffffff02dcad0900000000001976a914c31196a95685839cc9a05f8bb53b2e8ca3a865e388ac0000000000000000536a4c50000078060001a11da0fe281f0e23e68ed950702940d64fa54d8eb2d19ed074892d00f8e87642e4e669468212af2faafdb5b130845baa1ab00613342795073ea91d100759d4ba30d2c37bb011d97e02cf00000000", "vin": [{"sequence": 4294967295, "scriptSig": {"hex": "483045022100fa8fff3492a9af7fb776e1db911ff9e537bee42195e7cb185c1e4006402a9a1702207766229053f0d577a34de31a736e3d83403ce49cb9285f0dc5c8e2a854eeef0d0121026d28f2b9e594ec345e61dd5001dc5db1ff14f3870c015c2f4de3180be48bb334", "asm": "3045022100fa8fff3492a9af7fb776e1db911ff9e537bee42195e7cb185c1e4006402a9a1702207766229053f0d577a34de31a736e3d83403ce49cb9285f0dc5c8e2a854eeef0d[ALL] 026d28f2b9e594ec345e61dd5001dc5db1ff14f3870c015c2f4de3180be48bb334"}, "vout": 0, "txid": "58ce00c4042bbcd0f2421eaa6414ffc503d57cc8206ae2243fa48bde6d01c0e2"}], "txid": "d3625c23cd64d6c0ba4c446071bb9f9cefd74a5aeec61805550c07605aa1e07c", "blocktime": 1537876114, "version": 1, "confirmations": 11460, "time": 1537876114, "locktime": 0, "vsize": 284, "size": 284}