{"hash": "d366b52c8fec8ec63ac25ffc4a8ba025a09346f356553a504c5b64dc551f2102", "blockhash": "0000000000000000000baef3f32e3676a92c3b2e5da21b426e4f302fc371ce76", "vout": [{"scriptPubKey": {"type": "nulldata", "hex": "6a4c5000007804000170c1f99337c475708b4b19e8702940d64fa54d8eb2d19ed074892d00f8e830f2fc8be9a7253da60fb49cdc31f4c05baa1a7106138d8261798802bc9a9526289ac0f6612cd74e33776ee4", "asm": "OP_RETURN 00007804000170c1f99337c475708b4b19e8702940d64fa54d8eb2d19ed074892d00f8e830f2fc8be9a7253da60fb49cdc31f4c05baa1a7106138d8261798802bc9a9526289ac0f6612cd74e33776ee4"}, "value": 0.0, "n": 0}, {"scriptPubKey": {"reqSigs": 1, "hex": "76a914095ef9b7dae14a2ce0ff16285cee1203570fcc1388ac", "addresses": ["1rYrjm4ya5RBV52G2uyAqaCqZ1VBgdDFg"], "asm": "OP_DUP OP_HASH160 095ef9b7dae14a2ce0ff16285cee1203570fcc13 OP_EQUALVERIFY OP_CHECKSIG", "type": "pubkeyhash"}, "value": 0.0005278, "n": 1}], "hex": "0100000001df5f2dad70dc42ec90df95aa703a7f2c4bcd14d158fcef4296fb93082483ee51000000006a473044022045253d268443a6b6155b1a9ebf6842d0094f292d6aa7a825141960065136b02302206a8af03ca1c3e6a1e1a8a76aaaf5f27dcc90d03105e4dd200d13f9cf94ac0b2a012102a11a050d629762d3de58bd52a6c96c67df96a1804dab95719ff279942ffa0ca0ffffffff020000000000000000536a4c5000007804000170c1f99337c475708b4b19e8702940d64fa54d8eb2d19ed074892d00f8e830f2fc8be9a7253da60fb49cdc31f4c05baa1a7106138d8261798802bc9a9526289ac0f6612cd74e33776ee42cce0000000000001976a914095ef9b7dae14a2ce0ff16285cee1203570fcc1388ac00000000", "vin": [{"sequence": 4294967295, "scriptSig": {"hex": "473044022045253d268443a6b6155b1a9ebf6842d0094f292d6aa7a825141960065136b02302206a8af03ca1c3e6a1e1a8a76aaaf5f27dcc90d03105e4dd200d13f9cf94ac0b2a012102a11a050d629762d3de58bd52a6c96c67df96a1804dab95719ff279942ffa0ca0", "asm": "3044022045253d268443a6b6155b1a9ebf6842d0094f292d6aa7a825141960065136b02302206a8af03ca1c3e6a1e1a8a76aaaf5f27dcc90d03105e4dd200d13f9cf94ac0b2a[ALL] 02a11a050d629762d3de58bd52a6c96c67df96a1804dab95719ff279942ffa0ca0"}, "vout": 0, "txid": "51ee83240893fb9642effc58d114cd4b2c7f3a70aa95df90ec42dc70ad2d5fdf"}], "txid": "d366b52c8fec8ec63ac25ffc4a8ba025a09346f356553a504c5b64dc551f2102", "blocktime": 1537876114, "version": 1, "confirmations": 11460, "time": 1537876114, "locktime": 0, "vsize": 283, "size": 283}