{"hash": "d369b5a9b0d20e052d2f528444d3c34bffd6d253fbf13de96f2df35ddad8ebe5", "blockhash": "00000000000000000017f5eb5941039fbcee6240d03bc1f2f8e35350df66a1d8", "vout": [{"scriptPubKey": {"reqSigs": 1, "hex": "a914ae96495fc860395757e0bddaed475a8c625f8a3d87", "addresses": ["3Hc9Y25tkEG8hCUdEhtqkfPN4Mw7NsHDU3"], "asm": "OP_HASH160 ae96495fc860395757e0bddaed475a8c625f8a3d OP_EQUAL", "type": "scripthash"}, "value": 0.0078155, "n": 0}, {"scriptPubKey": {"reqSigs": 1, "hex": "76a9148bddc35c67d0b83319b1dcb04831d6e13faf992388ac", "addresses": ["1DkYb38bXF62Q9CjT6o3T39KkHDSv7Ac6w"], "asm": "OP_DUP OP_HASH160 8bddc35c67d0b83319b1dcb04831d6e13faf9923 OP_EQUALVERIFY OP_CHECKSIG", "type": "pubkeyhash"}, "value": 0.04216642, "n": 1}], "hex": "010000000120bc3e6f720a7179be4959696d9cfff467af406e0e121afdd58c86a9cbaa821e000000006b483045022100a53eb5aed3f4ec8064fc2cb0a1d952fff3520335482de3affff1c164dd42e7b20220313b3be837ca9f318e09916a10d699e343fe36bd97affe9f695d355980f7e257012103bece92438ec36569d1141d75c440a674470a04f31c131e960230c59c454b8182ffffffff02eeec0b000000000017a914ae96495fc860395757e0bddaed475a8c625f8a3d8742574000000000001976a9148bddc35c67d0b83319b1dcb04831d6e13faf992388ac00000000", "vin": [{"sequence": 4294967295, "scriptSig": {"hex": "483045022100a53eb5aed3f4ec8064fc2cb0a1d952fff3520335482de3affff1c164dd42e7b20220313b3be837ca9f318e09916a10d699e343fe36bd97affe9f695d355980f7e257012103bece92438ec36569d1141d75c440a674470a04f31c131e960230c59c454b8182", "asm": "3045022100a53eb5aed3f4ec8064fc2cb0a1d952fff3520335482de3affff1c164dd42e7b20220313b3be837ca9f318e09916a10d699e343fe36bd97affe9f695d355980f7e257[ALL] 03bece92438ec36569d1141d75c440a674470a04f31c131e960230c59c454b8182"}, "vout": 0, "txid": "1e82aacba9868cd5fd1a120e6e40af67f4ff9c6d695949be79710a726f3ebc20"}], "txid": "d369b5a9b0d20e052d2f528444d3c34bffd6d253fbf13de96f2df35ddad8ebe5", "blocktime": 1537874412, "version": 1, "confirmations": 11467, "time": 1537874412, "locktime": 0, "vsize": 224, "size": 224}