{"hash": "d36c4bbd7aa058edec91475d436b6c9cc467713e4ca3c8c89550e1704bbefd72", "blockhash": "000000000000000000022b45ed06c6f4ccd3cf7fb5ba4856ebd2e58215665228", "vout": [{"scriptPubKey": {"reqSigs": 1, "hex": "76a914e993761aea123632cbd68691e082465d1c6aa35f88ac", "addresses": ["1NJ36VTK5asyGNfNPejo4c4o7mZeVXWA8B"], "asm": "OP_DUP OP_HASH160 e993761aea123632cbd68691e082465d1c6aa35f OP_EQUALVERIFY OP_CHECKSIG", "type": "pubkeyhash"}, "value": 0.01377783, "n": 0}, {"scriptPubKey": {"reqSigs": 1, "hex": "76a9140163626547b1b9e41421cc0c923d8bb17e9699fc88ac", "addresses": ["18LjYD6GQNkGAxYrsue3SWAnauZqRHxaE"], "asm": "OP_DUP OP_HASH160 0163626547b1b9e41421cc0c923d8bb17e9699fc OP_EQUALVERIFY OP_CHECKSIG", "type": "pubkeyhash"}, "value": 0.03621537, "n": 1}], "hex": "02000000015cddb795032f6017b1107abd23909b22cbe11cfd25e63250d21dc29656a037cb010000006a473044022039bed234af73ca0924b109214ee50b69d94c494933e65e2de4889e0b439a059002202b83d1e10643690b2ecd19948f95734d9bdac0a7d8cbb2c00409c91f0accb717012102cd071a334ce4ef994b18836a50d7078eb4785ad092589491db4ecda3bfc9836afeffffff02f7051500000000001976a914e993761aea123632cbd68691e082465d1c6aa35f88aca1423700000000001976a9140163626547b1b9e41421cc0c923d8bb17e9699fc88ac0b490800", "vin": [{"sequence": 4294967294, "scriptSig": {"hex": "473044022039bed234af73ca0924b109214ee50b69d94c494933e65e2de4889e0b439a059002202b83d1e10643690b2ecd19948f95734d9bdac0a7d8cbb2c00409c91f0accb717012102cd071a334ce4ef994b18836a50d7078eb4785ad092589491db4ecda3bfc9836a", "asm": "3044022039bed234af73ca0924b109214ee50b69d94c494933e65e2de4889e0b439a059002202b83d1e10643690b2ecd19948f95734d9bdac0a7d8cbb2c00409c91f0accb717[ALL] 02cd071a334ce4ef994b18836a50d7078eb4785ad092589491db4ecda3bfc9836a"}, "vout": 1, "txid": "cb37a05696c21dd25032e625fd1ce1cb229b9023bd7a10b117602f0395b7dd5c"}], "txid": "d36c4bbd7aa058edec91475d436b6c9cc467713e4ca3c8c89550e1704bbefd72", "blocktime": 1537869901, "version": 2, "confirmations": 11523, "time": 1537869901, "locktime": 542987, "vsize": 225, "size": 225}