{"hash": "32c07ca1bc4b7580cdafbb83497fed5f859a2b382c6e7f8f888d80db9f5d82f7", "blockhash": "00000000000000000018f53835495a110e01622372bf6ae95dc86f2b0ab887b0", "vout": [{"scriptPubKey": {"reqSigs": 1, "hex": "76a91465dbe2090a59f0bf971172118b694ddbca07b7b288ac", "addresses": ["1AHaf7PQ1skh4ceXQX6wTgP9xWi9tfGr32"], "asm": "OP_DUP OP_HASH160 65dbe2090a59f0bf971172118b694ddbca07b7b2 OP_EQUALVERIFY OP_CHECKSIG", "type": "pubkeyhash"}, "value": 0.00277582, "n": 0}, {"scriptPubKey": {"reqSigs": 1, "hex": "a9148df45614380a58518c2816155217eedc804e27cb87", "addresses": ["3EdbuNX7vzkkCdsCJH2dTrQbK8uNTMTBC4"], "asm": "OP_HASH160 8df45614380a58518c2816155217eedc804e27cb OP_EQUAL", "type": "scripthash"}, "value": 0.15476438, "n": 1}], "hex": "0200000000010181e653fbf51098c9c24ee1d4796ba36dfa68d1743af7d01a36978855535ae5e400000000171600144ee911bad50affafdefb7fa8fdeedc3ccbf47119feffffff024e3c0400000000001976a91465dbe2090a59f0bf971172118b694ddbca07b7b288acd626ec000000000017a9148df45614380a58518c2816155217eedc804e27cb870247304402204c10216c2d90eaf0de479f44507453b92c57cfba0b0e71c0c8aef73c267f49510220195dc9ce085c7528fab0c92f8fde797304f386d9d3260b83c2491319555f2d5a012103c4558487842c4a4e2d9097bc84522488e294b99af8b18f5b7bad61611c96fc910e490800", "vin": [{"txinwitness": ["304402204c10216c2d90eaf0de479f44507453b92c57cfba0b0e71c0c8aef73c267f49510220195dc9ce085c7528fab0c92f8fde797304f386d9d3260b83c2491319555f2d5a01", "03c4558487842c4a4e2d9097bc84522488e294b99af8b18f5b7bad61611c96fc91"], "sequence": 4294967294, "scriptSig": {"hex": "1600144ee911bad50affafdefb7fa8fdeedc3ccbf47119", "asm": "00144ee911bad50affafdefb7fa8fdeedc3ccbf47119"}, "vout": 0, "txid": "e4e55a53558897361ad0f73a74d168fa6da36b79d4e14ec2c99810f5fb53e681"}], "txid": "d36ce608265ed16282291c86848460d187c97094de4344db2ea1d062a0a1aaa0", "blocktime": 1537870928, "version": 2, "confirmations": 11512, "time": 1537870928, "locktime": 542990, "vsize": 168, "size": 249}