{"hash": "82f09ddf787806161c8637d36fb08b4c414ffc3a5d29c723f448b29e88bad9d4", "blockhash": "00000000000000000004ffacab907a6b429b9a5745fa0b75af4234bf69dd7176", "vout": [{"scriptPubKey": {"reqSigs": 1, "hex": "76a914cec0da66523c846bc3d73f2bf9f6332a02f9071388ac", "addresses": ["1KrDEBr8qM7HQqVUHA9DMt97mXt4UiPCoj"], "asm": "OP_DUP OP_HASH160 cec0da66523c846bc3d73f2bf9f6332a02f90713 OP_EQUALVERIFY OP_CHECKSIG", "type": "pubkeyhash"}, "value": 0.0209707, "n": 0}, {"scriptPubKey": {"reqSigs": 1, "hex": "a91402ebb642825ba9311cac516641bd36cfce83a20d87", "addresses": ["31xTeUrGxubTmbn8UmdrNmJ3sGMHtq3BuR"], "asm": "OP_HASH160 02ebb642825ba9311cac516641bd36cfce83a20d OP_EQUAL", "type": "scripthash"}, "value": 0.01687445, "n": 1}], "hex": "020000000001034a8263754d995f515d928e3f15cd8ac75210f33c1d7f8dc54151ae9bce3034660000000017160014a87a764dfeff978de2d5ecc7d0fe88747bf2e4d8fdffffff73bb6912a6ccbc69ae7b9041a853cbd352fd8612673d54399b4715e67ee8194100000000171600141ba39c8016ba69c1f123bc9662765c39629e7024fdffffffb502ba129107ba3148345193789a40f260793b49adb5f52a6303fcda83d05ffe0100000017160014db51a5f8faa7b28077a90b740f136ff5b234d029fdffffff02aeff1f00000000001976a914cec0da66523c846bc3d73f2bf9f6332a02f9071388ac95bf19000000000017a91402ebb642825ba9311cac516641bd36cfce83a20d8702473044022041638012f0de2624a0fa2354e927365af2ac8a1c5697aa9a5bd730c2460a7bab022054107b67eba41d5c08eedc813a4b17bf20480a5250d904926104eda363fa0b26012102a8bd8ee0266e23a0f910955c03c55888aad0e12f6cb75f8af5fff768869d2fb502483045022100d0f0a289a8075009dd58f83457e4259d7da293a9cdef176521310831f979d287022077b5475e864f34c561f3c1067a1a808959ada424d290d284757e064d09043484012103d8ffce494106f8435252da6badefa2807520ac55b1ab559eba0cf9bc96b206e10247304402202f0be4bfd2d16cd99a66a98fa8b06124bca8e8872141366bedad818dc2e04e460220572cea67bf8bc94bdd11f388a9478e855fb392657b559114d6a6c0e56d2a84b201210276e73f2a5ec6691f6b0b862203df1d504a0b1f2276ed315e25102961e9e79d8216490800", "vin": [{"txinwitness": ["3044022041638012f0de2624a0fa2354e927365af2ac8a1c5697aa9a5bd730c2460a7bab022054107b67eba41d5c08eedc813a4b17bf20480a5250d904926104eda363fa0b2601", "02a8bd8ee0266e23a0f910955c03c55888aad0e12f6cb75f8af5fff768869d2fb5"], "sequence": 4294967293, "scriptSig": {"hex": "160014a87a764dfeff978de2d5ecc7d0fe88747bf2e4d8", "asm": "0014a87a764dfeff978de2d5ecc7d0fe88747bf2e4d8"}, "vout": 0, "txid": "663430ce9bae5141c58d7f1d3cf31052c78acd153f8e925d515f994d7563824a"}, {"txinwitness": ["3045022100d0f0a289a8075009dd58f83457e4259d7da293a9cdef176521310831f979d287022077b5475e864f34c561f3c1067a1a808959ada424d290d284757e064d0904348401", "03d8ffce494106f8435252da6badefa2807520ac55b1ab559eba0cf9bc96b206e1"], "sequence": 4294967293, "scriptSig": {"hex": "1600141ba39c8016ba69c1f123bc9662765c39629e7024", "asm": "00141ba39c8016ba69c1f123bc9662765c39629e7024"}, "vout": 0, "txid": "4119e87ee615479b39543d671286fd52d3cb53a841907bae69bccca61269bb73"}, {"txinwitness": ["304402202f0be4bfd2d16cd99a66a98fa8b06124bca8e8872141366bedad818dc2e04e460220572cea67bf8bc94bdd11f388a9478e855fb392657b559114d6a6c0e56d2a84b201", "0276e73f2a5ec6691f6b0b862203df1d504a0b1f2276ed315e25102961e9e79d82"], "sequence": 4294967293, "scriptSig": {"hex": "160014db51a5f8faa7b28077a90b740f136ff5b234d029", "asm": "0014db51a5f8faa7b28077a90b740f136ff5b234d029"}, "vout": 1, "txid": "fe5fd083dafc03632af5b5ad493b7960f2409a789351344831ba079112ba02b5"}], "txid": "d36f2b69777656ff595455d45b6d5c20d7a35a2d9611515447e4700f6fe8ff54", "blocktime": 1537875543, "version": 2, "confirmations": 11464, "time": 1537875543, "locktime": 542998, "vsize": 349, "size": 592}