{"hash": "d37009f14430f49058627ea2deace9b216d1c3bf1e3141d96ba16ce50b87d9e8", "blockhash": "00000000000000000018f53835495a110e01622372bf6ae95dc86f2b0ab887b0", "vout": [{"scriptPubKey": {"reqSigs": 1, "hex": "a91445d1a9ad2bc084850697a779643718093ea89d3887", "addresses": ["384BiQYManu7xLAR5rbt9Vcc1GATa5guy5"], "asm": "OP_HASH160 45d1a9ad2bc084850697a779643718093ea89d38 OP_EQUAL", "type": "scripthash"}, "value": 0.00452094, "n": 0}, {"scriptPubKey": {"reqSigs": 1, "hex": "76a9145b7b432f0301ce45f7a87f952dfa87f212d5c91988ac", "addresses": ["19Li9t5vFUVdZQ3sDrfFCndJLcWphAhHNT"], "asm": "OP_DUP OP_HASH160 5b7b432f0301ce45f7a87f952dfa87f212d5c919 OP_EQUALVERIFY OP_CHECKSIG", "type": "pubkeyhash"}, "value": 0.11997472, "n": 1}], "hex": "0100000001895614c1866807720df2bff348120d9082d144e4fa860d5e28e7c427ebee238f010000006a47304402202deb3cf1546eac5560c7556b978aba00cbf816ceac5064581366414659d0e82202207fc1362ddbf72d6419a3fbb807a949ff49ed37613a7299e86419d7559f517902012102d951e35f729b7e4fc1f75583664212547d3447effd2e21522bbfbc28a7bd66d9ffffffff02fee506000000000017a91445d1a9ad2bc084850697a779643718093ea89d38872011b700000000001976a9145b7b432f0301ce45f7a87f952dfa87f212d5c91988ac00000000", "vin": [{"sequence": 4294967295, "scriptSig": {"hex": "47304402202deb3cf1546eac5560c7556b978aba00cbf816ceac5064581366414659d0e82202207fc1362ddbf72d6419a3fbb807a949ff49ed37613a7299e86419d7559f517902012102d951e35f729b7e4fc1f75583664212547d3447effd2e21522bbfbc28a7bd66d9", "asm": "304402202deb3cf1546eac5560c7556b978aba00cbf816ceac5064581366414659d0e82202207fc1362ddbf72d6419a3fbb807a949ff49ed37613a7299e86419d7559f517902[ALL] 02d951e35f729b7e4fc1f75583664212547d3447effd2e21522bbfbc28a7bd66d9"}, "vout": 1, "txid": "8f23eeeb27c4e7285e0d86fae444d182900d1248f3bff20d72076886c1145689"}], "txid": "d37009f14430f49058627ea2deace9b216d1c3bf1e3141d96ba16ce50b87d9e8", "blocktime": 1537870928, "version": 1, "confirmations": 11512, "time": 1537870928, "locktime": 0, "vsize": 223, "size": 223}