{"hash": "d374ac140714cfa43ade407ef4f438fc99d4af914a67f8c6f080b6f7d3279de7", "blockhash": "0000000000000000000baef3f32e3676a92c3b2e5da21b426e4f302fc371ce76", "vout": [{"scriptPubKey": {"reqSigs": 1, "hex": "76a914b190286973f60943dec01cd7d0af996c6580f6fd88ac", "addresses": ["1HBsJDd7JGzKXd1aspsGympHPjhky545qw"], "asm": "OP_DUP OP_HASH160 b190286973f60943dec01cd7d0af996c6580f6fd OP_EQUALVERIFY OP_CHECKSIG", "type": "pubkeyhash"}, "value": 0.0009856, "n": 0}, {"scriptPubKey": {"reqSigs": 1, "hex": "76a9145ab14204660e6fd44bc4bc39c383519908a7364588ac", "addresses": ["19GYAMmkKLk1sSauChUY5UpbCLUuuLVSnm"], "asm": "OP_DUP OP_HASH160 5ab14204660e6fd44bc4bc39c383519908a73645 OP_EQUALVERIFY OP_CHECKSIG", "type": "pubkeyhash"}, "value": 0.00234942, "n": 1}], "hex": "0100000001f7777120730bd509663b095ec7a011305ea3d49278d6bde5e58a2596321fe744010000006a47304402207a18a4a2c3e3df0595507642d1e7870b6b4ea8468b70d71752a4f1dce7ce136402200d165d47e96f15e5f6b90b30194ab147c7aeb84a73ea5adedcbc77ef66fd66af0121038fb3abcede4c5362b1f35b6be37442a0bfc535bf7757e9c40fc1a1226e6a6a8cffffffff0200810100000000001976a914b190286973f60943dec01cd7d0af996c6580f6fd88acbe950300000000001976a9145ab14204660e6fd44bc4bc39c383519908a7364588ac00000000", "vin": [{"sequence": 4294967295, "scriptSig": {"hex": "47304402207a18a4a2c3e3df0595507642d1e7870b6b4ea8468b70d71752a4f1dce7ce136402200d165d47e96f15e5f6b90b30194ab147c7aeb84a73ea5adedcbc77ef66fd66af0121038fb3abcede4c5362b1f35b6be37442a0bfc535bf7757e9c40fc1a1226e6a6a8c", "asm": "304402207a18a4a2c3e3df0595507642d1e7870b6b4ea8468b70d71752a4f1dce7ce136402200d165d47e96f15e5f6b90b30194ab147c7aeb84a73ea5adedcbc77ef66fd66af[ALL] 038fb3abcede4c5362b1f35b6be37442a0bfc535bf7757e9c40fc1a1226e6a6a8c"}, "vout": 1, "txid": "44e71f3296258ae5e5bdd67892d4a35e3011a0c75e093b6609d50b73207177f7"}], "txid": "d374ac140714cfa43ade407ef4f438fc99d4af914a67f8c6f080b6f7d3279de7", "blocktime": 1537876114, "version": 1, "confirmations": 11460, "time": 1537876114, "locktime": 0, "vsize": 225, "size": 225}