{"hash": "d37c5bc27ad5b7d623526428855086b66d2ae8e1e7e8d30b94caf9af93bf138c", "blockhash": "0000000000000000000e13cef7c366c0283d82e591d1acd082e914b08063cdf1", "vout": [{"scriptPubKey": {"reqSigs": 1, "hex": "76a914c38718503ecd8d6af13e526de6ecf10f461f1d6588ac", "addresses": ["1JprbyH8t99K3b83FwLKZpXvssKLkcSqZ1"], "asm": "OP_DUP OP_HASH160 c38718503ecd8d6af13e526de6ecf10f461f1d65 OP_EQUALVERIFY OP_CHECKSIG", "type": "pubkeyhash"}, "value": 0.00577171, "n": 0}, {"scriptPubKey": {"reqSigs": 1, "hex": "a914747e7c4dba845904ef9e3c07eb6ebd0161a6e30d87", "addresses": ["3CJyqAdpYdP9EUv1UG4NFdmB4PWKEpD2JH"], "asm": "OP_HASH160 747e7c4dba845904ef9e3c07eb6ebd0161a6e30d OP_EQUAL", "type": "scripthash"}, "value": 1.0, "n": 1}], "hex": "01000000027dd6ee4d34bd27539e4a5c4173b155b8501a58a68833b7978ca184e4ba241961000000006b4830450221009f0b2d6f6c0b2c3a71e9b6015fba8c3b55542b8a81b428b9998b53348cefae98022051523f0f5994436880350ac687ef85a3a52e71b426ebff4b5257fee1c67b3de3012102d1bf6d036169a87773cf8375251d8c8b6aa737ab71f23fdb6073e273f10aac45ffffffff1024fcfd8586fecc52cfa5ff53912558510c82c86ecb263a19aa9b1bc79f2be3010000006b483045022100f8c120f6a6018e9b2efb668cc330aa2abca26a9ad6c93ca8c43ea51f4130df720220289475bbfe591ac0fac0f07f186cbf3ce5510182764c74a78fbc291f43465603012102d1bf6d036169a87773cf8375251d8c8b6aa737ab71f23fdb6073e273f10aac45ffffffff0293ce0800000000001976a914c38718503ecd8d6af13e526de6ecf10f461f1d6588ac00e1f5050000000017a914747e7c4dba845904ef9e3c07eb6ebd0161a6e30d8700000000", "vin": [{"sequence": 4294967295, "scriptSig": {"hex": "4830450221009f0b2d6f6c0b2c3a71e9b6015fba8c3b55542b8a81b428b9998b53348cefae98022051523f0f5994436880350ac687ef85a3a52e71b426ebff4b5257fee1c67b3de3012102d1bf6d036169a87773cf8375251d8c8b6aa737ab71f23fdb6073e273f10aac45", "asm": "30450221009f0b2d6f6c0b2c3a71e9b6015fba8c3b55542b8a81b428b9998b53348cefae98022051523f0f5994436880350ac687ef85a3a52e71b426ebff4b5257fee1c67b3de3[ALL] 02d1bf6d036169a87773cf8375251d8c8b6aa737ab71f23fdb6073e273f10aac45"}, "vout": 0, "txid": "611924bae484a18c97b73388a6581a50b855b173415c4a9e5327bd344deed67d"}, {"sequence": 4294967295, "scriptSig": {"hex": "483045022100f8c120f6a6018e9b2efb668cc330aa2abca26a9ad6c93ca8c43ea51f4130df720220289475bbfe591ac0fac0f07f186cbf3ce5510182764c74a78fbc291f43465603012102d1bf6d036169a87773cf8375251d8c8b6aa737ab71f23fdb6073e273f10aac45", "asm": "3045022100f8c120f6a6018e9b2efb668cc330aa2abca26a9ad6c93ca8c43ea51f4130df720220289475bbfe591ac0fac0f07f186cbf3ce5510182764c74a78fbc291f43465603[ALL] 02d1bf6d036169a87773cf8375251d8c8b6aa737ab71f23fdb6073e273f10aac45"}, "vout": 1, "txid": "e32b9fc71b9baa193a26cb6ec8820c5158259153ffa5cf52ccfe8685fdfc2410"}], "txid": "d37c5bc27ad5b7d623526428855086b66d2ae8e1e7e8d30b94caf9af93bf138c", "blocktime": 1537871767, "version": 1, "confirmations": 11495, "time": 1537871767, "locktime": 0, "vsize": 372, "size": 372}