{"hash": "d37d2673e49e8ecb5ac97d4058b86cbbe26a7008e5f51dc6ad5e9289195de6f9", "blockhash": "00000000000000000004ffacab907a6b429b9a5745fa0b75af4234bf69dd7176", "vout": [{"scriptPubKey": {"reqSigs": 1, "hex": "76a914d243e6abb9a60fbff430b421d2df4b7d59ec186088ac", "addresses": ["1LAnF8h3qMGx3TSwNUHVneBZUEpwE4gu3D"], "asm": "OP_DUP OP_HASH160 d243e6abb9a60fbff430b421d2df4b7d59ec1860 OP_EQUALVERIFY OP_CHECKSIG", "type": "pubkeyhash"}, "value": 0.00081468, "n": 0}, {"scriptPubKey": {"reqSigs": 1, "hex": "76a9143851f34d13937b673a7d24a1950bb5b21ce94af388ac", "addresses": ["168o1kqNquEJeR9vosUB5fw4eAwcVAgh8P"], "asm": "OP_DUP OP_HASH160 3851f34d13937b673a7d24a1950bb5b21ce94af3 OP_EQUALVERIFY OP_CHECKSIG", "type": "pubkeyhash"}, "value": 5.46e-06, "n": 1}, {"scriptPubKey": {"type": "nulldata", "hex": "6a146f6d6e69000000000000001f0000000bf8596b50", "asm": "OP_RETURN 6f6d6e69000000000000001f0000000bf8596b50"}, "value": 0.0, "n": 2}], "hex": "010000000236bbd3f4f2dc62cbc3338aa70ef087af56baa9381fb338736564bcbd62554af9020000006a473044022013b852d2c671696be5b5ab1a71cfaa2ec95c2d25c225af3d3ba8b96f2853a315022035562077bcb85787dbcf840ad7f43956140d400c7c86b6f98ea1c39b16adec1a012103e2a08dc79d47e78e9cec0971cc30ec9c10426fcaece1a3aa7b247c4705d32f05ffffffff3638177470c3067d50d446623f589194873e116fdaf561be1480c73e7e6a8cf2000000006a473044022067fb49eb985ea7c0cf9828952f933ed21f8425f0ba62edf906e831923536f84802206a7b8935c57334b6acef02e5ea7834c761a8877cf7057e34095f7ebf9355219001210271977291b74f1f5f5c42157e8aae804664eaaeccfd097918450d37f28fb94d77ffffffff033c3e0100000000001976a914d243e6abb9a60fbff430b421d2df4b7d59ec186088ac22020000000000001976a9143851f34d13937b673a7d24a1950bb5b21ce94af388ac0000000000000000166a146f6d6e69000000000000001f0000000bf8596b5000000000", "vin": [{"sequence": 4294967295, "scriptSig": {"hex": "473044022013b852d2c671696be5b5ab1a71cfaa2ec95c2d25c225af3d3ba8b96f2853a315022035562077bcb85787dbcf840ad7f43956140d400c7c86b6f98ea1c39b16adec1a012103e2a08dc79d47e78e9cec0971cc30ec9c10426fcaece1a3aa7b247c4705d32f05", "asm": "3044022013b852d2c671696be5b5ab1a71cfaa2ec95c2d25c225af3d3ba8b96f2853a315022035562077bcb85787dbcf840ad7f43956140d400c7c86b6f98ea1c39b16adec1a[ALL] 03e2a08dc79d47e78e9cec0971cc30ec9c10426fcaece1a3aa7b247c4705d32f05"}, "vout": 2, "txid": "f94a5562bdbc64657338b31f38a9ba56af87f00ea78a33c3cb62dcf2f4d3bb36"}, {"sequence": 4294967295, "scriptSig": {"hex": "473044022067fb49eb985ea7c0cf9828952f933ed21f8425f0ba62edf906e831923536f84802206a7b8935c57334b6acef02e5ea7834c761a8877cf7057e34095f7ebf9355219001210271977291b74f1f5f5c42157e8aae804664eaaeccfd097918450d37f28fb94d77", "asm": "3044022067fb49eb985ea7c0cf9828952f933ed21f8425f0ba62edf906e831923536f84802206a7b8935c57334b6acef02e5ea7834c761a8877cf7057e34095f7ebf93552190[ALL] 0271977291b74f1f5f5c42157e8aae804664eaaeccfd097918450d37f28fb94d77"}, "vout": 0, "txid": "f28c6a7e3ec78014be61f5da6f113e879491583f6246d4507d06c37074173836"}], "txid": "d37d2673e49e8ecb5ac97d4058b86cbbe26a7008e5f51dc6ad5e9289195de6f9", "blocktime": 1537875543, "version": 1, "confirmations": 11464, "time": 1537875543, "locktime": 0, "vsize": 403, "size": 403}