{"hash": "d37f1ef30a6d7f5f8c4b62d6087f8bcea0c4dcf031c51d1032628b5d6f4854ee", "blockhash": "00000000000000000017f5eb5941039fbcee6240d03bc1f2f8e35350df66a1d8", "vout": [{"scriptPubKey": {"reqSigs": 1, "hex": "76a9145ae22e278409cd592e9d782a4e412acfd836657a88ac", "addresses": ["19HYmYiXREPmApHznBCSed1B2jCLLmxop4"], "asm": "OP_DUP OP_HASH160 5ae22e278409cd592e9d782a4e412acfd836657a OP_EQUALVERIFY OP_CHECKSIG", "type": "pubkeyhash"}, "value": 1.4388612, "n": 0}, {"scriptPubKey": {"reqSigs": 1, "hex": "76a9142eaac4d84160a5e24a18646d71ba71ba4d99303d88ac", "addresses": ["15Fkf4K6z6XQXr1xoNBDDTaR9GBMX6JdyF"], "asm": "OP_DUP OP_HASH160 2eaac4d84160a5e24a18646d71ba71ba4d99303d OP_EQUALVERIFY OP_CHECKSIG", "type": "pubkeyhash"}, "value": 5.46e-06, "n": 1}, {"scriptPubKey": {"type": "nulldata", "hex": "6a146f6d6e69000000000000001f000000266bf1a0af", "asm": "OP_RETURN 6f6d6e69000000000000001f000000266bf1a0af"}, "value": 0.0, "n": 2}], "hex": "010000000274c6b7f763d222dfd6b134acafa440d11d6d440109b2ecd7e22483d738c2233f010000006b483045022100c2d934a4d1b5de9d822c8953ac814d36de65a66d190be2c319bd9a19e9078d0f02204518bb4597d75b757145b056f34f5fe53cd036a01708c6708537303e821c7ebb0121029b51504e37057fc9599d0ba5da6cd2311109ff0aef8c8c3fa478fef4f1268725ffffffffa75e61c6008d1e94610fa46e78a46087951df623e24f360f521a3985a9929783000000006b483045022100d5ee81014f8c668225a7d3cb78b96f643cdfb79744bc8d22b41ebc2e69fadb5502202c7a56db34ae6b3eb5912309bb6f7774ae1b52b4849a5420aaa8ae36ace6871b012103bfa79eca72bd969d3ffb56e64774fa8723f13278fd87ffedd36999975e73925bffffffff0328879308000000001976a9145ae22e278409cd592e9d782a4e412acfd836657a88ac22020000000000001976a9142eaac4d84160a5e24a18646d71ba71ba4d99303d88ac0000000000000000166a146f6d6e69000000000000001f000000266bf1a0af00000000", "vin": [{"sequence": 4294967295, "scriptSig": {"hex": "483045022100c2d934a4d1b5de9d822c8953ac814d36de65a66d190be2c319bd9a19e9078d0f02204518bb4597d75b757145b056f34f5fe53cd036a01708c6708537303e821c7ebb0121029b51504e37057fc9599d0ba5da6cd2311109ff0aef8c8c3fa478fef4f1268725", "asm": "3045022100c2d934a4d1b5de9d822c8953ac814d36de65a66d190be2c319bd9a19e9078d0f02204518bb4597d75b757145b056f34f5fe53cd036a01708c6708537303e821c7ebb[ALL] 029b51504e37057fc9599d0ba5da6cd2311109ff0aef8c8c3fa478fef4f1268725"}, "vout": 1, "txid": "3f23c238d78324e2d7ecb20901446d1dd140a4afac34b1d6df22d263f7b7c674"}, {"sequence": 4294967295, "scriptSig": {"hex": "483045022100d5ee81014f8c668225a7d3cb78b96f643cdfb79744bc8d22b41ebc2e69fadb5502202c7a56db34ae6b3eb5912309bb6f7774ae1b52b4849a5420aaa8ae36ace6871b012103bfa79eca72bd969d3ffb56e64774fa8723f13278fd87ffedd36999975e73925b", "asm": "3045022100d5ee81014f8c668225a7d3cb78b96f643cdfb79744bc8d22b41ebc2e69fadb5502202c7a56db34ae6b3eb5912309bb6f7774ae1b52b4849a5420aaa8ae36ace6871b[ALL] 03bfa79eca72bd969d3ffb56e64774fa8723f13278fd87ffedd36999975e73925b"}, "vout": 0, "txid": "839792a985391a520f364fe223f61d958760a4786ea40f61941e8d00c6615ea7"}], "txid": "d37f1ef30a6d7f5f8c4b62d6087f8bcea0c4dcf031c51d1032628b5d6f4854ee", "blocktime": 1537874412, "version": 1, "confirmations": 11468, "time": 1537874412, "locktime": 0, "vsize": 405, "size": 405}