{"hash": "d385c9b4a7d390c2a844017d474f6fc04e5b173f29bde69bee1f98a031dfeafe", "blockhash": "0000000000000000001f0ddff1eddb255c1121bcd4da4f1bc9a0da00cae72433", "vout": [{"scriptPubKey": {"reqSigs": 1, "hex": "a914c1a19988d287656da75f40d14f9d5b993544451487", "addresses": ["3KLqviNRG2S8fmFgPo64EC5AXhKYnTtPf3"], "asm": "OP_HASH160 c1a19988d287656da75f40d14f9d5b9935444514 OP_EQUAL", "type": "scripthash"}, "value": 0.00950415, "n": 0}, {"scriptPubKey": {"reqSigs": 1, "hex": "76a9148de4478903d5dbf7436163a16d803497ae54a95c88ac", "addresses": ["1DwFkBWkbG1DMyyDchgVQ6ukVSmm1DHWzX"], "asm": "OP_DUP OP_HASH160 8de4478903d5dbf7436163a16d803497ae54a95c OP_EQUALVERIFY OP_CHECKSIG", "type": "pubkeyhash"}, "value": 0.01458025, "n": 1}], "hex": "010000000181562dd7aa41101e96355b3d36e2b3b47f843f68f246182ddd64fa795228add4010000006a47304402207f6dd0c5ea30d64f6cdd0e2a6306850c3d1a0b2039b62cef4da3793f3903de3b022019aa2b214ef22857433dafd5467bdf9c79d9ecb5bc182cdbb4fd05b5e184304401210355f1f0b059b2b0c544f1e58843918216579b90876eea4e4071070cbb12eaa782ffffffff028f800e000000000017a914c1a19988d287656da75f40d14f9d5b993544451487693f1600000000001976a9148de4478903d5dbf7436163a16d803497ae54a95c88ac00000000", "vin": [{"sequence": 4294967295, "scriptSig": {"hex": "47304402207f6dd0c5ea30d64f6cdd0e2a6306850c3d1a0b2039b62cef4da3793f3903de3b022019aa2b214ef22857433dafd5467bdf9c79d9ecb5bc182cdbb4fd05b5e184304401210355f1f0b059b2b0c544f1e58843918216579b90876eea4e4071070cbb12eaa782", "asm": "304402207f6dd0c5ea30d64f6cdd0e2a6306850c3d1a0b2039b62cef4da3793f3903de3b022019aa2b214ef22857433dafd5467bdf9c79d9ecb5bc182cdbb4fd05b5e1843044[ALL] 0355f1f0b059b2b0c544f1e58843918216579b90876eea4e4071070cbb12eaa782"}, "vout": 1, "txid": "d4ad285279fa64dd2d1846f2683f847fb4b3e2363d5b35961e1041aad72d5681"}], "txid": "d385c9b4a7d390c2a844017d474f6fc04e5b173f29bde69bee1f98a031dfeafe", "blocktime": 1537872018, "version": 1, "confirmations": 11489, "time": 1537872018, "locktime": 0, "vsize": 223, "size": 223}