{"hash": "d387afa666e715f87905966950c3fd454a5932380ee2011bf28bc05d414f705b", "blockhash": "000000000000000000022b45ed06c6f4ccd3cf7fb5ba4856ebd2e58215665228", "vout": [{"scriptPubKey": {"reqSigs": 1, "hex": "a9146b3725125cf360163ba1a20e3a8c72b9073c542c87", "addresses": ["3BTvHbes96ZfU6v9ECv63C1JMEj6Twi3ig"], "asm": "OP_HASH160 6b3725125cf360163ba1a20e3a8c72b9073c542c OP_EQUAL", "type": "scripthash"}, "value": 0.00039785, "n": 0}, {"scriptPubKey": {"reqSigs": 1, "hex": "76a914726d10c252181d997f753bcb0a6320484ba1028d88ac", "addresses": ["1BS2gsTo72n7hkKbPyMALu9eMPzkotdFi7"], "asm": "OP_DUP OP_HASH160 726d10c252181d997f753bcb0a6320484ba1028d OP_EQUALVERIFY OP_CHECKSIG", "type": "pubkeyhash"}, "value": 0.01456636, "n": 1}], "hex": "010000000254e62fc5675e2a3936fe646dcaa4b3fe8e8f48280907cc61e7bfbab93343a235000000006a47304402202c02a4e0eefdb3a9bb1c68c52975534db0ffbad6ab9e866807cd343694abcd1602200155d3627505b1012f344952d4c70544daf8b47e0b4d9b7e6ee3dd6ea2074b1501210278d43471fbce95e9050d0fad620e2a650e6d0d741aa40c681902c38fd196508fffffffffe5e56e66508b3a677c65b2df664f44d0d3b9967676fc59670906b456ff8b89e7010000006b483045022100927b48633635f913011bb3436b41768a735ef5161e067987232fd57cc16f2ad3022034f0feb9ae4f9a712f47f3111f3241272ea3706dc5ab6e8e7a26956e0dcf56850121025acfc8755716b36b2a64c4b9dc2471af442e1c02de55bb104db99a5a8b6bef50ffffffff02699b00000000000017a9146b3725125cf360163ba1a20e3a8c72b9073c542c87fc391600000000001976a914726d10c252181d997f753bcb0a6320484ba1028d88ac00000000", "vin": [{"sequence": 4294967295, "scriptSig": {"hex": "47304402202c02a4e0eefdb3a9bb1c68c52975534db0ffbad6ab9e866807cd343694abcd1602200155d3627505b1012f344952d4c70544daf8b47e0b4d9b7e6ee3dd6ea2074b1501210278d43471fbce95e9050d0fad620e2a650e6d0d741aa40c681902c38fd196508f", "asm": "304402202c02a4e0eefdb3a9bb1c68c52975534db0ffbad6ab9e866807cd343694abcd1602200155d3627505b1012f344952d4c70544daf8b47e0b4d9b7e6ee3dd6ea2074b15[ALL] 0278d43471fbce95e9050d0fad620e2a650e6d0d741aa40c681902c38fd196508f"}, "vout": 0, "txid": "35a24333b9babfe761cc070928488f8efeb3a4ca6d64fe36392a5e67c52fe654"}, {"sequence": 4294967295, "scriptSig": {"hex": "483045022100927b48633635f913011bb3436b41768a735ef5161e067987232fd57cc16f2ad3022034f0feb9ae4f9a712f47f3111f3241272ea3706dc5ab6e8e7a26956e0dcf56850121025acfc8755716b36b2a64c4b9dc2471af442e1c02de55bb104db99a5a8b6bef50", "asm": "3045022100927b48633635f913011bb3436b41768a735ef5161e067987232fd57cc16f2ad3022034f0feb9ae4f9a712f47f3111f3241272ea3706dc5ab6e8e7a26956e0dcf5685[ALL] 025acfc8755716b36b2a64c4b9dc2471af442e1c02de55bb104db99a5a8b6bef50"}, "vout": 1, "txid": "e7898bff56b406096759fc767696b9d3d0444f66dfb2657c673a8b50666ee5e5"}], "txid": "d387afa666e715f87905966950c3fd454a5932380ee2011bf28bc05d414f705b", "blocktime": 1537869901, "version": 1, "confirmations": 11524, "time": 1537869901, "locktime": 0, "vsize": 371, "size": 371}