{"hash": "d38bcd387dea2d209f89822bf60a9b7f375a7d88298d1df2dbbb2f18d49b69d5", "blockhash": "0000000000000000001cda96e906b7601b7a6fb1a3b62bca570a9e5d8f4b3de1", "vout": [{"scriptPubKey": {"reqSigs": 1, "hex": "76a9144a0f1e2f2b0d7daeec5265f10bbbbe08ed725e8988ac", "addresses": ["17kb7c9ndg7ioSuzMWEHWECdEVUegNkcGc"], "asm": "OP_DUP OP_HASH160 4a0f1e2f2b0d7daeec5265f10bbbbe08ed725e89 OP_EQUALVERIFY OP_CHECKSIG", "type": "pubkeyhash"}, "value": 0.01165152, "n": 0}], "hex": "0100000001b30491acfbb7b20c215c35dab04562360d8be0359057ba0fa978dcd483381bc9000000006b4830450221009daa1a8a5a1367c092c90f219dd442b3806bdad6f57941093fbc4fb52fbaee9602205ca046ac34b8821f010c2107b3a59c7f584a5fa8436ee36aeba3f9878880928c0121039dcab95336023cac04579e1985ae038afc519694c3861920e4d7aac3702473c7ffffffff0160c71100000000001976a9144a0f1e2f2b0d7daeec5265f10bbbbe08ed725e8988ac00000000", "vin": [{"sequence": 4294967295, "scriptSig": {"hex": "4830450221009daa1a8a5a1367c092c90f219dd442b3806bdad6f57941093fbc4fb52fbaee9602205ca046ac34b8821f010c2107b3a59c7f584a5fa8436ee36aeba3f9878880928c0121039dcab95336023cac04579e1985ae038afc519694c3861920e4d7aac3702473c7", "asm": "30450221009daa1a8a5a1367c092c90f219dd442b3806bdad6f57941093fbc4fb52fbaee9602205ca046ac34b8821f010c2107b3a59c7f584a5fa8436ee36aeba3f9878880928c[ALL] 039dcab95336023cac04579e1985ae038afc519694c3861920e4d7aac3702473c7"}, "vout": 0, "txid": "c91b3883d4dc78a90fba579035e08b0d366245b0da355c210cb2b7fbac9104b3"}], "txid": "d38bcd387dea2d209f89822bf60a9b7f375a7d88298d1df2dbbb2f18d49b69d5", "blocktime": 1537873282, "version": 1, "confirmations": 11482, "time": 1537873282, "locktime": 0, "vsize": 192, "size": 192}