{"hash": "d38ef7f758b3faba2524a8a758340ce168a973e30beef18179d98fc5aea6b59f", "blockhash": "00000000000000000004ffacab907a6b429b9a5745fa0b75af4234bf69dd7176", "vout": [{"scriptPubKey": {"reqSigs": 1, "hex": "a91446adfbe78ac544102bfa9e85f3ba317cf96c31bc87", "addresses": ["388jebJbw2inAtqSsydEn6HDbHM7irjVWe"], "asm": "OP_HASH160 46adfbe78ac544102bfa9e85f3ba317cf96c31bc OP_EQUAL", "type": "scripthash"}, "value": 0.1, "n": 0}, {"scriptPubKey": {"reqSigs": 1, "hex": "76a914f9fcdb87416ea2c11cb1ed2d49aab8197862872d88ac", "addresses": ["1PnpAcgLSCrqVaeUk8En3yqifCP3Na8Maq"], "asm": "OP_DUP OP_HASH160 f9fcdb87416ea2c11cb1ed2d49aab8197862872d OP_EQUALVERIFY OP_CHECKSIG", "type": "pubkeyhash"}, "value": 0.11942964, "n": 1}], "hex": "01000000018f563a8f683d48375b5bcff0569d77913ea387d526c1821d3cba50cf501f22eb010000006b483045022100e73fdbf6299565b6948c573399f38d2535003453a5f03f49c63a7a37c29a802302203dcd5a1bc541aca9c7320fd746e611220e39b29b0726ecc45c85f3ecaee3af34012102da8b90911b6affa22e1263c91b719e6f9e9609fbbf01cdcca89f5580a0cd463dffffffff02809698000000000017a91446adfbe78ac544102bfa9e85f3ba317cf96c31bc87343cb600000000001976a914f9fcdb87416ea2c11cb1ed2d49aab8197862872d88ac00000000", "vin": [{"sequence": 4294967295, "scriptSig": {"hex": "483045022100e73fdbf6299565b6948c573399f38d2535003453a5f03f49c63a7a37c29a802302203dcd5a1bc541aca9c7320fd746e611220e39b29b0726ecc45c85f3ecaee3af34012102da8b90911b6affa22e1263c91b719e6f9e9609fbbf01cdcca89f5580a0cd463d", "asm": "3045022100e73fdbf6299565b6948c573399f38d2535003453a5f03f49c63a7a37c29a802302203dcd5a1bc541aca9c7320fd746e611220e39b29b0726ecc45c85f3ecaee3af34[ALL] 02da8b90911b6affa22e1263c91b719e6f9e9609fbbf01cdcca89f5580a0cd463d"}, "vout": 1, "txid": "eb221f50cf50ba3c1d82c126d587a33e91779d56f0cf5b5b37483d688f3a568f"}], "txid": "d38ef7f758b3faba2524a8a758340ce168a973e30beef18179d98fc5aea6b59f", "blocktime": 1537875543, "version": 1, "confirmations": 11464, "time": 1537875543, "locktime": 0, "vsize": 224, "size": 224}