{"hash": "71aa779406ffe4e8ccf2469388079026571407e5fcb2e22f1312128d27cc98cf", "blockhash": "0000000000000000001e0dab787dd257d1dbfcb92a98c2207d5e1078be1f4165", "vout": [{"scriptPubKey": {"reqSigs": 1, "hex": "a91421b23e8ad2c0f5e5bb03674c8f01c690ce2c8b0387", "addresses": ["34mBkWHE6rtg2pH3Vgkwn6MfBfswZ4VaCo"], "asm": "OP_HASH160 21b23e8ad2c0f5e5bb03674c8f01c690ce2c8b03 OP_EQUAL", "type": "scripthash"}, "value": 0.01006115, "n": 0}, {"scriptPubKey": {"reqSigs": 1, "hex": "76a9142c2f33d1ed940a36a08247388ca4991858fd0e8788ac", "addresses": ["152dH86UEPzCpp1HZLTj3MkRbrKY8zvBxN"], "asm": "OP_DUP OP_HASH160 2c2f33d1ed940a36a08247388ca4991858fd0e87 OP_EQUALVERIFY OP_CHECKSIG", "type": "pubkeyhash"}, "value": 0.0024666, "n": 1}], "hex": "020000000001020079ca99696f35358e13d8dc0468c4a16597efbead8246b79c585d1ad01b2f920000000017160014e5ad792657e7fac0a54eae1c0d7fa060c8483e7ffeffffff87411bbf370b413f6c573b6a07490daaa2401274364cbe6a13cc73716a3e0ae90400000017160014666973bee0cf9c9c5e6a4d94e1dd049243805552feffffff02235a0f000000000017a91421b23e8ad2c0f5e5bb03674c8f01c690ce2c8b038784c30300000000001976a9142c2f33d1ed940a36a08247388ca4991858fd0e8788ac024730440220738bddf07deb2679add987e1b4ac8455db4501e1220622274e1b9bfa1b54fdc7022008387612c0443f8cf3c837a7a362ca150f6b2e7dd3b68989541de60a47d94452012103a83a6a4d017a271968d523ba185d6aaced0d27f500955e15c50ec99b7d85a71b0247304402205eaf5c49503d8222051c7ceae1e6fb236f2cfdf67f8ad2c6da11658409ad5a820220314a4e7f8b08d18704773739be039794ebd0e022ea4cb121ca93519a676ed084012103f75ca159b65cca63276bd518787197d63fabbbb69ac1bbca49c982d057c224b912490800", "vin": [{"txinwitness": ["30440220738bddf07deb2679add987e1b4ac8455db4501e1220622274e1b9bfa1b54fdc7022008387612c0443f8cf3c837a7a362ca150f6b2e7dd3b68989541de60a47d9445201", "03a83a6a4d017a271968d523ba185d6aaced0d27f500955e15c50ec99b7d85a71b"], "sequence": 4294967294, "scriptSig": {"hex": "160014e5ad792657e7fac0a54eae1c0d7fa060c8483e7f", "asm": "0014e5ad792657e7fac0a54eae1c0d7fa060c8483e7f"}, "vout": 0, "txid": "922f1bd01a5d589cb74682adbeef9765a1c46804dcd8138e35356f6999ca7900"}, {"txinwitness": ["304402205eaf5c49503d8222051c7ceae1e6fb236f2cfdf67f8ad2c6da11658409ad5a820220314a4e7f8b08d18704773739be039794ebd0e022ea4cb121ca93519a676ed08401", "03f75ca159b65cca63276bd518787197d63fabbbb69ac1bbca49c982d057c224b9"], "sequence": 4294967294, "scriptSig": {"hex": "160014666973bee0cf9c9c5e6a4d94e1dd049243805552", "asm": "0014666973bee0cf9c9c5e6a4d94e1dd049243805552"}, "vout": 4, "txid": "e90a3e6a7173cc136abe4c36741240a2aa0d49076a3b576c3f410b37bf1b4187"}], "txid": "d39047f8f2091c10a7d9da0482f078c2f4cf66e9ff2e6701470079857432b687", "blocktime": 1537872475, "version": 2, "confirmations": 11487, "time": 1537872475, "locktime": 542994, "vsize": 258, "size": 420}