{"hash": "a089de6a9e67016fa1b9bad29b891ceea2475251de05a42f4360d3bfae7c1377", "blockhash": "000000000000000000022b45ed06c6f4ccd3cf7fb5ba4856ebd2e58215665228", "vout": [{"scriptPubKey": {"reqSigs": 1, "hex": "76a914d61c05fd0d22f351b5144fea602b32a929019e5d88ac", "addresses": ["1LX7B9mVNWBK5xF2CXFKXw83YVZzxbbmRg"], "asm": "OP_DUP OP_HASH160 d61c05fd0d22f351b5144fea602b32a929019e5d OP_EQUALVERIFY OP_CHECKSIG", "type": "pubkeyhash"}, "value": 0.021, "n": 0}, {"scriptPubKey": {"reqSigs": 1, "hex": "a914627aa52932456d89054bd84f86246af3b71b93a887", "addresses": ["3Afj4stdiLG9EktGrMbm252ySonnhYaz8v"], "asm": "OP_HASH160 627aa52932456d89054bd84f86246af3b71b93a8 OP_EQUAL", "type": "scripthash"}, "value": 0.84404714, "n": 1}], "hex": "01000000000101eaa55cea34904ccf0260c9136090d3265dd9e14a0b3826e3640ab0c84c154ca001000000232200205fdd641234b13964b223bd85ad2a4a667ca2099df3d42a1d3b45706a8d81abf0ffffffff02200b2000000000001976a914d61c05fd0d22f351b5144fea602b32a929019e5d88aceae907050000000017a914627aa52932456d89054bd84f86246af3b71b93a88704004730440220442b9141c84f2f993e309a6e4c52dff952e193b12c21e6c5bcc5ea3abdaf45d802204d9b26573a7df9289776601b448e5f9d1cddd403a9869686e08a07956d2b563901483045022100a49816b15c8d52e32c5290071eaa04cb54cd434cb4852af5e17d9cda28bbe14d02201450d01eaca8ea08b9a582a4e5fb4ce269f344d4c44b32d359d3761fe039473d0147522103dcde3832fa56def7b4e783faad1b8af85c3cdd74a5ff4f3c7c216b1075c18da12103c70ae8ded79be1afda73b9ce5ea14a3878908ee160d66a9a717e792bb6db276952ae00000000", "vin": [{"txinwitness": ["", "30440220442b9141c84f2f993e309a6e4c52dff952e193b12c21e6c5bcc5ea3abdaf45d802204d9b26573a7df9289776601b448e5f9d1cddd403a9869686e08a07956d2b563901", "3045022100a49816b15c8d52e32c5290071eaa04cb54cd434cb4852af5e17d9cda28bbe14d02201450d01eaca8ea08b9a582a4e5fb4ce269f344d4c44b32d359d3761fe039473d01", "522103dcde3832fa56def7b4e783faad1b8af85c3cdd74a5ff4f3c7c216b1075c18da12103c70ae8ded79be1afda73b9ce5ea14a3878908ee160d66a9a717e792bb6db276952ae"], "sequence": 4294967295, "scriptSig": {"hex": "2200205fdd641234b13964b223bd85ad2a4a667ca2099df3d42a1d3b45706a8d81abf0", "asm": "00205fdd641234b13964b223bd85ad2a4a667ca2099df3d42a1d3b45706a8d81abf0"}, "vout": 1, "txid": "a04c154cc8b00a64e326380b4ae1d95d26d3906013c96002cf4c9034ea5ca5ea"}], "txid": "d392621036595f31062047ffcb93a2072884051006be1f175be1be307e954713", "blocktime": 1537869901, "version": 1, "confirmations": 11523, "time": 1537869901, "locktime": 0, "vsize": 208, "size": 373}