{"hash": "d39d2759718d37f5a0a7ff8d98d7be170b7e6105da07b451ee286c3e402e7b14", "blockhash": "0000000000000000000e13cef7c366c0283d82e591d1acd082e914b08063cdf1", "vout": [{"scriptPubKey": {"reqSigs": 1, "hex": "76a914f4dbdaafa47cf8ed2bd1a0cd85a13c491597d80e88ac", "addresses": ["1PKhFYjnB9ZiPG5aRw3fscrKaL3EP3E2zc"], "asm": "OP_DUP OP_HASH160 f4dbdaafa47cf8ed2bd1a0cd85a13c491597d80e OP_EQUALVERIFY OP_CHECKSIG", "type": "pubkeyhash"}, "value": 0.00015621, "n": 0}, {"scriptPubKey": {"reqSigs": 1, "hex": "76a9140b717622d44e315b6b8cfba04ed948894835304288ac", "addresses": ["123WMYyFR77YLxYUaBjYmF6rjKmGqS8otr"], "asm": "OP_DUP OP_HASH160 0b717622d44e315b6b8cfba04ed9488948353042 OP_EQUALVERIFY OP_CHECKSIG", "type": "pubkeyhash"}, "value": 0.00020553, "n": 1}], "hex": "0100000001db2d6659c13cc3eb37b054f168e2205cdd11ea8d4f39c2aa714d65134ea702a1010000006b483045022100c9d078808c465f0045968e9d257d03e10d2a95e65519e30c80f73fbe66f79863022073b0f3f84023bdeeceece28528710f338f93b6f0f61fe2cd57cc8fdeaebc71b6012103af2b751bcf2e8928cbf437f356e3ba01f0986f32e116c5d26c42c905f8e230cfffffffff02053d0000000000001976a914f4dbdaafa47cf8ed2bd1a0cd85a13c491597d80e88ac49500000000000001976a9140b717622d44e315b6b8cfba04ed948894835304288ac00000000", "vin": [{"sequence": 4294967295, "scriptSig": {"hex": "483045022100c9d078808c465f0045968e9d257d03e10d2a95e65519e30c80f73fbe66f79863022073b0f3f84023bdeeceece28528710f338f93b6f0f61fe2cd57cc8fdeaebc71b6012103af2b751bcf2e8928cbf437f356e3ba01f0986f32e116c5d26c42c905f8e230cf", "asm": "3045022100c9d078808c465f0045968e9d257d03e10d2a95e65519e30c80f73fbe66f79863022073b0f3f84023bdeeceece28528710f338f93b6f0f61fe2cd57cc8fdeaebc71b6[ALL] 03af2b751bcf2e8928cbf437f356e3ba01f0986f32e116c5d26c42c905f8e230cf"}, "vout": 1, "txid": "a102a74e13654d71aac2394f8dea11dd5c20e268f154b037ebc33cc159662ddb"}], "txid": "d39d2759718d37f5a0a7ff8d98d7be170b7e6105da07b451ee286c3e402e7b14", "blocktime": 1537871767, "version": 1, "confirmations": 11495, "time": 1537871767, "locktime": 0, "vsize": 226, "size": 226}