{"hash": "becacd6d831e5f2eb40334aedc4c194f9ab0e5b724475a23b2ce2284afc27b7d", "blockhash": "00000000000000000017f5eb5941039fbcee6240d03bc1f2f8e35350df66a1d8", "vout": [{"scriptPubKey": {"reqSigs": 1, "hex": "a914299d21d63ee64e9ed02d3c0cf167580980f3913987", "addresses": ["35V3s9HpTKMM2RiiiMmy8hnLVzG5YdF4QQ"], "asm": "OP_HASH160 299d21d63ee64e9ed02d3c0cf167580980f39139 OP_EQUAL", "type": "scripthash"}, "value": 0.21178089, "n": 0}, {"scriptPubKey": {"reqSigs": 1, "hex": "001499763b21bac0f8d6f07273b808876bf4368130e7", "addresses": ["bc1qn9mrkgd6cruddurjwwuq3pmt7smgzv88zxu4g5"], "asm": "0 99763b21bac0f8d6f07273b808876bf4368130e7", "type": "witness_v0_keyhash"}, "value": 0.31884418, "n": 1}], "hex": "01000000000101dda0ad3ed36bb9229d83374288062424d6ef074b9817564133ed1bfd3d0e7c620000000000ffffffff02e92643010000000017a914299d21d63ee64e9ed02d3c0cf167580980f39139878284e6010000000016001499763b21bac0f8d6f07273b808876bf4368130e70247304402203954cb59e2b2dd21efeafe0ad9ac1203e39636bcd8c8986688e67f06823fabb002206dee4156e351039a5c110bf29fe7a6be1f53a08e20e89fed29370d4a5d66f02d012103370b1e470e03ec29d39f8d8e259fa2d1d5f18ed80dfd9ac7095715b6de2c232700000000", "vin": [{"txinwitness": ["304402203954cb59e2b2dd21efeafe0ad9ac1203e39636bcd8c8986688e67f06823fabb002206dee4156e351039a5c110bf29fe7a6be1f53a08e20e89fed29370d4a5d66f02d01", "03370b1e470e03ec29d39f8d8e259fa2d1d5f18ed80dfd9ac7095715b6de2c2327"], "sequence": 4294967295, "scriptSig": {"hex": "", "asm": ""}, "vout": 0, "txid": "627c0e3dfd1bed33415617984b07efd6242406884237839d22b96bd33eada0dd"}], "txid": "d3a170357b5465006ed8a2ce2c96f811fc7c2d93ace41a37fe9de3be1519dc4e", "blocktime": 1537874412, "version": 1, "confirmations": 11467, "time": 1537874412, "locktime": 0, "vsize": 142, "size": 223}