{"hash": "a088b3a38eb42e88069bab5c864484b047c53f36e95790b8b0344ed2d36f78e2", "blockhash": "00000000000000000017f5eb5941039fbcee6240d03bc1f2f8e35350df66a1d8", "vout": [{"scriptPubKey": {"reqSigs": 1, "hex": "a91402607514e9a3f9496f490f2add95f76904d8f77a87", "addresses": ["31uapuFGhnNTgPmAqg6jPbHrQKpyhSmxzp"], "asm": "OP_HASH160 02607514e9a3f9496f490f2add95f76904d8f77a OP_EQUAL", "type": "scripthash"}, "value": 0.00046048, "n": 0}, {"scriptPubKey": {"reqSigs": 1, "hex": "76a914868713a9ad242146238b3c507d7266404833741588ac", "addresses": ["1DGKN1NbDUXSrUogS76bBgcPcSSJmn3a11"], "asm": "OP_DUP OP_HASH160 868713a9ad242146238b3c507d72664048337415 OP_EQUALVERIFY OP_CHECKSIG", "type": "pubkeyhash"}, "value": 0.02218, "n": 1}], "hex": "010000000001014f3acda5357f64e0e3c1b5ae1b2938c73f0109826c39555a171d63f460b27d4c010000002322002037d74bb396f6af109df3a96d3b56785c2015cf8dac52d70f8aa6a73d5c0ab865ffffffff02e0b300000000000017a91402607514e9a3f9496f490f2add95f76904d8f77a8710d82100000000001976a914868713a9ad242146238b3c507d7266404833741588ac0400483045022100984e1d89f0fae141f7af9354b60cff662e4bc532da24718b39c49f674abe2e3e0220494444d10a289c8ab12343ce5a80c4e254ad311ae352f649c9fd2899f0b49c830147304402206929a1be5f44cb193a5ab9f217f34e9e1d89facc66e1e4e70735ebe81c7a146002207652b3f35865cf8fb7b6c432988e5c0f8c641cd15f9509f9d666fb5160269a9f0169522102ba82964b39a392859ad870beacd15dc78b3d933f017c697f5263aa6e77027b1021036e088618e01ce8dab6ea273881d6b9b7e5e5a30fed010fe59eae710f425236b82103d4fa7351d934fc9c44f286c661a84b3b229b2f7b23773dd51b68bb6b1cb95fac53ae00000000", "vin": [{"txinwitness": ["", "3045022100984e1d89f0fae141f7af9354b60cff662e4bc532da24718b39c49f674abe2e3e0220494444d10a289c8ab12343ce5a80c4e254ad311ae352f649c9fd2899f0b49c8301", "304402206929a1be5f44cb193a5ab9f217f34e9e1d89facc66e1e4e70735ebe81c7a146002207652b3f35865cf8fb7b6c432988e5c0f8c641cd15f9509f9d666fb5160269a9f01", "522102ba82964b39a392859ad870beacd15dc78b3d933f017c697f5263aa6e77027b1021036e088618e01ce8dab6ea273881d6b9b7e5e5a30fed010fe59eae710f425236b82103d4fa7351d934fc9c44f286c661a84b3b229b2f7b23773dd51b68bb6b1cb95fac53ae"], "sequence": 4294967295, "scriptSig": {"hex": "22002037d74bb396f6af109df3a96d3b56785c2015cf8dac52d70f8aa6a73d5c0ab865", "asm": "002037d74bb396f6af109df3a96d3b56785c2015cf8dac52d70f8aa6a73d5c0ab865"}, "vout": 1, "txid": "4c7db260f4631d175a55396c8209013fc738291baeb5c1e3e0647f35a5cd3a4f"}], "txid": "d3a112e760c288211fc83addd339d6c8386a0084985f8cf2f2211fd1f84a84c4", "blocktime": 1537874412, "version": 1, "confirmations": 11467, "time": 1537874412, "locktime": 0, "vsize": 216, "size": 407}