{"hash": "d3b0e0bab92884dbc1ca9780c5c7e2e3b7706e096600f6a296d21b9c12af7f25", "blockhash": "0000000000000000000dcc0f55137456b1a82d3642486a52398922ac4d620174", "vout": [{"scriptPubKey": {"reqSigs": 1, "hex": "76a914c3ae487eb17a752edb6b447263330ea1420ca5af88ac", "addresses": ["1JqfYpFxeoPYxNGvM3BNUjmtfDGTNRvSQG"], "asm": "OP_DUP OP_HASH160 c3ae487eb17a752edb6b447263330ea1420ca5af OP_EQUALVERIFY OP_CHECKSIG", "type": "pubkeyhash"}, "value": 0.07087639, "n": 0}, {"scriptPubKey": {"reqSigs": 1, "hex": "76a914e4ad6a77dfbae5faec7c7ddc5eac53f4f72f93e788ac", "addresses": ["1Mr8otKCsWqm22XAiBFi2gK3BLD9RwVMCK"], "asm": "OP_DUP OP_HASH160 e4ad6a77dfbae5faec7c7ddc5eac53f4f72f93e7 OP_EQUALVERIFY OP_CHECKSIG", "type": "pubkeyhash"}, "value": 0.44778407, "n": 1}], "hex": "010000000252ee95c7c7830aae1250cc6c3189fb2fbc0d9b34b96ae10ea137213b28f9767d000000006b483045022100a19be58bffab0c8481f16688874b17f1b055293f55809158c3dbeee53e520386022070ede5d6f312740b920ed32b7797bd3801d79e122d9f2766f4dab1deca57acad0121033e21f8a496d5e81cca4a40580349b17cdb1c6ca29c9fe8fd96acf3f2cee03002ffffffff3241ee19f8ea4a1af8605f3b4850a592897aa42719ff31a38725517f69de9551050000006a4730440220557f0911924d601c488cc5f1ab259f162bed11c04a2014bf20addeb4e9fe67ad022063d2e33cf204e513adb7e90c96399c3ae402ceb9e88052df310c01e2e06f0db5012103cb7b751d67cb0e088e8151d47ef592eb3e279bcf0f1c1f07cc4dfbb9363bbc24ffffffff0217266c00000000001976a914c3ae487eb17a752edb6b447263330ea1420ca5af88aca743ab02000000001976a914e4ad6a77dfbae5faec7c7ddc5eac53f4f72f93e788ac00000000", "vin": [{"sequence": 4294967295, "scriptSig": {"hex": "483045022100a19be58bffab0c8481f16688874b17f1b055293f55809158c3dbeee53e520386022070ede5d6f312740b920ed32b7797bd3801d79e122d9f2766f4dab1deca57acad0121033e21f8a496d5e81cca4a40580349b17cdb1c6ca29c9fe8fd96acf3f2cee03002", "asm": "3045022100a19be58bffab0c8481f16688874b17f1b055293f55809158c3dbeee53e520386022070ede5d6f312740b920ed32b7797bd3801d79e122d9f2766f4dab1deca57acad[ALL] 033e21f8a496d5e81cca4a40580349b17cdb1c6ca29c9fe8fd96acf3f2cee03002"}, "vout": 0, "txid": "7d76f9283b2137a10ee16ab9349b0dbc2ffb89316ccc5012ae0a83c7c795ee52"}, {"sequence": 4294967295, "scriptSig": {"hex": "4730440220557f0911924d601c488cc5f1ab259f162bed11c04a2014bf20addeb4e9fe67ad022063d2e33cf204e513adb7e90c96399c3ae402ceb9e88052df310c01e2e06f0db5012103cb7b751d67cb0e088e8151d47ef592eb3e279bcf0f1c1f07cc4dfbb9363bbc24", "asm": "30440220557f0911924d601c488cc5f1ab259f162bed11c04a2014bf20addeb4e9fe67ad022063d2e33cf204e513adb7e90c96399c3ae402ceb9e88052df310c01e2e06f0db5[ALL] 03cb7b751d67cb0e088e8151d47ef592eb3e279bcf0f1c1f07cc4dfbb9363bbc24"}, "vout": 5, "txid": "5195de697f512587a331ff1927a47a8992a550483b5f60f81a4aeaf819ee4132"}], "txid": "d3b0e0bab92884dbc1ca9780c5c7e2e3b7706e096600f6a296d21b9c12af7f25", "blocktime": 1537870268, "version": 1, "confirmations": 11516, "time": 1537870268, "locktime": 0, "vsize": 373, "size": 373}