{"hash": "d3b017fd05ad8730385517eceb719628c321b5dccd3250b8c2b647f0e7def5fa", "blockhash": "00000000000000000004ffacab907a6b429b9a5745fa0b75af4234bf69dd7176", "vout": [{"scriptPubKey": {"reqSigs": 1, "hex": "76a914ef685501d5d5a0c56cd7bb12614a71315eb2c86c88ac", "addresses": ["1NpsUy2jc67zWDan5ZQUUC3PCsfmnTqRMi"], "asm": "OP_DUP OP_HASH160 ef685501d5d5a0c56cd7bb12614a71315eb2c86c OP_EQUALVERIFY OP_CHECKSIG", "type": "pubkeyhash"}, "value": 0.01878037, "n": 0}, {"scriptPubKey": {"reqSigs": 1, "hex": "76a914e0dab0008e97cb22dcf3a5e3ba392ffbecdc0b9988ac", "addresses": ["1MVvLeP3mc9kJw6TmdLawNWJ2GPK9S6cXm"], "asm": "OP_DUP OP_HASH160 e0dab0008e97cb22dcf3a5e3ba392ffbecdc0b99 OP_EQUALVERIFY OP_CHECKSIG", "type": "pubkeyhash"}, "value": 0.03253944, "n": 1}], "hex": "0100000001bf86d1f8fc285b0d4098094b8dc3ae7477dbd6b047a9d7d90915784154e3149f000000006a473044022061155e3889d8c642074a98e4a605bba9e56e4708d56ed7bfc14c18c61745235c02200dd05486c3fbafee89252563add2597350e6adf4b504c418ffb6fb8a786293440121033d34a5907b3e2462305b67b2d72fc2861c1ec0eacfe078ef7f584e9e434dceb1ffffffff0215a81c00000000001976a914ef685501d5d5a0c56cd7bb12614a71315eb2c86c88acb8a63100000000001976a914e0dab0008e97cb22dcf3a5e3ba392ffbecdc0b9988ac00000000", "vin": [{"sequence": 4294967295, "scriptSig": {"hex": "473044022061155e3889d8c642074a98e4a605bba9e56e4708d56ed7bfc14c18c61745235c02200dd05486c3fbafee89252563add2597350e6adf4b504c418ffb6fb8a786293440121033d34a5907b3e2462305b67b2d72fc2861c1ec0eacfe078ef7f584e9e434dceb1", "asm": "3044022061155e3889d8c642074a98e4a605bba9e56e4708d56ed7bfc14c18c61745235c02200dd05486c3fbafee89252563add2597350e6adf4b504c418ffb6fb8a78629344[ALL] 033d34a5907b3e2462305b67b2d72fc2861c1ec0eacfe078ef7f584e9e434dceb1"}, "vout": 0, "txid": "9f14e35441781509d9d7a947b0d6db7774aec38d4b0998400d5b28fcf8d186bf"}], "txid": "d3b017fd05ad8730385517eceb719628c321b5dccd3250b8c2b647f0e7def5fa", "blocktime": 1537875543, "version": 1, "confirmations": 11464, "time": 1537875543, "locktime": 0, "vsize": 225, "size": 225}