{"hash": "d3b6d8709f007df535e3431e591f4587954027fd0b60fdaa5aa408b61ee8e16a", "blockhash": "00000000000000000018f53835495a110e01622372bf6ae95dc86f2b0ab887b0", "vout": [{"scriptPubKey": {"reqSigs": 1, "hex": "76a9147cef45cfa976df6148e9889da0ef688d9c94a30288ac", "addresses": ["1CPbRkFFwWmt4sE5yRscSnvkrJ4TzZrvKy"], "asm": "OP_DUP OP_HASH160 7cef45cfa976df6148e9889da0ef688d9c94a302 OP_EQUALVERIFY OP_CHECKSIG", "type": "pubkeyhash"}, "value": 0.00015467, "n": 0}], "hex": "0100000009af52184f103a552dddce59b3fe50b3fb38599e91c967f41bfa7b3d808c49ec04660600008a47304402206d68c95e6ae5cbc7c1b1a11cd53f8316ea13f67c5be6676cc06608d782fa66010220012151404031d6a230b79ebe6a810acdafd0a28e9d55f5769534d6263e2ebf7c01410408cad9d1f716e63b27588a573450f6b46654a147950a6f2675983ba85a23de9297910fc441cf01818d3a48f165efdc05b72dbf83c18535daea4f136db0f27dbeffffffffd96f6563bc72b852d9ac2d0f7ef00b5432b5fb040626461e85b9c67fba22ff36c00500008a4730440220050279c64d16a97c214f546531fd9543f20b4923d6c33fbd5d50d3e3e123ac560220582fef267e9eddc887b306220705311017a8f4a3739573868096e92ba512084501410408cad9d1f716e63b27588a573450f6b46654a147950a6f2675983ba85a23de9297910fc441cf01818d3a48f165efdc05b72dbf83c18535daea4f136db0f27dbeffffffff271c76b36d238792e9f1b0f400837939f57c8b3a7986072f09e292a2e11dc838710600008b48304502210096282e88247362d13365aaae1536541594aecc04dc57d0c5b9366252876705d40220496c0611457aac22e9b39593e302d3737b2697ece597891f057a5ff54fa9eb1c01410408cad9d1f716e63b27588a573450f6b46654a147950a6f2675983ba85a23de9297910fc441cf01818d3a48f165efdc05b72dbf83c18535daea4f136db0f27dbeffffffff657e3d1f9b92a7090ebf203d60aacfab3870010bf52bba6a57ee71db17b6853e080500008a47304402202a31c978c42ebf4754d692461e55ed42d6153b665dd273ed9ce74220b95787d2022022e7674785c17c8ef220ddf28972a9b47a3d0d59f6827bb20e76dc899d504eaa01410408cad9d1f716e63b27588a573450f6b46654a147950a6f2675983ba85a23de9297910fc441cf01818d3a48f165efdc05b72dbf83c18535daea4f136db0f27dbeffffffff31331e6e95b6902605191fb9b3be1eca337d0310f04fcb50e0852d22a9227e49f50700008a47304402207f4e2d47a59a95f7039a53151bd40df2337623c4198c00c8787e2039684d73b70220312c5413179fcb30cb25005a7e99a8109471997658dfddd6b1a50cfbf26845f701410408cad9d1f716e63b27588a573450f6b46654a147950a6f2675983ba85a23de9297910fc441cf01818d3a48f165efdc05b72dbf83c18535daea4f136db0f27dbeffffffff3c03c129a9f507044014224a45152ea405f9f2e9c580b7723ae7d42dfb21757aa90300008b483045022100f303d55747cc87f86dffff8d23db2c3a8d96072ddea68591e777bb9de46a89eb022029cadb90effbd6e45c7f6823a61907b7f5131af0c8121984b9312abd7f9015c501410408cad9d1f716e63b27588a573450f6b46654a147950a6f2675983ba85a23de9297910fc441cf01818d3a48f165efdc05b72dbf83c18535daea4f136db0f27dbeffffffffa6765516a29d9ff4e27800cafe8f5cfc86e6138d00375dfb7ce9bcb60338b1a3f90400008b483045022100bd088edfb2c5f77d7e396ab416f814b525241336f169da4f407236d9871c7f6c022026178850c38cec2f36f5a775bdcdb2b777f0ca3d2c566f61c7defb3c909459a401410408cad9d1f716e63b27588a573450f6b46654a147950a6f2675983ba85a23de9297910fc441cf01818d3a48f165efdc05b72dbf83c18535daea4f136db0f27dbeffffffff0e51ea948cff9827a723ce44f31abb8c5e93fffc8089f61d08b3612e52e3b9f7360300008b483045022100da82e5e112fe3d1ff2d5e2de38162fdf94b85ac6edeabb8ca0edb3547387fcda0220225f0b78f7afd95ed2a4df3e502d085149f00f7f9b175a93b1dad0762ec126c801410408cad9d1f716e63b27588a573450f6b46654a147950a6f2675983ba85a23de9297910fc441cf01818d3a48f165efdc05b72dbf83c18535daea4f136db0f27dbeffffffff90e0fd5e2ea39b8823e99f6d9144a92c2c6c58ecab03f374db49195ccb3bd7fa790600008a473044022024dd00c72fa47327b612d4432a5f4c29ff5c14f883fcabaa8571d8ebb21ab43f02205490207d437d2396a6684ae1ca350adf366e2600f6c2edac52d19446d948ac0601410408cad9d1f716e63b27588a573450f6b46654a147950a6f2675983ba85a23de9297910fc441cf01818d3a48f165efdc05b72dbf83c18535daea4f136db0f27dbeffffffff016b3c0000000000001976a9147cef45cfa976df6148e9889da0ef688d9c94a30288ac00000000", "vin": [{"sequence": 4294967295, "scriptSig": {"hex": "47304402206d68c95e6ae5cbc7c1b1a11cd53f8316ea13f67c5be6676cc06608d782fa66010220012151404031d6a230b79ebe6a810acdafd0a28e9d55f5769534d6263e2ebf7c01410408cad9d1f716e63b27588a573450f6b46654a147950a6f2675983ba85a23de9297910fc441cf01818d3a48f165efdc05b72dbf83c18535daea4f136db0f27dbe", "asm": "304402206d68c95e6ae5cbc7c1b1a11cd53f8316ea13f67c5be6676cc06608d782fa66010220012151404031d6a230b79ebe6a810acdafd0a28e9d55f5769534d6263e2ebf7c[ALL] 0408cad9d1f716e63b27588a573450f6b46654a147950a6f2675983ba85a23de9297910fc441cf01818d3a48f165efdc05b72dbf83c18535daea4f136db0f27dbe"}, "vout": 1638, "txid": "04ec498c803d7bfa1bf467c9919e5938fbb350feb359cedd2d553a104f1852af"}, {"sequence": 4294967295, "scriptSig": {"hex": "4730440220050279c64d16a97c214f546531fd9543f20b4923d6c33fbd5d50d3e3e123ac560220582fef267e9eddc887b306220705311017a8f4a3739573868096e92ba512084501410408cad9d1f716e63b27588a573450f6b46654a147950a6f2675983ba85a23de9297910fc441cf01818d3a48f165efdc05b72dbf83c18535daea4f136db0f27dbe", "asm": "30440220050279c64d16a97c214f546531fd9543f20b4923d6c33fbd5d50d3e3e123ac560220582fef267e9eddc887b306220705311017a8f4a3739573868096e92ba5120845[ALL] 0408cad9d1f716e63b27588a573450f6b46654a147950a6f2675983ba85a23de9297910fc441cf01818d3a48f165efdc05b72dbf83c18535daea4f136db0f27dbe"}, "vout": 1472, "txid": "36ff22ba7fc6b9851e46260604fbb532540bf07e0f2dacd952b872bc63656fd9"}, {"sequence": 4294967295, "scriptSig": {"hex": "48304502210096282e88247362d13365aaae1536541594aecc04dc57d0c5b9366252876705d40220496c0611457aac22e9b39593e302d3737b2697ece597891f057a5ff54fa9eb1c01410408cad9d1f716e63b27588a573450f6b46654a147950a6f2675983ba85a23de9297910fc441cf01818d3a48f165efdc05b72dbf83c18535daea4f136db0f27dbe", "asm": "304502210096282e88247362d13365aaae1536541594aecc04dc57d0c5b9366252876705d40220496c0611457aac22e9b39593e302d3737b2697ece597891f057a5ff54fa9eb1c[ALL] 0408cad9d1f716e63b27588a573450f6b46654a147950a6f2675983ba85a23de9297910fc441cf01818d3a48f165efdc05b72dbf83c18535daea4f136db0f27dbe"}, "vout": 1649, "txid": "38c81de1a292e2092f0786793a8b7cf539798300f4b0f1e99287236db3761c27"}, {"sequence": 4294967295, "scriptSig": {"hex": "47304402202a31c978c42ebf4754d692461e55ed42d6153b665dd273ed9ce74220b95787d2022022e7674785c17c8ef220ddf28972a9b47a3d0d59f6827bb20e76dc899d504eaa01410408cad9d1f716e63b27588a573450f6b46654a147950a6f2675983ba85a23de9297910fc441cf01818d3a48f165efdc05b72dbf83c18535daea4f136db0f27dbe", "asm": "304402202a31c978c42ebf4754d692461e55ed42d6153b665dd273ed9ce74220b95787d2022022e7674785c17c8ef220ddf28972a9b47a3d0d59f6827bb20e76dc899d504eaa[ALL] 0408cad9d1f716e63b27588a573450f6b46654a147950a6f2675983ba85a23de9297910fc441cf01818d3a48f165efdc05b72dbf83c18535daea4f136db0f27dbe"}, "vout": 1288, "txid": "3e85b617db71ee576aba2bf50b017038abcfaa603d20bf0e09a7929b1f3d7e65"}, {"sequence": 4294967295, "scriptSig": {"hex": "47304402207f4e2d47a59a95f7039a53151bd40df2337623c4198c00c8787e2039684d73b70220312c5413179fcb30cb25005a7e99a8109471997658dfddd6b1a50cfbf26845f701410408cad9d1f716e63b27588a573450f6b46654a147950a6f2675983ba85a23de9297910fc441cf01818d3a48f165efdc05b72dbf83c18535daea4f136db0f27dbe", "asm": "304402207f4e2d47a59a95f7039a53151bd40df2337623c4198c00c8787e2039684d73b70220312c5413179fcb30cb25005a7e99a8109471997658dfddd6b1a50cfbf26845f7[ALL] 0408cad9d1f716e63b27588a573450f6b46654a147950a6f2675983ba85a23de9297910fc441cf01818d3a48f165efdc05b72dbf83c18535daea4f136db0f27dbe"}, "vout": 2037, "txid": "497e22a9222d85e050cb4ff010037d33ca1ebeb3b91f19052690b6956e1e3331"}, {"sequence": 4294967295, "scriptSig": {"hex": "483045022100f303d55747cc87f86dffff8d23db2c3a8d96072ddea68591e777bb9de46a89eb022029cadb90effbd6e45c7f6823a61907b7f5131af0c8121984b9312abd7f9015c501410408cad9d1f716e63b27588a573450f6b46654a147950a6f2675983ba85a23de9297910fc441cf01818d3a48f165efdc05b72dbf83c18535daea4f136db0f27dbe", "asm": "3045022100f303d55747cc87f86dffff8d23db2c3a8d96072ddea68591e777bb9de46a89eb022029cadb90effbd6e45c7f6823a61907b7f5131af0c8121984b9312abd7f9015c5[ALL] 0408cad9d1f716e63b27588a573450f6b46654a147950a6f2675983ba85a23de9297910fc441cf01818d3a48f165efdc05b72dbf83c18535daea4f136db0f27dbe"}, "vout": 937, "txid": "7a7521fb2dd4e73a72b780c5e9f2f905a42e15454a2214400407f5a929c1033c"}, {"sequence": 4294967295, "scriptSig": {"hex": "483045022100bd088edfb2c5f77d7e396ab416f814b525241336f169da4f407236d9871c7f6c022026178850c38cec2f36f5a775bdcdb2b777f0ca3d2c566f61c7defb3c909459a401410408cad9d1f716e63b27588a573450f6b46654a147950a6f2675983ba85a23de9297910fc441cf01818d3a48f165efdc05b72dbf83c18535daea4f136db0f27dbe", "asm": "3045022100bd088edfb2c5f77d7e396ab416f814b525241336f169da4f407236d9871c7f6c022026178850c38cec2f36f5a775bdcdb2b777f0ca3d2c566f61c7defb3c909459a4[ALL] 0408cad9d1f716e63b27588a573450f6b46654a147950a6f2675983ba85a23de9297910fc441cf01818d3a48f165efdc05b72dbf83c18535daea4f136db0f27dbe"}, "vout": 1273, "txid": "a3b13803b6bce97cfb5d37008d13e686fc5c8ffeca0078e2f49f9da2165576a6"}, {"sequence": 4294967295, "scriptSig": {"hex": "483045022100da82e5e112fe3d1ff2d5e2de38162fdf94b85ac6edeabb8ca0edb3547387fcda0220225f0b78f7afd95ed2a4df3e502d085149f00f7f9b175a93b1dad0762ec126c801410408cad9d1f716e63b27588a573450f6b46654a147950a6f2675983ba85a23de9297910fc441cf01818d3a48f165efdc05b72dbf83c18535daea4f136db0f27dbe", "asm": "3045022100da82e5e112fe3d1ff2d5e2de38162fdf94b85ac6edeabb8ca0edb3547387fcda0220225f0b78f7afd95ed2a4df3e502d085149f00f7f9b175a93b1dad0762ec126c8[ALL] 0408cad9d1f716e63b27588a573450f6b46654a147950a6f2675983ba85a23de9297910fc441cf01818d3a48f165efdc05b72dbf83c18535daea4f136db0f27dbe"}, "vout": 822, "txid": "f7b9e3522e61b3081df68980fcff935e8cbb1af344ce23a72798ff8c94ea510e"}, {"sequence": 4294967295, "scriptSig": {"hex": "473044022024dd00c72fa47327b612d4432a5f4c29ff5c14f883fcabaa8571d8ebb21ab43f02205490207d437d2396a6684ae1ca350adf366e2600f6c2edac52d19446d948ac0601410408cad9d1f716e63b27588a573450f6b46654a147950a6f2675983ba85a23de9297910fc441cf01818d3a48f165efdc05b72dbf83c18535daea4f136db0f27dbe", "asm": "3044022024dd00c72fa47327b612d4432a5f4c29ff5c14f883fcabaa8571d8ebb21ab43f02205490207d437d2396a6684ae1ca350adf366e2600f6c2edac52d19446d948ac06[ALL] 0408cad9d1f716e63b27588a573450f6b46654a147950a6f2675983ba85a23de9297910fc441cf01818d3a48f165efdc05b72dbf83c18535daea4f136db0f27dbe"}, "vout": 1657, "txid": "fad73bcb5c1949db74f303abec586c2c2ca944916d9fe923889ba32e5efde090"}], "txid": "d3b6d8709f007df535e3431e591f4587954027fd0b60fdaa5aa408b61ee8e16a", "blocktime": 1537870928, "version": 1, "confirmations": 11514, "time": 1537870928, "locktime": 0, "vsize": 1659, "size": 1659}