{"hash": "d3bf34184fa733fa2390231b5329031736e387446e6214954fe212cb43e2cdde", "blockhash": "0000000000000000000e13cef7c366c0283d82e591d1acd082e914b08063cdf1", "vout": [{"scriptPubKey": {"reqSigs": 1, "hex": "76a91444817fa1f77b5d78a22a416927da21f81a36d8e088ac", "addresses": ["17FE5mE7C7JcriTZxoVFRAgs2eRitoepMz"], "asm": "OP_DUP OP_HASH160 44817fa1f77b5d78a22a416927da21f81a36d8e0 OP_EQUALVERIFY OP_CHECKSIG", "type": "pubkeyhash"}, "value": 0.00085439, "n": 0}, {"scriptPubKey": {"reqSigs": 1, "hex": "76a914c16dd925221df8fb6805d4a1a5db010fa263100b88ac", "addresses": ["1Jdm1Qsd6QzhWAAxNi7FxgBjWm5UPG4V4P"], "asm": "OP_DUP OP_HASH160 c16dd925221df8fb6805d4a1a5db010fa263100b OP_EQUALVERIFY OP_CHECKSIG", "type": "pubkeyhash"}, "value": 2.0, "n": 1}], "hex": "0100000002583e76a1d48faaf00fa407a9fe07dc0ae8113d2f136048366f7bcbdbb4934836000000006b483045022100880e0df2efd6c53e47c0131a5070c16aa02fadbc9924f6baccbffecd400576900220054ced23b8bd3f3ca6cdd3b58c52735e26f90e5c444bb27d2a91e93e4f93b878012102ff72a66b865beaac782456b29ed2b947baea8156de3365de887a0d8184960e76ffffffffc9d3117831c3c2cf6dd7a47bbf6c56f3b046c8430865af76978b394940c7d3ed130000006a47304402201ab0f6b68dd5a089880b6552a47f3ef684c7adb89f26fc18b0558e5348ce56c7022048ee2227e5671616921946fe7615a770b63af0921dab14d2b8987e27d6f32c6a01210282f330f711db5da33696acaa8ddc0b2d7409f221ed15017d689ceba3f8056561ffffffff02bf4d0100000000001976a91444817fa1f77b5d78a22a416927da21f81a36d8e088ac00c2eb0b000000001976a914c16dd925221df8fb6805d4a1a5db010fa263100b88ac00000000", "vin": [{"sequence": 4294967295, "scriptSig": {"hex": "483045022100880e0df2efd6c53e47c0131a5070c16aa02fadbc9924f6baccbffecd400576900220054ced23b8bd3f3ca6cdd3b58c52735e26f90e5c444bb27d2a91e93e4f93b878012102ff72a66b865beaac782456b29ed2b947baea8156de3365de887a0d8184960e76", "asm": "3045022100880e0df2efd6c53e47c0131a5070c16aa02fadbc9924f6baccbffecd400576900220054ced23b8bd3f3ca6cdd3b58c52735e26f90e5c444bb27d2a91e93e4f93b878[ALL] 02ff72a66b865beaac782456b29ed2b947baea8156de3365de887a0d8184960e76"}, "vout": 0, "txid": "364893b4dbcb7b6f364860132f3d11e80adc07fea907a40ff0aa8fd4a1763e58"}, {"sequence": 4294967295, "scriptSig": {"hex": "47304402201ab0f6b68dd5a089880b6552a47f3ef684c7adb89f26fc18b0558e5348ce56c7022048ee2227e5671616921946fe7615a770b63af0921dab14d2b8987e27d6f32c6a01210282f330f711db5da33696acaa8ddc0b2d7409f221ed15017d689ceba3f8056561", "asm": "304402201ab0f6b68dd5a089880b6552a47f3ef684c7adb89f26fc18b0558e5348ce56c7022048ee2227e5671616921946fe7615a770b63af0921dab14d2b8987e27d6f32c6a[ALL] 0282f330f711db5da33696acaa8ddc0b2d7409f221ed15017d689ceba3f8056561"}, "vout": 19, "txid": "edd3c74049398b9776af650843c846b0f3566cbf7ba4d76dcfc2c3317811d3c9"}], "txid": "d3bf34184fa733fa2390231b5329031736e387446e6214954fe212cb43e2cdde", "blocktime": 1537871767, "version": 1, "confirmations": 11495, "time": 1537871767, "locktime": 0, "vsize": 373, "size": 373}