{"hash": "d3c27f2137c1a87c38f5cc653981c8d7337e0e4b4ac833b2a8785ee6b312a0c5", "blockhash": "0000000000000000001cda96e906b7601b7a6fb1a3b62bca570a9e5d8f4b3de1", "vout": [{"scriptPubKey": {"type": "nulldata", "hex": "6a4c50000077c500011ac8685b23cc0f42c2fc38c5e5bf9ae76da98a211aaf6c953dd567cf27e7dd8adcd0cd4bfb78da54f1f70f6253cd5baa134c06136d4758d12efcbc9a9526289ac0f6612cd74e33776ee4", "asm": "OP_RETURN 000077c500011ac8685b23cc0f42c2fc38c5e5bf9ae76da98a211aaf6c953dd567cf27e7dd8adcd0cd4bfb78da54f1f70f6253cd5baa134c06136d4758d12efcbc9a9526289ac0f6612cd74e33776ee4"}, "value": 0.0, "n": 0}, {"scriptPubKey": {"reqSigs": 1, "hex": "76a914977ee8331987a28a69584961ac9ce736a050613888ac", "addresses": ["1Ep34d3Q2KCgjibRQqrRqXpXM5BQMDUZzX"], "asm": "OP_DUP OP_HASH160 977ee8331987a28a69584961ac9ce736a0506138 OP_EQUALVERIFY OP_CHECKSIG", "type": "pubkeyhash"}, "value": 0.00113604, "n": 1}], "hex": "01000000015393511b97e8ce43935888f9918e19c806aaa75f40090e1c81bf2e43008f0cac010000006a473044022051cb792a808e2c97570c014c120a47afdb9c568f14e1d5d80d5abf84504c8bb2022012ff957c43557cf2b5a1747ed02db6749cf74ebc846d3458436d88e7093ba68801210245d93be3093b0a20396e44624bd396ce0c0ba6d878fbefa3dbc4cbb94357ec37ffffffff020000000000000000536a4c50000077c500011ac8685b23cc0f42c2fc38c5e5bf9ae76da98a211aaf6c953dd567cf27e7dd8adcd0cd4bfb78da54f1f70f6253cd5baa134c06136d4758d12efcbc9a9526289ac0f6612cd74e33776ee4c4bb0100000000001976a914977ee8331987a28a69584961ac9ce736a050613888ac00000000", "vin": [{"sequence": 4294967295, "scriptSig": {"hex": "473044022051cb792a808e2c97570c014c120a47afdb9c568f14e1d5d80d5abf84504c8bb2022012ff957c43557cf2b5a1747ed02db6749cf74ebc846d3458436d88e7093ba68801210245d93be3093b0a20396e44624bd396ce0c0ba6d878fbefa3dbc4cbb94357ec37", "asm": "3044022051cb792a808e2c97570c014c120a47afdb9c568f14e1d5d80d5abf84504c8bb2022012ff957c43557cf2b5a1747ed02db6749cf74ebc846d3458436d88e7093ba688[ALL] 0245d93be3093b0a20396e44624bd396ce0c0ba6d878fbefa3dbc4cbb94357ec37"}, "vout": 1, "txid": "ac0c8f00432ebf811c0e09405fa7aa06c8198e91f988589343cee8971b519353"}], "txid": "d3c27f2137c1a87c38f5cc653981c8d7337e0e4b4ac833b2a8785ee6b312a0c5", "blocktime": 1537873282, "version": 1, "confirmations": 11484, "time": 1537873282, "locktime": 0, "vsize": 283, "size": 283}