{"hash": "d3d09956478d82f0cbd5971c6c722527a03b79dba57cc246f0a63b9c0c867a34", "blockhash": "0000000000000000000e13cef7c366c0283d82e591d1acd082e914b08063cdf1", "vout": [{"scriptPubKey": {"reqSigs": 1, "hex": "76a914dc51fb7ef49385e328a8b85990a2db8cb4f33f5588ac", "addresses": ["1M5wsSXZPjbJSdwr81wMfTqr5WPpACx2yg"], "asm": "OP_DUP OP_HASH160 dc51fb7ef49385e328a8b85990a2db8cb4f33f55 OP_EQUALVERIFY OP_CHECKSIG", "type": "pubkeyhash"}, "value": 7.821e-05, "n": 0}], "hex": "0100000001d01237ada952f9230df69adf6a34521b239d8bcbec87da2037c21b46f9c7810d000000006a47304402207a38e4f00a349a04458941b2bcc2eca55fe9a51f7d142aee7502dd4f99fbfbd50220183d6ede561bad5f4e15c4d720fd417d4ffe3651751f67125a24596fb3d45bc5012102c63d6a40b1bc232f6367deb6eb0a0894c47efe0f7c4ea33ef3999014937f3caaffffffff018d1e0000000000001976a914dc51fb7ef49385e328a8b85990a2db8cb4f33f5588ac00000000", "vin": [{"sequence": 4294967295, "scriptSig": {"hex": "47304402207a38e4f00a349a04458941b2bcc2eca55fe9a51f7d142aee7502dd4f99fbfbd50220183d6ede561bad5f4e15c4d720fd417d4ffe3651751f67125a24596fb3d45bc5012102c63d6a40b1bc232f6367deb6eb0a0894c47efe0f7c4ea33ef3999014937f3caa", "asm": "304402207a38e4f00a349a04458941b2bcc2eca55fe9a51f7d142aee7502dd4f99fbfbd50220183d6ede561bad5f4e15c4d720fd417d4ffe3651751f67125a24596fb3d45bc5[ALL] 02c63d6a40b1bc232f6367deb6eb0a0894c47efe0f7c4ea33ef3999014937f3caa"}, "vout": 0, "txid": "0d81c7f9461bc23720da87eccb8b9d231b52346adf9af60d23f952a9ad3712d0"}], "txid": "d3d09956478d82f0cbd5971c6c722527a03b79dba57cc246f0a63b9c0c867a34", "blocktime": 1537871767, "version": 1, "confirmations": 11490, "time": 1537871767, "locktime": 0, "vsize": 191, "size": 191}