{"hash": "33ffa466820dfc43021888931d5166a1d66d888de9424e29a3d7bb77110dd922", "blockhash": "0000000000000000000baef3f32e3676a92c3b2e5da21b426e4f302fc371ce76", "vout": [{"scriptPubKey": {"reqSigs": 1, "hex": "76a91485db7cab769f93a69785c13cc1e0df51be1f9d8b88ac", "addresses": ["1DCmojk8DoVM3CmvYCzyJbGfcHzZstF2vU"], "asm": "OP_DUP OP_HASH160 85db7cab769f93a69785c13cc1e0df51be1f9d8b OP_EQUALVERIFY OP_CHECKSIG", "type": "pubkeyhash"}, "value": 2.605e-05, "n": 0}, {"scriptPubKey": {"reqSigs": 1, "hex": "a9148ddb66c3371910a0ef8f38021cc4094e61e69f3a87", "addresses": ["3Ed62sPENkraPwpovPty9YMFGJ8FtTyv63"], "asm": "OP_HASH160 8ddb66c3371910a0ef8f38021cc4094e61e69f3a OP_EQUAL", "type": "scripthash"}, "value": 0.00017611, "n": 1}], "hex": "010000000001011bbd761f8b021db0f718ba0f4d2dbdbc3b137bcb24ff1569181a063ae966d96d0100000023220020fdd23d707f55451c4e006c77b5e8df35a185a8e99f9bda70bf0ded7913bb1eb3ffffffff022d0a0000000000001976a91485db7cab769f93a69785c13cc1e0df51be1f9d8b88accb4400000000000017a9148ddb66c3371910a0ef8f38021cc4094e61e69f3a8704004830450221009839a5412511a06715f14361669cacf4dc8b1f1f4d1625fa7f5d502a6b2e41f702207107ce274e2894865cfb4f89cf672cdef01227b151aeaf077d6d2232d9cc27ae0148304502210088d6c7be6fb4a80153e0272e140a15e5261528414372eaef2c2b3cc818ddaee5022049a6330e9b1f2adb222cd3adf3b454401b66d20fb4f15177461e11aab6b454d2014752210286c104577b978160849865bc23f9a6df9b53d41c8ffb486754b97b2a474a181c2103148c80a5bdfddb05ff5bcffc397c8ca748d8b435ec6a175bc9d7bfc7fc6f853752ae00000000", "vin": [{"txinwitness": ["", "30450221009839a5412511a06715f14361669cacf4dc8b1f1f4d1625fa7f5d502a6b2e41f702207107ce274e2894865cfb4f89cf672cdef01227b151aeaf077d6d2232d9cc27ae01", "304502210088d6c7be6fb4a80153e0272e140a15e5261528414372eaef2c2b3cc818ddaee5022049a6330e9b1f2adb222cd3adf3b454401b66d20fb4f15177461e11aab6b454d201", "52210286c104577b978160849865bc23f9a6df9b53d41c8ffb486754b97b2a474a181c2103148c80a5bdfddb05ff5bcffc397c8ca748d8b435ec6a175bc9d7bfc7fc6f853752ae"], "sequence": 4294967295, "scriptSig": {"hex": "220020fdd23d707f55451c4e006c77b5e8df35a185a8e99f9bda70bf0ded7913bb1eb3", "asm": "0020fdd23d707f55451c4e006c77b5e8df35a185a8e99f9bda70bf0ded7913bb1eb3"}, "vout": 1, "txid": "6dd966e93a061a186915ff24cb7b133bbcbd2d4d0fba18f7b01d028b1f76bd1b"}], "txid": "d3d459f53f75f861c2ae62b655b009443cb901623b7ec185a41c929b44fcfc2e", "blocktime": 1537876114, "version": 1, "confirmations": 11460, "time": 1537876114, "locktime": 0, "vsize": 208, "size": 374}