{"hash": "d3d5f334c657a1959d54e6fd6e1a67c88286e93114e330abe7ea36d0c31402fa", "blockhash": "0000000000000000000baef3f32e3676a92c3b2e5da21b426e4f302fc371ce76", "vout": [{"scriptPubKey": {"reqSigs": 1, "hex": "a9147cba06b28ed55d34ef059207bd6fadbd49fb2ff287", "addresses": ["3D4WZewtLx2sJU1125PfQBpG4SN6NjUje5"], "asm": "OP_HASH160 7cba06b28ed55d34ef059207bd6fadbd49fb2ff2 OP_EQUAL", "type": "scripthash"}, "value": 0.0172, "n": 0}, {"scriptPubKey": {"reqSigs": 1, "hex": "a914e370231feecbfc25e2e2423a5a79bf79bfdca59887", "addresses": ["3NRbeX3vD5VaVE4TDU9ivCDsEf7NPPte6J"], "asm": "OP_HASH160 e370231feecbfc25e2e2423a5a79bf79bfdca598 OP_EQUAL", "type": "scripthash"}, "value": 8.84220702, "n": 1}], "hex": "010000000114cb384e77c3d3b85aef04f8ef2b002467b61995706c4592443828deb6a8547c01000000da00483045022100cbf435af3e79a6bec04ea23d751d6ed0edd0a61f58330e9d64fdb457429799ff022008b292e47876d7a619da47fd550c278a16a15c9b1c9323fd486a8303c045404301473044022055b79ab5d4c01c54c68d6f95d4047cd4903145b085beb52c93a5667c0ce7824f02202f81c1ff98c64a3c036e38eb0b3a92b56143b35624b752cb7413d39a6dc947f5014752210327881b6abce6535553a3ce21fad12a7d74fd237ce7c4cd270a267162344e3082210256141f8eb687f5a68c5cc65054652dc25116fa285e44d72b44368827ffe77d9a52aeffffffff02c03e1a000000000017a9147cba06b28ed55d34ef059207bd6fadbd49fb2ff2871e23b4340000000017a914e370231feecbfc25e2e2423a5a79bf79bfdca5988700000000", "vin": [{"sequence": 4294967295, "scriptSig": {"hex": "00483045022100cbf435af3e79a6bec04ea23d751d6ed0edd0a61f58330e9d64fdb457429799ff022008b292e47876d7a619da47fd550c278a16a15c9b1c9323fd486a8303c045404301473044022055b79ab5d4c01c54c68d6f95d4047cd4903145b085beb52c93a5667c0ce7824f02202f81c1ff98c64a3c036e38eb0b3a92b56143b35624b752cb7413d39a6dc947f5014752210327881b6abce6535553a3ce21fad12a7d74fd237ce7c4cd270a267162344e3082210256141f8eb687f5a68c5cc65054652dc25116fa285e44d72b44368827ffe77d9a52ae", "asm": "0 3045022100cbf435af3e79a6bec04ea23d751d6ed0edd0a61f58330e9d64fdb457429799ff022008b292e47876d7a619da47fd550c278a16a15c9b1c9323fd486a8303c0454043[ALL] 3044022055b79ab5d4c01c54c68d6f95d4047cd4903145b085beb52c93a5667c0ce7824f02202f81c1ff98c64a3c036e38eb0b3a92b56143b35624b752cb7413d39a6dc947f5[ALL] 52210327881b6abce6535553a3ce21fad12a7d74fd237ce7c4cd270a267162344e3082210256141f8eb687f5a68c5cc65054652dc25116fa285e44d72b44368827ffe77d9a52ae"}, "vout": 1, "txid": "7c54a8b6de28384492456c709519b66724002beff804ef5ab8d3c3774e38cb14"}], "txid": "d3d5f334c657a1959d54e6fd6e1a67c88286e93114e330abe7ea36d0c31402fa", "blocktime": 1537876114, "version": 1, "confirmations": 11460, "time": 1537876114, "locktime": 0, "vsize": 333, "size": 333}