{"hash": "d3e171eb690b579172f300bf44e921b7c5ab66903d687df2c95a54511d35ad4b", "blockhash": "0000000000000000000baef3f32e3676a92c3b2e5da21b426e4f302fc371ce76", "vout": [{"scriptPubKey": {"reqSigs": 1, "hex": "a91404420e54e84bb95d3d89c54f737ec223fdcbcfc987", "addresses": ["325XkxhsY372QP8R7MiadKZaMmSxnqyp5X"], "asm": "OP_HASH160 04420e54e84bb95d3d89c54f737ec223fdcbcfc9 OP_EQUAL", "type": "scripthash"}, "value": 0.00361987, "n": 0}, {"scriptPubKey": {"reqSigs": 1, "hex": "76a9140985079bc9df32493d0acb98ae00280b89ddf2c888ac", "addresses": ["1sLSo2QwMwSgr3ccwfUJuptYfffab4J5k"], "asm": "OP_DUP OP_HASH160 0985079bc9df32493d0acb98ae00280b89ddf2c8 OP_EQUALVERIFY OP_CHECKSIG", "type": "pubkeyhash"}, "value": 0.08438381, "n": 1}], "hex": "01000000019c10da7ad1d57619c16da66176b84458f262742b901f27b89d9a680e13f473af010000006b48304502210090f1c472e35a73e17f412e73d2c7ac5ff7b6b33616ea3261ad5f7e54f117faa2022027ce640a5b9adf71709a26135bb635c24a921798e30366ce55cd2f928614c72101210257328b987d5d6433960ad62584a9d5cb99b24eddaa5647b8d42dafa71e6c93a2ffffffff02038605000000000017a91404420e54e84bb95d3d89c54f737ec223fdcbcfc9876dc28000000000001976a9140985079bc9df32493d0acb98ae00280b89ddf2c888ac00000000", "vin": [{"sequence": 4294967295, "scriptSig": {"hex": "48304502210090f1c472e35a73e17f412e73d2c7ac5ff7b6b33616ea3261ad5f7e54f117faa2022027ce640a5b9adf71709a26135bb635c24a921798e30366ce55cd2f928614c72101210257328b987d5d6433960ad62584a9d5cb99b24eddaa5647b8d42dafa71e6c93a2", "asm": "304502210090f1c472e35a73e17f412e73d2c7ac5ff7b6b33616ea3261ad5f7e54f117faa2022027ce640a5b9adf71709a26135bb635c24a921798e30366ce55cd2f928614c721[ALL] 0257328b987d5d6433960ad62584a9d5cb99b24eddaa5647b8d42dafa71e6c93a2"}, "vout": 1, "txid": "af73f4130e689a9db8271f902b7462f25844b87661a66dc11976d5d17ada109c"}], "txid": "d3e171eb690b579172f300bf44e921b7c5ab66903d687df2c95a54511d35ad4b", "blocktime": 1537876114, "version": 1, "confirmations": 11460, "time": 1537876114, "locktime": 0, "vsize": 224, "size": 224}