{"hash": "d3e7c7ce9887c88e53b28b5389634b2ce829d4b99fbb4dae185e7848ebf812c1", "blockhash": "0000000000000000000e13cef7c366c0283d82e591d1acd082e914b08063cdf1", "vout": [{"scriptPubKey": {"reqSigs": 1, "hex": "76a9144d9c510dc144e088a070eebfdbe11fd710842daa88ac", "addresses": ["185NHqiDbVgvMd1a5YiMJrmKeDZjwFR3mM"], "asm": "OP_DUP OP_HASH160 4d9c510dc144e088a070eebfdbe11fd710842daa OP_EQUALVERIFY OP_CHECKSIG", "type": "pubkeyhash"}, "value": 0.03923716, "n": 0}, {"scriptPubKey": {"reqSigs": 1, "hex": "a914c01c8f132810b87aba8c3fc3be40dd620375df9987", "addresses": ["3KCosgURzSUoTuyR9Y5SKmtNwHzCwcm79Z"], "asm": "OP_HASH160 c01c8f132810b87aba8c3fc3be40dd620375df99 OP_EQUAL", "type": "scripthash"}, "value": 0.07239, "n": 1}], "hex": "010000000125d5ad71cfc76650838009d56063ef8cdd00c4cf827f50702bdbe02cd0ffed64010000006b483045022100a1ef1b646644c540a6df382ee7e454395444f6b7feeed1b52fd4ddb9dbc29bfc022032bb463079e03996ce80824281c1a80b23b51fa64fe99a4cdea1f5d5deaff8cb0121032c548b35d82abd313614af0358846a87e1e89e2b4c19121e33ab0c345e01f809ffffffff0204df3b00000000001976a9144d9c510dc144e088a070eebfdbe11fd710842daa88ac58756e000000000017a914c01c8f132810b87aba8c3fc3be40dd620375df998700000000", "vin": [{"sequence": 4294967295, "scriptSig": {"hex": "483045022100a1ef1b646644c540a6df382ee7e454395444f6b7feeed1b52fd4ddb9dbc29bfc022032bb463079e03996ce80824281c1a80b23b51fa64fe99a4cdea1f5d5deaff8cb0121032c548b35d82abd313614af0358846a87e1e89e2b4c19121e33ab0c345e01f809", "asm": "3045022100a1ef1b646644c540a6df382ee7e454395444f6b7feeed1b52fd4ddb9dbc29bfc022032bb463079e03996ce80824281c1a80b23b51fa64fe99a4cdea1f5d5deaff8cb[ALL] 032c548b35d82abd313614af0358846a87e1e89e2b4c19121e33ab0c345e01f809"}, "vout": 1, "txid": "64edffd02ce0db2b70507f82cfc400dd8cef6360d50980835066c7cf71add525"}], "txid": "d3e7c7ce9887c88e53b28b5389634b2ce829d4b99fbb4dae185e7848ebf812c1", "blocktime": 1537871767, "version": 1, "confirmations": 11495, "time": 1537871767, "locktime": 0, "vsize": 224, "size": 224}