{"hash": "d3e823f3b33f41503bcc12256edfd6a1ce5b646b4bd7eb9f0f909f65cf0d12d8", "blockhash": "0000000000000000000e13cef7c366c0283d82e591d1acd082e914b08063cdf1", "vout": [{"scriptPubKey": {"reqSigs": 1, "hex": "76a91431fd05ee221af7fba05eb4fd99235d319712ca7a88ac", "addresses": ["15ZKDkvrximtvgzbLbKCTFVXnKXr9DRDNG"], "asm": "OP_DUP OP_HASH160 31fd05ee221af7fba05eb4fd99235d319712ca7a OP_EQUALVERIFY OP_CHECKSIG", "type": "pubkeyhash"}, "value": 0.005743, "n": 0}, {"scriptPubKey": {"reqSigs": 1, "hex": "76a9145fabd41f688a98f5c5b2de91f03a1e9e27818dba88ac", "addresses": ["19is35ueYArdENDmD9bULwUySWx1TVXTaj"], "asm": "OP_DUP OP_HASH160 5fabd41f688a98f5c5b2de91f03a1e9e27818dba OP_EQUALVERIFY OP_CHECKSIG", "type": "pubkeyhash"}, "value": 0.18622084, "n": 1}], "hex": "0100000001d79eb5414e55af3fe82ee2eb5c09ebf7eca8abf8acfebe16d3f12040aac92fe5010000006a47304402203119ca441ed7d502234d67ab837a9d33523086b8df03484d999c6e95dd61b51d02205bdbddca306cb2c042a877e32c03cb442fe25489c17f7a292fac354c6924a37a01210232716ffd50540cdc7db837cfbefe5b5c63dc0fa664d8652e7f10933ddb664b31fdffffff025cc30800000000001976a91431fd05ee221af7fba05eb4fd99235d319712ca7a88ac84261c01000000001976a9145fabd41f688a98f5c5b2de91f03a1e9e27818dba88ac10490800", "vin": [{"sequence": 4294967293, "scriptSig": {"hex": "47304402203119ca441ed7d502234d67ab837a9d33523086b8df03484d999c6e95dd61b51d02205bdbddca306cb2c042a877e32c03cb442fe25489c17f7a292fac354c6924a37a01210232716ffd50540cdc7db837cfbefe5b5c63dc0fa664d8652e7f10933ddb664b31", "asm": "304402203119ca441ed7d502234d67ab837a9d33523086b8df03484d999c6e95dd61b51d02205bdbddca306cb2c042a877e32c03cb442fe25489c17f7a292fac354c6924a37a[ALL] 0232716ffd50540cdc7db837cfbefe5b5c63dc0fa664d8652e7f10933ddb664b31"}, "vout": 1, "txid": "e52fc9aa4020f1d316befeacf8aba8ecf7eb095cebe22ee83faf554e41b59ed7"}], "txid": "d3e823f3b33f41503bcc12256edfd6a1ce5b646b4bd7eb9f0f909f65cf0d12d8", "blocktime": 1537871767, "version": 1, "confirmations": 11493, "time": 1537871767, "locktime": 542992, "vsize": 225, "size": 225}