{"hash": "d3eacac471e9ad90ee05971adfa9765d086604cf688f515fbf5ab11078e84b77", "blockhash": "0000000000000000000dcc0f55137456b1a82d3642486a52398922ac4d620174", "vout": [{"scriptPubKey": {"reqSigs": 1, "hex": "a9149ea1b86aa7818518ace2940c6c3fcbd32403f2fa87", "addresses": ["3G9nRP6Y4YQ4Ztdy18k5EXAnuktkJUfTxn"], "asm": "OP_HASH160 9ea1b86aa7818518ace2940c6c3fcbd32403f2fa OP_EQUAL", "type": "scripthash"}, "value": 0.007792, "n": 0}, {"scriptPubKey": {"reqSigs": 1, "hex": "76a914bdfc605f4ef650d3e9e62d8c2b1856d882d06a6488ac", "addresses": ["1JKZ3gQY4kXz9xJanL8ND3nrxTgPDhLXtR"], "asm": "OP_DUP OP_HASH160 bdfc605f4ef650d3e9e62d8c2b1856d882d06a64 OP_EQUALVERIFY OP_CHECKSIG", "type": "pubkeyhash"}, "value": 0.03151381, "n": 1}], "hex": "0100000001ca39ffdfbf1c98779947c562e7402eb778124786ea30fd146b9e1db81c1913d9010000006a47304402206af9182a74290377d16ea06cc598b1ff7efe3bc51fd65e843042e557c72a21560220170cc47dcc6711ed9fa88d525d7ff5f54543636d53abd2de77ebca0461ae7adc012102ec846f49f6b1e6d860a0ed7cbf93d1d2b3089d1e6a08da04c4739d5b30fa18b5ffffffff02c0e30b000000000017a9149ea1b86aa7818518ace2940c6c3fcbd32403f2fa8715163000000000001976a914bdfc605f4ef650d3e9e62d8c2b1856d882d06a6488ac00000000", "vin": [{"sequence": 4294967295, "scriptSig": {"hex": "47304402206af9182a74290377d16ea06cc598b1ff7efe3bc51fd65e843042e557c72a21560220170cc47dcc6711ed9fa88d525d7ff5f54543636d53abd2de77ebca0461ae7adc012102ec846f49f6b1e6d860a0ed7cbf93d1d2b3089d1e6a08da04c4739d5b30fa18b5", "asm": "304402206af9182a74290377d16ea06cc598b1ff7efe3bc51fd65e843042e557c72a21560220170cc47dcc6711ed9fa88d525d7ff5f54543636d53abd2de77ebca0461ae7adc[ALL] 02ec846f49f6b1e6d860a0ed7cbf93d1d2b3089d1e6a08da04c4739d5b30fa18b5"}, "vout": 1, "txid": "d913191cb81d9e6b14fd30ea86471278b72e40e762c5479977981cbfdfff39ca"}], "txid": "d3eacac471e9ad90ee05971adfa9765d086604cf688f515fbf5ab11078e84b77", "blocktime": 1537870268, "version": 1, "confirmations": 11518, "time": 1537870268, "locktime": 0, "vsize": 223, "size": 223}