{"hash": "d3f9f978ed51815db3ae432a9054d77976400d2ba4f0888e78ba6abafb5170b0", "blockhash": "0000000000000000000dcc0f55137456b1a82d3642486a52398922ac4d620174", "vout": [{"scriptPubKey": {"reqSigs": 1, "hex": "76a91483710df1a48bf2e989c2b7c5404933f42670294788ac", "addresses": ["1CyzxHwABZPc5nUEaLLHwHVYPvR8ofwM74"], "asm": "OP_DUP OP_HASH160 83710df1a48bf2e989c2b7c5404933f426702947 OP_EQUALVERIFY OP_CHECKSIG", "type": "pubkeyhash"}, "value": 0.00026782, "n": 0}, {"scriptPubKey": {"reqSigs": 1, "hex": "a914604b340e159ac1ceefb9181c0d068cda4dacacdd87", "addresses": ["3AUAtBLs7ZGRBBhLGZHjy7ZZtpfuY3WXDW"], "asm": "OP_HASH160 604b340e159ac1ceefb9181c0d068cda4dacacdd OP_EQUAL", "type": "scripthash"}, "value": 0.00798169, "n": 1}, {"scriptPubKey": {"reqSigs": 1, "hex": "76a91436beab1a1eb7efd4d7653374dc4ffe40e1bfd6a388ac", "addresses": ["15zTuEJDE2FLG73jN18YrnQaicFLZPt1AA"], "asm": "OP_DUP OP_HASH160 36beab1a1eb7efd4d7653374dc4ffe40e1bfd6a3 OP_EQUALVERIFY OP_CHECKSIG", "type": "pubkeyhash"}, "value": 8.346e-05, "n": 2}], "hex": "0100000005be7c874a31cf7897d402b3258fec06ca35895f29200a74f4d64afcc540e1d2a9000000006a473044022075f5fdfa1c20205e1605c000ababb778d9ddafe5bf867e183057df845799aa0602204e605f7689517a7f11f647949b0585b73283d25d0a7de7baf030c82e79b3a21201210323c209e496094a1abbea4f1d73dde3bbc92b0460882a75f5bb94fdceda0f489dffffffff5d50e3e1a4240ec204d5ba2b5a5ffc59de6b579b76f2325c7642586a7a7be471000000006b483045022100ddca889d0a60f6afff4538ed8214431fb20527bd22b1f1c50629772633b540ea022042ad86ad6f9344265a1df0a5253608d75eba3ec31c4910570b81ac05c93167f40121037555cc9854c86e4d3bbe79979c3dfa563a1e84c8abcaeab6281ef4f37b3f9e15ffffffff90433756ccf477060a2641b75d6bfda207d7b0dc798796f12103a00857128d21000000006b483045022100dcf57d96a150ed32ea86b86e7713a789fb9f02399e6c7d72a4e4eb4b874df4d20220203c32b2654b5741a74508835afd2058d88a28f37ec86708f0fc80f4ee1f79680121038703cec81cdb99f619592afb2b200baca721999baaadaa79db098bdff3ef27f9ffffffff5161f85626f21d23b25d9634163be22f68bc72486ef01daed5f13bcd2ed25016010000006b48304502210081348a81917f4bd27740ef193bd7d2308bf31e9fe43f573b35b732e29ed5761e0220282688459036b04c95e6c551e3f9b01b04468fc644047a69b50e22555c6166f5012103302140ce096b49ba501c93c83d9416614481dd9e87b1601f1f33b185eee8db0affffffffcc798ccbb52557b598aca2e1240a3617601fef7dcafa91e8ef4b17d519e1b190020000006a473044022023fac70a895fa6526e06e85c795f8cfe125c2bce08ca9451b6fb99f7c72549bc02200912badb8ffb166d02891582b0d538a4b3a26ed240a403af0b52d5cd46b623a40121035c12cec53d1f3ba6dad9908151166486da0c11d5d0df330ee61c620442963301ffffffff039e680000000000001976a91483710df1a48bf2e989c2b7c5404933f42670294788acd92d0c000000000017a914604b340e159ac1ceefb9181c0d068cda4dacacdd879a200000000000001976a91436beab1a1eb7efd4d7653374dc4ffe40e1bfd6a388ac00000000", "vin": [{"sequence": 4294967295, "scriptSig": {"hex": "473044022075f5fdfa1c20205e1605c000ababb778d9ddafe5bf867e183057df845799aa0602204e605f7689517a7f11f647949b0585b73283d25d0a7de7baf030c82e79b3a21201210323c209e496094a1abbea4f1d73dde3bbc92b0460882a75f5bb94fdceda0f489d", "asm": "3044022075f5fdfa1c20205e1605c000ababb778d9ddafe5bf867e183057df845799aa0602204e605f7689517a7f11f647949b0585b73283d25d0a7de7baf030c82e79b3a212[ALL] 0323c209e496094a1abbea4f1d73dde3bbc92b0460882a75f5bb94fdceda0f489d"}, "vout": 0, "txid": "a9d2e140c5fc4ad6f4740a20295f8935ca06ec8f25b302d49778cf314a877cbe"}, {"sequence": 4294967295, "scriptSig": {"hex": "483045022100ddca889d0a60f6afff4538ed8214431fb20527bd22b1f1c50629772633b540ea022042ad86ad6f9344265a1df0a5253608d75eba3ec31c4910570b81ac05c93167f40121037555cc9854c86e4d3bbe79979c3dfa563a1e84c8abcaeab6281ef4f37b3f9e15", "asm": "3045022100ddca889d0a60f6afff4538ed8214431fb20527bd22b1f1c50629772633b540ea022042ad86ad6f9344265a1df0a5253608d75eba3ec31c4910570b81ac05c93167f4[ALL] 037555cc9854c86e4d3bbe79979c3dfa563a1e84c8abcaeab6281ef4f37b3f9e15"}, "vout": 0, "txid": "71e47b7a6a5842765c32f2769b576bde59fc5f5a2bbad504c20e24a4e1e3505d"}, {"sequence": 4294967295, "scriptSig": {"hex": "483045022100dcf57d96a150ed32ea86b86e7713a789fb9f02399e6c7d72a4e4eb4b874df4d20220203c32b2654b5741a74508835afd2058d88a28f37ec86708f0fc80f4ee1f79680121038703cec81cdb99f619592afb2b200baca721999baaadaa79db098bdff3ef27f9", "asm": "3045022100dcf57d96a150ed32ea86b86e7713a789fb9f02399e6c7d72a4e4eb4b874df4d20220203c32b2654b5741a74508835afd2058d88a28f37ec86708f0fc80f4ee1f7968[ALL] 038703cec81cdb99f619592afb2b200baca721999baaadaa79db098bdff3ef27f9"}, "vout": 0, "txid": "218d125708a00321f1968779dcb0d707a2fd6b5db741260a0677f4cc56374390"}, {"sequence": 4294967295, "scriptSig": {"hex": "48304502210081348a81917f4bd27740ef193bd7d2308bf31e9fe43f573b35b732e29ed5761e0220282688459036b04c95e6c551e3f9b01b04468fc644047a69b50e22555c6166f5012103302140ce096b49ba501c93c83d9416614481dd9e87b1601f1f33b185eee8db0a", "asm": "304502210081348a81917f4bd27740ef193bd7d2308bf31e9fe43f573b35b732e29ed5761e0220282688459036b04c95e6c551e3f9b01b04468fc644047a69b50e22555c6166f5[ALL] 03302140ce096b49ba501c93c83d9416614481dd9e87b1601f1f33b185eee8db0a"}, "vout": 1, "txid": "1650d22ecd3bf1d5ae1df06e4872bc682fe23b1634965db2231df22656f86151"}, {"sequence": 4294967295, "scriptSig": {"hex": "473044022023fac70a895fa6526e06e85c795f8cfe125c2bce08ca9451b6fb99f7c72549bc02200912badb8ffb166d02891582b0d538a4b3a26ed240a403af0b52d5cd46b623a40121035c12cec53d1f3ba6dad9908151166486da0c11d5d0df330ee61c620442963301", "asm": "3044022023fac70a895fa6526e06e85c795f8cfe125c2bce08ca9451b6fb99f7c72549bc02200912badb8ffb166d02891582b0d538a4b3a26ed240a403af0b52d5cd46b623a4[ALL] 035c12cec53d1f3ba6dad9908151166486da0c11d5d0df330ee61c620442963301"}, "vout": 2, "txid": "90b1e119d5174befe891faca7def1f6017360a24e1a2ac98b55725b5cb8c79cc"}], "txid": "d3f9f978ed51815db3ae432a9054d77976400d2ba4f0888e78ba6abafb5170b0", "blocktime": 1537870268, "version": 1, "confirmations": 11518, "time": 1537870268, "locktime": 0, "vsize": 848, "size": 848}