{"hash": "d3fe190c64f0e6230747f7db0d49d700756f12a8d200e8a81c6177ef4bd2c465", "blockhash": "00000000000000000017f5eb5941039fbcee6240d03bc1f2f8e35350df66a1d8", "vout": [{"scriptPubKey": {"reqSigs": 1, "hex": "76a9141d7980b2ec3b77a4b0e85f2b1dbf7dd8143f267288ac", "addresses": ["13gr9iogag187UecaonoFcCpWf3pErW62H"], "asm": "OP_DUP OP_HASH160 1d7980b2ec3b77a4b0e85f2b1dbf7dd8143f2672 OP_EQUALVERIFY OP_CHECKSIG", "type": "pubkeyhash"}, "value": 0.02199, "n": 0}, {"scriptPubKey": {"reqSigs": 1, "hex": "76a914459b8ed8e7b768c300addb8e9c9fdce022b828e088ac", "addresses": ["17M3ybY2DchecB6rAoZni5vGfaWL1ZUJC8"], "asm": "OP_DUP OP_HASH160 459b8ed8e7b768c300addb8e9c9fdce022b828e0 OP_EQUALVERIFY OP_CHECKSIG", "type": "pubkeyhash"}, "value": 0.1213, "n": 1}], "hex": "0100000001427604b524391e285a31485567941ddd07f4e12214f620abbd0ef701ce4888bf060000006a47304402200be54097c6ef58a096f35ac5175675316f801b85da5a4e61fe795ff7c3b1baaf0220528e80b97a2d35ec938b74f65e16c47535e5e070497eae645cbe100d873c3ae4012102529b239183726997731ed4dba5fe7230413ffcf00d5a45ec26e0952f5fbdd153fdffffff02d88d2100000000001976a9141d7980b2ec3b77a4b0e85f2b1dbf7dd8143f267288acd016b900000000001976a914459b8ed8e7b768c300addb8e9c9fdce022b828e088ac15490800", "vin": [{"sequence": 4294967293, "scriptSig": {"hex": "47304402200be54097c6ef58a096f35ac5175675316f801b85da5a4e61fe795ff7c3b1baaf0220528e80b97a2d35ec938b74f65e16c47535e5e070497eae645cbe100d873c3ae4012102529b239183726997731ed4dba5fe7230413ffcf00d5a45ec26e0952f5fbdd153", "asm": "304402200be54097c6ef58a096f35ac5175675316f801b85da5a4e61fe795ff7c3b1baaf0220528e80b97a2d35ec938b74f65e16c47535e5e070497eae645cbe100d873c3ae4[ALL] 02529b239183726997731ed4dba5fe7230413ffcf00d5a45ec26e0952f5fbdd153"}, "vout": 6, "txid": "bf8848ce01f70ebdab20f61422e1f407dd1d94675548315a281e3924b5047642"}], "txid": "d3fe190c64f0e6230747f7db0d49d700756f12a8d200e8a81c6177ef4bd2c465", "blocktime": 1537874412, "version": 1, "confirmations": 11466, "time": 1537874412, "locktime": 542997, "vsize": 225, "size": 225}