{"hash": "d401a4a10c1b8b2dc164afe8f8f86d94436558ef4df0f708bbbb9badf120b0de", "blockhash": "00000000000000000004ffacab907a6b429b9a5745fa0b75af4234bf69dd7176", "vout": [{"scriptPubKey": {"reqSigs": 1, "hex": "76a914f4555f7f17d7d212c0f543aadc951751b062b08788ac", "addresses": ["1PGv9dUndHyhKn1z2WjqSYVknr2CXWsM5s"], "asm": "OP_DUP OP_HASH160 f4555f7f17d7d212c0f543aadc951751b062b087 OP_EQUALVERIFY OP_CHECKSIG", "type": "pubkeyhash"}, "value": 0.00967551, "n": 0}], "hex": "010000000117a694ae8f6713db2577d455e852dfba4019900f89b6e9d50b48e4c3abf366d5010000006b483045022100a7e95387f63ac1be717bceae6204de1b0506db3ab67f2cf5000b1fa612f4259502204d7cd0aeb9891eee21f5910ef6a4df90f1371c62b16bddc3182155830357ef5e012103e3daddbf39b9954d7e6adb2b3a7ab943e93be36cba3ff22f2d47aa09a0e8a150ffffffff017fc30e00000000001976a914f4555f7f17d7d212c0f543aadc951751b062b08788ac00000000", "vin": [{"sequence": 4294967295, "scriptSig": {"hex": "483045022100a7e95387f63ac1be717bceae6204de1b0506db3ab67f2cf5000b1fa612f4259502204d7cd0aeb9891eee21f5910ef6a4df90f1371c62b16bddc3182155830357ef5e012103e3daddbf39b9954d7e6adb2b3a7ab943e93be36cba3ff22f2d47aa09a0e8a150", "asm": "3045022100a7e95387f63ac1be717bceae6204de1b0506db3ab67f2cf5000b1fa612f4259502204d7cd0aeb9891eee21f5910ef6a4df90f1371c62b16bddc3182155830357ef5e[ALL] 03e3daddbf39b9954d7e6adb2b3a7ab943e93be36cba3ff22f2d47aa09a0e8a150"}, "vout": 1, "txid": "d566f3abc3e4480bd5e9b6890f901940badf52e855d47725db13678fae94a617"}], "txid": "d401a4a10c1b8b2dc164afe8f8f86d94436558ef4df0f708bbbb9badf120b0de", "blocktime": 1537875543, "version": 1, "confirmations": 11464, "time": 1537875543, "locktime": 0, "vsize": 192, "size": 192}