{"hash": "c6445f161febcd6b9d0a065cecc80d97812ddcd0bf8075a29f276732f5dd7706", "blockhash": "00000000000000000018f53835495a110e01622372bf6ae95dc86f2b0ab887b0", "vout": [{"scriptPubKey": {"reqSigs": 1, "hex": "00142904ffb346a016df838b0d5e01161bf2cf1248de", "addresses": ["bc1q9yz0lv6x5qtdlqutp40qz9sm7t83yjx782k0hr"], "asm": "0 2904ffb346a016df838b0d5e01161bf2cf1248de", "type": "witness_v0_keyhash"}, "value": 3.619e-05, "n": 0}, {"scriptPubKey": {"reqSigs": 1, "hex": "76a91484a9ba797a678a6f0937def6537615b196ebc20488ac", "addresses": ["1D6TXG1Ja7Dw6ZkJLzhcvm1isDGrgWRL7c"], "asm": "OP_DUP OP_HASH160 84a9ba797a678a6f0937def6537615b196ebc204 OP_EQUALVERIFY OP_CHECKSIG", "type": "pubkeyhash"}, "value": 0.002344, "n": 1}], "hex": "0100000000010131d78475e79be238c2ca9a963405cf6c288f020f4e919f1a5659fd87b02bc2310000000000ffffffff02230e0000000000001600142904ffb346a016df838b0d5e01161bf2cf1248dea0930300000000001976a91484a9ba797a678a6f0937def6537615b196ebc20488ac02473044022055563701e4a21cdb012140d9ffbafcce191ad2ea802c3c7c3a070fa5fa4f38dc022055556eb43ab01a4ad15622c12eea9e529d5cd890cf5c585d3d03a1314bcc67cf01210241348eab07a753906e088e08af275d2954953541fcdd35f92fc7bfc4e56293c300000000", "vin": [{"txinwitness": ["3044022055563701e4a21cdb012140d9ffbafcce191ad2ea802c3c7c3a070fa5fa4f38dc022055556eb43ab01a4ad15622c12eea9e529d5cd890cf5c585d3d03a1314bcc67cf01", "0241348eab07a753906e088e08af275d2954953541fcdd35f92fc7bfc4e56293c3"], "sequence": 4294967295, "scriptSig": {"hex": "", "asm": ""}, "vout": 0, "txid": "31c22bb087fd59561a9f914e0f028f286ccf0534969acac238e29be77584d731"}], "txid": "d4030abd6c2b0c91ac911e4fcd319257a1eab6cc1d3005e97ed3a27184a14915", "blocktime": 1537870928, "version": 1, "confirmations": 11514, "time": 1537870928, "locktime": 0, "vsize": 144, "size": 225}