{"hash": "d405a052e6e8ae271400e9a7811205f327943e1b7a32b0586613f3775e0c22b3", "blockhash": "0000000000000000001f0ddff1eddb255c1121bcd4da4f1bc9a0da00cae72433", "vout": [{"scriptPubKey": {"reqSigs": 1, "hex": "76a91441366e05843b2da25833f20a6edc625abfed89b288ac", "addresses": ["16wp8KKQ1T8wZrRz8StGxpb8pJmyugAgYw"], "asm": "OP_DUP OP_HASH160 41366e05843b2da25833f20a6edc625abfed89b2 OP_EQUALVERIFY OP_CHECKSIG", "type": "pubkeyhash"}, "value": 0.00042, "n": 0}, {"scriptPubKey": {"reqSigs": 1, "hex": "76a914f0b4d385f11d93ccdc7d4a0caf43cd7cb45047df88ac", "addresses": ["1Nwjo4xi5VGdk5Z97pzcQhpJAKKzD2JETn"], "asm": "OP_DUP OP_HASH160 f0b4d385f11d93ccdc7d4a0caf43cd7cb45047df OP_EQUALVERIFY OP_CHECKSIG", "type": "pubkeyhash"}, "value": 0.01637376, "n": 1}], "hex": "0100000001c6ff9e43510a69c7ddf357d902b2602979f2038954dc5ebb2b1e594bf314a795010000006a47304402205013db7ec9ecfe0094c6aaf2d74b7757f8b833f8f546d1927b67d2fcf389d96c022060c1f14de807dce83d1814420a49bbe7499a6e63a1e95cc3fefd774b826666f8012102844c1a78cfb541aee4c6094013c4730c18a25e4622eb42008c34399d8392c691ffffffff0210a40000000000001976a91441366e05843b2da25833f20a6edc625abfed89b288ac00fc1800000000001976a914f0b4d385f11d93ccdc7d4a0caf43cd7cb45047df88ac00000000", "vin": [{"sequence": 4294967295, "scriptSig": {"hex": "47304402205013db7ec9ecfe0094c6aaf2d74b7757f8b833f8f546d1927b67d2fcf389d96c022060c1f14de807dce83d1814420a49bbe7499a6e63a1e95cc3fefd774b826666f8012102844c1a78cfb541aee4c6094013c4730c18a25e4622eb42008c34399d8392c691", "asm": "304402205013db7ec9ecfe0094c6aaf2d74b7757f8b833f8f546d1927b67d2fcf389d96c022060c1f14de807dce83d1814420a49bbe7499a6e63a1e95cc3fefd774b826666f8[ALL] 02844c1a78cfb541aee4c6094013c4730c18a25e4622eb42008c34399d8392c691"}, "vout": 1, "txid": "95a714f34b591e2bbb5edc548903f2792960b202d957f3ddc7690a51439effc6"}], "txid": "d405a052e6e8ae271400e9a7811205f327943e1b7a32b0586613f3775e0c22b3", "blocktime": 1537872018, "version": 1, "confirmations": 11489, "time": 1537872018, "locktime": 0, "vsize": 225, "size": 225}