{"hash": "d418aa45049836640e9192f711d73e1e19644f80a8ae4ca6f4eb813aa309e0fb", "blockhash": "0000000000000000001f0ddff1eddb255c1121bcd4da4f1bc9a0da00cae72433", "vout": [{"scriptPubKey": {"reqSigs": 1, "hex": "76a91418d1053eec8937907672a266a216a57154e4af9388ac", "addresses": ["13GDcbw4YLWYY3vje37c6QbrFUgGmQafon"], "asm": "OP_DUP OP_HASH160 18d1053eec8937907672a266a216a57154e4af93 OP_EQUALVERIFY OP_CHECKSIG", "type": "pubkeyhash"}, "value": 0.03299646, "n": 0}, {"scriptPubKey": {"reqSigs": 1, "hex": "a9148e78cf013d36c172f22b8bebac1ed25943b8d38987", "addresses": ["3EgLbiKactiGERskS15bYxrkBe87XZbWTf"], "asm": "OP_HASH160 8e78cf013d36c172f22b8bebac1ed25943b8d389 OP_EQUAL", "type": "scripthash"}, "value": 1.7, "n": 1}], "hex": "01000000010fae7d18355976bbbab5eb0b3ca6c8faa5b51f4532c485b1325b27bb997fc248000000006b483045022100bf5996e8abfdf7377190560b39dd348b0f8f367704b749d16da6525f06ee767f02203e1d593296d2d2d98e34639111990e8be3700db23d16288962d51da7d84ed9990121029d4e87c487d7eceab59400160de4ea93f74c145ceeaa3c774daedc2879b42f17ffffffff023e593200000000001976a91418d1053eec8937907672a266a216a57154e4af9388ac80fe210a0000000017a9148e78cf013d36c172f22b8bebac1ed25943b8d3898700000000", "vin": [{"sequence": 4294967295, "scriptSig": {"hex": "483045022100bf5996e8abfdf7377190560b39dd348b0f8f367704b749d16da6525f06ee767f02203e1d593296d2d2d98e34639111990e8be3700db23d16288962d51da7d84ed9990121029d4e87c487d7eceab59400160de4ea93f74c145ceeaa3c774daedc2879b42f17", "asm": "3045022100bf5996e8abfdf7377190560b39dd348b0f8f367704b749d16da6525f06ee767f02203e1d593296d2d2d98e34639111990e8be3700db23d16288962d51da7d84ed999[ALL] 029d4e87c487d7eceab59400160de4ea93f74c145ceeaa3c774daedc2879b42f17"}, "vout": 0, "txid": "48c27f99bb275b32b185c432451fb5a5fac8a63c0bebb5babb765935187dae0f"}], "txid": "d418aa45049836640e9192f711d73e1e19644f80a8ae4ca6f4eb813aa309e0fb", "blocktime": 1537872018, "version": 1, "confirmations": 11489, "time": 1537872018, "locktime": 0, "vsize": 224, "size": 224}