{"hash": "d419bf89836081e5e4b768260a43b3f9e24cbab1a2878cd1adc533e897515ee0", "blockhash": "0000000000000000001cda96e906b7601b7a6fb1a3b62bca570a9e5d8f4b3de1", "vout": [{"scriptPubKey": {"reqSigs": 1, "hex": "76a91495d4ed33bb7d6364eb7e88444f29c4945cbff4dd88ac", "addresses": ["1EfEkyrUCnFUVfRmavW1WhaYmC7wbmdLKY"], "asm": "OP_DUP OP_HASH160 95d4ed33bb7d6364eb7e88444f29c4945cbff4dd OP_EQUALVERIFY OP_CHECKSIG", "type": "pubkeyhash"}, "value": 0.22468013, "n": 0}, {"scriptPubKey": {"reqSigs": 1, "hex": "76a9141872e748208db1594adf13de666ec2c15c969ed588ac", "addresses": ["13EGsEeE9H8TYPTZt4kR9pU3qsVbDFsVaM"], "asm": "OP_DUP OP_HASH160 1872e748208db1594adf13de666ec2c15c969ed5 OP_EQUALVERIFY OP_CHECKSIG", "type": "pubkeyhash"}, "value": 1.87153654, "n": 1}], "hex": "0100000001c7f93e1b4ef79dfe6cc3698b77fc37e06107ee8a0b817a354237767ac4ce45cb000000006a4730440220275d45d837f121c34cb3fc967ccae68fd84dd10c8cac7f7db101a04da01a407d02203028beac424dea09f595fb79e571c51cbfeb95fde51448af69f8e35d8e05692001210289df972024da392360fe345866b68d80b347d488cca637af14bf7b701b0504f9ffffffff02add55601000000001976a91495d4ed33bb7d6364eb7e88444f29c4945cbff4dd88acf6bc270b000000001976a9141872e748208db1594adf13de666ec2c15c969ed588ac00000000", "vin": [{"sequence": 4294967295, "scriptSig": {"hex": "4730440220275d45d837f121c34cb3fc967ccae68fd84dd10c8cac7f7db101a04da01a407d02203028beac424dea09f595fb79e571c51cbfeb95fde51448af69f8e35d8e05692001210289df972024da392360fe345866b68d80b347d488cca637af14bf7b701b0504f9", "asm": "30440220275d45d837f121c34cb3fc967ccae68fd84dd10c8cac7f7db101a04da01a407d02203028beac424dea09f595fb79e571c51cbfeb95fde51448af69f8e35d8e056920[ALL] 0289df972024da392360fe345866b68d80b347d488cca637af14bf7b701b0504f9"}, "vout": 0, "txid": "cb45cec47a763742357a810b8aee0761e037fc778b69c36cfe9df74e1b3ef9c7"}], "txid": "d419bf89836081e5e4b768260a43b3f9e24cbab1a2878cd1adc533e897515ee0", "blocktime": 1537873282, "version": 1, "confirmations": 11485, "time": 1537873282, "locktime": 0, "vsize": 225, "size": 225}