{"hash": "d41e00d4974af703106ec5608e355f04252504fd90c3128200070bf8b088e0c0", "blockhash": "00000000000000000004ffacab907a6b429b9a5745fa0b75af4234bf69dd7176", "vout": [{"scriptPubKey": {"reqSigs": 1, "hex": "a9140018abfd4bfed1c55aff61ae6f4354037b676eaf87", "addresses": ["31hXUmn1DyEe9R4BUWAvxhBat2vNFjt56W"], "asm": "OP_HASH160 0018abfd4bfed1c55aff61ae6f4354037b676eaf OP_EQUAL", "type": "scripthash"}, "value": 0.0051267, "n": 0}, {"scriptPubKey": {"reqSigs": 1, "hex": "76a9145f55caa533111f877db3e3f4731a899d88fd90ca88ac", "addresses": ["19h5y8QENwsqEc9AuRpbyv4urzAM395qbw"], "asm": "OP_DUP OP_HASH160 5f55caa533111f877db3e3f4731a899d88fd90ca OP_EQUALVERIFY OP_CHECKSIG", "type": "pubkeyhash"}, "value": 0.17606276, "n": 1}], "hex": "01000000017c745e2794f6565ef53940c0e72ccabacdfc5b9e15b6da121b5c2d23b38c7880010000006a47304402206434e98eac6e86a24655deb4239a31b7b5d3d5ce8549f42057f5d635491be66c02201068a83ba1302676062e0b4cce97053f9abede5b340013a18cf8eded3157dc85012102d628d4600dad54ac9dc1c47c5a46a054c296ebfba42e57bb1264708609d0563cffffffff029ed207000000000017a9140018abfd4bfed1c55aff61ae6f4354037b676eaf8784a60c01000000001976a9145f55caa533111f877db3e3f4731a899d88fd90ca88ac00000000", "vin": [{"sequence": 4294967295, "scriptSig": {"hex": "47304402206434e98eac6e86a24655deb4239a31b7b5d3d5ce8549f42057f5d635491be66c02201068a83ba1302676062e0b4cce97053f9abede5b340013a18cf8eded3157dc85012102d628d4600dad54ac9dc1c47c5a46a054c296ebfba42e57bb1264708609d0563c", "asm": "304402206434e98eac6e86a24655deb4239a31b7b5d3d5ce8549f42057f5d635491be66c02201068a83ba1302676062e0b4cce97053f9abede5b340013a18cf8eded3157dc85[ALL] 02d628d4600dad54ac9dc1c47c5a46a054c296ebfba42e57bb1264708609d0563c"}, "vout": 1, "txid": "80788cb3232d5c1b12dab6159e5bfccdbaca2ce7c04039f55e56f694275e747c"}], "txid": "d41e00d4974af703106ec5608e355f04252504fd90c3128200070bf8b088e0c0", "blocktime": 1537875543, "version": 1, "confirmations": 11464, "time": 1537875543, "locktime": 0, "vsize": 223, "size": 223}