{"hash": "d4243b4ce1303c6063f9a1bc6d10f45eb684c14ec0e804c0e5cd3d584d632e67", "blockhash": "0000000000000000001f76057863aec43deb6fa401d9628bb513d65a8098bfab", "vout": [{"scriptPubKey": {"reqSigs": 1, "hex": "76a91418a0c4424296c9607c480f5a497248032844ec9588ac", "addresses": ["13FDosCyvGjVHUHAf1H5RhyBdRyEuTgR9e"], "asm": "OP_DUP OP_HASH160 18a0c4424296c9607c480f5a497248032844ec95 OP_EQUALVERIFY OP_CHECKSIG", "type": "pubkeyhash"}, "value": 0.00780608, "n": 0}, {"scriptPubKey": {"reqSigs": 1, "hex": "76a9148af5999ccd2a1d3e34002c69b98c64c85689436d88ac", "addresses": ["1DfkU4fTB8PS2u19Dx7qeiEHkg12TPVHNk"], "asm": "OP_DUP OP_HASH160 8af5999ccd2a1d3e34002c69b98c64c85689436d OP_EQUALVERIFY OP_CHECKSIG", "type": "pubkeyhash"}, "value": 0.03500387, "n": 1}], "hex": "01000000033d035b8175bd5a21c9734264c67ba1eb329b34d9033d7122bde0174dc4a74635000000006b483045022100f633a1d264c5707a8536422fed7a17288eee20d5712748d5e25aebf53487be1102206c931fee1451949cc99993c4c947c47349c512798a61741ae72d35fff5df9034012102735266b5e5f52047b690c113613a00a83dbc11d01dd2730a93f3d1328e256108ffffffffb659f1d1946d999b7ebafcd2218cf31ba578b84321825c8a55316713af6f2971010000006b483045022100fe0739e1f7048da4ade04c103af996c9dc201e073d2056d526daeec159977d22022013222d98d2315ac2ed0ff9858f5d1ca9fb565d6a4adc7206f694c3b8af6d21e0012103dd472f097e8a438a2003615ba1533faded661cfedb812f35375744c7c50b0b83ffffffff00ddd4e97a59870487896d946d23664194608cf8fe1993942bad32e6f5c63191010000006b483045022100b8182023a05e8537a2911ca1f3b10ca83dad628c09b17637b81bcfe1de8188e0022071dc862be5bcd08b3c3a9341f239c7b70beb70076ded7fef36cfdaa4e793069601210204bf3b69bd8d75624594bf42bfb184c5042ef2be268b00abb4701d5ce17ef882ffffffff0240e90b00000000001976a91418a0c4424296c9607c480f5a497248032844ec9588ac63693500000000001976a9148af5999ccd2a1d3e34002c69b98c64c85689436d88ac00000000", "vin": [{"sequence": 4294967295, "scriptSig": {"hex": "483045022100f633a1d264c5707a8536422fed7a17288eee20d5712748d5e25aebf53487be1102206c931fee1451949cc99993c4c947c47349c512798a61741ae72d35fff5df9034012102735266b5e5f52047b690c113613a00a83dbc11d01dd2730a93f3d1328e256108", "asm": "3045022100f633a1d264c5707a8536422fed7a17288eee20d5712748d5e25aebf53487be1102206c931fee1451949cc99993c4c947c47349c512798a61741ae72d35fff5df9034[ALL] 02735266b5e5f52047b690c113613a00a83dbc11d01dd2730a93f3d1328e256108"}, "vout": 0, "txid": "3546a7c44d17e0bd22713d03d9349b32eba17bc6644273c9215abd75815b033d"}, {"sequence": 4294967295, "scriptSig": {"hex": "483045022100fe0739e1f7048da4ade04c103af996c9dc201e073d2056d526daeec159977d22022013222d98d2315ac2ed0ff9858f5d1ca9fb565d6a4adc7206f694c3b8af6d21e0012103dd472f097e8a438a2003615ba1533faded661cfedb812f35375744c7c50b0b83", "asm": "3045022100fe0739e1f7048da4ade04c103af996c9dc201e073d2056d526daeec159977d22022013222d98d2315ac2ed0ff9858f5d1ca9fb565d6a4adc7206f694c3b8af6d21e0[ALL] 03dd472f097e8a438a2003615ba1533faded661cfedb812f35375744c7c50b0b83"}, "vout": 1, "txid": "71296faf136731558a5c822143b878a51bf38c21d2fcba7e9b996d94d1f159b6"}, {"sequence": 4294967295, "scriptSig": {"hex": "483045022100b8182023a05e8537a2911ca1f3b10ca83dad628c09b17637b81bcfe1de8188e0022071dc862be5bcd08b3c3a9341f239c7b70beb70076ded7fef36cfdaa4e793069601210204bf3b69bd8d75624594bf42bfb184c5042ef2be268b00abb4701d5ce17ef882", "asm": "3045022100b8182023a05e8537a2911ca1f3b10ca83dad628c09b17637b81bcfe1de8188e0022071dc862be5bcd08b3c3a9341f239c7b70beb70076ded7fef36cfdaa4e7930696[ALL] 0204bf3b69bd8d75624594bf42bfb184c5042ef2be268b00abb4701d5ce17ef882"}, "vout": 1, "txid": "9131c6f5e632ad2b949319fef88c60944166236d946d89870487597ae9d4dd00"}], "txid": "d4243b4ce1303c6063f9a1bc6d10f45eb684c14ec0e804c0e5cd3d584d632e67", "blocktime": 1537873891, "version": 1, "confirmations": 11478, "time": 1537873891, "locktime": 0, "vsize": 522, "size": 522}