{"hash": "9402315c0b515f26c9a232d5d0cf9bbd863ddd9c2204a67d331cffc1a224d728", "blockhash": "00000000000000000017f5eb5941039fbcee6240d03bc1f2f8e35350df66a1d8", "vout": [{"scriptPubKey": {"reqSigs": 1, "hex": "76a9143cd71d9145c10f19ebd272dbdf82022a3c6ecba588ac", "addresses": ["16YhEzojaE1VuD1JKWmP5gj3bZ6cQutLPH"], "asm": "OP_DUP OP_HASH160 3cd71d9145c10f19ebd272dbdf82022a3c6ecba5 OP_EQUALVERIFY OP_CHECKSIG", "type": "pubkeyhash"}, "value": 0.00173713, "n": 0}, {"scriptPubKey": {"reqSigs": 1, "hex": "a914b8a9a8ba8cf965b7df6b05afd948e53c351b2c0d87", "addresses": ["3JXRVxhrk2o9f4w3cQchBLwUeegJBj6BEp"], "asm": "OP_HASH160 b8a9a8ba8cf965b7df6b05afd948e53c351b2c0d OP_EQUAL", "type": "scripthash"}, "value": 1.35729512, "n": 1}], "hex": "010000000001015e8f4d60680b07cf535179b7c988c7722c344b9eade4a63c35051ae76adad1f9010000002322002065d416c48a8072e0ac51c2d111eb194f009caef0332446c1bf2097316cf07fa9ffffffff0291a60200000000001976a9143cd71d9145c10f19ebd272dbdf82022a3c6ecba588ac681117080000000017a914b8a9a8ba8cf965b7df6b05afd948e53c351b2c0d870400483045022100c043639964c4694c60bbe55c6c7bc7b5c4752c36ee986543fe8cd0caa9db9753022000d35452600db1957d74f158c485002d3176a24d1ced8bb284cf3e1d1782ae5901473044022046a05b6b101a400cbe0bb3b0e21b36c2551cd36e17ab61520a009827b30fcab902205e0b05156492f2dae147d7317a90c9268d11bfd54fa83ca2edc31ef6ed21e0ac0169522102f44abcf9e23c9a460da309ccca56c619c04eed3bde2c2cff5e7d78fbcd980b9c2103c9443cf3047bb6c2c82f1b0c44c36109cdc3d0d601d16d1189a1602bf8d1a0a02103bfe867059274412412e088af5572b92168c2ef495cfe6c9b7a753a009eb37c4853ae00000000", "vin": [{"txinwitness": ["", "3045022100c043639964c4694c60bbe55c6c7bc7b5c4752c36ee986543fe8cd0caa9db9753022000d35452600db1957d74f158c485002d3176a24d1ced8bb284cf3e1d1782ae5901", "3044022046a05b6b101a400cbe0bb3b0e21b36c2551cd36e17ab61520a009827b30fcab902205e0b05156492f2dae147d7317a90c9268d11bfd54fa83ca2edc31ef6ed21e0ac01", "522102f44abcf9e23c9a460da309ccca56c619c04eed3bde2c2cff5e7d78fbcd980b9c2103c9443cf3047bb6c2c82f1b0c44c36109cdc3d0d601d16d1189a1602bf8d1a0a02103bfe867059274412412e088af5572b92168c2ef495cfe6c9b7a753a009eb37c4853ae"], "sequence": 4294967295, "scriptSig": {"hex": "22002065d416c48a8072e0ac51c2d111eb194f009caef0332446c1bf2097316cf07fa9", "asm": "002065d416c48a8072e0ac51c2d111eb194f009caef0332446c1bf2097316cf07fa9"}, "vout": 1, "txid": "f9d1da6ae71a05353ca6e4ad9e4b342c72c788c9b7795153cf070b68604d8f5e"}], "txid": "d4259b1faba21a0240a40f1de5090ecbcf9c63e4b3cec2ae5a12829cdc8999e4", "blocktime": 1537874412, "version": 1, "confirmations": 11467, "time": 1537874412, "locktime": 0, "vsize": 216, "size": 407}