{"hash": "eb9f91c21221c29b79e21fed974b6025b4275159060c467fafae68c32ee9c498", "blockhash": "00000000000000000017f5eb5941039fbcee6240d03bc1f2f8e35350df66a1d8", "vout": [{"scriptPubKey": {"reqSigs": 1, "hex": "a9140c9b1ead42341df9c314cb130ba34649c0fc2efb87", "addresses": ["32qfrm4iPnefExCsHXY2C5iAg2fxVk4kiz"], "asm": "OP_HASH160 0c9b1ead42341df9c314cb130ba34649c0fc2efb OP_EQUAL", "type": "scripthash"}, "value": 0.41621435, "n": 0}, {"scriptPubKey": {"reqSigs": 1, "hex": "76a9145f2915f7aa299c12f9d5e1598f02db0e14e2441688ac", "addresses": ["19gAQv8YizsqruRPkBfoVpdL8jccnGauq8"], "asm": "OP_DUP OP_HASH160 5f2915f7aa299c12f9d5e1598f02db0e14e24416 OP_EQUALVERIFY OP_CHECKSIG", "type": "pubkeyhash"}, "value": 1.5384, "n": 1}], "hex": "010000000001022c2dcaaa901789155010e6d7d0ffb20c54dd56102d907228da03ccfa3e54bdc10000000023220020e35c0d6e2cc1be99dc1e8a12da6132441221a6ab64554500f53ccc101f3a830dfdffffff07f2dddd1fa863ce8890985cbc3b18bc3ba84e94c06eb9a549d2ff1a4e789ff20200000023220020f62716f4f4a52571ad735e7ef4d8ceddfdd066026c5883037ec374fa486bd1effdffffff02bb177b020000000017a9140c9b1ead42341df9c314cb130ba34649c0fc2efb8780692b09000000001976a9145f2915f7aa299c12f9d5e1598f02db0e14e2441688ac0400483045022100e4231d0d77bf2e0f6fb7ecc9c8196f014198ed2b4b626e6f94009d51091c255e02204b90b4a5e50954d0ec8ac5e302503f78ef73cee970d4e6af807483cda63156270147304402200bb217630846f748d68e749c7a6d513efcd5f591c94ef60efaf361e82ebd45a4022059baa3ec8175746d804a16fe24136501b4315a48f884335871698f9f2617e6be0147522103dcc6ce35b5a9b6bf498033bb1c1ad3407d65ce9b29cf4af8a96f6b7d64119b322102462ad1a06c4e56bbdc3e35b717fa59dec5a049fb4c309021560833a7904bf98152ae0400483045022100c01888599e8a3683f2e7a0e2cc07b1d1ca8427a1d21b3032cd2f0ded89e9036302200ee05c26ffa871cb3c23bf0dcc43d5efbb3ace8e55e543b4807947c52ebb072c01483045022100df6a282d6622bcedd7a9409b637e46cec55cbcebc2e94f6ce14009d8882df36e02202a7225f07fb434ee90bbf72d7715f07b3df29ea9a5be9a80e681eaca5cb458aa01475221027037fcb6821a3f49f80e3681af493c31323af2937f781f5a1b2d814ca38fc12c210301028b49c67d9247c25942076876726b59f4dfbb26315e0ab62310ce003c591952ae14490800", "vin": [{"txinwitness": ["", "3045022100e4231d0d77bf2e0f6fb7ecc9c8196f014198ed2b4b626e6f94009d51091c255e02204b90b4a5e50954d0ec8ac5e302503f78ef73cee970d4e6af807483cda631562701", "304402200bb217630846f748d68e749c7a6d513efcd5f591c94ef60efaf361e82ebd45a4022059baa3ec8175746d804a16fe24136501b4315a48f884335871698f9f2617e6be01", "522103dcc6ce35b5a9b6bf498033bb1c1ad3407d65ce9b29cf4af8a96f6b7d64119b322102462ad1a06c4e56bbdc3e35b717fa59dec5a049fb4c309021560833a7904bf98152ae"], "sequence": 4294967293, "scriptSig": {"hex": "220020e35c0d6e2cc1be99dc1e8a12da6132441221a6ab64554500f53ccc101f3a830d", "asm": "0020e35c0d6e2cc1be99dc1e8a12da6132441221a6ab64554500f53ccc101f3a830d"}, "vout": 0, "txid": "c1bd543efacc03da2872902d1056dd540cb2ffd0d7e6105015891790aaca2d2c"}, {"txinwitness": ["", "3045022100c01888599e8a3683f2e7a0e2cc07b1d1ca8427a1d21b3032cd2f0ded89e9036302200ee05c26ffa871cb3c23bf0dcc43d5efbb3ace8e55e543b4807947c52ebb072c01", "3045022100df6a282d6622bcedd7a9409b637e46cec55cbcebc2e94f6ce14009d8882df36e02202a7225f07fb434ee90bbf72d7715f07b3df29ea9a5be9a80e681eaca5cb458aa01", "5221027037fcb6821a3f49f80e3681af493c31323af2937f781f5a1b2d814ca38fc12c210301028b49c67d9247c25942076876726b59f4dfbb26315e0ab62310ce003c591952ae"], "sequence": 4294967293, "scriptSig": {"hex": "220020f62716f4f4a52571ad735e7ef4d8ceddfdd066026c5883037ec374fa486bd1ef", "asm": "0020f62716f4f4a52571ad735e7ef4d8ceddfdd066026c5883037ec374fa486bd1ef"}, "vout": 2, "txid": "f29f784e1affd249a5b96ec0944ea83bbc183bbc5c989088ce63a81fddddf207"}], "txid": "d42a4d80309beb6df7e1564ad6138d988dbce32059923a48e1750a460cc7a4ca", "blocktime": 1537874412, "version": 1, "confirmations": 11466, "time": 1537874412, "locktime": 542996, "vsize": 339, "size": 669}