{"hash": "d42d311ac19b296bf60d953a0a84085cbb032d4c723321400c2edd9c244a4972", "blockhash": "0000000000000000000baef3f32e3676a92c3b2e5da21b426e4f302fc371ce76", "vout": [{"scriptPubKey": {"reqSigs": 1, "hex": "76a914ff49915ce0c64cf13728e7a1d0358682781f754188ac", "addresses": ["1QGqSVvmhreaQ3imSigU3mTLEvwaiypaKR"], "asm": "OP_DUP OP_HASH160 ff49915ce0c64cf13728e7a1d0358682781f7541 OP_EQUALVERIFY OP_CHECKSIG", "type": "pubkeyhash"}, "value": 0.00085972, "n": 0}, {"scriptPubKey": {"reqSigs": 1, "hex": "76a914d6265e8fc0a680dcb6cc0ecd62215482f323038688ac", "addresses": ["1LXKa1BDo9NCCNhdb5q4rR7MqdrTkqgv4n"], "asm": "OP_DUP OP_HASH160 d6265e8fc0a680dcb6cc0ecd62215482f3230386 OP_EQUALVERIFY OP_CHECKSIG", "type": "pubkeyhash"}, "value": 0.002253, "n": 1}], "hex": "010000000178283a5f0c94b09d2db2dfc76aadae0b6e4046ff025f983ff7c79e335049466c000000008b483045022100a62336305053fa15fdeed06055b269ad6b0cef3e0ccc14ae6013a15654191f2b022063f08d0906bd88e661620cbf0e889b8b702385289e4272910b0c0f8c9e5040290141042261158dad8d7d0e109e72265c437ca3c844ea7900b9a4351b135dcef51031cc69e786ee855d5169b1bad9729822af8f50ffde9b853059aacbed300c86f5f0c3ffffffff02d44f0100000000001976a914ff49915ce0c64cf13728e7a1d0358682781f754188ac14700300000000001976a914d6265e8fc0a680dcb6cc0ecd62215482f323038688ac00000000", "vin": [{"sequence": 4294967295, "scriptSig": {"hex": "483045022100a62336305053fa15fdeed06055b269ad6b0cef3e0ccc14ae6013a15654191f2b022063f08d0906bd88e661620cbf0e889b8b702385289e4272910b0c0f8c9e5040290141042261158dad8d7d0e109e72265c437ca3c844ea7900b9a4351b135dcef51031cc69e786ee855d5169b1bad9729822af8f50ffde9b853059aacbed300c86f5f0c3", "asm": "3045022100a62336305053fa15fdeed06055b269ad6b0cef3e0ccc14ae6013a15654191f2b022063f08d0906bd88e661620cbf0e889b8b702385289e4272910b0c0f8c9e504029[ALL] 042261158dad8d7d0e109e72265c437ca3c844ea7900b9a4351b135dcef51031cc69e786ee855d5169b1bad9729822af8f50ffde9b853059aacbed300c86f5f0c3"}, "vout": 0, "txid": "6c464950339ec7f73f985f02ff46406e0baead6ac7dfb22d9db0940c5f3a2878"}], "txid": "d42d311ac19b296bf60d953a0a84085cbb032d4c723321400c2edd9c244a4972", "blocktime": 1537876114, "version": 1, "confirmations": 11460, "time": 1537876114, "locktime": 0, "vsize": 258, "size": 258}