{"hash": "4720f52d7f2c7d9e4fbdb7084c7ebee17342c6cb4362322c90a29fbaca03f334", "blockhash": "000000000000000000205f8b0775d31398ef75b89a5e8ec8d2c57b4dc0ac4c20", "vout": [{"scriptPubKey": {"reqSigs": 1, "hex": "76a91417d273ce80a53ccce2d1bdec1cdeca3e59a27c7788ac", "addresses": ["13Axeu9ZmeNv1i8X5hH7SuHJjGnxFjp2pD"], "asm": "OP_DUP OP_HASH160 17d273ce80a53ccce2d1bdec1cdeca3e59a27c77 OP_EQUALVERIFY OP_CHECKSIG", "type": "pubkeyhash"}, "value": 0.020683, "n": 0}, {"scriptPubKey": {"reqSigs": 1, "hex": "a914fabd07b92a28c48e751a11302892c6dd6054e42d87", "addresses": ["3QYoJYiwLS7iBmnjVc64UmAnAJBwJs1tsT"], "asm": "OP_HASH160 fabd07b92a28c48e751a11302892c6dd6054e42d OP_EQUAL", "type": "scripthash"}, "value": 0.04866572, "n": 1}], "hex": "02000000000101f34d11834b370f48ef28fa9965c8997f54c8e1c74d99b67c87c97149b528d1720000000017160014d8b4e74d65e9e67cb247962d55056b96ea899061ffffffff024c8f1f00000000001976a91417d273ce80a53ccce2d1bdec1cdeca3e59a27c7788ac0c424a000000000017a914fabd07b92a28c48e751a11302892c6dd6054e42d8702483045022100d877047033337f0dd245dc1ed79d83236a6f363c9144749f98ebab893bd65cf302206317636cfb1dfca63d80f9cfae41f03609bd574765ab074bebeb37e9f465a8870121027f72e94ea5f382832c12a0ecfb41b23f94499265e9c0af1e0682fbdd78fb416300000000", "vin": [{"txinwitness": ["3045022100d877047033337f0dd245dc1ed79d83236a6f363c9144749f98ebab893bd65cf302206317636cfb1dfca63d80f9cfae41f03609bd574765ab074bebeb37e9f465a88701", "027f72e94ea5f382832c12a0ecfb41b23f94499265e9c0af1e0682fbdd78fb4163"], "sequence": 4294967295, "scriptSig": {"hex": "160014d8b4e74d65e9e67cb247962d55056b96ea899061", "asm": "0014d8b4e74d65e9e67cb247962d55056b96ea899061"}, "vout": 0, "txid": "72d128b54971c9877cb6994dc7e1c8547f99c86599fa28ef480f374b83114df3"}], "txid": "d42e643688a55891e8677bd7764821bbf295841f117bb3b4218c6ceb52756c57", "blocktime": 1537871175, "version": 2, "confirmations": 11511, "time": 1537871175, "locktime": 0, "vsize": 168, "size": 250}