{"hash": "d435582d951b1196e619794466a0326236a5abbb585cd6d74452464bb1d0de61", "blockhash": "0000000000000000001cda96e906b7601b7a6fb1a3b62bca570a9e5d8f4b3de1", "vout": [{"scriptPubKey": {"reqSigs": 1, "hex": "76a914d0c1536a05580d6e6488aa31564f8f034ec6c8ce88ac", "addresses": ["1L2o9R6BsAyx6PJzWaPs1STPchHz8B1KR2"], "asm": "OP_DUP OP_HASH160 d0c1536a05580d6e6488aa31564f8f034ec6c8ce OP_EQUALVERIFY OP_CHECKSIG", "type": "pubkeyhash"}, "value": 0.00192564, "n": 0}, {"scriptPubKey": {"reqSigs": 1, "hex": "76a914d9bf8e7cfa03773b08d57eb225374779c43bc5df88ac", "addresses": ["1LrM7DLb3PjPSiRPaAfSU7Sc7ZKjwMCZxb"], "asm": "OP_DUP OP_HASH160 d9bf8e7cfa03773b08d57eb225374779c43bc5df OP_EQUALVERIFY OP_CHECKSIG", "type": "pubkeyhash"}, "value": 0.0075108, "n": 1}], "hex": "01000000013c59a426ca92c58d0a526d21097f60881cde4589ffeb1475cd2180036960d07c010000006b483045022100df2912a3f8dffcf0308c30dce173656646ac17a215a259698bf7b938482ac76002207166ea0164dfdbdb3534c47867ea443518bfcb567e5ec4c6651e6535b8b45d06012103979dfc73f2ba6812f542c2bcb9e46c2e7e648eedc394dedd51cee0fc1e771ca8ffffffff0234f00200000000001976a914d0c1536a05580d6e6488aa31564f8f034ec6c8ce88ace8750b00000000001976a914d9bf8e7cfa03773b08d57eb225374779c43bc5df88ac00000000", "vin": [{"sequence": 4294967295, "scriptSig": {"hex": "483045022100df2912a3f8dffcf0308c30dce173656646ac17a215a259698bf7b938482ac76002207166ea0164dfdbdb3534c47867ea443518bfcb567e5ec4c6651e6535b8b45d06012103979dfc73f2ba6812f542c2bcb9e46c2e7e648eedc394dedd51cee0fc1e771ca8", "asm": "3045022100df2912a3f8dffcf0308c30dce173656646ac17a215a259698bf7b938482ac76002207166ea0164dfdbdb3534c47867ea443518bfcb567e5ec4c6651e6535b8b45d06[ALL] 03979dfc73f2ba6812f542c2bcb9e46c2e7e648eedc394dedd51cee0fc1e771ca8"}, "vout": 1, "txid": "7cd06069038021cd7514ebff8945de1c88607f09216d520a8dc592ca26a4593c"}], "txid": "d435582d951b1196e619794466a0326236a5abbb585cd6d74452464bb1d0de61", "blocktime": 1537873282, "version": 1, "confirmations": 11483, "time": 1537873282, "locktime": 0, "vsize": 226, "size": 226}