{"hash": "d065602e9d4de695f847abbc182a06e8402b5d43f04f46efc4021b029de7a559", "blockhash": "0000000000000000000baef3f32e3676a92c3b2e5da21b426e4f302fc371ce76", "vout": [{"scriptPubKey": {"reqSigs": 1, "hex": "a9146a991507d744a90cb6776f8e80cb07d75308adc287", "addresses": ["3BQewDFiv7Mh7Ydb22hK2gmyzReosNGa1b"], "asm": "OP_HASH160 6a991507d744a90cb6776f8e80cb07d75308adc2 OP_EQUAL", "type": "scripthash"}, "value": 0.00111067, "n": 0}, {"scriptPubKey": {"reqSigs": 1, "hex": "a9149649ad6d2730bb28020a268d9d80df10a9f74ad487", "addresses": ["3FPfYWwfMfKMGY7fuPHvz2b73RhTNGzsm3"], "asm": "OP_HASH160 9649ad6d2730bb28020a268d9d80df10a9f74ad4 OP_EQUAL", "type": "scripthash"}, "value": 13.79139517, "n": 1}], "hex": "010000000001015218f7fd4e947653e200b4ba6517b16aec0e5596bc4d29e6a07f0c4dffa670b201000000232200207768efcc1e5eb3d28410fac3f45831004c860cc24cddd940a616b34324823fceffffffff02dbb101000000000017a9146a991507d744a90cb6776f8e80cb07d75308adc287bdff33520000000017a9149649ad6d2730bb28020a268d9d80df10a9f74ad487040047304402204a4d8b34af50b1443e1948968092ced49190d82c16b1cb2f916d26afe37001e6022054b8b4c7e152fd7d1bcdd5ed21e5310fa69197e45fe9f8b21ee8771150b3505f01483045022100f63a8fcaf5bf18cf216d9ddb459036ca4748894bdb5f16b08fbd93408bf9f455022077e1ac9619bc20dff6adb33722915f8fb378f6c3f4ebf7d87c3502cbb735cf310147522102529d5d1f6733ab45d9d50e07db42c7f6b967ae321c38b726c2247f149959b8262103d0c936a5988dd8421c63240496b723b0ec42400c38b9350e32c2eb4f47d8796952ae00000000", "vin": [{"txinwitness": ["", "304402204a4d8b34af50b1443e1948968092ced49190d82c16b1cb2f916d26afe37001e6022054b8b4c7e152fd7d1bcdd5ed21e5310fa69197e45fe9f8b21ee8771150b3505f01", "3045022100f63a8fcaf5bf18cf216d9ddb459036ca4748894bdb5f16b08fbd93408bf9f455022077e1ac9619bc20dff6adb33722915f8fb378f6c3f4ebf7d87c3502cbb735cf3101", "522102529d5d1f6733ab45d9d50e07db42c7f6b967ae321c38b726c2247f149959b8262103d0c936a5988dd8421c63240496b723b0ec42400c38b9350e32c2eb4f47d8796952ae"], "sequence": 4294967295, "scriptSig": {"hex": "2200207768efcc1e5eb3d28410fac3f45831004c860cc24cddd940a616b34324823fce", "asm": "00207768efcc1e5eb3d28410fac3f45831004c860cc24cddd940a616b34324823fce"}, "vout": 1, "txid": "b270a6ff4d0c7fa0e6294dbc96550eec6ab11765bab400e25376944efdf71852"}], "txid": "d43b1081a1107172b7b2601e527797a2b4be783aac2a6b77bb3c860798de2e17", "blocktime": 1537876114, "version": 1, "confirmations": 11462, "time": 1537876114, "locktime": 0, "vsize": 206, "size": 371}