{"hash": "d43cfd27354c44f9fbad6792444ff39f4c91477d665745bda9232c7868bbf204", "blockhash": "0000000000000000001e0dab787dd257d1dbfcb92a98c2207d5e1078be1f4165", "vout": [{"scriptPubKey": {"reqSigs": 1, "hex": "76a9147f47e9d25595b8416abb29776e8f12102c15415c88ac", "addresses": ["1CbzxzTk9zXbf26Xs8uRSGWVsqnQTakB89"], "asm": "OP_DUP OP_HASH160 7f47e9d25595b8416abb29776e8f12102c15415c OP_EQUALVERIFY OP_CHECKSIG", "type": "pubkeyhash"}, "value": 0.85575695, "n": 0}, {"scriptPubKey": {"reqSigs": 1, "hex": "76a914ddded703b1f2a3c6225bacd5135ee84812360b6788ac", "addresses": ["1ME9HambbSHCpYQKWAckb5FqjyjL1oz7mY"], "asm": "OP_DUP OP_HASH160 ddded703b1f2a3c6225bacd5135ee84812360b67 OP_EQUALVERIFY OP_CHECKSIG", "type": "pubkeyhash"}, "value": 0.02644837, "n": 1}], "hex": "02000000023e8b3e6b321d24503782b66f1e32e02ef89a6e70d223d507cadfdbc6c364c6da000000006a47304402205bc6ec679af2719b9bff9aa2685325139cad91b0410d31daa912778caa460cf402203d9f0236bb480d025e59cbd4292f4124a78ce6ed86a51dfe61e11722bf4e2356012103873c669ef1fd000bd843ceef47a0ba5ff5ca68500206f98cb2394330b3bfe5c6fdffffffa4fc433bb17f2b649beef36deac7a05c6d51684c865d7e8bc8869e688d6a8755000000006a473044022028df5dea1cd24075e0483fb4ba129dc20447e75af6e0589fb2ea206b5a99c5ba02201e0172e41ce5b419fb3daa898f653f5531da263ab838b7d506083ae184fa0a0b012103bb444bff5cb579ae7768433396e3d7b77364f121082005b72b5e02e0b325d879fdffffff020fc81905000000001976a9147f47e9d25595b8416abb29776e8f12102c15415c88ac655b2800000000001976a914ddded703b1f2a3c6225bacd5135ee84812360b6788ac12490800", "vin": [{"sequence": 4294967293, "scriptSig": {"hex": "47304402205bc6ec679af2719b9bff9aa2685325139cad91b0410d31daa912778caa460cf402203d9f0236bb480d025e59cbd4292f4124a78ce6ed86a51dfe61e11722bf4e2356012103873c669ef1fd000bd843ceef47a0ba5ff5ca68500206f98cb2394330b3bfe5c6", "asm": "304402205bc6ec679af2719b9bff9aa2685325139cad91b0410d31daa912778caa460cf402203d9f0236bb480d025e59cbd4292f4124a78ce6ed86a51dfe61e11722bf4e2356[ALL] 03873c669ef1fd000bd843ceef47a0ba5ff5ca68500206f98cb2394330b3bfe5c6"}, "vout": 0, "txid": "dac664c3c6dbdfca07d523d2706e9af82ee0321e6fb6823750241d326b3e8b3e"}, {"sequence": 4294967293, "scriptSig": {"hex": "473044022028df5dea1cd24075e0483fb4ba129dc20447e75af6e0589fb2ea206b5a99c5ba02201e0172e41ce5b419fb3daa898f653f5531da263ab838b7d506083ae184fa0a0b012103bb444bff5cb579ae7768433396e3d7b77364f121082005b72b5e02e0b325d879", "asm": "3044022028df5dea1cd24075e0483fb4ba129dc20447e75af6e0589fb2ea206b5a99c5ba02201e0172e41ce5b419fb3daa898f653f5531da263ab838b7d506083ae184fa0a0b[ALL] 03bb444bff5cb579ae7768433396e3d7b77364f121082005b72b5e02e0b325d879"}, "vout": 0, "txid": "55876a8d689e86c88b7e5d864c68516d5ca0c7ea6df3ee9b642b7fb13b43fca4"}], "txid": "d43cfd27354c44f9fbad6792444ff39f4c91477d665745bda9232c7868bbf204", "blocktime": 1537872475, "version": 2, "confirmations": 11486, "time": 1537872475, "locktime": 542994, "vsize": 372, "size": 372}