{"hash": "12f4183c08fba7fa603559e77c18074997938ce511803f73d90812e6c97c3558", "blockhash": "000000000000000000022b45ed06c6f4ccd3cf7fb5ba4856ebd2e58215665228", "vout": [{"scriptPubKey": {"reqSigs": 1, "hex": "a91478e884673dde0115ee8d984a5e5d13ef19aefcb087", "addresses": ["3CiKZ9Ay38j1CbmybnC2PGVH7tndqzw5bU"], "asm": "OP_HASH160 78e884673dde0115ee8d984a5e5d13ef19aefcb0 OP_EQUAL", "type": "scripthash"}, "value": 11.99998992, "n": 0}, {"scriptPubKey": {"reqSigs": 1, "hex": "76a914d90f85ff5337d20e6147a8d6e67b98fc1387c52188ac", "addresses": ["1LniEDQLAvkSX4xD7QFgExZDTtQe7r6n7u"], "asm": "OP_DUP OP_HASH160 d90f85ff5337d20e6147a8d6e67b98fc1387c521 OP_EQUALVERIFY OP_CHECKSIG", "type": "pubkeyhash"}, "value": 38.0, "n": 1}], "hex": "02000000000101319f033f9dbc465c4045138a1c489d489693b74ae552fe32c3a1be819cca3ecb0000000017160014810c095966a9103465ab7d5cbb934ebaf1db90c8feffffff02108886470000000017a91478e884673dde0115ee8d984a5e5d13ef19aefcb08700667fe2000000001976a914d90f85ff5337d20e6147a8d6e67b98fc1387c52188ac02473044022068751b70d2cfca103b5889cb6e3abb205d1ba419891b3402d545c5818591b75a02206ffaa9f48f7a50f71f4edb82d856e3590de98a1d36fe8166ea7e974fec098260012102009a6a018628dbcc682f4d6589545a58c73dd7e37e3964b527876db337e738500b490800", "vin": [{"txinwitness": ["3044022068751b70d2cfca103b5889cb6e3abb205d1ba419891b3402d545c5818591b75a02206ffaa9f48f7a50f71f4edb82d856e3590de98a1d36fe8166ea7e974fec09826001", "02009a6a018628dbcc682f4d6589545a58c73dd7e37e3964b527876db337e73850"], "sequence": 4294967294, "scriptSig": {"hex": "160014810c095966a9103465ab7d5cbb934ebaf1db90c8", "asm": "0014810c095966a9103465ab7d5cbb934ebaf1db90c8"}, "vout": 0, "txid": "cb3eca9c81bea1c332fe52e54ab79396489d481c8a1345405c46bc9d3f039f31"}], "txid": "d448cd4fef2bcf4682394caf1e54382e27e1efbbf4546c486c740fdf21ac956c", "blocktime": 1537869901, "version": 2, "confirmations": 11522, "time": 1537869901, "locktime": 542987, "vsize": 168, "size": 249}