{"hash": "b16eee0fb53944f3fa8cb6d1d06ccbf482d8af8667a8f199b089b350daee1ba6", "blockhash": "0000000000000000000e13cef7c366c0283d82e591d1acd082e914b08063cdf1", "vout": [{"scriptPubKey": {"reqSigs": 1, "hex": "a91482e7e273ec4e0dff2590e50d5fec2ebc665cd1f787", "addresses": ["3DdBZ734DjaqBf29PvjxWv9mvU6VaQEs8H"], "asm": "OP_HASH160 82e7e273ec4e0dff2590e50d5fec2ebc665cd1f7 OP_EQUAL", "type": "scripthash"}, "value": 1.39385767, "n": 0}, {"scriptPubKey": {"reqSigs": 1, "hex": "a914f2da86bdb20f05804fe604a059f742b69101912287", "addresses": ["3Pq7ESceh6YtUmsQH7Jq5GYgjWdobZve8H"], "asm": "OP_HASH160 f2da86bdb20f05804fe604a059f742b691019122 OP_EQUAL", "type": "scripthash"}, "value": 0.02131017, "n": 1}, {"scriptPubKey": {"reqSigs": 1, "hex": "a914aaf973af618702fa885267db4ce9b06ac339cced87", "addresses": ["3HH3dNnaP7TyPG1ieWoHpHHETtF5x6QK1N"], "asm": "OP_HASH160 aaf973af618702fa885267db4ce9b06ac339cced OP_EQUAL", "type": "scripthash"}, "value": 0.04318953, "n": 2}, {"scriptPubKey": {"reqSigs": 1, "hex": "76a91475905793d573cf98c19c0b2be654e351a3bbb9e888ac", "addresses": ["1BicyWXTgUiXtqvqfL7eWSoMUzeTtn5FTk"], "asm": "OP_DUP OP_HASH160 75905793d573cf98c19c0b2be654e351a3bbb9e8 OP_EQUALVERIFY OP_CHECKSIG", "type": "pubkeyhash"}, "value": 0.00275233, "n": 3}, {"scriptPubKey": {"reqSigs": 1, "hex": "a914b491adbef6454f691284be34ca077334d1f4fe4d87", "addresses": ["3J9n51Kq9ZKRHogbH7ZzQ4zYa5rJkyiCMp"], "asm": "OP_HASH160 b491adbef6454f691284be34ca077334d1f4fe4d OP_EQUAL", "type": "scripthash"}, "value": 0.08836224, "n": 4}], "hex": "010000000001029eb9c6719e74a359dd3c43dd54319fbdc0d50d8cbc8f1c4a03528f93c71434c301000000232200206422a7359387c8efb9cf6e107a16fc83511443022e4f681c9695a9afd092edabffffffff446cc827908c7cd3180ea23d61f4dadaa1e083e0bb01a1757cd271cbdc059eed0000000023220020396e410c1f0faa6cf44962c0624cd22732a29701c600c1d906e0db9f939fa239ffffffff05a7db4e080000000017a91482e7e273ec4e0dff2590e50d5fec2ebc665cd1f787498420000000000017a914f2da86bdb20f05804fe604a059f742b69101912287e9e641000000000017a914aaf973af618702fa885267db4ce9b06ac339cced8721330400000000001976a91475905793d573cf98c19c0b2be654e351a3bbb9e888ac80d486000000000017a914b491adbef6454f691284be34ca077334d1f4fe4d8703483045022100c08c9c71b09a853a9c6952adfdd1530385da3294c32b2791e2a6da8ba04776a202205c3c2c7eb33accc206507d7d4009fcf11bab745362079d8f1cdd0142a0d8aa3101210365286c6520fd550f9025b8e35dfebb7ad9911baa754de42700daa516d4c49f291976a91413f10c068a6efaba20ff6b5a253f7d4860e68b8788ac03483045022100b5657b633a7adc580fc3f59b9da0cbd2889dc0032dd8d2c15b67f91e3e85718502203dbe445bb3f52b64cfab9892e7efc978093756bb9b10b7fb4a1663f4f58b34b9012102d941dfddbc2339802d015e0777dc30cd416ff591acd587c3e34824c6583b4dac1976a914d1cd43434d93559101682b017ed06e55a1c7119e88ac00000000", "vin": [{"txinwitness": ["3045022100c08c9c71b09a853a9c6952adfdd1530385da3294c32b2791e2a6da8ba04776a202205c3c2c7eb33accc206507d7d4009fcf11bab745362079d8f1cdd0142a0d8aa3101", "0365286c6520fd550f9025b8e35dfebb7ad9911baa754de42700daa516d4c49f29", "76a91413f10c068a6efaba20ff6b5a253f7d4860e68b8788ac"], "sequence": 4294967295, "scriptSig": {"hex": "2200206422a7359387c8efb9cf6e107a16fc83511443022e4f681c9695a9afd092edab", "asm": "00206422a7359387c8efb9cf6e107a16fc83511443022e4f681c9695a9afd092edab"}, "vout": 1, "txid": "c33414c7938f52034a1c8fbc8c0dd5c0bd9f3154dd433cdd59a3749e71c6b99e"}, {"txinwitness": ["3045022100b5657b633a7adc580fc3f59b9da0cbd2889dc0032dd8d2c15b67f91e3e85718502203dbe445bb3f52b64cfab9892e7efc978093756bb9b10b7fb4a1663f4f58b34b901", "02d941dfddbc2339802d015e0777dc30cd416ff591acd587c3e34824c6583b4dac", "76a914d1cd43434d93559101682b017ed06e55a1c7119e88ac"], "sequence": 4294967295, "scriptSig": {"hex": "220020396e410c1f0faa6cf44962c0624cd22732a29701c600c1d906e0db9f939fa239", "asm": "0020396e410c1f0faa6cf44962c0624cd22732a29701c600c1d906e0db9f939fa239"}, "vout": 0, "txid": "ed9e05dccb71d27c75a101bbe083e0a1dadaf4613da20e18d37c8c9027c86c44"}], "txid": "d44b2a91a2cbf545f395519cbb43ad6b9b5e150c87f6f6a9715f0b1c9fcaceb3", "blocktime": 1537871767, "version": 1, "confirmations": 11493, "time": 1537871767, "locktime": 0, "vsize": 392, "size": 594}