{"hash": "53aa4ae92e735cc8e49e8c7d03d446bc9b74264659901877947de75766632c68", "blockhash": "0000000000000000000baef3f32e3676a92c3b2e5da21b426e4f302fc371ce76", "vout": [{"scriptPubKey": {"reqSigs": 1, "hex": "a9142c2c84acd4adebf89bc536c8058c4358ce5972a287", "addresses": ["35iazAfJmvxhoBQoR11fFqQHoZbXQG7HXm"], "asm": "OP_HASH160 2c2c84acd4adebf89bc536c8058c4358ce5972a2 OP_EQUAL", "type": "scripthash"}, "value": 0.00117733, "n": 0}, {"scriptPubKey": {"reqSigs": 1, "hex": "a9149649ad6d2730bb28020a268d9d80df10a9f74ad487", "addresses": ["3FPfYWwfMfKMGY7fuPHvz2b73RhTNGzsm3"], "asm": "OP_HASH160 9649ad6d2730bb28020a268d9d80df10a9f74ad4 OP_EQUAL", "type": "scripthash"}, "value": 13.73061174, "n": 1}], "hex": "010000000001010f4c4f80613d6f13f685cf555321b9d33cc98d77a6a674f331d124702298806401000000232200207768efcc1e5eb3d28410fac3f45831004c860cc24cddd940a616b34324823fceffffffff02e5cb01000000000017a9142c2c84acd4adebf89bc536c8058c4358ce5972a2873640d7510000000017a9149649ad6d2730bb28020a268d9d80df10a9f74ad487040047304402202e38a1629ca649fb44a42917c5094ffe5627d665f5212c958d6c75e12b2c7f30022078e0bf4619fe20d836479f252225c95f8de4bb236311f4de2bbe3c35fccbf1bc0147304402207b0e370ad4738b0aed24c2680a881148a8367ff8ed1c0edd4bc6ee1a76a78ef5022037f1466a9202f8b5541a0d8f9afe9ec4396a78f86ccbebdcf07699a278289fd80147522102529d5d1f6733ab45d9d50e07db42c7f6b967ae321c38b726c2247f149959b8262103d0c936a5988dd8421c63240496b723b0ec42400c38b9350e32c2eb4f47d8796952ae00000000", "vin": [{"txinwitness": ["", "304402202e38a1629ca649fb44a42917c5094ffe5627d665f5212c958d6c75e12b2c7f30022078e0bf4619fe20d836479f252225c95f8de4bb236311f4de2bbe3c35fccbf1bc01", "304402207b0e370ad4738b0aed24c2680a881148a8367ff8ed1c0edd4bc6ee1a76a78ef5022037f1466a9202f8b5541a0d8f9afe9ec4396a78f86ccbebdcf07699a278289fd801", "522102529d5d1f6733ab45d9d50e07db42c7f6b967ae321c38b726c2247f149959b8262103d0c936a5988dd8421c63240496b723b0ec42400c38b9350e32c2eb4f47d8796952ae"], "sequence": 4294967295, "scriptSig": {"hex": "2200207768efcc1e5eb3d28410fac3f45831004c860cc24cddd940a616b34324823fce", "asm": "00207768efcc1e5eb3d28410fac3f45831004c860cc24cddd940a616b34324823fce"}, "vout": 1, "txid": "648098227024d131f374a6a6778dc93cd3b9215355cf85f6136f3d61804f4c0f"}], "txid": "d451184207e82945e48c7b2838fddb2bcd4592adfa0fee140b6fe863ad26d1a3", "blocktime": 1537876114, "version": 1, "confirmations": 11462, "time": 1537876114, "locktime": 0, "vsize": 205, "size": 370}