{"hash": "d45d62306693f77e685ebe1a7fb17acc529065eeec88bb94bca8da5f7969ffea", "blockhash": "0000000000000000001cda96e906b7601b7a6fb1a3b62bca570a9e5d8f4b3de1", "vout": [{"scriptPubKey": {"reqSigs": 1, "hex": "76a914ba3c7236757f56a058171ecf5aee149d2ce83fed88ac", "addresses": ["1Hyj6Z2PHK3EAPr4RQxhsHzHKRbA8MSnAk"], "asm": "OP_DUP OP_HASH160 ba3c7236757f56a058171ecf5aee149d2ce83fed OP_EQUALVERIFY OP_CHECKSIG", "type": "pubkeyhash"}, "value": 0.00214752, "n": 0}, {"scriptPubKey": {"reqSigs": 1, "hex": "a91478c026717d8b74a668ed55c07b62dc3b0e8b4fa187", "addresses": ["3ChVCPeJw3s3mKDVgzvZcZeBg8qVHDAaed"], "asm": "OP_HASH160 78c026717d8b74a668ed55c07b62dc3b0e8b4fa1 OP_EQUAL", "type": "scripthash"}, "value": 0.01170995, "n": 1}], "hex": "010000000246fd2c8ae5397be3e267268aa34e5605929e3c777509bb905b88ce6d78e5696a000000006a473044022077b0990f47e6d70f67cc838956a9dafc5f8e36b34303f31162e3719561c2e1f302205ab3b7d939f9673e23d15917690b0b1f128b060448e9440b57668ad7bff720b701210242dfba45ca652423b2a651810ec7b2ced66224875306c7ad301a1735be5232feffffffff677458ba89f7fcd4851acaa90bddfe22ad5d274004d1533d304f0edf3978c27a000000006b483045022100fc0d9164d0ed8470b31e691556f0aebe155dcbdf4c0e34b1c876799c41564cfb02202f4ce2568216e6c4011d80a47b395226705fb17f99474bed9ffb9700ef5444990121036e712b66856850ec1342aec5ec075e50efe09a1d958dab51da0b6de198e268c5ffffffff02e0460300000000001976a914ba3c7236757f56a058171ecf5aee149d2ce83fed88ac33de11000000000017a91478c026717d8b74a668ed55c07b62dc3b0e8b4fa18700000000", "vin": [{"sequence": 4294967295, "scriptSig": {"hex": "473044022077b0990f47e6d70f67cc838956a9dafc5f8e36b34303f31162e3719561c2e1f302205ab3b7d939f9673e23d15917690b0b1f128b060448e9440b57668ad7bff720b701210242dfba45ca652423b2a651810ec7b2ced66224875306c7ad301a1735be5232fe", "asm": "3044022077b0990f47e6d70f67cc838956a9dafc5f8e36b34303f31162e3719561c2e1f302205ab3b7d939f9673e23d15917690b0b1f128b060448e9440b57668ad7bff720b7[ALL] 0242dfba45ca652423b2a651810ec7b2ced66224875306c7ad301a1735be5232fe"}, "vout": 0, "txid": "6a69e5786dce885b90bb0975773c9e9205564ea38a2667e2e37b39e58a2cfd46"}, {"sequence": 4294967295, "scriptSig": {"hex": "483045022100fc0d9164d0ed8470b31e691556f0aebe155dcbdf4c0e34b1c876799c41564cfb02202f4ce2568216e6c4011d80a47b395226705fb17f99474bed9ffb9700ef5444990121036e712b66856850ec1342aec5ec075e50efe09a1d958dab51da0b6de198e268c5", "asm": "3045022100fc0d9164d0ed8470b31e691556f0aebe155dcbdf4c0e34b1c876799c41564cfb02202f4ce2568216e6c4011d80a47b395226705fb17f99474bed9ffb9700ef544499[ALL] 036e712b66856850ec1342aec5ec075e50efe09a1d958dab51da0b6de198e268c5"}, "vout": 0, "txid": "7ac27839df0e4f303d53d10440275dad22fedd0ba9ca1a85d4fcf789ba587467"}], "txid": "d45d62306693f77e685ebe1a7fb17acc529065eeec88bb94bca8da5f7969ffea", "blocktime": 1537873282, "version": 1, "confirmations": 11485, "time": 1537873282, "locktime": 0, "vsize": 371, "size": 371}