{"hash": "d461307bf44ff49363411b6fdc181f4722331f1523879e90b2805a6c01b41abc", "blockhash": "0000000000000000000dcc0f55137456b1a82d3642486a52398922ac4d620174", "vout": [{"scriptPubKey": {"reqSigs": 1, "hex": "76a9149a643768b5f3893f2aaa0d5c6d15a249047294ed88ac", "addresses": ["1F5M7hjaiEC6HUF4Y4RT4PMUrkjqpTKrNp"], "asm": "OP_DUP OP_HASH160 9a643768b5f3893f2aaa0d5c6d15a249047294ed OP_EQUALVERIFY OP_CHECKSIG", "type": "pubkeyhash"}, "value": 9.716e-05, "n": 0}, {"scriptPubKey": {"reqSigs": 1, "hex": "a9147a10348a3d71a8ad0163264a58db6d7e655705cf87", "addresses": ["3CpRmuXgVsZ5FBM5i9ob4TyCY5C35HaVXU"], "asm": "OP_HASH160 7a10348a3d71a8ad0163264a58db6d7e655705cf OP_EQUAL", "type": "scripthash"}, "value": 0.00467802, "n": 1}], "hex": "0100000002e160191424353b0f073e4f63113c1b151bbf7dd568baad5acd2a970e9d3dc24b000000006a473044022053663ea50a8532ced8532b90d592e0fd2f368bcde792ee37653c3379e298762f02205b9547b8dfa0c2a8c775a06f676c5250c6d0772b514d1c4f510afd45ca9b5efa01210373f19af0bd1040efeb744b7c078b3155807d248337d054fedb97dea3f8caf5bfffffffff38bb83a892e247371390651e082b252996c5a83b2e1c00d165f72669efe89d96010000006a473044022019074b3293543a4f3c91bfa0fcfe75f485d98090d07a5c22d556867ab1ca5047022055bb1a047ab7172f38c6367f0f21d944966991a54a5052afbcc0397a44ba2e35012102b4495436c01d8af7faf2f23617132c2efff2490cd3dd4647e9f1cf1a595757e8ffffffff02f4250000000000001976a9149a643768b5f3893f2aaa0d5c6d15a249047294ed88ac5a2307000000000017a9147a10348a3d71a8ad0163264a58db6d7e655705cf8700000000", "vin": [{"sequence": 4294967295, "scriptSig": {"hex": "473044022053663ea50a8532ced8532b90d592e0fd2f368bcde792ee37653c3379e298762f02205b9547b8dfa0c2a8c775a06f676c5250c6d0772b514d1c4f510afd45ca9b5efa01210373f19af0bd1040efeb744b7c078b3155807d248337d054fedb97dea3f8caf5bf", "asm": "3044022053663ea50a8532ced8532b90d592e0fd2f368bcde792ee37653c3379e298762f02205b9547b8dfa0c2a8c775a06f676c5250c6d0772b514d1c4f510afd45ca9b5efa[ALL] 0373f19af0bd1040efeb744b7c078b3155807d248337d054fedb97dea3f8caf5bf"}, "vout": 0, "txid": "4bc23d9d0e972acd5aadba68d57dbf1b151b3c11634f3e070f3b3524141960e1"}, {"sequence": 4294967295, "scriptSig": {"hex": "473044022019074b3293543a4f3c91bfa0fcfe75f485d98090d07a5c22d556867ab1ca5047022055bb1a047ab7172f38c6367f0f21d944966991a54a5052afbcc0397a44ba2e35012102b4495436c01d8af7faf2f23617132c2efff2490cd3dd4647e9f1cf1a595757e8", "asm": "3044022019074b3293543a4f3c91bfa0fcfe75f485d98090d07a5c22d556867ab1ca5047022055bb1a047ab7172f38c6367f0f21d944966991a54a5052afbcc0397a44ba2e35[ALL] 02b4495436c01d8af7faf2f23617132c2efff2490cd3dd4647e9f1cf1a595757e8"}, "vout": 1, "txid": "969de8ef6926f765d1001c2e3ba8c59629252b081e6590133747e292a883bb38"}], "txid": "d461307bf44ff49363411b6fdc181f4722331f1523879e90b2805a6c01b41abc", "blocktime": 1537870268, "version": 1, "confirmations": 11518, "time": 1537870268, "locktime": 0, "vsize": 370, "size": 370}