{"hash": "d4674edd5e9ba1dbb89035ad1e69d8819ec638825d43572afe517fd6ddc66fef", "blockhash": "0000000000000000001cda96e906b7601b7a6fb1a3b62bca570a9e5d8f4b3de1", "vout": [{"scriptPubKey": {"reqSigs": 1, "hex": "a91469534855a29d3bd575e6f743404fa7608f1b79ce87", "addresses": ["3BHveFzyyaXMPrYFgQyFNA8ojeZKwf7gWk"], "asm": "OP_HASH160 69534855a29d3bd575e6f743404fa7608f1b79ce OP_EQUAL", "type": "scripthash"}, "value": 0.004, "n": 0}, {"scriptPubKey": {"reqSigs": 1, "hex": "76a914bfa0d3a678bb4543f7f3d2f7c2481551e2d7abd588ac", "addresses": ["1JUEj5ZpD5TeZ2LduHgrdmqnCHa7rUR1YK"], "asm": "OP_DUP OP_HASH160 bfa0d3a678bb4543f7f3d2f7c2481551e2d7abd5 OP_EQUALVERIFY OP_CHECKSIG", "type": "pubkeyhash"}, "value": 0.005988, "n": 1}], "hex": "0100000001024f6ad2aee19b2f8d66b12fcfffc71296750b594352efefce9be11c8acd2b64010000006b483045022100b3068ea19f61027aa1f56cbe51d5281b4dc190173408720acc9c05f177ff52f5022072212cf1637742c7e22b5f388b2a6fa799d8a5d144491167e77ed587eec9a5910121032e330cfc0f412da939991bb28348979a09a971958cd7ed5161af5a291c260a4dfeffffff02801a06000000000017a91469534855a29d3bd575e6f743404fa7608f1b79ce8710230900000000001976a914bfa0d3a678bb4543f7f3d2f7c2481551e2d7abd588ac12490800", "vin": [{"sequence": 4294967294, "scriptSig": {"hex": "483045022100b3068ea19f61027aa1f56cbe51d5281b4dc190173408720acc9c05f177ff52f5022072212cf1637742c7e22b5f388b2a6fa799d8a5d144491167e77ed587eec9a5910121032e330cfc0f412da939991bb28348979a09a971958cd7ed5161af5a291c260a4d", "asm": "3045022100b3068ea19f61027aa1f56cbe51d5281b4dc190173408720acc9c05f177ff52f5022072212cf1637742c7e22b5f388b2a6fa799d8a5d144491167e77ed587eec9a591[ALL] 032e330cfc0f412da939991bb28348979a09a971958cd7ed5161af5a291c260a4d"}, "vout": 1, "txid": "642bcd8a1ce19bceefef5243590b759612c7ffcf2fb1668d2f9be1aed26a4f02"}], "txid": "d4674edd5e9ba1dbb89035ad1e69d8819ec638825d43572afe517fd6ddc66fef", "blocktime": 1537873282, "version": 1, "confirmations": 11484, "time": 1537873282, "locktime": 542994, "vsize": 224, "size": 224}