{"hash": "d468fc985d60408ca77bf4f43d1cfe602d26c1987e2e34e97f34dcff5eca40f8", "blockhash": "0000000000000000001f76057863aec43deb6fa401d9628bb513d65a8098bfab", "vout": [{"scriptPubKey": {"reqSigs": 1, "hex": "a9147c5f3872f3f330b4f62ffb417e15d38d734cc2fa87", "addresses": ["3D2dnNFxreqSCTMSVz9gt8bSFRsijf7UTe"], "asm": "OP_HASH160 7c5f3872f3f330b4f62ffb417e15d38d734cc2fa OP_EQUAL", "type": "scripthash"}, "value": 0.0023, "n": 0}, {"scriptPubKey": {"reqSigs": 1, "hex": "76a914b9e6cba3ae9ca1a598ad30993e915d25c8eea70088ac", "addresses": ["1HwxVSSyxgN1fpzN6MwVp1nV1RrpmuBV5n"], "asm": "OP_DUP OP_HASH160 b9e6cba3ae9ca1a598ad30993e915d25c8eea700 OP_EQUALVERIFY OP_CHECKSIG", "type": "pubkeyhash"}, "value": 0.01262001, "n": 1}], "hex": "01000000014397dd3719d0e85c6a32e716f7d9c216e355d09e9ef6625cc3cebf63ffad974b000000006a4730440220609e4e936258c7cc7453048ee2656a51c2362fca049a0858ba4296659a8f147b02200c4678c27c7a4a240fb4585e7888ec1258eff7a7706d3c193687afe0f20b6af30121027bf8601c6242aee98ebfc1c6a85b9312b7fcef489f301c69ab45a2446b052b74ffffffff02708203000000000017a9147c5f3872f3f330b4f62ffb417e15d38d734cc2fa87b1411300000000001976a914b9e6cba3ae9ca1a598ad30993e915d25c8eea70088ac00000000", "vin": [{"sequence": 4294967295, "scriptSig": {"hex": "4730440220609e4e936258c7cc7453048ee2656a51c2362fca049a0858ba4296659a8f147b02200c4678c27c7a4a240fb4585e7888ec1258eff7a7706d3c193687afe0f20b6af30121027bf8601c6242aee98ebfc1c6a85b9312b7fcef489f301c69ab45a2446b052b74", "asm": "30440220609e4e936258c7cc7453048ee2656a51c2362fca049a0858ba4296659a8f147b02200c4678c27c7a4a240fb4585e7888ec1258eff7a7706d3c193687afe0f20b6af3[ALL] 027bf8601c6242aee98ebfc1c6a85b9312b7fcef489f301c69ab45a2446b052b74"}, "vout": 0, "txid": "4b97adff63bfcec35c62f69e9ed055e316c2d9f716e7326a5ce8d01937dd9743"}], "txid": "d468fc985d60408ca77bf4f43d1cfe602d26c1987e2e34e97f34dcff5eca40f8", "blocktime": 1537873891, "version": 1, "confirmations": 11477, "time": 1537873891, "locktime": 0, "vsize": 223, "size": 223}