{"hash": "d46a48eeb684e74c71629b1c464c18037d5f90bf412c6f15f63d6a0cacd0840c", "blockhash": "00000000000000000024a2167bbff67b0be802c0b01cdd79e6331c2be6459f87", "vout": [{"scriptPubKey": {"reqSigs": 1, "hex": "76a914191096343b825caa0848b91f906e15f4a6e721f188ac", "addresses": ["13HXmGDJa8Az4PJuHV37bCFKuNzYKJge9i"], "asm": "OP_DUP OP_HASH160 191096343b825caa0848b91f906e15f4a6e721f1 OP_EQUALVERIFY OP_CHECKSIG", "type": "pubkeyhash"}, "value": 0.018, "n": 0}, {"scriptPubKey": {"reqSigs": 1, "hex": "76a9143fbb53266fd3604c9794121fe073d2e3569bf1c788ac", "addresses": ["16oyyeBCcEcDAwueyB7WJP9tYpX3VfDBmn"], "asm": "OP_DUP OP_HASH160 3fbb53266fd3604c9794121fe073d2e3569bf1c7 OP_EQUALVERIFY OP_CHECKSIG", "type": "pubkeyhash"}, "value": 0.11264102, "n": 1}], "hex": "0100000001a7f332a16388710e1b78091f0d37257e92806ac55a02320fc11149336095e7ed010000006b483045022100edc5600446d0cc83f6b77fa3c06b1fce19bf754158aef8d1e5e77c23da1ab0980220048c2fe78b1abb37ab0eccfc2ef9b381d1f416ca5add072224130f616de5e6a701210287efa79dce0841d58811b96d659006e587da29d4d22056a59cf9de483719415affffffff0240771b00000000001976a914191096343b825caa0848b91f906e15f4a6e721f188ac66e0ab00000000001976a9143fbb53266fd3604c9794121fe073d2e3569bf1c788ac00000000", "vin": [{"sequence": 4294967295, "scriptSig": {"hex": "483045022100edc5600446d0cc83f6b77fa3c06b1fce19bf754158aef8d1e5e77c23da1ab0980220048c2fe78b1abb37ab0eccfc2ef9b381d1f416ca5add072224130f616de5e6a701210287efa79dce0841d58811b96d659006e587da29d4d22056a59cf9de483719415a", "asm": "3045022100edc5600446d0cc83f6b77fa3c06b1fce19bf754158aef8d1e5e77c23da1ab0980220048c2fe78b1abb37ab0eccfc2ef9b381d1f416ca5add072224130f616de5e6a7[ALL] 0287efa79dce0841d58811b96d659006e587da29d4d22056a59cf9de483719415a"}, "vout": 1, "txid": "ede79560334911c10f32025ac56a80927e25370d1f09781b0e718863a132f3a7"}], "txid": "d46a48eeb684e74c71629b1c464c18037d5f90bf412c6f15f63d6a0cacd0840c", "blocktime": 1537870564, "version": 1, "confirmations": 11515, "time": 1537870564, "locktime": 0, "vsize": 226, "size": 226}