{"hash": "d473586526a8e60c00df073c2a40c748c6836b43524ba9a64d9aff8a9d2e0e0e", "blockhash": "0000000000000000001f76057863aec43deb6fa401d9628bb513d65a8098bfab", "vout": [{"scriptPubKey": {"reqSigs": 1, "hex": "76a9140104f2f238bab969e69bfa0be54574a86cf51ac488ac", "addresses": ["16Pc4BvHfkUBwWgBB1h7pJ4bdYb3xDSgK"], "asm": "OP_DUP OP_HASH160 0104f2f238bab969e69bfa0be54574a86cf51ac4 OP_EQUALVERIFY OP_CHECKSIG", "type": "pubkeyhash"}, "value": 0.00023098, "n": 0}, {"scriptPubKey": {"reqSigs": 1, "hex": "76a914db420c5172ec59de9ebc56348ac9a295097b146188ac", "addresses": ["1LzL77eK6swfLZPoeZ8vPJS54w7FvYXMgv"], "asm": "OP_DUP OP_HASH160 db420c5172ec59de9ebc56348ac9a295097b1461 OP_EQUALVERIFY OP_CHECKSIG", "type": "pubkeyhash"}, "value": 0.01014518, "n": 1}], "hex": "010000000318cc0c0f093f704dfa8d3bd744e3e0dc45484654ddfef7b3ee0800768be01864000000006b483045022100dcd551199625da7f5221edd403d694df2f540e66dd9a0a064ebd6159fa0c651f022018a92b377a24cd8d9a5a471967952251a9d36e7ee09bf6c34689e582386ad0780121026c9d50514f5b38e6a48def155c81275a30ec5e5e024d3e43ee8018e51e0c7e9affffffffc9a981451a38a4b01babd38c8c217b138460b723017486bc7e7048b084fe3698000000006b483045022100d099cc6a930fe537c5dc0eab2ce24b14256a096097e153570a9cdd03557035cf022032488b1074afbd1a00559c4052e27dd38dba77511acaa399b163b8b9b87756d30121029349ea4d75c87a333f4e21d675539d20543cbc95dfd0ebd0430ee9e0ec589ae7ffffffffa2619b9f811e9b83c1190596e7b8a52db7a69910ebda571edb1e8351484c86f3010000006a4730440220697e0288059db5aef1afe3bb5c1414c0e7bb556e07936f9ded6fd0868082c3390220380aa2586f83cce29927b1a5c29841e5ff438976a138d680e18b998cdde4173801210316e45e5c5d56ec90fb0cca5a6c902e4ce8c9bf2795674b53255843a82360a28fffffffff023a5a0000000000001976a9140104f2f238bab969e69bfa0be54574a86cf51ac488acf67a0f00000000001976a914db420c5172ec59de9ebc56348ac9a295097b146188ac00000000", "vin": [{"sequence": 4294967295, "scriptSig": {"hex": "483045022100dcd551199625da7f5221edd403d694df2f540e66dd9a0a064ebd6159fa0c651f022018a92b377a24cd8d9a5a471967952251a9d36e7ee09bf6c34689e582386ad0780121026c9d50514f5b38e6a48def155c81275a30ec5e5e024d3e43ee8018e51e0c7e9a", "asm": "3045022100dcd551199625da7f5221edd403d694df2f540e66dd9a0a064ebd6159fa0c651f022018a92b377a24cd8d9a5a471967952251a9d36e7ee09bf6c34689e582386ad078[ALL] 026c9d50514f5b38e6a48def155c81275a30ec5e5e024d3e43ee8018e51e0c7e9a"}, "vout": 0, "txid": "6418e08b760008eeb3f7fedd54464845dce0e344d73b8dfa4d703f090f0ccc18"}, {"sequence": 4294967295, "scriptSig": {"hex": "483045022100d099cc6a930fe537c5dc0eab2ce24b14256a096097e153570a9cdd03557035cf022032488b1074afbd1a00559c4052e27dd38dba77511acaa399b163b8b9b87756d30121029349ea4d75c87a333f4e21d675539d20543cbc95dfd0ebd0430ee9e0ec589ae7", "asm": "3045022100d099cc6a930fe537c5dc0eab2ce24b14256a096097e153570a9cdd03557035cf022032488b1074afbd1a00559c4052e27dd38dba77511acaa399b163b8b9b87756d3[ALL] 029349ea4d75c87a333f4e21d675539d20543cbc95dfd0ebd0430ee9e0ec589ae7"}, "vout": 0, "txid": "9836fe84b048707ebc86740123b76084137b218c8cd3ab1bb0a4381a4581a9c9"}, {"sequence": 4294967295, "scriptSig": {"hex": "4730440220697e0288059db5aef1afe3bb5c1414c0e7bb556e07936f9ded6fd0868082c3390220380aa2586f83cce29927b1a5c29841e5ff438976a138d680e18b998cdde4173801210316e45e5c5d56ec90fb0cca5a6c902e4ce8c9bf2795674b53255843a82360a28f", "asm": "30440220697e0288059db5aef1afe3bb5c1414c0e7bb556e07936f9ded6fd0868082c3390220380aa2586f83cce29927b1a5c29841e5ff438976a138d680e18b998cdde41738[ALL] 0316e45e5c5d56ec90fb0cca5a6c902e4ce8c9bf2795674b53255843a82360a28f"}, "vout": 1, "txid": "f3864c4851831edb1e57daeb1099a6b72da5b8e7960519c1839b1e819f9b61a2"}], "txid": "d473586526a8e60c00df073c2a40c748c6836b43524ba9a64d9aff8a9d2e0e0e", "blocktime": 1537873891, "version": 1, "confirmations": 11478, "time": 1537873891, "locktime": 0, "vsize": 521, "size": 521}