{"hash": "574725a9dd59b386ae2075b5b30730e1d106673f330f113a7d1cb07367e95b04", "blockhash": "000000000000000000022b45ed06c6f4ccd3cf7fb5ba4856ebd2e58215665228", "vout": [{"scriptPubKey": {"reqSigs": 1, "hex": "0014e6c206eb0bcd9785ca1dc703710523d29f43afa9", "addresses": ["bc1qumpqd6ctektctjsacuphzpfr62058tafvwuxz8"], "asm": "0 e6c206eb0bcd9785ca1dc703710523d29f43afa9", "type": "witness_v0_keyhash"}, "value": 0.00128393, "n": 0}, {"scriptPubKey": {"reqSigs": 1, "hex": "76a914890b3eb23bb1ce23fd5d54aa9106798b86e835f788ac", "addresses": ["1DVd3bFpRKMVqbeg74DRQ1gNjvJ9TDfoSg"], "asm": "OP_DUP OP_HASH160 890b3eb23bb1ce23fd5d54aa9106798b86e835f7 OP_EQUALVERIFY OP_CHECKSIG", "type": "pubkeyhash"}, "value": 0.02804526, "n": 1}], "hex": "0100000000010153ed48d88d6c1022fc39721335d7b8ebd72e416c74f826b29ff33379b41e80080900000017160014f3c84043ca3ed59614696cae3dc10888d09b05b4ffffffff0289f5010000000000160014e6c206eb0bcd9785ca1dc703710523d29f43afa92ecb2a00000000001976a914890b3eb23bb1ce23fd5d54aa9106798b86e835f788ac02483045022100eb44edbfda29f5771b16a7f35be079d134f390e8547b52b5a8c1f7a16a7535d202203eda86a31b021206a01fb02e06cf9bd636013278a8c51454446cb31f1e192a63012103ccbfbb84480b7ac67d612b60a453609ce48570d1cdf73220e1f6eaf242c39c7700000000", "vin": [{"txinwitness": ["3045022100eb44edbfda29f5771b16a7f35be079d134f390e8547b52b5a8c1f7a16a7535d202203eda86a31b021206a01fb02e06cf9bd636013278a8c51454446cb31f1e192a6301", "03ccbfbb84480b7ac67d612b60a453609ce48570d1cdf73220e1f6eaf242c39c77"], "sequence": 4294967295, "scriptSig": {"hex": "160014f3c84043ca3ed59614696cae3dc10888d09b05b4", "asm": "0014f3c84043ca3ed59614696cae3dc10888d09b05b4"}, "vout": 9, "txid": "08801eb47933f39fb226f8746c412ed7ebb8d735137239fc22106c8dd848ed53"}], "txid": "d47da05a3063245e7c842da294a19370c15e64c1e0707436a9c47952d71a84bb", "blocktime": 1537869901, "version": 1, "confirmations": 11523, "time": 1537869901, "locktime": 0, "vsize": 167, "size": 249}