{"hash": "0b45883c566ed70d208ec507353471892375f24e1e0f7cf0343ed8d25f6bc834", "blockhash": "0000000000000000001cda96e906b7601b7a6fb1a3b62bca570a9e5d8f4b3de1", "vout": [{"scriptPubKey": {"reqSigs": 1, "hex": "00147ffa0f07e9f90ead92a26c2dcadaf0d47fb098a2", "addresses": ["bc1q0laq7plfly82my4zdsku4khs63lmpx9zsrj6c2"], "asm": "0 7ffa0f07e9f90ead92a26c2dcadaf0d47fb098a2", "type": "witness_v0_keyhash"}, "value": 0.02371141, "n": 0}, {"scriptPubKey": {"reqSigs": 1, "hex": "76a9143db6d603a51eba207ac94bd5c6840729c73fbeb788ac", "addresses": ["16dKFNQt3toq523Pn1pd7DChoLMYygFHvH"], "asm": "OP_DUP OP_HASH160 3db6d603a51eba207ac94bd5c6840729c73fbeb7 OP_EQUALVERIFY OP_CHECKSIG", "type": "pubkeyhash"}, "value": 0.05427078, "n": 1}], "hex": "01000000000101d05b673667a3f7fbc64ee016fdbdc9ada76de11941a652d667e2179d00a49bfd5d000000171600144b5d30b6aa9142509617c772ab4cc9b87b18e9b3ffffffff02452e2400000000001600147ffa0f07e9f90ead92a26c2dcadaf0d47fb098a286cf5200000000001976a9143db6d603a51eba207ac94bd5c6840729c73fbeb788ac0247304402202e384f012b0c1c37a99883642b5e73810bc201f3c2bfbf24278d8b23e257d9230220755399b0d3e662a6e5a59deb302cabda65f752ea3d59ac803befdeae3d60bfac0121026e9e0cadccb99a6cad5de3dde00f797f0ecf6abdfa6051a9707fb0236c96112700000000", "vin": [{"txinwitness": ["304402202e384f012b0c1c37a99883642b5e73810bc201f3c2bfbf24278d8b23e257d9230220755399b0d3e662a6e5a59deb302cabda65f752ea3d59ac803befdeae3d60bfac01", "026e9e0cadccb99a6cad5de3dde00f797f0ecf6abdfa6051a9707fb0236c961127"], "sequence": 4294967295, "scriptSig": {"hex": "1600144b5d30b6aa9142509617c772ab4cc9b87b18e9b3", "asm": "00144b5d30b6aa9142509617c772ab4cc9b87b18e9b3"}, "vout": 93, "txid": "fd9ba4009d17e267d652a64119e16da7adc9bdfd16e04ec6fbf7a36736675bd0"}], "txid": "d486d4b320d31d3e1c148ed1f08b8c21ecd9ef51a19a1258c33d471aa2a58138", "blocktime": 1537873282, "version": 1, "confirmations": 11484, "time": 1537873282, "locktime": 0, "vsize": 167, "size": 248}