{"hash": "d48f6d2248950a641ef01985d0af8b875871fcfd5ce682f8162ecd4ae7e11830", "blockhash": "0000000000000000001cda96e906b7601b7a6fb1a3b62bca570a9e5d8f4b3de1", "vout": [{"scriptPubKey": {"reqSigs": 1, "hex": "76a91428cbc26426aa829f20c464240a119536981dbc2388ac", "addresses": ["14ii87z3Jg4htZ96V9W6NpzNsLYRYb62iK"], "asm": "OP_DUP OP_HASH160 28cbc26426aa829f20c464240a119536981dbc23 OP_EQUALVERIFY OP_CHECKSIG", "type": "pubkeyhash"}, "value": 0.01183152, "n": 0}], "hex": "0100000001f74f608262dfafcc3e4b73c68823fb54a74a8a4bf4a5f06759c686984583d5c7000000006a473044022026f0e29a34e0acfe7ca3d034bc75a802928852cd109fd4790ede815ccd77d2be022032681468743480ffbad01c60b8f50489b39d31a19d7008c86ce5ff43f83e2cc701210279a6202d741e2765782bccf4cbefd0c926540340402111c947e029f2fecaba57feffffff01b00d1200000000001976a91428cbc26426aa829f20c464240a119536981dbc2388ac13490800", "vin": [{"sequence": 4294967294, "scriptSig": {"hex": "473044022026f0e29a34e0acfe7ca3d034bc75a802928852cd109fd4790ede815ccd77d2be022032681468743480ffbad01c60b8f50489b39d31a19d7008c86ce5ff43f83e2cc701210279a6202d741e2765782bccf4cbefd0c926540340402111c947e029f2fecaba57", "asm": "3044022026f0e29a34e0acfe7ca3d034bc75a802928852cd109fd4790ede815ccd77d2be022032681468743480ffbad01c60b8f50489b39d31a19d7008c86ce5ff43f83e2cc7[ALL] 0279a6202d741e2765782bccf4cbefd0c926540340402111c947e029f2fecaba57"}, "vout": 0, "txid": "c7d583459886c65967f0a5f44b8a4aa754fb2388c6734b3eccafdf6282604ff7"}], "txid": "d48f6d2248950a641ef01985d0af8b875871fcfd5ce682f8162ecd4ae7e11830", "blocktime": 1537873282, "version": 1, "confirmations": 11484, "time": 1537873282, "locktime": 542995, "vsize": 191, "size": 191}