{"hash": "d493250bfa9967f798739893f8afa9336a4855d759fd621e3fe5a23480049e10", "blockhash": "0000000000000000000e13cef7c366c0283d82e591d1acd082e914b08063cdf1", "vout": [{"scriptPubKey": {"reqSigs": 1, "hex": "76a914e80e1af0b597423c159b2d9939111964865545fa88ac", "addresses": ["1N9zfZ7JML3uLGPTTHjAz3cHnQwJNfkj1V"], "asm": "OP_DUP OP_HASH160 e80e1af0b597423c159b2d9939111964865545fa OP_EQUALVERIFY OP_CHECKSIG", "type": "pubkeyhash"}, "value": 0.00625684, "n": 0}, {"scriptPubKey": {"reqSigs": 1, "hex": "76a9144841703c01e6e4f52e57e9c359485a03f5ed66d788ac", "addresses": ["17b43Z41XktNMtYaQAeZcj4aAsT5d7tiVT"], "asm": "OP_DUP OP_HASH160 4841703c01e6e4f52e57e9c359485a03f5ed66d7 OP_EQUALVERIFY OP_CHECKSIG", "type": "pubkeyhash"}, "value": 0.12121643, "n": 1}], "hex": "0100000001737bac6348f042db766b23350d520975c62eab5206cb50dcc59d8422f7ebf837010000006b483045022100f567b90fef6a2f51941d1c74fb3e99b414b7102f14d556ff40e734714528926102202c5277d63bf0a5abe83ff55e3af60af5aa69ff488bbb1df6da5bde8426803eb60121039664361c175a5b0e78ff8fc03a25c02c17ab04e5add7f83534967d3bc12c7eafffffffff02148c0900000000001976a914e80e1af0b597423c159b2d9939111964865545fa88ac2bf6b800000000001976a9144841703c01e6e4f52e57e9c359485a03f5ed66d788ac00000000", "vin": [{"sequence": 4294967295, "scriptSig": {"hex": "483045022100f567b90fef6a2f51941d1c74fb3e99b414b7102f14d556ff40e734714528926102202c5277d63bf0a5abe83ff55e3af60af5aa69ff488bbb1df6da5bde8426803eb60121039664361c175a5b0e78ff8fc03a25c02c17ab04e5add7f83534967d3bc12c7eaf", "asm": "3045022100f567b90fef6a2f51941d1c74fb3e99b414b7102f14d556ff40e734714528926102202c5277d63bf0a5abe83ff55e3af60af5aa69ff488bbb1df6da5bde8426803eb6[ALL] 039664361c175a5b0e78ff8fc03a25c02c17ab04e5add7f83534967d3bc12c7eaf"}, "vout": 1, "txid": "37f8ebf722849dc5dc50cb0652ab2ec67509520d35236b76db42f04863ac7b73"}], "txid": "d493250bfa9967f798739893f8afa9336a4855d759fd621e3fe5a23480049e10", "blocktime": 1537871767, "version": 1, "confirmations": 11490, "time": 1537871767, "locktime": 0, "vsize": 226, "size": 226}