{"hash": "d2f3856cc2e7ba7dd7fdbf4fc405fd03c2c9ec7e90d8abb5573dbed2287c727e", "blockhash": "0000000000000000000baef3f32e3676a92c3b2e5da21b426e4f302fc371ce76", "vout": [{"scriptPubKey": {"reqSigs": 1, "hex": "a91430897cc6c9d69f6a2c2f1c651d51f22219f1a4f687", "addresses": ["367f4YWz1VCFaqBqwbTrzwi2b1h2U3w1AF"], "asm": "OP_HASH160 30897cc6c9d69f6a2c2f1c651d51f22219f1a4f6 OP_EQUAL", "type": "scripthash"}, "value": 18.47299755, "n": 0}, {"scriptPubKey": {"reqSigs": 1, "hex": "a91469f374615ee4d2c4e2c7f9127245946194f5a80d87", "addresses": ["3BMEXD4qGfFHmqtZjj2n75LoXMSg6SkB69"], "asm": "OP_HASH160 69f374615ee4d2c4e2c7f9127245946194f5a80d OP_EQUAL", "type": "scripthash"}, "value": 0.09690829, "n": 1}], "hex": "010000000001014a64523867e314f7eb2dee12a533d52a1c9f2aa2913952a71c74f1c229be3c180000000023220020bcf9f822194145acea0f3235f4107b5bf1a91b6b9f8489f63bf79ec29b360913ffffffff02ab8e1b6e0000000017a91430897cc6c9d69f6a2c2f1c651d51f22219f1a4f687cdde93000000000017a91469f374615ee4d2c4e2c7f9127245946194f5a80d8704004730440220491039725adeb3a682158da54d159d1dc987ac08f9bd715279c2409d7a8470e902201c63086d16935f2aeabead1b1e0863ce4bfce835181930b4c9cb1cc948b1914401483045022100cd01913bcf50c8cc2b161668553f9beccef84295d18d779bcc36327c7930484d02205ee87fdedb194cb4321a38460d5127c9ea05b3108d46c28812d27d9261525e9d01695221026c8f72b9e63db63907115e65d4da86eaae595b22fdc85ec75301bb4adbf203582103806535be3e3920e5eedee92de5714188fd6a784f2bf7b04f87de0b9c3ae1ecdb21024b23bfdce2afcae7e28c42f7f79aa100f22931712c52d7414a526ba494d44a2553ae00000000", "vin": [{"txinwitness": ["", "30440220491039725adeb3a682158da54d159d1dc987ac08f9bd715279c2409d7a8470e902201c63086d16935f2aeabead1b1e0863ce4bfce835181930b4c9cb1cc948b1914401", "3045022100cd01913bcf50c8cc2b161668553f9beccef84295d18d779bcc36327c7930484d02205ee87fdedb194cb4321a38460d5127c9ea05b3108d46c28812d27d9261525e9d01", "5221026c8f72b9e63db63907115e65d4da86eaae595b22fdc85ec75301bb4adbf203582103806535be3e3920e5eedee92de5714188fd6a784f2bf7b04f87de0b9c3ae1ecdb21024b23bfdce2afcae7e28c42f7f79aa100f22931712c52d7414a526ba494d44a2553ae"], "sequence": 4294967295, "scriptSig": {"hex": "220020bcf9f822194145acea0f3235f4107b5bf1a91b6b9f8489f63bf79ec29b360913", "asm": "0020bcf9f822194145acea0f3235f4107b5bf1a91b6b9f8489f63bf79ec29b360913"}, "vout": 0, "txid": "183cbe29c2f1741ca7523991a22a9f1c2ad533a512ee2debf714e3673852644a"}], "txid": "d49447de50b7e14609f64eaf15aea526497c06290acd7a7a11b3514d6968e088", "blocktime": 1537876114, "version": 1, "confirmations": 11460, "time": 1537876114, "locktime": 0, "vsize": 214, "size": 405}