{"hash": "335f9407a17ccb76fdf59db9dd892a421c85683accefe63c5595d6b7eedbe3b0", "blockhash": "00000000000000000017f5eb5941039fbcee6240d03bc1f2f8e35350df66a1d8", "vout": [{"scriptPubKey": {"reqSigs": 1, "hex": "a914ba9d0c7cae7ee674d70ef5b87077917035ab772487", "addresses": ["3JhjkAVsSz7APjg7mRSxSB5YNbzyz7sth7"], "asm": "OP_HASH160 ba9d0c7cae7ee674d70ef5b87077917035ab7724 OP_EQUAL", "type": "scripthash"}, "value": 0.00998649, "n": 0}, {"scriptPubKey": {"reqSigs": 1, "hex": "a914d72145e0313b966663cbafed59aec7df44c4a7e287", "addresses": ["3MJX4de7cFjsuaFTN2guRytUNTtm6KtPVR"], "asm": "OP_HASH160 d72145e0313b966663cbafed59aec7df44c4a7e2 OP_EQUAL", "type": "scripthash"}, "value": 0.0070538, "n": 1}], "hex": "02000000000101c0c018fdce0c9da41ee603daa0a4622a0a69b49c80a9e77a49ee95372103d6f7000000001716001422b740edeeae83e91607e93226265226bfbcd339feffffff02f93c0f000000000017a914ba9d0c7cae7ee674d70ef5b87077917035ab77248764c30a000000000017a914d72145e0313b966663cbafed59aec7df44c4a7e287024830450221009d61c1b1fb856aab172b8d9e49c9978dc6f1e1dff31205c4d0f112c4ba764f7a02203f58d46820bb7418d32b5fa73abd4ca3f9faa3fef3bebddc6d7585bf5059f8d0012103eaa02c567705c3d8c95a7155adbc321c01a93fc0affd4d3967db7a2f70df491dc4480800", "vin": [{"txinwitness": ["30450221009d61c1b1fb856aab172b8d9e49c9978dc6f1e1dff31205c4d0f112c4ba764f7a02203f58d46820bb7418d32b5fa73abd4ca3f9faa3fef3bebddc6d7585bf5059f8d001", "03eaa02c567705c3d8c95a7155adbc321c01a93fc0affd4d3967db7a2f70df491d"], "sequence": 4294967294, "scriptSig": {"hex": "16001422b740edeeae83e91607e93226265226bfbcd339", "asm": "001422b740edeeae83e91607e93226265226bfbcd339"}, "vout": 0, "txid": "f7d603213795ee497ae7a9809cb4690a2a62a4a0da03e61ea49d0ccefd18c0c0"}], "txid": "d4977eabfe0a8e76305c4b04a766936f2c03436ea8799a3b4411a77a1b9e036d", "blocktime": 1537874412, "version": 2, "confirmations": 11467, "time": 1537874412, "locktime": 542916, "vsize": 166, "size": 248}