{"hash": "d49aa8dd549c9f247065ebdbd444fd220384052246852a370160a33883946143", "blockhash": "0000000000000000001e0dab787dd257d1dbfcb92a98c2207d5e1078be1f4165", "vout": [{"scriptPubKey": {"reqSigs": 1, "hex": "76a914ae603e36fc4cd996fbafab47cefdf6447184da8488ac", "addresses": ["1Gu1sTkW8aNcA47hEqNaeqYvoP8Si6i4d4"], "asm": "OP_DUP OP_HASH160 ae603e36fc4cd996fbafab47cefdf6447184da84 OP_EQUALVERIFY OP_CHECKSIG", "type": "pubkeyhash"}, "value": 0.01561995, "n": 0}, {"scriptPubKey": {"reqSigs": 1, "hex": "76a914d231380c0c7f3727152c2fbc05d0d7844ff0125a88ac", "addresses": ["1LAPs5QDBAYSTh9ATqeHSTyHcU7mnyK13f"], "asm": "OP_DUP OP_HASH160 d231380c0c7f3727152c2fbc05d0d7844ff0125a OP_EQUALVERIFY OP_CHECKSIG", "type": "pubkeyhash"}, "value": 0.08584773, "n": 1}], "hex": "0100000001fbe8ad0a0dcbe46611ffb9d5b95499904adae79ed34138343c93883232eb1a0a010000006a47304402204c6a433195733999cfe3919ed6d4ac550007dced61eb67960775e643f0f5532d022027cadfeaadffe2335daa840bffc05df036f550515cd48341f88227eeafa695af01210348588271f7acc9a335485ba0a35d841be5995ada45b96eae0ba0c0dff04538c9ffffffff028bd51700000000001976a914ae603e36fc4cd996fbafab47cefdf6447184da8488ac45fe8200000000001976a914d231380c0c7f3727152c2fbc05d0d7844ff0125a88ac00000000", "vin": [{"sequence": 4294967295, "scriptSig": {"hex": "47304402204c6a433195733999cfe3919ed6d4ac550007dced61eb67960775e643f0f5532d022027cadfeaadffe2335daa840bffc05df036f550515cd48341f88227eeafa695af01210348588271f7acc9a335485ba0a35d841be5995ada45b96eae0ba0c0dff04538c9", "asm": "304402204c6a433195733999cfe3919ed6d4ac550007dced61eb67960775e643f0f5532d022027cadfeaadffe2335daa840bffc05df036f550515cd48341f88227eeafa695af[ALL] 0348588271f7acc9a335485ba0a35d841be5995ada45b96eae0ba0c0dff04538c9"}, "vout": 1, "txid": "0a1aeb323288933c343841d39ee7da4a909954b9d5b9ff1166e4cb0d0aade8fb"}], "txid": "d49aa8dd549c9f247065ebdbd444fd220384052246852a370160a33883946143", "blocktime": 1537872475, "version": 1, "confirmations": 11487, "time": 1537872475, "locktime": 0, "vsize": 225, "size": 225}