{"hash": "d4a2f7dcbe1b97a6b260853499222a4b48b73aee975c1dd286dfae31f6404df1", "blockhash": "00000000000000000004ffacab907a6b429b9a5745fa0b75af4234bf69dd7176", "vout": [{"scriptPubKey": {"reqSigs": 1, "hex": "76a9141cd54f061aa56a0d4a5c6e6d4df9499741737a7788ac", "addresses": ["13dTTKUvacQFjeVYQVMfR44vPoSE8KbvAg"], "asm": "OP_DUP OP_HASH160 1cd54f061aa56a0d4a5c6e6d4df9499741737a77 OP_EQUALVERIFY OP_CHECKSIG", "type": "pubkeyhash"}, "value": 0.00040511, "n": 0}, {"scriptPubKey": {"reqSigs": 1, "hex": "76a914bc2b310c32e91ca90f57ed7851bb4129239ebe2a88ac", "addresses": ["1J9wn4yfh63RGffNnGUJaDGNwEDep5Ts97"], "asm": "OP_DUP OP_HASH160 bc2b310c32e91ca90f57ed7851bb4129239ebe2a OP_EQUALVERIFY OP_CHECKSIG", "type": "pubkeyhash"}, "value": 0.10129014, "n": 1}], "hex": "0100000003951245fea1fc61e41be345c6cc8e60469dcc644df4924b4fb39350c42f11d381000000006b483045022100ca1ab99af31840692bf163d417bac33bff6663c93a0bf9a3e8cd9b27ec609ceb02204c0afdccfe0e39030fd1637a0cc48b1f6fca4f4424c8e8931a514e964fca7ce60121032eac7edd04fe9b30d294e3f1b5001a778d96d299f31f37a28e267ac1262c9907ffffffff2cffeea67da6aedb7e28ba587007df535527a0f1980fc50d1fd99d4c43106796000000006a47304402202c27896933f1aab76b636db80b86bb4d8851028fa20307b5e488a8cefd88642102203a33f9afba676667342fe8d771e10eacf5bc1f29c9f28187e320555fabd9ba9d012102621f3ba2a0e93511ac983ef0ff8f5ee1983afb287192fc3f4193ba2439208d60ffffffff857811b160f702d2d231eb48952da69827df5bd0a218111d5954ed341f0097a7000000006a47304402205660456a905418bb90dfc833e765a4f83070c408ce12006213ebb8a2f17b320002200161806225beedd1d8c873905d090c7b8ef4cc6fba8906801f75b71ca1f20f3e0121032eac7edd04fe9b30d294e3f1b5001a778d96d299f31f37a28e267ac1262c9907ffffffff023f9e0000000000001976a9141cd54f061aa56a0d4a5c6e6d4df9499741737a7788ac768e9a00000000001976a914bc2b310c32e91ca90f57ed7851bb4129239ebe2a88ac00000000", "vin": [{"sequence": 4294967295, "scriptSig": {"hex": "483045022100ca1ab99af31840692bf163d417bac33bff6663c93a0bf9a3e8cd9b27ec609ceb02204c0afdccfe0e39030fd1637a0cc48b1f6fca4f4424c8e8931a514e964fca7ce60121032eac7edd04fe9b30d294e3f1b5001a778d96d299f31f37a28e267ac1262c9907", "asm": "3045022100ca1ab99af31840692bf163d417bac33bff6663c93a0bf9a3e8cd9b27ec609ceb02204c0afdccfe0e39030fd1637a0cc48b1f6fca4f4424c8e8931a514e964fca7ce6[ALL] 032eac7edd04fe9b30d294e3f1b5001a778d96d299f31f37a28e267ac1262c9907"}, "vout": 0, "txid": "81d3112fc45093b34f4b92f44d64cc9d46608eccc645e31be461fca1fe451295"}, {"sequence": 4294967295, "scriptSig": {"hex": "47304402202c27896933f1aab76b636db80b86bb4d8851028fa20307b5e488a8cefd88642102203a33f9afba676667342fe8d771e10eacf5bc1f29c9f28187e320555fabd9ba9d012102621f3ba2a0e93511ac983ef0ff8f5ee1983afb287192fc3f4193ba2439208d60", "asm": "304402202c27896933f1aab76b636db80b86bb4d8851028fa20307b5e488a8cefd88642102203a33f9afba676667342fe8d771e10eacf5bc1f29c9f28187e320555fabd9ba9d[ALL] 02621f3ba2a0e93511ac983ef0ff8f5ee1983afb287192fc3f4193ba2439208d60"}, "vout": 0, "txid": "966710434c9dd91f0dc50f98f1a0275553df077058ba287edbaea67da6eeff2c"}, {"sequence": 4294967295, "scriptSig": {"hex": "47304402205660456a905418bb90dfc833e765a4f83070c408ce12006213ebb8a2f17b320002200161806225beedd1d8c873905d090c7b8ef4cc6fba8906801f75b71ca1f20f3e0121032eac7edd04fe9b30d294e3f1b5001a778d96d299f31f37a28e267ac1262c9907", "asm": "304402205660456a905418bb90dfc833e765a4f83070c408ce12006213ebb8a2f17b320002200161806225beedd1d8c873905d090c7b8ef4cc6fba8906801f75b71ca1f20f3e[ALL] 032eac7edd04fe9b30d294e3f1b5001a778d96d299f31f37a28e267ac1262c9907"}, "vout": 0, "txid": "a797001f34ed54591d1118a2d05bdf2798a62d9548eb31d2d202f760b1117885"}], "txid": "d4a2f7dcbe1b97a6b260853499222a4b48b73aee975c1dd286dfae31f6404df1", "blocktime": 1537875543, "version": 1, "confirmations": 11464, "time": 1537875543, "locktime": 0, "vsize": 520, "size": 520}