{"hash": "d4a7d9f75b4fc16cb27bcbb1893ca41adde75aa52441390fe5d3bbc4623106af", "blockhash": "0000000000000000001cda96e906b7601b7a6fb1a3b62bca570a9e5d8f4b3de1", "vout": [{"scriptPubKey": {"type": "nulldata", "hex": "6a4c50000077ca000156ad56564651153b13e171da5b23cc0f42c2fc38c5e5bf9ae76da98a211af20c93f69a8b1c3b9601b103f5867b205baa13d90612c0ea5619812e1d100759d4ba30d2c37bb011d97e02cf", "asm": "OP_RETURN 000077ca000156ad56564651153b13e171da5b23cc0f42c2fc38c5e5bf9ae76da98a211af20c93f69a8b1c3b9601b103f5867b205baa13d90612c0ea5619812e1d100759d4ba30d2c37bb011d97e02cf"}, "value": 0.0, "n": 0}, {"scriptPubKey": {"reqSigs": 1, "hex": "76a914559ac6563b302318864d4257fbbf6c4a6abaa3b588ac", "addresses": ["18odrF9j4nqMAqyT9EqeKXWKgLQeZzLboo"], "asm": "OP_DUP OP_HASH160 559ac6563b302318864d4257fbbf6c4a6abaa3b5 OP_EQUALVERIFY OP_CHECKSIG", "type": "pubkeyhash"}, "value": 0.00638375, "n": 1}], "hex": "01000000015b67dbf400320157fbff1ea9ebfbc59bc81ff1da7acc55a38d9039f3f7331396010000006a47304402200fc9ce871985466238d7bc1921c743ed94eed9be017a5b8f64836d320c57569e02206ee5b9f085b06a782ab8341f45d6234928991da665140f98bdb913793cf9934c01210383dfd36955477136319f7de3f32a19eb55d65c6356698be6df5d7bb21baaeb02ffffffff020000000000000000536a4c50000077ca000156ad56564651153b13e171da5b23cc0f42c2fc38c5e5bf9ae76da98a211af20c93f69a8b1c3b9601b103f5867b205baa13d90612c0ea5619812e1d100759d4ba30d2c37bb011d97e02cfa7bd0900000000001976a914559ac6563b302318864d4257fbbf6c4a6abaa3b588ac00000000", "vin": [{"sequence": 4294967295, "scriptSig": {"hex": "47304402200fc9ce871985466238d7bc1921c743ed94eed9be017a5b8f64836d320c57569e02206ee5b9f085b06a782ab8341f45d6234928991da665140f98bdb913793cf9934c01210383dfd36955477136319f7de3f32a19eb55d65c6356698be6df5d7bb21baaeb02", "asm": "304402200fc9ce871985466238d7bc1921c743ed94eed9be017a5b8f64836d320c57569e02206ee5b9f085b06a782ab8341f45d6234928991da665140f98bdb913793cf9934c[ALL] 0383dfd36955477136319f7de3f32a19eb55d65c6356698be6df5d7bb21baaeb02"}, "vout": 1, "txid": "961333f7f339908da355cc7adaf11fc89bc5fbeba91efffb57013200f4db675b"}], "txid": "d4a7d9f75b4fc16cb27bcbb1893ca41adde75aa52441390fe5d3bbc4623106af", "blocktime": 1537873282, "version": 1, "confirmations": 11484, "time": 1537873282, "locktime": 0, "vsize": 283, "size": 283}