{"hash": "d4a7b3a2842f63b1b6ec045822a16fce472e8e8ae8df855aad50127fb8078f1d", "blockhash": "000000000000000000022b45ed06c6f4ccd3cf7fb5ba4856ebd2e58215665228", "vout": [{"scriptPubKey": {"reqSigs": 1, "hex": "76a914d3055e757b625a2775c246e01ac1b120dbd57a3388ac", "addresses": ["1LEn1X8bJXrVcU6GM7GemWHmmnXquF52Pj"], "asm": "OP_DUP OP_HASH160 d3055e757b625a2775c246e01ac1b120dbd57a33 OP_EQUALVERIFY OP_CHECKSIG", "type": "pubkeyhash"}, "value": 0.00479888, "n": 0}, {"scriptPubKey": {"reqSigs": 1, "hex": "a914000cc7638ea9f63968dd22af5440c49744641a8b87", "addresses": ["31hHESAdC8U4pxTA1bARUXF66kPQb4Lnpd"], "asm": "OP_HASH160 000cc7638ea9f63968dd22af5440c49744641a8b OP_EQUAL", "type": "scripthash"}, "value": 0.00468435, "n": 1}], "hex": "0100000001aa40f971dc79d83c140b953192ed8a1ef258709d6641ccb265a1186d32e7bb51000000006a473044022048a4ba31818d7f3e10ef8f19a7526d830a760e221a942aa7853ff9d32f848c3f0220710ad76d757590f1dc46a17eb52300f9d5fba2e7d88aa98d143a2ba8ec9339480121023df6dcec3b7b9ce769540d60ecafc5a04981e518f2a000e1dca6699392a980ceffffffff0290520700000000001976a914d3055e757b625a2775c246e01ac1b120dbd57a3388acd32507000000000017a914000cc7638ea9f63968dd22af5440c49744641a8b8700000000", "vin": [{"sequence": 4294967295, "scriptSig": {"hex": "473044022048a4ba31818d7f3e10ef8f19a7526d830a760e221a942aa7853ff9d32f848c3f0220710ad76d757590f1dc46a17eb52300f9d5fba2e7d88aa98d143a2ba8ec9339480121023df6dcec3b7b9ce769540d60ecafc5a04981e518f2a000e1dca6699392a980ce", "asm": "3044022048a4ba31818d7f3e10ef8f19a7526d830a760e221a942aa7853ff9d32f848c3f0220710ad76d757590f1dc46a17eb52300f9d5fba2e7d88aa98d143a2ba8ec933948[ALL] 023df6dcec3b7b9ce769540d60ecafc5a04981e518f2a000e1dca6699392a980ce"}, "vout": 0, "txid": "51bbe7326d18a165b2cc41669d7058f21e8aed9231950b143cd879dc71f940aa"}], "txid": "d4a7b3a2842f63b1b6ec045822a16fce472e8e8ae8df855aad50127fb8078f1d", "blocktime": 1537869901, "version": 1, "confirmations": 11522, "time": 1537869901, "locktime": 0, "vsize": 223, "size": 223}