{"hash": "d4aa5985a3349d81a9c214ae86216ca484bbf65fb43a23a3325af9d93d9a3679", "blockhash": "000000000000000000022b45ed06c6f4ccd3cf7fb5ba4856ebd2e58215665228", "vout": [{"scriptPubKey": {"type": "nulldata", "hex": "6a146f6d6e69000000000000001f000000010c388d00", "asm": "OP_RETURN 6f6d6e69000000000000001f000000010c388d00"}, "value": 0.0, "n": 0}, {"scriptPubKey": {"reqSigs": 1, "hex": "76a91421ce9aaae02b32e397e6d816aea7a4be1efa9bd288ac", "addresses": ["145koSWSoF9xzA6MmPF3otTXRUGcgZNgVX"], "asm": "OP_DUP OP_HASH160 21ce9aaae02b32e397e6d816aea7a4be1efa9bd2 OP_EQUALVERIFY OP_CHECKSIG", "type": "pubkeyhash"}, "value": 0.00496651, "n": 1}, {"scriptPubKey": {"reqSigs": 1, "hex": "76a91488d924f51033b74a895863a5fb57fd545529df7d88ac", "addresses": ["1DUb2YYbQA1jjaNYzVXLZ7ZioEhLXtbUru"], "asm": "OP_DUP OP_HASH160 88d924f51033b74a895863a5fb57fd545529df7d OP_EQUALVERIFY OP_CHECKSIG", "type": "pubkeyhash"}, "value": 5.46e-06, "n": 2}], "hex": "010000000231cbe5a7b9a50643016b1798e1ba0d3e177f015ceafd7faf5087c09f0dda85e1000000006a47304402202a0faad220d24c3a12cc173d8eaaf8c35116b705bb7da642e55fef3a67c76e92022024130b5820c10f36e3f504343f6dbc0bd224e452e09a8464ef6074f3dfefb6b7012103a01f7248432c86e7cc1ec67d15ad0c36e68b4b69b0b2ffbb53b687fd1d122482feffffff11ef2c77bc3aaa9251387177d7dc6eba9ae856175b355f67abf87c2a41d143c7010000006a47304402203da02dabbd1eb98a8f3b975830ca961a7870cc53260f2eb5e78496a283b0b5f8022071fc9d3e667cb1fbd0a9b5d0a3ab2e46dfcebcb6e01d6d013159d45ce7e00c89012103a01f7248432c86e7cc1ec67d15ad0c36e68b4b69b0b2ffbb53b687fd1d122482feffffff030000000000000000166a146f6d6e69000000000000001f000000010c388d000b940700000000001976a91421ce9aaae02b32e397e6d816aea7a4be1efa9bd288ac22020000000000001976a91488d924f51033b74a895863a5fb57fd545529df7d88ac0b490800", "vin": [{"sequence": 4294967294, "scriptSig": {"hex": "47304402202a0faad220d24c3a12cc173d8eaaf8c35116b705bb7da642e55fef3a67c76e92022024130b5820c10f36e3f504343f6dbc0bd224e452e09a8464ef6074f3dfefb6b7012103a01f7248432c86e7cc1ec67d15ad0c36e68b4b69b0b2ffbb53b687fd1d122482", "asm": "304402202a0faad220d24c3a12cc173d8eaaf8c35116b705bb7da642e55fef3a67c76e92022024130b5820c10f36e3f504343f6dbc0bd224e452e09a8464ef6074f3dfefb6b7[ALL] 03a01f7248432c86e7cc1ec67d15ad0c36e68b4b69b0b2ffbb53b687fd1d122482"}, "vout": 0, "txid": "e185da0d9fc08750af7ffdea5c017f173e0dbae198176b014306a5b9a7e5cb31"}, {"sequence": 4294967294, "scriptSig": {"hex": "47304402203da02dabbd1eb98a8f3b975830ca961a7870cc53260f2eb5e78496a283b0b5f8022071fc9d3e667cb1fbd0a9b5d0a3ab2e46dfcebcb6e01d6d013159d45ce7e00c89012103a01f7248432c86e7cc1ec67d15ad0c36e68b4b69b0b2ffbb53b687fd1d122482", "asm": "304402203da02dabbd1eb98a8f3b975830ca961a7870cc53260f2eb5e78496a283b0b5f8022071fc9d3e667cb1fbd0a9b5d0a3ab2e46dfcebcb6e01d6d013159d45ce7e00c89[ALL] 03a01f7248432c86e7cc1ec67d15ad0c36e68b4b69b0b2ffbb53b687fd1d122482"}, "vout": 1, "txid": "c743d1412a7cf8ab675f355b1756e89aba6edcd77771385192aa3abc772cef11"}], "txid": "d4aa5985a3349d81a9c214ae86216ca484bbf65fb43a23a3325af9d93d9a3679", "blocktime": 1537869901, "version": 1, "confirmations": 11522, "time": 1537869901, "locktime": 542987, "vsize": 403, "size": 403}