{"hash": "f258010a250432dc9656ee67aefe5170ee9bace71229e4454c2372ae481798ea", "blockhash": "00000000000000000024a2167bbff67b0be802c0b01cdd79e6331c2be6459f87", "vout": [{"scriptPubKey": {"reqSigs": 1, "hex": "a914cda9fd219142879f0121a1eca024d6624ed77ec987", "addresses": ["3LSU5u1B3GrqtXCx5azCXg5Uopacoe25wm"], "asm": "OP_HASH160 cda9fd219142879f0121a1eca024d6624ed77ec9 OP_EQUAL", "type": "scripthash"}, "value": 0.02901204, "n": 0}, {"scriptPubKey": {"reqSigs": 1, "hex": "76a91400acb07406ccc2a353f5a7ae91b82641ea55741b88ac", "addresses": ["114ZsfL8fyJ8s86Aq1QfnmSQ4HUpTr6EG8"], "asm": "OP_DUP OP_HASH160 00acb07406ccc2a353f5a7ae91b82641ea55741b OP_EQUALVERIFY OP_CHECKSIG", "type": "pubkeyhash"}, "value": 0.0002, "n": 1}], "hex": "02000000000101a803b0c7f5bbe4447af57fb21eb8ebade93ed0c007427e8d426d751b63cbd8b8020000001716001458049be7aa1e840b1c7f98dc0717dd47a1a0cba7fdffffff02d4442c000000000017a914cda9fd219142879f0121a1eca024d6624ed77ec987204e0000000000001976a91400acb07406ccc2a353f5a7ae91b82641ea55741b88ac02473044022076993beb001e6a5b56869564d37f7cb64db07fa631ae57eeba56f9ebbbee3c4202204b99785c9805f5bdbae24114e797b72d5f0f066b8f562457906ad2a9cd539e460121020752a126d8e0c99dbcbe946506541707b8ab550828ba4c62ea2d1b149e0bd4a70d490800", "vin": [{"txinwitness": ["3044022076993beb001e6a5b56869564d37f7cb64db07fa631ae57eeba56f9ebbbee3c4202204b99785c9805f5bdbae24114e797b72d5f0f066b8f562457906ad2a9cd539e4601", "020752a126d8e0c99dbcbe946506541707b8ab550828ba4c62ea2d1b149e0bd4a7"], "sequence": 4294967293, "scriptSig": {"hex": "16001458049be7aa1e840b1c7f98dc0717dd47a1a0cba7", "asm": "001458049be7aa1e840b1c7f98dc0717dd47a1a0cba7"}, "vout": 2, "txid": "b8d8cb631b756d428d7e4207c0d03ee9adebb81eb27ff57a44e4bbf5c7b003a8"}], "txid": "d4b0d346cf24a537ef5a0b60e8a5303f593fe5bf46c6947dd531612ae950955f", "blocktime": 1537870564, "version": 2, "confirmations": 11515, "time": 1537870564, "locktime": 542989, "vsize": 168, "size": 249}