{"hash": "f97ff53f71bfbbf5507759235ccb47d38d08ec2ba4cc84ff9fa34c31b2fd139d", "blockhash": "0000000000000000000e13cef7c366c0283d82e591d1acd082e914b08063cdf1", "vout": [{"scriptPubKey": {"reqSigs": 1, "hex": "76a9147ba6ebeef7a1774719505d8e54800060252aa40d88ac", "addresses": ["1CGp5WiKmAyXVPodDGPTnNtFdc2vC51WBr"], "asm": "OP_DUP OP_HASH160 7ba6ebeef7a1774719505d8e54800060252aa40d OP_EQUALVERIFY OP_CHECKSIG", "type": "pubkeyhash"}, "value": 0.04058822, "n": 0}, {"scriptPubKey": {"reqSigs": 1, "hex": "a9141988a27e3c2df4ddee7fad5a2303d086179b2a3087", "addresses": ["3422VtS7UtCvXYxoXMVp6eZupR252z85oC"], "asm": "OP_HASH160 1988a27e3c2df4ddee7fad5a2303d086179b2a30 OP_EQUAL", "type": "scripthash"}, "value": 2.76933231, "n": 1}], "hex": "01000000000101c7eb49290bcd342f7c8621939ac694d7da07a37329da2eecf94af4e45ff0906d030000002322002065d416c48a8072e0ac51c2d111eb194f009caef0332446c1bf2097316cf07fa9ffffffff02c6ee3d00000000001976a9147ba6ebeef7a1774719505d8e54800060252aa40d88ac6faa81100000000017a9141988a27e3c2df4ddee7fad5a2303d086179b2a30870400483045022100ef2d48ebf3613064a4ead4d5585efe0ddc1d0cd3de19af5f535fee565689c38002205a71e77209e9d542425f146b1ba4bf8b9a9cad1e9872bfc95e84eb56a861e3da01483045022100cccbe48d8ba11b2402d698932c3ae7951b91aea3c7faa72beb235947857d803702201bd836ae7e274beea287c98643d561e477169737c9f9c2cc6a4c597d3f93deb60169522102f44abcf9e23c9a460da309ccca56c619c04eed3bde2c2cff5e7d78fbcd980b9c2103c9443cf3047bb6c2c82f1b0c44c36109cdc3d0d601d16d1189a1602bf8d1a0a02103bfe867059274412412e088af5572b92168c2ef495cfe6c9b7a753a009eb37c4853ae00000000", "vin": [{"txinwitness": ["", "3045022100ef2d48ebf3613064a4ead4d5585efe0ddc1d0cd3de19af5f535fee565689c38002205a71e77209e9d542425f146b1ba4bf8b9a9cad1e9872bfc95e84eb56a861e3da01", "3045022100cccbe48d8ba11b2402d698932c3ae7951b91aea3c7faa72beb235947857d803702201bd836ae7e274beea287c98643d561e477169737c9f9c2cc6a4c597d3f93deb601", "522102f44abcf9e23c9a460da309ccca56c619c04eed3bde2c2cff5e7d78fbcd980b9c2103c9443cf3047bb6c2c82f1b0c44c36109cdc3d0d601d16d1189a1602bf8d1a0a02103bfe867059274412412e088af5572b92168c2ef495cfe6c9b7a753a009eb37c4853ae"], "sequence": 4294967295, "scriptSig": {"hex": "22002065d416c48a8072e0ac51c2d111eb194f009caef0332446c1bf2097316cf07fa9", "asm": "002065d416c48a8072e0ac51c2d111eb194f009caef0332446c1bf2097316cf07fa9"}, "vout": 3, "txid": "6d90f05fe4f44af9ec2eda2973a307dad794c69a9321867c2f34cd0b2949ebc7"}], "txid": "d4b3f5aa8c342303508a630b839dc01fd204a532957e2c5311e7d891519255ad", "blocktime": 1537871767, "version": 1, "confirmations": 11491, "time": 1537871767, "locktime": 0, "vsize": 216, "size": 408}