{"hash": "d4b554d7710e077439997687bde2ec9917495c5b82104299f019c6c45dcdf4f1", "blockhash": "00000000000000000004ffacab907a6b429b9a5745fa0b75af4234bf69dd7176", "vout": [{"scriptPubKey": {"reqSigs": 1, "hex": "a9148444c64c5be10aa7ffa58d6258c2f58effec8b3087", "addresses": ["3DkPWQeZdFYGnnmc8vw8XNg6vyofdqXiGf"], "asm": "OP_HASH160 8444c64c5be10aa7ffa58d6258c2f58effec8b30 OP_EQUAL", "type": "scripthash"}, "value": 0.013279, "n": 0}, {"scriptPubKey": {"reqSigs": 1, "hex": "76a914c52e6ed89cccce04736b612e64951cc88f1c68cb88ac", "addresses": ["1Jybk1feSxBx69y1Pxb7jp33jCeM3ejZoT"], "asm": "OP_DUP OP_HASH160 c52e6ed89cccce04736b612e64951cc88f1c68cb OP_EQUALVERIFY OP_CHECKSIG", "type": "pubkeyhash"}, "value": 0.12435114, "n": 1}], "hex": "0100000001d64ef43aa486e0f697cf7faa5169294c727b31be953b0b281e27329f9afcba3a010000006b483045022100ed0ac439f12893176d69735c3a5c46056e80cc267ff166c350b8ba9bd01dda52022018f79ab920ddfe6913b73d5178a2f5849636d11537393be5cbf0d91bd010853301210252590c134c7a3aef72ccaff54ea9bad159344ff64e81d3834a93b991b528d40bffffffff021c4314000000000017a9148444c64c5be10aa7ffa58d6258c2f58effec8b3087aabebd00000000001976a914c52e6ed89cccce04736b612e64951cc88f1c68cb88ac00000000", "vin": [{"sequence": 4294967295, "scriptSig": {"hex": "483045022100ed0ac439f12893176d69735c3a5c46056e80cc267ff166c350b8ba9bd01dda52022018f79ab920ddfe6913b73d5178a2f5849636d11537393be5cbf0d91bd010853301210252590c134c7a3aef72ccaff54ea9bad159344ff64e81d3834a93b991b528d40b", "asm": "3045022100ed0ac439f12893176d69735c3a5c46056e80cc267ff166c350b8ba9bd01dda52022018f79ab920ddfe6913b73d5178a2f5849636d11537393be5cbf0d91bd0108533[ALL] 0252590c134c7a3aef72ccaff54ea9bad159344ff64e81d3834a93b991b528d40b"}, "vout": 1, "txid": "3abafc9a9f32271e280b3b95be317b724c296951aa7fcf97f6e086a43af44ed6"}], "txid": "d4b554d7710e077439997687bde2ec9917495c5b82104299f019c6c45dcdf4f1", "blocktime": 1537875543, "version": 1, "confirmations": 11464, "time": 1537875543, "locktime": 0, "vsize": 224, "size": 224}