{"hash": "d4b6565bfadcc0ceab82031f1e2a38b87cbc5628cedc3029cdd19b0b111e6956", "blockhash": "00000000000000000024a2167bbff67b0be802c0b01cdd79e6331c2be6459f87", "vout": [{"scriptPubKey": {"reqSigs": 1, "hex": "76a9146941e7b0c5366a4e72b8e191b5023e00f79b9b3b88ac", "addresses": ["1AbYuJg6PwQkG6UmzAxwiqhG9ZjRvPRcaX"], "asm": "OP_DUP OP_HASH160 6941e7b0c5366a4e72b8e191b5023e00f79b9b3b OP_EQUALVERIFY OP_CHECKSIG", "type": "pubkeyhash"}, "value": 0.01278, "n": 0}, {"scriptPubKey": {"reqSigs": 1, "hex": "a914e370231feecbfc25e2e2423a5a79bf79bfdca59887", "addresses": ["3NRbeX3vD5VaVE4TDU9ivCDsEf7NPPte6J"], "asm": "OP_HASH160 e370231feecbfc25e2e2423a5a79bf79bfdca598 OP_EQUAL", "type": "scripthash"}, "value": 11.68404708, "n": 1}], "hex": "0100000001980455e6e4d58e429ba67236b916aaea5521ef0410e267828d5d94bf4dee11b501000000db00483045022100df15aadb9dbc6c29ec6b0f287e54ee744fc7f458f1cba26e02d2dd27be0647cb02201824cbd96114985ce2ebcc2c10d6b4d79c95876c5af3bd851b4594a0131894a001483045022100f817472cf28756fd8397ec2758ff659fc19002ae636b188f68dd1ed6b81b81b402203bed7b42380f0c91793b536e6eb0ad078d1890499c132a3b4879aff0a21e6d24014752210327881b6abce6535553a3ce21fad12a7d74fd237ce7c4cd270a267162344e3082210256141f8eb687f5a68c5cc65054652dc25116fa285e44d72b44368827ffe77d9a52aeffffffff0230801300000000001976a9146941e7b0c5366a4e72b8e191b5023e00f79b9b3b88ace470a4450000000017a914e370231feecbfc25e2e2423a5a79bf79bfdca5988700000000", "vin": [{"sequence": 4294967295, "scriptSig": {"hex": "00483045022100df15aadb9dbc6c29ec6b0f287e54ee744fc7f458f1cba26e02d2dd27be0647cb02201824cbd96114985ce2ebcc2c10d6b4d79c95876c5af3bd851b4594a0131894a001483045022100f817472cf28756fd8397ec2758ff659fc19002ae636b188f68dd1ed6b81b81b402203bed7b42380f0c91793b536e6eb0ad078d1890499c132a3b4879aff0a21e6d24014752210327881b6abce6535553a3ce21fad12a7d74fd237ce7c4cd270a267162344e3082210256141f8eb687f5a68c5cc65054652dc25116fa285e44d72b44368827ffe77d9a52ae", "asm": "0 3045022100df15aadb9dbc6c29ec6b0f287e54ee744fc7f458f1cba26e02d2dd27be0647cb02201824cbd96114985ce2ebcc2c10d6b4d79c95876c5af3bd851b4594a0131894a0[ALL] 3045022100f817472cf28756fd8397ec2758ff659fc19002ae636b188f68dd1ed6b81b81b402203bed7b42380f0c91793b536e6eb0ad078d1890499c132a3b4879aff0a21e6d24[ALL] 52210327881b6abce6535553a3ce21fad12a7d74fd237ce7c4cd270a267162344e3082210256141f8eb687f5a68c5cc65054652dc25116fa285e44d72b44368827ffe77d9a52ae"}, "vout": 1, "txid": "b511ee4dbf945d8d8267e21004ef2155eaaa16b93672a69b428ed5e4e6550498"}], "txid": "d4b6565bfadcc0ceab82031f1e2a38b87cbc5628cedc3029cdd19b0b111e6956", "blocktime": 1537870564, "version": 1, "confirmations": 11515, "time": 1537870564, "locktime": 0, "vsize": 336, "size": 336}