{"hash": "d4bbcb18bb1a3de13f58fbd3de6f41c7e13b85bc4ef4c72b3a2efd6f3206b3f2", "blockhash": "0000000000000000001e0dab787dd257d1dbfcb92a98c2207d5e1078be1f4165", "vout": [{"scriptPubKey": {"reqSigs": 1, "hex": "a914a6a6a6972795d919334f72d604b41cf318b9645087", "addresses": ["3GtBjV3PwMsqhLpb5Cubscq2FRFPZBrXrW"], "asm": "OP_HASH160 a6a6a6972795d919334f72d604b41cf318b96450 OP_EQUAL", "type": "scripthash"}, "value": 0.01100229, "n": 0}], "hex": "0100000001586e97c4c3968f49eb7b2f8918488fcb19d45461909ca55cdae78eca28ca0d5d010000006b483045022100a3d16c559660dd7c610820567365267e4104858b5cc6feef076b2b6427417db9022030230e6421b6108ee7a7c0241cf26c22e32249d5f0ad02be009d48288b6e72fc0121037ce89de571a28f2238ede14fbaf3eb1f2a3983f1e63e704ce0597794f4ef44c4feffffff01c5c910000000000017a914a6a6a6972795d919334f72d604b41cf318b964508700000000", "vin": [{"sequence": 4294967294, "scriptSig": {"hex": "483045022100a3d16c559660dd7c610820567365267e4104858b5cc6feef076b2b6427417db9022030230e6421b6108ee7a7c0241cf26c22e32249d5f0ad02be009d48288b6e72fc0121037ce89de571a28f2238ede14fbaf3eb1f2a3983f1e63e704ce0597794f4ef44c4", "asm": "3045022100a3d16c559660dd7c610820567365267e4104858b5cc6feef076b2b6427417db9022030230e6421b6108ee7a7c0241cf26c22e32249d5f0ad02be009d48288b6e72fc[ALL] 037ce89de571a28f2238ede14fbaf3eb1f2a3983f1e63e704ce0597794f4ef44c4"}, "vout": 1, "txid": "5d0dca28ca8ee7da5ca59c906154d419cb8f4818892f7beb498f96c3c4976e58"}], "txid": "d4bbcb18bb1a3de13f58fbd3de6f41c7e13b85bc4ef4c72b3a2efd6f3206b3f2", "blocktime": 1537872475, "version": 1, "confirmations": 11487, "time": 1537872475, "locktime": 0, "vsize": 190, "size": 190}