{"hash": "f028c317245c9d6b980725cc789be30d19476203803d86cefdaf3b6c7905cafd", "blockhash": "0000000000000000000dcc0f55137456b1a82d3642486a52398922ac4d620174", "vout": [{"scriptPubKey": {"reqSigs": 1, "hex": "76a914ca5ec44bc27f14ccbd27cf4749fc51352a6733ac88ac", "addresses": ["1KT32G9REiEjdkj8FE4dNuGYHG1F9aCi6i"], "asm": "OP_DUP OP_HASH160 ca5ec44bc27f14ccbd27cf4749fc51352a6733ac OP_EQUALVERIFY OP_CHECKSIG", "type": "pubkeyhash"}, "value": 0.01747097, "n": 0}, {"scriptPubKey": {"reqSigs": 1, "hex": "a914d0fa0327b6b5c5ba55eb43466f7d447170c7076c87", "addresses": ["3Ljyyc4cqydVUHkiA5kajfMfwSWaa1kFmh"], "asm": "OP_HASH160 d0fa0327b6b5c5ba55eb43466f7d447170c7076c OP_EQUAL", "type": "scripthash"}, "value": 0.3344419, "n": 1}], "hex": "02000000000101713a17cbe767c188a7a542d96022adae8ab6463007d05c141f45d82a91152a1601000000171600145671b84998ed0ed0d279110019523720db0483a5feffffff0299a81a00000000001976a914ca5ec44bc27f14ccbd27cf4749fc51352a6733ac88ac5e51fe010000000017a914d0fa0327b6b5c5ba55eb43466f7d447170c7076c870247304402200817f29dc1c6e23ec60375a5f932cab5b8cd2ae9fd8f8021ba41de35ca6987e302206cfafa4012b406890e87bcfe61cc108d00f51559265820abc0038465d98707880121023dc72ec14fafad415ef5334145b57e684237bc502e92a1606a727e5e36310a6d0c490800", "vin": [{"txinwitness": ["304402200817f29dc1c6e23ec60375a5f932cab5b8cd2ae9fd8f8021ba41de35ca6987e302206cfafa4012b406890e87bcfe61cc108d00f51559265820abc0038465d987078801", "023dc72ec14fafad415ef5334145b57e684237bc502e92a1606a727e5e36310a6d"], "sequence": 4294967294, "scriptSig": {"hex": "1600145671b84998ed0ed0d279110019523720db0483a5", "asm": "00145671b84998ed0ed0d279110019523720db0483a5"}, "vout": 1, "txid": "162a15912ad8451f145cd0073046b68aaead2260d942a5a788c167e7cb173a71"}], "txid": "d4bc90f90d372461c97224dc564030f706b8684248cd40e8cab04db0c015d5b4", "blocktime": 1537870268, "version": 2, "confirmations": 11518, "time": 1537870268, "locktime": 542988, "vsize": 168, "size": 249}