{"hash": "d4bfd41637eadeb805287acd135bf9034dc1ada0f7fdabe42644df32b66d3a79", "blockhash": "00000000000000000024a2167bbff67b0be802c0b01cdd79e6331c2be6459f87", "vout": [{"scriptPubKey": {"reqSigs": 1, "hex": "76a914a171ceb8d1b6976804e6ef0f8421d0f3ef5921df88ac", "addresses": ["1Fie8NQAQwEQRrNHYYs63UuVYiGzsN7Jd6"], "asm": "OP_DUP OP_HASH160 a171ceb8d1b6976804e6ef0f8421d0f3ef5921df OP_EQUALVERIFY OP_CHECKSIG", "type": "pubkeyhash"}, "value": 0.0083559, "n": 0}, {"scriptPubKey": {"reqSigs": 1, "hex": "76a9146138ca65bc73827393822dfcfba3d7e6c0f0e79288ac", "addresses": ["19s4aVLp4FLPytz9tvdNF74Ui1DSBXV6ZP"], "asm": "OP_DUP OP_HASH160 6138ca65bc73827393822dfcfba3d7e6c0f0e792 OP_EQUALVERIFY OP_CHECKSIG", "type": "pubkeyhash"}, "value": 0.87598534, "n": 1}], "hex": "0200000005c94e8c74799a572d24733441d7acd5866318465b896cb2281c09bcbeded89f054d0100006a47304402203163bd54bba03e53098317ad459c4f5f5ae2b97d1b1e75bb2cc7b36b365a1b8e02206235661479e8d6901b5c81d31337079d37ff2b84d672483187a3951174f29386012102c2c0c47352b6a51e71b7632f0aa7e06338b7d439cee27b23243dbe82cd0fa711feffffffb4760205fc7e465b28f4383f90b90833098d20a21e76eed3bd069e46edd804b2040000006a47304402204b242236e13a98936cc0c9d71a10ca5ed0fc56d78393ffd2264390f6502e71690220635a01a71399c19cfdce5611a7951bdf74ad293ed4d2bb58d2a96cb6e5ac5fb20121033e27cb1a1f2db5b9344a1b49725ea6e1aa62f9f0962b9b35b5061567992542c8feffffffba8ee0a4c8995b3e4d2852f71875b0c0ccfe79ccb6693a76da2c4c5cb27b5bb2060000006b483045022100f7c967f6727ac6035f089f8285417db1cb96e01f5428ce1092fd17c23e0d9f8002200838de9d60ee73f487c6485ffab124413df06c7c4891d4876f2194ed5132837b0121030937b1c841c6e9e5b0b0dd5768f465e8a8c9a7e420e9cf7eeb834b584b1ab970feffffffed24bf93b3a1fa87bd0a915faf7bd6d898c4cd9634f8c96ab41bf327cc33f0f6bd0000006b483045022100e51c98f92acb383ed79804badb10b286c698f2b394b4e5116f269de1a28db6a402207a4be27fa4442575a8a6b736a3b3ce356c5db110a03a5700225eaf67ef8985c60121029551cd72b12031bc24e2da2c42cecf30f3e15cffa5efc0fd461dc53db03afe8efeffffffb38c39173f7e42ea43cda88ef48ba532208bf0ba8836a897cb0a945fef384262010000006b4830450221008e5cb50779a05df473ee09f7155030f0273defd57258c904bc185d27f77ce23f02202084d5cf509480ae9069ae8962857f1f83e1f778e2f8ac0a57a4a92c3759cc01012102881f828bd04b12374f1d3faa26357595e590d499a1217feda42904b745694b71feffffff0206c00c00000000001976a914a171ceb8d1b6976804e6ef0f8421d0f3ef5921df88acc6a53805000000001976a9146138ca65bc73827393822dfcfba3d7e6c0f0e79288ac0d490800", "vin": [{"sequence": 4294967294, "scriptSig": {"hex": "47304402203163bd54bba03e53098317ad459c4f5f5ae2b97d1b1e75bb2cc7b36b365a1b8e02206235661479e8d6901b5c81d31337079d37ff2b84d672483187a3951174f29386012102c2c0c47352b6a51e71b7632f0aa7e06338b7d439cee27b23243dbe82cd0fa711", "asm": "304402203163bd54bba03e53098317ad459c4f5f5ae2b97d1b1e75bb2cc7b36b365a1b8e02206235661479e8d6901b5c81d31337079d37ff2b84d672483187a3951174f29386[ALL] 02c2c0c47352b6a51e71b7632f0aa7e06338b7d439cee27b23243dbe82cd0fa711"}, "vout": 333, "txid": "059fd8debebc091c28b26c895b46186386d5acd7413473242d579a79748c4ec9"}, {"sequence": 4294967294, "scriptSig": {"hex": "47304402204b242236e13a98936cc0c9d71a10ca5ed0fc56d78393ffd2264390f6502e71690220635a01a71399c19cfdce5611a7951bdf74ad293ed4d2bb58d2a96cb6e5ac5fb20121033e27cb1a1f2db5b9344a1b49725ea6e1aa62f9f0962b9b35b5061567992542c8", "asm": "304402204b242236e13a98936cc0c9d71a10ca5ed0fc56d78393ffd2264390f6502e71690220635a01a71399c19cfdce5611a7951bdf74ad293ed4d2bb58d2a96cb6e5ac5fb2[ALL] 033e27cb1a1f2db5b9344a1b49725ea6e1aa62f9f0962b9b35b5061567992542c8"}, "vout": 4, "txid": "b204d8ed469e06bdd3ee761ea2208d093308b9903f38f4285b467efc050276b4"}, {"sequence": 4294967294, "scriptSig": {"hex": "483045022100f7c967f6727ac6035f089f8285417db1cb96e01f5428ce1092fd17c23e0d9f8002200838de9d60ee73f487c6485ffab124413df06c7c4891d4876f2194ed5132837b0121030937b1c841c6e9e5b0b0dd5768f465e8a8c9a7e420e9cf7eeb834b584b1ab970", "asm": "3045022100f7c967f6727ac6035f089f8285417db1cb96e01f5428ce1092fd17c23e0d9f8002200838de9d60ee73f487c6485ffab124413df06c7c4891d4876f2194ed5132837b[ALL] 030937b1c841c6e9e5b0b0dd5768f465e8a8c9a7e420e9cf7eeb834b584b1ab970"}, "vout": 6, "txid": "b25b7bb25c4c2cda763a69b6cc79feccc0b07518f752284d3e5b99c8a4e08eba"}, {"sequence": 4294967294, "scriptSig": {"hex": "483045022100e51c98f92acb383ed79804badb10b286c698f2b394b4e5116f269de1a28db6a402207a4be27fa4442575a8a6b736a3b3ce356c5db110a03a5700225eaf67ef8985c60121029551cd72b12031bc24e2da2c42cecf30f3e15cffa5efc0fd461dc53db03afe8e", "asm": "3045022100e51c98f92acb383ed79804badb10b286c698f2b394b4e5116f269de1a28db6a402207a4be27fa4442575a8a6b736a3b3ce356c5db110a03a5700225eaf67ef8985c6[ALL] 029551cd72b12031bc24e2da2c42cecf30f3e15cffa5efc0fd461dc53db03afe8e"}, "vout": 189, "txid": "f6f033cc27f31bb46ac9f83496cdc498d8d67baf5f910abd87faa1b393bf24ed"}, {"sequence": 4294967294, "scriptSig": {"hex": "4830450221008e5cb50779a05df473ee09f7155030f0273defd57258c904bc185d27f77ce23f02202084d5cf509480ae9069ae8962857f1f83e1f778e2f8ac0a57a4a92c3759cc01012102881f828bd04b12374f1d3faa26357595e590d499a1217feda42904b745694b71", "asm": "30450221008e5cb50779a05df473ee09f7155030f0273defd57258c904bc185d27f77ce23f02202084d5cf509480ae9069ae8962857f1f83e1f778e2f8ac0a57a4a92c3759cc01[ALL] 02881f828bd04b12374f1d3faa26357595e590d499a1217feda42904b745694b71"}, "vout": 1, "txid": "624238ef5f940acb97a83688baf08b2032a58bf48ea8cd43ea427e3f17398cb3"}], "txid": "d4bfd41637eadeb805287acd135bf9034dc1ada0f7fdabe42644df32b66d3a79", "blocktime": 1537870564, "version": 2, "confirmations": 11515, "time": 1537870564, "locktime": 542989, "vsize": 816, "size": 816}