{"hash": "d4c0570ea3cde54c7c416463b001568dac00bfceabc516992e575ca352f0edc0", "blockhash": "0000000000000000001f76057863aec43deb6fa401d9628bb513d65a8098bfab", "vout": [{"scriptPubKey": {"reqSigs": 1, "hex": "76a9141533d8c15c4a479651c8a1b6a4663e825671b69388ac", "addresses": ["12w7JQDk5giM4bscHPzupRnyj2f4HRjy6A"], "asm": "OP_DUP OP_HASH160 1533d8c15c4a479651c8a1b6a4663e825671b693 OP_EQUALVERIFY OP_CHECKSIG", "type": "pubkeyhash"}, "value": 0.00793975, "n": 0}, {"scriptPubKey": {"reqSigs": 1, "hex": "76a914a9c8fb08e74b2070c34fbd4c06a28eb1168a678c88ac", "addresses": ["1GUjxoCdbrMNuY3jc4XW7faKYzaNS6rDpS"], "asm": "OP_DUP OP_HASH160 a9c8fb08e74b2070c34fbd4c06a28eb1168a678c OP_EQUALVERIFY OP_CHECKSIG", "type": "pubkeyhash"}, "value": 0.027851, "n": 1}], "hex": "0100000001b520bda6cbaeeb5b00d34897d0a8c9091a2065ffcbe9f372b6bd74c89214736d000000006b483045022100e2430991c7373d5365269f225d764b2f6859a3c8044daa2bf1c7cfa9f427f70102200e46c1b81db79fbebbec5b48be6d18cc2f73b08973d43196fd638b4e538b9ac80121031021a7639500644e6e1179913cbddd183aa06c08e1158cc9e4c0d80b3ebc907effffffff02771d0c00000000001976a9141533d8c15c4a479651c8a1b6a4663e825671b69388ac4c7f2a00000000001976a914a9c8fb08e74b2070c34fbd4c06a28eb1168a678c88ac00000000", "vin": [{"sequence": 4294967295, "scriptSig": {"hex": "483045022100e2430991c7373d5365269f225d764b2f6859a3c8044daa2bf1c7cfa9f427f70102200e46c1b81db79fbebbec5b48be6d18cc2f73b08973d43196fd638b4e538b9ac80121031021a7639500644e6e1179913cbddd183aa06c08e1158cc9e4c0d80b3ebc907e", "asm": "3045022100e2430991c7373d5365269f225d764b2f6859a3c8044daa2bf1c7cfa9f427f70102200e46c1b81db79fbebbec5b48be6d18cc2f73b08973d43196fd638b4e538b9ac8[ALL] 031021a7639500644e6e1179913cbddd183aa06c08e1158cc9e4c0d80b3ebc907e"}, "vout": 0, "txid": "6d731492c874bdb672f3e9cbff65201a09c9a8d09748d3005bebaecba6bd20b5"}], "txid": "d4c0570ea3cde54c7c416463b001568dac00bfceabc516992e575ca352f0edc0", "blocktime": 1537873891, "version": 1, "confirmations": 11478, "time": 1537873891, "locktime": 0, "vsize": 226, "size": 226}