{"hash": "4160bf1d53d1375f0d42c863e44fa9cf22e7fef72d66050db0921c512f0652c1", "blockhash": "0000000000000000001f76057863aec43deb6fa401d9628bb513d65a8098bfab", "vout": [{"scriptPubKey": {"reqSigs": 1, "hex": "76a914fbe60cb3d41bff85d920b625ad1634d4acc14feb88ac", "addresses": ["1PxvCH5SUD2TEPRVcSzsJfGNnc9pn6PNRT"], "asm": "OP_DUP OP_HASH160 fbe60cb3d41bff85d920b625ad1634d4acc14feb OP_EQUALVERIFY OP_CHECKSIG", "type": "pubkeyhash"}, "value": 0.11041514, "n": 0}, {"scriptPubKey": {"reqSigs": 1, "hex": "a914b7f878b160819360d684600073c6798870f2c34087", "addresses": ["3JTmEkM8zQP31Q1yDVkXSy2jRu7jWhBpuM"], "asm": "OP_HASH160 b7f878b160819360d684600073c6798870f2c340 OP_EQUAL", "type": "scripthash"}, "value": 0.0477398, "n": 1}], "hex": "02000000000101a30a9f2a5907e6af147fa0f7d1a28dabecd3cb1696819a928e3428fd32820ead00000000171600142e99e3626d877458e0fc208366d560429a5074e6ffffffff02ea7aa800000000001976a914fbe60cb3d41bff85d920b625ad1634d4acc14feb88ac5cd848000000000017a914b7f878b160819360d684600073c6798870f2c3408702483045022100b403ae29918e56ff4d15cb0cf71ff129be17608cf24b3eb3c2faa3c64a45200102206750e28faa7c4998faee59cd22f33bd4225274630effa6b9b34c4a8c8b49897d012103b738971e56353fa1211c0566ddc8512964ecd79b927921ff5a5c49cd72e8933700000000", "vin": [{"txinwitness": ["3045022100b403ae29918e56ff4d15cb0cf71ff129be17608cf24b3eb3c2faa3c64a45200102206750e28faa7c4998faee59cd22f33bd4225274630effa6b9b34c4a8c8b49897d01", "03b738971e56353fa1211c0566ddc8512964ecd79b927921ff5a5c49cd72e89337"], "sequence": 4294967295, "scriptSig": {"hex": "1600142e99e3626d877458e0fc208366d560429a5074e6", "asm": "00142e99e3626d877458e0fc208366d560429a5074e6"}, "vout": 0, "txid": "ad0e8232fd28348e929a819616cbd3ecab8da2d1f7a07f14afe607592a9f0aa3"}], "txid": "d4c9474ee429a13c9b2b44fb3dc792a4680204314b06e51a70b30442bde7ba72", "blocktime": 1537873891, "version": 2, "confirmations": 11475, "time": 1537873891, "locktime": 0, "vsize": 168, "size": 250}