{"hash": "32d3b97c9650a36fb5c44136bea25aa49c937c4137fac382c34cca5a6cc053f9", "blockhash": "0000000000000000001f0ddff1eddb255c1121bcd4da4f1bc9a0da00cae72433", "vout": [{"scriptPubKey": {"reqSigs": 1, "hex": "76a91400702b92a23cb01e6ec00d92d581703c6dd6323588ac", "addresses": ["113KNiuh9vUguTTRChrZUhHChZrTumvBts"], "asm": "OP_DUP OP_HASH160 00702b92a23cb01e6ec00d92d581703c6dd63235 OP_EQUALVERIFY OP_CHECKSIG", "type": "pubkeyhash"}, "value": 0.00652, "n": 0}, {"scriptPubKey": {"reqSigs": 1, "hex": "a914ad470190b1bf51c7d99a0c512a9226196ea20a7d87", "addresses": ["3HVDtKcWPzQtuF5afgmQo7HGssKGEJ5Tfh"], "asm": "OP_HASH160 ad470190b1bf51c7d99a0c512a9226196ea20a7d OP_EQUAL", "type": "scripthash"}, "value": 2.26205625, "n": 1}], "hex": "02000000000101d0606da30a8279e5f97e0d9ff7d9d8b2fafe0b8d78a37747ae71a12d6c1b3ba10100000017160014c5cbfa6c64f334e27073a21c87d1c6faf9304292feffffff02e0f20900000000001976a91400702b92a23cb01e6ec00d92d581703c6dd6323588acb99f7b0d0000000017a914ad470190b1bf51c7d99a0c512a9226196ea20a7d8702473044022074fe77b1ee7ab571942f25eecae4d58f5a4751fd01e97201b14916ae6fccc52a022033e4022c6c9ad32b40c1f66b6f68d7c9aef07a8360dbc6107708b6bf87b312380121033d5feee0c617ea151b9ddda250ae549b3888a430e6cfa3ec4589ac99a54af21a10490800", "vin": [{"txinwitness": ["3044022074fe77b1ee7ab571942f25eecae4d58f5a4751fd01e97201b14916ae6fccc52a022033e4022c6c9ad32b40c1f66b6f68d7c9aef07a8360dbc6107708b6bf87b3123801", "033d5feee0c617ea151b9ddda250ae549b3888a430e6cfa3ec4589ac99a54af21a"], "sequence": 4294967294, "scriptSig": {"hex": "160014c5cbfa6c64f334e27073a21c87d1c6faf9304292", "asm": "0014c5cbfa6c64f334e27073a21c87d1c6faf9304292"}, "vout": 1, "txid": "a13b1b6c2da171ae4777a3788d0bfefab2d8d9f79f0d7ef9e579820aa36d60d0"}], "txid": "d4c98b0c8721e658e5b0df66441e293e63b97a69265696856c522d2e34dbc13b", "blocktime": 1537872018, "version": 2, "confirmations": 11489, "time": 1537872018, "locktime": 542992, "vsize": 168, "size": 249}