{"hash": "d4cc7fd5fff46c3ced1977f882903cc2b792e2d2bdefe81456358ce8286109f6", "blockhash": "0000000000000000001e0dab787dd257d1dbfcb92a98c2207d5e1078be1f4165", "vout": [{"scriptPubKey": {"reqSigs": 1, "hex": "76a91469f6cc393773269fa1c326ba97e903a0f270983d88ac", "addresses": ["1AfHbx7yjzN1a37nAs1JpAH7a4fWhcTnva"], "asm": "OP_DUP OP_HASH160 69f6cc393773269fa1c326ba97e903a0f270983d OP_EQUALVERIFY OP_CHECKSIG", "type": "pubkeyhash"}, "value": 0.00072, "n": 0}, {"scriptPubKey": {"reqSigs": 1, "hex": "76a914b537301993d57849097e18d172f12d7a084cac9288ac", "addresses": ["1HXBRF6wn5BoTZSepPFLTkJYbXW4nsaC6H"], "asm": "OP_DUP OP_HASH160 b537301993d57849097e18d172f12d7a084cac92 OP_EQUALVERIFY OP_CHECKSIG", "type": "pubkeyhash"}, "value": 0.00064474, "n": 1}], "hex": "0100000001ab06312fd57bfdc33d70347fc752e206d983454143b93559d1430ba58de396f3010000006a47304402202f5a7d0c1af64cadb16116dc93c3c84e8ceb63ceaa60ae357c9e66cc7fef1a410220469c9bbb1156495a03197e2dc6f43d88d529abf0158561f6cfe9e2d3b3eb80b8012103f2d0a3100edbcd6fa45451a8bf88689d83bd2e8e21678c17f228664898e96e0affffffff0240190100000000001976a91469f6cc393773269fa1c326ba97e903a0f270983d88acdafb0000000000001976a914b537301993d57849097e18d172f12d7a084cac9288ac00000000", "vin": [{"sequence": 4294967295, "scriptSig": {"hex": "47304402202f5a7d0c1af64cadb16116dc93c3c84e8ceb63ceaa60ae357c9e66cc7fef1a410220469c9bbb1156495a03197e2dc6f43d88d529abf0158561f6cfe9e2d3b3eb80b8012103f2d0a3100edbcd6fa45451a8bf88689d83bd2e8e21678c17f228664898e96e0a", "asm": "304402202f5a7d0c1af64cadb16116dc93c3c84e8ceb63ceaa60ae357c9e66cc7fef1a410220469c9bbb1156495a03197e2dc6f43d88d529abf0158561f6cfe9e2d3b3eb80b8[ALL] 03f2d0a3100edbcd6fa45451a8bf88689d83bd2e8e21678c17f228664898e96e0a"}, "vout": 1, "txid": "f396e38da50b43d15935b943414583d906e252c77f34703dc3fd7bd52f3106ab"}], "txid": "d4cc7fd5fff46c3ced1977f882903cc2b792e2d2bdefe81456358ce8286109f6", "blocktime": 1537872475, "version": 1, "confirmations": 11486, "time": 1537872475, "locktime": 0, "vsize": 225, "size": 225}