{"hash": "e7a516862f6b9a1f012f83c396c3b553648926f12ef23dbc1d45d50409e3767f", "blockhash": "0000000000000000001f76057863aec43deb6fa401d9628bb513d65a8098bfab", "vout": [{"scriptPubKey": {"reqSigs": 1, "hex": "a914e8db75c900cf08f06518e96d167331f2a4abfb3387", "addresses": ["3NvFbQMAkkqEFj4i1sYPPLkSWzxTFUchjA"], "asm": "OP_HASH160 e8db75c900cf08f06518e96d167331f2a4abfb33 OP_EQUAL", "type": "scripthash"}, "value": 0.04999574, "n": 0}], "hex": "01000000000101bbf41947a267471a89a30245fe6233e6fe14d5c53132c8cf04a42585684a89120100000017160014d9f6b471524eaacd1cd5a1d12359c507a8921fe9ffffffff0196494c000000000017a914e8db75c900cf08f06518e96d167331f2a4abfb338702483045022100ac2ef3394b312f868ba71efacf3b5823ddc781a8a383eea407677e02846954f902200b02232d3005263e6806fb76c6ff99465b1be73bcf25bf750c998117aab1eb380121031749a850de7df01bcdc093d45f7f02eaf518139cc24d41e23b682a18f9c7fd0400000000", "vin": [{"txinwitness": ["3045022100ac2ef3394b312f868ba71efacf3b5823ddc781a8a383eea407677e02846954f902200b02232d3005263e6806fb76c6ff99465b1be73bcf25bf750c998117aab1eb3801", "031749a850de7df01bcdc093d45f7f02eaf518139cc24d41e23b682a18f9c7fd04"], "sequence": 4294967295, "scriptSig": {"hex": "160014d9f6b471524eaacd1cd5a1d12359c507a8921fe9", "asm": "0014d9f6b471524eaacd1cd5a1d12359c507a8921fe9"}, "vout": 1, "txid": "12894a688525a404cfc83231c5d514fee63362fe4502a3891a4767a24719f4bb"}], "txid": "d4cfef1bda75b841d1139627b67e1d48891c999eaf0835074cbb8d9c801ccb16", "blocktime": 1537873891, "version": 1, "confirmations": 11478, "time": 1537873891, "locktime": 0, "vsize": 134, "size": 216}