{"hash": "d4d3cba62856925375296c344fcf7527aa878ee8c926d520a05b30d5259dcfad", "blockhash": "0000000000000000000dcc0f55137456b1a82d3642486a52398922ac4d620174", "vout": [{"scriptPubKey": {"reqSigs": 1, "hex": "76a9141e44ae5fcc5d21c69c8c40f83d3dbf7602883cf788ac", "addresses": ["13m3YogRg2qQ19oV6xwyxmP7ADRELgBmQU"], "asm": "OP_DUP OP_HASH160 1e44ae5fcc5d21c69c8c40f83d3dbf7602883cf7 OP_EQUALVERIFY OP_CHECKSIG", "type": "pubkeyhash"}, "value": 0.00154635, "n": 0}, {"scriptPubKey": {"reqSigs": 1, "hex": "76a9141d1ecde933afaba2f5dad84d5402c8c1b80d61ae88ac", "addresses": ["13eyVtPv2UNEAcjbncgcmMujvGLYGB5DxD"], "asm": "OP_DUP OP_HASH160 1d1ecde933afaba2f5dad84d5402c8c1b80d61ae OP_EQUALVERIFY OP_CHECKSIG", "type": "pubkeyhash"}, "value": 0.01090929, "n": 1}], "hex": "010000000451d1b328e60c14ae5e943cbb604eacbf99aa983c3a4ea7f31ce2f040ec283c100000000069463043021f765440b2882a4bde4c17c6c6f58c4435431bb2f1d68a1e6c486c6899560000022052a1ff2584f9fc0041dd2a8a665ef935f6a11d645241fb48b76edc086f6df90c0121025cb59849f48b686b07bf7056ae2ad720f0275777a38ff68143c14ec50a7e8a0effffffff3953422929cf27d63e4ddb35419fbe0d3a13aee35f466aeefadd7550d8b62435060000006b483045022100dfecbd49435a24f30d5a074a84b275182728399be40b9f88ad0b2732a673ebd502203086f6a69528e4847fdac66688ddf6ff66508e40ed01ea9a0b7d2c52c7174fd9012103362cf0f614256675dd41d3348d0888a509ac82117b598ab6d6faa08a5e3fc4deffffffffd163119478e59101cd1b523d539e2a8fb61971a2aa5a949948074bd4cd114dac000000006a4730440220419cc15c8780dfffc17b5c7e9c7716fa0b1101c0499b8a055c8c3938935624a3022057c5fee6289c35aa5cbc8e51f0dfc1bd3be64507a6715a2ed2c1016f6f471620012102b1e743b3902feda0d1747e6a4dcb33f402898a8268f27051eb01e212e813473fffffffffcfee97bd2a7ea0890de9de44af1df119510b2dc1a80ed760a2951919e7d2a7f9000000006b483045022100aae2c39a78fd7c711992275073167fd3543522792e2101fc8302921c3f291be802201c3475cbb3f5cee7a26da98bb9ac1dfbfef5c910619cd94f8ca6a99872da04df0121030b4c0e891e3ed30ff67dbe037d0e22a04d1148631bf34acd5fcc4f90873126edffffffff020b5c0200000000001976a9141e44ae5fcc5d21c69c8c40f83d3dbf7602883cf788ac71a51000000000001976a9141d1ecde933afaba2f5dad84d5402c8c1b80d61ae88ac00000000", "vin": [{"sequence": 4294967295, "scriptSig": {"hex": "463043021f765440b2882a4bde4c17c6c6f58c4435431bb2f1d68a1e6c486c6899560000022052a1ff2584f9fc0041dd2a8a665ef935f6a11d645241fb48b76edc086f6df90c0121025cb59849f48b686b07bf7056ae2ad720f0275777a38ff68143c14ec50a7e8a0e", "asm": "3043021f765440b2882a4bde4c17c6c6f58c4435431bb2f1d68a1e6c486c6899560000022052a1ff2584f9fc0041dd2a8a665ef935f6a11d645241fb48b76edc086f6df90c[ALL] 025cb59849f48b686b07bf7056ae2ad720f0275777a38ff68143c14ec50a7e8a0e"}, "vout": 0, "txid": "103c28ec40f0e21cf3a74e3a3c98aa99bfac4e60bb3c945eae140ce628b3d151"}, {"sequence": 4294967295, "scriptSig": {"hex": "483045022100dfecbd49435a24f30d5a074a84b275182728399be40b9f88ad0b2732a673ebd502203086f6a69528e4847fdac66688ddf6ff66508e40ed01ea9a0b7d2c52c7174fd9012103362cf0f614256675dd41d3348d0888a509ac82117b598ab6d6faa08a5e3fc4de", "asm": "3045022100dfecbd49435a24f30d5a074a84b275182728399be40b9f88ad0b2732a673ebd502203086f6a69528e4847fdac66688ddf6ff66508e40ed01ea9a0b7d2c52c7174fd9[ALL] 03362cf0f614256675dd41d3348d0888a509ac82117b598ab6d6faa08a5e3fc4de"}, "vout": 6, "txid": "3524b6d85075ddfaee6a465fe3ae133a0dbe9f4135db4d3ed627cf2929425339"}, {"sequence": 4294967295, "scriptSig": {"hex": "4730440220419cc15c8780dfffc17b5c7e9c7716fa0b1101c0499b8a055c8c3938935624a3022057c5fee6289c35aa5cbc8e51f0dfc1bd3be64507a6715a2ed2c1016f6f471620012102b1e743b3902feda0d1747e6a4dcb33f402898a8268f27051eb01e212e813473f", "asm": "30440220419cc15c8780dfffc17b5c7e9c7716fa0b1101c0499b8a055c8c3938935624a3022057c5fee6289c35aa5cbc8e51f0dfc1bd3be64507a6715a2ed2c1016f6f471620[ALL] 02b1e743b3902feda0d1747e6a4dcb33f402898a8268f27051eb01e212e813473f"}, "vout": 0, "txid": "ac4d11cdd44b074899945aaaa27119b68f2a9e533d521bcd0191e578941163d1"}, {"sequence": 4294967295, "scriptSig": {"hex": "483045022100aae2c39a78fd7c711992275073167fd3543522792e2101fc8302921c3f291be802201c3475cbb3f5cee7a26da98bb9ac1dfbfef5c910619cd94f8ca6a99872da04df0121030b4c0e891e3ed30ff67dbe037d0e22a04d1148631bf34acd5fcc4f90873126ed", "asm": "3045022100aae2c39a78fd7c711992275073167fd3543522792e2101fc8302921c3f291be802201c3475cbb3f5cee7a26da98bb9ac1dfbfef5c910619cd94f8ca6a99872da04df[ALL] 030b4c0e891e3ed30ff67dbe037d0e22a04d1148631bf34acd5fcc4f90873126ed"}, "vout": 0, "txid": "f9a7d2e7191995a260d70ea8c12d0b5119f11daf44dee90d89a07e2abd97eecf"}], "txid": "d4d3cba62856925375296c344fcf7527aa878ee8c926d520a05b30d5259dcfad", "blocktime": 1537870268, "version": 1, "confirmations": 11518, "time": 1537870268, "locktime": 0, "vsize": 667, "size": 667}