{"hash": "d4db0fb4b5d720bad46930feb4a4de33073ba90f557a185370f06f6881ae1792", "blockhash": "0000000000000000001cda96e906b7601b7a6fb1a3b62bca570a9e5d8f4b3de1", "vout": [{"scriptPubKey": {"reqSigs": 1, "hex": "a9146c9050a26ab0cd80cf1998716060089c293c312987", "addresses": ["3Bb3nSasGGZyo6ouuLPxBrfU2G3j1XCNcd"], "asm": "OP_HASH160 6c9050a26ab0cd80cf1998716060089c293c3129 OP_EQUAL", "type": "scripthash"}, "value": 0.0199981, "n": 0}], "hex": "01000000017a51c18018357b5f4ed53577f28cbd16a3e3f960a98c6f778d1211a420221a15010000006a47304402200d1673e36ca485f16342cfdcdb5362d6258605b3469cb2ad1eb8a614092850c6022056af40c6883a2557daa61cc4fa69eec3b14c275902979214a2c212a682d3ef6e01210237402753a7118a86b853b071bfe5af699210acff7460bb8457830d3957317337fdffffff01c2831e000000000017a9146c9050a26ab0cd80cf1998716060089c293c31298713490800", "vin": [{"sequence": 4294967293, "scriptSig": {"hex": "47304402200d1673e36ca485f16342cfdcdb5362d6258605b3469cb2ad1eb8a614092850c6022056af40c6883a2557daa61cc4fa69eec3b14c275902979214a2c212a682d3ef6e01210237402753a7118a86b853b071bfe5af699210acff7460bb8457830d3957317337", "asm": "304402200d1673e36ca485f16342cfdcdb5362d6258605b3469cb2ad1eb8a614092850c6022056af40c6883a2557daa61cc4fa69eec3b14c275902979214a2c212a682d3ef6e[ALL] 0237402753a7118a86b853b071bfe5af699210acff7460bb8457830d3957317337"}, "vout": 1, "txid": "151a2220a411128d776f8ca960f9e3a316bd8cf27735d54e5f7b351880c1517a"}], "txid": "d4db0fb4b5d720bad46930feb4a4de33073ba90f557a185370f06f6881ae1792", "blocktime": 1537873282, "version": 1, "confirmations": 11485, "time": 1537873282, "locktime": 542995, "vsize": 189, "size": 189}