{"hash": "d4dc91256ba166373c49499d1e167b5a39cb25c20dfad2ec1b0bb65f26188f50", "blockhash": "000000000000000000022b45ed06c6f4ccd3cf7fb5ba4856ebd2e58215665228", "vout": [{"scriptPubKey": {"reqSigs": 1, "hex": "76a914460b4e245217d738ab9ae1ee7353421af363d20988ac", "addresses": ["17PMqvwqXUaVpvjW7kdYrKYoSA9CwsqVqG"], "asm": "OP_DUP OP_HASH160 460b4e245217d738ab9ae1ee7353421af363d209 OP_EQUALVERIFY OP_CHECKSIG", "type": "pubkeyhash"}, "value": 0.07608127, "n": 0}, {"scriptPubKey": {"reqSigs": 1, "hex": "76a9143f68d169cd5775bef8b27a13ef6a18e916e337f888ac", "addresses": ["16nH8yCx6x32MpR47bSthMjdQzf8gM7rLm"], "asm": "OP_DUP OP_HASH160 3f68d169cd5775bef8b27a13ef6a18e916e337f8 OP_EQUALVERIFY OP_CHECKSIG", "type": "pubkeyhash"}, "value": 0.07797903, "n": 1}], "hex": "0100000001e2c5076cebf22a5a286d6e18496bd88d505e9944bc116c8b019593a0fb27a94f000000006b4830450221008ee09821e4d05b2c182df46d6e498409684c22bec1b6e3b10c3e9788e9d7ec2f0220483ffeb503d80b528187989e0b3959187396d34a965b48e92a04f84f3cd6645101210211cda4223bfb5a9297a4d66b9c3a6c444d3a2b2a7a99399b968aea37bb83e4b2ffffffff023f177400000000001976a914460b4e245217d738ab9ae1ee7353421af363d20988ac8ffc7600000000001976a9143f68d169cd5775bef8b27a13ef6a18e916e337f888ac00000000", "vin": [{"sequence": 4294967295, "scriptSig": {"hex": "4830450221008ee09821e4d05b2c182df46d6e498409684c22bec1b6e3b10c3e9788e9d7ec2f0220483ffeb503d80b528187989e0b3959187396d34a965b48e92a04f84f3cd6645101210211cda4223bfb5a9297a4d66b9c3a6c444d3a2b2a7a99399b968aea37bb83e4b2", "asm": "30450221008ee09821e4d05b2c182df46d6e498409684c22bec1b6e3b10c3e9788e9d7ec2f0220483ffeb503d80b528187989e0b3959187396d34a965b48e92a04f84f3cd66451[ALL] 0211cda4223bfb5a9297a4d66b9c3a6c444d3a2b2a7a99399b968aea37bb83e4b2"}, "vout": 0, "txid": "4fa927fba09395018b6c11bc44995e508dd86b49186e6d285a2af2eb6c07c5e2"}], "txid": "d4dc91256ba166373c49499d1e167b5a39cb25c20dfad2ec1b0bb65f26188f50", "blocktime": 1537869901, "version": 1, "confirmations": 11524, "time": 1537869901, "locktime": 0, "vsize": 226, "size": 226}