{"hash": "de9d842136f586c2e9e64660bd7cfe676188e334a369ed283fc0a200d56fd5f3", "blockhash": "0000000000000000001f0ddff1eddb255c1121bcd4da4f1bc9a0da00cae72433", "vout": [{"scriptPubKey": {"reqSigs": 1, "hex": "76a914d859ec49b0265c8fd901bed03116734e72ea146088ac", "addresses": ["1LixgPuTCaUAx1JGNRM4zuSwaY6VcEQ4pN"], "asm": "OP_DUP OP_HASH160 d859ec49b0265c8fd901bed03116734e72ea1460 OP_EQUALVERIFY OP_CHECKSIG", "type": "pubkeyhash"}, "value": 0.016, "n": 0}, {"scriptPubKey": {"reqSigs": 1, "hex": "0014db138eba82d17ba62d2f4ec1a15b0213eb0ab69c", "addresses": ["bc1qmvfcaw5z69a6vtf0fmq6zkczz04s4d5u9ghfyl"], "asm": "0 db138eba82d17ba62d2f4ec1a15b0213eb0ab69c", "type": "witness_v0_keyhash"}, "value": 0.00540545, "n": 1}], "hex": "0100000000010267183c669f3fea769385269e0de7b8069385a9b22b7b3fc61cc31b9a8ff9093d0100000000ffffffff95b81f11a73ce8f70e3616d4931d757749f7e2d6067b745050be645cffca0c080000000000ffffffff02006a1800000000001976a914d859ec49b0265c8fd901bed03116734e72ea146088ac813f080000000000160014db138eba82d17ba62d2f4ec1a15b0213eb0ab69c02483045022100bb5bb2f7d72f7c12f889e1f32e2090f360cf9c6063d64e6ed2adcc5ba1eb8b580220102fba94e882faea40c1a52d1e4a119aa97454b385b0c63e80df0e050d853b540121036ea0141e08604ee3e24ba0a5aec0b71ea023de7cd7b2ff12f0215ce824fa43a702483045022100eb2fd8e9396e02c35b42cf17d460da5ae728570689d12e3e3fdfd007fcfee9ad022027764eb1507fd1c3f79f8d37cc79950050a34fdc3ed0ceabbcfdc7939f1b4db00121034cc8287f32e5f2d80794071fc510e8b7158309c13cda40b005f55996489dbadf00000000", "vin": [{"txinwitness": ["3045022100bb5bb2f7d72f7c12f889e1f32e2090f360cf9c6063d64e6ed2adcc5ba1eb8b580220102fba94e882faea40c1a52d1e4a119aa97454b385b0c63e80df0e050d853b5401", "036ea0141e08604ee3e24ba0a5aec0b71ea023de7cd7b2ff12f0215ce824fa43a7"], "sequence": 4294967295, "scriptSig": {"hex": "", "asm": ""}, "vout": 1, "txid": "3d09f98f9a1bc31cc63f7b2bb2a9859306b8e70d9e26859376ea3f9f663c1867"}, {"txinwitness": ["3045022100eb2fd8e9396e02c35b42cf17d460da5ae728570689d12e3e3fdfd007fcfee9ad022027764eb1507fd1c3f79f8d37cc79950050a34fdc3ed0ceabbcfdc7939f1b4db001", "034cc8287f32e5f2d80794071fc510e8b7158309c13cda40b005f55996489dbadf"], "sequence": 4294967295, "scriptSig": {"hex": "", "asm": ""}, "vout": 0, "txid": "080ccaff5c64be5050747b06d6e2f74977751d93d416360ef7e83ca7111fb895"}], "txid": "d4e49d475981abaf9b8e20ac359ef8a5a7f6c3004997094b97c6e25d64c7a79b", "blocktime": 1537872018, "version": 1, "confirmations": 11489, "time": 1537872018, "locktime": 0, "vsize": 212, "size": 375}