{"hash": "46bdee31698f7b513dcd67524ffee32a6e973523ccaa4dfda37e875148aefc97", "blockhash": "0000000000000000001f76057863aec43deb6fa401d9628bb513d65a8098bfab", "vout": [{"scriptPubKey": {"reqSigs": 1, "hex": "a914c329e0d5f5bc7f90e97031bab81f8def03e14d9c87", "addresses": ["3KUwrhkwRcfG94CuPPh7PKQa21u9HGHWTF"], "asm": "OP_HASH160 c329e0d5f5bc7f90e97031bab81f8def03e14d9c OP_EQUAL", "type": "scripthash"}, "value": 0.001122, "n": 0}, {"scriptPubKey": {"reqSigs": 1, "hex": "a9149649ad6d2730bb28020a268d9d80df10a9f74ad487", "addresses": ["3FPfYWwfMfKMGY7fuPHvz2b73RhTNGzsm3"], "asm": "OP_HASH160 9649ad6d2730bb28020a268d9d80df10a9f74ad4 OP_EQUAL", "type": "scripthash"}, "value": 13.82468918, "n": 1}], "hex": "010000000001013e41a36cd78add61dfbe5b58f494579606fd73426b10a5ddb5ec34501e2dd41201000000232200207768efcc1e5eb3d28410fac3f45831004c860cc24cddd940a616b34324823fceffffffff0248b601000000000017a914c329e0d5f5bc7f90e97031bab81f8def03e14d9c8736cd66520000000017a9149649ad6d2730bb28020a268d9d80df10a9f74ad4870400473044022021d0db45a83348d1ac70bac4e6625bb3c4cb3f6c89db6c00b8517ef143b2a8eb02200242e4b2c08341c6280e66fecd5703b9c395c2b6a6bcf2ff79270036efd361c901483045022100993292706ff6df37db662d82627d100c9a6962a188758d5a59302e10a6590fab022062789d1b0a9e074a212aeba497f70f8a1ee174371a6e1a0bd983bbd690826bd60147522102529d5d1f6733ab45d9d50e07db42c7f6b967ae321c38b726c2247f149959b8262103d0c936a5988dd8421c63240496b723b0ec42400c38b9350e32c2eb4f47d8796952ae00000000", "vin": [{"txinwitness": ["", "3044022021d0db45a83348d1ac70bac4e6625bb3c4cb3f6c89db6c00b8517ef143b2a8eb02200242e4b2c08341c6280e66fecd5703b9c395c2b6a6bcf2ff79270036efd361c901", "3045022100993292706ff6df37db662d82627d100c9a6962a188758d5a59302e10a6590fab022062789d1b0a9e074a212aeba497f70f8a1ee174371a6e1a0bd983bbd690826bd601", "522102529d5d1f6733ab45d9d50e07db42c7f6b967ae321c38b726c2247f149959b8262103d0c936a5988dd8421c63240496b723b0ec42400c38b9350e32c2eb4f47d8796952ae"], "sequence": 4294967295, "scriptSig": {"hex": "2200207768efcc1e5eb3d28410fac3f45831004c860cc24cddd940a616b34324823fce", "asm": "00207768efcc1e5eb3d28410fac3f45831004c860cc24cddd940a616b34324823fce"}, "vout": 1, "txid": "12d42d1e5034ecb5dda5106b4273fd06965794f4585bbedf61dd8ad76ca3413e"}], "txid": "d4edfd38a803d4e16cbf74c2daec536ded0935cd5934fee5642d833395ddb575", "blocktime": 1537873891, "version": 1, "confirmations": 11478, "time": 1537873891, "locktime": 0, "vsize": 206, "size": 371}