{"hash": "06f1a1e142a2823c52ddde90dd44664f043ba3875a79637b7050589fddbb5811", "blockhash": "0000000000000000001cda96e906b7601b7a6fb1a3b62bca570a9e5d8f4b3de1", "vout": [{"scriptPubKey": {"reqSigs": 1, "hex": "76a9148ce5bfededdf4b85255818e5feed8ccba0fe718788ac", "addresses": ["1Dqzq9XMph8ay5R8WHA5NiiGK84N9J2LW8"], "asm": "OP_DUP OP_HASH160 8ce5bfededdf4b85255818e5feed8ccba0fe7187 OP_EQUALVERIFY OP_CHECKSIG", "type": "pubkeyhash"}, "value": 0.01, "n": 0}, {"scriptPubKey": {"reqSigs": 1, "hex": "a914b5ccb86705d91d6ee70715949e8b09aed8dd158d87", "addresses": ["3JGHUUw3fK5zYg3Zi8EiT6FUUcbJdDXmGx"], "asm": "OP_HASH160 b5ccb86705d91d6ee70715949e8b09aed8dd158d OP_EQUAL", "type": "scripthash"}, "value": 0.01370271, "n": 1}], "hex": "020000000001029ffe389477a6632c6522260faaa2d791902bf9750c0352618b540585887654660100000017160014599edd7ce406510fb2584cda815117ed240802b9fdffffffcba266bb01f64d66dc6f679b3590dc69bb89dfd93f4a8f93e3027c302424b0aa0100000017160014d068fa4baf81cad3dde804105d5d18f16a78a86afdffffff0240420f00000000001976a9148ce5bfededdf4b85255818e5feed8ccba0fe718788ac9fe814000000000017a914b5ccb86705d91d6ee70715949e8b09aed8dd158d8702483045022100a5dbacd32be335d6e39614973d1d1b306cc7ee9599da754fd6e7ac681f60de6b022018cea52a60145b83c79e36c19723c340c0d236735633587d842f4b33dade78a4012103e352402e0ff3c717ef66a0bfc7d5df663605f55416cfa5cefeacca02499f26c802483045022100f08dfefe2402891fca8f9261612716cc3c6ffa6ad09b4ed2ecca9e428d96a05202202f2a4cb25a9f071c6aade35f9259a20e507d28c523648c88e4f70b56562729f001210252938da42ef905a387e1bdf2c487ae293ca86c76deb1d8e08b30ea523efef23413490800", "vin": [{"txinwitness": ["3045022100a5dbacd32be335d6e39614973d1d1b306cc7ee9599da754fd6e7ac681f60de6b022018cea52a60145b83c79e36c19723c340c0d236735633587d842f4b33dade78a401", "03e352402e0ff3c717ef66a0bfc7d5df663605f55416cfa5cefeacca02499f26c8"], "sequence": 4294967293, "scriptSig": {"hex": "160014599edd7ce406510fb2584cda815117ed240802b9", "asm": "0014599edd7ce406510fb2584cda815117ed240802b9"}, "vout": 1, "txid": "665476888505548b6152030c75f92b9091d7a2aa0f2622652c63a6779438fe9f"}, {"txinwitness": ["3045022100f08dfefe2402891fca8f9261612716cc3c6ffa6ad09b4ed2ecca9e428d96a05202202f2a4cb25a9f071c6aade35f9259a20e507d28c523648c88e4f70b56562729f001", "0252938da42ef905a387e1bdf2c487ae293ca86c76deb1d8e08b30ea523efef234"], "sequence": 4294967293, "scriptSig": {"hex": "160014d068fa4baf81cad3dde804105d5d18f16a78a86a", "asm": "0014d068fa4baf81cad3dde804105d5d18f16a78a86a"}, "vout": 1, "txid": "aab02424307c02e3938f4a3fd9df89bb69dc90359b676fdc664df601bb66a2cb"}], "txid": "d4f30cea537ef7f27f81a205514c2adb5a5558f950e45d83474a39323fc84638", "blocktime": 1537873282, "version": 2, "confirmations": 11484, "time": 1537873282, "locktime": 542995, "vsize": 259, "size": 422}