{"hash": "c28bc802d68849251c7e46c93c07db9fddaa9184831852ffff46a2874065547d", "blockhash": "0000000000000000000dcc0f55137456b1a82d3642486a52398922ac4d620174", "vout": [{"scriptPubKey": {"reqSigs": 1, "hex": "76a9148b3af7e3ff722d33ba4c2eb0041a4ba2ab28430b88ac", "addresses": ["1DhBZrcJ7Ma64j6NL4xVkV8UYkdUrNZwNu"], "asm": "OP_DUP OP_HASH160 8b3af7e3ff722d33ba4c2eb0041a4ba2ab28430b OP_EQUALVERIFY OP_CHECKSIG", "type": "pubkeyhash"}, "value": 0.0021, "n": 0}, {"scriptPubKey": {"reqSigs": 1, "hex": "a914627aa52932456d89054bd84f86246af3b71b93a887", "addresses": ["3Afj4stdiLG9EktGrMbm252ySonnhYaz8v"], "asm": "OP_HASH160 627aa52932456d89054bd84f86246af3b71b93a8 OP_EQUAL", "type": "scripthash"}, "value": 0.58035989, "n": 1}], "hex": "01000000000101cfd9995d2ca0bf20ac688a7afc9885604cb6656b9c7ed38463fd5aed1c6a8d1a01000000232200205fdd641234b13964b223bd85ad2a4a667ca2099df3d42a1d3b45706a8d81abf0ffffffff0250340300000000001976a9148b3af7e3ff722d33ba4c2eb0041a4ba2ab28430b88ac158f75030000000017a914627aa52932456d89054bd84f86246af3b71b93a8870400483045022100d9631eff5dc46055af298a4ad19fa0f8f1bc1970bc9cde87cfeb6f767a2160f502203694327f5d9801e8e1733d23266579c9b05cbe88c3c077f272af77bd2dd30be10147304402204dfa1cbc1e637f4a4e027eaab435dcdba4d710ec011f46007ff1e519990a562802203161536d77e342395f410a0898328735fafe4a83fbc19367fdb7126377f3cea20147522103dcde3832fa56def7b4e783faad1b8af85c3cdd74a5ff4f3c7c216b1075c18da12103c70ae8ded79be1afda73b9ce5ea14a3878908ee160d66a9a717e792bb6db276952ae00000000", "vin": [{"txinwitness": ["", "3045022100d9631eff5dc46055af298a4ad19fa0f8f1bc1970bc9cde87cfeb6f767a2160f502203694327f5d9801e8e1733d23266579c9b05cbe88c3c077f272af77bd2dd30be101", "304402204dfa1cbc1e637f4a4e027eaab435dcdba4d710ec011f46007ff1e519990a562802203161536d77e342395f410a0898328735fafe4a83fbc19367fdb7126377f3cea201", "522103dcde3832fa56def7b4e783faad1b8af85c3cdd74a5ff4f3c7c216b1075c18da12103c70ae8ded79be1afda73b9ce5ea14a3878908ee160d66a9a717e792bb6db276952ae"], "sequence": 4294967295, "scriptSig": {"hex": "2200205fdd641234b13964b223bd85ad2a4a667ca2099df3d42a1d3b45706a8d81abf0", "asm": "00205fdd641234b13964b223bd85ad2a4a667ca2099df3d42a1d3b45706a8d81abf0"}, "vout": 1, "txid": "1a8d6a1ced5afd6384d37e9c6b65b64c608598fc7a8a68ac20bfa02c5d99d9cf"}], "txid": "d4f3b20df259576b4cd707fbc2c27dd1db713bdfebe31d0356811f37231a4232", "blocktime": 1537870268, "version": 1, "confirmations": 11518, "time": 1537870268, "locktime": 0, "vsize": 208, "size": 373}