{"hash": "bdc1ac24b257068f537294dec43e1a34132ba37a13911d88304e95f29d8442fa", "blockhash": "0000000000000000001cda96e906b7601b7a6fb1a3b62bca570a9e5d8f4b3de1", "vout": [{"scriptPubKey": {"reqSigs": 1, "hex": "a914018c02f36ac84f0cebb831e21cf504e06d596cc187", "addresses": ["31qCKuZS2YjRkQ2MTA6WAP251URJKrHD2w"], "asm": "OP_HASH160 018c02f36ac84f0cebb831e21cf504e06d596cc1 OP_EQUAL", "type": "scripthash"}, "value": 0.01254013, "n": 0}, {"scriptPubKey": {"reqSigs": 1, "hex": "a91446ca3d593f0955bbdbfb2360883e0efdd2f0cf6587", "addresses": ["389KVq1km5zdNf3Ji8MtbTV1tY9ZvXx9Ko"], "asm": "OP_HASH160 46ca3d593f0955bbdbfb2360883e0efdd2f0cf65 OP_EQUAL", "type": "scripthash"}, "value": 0.14588372, "n": 1}], "hex": "010000000001014ff73190cafef71c2f076bfa02f78ab410287c61a7af4c605e9ee7e91d4d6128010000002322002031d80debf208e6efb590de17f7897212e4019c52ea64007efc8e22650bafab51ffffffff027d2213000000000017a914018c02f36ac84f0cebb831e21cf504e06d596cc187d499de000000000017a91446ca3d593f0955bbdbfb2360883e0efdd2f0cf65870400483045022100a3c064d07104f5de3d1449e8215e6d4c8e777613d6b6fffae16d2462db2d2853022064acf2ee18da502df48614ee54610ca21e833cb826baa232aa66f16183fb1273014730440220043e140868444a36af52f61f1edae7144741a08d569d02e25068f3d907b070080220740c18ab842c173ce62a36d275a31ad75b8b35fb6f4bac2748d19a5529c9902b0169522102511f028fd0baa12a72421fb196311465139a1261e253b8c48ac62ef73844327a2102404284385021eb838fd89ebdad54f3ee78052a119815ce9952ff77f01445f234210254d013698c11b2b48e7e3b11c80991ddae32b3dc8cae53f4e40e5d359da9190e53ae00000000", "vin": [{"txinwitness": ["", "3045022100a3c064d07104f5de3d1449e8215e6d4c8e777613d6b6fffae16d2462db2d2853022064acf2ee18da502df48614ee54610ca21e833cb826baa232aa66f16183fb127301", "30440220043e140868444a36af52f61f1edae7144741a08d569d02e25068f3d907b070080220740c18ab842c173ce62a36d275a31ad75b8b35fb6f4bac2748d19a5529c9902b01", "522102511f028fd0baa12a72421fb196311465139a1261e253b8c48ac62ef73844327a2102404284385021eb838fd89ebdad54f3ee78052a119815ce9952ff77f01445f234210254d013698c11b2b48e7e3b11c80991ddae32b3dc8cae53f4e40e5d359da9190e53ae"], "sequence": 4294967295, "scriptSig": {"hex": "22002031d80debf208e6efb590de17f7897212e4019c52ea64007efc8e22650bafab51", "asm": "002031d80debf208e6efb590de17f7897212e4019c52ea64007efc8e22650bafab51"}, "vout": 1, "txid": "28614d1de9e79e5e604cafa7617c2810b48af702fa6b072f1cf7feca9031f74f"}], "txid": "d4f911bcf04cbd5bdbddabf21094685972f0e23714d7bce1a1fa7e780d725819", "blocktime": 1537873282, "version": 1, "confirmations": 11484, "time": 1537873282, "locktime": 0, "vsize": 214, "size": 405}