{"hash": "679e92386b55d52741d71df8f4b03f4abd7ee6c5d43524491b63d88ac7e96c85", "blockhash": "0000000000000000001cda96e906b7601b7a6fb1a3b62bca570a9e5d8f4b3de1", "vout": [{"scriptPubKey": {"reqSigs": 1, "hex": "76a914531c4218531075c8843cd0d3668d2413762b5db188ac", "addresses": ["18aSwLRm6v36SwsQHfSJXvzJf2wm8cXKVj"], "asm": "OP_DUP OP_HASH160 531c4218531075c8843cd0d3668d2413762b5db1 OP_EQUALVERIFY OP_CHECKSIG", "type": "pubkeyhash"}, "value": 0.02731931, "n": 0}, {"scriptPubKey": {"reqSigs": 1, "hex": "a914423aaa153806d002a7f9be948f1f38a413ad14c087", "addresses": ["37jCoH42VWCrUbWx3WiCNHv8ZZ1M3rDUxN"], "asm": "OP_HASH160 423aaa153806d002a7f9be948f1f38a413ad14c0 OP_EQUAL", "type": "scripthash"}, "value": 5.53719832, "n": 1}], "hex": "02000000000101c33973447b7ebb768feecf1fa303bf092fadba51dbca54006630f969b8a1d5e60100000017160014d46ac3428db3546931107de39ce13d19613280e9feffffff029baf2900000000001976a914531c4218531075c8843cd0d3668d2413762b5db188ac181801210000000017a914423aaa153806d002a7f9be948f1f38a413ad14c08702473044022045a6f8ebd873d9aefddd5ebfa7e6a52ffdb380cc37c5cc8cde53b26befa467b402202cd9708d9125734532fda236209a13d36696431dc93797c18bd1ddaf2fa9f251012103b8861f5e3356c280f69a5654253396603c1ca5cb25febd4a721b7d730e26ce2413490800", "vin": [{"txinwitness": ["3044022045a6f8ebd873d9aefddd5ebfa7e6a52ffdb380cc37c5cc8cde53b26befa467b402202cd9708d9125734532fda236209a13d36696431dc93797c18bd1ddaf2fa9f25101", "03b8861f5e3356c280f69a5654253396603c1ca5cb25febd4a721b7d730e26ce24"], "sequence": 4294967294, "scriptSig": {"hex": "160014d46ac3428db3546931107de39ce13d19613280e9", "asm": "0014d46ac3428db3546931107de39ce13d19613280e9"}, "vout": 1, "txid": "e6d5a1b869f930660054cadb51baad2f09bf03a31fcfee8f76bb7e7b447339c3"}], "txid": "d5062c52064d85251b7b91ceef55c65d88fd1454c56c03de666e393196a90279", "blocktime": 1537873282, "version": 2, "confirmations": 11485, "time": 1537873282, "locktime": 542995, "vsize": 168, "size": 249}