{"hash": "d508832666583a1f369b4fdf4e3730a1af83810cf9117a1e4fce982f96143f2d", "blockhash": "0000000000000000001cda96e906b7601b7a6fb1a3b62bca570a9e5d8f4b3de1", "vout": [{"scriptPubKey": {"reqSigs": 1, "hex": "76a914ca6403bf1afa4d85bd6da313affa8a5cafb7fd5588ac", "addresses": ["1KT9JtXZnXcMmZ9UGZCVZVdDw6qMsqLLkY"], "asm": "OP_DUP OP_HASH160 ca6403bf1afa4d85bd6da313affa8a5cafb7fd55 OP_EQUALVERIFY OP_CHECKSIG", "type": "pubkeyhash"}, "value": 0.0002, "n": 0}, {"scriptPubKey": {"reqSigs": 1, "hex": "76a91419fb6221017a60085b91699be2595dfe802c606e88ac", "addresses": ["13NP3DTVb7tXRJa1VZPKedcVdGT4YRKDFq"], "asm": "OP_DUP OP_HASH160 19fb6221017a60085b91699be2595dfe802c606e OP_EQUALVERIFY OP_CHECKSIG", "type": "pubkeyhash"}, "value": 0.01015861, "n": 1}], "hex": "01000000038027f58326475d44367a60718afe4f19844f00c01c9541801de1b07faf15ae13010000006a473044022051483368a7f90687b07e58085803c0e88955baba5086039b37ce6b2cf8789dc60220516e0ecd2f1725da379047b5f1b232c3d1d06eda75bd2b18266a95f9be529cfc01210324f35cf245806dacda6ab2b296e2bfa4a1a486dfa30b607f2db7a117be9a03bcfeffffff28e414b462e8ff36184083deaa4d145c2c575e9614f835dbb7bbf336653405da000000006b483045022100aa0fa8b84f5965fa358d575a866bfde0153b188c4e872f9a70985d9fbbbc84dd02205ec694b98020d7698472fb37db194c0c41796f41fbc108316c2b398ba875dae201210324f35cf245806dacda6ab2b296e2bfa4a1a486dfa30b607f2db7a117be9a03bcfeffffff28e414b462e8ff36184083deaa4d145c2c575e9614f835dbb7bbf336653405da010000006a47304402201cd20b3cbcf431efc01766da41420a0ee5fd4989b671128e5c024287317a7f4802204e33d4dd7914d649d8d6a423c628cacc0d774e98d7029c25d2f421cc504799d3012102277e00f79926ce1417ec3237b721598d03526817f6aa9311066cb9203ea04561feffffff02204e0000000000001976a914ca6403bf1afa4d85bd6da313affa8a5cafb7fd5588ac35800f00000000001976a91419fb6221017a60085b91699be2595dfe802c606e88ac13490800", "vin": [{"sequence": 4294967294, "scriptSig": {"hex": "473044022051483368a7f90687b07e58085803c0e88955baba5086039b37ce6b2cf8789dc60220516e0ecd2f1725da379047b5f1b232c3d1d06eda75bd2b18266a95f9be529cfc01210324f35cf245806dacda6ab2b296e2bfa4a1a486dfa30b607f2db7a117be9a03bc", "asm": "3044022051483368a7f90687b07e58085803c0e88955baba5086039b37ce6b2cf8789dc60220516e0ecd2f1725da379047b5f1b232c3d1d06eda75bd2b18266a95f9be529cfc[ALL] 0324f35cf245806dacda6ab2b296e2bfa4a1a486dfa30b607f2db7a117be9a03bc"}, "vout": 1, "txid": "13ae15af7fb0e11d8041951cc0004f84194ffe8a71607a36445d472683f52780"}, {"sequence": 4294967294, "scriptSig": {"hex": "483045022100aa0fa8b84f5965fa358d575a866bfde0153b188c4e872f9a70985d9fbbbc84dd02205ec694b98020d7698472fb37db194c0c41796f41fbc108316c2b398ba875dae201210324f35cf245806dacda6ab2b296e2bfa4a1a486dfa30b607f2db7a117be9a03bc", "asm": "3045022100aa0fa8b84f5965fa358d575a866bfde0153b188c4e872f9a70985d9fbbbc84dd02205ec694b98020d7698472fb37db194c0c41796f41fbc108316c2b398ba875dae2[ALL] 0324f35cf245806dacda6ab2b296e2bfa4a1a486dfa30b607f2db7a117be9a03bc"}, "vout": 0, "txid": "da05346536f3bbb7db35f814965e572c5c144daade83401836ffe862b414e428"}, {"sequence": 4294967294, "scriptSig": {"hex": "47304402201cd20b3cbcf431efc01766da41420a0ee5fd4989b671128e5c024287317a7f4802204e33d4dd7914d649d8d6a423c628cacc0d774e98d7029c25d2f421cc504799d3012102277e00f79926ce1417ec3237b721598d03526817f6aa9311066cb9203ea04561", "asm": "304402201cd20b3cbcf431efc01766da41420a0ee5fd4989b671128e5c024287317a7f4802204e33d4dd7914d649d8d6a423c628cacc0d774e98d7029c25d2f421cc504799d3[ALL] 02277e00f79926ce1417ec3237b721598d03526817f6aa9311066cb9203ea04561"}, "vout": 1, "txid": "da05346536f3bbb7db35f814965e572c5c144daade83401836ffe862b414e428"}], "txid": "d508832666583a1f369b4fdf4e3730a1af83810cf9117a1e4fce982f96143f2d", "blocktime": 1537873282, "version": 1, "confirmations": 11481, "time": 1537873282, "locktime": 542995, "vsize": 520, "size": 520}