{"hash": "f52eaf21d58f1446db83711b41e4da872fe2706fa9f10855888c356779accf93", "blockhash": "00000000000000000024a2167bbff67b0be802c0b01cdd79e6331c2be6459f87", "vout": [{"scriptPubKey": {"reqSigs": 1, "hex": "76a914c210381bcc32f2b4f1577eeb77d7611dee3887dc88ac", "addresses": ["1Jh7X9JKJD2EjNHwdBtpsJ4p75ELm6WmGR"], "asm": "OP_DUP OP_HASH160 c210381bcc32f2b4f1577eeb77d7611dee3887dc OP_EQUALVERIFY OP_CHECKSIG", "type": "pubkeyhash"}, "value": 0.00219358, "n": 0}, {"scriptPubKey": {"reqSigs": 1, "hex": "a914121439b0004cb0bfbe6b840d05c25100444ac33287", "addresses": ["33LcKH5jkFPMDvpBqpQ8XkuGtf8MYtyWnn"], "asm": "OP_HASH160 121439b0004cb0bfbe6b840d05c25100444ac332 OP_EQUAL", "type": "scripthash"}, "value": 0.0158796, "n": 1}], "hex": "02000000000101bacefe183f796245304e027742f198ecd4f72adcbcdc345369b5816462803a16000000001716001419073529a51be6dba7281c5ea1eacf3b9b4e9e85feffffff02de580300000000001976a914c210381bcc32f2b4f1577eeb77d7611dee3887dc88acf83a18000000000017a914121439b0004cb0bfbe6b840d05c25100444ac332870247304402206aef2af14733590808a0c5859427e62a971e67902560f3e0c38bff33cef29619022043ae1f38a7285c6dc6e312c0e4d82b85f566f08b766c22f71f289287a300c44d012102b1afbef0c366f720d388c9b7948c7a17c8187d315df7dd62806c483d0527d6580d490800", "vin": [{"txinwitness": ["304402206aef2af14733590808a0c5859427e62a971e67902560f3e0c38bff33cef29619022043ae1f38a7285c6dc6e312c0e4d82b85f566f08b766c22f71f289287a300c44d01", "02b1afbef0c366f720d388c9b7948c7a17c8187d315df7dd62806c483d0527d658"], "sequence": 4294967294, "scriptSig": {"hex": "16001419073529a51be6dba7281c5ea1eacf3b9b4e9e85", "asm": "001419073529a51be6dba7281c5ea1eacf3b9b4e9e85"}, "vout": 0, "txid": "163a80626481b5695334dcbcdc2af7d4ec98f14277024e304562793f18feceba"}], "txid": "d50a16b2d650709284ca6d8cdb5c8a2629d79f0142e8881b1eafdba4d6c395c9", "blocktime": 1537870564, "version": 2, "confirmations": 11515, "time": 1537870564, "locktime": 542989, "vsize": 168, "size": 249}