{"hash": "d50dcd6eb00dd8476e90f444cc84ff7b914eb90ea90dd51764d19587a0ebaf9a", "blockhash": "0000000000000000000dcc0f55137456b1a82d3642486a52398922ac4d620174", "vout": [{"scriptPubKey": {"reqSigs": 1, "hex": "a9142cefdebf29a3ff89e7594ab41fab0a72bf3c614c87", "addresses": ["35nd1T8XTpk6gsWufHUoCnbVgxy8ojumLo"], "asm": "OP_HASH160 2cefdebf29a3ff89e7594ab41fab0a72bf3c614c OP_EQUAL", "type": "scripthash"}, "value": 0.1, "n": 0}], "hex": "010000000379ac6787e7b79be8c1462610254570d82e37c9b234c52d21574fd96138582ec7060000006946304302201aea844b39cc684d50e6a80ce53a9eecf753123ad730bf3e7bd0e180c62886b3021f24f881a878b00636ccd686bff1b064a5c57f03303a72935afe66c9ce70846701210214846a4c14423a943bacef523a59db2987f7a9a491b6f790233c1795404904e4ffffffff55d510e63112d74de88582852ce85edd9b8a4c6257a52d2dd434eff4448331cc010000006b483045022100e10f44997456146603e232fe20ecf6f475ff4585b9afa25c12ef80e05c39392102201e94f0b69c57dca66a91843f0a0d77b63f7fe0abaa573bdaa1e45d1c8479420901210352d71a8fbe5f9c00635f7ff46f0f40b60a53a2680a8667fe371f72b1c6629cbdffffffff8295a664eaaf2f1732c4c368e04bca50edcf8199ffa013cca7d37a3aced11167010000006b483045022100a7dcce1377bcd94ae90ea7549e349306fe4235a65ea932fb95ab62497e454af502201629513402e001bc793e9a86edb8581d92855abf22901af40c47030dea1d2d3e01210234428275b2adb14b240c553d2775c46527ec14e4d29c4b622f732949e54431c8ffffffff01809698000000000017a9142cefdebf29a3ff89e7594ab41fab0a72bf3c614c8700000000", "vin": [{"sequence": 4294967295, "scriptSig": {"hex": "46304302201aea844b39cc684d50e6a80ce53a9eecf753123ad730bf3e7bd0e180c62886b3021f24f881a878b00636ccd686bff1b064a5c57f03303a72935afe66c9ce70846701210214846a4c14423a943bacef523a59db2987f7a9a491b6f790233c1795404904e4", "asm": "304302201aea844b39cc684d50e6a80ce53a9eecf753123ad730bf3e7bd0e180c62886b3021f24f881a878b00636ccd686bff1b064a5c57f03303a72935afe66c9ce708467[ALL] 0214846a4c14423a943bacef523a59db2987f7a9a491b6f790233c1795404904e4"}, "vout": 6, "txid": "c72e583861d94f57212dc534b2c9372ed8704525102646c1e89bb7e78767ac79"}, {"sequence": 4294967295, "scriptSig": {"hex": "483045022100e10f44997456146603e232fe20ecf6f475ff4585b9afa25c12ef80e05c39392102201e94f0b69c57dca66a91843f0a0d77b63f7fe0abaa573bdaa1e45d1c8479420901210352d71a8fbe5f9c00635f7ff46f0f40b60a53a2680a8667fe371f72b1c6629cbd", "asm": "3045022100e10f44997456146603e232fe20ecf6f475ff4585b9afa25c12ef80e05c39392102201e94f0b69c57dca66a91843f0a0d77b63f7fe0abaa573bdaa1e45d1c84794209[ALL] 0352d71a8fbe5f9c00635f7ff46f0f40b60a53a2680a8667fe371f72b1c6629cbd"}, "vout": 1, "txid": "cc318344f4ef34d42d2da557624c8a9bdd5ee82c858285e84dd71231e610d555"}, {"sequence": 4294967295, "scriptSig": {"hex": "483045022100a7dcce1377bcd94ae90ea7549e349306fe4235a65ea932fb95ab62497e454af502201629513402e001bc793e9a86edb8581d92855abf22901af40c47030dea1d2d3e01210234428275b2adb14b240c553d2775c46527ec14e4d29c4b622f732949e54431c8", "asm": "3045022100a7dcce1377bcd94ae90ea7549e349306fe4235a65ea932fb95ab62497e454af502201629513402e001bc793e9a86edb8581d92855abf22901af40c47030dea1d2d3e[ALL] 0234428275b2adb14b240c553d2775c46527ec14e4d29c4b622f732949e54431c8"}, "vout": 1, "txid": "6711d1ce3a7ad3a7cc13a0ff9981cfed50ca4be068c3c432172fafea64a69582"}], "txid": "d50dcd6eb00dd8476e90f444cc84ff7b914eb90ea90dd51764d19587a0ebaf9a", "blocktime": 1537870268, "version": 1, "confirmations": 11516, "time": 1537870268, "locktime": 0, "vsize": 484, "size": 484}