{"hash": "8bb19d87f45b883d3c35e05b951b0b2a19b8175525fb197403a5e310a28a5929", "blockhash": "00000000000000000024a2167bbff67b0be802c0b01cdd79e6331c2be6459f87", "vout": [{"scriptPubKey": {"reqSigs": 1, "hex": "a914bd3a43eae5f5d3986ee7339cf3c538020839899c87", "addresses": ["3JwZS9JRsyuFLbmHU9vCREMh79ZrXaeTb5"], "asm": "OP_HASH160 bd3a43eae5f5d3986ee7339cf3c538020839899c OP_EQUAL", "type": "scripthash"}, "value": 0.63044434, "n": 0}, {"scriptPubKey": {"reqSigs": 1, "hex": "a914b8a70552b1edbbaa36d2450720a01ab4ed1d74b987", "addresses": ["3JXNLeaUnw13cvxQBMxGp7WfHpxmHJvkg9"], "asm": "OP_HASH160 b8a70552b1edbbaa36d2450720a01ab4ed1d74b9 OP_EQUAL", "type": "scripthash"}, "value": 0.0014, "n": 1}], "hex": "020000000001013e59b4af37ef6d1a88c34e3db79744deae675f195745b855f3a3f37eaebb78d60000000017160014804b01b36bd91da6f48a32f970d1d4eabe88db82feffffff0252fbc1030000000017a914bd3a43eae5f5d3986ee7339cf3c538020839899c87e02202000000000017a914b8a70552b1edbbaa36d2450720a01ab4ed1d74b9870247304402203a2f0fcd6b5d7bfe7eab03f6c9df8eea03f2e3dd0a13ec8efa7fddc9896cb80502200cb208afce706472090791b2c3b77cb435c0f937d5747d62bacbe82f4db8970a0121020fc2633f085bd548ff4eb1c231a1c37d98d6bda4f82455418e1cf8e56ab23ee20d490800", "vin": [{"txinwitness": ["304402203a2f0fcd6b5d7bfe7eab03f6c9df8eea03f2e3dd0a13ec8efa7fddc9896cb80502200cb208afce706472090791b2c3b77cb435c0f937d5747d62bacbe82f4db8970a01", "020fc2633f085bd548ff4eb1c231a1c37d98d6bda4f82455418e1cf8e56ab23ee2"], "sequence": 4294967294, "scriptSig": {"hex": "160014804b01b36bd91da6f48a32f970d1d4eabe88db82", "asm": "0014804b01b36bd91da6f48a32f970d1d4eabe88db82"}, "vout": 0, "txid": "d678bbae7ef3a3f355b84557195f67aede4497b73d4ec3881a6def37afb4593e"}], "txid": "d517261571b8c90ab8ad156b03c663126191fd02b945f93b10a79de0195fc03b", "blocktime": 1537870564, "version": 2, "confirmations": 11515, "time": 1537870564, "locktime": 542989, "vsize": 166, "size": 247}