{"hash": "96ca260e23ab37da8bb655ba46f08b62d67b0b67b8dd220a5c673e1f17e0e96f", "blockhash": "0000000000000000001f0ddff1eddb255c1121bcd4da4f1bc9a0da00cae72433", "vout": [{"scriptPubKey": {"reqSigs": 1, "hex": "a914d3a379927e7bc8cb1e2ac2f76e83d14c7aa6e62487", "addresses": ["3Lz4LTKQr2fuBuxzZT7w83wMAnPccucM2V"], "asm": "OP_HASH160 d3a379927e7bc8cb1e2ac2f76e83d14c7aa6e624 OP_EQUAL", "type": "scripthash"}, "value": 0.01563914, "n": 0}, {"scriptPubKey": {"reqSigs": 1, "hex": "a9149aa1c2c306a5c76e54a9aac10faaab6b6fce518d87", "addresses": ["3FndmRSiBp7LF57PaVsZFD3Ye7CfWWcyjD"], "asm": "OP_HASH160 9aa1c2c306a5c76e54a9aac10faaab6b6fce518d OP_EQUAL", "type": "scripthash"}, "value": 2.8992048, "n": 1}], "hex": "01000000000101a6a6ffdb194dc689cf1bafb229610bc48eeba954678a1d7fdcf8244410d0471201000000171600142b2c2548f8d02263058f8b9818b8fde27a61bf9dffffffff020add17000000000017a914d3a379927e7bc8cb1e2ac2f76e83d14c7aa6e62487e0d547110000000017a9149aa1c2c306a5c76e54a9aac10faaab6b6fce518d87024830450221008434a763f0852a4518b83d52b1dcdcdbd5bf89befd7b13fc5bf3ae6557acf71602203a0dc156f81a1dbf0bbb1054f20880acb8a6fe4cb99398abe2ca4db77de36444012102b566e0b8e6755ecea1bf53377bb8c254b2684731bdef9cddc5e5b7a0c6be303400000000", "vin": [{"txinwitness": ["30450221008434a763f0852a4518b83d52b1dcdcdbd5bf89befd7b13fc5bf3ae6557acf71602203a0dc156f81a1dbf0bbb1054f20880acb8a6fe4cb99398abe2ca4db77de3644401", "02b566e0b8e6755ecea1bf53377bb8c254b2684731bdef9cddc5e5b7a0c6be3034"], "sequence": 4294967295, "scriptSig": {"hex": "1600142b2c2548f8d02263058f8b9818b8fde27a61bf9d", "asm": "00142b2c2548f8d02263058f8b9818b8fde27a61bf9d"}, "vout": 1, "txid": "1247d0104424f8dc7f1d8a6754a9eb8ec40b6129b2af1bcf89c64d19dbffa6a6"}], "txid": "d5186b6d315962c0247fd6bfbf32925f1a31d79bbea8277e5d9976318251d778", "blocktime": 1537872018, "version": 1, "confirmations": 11489, "time": 1537872018, "locktime": 0, "vsize": 166, "size": 248}