{"hash": "d522caa252768fd126711b21095110de7139592c418667b2c1966f634e232467", "blockhash": "0000000000000000001cda96e906b7601b7a6fb1a3b62bca570a9e5d8f4b3de1", "vout": [{"scriptPubKey": {"reqSigs": 1, "hex": "76a9148e76cef60595c52593c76024da6f2a8aefbaa18488ac", "addresses": ["1DzHHCKVqc7kG1mGKuA6K4eXqWVUXUzuwP"], "asm": "OP_DUP OP_HASH160 8e76cef60595c52593c76024da6f2a8aefbaa184 OP_EQUALVERIFY OP_CHECKSIG", "type": "pubkeyhash"}, "value": 5.46e-06, "n": 0}, {"scriptPubKey": {"reqSigs": 1, "hex": "a9143f4eecba122ad73039d481c8d37f99cb4f887cd887", "addresses": ["37Tm3Qz8Zw2VJrheUUhArDAoq58S6YrS3g"], "asm": "OP_HASH160 3f4eecba122ad73039d481c8d37f99cb4f887cd8 OP_EQUAL", "type": "scripthash"}, "value": 0.99989816, "n": 1}, {"scriptPubKey": {"type": "nulldata", "hex": "6a146f6d6e69000000000000001f000000905ac74760", "asm": "OP_RETURN 6f6d6e69000000000000001f000000905ac74760"}, "value": 0.0, "n": 2}], "hex": "0100000001d9ba6d4a2382f5567a595e2f649357821157aa148240c941a74e6604d64099a601000000fc0047304402203f87c45c7597c96f2efd86bce46c27e0baa6a5ae34c63e076e7d944e18cb994a022037f907106f72fe758c4ac5b749d4d5ab8dc4ffb082a7ebf023eca90b8593656f0147304402207745e8fa32aaf7d36503ac4adb885d9d97444cc182717f1d628f88f7eb516deb02201fc7c27dbe2f2366c1ff8e3e42dbc1c786714921b12ecb9bdf2048858094b220014c6952210246ccf4de0c54cc7f3354cdd993c2c50cf965fd82238b89659fbd73a1b4bf05a121024fc59f72272a897fe43803374969f396058152fe4765a8d15216f94624257b1b21022593bc69ecbf3bbcc3c58082267cb49dadaf4ca8dbf1b2297338a9d628c4297653aeffffffff0322020000000000001976a9148e76cef60595c52593c76024da6f2a8aefbaa18488ac38b9f5050000000017a9143f4eecba122ad73039d481c8d37f99cb4f887cd8870000000000000000166a146f6d6e69000000000000001f000000905ac7476000000000", "vin": [{"sequence": 4294967295, "scriptSig": {"hex": "0047304402203f87c45c7597c96f2efd86bce46c27e0baa6a5ae34c63e076e7d944e18cb994a022037f907106f72fe758c4ac5b749d4d5ab8dc4ffb082a7ebf023eca90b8593656f0147304402207745e8fa32aaf7d36503ac4adb885d9d97444cc182717f1d628f88f7eb516deb02201fc7c27dbe2f2366c1ff8e3e42dbc1c786714921b12ecb9bdf2048858094b220014c6952210246ccf4de0c54cc7f3354cdd993c2c50cf965fd82238b89659fbd73a1b4bf05a121024fc59f72272a897fe43803374969f396058152fe4765a8d15216f94624257b1b21022593bc69ecbf3bbcc3c58082267cb49dadaf4ca8dbf1b2297338a9d628c4297653ae", "asm": "0 304402203f87c45c7597c96f2efd86bce46c27e0baa6a5ae34c63e076e7d944e18cb994a022037f907106f72fe758c4ac5b749d4d5ab8dc4ffb082a7ebf023eca90b8593656f[ALL] 304402207745e8fa32aaf7d36503ac4adb885d9d97444cc182717f1d628f88f7eb516deb02201fc7c27dbe2f2366c1ff8e3e42dbc1c786714921b12ecb9bdf2048858094b220[ALL] 52210246ccf4de0c54cc7f3354cdd993c2c50cf965fd82238b89659fbd73a1b4bf05a121024fc59f72272a897fe43803374969f396058152fe4765a8d15216f94624257b1b21022593bc69ecbf3bbcc3c58082267cb49dadaf4ca8dbf1b2297338a9d628c4297653ae"}, "vout": 1, "txid": "a69940d604664ea741c9408214aa5711825793642f5e597a56f582234a6dbad9"}], "txid": "d522caa252768fd126711b21095110de7139592c418667b2c1966f634e232467", "blocktime": 1537873282, "version": 1, "confirmations": 11484, "time": 1537873282, "locktime": 0, "vsize": 400, "size": 400}