{"hash": "d525875144eba162bfd3a15b567c184bdb5c01e50d7e4e47649fa9c4c071ec25", "blockhash": "0000000000000000001e0dab787dd257d1dbfcb92a98c2207d5e1078be1f4165", "vout": [{"scriptPubKey": {"reqSigs": 1, "hex": "a9143c22fcb448bf767af1a8dbe3f9694104196ce26087", "addresses": ["37AzP13zMa5GtkxyXXGgD3qRRmgKoqeyHL"], "asm": "OP_HASH160 3c22fcb448bf767af1a8dbe3f9694104196ce260 OP_EQUAL", "type": "scripthash"}, "value": 0.01690108, "n": 0}, {"scriptPubKey": {"reqSigs": 1, "hex": "76a9149e3c6ebe5bfdf3b984ce993311cb5f7585c6d0f088ac", "addresses": ["1FRgAEt5TPsTg1KyGLjiQuitdZCe19GPtY"], "asm": "OP_DUP OP_HASH160 9e3c6ebe5bfdf3b984ce993311cb5f7585c6d0f0 OP_EQUALVERIFY OP_CHECKSIG", "type": "pubkeyhash"}, "value": 0.00406734, "n": 1}], "hex": "01000000014dacdd713dc9fe0f5f47b5422e62399892a1e8e0f875e4ae4ab57ea75e503c4801000000fdfd0000473044022002b449220427fbdedb65b904480964727b7c5dd8c0d6beab9a466823c3cbd196022051cf029659e0198fa5143001aa04aaa03067b2db7043d18c80b69558efde27b701483045022100f89b0375c079407611940533d7a4f4c225721064fdfedf1afb5d7ff59405039b02200586c39968d05ece0d70911cede29d54f4442406d4e917c744955217b05fe572014c69522102184207d83113be753e802db527c533550189c7b6658f1c400284c0d01d71e1972102f44d2fb4eddd81c6357e6bb300a03fbc1b8a2798fc542143de0a9f6ee68d85952103b8d8398dc4a64df0931aa19f526ab1fba98c86248c12362f4391fabfebe4496053aeffffffff02fcc919000000000017a9143c22fcb448bf767af1a8dbe3f9694104196ce26087ce340600000000001976a9149e3c6ebe5bfdf3b984ce993311cb5f7585c6d0f088ac00000000", "vin": [{"sequence": 4294967295, "scriptSig": {"hex": "00473044022002b449220427fbdedb65b904480964727b7c5dd8c0d6beab9a466823c3cbd196022051cf029659e0198fa5143001aa04aaa03067b2db7043d18c80b69558efde27b701483045022100f89b0375c079407611940533d7a4f4c225721064fdfedf1afb5d7ff59405039b02200586c39968d05ece0d70911cede29d54f4442406d4e917c744955217b05fe572014c69522102184207d83113be753e802db527c533550189c7b6658f1c400284c0d01d71e1972102f44d2fb4eddd81c6357e6bb300a03fbc1b8a2798fc542143de0a9f6ee68d85952103b8d8398dc4a64df0931aa19f526ab1fba98c86248c12362f4391fabfebe4496053ae", "asm": "0 3044022002b449220427fbdedb65b904480964727b7c5dd8c0d6beab9a466823c3cbd196022051cf029659e0198fa5143001aa04aaa03067b2db7043d18c80b69558efde27b7[ALL] 3045022100f89b0375c079407611940533d7a4f4c225721064fdfedf1afb5d7ff59405039b02200586c39968d05ece0d70911cede29d54f4442406d4e917c744955217b05fe572[ALL] 522102184207d83113be753e802db527c533550189c7b6658f1c400284c0d01d71e1972102f44d2fb4eddd81c6357e6bb300a03fbc1b8a2798fc542143de0a9f6ee68d85952103b8d8398dc4a64df0931aa19f526ab1fba98c86248c12362f4391fabfebe4496053ae"}, "vout": 1, "txid": "483c505ea77eb54aaee475f8e0e8a1929839622e42b5475f0ffec93d71ddac4d"}], "txid": "d525875144eba162bfd3a15b567c184bdb5c01e50d7e4e47649fa9c4c071ec25", "blocktime": 1537872475, "version": 1, "confirmations": 11486, "time": 1537872475, "locktime": 0, "vsize": 372, "size": 372}