{"hash": "d536b4de6411e565ad0b22eda29fa744e890d49131c0f249ce9fe42ace16510e", "blockhash": "0000000000000000000baef3f32e3676a92c3b2e5da21b426e4f302fc371ce76", "vout": [{"scriptPubKey": {"reqSigs": 1, "hex": "76a9146831544dc1f3b6899c44287aba6ed900afeed68f88ac", "addresses": ["1AVvNQqecAhrs612cniep2Dmt2y9xza83r"], "asm": "OP_DUP OP_HASH160 6831544dc1f3b6899c44287aba6ed900afeed68f OP_EQUALVERIFY OP_CHECKSIG", "type": "pubkeyhash"}, "value": 0.00038953, "n": 0}, {"scriptPubKey": {"reqSigs": 1, "hex": "76a9141f4f68c5d994219c7c5b035c5db064e80f6ec80b88ac", "addresses": ["13rZ5QAqn6tx2QSKmmydRYvBbQqVbDBUMN"], "asm": "OP_DUP OP_HASH160 1f4f68c5d994219c7c5b035c5db064e80f6ec80b OP_EQUALVERIFY OP_CHECKSIG", "type": "pubkeyhash"}, "value": 0.001, "n": 1}], "hex": "0100000002f40005d83a518c6ac092dee4cb18b057471e634e86700ff506cfe1d3531147140b0000006b48304502210094b08bad9ddc991b24b44720a915dc5ed18f0bb3f50fc54f280985fe79f49efb02206f23ddfe53ff01d3a123af1ff6aa4d47b86d6aa7f3b9206ee90cf41b3a8513f70121021eb1d1bb35beaeadf94f59ec46d748b95a400a6e6cdc1e3ca40ac0b9b38a6328ffffffffde0f54644eada5fb4514cc66febb44231503ac0bf87addca738b9063b465791e000000006b483045022100aea5696f7f7f337c272bb94bb64257847604f89758de065cb5771258390a4cbb02206dc04bfc82bd04fff4df9f2dd3485ed8399578214f07f521045eb1f75e3ac30d0121022eedd2d087f8a163b511b87d5a889c8781497b158e62bff6a1a2f9e1f1419042ffffffff0229980000000000001976a9146831544dc1f3b6899c44287aba6ed900afeed68f88aca0860100000000001976a9141f4f68c5d994219c7c5b035c5db064e80f6ec80b88ac00000000", "vin": [{"sequence": 4294967295, "scriptSig": {"hex": "48304502210094b08bad9ddc991b24b44720a915dc5ed18f0bb3f50fc54f280985fe79f49efb02206f23ddfe53ff01d3a123af1ff6aa4d47b86d6aa7f3b9206ee90cf41b3a8513f70121021eb1d1bb35beaeadf94f59ec46d748b95a400a6e6cdc1e3ca40ac0b9b38a6328", "asm": "304502210094b08bad9ddc991b24b44720a915dc5ed18f0bb3f50fc54f280985fe79f49efb02206f23ddfe53ff01d3a123af1ff6aa4d47b86d6aa7f3b9206ee90cf41b3a8513f7[ALL] 021eb1d1bb35beaeadf94f59ec46d748b95a400a6e6cdc1e3ca40ac0b9b38a6328"}, "vout": 11, "txid": "14471153d3e1cf06f50f70864e631e4757b018cbe4de92c06a8c513ad80500f4"}, {"sequence": 4294967295, "scriptSig": {"hex": "483045022100aea5696f7f7f337c272bb94bb64257847604f89758de065cb5771258390a4cbb02206dc04bfc82bd04fff4df9f2dd3485ed8399578214f07f521045eb1f75e3ac30d0121022eedd2d087f8a163b511b87d5a889c8781497b158e62bff6a1a2f9e1f1419042", "asm": "3045022100aea5696f7f7f337c272bb94bb64257847604f89758de065cb5771258390a4cbb02206dc04bfc82bd04fff4df9f2dd3485ed8399578214f07f521045eb1f75e3ac30d[ALL] 022eedd2d087f8a163b511b87d5a889c8781497b158e62bff6a1a2f9e1f1419042"}, "vout": 0, "txid": "1e7965b463908b73cadd7af80bac03152344bbfe66cc1445fba5ad4e64540fde"}], "txid": "d536b4de6411e565ad0b22eda29fa744e890d49131c0f249ce9fe42ace16510e", "blocktime": 1537876114, "version": 1, "confirmations": 11460, "time": 1537876114, "locktime": 0, "vsize": 374, "size": 374}