{"hash": "d538a0981dbaebc2fddf0746c92428afd84734574b25671ca204cba3097cf701", "blockhash": "0000000000000000001e0dab787dd257d1dbfcb92a98c2207d5e1078be1f4165", "vout": [{"scriptPubKey": {"reqSigs": 1, "hex": "76a914aef54ccb78f204d06c2e1ea6de033669a31d413488ac", "addresses": ["1Gx6S7xHVyTVWRpNKzJ5nfDKo6Nnug6VPh"], "asm": "OP_DUP OP_HASH160 aef54ccb78f204d06c2e1ea6de033669a31d4134 OP_EQUALVERIFY OP_CHECKSIG", "type": "pubkeyhash"}, "value": 0.00999669, "n": 0}, {"scriptPubKey": {"reqSigs": 1, "hex": "76a914e22108ef9490cf05850e4168a09180e20be960e088ac", "addresses": ["1McfHfERYsxKr1Lvy6cMbuoN4buqvH14QZ"], "asm": "OP_DUP OP_HASH160 e22108ef9490cf05850e4168a09180e20be960e0 OP_EQUALVERIFY OP_CHECKSIG", "type": "pubkeyhash"}, "value": 0.1, "n": 1}], "hex": "0200000016093b32e13a15493edb421ad62878eb178ac8ffeff7ddbccbff240f01d8ff5673010000006a473044022037fde743c9dad590f9d53eb43364c2a4d9daac48c5c94f1964fd013b21d9c8dd02202396ce30c3e4e65fb10af67ccdab855c39f4d9817599236f9042ec27025facb5012103f4b1fa9f2f0a17f573ffd2225ee6bf8747937c5ed0903a37e1c9845388644389feffffff1019d053a43bdfe605b1bdac104da3baf04fb25926446ac034e81e15434a28250a0000006b483045022100e46bd8c0b8a8ec0bfccc6e1b4e0f846f3e601c3f6fe8e507e0db5b0854e7cce5022048bb0d30f15bf11c58545e6b6a4abcdd0c1ee7c8fe249f10d9be53a68e610bae012103b028e8d224eca5008ca5badb16328f05e51d4fc5df5909695220c0c790147e93feffffff13403d78e335490e0569acac13513526ddb40a49b267dba287c0271043de1c19000000006b483045022100dd32ecc5594d8c9c60e69067a1611218f45c95416033f12c5739edf5a9f777f902201b86095d2da2da6f7bce4743dd7f3c347bf9ab4078ef51c23a60af50ece38060012103434f68eb372ad77017f0b0d5d5430cffc51905a24fca15240fcd5371033a21ddfeffffff1ea649d15925ef3d270d51f835d170caba83a3d6d489c4654994c2c31c041dee080000006a4730440220368da76bffe80c452242ce6d735ab1b37817ea7680e24dff5da64174b460417202204a9e644e7b5fbb5493d22b633787197e3901b7fecb1164c50c0588481c6ed63a01210352d4d11ea2d913f0cd1f6cf35641d09bcf029fe8c12703e5b58c89da12595411feffffff265cdd7c1c24c2ce6299d55b287f543e923817e80c53bf122f43382273309a5a2d0000006b483045022100f489329ec058be13268057848fb4ccf15c62a116c3801c89a0dacdc745ebc15102205b67af30dd3ded7b512b8b60c2162bf311049a88709c03c3558e0df720b329830121033f937a55bac2572deb253754b32d5222425f3219ba8dfc34e11c91ff392ceaf1feffffff29545d34d84c89ab40851843d48d29dea5c510868987fec44e2fbddffcf71c33040000006a47304402204b6a96dedf924c78fa20a5b292f245de779f28c95ceb5d18f702b463566363a30220776f62c3aa3eb6bb7a42b9365b72bc4df18cb30d831f7144acd56a893c4b5f57012103c67e11b9f745b491ee4da941c4b59f8fecb0e24918f99c696abcf2652f63e370feffffff2dc99e7b4ed70fc11796b34f9f9451d424bcf398fd6520d74203fd0f3efbf01e000000006a4730440220195fd5444837858e161372409ebd7744ee85e0eab7fd60609896f8a24e17ccb102202619160f2162f0c9189bb45bc57f97efb39292dbc8ab1f6d8e3fea8125a80d34012103b849d893303622c497676643e12d692fd24ceef135332daa1267295433854642feffffff328bcff311540b427d4ee3c39d21edba1646962e78af63eb2f3d99a773b2e5a5600000006a473044022057c43070b2efcb8f3a04e2275fc85e22cdef94fc0dbdab682723cea9c285bfc902204a6a3e3b1a7b55da60c5ff527f47530f5747d1b95cc3187631ff1c6bc0cc9ab6012102ec0ff1ef9f838f8a21acaf8f69f127bfd258e5beb7937d2686ac298ebb2d7aa9feffffff47500c7e1e213fdf95d1b39bb9223ed30462156224c64d8de87538424d190274010000006a4730440220035df42693cd24d140c4326be28f60e7f422b0b81a8a2e4cf53117021b6587c502207b169440f328ba44b9c4662e48486f1c87adebc9aedce69ea88b3a91bffd68d2012102f562d217fc37dd1c129465af7fb6640b5cfffa63cf2680f4eb5b16ffab1d3e54feffffff5f06b88e6acd92174c2dbe9bc2005a94b50af54816d831c057b0a4a288017696580000006b4830450221009f0cf6f51f363d10aa2a6163ffb2270ac5aae18e91b33744755953ce61b87de9022056f22764e224eefc4cd6850d60bed6385668eceb345991d16ff03d2fc55637f90121029dfb6cb0afcf4fd31b008f88bcda828f1e053dd42e2f7d7dd573e962cb4bb074feffffff6b0d1e1bdfb0c75d05b64a6c3ff3a29779df32a2193ad815eae148af6bd8a005010000006a4730440220518206c357fe39dc59febb328d7b2565ce174acbf2ad0e644310ba20d151abe202200350d0d8c829146a3bea9e262f864f5cd9c9a99d9f6252b1941b7d79078bafe00121034ff544400b634acd2564c3c55e2fedb6d45dd3c743ee3b7fcf68e0bb794c2adafeffffff6bb5fa20c29d9f746fb3bc4016cb44b4f0df2967da4aef589d9f777d62ea29c1590000006b483045022100aab069453786e8c95afb6de623fb27e7eeb4860a77fced5db7c294749c36046402207a9044891628d4b153d819fd348f10e8d659f45d9d97aa488cb42775cae7bb96012103efb81d39210e113f4c76b3c6c130cbb421d0e2dfbf8238142b7924ee137a8064feffffff6eb76c8a5d58842afdc53d188ab1ace950374d1d8b18234782f39e18fde9f19b010000006b483045022100c44c0b7fbd8ca219d685bff490791832ee22862e14aee005d81df2dbc5830a57022027576af935a577bde24160bee7a75c17d01fb6f788a53a32de4f969c06e7c5e7012103f3d2f2df31c7f1e696b45f133b3fc84c065a21389803c0fe098414edd2a4af63feffffff7cb217c6c365006d74932651ebe727e725a82e0079a821fe3a67032f72bfaf9d150000006a4730440220059fa87e55166d9b193fb8b6129ef9616df67de0473c50c881f510fd604635a302205790f7645dcdd322c1626393f5f7c5f8c7cb4ada20b10f819cbd3271693dc6af012102d8a2c55be9dd7af6a9cb38c25536a3d20ffa1b17366d943cb15eba8bce2ab3d2feffffff7f803f7e022f5381cb54a48f56fb174bb943e9639b68b1fe02838007b741ee9e6f0100006b483045022100982837f9cc5cc46485b9c7b7cac2cd99c5f970166129a3018ae382fbbc61d487022063fe8841b50314687bac63459ebaf0a302388c2e0038f2973d55778d2478afe40121035396d9216cb8314bd49c8f89b47426098acee14fade14875769635dfc8d6908afeffffff7f803f7e022f5381cb54a48f56fb174bb943e9639b68b1fe02838007b741ee9ea00100006b483045022100994775dbdb664fcd22d7e7f5705d7db1ea6d17354b9ee120255df4c7bf3f4d9d02204433353150c9f989b1ceb2f40b4cc47ba92bc75730cb0e723c960676b40bd14e012102e5034eb63bd524285a5ee5124ec25093aa51e8fc6790bb2972d61be2df1ac8c3feffffff7f803f7e022f5381cb54a48f56fb174bb943e9639b68b1fe02838007b741ee9e460200006a47304402204fbf1b99d7a1e2881a7aff21de220d0ec4fec2d395272325248d4b4d688390b402201015ddf22ee9dad2afa2ae1b0f092f54be3763f7d68c6f054337dcfe575aa2140121038e6cc908b96f2fcbaf059ee032988ccd32252e28ce7d34c8de52aa01fba37a42feffffff8fa0efb07009a4dd662fe2896bb34dac4ab5ecb489044e00627e4decd5050657000000006b483045022100eb3640e4f6882721de9b0c0895929ba6bb48db82c0e86547a574792aebd8f029022062f032737f1b0dac9ef94269839ee87e8eefec21f92d5e491e8d917b8e2ecb21012102aed14edf80c0e4001de883d23c2464ac6f6a36c68baa0485f6a2dc75815383a6feffffff9ba668e1c67d6c21a44ced8dbdf4eaf71da99820bdebcf527d81edadec332f4d010000006b483045022100924ef45064545fc0bed47699d9be2d648fcc77ecae0249c3922a055fcb78a846022026962f55fb97fe6be0cfcd562e786cf36706d4bed3088b42f7ca3a64c552c8120121033d9c78ca8c75ded749f4e174900b59a6da47d41bff806fc3d1b1bc11dabeaed8feffffff9c87ab422b72ef3d3c7c942c49c68475d0a9bac22589899cd11a7e376afed5f4010000006b483045022100e323bf18a0e83fb7a3bd324be926cfbea2f021cdda0ad7ca33e2dc04f652c06b02204de2586340e71f265f68ca5627b6c9d714b0b616c5d7c493e31808845e63f722012102b6df87b70d29c1a71158421f6fd3874f0a9e2619b806d32c0201813b65873bb3feffffffad0461c8b4762f485b91a9e36b44a9a1908e56d4cbcf051c3315c18c3814a3ff000000006a473044022022c83b4a12d23d4dd23b30bcc6849313633d3df6c2590e6cbe3696e230626c77022030fbfddfe00352b52542771f6d75f1895aef82ad560990b75ab9f1db79dcc28c01210261daefefe2aa34a2698cd815865d629972c84768911cc153716d4f40f97e56f8feffffffed24bf93b3a1fa87bd0a915faf7bd6d898c4cd9634f8c96ab41bf327cc33f0f6790100006a47304402204c1e126dedafb956b507dfd0bdfee8d61c51051251664a87e9628b84d25dbd8702203f161baa76d61df8d4e44d1e47a2c67117abcaef22c952f12128a5f86fbeb2af012103ab277c99aed3f1deb0ee7b5225d92b992647006fa6da245e1548f4b647a23835feffffff02f5400f00000000001976a914aef54ccb78f204d06c2e1ea6de033669a31d413488ac80969800000000001976a914e22108ef9490cf05850e4168a09180e20be960e088ac11490800", "vin": [{"sequence": 4294967294, "scriptSig": {"hex": "473044022037fde743c9dad590f9d53eb43364c2a4d9daac48c5c94f1964fd013b21d9c8dd02202396ce30c3e4e65fb10af67ccdab855c39f4d9817599236f9042ec27025facb5012103f4b1fa9f2f0a17f573ffd2225ee6bf8747937c5ed0903a37e1c9845388644389", "asm": "3044022037fde743c9dad590f9d53eb43364c2a4d9daac48c5c94f1964fd013b21d9c8dd02202396ce30c3e4e65fb10af67ccdab855c39f4d9817599236f9042ec27025facb5[ALL] 03f4b1fa9f2f0a17f573ffd2225ee6bf8747937c5ed0903a37e1c9845388644389"}, "vout": 1, "txid": "7356ffd8010f24ffcbbcddf7efffc88a17eb7828d61a42db3e49153ae1323b09"}, {"sequence": 4294967294, "scriptSig": {"hex": "483045022100e46bd8c0b8a8ec0bfccc6e1b4e0f846f3e601c3f6fe8e507e0db5b0854e7cce5022048bb0d30f15bf11c58545e6b6a4abcdd0c1ee7c8fe249f10d9be53a68e610bae012103b028e8d224eca5008ca5badb16328f05e51d4fc5df5909695220c0c790147e93", "asm": "3045022100e46bd8c0b8a8ec0bfccc6e1b4e0f846f3e601c3f6fe8e507e0db5b0854e7cce5022048bb0d30f15bf11c58545e6b6a4abcdd0c1ee7c8fe249f10d9be53a68e610bae[ALL] 03b028e8d224eca5008ca5badb16328f05e51d4fc5df5909695220c0c790147e93"}, "vout": 10, "txid": "25284a43151ee834c06a442659b24ff0baa34d10acbdb105e6df3ba453d01910"}, {"sequence": 4294967294, "scriptSig": {"hex": "483045022100dd32ecc5594d8c9c60e69067a1611218f45c95416033f12c5739edf5a9f777f902201b86095d2da2da6f7bce4743dd7f3c347bf9ab4078ef51c23a60af50ece38060012103434f68eb372ad77017f0b0d5d5430cffc51905a24fca15240fcd5371033a21dd", "asm": "3045022100dd32ecc5594d8c9c60e69067a1611218f45c95416033f12c5739edf5a9f777f902201b86095d2da2da6f7bce4743dd7f3c347bf9ab4078ef51c23a60af50ece38060[ALL] 03434f68eb372ad77017f0b0d5d5430cffc51905a24fca15240fcd5371033a21dd"}, "vout": 0, "txid": "191cde431027c087a2db67b2490ab4dd26355113acac69050e4935e3783d4013"}, {"sequence": 4294967294, "scriptSig": {"hex": "4730440220368da76bffe80c452242ce6d735ab1b37817ea7680e24dff5da64174b460417202204a9e644e7b5fbb5493d22b633787197e3901b7fecb1164c50c0588481c6ed63a01210352d4d11ea2d913f0cd1f6cf35641d09bcf029fe8c12703e5b58c89da12595411", "asm": "30440220368da76bffe80c452242ce6d735ab1b37817ea7680e24dff5da64174b460417202204a9e644e7b5fbb5493d22b633787197e3901b7fecb1164c50c0588481c6ed63a[ALL] 0352d4d11ea2d913f0cd1f6cf35641d09bcf029fe8c12703e5b58c89da12595411"}, "vout": 8, "txid": "ee1d041cc3c2944965c489d4d6a383baca70d135f8510d273def2559d149a61e"}, {"sequence": 4294967294, "scriptSig": {"hex": "483045022100f489329ec058be13268057848fb4ccf15c62a116c3801c89a0dacdc745ebc15102205b67af30dd3ded7b512b8b60c2162bf311049a88709c03c3558e0df720b329830121033f937a55bac2572deb253754b32d5222425f3219ba8dfc34e11c91ff392ceaf1", "asm": "3045022100f489329ec058be13268057848fb4ccf15c62a116c3801c89a0dacdc745ebc15102205b67af30dd3ded7b512b8b60c2162bf311049a88709c03c3558e0df720b32983[ALL] 033f937a55bac2572deb253754b32d5222425f3219ba8dfc34e11c91ff392ceaf1"}, "vout": 45, "txid": "5a9a30732238432f12bf530ce81738923e547f285bd59962cec2241c7cdd5c26"}, {"sequence": 4294967294, "scriptSig": {"hex": "47304402204b6a96dedf924c78fa20a5b292f245de779f28c95ceb5d18f702b463566363a30220776f62c3aa3eb6bb7a42b9365b72bc4df18cb30d831f7144acd56a893c4b5f57012103c67e11b9f745b491ee4da941c4b59f8fecb0e24918f99c696abcf2652f63e370", "asm": "304402204b6a96dedf924c78fa20a5b292f245de779f28c95ceb5d18f702b463566363a30220776f62c3aa3eb6bb7a42b9365b72bc4df18cb30d831f7144acd56a893c4b5f57[ALL] 03c67e11b9f745b491ee4da941c4b59f8fecb0e24918f99c696abcf2652f63e370"}, "vout": 4, "txid": "331cf7fcdfbd2f4ec4fe87898610c5a5de298dd443188540ab894cd8345d5429"}, {"sequence": 4294967294, "scriptSig": {"hex": "4730440220195fd5444837858e161372409ebd7744ee85e0eab7fd60609896f8a24e17ccb102202619160f2162f0c9189bb45bc57f97efb39292dbc8ab1f6d8e3fea8125a80d34012103b849d893303622c497676643e12d692fd24ceef135332daa1267295433854642", "asm": "30440220195fd5444837858e161372409ebd7744ee85e0eab7fd60609896f8a24e17ccb102202619160f2162f0c9189bb45bc57f97efb39292dbc8ab1f6d8e3fea8125a80d34[ALL] 03b849d893303622c497676643e12d692fd24ceef135332daa1267295433854642"}, "vout": 0, "txid": "1ef0fb3e0ffd0342d72065fd98f3bc24d451949f4fb39617c10fd74e7b9ec92d"}, {"sequence": 4294967294, "scriptSig": {"hex": "473044022057c43070b2efcb8f3a04e2275fc85e22cdef94fc0dbdab682723cea9c285bfc902204a6a3e3b1a7b55da60c5ff527f47530f5747d1b95cc3187631ff1c6bc0cc9ab6012102ec0ff1ef9f838f8a21acaf8f69f127bfd258e5beb7937d2686ac298ebb2d7aa9", "asm": "3044022057c43070b2efcb8f3a04e2275fc85e22cdef94fc0dbdab682723cea9c285bfc902204a6a3e3b1a7b55da60c5ff527f47530f5747d1b95cc3187631ff1c6bc0cc9ab6[ALL] 02ec0ff1ef9f838f8a21acaf8f69f127bfd258e5beb7937d2686ac298ebb2d7aa9"}, "vout": 96, "txid": "a5e5b273a7993d2feb63af782e964616baed219dc3e34e7d420b5411f3cf8b32"}, {"sequence": 4294967294, "scriptSig": {"hex": "4730440220035df42693cd24d140c4326be28f60e7f422b0b81a8a2e4cf53117021b6587c502207b169440f328ba44b9c4662e48486f1c87adebc9aedce69ea88b3a91bffd68d2012102f562d217fc37dd1c129465af7fb6640b5cfffa63cf2680f4eb5b16ffab1d3e54", "asm": "30440220035df42693cd24d140c4326be28f60e7f422b0b81a8a2e4cf53117021b6587c502207b169440f328ba44b9c4662e48486f1c87adebc9aedce69ea88b3a91bffd68d2[ALL] 02f562d217fc37dd1c129465af7fb6640b5cfffa63cf2680f4eb5b16ffab1d3e54"}, "vout": 1, "txid": "7402194d423875e88d4dc62462156204d33e22b99bb3d195df3f211e7e0c5047"}, {"sequence": 4294967294, "scriptSig": {"hex": "4830450221009f0cf6f51f363d10aa2a6163ffb2270ac5aae18e91b33744755953ce61b87de9022056f22764e224eefc4cd6850d60bed6385668eceb345991d16ff03d2fc55637f90121029dfb6cb0afcf4fd31b008f88bcda828f1e053dd42e2f7d7dd573e962cb4bb074", "asm": "30450221009f0cf6f51f363d10aa2a6163ffb2270ac5aae18e91b33744755953ce61b87de9022056f22764e224eefc4cd6850d60bed6385668eceb345991d16ff03d2fc55637f9[ALL] 029dfb6cb0afcf4fd31b008f88bcda828f1e053dd42e2f7d7dd573e962cb4bb074"}, "vout": 88, "txid": "96760188a2a4b057c031d81648f50ab5945a00c29bbe2d4c1792cd6a8eb8065f"}, {"sequence": 4294967294, "scriptSig": {"hex": "4730440220518206c357fe39dc59febb328d7b2565ce174acbf2ad0e644310ba20d151abe202200350d0d8c829146a3bea9e262f864f5cd9c9a99d9f6252b1941b7d79078bafe00121034ff544400b634acd2564c3c55e2fedb6d45dd3c743ee3b7fcf68e0bb794c2ada", "asm": "30440220518206c357fe39dc59febb328d7b2565ce174acbf2ad0e644310ba20d151abe202200350d0d8c829146a3bea9e262f864f5cd9c9a99d9f6252b1941b7d79078bafe0[ALL] 034ff544400b634acd2564c3c55e2fedb6d45dd3c743ee3b7fcf68e0bb794c2ada"}, "vout": 1, "txid": "05a0d86baf48e1ea15d83a19a232df7997a2f33f6c4ab6055dc7b0df1b1e0d6b"}, {"sequence": 4294967294, "scriptSig": {"hex": "483045022100aab069453786e8c95afb6de623fb27e7eeb4860a77fced5db7c294749c36046402207a9044891628d4b153d819fd348f10e8d659f45d9d97aa488cb42775cae7bb96012103efb81d39210e113f4c76b3c6c130cbb421d0e2dfbf8238142b7924ee137a8064", "asm": "3045022100aab069453786e8c95afb6de623fb27e7eeb4860a77fced5db7c294749c36046402207a9044891628d4b153d819fd348f10e8d659f45d9d97aa488cb42775cae7bb96[ALL] 03efb81d39210e113f4c76b3c6c130cbb421d0e2dfbf8238142b7924ee137a8064"}, "vout": 89, "txid": "c129ea627d779f9d58ef4ada6729dff0b444cb1640bcb36f749f9dc220fab56b"}, {"sequence": 4294967294, "scriptSig": {"hex": "483045022100c44c0b7fbd8ca219d685bff490791832ee22862e14aee005d81df2dbc5830a57022027576af935a577bde24160bee7a75c17d01fb6f788a53a32de4f969c06e7c5e7012103f3d2f2df31c7f1e696b45f133b3fc84c065a21389803c0fe098414edd2a4af63", "asm": "3045022100c44c0b7fbd8ca219d685bff490791832ee22862e14aee005d81df2dbc5830a57022027576af935a577bde24160bee7a75c17d01fb6f788a53a32de4f969c06e7c5e7[ALL] 03f3d2f2df31c7f1e696b45f133b3fc84c065a21389803c0fe098414edd2a4af63"}, "vout": 1, "txid": "9bf1e9fd189ef3824723188b1d4d3750e9acb18a183dc5fd2a84585d8a6cb76e"}, {"sequence": 4294967294, "scriptSig": {"hex": "4730440220059fa87e55166d9b193fb8b6129ef9616df67de0473c50c881f510fd604635a302205790f7645dcdd322c1626393f5f7c5f8c7cb4ada20b10f819cbd3271693dc6af012102d8a2c55be9dd7af6a9cb38c25536a3d20ffa1b17366d943cb15eba8bce2ab3d2", "asm": "30440220059fa87e55166d9b193fb8b6129ef9616df67de0473c50c881f510fd604635a302205790f7645dcdd322c1626393f5f7c5f8c7cb4ada20b10f819cbd3271693dc6af[ALL] 02d8a2c55be9dd7af6a9cb38c25536a3d20ffa1b17366d943cb15eba8bce2ab3d2"}, "vout": 21, "txid": "9dafbf722f03673afe21a879002ea825e727e7eb512693746d0065c3c617b27c"}, {"sequence": 4294967294, "scriptSig": {"hex": "483045022100982837f9cc5cc46485b9c7b7cac2cd99c5f970166129a3018ae382fbbc61d487022063fe8841b50314687bac63459ebaf0a302388c2e0038f2973d55778d2478afe40121035396d9216cb8314bd49c8f89b47426098acee14fade14875769635dfc8d6908a", "asm": "3045022100982837f9cc5cc46485b9c7b7cac2cd99c5f970166129a3018ae382fbbc61d487022063fe8841b50314687bac63459ebaf0a302388c2e0038f2973d55778d2478afe4[ALL] 035396d9216cb8314bd49c8f89b47426098acee14fade14875769635dfc8d6908a"}, "vout": 367, "txid": "9eee41b707808302feb1689b63e943b94b17fb568fa454cb81532f027e3f807f"}, {"sequence": 4294967294, "scriptSig": {"hex": "483045022100994775dbdb664fcd22d7e7f5705d7db1ea6d17354b9ee120255df4c7bf3f4d9d02204433353150c9f989b1ceb2f40b4cc47ba92bc75730cb0e723c960676b40bd14e012102e5034eb63bd524285a5ee5124ec25093aa51e8fc6790bb2972d61be2df1ac8c3", "asm": "3045022100994775dbdb664fcd22d7e7f5705d7db1ea6d17354b9ee120255df4c7bf3f4d9d02204433353150c9f989b1ceb2f40b4cc47ba92bc75730cb0e723c960676b40bd14e[ALL] 02e5034eb63bd524285a5ee5124ec25093aa51e8fc6790bb2972d61be2df1ac8c3"}, "vout": 416, "txid": "9eee41b707808302feb1689b63e943b94b17fb568fa454cb81532f027e3f807f"}, {"sequence": 4294967294, "scriptSig": {"hex": "47304402204fbf1b99d7a1e2881a7aff21de220d0ec4fec2d395272325248d4b4d688390b402201015ddf22ee9dad2afa2ae1b0f092f54be3763f7d68c6f054337dcfe575aa2140121038e6cc908b96f2fcbaf059ee032988ccd32252e28ce7d34c8de52aa01fba37a42", "asm": "304402204fbf1b99d7a1e2881a7aff21de220d0ec4fec2d395272325248d4b4d688390b402201015ddf22ee9dad2afa2ae1b0f092f54be3763f7d68c6f054337dcfe575aa214[ALL] 038e6cc908b96f2fcbaf059ee032988ccd32252e28ce7d34c8de52aa01fba37a42"}, "vout": 582, "txid": "9eee41b707808302feb1689b63e943b94b17fb568fa454cb81532f027e3f807f"}, {"sequence": 4294967294, "scriptSig": {"hex": "483045022100eb3640e4f6882721de9b0c0895929ba6bb48db82c0e86547a574792aebd8f029022062f032737f1b0dac9ef94269839ee87e8eefec21f92d5e491e8d917b8e2ecb21012102aed14edf80c0e4001de883d23c2464ac6f6a36c68baa0485f6a2dc75815383a6", "asm": "3045022100eb3640e4f6882721de9b0c0895929ba6bb48db82c0e86547a574792aebd8f029022062f032737f1b0dac9ef94269839ee87e8eefec21f92d5e491e8d917b8e2ecb21[ALL] 02aed14edf80c0e4001de883d23c2464ac6f6a36c68baa0485f6a2dc75815383a6"}, "vout": 0, "txid": "570605d5ec4d7e62004e0489b4ecb54aac4db36b89e22f66dda40970b0efa08f"}, {"sequence": 4294967294, "scriptSig": {"hex": "483045022100924ef45064545fc0bed47699d9be2d648fcc77ecae0249c3922a055fcb78a846022026962f55fb97fe6be0cfcd562e786cf36706d4bed3088b42f7ca3a64c552c8120121033d9c78ca8c75ded749f4e174900b59a6da47d41bff806fc3d1b1bc11dabeaed8", "asm": "3045022100924ef45064545fc0bed47699d9be2d648fcc77ecae0249c3922a055fcb78a846022026962f55fb97fe6be0cfcd562e786cf36706d4bed3088b42f7ca3a64c552c812[ALL] 033d9c78ca8c75ded749f4e174900b59a6da47d41bff806fc3d1b1bc11dabeaed8"}, "vout": 1, "txid": "4d2f33ecaded817d52cfebbd2098a91df7eaf4bd8ded4ca4216c7dc6e168a69b"}, {"sequence": 4294967294, "scriptSig": {"hex": "483045022100e323bf18a0e83fb7a3bd324be926cfbea2f021cdda0ad7ca33e2dc04f652c06b02204de2586340e71f265f68ca5627b6c9d714b0b616c5d7c493e31808845e63f722012102b6df87b70d29c1a71158421f6fd3874f0a9e2619b806d32c0201813b65873bb3", "asm": "3045022100e323bf18a0e83fb7a3bd324be926cfbea2f021cdda0ad7ca33e2dc04f652c06b02204de2586340e71f265f68ca5627b6c9d714b0b616c5d7c493e31808845e63f722[ALL] 02b6df87b70d29c1a71158421f6fd3874f0a9e2619b806d32c0201813b65873bb3"}, "vout": 1, "txid": "f4d5fe6a377e1ad19c898925c2baa9d07584c6492c947c3c3def722b42ab879c"}, {"sequence": 4294967294, "scriptSig": {"hex": "473044022022c83b4a12d23d4dd23b30bcc6849313633d3df6c2590e6cbe3696e230626c77022030fbfddfe00352b52542771f6d75f1895aef82ad560990b75ab9f1db79dcc28c01210261daefefe2aa34a2698cd815865d629972c84768911cc153716d4f40f97e56f8", "asm": "3044022022c83b4a12d23d4dd23b30bcc6849313633d3df6c2590e6cbe3696e230626c77022030fbfddfe00352b52542771f6d75f1895aef82ad560990b75ab9f1db79dcc28c[ALL] 0261daefefe2aa34a2698cd815865d629972c84768911cc153716d4f40f97e56f8"}, "vout": 0, "txid": "ffa314388cc115331c05cfcbd4568e90a1a9446be3a9915b482f76b4c86104ad"}, {"sequence": 4294967294, "scriptSig": {"hex": "47304402204c1e126dedafb956b507dfd0bdfee8d61c51051251664a87e9628b84d25dbd8702203f161baa76d61df8d4e44d1e47a2c67117abcaef22c952f12128a5f86fbeb2af012103ab277c99aed3f1deb0ee7b5225d92b992647006fa6da245e1548f4b647a23835", "asm": "304402204c1e126dedafb956b507dfd0bdfee8d61c51051251664a87e9628b84d25dbd8702203f161baa76d61df8d4e44d1e47a2c67117abcaef22c952f12128a5f86fbeb2af[ALL] 03ab277c99aed3f1deb0ee7b5225d92b992647006fa6da245e1548f4b647a23835"}, "vout": 377, "txid": "f6f033cc27f31bb46ac9f83496cdc498d8d67baf5f910abd87faa1b393bf24ed"}], "txid": "d538a0981dbaebc2fddf0746c92428afd84734574b25671ca204cba3097cf701", "blocktime": 1537872475, "version": 2, "confirmations": 11487, "time": 1537872475, "locktime": 542993, "vsize": 3323, "size": 3323}