{"hash": "96cb32b485ecab694ce8527437f6e1b80c52ea5135f42c0543da0073248b810f", "blockhash": "00000000000000000017f5eb5941039fbcee6240d03bc1f2f8e35350df66a1d8", "vout": [{"scriptPubKey": {"reqSigs": 1, "hex": "00146a2a872ce921c6fc986d2853927ad47792b74db8", "addresses": ["bc1qdg4gwt8fy8r0exrd9pfey7k5w7ftwndcw4czz5"], "asm": "0 6a2a872ce921c6fc986d2853927ad47792b74db8", "type": "witness_v0_keyhash"}, "value": 0.36444403, "n": 0}, {"scriptPubKey": {"reqSigs": 1, "hex": "76a914f4dd7ff3284f69eafb7dd15f6136b18faf7451b488ac", "addresses": ["1PKjDtCnSNGykchBm9MNDPDY9act8KoioJ"], "asm": "OP_DUP OP_HASH160 f4dd7ff3284f69eafb7dd15f6136b18faf7451b4 OP_EQUALVERIFY OP_CHECKSIG", "type": "pubkeyhash"}, "value": 0.03005294, "n": 1}], "hex": "010000000001019f333d26f059b4e62383a8f95792c618341488cdae7c7da41d99cb1b5574c3620100000000ffffffff02f3182c02000000001600146a2a872ce921c6fc986d2853927ad47792b74db86edb2d00000000001976a914f4dd7ff3284f69eafb7dd15f6136b18faf7451b488ac024730440220413a59252ec6e4fdd19f8e1dea7c427dfa90717b99f739804edbc26839a5c0cb0220050d46883644fcaf4e791e08c278b0537cd740a9f6cbc9dc3690b7eedfa1f2160121036395503eeea3fe2f84c3bac5ac8dd5c2783322f08fed8007647b331ac968d46400000000", "vin": [{"txinwitness": ["30440220413a59252ec6e4fdd19f8e1dea7c427dfa90717b99f739804edbc26839a5c0cb0220050d46883644fcaf4e791e08c278b0537cd740a9f6cbc9dc3690b7eedfa1f21601", "036395503eeea3fe2f84c3bac5ac8dd5c2783322f08fed8007647b331ac968d464"], "sequence": 4294967295, "scriptSig": {"hex": "", "asm": ""}, "vout": 1, "txid": "62c374551bcb991da47d7caecd88143418c69257f9a88323e6b459f0263d339f"}], "txid": "d53970b10011527d8e053fa97c66e01985f8f636ed13ea91e21f111b3319e6cb", "blocktime": 1537874412, "version": 1, "confirmations": 11467, "time": 1537874412, "locktime": 0, "vsize": 144, "size": 225}