{"hash": "d53ce00318571783f9e893236370a79c75f70e9a101b850400ceededf1dcf2a5", "blockhash": "0000000000000000000e13cef7c366c0283d82e591d1acd082e914b08063cdf1", "vout": [{"scriptPubKey": {"reqSigs": 1, "hex": "76a914171c04617eaf5e06791e89ebc6488632dfd96c1a88ac", "addresses": ["137C75N2BG4r8Wi7xFL99C99NYmzYKkp6x"], "asm": "OP_DUP OP_HASH160 171c04617eaf5e06791e89ebc6488632dfd96c1a OP_EQUALVERIFY OP_CHECKSIG", "type": "pubkeyhash"}, "value": 0.01251673, "n": 0}, {"scriptPubKey": {"reqSigs": 1, "hex": "a914057d3627e40d98eb9538e8ef2451696c065863e087", "addresses": ["32C3JMTwhoXEzAiM5LwU9hEJiHdL9zi56e"], "asm": "OP_HASH160 057d3627e40d98eb9538e8ef2451696c065863e0 OP_EQUAL", "type": "scripthash"}, "value": 0.2, "n": 1}], "hex": "0100000001a7f26485c94b0bd9c3c1e680323a63d8abea89d3cc5f09d8ca9f037bfc5627ac000000006a47304402202ab10c2e1a2c81507eb76fd5dd7cf0a17eaf3c3ab71c1de9d60f98b7ed1bdbca02207e17aca90f9fa5ec0de22e7e40504a7290662f854dde49d3a653bb2d5d7bd9bc012102bf4d407e313a29761a2a552b03592950b15ad948d25e2b158c4177e47327d3d9feffffff0259191300000000001976a914171c04617eaf5e06791e89ebc6488632dfd96c1a88ac002d31010000000017a914057d3627e40d98eb9538e8ef2451696c065863e0870f490800", "vin": [{"sequence": 4294967294, "scriptSig": {"hex": "47304402202ab10c2e1a2c81507eb76fd5dd7cf0a17eaf3c3ab71c1de9d60f98b7ed1bdbca02207e17aca90f9fa5ec0de22e7e40504a7290662f854dde49d3a653bb2d5d7bd9bc012102bf4d407e313a29761a2a552b03592950b15ad948d25e2b158c4177e47327d3d9", "asm": "304402202ab10c2e1a2c81507eb76fd5dd7cf0a17eaf3c3ab71c1de9d60f98b7ed1bdbca02207e17aca90f9fa5ec0de22e7e40504a7290662f854dde49d3a653bb2d5d7bd9bc[ALL] 02bf4d407e313a29761a2a552b03592950b15ad948d25e2b158c4177e47327d3d9"}, "vout": 0, "txid": "ac2756fc7b039fcad8095fccd389eaabd8633a3280e6c1c3d90b4bc98564f2a7"}], "txid": "d53ce00318571783f9e893236370a79c75f70e9a101b850400ceededf1dcf2a5", "blocktime": 1537871767, "version": 1, "confirmations": 11493, "time": 1537871767, "locktime": 542991, "vsize": 223, "size": 223}