{"hash": "ac5612399670c7214d5081ac3643f488227926127f42d39d61b690b859711eb1", "blockhash": "0000000000000000000e13cef7c366c0283d82e591d1acd082e914b08063cdf1", "vout": [{"scriptPubKey": {"reqSigs": 1, "hex": "0014b0edd94be9c59d0fb8c1e40f999de07a8fe6b707", "addresses": ["bc1qkrkajjlfckwslwxpus8en80q0287ddc8v8l7xh"], "asm": "0 b0edd94be9c59d0fb8c1e40f999de07a8fe6b707", "type": "witness_v0_keyhash"}, "value": 0.8948115, "n": 0}, {"scriptPubKey": {"reqSigs": 1, "hex": "76a91462f9a19bb360a0c3c690c954a73ac93b0defb7bb88ac", "addresses": ["1A2LGV8JrkBhHwfUaMMLy55eF2uQ2wYnWE"], "asm": "OP_DUP OP_HASH160 62f9a19bb360a0c3c690c954a73ac93b0defb7bb OP_EQUALVERIFY OP_CHECKSIG", "type": "pubkeyhash"}, "value": 0.010561, "n": 1}], "hex": "0100000000010138f3c1b1538819dfc23c83ddefc755a69783d92efa4e817a24fc51012004c1c70100000000ffffffff02be5f550500000000160014b0edd94be9c59d0fb8c1e40f999de07a8fe6b707641d1000000000001976a91462f9a19bb360a0c3c690c954a73ac93b0defb7bb88ac0247304402200e730f7339fe6bac9e6d55fa968c4ca804df8aaad5749f2a3f52cde6d73032a602205e9d19f15150befbf3bc8bbddcc5d7f9a974efeb7e8ecd018d103adfda583c6501210322de4b42f92c09fe5ddc0b560dafd75f26b9ef877d95e38bc87c308de99c2ae600000000", "vin": [{"txinwitness": ["304402200e730f7339fe6bac9e6d55fa968c4ca804df8aaad5749f2a3f52cde6d73032a602205e9d19f15150befbf3bc8bbddcc5d7f9a974efeb7e8ecd018d103adfda583c6501", "0322de4b42f92c09fe5ddc0b560dafd75f26b9ef877d95e38bc87c308de99c2ae6"], "sequence": 4294967295, "scriptSig": {"hex": "", "asm": ""}, "vout": 1, "txid": "c7c104200151fc247a814efa2ed98397a655c7efdd833cc2df198853b1c1f338"}], "txid": "d54bc44994f90ce714e134ac0039a11b0f0f5f773b24af229d608766a1f2dbbc", "blocktime": 1537871767, "version": 1, "confirmations": 11495, "time": 1537871767, "locktime": 0, "vsize": 144, "size": 225}