{"hash": "d54f86c212be5ae6153577cddc08fa1fb39a6ead7627777f9b7f7daa33bdec17", "blockhash": "0000000000000000001cda96e906b7601b7a6fb1a3b62bca570a9e5d8f4b3de1", "vout": [{"scriptPubKey": {"reqSigs": 1, "hex": "76a9141b49279041f4ebf28efd60cc7c7d0e0a3f4c69f688ac", "addresses": ["13VGt3goCbghLTn5QNeHbir7AzL7xqVYdk"], "asm": "OP_DUP OP_HASH160 1b49279041f4ebf28efd60cc7c7d0e0a3f4c69f6 OP_EQUALVERIFY OP_CHECKSIG", "type": "pubkeyhash"}, "value": 0.0064082, "n": 0}, {"scriptPubKey": {"type": "nulldata", "hex": "6a4c50000077cc00011fd98323c298a2716baafe825b23cc0f42c2fc38c5e5bf9ae76da98a211a4361990d2ae22babf8c3122f1191b9115baa13e90613397824270e011d100759d4ba30d2c37bb011d97e02cf", "asm": "OP_RETURN 000077cc00011fd98323c298a2716baafe825b23cc0f42c2fc38c5e5bf9ae76da98a211a4361990d2ae22babf8c3122f1191b9115baa13e90613397824270e011d100759d4ba30d2c37bb011d97e02cf"}, "value": 0.0, "n": 1}], "hex": "010000000113879b5e04944c94c9b77fd1d32ea9b8264d19c82e32c8796ed1ad7d0dc5d45d000000006b483045022100b402ec2a86eda7c138bcf78c008783a770fee9f34c1a6ec9190e89fb5593a73302205d77ba7b88019160b15b91a9b54615407813ffbeb5cc6c0c2963e5a2faa407f70121026ba7d62b0664d9406854a6c3308cff730653ae8c5ea6e7dcbf1a1ab15b629becffffffff0234c70900000000001976a9141b49279041f4ebf28efd60cc7c7d0e0a3f4c69f688ac0000000000000000536a4c50000077cc00011fd98323c298a2716baafe825b23cc0f42c2fc38c5e5bf9ae76da98a211a4361990d2ae22babf8c3122f1191b9115baa13e90613397824270e011d100759d4ba30d2c37bb011d97e02cf00000000", "vin": [{"sequence": 4294967295, "scriptSig": {"hex": "483045022100b402ec2a86eda7c138bcf78c008783a770fee9f34c1a6ec9190e89fb5593a73302205d77ba7b88019160b15b91a9b54615407813ffbeb5cc6c0c2963e5a2faa407f70121026ba7d62b0664d9406854a6c3308cff730653ae8c5ea6e7dcbf1a1ab15b629bec", "asm": "3045022100b402ec2a86eda7c138bcf78c008783a770fee9f34c1a6ec9190e89fb5593a73302205d77ba7b88019160b15b91a9b54615407813ffbeb5cc6c0c2963e5a2faa407f7[ALL] 026ba7d62b0664d9406854a6c3308cff730653ae8c5ea6e7dcbf1a1ab15b629bec"}, "vout": 0, "txid": "5dd4c50d7dadd16e79c8322ec8194d26b8a92ed3d17fb7c9944c94045e9b8713"}], "txid": "d54f86c212be5ae6153577cddc08fa1fb39a6ead7627777f9b7f7daa33bdec17", "blocktime": 1537873282, "version": 1, "confirmations": 11484, "time": 1537873282, "locktime": 0, "vsize": 284, "size": 284}