{"hash": "d54f2df72634d14fef646ab1c628aa07278715feb84be3c761f0f266f2f7c7dd", "blockhash": "0000000000000000001f0ddff1eddb255c1121bcd4da4f1bc9a0da00cae72433", "vout": [{"scriptPubKey": {"reqSigs": 1, "hex": "76a914368c63f30af4c9e427497bdd68e3e62b36be1f4688ac", "addresses": ["15yRfrh4y3EFJsvxEuahMDVj9ARr78ZERx"], "asm": "OP_DUP OP_HASH160 368c63f30af4c9e427497bdd68e3e62b36be1f46 OP_EQUALVERIFY OP_CHECKSIG", "type": "pubkeyhash"}, "value": 0.00034405, "n": 0}, {"scriptPubKey": {"reqSigs": 1, "hex": "76a914722c84a69a839350288ef368eb3c989e4611b92788ac", "addresses": ["1BQhN3ctFx1QoCKE9q6sfRXTu187cLdNrr"], "asm": "OP_DUP OP_HASH160 722c84a69a839350288ef368eb3c989e4611b927 OP_EQUALVERIFY OP_CHECKSIG", "type": "pubkeyhash"}, "value": 0.00043, "n": 1}], "hex": "01000000015f2b3a0d5b61bfb9fc196141681d1cf46ba0fd67aacacc21ba12a4d753c11ae9010000006b483045022100cdd3f61e42853be62a0c98f7601140a72f8bd523db673f225f6154c1e021167702205d7358b52bb3912388dd7300ef262ef9cfd1d1ca96f014d64f9df93748f707e20121027eae0fb8dd37b8f9ba2e659a5f65afdfb27c6b0acd09726365f30b8517613839fdffffff0265860000000000001976a914368c63f30af4c9e427497bdd68e3e62b36be1f4688acf8a70000000000001976a914722c84a69a839350288ef368eb3c989e4611b92788ac0f490800", "vin": [{"sequence": 4294967293, "scriptSig": {"hex": "483045022100cdd3f61e42853be62a0c98f7601140a72f8bd523db673f225f6154c1e021167702205d7358b52bb3912388dd7300ef262ef9cfd1d1ca96f014d64f9df93748f707e20121027eae0fb8dd37b8f9ba2e659a5f65afdfb27c6b0acd09726365f30b8517613839", "asm": "3045022100cdd3f61e42853be62a0c98f7601140a72f8bd523db673f225f6154c1e021167702205d7358b52bb3912388dd7300ef262ef9cfd1d1ca96f014d64f9df93748f707e2[ALL] 027eae0fb8dd37b8f9ba2e659a5f65afdfb27c6b0acd09726365f30b8517613839"}, "vout": 1, "txid": "e91ac153d7a412ba21cccaaa67fda06bf41c1d68416119fcb9bf615b0d3a2b5f"}], "txid": "d54f2df72634d14fef646ab1c628aa07278715feb84be3c761f0f266f2f7c7dd", "blocktime": 1537872018, "version": 1, "confirmations": 11489, "time": 1537872018, "locktime": 542991, "vsize": 226, "size": 226}