{"hash": "d550f9a9b99faef279fb956b482ea70fa01ec95cde82865c3614c46b019c2e74", "blockhash": "0000000000000000000e13cef7c366c0283d82e591d1acd082e914b08063cdf1", "vout": [{"scriptPubKey": {"reqSigs": 1, "hex": "a9147cbad121d87a68c68b67e3723246d4a7b91ef0cd87", "addresses": ["3D4XWbeB4QM71Px3rkjYt1ewB4dgbPD8Sx"], "asm": "OP_HASH160 7cbad121d87a68c68b67e3723246d4a7b91ef0cd OP_EQUAL", "type": "scripthash"}, "value": 0.004225, "n": 0}, {"scriptPubKey": {"reqSigs": 1, "hex": "76a91489fd00ea0cfa9f0be53701d453bc14cd93564f9d88ac", "addresses": ["1DacfH57REiW7ypiiKB2HgxePDr6XhHztf"], "asm": "OP_DUP OP_HASH160 89fd00ea0cfa9f0be53701d453bc14cd93564f9d OP_EQUALVERIFY OP_CHECKSIG", "type": "pubkeyhash"}, "value": 0.0020941, "n": 1}], "hex": "01000000014696a67dd2b2f9d0abd977da6cec14063c44a2ddeebe66552d2be3cf21b78529010000006b483045022100fb78d99d0497e047bcbb6418d4c977dfdd4087e478936cc8defe9d5f93919c3902201641cba1411b53fdb338d02f2573d468da1050e7b10b0bbad0a25fb3a5387c400121024ce22941fd5654863644135d0d3c922a18a750874320fa5e9f466d99fd4d0015ffffffff02647206000000000017a9147cbad121d87a68c68b67e3723246d4a7b91ef0cd8702320300000000001976a91489fd00ea0cfa9f0be53701d453bc14cd93564f9d88ac00000000", "vin": [{"sequence": 4294967295, "scriptSig": {"hex": "483045022100fb78d99d0497e047bcbb6418d4c977dfdd4087e478936cc8defe9d5f93919c3902201641cba1411b53fdb338d02f2573d468da1050e7b10b0bbad0a25fb3a5387c400121024ce22941fd5654863644135d0d3c922a18a750874320fa5e9f466d99fd4d0015", "asm": "3045022100fb78d99d0497e047bcbb6418d4c977dfdd4087e478936cc8defe9d5f93919c3902201641cba1411b53fdb338d02f2573d468da1050e7b10b0bbad0a25fb3a5387c40[ALL] 024ce22941fd5654863644135d0d3c922a18a750874320fa5e9f466d99fd4d0015"}, "vout": 1, "txid": "2985b721cfe32b2d5566beeedda2443c0614ec6cda77d9abd0f9b2d27da69646"}], "txid": "d550f9a9b99faef279fb956b482ea70fa01ec95cde82865c3614c46b019c2e74", "blocktime": 1537871767, "version": 1, "confirmations": 11491, "time": 1537871767, "locktime": 0, "vsize": 224, "size": 224}