{"hash": "8c98a5ab9893380da3992205cd4a9d19e16ef6034c7701a00e003ca1cf2dc136", "blockhash": "0000000000000000000e13cef7c366c0283d82e591d1acd082e914b08063cdf1", "vout": [{"scriptPubKey": {"reqSigs": 1, "hex": "a91469f37528b2675dcdb0c5b35215e560a3f95ec0d687", "addresses": ["3BMEXRKjQptba73DK4tvofnUASeTXZFtU5"], "asm": "OP_HASH160 69f37528b2675dcdb0c5b35215e560a3f95ec0d6 OP_EQUAL", "type": "scripthash"}, "value": 0.1534, "n": 0}, {"scriptPubKey": {"reqSigs": 1, "hex": "76a914726b737f615ebb2b66dadc2bf5666ae642f899a788ac", "addresses": ["1BRzkhy44S29SgTNo7EthP6HpYtKAzX44S"], "asm": "OP_DUP OP_HASH160 726b737f615ebb2b66dadc2bf5666ae642f899a7 OP_EQUALVERIFY OP_CHECKSIG", "type": "pubkeyhash"}, "value": 0.0618, "n": 1}, {"scriptPubKey": {"reqSigs": 1, "hex": "76a9141c00e5f7fe68f8e76822bd508962338e8f5db3f588ac", "addresses": ["13Z4znfTnmsUN4BfN3Cdm7Rhrv1rxviQRq"], "asm": "OP_DUP OP_HASH160 1c00e5f7fe68f8e76822bd508962338e8f5db3f5 OP_EQUALVERIFY OP_CHECKSIG", "type": "pubkeyhash"}, "value": 0.019004, "n": 2}, {"scriptPubKey": {"reqSigs": 1, "hex": "a914aa8851f8c89c80678f53d9fd82fe6015113dcd7f87", "addresses": ["3HEi6rB4ugqF24dvcNYh7k3ADV2zmAMTR2"], "asm": "OP_HASH160 aa8851f8c89c80678f53d9fd82fe6015113dcd7f OP_EQUAL", "type": "scripthash"}, "value": 0.14, "n": 3}, {"scriptPubKey": {"reqSigs": 1, "hex": "76a914fd32f39353f46310f7939aacbadf88f3e7f7449b88ac", "addresses": ["1Q5nzhn8tE5aunztHqNSUUAT83VWuPVEhR"], "asm": "OP_DUP OP_HASH160 fd32f39353f46310f7939aacbadf88f3e7f7449b OP_EQUALVERIFY OP_CHECKSIG", "type": "pubkeyhash"}, "value": 0.036, "n": 4}, {"scriptPubKey": {"reqSigs": 1, "hex": "a91453264ce2d173b44fba548b09505ae0f77522447c87", "addresses": ["39GftctqhEXjaMMvxWVrR9Nv1a2wZZPubV"], "asm": "OP_HASH160 53264ce2d173b44fba548b09505ae0f77522447c OP_EQUAL", "type": "scripthash"}, "value": 0.01799583, "n": 5}, {"scriptPubKey": {"reqSigs": 1, "hex": "a91406cfea0612fbde87f147482b13e9b66474cf0ad987", "addresses": ["32K33piVeJyPFmU285UT9HEfEystxMYU89"], "asm": "OP_HASH160 06cfea0612fbde87f147482b13e9b66474cf0ad9 OP_EQUAL", "type": "scripthash"}, "value": 0.062, "n": 6}, {"scriptPubKey": {"reqSigs": 1, "hex": "76a9143d056e17d1e1722df1f85cac8f99045a0834791888ac", "addresses": ["16ZeizKLmcZGLx5TkcTJjLhc1LTEbdAEaB"], "asm": "OP_DUP OP_HASH160 3d056e17d1e1722df1f85cac8f99045a08347918 OP_EQUALVERIFY OP_CHECKSIG", "type": "pubkeyhash"}, "value": 0.099, "n": 7}, {"scriptPubKey": {"reqSigs": 1, "hex": "a91469f373a2db8826ecb41cc22c594a062403e0250f87", "addresses": ["3BMEX1MNBWtGqCHtPiLDg33q2WhVSndZDL"], "asm": "OP_HASH160 69f373a2db8826ecb41cc22c594a062403e0250f OP_EQUAL", "type": "scripthash"}, "value": 0.08, "n": 8}, {"scriptPubKey": {"reqSigs": 1, "hex": "a91469f3743d105559af10ff851479fb4f5feec914b687", "addresses": ["3BMEXAqLvAw8VfxfyMAPzz1nYPFhDQX9wj"], "asm": "OP_HASH160 69f3743d105559af10ff851479fb4f5feec914b6 OP_EQUAL", "type": "scripthash"}, "value": 0.22, "n": 9}, {"scriptPubKey": {"reqSigs": 1, "hex": "a914b2bca4bc554dffab65c9f0093d185828b3f4e93b87", "addresses": ["3Hz6BsPjqnStAE9A316xSDVNcjxRvcbEaD"], "asm": "OP_HASH160 b2bca4bc554dffab65c9f0093d185828b3f4e93b OP_EQUAL", "type": "scripthash"}, "value": 0.01, "n": 10}, {"scriptPubKey": {"reqSigs": 1, "hex": "a91447ad3e3c89db3c32ebc0ed2077ad35e36e4813d387", "addresses": ["38E1SJi12ZmbJxrrmanNsVWoMk9b7PvvcB"], "asm": "OP_HASH160 47ad3e3c89db3c32ebc0ed2077ad35e36e4813d3 OP_EQUAL", "type": "scripthash"}, "value": 0.0099012, "n": 11}], "hex": "0200000000010e07f2dddd1fa863ce8890985cbc3b18bc3ba84e94c06eb9a549d2ff1a4e789ff20100000000feffffff2eefaf1badbea4535bd261f936652d06f0d6b6adf696595257a39adeaa868a3e000000006b483045022100869337c8d3d701144c1a5fa3808547144a835bfa9e0fc2eaf02f1d5b3a732b7f0220210bf0f811a1c267f83d0e7489092d67e8e10e5acbec47f30dcc155822d669040121021ad1aea0136418b12ddec23ad300a5201e158704bff1c5564fdee460978deebcfeffffff3e7fac1eb8a5237c5d7d54ffd8eb90b664dbab1e462fd2f250afd81e72bcf58201000000171600144282a8457e94daa308aa79805702db69b4ec6bf9feffffff483261ae1585c956c8c67e44cfe4b32b96424c0de20c1228ae389c1dce9da6790c00000017160014a0242770c6b54dcae7c92b9bf93e1731b1cd601efeffffff4abb1c4cb94da66eb52e400d824a446a10d63de5f72c520f088b524efa9251c20b000000171600146291772416e874ad17b86843fae44572c071be8efeffffff4e33cd86278a41f5e56e6ede395225f5043a6b5132c51606e03007396d31064d010000006a47304402201ef87a4e4b82fe61cce27ddbb0300a7ae7bef6c7c4afd9d3af9b6f0bbec8f32802200df63343d2eb1ae37879a40dfc6fcb8bdf655c8a30dd8327b06ca44902f2a5280121037427369392e7ddeebd8d430e6447fd7c46c0a2fd534c654f48e3e4c875fd1160feffffff58c60ec556fb307b605ed402ddcad9fee1bad00fe7718b9188bcc33c81efb39b000000006b4830450221009917e376bc6b2e97b720308d238e7a9f2a0c6802e567b1491e2cd77e5bf00884022053d239ea654532dc826561429824b0b3c3e2f871a48118f48747c11b99b7e187012103262e82ab818bef2f37ccecde913ba3bb1beec3cc70569b675979fadcbb5fd298feffffff6e2be8aa6316061f6248a3e0a6a3659d04a1ffb035d5a24a5cd520f1b251d8c2000000006b483045022100e792e3ce0057e74adeede55964704a09bf19c2040f90f0cedb5147edfd0e717d0220140688dd3552871bd3d4c78955c3a4da51f3c8fd0d85dbde00159ccca9d6b5820121022e846ea12916cb50e3e00c085a738d338f24e2c1e141562c31e29188ead0cdb1feffffff709294f6ae9f608972b8368fe25848aa16a2d75817e49316506362c82edc2c8b00000000171600145357e74aac0787af32b773c33e99165be99c724cfeffffff83f7abeca2551c579e2cd4f3ebbda1ee151b096a93e8f7e78bd7f0828bd9ffb7000000006b483045022100f365e0b58a99bc6548560aaa17d51388f357a0e9203d9979a3348666d40e74b4022050ac0e7774342679a682d6a7b47b17646a5fe58de74a6cda5107b9abc719b559012103f9348bc436c5c6b7b789bf12f7a17981d6327582468b3258bac04fe9c544b9eafeffffff926608137fd68fdcd4e2b9aefaf4442c9815d819ec1ec3f767745df51dacd59c000000006a4730440220199c0f923f491a8c21e6adc28399fbe8d0953f34a98aa4db1eff79aac610c375022023a52b471e7a3ed63a23a13dbe55b5c037526f5e86cf99e3d290616fe922d375012102369d8f74c35954fb6800229c353b2fa7b05ee9376622a8796d0eed14d77c81a0feffffff9a570a37680ee6a3e3e921f512356a268669ab5230ae4b43a8555de10cebcda4000000006b483045022100bb2d2cf833abbb5d108766e42d799de849fc069456f61ba35f6b3ff30a32c15002200dec83439d4ede66f4e0657a7be4222de583250bd1605492098b2686a6e24e7a01210241703adec06f12e30c53abab841c8b7c6c875a962062b8f90f4bb878e389913afeffffffd4c956d5684c6ec0c11e28aadd3f1d12c4a1e6272e5f584a14d56d66985be110020000006a47304402203ee0eca35acdb1753ea80cb0e27fa22b3eda9c4aab883f179490485654f61f740220201e1db7d96ae84cdad882aef4e57fd211a321e0ae6fa93b3a9348162c0decbc012103bafd72bbd51401bf15f0e5184aedf96afef6ca7b99ccebda0d64dc3b68f1d576feffffffdaaa4570f1785477570c990ec00711af5b4cb066f6e0c9e21aba786a559da027000000006a473044022018ec6d1e86fe901075312d1125e46140847287a585fd0e7226513ca3e2fb790d02205dfeb0f30e4b4e7e2f674faefa930cbadfb72498dd2524e7c82efc1edb7d6ac6012103695d4b05b971b39be0fe4df732e67d36054eb57f20dbb4367496c2fec09ec57bfeffffff0ce011ea000000000017a91469f37528b2675dcdb0c5b35215e560a3f95ec0d687a04c5e00000000001976a914726b737f615ebb2b66dadc2bf5666ae642f899a788ac70ff1c00000000001976a9141c00e5f7fe68f8e76822bd508962338e8f5db3f588ac809fd5000000000017a914aa8851f8c89c80678f53d9fd82fe6015113dcd7f8780ee3600000000001976a914fd32f39353f46310f7939aacbadf88f3e7f7449b88ac9f751b000000000017a91453264ce2d173b44fba548b09505ae0f77522447c87c09a5e000000000017a91406cfea0612fbde87f147482b13e9b66474cf0ad987e00f9700000000001976a9143d056e17d1e1722df1f85cac8f99045a0834791888ac00127a000000000017a91469f373a2db8826ecb41cc22c594a062403e0250f8780b14f010000000017a91469f3743d105559af10ff851479fb4f5feec914b68740420f000000000017a914b2bca4bc554dffab65c9f0093d185828b3f4e93b87a81b0f000000000017a91447ad3e3c89db3c32ebc0ed2077ad35e36e4813d38702483045022100fe36e0352489a5fd821825714c61ff2488c07ea14176959bbf833ce394833fc00220094ecc1bfacbf23f4b711df6f3e766091cddc181473aecf6c3324ab412f4ec5e01210380a4517b9b976b04b5d03c47b86b6f798ce30f755db379204c4a4867e243d4f50002483045022100beafc7e12161068c43fce037f6d88017d15b0b0106aa65ed2a60376f811568fa0220481184ba8f6792599da046b39fb6ad21575ab677f00f4dff1f1fe5d066dd236001210327def0f753a7a1c02eb026d118c9a5107d4cd5581530b89ac9ed21a7be147a310248304502210097370fa2d09ec85e6c9de26873cee2d1efbc4a152e480523bd3eaf1f34ff88c002204febf21d55345e19fb2d56feb62c4211c8e5bcaadcdbef40b545a06e4bdb5b30012103b271108ceb424416e5f8478e586e317898ce57b113dcc3299f14f7a5bba9ed140248304502210097cf7843b94b75e4c256110358bcd387260648bbcdddb216506dbcf59801a21502202463b7c22269cc12903127175c6ba89af7b0ca0165857b0e683946a1f07342b101210290bc9fe8dc6521ed19c0791b1e24a246293c78ba4c68d663a23b5a4a04a46a0700000002483045022100cb8967a54f615b63be5242ae2a9606df63771bea6970a2fa11a704b1e8ed3ec80220089bdf5ef7dd26ad7ee32d030cd0258a6e8338b4969ba4d112c59ea72a6f1f72012103aa8a3bc4b1d2daccd79fdc33bfcfc0861d546f5e2cec8719d4720b4accd62efa0000000000ba480800", "vin": [{"txinwitness": ["3045022100fe36e0352489a5fd821825714c61ff2488c07ea14176959bbf833ce394833fc00220094ecc1bfacbf23f4b711df6f3e766091cddc181473aecf6c3324ab412f4ec5e01", "0380a4517b9b976b04b5d03c47b86b6f798ce30f755db379204c4a4867e243d4f5"], "sequence": 4294967294, "scriptSig": {"hex": "", "asm": ""}, "vout": 1, "txid": "f29f784e1affd249a5b96ec0944ea83bbc183bbc5c989088ce63a81fddddf207"}, {"sequence": 4294967294, "scriptSig": {"hex": "483045022100869337c8d3d701144c1a5fa3808547144a835bfa9e0fc2eaf02f1d5b3a732b7f0220210bf0f811a1c267f83d0e7489092d67e8e10e5acbec47f30dcc155822d669040121021ad1aea0136418b12ddec23ad300a5201e158704bff1c5564fdee460978deebc", "asm": "3045022100869337c8d3d701144c1a5fa3808547144a835bfa9e0fc2eaf02f1d5b3a732b7f0220210bf0f811a1c267f83d0e7489092d67e8e10e5acbec47f30dcc155822d66904[ALL] 021ad1aea0136418b12ddec23ad300a5201e158704bff1c5564fdee460978deebc"}, "vout": 0, "txid": "3e8a86aade9aa357525996f6adb6d6f0062d6536f961d25b53a4bead1bafef2e"}, {"txinwitness": ["3045022100beafc7e12161068c43fce037f6d88017d15b0b0106aa65ed2a60376f811568fa0220481184ba8f6792599da046b39fb6ad21575ab677f00f4dff1f1fe5d066dd236001", "0327def0f753a7a1c02eb026d118c9a5107d4cd5581530b89ac9ed21a7be147a31"], "sequence": 4294967294, "scriptSig": {"hex": "1600144282a8457e94daa308aa79805702db69b4ec6bf9", "asm": "00144282a8457e94daa308aa79805702db69b4ec6bf9"}, "vout": 1, "txid": "82f5bc721ed8af50f2d22f461eabdb64b690ebd8ff547d5d7c23a5b81eac7f3e"}, {"txinwitness": ["304502210097370fa2d09ec85e6c9de26873cee2d1efbc4a152e480523bd3eaf1f34ff88c002204febf21d55345e19fb2d56feb62c4211c8e5bcaadcdbef40b545a06e4bdb5b3001", "03b271108ceb424416e5f8478e586e317898ce57b113dcc3299f14f7a5bba9ed14"], "sequence": 4294967294, "scriptSig": {"hex": "160014a0242770c6b54dcae7c92b9bf93e1731b1cd601e", "asm": "0014a0242770c6b54dcae7c92b9bf93e1731b1cd601e"}, "vout": 12, "txid": "79a69dce1d9c38ae28120ce20d4c42962bb3e4cf447ec6c856c98515ae613248"}, {"txinwitness": ["304502210097cf7843b94b75e4c256110358bcd387260648bbcdddb216506dbcf59801a21502202463b7c22269cc12903127175c6ba89af7b0ca0165857b0e683946a1f07342b101", "0290bc9fe8dc6521ed19c0791b1e24a246293c78ba4c68d663a23b5a4a04a46a07"], "sequence": 4294967294, "scriptSig": {"hex": "1600146291772416e874ad17b86843fae44572c071be8e", "asm": "00146291772416e874ad17b86843fae44572c071be8e"}, "vout": 11, "txid": "c25192fa4e528b080f522cf7e53dd6106a444a820d402eb56ea64db94c1cbb4a"}, {"sequence": 4294967294, "scriptSig": {"hex": "47304402201ef87a4e4b82fe61cce27ddbb0300a7ae7bef6c7c4afd9d3af9b6f0bbec8f32802200df63343d2eb1ae37879a40dfc6fcb8bdf655c8a30dd8327b06ca44902f2a5280121037427369392e7ddeebd8d430e6447fd7c46c0a2fd534c654f48e3e4c875fd1160", "asm": "304402201ef87a4e4b82fe61cce27ddbb0300a7ae7bef6c7c4afd9d3af9b6f0bbec8f32802200df63343d2eb1ae37879a40dfc6fcb8bdf655c8a30dd8327b06ca44902f2a528[ALL] 037427369392e7ddeebd8d430e6447fd7c46c0a2fd534c654f48e3e4c875fd1160"}, "vout": 1, "txid": "4d06316d390730e00616c532516b3a04f5255239de6e6ee5f5418a2786cd334e"}, {"sequence": 4294967294, "scriptSig": {"hex": "4830450221009917e376bc6b2e97b720308d238e7a9f2a0c6802e567b1491e2cd77e5bf00884022053d239ea654532dc826561429824b0b3c3e2f871a48118f48747c11b99b7e187012103262e82ab818bef2f37ccecde913ba3bb1beec3cc70569b675979fadcbb5fd298", "asm": "30450221009917e376bc6b2e97b720308d238e7a9f2a0c6802e567b1491e2cd77e5bf00884022053d239ea654532dc826561429824b0b3c3e2f871a48118f48747c11b99b7e187[ALL] 03262e82ab818bef2f37ccecde913ba3bb1beec3cc70569b675979fadcbb5fd298"}, "vout": 0, "txid": "9bb3ef813cc3bc88918b71e70fd0bae1fed9cadd02d45e607b30fb56c50ec658"}, {"sequence": 4294967294, "scriptSig": {"hex": "483045022100e792e3ce0057e74adeede55964704a09bf19c2040f90f0cedb5147edfd0e717d0220140688dd3552871bd3d4c78955c3a4da51f3c8fd0d85dbde00159ccca9d6b5820121022e846ea12916cb50e3e00c085a738d338f24e2c1e141562c31e29188ead0cdb1", "asm": "3045022100e792e3ce0057e74adeede55964704a09bf19c2040f90f0cedb5147edfd0e717d0220140688dd3552871bd3d4c78955c3a4da51f3c8fd0d85dbde00159ccca9d6b582[ALL] 022e846ea12916cb50e3e00c085a738d338f24e2c1e141562c31e29188ead0cdb1"}, "vout": 0, "txid": "c2d851b2f120d55c4aa2d535b0ffa1049d65a3a6e0a348621f061663aae82b6e"}, {"txinwitness": ["3045022100cb8967a54f615b63be5242ae2a9606df63771bea6970a2fa11a704b1e8ed3ec80220089bdf5ef7dd26ad7ee32d030cd0258a6e8338b4969ba4d112c59ea72a6f1f7201", "03aa8a3bc4b1d2daccd79fdc33bfcfc0861d546f5e2cec8719d4720b4accd62efa"], "sequence": 4294967294, "scriptSig": {"hex": "1600145357e74aac0787af32b773c33e99165be99c724c", "asm": "00145357e74aac0787af32b773c33e99165be99c724c"}, "vout": 0, "txid": "8b2cdc2ec86263501693e41758d7a216aa4858e28f36b87289609faef6949270"}, {"sequence": 4294967294, "scriptSig": {"hex": "483045022100f365e0b58a99bc6548560aaa17d51388f357a0e9203d9979a3348666d40e74b4022050ac0e7774342679a682d6a7b47b17646a5fe58de74a6cda5107b9abc719b559012103f9348bc436c5c6b7b789bf12f7a17981d6327582468b3258bac04fe9c544b9ea", "asm": "3045022100f365e0b58a99bc6548560aaa17d51388f357a0e9203d9979a3348666d40e74b4022050ac0e7774342679a682d6a7b47b17646a5fe58de74a6cda5107b9abc719b559[ALL] 03f9348bc436c5c6b7b789bf12f7a17981d6327582468b3258bac04fe9c544b9ea"}, "vout": 0, "txid": "b7ffd98b82f0d78be7f7e8936a091b15eea1bdebf3d42c9e571c55a2ecabf783"}, {"sequence": 4294967294, "scriptSig": {"hex": "4730440220199c0f923f491a8c21e6adc28399fbe8d0953f34a98aa4db1eff79aac610c375022023a52b471e7a3ed63a23a13dbe55b5c037526f5e86cf99e3d290616fe922d375012102369d8f74c35954fb6800229c353b2fa7b05ee9376622a8796d0eed14d77c81a0", "asm": "30440220199c0f923f491a8c21e6adc28399fbe8d0953f34a98aa4db1eff79aac610c375022023a52b471e7a3ed63a23a13dbe55b5c037526f5e86cf99e3d290616fe922d375[ALL] 02369d8f74c35954fb6800229c353b2fa7b05ee9376622a8796d0eed14d77c81a0"}, "vout": 0, "txid": "9cd5ac1df55d7467f7c31eec19d815982c44f4faaeb9e2d4dc8fd67f13086692"}, {"sequence": 4294967294, "scriptSig": {"hex": "483045022100bb2d2cf833abbb5d108766e42d799de849fc069456f61ba35f6b3ff30a32c15002200dec83439d4ede66f4e0657a7be4222de583250bd1605492098b2686a6e24e7a01210241703adec06f12e30c53abab841c8b7c6c875a962062b8f90f4bb878e389913a", "asm": "3045022100bb2d2cf833abbb5d108766e42d799de849fc069456f61ba35f6b3ff30a32c15002200dec83439d4ede66f4e0657a7be4222de583250bd1605492098b2686a6e24e7a[ALL] 0241703adec06f12e30c53abab841c8b7c6c875a962062b8f90f4bb878e389913a"}, "vout": 0, "txid": "a4cdeb0ce15d55a8434bae3052ab6986266a3512f521e9e3a3e60e68370a579a"}, {"sequence": 4294967294, "scriptSig": {"hex": "47304402203ee0eca35acdb1753ea80cb0e27fa22b3eda9c4aab883f179490485654f61f740220201e1db7d96ae84cdad882aef4e57fd211a321e0ae6fa93b3a9348162c0decbc012103bafd72bbd51401bf15f0e5184aedf96afef6ca7b99ccebda0d64dc3b68f1d576", "asm": "304402203ee0eca35acdb1753ea80cb0e27fa22b3eda9c4aab883f179490485654f61f740220201e1db7d96ae84cdad882aef4e57fd211a321e0ae6fa93b3a9348162c0decbc[ALL] 03bafd72bbd51401bf15f0e5184aedf96afef6ca7b99ccebda0d64dc3b68f1d576"}, "vout": 2, "txid": "10e15b98666dd5144a585f2e27e6a1c4121d3fddaa281ec1c06e4c68d556c9d4"}, {"sequence": 4294967294, "scriptSig": {"hex": "473044022018ec6d1e86fe901075312d1125e46140847287a585fd0e7226513ca3e2fb790d02205dfeb0f30e4b4e7e2f674faefa930cbadfb72498dd2524e7c82efc1edb7d6ac6012103695d4b05b971b39be0fe4df732e67d36054eb57f20dbb4367496c2fec09ec57b", "asm": "3044022018ec6d1e86fe901075312d1125e46140847287a585fd0e7226513ca3e2fb790d02205dfeb0f30e4b4e7e2f674faefa930cbadfb72498dd2524e7c82efc1edb7d6ac6[ALL] 03695d4b05b971b39be0fe4df732e67d36054eb57f20dbb4367496c2fec09ec57b"}, "vout": 0, "txid": "27a09d556a78ba1ae2c9e0f666b04c5baf1107c00e990c57775478f17045aada"}], "txid": "d554a7bc09b64acd828bbf3206cebb7ca215d900cf20c6ca3369912ad0ffee67", "blocktime": 1537871767, "version": 2, "confirmations": 11493, "time": 1537871767, "locktime": 542906, "vsize": 2165, "size": 2578}