{"hash": "d559aa250b4b6535a50419a5655a375ba408a26b097e41ce6c66adf19e26e043", "blockhash": "0000000000000000001e0dab787dd257d1dbfcb92a98c2207d5e1078be1f4165", "vout": [{"scriptPubKey": {"reqSigs": 1, "hex": "76a914e4facf3af9ab3ab55ac3c87b3365c8184607206d88ac", "addresses": ["1MsjXHcf8m15r2Qnk6h9reCAaWafr3dkG2"], "asm": "OP_DUP OP_HASH160 e4facf3af9ab3ab55ac3c87b3365c8184607206d OP_EQUALVERIFY OP_CHECKSIG", "type": "pubkeyhash"}, "value": 0.00263674, "n": 0}, {"scriptPubKey": {"reqSigs": 1, "hex": "76a914671eb17d06330c44ac5b33a40744e355adc957ad88ac", "addresses": ["1AQFNNJrFHkeT9G6UmwM3wMWkSGyWHB5Ap"], "asm": "OP_DUP OP_HASH160 671eb17d06330c44ac5b33a40744e355adc957ad OP_EQUALVERIFY OP_CHECKSIG", "type": "pubkeyhash"}, "value": 0.00579672, "n": 1}], "hex": "0100000001f108c79707ed06928874c93742c47a95c8374bffa3f2cb036cfc778e0edac188010000006a4730440220445f3c265ee48afc10dbfabb2e8692cc74b44d7d41f59007d433ef3d9e0cf14e022075c0a6e748e63246fb88794de9827eea5faed84c53a32002bbf22c637936ce6b012102a22e8ba04656e47808d6b2c2be87a77a92f71d8801edb06d79343aaeb4b7d0bcffffffff02fa050400000000001976a914e4facf3af9ab3ab55ac3c87b3365c8184607206d88ac58d80800000000001976a914671eb17d06330c44ac5b33a40744e355adc957ad88ac00000000", "vin": [{"sequence": 4294967295, "scriptSig": {"hex": "4730440220445f3c265ee48afc10dbfabb2e8692cc74b44d7d41f59007d433ef3d9e0cf14e022075c0a6e748e63246fb88794de9827eea5faed84c53a32002bbf22c637936ce6b012102a22e8ba04656e47808d6b2c2be87a77a92f71d8801edb06d79343aaeb4b7d0bc", "asm": "30440220445f3c265ee48afc10dbfabb2e8692cc74b44d7d41f59007d433ef3d9e0cf14e022075c0a6e748e63246fb88794de9827eea5faed84c53a32002bbf22c637936ce6b[ALL] 02a22e8ba04656e47808d6b2c2be87a77a92f71d8801edb06d79343aaeb4b7d0bc"}, "vout": 1, "txid": "88c1da0e8e77fc6c03cbf2a3ff4b37c8957ac44237c974889206ed0797c708f1"}], "txid": "d559aa250b4b6535a50419a5655a375ba408a26b097e41ce6c66adf19e26e043", "blocktime": 1537872475, "version": 1, "confirmations": 11486, "time": 1537872475, "locktime": 0, "vsize": 225, "size": 225}