{"hash": "abcff60716d39b2791ab38fa0e5eaeb28834711b5230ff78636c70c12f53b70d", "blockhash": "0000000000000000001f76057863aec43deb6fa401d9628bb513d65a8098bfab", "vout": [{"scriptPubKey": {"reqSigs": 1, "hex": "76a914809ef0f0b0e6469eeb1749992cafa98ef11ad43488ac", "addresses": ["1Cj5tysek52iD1sKC69tcoA8bp6o3HBTY2"], "asm": "OP_DUP OP_HASH160 809ef0f0b0e6469eeb1749992cafa98ef11ad434 OP_EQUALVERIFY OP_CHECKSIG", "type": "pubkeyhash"}, "value": 0.0070286, "n": 0}, {"scriptPubKey": {"reqSigs": 1, "hex": "a9149c4e63f6a4a2bf947f004ed2c80c87c611d4180e87", "addresses": ["3FwVF8p3XcpfiDFGLRG5BLadotY93VdoCg"], "asm": "OP_HASH160 9c4e63f6a4a2bf947f004ed2c80c87c611d4180e OP_EQUAL", "type": "scripthash"}, "value": 0.01009693, "n": 1}], "hex": "020000000001022fe872eef1eea0dbea501f8bbc66a00e83b0c5a6cac2ba5f3002f1668f4461100300000017160014af01e839d836e3eb319436e7c3749bbbf7783050feffffff96a767103273ee3ecc783f9f75e3cabf610758c6f749390c68e90a1c1c399cdc0100000017160014dc1c7d86cdfd5864dd17f967b9d1aed9aa82114efeffffff028cb90a00000000001976a914809ef0f0b0e6469eeb1749992cafa98ef11ad43488ac1d680f000000000017a9149c4e63f6a4a2bf947f004ed2c80c87c611d4180e8702483045022100fed4ee54a81b0241513f2e5c947444fb2ec1cdd8ef86559f5c960c16fd3ea176022044d0f42822a819184a9234db0adffd223140a503c5937f2c08a028f45c0954be012102630aa969541a8ae527a8c5a703adbc85fab74e172282eab91dbafd985a830505024730440220023f6649fecdb40aa9c3236f5b5179ac26af9145bbbacad05072e4e2840973540220485258230bd2e60ab73ffb2bce8193373703f696e0278a025b1859ed7f7cc43c0121030a955eb3a5e84fe2f1adc3376026e61880f4d01bf7493b90c9a2c3215d6177d913490800", "vin": [{"txinwitness": ["3045022100fed4ee54a81b0241513f2e5c947444fb2ec1cdd8ef86559f5c960c16fd3ea176022044d0f42822a819184a9234db0adffd223140a503c5937f2c08a028f45c0954be01", "02630aa969541a8ae527a8c5a703adbc85fab74e172282eab91dbafd985a830505"], "sequence": 4294967294, "scriptSig": {"hex": "160014af01e839d836e3eb319436e7c3749bbbf7783050", "asm": "0014af01e839d836e3eb319436e7c3749bbbf7783050"}, "vout": 3, "txid": "1061448f66f102305fbac2caa6c5b0830ea066bc8b1f50eadba0eef1ee72e82f"}, {"txinwitness": ["30440220023f6649fecdb40aa9c3236f5b5179ac26af9145bbbacad05072e4e2840973540220485258230bd2e60ab73ffb2bce8193373703f696e0278a025b1859ed7f7cc43c01", "030a955eb3a5e84fe2f1adc3376026e61880f4d01bf7493b90c9a2c3215d6177d9"], "sequence": 4294967294, "scriptSig": {"hex": "160014dc1c7d86cdfd5864dd17f967b9d1aed9aa82114e", "asm": "0014dc1c7d86cdfd5864dd17f967b9d1aed9aa82114e"}, "vout": 1, "txid": "dc9c391c1c0ae9680c3949f7c6580761bfcae3759f3f78cc3eee73321067a796"}], "txid": "d55bea88119aba7c4344fae18212b320f5f77647ea7baa600cc483a88e66e03f", "blocktime": 1537873891, "version": 2, "confirmations": 11478, "time": 1537873891, "locktime": 542995, "vsize": 259, "size": 421}