{"hash": "e3884c8ed92636252c938e18e5b9744b0c194d303c9a82f3fc2a0fb21a3f5982", "blockhash": "0000000000000000001e0dab787dd257d1dbfcb92a98c2207d5e1078be1f4165", "vout": [{"scriptPubKey": {"reqSigs": 1, "hex": "a914080d691d09c2b681b76f85e3fcd251971de980f287", "addresses": ["32RbPs1yLJtaBSfjSmc5M9CWmPQN388jSS"], "asm": "OP_HASH160 080d691d09c2b681b76f85e3fcd251971de980f2 OP_EQUAL", "type": "scripthash"}, "value": 0.01111817, "n": 0}, {"scriptPubKey": {"reqSigs": 1, "hex": "a91415105fd232239bb7cf7c33c37cb016dfeefe119787", "addresses": ["33cPjH7PRqoPpMyQ5QkeZBXQDtMYq3WcZk"], "asm": "OP_HASH160 15105fd232239bb7cf7c33c37cb016dfeefe1197 OP_EQUAL", "type": "scripthash"}, "value": 0.029876, "n": 1}], "hex": "0200000000010112a2b5b625e8541b3ea5f625cc07e34d0535e66f48590bd2f94d426c254ccd6e01000000171600144be2e65b5f38247a45566a62147318ba9967955dfdffffff0209f710000000000017a914080d691d09c2b681b76f85e3fcd251971de980f28750962d000000000017a91415105fd232239bb7cf7c33c37cb016dfeefe1197870247304402204875d2b217fe32948dd8ed8745afd21fcf4c7fc86a276db7455ca90af0985fe50220276e06a6864a41cbcd1765ea5d98f9a7324e0fcdd38446a14686539083d76350012103c8dfbd5a6a9075b4cf8d56193168c2e05a75cef7548e09d3aedd6d70f6e08d2600000000", "vin": [{"txinwitness": ["304402204875d2b217fe32948dd8ed8745afd21fcf4c7fc86a276db7455ca90af0985fe50220276e06a6864a41cbcd1765ea5d98f9a7324e0fcdd38446a14686539083d7635001", "03c8dfbd5a6a9075b4cf8d56193168c2e05a75cef7548e09d3aedd6d70f6e08d26"], "sequence": 4294967293, "scriptSig": {"hex": "1600144be2e65b5f38247a45566a62147318ba9967955d", "asm": "00144be2e65b5f38247a45566a62147318ba9967955d"}, "vout": 1, "txid": "6ecd4c256c424df9d20b59486fe635054de307cc25f6a53e1b54e825b6b5a212"}], "txid": "d55b1b5651963a8c0ac4cfe10c7da6648f7c54c9b55ec0eaa404da6f3e93385a", "blocktime": 1537872475, "version": 2, "confirmations": 11487, "time": 1537872475, "locktime": 0, "vsize": 166, "size": 247}