{"hash": "5573fd709499e8bf48d6a1837593aea7d081548da92fdb0303d0ecc23848aab4", "blockhash": "0000000000000000001cda96e906b7601b7a6fb1a3b62bca570a9e5d8f4b3de1", "vout": [{"scriptPubKey": {"reqSigs": 1, "hex": "a914f6b37468554403c320ead8c99ec9fadc2fc97f8087", "addresses": ["3QBT8U17AT38AntQHeYZVvaf89WuQrqjsv"], "asm": "OP_HASH160 f6b37468554403c320ead8c99ec9fadc2fc97f80 OP_EQUAL", "type": "scripthash"}, "value": 0.005, "n": 0}, {"scriptPubKey": {"reqSigs": 1, "hex": "a914009855a83ac142241ba4d40771ecb90788bd0bd487", "addresses": ["31kAQwJymXxiWoXCBZJerh2yF8DU4iJFdo"], "asm": "OP_HASH160 009855a83ac142241ba4d40771ecb90788bd0bd4 OP_EQUAL", "type": "scripthash"}, "value": 0.00079136, "n": 1}], "hex": "01000000000101116f2feff7b270fe838306cba5d3026671e73210c4e29d7fcb08c013e8cd49770900000023220020b33de2cef1be21c5cbee5df214dc67293af4c36a0f264568f3ec922fecaf92c3ffffffff0220a107000000000017a914f6b37468554403c320ead8c99ec9fadc2fc97f8087203501000000000017a914009855a83ac142241ba4d40771ecb90788bd0bd487040047304402205678326327bb294a49781536357678968977396a7ae30bc211e73433a735359202207d97eeb04b153096b8eb66459b229fe03d6ef741faa3d9016e923aa85cf831df0147304402207dfb6307f93d10166a6313966c8bbc0cc535d091bfd442ee6c51cd726c61b58c02207f9955d695deb820b46780c574a90c8421b80b3e3b10b0cc60904ff9a59ba46c0169522102744a96e4c3103b154af58b96dee213389386562d367ff82470e0046f3960825c2102be803ea142c2dfe8a1ba013b7e115603d054f7320b2a4ab9ef251db4d8fe612521030fa981b6152936680b5c8e75b1a328b78feb77d59fd789e77c5f789247a83ecd53ae00000000", "vin": [{"txinwitness": ["", "304402205678326327bb294a49781536357678968977396a7ae30bc211e73433a735359202207d97eeb04b153096b8eb66459b229fe03d6ef741faa3d9016e923aa85cf831df01", "304402207dfb6307f93d10166a6313966c8bbc0cc535d091bfd442ee6c51cd726c61b58c02207f9955d695deb820b46780c574a90c8421b80b3e3b10b0cc60904ff9a59ba46c01", "522102744a96e4c3103b154af58b96dee213389386562d367ff82470e0046f3960825c2102be803ea142c2dfe8a1ba013b7e115603d054f7320b2a4ab9ef251db4d8fe612521030fa981b6152936680b5c8e75b1a328b78feb77d59fd789e77c5f789247a83ecd53ae"], "sequence": 4294967295, "scriptSig": {"hex": "220020b33de2cef1be21c5cbee5df214dc67293af4c36a0f264568f3ec922fecaf92c3", "asm": "0020b33de2cef1be21c5cbee5df214dc67293af4c36a0f264568f3ec922fecaf92c3"}, "vout": 9, "txid": "7749cde813c008cb7f9de2c41032e7716602d3a5cb068383fe70b2f7ef2f6f11"}], "txid": "d55c322dac63cfa229bfdf7bba471465a4291a834235533424f7233229f8181f", "blocktime": 1537873282, "version": 1, "confirmations": 11484, "time": 1537873282, "locktime": 0, "vsize": 214, "size": 404}