{"hash": "d55c423393cad9d65a7ba1170c0468b6686cb0382e37e484f4405bfd760954cd", "blockhash": "0000000000000000001cda96e906b7601b7a6fb1a3b62bca570a9e5d8f4b3de1", "vout": [{"scriptPubKey": {"reqSigs": 1, "hex": "a914c0d7d79fd804381046d9ddd7e8863a402254738187", "addresses": ["3KGgEMq1dwZ9CduVv3Vx2XxHqxahPMdrio"], "asm": "OP_HASH160 c0d7d79fd804381046d9ddd7e8863a4022547381 OP_EQUAL", "type": "scripthash"}, "value": 0.0042, "n": 0}, {"scriptPubKey": {"reqSigs": 1, "hex": "76a914af6903cbebb09a8961dc2f2dd2af602533a6428888ac", "addresses": ["1GzV48Tnb1DaGyHPpkXzzGRRvQgFyHaGgY"], "asm": "OP_DUP OP_HASH160 af6903cbebb09a8961dc2f2dd2af602533a64288 OP_EQUALVERIFY OP_CHECKSIG", "type": "pubkeyhash"}, "value": 0.02604812, "n": 1}], "hex": "010000000198bc3872bb8ed6628d13b7e94d97dbf560a09750e8316dbccf025d7e945e6d73010000006b48304502210093156375886ce64743a3de62c475d1e58228b4108229c71edfcfc89a53a88adc0220024d9c72ffa26452d2f890d0a939e2fa896cd641672b94391f82f5008e364df3012102890c3e4084dd38dcee49db45338c75b6b142b5ad65ce71806bdb8e76206647b7ffffffff02a06806000000000017a914c0d7d79fd804381046d9ddd7e8863a4022547381870cbf2700000000001976a914af6903cbebb09a8961dc2f2dd2af602533a6428888ac00000000", "vin": [{"sequence": 4294967295, "scriptSig": {"hex": "48304502210093156375886ce64743a3de62c475d1e58228b4108229c71edfcfc89a53a88adc0220024d9c72ffa26452d2f890d0a939e2fa896cd641672b94391f82f5008e364df3012102890c3e4084dd38dcee49db45338c75b6b142b5ad65ce71806bdb8e76206647b7", "asm": "304502210093156375886ce64743a3de62c475d1e58228b4108229c71edfcfc89a53a88adc0220024d9c72ffa26452d2f890d0a939e2fa896cd641672b94391f82f5008e364df3[ALL] 02890c3e4084dd38dcee49db45338c75b6b142b5ad65ce71806bdb8e76206647b7"}, "vout": 1, "txid": "736d5e947e5d02cfbc6d31e85097a060f5db974de9b7138d62d68ebb7238bc98"}], "txid": "d55c423393cad9d65a7ba1170c0468b6686cb0382e37e484f4405bfd760954cd", "blocktime": 1537873282, "version": 1, "confirmations": 11483, "time": 1537873282, "locktime": 0, "vsize": 224, "size": 224}