{"hash": "c4e668acabbcd0de68d5ea202eedc58a80a0c227a2e636f4ef44ff649936bd9f", "blockhash": "0000000000000000000baef3f32e3676a92c3b2e5da21b426e4f302fc371ce76", "vout": [{"scriptPubKey": {"reqSigs": 1, "hex": "76a9148d6a84cfbbb2a9a80d13e000ffe511fbe3df74b988ac", "addresses": ["1Dtjt71qkCYbaWN7JYdetF5x39smUefwJX"], "asm": "OP_DUP OP_HASH160 8d6a84cfbbb2a9a80d13e000ffe511fbe3df74b9 OP_EQUALVERIFY OP_CHECKSIG", "type": "pubkeyhash"}, "value": 0.00101277, "n": 0}, {"scriptPubKey": {"reqSigs": 1, "hex": "a914bfe3b9b006bd60d821de4768216fbcf3cb0629a487", "addresses": ["3KBdnpNRSUC6xH7oL58GWg3f1QzPQs9FWq"], "asm": "OP_HASH160 bfe3b9b006bd60d821de4768216fbcf3cb0629a4 OP_EQUAL", "type": "scripthash"}, "value": 0.00539631, "n": 1}], "hex": "01000000000101eb5190d130f5873157484bc5e499d9d5b7ffae22bbcb1d455da5ba316ff6e16701000000232200204ac72bc93353695ed44de9eabe5eab31fde46c3e5524f6f6c253b37df4627817ffffffff029d8b0100000000001976a9148d6a84cfbbb2a9a80d13e000ffe511fbe3df74b988acef3b08000000000017a914bfe3b9b006bd60d821de4768216fbcf3cb0629a4870400483045022100ca5273ea8cc7bf418de9a32da4eba3bc4a52e07df89dca983e7c67965ff26a080220112333aac959db9d5ce34b84b290ea9d062613b41c757fd7de02680e3c821a9c0147304402203671774d1404362bfeb8477cc2b854da33e44029b4d4c7029533150187fbd50e022063beace101b2ca4c7eeedca7ef7c804797b3608b14a4f45a2ecb954572127ad9014752210383dd989bbcdccf0b79b07f5bbd82921af5ac4762329b0aa9346994805e5cd8fc2103871fc2ca08e6950b38867e8e6a0e94ee625223d3aa0df5c65f414c6d784467e252ae00000000", "vin": [{"txinwitness": ["", "3045022100ca5273ea8cc7bf418de9a32da4eba3bc4a52e07df89dca983e7c67965ff26a080220112333aac959db9d5ce34b84b290ea9d062613b41c757fd7de02680e3c821a9c01", "304402203671774d1404362bfeb8477cc2b854da33e44029b4d4c7029533150187fbd50e022063beace101b2ca4c7eeedca7ef7c804797b3608b14a4f45a2ecb954572127ad901", "52210383dd989bbcdccf0b79b07f5bbd82921af5ac4762329b0aa9346994805e5cd8fc2103871fc2ca08e6950b38867e8e6a0e94ee625223d3aa0df5c65f414c6d784467e252ae"], "sequence": 4294967295, "scriptSig": {"hex": "2200204ac72bc93353695ed44de9eabe5eab31fde46c3e5524f6f6c253b37df4627817", "asm": "00204ac72bc93353695ed44de9eabe5eab31fde46c3e5524f6f6c253b37df4627817"}, "vout": 1, "txid": "67e1f66f31baa55d451dcbbb22aeffb7d5d999e4c54b48573187f530d19051eb"}], "txid": "d55ef151ae7e06fa3c771aeb47fb1446504cb12dfe758cb1eb9baf11768351e7", "blocktime": 1537876114, "version": 1, "confirmations": 11460, "time": 1537876114, "locktime": 0, "vsize": 208, "size": 373}