{"hash": "726a2c35f31e33ed154cb7ed4acb2b699956a770300ae85c609f97929dca9640", "blockhash": "0000000000000000001f76057863aec43deb6fa401d9628bb513d65a8098bfab", "vout": [{"scriptPubKey": {"reqSigs": 1, "hex": "a914c50b1394403118530cc62856ea5286533c61d2fc87", "addresses": ["3KetJwaEU4x6jJMuEtsfK4XnnJZgwL7GAL"], "asm": "OP_HASH160 c50b1394403118530cc62856ea5286533c61d2fc OP_EQUAL", "type": "scripthash"}, "value": 7.80970136, "n": 0}, {"scriptPubKey": {"reqSigs": 1, "hex": "a9148fbccad48d26344e73eefb106bd391c0dab1a3ee87", "addresses": ["3Eo2iVf1ex7WtPmYj3KWzaB6XTwvChRM97"], "asm": "OP_HASH160 8fbccad48d26344e73eefb106bd391c0dab1a3ee OP_EQUAL", "type": "scripthash"}, "value": 0.0033, "n": 1}, {"scriptPubKey": {"reqSigs": 1, "hex": "76a914de25137b50ec9b0fd924ad6ce29d664bbe05de1688ac", "addresses": ["1MFbRgP4RtotaDwFqMESqrwp9iJmoDhtj5"], "asm": "OP_DUP OP_HASH160 de25137b50ec9b0fd924ad6ce29d664bbe05de16 OP_EQUALVERIFY OP_CHECKSIG", "type": "pubkeyhash"}, "value": 0.165, "n": 2}, {"scriptPubKey": {"reqSigs": 1, "hex": "a91432443256160846bd1e11a5aaa7ae46e7b73f13e487", "addresses": ["36GoQX7Gyh4uTTCC6ahQQyxXGNMfMwBiT2"], "asm": "OP_HASH160 32443256160846bd1e11a5aaa7ae46e7b73f13e4 OP_EQUAL", "type": "scripthash"}, "value": 0.025, "n": 3}], "hex": "02000000000101ecaceffaabd0ce9f3e8a18e57edc194ee2190a3760b5049c2cfc1c000ef136b90200000017160014ec874dad6d430eaace1c61e5092f395409ee7148fdffffff0498a88c2e0000000017a914c50b1394403118530cc62856ea5286533c61d2fc87100905000000000017a9148fbccad48d26344e73eefb106bd391c0dab1a3ee8720c5fb00000000001976a914de25137b50ec9b0fd924ad6ce29d664bbe05de1688aca02526000000000017a91432443256160846bd1e11a5aaa7ae46e7b73f13e48702483045022100cbcc992c13d9372a5a4a4cac5f7923dc9bb4e3b0f4c1fb589dd4962da7f7b356022038731b11d1a59518908ed679f301ef08d3bac22e2ab1697a130d4ce50001d2ba0121034bc50692c325770f5eaf210bc881dfc429bada867598279af6b82351a43b0a1614490800", "vin": [{"txinwitness": ["3045022100cbcc992c13d9372a5a4a4cac5f7923dc9bb4e3b0f4c1fb589dd4962da7f7b356022038731b11d1a59518908ed679f301ef08d3bac22e2ab1697a130d4ce50001d2ba01", "034bc50692c325770f5eaf210bc881dfc429bada867598279af6b82351a43b0a16"], "sequence": 4294967293, "scriptSig": {"hex": "160014ec874dad6d430eaace1c61e5092f395409ee7148", "asm": "0014ec874dad6d430eaace1c61e5092f395409ee7148"}, "vout": 2, "txid": "b936f10e001cfc2c9c04b560370a19e24e19dc7ee5188a3e9fced0abfaefacec"}], "txid": "d55fd4a5f77487e2653117356faea64129906b9023296c2b9e6ce2f21844485d", "blocktime": 1537873891, "version": 2, "confirmations": 11478, "time": 1537873891, "locktime": 542996, "vsize": 232, "size": 314}