{"hash": "e9e55e72dcc4b83d46eee44310f4ccbb3be4fcb457497b264ec172ab3e33732b", "blockhash": "00000000000000000004ffacab907a6b429b9a5745fa0b75af4234bf69dd7176", "vout": [{"scriptPubKey": {"reqSigs": 1, "hex": "0014dc4d3019327e746ce1007eca8bdb516ae3c8cac1", "addresses": ["bc1qm3xnqxfj0e6xecgq0m9ghk63dt3u3jkprz9rns"], "asm": "0 dc4d3019327e746ce1007eca8bdb516ae3c8cac1", "type": "witness_v0_keyhash"}, "value": 3.0850555, "n": 0}, {"scriptPubKey": {"reqSigs": 1, "hex": "76a914e76aae79d9f1b78ae5d4b931d46f66e88963e95a88ac", "addresses": ["1N6ctgFEpdABPXVzMXVUXkaa341aBKzdBX"], "asm": "OP_DUP OP_HASH160 e76aae79d9f1b78ae5d4b931d46f66e88963e95a OP_EQUALVERIFY OP_CHECKSIG", "type": "pubkeyhash"}, "value": 0.00969585, "n": 1}], "hex": "0100000000010111afce1392b179b123ac95cfc7a35ddf295b97012cfb4526211d05531a33c0040000000000ffffffff02ce6b631200000000160014dc4d3019327e746ce1007eca8bdb516ae3c8cac171cb0e00000000001976a914e76aae79d9f1b78ae5d4b931d46f66e88963e95a88ac02483045022100ddda41e738ee3bd206d9161e9fe357f4e06dd57e1a502c8f142a987aa8586d9b02206f29cf2f9cacfc83673a54eed9b44dcd5074b5cdeaa53a2584bd0993fa936ebc012103ea823907de492059121c65300aee1b0d4cb49bd24109b6a0b43ab2630a0a3c0b00000000", "vin": [{"txinwitness": ["3045022100ddda41e738ee3bd206d9161e9fe357f4e06dd57e1a502c8f142a987aa8586d9b02206f29cf2f9cacfc83673a54eed9b44dcd5074b5cdeaa53a2584bd0993fa936ebc01", "03ea823907de492059121c65300aee1b0d4cb49bd24109b6a0b43ab2630a0a3c0b"], "sequence": 4294967295, "scriptSig": {"hex": "", "asm": ""}, "vout": 0, "txid": "04c0331a53051d212645fb2c01975b29df5da3c7cf95ac23b179b19213ceaf11"}], "txid": "d566f3abc3e4480bd5e9b6890f901940badf52e855d47725db13678fae94a617", "blocktime": 1537875543, "version": 1, "confirmations": 11464, "time": 1537875543, "locktime": 0, "vsize": 144, "size": 226}