{"hash": "d56972f6623cea18f3dca3cc8e4d068ad852824021928efd1fd81cdc792bf8ef", "blockhash": "00000000000000000017f5eb5941039fbcee6240d03bc1f2f8e35350df66a1d8", "vout": [{"scriptPubKey": {"reqSigs": 1, "hex": "a914c07f982fffc1a0099476321a0bc04b45cc5c31d987", "addresses": ["3KErWo5V7qc5j8XCL51acHERwnDYhHfHvt"], "asm": "OP_HASH160 c07f982fffc1a0099476321a0bc04b45cc5c31d9 OP_EQUAL", "type": "scripthash"}, "value": 0.0306446, "n": 0}, {"scriptPubKey": {"reqSigs": 1, "hex": "76a9145082f1abef42ed3883dfbe1fe196dbdeb9627fbc88ac", "addresses": ["18LhvVqKdyvqhm97BKGbXd3FvS96X9gi7A"], "asm": "OP_DUP OP_HASH160 5082f1abef42ed3883dfbe1fe196dbdeb9627fbc OP_EQUALVERIFY OP_CHECKSIG", "type": "pubkeyhash"}, "value": 0.09763166, "n": 1}], "hex": "010000000108b76d4d7d415eba5fd8976774f4ad8cb884eb43fc497bc925d6bf87e223d509010000006a47304402203f154e7a67370bea68299a966559351f45ec1b20bedf82904068f3d58e7ac1e8022068a5625c4018d1583d40113f9268d2b187c493c2a5b2a75e0136948391a6b43101210236d244c8bae209a15103e15594ef012724fed823cb4acc36e6e7a06e11b89c47ffffffff028cc22e000000000017a914c07f982fffc1a0099476321a0bc04b45cc5c31d9875ef99400000000001976a9145082f1abef42ed3883dfbe1fe196dbdeb9627fbc88ac00000000", "vin": [{"sequence": 4294967295, "scriptSig": {"hex": "47304402203f154e7a67370bea68299a966559351f45ec1b20bedf82904068f3d58e7ac1e8022068a5625c4018d1583d40113f9268d2b187c493c2a5b2a75e0136948391a6b43101210236d244c8bae209a15103e15594ef012724fed823cb4acc36e6e7a06e11b89c47", "asm": "304402203f154e7a67370bea68299a966559351f45ec1b20bedf82904068f3d58e7ac1e8022068a5625c4018d1583d40113f9268d2b187c493c2a5b2a75e0136948391a6b431[ALL] 0236d244c8bae209a15103e15594ef012724fed823cb4acc36e6e7a06e11b89c47"}, "vout": 1, "txid": "09d523e287bfd625c97b49fc43eb84b88cadf4746797d85fba5e417d4d6db708"}], "txid": "d56972f6623cea18f3dca3cc8e4d068ad852824021928efd1fd81cdc792bf8ef", "blocktime": 1537874412, "version": 1, "confirmations": 11467, "time": 1537874412, "locktime": 0, "vsize": 223, "size": 223}