{"hash": "d56e557a04941106b8dccfebfb741dc7133b9d883aa2503f0d82496784ecc635", "blockhash": "0000000000000000000baef3f32e3676a92c3b2e5da21b426e4f302fc371ce76", "vout": [{"scriptPubKey": {"reqSigs": 1, "hex": "a91485239ef1a259dac393bde4db4c73a25a0667df8187", "addresses": ["3DpzU3DHjGARkwip3hmTAZepkt3XhC89hr"], "asm": "OP_HASH160 85239ef1a259dac393bde4db4c73a25a0667df81 OP_EQUAL", "type": "scripthash"}, "value": 0.33, "n": 0}, {"scriptPubKey": {"reqSigs": 1, "hex": "76a914c5405826e84a99dd48a58c3416b005a655b4c7ae88ac", "addresses": ["1JyyCWozSKYDQfhGYrQA2x7WHRkzM6egHG"], "asm": "OP_DUP OP_HASH160 c5405826e84a99dd48a58c3416b005a655b4c7ae OP_EQUALVERIFY OP_CHECKSIG", "type": "pubkeyhash"}, "value": 0.41111007, "n": 1}], "hex": "01000000011c151cc7377e7e5cab75fe12cde21f11926015445152232a0e0e72d95684eee4010000006a4730440220491a12cafedbcec6c3623bbcb82a7d1e602c0e5621be4403fecb73fc07dde4e502205469029ffd9649fa5668c3b8aa552512863b4937b57525c32cfbfb65b3068d800121032debb58b43cdd1155b58a485e4d484da34fb32cc635467bc12420acfbff2a224fdffffff02408af7010000000017a91485239ef1a259dac393bde4db4c73a25a0667df8187df4d7302000000001976a914c5405826e84a99dd48a58c3416b005a655b4c7ae88ac16490800", "vin": [{"sequence": 4294967293, "scriptSig": {"hex": "4730440220491a12cafedbcec6c3623bbcb82a7d1e602c0e5621be4403fecb73fc07dde4e502205469029ffd9649fa5668c3b8aa552512863b4937b57525c32cfbfb65b3068d800121032debb58b43cdd1155b58a485e4d484da34fb32cc635467bc12420acfbff2a224", "asm": "30440220491a12cafedbcec6c3623bbcb82a7d1e602c0e5621be4403fecb73fc07dde4e502205469029ffd9649fa5668c3b8aa552512863b4937b57525c32cfbfb65b3068d80[ALL] 032debb58b43cdd1155b58a485e4d484da34fb32cc635467bc12420acfbff2a224"}, "vout": 1, "txid": "e4ee8456d9720e0e2a23525144156092111fe2cd12fe75ab5c7e7e37c71c151c"}], "txid": "d56e557a04941106b8dccfebfb741dc7133b9d883aa2503f0d82496784ecc635", "blocktime": 1537876114, "version": 1, "confirmations": 11460, "time": 1537876114, "locktime": 542998, "vsize": 223, "size": 223}