{"hash": "d570d8361ec862b8f57bc1bd99ea17789b8d724400c5d49e68a460f2117cb545", "blockhash": "0000000000000000001f76057863aec43deb6fa401d9628bb513d65a8098bfab", "vout": [{"scriptPubKey": {"reqSigs": 1, "hex": "a914788972659cf19efd27938cc193fd5d66449a2e8a87", "addresses": ["3CgMfYD17SYP7ddhUDrbpMUEabymcaFjH5"], "asm": "OP_HASH160 788972659cf19efd27938cc193fd5d66449a2e8a OP_EQUAL", "type": "scripthash"}, "value": 0.02143128, "n": 0}, {"scriptPubKey": {"reqSigs": 1, "hex": "a9142f0f0aec6c253b85bc2fcb94a52dfbfe7052301187", "addresses": ["35yqhk36ifcCDpjoobavBPQaUy8hC6Su4v"], "asm": "OP_HASH160 2f0f0aec6c253b85bc2fcb94a52dfbfe70523011 OP_EQUAL", "type": "scripthash"}, "value": 1.02078591, "n": 1}], "hex": "010000000143e409a5f97810125196a078dfe9d0aa86560e0a0bb3760640bbc359c25417b601000000fc0047304402201474cfdd4b96b5251f1e72f71dcb61ce60a2e54acb5caf38e5d3b54e0dbbf63e022051f949da93dd4a9e5c219d8ccf8ad9d142896b13b559a9b1d3d6255daaf8e4110147304402201ed7750b6afd64cb31a9c35faf476d922d135dd281187ad43c387583756bcbe802207fec612a072e955cba2f51bf57063521d39db2becc51e18ee2b1fc79d5002ff1014c69522102cec7caa6525cb93d2b9c2cf1d42b9fb3a1b1574dd5f3ff4e7affdf7062200cc721026fd91331b6b4eb725d7f3397f7015ab2bf91edd3f773c4b526f81382525465d121035dfc487a5dd93a54a0ef020a0e2d20d13f9f417ccb178668096518a14ee01e8553aeffffffff0298b320000000000017a914788972659cf19efd27938cc193fd5d66449a2e8a877f9815060000000017a9142f0f0aec6c253b85bc2fcb94a52dfbfe705230118700000000", "vin": [{"sequence": 4294967295, "scriptSig": {"hex": "0047304402201474cfdd4b96b5251f1e72f71dcb61ce60a2e54acb5caf38e5d3b54e0dbbf63e022051f949da93dd4a9e5c219d8ccf8ad9d142896b13b559a9b1d3d6255daaf8e4110147304402201ed7750b6afd64cb31a9c35faf476d922d135dd281187ad43c387583756bcbe802207fec612a072e955cba2f51bf57063521d39db2becc51e18ee2b1fc79d5002ff1014c69522102cec7caa6525cb93d2b9c2cf1d42b9fb3a1b1574dd5f3ff4e7affdf7062200cc721026fd91331b6b4eb725d7f3397f7015ab2bf91edd3f773c4b526f81382525465d121035dfc487a5dd93a54a0ef020a0e2d20d13f9f417ccb178668096518a14ee01e8553ae", "asm": "0 304402201474cfdd4b96b5251f1e72f71dcb61ce60a2e54acb5caf38e5d3b54e0dbbf63e022051f949da93dd4a9e5c219d8ccf8ad9d142896b13b559a9b1d3d6255daaf8e411[ALL] 304402201ed7750b6afd64cb31a9c35faf476d922d135dd281187ad43c387583756bcbe802207fec612a072e955cba2f51bf57063521d39db2becc51e18ee2b1fc79d5002ff1[ALL] 522102cec7caa6525cb93d2b9c2cf1d42b9fb3a1b1574dd5f3ff4e7affdf7062200cc721026fd91331b6b4eb725d7f3397f7015ab2bf91edd3f773c4b526f81382525465d121035dfc487a5dd93a54a0ef020a0e2d20d13f9f417ccb178668096518a14ee01e8553ae"}, "vout": 1, "txid": "b61754c259c3bb400676b30b0a0e5686aad0e9df78a09651121078f9a509e443"}], "txid": "d570d8361ec862b8f57bc1bd99ea17789b8d724400c5d49e68a460f2117cb545", "blocktime": 1537873891, "version": 1, "confirmations": 11477, "time": 1537873891, "locktime": 0, "vsize": 367, "size": 367}