{"hash": "d571ed43000a98f2e4271460ace3311f6ed7db8192c1044813e5c32f9cacf0f4", "blockhash": "00000000000000000004ffacab907a6b429b9a5745fa0b75af4234bf69dd7176", "vout": [{"scriptPubKey": {"reqSigs": 1, "hex": "76a9141508276fd4193e83f5fce7a810a40e8f983c161988ac", "addresses": ["12vCxak5xc1t6T275xbm6AJ4xsZCxkTSc5"], "asm": "OP_DUP OP_HASH160 1508276fd4193e83f5fce7a810a40e8f983c1619 OP_EQUALVERIFY OP_CHECKSIG", "type": "pubkeyhash"}, "value": 2.6724836, "n": 0}, {"scriptPubKey": {"type": "nulldata", "hex": "6a146f6d6e69000000000000001f0000001b26af2cd1", "asm": "OP_RETURN 6f6d6e69000000000000001f0000001b26af2cd1"}, "value": 0.0, "n": 1}, {"scriptPubKey": {"reqSigs": 1, "hex": "76a91439f647e9dc077cd29d71a216e04f5de3f892035088ac", "addresses": ["16HUYqGCDr4moLEi6m9NhFZ3gY916zz6TZ"], "asm": "OP_DUP OP_HASH160 39f647e9dc077cd29d71a216e04f5de3f8920350 OP_EQUALVERIFY OP_CHECKSIG", "type": "pubkeyhash"}, "value": 5.46e-06, "n": 2}], "hex": "0100000001d5f7fd826e46243d0359e86e2a7934191cf6e0c6b58186a80503fc0f86e6dd53000000006b4830450221009c13b14fe0ce8a39a2695a5e8ecb367301cd6db5c4fbaa9f48c9024851d5f872022055558cbd67f4bff53c11ed1bc65e6c646689b268638978455ab5905a66a8ab460121035bb5ec1330953265719fecb2345ebd0cd02272efa8a3a940a8a28021b37703eeffffffff03e8e2ed0f000000001976a9141508276fd4193e83f5fce7a810a40e8f983c161988ac0000000000000000166a146f6d6e69000000000000001f0000001b26af2cd122020000000000001976a91439f647e9dc077cd29d71a216e04f5de3f892035088ac00000000", "vin": [{"sequence": 4294967295, "scriptSig": {"hex": "4830450221009c13b14fe0ce8a39a2695a5e8ecb367301cd6db5c4fbaa9f48c9024851d5f872022055558cbd67f4bff53c11ed1bc65e6c646689b268638978455ab5905a66a8ab460121035bb5ec1330953265719fecb2345ebd0cd02272efa8a3a940a8a28021b37703ee", "asm": "30450221009c13b14fe0ce8a39a2695a5e8ecb367301cd6db5c4fbaa9f48c9024851d5f872022055558cbd67f4bff53c11ed1bc65e6c646689b268638978455ab5905a66a8ab46[ALL] 035bb5ec1330953265719fecb2345ebd0cd02272efa8a3a940a8a28021b37703ee"}, "vout": 0, "txid": "53dde6860ffc0305a88681b5c6e0f61c1934792a6ee859033d24466e82fdf7d5"}], "txid": "d571ed43000a98f2e4271460ace3311f6ed7db8192c1044813e5c32f9cacf0f4", "blocktime": 1537875543, "version": 1, "confirmations": 11464, "time": 1537875543, "locktime": 0, "vsize": 257, "size": 257}