{"hash": "d5737761a24a9604d6fae4a531b38cb2d1d7cbac2d81380421b9a3c7dffabc3e", "blockhash": "0000000000000000001f76057863aec43deb6fa401d9628bb513d65a8098bfab", "vout": [{"scriptPubKey": {"reqSigs": 1, "hex": "76a914e466b7a7a7966c89ea51bd1e0639567741216ef588ac", "addresses": ["1Mpg7ficYBQ1hhKRWknBJYRpM7iehKvWY2"], "asm": "OP_DUP OP_HASH160 e466b7a7a7966c89ea51bd1e0639567741216ef5 OP_EQUALVERIFY OP_CHECKSIG", "type": "pubkeyhash"}, "value": 0.00635756, "n": 0}, {"scriptPubKey": {"type": "nulldata", "hex": "6a4c50000077db0001a7a87563874182cc956141857af8e8e963c7cfd5b95b23cc0f42c2fc38c55223f8946ef7c6e26582f8f0d13053bd5baa15c906130cdae951bca81d100759d4ba30d2c37bb011d97e02cf", "asm": "OP_RETURN 000077db0001a7a87563874182cc956141857af8e8e963c7cfd5b95b23cc0f42c2fc38c55223f8946ef7c6e26582f8f0d13053bd5baa15c906130cdae951bca81d100759d4ba30d2c37bb011d97e02cf"}, "value": 0.0, "n": 1}], "hex": "01000000012d7560cecf23124dc17c9ba307a808dd18c589e42a0de9e69631e7f2843ccb13010000006a4730440220017ef030d74be8b8e55d5334da6a2a47a0fec54e0a70ffbc42978db3a2a8c04f02203575f5d7c009bb180b037a466c5389d5cbce40e4d52c3217612d7c71b56c5ed9012102309d93dc169a2a3f2071c7134f27f617e6be57a5263f2e37f3ebd65b7c3673a7ffffffff026cb30900000000001976a914e466b7a7a7966c89ea51bd1e0639567741216ef588ac0000000000000000536a4c50000077db0001a7a87563874182cc956141857af8e8e963c7cfd5b95b23cc0f42c2fc38c55223f8946ef7c6e26582f8f0d13053bd5baa15c906130cdae951bca81d100759d4ba30d2c37bb011d97e02cf00000000", "vin": [{"sequence": 4294967295, "scriptSig": {"hex": "4730440220017ef030d74be8b8e55d5334da6a2a47a0fec54e0a70ffbc42978db3a2a8c04f02203575f5d7c009bb180b037a466c5389d5cbce40e4d52c3217612d7c71b56c5ed9012102309d93dc169a2a3f2071c7134f27f617e6be57a5263f2e37f3ebd65b7c3673a7", "asm": "30440220017ef030d74be8b8e55d5334da6a2a47a0fec54e0a70ffbc42978db3a2a8c04f02203575f5d7c009bb180b037a466c5389d5cbce40e4d52c3217612d7c71b56c5ed9[ALL] 02309d93dc169a2a3f2071c7134f27f617e6be57a5263f2e37f3ebd65b7c3673a7"}, "vout": 1, "txid": "13cb3c84f2e73196e6e90d2ae489c518dd08a807a39b7cc14d1223cfce60752d"}], "txid": "d5737761a24a9604d6fae4a531b38cb2d1d7cbac2d81380421b9a3c7dffabc3e", "blocktime": 1537873891, "version": 1, "confirmations": 11478, "time": 1537873891, "locktime": 0, "vsize": 283, "size": 283}