{"hash": "d57b3f6915b2ce93f57dc64b22a3d5792294ea1ae8a09a843aa396dd6fde5c56", "blockhash": "0000000000000000001cda96e906b7601b7a6fb1a3b62bca570a9e5d8f4b3de1", "vout": [{"scriptPubKey": {"reqSigs": 1, "hex": "a914b066ea9f1ed56876961b1f87168c41b2d764df8987", "addresses": ["3Hmk94xTpqfgF6yRcA1sLEaeUNohHX7Ny2"], "asm": "OP_HASH160 b066ea9f1ed56876961b1f87168c41b2d764df89 OP_EQUAL", "type": "scripthash"}, "value": 0.01182216, "n": 0}, {"scriptPubKey": {"reqSigs": 1, "hex": "76a9148a583bfcc2c136a37dc88e29cc0e38045006123888ac", "addresses": ["1DcVx6rpQemhTqozwPhxDWWZ7RWkqSUzEB"], "asm": "OP_DUP OP_HASH160 8a583bfcc2c136a37dc88e29cc0e380450061238 OP_EQUALVERIFY OP_CHECKSIG", "type": "pubkeyhash"}, "value": 0.00108725, "n": 1}], "hex": "02000000011b913b58f054cf4761f2751e440280f99a154afe2b42606b3172be336ed80b79050000006a47304402207a6b179e7c655cf13be489b9c839792cebc2f5c70868f44c9040a49a06c17ecb02201ab93993e70b3b5fb40cb7f85bb7031127aaf7e04260f30c0a92580d39e640d1012103b04f8651ba238cd99c5c06d9421eca3125e6f5d6242339f6e841cac12d7a0639ffffffff02080a12000000000017a914b066ea9f1ed56876961b1f87168c41b2d764df8987b5a80100000000001976a9148a583bfcc2c136a37dc88e29cc0e38045006123888ac00000000", "vin": [{"sequence": 4294967295, "scriptSig": {"hex": "47304402207a6b179e7c655cf13be489b9c839792cebc2f5c70868f44c9040a49a06c17ecb02201ab93993e70b3b5fb40cb7f85bb7031127aaf7e04260f30c0a92580d39e640d1012103b04f8651ba238cd99c5c06d9421eca3125e6f5d6242339f6e841cac12d7a0639", "asm": "304402207a6b179e7c655cf13be489b9c839792cebc2f5c70868f44c9040a49a06c17ecb02201ab93993e70b3b5fb40cb7f85bb7031127aaf7e04260f30c0a92580d39e640d1[ALL] 03b04f8651ba238cd99c5c06d9421eca3125e6f5d6242339f6e841cac12d7a0639"}, "vout": 5, "txid": "790bd86e33be72316b60422bfe4a159af98002441e75f26147cf54f0583b911b"}], "txid": "d57b3f6915b2ce93f57dc64b22a3d5792294ea1ae8a09a843aa396dd6fde5c56", "blocktime": 1537873282, "version": 2, "confirmations": 11480, "time": 1537873282, "locktime": 0, "vsize": 223, "size": 223}