{"hash": "d57e5aacc18efe2ad473f1d40b6ffe981051d78a10eddcc464c2e4ab9fe8122e", "blockhash": "0000000000000000000baef3f32e3676a92c3b2e5da21b426e4f302fc371ce76", "vout": [{"scriptPubKey": {"type": "nulldata", "hex": "6a4c500000781b000128908399d77f7b950f34295b019d6ddc0f1b8ff117702940d64fa54d8eb2a558e43537d405c70834c5fda340e3235baa1cdf0613fc9e2cf86eb81d100759d4ba30d2c37bb011d97e02cf", "asm": "OP_RETURN 0000781b000128908399d77f7b950f34295b019d6ddc0f1b8ff117702940d64fa54d8eb2a558e43537d405c70834c5fda340e3235baa1cdf0613fc9e2cf86eb81d100759d4ba30d2c37bb011d97e02cf"}, "value": 0.0, "n": 0}, {"scriptPubKey": {"reqSigs": 1, "hex": "76a9143bb8d77c5292b81379a7b941845a0f4be255f73788ac", "addresses": ["16SnJM9JgD1iPskatF9EE9DXHgqh6NTkcJ"], "asm": "OP_DUP OP_HASH160 3bb8d77c5292b81379a7b941845a0f4be255f737 OP_EQUALVERIFY OP_CHECKSIG", "type": "pubkeyhash"}, "value": 0.00628971, "n": 1}], "hex": "0100000001c09263915149fc67615f473bf220cde72f1c463594f84706b8bbf522bcd92a5a010000006b483045022100e688fdd661cc1e29b1e0f508e8273844b66ee1ffaa44884f39b8a47e7037354902201e2601bd9a0724e936f2f718da5a62747e5bae3cf66e771520fb3efad934ea81012103b319709139e13ce76d00430d7a58a6085f94e439ea0d6171b2ab877ea92614d8ffffffff020000000000000000536a4c500000781b000128908399d77f7b950f34295b019d6ddc0f1b8ff117702940d64fa54d8eb2a558e43537d405c70834c5fda340e3235baa1cdf0613fc9e2cf86eb81d100759d4ba30d2c37bb011d97e02cfeb980900000000001976a9143bb8d77c5292b81379a7b941845a0f4be255f73788ac00000000", "vin": [{"sequence": 4294967295, "scriptSig": {"hex": "483045022100e688fdd661cc1e29b1e0f508e8273844b66ee1ffaa44884f39b8a47e7037354902201e2601bd9a0724e936f2f718da5a62747e5bae3cf66e771520fb3efad934ea81012103b319709139e13ce76d00430d7a58a6085f94e439ea0d6171b2ab877ea92614d8", "asm": "3045022100e688fdd661cc1e29b1e0f508e8273844b66ee1ffaa44884f39b8a47e7037354902201e2601bd9a0724e936f2f718da5a62747e5bae3cf66e771520fb3efad934ea81[ALL] 03b319709139e13ce76d00430d7a58a6085f94e439ea0d6171b2ab877ea92614d8"}, "vout": 1, "txid": "5a2ad9bc22f5bbb80647f89435461c2fe7cd20f23b475f6167fc4951916392c0"}], "txid": "d57e5aacc18efe2ad473f1d40b6ffe981051d78a10eddcc464c2e4ab9fe8122e", "blocktime": 1537876114, "version": 1, "confirmations": 11460, "time": 1537876114, "locktime": 0, "vsize": 284, "size": 284}