{"hash": "470843ca86f93bebefe576188c4e1fdde70a6ce6ac922ac8267ff9234a1076ce", "blockhash": "00000000000000000018f53835495a110e01622372bf6ae95dc86f2b0ab887b0", "vout": [{"scriptPubKey": {"reqSigs": 1, "hex": "001455a029627d4c3281801fb14d1ee074b5666f8e86", "addresses": ["bc1q2kszjcnafsegrqqlk9x3acr5k4nxlr5xaxh262"], "asm": "0 55a029627d4c3281801fb14d1ee074b5666f8e86", "type": "witness_v0_keyhash"}, "value": 0.09626061, "n": 0}, {"scriptPubKey": {"reqSigs": 1, "hex": "a914a5ade0be844480fe2591efb04556cdfb883ed41a87", "addresses": ["3Go3iSjjQnQCbtptjJzQWqij7GPeLc3x6m"], "asm": "OP_HASH160 a5ade0be844480fe2591efb04556cdfb883ed41a OP_EQUAL", "type": "scripthash"}, "value": 0.028392, "n": 1}], "hex": "01000000000101e8cbe1de92f844d98788da1809e64b737bd822b463e442debfd9a836fc0000b00000000000ffffffff02cde192000000000016001455a029627d4c3281801fb14d1ee074b5666f8e86a0522b000000000017a914a5ade0be844480fe2591efb04556cdfb883ed41a8702483045022100afa003e7fbb325af38d518e72d94cdbd6df78fc77cf62e0860d6fc923faf0e5502207e04f2af1bf234fd65e326c0d648de2863afbd37c8630d5e78883b86b7e5d848012102fae8d5b8bcd83323bad537fe818a52b749efac636c5b04797fe104bbbe57bdbe00000000", "vin": [{"txinwitness": ["3045022100afa003e7fbb325af38d518e72d94cdbd6df78fc77cf62e0860d6fc923faf0e5502207e04f2af1bf234fd65e326c0d648de2863afbd37c8630d5e78883b86b7e5d84801", "02fae8d5b8bcd83323bad537fe818a52b749efac636c5b04797fe104bbbe57bdbe"], "sequence": 4294967295, "scriptSig": {"hex": "", "asm": ""}, "vout": 0, "txid": "b00000fc36a8d9bfde42e463b422d87b734be60918da8887d944f892dee1cbe8"}], "txid": "d57fa4883f25b19dd030a960781018ba71b1dff698910ab16900aad3f445f02a", "blocktime": 1537870928, "version": 1, "confirmations": 11513, "time": 1537870928, "locktime": 0, "vsize": 142, "size": 224}