{"hash": "d58589d541273fab7d229db6eda888b2e7c416682a4a0b0c3d4c8cec5d327498", "blockhash": "0000000000000000000e13cef7c366c0283d82e591d1acd082e914b08063cdf1", "vout": [{"scriptPubKey": {"type": "nulldata", "hex": "6a2efc57d58437f3c3f93cbaba7f972709d69a8a72cfae216aa04479f0838bcfa929f0994e9606eebba4cabea11733a7", "asm": "OP_RETURN fc57d58437f3c3f93cbaba7f972709d69a8a72cfae216aa04479f0838bcfa929f0994e9606eebba4cabea11733a7"}, "value": 0.0, "n": 0}, {"scriptPubKey": {"reqSigs": 1, "hex": "76a9142f20795928713d99b0b353fa37e40da6f6f4e8e888ac", "addresses": ["15JBfMKJ3mitcWv4WojdMjQzzse1q6A317"], "asm": "OP_DUP OP_HASH160 2f20795928713d99b0b353fa37e40da6f6f4e8e8 OP_EQUALVERIFY OP_CHECKSIG", "type": "pubkeyhash"}, "value": 0.00046111, "n": 1}], "hex": "0100000001a56120d07c116f81c337cd40f7adc2d5db687547949db24e6763cb921bbcf751010000006b483045022100cd26f7c913a57bdb413651251cd7c221ee6447a20adc3e6032b2764e013626b20220305d5b1570e6604c2670341a534091bdb9c971ffc4092007cf09047698f1a6c4012103b93a3a56bc3197ebac7ee19dd8c8d6978814003addb65d07c004850d07f8bd7cfdffffff020000000000000000306a2efc57d58437f3c3f93cbaba7f972709d69a8a72cfae216aa04479f0838bcfa929f0994e9606eebba4cabea11733a71fb40000000000001976a9142f20795928713d99b0b353fa37e40da6f6f4e8e888ac00000000", "vin": [{"sequence": 4294967293, "scriptSig": {"hex": "483045022100cd26f7c913a57bdb413651251cd7c221ee6447a20adc3e6032b2764e013626b20220305d5b1570e6604c2670341a534091bdb9c971ffc4092007cf09047698f1a6c4012103b93a3a56bc3197ebac7ee19dd8c8d6978814003addb65d07c004850d07f8bd7c", "asm": "3045022100cd26f7c913a57bdb413651251cd7c221ee6447a20adc3e6032b2764e013626b20220305d5b1570e6604c2670341a534091bdb9c971ffc4092007cf09047698f1a6c4[ALL] 03b93a3a56bc3197ebac7ee19dd8c8d6978814003addb65d07c004850d07f8bd7c"}, "vout": 1, "txid": "51f7bc1b92cb63674eb29d94477568dbd5c2adf740cd37c3816f117cd02061a5"}], "txid": "d58589d541273fab7d229db6eda888b2e7c416682a4a0b0c3d4c8cec5d327498", "blocktime": 1537871767, "version": 1, "confirmations": 11490, "time": 1537871767, "locktime": 0, "vsize": 249, "size": 249}