{"hash": "d58595faf948ecd5eab1620d23ec733034fe0f9b7fe606aef56a1eb108fd6574", "blockhash": "00000000000000000004ffacab907a6b429b9a5745fa0b75af4234bf69dd7176", "vout": [{"scriptPubKey": {"reqSigs": 1, "hex": "a91406c89b9f7998cd080087a97ce6876954c8d723f287", "addresses": ["32JtJBAmnHyLJPg8gy66ozYd6ZVzuJKghp"], "asm": "OP_HASH160 06c89b9f7998cd080087a97ce6876954c8d723f2 OP_EQUAL", "type": "scripthash"}, "value": 0.17659636, "n": 0}], "hex": "01000000018c8f720b668bfb51ec4083b33514a3e0304126874c4c8ca071a9185548c44c58000000006b483045022100806327945bf3f92badfd66c752b9c3ead2a65f1d11ca8531ffce5dab779e1743022000c5ed3272a622fcf800a1315b66067a1e5d94061a40a47bae1d5358ea1cc1f201210301bf60b38a51eecaf14ed1783d6de633d7d2a271191890ae6282a5f6be8a0cd5ffffffff01f4760d010000000017a91406c89b9f7998cd080087a97ce6876954c8d723f28700000000", "vin": [{"sequence": 4294967295, "scriptSig": {"hex": "483045022100806327945bf3f92badfd66c752b9c3ead2a65f1d11ca8531ffce5dab779e1743022000c5ed3272a622fcf800a1315b66067a1e5d94061a40a47bae1d5358ea1cc1f201210301bf60b38a51eecaf14ed1783d6de633d7d2a271191890ae6282a5f6be8a0cd5", "asm": "3045022100806327945bf3f92badfd66c752b9c3ead2a65f1d11ca8531ffce5dab779e1743022000c5ed3272a622fcf800a1315b66067a1e5d94061a40a47bae1d5358ea1cc1f2[ALL] 0301bf60b38a51eecaf14ed1783d6de633d7d2a271191890ae6282a5f6be8a0cd5"}, "vout": 0, "txid": "584cc4485518a971a08c4c4c87264130e0a31435b38340ec51fb8b660b728f8c"}], "txid": "d58595faf948ecd5eab1620d23ec733034fe0f9b7fe606aef56a1eb108fd6574", "blocktime": 1537875543, "version": 1, "confirmations": 11464, "time": 1537875543, "locktime": 0, "vsize": 190, "size": 190}