{"hash": "d58ac1d219f431615c0ff102da9f13fc4b28978780801e2ded09e4fdcd339b72", "blockhash": "00000000000000000004ffacab907a6b429b9a5745fa0b75af4234bf69dd7176", "vout": [{"scriptPubKey": {"reqSigs": 1, "hex": "a914ba2bcff9a21d3213adf4523cee06c3d25c8584c787", "addresses": ["3JfQ6N2VZm2qbFcLciKc1j7GwTYKjnuBFU"], "asm": "OP_HASH160 ba2bcff9a21d3213adf4523cee06c3d25c8584c7 OP_EQUAL", "type": "scripthash"}, "value": 0.0036, "n": 0}, {"scriptPubKey": {"reqSigs": 1, "hex": "76a914ad5d6851df9eed584d9d57308313b5b65bd3f46988ac", "addresses": ["1GofoFhkJKC3zMe4orQLAt8EVZiSGabzfh"], "asm": "OP_DUP OP_HASH160 ad5d6851df9eed584d9d57308313b5b65bd3f469 OP_EQUALVERIFY OP_CHECKSIG", "type": "pubkeyhash"}, "value": 0.00376098, "n": 1}], "hex": "0100000001d74b21bcb4b7c55ab660cfecf155cfae098ba22384058b6fbcecba59606794b5010000006b48304502210093791580ff32b5574c4db513eecfb18766d12d240c4b475ae2d11f104dccbc630220309124bce6d3497770ca4a3b7795c1c63e8a367f1280f92775e79a244e8341990121027c891eb39e6db62672f2b1369ad002ffd3a3e5fc63cca5eeede2833532c5058fffffffff02407e05000000000017a914ba2bcff9a21d3213adf4523cee06c3d25c8584c78722bd0500000000001976a914ad5d6851df9eed584d9d57308313b5b65bd3f46988ac00000000", "vin": [{"sequence": 4294967295, "scriptSig": {"hex": "48304502210093791580ff32b5574c4db513eecfb18766d12d240c4b475ae2d11f104dccbc630220309124bce6d3497770ca4a3b7795c1c63e8a367f1280f92775e79a244e8341990121027c891eb39e6db62672f2b1369ad002ffd3a3e5fc63cca5eeede2833532c5058f", "asm": "304502210093791580ff32b5574c4db513eecfb18766d12d240c4b475ae2d11f104dccbc630220309124bce6d3497770ca4a3b7795c1c63e8a367f1280f92775e79a244e834199[ALL] 027c891eb39e6db62672f2b1369ad002ffd3a3e5fc63cca5eeede2833532c5058f"}, "vout": 1, "txid": "b594676059baecbc6f8b058423a28b09aecf55f1eccf60b65ac5b7b4bc214bd7"}], "txid": "d58ac1d219f431615c0ff102da9f13fc4b28978780801e2ded09e4fdcd339b72", "blocktime": 1537875543, "version": 1, "confirmations": 11464, "time": 1537875543, "locktime": 0, "vsize": 224, "size": 224}