{"hash": "b0ccfbc6cf0fa8de8e111e6d18343e16b759ca0a391fe723e705f54151f08315", "blockhash": "0000000000000000000e13cef7c366c0283d82e591d1acd082e914b08063cdf1", "vout": [{"scriptPubKey": {"reqSigs": 1, "hex": "a9146f6176ca9adfb642159dac60363c811452cd18f187", "addresses": ["3BqwgkpjYTwKPr4ExAW2sDmboGHiV8gqpm"], "asm": "OP_HASH160 6f6176ca9adfb642159dac60363c811452cd18f1 OP_EQUAL", "type": "scripthash"}, "value": 0.01006859, "n": 0}], "hex": "010000000001013f8a669f57f3bf674c93a21c7c89c8865ea41d6858d736d7dd52aeeb5681c6c3a9000000232200205a688db3deeae312b5b8d0e1e0c17d9744bf359efa9d52655a834bbcbe16801ffeffffff010b5d0f000000000017a9146f6176ca9adfb642159dac60363c811452cd18f18704004830450221009d009332bf4db42dd6deeafd746fc9cff598ea9156da1f9bc2705abec97199b7022051b34ba79852c4e359dd50836be292087a68a7c6fbc28aaf5274657cdf84cce801483045022100d7c71662c8ef015ea21e09405e53bfc98c3a9d32d287c1d08c1716e23ac94e97022040c95620401d7a0c069175191bfbe434389824068de4327868eb561161e817dd014752210291eb6349c629dcd73b044bc3064de670ae40554dd3e189ed08db9da56120879c2103605dbba920d9ca33c356c3d1d75c1e46e59df09181249a96037c953ba5850bcc52ae0f490800", "vin": [{"txinwitness": ["", "30450221009d009332bf4db42dd6deeafd746fc9cff598ea9156da1f9bc2705abec97199b7022051b34ba79852c4e359dd50836be292087a68a7c6fbc28aaf5274657cdf84cce801", "3045022100d7c71662c8ef015ea21e09405e53bfc98c3a9d32d287c1d08c1716e23ac94e97022040c95620401d7a0c069175191bfbe434389824068de4327868eb561161e817dd01", "52210291eb6349c629dcd73b044bc3064de670ae40554dd3e189ed08db9da56120879c2103605dbba920d9ca33c356c3d1d75c1e46e59df09181249a96037c953ba5850bcc52ae"], "sequence": 4294967294, "scriptSig": {"hex": "2200205a688db3deeae312b5b8d0e1e0c17d9744bf359efa9d52655a834bbcbe16801f", "asm": "00205a688db3deeae312b5b8d0e1e0c17d9744bf359efa9d52655a834bbcbe16801f"}, "vout": 169, "txid": "c3c68156ebae52ddd736d758681da45e86c8897c1ca2934c67bff3579f668a3f"}], "txid": "d58be95cb1c8ff1f3b4a3fffb672f5fa7fcb4d5dcc88ae693e887a9eb75034f7", "blocktime": 1537871767, "version": 1, "confirmations": 11495, "time": 1537871767, "locktime": 542991, "vsize": 174, "size": 340}