{"hash": "d58c7999672c56ef36ed94761e372320cf20a43e835c589564e62156c199984a", "blockhash": "0000000000000000000baef3f32e3676a92c3b2e5da21b426e4f302fc371ce76", "vout": [{"scriptPubKey": {"reqSigs": 1, "hex": "76a914a0b7abada5590ab0c6f16df4c5549c32140cba6e88ac", "addresses": ["1Feo9MNJJDLbWy8wUq7ccDSQfGJnqFJngK"], "asm": "OP_DUP OP_HASH160 a0b7abada5590ab0c6f16df4c5549c32140cba6e OP_EQUALVERIFY OP_CHECKSIG", "type": "pubkeyhash"}, "value": 10.75490903, "n": 0}], "hex": "01000000055bd1fa4dcf018b31c9334a0427d8d26dec8ef29017add315f25765e98ece9951000000006a473044022058a49c28ef8c085a92d2b77c3abc947fb66d4aec82e43b8041b842950e89996502204c6f3b6d4e25ca6875d374e24df31c2a07ec05217edfe5107dc7dd857c20ca350121026510b9a62b7d16ceb7e49ebe99eb5d5bdf60b09d7002855a1bddfe39d4a2f8f8ffffffff879d644618c744854f4e762a9e76cbb7e840f25a4efa750c02d77542bd479f9a000000006a4730440220079fd5f4049e8f8755b3e688162362b715b0e07ce4f194dc48df1f1e67c7d8d502204993d8eb3b0584aec3c95631a896488af278006c445a4fff59fe7f114a0195cc012103d453b3978994719c806113e2e240e8e89c144d135bfc95b7124fd334ff722604ffffffff4c178f74804b95336258ff8ecf6ec6af7299c298e36944b88bfcc58fc78939c4000000006b48304502210098bfdd5be80b8ecc1cf5eb59f01cc4baf1012348351049ca75fdd847f2c8d2f002204849882f9893de7cbccdb53d7dea672c0122415b0b1a8699cc794adefa40a3ec012103f5c103cb3bc1c7d8079d2ca9c39ee1f2048e6ae609cbac329a96404e612bb4aeffffffff3fc40c7cc776989b1bbeb0d77023670316e618ede86818778896ff43169af4e9000000006b483045022100a6f66bb17e35bf9fea431d47c232077300f00561751bc5de8ee6130feb9a6178022042c97c701e91e5fbd723b3b11568e25c30c43fc517482632200087cd5b49773b0121022e9ca0300b1b993e3c6f95f78587792754f178cc590bba0f6c4c2f2760580dc2ffffffff3b41e4acf4c700196315e61b63658167b4b40e9ba6a262e01e19de84d4f5b0fa000000006a47304402203a8ccaa42ffd33a31c0a3b5ab7b78fe3a9bca9a651325f7f1b4ac00e7067d4d3022040cd1f5c3892af69b67c31c65563a4decd5ef919f79a01b94d657ee94b114a15012103246014f2820d1509b363b75865109d75247df54f24571ca0000b53ed4c4635edffffffff0157b01a40000000001976a914a0b7abada5590ab0c6f16df4c5549c32140cba6e88ac00000000", "vin": [{"sequence": 4294967295, "scriptSig": {"hex": "473044022058a49c28ef8c085a92d2b77c3abc947fb66d4aec82e43b8041b842950e89996502204c6f3b6d4e25ca6875d374e24df31c2a07ec05217edfe5107dc7dd857c20ca350121026510b9a62b7d16ceb7e49ebe99eb5d5bdf60b09d7002855a1bddfe39d4a2f8f8", "asm": "3044022058a49c28ef8c085a92d2b77c3abc947fb66d4aec82e43b8041b842950e89996502204c6f3b6d4e25ca6875d374e24df31c2a07ec05217edfe5107dc7dd857c20ca35[ALL] 026510b9a62b7d16ceb7e49ebe99eb5d5bdf60b09d7002855a1bddfe39d4a2f8f8"}, "vout": 0, "txid": "5199ce8ee96557f215d3ad1790f28eec6dd2d827044a33c9318b01cf4dfad15b"}, {"sequence": 4294967295, "scriptSig": {"hex": "4730440220079fd5f4049e8f8755b3e688162362b715b0e07ce4f194dc48df1f1e67c7d8d502204993d8eb3b0584aec3c95631a896488af278006c445a4fff59fe7f114a0195cc012103d453b3978994719c806113e2e240e8e89c144d135bfc95b7124fd334ff722604", "asm": "30440220079fd5f4049e8f8755b3e688162362b715b0e07ce4f194dc48df1f1e67c7d8d502204993d8eb3b0584aec3c95631a896488af278006c445a4fff59fe7f114a0195cc[ALL] 03d453b3978994719c806113e2e240e8e89c144d135bfc95b7124fd334ff722604"}, "vout": 0, "txid": "9a9f47bd4275d7020c75fa4e5af240e8b7cb769e2a764e4f8544c71846649d87"}, {"sequence": 4294967295, "scriptSig": {"hex": "48304502210098bfdd5be80b8ecc1cf5eb59f01cc4baf1012348351049ca75fdd847f2c8d2f002204849882f9893de7cbccdb53d7dea672c0122415b0b1a8699cc794adefa40a3ec012103f5c103cb3bc1c7d8079d2ca9c39ee1f2048e6ae609cbac329a96404e612bb4ae", "asm": "304502210098bfdd5be80b8ecc1cf5eb59f01cc4baf1012348351049ca75fdd847f2c8d2f002204849882f9893de7cbccdb53d7dea672c0122415b0b1a8699cc794adefa40a3ec[ALL] 03f5c103cb3bc1c7d8079d2ca9c39ee1f2048e6ae609cbac329a96404e612bb4ae"}, "vout": 0, "txid": "c43989c78fc5fc8bb84469e398c29972afc66ecf8eff586233954b80748f174c"}, {"sequence": 4294967295, "scriptSig": {"hex": "483045022100a6f66bb17e35bf9fea431d47c232077300f00561751bc5de8ee6130feb9a6178022042c97c701e91e5fbd723b3b11568e25c30c43fc517482632200087cd5b49773b0121022e9ca0300b1b993e3c6f95f78587792754f178cc590bba0f6c4c2f2760580dc2", "asm": "3045022100a6f66bb17e35bf9fea431d47c232077300f00561751bc5de8ee6130feb9a6178022042c97c701e91e5fbd723b3b11568e25c30c43fc517482632200087cd5b49773b[ALL] 022e9ca0300b1b993e3c6f95f78587792754f178cc590bba0f6c4c2f2760580dc2"}, "vout": 0, "txid": "e9f49a1643ff9688771868e8ed18e61603672370d7b0be1b9b9876c77c0cc43f"}, {"sequence": 4294967295, "scriptSig": {"hex": "47304402203a8ccaa42ffd33a31c0a3b5ab7b78fe3a9bca9a651325f7f1b4ac00e7067d4d3022040cd1f5c3892af69b67c31c65563a4decd5ef919f79a01b94d657ee94b114a15012103246014f2820d1509b363b75865109d75247df54f24571ca0000b53ed4c4635ed", "asm": "304402203a8ccaa42ffd33a31c0a3b5ab7b78fe3a9bca9a651325f7f1b4ac00e7067d4d3022040cd1f5c3892af69b67c31c65563a4decd5ef919f79a01b94d657ee94b114a15[ALL] 03246014f2820d1509b363b75865109d75247df54f24571ca0000b53ed4c4635ed"}, "vout": 0, "txid": "fab0f5d484de191ee062a2a69b0eb4b4678165631be615631900c7f4ace4413b"}], "txid": "d58c7999672c56ef36ed94761e372320cf20a43e835c589564e62156c199984a", "blocktime": 1537876114, "version": 1, "confirmations": 11460, "time": 1537876114, "locktime": 0, "vsize": 781, "size": 781}