{"hash": "d591ca6dff932a736b16727838018817b7077f3487f64eba481a87cdba5a82d7", "blockhash": "00000000000000000004ffacab907a6b429b9a5745fa0b75af4234bf69dd7176", "vout": [{"scriptPubKey": {"reqSigs": 1, "hex": "76a9145c81e6121a001869df0058a4643f7c1b3ddb47a288ac", "addresses": ["19S8nApNh2diq7v9Nm41ikZki27rJj7Y9T"], "asm": "OP_DUP OP_HASH160 5c81e6121a001869df0058a4643f7c1b3ddb47a2 OP_EQUALVERIFY OP_CHECKSIG", "type": "pubkeyhash"}, "value": 0.006, "n": 0}, {"scriptPubKey": {"reqSigs": 1, "hex": "76a91476ef0177dcc305418fd80cce679117b310a22fde88ac", "addresses": ["1Bqs43eQPQXAYc8BbtyBxDWimaL4C5tUsD"], "asm": "OP_DUP OP_HASH160 76ef0177dcc305418fd80cce679117b310a22fde OP_EQUALVERIFY OP_CHECKSIG", "type": "pubkeyhash"}, "value": 0.00418423, "n": 1}], "hex": "01000000012d7d21d9dbd3baf0b9559d84419b12f9a3f44bc83739a48c977ccf9a8d5a6e4d3e0000006a473044022067fc773c0e5f6c1caa8b06eb2ad3e2785d592493253f1d065c0ba23c065d0dc4022068ca5fb69db7791cba5261a45836171f03f1f4277c47138a77e48c28d393f8660121035ac66f9474f4ebd4c77f971bd29790a4549a824bbb904e441e2c0b7eb6efdfb9ffffffff02c0270900000000001976a9145c81e6121a001869df0058a4643f7c1b3ddb47a288ac77620600000000001976a91476ef0177dcc305418fd80cce679117b310a22fde88ac00000000", "vin": [{"sequence": 4294967295, "scriptSig": {"hex": "473044022067fc773c0e5f6c1caa8b06eb2ad3e2785d592493253f1d065c0ba23c065d0dc4022068ca5fb69db7791cba5261a45836171f03f1f4277c47138a77e48c28d393f8660121035ac66f9474f4ebd4c77f971bd29790a4549a824bbb904e441e2c0b7eb6efdfb9", "asm": "3044022067fc773c0e5f6c1caa8b06eb2ad3e2785d592493253f1d065c0ba23c065d0dc4022068ca5fb69db7791cba5261a45836171f03f1f4277c47138a77e48c28d393f866[ALL] 035ac66f9474f4ebd4c77f971bd29790a4549a824bbb904e441e2c0b7eb6efdfb9"}, "vout": 62, "txid": "4d6e5a8d9acf7c978ca43937c84bf4a3f9129b41849d55b9f0bad3dbd9217d2d"}], "txid": "d591ca6dff932a736b16727838018817b7077f3487f64eba481a87cdba5a82d7", "blocktime": 1537875543, "version": 1, "confirmations": 11464, "time": 1537875543, "locktime": 0, "vsize": 225, "size": 225}