{"hash": "7c8ffd0e484d89e51ba69d2cfdb583702d4099dade9e00258753221fa263c5fa", "blockhash": "000000000000000000022b45ed06c6f4ccd3cf7fb5ba4856ebd2e58215665228", "vout": [{"scriptPubKey": {"reqSigs": 1, "hex": "76a914901ed51538ed5875a1be9c24ed2580ce85c38fa488ac", "addresses": ["1E93Etock6LEkSgkyQTNAdNqeZap8AFEfg"], "asm": "OP_DUP OP_HASH160 901ed51538ed5875a1be9c24ed2580ce85c38fa4 OP_EQUALVERIFY OP_CHECKSIG", "type": "pubkeyhash"}, "value": 0.00104423, "n": 0}, {"scriptPubKey": {"reqSigs": 1, "hex": "a9149649ad6d2730bb28020a268d9d80df10a9f74ad487", "addresses": ["3FPfYWwfMfKMGY7fuPHvz2b73RhTNGzsm3"], "asm": "OP_HASH160 9649ad6d2730bb28020a268d9d80df10a9f74ad4 OP_EQUAL", "type": "scripthash"}, "value": 13.98507579, "n": 1}], "hex": "01000000000101f38d5184190dc166a6bf66e49df24c8aa389ed17e7d173610e7f1719aec0d38501000000232200207768efcc1e5eb3d28410fac3f45831004c860cc24cddd940a616b34324823fceffffffff02e7970100000000001976a914901ed51538ed5875a1be9c24ed2580ce85c38fa488ac3b885b530000000017a9149649ad6d2730bb28020a268d9d80df10a9f74ad4870400483045022100818aa68dd28b728396c55ae8b0384c51952d48ffa41fb19bc802b1650232eb3e0220503a8a0495f59a12c1c11fa5b08e489d9f9cefb95b61bf8287247f7deae3eeba01473044022010811b5f1f642b46e62d58ce0948b09968d4034c50d9d6a061bd251f2a781795022003d512a9667eb872545684d00f5cc9b6cee4f21780c554b763ea374c37843c440147522102529d5d1f6733ab45d9d50e07db42c7f6b967ae321c38b726c2247f149959b8262103d0c936a5988dd8421c63240496b723b0ec42400c38b9350e32c2eb4f47d8796952ae00000000", "vin": [{"txinwitness": ["", "3045022100818aa68dd28b728396c55ae8b0384c51952d48ffa41fb19bc802b1650232eb3e0220503a8a0495f59a12c1c11fa5b08e489d9f9cefb95b61bf8287247f7deae3eeba01", "3044022010811b5f1f642b46e62d58ce0948b09968d4034c50d9d6a061bd251f2a781795022003d512a9667eb872545684d00f5cc9b6cee4f21780c554b763ea374c37843c4401", "522102529d5d1f6733ab45d9d50e07db42c7f6b967ae321c38b726c2247f149959b8262103d0c936a5988dd8421c63240496b723b0ec42400c38b9350e32c2eb4f47d8796952ae"], "sequence": 4294967295, "scriptSig": {"hex": "2200207768efcc1e5eb3d28410fac3f45831004c860cc24cddd940a616b34324823fce", "asm": "00207768efcc1e5eb3d28410fac3f45831004c860cc24cddd940a616b34324823fce"}, "vout": 1, "txid": "85d3c0ae19177f0e6173d1e717ed89a38a4cf29de466bfa666c10d1984518df3"}], "txid": "d593ce2f5f9b05227cd6f32b91499d847c36ab91db9518c0b8f38fe864172601", "blocktime": 1537869901, "version": 1, "confirmations": 11524, "time": 1537869901, "locktime": 0, "vsize": 208, "size": 373}