{"hash": "927499ec980521dce88d2e9a3b864297e4e14915ba043798035d9f7b6c6040c0", "blockhash": "0000000000000000001f76057863aec43deb6fa401d9628bb513d65a8098bfab", "vout": [{"scriptPubKey": {"reqSigs": 1, "hex": "a91475b502c6e729e9e603045dabb1b1019340255cbe87", "addresses": ["3CRPpqo2f4PUSWzWabVGnCa1Q5tooEmfDJ"], "asm": "OP_HASH160 75b502c6e729e9e603045dabb1b1019340255cbe OP_EQUAL", "type": "scripthash"}, "value": 0.00031904, "n": 0}, {"scriptPubKey": {"reqSigs": 1, "hex": "a9149a05d916f1543cf732feefdb88624f94824f623f87", "addresses": ["3FjQzQs2uz8A3usPEZQpN5Lf1zKtcNhbWg"], "asm": "OP_HASH160 9a05d916f1543cf732feefdb88624f94824f623f OP_EQUAL", "type": "scripthash"}, "value": 7.478e-05, "n": 1}], "hex": "01000000000101de74780c382533b78d349218c4a8f0df7599fede11a8f56593334162dc2adaa001000000232200205f9a240d4ab0304b5904ae56502c235728b35fd4efebf53df5fabe0c51836bc5ffffffff02a07c00000000000017a91475b502c6e729e9e603045dabb1b1019340255cbe87361d00000000000017a9149a05d916f1543cf732feefdb88624f94824f623f870400483045022100903f2c27e5d917a26f979c276962728af97cbad8f69e897629e704f82282aec002205b5fc007c38eebc2a108b273c0457f0dd0d2219a9a272e9afd3e5671c976e1b601483045022100ffe63b608308faf695506f8b367752ccf7d2137a0aee12228be9be7e6f484d82022078516f13d25c1c4855574e2e2aab622cd05ab8869c1289f9306ceadbf930c2d10147522103568e809f03460e9f0365d629e7337915989078ee4be599065c331ce262a3f5892102d8cbd56fe56ed46b7d86e915d643e8519cf5f3c693f8be00c1dd5ac66394422e52ae00000000", "vin": [{"txinwitness": ["", "3045022100903f2c27e5d917a26f979c276962728af97cbad8f69e897629e704f82282aec002205b5fc007c38eebc2a108b273c0457f0dd0d2219a9a272e9afd3e5671c976e1b601", "3045022100ffe63b608308faf695506f8b367752ccf7d2137a0aee12228be9be7e6f484d82022078516f13d25c1c4855574e2e2aab622cd05ab8869c1289f9306ceadbf930c2d101", "522103568e809f03460e9f0365d629e7337915989078ee4be599065c331ce262a3f5892102d8cbd56fe56ed46b7d86e915d643e8519cf5f3c693f8be00c1dd5ac66394422e52ae"], "sequence": 4294967295, "scriptSig": {"hex": "2200205f9a240d4ab0304b5904ae56502c235728b35fd4efebf53df5fabe0c51836bc5", "asm": "00205f9a240d4ab0304b5904ae56502c235728b35fd4efebf53df5fabe0c51836bc5"}, "vout": 1, "txid": "a0da2adc6241339365f5a811defe9975dff0a8c41892348db73325380c7874de"}], "txid": "d59c0a6df8ddc2076658790b932e1330fdbf398ab4e44922276892d437429daf", "blocktime": 1537873891, "version": 1, "confirmations": 11478, "time": 1537873891, "locktime": 0, "vsize": 206, "size": 372}