{"hash": "d59c1d426665fe650e3ec1af2c468c02a2644f591ca8c65730461160c6f9181f", "blockhash": "00000000000000000017f5eb5941039fbcee6240d03bc1f2f8e35350df66a1d8", "vout": [{"scriptPubKey": {"reqSigs": 1, "hex": "a914baa5115cbb823ed1dcc397a715561d06b221b8a487", "addresses": ["3JhuMLXbdc62cnUKtKesttpiuXDmyg6ZcM"], "asm": "OP_HASH160 baa5115cbb823ed1dcc397a715561d06b221b8a4 OP_EQUAL", "type": "scripthash"}, "value": 0.003142, "n": 0}, {"scriptPubKey": {"reqSigs": 1, "hex": "76a914d8dc9e364249622f2c2a14f1608ce70b24e092a588ac", "addresses": ["1LmfFF9C8YQZotEYFg9VHCmmTpshXzs7Cr"], "asm": "OP_DUP OP_HASH160 d8dc9e364249622f2c2a14f1608ce70b24e092a5 OP_EQUALVERIFY OP_CHECKSIG", "type": "pubkeyhash"}, "value": 0.00323373, "n": 1}], "hex": "01000000011c42ae2f5fb025d2f0a0e2a11b424a7f4ddc5f46b2e84bb15abc837a9f4768fc000000006b483045022100b098675a3323744f7222152a2292c1f78402fb58320d749bb0b2ae9a901113c6022042823219c287eec3318126525850e02838188a6a843c4877e37426eb7191032f01210304a9a7d37645d040482351c809bc5b52622bd5247767bd0915c69b7772c6073dffffffff0258cb04000000000017a914baa5115cbb823ed1dcc397a715561d06b221b8a4872def0400000000001976a914d8dc9e364249622f2c2a14f1608ce70b24e092a588ac00000000", "vin": [{"sequence": 4294967295, "scriptSig": {"hex": "483045022100b098675a3323744f7222152a2292c1f78402fb58320d749bb0b2ae9a901113c6022042823219c287eec3318126525850e02838188a6a843c4877e37426eb7191032f01210304a9a7d37645d040482351c809bc5b52622bd5247767bd0915c69b7772c6073d", "asm": "3045022100b098675a3323744f7222152a2292c1f78402fb58320d749bb0b2ae9a901113c6022042823219c287eec3318126525850e02838188a6a843c4877e37426eb7191032f[ALL] 0304a9a7d37645d040482351c809bc5b52622bd5247767bd0915c69b7772c6073d"}, "vout": 0, "txid": "fc68479f7a83bc5ab14be8b2465fdc4d7f4a421ba1e2a0f0d225b05f2fae421c"}], "txid": "d59c1d426665fe650e3ec1af2c468c02a2644f591ca8c65730461160c6f9181f", "blocktime": 1537874412, "version": 1, "confirmations": 11467, "time": 1537874412, "locktime": 0, "vsize": 224, "size": 224}