{"hash": "5a61de11ff152bc8531055e10c08ddf0ff4c391b3936e31a2c313c2b917f8507", "blockhash": "0000000000000000000e13cef7c366c0283d82e591d1acd082e914b08063cdf1", "vout": [{"scriptPubKey": {"reqSigs": 1, "hex": "76a9144b0164ce422085ef44b8003fd0457b5c66b27aea88ac", "addresses": ["17qbMEEvFJ4TJQP8SPtE9Bwm81FZvxfB5Z"], "asm": "OP_DUP OP_HASH160 4b0164ce422085ef44b8003fd0457b5c66b27aea OP_EQUALVERIFY OP_CHECKSIG", "type": "pubkeyhash"}, "value": 0.10101352, "n": 0}, {"scriptPubKey": {"reqSigs": 1, "hex": "76a914419d2557ea353153e486d8a33554ef4f89c230a088ac", "addresses": ["16ywBA2YbWNzXQRV9cMnzSe12uWH8RQyGb"], "asm": "OP_DUP OP_HASH160 419d2557ea353153e486d8a33554ef4f89c230a0 OP_EQUALVERIFY OP_CHECKSIG", "type": "pubkeyhash"}, "value": 0.00120603, "n": 1}, {"scriptPubKey": {"reqSigs": 1, "hex": "a9149bab3d95e8133b2149c27ecec27756f6a5745da787", "addresses": ["3Ft7oHEk7Fz8vYVd7zsaQjK2m5LrUvgLVy"], "asm": "OP_HASH160 9bab3d95e8133b2149c27ecec27756f6a5745da7 OP_EQUAL", "type": "scripthash"}, "value": 0.72962976, "n": 2}, {"scriptPubKey": {"reqSigs": 1, "hex": "76a9149c8c06caa379744c4e2f27efc9af53f73d6bfde688ac", "addresses": ["1FGkA95suvfJgAmiJahbVMh5nD61oeRRqZ"], "asm": "OP_DUP OP_HASH160 9c8c06caa379744c4e2f27efc9af53f73d6bfde6 OP_EQUALVERIFY OP_CHECKSIG", "type": "pubkeyhash"}, "value": 0.02692869, "n": 3}], "hex": "0200000000010133c1cac681caacdef1dd861ca472b5557da226574606e7163c14b33783bc81ee0000000017160014e6746e0867f03064d97ac58c4addd852aeabb913feffffff0468229a00000000001976a9144b0164ce422085ef44b8003fd0457b5c66b27aea88ac1bd70100000000001976a914419d2557ea353153e486d8a33554ef4f89c230a088aca05359040000000017a9149bab3d95e8133b2149c27ecec27756f6a5745da78705172900000000001976a9149c8c06caa379744c4e2f27efc9af53f73d6bfde688ac0247304402206c7693949e93212b6583c10ab925fcd2d18ff59b87d1d0bcdab32151d90e99a4022056bde37349f838da3eab68bdb419a907f82b8810750fc357915187b9bde27dd201210239c4e68325c7498f80e3572723ba09260f29440854685635045812892ad43dbf10490800", "vin": [{"txinwitness": ["304402206c7693949e93212b6583c10ab925fcd2d18ff59b87d1d0bcdab32151d90e99a4022056bde37349f838da3eab68bdb419a907f82b8810750fc357915187b9bde27dd201", "0239c4e68325c7498f80e3572723ba09260f29440854685635045812892ad43dbf"], "sequence": 4294967294, "scriptSig": {"hex": "160014e6746e0867f03064d97ac58c4addd852aeabb913", "asm": "0014e6746e0867f03064d97ac58c4addd852aeabb913"}, "vout": 0, "txid": "ee81bc8337b3143c16e706465726a27d55b572a41c86ddf1deacca81c6cac133"}], "txid": "d59e41618ef2e6a240da559c4297e36e79ea47957758f01e645e6ea8001d38d1", "blocktime": 1537871767, "version": 2, "confirmations": 11492, "time": 1537871767, "locktime": 542992, "vsize": 236, "size": 317}