{"hash": "d5a185a73992b5af021d3cae19dd7bd9b5c2c75999d4ecf64d2853743721bc87", "blockhash": "00000000000000000017f5eb5941039fbcee6240d03bc1f2f8e35350df66a1d8", "vout": [{"scriptPubKey": {"reqSigs": 1, "hex": "76a9142919468b0b622e9b9f16fc5fd3ce4df9c2ad8b5588ac", "addresses": ["14kJz3RECvpWxA4ZMK2wtKuWYJQadT4XUJ"], "asm": "OP_DUP OP_HASH160 2919468b0b622e9b9f16fc5fd3ce4df9c2ad8b55 OP_EQUALVERIFY OP_CHECKSIG", "type": "pubkeyhash"}, "value": 1.478e-05, "n": 0}, {"scriptPubKey": {"reqSigs": 1, "hex": "a91435a9a57558948119653ea3caff870cf6b71a09f287", "addresses": ["36akxwhMzY3oYnpiTP5YizrVUx3Wt4gaAt"], "asm": "OP_HASH160 35a9a57558948119653ea3caff870cf6b71a09f2 OP_EQUAL", "type": "scripthash"}, "value": 0.00295409, "n": 1}], "hex": "010000000305071df6b49a8cdff9e46a37dfa8befab082dffd5e050bc7c4cb7c2536eaac2f000000006b483045022100ed3d795aebab1b7973f46e5ac5e666aa3174f8ae9e81f6f70b9f7a72234d77c6022076584d63f7dd1d8b506fd57a67039fedc8ec6c22b7c47b219fc0573ebd5246060121026ea000224b36dc3500ab86eb6993c963efbe31b7e37e689709b86bd263e5a988ffffffff4933dea3fd03ed58a38b4a114b1b9e84053e7b1a76982916701d8205305276c9000000006a473044022020e34e5aa99675c3ae726336ca2133b89b781ef85f926da14f6d2cba79fbf4ba02204fb905a1e85a27b271a90493ab96be7d9ac5266ebb9f60902b82e4f3f46536e4012102d763bf0710fd7f64e193f635f94958c5c828bad622b696a2f0adf7c48f8639ceffffffff7fb18c2a6485640069dd7ebed1128c843fd60b0f3f29eaa20f91c0e2e80628d0010000006a473044022026441273362bd632042d416d7b0bb036702cc89a53f9c8f24330ab73602aaadf02200e8fde68f64097626e4bc91edf3310ddaf048a8204cf8459a63949beac27b84a012102d4db403a5f7ece7a7d680c6e331ba997d4919953c4eca7bbfe83f0cbb090c051ffffffff02c6050000000000001976a9142919468b0b622e9b9f16fc5fd3ce4df9c2ad8b5588acf18104000000000017a91435a9a57558948119653ea3caff870cf6b71a09f28700000000", "vin": [{"sequence": 4294967295, "scriptSig": {"hex": "483045022100ed3d795aebab1b7973f46e5ac5e666aa3174f8ae9e81f6f70b9f7a72234d77c6022076584d63f7dd1d8b506fd57a67039fedc8ec6c22b7c47b219fc0573ebd5246060121026ea000224b36dc3500ab86eb6993c963efbe31b7e37e689709b86bd263e5a988", "asm": "3045022100ed3d795aebab1b7973f46e5ac5e666aa3174f8ae9e81f6f70b9f7a72234d77c6022076584d63f7dd1d8b506fd57a67039fedc8ec6c22b7c47b219fc0573ebd524606[ALL] 026ea000224b36dc3500ab86eb6993c963efbe31b7e37e689709b86bd263e5a988"}, "vout": 0, "txid": "2facea36257ccbc4c70b055efddf82b0fabea8df376ae4f9df8c9ab4f61d0705"}, {"sequence": 4294967295, "scriptSig": {"hex": "473044022020e34e5aa99675c3ae726336ca2133b89b781ef85f926da14f6d2cba79fbf4ba02204fb905a1e85a27b271a90493ab96be7d9ac5266ebb9f60902b82e4f3f46536e4012102d763bf0710fd7f64e193f635f94958c5c828bad622b696a2f0adf7c48f8639ce", "asm": "3044022020e34e5aa99675c3ae726336ca2133b89b781ef85f926da14f6d2cba79fbf4ba02204fb905a1e85a27b271a90493ab96be7d9ac5266ebb9f60902b82e4f3f46536e4[ALL] 02d763bf0710fd7f64e193f635f94958c5c828bad622b696a2f0adf7c48f8639ce"}, "vout": 0, "txid": "c976523005821d70162998761a7b3e05849e1b4b114a8ba358ed03fda3de3349"}, {"sequence": 4294967295, "scriptSig": {"hex": "473044022026441273362bd632042d416d7b0bb036702cc89a53f9c8f24330ab73602aaadf02200e8fde68f64097626e4bc91edf3310ddaf048a8204cf8459a63949beac27b84a012102d4db403a5f7ece7a7d680c6e331ba997d4919953c4eca7bbfe83f0cbb090c051", "asm": "3044022026441273362bd632042d416d7b0bb036702cc89a53f9c8f24330ab73602aaadf02200e8fde68f64097626e4bc91edf3310ddaf048a8204cf8459a63949beac27b84a[ALL] 02d4db403a5f7ece7a7d680c6e331ba997d4919953c4eca7bbfe83f0cbb090c051"}, "vout": 1, "txid": "d02806e8e2c0910fa2ea293f0f0bd63f848c12d1be7edd69006485642a8cb17f"}], "txid": "d5a185a73992b5af021d3cae19dd7bd9b5c2c75999d4ecf64d2853743721bc87", "blocktime": 1537874412, "version": 1, "confirmations": 11467, "time": 1537874412, "locktime": 0, "vsize": 518, "size": 518}