{"hash": "d5a200a26053d63b2b66672fc1ed21989ef452c1fea7ddcbf7f28f975c74f24e", "blockhash": "00000000000000000024a2167bbff67b0be802c0b01cdd79e6331c2be6459f87", "vout": [{"scriptPubKey": {"reqSigs": 1, "hex": "76a91489918d457dad625205fc6c3f14225b2fc1e0251288ac", "addresses": ["1DYPwQCf2t94b77QEb1TbZz7anE8TyQikG"], "asm": "OP_DUP OP_HASH160 89918d457dad625205fc6c3f14225b2fc1e02512 OP_EQUALVERIFY OP_CHECKSIG", "type": "pubkeyhash"}, "value": 0.00280524, "n": 0}, {"scriptPubKey": {"reqSigs": 1, "hex": "76a9148ae6d899a46f6a6485ce22cc69b28c13b08571ac88ac", "addresses": ["1DfSnwYbeghE12xRV9DF5hui3omb8PsDkZ"], "asm": "OP_DUP OP_HASH160 8ae6d899a46f6a6485ce22cc69b28c13b08571ac OP_EQUALVERIFY OP_CHECKSIG", "type": "pubkeyhash"}, "value": 0.00027743, "n": 1}], "hex": "0200000001ea34ad367e0231e1a3e8988b54853d04c7264e900da6657a3fbf98c1aca7c23d0f0000006a4730440220400da2137657f29128a1bc1ad679bb90045d31062585baa1e8cf45bbe444013d02202dd62654dfda06d779d12bb41689e4b50a2b2886b7084f5cbaff582671111eb30121026326f8c3793ad2898952a2a8f115735e37e2889ae737cfbab1251cb14f04771affffffff02cc470400000000001976a91489918d457dad625205fc6c3f14225b2fc1e0251288ac5f6c0000000000001976a9148ae6d899a46f6a6485ce22cc69b28c13b08571ac88ac00000000", "vin": [{"sequence": 4294967295, "scriptSig": {"hex": "4730440220400da2137657f29128a1bc1ad679bb90045d31062585baa1e8cf45bbe444013d02202dd62654dfda06d779d12bb41689e4b50a2b2886b7084f5cbaff582671111eb30121026326f8c3793ad2898952a2a8f115735e37e2889ae737cfbab1251cb14f04771a", "asm": "30440220400da2137657f29128a1bc1ad679bb90045d31062585baa1e8cf45bbe444013d02202dd62654dfda06d779d12bb41689e4b50a2b2886b7084f5cbaff582671111eb3[ALL] 026326f8c3793ad2898952a2a8f115735e37e2889ae737cfbab1251cb14f04771a"}, "vout": 15, "txid": "3dc2a7acc198bf3f7a65a60d904e26c7043d85548b98e8a3e131027e36ad34ea"}], "txid": "d5a200a26053d63b2b66672fc1ed21989ef452c1fea7ddcbf7f28f975c74f24e", "blocktime": 1537870564, "version": 2, "confirmations": 11515, "time": 1537870564, "locktime": 0, "vsize": 225, "size": 225}