{"hash": "d5a2dc79e6077161c8c55d1fe9c7c88e13502b7a854f16af225edd8a94bd32b1", "blockhash": "0000000000000000000e13cef7c366c0283d82e591d1acd082e914b08063cdf1", "vout": [{"scriptPubKey": {"reqSigs": 1, "hex": "76a914669fcb6d069e21daae0b42a5c1f469560606c8d088ac", "addresses": ["1AMdMHxeEozHGsLaTp6byju3CikHc49VPz"], "asm": "OP_DUP OP_HASH160 669fcb6d069e21daae0b42a5c1f469560606c8d0 OP_EQUALVERIFY OP_CHECKSIG", "type": "pubkeyhash"}, "value": 0.0147948, "n": 0}, {"scriptPubKey": {"type": "nulldata", "hex": "6a4c50000077920001a0817281676d533cf647e040e3ef3236678a625097bcbefa6b8351586b4e2b5d7f7fe12a80b4161f8a251134e4055baa0c830614a9679223e896bc9a9526289ac0f6612cd74e33776ee4", "asm": "OP_RETURN 000077920001a0817281676d533cf647e040e3ef3236678a625097bcbefa6b8351586b4e2b5d7f7fe12a80b4161f8a251134e4055baa0c830614a9679223e896bc9a9526289ac0f6612cd74e33776ee4"}, "value": 0.0, "n": 1}], "hex": "010000000103e6c1d56913c5a6fcb2257e6847d4b282803658ccc67d13ca258b66e75cb6fc010000006b483045022100d8bf9e2e7ec8381a592800cdba66d5ab7c1b1eb421831a0aa8bd7a42a6491a62022076ae5224a3cdaca148485cb7dd73afa27de36e44ce7af11178b47b31dd4a86c50121022c3d05f92ba46b86de50a5405f4940c8fb16c0f5e519616754826af6cc3d63a9ffffffff0238931600000000001976a914669fcb6d069e21daae0b42a5c1f469560606c8d088ac0000000000000000536a4c50000077920001a0817281676d533cf647e040e3ef3236678a625097bcbefa6b8351586b4e2b5d7f7fe12a80b4161f8a251134e4055baa0c830614a9679223e896bc9a9526289ac0f6612cd74e33776ee400000000", "vin": [{"sequence": 4294967295, "scriptSig": {"hex": "483045022100d8bf9e2e7ec8381a592800cdba66d5ab7c1b1eb421831a0aa8bd7a42a6491a62022076ae5224a3cdaca148485cb7dd73afa27de36e44ce7af11178b47b31dd4a86c50121022c3d05f92ba46b86de50a5405f4940c8fb16c0f5e519616754826af6cc3d63a9", "asm": "3045022100d8bf9e2e7ec8381a592800cdba66d5ab7c1b1eb421831a0aa8bd7a42a6491a62022076ae5224a3cdaca148485cb7dd73afa27de36e44ce7af11178b47b31dd4a86c5[ALL] 022c3d05f92ba46b86de50a5405f4940c8fb16c0f5e519616754826af6cc3d63a9"}, "vout": 1, "txid": "fcb65ce7668b25ca137dc6cc58368082b2d447687e25b2fca6c51369d5c1e603"}], "txid": "d5a2dc79e6077161c8c55d1fe9c7c88e13502b7a854f16af225edd8a94bd32b1", "blocktime": 1537871767, "version": 1, "confirmations": 11494, "time": 1537871767, "locktime": 0, "vsize": 284, "size": 284}