{"hash": "86cadfc98041a0f492d540a7b0879181f2515ad1303229d0166c75db0dc01f73", "blockhash": "0000000000000000000baef3f32e3676a92c3b2e5da21b426e4f302fc371ce76", "vout": [{"scriptPubKey": {"reqSigs": 1, "hex": "a9145d37e666781b9cb5635c74bcdfb2f5288c95f05b87", "addresses": ["3ABujPEXQ6dnspQp9CfhNoPYEoRcZ73gX5"], "asm": "OP_HASH160 5d37e666781b9cb5635c74bcdfb2f5288c95f05b OP_EQUAL", "type": "scripthash"}, "value": 0.00206816, "n": 0}, {"scriptPubKey": {"reqSigs": 1, "hex": "a91441ee8bed7494c86532ffa5506b38610980ecefae87", "addresses": ["37hdcX9GbPuazwQuqb77hc4G4Qa8wn7j7s"], "asm": "OP_HASH160 41ee8bed7494c86532ffa5506b38610980ecefae OP_EQUAL", "type": "scripthash"}, "value": 0.01018447, "n": 1}], "hex": "020000000001025d500b81072d828b3e8679e89099ca64f4286111edd7f47f90bb2e06f9fd459c7401000017160014395fe8f8c95a9edc64759c0883156a6fba58db42feffffff78678aff76dfbe4cfd4d99c14162b8d12f215d286a7729b54d7cf6e58652488c0100000017160014bf13fe3fd103a18f5e2375d4aee8ce8ce6434eb2feffffff02e02703000000000017a9145d37e666781b9cb5635c74bcdfb2f5288c95f05b874f8a0f000000000017a91441ee8bed7494c86532ffa5506b38610980ecefae8702483045022100d1aafd66feb02715c9cf25d76656afe034a88b88a7182ccc25266f06adbae396022010708492c68ff0dfa00a0de1a0ad4a244aa8f78ca1a1c4501f09bc401c4d0ce8012102c7b6f280aa3320b917665f7802afb825caa08e1271b26ffe869d6e9d33f908ba0247304402201acdcd4bf0a4a0f394f83e2ad1725d35b619a9bc2d5403d276734b497ce627d002204557bedafe346f90a0a347f51cb5988ae82a49eab0131c2bb679250f920db2560121023b5301e6e446f862c318997ebde0df1b3d0b7d8e5e01902e56303b24b7297a040f490800", "vin": [{"txinwitness": ["3045022100d1aafd66feb02715c9cf25d76656afe034a88b88a7182ccc25266f06adbae396022010708492c68ff0dfa00a0de1a0ad4a244aa8f78ca1a1c4501f09bc401c4d0ce801", "02c7b6f280aa3320b917665f7802afb825caa08e1271b26ffe869d6e9d33f908ba"], "sequence": 4294967294, "scriptSig": {"hex": "160014395fe8f8c95a9edc64759c0883156a6fba58db42", "asm": "0014395fe8f8c95a9edc64759c0883156a6fba58db42"}, "vout": 372, "txid": "9c45fdf9062ebb907ff4d7ed116128f464ca9990e879863e8b822d07810b505d"}, {"txinwitness": ["304402201acdcd4bf0a4a0f394f83e2ad1725d35b619a9bc2d5403d276734b497ce627d002204557bedafe346f90a0a347f51cb5988ae82a49eab0131c2bb679250f920db25601", "023b5301e6e446f862c318997ebde0df1b3d0b7d8e5e01902e56303b24b7297a04"], "sequence": 4294967294, "scriptSig": {"hex": "160014bf13fe3fd103a18f5e2375d4aee8ce8ce6434eb2", "asm": "0014bf13fe3fd103a18f5e2375d4aee8ce8ce6434eb2"}, "vout": 1, "txid": "8c485286e5f67c4db529776a285d212fd1b86241c1994dfd4cbedf76ff8a6778"}], "txid": "d5a3ff20c7dc62677b32045ac3f9e48371176d363bf259281cb04b983f6a6c97", "blocktime": 1537876114, "version": 2, "confirmations": 11459, "time": 1537876114, "locktime": 542991, "vsize": 257, "size": 419}