{"hash": "d5a9643cf1c6575fc62b1557fb3e37b47d94dbf1f06dc95d91b46039d9f14f6e", "blockhash": "00000000000000000017f5eb5941039fbcee6240d03bc1f2f8e35350df66a1d8", "vout": [{"scriptPubKey": {"reqSigs": 1, "hex": "a914559ef27f7133ac6dcaa5d34f6a4c60034aaff7b187", "addresses": ["39VjmhTb5cEzPZ4Z5NGsbMJrenMmgQL9mc"], "asm": "OP_HASH160 559ef27f7133ac6dcaa5d34f6a4c60034aaff7b1 OP_EQUAL", "type": "scripthash"}, "value": 0.688753, "n": 0}, {"scriptPubKey": {"reqSigs": 1, "hex": "76a9140ffbd8fca6e8778fca2d37a0b46407e8b14e33e388ac", "addresses": ["12TWqZEqB1pqUofjmgaSUxzor1DN7wzAPU"], "asm": "OP_DUP OP_HASH160 0ffbd8fca6e8778fca2d37a0b46407e8b14e33e3 OP_EQUALVERIFY OP_CHECKSIG", "type": "pubkeyhash"}, "value": 8.77161062, "n": 1}], "hex": "010000000182dd4631fbf47499a9ea1cdc652c5d6bafc451c441fbbe296af08b88d0e47e4b010000008b483045022100f0692ad004c4657d5b5412ac5d64e663a5f5aec9e41f4a91d5d675acd284207e02200eca2f80b378819b8f02759b997d90fd5e48d7d7835250d465f9c513dc374b400141040ecb939326370ec3164e659195bdf42c9c28014017226ee6fb1218a0834468af5d9cab08d2aa8ebb1c45c2db33905cadd7c52552b207da59e75ebfec5bb423b9fdffffff0224f41a040000000017a914559ef27f7133ac6dcaa5d34f6a4c60034aaff7b187666a4834000000001976a9140ffbd8fca6e8778fca2d37a0b46407e8b14e33e388ac15490800", "vin": [{"sequence": 4294967293, "scriptSig": {"hex": "483045022100f0692ad004c4657d5b5412ac5d64e663a5f5aec9e41f4a91d5d675acd284207e02200eca2f80b378819b8f02759b997d90fd5e48d7d7835250d465f9c513dc374b400141040ecb939326370ec3164e659195bdf42c9c28014017226ee6fb1218a0834468af5d9cab08d2aa8ebb1c45c2db33905cadd7c52552b207da59e75ebfec5bb423b9", "asm": "3045022100f0692ad004c4657d5b5412ac5d64e663a5f5aec9e41f4a91d5d675acd284207e02200eca2f80b378819b8f02759b997d90fd5e48d7d7835250d465f9c513dc374b40[ALL] 040ecb939326370ec3164e659195bdf42c9c28014017226ee6fb1218a0834468af5d9cab08d2aa8ebb1c45c2db33905cadd7c52552b207da59e75ebfec5bb423b9"}, "vout": 1, "txid": "4b7ee4d0888bf06a29befb41c451c4af6b5d2c65dc1ceaa99974f4fb3146dd82"}], "txid": "d5a9643cf1c6575fc62b1557fb3e37b47d94dbf1f06dc95d91b46039d9f14f6e", "blocktime": 1537874412, "version": 1, "confirmations": 11467, "time": 1537874412, "locktime": 542997, "vsize": 256, "size": 256}