{"hash": "d5acfa96102bf99a46f9a50c6e3569a63e35d4d253501bc9cd428a3522ecd9e9", "blockhash": "0000000000000000000e13cef7c366c0283d82e591d1acd082e914b08063cdf1", "vout": [{"scriptPubKey": {"reqSigs": 1, "hex": "a914af74ffff23551e6f86958baeb1bb1abe3d2cd6f987", "addresses": ["3HgkLR4bjqdpgf7LUKVYTTghhLWCc8JzGz"], "asm": "OP_HASH160 af74ffff23551e6f86958baeb1bb1abe3d2cd6f9 OP_EQUAL", "type": "scripthash"}, "value": 0.00995911, "n": 0}, {"scriptPubKey": {"reqSigs": 1, "hex": "a9149a37f8f5984e6aaf6c1e8a8e7d03c2257dbc1b7387", "addresses": ["3FkT385qHNV8GnbbSpPZ2zY8pgFsYj2zmd"], "asm": "OP_HASH160 9a37f8f5984e6aaf6c1e8a8e7d03c2257dbc1b73 OP_EQUAL", "type": "scripthash"}, "value": 18.0, "n": 1}], "hex": "020000001b02c203a4592528b6e243ca03ba955967c63981eaeb21d193dac7cb052ae3f03c040000006b4830450221008d5ea443015c97585fdec53649a2bddb7d4eeba74a3716aeaf1c9e7f45bd727d02206e184ec7c89de46a445fb8b6e99ee3115c10fcee1b789b9a54aff0eddabc0ad101210361fabc51788290aedc12cb4847481e36b59e8cff287b6ea17b18713009a6573ffeffffff078074e926f02bc7cbe08d2292278c9ef91e97e6bb4a243dcffe9ea881664b3c110000006b483045022100c3da275260d70438d46d00a4b260739b7f914814a4a986591ea8916a3fe4b09702201050434b218049ed575947dad495f724de054ab121b2c437efad68c6d2c39c40012102d190e23df62071a17b650f2865bba5a765a333fbcc9774146ac5c4322150d6e5feffffff0bce21ae7a09c447151302012bdd147d4fe160ce7f7ea998a89a6b5a72f1c6a3040000006a47304402206b83a58344a337a528b280d55af916eaaf3c4563aa8ae5ef1269949bc5f07ad202203604348def1050866be8ed7035569e9a50980ea413b9c8379e6ff597203a7b930121034a0f8f8abee90a8f111180e8400f07ddc8d17dd2c1269600f4032c8096b44de8feffffff0d6a18ffb7d96081d7be71927608cb343e55edeac0165ee68fa79ad0a6e8db43050000006b48304502210095d5552eda6ba5d9cbbe3c5eb1c9bcd5efda5f35b71698f80e85bf57df113eb00220668bc0aeb33d1a9fbb75d453139c79adb976c531a19865af1bc50dd6369ca365012103eeb1182457e3102d29ce9c1e25890bf9e92832ae334d9d0f01ecc3cd4dbaf08efeffffff0ddc33bca00bf961fd6a4a3a3d94f8a8e5f38c405952f877d1c4535e11b13917010000006a473044022065fcb9cbf04f3a87f307ff7226d9c4c864c5a244a975f17744cb42261ce233460220408de3cd1f17089d9abc40e7ed9d96100e8c54fd9657fd43a6aba5f3c91aff280121032e2723471fe9003e572f22895b41f6ca1a724cc9f525b84a54da13faf55a9b8dfeffffff226fcdda8400596322eb592a7fedce5a9e992d55e3735e14efe6ce74cf2665bf100000006b483045022100e73a71a2c503cfe10539aee053df1f74479b32b098c53f49a0f2801434c55419022023485c59729f47312d458b508a8ae84eb3131a30e5c630209d35c44660318050012102b54c9ce1d8427eb247b87a677ba0bfc9a63cfa9ec8f84c08e28f5775aa0fb9befeffffff2bf03647701c8d3724aa30dc5f9e8c99de3a042636686047c263862010fe10eb6f0200006b483045022100d6d0e836725a0cf513a6b71bf49067bfdff312ca647ce7a70af00fdf80f53c6902207f0d12fa58f2230b3ba6124f125e1b93b2a05dc919711d72767a101ca4fa06ac0121024a501d38bb5073e0912fe792124f0d18f08ba8f71a1acedc3a5e50556040d5edfeffffff2bf03647701c8d3724aa30dc5f9e8c99de3a042636686047c263862010fe10eb710900006b483045022100ac42caa0df767dde9d6a61e88158e03e321a3ba6cfedbb08e948b9f08a7e358502201a6680e74cde26077e850d91cbf74215a456ba593b3407b21b2c15514ce67bbf01210391e13f2de6aee2c095e57890f42db3a740f3558da59705a1fdeee4a1e4f66a9cfeffffff309f9cc977fc89dfa3ee0be7a9218415e406d058c3277f1a91adfba05a9357f44c0000006b483045022100d211512c65a753cc9d9c7852905451337d24b87ae5d198d4cdaa61ff2c3078310220346092b40a9769531c83fb8e2e74d1ab458b70875fc3a23b57776680ca9d85630121037058ed9c834b1beab6118e45d2875fb5537d846a8337761ad6c5f1049235d2eafeffffff309f9cc977fc89dfa3ee0be7a9218415e406d058c3277f1a91adfba05a9357f47a0000006a4730440220396792ce05eb0d8124c499688bcfbea520dec55cee572833230c5e310864f10902200a931649eec7fbb623d5342fa02dc139385dce138b004bbf08da978e9c444a910121032aa496f4d838e827eb261ff6395019719e3aac48736312d939c17271328b0e44feffffff44959a3f831551f8db6764f92a12daa2ba94cb07450ada889809449cd0058071720300006b4830450221008374f72db33924927b8ba0d95cfdb143244c606dc2b4fef31734b9055d3640760220083913d3e5f3ee61e82b2bb304e7467dfcf0a87a8e891690184f65b9a047254d0121031362f5a2c222e621a31224bc0c0564b7323fa48d01fc7023e2feb9084c2144f9feffffff4e7de47e4dc56b1d2687a20d4157f151e41cee84385ae39b600f22834b0632ad040000006a4730440220118209333fa68e89fd5d2c2059c0aaab0a6d6b5d49eacbcfb8836b5ddc4ddbbc02202a35a19f4f4dbce2f5f091050ba6555d049b966f09b6a0cff6dbe589b04baf1501210373c585c7c52b23c36e0e477bd4eb63ecf116f53c05907f714359222ecdbc5c50feffffff508707604ed1264b4b829b2f3eb88a64640ab9db56c07590170d8e5e7b6c8580320000006a473044022009a64b0b768dcb010a763935b8b1e5679af8449574fe5b46c7ff597b22add76902206f7a75b97ce746901791022e6aa788eef9f584798fc4c755599bee2064d4aa7b012102dc35553b9691f7efe3153811630fe95eaf3639a5f2ba698d257eee47370ecdd1feffffff540cabd11dab6bfff0e02e1d8fe68f6c951a1fef1647c970c9b8cb4f34c4f321060000006a47304402204218b96c24dc2314527022aeec632618ccb8e2ba4d8841ff4637d42293e625fe0220311ab590b84c656fa058856d70cf1360ebd6df00c4e97f306f1ebb8d4773c5720121022095029bfa9d145b45b5066dd5d4491f0100d06818f266f7ef0c6b42b7f01a67feffffff6817b0045ed67a534f614aa9751f8c9fd97f635903ad9ef39d7e20906a47914f0e0000006a473044022003ef9c915c1395809c806ea20d1ddc86678f847c820d0a20018ad7db67d574e60220230e48d64ca81cdabafdbef47ff9d7d62966407c039345ef0c155593a5d291cf0121023416487d1e61e7da7c46e5ea8827758bb9fb7b4e8a38d2bc5a59077d238c6a0efeffffff7f8c9eecc4145ed9720c1e1f95252175408697176752d5ea7ee2d02a3c0d28ab1e0a00006a47304402200c5af6b34b87aa5a86795ab74a9fe46d95fe54bcc01d4f70c39437e9a058385102204d05cae48e31e1fb19cf4cc13b3ba6bdb8914a54f6e3d15636e42d3e3223a4e7012103796d49df72cc59ed4c56b2e657ac34013deb574e31cbb05abe2cd527d3f067a5feffffff8349f675b0f4887b785fd33adbf33bc392c8555944291278f4cf69a979b987b21e0000006a473044022003827fb9516389a1cff3b67c6449ad1a2c3f381a4d7e10c6715554d548032c2102205993ffe88d1534d0709f8e75ef6083e2be549a9e06b4c07dcb438aaf7811d3a2012102b1ab636db40eaec7e0de062f06bd547e87b85d21a49a40f4e6420397d21c70f6feffffff89249e45a1dff4eceb8868c0295e079febf93be36ca0d483e7647ec46ec53fba030000006a4730440220548b4219a152ce16da2f78ed66b43517b7a81b822adf575c5692315cf5b4cc2e02202f8de4b086b260d21c0afa6bc4d7c48583ae6dcccae9eb6eac55f87a38650c6e0121035db3fa706019de7bfebbf32136ffe4a3fe94f551c2a0f7d1a3a85bfffb78692dfeffffff89249e45a1dff4eceb8868c0295e079febf93be36ca0d483e7647ec46ec53fba130000006b483045022100e093fa2beb9f0a334826cbe8e3cfcc8309c68b8868bbdb1b3229b4485bad3c2702200429114677e6edc77778ece37b9e8c9b091f2a27007d6f48b3359e1e2bcc611d0121032fc6cca16d40af808e92a3aca08cf02ba1f2d8ba61d996e1da63c62e5ca05ad4feffffff93e35e4b758aa3613a8ac5c40522f2f2945166019b398528ac4ae7e9d5e8e5c4000000006a4730440220462b87df126af04c46472d812e02091173c1db192dcee33b8c400f985f745867022077cf7300e0c11d38f5ab3e891c9e0d5934eec341490e67d96f903e818948d19e0121020a49cc04abb6f9288ee656809356456becec36f03b748c2bb5abf38dc56ed716feffffffa95ad217dbec88fef2a94ff8570b5e3e36a15583d2b1ffd2d67417da16f76442000000006b483045022100bbf9931497a6311f58ca3115f68cc8ae3f5fa0df084996a518b55ceeb10d2145022047414eaec16a36bbe7a7e52114fbe1123756df4aa48127920913710f1f1345bc01210335eec90641f6757dfa18e114580f1af97251b3f4c8b6143aafd7ca3fc4064315feffffffab7b74bfc7cf8f1214e0467d1744601f609ac93e12ee527bbc55eb502e5583ae130000006b483045022100a0c1544eacd08a33f640d13a8b99def41d298ccdd336aa87fc8fc8c4923aaecf02202743016c744392271d3152742e53f415cf9cdc32db7082623fffb667ebf60f990121022b71900459e0ef4477a7b0ddb12d91d1e601cb1639a95e770137bb480cb9896cfeffffffda599e4c31ee77bb27c049a83dd75257a172b2ff4402373ab7615cddfa59615b040000006b483045022100d3ec43bc06fa5d592cdbcdcf3ea585648809b4cc96014eb52563cfcc217fb9a6022064b6e6a6d98ac4cd4caa5ef2ba6bfe6ec015a34eda712d8c9f437de1207e9d2d01210208c389cac590e56610c1c56bdad0ccc5bdc5d896f1caaedb4fdc29eef16e2c97feffffffe870bbea8bb93979f1564545ccde9aeccdb7d036581128f6581c976f01410a06d30600006b483045022100fe6e84b7ee7c4e66bd0c9c5644bf3aa8788ccd18668add3ca1b103364c4151640220792a8f7f3a7bdffc7578546043997a439b97585159a583405a71d4193c071f1c01210278572c27e140823eea558024b5df6647b4de05213804a846d138e83118fd5417feffffffed24bf93b3a1fa87bd0a915faf7bd6d898c4cd9634f8c96ab41bf327cc33f0f6880000006a473044022051a65bf4eb1a28bb728a1a8a3826380b1c6b1a7f1071eda6f600a3f214cd413c02200fc50df59239965b1e6218c98cbfc4bf61e8e5bcb815c7af0a23006c3dd99c21012103d2e8072e6090dda61f27d36edd2431ddecdb9a076ae57dd9ea45bc47d4ec3b17fefffffff3d72ec4c805b7063c48a12eaf4a3e6fca0802c1c4ddb18df00bfeb2e678f6e4010000006a47304402204f16d56851e0a908527761c8df8346aa44f2485bc993a002f3be9f4e11198bb502201d5a531d3960e0da9ebbff6617d8522e3e6e085f36edf1c9780867f62b0caf100121026e1803c5e842f45bcc135a6c33183e5c15b68750ce97ece6ef04d7cc2e6b5d7efefffffff42690efb4410423773a848bcff2990faf8ad73a326b11b9bf456996f81ef5e6000000006a47304402202a27e50e19958541bb169a46125765a47e994939e7ae0e23df0144b56350b516022063469494d4146fe577af28e8cb8a7ce2b6651d5fba56c81ef7b6d4996f4ada920121031893259258d3c43c07381ff02f5eb8b4b4bf4e29717d3180ac7c24683d5f16adfeffffff0247320f000000000017a914af74ffff23551e6f86958baeb1bb1abe3d2cd6f98700d2496b0000000017a9149a37f8f5984e6aaf6c1e8a8e7d03c2257dbc1b738710490800", "vin": [{"sequence": 4294967294, "scriptSig": {"hex": "4830450221008d5ea443015c97585fdec53649a2bddb7d4eeba74a3716aeaf1c9e7f45bd727d02206e184ec7c89de46a445fb8b6e99ee3115c10fcee1b789b9a54aff0eddabc0ad101210361fabc51788290aedc12cb4847481e36b59e8cff287b6ea17b18713009a6573f", "asm": "30450221008d5ea443015c97585fdec53649a2bddb7d4eeba74a3716aeaf1c9e7f45bd727d02206e184ec7c89de46a445fb8b6e99ee3115c10fcee1b789b9a54aff0eddabc0ad1[ALL] 0361fabc51788290aedc12cb4847481e36b59e8cff287b6ea17b18713009a6573f"}, "vout": 4, "txid": "3cf0e32a05cbc7da93d121ebea8139c6675995ba03ca43e2b6282559a403c202"}, {"sequence": 4294967294, "scriptSig": {"hex": "483045022100c3da275260d70438d46d00a4b260739b7f914814a4a986591ea8916a3fe4b09702201050434b218049ed575947dad495f724de054ab121b2c437efad68c6d2c39c40012102d190e23df62071a17b650f2865bba5a765a333fbcc9774146ac5c4322150d6e5", "asm": "3045022100c3da275260d70438d46d00a4b260739b7f914814a4a986591ea8916a3fe4b09702201050434b218049ed575947dad495f724de054ab121b2c437efad68c6d2c39c40[ALL] 02d190e23df62071a17b650f2865bba5a765a333fbcc9774146ac5c4322150d6e5"}, "vout": 17, "txid": "3c4b6681a89efecf3d244abbe6971ef99e8c2792228de0cbc72bf026e9748007"}, {"sequence": 4294967294, "scriptSig": {"hex": "47304402206b83a58344a337a528b280d55af916eaaf3c4563aa8ae5ef1269949bc5f07ad202203604348def1050866be8ed7035569e9a50980ea413b9c8379e6ff597203a7b930121034a0f8f8abee90a8f111180e8400f07ddc8d17dd2c1269600f4032c8096b44de8", "asm": "304402206b83a58344a337a528b280d55af916eaaf3c4563aa8ae5ef1269949bc5f07ad202203604348def1050866be8ed7035569e9a50980ea413b9c8379e6ff597203a7b93[ALL] 034a0f8f8abee90a8f111180e8400f07ddc8d17dd2c1269600f4032c8096b44de8"}, "vout": 4, "txid": "a3c6f1725a6b9aa898a97e7fce60e14f7d14dd2b0102131547c4097aae21ce0b"}, {"sequence": 4294967294, "scriptSig": {"hex": "48304502210095d5552eda6ba5d9cbbe3c5eb1c9bcd5efda5f35b71698f80e85bf57df113eb00220668bc0aeb33d1a9fbb75d453139c79adb976c531a19865af1bc50dd6369ca365012103eeb1182457e3102d29ce9c1e25890bf9e92832ae334d9d0f01ecc3cd4dbaf08e", "asm": "304502210095d5552eda6ba5d9cbbe3c5eb1c9bcd5efda5f35b71698f80e85bf57df113eb00220668bc0aeb33d1a9fbb75d453139c79adb976c531a19865af1bc50dd6369ca365[ALL] 03eeb1182457e3102d29ce9c1e25890bf9e92832ae334d9d0f01ecc3cd4dbaf08e"}, "vout": 5, "txid": "43dbe8a6d09aa78fe65e16c0eaed553e34cb08769271bed78160d9b7ff186a0d"}, {"sequence": 4294967294, "scriptSig": {"hex": "473044022065fcb9cbf04f3a87f307ff7226d9c4c864c5a244a975f17744cb42261ce233460220408de3cd1f17089d9abc40e7ed9d96100e8c54fd9657fd43a6aba5f3c91aff280121032e2723471fe9003e572f22895b41f6ca1a724cc9f525b84a54da13faf55a9b8d", "asm": "3044022065fcb9cbf04f3a87f307ff7226d9c4c864c5a244a975f17744cb42261ce233460220408de3cd1f17089d9abc40e7ed9d96100e8c54fd9657fd43a6aba5f3c91aff28[ALL] 032e2723471fe9003e572f22895b41f6ca1a724cc9f525b84a54da13faf55a9b8d"}, "vout": 1, "txid": "1739b1115e53c4d177f85259408cf3e5a8f8943d3a4a6afd61f90ba0bc33dc0d"}, {"sequence": 4294967294, "scriptSig": {"hex": "483045022100e73a71a2c503cfe10539aee053df1f74479b32b098c53f49a0f2801434c55419022023485c59729f47312d458b508a8ae84eb3131a30e5c630209d35c44660318050012102b54c9ce1d8427eb247b87a677ba0bfc9a63cfa9ec8f84c08e28f5775aa0fb9be", "asm": "3045022100e73a71a2c503cfe10539aee053df1f74479b32b098c53f49a0f2801434c55419022023485c59729f47312d458b508a8ae84eb3131a30e5c630209d35c44660318050[ALL] 02b54c9ce1d8427eb247b87a677ba0bfc9a63cfa9ec8f84c08e28f5775aa0fb9be"}, "vout": 16, "txid": "bf6526cf74cee6ef145e73e3552d999e5aceed7f2a59eb2263590084dacd6f22"}, {"sequence": 4294967294, "scriptSig": {"hex": "483045022100d6d0e836725a0cf513a6b71bf49067bfdff312ca647ce7a70af00fdf80f53c6902207f0d12fa58f2230b3ba6124f125e1b93b2a05dc919711d72767a101ca4fa06ac0121024a501d38bb5073e0912fe792124f0d18f08ba8f71a1acedc3a5e50556040d5ed", "asm": "3045022100d6d0e836725a0cf513a6b71bf49067bfdff312ca647ce7a70af00fdf80f53c6902207f0d12fa58f2230b3ba6124f125e1b93b2a05dc919711d72767a101ca4fa06ac[ALL] 024a501d38bb5073e0912fe792124f0d18f08ba8f71a1acedc3a5e50556040d5ed"}, "vout": 623, "txid": "eb10fe10208663c24760683626043ade998c9e5fdc30aa24378d1c704736f02b"}, {"sequence": 4294967294, "scriptSig": {"hex": "483045022100ac42caa0df767dde9d6a61e88158e03e321a3ba6cfedbb08e948b9f08a7e358502201a6680e74cde26077e850d91cbf74215a456ba593b3407b21b2c15514ce67bbf01210391e13f2de6aee2c095e57890f42db3a740f3558da59705a1fdeee4a1e4f66a9c", "asm": "3045022100ac42caa0df767dde9d6a61e88158e03e321a3ba6cfedbb08e948b9f08a7e358502201a6680e74cde26077e850d91cbf74215a456ba593b3407b21b2c15514ce67bbf[ALL] 0391e13f2de6aee2c095e57890f42db3a740f3558da59705a1fdeee4a1e4f66a9c"}, "vout": 2417, "txid": "eb10fe10208663c24760683626043ade998c9e5fdc30aa24378d1c704736f02b"}, {"sequence": 4294967294, "scriptSig": {"hex": "483045022100d211512c65a753cc9d9c7852905451337d24b87ae5d198d4cdaa61ff2c3078310220346092b40a9769531c83fb8e2e74d1ab458b70875fc3a23b57776680ca9d85630121037058ed9c834b1beab6118e45d2875fb5537d846a8337761ad6c5f1049235d2ea", "asm": "3045022100d211512c65a753cc9d9c7852905451337d24b87ae5d198d4cdaa61ff2c3078310220346092b40a9769531c83fb8e2e74d1ab458b70875fc3a23b57776680ca9d8563[ALL] 037058ed9c834b1beab6118e45d2875fb5537d846a8337761ad6c5f1049235d2ea"}, "vout": 76, "txid": "f457935aa0fbad911a7f27c358d006e4158421a9e70beea3df89fc77c99c9f30"}, {"sequence": 4294967294, "scriptSig": {"hex": "4730440220396792ce05eb0d8124c499688bcfbea520dec55cee572833230c5e310864f10902200a931649eec7fbb623d5342fa02dc139385dce138b004bbf08da978e9c444a910121032aa496f4d838e827eb261ff6395019719e3aac48736312d939c17271328b0e44", "asm": "30440220396792ce05eb0d8124c499688bcfbea520dec55cee572833230c5e310864f10902200a931649eec7fbb623d5342fa02dc139385dce138b004bbf08da978e9c444a91[ALL] 032aa496f4d838e827eb261ff6395019719e3aac48736312d939c17271328b0e44"}, "vout": 122, "txid": "f457935aa0fbad911a7f27c358d006e4158421a9e70beea3df89fc77c99c9f30"}, {"sequence": 4294967294, "scriptSig": {"hex": "4830450221008374f72db33924927b8ba0d95cfdb143244c606dc2b4fef31734b9055d3640760220083913d3e5f3ee61e82b2bb304e7467dfcf0a87a8e891690184f65b9a047254d0121031362f5a2c222e621a31224bc0c0564b7323fa48d01fc7023e2feb9084c2144f9", "asm": "30450221008374f72db33924927b8ba0d95cfdb143244c606dc2b4fef31734b9055d3640760220083913d3e5f3ee61e82b2bb304e7467dfcf0a87a8e891690184f65b9a047254d[ALL] 031362f5a2c222e621a31224bc0c0564b7323fa48d01fc7023e2feb9084c2144f9"}, "vout": 882, "txid": "718005d09c44099888da0a4507cb94baa2da122af96467dbf85115833f9a9544"}, {"sequence": 4294967294, "scriptSig": {"hex": "4730440220118209333fa68e89fd5d2c2059c0aaab0a6d6b5d49eacbcfb8836b5ddc4ddbbc02202a35a19f4f4dbce2f5f091050ba6555d049b966f09b6a0cff6dbe589b04baf1501210373c585c7c52b23c36e0e477bd4eb63ecf116f53c05907f714359222ecdbc5c50", "asm": "30440220118209333fa68e89fd5d2c2059c0aaab0a6d6b5d49eacbcfb8836b5ddc4ddbbc02202a35a19f4f4dbce2f5f091050ba6555d049b966f09b6a0cff6dbe589b04baf15[ALL] 0373c585c7c52b23c36e0e477bd4eb63ecf116f53c05907f714359222ecdbc5c50"}, "vout": 4, "txid": "ad32064b83220f609be35a3884ee1ce451f157410da287261d6bc54d7ee47d4e"}, {"sequence": 4294967294, "scriptSig": {"hex": "473044022009a64b0b768dcb010a763935b8b1e5679af8449574fe5b46c7ff597b22add76902206f7a75b97ce746901791022e6aa788eef9f584798fc4c755599bee2064d4aa7b012102dc35553b9691f7efe3153811630fe95eaf3639a5f2ba698d257eee47370ecdd1", "asm": "3044022009a64b0b768dcb010a763935b8b1e5679af8449574fe5b46c7ff597b22add76902206f7a75b97ce746901791022e6aa788eef9f584798fc4c755599bee2064d4aa7b[ALL] 02dc35553b9691f7efe3153811630fe95eaf3639a5f2ba698d257eee47370ecdd1"}, "vout": 50, "txid": "80856c7b5e8e0d179075c056dbb90a64648ab83e2f9b824b4b26d14e60078750"}, {"sequence": 4294967294, "scriptSig": {"hex": "47304402204218b96c24dc2314527022aeec632618ccb8e2ba4d8841ff4637d42293e625fe0220311ab590b84c656fa058856d70cf1360ebd6df00c4e97f306f1ebb8d4773c5720121022095029bfa9d145b45b5066dd5d4491f0100d06818f266f7ef0c6b42b7f01a67", "asm": "304402204218b96c24dc2314527022aeec632618ccb8e2ba4d8841ff4637d42293e625fe0220311ab590b84c656fa058856d70cf1360ebd6df00c4e97f306f1ebb8d4773c572[ALL] 022095029bfa9d145b45b5066dd5d4491f0100d06818f266f7ef0c6b42b7f01a67"}, "vout": 6, "txid": "21f3c4344fcbb8c970c94716ef1f1a956c8fe68f1d2ee0f0ff6bab1dd1ab0c54"}, {"sequence": 4294967294, "scriptSig": {"hex": "473044022003ef9c915c1395809c806ea20d1ddc86678f847c820d0a20018ad7db67d574e60220230e48d64ca81cdabafdbef47ff9d7d62966407c039345ef0c155593a5d291cf0121023416487d1e61e7da7c46e5ea8827758bb9fb7b4e8a38d2bc5a59077d238c6a0e", "asm": "3044022003ef9c915c1395809c806ea20d1ddc86678f847c820d0a20018ad7db67d574e60220230e48d64ca81cdabafdbef47ff9d7d62966407c039345ef0c155593a5d291cf[ALL] 023416487d1e61e7da7c46e5ea8827758bb9fb7b4e8a38d2bc5a59077d238c6a0e"}, "vout": 14, "txid": "4f91476a90207e9df39ead0359637fd99f8c1f75a94a614f537ad65e04b01768"}, {"sequence": 4294967294, "scriptSig": {"hex": "47304402200c5af6b34b87aa5a86795ab74a9fe46d95fe54bcc01d4f70c39437e9a058385102204d05cae48e31e1fb19cf4cc13b3ba6bdb8914a54f6e3d15636e42d3e3223a4e7012103796d49df72cc59ed4c56b2e657ac34013deb574e31cbb05abe2cd527d3f067a5", "asm": "304402200c5af6b34b87aa5a86795ab74a9fe46d95fe54bcc01d4f70c39437e9a058385102204d05cae48e31e1fb19cf4cc13b3ba6bdb8914a54f6e3d15636e42d3e3223a4e7[ALL] 03796d49df72cc59ed4c56b2e657ac34013deb574e31cbb05abe2cd527d3f067a5"}, "vout": 2590, "txid": "ab280d3c2ad0e27eead5526717978640752125951f1e0c72d95e14c4ec9e8c7f"}, {"sequence": 4294967294, "scriptSig": {"hex": "473044022003827fb9516389a1cff3b67c6449ad1a2c3f381a4d7e10c6715554d548032c2102205993ffe88d1534d0709f8e75ef6083e2be549a9e06b4c07dcb438aaf7811d3a2012102b1ab636db40eaec7e0de062f06bd547e87b85d21a49a40f4e6420397d21c70f6", "asm": "3044022003827fb9516389a1cff3b67c6449ad1a2c3f381a4d7e10c6715554d548032c2102205993ffe88d1534d0709f8e75ef6083e2be549a9e06b4c07dcb438aaf7811d3a2[ALL] 02b1ab636db40eaec7e0de062f06bd547e87b85d21a49a40f4e6420397d21c70f6"}, "vout": 30, "txid": "b287b979a969cff4781229445955c892c33bf3db3ad35f787b88f4b075f64983"}, {"sequence": 4294967294, "scriptSig": {"hex": "4730440220548b4219a152ce16da2f78ed66b43517b7a81b822adf575c5692315cf5b4cc2e02202f8de4b086b260d21c0afa6bc4d7c48583ae6dcccae9eb6eac55f87a38650c6e0121035db3fa706019de7bfebbf32136ffe4a3fe94f551c2a0f7d1a3a85bfffb78692d", "asm": "30440220548b4219a152ce16da2f78ed66b43517b7a81b822adf575c5692315cf5b4cc2e02202f8de4b086b260d21c0afa6bc4d7c48583ae6dcccae9eb6eac55f87a38650c6e[ALL] 035db3fa706019de7bfebbf32136ffe4a3fe94f551c2a0f7d1a3a85bfffb78692d"}, "vout": 3, "txid": "ba3fc56ec47e64e783d4a06ce33bf9eb9f075e29c06888ebecf4dfa1459e2489"}, {"sequence": 4294967294, "scriptSig": {"hex": "483045022100e093fa2beb9f0a334826cbe8e3cfcc8309c68b8868bbdb1b3229b4485bad3c2702200429114677e6edc77778ece37b9e8c9b091f2a27007d6f48b3359e1e2bcc611d0121032fc6cca16d40af808e92a3aca08cf02ba1f2d8ba61d996e1da63c62e5ca05ad4", "asm": "3045022100e093fa2beb9f0a334826cbe8e3cfcc8309c68b8868bbdb1b3229b4485bad3c2702200429114677e6edc77778ece37b9e8c9b091f2a27007d6f48b3359e1e2bcc611d[ALL] 032fc6cca16d40af808e92a3aca08cf02ba1f2d8ba61d996e1da63c62e5ca05ad4"}, "vout": 19, "txid": "ba3fc56ec47e64e783d4a06ce33bf9eb9f075e29c06888ebecf4dfa1459e2489"}, {"sequence": 4294967294, "scriptSig": {"hex": "4730440220462b87df126af04c46472d812e02091173c1db192dcee33b8c400f985f745867022077cf7300e0c11d38f5ab3e891c9e0d5934eec341490e67d96f903e818948d19e0121020a49cc04abb6f9288ee656809356456becec36f03b748c2bb5abf38dc56ed716", "asm": "30440220462b87df126af04c46472d812e02091173c1db192dcee33b8c400f985f745867022077cf7300e0c11d38f5ab3e891c9e0d5934eec341490e67d96f903e818948d19e[ALL] 020a49cc04abb6f9288ee656809356456becec36f03b748c2bb5abf38dc56ed716"}, "vout": 0, "txid": "c4e5e8d5e9e74aac2885399b01665194f2f22205c4c58a3a61a38a754b5ee393"}, {"sequence": 4294967294, "scriptSig": {"hex": "483045022100bbf9931497a6311f58ca3115f68cc8ae3f5fa0df084996a518b55ceeb10d2145022047414eaec16a36bbe7a7e52114fbe1123756df4aa48127920913710f1f1345bc01210335eec90641f6757dfa18e114580f1af97251b3f4c8b6143aafd7ca3fc4064315", "asm": "3045022100bbf9931497a6311f58ca3115f68cc8ae3f5fa0df084996a518b55ceeb10d2145022047414eaec16a36bbe7a7e52114fbe1123756df4aa48127920913710f1f1345bc[ALL] 0335eec90641f6757dfa18e114580f1af97251b3f4c8b6143aafd7ca3fc4064315"}, "vout": 0, "txid": "4264f716da1774d6d2ffb1d28355a1363e5e0b57f84fa9f2fe88ecdb17d25aa9"}, {"sequence": 4294967294, "scriptSig": {"hex": "483045022100a0c1544eacd08a33f640d13a8b99def41d298ccdd336aa87fc8fc8c4923aaecf02202743016c744392271d3152742e53f415cf9cdc32db7082623fffb667ebf60f990121022b71900459e0ef4477a7b0ddb12d91d1e601cb1639a95e770137bb480cb9896c", "asm": "3045022100a0c1544eacd08a33f640d13a8b99def41d298ccdd336aa87fc8fc8c4923aaecf02202743016c744392271d3152742e53f415cf9cdc32db7082623fffb667ebf60f99[ALL] 022b71900459e0ef4477a7b0ddb12d91d1e601cb1639a95e770137bb480cb9896c"}, "vout": 19, "txid": "ae83552e50eb55bc7b52ee123ec99a601f6044177d46e014128fcfc7bf747bab"}, {"sequence": 4294967294, "scriptSig": {"hex": "483045022100d3ec43bc06fa5d592cdbcdcf3ea585648809b4cc96014eb52563cfcc217fb9a6022064b6e6a6d98ac4cd4caa5ef2ba6bfe6ec015a34eda712d8c9f437de1207e9d2d01210208c389cac590e56610c1c56bdad0ccc5bdc5d896f1caaedb4fdc29eef16e2c97", "asm": "3045022100d3ec43bc06fa5d592cdbcdcf3ea585648809b4cc96014eb52563cfcc217fb9a6022064b6e6a6d98ac4cd4caa5ef2ba6bfe6ec015a34eda712d8c9f437de1207e9d2d[ALL] 0208c389cac590e56610c1c56bdad0ccc5bdc5d896f1caaedb4fdc29eef16e2c97"}, "vout": 4, "txid": "5b6159fadd5c61b73a370244ffb272a15752d73da849c027bb77ee314c9e59da"}, {"sequence": 4294967294, "scriptSig": {"hex": "483045022100fe6e84b7ee7c4e66bd0c9c5644bf3aa8788ccd18668add3ca1b103364c4151640220792a8f7f3a7bdffc7578546043997a439b97585159a583405a71d4193c071f1c01210278572c27e140823eea558024b5df6647b4de05213804a846d138e83118fd5417", "asm": "3045022100fe6e84b7ee7c4e66bd0c9c5644bf3aa8788ccd18668add3ca1b103364c4151640220792a8f7f3a7bdffc7578546043997a439b97585159a583405a71d4193c071f1c[ALL] 0278572c27e140823eea558024b5df6647b4de05213804a846d138e83118fd5417"}, "vout": 1747, "txid": "060a41016f971c58f628115836d0b7cdec9adecc454556f17939b98beabb70e8"}, {"sequence": 4294967294, "scriptSig": {"hex": "473044022051a65bf4eb1a28bb728a1a8a3826380b1c6b1a7f1071eda6f600a3f214cd413c02200fc50df59239965b1e6218c98cbfc4bf61e8e5bcb815c7af0a23006c3dd99c21012103d2e8072e6090dda61f27d36edd2431ddecdb9a076ae57dd9ea45bc47d4ec3b17", "asm": "3044022051a65bf4eb1a28bb728a1a8a3826380b1c6b1a7f1071eda6f600a3f214cd413c02200fc50df59239965b1e6218c98cbfc4bf61e8e5bcb815c7af0a23006c3dd99c21[ALL] 03d2e8072e6090dda61f27d36edd2431ddecdb9a076ae57dd9ea45bc47d4ec3b17"}, "vout": 136, "txid": "f6f033cc27f31bb46ac9f83496cdc498d8d67baf5f910abd87faa1b393bf24ed"}, {"sequence": 4294967294, "scriptSig": {"hex": "47304402204f16d56851e0a908527761c8df8346aa44f2485bc993a002f3be9f4e11198bb502201d5a531d3960e0da9ebbff6617d8522e3e6e085f36edf1c9780867f62b0caf100121026e1803c5e842f45bcc135a6c33183e5c15b68750ce97ece6ef04d7cc2e6b5d7e", "asm": "304402204f16d56851e0a908527761c8df8346aa44f2485bc993a002f3be9f4e11198bb502201d5a531d3960e0da9ebbff6617d8522e3e6e085f36edf1c9780867f62b0caf10[ALL] 026e1803c5e842f45bcc135a6c33183e5c15b68750ce97ece6ef04d7cc2e6b5d7e"}, "vout": 1, "txid": "e4f678e6b2fe0bf08db1ddc4c10208ca6f3e4aaf2ea1483c06b705c8c42ed7f3"}, {"sequence": 4294967294, "scriptSig": {"hex": "47304402202a27e50e19958541bb169a46125765a47e994939e7ae0e23df0144b56350b516022063469494d4146fe577af28e8cb8a7ce2b6651d5fba56c81ef7b6d4996f4ada920121031893259258d3c43c07381ff02f5eb8b4b4bf4e29717d3180ac7c24683d5f16ad", "asm": "304402202a27e50e19958541bb169a46125765a47e994939e7ae0e23df0144b56350b516022063469494d4146fe577af28e8cb8a7ce2b6651d5fba56c81ef7b6d4996f4ada92[ALL] 031893259258d3c43c07381ff02f5eb8b4b4bf4e29717d3180ac7c24683d5f16ad"}, "vout": 0, "txid": "e6f51ef8966945bfb9116b323ad78aaf0f99f2cf8b843a77230441b4ef9026f4"}], "txid": "d5acfa96102bf99a46f9a50c6e3569a63e35d4d253501bc9cd428a3522ecd9e9", "blocktime": 1537871767, "version": 2, "confirmations": 11495, "time": 1537871767, "locktime": 542992, "vsize": 4056, "size": 4056}