{"hash": "8ce8a3ecf7c3403dd0b7fb64cc2eb86c99d42e7d400ee738aaea847b3abaadc6", "blockhash": "0000000000000000000e13cef7c366c0283d82e591d1acd082e914b08063cdf1", "vout": [{"scriptPubKey": {"reqSigs": 1, "hex": "a91402f32757a6c2bf24602570f1fa563a4ccec4087987", "addresses": ["31xcZYMQtv5Lzqvi3ABBM1ABuQQNZ7g7ZL"], "asm": "OP_HASH160 02f32757a6c2bf24602570f1fa563a4ccec40879 OP_EQUAL", "type": "scripthash"}, "value": 0.00012459, "n": 0}, {"scriptPubKey": {"reqSigs": 1, "hex": "a91418c020eadd70986e5a2392ca8cef705bf6a7fcd787", "addresses": ["33wtJUYYuRYx25ZspXbSUyyzoPwzBETW13"], "asm": "OP_HASH160 18c020eadd70986e5a2392ca8cef705bf6a7fcd7 OP_EQUAL", "type": "scripthash"}, "value": 0.00225103, "n": 1}], "hex": "010000000001016d758566ba8511c050f1ed10709b3d36739354a99f69cd960ac0db022c31d8e7010000002322002034d286ccab95ac2830f1056ba57f00e0448d1d5ecf2fff624cf6f42fa30a8290ffffffff02ab3000000000000017a91402f32757a6c2bf24602570f1fa563a4ccec40879874f6f03000000000017a91418c020eadd70986e5a2392ca8cef705bf6a7fcd7870400483045022100d302e24c61c1943887bfa4f4873e55b7d5f555b6f9931d05ce8b027b0f9117fc02201ad7b61a9b2f3015710a4e4ac077313a6c1d798275f97edd1aa785fc1def9b7401483045022100b335189581bbf3ce03845a7a3135ada78697c980984bd82f2cfea5a86dd91874022009cdfb4fc6a36f8c924b0722cfa50cb38ee3213cd35ab48250e822f1aa9e8e42014752210348e3cf19d1b9cafc84385efb67f6683c8f43574f31fab2ae0219a9b9d14edd212103871fc2ca08e6950b38867e8e6a0e94ee625223d3aa0df5c65f414c6d784467e252ae00000000", "vin": [{"txinwitness": ["", "3045022100d302e24c61c1943887bfa4f4873e55b7d5f555b6f9931d05ce8b027b0f9117fc02201ad7b61a9b2f3015710a4e4ac077313a6c1d798275f97edd1aa785fc1def9b7401", "3045022100b335189581bbf3ce03845a7a3135ada78697c980984bd82f2cfea5a86dd91874022009cdfb4fc6a36f8c924b0722cfa50cb38ee3213cd35ab48250e822f1aa9e8e4201", "52210348e3cf19d1b9cafc84385efb67f6683c8f43574f31fab2ae0219a9b9d14edd212103871fc2ca08e6950b38867e8e6a0e94ee625223d3aa0df5c65f414c6d784467e252ae"], "sequence": 4294967295, "scriptSig": {"hex": "22002034d286ccab95ac2830f1056ba57f00e0448d1d5ecf2fff624cf6f42fa30a8290", "asm": "002034d286ccab95ac2830f1056ba57f00e0448d1d5ecf2fff624cf6f42fa30a8290"}, "vout": 1, "txid": "e7d8312c02dbc00a96cd699fa9549373363d9b7010edf150c01185ba6685756d"}], "txid": "d5b2df76bb16c18688f25199a8c2619180b0dc7827de070f9c2e032f30e868c4", "blocktime": 1537871767, "version": 1, "confirmations": 11495, "time": 1537871767, "locktime": 0, "vsize": 206, "size": 372}