{"hash": "d5b6994f36a83114fe62aae50b360919c4719efb0fbd9d4fb4252dca3debe8dc", "blockhash": "00000000000000000004ffacab907a6b429b9a5745fa0b75af4234bf69dd7176", "vout": [{"scriptPubKey": {"reqSigs": 1, "hex": "76a91473929c8190ff30eaf82fae66274101594ccf2cef88ac", "addresses": ["1BY6LoA9XFfNzn9BCWgAMcPxkLZ2kocxd1"], "asm": "OP_DUP OP_HASH160 73929c8190ff30eaf82fae66274101594ccf2cef OP_EQUALVERIFY OP_CHECKSIG", "type": "pubkeyhash"}, "value": 0.03130712, "n": 0}, {"scriptPubKey": {"reqSigs": 1, "hex": "a9143c26246b310b4824af8db10e3ff41a0f710c280587", "addresses": ["37B4ADxpepH8acSAno64zAjCtv9M6w1QhS"], "asm": "OP_HASH160 3c26246b310b4824af8db10e3ff41a0f710c2805 OP_EQUAL", "type": "scripthash"}, "value": 0.31653, "n": 1}], "hex": "0100000002c2811abe6a726c2bf853a3772c3b3f2404a5e5d401e3966d9264da7669604492000000006b48304502210094454af2d4a54f2287f5c1f64eae9d7b1b8851024f3c73b41953be861f15dd040220759f28b6ba2e7bf1f287dd38b87c4e3c649d508a292bf860c45ff73175ba3eb401210394f4ee427b304fb3a3cbfffe43cea1e78a33e28d5e3ab99dda7310ed70e00cc2ffffffffb84d7c528a4ea916e93a35988c6f5ce869b64605dd7064c02dbce7896811eb3e010000006b48304502210097171e8e43ad9be29f95dd19cd676b9638db1ebcd95f8ffb56bb45631432d845022060b12c4685f8071247c467b438805a408fcd87b233715974528b25b595c052a4012102037eb7db7a0e915d5c733ca345a3be9b67e9301ff4739422580d28a2b42ff81fffffffff0258c52f00000000001976a91473929c8190ff30eaf82fae66274101594ccf2cef88ac88fce2010000000017a9143c26246b310b4824af8db10e3ff41a0f710c28058700000000", "vin": [{"sequence": 4294967295, "scriptSig": {"hex": "48304502210094454af2d4a54f2287f5c1f64eae9d7b1b8851024f3c73b41953be861f15dd040220759f28b6ba2e7bf1f287dd38b87c4e3c649d508a292bf860c45ff73175ba3eb401210394f4ee427b304fb3a3cbfffe43cea1e78a33e28d5e3ab99dda7310ed70e00cc2", "asm": "304502210094454af2d4a54f2287f5c1f64eae9d7b1b8851024f3c73b41953be861f15dd040220759f28b6ba2e7bf1f287dd38b87c4e3c649d508a292bf860c45ff73175ba3eb4[ALL] 0394f4ee427b304fb3a3cbfffe43cea1e78a33e28d5e3ab99dda7310ed70e00cc2"}, "vout": 0, "txid": "9244606976da64926d96e301d4e5a504243f3b2c77a353f82b6c726abe1a81c2"}, {"sequence": 4294967295, "scriptSig": {"hex": "48304502210097171e8e43ad9be29f95dd19cd676b9638db1ebcd95f8ffb56bb45631432d845022060b12c4685f8071247c467b438805a408fcd87b233715974528b25b595c052a4012102037eb7db7a0e915d5c733ca345a3be9b67e9301ff4739422580d28a2b42ff81f", "asm": "304502210097171e8e43ad9be29f95dd19cd676b9638db1ebcd95f8ffb56bb45631432d845022060b12c4685f8071247c467b438805a408fcd87b233715974528b25b595c052a4[ALL] 02037eb7db7a0e915d5c733ca345a3be9b67e9301ff4739422580d28a2b42ff81f"}, "vout": 1, "txid": "3eeb116889e7bc2dc06470dd0546b669e85c6f8c98353ae916a94e8a527c4db8"}], "txid": "d5b6994f36a83114fe62aae50b360919c4719efb0fbd9d4fb4252dca3debe8dc", "blocktime": 1537875543, "version": 1, "confirmations": 11464, "time": 1537875543, "locktime": 0, "vsize": 372, "size": 372}