{"hash": "d5bf5948ff51b6ae6cc810128aba12213b738737dc73b46484e1d55c92fae43c", "blockhash": "00000000000000000004ffacab907a6b429b9a5745fa0b75af4234bf69dd7176", "vout": [{"scriptPubKey": {"reqSigs": 1, "hex": "76a91412d3adbf801723f9a41d3b3c97b91c1208e1aefe88ac", "addresses": ["12iYk9XqPKFXewtBBYQU3vTgWq4jbByvxt"], "asm": "OP_DUP OP_HASH160 12d3adbf801723f9a41d3b3c97b91c1208e1aefe OP_EQUALVERIFY OP_CHECKSIG", "type": "pubkeyhash"}, "value": 0.00082, "n": 0}, {"scriptPubKey": {"reqSigs": 1, "hex": "76a914c4ed9208850c26d40242968a556c50c7a2030e3588ac", "addresses": ["1JxG3HPHxHZo3a6rLJJWm2ZEaLi7VMaMkX"], "asm": "OP_DUP OP_HASH160 c4ed9208850c26d40242968a556c50c7a2030e35 OP_EQUALVERIFY OP_CHECKSIG", "type": "pubkeyhash"}, "value": 0.053257, "n": 1}], "hex": "0100000001c7082d5542314a16ef89f7c5abf8f7084176934a2368c09734cb03619f58f1d6010000006a47304402204208e8ed0f3e6c2e0b07397ae5fdd26bab5ad8d2f76c781ccb28d9c8b76c9f4702204e2eea99fb845aa6e0a2029754ecbce911b07df11324eb6a5d5a3f975e5dae4a012103d9f5d5b67f843b0be1302876a16da20def256c1ac0c589d58aaaf8727d5cc929feffffff0250400100000000001976a91412d3adbf801723f9a41d3b3c97b91c1208e1aefe88ac84435100000000001976a914c4ed9208850c26d40242968a556c50c7a2030e3588ac16490800", "vin": [{"sequence": 4294967294, "scriptSig": {"hex": "47304402204208e8ed0f3e6c2e0b07397ae5fdd26bab5ad8d2f76c781ccb28d9c8b76c9f4702204e2eea99fb845aa6e0a2029754ecbce911b07df11324eb6a5d5a3f975e5dae4a012103d9f5d5b67f843b0be1302876a16da20def256c1ac0c589d58aaaf8727d5cc929", "asm": "304402204208e8ed0f3e6c2e0b07397ae5fdd26bab5ad8d2f76c781ccb28d9c8b76c9f4702204e2eea99fb845aa6e0a2029754ecbce911b07df11324eb6a5d5a3f975e5dae4a[ALL] 03d9f5d5b67f843b0be1302876a16da20def256c1ac0c589d58aaaf8727d5cc929"}, "vout": 1, "txid": "d6f1589f6103cb3497c068234a93764108f7f8abc5f789ef164a3142552d08c7"}], "txid": "d5bf5948ff51b6ae6cc810128aba12213b738737dc73b46484e1d55c92fae43c", "blocktime": 1537875543, "version": 1, "confirmations": 11464, "time": 1537875543, "locktime": 542998, "vsize": 225, "size": 225}