{"hash": "4831af6d39477cd3529df607eb323290529692bfa8be7fac0473d0d57fd71489", "blockhash": "0000000000000000000e13cef7c366c0283d82e591d1acd082e914b08063cdf1", "vout": [{"scriptPubKey": {"reqSigs": 1, "hex": "76a9145f2ef41ef7e2213a2663edcbd5be5203fbe87bf888ac", "addresses": ["19gHScnizjqdf4xZHufpE6seUSDsAm8K1V"], "asm": "OP_DUP OP_HASH160 5f2ef41ef7e2213a2663edcbd5be5203fbe87bf8 OP_EQUALVERIFY OP_CHECKSIG", "type": "pubkeyhash"}, "value": 0.00063492, "n": 0}, {"scriptPubKey": {"reqSigs": 1, "hex": "0014b54c7aaeb20f6e81e6774a4d60343a2d76823bdd", "addresses": ["bc1qk4x84t4jpahgrenhffxkqdp694mgyw7ae2d6sl"], "asm": "0 b54c7aaeb20f6e81e6774a4d60343a2d76823bdd", "type": "witness_v0_keyhash"}, "value": 2.009e-05, "n": 1}], "hex": "010000000001014b7e2875efe6f4830c5a04a22b29f0967822e0324efbebc19b70641f7fcb4f730000000000ffffffff0204f80000000000001976a9145f2ef41ef7e2213a2663edcbd5be5203fbe87bf888acd907000000000000160014b54c7aaeb20f6e81e6774a4d60343a2d76823bdd02483045022100e00b285e9e713edaa19f667caaa7b900ca56505d47a2bd8cf1ae4ee3064d6ae702204a3aa473deeaf550484f49bb9e6719ada6cb64b8b49664ac6399554e745dcff3012102ba3e28f5f6c230377be18026eca7982a6180a31f519c26c1ba2308e629d0908900000000", "vin": [{"txinwitness": ["3045022100e00b285e9e713edaa19f667caaa7b900ca56505d47a2bd8cf1ae4ee3064d6ae702204a3aa473deeaf550484f49bb9e6719ada6cb64b8b49664ac6399554e745dcff301", "02ba3e28f5f6c230377be18026eca7982a6180a31f519c26c1ba2308e629d09089"], "sequence": 4294967295, "scriptSig": {"hex": "", "asm": ""}, "vout": 0, "txid": "734fcb7f1f64709bc1ebfb4e32e0227896f0292ba2045a0c83f4e6ef75287e4b"}], "txid": "d5bfb26426ab987842b713a6afc61e84795c19af558532278f1a1b17b0baa248", "blocktime": 1537871767, "version": 1, "confirmations": 11495, "time": 1537871767, "locktime": 0, "vsize": 144, "size": 226}