{"hash": "d5cca5c7c3a76869c06f45f99c223324ed6174cf3845a9a3e493c00e1e983793", "blockhash": "00000000000000000018f53835495a110e01622372bf6ae95dc86f2b0ab887b0", "vout": [{"scriptPubKey": {"reqSigs": 1, "hex": "a9145d721b2109bc570159d0aadf1cd1bf2aa861dfc187", "addresses": ["3AD7Tc6jU7YG62oUusXGEqEF7k3Pk9KA5E"], "asm": "OP_HASH160 5d721b2109bc570159d0aadf1cd1bf2aa861dfc1 OP_EQUAL", "type": "scripthash"}, "value": 0.018729, "n": 0}, {"scriptPubKey": {"reqSigs": 1, "hex": "a9146dab63aa4c7c1e3c6fb10e0a384431a7ed0601a887", "addresses": ["3Bgttnssv7xioZFxhYVX9egXThxyEAZuqF"], "asm": "OP_HASH160 6dab63aa4c7c1e3c6fb10e0a384431a7ed0601a8 OP_EQUAL", "type": "scripthash"}, "value": 0.00205025, "n": 1}, {"scriptPubKey": {"reqSigs": 1, "hex": "76a91412baf19765a70317279c17c1a2bdc5087107adb588ac", "addresses": ["12i37XkBAZKCZLFRVzDV7RAwMXZpQerLeY"], "asm": "OP_DUP OP_HASH160 12baf19765a70317279c17c1a2bdc5087107adb5 OP_EQUALVERIFY OP_CHECKSIG", "type": "pubkeyhash"}, "value": 8.439e-05, "n": 2}], "hex": "010000000261f6564b5474838761fac46683847be52b3a519a60211313082113317aa9e78700000000da0047304402203957ab4cd7e5bfd0348e85035440fbaa34772363a80e7ff59210318f9761dfce0220520e3eb44e6259478506bc9e0144af1153bbb3e89638aeda37fe5c50f4890ac801483045022100a082ce73b603234c8f5cde83dc331f8edc5b94cb7d408b73212d614cdd6e3a4902207b10a01e1a1e67d88392c0fc07a4e35a54ec4ead1deb78b808b2d1b7d5317e4d01475221022199263da201c6f805b90ce09e83817717dd37727382e7e76ba0e43748d321c42102907a54bed8ad74b3f35638c60114ca240a308cb986f3f2f306178869a8880b6152aeffffffff116c2902e3c8d7ad74149e4446bb005bd603eecde7e023be512cb9e5276cefaa010000006b483045022100a289c97cd93f525843fde1fd9968ff7581d34455a5873b6c3c289fd0fcac817a02201458225d8f6d2a0e478850defd5f98e715758c6fd5cbf0030b0b0b6ca1b24c47012102187e2723d14739ab48653884e4d45afb10d5edecf8a0473140138e6c362db4b5ffffffff0304941c000000000017a9145d721b2109bc570159d0aadf1cd1bf2aa861dfc187e12003000000000017a9146dab63aa4c7c1e3c6fb10e0a384431a7ed0601a887f7200000000000001976a91412baf19765a70317279c17c1a2bdc5087107adb588ac00000000", "vin": [{"sequence": 4294967295, "scriptSig": {"hex": "0047304402203957ab4cd7e5bfd0348e85035440fbaa34772363a80e7ff59210318f9761dfce0220520e3eb44e6259478506bc9e0144af1153bbb3e89638aeda37fe5c50f4890ac801483045022100a082ce73b603234c8f5cde83dc331f8edc5b94cb7d408b73212d614cdd6e3a4902207b10a01e1a1e67d88392c0fc07a4e35a54ec4ead1deb78b808b2d1b7d5317e4d01475221022199263da201c6f805b90ce09e83817717dd37727382e7e76ba0e43748d321c42102907a54bed8ad74b3f35638c60114ca240a308cb986f3f2f306178869a8880b6152ae", "asm": "0 304402203957ab4cd7e5bfd0348e85035440fbaa34772363a80e7ff59210318f9761dfce0220520e3eb44e6259478506bc9e0144af1153bbb3e89638aeda37fe5c50f4890ac8[ALL] 3045022100a082ce73b603234c8f5cde83dc331f8edc5b94cb7d408b73212d614cdd6e3a4902207b10a01e1a1e67d88392c0fc07a4e35a54ec4ead1deb78b808b2d1b7d5317e4d[ALL] 5221022199263da201c6f805b90ce09e83817717dd37727382e7e76ba0e43748d321c42102907a54bed8ad74b3f35638c60114ca240a308cb986f3f2f306178869a8880b6152ae"}, "vout": 0, "txid": "87e7a97a31132108131321609a513a2be57b848366c4fa61878374544b56f661"}, {"sequence": 4294967295, "scriptSig": {"hex": "483045022100a289c97cd93f525843fde1fd9968ff7581d34455a5873b6c3c289fd0fcac817a02201458225d8f6d2a0e478850defd5f98e715758c6fd5cbf0030b0b0b6ca1b24c47012102187e2723d14739ab48653884e4d45afb10d5edecf8a0473140138e6c362db4b5", "asm": "3045022100a289c97cd93f525843fde1fd9968ff7581d34455a5873b6c3c289fd0fcac817a02201458225d8f6d2a0e478850defd5f98e715758c6fd5cbf0030b0b0b6ca1b24c47[ALL] 02187e2723d14739ab48653884e4d45afb10d5edecf8a0473140138e6c362db4b5"}, "vout": 1, "txid": "aaef6c27e5b92c51be23e0e7cdee03d65b00bb46449e1474add7c8e302296c11"}], "txid": "d5cca5c7c3a76869c06f45f99c223324ed6174cf3845a9a3e493c00e1e983793", "blocktime": 1537870928, "version": 1, "confirmations": 11512, "time": 1537870928, "locktime": 0, "vsize": 515, "size": 515}