{"hash": "d5cdc82c7d86400f20f6bd594e8663b4a9757c3f8b417322b0f2d1c6e2cd508c", "blockhash": "00000000000000000017f5eb5941039fbcee6240d03bc1f2f8e35350df66a1d8", "vout": [{"scriptPubKey": {"reqSigs": 1, "hex": "76a914ef845737283f5e1a98afc18820b73e46abb64c1988ac", "addresses": ["1NqT33HrbfnNtCPKA64ZdPZmBxGm1wijZi"], "asm": "OP_DUP OP_HASH160 ef845737283f5e1a98afc18820b73e46abb64c19 OP_EQUALVERIFY OP_CHECKSIG", "type": "pubkeyhash"}, "value": 0.01386064, "n": 0}, {"scriptPubKey": {"type": "nulldata", "hex": "6a4c50000077f20001596859dfde0f563f482be460d19ed074892d00f8e87af8e8e963c7cfd5b93b2237ed0cfe80dc76cc27ea3ab239d65baa1846061386fb9eb5023fbc9a9526289ac0f6612cd74e33776ee4", "asm": "OP_RETURN 000077f20001596859dfde0f563f482be460d19ed074892d00f8e87af8e8e963c7cfd5b93b2237ed0cfe80dc76cc27ea3ab239d65baa1846061386fb9eb5023fbc9a9526289ac0f6612cd74e33776ee4"}, "value": 0.0, "n": 1}], "hex": "0100000001c86b1847ce2b9462ba1bc10f89c7c38490edc02e71280b9b0aa30bfcb3be7808000000006b483045022100c283d90295745c02550860d2d8362cb733c64a1d0b8be0ef89084836daf83f90022070e4ed46081a40bdebdbd7efe75493bac9b4de1f77c424722d82f9dabe3e4d2f0121028d628df82546c2440721fa751f691e5d6df6042be6f9ae3fb41772eb312b5d67ffffffff0250261500000000001976a914ef845737283f5e1a98afc18820b73e46abb64c1988ac0000000000000000536a4c50000077f20001596859dfde0f563f482be460d19ed074892d00f8e87af8e8e963c7cfd5b93b2237ed0cfe80dc76cc27ea3ab239d65baa1846061386fb9eb5023fbc9a9526289ac0f6612cd74e33776ee400000000", "vin": [{"sequence": 4294967295, "scriptSig": {"hex": "483045022100c283d90295745c02550860d2d8362cb733c64a1d0b8be0ef89084836daf83f90022070e4ed46081a40bdebdbd7efe75493bac9b4de1f77c424722d82f9dabe3e4d2f0121028d628df82546c2440721fa751f691e5d6df6042be6f9ae3fb41772eb312b5d67", "asm": "3045022100c283d90295745c02550860d2d8362cb733c64a1d0b8be0ef89084836daf83f90022070e4ed46081a40bdebdbd7efe75493bac9b4de1f77c424722d82f9dabe3e4d2f[ALL] 028d628df82546c2440721fa751f691e5d6df6042be6f9ae3fb41772eb312b5d67"}, "vout": 0, "txid": "0878beb3fc0ba30a9b0b28712ec0ed9084c3c7890fc11bba62942bce47186bc8"}], "txid": "d5cdc82c7d86400f20f6bd594e8663b4a9757c3f8b417322b0f2d1c6e2cd508c", "blocktime": 1537874412, "version": 1, "confirmations": 11467, "time": 1537874412, "locktime": 0, "vsize": 284, "size": 284}