{"hash": "a2ef0af57d89366c5d6cf0b37a49fb5fa49942d74d81c06b6280969dc481defd", "blockhash": "00000000000000000017f5eb5941039fbcee6240d03bc1f2f8e35350df66a1d8", "vout": [{"scriptPubKey": {"reqSigs": 1, "hex": "00140f85b38806f2169c848307f77a93cb67bc10aeca", "addresses": ["bc1qp7zm8zqx7gtfepyrqlmh4y7tv77pptk2zs4uph"], "asm": "0 0f85b38806f2169c848307f77a93cb67bc10aeca", "type": "witness_v0_keyhash"}, "value": 0.00011875, "n": 0}, {"scriptPubKey": {"reqSigs": 1, "hex": "a914781d95b204578e89b32b4635a93c23a9ae5f5e0387", "addresses": ["3Ce8T9X8AN192z8yGH1uRxpx7yykVENk9i"], "asm": "OP_HASH160 781d95b204578e89b32b4635a93c23a9ae5f5e03 OP_EQUAL", "type": "scripthash"}, "value": 0.00434628, "n": 1}], "hex": "010000000001018cad43f6d6cee5f251afb5141fea5abc80ee732c88853151e46892a74faa37fb2900000017160014cb527f148958a2e45855180dea7b9d3473b8464dffffffff02632e0000000000001600140f85b38806f2169c848307f77a93cb67bc10aecac4a106000000000017a914781d95b204578e89b32b4635a93c23a9ae5f5e038702483045022100966791fc8aff6956412be66abd53d487e3776423405bd0e01585355c5058c6a702204751160a64d5402b1ae97bcb7b7e105c42e4db042a6d68b2b59bef8ccbd140190121033a38981571b5fb827f1e91e8eb59c454e54b25450219e527bb4afcd27f7c178500000000", "vin": [{"txinwitness": ["3045022100966791fc8aff6956412be66abd53d487e3776423405bd0e01585355c5058c6a702204751160a64d5402b1ae97bcb7b7e105c42e4db042a6d68b2b59bef8ccbd1401901", "033a38981571b5fb827f1e91e8eb59c454e54b25450219e527bb4afcd27f7c1785"], "sequence": 4294967295, "scriptSig": {"hex": "160014cb527f148958a2e45855180dea7b9d3473b8464d", "asm": "0014cb527f148958a2e45855180dea7b9d3473b8464d"}, "vout": 41, "txid": "fb37aa4fa79268e4513185882c73ee80bc5aea1f14b5af51f2e5ced6f643ad8c"}], "txid": "d5ce11a21afa0639db24f9b7982ce686fe241e50b1332fbaac2af4744fb9fe5b", "blocktime": 1537874412, "version": 1, "confirmations": 11468, "time": 1537874412, "locktime": 0, "vsize": 165, "size": 247}