{"hash": "d5cfa669d95c838ccf7d62a810eede131c86d8a43ead86c905d457ec3b5b26c3", "blockhash": "000000000000000000022b45ed06c6f4ccd3cf7fb5ba4856ebd2e58215665228", "vout": [{"scriptPubKey": {"reqSigs": 1, "hex": "a91477ebdd538f57e470b9848e583df64e0d85fb0de287", "addresses": ["3Cd6tXbH3etN8FtF46Szmw348shN4nhJdv"], "asm": "OP_HASH160 77ebdd538f57e470b9848e583df64e0d85fb0de2 OP_EQUAL", "type": "scripthash"}, "value": 0.22233951, "n": 0}, {"scriptPubKey": {"reqSigs": 1, "hex": "a914788972659cf19efd27938cc193fd5d66449a2e8a87", "addresses": ["3CgMfYD17SYP7ddhUDrbpMUEabymcaFjH5"], "asm": "OP_HASH160 788972659cf19efd27938cc193fd5d66449a2e8a OP_EQUAL", "type": "scripthash"}, "value": 0.04612829, "n": 1}], "hex": "0100000001b572b62091d9f457b5edbab33a571a845551312b41970a52f8947f8a8f7ae38501000000fc004730440220770c4ce69122be3fdc15dd4f4a0bb5afaca241a3ff85a1bdba6608ce37eb230702205cac0c43b23861469acc41caa90c3e44c66fefcb478edf56abd90d3699ac89c40147304402204ac60113af745aee13865e2b21f55cf760b42ed34de2a50b9c3c9037f944b62102206dc6f73e95831f7e8375cdf4aca9390fb9540e728d6755ff3c7292868d3ef607014c69522102684229720615e03a748f9fd20d34c8ae0cdc20a48071305290e8c0607ee6e40621037f38d48aa1beb0c0d56d9f9b4b269ffbdc2dfcf25a1f9db4020adddfd4a25c472103fad02563fffd7b39fcffa91903edd91c964f135bd032d3efe6179612116da34153aeffffffff025f4353010000000017a91477ebdd538f57e470b9848e583df64e0d85fb0de287dd6246000000000017a914788972659cf19efd27938cc193fd5d66449a2e8a8700000000", "vin": [{"sequence": 4294967295, "scriptSig": {"hex": "004730440220770c4ce69122be3fdc15dd4f4a0bb5afaca241a3ff85a1bdba6608ce37eb230702205cac0c43b23861469acc41caa90c3e44c66fefcb478edf56abd90d3699ac89c40147304402204ac60113af745aee13865e2b21f55cf760b42ed34de2a50b9c3c9037f944b62102206dc6f73e95831f7e8375cdf4aca9390fb9540e728d6755ff3c7292868d3ef607014c69522102684229720615e03a748f9fd20d34c8ae0cdc20a48071305290e8c0607ee6e40621037f38d48aa1beb0c0d56d9f9b4b269ffbdc2dfcf25a1f9db4020adddfd4a25c472103fad02563fffd7b39fcffa91903edd91c964f135bd032d3efe6179612116da34153ae", "asm": "0 30440220770c4ce69122be3fdc15dd4f4a0bb5afaca241a3ff85a1bdba6608ce37eb230702205cac0c43b23861469acc41caa90c3e44c66fefcb478edf56abd90d3699ac89c4[ALL] 304402204ac60113af745aee13865e2b21f55cf760b42ed34de2a50b9c3c9037f944b62102206dc6f73e95831f7e8375cdf4aca9390fb9540e728d6755ff3c7292868d3ef607[ALL] 522102684229720615e03a748f9fd20d34c8ae0cdc20a48071305290e8c0607ee6e40621037f38d48aa1beb0c0d56d9f9b4b269ffbdc2dfcf25a1f9db4020adddfd4a25c472103fad02563fffd7b39fcffa91903edd91c964f135bd032d3efe6179612116da34153ae"}, "vout": 1, "txid": "85e37a8f8a7f94f8520a97412b315155841a573ab3baedb557f4d99120b672b5"}], "txid": "d5cfa669d95c838ccf7d62a810eede131c86d8a43ead86c905d457ec3b5b26c3", "blocktime": 1537869901, "version": 1, "confirmations": 11522, "time": 1537869901, "locktime": 0, "vsize": 367, "size": 367}