{"hash": "d5d093d9ad9cc045d39403cd805b471b58b9500c54e27f8f7d917aea2b4a22d0", "blockhash": "00000000000000000018f53835495a110e01622372bf6ae95dc86f2b0ab887b0", "vout": [{"scriptPubKey": {"reqSigs": 1, "hex": "76a914c10cc0909ae860486da569783b77fa98376cc7bc88ac", "addresses": ["1Jbkh4bwmKSVK65jxuAiWNmE2GqVTdvmng"], "asm": "OP_DUP OP_HASH160 c10cc0909ae860486da569783b77fa98376cc7bc OP_EQUALVERIFY OP_CHECKSIG", "type": "pubkeyhash"}, "value": 0.001849, "n": 0}, {"scriptPubKey": {"reqSigs": 1, "hex": "76a914a92d28fa39c5c380bb528f15467b57f94e4d35ff88ac", "addresses": ["1GRXJCMxNRADLyTAdX8JYYwev1ZCqiBc1P"], "asm": "OP_DUP OP_HASH160 a92d28fa39c5c380bb528f15467b57f94e4d35ff OP_EQUALVERIFY OP_CHECKSIG", "type": "pubkeyhash"}, "value": 0.00323032, "n": 1}], "hex": "01000000010155aaf653203a6d9c995febcdfbf24fc02425ebcfb09cb2d28232238b7b1cf4000000006b483045022100c7ebc23f9526faad58abea4bfae0f8855b307c795fc8566d85353164c1cf29ee022065416b682c6826484f27a6605fae2600d2a598fb4c07a1ef4395bcc164971abd01210249a6a4bc2eaa3cfe6dcc2388ca8bf079637355289942c57083e28b839d66cdafffffffff0244d20200000000001976a914c10cc0909ae860486da569783b77fa98376cc7bc88acd8ed0400000000001976a914a92d28fa39c5c380bb528f15467b57f94e4d35ff88ac00000000", "vin": [{"sequence": 4294967295, "scriptSig": {"hex": "483045022100c7ebc23f9526faad58abea4bfae0f8855b307c795fc8566d85353164c1cf29ee022065416b682c6826484f27a6605fae2600d2a598fb4c07a1ef4395bcc164971abd01210249a6a4bc2eaa3cfe6dcc2388ca8bf079637355289942c57083e28b839d66cdaf", "asm": "3045022100c7ebc23f9526faad58abea4bfae0f8855b307c795fc8566d85353164c1cf29ee022065416b682c6826484f27a6605fae2600d2a598fb4c07a1ef4395bcc164971abd[ALL] 0249a6a4bc2eaa3cfe6dcc2388ca8bf079637355289942c57083e28b839d66cdaf"}, "vout": 0, "txid": "f41c7b8b233282d2b29cb0cfeb2524c04ff2fbcdeb5f999c6d3a2053f6aa5501"}], "txid": "d5d093d9ad9cc045d39403cd805b471b58b9500c54e27f8f7d917aea2b4a22d0", "blocktime": 1537870928, "version": 1, "confirmations": 11514, "time": 1537870928, "locktime": 0, "vsize": 226, "size": 226}