{"hash": "d5d71fdd811c92894d0259497d639bc3eb4578a9b0c57ee401d45f5880a2852a", "blockhash": "00000000000000000004ffacab907a6b429b9a5745fa0b75af4234bf69dd7176", "vout": [{"scriptPubKey": {"reqSigs": 1, "hex": "a9145227d8930dd8c2f19fee5bf202e30d79339631c587", "addresses": ["39BR4pdb9Bg1n7vyGRGg5zwBh8eQP8hwHk"], "asm": "OP_HASH160 5227d8930dd8c2f19fee5bf202e30d79339631c5 OP_EQUAL", "type": "scripthash"}, "value": 0.01278681, "n": 0}, {"scriptPubKey": {"reqSigs": 1, "hex": "76a914348b090e5e2742eda657e137df3bbc2ff96e346c88ac", "addresses": ["15nphKheXjLVmmnFXYLeiWqHPQzxSP7NTE"], "asm": "OP_DUP OP_HASH160 348b090e5e2742eda657e137df3bbc2ff96e346c OP_EQUALVERIFY OP_CHECKSIG", "type": "pubkeyhash"}, "value": 0.09497523, "n": 1}], "hex": "0100000002030d80996dad5a845b1dc655be03d38e5f45a621f8d061af509797a2349e7f94640000008b483045022100d5d32c05b8c0f985e7c9891c6af4d50a08a7c5bef7eeec54e8f3b8c0fb683998022075aa05282466dc9b7ae971d8cf402ecba624276f6a81a4de4fcc38d78bd36f1d014104cad32ce89201e8fa21f1e9d9cf2fba8b4c51388b43e9bfd55e74d86829faa250b340f9a13ce34f3163f8c7e9900d07fe1d397ca0919fe59ca54a385184d187abffffffffa6ed370e59b93b5e2ed04b0e43e1f1c1e0bf4400aa18ec7ddf90e3be99026a3f010000006b483045022100b46a781b88d263929031620025428852b7912773d7c30e17291f8ac8dc56876a0220593ff8370f2f17bb4bbfdf1cd06d90d4d1dc5ee6eccb28789c79344f99bba75a01210304e42719bf5df8a45b0f60a633adf14889031f4a8290d6e810715d91d19549aaffffffff02d98213000000000017a9145227d8930dd8c2f19fee5bf202e30d79339631c587b3eb9000000000001976a914348b090e5e2742eda657e137df3bbc2ff96e346c88ac00000000", "vin": [{"sequence": 4294967295, "scriptSig": {"hex": "483045022100d5d32c05b8c0f985e7c9891c6af4d50a08a7c5bef7eeec54e8f3b8c0fb683998022075aa05282466dc9b7ae971d8cf402ecba624276f6a81a4de4fcc38d78bd36f1d014104cad32ce89201e8fa21f1e9d9cf2fba8b4c51388b43e9bfd55e74d86829faa250b340f9a13ce34f3163f8c7e9900d07fe1d397ca0919fe59ca54a385184d187ab", "asm": "3045022100d5d32c05b8c0f985e7c9891c6af4d50a08a7c5bef7eeec54e8f3b8c0fb683998022075aa05282466dc9b7ae971d8cf402ecba624276f6a81a4de4fcc38d78bd36f1d[ALL] 04cad32ce89201e8fa21f1e9d9cf2fba8b4c51388b43e9bfd55e74d86829faa250b340f9a13ce34f3163f8c7e9900d07fe1d397ca0919fe59ca54a385184d187ab"}, "vout": 100, "txid": "947f9e34a2979750af61d0f821a6455f8ed303be55c61d5b845aad6d99800d03"}, {"sequence": 4294967295, "scriptSig": {"hex": "483045022100b46a781b88d263929031620025428852b7912773d7c30e17291f8ac8dc56876a0220593ff8370f2f17bb4bbfdf1cd06d90d4d1dc5ee6eccb28789c79344f99bba75a01210304e42719bf5df8a45b0f60a633adf14889031f4a8290d6e810715d91d19549aa", "asm": "3045022100b46a781b88d263929031620025428852b7912773d7c30e17291f8ac8dc56876a0220593ff8370f2f17bb4bbfdf1cd06d90d4d1dc5ee6eccb28789c79344f99bba75a[ALL] 0304e42719bf5df8a45b0f60a633adf14889031f4a8290d6e810715d91d19549aa"}, "vout": 1, "txid": "3f6a0299bee390df7dec18aa0044bfe0c1f1e1430e4bd02e5e3bb9590e37eda6"}], "txid": "d5d71fdd811c92894d0259497d639bc3eb4578a9b0c57ee401d45f5880a2852a", "blocktime": 1537875543, "version": 1, "confirmations": 11464, "time": 1537875543, "locktime": 0, "vsize": 404, "size": 404}