{"hash": "d5d767e60cc62cdc73ce7208a05ace900b2db66bd28efb2fe638a26b292bdc43", "blockhash": "000000000000000000022b45ed06c6f4ccd3cf7fb5ba4856ebd2e58215665228", "vout": [{"scriptPubKey": {"reqSigs": 1, "hex": "76a9142e45521369572f12623245b99d7f5192b36787c088ac", "addresses": ["15Df8JfSUBn4xAfiHj8K7aUm5wE9xCN9wE"], "asm": "OP_DUP OP_HASH160 2e45521369572f12623245b99d7f5192b36787c0 OP_EQUALVERIFY OP_CHECKSIG", "type": "pubkeyhash"}, "value": 0.0297424, "n": 0}, {"scriptPubKey": {"reqSigs": 1, "hex": "a9146a49a61a5382136ed0aadbff0dffddb6c73c39bc87", "addresses": ["3BP1n676qKCcABc3fjLhwE9zN8c5KYNse1"], "asm": "OP_HASH160 6a49a61a5382136ed0aadbff0dffddb6c73c39bc OP_EQUAL", "type": "scripthash"}, "value": 0.04479409, "n": 1}], "hex": "01000000021d871bfae6f892526d8be5deedd89c78f8f8a59fd3e45d9c289acdf25fddc11d010000006a47304402206307c3f1f4d808d8a8d68b5e1f4b39a644d84c4de899d2101df93bc21057563f0220126c92fa5dc824eff6350ded57408c6cbf295731ce294a7bc54b885d07240a11012102967dd8a59daaa2b4e95341f0a0045a849f8864833bf88387058bbdf3a6be793affffffffc04a1b37565f06e362f6bcabc30835f1246c19079541f89a0266c9c769eff999000000006a473044022007e6e0f35a1fde2d96e4010603fc11fe90ee757f03e42d613af71406d59170580220274ca133114f71142ddd0ddfb7f7ebfef56f71c7a652c89f159fd44756d90f28012103b6695e733bdf70751963811d3c4db6d6381bc18bf10217b211b10e80b5c66c21ffffffff0220622d00000000001976a9142e45521369572f12623245b99d7f5192b36787c088acb15944000000000017a9146a49a61a5382136ed0aadbff0dffddb6c73c39bc8700000000", "vin": [{"sequence": 4294967295, "scriptSig": {"hex": "47304402206307c3f1f4d808d8a8d68b5e1f4b39a644d84c4de899d2101df93bc21057563f0220126c92fa5dc824eff6350ded57408c6cbf295731ce294a7bc54b885d07240a11012102967dd8a59daaa2b4e95341f0a0045a849f8864833bf88387058bbdf3a6be793a", "asm": "304402206307c3f1f4d808d8a8d68b5e1f4b39a644d84c4de899d2101df93bc21057563f0220126c92fa5dc824eff6350ded57408c6cbf295731ce294a7bc54b885d07240a11[ALL] 02967dd8a59daaa2b4e95341f0a0045a849f8864833bf88387058bbdf3a6be793a"}, "vout": 1, "txid": "1dc1dd5ff2cd9a289c5de4d39fa5f8f8789cd8eddee58b6d5292f8e6fa1b871d"}, {"sequence": 4294967295, "scriptSig": {"hex": "473044022007e6e0f35a1fde2d96e4010603fc11fe90ee757f03e42d613af71406d59170580220274ca133114f71142ddd0ddfb7f7ebfef56f71c7a652c89f159fd44756d90f28012103b6695e733bdf70751963811d3c4db6d6381bc18bf10217b211b10e80b5c66c21", "asm": "3044022007e6e0f35a1fde2d96e4010603fc11fe90ee757f03e42d613af71406d59170580220274ca133114f71142ddd0ddfb7f7ebfef56f71c7a652c89f159fd44756d90f28[ALL] 03b6695e733bdf70751963811d3c4db6d6381bc18bf10217b211b10e80b5c66c21"}, "vout": 0, "txid": "99f9ef69c7c966029af8419507196c24f13508c3abbcf662e3065f56371b4ac0"}], "txid": "d5d767e60cc62cdc73ce7208a05ace900b2db66bd28efb2fe638a26b292bdc43", "blocktime": 1537869901, "version": 1, "confirmations": 11522, "time": 1537869901, "locktime": 0, "vsize": 370, "size": 370}