{"hash": "a2c642ade550112324eb40eca6dc00a6a4ce27d1419ca55b86241a965d1ef128", "blockhash": "00000000000000000024a2167bbff67b0be802c0b01cdd79e6331c2be6459f87", "vout": [{"scriptPubKey": {"reqSigs": 1, "hex": "76a914e6138a361ab98c03f6dc0a968ef7b9638da81b2888ac", "addresses": ["1MyXpn2CywFbYY4b5T8NV1pJfJST7i6WuB"], "asm": "OP_DUP OP_HASH160 e6138a361ab98c03f6dc0a968ef7b9638da81b28 OP_EQUALVERIFY OP_CHECKSIG", "type": "pubkeyhash"}, "value": 0.00676, "n": 0}, {"scriptPubKey": {"reqSigs": 1, "hex": "a914024050b8343a7de78d68ac677df00ede6b58a20c87", "addresses": ["31tvKdhW4NDWrabMsxtw5cLUN8GpKTYUwf"], "asm": "OP_HASH160 024050b8343a7de78d68ac677df00ede6b58a20c OP_EQUAL", "type": "scripthash"}, "value": 0.0099741, "n": 1}], "hex": "02000000000102368b9bfc36ad075d60cb8ac672c19c7810bb3d8c45ec9089e0a232255cf86ea106000000171600145bb9b88dc84110c87d77fa23086371a1a87be033feffffff405c654f1bcdd0b8c6de8d90a01d88cd030d519c26afdcb9b16615fcc1cd7a080000000017160014ac8189a124f23ce3c8534a6f4a75db5f1355a1d0feffffff02a0500a00000000001976a914e6138a361ab98c03f6dc0a968ef7b9638da81b2888ac22380f000000000017a914024050b8343a7de78d68ac677df00ede6b58a20c8702483045022100dab64c5f96299ee85ca7cba3b69fab1d601f4c7fdad144509729d2138567e2a00220441c9fc1109ec02af0caef972af4544c7bf14df1d3b43f7448abb01d283b42ca0121026d32adf645c58005dcab1392dc87669b7c454629eca61c7ffd40eb5b9643efa10247304402202d781e2c646ffc29ae9d1984de1f24ec9b32fa3285f3333968bffd4d07a530b802202422427ab811d868409824716e4e9d5e56e65c98060462f0c4cb847dac9940ab01210338fcebc31dfe43d8c4ed407866efedc53c9746debfc43a855f6539547321a5db0d490800", "vin": [{"txinwitness": ["3045022100dab64c5f96299ee85ca7cba3b69fab1d601f4c7fdad144509729d2138567e2a00220441c9fc1109ec02af0caef972af4544c7bf14df1d3b43f7448abb01d283b42ca01", "026d32adf645c58005dcab1392dc87669b7c454629eca61c7ffd40eb5b9643efa1"], "sequence": 4294967294, "scriptSig": {"hex": "1600145bb9b88dc84110c87d77fa23086371a1a87be033", "asm": "00145bb9b88dc84110c87d77fa23086371a1a87be033"}, "vout": 6, "txid": "a16ef85c2532a2e08990ec458c3dbb10789cc172c68acb605d07ad36fc9b8b36"}, {"txinwitness": ["304402202d781e2c646ffc29ae9d1984de1f24ec9b32fa3285f3333968bffd4d07a530b802202422427ab811d868409824716e4e9d5e56e65c98060462f0c4cb847dac9940ab01", "0338fcebc31dfe43d8c4ed407866efedc53c9746debfc43a855f6539547321a5db"], "sequence": 4294967294, "scriptSig": {"hex": "160014ac8189a124f23ce3c8534a6f4a75db5f1355a1d0", "asm": "0014ac8189a124f23ce3c8534a6f4a75db5f1355a1d0"}, "vout": 0, "txid": "087acdc1fc1566b1b9dcaf269c510d03cd881da0908ddec6b8d0cd1b4f655c40"}], "txid": "d5d8930988275a085baa68398fa9b588ca211ab7c3693ea18ae52f197e883b2f", "blocktime": 1537870564, "version": 2, "confirmations": 11515, "time": 1537870564, "locktime": 542989, "vsize": 259, "size": 421}