{"hash": "d5dabc0dd2db623998641c93da53d837da085a2e475a8f8df7a9d28d5fa72c86", "blockhash": "0000000000000000000baef3f32e3676a92c3b2e5da21b426e4f302fc371ce76", "vout": [{"scriptPubKey": {"reqSigs": 1, "hex": "a91444412bf25b4ab0af377d71be7a4a1aa36e25e24a87", "addresses": ["37uuwo4h9Wv3ej6KsxzsSy4D3QFkywypiV"], "asm": "OP_HASH160 44412bf25b4ab0af377d71be7a4a1aa36e25e24a OP_EQUAL", "type": "scripthash"}, "value": 0.00494809, "n": 0}, {"scriptPubKey": {"reqSigs": 1, "hex": "76a914d98f12439107f8e0f863b993a3564f2aa5cdb08988ac", "addresses": ["1LqM2Q7HU6RYtaic1pkA1oqsttoT5sgxNM"], "asm": "OP_DUP OP_HASH160 d98f12439107f8e0f863b993a3564f2aa5cdb089 OP_EQUALVERIFY OP_CHECKSIG", "type": "pubkeyhash"}, "value": 0.01202195, "n": 1}], "hex": "01000000010aeb8445faa309c0da7a71b42c43bf3dc8d47b35d8b2be5994e4abbb1b793943010000006a4730440220207021b30ade3461132973d4f77fc2f0f348d165df8fc3ddc1627cc2abd19f1702203034ee03207378d2c955cd224b67fa2695ecd7846fcd6b7699eb38d2299e6405012103dff1d5d5ee32ce32f09ca0b427411d73a64a21a82c78e54a4f726d6ba291adc3ffffffff02d98c07000000000017a91444412bf25b4ab0af377d71be7a4a1aa36e25e24a8713581200000000001976a914d98f12439107f8e0f863b993a3564f2aa5cdb08988ac00000000", "vin": [{"sequence": 4294967295, "scriptSig": {"hex": "4730440220207021b30ade3461132973d4f77fc2f0f348d165df8fc3ddc1627cc2abd19f1702203034ee03207378d2c955cd224b67fa2695ecd7846fcd6b7699eb38d2299e6405012103dff1d5d5ee32ce32f09ca0b427411d73a64a21a82c78e54a4f726d6ba291adc3", "asm": "30440220207021b30ade3461132973d4f77fc2f0f348d165df8fc3ddc1627cc2abd19f1702203034ee03207378d2c955cd224b67fa2695ecd7846fcd6b7699eb38d2299e6405[ALL] 03dff1d5d5ee32ce32f09ca0b427411d73a64a21a82c78e54a4f726d6ba291adc3"}, "vout": 1, "txid": "4339791bbbabe49459beb2d8357bd4c83dbf432cb4717adac009a3fa4584eb0a"}], "txid": "d5dabc0dd2db623998641c93da53d837da085a2e475a8f8df7a9d28d5fa72c86", "blocktime": 1537876114, "version": 1, "confirmations": 11459, "time": 1537876114, "locktime": 0, "vsize": 223, "size": 223}