{"hash": "d5dee38e0cc43db8e9393e6736e3be4ae07587475e370a71ad0b8ad9c1930e2e", "blockhash": "0000000000000000001f76057863aec43deb6fa401d9628bb513d65a8098bfab", "vout": [{"scriptPubKey": {"reqSigs": 1, "hex": "76a914cc8434d9fda1f8363bb330281906aacf4ea4f8ff88ac", "addresses": ["1KePDzvZJRktVY49Mgf31QSaNhmffCZMhs"], "asm": "OP_DUP OP_HASH160 cc8434d9fda1f8363bb330281906aacf4ea4f8ff OP_EQUALVERIFY OP_CHECKSIG", "type": "pubkeyhash"}, "value": 0.06783851, "n": 0}], "hex": "0100000001a551a00396c8ae8b597373bfb8333475d371f5fa7ba202303fc846f089f0c615010000006b483045022100e1708184faa5e01b298b4297d64f59998663e58dac32d1632f244950d9f72ea102201a7bc5efa00d1fa2eb9bf979367f3b25a840b8187a407c7a06c8d67f3eb745ae01210254dae4c8dd020cfbf56c1fd9a51dfd1ccc9a17d1805c2bd6e52b7a6298a6af76ffffffff016b836700000000001976a914cc8434d9fda1f8363bb330281906aacf4ea4f8ff88ac00000000", "vin": [{"sequence": 4294967295, "scriptSig": {"hex": "483045022100e1708184faa5e01b298b4297d64f59998663e58dac32d1632f244950d9f72ea102201a7bc5efa00d1fa2eb9bf979367f3b25a840b8187a407c7a06c8d67f3eb745ae01210254dae4c8dd020cfbf56c1fd9a51dfd1ccc9a17d1805c2bd6e52b7a6298a6af76", "asm": "3045022100e1708184faa5e01b298b4297d64f59998663e58dac32d1632f244950d9f72ea102201a7bc5efa00d1fa2eb9bf979367f3b25a840b8187a407c7a06c8d67f3eb745ae[ALL] 0254dae4c8dd020cfbf56c1fd9a51dfd1ccc9a17d1805c2bd6e52b7a6298a6af76"}, "vout": 1, "txid": "15c6f089f046c83f3002a27bfaf571d3753433b8bf7373598baec89603a051a5"}], "txid": "d5dee38e0cc43db8e9393e6736e3be4ae07587475e370a71ad0b8ad9c1930e2e", "blocktime": 1537873891, "version": 1, "confirmations": 11475, "time": 1537873891, "locktime": 0, "vsize": 192, "size": 192}