{"hash": "d5e0befbf89dc4417c2da4c34cf94f71e26bf5a345709c508831dd83d937e510", "blockhash": "0000000000000000001cda96e906b7601b7a6fb1a3b62bca570a9e5d8f4b3de1", "vout": [{"scriptPubKey": {"type": "nulldata", "hex": "6a146f6d6e69000000000000001f000000d805307e00", "asm": "OP_RETURN 6f6d6e69000000000000001f000000d805307e00"}, "value": 0.0, "n": 0}, {"scriptPubKey": {"reqSigs": 1, "hex": "76a914fcdce6dde45f5da1bf0861001d18f7e07adc9aaa88ac", "addresses": ["1Q41usQQYGCUawedTucMydksUyWP7AJAtz"], "asm": "OP_DUP OP_HASH160 fcdce6dde45f5da1bf0861001d18f7e07adc9aaa OP_EQUALVERIFY OP_CHECKSIG", "type": "pubkeyhash"}, "value": 5.46e-06, "n": 1}, {"scriptPubKey": {"reqSigs": 1, "hex": "76a91407836037a0dafa6cc55cd5e39b43009ce9ac1ee388ac", "addresses": ["1gj7VpHptCG4MbbaQZtJmo1VmPL6nMH6m"], "asm": "OP_DUP OP_HASH160 07836037a0dafa6cc55cd5e39b43009ce9ac1ee3 OP_EQUALVERIFY OP_CHECKSIG", "type": "pubkeyhash"}, "value": 0.16237536, "n": 2}], "hex": "01000000013c89193084a56ccaa32ffeae101680f02d70cdf8764c6c34779825aa4b4b0a6a020000006a47304402201b788c2be91a7b73e323a2c983d6868049924c2bd3d072ab6700b56df01ab341022066fc04a1b311ae757f87fced33457acc8c9631aa3413a1aaed50ed6f79747ec80121030f088c9e8403b7f3439de04f80afd0298bf3f4bb500e85afb7a81a3fd52110a4feffffff030000000000000000166a146f6d6e69000000000000001f000000d805307e0022020000000000001976a914fcdce6dde45f5da1bf0861001d18f7e07adc9aaa88ace0c3f700000000001976a91407836037a0dafa6cc55cd5e39b43009ce9ac1ee388ac13490800", "vin": [{"sequence": 4294967294, "scriptSig": {"hex": "47304402201b788c2be91a7b73e323a2c983d6868049924c2bd3d072ab6700b56df01ab341022066fc04a1b311ae757f87fced33457acc8c9631aa3413a1aaed50ed6f79747ec80121030f088c9e8403b7f3439de04f80afd0298bf3f4bb500e85afb7a81a3fd52110a4", "asm": "304402201b788c2be91a7b73e323a2c983d6868049924c2bd3d072ab6700b56df01ab341022066fc04a1b311ae757f87fced33457acc8c9631aa3413a1aaed50ed6f79747ec8[ALL] 030f088c9e8403b7f3439de04f80afd0298bf3f4bb500e85afb7a81a3fd52110a4"}, "vout": 2, "txid": "6a0a4b4baa259877346c4c76f8cd702df0801610aefe2fa3ca6ca5843019893c"}], "txid": "d5e0befbf89dc4417c2da4c34cf94f71e26bf5a345709c508831dd83d937e510", "blocktime": 1537873282, "version": 1, "confirmations": 11480, "time": 1537873282, "locktime": 542995, "vsize": 256, "size": 256}