{"hash": "d5e34397d0a5ea0111276d7d5ce44638ca40bc8bb11f9481638664d4236995ab", "blockhash": "00000000000000000017f5eb5941039fbcee6240d03bc1f2f8e35350df66a1d8", "vout": [{"scriptPubKey": {"reqSigs": 1, "hex": "76a9145d0c688ff58445cc1613fdad115cd13a367a5a7a88ac", "addresses": ["19UzhzfYWfmhCimHkCAppz5dgahdURFP29"], "asm": "OP_DUP OP_HASH160 5d0c688ff58445cc1613fdad115cd13a367a5a7a OP_EQUALVERIFY OP_CHECKSIG", "type": "pubkeyhash"}, "value": 0.00032502, "n": 0}, {"scriptPubKey": {"reqSigs": 1, "hex": "a914a3e29d19fe036668a5d30d18458d6652f72b0d7e87", "addresses": ["3GdZYCvsQS6niYzPJP933w2hW8yzcWs4ZB"], "asm": "OP_HASH160 a3e29d19fe036668a5d30d18458d6652f72b0d7e OP_EQUAL", "type": "scripthash"}, "value": 0.02002048, "n": 1}], "hex": "01000000018b0773659d28c2d99898af7bd5749056cce63cb1562a0f048e672b4b2305ccf6020000006a47304402201e7bea77b04b07edf89932191bdbd3128eb3ec9824194273b1771f849541e55302200de0e290ce85f65d8d976fb7dbe8c7bcda5dfb8a6ba52c03234cd425e57fd48f012103c51db4a708221ece8247ecf518b78461cfc341b37ef760940ffa07129523a8ceffffffff02f67e0000000000001976a9145d0c688ff58445cc1613fdad115cd13a367a5a7a88ac808c1e000000000017a914a3e29d19fe036668a5d30d18458d6652f72b0d7e8700000000", "vin": [{"sequence": 4294967295, "scriptSig": {"hex": "47304402201e7bea77b04b07edf89932191bdbd3128eb3ec9824194273b1771f849541e55302200de0e290ce85f65d8d976fb7dbe8c7bcda5dfb8a6ba52c03234cd425e57fd48f012103c51db4a708221ece8247ecf518b78461cfc341b37ef760940ffa07129523a8ce", "asm": "304402201e7bea77b04b07edf89932191bdbd3128eb3ec9824194273b1771f849541e55302200de0e290ce85f65d8d976fb7dbe8c7bcda5dfb8a6ba52c03234cd425e57fd48f[ALL] 03c51db4a708221ece8247ecf518b78461cfc341b37ef760940ffa07129523a8ce"}, "vout": 2, "txid": "f6cc05234b2b678e040f2a56b13ce6cc569074d57baf9898d9c2289d6573078b"}], "txid": "d5e34397d0a5ea0111276d7d5ce44638ca40bc8bb11f9481638664d4236995ab", "blocktime": 1537874412, "version": 1, "confirmations": 11467, "time": 1537874412, "locktime": 0, "vsize": 223, "size": 223}