{"hash": "d5e46f5b48f8cb17342afc50a6d859c55399f9fd43dbcdbeb3720eb4218b6afb", "blockhash": "000000000000000000022b45ed06c6f4ccd3cf7fb5ba4856ebd2e58215665228", "vout": [{"scriptPubKey": {"reqSigs": 1, "hex": "76a91404a3cfa933dd31407895a3d7de385061e11945f288ac", "addresses": ["1RXwZuXH5TYJQmNtSvkVUhs3u3TWKuTU8"], "asm": "OP_DUP OP_HASH160 04a3cfa933dd31407895a3d7de385061e11945f2 OP_EQUALVERIFY OP_CHECKSIG", "type": "pubkeyhash"}, "value": 0.10551242, "n": 0}], "hex": "0100000001a60b7587cc945bde1a57cc9f9fe39712f98f6b3959eb82e6b06745cb33774772000000006b483045022100887fee05e75b6f888c022b3e985cf2620a02da12aaf3b311e757775480b1b88b02207beccbbb11966ef87a5ba3aeb3e06466a00276a977db308bdb4b8b3944b636470121039ba5c3595814898c3a9de14d6d707df65aa4fea87ce5c58ecd4e526a53d026aaffffffff01caffa000000000001976a91404a3cfa933dd31407895a3d7de385061e11945f288ac00000000", "vin": [{"sequence": 4294967295, "scriptSig": {"hex": "483045022100887fee05e75b6f888c022b3e985cf2620a02da12aaf3b311e757775480b1b88b02207beccbbb11966ef87a5ba3aeb3e06466a00276a977db308bdb4b8b3944b636470121039ba5c3595814898c3a9de14d6d707df65aa4fea87ce5c58ecd4e526a53d026aa", "asm": "3045022100887fee05e75b6f888c022b3e985cf2620a02da12aaf3b311e757775480b1b88b02207beccbbb11966ef87a5ba3aeb3e06466a00276a977db308bdb4b8b3944b63647[ALL] 039ba5c3595814898c3a9de14d6d707df65aa4fea87ce5c58ecd4e526a53d026aa"}, "vout": 0, "txid": "72477733cb4567b0e682eb59396b8ff91297e39f9fcc571ade5b94cc87750ba6"}], "txid": "d5e46f5b48f8cb17342afc50a6d859c55399f9fd43dbcdbeb3720eb4218b6afb", "blocktime": 1537869901, "version": 1, "confirmations": 11522, "time": 1537869901, "locktime": 0, "vsize": 192, "size": 192}