{"hash": "d5e960bfcc18a6fb4cd698d12b110b955412c8d048860bf33de10f7b271e1cc7", "blockhash": "00000000000000000024a2167bbff67b0be802c0b01cdd79e6331c2be6459f87", "vout": [{"scriptPubKey": {"reqSigs": 1, "hex": "76a9140603bcc74e0ccef3121a2665688f48249e722ad388ac", "addresses": ["1YoXqDBtbo6JLXo7YR9ih6TT1URhWHC2x"], "asm": "OP_DUP OP_HASH160 0603bcc74e0ccef3121a2665688f48249e722ad3 OP_EQUALVERIFY OP_CHECKSIG", "type": "pubkeyhash"}, "value": 0.01079207, "n": 0}, {"scriptPubKey": {"reqSigs": 1, "hex": "a9143856e8264b41ec405f408a63e28c2880f282e90087", "addresses": ["36pusgLJ4qnC3oB6PRqoUnBrb9oCYbdZMu"], "asm": "OP_HASH160 3856e8264b41ec405f408a63e28c2880f282e900 OP_EQUAL", "type": "scripthash"}, "value": 0.0312826, "n": 1}], "hex": "0200000002f1e50a8385fae2c841eb95d2ffe5f2c8d782fa6f20d869d84d2794591f11dea5010000006b483045022100c48aa05b6bcd8a452d2e9c4da5ff71f86ed58aa84b479444f27268909d8619f8022045c0d8fac6bf3dac17c57049176f23a274ab5916c9a61caa0ed870032af3dbf70121028f091b2887f8e70dc68f9b92e3cbe02418fd2eeba870c201de3049cee49f5775feffffff55f567f714b89f7be6e1a00c278bb2bfdd7e76562245cb1978ebb8983db9b7a0010000006a4730440220595541496b5a1efdddadeb47b856b29892180dacd39b266762ea99389dad7cdf022066a4729b17afc8d70dfc4f2f3735c5bc7b8e05a3c8f055549a805ed42bb354ba0121025686438e088598ee1d110f259bfe23b3455203bd5b2cc8502521af75af9d7ba0feffffff02a7771000000000001976a9140603bcc74e0ccef3121a2665688f48249e722ad388acc4bb2f000000000017a9143856e8264b41ec405f408a63e28c2880f282e900870c490800", "vin": [{"sequence": 4294967294, "scriptSig": {"hex": "483045022100c48aa05b6bcd8a452d2e9c4da5ff71f86ed58aa84b479444f27268909d8619f8022045c0d8fac6bf3dac17c57049176f23a274ab5916c9a61caa0ed870032af3dbf70121028f091b2887f8e70dc68f9b92e3cbe02418fd2eeba870c201de3049cee49f5775", "asm": "3045022100c48aa05b6bcd8a452d2e9c4da5ff71f86ed58aa84b479444f27268909d8619f8022045c0d8fac6bf3dac17c57049176f23a274ab5916c9a61caa0ed870032af3dbf7[ALL] 028f091b2887f8e70dc68f9b92e3cbe02418fd2eeba870c201de3049cee49f5775"}, "vout": 1, "txid": "a5de111f5994274dd869d8206ffa82d7c8f2e5ffd295eb41c8e2fa85830ae5f1"}, {"sequence": 4294967294, "scriptSig": {"hex": "4730440220595541496b5a1efdddadeb47b856b29892180dacd39b266762ea99389dad7cdf022066a4729b17afc8d70dfc4f2f3735c5bc7b8e05a3c8f055549a805ed42bb354ba0121025686438e088598ee1d110f259bfe23b3455203bd5b2cc8502521af75af9d7ba0", "asm": "30440220595541496b5a1efdddadeb47b856b29892180dacd39b266762ea99389dad7cdf022066a4729b17afc8d70dfc4f2f3735c5bc7b8e05a3c8f055549a805ed42bb354ba[ALL] 025686438e088598ee1d110f259bfe23b3455203bd5b2cc8502521af75af9d7ba0"}, "vout": 1, "txid": "a0b7b93d98b8eb7819cb452256767eddbfb28b270ca0e1e67b9fb814f767f555"}], "txid": "d5e960bfcc18a6fb4cd698d12b110b955412c8d048860bf33de10f7b271e1cc7", "blocktime": 1537870564, "version": 2, "confirmations": 11515, "time": 1537870564, "locktime": 542988, "vsize": 371, "size": 371}