{"hash": "d27f1e3a500e55702418c032fa00db0306bb9c4244ecd4e22c002bf7a81e1d27", "blockhash": "0000000000000000000dcc0f55137456b1a82d3642486a52398922ac4d620174", "vout": [{"scriptPubKey": {"reqSigs": 1, "hex": "a914a6dae6cb31b7c01dfb163c7a30f7bf5627096f9687", "addresses": ["3GuGKw5DbfZx7BTS3R2e5XQgsRVQHnGV5f"], "asm": "OP_HASH160 a6dae6cb31b7c01dfb163c7a30f7bf5627096f96 OP_EQUAL", "type": "scripthash"}, "value": 0.00311888, "n": 0}, {"scriptPubKey": {"reqSigs": 1, "hex": "a91401db724084b40a1f1f9d10e2b9265696bc637dec87", "addresses": ["31rqV8axvA66ZRmykCyuWB3p9BS96CCgfY"], "asm": "OP_HASH160 01db724084b40a1f1f9d10e2b9265696bc637dec OP_EQUAL", "type": "scripthash"}, "value": 0.007, "n": 1}, {"scriptPubKey": {"reqSigs": 1, "hex": "a914d1ba34d175bd9a92927d01e4f1627e3ce8bf659287", "addresses": ["3LoxDUhK8xaUCheE7BetEXkdyRFqNSaPvx"], "asm": "OP_HASH160 d1ba34d175bd9a92927d01e4f1627e3ce8bf6592 OP_EQUAL", "type": "scripthash"}, "value": 0.01273009, "n": 2}, {"scriptPubKey": {"reqSigs": 1, "hex": "a914bddce1db77593a7ac8d67f0d488c4311d5103ffa87", "addresses": ["3JzvEy64J63pDv7KjyKsVzupMgKcwdgQU4"], "asm": "OP_HASH160 bddce1db77593a7ac8d67f0d488c4311d5103ffa OP_EQUAL", "type": "scripthash"}, "value": 0.16980037, "n": 3}], "hex": "02000000000101b3f59338740cf06716a63b43d1d0e1b55b8c8b15aeff3d0dcedddd7860db6dd20100000017160014394c1d55120fea8442873d75d93263e22518f914ffffffff0450c204000000000017a914a6dae6cb31b7c01dfb163c7a30f7bf5627096f968760ae0a000000000017a91401db724084b40a1f1f9d10e2b9265696bc637dec87b16c13000000000017a914d1ba34d175bd9a92927d01e4f1627e3ce8bf659287451803010000000017a914bddce1db77593a7ac8d67f0d488c4311d5103ffa870247304402201e0b6e7ef8e6295ca8c87377f50ce0e304297009b9a2fab51cc3d6c64f6c963202207214f8ac8c5c330e87eceb0d8a79464190eb74e0c8c28c4404a1b2c00d9a42b2012103e196163b6d30d0fef27eff5bae2754a7ccba75d466b78c87116b6535bacce31b00000000", "vin": [{"txinwitness": ["304402201e0b6e7ef8e6295ca8c87377f50ce0e304297009b9a2fab51cc3d6c64f6c963202207214f8ac8c5c330e87eceb0d8a79464190eb74e0c8c28c4404a1b2c00d9a42b201", "03e196163b6d30d0fef27eff5bae2754a7ccba75d466b78c87116b6535bacce31b"], "sequence": 4294967295, "scriptSig": {"hex": "160014394c1d55120fea8442873d75d93263e22518f914", "asm": "0014394c1d55120fea8442873d75d93263e22518f914"}, "vout": 1, "txid": "d26ddb6078ddddce0d3dffae158b8c5bb5e1d0d1433ba61667f00c743893f5b3"}], "txid": "d5efcd47c59aa15050bae026335f5546ad4d10185d4ca40b963501f9294a1fc6", "blocktime": 1537870268, "version": 2, "confirmations": 11516, "time": 1537870268, "locktime": 0, "vsize": 230, "size": 311}