{"hash": "d5fe4de341fa954d7a71e76b0e79c30432a6dc913ffb02b77ae15d703577cbf8", "blockhash": "0000000000000000000baef3f32e3676a92c3b2e5da21b426e4f302fc371ce76", "vout": [{"scriptPubKey": {"reqSigs": 1, "hex": "a9144f1c7a4a9d3f217788404e1feb339a7371cb9f0f87", "addresses": ["38uKRN3nJiXmszYxbVDso6MJdqjywMkd4U"], "asm": "OP_HASH160 4f1c7a4a9d3f217788404e1feb339a7371cb9f0f OP_EQUAL", "type": "scripthash"}, "value": 0.01488723, "n": 0}], "hex": "010000000281027e7ea0ace46b87f5ab28e8a60e6f20293df196177cc5f7ea52a32079ca50000000006a47304402203d46dc0afaac3942f4d0fdfe4ec47b40cf3985c541bf578fed1d35af29603e8002202a453ef15a8e834d772b9a72f4f22861a8a25fcc8657ef5a9228ec4b963aeaeb0121031aebe8fa1ef9a9fa4be76a88e1d9ee42463a09b38586a75ecb9c587402eba10fffffffff9f13b3cf1d418d653a7970b1f055f72316bc8fda9ab9f394dadbbd03133c14f8130000006a4730440220681bca3254bbf6aab055f3dbd120a188a8483d36a24a1981dee165f9c549d9bf0220574e47d0a10294e943694319b551b0127ef909777cbb244e3330825e8e7abc12012102204215ade89a6fdb8bc1d7de13d6437d73d5303cc0580b34660b3dc23ea8d912ffffffff0153b716000000000017a9144f1c7a4a9d3f217788404e1feb339a7371cb9f0f8700000000", "vin": [{"sequence": 4294967295, "scriptSig": {"hex": "47304402203d46dc0afaac3942f4d0fdfe4ec47b40cf3985c541bf578fed1d35af29603e8002202a453ef15a8e834d772b9a72f4f22861a8a25fcc8657ef5a9228ec4b963aeaeb0121031aebe8fa1ef9a9fa4be76a88e1d9ee42463a09b38586a75ecb9c587402eba10f", "asm": "304402203d46dc0afaac3942f4d0fdfe4ec47b40cf3985c541bf578fed1d35af29603e8002202a453ef15a8e834d772b9a72f4f22861a8a25fcc8657ef5a9228ec4b963aeaeb[ALL] 031aebe8fa1ef9a9fa4be76a88e1d9ee42463a09b38586a75ecb9c587402eba10f"}, "vout": 0, "txid": "50ca7920a352eaf7c57c1796f13d29206f0ea6e828abf5876be4aca07e7e0281"}, {"sequence": 4294967295, "scriptSig": {"hex": "4730440220681bca3254bbf6aab055f3dbd120a188a8483d36a24a1981dee165f9c549d9bf0220574e47d0a10294e943694319b551b0127ef909777cbb244e3330825e8e7abc12012102204215ade89a6fdb8bc1d7de13d6437d73d5303cc0580b34660b3dc23ea8d912", "asm": "30440220681bca3254bbf6aab055f3dbd120a188a8483d36a24a1981dee165f9c549d9bf0220574e47d0a10294e943694319b551b0127ef909777cbb244e3330825e8e7abc12[ALL] 02204215ade89a6fdb8bc1d7de13d6437d73d5303cc0580b34660b3dc23ea8d912"}, "vout": 19, "txid": "f8143c1303bddbda94f3b99ada8fbc1623f755f0b170793a658d411dcfb3139f"}], "txid": "d5fe4de341fa954d7a71e76b0e79c30432a6dc913ffb02b77ae15d703577cbf8", "blocktime": 1537876114, "version": 1, "confirmations": 11460, "time": 1537876114, "locktime": 0, "vsize": 336, "size": 336}