{"hash": "d6004a135e0b8f7e1f7ae44e43a0a9a7c93cfa72c63240e6a735c8e36cb77afa", "blockhash": "0000000000000000001cda96e906b7601b7a6fb1a3b62bca570a9e5d8f4b3de1", "vout": [{"scriptPubKey": {"reqSigs": 1, "hex": "76a9140fe76e2334d7f517d1c485cf4d46e098543a316688ac", "addresses": ["12T6Nw28hwHiXAkxgf339jUPqaADAeitxR"], "asm": "OP_DUP OP_HASH160 0fe76e2334d7f517d1c485cf4d46e098543a3166 OP_EQUALVERIFY OP_CHECKSIG", "type": "pubkeyhash"}, "value": 5.675e-05, "n": 0}, {"scriptPubKey": {"reqSigs": 1, "hex": "a914faaf61684f32d4f23260fd26fac85dfa6f56d38187", "addresses": ["3QYWx9mWtPKJV7KxCommwtxH3DSRts9RaW"], "asm": "OP_HASH160 faaf61684f32d4f23260fd26fac85dfa6f56d381 OP_EQUAL", "type": "scripthash"}, "value": 0.00925826, "n": 1}], "hex": "0100000001566d4993ddbb43153d8a83588f94e3bedf96b414ecaa9fdc035dfbafaae25873010000006b483045022100b6095ea9b6f37ef637350f2b1ff2dbd1d1f4aca3878d8a1f7fcdf806ec5c68af022013cd5311e911526fc3141a878d24d3d145a05d36efab5f4fe86184bef8a8e3f9012102288cd6e96056a2b35da671890ef14fdf6289e66bfeab62430116a1ae8c9b6fddffffffff022b160000000000001976a9140fe76e2334d7f517d1c485cf4d46e098543a316688ac82200e000000000017a914faaf61684f32d4f23260fd26fac85dfa6f56d3818700000000", "vin": [{"sequence": 4294967295, "scriptSig": {"hex": "483045022100b6095ea9b6f37ef637350f2b1ff2dbd1d1f4aca3878d8a1f7fcdf806ec5c68af022013cd5311e911526fc3141a878d24d3d145a05d36efab5f4fe86184bef8a8e3f9012102288cd6e96056a2b35da671890ef14fdf6289e66bfeab62430116a1ae8c9b6fdd", "asm": "3045022100b6095ea9b6f37ef637350f2b1ff2dbd1d1f4aca3878d8a1f7fcdf806ec5c68af022013cd5311e911526fc3141a878d24d3d145a05d36efab5f4fe86184bef8a8e3f9[ALL] 02288cd6e96056a2b35da671890ef14fdf6289e66bfeab62430116a1ae8c9b6fdd"}, "vout": 1, "txid": "7358e2aaaffb5d03dc9faaec14b496dfbee3948f58838a3d1543bbdd93496d56"}], "txid": "d6004a135e0b8f7e1f7ae44e43a0a9a7c93cfa72c63240e6a735c8e36cb77afa", "blocktime": 1537873282, "version": 1, "confirmations": 11484, "time": 1537873282, "locktime": 0, "vsize": 224, "size": 224}