{"hash": "d6039713e106f64fea7161d8bed902adb9335d35547406b790f90c8612d4e6c9", "blockhash": "00000000000000000004ffacab907a6b429b9a5745fa0b75af4234bf69dd7176", "vout": [{"scriptPubKey": {"reqSigs": 1, "hex": "76a9145568a0c99821468c69991cfc76be70feb5207a7c88ac", "addresses": ["18nbmzXGvHLCcW5FwhR61oSAZZnFzgfsva"], "asm": "OP_DUP OP_HASH160 5568a0c99821468c69991cfc76be70feb5207a7c OP_EQUALVERIFY OP_CHECKSIG", "type": "pubkeyhash"}, "value": 0.00059537, "n": 0}, {"scriptPubKey": {"reqSigs": 1, "hex": "76a9144a04ff69be1172fcf969053a483e51075139447888ac", "addresses": ["17kNzSeh3pLCcdpWALqhRMVxY8pmNELhqG"], "asm": "OP_DUP OP_HASH160 4a04ff69be1172fcf969053a483e510751394478 OP_EQUALVERIFY OP_CHECKSIG", "type": "pubkeyhash"}, "value": 0.22225019, "n": 1}], "hex": "020000000131189a08b3c4b840d77134a6aa4a1260e18117b0820b08d3e8ed513093f6dd8d0100000069463043021f720dbb92e95308b2a6d3d45ef268d69e4e3f21dfe53ef7501414613600a5b9022051844939fb4a1f5e388a947013add1856c67119021bcff81df6380c2eef5362e01210308a574d5eb731eac41455fa99b3e2a6e36f184147b584a5f9b14b5df38e30799ffffffff0291e80000000000001976a9145568a0c99821468c69991cfc76be70feb5207a7c88ac7b205301000000001976a9144a04ff69be1172fcf969053a483e51075139447888ac00000000", "vin": [{"sequence": 4294967295, "scriptSig": {"hex": "463043021f720dbb92e95308b2a6d3d45ef268d69e4e3f21dfe53ef7501414613600a5b9022051844939fb4a1f5e388a947013add1856c67119021bcff81df6380c2eef5362e01210308a574d5eb731eac41455fa99b3e2a6e36f184147b584a5f9b14b5df38e30799", "asm": "3043021f720dbb92e95308b2a6d3d45ef268d69e4e3f21dfe53ef7501414613600a5b9022051844939fb4a1f5e388a947013add1856c67119021bcff81df6380c2eef5362e[ALL] 0308a574d5eb731eac41455fa99b3e2a6e36f184147b584a5f9b14b5df38e30799"}, "vout": 1, "txid": "8dddf6933051ede8d3080b82b01781e160124aaaa63471d740b8c4b3089a1831"}], "txid": "d6039713e106f64fea7161d8bed902adb9335d35547406b790f90c8612d4e6c9", "blocktime": 1537875543, "version": 2, "confirmations": 11464, "time": 1537875543, "locktime": 0, "vsize": 224, "size": 224}