{"hash": "d608b7fffd93ef905879b4e5ff2d364d9cf9fd295f6ddc07f1f4b8f7e4342cc8", "blockhash": "0000000000000000000baef3f32e3676a92c3b2e5da21b426e4f302fc371ce76", "vout": [{"scriptPubKey": {"type": "nulldata", "hex": "6a4c50000077fe0001a423e6d10f55c2ff27e7ee67d19ed074892d00f8e87af8e8e963c7cfd5b9471402dbd1898d20170305f05e061da35baa19a90613d4f52767aefdbc9a9526289ac0f6612cd74e33776ee4", "asm": "OP_RETURN 000077fe0001a423e6d10f55c2ff27e7ee67d19ed074892d00f8e87af8e8e963c7cfd5b9471402dbd1898d20170305f05e061da35baa19a90613d4f52767aefdbc9a9526289ac0f6612cd74e33776ee4"}, "value": 0.0, "n": 0}, {"scriptPubKey": {"reqSigs": 1, "hex": "76a9149de76aca63cc22676ae6d4f2306e3d16d42f6b3288ac", "addresses": ["1FPvKGFNssH21GrVZ2Uirr9jjFiTEwpQys"], "asm": "OP_DUP OP_HASH160 9de76aca63cc22676ae6d4f2306e3d16d42f6b32 OP_EQUALVERIFY OP_CHECKSIG", "type": "pubkeyhash"}, "value": 0.0147264, "n": 1}], "hex": "01000000015077533333434091795aabe5a9bfa996422b24c6623db3a28489577d3066633c010000006a473044022007dcbb28cb0fa9ef1a7ddcae2895fcab9679bc21ba315d7a4bebe3f61c4f5f810220539e6cc84b15faf28dfec25afe7aafcf4892b8da508dbb1803469a04c3de9ae1012103d15a618e0473f5505de2d82e73f772f7dcac30773b5d0f4f7de384e31434957affffffff020000000000000000536a4c50000077fe0001a423e6d10f55c2ff27e7ee67d19ed074892d00f8e87af8e8e963c7cfd5b9471402dbd1898d20170305f05e061da35baa19a90613d4f52767aefdbc9a9526289ac0f6612cd74e33776ee480781600000000001976a9149de76aca63cc22676ae6d4f2306e3d16d42f6b3288ac00000000", "vin": [{"sequence": 4294967295, "scriptSig": {"hex": "473044022007dcbb28cb0fa9ef1a7ddcae2895fcab9679bc21ba315d7a4bebe3f61c4f5f810220539e6cc84b15faf28dfec25afe7aafcf4892b8da508dbb1803469a04c3de9ae1012103d15a618e0473f5505de2d82e73f772f7dcac30773b5d0f4f7de384e31434957a", "asm": "3044022007dcbb28cb0fa9ef1a7ddcae2895fcab9679bc21ba315d7a4bebe3f61c4f5f810220539e6cc84b15faf28dfec25afe7aafcf4892b8da508dbb1803469a04c3de9ae1[ALL] 03d15a618e0473f5505de2d82e73f772f7dcac30773b5d0f4f7de384e31434957a"}, "vout": 1, "txid": "3c6366307d578984a2b33d62c6242b4296a9bfa9e5ab5a799140433333537750"}], "txid": "d608b7fffd93ef905879b4e5ff2d364d9cf9fd295f6ddc07f1f4b8f7e4342cc8", "blocktime": 1537876114, "version": 1, "confirmations": 11460, "time": 1537876114, "locktime": 0, "vsize": 283, "size": 283}