{"hash": "d608fe3b5831832b4833ba15820fa787741e5ba7cb111c4e28310032d3dd606b", "blockhash": "0000000000000000001f76057863aec43deb6fa401d9628bb513d65a8098bfab", "vout": [{"scriptPubKey": {"reqSigs": 1, "hex": "76a914af1e841663e964d2785f5365ea6177cc6aaf8d1588ac", "addresses": ["1GxworhU9BpKHuKk5kPWztk9MzmmqPeNjk"], "asm": "OP_DUP OP_HASH160 af1e841663e964d2785f5365ea6177cc6aaf8d15 OP_EQUALVERIFY OP_CHECKSIG", "type": "pubkeyhash"}, "value": 0.01475798, "n": 0}, {"scriptPubKey": {"reqSigs": 1, "hex": "76a914efdf9b3f2f4222a349afaacc1e266d3e1071e3b788ac", "addresses": ["1NsLNJ6hhQbQc6H4mQYJaaGAAZERWoHBGx"], "asm": "OP_DUP OP_HASH160 efdf9b3f2f4222a349afaacc1e266d3e1071e3b7 OP_EQUALVERIFY OP_CHECKSIG", "type": "pubkeyhash"}, "value": 0.00186708, "n": 1}], "hex": "01000000013c715fcd15b22ac9e42f62a7659df7bb999f2d06a7c12e360b21c0735f31b157000000006b483045022100e98061e0affd789863530dd7e80ee22090e54aba9f13eeff1b195e111083aad8022074b844d17cbab174986891c2cf566e1fd46db244afb86f76b36ec19a4fe6529c012103274a057121dfb5bcf78a76a36f47400fca1637efd5410845d029f636e28954c5ffffffff02d6841600000000001976a914af1e841663e964d2785f5365ea6177cc6aaf8d1588ac54d90200000000001976a914efdf9b3f2f4222a349afaacc1e266d3e1071e3b788ac00000000", "vin": [{"sequence": 4294967295, "scriptSig": {"hex": "483045022100e98061e0affd789863530dd7e80ee22090e54aba9f13eeff1b195e111083aad8022074b844d17cbab174986891c2cf566e1fd46db244afb86f76b36ec19a4fe6529c012103274a057121dfb5bcf78a76a36f47400fca1637efd5410845d029f636e28954c5", "asm": "3045022100e98061e0affd789863530dd7e80ee22090e54aba9f13eeff1b195e111083aad8022074b844d17cbab174986891c2cf566e1fd46db244afb86f76b36ec19a4fe6529c[ALL] 03274a057121dfb5bcf78a76a36f47400fca1637efd5410845d029f636e28954c5"}, "vout": 0, "txid": "57b1315f73c0210b362ec1a7062d9f99bbf79d65a7622fe4c92ab215cd5f713c"}], "txid": "d608fe3b5831832b4833ba15820fa787741e5ba7cb111c4e28310032d3dd606b", "blocktime": 1537873891, "version": 1, "confirmations": 11479, "time": 1537873891, "locktime": 0, "vsize": 226, "size": 226}