{"hash": "4c578ae904257589aab6f63eaa4594526a35dac7f76a5d781375de4c74b606e3", "blockhash": "00000000000000000024a2167bbff67b0be802c0b01cdd79e6331c2be6459f87", "vout": [{"scriptPubKey": {"reqSigs": 1, "hex": "76a9144427f268a21a80affdceee2a249bb98288af9bb188ac", "addresses": ["17DNoc46qVF8hdPGvRrceGUxF273PQcKxX"], "asm": "OP_DUP OP_HASH160 4427f268a21a80affdceee2a249bb98288af9bb1 OP_EQUALVERIFY OP_CHECKSIG", "type": "pubkeyhash"}, "value": 0.09493, "n": 0}, {"scriptPubKey": {"reqSigs": 1, "hex": "a9140552f93029f52f3a0674621a3537d3b4d13a505b87", "addresses": ["32BAhbUV3MqdjzhD6Dn1RDCDd1ywdr7hEL"], "asm": "OP_HASH160 0552f93029f52f3a0674621a3537d3b4d13a505b OP_EQUAL", "type": "scripthash"}, "value": 0.03338257, "n": 1}], "hex": "020000000001022a400fcac5d00049a9da1f7daa0b56a6659c008980f4a2ee04121526904ccc880100000017160014bcb3d1c9544b932edcfe510ab707b95d8967b292fdffffff614d7d7ccd73c901a2f4c4037b22931cf08d25f6b3792d89fc1e4a05b641b98b0000000017160014309298c9c4f23f83fc0697d085c1b8b7f5d6bbe7fdffffff0208da9000000000001976a9144427f268a21a80affdceee2a249bb98288af9bb188ac11f032000000000017a9140552f93029f52f3a0674621a3537d3b4d13a505b870248304502210086de711ab028c3848431417893eb3edaf4fc437badff9416ff1dc65055df1ce40220156cf2e1e3b4dbc296eb326bbb23c76f1da99d079ccd06b2ac86cfc1bd3edf7101210218701f9cf2676309e0f536cd9a307bc76749a6910b3b841de71c91ddd168cf9a02483045022100d0af929d14a3e3120a8acef061b8ce1a0d1d33db92603ed10ce6e5f09b00db1302201622c0a312a577f9e82eb0047e28155e983343219b93cd7fda309b311ba8e8f50121031de0064e4b65f6073b5cb2506496e387e3ad1a54e7cd3947002f1c52e39447250d490800", "vin": [{"txinwitness": ["304502210086de711ab028c3848431417893eb3edaf4fc437badff9416ff1dc65055df1ce40220156cf2e1e3b4dbc296eb326bbb23c76f1da99d079ccd06b2ac86cfc1bd3edf7101", "0218701f9cf2676309e0f536cd9a307bc76749a6910b3b841de71c91ddd168cf9a"], "sequence": 4294967293, "scriptSig": {"hex": "160014bcb3d1c9544b932edcfe510ab707b95d8967b292", "asm": "0014bcb3d1c9544b932edcfe510ab707b95d8967b292"}, "vout": 1, "txid": "88cc4c9026151204eea2f48089009c65a6560baa7d1fdaa94900d0c5ca0f402a"}, {"txinwitness": ["3045022100d0af929d14a3e3120a8acef061b8ce1a0d1d33db92603ed10ce6e5f09b00db1302201622c0a312a577f9e82eb0047e28155e983343219b93cd7fda309b311ba8e8f501", "031de0064e4b65f6073b5cb2506496e387e3ad1a54e7cd3947002f1c52e3944725"], "sequence": 4294967293, "scriptSig": {"hex": "160014309298c9c4f23f83fc0697d085c1b8b7f5d6bbe7", "asm": "0014309298c9c4f23f83fc0697d085c1b8b7f5d6bbe7"}, "vout": 0, "txid": "8bb941b6054a1efc892d79b3f6258df01c93227b03c4f4a201c973cd7c7d4d61"}], "txid": "d609f8b8a0a08b1159694bd94f5ad775a85e7ce49ced000724cb6c1ca295c752", "blocktime": 1537870564, "version": 2, "confirmations": 11515, "time": 1537870564, "locktime": 542989, "vsize": 259, "size": 422}