{"hash": "d611890935cca586497c8e83ffd6b0bb82f54bbb97d71e48d609fe32b8eba02a", "blockhash": "0000000000000000001e0dab787dd257d1dbfcb92a98c2207d5e1078be1f4165", "vout": [{"scriptPubKey": {"reqSigs": 1, "hex": "76a9142cfd8ba2e2c1923fd5d675aad03899cc4fbe1fcf88ac", "addresses": ["156tU65UMArBQFjFDPmmKKwH4hmPUZ6trh"], "asm": "OP_DUP OP_HASH160 2cfd8ba2e2c1923fd5d675aad03899cc4fbe1fcf OP_EQUALVERIFY OP_CHECKSIG", "type": "pubkeyhash"}, "value": 0.00078074, "n": 0}, {"scriptPubKey": {"reqSigs": 1, "hex": "a9143a151cb5e9a46cf63de2554264e841968693a38f87", "addresses": ["36z8QZtZtQ5YUYy4bkHSzjTsnRp7iUtUdo"], "asm": "OP_HASH160 3a151cb5e9a46cf63de2554264e841968693a38f OP_EQUAL", "type": "scripthash"}, "value": 0.01561782, "n": 1}], "hex": "0100000006fc22234a769d20095e3bdd123b0b3f82fb89eeda0267287b48d09e8741f6630f000000006b4830450221009e0b3e0f8937f5fa5f9133aad7e2252decf4394316ea848fc1ea4807d7cba1b50220341fdc05f7d0f120bee75fe2aac27de084b62c4bebc2c0db8d05261bb3b9bd71012102bcc8fceafbab9680db4f381a34e7100b5415094f23ff1911e50945ccfa999e3bffffffffb3863716bcb81ca017fff3451b59f3327cf03ed2dfe540c4070259eb5e08f31b000000006a47304402204803ac24c8244ad63967c55c66bf1090a3bd61664174872159e21a887b8ac1f002207ba652181b2d5b83beff3d8c689ea6a619a8960c3472fd95bb29a7842ada4fd401210259f797ac24e906a5bfd8df002ac4f3fd8961dbfd4c829da67c1680eab6584161ffffffff95f0cdbe9f5445f69f93402224714fd2d14a382dcee52a65a155ea1e8773439d010000006a473044022009352b53ad15338204e4aac5be385a74d80641f526be25a4230d0c234f9c76d702205c470a94aaaa5e73c35273a0b490a90b475ad3d697a981e8b3c89efe030d6e5d01210259f797ac24e906a5bfd8df002ac4f3fd8961dbfd4c829da67c1680eab6584161ffffffffc2aed36d4d5bfac6376a65a1b9477aa8b67d64a8048c7a55b073db846964d1ac000000006b483045022100f13b68b259912f32ab58142aa3b9b198d5aacf99ea7c09a7fa774cf826ac167502206cc5e88a5b5146f1dc68885a4bc505da10562617a2b73e347c76ce173ade6c840121039e876f86663c0fc8fe2d199ac305daf571337c25162627d15cf72e1149794253ffffffff0a399deb661d7ade1c67c6d99770a2c60e4c40f254bcc5a1c9996e0e4ffd14b0000000006a4730440220542eaecaeea8faeaec8ee4ae144a3400d43e474cef99d0db55f5d0586782a56302203b23d9954042ba1c03c27dda434b9e6ddaab65a48424568ddb28183656dc0f2e0121029cff78b50684245ed7cf6db3e8fb5cb99d0931a9443c83680f5eb428cf846340ffffffffafaf54e65d0f0f7aaad3aae0120fba659b297351f2b824b1407ac337dd0b9dea000000006b483045022100b78a9142ad1ab5e67a22765caa3781779efbb23473209aca9bd58e78df9bca930220576cd9a8e7f9278126a1f2187eb0692a12ea6d08efd3d417e7d78189ee8f911a01210259f797ac24e906a5bfd8df002ac4f3fd8961dbfd4c829da67c1680eab6584161ffffffff02fa300100000000001976a9142cfd8ba2e2c1923fd5d675aad03899cc4fbe1fcf88acb6d417000000000017a9143a151cb5e9a46cf63de2554264e841968693a38f8700000000", "vin": [{"sequence": 4294967295, "scriptSig": {"hex": "4830450221009e0b3e0f8937f5fa5f9133aad7e2252decf4394316ea848fc1ea4807d7cba1b50220341fdc05f7d0f120bee75fe2aac27de084b62c4bebc2c0db8d05261bb3b9bd71012102bcc8fceafbab9680db4f381a34e7100b5415094f23ff1911e50945ccfa999e3b", "asm": "30450221009e0b3e0f8937f5fa5f9133aad7e2252decf4394316ea848fc1ea4807d7cba1b50220341fdc05f7d0f120bee75fe2aac27de084b62c4bebc2c0db8d05261bb3b9bd71[ALL] 02bcc8fceafbab9680db4f381a34e7100b5415094f23ff1911e50945ccfa999e3b"}, "vout": 0, "txid": "0f63f641879ed0487b286702daee89fb823f0b3b12dd3b5e09209d764a2322fc"}, {"sequence": 4294967295, "scriptSig": {"hex": "47304402204803ac24c8244ad63967c55c66bf1090a3bd61664174872159e21a887b8ac1f002207ba652181b2d5b83beff3d8c689ea6a619a8960c3472fd95bb29a7842ada4fd401210259f797ac24e906a5bfd8df002ac4f3fd8961dbfd4c829da67c1680eab6584161", "asm": "304402204803ac24c8244ad63967c55c66bf1090a3bd61664174872159e21a887b8ac1f002207ba652181b2d5b83beff3d8c689ea6a619a8960c3472fd95bb29a7842ada4fd4[ALL] 0259f797ac24e906a5bfd8df002ac4f3fd8961dbfd4c829da67c1680eab6584161"}, "vout": 0, "txid": "1bf3085eeb590207c440e5dfd23ef07c32f3591b45f3ff17a01cb8bc163786b3"}, {"sequence": 4294967295, "scriptSig": {"hex": "473044022009352b53ad15338204e4aac5be385a74d80641f526be25a4230d0c234f9c76d702205c470a94aaaa5e73c35273a0b490a90b475ad3d697a981e8b3c89efe030d6e5d01210259f797ac24e906a5bfd8df002ac4f3fd8961dbfd4c829da67c1680eab6584161", "asm": "3044022009352b53ad15338204e4aac5be385a74d80641f526be25a4230d0c234f9c76d702205c470a94aaaa5e73c35273a0b490a90b475ad3d697a981e8b3c89efe030d6e5d[ALL] 0259f797ac24e906a5bfd8df002ac4f3fd8961dbfd4c829da67c1680eab6584161"}, "vout": 1, "txid": "9d4373871eea55a1652ae5ce2d384ad1d24f71242240939ff645549fbecdf095"}, {"sequence": 4294967295, "scriptSig": {"hex": "483045022100f13b68b259912f32ab58142aa3b9b198d5aacf99ea7c09a7fa774cf826ac167502206cc5e88a5b5146f1dc68885a4bc505da10562617a2b73e347c76ce173ade6c840121039e876f86663c0fc8fe2d199ac305daf571337c25162627d15cf72e1149794253", "asm": "3045022100f13b68b259912f32ab58142aa3b9b198d5aacf99ea7c09a7fa774cf826ac167502206cc5e88a5b5146f1dc68885a4bc505da10562617a2b73e347c76ce173ade6c84[ALL] 039e876f86663c0fc8fe2d199ac305daf571337c25162627d15cf72e1149794253"}, "vout": 0, "txid": "acd1646984db73b0557a8c04a8647db6a87a47b9a1656a37c6fa5b4d6dd3aec2"}, {"sequence": 4294967295, "scriptSig": {"hex": "4730440220542eaecaeea8faeaec8ee4ae144a3400d43e474cef99d0db55f5d0586782a56302203b23d9954042ba1c03c27dda434b9e6ddaab65a48424568ddb28183656dc0f2e0121029cff78b50684245ed7cf6db3e8fb5cb99d0931a9443c83680f5eb428cf846340", "asm": "30440220542eaecaeea8faeaec8ee4ae144a3400d43e474cef99d0db55f5d0586782a56302203b23d9954042ba1c03c27dda434b9e6ddaab65a48424568ddb28183656dc0f2e[ALL] 029cff78b50684245ed7cf6db3e8fb5cb99d0931a9443c83680f5eb428cf846340"}, "vout": 0, "txid": "b014fd4f0e6e99c9a1c5bc54f2404c0ec6a27097d9c6671cde7a1d66eb9d390a"}, {"sequence": 4294967295, "scriptSig": {"hex": "483045022100b78a9142ad1ab5e67a22765caa3781779efbb23473209aca9bd58e78df9bca930220576cd9a8e7f9278126a1f2187eb0692a12ea6d08efd3d417e7d78189ee8f911a01210259f797ac24e906a5bfd8df002ac4f3fd8961dbfd4c829da67c1680eab6584161", "asm": "3045022100b78a9142ad1ab5e67a22765caa3781779efbb23473209aca9bd58e78df9bca930220576cd9a8e7f9278126a1f2187eb0692a12ea6d08efd3d417e7d78189ee8f911a[ALL] 0259f797ac24e906a5bfd8df002ac4f3fd8961dbfd4c829da67c1680eab6584161"}, "vout": 0, "txid": "ea9d0bdd37c37a40b124b8f25173299b65ba0f12e0aad3aa7a0f0f5de654afaf"}], "txid": "d611890935cca586497c8e83ffd6b0bb82f54bbb97d71e48d609fe32b8eba02a", "blocktime": 1537872475, "version": 1, "confirmations": 11487, "time": 1537872475, "locktime": 0, "vsize": 961, "size": 961}