{"hash": "cac77f4a0b68a9f844f2bd144f0472f7d6729e98b4040301f3caea80f3a11891", "blockhash": "00000000000000000017f5eb5941039fbcee6240d03bc1f2f8e35350df66a1d8", "vout": [{"scriptPubKey": {"reqSigs": 1, "hex": "76a9149a1b8f9b1fa2d2297863adb1cb11c71df455684888ac", "addresses": ["1F3r5We2zwNiSzG6GQUTTWnnPMCz2HJbJu"], "asm": "OP_DUP OP_HASH160 9a1b8f9b1fa2d2297863adb1cb11c71df4556848 OP_EQUALVERIFY OP_CHECKSIG", "type": "pubkeyhash"}, "value": 2.677e-05, "n": 0}, {"scriptPubKey": {"reqSigs": 1, "hex": "a914e8db75c900cf08f06518e96d167331f2a4abfb3387", "addresses": ["3NvFbQMAkkqEFj4i1sYPPLkSWzxTFUchjA"], "asm": "OP_HASH160 e8db75c900cf08f06518e96d167331f2a4abfb33 OP_EQUAL", "type": "scripthash"}, "value": 0.00139295, "n": 1}], "hex": "010000000001015bd8dd5ee5a8457cdaa51e84a3ea343caa8778828e26626290a085eb9b6d84280100000023220020941cfaff8837763dc1f69ff82b6d6553fdea17a41cfc29a04403293eedd8ccc7ffffffff02750a0000000000001976a9149a1b8f9b1fa2d2297863adb1cb11c71df455684888ac1f2002000000000017a914e8db75c900cf08f06518e96d167331f2a4abfb3387040047304402200eda14a8d2e93ff164bc00e60f1d5d0ce7b4d28136f8ca27ecdcf88b9772000a02202379c7b2057e74843329387283e191217bcaaac2e3c07ca6b5177818791a82dd0147304402204963bb05aed4ee6e811d7a544bac5485994b5c9629ca149a19ece7aa63657df40220437e5c2a69a235383fbdee4c8008199b3cc49eb6e2899dfb6f9226db63692c6d0147522102531db3a5883f29bab4241dd0cd726936667bcda445d89bdd22244e828b6993342103148c80a5bdfddb05ff5bcffc397c8ca748d8b435ec6a175bc9d7bfc7fc6f853752ae00000000", "vin": [{"txinwitness": ["", "304402200eda14a8d2e93ff164bc00e60f1d5d0ce7b4d28136f8ca27ecdcf88b9772000a02202379c7b2057e74843329387283e191217bcaaac2e3c07ca6b5177818791a82dd01", "304402204963bb05aed4ee6e811d7a544bac5485994b5c9629ca149a19ece7aa63657df40220437e5c2a69a235383fbdee4c8008199b3cc49eb6e2899dfb6f9226db63692c6d01", "522102531db3a5883f29bab4241dd0cd726936667bcda445d89bdd22244e828b6993342103148c80a5bdfddb05ff5bcffc397c8ca748d8b435ec6a175bc9d7bfc7fc6f853752ae"], "sequence": 4294967295, "scriptSig": {"hex": "220020941cfaff8837763dc1f69ff82b6d6553fdea17a41cfc29a04403293eedd8ccc7", "asm": "0020941cfaff8837763dc1f69ff82b6d6553fdea17a41cfc29a04403293eedd8ccc7"}, "vout": 1, "txid": "28846d9beb85a0906262268e827887aa3c34eaa3841ea5da7c45a8e55eddd85b"}], "txid": "d613886f9737e6b731455efa617154037b12559473b83459643dbbf490e356fa", "blocktime": 1537874412, "version": 1, "confirmations": 11467, "time": 1537874412, "locktime": 0, "vsize": 207, "size": 372}