{"hash": "d613ffb4eb9cb22dbf2afbe7a669ce11f59dd49d11a5aa80c0ee0543cb7dba9f", "blockhash": "00000000000000000018f53835495a110e01622372bf6ae95dc86f2b0ab887b0", "vout": [{"scriptPubKey": {"reqSigs": 1, "hex": "0014fb755a5729ed518a246f63a4f951034805eeb534", "addresses": ["bc1qld6454efa4gc5fr0vwj0j5grfqz7adf5ylxlmy"], "asm": "0 fb755a5729ed518a246f63a4f951034805eeb534", "type": "witness_v0_keyhash"}, "value": 1.098e-05, "n": 0}, {"scriptPubKey": {"reqSigs": 1, "hex": "a914c4951bacfb34af64bdfcf91e50861ccdaee2fa6287", "addresses": ["3KcSzMaAYiufJY6DAAuHNu5ro1HVBMmLTq"], "asm": "OP_HASH160 c4951bacfb34af64bdfcf91e50861ccdaee2fa62 OP_EQUAL", "type": "scripthash"}, "value": 0.00045084, "n": 1}], "hex": "01000000017f803f7e022f5381cb54a48f56fb174bb943e9639b68b1fe02838007b741ee9e170300006b483045022100870675a9378f6ce7a8832ff6331c7987469f45f697c8b765284ec2cdfff37ce1022027b411db9151b9bfa68b1a775f4cf0e7e032471c2d5f138ccf2fe1cd7b5765d201210333ca48c1adeca722e6a41c68abd7306a7d73a553c9538b6543c9c20bf6b387beffffffff024a04000000000000160014fb755a5729ed518a246f63a4f951034805eeb5341cb000000000000017a914c4951bacfb34af64bdfcf91e50861ccdaee2fa628700000000", "vin": [{"sequence": 4294967295, "scriptSig": {"hex": "483045022100870675a9378f6ce7a8832ff6331c7987469f45f697c8b765284ec2cdfff37ce1022027b411db9151b9bfa68b1a775f4cf0e7e032471c2d5f138ccf2fe1cd7b5765d201210333ca48c1adeca722e6a41c68abd7306a7d73a553c9538b6543c9c20bf6b387be", "asm": "3045022100870675a9378f6ce7a8832ff6331c7987469f45f697c8b765284ec2cdfff37ce1022027b411db9151b9bfa68b1a775f4cf0e7e032471c2d5f138ccf2fe1cd7b5765d2[ALL] 0333ca48c1adeca722e6a41c68abd7306a7d73a553c9538b6543c9c20bf6b387be"}, "vout": 791, "txid": "9eee41b707808302feb1689b63e943b94b17fb568fa454cb81532f027e3f807f"}], "txid": "d613ffb4eb9cb22dbf2afbe7a669ce11f59dd49d11a5aa80c0ee0543cb7dba9f", "blocktime": 1537870928, "version": 1, "confirmations": 11514, "time": 1537870928, "locktime": 0, "vsize": 221, "size": 221}