{"hash": "d6146ef9fe0d2059fe25b9d1906e83a6c5aed247d2c8951c04a31edd7fbb6053", "blockhash": "0000000000000000000dcc0f55137456b1a82d3642486a52398922ac4d620174", "vout": [{"scriptPubKey": {"reqSigs": 1, "hex": "21031aa66313ee024bbee8c17915cf7d105656d0ace5b4a43a3ab5eae1e14ec02696ac", "addresses": ["1FggVkVYrWBpibPtMwRQrNnPKy6vJEzJYf"], "asm": "031aa66313ee024bbee8c17915cf7d105656d0ace5b4a43a3ab5eae1e14ec02696 OP_CHECKSIG", "type": "pubkey"}, "value": 0.0001, "n": 0}, {"scriptPubKey": {"reqSigs": 1, "hex": "21031aa66313ee024bbee8c17915cf7d105656d0ace5b4a43a3ab5eae1e14ec02696ac", "addresses": ["1FggVkVYrWBpibPtMwRQrNnPKy6vJEzJYf"], "asm": "031aa66313ee024bbee8c17915cf7d105656d0ace5b4a43a3ab5eae1e14ec02696 OP_CHECKSIG", "type": "pubkey"}, "value": 0.0001, "n": 1}, {"scriptPubKey": {"reqSigs": 1, "hex": "21031aa66313ee024bbee8c17915cf7d105656d0ace5b4a43a3ab5eae1e14ec02696ac", "addresses": ["1FggVkVYrWBpibPtMwRQrNnPKy6vJEzJYf"], "asm": "031aa66313ee024bbee8c17915cf7d105656d0ace5b4a43a3ab5eae1e14ec02696 OP_CHECKSIG", "type": "pubkey"}, "value": 0.0001, "n": 2}, {"scriptPubKey": {"reqSigs": 1, "hex": "21031aa66313ee024bbee8c17915cf7d105656d0ace5b4a43a3ab5eae1e14ec02696ac", "addresses": ["1FggVkVYrWBpibPtMwRQrNnPKy6vJEzJYf"], "asm": "031aa66313ee024bbee8c17915cf7d105656d0ace5b4a43a3ab5eae1e14ec02696 OP_CHECKSIG", "type": "pubkey"}, "value": 0.0001, "n": 3}, {"scriptPubKey": {"reqSigs": 1, "hex": "21031aa66313ee024bbee8c17915cf7d105656d0ace5b4a43a3ab5eae1e14ec02696ac", "addresses": ["1FggVkVYrWBpibPtMwRQrNnPKy6vJEzJYf"], "asm": "031aa66313ee024bbee8c17915cf7d105656d0ace5b4a43a3ab5eae1e14ec02696 OP_CHECKSIG", "type": "pubkey"}, "value": 0.0001, "n": 4}, {"scriptPubKey": {"reqSigs": 1, "hex": "21031aa66313ee024bbee8c17915cf7d105656d0ace5b4a43a3ab5eae1e14ec02696ac", "addresses": ["1FggVkVYrWBpibPtMwRQrNnPKy6vJEzJYf"], "asm": "031aa66313ee024bbee8c17915cf7d105656d0ace5b4a43a3ab5eae1e14ec02696 OP_CHECKSIG", "type": "pubkey"}, "value": 0.0001, "n": 5}, {"scriptPubKey": {"reqSigs": 1, "hex": "76a914a112f3ec26d6e7d71e973c4e092c99cc7e9c213288ac", "addresses": ["1FggVkVYrWBpibPtMwRQrNnPKy6vJEzJYf"], "asm": "OP_DUP OP_HASH160 a112f3ec26d6e7d71e973c4e092c99cc7e9c2132 OP_EQUALVERIFY OP_CHECKSIG", "type": "pubkeyhash"}, "value": 0.18088991, "n": 6}], "hex": "01000000016f11c91d50af68f8b4cb55eef0afb5b53380d2426b6be924bca4aa6e7158438b060000006a47304402203a3088ef45a77546f94c242226e47c894788c67b445df888a6a281a80aa41cf3022063ca9ddbc54f1325c3e7af3b93dde328c5aa211fdfe92a86caf527e629b101140121031aa66313ee024bbee8c17915cf7d105656d0ace5b4a43a3ab5eae1e14ec02696ffffffff0710270000000000002321031aa66313ee024bbee8c17915cf7d105656d0ace5b4a43a3ab5eae1e14ec02696ac10270000000000002321031aa66313ee024bbee8c17915cf7d105656d0ace5b4a43a3ab5eae1e14ec02696ac10270000000000002321031aa66313ee024bbee8c17915cf7d105656d0ace5b4a43a3ab5eae1e14ec02696ac10270000000000002321031aa66313ee024bbee8c17915cf7d105656d0ace5b4a43a3ab5eae1e14ec02696ac10270000000000002321031aa66313ee024bbee8c17915cf7d105656d0ace5b4a43a3ab5eae1e14ec02696ac10270000000000002321031aa66313ee024bbee8c17915cf7d105656d0ace5b4a43a3ab5eae1e14ec02696ac1f041401000000001976a914a112f3ec26d6e7d71e973c4e092c99cc7e9c213288ac00000000", "vin": [{"sequence": 4294967295, "scriptSig": {"hex": "47304402203a3088ef45a77546f94c242226e47c894788c67b445df888a6a281a80aa41cf3022063ca9ddbc54f1325c3e7af3b93dde328c5aa211fdfe92a86caf527e629b101140121031aa66313ee024bbee8c17915cf7d105656d0ace5b4a43a3ab5eae1e14ec02696", "asm": "304402203a3088ef45a77546f94c242226e47c894788c67b445df888a6a281a80aa41cf3022063ca9ddbc54f1325c3e7af3b93dde328c5aa211fdfe92a86caf527e629b10114[ALL] 031aa66313ee024bbee8c17915cf7d105656d0ace5b4a43a3ab5eae1e14ec02696"}, "vout": 6, "txid": "8b4358716eaaa4bc24e96b6b42d28033b5b5aff0ee55cbb4f868af501dc9116f"}], "txid": "d6146ef9fe0d2059fe25b9d1906e83a6c5aed247d2c8951c04a31edd7fbb6053", "blocktime": 1537870268, "version": 1, "confirmations": 11516, "time": 1537870268, "locktime": 0, "vsize": 455, "size": 455}