{"hash": "d616ddad34fb275a6afb1227d8900beb5aad687008b484fbc279ad9c37cd106e", "blockhash": "000000000000000000022b45ed06c6f4ccd3cf7fb5ba4856ebd2e58215665228", "vout": [{"scriptPubKey": {"reqSigs": 1, "hex": "76a914f8efc57a41822aa4190a794f29a7b0c74ab20d1888ac", "addresses": ["1PhFpBbSSiVwUNXLJQsoYozeYfPx25ddU7"], "asm": "OP_DUP OP_HASH160 f8efc57a41822aa4190a794f29a7b0c74ab20d18 OP_EQUALVERIFY OP_CHECKSIG", "type": "pubkeyhash"}, "value": 0.00385691, "n": 0}, {"scriptPubKey": {"reqSigs": 1, "hex": "76a914f65434ac548fc5133716ceb89e7a0ce30779554088ac", "addresses": ["1PTU6uhoGmMvyrrRMvzKkD5gpA6TUG7j2B"], "asm": "OP_DUP OP_HASH160 f65434ac548fc5133716ceb89e7a0ce307795540 OP_EQUALVERIFY OP_CHECKSIG", "type": "pubkeyhash"}, "value": 0.01670867, "n": 1}], "hex": "01000000021662898d51401742b27b5bf1363cca7987f97297522ec7bc676efc4f1c3d1316010000006a4730440220732f985525887151006fb550fd8ba664c4abab14ff03e3e3fe8dc68ef25d77980220214c3cfb2960e9d6f666ef8008292f6d3889c045df9f1971cc864e5fd73618cf01210205c808d68925ef4d143ac06eb0c0bf373fef7d7082e805f2d3cd65bf1ec4e3d7ffffffff90f4fdc06454884f4314838e25c16a830eaea1bd28d77897bbc5b73f14536d4c1e0000006b483045022100e1b42e9a774f880fa0b5cde3b7ea204cd3d92939d5de59e8c7aac24f8d1dd997022035fc1824df46104cdaa7cacc5626ddb24f85297929a44acb614e92653e9c3635012103bd4746f2b06b331fe47df0bf6b86ebb05ecda206f0ffe3be5e60f16636812720ffffffff029be20500000000001976a914f8efc57a41822aa4190a794f29a7b0c74ab20d1888acd37e1900000000001976a914f65434ac548fc5133716ceb89e7a0ce30779554088ac00000000", "vin": [{"sequence": 4294967295, "scriptSig": {"hex": "4730440220732f985525887151006fb550fd8ba664c4abab14ff03e3e3fe8dc68ef25d77980220214c3cfb2960e9d6f666ef8008292f6d3889c045df9f1971cc864e5fd73618cf01210205c808d68925ef4d143ac06eb0c0bf373fef7d7082e805f2d3cd65bf1ec4e3d7", "asm": "30440220732f985525887151006fb550fd8ba664c4abab14ff03e3e3fe8dc68ef25d77980220214c3cfb2960e9d6f666ef8008292f6d3889c045df9f1971cc864e5fd73618cf[ALL] 0205c808d68925ef4d143ac06eb0c0bf373fef7d7082e805f2d3cd65bf1ec4e3d7"}, "vout": 1, "txid": "16133d1c4ffc6e67bcc72e529772f98779ca3c36f15b7bb2421740518d896216"}, {"sequence": 4294967295, "scriptSig": {"hex": "483045022100e1b42e9a774f880fa0b5cde3b7ea204cd3d92939d5de59e8c7aac24f8d1dd997022035fc1824df46104cdaa7cacc5626ddb24f85297929a44acb614e92653e9c3635012103bd4746f2b06b331fe47df0bf6b86ebb05ecda206f0ffe3be5e60f16636812720", "asm": "3045022100e1b42e9a774f880fa0b5cde3b7ea204cd3d92939d5de59e8c7aac24f8d1dd997022035fc1824df46104cdaa7cacc5626ddb24f85297929a44acb614e92653e9c3635[ALL] 03bd4746f2b06b331fe47df0bf6b86ebb05ecda206f0ffe3be5e60f16636812720"}, "vout": 30, "txid": "4c6d53143fb7c5bb9778d728bda1ae0e836ac1258e8314434f885464c0fdf490"}], "txid": "d616ddad34fb275a6afb1227d8900beb5aad687008b484fbc279ad9c37cd106e", "blocktime": 1537869901, "version": 1, "confirmations": 11524, "time": 1537869901, "locktime": 0, "vsize": 373, "size": 373}