{"hash": "d61644f5a28a1355c48a75cc15063b5ab24f325b010292198dae5fb6d92145fe", "blockhash": "0000000000000000000e13cef7c366c0283d82e591d1acd082e914b08063cdf1", "vout": [{"scriptPubKey": {"reqSigs": 1, "hex": "76a914ca548f3bce53d7bcc777ab54d2f7e2a05b1b71a888ac", "addresses": ["1KSpo3jvyY9Aty4qYfvUNVDiem4KGkmh65"], "asm": "OP_DUP OP_HASH160 ca548f3bce53d7bcc777ab54d2f7e2a05b1b71a8 OP_EQUALVERIFY OP_CHECKSIG", "type": "pubkeyhash"}, "value": 7.625e-05, "n": 0}, {"scriptPubKey": {"reqSigs": 1, "hex": "76a91460feb14f2860df68fc2a0116fbdbe0c9244b43f388ac", "addresses": ["19qrymbCMyrtp37DmLgRuuv6Cx4qzWgeRc"], "asm": "OP_DUP OP_HASH160 60feb14f2860df68fc2a0116fbdbe0c9244b43f3 OP_EQUALVERIFY OP_CHECKSIG", "type": "pubkeyhash"}, "value": 0.01250974, "n": 1}], "hex": "010000000370c1df2c12ead06a3fc0c73ee61ccc8b83445bc44fba27b4ad7767ebb6f2860c010000006a47304402207ae5a035007537db9f7061bb1f31d6a0eca9389d3628535732431d4655ebbe6b02204e85e70f42ee8c30049c3fb68e88e7327807c6722c91d952c593a70c2e33f030012103d93cbd6a9e42a29b5cfc281ee8ab0fb380b2a50fe509ea421b2f5d8ac07007b5ffffffff635efa7906a99cc807ac79d77ebfc76959dc3875a52d4208f52ebe314d9640cf050000006a4730440220137315538210c43b6b4706b83c2ea91ffd0255a519f6e9b126c44dbe18cdc785022071ff7a51d4f2eb9f54d4bcda0a95b601254c2c7bb9aeeb0c848be34ff8b66bf9012103d93cbd6a9e42a29b5cfc281ee8ab0fb380b2a50fe509ea421b2f5d8ac07007b5ffffffff31b3acbd767d15bf032b108a23ae86b11e77f89045be8703c5b9fcf0a0db07d2000000006a47304402207c65ac53fa492b5355f47859dd17e4f453b5b3ce9acbca36e2d23837bb5f361e02200dce99caefff079f09400816725841309409930fcb60d4ec8f8da60002d52eaf01210361067e7d1beba89b6df1f115545d93661c3b8f354435650e2bbd38e705812624ffffffff02c91d0000000000001976a914ca548f3bce53d7bcc777ab54d2f7e2a05b1b71a888ac9e161300000000001976a91460feb14f2860df68fc2a0116fbdbe0c9244b43f388ac00000000", "vin": [{"sequence": 4294967295, "scriptSig": {"hex": "47304402207ae5a035007537db9f7061bb1f31d6a0eca9389d3628535732431d4655ebbe6b02204e85e70f42ee8c30049c3fb68e88e7327807c6722c91d952c593a70c2e33f030012103d93cbd6a9e42a29b5cfc281ee8ab0fb380b2a50fe509ea421b2f5d8ac07007b5", "asm": "304402207ae5a035007537db9f7061bb1f31d6a0eca9389d3628535732431d4655ebbe6b02204e85e70f42ee8c30049c3fb68e88e7327807c6722c91d952c593a70c2e33f030[ALL] 03d93cbd6a9e42a29b5cfc281ee8ab0fb380b2a50fe509ea421b2f5d8ac07007b5"}, "vout": 1, "txid": "0c86f2b6eb6777adb427ba4fc45b44838bcc1ce63ec7c03f6ad0ea122cdfc170"}, {"sequence": 4294967295, "scriptSig": {"hex": "4730440220137315538210c43b6b4706b83c2ea91ffd0255a519f6e9b126c44dbe18cdc785022071ff7a51d4f2eb9f54d4bcda0a95b601254c2c7bb9aeeb0c848be34ff8b66bf9012103d93cbd6a9e42a29b5cfc281ee8ab0fb380b2a50fe509ea421b2f5d8ac07007b5", "asm": "30440220137315538210c43b6b4706b83c2ea91ffd0255a519f6e9b126c44dbe18cdc785022071ff7a51d4f2eb9f54d4bcda0a95b601254c2c7bb9aeeb0c848be34ff8b66bf9[ALL] 03d93cbd6a9e42a29b5cfc281ee8ab0fb380b2a50fe509ea421b2f5d8ac07007b5"}, "vout": 5, "txid": "cf40964d31be2ef508422da57538dc5969c7bf7ed779ac07c89ca90679fa5e63"}, {"sequence": 4294967295, "scriptSig": {"hex": "47304402207c65ac53fa492b5355f47859dd17e4f453b5b3ce9acbca36e2d23837bb5f361e02200dce99caefff079f09400816725841309409930fcb60d4ec8f8da60002d52eaf01210361067e7d1beba89b6df1f115545d93661c3b8f354435650e2bbd38e705812624", "asm": "304402207c65ac53fa492b5355f47859dd17e4f453b5b3ce9acbca36e2d23837bb5f361e02200dce99caefff079f09400816725841309409930fcb60d4ec8f8da60002d52eaf[ALL] 0361067e7d1beba89b6df1f115545d93661c3b8f354435650e2bbd38e705812624"}, "vout": 0, "txid": "d207dba0f0fcb9c50387be4590f8771eb186ae238a102b03bf157d76bdacb331"}], "txid": "d61644f5a28a1355c48a75cc15063b5ab24f325b010292198dae5fb6d92145fe", "blocktime": 1537871767, "version": 1, "confirmations": 11495, "time": 1537871767, "locktime": 0, "vsize": 519, "size": 519}