{"hash": "afbea50965c7415fe7ee57c327f5772047f5b913a98bb25e2dffad602dd61e47", "blockhash": "0000000000000000001e0dab787dd257d1dbfcb92a98c2207d5e1078be1f4165", "vout": [{"scriptPubKey": {"reqSigs": 1, "hex": "a9149d851d45289cd1ee9b0cc1c02e2e1397e4571c8e87", "addresses": ["3G3uUcBU72YRFPEn4Nk4ZkMTssrjSoVab6"], "asm": "OP_HASH160 9d851d45289cd1ee9b0cc1c02e2e1397e4571c8e OP_EQUAL", "type": "scripthash"}, "value": 0.00992443, "n": 0}, {"scriptPubKey": {"reqSigs": 1, "hex": "a9143a7a6f2833ea5334f669f11c8cd7ee731103aa0587", "addresses": ["372DnYix6px3eKdAL8rLHq6Dg5mz6MgMXv"], "asm": "OP_HASH160 3a7a6f2833ea5334f669f11c8cd7ee731103aa05 OP_EQUAL", "type": "scripthash"}, "value": 0.33426, "n": 1}], "hex": "0200000000010600a9ddbc9564cb869a7bf69315c78fd5694c0689ed81ef1b5c26891a9320a22f0600000017160014aa9413dde93c4cbda4ceee1c357d27199825b622feffffff26d4ba999bebaa229943448ca5ac06858540f3c1f1ad2a9bd2a12418f96304c7000000001716001404202d5297b1b58f309eacd9183c424f113a1b94feffffff3e3f15835e1bdcd67377fdd954f5c99c2469fd6144c03e8f2cfdf8c0a40742180000000017160014b536a19d4c5e4ff4d46e059e49617273ec87e7fcfeffffff58b20f120c6e630c45bd83d3794807562fdc5da1cf2b7a767e0b5ca72c5279470600000017160014ea04c928bc540b725a3d8e8bb672ed18de97664bfeffffffe80a806eab77aeb8921b3772d53b59eda6a82e2a6db979e7c229b843c023ccea00000000171600146eab323eb2ee0952150fb39225f474a25cc98771feffffffff2b2bdd2956ceec04cf2b0802e44c1ada5da0000544bff3137a16370b6a9e2605000000171600147b240f2b6b8c2641119316cec6c029687af434f7feffffff02bb240f000000000017a9149d851d45289cd1ee9b0cc1c02e2e1397e4571c8e87500afe010000000017a9143a7a6f2833ea5334f669f11c8cd7ee731103aa058702483045022100a36ef7393495f994f69a4eccadeb67b99fc558336b52eea382f8c01eeb5b230402201206039f6ea36e4b1ee65ef1384dafe33a43100d9444a972195854d64ff578ed01210231d3e69a03fd93783014e2cb5af22554332305deb6224915d5a21f777b7eaa160247304402200f71059886429827d4de8cd77105a7b465bdc1d9e1c77b999efb41a113696d4002206f4a5fbfc205c963e9135f5a0ae23f2f4fee31334455085a053f9bb819edccdf012102e89f620733573937c6ee5884ca01fe8fdc77e244316060932329e0b045ca32d7024730440220710d8f2efd8d5d54e87317912e19f3e86d9183780e76975fb525c9a1b543796802202f3e5e4f7044581340d3b777c435917eb2e940e9167cb3037bba793e7bb9d2b3012103ce67d8e0d858326cf2d4b2578aeefb213b3defaa6ef5a665456a3f0078b521eb0247304402205ad966d762a59c18495af8c19977c881643cd17ded71ab658abd201d78cbf6f6022042b2a367e80437e10d53687e864318b51b4aef3e2d6b1f34695026a14e8acc21012103f627c06edbc13cadd980eadd3e09427be4ef0cbf1568fb83a4533f7d2c15b6fd024730440220384827ff8e1df4944c63bc2b8c0961d827cddaaa54e4976e2f1800bfda9f02f6022074dd41f3a038dbc1c54db2ad05e63cbbb8ff54eed9c7673dd8d8549394ff9c3901210209054486f132c98b4e047404ed28a6e2e0c0e18640e6701f4c7687d6bd97246402483045022100e9b80d78cae2dce2bc972e827f68a6e6143dda92f589c08f60b189dfb191571202200741e4bceccd053ac495511cfaacc796a8126a629b640ee7fee1c5870a3699320121037e19f300f441008bd2aba07b4f2edb38332fd90766ef6c8917e152c0f35beab312490800", "vin": [{"txinwitness": ["3045022100a36ef7393495f994f69a4eccadeb67b99fc558336b52eea382f8c01eeb5b230402201206039f6ea36e4b1ee65ef1384dafe33a43100d9444a972195854d64ff578ed01", "0231d3e69a03fd93783014e2cb5af22554332305deb6224915d5a21f777b7eaa16"], "sequence": 4294967294, "scriptSig": {"hex": "160014aa9413dde93c4cbda4ceee1c357d27199825b622", "asm": "0014aa9413dde93c4cbda4ceee1c357d27199825b622"}, "vout": 6, "txid": "2fa220931a89265c1bef81ed89064c69d58fc71593f67b9a86cb6495bcdda900"}, {"txinwitness": ["304402200f71059886429827d4de8cd77105a7b465bdc1d9e1c77b999efb41a113696d4002206f4a5fbfc205c963e9135f5a0ae23f2f4fee31334455085a053f9bb819edccdf01", "02e89f620733573937c6ee5884ca01fe8fdc77e244316060932329e0b045ca32d7"], "sequence": 4294967294, "scriptSig": {"hex": "16001404202d5297b1b58f309eacd9183c424f113a1b94", "asm": "001404202d5297b1b58f309eacd9183c424f113a1b94"}, "vout": 0, "txid": "c70463f91824a1d29b2aadf1c1f340858506aca58c44439922aaeb9b99bad426"}, {"txinwitness": ["30440220710d8f2efd8d5d54e87317912e19f3e86d9183780e76975fb525c9a1b543796802202f3e5e4f7044581340d3b777c435917eb2e940e9167cb3037bba793e7bb9d2b301", "03ce67d8e0d858326cf2d4b2578aeefb213b3defaa6ef5a665456a3f0078b521eb"], "sequence": 4294967294, "scriptSig": {"hex": "160014b536a19d4c5e4ff4d46e059e49617273ec87e7fc", "asm": "0014b536a19d4c5e4ff4d46e059e49617273ec87e7fc"}, "vout": 0, "txid": "184207a4c0f8fd2c8f3ec04461fd69249cc9f554d9fd7773d6dc1b5e83153f3e"}, {"txinwitness": ["304402205ad966d762a59c18495af8c19977c881643cd17ded71ab658abd201d78cbf6f6022042b2a367e80437e10d53687e864318b51b4aef3e2d6b1f34695026a14e8acc2101", "03f627c06edbc13cadd980eadd3e09427be4ef0cbf1568fb83a4533f7d2c15b6fd"], "sequence": 4294967294, "scriptSig": {"hex": "160014ea04c928bc540b725a3d8e8bb672ed18de97664b", "asm": "0014ea04c928bc540b725a3d8e8bb672ed18de97664b"}, "vout": 6, "txid": "4779522ca75c0b7e767a2bcfa15ddc2f56074879d383bd450c636e0c120fb258"}, {"txinwitness": ["30440220384827ff8e1df4944c63bc2b8c0961d827cddaaa54e4976e2f1800bfda9f02f6022074dd41f3a038dbc1c54db2ad05e63cbbb8ff54eed9c7673dd8d8549394ff9c3901", "0209054486f132c98b4e047404ed28a6e2e0c0e18640e6701f4c7687d6bd972464"], "sequence": 4294967294, "scriptSig": {"hex": "1600146eab323eb2ee0952150fb39225f474a25cc98771", "asm": "00146eab323eb2ee0952150fb39225f474a25cc98771"}, "vout": 0, "txid": "eacc23c043b829c2e779b96d2a2ea8a6ed593bd572371b92b8ae77ab6e800ae8"}, {"txinwitness": ["3045022100e9b80d78cae2dce2bc972e827f68a6e6143dda92f589c08f60b189dfb191571202200741e4bceccd053ac495511cfaacc796a8126a629b640ee7fee1c5870a36993201", "037e19f300f441008bd2aba07b4f2edb38332fd90766ef6c8917e152c0f35beab3"], "sequence": 4294967294, "scriptSig": {"hex": "1600147b240f2b6b8c2641119316cec6c029687af434f7", "asm": "00147b240f2b6b8c2641119316cec6c029687af434f7"}, "vout": 5, "txid": "269e6a0b37167a13f3bf440500a05dda1a4ce402082bcf04ecce5629dd2b2bff"}], "txid": "d61c45bad43a5f5e1172f807891b37daa37b3398e995b49c8b56c399df2186cb", "blocktime": 1537872475, "version": 2, "confirmations": 11486, "time": 1537872475, "locktime": 542994, "vsize": 620, "size": 1104}