{"hash": "d62653fd74ef30521fe7f6307d7975cf0b90fbb2fec9ca7c08dcb2ce7b4a1d75", "blockhash": "0000000000000000001cda96e906b7601b7a6fb1a3b62bca570a9e5d8f4b3de1", "vout": [{"scriptPubKey": {"reqSigs": 1, "hex": "76a9144960d8670c1760499fca76eaa609f80e92a0aee588ac", "addresses": ["17gzLwCwpwYwbpwDzCuxQxaTTbCN2mtfs4"], "asm": "OP_DUP OP_HASH160 4960d8670c1760499fca76eaa609f80e92a0aee5 OP_EQUALVERIFY OP_CHECKSIG", "type": "pubkeyhash"}, "value": 0.00168, "n": 0}, {"scriptPubKey": {"reqSigs": 1, "hex": "76a9147919e4ba73bd94c9984a71aec471f69c6a71a53788ac", "addresses": ["1C3KnKdvEbUPycMrHVxSidvx5NhwggHwaL"], "asm": "OP_DUP OP_HASH160 7919e4ba73bd94c9984a71aec471f69c6a71a537 OP_EQUALVERIFY OP_CHECKSIG", "type": "pubkeyhash"}, "value": 0.03228474, "n": 1}], "hex": "0100000001f28b72ed2340e66d7db8fd4c3906568014e9c3b04a350d2ffeeeb9acb5b464c5010000006b4830450221009b0524b071d48548ac49ca6fde4be1eb1baee76996527079a769071d806b8b9202207cc08fb2e1aacdb9857f9a8953b091442734ea9f4dddac5977d0c0b19563335601210383b472bffd9a0d52aef6916e1327192eab8cffaf0320dc4147682006df0bc52cffffffff0240900200000000001976a9144960d8670c1760499fca76eaa609f80e92a0aee588ac3a433100000000001976a9147919e4ba73bd94c9984a71aec471f69c6a71a53788ac00000000", "vin": [{"sequence": 4294967295, "scriptSig": {"hex": "4830450221009b0524b071d48548ac49ca6fde4be1eb1baee76996527079a769071d806b8b9202207cc08fb2e1aacdb9857f9a8953b091442734ea9f4dddac5977d0c0b19563335601210383b472bffd9a0d52aef6916e1327192eab8cffaf0320dc4147682006df0bc52c", "asm": "30450221009b0524b071d48548ac49ca6fde4be1eb1baee76996527079a769071d806b8b9202207cc08fb2e1aacdb9857f9a8953b091442734ea9f4dddac5977d0c0b195633356[ALL] 0383b472bffd9a0d52aef6916e1327192eab8cffaf0320dc4147682006df0bc52c"}, "vout": 1, "txid": "c564b4b5acb9eefe2f0d354ab0c3e914805606394cfdb87d6de64023ed728bf2"}], "txid": "d62653fd74ef30521fe7f6307d7975cf0b90fbb2fec9ca7c08dcb2ce7b4a1d75", "blocktime": 1537873282, "version": 1, "confirmations": 11482, "time": 1537873282, "locktime": 0, "vsize": 226, "size": 226}