{"hash": "d6348611f2837c080f4b9657504a2bd0ff3db7aa3c71213c16bbeb106d3d30b7", "blockhash": "000000000000000000022b45ed06c6f4ccd3cf7fb5ba4856ebd2e58215665228", "vout": [{"scriptPubKey": {"reqSigs": 1, "hex": "76a9140119076916173f8dd2aa89f6cc9588c3faa7223588ac", "addresses": ["16ofEYjiSrrhxbhiykt4nkZXa3twQBRkf"], "asm": "OP_DUP OP_HASH160 0119076916173f8dd2aa89f6cc9588c3faa72235 OP_EQUALVERIFY OP_CHECKSIG", "type": "pubkeyhash"}, "value": 0.005, "n": 0}, {"scriptPubKey": {"reqSigs": 1, "hex": "76a914078e0f9a938c3fc83351f9b9a9cfc0f64d7ed11a88ac", "addresses": ["1gwuuq2X5nwJgxdxwQ8aRe69mW2ZUz9rV"], "asm": "OP_DUP OP_HASH160 078e0f9a938c3fc83351f9b9a9cfc0f64d7ed11a OP_EQUALVERIFY OP_CHECKSIG", "type": "pubkeyhash"}, "value": 0.0409203, "n": 1}], "hex": "0100000001a0f44ce770768f4b538d2992c07f5504f0a605830e4f28f0f337fb453e667ad7010000006b483045022100cdd4237733515ce87e7660d46578b1315d08d70fbfeb9fd180d00488f8a1023f0220745cfa78027aa95a72107f62feb834c9a7706b2407779fa915a21dc245a676d401210370f61f800400cb707e094b6b1986d23f91fcca1cda8ae43e9bd834fb8686aa37ffffffff0220a10700000000001976a9140119076916173f8dd2aa89f6cc9588c3faa7223588ac7e703e00000000001976a914078e0f9a938c3fc83351f9b9a9cfc0f64d7ed11a88ac00000000", "vin": [{"sequence": 4294967295, "scriptSig": {"hex": "483045022100cdd4237733515ce87e7660d46578b1315d08d70fbfeb9fd180d00488f8a1023f0220745cfa78027aa95a72107f62feb834c9a7706b2407779fa915a21dc245a676d401210370f61f800400cb707e094b6b1986d23f91fcca1cda8ae43e9bd834fb8686aa37", "asm": "3045022100cdd4237733515ce87e7660d46578b1315d08d70fbfeb9fd180d00488f8a1023f0220745cfa78027aa95a72107f62feb834c9a7706b2407779fa915a21dc245a676d4[ALL] 0370f61f800400cb707e094b6b1986d23f91fcca1cda8ae43e9bd834fb8686aa37"}, "vout": 1, "txid": "d77a663e45fb37f3f0284f0e8305a6f004557fc092298d534b8f7670e74cf4a0"}], "txid": "d6348611f2837c080f4b9657504a2bd0ff3db7aa3c71213c16bbeb106d3d30b7", "blocktime": 1537869901, "version": 1, "confirmations": 11523, "time": 1537869901, "locktime": 0, "vsize": 226, "size": 226}