{"hash": "dfa9688cd5eefe94c554de53f8305f3a41932c9dd5e9af43647c1f5154992585", "blockhash": "0000000000000000000baef3f32e3676a92c3b2e5da21b426e4f302fc371ce76", "vout": [{"scriptPubKey": {"reqSigs": 1, "hex": "a9140a5838a42339f332348473177a53be1c2878689687", "addresses": ["32diNBXTbYWK9oGeiei38Ayntxr5KXschE"], "asm": "OP_HASH160 0a5838a42339f332348473177a53be1c28786896 OP_EQUAL", "type": "scripthash"}, "value": 0.010296, "n": 0}, {"scriptPubKey": {"reqSigs": 1, "hex": "a914414cec0fc72a9410f6836edaf08de1aa3b2a321c87", "addresses": ["37eHzewnAFRR2SVZu8rZM3nBsmuE2XBU7D"], "asm": "OP_HASH160 414cec0fc72a9410f6836edaf08de1aa3b2a321c OP_EQUAL", "type": "scripthash"}, "value": 0.23736362, "n": 1}], "hex": "010000000001011957a3e85a7d01c6a9b00ffb1f59be36f895246b04b8375a802aa8d1500533b40100000023220020ce74cde37cfb8dd71d0179287e12fc721ee236ce3c89c2745bcd365b39807eb3ffffffff02e0b50f000000000017a9140a5838a42339f332348473177a53be1c28786896872a306a010000000017a914414cec0fc72a9410f6836edaf08de1aa3b2a321c870400483045022100e088caf115a24cbe62921addd173e1d56a9c4fa9e9128d11aa5d6acf7240449302206ba3bf5b2368631e1748942edc5a1876f9ee212b75686167d73939b2c099f6e401483045022100f2bcfd683135aadf24c0bf226d0d056baeca1c75fad4c5f9e147bb4c4cede21602206ea47378c4ee898d4905ba1fc5c023245ab3ee78dbf157ba4749b067ae9d3bdd0147522103ada901d90d5a76319a60f228e0b1bbc84b1d9a87238550bae5d5d190067b66712103871fc2ca08e6950b38867e8e6a0e94ee625223d3aa0df5c65f414c6d784467e252ae00000000", "vin": [{"txinwitness": ["", "3045022100e088caf115a24cbe62921addd173e1d56a9c4fa9e9128d11aa5d6acf7240449302206ba3bf5b2368631e1748942edc5a1876f9ee212b75686167d73939b2c099f6e401", "3045022100f2bcfd683135aadf24c0bf226d0d056baeca1c75fad4c5f9e147bb4c4cede21602206ea47378c4ee898d4905ba1fc5c023245ab3ee78dbf157ba4749b067ae9d3bdd01", "522103ada901d90d5a76319a60f228e0b1bbc84b1d9a87238550bae5d5d190067b66712103871fc2ca08e6950b38867e8e6a0e94ee625223d3aa0df5c65f414c6d784467e252ae"], "sequence": 4294967295, "scriptSig": {"hex": "220020ce74cde37cfb8dd71d0179287e12fc721ee236ce3c89c2745bcd365b39807eb3", "asm": "0020ce74cde37cfb8dd71d0179287e12fc721ee236ce3c89c2745bcd365b39807eb3"}, "vout": 1, "txid": "b4330550d1a82a805a37b8046b2495f836be591ffb0fb0a9c6017d5ae8a35719"}], "txid": "d63cef74814fb6fa57d39bd34179e20fbbc3418c7e77f8dfeb7c5b27fdbcd118", "blocktime": 1537876114, "version": 1, "confirmations": 11460, "time": 1537876114, "locktime": 0, "vsize": 206, "size": 372}