{"hash": "d63d820669c05ba8b07326c3d2e43fa8cea7944c37060cf6a40503ef189f4d13", "blockhash": "0000000000000000001cda96e906b7601b7a6fb1a3b62bca570a9e5d8f4b3de1", "vout": [{"scriptPubKey": {"type": "nulldata", "hex": "6a146f6d6e69000000000000001f000000001dcd6500", "asm": "OP_RETURN 6f6d6e69000000000000001f000000001dcd6500"}, "value": 0.0, "n": 0}, {"scriptPubKey": {"reqSigs": 1, "hex": "76a914882cc4f54c2ea08d18892bb11ab27fc43e466e7188ac", "addresses": ["1DR2XiiEjs91cTtp1LxyqEKm5ihNABmRZ7"], "asm": "OP_DUP OP_HASH160 882cc4f54c2ea08d18892bb11ab27fc43e466e71 OP_EQUALVERIFY OP_CHECKSIG", "type": "pubkeyhash"}, "value": 0.11203976, "n": 1}, {"scriptPubKey": {"reqSigs": 1, "hex": "76a9143c4f86bb2d18c19f0afde122b645b9867df787d688ac", "addresses": ["16Vtp6RnFtc89PHhoiWBVeEf7VyNHn3gQA"], "asm": "OP_DUP OP_HASH160 3c4f86bb2d18c19f0afde122b645b9867df787d6 OP_EQUALVERIFY OP_CHECKSIG", "type": "pubkeyhash"}, "value": 5.46e-06, "n": 2}], "hex": "01000000016aa8e382fd777b52500bb11048b77f2d0b6d330b4d22833289f10f245caf61ae000000006a473044022013a982341be1a90fe75739378a4d692c70341c1341db0a433e3980e38719dd8602203f1c03f7496f5c041b83a2d24d6609d31e18fefc99eef78357138f071d546406012102d7800c61a710c2c233322b2fbdcbbd492c162678a6cf6e859c3b7322e14189eefeffffff030000000000000000166a146f6d6e69000000000000001f000000001dcd650088f5aa00000000001976a914882cc4f54c2ea08d18892bb11ab27fc43e466e7188ac22020000000000001976a9143c4f86bb2d18c19f0afde122b645b9867df787d688ac13490800", "vin": [{"sequence": 4294967294, "scriptSig": {"hex": "473044022013a982341be1a90fe75739378a4d692c70341c1341db0a433e3980e38719dd8602203f1c03f7496f5c041b83a2d24d6609d31e18fefc99eef78357138f071d546406012102d7800c61a710c2c233322b2fbdcbbd492c162678a6cf6e859c3b7322e14189ee", "asm": "3044022013a982341be1a90fe75739378a4d692c70341c1341db0a433e3980e38719dd8602203f1c03f7496f5c041b83a2d24d6609d31e18fefc99eef78357138f071d546406[ALL] 02d7800c61a710c2c233322b2fbdcbbd492c162678a6cf6e859c3b7322e14189ee"}, "vout": 0, "txid": "ae61af5c240ff1893283224d0b336d0b2d7fb74810b10b50527b77fd82e3a86a"}], "txid": "d63d820669c05ba8b07326c3d2e43fa8cea7944c37060cf6a40503ef189f4d13", "blocktime": 1537873282, "version": 1, "confirmations": 11480, "time": 1537873282, "locktime": 542995, "vsize": 256, "size": 256}