{"hash": "051ae4b4ba3d0374cd254fef83e3dfdddfebe5ea11710ddeee8bfee2416497ec", "blockhash": "0000000000000000001e0dab787dd257d1dbfcb92a98c2207d5e1078be1f4165", "vout": [{"scriptPubKey": {"reqSigs": 1, "hex": "76a914536ffa992491508dca0354e52f32a3a7a679a53a88ac", "addresses": ["18cBEMRxXHqzWWCxZNtU91F5sbUNKhL5PX"], "asm": "OP_DUP OP_HASH160 536ffa992491508dca0354e52f32a3a7a679a53a OP_EQUALVERIFY OP_CHECKSIG", "type": "pubkeyhash"}, "value": 12.5942605, "n": 0}, {"scriptPubKey": {"type": "nulldata", "hex": "6a24aa21a9ed0a126ab178e814c5b2521aabdc406db7ae1cc04f5961a0b93a9a33b58e09c1ff", "asm": "OP_RETURN aa21a9ed0a126ab178e814c5b2521aabdc406db7ae1cc04f5961a0b93a9a33b58e09c1ff"}, "value": 0.0, "n": 1}], "hex": "010000000001010000000000000000000000000000000000000000000000000000000000000000ffffffff5903134908162f5669614254432f4d696e656420627920737331322f2cfabe6d6d289498a13a6c3c2f033854279341a292745045a724c2ff6e0093713b6a384b0604000000000000001073b5c90066ce6c7830038a3cdd170200ffffffff020251114b000000001976a914536ffa992491508dca0354e52f32a3a7a679a53a88ac0000000000000000266a24aa21a9ed0a126ab178e814c5b2521aabdc406db7ae1cc04f5961a0b93a9a33b58e09c1ff0120000000000000000000000000000000000000000000000000000000000000000000000000", "vin": [{"coinbase": "03134908162f5669614254432f4d696e656420627920737331322f2cfabe6d6d289498a13a6c3c2f033854279341a292745045a724c2ff6e0093713b6a384b0604000000000000001073b5c90066ce6c7830038a3cdd170200", "sequence": 4294967295}], "txid": "d645c9a7c9e4cae6f912ec759eaa31977f11d6281fa029d797adf3efa19faa43", "blocktime": 1537872475, "version": 1, "confirmations": 11486, "time": 1537872475, "locktime": 0, "vsize": 230, "size": 257}