{"hash": "d64e73c2bb2ea98080244bef809df183898e0ca3eefe1b435c6b8f00051cbc88", "blockhash": "0000000000000000001e0dab787dd257d1dbfcb92a98c2207d5e1078be1f4165", "vout": [{"scriptPubKey": {"reqSigs": 1, "hex": "76a91443c1ec7a23ea31473699f2d1fe50185d353d642988ac", "addresses": ["17BGaunyqrwjEhZCwkU4tUKKQp73dWVJSX"], "asm": "OP_DUP OP_HASH160 43c1ec7a23ea31473699f2d1fe50185d353d6429 OP_EQUALVERIFY OP_CHECKSIG", "type": "pubkeyhash"}, "value": 0.01007654, "n": 0}, {"scriptPubKey": {"reqSigs": 1, "hex": "76a91402b9179c2e9fadd38c66abd6f224c558913de8aa88ac", "addresses": ["1FQ5pPYAgGbFveVh1Y8jjkMfHfeUm7Jpi"], "asm": "OP_DUP OP_HASH160 02b9179c2e9fadd38c66abd6f224c558913de8aa OP_EQUALVERIFY OP_CHECKSIG", "type": "pubkeyhash"}, "value": 0.60069529, "n": 1}], "hex": "02000000017a55820dc8ebe194c6d13d5858ba4d5026ea974f55ef5f19be75d79dd373e363030000006b483045022100f32744790f078b15107926479db33c5d7a6ce52cd8ba5966b35af8b41ecc54b7022045e447f18f99b96cf3e670af37d99447ca3154c09f87d3f6c9a6bf4ee9217b4101210240da105c9478b248ac8d4e075742b42675ce6d162818014edfd11af0a3dcc03afeffffff0226600f00000000001976a91443c1ec7a23ea31473699f2d1fe50185d353d642988ac99969403000000001976a91402b9179c2e9fadd38c66abd6f224c558913de8aa88ac12490800", "vin": [{"sequence": 4294967294, "scriptSig": {"hex": "483045022100f32744790f078b15107926479db33c5d7a6ce52cd8ba5966b35af8b41ecc54b7022045e447f18f99b96cf3e670af37d99447ca3154c09f87d3f6c9a6bf4ee9217b4101210240da105c9478b248ac8d4e075742b42675ce6d162818014edfd11af0a3dcc03a", "asm": "3045022100f32744790f078b15107926479db33c5d7a6ce52cd8ba5966b35af8b41ecc54b7022045e447f18f99b96cf3e670af37d99447ca3154c09f87d3f6c9a6bf4ee9217b41[ALL] 0240da105c9478b248ac8d4e075742b42675ce6d162818014edfd11af0a3dcc03a"}, "vout": 3, "txid": "63e373d39dd775be195fef554f97ea26504dba58583dd1c694e1ebc80d82557a"}], "txid": "d64e73c2bb2ea98080244bef809df183898e0ca3eefe1b435c6b8f00051cbc88", "blocktime": 1537872475, "version": 2, "confirmations": 11486, "time": 1537872475, "locktime": 542994, "vsize": 226, "size": 226}