{"hash": "d653cd8e4c67aec5605eff62d4ee036a0ded5863a03eb1b7afd8a79f29d6fc2d", "blockhash": "0000000000000000000dcc0f55137456b1a82d3642486a52398922ac4d620174", "vout": [{"scriptPubKey": {"reqSigs": 1, "hex": "76a91422d2b9220c6d759cb93cbd4d916657b4603cb38788ac", "addresses": ["14B8Qprs4gvZRyE7zDCGcCrkw3JY5sRu6K"], "asm": "OP_DUP OP_HASH160 22d2b9220c6d759cb93cbd4d916657b4603cb387 OP_EQUALVERIFY OP_CHECKSIG", "type": "pubkeyhash"}, "value": 0.00037773, "n": 0}], "hex": "01000000012a904cb2c3616ec8810ce9afd99b5c15fea1a0efdb5682a5bdab016d0d5b3d3b000000006a47304402200221afc7e12d5de126e4b0c1b55a372ab45c9aee739243c0fc08be203a2dff1b02204a2a6117bf95c6779da138263eed73a7ba64bf3487fdabe488742f277e4b0ca0012102186afb1e1d15f4b98c0fbac527e496b243195280d8c60efa2d14b0c25ebba093ffffffff018d930000000000001976a91422d2b9220c6d759cb93cbd4d916657b4603cb38788ac00000000", "vin": [{"sequence": 4294967295, "scriptSig": {"hex": "47304402200221afc7e12d5de126e4b0c1b55a372ab45c9aee739243c0fc08be203a2dff1b02204a2a6117bf95c6779da138263eed73a7ba64bf3487fdabe488742f277e4b0ca0012102186afb1e1d15f4b98c0fbac527e496b243195280d8c60efa2d14b0c25ebba093", "asm": "304402200221afc7e12d5de126e4b0c1b55a372ab45c9aee739243c0fc08be203a2dff1b02204a2a6117bf95c6779da138263eed73a7ba64bf3487fdabe488742f277e4b0ca0[ALL] 02186afb1e1d15f4b98c0fbac527e496b243195280d8c60efa2d14b0c25ebba093"}, "vout": 0, "txid": "3b3d5b0d6d01abbda58256dbefa0a1fe155c9bd9afe90c81c86e61c3b24c902a"}], "txid": "d653cd8e4c67aec5605eff62d4ee036a0ded5863a03eb1b7afd8a79f29d6fc2d", "blocktime": 1537870268, "version": 1, "confirmations": 11518, "time": 1537870268, "locktime": 0, "vsize": 191, "size": 191}