{"hash": "d653ebddcae8b39f00630052639c1a1491deb63cd9c2edef5cf40b09305febda", "blockhash": "0000000000000000001f0ddff1eddb255c1121bcd4da4f1bc9a0da00cae72433", "vout": [{"scriptPubKey": {"reqSigs": 1, "hex": "a9142593b4e108070d239cce7489ea9e53a9e6ba7f6387", "addresses": ["357hsUPkhwHvWRKdzFAgwiwSrm1rrnt6n2"], "asm": "OP_HASH160 2593b4e108070d239cce7489ea9e53a9e6ba7f63 OP_EQUAL", "type": "scripthash"}, "value": 0.06712404, "n": 0}], "hex": "0100000004ae2a3dd23eb7feef77d9e0bf4ff5246b4aed0833d787dba209a322ee7cae3e280a0000006b483045022100c2adf6c6acc6c3128e2123b5e85142f6ea9337a851470d1d7ecf89649ac637fa022066233911ec833f911234080a2eab24e40b65660a8f20ee383bf5c1a8e61eba580121029f6da5623c9f9b68a9baf9c1bc7511df88fa34c6c2f71f7c62f2f03ff48dca80feffffff35555e0a045ec77a515eda62371c4809c4792a95701763a7e2a686d8857f68960b0000006b483045022100da87b2a836bfb09892ae0814ae021b32b63c0425ea5ed6cb997317ee2f13c21002201f01cfb373dd66ece8fa6001ca22b5c4bb50273fbfdb1dc407fb5dfe236f80af0121029f6da5623c9f9b68a9baf9c1bc7511df88fa34c6c2f71f7c62f2f03ff48dca80feffffff3fc64d6c9add73011944bba7029de45cb165eb510b49d0483a3fc89b0ef3189c0b0000006a4730440220621d614bfc2e84e3fbdb507b2af93976792f7624f3e9e8b345c2478b524c629c0220392d8434a3d6e90929e149bb94fe5629d83be148aea7057cb0c0fc92b733026a0121029f6da5623c9f9b68a9baf9c1bc7511df88fa34c6c2f71f7c62f2f03ff48dca80fefffffff969126b53764174a006ee7cf77e71760699206ab4f46c8efa2323d6e92060a3010000006a47304402205b811eea7a6742cf4ab0eb02a8e4a7c7cdf67f5fcf068729181a6df454921ff602201df86a78efbb12e58117b332296793e2444532def51e5b068ca24275283a83bb012102a34a52fe55285132ce329c620855e99e7500c3a7c530b75f1d6c0875b677b04cfeffffff01546c66000000000017a9142593b4e108070d239cce7489ea9e53a9e6ba7f638710490800", "vin": [{"sequence": 4294967294, "scriptSig": {"hex": "483045022100c2adf6c6acc6c3128e2123b5e85142f6ea9337a851470d1d7ecf89649ac637fa022066233911ec833f911234080a2eab24e40b65660a8f20ee383bf5c1a8e61eba580121029f6da5623c9f9b68a9baf9c1bc7511df88fa34c6c2f71f7c62f2f03ff48dca80", "asm": "3045022100c2adf6c6acc6c3128e2123b5e85142f6ea9337a851470d1d7ecf89649ac637fa022066233911ec833f911234080a2eab24e40b65660a8f20ee383bf5c1a8e61eba58[ALL] 029f6da5623c9f9b68a9baf9c1bc7511df88fa34c6c2f71f7c62f2f03ff48dca80"}, "vout": 10, "txid": "283eae7cee22a309a2db87d73308ed4a6b24f54fbfe0d977effeb73ed23d2aae"}, {"sequence": 4294967294, "scriptSig": {"hex": "483045022100da87b2a836bfb09892ae0814ae021b32b63c0425ea5ed6cb997317ee2f13c21002201f01cfb373dd66ece8fa6001ca22b5c4bb50273fbfdb1dc407fb5dfe236f80af0121029f6da5623c9f9b68a9baf9c1bc7511df88fa34c6c2f71f7c62f2f03ff48dca80", "asm": "3045022100da87b2a836bfb09892ae0814ae021b32b63c0425ea5ed6cb997317ee2f13c21002201f01cfb373dd66ece8fa6001ca22b5c4bb50273fbfdb1dc407fb5dfe236f80af[ALL] 029f6da5623c9f9b68a9baf9c1bc7511df88fa34c6c2f71f7c62f2f03ff48dca80"}, "vout": 11, "txid": "96687f85d886a6e2a7631770952a79c409481c3762da5e517ac75e040a5e5535"}, {"sequence": 4294967294, "scriptSig": {"hex": "4730440220621d614bfc2e84e3fbdb507b2af93976792f7624f3e9e8b345c2478b524c629c0220392d8434a3d6e90929e149bb94fe5629d83be148aea7057cb0c0fc92b733026a0121029f6da5623c9f9b68a9baf9c1bc7511df88fa34c6c2f71f7c62f2f03ff48dca80", "asm": "30440220621d614bfc2e84e3fbdb507b2af93976792f7624f3e9e8b345c2478b524c629c0220392d8434a3d6e90929e149bb94fe5629d83be148aea7057cb0c0fc92b733026a[ALL] 029f6da5623c9f9b68a9baf9c1bc7511df88fa34c6c2f71f7c62f2f03ff48dca80"}, "vout": 11, "txid": "9c18f30e9bc83f3a48d0490b51eb65b15ce49d02a7bb44190173dd9a6c4dc63f"}, {"sequence": 4294967294, "scriptSig": {"hex": "47304402205b811eea7a6742cf4ab0eb02a8e4a7c7cdf67f5fcf068729181a6df454921ff602201df86a78efbb12e58117b332296793e2444532def51e5b068ca24275283a83bb012102a34a52fe55285132ce329c620855e99e7500c3a7c530b75f1d6c0875b677b04c", "asm": "304402205b811eea7a6742cf4ab0eb02a8e4a7c7cdf67f5fcf068729181a6df454921ff602201df86a78efbb12e58117b332296793e2444532def51e5b068ca24275283a83bb[ALL] 02a34a52fe55285132ce329c620855e99e7500c3a7c530b75f1d6c0875b677b04c"}, "vout": 1, "txid": "a36020e9d62323fa8e6cf4b46a20990676717ef77cee06a0744176536b1269f9"}], "txid": "d653ebddcae8b39f00630052639c1a1491deb63cd9c2edef5cf40b09305febda", "blocktime": 1537872018, "version": 1, "confirmations": 11489, "time": 1537872018, "locktime": 542992, "vsize": 632, "size": 632}