{"hash": "d656413364a0163054433ee2be20ceaa833b002a92e4137314c3783aa010d390", "blockhash": "0000000000000000001f76057863aec43deb6fa401d9628bb513d65a8098bfab", "vout": [{"scriptPubKey": {"reqSigs": 1, "hex": "76a914ae385e368b25b88f42f6343ecf4b964fb54b9aac88ac", "addresses": ["1GtC6u35BpyWogQbMP8TebB9iqnfhumrxh"], "asm": "OP_DUP OP_HASH160 ae385e368b25b88f42f6343ecf4b964fb54b9aac OP_EQUALVERIFY OP_CHECKSIG", "type": "pubkeyhash"}, "value": 6.95e-05, "n": 0}, {"scriptPubKey": {"reqSigs": 1, "hex": "76a9145f111d8699a8672f5f00c1701fa862a17182718888ac", "addresses": ["19ffhRFtfzKYb68XKL4tkAA7o8vKVmJjeN"], "asm": "OP_DUP OP_HASH160 5f111d8699a8672f5f00c1701fa862a171827188 OP_EQUALVERIFY OP_CHECKSIG", "type": "pubkeyhash"}, "value": 0.02137885, "n": 1}], "hex": "010000000310ec8bbec75cc668a10c967474d28727226891f4ff0cb52772b514d9dd38180c010000006b483045022100a24c31cd2ce4db1673134af40367db4ebefd73435e2b57ee70d9dd07b333d246022002cc80d18d0bfdefba8cfbf1f8625eaa84ccbb03858cf856099097323dd444fa012102b85943700e63e10a29eaaea8bdadaddb830b79f8b02903cca822b1da563d6404ffffffffc554593d566a08130d1f3cfd0fbc23e6160fbcc37b5d016b90100d5de487e3ac000000006a4730440220036750bab748932de8ee6eda120d6e679e9d7d5599259c2caf3441fa5fed49bb0220493c5484297ee8cd852a1e4e4e3e78a2bb617bf9876abf47afd128a36d58fca4012102b85943700e63e10a29eaaea8bdadaddb830b79f8b02903cca822b1da563d6404ffffffffb1aba47b38e887968a9aa75487091d33074292e2de868bcffe07d37eeb367aaf000000006b483045022100ca881042c8eb2f4d8bab377fc5c0b0fe40e55ed36c809476c4aaa9cc6a40b63302203742bc968071b1bea7dd7894d70ae52b96eb13a8b2c27e70d69f61b904a820860121033a08e078b494b2dbf5127a3f4a5601ab5dfc721881765a0e2f69cd5ec50694b8ffffffff02261b0000000000001976a914ae385e368b25b88f42f6343ecf4b964fb54b9aac88ac1d9f2000000000001976a9145f111d8699a8672f5f00c1701fa862a17182718888ac00000000", "vin": [{"sequence": 4294967295, "scriptSig": {"hex": "483045022100a24c31cd2ce4db1673134af40367db4ebefd73435e2b57ee70d9dd07b333d246022002cc80d18d0bfdefba8cfbf1f8625eaa84ccbb03858cf856099097323dd444fa012102b85943700e63e10a29eaaea8bdadaddb830b79f8b02903cca822b1da563d6404", "asm": "3045022100a24c31cd2ce4db1673134af40367db4ebefd73435e2b57ee70d9dd07b333d246022002cc80d18d0bfdefba8cfbf1f8625eaa84ccbb03858cf856099097323dd444fa[ALL] 02b85943700e63e10a29eaaea8bdadaddb830b79f8b02903cca822b1da563d6404"}, "vout": 1, "txid": "0c1838ddd914b57227b50cfff49168222787d27474960ca168c65cc7be8bec10"}, {"sequence": 4294967295, "scriptSig": {"hex": "4730440220036750bab748932de8ee6eda120d6e679e9d7d5599259c2caf3441fa5fed49bb0220493c5484297ee8cd852a1e4e4e3e78a2bb617bf9876abf47afd128a36d58fca4012102b85943700e63e10a29eaaea8bdadaddb830b79f8b02903cca822b1da563d6404", "asm": "30440220036750bab748932de8ee6eda120d6e679e9d7d5599259c2caf3441fa5fed49bb0220493c5484297ee8cd852a1e4e4e3e78a2bb617bf9876abf47afd128a36d58fca4[ALL] 02b85943700e63e10a29eaaea8bdadaddb830b79f8b02903cca822b1da563d6404"}, "vout": 0, "txid": "ace387e45d0d10906b015d7bc3bc0f16e623bc0ffd3c1f0d13086a563d5954c5"}, {"sequence": 4294967295, "scriptSig": {"hex": "483045022100ca881042c8eb2f4d8bab377fc5c0b0fe40e55ed36c809476c4aaa9cc6a40b63302203742bc968071b1bea7dd7894d70ae52b96eb13a8b2c27e70d69f61b904a820860121033a08e078b494b2dbf5127a3f4a5601ab5dfc721881765a0e2f69cd5ec50694b8", "asm": "3045022100ca881042c8eb2f4d8bab377fc5c0b0fe40e55ed36c809476c4aaa9cc6a40b63302203742bc968071b1bea7dd7894d70ae52b96eb13a8b2c27e70d69f61b904a82086[ALL] 033a08e078b494b2dbf5127a3f4a5601ab5dfc721881765a0e2f69cd5ec50694b8"}, "vout": 0, "txid": "af7a36eb7ed307fecf8b86dee2924207331d098754a79a8a9687e8387ba4abb1"}], "txid": "d656413364a0163054433ee2be20ceaa833b002a92e4137314c3783aa010d390", "blocktime": 1537873891, "version": 1, "confirmations": 11478, "time": 1537873891, "locktime": 0, "vsize": 521, "size": 521}