{"hash": "88da2b4e4da6f77c9595f7147cc2b102fd484da60de1704d2a97601a631a7c73", "blockhash": "00000000000000000018f53835495a110e01622372bf6ae95dc86f2b0ab887b0", "vout": [{"scriptPubKey": {"reqSigs": 1, "hex": "76a9142af36cae9cb241f518971e06c03cf2be51ae9d1188ac", "addresses": ["14v6zVSf5QRqi2TZCQVRoC6hzRaB2k5woD"], "asm": "OP_DUP OP_HASH160 2af36cae9cb241f518971e06c03cf2be51ae9d11 OP_EQUALVERIFY OP_CHECKSIG", "type": "pubkeyhash"}, "value": 0.108665, "n": 0}, {"scriptPubKey": {"reqSigs": 1, "hex": "0014c4071fb98f2b03a4438b5be4079c2f5997161f09", "addresses": ["bc1qcsr3lwv09vp6gsutt0jq08p0txt3v8cfh0htzu"], "asm": "0 c4071fb98f2b03a4438b5be4079c2f5997161f09", "type": "witness_v0_keyhash"}, "value": 0.04453641, "n": 1}], "hex": "0100000000010190f5019a8f948dff1b1306b96f70880eb8147f16b0e20e86bc1dd8fb550e71330100000000ffffffff0244cfa500000000001976a9142af36cae9cb241f518971e06c03cf2be51ae9d1188ac09f5430000000000160014c4071fb98f2b03a4438b5be4079c2f5997161f0902483045022100ab8dba80969128e6549ba6f63bffade62a680198c174fa91d5812c0b17d1628102200203a1d45a10954c67e5f4a65392336974c84bc4599838d84be0558d40c3ad6d0121026acccf2d6959cd1a3b7d0a75aac3aeedbcddaa74d14f6096847bde748a7efcb500000000", "vin": [{"txinwitness": ["3045022100ab8dba80969128e6549ba6f63bffade62a680198c174fa91d5812c0b17d1628102200203a1d45a10954c67e5f4a65392336974c84bc4599838d84be0558d40c3ad6d01", "026acccf2d6959cd1a3b7d0a75aac3aeedbcddaa74d14f6096847bde748a7efcb5"], "sequence": 4294967295, "scriptSig": {"hex": "", "asm": ""}, "vout": 1, "txid": "33710e55fbd81dbc860ee2b0167f14b80e88706fb906131bff8d948f9a01f590"}], "txid": "d65a29a2404ad64d735bb34baa31a0182c63e35ca1ceef7edefcf41d2738cf53", "blocktime": 1537870928, "version": 1, "confirmations": 11512, "time": 1537870928, "locktime": 0, "vsize": 144, "size": 226}