{"hash": "6c83989e76b62527ab1cc7ef207888dede946d7e0cd173b406af2154c7fcf32b", "blockhash": "0000000000000000000e13cef7c366c0283d82e591d1acd082e914b08063cdf1", "vout": [{"scriptPubKey": {"type": "nulldata", "hex": "6a146f6d6e69000000000000001f000000f16c0e6100", "asm": "OP_RETURN 6f6d6e69000000000000001f000000f16c0e6100"}, "value": 0.0, "n": 0}, {"scriptPubKey": {"reqSigs": 1, "hex": "a914e818e90b8e6b38dba66f74b35cb708bbc73e2ea787", "addresses": ["3NrEXrB9qAxXYfRt6jKtBD8QzoU2qtNWDR"], "asm": "OP_HASH160 e818e90b8e6b38dba66f74b35cb708bbc73e2ea7 OP_EQUAL", "type": "scripthash"}, "value": 2.73e-05, "n": 1}, {"scriptPubKey": {"reqSigs": 1, "hex": "a914e818e90b8e6b38dba66f74b35cb708bbc73e2ea787", "addresses": ["3NrEXrB9qAxXYfRt6jKtBD8QzoU2qtNWDR"], "asm": "OP_HASH160 e818e90b8e6b38dba66f74b35cb708bbc73e2ea7 OP_EQUAL", "type": "scripthash"}, "value": 0.11016365, "n": 2}], "hex": "01000000000102591f8712be73a3703bde58da7758f84eb2098d7d88db10e6e22a52ee2b4b0e150200000017160014706a16e58463c3fa0c3b52ef6eb8fc092ae90415ffffffffb1c798e50128d685f39ff0d391bafc431b22315edd2fad6ec47470d6872716c00000000017160014cbc6dc6bc778ec9b40854e0693a9634390b88cafffffffff030000000000000000166a146f6d6e69000000000000001f000000f16c0e6100aa0a00000000000017a914e818e90b8e6b38dba66f74b35cb708bbc73e2ea787ad18a8000000000017a914e818e90b8e6b38dba66f74b35cb708bbc73e2ea78702483045022100d11b0ee00c1e9419e3dd74ef8699bc921086c3b11820b37e2b8a31c05d36a3bb022024e3ad71ee7cb35f263b5d029d63447f77c6316f64320764ea06a8094b783e9e01210318372e47322ec37af6fed96c8a799283ad3872109384df4ef627fceb4ac2460f02483045022100fec6344b55782bda5d6a79d5e2c2da05805cfb6ba20202222d3ddc909b7d7cce022048cafef3a8b08911011eaeb0c1b5669105362ea1dbb2fe3149789efc6f134bd7012102568164cc6f73663ed0cfdeff54f4b038bf9ff7f0fcc05d31f9296ec68417b56600000000", "vin": [{"txinwitness": ["3045022100d11b0ee00c1e9419e3dd74ef8699bc921086c3b11820b37e2b8a31c05d36a3bb022024e3ad71ee7cb35f263b5d029d63447f77c6316f64320764ea06a8094b783e9e01", "0318372e47322ec37af6fed96c8a799283ad3872109384df4ef627fceb4ac2460f"], "sequence": 4294967295, "scriptSig": {"hex": "160014706a16e58463c3fa0c3b52ef6eb8fc092ae90415", "asm": "0014706a16e58463c3fa0c3b52ef6eb8fc092ae90415"}, "vout": 2, "txid": "150e4b2bee522ae2e610db887d8d09b24ef85877da58de3b70a373be12871f59"}, {"txinwitness": ["3045022100fec6344b55782bda5d6a79d5e2c2da05805cfb6ba20202222d3ddc909b7d7cce022048cafef3a8b08911011eaeb0c1b5669105362ea1dbb2fe3149789efc6f134bd701", "02568164cc6f73663ed0cfdeff54f4b038bf9ff7f0fcc05d31f9296ec68417b566"], "sequence": 4294967295, "scriptSig": {"hex": "160014cbc6dc6bc778ec9b40854e0693a9634390b88caf", "asm": "0014cbc6dc6bc778ec9b40854e0693a9634390b88caf"}, "vout": 0, "txid": "c0162787d67074c46ead2fdd5e31221b43fcba91d3f09ff385d62801e598c7b1"}], "txid": "d65c9bd588ae362a7bc97e036aa61d00f390a0145974b75d44260030d10eb34e", "blocktime": 1537871767, "version": 1, "confirmations": 11493, "time": 1537871767, "locktime": 0, "vsize": 288, "size": 451}