{"hash": "d6636dfa13e01f06d9dcec71b99039006c6e0ac6d3ae668b4513e866becb54d1", "blockhash": "00000000000000000004ffacab907a6b429b9a5745fa0b75af4234bf69dd7176", "vout": [{"scriptPubKey": {"reqSigs": 1, "hex": "76a91424db2cca517a02a3a1c1349d55fe3bc8fdbd980888ac", "addresses": ["14MstT4EnfVEF8AhBqRv3W9uHnpggJod8i"], "asm": "OP_DUP OP_HASH160 24db2cca517a02a3a1c1349d55fe3bc8fdbd9808 OP_EQUALVERIFY OP_CHECKSIG", "type": "pubkeyhash"}, "value": 0.0124429, "n": 0}, {"scriptPubKey": {"reqSigs": 1, "hex": "a914f90e6eb40093d04b7d080389d06ea81530e51d0487", "addresses": ["3QPuU6Ks1nu4zyuqz5z8jKcimamTfX4KL9"], "asm": "OP_HASH160 f90e6eb40093d04b7d080389d06ea81530e51d04 OP_EQUAL", "type": "scripthash"}, "value": 0.12761966, "n": 1}], "hex": "01000000053fc265e340260bf09e2fd1771dd3726f8f4b337a726235f85e8ccc7283dcb939000000006b483045022100fb0e72b1bc8fe8bdbec5ec41a82a456ba616b7c331b5ce74fd70683f371de68e0220150c13fe3b28e70e6a5728acaf54709695e1d084cc6a47178e024dd72abab73801210207413f0e848004af5f37cf077209fd1387258fa2fb25b9e38d4923a3d08907a9ffffffff4e41e19d600408d4712a8fe42fe2d5b18dfbdc7b0afbda178a86766023b88a42010000006a47304402200bf93d954fbadb9c0a1c2b0c0a88a18538c2a200c539e4d5fd5a07782468ea31022063d5df80c11b7d97115fa1cfcb1daa7c46d877ca64c6cca0689f75961021fae8012103815e7dc1eda021d2844cf00d0b65da382db9e4cae3d3f0df342ed855d9c2d185ffffffffcf6b7f4c6684e4532c41dd7c30506ceac1b136578fb52df93e290bd237a13c74010000006b483045022100e42a92bd95caeda7abbf21c54513eb3adac213498f77826278dbbdc5b8d4ccd3022076730b054c01ee7576184e051b07f6f088aaba9e5e0b0b289bad011c4784fbad0121023d75d8f173f53e905c380df0d19f2d52521ccc51111a8744d89c6cddbc20437bffffffff7e74d62bf3989753f8d21aaab9c0cb242b6cd1f102f34a7fc02e86fe120971c0000000006a473044022049c481bcf1482814a2364bdbbaa0519a305afd8b0bc9c6c1c4cd63353797a87f02200b900beda1e8ebc613c80e25f93e7f944077668f03649a564547ac886a9fe8f6012103e9fb9a7a7af4408830abff58a9529020281f8f6f50d198d05e1553cb31e04795ffffffff8eadfe4392bbd266a1f516a9664fa3c140694b7d00d219d20616ad9227932ffc000000006a47304402207422999bc40625864a467318b0de3b4275e7c98eb6e59bc933a8975723511ee3022001801e5cba30964f53c394683ad804bee6cb1cb93a5a5183a86f03d66ec9dc17012103b6c8179f821413b10598c71f2eb08fd74e521c10253a8cffdade80ec0b7c6264ffffffff0282fc1200000000001976a91424db2cca517a02a3a1c1349d55fe3bc8fdbd980888ac6ebbc2000000000017a914f90e6eb40093d04b7d080389d06ea81530e51d048700000000", "vin": [{"sequence": 4294967295, "scriptSig": {"hex": "483045022100fb0e72b1bc8fe8bdbec5ec41a82a456ba616b7c331b5ce74fd70683f371de68e0220150c13fe3b28e70e6a5728acaf54709695e1d084cc6a47178e024dd72abab73801210207413f0e848004af5f37cf077209fd1387258fa2fb25b9e38d4923a3d08907a9", "asm": "3045022100fb0e72b1bc8fe8bdbec5ec41a82a456ba616b7c331b5ce74fd70683f371de68e0220150c13fe3b28e70e6a5728acaf54709695e1d084cc6a47178e024dd72abab738[ALL] 0207413f0e848004af5f37cf077209fd1387258fa2fb25b9e38d4923a3d08907a9"}, "vout": 0, "txid": "39b9dc8372cc8c5ef83562727a334b8f6f72d31d77d12f9ef00b2640e365c23f"}, {"sequence": 4294967295, "scriptSig": {"hex": "47304402200bf93d954fbadb9c0a1c2b0c0a88a18538c2a200c539e4d5fd5a07782468ea31022063d5df80c11b7d97115fa1cfcb1daa7c46d877ca64c6cca0689f75961021fae8012103815e7dc1eda021d2844cf00d0b65da382db9e4cae3d3f0df342ed855d9c2d185", "asm": "304402200bf93d954fbadb9c0a1c2b0c0a88a18538c2a200c539e4d5fd5a07782468ea31022063d5df80c11b7d97115fa1cfcb1daa7c46d877ca64c6cca0689f75961021fae8[ALL] 03815e7dc1eda021d2844cf00d0b65da382db9e4cae3d3f0df342ed855d9c2d185"}, "vout": 1, "txid": "428ab8236076868a17dafb0a7bdcfb8db1d5e22fe48f2a71d40804609de1414e"}, {"sequence": 4294967295, "scriptSig": {"hex": "483045022100e42a92bd95caeda7abbf21c54513eb3adac213498f77826278dbbdc5b8d4ccd3022076730b054c01ee7576184e051b07f6f088aaba9e5e0b0b289bad011c4784fbad0121023d75d8f173f53e905c380df0d19f2d52521ccc51111a8744d89c6cddbc20437b", "asm": "3045022100e42a92bd95caeda7abbf21c54513eb3adac213498f77826278dbbdc5b8d4ccd3022076730b054c01ee7576184e051b07f6f088aaba9e5e0b0b289bad011c4784fbad[ALL] 023d75d8f173f53e905c380df0d19f2d52521ccc51111a8744d89c6cddbc20437b"}, "vout": 1, "txid": "743ca137d20b293ef92db58f5736b1c1ea6c50307cdd412c53e484664c7f6bcf"}, {"sequence": 4294967295, "scriptSig": {"hex": "473044022049c481bcf1482814a2364bdbbaa0519a305afd8b0bc9c6c1c4cd63353797a87f02200b900beda1e8ebc613c80e25f93e7f944077668f03649a564547ac886a9fe8f6012103e9fb9a7a7af4408830abff58a9529020281f8f6f50d198d05e1553cb31e04795", "asm": "3044022049c481bcf1482814a2364bdbbaa0519a305afd8b0bc9c6c1c4cd63353797a87f02200b900beda1e8ebc613c80e25f93e7f944077668f03649a564547ac886a9fe8f6[ALL] 03e9fb9a7a7af4408830abff58a9529020281f8f6f50d198d05e1553cb31e04795"}, "vout": 0, "txid": "c0710912fe862ec07f4af302f1d16c2b24cbc0b9aa1ad2f8539798f32bd6747e"}, {"sequence": 4294967295, "scriptSig": {"hex": "47304402207422999bc40625864a467318b0de3b4275e7c98eb6e59bc933a8975723511ee3022001801e5cba30964f53c394683ad804bee6cb1cb93a5a5183a86f03d66ec9dc17012103b6c8179f821413b10598c71f2eb08fd74e521c10253a8cffdade80ec0b7c6264", "asm": "304402207422999bc40625864a467318b0de3b4275e7c98eb6e59bc933a8975723511ee3022001801e5cba30964f53c394683ad804bee6cb1cb93a5a5183a86f03d66ec9dc17[ALL] 03b6c8179f821413b10598c71f2eb08fd74e521c10253a8cffdade80ec0b7c6264"}, "vout": 0, "txid": "fc2f932792ad1606d219d2007d4b6940c1a34f66a916f5a166d2bb9243fead8e"}], "txid": "d6636dfa13e01f06d9dcec71b99039006c6e0ac6d3ae668b4513e866becb54d1", "blocktime": 1537875543, "version": 1, "confirmations": 11464, "time": 1537875543, "locktime": 0, "vsize": 813, "size": 813}