{"hash": "3aa05e7b458fe604b5dc711c661240066434339fd62409fd210f39e6ead12d7c", "blockhash": "0000000000000000001cda96e906b7601b7a6fb1a3b62bca570a9e5d8f4b3de1", "vout": [{"scriptPubKey": {"reqSigs": 1, "hex": "a9143fb3dc0baa6a05840ac0f36dc150136e145ce2b587", "addresses": ["37VqxVNGa2aYL8i2eVqJWEchTBaojvUxpi"], "asm": "OP_HASH160 3fb3dc0baa6a05840ac0f36dc150136e145ce2b5 OP_EQUAL", "type": "scripthash"}, "value": 0.01081203, "n": 0}, {"scriptPubKey": {"reqSigs": 1, "hex": "76a91478909ee1deae18f2319bf9e51418bcbe1eb0e3ac88ac", "addresses": ["1BzVLSNcwznjoynyuFgMXwaGeevycLgDEN"], "asm": "OP_DUP OP_HASH160 78909ee1deae18f2319bf9e51418bcbe1eb0e3ac OP_EQUALVERIFY OP_CHECKSIG", "type": "pubkeyhash"}, "value": 0.00176625, "n": 1}], "hex": "020000000001016037a39dc438b577245204f2bce2eefd7d800e74c8418b3f4d627fe5aa2d267d010000001716001465ab12a2da76dc51744d3ea05cd94d8bf2324ba4feffffff02737f10000000000017a9143fb3dc0baa6a05840ac0f36dc150136e145ce2b587f1b10200000000001976a91478909ee1deae18f2319bf9e51418bcbe1eb0e3ac88ac0248304502210080ded120669482cd7d52cc4af8faa8b071d24cf1eb4bb21b37d09555e470e4e202206263556fe961b7fea18541b7f3053cbbea959c1020704932c7072d62c7c68bcc01210369bf4f3cef84b1873094f3c5c48c902f578577739893b59273a819a4ec6beea113490800", "vin": [{"txinwitness": ["304502210080ded120669482cd7d52cc4af8faa8b071d24cf1eb4bb21b37d09555e470e4e202206263556fe961b7fea18541b7f3053cbbea959c1020704932c7072d62c7c68bcc01", "0369bf4f3cef84b1873094f3c5c48c902f578577739893b59273a819a4ec6beea1"], "sequence": 4294967294, "scriptSig": {"hex": "16001465ab12a2da76dc51744d3ea05cd94d8bf2324ba4", "asm": "001465ab12a2da76dc51744d3ea05cd94d8bf2324ba4"}, "vout": 1, "txid": "7d262daae57f624d3f8b41c8740e807dfdeee2bcf204522477b538c49da33760"}], "txid": "d665c2d9bca28605eab127d5c51433c2ea4e194f84d1be3f6079a362b5e58389", "blocktime": 1537873282, "version": 2, "confirmations": 11484, "time": 1537873282, "locktime": 542995, "vsize": 168, "size": 250}