{"hash": "d66c87cec7bc095f92b58e27ce488dc022467d4d218f63ad66f2c149f4fcacc4", "blockhash": "0000000000000000000e13cef7c366c0283d82e591d1acd082e914b08063cdf1", "vout": [{"scriptPubKey": {"reqSigs": 1, "hex": "76a914c5b7fd920dce5f61934e792c7e6fcc829aff533d88ac", "addresses": ["1K2SXgApmo9uZoyahvsbSanpVWbzZWVVMF"], "asm": "OP_DUP OP_HASH160 c5b7fd920dce5f61934e792c7e6fcc829aff533d OP_EQUALVERIFY OP_CHECKSIG", "type": "pubkeyhash"}, "value": 0.0043027, "n": 0}, {"scriptPubKey": {"type": "nulldata", "hex": "6a284661000000027079bd3044305d1255a122d15d99cb565934082a5b97a493f5649c3dc00487896022", "asm": "OP_RETURN 4661000000027079bd3044305d1255a122d15d99cb565934082a5b97a493f5649c3dc00487896022"}, "value": 0.0, "n": 1}], "hex": "0200000001a07500600c6f1039a4acbbefd0b734043e1a31efd6d5ca653c9a36865473a27a000000006b483045022100d4537bc16972930f171f2f0c77b3290c3d37bee998904ddc792cc2f5c7d4e6d4022041f60862f80444a7e9d8989f3b8c3755042c1e03e9514b50819f984d5144365d0121027e706cd1c919431b693a0247e4a239e632659a8723a621a91ec610c64f4173acffffffff02be900600000000001976a914c5b7fd920dce5f61934e792c7e6fcc829aff533d88ac00000000000000002a6a284661000000027079bd3044305d1255a122d15d99cb565934082a5b97a493f5649c3dc0048789602200000000", "vin": [{"sequence": 4294967295, "scriptSig": {"hex": "483045022100d4537bc16972930f171f2f0c77b3290c3d37bee998904ddc792cc2f5c7d4e6d4022041f60862f80444a7e9d8989f3b8c3755042c1e03e9514b50819f984d5144365d0121027e706cd1c919431b693a0247e4a239e632659a8723a621a91ec610c64f4173ac", "asm": "3045022100d4537bc16972930f171f2f0c77b3290c3d37bee998904ddc792cc2f5c7d4e6d4022041f60862f80444a7e9d8989f3b8c3755042c1e03e9514b50819f984d5144365d[ALL] 027e706cd1c919431b693a0247e4a239e632659a8723a621a91ec610c64f4173ac"}, "vout": 0, "txid": "7aa2735486369a3c65cad5d6ef311a3e0434b7d0efbbaca439106f0c600075a0"}], "txid": "d66c87cec7bc095f92b58e27ce488dc022467d4d218f63ad66f2c149f4fcacc4", "blocktime": 1537871767, "version": 2, "confirmations": 11491, "time": 1537871767, "locktime": 0, "vsize": 243, "size": 243}