{"hash": "d6706e732ffb752f7a818976131412efc66f62288a7749fe589eb1e7160469ed", "blockhash": "000000000000000000205f8b0775d31398ef75b89a5e8ec8d2c57b4dc0ac4c20", "vout": [{"scriptPubKey": {"reqSigs": 1, "hex": "76a914d8b878a16491922720e4371ab2c8293bfda3a33488ac", "addresses": ["1LkuwikqepqHaCukWN6YoLPqLAVJeFmYYj"], "asm": "OP_DUP OP_HASH160 d8b878a16491922720e4371ab2c8293bfda3a334 OP_EQUALVERIFY OP_CHECKSIG", "type": "pubkeyhash"}, "value": 0.08506202, "n": 0}, {"scriptPubKey": {"type": "nulldata", "hex": "6a146f6d6e69000000000000001f0000001807330800", "asm": "OP_RETURN 6f6d6e69000000000000001f0000001807330800"}, "value": 0.0, "n": 1}, {"scriptPubKey": {"reqSigs": 1, "hex": "76a914b0f029b28dc10ae44dd74d5452f379f5ce87347788ac", "addresses": ["1H8ZdaA2Xdp1Zos8SKRzA5qesb4fepkrus"], "asm": "OP_DUP OP_HASH160 b0f029b28dc10ae44dd74d5452f379f5ce873477 OP_EQUALVERIFY OP_CHECKSIG", "type": "pubkeyhash"}, "value": 5.46e-06, "n": 2}], "hex": "0100000001b8159a74c16e18d3678567d679b401d412d3dce1fba23218a51938a915127710020000006b483045022100aa74599d084ecd4685b50ea7bde2eccff8af70b8110332131c8459bd015201f002207747d4bac9b81f26a43db2821f119db1b4a0e9a3aa34a1f83554a3bf14ea59830121029506e3e90d1cbe2900c9a338654ed4584cf5dad7d58f64d5d47552f9a62306e5feffffff035acb8100000000001976a914d8b878a16491922720e4371ab2c8293bfda3a33488ac0000000000000000166a146f6d6e69000000000000001f000000180733080022020000000000001976a914b0f029b28dc10ae44dd74d5452f379f5ce87347788ac0f490800", "vin": [{"sequence": 4294967294, "scriptSig": {"hex": "483045022100aa74599d084ecd4685b50ea7bde2eccff8af70b8110332131c8459bd015201f002207747d4bac9b81f26a43db2821f119db1b4a0e9a3aa34a1f83554a3bf14ea59830121029506e3e90d1cbe2900c9a338654ed4584cf5dad7d58f64d5d47552f9a62306e5", "asm": "3045022100aa74599d084ecd4685b50ea7bde2eccff8af70b8110332131c8459bd015201f002207747d4bac9b81f26a43db2821f119db1b4a0e9a3aa34a1f83554a3bf14ea5983[ALL] 029506e3e90d1cbe2900c9a338654ed4584cf5dad7d58f64d5d47552f9a62306e5"}, "vout": 2, "txid": "10771215a93819a51832a2fbe1dcd312d401b479d6678567d3186ec1749a15b8"}], "txid": "d6706e732ffb752f7a818976131412efc66f62288a7749fe589eb1e7160469ed", "blocktime": 1537871175, "version": 1, "confirmations": 11511, "time": 1537871175, "locktime": 542991, "vsize": 257, "size": 257}