{"hash": "d6751fee01b5c6d600fbfa3ef19039b29389b17d579a782103d2ecc45b7e1634", "blockhash": "00000000000000000017f5eb5941039fbcee6240d03bc1f2f8e35350df66a1d8", "vout": [{"scriptPubKey": {"reqSigs": 1, "hex": "76a914e8849eabeb6d6479e7b7a490f3d1a42e161d8d4888ac", "addresses": ["1NCSe6FxYRpXxXtga2bSkaVMsskH3FRyab"], "asm": "OP_DUP OP_HASH160 e8849eabeb6d6479e7b7a490f3d1a42e161d8d48 OP_EQUALVERIFY OP_CHECKSIG", "type": "pubkeyhash"}, "value": 5.914e-05, "n": 0}, {"scriptPubKey": {"reqSigs": 1, "hex": "76a914f76fcd16956e857a780551d26718cef3058cfaac88ac", "addresses": ["1PZKqTiCEG6DUaxLDk8i1XpEWXehkYcBvE"], "asm": "OP_DUP OP_HASH160 f76fcd16956e857a780551d26718cef3058cfaac OP_EQUALVERIFY OP_CHECKSIG", "type": "pubkeyhash"}, "value": 0.0003127, "n": 1}], "hex": "010000000223ba1bc49e4b3eb03283d1563afb43298bbd97a2975aa9f184364e5f73d4474f000000006a473044022076bead1143b25a41d4d7db797a6e61f4c3d8bf2c8480cb46dfa23f9827fdaf3a0220164d7b6cefe421cafe53a50e9ed5be38c43c3a6eeff8c250bd123b8bdf93dd470121023b24a3c009e100e64212fa44ddd2b6e95bd23f798c149fe204caeb8bc7218944ffffffff1a761c4529143ea6b1d55214befd90d9a594d78671d827e00b245bd095a1d770140000006a473044022004cef970e3b8ea430b168bd34d5bcf8e1934f2b402f6098a46db022003719e840220081ab402b20e6a7da0676830037ffcdf89cbd0874f773a39df74db1cad4df2b40121027a4641db4f84736b9fd0af86438bacea2c8d0d45ff83692600fe359f1fd2295affffffff021a170000000000001976a914e8849eabeb6d6479e7b7a490f3d1a42e161d8d4888ac267a0000000000001976a914f76fcd16956e857a780551d26718cef3058cfaac88ac00000000", "vin": [{"sequence": 4294967295, "scriptSig": {"hex": "473044022076bead1143b25a41d4d7db797a6e61f4c3d8bf2c8480cb46dfa23f9827fdaf3a0220164d7b6cefe421cafe53a50e9ed5be38c43c3a6eeff8c250bd123b8bdf93dd470121023b24a3c009e100e64212fa44ddd2b6e95bd23f798c149fe204caeb8bc7218944", "asm": "3044022076bead1143b25a41d4d7db797a6e61f4c3d8bf2c8480cb46dfa23f9827fdaf3a0220164d7b6cefe421cafe53a50e9ed5be38c43c3a6eeff8c250bd123b8bdf93dd47[ALL] 023b24a3c009e100e64212fa44ddd2b6e95bd23f798c149fe204caeb8bc7218944"}, "vout": 0, "txid": "4f47d4735f4e3684f1a95a97a297bd8b2943fb3a56d18332b03e4b9ec41bba23"}, {"sequence": 4294967295, "scriptSig": {"hex": "473044022004cef970e3b8ea430b168bd34d5bcf8e1934f2b402f6098a46db022003719e840220081ab402b20e6a7da0676830037ffcdf89cbd0874f773a39df74db1cad4df2b40121027a4641db4f84736b9fd0af86438bacea2c8d0d45ff83692600fe359f1fd2295a", "asm": "3044022004cef970e3b8ea430b168bd34d5bcf8e1934f2b402f6098a46db022003719e840220081ab402b20e6a7da0676830037ffcdf89cbd0874f773a39df74db1cad4df2b4[ALL] 027a4641db4f84736b9fd0af86438bacea2c8d0d45ff83692600fe359f1fd2295a"}, "vout": 20, "txid": "70d7a195d05b240be027d87186d794a5d990fdbe1452d5b1a63e1429451c761a"}], "txid": "d6751fee01b5c6d600fbfa3ef19039b29389b17d579a782103d2ecc45b7e1634", "blocktime": 1537874412, "version": 1, "confirmations": 11467, "time": 1537874412, "locktime": 0, "vsize": 372, "size": 372}