{"hash": "d679c72bb973199345ad2c9b385f214d4ce293739b74b083aaef1454387985b2", "blockhash": "00000000000000000004ffacab907a6b429b9a5745fa0b75af4234bf69dd7176", "vout": [{"scriptPubKey": {"reqSigs": 1, "hex": "a9143f5e5e4a979b05b578d27eac2f2416048879d10d87", "addresses": ["37U5YTMqnDnxJYj9GbExWdf2vNwf2LGdxZ"], "asm": "OP_HASH160 3f5e5e4a979b05b578d27eac2f2416048879d10d OP_EQUAL", "type": "scripthash"}, "value": 0.13, "n": 0}, {"scriptPubKey": {"reqSigs": 1, "hex": "76a9147a296c3c78243c0ceca29856499892b84aad967688ac", "addresses": ["1C8w4WZoa9he6uUq5CxKTc1KTp5Uqk83VU"], "asm": "OP_DUP OP_HASH160 7a296c3c78243c0ceca29856499892b84aad9676 OP_EQUALVERIFY OP_CHECKSIG", "type": "pubkeyhash"}, "value": 0.14496658, "n": 1}], "hex": "01000000014d4d880fee3700a09b6a74952cf4decfb8b0e69585b23063afc8f395f8136979010000006a473044022028efb39c95b0553e73c360b826aba0ee07311df8305a60a9bee8bfee80cfcf9502203bbe1ecb81d84b8f253d6327daa958fad69f6bdab61d2501036ef756628a5fb4012102a68818e2603d6dc76e9df141a7c35ec3738de04a76dcefd2f6ca24327a461364ffffffff02405dc6000000000017a9143f5e5e4a979b05b578d27eac2f2416048879d10d879233dd00000000001976a9147a296c3c78243c0ceca29856499892b84aad967688ac00000000", "vin": [{"sequence": 4294967295, "scriptSig": {"hex": "473044022028efb39c95b0553e73c360b826aba0ee07311df8305a60a9bee8bfee80cfcf9502203bbe1ecb81d84b8f253d6327daa958fad69f6bdab61d2501036ef756628a5fb4012102a68818e2603d6dc76e9df141a7c35ec3738de04a76dcefd2f6ca24327a461364", "asm": "3044022028efb39c95b0553e73c360b826aba0ee07311df8305a60a9bee8bfee80cfcf9502203bbe1ecb81d84b8f253d6327daa958fad69f6bdab61d2501036ef756628a5fb4[ALL] 02a68818e2603d6dc76e9df141a7c35ec3738de04a76dcefd2f6ca24327a461364"}, "vout": 1, "txid": "796913f895f3c8af6330b28595e6b0b8cfdef42c95746a9ba00037ee0f884d4d"}], "txid": "d679c72bb973199345ad2c9b385f214d4ce293739b74b083aaef1454387985b2", "blocktime": 1537875543, "version": 1, "confirmations": 11464, "time": 1537875543, "locktime": 0, "vsize": 223, "size": 223}