{"hash": "2d75aaab14bc66710913f3aa49799d903dd578fa6fcc8a9574ce0f49300caff4", "blockhash": "0000000000000000001f76057863aec43deb6fa401d9628bb513d65a8098bfab", "vout": [{"scriptPubKey": {"reqSigs": 1, "hex": "76a914b810b2b560bb9a89cfaf7547ad8ab7c34c70964988ac", "addresses": ["1HnFLVz8oiUngHNjDvB7Qm1YQLm3FmRSBy"], "asm": "OP_DUP OP_HASH160 b810b2b560bb9a89cfaf7547ad8ab7c34c709649 OP_EQUALVERIFY OP_CHECKSIG", "type": "pubkeyhash"}, "value": 0.0234, "n": 0}, {"scriptPubKey": {"reqSigs": 1, "hex": "0014cd5e67ff11725734d492359a6411970f07ef1ff5", "addresses": ["bc1qe40x0lc3wftnf4yjxkdxgyvhpur778l4jrkam7"], "asm": "0 cd5e67ff11725734d492359a6411970f07ef1ff5", "type": "witness_v0_keyhash"}, "value": 0.00111412, "n": 1}], "hex": "01000000000101533e2ad2087e25b30a3335cffb0756e5a4fe555d9a7f78fa5ddd0e631ce111820600000017160014b51861f6d6ad44420b215e70fc73b0d744f7c7cdffffffff02a0b42300000000001976a914b810b2b560bb9a89cfaf7547ad8ab7c34c70964988ac34b3010000000000160014cd5e67ff11725734d492359a6411970f07ef1ff50247304402202c4fd939f65f5e7bff08a2c4f763f0c87a65b788e80f216e454b91818609c11e02200b975c54fe1cddd3a7af6b61c3ae8b3b8795524942ba4ec40280725c9b5e6c380121034eedd7c81885bcb6f08120b495de650aa8f3dcfa9ec1f13e3195d3d6c66a00f400000000", "vin": [{"txinwitness": ["304402202c4fd939f65f5e7bff08a2c4f763f0c87a65b788e80f216e454b91818609c11e02200b975c54fe1cddd3a7af6b61c3ae8b3b8795524942ba4ec40280725c9b5e6c3801", "034eedd7c81885bcb6f08120b495de650aa8f3dcfa9ec1f13e3195d3d6c66a00f4"], "sequence": 4294967295, "scriptSig": {"hex": "160014b51861f6d6ad44420b215e70fc73b0d744f7c7cd", "asm": "0014b51861f6d6ad44420b215e70fc73b0d744f7c7cd"}, "vout": 6, "txid": "8211e11c630edd5dfa787f9a5d55fea4e55607fbcf35330ab3257e08d22a3e53"}], "txid": "d67d9e9c395d8cb2ccd7cfe3c006863a9d2b8c1f08254062da5778312e19a59a", "blocktime": 1537873891, "version": 1, "confirmations": 11478, "time": 1537873891, "locktime": 0, "vsize": 167, "size": 248}