{"hash": "d680725684518ebcf7f5dd28f497818711152f27c91c124c2c8b7dafdfe0dfdf", "blockhash": "0000000000000000001f76057863aec43deb6fa401d9628bb513d65a8098bfab", "vout": [{"scriptPubKey": {"reqSigs": 1, "hex": "76a9143139b1b14ba47a52cec52a81ddda3f46a0a29ace88ac", "addresses": ["15VHE4JCt1NzxcBCA9qrwUuKRRiqMJvKjQ"], "asm": "OP_DUP OP_HASH160 3139b1b14ba47a52cec52a81ddda3f46a0a29ace OP_EQUALVERIFY OP_CHECKSIG", "type": "pubkeyhash"}, "value": 0.03445012, "n": 0}, {"scriptPubKey": {"reqSigs": 1, "hex": "76a91453895590e0cacd3d089a6a418f9c6aee1352c0b488ac", "addresses": ["18chc5CM3bF93pwyYzwXA1N1rQCwiKMUQU"], "asm": "OP_DUP OP_HASH160 53895590e0cacd3d089a6a418f9c6aee1352c0b4 OP_EQUALVERIFY OP_CHECKSIG", "type": "pubkeyhash"}, "value": 0.250516, "n": 1}], "hex": "01000000023798c6a539f2d863adcc327f62422ac4e8a8cf3e35ac4d3855b6b0785e5aa4b3000000006b483045022100fe74cc70d988bbc3ff91f679fe65963c3f1bda9fe2ad44ff28a396eb8a337ce002200c575772515470e9a4c0442cdb62ea7137fed806961f0d17aeacd7eb3df2a1b10121039de1138b4c9d8a9e7a602a5eb5b8c4335efc0507b146c4dcdaf7d29d64a2c46fffffffff908d1dad3ba5275b09a6fe7c5c078fb7c09125ec92ccbe0463734a08289e632e1d0000006b483045022100f2f5fc2ac45245e4cc4a93116d29bde21851ea72fd26f52d53954c8ba7a1dfd302203f601433a5ffbdd4888c2a84dac7ccaedb9dc49336984e48eb2932428a2859d90121023d8bee676c015b5965ed6b6ea6474a33edba7eae662b78587d9d0aec2e95744fffffffff0214913400000000001976a9143139b1b14ba47a52cec52a81ddda3f46a0a29ace88acd0417e01000000001976a91453895590e0cacd3d089a6a418f9c6aee1352c0b488ac00000000", "vin": [{"sequence": 4294967295, "scriptSig": {"hex": "483045022100fe74cc70d988bbc3ff91f679fe65963c3f1bda9fe2ad44ff28a396eb8a337ce002200c575772515470e9a4c0442cdb62ea7137fed806961f0d17aeacd7eb3df2a1b10121039de1138b4c9d8a9e7a602a5eb5b8c4335efc0507b146c4dcdaf7d29d64a2c46f", "asm": "3045022100fe74cc70d988bbc3ff91f679fe65963c3f1bda9fe2ad44ff28a396eb8a337ce002200c575772515470e9a4c0442cdb62ea7137fed806961f0d17aeacd7eb3df2a1b1[ALL] 039de1138b4c9d8a9e7a602a5eb5b8c4335efc0507b146c4dcdaf7d29d64a2c46f"}, "vout": 0, "txid": "b3a45a5e78b0b655384dac353ecfa8e8c42a42627f32ccad63d8f239a5c69837"}, {"sequence": 4294967295, "scriptSig": {"hex": "483045022100f2f5fc2ac45245e4cc4a93116d29bde21851ea72fd26f52d53954c8ba7a1dfd302203f601433a5ffbdd4888c2a84dac7ccaedb9dc49336984e48eb2932428a2859d90121023d8bee676c015b5965ed6b6ea6474a33edba7eae662b78587d9d0aec2e95744f", "asm": "3045022100f2f5fc2ac45245e4cc4a93116d29bde21851ea72fd26f52d53954c8ba7a1dfd302203f601433a5ffbdd4888c2a84dac7ccaedb9dc49336984e48eb2932428a2859d9[ALL] 023d8bee676c015b5965ed6b6ea6474a33edba7eae662b78587d9d0aec2e95744f"}, "vout": 29, "txid": "2e639e28084a736304becc92ec2591c0b78f075c7cfea6095b27a53bad1d8d90"}], "txid": "d680725684518ebcf7f5dd28f497818711152f27c91c124c2c8b7dafdfe0dfdf", "blocktime": 1537873891, "version": 1, "confirmations": 11478, "time": 1537873891, "locktime": 0, "vsize": 374, "size": 374}