{"hash": "616ba9f3935b5b40391759cd4dee76d7e2fa7feb97665baa610f5633c4dec6ae", "blockhash": "00000000000000000024a2167bbff67b0be802c0b01cdd79e6331c2be6459f87", "vout": [{"scriptPubKey": {"reqSigs": 1, "hex": "a914aa770639b0d5580f3887351ecfedbc53cac5ff1187", "addresses": ["3HEMP7JdrAqvj35iMcSRtbkff87PoKRfvC"], "asm": "OP_HASH160 aa770639b0d5580f3887351ecfedbc53cac5ff11 OP_EQUAL", "type": "scripthash"}, "value": 0.00178809, "n": 0}, {"scriptPubKey": {"reqSigs": 1, "hex": "00148479ef69f7e2cf3237c8f991fc69d350b7d3489f", "addresses": ["bc1qs3u7760hut8nyd7glxglc6wn2zmaxjylme2pz4"], "asm": "0 8479ef69f7e2cf3237c8f991fc69d350b7d3489f", "type": "witness_v0_keyhash"}, "value": 1.443e-05, "n": 1}], "hex": "01000000000101c92b1f2321599dd71367ddb17837cbc60df6889a5afd4f6f7117dce3e3ed900a0000000000ffffffff0279ba02000000000017a914aa770639b0d5580f3887351ecfedbc53cac5ff1187a3050000000000001600148479ef69f7e2cf3237c8f991fc69d350b7d3489f02483045022100a483677eb37f460a22a0dce29024ec9b060d97eb3ddae56f78ca5d5987ee046402206844cb2346f8443a13053e1bbd1d659cecc19fbebeaeabb6ca4a41965ecf678401210274e9c06e62d2af865bb5f99d6a312f784d5717180d4ac3361377064eda4f884d00000000", "vin": [{"txinwitness": ["3045022100a483677eb37f460a22a0dce29024ec9b060d97eb3ddae56f78ca5d5987ee046402206844cb2346f8443a13053e1bbd1d659cecc19fbebeaeabb6ca4a41965ecf678401", "0274e9c06e62d2af865bb5f99d6a312f784d5717180d4ac3361377064eda4f884d"], "sequence": 4294967295, "scriptSig": {"hex": "", "asm": ""}, "vout": 0, "txid": "0a90ede3e3dc17716f4ffd5a9a88f60dc6cb3778b1dd6713d79d5921231f2bc9"}], "txid": "d6836ab1fa12893924c7fb0b9df892291b3249219cf60132b8e14ddcad20b70f", "blocktime": 1537870564, "version": 1, "confirmations": 11515, "time": 1537870564, "locktime": 0, "vsize": 142, "size": 224}