{"hash": "d6890a45947742a1d608778cb04df8c1ec2ff38a4b27a027270e0ad8a233090a", "blockhash": "0000000000000000001cda96e906b7601b7a6fb1a3b62bca570a9e5d8f4b3de1", "vout": [{"scriptPubKey": {"reqSigs": 1, "hex": "76a9148b1c2e3d5fdb1fc36b77e6c717fd73f94163786388ac", "addresses": ["1DgYggw9cw5BLwCQyu5zW2zCmToyWj9Kwc"], "asm": "OP_DUP OP_HASH160 8b1c2e3d5fdb1fc36b77e6c717fd73f941637863 OP_EQUALVERIFY OP_CHECKSIG", "type": "pubkeyhash"}, "value": 0.31224, "n": 0}, {"scriptPubKey": {"reqSigs": 1, "hex": "76a9146687f96422bbeb2cf8b3e5248b155bd873ba086288ac", "addresses": ["1AM8pDgY8PYGNTFGkpqpL6Kwu89rqCHboL"], "asm": "OP_DUP OP_HASH160 6687f96422bbeb2cf8b3e5248b155bd873ba0862 OP_EQUALVERIFY OP_CHECKSIG", "type": "pubkeyhash"}, "value": 0.67528644, "n": 1}], "hex": "01000000012364cf652f228ddc5196c4e80b9d7059a0f7d5daab696d5573206be4318a2738010000006b483045022100ac23d4e0b1cf33b37d3a2fcddeb1206b654dfa0778640a7a09627f930800e5d602203bdfb6dba6ad1cf8982285f628a53d0d6eded7190f2e35deade540d6c58b2c2b01210337320783d4e8632dc9b6c87ce41fa1eddcb7507242c805ecf246bace4281ffedffffffff02c070dc01000000001976a9148b1c2e3d5fdb1fc36b77e6c717fd73f94163786388acc4670604000000001976a9146687f96422bbeb2cf8b3e5248b155bd873ba086288ac00000000", "vin": [{"sequence": 4294967295, "scriptSig": {"hex": "483045022100ac23d4e0b1cf33b37d3a2fcddeb1206b654dfa0778640a7a09627f930800e5d602203bdfb6dba6ad1cf8982285f628a53d0d6eded7190f2e35deade540d6c58b2c2b01210337320783d4e8632dc9b6c87ce41fa1eddcb7507242c805ecf246bace4281ffed", "asm": "3045022100ac23d4e0b1cf33b37d3a2fcddeb1206b654dfa0778640a7a09627f930800e5d602203bdfb6dba6ad1cf8982285f628a53d0d6eded7190f2e35deade540d6c58b2c2b[ALL] 0337320783d4e8632dc9b6c87ce41fa1eddcb7507242c805ecf246bace4281ffed"}, "vout": 1, "txid": "38278a31e46b2073556d69abdad5f7a059709d0be8c49651dc8d222f65cf6423"}], "txid": "d6890a45947742a1d608778cb04df8c1ec2ff38a4b27a027270e0ad8a233090a", "blocktime": 1537873282, "version": 1, "confirmations": 11484, "time": 1537873282, "locktime": 0, "vsize": 226, "size": 226}