{"hash": "183479cd2889b8eb3ffe90f1bf69e91975966ce83b5c039735090be7973c3323", "blockhash": "0000000000000000001cda96e906b7601b7a6fb1a3b62bca570a9e5d8f4b3de1", "vout": [{"scriptPubKey": {"reqSigs": 1, "hex": "76a914ac79eb45270ad814783b9458803142cd9f1f536288ac", "addresses": ["1GiyH5USeadJG8GvUnBH4pemvCVWCrHk3h"], "asm": "OP_DUP OP_HASH160 ac79eb45270ad814783b9458803142cd9f1f5362 OP_EQUALVERIFY OP_CHECKSIG", "type": "pubkeyhash"}, "value": 0.0008355, "n": 0}, {"scriptPubKey": {"reqSigs": 1, "hex": "a9143909ec962f0c6842a199a5afb78937aadea81ef287", "addresses": ["36tcL2BpJuA6EhBc7kpwBkW1eZhtZ87SHf"], "asm": "OP_HASH160 3909ec962f0c6842a199a5afb78937aadea81ef2 OP_EQUAL", "type": "scripthash"}, "value": 0.00082815, "n": 1}], "hex": "0100000000010133d871b6ae374d96b526f872afa5fe1ff831ed709f3af4d8382ff2bf871d9f3c0100000023220020c39d86306dbd54dc85e666ec19b6eadac2eca3f3512ba18580492016e49d5f13ffffffff025e460100000000001976a914ac79eb45270ad814783b9458803142cd9f1f536288ac7f4301000000000017a9143909ec962f0c6842a199a5afb78937aadea81ef287040047304402202c7e74bbc56cd9ce9ae4bf21e2acee404b896eee8271d891a93cb911643554e6022059b38964198a654ff321b2bdbb2ebb85895edac40740f088c8d18103bf1f8f2f0147304402206ce8e56962e139fc06302f890f2d11e26dd7645fbdf1b3fd808e48e8cbccc82b022019e6cb802219c91ad73b50b45e60b94c88571cae01f37f4756fa713886a4b56f01475221020319b262fe02e14ab54771039bbbf0877a20b9b83bb305c8722accaff4e4767d2103871fc2ca08e6950b38867e8e6a0e94ee625223d3aa0df5c65f414c6d784467e252ae00000000", "vin": [{"txinwitness": ["", "304402202c7e74bbc56cd9ce9ae4bf21e2acee404b896eee8271d891a93cb911643554e6022059b38964198a654ff321b2bdbb2ebb85895edac40740f088c8d18103bf1f8f2f01", "304402206ce8e56962e139fc06302f890f2d11e26dd7645fbdf1b3fd808e48e8cbccc82b022019e6cb802219c91ad73b50b45e60b94c88571cae01f37f4756fa713886a4b56f01", "5221020319b262fe02e14ab54771039bbbf0877a20b9b83bb305c8722accaff4e4767d2103871fc2ca08e6950b38867e8e6a0e94ee625223d3aa0df5c65f414c6d784467e252ae"], "sequence": 4294967295, "scriptSig": {"hex": "220020c39d86306dbd54dc85e666ec19b6eadac2eca3f3512ba18580492016e49d5f13", "asm": "0020c39d86306dbd54dc85e666ec19b6eadac2eca3f3512ba18580492016e49d5f13"}, "vout": 1, "txid": "3c9f1d87bff22f38d8f43a9f70ed31f81ffea5af72f826b5964d37aeb671d833"}], "txid": "d69739d1ecf7e50cdd9c2810bd8c97caca1ab316d8334d4ff6ac310eed3fc966", "blocktime": 1537873282, "version": 1, "confirmations": 11484, "time": 1537873282, "locktime": 0, "vsize": 207, "size": 372}