{"hash": "d6a60d0c963b9df1e35c0c2ccc093ad97cff9dd49f28e3e15d0830fe8b75fc06", "blockhash": "0000000000000000001e0dab787dd257d1dbfcb92a98c2207d5e1078be1f4165", "vout": [{"scriptPubKey": {"reqSigs": 1, "hex": "76a914c5b7fd920dce5f61934e792c7e6fcc829aff533d88ac", "addresses": ["1K2SXgApmo9uZoyahvsbSanpVWbzZWVVMF"], "asm": "OP_DUP OP_HASH160 c5b7fd920dce5f61934e792c7e6fcc829aff533d OP_EQUALVERIFY OP_CHECKSIG", "type": "pubkeyhash"}, "value": 0.0016021, "n": 0}, {"scriptPubKey": {"type": "nulldata", "hex": "6a28466100000002707a41eef73b1fb0939896b61dbcdd2cc40693524800174e8a4adcc55d275d0e0dd4", "asm": "OP_RETURN 466100000002707a41eef73b1fb0939896b61dbcdd2cc40693524800174e8a4adcc55d275d0e0dd4"}, "value": 0.0, "n": 1}], "hex": "0200000001a4baa2521462e758cd108a09515674ec3505a9939f31e475afc0b5a0fa65189a000000006b483045022100e2b7100310448fe7b2cbc44482219b39ebad2ae17587d9e258cdc315bf6365cb0220572ca4a21946b84ae60a1571574af07267ec68ed4ed9d4b5a444735a36294f670121027e706cd1c919431b693a0247e4a239e632659a8723a621a91ec610c64f4173acffffffff02d2710200000000001976a914c5b7fd920dce5f61934e792c7e6fcc829aff533d88ac00000000000000002a6a28466100000002707a41eef73b1fb0939896b61dbcdd2cc40693524800174e8a4adcc55d275d0e0dd400000000", "vin": [{"sequence": 4294967295, "scriptSig": {"hex": "483045022100e2b7100310448fe7b2cbc44482219b39ebad2ae17587d9e258cdc315bf6365cb0220572ca4a21946b84ae60a1571574af07267ec68ed4ed9d4b5a444735a36294f670121027e706cd1c919431b693a0247e4a239e632659a8723a621a91ec610c64f4173ac", "asm": "3045022100e2b7100310448fe7b2cbc44482219b39ebad2ae17587d9e258cdc315bf6365cb0220572ca4a21946b84ae60a1571574af07267ec68ed4ed9d4b5a444735a36294f67[ALL] 027e706cd1c919431b693a0247e4a239e632659a8723a621a91ec610c64f4173ac"}, "vout": 0, "txid": "9a1865faa0b5c0af75e4319f93a90535ec745651098a10cd58e7621452a2baa4"}], "txid": "d6a60d0c963b9df1e35c0c2ccc093ad97cff9dd49f28e3e15d0830fe8b75fc06", "blocktime": 1537872475, "version": 2, "confirmations": 11486, "time": 1537872475, "locktime": 0, "vsize": 243, "size": 243}