{"hash": "d6a947567fac2724ff1ff79178523e3916fb403c0b96ea5be326091e9db74fa7", "blockhash": "00000000000000000017f5eb5941039fbcee6240d03bc1f2f8e35350df66a1d8", "vout": [{"scriptPubKey": {"reqSigs": 1, "hex": "a9142bca5142eaa741e5f8fcd26f5be8e93b6c7d535b87", "addresses": ["35gZM455M5UnSeTm2rATSoxMa4MDxswhyc"], "asm": "OP_HASH160 2bca5142eaa741e5f8fcd26f5be8e93b6c7d535b OP_EQUAL", "type": "scripthash"}, "value": 0.00454842, "n": 0}, {"scriptPubKey": {"reqSigs": 1, "hex": "76a9140396c750f15f6e2aea1495bee284490a42c197e788ac", "addresses": ["1KyeraaoWhQ64rPgxTRNfHXJkNRkoxqhi"], "asm": "OP_DUP OP_HASH160 0396c750f15f6e2aea1495bee284490a42c197e7 OP_EQUALVERIFY OP_CHECKSIG", "type": "pubkeyhash"}, "value": 0.20581073, "n": 1}], "hex": "02000000015491d276ecdfe0822cddbc5df687b4b0618108027e555602bd60c42716502184010000006a4730440220203f9844d3dd8ffe92bc9a0fa432412075e2298cd461a19df45a2f87bb2feff4022045bee687763ec609482fdd5a3b24188364dddf3bc2304fb2c6af6e072fd61dd20121037aed202cc0420c61a4ecd5ba5d8ff2b6263caec8e7242e78157405b8890aaf5dffffffff02baf006000000000017a9142bca5142eaa741e5f8fcd26f5be8e93b6c7d535b87d10a3a01000000001976a9140396c750f15f6e2aea1495bee284490a42c197e788ac00000000", "vin": [{"sequence": 4294967295, "scriptSig": {"hex": "4730440220203f9844d3dd8ffe92bc9a0fa432412075e2298cd461a19df45a2f87bb2feff4022045bee687763ec609482fdd5a3b24188364dddf3bc2304fb2c6af6e072fd61dd20121037aed202cc0420c61a4ecd5ba5d8ff2b6263caec8e7242e78157405b8890aaf5d", "asm": "30440220203f9844d3dd8ffe92bc9a0fa432412075e2298cd461a19df45a2f87bb2feff4022045bee687763ec609482fdd5a3b24188364dddf3bc2304fb2c6af6e072fd61dd2[ALL] 037aed202cc0420c61a4ecd5ba5d8ff2b6263caec8e7242e78157405b8890aaf5d"}, "vout": 1, "txid": "8421501627c460bd0256557e02088161b0b487f65dbcdd2c82e0dfec76d29154"}], "txid": "d6a947567fac2724ff1ff79178523e3916fb403c0b96ea5be326091e9db74fa7", "blocktime": 1537874412, "version": 2, "confirmations": 11467, "time": 1537874412, "locktime": 0, "vsize": 223, "size": 223}