{"hash": "d6b06109ba649129e5a775f5c9650c8306ff298717da29e3e3a9df3a12bfcd23", "blockhash": "0000000000000000001f76057863aec43deb6fa401d9628bb513d65a8098bfab", "vout": [{"scriptPubKey": {"reqSigs": 1, "hex": "a914cbc2909d035d0c562a97175daba735e5d4016e3587", "addresses": ["3LGQB6FM7apCqCTiLavZ1nGn9jq3DrBs76"], "asm": "OP_HASH160 cbc2909d035d0c562a97175daba735e5d4016e35 OP_EQUAL", "type": "scripthash"}, "value": 0.005928, "n": 0}, {"scriptPubKey": {"reqSigs": 1, "hex": "00147be5563a9ff87d16f37c884689b8889b68ff700b", "addresses": ["bc1q00j4vw5llp73dumu3prgnwygnd507uqte0zeqd"], "asm": "0 7be5563a9ff87d16f37c884689b8889b68ff700b", "type": "witness_v0_keyhash"}, "value": 0.00014171, "n": 1}], "hex": "0100000001efdc1e10c966b73b32a57a0bc2ab33f8978488f8c4cc73ce72e6fc56ef846bbe340100006a473044022038c8d1fb1d73be66a1acdca4c292e3e7b6f9e734cc542bc6342a174f29bb71ef022004c739ca63d50c39dc7ac0e04a9ecfa794bcdfcb6162266cdcb772b6806c5c4a0121028ce7a81a0f81937215d62ef1dc72862183d4b91ca9858ca4a8ccdd89ed276386ffffffff02a00b09000000000017a914cbc2909d035d0c562a97175daba735e5d4016e35875b370000000000001600147be5563a9ff87d16f37c884689b8889b68ff700b00000000", "vin": [{"sequence": 4294967295, "scriptSig": {"hex": "473044022038c8d1fb1d73be66a1acdca4c292e3e7b6f9e734cc542bc6342a174f29bb71ef022004c739ca63d50c39dc7ac0e04a9ecfa794bcdfcb6162266cdcb772b6806c5c4a0121028ce7a81a0f81937215d62ef1dc72862183d4b91ca9858ca4a8ccdd89ed276386", "asm": "3044022038c8d1fb1d73be66a1acdca4c292e3e7b6f9e734cc542bc6342a174f29bb71ef022004c739ca63d50c39dc7ac0e04a9ecfa794bcdfcb6162266cdcb772b6806c5c4a[ALL] 028ce7a81a0f81937215d62ef1dc72862183d4b91ca9858ca4a8ccdd89ed276386"}, "vout": 308, "txid": "be6b84ef56fce672ce73ccc4f8888497f833abc20b7aa5323bb766c9101edcef"}], "txid": "d6b06109ba649129e5a775f5c9650c8306ff298717da29e3e3a9df3a12bfcd23", "blocktime": 1537873891, "version": 1, "confirmations": 11478, "time": 1537873891, "locktime": 0, "vsize": 220, "size": 220}