{"hash": "06ff4173c6585f5edb2a7fd61f5403907fac7281d0bd418d31fd77d130f2d2d3", "blockhash": "0000000000000000001cda96e906b7601b7a6fb1a3b62bca570a9e5d8f4b3de1", "vout": [{"scriptPubKey": {"reqSigs": 1, "hex": "76a914e340f2a407404cf5a2935fdbefe6422d3aa7d82288ac", "addresses": ["1MicCCXs2j5EMyHAPfMEhSuzUBSC53Sszj"], "asm": "OP_DUP OP_HASH160 e340f2a407404cf5a2935fdbefe6422d3aa7d822 OP_EQUALVERIFY OP_CHECKSIG", "type": "pubkeyhash"}, "value": 0.0020386, "n": 0}, {"scriptPubKey": {"reqSigs": 1, "hex": "a914f0760960af504d7d4383a11a0434c8caa754121c87", "addresses": ["3PcTVurCTPMK9iH7xspNxz1on2PwVz9Gdp"], "asm": "OP_HASH160 f0760960af504d7d4383a11a0434c8caa754121c OP_EQUAL", "type": "scripthash"}, "value": 0.01010953, "n": 1}], "hex": "020000000001022350060516c9c775f78bd78a4f04eb8675a2630238fdd274970eb712a3c3aa4a06000000171600143197652bd4afea3076f3dd67378064c5149fff6bfeffffff47388351ceff332ae0d28f7afbfd70425d4071ae252024f848d358d2db1fc7410000000017160014e43ee2f8c577d0baee35f5a49dac097bd02eb650feffffff02541c0300000000001976a914e340f2a407404cf5a2935fdbefe6422d3aa7d82288ac096d0f000000000017a914f0760960af504d7d4383a11a0434c8caa754121c8702483045022100e90d6e9ad865e86bdd92e50be32a8209ec6b836cc56b28bf60016a2396c02514022078346dd7a1795a21d6886a263ec64433407dacb4234f20573f5346ad467d12d8012103ac23c208f6b16b4ca9ff78960b4caeb9b4d1379a641a26d5289d8c10ec3d9380024830450221009b1c2ec487a0432412f3c421047690136f08e3cd30b6c4ead13fc9057d6738f502200089320c9ae33dd5af28da7b1959dadfb4250b8bbc2f3006c645df43705f0edd012102e39d08b1e18f3dfae778a4da8c9923466b49003e9861c07c3b4f1ad00022b34213490800", "vin": [{"txinwitness": ["3045022100e90d6e9ad865e86bdd92e50be32a8209ec6b836cc56b28bf60016a2396c02514022078346dd7a1795a21d6886a263ec64433407dacb4234f20573f5346ad467d12d801", "03ac23c208f6b16b4ca9ff78960b4caeb9b4d1379a641a26d5289d8c10ec3d9380"], "sequence": 4294967294, "scriptSig": {"hex": "1600143197652bd4afea3076f3dd67378064c5149fff6b", "asm": "00143197652bd4afea3076f3dd67378064c5149fff6b"}, "vout": 6, "txid": "4aaac3a312b70e9774d2fd380263a27586eb044f8ad78bf775c7c91605065023"}, {"txinwitness": ["30450221009b1c2ec487a0432412f3c421047690136f08e3cd30b6c4ead13fc9057d6738f502200089320c9ae33dd5af28da7b1959dadfb4250b8bbc2f3006c645df43705f0edd01", "02e39d08b1e18f3dfae778a4da8c9923466b49003e9861c07c3b4f1ad00022b342"], "sequence": 4294967294, "scriptSig": {"hex": "160014e43ee2f8c577d0baee35f5a49dac097bd02eb650", "asm": "0014e43ee2f8c577d0baee35f5a49dac097bd02eb650"}, "vout": 0, "txid": "41c71fdbd258d348f8242025ae71405d4270fdfb7a8fd2e02a33ffce51833847"}], "txid": "d6b1807c4696762d717ed877353ef88bcdb892e483f29fcf4be171dc2e7e932d", "blocktime": 1537873282, "version": 2, "confirmations": 11485, "time": 1537873282, "locktime": 542995, "vsize": 259, "size": 422}