{"hash": "e03a485ad8b32e37bf8ebaccfbce713f314edd459b2b0840482fecba8920f98d", "blockhash": "0000000000000000001f0ddff1eddb255c1121bcd4da4f1bc9a0da00cae72433", "vout": [{"scriptPubKey": {"reqSigs": 1, "hex": "a914d93d2f91dfed4558187082a3483d7e8868d8930087", "addresses": ["3MVfrSFjjB8U6s7Y4tiBGsZVTpUo2xymzh"], "asm": "OP_HASH160 d93d2f91dfed4558187082a3483d7e8868d89300 OP_EQUAL", "type": "scripthash"}, "value": 0.00635541, "n": 0}, {"scriptPubKey": {"reqSigs": 1, "hex": "a9140136c10502ae5684e49b302f1af10f145f74b6b787", "addresses": ["31oSC7GvQMTZoouyNLBEHVRDhXEFbVhSmh"], "asm": "OP_HASH160 0136c10502ae5684e49b302f1af10f145f74b6b7 OP_EQUAL", "type": "scripthash"}, "value": 0.10201483, "n": 1}], "hex": "01000000000102525cba36f8b8807becc208d88ae76c25c10ed4d3c4164f3f8d543778089065770100000023220020b3338f9571dda5ad799834148ea1ed19d1123924bdbb356e0c8c610b69cfd906ffffffff149df59956ececa5f9203e2de637630b46287399f337be844ed6978eca319b690100000023220020efd02f10cc1074c68ec89b458572a71ce6bfc8a17595d8fde80232e47279444bffffffff0295b209000000000017a914d93d2f91dfed4558187082a3483d7e8868d89300878ba99b000000000017a9140136c10502ae5684e49b302f1af10f145f74b6b7870400483045022100f86b2b7722bc15e604f5ef3170fc8e6ab085a48c10d2ac9be15e3ccb6005b82a02207520bf13d228af6ecfc9235d2e2799bad3f7eba2cf482db119f63c8bcb485a7101483045022100a87a38b48bd3647dfebe374bffbf15cbc639196f5cdea9095746502bd3b9f4cd0220449422624abec3cd83a27ac4740f8075a6ad236a1cd11c48ee484988fdb25bf901475221030c187397a5b8dfedda9f5fedc3a23f7c20923351690c4b0247f9bce94499c4202103871fc2ca08e6950b38867e8e6a0e94ee625223d3aa0df5c65f414c6d784467e252ae04004730440220181e6fb0be59b4ba167329b7ddc214616ccdc62deb6bcff8b0bce6b486dd3f37022069f9d7e22ac56f649e21c4fd224d073f5a59ee026c703a9cef2336ad3e7b535801483045022100b4e84fe4d10dd34156cdd92b3bdf1ed690b0efdcbe8a1e736f5612f37d48378102202e259b16d5551c3a1c6553ae653372a96d17d5cb5c8bea317a67fcb948f8d7400147522103f985ea61f461801f3abc09ebed98ce7e20804639a64616f639f492883ea4e8d62103871fc2ca08e6950b38867e8e6a0e94ee625223d3aa0df5c65f414c6d784467e252ae00000000", "vin": [{"txinwitness": ["", "3045022100f86b2b7722bc15e604f5ef3170fc8e6ab085a48c10d2ac9be15e3ccb6005b82a02207520bf13d228af6ecfc9235d2e2799bad3f7eba2cf482db119f63c8bcb485a7101", "3045022100a87a38b48bd3647dfebe374bffbf15cbc639196f5cdea9095746502bd3b9f4cd0220449422624abec3cd83a27ac4740f8075a6ad236a1cd11c48ee484988fdb25bf901", "5221030c187397a5b8dfedda9f5fedc3a23f7c20923351690c4b0247f9bce94499c4202103871fc2ca08e6950b38867e8e6a0e94ee625223d3aa0df5c65f414c6d784467e252ae"], "sequence": 4294967295, "scriptSig": {"hex": "220020b3338f9571dda5ad799834148ea1ed19d1123924bdbb356e0c8c610b69cfd906", "asm": "0020b3338f9571dda5ad799834148ea1ed19d1123924bdbb356e0c8c610b69cfd906"}, "vout": 1, "txid": "776590087837548d3f4f16c4d3d40ec1256ce78ad808c2ec7b80b8f836ba5c52"}, {"txinwitness": ["", "30440220181e6fb0be59b4ba167329b7ddc214616ccdc62deb6bcff8b0bce6b486dd3f37022069f9d7e22ac56f649e21c4fd224d073f5a59ee026c703a9cef2336ad3e7b535801", "3045022100b4e84fe4d10dd34156cdd92b3bdf1ed690b0efdcbe8a1e736f5612f37d48378102202e259b16d5551c3a1c6553ae653372a96d17d5cb5c8bea317a67fcb948f8d74001", "522103f985ea61f461801f3abc09ebed98ce7e20804639a64616f639f492883ea4e8d62103871fc2ca08e6950b38867e8e6a0e94ee625223d3aa0df5c65f414c6d784467e252ae"], "sequence": 4294967295, "scriptSig": {"hex": "220020efd02f10cc1074c68ec89b458572a71ce6bfc8a17595d8fde80232e47279444b", "asm": "0020efd02f10cc1074c68ec89b458572a71ce6bfc8a17595d8fde80232e47279444b"}, "vout": 1, "txid": "699b31ca8e97d64e84be37f3997328460b6337e62d3e20f9a5ecec5699f59d14"}], "txid": "d6b7631bf3a1e3c425f1710bd1b3517f3a30fa01a02a50ba5e4cad1874f5e329", "blocktime": 1537872018, "version": 1, "confirmations": 11489, "time": 1537872018, "locktime": 0, "vsize": 337, "size": 667}