{"hash": "66736b9bb67fc386e76df5973c4aecec98e0f124671d90250a1402f115b0cd57", "blockhash": "000000000000000000205f8b0775d31398ef75b89a5e8ec8d2c57b4dc0ac4c20", "vout": [{"scriptPubKey": {"reqSigs": 1, "hex": "a914f1c2da2f75c495c4e950db2bb1eeddb54291654587", "addresses": ["3PjLCMCfN3hBZAhzDMXnH4Q8qrot6bufSD"], "asm": "OP_HASH160 f1c2da2f75c495c4e950db2bb1eeddb542916545 OP_EQUAL", "type": "scripthash"}, "value": 0.00094562, "n": 0}, {"scriptPubKey": {"reqSigs": 1, "hex": "76a914d2881ce3d286371c50b5a41a026525b252b4225688ac", "addresses": ["1LCBxa8AAhkE9DfznKuN7AVWzvezfajwHB"], "asm": "OP_DUP OP_HASH160 d2881ce3d286371c50b5a41a026525b252b42256 OP_EQUALVERIFY OP_CHECKSIG", "type": "pubkeyhash"}, "value": 11.458, "n": 1}], "hex": "01000000000102195e59181128ca3935819e539e5140d78908b01b03e6029031b1bb5c1146012e000000001716001483f3898b5a820c3214f2b4e930ae0b44a517e969ffffffff31105cee167ccca385833f7f6bff033c14af15be8c2b585cee2d36480de3c8df000000001716001427d8a3874e204752d4717799406dde3806a96123ffffffff02627101000000000017a914f1c2da2f75c495c4e950db2bb1eeddb5429165458740854b44000000001976a914d2881ce3d286371c50b5a41a026525b252b4225688ac0247304402201123dd5a847c7183cf7858b3b4f3c5a4b3a1c45ce22ce807c32f509313f5579f0220355a1591f3485073dce463872684919c5f8e804918b67dac92e253a983e7634201210215b30631ae9820b08ccd3a8f347c209ccb7d6b0e431162573335d5b2a049a55802483045022100bde59ab8cc293e86fb61d8dc917f9fe6c5afb43a9b6ca48cdf75c97fb1ce111c02205d528bd40c7ba6661ca1bd1334e335e221e07591ad502f10babc4efd9394e2c60121021383828111edc4cf5abf0790148251b49181af0afec71cf4f96c949886108bad00000000", "vin": [{"txinwitness": ["304402201123dd5a847c7183cf7858b3b4f3c5a4b3a1c45ce22ce807c32f509313f5579f0220355a1591f3485073dce463872684919c5f8e804918b67dac92e253a983e7634201", "0215b30631ae9820b08ccd3a8f347c209ccb7d6b0e431162573335d5b2a049a558"], "sequence": 4294967295, "scriptSig": {"hex": "16001483f3898b5a820c3214f2b4e930ae0b44a517e969", "asm": "001483f3898b5a820c3214f2b4e930ae0b44a517e969"}, "vout": 0, "txid": "2e0146115cbbb1319002e6031bb00889d740519e539e813539ca281118595e19"}, {"txinwitness": ["3045022100bde59ab8cc293e86fb61d8dc917f9fe6c5afb43a9b6ca48cdf75c97fb1ce111c02205d528bd40c7ba6661ca1bd1334e335e221e07591ad502f10babc4efd9394e2c601", "021383828111edc4cf5abf0790148251b49181af0afec71cf4f96c949886108bad"], "sequence": 4294967295, "scriptSig": {"hex": "16001427d8a3874e204752d4717799406dde3806a96123", "asm": "001427d8a3874e204752d4717799406dde3806a96123"}, "vout": 0, "txid": "dfc8e30d48362dee5c582b8cbe15af143c03ff6b7f3f8385a3cc7c16ee5c1031"}], "txid": "d6bccff0ee1892ff5a8ecba8214de341b8350be2953cce710e292063dc4e90aa", "blocktime": 1537871175, "version": 1, "confirmations": 11511, "time": 1537871175, "locktime": 0, "vsize": 259, "size": 421}