{"hash": "d6c462e9a5f8641d3671562778e0757bf2a9c117c832ca18a50a4d26b1e5a4cd", "blockhash": "000000000000000000022b45ed06c6f4ccd3cf7fb5ba4856ebd2e58215665228", "vout": [{"scriptPubKey": {"reqSigs": 1, "hex": "76a9147bdeef07df90246d63d8bb763d143c0941198ff588ac", "addresses": ["1CHyBJU272jLWz1ovG7Wj2NKJUFQt8nxZD"], "asm": "OP_DUP OP_HASH160 7bdeef07df90246d63d8bb763d143c0941198ff5 OP_EQUALVERIFY OP_CHECKSIG", "type": "pubkeyhash"}, "value": 0.00566054, "n": 0}, {"scriptPubKey": {"type": "nulldata", "hex": "6a146f6d6e69000000000000001f00001b48cd8a7b00", "asm": "OP_RETURN 6f6d6e69000000000000001f00001b48cd8a7b00"}, "value": 0.0, "n": 1}, {"scriptPubKey": {"reqSigs": 1, "hex": "76a914a25dec4d0011064ef106a983c39c7a540699f22088ac", "addresses": ["1FoWyxwPXuj4C6abqwhjDWdz6D4PZgYRjA"], "asm": "OP_DUP OP_HASH160 a25dec4d0011064ef106a983c39c7a540699f220 OP_EQUALVERIFY OP_CHECKSIG", "type": "pubkeyhash"}, "value": 5.46e-06, "n": 2}], "hex": "0100000002adb0c6f810fe59e1744e02d7d2ee5a365b9f15960949eddfa60adfa3cd6b16fa020000006a473044022069c1091058ec35ee51e01d0c9f0747f830f6a06c73c3d704e59a12cd211006a002201e73401a63791c0f2359ec848b01b17a4c387afc3a64e1ea80674bfcb07b4f21012102e8d15d95d7fd599cca33ab855d355abdfa13b1e050508cd914773b245ecc3ec0feffffffa655f7e117131494cbc24318cde4f1e1cc1362e969078d4a5f4608e3139cdafc010000006a4730440220105bb5c84b56f55e5f39fe83ed1ade028bfbed5ba16c8a5ccf768be65e297b4f02205952b50aa97a8eb1b14373814c596ddebe7bff728e0dff360fd68c45421ad547012102e8d15d95d7fd599cca33ab855d355abdfa13b1e050508cd914773b245ecc3ec0feffffff0326a30800000000001976a9147bdeef07df90246d63d8bb763d143c0941198ff588ac0000000000000000166a146f6d6e69000000000000001f00001b48cd8a7b0022020000000000001976a914a25dec4d0011064ef106a983c39c7a540699f22088ac0b490800", "vin": [{"sequence": 4294967294, "scriptSig": {"hex": "473044022069c1091058ec35ee51e01d0c9f0747f830f6a06c73c3d704e59a12cd211006a002201e73401a63791c0f2359ec848b01b17a4c387afc3a64e1ea80674bfcb07b4f21012102e8d15d95d7fd599cca33ab855d355abdfa13b1e050508cd914773b245ecc3ec0", "asm": "3044022069c1091058ec35ee51e01d0c9f0747f830f6a06c73c3d704e59a12cd211006a002201e73401a63791c0f2359ec848b01b17a4c387afc3a64e1ea80674bfcb07b4f21[ALL] 02e8d15d95d7fd599cca33ab855d355abdfa13b1e050508cd914773b245ecc3ec0"}, "vout": 2, "txid": "fa166bcda3df0aa6dfed490996159f5b365aeed2d7024e74e159fe10f8c6b0ad"}, {"sequence": 4294967294, "scriptSig": {"hex": "4730440220105bb5c84b56f55e5f39fe83ed1ade028bfbed5ba16c8a5ccf768be65e297b4f02205952b50aa97a8eb1b14373814c596ddebe7bff728e0dff360fd68c45421ad547012102e8d15d95d7fd599cca33ab855d355abdfa13b1e050508cd914773b245ecc3ec0", "asm": "30440220105bb5c84b56f55e5f39fe83ed1ade028bfbed5ba16c8a5ccf768be65e297b4f02205952b50aa97a8eb1b14373814c596ddebe7bff728e0dff360fd68c45421ad547[ALL] 02e8d15d95d7fd599cca33ab855d355abdfa13b1e050508cd914773b245ecc3ec0"}, "vout": 1, "txid": "fcda9c13e308465f4a8d0769e96213cce1f1e4cd1843c2cb94141317e1f755a6"}], "txid": "d6c462e9a5f8641d3671562778e0757bf2a9c117c832ca18a50a4d26b1e5a4cd", "blocktime": 1537869901, "version": 1, "confirmations": 11524, "time": 1537869901, "locktime": 542987, "vsize": 403, "size": 403}