{"hash": "538ce7d0f11c4418e61d675eaeb69818a3c26f0eda6c8e424c6495d50fa23249", "blockhash": "00000000000000000024a2167bbff67b0be802c0b01cdd79e6331c2be6459f87", "vout": [{"scriptPubKey": {"reqSigs": 1, "hex": "a9147d43ba3fc6d93d353a8e89523065bbf76fd3bfac87", "addresses": ["3D7MXKBL327LzM4Q9f4ZDqZNg9y1cKKd5P"], "asm": "OP_HASH160 7d43ba3fc6d93d353a8e89523065bbf76fd3bfac OP_EQUAL", "type": "scripthash"}, "value": 0.01314415, "n": 0}, {"scriptPubKey": {"reqSigs": 1, "hex": "a9141c8f60030450d2a29c6ddfcea7bdaf00c3dcb66787", "addresses": ["34J2bnea8KmjomrFkSTfTMUsz2NLJXAeu1"], "asm": "OP_HASH160 1c8f60030450d2a29c6ddfcea7bdaf00c3dcb667 OP_EQUAL", "type": "scripthash"}, "value": 0.01125952, "n": 1}], "hex": "01000000000101d66671adb9d34469761822a2958544b56f561656ae64356f1c5e44716cc449ab00000000232200209920d36e9976ed97d7ca76436ddf58ea15c29292b02979f26d2bd5d4054c508bffffffff026f0e14000000000017a9147d43ba3fc6d93d353a8e89523065bbf76fd3bfac87402e11000000000017a9141c8f60030450d2a29c6ddfcea7bdaf00c3dcb6678704004730440220332712a06510146f14b0e2f9d73d46ac7a4e63c71b34ba35ce3039f3ae76228202200a7c8dab05cc497b97206afa26f350c600928954935c5dc380f66d870a1724ef01483045022100f4850228ce0ba564719ef405304372a0097eb725a40fe2f0f895a82e22c035ad02202da2615ff1edd1bc82a51c139b2cccc8084f9da40118e59607533bf22ec08b0e0169522102922b45ac067d2f1ae244962c0e5c582fe50580e97742eabd1a0c7c607aaed5022102ee9986fcd12af9b15915aeef2da4f884df4629e3abde48cb6262fde11f004eee2102c174ee3ee9135ca037a046795cdf3924456efe7b30111be28abff9e13a1878e953ae0e490800", "vin": [{"txinwitness": ["", "30440220332712a06510146f14b0e2f9d73d46ac7a4e63c71b34ba35ce3039f3ae76228202200a7c8dab05cc497b97206afa26f350c600928954935c5dc380f66d870a1724ef01", "3045022100f4850228ce0ba564719ef405304372a0097eb725a40fe2f0f895a82e22c035ad02202da2615ff1edd1bc82a51c139b2cccc8084f9da40118e59607533bf22ec08b0e01", "522102922b45ac067d2f1ae244962c0e5c582fe50580e97742eabd1a0c7c607aaed5022102ee9986fcd12af9b15915aeef2da4f884df4629e3abde48cb6262fde11f004eee2102c174ee3ee9135ca037a046795cdf3924456efe7b30111be28abff9e13a1878e953ae"], "sequence": 4294967295, "scriptSig": {"hex": "2200209920d36e9976ed97d7ca76436ddf58ea15c29292b02979f26d2bd5d4054c508b", "asm": "00209920d36e9976ed97d7ca76436ddf58ea15c29292b02979f26d2bd5d4054c508b"}, "vout": 0, "txid": "ab49c46c71445e1c6f3564ae5616566fb5448595a22218766944d3b9ad7166d6"}], "txid": "d6c683503e8f5d3258a69c8056c4faa4767496d547363aaecc4b8f273228dd93", "blocktime": 1537870564, "version": 1, "confirmations": 11515, "time": 1537870564, "locktime": 542990, "vsize": 214, "size": 405}