{"hash": "d6cf4773dbb2807d2e27dbfba4bcffe8839439069d915515d24dd743794b3b1f", "blockhash": "0000000000000000001cda96e906b7601b7a6fb1a3b62bca570a9e5d8f4b3de1", "vout": [{"scriptPubKey": {"reqSigs": 1, "hex": "76a9147cdc6059f91187e08528e2232b66b04e42f84c9088ac", "addresses": ["1CPCnojhj3danJCKfDnyMoU26zMXA88RN4"], "asm": "OP_DUP OP_HASH160 7cdc6059f91187e08528e2232b66b04e42f84c90 OP_EQUALVERIFY OP_CHECKSIG", "type": "pubkeyhash"}, "value": 0.00251672, "n": 0}, {"scriptPubKey": {"reqSigs": 1, "hex": "76a914c2b6781fb7b68df3840755379737864d5f6254da88ac", "addresses": ["1JkYgQBjLCoW1cHpo2feQisxW5BMkzNjEL"], "asm": "OP_DUP OP_HASH160 c2b6781fb7b68df3840755379737864d5f6254da OP_EQUALVERIFY OP_CHECKSIG", "type": "pubkeyhash"}, "value": 0.0068, "n": 1}], "hex": "010000000249d4b01a5c18c4684bfce8b1d2807190737062ec877a2ed9793a044fbfb6024d000000006a473044022022b37ff7a3cb4abd58d3c34c5d8c9dbee874ce0afbdc41e49d102df5f8ba0882022057cff4828e26fd5df81db36635838643a2d613cf45f6ad7ce162cbe701a6d55c0121039b9367dba994c7d74f93c5ed0609b1b631f819ca1669b2b1edf71101ce85929bffffffff49527eee78ae85be1526da5a9fc49d65020e4a43730820c0f5a29742020b08c7000000006b483045022100ad3060b939c9c734cf5c32d42c2eede0c9ec102a7110a93adc0a1aecbb0960cd02207245e8158294584dfe347a09b5acc0e3a43f7703d774d8af8882eee60c306e42012102fa76ee52afabc05cb8a0eb7c112bcc4e5a96a2798a5223b0274457528076a40effffffff0218d70300000000001976a9147cdc6059f91187e08528e2232b66b04e42f84c9088ac40600a00000000001976a914c2b6781fb7b68df3840755379737864d5f6254da88ac00000000", "vin": [{"sequence": 4294967295, "scriptSig": {"hex": "473044022022b37ff7a3cb4abd58d3c34c5d8c9dbee874ce0afbdc41e49d102df5f8ba0882022057cff4828e26fd5df81db36635838643a2d613cf45f6ad7ce162cbe701a6d55c0121039b9367dba994c7d74f93c5ed0609b1b631f819ca1669b2b1edf71101ce85929b", "asm": "3044022022b37ff7a3cb4abd58d3c34c5d8c9dbee874ce0afbdc41e49d102df5f8ba0882022057cff4828e26fd5df81db36635838643a2d613cf45f6ad7ce162cbe701a6d55c[ALL] 039b9367dba994c7d74f93c5ed0609b1b631f819ca1669b2b1edf71101ce85929b"}, "vout": 0, "txid": "4d02b6bf4f043a79d92e7a87ec627073907180d2b1e8fc4b68c4185c1ab0d449"}, {"sequence": 4294967295, "scriptSig": {"hex": "483045022100ad3060b939c9c734cf5c32d42c2eede0c9ec102a7110a93adc0a1aecbb0960cd02207245e8158294584dfe347a09b5acc0e3a43f7703d774d8af8882eee60c306e42012102fa76ee52afabc05cb8a0eb7c112bcc4e5a96a2798a5223b0274457528076a40e", "asm": "3045022100ad3060b939c9c734cf5c32d42c2eede0c9ec102a7110a93adc0a1aecbb0960cd02207245e8158294584dfe347a09b5acc0e3a43f7703d774d8af8882eee60c306e42[ALL] 02fa76ee52afabc05cb8a0eb7c112bcc4e5a96a2798a5223b0274457528076a40e"}, "vout": 0, "txid": "c7080b024297a2f5c0200873434a0e02659dc49f5ada2615be85ae78ee7e5249"}], "txid": "d6cf4773dbb2807d2e27dbfba4bcffe8839439069d915515d24dd743794b3b1f", "blocktime": 1537873282, "version": 1, "confirmations": 11485, "time": 1537873282, "locktime": 0, "vsize": 373, "size": 373}