{"hash": "d6d1cecd5ae9e2d6467b3b09e180891192eaa49ad27759358e588ab8af404c69", "blockhash": "0000000000000000001f0ddff1eddb255c1121bcd4da4f1bc9a0da00cae72433", "vout": [{"scriptPubKey": {"reqSigs": 1, "hex": "76a914867deaad906180ce596194845731a9d078e4795b88ac", "addresses": ["1DG8PZ11GNXWnf8N5vDhw8rYHvwfZGc1QU"], "asm": "OP_DUP OP_HASH160 867deaad906180ce596194845731a9d078e4795b OP_EQUALVERIFY OP_CHECKSIG", "type": "pubkeyhash"}, "value": 0.0096008, "n": 0}, {"scriptPubKey": {"reqSigs": 1, "hex": "76a914fba37ca4187201109d18df459918adceca442e8588ac", "addresses": ["1PwYTRBXb9AjavtgUYSiJbLJDevL4Jbr83"], "asm": "OP_DUP OP_HASH160 fba37ca4187201109d18df459918adceca442e85 OP_EQUALVERIFY OP_CHECKSIG", "type": "pubkeyhash"}, "value": 0.07711294, "n": 1}, {"scriptPubKey": {"reqSigs": 1, "hex": "a91469f375e3572e8a25a35e6a56d33c458c2fb21f9487", "addresses": ["3BMEXcoQ569RU5JkCcj4T5V1ExSV1XyK9y"], "asm": "OP_HASH160 69f375e3572e8a25a35e6a56d33c458c2fb21f94 OP_EQUAL", "type": "scripthash"}, "value": 0.08085064, "n": 2}, {"scriptPubKey": {"reqSigs": 1, "hex": "76a9145bc26fb1638b6215ef9287c8ac5c35a68e61ae3688ac", "addresses": ["19NBR8Q8mxGYW3QttLPphXdypnjffJonBW"], "asm": "OP_DUP OP_HASH160 5bc26fb1638b6215ef9287c8ac5c35a68e61ae36 OP_EQUALVERIFY OP_CHECKSIG", "type": "pubkeyhash"}, "value": 0.12537344, "n": 3}, {"scriptPubKey": {"reqSigs": 1, "hex": "76a9140a66b0c11308e1b30415ad1162389c679891927788ac", "addresses": ["1wzmyas7jmPCxJdnkDGEDveDSiYMS9MFn"], "asm": "OP_DUP OP_HASH160 0a66b0c11308e1b30415ad1162389c6798919277 OP_EQUALVERIFY OP_CHECKSIG", "type": "pubkeyhash"}, "value": 6.26280379, "n": 4}], "hex": "010000000110848403ef37f65df4d7da0f0d11aa152caf8f2e87e2961ed951d53fda325b0a020000006a4730440220406f9bc0b3154c9d33614ff48c032018f82470899f590d2fd77e84886a50dbea02203e01e8bb82d6228f3b89e1325a274ad7dd469b181b0f6a05ddb3da380fa78bc6012102d26817135d374de5821e3d712a9f591820fc444110c828e1f19075d75c1a4ef9feffffff0550a60e00000000001976a914867deaad906180ce596194845731a9d078e4795b88ac3eaa7500000000001976a914fba37ca4187201109d18df459918adceca442e8588ac485e7b000000000017a91469f375e3572e8a25a35e6a56d33c458c2fb21f9487004ebf00000000001976a9145bc26fb1638b6215ef9287c8ac5c35a68e61ae3688acbb475425000000001976a9140a66b0c11308e1b30415ad1162389c679891927788ac00000000", "vin": [{"sequence": 4294967294, "scriptSig": {"hex": "4730440220406f9bc0b3154c9d33614ff48c032018f82470899f590d2fd77e84886a50dbea02203e01e8bb82d6228f3b89e1325a274ad7dd469b181b0f6a05ddb3da380fa78bc6012102d26817135d374de5821e3d712a9f591820fc444110c828e1f19075d75c1a4ef9", "asm": "30440220406f9bc0b3154c9d33614ff48c032018f82470899f590d2fd77e84886a50dbea02203e01e8bb82d6228f3b89e1325a274ad7dd469b181b0f6a05ddb3da380fa78bc6[ALL] 02d26817135d374de5821e3d712a9f591820fc444110c828e1f19075d75c1a4ef9"}, "vout": 2, "txid": "0a5b32da3fd551d91e96e2872e8faf2c15aa110d0fdad7f45df637ef03848410"}], "txid": "d6d1cecd5ae9e2d6467b3b09e180891192eaa49ad27759358e588ab8af404c69", "blocktime": 1537872018, "version": 1, "confirmations": 11489, "time": 1537872018, "locktime": 0, "vsize": 325, "size": 325}