{"hash": "d6d380ad5b2c6cc6f57bb1240efd19e51a7f617e55b9660e9b1dc55550c94af7", "blockhash": "0000000000000000000e13cef7c366c0283d82e591d1acd082e914b08063cdf1", "vout": [{"scriptPubKey": {"reqSigs": 1, "hex": "76a914aef94e28ccc52fa476b56bb7ad122195fc911f5e88ac", "addresses": ["1GxBER5SEEsYZkhJPJeg3h5C7rnzwxVnge"], "asm": "OP_DUP OP_HASH160 aef94e28ccc52fa476b56bb7ad122195fc911f5e OP_EQUALVERIFY OP_CHECKSIG", "type": "pubkeyhash"}, "value": 0.00108369, "n": 0}, {"scriptPubKey": {"reqSigs": 1, "hex": "76a914715898010abab1f82b6a909e95aa94888769682988ac", "addresses": ["1BLKVHDbgUuz3jxYtjFPk6aCXw7juy8Y5h"], "asm": "OP_DUP OP_HASH160 715898010abab1f82b6a909e95aa948887696829 OP_EQUALVERIFY OP_CHECKSIG", "type": "pubkeyhash"}, "value": 0.00546665, "n": 1}], "hex": "01000000019cb6ad0532bb972d4e44c31337f85c29feef8275f1d2a1ad7fd19a7efdcee42b000000006b48304502210081aaa3ceff4ae6c6bb7e006c44deb042f7d7739ecc624e210f95287fd827e16c02202d55e6c8e76252ba509bcd168d3449c9a220f707d04c4f92b3965364a4c9b1040121037ef40226e64d3169c208f0257607523ef14d039be189cbc2c1421978a4221448ffffffff0251a70100000000001976a914aef94e28ccc52fa476b56bb7ad122195fc911f5e88ac69570800000000001976a914715898010abab1f82b6a909e95aa94888769682988ac00000000", "vin": [{"sequence": 4294967295, "scriptSig": {"hex": "48304502210081aaa3ceff4ae6c6bb7e006c44deb042f7d7739ecc624e210f95287fd827e16c02202d55e6c8e76252ba509bcd168d3449c9a220f707d04c4f92b3965364a4c9b1040121037ef40226e64d3169c208f0257607523ef14d039be189cbc2c1421978a4221448", "asm": "304502210081aaa3ceff4ae6c6bb7e006c44deb042f7d7739ecc624e210f95287fd827e16c02202d55e6c8e76252ba509bcd168d3449c9a220f707d04c4f92b3965364a4c9b104[ALL] 037ef40226e64d3169c208f0257607523ef14d039be189cbc2c1421978a4221448"}, "vout": 0, "txid": "2be4cefd7e9ad17fada1d2f17582effe295cf83713c3444e2d97bb3205adb69c"}], "txid": "d6d380ad5b2c6cc6f57bb1240efd19e51a7f617e55b9660e9b1dc55550c94af7", "blocktime": 1537871767, "version": 1, "confirmations": 11495, "time": 1537871767, "locktime": 0, "vsize": 226, "size": 226}