{"hash": "d6e1712fa85d225f584d09be16a94de2fd1f392ce699cd2ac6a319e4f600e69e", "blockhash": "0000000000000000000dcc0f55137456b1a82d3642486a52398922ac4d620174", "vout": [{"scriptPubKey": {"reqSigs": 1, "hex": "a914fb2b6ae5bbc440387ebce85f39a8f1ba8bbb531087", "addresses": ["3Qb5YQ5UEFmYbA2cqhzAfw3Qx1zRh7wFmp"], "asm": "OP_HASH160 fb2b6ae5bbc440387ebce85f39a8f1ba8bbb5310 OP_EQUAL", "type": "scripthash"}, "value": 0.00283, "n": 0}, {"scriptPubKey": {"reqSigs": 1, "hex": "76a914fb8eda2a6cc49e723482287f89ce987334425d4888ac", "addresses": ["1Pw7jhJvQ8cFGaZByeBBLF8cmije4t3yud"], "asm": "OP_DUP OP_HASH160 fb8eda2a6cc49e723482287f89ce987334425d48 OP_EQUALVERIFY OP_CHECKSIG", "type": "pubkeyhash"}, "value": 0.01396332, "n": 1}], "hex": "0100000001748cb584ff7842b3460084a45c457870398e267a1081ebfc529a831a4917c297010000006b483045022100d6c4445753b5e5ac427ede393b7dbf84f7291f0dcde3b622b6c2906ab1b4e17d022043c75a903854173ad2463571db200fc55627f5d9b34fea5bc13c4a939e5aa8d7012103699376cd9a7b2a7a0037ac9769736961e5fa4e8a180020739e5dcbcf48998622ffffffff02785104000000000017a914fb2b6ae5bbc440387ebce85f39a8f1ba8bbb5310876c4e1500000000001976a914fb8eda2a6cc49e723482287f89ce987334425d4888ac00000000", "vin": [{"sequence": 4294967295, "scriptSig": {"hex": "483045022100d6c4445753b5e5ac427ede393b7dbf84f7291f0dcde3b622b6c2906ab1b4e17d022043c75a903854173ad2463571db200fc55627f5d9b34fea5bc13c4a939e5aa8d7012103699376cd9a7b2a7a0037ac9769736961e5fa4e8a180020739e5dcbcf48998622", "asm": "3045022100d6c4445753b5e5ac427ede393b7dbf84f7291f0dcde3b622b6c2906ab1b4e17d022043c75a903854173ad2463571db200fc55627f5d9b34fea5bc13c4a939e5aa8d7[ALL] 03699376cd9a7b2a7a0037ac9769736961e5fa4e8a180020739e5dcbcf48998622"}, "vout": 1, "txid": "97c217491a839a52fceb81107a268e397078455ca4840046b34278ff84b58c74"}], "txid": "d6e1712fa85d225f584d09be16a94de2fd1f392ce699cd2ac6a319e4f600e69e", "blocktime": 1537870268, "version": 1, "confirmations": 11516, "time": 1537870268, "locktime": 0, "vsize": 224, "size": 224}