{"hash": "f76e770dfb704c6ea06bbc962009ab9aad74fb7963d090927213b1816a251095", "blockhash": "0000000000000000001f76057863aec43deb6fa401d9628bb513d65a8098bfab", "vout": [{"scriptPubKey": {"reqSigs": 1, "hex": "76a9148c58b10ef77706dede4fbca017cd2bf38f4b2e7b88ac", "addresses": ["1Do5rG2VzUQWGHdTC2JRUGVmeSZ2JdD7ZV"], "asm": "OP_DUP OP_HASH160 8c58b10ef77706dede4fbca017cd2bf38f4b2e7b OP_EQUALVERIFY OP_CHECKSIG", "type": "pubkeyhash"}, "value": 0.00155626, "n": 0}, {"scriptPubKey": {"reqSigs": 1, "hex": "a914ef0c535e860ea94ace1012565ab2d8531446707d87", "addresses": ["3PUzBnxUQ2FkYCM3gmGvBnGBFiEk26CXyG"], "asm": "OP_HASH160 ef0c535e860ea94ace1012565ab2d8531446707d OP_EQUAL", "type": "scripthash"}, "value": 0.37754027, "n": 1}], "hex": "01000000000101efc874ecd7aa968e1c0cf23636bd8c652f45d9cdbd831f18239b1ff088c6580a01000000171600144cef07c4083344e7322abd234945cd93801c9785ffffffff02ea5f0200000000001976a9148c58b10ef77706dede4fbca017cd2bf38f4b2e7b88acab1440020000000017a914ef0c535e860ea94ace1012565ab2d8531446707d870248304502210091cd2cee0868bfb3accd4a1ddfbdbf95e3683050b964676293d5c90250435d670220596f2bd72fcdd88964fe7a21afb72f0538d9c91d6d48cf7ab0a43b1390fda119012102c092606bb89be196072a8699f89ff1534016e9128f91892aa8c0932efde8ac3c00000000", "vin": [{"txinwitness": ["304502210091cd2cee0868bfb3accd4a1ddfbdbf95e3683050b964676293d5c90250435d670220596f2bd72fcdd88964fe7a21afb72f0538d9c91d6d48cf7ab0a43b1390fda11901", "02c092606bb89be196072a8699f89ff1534016e9128f91892aa8c0932efde8ac3c"], "sequence": 4294967295, "scriptSig": {"hex": "1600144cef07c4083344e7322abd234945cd93801c9785", "asm": "00144cef07c4083344e7322abd234945cd93801c9785"}, "vout": 1, "txid": "0a58c688f01f9b23181f83bdcdd9452f658cbd3636f20c1c8e96aad7ec74c8ef"}], "txid": "d6e693fd0393a8475f32dab676b54c56c1d1090ef6dc25ba12819174f4636c80", "blocktime": 1537873891, "version": 1, "confirmations": 11478, "time": 1537873891, "locktime": 0, "vsize": 168, "size": 250}