{"hash": "d6eb5c1c56b0ba57c5ee02317f362704319c11a4a243647f15423ee870381672", "blockhash": "0000000000000000001cda96e906b7601b7a6fb1a3b62bca570a9e5d8f4b3de1", "vout": [{"scriptPubKey": {"reqSigs": 1, "hex": "a9144324693663bffec9adbf2cc84104a1df7190cce587", "addresses": ["37p2pGxvpeXmS73dENMJCD9tMybwATbAtf"], "asm": "OP_HASH160 4324693663bffec9adbf2cc84104a1df7190cce5 OP_EQUAL", "type": "scripthash"}, "value": 1.15, "n": 0}, {"scriptPubKey": {"reqSigs": 1, "hex": "76a914db0eace412bcff096b13520d228be221b78f464f88ac", "addresses": ["1LyGZfzzZjn19dKX1HH52Q3hoeUdNLTyiJ"], "asm": "OP_DUP OP_HASH160 db0eace412bcff096b13520d228be221b78f464f OP_EQUALVERIFY OP_CHECKSIG", "type": "pubkeyhash"}, "value": 0.918214, "n": 1}, {"scriptPubKey": {"reqSigs": 1, "hex": "a9147ee27a979b8b3812018e28b9296cb795b544d8a587", "addresses": ["3DFvNk2CQkALFGkT4XDQx4S5kbAeLXNuN7"], "asm": "OP_HASH160 7ee27a979b8b3812018e28b9296cb795b544d8a5 OP_EQUAL", "type": "scripthash"}, "value": 0.5, "n": 2}, {"scriptPubKey": {"reqSigs": 1, "hex": "a9143b926087af00bac0bd92e122e92b4da77c4f0fe787", "addresses": ["37819KT2ShEY5UzwDRrU3rs3Ephi6oAVxz"], "asm": "OP_HASH160 3b926087af00bac0bd92e122e92b4da77c4f0fe7 OP_EQUAL", "type": "scripthash"}, "value": 0.25, "n": 3}, {"scriptPubKey": {"reqSigs": 1, "hex": "a91459c243eb728f29ad69ba64081d0ffc55e22252f287", "addresses": ["39scnQZqQGCQbk8yuoo64LP3JEWKkY3tNd"], "asm": "OP_HASH160 59c243eb728f29ad69ba64081d0ffc55e22252f2 OP_EQUAL", "type": "scripthash"}, "value": 0.07642698, "n": 4}, {"scriptPubKey": {"reqSigs": 1, "hex": "a914d11b2f44ea2c17eb69bb3d62821d7ac57df2a99a87", "addresses": ["3LkfiTYvEkeLjsuFknvvqtQ4TDZ69eNMii"], "asm": "OP_HASH160 d11b2f44ea2c17eb69bb3d62821d7ac57df2a99a OP_EQUAL", "type": "scripthash"}, "value": 0.04999, "n": 5}, {"scriptPubKey": {"reqSigs": 1, "hex": "76a91422397161023b472e8914c5b5ab61e2f8cbb7ae1c88ac", "addresses": ["147xnizPqyysDS7cQD9wkTLgADxbb42tDe"], "asm": "OP_DUP OP_HASH160 22397161023b472e8914c5b5ab61e2f8cbb7ae1c OP_EQUALVERIFY OP_CHECKSIG", "type": "pubkeyhash"}, "value": 0.03129018, "n": 6}, {"scriptPubKey": {"reqSigs": 1, "hex": "a9148f39c0aab9bf39c85835837d803d3f6d3d46fcda87", "addresses": ["3EkKjhNTkK77kWxtoELjc7CWnQ32LCmcH3"], "asm": "OP_HASH160 8f39c0aab9bf39c85835837d803d3f6d3d46fcda OP_EQUAL", "type": "scripthash"}, "value": 0.000898, "n": 7}, {"scriptPubKey": {"reqSigs": 1, "hex": "76a9148d0f3e6e1de5dfbcc2e33ebc8e1b23cbf2db38ac88ac", "addresses": ["1DrrYDDRPTqzy7SjhQaJ6ganP7yv237wSW"], "asm": "OP_DUP OP_HASH160 8d0f3e6e1de5dfbcc2e33ebc8e1b23cbf2db38ac OP_EQUALVERIFY OP_CHECKSIG", "type": "pubkeyhash"}, "value": 0.51436978, "n": 8}], "hex": "0100000004e0d04709c3723ab4897736815809d7f49cd96928c1df29ab7d79a5644f36e1d0060000008b48304502210082b7e29b5d852d85e54c2c80421a38cf1f82a620816fb1fdd0610a060c6453b302206db007912353ed3f57f4505bb7aa587c33494f56b68f173569db45c4d8c2d529014104281d067aa006daee5571153beaaabf3eb0ce483a88de15e3b2860a8ef61d3d1a015db1f26cdd8cb9f8645412d24a070cc019f895db84dd756ea057a6fb649e61ffffffffce25741887da67c4aea032380102cf711e3ac99d9cc1b32d95eb2d88ca87dc63010000008b483045022100d2cf7f168d0b1fd9ecae247f545431450dc37e9c57ab8bf83b77dba7e94ef89d0220169ae53950ae81aff1dbd1bdf2304d4b5f8e78c0d86b6e290f5838f888aeca0d01410416c69689c7ca50c4beb6dc5c34f7a28b349cf4a4503a6ac14b7fd81fdd5763ac01a0a96b536f66bbc162129696489a89298b1e2bde9111ca3ea930e25c4211c8fffffffffcfc4157389e88448a812f5f62dbec590854a9401ae6ade7b9acb60e1d4004e7350000008b483045022100c30fc1b8e34988a5d6a468f4306a85715517b5d92b3612bb5e35dba001c70792022064329a7808b411e520a91b6a06edf71490d478035b38efe70255675991adf15b0141043118973e0367b0d6b716826efa948454eaef9528e6e7c2780590be49b2ef09d7d43a6e248b2f937069110feba89067c47c552a8fdf06e9a56538ff1bc0be9341ffffffffe277d002fb9eeed4c87746cd8497ba3e463ac159026ef9aaabcd4b20dbbbdaf10a0000008a47304402201cd76b75f2f029fed0f7af3791c0740cf79892e980de200897d7947b01970ce5022066c769e5582806f9dae2f7e94dc9d59307d36135f67d3f4deeda269a50232838014104a7824b18542f3b7127ca7416dfc93df6f1f838c9920b6f37c7ce81406166cf66c8bbf3b8852ec8d4a8fd8e982193c2f8efacd71d458617e8dff765c7358dde3fffffffff09c0c2da060000000017a9144324693663bffec9adbf2cc84104a1df7190cce58758157905000000001976a914db0eace412bcff096b13520d228be221b78f464f88ac80f0fa020000000017a9147ee27a979b8b3812018e28b9296cb795b544d8a58740787d010000000017a9143b926087af00bac0bd92e122e92b4da77c4f0fe7874a9e74000000000017a91459c243eb728f29ad69ba64081d0ffc55e22252f28758474c000000000017a914d11b2f44ea2c17eb69bb3d62821d7ac57df2a99a87babe2f00000000001976a91422397161023b472e8914c5b5ab61e2f8cbb7ae1c88acc85e01000000000017a9148f39c0aab9bf39c85835837d803d3f6d3d46fcda87b2dd1003000000001976a9148d0f3e6e1de5dfbcc2e33ebc8e1b23cbf2db38ac88ac00000000", "vin": [{"sequence": 4294967295, "scriptSig": {"hex": "48304502210082b7e29b5d852d85e54c2c80421a38cf1f82a620816fb1fdd0610a060c6453b302206db007912353ed3f57f4505bb7aa587c33494f56b68f173569db45c4d8c2d529014104281d067aa006daee5571153beaaabf3eb0ce483a88de15e3b2860a8ef61d3d1a015db1f26cdd8cb9f8645412d24a070cc019f895db84dd756ea057a6fb649e61", "asm": "304502210082b7e29b5d852d85e54c2c80421a38cf1f82a620816fb1fdd0610a060c6453b302206db007912353ed3f57f4505bb7aa587c33494f56b68f173569db45c4d8c2d529[ALL] 04281d067aa006daee5571153beaaabf3eb0ce483a88de15e3b2860a8ef61d3d1a015db1f26cdd8cb9f8645412d24a070cc019f895db84dd756ea057a6fb649e61"}, "vout": 6, "txid": "d0e1364f64a5797dab29dfc12869d99cf4d7095881367789b43a72c30947d0e0"}, {"sequence": 4294967295, "scriptSig": {"hex": "483045022100d2cf7f168d0b1fd9ecae247f545431450dc37e9c57ab8bf83b77dba7e94ef89d0220169ae53950ae81aff1dbd1bdf2304d4b5f8e78c0d86b6e290f5838f888aeca0d01410416c69689c7ca50c4beb6dc5c34f7a28b349cf4a4503a6ac14b7fd81fdd5763ac01a0a96b536f66bbc162129696489a89298b1e2bde9111ca3ea930e25c4211c8", "asm": "3045022100d2cf7f168d0b1fd9ecae247f545431450dc37e9c57ab8bf83b77dba7e94ef89d0220169ae53950ae81aff1dbd1bdf2304d4b5f8e78c0d86b6e290f5838f888aeca0d[ALL] 0416c69689c7ca50c4beb6dc5c34f7a28b349cf4a4503a6ac14b7fd81fdd5763ac01a0a96b536f66bbc162129696489a89298b1e2bde9111ca3ea930e25c4211c8"}, "vout": 1, "txid": "63dc87ca882deb952db3c19c9dc93a1e71cf02013832a0aec467da87187425ce"}, {"sequence": 4294967295, "scriptSig": {"hex": "483045022100c30fc1b8e34988a5d6a468f4306a85715517b5d92b3612bb5e35dba001c70792022064329a7808b411e520a91b6a06edf71490d478035b38efe70255675991adf15b0141043118973e0367b0d6b716826efa948454eaef9528e6e7c2780590be49b2ef09d7d43a6e248b2f937069110feba89067c47c552a8fdf06e9a56538ff1bc0be9341", "asm": "3045022100c30fc1b8e34988a5d6a468f4306a85715517b5d92b3612bb5e35dba001c70792022064329a7808b411e520a91b6a06edf71490d478035b38efe70255675991adf15b[ALL] 043118973e0367b0d6b716826efa948454eaef9528e6e7c2780590be49b2ef09d7d43a6e248b2f937069110feba89067c47c552a8fdf06e9a56538ff1bc0be9341"}, "vout": 53, "txid": "e704401d0eb6acb9e7ade61a40a9540859ecdb625f2f818a44889e385741fcfc"}, {"sequence": 4294967295, "scriptSig": {"hex": "47304402201cd76b75f2f029fed0f7af3791c0740cf79892e980de200897d7947b01970ce5022066c769e5582806f9dae2f7e94dc9d59307d36135f67d3f4deeda269a50232838014104a7824b18542f3b7127ca7416dfc93df6f1f838c9920b6f37c7ce81406166cf66c8bbf3b8852ec8d4a8fd8e982193c2f8efacd71d458617e8dff765c7358dde3f", "asm": "304402201cd76b75f2f029fed0f7af3791c0740cf79892e980de200897d7947b01970ce5022066c769e5582806f9dae2f7e94dc9d59307d36135f67d3f4deeda269a50232838[ALL] 04a7824b18542f3b7127ca7416dfc93df6f1f838c9920b6f37c7ce81406166cf66c8bbf3b8852ec8d4a8fd8e982193c2f8efacd71d458617e8dff765c7358dde3f"}, "vout": 10, "txid": "f1dabbdb204bcdabaaf96e0259c13a463eba9784cd4677c8d4ee9efb02d077e2"}], "txid": "d6eb5c1c56b0ba57c5ee02317f362704319c11a4a243647f15423ee870381672", "blocktime": 1537873282, "version": 1, "confirmations": 11481, "time": 1537873282, "locktime": 0, "vsize": 1023, "size": 1023}