{"hash": "d6ec0994c3eb6379d8a1f0381fa93419e03bf17dfa981e7c76b7871d3c85faea", "blockhash": "0000000000000000001f0ddff1eddb255c1121bcd4da4f1bc9a0da00cae72433", "vout": [{"scriptPubKey": {"reqSigs": 1, "hex": "a9146bb93a0d0580e5fa98ed7e31577fb26720b6f3e487", "addresses": ["3BWc7rHfgeMJdi3ymLb27EFi7tfKZ1mkH8"], "asm": "OP_HASH160 6bb93a0d0580e5fa98ed7e31577fb26720b6f3e4 OP_EQUAL", "type": "scripthash"}, "value": 0.00032479, "n": 0}, {"scriptPubKey": {"reqSigs": 1, "hex": "76a91406c268c63ac88200e79f421b9f031fe517b047e588ac", "addresses": ["1cjwwmHc4hcSTk8W36Q5gHxjm1t4hDNwa"], "asm": "OP_DUP OP_HASH160 06c268c63ac88200e79f421b9f031fe517b047e5 OP_EQUALVERIFY OP_CHECKSIG", "type": "pubkeyhash"}, "value": 0.01465631, "n": 1}], "hex": "01000000018f8e58398196aafd05202a723814317573812e4f50146c0449d199a95a318285010000006b483045022100e36725ea148b2b19e0127d45614ba348638cccaa557190b2eb708b1924162901022072674cd3d3bc9c7cc9565c580f66f6c50b8be59a8bbb80f83914161bce64cdb90121039209d42049d235c53bad0bb2a869b02b6c0adb20488e80d007d187b5d87a5f79ffffffff02df7e00000000000017a9146bb93a0d0580e5fa98ed7e31577fb26720b6f3e4871f5d1600000000001976a91406c268c63ac88200e79f421b9f031fe517b047e588ac00000000", "vin": [{"sequence": 4294967295, "scriptSig": {"hex": "483045022100e36725ea148b2b19e0127d45614ba348638cccaa557190b2eb708b1924162901022072674cd3d3bc9c7cc9565c580f66f6c50b8be59a8bbb80f83914161bce64cdb90121039209d42049d235c53bad0bb2a869b02b6c0adb20488e80d007d187b5d87a5f79", "asm": "3045022100e36725ea148b2b19e0127d45614ba348638cccaa557190b2eb708b1924162901022072674cd3d3bc9c7cc9565c580f66f6c50b8be59a8bbb80f83914161bce64cdb9[ALL] 039209d42049d235c53bad0bb2a869b02b6c0adb20488e80d007d187b5d87a5f79"}, "vout": 1, "txid": "8582315aa999d149046c14504f2e817375311438722a2005fdaa968139588e8f"}], "txid": "d6ec0994c3eb6379d8a1f0381fa93419e03bf17dfa981e7c76b7871d3c85faea", "blocktime": 1537872018, "version": 1, "confirmations": 11489, "time": 1537872018, "locktime": 0, "vsize": 224, "size": 224}