{"hash": "d6f14efb3259b328654958fc014cb09def43486527ea4598671facfd9e18f2a2", "blockhash": "00000000000000000004ffacab907a6b429b9a5745fa0b75af4234bf69dd7176", "vout": [{"scriptPubKey": {"reqSigs": 1, "hex": "76a9146df93ab681627d00b060ee1a796346da99ff098d88ac", "addresses": ["1B2VDfkf78qv7CzdSPKeH6SQotKnWUHgHu"], "asm": "OP_DUP OP_HASH160 6df93ab681627d00b060ee1a796346da99ff098d OP_EQUALVERIFY OP_CHECKSIG", "type": "pubkeyhash"}, "value": 0.0375, "n": 0}, {"scriptPubKey": {"reqSigs": 1, "hex": "a914750082330716eef4e3f76c9100d4f59c0fb4aa6d87", "addresses": ["3CMfbKq3b3KHGQQAdrJnj84nrJ8HoQVTkQ"], "asm": "OP_HASH160 750082330716eef4e3f76c9100d4f59c0fb4aa6d OP_EQUAL", "type": "scripthash"}, "value": 0.01035719, "n": 1}], "hex": "0200000002908d146535c0e9d21c0efcab6bad2df918f75a81309807f64b3645c76d4f4046000000006a47304402202add4fdd19b217530887ba01661465a6daa7af61418f4141705a96f970a8c6060220278a18c38dcc2ecace167756bfa6789ed31520208becee8bef4a954dd63dc5de01210266b51696f70b47974df533b7b339fc84765e9741a4bf67d01e573d31a24fa08afefffffff91667c65821b788d28b7da8bfc6e64c7cb4da9a4d841faf19c3406450a475f2000000006b4830450221009d68e16e0173f7b637a6e26a118c03b4e12268793dadcaed07f7407299db74f602201eaf3820fa2be086cda3140ece0420cca46485c63135f6d6c05497bfc33528ca012102c6a2bd93b872c476ecbeee39efdfd1d1cf3bb748f8aa1932ddddc5d432ba5e3bfeffffff0270383900000000001976a9146df93ab681627d00b060ee1a796346da99ff098d88acc7cd0f000000000017a914750082330716eef4e3f76c9100d4f59c0fb4aa6d8716490800", "vin": [{"sequence": 4294967294, "scriptSig": {"hex": "47304402202add4fdd19b217530887ba01661465a6daa7af61418f4141705a96f970a8c6060220278a18c38dcc2ecace167756bfa6789ed31520208becee8bef4a954dd63dc5de01210266b51696f70b47974df533b7b339fc84765e9741a4bf67d01e573d31a24fa08a", "asm": "304402202add4fdd19b217530887ba01661465a6daa7af61418f4141705a96f970a8c6060220278a18c38dcc2ecace167756bfa6789ed31520208becee8bef4a954dd63dc5de[ALL] 0266b51696f70b47974df533b7b339fc84765e9741a4bf67d01e573d31a24fa08a"}, "vout": 0, "txid": "46404f6dc745364bf6079830815af718f92dad6babfc0e1cd2e9c03565148d90"}, {"sequence": 4294967294, "scriptSig": {"hex": "4830450221009d68e16e0173f7b637a6e26a118c03b4e12268793dadcaed07f7407299db74f602201eaf3820fa2be086cda3140ece0420cca46485c63135f6d6c05497bfc33528ca012102c6a2bd93b872c476ecbeee39efdfd1d1cf3bb748f8aa1932ddddc5d432ba5e3b", "asm": "30450221009d68e16e0173f7b637a6e26a118c03b4e12268793dadcaed07f7407299db74f602201eaf3820fa2be086cda3140ece0420cca46485c63135f6d6c05497bfc33528ca[ALL] 02c6a2bd93b872c476ecbeee39efdfd1d1cf3bb748f8aa1932ddddc5d432ba5e3b"}, "vout": 0, "txid": "f275a4506440c319af1f844d9adab47c4ce6c6bfa87d8bd288b72158c66716f9"}], "txid": "d6f14efb3259b328654958fc014cb09def43486527ea4598671facfd9e18f2a2", "blocktime": 1537875543, "version": 2, "confirmations": 11464, "time": 1537875543, "locktime": 542998, "vsize": 371, "size": 371}