{"hash": "d6f1589f6103cb3497c068234a93764108f7f8abc5f789ef164a3142552d08c7", "blockhash": "0000000000000000001cda96e906b7601b7a6fb1a3b62bca570a9e5d8f4b3de1", "vout": [{"scriptPubKey": {"reqSigs": 1, "hex": "a914d913b75b5a1075fa163909321a0566273fe4650e87", "addresses": ["3MUpB5YZXtgWQEqeEYUfs8tCjm7pGsp7gH"], "asm": "OP_HASH160 d913b75b5a1075fa163909321a0566273fe4650e OP_EQUAL", "type": "scripthash"}, "value": 0.003901, "n": 0}, {"scriptPubKey": {"reqSigs": 1, "hex": "76a91434f2f53871bf0e2bbd8990a2dae8217f02c4f9e688ac", "addresses": ["15pyBzADXtbUExKPx1isB1Th6GftqYnJpZ"], "asm": "OP_DUP OP_HASH160 34f2f53871bf0e2bbd8990a2dae8217f02c4f9e6 OP_EQUALVERIFY OP_CHECKSIG", "type": "pubkeyhash"}, "value": 0.0541004, "n": 1}], "hex": "010000000155c53174b4e2d3cfd4195dac5d0f6dd5f809a4cbd3402c6b8bb5e511cd65fe9a010000006a473044022028be1d567d8a5c089302b7d3a963ca4e1e35391dd1d96da734f31d542365bb4d02202052b254ca0e17e815133523cbfc10fb45477e265b5212e1cdf5825b3f65780701210348ba56e4d934794efee47f549a22a4c3e4cb6e402ba29b4411554360e97378e8feffffff02d4f305000000000017a914d913b75b5a1075fa163909321a0566273fe4650e87f88c5200000000001976a91434f2f53871bf0e2bbd8990a2dae8217f02c4f9e688ac13490800", "vin": [{"sequence": 4294967294, "scriptSig": {"hex": "473044022028be1d567d8a5c089302b7d3a963ca4e1e35391dd1d96da734f31d542365bb4d02202052b254ca0e17e815133523cbfc10fb45477e265b5212e1cdf5825b3f65780701210348ba56e4d934794efee47f549a22a4c3e4cb6e402ba29b4411554360e97378e8", "asm": "3044022028be1d567d8a5c089302b7d3a963ca4e1e35391dd1d96da734f31d542365bb4d02202052b254ca0e17e815133523cbfc10fb45477e265b5212e1cdf5825b3f657807[ALL] 0348ba56e4d934794efee47f549a22a4c3e4cb6e402ba29b4411554360e97378e8"}, "vout": 1, "txid": "9afe65cd11e5b58b6b2c40d3cba409f8d56d0f5dac5d19d4cfd3e2b47431c555"}], "txid": "d6f1589f6103cb3497c068234a93764108f7f8abc5f789ef164a3142552d08c7", "blocktime": 1537873282, "version": 1, "confirmations": 11480, "time": 1537873282, "locktime": 542995, "vsize": 223, "size": 223}