{"hash": "d6f580dacd59d1df9a0abfec0b2ad48a852c2ed5f276dee41358bc182d97b012", "blockhash": "0000000000000000001f76057863aec43deb6fa401d9628bb513d65a8098bfab", "vout": [{"scriptPubKey": {"reqSigs": 1, "hex": "76a914317203160d6d5c147e5b261ae567c90fc3c3174188ac", "addresses": ["15WSh6aW4Bz8UffAzdMuov26MvkMqabwmd"], "asm": "OP_DUP OP_HASH160 317203160d6d5c147e5b261ae567c90fc3c31741 OP_EQUALVERIFY OP_CHECKSIG", "type": "pubkeyhash"}, "value": 0.13666792, "n": 0}, {"scriptPubKey": {"reqSigs": 1, "hex": "a91496405a83e95a5a1e0bee3321036912f3d573158787", "addresses": ["3FPUNgaG6j9KzKdXDKLQMrvXEjaCiM1e7c"], "asm": "OP_HASH160 96405a83e95a5a1e0bee3321036912f3d5731587 OP_EQUAL", "type": "scripthash"}, "value": 0.00091925, "n": 1}], "hex": "010000000155d5841784daec495746334c0388ae746cdee3c89aa14c4d0547f2cb910d90eb000000006b4830450221008e11047371ddb29fabb6dd4ba76702510c1452ebe13578ee4e9a4542eb3dae8702203c98bbf7dd2cea399e94035b612ef94c4e1003d03cb4c239209ac402affe2975012103ee559b096651d257ffdb30867e51d196d2613f4719a02327af3b8485f7d9989cffffffff02e889d000000000001976a914317203160d6d5c147e5b261ae567c90fc3c3174188ac156701000000000017a91496405a83e95a5a1e0bee3321036912f3d57315878700000000", "vin": [{"sequence": 4294967295, "scriptSig": {"hex": "4830450221008e11047371ddb29fabb6dd4ba76702510c1452ebe13578ee4e9a4542eb3dae8702203c98bbf7dd2cea399e94035b612ef94c4e1003d03cb4c239209ac402affe2975012103ee559b096651d257ffdb30867e51d196d2613f4719a02327af3b8485f7d9989c", "asm": "30450221008e11047371ddb29fabb6dd4ba76702510c1452ebe13578ee4e9a4542eb3dae8702203c98bbf7dd2cea399e94035b612ef94c4e1003d03cb4c239209ac402affe2975[ALL] 03ee559b096651d257ffdb30867e51d196d2613f4719a02327af3b8485f7d9989c"}, "vout": 0, "txid": "eb900d91cbf247054d4ca19ac8e3de6c74ae88034c33465749ecda841784d555"}], "txid": "d6f580dacd59d1df9a0abfec0b2ad48a852c2ed5f276dee41358bc182d97b012", "blocktime": 1537873891, "version": 1, "confirmations": 11474, "time": 1537873891, "locktime": 0, "vsize": 224, "size": 224}