{"hash": "d0513eb15b25ab60a3ca9aa0974246a1577d114bc1b91540ab195b2d8040db7b", "blockhash": "0000000000000000001e0dab787dd257d1dbfcb92a98c2207d5e1078be1f4165", "vout": [{"scriptPubKey": {"reqSigs": 1, "hex": "a91490e99e8d26d05ead3c05430c292a887bbff695f587", "addresses": ["3EuF6KjJawxTiUsea3Sc8hsLUGmVEf7Xg5"], "asm": "OP_HASH160 90e99e8d26d05ead3c05430c292a887bbff695f5 OP_EQUAL", "type": "scripthash"}, "value": 0.00147372, "n": 0}, {"scriptPubKey": {"type": "nulldata", "hex": "6a146f6d6e69000000000000001f0000000005f5e100", "asm": "OP_RETURN 6f6d6e69000000000000001f0000000005f5e100"}, "value": 0.0, "n": 1}, {"scriptPubKey": {"reqSigs": 1, "hex": "a91490e99e8d26d05ead3c05430c292a887bbff695f587", "addresses": ["3EuF6KjJawxTiUsea3Sc8hsLUGmVEf7Xg5"], "asm": "OP_HASH160 90e99e8d26d05ead3c05430c292a887bbff695f5 OP_EQUAL", "type": "scripthash"}, "value": 5.4e-06, "n": 2}], "hex": "0100000000010283cd6ec113399b66d7e84d731e5af06f5886884f87a09a2530daf06924b2038702000000171600141a2c719012d8bdba596d900507fedc8e41ce6738ffffffff83cd6ec113399b66d7e84d731e5af06f5886884f87a09a2530daf06924b203870000000017160014f6e1792e7852ebd5ae795c2a25d579acdfadec2dfeffffff03ac3f02000000000017a91490e99e8d26d05ead3c05430c292a887bbff695f5870000000000000000166a146f6d6e69000000000000001f0000000005f5e1001c0200000000000017a91490e99e8d26d05ead3c05430c292a887bbff695f587024830450221008aa52cd8d43e00ac429cde95b7b46575c11702b5f621c63d911a2cb29232b15202201e8d4e6c39d01b7f768cbd2562722bcd493e73524d563a60eef0bf749332875d012102284bcdf36bb5bddec758e95e5beeb9a4aacce7ca329c95fbde0566e92828e4d402473044022045d225c234ec67ec2a37cc2c94abe91636f9b3b93ddf86c34aa80d4e0ece2ccb022039be627ee7c1605352f6642d6e2f9a45fb4a6dc07909bcc356cecda15d0f7e2f012103f1cf988013a33e053d1e9bd54c4798c1a6dc362a5b2798b5344049fca40e2db000000000", "vin": [{"txinwitness": ["30450221008aa52cd8d43e00ac429cde95b7b46575c11702b5f621c63d911a2cb29232b15202201e8d4e6c39d01b7f768cbd2562722bcd493e73524d563a60eef0bf749332875d01", "02284bcdf36bb5bddec758e95e5beeb9a4aacce7ca329c95fbde0566e92828e4d4"], "sequence": 4294967295, "scriptSig": {"hex": "1600141a2c719012d8bdba596d900507fedc8e41ce6738", "asm": "00141a2c719012d8bdba596d900507fedc8e41ce6738"}, "vout": 2, "txid": "8703b22469f0da30259aa0874f8886586ff05a1e734de8d7669b3913c16ecd83"}, {"txinwitness": ["3044022045d225c234ec67ec2a37cc2c94abe91636f9b3b93ddf86c34aa80d4e0ece2ccb022039be627ee7c1605352f6642d6e2f9a45fb4a6dc07909bcc356cecda15d0f7e2f01", "03f1cf988013a33e053d1e9bd54c4798c1a6dc362a5b2798b5344049fca40e2db0"], "sequence": 4294967294, "scriptSig": {"hex": "160014f6e1792e7852ebd5ae795c2a25d579acdfadec2d", "asm": "0014f6e1792e7852ebd5ae795c2a25d579acdfadec2d"}, "vout": 0, "txid": "8703b22469f0da30259aa0874f8886586ff05a1e734de8d7669b3913c16ecd83"}], "txid": "d6f80475f3bfec9d7f45b9a3113755c40103a23f114a40ae4af4a964fe476b0c", "blocktime": 1537872475, "version": 1, "confirmations": 11486, "time": 1537872475, "locktime": 0, "vsize": 288, "size": 450}