{"hash": "f63cbe1b0ea156fc8316e9c4fbda23cb2eede18585634c0e05c8306a895f0124", "blockhash": "0000000000000000001e0dab787dd257d1dbfcb92a98c2207d5e1078be1f4165", "vout": [{"scriptPubKey": {"reqSigs": 1, "hex": "a914b568c472ad39b262b96e4a09116879db3a7f452987", "addresses": ["3JEDjdVAXXhdSAxUbYcoNRkHpUpTqZCMHU"], "asm": "OP_HASH160 b568c472ad39b262b96e4a09116879db3a7f4529 OP_EQUAL", "type": "scripthash"}, "value": 1.7661755, "n": 0}, {"scriptPubKey": {"reqSigs": 1, "hex": "76a9140e513331d6cc8918d5229b0ab08ad260fdf295a788ac", "addresses": ["12JhjZRnWBLo3amCuEf77zxnHGiWpRFb2A"], "asm": "OP_DUP OP_HASH160 0e513331d6cc8918d5229b0ab08ad260fdf295a7 OP_EQUALVERIFY OP_CHECKSIG", "type": "pubkeyhash"}, "value": 1.34158764, "n": 1}], "hex": "02000000000101cc3ed79eb150517b89cf8a61957f8b22ad10e67d784f2de3ba981e4c61789a0b000000001716001433d361c3ddbcd4f5d05fadc25816198226a5ffbcfeffffff024ef8860a0000000017a914b568c472ad39b262b96e4a09116879db3a7f452987ac19ff07000000001976a9140e513331d6cc8918d5229b0ab08ad260fdf295a788ac024730440220517a04c22c5018f0fb91bb948f060d2166ad0538cdd002118fec60facfed230702204c1bb6b687822421dfdb8908d768b69d017b39414f876a05a7f708cb18560a9b0121028f59c1c167efa56d9f986556fe59c0ceb29974940b5e4b9878160e2f8a7cbb96e0480800", "vin": [{"txinwitness": ["30440220517a04c22c5018f0fb91bb948f060d2166ad0538cdd002118fec60facfed230702204c1bb6b687822421dfdb8908d768b69d017b39414f876a05a7f708cb18560a9b01", "028f59c1c167efa56d9f986556fe59c0ceb29974940b5e4b9878160e2f8a7cbb96"], "sequence": 4294967294, "scriptSig": {"hex": "16001433d361c3ddbcd4f5d05fadc25816198226a5ffbc", "asm": "001433d361c3ddbcd4f5d05fadc25816198226a5ffbc"}, "vout": 0, "txid": "0b9a78614c1e98bae32d4f787de610ad228b7f95618acf897b5150b19ed73ecc"}], "txid": "d6fa31f0f4a67e6ee65c40053c9e38283008cdd67f9cb3c3d95100d33e87d98e", "blocktime": 1537872475, "version": 2, "confirmations": 11486, "time": 1537872475, "locktime": 542944, "vsize": 168, "size": 249}