{"hash": "d7052116651005019b63c3fa96b38a13eca7de995cf9063724b604cbcc6807c3", "blockhash": "0000000000000000000e13cef7c366c0283d82e591d1acd082e914b08063cdf1", "vout": [{"scriptPubKey": {"reqSigs": 1, "hex": "a914c95b914a75ae2ef3fa7374a8e69dee4af12e2eb387", "addresses": ["3L3hSKs6PwTjrYC4kP9Yq4ETEADaeGBhsA"], "asm": "OP_HASH160 c95b914a75ae2ef3fa7374a8e69dee4af12e2eb3 OP_EQUAL", "type": "scripthash"}, "value": 0.006, "n": 0}, {"scriptPubKey": {"reqSigs": 1, "hex": "a914fb4f7827019918d20a406ceacd09cc0c74e5ce0c87", "addresses": ["3QbpjKX3j3bi2pq1HuXqG71mHJhHxMkwhM"], "asm": "OP_HASH160 fb4f7827019918d20a406ceacd09cc0c74e5ce0c OP_EQUAL", "type": "scripthash"}, "value": 0.60553331, "n": 1}], "hex": "0100000001481299f5c5cb85b6ba9d4af24d170c9a39bd86702066f635765d76e953b8fee001000000d90047304402200347dfb24dc9e2b0a79d1910fc339dc799d3723fd12fe01a3ec8328235c4a83802201ac1849b007dd8d052c32f8858ed9032ebb88649e1257a997cbd279655f7528201473044022050281b01fa4e2b859bb553bfe75a4959c11e4f9715414af9668f56ec760550c002206f9d6619fa186a1d82f163821cdcbdabdba1760a6bded826b846e31751620870014752210302b5f2eec8501ee1e401f361c40e48023c5f9a003f74b3244ed7b72af424dc572103de5f08502049d3422945e80d3671d7d3960115369953533e480243fd3d3d5b4f52aeffffffff02c02709000000000017a914c95b914a75ae2ef3fa7374a8e69dee4af12e2eb38773f89b030000000017a914fb4f7827019918d20a406ceacd09cc0c74e5ce0c8700000000", "vin": [{"sequence": 4294967295, "scriptSig": {"hex": "0047304402200347dfb24dc9e2b0a79d1910fc339dc799d3723fd12fe01a3ec8328235c4a83802201ac1849b007dd8d052c32f8858ed9032ebb88649e1257a997cbd279655f7528201473044022050281b01fa4e2b859bb553bfe75a4959c11e4f9715414af9668f56ec760550c002206f9d6619fa186a1d82f163821cdcbdabdba1760a6bded826b846e31751620870014752210302b5f2eec8501ee1e401f361c40e48023c5f9a003f74b3244ed7b72af424dc572103de5f08502049d3422945e80d3671d7d3960115369953533e480243fd3d3d5b4f52ae", "asm": "0 304402200347dfb24dc9e2b0a79d1910fc339dc799d3723fd12fe01a3ec8328235c4a83802201ac1849b007dd8d052c32f8858ed9032ebb88649e1257a997cbd279655f75282[ALL] 3044022050281b01fa4e2b859bb553bfe75a4959c11e4f9715414af9668f56ec760550c002206f9d6619fa186a1d82f163821cdcbdabdba1760a6bded826b846e31751620870[ALL] 52210302b5f2eec8501ee1e401f361c40e48023c5f9a003f74b3244ed7b72af424dc572103de5f08502049d3422945e80d3671d7d3960115369953533e480243fd3d3d5b4f52ae"}, "vout": 1, "txid": "e0feb853e9765d7635f666207086bd399a0c174df24a9dbab685cbc5f5991248"}], "txid": "d7052116651005019b63c3fa96b38a13eca7de995cf9063724b604cbcc6807c3", "blocktime": 1537871767, "version": 1, "confirmations": 11495, "time": 1537871767, "locktime": 0, "vsize": 332, "size": 332}