{"hash": "d7056e0c26a99837cc6d2da122609a0de471af21cb179ff0ae1fd2a2c47a599f", "blockhash": "00000000000000000004ffacab907a6b429b9a5745fa0b75af4234bf69dd7176", "vout": [{"scriptPubKey": {"reqSigs": 1, "hex": "76a9147a2035373ccdad28424b430563cf2806abfd0bfe88ac", "addresses": ["1C8k2FFKa5f6DxLYYm4zMcPVtGa6Y6MyXq"], "asm": "OP_DUP OP_HASH160 7a2035373ccdad28424b430563cf2806abfd0bfe OP_EQUALVERIFY OP_CHECKSIG", "type": "pubkeyhash"}, "value": 0.01055387, "n": 0}, {"scriptPubKey": {"reqSigs": 1, "hex": "a9147b7d595878b3a2d884c1a036246780d82a94e9c287", "addresses": ["3CwyCYJcEMLgFDf3CF2xXGHFy5nB6DaaJs"], "asm": "OP_HASH160 7b7d595878b3a2d884c1a036246780d82a94e9c2 OP_EQUAL", "type": "scripthash"}, "value": 0.04232638, "n": 1}], "hex": "0100000002263883237ea7e01f01735407ad068c0debe7b1d6eecf4a3eed99f8de13fe73c6010000006b483045022100e0ed98078bb6d5f1276f95180475b6c8cb196bc96acbc204a9d99baa149b23f60220384e585c5408e0e975b06063bb8538e21a025d17fa62dd53754436d542db72dc0121023e795468f39b24b1376d6fa5866291c3d78f009e49938abaac1ed13a6343d01cffffffff1f2d2caa29519caa08acc0c6c136340a0c16329ddfba0c4083abd08479515687010000006b483045022100d34291804bf56395c5bcd5ecc7c05681bd2f484903a45d9e68ed43ab36775ee802200d451e9d815045c919feecd89c98aaeb74dc3eae0ab9e6259f0a1f17802aa4cc012102ac6b065678064a954bdf3b9d4050758c21b68393fb82ca52e7a2673143689e77ffffffff029b1a1000000000001976a9147a2035373ccdad28424b430563cf2806abfd0bfe88acbe9540000000000017a9147b7d595878b3a2d884c1a036246780d82a94e9c28700000000", "vin": [{"sequence": 4294967295, "scriptSig": {"hex": "483045022100e0ed98078bb6d5f1276f95180475b6c8cb196bc96acbc204a9d99baa149b23f60220384e585c5408e0e975b06063bb8538e21a025d17fa62dd53754436d542db72dc0121023e795468f39b24b1376d6fa5866291c3d78f009e49938abaac1ed13a6343d01c", "asm": "3045022100e0ed98078bb6d5f1276f95180475b6c8cb196bc96acbc204a9d99baa149b23f60220384e585c5408e0e975b06063bb8538e21a025d17fa62dd53754436d542db72dc[ALL] 023e795468f39b24b1376d6fa5866291c3d78f009e49938abaac1ed13a6343d01c"}, "vout": 1, "txid": "c673fe13def899ed3e4acfeed6b1e7eb0d8c06ad075473011fe0a77e23833826"}, {"sequence": 4294967295, "scriptSig": {"hex": "483045022100d34291804bf56395c5bcd5ecc7c05681bd2f484903a45d9e68ed43ab36775ee802200d451e9d815045c919feecd89c98aaeb74dc3eae0ab9e6259f0a1f17802aa4cc012102ac6b065678064a954bdf3b9d4050758c21b68393fb82ca52e7a2673143689e77", "asm": "3045022100d34291804bf56395c5bcd5ecc7c05681bd2f484903a45d9e68ed43ab36775ee802200d451e9d815045c919feecd89c98aaeb74dc3eae0ab9e6259f0a1f17802aa4cc[ALL] 02ac6b065678064a954bdf3b9d4050758c21b68393fb82ca52e7a2673143689e77"}, "vout": 1, "txid": "8756517984d0ab83400cbadf9d32160c0a3436c1c6c0ac08aa9c5129aa2c2d1f"}], "txid": "d7056e0c26a99837cc6d2da122609a0de471af21cb179ff0ae1fd2a2c47a599f", "blocktime": 1537875543, "version": 1, "confirmations": 11464, "time": 1537875543, "locktime": 0, "vsize": 372, "size": 372}