{"hash": "d707507676bebd740650ac120d99515ca52e45d919a14ca29d2384f95be1477f", "blockhash": "0000000000000000001f76057863aec43deb6fa401d9628bb513d65a8098bfab", "vout": [{"scriptPubKey": {"reqSigs": 1, "hex": "76a91414a0f7a12e1174e72fd3364632984758d1fc1d7088ac", "addresses": ["12t5M3NbvBcU1evBq1KugC71V1fV154gme"], "asm": "OP_DUP OP_HASH160 14a0f7a12e1174e72fd3364632984758d1fc1d70 OP_EQUALVERIFY OP_CHECKSIG", "type": "pubkeyhash"}, "value": 0.015, "n": 0}, {"scriptPubKey": {"reqSigs": 1, "hex": "76a914b7c0a17f2a24e8e5769185f9099997ced4221ab188ac", "addresses": ["1HkbRLBvFJwbWyHtWwz3hmCnu4ro9FUped"], "asm": "OP_DUP OP_HASH160 b7c0a17f2a24e8e5769185f9099997ced4221ab1 OP_EQUALVERIFY OP_CHECKSIG", "type": "pubkeyhash"}, "value": 0.04517223, "n": 1}], "hex": "01000000012cd1d413447d32273fa1f53d2ffdca597bbb80443b5f0d52bd69d9bce2019da6010000006a473044022074072b39a22757a1b576dbcda941ef1764ce13338ea2f47d6f69c755889a27b102207364a398ecb8d5c6cd067da20e033eb8fbae54890d15c8731de004636897e083012103d2ad4fd03735e8110599016f8c1081f033e63ab105fcb18657471cd60c456b60ffffffff0260e31600000000001976a91414a0f7a12e1174e72fd3364632984758d1fc1d7088ac67ed4400000000001976a914b7c0a17f2a24e8e5769185f9099997ced4221ab188ac00000000", "vin": [{"sequence": 4294967295, "scriptSig": {"hex": "473044022074072b39a22757a1b576dbcda941ef1764ce13338ea2f47d6f69c755889a27b102207364a398ecb8d5c6cd067da20e033eb8fbae54890d15c8731de004636897e083012103d2ad4fd03735e8110599016f8c1081f033e63ab105fcb18657471cd60c456b60", "asm": "3044022074072b39a22757a1b576dbcda941ef1764ce13338ea2f47d6f69c755889a27b102207364a398ecb8d5c6cd067da20e033eb8fbae54890d15c8731de004636897e083[ALL] 03d2ad4fd03735e8110599016f8c1081f033e63ab105fcb18657471cd60c456b60"}, "vout": 1, "txid": "a69d01e2bcd969bd520d5f3b4480bb7b59cafd2f3df5a13f27327d4413d4d12c"}], "txid": "d707507676bebd740650ac120d99515ca52e45d919a14ca29d2384f95be1477f", "blocktime": 1537873891, "version": 1, "confirmations": 11478, "time": 1537873891, "locktime": 0, "vsize": 225, "size": 225}