{"hash": "d8ede30e85fd20a78c7dd42b2c64ca48cc816533a1eeba95b53c10af632f6eaf", "blockhash": "00000000000000000024a2167bbff67b0be802c0b01cdd79e6331c2be6459f87", "vout": [{"scriptPubKey": {"reqSigs": 1, "hex": "a914a178c8bf843b01a49f178a87aceea2ff118adcd687", "addresses": ["3GQoQfE447dfUCpanGrgcXjJmRt6QaMzqQ"], "asm": "OP_HASH160 a178c8bf843b01a49f178a87aceea2ff118adcd6 OP_EQUAL", "type": "scripthash"}, "value": 0.00825, "n": 0}, {"scriptPubKey": {"reqSigs": 1, "hex": "a9149649ad6d2730bb28020a268d9d80df10a9f74ad487", "addresses": ["3FPfYWwfMfKMGY7fuPHvz2b73RhTNGzsm3"], "asm": "OP_HASH160 9649ad6d2730bb28020a268d9d80df10a9f74ad4 OP_EQUAL", "type": "scripthash"}, "value": 13.94842071, "n": 1}], "hex": "01000000000101e77aa7b4a29cf42b7f816da6dfe9fea43e514b20a3c7f506fe70e7a1d6ade2a801000000232200207768efcc1e5eb3d28410fac3f45831004c860cc24cddd940a616b34324823fceffffffff02a8960c000000000017a914a178c8bf843b01a49f178a87aceea2ff118adcd687d79923530000000017a9149649ad6d2730bb28020a268d9d80df10a9f74ad48704004730440220777b46dcea404314f6d79a2a50fa552508b8ab16570e0c68e3b8f0bba46cc4f402200787df0f3d3c5b6ac8a2426dfe8aa3ed12a6ef509716bfc2a66c6699bcf55e5001483045022100ce98db5a1b33eae265ec156cd35e8be153fae15ef9a3bdb82872ae048b17f6c102201620025f9c874dfe81c7700106c257562bc75b776c7659d604f7ebe4a55b67c00147522102529d5d1f6733ab45d9d50e07db42c7f6b967ae321c38b726c2247f149959b8262103d0c936a5988dd8421c63240496b723b0ec42400c38b9350e32c2eb4f47d8796952ae00000000", "vin": [{"txinwitness": ["", "30440220777b46dcea404314f6d79a2a50fa552508b8ab16570e0c68e3b8f0bba46cc4f402200787df0f3d3c5b6ac8a2426dfe8aa3ed12a6ef509716bfc2a66c6699bcf55e5001", "3045022100ce98db5a1b33eae265ec156cd35e8be153fae15ef9a3bdb82872ae048b17f6c102201620025f9c874dfe81c7700106c257562bc75b776c7659d604f7ebe4a55b67c001", "522102529d5d1f6733ab45d9d50e07db42c7f6b967ae321c38b726c2247f149959b8262103d0c936a5988dd8421c63240496b723b0ec42400c38b9350e32c2eb4f47d8796952ae"], "sequence": 4294967295, "scriptSig": {"hex": "2200207768efcc1e5eb3d28410fac3f45831004c860cc24cddd940a616b34324823fce", "asm": "00207768efcc1e5eb3d28410fac3f45831004c860cc24cddd940a616b34324823fce"}, "vout": 1, "txid": "a8e2add6a1e770fe06f5c7a3204b513ea4fee9dfa66d817f2bf49ca2b4a77ae7"}], "txid": "d712f04ccbcb9186f60c8cd8da16f0d1274eb3c2d87aaf018d00dffa63bec0d4", "blocktime": 1537870564, "version": 1, "confirmations": 11515, "time": 1537870564, "locktime": 0, "vsize": 206, "size": 371}