{"hash": "d829192c9f3645542083a00b030eb6e0c86971b873e622ee8af72487e27c763d", "blockhash": "00000000000000000024a2167bbff67b0be802c0b01cdd79e6331c2be6459f87", "vout": [{"scriptPubKey": {"reqSigs": 1, "hex": "76a91474a298b8d9cea1e0836cf4c39f0548bb0133964b88ac", "addresses": ["1BdiAfHcYAKEmJVWoJN388pcAjBNVYYCwL"], "asm": "OP_DUP OP_HASH160 74a298b8d9cea1e0836cf4c39f0548bb0133964b OP_EQUALVERIFY OP_CHECKSIG", "type": "pubkeyhash"}, "value": 0.00204896, "n": 0}, {"scriptPubKey": {"reqSigs": 1, "hex": "00143033cd67f21f2af4e0b65a951f46e492b8d2bde6", "addresses": ["bc1qxqeu6eljru40fc9kt22373hyj2ud900x5auhf4"], "asm": "0 3033cd67f21f2af4e0b65a951f46e492b8d2bde6", "type": "witness_v0_keyhash"}, "value": 1.853e-05, "n": 1}], "hex": "010000000001018e8ae52b5b119712d2df6c25b1417e955d9db32ec8ee0bb868cf5654204b02a20000000000ffffffff0260200300000000001976a91474a298b8d9cea1e0836cf4c39f0548bb0133964b88ac3d070000000000001600143033cd67f21f2af4e0b65a951f46e492b8d2bde602483045022100805b06ee6da3a13f6faceda129f74d0270233eea2ef5c26524b46b432733561902205c840910e500280a73122058f06c5e9b144c8ab10574d4d11723dcf161bfffd9012102c5c75ca0b7011f3d21361865340bcb49d83eb130f1448d1b9dd93a50666f5bb400000000", "vin": [{"txinwitness": ["3045022100805b06ee6da3a13f6faceda129f74d0270233eea2ef5c26524b46b432733561902205c840910e500280a73122058f06c5e9b144c8ab10574d4d11723dcf161bfffd901", "02c5c75ca0b7011f3d21361865340bcb49d83eb130f1448d1b9dd93a50666f5bb4"], "sequence": 4294967295, "scriptSig": {"hex": "", "asm": ""}, "vout": 0, "txid": "a2024b205456cf68b80beec82eb39d5d957e41b1256cdfd21297115b2be58a8e"}], "txid": "d7162c8e80f4eb7f3c20d914cde494aa2b4385119f74410c6015e442c27cd077", "blocktime": 1537870564, "version": 1, "confirmations": 11515, "time": 1537870564, "locktime": 0, "vsize": 144, "size": 226}