{"hash": "8d85d12519e2e8d29938af13fc527c14274ec9bc6f6e048306184031d5eca0da", "blockhash": "0000000000000000000baef3f32e3676a92c3b2e5da21b426e4f302fc371ce76", "vout": [{"scriptPubKey": {"reqSigs": 1, "hex": "a914682411ba5ef4df5aaeb1ff0d36917ded1e7e925987", "addresses": ["3BBfQdU3eXZ1cXzPUzN1Y2zxuGVKE5rdfM"], "asm": "OP_HASH160 682411ba5ef4df5aaeb1ff0d36917ded1e7e9259 OP_EQUAL", "type": "scripthash"}, "value": 0.198, "n": 0}, {"scriptPubKey": {"reqSigs": 1, "hex": "a91439b0413c930a405f7b8f493843db8d332a41e59d87", "addresses": ["36x3asuDWxAKScD7hDVvm87kcEzc1Gnaxq"], "asm": "OP_HASH160 39b0413c930a405f7b8f493843db8d332a41e59d OP_EQUAL", "type": "scripthash"}, "value": 0.00295773, "n": 1}], "hex": "0100000000010241dd6066217d17ed49c4f3b5f2a2b0180c0c59d4ee84e9c7c2bb22c315aedb4b0400000017160014551bc79e4d66bc0d765084d0129fbcc3693273b0ffffff0097dcac7c5eb3c13a55a92d717d5dca2c2c46dc325e89d05e1094d87981b75d8e3000000017160014c8a79b6a868a4f41bb1aceeaa915d65434c3335dffffff0002c01f2e010000000017a914682411ba5ef4df5aaeb1ff0d36917ded1e7e9259875d8304000000000017a91439b0413c930a405f7b8f493843db8d332a41e59d870247304402200dbed77cc357431b746cb6007e34804e3822b2de4e9ece5a9452e59ac6f0d04602202784c1a556638fe9c949c1439f4789d5630931ac22cbbf4268292374d9868d630121020a5843eaa7e8532851e2db3caad08fe1262c7f1b336703e657af764c0eef6f520247304402206edcfdf739316dcd2b088cd407e4442e8c3475435d48771b3640f028a301e93902203075c5262e3557e2463ef2311623984c18e6bcd989cf47b57ce9833e7caa8773012102accd9c78388f3443a8af637d815161674ec8e2ea5b094954396289e8fca5dd7800000000", "vin": [{"txinwitness": ["304402200dbed77cc357431b746cb6007e34804e3822b2de4e9ece5a9452e59ac6f0d04602202784c1a556638fe9c949c1439f4789d5630931ac22cbbf4268292374d9868d6301", "020a5843eaa7e8532851e2db3caad08fe1262c7f1b336703e657af764c0eef6f52"], "sequence": 16777215, "scriptSig": {"hex": "160014551bc79e4d66bc0d765084d0129fbcc3693273b0", "asm": "0014551bc79e4d66bc0d765084d0129fbcc3693273b0"}, "vout": 4, "txid": "4bdbae15c322bbc2c7e984eed4590c0c18b0a2f2b5f3c449ed177d216660dd41"}, {"txinwitness": ["304402206edcfdf739316dcd2b088cd407e4442e8c3475435d48771b3640f028a301e93902203075c5262e3557e2463ef2311623984c18e6bcd989cf47b57ce9833e7caa877301", "02accd9c78388f3443a8af637d815161674ec8e2ea5b094954396289e8fca5dd78"], "sequence": 16777215, "scriptSig": {"hex": "160014c8a79b6a868a4f41bb1aceeaa915d65434c3335d", "asm": "0014c8a79b6a868a4f41bb1aceeaa915d65434c3335d"}, "vout": 48, "txid": "8e5db78179d894105ed0895e32dc462c2cca5d7d712da9553ac1b35e7cacdc97"}], "txid": "d719741c9c62b06aaa628cfb2fd62e92d6b73cfd06c199ad810545dcb44ce539", "blocktime": 1537876114, "version": 1, "confirmations": 11460, "time": 1537876114, "locktime": 0, "vsize": 256, "size": 418}