{"hash": "d71fb3938169fb776de8a36951adef6857158b48937f5bf5a99ebbb44ade939a", "blockhash": "0000000000000000001cda96e906b7601b7a6fb1a3b62bca570a9e5d8f4b3de1", "vout": [{"scriptPubKey": {"reqSigs": 1, "hex": "a914a0b62ee2121d0412b901b9496d96da8a4dcaf01587", "addresses": ["3GLnHYSZpyArDNgEevdexAtXjbpEnLRScm"], "asm": "OP_HASH160 a0b62ee2121d0412b901b9496d96da8a4dcaf015 OP_EQUAL", "type": "scripthash"}, "value": 0.00469, "n": 0}, {"scriptPubKey": {"reqSigs": 1, "hex": "76a914692f1f41c32a6d14a611195c34273e32e7d40f9988ac", "addresses": ["1AbAQF6913RRtHB9DjdDbGKPULgryAkhJS"], "asm": "OP_DUP OP_HASH160 692f1f41c32a6d14a611195c34273e32e7d40f99 OP_EQUALVERIFY OP_CHECKSIG", "type": "pubkeyhash"}, "value": 0.26647153, "n": 1}], "hex": "01000000012ef420e32890315339ae3e706b067478a131c158fbe2400564849acb686f76a2010000006a47304402202d34d7ee504718ad3b12671bce96477684fdceb1304e4bed0202dde6af86eb3502204ea808e3520840e20c2a472135ffecf154d414c9fbbb6452686dfe6ccaff297d012103c32363ce05acc70df6202929ee8570ec9e786f76393fa63caf703a16ffd7d9bfffffffff02082807000000000017a914a0b62ee2121d0412b901b9496d96da8a4dcaf01587719a9601000000001976a914692f1f41c32a6d14a611195c34273e32e7d40f9988ac00000000", "vin": [{"sequence": 4294967295, "scriptSig": {"hex": "47304402202d34d7ee504718ad3b12671bce96477684fdceb1304e4bed0202dde6af86eb3502204ea808e3520840e20c2a472135ffecf154d414c9fbbb6452686dfe6ccaff297d012103c32363ce05acc70df6202929ee8570ec9e786f76393fa63caf703a16ffd7d9bf", "asm": "304402202d34d7ee504718ad3b12671bce96477684fdceb1304e4bed0202dde6af86eb3502204ea808e3520840e20c2a472135ffecf154d414c9fbbb6452686dfe6ccaff297d[ALL] 03c32363ce05acc70df6202929ee8570ec9e786f76393fa63caf703a16ffd7d9bf"}, "vout": 1, "txid": "a2766f68cb9a84640540e2fb58c131a17874066b703eae3953319028e320f42e"}], "txid": "d71fb3938169fb776de8a36951adef6857158b48937f5bf5a99ebbb44ade939a", "blocktime": 1537873282, "version": 1, "confirmations": 11484, "time": 1537873282, "locktime": 0, "vsize": 223, "size": 223}