{"hash": "9f3a7e502d4d453dd8031ac87f335d859ebdd0488a5d3683ac9becc27d918d6c", "blockhash": "00000000000000000018f53835495a110e01622372bf6ae95dc86f2b0ab887b0", "vout": [{"scriptPubKey": {"reqSigs": 1, "hex": "a9143b699fd5e940be498093986e677ddf57e69eaf7887", "addresses": ["377AKmfBMNvBu9apKF4sVNfGhrJsnZKCnr"], "asm": "OP_HASH160 3b699fd5e940be498093986e677ddf57e69eaf78 OP_EQUAL", "type": "scripthash"}, "value": 0.0231164, "n": 0}, {"scriptPubKey": {"reqSigs": 1, "hex": "76a914776b878b416e3129310d3878d5e2941dc740b4a888ac", "addresses": ["1BtSE7AXX5RuRRcnbhiM3qBwMhEYwxqBsm"], "asm": "OP_DUP OP_HASH160 776b878b416e3129310d3878d5e2941dc740b4a8 OP_EQUALVERIFY OP_CHECKSIG", "type": "pubkeyhash"}, "value": 0.00285, "n": 1}], "hex": "02000000000101ed15c45163d4bec8d67b607f8e7c1a761ed3864678119a1b90450ea3a610be7100000000171600140aaab7ef4126624ad14821ea86d7f35eaf03ac90fdffffff02d84523000000000017a9143b699fd5e940be498093986e677ddf57e69eaf788748590400000000001976a914776b878b416e3129310d3878d5e2941dc740b4a888ac02473044022052dc65e47fb8b002a4529d3f497525428a75e4f75bfb0c872b726c46c58f0b1702202b22ae0393dcdba49d41bf234898768022e27a346623d16b4e4834867c297eee012103691c724e7a4bc20c2c1366b65c5daec8d7a01a3deb020cf593d68d46fb4e14010e490800", "vin": [{"txinwitness": ["3044022052dc65e47fb8b002a4529d3f497525428a75e4f75bfb0c872b726c46c58f0b1702202b22ae0393dcdba49d41bf234898768022e27a346623d16b4e4834867c297eee01", "03691c724e7a4bc20c2c1366b65c5daec8d7a01a3deb020cf593d68d46fb4e1401"], "sequence": 4294967293, "scriptSig": {"hex": "1600140aaab7ef4126624ad14821ea86d7f35eaf03ac90", "asm": "00140aaab7ef4126624ad14821ea86d7f35eaf03ac90"}, "vout": 0, "txid": "71be10a6a30e45901b9a11784686d31e761a7c8e7f607bd6c8bed46351c415ed"}], "txid": "d725e8dc98ff13e93dfc061a586e94f975911b2de2f7df0248a33992edcdd14b", "blocktime": 1537870928, "version": 2, "confirmations": 11512, "time": 1537870928, "locktime": 542990, "vsize": 168, "size": 249}