{"hash": "d72fa301a2794fcf06a67d304bd8b2ec1dabbb2c704f13db8c22dadaa88984d2", "blockhash": "0000000000000000001cda96e906b7601b7a6fb1a3b62bca570a9e5d8f4b3de1", "vout": [{"scriptPubKey": {"type": "nulldata", "hex": "6a4c50000077d100018db13301a1b9b350ec67fd425b23cc0f42c2fc38c5e5bf9ae76da98a211a3cc616770e89ddbb7fc9a7f4c6f763565baa14480613be1a3ec7129e4bbf23acfcfaac8058b692fe6808c31d", "asm": "OP_RETURN 000077d100018db13301a1b9b350ec67fd425b23cc0f42c2fc38c5e5bf9ae76da98a211a3cc616770e89ddbb7fc9a7f4c6f763565baa14480613be1a3ec7129e4bbf23acfcfaac8058b692fe6808c31d"}, "value": 0.0, "n": 0}, {"scriptPubKey": {"reqSigs": 1, "hex": "76a914960aacc8a4a06aeddeb4e892a4d8d965998e308988ac", "addresses": ["1EgM9UxyyoS39KsfKor9iMKW7JnxdgT72a"], "asm": "OP_DUP OP_HASH160 960aacc8a4a06aeddeb4e892a4d8d965998e3089 OP_EQUALVERIFY OP_CHECKSIG", "type": "pubkeyhash"}, "value": 0.00012575, "n": 1}], "hex": "0100000001a8be100af85157c649cf0549a175b2530821f1ff959ec1f57cf8c366fa84bc50010000006a473044022009968c2804311bf589936bd7a94ea782a3870f169192069c115d02ce1b7458b602201a14c6f96b6df13dfa73223499c13985b9ee1bfe1979cf690c579d74d55832350121022d3f1c78b25f3dfea7451eb5cf927dd770c5f5f3dba01e5828994b5716536b9bffffffff020000000000000000536a4c50000077d100018db13301a1b9b350ec67fd425b23cc0f42c2fc38c5e5bf9ae76da98a211a3cc616770e89ddbb7fc9a7f4c6f763565baa14480613be1a3ec7129e4bbf23acfcfaac8058b692fe6808c31d1f310000000000001976a914960aacc8a4a06aeddeb4e892a4d8d965998e308988ac00000000", "vin": [{"sequence": 4294967295, "scriptSig": {"hex": "473044022009968c2804311bf589936bd7a94ea782a3870f169192069c115d02ce1b7458b602201a14c6f96b6df13dfa73223499c13985b9ee1bfe1979cf690c579d74d55832350121022d3f1c78b25f3dfea7451eb5cf927dd770c5f5f3dba01e5828994b5716536b9b", "asm": "3044022009968c2804311bf589936bd7a94ea782a3870f169192069c115d02ce1b7458b602201a14c6f96b6df13dfa73223499c13985b9ee1bfe1979cf690c579d74d5583235[ALL] 022d3f1c78b25f3dfea7451eb5cf927dd770c5f5f3dba01e5828994b5716536b9b"}, "vout": 1, "txid": "50bc84fa66c3f87cf5c19e95fff1210853b275a14905cf49c65751f80a10bea8"}], "txid": "d72fa301a2794fcf06a67d304bd8b2ec1dabbb2c704f13db8c22dadaa88984d2", "blocktime": 1537873282, "version": 1, "confirmations": 11484, "time": 1537873282, "locktime": 0, "vsize": 283, "size": 283}