{"hash": "5e12e4a09ea0cb74853b98244b9309eba2ddadb6f951914f09274c521d9b1975", "blockhash": "0000000000000000000baef3f32e3676a92c3b2e5da21b426e4f302fc371ce76", "vout": [{"scriptPubKey": {"reqSigs": 1, "hex": "76a9145907bea5e4fdd7d44f465757c1362576864201b688ac", "addresses": ["197kRBki5YuogXj1pTcWVTyqvhuWMBotjP"], "asm": "OP_DUP OP_HASH160 5907bea5e4fdd7d44f465757c1362576864201b6 OP_EQUALVERIFY OP_CHECKSIG", "type": "pubkeyhash"}, "value": 0.52141463, "n": 0}, {"scriptPubKey": {"reqSigs": 1, "hex": "a914b4fccb591c199a0fdf2a852e45178e952949dc6987", "addresses": ["3JBzPXkrtqWoBu9xSjfcZ1ncpXeMhG1YTT"], "asm": "OP_HASH160 b4fccb591c199a0fdf2a852e45178e952949dc69 OP_EQUAL", "type": "scripthash"}, "value": 0.0998, "n": 1}, {"scriptPubKey": {"reqSigs": 1, "hex": "a914581b9960d2d7ff6d0cc4a60a2f120f2c8f76977f87", "addresses": ["39itT3drhADmb48cFm1Wf8Bdk1hcrU9mjE"], "asm": "OP_HASH160 581b9960d2d7ff6d0cc4a60a2f120f2c8f76977f OP_EQUAL", "type": "scripthash"}, "value": 0.00079009, "n": 2}, {"scriptPubKey": {"reqSigs": 1, "hex": "a91407e4021ca440e9c34ed07f5584e5976eaf16893187", "addresses": ["32QjoBFHrPpDwcvPTadEyYaPseQWzL8Fq9"], "asm": "OP_HASH160 07e4021ca440e9c34ed07f5584e5976eaf168931 OP_EQUAL", "type": "scripthash"}, "value": 191.95054825, "n": 3}], "hex": "01000000000106ef7d22270cec2821bd6f9fe31da6195c5b3b71bb31eb8ec538f6d2d23f1a874d0300000017160014d2572ef28983608a85d7b554620025ee5fc17d87ffffffff901f64a00bc92a3d5e58e8854c1b53358092991f85e10db6925f40f0daa24d4b0200000017160014000b814f2c1a19852357ed615a08ec572a781ed1ffffffff1d59fea8848e05babaa53bd07aeadba9c7c5712bcba17f61ae83ead9e442107f0100000017160014d2572ef28983608a85d7b554620025ee5fc17d87ffffffff11323ee3c1a5cb24d206a2521c7fb24c876874f6c3b8861e631af47ec6eb16460100000017160014d2572ef28983608a85d7b554620025ee5fc17d87ffffffff99a2f5d40a63aaef4330b5bcfe521c441f9074588515bde39052750d9704cd7c0200000017160014000b814f2c1a19852357ed615a08ec572a781ed1ffffffffc59ce433facc11135040d5f851f02d3bbcf6b760cf23a1dc785c99cb81a8206f0200000017160014d2572ef28983608a85d7b554620025ee5fc17d87ffffffff04979d1b03000000001976a9145907bea5e4fdd7d44f465757c1362576864201b688ac604898000000000017a914b4fccb591c199a0fdf2a852e45178e952949dc6987a13401000000000017a914581b9960d2d7ff6d0cc4a60a2f120f2c8f76977f87e94a1d780400000017a91407e4021ca440e9c34ed07f5584e5976eaf168931870247304402207eb3959874b53b9ed9d88bd18f715fdf25c1bbddc8904f7fc92b92132077a7f1022050805f85b67ca030e55048b04d1a82cf08f4d8d0399472e2ef5ca911680243ab01210242a32d9879c8ca9018c72e5b8fbd2f4305c71ebaaa1a3e8f634038b136f0f1fc02483045022100aabe5bbcf8fdf6c63495c753f18a57fc5b1ec69a55ec8f5af875dc94fe5607e50220799486a8f93722bce4ad5322d98a354c5ffd791bc24008b59619dbfd020a57f3012102aad79950b2c2af3689e8644c89e9d10dff06c2d8926200496b92e9f7ccb0304c0248304502210080f39a3a559ee701799bbe3e2526541dae3c706e072822e8d37aab764e8a182302206b9588860d479cae1f1752df247c4653986ade688ed169f2a67857af1b1a263801210242a32d9879c8ca9018c72e5b8fbd2f4305c71ebaaa1a3e8f634038b136f0f1fc02483045022100d7feca25a740fb91aa14ee376031ee681d3ca93d0b212b21dd38993ad1591c3302204cd75f09229edb815dd0d6478abe6fe1439876bec4aa4cb32e4ba7f31bf7ed8501210242a32d9879c8ca9018c72e5b8fbd2f4305c71ebaaa1a3e8f634038b136f0f1fc02473044022002c06c3a34c28f3f2b6c5fb060cba90ea8e5d82bcfd67bf63f5222683dadcf37022046354be43a060fb46d1e39eb10db2d251a58eb36e7f94d5fd69890ad84ee67df012102aad79950b2c2af3689e8644c89e9d10dff06c2d8926200496b92e9f7ccb0304c024730440220662e4ab30522f4cc39dc20db5afc92c5e30eea433a8cc1e8a18d2b0e4b86256f022074a49f34c77d15baede3bbda8627a09d94e76eeb70539e6cb4d5a3137177005501210242a32d9879c8ca9018c72e5b8fbd2f4305c71ebaaa1a3e8f634038b136f0f1fc00000000", "vin": [{"txinwitness": ["304402207eb3959874b53b9ed9d88bd18f715fdf25c1bbddc8904f7fc92b92132077a7f1022050805f85b67ca030e55048b04d1a82cf08f4d8d0399472e2ef5ca911680243ab01", "0242a32d9879c8ca9018c72e5b8fbd2f4305c71ebaaa1a3e8f634038b136f0f1fc"], "sequence": 4294967295, "scriptSig": {"hex": "160014d2572ef28983608a85d7b554620025ee5fc17d87", "asm": "0014d2572ef28983608a85d7b554620025ee5fc17d87"}, "vout": 3, "txid": "4d871a3fd2d2f638c58eeb31bb713b5b5c19a61de39f6fbd2128ec0c27227def"}, {"txinwitness": ["3045022100aabe5bbcf8fdf6c63495c753f18a57fc5b1ec69a55ec8f5af875dc94fe5607e50220799486a8f93722bce4ad5322d98a354c5ffd791bc24008b59619dbfd020a57f301", "02aad79950b2c2af3689e8644c89e9d10dff06c2d8926200496b92e9f7ccb0304c"], "sequence": 4294967295, "scriptSig": {"hex": "160014000b814f2c1a19852357ed615a08ec572a781ed1", "asm": "0014000b814f2c1a19852357ed615a08ec572a781ed1"}, "vout": 2, "txid": "4b4da2daf0405f92b60de1851f99928035531b4c85e8585e3d2ac90ba0641f90"}, {"txinwitness": ["304502210080f39a3a559ee701799bbe3e2526541dae3c706e072822e8d37aab764e8a182302206b9588860d479cae1f1752df247c4653986ade688ed169f2a67857af1b1a263801", "0242a32d9879c8ca9018c72e5b8fbd2f4305c71ebaaa1a3e8f634038b136f0f1fc"], "sequence": 4294967295, "scriptSig": {"hex": "160014d2572ef28983608a85d7b554620025ee5fc17d87", "asm": "0014d2572ef28983608a85d7b554620025ee5fc17d87"}, "vout": 1, "txid": "7f1042e4d9ea83ae617fa1cb2b71c5c7a9dbea7ad03ba5baba058e84a8fe591d"}, {"txinwitness": ["3045022100d7feca25a740fb91aa14ee376031ee681d3ca93d0b212b21dd38993ad1591c3302204cd75f09229edb815dd0d6478abe6fe1439876bec4aa4cb32e4ba7f31bf7ed8501", "0242a32d9879c8ca9018c72e5b8fbd2f4305c71ebaaa1a3e8f634038b136f0f1fc"], "sequence": 4294967295, "scriptSig": {"hex": "160014d2572ef28983608a85d7b554620025ee5fc17d87", "asm": "0014d2572ef28983608a85d7b554620025ee5fc17d87"}, "vout": 1, "txid": "4616ebc67ef41a631e86b8c3f67468874cb27f1c52a206d224cba5c1e33e3211"}, {"txinwitness": ["3044022002c06c3a34c28f3f2b6c5fb060cba90ea8e5d82bcfd67bf63f5222683dadcf37022046354be43a060fb46d1e39eb10db2d251a58eb36e7f94d5fd69890ad84ee67df01", "02aad79950b2c2af3689e8644c89e9d10dff06c2d8926200496b92e9f7ccb0304c"], "sequence": 4294967295, "scriptSig": {"hex": "160014000b814f2c1a19852357ed615a08ec572a781ed1", "asm": "0014000b814f2c1a19852357ed615a08ec572a781ed1"}, "vout": 2, "txid": "7ccd04970d755290e3bd15855874901f441c52febcb53043efaa630ad4f5a299"}, {"txinwitness": ["30440220662e4ab30522f4cc39dc20db5afc92c5e30eea433a8cc1e8a18d2b0e4b86256f022074a49f34c77d15baede3bbda8627a09d94e76eeb70539e6cb4d5a3137177005501", "0242a32d9879c8ca9018c72e5b8fbd2f4305c71ebaaa1a3e8f634038b136f0f1fc"], "sequence": 4294967295, "scriptSig": {"hex": "160014d2572ef28983608a85d7b554620025ee5fc17d87", "asm": "0014d2572ef28983608a85d7b554620025ee5fc17d87"}, "vout": 2, "txid": "6f20a881cb995c78dca123cf60b7f6bc3b2df051f8d540501311ccfa33e49cc5"}], "txid": "d733bfe65b7ea56d4ff3413ac36fc119d479b42c3eb4d80bbe3417d1c86b163d", "blocktime": 1537876114, "version": 1, "confirmations": 11460, "time": 1537876114, "locktime": 0, "vsize": 686, "size": 1171}