{"hash": "d7365b3ac74316dc8c37061f3c6dc827cafc402ab2ce40c9b3bc6e3ff60fa898", "blockhash": "00000000000000000018f53835495a110e01622372bf6ae95dc86f2b0ab887b0", "vout": [{"scriptPubKey": {"reqSigs": 1, "hex": "a9146747fa7248e3d5ffd9c7cee346c21077476b4cda87", "addresses": ["3B77kSdTNbtZzTymbSUnuXJNLvidxzTUVK"], "asm": "OP_HASH160 6747fa7248e3d5ffd9c7cee346c21077476b4cda OP_EQUAL", "type": "scripthash"}, "value": 0.01, "n": 0}, {"scriptPubKey": {"reqSigs": 1, "hex": "76a91404607585722760691867b42d43701905736be47d88ac", "addresses": ["1Q9FrvpM2xVKAJwqwFhjJTeaE1eouHrD8"], "asm": "OP_DUP OP_HASH160 04607585722760691867b42d43701905736be47d OP_EQUALVERIFY OP_CHECKSIG", "type": "pubkeyhash"}, "value": 0.0242453, "n": 1}], "hex": "0100000001335294cfcf2f1ed82c6a9874e8d677bf67abda11dae51246a7d24c81505f33e9010000006b4830450221008c2dc82cf44aea01c19bb520a3b102c0f02525251529855316ab6eb155b948b202202f9e83fc59549dbd3a20fe7c8615971fc1657d9fddfa938c9af14adbef0c6a10012103629aa3df53cad290078bbad26491f1e11f9c01697c65db0967561f6f142c993cffffffff0240420f000000000017a9146747fa7248e3d5ffd9c7cee346c21077476b4cda87d2fe2400000000001976a91404607585722760691867b42d43701905736be47d88ac00000000", "vin": [{"sequence": 4294967295, "scriptSig": {"hex": "4830450221008c2dc82cf44aea01c19bb520a3b102c0f02525251529855316ab6eb155b948b202202f9e83fc59549dbd3a20fe7c8615971fc1657d9fddfa938c9af14adbef0c6a10012103629aa3df53cad290078bbad26491f1e11f9c01697c65db0967561f6f142c993c", "asm": "30450221008c2dc82cf44aea01c19bb520a3b102c0f02525251529855316ab6eb155b948b202202f9e83fc59549dbd3a20fe7c8615971fc1657d9fddfa938c9af14adbef0c6a10[ALL] 03629aa3df53cad290078bbad26491f1e11f9c01697c65db0967561f6f142c993c"}, "vout": 1, "txid": "e9335f50814cd2a74612e5da11daab67bf77d6e874986a2cd81e2fcfcf945233"}], "txid": "d7365b3ac74316dc8c37061f3c6dc827cafc402ab2ce40c9b3bc6e3ff60fa898", "blocktime": 1537870928, "version": 1, "confirmations": 11512, "time": 1537870928, "locktime": 0, "vsize": 224, "size": 224}