{"hash": "d74250a4a85f88bf329c8af0b15a9a136f7590bb010ccd7ad036751d49a2925f", "blockhash": "00000000000000000018f53835495a110e01622372bf6ae95dc86f2b0ab887b0", "vout": [{"scriptPubKey": {"reqSigs": 1, "hex": "76a91405bc39a60fb0edfba94d535f671a7de27960df6e88ac", "addresses": ["1XKs5L5nc6yHcBxyptBApDZAtCXAr57ZZ"], "asm": "OP_DUP OP_HASH160 05bc39a60fb0edfba94d535f671a7de27960df6e OP_EQUALVERIFY OP_CHECKSIG", "type": "pubkeyhash"}, "value": 0.00055837, "n": 0}, {"scriptPubKey": {"reqSigs": 1, "hex": "76a91460123db37300abe3c0b0a5fe8790ddf866dabae788ac", "addresses": ["19kyipnqJFg18HpcdAuQ1Bg2Hapy7yXvXo"], "asm": "OP_DUP OP_HASH160 60123db37300abe3c0b0a5fe8790ddf866dabae7 OP_EQUALVERIFY OP_CHECKSIG", "type": "pubkeyhash"}, "value": 0.01014729, "n": 1}], "hex": "0100000002dbc656464adf2010501974b47e753764a1825f646398338818c452ae3383545b000000006a47304402204648535daab835aa280a2ad1504298efc91ce6c4c4eb7fda032fe6eb649199d00220675b69f71ce72f15f0f259758c6ffdacdd9102af8a6a2450ebb3d98a3084c42b01210235117387a35dcc5024ea837e0d0b859470c6725dba887126ec5dbb077783df9dffffffffc0b37117a24bae353542d1e20c0e0d9d5279940ebaab12be1ff4f9a278c619e7040000006b483045022100b48f3cc07cb1aa6efdc6243996204135a9d25c75c40ea79b8c8b7e2c43dbee39022061e065031b235fcf758cb17f014b49de537e459b2a71b7bd6806320344980a8b01210364d2f471689413dc1de4306c60efe31270a3b7159ab4cde1398fde72cea4e37fffffffff021dda0000000000001976a91405bc39a60fb0edfba94d535f671a7de27960df6e88acc97b0f00000000001976a91460123db37300abe3c0b0a5fe8790ddf866dabae788ac00000000", "vin": [{"sequence": 4294967295, "scriptSig": {"hex": "47304402204648535daab835aa280a2ad1504298efc91ce6c4c4eb7fda032fe6eb649199d00220675b69f71ce72f15f0f259758c6ffdacdd9102af8a6a2450ebb3d98a3084c42b01210235117387a35dcc5024ea837e0d0b859470c6725dba887126ec5dbb077783df9d", "asm": "304402204648535daab835aa280a2ad1504298efc91ce6c4c4eb7fda032fe6eb649199d00220675b69f71ce72f15f0f259758c6ffdacdd9102af8a6a2450ebb3d98a3084c42b[ALL] 0235117387a35dcc5024ea837e0d0b859470c6725dba887126ec5dbb077783df9d"}, "vout": 0, "txid": "5b548333ae52c41888339863645f82a16437757eb47419501020df4a4656c6db"}, {"sequence": 4294967295, "scriptSig": {"hex": "483045022100b48f3cc07cb1aa6efdc6243996204135a9d25c75c40ea79b8c8b7e2c43dbee39022061e065031b235fcf758cb17f014b49de537e459b2a71b7bd6806320344980a8b01210364d2f471689413dc1de4306c60efe31270a3b7159ab4cde1398fde72cea4e37f", "asm": "3045022100b48f3cc07cb1aa6efdc6243996204135a9d25c75c40ea79b8c8b7e2c43dbee39022061e065031b235fcf758cb17f014b49de537e459b2a71b7bd6806320344980a8b[ALL] 0364d2f471689413dc1de4306c60efe31270a3b7159ab4cde1398fde72cea4e37f"}, "vout": 4, "txid": "e719c678a2f9f41fbe12abba0e9479529d0d0e0ce2d1423535ae4ba21771b3c0"}], "txid": "d74250a4a85f88bf329c8af0b15a9a136f7590bb010ccd7ad036751d49a2925f", "blocktime": 1537870928, "version": 1, "confirmations": 11514, "time": 1537870928, "locktime": 0, "vsize": 373, "size": 373}