{"hash": "d7439ac3d62b1b3de1473e7289e9f780204abf08f74fafaf9e6a6f79f479b955", "blockhash": "0000000000000000001cda96e906b7601b7a6fb1a3b62bca570a9e5d8f4b3de1", "vout": [{"scriptPubKey": {"reqSigs": 1, "hex": "76a914f987e8049c25f99a91989e0ca2fd45b0c28f0cc988ac", "addresses": ["1PkQ4hk4vTk28jYm9df4hhZfyiJqkRgw8Q"], "asm": "OP_DUP OP_HASH160 f987e8049c25f99a91989e0ca2fd45b0c28f0cc9 OP_EQUALVERIFY OP_CHECKSIG", "type": "pubkeyhash"}, "value": 0.03619774, "n": 0}, {"scriptPubKey": {"reqSigs": 1, "hex": "76a914ae8abd1711e7a7acb7ccda329fc9ef0b0b4345e588ac", "addresses": ["1Gutn7FQ6kkHvLwkuMaCAEkAaQ5WvMCyYa"], "asm": "OP_DUP OP_HASH160 ae8abd1711e7a7acb7ccda329fc9ef0b0b4345e5 OP_EQUALVERIFY OP_CHECKSIG", "type": "pubkeyhash"}, "value": 0.2638, "n": 1}], "hex": "0100000001a301ae0d3c5cce845149ec72a020ab70127f7530dd1ad9ba1cae0716b55e9b40000000006a473044022017cfdcf3f6ef134bd0c4a53ffa95fffa15e666198a6b5214000e5a9d09f791ba022006f5b302d0be4eda9f39c5ed1b8109adbe759a9cbe94a71b90f10199b953dd9901210269e3051697f2263a91bed85f9317b2ae910f287fddee06a9507305baa88db4a6feffffff02be3b3700000000001976a914f987e8049c25f99a91989e0ca2fd45b0c28f0cc988ace0869201000000001976a914ae8abd1711e7a7acb7ccda329fc9ef0b0b4345e588ac13490800", "vin": [{"sequence": 4294967294, "scriptSig": {"hex": "473044022017cfdcf3f6ef134bd0c4a53ffa95fffa15e666198a6b5214000e5a9d09f791ba022006f5b302d0be4eda9f39c5ed1b8109adbe759a9cbe94a71b90f10199b953dd9901210269e3051697f2263a91bed85f9317b2ae910f287fddee06a9507305baa88db4a6", "asm": "3044022017cfdcf3f6ef134bd0c4a53ffa95fffa15e666198a6b5214000e5a9d09f791ba022006f5b302d0be4eda9f39c5ed1b8109adbe759a9cbe94a71b90f10199b953dd99[ALL] 0269e3051697f2263a91bed85f9317b2ae910f287fddee06a9507305baa88db4a6"}, "vout": 0, "txid": "409b5eb51607ae1cbad91add30757f1270ab20a072ec495184ce5c3c0dae01a3"}], "txid": "d7439ac3d62b1b3de1473e7289e9f780204abf08f74fafaf9e6a6f79f479b955", "blocktime": 1537873282, "version": 1, "confirmations": 11485, "time": 1537873282, "locktime": 542995, "vsize": 225, "size": 225}