{"hash": "d74e3a69757df41c6c53e69aab43351bac0341f9bb760312b88f3d4c9003a5bb", "blockhash": "0000000000000000000e13cef7c366c0283d82e591d1acd082e914b08063cdf1", "vout": [{"scriptPubKey": {"reqSigs": 1, "hex": "76a9148d5466dfd0c217b7d4599454dae461f8a405b02388ac", "addresses": ["1DtHPPiQq2egvbgVUcBmsgFjYVpy7vRYbr"], "asm": "OP_DUP OP_HASH160 8d5466dfd0c217b7d4599454dae461f8a405b023 OP_EQUALVERIFY OP_CHECKSIG", "type": "pubkeyhash"}, "value": 0.00156294, "n": 0}, {"scriptPubKey": {"reqSigs": 1, "hex": "76a914272f3661643eb04c5c25dcd75185cfc10dc2e35588ac", "addresses": ["14aBurmbm3THYReuLo4a7RVVMjdc78CiZW"], "asm": "OP_DUP OP_HASH160 272f3661643eb04c5c25dcd75185cfc10dc2e355 OP_EQUALVERIFY OP_CHECKSIG", "type": "pubkeyhash"}, "value": 0.03890199, "n": 1}], "hex": "010000000198ae1b54887eefa3cb142c2e777817d2fba16a06a04b535e7f199d75eeb457c8010000006a4730440220065fe4a0f8eb6adb8fd40affb6e34a2a82ba56fc6424d842fb6a2ee933038e060220171d7800fd6b79f99eeab367d675abca7eda2c072b82eac1c28c9892f15cbf6a0121039b5c7fac7acd94bf55e550227a5cd76764800b73eac77c013f97aafceb53647bffffffff0286620200000000001976a9148d5466dfd0c217b7d4599454dae461f8a405b02388ac175c3b00000000001976a914272f3661643eb04c5c25dcd75185cfc10dc2e35588ac00000000", "vin": [{"sequence": 4294967295, "scriptSig": {"hex": "4730440220065fe4a0f8eb6adb8fd40affb6e34a2a82ba56fc6424d842fb6a2ee933038e060220171d7800fd6b79f99eeab367d675abca7eda2c072b82eac1c28c9892f15cbf6a0121039b5c7fac7acd94bf55e550227a5cd76764800b73eac77c013f97aafceb53647b", "asm": "30440220065fe4a0f8eb6adb8fd40affb6e34a2a82ba56fc6424d842fb6a2ee933038e060220171d7800fd6b79f99eeab367d675abca7eda2c072b82eac1c28c9892f15cbf6a[ALL] 039b5c7fac7acd94bf55e550227a5cd76764800b73eac77c013f97aafceb53647b"}, "vout": 1, "txid": "c857b4ee759d197f5e534ba0066aa1fbd21778772e2c14cba3ef7e88541bae98"}], "txid": "d74e3a69757df41c6c53e69aab43351bac0341f9bb760312b88f3d4c9003a5bb", "blocktime": 1537871767, "version": 1, "confirmations": 11495, "time": 1537871767, "locktime": 0, "vsize": 225, "size": 225}