{"hash": "d750478193a35520efd8b8faf7b35e7e30b4c1305e21b183ec6370375eb63e63", "blockhash": "0000000000000000001f0ddff1eddb255c1121bcd4da4f1bc9a0da00cae72433", "vout": [{"scriptPubKey": {"reqSigs": 1, "hex": "76a9146ab2815026f52dc72f5fe7cab04ac69b7dfe427e88ac", "addresses": ["1AjAU66VusX2kanPfvUdePdR7wem6gVhYF"], "asm": "OP_DUP OP_HASH160 6ab2815026f52dc72f5fe7cab04ac69b7dfe427e OP_EQUALVERIFY OP_CHECKSIG", "type": "pubkeyhash"}, "value": 0.01, "n": 0}, {"scriptPubKey": {"reqSigs": 1, "hex": "76a9148778a7530b4ea76b8409cc7cdec93a49cfd07bad88ac", "addresses": ["1DMJm4JcN2JfrQ8XT6PJYjttc5LFuE6xAH"], "asm": "OP_DUP OP_HASH160 8778a7530b4ea76b8409cc7cdec93a49cfd07bad OP_EQUALVERIFY OP_CHECKSIG", "type": "pubkeyhash"}, "value": 0.00020247, "n": 1}], "hex": "0100000001b66b2a03c97a84c7830396b64e24ea7231b238661c7b3ddc93db26f0547fa240010000006a47304402200c197fe3e93683b7f824ae9e7446b9692c77402d28b80dad515dab5cc11873f802202ee104ec35267c679856df908e6b5cc1c66ef3bfec7f44e9c2f8590035748922012103a78dbc07f18897ce6b4d77dcba0ae50a90279617849ad29b4b7e4ad6661e7fefffffffff0240420f00000000001976a9146ab2815026f52dc72f5fe7cab04ac69b7dfe427e88ac174f0000000000001976a9148778a7530b4ea76b8409cc7cdec93a49cfd07bad88ac00000000", "vin": [{"sequence": 4294967295, "scriptSig": {"hex": "47304402200c197fe3e93683b7f824ae9e7446b9692c77402d28b80dad515dab5cc11873f802202ee104ec35267c679856df908e6b5cc1c66ef3bfec7f44e9c2f8590035748922012103a78dbc07f18897ce6b4d77dcba0ae50a90279617849ad29b4b7e4ad6661e7fef", "asm": "304402200c197fe3e93683b7f824ae9e7446b9692c77402d28b80dad515dab5cc11873f802202ee104ec35267c679856df908e6b5cc1c66ef3bfec7f44e9c2f8590035748922[ALL] 03a78dbc07f18897ce6b4d77dcba0ae50a90279617849ad29b4b7e4ad6661e7fef"}, "vout": 1, "txid": "40a27f54f026db93dc3d7b1c6638b23172ea244eb6960383c7847ac9032a6bb6"}], "txid": "d750478193a35520efd8b8faf7b35e7e30b4c1305e21b183ec6370375eb63e63", "blocktime": 1537872018, "version": 1, "confirmations": 11489, "time": 1537872018, "locktime": 0, "vsize": 225, "size": 225}