{"hash": "d7546dd34302435829403bcbfe681b39ad36a38616f8a96705da6d506c589ac4", "blockhash": "0000000000000000000dcc0f55137456b1a82d3642486a52398922ac4d620174", "vout": [{"scriptPubKey": {"reqSigs": 1, "hex": "76a9148bb39e62dfc86366429b8ae0a0e431e4a945f8fa88ac", "addresses": ["1Djg6nqLfgr2zigvdsGhths65z5ja62vVk"], "asm": "OP_DUP OP_HASH160 8bb39e62dfc86366429b8ae0a0e431e4a945f8fa OP_EQUALVERIFY OP_CHECKSIG", "type": "pubkeyhash"}, "value": 0.00046146, "n": 0}, {"scriptPubKey": {"reqSigs": 1, "hex": "76a914c69435470456cabaa09c7f61d6afc2334d6206e188ac", "addresses": ["1K6zLfSaUQLfV4CUSnDgJZ5BmVC4kfi9zr"], "asm": "OP_DUP OP_HASH160 c69435470456cabaa09c7f61d6afc2334d6206e1 OP_EQUALVERIFY OP_CHECKSIG", "type": "pubkeyhash"}, "value": 0.0155, "n": 1}], "hex": "0100000003c7c80927446845a4db500b12692b9ce1abc9ee28c9767ef85fc4d679f89ede1f000000006a47304402201af3eff8e2b2c50ba2a30ac8f0a28d38c504d9d522f4ea01c626af09dc9f5200022045dc7386c66a2d89d02c3d3712193922bd15fbe00b9b7e2bde7dc3493bffd790012102a2cf58464043693b699483464aee0f4be02b10d1cfeb6dd0b7db69f8c9087f14ffffffff869ca776999f93408dc45df1fc6c0931bc2601c34f50304e07f40e4e1dffbe46000000006b483045022100974813f8e11885d53b46c75f07ff96616b7eda64bfc59b1eae9995e22755a96502204a7ffed8b667f4dba30f7d124e1b74bb9ebe49d1aacc17cf577c67b9584d639c012103bff52a8ded966221be99422f4261711d5df69fad4a21e9c5a10e7dc65fa702dfffffffff170631380a96ecbb1e30cf0293d753390c67c26548edd1ce17f143fe81cd9589000000006b483045022100a4b737f0b1af183ffacd6984e3e0435332ad9695bb3ac1ee2e80213f5f7080a5022047de11a95ff7c6f2913e5e77fb478eda452db0e74c00faa848e21d9edff455c201210330a5ec8c955ecaf68c945107276acdf777c547285ab0839887d94bdfaa090ab9ffffffff0242b40000000000001976a9148bb39e62dfc86366429b8ae0a0e431e4a945f8fa88acb0a61700000000001976a914c69435470456cabaa09c7f61d6afc2334d6206e188ac00000000", "vin": [{"sequence": 4294967295, "scriptSig": {"hex": "47304402201af3eff8e2b2c50ba2a30ac8f0a28d38c504d9d522f4ea01c626af09dc9f5200022045dc7386c66a2d89d02c3d3712193922bd15fbe00b9b7e2bde7dc3493bffd790012102a2cf58464043693b699483464aee0f4be02b10d1cfeb6dd0b7db69f8c9087f14", "asm": "304402201af3eff8e2b2c50ba2a30ac8f0a28d38c504d9d522f4ea01c626af09dc9f5200022045dc7386c66a2d89d02c3d3712193922bd15fbe00b9b7e2bde7dc3493bffd790[ALL] 02a2cf58464043693b699483464aee0f4be02b10d1cfeb6dd0b7db69f8c9087f14"}, "vout": 0, "txid": "1fde9ef879d6c45ff87e76c928eec9abe19c2b69120b50dba44568442709c8c7"}, {"sequence": 4294967295, "scriptSig": {"hex": "483045022100974813f8e11885d53b46c75f07ff96616b7eda64bfc59b1eae9995e22755a96502204a7ffed8b667f4dba30f7d124e1b74bb9ebe49d1aacc17cf577c67b9584d639c012103bff52a8ded966221be99422f4261711d5df69fad4a21e9c5a10e7dc65fa702df", "asm": "3045022100974813f8e11885d53b46c75f07ff96616b7eda64bfc59b1eae9995e22755a96502204a7ffed8b667f4dba30f7d124e1b74bb9ebe49d1aacc17cf577c67b9584d639c[ALL] 03bff52a8ded966221be99422f4261711d5df69fad4a21e9c5a10e7dc65fa702df"}, "vout": 0, "txid": "46beff1d4e0ef4074e30504fc30126bc31096cfcf15dc48d40939f9976a79c86"}, {"sequence": 4294967295, "scriptSig": {"hex": "483045022100a4b737f0b1af183ffacd6984e3e0435332ad9695bb3ac1ee2e80213f5f7080a5022047de11a95ff7c6f2913e5e77fb478eda452db0e74c00faa848e21d9edff455c201210330a5ec8c955ecaf68c945107276acdf777c547285ab0839887d94bdfaa090ab9", "asm": "3045022100a4b737f0b1af183ffacd6984e3e0435332ad9695bb3ac1ee2e80213f5f7080a5022047de11a95ff7c6f2913e5e77fb478eda452db0e74c00faa848e21d9edff455c2[ALL] 0330a5ec8c955ecaf68c945107276acdf777c547285ab0839887d94bdfaa090ab9"}, "vout": 0, "txid": "8995cd81fe43f117ced1ed4865c2670c3953d79302cf301ebbec960a38310617"}], "txid": "d7546dd34302435829403bcbfe681b39ad36a38616f8a96705da6d506c589ac4", "blocktime": 1537870268, "version": 1, "confirmations": 11518, "time": 1537870268, "locktime": 0, "vsize": 521, "size": 521}