{"hash": "d7541eec23be6929eb0d2aeff629c6b6bf767f7845c5902bb13138f8e7dabbeb", "blockhash": "0000000000000000000baef3f32e3676a92c3b2e5da21b426e4f302fc371ce76", "vout": [{"scriptPubKey": {"reqSigs": 1, "hex": "76a91498d4f0a2ab0e877f64c21df99e2657905c53dd1b88ac", "addresses": ["1Ew6oVHA18DYWmRBf1zrpVHsUyegTQpgCF"], "asm": "OP_DUP OP_HASH160 98d4f0a2ab0e877f64c21df99e2657905c53dd1b OP_EQUALVERIFY OP_CHECKSIG", "type": "pubkeyhash"}, "value": 0.0003, "n": 0}, {"scriptPubKey": {"reqSigs": 1, "hex": "76a914d4560a6651f7a9a6b19b13043695e3065990d3ba88ac", "addresses": ["1LMjKsmpwmeAexvdTqtvwUPtNfMVWtjiKQ"], "asm": "OP_DUP OP_HASH160 d4560a6651f7a9a6b19b13043695e3065990d3ba OP_EQUALVERIFY OP_CHECKSIG", "type": "pubkeyhash"}, "value": 0.00430737, "n": 1}], "hex": "0100000001cf173265e0eaece1dfcb2e8deb0217d932d3b74f5182c6a2b4ee5415b94b4b15010000006a473044022005563adc91b0fdcce40f1f043510e11a2ee06564bcf6a50db5fee9db6f488353022053e53f1561f5fab0fe60dfe5c7eef4c8095f3a4ad406b53cec5977db5a26ad9a01210313504819f4cc3e09a668d2adae9c92053b8cc0b4130e4a57f549861d7297e5ebffffffff0230750000000000001976a91498d4f0a2ab0e877f64c21df99e2657905c53dd1b88ac91920600000000001976a914d4560a6651f7a9a6b19b13043695e3065990d3ba88ac00000000", "vin": [{"sequence": 4294967295, "scriptSig": {"hex": "473044022005563adc91b0fdcce40f1f043510e11a2ee06564bcf6a50db5fee9db6f488353022053e53f1561f5fab0fe60dfe5c7eef4c8095f3a4ad406b53cec5977db5a26ad9a01210313504819f4cc3e09a668d2adae9c92053b8cc0b4130e4a57f549861d7297e5eb", "asm": "3044022005563adc91b0fdcce40f1f043510e11a2ee06564bcf6a50db5fee9db6f488353022053e53f1561f5fab0fe60dfe5c7eef4c8095f3a4ad406b53cec5977db5a26ad9a[ALL] 0313504819f4cc3e09a668d2adae9c92053b8cc0b4130e4a57f549861d7297e5eb"}, "vout": 1, "txid": "154b4bb91554eeb4a2c682514fb7d332d91702eb8d2ecbdfe1eceae0653217cf"}], "txid": "d7541eec23be6929eb0d2aeff629c6b6bf767f7845c5902bb13138f8e7dabbeb", "blocktime": 1537876114, "version": 1, "confirmations": 11460, "time": 1537876114, "locktime": 0, "vsize": 225, "size": 225}