{"hash": "db29feaa14c6a635fdcacc4cb79426e8f73573e57f919acd361e4fde2d3ec712", "blockhash": "0000000000000000001f76057863aec43deb6fa401d9628bb513d65a8098bfab", "vout": [{"scriptPubKey": {"reqSigs": 1, "hex": "a914e236135aca6a0349788f1011d61fe39ec473276d87", "addresses": ["3NK7R8rfiQJh1zUEubGqbDZAxAxZ1KabLj"], "asm": "OP_HASH160 e236135aca6a0349788f1011d61fe39ec473276d OP_EQUAL", "type": "scripthash"}, "value": 0.27325936, "n": 0}, {"scriptPubKey": {"reqSigs": 1, "hex": "a9142e7c364c4b258bb3fb435d810d4642a9fd0d4b1d87", "addresses": ["35voomxyYjgPeQn2ikQndWGADqWREDU34R"], "asm": "OP_HASH160 2e7c364c4b258bb3fb435d810d4642a9fd0d4b1d OP_EQUAL", "type": "scripthash"}, "value": 8.56288548, "n": 1}], "hex": "0200000000010122e8669ef43ff133523fcc7d9d77d8dc580807020c700d4c580afbadc798a6f5010000001716001450206b7235b7decd72ceddc9ebf17f39a8e38f13feffffff02f0f5a0010000000017a914e236135aca6a0349788f1011d61fe39ec473276d8724ed09330000000017a9142e7c364c4b258bb3fb435d810d4642a9fd0d4b1d8702483045022100f7d3fb9e2c9fe7ee6bc61c06a3fe9f11657697dba75b93f6a5d5b5456a93dce60220642672839db3520c8c7a81c64a8f003bb703b4e3191647a04357521598107ee201210383eb9620c27f3ffa0416173472795d8252b2998163d7b43c277a6cfc86963e3e14490800", "vin": [{"txinwitness": ["3045022100f7d3fb9e2c9fe7ee6bc61c06a3fe9f11657697dba75b93f6a5d5b5456a93dce60220642672839db3520c8c7a81c64a8f003bb703b4e3191647a04357521598107ee201", "0383eb9620c27f3ffa0416173472795d8252b2998163d7b43c277a6cfc86963e3e"], "sequence": 4294967294, "scriptSig": {"hex": "16001450206b7235b7decd72ceddc9ebf17f39a8e38f13", "asm": "001450206b7235b7decd72ceddc9ebf17f39a8e38f13"}, "vout": 1, "txid": "f5a698c7adfb0a584c0d700c02070858dcd8779d7dcc3f5233f13ff49e66e822"}], "txid": "d756a43981d08bb7c006377d946d8029bc0774a63dc5febaac0de11fa61ab853", "blocktime": 1537873891, "version": 2, "confirmations": 11479, "time": 1537873891, "locktime": 542996, "vsize": 166, "size": 248}