{"hash": "d762fddd4d14fde299aff086141481fd8365c5fcf50d944a50c3d11e39952ba9", "blockhash": "00000000000000000004ffacab907a6b429b9a5745fa0b75af4234bf69dd7176", "vout": [{"scriptPubKey": {"reqSigs": 1, "hex": "76a91489e39a814e7ed8e0d99751271b23007ef3959a9288ac", "addresses": ["1Da6ETCPAv1id8dSb3V55wpdgPMcmeNWyP"], "asm": "OP_DUP OP_HASH160 89e39a814e7ed8e0d99751271b23007ef3959a92 OP_EQUALVERIFY OP_CHECKSIG", "type": "pubkeyhash"}, "value": 0.0118818, "n": 0}, {"scriptPubKey": {"reqSigs": 1, "hex": "76a91474ffcd7a4663fab0309165cfc000cc436c8a4fcf88ac", "addresses": ["1BfdpjStVwWw9YpRe5WGtM6EwXkmdbsE52"], "asm": "OP_DUP OP_HASH160 74ffcd7a4663fab0309165cfc000cc436c8a4fcf OP_EQUALVERIFY OP_CHECKSIG", "type": "pubkeyhash"}, "value": 0.03128, "n": 1}], "hex": "01000000011933ce2584b0668fa912f0c4d718c039b01faba19e9f289c82ce62f785d4eaac010000006b483045022100ade77b429b3d00a79815725b7f23418961ed8ad9bcfcf4d03b76a19ed8596fa902201c84adb3a871df810690ae46a3471c8db50fdd57ec06fcd02f6cdecdfd8d8dc0012102293ca834636e9dc6ac7e4addd7561daff3eed259f52f8c5d1d5be847c972d1cfffffffff0254211200000000001976a91489e39a814e7ed8e0d99751271b23007ef3959a9288acc0ba2f00000000001976a91474ffcd7a4663fab0309165cfc000cc436c8a4fcf88ac00000000", "vin": [{"sequence": 4294967295, "scriptSig": {"hex": "483045022100ade77b429b3d00a79815725b7f23418961ed8ad9bcfcf4d03b76a19ed8596fa902201c84adb3a871df810690ae46a3471c8db50fdd57ec06fcd02f6cdecdfd8d8dc0012102293ca834636e9dc6ac7e4addd7561daff3eed259f52f8c5d1d5be847c972d1cf", "asm": "3045022100ade77b429b3d00a79815725b7f23418961ed8ad9bcfcf4d03b76a19ed8596fa902201c84adb3a871df810690ae46a3471c8db50fdd57ec06fcd02f6cdecdfd8d8dc0[ALL] 02293ca834636e9dc6ac7e4addd7561daff3eed259f52f8c5d1d5be847c972d1cf"}, "vout": 1, "txid": "acead485f762ce829c289f9ea1ab1fb039c018d7c4f012a98f66b08425ce3319"}], "txid": "d762fddd4d14fde299aff086141481fd8365c5fcf50d944a50c3d11e39952ba9", "blocktime": 1537875543, "version": 1, "confirmations": 11464, "time": 1537875543, "locktime": 0, "vsize": 226, "size": 226}