{"hash": "d76237f528b93a4ce75f542cc613cec0b70ff10e9bb460358df4a177ea58c175", "blockhash": "00000000000000000024a2167bbff67b0be802c0b01cdd79e6331c2be6459f87", "vout": [{"scriptPubKey": {"reqSigs": 1, "hex": "76a9142a5cf31090b817e2b6aff4ed8d78475e0262162c88ac", "addresses": ["14rzjJN7URaNqwqdrRAGbCPTvHKfPQvKyR"], "asm": "OP_DUP OP_HASH160 2a5cf31090b817e2b6aff4ed8d78475e0262162c OP_EQUALVERIFY OP_CHECKSIG", "type": "pubkeyhash"}, "value": 0.01283026, "n": 0}, {"scriptPubKey": {"reqSigs": 1, "hex": "76a9148d9215bfda9ab618013b70ec512e297b9552899a88ac", "addresses": ["1DuZHD7xV4XBScViCgUGApZkUHE3pkkT6k"], "asm": "OP_DUP OP_HASH160 8d9215bfda9ab618013b70ec512e297b9552899a OP_EQUALVERIFY OP_CHECKSIG", "type": "pubkeyhash"}, "value": 0.02289401, "n": 1}], "hex": "01000000015590d44c6cdea7aa3026d66058c1ff1ac25b35fc1086b546b35809ed3043544f000000006a47304402200d8cbd934525ce30b514329676eebd563f2488c4728dd196ae7c0d99616ec91c022025308478ad2c9c2d721f783796a2bb49fa8576c3e9a150b784b8d4165be5bfad01210219d80927915f9b6a3603497e8ec67af42c959db6763c959e556e318349cc63fdffffffff02d2931300000000001976a9142a5cf31090b817e2b6aff4ed8d78475e0262162c88acf9ee2200000000001976a9148d9215bfda9ab618013b70ec512e297b9552899a88ac00000000", "vin": [{"sequence": 4294967295, "scriptSig": {"hex": "47304402200d8cbd934525ce30b514329676eebd563f2488c4728dd196ae7c0d99616ec91c022025308478ad2c9c2d721f783796a2bb49fa8576c3e9a150b784b8d4165be5bfad01210219d80927915f9b6a3603497e8ec67af42c959db6763c959e556e318349cc63fd", "asm": "304402200d8cbd934525ce30b514329676eebd563f2488c4728dd196ae7c0d99616ec91c022025308478ad2c9c2d721f783796a2bb49fa8576c3e9a150b784b8d4165be5bfad[ALL] 0219d80927915f9b6a3603497e8ec67af42c959db6763c959e556e318349cc63fd"}, "vout": 0, "txid": "4f544330ed0958b346b58610fc355bc21affc15860d62630aaa7de6c4cd49055"}], "txid": "d76237f528b93a4ce75f542cc613cec0b70ff10e9bb460358df4a177ea58c175", "blocktime": 1537870564, "version": 1, "confirmations": 11515, "time": 1537870564, "locktime": 0, "vsize": 225, "size": 225}