{"hash": "d770a6cd3cdc70f78faff9574c49130cf9d0b5026bd27c14249612877a138790", "blockhash": "0000000000000000000e13cef7c366c0283d82e591d1acd082e914b08063cdf1", "vout": [{"scriptPubKey": {"reqSigs": 1, "hex": "76a914d243e6abb9a60fbff430b421d2df4b7d59ec186088ac", "addresses": ["1LAnF8h3qMGx3TSwNUHVneBZUEpwE4gu3D"], "asm": "OP_DUP OP_HASH160 d243e6abb9a60fbff430b421d2df4b7d59ec1860 OP_EQUALVERIFY OP_CHECKSIG", "type": "pubkeyhash"}, "value": 0.00076972, "n": 0}, {"scriptPubKey": {"reqSigs": 1, "hex": "76a9143851f34d13937b673a7d24a1950bb5b21ce94af388ac", "addresses": ["168o1kqNquEJeR9vosUB5fw4eAwcVAgh8P"], "asm": "OP_DUP OP_HASH160 3851f34d13937b673a7d24a1950bb5b21ce94af3 OP_EQUALVERIFY OP_CHECKSIG", "type": "pubkeyhash"}, "value": 5.46e-06, "n": 1}, {"scriptPubKey": {"type": "nulldata", "hex": "6a146f6d6e69000000000000001f00000012006004c0", "asm": "OP_RETURN 6f6d6e69000000000000001f00000012006004c0"}, "value": 0.0, "n": 2}], "hex": "0100000002830a4e0e2bf18a1bcf0a186887300798fa3b61fc42200b91b450a29ab82dd477020000006b4830450221009d2438128ac9896f6f80ea9b4e6fb1beb6b41e7972f942485fddb61a51fbefa1022005c12e498d102c8fca93c303272a76b273d97a067964815c098b81cf7dc32e4901210345484b9ff3d0c39b86fa9b4affe3297b2cfca1174ed2384a93a601b6013bd2cfffffffff8728b1f46336b613757871b3cc4bbd4cd42f9ecfa064ae338be9c8a48a33c455000000006b483045022100aba1b49c6608976ee0b42d6264b24ebaca322731bbae459020f8eeeb0062e02202204343202c74cfe84a8fe2dc01d77b859fb7eb53327383e4a972b8eaace4208a1201210271977291b74f1f5f5c42157e8aae804664eaaeccfd097918450d37f28fb94d77ffffffff03ac2c0100000000001976a914d243e6abb9a60fbff430b421d2df4b7d59ec186088ac22020000000000001976a9143851f34d13937b673a7d24a1950bb5b21ce94af388ac0000000000000000166a146f6d6e69000000000000001f00000012006004c000000000", "vin": [{"sequence": 4294967295, "scriptSig": {"hex": "4830450221009d2438128ac9896f6f80ea9b4e6fb1beb6b41e7972f942485fddb61a51fbefa1022005c12e498d102c8fca93c303272a76b273d97a067964815c098b81cf7dc32e4901210345484b9ff3d0c39b86fa9b4affe3297b2cfca1174ed2384a93a601b6013bd2cf", "asm": "30450221009d2438128ac9896f6f80ea9b4e6fb1beb6b41e7972f942485fddb61a51fbefa1022005c12e498d102c8fca93c303272a76b273d97a067964815c098b81cf7dc32e49[ALL] 0345484b9ff3d0c39b86fa9b4affe3297b2cfca1174ed2384a93a601b6013bd2cf"}, "vout": 2, "txid": "77d42db89aa250b4910b2042fc613bfa9807308768180acf1b8af12b0e4e0a83"}, {"sequence": 4294967295, "scriptSig": {"hex": "483045022100aba1b49c6608976ee0b42d6264b24ebaca322731bbae459020f8eeeb0062e02202204343202c74cfe84a8fe2dc01d77b859fb7eb53327383e4a972b8eaace4208a1201210271977291b74f1f5f5c42157e8aae804664eaaeccfd097918450d37f28fb94d77", "asm": "3045022100aba1b49c6608976ee0b42d6264b24ebaca322731bbae459020f8eeeb0062e02202204343202c74cfe84a8fe2dc01d77b859fb7eb53327383e4a972b8eaace4208a12[ALL] 0271977291b74f1f5f5c42157e8aae804664eaaeccfd097918450d37f28fb94d77"}, "vout": 0, "txid": "55c4338aa4c8e98b33ae64a0cf9e2fd44cbd4bccb371787513b63663f4b12887"}], "txid": "d770a6cd3cdc70f78faff9574c49130cf9d0b5026bd27c14249612877a138790", "blocktime": 1537871767, "version": 1, "confirmations": 11491, "time": 1537871767, "locktime": 0, "vsize": 405, "size": 405}