{"hash": "d77817ab39a4d3dbfd018405680a36bb3761c7aeea724358e4a6d3f10e0200e5", "blockhash": "0000000000000000001f76057863aec43deb6fa401d9628bb513d65a8098bfab", "vout": [{"scriptPubKey": {"reqSigs": 1, "hex": "76a91401ec916971c6cd358d4c95fc35cee65b1073f00f88ac", "addresses": ["1BB5E6DKQLXv1szFb3dVLhG6fAGvNgLpF"], "asm": "OP_DUP OP_HASH160 01ec916971c6cd358d4c95fc35cee65b1073f00f OP_EQUALVERIFY OP_CHECKSIG", "type": "pubkeyhash"}, "value": 0.00321226, "n": 0}, {"scriptPubKey": {"reqSigs": 1, "hex": "a914b5ac243cd52757cdbcacc98c911267368fd671fc87", "addresses": ["3JFcSsQU929qKTo2gUv8WmrjciAQceMoj7"], "asm": "OP_HASH160 b5ac243cd52757cdbcacc98c911267368fd671fc OP_EQUAL", "type": "scripthash"}, "value": 0.08076754, "n": 1}], "hex": "01000000062a021cb881201ec62c5fc6fe602079e925fef49221fcce8a46a39f54e5bb2e29290000008b483045022100b77d235c4e5724e268cc51541b10de94b5ae9e95f3ec9ca53da85c95b5d6ba9602200b99c1af46e5779ff4c936146d946b0719f2c1cc6ca15c44bc45d136add4e9a40141045850300eab307c0aac465cfbbdc54a99c9b4684134b187e01b8933de5c629076ebd335a06ed917d0759ccf960f36a2d0cc2145ca605b4d53820edfc5e05d857afdffffffe968e01f121b35ff6a5aaff8da25d8e61c4d0ebc70ccb172badfc6828d1c942f320000008b483045022100c245f592d3410b8d4c33d510784da243557910685f78bbacb79d88f06bf6cca3022068a7bfa62a4216b7ea6d70341e8fd0d897bd7f4c214d71bd09dd5719635d00e60141045850300eab307c0aac465cfbbdc54a99c9b4684134b187e01b8933de5c629076ebd335a06ed917d0759ccf960f36a2d0cc2145ca605b4d53820edfc5e05d857afdffffff00aa48170616e025ae267e7adbac6f6da4dda30eb380393937211aab8f164c4e2e0000008b4830450221008808a02d3c801a87e216cf5f0375599617acda53ebbf30593bbef7f71643d1e6022042dfe5e01c5318c94062a1d20d303d38311c526544a8d764dd195b4f4d031aee0141045850300eab307c0aac465cfbbdc54a99c9b4684134b187e01b8933de5c629076ebd335a06ed917d0759ccf960f36a2d0cc2145ca605b4d53820edfc5e05d857afdffffffc4106fbb428b46531392ce3f18cb0f50ced5af06f0124b697124f85b4433cb55360000008b483045022100bd934a48909b6c83a096cfb16b224fa88be1df57929761c8acb73a6190d56a11022028bf5dfc5c4e8f80372dc836fe4a568b9de8f8176b0099e758ee570de75e08e60141045850300eab307c0aac465cfbbdc54a99c9b4684134b187e01b8933de5c629076ebd335a06ed917d0759ccf960f36a2d0cc2145ca605b4d53820edfc5e05d857afdffffffc99aa2ee188d20aafa807bd87ba7586ea8f34b328e07a37bf9c9e6c969b01c8d2f0000008b483045022100f79f4a2e65149613352055389aa8ed8dc60682576fdbfb42737011d1a1267a38022039d849970d2e8d1cc41278a762120e556d9281b4213a13c5d8d71263719ec75d0141045850300eab307c0aac465cfbbdc54a99c9b4684134b187e01b8933de5c629076ebd335a06ed917d0759ccf960f36a2d0cc2145ca605b4d53820edfc5e05d857afdffffffd98161182b372c1351ce79c356851cbb26cf74f4f304467351b937b1fd5ee5b0300000008b483045022100f130e90a707cddb272a5a1f9b24028168ce68e35ca394597be990f673615c16d02207cccd502ee185ef61b798ac44e9dcc1143e19eb8ea2899a80bfa05586d0151210141045850300eab307c0aac465cfbbdc54a99c9b4684134b187e01b8933de5c629076ebd335a06ed917d0759ccf960f36a2d0cc2145ca605b4d53820edfc5e05d857afdffffff02cae60400000000001976a91401ec916971c6cd358d4c95fc35cee65b1073f00f88acd23d7b000000000017a914b5ac243cd52757cdbcacc98c911267368fd671fc8714490800", "vin": [{"sequence": 4294967293, "scriptSig": {"hex": "483045022100b77d235c4e5724e268cc51541b10de94b5ae9e95f3ec9ca53da85c95b5d6ba9602200b99c1af46e5779ff4c936146d946b0719f2c1cc6ca15c44bc45d136add4e9a40141045850300eab307c0aac465cfbbdc54a99c9b4684134b187e01b8933de5c629076ebd335a06ed917d0759ccf960f36a2d0cc2145ca605b4d53820edfc5e05d857a", "asm": "3045022100b77d235c4e5724e268cc51541b10de94b5ae9e95f3ec9ca53da85c95b5d6ba9602200b99c1af46e5779ff4c936146d946b0719f2c1cc6ca15c44bc45d136add4e9a4[ALL] 045850300eab307c0aac465cfbbdc54a99c9b4684134b187e01b8933de5c629076ebd335a06ed917d0759ccf960f36a2d0cc2145ca605b4d53820edfc5e05d857a"}, "vout": 41, "txid": "292ebbe5549fa3468acefc2192f4fe25e9792060fec65f2cc61e2081b81c022a"}, {"sequence": 4294967293, "scriptSig": {"hex": "483045022100c245f592d3410b8d4c33d510784da243557910685f78bbacb79d88f06bf6cca3022068a7bfa62a4216b7ea6d70341e8fd0d897bd7f4c214d71bd09dd5719635d00e60141045850300eab307c0aac465cfbbdc54a99c9b4684134b187e01b8933de5c629076ebd335a06ed917d0759ccf960f36a2d0cc2145ca605b4d53820edfc5e05d857a", "asm": "3045022100c245f592d3410b8d4c33d510784da243557910685f78bbacb79d88f06bf6cca3022068a7bfa62a4216b7ea6d70341e8fd0d897bd7f4c214d71bd09dd5719635d00e6[ALL] 045850300eab307c0aac465cfbbdc54a99c9b4684134b187e01b8933de5c629076ebd335a06ed917d0759ccf960f36a2d0cc2145ca605b4d53820edfc5e05d857a"}, "vout": 50, "txid": "2f941c8d82c6dfba72b1cc70bc0e4d1ce6d825daf8af5a6aff351b121fe068e9"}, {"sequence": 4294967293, "scriptSig": {"hex": "4830450221008808a02d3c801a87e216cf5f0375599617acda53ebbf30593bbef7f71643d1e6022042dfe5e01c5318c94062a1d20d303d38311c526544a8d764dd195b4f4d031aee0141045850300eab307c0aac465cfbbdc54a99c9b4684134b187e01b8933de5c629076ebd335a06ed917d0759ccf960f36a2d0cc2145ca605b4d53820edfc5e05d857a", "asm": "30450221008808a02d3c801a87e216cf5f0375599617acda53ebbf30593bbef7f71643d1e6022042dfe5e01c5318c94062a1d20d303d38311c526544a8d764dd195b4f4d031aee[ALL] 045850300eab307c0aac465cfbbdc54a99c9b4684134b187e01b8933de5c629076ebd335a06ed917d0759ccf960f36a2d0cc2145ca605b4d53820edfc5e05d857a"}, "vout": 46, "txid": "4e4c168fab1a2137393980b30ea3dda46d6facdb7a7e26ae25e016061748aa00"}, {"sequence": 4294967293, "scriptSig": {"hex": "483045022100bd934a48909b6c83a096cfb16b224fa88be1df57929761c8acb73a6190d56a11022028bf5dfc5c4e8f80372dc836fe4a568b9de8f8176b0099e758ee570de75e08e60141045850300eab307c0aac465cfbbdc54a99c9b4684134b187e01b8933de5c629076ebd335a06ed917d0759ccf960f36a2d0cc2145ca605b4d53820edfc5e05d857a", "asm": "3045022100bd934a48909b6c83a096cfb16b224fa88be1df57929761c8acb73a6190d56a11022028bf5dfc5c4e8f80372dc836fe4a568b9de8f8176b0099e758ee570de75e08e6[ALL] 045850300eab307c0aac465cfbbdc54a99c9b4684134b187e01b8933de5c629076ebd335a06ed917d0759ccf960f36a2d0cc2145ca605b4d53820edfc5e05d857a"}, "vout": 54, "txid": "55cb33445bf82471694b12f006afd5ce500fcb183fce921353468b42bb6f10c4"}, {"sequence": 4294967293, "scriptSig": {"hex": "483045022100f79f4a2e65149613352055389aa8ed8dc60682576fdbfb42737011d1a1267a38022039d849970d2e8d1cc41278a762120e556d9281b4213a13c5d8d71263719ec75d0141045850300eab307c0aac465cfbbdc54a99c9b4684134b187e01b8933de5c629076ebd335a06ed917d0759ccf960f36a2d0cc2145ca605b4d53820edfc5e05d857a", "asm": "3045022100f79f4a2e65149613352055389aa8ed8dc60682576fdbfb42737011d1a1267a38022039d849970d2e8d1cc41278a762120e556d9281b4213a13c5d8d71263719ec75d[ALL] 045850300eab307c0aac465cfbbdc54a99c9b4684134b187e01b8933de5c629076ebd335a06ed917d0759ccf960f36a2d0cc2145ca605b4d53820edfc5e05d857a"}, "vout": 47, "txid": "8d1cb069c9e6c9f97ba3078e324bf3a86e58a77bd87b80faaa208d18eea29ac9"}, {"sequence": 4294967293, "scriptSig": {"hex": "483045022100f130e90a707cddb272a5a1f9b24028168ce68e35ca394597be990f673615c16d02207cccd502ee185ef61b798ac44e9dcc1143e19eb8ea2899a80bfa05586d0151210141045850300eab307c0aac465cfbbdc54a99c9b4684134b187e01b8933de5c629076ebd335a06ed917d0759ccf960f36a2d0cc2145ca605b4d53820edfc5e05d857a", "asm": "3045022100f130e90a707cddb272a5a1f9b24028168ce68e35ca394597be990f673615c16d02207cccd502ee185ef61b798ac44e9dcc1143e19eb8ea2899a80bfa05586d015121[ALL] 045850300eab307c0aac465cfbbdc54a99c9b4684134b187e01b8933de5c629076ebd335a06ed917d0759ccf960f36a2d0cc2145ca605b4d53820edfc5e05d857a"}, "vout": 48, "txid": "b0e55efdb137b951734604f3f474cf26bb1c8556c379ce51132c372b186181d9"}], "txid": "d77817ab39a4d3dbfd018405680a36bb3761c7aeea724358e4a6d3f10e0200e5", "blocktime": 1537873891, "version": 1, "confirmations": 11479, "time": 1537873891, "locktime": 542996, "vsize": 1156, "size": 1156}