{"hash": "d77b39666909fa43b07907f83061273858e8fc90090d287fa8c93ecb5f4598de", "blockhash": "0000000000000000000dcc0f55137456b1a82d3642486a52398922ac4d620174", "vout": [{"scriptPubKey": {"reqSigs": 1, "hex": "76a9146bbb0c799e2107607a614baf813c8e47eceace4c88ac", "addresses": ["1ApdNuAwsmfzqcWS8vj2vNVQfGFwHxwYuL"], "asm": "OP_DUP OP_HASH160 6bbb0c799e2107607a614baf813c8e47eceace4c OP_EQUALVERIFY OP_CHECKSIG", "type": "pubkeyhash"}, "value": 8.092e-05, "n": 0}, {"scriptPubKey": {"reqSigs": 1, "hex": "76a914844a3d710c70991b07b434f780754c912637206188ac", "addresses": ["1D4V8cFEYYQVDKCfdSgv7ANhp5LZ2SZZqU"], "asm": "OP_DUP OP_HASH160 844a3d710c70991b07b434f780754c9126372061 OP_EQUALVERIFY OP_CHECKSIG", "type": "pubkeyhash"}, "value": 0.10332662, "n": 1}], "hex": "0100000004b5812814ae2c86e8c6682ce4cf2da71630b318476df6e80f495e5262778f2b43010000006b483045022100b7000e47ff6912437276733ad373deac64e1514e6d00869d58277e2d2034336e0220048a017478ef6056240a6defdd774f887c19ecbbe43fc2bfec3216004fd53de101210350c395e166c19ddd25ad0c3516dad8f6ff0cf1e0086eea93ee1a616fbcf95895fffffffffd5a1a0d7a5f94ab945510507907fea6783cbfb6feabbbbfd10ef9a3476acb54000000006a47304402204ea34f0ef574427c36fb794469c339e73a20f343006f1f17ae4e56a3d60bdd5002207625c37f56033a6a8e48c9f86fa4aa40a669985afd37d75362cefd40ed28021e01210350c395e166c19ddd25ad0c3516dad8f6ff0cf1e0086eea93ee1a616fbcf95895ffffffffb60599c3a67d1b483667420d81fec47cc4d7f84943e145d59b8d92933d8abf6e010000006a473044022034a4d4388ab41a07296b72341b88c51d33da086997f7e80464ecd7a29d7678d0022067e60836a1e4ed268487eb2ba53e28492621c9febab4bcb904bb38dd7c5b690101210350c395e166c19ddd25ad0c3516dad8f6ff0cf1e0086eea93ee1a616fbcf95895ffffffff7df266c1f6e28d751c92ed58a8b11c654a63a96c27b862ddbd4778a46a823d79000000006b483045022100f2a208f3f080f0d424804a216f543e527d144f087c125765192b86d07283bc6b0220511bd394c2da51a7f57e4e4f9d0af4df8f2e079b57ea25081a5c6334e133fe9e012103da093e66a39c38b5bb96ffadb871d12f0d829ed9c909c0e46845da019ba2de30ffffffff029c1f0000000000001976a9146bbb0c799e2107607a614baf813c8e47eceace4c88acf6a99d00000000001976a914844a3d710c70991b07b434f780754c912637206188ac00000000", "vin": [{"sequence": 4294967295, "scriptSig": {"hex": "483045022100b7000e47ff6912437276733ad373deac64e1514e6d00869d58277e2d2034336e0220048a017478ef6056240a6defdd774f887c19ecbbe43fc2bfec3216004fd53de101210350c395e166c19ddd25ad0c3516dad8f6ff0cf1e0086eea93ee1a616fbcf95895", "asm": "3045022100b7000e47ff6912437276733ad373deac64e1514e6d00869d58277e2d2034336e0220048a017478ef6056240a6defdd774f887c19ecbbe43fc2bfec3216004fd53de1[ALL] 0350c395e166c19ddd25ad0c3516dad8f6ff0cf1e0086eea93ee1a616fbcf95895"}, "vout": 1, "txid": "432b8f7762525e490fe8f66d4718b33016a72dcfe42c68c6e8862cae142881b5"}, {"sequence": 4294967295, "scriptSig": {"hex": "47304402204ea34f0ef574427c36fb794469c339e73a20f343006f1f17ae4e56a3d60bdd5002207625c37f56033a6a8e48c9f86fa4aa40a669985afd37d75362cefd40ed28021e01210350c395e166c19ddd25ad0c3516dad8f6ff0cf1e0086eea93ee1a616fbcf95895", "asm": "304402204ea34f0ef574427c36fb794469c339e73a20f343006f1f17ae4e56a3d60bdd5002207625c37f56033a6a8e48c9f86fa4aa40a669985afd37d75362cefd40ed28021e[ALL] 0350c395e166c19ddd25ad0c3516dad8f6ff0cf1e0086eea93ee1a616fbcf95895"}, "vout": 0, "txid": "54cb6a47a3f90ed1bfbbabfeb6bf3c78a6fe077950105594ab945f7a0d1a5afd"}, {"sequence": 4294967295, "scriptSig": {"hex": "473044022034a4d4388ab41a07296b72341b88c51d33da086997f7e80464ecd7a29d7678d0022067e60836a1e4ed268487eb2ba53e28492621c9febab4bcb904bb38dd7c5b690101210350c395e166c19ddd25ad0c3516dad8f6ff0cf1e0086eea93ee1a616fbcf95895", "asm": "3044022034a4d4388ab41a07296b72341b88c51d33da086997f7e80464ecd7a29d7678d0022067e60836a1e4ed268487eb2ba53e28492621c9febab4bcb904bb38dd7c5b6901[ALL] 0350c395e166c19ddd25ad0c3516dad8f6ff0cf1e0086eea93ee1a616fbcf95895"}, "vout": 1, "txid": "6ebf8a3d93928d9bd545e14349f8d7c47cc4fe810d426736481b7da6c39905b6"}, {"sequence": 4294967295, "scriptSig": {"hex": "483045022100f2a208f3f080f0d424804a216f543e527d144f087c125765192b86d07283bc6b0220511bd394c2da51a7f57e4e4f9d0af4df8f2e079b57ea25081a5c6334e133fe9e012103da093e66a39c38b5bb96ffadb871d12f0d829ed9c909c0e46845da019ba2de30", "asm": "3045022100f2a208f3f080f0d424804a216f543e527d144f087c125765192b86d07283bc6b0220511bd394c2da51a7f57e4e4f9d0af4df8f2e079b57ea25081a5c6334e133fe9e[ALL] 03da093e66a39c38b5bb96ffadb871d12f0d829ed9c909c0e46845da019ba2de30"}, "vout": 0, "txid": "793d826aa47847bddd62b8276ca9634a651cb1a858ed921c758de2f6c166f27d"}], "txid": "d77b39666909fa43b07907f83061273858e8fc90090d287fa8c93ecb5f4598de", "blocktime": 1537870268, "version": 1, "confirmations": 11518, "time": 1537870268, "locktime": 0, "vsize": 668, "size": 668}