{"hash": "0c75d1cd621af5df81170bd41fd7e739b2a6ad6f6e6a50c539e356fcad1fc88a", "blockhash": "0000000000000000001f76057863aec43deb6fa401d9628bb513d65a8098bfab", "vout": [{"scriptPubKey": {"reqSigs": 1, "hex": "a91430897cc6c9d69f6a2c2f1c651d51f22219f1a4f687", "addresses": ["367f4YWz1VCFaqBqwbTrzwi2b1h2U3w1AF"], "asm": "OP_HASH160 30897cc6c9d69f6a2c2f1c651d51f22219f1a4f6 OP_EQUAL", "type": "scripthash"}, "value": 5.63584297, "n": 0}, {"scriptPubKey": {"reqSigs": 1, "hex": "a914b68d7f84b4e0a4ff67eca3f0aae51486f01b9dfc87", "addresses": ["3JLGQvECevKLcWah9qisrSeRE4Tf44PrN6"], "asm": "OP_HASH160 b68d7f84b4e0a4ff67eca3f0aae51486f01b9dfc OP_EQUAL", "type": "scripthash"}, "value": 0.20517547, "n": 1}], "hex": "01000000000101d9a236b2e2728f9944c6abfc86a2a13e6e52588f4b8f826c2b98155a3fe258f20000000023220020bcf9f822194145acea0f3235f4107b5bf1a91b6b9f8489f63bf79ec29b360913ffffffff02299d97210000000017a91430897cc6c9d69f6a2c2f1c651d51f22219f1a4f687ab1239010000000017a914b68d7f84b4e0a4ff67eca3f0aae51486f01b9dfc870400483045022100da82354526e4904245e2ae407e5a5e1cd5db9ef53d22bac3a95f91367f27317502205f83e208cc19c189af04674738218e7a0f721371a6c88b188a7f275f97050bc801483045022100d888b4c19d9e48ed43c1b56c2541646456a93d44144407935c42544b48afb72f02207d9becdcb504bdfd1f56407bbd1631e25ac334c9189e5c85cb769c3f162a5c2101695221026c8f72b9e63db63907115e65d4da86eaae595b22fdc85ec75301bb4adbf203582103806535be3e3920e5eedee92de5714188fd6a784f2bf7b04f87de0b9c3ae1ecdb21024b23bfdce2afcae7e28c42f7f79aa100f22931712c52d7414a526ba494d44a2553ae00000000", "vin": [{"txinwitness": ["", "3045022100da82354526e4904245e2ae407e5a5e1cd5db9ef53d22bac3a95f91367f27317502205f83e208cc19c189af04674738218e7a0f721371a6c88b188a7f275f97050bc801", "3045022100d888b4c19d9e48ed43c1b56c2541646456a93d44144407935c42544b48afb72f02207d9becdcb504bdfd1f56407bbd1631e25ac334c9189e5c85cb769c3f162a5c2101", "5221026c8f72b9e63db63907115e65d4da86eaae595b22fdc85ec75301bb4adbf203582103806535be3e3920e5eedee92de5714188fd6a784f2bf7b04f87de0b9c3ae1ecdb21024b23bfdce2afcae7e28c42f7f79aa100f22931712c52d7414a526ba494d44a2553ae"], "sequence": 4294967295, "scriptSig": {"hex": "220020bcf9f822194145acea0f3235f4107b5bf1a91b6b9f8489f63bf79ec29b360913", "asm": "0020bcf9f822194145acea0f3235f4107b5bf1a91b6b9f8489f63bf79ec29b360913"}, "vout": 0, "txid": "f258e23f5a15982b6c828f4b8f58526e3ea1a286fcabc644998f72e2b236a2d9"}], "txid": "d77ceaf6e8e23d4c93fedc4c9c822dbc929779a8013ed8373888d28638b4a41c", "blocktime": 1537873891, "version": 1, "confirmations": 11478, "time": 1537873891, "locktime": 0, "vsize": 214, "size": 406}