{"hash": "8799fd2d00d4f9d35f7d525cda8fbfbb9ec36837f243a9596f72b5f2a2028f04", "blockhash": "0000000000000000001f0ddff1eddb255c1121bcd4da4f1bc9a0da00cae72433", "vout": [{"scriptPubKey": {"reqSigs": 1, "hex": "a914578c9cd9fe591783bfb488031b49a22aaea3398287", "addresses": ["39fwAB6AgspVZpfbm6UK3tZNcrW2acmGY8"], "asm": "OP_HASH160 578c9cd9fe591783bfb488031b49a22aaea33982 OP_EQUAL", "type": "scripthash"}, "value": 0.00100391, "n": 0}, {"scriptPubKey": {"reqSigs": 1, "hex": "76a914d1315c4ca00a620b5baf8671b903e2df6d95b2ca88ac", "addresses": ["1L57MixAUN4eeNVnQP2wDRz53M5PpJzsSM"], "asm": "OP_DUP OP_HASH160 d1315c4ca00a620b5baf8671b903e2df6d95b2ca OP_EQUALVERIFY OP_CHECKSIG", "type": "pubkeyhash"}, "value": 0.0014, "n": 1}], "hex": "010000000001015cb122905980994973fc3222458a54322bf5c8dd81364f1b15c66bb9b12be03c01000000171600144b022bd2e54cb4e525168c6e6871efce8521b5b2fdffffff02278801000000000017a914578c9cd9fe591783bfb488031b49a22aaea3398287e0220200000000001976a914d1315c4ca00a620b5baf8671b903e2df6d95b2ca88ac0248304502210096d4606d6bbc234f50dac685e7669b8efd39f120a91024413aeb70e1e615a84802204da1355590c492d1f3c1b14d08669d8e7c98151bc1334306091b2ad4aa00ef980121027870d5f23149c27f927a4411a968760c1edde6b8f2716f6a588b742f7ca8449d0f490800", "vin": [{"txinwitness": ["304502210096d4606d6bbc234f50dac685e7669b8efd39f120a91024413aeb70e1e615a84802204da1355590c492d1f3c1b14d08669d8e7c98151bc1334306091b2ad4aa00ef9801", "027870d5f23149c27f927a4411a968760c1edde6b8f2716f6a588b742f7ca8449d"], "sequence": 4294967293, "scriptSig": {"hex": "1600144b022bd2e54cb4e525168c6e6871efce8521b5b2", "asm": "00144b022bd2e54cb4e525168c6e6871efce8521b5b2"}, "vout": 1, "txid": "3ce02bb1b96bc6151b4f3681ddc8f52b32548a452232fc73499980599022b15c"}], "txid": "d77d6caca68e8202aa99ad308badd75e944067d672ea1021cfcc6913df046276", "blocktime": 1537872018, "version": 1, "confirmations": 11489, "time": 1537872018, "locktime": 542991, "vsize": 168, "size": 250}