{"hash": "d780574acfd33d73eb5bb54b68d1a8de671e3c8c67415b7f8c61696e88d84d5c", "blockhash": "0000000000000000001f76057863aec43deb6fa401d9628bb513d65a8098bfab", "vout": [{"scriptPubKey": {"reqSigs": 1, "hex": "76a914d7858c82878f31dd44327139df4f46c2291db30488ac", "addresses": ["1LeaGP8HDcTwvnSDo8oNtJzFGe8i5HuAoa"], "asm": "OP_DUP OP_HASH160 d7858c82878f31dd44327139df4f46c2291db304 OP_EQUALVERIFY OP_CHECKSIG", "type": "pubkeyhash"}, "value": 0.005902, "n": 0}, {"scriptPubKey": {"type": "nulldata", "hex": "6a4c50000077da000176de278d66a6dcee7212292e7af8e8e963c7cfd5b95b23cc0f42c2fc38c56467b3cbf6c99e7d4156eca100db08db5baa15ae061307ddf866d28b1d100759d4ba30d2c37bb011d97e02cf", "asm": "OP_RETURN 000077da000176de278d66a6dcee7212292e7af8e8e963c7cfd5b95b23cc0f42c2fc38c56467b3cbf6c99e7d4156eca100db08db5baa15ae061307ddf866d28b1d100759d4ba30d2c37bb011d97e02cf"}, "value": 0.0, "n": 1}], "hex": "0100000001f526592499a71ca03db366db4acf3ba8b7b9d83de736ea6860e2d8cb78d70e5a000000006b483045022100dc184409fd20d59df52345c47dd89ee969a35ffff898a22ec3c0634b11a4fda102206ce37efc8a9aecc94f943222416e8e128283b1194729d0951f54bb48542b2f8901210386341437f2c19c0cbda41bbf6f28856799f65369b76fab4169b702f244380376ffffffff0278010900000000001976a914d7858c82878f31dd44327139df4f46c2291db30488ac0000000000000000536a4c50000077da000176de278d66a6dcee7212292e7af8e8e963c7cfd5b95b23cc0f42c2fc38c56467b3cbf6c99e7d4156eca100db08db5baa15ae061307ddf866d28b1d100759d4ba30d2c37bb011d97e02cf00000000", "vin": [{"sequence": 4294967295, "scriptSig": {"hex": "483045022100dc184409fd20d59df52345c47dd89ee969a35ffff898a22ec3c0634b11a4fda102206ce37efc8a9aecc94f943222416e8e128283b1194729d0951f54bb48542b2f8901210386341437f2c19c0cbda41bbf6f28856799f65369b76fab4169b702f244380376", "asm": "3045022100dc184409fd20d59df52345c47dd89ee969a35ffff898a22ec3c0634b11a4fda102206ce37efc8a9aecc94f943222416e8e128283b1194729d0951f54bb48542b2f89[ALL] 0386341437f2c19c0cbda41bbf6f28856799f65369b76fab4169b702f244380376"}, "vout": 0, "txid": "5a0ed778cbd8e26068ea36e73dd8b9b7a83bcf4adb66b33da01ca799245926f5"}], "txid": "d780574acfd33d73eb5bb54b68d1a8de671e3c8c67415b7f8c61696e88d84d5c", "blocktime": 1537873891, "version": 1, "confirmations": 11477, "time": 1537873891, "locktime": 0, "vsize": 284, "size": 284}