{"hash": "d78235bbb423f3e0ff2c18a6fd516f52c0e0fa8d7d46167cfe8dde5e1fee656d", "blockhash": "0000000000000000000e13cef7c366c0283d82e591d1acd082e914b08063cdf1", "vout": [{"scriptPubKey": {"type": "nulldata", "hex": "6a146f6d6e69000000000000001f0000003a35294400", "asm": "OP_RETURN 6f6d6e69000000000000001f0000003a35294400"}, "value": 0.0, "n": 0}, {"scriptPubKey": {"reqSigs": 1, "hex": "76a914f96c9ce8dade84571041652edd4a8f71e033164188ac", "addresses": ["1PjqNKp1JtwVtHCxqB8VBp1YjT628Lz2v6"], "asm": "OP_DUP OP_HASH160 f96c9ce8dade84571041652edd4a8f71e0331641 OP_EQUALVERIFY OP_CHECKSIG", "type": "pubkeyhash"}, "value": 6e-06, "n": 1}, {"scriptPubKey": {"reqSigs": 1, "hex": "76a9140e49b81f43f719255334d008a790ef674e2e72c288ac", "addresses": ["12JYmnfYU2ghzjwUAspzJsSnmJtK9bZPYR"], "asm": "OP_DUP OP_HASH160 0e49b81f43f719255334d008a790ef674e2e72c2 OP_EQUALVERIFY OP_CHECKSIG", "type": "pubkeyhash"}, "value": 0.05027972, "n": 2}, {"scriptPubKey": {"reqSigs": 1, "hex": "76a9144fe6ca44d818be941dcf90d35533f7fbd4ef12a488ac", "addresses": ["18HUrjW4HGEdHV6gPHnEd2QAwuvkoUdpCF"], "asm": "OP_DUP OP_HASH160 4fe6ca44d818be941dcf90d35533f7fbd4ef12a4 OP_EQUALVERIFY OP_CHECKSIG", "type": "pubkeyhash"}, "value": 6e-06, "n": 3}], "hex": "0100000002b9062a24979520d6ebaf95495e28c6c88485eea4424af7576ffcbf62623da7ca010000006b483045022100ee0703bdf6d12f77e60e887244d14e16cfeff12d0313514a7b52e81180e15042022059e2e3c3c4b5cf2ff2f9aadedcf3a91be9e06b890235ab4865d931aa9a6c75810121025ac90c5c62726b379ee703fa269f8a8d04ca7c7739e77bda1a3b0bc744763db8ffffffff04a3bdbafbfdc787569d13dac91400c409b3aebaedf3666264cdc0360b7cd573020000006a47304402203f341d0ff13cb3c60fd9a3322a4f0b76f301e4d6b32e1c5236a17d16b9aefdad02201bba1869e1b34ad422300daa59bcf70e582ad2ec9c1d4102588800bc54ffd9b401210361f26bf6731f956d2e62ee98a7a9fc6f0d36efdc9e6916973e7986a5ba9d19c4ffffffff040000000000000000166a146f6d6e69000000000000001f0000003a3529440058020000000000001976a914f96c9ce8dade84571041652edd4a8f71e033164188ac84b84c00000000001976a9140e49b81f43f719255334d008a790ef674e2e72c288ac58020000000000001976a9144fe6ca44d818be941dcf90d35533f7fbd4ef12a488ac00000000", "vin": [{"sequence": 4294967295, "scriptSig": {"hex": "483045022100ee0703bdf6d12f77e60e887244d14e16cfeff12d0313514a7b52e81180e15042022059e2e3c3c4b5cf2ff2f9aadedcf3a91be9e06b890235ab4865d931aa9a6c75810121025ac90c5c62726b379ee703fa269f8a8d04ca7c7739e77bda1a3b0bc744763db8", "asm": "3045022100ee0703bdf6d12f77e60e887244d14e16cfeff12d0313514a7b52e81180e15042022059e2e3c3c4b5cf2ff2f9aadedcf3a91be9e06b890235ab4865d931aa9a6c7581[ALL] 025ac90c5c62726b379ee703fa269f8a8d04ca7c7739e77bda1a3b0bc744763db8"}, "vout": 1, "txid": "caa73d6262bffc6f57f74a42a4ee8584c8c6285e4995afebd6209597242a06b9"}, {"sequence": 4294967295, "scriptSig": {"hex": "47304402203f341d0ff13cb3c60fd9a3322a4f0b76f301e4d6b32e1c5236a17d16b9aefdad02201bba1869e1b34ad422300daa59bcf70e582ad2ec9c1d4102588800bc54ffd9b401210361f26bf6731f956d2e62ee98a7a9fc6f0d36efdc9e6916973e7986a5ba9d19c4", "asm": "304402203f341d0ff13cb3c60fd9a3322a4f0b76f301e4d6b32e1c5236a17d16b9aefdad02201bba1869e1b34ad422300daa59bcf70e582ad2ec9c1d4102588800bc54ffd9b4[ALL] 0361f26bf6731f956d2e62ee98a7a9fc6f0d36efdc9e6916973e7986a5ba9d19c4"}, "vout": 2, "txid": "73d57c0b36c0cd646266f3edbaaeb309c40014c9da139d5687c7fdfbbabda304"}], "txid": "d78235bbb423f3e0ff2c18a6fd516f52c0e0fa8d7d46167cfe8dde5e1fee656d", "blocktime": 1537871767, "version": 1, "confirmations": 11491, "time": 1537871767, "locktime": 0, "vsize": 438, "size": 438}