{"hash": "d783c93460f477e52eba95bda5732cb38a07219c30974572c5acdda0e5e07c4c", "blockhash": "0000000000000000001f76057863aec43deb6fa401d9628bb513d65a8098bfab", "vout": [{"scriptPubKey": {"reqSigs": 1, "hex": "a914d07492706e59bfc404c3a16d9adc645a06bc83d587", "addresses": ["3LhE81bD7TtPTXrx1zT78BSXMtzxSjd3fr"], "asm": "OP_HASH160 d07492706e59bfc404c3a16d9adc645a06bc83d5 OP_EQUAL", "type": "scripthash"}, "value": 0.00963, "n": 0}, {"scriptPubKey": {"reqSigs": 1, "hex": "a914e370231feecbfc25e2e2423a5a79bf79bfdca59887", "addresses": ["3NRbeX3vD5VaVE4TDU9ivCDsEf7NPPte6J"], "asm": "OP_HASH160 e370231feecbfc25e2e2423a5a79bf79bfdca598 OP_EQUAL", "type": "scripthash"}, "value": 0.44797786, "n": 1}], "hex": "0100000001a2135cb501e3692cf51844cb58064a2a18c1fe386079424a1e5be00c024712dd01000000da00483045022100a09d2ff40bdb3085bbac932dca3305f081ae7abdf0727764543cf1d4d805888202205e93794fe62b1a79f7b8cb757bfe92c0d3e7538100c41bbc615620f10dd20b310147304402200ad768cba76a613f57d68a8cc1665e26c8c289c842921e2fd272bc1f7a4426bc02206dcd571edb078b3cbd8a2f7f5f4cbffa0ceb0a51183480a441a026e1de32f5af014752210327881b6abce6535553a3ce21fad12a7d74fd237ce7c4cd270a267162344e3082210256141f8eb687f5a68c5cc65054652dc25116fa285e44d72b44368827ffe77d9a52aeffffffff02b8b10e000000000017a914d07492706e59bfc404c3a16d9adc645a06bc83d5875a8fab020000000017a914e370231feecbfc25e2e2423a5a79bf79bfdca5988700000000", "vin": [{"sequence": 4294967295, "scriptSig": {"hex": "00483045022100a09d2ff40bdb3085bbac932dca3305f081ae7abdf0727764543cf1d4d805888202205e93794fe62b1a79f7b8cb757bfe92c0d3e7538100c41bbc615620f10dd20b310147304402200ad768cba76a613f57d68a8cc1665e26c8c289c842921e2fd272bc1f7a4426bc02206dcd571edb078b3cbd8a2f7f5f4cbffa0ceb0a51183480a441a026e1de32f5af014752210327881b6abce6535553a3ce21fad12a7d74fd237ce7c4cd270a267162344e3082210256141f8eb687f5a68c5cc65054652dc25116fa285e44d72b44368827ffe77d9a52ae", "asm": "0 3045022100a09d2ff40bdb3085bbac932dca3305f081ae7abdf0727764543cf1d4d805888202205e93794fe62b1a79f7b8cb757bfe92c0d3e7538100c41bbc615620f10dd20b31[ALL] 304402200ad768cba76a613f57d68a8cc1665e26c8c289c842921e2fd272bc1f7a4426bc02206dcd571edb078b3cbd8a2f7f5f4cbffa0ceb0a51183480a441a026e1de32f5af[ALL] 52210327881b6abce6535553a3ce21fad12a7d74fd237ce7c4cd270a267162344e3082210256141f8eb687f5a68c5cc65054652dc25116fa285e44d72b44368827ffe77d9a52ae"}, "vout": 1, "txid": "dd1247020ce05b1e4a42796038fec1182a4a0658cb4418f52c69e301b55c13a2"}], "txid": "d783c93460f477e52eba95bda5732cb38a07219c30974572c5acdda0e5e07c4c", "blocktime": 1537873891, "version": 1, "confirmations": 11478, "time": 1537873891, "locktime": 0, "vsize": 333, "size": 333}