{"hash": "27bc8281cb9a3a58604c52c3466d7edc4432b79d1d90805a59519d1971b858ec", "blockhash": "0000000000000000000e13cef7c366c0283d82e591d1acd082e914b08063cdf1", "vout": [{"scriptPubKey": {"reqSigs": 1, "hex": "76a9141e92e2b0ae178b281885ca5f185673c2ef492ed988ac", "addresses": ["13nfEYG42oizh7uDeg712pqHkAG3pePSYq"], "asm": "OP_DUP OP_HASH160 1e92e2b0ae178b281885ca5f185673c2ef492ed9 OP_EQUALVERIFY OP_CHECKSIG", "type": "pubkeyhash"}, "value": 0.00024924, "n": 0}, {"scriptPubKey": {"reqSigs": 1, "hex": "a914ed3bd13e7048ad8cc349cfc4798aced06893953087", "addresses": ["3PKPjC1C47RMwmUX3eNrPiKi2JAGcMeHyv"], "asm": "OP_HASH160 ed3bd13e7048ad8cc349cfc4798aced068939530 OP_EQUAL", "type": "scripthash"}, "value": 0.0015, "n": 1}, {"scriptPubKey": {"reqSigs": 1, "hex": "76a914787e0c1ec68f38073645a11e470afcd3cc2f1f2688ac", "addresses": ["1Bz75wgD68wUwtKZePUhmcbiYijoyqottp"], "asm": "OP_DUP OP_HASH160 787e0c1ec68f38073645a11e470afcd3cc2f1f26 OP_EQUALVERIFY OP_CHECKSIG", "type": "pubkeyhash"}, "value": 0.00341661, "n": 2}, {"scriptPubKey": {"reqSigs": 1, "hex": "a914a4f5236d331c0a531f93371f14a994211db68e7987", "addresses": ["3GjEQWyEWSi6fCeWs7sE2UYUaAFcz6RR4q"], "asm": "OP_HASH160 a4f5236d331c0a531f93371f14a994211db68e79 OP_EQUAL", "type": "scripthash"}, "value": 0.99448816, "n": 3}], "hex": "02000000000102b96e80a0dc49b35d1b455da008faab05816f09a4e7b88f2af5413cc32067f6ad0000000023220020edd255efa28278349370fd2b00ebaee77e8d4d97b13f5cb93aeadab981ea5041ffffffffcc19a7656fbf941902c95c4cea0555f8763811b503b0f39342dd4a067148c9b001000000fc00473044022010e4f8da980fa625dba0aaddce90254907210c8d6016ac8bdf4507ab87626c290220201b576df908a6c26080d98a8e089ef672ed251c41845496643d3e263f6f09e2014730440220113c52d1f6e8a6125578fa04e7cc1ff3c0d7d1b382783d8ce241ae0c8f8139d7022023659d8c415ed8a2a01ab5a8caf8b2866e9893ecb20fb9ab5ee99e7e2f950511014c695221038d5f71222f1bc5ad782fd4f89888b7247c3b403b3a5c05347b6c33b38ceb13b221023d6190db7025502f22aa16345aa39a7527a20e128dbbd58f99dd75f57a8dd8ef2102725791039abc8bdf8b1b613d707985e48bb229201ec3b8cd43a075df5bd6b08d53aeffffffff045c610000000000001976a9141e92e2b0ae178b281885ca5f185673c2ef492ed988acf04902000000000017a914ed3bd13e7048ad8cc349cfc4798aced068939530879d360500000000001976a914787e0c1ec68f38073645a11e470afcd3cc2f1f2688acf077ed050000000017a914a4f5236d331c0a531f93371f14a994211db68e79870400473044022057586fdb27fd95aa2cdd7a30a1cd5930fb94b197decc954073227a1b1ec41abf0220530637a1ead86744e53f706357a415d96902eaa6344c8e4e48cc53ea81022e4b0148304502210098ffdf8f0d06f5005330cce1007d3c40d7c018688311fd86e3673b74fc67f5a9022000a00bf27da87ac8e803572ce1812183fe525733d2f2eb5860b6ea03476ee9ba01695221027a56b3ff8c4a28e587781941e90c9c6cb9681291fa612eee23279e8351300dd72103734b0e628551686fda636975c29cc24e156dc8437e7504cf6247aa07f3fb5a5e2102d8b5b3f7ee77cf0547fe89c0018318a51e7aa523b8415fd157b41f0a3df3a18a53ae0000000000", "vin": [{"txinwitness": ["", "3044022057586fdb27fd95aa2cdd7a30a1cd5930fb94b197decc954073227a1b1ec41abf0220530637a1ead86744e53f706357a415d96902eaa6344c8e4e48cc53ea81022e4b01", "304502210098ffdf8f0d06f5005330cce1007d3c40d7c018688311fd86e3673b74fc67f5a9022000a00bf27da87ac8e803572ce1812183fe525733d2f2eb5860b6ea03476ee9ba01", "5221027a56b3ff8c4a28e587781941e90c9c6cb9681291fa612eee23279e8351300dd72103734b0e628551686fda636975c29cc24e156dc8437e7504cf6247aa07f3fb5a5e2102d8b5b3f7ee77cf0547fe89c0018318a51e7aa523b8415fd157b41f0a3df3a18a53ae"], "sequence": 4294967295, "scriptSig": {"hex": "220020edd255efa28278349370fd2b00ebaee77e8d4d97b13f5cb93aeadab981ea5041", "asm": "0020edd255efa28278349370fd2b00ebaee77e8d4d97b13f5cb93aeadab981ea5041"}, "vout": 0, "txid": "adf66720c33c41f52a8fb8e7a4096f8105abfa08a05d451b5db349dca0806eb9"}, {"sequence": 4294967295, "scriptSig": {"hex": "00473044022010e4f8da980fa625dba0aaddce90254907210c8d6016ac8bdf4507ab87626c290220201b576df908a6c26080d98a8e089ef672ed251c41845496643d3e263f6f09e2014730440220113c52d1f6e8a6125578fa04e7cc1ff3c0d7d1b382783d8ce241ae0c8f8139d7022023659d8c415ed8a2a01ab5a8caf8b2866e9893ecb20fb9ab5ee99e7e2f950511014c695221038d5f71222f1bc5ad782fd4f89888b7247c3b403b3a5c05347b6c33b38ceb13b221023d6190db7025502f22aa16345aa39a7527a20e128dbbd58f99dd75f57a8dd8ef2102725791039abc8bdf8b1b613d707985e48bb229201ec3b8cd43a075df5bd6b08d53ae", "asm": "0 3044022010e4f8da980fa625dba0aaddce90254907210c8d6016ac8bdf4507ab87626c290220201b576df908a6c26080d98a8e089ef672ed251c41845496643d3e263f6f09e2[ALL] 30440220113c52d1f6e8a6125578fa04e7cc1ff3c0d7d1b382783d8ce241ae0c8f8139d7022023659d8c415ed8a2a01ab5a8caf8b2866e9893ecb20fb9ab5ee99e7e2f950511[ALL] 5221038d5f71222f1bc5ad782fd4f89888b7247c3b403b3a5c05347b6c33b38ceb13b221023d6190db7025502f22aa16345aa39a7527a20e128dbbd58f99dd75f57a8dd8ef2102725791039abc8bdf8b1b613d707985e48bb229201ec3b8cd43a075df5bd6b08d53ae"}, "vout": 1, "txid": "b0c94871064add4293f3b003b5113876f85505ea4c5cc9021994bf6f65a719cc"}], "txid": "d787b0148617bd682eef37129e024fbe768f0b5648d2f547713ff9740373466f", "blocktime": 1537871767, "version": 2, "confirmations": 11493, "time": 1537871767, "locktime": 0, "vsize": 575, "size": 767}