{"hash": "d78846c0deb2ceb345725c8bc5879717a2d8dfbbea4dd2758116351055472ded", "blockhash": "0000000000000000000e13cef7c366c0283d82e591d1acd082e914b08063cdf1", "vout": [{"scriptPubKey": {"reqSigs": 1, "hex": "a91494696ab911c2165657b28e7993936202e8f7a46287", "addresses": ["3FDkDRoASmGFHpNA3g8UGZUGrRFjUowcXe"], "asm": "OP_HASH160 94696ab911c2165657b28e7993936202e8f7a462 OP_EQUAL", "type": "scripthash"}, "value": 0.03908256, "n": 0}, {"scriptPubKey": {"reqSigs": 1, "hex": "76a914bdd7df10c01f5a1dc29e88661281ab995c5c45a488ac", "addresses": ["1JJoKG6VFVTEKaaeKFi3XEGCuC5RT7jmP4"], "asm": "OP_DUP OP_HASH160 bdd7df10c01f5a1dc29e88661281ab995c5c45a4 OP_EQUALVERIFY OP_CHECKSIG", "type": "pubkeyhash"}, "value": 0.97077539, "n": 1}], "hex": "01000000019de8dd000de5ce158765e4b183fe6745ab9942e4a0e8bdc66488e3b77d1767d3010000006b4830450221009283d4df2352daa2d6774efb1b357304ff6916585264aa8f2f062cc11110e0ba02201d3dfe850b07ed1908225625e961f794b568959bb00de62f7fd72d95fb4149270121026695429f7c8c6abb9e201849dd2be781a073ae9bd1c113d435241acffbd8e87affffffff02a0a23b000000000017a91494696ab911c2165657b28e7993936202e8f7a462872349c905000000001976a914bdd7df10c01f5a1dc29e88661281ab995c5c45a488ac00000000", "vin": [{"sequence": 4294967295, "scriptSig": {"hex": "4830450221009283d4df2352daa2d6774efb1b357304ff6916585264aa8f2f062cc11110e0ba02201d3dfe850b07ed1908225625e961f794b568959bb00de62f7fd72d95fb4149270121026695429f7c8c6abb9e201849dd2be781a073ae9bd1c113d435241acffbd8e87a", "asm": "30450221009283d4df2352daa2d6774efb1b357304ff6916585264aa8f2f062cc11110e0ba02201d3dfe850b07ed1908225625e961f794b568959bb00de62f7fd72d95fb414927[ALL] 026695429f7c8c6abb9e201849dd2be781a073ae9bd1c113d435241acffbd8e87a"}, "vout": 1, "txid": "d367177db7e38864c6bde8a0e44299ab4567fe83b1e4658715cee50d00dde89d"}], "txid": "d78846c0deb2ceb345725c8bc5879717a2d8dfbbea4dd2758116351055472ded", "blocktime": 1537871767, "version": 1, "confirmations": 11493, "time": 1537871767, "locktime": 0, "vsize": 224, "size": 224}