{"hash": "d7882f3482a8e5785b40be73cba27c5e8529edebbe27f7a6edf0f9419adbf5fb", "blockhash": "0000000000000000001f76057863aec43deb6fa401d9628bb513d65a8098bfab", "vout": [{"scriptPubKey": {"reqSigs": 1, "hex": "a9148b79934cda4c15744c6b0db2d96fedafdceabde487", "addresses": ["3EQVVQzXN5KAK4uyUhDocC8KomjR2q74y7"], "asm": "OP_HASH160 8b79934cda4c15744c6b0db2d96fedafdceabde4 OP_EQUAL", "type": "scripthash"}, "value": 0.01605546, "n": 0}, {"scriptPubKey": {"reqSigs": 1, "hex": "a914e61536d2e9bc78f60b97c227a463d8d9aa4b684087", "addresses": ["3NfakefJgvbkwQFyS7hFKsbLysgffxPo8n"], "asm": "OP_HASH160 e61536d2e9bc78f60b97c227a463d8d9aa4b6840 OP_EQUAL", "type": "scripthash"}, "value": 0.05521081, "n": 1}, {"scriptPubKey": {"reqSigs": 1, "hex": "76a9141ea6e9f2faf8e35ad9bd7afc3e7fc502ef8ce58388ac", "addresses": ["13o5E8k439aEJSNNkveWtzrUeepsAcp7DJ"], "asm": "OP_DUP OP_HASH160 1ea6e9f2faf8e35ad9bd7afc3e7fc502ef8ce583 OP_EQUALVERIFY OP_CHECKSIG", "type": "pubkeyhash"}, "value": 0.00484028, "n": 2}], "hex": "01000000014f6554585f0f07db834da673e1c3b622b42a9e27296dc44082d282dbc0a7dab801000000d9004730440220162713fb50ebbce5e3bb09f58577af8b83b4a59d54b995198931239e474c6e3802202348e828ebf661c89cbccb5fc887a5108f8ecd29499469728b1a9811106e6fa8014730440220156945ab425f28575f62107cdce3a8857d083df6c0297360bcc908ef005f274c02205774abc25370aaad41a0008244d13897e66c8ae11ef688565b103444c1c3b32b014752210206ed20cc93da313ca9f54381e2c6131f26f9ca71717b6737db6cbe4db598773f2102907a54bed8ad74b3f35638c60114ca240a308cb986f3f2f306178869a8880b6152aeffffffff03aa7f18000000000017a9148b79934cda4c15744c6b0db2d96fedafdceabde487b93e54000000000017a914e61536d2e9bc78f60b97c227a463d8d9aa4b684087bc620700000000001976a9141ea6e9f2faf8e35ad9bd7afc3e7fc502ef8ce58388ac00000000", "vin": [{"sequence": 4294967295, "scriptSig": {"hex": "004730440220162713fb50ebbce5e3bb09f58577af8b83b4a59d54b995198931239e474c6e3802202348e828ebf661c89cbccb5fc887a5108f8ecd29499469728b1a9811106e6fa8014730440220156945ab425f28575f62107cdce3a8857d083df6c0297360bcc908ef005f274c02205774abc25370aaad41a0008244d13897e66c8ae11ef688565b103444c1c3b32b014752210206ed20cc93da313ca9f54381e2c6131f26f9ca71717b6737db6cbe4db598773f2102907a54bed8ad74b3f35638c60114ca240a308cb986f3f2f306178869a8880b6152ae", "asm": "0 30440220162713fb50ebbce5e3bb09f58577af8b83b4a59d54b995198931239e474c6e3802202348e828ebf661c89cbccb5fc887a5108f8ecd29499469728b1a9811106e6fa8[ALL] 30440220156945ab425f28575f62107cdce3a8857d083df6c0297360bcc908ef005f274c02205774abc25370aaad41a0008244d13897e66c8ae11ef688565b103444c1c3b32b[ALL] 52210206ed20cc93da313ca9f54381e2c6131f26f9ca71717b6737db6cbe4db598773f2102907a54bed8ad74b3f35638c60114ca240a308cb986f3f2f306178869a8880b6152ae"}, "vout": 1, "txid": "b8daa7c0db82d28240c46d29279e2ab422b6c3e173a64d83db070f5f5854654f"}], "txid": "d7882f3482a8e5785b40be73cba27c5e8529edebbe27f7a6edf0f9419adbf5fb", "blocktime": 1537873891, "version": 1, "confirmations": 11478, "time": 1537873891, "locktime": 0, "vsize": 366, "size": 366}