{"hash": "d789a7e51dc3316064df43a7fe24418725e782824c5010b9129df110c0674f95", "blockhash": "0000000000000000001cda96e906b7601b7a6fb1a3b62bca570a9e5d8f4b3de1", "vout": [{"scriptPubKey": {"reqSigs": 1, "hex": "76a9146efd47b379e705626b4d123ff9b3b26ee47bebca88ac", "addresses": ["1B7rkJyngKgKQe6hRwc33UDm6Cv988Dn3j"], "asm": "OP_DUP OP_HASH160 6efd47b379e705626b4d123ff9b3b26ee47bebca OP_EQUALVERIFY OP_CHECKSIG", "type": "pubkeyhash"}, "value": 0.00452943, "n": 0}, {"scriptPubKey": {"reqSigs": 1, "hex": "76a914e1ec1f109db8b4d836ef82cd28f98b6f84887eed88ac", "addresses": ["1MbZuAKVnWRWERvAsDkKdtzCLnGVmbGmWq"], "asm": "OP_DUP OP_HASH160 e1ec1f109db8b4d836ef82cd28f98b6f84887eed OP_EQUALVERIFY OP_CHECKSIG", "type": "pubkeyhash"}, "value": 0.02291283, "n": 1}], "hex": "0100000002225c91ef2f579ab403c979a85c0c509180d57808a7865fe579dd153b17fd7ca0000000006a4730440220498e44d7002bde913f6dee6a9e4c9bcfdd22f0d3049647d1528398493d41c704022012d3c1249b9abc53670210a9ce91160d58996df4bec8005243cd51bd055904f20121022481e147519325540b6312dac3712ac1556ee33e29201431e3e947b6984c44bdffffffff9f381f0d494d5af68586322431331d0a04185db9b5dec680f46162b520c8c7dd040000006a4730440221008bf14528c55a9aeb1a38467f339c62097171a9b9a4e1c1bfbd630f5ef98a8037021f03db05f55b7363d2447c99814271aab61ecfd343eee0765a2a24a2cefeba9d012103e628ddeedf9011dd36322edbf9e866bb28a8ccdb9b5fe4107f124716ded0ef9bffffffff024fe90600000000001976a9146efd47b379e705626b4d123ff9b3b26ee47bebca88ac53f62200000000001976a914e1ec1f109db8b4d836ef82cd28f98b6f84887eed88ac00000000", "vin": [{"sequence": 4294967295, "scriptSig": {"hex": "4730440220498e44d7002bde913f6dee6a9e4c9bcfdd22f0d3049647d1528398493d41c704022012d3c1249b9abc53670210a9ce91160d58996df4bec8005243cd51bd055904f20121022481e147519325540b6312dac3712ac1556ee33e29201431e3e947b6984c44bd", "asm": "30440220498e44d7002bde913f6dee6a9e4c9bcfdd22f0d3049647d1528398493d41c704022012d3c1249b9abc53670210a9ce91160d58996df4bec8005243cd51bd055904f2[ALL] 022481e147519325540b6312dac3712ac1556ee33e29201431e3e947b6984c44bd"}, "vout": 0, "txid": "a07cfd173b15dd79e55f86a70878d58091500c5ca879c903b49a572fef915c22"}, {"sequence": 4294967295, "scriptSig": {"hex": "4730440221008bf14528c55a9aeb1a38467f339c62097171a9b9a4e1c1bfbd630f5ef98a8037021f03db05f55b7363d2447c99814271aab61ecfd343eee0765a2a24a2cefeba9d012103e628ddeedf9011dd36322edbf9e866bb28a8ccdb9b5fe4107f124716ded0ef9b", "asm": "30440221008bf14528c55a9aeb1a38467f339c62097171a9b9a4e1c1bfbd630f5ef98a8037021f03db05f55b7363d2447c99814271aab61ecfd343eee0765a2a24a2cefeba9d[ALL] 03e628ddeedf9011dd36322edbf9e866bb28a8ccdb9b5fe4107f124716ded0ef9b"}, "vout": 4, "txid": "ddc7c820b56261f480c6deb5b95d18040a1d333124328685f65a4d490d1f389f"}], "txid": "d789a7e51dc3316064df43a7fe24418725e782824c5010b9129df110c0674f95", "blocktime": 1537873282, "version": 1, "confirmations": 11484, "time": 1537873282, "locktime": 0, "vsize": 372, "size": 372}