{"hash": "33050b9f1f37598c40262f82c8dbff74988f32970ecc01aba364b16a7839a63d", "blockhash": "0000000000000000001e0dab787dd257d1dbfcb92a98c2207d5e1078be1f4165", "vout": [{"scriptPubKey": {"reqSigs": 1, "hex": "76a914484a6359529ca212dcfd486a4884ce83ce98d29188ac", "addresses": ["17bEmPQaMDqgqNiJWmo1e8v4cZ7udDv7Qm"], "asm": "OP_DUP OP_HASH160 484a6359529ca212dcfd486a4884ce83ce98d291 OP_EQUALVERIFY OP_CHECKSIG", "type": "pubkeyhash"}, "value": 0.03, "n": 0}, {"scriptPubKey": {"reqSigs": 1, "hex": "a914bf18eeaa45e8b88d9863f88c7a67bb8045920f3287", "addresses": ["3K7SrWULENdXtSz2yaHW7fm7bdv7eqoGYv"], "asm": "OP_HASH160 bf18eeaa45e8b88d9863f88c7a67bb8045920f32 OP_EQUAL", "type": "scripthash"}, "value": 4.32956587, "n": 1}], "hex": "02000000000101e8efd4e71ac8572d852e60a130d830386c69b79173112e76ff4973ad8f04ca4301000000171600149c6d020c6e6c295c89ed15d3e4a35a54e0dae1c7feffffff02c0c62d00000000001976a914484a6359529ca212dcfd486a4884ce83ce98d29188acab64ce190000000017a914bf18eeaa45e8b88d9863f88c7a67bb8045920f32870247304402203e941a3d84102b6107d54be40e8b1b6b506122c04b250827fb61d25ce2dba6a0022006fae84c88a890c037b6bf8735f8cdb2d9c9295e2df6e5723502148b4df1c3d90121028e1bbafd464c7c6f31a75f61780ee9727d7a5228ac0e83ebebaa9b1e97dcd14212490800", "vin": [{"txinwitness": ["304402203e941a3d84102b6107d54be40e8b1b6b506122c04b250827fb61d25ce2dba6a0022006fae84c88a890c037b6bf8735f8cdb2d9c9295e2df6e5723502148b4df1c3d901", "028e1bbafd464c7c6f31a75f61780ee9727d7a5228ac0e83ebebaa9b1e97dcd142"], "sequence": 4294967294, "scriptSig": {"hex": "1600149c6d020c6e6c295c89ed15d3e4a35a54e0dae1c7", "asm": "00149c6d020c6e6c295c89ed15d3e4a35a54e0dae1c7"}, "vout": 1, "txid": "43ca048fad7349ff762e117391b7696c3830d830a1602e852d57c81ae7d4efe8"}], "txid": "d78ddd1bd3ccb8ffa1bf85c18db24975e2e72727c664802b5a77042420c710a6", "blocktime": 1537872475, "version": 2, "confirmations": 11486, "time": 1537872475, "locktime": 542994, "vsize": 168, "size": 249}