{"hash": "d7907d6ad02ca37b7244abdfca2269938ea48468e6e739c4faefb753ae16ca65", "blockhash": "0000000000000000000e13cef7c366c0283d82e591d1acd082e914b08063cdf1", "vout": [{"scriptPubKey": {"reqSigs": 1, "hex": "a914e8c90024a22a6234cc1b33174dbb656e08c4091c87", "addresses": ["3NusUp47Hni6TYZphfniwxhfdHpSjSnLeE"], "asm": "OP_HASH160 e8c90024a22a6234cc1b33174dbb656e08c4091c OP_EQUAL", "type": "scripthash"}, "value": 0.01, "n": 0}, {"scriptPubKey": {"reqSigs": 1, "hex": "76a914d8f37ada33cb86479e81a184cecaffee6dd62b5a88ac", "addresses": ["1Ln8diTkCcLSHLddAQPxp1DM4ewkiutwKX"], "asm": "OP_DUP OP_HASH160 d8f37ada33cb86479e81a184cecaffee6dd62b5a OP_EQUALVERIFY OP_CHECKSIG", "type": "pubkeyhash"}, "value": 0.0087296, "n": 1}], "hex": "0100000001cca3898b949c82b2701b118e0843ca73f1fd58b57a7c84154acba6b0c6603c63010000006a4730440220207f5646586380ac6de778f153453b6c53d9fa5153278b942a638995e8a389e602205f0f12f35f36d73cf11baa091dd97e4373a83d4b9e394a1065de4be83601a4270121022a1cdb6038302f425315ce23c90765c8ea2eb00fb798b57495557813f564a842ffffffff0240420f000000000017a914e8c90024a22a6234cc1b33174dbb656e08c4091c8700520d00000000001976a914d8f37ada33cb86479e81a184cecaffee6dd62b5a88ac00000000", "vin": [{"sequence": 4294967295, "scriptSig": {"hex": "4730440220207f5646586380ac6de778f153453b6c53d9fa5153278b942a638995e8a389e602205f0f12f35f36d73cf11baa091dd97e4373a83d4b9e394a1065de4be83601a4270121022a1cdb6038302f425315ce23c90765c8ea2eb00fb798b57495557813f564a842", "asm": "30440220207f5646586380ac6de778f153453b6c53d9fa5153278b942a638995e8a389e602205f0f12f35f36d73cf11baa091dd97e4373a83d4b9e394a1065de4be83601a427[ALL] 022a1cdb6038302f425315ce23c90765c8ea2eb00fb798b57495557813f564a842"}, "vout": 1, "txid": "633c60c6b0a6cb4a15847c7ab558fdf173ca43088e111b70b2829c948b89a3cc"}], "txid": "d7907d6ad02ca37b7244abdfca2269938ea48468e6e739c4faefb753ae16ca65", "blocktime": 1537871767, "version": 1, "confirmations": 11491, "time": 1537871767, "locktime": 0, "vsize": 223, "size": 223}