{"hash": "d793203afde19a11da88d8bb512dcdd400e48525d6dba8e774793e42e7115beb", "blockhash": "0000000000000000000e13cef7c366c0283d82e591d1acd082e914b08063cdf1", "vout": [{"scriptPubKey": {"type": "nulldata", "hex": "6a146f6d6e69000000000000001f0000000118244f00", "asm": "OP_RETURN 6f6d6e69000000000000001f0000000118244f00"}, "value": 0.0, "n": 0}, {"scriptPubKey": {"reqSigs": 1, "hex": "76a9144fe1fb1abb8e93b0134816f9716532713e2dfbb288ac", "addresses": ["18HP6ai5mcbrsV5HTFXcH8cBDR1DSLfTiW"], "asm": "OP_DUP OP_HASH160 4fe1fb1abb8e93b0134816f9716532713e2dfbb2 OP_EQUALVERIFY OP_CHECKSIG", "type": "pubkeyhash"}, "value": 5.46e-06, "n": 1}, {"scriptPubKey": {"reqSigs": 1, "hex": "76a91446a8a27a7f51f84dc75ae07019df18ca39cecd2288ac", "addresses": ["17ScKNXo4cL8DyfWfcCWu1uJySQuJm7iKC"], "asm": "OP_DUP OP_HASH160 46a8a27a7f51f84dc75ae07019df18ca39cecd22 OP_EQUALVERIFY OP_CHECKSIG", "type": "pubkeyhash"}, "value": 0.57447821, "n": 2}], "hex": "0100000001ef742c301347dc09f9bed4303f6d25b426453149679a04a17f1b75e29867a8aa010000006a473044022021e0ca1fb421875541b7587a0a955e532513ed1eb1aa14897586e0113ea6824802205e4322369b0bfb8a52bdef603504fd3a7364799efc6b796fae9389212767c160012102b7042dc82d0ecbadc24910515789f34674fe32a285676c7f7b0c64f750b10e36feffffff030000000000000000166a146f6d6e69000000000000001f0000000118244f0022020000000000001976a9144fe1fb1abb8e93b0134816f9716532713e2dfbb288ac8d956c03000000001976a91446a8a27a7f51f84dc75ae07019df18ca39cecd2288acc0480800", "vin": [{"sequence": 4294967294, "scriptSig": {"hex": "473044022021e0ca1fb421875541b7587a0a955e532513ed1eb1aa14897586e0113ea6824802205e4322369b0bfb8a52bdef603504fd3a7364799efc6b796fae9389212767c160012102b7042dc82d0ecbadc24910515789f34674fe32a285676c7f7b0c64f750b10e36", "asm": "3044022021e0ca1fb421875541b7587a0a955e532513ed1eb1aa14897586e0113ea6824802205e4322369b0bfb8a52bdef603504fd3a7364799efc6b796fae9389212767c160[ALL] 02b7042dc82d0ecbadc24910515789f34674fe32a285676c7f7b0c64f750b10e36"}, "vout": 1, "txid": "aaa86798e2751b7fa1049a6749314526b4256d3f30d4bef909dc4713302c74ef"}], "txid": "d793203afde19a11da88d8bb512dcdd400e48525d6dba8e774793e42e7115beb", "blocktime": 1537871767, "version": 1, "confirmations": 11495, "time": 1537871767, "locktime": 542912, "vsize": 256, "size": 256}