{"hash": "5467cf0089e19063ec46709944f52309ddd977aec9077a388874eafba364a404", "blockhash": "0000000000000000001e0dab787dd257d1dbfcb92a98c2207d5e1078be1f4165", "vout": [{"scriptPubKey": {"reqSigs": 1, "hex": "a9140d93c877aae3c6b06bc0b70a608c0c649a441fd387", "addresses": ["32vokBitHh3H75Q1Ahzz9g9LCgCWusX4nA"], "asm": "OP_HASH160 0d93c877aae3c6b06bc0b70a608c0c649a441fd3 OP_EQUAL", "type": "scripthash"}, "value": 0.01041655, "n": 0}, {"scriptPubKey": {"reqSigs": 1, "hex": "00144d7fef61a54fa38605c11d06b1d22bc8f240c375", "addresses": ["bc1qf4l77cd9f73cvpwpr5rtr53tereypsm4zs0h7t"], "asm": "0 4d7fef61a54fa38605c11d06b1d22bc8f240c375", "type": "witness_v0_keyhash"}, "value": 0.00038445, "n": 1}], "hex": "010000000001013286ddca8298edd780362532020ff7d33a0b4bb1bcdb0d4d39fc5c01422adc050100000000ffffffff02f7e40f000000000017a9140d93c877aae3c6b06bc0b70a608c0c649a441fd3872d960000000000001600144d7fef61a54fa38605c11d06b1d22bc8f240c3750247304402205469916ff9207634990940dade280dfa6950c54c7fc94782b82f39e12f02215b0220668b443c12c653f85ed1b07c3dfc1d7a14eea3504a205663f53f58bde2dd82840121027b4d2c6a47cebea26919dda983ba23a6f73f119fce89db67702d381afd6a388a00000000", "vin": [{"txinwitness": ["304402205469916ff9207634990940dade280dfa6950c54c7fc94782b82f39e12f02215b0220668b443c12c653f85ed1b07c3dfc1d7a14eea3504a205663f53f58bde2dd828401", "027b4d2c6a47cebea26919dda983ba23a6f73f119fce89db67702d381afd6a388a"], "sequence": 4294967295, "scriptSig": {"hex": "", "asm": ""}, "vout": 1, "txid": "05dc2a42015cfc394d0ddbbcb14b0b3ad3f70f0232253680d7ed9882cadd8632"}], "txid": "d794fd23c11e76cc20d61e5f71f19e145f5bacc021346dc4566401a4c826f69c", "blocktime": 1537872475, "version": 1, "confirmations": 11486, "time": 1537872475, "locktime": 0, "vsize": 142, "size": 223}