{"hash": "7c6da091490d841cd6c355eda90870d7a4ebd2c27fe8c5737e9fc2d4014e5238", "blockhash": "0000000000000000001f0ddff1eddb255c1121bcd4da4f1bc9a0da00cae72433", "vout": [{"scriptPubKey": {"reqSigs": 1, "hex": "a9140d9d26d84ab66d10b5d53ea5c0a187ad960d4ced87", "addresses": ["32vzy8bMmRez6gcq6Q1YLJzancuy7BrxFm"], "asm": "OP_HASH160 0d9d26d84ab66d10b5d53ea5c0a187ad960d4ced OP_EQUAL", "type": "scripthash"}, "value": 0.13370379, "n": 0}], "hex": "02000000000101b6766965ef24cee2b27b459a8ecdfbc1662cfd3e5d87eaf6d062116f358b56720000000017160014d28ef317df72e635deb77749734418031f8a1c0afeffffff010b04cc000000000017a9140d9d26d84ab66d10b5d53ea5c0a187ad960d4ced8702483045022100bc7ceb32169c2227ee40db69fe1c00a2981a3fc387df7a938c2b22a084ea82f402200e20154f2a264e6d533759e180853d0a2b979ffde6fa313bc80ae55ce176350b012103120a533dcd49739c3e2be76dd3d3dfb36f461e836692fb0eb6df97f35622fb8a11490800", "vin": [{"txinwitness": ["3045022100bc7ceb32169c2227ee40db69fe1c00a2981a3fc387df7a938c2b22a084ea82f402200e20154f2a264e6d533759e180853d0a2b979ffde6fa313bc80ae55ce176350b01", "03120a533dcd49739c3e2be76dd3d3dfb36f461e836692fb0eb6df97f35622fb8a"], "sequence": 4294967294, "scriptSig": {"hex": "160014d28ef317df72e635deb77749734418031f8a1c0a", "asm": "0014d28ef317df72e635deb77749734418031f8a1c0a"}, "vout": 0, "txid": "72568b356f1162d0f6ea875d3efd2c66c1fbcd8e9a457bb2e2ce24ef656976b6"}], "txid": "d795b9ebbffb6a51f9be4ed9e4ff3983a73042b9c6530ef5090b556534c5a842", "blocktime": 1537872018, "version": 2, "confirmations": 11489, "time": 1537872018, "locktime": 542993, "vsize": 134, "size": 216}