{"hash": "d7990c8a90f37e000d53bce58f970a64ecfda14caf8ce6794cf9fc85db01e679", "blockhash": "00000000000000000018f53835495a110e01622372bf6ae95dc86f2b0ab887b0", "vout": [{"scriptPubKey": {"reqSigs": 1, "hex": "76a914328412c7e9a1cf57623221e61e83fac30d44de1088ac", "addresses": ["15c71DAGzZxSLVBzSVzmPVHZWwBhokvaJ8"], "asm": "OP_DUP OP_HASH160 328412c7e9a1cf57623221e61e83fac30d44de10 OP_EQUALVERIFY OP_CHECKSIG", "type": "pubkeyhash"}, "value": 0.000138, "n": 0}, {"scriptPubKey": {"reqSigs": 1, "hex": "76a9146427a8d0300f7994f6aaff9c93622b96923ef1ae88ac", "addresses": ["1A8a5mZcusT2UHbuuaPD4pJ4PUNF5WhMZE"], "asm": "OP_DUP OP_HASH160 6427a8d0300f7994f6aaff9c93622b96923ef1ae OP_EQUALVERIFY OP_CHECKSIG", "type": "pubkeyhash"}, "value": 0.0034101, "n": 1}], "hex": "0100000001b9bd752b7dede9af75ca7bcde274411394d2d8e1fef70bb253ffa2a31690bd96010000006a473044022051ad7f666d5de03ea7e82f93abf73447d006ce5ce7b044cce8f15a288adacc58022077c0f21c44cf3ff70189cdc094447f4089dedfb465474089573156b874dabbb201210321357aa6740f3dc60024b797a228ceb7789323c82fcaa7125a3135552e45e94cffffffff02e8350000000000001976a914328412c7e9a1cf57623221e61e83fac30d44de1088ac12340500000000001976a9146427a8d0300f7994f6aaff9c93622b96923ef1ae88ac00000000", "vin": [{"sequence": 4294967295, "scriptSig": {"hex": "473044022051ad7f666d5de03ea7e82f93abf73447d006ce5ce7b044cce8f15a288adacc58022077c0f21c44cf3ff70189cdc094447f4089dedfb465474089573156b874dabbb201210321357aa6740f3dc60024b797a228ceb7789323c82fcaa7125a3135552e45e94c", "asm": "3044022051ad7f666d5de03ea7e82f93abf73447d006ce5ce7b044cce8f15a288adacc58022077c0f21c44cf3ff70189cdc094447f4089dedfb465474089573156b874dabbb2[ALL] 0321357aa6740f3dc60024b797a228ceb7789323c82fcaa7125a3135552e45e94c"}, "vout": 1, "txid": "96bd9016a3a2ff53b20bf7fee1d8d294134174e2cd7bca75afe9ed7d2b75bdb9"}], "txid": "d7990c8a90f37e000d53bce58f970a64ecfda14caf8ce6794cf9fc85db01e679", "blocktime": 1537870928, "version": 1, "confirmations": 11514, "time": 1537870928, "locktime": 0, "vsize": 225, "size": 225}