{"hash": "d79a2246cb4f3ed1e9cf3d1f2ed33da03bfbe737e84be50234ac70fb06e47482", "blockhash": "00000000000000000017f5eb5941039fbcee6240d03bc1f2f8e35350df66a1d8", "vout": [{"scriptPubKey": {"reqSigs": 1, "hex": "76a91483ecd6b84e117b22b2d1340cabb4ffdec0dbaaf788ac", "addresses": ["1D2ZEyXayvUvXWZmLiE23DZQfbnngb1X6Q"], "asm": "OP_DUP OP_HASH160 83ecd6b84e117b22b2d1340cabb4ffdec0dbaaf7 OP_EQUALVERIFY OP_CHECKSIG", "type": "pubkeyhash"}, "value": 1.36, "n": 0}, {"scriptPubKey": {"reqSigs": 1, "hex": "76a9149a2136652a873979a2bd06d29111fce738b396bb88ac", "addresses": ["1F3xrBm8ZTWC6UoDsAQvvBghBkjxp8dH7F"], "asm": "OP_DUP OP_HASH160 9a2136652a873979a2bd06d29111fce738b396bb OP_EQUALVERIFY OP_CHECKSIG", "type": "pubkeyhash"}, "value": 0.2706, "n": 1}], "hex": "0100000003aa48e3a7a8d75e2b7fc4df0b31cbab874fa1f94e908b07fb7a471b7a5c8789cc010000006b483045022100d349c0e95ed2c44c72efc266cf319821baca5dfba844379341928a8efe89792202202da33969d53a06b92827155477627a4981d87b57aca1e0f1b8ff8383dcc921d1012103212d18881038039ac8f5ba86f7a29da16d0c54f37599cb71cabf57775da5c15effffffffb78a703fadf0a92ca067a62940fba7e741b079c7007422b0c1a043e4c9bd14b4000000006b483045022100ec16ee48e5c0d4866aa7eb756871d6ca78804fda3a43bd811f2e678f72b3dc5b0220768916c94f19e4e8335340dc9c0d27089075c9fa0fca014f5a29328357ef98810121038f76df6749129c1d88d13b20de75f686dd5288d66227b9379030e0d4decb010fffffffff6048c20e171209d98a40fe94e2d18049dafa7487aee209da96d107b4cca2793d000000006b483045022100f92b8a0fc4b6e9a481bae38470f1b21984bd4b5c94aa2c5dd33d77d4b7e01b0d02200d6c5098ae76baf670cc526f6a297a51fccd060e7c4fe599bd0f17e67db41e98012103b6da30b3e7ec58f9eed4f66f0443721a6f4d4466c743be8ebe32059c9d7acd07ffffffff0200321b08000000001976a91483ecd6b84e117b22b2d1340cabb4ffdec0dbaaf788ac20e79c01000000001976a9149a2136652a873979a2bd06d29111fce738b396bb88ac00000000", "vin": [{"sequence": 4294967295, "scriptSig": {"hex": "483045022100d349c0e95ed2c44c72efc266cf319821baca5dfba844379341928a8efe89792202202da33969d53a06b92827155477627a4981d87b57aca1e0f1b8ff8383dcc921d1012103212d18881038039ac8f5ba86f7a29da16d0c54f37599cb71cabf57775da5c15e", "asm": "3045022100d349c0e95ed2c44c72efc266cf319821baca5dfba844379341928a8efe89792202202da33969d53a06b92827155477627a4981d87b57aca1e0f1b8ff8383dcc921d1[ALL] 03212d18881038039ac8f5ba86f7a29da16d0c54f37599cb71cabf57775da5c15e"}, "vout": 1, "txid": "cc89875c7a1b477afb078b904ef9a14f87abcb310bdfc47f2b5ed7a8a7e348aa"}, {"sequence": 4294967295, "scriptSig": {"hex": "483045022100ec16ee48e5c0d4866aa7eb756871d6ca78804fda3a43bd811f2e678f72b3dc5b0220768916c94f19e4e8335340dc9c0d27089075c9fa0fca014f5a29328357ef98810121038f76df6749129c1d88d13b20de75f686dd5288d66227b9379030e0d4decb010f", "asm": "3045022100ec16ee48e5c0d4866aa7eb756871d6ca78804fda3a43bd811f2e678f72b3dc5b0220768916c94f19e4e8335340dc9c0d27089075c9fa0fca014f5a29328357ef9881[ALL] 038f76df6749129c1d88d13b20de75f686dd5288d66227b9379030e0d4decb010f"}, "vout": 0, "txid": "b414bdc9e443a0c1b0227400c779b041e7a7fb4029a667a02ca9f0ad3f708ab7"}, {"sequence": 4294967295, "scriptSig": {"hex": "483045022100f92b8a0fc4b6e9a481bae38470f1b21984bd4b5c94aa2c5dd33d77d4b7e01b0d02200d6c5098ae76baf670cc526f6a297a51fccd060e7c4fe599bd0f17e67db41e98012103b6da30b3e7ec58f9eed4f66f0443721a6f4d4466c743be8ebe32059c9d7acd07", "asm": "3045022100f92b8a0fc4b6e9a481bae38470f1b21984bd4b5c94aa2c5dd33d77d4b7e01b0d02200d6c5098ae76baf670cc526f6a297a51fccd060e7c4fe599bd0f17e67db41e98[ALL] 03b6da30b3e7ec58f9eed4f66f0443721a6f4d4466c743be8ebe32059c9d7acd07"}, "vout": 0, "txid": "3d79a2ccb407d196da09e2ae8774fada4980d1e294fe408ad90912170ec24860"}], "txid": "d79a2246cb4f3ed1e9cf3d1f2ed33da03bfbe737e84be50234ac70fb06e47482", "blocktime": 1537874412, "version": 1, "confirmations": 11467, "time": 1537874412, "locktime": 0, "vsize": 522, "size": 522}