{"hash": "e834dfc9fd52e41b93cf62c3bedf29d8601e243c0992de6a77f3f8d41bf30fdc", "blockhash": "0000000000000000000e13cef7c366c0283d82e591d1acd082e914b08063cdf1", "vout": [{"scriptPubKey": {"reqSigs": 1, "hex": "76a9146f4b18ea32188c2c6c117c6be7d98ca1c5ea3b4288ac", "addresses": ["1B9Ty9WUG3Typ6tQDdnR6nVr6zQML7R3kK"], "asm": "OP_DUP OP_HASH160 6f4b18ea32188c2c6c117c6be7d98ca1c5ea3b42 OP_EQUALVERIFY OP_CHECKSIG", "type": "pubkeyhash"}, "value": 0.0025636, "n": 0}, {"scriptPubKey": {"reqSigs": 1, "hex": "a91450be72390c75fe8efab157c3b416ba090792103c87", "addresses": ["393x8KghQHQuKFp6k8PzPCvhaf94JERcar"], "asm": "OP_HASH160 50be72390c75fe8efab157c3b416ba090792103c OP_EQUAL", "type": "scripthash"}, "value": 0.00999371, "n": 1}], "hex": "0200000000010204fa750f8a5eaa8272e4a991542c086e22791b1a2b2b0411ae87ed617830f88a0000000017160014fa8d879d334bee3ac517e8fdd0dca83fc537d193feffffffea78916916e332db4845511f43328b222184a1a09c93d2a7ff795c57e46c9039130000001716001479ae555f5780ea8273f5431ce9e58f1fc280b2e9feffffff0268e90300000000001976a9146f4b18ea32188c2c6c117c6be7d98ca1c5ea3b4288accb3f0f000000000017a91450be72390c75fe8efab157c3b416ba090792103c8702483045022100bcd7b92511f6c821b8abdef8da682fd59e807b6d6ce8c92ca31fc773468a10d202202851297e8d3879bf5968d5a129c9178ce66432838da3a6d4cd7bf14e736e05da0121036653c4640a00fa6c0f9205303a56b31a1fc71b74b1e35fae8f6b8b8526aa66c702483045022100dd481fb249b2ec243dc63de051c17874de01304920e8383afb8bd5b9f3e5683902205bd9a9030af1ae00c351753f9156e0a349b7f9b499540b02e50502f58994e72f0121026b583b668119be31c205291424d9defb0e970d3c4939b6a6e3a88e87a670babd10490800", "vin": [{"txinwitness": ["3045022100bcd7b92511f6c821b8abdef8da682fd59e807b6d6ce8c92ca31fc773468a10d202202851297e8d3879bf5968d5a129c9178ce66432838da3a6d4cd7bf14e736e05da01", "036653c4640a00fa6c0f9205303a56b31a1fc71b74b1e35fae8f6b8b8526aa66c7"], "sequence": 4294967294, "scriptSig": {"hex": "160014fa8d879d334bee3ac517e8fdd0dca83fc537d193", "asm": "0014fa8d879d334bee3ac517e8fdd0dca83fc537d193"}, "vout": 0, "txid": "8af8307861ed87ae11042b2b1a1b79226e082c5491a9e47282aa5e8a0f75fa04"}, {"txinwitness": ["3045022100dd481fb249b2ec243dc63de051c17874de01304920e8383afb8bd5b9f3e5683902205bd9a9030af1ae00c351753f9156e0a349b7f9b499540b02e50502f58994e72f01", "026b583b668119be31c205291424d9defb0e970d3c4939b6a6e3a88e87a670babd"], "sequence": 4294967294, "scriptSig": {"hex": "16001479ae555f5780ea8273f5431ce9e58f1fc280b2e9", "asm": "001479ae555f5780ea8273f5431ce9e58f1fc280b2e9"}, "vout": 19, "txid": "39906ce4575c79ffa7d2939ca0a18421228b32431f514548db32e316699178ea"}], "txid": "d79f26dc9baaf1eb193db04bc6c3d0e1ac4f85a7f90fd3bcb0a49963191359e5", "blocktime": 1537871767, "version": 2, "confirmations": 11495, "time": 1537871767, "locktime": 542992, "vsize": 259, "size": 422}