{"hash": "d7a314b5ca21a7ff4cc96a3170dece6bae85f5076e698fa1d7d4f41700063e7c", "blockhash": "0000000000000000001f0ddff1eddb255c1121bcd4da4f1bc9a0da00cae72433", "vout": [{"scriptPubKey": {"reqSigs": 1, "hex": "76a9147a81e96c913334c1a85b8c217841ec285a21c63a88ac", "addresses": ["1CAm4qPdLAuhmA4SFM7hgy1gRbHrpSnMNJ"], "asm": "OP_DUP OP_HASH160 7a81e96c913334c1a85b8c217841ec285a21c63a OP_EQUALVERIFY OP_CHECKSIG", "type": "pubkeyhash"}, "value": 0.08814685, "n": 0}, {"scriptPubKey": {"reqSigs": 1, "hex": "76a9143dbcdff5c39f89a3ce7773921ae7632f456a97be88ac", "addresses": ["16dSUxSYgMSJTDzdVEugYsuzN2qviyKiYb"], "asm": "OP_DUP OP_HASH160 3dbcdff5c39f89a3ce7773921ae7632f456a97be OP_EQUALVERIFY OP_CHECKSIG", "type": "pubkeyhash"}, "value": 1.0508689, "n": 1}], "hex": "01000000017c99d3fd8c7f52fecd2cc1cacdde2525328bb1f04a34b3291cba3a8695e43e01010000006a47304402202d985bae16a6fe290de89d4c8abbcc97940f6ddf109dd6e46e350b4aa821f2ca02206eddddd074c40b082e1f3da1f47aca772146c45a70b5d065636228f170341ff6012102b89ce50bba1d608275dc8644d139b0475c4d3c881f3c8a459a3179ab7291cf27ffffffff025d808600000000001976a9147a81e96c913334c1a85b8c217841ec285a21c63a88acaa7f4306000000001976a9143dbcdff5c39f89a3ce7773921ae7632f456a97be88ac00000000", "vin": [{"sequence": 4294967295, "scriptSig": {"hex": "47304402202d985bae16a6fe290de89d4c8abbcc97940f6ddf109dd6e46e350b4aa821f2ca02206eddddd074c40b082e1f3da1f47aca772146c45a70b5d065636228f170341ff6012102b89ce50bba1d608275dc8644d139b0475c4d3c881f3c8a459a3179ab7291cf27", "asm": "304402202d985bae16a6fe290de89d4c8abbcc97940f6ddf109dd6e46e350b4aa821f2ca02206eddddd074c40b082e1f3da1f47aca772146c45a70b5d065636228f170341ff6[ALL] 02b89ce50bba1d608275dc8644d139b0475c4d3c881f3c8a459a3179ab7291cf27"}, "vout": 1, "txid": "013ee495863aba1c29b3344af0b18b322525decdcac12ccdfe527f8cfdd3997c"}], "txid": "d7a314b5ca21a7ff4cc96a3170dece6bae85f5076e698fa1d7d4f41700063e7c", "blocktime": 1537872018, "version": 1, "confirmations": 11489, "time": 1537872018, "locktime": 0, "vsize": 225, "size": 225}