{"hash": "fcafd0fcf582984a9002050b8b4fb0d804c65269ffac9a387eb1ef1814dccc19", "blockhash": "00000000000000000017f5eb5941039fbcee6240d03bc1f2f8e35350df66a1d8", "vout": [{"scriptPubKey": {"reqSigs": 1, "hex": "a914daf4827f79aef2abf65f1951fd12e9adca5d7d8d87", "addresses": ["3Mek9CUGo99byMrLKCfMSakCUF6hqR3vTU"], "asm": "OP_HASH160 daf4827f79aef2abf65f1951fd12e9adca5d7d8d OP_EQUAL", "type": "scripthash"}, "value": 0.73865089, "n": 0}, {"scriptPubKey": {"reqSigs": 1, "hex": "a9140ef8cca79bcfca85d0a47210089bf5371032985c87", "addresses": ["334BS7jsdztDPAZx1NcijumDKKdSRkEX36"], "asm": "OP_HASH160 0ef8cca79bcfca85d0a47210089bf5371032985c OP_EQUAL", "type": "scripthash"}, "value": 0.05, "n": 1}, {"scriptPubKey": {"reqSigs": 1, "hex": "a9148257ae068988bcbbfd3287d358642e7cb09d103b87", "addresses": ["3DaCoabodKbHRuk3wnt1RS5ecTYKcrH4h7"], "asm": "OP_HASH160 8257ae068988bcbbfd3287d358642e7cb09d103b OP_EQUAL", "type": "scripthash"}, "value": 0.003, "n": 2}, {"scriptPubKey": {"reqSigs": 1, "hex": "a9149cfa565bae918fe72c5888ef09f19573dded20d087", "addresses": ["3G13EDGfPZqYaLRMP47MEGV1tvysBZCeYE"], "asm": "OP_HASH160 9cfa565bae918fe72c5888ef09f19573dded20d0 OP_EQUAL", "type": "scripthash"}, "value": 0.000368, "n": 3}], "hex": "02000000000102297f101d2718836243870ea6d80400c0cb8b96806bd3dcfb97afa2720181ad4a1a0000002322002033218e021b9bc7c48fab42e200b952f7f8e20a9e8483c1c895e30cafa93215ddffffffff37116aa95079865160498459b24050ceb3da0c1c5f55c9be07d3efcc047516ee00000000fc00473044022043c7b438c868355817a48a1e5b36261c65bc04431edf6ace92ea64287d1cc79502204da3845686d7fc4cc680b986417943f449e7e8cfd5cd65937725a91dff241c2f0147304402200cd180b184dc0f3f5c4d7fc7f1acbd0ac7c6e4af9f052965f5934aa78466e97d02206d005af66023da9f705285730959c4f6b6508acd39ad173687bbe5b5abef4a30014c695221023bfc72f54379f9e90c5850c7d17ac7ba6eb01ef8eadacf12ada9e4b4e7e10780210277f90ccf8ff72a6800e571f848748a9fc29603292692917e8741cc19fe343907210265bb742073571af346395eebcb162fb75c1793eef2f5ae7c6ea6022c2de09c1153aeffffffff04811767040000000017a914daf4827f79aef2abf65f1951fd12e9adca5d7d8d87404b4c000000000017a9140ef8cca79bcfca85d0a47210089bf5371032985c87e09304000000000017a9148257ae068988bcbbfd3287d358642e7cb09d103b87c08f00000000000017a9149cfa565bae918fe72c5888ef09f19573dded20d087040047304402207f62cb679091d696715edf521d4704a1f476e437d0bcb9886add6d93f41d25c1022026adfa5c3fb110ae0c7520ee4d75c8ccbb69831d3a4ffcad4a53b8a76afac80b014730440220398071f112aaf4df8a1030392dc2566f26bc836d08ff76efbe74655e9c580a5502206941255bb8f18bc560f085974e5e6c3a1c4814ff5691d617567c7a0c4d9a626601695221027710f08825bab075a998cb6fd0d7b7eec38664e97f5bb25529f23897288946e821027848d40b8e3b6aab4d9ff37c17283dd654acf70afa1fc28a3e57aeffd489795621038a29fe33397a242578c4d2247be4ea49a218e9d30bc7a403be789f684936074c53ae0000000000", "vin": [{"txinwitness": ["", "304402207f62cb679091d696715edf521d4704a1f476e437d0bcb9886add6d93f41d25c1022026adfa5c3fb110ae0c7520ee4d75c8ccbb69831d3a4ffcad4a53b8a76afac80b01", "30440220398071f112aaf4df8a1030392dc2566f26bc836d08ff76efbe74655e9c580a5502206941255bb8f18bc560f085974e5e6c3a1c4814ff5691d617567c7a0c4d9a626601", "5221027710f08825bab075a998cb6fd0d7b7eec38664e97f5bb25529f23897288946e821027848d40b8e3b6aab4d9ff37c17283dd654acf70afa1fc28a3e57aeffd489795621038a29fe33397a242578c4d2247be4ea49a218e9d30bc7a403be789f684936074c53ae"], "sequence": 4294967295, "scriptSig": {"hex": "22002033218e021b9bc7c48fab42e200b952f7f8e20a9e8483c1c895e30cafa93215dd", "asm": "002033218e021b9bc7c48fab42e200b952f7f8e20a9e8483c1c895e30cafa93215dd"}, "vout": 26, "txid": "4aad810172a2af97fbdcd36b80968bcbc00004d8a60e8743628318271d107f29"}, {"sequence": 4294967295, "scriptSig": {"hex": "00473044022043c7b438c868355817a48a1e5b36261c65bc04431edf6ace92ea64287d1cc79502204da3845686d7fc4cc680b986417943f449e7e8cfd5cd65937725a91dff241c2f0147304402200cd180b184dc0f3f5c4d7fc7f1acbd0ac7c6e4af9f052965f5934aa78466e97d02206d005af66023da9f705285730959c4f6b6508acd39ad173687bbe5b5abef4a30014c695221023bfc72f54379f9e90c5850c7d17ac7ba6eb01ef8eadacf12ada9e4b4e7e10780210277f90ccf8ff72a6800e571f848748a9fc29603292692917e8741cc19fe343907210265bb742073571af346395eebcb162fb75c1793eef2f5ae7c6ea6022c2de09c1153ae", "asm": "0 3044022043c7b438c868355817a48a1e5b36261c65bc04431edf6ace92ea64287d1cc79502204da3845686d7fc4cc680b986417943f449e7e8cfd5cd65937725a91dff241c2f[ALL] 304402200cd180b184dc0f3f5c4d7fc7f1acbd0ac7c6e4af9f052965f5934aa78466e97d02206d005af66023da9f705285730959c4f6b6508acd39ad173687bbe5b5abef4a30[ALL] 5221023bfc72f54379f9e90c5850c7d17ac7ba6eb01ef8eadacf12ada9e4b4e7e10780210277f90ccf8ff72a6800e571f848748a9fc29603292692917e8741cc19fe343907210265bb742073571af346395eebcb162fb75c1793eef2f5ae7c6ea6022c2de09c1153ae"}, "vout": 0, "txid": "ee167504ccefd307bec9555f1c0cdab3ce5040b25984496051867950a96a1137"}], "txid": "d7a687cdf4ba999a7431ed72b343a9c7420c4fd7650d394424179a39ea8c69a6", "blocktime": 1537874412, "version": 2, "confirmations": 11467, "time": 1537874412, "locktime": 0, "vsize": 571, "size": 762}