{"hash": "d7a8de08a3d2b5da7f9bb07aff049c548cab415e5725fb9adfd0f089ce278b88", "blockhash": "0000000000000000001e0dab787dd257d1dbfcb92a98c2207d5e1078be1f4165", "vout": [{"scriptPubKey": {"reqSigs": 1, "hex": "76a91429e0485c31b9b88c2e93d8ada13e313d0d95681688ac", "addresses": ["14pRPJEuFK6yz992ktrTZojP6M5kxVTgDS"], "asm": "OP_DUP OP_HASH160 29e0485c31b9b88c2e93d8ada13e313d0d956816 OP_EQUALVERIFY OP_CHECKSIG", "type": "pubkeyhash"}, "value": 0.22963241, "n": 0}, {"scriptPubKey": {"reqSigs": 1, "hex": "76a91471de06c9eec6e1f802b1af8807240bceb688ea6388ac", "addresses": ["1BP5LMHkhv5hd5CxSdSvxfmvHPm2MBb48k"], "asm": "OP_DUP OP_HASH160 71de06c9eec6e1f802b1af8807240bceb688ea63 OP_EQUALVERIFY OP_CHECKSIG", "type": "pubkeyhash"}, "value": 0.00781372, "n": 1}], "hex": "0200000001bc80697f3f8d363242b6a9a6a4937a5df4ee6bcc8e1f722b1694170e424f9df9010000006b483045022100ff4236869441dad7ddb87f4b0f1571c24d8dfe62c364284e8b6b8b07c3fa701a0220406dc217eeb1c9f0f2756a00c95e90603fdd31c0d3a378d1cb01bd1398a794550121020706922bc0a1bbcd7082b28eda8ccd8f098d8964be64d905bb42b94d91e288defeffffff0229645e01000000001976a91429e0485c31b9b88c2e93d8ada13e313d0d95681688ac3cec0b00000000001976a91471de06c9eec6e1f802b1af8807240bceb688ea6388ac12490800", "vin": [{"sequence": 4294967294, "scriptSig": {"hex": "483045022100ff4236869441dad7ddb87f4b0f1571c24d8dfe62c364284e8b6b8b07c3fa701a0220406dc217eeb1c9f0f2756a00c95e90603fdd31c0d3a378d1cb01bd1398a794550121020706922bc0a1bbcd7082b28eda8ccd8f098d8964be64d905bb42b94d91e288de", "asm": "3045022100ff4236869441dad7ddb87f4b0f1571c24d8dfe62c364284e8b6b8b07c3fa701a0220406dc217eeb1c9f0f2756a00c95e90603fdd31c0d3a378d1cb01bd1398a79455[ALL] 020706922bc0a1bbcd7082b28eda8ccd8f098d8964be64d905bb42b94d91e288de"}, "vout": 1, "txid": "f99d4f420e1794162b721f8ecc6beef45d7a93a4a6a9b64232368d3f7f6980bc"}], "txid": "d7a8de08a3d2b5da7f9bb07aff049c548cab415e5725fb9adfd0f089ce278b88", "blocktime": 1537872475, "version": 2, "confirmations": 11486, "time": 1537872475, "locktime": 542994, "vsize": 226, "size": 226}