{"hash": "450c609e3beb7fad386a62fae771280371140d35183ba721e007e73a380cdec8", "blockhash": "0000000000000000001e0dab787dd257d1dbfcb92a98c2207d5e1078be1f4165", "vout": [{"scriptPubKey": {"reqSigs": 1, "hex": "76a9142491f62e219532f0a9115d4edc6eec914fa0964688ac", "addresses": ["14LNBVv4yfQT2Yb7aKYVXrhX72oMyDvKe7"], "asm": "OP_DUP OP_HASH160 2491f62e219532f0a9115d4edc6eec914fa09646 OP_EQUALVERIFY OP_CHECKSIG", "type": "pubkeyhash"}, "value": 0.00280323, "n": 0}, {"scriptPubKey": {"reqSigs": 1, "hex": "a9146c2648986837651e2fc1a9ba8884a422c940434387", "addresses": ["3BYrmFWHSW3wnAJR3EGbFZXCvLNJB7Y57X"], "asm": "OP_HASH160 6c2648986837651e2fc1a9ba8884a422c9404343 OP_EQUAL", "type": "scripthash"}, "value": 0.00017181, "n": 1}], "hex": "010000000001019ef32be16b608b9d302d67db5ca6ba711ba3446420e038a8475255f925416bf5040000002322002044291e084fa18941234997e3f489f41885e891c0d3f217a6a1bd7188dee0979fffffffff0203470400000000001976a9142491f62e219532f0a9115d4edc6eec914fa0964688ac1d4300000000000017a9146c2648986837651e2fc1a9ba8884a422c940434387040047304402203245c191111a9814fac8096069cfe3a5958395d4be8cda759b94ec8b5ef824f302202611120628717a5294bd74b67c13bcbb90bb2c4e46157e92d1e45a7c45cde8f301483045022100bbc2e0980e32344229738a43d4423c25f2e516ea5d2a676b91ca83b767a6c41802203873092148955ae3cdf0f2cbf9a3a30db8d3bcb3e1713277ee29270c46a144ef01475221022f101cf382fea36b12a25735aca2ad0a1050a5b289fade91fa15e0228e73dacb210297d3a0c3e63b20b9e6f3ace4d89e21364009021bc5359dc849fc63b9f48feba552ae00000000", "vin": [{"txinwitness": ["", "304402203245c191111a9814fac8096069cfe3a5958395d4be8cda759b94ec8b5ef824f302202611120628717a5294bd74b67c13bcbb90bb2c4e46157e92d1e45a7c45cde8f301", "3045022100bbc2e0980e32344229738a43d4423c25f2e516ea5d2a676b91ca83b767a6c41802203873092148955ae3cdf0f2cbf9a3a30db8d3bcb3e1713277ee29270c46a144ef01", "5221022f101cf382fea36b12a25735aca2ad0a1050a5b289fade91fa15e0228e73dacb210297d3a0c3e63b20b9e6f3ace4d89e21364009021bc5359dc849fc63b9f48feba552ae"], "sequence": 4294967295, "scriptSig": {"hex": "22002044291e084fa18941234997e3f489f41885e891c0d3f217a6a1bd7188dee0979f", "asm": "002044291e084fa18941234997e3f489f41885e891c0d3f217a6a1bd7188dee0979f"}, "vout": 4, "txid": "f56b4125f9555247a838e0206444a31b71baa65cdb672d309d8b606be12bf39e"}], "txid": "d7a9b1668a3e386a02ad93a67c8201f55e38a5d5d040543ac889de5e5a5696b1", "blocktime": 1537872475, "version": 1, "confirmations": 11486, "time": 1537872475, "locktime": 0, "vsize": 208, "size": 373}