{"hash": "d7a92e22580104de0fdbd698db0be7df3bee98692f507fa775833d9b5dabeb79", "blockhash": "0000000000000000001f0ddff1eddb255c1121bcd4da4f1bc9a0da00cae72433", "vout": [{"scriptPubKey": {"reqSigs": 1, "hex": "76a914f4f09fb06fd7ab5bdef4108c278c7c47213d1cd988ac", "addresses": ["1PL88e9DFiHhvcMGymcSFXbmq3yy5HVRzn"], "asm": "OP_DUP OP_HASH160 f4f09fb06fd7ab5bdef4108c278c7c47213d1cd9 OP_EQUALVERIFY OP_CHECKSIG", "type": "pubkeyhash"}, "value": 0.0010443, "n": 0}, {"scriptPubKey": {"reqSigs": 1, "hex": "76a9147fa1a4958b7df03775ca7a4583992dacbc0ea2ce88ac", "addresses": ["1CdrTWVgwLpwCh5KTV2J4TRqNfU2X4VW5c"], "asm": "OP_DUP OP_HASH160 7fa1a4958b7df03775ca7a4583992dacbc0ea2ce OP_EQUALVERIFY OP_CHECKSIG", "type": "pubkeyhash"}, "value": 0.00218679, "n": 1}], "hex": "010000000124b90207fc5a02213e85cf1f192f4dcb57afae53f44c64738d820677baed2d300f0000006b483045022100d5df06bed6340321816c4695ec1afbb331fe2da983d18a7b1bb67fa13918206a0220400163f31eb33e9284929b1461434b70fc792556db77c891fc0b64a3db473b090121034841bd38e2227b4535f88a28e31db46116ba1a27fe7a538af37f8b10fa443628ffffffff02ee970100000000001976a914f4f09fb06fd7ab5bdef4108c278c7c47213d1cd988ac37560300000000001976a9147fa1a4958b7df03775ca7a4583992dacbc0ea2ce88ac00000000", "vin": [{"sequence": 4294967295, "scriptSig": {"hex": "483045022100d5df06bed6340321816c4695ec1afbb331fe2da983d18a7b1bb67fa13918206a0220400163f31eb33e9284929b1461434b70fc792556db77c891fc0b64a3db473b090121034841bd38e2227b4535f88a28e31db46116ba1a27fe7a538af37f8b10fa443628", "asm": "3045022100d5df06bed6340321816c4695ec1afbb331fe2da983d18a7b1bb67fa13918206a0220400163f31eb33e9284929b1461434b70fc792556db77c891fc0b64a3db473b09[ALL] 034841bd38e2227b4535f88a28e31db46116ba1a27fe7a538af37f8b10fa443628"}, "vout": 15, "txid": "302dedba7706828d73644cf453aeaf57cb4d2f191fcf853e21025afc0702b924"}], "txid": "d7a92e22580104de0fdbd698db0be7df3bee98692f507fa775833d9b5dabeb79", "blocktime": 1537872018, "version": 1, "confirmations": 11489, "time": 1537872018, "locktime": 0, "vsize": 226, "size": 226}