{"hash": "d7aacbcd9ebc856abf1a3227da1295ec794cc828819e45065c35a5e369b5311c", "blockhash": "0000000000000000000e13cef7c366c0283d82e591d1acd082e914b08063cdf1", "vout": [{"scriptPubKey": {"reqSigs": 1, "hex": "a9149c56492b65299160c1b2ae6151cdf7b0f0d1838d87", "addresses": ["3FwehiK1Njx1YGrQVmN9GpkAvHhqtdbmpL"], "asm": "OP_HASH160 9c56492b65299160c1b2ae6151cdf7b0f0d1838d OP_EQUAL", "type": "scripthash"}, "value": 0.00156055, "n": 0}, {"scriptPubKey": {"reqSigs": 1, "hex": "76a9145466a3b9bf3805cb7baef9a88f68dbb693191f4888ac", "addresses": ["18hGidpt9qfKJYk27oxVW9DKuewqYqiocC"], "asm": "OP_DUP OP_HASH160 5466a3b9bf3805cb7baef9a88f68dbb693191f48 OP_EQUALVERIFY OP_CHECKSIG", "type": "pubkeyhash"}, "value": 0.02709393, "n": 1}], "hex": "0100000001b965704a3b40a4bbb71987d71a3cfbe5de5a45d1df29c0f087a8a132aa37085d010000006b483045022100fb331b914b73c5fe03a347264bf7037b73ef292d620f1bd20d1a822b3adb8254022063443d0f6a2eb9e7574066e05cd4d511d31acabfcd988c07bbb3f8079e0daa980121036811a48bd40e795d1504a8620396fb3c4f886a125769397a488b518115582167ffffffff02976102000000000017a9149c56492b65299160c1b2ae6151cdf7b0f0d1838d8791572900000000001976a9145466a3b9bf3805cb7baef9a88f68dbb693191f4888ac00000000", "vin": [{"sequence": 4294967295, "scriptSig": {"hex": "483045022100fb331b914b73c5fe03a347264bf7037b73ef292d620f1bd20d1a822b3adb8254022063443d0f6a2eb9e7574066e05cd4d511d31acabfcd988c07bbb3f8079e0daa980121036811a48bd40e795d1504a8620396fb3c4f886a125769397a488b518115582167", "asm": "3045022100fb331b914b73c5fe03a347264bf7037b73ef292d620f1bd20d1a822b3adb8254022063443d0f6a2eb9e7574066e05cd4d511d31acabfcd988c07bbb3f8079e0daa98[ALL] 036811a48bd40e795d1504a8620396fb3c4f886a125769397a488b518115582167"}, "vout": 1, "txid": "5d0837aa32a1a887f0c029dfd1455adee5fb3c1ad78719b7bba4403b4a7065b9"}], "txid": "d7aacbcd9ebc856abf1a3227da1295ec794cc828819e45065c35a5e369b5311c", "blocktime": 1537871767, "version": 1, "confirmations": 11495, "time": 1537871767, "locktime": 0, "vsize": 224, "size": 224}