{"hash": "d7ae10cedfa3ab73065ca3a83a13f134dcd1059be093db9745b44e563ddc1744", "blockhash": "0000000000000000001f76057863aec43deb6fa401d9628bb513d65a8098bfab", "vout": [{"scriptPubKey": {"reqSigs": 1, "hex": "a9142230780d7d8fd7cb798786e5634cd5ce6428f7d287", "addresses": ["34onxkLo1kCo1oXobHya6xHGf8bgQVAGwR"], "asm": "OP_HASH160 2230780d7d8fd7cb798786e5634cd5ce6428f7d2 OP_EQUAL", "type": "scripthash"}, "value": 0.189, "n": 0}, {"scriptPubKey": {"reqSigs": 1, "hex": "76a914a520c86a08366941cd90d22e11ac1c7eefa2db3788ac", "addresses": ["1G47mSr3oANXMafVrR8UC4pzV7FEAzo3r9"], "asm": "OP_DUP OP_HASH160 a520c86a08366941cd90d22e11ac1c7eefa2db37 OP_EQUALVERIFY OP_CHECKSIG", "type": "pubkeyhash"}, "value": 0.04483744, "n": 1}], "hex": "010000000157e267e0c6aa0e478f355ff7b55f470af9f54739cb9ee41a9dd6038d55b6e4e2000000006b483045022100e7cf649f7cf51b19a8bd7fe53ade886a450e0285079e16e849a6f80482643269022053cde4ac57d6eba9cb82fb48508dfa67ab43e36f78701e27b6c891bbf5f84540012103f3f44c9e80e2cedc1a2909631a3adea8866ee32187f74d0912387359b0ff36a2ffffffff02206420010000000017a9142230780d7d8fd7cb798786e5634cd5ce6428f7d287a06a4400000000001976a914a520c86a08366941cd90d22e11ac1c7eefa2db3788ac00000000", "vin": [{"sequence": 4294967295, "scriptSig": {"hex": "483045022100e7cf649f7cf51b19a8bd7fe53ade886a450e0285079e16e849a6f80482643269022053cde4ac57d6eba9cb82fb48508dfa67ab43e36f78701e27b6c891bbf5f84540012103f3f44c9e80e2cedc1a2909631a3adea8866ee32187f74d0912387359b0ff36a2", "asm": "3045022100e7cf649f7cf51b19a8bd7fe53ade886a450e0285079e16e849a6f80482643269022053cde4ac57d6eba9cb82fb48508dfa67ab43e36f78701e27b6c891bbf5f84540[ALL] 03f3f44c9e80e2cedc1a2909631a3adea8866ee32187f74d0912387359b0ff36a2"}, "vout": 0, "txid": "e2e4b6558d03d69d1ae49ecb3947f5f90a475fb5f75f358f470eaac6e067e257"}], "txid": "d7ae10cedfa3ab73065ca3a83a13f134dcd1059be093db9745b44e563ddc1744", "blocktime": 1537873891, "version": 1, "confirmations": 11475, "time": 1537873891, "locktime": 0, "vsize": 224, "size": 224}