{"hash": "7780af6fefc081ced83d47383d0054ce7c4ae44f0eaed6f983e36c0a889cc3b6", "blockhash": "0000000000000000001cda96e906b7601b7a6fb1a3b62bca570a9e5d8f4b3de1", "vout": [{"scriptPubKey": {"reqSigs": 1, "hex": "a91430897cc6c9d69f6a2c2f1c651d51f22219f1a4f687", "addresses": ["367f4YWz1VCFaqBqwbTrzwi2b1h2U3w1AF"], "asm": "OP_HASH160 30897cc6c9d69f6a2c2f1c651d51f22219f1a4f6 OP_EQUAL", "type": "scripthash"}, "value": 1.9412235, "n": 0}, {"scriptPubKey": {"reqSigs": 1, "hex": "a914fb925ec5f00b08b26562528ebeb0774ce4cf084487", "addresses": ["3QdCsg1y7WNNFVTrSe2SoHcJo7X1SjELWS"], "asm": "OP_HASH160 fb925ec5f00b08b26562528ebeb0774ce4cf0844 OP_EQUAL", "type": "scripthash"}, "value": 2.05583464, "n": 1}], "hex": "010000000001022c74f853602f740cc458b3d2b176efa9db6dd0185e68f016f0e855130025a29b0000000023220020bcf9f822194145acea0f3235f4107b5bf1a91b6b9f8489f63bf79ec29b360913fffffffffa76761aa444f25a01627df8171191ce249d9559493c46523f8622deef88349a0000000023220020bcf9f822194145acea0f3235f4107b5bf1a91b6b9f8489f63bf79ec29b360913ffffffff026e12920b0000000017a91430897cc6c9d69f6a2c2f1c651d51f22219f1a4f68768f4400c0000000017a914fb925ec5f00b08b26562528ebeb0774ce4cf0844870400473044022003fedc9ebab53ee8d03400e8f7037ed2e1afa6605684621bedc196dec89f92fc022010d886609915f25c0db0aded582d68791dc4d010dd63f9e174286f4663705f3b0147304402205ecddd1212641d04b4090d2109dcda7ff1cf0b87e7b93666e7fdedc9a21b5c2302207c5451fed995eaaf32e078d287bf2b43761054a3df133dfacb8695b5cb41034e01695221026c8f72b9e63db63907115e65d4da86eaae595b22fdc85ec75301bb4adbf203582103806535be3e3920e5eedee92de5714188fd6a784f2bf7b04f87de0b9c3ae1ecdb21024b23bfdce2afcae7e28c42f7f79aa100f22931712c52d7414a526ba494d44a2553ae0400473044022008a71ba14034a53402f6685cea5f6358588ecb81172db4ee1b8f33eeb9a676ac02202457273a169a88c6b9ed49aeb0311c621ee1ce71176a4d8512d115fe40be8b4b01483045022100bb9731a9f5f9a643950283256d7b73801e3b34f1bf42ce1145d7bd5f0f5dc48802203045c426c9a101a3899a743bdbbf3eb52f29eac817a7079d40fa4cf5e86f404101695221026c8f72b9e63db63907115e65d4da86eaae595b22fdc85ec75301bb4adbf203582103806535be3e3920e5eedee92de5714188fd6a784f2bf7b04f87de0b9c3ae1ecdb21024b23bfdce2afcae7e28c42f7f79aa100f22931712c52d7414a526ba494d44a2553ae00000000", "vin": [{"txinwitness": ["", "3044022003fedc9ebab53ee8d03400e8f7037ed2e1afa6605684621bedc196dec89f92fc022010d886609915f25c0db0aded582d68791dc4d010dd63f9e174286f4663705f3b01", "304402205ecddd1212641d04b4090d2109dcda7ff1cf0b87e7b93666e7fdedc9a21b5c2302207c5451fed995eaaf32e078d287bf2b43761054a3df133dfacb8695b5cb41034e01", "5221026c8f72b9e63db63907115e65d4da86eaae595b22fdc85ec75301bb4adbf203582103806535be3e3920e5eedee92de5714188fd6a784f2bf7b04f87de0b9c3ae1ecdb21024b23bfdce2afcae7e28c42f7f79aa100f22931712c52d7414a526ba494d44a2553ae"], "sequence": 4294967295, "scriptSig": {"hex": "220020bcf9f822194145acea0f3235f4107b5bf1a91b6b9f8489f63bf79ec29b360913", "asm": "0020bcf9f822194145acea0f3235f4107b5bf1a91b6b9f8489f63bf79ec29b360913"}, "vout": 0, "txid": "9ba225001355e8f016f0685e18d06ddba9ef76b1d2b358c40c742f6053f8742c"}, {"txinwitness": ["", "3044022008a71ba14034a53402f6685cea5f6358588ecb81172db4ee1b8f33eeb9a676ac02202457273a169a88c6b9ed49aeb0311c621ee1ce71176a4d8512d115fe40be8b4b01", "3045022100bb9731a9f5f9a643950283256d7b73801e3b34f1bf42ce1145d7bd5f0f5dc48802203045c426c9a101a3899a743bdbbf3eb52f29eac817a7079d40fa4cf5e86f404101", "5221026c8f72b9e63db63907115e65d4da86eaae595b22fdc85ec75301bb4adbf203582103806535be3e3920e5eedee92de5714188fd6a784f2bf7b04f87de0b9c3ae1ecdb21024b23bfdce2afcae7e28c42f7f79aa100f22931712c52d7414a526ba494d44a2553ae"], "sequence": 4294967295, "scriptSig": {"hex": "220020bcf9f822194145acea0f3235f4107b5bf1a91b6b9f8489f63bf79ec29b360913", "asm": "0020bcf9f822194145acea0f3235f4107b5bf1a91b6b9f8489f63bf79ec29b360913"}, "vout": 0, "txid": "9a3488efde22863f52463c4959959d24ce911117f87d62015af244a41a7676fa"}], "txid": "d7b3c69650831b1ad459d970c81a7752287060162db972d7dbcc99aa7282d324", "blocktime": 1537873282, "version": 1, "confirmations": 11484, "time": 1537873282, "locktime": 0, "vsize": 353, "size": 733}