{"hash": "d7b441ecf34de4368e31bd780f3647cc71f7a59567927f4920593b2daae0b00d", "blockhash": "0000000000000000001f76057863aec43deb6fa401d9628bb513d65a8098bfab", "vout": [{"scriptPubKey": {"reqSigs": 1, "hex": "76a91486ddedd0d90c9699d0b1b832f340ebfcd4734c6588ac", "addresses": ["1DJ7QbpRHopbKD6Be4HdZFstu5abZxz8Mt"], "asm": "OP_DUP OP_HASH160 86ddedd0d90c9699d0b1b832f340ebfcd4734c65 OP_EQUALVERIFY OP_CHECKSIG", "type": "pubkeyhash"}, "value": 0.00633756, "n": 0}, {"scriptPubKey": {"type": "nulldata", "hex": "6a4c50000077ee0001ab0c9dba3ac280be113ad72cd19ed074892d00f8e87af8e8e963c7cfd5b9c5b4bc5aea6a81de856dad7fc7696b3f5baa17bb0613a7bfd3fe3d4f1d100759d4ba30d2c37bb011d97e02cf", "asm": "OP_RETURN 000077ee0001ab0c9dba3ac280be113ad72cd19ed074892d00f8e87af8e8e963c7cfd5b9c5b4bc5aea6a81de856dad7fc7696b3f5baa17bb0613a7bfd3fe3d4f1d100759d4ba30d2c37bb011d97e02cf"}, "value": 0.0, "n": 1}], "hex": "01000000017ee82e188d1bb8167ebce79154681707f047e20f68e6c6bf7f36e2c087fb370e000000006b483045022100b85ef05786e09b85fcb19fc798c6a64a7367856632461b256558ef4bc5d05eae02205de5ac18e465d17a8c7f4ddcb30d5a4dee5d32a0656739edbadbcdccd028c74a0121029deaea71769541e0f6653ac2d745b1d21c344d32ca2e2921ec53ecdf85656dd6ffffffff029cab0900000000001976a91486ddedd0d90c9699d0b1b832f340ebfcd4734c6588ac0000000000000000536a4c50000077ee0001ab0c9dba3ac280be113ad72cd19ed074892d00f8e87af8e8e963c7cfd5b9c5b4bc5aea6a81de856dad7fc7696b3f5baa17bb0613a7bfd3fe3d4f1d100759d4ba30d2c37bb011d97e02cf00000000", "vin": [{"sequence": 4294967295, "scriptSig": {"hex": "483045022100b85ef05786e09b85fcb19fc798c6a64a7367856632461b256558ef4bc5d05eae02205de5ac18e465d17a8c7f4ddcb30d5a4dee5d32a0656739edbadbcdccd028c74a0121029deaea71769541e0f6653ac2d745b1d21c344d32ca2e2921ec53ecdf85656dd6", "asm": "3045022100b85ef05786e09b85fcb19fc798c6a64a7367856632461b256558ef4bc5d05eae02205de5ac18e465d17a8c7f4ddcb30d5a4dee5d32a0656739edbadbcdccd028c74a[ALL] 029deaea71769541e0f6653ac2d745b1d21c344d32ca2e2921ec53ecdf85656dd6"}, "vout": 0, "txid": "0e37fb87c0e2367fbfc6e6680fe247f00717685491e7bc7e16b81b8d182ee87e"}], "txid": "d7b441ecf34de4368e31bd780f3647cc71f7a59567927f4920593b2daae0b00d", "blocktime": 1537873891, "version": 1, "confirmations": 11478, "time": 1537873891, "locktime": 0, "vsize": 284, "size": 284}