{"hash": "583780e83bd35b63902412c14063b8b9ca2c2131158164beae6725daea66ec53", "blockhash": "0000000000000000000e13cef7c366c0283d82e591d1acd082e914b08063cdf1", "vout": [{"scriptPubKey": {"reqSigs": 1, "hex": "a914e508db033cbaa9dfa2c133010368752ed47ca71987", "addresses": ["3Na3GmL5JzQe5WQaawzCwMkcDkAUg7j7pR"], "asm": "OP_HASH160 e508db033cbaa9dfa2c133010368752ed47ca719 OP_EQUAL", "type": "scripthash"}, "value": 3.82421166, "n": 0}], "hex": "02000000000102078074e926f02bc7cbe08d2292278c9ef91e97e6bb4a243dcffe9ea881664b3c4600000017160014bc54b84bc84bfc0d562ea56031dab8bdfb8b29fcffffffff078074e926f02bc7cbe08d2292278c9ef91e97e6bb4a243dcffe9ea881664b3c4f00000017160014ba3fda10380b664e7c509c0a57c28ead76183decffffffff01ae48cb160000000017a914e508db033cbaa9dfa2c133010368752ed47ca7198702483045022100cb11ed6e1f60fd802fd5d027375420dc88bf0b21beb6249c2385c1ffd9ba5e0e02205b2d96ba57ac3c53342040d7d807dece5d55bdc28387acff8e784fd2e6ffae2e012103e007d40090cdc9bb167093d83339a7f367da0c37434926dba6e9a2ed4ca9bb4a024730440220119097762193f53f537eb2b85a55e970e15e1c31b3e6005fcb8ad93597c4493b02206e215af77767681986f794a6309b675ddd441d4c8cd4edf9f1b77a1fe1ad7e1a0121029ca0102f688267b25ebe646f4bd31fbe2169891d2410c0d3e18621a73264cfb200000000", "vin": [{"txinwitness": ["3045022100cb11ed6e1f60fd802fd5d027375420dc88bf0b21beb6249c2385c1ffd9ba5e0e02205b2d96ba57ac3c53342040d7d807dece5d55bdc28387acff8e784fd2e6ffae2e01", "03e007d40090cdc9bb167093d83339a7f367da0c37434926dba6e9a2ed4ca9bb4a"], "sequence": 4294967295, "scriptSig": {"hex": "160014bc54b84bc84bfc0d562ea56031dab8bdfb8b29fc", "asm": "0014bc54b84bc84bfc0d562ea56031dab8bdfb8b29fc"}, "vout": 70, "txid": "3c4b6681a89efecf3d244abbe6971ef99e8c2792228de0cbc72bf026e9748007"}, {"txinwitness": ["30440220119097762193f53f537eb2b85a55e970e15e1c31b3e6005fcb8ad93597c4493b02206e215af77767681986f794a6309b675ddd441d4c8cd4edf9f1b77a1fe1ad7e1a01", "029ca0102f688267b25ebe646f4bd31fbe2169891d2410c0d3e18621a73264cfb2"], "sequence": 4294967295, "scriptSig": {"hex": "160014ba3fda10380b664e7c509c0a57c28ead76183dec", "asm": "0014ba3fda10380b664e7c509c0a57c28ead76183dec"}, "vout": 79, "txid": "3c4b6681a89efecf3d244abbe6971ef99e8c2792228de0cbc72bf026e9748007"}], "txid": "d7b9a6ace1261c0c2a074f46ad2d0d718e5b9092b6d7b6deeccf9c15ad24ffad", "blocktime": 1537871767, "version": 2, "confirmations": 11491, "time": 1537871767, "locktime": 0, "vsize": 225, "size": 387}