{"hash": "76a14808dae7bb3410733b3dd83814cc63f56c6263f649b8dbbe9712bbda3b84", "blockhash": "0000000000000000000dcc0f55137456b1a82d3642486a52398922ac4d620174", "vout": [{"scriptPubKey": {"reqSigs": 1, "hex": "76a9143afe49c0b5299f68e041d863cfb0d1503c17096988ac", "addresses": ["16NvpNdLYouzZLMYrfVVKFWqGZciRt6Ctw"], "asm": "OP_DUP OP_HASH160 3afe49c0b5299f68e041d863cfb0d1503c170969 OP_EQUALVERIFY OP_CHECKSIG", "type": "pubkeyhash"}, "value": 0.05, "n": 0}, {"scriptPubKey": {"reqSigs": 1, "hex": "a9141cf3ae7569c04abbae472d9acd5316afcb4d50c687", "addresses": ["34L6mCcQgqMKKAff8VFqf4BYJ73JEEkYge"], "asm": "OP_HASH160 1cf3ae7569c04abbae472d9acd5316afcb4d50c6 OP_EQUAL", "type": "scripthash"}, "value": 0.00564071, "n": 1}], "hex": "010000000001017309258a3b24381a61b94e32dce0fcb50219f05780deb192be755188ac60f41b0100000017160014e9c0d4dab12f73afda1d37da671b7d415c96c64dffffffff02404b4c00000000001976a9143afe49c0b5299f68e041d863cfb0d1503c17096988ac679b08000000000017a9141cf3ae7569c04abbae472d9acd5316afcb4d50c68702483045022100cfc6d1a78216dfced56d544acad217f10413ad1ab72326497fa67aa57454e10b022051b3b036d8c7a6b6d7091db75c45c528628572e007d4fd429ab8fd8113737da60121029ee0d1b0e19a5d93f22dd3144da4cdb5a14dd72d72ff223ba4dbce9b1b6bc83300000000", "vin": [{"txinwitness": ["3045022100cfc6d1a78216dfced56d544acad217f10413ad1ab72326497fa67aa57454e10b022051b3b036d8c7a6b6d7091db75c45c528628572e007d4fd429ab8fd8113737da601", "029ee0d1b0e19a5d93f22dd3144da4cdb5a14dd72d72ff223ba4dbce9b1b6bc833"], "sequence": 4294967295, "scriptSig": {"hex": "160014e9c0d4dab12f73afda1d37da671b7d415c96c64d", "asm": "0014e9c0d4dab12f73afda1d37da671b7d415c96c64d"}, "vout": 1, "txid": "1bf460ac885175be92b1de8057f01902b5fce0dc324eb9611a38243b8a250973"}], "txid": "d7bbb75728b4ee91978a1cb28010cbd5f41bdf4ab3fce2d29d106cfa42866d35", "blocktime": 1537870268, "version": 1, "confirmations": 11518, "time": 1537870268, "locktime": 0, "vsize": 168, "size": 250}