{"hash": "d7bf64f6c335a682caa83b85f5b62fac6c72733e5a345c5d471e9dc9cd8de774", "blockhash": "0000000000000000001f76057863aec43deb6fa401d9628bb513d65a8098bfab", "vout": [{"scriptPubKey": {"reqSigs": 1, "hex": "a9147c705f292d0782a3b1adb08ee44583ef05e0c67487", "addresses": ["3D2zL48mxTGyn7DeSm51TZM3tYhUdL4wNX"], "asm": "OP_HASH160 7c705f292d0782a3b1adb08ee44583ef05e0c674 OP_EQUAL", "type": "scripthash"}, "value": 0.0124856, "n": 0}, {"scriptPubKey": {"reqSigs": 1, "hex": "76a914ea54d252ec3113dd00badb096dbe2771b3dac07488ac", "addresses": ["1NN2jPuKfF8sDYYGYnUzLWR8B61PuJL23e"], "asm": "OP_DUP OP_HASH160 ea54d252ec3113dd00badb096dbe2771b3dac074 OP_EQUALVERIFY OP_CHECKSIG", "type": "pubkeyhash"}, "value": 0.02794437, "n": 1}], "hex": "0100000001f012a34e2a37bf3ee9e78b74d1789bc271459aa4f9784f56cbec5fef7699b640030000006a473044022022fff34027649903639d0c06fd1d19f32b0e49aaff553bc725aef75c104184ba022062d7dd537fc28a555ff6a2d78d3fb57800c2ef037a7af26075929dde23a8b0990121021ed099a8715a25c9248b677dcd4eb441b9d905f2828df9cd684f9f8555af3036ffffffff02300d13000000000017a9147c705f292d0782a3b1adb08ee44583ef05e0c67487c5a32a00000000001976a914ea54d252ec3113dd00badb096dbe2771b3dac07488ac00000000", "vin": [{"sequence": 4294967295, "scriptSig": {"hex": "473044022022fff34027649903639d0c06fd1d19f32b0e49aaff553bc725aef75c104184ba022062d7dd537fc28a555ff6a2d78d3fb57800c2ef037a7af26075929dde23a8b0990121021ed099a8715a25c9248b677dcd4eb441b9d905f2828df9cd684f9f8555af3036", "asm": "3044022022fff34027649903639d0c06fd1d19f32b0e49aaff553bc725aef75c104184ba022062d7dd537fc28a555ff6a2d78d3fb57800c2ef037a7af26075929dde23a8b099[ALL] 021ed099a8715a25c9248b677dcd4eb441b9d905f2828df9cd684f9f8555af3036"}, "vout": 3, "txid": "40b69976ef5feccb564f78f9a49a4571c29b78d1748be7e93ebf372a4ea312f0"}], "txid": "d7bf64f6c335a682caa83b85f5b62fac6c72733e5a345c5d471e9dc9cd8de774", "blocktime": 1537873891, "version": 1, "confirmations": 11478, "time": 1537873891, "locktime": 0, "vsize": 223, "size": 223}