{"hash": "d7c2717325fc77a6bbe6a73dddcffefb9f07bd4e48e877e0e4e0fe46f4b53561", "blockhash": "0000000000000000001f76057863aec43deb6fa401d9628bb513d65a8098bfab", "vout": [{"scriptPubKey": {"reqSigs": 1, "hex": "76a91458f32143a95cd11ee5f37e5d1dff6f9fbafa660b88ac", "addresses": ["197Kir2psnjrTFwx8R9cUnmVCUFeUgCNxS"], "asm": "OP_DUP OP_HASH160 58f32143a95cd11ee5f37e5d1dff6f9fbafa660b OP_EQUALVERIFY OP_CHECKSIG", "type": "pubkeyhash"}, "value": 0.91694965, "n": 0}, {"scriptPubKey": {"type": "nulldata", "hex": "6a146f6d6e69000000000000001f00000002d3f54080", "asm": "OP_RETURN 6f6d6e69000000000000001f00000002d3f54080"}, "value": 0.0, "n": 1}, {"scriptPubKey": {"reqSigs": 1, "hex": "76a914528a069be8ffaa5236a02c07fc617a186009de9b88ac", "addresses": ["18XRkw466GXty4RL6cE3b6ytgB9DUCiE8A"], "asm": "OP_DUP OP_HASH160 528a069be8ffaa5236a02c07fc617a186009de9b OP_EQUALVERIFY OP_CHECKSIG", "type": "pubkeyhash"}, "value": 5.46e-06, "n": 2}], "hex": "0100000001c424ac255ca439ecdc560b5efede81f80459bcb7a6b62d364df30be61e322d47000000006a473044022038018dff74ef4fa6ea480705d52760849527549c49c104c3b296193f2676231902201da8ce501cea2682ad6d29d9a47975fa6e9ac72b03d554938f4797c297582a4201210251e12972b557d5dbac73bfd2470adeac64ac46202389f0ef2db7231f645a0aeafeffffff0375277705000000001976a91458f32143a95cd11ee5f37e5d1dff6f9fbafa660b88ac0000000000000000166a146f6d6e69000000000000001f00000002d3f5408022020000000000001976a914528a069be8ffaa5236a02c07fc617a186009de9b88ac14490800", "vin": [{"sequence": 4294967294, "scriptSig": {"hex": "473044022038018dff74ef4fa6ea480705d52760849527549c49c104c3b296193f2676231902201da8ce501cea2682ad6d29d9a47975fa6e9ac72b03d554938f4797c297582a4201210251e12972b557d5dbac73bfd2470adeac64ac46202389f0ef2db7231f645a0aea", "asm": "3044022038018dff74ef4fa6ea480705d52760849527549c49c104c3b296193f2676231902201da8ce501cea2682ad6d29d9a47975fa6e9ac72b03d554938f4797c297582a42[ALL] 0251e12972b557d5dbac73bfd2470adeac64ac46202389f0ef2db7231f645a0aea"}, "vout": 0, "txid": "472d321ee60bf34d362db6a6b7bc5904f881defe5e0b56dcec39a45c25ac24c4"}], "txid": "d7c2717325fc77a6bbe6a73dddcffefb9f07bd4e48e877e0e4e0fe46f4b53561", "blocktime": 1537873891, "version": 1, "confirmations": 11478, "time": 1537873891, "locktime": 542996, "vsize": 256, "size": 256}