{"hash": "438a7425697e31cce9e99c79bd7acef95b10abc817eede7a4eb98e0cfde7852a", "blockhash": "0000000000000000000e13cef7c366c0283d82e591d1acd082e914b08063cdf1", "vout": [{"scriptPubKey": {"reqSigs": 1, "hex": "a91435554b7c1598845ef4853c8a7c55b1b81053b27787", "addresses": ["36Z1v6rKHBSfRSfcvhtsw78RJGxW8tencX"], "asm": "OP_HASH160 35554b7c1598845ef4853c8a7c55b1b81053b277 OP_EQUAL", "type": "scripthash"}, "value": 0.01012745, "n": 0}, {"scriptPubKey": {"reqSigs": 1, "hex": "a914cc99e049f4a1cdf58a43837b51b8c90479ca617c87", "addresses": ["3LLr7BH3er6AyQzXEFpM13agVUvuamDzZP"], "asm": "OP_HASH160 cc99e049f4a1cdf58a43837b51b8c90479ca617c OP_EQUAL", "type": "scripthash"}, "value": 4.374e-05, "n": 1}], "hex": "02000000000101fee7332b505565569e6b159d53b11f4f12cd7cb8b1fa7b73c1a143967c7e0ab101000000171600148a6926d4217eabe46a14b4a143c4f4d910610df0feffffff0209740f000000000017a91435554b7c1598845ef4853c8a7c55b1b81053b27787161100000000000017a914cc99e049f4a1cdf58a43837b51b8c90479ca617c8702473044022027cdc84f4dae95ee032c7d769ca28435fa209dfb94266cc0b8787da894fe9892022010ff040f7692415ed429c74dc1fa69549289aaa88358d34ed7034cc57c47170301210370f00cc66f50ddbfce412b886bcec415a81c1d4f8eed73699c0c907d87ff7fe50e490800", "vin": [{"txinwitness": ["3044022027cdc84f4dae95ee032c7d769ca28435fa209dfb94266cc0b8787da894fe9892022010ff040f7692415ed429c74dc1fa69549289aaa88358d34ed7034cc57c47170301", "0370f00cc66f50ddbfce412b886bcec415a81c1d4f8eed73699c0c907d87ff7fe5"], "sequence": 4294967294, "scriptSig": {"hex": "1600148a6926d4217eabe46a14b4a143c4f4d910610df0", "asm": "00148a6926d4217eabe46a14b4a143c4f4d910610df0"}, "vout": 1, "txid": "b10a7e7c9643a1c1737bfab1b87ccd124f1fb1539d156b9e566555502b33e7fe"}], "txid": "d7c2f89f8a58a10ed5e9914700a039e8a51d7e986cf907bdb5f72e2ce2cbc630", "blocktime": 1537871767, "version": 2, "confirmations": 11495, "time": 1537871767, "locktime": 542990, "vsize": 166, "size": 247}