{"hash": "45e0c3178984d00251847880ff1b5078c7a4af17e2b9484efc691f0f6ae9da40", "blockhash": "0000000000000000001f76057863aec43deb6fa401d9628bb513d65a8098bfab", "vout": [{"scriptPubKey": {"reqSigs": 1, "hex": "76a9140cb81d33c4abdf09bb9678e69a1c2f27f2b0d25788ac", "addresses": ["12AFfmmfNogr4CZKgwyHcCcMRchi5tbLRJ"], "asm": "OP_DUP OP_HASH160 0cb81d33c4abdf09bb9678e69a1c2f27f2b0d257 OP_EQUALVERIFY OP_CHECKSIG", "type": "pubkeyhash"}, "value": 0.00809, "n": 0}, {"scriptPubKey": {"reqSigs": 1, "hex": "a9140c54f418c67f6428670a594c0ae6ef9b6dc644fb87", "addresses": ["32pDoX2nzS1udBKLoPVsWNzuuZ9ucvsZot"], "asm": "OP_HASH160 0c54f418c67f6428670a594c0ae6ef9b6dc644fb OP_EQUAL", "type": "scripthash"}, "value": 0.59494826, "n": 1}], "hex": "010000000001017efb53fd904eb01be868c70bcee727b703eb347aabfc9c95018460c3fdb0f6a401000000232200209e9da6891fa95d32e450594cd220706e7ae21de4b263650083984ffd27c02864ffffffff0228580c00000000001976a9140cb81d33c4abdf09bb9678e69a1c2f27f2b0d25788acaad18b030000000017a9140c54f418c67f6428670a594c0ae6ef9b6dc644fb8704004730440220346cf0831c78e43aa50ba55717e53c0d8a0ab0ee71b065fc84aaff984964c40f02204973444739be4b8898fb200ce9773a86ace3b001700bd168cc0217a545752f8501483045022100b162bd516e7ea26a34c994aa58b906c203898427158c8bd6b53f6afc7ba1a625022038f42e0bed514a76baa2b70a357f09edc44018c0b26fc016d042aa004d567bec014752210248e0a896ac9c991f101c01d620d5c4c1cbd328bc1fe3e9bc1c16537b8779371b2103d9d2be3f5a20e2bda8a215b3765d46030eae17d676a304cec3e22e5fcb12136f52ae00000000", "vin": [{"txinwitness": ["", "30440220346cf0831c78e43aa50ba55717e53c0d8a0ab0ee71b065fc84aaff984964c40f02204973444739be4b8898fb200ce9773a86ace3b001700bd168cc0217a545752f8501", "3045022100b162bd516e7ea26a34c994aa58b906c203898427158c8bd6b53f6afc7ba1a625022038f42e0bed514a76baa2b70a357f09edc44018c0b26fc016d042aa004d567bec01", "52210248e0a896ac9c991f101c01d620d5c4c1cbd328bc1fe3e9bc1c16537b8779371b2103d9d2be3f5a20e2bda8a215b3765d46030eae17d676a304cec3e22e5fcb12136f52ae"], "sequence": 4294967295, "scriptSig": {"hex": "2200209e9da6891fa95d32e450594cd220706e7ae21de4b263650083984ffd27c02864", "asm": "00209e9da6891fa95d32e450594cd220706e7ae21de4b263650083984ffd27c02864"}, "vout": 1, "txid": "a4f6b0fdc3608401959cfcab7a34eb03b727e7ce0bc768e81bb04e90fd53fb7e"}], "txid": "d7cb8e430383818c57bc580df98073dd9c63ca39cc7fe46d5e4376f3fd572a01", "blocktime": 1537873891, "version": 1, "confirmations": 11478, "time": 1537873891, "locktime": 0, "vsize": 208, "size": 373}