{"hash": "d7cdfbbbbb2ec8f08112044e253afb95c6f4b08b42b8444723f4d37a4ae67955", "blockhash": "00000000000000000018f53835495a110e01622372bf6ae95dc86f2b0ab887b0", "vout": [{"scriptPubKey": {"reqSigs": 1, "hex": "76a914e2b77439dea2c7563565c07c5723edfa3daba51a88ac", "addresses": ["1MfmUxmsfUg3GxPSFZ4Vcv6To1jvDemxtc"], "asm": "OP_DUP OP_HASH160 e2b77439dea2c7563565c07c5723edfa3daba51a OP_EQUALVERIFY OP_CHECKSIG", "type": "pubkeyhash"}, "value": 1.5e-05, "n": 0}, {"scriptPubKey": {"reqSigs": 1, "hex": "a91492f9b3c2a0a098ee4d929e0b474f4741d7bb25b487", "addresses": ["3F69iARJWqkhCRnjSVLKcUbjGtgcptqkPt"], "asm": "OP_HASH160 92f9b3c2a0a098ee4d929e0b474f4741d7bb25b4 OP_EQUAL", "type": "scripthash"}, "value": 0.00794619, "n": 1}], "hex": "01000000018992abd5428ae8f630acf8aab836292314a214e6c3f23d05691794ef9bfcd65f010000006a47304402205382903348ef18aad42c6e4572b8461e517b4bf26a3e35eb55bbfa05f7204cc0022070b390e6006045fcd55e79d92366133a685e157364defc4d90f9d483024dafee012103c961e3982eebd5be363d17c5e8743c2a9bf610b09c358c5e463bf4aa6abff8dfffffffff02dc050000000000001976a914e2b77439dea2c7563565c07c5723edfa3daba51a88acfb1f0c000000000017a91492f9b3c2a0a098ee4d929e0b474f4741d7bb25b48700000000", "vin": [{"sequence": 4294967295, "scriptSig": {"hex": "47304402205382903348ef18aad42c6e4572b8461e517b4bf26a3e35eb55bbfa05f7204cc0022070b390e6006045fcd55e79d92366133a685e157364defc4d90f9d483024dafee012103c961e3982eebd5be363d17c5e8743c2a9bf610b09c358c5e463bf4aa6abff8df", "asm": "304402205382903348ef18aad42c6e4572b8461e517b4bf26a3e35eb55bbfa05f7204cc0022070b390e6006045fcd55e79d92366133a685e157364defc4d90f9d483024dafee[ALL] 03c961e3982eebd5be363d17c5e8743c2a9bf610b09c358c5e463bf4aa6abff8df"}, "vout": 1, "txid": "5fd6fc9bef941769053df2c3e614a214232936b8aaf8ac30f6e88a42d5ab9289"}], "txid": "d7cdfbbbbb2ec8f08112044e253afb95c6f4b08b42b8444723f4d37a4ae67955", "blocktime": 1537870928, "version": 1, "confirmations": 11514, "time": 1537870928, "locktime": 0, "vsize": 223, "size": 223}