{"hash": "d7cd5f24c1c8422cc26560cf511c50086e79dd23c9257d24fbcb8a562500c7ca", "blockhash": "00000000000000000018f53835495a110e01622372bf6ae95dc86f2b0ab887b0", "vout": [{"scriptPubKey": {"reqSigs": 1, "hex": "76a914b8200e779022497620c4b52dc56d8d5f4391472b88ac", "addresses": ["1HnZjd6PPs8T8mgWs2RRr35qghPRfKc9Sa"], "asm": "OP_DUP OP_HASH160 b8200e779022497620c4b52dc56d8d5f4391472b OP_EQUALVERIFY OP_CHECKSIG", "type": "pubkeyhash"}, "value": 0.09705866, "n": 0}, {"scriptPubKey": {"reqSigs": 1, "hex": "76a914b44cae99837337275d21d2c5c6ed6cddf7a7e9f788ac", "addresses": ["1HSLVVSSQmzaNG8sbakhFDrmpzUPZLnYCe"], "asm": "OP_DUP OP_HASH160 b44cae99837337275d21d2c5c6ed6cddf7a7e9f7 OP_EQUALVERIFY OP_CHECKSIG", "type": "pubkeyhash"}, "value": 0.11293456, "n": 1}], "hex": "01000000016173b60760052797fd655afc5ded01d85f80bb15e6d7d5d05f7b81acd53c7448000000006b483045022100ad41b05b90fa94d8073b5a7aa186e697ea69975e70dbec4e4ead9fa3b278ee190220372dffe8223c532098326166ba7e42d9c8aeecff72653821dbc0bbeb9e09937901210330f86552cc4ff3f958ce087f46253360126a153c839a09fa66b57b99adc0f8b1ffffffff028a199400000000001976a914b8200e779022497620c4b52dc56d8d5f4391472b88ac1053ac00000000001976a914b44cae99837337275d21d2c5c6ed6cddf7a7e9f788ac00000000", "vin": [{"sequence": 4294967295, "scriptSig": {"hex": "483045022100ad41b05b90fa94d8073b5a7aa186e697ea69975e70dbec4e4ead9fa3b278ee190220372dffe8223c532098326166ba7e42d9c8aeecff72653821dbc0bbeb9e09937901210330f86552cc4ff3f958ce087f46253360126a153c839a09fa66b57b99adc0f8b1", "asm": "3045022100ad41b05b90fa94d8073b5a7aa186e697ea69975e70dbec4e4ead9fa3b278ee190220372dffe8223c532098326166ba7e42d9c8aeecff72653821dbc0bbeb9e099379[ALL] 0330f86552cc4ff3f958ce087f46253360126a153c839a09fa66b57b99adc0f8b1"}, "vout": 0, "txid": "48743cd5ac817b5fd0d5d7e615bb805fd801ed5dfc5a65fd9727056007b67361"}], "txid": "d7cd5f24c1c8422cc26560cf511c50086e79dd23c9257d24fbcb8a562500c7ca", "blocktime": 1537870928, "version": 1, "confirmations": 11514, "time": 1537870928, "locktime": 0, "vsize": 226, "size": 226}