{"hash": "d7ce4415f5308fff9f5ad8c3360c53e650bafad612db2bd3217aacba42769a5d", "blockhash": "00000000000000000018f53835495a110e01622372bf6ae95dc86f2b0ab887b0", "vout": [{"scriptPubKey": {"reqSigs": 1, "hex": "76a914a25dec4d0011064ef106a983c39c7a540699f22088ac", "addresses": ["1FoWyxwPXuj4C6abqwhjDWdz6D4PZgYRjA"], "asm": "OP_DUP OP_HASH160 a25dec4d0011064ef106a983c39c7a540699f220 OP_EQUALVERIFY OP_CHECKSIG", "type": "pubkeyhash"}, "value": 0.01990376, "n": 0}, {"scriptPubKey": {"type": "nulldata", "hex": "6a146f6d6e69000000000000001f0000007e675c9500", "asm": "OP_RETURN 6f6d6e69000000000000001f0000007e675c9500"}, "value": 0.0, "n": 1}, {"scriptPubKey": {"reqSigs": 1, "hex": "76a9140f953657d998b24b70625cff7a583b0892658e6688ac", "addresses": ["12RPtL3MCfed9d6Gb5vitU2afQaeE69Dx5"], "asm": "OP_DUP OP_HASH160 0f953657d998b24b70625cff7a583b0892658e66 OP_EQUALVERIFY OP_CHECKSIG", "type": "pubkeyhash"}, "value": 5.46e-06, "n": 2}], "hex": "01000000015109666f3deccb83f033f10eb0143fb154e9f039543bc734587870aca0ab07ba000000006b483045022100f2a483360f30c785534cdbd3d8e1dd3550a3d8698a7bccb5253a73dde65356c702201d30761e59ede34e1ddff8260fdf17ee28678b2f42146f049f30ae2e2730c61f012103da5bac7b36d5aa38f531c6b9601e21bb598a4b6716ebed38b009a55dabde9440feffffff03e85e1e00000000001976a914a25dec4d0011064ef106a983c39c7a540699f22088ac0000000000000000166a146f6d6e69000000000000001f0000007e675c950022020000000000001976a9140f953657d998b24b70625cff7a583b0892658e6688ac0e490800", "vin": [{"sequence": 4294967294, "scriptSig": {"hex": "483045022100f2a483360f30c785534cdbd3d8e1dd3550a3d8698a7bccb5253a73dde65356c702201d30761e59ede34e1ddff8260fdf17ee28678b2f42146f049f30ae2e2730c61f012103da5bac7b36d5aa38f531c6b9601e21bb598a4b6716ebed38b009a55dabde9440", "asm": "3045022100f2a483360f30c785534cdbd3d8e1dd3550a3d8698a7bccb5253a73dde65356c702201d30761e59ede34e1ddff8260fdf17ee28678b2f42146f049f30ae2e2730c61f[ALL] 03da5bac7b36d5aa38f531c6b9601e21bb598a4b6716ebed38b009a55dabde9440"}, "vout": 0, "txid": "ba07aba0ac70785834c73b5439f0e954b13f14b00ef133f083cbec3d6f660951"}], "txid": "d7ce4415f5308fff9f5ad8c3360c53e650bafad612db2bd3217aacba42769a5d", "blocktime": 1537870928, "version": 1, "confirmations": 11512, "time": 1537870928, "locktime": 542990, "vsize": 257, "size": 257}