{"hash": "3bf75e5b8c2f8a4d37c6de885cc9df569646f1b6553b28ded5780fae80220a58", "blockhash": "000000000000000000022b45ed06c6f4ccd3cf7fb5ba4856ebd2e58215665228", "vout": [{"scriptPubKey": {"reqSigs": 1, "hex": "76a9141cf806d83a8822ae39009a7e4d5077b8fdd2eee788ac", "addresses": ["13eB3a81WGV1uTJhbug9EcNfoKmduNw3xP"], "asm": "OP_DUP OP_HASH160 1cf806d83a8822ae39009a7e4d5077b8fdd2eee7 OP_EQUALVERIFY OP_CHECKSIG", "type": "pubkeyhash"}, "value": 0.007, "n": 0}, {"scriptPubKey": {"reqSigs": 1, "hex": "a914627aa52932456d89054bd84f86246af3b71b93a887", "addresses": ["3Afj4stdiLG9EktGrMbm252ySonnhYaz8v"], "asm": "OP_HASH160 627aa52932456d89054bd84f86246af3b71b93a8 OP_EQUAL", "type": "scripthash"}, "value": 0.93462733, "n": 1}], "hex": "0100000000010195bda42ce406143542ba18e3f64a41e4fb2fa865a6ccb2f1d21b47617c66247701000000232200205fdd641234b13964b223bd85ad2a4a667ca2099df3d42a1d3b45706a8d81abf0ffffffff0260ae0a00000000001976a9141cf806d83a8822ae39009a7e4d5077b8fdd2eee788accd2092050000000017a914627aa52932456d89054bd84f86246af3b71b93a8870400483045022100caaa07225c4a24cfd6c1d0a9057d9a0ed4f9a28c95f5595e459ed957d3aa52cc02201e2fbcac8c4837384e67578beec8cf2e7a6543f742da66e91cdf9bd5d1496e6a01483045022100fdaf4dba27df5b8e137c6ee61cc7625668559e72ed02fc52791f600f3a4048c002206b4ddd96eded9413c7c89b099771def22b2c7a77ef8d6ffaeab4df6352a19c090147522103dcde3832fa56def7b4e783faad1b8af85c3cdd74a5ff4f3c7c216b1075c18da12103c70ae8ded79be1afda73b9ce5ea14a3878908ee160d66a9a717e792bb6db276952ae00000000", "vin": [{"txinwitness": ["", "3045022100caaa07225c4a24cfd6c1d0a9057d9a0ed4f9a28c95f5595e459ed957d3aa52cc02201e2fbcac8c4837384e67578beec8cf2e7a6543f742da66e91cdf9bd5d1496e6a01", "3045022100fdaf4dba27df5b8e137c6ee61cc7625668559e72ed02fc52791f600f3a4048c002206b4ddd96eded9413c7c89b099771def22b2c7a77ef8d6ffaeab4df6352a19c0901", "522103dcde3832fa56def7b4e783faad1b8af85c3cdd74a5ff4f3c7c216b1075c18da12103c70ae8ded79be1afda73b9ce5ea14a3878908ee160d66a9a717e792bb6db276952ae"], "sequence": 4294967295, "scriptSig": {"hex": "2200205fdd641234b13964b223bd85ad2a4a667ca2099df3d42a1d3b45706a8d81abf0", "asm": "00205fdd641234b13964b223bd85ad2a4a667ca2099df3d42a1d3b45706a8d81abf0"}, "vout": 1, "txid": "7724667c61471bd2f1b2cca665a82ffbe4414af6e318ba42351406e42ca4bd95"}], "txid": "d7cecd664157cd2fe4499affe5c9dba3607a5ef7b20047bbc89078d6f36e844f", "blocktime": 1537869901, "version": 1, "confirmations": 11523, "time": 1537869901, "locktime": 0, "vsize": 208, "size": 374}