{"hash": "d7cf6d27f186bbdfbc43f43cbf4f927a47383039557efe895b9d797c848f6f48", "blockhash": "0000000000000000001cda96e906b7601b7a6fb1a3b62bca570a9e5d8f4b3de1", "vout": [{"scriptPubKey": {"reqSigs": 1, "hex": "76a9141693f6ffb8eef56ffda2c0e181d52b3c1fcb045d88ac", "addresses": ["134P7zrmXKknZMyJPhBPcxRwhWu5Lh3hgr"], "asm": "OP_DUP OP_HASH160 1693f6ffb8eef56ffda2c0e181d52b3c1fcb045d OP_EQUALVERIFY OP_CHECKSIG", "type": "pubkeyhash"}, "value": 0.00780768, "n": 0}], "hex": "0100000001468a5e754d370459a9fe7e2c1e101505314d574b3cbf42a4663b2ee1af38cd9c000000006b483045022100d7c52999a4a5d81c703e3103d644aa835734d8a0ebeecc58ed388f1988377834022024126adbe5bb228017e555010b41df549408164c08391575cae8c66a621dc30201210242436f10eb71fe67faacbd49d68f2aaf0fc4224b719b7e3194b076d664b44641ffffffff01e0e90b00000000001976a9141693f6ffb8eef56ffda2c0e181d52b3c1fcb045d88ac00000000", "vin": [{"sequence": 4294967295, "scriptSig": {"hex": "483045022100d7c52999a4a5d81c703e3103d644aa835734d8a0ebeecc58ed388f1988377834022024126adbe5bb228017e555010b41df549408164c08391575cae8c66a621dc30201210242436f10eb71fe67faacbd49d68f2aaf0fc4224b719b7e3194b076d664b44641", "asm": "3045022100d7c52999a4a5d81c703e3103d644aa835734d8a0ebeecc58ed388f1988377834022024126adbe5bb228017e555010b41df549408164c08391575cae8c66a621dc302[ALL] 0242436f10eb71fe67faacbd49d68f2aaf0fc4224b719b7e3194b076d664b44641"}, "vout": 0, "txid": "9ccd38afe12e3b66a442bf3c4b574d310515101e2c7efea95904374d755e8a46"}], "txid": "d7cf6d27f186bbdfbc43f43cbf4f927a47383039557efe895b9d797c848f6f48", "blocktime": 1537873282, "version": 1, "confirmations": 11485, "time": 1537873282, "locktime": 0, "vsize": 192, "size": 192}