{"hash": "d7d2aefff58c2c24565f333344ab2c5f75c1d15090a100e6d386cd6363c8c73b", "blockhash": "0000000000000000000baef3f32e3676a92c3b2e5da21b426e4f302fc371ce76", "vout": [{"scriptPubKey": {"reqSigs": 1, "hex": "76a914730c5cd35f1e09a2ab42574f10983a37f9b3634188ac", "addresses": ["1BVKX2gdwDD144QiH3jP1CBD1k5FjuYzrz"], "asm": "OP_DUP OP_HASH160 730c5cd35f1e09a2ab42574f10983a37f9b36341 OP_EQUALVERIFY OP_CHECKSIG", "type": "pubkeyhash"}, "value": 0.0006646, "n": 0}, {"scriptPubKey": {"type": "nulldata", "hex": "6a4c50000078250001e43253a151760d471cb5d826019d6ddc0f1b8ff117702940d64fa54d8eb2ed1c8c257f307573a921e1029cab64255baa1e3d061414d5308588c1bc9a9526289ac0f6612cd74e33776ee4", "asm": "OP_RETURN 000078250001e43253a151760d471cb5d826019d6ddc0f1b8ff117702940d64fa54d8eb2ed1c8c257f307573a921e1029cab64255baa1e3d061414d5308588c1bc9a9526289ac0f6612cd74e33776ee4"}, "value": 0.0, "n": 1}], "hex": "010000000176e02e834639d304949d54624140190b3076ab4c264a8f3a954bf0eedeee7b90010000006b483045022100d3df315b2b3fd0386f0a73bdc58d2fb0fcfad4a887ab9e554f99e87ea53ce19902207e65410ae225eeb64f6f89f3adc7c9e6bbd1686662f37029192ebc90f5180415012102fe5bb5352affa750e26620084791012a47116ba23ad299969f7295dbd9e01a98ffffffff029c030100000000001976a914730c5cd35f1e09a2ab42574f10983a37f9b3634188ac0000000000000000536a4c50000078250001e43253a151760d471cb5d826019d6ddc0f1b8ff117702940d64fa54d8eb2ed1c8c257f307573a921e1029cab64255baa1e3d061414d5308588c1bc9a9526289ac0f6612cd74e33776ee400000000", "vin": [{"sequence": 4294967295, "scriptSig": {"hex": "483045022100d3df315b2b3fd0386f0a73bdc58d2fb0fcfad4a887ab9e554f99e87ea53ce19902207e65410ae225eeb64f6f89f3adc7c9e6bbd1686662f37029192ebc90f5180415012102fe5bb5352affa750e26620084791012a47116ba23ad299969f7295dbd9e01a98", "asm": "3045022100d3df315b2b3fd0386f0a73bdc58d2fb0fcfad4a887ab9e554f99e87ea53ce19902207e65410ae225eeb64f6f89f3adc7c9e6bbd1686662f37029192ebc90f5180415[ALL] 02fe5bb5352affa750e26620084791012a47116ba23ad299969f7295dbd9e01a98"}, "vout": 1, "txid": "907beedeeef04b953a8f4a264cab76300b19404162549d9404d33946832ee076"}], "txid": "d7d2aefff58c2c24565f333344ab2c5f75c1d15090a100e6d386cd6363c8c73b", "blocktime": 1537876114, "version": 1, "confirmations": 11460, "time": 1537876114, "locktime": 0, "vsize": 284, "size": 284}