{"hash": "d7d258633de2a0d3b157c8b8af3dfd53856a84b85785b95a4f8035ffecae4581", "blockhash": "0000000000000000001e0dab787dd257d1dbfcb92a98c2207d5e1078be1f4165", "vout": [{"scriptPubKey": {"reqSigs": 1, "hex": "76a914681c80daf5b40f40d85729a53f6a39a1c801bb2088ac", "addresses": ["1AVVRQ3FR2cyQUkyPKTjGX8QuPweWkkZdh"], "asm": "OP_DUP OP_HASH160 681c80daf5b40f40d85729a53f6a39a1c801bb20 OP_EQUALVERIFY OP_CHECKSIG", "type": "pubkeyhash"}, "value": 0.00174078, "n": 0}, {"scriptPubKey": {"reqSigs": 1, "hex": "76a914f16aaf809e1b592504f71ba5503cf1517ac3105088ac", "addresses": ["1P1VesfaBp4s7eVRHhengEmFYuXTJn1QK1"], "asm": "OP_DUP OP_HASH160 f16aaf809e1b592504f71ba5503cf1517ac31050 OP_EQUALVERIFY OP_CHECKSIG", "type": "pubkeyhash"}, "value": 0.0054684, "n": 1}], "hex": "010000000333bb61ce041fb87877c83c1a16ebda441dd6975c6867cfcb5d277065b6106443010000006b483045022100a316d6735d1fbf4b83bac3bf1da9af96f920d4f81f48105702910af9fa6c8189022073125c4ccf4d10d6ab94056058561560d82a26b074d4ae6aee13cdffacdde6ab012102a61b7a72b9c99c7a951d319664d57c901f58b028ed0033b2969a8054c9991ce3fffffffffc62250d4d494060d16684d42ea4501cff750335c39fa012413fd4794cad2673000000006b4830450221008255fae8711660765d2db9be5105d90af130d2eb6610ba0cc41e8bf73b2d1025022013bfc6bfd8980cf7b339bbddd686a1ef6a64461d172e18f96c6b3757c49d2afb012102da923ab6f04fa4b48db25ff8b30015185e866f2a353857be41c5951c55492858ffffffff5b6c840c111fdec71f8ca6e2a462e342ff2470d59c8c965044bc8ea3ce57b3f1000000006b483045022100cdb8653bbcf04a12dde4a18b64e0a6578b4839880e8cd92282fe43bb71b819b3022011bcf29bb6b62d3f1ecee7ed86efde566fc9017d104bbc680b30294ed88561f1012103444e57214c0331f5e833dbe0f980d955a6862c7e069b6686c8d5efcca29763bbffffffff02fea70200000000001976a914681c80daf5b40f40d85729a53f6a39a1c801bb2088ac18580800000000001976a914f16aaf809e1b592504f71ba5503cf1517ac3105088ac00000000", "vin": [{"sequence": 4294967295, "scriptSig": {"hex": "483045022100a316d6735d1fbf4b83bac3bf1da9af96f920d4f81f48105702910af9fa6c8189022073125c4ccf4d10d6ab94056058561560d82a26b074d4ae6aee13cdffacdde6ab012102a61b7a72b9c99c7a951d319664d57c901f58b028ed0033b2969a8054c9991ce3", "asm": "3045022100a316d6735d1fbf4b83bac3bf1da9af96f920d4f81f48105702910af9fa6c8189022073125c4ccf4d10d6ab94056058561560d82a26b074d4ae6aee13cdffacdde6ab[ALL] 02a61b7a72b9c99c7a951d319664d57c901f58b028ed0033b2969a8054c9991ce3"}, "vout": 1, "txid": "436410b66570275dcbcf67685c97d61d44daeb161a3cc87778b81f04ce61bb33"}, {"sequence": 4294967295, "scriptSig": {"hex": "4830450221008255fae8711660765d2db9be5105d90af130d2eb6610ba0cc41e8bf73b2d1025022013bfc6bfd8980cf7b339bbddd686a1ef6a64461d172e18f96c6b3757c49d2afb012102da923ab6f04fa4b48db25ff8b30015185e866f2a353857be41c5951c55492858", "asm": "30450221008255fae8711660765d2db9be5105d90af130d2eb6610ba0cc41e8bf73b2d1025022013bfc6bfd8980cf7b339bbddd686a1ef6a64461d172e18f96c6b3757c49d2afb[ALL] 02da923ab6f04fa4b48db25ff8b30015185e866f2a353857be41c5951c55492858"}, "vout": 0, "txid": "7326ad4c79d43f4112a09fc3350375ff1c50a42ed48466d16040494d0d2562fc"}, {"sequence": 4294967295, "scriptSig": {"hex": "483045022100cdb8653bbcf04a12dde4a18b64e0a6578b4839880e8cd92282fe43bb71b819b3022011bcf29bb6b62d3f1ecee7ed86efde566fc9017d104bbc680b30294ed88561f1012103444e57214c0331f5e833dbe0f980d955a6862c7e069b6686c8d5efcca29763bb", "asm": "3045022100cdb8653bbcf04a12dde4a18b64e0a6578b4839880e8cd92282fe43bb71b819b3022011bcf29bb6b62d3f1ecee7ed86efde566fc9017d104bbc680b30294ed88561f1[ALL] 03444e57214c0331f5e833dbe0f980d955a6862c7e069b6686c8d5efcca29763bb"}, "vout": 0, "txid": "f1b357cea38ebc4450968c9cd57024ff42e362a4e2a68c1fc7de1f110c846c5b"}], "txid": "d7d258633de2a0d3b157c8b8af3dfd53856a84b85785b95a4f8035ffecae4581", "blocktime": 1537872475, "version": 1, "confirmations": 11487, "time": 1537872475, "locktime": 0, "vsize": 522, "size": 522}