{"hash": "e6a7f60306fd1ef1264d2f5b7fdc399c2b4c8c1e1b0cc94ff8ff3debdcefe206", "blockhash": "0000000000000000000e13cef7c366c0283d82e591d1acd082e914b08063cdf1", "vout": [{"scriptPubKey": {"reqSigs": 1, "hex": "a914d2f7f728142a97c00ff264f175cbca99028fe19387", "addresses": ["3LvWsmcbp5z4sYm7dKPAsFYD14oVTwEYmT"], "asm": "OP_HASH160 d2f7f728142a97c00ff264f175cbca99028fe193 OP_EQUAL", "type": "scripthash"}, "value": 0.0062436, "n": 0}, {"scriptPubKey": {"reqSigs": 1, "hex": "a9149397a6e5177bbd52c953f6156d7ffc84b94b9d3187", "addresses": ["3F9Qvhn4Ygm3kECtrtzJf8JMuwFoqyga2K"], "asm": "OP_HASH160 9397a6e5177bbd52c953f6156d7ffc84b94b9d31 OP_EQUAL", "type": "scripthash"}, "value": 0.9903616, "n": 1}], "hex": "02000000000101b5ac69ffc3f730aa8ae8cce03e7018a264099a30339c8cc89a29a959974df1b5000000001716001441929a28bedf09ef67fef900313b805c6277030dfdffffff02e88609000000000017a914d2f7f728142a97c00ff264f175cbca99028fe19387002ce7050000000017a9149397a6e5177bbd52c953f6156d7ffc84b94b9d31870247304402203367bc2ddd47e4a5b1b0912e8382404f4f0a58ac240a401234a380cef9c828af0220256f90f31ffc93c6a223999db5b1d1315a5f37a6e4dcb68467275c4599513780012102d7b69eb33a2aa6ba2e755b76fba2d57528f6c5710665d5283d66305fa21166bc0f490800", "vin": [{"txinwitness": ["304402203367bc2ddd47e4a5b1b0912e8382404f4f0a58ac240a401234a380cef9c828af0220256f90f31ffc93c6a223999db5b1d1315a5f37a6e4dcb68467275c459951378001", "02d7b69eb33a2aa6ba2e755b76fba2d57528f6c5710665d5283d66305fa21166bc"], "sequence": 4294967293, "scriptSig": {"hex": "16001441929a28bedf09ef67fef900313b805c6277030d", "asm": "001441929a28bedf09ef67fef900313b805c6277030d"}, "vout": 0, "txid": "b5f14d9759a9299ac88c9c33309a0964a218703ee0cce88aaa30f7c3ff69acb5"}], "txid": "d7d4169bbe48eebe5898e23eb48ab67f76e339f51e1582745461c9ad62d65d1a", "blocktime": 1537871767, "version": 2, "confirmations": 11495, "time": 1537871767, "locktime": 542991, "vsize": 166, "size": 247}