{"hash": "d7d5bc930c85dd2696c34323f1e4a387b47d539cf2dc57827cfb6d8f747ce5db", "blockhash": "0000000000000000000dcc0f55137456b1a82d3642486a52398922ac4d620174", "vout": [{"scriptPubKey": {"reqSigs": 1, "hex": "76a9143572c9863687809ad228bdac1dbafd19c020486088ac", "addresses": ["15scKis4pbFMA9UfUZvGwQ4Xn7HiCjQ9Qx"], "asm": "OP_DUP OP_HASH160 3572c9863687809ad228bdac1dbafd19c0204860 OP_EQUALVERIFY OP_CHECKSIG", "type": "pubkeyhash"}, "value": 0.00113756, "n": 0}, {"scriptPubKey": {"reqSigs": 1, "hex": "76a91461345794d1f38a5b13fb34752f99edf412cf20bd88ac", "addresses": ["19ryFQHQQo4bkdjoN9AzrtbToTkj1frYL8"], "asm": "OP_DUP OP_HASH160 61345794d1f38a5b13fb34752f99edf412cf20bd OP_EQUALVERIFY OP_CHECKSIG", "type": "pubkeyhash"}, "value": 0.00928182, "n": 1}], "hex": "0200000002309f9cc977fc89dfa3ee0be7a9218415e406d058c3277f1a91adfba05a9357f4750000006a473044022051561a6e05e39466dcd28a1d873ff381ecc4c9c23f9fa72c91c76e1ea109246a0220045b0170994e572e5ee6da59729b78a34310e7d7b3683a7fdced6b1126a959fc012103671afb1c42eab36f1bfc62581bc458e90f328978ab4c61a3e27e6d669b24a925feffffff5d500b81072d828b3e8679e89099ca64f4286111edd7f47f90bb2e06f9fd459c310000006b483045022100b191832ce7755ba0b867b5f919deb65ad16071563bfd9191707641aa5599ab0b0220274943205a73d72de4021db60894fce7b4872c1a58000b17f25ddb7694dccf70012103b2ec7457414d556a4ebc2246ea1d7a7e7a5bfef3feaee7bdcb2c40c4f17b477afeffffff025cbc0100000000001976a9143572c9863687809ad228bdac1dbafd19c020486088acb6290e00000000001976a91461345794d1f38a5b13fb34752f99edf412cf20bd88ac0b490800", "vin": [{"sequence": 4294967294, "scriptSig": {"hex": "473044022051561a6e05e39466dcd28a1d873ff381ecc4c9c23f9fa72c91c76e1ea109246a0220045b0170994e572e5ee6da59729b78a34310e7d7b3683a7fdced6b1126a959fc012103671afb1c42eab36f1bfc62581bc458e90f328978ab4c61a3e27e6d669b24a925", "asm": "3044022051561a6e05e39466dcd28a1d873ff381ecc4c9c23f9fa72c91c76e1ea109246a0220045b0170994e572e5ee6da59729b78a34310e7d7b3683a7fdced6b1126a959fc[ALL] 03671afb1c42eab36f1bfc62581bc458e90f328978ab4c61a3e27e6d669b24a925"}, "vout": 117, "txid": "f457935aa0fbad911a7f27c358d006e4158421a9e70beea3df89fc77c99c9f30"}, {"sequence": 4294967294, "scriptSig": {"hex": "483045022100b191832ce7755ba0b867b5f919deb65ad16071563bfd9191707641aa5599ab0b0220274943205a73d72de4021db60894fce7b4872c1a58000b17f25ddb7694dccf70012103b2ec7457414d556a4ebc2246ea1d7a7e7a5bfef3feaee7bdcb2c40c4f17b477a", "asm": "3045022100b191832ce7755ba0b867b5f919deb65ad16071563bfd9191707641aa5599ab0b0220274943205a73d72de4021db60894fce7b4872c1a58000b17f25ddb7694dccf70[ALL] 03b2ec7457414d556a4ebc2246ea1d7a7e7a5bfef3feaee7bdcb2c40c4f17b477a"}, "vout": 49, "txid": "9c45fdf9062ebb907ff4d7ed116128f464ca9990e879863e8b822d07810b505d"}], "txid": "d7d5bc930c85dd2696c34323f1e4a387b47d539cf2dc57827cfb6d8f747ce5db", "blocktime": 1537870268, "version": 2, "confirmations": 11516, "time": 1537870268, "locktime": 542987, "vsize": 373, "size": 373}