{"hash": "98388c6bce74facb5e20510186ab10fddfb03b49ac92f32499c996f8bc5d6847", "blockhash": "00000000000000000024a2167bbff67b0be802c0b01cdd79e6331c2be6459f87", "vout": [{"scriptPubKey": {"reqSigs": 1, "hex": "76a91484f96898b3d50076dd3c4d0721cf2bfa437ef0db88ac", "addresses": ["1D86yXwtnJeGUUj4Muov11EFyARv7uJDJh"], "asm": "OP_DUP OP_HASH160 84f96898b3d50076dd3c4d0721cf2bfa437ef0db OP_EQUALVERIFY OP_CHECKSIG", "type": "pubkeyhash"}, "value": 0.03490813, "n": 0}, {"scriptPubKey": {"reqSigs": 1, "hex": "a914ca34af3147a60178e17b1c75d7963a0dfad22e8187", "addresses": ["3L8BXsBWzwVwV9hfFZrcrL5m5paWVgrvBR"], "asm": "OP_HASH160 ca34af3147a60178e17b1c75d7963a0dfad22e81 OP_EQUAL", "type": "scripthash"}, "value": 0.07129478, "n": 1}, {"scriptPubKey": {"reqSigs": 1, "hex": "a914d88478d940f2f5ea7ed8bf5695b94c85ff07e09b87", "addresses": ["3MRraJKzRZVcjeAQrgCNBAJ1CHF5sKzZof"], "asm": "OP_HASH160 d88478d940f2f5ea7ed8bf5695b94c85ff07e09b OP_EQUAL", "type": "scripthash"}, "value": 2.62498247, "n": 2}], "hex": "0200000000010134c269b2a1671db6942d33df4b65dd4e55582d89dad1892779a4888f5d17fe460200000017160014fcdd5de240290cd09ce1c33e244bed101bfb88b2feffffff03fd433500000000001976a91484f96898b3d50076dd3c4d0721cf2bfa437ef0db88ac86c96c000000000017a914ca34af3147a60178e17b1c75d7963a0dfad22e8187c767a50f0000000017a914d88478d940f2f5ea7ed8bf5695b94c85ff07e09b870247304402201976f5e272a6b9dad2d3a3c4c54af00db35acdbc7040fb83d3ead520426e537702201acce0ca509c9409203099d99b7e1abbc473e78652fd0c48dc594c4752c955210121022d000fb07307657f60300977d0c4913961e4fae1af51263045167807cc0d11a1e0480800", "vin": [{"txinwitness": ["304402201976f5e272a6b9dad2d3a3c4c54af00db35acdbc7040fb83d3ead520426e537702201acce0ca509c9409203099d99b7e1abbc473e78652fd0c48dc594c4752c9552101", "022d000fb07307657f60300977d0c4913961e4fae1af51263045167807cc0d11a1"], "sequence": 4294967294, "scriptSig": {"hex": "160014fcdd5de240290cd09ce1c33e244bed101bfb88b2", "asm": "0014fcdd5de240290cd09ce1c33e244bed101bfb88b2"}, "vout": 2, "txid": "46fe175d8f88a4792789d1da892d58554edd654bdf332d94b61d67a1b269c234"}], "txid": "d7d6dc970974f10fb669e199ccad117b7a10313512a1f7a28189f4a926b7c840", "blocktime": 1537870564, "version": 2, "confirmations": 11515, "time": 1537870564, "locktime": 542944, "vsize": 200, "size": 281}