{"hash": "d7d7205c8082379f3ebc53bccd649cc4d4414467c7dec66fcaa5758939eceeda", "blockhash": "00000000000000000004ffacab907a6b429b9a5745fa0b75af4234bf69dd7176", "vout": [{"scriptPubKey": {"reqSigs": 1, "hex": "76a91495bab73f3791d261d5e7d4084d6c10ce9b9f30da88ac", "addresses": ["1EehMppjUftnLpqqhy933Sed2j7KTtaXUU"], "asm": "OP_DUP OP_HASH160 95bab73f3791d261d5e7d4084d6c10ce9b9f30da OP_EQUALVERIFY OP_CHECKSIG", "type": "pubkeyhash"}, "value": 1.0, "n": 0}, {"scriptPubKey": {"reqSigs": 1, "hex": "76a914cebb2851a9c7cfe2582c12ecaf7f3ff4383d1dc088ac", "addresses": ["1Kr6QSydW9bFQG1mXiPNNu6WpJGmUa9i1g"], "asm": "OP_DUP OP_HASH160 cebb2851a9c7cfe2582c12ecaf7f3ff4383d1dc0 OP_EQUALVERIFY OP_CHECKSIG", "type": "pubkeyhash"}, "value": 140.72819142, "n": 1}], "hex": "0200000001abc155f44e1bb8369d96963a1b9bc146c4365f6a75743d3dca8b331083ffd4b8030000006a47304402207e859e4dcd3d54af86418138d656034a66029ae61d160244fe158339470fc7e302204982337ba106ad8300a0bc628e82e3a5c02f7b3774bbc1197303de4ac4b1bed5012103786af4b32017ec640dba2d2a7e1fd5aa4a231a658e4cbc114d51c031576e19bcffffffff0200e1f505000000001976a91495bab73f3791d261d5e7d4084d6c10ce9b9f30da88acc62dce46030000001976a914cebb2851a9c7cfe2582c12ecaf7f3ff4383d1dc088ac00000000", "vin": [{"sequence": 4294967295, "scriptSig": {"hex": "47304402207e859e4dcd3d54af86418138d656034a66029ae61d160244fe158339470fc7e302204982337ba106ad8300a0bc628e82e3a5c02f7b3774bbc1197303de4ac4b1bed5012103786af4b32017ec640dba2d2a7e1fd5aa4a231a658e4cbc114d51c031576e19bc", "asm": "304402207e859e4dcd3d54af86418138d656034a66029ae61d160244fe158339470fc7e302204982337ba106ad8300a0bc628e82e3a5c02f7b3774bbc1197303de4ac4b1bed5[ALL] 03786af4b32017ec640dba2d2a7e1fd5aa4a231a658e4cbc114d51c031576e19bc"}, "vout": 3, "txid": "b8d4ff8310338bca3d3d74756a5f36c446c19b1b3a96969d36b81b4ef455c1ab"}], "txid": "d7d7205c8082379f3ebc53bccd649cc4d4414467c7dec66fcaa5758939eceeda", "blocktime": 1537875543, "version": 2, "confirmations": 11464, "time": 1537875543, "locktime": 0, "vsize": 225, "size": 225}