{"hash": "1c2eb9c55141044c0a37113a64bd98880d00711cbb0d993e3b75b0f1b9308dd7", "blockhash": "00000000000000000017f5eb5941039fbcee6240d03bc1f2f8e35350df66a1d8", "vout": [{"scriptPubKey": {"reqSigs": 1, "hex": "a9147ef6f17edac1d5980047a6a79fd6df59873b767787", "addresses": ["3DGLtdzSL3ro3z3NtXRZ7wqeEzhhmeqUcz"], "asm": "OP_HASH160 7ef6f17edac1d5980047a6a79fd6df59873b7677 OP_EQUAL", "type": "scripthash"}, "value": 0.01113693, "n": 0}, {"scriptPubKey": {"reqSigs": 1, "hex": "a914d9ac7612753eb9d10d1964b0a28827cce79501fa87", "addresses": ["3MXy9zAxHdDGTvdhdKPNtnNrJKr4YWHqkU"], "asm": "OP_HASH160 d9ac7612753eb9d10d1964b0a28827cce79501fa OP_EQUAL", "type": "scripthash"}, "value": 0.00617837, "n": 1}, {"scriptPubKey": {"reqSigs": 1, "hex": "76a914550c8c0e9379511148b04525a87f0063bfe0bc4288ac", "addresses": ["18khU6QWw1Ek3txSGJhJzYLPyHHnz9sjm7"], "asm": "OP_DUP OP_HASH160 550c8c0e9379511148b04525a87f0063bfe0bc42 OP_EQUALVERIFY OP_CHECKSIG", "type": "pubkeyhash"}, "value": 0.0057485, "n": 2}, {"scriptPubKey": {"reqSigs": 1, "hex": "a91412a84f9730ab12fd2023d27bc3131049e94e14dd87", "addresses": ["33PfiSer3t2yMH8UmJzGBMGv5Mne2fXMTK"], "asm": "OP_HASH160 12a84f9730ab12fd2023d27bc3131049e94e14dd OP_EQUAL", "type": "scripthash"}, "value": 0.00687521, "n": 3}, {"scriptPubKey": {"reqSigs": 1, "hex": "a914b723b7282d928ecf35583c9af827ad1fcf5ffe4a87", "addresses": ["3JPNNCgLSyL89Rk19yW5TXtahuLzQNSN9C"], "asm": "OP_HASH160 b723b7282d928ecf35583c9af827ad1fcf5ffe4a OP_EQUAL", "type": "scripthash"}, "value": 0.00394113, "n": 4}, {"scriptPubKey": {"reqSigs": 1, "hex": "a9144c6c8295999eee3601994d524cfff08bfd1847f287", "addresses": ["38f7GY4tgZhJ6rERJPiUFPziwXfjy9PZ58"], "asm": "OP_HASH160 4c6c8295999eee3601994d524cfff08bfd1847f2 OP_EQUAL", "type": "scripthash"}, "value": 0.00593641, "n": 5}, {"scriptPubKey": {"reqSigs": 1, "hex": "a9142ea2254c1403d7d62d28cdf1f889515406af3da387", "addresses": ["35wbFSwpqL6JJLafrajfZEhWU4qwSDBeib"], "asm": "OP_HASH160 2ea2254c1403d7d62d28cdf1f889515406af3da3 OP_EQUAL", "type": "scripthash"}, "value": 0.00451733, "n": 6}, {"scriptPubKey": {"reqSigs": 1, "hex": "a9146e8a798110abaab831c1063e2e5ffb68ab456ff387", "addresses": ["3BmW92jjr2DJTpCJQC256C569Pa3egLkB7"], "asm": "OP_HASH160 6e8a798110abaab831c1063e2e5ffb68ab456ff3 OP_EQUAL", "type": "scripthash"}, "value": 0.00029466, "n": 7}, {"scriptPubKey": {"reqSigs": 1, "hex": "a914c122849211e4745cbf2db5fc06ca31ee1001674187", "addresses": ["3KJDguhzxRKJHvQt7VX8jLaZJfT1CxvtQp"], "asm": "OP_HASH160 c122849211e4745cbf2db5fc06ca31ee10016741 OP_EQUAL", "type": "scripthash"}, "value": 0.007566, "n": 8}, {"scriptPubKey": {"reqSigs": 1, "hex": "76a9144b554673f1b0f7664129e1906c7833d6a2a0014a88ac", "addresses": ["17sKqQvhJbAiYWNrUsk5qfRYNSGPKjnLEW"], "asm": "OP_DUP OP_HASH160 4b554673f1b0f7664129e1906c7833d6a2a0014a OP_EQUALVERIFY OP_CHECKSIG", "type": "pubkeyhash"}, "value": 0.01840431, "n": 9}, {"scriptPubKey": {"reqSigs": 1, "hex": "a9148db1bba3f428f8b036a3ed04cabbd6f5667aceca87", "addresses": ["3EcE7hGfD1pxUVX5YCjXd57DqpQUWqyK4i"], "asm": "OP_HASH160 8db1bba3f428f8b036a3ed04cabbd6f5667aceca OP_EQUAL", "type": "scripthash"}, "value": 0.00666567, "n": 10}, {"scriptPubKey": {"reqSigs": 1, "hex": "a914bf797c5ee201251d4eb916e5378257930f48d87787", "addresses": ["3K9SXAbjBGNyzFkAYPYnr6HQ4Mpzq6gcbm"], "asm": "OP_HASH160 bf797c5ee201251d4eb916e5378257930f48d877 OP_EQUAL", "type": "scripthash"}, "value": 0.04129484, "n": 11}, {"scriptPubKey": {"reqSigs": 1, "hex": "a914ca24439a6bc235df7468a5254efb589f685604b587", "addresses": ["3L7qrxxYdWwfd3vFNFwZbTT2dVCA92fVGF"], "asm": "OP_HASH160 ca24439a6bc235df7468a5254efb589f685604b5 OP_EQUAL", "type": "scripthash"}, "value": 0.00733252, "n": 12}, {"scriptPubKey": {"reqSigs": 1, "hex": "76a9146abd71adf9cff54b0ef103e83eee1863821857f488ac", "addresses": ["1AjPa91gzUkQ4LhfLK5oPFZPjkxLgzLYJy"], "asm": "OP_DUP OP_HASH160 6abd71adf9cff54b0ef103e83eee1863821857f4 OP_EQUALVERIFY OP_CHECKSIG", "type": "pubkeyhash"}, "value": 0.00438175, "n": 13}, {"scriptPubKey": {"reqSigs": 1, "hex": "76a914755c7550ca8be594071c2533c948effbf1ae7e1988ac", "addresses": ["1BhYpZJdj6jctC6D11r1jBZutiDPUJiH25"], "asm": "OP_DUP OP_HASH160 755c7550ca8be594071c2533c948effbf1ae7e19 OP_EQUALVERIFY OP_CHECKSIG", "type": "pubkeyhash"}, "value": 0.00724154, "n": 14}, {"scriptPubKey": {"reqSigs": 1, "hex": "a9148de5636a4590e24a3dd14c4ca5366879362e364087", "addresses": ["3EdHzmo7LmtTPErG9kKtwaiwjQkMcsyp4j"], "asm": "OP_HASH160 8de5636a4590e24a3dd14c4ca5366879362e3640 OP_EQUAL", "type": "scripthash"}, "value": 0.00271207, "n": 15}, {"scriptPubKey": {"reqSigs": 1, "hex": "a914a7e86747c5d102951557e4c8e210e983a010e56a87", "addresses": ["3GzqBFetF6UNDYnEUYdr6f27LiNanr7Nvo"], "asm": "OP_HASH160 a7e86747c5d102951557e4c8e210e983a010e56a OP_EQUAL", "type": "scripthash"}, "value": 0.0043482, "n": 16}, {"scriptPubKey": {"reqSigs": 1, "hex": "a9143c16ff2eab1927d35f479b28d517044a1b4bcb8987", "addresses": ["37Ak1u8iTeMZKf8Dz27qaE8LtvnsfrzRto"], "asm": "OP_HASH160 3c16ff2eab1927d35f479b28d517044a1b4bcb89 OP_EQUAL", "type": "scripthash"}, "value": 0.00327594, "n": 17}, {"scriptPubKey": {"reqSigs": 1, "hex": "a914e6b83c95a5616559aaf698883ae599c8f39b843f87", "addresses": ["3Nix3enESWF84muunpNVkwJw5sAoKWLMPY"], "asm": "OP_HASH160 e6b83c95a5616559aaf698883ae599c8f39b843f OP_EQUAL", "type": "scripthash"}, "value": 0.0025882, "n": 18}, {"scriptPubKey": {"reqSigs": 1, "hex": "a914aa7e3df0d6345e53c7844ae38c4271d3318d255f87", "addresses": ["3HEW2bk1uRx5nPxL31iHPJW43Bp2JyoVPV"], "asm": "OP_HASH160 aa7e3df0d6345e53c7844ae38c4271d3318d255f OP_EQUAL", "type": "scripthash"}, "value": 0.00617981, "n": 19}, {"scriptPubKey": {"reqSigs": 1, "hex": "a914e5126980c967f9f82c08a841b4bffdf8359ab97187", "addresses": ["3NaEimazL95YRFGiWCFtExk9ZfhyaHyhib"], "asm": "OP_HASH160 e5126980c967f9f82c08a841b4bffdf8359ab971 OP_EQUAL", "type": "scripthash"}, "value": 0.00149083, "n": 20}, {"scriptPubKey": {"reqSigs": 1, "hex": "a914fb476fcd82d11cdf2dd0b5be90937b58c554d93487", "addresses": ["3Qbf7Co7DB4TbRBFt4BF88UQgRnbracdtw"], "asm": "OP_HASH160 fb476fcd82d11cdf2dd0b5be90937b58c554d934 OP_EQUAL", "type": "scripthash"}, "value": 0.0048, "n": 21}, {"scriptPubKey": {"reqSigs": 1, "hex": "a9145a43d7bbde7eecc8782cfdf26c36aa445b19c0d687", "addresses": ["39vJ1buZgz5djh7qB4RWB7daTdf6WiSkzU"], "asm": "OP_HASH160 5a43d7bbde7eecc8782cfdf26c36aa445b19c0d6 OP_EQUAL", "type": "scripthash"}, "value": 0.00157028, "n": 22}, {"scriptPubKey": {"reqSigs": 1, "hex": "a9140f9bf6d83302f894c7e4e75134eae83ee07f4e1f87", "addresses": ["337Yu1KZtD8wMi8boWbJboKwDjUbDAcWrw"], "asm": "OP_HASH160 0f9bf6d83302f894c7e4e75134eae83ee07f4e1f OP_EQUAL", "type": "scripthash"}, "value": 18.95573303, "n": 23}, {"scriptPubKey": {"reqSigs": 1, "hex": "a914e458e96556e9a9a63d54141ff42ab262f9ad76f487", "addresses": ["3NWQVyURbocwqidesVey6JNddGyzbQZapv"], "asm": "OP_HASH160 e458e96556e9a9a63d54141ff42ab262f9ad76f4 OP_EQUAL", "type": "scripthash"}, "value": 0.0028496, "n": 24}, {"scriptPubKey": {"reqSigs": 1, "hex": "a914781cb941d6473752b9edd7a23152916c2e831c0087", "addresses": ["3Ce7RKRB5C7MWqwKLciYGZYY9or6s2GKSm"], "asm": "OP_HASH160 781cb941d6473752b9edd7a23152916c2e831c00 OP_EQUAL", "type": "scripthash"}, "value": 0.0025976, "n": 25}, {"scriptPubKey": {"reqSigs": 1, "hex": "a914867d8e66909179ac0e8efc9bf447f41218509c2787", "addresses": ["3Dx8t3smyNDKLRFoduoLc8o7LFb1V5ngDn"], "asm": "OP_HASH160 867d8e66909179ac0e8efc9bf447f41218509c27 OP_EQUAL", "type": "scripthash"}, "value": 0.00049963, "n": 26}, {"scriptPubKey": {"reqSigs": 1, "hex": "a91420557c1a08aa62b1f4fefdac5e1d4515f69d7e7a87", "addresses": ["34dyxGXFij9wbL5EJ1or1pDTZjgnQWxoxP"], "asm": "OP_HASH160 20557c1a08aa62b1f4fefdac5e1d4515f69d7e7a OP_EQUAL", "type": "scripthash"}, "value": 0.0030896, "n": 27}, {"scriptPubKey": {"reqSigs": 1, "hex": "a9145431a31445b02853714ef7f2a2989a3ccd8b5d4587", "addresses": ["39NC9VspZ1xKE1TRed39wBrAZUEpZpK7sn"], "asm": "OP_HASH160 5431a31445b02853714ef7f2a2989a3ccd8b5d45 OP_EQUAL", "type": "scripthash"}, "value": 0.0022226, "n": 28}, {"scriptPubKey": {"reqSigs": 1, "hex": "76a9142efda30400a63d5d00a9584251993d046f37f7d788ac", "addresses": ["15HTvpN63sKoeWi3PQvimcrrRoxMgiwpCc"], "asm": "OP_DUP OP_HASH160 2efda30400a63d5d00a9584251993d046f37f7d7 OP_EQUALVERIFY OP_CHECKSIG", "type": "pubkeyhash"}, "value": 0.00107124, "n": 29}, {"scriptPubKey": {"reqSigs": 1, "hex": "a9144ae7160c755443bbe5a3407763a463685460200087", "addresses": ["38X4ktGqJeuGtM8pFSJh645sFjQpZ98srq"], "asm": "OP_HASH160 4ae7160c755443bbe5a3407763a4636854602000 OP_EQUAL", "type": "scripthash"}, "value": 0.01876275, "n": 30}, {"scriptPubKey": {"reqSigs": 1, "hex": "a914450c2c5e36de92655b7b5e71c174e7e7e565218c87", "addresses": ["37z78bZMJrJnpWsZ1DykReT8LEhtkvDFxX"], "asm": "OP_HASH160 450c2c5e36de92655b7b5e71c174e7e7e565218c OP_EQUAL", "type": "scripthash"}, "value": 0.00455319, "n": 31}], "hex": "020000000001019769df820523786a341fddece920bb63f979ef36494fdf40a36960e8c861995d13000000171600146e1d6d2123a377114f73bd9844432a1e5e50f6d1feffffff205dfe10000000000017a9147ef6f17edac1d5980047a6a79fd6df59873b7677876d6d09000000000017a914d9ac7612753eb9d10d1964b0a28827cce79501fa8782c50800000000001976a914550c8c0e9379511148b04525a87f0063bfe0bc4288aca17d0a000000000017a91412a84f9730ab12fd2023d27bc3131049e94e14dd87810306000000000017a914b723b7282d928ecf35583c9af827ad1fcf5ffe4a87e90e09000000000017a9144c6c8295999eee3601994d524cfff08bfd1847f28795e406000000000017a9142ea2254c1403d7d62d28cdf1f889515406af3da3871a7300000000000017a9146e8a798110abaab831c1063e2e5ffb68ab456ff387788b0b000000000017a914c122849211e4745cbf2db5fc06ca31ee10016741872f151c00000000001976a9144b554673f1b0f7664129e1906c7833d6a2a0014a88acc72b0a000000000017a9148db1bba3f428f8b036a3ed04cabbd6f5667aceca87cc023f000000000017a914bf797c5ee201251d4eb916e5378257930f48d8778744300b000000000017a914ca24439a6bc235df7468a5254efb589f685604b5879faf0600000000001976a9146abd71adf9cff54b0ef103e83eee1863821857f488acba0c0b00000000001976a914755c7550ca8be594071c2533c948effbf1ae7e1988ac672304000000000017a9148de5636a4590e24a3dd14c4ca5366879362e36408784a206000000000017a914a7e86747c5d102951557e4c8e210e983a010e56a87aaff04000000000017a9143c16ff2eab1927d35f479b28d517044a1b4bcb898704f303000000000017a914e6b83c95a5616559aaf698883ae599c8f39b843f87fd6d09000000000017a914aa7e3df0d6345e53c7844ae38c4271d3318d255f875b4602000000000017a914e5126980c967f9f82c08a841b4bffdf8359ab97187005307000000000017a914fb476fcd82d11cdf2dd0b5be90937b58c554d93487646502000000000017a9145a43d7bbde7eecc8782cfdf26c36aa445b19c0d6873727fc700000000017a9140f9bf6d83302f894c7e4e75134eae83ee07f4e1f87205904000000000017a914e458e96556e9a9a63d54141ff42ab262f9ad76f487b0f603000000000017a914781cb941d6473752b9edd7a23152916c2e831c00872bc300000000000017a914867d8e66909179ac0e8efc9bf447f41218509c2787e0b604000000000017a91420557c1a08aa62b1f4fefdac5e1d4515f69d7e7a87346403000000000017a9145431a31445b02853714ef7f2a2989a3ccd8b5d458774a20100000000001976a9142efda30400a63d5d00a9584251993d046f37f7d788ac33a11c000000000017a9144ae7160c755443bbe5a3407763a46368546020008797f206000000000017a914450c2c5e36de92655b7b5e71c174e7e7e565218c87024730440220482f881eac5753f2631dbe5fd362c283c18825d6f237d0d7b1a254d40142156602203be6e0ce275e585d49dfea343852fdeb6ba73b954f7bc5d6a388e2cffcb80f510121030a304a1674b22d1eadad62d28af412990d7a69134eac836d2a30833ee2cd00d215490800", "vin": [{"txinwitness": ["30440220482f881eac5753f2631dbe5fd362c283c18825d6f237d0d7b1a254d40142156602203be6e0ce275e585d49dfea343852fdeb6ba73b954f7bc5d6a388e2cffcb80f5101", "030a304a1674b22d1eadad62d28af412990d7a69134eac836d2a30833ee2cd00d2"], "sequence": 4294967294, "scriptSig": {"hex": "1600146e1d6d2123a377114f73bd9844432a1e5e50f6d1", "asm": "00146e1d6d2123a377114f73bd9844432a1e5e50f6d1"}, "vout": 19, "txid": "5d9961c8e86069a340df4f4936ef79f963bb20e9ecdd1f346a78230582df6997"}], "txid": "d7dad4131101aec13ff91f052c7f2b6e844e557c08b050ecff47adf3c7cda321", "blocktime": 1537874412, "version": 2, "confirmations": 11467, "time": 1537874412, "locktime": 542997, "vsize": 1136, "size": 1217}