{"hash": "d7db3c30770488186e3977e7a7243cce3676402b3d5a8d79221b66ca73a36369", "blockhash": "0000000000000000000e13cef7c366c0283d82e591d1acd082e914b08063cdf1", "vout": [{"scriptPubKey": {"reqSigs": 1, "hex": "76a914d243e6abb9a60fbff430b421d2df4b7d59ec186088ac", "addresses": ["1LAnF8h3qMGx3TSwNUHVneBZUEpwE4gu3D"], "asm": "OP_DUP OP_HASH160 d243e6abb9a60fbff430b421d2df4b7d59ec1860 OP_EQUALVERIFY OP_CHECKSIG", "type": "pubkeyhash"}, "value": 0.00076972, "n": 0}, {"scriptPubKey": {"reqSigs": 1, "hex": "76a9143851f34d13937b673a7d24a1950bb5b21ce94af388ac", "addresses": ["168o1kqNquEJeR9vosUB5fw4eAwcVAgh8P"], "asm": "OP_DUP OP_HASH160 3851f34d13937b673a7d24a1950bb5b21ce94af3 OP_EQUALVERIFY OP_CHECKSIG", "type": "pubkeyhash"}, "value": 5.46e-06, "n": 1}, {"scriptPubKey": {"type": "nulldata", "hex": "6a146f6d6e69000000000000001f00000ce48e9360a0", "asm": "OP_RETURN 6f6d6e69000000000000001f00000ce48e9360a0"}, "value": 0.0, "n": 2}], "hex": "01000000024feca256231caa6fb8dbda4021911b96e0cd67bb4eb44c2cbb2eec8ce132b2ed000000006b48304502210087beb1f65ae49515ee95b0be701955e38fe2d566af29da41856a19e7a8c9e5de02204c791085c8eaea85e2b359fd91b3dbf0011a27189bd3d384bf0626a0f8fa0d7c012102a13031468ee65bb32190dda4de34f8f90eaeb6c743a14be5209828f3031c01c3ffffffff47043bae7b5875703ca8aeb0d10684fb94a4fe09de48aeab4dcb6e6216f0a7f0000000006b483045022100de9ba0bad270695864917c36732f791a42c1dcb7e8e5e04bbe10eaa6bbd0b2ae0220437f5111502b2d66de9057e346efaa4e70cad6a9ad7a559d6f421b0fbdf0688901210271977291b74f1f5f5c42157e8aae804664eaaeccfd097918450d37f28fb94d77ffffffff03ac2c0100000000001976a914d243e6abb9a60fbff430b421d2df4b7d59ec186088ac22020000000000001976a9143851f34d13937b673a7d24a1950bb5b21ce94af388ac0000000000000000166a146f6d6e69000000000000001f00000ce48e9360a000000000", "vin": [{"sequence": 4294967295, "scriptSig": {"hex": "48304502210087beb1f65ae49515ee95b0be701955e38fe2d566af29da41856a19e7a8c9e5de02204c791085c8eaea85e2b359fd91b3dbf0011a27189bd3d384bf0626a0f8fa0d7c012102a13031468ee65bb32190dda4de34f8f90eaeb6c743a14be5209828f3031c01c3", "asm": "304502210087beb1f65ae49515ee95b0be701955e38fe2d566af29da41856a19e7a8c9e5de02204c791085c8eaea85e2b359fd91b3dbf0011a27189bd3d384bf0626a0f8fa0d7c[ALL] 02a13031468ee65bb32190dda4de34f8f90eaeb6c743a14be5209828f3031c01c3"}, "vout": 0, "txid": "edb232e18cec2ebb2c4cb44ebb67cde0961b912140dadbb86faa1c2356a2ec4f"}, {"sequence": 4294967295, "scriptSig": {"hex": "483045022100de9ba0bad270695864917c36732f791a42c1dcb7e8e5e04bbe10eaa6bbd0b2ae0220437f5111502b2d66de9057e346efaa4e70cad6a9ad7a559d6f421b0fbdf0688901210271977291b74f1f5f5c42157e8aae804664eaaeccfd097918450d37f28fb94d77", "asm": "3045022100de9ba0bad270695864917c36732f791a42c1dcb7e8e5e04bbe10eaa6bbd0b2ae0220437f5111502b2d66de9057e346efaa4e70cad6a9ad7a559d6f421b0fbdf06889[ALL] 0271977291b74f1f5f5c42157e8aae804664eaaeccfd097918450d37f28fb94d77"}, "vout": 0, "txid": "f0a7f016626ecb4dabae48de09fea494fb8406d1b0aea83c7075587bae3b0447"}], "txid": "d7db3c30770488186e3977e7a7243cce3676402b3d5a8d79221b66ca73a36369", "blocktime": 1537871767, "version": 1, "confirmations": 11491, "time": 1537871767, "locktime": 0, "vsize": 405, "size": 405}