{"hash": "d7ddaa7e60ee82fe375a9530ac013e4b46403e9d8295d54b1e514e006cfcff08", "blockhash": "0000000000000000001f76057863aec43deb6fa401d9628bb513d65a8098bfab", "vout": [{"scriptPubKey": {"reqSigs": 1, "hex": "76a914ead23b0fca1be6620abbe39732b3cb7a085550b988ac", "addresses": ["1NQcxyVtnTAZshJ9e4sRZG9vhpoENcZxRJ"], "asm": "OP_DUP OP_HASH160 ead23b0fca1be6620abbe39732b3cb7a085550b9 OP_EQUALVERIFY OP_CHECKSIG", "type": "pubkeyhash"}, "value": 0.015451, "n": 0}, {"scriptPubKey": {"reqSigs": 1, "hex": "76a914c84fb8433478459b655f8fd77efdd16a6284cb9888ac", "addresses": ["1KG9ePogtghtBxQoV5ANQDp4tzjrNbrpLR"], "asm": "OP_DUP OP_HASH160 c84fb8433478459b655f8fd77efdd16a6284cb98 OP_EQUALVERIFY OP_CHECKSIG", "type": "pubkeyhash"}, "value": 0.022715, "n": 1}], "hex": "010000000164944f5d0f45fd45f47a2c7a5c1de1bcbe0f974680c9c8fa780bc4aa6ea3889d000000006b483045022100ddac1462566ccda4b2838d26c2a82420fcf1fef59905eee5662c7b13a1d0efa002203480237b746e85b7bad9ccee3864bb62c3a1f2f1188b01da86f1c6b70068ecbb012103a8bb86d8a13a9ce55c2d5636d89dad571922b1a6dd4064c4977f9b46633d6ccbffffffff028c931700000000001976a914ead23b0fca1be6620abbe39732b3cb7a085550b988ac0ca92200000000001976a914c84fb8433478459b655f8fd77efdd16a6284cb9888ac00000000", "vin": [{"sequence": 4294967295, "scriptSig": {"hex": "483045022100ddac1462566ccda4b2838d26c2a82420fcf1fef59905eee5662c7b13a1d0efa002203480237b746e85b7bad9ccee3864bb62c3a1f2f1188b01da86f1c6b70068ecbb012103a8bb86d8a13a9ce55c2d5636d89dad571922b1a6dd4064c4977f9b46633d6ccb", "asm": "3045022100ddac1462566ccda4b2838d26c2a82420fcf1fef59905eee5662c7b13a1d0efa002203480237b746e85b7bad9ccee3864bb62c3a1f2f1188b01da86f1c6b70068ecbb[ALL] 03a8bb86d8a13a9ce55c2d5636d89dad571922b1a6dd4064c4977f9b46633d6ccb"}, "vout": 0, "txid": "9d88a36eaac40b78fac8c98046970fbebce11d5c7a2c7af445fd450f5d4f9464"}], "txid": "d7ddaa7e60ee82fe375a9530ac013e4b46403e9d8295d54b1e514e006cfcff08", "blocktime": 1537873891, "version": 1, "confirmations": 11478, "time": 1537873891, "locktime": 0, "vsize": 226, "size": 226}