{"hash": "628e362a8d6b1417e96bb09c5b179a01727ffee42e276a0b2d0469bce1c2da66", "blockhash": "0000000000000000000e13cef7c366c0283d82e591d1acd082e914b08063cdf1", "vout": [{"scriptPubKey": {"reqSigs": 1, "hex": "a914eaf45e3a9fb56fc544b31f70a231eb4d68bd20ab87", "addresses": ["3P7LnRYqQo3ej6ZwuC2NPY6qQuvLF86iex"], "asm": "OP_HASH160 eaf45e3a9fb56fc544b31f70a231eb4d68bd20ab OP_EQUAL", "type": "scripthash"}, "value": 0.02483672, "n": 0}, {"scriptPubKey": {"reqSigs": 1, "hex": "a91440a4460a665369dee546ab943051294556d071d787", "addresses": ["37aoxkUp4kr28Vj8d5USvUW8CJnrMZrXQo"], "asm": "OP_HASH160 40a4460a665369dee546ab943051294556d071d7 OP_EQUAL", "type": "scripthash"}, "value": 0.02983354, "n": 1}], "hex": "0200000000010122d6bb675e37bc6267d025e621c219609c6aa8fb5ecb8c9b5058b1b262ee3e380000000017160014dd434d814404406d6b3d4576685e3cd6461f28bafeffffff02d8e525000000000017a914eaf45e3a9fb56fc544b31f70a231eb4d68bd20ab87ba852d000000000017a91440a4460a665369dee546ab943051294556d071d787024730440220467a15c539b8ef36291ddccd34903bda8ff1927c86f43cff210788fec0eefb5e022044bb3e772c3c9412a00e2b3bd1253271a0e976accdc5f694c899fb70fd5332f80121033e757aacf9cfe384b45b028bff09d990e9d7598a7917a307558553b04317569ce3480800", "vin": [{"txinwitness": ["30440220467a15c539b8ef36291ddccd34903bda8ff1927c86f43cff210788fec0eefb5e022044bb3e772c3c9412a00e2b3bd1253271a0e976accdc5f694c899fb70fd5332f801", "033e757aacf9cfe384b45b028bff09d990e9d7598a7917a307558553b04317569c"], "sequence": 4294967294, "scriptSig": {"hex": "160014dd434d814404406d6b3d4576685e3cd6461f28ba", "asm": "0014dd434d814404406d6b3d4576685e3cd6461f28ba"}, "vout": 0, "txid": "383eee62b2b158509b8ccb5efba86a9c6019c221e625d06762bc375e67bbd622"}], "txid": "d7e0717f14fb85c835a7d274659d7eb08202307de4a51c2d5dcf85d196c6e34d", "blocktime": 1537871767, "version": 2, "confirmations": 11495, "time": 1537871767, "locktime": 542947, "vsize": 166, "size": 247}