{"hash": "d7e48e364b97b9db6069891611722e66ee614007783b8e1b412b355df6eadb6f", "blockhash": "0000000000000000001f0ddff1eddb255c1121bcd4da4f1bc9a0da00cae72433", "vout": [{"scriptPubKey": {"reqSigs": 1, "hex": "a914a58c1afe64b826839913d2f1a02cf4de22bfc96787", "addresses": ["3GnMFtjHzbeGbcXNpWFtWMDTsiCKkyqN1m"], "asm": "OP_HASH160 a58c1afe64b826839913d2f1a02cf4de22bfc967 OP_EQUAL", "type": "scripthash"}, "value": 0.00193245, "n": 0}, {"scriptPubKey": {"reqSigs": 1, "hex": "76a914d679eebafe85e24680a41a1335c71b97fd04905888ac", "addresses": ["1LZ3g5F9FA6HXRfwua62E6PpxHHa6vCD2Y"], "asm": "OP_DUP OP_HASH160 d679eebafe85e24680a41a1335c71b97fd049058 OP_EQUALVERIFY OP_CHECKSIG", "type": "pubkeyhash"}, "value": 0.00191532, "n": 1}, {"scriptPubKey": {"reqSigs": 1, "hex": "76a9145ae1cde8c5bfdf116457a6fa2762a08cda6a47ea88ac", "addresses": ["19HYKReCCkH6TbV9wYpKWejq5hQbdGuX1g"], "asm": "OP_DUP OP_HASH160 5ae1cde8c5bfdf116457a6fa2762a08cda6a47ea OP_EQUALVERIFY OP_CHECKSIG", "type": "pubkeyhash"}, "value": 0.001955, "n": 2}, {"scriptPubKey": {"reqSigs": 1, "hex": "76a914fb13a832d5d3ba73d04993ac15c2c1156698266e88ac", "addresses": ["1Pta9wj1q6H94NetUNsMsrVhDsjghFvMGk"], "asm": "OP_DUP OP_HASH160 fb13a832d5d3ba73d04993ac15c2c1156698266e OP_EQUALVERIFY OP_CHECKSIG", "type": "pubkeyhash"}, "value": 0.0019142, "n": 3}, {"scriptPubKey": {"reqSigs": 1, "hex": "76a914b235c1c0a4aab3be2890747de6f024924d44f2b888ac", "addresses": ["1HFHgEk4UGZgJT4LNDjZT1zufev3BncLbW"], "asm": "OP_DUP OP_HASH160 b235c1c0a4aab3be2890747de6f024924d44f2b8 OP_EQUALVERIFY OP_CHECKSIG", "type": "pubkeyhash"}, "value": 0.00193509, "n": 4}, {"scriptPubKey": {"reqSigs": 1, "hex": "76a91404cf57206fda7e399633370b419d80511ec429b588ac", "addresses": ["1SS62YXYJGTEVq8nfuGPnEkKFAn1GbSq2"], "asm": "OP_DUP OP_HASH160 04cf57206fda7e399633370b419d80511ec429b5 OP_EQUALVERIFY OP_CHECKSIG", "type": "pubkeyhash"}, "value": 0.00203204, "n": 5}, {"scriptPubKey": {"reqSigs": 1, "hex": "76a914c3ae91b3be26b44bfa80b813c368376c59ed009d88ac", "addresses": ["1Jqftgg76utnQZFYvo5dTES8WfxUjPgYCC"], "asm": "OP_DUP OP_HASH160 c3ae91b3be26b44bfa80b813c368376c59ed009d OP_EQUALVERIFY OP_CHECKSIG", "type": "pubkeyhash"}, "value": 0.00195752, "n": 6}, {"scriptPubKey": {"reqSigs": 1, "hex": "76a91472c54be21401a4bd218f233d5e1db5b75a72e85a88ac", "addresses": ["1BTrPGKanB3WKebfAfyi8s8hS4STvyWsj1"], "asm": "OP_DUP OP_HASH160 72c54be21401a4bd218f233d5e1db5b75a72e85a OP_EQUALVERIFY OP_CHECKSIG", "type": "pubkeyhash"}, "value": 0.00196739, "n": 7}, {"scriptPubKey": {"reqSigs": 1, "hex": "76a91490a4dd9d19e7085b17f150f62e1668978fc3920588ac", "addresses": ["1EBooh81QycFEiaaGyrjEeH3EZBpMQdodP"], "asm": "OP_DUP OP_HASH160 90a4dd9d19e7085b17f150f62e1668978fc39205 OP_EQUALVERIFY OP_CHECKSIG", "type": "pubkeyhash"}, "value": 0.00194168, "n": 8}, {"scriptPubKey": {"reqSigs": 1, "hex": "a91416ef24f20d58f7d0ee1acbbf8e67376f6c26f0fe87", "addresses": ["33nHGoW5sL1LhDiHqd4ysfo9wGbwmg36Bd"], "asm": "OP_HASH160 16ef24f20d58f7d0ee1acbbf8e67376f6c26f0fe OP_EQUAL", "type": "scripthash"}, "value": 0.00193893, "n": 9}, {"scriptPubKey": {"reqSigs": 1, "hex": "a914fac53c5c5fb4de02597199669488e7d04601b9da87", "addresses": ["3QYy8gcx6nuDX1BFjd5zmj5dw6akYqizug"], "asm": "OP_HASH160 fac53c5c5fb4de02597199669488e7d04601b9da OP_EQUAL", "type": "scripthash"}, "value": 0.00198351, "n": 10}, {"scriptPubKey": {"reqSigs": 1, "hex": "76a914b80e03993b68fbf69554a783548e7c5a24c2c29488ac", "addresses": ["1HnC81cTUknLMN19psdRQkPSvaL2tRBpdu"], "asm": "OP_DUP OP_HASH160 b80e03993b68fbf69554a783548e7c5a24c2c294 OP_EQUALVERIFY OP_CHECKSIG", "type": "pubkeyhash"}, "value": 0.00198321, "n": 11}, {"scriptPubKey": {"reqSigs": 1, "hex": "76a91420c0695967cedde6c6078eac83c30cfbabcb162288ac", "addresses": ["13zB88Gp3XvLPBwAat59mWQdh4HgXCECV9"], "asm": "OP_DUP OP_HASH160 20c0695967cedde6c6078eac83c30cfbabcb1622 OP_EQUALVERIFY OP_CHECKSIG", "type": "pubkeyhash"}, "value": 0.00193383, "n": 12}, {"scriptPubKey": {"reqSigs": 1, "hex": "a9141d398d725330217d510ac3a0828995164171033987", "addresses": ["34MYTvgkZBPNLzLx5kbk1XdNAcCWuTz3J8"], "asm": "OP_HASH160 1d398d725330217d510ac3a08289951641710339 OP_EQUAL", "type": "scripthash"}, "value": 0.00197516, "n": 13}, {"scriptPubKey": {"reqSigs": 1, "hex": "a9140bb5b2fcf2584e29f4733ee82eec53132191ffe187", "addresses": ["32kw2LJofsmERiQE5QdyZynZGLuKgf6x9U"], "asm": "OP_HASH160 0bb5b2fcf2584e29f4733ee82eec53132191ffe1 OP_EQUAL", "type": "scripthash"}, "value": 0.00193857, "n": 14}, {"scriptPubKey": {"reqSigs": 1, "hex": "76a91412a263e6b6119a7135238451d5ca00d3951fa5ec88ac", "addresses": ["12hXhXRePqddU9EDkWxYZgVaw58mDpmbU8"], "asm": "OP_DUP OP_HASH160 12a263e6b6119a7135238451d5ca00d3951fa5ec OP_EQUALVERIFY OP_CHECKSIG", "type": "pubkeyhash"}, "value": 0.00207008, "n": 15}, {"scriptPubKey": {"reqSigs": 1, "hex": "76a91494f74c61b520e695507ee2d4fe3783768881fdca88ac", "addresses": ["1EafFyzTEZep5Goz1apa7PpLu2cSdu4y3J"], "asm": "OP_DUP OP_HASH160 94f74c61b520e695507ee2d4fe3783768881fdca OP_EQUALVERIFY OP_CHECKSIG", "type": "pubkeyhash"}, "value": 0.00203851, "n": 16}, {"scriptPubKey": {"reqSigs": 1, "hex": "76a91493d8b84977bb312f1d975606c165245a299a242f88ac", "addresses": ["1EUjxAGDKDXnsqtYUjHtAjoMtqyankAJRo"], "asm": "OP_DUP OP_HASH160 93d8b84977bb312f1d975606c165245a299a242f OP_EQUALVERIFY OP_CHECKSIG", "type": "pubkeyhash"}, "value": 0.00195045, "n": 17}, {"scriptPubKey": {"reqSigs": 1, "hex": "76a914e5f8fcf3e21212cdb4c1c49d96186bbcac794c3488ac", "addresses": ["1Mxz1vg1oKepUVRs3JfwZNyqN1qH3s1V91"], "asm": "OP_DUP OP_HASH160 e5f8fcf3e21212cdb4c1c49d96186bbcac794c34 OP_EQUALVERIFY OP_CHECKSIG", "type": "pubkeyhash"}, "value": 0.00195013, "n": 18}, {"scriptPubKey": {"reqSigs": 1, "hex": "76a91445775284bd8b82e166babf655db8b80101c692da88ac", "addresses": ["17LJZu4pBRq8E8LvaEsozo8jgnfJUdNXSa"], "asm": "OP_DUP OP_HASH160 45775284bd8b82e166babf655db8b80101c692da OP_EQUALVERIFY OP_CHECKSIG", "type": "pubkeyhash"}, "value": 0.00201345, "n": 19}, {"scriptPubKey": {"reqSigs": 1, "hex": "a9140e0be97368b6756a5bfb7b9902fc71b757ef726d87", "addresses": ["32yHetDhBFpQvbvUk2pqpoCqMtkWzsJjN5"], "asm": "OP_HASH160 0e0be97368b6756a5bfb7b9902fc71b757ef726d OP_EQUAL", "type": "scripthash"}, "value": 0.00192063, "n": 20}, {"scriptPubKey": {"reqSigs": 1, "hex": "76a9143ebc2d0be072e09f8f44f652c8eed082c9e7407e88ac", "addresses": ["16iiKb8xmVJhNBuQN5oFw2xBbzShZE27cN"], "asm": "OP_DUP OP_HASH160 3ebc2d0be072e09f8f44f652c8eed082c9e7407e OP_EQUALVERIFY OP_CHECKSIG", "type": "pubkeyhash"}, "value": 0.00199682, "n": 21}, {"scriptPubKey": {"reqSigs": 1, "hex": "76a91487ee0397775af27cd58c5f14586ff3ac3fc5802a88ac", "addresses": ["1DPjMQJkeBVrHNfRxcidrWiBwhiTsXTj1K"], "asm": "OP_DUP OP_HASH160 87ee0397775af27cd58c5f14586ff3ac3fc5802a OP_EQUALVERIFY OP_CHECKSIG", "type": "pubkeyhash"}, "value": 0.001919, "n": 22}, {"scriptPubKey": {"reqSigs": 1, "hex": "76a914cff0a99f98b9aa7725c47f9658ae78838f69beac88ac", "addresses": ["1KxVBErfjVe7U6ayWKTDkbpoJH927CpcjV"], "asm": "OP_DUP OP_HASH160 cff0a99f98b9aa7725c47f9658ae78838f69beac OP_EQUALVERIFY OP_CHECKSIG", "type": "pubkeyhash"}, "value": 0.00196493, "n": 23}, {"scriptPubKey": {"reqSigs": 1, "hex": "76a914710fbb5158b89dbb5142154ce339352128c2bb4688ac", "addresses": ["1BJpCjeFTP53kf8b8Gqa5tYbTf8ca6Vgcu"], "asm": "OP_DUP OP_HASH160 710fbb5158b89dbb5142154ce339352128c2bb46 OP_EQUALVERIFY OP_CHECKSIG", "type": "pubkeyhash"}, "value": 0.00191971, "n": 24}, {"scriptPubKey": {"reqSigs": 1, "hex": "76a9149b23925fd084a4df030830ca6041e2e4c87de17688ac", "addresses": ["1F9JMJdSujmuZtzsz6Z8BAx6tgYrnkkgtV"], "asm": "OP_DUP OP_HASH160 9b23925fd084a4df030830ca6041e2e4c87de176 OP_EQUALVERIFY OP_CHECKSIG", "type": "pubkeyhash"}, "value": 0.00196295, "n": 25}, {"scriptPubKey": {"reqSigs": 1, "hex": "a914f2e12eb944f252bd7f502f1dc889f208c98be2de87", "addresses": ["3PqFCvSF8es1RFbQHQs5wmwhfD7oc47Sci"], "asm": "OP_HASH160 f2e12eb944f252bd7f502f1dc889f208c98be2de OP_EQUAL", "type": "scripthash"}, "value": 0.00191187, "n": 26}, {"scriptPubKey": {"reqSigs": 1, "hex": "76a9143af424f774a89a098cbd5dc07f6a42c5a3cab80688ac", "addresses": ["16NifaSSD6NNC3UQ87hGmNQuvon51N8N41"], "asm": "OP_DUP OP_HASH160 3af424f774a89a098cbd5dc07f6a42c5a3cab806 OP_EQUALVERIFY OP_CHECKSIG", "type": "pubkeyhash"}, "value": 0.00207354, "n": 27}, {"scriptPubKey": {"reqSigs": 1, "hex": "76a914b1f6a834b962f6bf27684ab61c7d2b8f47a86dad88ac", "addresses": ["1HDz5zDrrTeUJtEX6XqH8gkBm2Eesq9wSA"], "asm": "OP_DUP OP_HASH160 b1f6a834b962f6bf27684ab61c7d2b8f47a86dad OP_EQUALVERIFY OP_CHECKSIG", "type": "pubkeyhash"}, "value": 0.00193296, "n": 28}, {"scriptPubKey": {"reqSigs": 1, "hex": "76a914ab637904f5da613e986228b14827233f346678e988ac", "addresses": ["1GdDiHoACFhhEvuZmbQkG6TPyDNsR4tZ7V"], "asm": "OP_DUP OP_HASH160 ab637904f5da613e986228b14827233f346678e9 OP_EQUALVERIFY OP_CHECKSIG", "type": "pubkeyhash"}, "value": 0.00197301, "n": 29}, {"scriptPubKey": {"reqSigs": 1, "hex": "76a914e460acd17ad2c4377e71c05c32a32ce119b80b7288ac", "addresses": ["1MpYsqfarWEa2oibYRftaomC3Yf32t4Ha3"], "asm": "OP_DUP OP_HASH160 e460acd17ad2c4377e71c05c32a32ce119b80b72 OP_EQUALVERIFY OP_CHECKSIG", "type": "pubkeyhash"}, "value": 0.00199304, "n": 30}, {"scriptPubKey": {"reqSigs": 1, "hex": "76a91438fc0c22585be8da104df82c9e6b0fb9475f2ed488ac", "addresses": ["16CJnJZeA6Rm43aess5tGgLaSePQTK7wm8"], "asm": "OP_DUP OP_HASH160 38fc0c22585be8da104df82c9e6b0fb9475f2ed4 OP_EQUALVERIFY OP_CHECKSIG", "type": "pubkeyhash"}, "value": 0.00192037, "n": 31}, {"scriptPubKey": {"reqSigs": 1, "hex": "76a91478fbd1bf20fabed9b8142935587c5b3d3054310e88ac", "addresses": ["1C2hkjWZbXrLciBFbHsCdGXirmfG3vJsmU"], "asm": "OP_DUP OP_HASH160 78fbd1bf20fabed9b8142935587c5b3d3054310e OP_EQUALVERIFY OP_CHECKSIG", "type": "pubkeyhash"}, "value": 0.00203771, "n": 32}, {"scriptPubKey": {"reqSigs": 1, "hex": "76a9142640def49a2f92cc677eed541fecbdbc21cfc6c688ac", "addresses": ["14VGPbogh7sPwAkKEtfY6T1CEpAzQtWh6Z"], "asm": "OP_DUP OP_HASH160 2640def49a2f92cc677eed541fecbdbc21cfc6c6 OP_EQUALVERIFY OP_CHECKSIG", "type": "pubkeyhash"}, "value": 0.0019158, "n": 33}, {"scriptPubKey": {"reqSigs": 1, "hex": "76a914cf962a3dfc8d46b59d833e173737067728653e4488ac", "addresses": ["1KvcmMga52bcc5J264m7rU8vwMR5NNTxcr"], "asm": "OP_DUP OP_HASH160 cf962a3dfc8d46b59d833e173737067728653e44 OP_EQUALVERIFY OP_CHECKSIG", "type": "pubkeyhash"}, "value": 0.00198733, "n": 34}, {"scriptPubKey": {"reqSigs": 1, "hex": "76a914753a87ce343c42c9cf0cc7012c517e31e680102088ac", "addresses": ["1BgrBDQbjLzVyZrTZKs1ja3ogCSdVpMNEx"], "asm": "OP_DUP OP_HASH160 753a87ce343c42c9cf0cc7012c517e31e6801020 OP_EQUALVERIFY OP_CHECKSIG", "type": "pubkeyhash"}, "value": 0.00201114, "n": 35}, {"scriptPubKey": {"reqSigs": 1, "hex": "a914615233e214067f41d7c405af56e99e8f555817b187", "addresses": ["3AZbwh8xV5in5nrVHyyMTdYaWXm4yvxnmg"], "asm": "OP_HASH160 615233e214067f41d7c405af56e99e8f555817b1 OP_EQUAL", "type": "scripthash"}, "value": 0.00193242, "n": 36}, {"scriptPubKey": {"reqSigs": 1, "hex": "76a9143ce279d4b66ef7984c9ac93bf24ec10e93b282c488ac", "addresses": ["16YvrLDhqzkymnDyXb5U3NPi3V4zUXg3sx"], "asm": "OP_DUP OP_HASH160 3ce279d4b66ef7984c9ac93bf24ec10e93b282c4 OP_EQUALVERIFY OP_CHECKSIG", "type": "pubkeyhash"}, "value": 0.00191985, "n": 37}, {"scriptPubKey": {"reqSigs": 1, "hex": "76a9142ddfb1c03147dca41c503e3784f2a671f880cd9688ac", "addresses": ["15BZPBso5RXctY8g66mZgBwkwtXi1r2Dfp"], "asm": "OP_DUP OP_HASH160 2ddfb1c03147dca41c503e3784f2a671f880cd96 OP_EQUALVERIFY OP_CHECKSIG", "type": "pubkeyhash"}, "value": 0.00192481, "n": 38}, {"scriptPubKey": {"reqSigs": 1, "hex": "76a9145e525d047ed92ff9f04db607c0f5669334e7092b88ac", "addresses": ["19bjBjoQVL5dk9Vqsrz3ZYSvU8vTGywDuk"], "asm": "OP_DUP OP_HASH160 5e525d047ed92ff9f04db607c0f5669334e7092b OP_EQUALVERIFY OP_CHECKSIG", "type": "pubkeyhash"}, "value": 0.00192271, "n": 39}, {"scriptPubKey": {"reqSigs": 1, "hex": "a9142b83185c694555b2e1e18b50c0484c4659d6612487", "addresses": ["35f62ShRzACxQqneJZwEuX9aX9CXzPw9PA"], "asm": "OP_HASH160 2b83185c694555b2e1e18b50c0484c4659d66124 OP_EQUAL", "type": "scripthash"}, "value": 0.00192912, "n": 40}, {"scriptPubKey": {"reqSigs": 1, "hex": "76a9146100acbcad46f09279990d3518b40853a21eb41988ac", "addresses": ["19quMVSJMLsrCB5v18w88hkM1VD8KZu76b"], "asm": "OP_DUP OP_HASH160 6100acbcad46f09279990d3518b40853a21eb419 OP_EQUALVERIFY OP_CHECKSIG", "type": "pubkeyhash"}, "value": 0.00191576, "n": 41}, {"scriptPubKey": {"reqSigs": 1, "hex": "76a91427c2b6a656ff26884d7b6818891a23f0790a25f088ac", "addresses": ["14dEcQq7CKaqpVTrmJNWjWryTLxwfELy13"], "asm": "OP_DUP OP_HASH160 27c2b6a656ff26884d7b6818891a23f0790a25f0 OP_EQUALVERIFY OP_CHECKSIG", "type": "pubkeyhash"}, "value": 123.27173862, "n": 42}, {"scriptPubKey": {"reqSigs": 1, "hex": "76a91480ee0a3df9881333abf38268d36428ad91de1bcd88ac", "addresses": ["1Ckies7YYGw5pECYh8Zs5VZM1SRzaFNCBs"], "asm": "OP_DUP OP_HASH160 80ee0a3df9881333abf38268d36428ad91de1bcd OP_EQUALVERIFY OP_CHECKSIG", "type": "pubkeyhash"}, "value": 0.00192005, "n": 43}, {"scriptPubKey": {"reqSigs": 1, "hex": "76a914344f58b732a5e4fb9ee43116a8739be5aff92d2a88ac", "addresses": ["15mbC53pvdZeWhwJUMvDwJ9X4f7bDnTofh"], "asm": "OP_DUP OP_HASH160 344f58b732a5e4fb9ee43116a8739be5aff92d2a OP_EQUALVERIFY OP_CHECKSIG", "type": "pubkeyhash"}, "value": 0.00203096, "n": 44}, {"scriptPubKey": {"reqSigs": 1, "hex": "76a914e7f7a48a5d1fb32b0edebb2ec729e6387453a4f388ac", "addresses": ["1N9XkqF9otW5zjcvAMwzVEfvLyqZwwRUMT"], "asm": "OP_DUP OP_HASH160 e7f7a48a5d1fb32b0edebb2ec729e6387453a4f3 OP_EQUALVERIFY OP_CHECKSIG", "type": "pubkeyhash"}, "value": 0.00194412, "n": 45}, {"scriptPubKey": {"reqSigs": 1, "hex": "76a91480d56f6e017a65af77e8b88911eba327d3962b4f88ac", "addresses": ["1CkDBJE6Ya4WA6QNVbnWfxA6FawkZtVMkT"], "asm": "OP_DUP OP_HASH160 80d56f6e017a65af77e8b88911eba327d3962b4f OP_EQUALVERIFY OP_CHECKSIG", "type": "pubkeyhash"}, "value": 0.00198306, "n": 46}, {"scriptPubKey": {"reqSigs": 1, "hex": "76a914c7bbd70c0622ef6ebd937527dc6dfbf5396561a388ac", "addresses": ["1KD6VXdhVNFEhEwL8FsvJHQXnRZd5rQbpE"], "asm": "OP_DUP OP_HASH160 c7bbd70c0622ef6ebd937527dc6dfbf5396561a3 OP_EQUALVERIFY OP_CHECKSIG", "type": "pubkeyhash"}, "value": 0.00194021, "n": 47}, {"scriptPubKey": {"reqSigs": 1, "hex": "76a914a668509e56d3a16d1582a721872856a3d4380d8488ac", "addresses": ["1GAt8mjbUAagWh145GUH4VFBnFnUSQq7aX"], "asm": "OP_DUP OP_HASH160 a668509e56d3a16d1582a721872856a3d4380d84 OP_EQUALVERIFY OP_CHECKSIG", "type": "pubkeyhash"}, "value": 0.0019537, "n": 48}, {"scriptPubKey": {"reqSigs": 1, "hex": "76a9142fb17f00af9795917062b29a61d2e2b8cef8250388ac", "addresses": ["15MBPfNUc1ENEacNLvp4BaVRdgvbzbujr1"], "asm": "OP_DUP OP_HASH160 2fb17f00af9795917062b29a61d2e2b8cef82503 OP_EQUALVERIFY OP_CHECKSIG", "type": "pubkeyhash"}, "value": 0.00193298, "n": 49}, {"scriptPubKey": {"reqSigs": 1, "hex": "a914678b47a833fd3b9dd92394e04dd9ad711a5d5e2a87", "addresses": ["3B8WNe5b75E3tvpuyycCpPjxBTHVsm321T"], "asm": "OP_HASH160 678b47a833fd3b9dd92394e04dd9ad711a5d5e2a OP_EQUAL", "type": "scripthash"}, "value": 0.00203093, "n": 50}, {"scriptPubKey": {"reqSigs": 1, "hex": "76a9146dd6aab64491532ee1f659ec7f8f53c632183ce188ac", "addresses": ["1B1mpDxB92uMiaCQvMkdPUCsiFnEkEN8Uo"], "asm": "OP_DUP OP_HASH160 6dd6aab64491532ee1f659ec7f8f53c632183ce1 OP_EQUALVERIFY OP_CHECKSIG", "type": "pubkeyhash"}, "value": 0.00206473, "n": 51}, {"scriptPubKey": {"reqSigs": 1, "hex": "76a914f5bb9fb52053152c21c2443e4571ef313a8ace1d88ac", "addresses": ["1PQKKLHvG3RCBgBXXSC2XphG27zFZfqqK8"], "asm": "OP_DUP OP_HASH160 f5bb9fb52053152c21c2443e4571ef313a8ace1d OP_EQUALVERIFY OP_CHECKSIG", "type": "pubkeyhash"}, "value": 0.00192363, "n": 52}, {"scriptPubKey": {"reqSigs": 1, "hex": "76a91433f4401a38c6b32fb944fe600cb926afca353ad688ac", "addresses": ["15ji4bivdCQzZd6ZdNXMCiGz5jm2wuATvi"], "asm": "OP_DUP OP_HASH160 33f4401a38c6b32fb944fe600cb926afca353ad6 OP_EQUALVERIFY OP_CHECKSIG", "type": "pubkeyhash"}, "value": 0.00194797, "n": 53}, {"scriptPubKey": {"reqSigs": 1, "hex": "76a9146aa29fda928bdb9f94b90525d02a9e539295ce2988ac", "addresses": ["1AiqSgHtkyEZ9dv8Ahft4qxbVhtp9JqnC4"], "asm": "OP_DUP OP_HASH160 6aa29fda928bdb9f94b90525d02a9e539295ce29 OP_EQUALVERIFY OP_CHECKSIG", "type": "pubkeyhash"}, "value": 0.00196423, "n": 54}, {"scriptPubKey": {"reqSigs": 1, "hex": "76a91482c5a2c8fdce16f9d99163f2426a686e35ec391d88ac", "addresses": ["1CvTbvLWTA5nwvTKy7Sw3LENYr7LcEGkM2"], "asm": "OP_DUP OP_HASH160 82c5a2c8fdce16f9d99163f2426a686e35ec391d OP_EQUALVERIFY OP_CHECKSIG", "type": "pubkeyhash"}, "value": 0.00202882, "n": 55}, {"scriptPubKey": {"reqSigs": 1, "hex": "76a914b3d0392f14a7b892e57bbf2b0285ed30527a6f6588ac", "addresses": ["1HPmPxBLk6SMReWT4AnRZu6u1tCkhqwXhD"], "asm": "OP_DUP OP_HASH160 b3d0392f14a7b892e57bbf2b0285ed30527a6f65 OP_EQUALVERIFY OP_CHECKSIG", "type": "pubkeyhash"}, "value": 0.00191178, "n": 56}, {"scriptPubKey": {"reqSigs": 1, "hex": "76a91419eff9d0a22dfa8b64a83fdedccbcdfa809d1de088ac", "addresses": ["13N9NcM5gEqaSdSqTwvK5yUjAaLty3fyBA"], "asm": "OP_DUP OP_HASH160 19eff9d0a22dfa8b64a83fdedccbcdfa809d1de0 OP_EQUALVERIFY OP_CHECKSIG", "type": "pubkeyhash"}, "value": 0.00194332, "n": 57}, {"scriptPubKey": {"reqSigs": 1, "hex": "76a914257e1ef2dae4bfbd713bb0c1d134d9ecf40f28c788ac", "addresses": ["14RF68biY4SPBS7NTcxZoTReY4ECDKaqUY"], "asm": "OP_DUP OP_HASH160 257e1ef2dae4bfbd713bb0c1d134d9ecf40f28c7 OP_EQUALVERIFY OP_CHECKSIG", "type": "pubkeyhash"}, "value": 0.00194095, "n": 58}, {"scriptPubKey": {"reqSigs": 1, "hex": "a914776f569935dd0f18a20b24fd97866584b5f5aa4587", "addresses": ["3CaXiHohjgcQNQt7FBnC2j47Dni7aqF4GC"], "asm": "OP_HASH160 776f569935dd0f18a20b24fd97866584b5f5aa45 OP_EQUAL", "type": "scripthash"}, "value": 0.00200541, "n": 59}, {"scriptPubKey": {"reqSigs": 1, "hex": "a9143b5586632b325cf60d9e5dc710440aa4f7e4bac287", "addresses": ["376kFEqvvnBauhdVkfHJkstZ2n7vxxh8bP"], "asm": "OP_HASH160 3b5586632b325cf60d9e5dc710440aa4f7e4bac2 OP_EQUAL", "type": "scripthash"}, "value": 0.00198458, "n": 60}, {"scriptPubKey": {"reqSigs": 1, "hex": "a9147a2eab49cb0ca7e8833fbd0fcce78d60fc45e56c87", "addresses": ["3Cq4GaAXh8CGFuiDE4c8wXJTsbgvX4iNxB"], "asm": "OP_HASH160 7a2eab49cb0ca7e8833fbd0fcce78d60fc45e56c OP_EQUAL", "type": "scripthash"}, "value": 0.00206458, "n": 61}, {"scriptPubKey": {"reqSigs": 1, "hex": "76a914f780aafaf0d0fc29d5386d0700cdeb24db6ed51188ac", "addresses": ["1PZg3PGbjx45pa78txRKPQzbXrEavNRPpn"], "asm": "OP_DUP OP_HASH160 f780aafaf0d0fc29d5386d0700cdeb24db6ed511 OP_EQUALVERIFY OP_CHECKSIG", "type": "pubkeyhash"}, "value": 0.00191987, "n": 62}, {"scriptPubKey": {"reqSigs": 1, "hex": "a9144ef0e363a7e47c7ed90fb0392c3513273af33bd187", "addresses": ["38tRCiQuu91n8C8Cnr7LhpBg2Vw238ESzV"], "asm": "OP_HASH160 4ef0e363a7e47c7ed90fb0392c3513273af33bd1 OP_EQUAL", "type": "scripthash"}, "value": 0.00203628, "n": 63}, {"scriptPubKey": {"reqSigs": 1, "hex": "76a91468b01598fa9ca0a54d32bda1a2d3865fc49fdc1688ac", "addresses": ["1AYYDWP6BcWTjGSWKHswh2nghMTiXWGmB2"], "asm": "OP_DUP OP_HASH160 68b01598fa9ca0a54d32bda1a2d3865fc49fdc16 OP_EQUALVERIFY OP_CHECKSIG", "type": "pubkeyhash"}, "value": 0.00200365, "n": 64}, {"scriptPubKey": {"reqSigs": 1, "hex": "a914a1d9d789b2c6d57ff012e6402ee23538ef1513cd87", "addresses": ["3GSogMNpc1yu9z9cyUgVtRwovpZT8HENLq"], "asm": "OP_HASH160 a1d9d789b2c6d57ff012e6402ee23538ef1513cd OP_EQUAL", "type": "scripthash"}, "value": 0.00193253, "n": 65}, {"scriptPubKey": {"reqSigs": 1, "hex": "76a91499fcde29ea45ac11e9274702e8f2fcb79c2302ba88ac", "addresses": ["1F3DJv42sJAoQHm3MmPPJnpDjqzUGyNLk4"], "asm": "OP_DUP OP_HASH160 99fcde29ea45ac11e9274702e8f2fcb79c2302ba OP_EQUALVERIFY OP_CHECKSIG", "type": "pubkeyhash"}, "value": 0.00192727, "n": 66}, {"scriptPubKey": {"reqSigs": 1, "hex": "76a914718265ba68c06b01f8eda4d5ece738ced16bf4d988ac", "addresses": ["1BMBZr2hKcgutWD95MpG3K27yb2LSaRGHy"], "asm": "OP_DUP OP_HASH160 718265ba68c06b01f8eda4d5ece738ced16bf4d9 OP_EQUALVERIFY OP_CHECKSIG", "type": "pubkeyhash"}, "value": 0.00203658, "n": 67}, {"scriptPubKey": {"reqSigs": 1, "hex": "76a9143009d467837dccb99deca004793d872baa597ad588ac", "addresses": ["15P1DBtRs1DzeC6YjehMi6pG467KFniHrv"], "asm": "OP_DUP OP_HASH160 3009d467837dccb99deca004793d872baa597ad5 OP_EQUALVERIFY OP_CHECKSIG", "type": "pubkeyhash"}, "value": 0.00192104, "n": 68}, {"scriptPubKey": {"reqSigs": 1, "hex": "76a914076ff475f9d78cf7be0aa9e8f48ea8897f54229f88ac", "addresses": ["1gKr7EF33PGAvBNtvyTpPMeCX5ERRebT7"], "asm": "OP_DUP OP_HASH160 076ff475f9d78cf7be0aa9e8f48ea8897f54229f OP_EQUALVERIFY OP_CHECKSIG", "type": "pubkeyhash"}, "value": 0.0020345, "n": 69}, {"scriptPubKey": {"reqSigs": 1, "hex": "76a91493b92ca2f4d80b501392fd7553179eacb91df72d88ac", "addresses": ["1EU6ALgJMtE1fSoSz1pVW2aMAitceTfWRU"], "asm": "OP_DUP OP_HASH160 93b92ca2f4d80b501392fd7553179eacb91df72d OP_EQUALVERIFY OP_CHECKSIG", "type": "pubkeyhash"}, "value": 0.0019768, "n": 70}, {"scriptPubKey": {"reqSigs": 1, "hex": "76a914a55b0fba9c0d79eaf6386e58e161ee1db71ec3b488ac", "addresses": ["1G5KaiHk6XmDHDCrxw5RGvxonfFzZsjCVG"], "asm": "OP_DUP OP_HASH160 a55b0fba9c0d79eaf6386e58e161ee1db71ec3b4 OP_EQUALVERIFY OP_CHECKSIG", "type": "pubkeyhash"}, "value": 0.00191717, "n": 71}, {"scriptPubKey": {"reqSigs": 1, "hex": "76a91461f218995db3057770c90ab4d75c11b6d6a5fd2488ac", "addresses": ["19vtZjrHvAS3bNLMKrEN56uoXyC6xPeij5"], "asm": "OP_DUP OP_HASH160 61f218995db3057770c90ab4d75c11b6d6a5fd24 OP_EQUALVERIFY OP_CHECKSIG", "type": "pubkeyhash"}, "value": 0.00191999, "n": 72}, {"scriptPubKey": {"reqSigs": 1, "hex": "76a9140e73a42e0b45e15e272b9f146910a7ef8b9f42cf88ac", "addresses": ["12KQzaz4R5dCJXfm5XeGSKkbYSHdbax2EE"], "asm": "OP_DUP OP_HASH160 0e73a42e0b45e15e272b9f146910a7ef8b9f42cf OP_EQUALVERIFY OP_CHECKSIG", "type": "pubkeyhash"}, "value": 0.00196535, "n": 73}, {"scriptPubKey": {"reqSigs": 1, "hex": "a914ec584c389f1f9b39338fe876b9942d1feac1861287", "addresses": ["3PEhArGJBnwfJLH7jWwGNfnm62UrPD4hkn"], "asm": "OP_HASH160 ec584c389f1f9b39338fe876b9942d1feac18612 OP_EQUAL", "type": "scripthash"}, "value": 0.0019371, "n": 74}, {"scriptPubKey": {"reqSigs": 1, "hex": "76a914e3075bd69a3a5939a36abcb5c14a2794364b172b88ac", "addresses": ["1MhRCqicJ5juYuorkwWyvYBKDbFFsWQNG9"], "asm": "OP_DUP OP_HASH160 e3075bd69a3a5939a36abcb5c14a2794364b172b OP_EQUALVERIFY OP_CHECKSIG", "type": "pubkeyhash"}, "value": 0.00191435, "n": 75}, {"scriptPubKey": {"reqSigs": 1, "hex": "76a914c9cfd35217bee1a93c10c6f5b1ae58bb6d1af2a488ac", "addresses": ["1KQ5nXSUskDsGCqz2AiGa618WwCvijL2zJ"], "asm": "OP_DUP OP_HASH160 c9cfd35217bee1a93c10c6f5b1ae58bb6d1af2a4 OP_EQUALVERIFY OP_CHECKSIG", "type": "pubkeyhash"}, "value": 0.00196066, "n": 76}, {"scriptPubKey": {"reqSigs": 1, "hex": "76a914e2f0c4a446b2fdc45eef9b6334924e2a4f650ba488ac", "addresses": ["1Mgx9Da7NBXJozuWhYUP719oEMZWwQoUV8"], "asm": "OP_DUP OP_HASH160 e2f0c4a446b2fdc45eef9b6334924e2a4f650ba4 OP_EQUALVERIFY OP_CHECKSIG", "type": "pubkeyhash"}, "value": 0.00192806, "n": 77}, {"scriptPubKey": {"reqSigs": 1, "hex": "76a9143e430b354b862205ea93cd7c99f803494ad7d6f688ac", "addresses": ["16gDDBGqgv4jezwP37WSRB51w6GpJdAvco"], "asm": "OP_DUP OP_HASH160 3e430b354b862205ea93cd7c99f803494ad7d6f6 OP_EQUALVERIFY OP_CHECKSIG", "type": "pubkeyhash"}, "value": 0.00193617, "n": 78}, {"scriptPubKey": {"reqSigs": 1, "hex": "a914c6d5461a61b221cb913c9853f36b30adaa17c35c87", "addresses": ["3KpMD3zRersqJKaNY7vijDYW73pQq6pU1N"], "asm": "OP_HASH160 c6d5461a61b221cb913c9853f36b30adaa17c35c OP_EQUAL", "type": "scripthash"}, "value": 0.00239929, "n": 79}, {"scriptPubKey": {"reqSigs": 1, "hex": "76a914d2c15462f9de10f3cf7573e803d3e8fc8a38510388ac", "addresses": ["1LDNW4eiy51TbMGudwTMzQXXNvaDyAEDDa"], "asm": "OP_DUP OP_HASH160 d2c15462f9de10f3cf7573e803d3e8fc8a385103 OP_EQUALVERIFY OP_CHECKSIG", "type": "pubkeyhash"}, "value": 0.00200385, "n": 80}, {"scriptPubKey": {"reqSigs": 1, "hex": "76a914eb1877a447b5c72657d443133d21c0312de144f988ac", "addresses": ["1NS576tKXDDZiBzEtguMMn7ZhggvaepCPQ"], "asm": "OP_DUP OP_HASH160 eb1877a447b5c72657d443133d21c0312de144f9 OP_EQUALVERIFY OP_CHECKSIG", "type": "pubkeyhash"}, "value": 0.00199351, "n": 81}, {"scriptPubKey": {"reqSigs": 1, "hex": "76a9140ae7c86f333fa639fb5657ed7105409f91ea7c4488ac", "addresses": ["1zfRUpyXXCAM58T74rcEekDiMAYRk2GAX"], "asm": "OP_DUP OP_HASH160 0ae7c86f333fa639fb5657ed7105409f91ea7c44 OP_EQUALVERIFY OP_CHECKSIG", "type": "pubkeyhash"}, "value": 0.00202448, "n": 82}, {"scriptPubKey": {"reqSigs": 1, "hex": "a914e8a2ca0d7932928e222c5754ae04f9417e851a3687", "addresses": ["3Nu5hqxzxaedizEaJim8jM4i8iH1p21TJb"], "asm": "OP_HASH160 e8a2ca0d7932928e222c5754ae04f9417e851a36 OP_EQUAL", "type": "scripthash"}, "value": 0.00193942, "n": 83}, {"scriptPubKey": {"reqSigs": 1, "hex": "76a91457f51f534c64a7724a80bb6a60d76ca03075470388ac", "addresses": ["1925S6CrpHwT9aTXACBeWDZJUNoAAZN8sB"], "asm": "OP_DUP OP_HASH160 57f51f534c64a7724a80bb6a60d76ca030754703 OP_EQUALVERIFY OP_CHECKSIG", "type": "pubkeyhash"}, "value": 0.00192592, "n": 84}, {"scriptPubKey": {"reqSigs": 1, "hex": "76a91417d0601d9662777c09d6e62fcb0e1dd77a695b0f88ac", "addresses": ["13AvAbMTM6Q6YQSqLKPLsEAsU3855oM8xt"], "asm": "OP_DUP OP_HASH160 17d0601d9662777c09d6e62fcb0e1dd77a695b0f OP_EQUALVERIFY OP_CHECKSIG", "type": "pubkeyhash"}, "value": 0.00207223, "n": 85}, {"scriptPubKey": {"reqSigs": 1, "hex": "76a9149152737caf08c06d8ed6f8659a8a38a698f792b188ac", "addresses": ["1EFPkcwqaRVJUq8RpRPEULM7rrTezDtgUj"], "asm": "OP_DUP OP_HASH160 9152737caf08c06d8ed6f8659a8a38a698f792b1 OP_EQUALVERIFY OP_CHECKSIG", "type": "pubkeyhash"}, "value": 0.00191714, "n": 86}, {"scriptPubKey": {"reqSigs": 1, "hex": "a9140058111efa03193485edc92ffb9fddbef2e8f46c87", "addresses": ["31iqRY9KpnmhpxA3NhuLLyQN9jnAkLyt8K"], "asm": "OP_HASH160 0058111efa03193485edc92ffb9fddbef2e8f46c OP_EQUAL", "type": "scripthash"}, "value": 0.00192423, "n": 87}, {"scriptPubKey": {"reqSigs": 1, "hex": "a914e3df743413a68757c14728c375e97f74370aa63387", "addresses": ["3NTtzwTgGEYRH5zuWHficTL4KAn7zBekNQ"], "asm": "OP_HASH160 e3df743413a68757c14728c375e97f74370aa633 OP_EQUAL", "type": "scripthash"}, "value": 0.00193091, "n": 88}, {"scriptPubKey": {"reqSigs": 1, "hex": "a914ff5e3074e80c04771a38edb07c25bc0f0149005987", "addresses": ["3QyH4r4Vn8tBS6xBmrFnAB4zSK3FSQo8p3"], "asm": "OP_HASH160 ff5e3074e80c04771a38edb07c25bc0f01490059 OP_EQUAL", "type": "scripthash"}, "value": 0.00201664, "n": 89}, {"scriptPubKey": {"reqSigs": 1, "hex": "76a9144987786fd14ec704ce5826fe5caaf6924dd4bf6c88ac", "addresses": ["17hncf3ZH9Xb7p4bqQJp43DkRJz2h1Hjcz"], "asm": "OP_DUP OP_HASH160 4987786fd14ec704ce5826fe5caaf6924dd4bf6c OP_EQUALVERIFY OP_CHECKSIG", "type": "pubkeyhash"}, "value": 0.00192894, "n": 90}, {"scriptPubKey": {"reqSigs": 1, "hex": "a9142f732adda0095dec2eb0658d538ad05e60d3e0bc87", "addresses": ["361ueXvwZdtNVNtp9bCLVVY63qcwwzyEoH"], "asm": "OP_HASH160 2f732adda0095dec2eb0658d538ad05e60d3e0bc OP_EQUAL", "type": "scripthash"}, "value": 0.00193299, "n": 91}, {"scriptPubKey": {"reqSigs": 1, "hex": "76a9148c6ad1bfb6e03b0bd041045a780a43cf4622a44f88ac", "addresses": ["1DoTZo2SeUL4P9iA9JwRuj9YCGtumpCH6a"], "asm": "OP_DUP OP_HASH160 8c6ad1bfb6e03b0bd041045a780a43cf4622a44f OP_EQUALVERIFY OP_CHECKSIG", "type": "pubkeyhash"}, "value": 0.00196644, "n": 92}, {"scriptPubKey": {"reqSigs": 1, "hex": "76a9140834ff10be9e30f9e4d01998ecdc5a974b8d64ab88ac", "addresses": ["1kPtnZZz4DGzaszKrC4mF9JGv5kbs3zvM"], "asm": "OP_DUP OP_HASH160 0834ff10be9e30f9e4d01998ecdc5a974b8d64ab OP_EQUALVERIFY OP_CHECKSIG", "type": "pubkeyhash"}, "value": 0.00199273, "n": 93}, {"scriptPubKey": {"reqSigs": 1, "hex": "76a9140796e245e7805a5753124ab1fa8312d5de1b035e88ac", "addresses": ["1h8UwSCmKNTEqwathQuxfXd5f1zFkQECm"], "asm": "OP_DUP OP_HASH160 0796e245e7805a5753124ab1fa8312d5de1b035e OP_EQUALVERIFY OP_CHECKSIG", "type": "pubkeyhash"}, "value": 0.00200872, "n": 94}, {"scriptPubKey": {"reqSigs": 1, "hex": "76a914af5d827caa9b09214a315c3f1df9ccddbfd38fcb88ac", "addresses": ["1GzFGjshLBe1TATvWoom3eFC9nbEWKiPV7"], "asm": "OP_DUP OP_HASH160 af5d827caa9b09214a315c3f1df9ccddbfd38fcb OP_EQUALVERIFY OP_CHECKSIG", "type": "pubkeyhash"}, "value": 0.00195153, "n": 95}, {"scriptPubKey": {"reqSigs": 1, "hex": "76a914e0c17fd873d21a08bd0a43b174b3c462231efb2e88ac", "addresses": ["1MVQAYYJ6xhopXUypQewETPQ7CtMyJ1y43"], "asm": "OP_DUP OP_HASH160 e0c17fd873d21a08bd0a43b174b3c462231efb2e OP_EQUALVERIFY OP_CHECKSIG", "type": "pubkeyhash"}, "value": 0.00191797, "n": 96}, {"scriptPubKey": {"reqSigs": 1, "hex": "76a91430b7a7e69cd45e60aa7c6a574cf7e43580c6541a88ac", "addresses": ["15SbSqmoS69XJ7gAkZCR2ManqCU2AxxvM1"], "asm": "OP_DUP OP_HASH160 30b7a7e69cd45e60aa7c6a574cf7e43580c6541a OP_EQUALVERIFY OP_CHECKSIG", "type": "pubkeyhash"}, "value": 0.0020546, "n": 97}, {"scriptPubKey": {"reqSigs": 1, "hex": "76a914ce73eaab066ad231e9fdbe0ac5e7163e69d2e57388ac", "addresses": ["1Kpd4Ypdr94Dgntfk7pvaiH2U5QqEyiFd2"], "asm": "OP_DUP OP_HASH160 ce73eaab066ad231e9fdbe0ac5e7163e69d2e573 OP_EQUALVERIFY OP_CHECKSIG", "type": "pubkeyhash"}, "value": 0.00193458, "n": 98}, {"scriptPubKey": {"reqSigs": 1, "hex": "a914dec7f12d75438be8b44eae8fbb1c5d4d71fffcb987", "addresses": ["3MzyTMJBxw42xuYA6pWfNQVKHeXBYeEo7M"], "asm": "OP_HASH160 dec7f12d75438be8b44eae8fbb1c5d4d71fffcb9 OP_EQUAL", "type": "scripthash"}, "value": 0.0019192, "n": 99}, {"scriptPubKey": {"reqSigs": 1, "hex": "76a91486e1fe02933da6340ea154ec1c46fc3f0f54c1c488ac", "addresses": ["1DJCGvPUArDedndXr5Z1LtZTFRiCcxV12e"], "asm": "OP_DUP OP_HASH160 86e1fe02933da6340ea154ec1c46fc3f0f54c1c4 OP_EQUALVERIFY OP_CHECKSIG", "type": "pubkeyhash"}, "value": 0.0019534, "n": 100}], "hex": "0200000001be795fa392319d181564ba6e6803334ccd9bf1eed929f709ce5f3f01311fcc40140000006a4730440220161accc08d773545455468f0f989ecd5a5609d946566858e44d0dbca7d9635e102206ee322cdedfaf351a68f13fb6f0be719c2dff6f143103197a24681407a0988250121028536ec80858dc2399f40fafc6cb812aa5afd22d3177580d974c1b1c82801f4befeffffff65ddf202000000000017a914a58c1afe64b826839913d2f1a02cf4de22bfc967872cec0200000000001976a914d679eebafe85e24680a41a1335c71b97fd04905888acacfb0200000000001976a9145ae1cde8c5bfdf116457a6fa2762a08cda6a47ea88acbceb0200000000001976a914fb13a832d5d3ba73d04993ac15c2c1156698266e88ace5f30200000000001976a914b235c1c0a4aab3be2890747de6f024924d44f2b888acc4190300000000001976a91404cf57206fda7e399633370b419d80511ec429b588aca8fc0200000000001976a914c3ae91b3be26b44bfa80b813c368376c59ed009d88ac83000300000000001976a91472c54be21401a4bd218f233d5e1db5b75a72e85a88ac78f60200000000001976a91490a4dd9d19e7085b17f150f62e1668978fc3920588ac65f502000000000017a91416ef24f20d58f7d0ee1acbbf8e67376f6c26f0fe87cf0603000000000017a914fac53c5c5fb4de02597199669488e7d04601b9da87b1060300000000001976a914b80e03993b68fbf69554a783548e7c5a24c2c29488ac67f30200000000001976a91420c0695967cedde6c6078eac83c30cfbabcb162288ac8c0303000000000017a9141d398d725330217d510ac3a082899516417103398741f502000000000017a9140bb5b2fcf2584e29f4733ee82eec53132191ffe187a0280300000000001976a91412a263e6b6119a7135238451d5ca00d3951fa5ec88ac4b1c0300000000001976a91494f74c61b520e695507ee2d4fe3783768881fdca88ace5f90200000000001976a91493d8b84977bb312f1d975606c165245a299a242f88acc5f90200000000001976a914e5f8fcf3e21212cdb4c1c49d96186bbcac794c3488ac81120300000000001976a91445775284bd8b82e166babf655db8b80101c692da88ac3fee02000000000017a9140e0be97368b6756a5bfb7b9902fc71b757ef726d87020c0300000000001976a9143ebc2d0be072e09f8f44f652c8eed082c9e7407e88ac9ced0200000000001976a91487ee0397775af27cd58c5f14586ff3ac3fc5802a88ac8dff0200000000001976a914cff0a99f98b9aa7725c47f9658ae78838f69beac88ace3ed0200000000001976a914710fbb5158b89dbb5142154ce339352128c2bb4688acc7fe0200000000001976a9149b23925fd084a4df030830ca6041e2e4c87de17688acd3ea02000000000017a914f2e12eb944f252bd7f502f1dc889f208c98be2de87fa290300000000001976a9143af424f774a89a098cbd5dc07f6a42c5a3cab80688ac10f30200000000001976a914b1f6a834b962f6bf27684ab61c7d2b8f47a86dad88acb5020300000000001976a914ab637904f5da613e986228b14827233f346678e988ac880a0300000000001976a914e460acd17ad2c4377e71c05c32a32ce119b80b7288ac25ee0200000000001976a91438fc0c22585be8da104df82c9e6b0fb9475f2ed488acfb1b0300000000001976a91478fbd1bf20fabed9b8142935587c5b3d3054310e88ac5cec0200000000001976a9142640def49a2f92cc677eed541fecbdbc21cfc6c688ac4d080300000000001976a914cf962a3dfc8d46b59d833e173737067728653e4488ac9a110300000000001976a914753a87ce343c42c9cf0cc7012c517e31e680102088acdaf202000000000017a914615233e214067f41d7c405af56e99e8f555817b187f1ed0200000000001976a9143ce279d4b66ef7984c9ac93bf24ec10e93b282c488ace1ef0200000000001976a9142ddfb1c03147dca41c503e3784f2a671f880cd9688ac0fef0200000000001976a9145e525d047ed92ff9f04db607c0f5669334e7092b88ac90f102000000000017a9142b83185c694555b2e1e18b50c0484c4659d661248758ec0200000000001976a9146100acbcad46f09279990d3518b40853a21eb41988ace6bec1de020000001976a91427c2b6a656ff26884d7b6818891a23f0790a25f088ac05ee0200000000001976a91480ee0a3df9881333abf38268d36428ad91de1bcd88ac58190300000000001976a914344f58b732a5e4fb9ee43116a8739be5aff92d2a88ac6cf70200000000001976a914e7f7a48a5d1fb32b0edebb2ec729e6387453a4f388aca2060300000000001976a91480d56f6e017a65af77e8b88911eba327d3962b4f88ace5f50200000000001976a914c7bbd70c0622ef6ebd937527dc6dfbf5396561a388ac2afb0200000000001976a914a668509e56d3a16d1582a721872856a3d4380d8488ac12f30200000000001976a9142fb17f00af9795917062b29a61d2e2b8cef8250388ac551903000000000017a914678b47a833fd3b9dd92394e04dd9ad711a5d5e2a8789260300000000001976a9146dd6aab64491532ee1f659ec7f8f53c632183ce188ac6bef0200000000001976a914f5bb9fb52053152c21c2443e4571ef313a8ace1d88acedf80200000000001976a91433f4401a38c6b32fb944fe600cb926afca353ad688ac47ff0200000000001976a9146aa29fda928bdb9f94b90525d02a9e539295ce2988ac82180300000000001976a91482c5a2c8fdce16f9d99163f2426a686e35ec391d88accaea0200000000001976a914b3d0392f14a7b892e57bbf2b0285ed30527a6f6588ac1cf70200000000001976a91419eff9d0a22dfa8b64a83fdedccbcdfa809d1de088ac2ff60200000000001976a914257e1ef2dae4bfbd713bb0c1d134d9ecf40f28c788ac5d0f03000000000017a914776f569935dd0f18a20b24fd97866584b5f5aa45873a0703000000000017a9143b5586632b325cf60d9e5dc710440aa4f7e4bac2877a2603000000000017a9147a2eab49cb0ca7e8833fbd0fcce78d60fc45e56c87f3ed0200000000001976a914f780aafaf0d0fc29d5386d0700cdeb24db6ed51188ac6c1b03000000000017a9144ef0e363a7e47c7ed90fb0392c3513273af33bd187ad0e0300000000001976a91468b01598fa9ca0a54d32bda1a2d3865fc49fdc1688ace5f202000000000017a914a1d9d789b2c6d57ff012e6402ee23538ef1513cd87d7f00200000000001976a91499fcde29ea45ac11e9274702e8f2fcb79c2302ba88ac8a1b0300000000001976a914718265ba68c06b01f8eda4d5ece738ced16bf4d988ac68ee0200000000001976a9143009d467837dccb99deca004793d872baa597ad588acba1a0300000000001976a914076ff475f9d78cf7be0aa9e8f48ea8897f54229f88ac30040300000000001976a91493b92ca2f4d80b501392fd7553179eacb91df72d88ace5ec0200000000001976a914a55b0fba9c0d79eaf6386e58e161ee1db71ec3b488acffed0200000000001976a91461f218995db3057770c90ab4d75c11b6d6a5fd2488acb7ff0200000000001976a9140e73a42e0b45e15e272b9f146910a7ef8b9f42cf88acaef402000000000017a914ec584c389f1f9b39338fe876b9942d1feac1861287cbeb0200000000001976a914e3075bd69a3a5939a36abcb5c14a2794364b172b88ace2fd0200000000001976a914c9cfd35217bee1a93c10c6f5b1ae58bb6d1af2a488ac26f10200000000001976a914e2f0c4a446b2fdc45eef9b6334924e2a4f650ba488ac51f40200000000001976a9143e430b354b862205ea93cd7c99f803494ad7d6f688ac39a903000000000017a914c6d5461a61b221cb913c9853f36b30adaa17c35c87c10e0300000000001976a914d2c15462f9de10f3cf7573e803d3e8fc8a38510388acb70a0300000000001976a914eb1877a447b5c72657d443133d21c0312de144f988acd0160300000000001976a9140ae7c86f333fa639fb5657ed7105409f91ea7c4488ac96f502000000000017a914e8a2ca0d7932928e222c5754ae04f9417e851a368750f00200000000001976a91457f51f534c64a7724a80bb6a60d76ca03075470388ac77290300000000001976a91417d0601d9662777c09d6e62fcb0e1dd77a695b0f88ace2ec0200000000001976a9149152737caf08c06d8ed6f8659a8a38a698f792b188aca7ef02000000000017a9140058111efa03193485edc92ffb9fddbef2e8f46c8743f202000000000017a914e3df743413a68757c14728c375e97f74370aa63387c01303000000000017a914ff5e3074e80c04771a38edb07c25bc0f01490059877ef10200000000001976a9144987786fd14ec704ce5826fe5caaf6924dd4bf6c88ac13f302000000000017a9142f732adda0095dec2eb0658d538ad05e60d3e0bc8724000300000000001976a9148c6ad1bfb6e03b0bd041045a780a43cf4622a44f88ac690a0300000000001976a9140834ff10be9e30f9e4d01998ecdc5a974b8d64ab88aca8100300000000001976a9140796e245e7805a5753124ab1fa8312d5de1b035e88ac51fa0200000000001976a914af5d827caa9b09214a315c3f1df9ccddbfd38fcb88ac35ed0200000000001976a914e0c17fd873d21a08bd0a43b174b3c462231efb2e88ac94220300000000001976a91430b7a7e69cd45e60aa7c6a574cf7e43580c6541a88acb2f30200000000001976a914ce73eaab066ad231e9fdbe0ac5e7163e69d2e57388acb0ed02000000000017a914dec7f12d75438be8b44eae8fbb1c5d4d71fffcb9870cfb0200000000001976a91486e1fe02933da6340ea154ec1c46fc3f0f54c1c488ac01490800", "vin": [{"sequence": 4294967294, "scriptSig": {"hex": "4730440220161accc08d773545455468f0f989ecd5a5609d946566858e44d0dbca7d9635e102206ee322cdedfaf351a68f13fb6f0be719c2dff6f143103197a24681407a0988250121028536ec80858dc2399f40fafc6cb812aa5afd22d3177580d974c1b1c82801f4be", "asm": "30440220161accc08d773545455468f0f989ecd5a5609d946566858e44d0dbca7d9635e102206ee322cdedfaf351a68f13fb6f0be719c2dff6f143103197a24681407a098825[ALL] 028536ec80858dc2399f40fafc6cb812aa5afd22d3177580d974c1b1c82801f4be"}, "vout": 20, "txid": "40cc1f31013f5fce09f729d9eef19bcd4c3303686eba6415189d3192a35f79be"}], "txid": "d7e48e364b97b9db6069891611722e66ee614007783b8e1b412b355df6eadb6f", "blocktime": 1537872018, "version": 2, "confirmations": 11489, "time": 1537872018, "locktime": 542977, "vsize": 3545, "size": 3545}