{"hash": "8416f8ab5cf13940067146f326c5d35ebb7ac5e39e1abaa9ae20043cf5fe8063", "blockhash": "0000000000000000001cda96e906b7601b7a6fb1a3b62bca570a9e5d8f4b3de1", "vout": [{"scriptPubKey": {"reqSigs": 1, "hex": "76a914a36ab5ccdc4dc3a8839cb92efd00e7b2551704d288ac", "addresses": ["1Fu4ycxtNnscmRjRnsxpz3iK8HivnTaVWJ"], "asm": "OP_DUP OP_HASH160 a36ab5ccdc4dc3a8839cb92efd00e7b2551704d2 OP_EQUALVERIFY OP_CHECKSIG", "type": "pubkeyhash"}, "value": 0.09123106, "n": 0}, {"scriptPubKey": {"reqSigs": 1, "hex": "a9143b165e316f77563d5545e6df5c9a942735e6d28687", "addresses": ["375Sb1jykGhE1LeD5QYdDXDe1jcERfZ31k"], "asm": "OP_HASH160 3b165e316f77563d5545e6df5c9a942735e6d286 OP_EQUAL", "type": "scripthash"}, "value": 0.10704824, "n": 1}], "hex": "02000000000101369713f2a5bcd1d097d95cc3e5e0e864fee71020e4d6b6d7ee908f1f0bcea92e0100000017160014af5ea504fc4b482e15394fbbcc2fbf1d3155cddfffffffff0222358b00000000001976a914a36ab5ccdc4dc3a8839cb92efd00e7b2551704d288acb857a3000000000017a9143b165e316f77563d5545e6df5c9a942735e6d286870248304502210092273ce3d16e6a4e8992a7ed2dafeef12cb98664185ba5a32e65ff467c9ef81202204c8d321f142eb2f856de69955149ff8b0a67f8b4cb9c70fe9202c05d624b08e0012102b834632acc8beb63b00d307f29cf8600b6257ef6ccd7b2d581c8c84f2f76d8ed00000000", "vin": [{"txinwitness": ["304502210092273ce3d16e6a4e8992a7ed2dafeef12cb98664185ba5a32e65ff467c9ef81202204c8d321f142eb2f856de69955149ff8b0a67f8b4cb9c70fe9202c05d624b08e001", "02b834632acc8beb63b00d307f29cf8600b6257ef6ccd7b2d581c8c84f2f76d8ed"], "sequence": 4294967295, "scriptSig": {"hex": "160014af5ea504fc4b482e15394fbbcc2fbf1d3155cddf", "asm": "0014af5ea504fc4b482e15394fbbcc2fbf1d3155cddf"}, "vout": 1, "txid": "2ea9ce0b1f8f90eed7b6d6e42010e7fe64e8e0e5c35cd997d0d1bca5f2139736"}], "txid": "d7e5d097a77b71571cac38f2d18562ce24062d7d09d82988457d7b73cd5845a7", "blocktime": 1537873282, "version": 2, "confirmations": 11481, "time": 1537873282, "locktime": 0, "vsize": 168, "size": 250}