{"hash": "488b2d8c1237c2dbd0678e9e884d18af2505169c1b5f721113a5798165b88dbf", "blockhash": "0000000000000000001cda96e906b7601b7a6fb1a3b62bca570a9e5d8f4b3de1", "vout": [{"scriptPubKey": {"reqSigs": 1, "hex": "76a9146bf5d825fdc826a564706de3e597daf6a5aaf14b88ac", "addresses": ["1Aqqp6BYo68MNUBoX7myFDEicK2Xk7yxRH"], "asm": "OP_DUP OP_HASH160 6bf5d825fdc826a564706de3e597daf6a5aaf14b OP_EQUALVERIFY OP_CHECKSIG", "type": "pubkeyhash"}, "value": 0.0028946, "n": 0}, {"scriptPubKey": {"reqSigs": 1, "hex": "a914029e112e93e0e9863d3ca5e615209cf895757b4b87", "addresses": ["31vrdd6qVomcjQD7j6MNJ6AnzAsUQPgrEB"], "asm": "OP_HASH160 029e112e93e0e9863d3ca5e615209cf895757b4b OP_EQUAL", "type": "scripthash"}, "value": 0.01008478, "n": 1}], "hex": "0200000000010276ec0136b80c419852bd716e0bdc821e038bdbc1590fc9f8ccaaba496b5188250100000017160014a64a9fbbbe5c3a6502bff98c645a9b51b2105357fefffffff686b7e24630adc2d501fdf100de06865270b3a0713a0dead35d93f46fd772670800000017160014bd731611bc9330a42579f4f93dd70576901d783afeffffff02b46a0400000000001976a9146bf5d825fdc826a564706de3e597daf6a5aaf14b88ac5e630f000000000017a914029e112e93e0e9863d3ca5e615209cf895757b4b870247304402204875ef66739e68b0c44f08501bc14e75755df6ed00d24750fb124f4efdaf335902203a86eb08d7094dfa28b83ce72c555992a18f79842768e75ded37bf940c3157e2012103abcce958aa99c129924b95cf1ea5801f810dbc04f71f7ecd3b401d57f0f4603302473044022045c270a13be52039d47d5808ffa5f65e6788e0adbb6ca388c4e4910cc85cf84f02203901f00f86f0d1082571d782775039bfa6049220471af4e41078ad965296e575012103c2b67e0cc6aecad3ebce307fa454991e8f8c562be13f87ee6bc0b52df27676ec13490800", "vin": [{"txinwitness": ["304402204875ef66739e68b0c44f08501bc14e75755df6ed00d24750fb124f4efdaf335902203a86eb08d7094dfa28b83ce72c555992a18f79842768e75ded37bf940c3157e201", "03abcce958aa99c129924b95cf1ea5801f810dbc04f71f7ecd3b401d57f0f46033"], "sequence": 4294967294, "scriptSig": {"hex": "160014a64a9fbbbe5c3a6502bff98c645a9b51b2105357", "asm": "0014a64a9fbbbe5c3a6502bff98c645a9b51b2105357"}, "vout": 1, "txid": "2588516b49baaaccf8c90f59c1db8b031e82dc0b6e71bd5298410cb83601ec76"}, {"txinwitness": ["3044022045c270a13be52039d47d5808ffa5f65e6788e0adbb6ca388c4e4910cc85cf84f02203901f00f86f0d1082571d782775039bfa6049220471af4e41078ad965296e57501", "03c2b67e0cc6aecad3ebce307fa454991e8f8c562be13f87ee6bc0b52df27676ec"], "sequence": 4294967294, "scriptSig": {"hex": "160014bd731611bc9330a42579f4f93dd70576901d783a", "asm": "0014bd731611bc9330a42579f4f93dd70576901d783a"}, "vout": 8, "txid": "6772d76ff4935dd3ea0d3a71a0b370528606de00f1fd01d5c2ad3046e2b786f6"}], "txid": "d7ea23271d5985fef444f36d5e16bc61a46ef29a6a59cc22dfd4ad134fc3b242", "blocktime": 1537873282, "version": 2, "confirmations": 11484, "time": 1537873282, "locktime": 542995, "vsize": 258, "size": 420}