{"hash": "6c81245473e2ec0d54a43a889c82f8583f0b5d8bbc6f124ccb8ff1838b0c4219", "blockhash": "00000000000000000018f53835495a110e01622372bf6ae95dc86f2b0ab887b0", "vout": [{"scriptPubKey": {"reqSigs": 1, "hex": "00146fcf7b851f3fbf4a4749d2d6f3d2b49eb0e15158", "addresses": ["bc1qdl8hhpgl87l5536f6tt08545n6cwz52c9e5uxg"], "asm": "0 6fcf7b851f3fbf4a4749d2d6f3d2b49eb0e15158", "type": "witness_v0_keyhash"}, "value": 0.01778453, "n": 0}, {"scriptPubKey": {"reqSigs": 1, "hex": "a914788376e175212d19c99836764d63572604ad02a687", "addresses": ["3CgEVsKtvJfSG5TfNW88mBDQCtw8vxNNXf"], "asm": "OP_HASH160 788376e175212d19c99836764d63572604ad02a6 OP_EQUAL", "type": "scripthash"}, "value": 0.032292, "n": 1}], "hex": "01000000000101d2f5b8980f533cb62d79d8b6b709ec8de8789e16bbbbee2ad4ab0052be9d20560100000000ffffffff0215231b00000000001600146fcf7b851f3fbf4a4749d2d6f3d2b49eb0e15158104631000000000017a914788376e175212d19c99836764d63572604ad02a6870247304402207d73e7c885f9fcf36235988d7e8c0cb1d0825f767593ab8f75aed95f1241b7e202203afc0839fd64bd4d2d4af8037500db5cab7acd28980387cc9869bbffc08e189401210251264ebe5880fb93d999b62a35c5fbbc9d778043932dff0d63101460cdd4c59200000000", "vin": [{"txinwitness": ["304402207d73e7c885f9fcf36235988d7e8c0cb1d0825f767593ab8f75aed95f1241b7e202203afc0839fd64bd4d2d4af8037500db5cab7acd28980387cc9869bbffc08e189401", "0251264ebe5880fb93d999b62a35c5fbbc9d778043932dff0d63101460cdd4c592"], "sequence": 4294967295, "scriptSig": {"hex": "", "asm": ""}, "vout": 1, "txid": "56209dbe5200abd42aeebbbb169e78e88dec09b7b6d8792db63c530f98b8f5d2"}], "txid": "d7ebe6ac87d49d3c38a1703f7368e59a97f556f09b8169bdc9c5dff5b8158036", "blocktime": 1537870928, "version": 1, "confirmations": 11513, "time": 1537870928, "locktime": 0, "vsize": 142, "size": 223}