{"hash": "d26087e7ea2b08c7e8b6e53844c91c9d25b2328adb110480df7b1671f0ab0eb8", "blockhash": "0000000000000000001f76057863aec43deb6fa401d9628bb513d65a8098bfab", "vout": [{"scriptPubKey": {"reqSigs": 1, "hex": "00148f03df103a8c696061a2ed563e3565ed6c98ba60", "addresses": ["bc1q3upa7yp6335kqcdza4trudt9a4kf3wnqx5mlks"], "asm": "0 8f03df103a8c696061a2ed563e3565ed6c98ba60", "type": "witness_v0_keyhash"}, "value": 0.02377556, "n": 0}, {"scriptPubKey": {"reqSigs": 1, "hex": "a9143eec6b218e7df6dce226707aeed59d347d0151dc87", "addresses": ["37Rj35fd4BfFasp4DDe3zo3TXXFhiibaoK"], "asm": "OP_HASH160 3eec6b218e7df6dce226707aeed59d347d0151dc OP_EQUAL", "type": "scripthash"}, "value": 0.03242691, "n": 1}], "hex": "01000000000101301055d6e9b1217df53e4fbcc4fb7ca69d10ea03d1b9311deb7a843f33c185870100000017160014420f3465a9b3c25dc466b13bf2294befdf4b27c3ffffffff0254472400000000001600148f03df103a8c696061a2ed563e3565ed6c98ba60c37a31000000000017a9143eec6b218e7df6dce226707aeed59d347d0151dc8702473044022004d32a1b6929be7ffbf107088fd569bd7db25d16b7048233c06e2e13ca5272d302204125db795bf8aa730f371b6258672fa8810d45596a0b8cbd561cb53b6a1e78f0012102e5cb4e60bba4d605af80ff2d0c22edb93a661e1c50e0bcf8f40834d9af4302ed00000000", "vin": [{"txinwitness": ["3044022004d32a1b6929be7ffbf107088fd569bd7db25d16b7048233c06e2e13ca5272d302204125db795bf8aa730f371b6258672fa8810d45596a0b8cbd561cb53b6a1e78f001", "02e5cb4e60bba4d605af80ff2d0c22edb93a661e1c50e0bcf8f40834d9af4302ed"], "sequence": 4294967295, "scriptSig": {"hex": "160014420f3465a9b3c25dc466b13bf2294befdf4b27c3", "asm": "0014420f3465a9b3c25dc466b13bf2294befdf4b27c3"}, "vout": 1, "txid": "8785c1333f847aeb1d31b9d103ea109da67cfbc4bc4f3ef57d21b1e9d6551030"}], "txid": "d7ee47e17a09174990426ef283adcf618f795d08ff96fe2175f45c65528cc7dc", "blocktime": 1537873891, "version": 1, "confirmations": 11478, "time": 1537873891, "locktime": 0, "vsize": 165, "size": 246}