{"hash": "d7f9d9861c70608d4536c22b33a7db715a5c7fe68f0962b288a1c9fbc77cd5db", "blockhash": "0000000000000000000e13cef7c366c0283d82e591d1acd082e914b08063cdf1", "vout": [{"scriptPubKey": {"reqSigs": 1, "hex": "76a914d82bba6ed881f06514db3a5ddd64f68c3394e0d388ac", "addresses": ["1Li1LjD2q5U4zHG2cmEeeUEVUs3TAKr64M"], "asm": "OP_DUP OP_HASH160 d82bba6ed881f06514db3a5ddd64f68c3394e0d3 OP_EQUALVERIFY OP_CHECKSIG", "type": "pubkeyhash"}, "value": 0.000456, "n": 0}, {"scriptPubKey": {"reqSigs": 1, "hex": "76a91489135bdc94fa45c7e8ba927aece068af98e3308d88ac", "addresses": ["1DVnmMfAmLdQrzXqW6emSAbbmjWHLCT3W5"], "asm": "OP_DUP OP_HASH160 89135bdc94fa45c7e8ba927aece068af98e3308d OP_EQUALVERIFY OP_CHECKSIG", "type": "pubkeyhash"}, "value": 0.00477042, "n": 1}], "hex": "01000000010d61289c995454e3b08751bf46ce624087e3afcebb0f5380f10ff4c2dcc66875010000006a473044022021733838984f6c5157be010c381bf6516432468fc64dbfdb3f3b205bcb48d726022001f20ddf7edeee42e473c5afc834ff408db24c03811ee2b7004b128ba8dee7ee012102ed635fefe5251962e34d750a8be13bec3a99da52dfbbb8294931058d95f47352ffffffff0220b20000000000001976a914d82bba6ed881f06514db3a5ddd64f68c3394e0d388ac72470700000000001976a91489135bdc94fa45c7e8ba927aece068af98e3308d88ac00000000", "vin": [{"sequence": 4294967295, "scriptSig": {"hex": "473044022021733838984f6c5157be010c381bf6516432468fc64dbfdb3f3b205bcb48d726022001f20ddf7edeee42e473c5afc834ff408db24c03811ee2b7004b128ba8dee7ee012102ed635fefe5251962e34d750a8be13bec3a99da52dfbbb8294931058d95f47352", "asm": "3044022021733838984f6c5157be010c381bf6516432468fc64dbfdb3f3b205bcb48d726022001f20ddf7edeee42e473c5afc834ff408db24c03811ee2b7004b128ba8dee7ee[ALL] 02ed635fefe5251962e34d750a8be13bec3a99da52dfbbb8294931058d95f47352"}, "vout": 1, "txid": "7568c6dcc2f40ff180530fbbceafe3874062ce46bf5187b0e35454999c28610d"}], "txid": "d7f9d9861c70608d4536c22b33a7db715a5c7fe68f0962b288a1c9fbc77cd5db", "blocktime": 1537871767, "version": 1, "confirmations": 11495, "time": 1537871767, "locktime": 0, "vsize": 225, "size": 225}