{"hash": "d7ff023b0af9552df9c436d30fbbbb63573395168291f668646bda27e35321a2", "blockhash": "0000000000000000000e13cef7c366c0283d82e591d1acd082e914b08063cdf1", "vout": [{"scriptPubKey": {"reqSigs": 1, "hex": "76a914bd6e79bbcbddf4a4209b30268e8b0d6939d34cf888ac", "addresses": ["1JGd4EKxNRjmjEBc5Vnz8ZyeQpMhvDVD1b"], "asm": "OP_DUP OP_HASH160 bd6e79bbcbddf4a4209b30268e8b0d6939d34cf8 OP_EQUALVERIFY OP_CHECKSIG", "type": "pubkeyhash"}, "value": 0.01406584, "n": 0}, {"scriptPubKey": {"type": "nulldata", "hex": "6a4c50000077a50001cbb205e5d82553f51ee4a0c3af6c953dd567cf27e7e3ef3236678a6250971726b13df038a3ece4a19bad472bfa265baa0efa0614574a5cb5650dbc9a9526289ac0f6612cd74e33776ee4", "asm": "OP_RETURN 000077a50001cbb205e5d82553f51ee4a0c3af6c953dd567cf27e7e3ef3236678a6250971726b13df038a3ece4a19bad472bfa265baa0efa0614574a5cb5650dbc9a9526289ac0f6612cd74e33776ee4"}, "value": 0.0, "n": 1}], "hex": "0100000001fdf0d48a7614ff4bd020784ffce33a6984b63c40be6f923187d3f9b0a14af1bb010000006b483045022100d234fa1f05014593ce31f539c210a9e94ac4e58b8ce61ae5e962ed528976f645022030967322f8e98ad06a25c5e756f54610d253d7e217fa86e40ebd9bd17c9e9ecd0121035ea61aac0586db34e653003d771e85f62d6617bc6fc94c103c48a608cfdf71aeffffffff0278761500000000001976a914bd6e79bbcbddf4a4209b30268e8b0d6939d34cf888ac0000000000000000536a4c50000077a50001cbb205e5d82553f51ee4a0c3af6c953dd567cf27e7e3ef3236678a6250971726b13df038a3ece4a19bad472bfa265baa0efa0614574a5cb5650dbc9a9526289ac0f6612cd74e33776ee400000000", "vin": [{"sequence": 4294967295, "scriptSig": {"hex": "483045022100d234fa1f05014593ce31f539c210a9e94ac4e58b8ce61ae5e962ed528976f645022030967322f8e98ad06a25c5e756f54610d253d7e217fa86e40ebd9bd17c9e9ecd0121035ea61aac0586db34e653003d771e85f62d6617bc6fc94c103c48a608cfdf71ae", "asm": "3045022100d234fa1f05014593ce31f539c210a9e94ac4e58b8ce61ae5e962ed528976f645022030967322f8e98ad06a25c5e756f54610d253d7e217fa86e40ebd9bd17c9e9ecd[ALL] 035ea61aac0586db34e653003d771e85f62d6617bc6fc94c103c48a608cfdf71ae"}, "vout": 1, "txid": "bbf14aa1b0f9d38731926fbe403cb684693ae3fc4f7820d04bff14768ad4f0fd"}], "txid": "d7ff023b0af9552df9c436d30fbbbb63573395168291f668646bda27e35321a2", "blocktime": 1537871767, "version": 1, "confirmations": 11493, "time": 1537871767, "locktime": 0, "vsize": 284, "size": 284}