{"hash": "60bb8098c72bb2bce35f0b39ca017afe54cc4ccd1b015521819a6bb8ad648d10", "blockhash": "0000000000000000000e13cef7c366c0283d82e591d1acd082e914b08063cdf1", "vout": [{"scriptPubKey": {"reqSigs": 1, "hex": "76a914602caa80a1a740d17f77fd9328ff963f85714e8d88ac", "addresses": ["19mXNsCkdaGp7Kyj6hLRNH2Z3NGBZmotCt"], "asm": "OP_DUP OP_HASH160 602caa80a1a740d17f77fd9328ff963f85714e8d OP_EQUALVERIFY OP_CHECKSIG", "type": "pubkeyhash"}, "value": 0.084, "n": 0}, {"scriptPubKey": {"reqSigs": 1, "hex": "a9145f26c41fc6a16f6bdba9a5917f38688c87a43b3987", "addresses": ["3AN8ZHSE5MpAKskLsz19c24xWsQi7RYGky"], "asm": "OP_HASH160 5f26c41fc6a16f6bdba9a5917f38688c87a43b39 OP_EQUAL", "type": "scripthash"}, "value": 0.00998822, "n": 1}], "hex": "0200000000010c154ffbc720d72cd7f4463d6af1b1b8dc8b830ab2e29d4988233b76f7460fdd022c00000017160014a65cff32dc72267a72bd44bec75316a1034dd0a3feffffff17e73065a4a32e4cea5ffb7d4fcf1332cef9b91259ad28660e652b934c5dd4e1040000001716001431c3340655e7c9985e2a1db0249497c4c3fe6d81feffffff30d7bc6f5aaaeb97f9fd653653eb811286576a14acef1129ada74cfa462139ef06000000171600148b5e8e21673db9b31e7063048a9a666a1ea7a2e2feffffff35dd69f2c0a6f0d5e1bceaf68ef42b90bd566888ad52fd634a8acdf23516de750100000017160014160f8fcbd3cb67fe36e1c1f5cf45f4ca87e707b0feffffff6b6918560e05d713d468e788b2490fdeaa3ae6bf2a5bcd4bf2316cd7d934841a0100000017160014987608250ee9997beeed2e3c857db304d05cabc5feffffff71fb723580003011a849175d7436d9be06228537ee7b7deda3346a18dea3dfc504000000171600149b8c8d9960d3af51bb6db5874e90938e7a9759a9feffffff73afcaee0623128f33c8bda2b58cca8e67ef0a639bf24473264d25b5d00824ba0c00000017160014b8cbd89e03ef638dce1f0fc64e3fb9c72e281ddffeffffff7a3a15e7d37d06ed3cd33511dff0c3f8f36bf56ab7e516d384898e5bd7e57c1d0b0000001716001421a00c2217116088f1391e9d5edd63b190c374e4feffffff8c437f76001b89941f796ab77a3787ea46681cd1abc4bca664cc7d8aa62bac9e0700000017160014bfe9471d102cfe8d1d257d3bb6d1cafa93f597b0feffffff92894c555fdcca6b8eee1f15095c3ccaf980658043f99516dad23af685085b6e00000000171600145f23266e275f0081549cf3f87122012b592445d3feffffffb67080b6086743417c965c358d80e138dc4382195b13704dd92f762a140f7927110000001716001488d9f6bf405d0105a70cb3de9504e1d0e2bd3f7bfefffffff4d1df6cc690fd92aa653c5fbc90b217dbcbf792f007f0b8e3813af98c5d2d940100000017160014213a6c8f9588f4c675a130789704b2e80a494bc0feffffff02802c8000000000001976a914602caa80a1a740d17f77fd9328ff963f85714e8d88aca63d0f000000000017a9145f26c41fc6a16f6bdba9a5917f38688c87a43b398702483045022100d9944a8b6abe52de43d4a0509fc2385d0033715248948c4043bb87e63348891802205edc087e7a0b6bc4245466febbab4c03901fd12758b8d3797bb637ec78ad5d2a0121039f244a3aba38ef5860e621aad65c21edb56db05d2653736e26a3bf8bbe8f5d4a02483045022100d840ce366b0deb3d498d5c740863cf965ce41869c36ecf8e9e7793fff0956136022039c559695e3c5dcf20ce2853ecbd6fc179ebf318dc7c4da571b197eb631488f7012102c5c1498c10def08b7f8273c34fa391bb20831306c8734f1c518b0e68a28094770247304402200b2bcf7b567c288c2991d3140b7c6c95c606abd7f110076b3f318ae6de4df96302205c95284a6dcb1277a2f54ef3d3a36781f4a9a7e7bc59458254e809fd15c5bf8a0121024184ab6646076a471b9fa83523a08daf36c67d5cb72930825d2abf101954ff9102473044022049d6e417f555fdd3bfd0561d82ee648528430cc8cf27c1a70139c9111877b48602205840dedd64db912c84508964e02e08a00b48aa54b5ab7755a69e7427ef05fba9012102a8178e231419ac4fe8706c5fbb2c2a3f135db6df0de3ab95a364c30125c8511202483045022100cca543ab899e056dd766bbaa293698ee6fd4045279d14ef1d7b81441fbe01b3802202d8cc40e0e13836ad3e07759313b8b2c08bd5d9b8c5be491e6dcb0b1e41f0dab01210248605bb529c23952cd025cb1c6443db24d54eb6ddad8dc0dd112b4df5117e19f024830450221009fe2c00062284d7eca9cc8b08ff04948e3c341f80659a53a7de634480e5e1c630220708a7098578dd923bea7d52a925f3c64786fabce1138ad089bc16be9d521edb7012102bede28e4ce77165afe06e0acfaf28a7494bb54400fdba8088166d1736af29afd0247304402205e9d1060fd650d499197222befaa4a57594484d97d6cf8b7e526e860435ddeb402203bc272f658c4ed4bf22cf03b5d234ebfc51655546f3b96fea34ad7113197cc43012102a09f1fc0c3c063cda51d90268947a5cb09770f2b6e7ab5878299a7f0b3ff468602483045022100b0025773647fea1f733a5e0ece7f35dad83bded50fedfd6b1e79d8a530f00e2402207df66c76040dc9aefa2f6b2330062b771a285b7504b681ef2fac4b867bcafad6012103e3fdf4580e5e3ebc8fa904f73f7f76fa22c645bde1b69d509948cd071585d9f6024730440220600d5e7f2b4c2f2ae75752f1e3c9ac7c5419e235b413136e189275d4db98644a02205081ed65e513ba2e50118476e9f81291caf3e2f0c6ca375f24ca89c28b5e17d90121026eef97299afcf7974d630c5fd34c27e1fd1ba0d8a2a41f765b20f0982343c34402483045022100e1dd194fa813ed0425f79d20f9283bf20de6653d456edea484050775a570fdd802202cb2a45e70e581ee2cff916d3e3dc51ee4e9d3ded0172260fe25e8dfa4375d1d0121031a8f510f26e646b54a297a3406566ef8e78b7b31a3a4a9d292a2fd652b35dedd02483045022100de0096962cbc8ad39a152c643265d5fd1bc0f3bee876e08dc0cb242f585bfb230220740b99d3eaa1af87e5a0d5f8a9e627595029ed97183614fdd73929ea782407b3012103d1ede57b94a6c02d99c4472a554fa7bf3d927a4868688880ac987fadc0de6963024830450221009ba38a328b122f090d5362d79b5d25492c51104c796ee8f6f466dc37f1da9c4e02205074a9bcf916a2b79bebcb5faa605b9055fe8b6b9102bddcac31bd2037653bd1012103a98cb000032f4fe1c182bdb9f743a16d37ae358b8bae4b62cd34ae062e2c534d10490800", "vin": [{"txinwitness": ["3045022100d9944a8b6abe52de43d4a0509fc2385d0033715248948c4043bb87e63348891802205edc087e7a0b6bc4245466febbab4c03901fd12758b8d3797bb637ec78ad5d2a01", "039f244a3aba38ef5860e621aad65c21edb56db05d2653736e26a3bf8bbe8f5d4a"], "sequence": 4294967294, "scriptSig": {"hex": "160014a65cff32dc72267a72bd44bec75316a1034dd0a3", "asm": "0014a65cff32dc72267a72bd44bec75316a1034dd0a3"}, "vout": 44, "txid": "02dd0f46f7763b2388499de2b20a838bdcb8b1f16a3d46f4d72cd720c7fb4f15"}, {"txinwitness": ["3045022100d840ce366b0deb3d498d5c740863cf965ce41869c36ecf8e9e7793fff0956136022039c559695e3c5dcf20ce2853ecbd6fc179ebf318dc7c4da571b197eb631488f701", "02c5c1498c10def08b7f8273c34fa391bb20831306c8734f1c518b0e68a2809477"], "sequence": 4294967294, "scriptSig": {"hex": "16001431c3340655e7c9985e2a1db0249497c4c3fe6d81", "asm": "001431c3340655e7c9985e2a1db0249497c4c3fe6d81"}, "vout": 4, "txid": "e1d45d4c932b650e6628ad5912b9f9ce3213cf4f7dfb5fea4c2ea3a46530e717"}, {"txinwitness": ["304402200b2bcf7b567c288c2991d3140b7c6c95c606abd7f110076b3f318ae6de4df96302205c95284a6dcb1277a2f54ef3d3a36781f4a9a7e7bc59458254e809fd15c5bf8a01", "024184ab6646076a471b9fa83523a08daf36c67d5cb72930825d2abf101954ff91"], "sequence": 4294967294, "scriptSig": {"hex": "1600148b5e8e21673db9b31e7063048a9a666a1ea7a2e2", "asm": "00148b5e8e21673db9b31e7063048a9a666a1ea7a2e2"}, "vout": 6, "txid": "ef392146fa4ca7ad2911efac146a57861281eb533665fdf997ebaa5a6fbcd730"}, {"txinwitness": ["3044022049d6e417f555fdd3bfd0561d82ee648528430cc8cf27c1a70139c9111877b48602205840dedd64db912c84508964e02e08a00b48aa54b5ab7755a69e7427ef05fba901", "02a8178e231419ac4fe8706c5fbb2c2a3f135db6df0de3ab95a364c30125c85112"], "sequence": 4294967294, "scriptSig": {"hex": "160014160f8fcbd3cb67fe36e1c1f5cf45f4ca87e707b0", "asm": "0014160f8fcbd3cb67fe36e1c1f5cf45f4ca87e707b0"}, "vout": 1, "txid": "75de1635f2cd8a4a63fd52ad886856bd902bf48ef6eabce1d5f0a6c0f269dd35"}, {"txinwitness": ["3045022100cca543ab899e056dd766bbaa293698ee6fd4045279d14ef1d7b81441fbe01b3802202d8cc40e0e13836ad3e07759313b8b2c08bd5d9b8c5be491e6dcb0b1e41f0dab01", "0248605bb529c23952cd025cb1c6443db24d54eb6ddad8dc0dd112b4df5117e19f"], "sequence": 4294967294, "scriptSig": {"hex": "160014987608250ee9997beeed2e3c857db304d05cabc5", "asm": "0014987608250ee9997beeed2e3c857db304d05cabc5"}, "vout": 1, "txid": "1a8434d9d76c31f24bcd5b2abfe63aaade0f49b288e768d413d7050e5618696b"}, {"txinwitness": ["30450221009fe2c00062284d7eca9cc8b08ff04948e3c341f80659a53a7de634480e5e1c630220708a7098578dd923bea7d52a925f3c64786fabce1138ad089bc16be9d521edb701", "02bede28e4ce77165afe06e0acfaf28a7494bb54400fdba8088166d1736af29afd"], "sequence": 4294967294, "scriptSig": {"hex": "1600149b8c8d9960d3af51bb6db5874e90938e7a9759a9", "asm": "00149b8c8d9960d3af51bb6db5874e90938e7a9759a9"}, "vout": 4, "txid": "c5dfa3de186a34a3ed7d7bee37852206bed936745d1749a8113000803572fb71"}, {"txinwitness": ["304402205e9d1060fd650d499197222befaa4a57594484d97d6cf8b7e526e860435ddeb402203bc272f658c4ed4bf22cf03b5d234ebfc51655546f3b96fea34ad7113197cc4301", "02a09f1fc0c3c063cda51d90268947a5cb09770f2b6e7ab5878299a7f0b3ff4686"], "sequence": 4294967294, "scriptSig": {"hex": "160014b8cbd89e03ef638dce1f0fc64e3fb9c72e281ddf", "asm": "0014b8cbd89e03ef638dce1f0fc64e3fb9c72e281ddf"}, "vout": 12, "txid": "ba2408d0b5254d267344f29b630aef678eca8cb5a2bdc8338f122306eecaaf73"}, {"txinwitness": ["3045022100b0025773647fea1f733a5e0ece7f35dad83bded50fedfd6b1e79d8a530f00e2402207df66c76040dc9aefa2f6b2330062b771a285b7504b681ef2fac4b867bcafad601", "03e3fdf4580e5e3ebc8fa904f73f7f76fa22c645bde1b69d509948cd071585d9f6"], "sequence": 4294967294, "scriptSig": {"hex": "16001421a00c2217116088f1391e9d5edd63b190c374e4", "asm": "001421a00c2217116088f1391e9d5edd63b190c374e4"}, "vout": 11, "txid": "1d7ce5d75b8e8984d316e5b76af56bf3f8c3f0df1135d33ced067dd3e7153a7a"}, {"txinwitness": ["30440220600d5e7f2b4c2f2ae75752f1e3c9ac7c5419e235b413136e189275d4db98644a02205081ed65e513ba2e50118476e9f81291caf3e2f0c6ca375f24ca89c28b5e17d901", "026eef97299afcf7974d630c5fd34c27e1fd1ba0d8a2a41f765b20f0982343c344"], "sequence": 4294967294, "scriptSig": {"hex": "160014bfe9471d102cfe8d1d257d3bb6d1cafa93f597b0", "asm": "0014bfe9471d102cfe8d1d257d3bb6d1cafa93f597b0"}, "vout": 7, "txid": "9eac2ba68a7dcc64a6bcc4abd11c6846ea87377ab76a791f94891b00767f438c"}, {"txinwitness": ["3045022100e1dd194fa813ed0425f79d20f9283bf20de6653d456edea484050775a570fdd802202cb2a45e70e581ee2cff916d3e3dc51ee4e9d3ded0172260fe25e8dfa4375d1d01", "031a8f510f26e646b54a297a3406566ef8e78b7b31a3a4a9d292a2fd652b35dedd"], "sequence": 4294967294, "scriptSig": {"hex": "1600145f23266e275f0081549cf3f87122012b592445d3", "asm": "00145f23266e275f0081549cf3f87122012b592445d3"}, "vout": 0, "txid": "6e5b0885f63ad2da1695f943806580f9ca3c5c09151fee8e6bcadc5f554c8992"}, {"txinwitness": ["3045022100de0096962cbc8ad39a152c643265d5fd1bc0f3bee876e08dc0cb242f585bfb230220740b99d3eaa1af87e5a0d5f8a9e627595029ed97183614fdd73929ea782407b301", "03d1ede57b94a6c02d99c4472a554fa7bf3d927a4868688880ac987fadc0de6963"], "sequence": 4294967294, "scriptSig": {"hex": "16001488d9f6bf405d0105a70cb3de9504e1d0e2bd3f7b", "asm": "001488d9f6bf405d0105a70cb3de9504e1d0e2bd3f7b"}, "vout": 17, "txid": "27790f142a762fd94d70135b198243dc38e1808d355c967c41436708b68070b6"}, {"txinwitness": ["30450221009ba38a328b122f090d5362d79b5d25492c51104c796ee8f6f466dc37f1da9c4e02205074a9bcf916a2b79bebcb5faa605b9055fe8b6b9102bddcac31bd2037653bd101", "03a98cb000032f4fe1c182bdb9f743a16d37ae358b8bae4b62cd34ae062e2c534d"], "sequence": 4294967294, "scriptSig": {"hex": "160014213a6c8f9588f4c675a130789704b2e80a494bc0", "asm": "0014213a6c8f9588f4c675a130789704b2e80a494bc0"}, "vout": 1, "txid": "942d5d8cf93a81e3b8f007f092f7cbdb17b290bc5f3c65aa92fd90c66cdfd1f4"}], "txid": "d809d71c577689763f5216628e8d45d76ace5e975cbab0a550f400b489f75645", "blocktime": 1537871767, "version": 2, "confirmations": 11495, "time": 1537871767, "locktime": 542992, "vsize": 1168, "size": 2138}