{"hash": "d80941ff63b1d482c3d5dd3b87bb1f477bacd49ca2b454e7864a6492488b4e61", "blockhash": "0000000000000000001f76057863aec43deb6fa401d9628bb513d65a8098bfab", "vout": [{"scriptPubKey": {"reqSigs": 1, "hex": "76a914a9c353f026df8d951e1c9048bf2159388b0006f988ac", "addresses": ["1GUdC3EpU3VoFfk5Fyi9eU6vds6n2MJ1FS"], "asm": "OP_DUP OP_HASH160 a9c353f026df8d951e1c9048bf2159388b0006f9 OP_EQUALVERIFY OP_CHECKSIG", "type": "pubkeyhash"}, "value": 0.00207834, "n": 0}, {"scriptPubKey": {"reqSigs": 1, "hex": "a9149776e91f7e70b78fd906772e084bf42eac4ad45687", "addresses": ["3FVtQZnQ7mwfaPKw4EpxRix4rLgZty1uRU"], "asm": "OP_HASH160 9776e91f7e70b78fd906772e084bf42eac4ad456 OP_EQUAL", "type": "scripthash"}, "value": 0.0546245, "n": 1}], "hex": "0100000001a9c70d4e554085a3f423a9f599f333a6790b95db58b35ea2a02e321aab05eabd010000006b483045022100ce55dbf1dc9dcdd6c16602e271a63dc55ad283d41692faeb4329f8065967c4670220256f713246d206aef19ca840385af36f4a603fefc276a9aff1d86af0e1b91fc9012103d09c82c468664440ba7051ece6c0e47c7c37346c5b9402f32215fc344a4dfdf7ffffffff02da2b0300000000001976a914a9c353f026df8d951e1c9048bf2159388b0006f988acb25953000000000017a9149776e91f7e70b78fd906772e084bf42eac4ad4568700000000", "vin": [{"sequence": 4294967295, "scriptSig": {"hex": "483045022100ce55dbf1dc9dcdd6c16602e271a63dc55ad283d41692faeb4329f8065967c4670220256f713246d206aef19ca840385af36f4a603fefc276a9aff1d86af0e1b91fc9012103d09c82c468664440ba7051ece6c0e47c7c37346c5b9402f32215fc344a4dfdf7", "asm": "3045022100ce55dbf1dc9dcdd6c16602e271a63dc55ad283d41692faeb4329f8065967c4670220256f713246d206aef19ca840385af36f4a603fefc276a9aff1d86af0e1b91fc9[ALL] 03d09c82c468664440ba7051ece6c0e47c7c37346c5b9402f32215fc344a4dfdf7"}, "vout": 1, "txid": "bdea05ab1a322ea0a25eb358db950b79a633f399f5a923f4a38540554e0dc7a9"}], "txid": "d80941ff63b1d482c3d5dd3b87bb1f477bacd49ca2b454e7864a6492488b4e61", "blocktime": 1537873891, "version": 1, "confirmations": 11478, "time": 1537873891, "locktime": 0, "vsize": 224, "size": 224}