{"hash": "d810ca9a81d7f8f53c74922862b850b0937d77e2f8c1c8174c3560607e2036f0", "blockhash": "0000000000000000000e13cef7c366c0283d82e591d1acd082e914b08063cdf1", "vout": [{"scriptPubKey": {"reqSigs": 1, "hex": "76a914317f890b80a784fc05283daf25d5ce91fe421ffa88ac", "addresses": ["15WitiB5DS5HM5kWJdTj48XR4RoJ6yYe4k"], "asm": "OP_DUP OP_HASH160 317f890b80a784fc05283daf25d5ce91fe421ffa OP_EQUALVERIFY OP_CHECKSIG", "type": "pubkeyhash"}, "value": 0.0034, "n": 0}, {"scriptPubKey": {"reqSigs": 1, "hex": "a91466184aa34924fe72bbefceee0a4457bcde529d8687", "addresses": ["3Azqwv9nRfGjpXsgqpQNLUqc3kvES6a7z2"], "asm": "OP_HASH160 66184aa34924fe72bbefceee0a4457bcde529d86 OP_EQUAL", "type": "scripthash"}, "value": 0.0297, "n": 1}], "hex": "0100000001c3e3c5da1e4f5011913498c84590a119458aae48882f834c742b5e2e291c05a3000000006b483045022100b8813595c8dbd355a00d7a0e28be9958960fa2a5a80c15647ba7830e7042169a022028b3007f22587bfd4191ae2ba2bb3839f71dddd2892d5f0424e0799e3932cab9012102656e9ee4d15cbcd53abb1984e3b31cb46644c2c70fb95b02a08ccd1b3c54323efeffffff0220300500000000001976a914317f890b80a784fc05283daf25d5ce91fe421ffa88ac90512d000000000017a91466184aa34924fe72bbefceee0a4457bcde529d86870f490800", "vin": [{"sequence": 4294967294, "scriptSig": {"hex": "483045022100b8813595c8dbd355a00d7a0e28be9958960fa2a5a80c15647ba7830e7042169a022028b3007f22587bfd4191ae2ba2bb3839f71dddd2892d5f0424e0799e3932cab9012102656e9ee4d15cbcd53abb1984e3b31cb46644c2c70fb95b02a08ccd1b3c54323e", "asm": "3045022100b8813595c8dbd355a00d7a0e28be9958960fa2a5a80c15647ba7830e7042169a022028b3007f22587bfd4191ae2ba2bb3839f71dddd2892d5f0424e0799e3932cab9[ALL] 02656e9ee4d15cbcd53abb1984e3b31cb46644c2c70fb95b02a08ccd1b3c54323e"}, "vout": 0, "txid": "a3051c292e5e2b744c832f8848ae8a4519a19045c898349111504f1edac5e3c3"}], "txid": "d810ca9a81d7f8f53c74922862b850b0937d77e2f8c1c8174c3560607e2036f0", "blocktime": 1537871767, "version": 1, "confirmations": 11493, "time": 1537871767, "locktime": 542991, "vsize": 224, "size": 224}