{"hash": "d8123a07f5e2584164259d66cee203634726bb39ca04bff6583af190a6260acb", "blockhash": "0000000000000000001e0dab787dd257d1dbfcb92a98c2207d5e1078be1f4165", "vout": [{"scriptPubKey": {"reqSigs": 1, "hex": "76a91435ab2e8dd12ec85f6f8209f25442d1b8d97a681688ac", "addresses": ["15tmt6FfWjLkFW7CCPb1djkFZyfsK1A66S"], "asm": "OP_DUP OP_HASH160 35ab2e8dd12ec85f6f8209f25442d1b8d97a6816 OP_EQUALVERIFY OP_CHECKSIG", "type": "pubkeyhash"}, "value": 0.00211423, "n": 0}, {"scriptPubKey": {"reqSigs": 1, "hex": "a91406c08af93957095bd0a81c760f631b378230ed6787", "addresses": ["32JidonsPy37oX4nQ77CgA6Hnn2ELeUvD5"], "asm": "OP_HASH160 06c08af93957095bd0a81c760f631b378230ed67 OP_EQUAL", "type": "scripthash"}, "value": 0.02973, "n": 1}], "hex": "0100000001e817f8190d66d6eab6d1060e0087467847a7d7805cff73c22fa1f45ebbff939f010000006b483045022100fe53c88407aac674cf324f280694153d322c641dda09300ac7a25fe055c0f33802205295efcaee8d04a5b26f7fa43b2ec2db184c9865ba74e6c5676a7f182db946d801210253b62693bab8e9f17f54e51a6fc125473ab06ad0179800fcad086df58591709bfdffffff02df390300000000001976a91435ab2e8dd12ec85f6f8209f25442d1b8d97a681688ac485d2d000000000017a91406c08af93957095bd0a81c760f631b378230ed678712490800", "vin": [{"sequence": 4294967293, "scriptSig": {"hex": "483045022100fe53c88407aac674cf324f280694153d322c641dda09300ac7a25fe055c0f33802205295efcaee8d04a5b26f7fa43b2ec2db184c9865ba74e6c5676a7f182db946d801210253b62693bab8e9f17f54e51a6fc125473ab06ad0179800fcad086df58591709b", "asm": "3045022100fe53c88407aac674cf324f280694153d322c641dda09300ac7a25fe055c0f33802205295efcaee8d04a5b26f7fa43b2ec2db184c9865ba74e6c5676a7f182db946d8[ALL] 0253b62693bab8e9f17f54e51a6fc125473ab06ad0179800fcad086df58591709b"}, "vout": 1, "txid": "9f93ffbb5ef4a12fc273ff5c80d7a747784687000e06d1b6ead6660d19f817e8"}], "txid": "d8123a07f5e2584164259d66cee203634726bb39ca04bff6583af190a6260acb", "blocktime": 1537872475, "version": 1, "confirmations": 11488, "time": 1537872475, "locktime": 542994, "vsize": 224, "size": 224}