{"hash": "1bb61555d9cf2eb8c784aaccdb58ca5d5b343def5f80805d628eec28b929261b", "blockhash": "0000000000000000000dcc0f55137456b1a82d3642486a52398922ac4d620174", "vout": [{"scriptPubKey": {"reqSigs": 1, "hex": "00141ff6dd40bbb6f5d756b6f749b9f729fa01e0f7cb", "addresses": ["bc1qrlmd6s9mkm6aw44k7aymnaeflgq7pa7tyeu0xf"], "asm": "0 1ff6dd40bbb6f5d756b6f749b9f729fa01e0f7cb", "type": "witness_v0_keyhash"}, "value": 0.0007329, "n": 0}, {"scriptPubKey": {"reqSigs": 1, "hex": "76a914d0dcb3776e7c272a56a682137a1c3effd0d03bf088ac", "addresses": ["1L3MwUieh2QLE18YY3jcA1kUkuEn3mey7F"], "asm": "OP_DUP OP_HASH160 d0dcb3776e7c272a56a682137a1c3effd0d03bf0 OP_EQUALVERIFY OP_CHECKSIG", "type": "pubkeyhash"}, "value": 0.01750561, "n": 1}], "hex": "010000000001010f188a091deae77bcd986315031cc9fcfaf1e1479449ba69238e9f5b317ab53b00000000171600148c89c053633cf8421915a18772e7731b1bf20296ffffffff024a1e0100000000001600141ff6dd40bbb6f5d756b6f749b9f729fa01e0f7cb21b61a00000000001976a914d0dcb3776e7c272a56a682137a1c3effd0d03bf088ac02473044022033ea017600d2b8ffbac6d44f34dcf69d9a4fd1d557c93c0401524e3b9b9ff00702207474d430fc217f17f2c1ca042a20d2cf34e74ba118b894ab1e4d8b88955d7bd301210202913b9a89d89bc6aae409edb33a8d3f47dc8a2b13c045fec9720ae02b94175c00000000", "vin": [{"txinwitness": ["3044022033ea017600d2b8ffbac6d44f34dcf69d9a4fd1d557c93c0401524e3b9b9ff00702207474d430fc217f17f2c1ca042a20d2cf34e74ba118b894ab1e4d8b88955d7bd301", "0202913b9a89d89bc6aae409edb33a8d3f47dc8a2b13c045fec9720ae02b94175c"], "sequence": 4294967295, "scriptSig": {"hex": "1600148c89c053633cf8421915a18772e7731b1bf20296", "asm": "00148c89c053633cf8421915a18772e7731b1bf20296"}, "vout": 0, "txid": "3bb57a315b9f8e2369ba499447e1f1fafcc91c03156398cd7be7ea1d098a180f"}], "txid": "d81ac1aec1703d4803215f0de63e3c65df1a8f2feb7ca0ed695aa3c820958dfc", "blocktime": 1537870268, "version": 1, "confirmations": 11518, "time": 1537870268, "locktime": 0, "vsize": 167, "size": 248}