{"hash": "d81b3cc84b84ce65966aa3391b6ff23c1f2aafd36816b5bf10a15c1e20ccb7b8", "blockhash": "00000000000000000017f5eb5941039fbcee6240d03bc1f2f8e35350df66a1d8", "vout": [{"scriptPubKey": {"reqSigs": 1, "hex": "76a9147c1ee8c42fe114546e288cdea4ef3c4a35f136ff88ac", "addresses": ["1CKHpQ8nXJDvJtsfqquLyCK7dzwnqK3EmS"], "asm": "OP_DUP OP_HASH160 7c1ee8c42fe114546e288cdea4ef3c4a35f136ff OP_EQUALVERIFY OP_CHECKSIG", "type": "pubkeyhash"}, "value": 1.3, "n": 0}, {"scriptPubKey": {"reqSigs": 1, "hex": "76a914a68433a8b78c232f34dc9f1b6fe36774ef0c9b9488ac", "addresses": ["1GBTYPMjGDTnu8crNtZsQ1Wv1Tkhi9RGs4"], "asm": "OP_DUP OP_HASH160 a68433a8b78c232f34dc9f1b6fe36774ef0c9b94 OP_EQUALVERIFY OP_CHECKSIG", "type": "pubkeyhash"}, "value": 0.03436, "n": 1}], "hex": "01000000019a13ec754b2fd56f412e6fc6a9e0afc6ef49865b1c69173d919ad0ce04707f6f010000006b483045022100c9dfc3bedea8603bfa0d6684427c49238cbb63ddca52c237f908d70b09b0f66702202f0ba9fcaa187eac674cea462cd37611e661f68dbbd1d1de2684ccc23f5a847701210229b8d11faff991ca14ab99090e2105255b520047caf6019c0b4203040568be58ffffffff0280a4bf07000000001976a9147c1ee8c42fe114546e288cdea4ef3c4a35f136ff88ace06d3400000000001976a914a68433a8b78c232f34dc9f1b6fe36774ef0c9b9488ac00000000", "vin": [{"sequence": 4294967295, "scriptSig": {"hex": "483045022100c9dfc3bedea8603bfa0d6684427c49238cbb63ddca52c237f908d70b09b0f66702202f0ba9fcaa187eac674cea462cd37611e661f68dbbd1d1de2684ccc23f5a847701210229b8d11faff991ca14ab99090e2105255b520047caf6019c0b4203040568be58", "asm": "3045022100c9dfc3bedea8603bfa0d6684427c49238cbb63ddca52c237f908d70b09b0f66702202f0ba9fcaa187eac674cea462cd37611e661f68dbbd1d1de2684ccc23f5a8477[ALL] 0229b8d11faff991ca14ab99090e2105255b520047caf6019c0b4203040568be58"}, "vout": 1, "txid": "6f7f7004ced09a913d17691c5b8649efc6afe0a9c66f2e416fd52f4b75ec139a"}], "txid": "d81b3cc84b84ce65966aa3391b6ff23c1f2aafd36816b5bf10a15c1e20ccb7b8", "blocktime": 1537874412, "version": 1, "confirmations": 11467, "time": 1537874412, "locktime": 0, "vsize": 226, "size": 226}