{"hash": "40d903b2157f1a900df4de2d971f1c047d8834b0157d53f59763a177631107c4", "blockhash": "0000000000000000000e13cef7c366c0283d82e591d1acd082e914b08063cdf1", "vout": [{"scriptPubKey": {"reqSigs": 1, "hex": "a91430897cc6c9d69f6a2c2f1c651d51f22219f1a4f687", "addresses": ["367f4YWz1VCFaqBqwbTrzwi2b1h2U3w1AF"], "asm": "OP_HASH160 30897cc6c9d69f6a2c2f1c651d51f22219f1a4f6 OP_EQUAL", "type": "scripthash"}, "value": 0.22524129, "n": 0}, {"scriptPubKey": {"reqSigs": 1, "hex": "a9141aa151aaa5a97f82d00eb2529506cef7baf0e95387", "addresses": ["347pkAy7LejWFfbrTLq8NMUMMB4XzhtM6i"], "asm": "OP_HASH160 1aa151aaa5a97f82d00eb2529506cef7baf0e953 OP_EQUAL", "type": "scripthash"}, "value": 0.07917372, "n": 1}], "hex": "01000000000105bf5df53144668ce9f146a4db3a2d4927354c6c98a63ab4d5f027ff9e3b7f734b0000000023220020bcf9f822194145acea0f3235f4107b5bf1a91b6b9f8489f63bf79ec29b360913ffffffffe608fc0ba789435989f2364cdfbc6450055aed30e2b5cb4dab3bd4fef20362900000000023220020bcf9f822194145acea0f3235f4107b5bf1a91b6b9f8489f63bf79ec29b360913ffffffff3a2eb8f43a657a81b51543020ff339d480913211a53c40d104eb90256bedcfc60000000023220020bcf9f822194145acea0f3235f4107b5bf1a91b6b9f8489f63bf79ec29b360913ffffffff8af84d84cd6b284cd6ff6a61b8c6bed4cbcc8870d275ef66a49b65722b2557cf0000000023220020bcf9f822194145acea0f3235f4107b5bf1a91b6b9f8489f63bf79ec29b360913ffffffffb8bc299380bc5976f713486b75513c0d899c9b8cd5ac492bff7ef0fba009943e0000000023220020bcf9f822194145acea0f3235f4107b5bf1a91b6b9f8489f63bf79ec29b360913ffffffff02e1b057010000000017a91430897cc6c9d69f6a2c2f1c651d51f22219f1a4f6873ccf78000000000017a9141aa151aaa5a97f82d00eb2529506cef7baf0e953870400483045022100ad46d26a47241c6f0d76399cc6bb989a2431f1cd2b34f0ceb6ce6fac7a7434cc022074d1871aee1b6baecde1916f7659858ce5b3482e2c4a54470743db46ae95030401483045022100a36acfc4a96bf04a85a13dd02e7f3de37ae10380997b7413e3e14617b3f9a5af02200990a1f580f346d3a85ecab49bd214c27de33f1a67bb950ecd3e33958dd9883101695221026c8f72b9e63db63907115e65d4da86eaae595b22fdc85ec75301bb4adbf203582103806535be3e3920e5eedee92de5714188fd6a784f2bf7b04f87de0b9c3ae1ecdb21024b23bfdce2afcae7e28c42f7f79aa100f22931712c52d7414a526ba494d44a2553ae040047304402201029941a2e17571bc1eb3a8b7da6c67b8db536539e49905e48b73c45403260fe022014091ca29407f1119e71c726c790f380ef930d0ba1e467085a5c7d4fa76f212c014730440220089dbcb652416f09c021f48029ff1d672151680617c54e4f4354d225b26ff9c802205b42f798db891d80b4d5a721814b8599ff4909d95834801111a85526ef6effeb01695221026c8f72b9e63db63907115e65d4da86eaae595b22fdc85ec75301bb4adbf203582103806535be3e3920e5eedee92de5714188fd6a784f2bf7b04f87de0b9c3ae1ecdb21024b23bfdce2afcae7e28c42f7f79aa100f22931712c52d7414a526ba494d44a2553ae0400483045022100c5ad51d1b27925e547f34720fe191501b550b37c2c998124af9495f3f5bcc36a022078d6f7666563de64efee82f90ca9ed7a24c70f7adc5f3fa09528b2819cdbd6cb0147304402203a62613ebef8623cbc0912dae1b6bef04247801d7c5e594c3d67047bd30db98d022010e7bb9be6f86c3d494704e8a8d78a61076c168aeca79bbcae6a0ce5cee5e2cd01695221026c8f72b9e63db63907115e65d4da86eaae595b22fdc85ec75301bb4adbf203582103806535be3e3920e5eedee92de5714188fd6a784f2bf7b04f87de0b9c3ae1ecdb21024b23bfdce2afcae7e28c42f7f79aa100f22931712c52d7414a526ba494d44a2553ae0400483045022100fe72d2fc13fc8e53f58d668d00fab77039356de8c47c6645a62943131f3c1fbb022006280bb5b8b06acdf3ffe410e8bc0b44caf368165c296b0839dc9066c12a93bb0147304402201bef48790754d3c52e33abf7b66abb8c2baccfca22bb4a6c2860b88697ad11270220748ef59f83cfa3b1276c3d26ca5e700c52962886a81340bfe5d1f88edc55d01c01695221026c8f72b9e63db63907115e65d4da86eaae595b22fdc85ec75301bb4adbf203582103806535be3e3920e5eedee92de5714188fd6a784f2bf7b04f87de0b9c3ae1ecdb21024b23bfdce2afcae7e28c42f7f79aa100f22931712c52d7414a526ba494d44a2553ae040047304402203268b24d8f69d0504b863104925461066da002b90fef9bff9b03c9984cf008a90220091a791693ccae73778bd566a627fb89e69e04bc5214e47132d7c0c951ea69fb01483045022100a93838946b4b884a558747f67b5122e25dbe02533fe51e076699a6371708735d022017e979986f066c03cb0e37f7e5caa72eda12cbf851891252bfe6f988354dd9a101695221026c8f72b9e63db63907115e65d4da86eaae595b22fdc85ec75301bb4adbf203582103806535be3e3920e5eedee92de5714188fd6a784f2bf7b04f87de0b9c3ae1ecdb21024b23bfdce2afcae7e28c42f7f79aa100f22931712c52d7414a526ba494d44a2553ae00000000", "vin": [{"txinwitness": ["", "3045022100ad46d26a47241c6f0d76399cc6bb989a2431f1cd2b34f0ceb6ce6fac7a7434cc022074d1871aee1b6baecde1916f7659858ce5b3482e2c4a54470743db46ae95030401", "3045022100a36acfc4a96bf04a85a13dd02e7f3de37ae10380997b7413e3e14617b3f9a5af02200990a1f580f346d3a85ecab49bd214c27de33f1a67bb950ecd3e33958dd9883101", "5221026c8f72b9e63db63907115e65d4da86eaae595b22fdc85ec75301bb4adbf203582103806535be3e3920e5eedee92de5714188fd6a784f2bf7b04f87de0b9c3ae1ecdb21024b23bfdce2afcae7e28c42f7f79aa100f22931712c52d7414a526ba494d44a2553ae"], "sequence": 4294967295, "scriptSig": {"hex": "220020bcf9f822194145acea0f3235f4107b5bf1a91b6b9f8489f63bf79ec29b360913", "asm": "0020bcf9f822194145acea0f3235f4107b5bf1a91b6b9f8489f63bf79ec29b360913"}, "vout": 0, "txid": "4b737f3b9eff27f0d5b43aa6986c4c3527492d3adba446f1e98c664431f55dbf"}, {"txinwitness": ["", "304402201029941a2e17571bc1eb3a8b7da6c67b8db536539e49905e48b73c45403260fe022014091ca29407f1119e71c726c790f380ef930d0ba1e467085a5c7d4fa76f212c01", "30440220089dbcb652416f09c021f48029ff1d672151680617c54e4f4354d225b26ff9c802205b42f798db891d80b4d5a721814b8599ff4909d95834801111a85526ef6effeb01", "5221026c8f72b9e63db63907115e65d4da86eaae595b22fdc85ec75301bb4adbf203582103806535be3e3920e5eedee92de5714188fd6a784f2bf7b04f87de0b9c3ae1ecdb21024b23bfdce2afcae7e28c42f7f79aa100f22931712c52d7414a526ba494d44a2553ae"], "sequence": 4294967295, "scriptSig": {"hex": "220020bcf9f822194145acea0f3235f4107b5bf1a91b6b9f8489f63bf79ec29b360913", "asm": "0020bcf9f822194145acea0f3235f4107b5bf1a91b6b9f8489f63bf79ec29b360913"}, "vout": 0, "txid": "906203f2fed43bab4dcbb5e230ed5a055064bcdf4c36f289594389a70bfc08e6"}, {"txinwitness": ["", "3045022100c5ad51d1b27925e547f34720fe191501b550b37c2c998124af9495f3f5bcc36a022078d6f7666563de64efee82f90ca9ed7a24c70f7adc5f3fa09528b2819cdbd6cb01", "304402203a62613ebef8623cbc0912dae1b6bef04247801d7c5e594c3d67047bd30db98d022010e7bb9be6f86c3d494704e8a8d78a61076c168aeca79bbcae6a0ce5cee5e2cd01", "5221026c8f72b9e63db63907115e65d4da86eaae595b22fdc85ec75301bb4adbf203582103806535be3e3920e5eedee92de5714188fd6a784f2bf7b04f87de0b9c3ae1ecdb21024b23bfdce2afcae7e28c42f7f79aa100f22931712c52d7414a526ba494d44a2553ae"], "sequence": 4294967295, "scriptSig": {"hex": "220020bcf9f822194145acea0f3235f4107b5bf1a91b6b9f8489f63bf79ec29b360913", "asm": "0020bcf9f822194145acea0f3235f4107b5bf1a91b6b9f8489f63bf79ec29b360913"}, "vout": 0, "txid": "c6cfed6b2590eb04d1403ca511329180d439f30f024315b5817a653af4b82e3a"}, {"txinwitness": ["", "3045022100fe72d2fc13fc8e53f58d668d00fab77039356de8c47c6645a62943131f3c1fbb022006280bb5b8b06acdf3ffe410e8bc0b44caf368165c296b0839dc9066c12a93bb01", "304402201bef48790754d3c52e33abf7b66abb8c2baccfca22bb4a6c2860b88697ad11270220748ef59f83cfa3b1276c3d26ca5e700c52962886a81340bfe5d1f88edc55d01c01", "5221026c8f72b9e63db63907115e65d4da86eaae595b22fdc85ec75301bb4adbf203582103806535be3e3920e5eedee92de5714188fd6a784f2bf7b04f87de0b9c3ae1ecdb21024b23bfdce2afcae7e28c42f7f79aa100f22931712c52d7414a526ba494d44a2553ae"], "sequence": 4294967295, "scriptSig": {"hex": "220020bcf9f822194145acea0f3235f4107b5bf1a91b6b9f8489f63bf79ec29b360913", "asm": "0020bcf9f822194145acea0f3235f4107b5bf1a91b6b9f8489f63bf79ec29b360913"}, "vout": 0, "txid": "cf57252b72659ba466ef75d27088cccbd4bec6b8616affd64c286bcd844df88a"}, {"txinwitness": ["", "304402203268b24d8f69d0504b863104925461066da002b90fef9bff9b03c9984cf008a90220091a791693ccae73778bd566a627fb89e69e04bc5214e47132d7c0c951ea69fb01", "3045022100a93838946b4b884a558747f67b5122e25dbe02533fe51e076699a6371708735d022017e979986f066c03cb0e37f7e5caa72eda12cbf851891252bfe6f988354dd9a101", "5221026c8f72b9e63db63907115e65d4da86eaae595b22fdc85ec75301bb4adbf203582103806535be3e3920e5eedee92de5714188fd6a784f2bf7b04f87de0b9c3ae1ecdb21024b23bfdce2afcae7e28c42f7f79aa100f22931712c52d7414a526ba494d44a2553ae"], "sequence": 4294967295, "scriptSig": {"hex": "220020bcf9f822194145acea0f3235f4107b5bf1a91b6b9f8489f63bf79ec29b360913", "asm": "0020bcf9f822194145acea0f3235f4107b5bf1a91b6b9f8489f63bf79ec29b360913"}, "vout": 0, "txid": "3e9409a0fbf07eff2b49acd58c9b9c890d3c51756b4813f77659bc809329bcb8"}], "txid": "d81edc5cb5acc41b52802eda8c8dc61bdf2fae93181a7f87324c8d1e8d379240", "blocktime": 1537871767, "version": 1, "confirmations": 11493, "time": 1537871767, "locktime": 0, "vsize": 771, "size": 1721}