{"hash": "a0fac2f1f6c5903da3c78403be2869fdc0f3924be02f1f98be5902eab27dec92", "blockhash": "0000000000000000001f76057863aec43deb6fa401d9628bb513d65a8098bfab", "vout": [{"scriptPubKey": {"reqSigs": 1, "hex": "00145f2a38128cce08959afda8c3c32ff95ad964ddf8", "addresses": ["bc1qtu4rsy5vecyftxha4rpuxtlettvkfh0c9uw253"], "asm": "0 5f2a38128cce08959afda8c3c32ff95ad964ddf8", "type": "witness_v0_keyhash"}, "value": 1.656e-05, "n": 0}, {"scriptPubKey": {"reqSigs": 1, "hex": "76a914197d414fe1fcdd7bc0af0ffcebc9b8786b756fd888ac", "addresses": ["13Kmwg7n7jAPuSMqTXTFYxZmLTRD59598c"], "asm": "OP_DUP OP_HASH160 197d414fe1fcdd7bc0af0ffcebc9b8786b756fd8 OP_EQUALVERIFY OP_CHECKSIG", "type": "pubkeyhash"}, "value": 0.002964, "n": 1}], "hex": "01000000000101438ca45a8f00313a6a5ef739b780b55050fe1ba70d2b4c7028ad3afd71cfe4300100000000ffffffff0278060000000000001600145f2a38128cce08959afda8c3c32ff95ad964ddf8d0850400000000001976a914197d414fe1fcdd7bc0af0ffcebc9b8786b756fd888ac02483045022100c3f67cc4b6c5791700ede4ed7febdd7c8ece69bc2bf739e62430fa8eb4298ddf02205395508639b8432254f4ed916cde3ad0bd8c13f9f121a15b0b828755096602ed0121032de6f5a194d95227581897d0035f565297a77b182e15705406d1ec9182b0739b00000000", "vin": [{"txinwitness": ["3045022100c3f67cc4b6c5791700ede4ed7febdd7c8ece69bc2bf739e62430fa8eb4298ddf02205395508639b8432254f4ed916cde3ad0bd8c13f9f121a15b0b828755096602ed01", "032de6f5a194d95227581897d0035f565297a77b182e15705406d1ec9182b0739b"], "sequence": 4294967295, "scriptSig": {"hex": "", "asm": ""}, "vout": 1, "txid": "30e4cf71fd3aad28704c2b0da71bfe5050b580b739f75e6a3a31008f5aa48c43"}], "txid": "d82069fb1d55ba91e222dd599bf1c35e410a7b9f145955505c42eb7b15208deb", "blocktime": 1537873891, "version": 1, "confirmations": 11478, "time": 1537873891, "locktime": 0, "vsize": 144, "size": 226}