{"hash": "9855a18587f1818ee105ca8b9761783ef8167223eb56811971cdaea259c87e89", "blockhash": "0000000000000000001f76057863aec43deb6fa401d9628bb513d65a8098bfab", "vout": [{"scriptPubKey": {"reqSigs": 1, "hex": "001498e30965d8789a06649166c2eea6e0a5d7e175c6", "addresses": ["bc1qnr3sjewc0zdqvey3vmpwafhq5ht7zawxn0jrgh"], "asm": "0 98e30965d8789a06649166c2eea6e0a5d7e175c6", "type": "witness_v0_keyhash"}, "value": 0.00265221, "n": 0}, {"scriptPubKey": {"reqSigs": 1, "hex": "a9143d24ca38c778016d4725ebfcddcec1e9c757482e87", "addresses": ["37GKDTK8SZJDPX2zW2AuBXF5jTmAhzbvx1"], "asm": "OP_HASH160 3d24ca38c778016d4725ebfcddcec1e9c757482e OP_EQUAL", "type": "scripthash"}, "value": 0.01114, "n": 1}], "hex": "0100000000010186aca48a983ee0efb37abbc99c645c74d5d71ce4cc9b1bfd966608f979081eb00000000000ffffffff02050c04000000000016001498e30965d8789a06649166c2eea6e0a5d7e175c690ff10000000000017a9143d24ca38c778016d4725ebfcddcec1e9c757482e870247304402205cc0d40d40c826daa57b6e987ec82be2e88dd07f9a78122ffca27c7168fb620202204b4c185e8b066de13c4a858b891362b6d3fa1e4488a2d8d13137dcf3c85498d0012102bff46c03af764931eb22b635d9cf3e2824fb398e74e8f6b8080979d5cd02b2f000000000", "vin": [{"txinwitness": ["304402205cc0d40d40c826daa57b6e987ec82be2e88dd07f9a78122ffca27c7168fb620202204b4c185e8b066de13c4a858b891362b6d3fa1e4488a2d8d13137dcf3c85498d001", "02bff46c03af764931eb22b635d9cf3e2824fb398e74e8f6b8080979d5cd02b2f0"], "sequence": 4294967295, "scriptSig": {"hex": "", "asm": ""}, "vout": 0, "txid": "b01e0879f9086696fd1b9bcce41cd7d5745c649cc9bb7ab3efe03e988aa4ac86"}], "txid": "d820955ba03f44a6dde246aa161c82deb27ae007ef4e40c93f0a042364f12434", "blocktime": 1537873891, "version": 1, "confirmations": 11478, "time": 1537873891, "locktime": 0, "vsize": 142, "size": 223}