{"hash": "10b1803dbb1e291165cfba17a802d074631416c912b345493e48bd371a89d6eb", "blockhash": "0000000000000000001f76057863aec43deb6fa401d9628bb513d65a8098bfab", "vout": [{"scriptPubKey": {"reqSigs": 1, "hex": "76a914368350fc3800143a4f2e6ba7f6ad7af004ed4dbd88ac", "addresses": ["15yEoNxvvWJ7ts7MYVc43kNmxh3UkWJeMi"], "asm": "OP_DUP OP_HASH160 368350fc3800143a4f2e6ba7f6ad7af004ed4dbd OP_EQUALVERIFY OP_CHECKSIG", "type": "pubkeyhash"}, "value": 0.0024646, "n": 0}, {"scriptPubKey": {"reqSigs": 1, "hex": "a914990a37e26efc11d28e3fa54af9f30073978567a287", "addresses": ["3FeDYsdF1gTptT1w2EBLK3MhieaZtx5EMp"], "asm": "OP_HASH160 990a37e26efc11d28e3fa54af9f30073978567a2 OP_EQUAL", "type": "scripthash"}, "value": 0.01000905, "n": 1}], "hex": "02000000000102372a49aaf8d81a6a2bc18503a4f7a2ca6ede743a98a77d086e91f1635ccf3f15080000001716001468330ee17a399f55a1d3546567579b70d6c69cf0feffffffda9c38785cf78cb13dea5bec0e2f44a4a35b61f56ac6d017e41021944698222801000000171600142caac328a218ce4f3f5ab39129fd104de70ff62bfeffffff02bcc20300000000001976a914368350fc3800143a4f2e6ba7f6ad7af004ed4dbd88acc9450f000000000017a914990a37e26efc11d28e3fa54af9f30073978567a28702483045022100d5c15f8e02d9c1323cbf67329dd690fefdb3a84c758d11f0f455da60fdea4e7e0220661941f728d4af1fd65daca90b11ee0eb1484ec0c80e6286a1b4c0db13038e3b01210207f2ae7923deaf378da354c4bf767466a071e938bdafbd1c0819a8b15a4f0fbe0247304402204011458c88767c37a3db8bc078ccdcd168674cb06045ff2b4eac90468e7d580502206d97b86acfe6a6d1394891d2829afb1143925c1af7e63ac66e8f6ee8465fe35b012102b8dbd2365ae15223002b03eb89a964e402cd855bf7be266ff11abaa6d5a9015814490800", "vin": [{"txinwitness": ["3045022100d5c15f8e02d9c1323cbf67329dd690fefdb3a84c758d11f0f455da60fdea4e7e0220661941f728d4af1fd65daca90b11ee0eb1484ec0c80e6286a1b4c0db13038e3b01", "0207f2ae7923deaf378da354c4bf767466a071e938bdafbd1c0819a8b15a4f0fbe"], "sequence": 4294967294, "scriptSig": {"hex": "16001468330ee17a399f55a1d3546567579b70d6c69cf0", "asm": "001468330ee17a399f55a1d3546567579b70d6c69cf0"}, "vout": 8, "txid": "153fcf5c63f1916e087da7983a74de6ecaa2f7a40385c12b6a1ad8f8aa492a37"}, {"txinwitness": ["304402204011458c88767c37a3db8bc078ccdcd168674cb06045ff2b4eac90468e7d580502206d97b86acfe6a6d1394891d2829afb1143925c1af7e63ac66e8f6ee8465fe35b01", "02b8dbd2365ae15223002b03eb89a964e402cd855bf7be266ff11abaa6d5a90158"], "sequence": 4294967294, "scriptSig": {"hex": "1600142caac328a218ce4f3f5ab39129fd104de70ff62b", "asm": "00142caac328a218ce4f3f5ab39129fd104de70ff62b"}, "vout": 1, "txid": "28229846942110e417d0c66af5615ba3a4442f0eec5bea3db18cf75c78389cda"}], "txid": "d821da8da442059b20187f14a45eabb82e0b4d354d378fe0dd82ec669566b1ce", "blocktime": 1537873891, "version": 2, "confirmations": 11478, "time": 1537873891, "locktime": 542996, "vsize": 259, "size": 421}