{"hash": "d827b7f65b921b661c249b8437069d4ac09e1050c029af769692866ab4766861", "blockhash": "00000000000000000018f53835495a110e01622372bf6ae95dc86f2b0ab887b0", "vout": [{"scriptPubKey": {"reqSigs": 1, "hex": "76a9140d105b7c0f85aaa943c1dce9997b4acb3e8baca688ac", "addresses": ["12C5P2M6e814afodc6RQfwtunFCBdTkAEZ"], "asm": "OP_DUP OP_HASH160 0d105b7c0f85aaa943c1dce9997b4acb3e8baca6 OP_EQUALVERIFY OP_CHECKSIG", "type": "pubkeyhash"}, "value": 0.05022197, "n": 0}], "hex": "0100000005f7292f8ddac7889d8b9006f595299841725e63b1af61e31c783c6e30fbad8a24a90000006a47304402205a7d4e0e8dc712017fc947153a9062625cdef29e612805fe0f8e79e1db7d34c302204f6061193738317635aa0e7781960c98e18e352ef08d8941fe079b9149e82d2301210372825964f942dd818e972ae95620981fa68f17f8e84c6e92982b09da56e0672bffffffffa0835de92281440f06833dfeef0affb4cef7cf9ad5b3f07226383efc75478538350000006a47304402205955099f864ea35e671fe348e91991ba450f9e37b9f99332faba94dc42b63d9502200640485b3e57887f8b511c0002c433bb0da44a0fabe8d736f09a01283650670701210372825964f942dd818e972ae95620981fa68f17f8e84c6e92982b09da56e0672bffffffff0b2a6d1fd06e3abf3cd9ed2b8f53a446257514385d4f067bd64156206a14ff6f1a0000006b483045022100de5b37cacc63c36854dc0204e48b33027750effbfe9eb30e28ee47295e5ecf5c02203d82b82115f977e3c048706904bbd239812c22919909c56932bcd28f681fcf3501210372825964f942dd818e972ae95620981fa68f17f8e84c6e92982b09da56e0672bffffffff82953eb1b65cad72b6c6f86bb31ce2ae97b4ad2fac35fb3e9615f0a644672888200000006b4830450221008e7f2365bc1f1958819c2f70d1a9988479c221d8ee7c933c719d88ab89448cbb0220187ec56cf242e7cf2929b1b8b0ae21ba8130295f025c979e0477fc7c6a7305aa01210372825964f942dd818e972ae95620981fa68f17f8e84c6e92982b09da56e0672bffffffff8a1b0dddfd06f54507e3adb4a52c865050043410c54d7d00ed0d04b1b81bbae1fe0000006a4730440220714133e952969aa7bcdaeb88799a1543961280b32ab1a6e500e4236d733400440220543e00197b45cf24baab25ef8d69090601654d60c31b4b567e5154566fd96f1301210372825964f942dd818e972ae95620981fa68f17f8e84c6e92982b09da56e0672bffffffff01f5a14c00000000001976a9140d105b7c0f85aaa943c1dce9997b4acb3e8baca688ac00000000", "vin": [{"sequence": 4294967295, "scriptSig": {"hex": "47304402205a7d4e0e8dc712017fc947153a9062625cdef29e612805fe0f8e79e1db7d34c302204f6061193738317635aa0e7781960c98e18e352ef08d8941fe079b9149e82d2301210372825964f942dd818e972ae95620981fa68f17f8e84c6e92982b09da56e0672b", "asm": "304402205a7d4e0e8dc712017fc947153a9062625cdef29e612805fe0f8e79e1db7d34c302204f6061193738317635aa0e7781960c98e18e352ef08d8941fe079b9149e82d23[ALL] 0372825964f942dd818e972ae95620981fa68f17f8e84c6e92982b09da56e0672b"}, "vout": 169, "txid": "248aadfb306e3c781ce361afb1635e7241982995f506908b9d88c7da8d2f29f7"}, {"sequence": 4294967295, "scriptSig": {"hex": "47304402205955099f864ea35e671fe348e91991ba450f9e37b9f99332faba94dc42b63d9502200640485b3e57887f8b511c0002c433bb0da44a0fabe8d736f09a01283650670701210372825964f942dd818e972ae95620981fa68f17f8e84c6e92982b09da56e0672b", "asm": "304402205955099f864ea35e671fe348e91991ba450f9e37b9f99332faba94dc42b63d9502200640485b3e57887f8b511c0002c433bb0da44a0fabe8d736f09a012836506707[ALL] 0372825964f942dd818e972ae95620981fa68f17f8e84c6e92982b09da56e0672b"}, "vout": 53, "txid": "38854775fc3e382672f0b3d59acff7ceb4ff0aeffe3d83060f448122e95d83a0"}, {"sequence": 4294967295, "scriptSig": {"hex": "483045022100de5b37cacc63c36854dc0204e48b33027750effbfe9eb30e28ee47295e5ecf5c02203d82b82115f977e3c048706904bbd239812c22919909c56932bcd28f681fcf3501210372825964f942dd818e972ae95620981fa68f17f8e84c6e92982b09da56e0672b", "asm": "3045022100de5b37cacc63c36854dc0204e48b33027750effbfe9eb30e28ee47295e5ecf5c02203d82b82115f977e3c048706904bbd239812c22919909c56932bcd28f681fcf35[ALL] 0372825964f942dd818e972ae95620981fa68f17f8e84c6e92982b09da56e0672b"}, "vout": 26, "txid": "6fff146a205641d67b064f5d3814752546a4538f2bedd93cbf3a6ed01f6d2a0b"}, {"sequence": 4294967295, "scriptSig": {"hex": "4830450221008e7f2365bc1f1958819c2f70d1a9988479c221d8ee7c933c719d88ab89448cbb0220187ec56cf242e7cf2929b1b8b0ae21ba8130295f025c979e0477fc7c6a7305aa01210372825964f942dd818e972ae95620981fa68f17f8e84c6e92982b09da56e0672b", "asm": "30450221008e7f2365bc1f1958819c2f70d1a9988479c221d8ee7c933c719d88ab89448cbb0220187ec56cf242e7cf2929b1b8b0ae21ba8130295f025c979e0477fc7c6a7305aa[ALL] 0372825964f942dd818e972ae95620981fa68f17f8e84c6e92982b09da56e0672b"}, "vout": 32, "txid": "88286744a6f015963efb35ac2fadb497aee21cb36bf8c6b672ad5cb6b13e9582"}, {"sequence": 4294967295, "scriptSig": {"hex": "4730440220714133e952969aa7bcdaeb88799a1543961280b32ab1a6e500e4236d733400440220543e00197b45cf24baab25ef8d69090601654d60c31b4b567e5154566fd96f1301210372825964f942dd818e972ae95620981fa68f17f8e84c6e92982b09da56e0672b", "asm": "30440220714133e952969aa7bcdaeb88799a1543961280b32ab1a6e500e4236d733400440220543e00197b45cf24baab25ef8d69090601654d60c31b4b567e5154566fd96f13[ALL] 0372825964f942dd818e972ae95620981fa68f17f8e84c6e92982b09da56e0672b"}, "vout": 254, "txid": "e1ba1bb8b1040ded007d4dc51034045050862ca5b4ade30745f506fddd0d1b8a"}], "txid": "d827b7f65b921b661c249b8437069d4ac09e1050c029af769692866ab4766861", "blocktime": 1537870928, "version": 1, "confirmations": 11514, "time": 1537870928, "locktime": 0, "vsize": 781, "size": 781}