{"hash": "d82a6e609b142af22bf117d3e03cadbaa995e2ac9e3e6725fc794e8ad3bfd0b2", "blockhash": "0000000000000000001f76057863aec43deb6fa401d9628bb513d65a8098bfab", "vout": [{"scriptPubKey": {"reqSigs": 1, "hex": "76a914788cfeb1f29948985a956b9b8e2f00d0eb1564f888ac", "addresses": ["1BzQzWzzUAsAVfphofVo53UPZiNPmAq94e"], "asm": "OP_DUP OP_HASH160 788cfeb1f29948985a956b9b8e2f00d0eb1564f8 OP_EQUALVERIFY OP_CHECKSIG", "type": "pubkeyhash"}, "value": 0.00040591, "n": 0}, {"scriptPubKey": {"reqSigs": 1, "hex": "76a91414f94311647381db306c83ba3ff502f57ed7ca5188ac", "addresses": ["12uu7s3m2XJF2DFNUUhzRr3Fh74hhGTwpo"], "asm": "OP_DUP OP_HASH160 14f94311647381db306c83ba3ff502f57ed7ca51 OP_EQUALVERIFY OP_CHECKSIG", "type": "pubkeyhash"}, "value": 0.00156256, "n": 1}], "hex": "01000000017015e975ccda223279b7d8d8a5b9fb7603e0d6d6f8ca7e25ce8f45591af6983b000000006a47304402203854ed65be37d271c10e934b7603c54f7faf9d6765a39130344f8c79ff092cde0220587d5f737f93b5f437166dc3c3585fddfa71d361ed0f8fa2db63f7fc067cb9d9012103eebfb5d1294920cbb4c5a9a04e4659bac6bce6b6f270e69a1f4d84a7a1be564fffffffff028f9e0000000000001976a914788cfeb1f29948985a956b9b8e2f00d0eb1564f888ac60620200000000001976a91414f94311647381db306c83ba3ff502f57ed7ca5188ac00000000", "vin": [{"sequence": 4294967295, "scriptSig": {"hex": "47304402203854ed65be37d271c10e934b7603c54f7faf9d6765a39130344f8c79ff092cde0220587d5f737f93b5f437166dc3c3585fddfa71d361ed0f8fa2db63f7fc067cb9d9012103eebfb5d1294920cbb4c5a9a04e4659bac6bce6b6f270e69a1f4d84a7a1be564f", "asm": "304402203854ed65be37d271c10e934b7603c54f7faf9d6765a39130344f8c79ff092cde0220587d5f737f93b5f437166dc3c3585fddfa71d361ed0f8fa2db63f7fc067cb9d9[ALL] 03eebfb5d1294920cbb4c5a9a04e4659bac6bce6b6f270e69a1f4d84a7a1be564f"}, "vout": 0, "txid": "3b98f61a59458fce257ecaf8d6d6e00376fbb9a5d8d8b7793222dacc75e91570"}], "txid": "d82a6e609b142af22bf117d3e03cadbaa995e2ac9e3e6725fc794e8ad3bfd0b2", "blocktime": 1537873891, "version": 1, "confirmations": 11478, "time": 1537873891, "locktime": 0, "vsize": 225, "size": 225}