{"hash": "540c8f2449456e6d8f529f744765b06c780aa5e272b30a5c258a1db88d64a5eb", "blockhash": "0000000000000000001e0dab787dd257d1dbfcb92a98c2207d5e1078be1f4165", "vout": [{"scriptPubKey": {"reqSigs": 1, "hex": "76a914ec5387fcbd999066087d65d952818eb5d086ee2588ac", "addresses": ["1NYaY83oNEukjQuWFSrfhbkrByUKsA6HCY"], "asm": "OP_DUP OP_HASH160 ec5387fcbd999066087d65d952818eb5d086ee25 OP_EQUALVERIFY OP_CHECKSIG", "type": "pubkeyhash"}, "value": 4e-05, "n": 0}, {"scriptPubKey": {"reqSigs": 1, "hex": "a91449d7e96499e76d96ef877a2fcb98823c8bccba2187", "addresses": ["38RTuMXR3rjgmqC2TwiJHrCLzc9nbGoNw7"], "asm": "OP_HASH160 49d7e96499e76d96ef877a2fcb98823c8bccba21 OP_EQUAL", "type": "scripthash"}, "value": 0.01067433, "n": 1}], "hex": "010000000001011c21ce7130bbc4c0760be02757127b0f3076467f94e30d355b2c1c578624301501000000232200202a9a1aa43dd52fca361d638a9bb1c7c7a7b32bed598a04104268b8ecbdbfe96fffffffff02a00f0000000000001976a914ec5387fcbd999066087d65d952818eb5d086ee2588aca94910000000000017a91449d7e96499e76d96ef877a2fcb98823c8bccba21870400473044022073ed62928a3140abb3530ce9b1e9e8680ecdfb98137a1ea86165bca791bd1a5302205f605e1e4e39a9a0946e993a2a237e22c0f83688ccd36f8eceecc263b845ba4501473044022060750f13bb2610510ae92d40e5a8be0096c7d567d8b92698a364c65d3577ecbc0220277a85081b2946b445771f70e36e210879b97ca74ae8d059eeff7647dca7fbf50147522103ea39afa13bfc0b16775c1ffdd58dbb69a77441d8211cfd208f16ac7437c451312103338f346cab6ba87fe940591a03ac234be06520c5ab386d4b6632e8eef0d0db7652ae00000000", "vin": [{"txinwitness": ["", "3044022073ed62928a3140abb3530ce9b1e9e8680ecdfb98137a1ea86165bca791bd1a5302205f605e1e4e39a9a0946e993a2a237e22c0f83688ccd36f8eceecc263b845ba4501", "3044022060750f13bb2610510ae92d40e5a8be0096c7d567d8b92698a364c65d3577ecbc0220277a85081b2946b445771f70e36e210879b97ca74ae8d059eeff7647dca7fbf501", "522103ea39afa13bfc0b16775c1ffdd58dbb69a77441d8211cfd208f16ac7437c451312103338f346cab6ba87fe940591a03ac234be06520c5ab386d4b6632e8eef0d0db7652ae"], "sequence": 4294967295, "scriptSig": {"hex": "2200202a9a1aa43dd52fca361d638a9bb1c7c7a7b32bed598a04104268b8ecbdbfe96f", "asm": "00202a9a1aa43dd52fca361d638a9bb1c7c7a7b32bed598a04104268b8ecbdbfe96f"}, "vout": 1, "txid": "15302486571c2c5b350de3947f4676300f7b125727e00b76c0c4bb3071ce211c"}], "txid": "d82c4415ba15bc43c0c8b830366a3d23bd8fdf36c64d1c8435162a533d66b64b", "blocktime": 1537872475, "version": 1, "confirmations": 11487, "time": 1537872475, "locktime": 0, "vsize": 207, "size": 372}