{"hash": "d8342156d1b6773f60b79e2ee0352fd5cd7cad93e93233387611ede68d56c3c5", "blockhash": "00000000000000000024a2167bbff67b0be802c0b01cdd79e6331c2be6459f87", "vout": [{"scriptPubKey": {"reqSigs": 1, "hex": "a914958e42126877c3278531c66c801092eab6f5593887", "addresses": ["3FKo2PhGbKuQL28oWyCTSV3wVPnj518G7s"], "asm": "OP_HASH160 958e42126877c3278531c66c801092eab6f55938 OP_EQUAL", "type": "scripthash"}, "value": 0.00284712, "n": 0}, {"scriptPubKey": {"reqSigs": 1, "hex": "76a914f290ec99098827b4dd61ebb9224ded305e2528f888ac", "addresses": ["1P7a8w9gJe6AU5w4nhCiV1Nwf8GM3dkjcC"], "asm": "OP_DUP OP_HASH160 f290ec99098827b4dd61ebb9224ded305e2528f8 OP_EQUALVERIFY OP_CHECKSIG", "type": "pubkeyhash"}, "value": 0.11775428, "n": 1}], "hex": "0100000001f6113d251282616ab1ec097f2df0005739e44bbceef5ffbe62f1bb6bfe64b410010000006b483045022100a1a6def2595045a3b624777af4fcee0c8f36524832acf3599402859291cab04602204cdc8f46cf8bb93e07e6d6c6e61ebd8a2c77c85c9fc46919ab04765ac39992c4012102c0bf42dea3941bc9ba121041c6b29d4784a88415f6f8ff9334387388be3fc780ffffffff02285804000000000017a914958e42126877c3278531c66c801092eab6f5593887c4adb300000000001976a914f290ec99098827b4dd61ebb9224ded305e2528f888ac00000000", "vin": [{"sequence": 4294967295, "scriptSig": {"hex": "483045022100a1a6def2595045a3b624777af4fcee0c8f36524832acf3599402859291cab04602204cdc8f46cf8bb93e07e6d6c6e61ebd8a2c77c85c9fc46919ab04765ac39992c4012102c0bf42dea3941bc9ba121041c6b29d4784a88415f6f8ff9334387388be3fc780", "asm": "3045022100a1a6def2595045a3b624777af4fcee0c8f36524832acf3599402859291cab04602204cdc8f46cf8bb93e07e6d6c6e61ebd8a2c77c85c9fc46919ab04765ac39992c4[ALL] 02c0bf42dea3941bc9ba121041c6b29d4784a88415f6f8ff9334387388be3fc780"}, "vout": 1, "txid": "10b464fe6bbbf162befff5eebc4be4395700f02d7f09ecb16a618212253d11f6"}], "txid": "d8342156d1b6773f60b79e2ee0352fd5cd7cad93e93233387611ede68d56c3c5", "blocktime": 1537870564, "version": 1, "confirmations": 11515, "time": 1537870564, "locktime": 0, "vsize": 224, "size": 224}