{"hash": "d8340330e330782a27a87d1f93dc3b4da0c70435f193d686edfa1154d6060d28", "blockhash": "0000000000000000001e0dab787dd257d1dbfcb92a98c2207d5e1078be1f4165", "vout": [{"scriptPubKey": {"reqSigs": 1, "hex": "76a9149caabf8725441688d8205bd56fdcd47d01e0143e88ac", "addresses": ["1FHNxiVcw6ncQCXiVLFBPNVid5qXyz4u2R"], "asm": "OP_DUP OP_HASH160 9caabf8725441688d8205bd56fdcd47d01e0143e OP_EQUALVERIFY OP_CHECKSIG", "type": "pubkeyhash"}, "value": 0.02923506, "n": 0}], "hex": "0100000002a8c580c82b1e5e96c6d7e937f5fe4023735f757d041051bba043df07a52e3f59000000006b483045022100f6b57136842e0b126f1845ad3842d1fd9669a98a2c748114962e032e4829927e02203283e239222468f5e0c59cd66c85a6ea3bd3d7091fdb7c2793e8f1e4e8189c770121037ff6d8bdb4875e1a488436817476ff2ca644f9198e22ed58a27e2ef9be1613ccffffffffef9b4ac102aa28ccd7dc0577c514b51e24bb2ae86e8edc9f2fa3d073da1c4a661a0000006b483045022100d8d31cb4104d797911b022b9ef91afb78a116ad44667ac632067c98f59800874022073e4fc692c642e21781e893ea9acdb8818d5aec4fe1dec9429433bf02a2f66ad012102b7b1c9abb4714074d70139ec5f60f2280b5815c2745962448e110e8568a5cd22ffffffff01f29b2c00000000001976a9149caabf8725441688d8205bd56fdcd47d01e0143e88ac00000000", "vin": [{"sequence": 4294967295, "scriptSig": {"hex": "483045022100f6b57136842e0b126f1845ad3842d1fd9669a98a2c748114962e032e4829927e02203283e239222468f5e0c59cd66c85a6ea3bd3d7091fdb7c2793e8f1e4e8189c770121037ff6d8bdb4875e1a488436817476ff2ca644f9198e22ed58a27e2ef9be1613cc", "asm": "3045022100f6b57136842e0b126f1845ad3842d1fd9669a98a2c748114962e032e4829927e02203283e239222468f5e0c59cd66c85a6ea3bd3d7091fdb7c2793e8f1e4e8189c77[ALL] 037ff6d8bdb4875e1a488436817476ff2ca644f9198e22ed58a27e2ef9be1613cc"}, "vout": 0, "txid": "593f2ea507df43a0bb5110047d755f732340fef537e9d7c6965e1e2bc880c5a8"}, {"sequence": 4294967295, "scriptSig": {"hex": "483045022100d8d31cb4104d797911b022b9ef91afb78a116ad44667ac632067c98f59800874022073e4fc692c642e21781e893ea9acdb8818d5aec4fe1dec9429433bf02a2f66ad012102b7b1c9abb4714074d70139ec5f60f2280b5815c2745962448e110e8568a5cd22", "asm": "3045022100d8d31cb4104d797911b022b9ef91afb78a116ad44667ac632067c98f59800874022073e4fc692c642e21781e893ea9acdb8818d5aec4fe1dec9429433bf02a2f66ad[ALL] 02b7b1c9abb4714074d70139ec5f60f2280b5815c2745962448e110e8568a5cd22"}, "vout": 26, "txid": "664a1cda73d0a32f9fdc8e6ee82abb241eb514c57705dcd7cc28aa02c14a9bef"}], "txid": "d8340330e330782a27a87d1f93dc3b4da0c70435f193d686edfa1154d6060d28", "blocktime": 1537872475, "version": 1, "confirmations": 11487, "time": 1537872475, "locktime": 0, "vsize": 340, "size": 340}