{"hash": "d84353754889466c753f3c904234ca3928cad642d59a34e4f7a1398b1be27358", "blockhash": "0000000000000000001e0dab787dd257d1dbfcb92a98c2207d5e1078be1f4165", "vout": [{"scriptPubKey": {"reqSigs": 1, "hex": "76a9143c0bd5bd83191944f9741b16a5ebb3a6cf6a5e4488ac", "addresses": ["16UVipFch6Fb7AByBoZ4ome1879zzoc6fL"], "asm": "OP_DUP OP_HASH160 3c0bd5bd83191944f9741b16a5ebb3a6cf6a5e44 OP_EQUALVERIFY OP_CHECKSIG", "type": "pubkeyhash"}, "value": 2.9325564, "n": 0}, {"scriptPubKey": {"reqSigs": 1, "hex": "76a9146d636513b04fd5a15c92ce3e0507ea93d6d8167588ac", "addresses": ["1AyPiz3U8Xbvu9GD5wqnKwt6VX15ysXdV3"], "asm": "OP_DUP OP_HASH160 6d636513b04fd5a15c92ce3e0507ea93d6d81675 OP_EQUALVERIFY OP_CHECKSIG", "type": "pubkeyhash"}, "value": 0.001339, "n": 1}], "hex": "0200000001053e41073282688c3b85b22bad448e37dfde7c29d6bd103c1f766c5aa83c1a0b020000006b48304502210094c6dcedcb46a5503ede75b94409ffb55b97dd8f1eea21dd799b9cc9b6315eda02201b8f88d42026a1270655f69bfdff29f7031be5bb6609c55815097ec4b456b086012102eed09682656a489eea0d35cdd3041fbae6e16e96eb285d8f5a2911e272d6e117ffffffff02d8b97a11000000001976a9143c0bd5bd83191944f9741b16a5ebb3a6cf6a5e4488ac0c0b0200000000001976a9146d636513b04fd5a15c92ce3e0507ea93d6d8167588ac00000000", "vin": [{"sequence": 4294967295, "scriptSig": {"hex": "48304502210094c6dcedcb46a5503ede75b94409ffb55b97dd8f1eea21dd799b9cc9b6315eda02201b8f88d42026a1270655f69bfdff29f7031be5bb6609c55815097ec4b456b086012102eed09682656a489eea0d35cdd3041fbae6e16e96eb285d8f5a2911e272d6e117", "asm": "304502210094c6dcedcb46a5503ede75b94409ffb55b97dd8f1eea21dd799b9cc9b6315eda02201b8f88d42026a1270655f69bfdff29f7031be5bb6609c55815097ec4b456b086[ALL] 02eed09682656a489eea0d35cdd3041fbae6e16e96eb285d8f5a2911e272d6e117"}, "vout": 2, "txid": "0b1a3ca85a6c761f3c10bdd6297cdedf378e44ad2bb2853b8c68823207413e05"}], "txid": "d84353754889466c753f3c904234ca3928cad642d59a34e4f7a1398b1be27358", "blocktime": 1537872475, "version": 2, "confirmations": 11486, "time": 1537872475, "locktime": 0, "vsize": 226, "size": 226}