{"hash": "8cb07866caa20696c0cd9843b7cee0f4c0e9176054d2e0161811664422e5ffc0", "blockhash": "0000000000000000001f76057863aec43deb6fa401d9628bb513d65a8098bfab", "vout": [{"scriptPubKey": {"reqSigs": 1, "hex": "76a91401de71acbae92a69ad3871aba5146422b02fd0e088ac", "addresses": ["1At9sjtWqbYiu8qGwfu21wkQBSVhdrHov"], "asm": "OP_DUP OP_HASH160 01de71acbae92a69ad3871aba5146422b02fd0e0 OP_EQUALVERIFY OP_CHECKSIG", "type": "pubkeyhash"}, "value": 0.15, "n": 0}, {"scriptPubKey": {"reqSigs": 1, "hex": "a914a5009ab5fa20de04fa06bd6ee99ee3d2193c242d87", "addresses": ["3GjU9BjxYCe68GVHFaM3UDqdZDMnrErWSE"], "asm": "OP_HASH160 a5009ab5fa20de04fa06bd6ee99ee3d2193c242d OP_EQUAL", "type": "scripthash"}, "value": 0.002, "n": 1}, {"scriptPubKey": {"reqSigs": 1, "hex": "76a914d9d40f60002d79cfcf988f5aeb53d3039fb0b25688ac", "addresses": ["1LrmfpU2swKTe1KDV6aZzV7sNgUAnZWVAo"], "asm": "OP_DUP OP_HASH160 d9d40f60002d79cfcf988f5aeb53d3039fb0b256 OP_EQUALVERIFY OP_CHECKSIG", "type": "pubkeyhash"}, "value": 0.00261045, "n": 2}, {"scriptPubKey": {"reqSigs": 1, "hex": "a914fbc539319880f51c8ee325ec9c9fcc0ba20de34987", "addresses": ["3QeFo1tcuEBjrUZyV4koQw5vKQ48TGYEvn"], "asm": "OP_HASH160 fbc539319880f51c8ee325ec9c9fcc0ba20de349 OP_EQUAL", "type": "scripthash"}, "value": 0.05679305, "n": 3}, {"scriptPubKey": {"reqSigs": 1, "hex": "76a91471ca148792f0fb51d83f72f3cc42710e8072b58988ac", "addresses": ["1BNfSTP742XDsxBYXoigP3cGMe3d7rcnzr"], "asm": "OP_DUP OP_HASH160 71ca148792f0fb51d83f72f3cc42710e8072b589 OP_EQUALVERIFY OP_CHECKSIG", "type": "pubkeyhash"}, "value": 0.09653912, "n": 4}, {"scriptPubKey": {"reqSigs": 1, "hex": "a9149d2a3aeca05e06edaded0775556cf1bcbed6598c87", "addresses": ["3G22bs87LxMEdULotq9V7cRB42pwpPirXG"], "asm": "OP_HASH160 9d2a3aeca05e06edaded0775556cf1bcbed6598c OP_EQUAL", "type": "scripthash"}, "value": 0.017011, "n": 5}, {"scriptPubKey": {"reqSigs": 1, "hex": "a9148b0e5fa1074fbdb10b65834ff25efb995c97810287", "addresses": ["3ENH4u9s95z2VKwjGpwgJuMDCX5hQE4QDu"], "asm": "OP_HASH160 8b0e5fa1074fbdb10b65834ff25efb995c978102 OP_EQUAL", "type": "scripthash"}, "value": 0.00347462, "n": 6}, {"scriptPubKey": {"reqSigs": 1, "hex": "a914226c852f77e3f8ac3c498962a216a58dc306e33887", "addresses": ["34q2uBiP5ZqVrHgjSJXPgHCH1o9VTVpNJZ"], "asm": "OP_HASH160 226c852f77e3f8ac3c498962a216a58dc306e338 OP_EQUAL", "type": "scripthash"}, "value": 0.00709286, "n": 7}, {"scriptPubKey": {"reqSigs": 1, "hex": "a914c32a66f950bfac3c63526860198f292cdffc521087", "addresses": ["3KUxV7LbxkQwyqxdbEBGvfKDsmofNNaBRc"], "asm": "OP_HASH160 c32a66f950bfac3c63526860198f292cdffc5210 OP_EQUAL", "type": "scripthash"}, "value": 0.00248821, "n": 8}, {"scriptPubKey": {"reqSigs": 1, "hex": "a914ed40e47bbfb27c4f37f3c6200b9ffee9e66d652187", "addresses": ["3PKVopRT15L1WFALRgX2s6qMWAxyxJ9kk3"], "asm": "OP_HASH160 ed40e47bbfb27c4f37f3c6200b9ffee9e66d6521 OP_EQUAL", "type": "scripthash"}, "value": 0.00457772, "n": 9}, {"scriptPubKey": {"reqSigs": 1, "hex": "76a91469505f594cf4ba7da053977d2236cfcedc1e7c8588ac", "addresses": ["1AbrEX4mu19wDuGqo6VfdQYGANsGNb2i4Y"], "asm": "OP_DUP OP_HASH160 69505f594cf4ba7da053977d2236cfcedc1e7c85 OP_EQUALVERIFY OP_CHECKSIG", "type": "pubkeyhash"}, "value": 0.0551465, "n": 10}, {"scriptPubKey": {"reqSigs": 1, "hex": "a914f92555b7489860332d7febc8c942b590effd04e987", "addresses": ["3QQNuNvhuTqceQv557p1wF6KybDAR2wBRC"], "asm": "OP_HASH160 f92555b7489860332d7febc8c942b590effd04e9 OP_EQUAL", "type": "scripthash"}, "value": 0.00225649, "n": 11}, {"scriptPubKey": {"reqSigs": 1, "hex": "a914beea95942d77fda05ee0f503b85c5956964f975787", "addresses": ["3K6VLCCYfQQCFduYJbyefVLPK1qu1tkHS1"], "asm": "OP_HASH160 beea95942d77fda05ee0f503b85c5956964f9757 OP_EQUAL", "type": "scripthash"}, "value": 18.96981018, "n": 12}, {"scriptPubKey": {"reqSigs": 1, "hex": "a914e4181e13c22bb067db75dda60be27794a4662f9587", "addresses": ["3NV4szajHQh4wbZWhffEUxnTB8CTsL5PXo"], "asm": "OP_HASH160 e4181e13c22bb067db75dda60be27794a4662f95 OP_EQUAL", "type": "scripthash"}, "value": 0.00327602, "n": 13}, {"scriptPubKey": {"reqSigs": 1, "hex": "a91422e493f77c965c26c812228b5520214bd9901d3987", "addresses": ["34sWiwgEqd2394HW5ygNFYwP44ToohhG6x"], "asm": "OP_HASH160 22e493f77c965c26c812228b5520214bd9901d39 OP_EQUAL", "type": "scripthash"}, "value": 0.00347128, "n": 14}, {"scriptPubKey": {"reqSigs": 1, "hex": "a9143604c99b8d0be8f669274c004ecb87fceed9da4c87", "addresses": ["36ce9Ycz815GAjsgxE7QrT9mBEDmEe9aaj"], "asm": "OP_HASH160 3604c99b8d0be8f669274c004ecb87fceed9da4c OP_EQUAL", "type": "scripthash"}, "value": 0.00215081, "n": 15}, {"scriptPubKey": {"reqSigs": 1, "hex": "a914e584b1c0b5982617b43297d5f2bbd43baa9ac3a987", "addresses": ["3NcbdEk6haiS9KAi56unHkSsKcVQ6x7Xo7"], "asm": "OP_HASH160 e584b1c0b5982617b43297d5f2bbd43baa9ac3a9 OP_EQUAL", "type": "scripthash"}, "value": 0.00884286, "n": 16}, {"scriptPubKey": {"reqSigs": 1, "hex": "a9147d6a0588957d59248e73c864d21a4f6664fd30c687", "addresses": ["3D89Q2u4hL1gbG19GrnfSBCJNHap2gqigQ"], "asm": "OP_HASH160 7d6a0588957d59248e73c864d21a4f6664fd30c6 OP_EQUAL", "type": "scripthash"}, "value": 0.0038656, "n": 17}, {"scriptPubKey": {"reqSigs": 1, "hex": "a914c49c6672252b90258fda0bc9b13130dbdb1545f087", "addresses": ["3Kcbj1y3fnqpWSUL9Q6dNjauoLXVb3Yvou"], "asm": "OP_HASH160 c49c6672252b90258fda0bc9b13130dbdb1545f0 OP_EQUAL", "type": "scripthash"}, "value": 0.00281126, "n": 18}, {"scriptPubKey": {"reqSigs": 1, "hex": "76a91439890ccce4f203f2100983d43a568afc0be6ca7f88ac", "addresses": ["16FDhLTCG9UJhRoV5T9sGUmYA6C3BDK3wC"], "asm": "OP_DUP OP_HASH160 39890ccce4f203f2100983d43a568afc0be6ca7f OP_EQUALVERIFY OP_CHECKSIG", "type": "pubkeyhash"}, "value": 0.00812597, "n": 19}, {"scriptPubKey": {"reqSigs": 1, "hex": "a9141f10f8970a55b47406cadbf5252d2b31da446c8f87", "addresses": ["34XHCfEfARSbAh9rZgA8sqSGPRkEmBpyJP"], "asm": "OP_HASH160 1f10f8970a55b47406cadbf5252d2b31da446c8f OP_EQUAL", "type": "scripthash"}, "value": 0.02077134, "n": 20}, {"scriptPubKey": {"reqSigs": 1, "hex": "a914028b932a0a8342d0d00a6602d3a37714a08fa4ca87", "addresses": ["31vUUkxapnrjhCHR8jDgfq3teR25YhJuU4"], "asm": "OP_HASH160 028b932a0a8342d0d00a6602d3a37714a08fa4ca OP_EQUAL", "type": "scripthash"}, "value": 0.0087394, "n": 21}, {"scriptPubKey": {"reqSigs": 1, "hex": "a914d83d601d92080efea2f85caac332a896a693063d87", "addresses": ["3MQPQRKvaFdVLZ17gNf5qs3kxiuw6baf7i"], "asm": "OP_HASH160 d83d601d92080efea2f85caac332a896a693063d OP_EQUAL", "type": "scripthash"}, "value": 0.0032, "n": 22}, {"scriptPubKey": {"reqSigs": 1, "hex": "a914ff2b36cd8417c223e96ffaeecd674b8de2f1414b87", "addresses": ["3QxE12Wz1PN5tsjENin36tLJbHw4mm2AyW"], "asm": "OP_HASH160 ff2b36cd8417c223e96ffaeecd674b8de2f1414b OP_EQUAL", "type": "scripthash"}, "value": 0.00265699, "n": 23}, {"scriptPubKey": {"reqSigs": 1, "hex": "76a91459541425f08f2bffb87f8f9ba8bca23d9ffa6dec88ac", "addresses": ["199KrxtngGm6KprjVjSaZt9ssakR8oG3ES"], "asm": "OP_DUP OP_HASH160 59541425f08f2bffb87f8f9ba8bca23d9ffa6dec OP_EQUALVERIFY OP_CHECKSIG", "type": "pubkeyhash"}, "value": 0.00156055, "n": 24}, {"scriptPubKey": {"reqSigs": 1, "hex": "a914802c710d9e73caf0e149e4f1943dbd30f76ff2aa87", "addresses": ["3DNjexNeGQyiUKopf3J2MxAD916j2tXkYH"], "asm": "OP_HASH160 802c710d9e73caf0e149e4f1943dbd30f76ff2aa OP_EQUAL", "type": "scripthash"}, "value": 0.04616072, "n": 25}, {"scriptPubKey": {"reqSigs": 1, "hex": "a9143de76defc6113dee2a5e2b5a658e99ac7b58e24087", "addresses": ["37LLPF9kBXfS7xoaKgaazW2jaNJbRHRdik"], "asm": "OP_HASH160 3de76defc6113dee2a5e2b5a658e99ac7b58e240 OP_EQUAL", "type": "scripthash"}, "value": 0.0058378, "n": 26}, {"scriptPubKey": {"reqSigs": 1, "hex": "a9148226d500d81fcbcde4f10bccff27b1f184cd775287", "addresses": ["3DZCHaZUUSBjGF43JDAKi1qKwMyu3fVbmF"], "asm": "OP_HASH160 8226d500d81fcbcde4f10bccff27b1f184cd7752 OP_EQUAL", "type": "scripthash"}, "value": 0.00182023, "n": 27}], "hex": "020000000001015134e6b126a160e35a88fcc9e704ee382d5a944c099c138ec97acc18c1791cc01100000017160014feb6b70be9f044a0c1eba0e9ec7f5e32e7d1e9cafeffffff1cc0e1e400000000001976a91401de71acbae92a69ad3871aba5146422b02fd0e088ac400d03000000000017a914a5009ab5fa20de04fa06bd6ee99ee3d2193c242d87b5fb0300000000001976a914d9d40f60002d79cfcf988f5aeb53d3039fb0b25688acc9a856000000000017a914fbc539319880f51c8ee325ec9c9fcc0ba20de34987984e9300000000001976a91471ca148792f0fb51d83f72f3cc42710e8072b58988acecf419000000000017a9149d2a3aeca05e06edaded0775556cf1bcbed6598c87464d05000000000017a9148b0e5fa1074fbdb10b65834ff25efb995c97810287a6d20a000000000017a914226c852f77e3f8ac3c498962a216a58dc306e33887f5cb03000000000017a914c32a66f950bfac3c63526860198f292cdffc5210872cfc06000000000017a914ed40e47bbfb27c4f37f3c6200b9ffee9e66d6521879a255400000000001976a91469505f594cf4ba7da053977d2236cfcedc1e7c8588ac717103000000000017a914f92555b7489860332d7febc8c942b590effd04e9871aa211710000000017a914beea95942d77fda05ee0f503b85c5956964f975787b2ff04000000000017a914e4181e13c22bb067db75dda60be27794a4662f9587f84b05000000000017a91422e493f77c965c26c812228b5520214bd9901d3987294803000000000017a9143604c99b8d0be8f669274c004ecb87fceed9da4c873e7e0d000000000017a914e584b1c0b5982617b43297d5f2bbd43baa9ac3a98700e605000000000017a9147d6a0588957d59248e73c864d21a4f6664fd30c687264a04000000000017a914c49c6672252b90258fda0bc9b13130dbdb1545f08735660c00000000001976a91439890ccce4f203f2100983d43a568afc0be6ca7f88acceb11f000000000017a9141f10f8970a55b47406cadbf5252d2b31da446c8f87d4550d000000000017a914028b932a0a8342d0d00a6602d3a37714a08fa4ca8700e204000000000017a914d83d601d92080efea2f85caac332a896a693063d87e30d04000000000017a914ff2b36cd8417c223e96ffaeecd674b8de2f1414b8797610200000000001976a91459541425f08f2bffb87f8f9ba8bca23d9ffa6dec88ac886f46000000000017a914802c710d9e73caf0e149e4f1943dbd30f76ff2aa8764e808000000000017a9143de76defc6113dee2a5e2b5a658e99ac7b58e2408707c702000000000017a9148226d500d81fcbcde4f10bccff27b1f184cd77528702483045022100d318b8a848f45f6e9ab29e49184abfd1b275442348f5c1b35d5eb146eed99038022052b6221ed991cfc489ccd778a4d7ffa7ba4724be914aaafabb80cf70afe3031001210339e18a5795726a773a57308c5be7bcd4b3dbc736ece1844938600674b53f716014490800", "vin": [{"txinwitness": ["3045022100d318b8a848f45f6e9ab29e49184abfd1b275442348f5c1b35d5eb146eed99038022052b6221ed991cfc489ccd778a4d7ffa7ba4724be914aaafabb80cf70afe3031001", "0339e18a5795726a773a57308c5be7bcd4b3dbc736ece1844938600674b53f7160"], "sequence": 4294967294, "scriptSig": {"hex": "160014feb6b70be9f044a0c1eba0e9ec7f5e32e7d1e9ca", "asm": "0014feb6b70be9f044a0c1eba0e9ec7f5e32e7d1e9ca"}, "vout": 17, "txid": "c01c79c118cc7ac98e139c094c945a2d38ee04e7c9fc885ae360a126b1e63451"}], "txid": "d8430f91f90b84cc0ed07497d5120234e8870871d99e4203bf8b05336a49ebe8", "blocktime": 1537873891, "version": 2, "confirmations": 11475, "time": 1537873891, "locktime": 542996, "vsize": 1010, "size": 1092}