{"hash": "d8489d19ba5c8a414bd98feae059f5ae0c24725a5370251a9642cdf236175a74", "blockhash": "00000000000000000024a2167bbff67b0be802c0b01cdd79e6331c2be6459f87", "vout": [{"scriptPubKey": {"reqSigs": 1, "hex": "76a9141508276fd4193e83f5fce7a810a40e8f983c161988ac", "addresses": ["12vCxak5xc1t6T275xbm6AJ4xsZCxkTSc5"], "asm": "OP_DUP OP_HASH160 1508276fd4193e83f5fce7a810a40e8f983c1619 OP_EQUALVERIFY OP_CHECKSIG", "type": "pubkeyhash"}, "value": 2.62795671, "n": 0}, {"scriptPubKey": {"type": "nulldata", "hex": "6a146f6d6e69000000000000001f0000008ca1b73947", "asm": "OP_RETURN 6f6d6e69000000000000001f0000008ca1b73947"}, "value": 0.0, "n": 1}, {"scriptPubKey": {"reqSigs": 1, "hex": "76a9141508276fd4193e83f5fce7a810a40e8f983c161988ac", "addresses": ["12vCxak5xc1t6T275xbm6AJ4xsZCxkTSc5"], "asm": "OP_DUP OP_HASH160 1508276fd4193e83f5fce7a810a40e8f983c1619 OP_EQUALVERIFY OP_CHECKSIG", "type": "pubkeyhash"}, "value": 5.46e-06, "n": 2}], "hex": "010000000345e8b186f629fd78473c08e1e7d8d5e4337507da45f77c52177f42076121f418010000006b483045022100cda9b24f43a8f903e3fa2adf63facd96561f1a2ce83000d4a9b9aae1203c700502206bd82326bfe0a5d265ea2e6df65c43c1c659dd9d39a97efc28e2245462dfa17e0121038a51b91155441fd7e9d3ba43bf2da3d63f12259bdb41a0065ea1ceb54bdc3922ffffffff34f166114c4cddbb0f7bac369388d45ac832559ccb659b66a104d1b280f1f9fb010000006a47304402203d23763bf6031b4fff2f599436f3c6287f698914c69f923a3032b508b70b66be02207b33be41ea91a2ead485ff183cfe01ca1ac56e42103b00be944aaf1350ac59200121038a51b91155441fd7e9d3ba43bf2da3d63f12259bdb41a0065ea1ceb54bdc3922ffffffffe09e9723bfb854746160aa725ac63a4fe239788c3f003b8cefe087f9c289daa0000000006a473044022071b41962672b1a9f0effbbf699101d48b75ccd7a6fb547d88aab3152dbb55b7e02202d49a0b665b559cc734811ba5bd97745f1bbe66e41671833c86574acbe4384260121035bb5ec1330953265719fecb2345ebd0cd02272efa8a3a940a8a28021b37703eeffffffff0397f1a90f000000001976a9141508276fd4193e83f5fce7a810a40e8f983c161988ac0000000000000000166a146f6d6e69000000000000001f0000008ca1b7394722020000000000001976a9141508276fd4193e83f5fce7a810a40e8f983c161988ac00000000", "vin": [{"sequence": 4294967295, "scriptSig": {"hex": "483045022100cda9b24f43a8f903e3fa2adf63facd96561f1a2ce83000d4a9b9aae1203c700502206bd82326bfe0a5d265ea2e6df65c43c1c659dd9d39a97efc28e2245462dfa17e0121038a51b91155441fd7e9d3ba43bf2da3d63f12259bdb41a0065ea1ceb54bdc3922", "asm": "3045022100cda9b24f43a8f903e3fa2adf63facd96561f1a2ce83000d4a9b9aae1203c700502206bd82326bfe0a5d265ea2e6df65c43c1c659dd9d39a97efc28e2245462dfa17e[ALL] 038a51b91155441fd7e9d3ba43bf2da3d63f12259bdb41a0065ea1ceb54bdc3922"}, "vout": 1, "txid": "18f4216107427f17527cf745da077533e4d5d8e7e1083c4778fd29f686b1e845"}, {"sequence": 4294967295, "scriptSig": {"hex": "47304402203d23763bf6031b4fff2f599436f3c6287f698914c69f923a3032b508b70b66be02207b33be41ea91a2ead485ff183cfe01ca1ac56e42103b00be944aaf1350ac59200121038a51b91155441fd7e9d3ba43bf2da3d63f12259bdb41a0065ea1ceb54bdc3922", "asm": "304402203d23763bf6031b4fff2f599436f3c6287f698914c69f923a3032b508b70b66be02207b33be41ea91a2ead485ff183cfe01ca1ac56e42103b00be944aaf1350ac5920[ALL] 038a51b91155441fd7e9d3ba43bf2da3d63f12259bdb41a0065ea1ceb54bdc3922"}, "vout": 1, "txid": "fbf9f180b2d104a1669b65cb9c5532c85ad4889336ac7b0fbbdd4c4c1166f134"}, {"sequence": 4294967295, "scriptSig": {"hex": "473044022071b41962672b1a9f0effbbf699101d48b75ccd7a6fb547d88aab3152dbb55b7e02202d49a0b665b559cc734811ba5bd97745f1bbe66e41671833c86574acbe4384260121035bb5ec1330953265719fecb2345ebd0cd02272efa8a3a940a8a28021b37703ee", "asm": "3044022071b41962672b1a9f0effbbf699101d48b75ccd7a6fb547d88aab3152dbb55b7e02202d49a0b665b559cc734811ba5bd97745f1bbe66e41671833c86574acbe438426[ALL] 035bb5ec1330953265719fecb2345ebd0cd02272efa8a3a940a8a28021b37703ee"}, "vout": 0, "txid": "a0da89c2f987e0ef8c3b003f8c7839e24f3ac65a72aa60617454b8bf23979ee0"}], "txid": "d8489d19ba5c8a414bd98feae059f5ae0c24725a5370251a9642cdf236175a74", "blocktime": 1537870564, "version": 1, "confirmations": 11515, "time": 1537870564, "locktime": 0, "vsize": 551, "size": 551}