{"hash": "f6f6b3af84c579df7adb0b4f0b14a528b3f087b7550a0534f3f8eb3f17c64fd3", "blockhash": "00000000000000000024a2167bbff67b0be802c0b01cdd79e6331c2be6459f87", "vout": [{"scriptPubKey": {"reqSigs": 1, "hex": "76a914ff0a31c5d809b8e52c4a9d66592d20634943e95488ac", "addresses": ["1QFXXEo4jDssKGQ3UpHskCQpwqwQHNULzk"], "asm": "OP_DUP OP_HASH160 ff0a31c5d809b8e52c4a9d66592d20634943e954 OP_EQUALVERIFY OP_CHECKSIG", "type": "pubkeyhash"}, "value": 0.073, "n": 0}, {"scriptPubKey": {"reqSigs": 1, "hex": "a914fe44bd6f0205a854f25f9ceac37a5b760c661a8b87", "addresses": ["3QsTuQVdzA5s4X5SdNXtGoapU7aB8RQQ1b"], "asm": "OP_HASH160 fe44bd6f0205a854f25f9ceac37a5b760c661a8b OP_EQUAL", "type": "scripthash"}, "value": 1.77270273, "n": 1}], "hex": "02000000000101b3713878bf2aebc5258b79f781a0f62011509e66188f168f612a7472b504e176010000001716001478b9d4f5a027fb767ea4a7327821869e2fea44d2ffffffff02a0636f00000000001976a914ff0a31c5d809b8e52c4a9d66592d20634943e95488ac01ee900a0000000017a914fe44bd6f0205a854f25f9ceac37a5b760c661a8b87024730440220438ca3eba9b5781368da5cdf031db1962bceec93ea4ccf5095fc6034deec61ed02200494616af2ee247ffeb20b8ed504d617d1f7a273fa6c2658a1f9e4817e5b375c012103d8c76dba5a5d4b3a36307d2a8836290cdde86c0aa9e882c12a77c6b998ee141a00000000", "vin": [{"txinwitness": ["30440220438ca3eba9b5781368da5cdf031db1962bceec93ea4ccf5095fc6034deec61ed02200494616af2ee247ffeb20b8ed504d617d1f7a273fa6c2658a1f9e4817e5b375c01", "03d8c76dba5a5d4b3a36307d2a8836290cdde86c0aa9e882c12a77c6b998ee141a"], "sequence": 4294967295, "scriptSig": {"hex": "16001478b9d4f5a027fb767ea4a7327821869e2fea44d2", "asm": "001478b9d4f5a027fb767ea4a7327821869e2fea44d2"}, "vout": 1, "txid": "76e104b572742a618f168f18669e501120f6a081f7798b25c5eb2abf783871b3"}], "txid": "d84f3cff9c0e303eda3b97c3fae34c8d6713bb168ec3e9ea31c539fd757e3e1d", "blocktime": 1537870564, "version": 2, "confirmations": 11515, "time": 1537870564, "locktime": 0, "vsize": 168, "size": 249}