{"hash": "20c5d409b862aad59ec1e46f52f6c6913da2784a60e466077714c437649d18c6", "blockhash": "0000000000000000001cda96e906b7601b7a6fb1a3b62bca570a9e5d8f4b3de1", "vout": [{"scriptPubKey": {"reqSigs": 1, "hex": "76a9148f1bcc0ec1b73121f2201a50637f44ec2c69d66288ac", "addresses": ["1E3gvosYgW2dEFknnS4APTSGMB1VB7gAXU"], "asm": "OP_DUP OP_HASH160 8f1bcc0ec1b73121f2201a50637f44ec2c69d662 OP_EQUALVERIFY OP_CHECKSIG", "type": "pubkeyhash"}, "value": 0.00576, "n": 0}], "hex": "01000000000101c61caaa4df01f927449086a00e19b9336da0e76779c1f56c653b72d257ea10140000000023220020768193ab4f9323c6dfe3c10ca1afed0b669751225cf5d9c934ae3bb46c0cf869ffffffff0100ca0800000000001976a9148f1bcc0ec1b73121f2201a50637f44ec2c69d66288ac04004830450221008c239e56114b5c0cc7e71d1e7dc6ec370fac2a88dcd9c58c3e7db9b46696279f02205d23f941a4559d1e60be1b57c064d6ea36c0f79ffde2765d76f080c405fa5743014730440220517fb79f86a55e8415415778e84a16f324db6aea0fc4ac46dfe24cfd5f2023d002205cd18e0fa64c11b6f34f89a36a0162765baa3b8b70726eb280589a7f41f4f6b901695221029f7a6c4a26d506921a5b306f4c2865baf912b323a29235b116551081d77200ab2103546221a2d651f9d4f8cdc1554e0488286425a10ab1331ed30296c06247adb6fa210353cce900acf5fe57e4888a6f6c22c73edc84c79d0b61fb62fca6f9589c1b20c453ae14490800", "vin": [{"txinwitness": ["", "30450221008c239e56114b5c0cc7e71d1e7dc6ec370fac2a88dcd9c58c3e7db9b46696279f02205d23f941a4559d1e60be1b57c064d6ea36c0f79ffde2765d76f080c405fa574301", "30440220517fb79f86a55e8415415778e84a16f324db6aea0fc4ac46dfe24cfd5f2023d002205cd18e0fa64c11b6f34f89a36a0162765baa3b8b70726eb280589a7f41f4f6b901", "5221029f7a6c4a26d506921a5b306f4c2865baf912b323a29235b116551081d77200ab2103546221a2d651f9d4f8cdc1554e0488286425a10ab1331ed30296c06247adb6fa210353cce900acf5fe57e4888a6f6c22c73edc84c79d0b61fb62fca6f9589c1b20c453ae"], "sequence": 4294967295, "scriptSig": {"hex": "220020768193ab4f9323c6dfe3c10ca1afed0b669751225cf5d9c934ae3bb46c0cf869", "asm": "0020768193ab4f9323c6dfe3c10ca1afed0b669751225cf5d9c934ae3bb46c0cf869"}, "vout": 0, "txid": "1410ea57d2723b656cf5c17967e7a06d33b9190ea086904427f901dfa4aa1cc6"}], "txid": "d84f8567930709c4f0fa81a97b40bcbfdf6147325f38fca2445cf0b320610fb4", "blocktime": 1537873282, "version": 1, "confirmations": 11481, "time": 1537873282, "locktime": 542996, "vsize": 184, "size": 375}