{"hash": "9a018283b981322d75fbcda62c941279d1445edc24abc32c4d08efe614327ea2", "blockhash": "0000000000000000000e13cef7c366c0283d82e591d1acd082e914b08063cdf1", "vout": [{"scriptPubKey": {"reqSigs": 1, "hex": "0014430813f9c8a52b23387fd394a1ca2af958b23d82", "addresses": ["bc1qgvyp87wg554jxwrl6w22rj32l9vty0vzymmaj0"], "asm": "0 430813f9c8a52b23387fd394a1ca2af958b23d82", "type": "witness_v0_keyhash"}, "value": 0.00368111, "n": 0}, {"scriptPubKey": {"reqSigs": 1, "hex": "0020aa659a6aa7921c49baf35d2163978232c6d9cfdf02624a9dff6b1e6f85d69284", "addresses": ["bc1q4fje5648jgwynwhnt5sk89uzxtrdnn7lqf3y480ldv0xlpwkj2zq9l3ah2"], "asm": "0 aa659a6aa7921c49baf35d2163978232c6d9cfdf02624a9dff6b1e6f85d69284", "type": "witness_v0_scripthash"}, "value": 0.0082692, "n": 1}], "hex": "01000000000102d519d4abbeb5cf35de7053aaf5c6765cd09417a78d65fca92637f5493056557b0000000000ffffffff3e661f259cf8eb433a4b3ddc353c2518c2a66ce0398e4d181dfcb940385fa2990000000000ffffffff02ef9d050000000000160014430813f9c8a52b23387fd394a1ca2af958b23d82289e0c0000000000220020aa659a6aa7921c49baf35d2163978232c6d9cfdf02624a9dff6b1e6f85d692840248304502210096a549a00b7af4813d64c9a87c878a29b093348221b1ec56bf919ced7d294416022028841a542647369a918dd77bfa14bde2fa9776adf388ec35b617ca01980d56ee0121025603c15a1d8270e2bad6d7b41b3155f0f680fb16a39876cfc2e2d703b61c925b0248304502210092e019c578457fe12d8eb38644d194bc6cab5c167522d90feb86c8b677446b9c022004e0124194f6ff63e497864a9a4e8af3bb526decd7a4cfef3c183ea4e5f4cf5b012102a4d72d2981f8c7c2b77de434372d150e1ca2ab1874f70aef51b5c3dd3e85a09a00000000", "vin": [{"txinwitness": ["304502210096a549a00b7af4813d64c9a87c878a29b093348221b1ec56bf919ced7d294416022028841a542647369a918dd77bfa14bde2fa9776adf388ec35b617ca01980d56ee01", "025603c15a1d8270e2bad6d7b41b3155f0f680fb16a39876cfc2e2d703b61c925b"], "sequence": 4294967295, "scriptSig": {"hex": "", "asm": ""}, "vout": 0, "txid": "7b55563049f53726a9fc658da71794d05c76c6f5aa5370de35cfb5beabd419d5"}, {"txinwitness": ["304502210092e019c578457fe12d8eb38644d194bc6cab5c167522d90feb86c8b677446b9c022004e0124194f6ff63e497864a9a4e8af3bb526decd7a4cfef3c183ea4e5f4cf5b01", "02a4d72d2981f8c7c2b77de434372d150e1ca2ab1874f70aef51b5c3dd3e85a09a"], "sequence": 4294967295, "scriptSig": {"hex": "", "asm": ""}, "vout": 0, "txid": "99a25f3840b9fc1d184d8e39e06ca6c218253c35dc3d4b3a43ebf89c251f663e"}], "txid": "d851ba210af7630a7e21603aa8377ee59b0b64f4ac8d1fa3c8024a8158237e4d", "blocktime": 1537871767, "version": 1, "confirmations": 11495, "time": 1537871767, "locktime": 0, "vsize": 221, "size": 384}