{"hash": "61144b9e22f77ad1af84dcfd2675e161a92c360545b6b3fed3e940057a74a648", "blockhash": "0000000000000000000e13cef7c366c0283d82e591d1acd082e914b08063cdf1", "vout": [{"scriptPubKey": {"reqSigs": 1, "hex": "76a9142180102b7c7adf36c15ed67f57bc2fc2809a435b88ac", "addresses": ["1448iKGf94uCKtCejMTxQUadDxoeKr9VnF"], "asm": "OP_DUP OP_HASH160 2180102b7c7adf36c15ed67f57bc2fc2809a435b OP_EQUALVERIFY OP_CHECKSIG", "type": "pubkeyhash"}, "value": 0.0024626, "n": 0}, {"scriptPubKey": {"reqSigs": 1, "hex": "a9146f1dfd6477268a7587fe670b67cc357454d3cea287", "addresses": ["3BpYrZmSvp4ycL83KL6JoDE2M6F2xutnMH"], "asm": "OP_HASH160 6f1dfd6477268a7587fe670b67cc357454d3cea2 OP_EQUAL", "type": "scripthash"}, "value": 0.01008324, "n": 1}], "hex": "020000000001023cc4b2cb7ef93f389f2ee066a22b5dc57bab9074ea6a96c9548f8c829c30d0690100000017160014633b652b765ac4a90aedd8920fd6bfd8f3c3dd9afeffffffae4dd86f92b691ca5a180fe9e66b3cdebc4f2bc83322ddee499dcf4c33efcf79010000001716001413edb4ee273b17ad931f64119cc1a1107a99d25ffeffffff02f4c10300000000001976a9142180102b7c7adf36c15ed67f57bc2fc2809a435b88acc4620f000000000017a9146f1dfd6477268a7587fe670b67cc357454d3cea28702483045022100a2afad094847777a830bb911807b3e5cb9f495a85c47961ddee11f88b1139b2c02200b4f8bd7348d7b346e10854b74486d8a735b90c2c9e33439128f5cf5d226bf4101210229e92d0391133f37757e661404e75513c101ff08aaae323a43cf3d5fb99e4cb90247304402203b4f0010bffa3ea45a8de59b02a1805fe5ad008da34f8b5fd86ca064d93b1c94022073d4421bcf247466cb3e921bc0c0b171bedfc0a6e6eca8b2af7fc0b353c6c00c012103c131948205df05100e76a1cc7905c85c70f737b673205919109a3d49359ace6610490800", "vin": [{"txinwitness": ["3045022100a2afad094847777a830bb911807b3e5cb9f495a85c47961ddee11f88b1139b2c02200b4f8bd7348d7b346e10854b74486d8a735b90c2c9e33439128f5cf5d226bf4101", "0229e92d0391133f37757e661404e75513c101ff08aaae323a43cf3d5fb99e4cb9"], "sequence": 4294967294, "scriptSig": {"hex": "160014633b652b765ac4a90aedd8920fd6bfd8f3c3dd9a", "asm": "0014633b652b765ac4a90aedd8920fd6bfd8f3c3dd9a"}, "vout": 1, "txid": "69d0309c828c8f54c9966aea7490ab7bc55d2ba266e02e9f383ff97ecbb2c43c"}, {"txinwitness": ["304402203b4f0010bffa3ea45a8de59b02a1805fe5ad008da34f8b5fd86ca064d93b1c94022073d4421bcf247466cb3e921bc0c0b171bedfc0a6e6eca8b2af7fc0b353c6c00c01", "03c131948205df05100e76a1cc7905c85c70f737b673205919109a3d49359ace66"], "sequence": 4294967294, "scriptSig": {"hex": "16001413edb4ee273b17ad931f64119cc1a1107a99d25f", "asm": "001413edb4ee273b17ad931f64119cc1a1107a99d25f"}, "vout": 1, "txid": "79cfef334ccf9d49eedd2233c82b4fbcde3c6be6e90f185aca91b6926fd84dae"}], "txid": "d85186f17948244c3de9355b0d167705e6ba90fec78c542e9c13967e080bfcaa", "blocktime": 1537871767, "version": 2, "confirmations": 11495, "time": 1537871767, "locktime": 542992, "vsize": 259, "size": 421}