{"hash": "d85539a76f3f1296cb53fa2472f8822b73a5fb68a4a9282d23794a1223d2ead1", "blockhash": "00000000000000000004ffacab907a6b429b9a5745fa0b75af4234bf69dd7176", "vout": [{"scriptPubKey": {"reqSigs": 1, "hex": "a914d42fefc98fb1f9f57268f429dfef79ba7e40e0e587", "addresses": ["3M2xbujRUetmdUJmsDCFjo3etfLr2V5A8k"], "asm": "OP_HASH160 d42fefc98fb1f9f57268f429dfef79ba7e40e0e5 OP_EQUAL", "type": "scripthash"}, "value": 0.00743232, "n": 0}, {"scriptPubKey": {"reqSigs": 1, "hex": "76a914f16560bd9cfad08003dcef440128a320136be12788ac", "addresses": ["1P1PJ6FvStNuZvCwW6HQBxaM3CNsoX5LyH"], "asm": "OP_DUP OP_HASH160 f16560bd9cfad08003dcef440128a320136be127 OP_EQUALVERIFY OP_CHECKSIG", "type": "pubkeyhash"}, "value": 0.00894745, "n": 1}], "hex": "01000000017672d36e2e0f2a34aa4c29fc84f9e6fc84f0159ba17ab65ebc18665c510d647c000000006b483045022100d2ea6f85b76bed9238adc521aef4ea0ad03b138b632cfe5c9ce70000a27388020220124d8ad4589af6e89e0aff320158f719fed081666eecc59ed6919f3a896df662012102b9fbe38a0c242da7c7211e0afeba259b766bb56fa0f7810f66b2314794cddf78ffffffff0240570b000000000017a914d42fefc98fb1f9f57268f429dfef79ba7e40e0e58719a70d00000000001976a914f16560bd9cfad08003dcef440128a320136be12788ac00000000", "vin": [{"sequence": 4294967295, "scriptSig": {"hex": "483045022100d2ea6f85b76bed9238adc521aef4ea0ad03b138b632cfe5c9ce70000a27388020220124d8ad4589af6e89e0aff320158f719fed081666eecc59ed6919f3a896df662012102b9fbe38a0c242da7c7211e0afeba259b766bb56fa0f7810f66b2314794cddf78", "asm": "3045022100d2ea6f85b76bed9238adc521aef4ea0ad03b138b632cfe5c9ce70000a27388020220124d8ad4589af6e89e0aff320158f719fed081666eecc59ed6919f3a896df662[ALL] 02b9fbe38a0c242da7c7211e0afeba259b766bb56fa0f7810f66b2314794cddf78"}, "vout": 0, "txid": "7c640d515c6618bc5eb67aa19b15f084fce6f984fc294caa342a0f2e6ed37276"}], "txid": "d85539a76f3f1296cb53fa2472f8822b73a5fb68a4a9282d23794a1223d2ead1", "blocktime": 1537875543, "version": 1, "confirmations": 11464, "time": 1537875543, "locktime": 0, "vsize": 224, "size": 224}