{"hash": "d857cee5e437653f39055e2e5823db551a0d5e61af17d65687e6bf6f0d450e92", "blockhash": "0000000000000000000e13cef7c366c0283d82e591d1acd082e914b08063cdf1", "vout": [{"scriptPubKey": {"reqSigs": 1, "hex": "a914d95ef2a867a3e8527319bbdd6012259c9b849dd887", "addresses": ["3MWNJGMGS7HeUdCBWcx9m9Um47wa66Droc"], "asm": "OP_HASH160 d95ef2a867a3e8527319bbdd6012259c9b849dd8 OP_EQUAL", "type": "scripthash"}, "value": 0.01531393, "n": 0}, {"scriptPubKey": {"reqSigs": 1, "hex": "76a9144b88efc41a1e62e7889274eaa646fc9f466bb6fd88ac", "addresses": ["17tPiufnDdeabrJLgSAK6ZBaXBCTnZTAtK"], "asm": "OP_DUP OP_HASH160 4b88efc41a1e62e7889274eaa646fc9f466bb6fd OP_EQUALVERIFY OP_CHECKSIG", "type": "pubkeyhash"}, "value": 0.02985672, "n": 1}], "hex": "0100000001f08dd0bde263951366c8b4a58f5b65ee36383762040cee0a3273bf900e3f7d07010000006a4730440220636981bd0eac3c4dba39bdd2902da77af1d3364087f996ed1fd91d8cb8b15538022002262af9d1a1b8f1f6f12bf3c3bebe9dc88e7df4b8b81ca27dc6d9bd18532854012103fe3bd18ffa725daa986feceb837e597ae606effa1aa4c83a9b6aedad3ac8affaffffffff02015e17000000000017a914d95ef2a867a3e8527319bbdd6012259c9b849dd887c88e2d00000000001976a9144b88efc41a1e62e7889274eaa646fc9f466bb6fd88ac00000000", "vin": [{"sequence": 4294967295, "scriptSig": {"hex": "4730440220636981bd0eac3c4dba39bdd2902da77af1d3364087f996ed1fd91d8cb8b15538022002262af9d1a1b8f1f6f12bf3c3bebe9dc88e7df4b8b81ca27dc6d9bd18532854012103fe3bd18ffa725daa986feceb837e597ae606effa1aa4c83a9b6aedad3ac8affa", "asm": "30440220636981bd0eac3c4dba39bdd2902da77af1d3364087f996ed1fd91d8cb8b15538022002262af9d1a1b8f1f6f12bf3c3bebe9dc88e7df4b8b81ca27dc6d9bd18532854[ALL] 03fe3bd18ffa725daa986feceb837e597ae606effa1aa4c83a9b6aedad3ac8affa"}, "vout": 1, "txid": "077d3f0e90bf73320aee0c0462373836ee655b8fa5b4c866139563e2bdd08df0"}], "txid": "d857cee5e437653f39055e2e5823db551a0d5e61af17d65687e6bf6f0d450e92", "blocktime": 1537871767, "version": 1, "confirmations": 11495, "time": 1537871767, "locktime": 0, "vsize": 223, "size": 223}