{"hash": "e71da64b15a2664f3eb1c2eedd22bd7af88b7f2dc8f03e0da68474fc323babaf", "blockhash": "000000000000000000022b45ed06c6f4ccd3cf7fb5ba4856ebd2e58215665228", "vout": [{"scriptPubKey": {"reqSigs": 1, "hex": "76a914457d29f24fd4456407f8e337bc2653e178ce46db88ac", "addresses": ["17LRZmrR5CW789KaPUM4Ld716fzw4tULwN"], "asm": "OP_DUP OP_HASH160 457d29f24fd4456407f8e337bc2653e178ce46db OP_EQUALVERIFY OP_CHECKSIG", "type": "pubkeyhash"}, "value": 0.00225, "n": 0}, {"scriptPubKey": {"reqSigs": 1, "hex": "a914fefc8e6145e101c98d95893dd3e06475b4dadc4087", "addresses": ["3QwG7BLr8xrqhyWMSYe4rnQgqVW7f3yjty"], "asm": "OP_HASH160 fefc8e6145e101c98d95893dd3e06475b4dadc40 OP_EQUAL", "type": "scripthash"}, "value": 0.44342706, "n": 1}], "hex": "02000000000101ed870467ea16ccd726c1eb17e03a9502e6931084247dca50217ee11dd86bd42600000000171600146aae6bbebb37b572b9748c949f6fd17f98965f2bfeffffff02e86e0300000000001976a914457d29f24fd4456407f8e337bc2653e178ce46db88acb29da4020000000017a914fefc8e6145e101c98d95893dd3e06475b4dadc40870248304502210099ae192528e8c54c4f50ec8b1f3e7eff94ea645605858d9f3a672f94506482ec0220548f1fad4d02eac97e3aa744d9f64e50115d87cd8a7a3eb212df3d28502b90e2012102e290b9e1931f4a6ccc3b8f5d58b53d4f005c9139f5f74f171f9347ee93b10d370b490800", "vin": [{"txinwitness": ["304502210099ae192528e8c54c4f50ec8b1f3e7eff94ea645605858d9f3a672f94506482ec0220548f1fad4d02eac97e3aa744d9f64e50115d87cd8a7a3eb212df3d28502b90e201", "02e290b9e1931f4a6ccc3b8f5d58b53d4f005c9139f5f74f171f9347ee93b10d37"], "sequence": 4294967294, "scriptSig": {"hex": "1600146aae6bbebb37b572b9748c949f6fd17f98965f2b", "asm": "00146aae6bbebb37b572b9748c949f6fd17f98965f2b"}, "vout": 0, "txid": "26d46bd81de17e2150ca7d24841093e602953ae017ebc126d7cc16ea670487ed"}], "txid": "d85caccebd60e83b73a3be29e5a308918943dd4fc8cde8d855ade3becaa5e765", "blocktime": 1537869901, "version": 2, "confirmations": 11523, "time": 1537869901, "locktime": 542987, "vsize": 168, "size": 250}