{"hash": "d865a30b6210b5fd5c3511c407f44c16cb8ef752d81fdf34bd7dff9bdbe06639", "blockhash": "0000000000000000001e0dab787dd257d1dbfcb92a98c2207d5e1078be1f4165", "vout": [{"scriptPubKey": {"reqSigs": 1, "hex": "76a914e8cea30989bd15530f819b766684b00dc7ba7cfa88ac", "addresses": ["1NDyJtNTjmwk5xPNhjgAMu4HDHigtobu1s"], "asm": "OP_DUP OP_HASH160 e8cea30989bd15530f819b766684b00dc7ba7cfa OP_EQUALVERIFY OP_CHECKSIG", "type": "pubkeyhash"}, "value": 1.23230256, "n": 0}, {"scriptPubKey": {"reqSigs": 1, "hex": "76a9147d3e7683ca74116add942e90ea3547589806ce9288ac", "addresses": ["1CREHysZZcQJwao87kJCVyzmhyA2zHbNVh"], "asm": "OP_DUP OP_HASH160 7d3e7683ca74116add942e90ea3547589806ce92 OP_EQUALVERIFY OP_CHECKSIG", "type": "pubkeyhash"}, "value": 0.00829557, "n": 1}], "hex": "020000000b0e7ad74533850c9ad4668c3de027ab69793f5b382f8b60a57f7632c803172b74010000006b4830450221008436e55d8e74f7f5bfff1cc6d8f0d6823f3dbe56f27298043a20187f0a47b95202207156530ed9549c35ed2867f7e782c4fd9111fd51c00f2abe550efb1395f870a0012103624df9ff02e512ad87851da0d175f626ba1f5b7d58c9ede3e592ad1de7b1770efeffffff3f8f56f13efaf8612f2e264b2700fe833b3ef0fb5ec76bed5de1592b9033016f080000006a473044022075f78446f7e912531be83012d23cb470cdc3b4751338041b3435c574b6188bde02200b8c43b83b1f3de70fc4f13c163cc21d7206697e88a8e90d9690406be7cae02301210332b7f441458932eb57ff24a0f173a598c36ca7100720422fb21442ee69fe3c64feffffff90ccd6acb67d3a5ee782c69294f4d469c7ca2cfc4df23d8e28b28b04841bee14050000006a473044022013d01b118f00532b5e40c53c85f12cc2a9e554499ce7d70e0df28327924b170802200d53705998a7022c8dfc9a9b267404f7211c71f8e976222c580ad95fecd3be47012102691b0a620923596cfb5508ebe5c0a02f173603443538ded6f412998d20021269feffffffaa6cfd500c45c6feb9733c28d1e2b16d9b8ba133c3865be1189a467fdecb31c1020000006b48304502210097ee3c49d168464a4fe9a5f9d189b16cfa49eabca57ebcc5a9f775d100aae36102200beac65b69197e9c1d58435cd0aa0dee9e83b278380a3d109057c2a2ad7ec90e0121037a9c3681d95a2010dee628186a13fb1e145ace891b8d7f0b3ab6054fad917d49feffffffb040b860c25d5806f2d40d507589dda791753784a4b0f063adc19bb8f4f2e65d000000006b483045022100a9000230c9a5ba4e479495c643e43382ce9616a66ac9e29bd344cf7d69ae3a72022002ff6913460d1dd798d4c796ec69b3fc3b73e44c290e403e16aa9ab980d7306b012103496a55792b30a2468ab0198be7e942745bad9913ad46799984a382063343be86feffffffc1f0d83f02f14b2898f0ee7302609dff259b929c9b0a52d94bb757dcb92376070a0000006a47304402201e8107e9d66430b98219762643d91a7d244795028bf41fc595252ff164d0fb05022045a5b2ac91b06e51da2a93298bd92e24956efc21d3bfa79c741f6f8fa07345e1012103cafcf8e511cd9ad9ddffe7c1a4038751666344a761c87b764d047961e414251bfeffffffcafd3dd4b27b6d94ecce2d09fdd9d3a67edceed7350cd8cf22568a99a1f390ad000000006a47304402202b8e5bd8de0669dbfe4e8dc40d53af05ab46e28631120f8ff35e4a77eda4ba64022048482e722a34ef3825971d9b70f7382036de86df8aedc002142bbbad01bd6ded012103624df9ff02e512ad87851da0d175f626ba1f5b7d58c9ede3e592ad1de7b1770efeffffffd4807781d0152fc0e0cf7371cde235977270ceebc0a508b11bd22745eccdc170060000006a47304402200c507b658c530ce6fb54fbe506a4a66c58f8fa8962ed3ed5d55d4b2b22bc5fa0022053b18ad919ce2d4d3551f722c27979725ef2936be740573f77f2e7b7eacb32d10121030d3949c4cd863d91301b8b57016eaafd060231eac107a5f1607c8f5f1542a5f3feffffffda89b0599c19d03e6d8841ab69367f0af3e7c360e8b0c88dc4b2b190a65e2323000000006b4830450221008bf16d8b2b91ee6ede62202a18a05a34ebaa916320c2c91a517d73e82836095a022067739f2360466b231551668c4b572a5ab54058fb9eff886295d7832f9a9ef9fa01210310b30b8e1cb1d751685022358c92e23eb0d3c89d2694206b7701f364bf5b335efeffffffee13e87af9a4149ed3d2d6f8bd14f8bc297fcf7586b1ddb60d4382715896d42b100000006a473044022022c49dd5aae5241336f26e167d9c3b2bb7efd72eeb50beb79a7310c4fb369ac302205d7e47a62534138b320de94da4e35550653997155f4f6e406821e73dc05ac4740121036d8b23779d8e07cb8aedcea8f5b4728c4d83ff0db439b049cf682468f113554afefffffff0037dc053b0c9d4daadfc910351c75bdea69572296db8ef796282fd4335e634010000006a4730440220127c5ceee95cf6d44be24f7d86a8d75913dce1d3008b8ca3141a7faae7a9c43302204b5261daac8deb7d917f5d5430fc4a3ba66b4f9aab7ba594e15dee582d9be7ef0121033aefcf5ac5cde53a36dc7e10ed6395082929207789c331b0111902bd77b88190feffffff0230585807000000001976a914e8cea30989bd15530f819b766684b00dc7ba7cfa88ac75a80c00000000001976a9147d3e7683ca74116add942e90ea3547589806ce9288ac12490800", "vin": [{"sequence": 4294967294, "scriptSig": {"hex": "4830450221008436e55d8e74f7f5bfff1cc6d8f0d6823f3dbe56f27298043a20187f0a47b95202207156530ed9549c35ed2867f7e782c4fd9111fd51c00f2abe550efb1395f870a0012103624df9ff02e512ad87851da0d175f626ba1f5b7d58c9ede3e592ad1de7b1770e", "asm": "30450221008436e55d8e74f7f5bfff1cc6d8f0d6823f3dbe56f27298043a20187f0a47b95202207156530ed9549c35ed2867f7e782c4fd9111fd51c00f2abe550efb1395f870a0[ALL] 03624df9ff02e512ad87851da0d175f626ba1f5b7d58c9ede3e592ad1de7b1770e"}, "vout": 1, "txid": "742b1703c832767fa5608b2f385b3f7969ab27e03d8c66d49a0c853345d77a0e"}, {"sequence": 4294967294, "scriptSig": {"hex": "473044022075f78446f7e912531be83012d23cb470cdc3b4751338041b3435c574b6188bde02200b8c43b83b1f3de70fc4f13c163cc21d7206697e88a8e90d9690406be7cae02301210332b7f441458932eb57ff24a0f173a598c36ca7100720422fb21442ee69fe3c64", "asm": "3044022075f78446f7e912531be83012d23cb470cdc3b4751338041b3435c574b6188bde02200b8c43b83b1f3de70fc4f13c163cc21d7206697e88a8e90d9690406be7cae023[ALL] 0332b7f441458932eb57ff24a0f173a598c36ca7100720422fb21442ee69fe3c64"}, "vout": 8, "txid": "6f0133902b59e15ded6bc75efbf03e3b83fe00274b262e2f61f8fa3ef1568f3f"}, {"sequence": 4294967294, "scriptSig": {"hex": "473044022013d01b118f00532b5e40c53c85f12cc2a9e554499ce7d70e0df28327924b170802200d53705998a7022c8dfc9a9b267404f7211c71f8e976222c580ad95fecd3be47012102691b0a620923596cfb5508ebe5c0a02f173603443538ded6f412998d20021269", "asm": "3044022013d01b118f00532b5e40c53c85f12cc2a9e554499ce7d70e0df28327924b170802200d53705998a7022c8dfc9a9b267404f7211c71f8e976222c580ad95fecd3be47[ALL] 02691b0a620923596cfb5508ebe5c0a02f173603443538ded6f412998d20021269"}, "vout": 5, "txid": "14ee1b84048bb2288e3df24dfc2ccac769d4f49492c682e75e3a7db6acd6cc90"}, {"sequence": 4294967294, "scriptSig": {"hex": "48304502210097ee3c49d168464a4fe9a5f9d189b16cfa49eabca57ebcc5a9f775d100aae36102200beac65b69197e9c1d58435cd0aa0dee9e83b278380a3d109057c2a2ad7ec90e0121037a9c3681d95a2010dee628186a13fb1e145ace891b8d7f0b3ab6054fad917d49", "asm": "304502210097ee3c49d168464a4fe9a5f9d189b16cfa49eabca57ebcc5a9f775d100aae36102200beac65b69197e9c1d58435cd0aa0dee9e83b278380a3d109057c2a2ad7ec90e[ALL] 037a9c3681d95a2010dee628186a13fb1e145ace891b8d7f0b3ab6054fad917d49"}, "vout": 2, "txid": "c131cbde7f469a18e15b86c333a18b9b6db1e2d1283c73b9fec6450c50fd6caa"}, {"sequence": 4294967294, "scriptSig": {"hex": "483045022100a9000230c9a5ba4e479495c643e43382ce9616a66ac9e29bd344cf7d69ae3a72022002ff6913460d1dd798d4c796ec69b3fc3b73e44c290e403e16aa9ab980d7306b012103496a55792b30a2468ab0198be7e942745bad9913ad46799984a382063343be86", "asm": "3045022100a9000230c9a5ba4e479495c643e43382ce9616a66ac9e29bd344cf7d69ae3a72022002ff6913460d1dd798d4c796ec69b3fc3b73e44c290e403e16aa9ab980d7306b[ALL] 03496a55792b30a2468ab0198be7e942745bad9913ad46799984a382063343be86"}, "vout": 0, "txid": "5de6f2f4b89bc1ad63f0b0a484377591a7dd8975500dd4f206585dc260b840b0"}, {"sequence": 4294967294, "scriptSig": {"hex": "47304402201e8107e9d66430b98219762643d91a7d244795028bf41fc595252ff164d0fb05022045a5b2ac91b06e51da2a93298bd92e24956efc21d3bfa79c741f6f8fa07345e1012103cafcf8e511cd9ad9ddffe7c1a4038751666344a761c87b764d047961e414251b", "asm": "304402201e8107e9d66430b98219762643d91a7d244795028bf41fc595252ff164d0fb05022045a5b2ac91b06e51da2a93298bd92e24956efc21d3bfa79c741f6f8fa07345e1[ALL] 03cafcf8e511cd9ad9ddffe7c1a4038751666344a761c87b764d047961e414251b"}, "vout": 10, "txid": "077623b9dc57b74bd9520a9b9c929b25ff9d600273eef098284bf1023fd8f0c1"}, {"sequence": 4294967294, "scriptSig": {"hex": "47304402202b8e5bd8de0669dbfe4e8dc40d53af05ab46e28631120f8ff35e4a77eda4ba64022048482e722a34ef3825971d9b70f7382036de86df8aedc002142bbbad01bd6ded012103624df9ff02e512ad87851da0d175f626ba1f5b7d58c9ede3e592ad1de7b1770e", "asm": "304402202b8e5bd8de0669dbfe4e8dc40d53af05ab46e28631120f8ff35e4a77eda4ba64022048482e722a34ef3825971d9b70f7382036de86df8aedc002142bbbad01bd6ded[ALL] 03624df9ff02e512ad87851da0d175f626ba1f5b7d58c9ede3e592ad1de7b1770e"}, "vout": 0, "txid": "ad90f3a1998a5622cfd80c35d7eedc7ea6d3d9fd092dceec946d7bb2d43dfdca"}, {"sequence": 4294967294, "scriptSig": {"hex": "47304402200c507b658c530ce6fb54fbe506a4a66c58f8fa8962ed3ed5d55d4b2b22bc5fa0022053b18ad919ce2d4d3551f722c27979725ef2936be740573f77f2e7b7eacb32d10121030d3949c4cd863d91301b8b57016eaafd060231eac107a5f1607c8f5f1542a5f3", "asm": "304402200c507b658c530ce6fb54fbe506a4a66c58f8fa8962ed3ed5d55d4b2b22bc5fa0022053b18ad919ce2d4d3551f722c27979725ef2936be740573f77f2e7b7eacb32d1[ALL] 030d3949c4cd863d91301b8b57016eaafd060231eac107a5f1607c8f5f1542a5f3"}, "vout": 6, "txid": "70c1cdec4527d21bb108a5c0ebce70729735e2cd7173cfe0c02f15d0817780d4"}, {"sequence": 4294967294, "scriptSig": {"hex": "4830450221008bf16d8b2b91ee6ede62202a18a05a34ebaa916320c2c91a517d73e82836095a022067739f2360466b231551668c4b572a5ab54058fb9eff886295d7832f9a9ef9fa01210310b30b8e1cb1d751685022358c92e23eb0d3c89d2694206b7701f364bf5b335e", "asm": "30450221008bf16d8b2b91ee6ede62202a18a05a34ebaa916320c2c91a517d73e82836095a022067739f2360466b231551668c4b572a5ab54058fb9eff886295d7832f9a9ef9fa[ALL] 0310b30b8e1cb1d751685022358c92e23eb0d3c89d2694206b7701f364bf5b335e"}, "vout": 0, "txid": "23235ea690b1b2c48dc8b0e860c3e7f30a7f3669ab41886d3ed0199c59b089da"}, {"sequence": 4294967294, "scriptSig": {"hex": "473044022022c49dd5aae5241336f26e167d9c3b2bb7efd72eeb50beb79a7310c4fb369ac302205d7e47a62534138b320de94da4e35550653997155f4f6e406821e73dc05ac4740121036d8b23779d8e07cb8aedcea8f5b4728c4d83ff0db439b049cf682468f113554a", "asm": "3044022022c49dd5aae5241336f26e167d9c3b2bb7efd72eeb50beb79a7310c4fb369ac302205d7e47a62534138b320de94da4e35550653997155f4f6e406821e73dc05ac474[ALL] 036d8b23779d8e07cb8aedcea8f5b4728c4d83ff0db439b049cf682468f113554a"}, "vout": 16, "txid": "2bd496587182430db6ddb18675cf7f29bcf814bdf8d6d2d39e14a4f97ae813ee"}, {"sequence": 4294967294, "scriptSig": {"hex": "4730440220127c5ceee95cf6d44be24f7d86a8d75913dce1d3008b8ca3141a7faae7a9c43302204b5261daac8deb7d917f5d5430fc4a3ba66b4f9aab7ba594e15dee582d9be7ef0121033aefcf5ac5cde53a36dc7e10ed6395082929207789c331b0111902bd77b88190", "asm": "30440220127c5ceee95cf6d44be24f7d86a8d75913dce1d3008b8ca3141a7faae7a9c43302204b5261daac8deb7d917f5d5430fc4a3ba66b4f9aab7ba594e15dee582d9be7ef[ALL] 033aefcf5ac5cde53a36dc7e10ed6395082929207789c331b0111902bd77b88190"}, "vout": 1, "txid": "34e63543fd826279efb86d297295a6de5bc7510391fcaddad4c9b053c07d03f0"}], "txid": "d865a30b6210b5fd5c3511c407f44c16cb8ef752d81fdf34bd7dff9bdbe06639", "blocktime": 1537872475, "version": 2, "confirmations": 11486, "time": 1537872475, "locktime": 542994, "vsize": 1699, "size": 1699}