{"hash": "d8709b99a537789badf39894a43e0fec5a667407d9013672a806f3b24da250d7", "blockhash": "0000000000000000000e13cef7c366c0283d82e591d1acd082e914b08063cdf1", "vout": [{"scriptPubKey": {"reqSigs": 1, "hex": "76a9148d975db5f8b1e3193381d21574222243b99d6af388ac", "addresses": ["1Dufc9UiZ3bgnXzabNAFHf1DmQWXbXQxWs"], "asm": "OP_DUP OP_HASH160 8d975db5f8b1e3193381d21574222243b99d6af3 OP_EQUALVERIFY OP_CHECKSIG", "type": "pubkeyhash"}, "value": 0.024377, "n": 0}, {"scriptPubKey": {"reqSigs": 1, "hex": "76a914f93bc7ee184e84be62f95342d8ff1e6457f14a2f88ac", "addresses": ["1PipsRQmudi4fK4ZqXDA7DvhGzCDrdiPLA"], "asm": "OP_DUP OP_HASH160 f93bc7ee184e84be62f95342d8ff1e6457f14a2f OP_EQUALVERIFY OP_CHECKSIG", "type": "pubkeyhash"}, "value": 0.36845728, "n": 1}], "hex": "0100000001d5438d970b4ca0d750ca0c22da093fa146a360fdda898e2c961e668ce3aafae3010000006b483045022100a099cae718428be941a029e800684479a1f6fee840416069de040877f588dc28022017f28abd63355208a49629d64279bdae003fbdf07074b54145270813bf45cc1501210300164b3ea8c780986dac25d746bf3aafcc830998fe0289d6e01be1e8bb7256b3fdffffff0244322500000000001976a9148d975db5f8b1e3193381d21574222243b99d6af388aca0383202000000001976a914f93bc7ee184e84be62f95342d8ff1e6457f14a2f88ac10490800", "vin": [{"sequence": 4294967293, "scriptSig": {"hex": "483045022100a099cae718428be941a029e800684479a1f6fee840416069de040877f588dc28022017f28abd63355208a49629d64279bdae003fbdf07074b54145270813bf45cc1501210300164b3ea8c780986dac25d746bf3aafcc830998fe0289d6e01be1e8bb7256b3", "asm": "3045022100a099cae718428be941a029e800684479a1f6fee840416069de040877f588dc28022017f28abd63355208a49629d64279bdae003fbdf07074b54145270813bf45cc15[ALL] 0300164b3ea8c780986dac25d746bf3aafcc830998fe0289d6e01be1e8bb7256b3"}, "vout": 1, "txid": "e3faaae38c661e962c8e89dafd60a346a13f09da220cca50d7a04c0b978d43d5"}], "txid": "d8709b99a537789badf39894a43e0fec5a667407d9013672a806f3b24da250d7", "blocktime": 1537871767, "version": 1, "confirmations": 11493, "time": 1537871767, "locktime": 542992, "vsize": 226, "size": 226}