{"hash": "d876df66340c3c03c7ba6362c1ce1769c683c322a53503034faeba57239abb67", "blockhash": "0000000000000000001f0ddff1eddb255c1121bcd4da4f1bc9a0da00cae72433", "vout": [{"scriptPubKey": {"reqSigs": 1, "hex": "76a914ca04c6e4518a4a755381fdbfe39c21f19c3c9c9e88ac", "addresses": ["1KRBDf3z9gdMPYXipeGK5Dq8A1NmqJR2th"], "asm": "OP_DUP OP_HASH160 ca04c6e4518a4a755381fdbfe39c21f19c3c9c9e OP_EQUALVERIFY OP_CHECKSIG", "type": "pubkeyhash"}, "value": 0.01171716, "n": 0}, {"scriptPubKey": {"reqSigs": 1, "hex": "76a914e1f97a855776a89523e39f08c1af301b429355fa88ac", "addresses": ["1MbquEqrRGrRyx4PJh3YL3A14iD2BL2aiA"], "asm": "OP_DUP OP_HASH160 e1f97a855776a89523e39f08c1af301b429355fa OP_EQUALVERIFY OP_CHECKSIG", "type": "pubkeyhash"}, "value": 0.05299531, "n": 1}], "hex": "010000000197680c7c0e3da4da08d9d45f6273d81dfdd909b45c61d33ccb6b45417088f5ea010000006a473044022035eac6fa964e98077da91f148072cd90ebb3d4d4a4c73bdb32ec11d82fc0d7e20220115af225e368442541b7f82b2e9899316aa1f552a1ee13f11331b54e37135468012103bacb9f4190b07f48eb570d8526ef1c2a480d2dd73243761f8273d2f3b1e1b68affffffff0204e11100000000001976a914ca04c6e4518a4a755381fdbfe39c21f19c3c9c9e88ac4bdd5000000000001976a914e1f97a855776a89523e39f08c1af301b429355fa88ac00000000", "vin": [{"sequence": 4294967295, "scriptSig": {"hex": "473044022035eac6fa964e98077da91f148072cd90ebb3d4d4a4c73bdb32ec11d82fc0d7e20220115af225e368442541b7f82b2e9899316aa1f552a1ee13f11331b54e37135468012103bacb9f4190b07f48eb570d8526ef1c2a480d2dd73243761f8273d2f3b1e1b68a", "asm": "3044022035eac6fa964e98077da91f148072cd90ebb3d4d4a4c73bdb32ec11d82fc0d7e20220115af225e368442541b7f82b2e9899316aa1f552a1ee13f11331b54e37135468[ALL] 03bacb9f4190b07f48eb570d8526ef1c2a480d2dd73243761f8273d2f3b1e1b68a"}, "vout": 1, "txid": "eaf5887041456bcb3cd3615cb409d9fd1dd873625fd4d908daa43d0e7c0c6897"}], "txid": "d876df66340c3c03c7ba6362c1ce1769c683c322a53503034faeba57239abb67", "blocktime": 1537872018, "version": 1, "confirmations": 11489, "time": 1537872018, "locktime": 0, "vsize": 225, "size": 225}