{"hash": "d8868b1e5e057f1cf9d70b85905cae32701b1a288009579ae16e8829d72c8c57", "blockhash": "0000000000000000001e0dab787dd257d1dbfcb92a98c2207d5e1078be1f4165", "vout": [{"scriptPubKey": {"reqSigs": 1, "hex": "76a91483e7109ecda9d36d23f11527f92d65b5c39672dd88ac", "addresses": ["1D2SKoXGqJ3n8bnoVcRT9HtmqsnDC94xVH"], "asm": "OP_DUP OP_HASH160 83e7109ecda9d36d23f11527f92d65b5c39672dd OP_EQUALVERIFY OP_CHECKSIG", "type": "pubkeyhash"}, "value": 6.38e-06, "n": 0}, {"scriptPubKey": {"reqSigs": 1, "hex": "76a914658261669cfc76e22daad75cdddc3952a300d86188ac", "addresses": ["1AFjSNPvJyGXDao4RGMaGasGiQ6fVdNBgG"], "asm": "OP_DUP OP_HASH160 658261669cfc76e22daad75cdddc3952a300d861 OP_EQUALVERIFY OP_CHECKSIG", "type": "pubkeyhash"}, "value": 0.81348688, "n": 1}], "hex": "010000000318febde815baa0fbd12b7aff1f39532c4bfaeabddfa94078590717e56faf00d4000000006b4830450221009a94f1f34f415376068145018d1c4eac1155b77adb211edc549822efe81f87de0220345c0fa616870cc104371c2e64217b6b92ba35a69f1e0d13ef4f669598fb02a00121027c037ae8b29aa92f0ed7d96d8da972f5d5bf56728056b6ef79aa47328940a2b2ffffffffb5bf6f15988aac86679a6d2627d9f8e6394d1fe21ff45ed899506c4ac5668fe9010000006a473044022011a4d32a345f4ba29394aea31730de3e16e800558de4a2b24d66eb5ff3b2163302206127a1b96856ee59ba996e76ad67235b64d6dc0ef464f653ae5bc223d3de6a7a01210323c8c92b0544a667b645332853bb5c1c6dca401dfdc7958033cd3f95b27a90b4ffffffffd1b5cad1f5d42f745c7c3365fae6c7236dd19d6bed1c863aad75165dfad11cf30a0000006a47304402200ac471f6f4ce6a42ca33e561ad1936bac9a29cff85008f3a9149a0d0448b1e5202206b6e8936b0a5483fcf88ec67b34a9191669c3db6b6788a8f09924286ea3b57e101210323c8c92b0544a667b645332853bb5c1c6dca401dfdc7958033cd3f95b27a90b4ffffffff027e020000000000001976a91483e7109ecda9d36d23f11527f92d65b5c39672dd88ac5048d904000000001976a914658261669cfc76e22daad75cdddc3952a300d86188ac00000000", "vin": [{"sequence": 4294967295, "scriptSig": {"hex": "4830450221009a94f1f34f415376068145018d1c4eac1155b77adb211edc549822efe81f87de0220345c0fa616870cc104371c2e64217b6b92ba35a69f1e0d13ef4f669598fb02a00121027c037ae8b29aa92f0ed7d96d8da972f5d5bf56728056b6ef79aa47328940a2b2", "asm": "30450221009a94f1f34f415376068145018d1c4eac1155b77adb211edc549822efe81f87de0220345c0fa616870cc104371c2e64217b6b92ba35a69f1e0d13ef4f669598fb02a0[ALL] 027c037ae8b29aa92f0ed7d96d8da972f5d5bf56728056b6ef79aa47328940a2b2"}, "vout": 0, "txid": "d400af6fe51707597840a9dfbdeafa4b2c53391fff7a2bd1fba0ba15e8bdfe18"}, {"sequence": 4294967295, "scriptSig": {"hex": "473044022011a4d32a345f4ba29394aea31730de3e16e800558de4a2b24d66eb5ff3b2163302206127a1b96856ee59ba996e76ad67235b64d6dc0ef464f653ae5bc223d3de6a7a01210323c8c92b0544a667b645332853bb5c1c6dca401dfdc7958033cd3f95b27a90b4", "asm": "3044022011a4d32a345f4ba29394aea31730de3e16e800558de4a2b24d66eb5ff3b2163302206127a1b96856ee59ba996e76ad67235b64d6dc0ef464f653ae5bc223d3de6a7a[ALL] 0323c8c92b0544a667b645332853bb5c1c6dca401dfdc7958033cd3f95b27a90b4"}, "vout": 1, "txid": "e98f66c54a6c5099d85ef41fe21f4d39e6f8d927266d9a6786ac8a98156fbfb5"}, {"sequence": 4294967295, "scriptSig": {"hex": "47304402200ac471f6f4ce6a42ca33e561ad1936bac9a29cff85008f3a9149a0d0448b1e5202206b6e8936b0a5483fcf88ec67b34a9191669c3db6b6788a8f09924286ea3b57e101210323c8c92b0544a667b645332853bb5c1c6dca401dfdc7958033cd3f95b27a90b4", "asm": "304402200ac471f6f4ce6a42ca33e561ad1936bac9a29cff85008f3a9149a0d0448b1e5202206b6e8936b0a5483fcf88ec67b34a9191669c3db6b6788a8f09924286ea3b57e1[ALL] 0323c8c92b0544a667b645332853bb5c1c6dca401dfdc7958033cd3f95b27a90b4"}, "vout": 10, "txid": "f31cd1fa5d1675ad3a861ced6b9dd16d23c7e6fa65337c5c742fd4f5d1cab5d1"}], "txid": "d8868b1e5e057f1cf9d70b85905cae32701b1a288009579ae16e8829d72c8c57", "blocktime": 1537872475, "version": 1, "confirmations": 11487, "time": 1537872475, "locktime": 0, "vsize": 520, "size": 520}