{"hash": "d88711e91c37f1016f6c55abea230039c260015478d3728385cbdda0525a15ba", "blockhash": "0000000000000000000e13cef7c366c0283d82e591d1acd082e914b08063cdf1", "vout": [{"scriptPubKey": {"reqSigs": 1, "hex": "a914d41f5d05b4bb328d111b9eff9c3c310c6442740687", "addresses": ["3M2ckNow2Mj9LyPZi7NXhn9aE2WX1gUZFP"], "asm": "OP_HASH160 d41f5d05b4bb328d111b9eff9c3c310c64427406 OP_EQUAL", "type": "scripthash"}, "value": 0.00551914, "n": 0}, {"scriptPubKey": {"reqSigs": 1, "hex": "76a91418066319e989e78aa4f368ee933c822c138124c688ac", "addresses": ["13C2sPXacRM42pqALN196aY2Smd5Y1L5PA"], "asm": "OP_DUP OP_HASH160 18066319e989e78aa4f368ee933c822c138124c6 OP_EQUALVERIFY OP_CHECKSIG", "type": "pubkeyhash"}, "value": 0.00955902, "n": 1}], "hex": "0100000001fd9866327e81f2dc46577850aeb9b40902c8164897504ffab179d337361752d9270000006b483045022100a98ef2986af156622ba7fa125bbb00a917ceaa51fe623fc7e9108f599ef28c93022071b88586a801d4f8ed77640d747712f046b01a9d75f9df991a5d017553cadc31012103a6d2d0419a2c5fc8ee5fa48607d1d07c87e4ad9f4e840e4d0e245ff4a9a8cea8ffffffff02ea6b08000000000017a914d41f5d05b4bb328d111b9eff9c3c310c6442740687fe950e00000000001976a91418066319e989e78aa4f368ee933c822c138124c688ac00000000", "vin": [{"sequence": 4294967295, "scriptSig": {"hex": "483045022100a98ef2986af156622ba7fa125bbb00a917ceaa51fe623fc7e9108f599ef28c93022071b88586a801d4f8ed77640d747712f046b01a9d75f9df991a5d017553cadc31012103a6d2d0419a2c5fc8ee5fa48607d1d07c87e4ad9f4e840e4d0e245ff4a9a8cea8", "asm": "3045022100a98ef2986af156622ba7fa125bbb00a917ceaa51fe623fc7e9108f599ef28c93022071b88586a801d4f8ed77640d747712f046b01a9d75f9df991a5d017553cadc31[ALL] 03a6d2d0419a2c5fc8ee5fa48607d1d07c87e4ad9f4e840e4d0e245ff4a9a8cea8"}, "vout": 39, "txid": "d952173637d379b1fa4f50974816c80209b4b9ae50785746dcf2817e326698fd"}], "txid": "d88711e91c37f1016f6c55abea230039c260015478d3728385cbdda0525a15ba", "blocktime": 1537871767, "version": 1, "confirmations": 11495, "time": 1537871767, "locktime": 0, "vsize": 224, "size": 224}