{"hash": "20791045e5c63ed2f5e90e52ff8863160b338a9550b87e5a1b0e8b77ac30bfac", "blockhash": "00000000000000000017f5eb5941039fbcee6240d03bc1f2f8e35350df66a1d8", "vout": [{"scriptPubKey": {"reqSigs": 1, "hex": "a91490bf4eaf1e5c5fef6373552314086569fbc0392387", "addresses": ["3EtNQSDyZFwHR6PEp8Q6ZJBdkFigTA23vs"], "asm": "OP_HASH160 90bf4eaf1e5c5fef6373552314086569fbc03923 OP_EQUAL", "type": "scripthash"}, "value": 0.00627, "n": 0}, {"scriptPubKey": {"reqSigs": 1, "hex": "a914def2637b11e5dd89540dcbff83feb4a80aeaaf6e87", "addresses": ["3N1rJatNSVqSSpBiZMRjKmTKGgvowP5dVJ"], "asm": "OP_HASH160 def2637b11e5dd89540dcbff83feb4a80aeaaf6e OP_EQUAL", "type": "scripthash"}, "value": 0.00341327, "n": 1}], "hex": "010000000001038505ac8a79b4e1c45dcc81afd91d93cdc38fa9f489a158e90a34eb866fa1875a01000000171600149cac3b6c63885370704641bd26fad177a03f93ffffffff001f0331d8c14c29195f64bcea8ba5256ad377c541bca312b215148f8fc0381aa500000000171600143631f08da7df082c94cd8f2ce0a9463db2104c7affffff00988b1905acde65fa823fe4020b532f5c8901e84e66f6212600449286e12909d501000000171600149fdbedb52cb52634dac350313ab35f16c13471dfffffff0002389109000000000017a91490bf4eaf1e5c5fef6373552314086569fbc03923874f3505000000000017a914def2637b11e5dd89540dcbff83feb4a80aeaaf6e8702483045022100c030e03e9af398c9a3402fa2fa4cb166e002ccb2518308424fd8509b4255126802205c1b27e99acec1eaeab2ee391aab92e6e2a58ba960f14d0bc3c4b882635f9d69012103bf04d1d0a4014f99a4d6fdf01d43c0cabe1569b31745b3a09d8250d078f285ee02473044022024c8e612f077b6d05a9372933b3eb26c121c60020f38cce5fa833cb9630db6120220599947647aa125b1028fb8dc1de359bb7f7f39449e794dca551f146143f827fe0121029817f231cfe8b0e5d78eb7d172d1293a31d8ea975201b7d327bfedf12248aa7302483045022100a1a1d6f82b916daf4c46f705863ed5880ffa2eda7c8e3dd9585d28cdce9be5d402203d58203d3b28112db284c272dffaa7e573d62a20e501ddcaad636c30331e40f2012102f81c315f00e13ce9dc3fa54fedda2bf930d05d79b02941bad5c615182fe15cf300000000", "vin": [{"txinwitness": ["3045022100c030e03e9af398c9a3402fa2fa4cb166e002ccb2518308424fd8509b4255126802205c1b27e99acec1eaeab2ee391aab92e6e2a58ba960f14d0bc3c4b882635f9d6901", "03bf04d1d0a4014f99a4d6fdf01d43c0cabe1569b31745b3a09d8250d078f285ee"], "sequence": 16777215, "scriptSig": {"hex": "1600149cac3b6c63885370704641bd26fad177a03f93ff", "asm": "00149cac3b6c63885370704641bd26fad177a03f93ff"}, "vout": 1, "txid": "5a87a16f86eb340ae958a189f4a98fc3cd931dd9af81cc5dc4e1b4798aac0585"}, {"txinwitness": ["3044022024c8e612f077b6d05a9372933b3eb26c121c60020f38cce5fa833cb9630db6120220599947647aa125b1028fb8dc1de359bb7f7f39449e794dca551f146143f827fe01", "029817f231cfe8b0e5d78eb7d172d1293a31d8ea975201b7d327bfedf12248aa73"], "sequence": 16777215, "scriptSig": {"hex": "1600143631f08da7df082c94cd8f2ce0a9463db2104c7a", "asm": "00143631f08da7df082c94cd8f2ce0a9463db2104c7a"}, "vout": 0, "txid": "a51a38c08f8f1415b212a3bc41c577d36a25a58beabc645f19294cc1d831031f"}, {"txinwitness": ["3045022100a1a1d6f82b916daf4c46f705863ed5880ffa2eda7c8e3dd9585d28cdce9be5d402203d58203d3b28112db284c272dffaa7e573d62a20e501ddcaad636c30331e40f201", "02f81c315f00e13ce9dc3fa54fedda2bf930d05d79b02941bad5c615182fe15cf3"], "sequence": 16777215, "scriptSig": {"hex": "1600149fdbedb52cb52634dac350313ab35f16c13471df", "asm": "00149fdbedb52cb52634dac350313ab35f16c13471df"}, "vout": 1, "txid": "d50929e1869244002621f6664ee801895c2f530b02e43f82fa65deac05198b98"}], "txid": "d8874796c1bcfc9f915302c634041e29ec9891b53f7155d7adf0e4c4a2bcbbd7", "blocktime": 1537874412, "version": 1, "confirmations": 11468, "time": 1537874412, "locktime": 0, "vsize": 348, "size": 591}