{"hash": "2a6f0b9ec62069625f12d5693258726a4a5e1cab7114f9a2d35b693f40f0201b", "blockhash": "0000000000000000000baef3f32e3676a92c3b2e5da21b426e4f302fc371ce76", "vout": [{"scriptPubKey": {"reqSigs": 1, "hex": "a914adb556557a9196bacf8ee3f7e0a227f3c295ed6887", "addresses": ["3HXW4GCX6E9dLNF1A3pjiasnCYzGcU3Q9p"], "asm": "OP_HASH160 adb556557a9196bacf8ee3f7e0a227f3c295ed68 OP_EQUAL", "type": "scripthash"}, "value": 0.0025666, "n": 0}, {"scriptPubKey": {"reqSigs": 1, "hex": "a914212bf8324dfbd20e8d3c9a8082a750291fca94bf87", "addresses": ["34iQtvt6UdM6QeA1cZarKQ659mb53NVTuk"], "asm": "OP_HASH160 212bf8324dfbd20e8d3c9a8082a750291fca94bf OP_EQUAL", "type": "scripthash"}, "value": 0.61974837, "n": 1}], "hex": "01000000000101371591f8c3d76c443525e885f3b29ceb4ca750d377f9d7a1f3b28c94952d298701000000232200208018f98a94d7cc532be93dee78fac1fcdaebd88363658a89524b468c1652db8cffffffff0294ea03000000000017a914adb556557a9196bacf8ee3f7e0a227f3c295ed688735a9b1030000000017a914212bf8324dfbd20e8d3c9a8082a750291fca94bf87040047304402207e60a018b09986a962efb48b6d8edd96f20ffc2f7845331b2983b8b09563cb6002203cfa03da31d8de253ffdbf9688de336ef2c99dcf122a67a66e6f8478b16b4d8401483045022100fd4976feeee4ac1434c9927e97034f96a406fcfe846d045c6f1008f3f6b37d9b022029bd40925d9de4296b4613680c7c58d4dc2759ccdb8af66671f542bbb7eaa6ce01695221029bbc65b9aa77295bd229c2ed8b1054b9c46440b2ba2fa1637578ab01dfe5af4121036152230b56688dcd1766d01ea711a03541fb6aadd4f1d3a4bde6fcc9e7681ef82103d176c1a51f3d9bd0bf0eba38f145ba35d6a7127186f4aa81d6c689dd211c45c653ae00000000", "vin": [{"txinwitness": ["", "304402207e60a018b09986a962efb48b6d8edd96f20ffc2f7845331b2983b8b09563cb6002203cfa03da31d8de253ffdbf9688de336ef2c99dcf122a67a66e6f8478b16b4d8401", "3045022100fd4976feeee4ac1434c9927e97034f96a406fcfe846d045c6f1008f3f6b37d9b022029bd40925d9de4296b4613680c7c58d4dc2759ccdb8af66671f542bbb7eaa6ce01", "5221029bbc65b9aa77295bd229c2ed8b1054b9c46440b2ba2fa1637578ab01dfe5af4121036152230b56688dcd1766d01ea711a03541fb6aadd4f1d3a4bde6fcc9e7681ef82103d176c1a51f3d9bd0bf0eba38f145ba35d6a7127186f4aa81d6c689dd211c45c653ae"], "sequence": 4294967295, "scriptSig": {"hex": "2200208018f98a94d7cc532be93dee78fac1fcdaebd88363658a89524b468c1652db8c", "asm": "00208018f98a94d7cc532be93dee78fac1fcdaebd88363658a89524b468c1652db8c"}, "vout": 1, "txid": "87292d95948cb2f3a1d7f977d350a74ceb9cb2f385e82535446cd7c3f8911537"}], "txid": "d88f35bc0a049770127b1773a208926668585f215fc9d2ba856085f69c13c525", "blocktime": 1537876114, "version": 1, "confirmations": 11460, "time": 1537876114, "locktime": 0, "vsize": 214, "size": 405}