{"hash": "30c6e3864b3c57cc51d78d0933c33d7b96a259f8243d5ca62940bdf2375bcad3", "blockhash": "0000000000000000000baef3f32e3676a92c3b2e5da21b426e4f302fc371ce76", "vout": [{"scriptPubKey": {"reqSigs": 1, "hex": "a91410bd4c8d2a45dd4eea206b6e05a2e447484baa3587", "addresses": ["33DXWLgYjTa3kuyxohqc9e6D9gYoVcLo3k"], "asm": "OP_HASH160 10bd4c8d2a45dd4eea206b6e05a2e447484baa35 OP_EQUAL", "type": "scripthash"}, "value": 0.01009976, "n": 0}, {"scriptPubKey": {"reqSigs": 1, "hex": "a9148321bac2202c2b1e12fe11bf27bf5f01f34f5b0587", "addresses": ["3DeNrEzKoUdDa6m3FJvp4jPBk1JrUfuUHz"], "asm": "OP_HASH160 8321bac2202c2b1e12fe11bf27bf5f01f34f5b05 OP_EQUAL", "type": "scripthash"}, "value": 0.0041776, "n": 1}], "hex": "0200000000010261e7c68700a4866b58792ea8a31caddecc96ea8c47d52e924bf1af044a731574000000001716001496dce58ec0c877842ab169906d3ccf7ab3677d66feffffffcc185d52738d9732132b60a30dde61e8aefd17fa3cd4630d70a650ef043d96ff0000000017160014d07e47c56f3fb769870a505739351439b3bab7aafeffffff0238690f000000000017a91410bd4c8d2a45dd4eea206b6e05a2e447484baa3587e05f06000000000017a9148321bac2202c2b1e12fe11bf27bf5f01f34f5b05870247304402202f790056e6d57fef241d25fa741066fc03fe28b6fcc3e52d68e64f30be55646902200b10577724632611c2827dd100a171c586cc34bab2395def2cd674031b567a88012103ba212d7942ca49d6769fbc5f40daa023cc691906c4c891516fe0d17d1f41f92e02473044022039611072094ccf8a704499b0b52074055deba3d5413d3117ade88a35598734fa02206bf8baf9581aec5eb054f32fe3c94c0d13abc1a1b9f4375b642c90cf4257dece0121032d01a069c433d0b87b1de4482286cd58b92d5da38498f3d010e95865104c6fcd17490800", "vin": [{"txinwitness": ["304402202f790056e6d57fef241d25fa741066fc03fe28b6fcc3e52d68e64f30be55646902200b10577724632611c2827dd100a171c586cc34bab2395def2cd674031b567a8801", "03ba212d7942ca49d6769fbc5f40daa023cc691906c4c891516fe0d17d1f41f92e"], "sequence": 4294967294, "scriptSig": {"hex": "16001496dce58ec0c877842ab169906d3ccf7ab3677d66", "asm": "001496dce58ec0c877842ab169906d3ccf7ab3677d66"}, "vout": 0, "txid": "7415734a04aff14b922ed5478cea96ccdead1ca3a82e79586b86a40087c6e761"}, {"txinwitness": ["3044022039611072094ccf8a704499b0b52074055deba3d5413d3117ade88a35598734fa02206bf8baf9581aec5eb054f32fe3c94c0d13abc1a1b9f4375b642c90cf4257dece01", "032d01a069c433d0b87b1de4482286cd58b92d5da38498f3d010e95865104c6fcd"], "sequence": 4294967294, "scriptSig": {"hex": "160014d07e47c56f3fb769870a505739351439b3bab7aa", "asm": "0014d07e47c56f3fb769870a505739351439b3bab7aa"}, "vout": 0, "txid": "ff963d04ef50a6700d63d43cfa17fdaee861de0da3602b1332978d73525d18cc"}], "txid": "d895dbd965790352768c5413b737ec6d9b8ff2dbe53cc3b13ecd38fa8a1b2b97", "blocktime": 1537876114, "version": 2, "confirmations": 11460, "time": 1537876114, "locktime": 542999, "vsize": 256, "size": 418}