{"hash": "7bd68d9953f6fb09e09735f263b236916f3dd337a35359c586a8bc37213d062a", "blockhash": "0000000000000000001cda96e906b7601b7a6fb1a3b62bca570a9e5d8f4b3de1", "vout": [{"scriptPubKey": {"reqSigs": 1, "hex": "00141d5ddfbc45b4f41a03255bac6114939a0e039e82", "addresses": ["bc1qr4wal0z9kn6p5qe9twkxz9ynng8q885ztdjclr"], "asm": "0 1d5ddfbc45b4f41a03255bac6114939a0e039e82", "type": "witness_v0_keyhash"}, "value": 0.00043379, "n": 0}, {"scriptPubKey": {"reqSigs": 1, "hex": "a914a761aafe2e3cdf149253fce861a5a87d627d90bf87", "addresses": ["3Gx3mfdr25oAUpB71aR6ce7WrsmAFx5UUf"], "asm": "OP_HASH160 a761aafe2e3cdf149253fce861a5a87d627d90bf OP_EQUAL", "type": "scripthash"}, "value": 0.0141411, "n": 1}], "hex": "01000000000101df7242b5914087fbaf84feba4073bb3e167a793ef2f8cf580fc9a9728b2a85cf0100000000ffffffff0273a90000000000001600141d5ddfbc45b4f41a03255bac6114939a0e039e82de9315000000000017a914a761aafe2e3cdf149253fce861a5a87d627d90bf8702483045022100c5b16fa6b1acc039fbab684810e4ff98d887d7cad35e97f3274603d7793eb460022038b4dc97f6418f5c06e055017a7d1b598d3d4c9ea79c9af91a5704384c2b86df012102e9e3b25b0b427315ddbb7c5016162de4c3b22b22998162cd5746a55920f6b83900000000", "vin": [{"txinwitness": ["3045022100c5b16fa6b1acc039fbab684810e4ff98d887d7cad35e97f3274603d7793eb460022038b4dc97f6418f5c06e055017a7d1b598d3d4c9ea79c9af91a5704384c2b86df01", "02e9e3b25b0b427315ddbb7c5016162de4c3b22b22998162cd5746a55920f6b839"], "sequence": 4294967295, "scriptSig": {"hex": "", "asm": ""}, "vout": 1, "txid": "cf852a8b72a9c90f58cff8f23e797a163ebb7340bafe84affb874091b54272df"}], "txid": "d89bc1e073d070b454f546c5b40c98b9283e20665453d7c7a5fd9309ebd4b123", "blocktime": 1537873282, "version": 1, "confirmations": 11484, "time": 1537873282, "locktime": 0, "vsize": 142, "size": 224}