{"hash": "d8a122553bd3d88a7067fb8e9095b0a65b3997f4b831adec4be2fbe85e0b66b4", "blockhash": "0000000000000000001e0dab787dd257d1dbfcb92a98c2207d5e1078be1f4165", "vout": [{"scriptPubKey": {"reqSigs": 1, "hex": "76a9146c969a455b84aeae5ea5579313639cd050c62de088ac", "addresses": ["1AuAPmjQYKoMWNG2EbGU6G8GTTemH92ZJZ"], "asm": "OP_DUP OP_HASH160 6c969a455b84aeae5ea5579313639cd050c62de0 OP_EQUALVERIFY OP_CHECKSIG", "type": "pubkeyhash"}, "value": 0.00042025, "n": 0}], "hex": "01000000043d348eb3ad9c9b78ca95d39181751ad683d69f2bd6277543df5c405f3657dc10000000006b483045022100c7e65c426da29aa27a3267d85eac1c1ac7cada2b55081cc98f3343813548092202202c150e92408e8feadec2b16ac39abc68d2c7f104121c87500c0cae10ce2b61b401210208983ba7b484b65ebac1a28afd7f0b87e6f8787f84a74549a0b19e772a88e160ffffffffa85f5241bd142278cc553368da2fe97bef868e4d1ef6ee05fadccd134a5df235000000006a473044022026cb2ef643f0da3484000664fdaafe0e8ad3ea30d151b54cdea2bfc054062ae3022046f5a2a9fc19a240555216cc151bed62e86a96d7cbcb24b0c2277247b0ee42d6012102a9a4137068cea8b7024680261485ab9cb4eda4b3b8452f75d046ac8b3e8eb806ffffffff7c51ba8f5f1f682c3bbdd3f26e45b9717c4c5cd6bb61de0d4398bb87ec963547000000006a4730440220487a0e50eeaa65e6fabf5da9991bdfed114a2018b33b576f87d1160f5f13b71e02206ef5f63bd428e79e73ba059c12d4c5a5f03547dd03754108224cace591194a53012102f1b015dd1eb2ad3664edf7165d81c61b4959d2fc07bd76f494f692897c786fd7ffffffff348766ed333a50f9fa5d45d48b36dfc96fb3ef91c86ae245a3604273403c24d9000000006a473044022001c6e93edcac931202c2abf1033ff63565d333eeeebc8ced5d1ae45bc3dda4c902207f6c319f70f9e4c5a663ce591e02c210c59fb68230464047198c9e729c28db2b012103c67e69290d39257c82e2b10b1ef73772efa8a001c12c005f5314638d315ea337ffffffff0129a40000000000001976a9146c969a455b84aeae5ea5579313639cd050c62de088ac00000000", "vin": [{"sequence": 4294967295, "scriptSig": {"hex": "483045022100c7e65c426da29aa27a3267d85eac1c1ac7cada2b55081cc98f3343813548092202202c150e92408e8feadec2b16ac39abc68d2c7f104121c87500c0cae10ce2b61b401210208983ba7b484b65ebac1a28afd7f0b87e6f8787f84a74549a0b19e772a88e160", "asm": "3045022100c7e65c426da29aa27a3267d85eac1c1ac7cada2b55081cc98f3343813548092202202c150e92408e8feadec2b16ac39abc68d2c7f104121c87500c0cae10ce2b61b4[ALL] 0208983ba7b484b65ebac1a28afd7f0b87e6f8787f84a74549a0b19e772a88e160"}, "vout": 0, "txid": "10dc57365f405cdf437527d62b9fd683d61a758191d395ca789b9cadb38e343d"}, {"sequence": 4294967295, "scriptSig": {"hex": "473044022026cb2ef643f0da3484000664fdaafe0e8ad3ea30d151b54cdea2bfc054062ae3022046f5a2a9fc19a240555216cc151bed62e86a96d7cbcb24b0c2277247b0ee42d6012102a9a4137068cea8b7024680261485ab9cb4eda4b3b8452f75d046ac8b3e8eb806", "asm": "3044022026cb2ef643f0da3484000664fdaafe0e8ad3ea30d151b54cdea2bfc054062ae3022046f5a2a9fc19a240555216cc151bed62e86a96d7cbcb24b0c2277247b0ee42d6[ALL] 02a9a4137068cea8b7024680261485ab9cb4eda4b3b8452f75d046ac8b3e8eb806"}, "vout": 0, "txid": "35f25d4a13cddcfa05eef61e4d8e86ef7be92fda683355cc782214bd41525fa8"}, {"sequence": 4294967295, "scriptSig": {"hex": "4730440220487a0e50eeaa65e6fabf5da9991bdfed114a2018b33b576f87d1160f5f13b71e02206ef5f63bd428e79e73ba059c12d4c5a5f03547dd03754108224cace591194a53012102f1b015dd1eb2ad3664edf7165d81c61b4959d2fc07bd76f494f692897c786fd7", "asm": "30440220487a0e50eeaa65e6fabf5da9991bdfed114a2018b33b576f87d1160f5f13b71e02206ef5f63bd428e79e73ba059c12d4c5a5f03547dd03754108224cace591194a53[ALL] 02f1b015dd1eb2ad3664edf7165d81c61b4959d2fc07bd76f494f692897c786fd7"}, "vout": 0, "txid": "473596ec87bb98430dde61bbd65c4c7c71b9456ef2d3bd3b2c681f5f8fba517c"}, {"sequence": 4294967295, "scriptSig": {"hex": "473044022001c6e93edcac931202c2abf1033ff63565d333eeeebc8ced5d1ae45bc3dda4c902207f6c319f70f9e4c5a663ce591e02c210c59fb68230464047198c9e729c28db2b012103c67e69290d39257c82e2b10b1ef73772efa8a001c12c005f5314638d315ea337", "asm": "3044022001c6e93edcac931202c2abf1033ff63565d333eeeebc8ced5d1ae45bc3dda4c902207f6c319f70f9e4c5a663ce591e02c210c59fb68230464047198c9e729c28db2b[ALL] 03c67e69290d39257c82e2b10b1ef73772efa8a001c12c005f5314638d315ea337"}, "vout": 0, "txid": "d9243c40734260a345e26ac891efb36fc9df368bd4455dfaf9503a33ed668734"}], "txid": "d8a122553bd3d88a7067fb8e9095b0a65b3997f4b831adec4be2fbe85e0b66b4", "blocktime": 1537872475, "version": 1, "confirmations": 11487, "time": 1537872475, "locktime": 0, "vsize": 633, "size": 633}