{"hash": "d8a6456eeb01283213dfb031608a1bc09a63fd188cd8c6575a60bf793e611481", "blockhash": "0000000000000000001e0dab787dd257d1dbfcb92a98c2207d5e1078be1f4165", "vout": [{"scriptPubKey": {"reqSigs": 1, "hex": "a91461def78766521b64974b81846505fbf79108110187", "addresses": ["3AcWaATEygMHSYk63Ra7grvPeehtR6RfYS"], "asm": "OP_HASH160 61def78766521b64974b81846505fbf791081101 OP_EQUAL", "type": "scripthash"}, "value": 0.028133, "n": 0}, {"scriptPubKey": {"reqSigs": 1, "hex": "76a91476f0eda8151eb9518dcb90f747d38692370f191588ac", "addresses": ["1BquMdbV3cS5PMbpJbZ5VBLQsT6BnqEjDV"], "asm": "OP_DUP OP_HASH160 76f0eda8151eb9518dcb90f747d38692370f1915 OP_EQUALVERIFY OP_CHECKSIG", "type": "pubkeyhash"}, "value": 2.01742475, "n": 1}], "hex": "01000000018adedb7614b6ec0efb053051bc9c4018728364e1c1b651f23c9a25e9efbee198010000006a47304402206962dac0f86927174ad6631f93ac933a7ef6041ad41287cdc0ef1e0cdd97e004022071c88bb9ce0b1acd811d0a13511b0237324d699daf6eb60ab1cb4dc36c33b09b012103e076fd8d6f693ceb92bf0eda25e501a63c7884299b475843766d11a1b2117f27ffffffff0274ed2a000000000017a91461def78766521b64974b81846505fbf791081101878b58060c000000001976a91476f0eda8151eb9518dcb90f747d38692370f191588ac00000000", "vin": [{"sequence": 4294967295, "scriptSig": {"hex": "47304402206962dac0f86927174ad6631f93ac933a7ef6041ad41287cdc0ef1e0cdd97e004022071c88bb9ce0b1acd811d0a13511b0237324d699daf6eb60ab1cb4dc36c33b09b012103e076fd8d6f693ceb92bf0eda25e501a63c7884299b475843766d11a1b2117f27", "asm": "304402206962dac0f86927174ad6631f93ac933a7ef6041ad41287cdc0ef1e0cdd97e004022071c88bb9ce0b1acd811d0a13511b0237324d699daf6eb60ab1cb4dc36c33b09b[ALL] 03e076fd8d6f693ceb92bf0eda25e501a63c7884299b475843766d11a1b2117f27"}, "vout": 1, "txid": "98e1beefe9259a3cf251b6c1e164837218409cbc513005fb0eecb61476dbde8a"}], "txid": "d8a6456eeb01283213dfb031608a1bc09a63fd188cd8c6575a60bf793e611481", "blocktime": 1537872475, "version": 1, "confirmations": 11487, "time": 1537872475, "locktime": 0, "vsize": 223, "size": 223}