{"hash": "d8a873c4046b63a5ffbd006b150f6e1c16f3a681cfc20b49bb8af51f80a29517", "blockhash": "0000000000000000000dcc0f55137456b1a82d3642486a52398922ac4d620174", "vout": [{"scriptPubKey": {"type": "nulldata", "hex": "6a146f6d6e69000000000000001f00000007ea8ed400", "asm": "OP_RETURN 6f6d6e69000000000000001f00000007ea8ed400"}, "value": 0.0, "n": 0}, {"scriptPubKey": {"reqSigs": 1, "hex": "76a914b8577e7b978f25ed311026bc50637b310c4dc68688ac", "addresses": ["1Hoi9VWi7fdH2DEWHV5RmRWdhJK44LHxSx"], "asm": "OP_DUP OP_HASH160 b8577e7b978f25ed311026bc50637b310c4dc686 OP_EQUALVERIFY OP_CHECKSIG", "type": "pubkeyhash"}, "value": 5.46e-06, "n": 1}, {"scriptPubKey": {"reqSigs": 1, "hex": "76a914284b1f894ca72430de8f19952125b6016a9dc7c688ac", "addresses": ["14g42KnXkRFfR8cUtS5tReprjeNvGQKW9v"], "asm": "OP_DUP OP_HASH160 284b1f894ca72430de8f19952125b6016a9dc7c6 OP_EQUALVERIFY OP_CHECKSIG", "type": "pubkeyhash"}, "value": 0.14440102, "n": 2}], "hex": "0100000001af33aa257a2603501a76bf3ef8794289bda9f1311e2ad49b67cca98b01e84fa4010000006a47304402201ee9681e056e23609bcd0e360d08fb7da4e396f8f0ce55c85a9351af1d3d5af70220275b2d4339762c4d2ba1f8d3147613df798a48c40d191de6993310c172a292ca01210392260b2475e9dec1855e89404d00787579055270f3f1619ec29bd64ed6a6dd7dfeffffff030000000000000000166a146f6d6e69000000000000001f00000007ea8ed40022020000000000001976a914b8577e7b978f25ed311026bc50637b310c4dc68688aca656dc00000000001976a914284b1f894ca72430de8f19952125b6016a9dc7c688ac0c490800", "vin": [{"sequence": 4294967294, "scriptSig": {"hex": "47304402201ee9681e056e23609bcd0e360d08fb7da4e396f8f0ce55c85a9351af1d3d5af70220275b2d4339762c4d2ba1f8d3147613df798a48c40d191de6993310c172a292ca01210392260b2475e9dec1855e89404d00787579055270f3f1619ec29bd64ed6a6dd7d", "asm": "304402201ee9681e056e23609bcd0e360d08fb7da4e396f8f0ce55c85a9351af1d3d5af70220275b2d4339762c4d2ba1f8d3147613df798a48c40d191de6993310c172a292ca[ALL] 0392260b2475e9dec1855e89404d00787579055270f3f1619ec29bd64ed6a6dd7d"}, "vout": 1, "txid": "a44fe8018ba9cc679bd42a1e31f1a9bd894279f83ebf761a5003267a25aa33af"}], "txid": "d8a873c4046b63a5ffbd006b150f6e1c16f3a681cfc20b49bb8af51f80a29517", "blocktime": 1537870268, "version": 1, "confirmations": 11516, "time": 1537870268, "locktime": 542988, "vsize": 256, "size": 256}