{"hash": "34096a24707d1d03af64754a0bc6f391a6b03103e3e2ee25bdd5ef952f91a2e4", "blockhash": "00000000000000000024a2167bbff67b0be802c0b01cdd79e6331c2be6459f87", "vout": [{"scriptPubKey": {"reqSigs": 1, "hex": "76a9148b324b6770542f61cef89a2316ffbee422f81d6e88ac", "addresses": ["1Dh1BC4w4WFPsx6CyN4ewP97yRBLTB6zwH"], "asm": "OP_DUP OP_HASH160 8b324b6770542f61cef89a2316ffbee422f81d6e OP_EQUALVERIFY OP_CHECKSIG", "type": "pubkeyhash"}, "value": 0.00273682, "n": 0}, {"scriptPubKey": {"reqSigs": 1, "hex": "76a91438dc3a1e76e6a214c30b8873d7ba0cebac9435b888ac", "addresses": ["16BefPJruYcNVGyDJh2NrRuqVNiEWQkefG"], "asm": "OP_DUP OP_HASH160 38dc3a1e76e6a214c30b8873d7ba0cebac9435b8 OP_EQUALVERIFY OP_CHECKSIG", "type": "pubkeyhash"}, "value": 0.03051886, "n": 1}, {"scriptPubKey": {"reqSigs": 1, "hex": "a914b0781e115b1916a8d85b7eb7f5a2272050614cf387", "addresses": ["3Hn6kDJ9GCKAzEuyMuQoQC2xfPjk1Rm1Pv"], "asm": "OP_HASH160 b0781e115b1916a8d85b7eb7f5a2272050614cf3 OP_EQUAL", "type": "scripthash"}, "value": 0.0057438, "n": 2}, {"scriptPubKey": {"reqSigs": 1, "hex": "76a91429f6dd6d260ab0d39925c8b3f91009195d333db188ac", "addresses": ["14ptSLrKrMX1TR28zeh33piaQNRqoeZGwv"], "asm": "OP_DUP OP_HASH160 29f6dd6d260ab0d39925c8b3f91009195d333db1 OP_EQUALVERIFY OP_CHECKSIG", "type": "pubkeyhash"}, "value": 0.01082472, "n": 3}, {"scriptPubKey": {"reqSigs": 1, "hex": "76a9142fbca95c68b716ddb0cd8e98836582a8cfe672e388ac", "addresses": ["15MQmTBimJbXfF2KnX41UfWXS42zSYfsNk"], "asm": "OP_DUP OP_HASH160 2fbca95c68b716ddb0cd8e98836582a8cfe672e3 OP_EQUALVERIFY OP_CHECKSIG", "type": "pubkeyhash"}, "value": 0.08508616, "n": 4}], "hex": "020000000001041b947deccd64a10e507ff4d4b0c98b7b2f53fa458860ec51c448f03f5be38b6b010000006b483045022100e7a634c1b091da5f483aa886e14b22a2f6f21b402e040af710569c2c54cf839a02202dc29b8ed8a3c15498ab81c5c5ef1b37a0365d990b58d29f826576fd53efa92a01210321cf239400fdbd758bbadb7aebb199bf435c3d0e3236f3dff82cc8063287b86dfeffffff3ed74be1971b1b777534c83d07b8fc6c84642e0d78f37563a1124597fcf30340000000001716001478ddf6e3945391352c1bab8665784b1ab5778d59feffffff8f385833af62becea30f348c85d22cd877fbecbc44b6590b4ddac13916ab49bb010000006b4830450221008a1b37949da0c3b03e444c514581e29b97f9f37715478b4f29de8cb85d3430f70220142c6a4e25d3149ce1f7174c02c6c31fcf269b98b9a24a24eaa6d08a66d33036012103c04a73d239d19569e68fa6b20350a94ea7c5079eb47c4094f883c84122c6b74efeffffffbcbf84bd9116157258c1843d2fc53d16814fde8bd6954a7d093ae023a4fab463000000006b48304502210098d3ccf4c3b97a25741d3a1b4cc50e4a09e1d50d3078ea42ae21a0157eba6bad022005e7d6c4eb9b63d06d3bb2a7ac0a3b9002b06c45d8ee3132f9252592b788994a01210389ea2ecd8cf69c5019a655710ca4dc8136a0eedde64bdf307b8778a64622620ffeffffff05122d0400000000001976a9148b324b6770542f61cef89a2316ffbee422f81d6e88ac6e912e00000000001976a91438dc3a1e76e6a214c30b8873d7ba0cebac9435b888acacc308000000000017a914b0781e115b1916a8d85b7eb7f5a2272050614cf38768841000000000001976a91429f6dd6d260ab0d39925c8b3f91009195d333db188acc8d48100000000001976a9142fbca95c68b716ddb0cd8e98836582a8cfe672e388ac000247304402200b44f1daba2951cb719d77cad18ebc93ef999cb4fb9ba0298d488dddec7a2d89022068d84e26096d6f070da4fe870da69fb208f83e957a66158830683de31af9eaee0121021ddcb46818fb89840621f2de678c43232d1ae5535b2316d9818030735c4880690000f7480800", "vin": [{"sequence": 4294967294, "scriptSig": {"hex": "483045022100e7a634c1b091da5f483aa886e14b22a2f6f21b402e040af710569c2c54cf839a02202dc29b8ed8a3c15498ab81c5c5ef1b37a0365d990b58d29f826576fd53efa92a01210321cf239400fdbd758bbadb7aebb199bf435c3d0e3236f3dff82cc8063287b86d", "asm": "3045022100e7a634c1b091da5f483aa886e14b22a2f6f21b402e040af710569c2c54cf839a02202dc29b8ed8a3c15498ab81c5c5ef1b37a0365d990b58d29f826576fd53efa92a[ALL] 0321cf239400fdbd758bbadb7aebb199bf435c3d0e3236f3dff82cc8063287b86d"}, "vout": 1, "txid": "6b8be35b3ff048c451ec608845fa532f7b8bc9b0d4f47f500ea164cdec7d941b"}, {"txinwitness": ["304402200b44f1daba2951cb719d77cad18ebc93ef999cb4fb9ba0298d488dddec7a2d89022068d84e26096d6f070da4fe870da69fb208f83e957a66158830683de31af9eaee01", "021ddcb46818fb89840621f2de678c43232d1ae5535b2316d9818030735c488069"], "sequence": 4294967294, "scriptSig": {"hex": "16001478ddf6e3945391352c1bab8665784b1ab5778d59", "asm": "001478ddf6e3945391352c1bab8665784b1ab5778d59"}, "vout": 0, "txid": "4003f3fc974512a16375f3780d2e64846cfcb8073dc83475771b1b97e14bd73e"}, {"sequence": 4294967294, "scriptSig": {"hex": "4830450221008a1b37949da0c3b03e444c514581e29b97f9f37715478b4f29de8cb85d3430f70220142c6a4e25d3149ce1f7174c02c6c31fcf269b98b9a24a24eaa6d08a66d33036012103c04a73d239d19569e68fa6b20350a94ea7c5079eb47c4094f883c84122c6b74e", "asm": "30450221008a1b37949da0c3b03e444c514581e29b97f9f37715478b4f29de8cb85d3430f70220142c6a4e25d3149ce1f7174c02c6c31fcf269b98b9a24a24eaa6d08a66d33036[ALL] 03c04a73d239d19569e68fa6b20350a94ea7c5079eb47c4094f883c84122c6b74e"}, "vout": 1, "txid": "bb49ab1639c1da4d0b59b644bcecfb77d82cd2858c340fa3cebe62af3358388f"}, {"sequence": 4294967294, "scriptSig": {"hex": "48304502210098d3ccf4c3b97a25741d3a1b4cc50e4a09e1d50d3078ea42ae21a0157eba6bad022005e7d6c4eb9b63d06d3bb2a7ac0a3b9002b06c45d8ee3132f9252592b788994a01210389ea2ecd8cf69c5019a655710ca4dc8136a0eedde64bdf307b8778a64622620f", "asm": "304502210098d3ccf4c3b97a25741d3a1b4cc50e4a09e1d50d3078ea42ae21a0157eba6bad022005e7d6c4eb9b63d06d3bb2a7ac0a3b9002b06c45d8ee3132f9252592b788994a[ALL] 0389ea2ecd8cf69c5019a655710ca4dc8136a0eedde64bdf307b8778a64622620f"}, "vout": 0, "txid": "63b4faa423e03a097d4a95d68bde4f81163dc52f3d84c15872151691bd84bfbc"}], "txid": "d8ad50405f88c7630498d9d38208530d6d4232809669d8f65eb79a2a9f393755", "blocktime": 1537870564, "version": 2, "confirmations": 11515, "time": 1537870564, "locktime": 542967, "vsize": 714, "size": 798}