{"hash": "004a68658f06b95f5c577c5b6be082ca8d56316881adebaa3af320c4d58df025", "blockhash": "0000000000000000001f76057863aec43deb6fa401d9628bb513d65a8098bfab", "vout": [{"scriptPubKey": {"reqSigs": 1, "hex": "a914f24a6044cc6b8cd5fb4f795816fe72b458f4cc5587", "addresses": ["3Pn8YhriYVpwjSQb8m3kFmQ9qrHfNKpX3N"], "asm": "OP_HASH160 f24a6044cc6b8cd5fb4f795816fe72b458f4cc55 OP_EQUAL", "type": "scripthash"}, "value": 0.03, "n": 0}, {"scriptPubKey": {"reqSigs": 1, "hex": "a914ba9f0b66ff0118fe225487186a4d8c31e1e5c93087", "addresses": ["3Jhn8qF8wMr2NGu8tEy1WC3Sczv5LB2Rbj"], "asm": "OP_HASH160 ba9f0b66ff0118fe225487186a4d8c31e1e5c930 OP_EQUAL", "type": "scripthash"}, "value": 0.01028783, "n": 1}], "hex": "02000000000101c9d3117831c3c2cf6dd7a47bbf6c56f3b046c8430865af76978b394940c7d3ed29000000171600140142588803247ee2ec16d5b90c21a17be7bba075fdffffff02c0c62d000000000017a914f24a6044cc6b8cd5fb4f795816fe72b458f4cc5587afb20f000000000017a914ba9f0b66ff0118fe225487186a4d8c31e1e5c930870247304402202062ab6b6e875dc9d9074e0fc9f9550473fc59a25a2be29b06fffb3dd201aa3202202239a97f735b4d0c80f6c03a5ef839b78d559a1268ecd2455c7bd1fc04cfa67f01210323066a98da6d2e3d70a7fc6bdf2a9993c0cdd1ae11fec0d86bf35f636d802e7600000000", "vin": [{"txinwitness": ["304402202062ab6b6e875dc9d9074e0fc9f9550473fc59a25a2be29b06fffb3dd201aa3202202239a97f735b4d0c80f6c03a5ef839b78d559a1268ecd2455c7bd1fc04cfa67f01", "0323066a98da6d2e3d70a7fc6bdf2a9993c0cdd1ae11fec0d86bf35f636d802e76"], "sequence": 4294967293, "scriptSig": {"hex": "1600140142588803247ee2ec16d5b90c21a17be7bba075", "asm": "00140142588803247ee2ec16d5b90c21a17be7bba075"}, "vout": 41, "txid": "edd3c74049398b9776af650843c846b0f3566cbf7ba4d76dcfc2c3317811d3c9"}], "txid": "d8b168a95aa56b82326aa7d5cea798a42e1cd4f7d922b017c48c208b1b1a8a96", "blocktime": 1537873891, "version": 2, "confirmations": 11478, "time": 1537873891, "locktime": 0, "vsize": 166, "size": 247}