{"hash": "d8b33ecc068bf257f2ed0aed6fae1917eb884dcc82dfb7a4482591b1729d044c", "blockhash": "0000000000000000001f76057863aec43deb6fa401d9628bb513d65a8098bfab", "vout": [{"scriptPubKey": {"reqSigs": 1, "hex": "76a9149654f70344937262cbd7bd38fb1bac15c407e32088ac", "addresses": ["1Eht9ErYcAby8MzeJ5VG55uRxCYnqEe7GR"], "asm": "OP_DUP OP_HASH160 9654f70344937262cbd7bd38fb1bac15c407e320 OP_EQUALVERIFY OP_CHECKSIG", "type": "pubkeyhash"}, "value": 0.00460522, "n": 0}, {"scriptPubKey": {"reqSigs": 1, "hex": "a914f5d492ef1939701aa3c8edb3eae2845dc05ee11887", "addresses": ["3Q6r8SUDKaF7y585q76yFnYgREfhce8ixg"], "asm": "OP_HASH160 f5d492ef1939701aa3c8edb3eae2845dc05ee118 OP_EQUAL", "type": "scripthash"}, "value": 0.009, "n": 1}], "hex": "01000000017326d8bea88269adff34f27fc22bcc50cdd9d188ea18c748e708839ab69898c8020000006b483045022100943b6ad070a145ddfaab04128f99c454b19710b85df5e113bc460e08a256a0e102202a729942488e0cee9b1082db5fca9cbbe904d976799be6da7b68bddd056622830121028155c275a879205d8d3eb2b85aec57c3d487918bbf7e783f8fec57a574f8931cffffffff02ea060700000000001976a9149654f70344937262cbd7bd38fb1bac15c407e32088aca0bb0d000000000017a914f5d492ef1939701aa3c8edb3eae2845dc05ee1188700000000", "vin": [{"sequence": 4294967295, "scriptSig": {"hex": "483045022100943b6ad070a145ddfaab04128f99c454b19710b85df5e113bc460e08a256a0e102202a729942488e0cee9b1082db5fca9cbbe904d976799be6da7b68bddd056622830121028155c275a879205d8d3eb2b85aec57c3d487918bbf7e783f8fec57a574f8931c", "asm": "3045022100943b6ad070a145ddfaab04128f99c454b19710b85df5e113bc460e08a256a0e102202a729942488e0cee9b1082db5fca9cbbe904d976799be6da7b68bddd05662283[ALL] 028155c275a879205d8d3eb2b85aec57c3d487918bbf7e783f8fec57a574f8931c"}, "vout": 2, "txid": "c89898b69a8308e748c718ea88d1d9cd50cc2bc27ff234ffad6982a8bed82673"}], "txid": "d8b33ecc068bf257f2ed0aed6fae1917eb884dcc82dfb7a4482591b1729d044c", "blocktime": 1537873891, "version": 1, "confirmations": 11478, "time": 1537873891, "locktime": 0, "vsize": 224, "size": 224}