{"hash": "d8b3497c8d8b1e79fc559d6030dca832bcf0ecffbc6661054b32e67066f0e8aa", "blockhash": "0000000000000000000baef3f32e3676a92c3b2e5da21b426e4f302fc371ce76", "vout": [{"scriptPubKey": {"type": "nulldata", "hex": "6a4c500000783400010a53450cfc10e8d6c32ccfec27b7256b4774d339f6019d6ddc0f1b8ff11780309731b4121d73dcd1c4c53523ba425baa1f680614324c36cb570ebc9a9526289ac0f6612cd74e33776ee4", "asm": "OP_RETURN 0000783400010a53450cfc10e8d6c32ccfec27b7256b4774d339f6019d6ddc0f1b8ff11780309731b4121d73dcd1c4c53523ba425baa1f680614324c36cb570ebc9a9526289ac0f6612cd74e33776ee4"}, "value": 0.0, "n": 0}, {"scriptPubKey": {"reqSigs": 1, "hex": "76a91462bc664ab503e98d2fa34885015a597eecd8201188ac", "addresses": ["1A14v2pzkTnZnBpTw1Kb9yXGobrFdzHFDf"], "asm": "OP_DUP OP_HASH160 62bc664ab503e98d2fa34885015a597eecd82011 OP_EQUALVERIFY OP_CHECKSIG", "type": "pubkeyhash"}, "value": 0.000619, "n": 1}], "hex": "0100000001e17ced488d26d67b3d1c05ad19edaa0c05df174bf0b78896f7b494ec5da54a36000000006b483045022100fa61112afcb520f0b5b32e3a42b0eeafdd8fa81edd6b29cc9a3c7d65633a24eb022074c7157359af67d252770d1d31086293761f5a5936e3b4b8ee6855334afcf89a0121022bbe9550c5fe227859917047eab9aedc47ddb4951a318850bb35d2324324346affffffff020000000000000000536a4c500000783400010a53450cfc10e8d6c32ccfec27b7256b4774d339f6019d6ddc0f1b8ff11780309731b4121d73dcd1c4c53523ba425baa1f680614324c36cb570ebc9a9526289ac0f6612cd74e33776ee4ccf10000000000001976a91462bc664ab503e98d2fa34885015a597eecd8201188ac00000000", "vin": [{"sequence": 4294967295, "scriptSig": {"hex": "483045022100fa61112afcb520f0b5b32e3a42b0eeafdd8fa81edd6b29cc9a3c7d65633a24eb022074c7157359af67d252770d1d31086293761f5a5936e3b4b8ee6855334afcf89a0121022bbe9550c5fe227859917047eab9aedc47ddb4951a318850bb35d2324324346a", "asm": "3045022100fa61112afcb520f0b5b32e3a42b0eeafdd8fa81edd6b29cc9a3c7d65633a24eb022074c7157359af67d252770d1d31086293761f5a5936e3b4b8ee6855334afcf89a[ALL] 022bbe9550c5fe227859917047eab9aedc47ddb4951a318850bb35d2324324346a"}, "vout": 0, "txid": "364aa55dec94b4f79688b7f04b17df050caaed19ad051c3d7bd6268d48ed7ce1"}], "txid": "d8b3497c8d8b1e79fc559d6030dca832bcf0ecffbc6661054b32e67066f0e8aa", "blocktime": 1537876114, "version": 1, "confirmations": 11462, "time": 1537876114, "locktime": 0, "vsize": 284, "size": 284}