{"hash": "628decfb78f06153fc95a34a9eaad50429efafed32a15eb9f7a9ab6b1d685a9d", "blockhash": "00000000000000000024a2167bbff67b0be802c0b01cdd79e6331c2be6459f87", "vout": [{"scriptPubKey": {"reqSigs": 1, "hex": "76a9142e264618f0e1e6335cc136cabcb656ee4974a86688ac", "addresses": ["15D1w8sVchdJosrtrnGQzy6twKkJsghjvZ"], "asm": "OP_DUP OP_HASH160 2e264618f0e1e6335cc136cabcb656ee4974a866 OP_EQUALVERIFY OP_CHECKSIG", "type": "pubkeyhash"}, "value": 0.11298151, "n": 0}, {"scriptPubKey": {"reqSigs": 1, "hex": "a914fd239537fb26e9489d3606be3dbcd7d47a3845db87", "addresses": ["3QmVWRG26AQQQ81nozjYc9Tu8RehVTM2E7"], "asm": "OP_HASH160 fd239537fb26e9489d3606be3dbcd7d47a3845db OP_EQUAL", "type": "scripthash"}, "value": 0.01676843, "n": 1}], "hex": "02000000000102eb2bbfda8dfbcf30257bd57cf4a99c800bb042c193b498a928f4e4cb97d2352a01000000171600146ffdceb70228409875a6dbc12ad98267c8696563fefffffff593dde00dc1295b8cf940f21b59a623dc6b864db566c04ee26e47100c1b7fc701000000171600148901bf3e4d9adc29d99b449bb40376fe2e9a50f3feffffff026765ac00000000001976a9142e264618f0e1e6335cc136cabcb656ee4974a86688ac2b9619000000000017a914fd239537fb26e9489d3606be3dbcd7d47a3845db8702473044022069b183c7af810c2eda57586b92a355844ec51ccf81e234f4312b9ddd0c4878fd02203b24d96244302de7aef76c45ae85c006ea593dd1d58697e41e320eb47ef2d89e0121039b82103ba1ac8e6907d738b3b8b5825fa272ed07e2896d597aa555412897e23302483045022100ea4aaa02c90898bb85f0320a979236cb2a98ae2f37cafa7ad409a4b637f38423022036e847207a69020a1c6f73a44f23d13be661e3374538931113165b1b30f5f0130121029893ef23e5f8cba580b812f842152591990f625b943d1a692d3a19433e34717b0d490800", "vin": [{"txinwitness": ["3044022069b183c7af810c2eda57586b92a355844ec51ccf81e234f4312b9ddd0c4878fd02203b24d96244302de7aef76c45ae85c006ea593dd1d58697e41e320eb47ef2d89e01", "039b82103ba1ac8e6907d738b3b8b5825fa272ed07e2896d597aa555412897e233"], "sequence": 4294967294, "scriptSig": {"hex": "1600146ffdceb70228409875a6dbc12ad98267c8696563", "asm": "00146ffdceb70228409875a6dbc12ad98267c8696563"}, "vout": 1, "txid": "2a35d297cbe4f428a998b493c142b00b809ca9f47cd57b2530cffb8ddabf2beb"}, {"txinwitness": ["3045022100ea4aaa02c90898bb85f0320a979236cb2a98ae2f37cafa7ad409a4b637f38423022036e847207a69020a1c6f73a44f23d13be661e3374538931113165b1b30f5f01301", "029893ef23e5f8cba580b812f842152591990f625b943d1a692d3a19433e34717b"], "sequence": 4294967294, "scriptSig": {"hex": "1600148901bf3e4d9adc29d99b449bb40376fe2e9a50f3", "asm": "00148901bf3e4d9adc29d99b449bb40376fe2e9a50f3"}, "vout": 1, "txid": "c77f1b0c10476ee24ec066b54d866bdc23a6591bf240f98c5b29c10de0dd93f5"}], "txid": "d8b4cff01921e90085313a5d730a00139a9402a6d9a35c06702758748cc981eb", "blocktime": 1537870564, "version": 2, "confirmations": 11515, "time": 1537870564, "locktime": 542989, "vsize": 259, "size": 421}