{"hash": "54accb9c8e321c307b6ede00fc462012506848e60f47083976583e93758f206e", "blockhash": "0000000000000000001cda96e906b7601b7a6fb1a3b62bca570a9e5d8f4b3de1", "vout": [{"scriptPubKey": {"reqSigs": 1, "hex": "76a914ccae176b360ae7383013a7de3548a3347ee9c8d188ac", "addresses": ["1KfFQDr2gY8E4sp1nQZZKPYiDFt2iywp4b"], "asm": "OP_DUP OP_HASH160 ccae176b360ae7383013a7de3548a3347ee9c8d1 OP_EQUALVERIFY OP_CHECKSIG", "type": "pubkeyhash"}, "value": 0.0017853, "n": 0}, {"scriptPubKey": {"reqSigs": 1, "hex": "a9149649ad6d2730bb28020a268d9d80df10a9f74ad487", "addresses": ["3FPfYWwfMfKMGY7fuPHvz2b73RhTNGzsm3"], "asm": "OP_HASH160 9649ad6d2730bb28020a268d9d80df10a9f74ad4 OP_EQUAL", "type": "scripthash"}, "value": 13.84870396, "n": 1}], "hex": "010000000001014d0ca40e312b79c9c3fb3f94aaecf6c02c2e69beb127202e9d1e96141878ff5201000000232200207768efcc1e5eb3d28410fac3f45831004c860cc24cddd940a616b34324823fceffffffff0262b90200000000001976a914ccae176b360ae7383013a7de3548a3347ee9c8d188acfc718b520000000017a9149649ad6d2730bb28020a268d9d80df10a9f74ad4870400483045022100d020ba4155b7d39513593cd65d0bd600840e3b061553f589eb7f23b9e6fc95bc0220555231fa01a8d201588115e6e3054bdb79bbde9bb7536c193ba2039f9941a68c014830450221008b5405f31a2e8ba0eea531e0288e673c922d25b5786b5d1dd15383792aee2b400220134dd8151d11e69bbc9725d027affc32c279b383cc150b89f3aa917ae9f1232a0147522102529d5d1f6733ab45d9d50e07db42c7f6b967ae321c38b726c2247f149959b8262103d0c936a5988dd8421c63240496b723b0ec42400c38b9350e32c2eb4f47d8796952ae00000000", "vin": [{"txinwitness": ["", "3045022100d020ba4155b7d39513593cd65d0bd600840e3b061553f589eb7f23b9e6fc95bc0220555231fa01a8d201588115e6e3054bdb79bbde9bb7536c193ba2039f9941a68c01", "30450221008b5405f31a2e8ba0eea531e0288e673c922d25b5786b5d1dd15383792aee2b400220134dd8151d11e69bbc9725d027affc32c279b383cc150b89f3aa917ae9f1232a01", "522102529d5d1f6733ab45d9d50e07db42c7f6b967ae321c38b726c2247f149959b8262103d0c936a5988dd8421c63240496b723b0ec42400c38b9350e32c2eb4f47d8796952ae"], "sequence": 4294967295, "scriptSig": {"hex": "2200207768efcc1e5eb3d28410fac3f45831004c860cc24cddd940a616b34324823fce", "asm": "00207768efcc1e5eb3d28410fac3f45831004c860cc24cddd940a616b34324823fce"}, "vout": 1, "txid": "52ff781814961e9d2e2027b1be692e2cc0f6ecaa943ffbc3c9792b310ea40c4d"}], "txid": "d8ba451630daee2beb1626793a1ff1438fd3ef882bef33eb644f3943e4a800fd", "blocktime": 1537873282, "version": 1, "confirmations": 11484, "time": 1537873282, "locktime": 0, "vsize": 208, "size": 374}