{"hash": "d8beb3c7fc3c5a556ba1a5dc02155a60431e593cf1173de7468bc07db0b29395", "blockhash": "0000000000000000001f0ddff1eddb255c1121bcd4da4f1bc9a0da00cae72433", "vout": [{"scriptPubKey": {"reqSigs": 1, "hex": "a914543cf5d87f0440ab1a39be6b66c23227e0f1fbc387", "addresses": ["39NRiFnqHMrQDtFpPLosgkQYeuqaqY1L31"], "asm": "OP_HASH160 543cf5d87f0440ab1a39be6b66c23227e0f1fbc3 OP_EQUAL", "type": "scripthash"}, "value": 0.04235579, "n": 0}, {"scriptPubKey": {"reqSigs": 1, "hex": "76a914df65ea181f75f6c22dd012a9d24626bd12ece12e88ac", "addresses": ["1MNDmvBfB5rcxCxCpowcbCe2LLeozimnHg"], "asm": "OP_DUP OP_HASH160 df65ea181f75f6c22dd012a9d24626bd12ece12e OP_EQUALVERIFY OP_CHECKSIG", "type": "pubkeyhash"}, "value": 2.38200009, "n": 1}], "hex": "010000000153963a10c600bf10adf5199e083bd08a4361d76dae14183b02742d0e6a6e7939010000006b483045022100de52a5f9d9ad7e5b3727aa628ba14198d5c37803dacf79451e1889aee77516bf02200941e40a9bc4591a8e330180ca9fa1d66186c7e9dec48a8ff411319dc2d6fff50121025276b0d364c6b818e5e03f87b069a0b12cee3fb5d85d13e379fae293ce54a8b0ffffffff023ba140000000000017a914543cf5d87f0440ab1a39be6b66c23227e0f1fbc387c9a4320e000000001976a914df65ea181f75f6c22dd012a9d24626bd12ece12e88ac00000000", "vin": [{"sequence": 4294967295, "scriptSig": {"hex": "483045022100de52a5f9d9ad7e5b3727aa628ba14198d5c37803dacf79451e1889aee77516bf02200941e40a9bc4591a8e330180ca9fa1d66186c7e9dec48a8ff411319dc2d6fff50121025276b0d364c6b818e5e03f87b069a0b12cee3fb5d85d13e379fae293ce54a8b0", "asm": "3045022100de52a5f9d9ad7e5b3727aa628ba14198d5c37803dacf79451e1889aee77516bf02200941e40a9bc4591a8e330180ca9fa1d66186c7e9dec48a8ff411319dc2d6fff5[ALL] 025276b0d364c6b818e5e03f87b069a0b12cee3fb5d85d13e379fae293ce54a8b0"}, "vout": 1, "txid": "39796e6a0e2d74023b1814ae6dd761438ad03b089e19f5ad10bf00c6103a9653"}], "txid": "d8beb3c7fc3c5a556ba1a5dc02155a60431e593cf1173de7468bc07db0b29395", "blocktime": 1537872018, "version": 1, "confirmations": 11489, "time": 1537872018, "locktime": 0, "vsize": 224, "size": 224}