{"hash": "d8c07bad2e7b0b71757bd904ba6b788a72c5087349cc554dec92f6a37027e90d", "blockhash": "0000000000000000000dcc0f55137456b1a82d3642486a52398922ac4d620174", "vout": [{"scriptPubKey": {"reqSigs": 1, "hex": "76a91420f3b17acec4832bc808f779ef66d6315971734588ac", "addresses": ["141EZFBZMMwi8fND2W8JuLGM3N4zw4rU3g"], "asm": "OP_DUP OP_HASH160 20f3b17acec4832bc808f779ef66d63159717345 OP_EQUALVERIFY OP_CHECKSIG", "type": "pubkeyhash"}, "value": 0.000983, "n": 0}], "hex": "0100000002d806391d52203081ab91d45528ce7e3253083f27dba81cf24c327041974862951c0000006b483045022100833882b69a47b9348d1874ca88c216d4ff82bbce4da072f07bbd4448d683a55402200bfef78613ed27afce21ecab3817434dc33bbb9a431334f0b541cbfdc18ee4fa012102e07a1b814edaa58078d8b9f7a41808003aa9068ac73158c58837927aacb6d6e9ffffffff975c9d034c9c13035cb7bf558e697983dd1808170ab1cbcbb7b4009d79cdee49000000006b483045022100949f63e321f60eb475efbbd69c5572a2c0f331aff3b8335af84ec6a3d2cccb620220773bf9aa9e71a041cc996ae2318c1d35c0038451745ff793ac443d28f8d5442a0121037c13b12fd9feddb54bdd897090b4dc4dcebe4ebca35f2a75fb97886669184d8effffffff01fc7f0100000000001976a91420f3b17acec4832bc808f779ef66d6315971734588ac00000000", "vin": [{"sequence": 4294967295, "scriptSig": {"hex": "483045022100833882b69a47b9348d1874ca88c216d4ff82bbce4da072f07bbd4448d683a55402200bfef78613ed27afce21ecab3817434dc33bbb9a431334f0b541cbfdc18ee4fa012102e07a1b814edaa58078d8b9f7a41808003aa9068ac73158c58837927aacb6d6e9", "asm": "3045022100833882b69a47b9348d1874ca88c216d4ff82bbce4da072f07bbd4448d683a55402200bfef78613ed27afce21ecab3817434dc33bbb9a431334f0b541cbfdc18ee4fa[ALL] 02e07a1b814edaa58078d8b9f7a41808003aa9068ac73158c58837927aacb6d6e9"}, "vout": 28, "txid": "956248974170324cf21ca8db273f0853327ece2855d491ab813020521d3906d8"}, {"sequence": 4294967295, "scriptSig": {"hex": "483045022100949f63e321f60eb475efbbd69c5572a2c0f331aff3b8335af84ec6a3d2cccb620220773bf9aa9e71a041cc996ae2318c1d35c0038451745ff793ac443d28f8d5442a0121037c13b12fd9feddb54bdd897090b4dc4dcebe4ebca35f2a75fb97886669184d8e", "asm": "3045022100949f63e321f60eb475efbbd69c5572a2c0f331aff3b8335af84ec6a3d2cccb620220773bf9aa9e71a041cc996ae2318c1d35c0038451745ff793ac443d28f8d5442a[ALL] 037c13b12fd9feddb54bdd897090b4dc4dcebe4ebca35f2a75fb97886669184d8e"}, "vout": 0, "txid": "49eecd799d00b4b7cbcbb10a170818dd8379698e55bfb75c03139c4c039d5c97"}], "txid": "d8c07bad2e7b0b71757bd904ba6b788a72c5087349cc554dec92f6a37027e90d", "blocktime": 1537870268, "version": 1, "confirmations": 11516, "time": 1537870268, "locktime": 0, "vsize": 340, "size": 340}