{"hash": "d8c3c12c3f971238512d48f2dd8e7dd3ad232cb267c30e477e29ffd141cc652f", "blockhash": "0000000000000000001e0dab787dd257d1dbfcb92a98c2207d5e1078be1f4165", "vout": [{"scriptPubKey": {"reqSigs": 1, "hex": "76a914bed7d1d22d5c787b36b877cca9f2f175a2416f7b88ac", "addresses": ["1JQ5vrjHpy5QB5TXqTrUxwxNbV79qXx19w"], "asm": "OP_DUP OP_HASH160 bed7d1d22d5c787b36b877cca9f2f175a2416f7b OP_EQUALVERIFY OP_CHECKSIG", "type": "pubkeyhash"}, "value": 0.0138287, "n": 0}, {"scriptPubKey": {"reqSigs": 1, "hex": "76a9141369a0ac9cad4038bbe3ac287a453fb20f4af76d88ac", "addresses": ["12meNnKmdoytstyXxDR1qodSbBgU7XfuLv"], "asm": "OP_DUP OP_HASH160 1369a0ac9cad4038bbe3ac287a453fb20f4af76d OP_EQUALVERIFY OP_CHECKSIG", "type": "pubkeyhash"}, "value": 0.003676, "n": 1}], "hex": "0100000001dd27a5d587891ba7f06fae0667468174d5ce1d87ecd30d3f798a09135ef7c9b3010000006a473044022006eafc71dcb97a579cccc29720af1f4b5e9dc0fb857b01b8e5ea0d1e8c595b1d022008c7c80f2513def3893968d30c5cc1d24f8fb3ebbe2b2f31e638f959cbcf41f1012103390c28ce74b6ecd82af355b046db70b4d3ae3ae683b2067184fb5dcb22245f9dffffffff02d6191500000000001976a914bed7d1d22d5c787b36b877cca9f2f175a2416f7b88acf09b0500000000001976a9141369a0ac9cad4038bbe3ac287a453fb20f4af76d88ac00000000", "vin": [{"sequence": 4294967295, "scriptSig": {"hex": "473044022006eafc71dcb97a579cccc29720af1f4b5e9dc0fb857b01b8e5ea0d1e8c595b1d022008c7c80f2513def3893968d30c5cc1d24f8fb3ebbe2b2f31e638f959cbcf41f1012103390c28ce74b6ecd82af355b046db70b4d3ae3ae683b2067184fb5dcb22245f9d", "asm": "3044022006eafc71dcb97a579cccc29720af1f4b5e9dc0fb857b01b8e5ea0d1e8c595b1d022008c7c80f2513def3893968d30c5cc1d24f8fb3ebbe2b2f31e638f959cbcf41f1[ALL] 03390c28ce74b6ecd82af355b046db70b4d3ae3ae683b2067184fb5dcb22245f9d"}, "vout": 1, "txid": "b3c9f75e13098a793f0dd3ec871dced57481466706ae6ff0a71b8987d5a527dd"}], "txid": "d8c3c12c3f971238512d48f2dd8e7dd3ad232cb267c30e477e29ffd141cc652f", "blocktime": 1537872475, "version": 1, "confirmations": 11486, "time": 1537872475, "locktime": 0, "vsize": 225, "size": 225}