{"hash": "1361b8f57d9e9e914d6ccf0b33a214d5b94f61d78fb5ae504e48b6533f7a2572", "blockhash": "00000000000000000024a2167bbff67b0be802c0b01cdd79e6331c2be6459f87", "vout": [{"scriptPubKey": {"reqSigs": 1, "hex": "76a9145f464804e46f9c1c14d6ae99f0d75d1686eee9b588ac", "addresses": ["19gmPTSmUREfZHh2LgbC7HPrfA2AA4AY91"], "asm": "OP_DUP OP_HASH160 5f464804e46f9c1c14d6ae99f0d75d1686eee9b5 OP_EQUALVERIFY OP_CHECKSIG", "type": "pubkeyhash"}, "value": 0.00042145, "n": 0}, {"scriptPubKey": {"reqSigs": 1, "hex": "a914414cec0fc72a9410f6836edaf08de1aa3b2a321c87", "addresses": ["37eHzewnAFRR2SVZu8rZM3nBsmuE2XBU7D"], "asm": "OP_HASH160 414cec0fc72a9410f6836edaf08de1aa3b2a321c OP_EQUAL", "type": "scripthash"}, "value": 0.31027333, "n": 1}], "hex": "0100000000010137f5cfc2ed134232ceac32dc0e4540727d95663ce3cda81e9c21245a77ec0b190100000023220020ce74cde37cfb8dd71d0179287e12fc721ee236ce3c89c2745bcd365b39807eb3ffffffff02a1a40000000000001976a9145f464804e46f9c1c14d6ae99f0d75d1686eee9b588ac8570d9010000000017a914414cec0fc72a9410f6836edaf08de1aa3b2a321c87040047304402201c8fd75b24dc6f3beb119ac0b18989ccc24fc3dd371a94cb65a2bb4e98b434ec0220057825a9c9575f761c34d4191c578d9911399229b3681a4bb5804370097e027a01473044022066e6461a7bf754175147980e71837713fe2bcb696dc7b2e8d37463fa1f4523200220126efd749e0563be9dd17a7f6d0cdd352808351632c6db0af0e46a49b2ce69810147522103ada901d90d5a76319a60f228e0b1bbc84b1d9a87238550bae5d5d190067b66712103871fc2ca08e6950b38867e8e6a0e94ee625223d3aa0df5c65f414c6d784467e252ae00000000", "vin": [{"txinwitness": ["", "304402201c8fd75b24dc6f3beb119ac0b18989ccc24fc3dd371a94cb65a2bb4e98b434ec0220057825a9c9575f761c34d4191c578d9911399229b3681a4bb5804370097e027a01", "3044022066e6461a7bf754175147980e71837713fe2bcb696dc7b2e8d37463fa1f4523200220126efd749e0563be9dd17a7f6d0cdd352808351632c6db0af0e46a49b2ce698101", "522103ada901d90d5a76319a60f228e0b1bbc84b1d9a87238550bae5d5d190067b66712103871fc2ca08e6950b38867e8e6a0e94ee625223d3aa0df5c65f414c6d784467e252ae"], "sequence": 4294967295, "scriptSig": {"hex": "220020ce74cde37cfb8dd71d0179287e12fc721ee236ce3c89c2745bcd365b39807eb3", "asm": "0020ce74cde37cfb8dd71d0179287e12fc721ee236ce3c89c2745bcd365b39807eb3"}, "vout": 1, "txid": "190bec775a24219c1ea8cde33c66957d7240450edc32acce324213edc2cff537"}], "txid": "d8c513902229bc16460ac2bc0cec48acda98b0858ddc9bde13c8f54cc419eab9", "blocktime": 1537870564, "version": 1, "confirmations": 11515, "time": 1537870564, "locktime": 0, "vsize": 207, "size": 372}