{"hash": "163986cc2e84acdee1fb1d46fd66eedf43cb943f17705937ed6c41c474c3ee32", "blockhash": "0000000000000000000dcc0f55137456b1a82d3642486a52398922ac4d620174", "vout": [{"scriptPubKey": {"reqSigs": 1, "hex": "a914ea5b716738a8231b66e86d3757792530cf5e335d87", "addresses": ["3P4Bb14JHUbsMavX5nCgutKFVfpaZt1fGF"], "asm": "OP_HASH160 ea5b716738a8231b66e86d3757792530cf5e335d OP_EQUAL", "type": "scripthash"}, "value": 0.307614, "n": 0}, {"scriptPubKey": {"reqSigs": 1, "hex": "a9144f56f47113c9f621a1d90c816955c617e34d6f2187", "addresses": ["38vXURjdguDKf5dBygtW5YW4Jg7Ri8Fn2Y"], "asm": "OP_HASH160 4f56f47113c9f621a1d90c816955c617e34d6f21 OP_EQUAL", "type": "scripthash"}, "value": 0.00204129, "n": 1}], "hex": "0200000000010432a57a137f52a5338ad0698eb5b15c365ffd29cf98de362f1b745590e0f7e38c0600000017160014192b32704165a5bb444b1f7d6d0fedf127d5409efffffffff0e11e223df9847381db16bbb5f1312c9c4b351a8177b6e8ae1bbb8ce2b06cbf0100000017160014197fc755460d849cf9eb70fba92932199eb4a5cdffffffff2721f6d8a08eb7447d2eaf18eaa85408de4703d027dd4726ea2b6df112b995ae0100000017160014a12e86ed04eb1009fd36700211dfdde7e5e97e89ffffffffdb095a90ecb8fe14a0483c462186525fedffab0d05ead02ac4e1a532cddf73860100000017160014db95decc90fd811ffeedfb8e0458229ea4027511ffffffff02b861d5010000000017a914ea5b716738a8231b66e86d3757792530cf5e335d87611d03000000000017a9144f56f47113c9f621a1d90c816955c617e34d6f21870247304402204355f71125e2a4b7dbd48422fff158c0818d345f711ce7fa718d6c03d71bb551022079626760cedf02a1f22583f55157238da9087db7958d3f43a606a1b34dd26eec012102140f9c624751843d20384baf0fc7b97aee3a34053043b453a083f07be183deca024730440220539ed3687d1f2a7acb4f0a63c8d784e49a9cfb52fe1974bf1a9b8cf0f56f5759022047767e00a453273497ba28555d06b22f23f60b327f1cb2760e3eca8f93f974cf012102ccf4834678b9f8667c6f7ac0689c4502f7b569134c0411b7da77e17aaded850f024730440220572c651621a3f2c7f7060550fb3f761f582c61771c7ed96d785d8dffd0ebe020022013a41a028c0ac259d376d4cb4825796313a554a2c6f8114fc3e21a62c623f32d01210391a31bee33ce4c0d4cd3964b66e13c19a3d1a806082e8e4e86a104967b35e857024830450221008f75fc23f18e90aa530309410087b1516f04a45b9618cd7d65fd22cc1d17e9b90220033c134f940fe238840dccc8df7ea93230317866d3f1560230fa96dbade868c401210372acd1b32c7e93561a2e016429a46be64b18c297d66f703cc458ba2fc50aed5800000000", "vin": [{"txinwitness": ["304402204355f71125e2a4b7dbd48422fff158c0818d345f711ce7fa718d6c03d71bb551022079626760cedf02a1f22583f55157238da9087db7958d3f43a606a1b34dd26eec01", "02140f9c624751843d20384baf0fc7b97aee3a34053043b453a083f07be183deca"], "sequence": 4294967295, "scriptSig": {"hex": "160014192b32704165a5bb444b1f7d6d0fedf127d5409e", "asm": "0014192b32704165a5bb444b1f7d6d0fedf127d5409e"}, "vout": 6, "txid": "8ce3f7e09055741b2f36de98cf29fd5f365cb1b58e69d08a33a5527f137aa532"}, {"txinwitness": ["30440220539ed3687d1f2a7acb4f0a63c8d784e49a9cfb52fe1974bf1a9b8cf0f56f5759022047767e00a453273497ba28555d06b22f23f60b327f1cb2760e3eca8f93f974cf01", "02ccf4834678b9f8667c6f7ac0689c4502f7b569134c0411b7da77e17aaded850f"], "sequence": 4294967295, "scriptSig": {"hex": "160014197fc755460d849cf9eb70fba92932199eb4a5cd", "asm": "0014197fc755460d849cf9eb70fba92932199eb4a5cd"}, "vout": 1, "txid": "bf6cb0e28cbb1baee8b677811a354b9c2c31f1b5bb16db817384f93d221ee1f0"}, {"txinwitness": ["30440220572c651621a3f2c7f7060550fb3f761f582c61771c7ed96d785d8dffd0ebe020022013a41a028c0ac259d376d4cb4825796313a554a2c6f8114fc3e21a62c623f32d01", "0391a31bee33ce4c0d4cd3964b66e13c19a3d1a806082e8e4e86a104967b35e857"], "sequence": 4294967295, "scriptSig": {"hex": "160014a12e86ed04eb1009fd36700211dfdde7e5e97e89", "asm": "0014a12e86ed04eb1009fd36700211dfdde7e5e97e89"}, "vout": 1, "txid": "ae95b912f16d2bea2647dd27d00347de0854a8ea18af2e7d44b78ea0d8f62127"}, {"txinwitness": ["30450221008f75fc23f18e90aa530309410087b1516f04a45b9618cd7d65fd22cc1d17e9b90220033c134f940fe238840dccc8df7ea93230317866d3f1560230fa96dbade868c401", "0372acd1b32c7e93561a2e016429a46be64b18c297d66f703cc458ba2fc50aed58"], "sequence": 4294967295, "scriptSig": {"hex": "160014db95decc90fd811ffeedfb8e0458229ea4027511", "asm": "0014db95decc90fd811ffeedfb8e0458229ea4027511"}, "vout": 1, "txid": "8673dfcd32a5e1c42ad0ea050dabffed5f528621463c48a014feb8ec905a09db"}], "txid": "d8c97cb62804e0f4bb469422a3aa8bad8280d1b801180d45a786b7f30b44c1ea", "blocktime": 1537870268, "version": 2, "confirmations": 11516, "time": 1537870268, "locktime": 0, "vsize": 438, "size": 761}