{"hash": "13b95c6df0f47a3e41ce377f8b097ebdc2edac3a06442f02f60dee92e450984f", "blockhash": "0000000000000000001cda96e906b7601b7a6fb1a3b62bca570a9e5d8f4b3de1", "vout": [{"scriptPubKey": {"reqSigs": 1, "hex": "00141934cde3b29392cb49219cccdf3bd046769fc46e", "addresses": ["bc1qry6vmcajjwfvkjfpnnxd7w7sgemfl3rw39yc58"], "asm": "0 1934cde3b29392cb49219cccdf3bd046769fc46e", "type": "witness_v0_keyhash"}, "value": 0.53067787, "n": 0}, {"scriptPubKey": {"reqSigs": 1, "hex": "a91469f373fc5301afcde008566b2a0fdebed231258c87", "addresses": ["3BMEX6rT3kZATc66Sm3HAYyKNUpKfozM8y"], "asm": "OP_HASH160 69f373fc5301afcde008566b2a0fdebed231258c OP_EQUAL", "type": "scripthash"}, "value": 0.00817636, "n": 1}], "hex": "010000000001010c1ea65291af9627eebba71b6dc093ec777d7c25c101d173a027755e779047e30100000000ffffffff020bc02903000000001600141934cde3b29392cb49219cccdf3bd046769fc46ee4790c000000000017a91469f373fc5301afcde008566b2a0fdebed231258c8702483045022100bbf5c632b1cc6f69b09c13b4a4347f3b49ec012d77c94ad18b52cf7f3a130e8c02205e4b8557ad7779d9d0d953cb1b7711cdaa0031d5b1631855084e7821b9d587f8012103e2616cdf0ccff2cbe372afc2bc875c2f637ed388dc63fda4f42f4f2a83cc353c00000000", "vin": [{"txinwitness": ["3045022100bbf5c632b1cc6f69b09c13b4a4347f3b49ec012d77c94ad18b52cf7f3a130e8c02205e4b8557ad7779d9d0d953cb1b7711cdaa0031d5b1631855084e7821b9d587f801", "03e2616cdf0ccff2cbe372afc2bc875c2f637ed388dc63fda4f42f4f2a83cc353c"], "sequence": 4294967295, "scriptSig": {"hex": "", "asm": ""}, "vout": 1, "txid": "e34790775e7527a073d101c1257c7d77ec93c06d1ba7bbee2796af9152a61e0c"}], "txid": "d8ce75fdc1564d744eca78c96abd44e22477971ca725292a3afd89ef9948f8b4", "blocktime": 1537873282, "version": 1, "confirmations": 11484, "time": 1537873282, "locktime": 0, "vsize": 142, "size": 224}