{"hash": "d8cf0a3e9e5d1b0fd1ef6f11e1f1ad9e0e36c752a95b2d41724464a2bffd5434", "blockhash": "0000000000000000001f76057863aec43deb6fa401d9628bb513d65a8098bfab", "vout": [{"scriptPubKey": {"reqSigs": 1, "hex": "76a914916a9e0144530f235b2a54622e83bc1e1b5ef2f988ac", "addresses": ["1EFthi7ST4WAqQzqDZBViJ9JKDW2a2vpBh"], "asm": "OP_DUP OP_HASH160 916a9e0144530f235b2a54622e83bc1e1b5ef2f9 OP_EQUALVERIFY OP_CHECKSIG", "type": "pubkeyhash"}, "value": 6.044e-05, "n": 0}, {"scriptPubKey": {"reqSigs": 1, "hex": "76a9146b29607a1622b44582145f0d19d6d29d0ef5749a88ac", "addresses": ["1AmcsSZUmCMPRq1Aj6zuc98sCmQxxVn8D6"], "asm": "OP_DUP OP_HASH160 6b29607a1622b44582145f0d19d6d29d0ef5749a OP_EQUALVERIFY OP_CHECKSIG", "type": "pubkeyhash"}, "value": 0.00249747, "n": 1}], "hex": "0100000001e23d23d10a6d12d9543e6f98abd9055087ddc6ec67b1589e710e114f022a0b3a000000006a473044022061bf27be6536d914df4a6b6eeaec20c98ec256d1091c37a20876dab60173a9b802203d45b02dde00e9f9e21807356cd4604f1bcf4d54ac24908bac467aa2daf921f1012103fe782bfcc6ee21a37cd76ab5a371e29e4458c87f74fb635bb0ede079b0c8753affffffff029c170000000000001976a914916a9e0144530f235b2a54622e83bc1e1b5ef2f988ac93cf0300000000001976a9146b29607a1622b44582145f0d19d6d29d0ef5749a88ac00000000", "vin": [{"sequence": 4294967295, "scriptSig": {"hex": "473044022061bf27be6536d914df4a6b6eeaec20c98ec256d1091c37a20876dab60173a9b802203d45b02dde00e9f9e21807356cd4604f1bcf4d54ac24908bac467aa2daf921f1012103fe782bfcc6ee21a37cd76ab5a371e29e4458c87f74fb635bb0ede079b0c8753a", "asm": "3044022061bf27be6536d914df4a6b6eeaec20c98ec256d1091c37a20876dab60173a9b802203d45b02dde00e9f9e21807356cd4604f1bcf4d54ac24908bac467aa2daf921f1[ALL] 03fe782bfcc6ee21a37cd76ab5a371e29e4458c87f74fb635bb0ede079b0c8753a"}, "vout": 0, "txid": "3a0b2a024f110e719e58b167ecc6dd875005d9ab986f3e54d9126d0ad1233de2"}], "txid": "d8cf0a3e9e5d1b0fd1ef6f11e1f1ad9e0e36c752a95b2d41724464a2bffd5434", "blocktime": 1537873891, "version": 1, "confirmations": 11478, "time": 1537873891, "locktime": 0, "vsize": 225, "size": 225}