{"hash": "6a55f286cabf6e70eb520ed3907c1eb5bfdac48c83631e8c684868a372c123a6", "blockhash": "0000000000000000001cda96e906b7601b7a6fb1a3b62bca570a9e5d8f4b3de1", "vout": [{"scriptPubKey": {"reqSigs": 1, "hex": "a914b78dc6b349ab6f4b5e6ef9fea602eb1d878ddff287", "addresses": ["3JRZRRtYRErcqH3AZNUGjYmA8iZF4c266A"], "asm": "OP_HASH160 b78dc6b349ab6f4b5e6ef9fea602eb1d878ddff2 OP_EQUAL", "type": "scripthash"}, "value": 0.01, "n": 0}, {"scriptPubKey": {"reqSigs": 1, "hex": "0014bd0131c375cdb2b5635597c0060b0b99492cb4aa", "addresses": ["bc1qh5qnrsm4eket2c64jlqqvzctn9yjed92jwvtme"], "asm": "0 bd0131c375cdb2b5635597c0060b0b99492cb4aa", "type": "witness_v0_keyhash"}, "value": 0.00929834, "n": 1}], "hex": "0100000000010191a198c03105da43cafbd272cdd905f3c3235670bd1133bdc524385bcf5b4db424000000171600149c327a42a6b55f12255fe3ed65c650b8a035efebffffffff0240420f000000000017a914b78dc6b349ab6f4b5e6ef9fea602eb1d878ddff2872a300e0000000000160014bd0131c375cdb2b5635597c0060b0b99492cb4aa02483045022100d08d76eb0dfbff4e25753e1e8bc0428e5cf213a469fef8fe703daccea188ddb602203cdc458c44fe8a95b0e0ec669134f3d3c58200cec07a8972678e55ba0c41e465012102f091a28a57ec1a959d0ed563bd3a558bffff51c15c4d8ec75fbbcf0b1c7331dd00000000", "vin": [{"txinwitness": ["3045022100d08d76eb0dfbff4e25753e1e8bc0428e5cf213a469fef8fe703daccea188ddb602203cdc458c44fe8a95b0e0ec669134f3d3c58200cec07a8972678e55ba0c41e46501", "02f091a28a57ec1a959d0ed563bd3a558bffff51c15c4d8ec75fbbcf0b1c7331dd"], "sequence": 4294967295, "scriptSig": {"hex": "1600149c327a42a6b55f12255fe3ed65c650b8a035efeb", "asm": "00149c327a42a6b55f12255fe3ed65c650b8a035efeb"}, "vout": 36, "txid": "b44d5bcf5b3824c5bd3311bd705623c3f305d9cd72d2fbca43da0531c098a191"}], "txid": "d8d0fb34118b06ac6afec5cb4663913e867d7d28311efe519ee779eac3531308", "blocktime": 1537873282, "version": 1, "confirmations": 11485, "time": 1537873282, "locktime": 0, "vsize": 165, "size": 247}