{"hash": "1b282af07feb0462a8a4fff828b8ee4abd676c5b27a70fa5a54aadf80f2cde1e", "blockhash": "0000000000000000000baef3f32e3676a92c3b2e5da21b426e4f302fc371ce76", "vout": [{"scriptPubKey": {"reqSigs": 1, "hex": "a914ef43118ad741c02ff074cda1ddb73a7999ab936087", "addresses": ["3PW7mPok6H9ycMm5y9ydTk63JVc2TuRR1g"], "asm": "OP_HASH160 ef43118ad741c02ff074cda1ddb73a7999ab9360 OP_EQUAL", "type": "scripthash"}, "value": 1.54963848, "n": 0}, {"scriptPubKey": {"reqSigs": 1, "hex": "a91446ad2b506d3c9aed45ff51cc778057d8c01b5ea187", "addresses": ["388ifyi7HjTZXcrtV8uVyKASxRXjjahLHS"], "asm": "OP_HASH160 46ad2b506d3c9aed45ff51cc778057d8c01b5ea1 OP_EQUAL", "type": "scripthash"}, "value": 0.05639614, "n": 1}], "hex": "02000000000101a1e7b371e2e22d10e57047f704868372cf4acd71fcf608f881562ac9c96cc5fc0100000017160014c31697c3a223c159b3640697b51b9d2e0543c89cfeffffff02888f3c090000000017a914ef43118ad741c02ff074cda1ddb73a7999ab936087be0d56000000000017a91446ad2b506d3c9aed45ff51cc778057d8c01b5ea18702483045022100ba5ea74afd793f663e4b98d88f5d0ebc39e93f93c788690e107f40703664df1302202b3a3e0da3f4c8caeffbb19ea8372287f81a625ceeaa0ccc0e51b2c933200227012102e7c872103dd748bf3d9f5d8de845098100ff72a8490f729259745999fb05f76417490800", "vin": [{"txinwitness": ["3045022100ba5ea74afd793f663e4b98d88f5d0ebc39e93f93c788690e107f40703664df1302202b3a3e0da3f4c8caeffbb19ea8372287f81a625ceeaa0ccc0e51b2c93320022701", "02e7c872103dd748bf3d9f5d8de845098100ff72a8490f729259745999fb05f764"], "sequence": 4294967294, "scriptSig": {"hex": "160014c31697c3a223c159b3640697b51b9d2e0543c89c", "asm": "0014c31697c3a223c159b3640697b51b9d2e0543c89c"}, "vout": 1, "txid": "fcc56cc9c92a5681f808f6fc71cd4acf72838604f74770e5102de2e271b3e7a1"}], "txid": "d8d5e6550325a0e98cfcf6f6ad72703bf47b599146bccafe66e81c65db36467e", "blocktime": 1537876114, "version": 2, "confirmations": 11459, "time": 1537876114, "locktime": 542999, "vsize": 166, "size": 248}