{"hash": "35566847a81b2c7e4a0898dcc6986ea5cfb819f4945b52f21b8ed5b09f8afaf0", "blockhash": "000000000000000000022b45ed06c6f4ccd3cf7fb5ba4856ebd2e58215665228", "vout": [{"scriptPubKey": {"reqSigs": 1, "hex": "a914128ed7f1d3ed3b77b6e3af25b8f03ef269c9708a87", "addresses": ["33P9CwSUDB5YDxdf9DFrghjA4ZYv19ZCXq"], "asm": "OP_HASH160 128ed7f1d3ed3b77b6e3af25b8f03ef269c9708a OP_EQUAL", "type": "scripthash"}, "value": 0.0099975, "n": 0}, {"scriptPubKey": {"reqSigs": 1, "hex": "a91486d0b25972bf68fe0565d8654bdc8d9a3e0d796487", "addresses": ["3DyrUkMpV5e5voD99Ljx1gRpv2XPVmELjj"], "asm": "OP_HASH160 86d0b25972bf68fe0565d8654bdc8d9a3e0d7964 OP_EQUAL", "type": "scripthash"}, "value": 0.0054436, "n": 1}], "hex": "020000000001026cc75920e3a0304c068a01b3e20c8fa0303400e6fea96f769502d3514b83697c0100000017160014c5a49805a8e5e3053ed167f60c7e9f63a64247dafeffffffd46c5ce020cbe1f3113f64ff350f45f40e2169bb2ca130212ab5c22b18c704a40000000017160014728ff87e959a2161e7f8b633b7f2b9a8f26a9c98feffffff0246410f000000000017a914128ed7f1d3ed3b77b6e3af25b8f03ef269c9708a87684e08000000000017a91486d0b25972bf68fe0565d8654bdc8d9a3e0d79648702473044022030820ac3574d2a28238ba872f4a48aa58423c64d49f0bfe03579e53cccedd4ef02207f735d5b8d7178845fd68b9ef7d3b8c6a736c6dc2e792e5375ed6e278db99cc2012102393400be57a2f3c94a64b0075d47d420c0b12537867f0e54bc9311936d13174a02483045022100de7ace98a56968d91a80023e44ee47a837cf880aaa5bb488d2c1cf367ff0d93302201002a70429567a6f010d1bf828dcff2a6f604af50bffe025df0e41b0c636b25e0121034226933ab700546eb716879940dcce789cb16791ee338163211c93952c88c4680b490800", "vin": [{"txinwitness": ["3044022030820ac3574d2a28238ba872f4a48aa58423c64d49f0bfe03579e53cccedd4ef02207f735d5b8d7178845fd68b9ef7d3b8c6a736c6dc2e792e5375ed6e278db99cc201", "02393400be57a2f3c94a64b0075d47d420c0b12537867f0e54bc9311936d13174a"], "sequence": 4294967294, "scriptSig": {"hex": "160014c5a49805a8e5e3053ed167f60c7e9f63a64247da", "asm": "0014c5a49805a8e5e3053ed167f60c7e9f63a64247da"}, "vout": 1, "txid": "7c69834b51d30295766fa9fee6003430a08f0ce2b3018a064c30a0e32059c76c"}, {"txinwitness": ["3045022100de7ace98a56968d91a80023e44ee47a837cf880aaa5bb488d2c1cf367ff0d93302201002a70429567a6f010d1bf828dcff2a6f604af50bffe025df0e41b0c636b25e01", "034226933ab700546eb716879940dcce789cb16791ee338163211c93952c88c468"], "sequence": 4294967294, "scriptSig": {"hex": "160014728ff87e959a2161e7f8b633b7f2b9a8f26a9c98", "asm": "0014728ff87e959a2161e7f8b633b7f2b9a8f26a9c98"}, "vout": 0, "txid": "a404c7182bc2b52a2130a12cbb69210ef4450f35ff643f11f3e1cb20e05c6cd4"}], "txid": "d8d734cfa78e151e6f0b0796e058332f0d24e291851f9e585a4f64991b3b2599", "blocktime": 1537869901, "version": 2, "confirmations": 11524, "time": 1537869901, "locktime": 542987, "vsize": 257, "size": 419}