{"hash": "d8d742d24465b8cf6a18a08f527d7e21cd0c443a85685c778247febc4283118f", "blockhash": "0000000000000000000baef3f32e3676a92c3b2e5da21b426e4f302fc371ce76", "vout": [{"scriptPubKey": {"reqSigs": 1, "hex": "76a914976668960df4f5197dd211d95ad3f65f726157f788ac", "addresses": ["1EoXiSKHhTFjCm4n6TfVY3nxqigFEw8USB"], "asm": "OP_DUP OP_HASH160 976668960df4f5197dd211d95ad3f65f726157f7 OP_EQUALVERIFY OP_CHECKSIG", "type": "pubkeyhash"}, "value": 0.0570437, "n": 0}, {"scriptPubKey": {"reqSigs": 1, "hex": "76a9144922bbf789c3801239f56cd7aa8489235695d1af88ac", "addresses": ["17fhwP7opPnVkyeWARfjn1SLwP6sD9Y1La"], "asm": "OP_DUP OP_HASH160 4922bbf789c3801239f56cd7aa8489235695d1af OP_EQUALVERIFY OP_CHECKSIG", "type": "pubkeyhash"}, "value": 0.11830809, "n": 1}], "hex": "0100000001a16eae200b373d46c499113a86e9fed62c165f4c093a832666ec67eaeca94094010000006b483045022100bc7119c38d76f76165fc17f67d87677a027ffd019e8ee41dd3b38ebddd642ab602203bd012f646d1c246320bf7988c8da5beb25fa36753837e5ee7f286b892f35308012103973c7f0d106be5843955dedc40dcf0666680381006b268ffb95a14e4b6b41c3bffffffff02b20a5700000000001976a914976668960df4f5197dd211d95ad3f65f726157f788ac1986b400000000001976a9144922bbf789c3801239f56cd7aa8489235695d1af88ac00000000", "vin": [{"sequence": 4294967295, "scriptSig": {"hex": "483045022100bc7119c38d76f76165fc17f67d87677a027ffd019e8ee41dd3b38ebddd642ab602203bd012f646d1c246320bf7988c8da5beb25fa36753837e5ee7f286b892f35308012103973c7f0d106be5843955dedc40dcf0666680381006b268ffb95a14e4b6b41c3b", "asm": "3045022100bc7119c38d76f76165fc17f67d87677a027ffd019e8ee41dd3b38ebddd642ab602203bd012f646d1c246320bf7988c8da5beb25fa36753837e5ee7f286b892f35308[ALL] 03973c7f0d106be5843955dedc40dcf0666680381006b268ffb95a14e4b6b41c3b"}, "vout": 1, "txid": "9440a9ecea67ec6626833a094c5f162cd6fee9863a1199c4463d370b20ae6ea1"}], "txid": "d8d742d24465b8cf6a18a08f527d7e21cd0c443a85685c778247febc4283118f", "blocktime": 1537876114, "version": 1, "confirmations": 11460, "time": 1537876114, "locktime": 0, "vsize": 226, "size": 226}