{"hash": "d8eacd2137b4e2541163645bc325a6440c79c89e6a35eb281b5c87bc78fab5b9", "blockhash": "000000000000000000022b45ed06c6f4ccd3cf7fb5ba4856ebd2e58215665228", "vout": [{"scriptPubKey": {"reqSigs": 1, "hex": "76a9146eba1873f323b4f684f74d5e1d4e589058725f8888ac", "addresses": ["1B6UGFCBnU1k2S2rZ8bteQtfSBrjUjSTaH"], "asm": "OP_DUP OP_HASH160 6eba1873f323b4f684f74d5e1d4e589058725f88 OP_EQUALVERIFY OP_CHECKSIG", "type": "pubkeyhash"}, "value": 0.00303, "n": 0}, {"scriptPubKey": {"reqSigs": 1, "hex": "76a914a4679ab85f6d17d746bdbcaecf5e0bf0225cf0ab88ac", "addresses": ["1FzHw24xm3uo2EKh5FCGoyApbbEe1Yo2RY"], "asm": "OP_DUP OP_HASH160 a4679ab85f6d17d746bdbcaecf5e0bf0225cf0ab OP_EQUALVERIFY OP_CHECKSIG", "type": "pubkeyhash"}, "value": 0.0939326, "n": 1}], "hex": "01000000028080a44668dd8f0bd02d4f3f8bbd87117664d392f48044b9ce64f07a0f59a95f000000006a4730440220442c604b8e4bf9463875308b31161227cd83a9ce0fa01453d13258c06b4e21a4022048ca6021e42682f4a10fc4eeb53dcfb2880cd869735d5d5b45864cde2e375001012102e5162ea84e5297eb6385a3844d0b980f15c482857743452e89529437af9c32cbfdffffff3a86bd14377f02efdfaf9fe0ce029e958e3e712853be854bbd602f8d0ea3d1c62e0000006a4730440220678bd8cbf7f3291cdd55fab075bd7884e2de8f8abacb3cda40883db4b14fbfa4022063af6334fd61e88e670f11b94e9e0474497684a0c14dd65352b1c6e5b7c51a5d012103dd111d73767d13bf08280c6928de8b534d63232e0ca3bfae3bf7d24a4af827ccfdffffff02989f0400000000001976a9146eba1873f323b4f684f74d5e1d4e589058725f8888ac6c548f00000000001976a914a4679ab85f6d17d746bdbcaecf5e0bf0225cf0ab88ac0b490800", "vin": [{"sequence": 4294967293, "scriptSig": {"hex": "4730440220442c604b8e4bf9463875308b31161227cd83a9ce0fa01453d13258c06b4e21a4022048ca6021e42682f4a10fc4eeb53dcfb2880cd869735d5d5b45864cde2e375001012102e5162ea84e5297eb6385a3844d0b980f15c482857743452e89529437af9c32cb", "asm": "30440220442c604b8e4bf9463875308b31161227cd83a9ce0fa01453d13258c06b4e21a4022048ca6021e42682f4a10fc4eeb53dcfb2880cd869735d5d5b45864cde2e375001[ALL] 02e5162ea84e5297eb6385a3844d0b980f15c482857743452e89529437af9c32cb"}, "vout": 0, "txid": "5fa9590f7af064ceb94480f492d364761187bd8b3f4f2dd00b8fdd6846a48080"}, {"sequence": 4294967293, "scriptSig": {"hex": "4730440220678bd8cbf7f3291cdd55fab075bd7884e2de8f8abacb3cda40883db4b14fbfa4022063af6334fd61e88e670f11b94e9e0474497684a0c14dd65352b1c6e5b7c51a5d012103dd111d73767d13bf08280c6928de8b534d63232e0ca3bfae3bf7d24a4af827cc", "asm": "30440220678bd8cbf7f3291cdd55fab075bd7884e2de8f8abacb3cda40883db4b14fbfa4022063af6334fd61e88e670f11b94e9e0474497684a0c14dd65352b1c6e5b7c51a5d[ALL] 03dd111d73767d13bf08280c6928de8b534d63232e0ca3bfae3bf7d24a4af827cc"}, "vout": 46, "txid": "c6d1a30e8d2f60bd4b85be5328713e8e959e02cee09fafdfef027f3714bd863a"}], "txid": "d8eacd2137b4e2541163645bc325a6440c79c89e6a35eb281b5c87bc78fab5b9", "blocktime": 1537869901, "version": 1, "confirmations": 11522, "time": 1537869901, "locktime": 542987, "vsize": 372, "size": 372}