{"hash": "ba0b53692cace902666978fa753a38f4683c99bf42764151260ad497f4172755", "blockhash": "00000000000000000018f53835495a110e01622372bf6ae95dc86f2b0ab887b0", "vout": [{"scriptPubKey": {"reqSigs": 1, "hex": "76a91411fda9a14f7325a06f06d5778bd7c37a9028838588ac", "addresses": ["12e8N3q5YdA8JdZHChyrwDguac9zp6dKqp"], "asm": "OP_DUP OP_HASH160 11fda9a14f7325a06f06d5778bd7c37a90288385 OP_EQUALVERIFY OP_CHECKSIG", "type": "pubkeyhash"}, "value": 0.0073746, "n": 0}, {"scriptPubKey": {"reqSigs": 1, "hex": "a9146a4b06fb1c7e2c8456e706468847a86d47a41c3c87", "addresses": ["3BP3Rs4B3ce2kHHpgB2xbCPj2Bbv2QaXQG"], "asm": "OP_HASH160 6a4b06fb1c7e2c8456e706468847a86d47a41c3c OP_EQUAL", "type": "scripthash"}, "value": 0.00999744, "n": 1}], "hex": "0200000000010214c4e60e4fcc4bf0325e6a08929e45407ab18a8a9f045428f2416403a6ae98a00500000017160014bd15774eb58a71eac5b047a884132b572709c2f5feffffff6f25e8621cdb5df9e116242c80f6ef46a9d2070bae68bf509a35bb786326152101000000171600142520ebf33b02ecf9d3f010dceef8172a5bbaf743feffffff02b4400b00000000001976a91411fda9a14f7325a06f06d5778bd7c37a9028838588ac40410f000000000017a9146a4b06fb1c7e2c8456e706468847a86d47a41c3c8702473044022058a147fd9b80799dd5735661489740e31e95e13cec690336e36f7f1b7be70d8002205ee244847b9e70f9c22d28427182f3c04034e976dc2eb0faeab25d9c9a06b059012102b9dc0ee5dd5efca59d4b13c2dc96af850cae01754e93362a51aaf01ac6cc5f5502483045022100cd4156a17c18f3ee6ed3d0e03a9fcbb843785fdac473bec4c54df6e81e1592cc02206bd3618fb07c50376fccb7754ac81d4505eef60b1cf98880db6d4fa91b12ab5401210280ebe6a5c7f9f2a18166106a0ddbe7ca65c1c29703d515be85bc192807eef6ea0e490800", "vin": [{"txinwitness": ["3044022058a147fd9b80799dd5735661489740e31e95e13cec690336e36f7f1b7be70d8002205ee244847b9e70f9c22d28427182f3c04034e976dc2eb0faeab25d9c9a06b05901", "02b9dc0ee5dd5efca59d4b13c2dc96af850cae01754e93362a51aaf01ac6cc5f55"], "sequence": 4294967294, "scriptSig": {"hex": "160014bd15774eb58a71eac5b047a884132b572709c2f5", "asm": "0014bd15774eb58a71eac5b047a884132b572709c2f5"}, "vout": 5, "txid": "a098aea6036441f22854049f8a8ab17a40459e92086a5e32f04bcc4f0ee6c414"}, {"txinwitness": ["3045022100cd4156a17c18f3ee6ed3d0e03a9fcbb843785fdac473bec4c54df6e81e1592cc02206bd3618fb07c50376fccb7754ac81d4505eef60b1cf98880db6d4fa91b12ab5401", "0280ebe6a5c7f9f2a18166106a0ddbe7ca65c1c29703d515be85bc192807eef6ea"], "sequence": 4294967294, "scriptSig": {"hex": "1600142520ebf33b02ecf9d3f010dceef8172a5bbaf743", "asm": "00142520ebf33b02ecf9d3f010dceef8172a5bbaf743"}, "vout": 1, "txid": "2115266378bb359a50bf68ae0b07d2a946eff6802c2416e1f95ddb1c62e8256f"}], "txid": "d8eb00ac441ef654b8809d621d4758abbf47369b3ee3d2d032ade75873352e22", "blocktime": 1537870928, "version": 2, "confirmations": 11514, "time": 1537870928, "locktime": 542990, "vsize": 259, "size": 421}