{"hash": "d8f3cfda428040666dc9fc2edd57e9ea127bcc2a41ed0b4e0208a0f5d0eddd15", "blockhash": "00000000000000000024a2167bbff67b0be802c0b01cdd79e6331c2be6459f87", "vout": [{"scriptPubKey": {"reqSigs": 1, "hex": "76a9146df93ab681627d00b060ee1a796346da99ff098d88ac", "addresses": ["1B2VDfkf78qv7CzdSPKeH6SQotKnWUHgHu"], "asm": "OP_DUP OP_HASH160 6df93ab681627d00b060ee1a796346da99ff098d OP_EQUALVERIFY OP_CHECKSIG", "type": "pubkeyhash"}, "value": 0.0395, "n": 0}, {"scriptPubKey": {"reqSigs": 1, "hex": "a914dc4887d2864dc5a870e23408c8e92490b1b70b3287", "addresses": ["3MmmUFubtWDjvz9PHwqd9SNZEBUpkaS7jW"], "asm": "OP_HASH160 dc4887d2864dc5a870e23408c8e92490b1b70b32 OP_EQUAL", "type": "scripthash"}, "value": 0.00984542, "n": 1}], "hex": "0200000003179e6e62441a6e8ebe5a05f6077185c2f0e879568522b72eac2c7d023d6a446f590000006b483045022100bb3bcd9ab911c7e5e977a9db71f5bee176e07237e63dcf853f27b1566ce3cfb9022006b220409b10df7312e091c2de35fe40380702ced3b07a630d5beab37f67bec7012102693726c353c3805c03ab5cc91c36933e842c1ec9968bc396886391274aaee28dfeffffff5d500b81072d828b3e8679e89099ca64f4286111edd7f47f90bb2e06f9fd459c330000006a4730440220627aa80fc2399ca74b8496ff3af43127aa063937f33c57c00e5859ccc912a5e302204d25197571bf0db26ea9b179262fee17053601e8c7673cfba0a1987a4612fe5a01210240eb5457601d7e7364e091cce31773a58cbcaa58d802f95c58255c6d70f255bafeffffff6d3c38d918e07d12576d4cb138c5551359b80b68aa2e91ccd9191dd688f8757d000000006a4730440220475c866773d248e9cba3f9c5f7af6f6239272d096fd6c59055985e90cda80bf802200ea8f7d8725ee9b39d20796b722cf2f76ea361d8ba36cd5e23cda9634879d75d012103bfa2f722b6655ff85af1f9a3e4ad54dede50c924fa29528701b4f49c11a24babfeffffff02b0453c00000000001976a9146df93ab681627d00b060ee1a796346da99ff098d88acde050f000000000017a914dc4887d2864dc5a870e23408c8e92490b1b70b32870d490800", "vin": [{"sequence": 4294967294, "scriptSig": {"hex": "483045022100bb3bcd9ab911c7e5e977a9db71f5bee176e07237e63dcf853f27b1566ce3cfb9022006b220409b10df7312e091c2de35fe40380702ced3b07a630d5beab37f67bec7012102693726c353c3805c03ab5cc91c36933e842c1ec9968bc396886391274aaee28d", "asm": "3045022100bb3bcd9ab911c7e5e977a9db71f5bee176e07237e63dcf853f27b1566ce3cfb9022006b220409b10df7312e091c2de35fe40380702ced3b07a630d5beab37f67bec7[ALL] 02693726c353c3805c03ab5cc91c36933e842c1ec9968bc396886391274aaee28d"}, "vout": 89, "txid": "6f446a3d027d2cac2eb722855679e8f0c2857107f6055abe8e6e1a44626e9e17"}, {"sequence": 4294967294, "scriptSig": {"hex": "4730440220627aa80fc2399ca74b8496ff3af43127aa063937f33c57c00e5859ccc912a5e302204d25197571bf0db26ea9b179262fee17053601e8c7673cfba0a1987a4612fe5a01210240eb5457601d7e7364e091cce31773a58cbcaa58d802f95c58255c6d70f255ba", "asm": "30440220627aa80fc2399ca74b8496ff3af43127aa063937f33c57c00e5859ccc912a5e302204d25197571bf0db26ea9b179262fee17053601e8c7673cfba0a1987a4612fe5a[ALL] 0240eb5457601d7e7364e091cce31773a58cbcaa58d802f95c58255c6d70f255ba"}, "vout": 51, "txid": "9c45fdf9062ebb907ff4d7ed116128f464ca9990e879863e8b822d07810b505d"}, {"sequence": 4294967294, "scriptSig": {"hex": "4730440220475c866773d248e9cba3f9c5f7af6f6239272d096fd6c59055985e90cda80bf802200ea8f7d8725ee9b39d20796b722cf2f76ea361d8ba36cd5e23cda9634879d75d012103bfa2f722b6655ff85af1f9a3e4ad54dede50c924fa29528701b4f49c11a24bab", "asm": "30440220475c866773d248e9cba3f9c5f7af6f6239272d096fd6c59055985e90cda80bf802200ea8f7d8725ee9b39d20796b722cf2f76ea361d8ba36cd5e23cda9634879d75d[ALL] 03bfa2f722b6655ff85af1f9a3e4ad54dede50c924fa29528701b4f49c11a24bab"}, "vout": 0, "txid": "7d75f888d61d19d9cc912eaa680bb8591355c538b14c6d57127de018d9383c6d"}], "txid": "d8f3cfda428040666dc9fc2edd57e9ea127bcc2a41ed0b4e0208a0f5d0eddd15", "blocktime": 1537870564, "version": 2, "confirmations": 11515, "time": 1537870564, "locktime": 542989, "vsize": 518, "size": 518}