{"hash": "c2d1e5f184d79e5edcef22480bd6a0cccc74558f38ca498c7fc0485f9e565923", "blockhash": "00000000000000000004ffacab907a6b429b9a5745fa0b75af4234bf69dd7176", "vout": [{"scriptPubKey": {"reqSigs": 1, "hex": "76a914811a705be4f2535e68925873b8bf5b608f36c24388ac", "addresses": ["1CmdqkgwpXQJLn6nVeJXnVPUubVXxNTMin"], "asm": "OP_DUP OP_HASH160 811a705be4f2535e68925873b8bf5b608f36c243 OP_EQUALVERIFY OP_CHECKSIG", "type": "pubkeyhash"}, "value": 0.00257408, "n": 0}, {"scriptPubKey": {"reqSigs": 1, "hex": "a914d9646fb9b407e78ce8459241208a853dc173943487", "addresses": ["3MWUschNwAhGybu67FLM3P4Zs4HUZVE8n7"], "asm": "OP_HASH160 d9646fb9b407e78ce8459241208a853dc1739434 OP_EQUAL", "type": "scripthash"}, "value": 0.01489603, "n": 1}], "hex": "01000000000101804e5087a3d51d00d9379fa3ba19b67e643199aae697629a4fb5a94be330ef420000000023220020770a8acdba78a793df8b41f1636bf6bd642b4ea989475276056da1afa2fa05ecffffffff0280ed0300000000001976a914811a705be4f2535e68925873b8bf5b608f36c24388acc3ba16000000000017a914d9646fb9b407e78ce8459241208a853dc173943487040048304502210093d9eff5195b9a27fbea2a4b4ab18e77eaf5cde6cc4f4a1d855bb01de30504ab022048dadbafb8d24bb8f9b7b50f4aac798f1ae1e6f586514be1e23a886c67035d2501483045022100c56bd0c9f43e06a2251f724c318c2c4a264b8bab714e3367828abbb45ecb1edb022017e582e8ff395de6412d9569e3129a0d6466ce60309895e158178293867e6c4901475221035795d2e06501a8a07e5f06cd9bf12a3568719632d1a5e45c6d208a09cae1fd09210292d679353fa4a760eaad69284c09d063a1fd1a15ad8c70e83dbf86f7063f8c1852ae00000000", "vin": [{"txinwitness": ["", "304502210093d9eff5195b9a27fbea2a4b4ab18e77eaf5cde6cc4f4a1d855bb01de30504ab022048dadbafb8d24bb8f9b7b50f4aac798f1ae1e6f586514be1e23a886c67035d2501", "3045022100c56bd0c9f43e06a2251f724c318c2c4a264b8bab714e3367828abbb45ecb1edb022017e582e8ff395de6412d9569e3129a0d6466ce60309895e158178293867e6c4901", "5221035795d2e06501a8a07e5f06cd9bf12a3568719632d1a5e45c6d208a09cae1fd09210292d679353fa4a760eaad69284c09d063a1fd1a15ad8c70e83dbf86f7063f8c1852ae"], "sequence": 4294967295, "scriptSig": {"hex": "220020770a8acdba78a793df8b41f1636bf6bd642b4ea989475276056da1afa2fa05ec", "asm": "0020770a8acdba78a793df8b41f1636bf6bd642b4ea989475276056da1afa2fa05ec"}, "vout": 0, "txid": "42ef30e34ba9b54f9a6297e6aa9931647eb619baa39f37d9001dd5a387504e80"}], "txid": "d8f576772bab5e1922d4e0de4686d32b59ae0554d134e8e5a524047cb45d9d33", "blocktime": 1537875543, "version": 1, "confirmations": 11464, "time": 1537875543, "locktime": 0, "vsize": 208, "size": 374}