{"hash": "fb501019e6fe9dbc3316a1345b2bf0915227f87bc5ab23c576e43aef9fb5bfb5", "blockhash": "00000000000000000018f53835495a110e01622372bf6ae95dc86f2b0ab887b0", "vout": [{"scriptPubKey": {"reqSigs": 1, "hex": "a914e8685b746427bfb58bba9bf1ba635158ed97918d87", "addresses": ["3Nsshv8gGjwazzd96Fnkig5QXjdKMfQM58"], "asm": "OP_HASH160 e8685b746427bfb58bba9bf1ba635158ed97918d OP_EQUAL", "type": "scripthash"}, "value": 0.5, "n": 0}, {"scriptPubKey": {"reqSigs": 1, "hex": "a91436af8b8f75e8883c2ad3588fb6a01dcc04db1b4987", "addresses": ["36gAhzc2nZH9rnXnm3HDmf9D3skMu3Wq2F"], "asm": "OP_HASH160 36af8b8f75e8883c2ad3588fb6a01dcc04db1b49 OP_EQUAL", "type": "scripthash"}, "value": 1.79996165, "n": 1}], "hex": "0100000000010153030179bbb97b4cd63ba947d276420a0925af86aaef63d1f463fde3c917eeaa0300000017160014de630acb897e3895920afb9d7e98a981ba1a4e88ffffffff0280f0fa020000000017a914e8685b746427bfb58bba9bf1ba635158ed97918d870586ba0a0000000017a91436af8b8f75e8883c2ad3588fb6a01dcc04db1b49870247304402200a2d0d4b8ced606a375337253772de0b2dafa0765aa3e7dc1c15cfc2ba2f9eb7022060f3384c753496f57973568a1bbeef50bea8b0d482908d3c70880c5b0419ed660121034eff9ceee9afff00ffa74845b17ec54e3860a91306c6a65890ccd81d4e4d0c1600000000", "vin": [{"txinwitness": ["304402200a2d0d4b8ced606a375337253772de0b2dafa0765aa3e7dc1c15cfc2ba2f9eb7022060f3384c753496f57973568a1bbeef50bea8b0d482908d3c70880c5b0419ed6601", "034eff9ceee9afff00ffa74845b17ec54e3860a91306c6a65890ccd81d4e4d0c16"], "sequence": 4294967295, "scriptSig": {"hex": "160014de630acb897e3895920afb9d7e98a981ba1a4e88", "asm": "0014de630acb897e3895920afb9d7e98a981ba1a4e88"}, "vout": 3, "txid": "aaee17c9e3fd63f4d163efaa86af25090a4276d247a93bd64c7bb9bb79010353"}], "txid": "d8f7415e12182bdb769747e3d974eaccb029d0c36699e8628a635bff3d39a30e", "blocktime": 1537870928, "version": 1, "confirmations": 11512, "time": 1537870928, "locktime": 0, "vsize": 166, "size": 247}