{"hash": "3e627779a2e864e96fae1b9b6fc1931d4a27e20f42aba1fd25f24643f2915f1a", "blockhash": "0000000000000000000e13cef7c366c0283d82e591d1acd082e914b08063cdf1", "vout": [{"scriptPubKey": {"reqSigs": 1, "hex": "76a9149c2fcc269cf0fc4bcad337c895150e6b3d0c140b88ac", "addresses": ["1FEqfxC7SN8jDYpZtogGVaDubd5ZwZjQSw"], "asm": "OP_DUP OP_HASH160 9c2fcc269cf0fc4bcad337c895150e6b3d0c140b OP_EQUALVERIFY OP_CHECKSIG", "type": "pubkeyhash"}, "value": 0.12021139, "n": 0}, {"scriptPubKey": {"reqSigs": 1, "hex": "a91459f247f57ba10ce7ca1b1b634e91c575354f687487", "addresses": ["39tcJbryp8BA4rfJ6pPczZmvGVocFDSaCF"], "asm": "OP_HASH160 59f247f57ba10ce7ca1b1b634e91c575354f6874 OP_EQUAL", "type": "scripthash"}, "value": 0.02129905, "n": 1}], "hex": "02000000000104a0463e79665384470a0a5c03b3d05654ccb7e09a0c5a232c7d777578b1e5639100000000171600149e25ae491ad947a0a3f83f2793040b5b72b1f47bffffffffbfcb56e04a681c0be5cbc07394dda60b7be47bb223d57e74c148e209ccffe1fd01000000171600141749b812ee1012d328679b3c21b669b0bce44dc2ffffffff309f9cc977fc89dfa3ee0be7a9218415e406d058c3277f1a91adfba05a9357f4c9000000171600142c95f78c2f5a1d451bf27797f5b6d40f65180b36ffffffff5fb4e34f44f9d4e3774568eb3df0d9630f3dd675d7670287629bf7d0d980289600000000171600146de8006b51fd3723967af6f447baa45addb5f9d5ffffffff02936db700000000001976a9149c2fcc269cf0fc4bcad337c895150e6b3d0c140b88acf17f20000000000017a91459f247f57ba10ce7ca1b1b634e91c575354f68748702483045022100e88dc659a2661e85781dbc08e8798b22d318d0e5e75ea2c97b3d29083a6b77f102202bb8fe0e1dcfd0f14f1860452f234828aeafdc422938729b4ba55bbdbbbd728a01210305efa7da3ef3f1f1472309df3aa274634988b58f9750c052d4d72aeaa6b5f0df024730440220520759f1fb76c97d65ce84708b7429cf7ac012864df1bf9292ddde2b27ebd34b02204fd3977ae9084b94780c661bc2aa2f9addb03851ee65b3870cf07e0ca0a16aa8012102c6c38d32c617d41cb57a9bfbb40fe956dac79472ec4c7623c55d6d94fa5859b3024730440220626246f2aed561a2277b9e54891af8413a854a9ae3f419a1b90f85ba3392d87002207db66de84956a2150b4c91d097dd662d8a6e37ef429d049da7488d5cbaaeb484012103323ecade2270b62f55817892de0e524c9e7b38f960756d77e7edc724b8d9d4630247304402202bab68fc6371a25819783e66be246368031771a18904ae9bcf8c7d626e5a43a502204611caa4754aee45b0c8362599e17868c1380dce57c6bd0872ca26a4cd66b0410121039940c1d7026e87aaec5864b1a57589ebb5afaad45c68480a55638c1905277abd00000000", "vin": [{"txinwitness": ["3045022100e88dc659a2661e85781dbc08e8798b22d318d0e5e75ea2c97b3d29083a6b77f102202bb8fe0e1dcfd0f14f1860452f234828aeafdc422938729b4ba55bbdbbbd728a01", "0305efa7da3ef3f1f1472309df3aa274634988b58f9750c052d4d72aeaa6b5f0df"], "sequence": 4294967295, "scriptSig": {"hex": "1600149e25ae491ad947a0a3f83f2793040b5b72b1f47b", "asm": "00149e25ae491ad947a0a3f83f2793040b5b72b1f47b"}, "vout": 0, "txid": "9163e5b17875777d2c235a0c9ae0b7cc5456d0b3035c0a0a47845366793e46a0"}, {"txinwitness": ["30440220520759f1fb76c97d65ce84708b7429cf7ac012864df1bf9292ddde2b27ebd34b02204fd3977ae9084b94780c661bc2aa2f9addb03851ee65b3870cf07e0ca0a16aa801", "02c6c38d32c617d41cb57a9bfbb40fe956dac79472ec4c7623c55d6d94fa5859b3"], "sequence": 4294967295, "scriptSig": {"hex": "1600141749b812ee1012d328679b3c21b669b0bce44dc2", "asm": "00141749b812ee1012d328679b3c21b669b0bce44dc2"}, "vout": 1, "txid": "fde1ffcc09e248c1747ed523b27be47b0ba6dd9473c0cbe50b1c684ae056cbbf"}, {"txinwitness": ["30440220626246f2aed561a2277b9e54891af8413a854a9ae3f419a1b90f85ba3392d87002207db66de84956a2150b4c91d097dd662d8a6e37ef429d049da7488d5cbaaeb48401", "03323ecade2270b62f55817892de0e524c9e7b38f960756d77e7edc724b8d9d463"], "sequence": 4294967295, "scriptSig": {"hex": "1600142c95f78c2f5a1d451bf27797f5b6d40f65180b36", "asm": "00142c95f78c2f5a1d451bf27797f5b6d40f65180b36"}, "vout": 201, "txid": "f457935aa0fbad911a7f27c358d006e4158421a9e70beea3df89fc77c99c9f30"}, {"txinwitness": ["304402202bab68fc6371a25819783e66be246368031771a18904ae9bcf8c7d626e5a43a502204611caa4754aee45b0c8362599e17868c1380dce57c6bd0872ca26a4cd66b04101", "039940c1d7026e87aaec5864b1a57589ebb5afaad45c68480a55638c1905277abd"], "sequence": 4294967295, "scriptSig": {"hex": "1600146de8006b51fd3723967af6f447baa45addb5f9d5", "asm": "00146de8006b51fd3723967af6f447baa45addb5f9d5"}, "vout": 0, "txid": "962880d9d0f79b62870267d775d63d0f63d9f03deb684577e3d4f9444fe3b45f"}], "txid": "d8f85753c57445f33133c13b696845fe27e50dc151d21fded18e18ae9b077413", "blocktime": 1537871767, "version": 2, "confirmations": 11495, "time": 1537871767, "locktime": 0, "vsize": 440, "size": 763}