{"hash": "d8ff08acf86cf39ece872e54fc291e76abd1ac670bba83730ac74aabc53a5a39", "blockhash": "0000000000000000000e13cef7c366c0283d82e591d1acd082e914b08063cdf1", "vout": [{"scriptPubKey": {"reqSigs": 1, "hex": "76a9141c38c2808af59318b1699e0bcd2710bb7aee9b2e88ac", "addresses": ["13aDv7MJ6s2fe4kHKSDru7st19iXMf3sYw"], "asm": "OP_DUP OP_HASH160 1c38c2808af59318b1699e0bcd2710bb7aee9b2e OP_EQUALVERIFY OP_CHECKSIG", "type": "pubkeyhash"}, "value": 0.00299112, "n": 0}], "hex": "0100000005ce41f7f3a2c441ff146f1b5012acca1c39e5b9f61b79e64ecf7b1789808e0216000000006b483045022100846f4072c7dca112b4eebbb5ab0f106c5ccb5c561d535bc0300e0ee78b39c49702207b73f8b049b950399898374a721bf663a8c87816b832f8c171f734c3ed4ccbea0121035106d72c09be97cec38f9087380add8e7d3b6d44104406734e7652ee9acd73ceffffffff4c54f80abebbe4f4b2dc7c966ff3b8840aadc2c5807ec16b361fb6f9590a9c35000000006b483045022100e1bf21075986bbc20bad1c219f3c88c9bbeba8449c9a40dac50702f6f804ad69022029d3295ed00d80e0ad23a4f8f6dc3cfc67681fbc83f39e551be52f092c221fc9012103fe0f3da3aee181528f90dee6e5ecb30a51c3ecdd9b80a8d25aafd3aea3d52c61ffffffff6be4f025f744b803b0d92e81d88a89ddecb266652848398b5ccc8e6397decf5f000000006b483045022100927f94be95da5438dc2250f03b643ef8dd77d38318def7e987985fec4149429102201a2499fd92b346493f59c099a3181dd3bbbce3dc32b9f1de09640786c35831e2012102e6652211242398551ca7e30507c1d99f417cb04cb592d1488ba22089df11dc92ffffffffe67d6829d4e56fee0eadd95919cfdb14f840ded21ac14faf3931ca5a56e29978000000006a47304402207fe01d1f86d4f8acd29e2d384a6b49875c972aaaf9c0a86f73bd02d43647c0300220388d1ac7d0d313d2c20964afca79ad3395a36a195651ca51c0dc0bc4e6c592290121030a5afe27c116c4c3344b6c21fdb7e73341314e2019056d96f801dee08c80f6ebffffffff9a8401c88c3e76a28842cc8f19b6c5061d4f989a4ee85685fd6f34c5626273e3000000006b48304502210081a39bade6c8dda38c6fc96dfb82c006a954276c3b204f2521ba717a1ee3941a02204cf7760ee39441f1a1023bc2a09fed2570c86f9773dcf98d91a16c7c85d65699012102ac96c9f6f2c99f8e20897795c12cca369eb189bd346efe1fc4c08f09438cec62ffffffff0168900400000000001976a9141c38c2808af59318b1699e0bcd2710bb7aee9b2e88ac00000000", "vin": [{"sequence": 4294967295, "scriptSig": {"hex": "483045022100846f4072c7dca112b4eebbb5ab0f106c5ccb5c561d535bc0300e0ee78b39c49702207b73f8b049b950399898374a721bf663a8c87816b832f8c171f734c3ed4ccbea0121035106d72c09be97cec38f9087380add8e7d3b6d44104406734e7652ee9acd73ce", "asm": "3045022100846f4072c7dca112b4eebbb5ab0f106c5ccb5c561d535bc0300e0ee78b39c49702207b73f8b049b950399898374a721bf663a8c87816b832f8c171f734c3ed4ccbea[ALL] 035106d72c09be97cec38f9087380add8e7d3b6d44104406734e7652ee9acd73ce"}, "vout": 0, "txid": "16028e8089177bcf4ee6791bf6b9e5391ccaac12501b6f14ff41c4a2f3f741ce"}, {"sequence": 4294967295, "scriptSig": {"hex": "483045022100e1bf21075986bbc20bad1c219f3c88c9bbeba8449c9a40dac50702f6f804ad69022029d3295ed00d80e0ad23a4f8f6dc3cfc67681fbc83f39e551be52f092c221fc9012103fe0f3da3aee181528f90dee6e5ecb30a51c3ecdd9b80a8d25aafd3aea3d52c61", "asm": "3045022100e1bf21075986bbc20bad1c219f3c88c9bbeba8449c9a40dac50702f6f804ad69022029d3295ed00d80e0ad23a4f8f6dc3cfc67681fbc83f39e551be52f092c221fc9[ALL] 03fe0f3da3aee181528f90dee6e5ecb30a51c3ecdd9b80a8d25aafd3aea3d52c61"}, "vout": 0, "txid": "359c0a59f9b61f366bc17e80c5c2ad0a84b8f36f967cdcb2f4e4bbbe0af8544c"}, {"sequence": 4294967295, "scriptSig": {"hex": "483045022100927f94be95da5438dc2250f03b643ef8dd77d38318def7e987985fec4149429102201a2499fd92b346493f59c099a3181dd3bbbce3dc32b9f1de09640786c35831e2012102e6652211242398551ca7e30507c1d99f417cb04cb592d1488ba22089df11dc92", "asm": "3045022100927f94be95da5438dc2250f03b643ef8dd77d38318def7e987985fec4149429102201a2499fd92b346493f59c099a3181dd3bbbce3dc32b9f1de09640786c35831e2[ALL] 02e6652211242398551ca7e30507c1d99f417cb04cb592d1488ba22089df11dc92"}, "vout": 0, "txid": "5fcfde97638ecc5c8b3948286566b2ecdd898ad8812ed9b003b844f725f0e46b"}, {"sequence": 4294967295, "scriptSig": {"hex": "47304402207fe01d1f86d4f8acd29e2d384a6b49875c972aaaf9c0a86f73bd02d43647c0300220388d1ac7d0d313d2c20964afca79ad3395a36a195651ca51c0dc0bc4e6c592290121030a5afe27c116c4c3344b6c21fdb7e73341314e2019056d96f801dee08c80f6eb", "asm": "304402207fe01d1f86d4f8acd29e2d384a6b49875c972aaaf9c0a86f73bd02d43647c0300220388d1ac7d0d313d2c20964afca79ad3395a36a195651ca51c0dc0bc4e6c59229[ALL] 030a5afe27c116c4c3344b6c21fdb7e73341314e2019056d96f801dee08c80f6eb"}, "vout": 0, "txid": "7899e2565aca3139af4fc11ad2de40f814dbcf1959d9ad0eee6fe5d429687de6"}, {"sequence": 4294967295, "scriptSig": {"hex": "48304502210081a39bade6c8dda38c6fc96dfb82c006a954276c3b204f2521ba717a1ee3941a02204cf7760ee39441f1a1023bc2a09fed2570c86f9773dcf98d91a16c7c85d65699012102ac96c9f6f2c99f8e20897795c12cca369eb189bd346efe1fc4c08f09438cec62", "asm": "304502210081a39bade6c8dda38c6fc96dfb82c006a954276c3b204f2521ba717a1ee3941a02204cf7760ee39441f1a1023bc2a09fed2570c86f9773dcf98d91a16c7c85d65699[ALL] 02ac96c9f6f2c99f8e20897795c12cca369eb189bd346efe1fc4c08f09438cec62"}, "vout": 0, "txid": "e3736262c5346ffd8556e84e9a984f1d06c5b6198fcc4288a2763e8cc801849a"}], "txid": "d8ff08acf86cf39ece872e54fc291e76abd1ac670bba83730ac74aabc53a5a39", "blocktime": 1537871767, "version": 1, "confirmations": 11495, "time": 1537871767, "locktime": 0, "vsize": 783, "size": 783}