{"hash": "d903a5a61b5b5a09d350cee06a59ac303c96334254931f15415c091de9c80fed", "blockhash": "0000000000000000000dcc0f55137456b1a82d3642486a52398922ac4d620174", "vout": [{"scriptPubKey": {"reqSigs": 1, "hex": "76a9148393274cabc1eaaf2d1500b1b36c9be885b9cd3d88ac", "addresses": ["1CzhoY3H4kH39jkQBwDdU5qdAWbXe77AMW"], "asm": "OP_DUP OP_HASH160 8393274cabc1eaaf2d1500b1b36c9be885b9cd3d OP_EQUALVERIFY OP_CHECKSIG", "type": "pubkeyhash"}, "value": 1.848e-05, "n": 0}, {"scriptPubKey": {"reqSigs": 1, "hex": "a914cf157ab4beab4a8c85a592cee6da13f3918ffda587", "addresses": ["3LZyXfMDcFWAuLwVbQ41Rm8ERSMq8zwNzg"], "asm": "OP_HASH160 cf157ab4beab4a8c85a592cee6da13f3918ffda5 OP_EQUAL", "type": "scripthash"}, "value": 0.00145, "n": 1}], "hex": "0100000006da7888e97b87d134a9ea180e10afaa8a40a5a9669b82542f0bcdc4a841db833f000000006a473044022027e2b41cc64ab7b5630f31387131c2a20fc26360361f7d3bb931585e7622097f02204e5ac01e14ae7ee7fcbd086b2aefb9ee163969697ea139a69136985e5b5b879a01210234f775ec8729b2d7deb49909e5e394de19fd98ff950e470f95779105ce7f0021fffffffff72385c481245fdf02b41c121d218be0e89b50282cf3c37c6658add7bfa7025e010000006b483045022100e1951fbadbb1ac01f2c08884e4ab8502294b0739b92b3efa82712c6486d7974302206708b63b44e6137062979682c58c4d7e6740f8081014b49f203d3622baac5abc01210234f775ec8729b2d7deb49909e5e394de19fd98ff950e470f95779105ce7f0021ffffffff1a5817b813e8ef68374b100bd37c7bd1915a19c390e4596673ecc9a24ae7aa64000000006b483045022100bf8206c93936b1ab6afda2f0d892bb00d7cf1e17c150a7d078ee1512dcde36a602201af1d4632bc817ddb83f993b7c7edfd4374c2927b74a7325e976daa4c10f256b01210234f775ec8729b2d7deb49909e5e394de19fd98ff950e470f95779105ce7f0021ffffffff8f8e4b8ec6778c382eefc736dd3cb585009d056a945c31f6873f4b4cab56668f000000006b483045022100be344f1b1b69d2a8ef267f412e4f1cc252bf43b73b1adb4584d17b935d6e99d802202fd44ef9d5e837b58464efa73955452355a047dee425ecb90e3b35c1924fe2eb01210234f775ec8729b2d7deb49909e5e394de19fd98ff950e470f95779105ce7f0021ffffffff9ca2b4b88dc5ffc41d8ec7dc635fe0db2227a92c3f08a33ba6582ff52dd800ac000000006a47304402203ffa0e9d641746e354bce7f06534525cae40ce346bc3663c64cff590516631e802202d075a465f5c6b6450b1ede1aa629f61b738c1087c7cef9a9942fedcdc11b1b401210234f775ec8729b2d7deb49909e5e394de19fd98ff950e470f95779105ce7f0021ffffffff0540fdf7bc1585a9e110866340e3b314c93806776d8071bb1d28fbadb8d02ce8010000006b483045022100818314b3a3d8a6e9931a0a5f6ba726ce59e1706b06a8550b85d5145b9d762811022015dc359a344fe5b38d1198ba8d619dc5a9d7858fb9b1477682b48acf96dfccbb01210234f775ec8729b2d7deb49909e5e394de19fd98ff950e470f95779105ce7f0021ffffffff0238070000000000001976a9148393274cabc1eaaf2d1500b1b36c9be885b9cd3d88ac683602000000000017a914cf157ab4beab4a8c85a592cee6da13f3918ffda58700000000", "vin": [{"sequence": 4294967295, "scriptSig": {"hex": "473044022027e2b41cc64ab7b5630f31387131c2a20fc26360361f7d3bb931585e7622097f02204e5ac01e14ae7ee7fcbd086b2aefb9ee163969697ea139a69136985e5b5b879a01210234f775ec8729b2d7deb49909e5e394de19fd98ff950e470f95779105ce7f0021", "asm": "3044022027e2b41cc64ab7b5630f31387131c2a20fc26360361f7d3bb931585e7622097f02204e5ac01e14ae7ee7fcbd086b2aefb9ee163969697ea139a69136985e5b5b879a[ALL] 0234f775ec8729b2d7deb49909e5e394de19fd98ff950e470f95779105ce7f0021"}, "vout": 0, "txid": "3f83db41a8c4cd0b2f54829b66a9a5408aaaaf100e18eaa934d1877be98878da"}, {"sequence": 4294967295, "scriptSig": {"hex": "483045022100e1951fbadbb1ac01f2c08884e4ab8502294b0739b92b3efa82712c6486d7974302206708b63b44e6137062979682c58c4d7e6740f8081014b49f203d3622baac5abc01210234f775ec8729b2d7deb49909e5e394de19fd98ff950e470f95779105ce7f0021", "asm": "3045022100e1951fbadbb1ac01f2c08884e4ab8502294b0739b92b3efa82712c6486d7974302206708b63b44e6137062979682c58c4d7e6740f8081014b49f203d3622baac5abc[ALL] 0234f775ec8729b2d7deb49909e5e394de19fd98ff950e470f95779105ce7f0021"}, "vout": 1, "txid": "5e02a7bfd7ad58667cc3f32c28509be8e08b211d121cb402df5f2481c48523f7"}, {"sequence": 4294967295, "scriptSig": {"hex": "483045022100bf8206c93936b1ab6afda2f0d892bb00d7cf1e17c150a7d078ee1512dcde36a602201af1d4632bc817ddb83f993b7c7edfd4374c2927b74a7325e976daa4c10f256b01210234f775ec8729b2d7deb49909e5e394de19fd98ff950e470f95779105ce7f0021", "asm": "3045022100bf8206c93936b1ab6afda2f0d892bb00d7cf1e17c150a7d078ee1512dcde36a602201af1d4632bc817ddb83f993b7c7edfd4374c2927b74a7325e976daa4c10f256b[ALL] 0234f775ec8729b2d7deb49909e5e394de19fd98ff950e470f95779105ce7f0021"}, "vout": 0, "txid": "64aae74aa2c9ec736659e490c3195a91d17b7cd30b104b3768efe813b817581a"}, {"sequence": 4294967295, "scriptSig": {"hex": "483045022100be344f1b1b69d2a8ef267f412e4f1cc252bf43b73b1adb4584d17b935d6e99d802202fd44ef9d5e837b58464efa73955452355a047dee425ecb90e3b35c1924fe2eb01210234f775ec8729b2d7deb49909e5e394de19fd98ff950e470f95779105ce7f0021", "asm": "3045022100be344f1b1b69d2a8ef267f412e4f1cc252bf43b73b1adb4584d17b935d6e99d802202fd44ef9d5e837b58464efa73955452355a047dee425ecb90e3b35c1924fe2eb[ALL] 0234f775ec8729b2d7deb49909e5e394de19fd98ff950e470f95779105ce7f0021"}, "vout": 0, "txid": "8f6656ab4c4b3f87f6315c946a059d0085b53cdd36c7ef2e388c77c68e4b8e8f"}, {"sequence": 4294967295, "scriptSig": {"hex": "47304402203ffa0e9d641746e354bce7f06534525cae40ce346bc3663c64cff590516631e802202d075a465f5c6b6450b1ede1aa629f61b738c1087c7cef9a9942fedcdc11b1b401210234f775ec8729b2d7deb49909e5e394de19fd98ff950e470f95779105ce7f0021", "asm": "304402203ffa0e9d641746e354bce7f06534525cae40ce346bc3663c64cff590516631e802202d075a465f5c6b6450b1ede1aa629f61b738c1087c7cef9a9942fedcdc11b1b4[ALL] 0234f775ec8729b2d7deb49909e5e394de19fd98ff950e470f95779105ce7f0021"}, "vout": 0, "txid": "ac00d82df52f58a63ba3083f2ca92722dbe05f63dcc78e1dc4ffc58db8b4a29c"}, {"sequence": 4294967295, "scriptSig": {"hex": "483045022100818314b3a3d8a6e9931a0a5f6ba726ce59e1706b06a8550b85d5145b9d762811022015dc359a344fe5b38d1198ba8d619dc5a9d7858fb9b1477682b48acf96dfccbb01210234f775ec8729b2d7deb49909e5e394de19fd98ff950e470f95779105ce7f0021", "asm": "3045022100818314b3a3d8a6e9931a0a5f6ba726ce59e1706b06a8550b85d5145b9d762811022015dc359a344fe5b38d1198ba8d619dc5a9d7858fb9b1477682b48acf96dfccbb[ALL] 0234f775ec8729b2d7deb49909e5e394de19fd98ff950e470f95779105ce7f0021"}, "vout": 1, "txid": "e82cd0b8adfb281dbb71806d770638c914b3e340638610e1a98515bcf7fd4005"}], "txid": "d903a5a61b5b5a09d350cee06a59ac303c96334254931f15415c091de9c80fed", "blocktime": 1537870268, "version": 1, "confirmations": 11518, "time": 1537870268, "locktime": 0, "vsize": 962, "size": 962}