{"hash": "3d8de1cae98b8bfe921b4793b413e665826df450708da09ae107458a60998bd5", "blockhash": "0000000000000000000e13cef7c366c0283d82e591d1acd082e914b08063cdf1", "vout": [{"scriptPubKey": {"reqSigs": 1, "hex": "0014fb52a9a196e0c7eaeb76bc7d79fb8ee1e47adc1a", "addresses": ["bc1qldf2ngvkurr746mkh37hn7uwu8j84hq6qnqcn3"], "asm": "0 fb52a9a196e0c7eaeb76bc7d79fb8ee1e47adc1a", "type": "witness_v0_keyhash"}, "value": 0.00970171, "n": 0}, {"scriptPubKey": {"reqSigs": 1, "hex": "a914c3cc1bf3616379644c81dd6e7f70c3c97b21849787", "addresses": ["3KYJChru2H6QTfTj9VEwKyFhA7eQnvuk4M"], "asm": "OP_HASH160 c3cc1bf3616379644c81dd6e7f70c3c97b218497 OP_EQUAL", "type": "scripthash"}, "value": 0.02029248, "n": 1}], "hex": "010000000001012ef4ff2f1ec545b82d433dc0494e5aefa2494c32f5ed8f6e09971c7d673fc2b00000000017160014ed2575a7deabe06f9047b33958103b9a5e324134ffffffff02bbcd0e0000000000160014fb52a9a196e0c7eaeb76bc7d79fb8ee1e47adc1ac0f61e000000000017a914c3cc1bf3616379644c81dd6e7f70c3c97b2184978702483045022100c0bd9b197c1d94a6bd14cd531b84aa465d83831de66ece83654f67fbc59dc427022011f497d122595d901dc2cfc32e7d7b7a84ecf9fb16a5600e7e278f2134a8803801210300aa13572b4d575e7d1659c7577665cd7769b25326c31ca8cf66fb31e91c579400000000", "vin": [{"txinwitness": ["3045022100c0bd9b197c1d94a6bd14cd531b84aa465d83831de66ece83654f67fbc59dc427022011f497d122595d901dc2cfc32e7d7b7a84ecf9fb16a5600e7e278f2134a8803801", "0300aa13572b4d575e7d1659c7577665cd7769b25326c31ca8cf66fb31e91c5794"], "sequence": 4294967295, "scriptSig": {"hex": "160014ed2575a7deabe06f9047b33958103b9a5e324134", "asm": "0014ed2575a7deabe06f9047b33958103b9a5e324134"}, "vout": 0, "txid": "b0c23f677d1c97096e8fedf5324c49a2ef5a4e49c03d432db845c51e2ffff42e"}], "txid": "d90a2cfb4bb30c2e26e8c048e05823a1a69eb7a03990dfa6521a517e3945e800", "blocktime": 1537871767, "version": 1, "confirmations": 11495, "time": 1537871767, "locktime": 0, "vsize": 165, "size": 247}