{"hash": "d90c58f0c03613930738584a81fb0a131a1c127b7272f2f756105545bdb9a180", "blockhash": "0000000000000000000baef3f32e3676a92c3b2e5da21b426e4f302fc371ce76", "vout": [{"scriptPubKey": {"reqSigs": 1, "hex": "76a9140a6b825daa1b89f8e100ed8eec6d79b592500f4988ac", "addresses": ["1x6YnuBVeeE65dQRZztRWgUPwyBjHCA5g"], "asm": "OP_DUP OP_HASH160 0a6b825daa1b89f8e100ed8eec6d79b592500f49 OP_EQUALVERIFY OP_CHECKSIG", "type": "pubkeyhash"}, "value": 0.4423743, "n": 0}, {"scriptPubKey": {"reqSigs": 1, "hex": "76a914ae0731e7bf37312a26433c5d0b193438aaee09cc88ac", "addresses": ["1GsBCHvoo62Mm6aZVnofizKFmjsKwq49gF"], "asm": "OP_DUP OP_HASH160 ae0731e7bf37312a26433c5d0b193438aaee09cc OP_EQUALVERIFY OP_CHECKSIG", "type": "pubkeyhash"}, "value": 5.46e-06, "n": 1}, {"scriptPubKey": {"type": "nulldata", "hex": "6a146f6d6e69000000000000001f00000008b536b600", "asm": "OP_RETURN 6f6d6e69000000000000001f00000008b536b600"}, "value": 0.0, "n": 2}], "hex": "0100000001c6f146138389acef34a0104e3ca4ba53cbfdc0e090a1db6e8cc63e6e44d6a6a300000000694630430220066e6701d572bd638d93c0197bc7e9b0aec595061f1345052e0c303cbc9db0df021f50e5c9c87c66d975c17d2ddf2485ceffa4bea938c7978b8bf5bcf1687721f9012103fe02b06a6bfd9b5a83e0417430a3235a39a0b4c7973591ca27ac58f6474d9120ffffffff037602a302000000001976a9140a6b825daa1b89f8e100ed8eec6d79b592500f4988ac22020000000000001976a914ae0731e7bf37312a26433c5d0b193438aaee09cc88ac0000000000000000166a146f6d6e69000000000000001f00000008b536b60000000000", "vin": [{"sequence": 4294967295, "scriptSig": {"hex": "4630430220066e6701d572bd638d93c0197bc7e9b0aec595061f1345052e0c303cbc9db0df021f50e5c9c87c66d975c17d2ddf2485ceffa4bea938c7978b8bf5bcf1687721f9012103fe02b06a6bfd9b5a83e0417430a3235a39a0b4c7973591ca27ac58f6474d9120", "asm": "30430220066e6701d572bd638d93c0197bc7e9b0aec595061f1345052e0c303cbc9db0df021f50e5c9c87c66d975c17d2ddf2485ceffa4bea938c7978b8bf5bcf1687721f9[ALL] 03fe02b06a6bfd9b5a83e0417430a3235a39a0b4c7973591ca27ac58f6474d9120"}, "vout": 0, "txid": "a3a6d6446e3ec68c6edba190e0c0fdcb53baa43c4e10a034efac89831346f1c6"}], "txid": "d90c58f0c03613930738584a81fb0a131a1c127b7272f2f756105545bdb9a180", "blocktime": 1537876114, "version": 1, "confirmations": 11459, "time": 1537876114, "locktime": 0, "vsize": 255, "size": 255}