{"hash": "d913ab1bb8576a0ca211a446b272e09d4826e3424670a5461cc5254806b766c2", "blockhash": "0000000000000000000e13cef7c366c0283d82e591d1acd082e914b08063cdf1", "vout": [{"scriptPubKey": {"reqSigs": 1, "hex": "76a9143a2cc228180d6d012cb858cfecea386e1e50354788ac", "addresses": ["16JbozmZCz6UTg5WeDAHmCxpW7QRNdqzNE"], "asm": "OP_DUP OP_HASH160 3a2cc228180d6d012cb858cfecea386e1e503547 OP_EQUALVERIFY OP_CHECKSIG", "type": "pubkeyhash"}, "value": 0.00068466, "n": 0}, {"scriptPubKey": {"reqSigs": 1, "hex": "a914e80e2d899cb683775bb75d8689a29a9936e3974587", "addresses": ["3Nr1g9MYpCC9mbMTfs1FkbAkaDPFSMHqjx"], "asm": "OP_HASH160 e80e2d899cb683775bb75d8689a29a9936e39745 OP_EQUAL", "type": "scripthash"}, "value": 0.00236, "n": 1}], "hex": "010000000196ddf32f2dc402c20ff5e673c67244df20d9b08f755b68af6cfea6509f34b018000000006b48304502210081068a6aab54a5f5c45c714937dae2ffec8ed4c18c52933e0f0ed518de6b419d022054fd6ed90a69cf40e7c9b4f5cba30595acb7294b035d08d6419209322ebbbf3d012103e2e11460ac8045867218f27666d51e1b09a947cbab6249b15be4e68c94b5c6a7ffffffff02720b0100000000001976a9143a2cc228180d6d012cb858cfecea386e1e50354788ace09903000000000017a914e80e2d899cb683775bb75d8689a29a9936e397458700000000", "vin": [{"sequence": 4294967295, "scriptSig": {"hex": "48304502210081068a6aab54a5f5c45c714937dae2ffec8ed4c18c52933e0f0ed518de6b419d022054fd6ed90a69cf40e7c9b4f5cba30595acb7294b035d08d6419209322ebbbf3d012103e2e11460ac8045867218f27666d51e1b09a947cbab6249b15be4e68c94b5c6a7", "asm": "304502210081068a6aab54a5f5c45c714937dae2ffec8ed4c18c52933e0f0ed518de6b419d022054fd6ed90a69cf40e7c9b4f5cba30595acb7294b035d08d6419209322ebbbf3d[ALL] 03e2e11460ac8045867218f27666d51e1b09a947cbab6249b15be4e68c94b5c6a7"}, "vout": 0, "txid": "18b0349f50a6fe6caf685b758fb0d920df4472c673e6f50fc202c42d2ff3dd96"}], "txid": "d913ab1bb8576a0ca211a446b272e09d4826e3424670a5461cc5254806b766c2", "blocktime": 1537871767, "version": 1, "confirmations": 11495, "time": 1537871767, "locktime": 0, "vsize": 224, "size": 224}