{"hash": "93b520c64ec182277d5e273bdac03874924d00b24c70e0a691904f5e6bc4d8b6", "blockhash": "00000000000000000024a2167bbff67b0be802c0b01cdd79e6331c2be6459f87", "vout": [{"scriptPubKey": {"reqSigs": 1, "hex": "a9147a62eb2882d607732c486b2abdec128f6e3702f287", "addresses": ["3Cr8rvx3vFJ89ppWyoAGhKwRMaLPotSe3Y"], "asm": "OP_HASH160 7a62eb2882d607732c486b2abdec128f6e3702f2 OP_EQUAL", "type": "scripthash"}, "value": 0.03726263, "n": 0}, {"scriptPubKey": {"reqSigs": 1, "hex": "a914c50743cab0f70d34a1b7f1c10d47dba2d9ca8ccf87", "addresses": ["3Keok6tQMHkXHJjWabWTunca4N3Q9ext8x"], "asm": "OP_HASH160 c50743cab0f70d34a1b7f1c10d47dba2d9ca8ccf OP_EQUAL", "type": "scripthash"}, "value": 0.03602013, "n": 1}], "hex": "020000000001018c92db84909296d4783de673716f62674fc5b1a4dff78884a4e9c4ae078187830000000017160014fb5347e15aef3136e8b6ce3b2dcac533f3677f17feffffff02b7db38000000000017a9147a62eb2882d607732c486b2abdec128f6e3702f2875df636000000000017a914c50743cab0f70d34a1b7f1c10d47dba2d9ca8ccf870247304402202ce3b7138b1ae5b05c0139387a5ca7fe2be8a81e2d56d98fc1174816b841270502202917552a7b09e4c50a56f5d23602974b15042254a937ca5d9c0c3c7ea19e1e84012103b432c4329de0f6a981102f5599bc5dcbdda01a17e2ca529edf58fa8be1cc10e30d490800", "vin": [{"txinwitness": ["304402202ce3b7138b1ae5b05c0139387a5ca7fe2be8a81e2d56d98fc1174816b841270502202917552a7b09e4c50a56f5d23602974b15042254a937ca5d9c0c3c7ea19e1e8401", "03b432c4329de0f6a981102f5599bc5dcbdda01a17e2ca529edf58fa8be1cc10e3"], "sequence": 4294967294, "scriptSig": {"hex": "160014fb5347e15aef3136e8b6ce3b2dcac533f3677f17", "asm": "0014fb5347e15aef3136e8b6ce3b2dcac533f3677f17"}, "vout": 0, "txid": "83878107aec4e9a48488f7dfa4b1c54f67626f7173e63d78d496929084db928c"}], "txid": "d915b292e48a2444ffb6a54c83740a71d248f30265aa1cda6b7c5a966922c2c9", "blocktime": 1537870564, "version": 2, "confirmations": 11515, "time": 1537870564, "locktime": 542989, "vsize": 166, "size": 247}