{"hash": "d9171525ecc3d7099f104fb34d37ddc15ce3bda43607e667ac282fb9d5f625a0", "blockhash": "0000000000000000001cda96e906b7601b7a6fb1a3b62bca570a9e5d8f4b3de1", "vout": [{"scriptPubKey": {"reqSigs": 1, "hex": "76a91410c3e608bb1ede9388d7e05a9cb8a78ad8dd1aca88ac", "addresses": ["12XeVLknaU8jGXb9PkP7WHjv6wLK9f5JPf"], "asm": "OP_DUP OP_HASH160 10c3e608bb1ede9388d7e05a9cb8a78ad8dd1aca OP_EQUALVERIFY OP_CHECKSIG", "type": "pubkeyhash"}, "value": 0.01561327, "n": 0}], "hex": "0100000001716e28ee4c4a574a716c8a7402c7e7d81a76fa7f8a7cf7ec6e99b3ee84b96ece000000006b48304502210099586064fa72766887ba5d04582e5c640118e9dd7c9abcd299f2c6b344cddc3002205c3e343e7983c3e80769334ad0a13f1f64014c27722b11d25890b52d9d034b7a0121030d9e746c7ad15fa4be0ed54e0491f2be29fa70e70ce2e0a079828189300e6ecbffffffff01efd21700000000001976a91410c3e608bb1ede9388d7e05a9cb8a78ad8dd1aca88ac00000000", "vin": [{"sequence": 4294967295, "scriptSig": {"hex": "48304502210099586064fa72766887ba5d04582e5c640118e9dd7c9abcd299f2c6b344cddc3002205c3e343e7983c3e80769334ad0a13f1f64014c27722b11d25890b52d9d034b7a0121030d9e746c7ad15fa4be0ed54e0491f2be29fa70e70ce2e0a079828189300e6ecb", "asm": "304502210099586064fa72766887ba5d04582e5c640118e9dd7c9abcd299f2c6b344cddc3002205c3e343e7983c3e80769334ad0a13f1f64014c27722b11d25890b52d9d034b7a[ALL] 030d9e746c7ad15fa4be0ed54e0491f2be29fa70e70ce2e0a079828189300e6ecb"}, "vout": 0, "txid": "ce6eb984eeb3996eecf77c8a7ffa761ad8e7c702748a6c714a574a4cee286e71"}], "txid": "d9171525ecc3d7099f104fb34d37ddc15ce3bda43607e667ac282fb9d5f625a0", "blocktime": 1537873282, "version": 1, "confirmations": 11484, "time": 1537873282, "locktime": 0, "vsize": 192, "size": 192}