{"hash": "d91b23eba2d86c0a0fa2eb4b48f45d595468e2fcd7591315afa50f1b08775e25", "blockhash": "00000000000000000024a2167bbff67b0be802c0b01cdd79e6331c2be6459f87", "vout": [{"scriptPubKey": {"reqSigs": 1, "hex": "76a91447ab7478f94d0a09a77beb5b2f8550854448eb7988ac", "addresses": ["17XxNXAuYiCNrkeu4w8wcAe8d7FHaRX8TN"], "asm": "OP_DUP OP_HASH160 47ab7478f94d0a09a77beb5b2f8550854448eb79 OP_EQUALVERIFY OP_CHECKSIG", "type": "pubkeyhash"}, "value": 0.5478, "n": 0}, {"scriptPubKey": {"reqSigs": 1, "hex": "a914cea3dd0907bb2d267c129d2b57ce2dab51c5e40f87", "addresses": ["3LXdRVRDn2pW8JQSjQy5maR5hkJDLCDbsn"], "asm": "OP_HASH160 cea3dd0907bb2d267c129d2b57ce2dab51c5e40f OP_EQUAL", "type": "scripthash"}, "value": 1.4521692, "n": 1}], "hex": "0200000001bba521a82f52ac8073420fbe4eef6b3c17efb8783a9d7d6e9c3ed7ecc64e1b1917000000fdfd0000483045022100bc9d1c9231caf8d51c24dabedb2285978369f14dfd16e509282f8e751a075a5b02204c94dd40c0deec6d52ab68ff99df2199ef304a179ed3c1f6c0b4b3f974b062bc0147304402207ed7db29e6890254d6afd03c5d8cd8ac807397aad98341eace90976ee1e33a61022008ab02bd630287925b82e7392320d33611e7a795228332a8492d9fd8548bce35014c695221026721a3a4088817d0f8a90176fb54d3478dcfeb270ac061ed8d13af6a521bb5a921037e012d419eac8bc6b624e699beef6af0c21c2e10e66ea747e0bfe8be1037a0432103b8a5a2c8f2806acd1a366f78e6d9819a9b3e144d57c050aafa808758b0498c9d53ae000000000260e04303000000001976a91447ab7478f94d0a09a77beb5b2f8550854448eb7988ac98d5a7080000000017a914cea3dd0907bb2d267c129d2b57ce2dab51c5e40f8700000000", "vin": [{"sequence": 0, "scriptSig": {"hex": "00483045022100bc9d1c9231caf8d51c24dabedb2285978369f14dfd16e509282f8e751a075a5b02204c94dd40c0deec6d52ab68ff99df2199ef304a179ed3c1f6c0b4b3f974b062bc0147304402207ed7db29e6890254d6afd03c5d8cd8ac807397aad98341eace90976ee1e33a61022008ab02bd630287925b82e7392320d33611e7a795228332a8492d9fd8548bce35014c695221026721a3a4088817d0f8a90176fb54d3478dcfeb270ac061ed8d13af6a521bb5a921037e012d419eac8bc6b624e699beef6af0c21c2e10e66ea747e0bfe8be1037a0432103b8a5a2c8f2806acd1a366f78e6d9819a9b3e144d57c050aafa808758b0498c9d53ae", "asm": "0 3045022100bc9d1c9231caf8d51c24dabedb2285978369f14dfd16e509282f8e751a075a5b02204c94dd40c0deec6d52ab68ff99df2199ef304a179ed3c1f6c0b4b3f974b062bc[ALL] 304402207ed7db29e6890254d6afd03c5d8cd8ac807397aad98341eace90976ee1e33a61022008ab02bd630287925b82e7392320d33611e7a795228332a8492d9fd8548bce35[ALL] 5221026721a3a4088817d0f8a90176fb54d3478dcfeb270ac061ed8d13af6a521bb5a921037e012d419eac8bc6b624e699beef6af0c21c2e10e66ea747e0bfe8be1037a0432103b8a5a2c8f2806acd1a366f78e6d9819a9b3e144d57c050aafa808758b0498c9d53ae"}, "vout": 23, "txid": "191b4ec6ecd73e9c6e7d9d3a78b8ef173c6bef4ebe0f427380ac522fa821a5bb"}], "txid": "d91b23eba2d86c0a0fa2eb4b48f45d595468e2fcd7591315afa50f1b08775e25", "blocktime": 1537870564, "version": 2, "confirmations": 11515, "time": 1537870564, "locktime": 0, "vsize": 372, "size": 372}