{"hash": "d91b77a30f988668db5435248c73813ff98b8e9aadece254ad4ae6dac7449d04", "blockhash": "00000000000000000018f53835495a110e01622372bf6ae95dc86f2b0ab887b0", "vout": [{"scriptPubKey": {"reqSigs": 1, "hex": "a914bdfd2c83b3c0fa3bb21cc18d24c3b684cdc02cf087", "addresses": ["3K1avdUD31ieEo69jXXSbSqZp7Aj66pTqr"], "asm": "OP_HASH160 bdfd2c83b3c0fa3bb21cc18d24c3b684cdc02cf0 OP_EQUAL", "type": "scripthash"}, "value": 0.00935847, "n": 0}], "hex": "010000000151fc3373f9e9d08f2b431ab8b60679eb9eae4b365d8d3eba0ef362dd006727c4010000006b4830450221008b46ca52957c710a47da0aecdae6a169f779b79614fc2f17856ab4d70f14d5ac02205fcf7e012bae39aa26c9cff2f09475b3375e61904ed681fe28818fc75c868da7012102fd70c5581234d92e1a902fb5e68b6d1336ff44012aac56efb45b0d3708290f64ffffffff01a7470e000000000017a914bdfd2c83b3c0fa3bb21cc18d24c3b684cdc02cf08700000000", "vin": [{"sequence": 4294967295, "scriptSig": {"hex": "4830450221008b46ca52957c710a47da0aecdae6a169f779b79614fc2f17856ab4d70f14d5ac02205fcf7e012bae39aa26c9cff2f09475b3375e61904ed681fe28818fc75c868da7012102fd70c5581234d92e1a902fb5e68b6d1336ff44012aac56efb45b0d3708290f64", "asm": "30450221008b46ca52957c710a47da0aecdae6a169f779b79614fc2f17856ab4d70f14d5ac02205fcf7e012bae39aa26c9cff2f09475b3375e61904ed681fe28818fc75c868da7[ALL] 02fd70c5581234d92e1a902fb5e68b6d1336ff44012aac56efb45b0d3708290f64"}, "vout": 1, "txid": "c4276700dd62f30eba3e8d5d364bae9eeb7906b6b81a432b8fd0e9f97333fc51"}], "txid": "d91b77a30f988668db5435248c73813ff98b8e9aadece254ad4ae6dac7449d04", "blocktime": 1537870928, "version": 1, "confirmations": 11512, "time": 1537870928, "locktime": 0, "vsize": 190, "size": 190}