{"hash": "d924527f6ec771dfb94f450ac925a1c2e29253e5e8a3bec397e12f6fe18038fd", "blockhash": "0000000000000000001f76057863aec43deb6fa401d9628bb513d65a8098bfab", "vout": [{"scriptPubKey": {"reqSigs": 1, "hex": "a914574469ac74dfd3c61279a0902b61e8a54818f99c87", "addresses": ["39eSfdtXk96ef3KprumMUDv9D762f5iGJE"], "asm": "OP_HASH160 574469ac74dfd3c61279a0902b61e8a54818f99c OP_EQUAL", "type": "scripthash"}, "value": 0.141873, "n": 0}, {"scriptPubKey": {"reqSigs": 1, "hex": "76a914eac86cacb816de10da96dfe6f6bc64b9f11d605f88ac", "addresses": ["1NQRDdPiKPzQKeEq6GGtZUroJVHi29qVFg"], "asm": "OP_DUP OP_HASH160 eac86cacb816de10da96dfe6f6bc64b9f11d605f OP_EQUALVERIFY OP_CHECKSIG", "type": "pubkeyhash"}, "value": 0.01201579, "n": 1}], "hex": "0200000002a9d25f27761ce7c2b9a962ac15c43cb2b97fb7ddea0339cb1d85ca8b98b7a778000000006a473044022002b278ca58d8ecb55e93795f8eeeeecf5ba2ea86d0a29ef7019d6d8bede18f5f0220231b87868ee1bef6e04439eee624ce067f8f03152d89e809a5c99b71daf795b4012103a0cdfd2186cc88800d3f3441c94a2d9271cb7b9cadc52a46398847f8eaba86c5feffffffffd647a9ae57795f52ec2b58fe43a3d188126d5be7482c63e53e99cac968d1e40d0000006a473044022040f5bbb973975cb746f0871baf13f8429cc635cbcc5ba29d86e8070d640e924402204e68fac09c4e3b8fd314e150a8e1eb3c46af7f9e4e4b452b1471bdb542899f59012103a70ccdcf367314074406454379d6425868abe7793aae18cf62f5ca828756bd82feffffff02247bd8000000000017a914574469ac74dfd3c61279a0902b61e8a54818f99c87ab551200000000001976a914eac86cacb816de10da96dfe6f6bc64b9f11d605f88ac14490800", "vin": [{"sequence": 4294967294, "scriptSig": {"hex": "473044022002b278ca58d8ecb55e93795f8eeeeecf5ba2ea86d0a29ef7019d6d8bede18f5f0220231b87868ee1bef6e04439eee624ce067f8f03152d89e809a5c99b71daf795b4012103a0cdfd2186cc88800d3f3441c94a2d9271cb7b9cadc52a46398847f8eaba86c5", "asm": "3044022002b278ca58d8ecb55e93795f8eeeeecf5ba2ea86d0a29ef7019d6d8bede18f5f0220231b87868ee1bef6e04439eee624ce067f8f03152d89e809a5c99b71daf795b4[ALL] 03a0cdfd2186cc88800d3f3441c94a2d9271cb7b9cadc52a46398847f8eaba86c5"}, "vout": 0, "txid": "78a7b7988bca851dcb3903eaddb77fb9b23cc415ac62a9b9c2e71c76275fd2a9"}, {"sequence": 4294967294, "scriptSig": {"hex": "473044022040f5bbb973975cb746f0871baf13f8429cc635cbcc5ba29d86e8070d640e924402204e68fac09c4e3b8fd314e150a8e1eb3c46af7f9e4e4b452b1471bdb542899f59012103a70ccdcf367314074406454379d6425868abe7793aae18cf62f5ca828756bd82", "asm": "3044022040f5bbb973975cb746f0871baf13f8429cc635cbcc5ba29d86e8070d640e924402204e68fac09c4e3b8fd314e150a8e1eb3c46af7f9e4e4b452b1471bdb542899f59[ALL] 03a70ccdcf367314074406454379d6425868abe7793aae18cf62f5ca828756bd82"}, "vout": 13, "txid": "e4d168c9ca993ee5632c48e75b6d1288d1a343fe582bec525f7957aea947d6ff"}], "txid": "d924527f6ec771dfb94f450ac925a1c2e29253e5e8a3bec397e12f6fe18038fd", "blocktime": 1537873891, "version": 2, "confirmations": 11479, "time": 1537873891, "locktime": 542996, "vsize": 370, "size": 370}