{"hash": "65410137f7ff780bc42beb2594430bae8574e51c6a826c19ec7966c9850cc322", "blockhash": "00000000000000000017f5eb5941039fbcee6240d03bc1f2f8e35350df66a1d8", "vout": [{"scriptPubKey": {"reqSigs": 1, "hex": "a914ed003c134a1d330dac79b3905aa6b1045b87df6687", "addresses": ["3PJAMK66CXntTuLntxRrEG3G6XXUHEEFsJ"], "asm": "OP_HASH160 ed003c134a1d330dac79b3905aa6b1045b87df66 OP_EQUAL", "type": "scripthash"}, "value": 0.01814, "n": 0}, {"scriptPubKey": {"reqSigs": 1, "hex": "a914d0fd517ef7aba6d3f03051c45b5be7840eb42a0d87", "addresses": ["3Lk3wK2LhRLER75VqhmrJCGie8efcirNTS"], "asm": "OP_HASH160 d0fd517ef7aba6d3f03051c45b5be7840eb42a0d OP_EQUAL", "type": "scripthash"}, "value": 0.01841189, "n": 1}, {"scriptPubKey": {"reqSigs": 1, "hex": "a914db34dfa80a76f17ed551e2d7ae9ea5daf116d76287", "addresses": ["3Mg5FHEkqr8Da1t7Y1wzu5TYVH8Le2jCSc"], "asm": "OP_HASH160 db34dfa80a76f17ed551e2d7ae9ea5daf116d762 OP_EQUAL", "type": "scripthash"}, "value": 0.03000024, "n": 2}], "hex": "0100000000010212afe14acec1017f4f2cfc22109e08ac2813e86693f582ab21919f50ebfaf51c0200000023220020459c4b64ca520d0b625d413437e60d5b3b6663620743c2bacd6142f90af9400000000000050417b175379978b9997e6aec474110061d27b25481663eb441c29e7e998975fc0000002322002046fa32ac3601d2a4c79079f21ce4bb7451bc6098bb9b5a7bf3a7fffcf8357ee80000000003f0ad1b000000000017a914ed003c134a1d330dac79b3905aa6b1045b87df668725181c000000000017a914d0fd517ef7aba6d3f03051c45b5be7840eb42a0d87d8c62d000000000017a914db34dfa80a76f17ed551e2d7ae9ea5daf116d762870400483045022100f0c251f00c0a905ab202489a13ce0121cbbc179a953c20d3ffbca63c50b3ab4802205b9b3c08f5dbd23ea0e5e5d45331cac8788770e2d7d5344b78a7291a33ba4f070147304402206f3153734a0c16261e0672b41dccf7b959d782524325a0695881b72dca9cd6e6022050769ba677b34c981b8cbd35f378871389a52768a04923b64ad9ab54ace34ba201475221038c063883cd3ef28ee4942684c0b941532f4d2059e5f97aa6f3cb3e905973604c2103e382b0bb72e77268186cfe80e7ea1ecda9d71c2d294b397e05f20bafdc78dafa52ae0400483045022100ef25e4081beaf6658d3ea05bd51bcffde415216756ec1e36840c2cb0f97eaa5a02207cb5dd023ff27d3f7c53ff610428b60a6a42780691cee1489f7d0fd8f1c88d2901473044022001c156ab0c40ebfb0075e297ac44eeb92294a49c489a0be9460667a2b37c7658022016106929830e9c1f49d7d0efe96de0282b93737a708cb57833795e21554236de01475221026166fd25adab22bd2756694d125a4433ce85f5f9f7fc75968313ad2834e0c9b6210279960bae0f6de610823bb1829e1ac9aa9232cffb78ef84bc40dcf0adf3b33fef52ae00000000", "vin": [{"txinwitness": ["", "3045022100f0c251f00c0a905ab202489a13ce0121cbbc179a953c20d3ffbca63c50b3ab4802205b9b3c08f5dbd23ea0e5e5d45331cac8788770e2d7d5344b78a7291a33ba4f0701", "304402206f3153734a0c16261e0672b41dccf7b959d782524325a0695881b72dca9cd6e6022050769ba677b34c981b8cbd35f378871389a52768a04923b64ad9ab54ace34ba201", "5221038c063883cd3ef28ee4942684c0b941532f4d2059e5f97aa6f3cb3e905973604c2103e382b0bb72e77268186cfe80e7ea1ecda9d71c2d294b397e05f20bafdc78dafa52ae"], "sequence": 0, "scriptSig": {"hex": "220020459c4b64ca520d0b625d413437e60d5b3b6663620743c2bacd6142f90af94000", "asm": "0020459c4b64ca520d0b625d413437e60d5b3b6663620743c2bacd6142f90af94000"}, "vout": 2, "txid": "1cf5faeb509f9121ab82f59366e81328ac089e1022fc2c4f7f01c1ce4ae1af12"}, {"txinwitness": ["", "3045022100ef25e4081beaf6658d3ea05bd51bcffde415216756ec1e36840c2cb0f97eaa5a02207cb5dd023ff27d3f7c53ff610428b60a6a42780691cee1489f7d0fd8f1c88d2901", "3044022001c156ab0c40ebfb0075e297ac44eeb92294a49c489a0be9460667a2b37c7658022016106929830e9c1f49d7d0efe96de0282b93737a708cb57833795e21554236de01", "5221026166fd25adab22bd2756694d125a4433ce85f5f9f7fc75968313ad2834e0c9b6210279960bae0f6de610823bb1829e1ac9aa9232cffb78ef84bc40dcf0adf3b33fef52ae"], "sequence": 0, "scriptSig": {"hex": "22002046fa32ac3601d2a4c79079f21ce4bb7451bc6098bb9b5a7bf3a7fffcf8357ee8", "asm": "002046fa32ac3601d2a4c79079f21ce4bb7451bc6098bb9b5a7bf3a7fffcf8357ee8"}, "vout": 252, "txid": "7589997e9ec241b43e668154b2271d06104147ec6a7e99b978993775b1170405"}], "txid": "d9259fef69c1223de7fa1fc67fa677fc04dce352e09897ae333cb7f4ae3d656d", "blocktime": 1537874412, "version": 1, "confirmations": 11466, "time": 1537874412, "locktime": 0, "vsize": 368, "size": 698}