{"hash": "2efda8249ba8254cba3b3cee97ebc9e4e01179b83de879673e2d7db9f5e4494e", "blockhash": "0000000000000000000e13cef7c366c0283d82e591d1acd082e914b08063cdf1", "vout": [{"scriptPubKey": {"reqSigs": 1, "hex": "a9140528895d5d9753fed63956bde3686dc93020223f87", "addresses": ["32AHs2vNa25jsn1Tqnw3staCaMoS21FA6y"], "asm": "OP_HASH160 0528895d5d9753fed63956bde3686dc93020223f OP_EQUAL", "type": "scripthash"}, "value": 0.01000061, "n": 0}, {"scriptPubKey": {"reqSigs": 1, "hex": "76a9140717b49054805ee9392f4b673220bc1b080dce0788ac", "addresses": ["1eW8REaTxUP3RX7BgE3A6PsPwrqcgNDQ3"], "asm": "OP_DUP OP_HASH160 0717b49054805ee9392f4b673220bc1b080dce07 OP_EQUALVERIFY OP_CHECKSIG", "type": "pubkeyhash"}, "value": 0.00202575, "n": 1}], "hex": "0200000000010459214d9b200f3e49fce212cee524732d48a1f511430463f3b3ea4b79ffbd7b410100000017160014ae2885a341365c2adb31c7e2f5be73c0e51af863feffffff833a512bd5465c23b397bf61733a112fd9d00852a0d7a1153139679d86b510ed0100000017160014d3042dd770d7df83ccacc4bca90be9f82f71d515feffffff876e18665818ee7884800dca4a2fe14bf7e2cb58b0c93abc4317cbc106fc7848010000001716001450f4eae6d2a53941f08ee0380803d9c4b159b17bfeffffffb61cf2c5fc7cd790e01c48664bdbb1b3a29d12d84410f2b9213f7d7abacc76690000000017160014c0f0522b8e533e48d48dbeb94d6c2366a46a23aafeffffff027d420f000000000017a9140528895d5d9753fed63956bde3686dc93020223f874f170300000000001976a9140717b49054805ee9392f4b673220bc1b080dce0788ac0247304402207a60d69b1daefef81e37196afbfb507c188b2279b443ca5a6648392a85b122c5022042c6d4dcb8427fb86fa0d5978a6e5576e26cf8f45e613e0d37becbae910285510121027e397a6ab836b2cb5a6ac317c751e5590c871431cb398308b330cee8f6d139d502483045022100b234d59fb7d16f70a53d62b35e8fbee56dd07688f0b90ef08f1740a8cb7ae94d022022695f768a4d154966aa351e22e899cea7c07e6c068c34e3e1ecd0ea4a54cb710121027b8bfbe8d9fd200f322b193cddd6fc0d8d417fecec326646065de5ba04540cff02473044022022fe66a3f94e5268eec60092b03243d73beed34e1acb3dab537f2abd8c26e0e002201c191be74bd49ada04db816ece5f15c48a6f54d603645e0a94b2159718a0c1650121027c30648201149d0d84c6d4f3b5dbdf1aa97d50da07fff001bc158e8382a563200247304402202741d369a563384631f79f0a10db3f8fd6575f766aa0afddebdca5dce1b71c0502200112617b251c65bb5d9f7239883d778f0711a65211b79cc521d0d29330f327f0012102f85f3284c3754d56ce2a081470fc5d0e09dedea73dbf18fa9a8ed7ff9525cd2f10490800", "vin": [{"txinwitness": ["304402207a60d69b1daefef81e37196afbfb507c188b2279b443ca5a6648392a85b122c5022042c6d4dcb8427fb86fa0d5978a6e5576e26cf8f45e613e0d37becbae9102855101", "027e397a6ab836b2cb5a6ac317c751e5590c871431cb398308b330cee8f6d139d5"], "sequence": 4294967294, "scriptSig": {"hex": "160014ae2885a341365c2adb31c7e2f5be73c0e51af863", "asm": "0014ae2885a341365c2adb31c7e2f5be73c0e51af863"}, "vout": 1, "txid": "417bbdff794beab3f363044311f5a1482d7324e5ce12e2fc493e0f209b4d2159"}, {"txinwitness": ["3045022100b234d59fb7d16f70a53d62b35e8fbee56dd07688f0b90ef08f1740a8cb7ae94d022022695f768a4d154966aa351e22e899cea7c07e6c068c34e3e1ecd0ea4a54cb7101", "027b8bfbe8d9fd200f322b193cddd6fc0d8d417fecec326646065de5ba04540cff"], "sequence": 4294967294, "scriptSig": {"hex": "160014d3042dd770d7df83ccacc4bca90be9f82f71d515", "asm": "0014d3042dd770d7df83ccacc4bca90be9f82f71d515"}, "vout": 1, "txid": "ed10b5869d67393115a1d7a05208d0d92f113a7361bf97b3235c46d52b513a83"}, {"txinwitness": ["3044022022fe66a3f94e5268eec60092b03243d73beed34e1acb3dab537f2abd8c26e0e002201c191be74bd49ada04db816ece5f15c48a6f54d603645e0a94b2159718a0c16501", "027c30648201149d0d84c6d4f3b5dbdf1aa97d50da07fff001bc158e8382a56320"], "sequence": 4294967294, "scriptSig": {"hex": "16001450f4eae6d2a53941f08ee0380803d9c4b159b17b", "asm": "001450f4eae6d2a53941f08ee0380803d9c4b159b17b"}, "vout": 1, "txid": "4878fc06c1cb1743bc3ac9b058cbe2f74be12f4aca0d808478ee185866186e87"}, {"txinwitness": ["304402202741d369a563384631f79f0a10db3f8fd6575f766aa0afddebdca5dce1b71c0502200112617b251c65bb5d9f7239883d778f0711a65211b79cc521d0d29330f327f001", "02f85f3284c3754d56ce2a081470fc5d0e09dedea73dbf18fa9a8ed7ff9525cd2f"], "sequence": 4294967294, "scriptSig": {"hex": "160014c0f0522b8e533e48d48dbeb94d6c2366a46a23aa", "asm": "0014c0f0522b8e533e48d48dbeb94d6c2366a46a23aa"}, "vout": 0, "txid": "6976ccba7a7d3f21b9f21044d8129da2b3b1db4b66481ce090d77cfcc5f21cb6"}], "txid": "d928c3e87223fa68dc591bcb92f3509e125ed8c3b81dd651282f04905b4ab2c0", "blocktime": 1537871767, "version": 2, "confirmations": 11495, "time": 1537871767, "locktime": 542992, "vsize": 440, "size": 763}