{"hash": "d930f620e71304fb7e439926f0f07ff02f09d091e8b9e87831b2e3c220870fab", "blockhash": "0000000000000000000e13cef7c366c0283d82e591d1acd082e914b08063cdf1", "vout": [{"scriptPubKey": {"reqSigs": 1, "hex": "76a914f9e487e7041fe94667931f7d3fbed89abefb190288ac", "addresses": ["1PnK2NQ1K8c7uGxcnGvnpeRuaPjShGKUvd"], "asm": "OP_DUP OP_HASH160 f9e487e7041fe94667931f7d3fbed89abefb1902 OP_EQUALVERIFY OP_CHECKSIG", "type": "pubkeyhash"}, "value": 0.05525995, "n": 0}], "hex": "0100000001235718d976c3812576cbb595038e44f57f611e581a19f2590725a9739410beaa340000006b48304502210098a9d20a4faa7ecf7f39f8a136bc4d3d4cee716289cf1922499739a47bececc80220451848144ce1c7b41f6b9f32b4217284869f29d1a63258ef2c529ef636fe142701210290e7ad85452318775e744ff76d28323103220c7ebef1292c1ebce104c699a1cdffffffff01eb515400000000001976a914f9e487e7041fe94667931f7d3fbed89abefb190288ac00000000", "vin": [{"sequence": 4294967295, "scriptSig": {"hex": "48304502210098a9d20a4faa7ecf7f39f8a136bc4d3d4cee716289cf1922499739a47bececc80220451848144ce1c7b41f6b9f32b4217284869f29d1a63258ef2c529ef636fe142701210290e7ad85452318775e744ff76d28323103220c7ebef1292c1ebce104c699a1cd", "asm": "304502210098a9d20a4faa7ecf7f39f8a136bc4d3d4cee716289cf1922499739a47bececc80220451848144ce1c7b41f6b9f32b4217284869f29d1a63258ef2c529ef636fe1427[ALL] 0290e7ad85452318775e744ff76d28323103220c7ebef1292c1ebce104c699a1cd"}, "vout": 52, "txid": "aabe109473a9250759f2191a581e617ff5448e0395b5cb762581c376d9185723"}], "txid": "d930f620e71304fb7e439926f0f07ff02f09d091e8b9e87831b2e3c220870fab", "blocktime": 1537871767, "version": 1, "confirmations": 11492, "time": 1537871767, "locktime": 0, "vsize": 192, "size": 192}