{"hash": "d9300bb28da6f312d9e94d743694c99769a00cf7357d69a2abd88921331ee052", "blockhash": "0000000000000000001f0ddff1eddb255c1121bcd4da4f1bc9a0da00cae72433", "vout": [{"scriptPubKey": {"reqSigs": 1, "hex": "a91422a106030a1454dbdaf6fb8c1cf0990f1c482da787", "addresses": ["34r7oB2stiCurr1eeQMRKFntLeGqqmQzGF"], "asm": "OP_HASH160 22a106030a1454dbdaf6fb8c1cf0990f1c482da7 OP_EQUAL", "type": "scripthash"}, "value": 0.0028536, "n": 0}, {"scriptPubKey": {"reqSigs": 1, "hex": "76a9141862fed69e9de9ce20b37d05a80fdaa48c66e4b788ac", "addresses": ["13DwovtxY4hj3UBYS972zWcSR7As7vsy7h"], "asm": "OP_DUP OP_HASH160 1862fed69e9de9ce20b37d05a80fdaa48c66e4b7 OP_EQUALVERIFY OP_CHECKSIG", "type": "pubkeyhash"}, "value": 0.02488807, "n": 1}], "hex": "01000000012ae5b5ab96c2161a0d35123204ab77d29e457f9b87860db56e94854e93e83a16010000006b4830450221008ef06684ebd791587ee081fbaa09f99b63ac8f018dca3d6d21f42d7043116e6e02202582767d5146eaaed202fd8078eff85bc54c8a88ab0895ce287d52af96ec53ac012103873b5d9409a47eb367d38cc0824346c8e24618b1e149c93eee42a4d9b6f7505fffffffff02b05a04000000000017a91422a106030a1454dbdaf6fb8c1cf0990f1c482da787e7f92500000000001976a9141862fed69e9de9ce20b37d05a80fdaa48c66e4b788ac00000000", "vin": [{"sequence": 4294967295, "scriptSig": {"hex": "4830450221008ef06684ebd791587ee081fbaa09f99b63ac8f018dca3d6d21f42d7043116e6e02202582767d5146eaaed202fd8078eff85bc54c8a88ab0895ce287d52af96ec53ac012103873b5d9409a47eb367d38cc0824346c8e24618b1e149c93eee42a4d9b6f7505f", "asm": "30450221008ef06684ebd791587ee081fbaa09f99b63ac8f018dca3d6d21f42d7043116e6e02202582767d5146eaaed202fd8078eff85bc54c8a88ab0895ce287d52af96ec53ac[ALL] 03873b5d9409a47eb367d38cc0824346c8e24618b1e149c93eee42a4d9b6f7505f"}, "vout": 1, "txid": "163ae8934e85946eb50d86879b7f459ed277ab043212350d1a16c296abb5e52a"}], "txid": "d9300bb28da6f312d9e94d743694c99769a00cf7357d69a2abd88921331ee052", "blocktime": 1537872018, "version": 1, "confirmations": 11489, "time": 1537872018, "locktime": 0, "vsize": 224, "size": 224}