{"hash": "d9351e5c9d298e8e55d51d0eaddbb915f764dcb8223839dc806b1d31888cc1ee", "blockhash": "00000000000000000018f53835495a110e01622372bf6ae95dc86f2b0ab887b0", "vout": [{"scriptPubKey": {"reqSigs": 1, "hex": "76a9144d6ba660e78e36513c6c8a50a8280c292ed4de4188ac", "addresses": ["184MzRFyFhVkosbJ6i5BVdyq7VeC5JZzCw"], "asm": "OP_DUP OP_HASH160 4d6ba660e78e36513c6c8a50a8280c292ed4de41 OP_EQUALVERIFY OP_CHECKSIG", "type": "pubkeyhash"}, "value": 0.005995, "n": 0}], "hex": "010000000131bdded5c6eb749b903bddecd7016354da59da3074a85344cd99f9858e736c92010000006b483045022100ef3473644588c7454f7ec08549e6d355048b6fac5cc729f551eb2ec47e03450902203ee941b6e9fdf10b515de00909f55dc9ab13e014078acbd115d795c9912f7e8c0121023900c6fa729227f82af622d5685052dba85a2278d35f0cda9456d273dcd3bac7ffffffff01cc250900000000001976a9144d6ba660e78e36513c6c8a50a8280c292ed4de4188ac00000000", "vin": [{"sequence": 4294967295, "scriptSig": {"hex": "483045022100ef3473644588c7454f7ec08549e6d355048b6fac5cc729f551eb2ec47e03450902203ee941b6e9fdf10b515de00909f55dc9ab13e014078acbd115d795c9912f7e8c0121023900c6fa729227f82af622d5685052dba85a2278d35f0cda9456d273dcd3bac7", "asm": "3045022100ef3473644588c7454f7ec08549e6d355048b6fac5cc729f551eb2ec47e03450902203ee941b6e9fdf10b515de00909f55dc9ab13e014078acbd115d795c9912f7e8c[ALL] 023900c6fa729227f82af622d5685052dba85a2278d35f0cda9456d273dcd3bac7"}, "vout": 1, "txid": "926c738e85f999cd4453a87430da59da546301d7ecdd3b909b74ebc6d5debd31"}], "txid": "d9351e5c9d298e8e55d51d0eaddbb915f764dcb8223839dc806b1d31888cc1ee", "blocktime": 1537870928, "version": 1, "confirmations": 11514, "time": 1537870928, "locktime": 0, "vsize": 192, "size": 192}