{"hash": "b3c296fd7a01c99675ea48d260053788ab331ce0eda6110974f7a0395fc8e834", "blockhash": "00000000000000000004ffacab907a6b429b9a5745fa0b75af4234bf69dd7176", "vout": [{"scriptPubKey": {"reqSigs": 1, "hex": "a91472c30d5eb0372f6c8aff36ff4da935c355ca9c1f87", "addresses": ["3C9pcsv8jesfziwdETWXP8eEGoetuei8Fq"], "asm": "OP_HASH160 72c30d5eb0372f6c8aff36ff4da935c355ca9c1f OP_EQUAL", "type": "scripthash"}, "value": 0.04634515, "n": 0}, {"scriptPubKey": {"reqSigs": 1, "hex": "76a9148b81f43a7212ad11e6eac52702723bdf1d1bbe4188ac", "addresses": ["1Diec2cZNogwfHQBKXhMUnWRTYn1m7U5oN"], "asm": "OP_DUP OP_HASH160 8b81f43a7212ad11e6eac52702723bdf1d1bbe41 OP_EQUALVERIFY OP_CHECKSIG", "type": "pubkeyhash"}, "value": 0.0018, "n": 1}], "hex": "0200000000010138a72acba3d427f7ec913f5aa5b432626def87d658e1076ddec6412c0ba02fea00000000171600146dec1eba5147a642bbd44e3abfedaaca235cbf32feffffff0293b746000000000017a91472c30d5eb0372f6c8aff36ff4da935c355ca9c1f8720bf0200000000001976a9148b81f43a7212ad11e6eac52702723bdf1d1bbe4188ac02483045022100ced3fcda7de96b9719985d97ddfeca12da8f90789d767173c5228d8c5da49a7d022051d581ec7b5d5229adbdf60f289736839f05fd205b37c682fcfa647ab1b43b2f012102a3eb4c442bad6311c846e2fc075879800857c52a934051fbf3c2a047e32b3beb15490800", "vin": [{"txinwitness": ["3045022100ced3fcda7de96b9719985d97ddfeca12da8f90789d767173c5228d8c5da49a7d022051d581ec7b5d5229adbdf60f289736839f05fd205b37c682fcfa647ab1b43b2f01", "02a3eb4c442bad6311c846e2fc075879800857c52a934051fbf3c2a047e32b3beb"], "sequence": 4294967294, "scriptSig": {"hex": "1600146dec1eba5147a642bbd44e3abfedaaca235cbf32", "asm": "00146dec1eba5147a642bbd44e3abfedaaca235cbf32"}, "vout": 0, "txid": "ea2fa00b2c41c6de6d07e158d687ef6d6232b4a55a3f91ecf727d4a3cb2aa738"}], "txid": "d938d3130f94d975699d36a26c1d7f58061da630fe8d6d3799d5f4b7100f8423", "blocktime": 1537875543, "version": 2, "confirmations": 11464, "time": 1537875543, "locktime": 542997, "vsize": 168, "size": 250}