{"hash": "2d0a9af7c0274f7a65e8cb2aacdc62734374a3fdfc56866e71c37f1df81aec02", "blockhash": "0000000000000000000e13cef7c366c0283d82e591d1acd082e914b08063cdf1", "vout": [{"scriptPubKey": {"reqSigs": 1, "hex": "a914e9ab63a7a4934aaf3371bf0303b52165cee02f2987", "addresses": ["3NzYgaMnDFQCjgJq16XPhEhS37JeFWvVf2"], "asm": "OP_HASH160 e9ab63a7a4934aaf3371bf0303b52165cee02f29 OP_EQUAL", "type": "scripthash"}, "value": 0.0126723, "n": 0}, {"scriptPubKey": {"reqSigs": 1, "hex": "76a91407733447aca22a5675268ede2a5c5b0304bef16388ac", "addresses": ["1gPjsbGKqVnjDV4iyMmD7BLFjtVJA2Gmj"], "asm": "OP_DUP OP_HASH160 07733447aca22a5675268ede2a5c5b0304bef163 OP_EQUALVERIFY OP_CHECKSIG", "type": "pubkeyhash"}, "value": 0.121231, "n": 1}], "hex": "020000000001041d74bada5883ea772f965a2ca4b287764bbe4bc6b83b2450e1f8c98147c27c910100000017160014dac53d5b42c434e95300bf191ee732d08368f820feffffff44e705d0ba49b3afee140e9ed37fd7a985d79f5049996f8a41e6f5365be5667a010000001716001496f6822de26b3e5af3bde674fc3926cdc1177836feffffffc230f30c3571e59adfe24150782acef6f711287d3c72046468d097b476afeb8501000000171600140702e52833a043211f582798b5994cfb0e106070feffffffcf8127c2ec15758fb045c80ae8eee4d168e5d546e1ae4cfcd871dfb4fdf837fa00000000171600145a5647ad3375d6aae39759b937fc5519c5c02c5ffeffffff021e5613000000000017a914e9ab63a7a4934aaf3371bf0303b52165cee02f2987dcfbb800000000001976a91407733447aca22a5675268ede2a5c5b0304bef16388ac0247304402206c47ea13de67c17e8a246c7590cf4c8a844abf765fd15dd370eb9e457401bdb002204e40f3243a9ab0247fe2ddab7729b55ea550ebec913de761ee56c8bb09091aaa012103ccfd096b22e1897cdbde43150bdc3c0d16ffd947d0ec704d2023726389d5edef024730440220400ad38545c699a1ab7940f30b62f13e974280b96d2690975e8ffd802fe7700d02202a9c2e933e4e5cd4c06d723b58bec44a6171c7164a4d25eb02d14cad60e8d2c30121023d6525665d640d4e11d66fe891fd164e1764d2d62015a92ebe1637694b15da9a02473044022047f3d4dc22789ba16ea8c272109260bc5d086ffb76747b84231c03e1c476438302205fb271c3d331966108c9388cf223f597a768aa7375b6edbd242f2025a65d682401210373e306d7f5f15ac79680793a6308b50154d6439f922b4ce56938769701dd805d0247304402203c084b3dbc77894f473df6af1d92a98ac92925801a1a29b5c8f3358cb959599e02202c4fa7c4ae924e0750d8f68ddaca694eea33989c24c5f7b34e1a052f751cd04901210300d0ecb57861f736797be3402f90765e7687fae019c9f77981ca9ca8c8be204a10490800", "vin": [{"txinwitness": ["304402206c47ea13de67c17e8a246c7590cf4c8a844abf765fd15dd370eb9e457401bdb002204e40f3243a9ab0247fe2ddab7729b55ea550ebec913de761ee56c8bb09091aaa01", "03ccfd096b22e1897cdbde43150bdc3c0d16ffd947d0ec704d2023726389d5edef"], "sequence": 4294967294, "scriptSig": {"hex": "160014dac53d5b42c434e95300bf191ee732d08368f820", "asm": "0014dac53d5b42c434e95300bf191ee732d08368f820"}, "vout": 1, "txid": "917cc24781c9f8e150243bb8c64bbe4b7687b2a42c5a962f77ea8358daba741d"}, {"txinwitness": ["30440220400ad38545c699a1ab7940f30b62f13e974280b96d2690975e8ffd802fe7700d02202a9c2e933e4e5cd4c06d723b58bec44a6171c7164a4d25eb02d14cad60e8d2c301", "023d6525665d640d4e11d66fe891fd164e1764d2d62015a92ebe1637694b15da9a"], "sequence": 4294967294, "scriptSig": {"hex": "16001496f6822de26b3e5af3bde674fc3926cdc1177836", "asm": "001496f6822de26b3e5af3bde674fc3926cdc1177836"}, "vout": 1, "txid": "7a66e55b36f5e6418a6f9949509fd785a9d77fd39e0e14eeafb349bad005e744"}, {"txinwitness": ["3044022047f3d4dc22789ba16ea8c272109260bc5d086ffb76747b84231c03e1c476438302205fb271c3d331966108c9388cf223f597a768aa7375b6edbd242f2025a65d682401", "0373e306d7f5f15ac79680793a6308b50154d6439f922b4ce56938769701dd805d"], "sequence": 4294967294, "scriptSig": {"hex": "1600140702e52833a043211f582798b5994cfb0e106070", "asm": "00140702e52833a043211f582798b5994cfb0e106070"}, "vout": 1, "txid": "85ebaf76b497d0686404723c7d2811f7f6ce2a785041e2df9ae571350cf330c2"}, {"txinwitness": ["304402203c084b3dbc77894f473df6af1d92a98ac92925801a1a29b5c8f3358cb959599e02202c4fa7c4ae924e0750d8f68ddaca694eea33989c24c5f7b34e1a052f751cd04901", "0300d0ecb57861f736797be3402f90765e7687fae019c9f77981ca9ca8c8be204a"], "sequence": 4294967294, "scriptSig": {"hex": "1600145a5647ad3375d6aae39759b937fc5519c5c02c5f", "asm": "00145a5647ad3375d6aae39759b937fc5519c5c02c5f"}, "vout": 0, "txid": "fa37f8fdb4df71d8fc4caee146d5e568d1e4eee80ac845b08f7515ecc22781cf"}], "txid": "d93ca687c5c39e516d629f3885efb0ffab12247eb413c1a95ff66151c187fbb9", "blocktime": 1537871767, "version": 2, "confirmations": 11495, "time": 1537871767, "locktime": 542992, "vsize": 440, "size": 762}