{"hash": "d93d59dd42901965ae1429917102e613ed9c6b1dbeaf87720d7c3b0fc6dea290", "blockhash": "00000000000000000018f53835495a110e01622372bf6ae95dc86f2b0ab887b0", "vout": [{"scriptPubKey": {"type": "nulldata", "hex": "6a4c50000077880001b8a47c9880c65efa6e67733fbcbefa6b8351586b4e86aeaeacb577c031fc802d33e46e26b0999c6db454cec3cc255baa0bc006141f93731ddc681d100759d4ba30d2c37bb011d97e02cf", "asm": "OP_RETURN 000077880001b8a47c9880c65efa6e67733fbcbefa6b8351586b4e86aeaeacb577c031fc802d33e46e26b0999c6db454cec3cc255baa0bc006141f93731ddc681d100759d4ba30d2c37bb011d97e02cf"}, "value": 0.0, "n": 0}, {"scriptPubKey": {"reqSigs": 1, "hex": "76a9141c2ea200ffe424ad4782fb5f626efb616a259f6488ac", "addresses": ["13a1nUfP9mWZDHt17kks6LUQdn1dS3AbYv"], "asm": "OP_DUP OP_HASH160 1c2ea200ffe424ad4782fb5f626efb616a259f64 OP_EQUALVERIFY OP_CHECKSIG", "type": "pubkeyhash"}, "value": 0.00646999, "n": 1}], "hex": "0100000001a53220d2caa2c6427c3350bfe91c4d07d32754265712860aa414ea228dc36fa6010000006a4730440220435d8e03d8fb776e56099d0d9959725b0c0b0225ed0e809fee48f4eb84eaee86022039486bd8da9becd72874597ea66ff97ef48bcf2dff6bd4e2863c56b16b5b77ae012102a163c9072827b4880ee65a768a90ef7ba682e12b6f4e1aa774fafe07e0ed6572ffffffff020000000000000000536a4c50000077880001b8a47c9880c65efa6e67733fbcbefa6b8351586b4e86aeaeacb577c031fc802d33e46e26b0999c6db454cec3cc255baa0bc006141f93731ddc681d100759d4ba30d2c37bb011d97e02cf57df0900000000001976a9141c2ea200ffe424ad4782fb5f626efb616a259f6488ac00000000", "vin": [{"sequence": 4294967295, "scriptSig": {"hex": "4730440220435d8e03d8fb776e56099d0d9959725b0c0b0225ed0e809fee48f4eb84eaee86022039486bd8da9becd72874597ea66ff97ef48bcf2dff6bd4e2863c56b16b5b77ae012102a163c9072827b4880ee65a768a90ef7ba682e12b6f4e1aa774fafe07e0ed6572", "asm": "30440220435d8e03d8fb776e56099d0d9959725b0c0b0225ed0e809fee48f4eb84eaee86022039486bd8da9becd72874597ea66ff97ef48bcf2dff6bd4e2863c56b16b5b77ae[ALL] 02a163c9072827b4880ee65a768a90ef7ba682e12b6f4e1aa774fafe07e0ed6572"}, "vout": 1, "txid": "a66fc38d22ea14a40a861257265427d3074d1ce9bf50337c42c6a2cad22032a5"}], "txid": "d93d59dd42901965ae1429917102e613ed9c6b1dbeaf87720d7c3b0fc6dea290", "blocktime": 1537870928, "version": 1, "confirmations": 11512, "time": 1537870928, "locktime": 0, "vsize": 283, "size": 283}