{"hash": "d93fc15c73e0bedf286ce2bd36689d7b41314f9d690508ed751a00d817da490a", "blockhash": "0000000000000000000baef3f32e3676a92c3b2e5da21b426e4f302fc371ce76", "vout": [{"scriptPubKey": {"reqSigs": 1, "hex": "76a914ede4f454d110486c3cd00e52eca6baaa17e3a90788ac", "addresses": ["1NgsRVkgCxfqiqXcDAYfKtdTfvaC8gd9mN"], "asm": "OP_DUP OP_HASH160 ede4f454d110486c3cd00e52eca6baaa17e3a907 OP_EQUALVERIFY OP_CHECKSIG", "type": "pubkeyhash"}, "value": 0.0275297, "n": 0}, {"scriptPubKey": {"reqSigs": 1, "hex": "76a914788743d1684104a78fad568a3b512ac7e8c1c0c588ac", "addresses": ["1BzJ8Pf8AP3cLPTydtpgABhEncnZomPoGQ"], "asm": "OP_DUP OP_HASH160 788743d1684104a78fad568a3b512ac7e8c1c0c5 OP_EQUALVERIFY OP_CHECKSIG", "type": "pubkeyhash"}, "value": 0.05896827, "n": 1}], "hex": "0100000001b7883c1d544284db590c23e8ffec70873e44bd7aede54abe72c5a6797405d5c4010000006b48304502210089f3ae9358bc63984f3634dd0f68a67380f966710a062ccca8017669de4c98e50220595e0fad4e7cc9435fc6fbeb09452ae36973d3a435c08ba8ce109b745b1060b20121024063c75594bc28b823834dfb641bd072045eeef73631ec6ef3c80bb450b9f591fdffffff02ca012a00000000001976a914ede4f454d110486c3cd00e52eca6baaa17e3a90788ac7bfa5900000000001976a914788743d1684104a78fad568a3b512ac7e8c1c0c588ac00000000", "vin": [{"sequence": 4294967293, "scriptSig": {"hex": "48304502210089f3ae9358bc63984f3634dd0f68a67380f966710a062ccca8017669de4c98e50220595e0fad4e7cc9435fc6fbeb09452ae36973d3a435c08ba8ce109b745b1060b20121024063c75594bc28b823834dfb641bd072045eeef73631ec6ef3c80bb450b9f591", "asm": "304502210089f3ae9358bc63984f3634dd0f68a67380f966710a062ccca8017669de4c98e50220595e0fad4e7cc9435fc6fbeb09452ae36973d3a435c08ba8ce109b745b1060b2[ALL] 024063c75594bc28b823834dfb641bd072045eeef73631ec6ef3c80bb450b9f591"}, "vout": 1, "txid": "c4d5057479a6c572be4ae5ed7abd443e8770ecffe8230c59db8442541d3c88b7"}], "txid": "d93fc15c73e0bedf286ce2bd36689d7b41314f9d690508ed751a00d817da490a", "blocktime": 1537876114, "version": 1, "confirmations": 11460, "time": 1537876114, "locktime": 0, "vsize": 226, "size": 226}