{"hash": "d9400663e486be5dd9966286d3fb2c1a23538ac25776a2ad4714eed50fd6fd1b", "blockhash": "0000000000000000000e13cef7c366c0283d82e591d1acd082e914b08063cdf1", "vout": [{"scriptPubKey": {"reqSigs": 1, "hex": "76a914354a9ebba0f6226750f8d2cfa941dbd12c914d1288ac", "addresses": ["15rnCrpiv6KEesuwxUZ5QiAR4HzHdLiBwq"], "asm": "OP_DUP OP_HASH160 354a9ebba0f6226750f8d2cfa941dbd12c914d12 OP_EQUALVERIFY OP_CHECKSIG", "type": "pubkeyhash"}, "value": 0.00311918, "n": 0}, {"scriptPubKey": {"reqSigs": 1, "hex": "a914fb8e0ce6d2f35c566908fd225b7f96e72df603d387", "addresses": ["3Qd7hXZoZ1iyXZznrbdUwUQBxHMmujdqhJ"], "asm": "OP_HASH160 fb8e0ce6d2f35c566908fd225b7f96e72df603d3 OP_EQUAL", "type": "scripthash"}, "value": 0.85000857, "n": 1}, {"scriptPubKey": {"reqSigs": 1, "hex": "a914c95ac1c585d4db30d3df6edae49ff517a2a4a10c87", "addresses": ["3L3gU18TeduFVnSwVbEm8VWvZAQ15fALZy"], "asm": "OP_HASH160 c95ac1c585d4db30d3df6edae49ff517a2a4a10c OP_EQUAL", "type": "scripthash"}, "value": 0.046, "n": 2}, {"scriptPubKey": {"reqSigs": 1, "hex": "a914ca99be9f494b673ed44ec22316f9ed9a4f7ac26b87", "addresses": ["3LAGbf3qcFgbSqGpLqDzF8xyW9b9u3iTCX"], "asm": "OP_HASH160 ca99be9f494b673ed44ec22316f9ed9a4f7ac26b OP_EQUAL", "type": "scripthash"}, "value": 0.0077, "n": 3}], "hex": "0200000002de8751d0ad56a1d9824328861ef1a7162dd8d2e7ccc857dd1e329596eb43522901000000fdfe000048304502210084b9bcd2eeb7bbc286e9a402f97c2586efeb7672fe1ce24af0557145a1befc3e022070c8cbeee78c4b872eec531ffb1c8e881e1d9293e80b33b41d0893e07ed82262014830450221008ad246bf14f1601e7a784317092d19cb1b465f08aec583d113e0a40d2e4e267102207c86618332551675d084612534d0e47e16a75ff701e5fdf1d7e3a4e9a1f131e8014c6952210271229bfa9fb2008db802418fe1ea2757f02258c650d29f8db9670b20538ed70b210236a4b19c620faec1fa89ac03e02765229bffc48a2a28df2c6bd912f1f9ab19392103318f0178ad5b1bf32f116d4286435114cdba76dae2de55f3cba49589b350cda753aeffffffff046e33d2cf970b49f95e1a4784231752e0ecf2742858742705eb4590ae15b55602000000fc0047304402200aa981ba07ae477beb2d12830b7734c219788034b5af53ca1ded3e268511798702203eeffb5519d795a3c1231717f2106bb24e071e8d3c3faef64e373cba53d5e5720147304402200437c134c64796661d8d46e0d939116d762ca4d361bcc5e7c378095227b4155f02205996941e00ac7dfd0c0090b3369a84468d1d98e64c74f810c75724eb08b3524f014c69522103b8571acc092017ea41c13f20788f708380fca1ddb94326adbf7b6e7b5a59d43a2103f3d5440ca0dee70e8e170574ff80a885611972e2f3146f92a53c868e66196ac92103babe82359f72da134c2d71dad078dadc73be4d5df30ed862a197456aa586905653aeffffffff046ec20400000000001976a914354a9ebba0f6226750f8d2cfa941dbd12c914d1288ac990211050000000017a914fb8e0ce6d2f35c566908fd225b7f96e72df603d387c03046000000000017a914c95ac1c585d4db30d3df6edae49ff517a2a4a10c87d0bf0b000000000017a914ca99be9f494b673ed44ec22316f9ed9a4f7ac26b8700000000", "vin": [{"sequence": 4294967295, "scriptSig": {"hex": "0048304502210084b9bcd2eeb7bbc286e9a402f97c2586efeb7672fe1ce24af0557145a1befc3e022070c8cbeee78c4b872eec531ffb1c8e881e1d9293e80b33b41d0893e07ed82262014830450221008ad246bf14f1601e7a784317092d19cb1b465f08aec583d113e0a40d2e4e267102207c86618332551675d084612534d0e47e16a75ff701e5fdf1d7e3a4e9a1f131e8014c6952210271229bfa9fb2008db802418fe1ea2757f02258c650d29f8db9670b20538ed70b210236a4b19c620faec1fa89ac03e02765229bffc48a2a28df2c6bd912f1f9ab19392103318f0178ad5b1bf32f116d4286435114cdba76dae2de55f3cba49589b350cda753ae", "asm": "0 304502210084b9bcd2eeb7bbc286e9a402f97c2586efeb7672fe1ce24af0557145a1befc3e022070c8cbeee78c4b872eec531ffb1c8e881e1d9293e80b33b41d0893e07ed82262[ALL] 30450221008ad246bf14f1601e7a784317092d19cb1b465f08aec583d113e0a40d2e4e267102207c86618332551675d084612534d0e47e16a75ff701e5fdf1d7e3a4e9a1f131e8[ALL] 52210271229bfa9fb2008db802418fe1ea2757f02258c650d29f8db9670b20538ed70b210236a4b19c620faec1fa89ac03e02765229bffc48a2a28df2c6bd912f1f9ab19392103318f0178ad5b1bf32f116d4286435114cdba76dae2de55f3cba49589b350cda753ae"}, "vout": 1, "txid": "295243eb9695321edd57c8cce7d2d82d16a7f11e86284382d9a156add05187de"}, {"sequence": 4294967295, "scriptSig": {"hex": "0047304402200aa981ba07ae477beb2d12830b7734c219788034b5af53ca1ded3e268511798702203eeffb5519d795a3c1231717f2106bb24e071e8d3c3faef64e373cba53d5e5720147304402200437c134c64796661d8d46e0d939116d762ca4d361bcc5e7c378095227b4155f02205996941e00ac7dfd0c0090b3369a84468d1d98e64c74f810c75724eb08b3524f014c69522103b8571acc092017ea41c13f20788f708380fca1ddb94326adbf7b6e7b5a59d43a2103f3d5440ca0dee70e8e170574ff80a885611972e2f3146f92a53c868e66196ac92103babe82359f72da134c2d71dad078dadc73be4d5df30ed862a197456aa586905653ae", "asm": "0 304402200aa981ba07ae477beb2d12830b7734c219788034b5af53ca1ded3e268511798702203eeffb5519d795a3c1231717f2106bb24e071e8d3c3faef64e373cba53d5e572[ALL] 304402200437c134c64796661d8d46e0d939116d762ca4d361bcc5e7c378095227b4155f02205996941e00ac7dfd0c0090b3369a84468d1d98e64c74f810c75724eb08b3524f[ALL] 522103b8571acc092017ea41c13f20788f708380fca1ddb94326adbf7b6e7b5a59d43a2103f3d5440ca0dee70e8e170574ff80a885611972e2f3146f92a53c868e66196ac92103babe82359f72da134c2d71dad078dadc73be4d5df30ed862a197456aa586905653ae"}, "vout": 2, "txid": "56b515ae9045eb052774582874f2ece052172384471a5ef9490b97cfd2336e04"}], "txid": "d9400663e486be5dd9966286d3fb2c1a23538ac25776a2ad4714eed50fd6fd1b", "blocktime": 1537871767, "version": 2, "confirmations": 11493, "time": 1537871767, "locktime": 0, "vsize": 730, "size": 730}