{"hash": "bcdbd260dd2607d0a0aac2c2d90da4281662d78b0f11622f794490b601845a4e", "blockhash": "0000000000000000000e13cef7c366c0283d82e591d1acd082e914b08063cdf1", "vout": [{"scriptPubKey": {"reqSigs": 1, "hex": "00144d9bc5ddf935b025fdb1acaae4a95af58b8074d6", "addresses": ["bc1qfkduth0exkcztld34j4wf2267k9cqaxk4kvynf"], "asm": "0 4d9bc5ddf935b025fdb1acaae4a95af58b8074d6", "type": "witness_v0_keyhash"}, "value": 1.215e-05, "n": 0}, {"scriptPubKey": {"reqSigs": 1, "hex": "76a914bd231ba2a235d5db90572290279a1eefa88ac3d688ac", "addresses": ["1JF4mbkPK6ckcv2fkTiasTbzhigZXwbF4D"], "asm": "OP_DUP OP_HASH160 bd231ba2a235d5db90572290279a1eefa88ac3d6 OP_EQUALVERIFY OP_CHECKSIG", "type": "pubkeyhash"}, "value": 0.00047092, "n": 1}], "hex": "01000000000101b1a019b06bbda0c9fc3ab7ae7611bbed0fc15a27def101efb6461b5d5ed05c540100000000ffffffff02bf040000000000001600144d9bc5ddf935b025fdb1acaae4a95af58b8074d6f4b70000000000001976a914bd231ba2a235d5db90572290279a1eefa88ac3d688ac02483045022100fcde8d7ec9eb52efa4b3ef6feadcc05449c9485518a72660a3b1d3976d56a16102202ee4cdf4dd2452823acde24cf0a3c1c2caf49148f6a8add6b9a3f6b1544333f7012103b5fba6cdb9d12e31b1b64132351921d502030f951cfa5ebdc450bc85d6c5ac9600000000", "vin": [{"txinwitness": ["3045022100fcde8d7ec9eb52efa4b3ef6feadcc05449c9485518a72660a3b1d3976d56a16102202ee4cdf4dd2452823acde24cf0a3c1c2caf49148f6a8add6b9a3f6b1544333f701", "03b5fba6cdb9d12e31b1b64132351921d502030f951cfa5ebdc450bc85d6c5ac96"], "sequence": 4294967295, "scriptSig": {"hex": "", "asm": ""}, "vout": 1, "txid": "545cd05e5d1b46b6ef01f1de275ac10fedbb1176aeb73afcc9a0bd6bb019a0b1"}], "txid": "d94dbb3ec3d0d933d6b726d33c1f414e9a4be1c903cb71c547f0f29c2459cbd1", "blocktime": 1537871767, "version": 1, "confirmations": 11495, "time": 1537871767, "locktime": 0, "vsize": 144, "size": 226}