{"hash": "d953e8107fb495b8b179be861c3fc8926864748c9c5c42400f3afbc889757e0a", "blockhash": "00000000000000000004ffacab907a6b429b9a5745fa0b75af4234bf69dd7176", "vout": [{"scriptPubKey": {"reqSigs": 1, "hex": "76a914a25dec4d0011064ef106a983c39c7a540699f22088ac", "addresses": ["1FoWyxwPXuj4C6abqwhjDWdz6D4PZgYRjA"], "asm": "OP_DUP OP_HASH160 a25dec4d0011064ef106a983c39c7a540699f220 OP_EQUALVERIFY OP_CHECKSIG", "type": "pubkeyhash"}, "value": 0.01995188, "n": 0}, {"scriptPubKey": {"type": "nulldata", "hex": "6a146f6d6e69000000000000001f000000526c0b5400", "asm": "OP_RETURN 6f6d6e69000000000000001f000000526c0b5400"}, "value": 0.0, "n": 1}, {"scriptPubKey": {"reqSigs": 1, "hex": "76a9140079e892de0c43ae07b032ea8b4b6738088d2b3488ac", "addresses": ["113X3MKvEFk8kgNbaXx3HVynqkFoKuShf8"], "asm": "OP_DUP OP_HASH160 0079e892de0c43ae07b032ea8b4b6738088d2b34 OP_EQUALVERIFY OP_CHECKSIG", "type": "pubkeyhash"}, "value": 5.46e-06, "n": 2}], "hex": "0100000001a44813c76173a4fe9689194c29809e35be05f1741d9b5e1e9e8bd44070ac1fea920000006a47304402200ad389e2c746a8324b5063edba7ad28a5e3fad9536d7269f8644ef4e9820dc9c0220012429f4eaf209e45207b398058533b7024aaa40ddc804dec217efbd5d2245cc012103da5bac7b36d5aa38f531c6b9601e21bb598a4b6716ebed38b009a55dabde9440feffffff03b4711e00000000001976a914a25dec4d0011064ef106a983c39c7a540699f22088ac0000000000000000166a146f6d6e69000000000000001f000000526c0b540022020000000000001976a9140079e892de0c43ae07b032ea8b4b6738088d2b3488ac16490800", "vin": [{"sequence": 4294967294, "scriptSig": {"hex": "47304402200ad389e2c746a8324b5063edba7ad28a5e3fad9536d7269f8644ef4e9820dc9c0220012429f4eaf209e45207b398058533b7024aaa40ddc804dec217efbd5d2245cc012103da5bac7b36d5aa38f531c6b9601e21bb598a4b6716ebed38b009a55dabde9440", "asm": "304402200ad389e2c746a8324b5063edba7ad28a5e3fad9536d7269f8644ef4e9820dc9c0220012429f4eaf209e45207b398058533b7024aaa40ddc804dec217efbd5d2245cc[ALL] 03da5bac7b36d5aa38f531c6b9601e21bb598a4b6716ebed38b009a55dabde9440"}, "vout": 146, "txid": "ea1fac7040d48b9e1e5e9b1d74f105be359e80294c198996fea47361c71348a4"}], "txid": "d953e8107fb495b8b179be861c3fc8926864748c9c5c42400f3afbc889757e0a", "blocktime": 1537875543, "version": 1, "confirmations": 11464, "time": 1537875543, "locktime": 542998, "vsize": 256, "size": 256}