{"hash": "c6a3df00b16338f2b0bd53923db14533c892a2219c78190ad456253f78a413fc", "blockhash": "0000000000000000001e0dab787dd257d1dbfcb92a98c2207d5e1078be1f4165", "vout": [{"scriptPubKey": {"reqSigs": 1, "hex": "a914fc042b9bb2d42faff658958cf2e9a6f84d7a3ca487", "addresses": ["3QfZCeQB8jWm82nJqV8fAKCc5yDRqbS3eF"], "asm": "OP_HASH160 fc042b9bb2d42faff658958cf2e9a6f84d7a3ca4 OP_EQUAL", "type": "scripthash"}, "value": 0.01294392, "n": 0}, {"scriptPubKey": {"reqSigs": 1, "hex": "76a914c972cae2d49db18f9efad4fb95992bf9135de7b988ac", "addresses": ["1KNALUyQhMHuGeUhUQ3RwDydHeq9CMaXA6"], "asm": "OP_DUP OP_HASH160 c972cae2d49db18f9efad4fb95992bf9135de7b9 OP_EQUALVERIFY OP_CHECKSIG", "type": "pubkeyhash"}, "value": 0.00549, "n": 1}], "hex": "020000000001012916d0ee36348da46c7991a628071be11cc8a7de6484404cc547dba4511f366401000000171600141283e62e8f4f3beec239fb42d4b2ea3bb63bfe3afeffffff0238c013000000000017a914fc042b9bb2d42faff658958cf2e9a6f84d7a3ca48788600800000000001976a914c972cae2d49db18f9efad4fb95992bf9135de7b988ac02483045022100f16aa9c6013e81be2b8249972c1e1c4a3e8e01852a253510b3a48cd57896a6b9022078fa98f5b9add0715a18ca87d47da80442c16957329d7ac0f128d342381135eb012102992f32c6068468288869e1582620e0664cd2afc435d09163bf4531e0e437b89f11490800", "vin": [{"txinwitness": ["3045022100f16aa9c6013e81be2b8249972c1e1c4a3e8e01852a253510b3a48cd57896a6b9022078fa98f5b9add0715a18ca87d47da80442c16957329d7ac0f128d342381135eb01", "02992f32c6068468288869e1582620e0664cd2afc435d09163bf4531e0e437b89f"], "sequence": 4294967294, "scriptSig": {"hex": "1600141283e62e8f4f3beec239fb42d4b2ea3bb63bfe3a", "asm": "00141283e62e8f4f3beec239fb42d4b2ea3bb63bfe3a"}, "vout": 1, "txid": "64361f51a4db47c54c408464dea7c81ce11b0728a691796ca48d3436eed01629"}], "txid": "d95b721b196d04515715d16d73e6fac275c3a511b1c559ac6d00cd18caf38f72", "blocktime": 1537872475, "version": 2, "confirmations": 11487, "time": 1537872475, "locktime": 542993, "vsize": 168, "size": 250}