{"hash": "d95fd97b5e61649ece97347fdae042739e408b8f9db1288873ca8899854a5dc5", "blockhash": "0000000000000000001f76057863aec43deb6fa401d9628bb513d65a8098bfab", "vout": [{"scriptPubKey": {"reqSigs": 1, "hex": "76a9146a4e3895092a66bfc190b678fe285a104e76d5c388ac", "addresses": ["1Ah6LE7TuUd2zF1okMFeYC6SeqVogRohiF"], "asm": "OP_DUP OP_HASH160 6a4e3895092a66bfc190b678fe285a104e76d5c3 OP_EQUALVERIFY OP_CHECKSIG", "type": "pubkeyhash"}, "value": 0.0004272, "n": 0}], "hex": "01000000014c96c4fad878e47b3398ccd4bb32b00eeb5d04f8b9924c590879edb6554a2013000000006a47304402207f1c64ca39d3e3220fc32afb1f3e0a3b0b75d96e364d5468b7788da6e4d399640220404924c8164bc7551cf748f3fe357d83676340652616ba92e94907c492d6c1260121028efcbc1d54bacebf285945718dffc67e968e831fe77990a498a6cae3a22bad13ffffffff01e0a60000000000001976a9146a4e3895092a66bfc190b678fe285a104e76d5c388ac00000000", "vin": [{"sequence": 4294967295, "scriptSig": {"hex": "47304402207f1c64ca39d3e3220fc32afb1f3e0a3b0b75d96e364d5468b7788da6e4d399640220404924c8164bc7551cf748f3fe357d83676340652616ba92e94907c492d6c1260121028efcbc1d54bacebf285945718dffc67e968e831fe77990a498a6cae3a22bad13", "asm": "304402207f1c64ca39d3e3220fc32afb1f3e0a3b0b75d96e364d5468b7788da6e4d399640220404924c8164bc7551cf748f3fe357d83676340652616ba92e94907c492d6c126[ALL] 028efcbc1d54bacebf285945718dffc67e968e831fe77990a498a6cae3a22bad13"}, "vout": 0, "txid": "13204a55b6ed7908594c92b9f8045deb0eb032bbd4cc98337be478d8fac4964c"}], "txid": "d95fd97b5e61649ece97347fdae042739e408b8f9db1288873ca8899854a5dc5", "blocktime": 1537873891, "version": 1, "confirmations": 11475, "time": 1537873891, "locktime": 0, "vsize": 191, "size": 191}