{"hash": "d9621c03c638577215fbffe057fdd8e549ddc18f5df527c2c4de853c4f961a45", "blockhash": "00000000000000000004ffacab907a6b429b9a5745fa0b75af4234bf69dd7176", "vout": [{"scriptPubKey": {"type": "nulldata", "hex": "6a146f6d6e69000000000000001f0000000427f16280", "asm": "OP_RETURN 6f6d6e69000000000000001f0000000427f16280"}, "value": 0.0, "n": 0}, {"scriptPubKey": {"reqSigs": 1, "hex": "76a914a25dec4d0011064ef106a983c39c7a540699f22088ac", "addresses": ["1FoWyxwPXuj4C6abqwhjDWdz6D4PZgYRjA"], "asm": "OP_DUP OP_HASH160 a25dec4d0011064ef106a983c39c7a540699f220 OP_EQUALVERIFY OP_CHECKSIG", "type": "pubkeyhash"}, "value": 0.01995188, "n": 1}, {"scriptPubKey": {"reqSigs": 1, "hex": "76a91448664e94c7908b77eb96f5c7f5ab0a1159cf836288ac", "addresses": ["17bpDDyxsTsVANtQzh8r6M5hMuDSd5UwMX"], "asm": "OP_DUP OP_HASH160 48664e94c7908b77eb96f5c7f5ab0a1159cf8362 OP_EQUALVERIFY OP_CHECKSIG", "type": "pubkeyhash"}, "value": 5.46e-06, "n": 2}], "hex": "0100000001a44813c76173a4fe9689194c29809e35be05f1741d9b5e1e9e8bd44070ac1fea8f0000006a473044022014ad457a5fbf30af49b68336faeb03349bc3a598d5a1364824871ff7ad248ed0022063ae1e5362a252f1b9eabaf2d64623692d59e603f9c91c242b814862eac0b5fa012103da5bac7b36d5aa38f531c6b9601e21bb598a4b6716ebed38b009a55dabde9440feffffff030000000000000000166a146f6d6e69000000000000001f0000000427f16280b4711e00000000001976a914a25dec4d0011064ef106a983c39c7a540699f22088ac22020000000000001976a91448664e94c7908b77eb96f5c7f5ab0a1159cf836288acff480800", "vin": [{"sequence": 4294967294, "scriptSig": {"hex": "473044022014ad457a5fbf30af49b68336faeb03349bc3a598d5a1364824871ff7ad248ed0022063ae1e5362a252f1b9eabaf2d64623692d59e603f9c91c242b814862eac0b5fa012103da5bac7b36d5aa38f531c6b9601e21bb598a4b6716ebed38b009a55dabde9440", "asm": "3044022014ad457a5fbf30af49b68336faeb03349bc3a598d5a1364824871ff7ad248ed0022063ae1e5362a252f1b9eabaf2d64623692d59e603f9c91c242b814862eac0b5fa[ALL] 03da5bac7b36d5aa38f531c6b9601e21bb598a4b6716ebed38b009a55dabde9440"}, "vout": 143, "txid": "ea1fac7040d48b9e1e5e9b1d74f105be359e80294c198996fea47361c71348a4"}], "txid": "d9621c03c638577215fbffe057fdd8e549ddc18f5df527c2c4de853c4f961a45", "blocktime": 1537875543, "version": 1, "confirmations": 11464, "time": 1537875543, "locktime": 542975, "vsize": 256, "size": 256}