{"hash": "d965904d251d432f2f0c140320fe4c7847cb9a18989806a4458a8b1c6b0d2554", "blockhash": "0000000000000000001cda96e906b7601b7a6fb1a3b62bca570a9e5d8f4b3de1", "vout": [{"scriptPubKey": {"reqSigs": 1, "hex": "a914e9ec809aaceb1f35f1159a64d787cc8d1c57f2f587", "addresses": ["3P1tgiGT8HyKHeN2YoLCcX3TfrEcVzfv2P"], "asm": "OP_HASH160 e9ec809aaceb1f35f1159a64d787cc8d1c57f2f5 OP_EQUAL", "type": "scripthash"}, "value": 0.002, "n": 0}, {"scriptPubKey": {"reqSigs": 1, "hex": "76a9147711eab6ffcc99e4376ac39f4022de413e1ea2a988ac", "addresses": ["1BrasiLb2KMbdtuhb1chAVnS2FvcNGfV9J"], "asm": "OP_DUP OP_HASH160 7711eab6ffcc99e4376ac39f4022de413e1ea2a9 OP_EQUALVERIFY OP_CHECKSIG", "type": "pubkeyhash"}, "value": 0.00673387, "n": 1}], "hex": "0200000001942e5dc3cdff54ca18575f361767ef391ad15c20b22ada7fcaff55382b033ecf020000006b483045022100c73f44d77bf3d64ac93eb60f68a1fc60289119e6322676ef4cb27dd7f3f86b5702206835c742bcf4e2c86e08a81797af5cb537b30fe5cdff5f2251c8adbe7648816d0121038113bccaf5026f495df863003db9272b32de909e1c8c2648ea41db41277bbabcffffffff02400d03000000000017a914e9ec809aaceb1f35f1159a64d787cc8d1c57f2f5876b460a00000000001976a9147711eab6ffcc99e4376ac39f4022de413e1ea2a988ac00000000", "vin": [{"sequence": 4294967295, "scriptSig": {"hex": "483045022100c73f44d77bf3d64ac93eb60f68a1fc60289119e6322676ef4cb27dd7f3f86b5702206835c742bcf4e2c86e08a81797af5cb537b30fe5cdff5f2251c8adbe7648816d0121038113bccaf5026f495df863003db9272b32de909e1c8c2648ea41db41277bbabc", "asm": "3045022100c73f44d77bf3d64ac93eb60f68a1fc60289119e6322676ef4cb27dd7f3f86b5702206835c742bcf4e2c86e08a81797af5cb537b30fe5cdff5f2251c8adbe7648816d[ALL] 038113bccaf5026f495df863003db9272b32de909e1c8c2648ea41db41277bbabc"}, "vout": 2, "txid": "cf3e032b3855ffca7fda2ab2205cd11a39ef6717365f5718ca54ffcdc35d2e94"}], "txid": "d965904d251d432f2f0c140320fe4c7847cb9a18989806a4458a8b1c6b0d2554", "blocktime": 1537873282, "version": 2, "confirmations": 11484, "time": 1537873282, "locktime": 0, "vsize": 224, "size": 224}