{"hash": "d96adcad22d96f4299547b064e18252c57a337f7113e2349dfb62f487fc66ce3", "blockhash": "0000000000000000000e13cef7c366c0283d82e591d1acd082e914b08063cdf1", "vout": [{"scriptPubKey": {"reqSigs": 1, "hex": "76a914277decdd0c25a067b6af1c8f0e7cd9c7100c26fb88ac", "addresses": ["14bpCvRF52sv6iv5S2A6SXgu6NrE4rfw9z"], "asm": "OP_DUP OP_HASH160 277decdd0c25a067b6af1c8f0e7cd9c7100c26fb OP_EQUALVERIFY OP_CHECKSIG", "type": "pubkeyhash"}, "value": 0.0009952, "n": 0}, {"scriptPubKey": {"type": "nulldata", "hex": "6a4c500000779d0001abc9a6af6c953dd567cf27e7e3ef3236678a625097bcbefa6b8351586b4e2c11c7f7018bbbbd3fbb5818bdbdc8f75baa0dcf06154ad32edb164fbc9a9526289ac0f6612cd74e33776ee4", "asm": "OP_RETURN 0000779d0001abc9a6af6c953dd567cf27e7e3ef3236678a625097bcbefa6b8351586b4e2c11c7f7018bbbbd3fbb5818bdbdc8f75baa0dcf06154ad32edb164fbc9a9526289ac0f6612cd74e33776ee4"}, "value": 0.0, "n": 1}], "hex": "010000000124de9537add2b8c1c9c0b829b3e2f18d909b7c17b43c46dfeb595ac6f7ca8158010000006a4730440220676ae7ace97efb1f08ef8111157f77f27134462a55eeba8116fabdf13b1fd83602204999205b5614e7ff6c414037b30ef4466edb78c5ac1b2a2ee7078deee560fbbb01210346330ea00d41bbdcb581e91ff28263cf456e6b196704b7e5e03ca5071764b00bffffffff02c0840100000000001976a914277decdd0c25a067b6af1c8f0e7cd9c7100c26fb88ac0000000000000000536a4c500000779d0001abc9a6af6c953dd567cf27e7e3ef3236678a625097bcbefa6b8351586b4e2c11c7f7018bbbbd3fbb5818bdbdc8f75baa0dcf06154ad32edb164fbc9a9526289ac0f6612cd74e33776ee400000000", "vin": [{"sequence": 4294967295, "scriptSig": {"hex": "4730440220676ae7ace97efb1f08ef8111157f77f27134462a55eeba8116fabdf13b1fd83602204999205b5614e7ff6c414037b30ef4466edb78c5ac1b2a2ee7078deee560fbbb01210346330ea00d41bbdcb581e91ff28263cf456e6b196704b7e5e03ca5071764b00b", "asm": "30440220676ae7ace97efb1f08ef8111157f77f27134462a55eeba8116fabdf13b1fd83602204999205b5614e7ff6c414037b30ef4466edb78c5ac1b2a2ee7078deee560fbbb[ALL] 0346330ea00d41bbdcb581e91ff28263cf456e6b196704b7e5e03ca5071764b00b"}, "vout": 1, "txid": "5881caf7c65a59ebdf463cb4177c9b908df1e2b329b8c0c9c1b8d2ad3795de24"}], "txid": "d96adcad22d96f4299547b064e18252c57a337f7113e2349dfb62f487fc66ce3", "blocktime": 1537871767, "version": 1, "confirmations": 11493, "time": 1537871767, "locktime": 0, "vsize": 283, "size": 283}