{"hash": "34e349c6a1df08c06a188136a566efbcbc9252d8927628334dc02ce16a5884df", "blockhash": "0000000000000000001e0dab787dd257d1dbfcb92a98c2207d5e1078be1f4165", "vout": [{"scriptPubKey": {"reqSigs": 1, "hex": "0014e874e6fa74ca0b7410afdd97992d080203bb9834", "addresses": ["bc1qap6wd7n5eg9hgy90mktejtggqgpmhxp5su0u85"], "asm": "0 e874e6fa74ca0b7410afdd97992d080203bb9834", "type": "witness_v0_keyhash"}, "value": 2.771e-05, "n": 0}, {"scriptPubKey": {"reqSigs": 1, "hex": "76a9146b83fb4176cb825245967a09b73221c53a09644988ac", "addresses": ["1AoVQm2FWtT8ZUeJbsb1iSpmdh5eRvD9ay"], "asm": "OP_DUP OP_HASH160 6b83fb4176cb825245967a09b73221c53a096449 OP_EQUALVERIFY OP_CHECKSIG", "type": "pubkeyhash"}, "value": 0.00046311, "n": 1}], "hex": "01000000000101d40cd6dabe609ca452295e282ff21293d2421a505d57c541ae53b6252c631a740000000000ffffffff02d30a000000000000160014e874e6fa74ca0b7410afdd97992d080203bb9834e7b40000000000001976a9146b83fb4176cb825245967a09b73221c53a09644988ac02483045022100d141cd11ac2c052d34e1e62aabe2271e8b91e732dbb9c019330488681db30df20220225943ee0be81ff162c6933f562ba38cbe70ff1fc08e0bbd8a8cf7e1c74e0f4e012103fa64c665c5d1ff072cf8138f018baccd2c8470a17ff17c99dd8a704d9003c52900000000", "vin": [{"txinwitness": ["3045022100d141cd11ac2c052d34e1e62aabe2271e8b91e732dbb9c019330488681db30df20220225943ee0be81ff162c6933f562ba38cbe70ff1fc08e0bbd8a8cf7e1c74e0f4e01", "03fa64c665c5d1ff072cf8138f018baccd2c8470a17ff17c99dd8a704d9003c529"], "sequence": 4294967295, "scriptSig": {"hex": "", "asm": ""}, "vout": 0, "txid": "741a632c25b653ae41c5575d501a42d29312f22f285e2952a49c60bedad60cd4"}], "txid": "d9730383b129e7a12dbd04bb11f4130a711b3e1c0a903248097bcbc13c43003d", "blocktime": 1537872475, "version": 1, "confirmations": 11487, "time": 1537872475, "locktime": 0, "vsize": 144, "size": 226}