{"hash": "d97a4058dafc57bb5c4f286dc1234d7263b4ab254720bbade188845f274273ef", "blockhash": "000000000000000000022b45ed06c6f4ccd3cf7fb5ba4856ebd2e58215665228", "vout": [{"scriptPubKey": {"reqSigs": 1, "hex": "76a9148fceb139af00190b0c3fc870f61b6f6533265ea788ac", "addresses": ["1E7PEfVHYAe7GRQDfWuwgugCcdgpkP2UAj"], "asm": "OP_DUP OP_HASH160 8fceb139af00190b0c3fc870f61b6f6533265ea7 OP_EQUALVERIFY OP_CHECKSIG", "type": "pubkeyhash"}, "value": 0.07786804, "n": 0}, {"scriptPubKey": {"reqSigs": 1, "hex": "76a9143ba658363c46bdc4e67e27c76c3affdb80810edf88ac", "addresses": ["16SQ99EEqa6SA1S2yTVuC7DYfRRTsEvfjy"], "asm": "OP_DUP OP_HASH160 3ba658363c46bdc4e67e27c76c3affdb80810edf OP_EQUALVERIFY OP_CHECKSIG", "type": "pubkeyhash"}, "value": 0.3525527, "n": 1}], "hex": "0100000001f4c4c1526e05bce683e84a8ab9d01975b2a9871fbc99cb5d247366fc0003723d010000006b483045022100ac2bb5a95a7b349532a44926d81364668479224a42983e75ca4c214cd151fbca022058784236ce4484f629ab1e41cf346810565e40512efc35aecc6c7b4b8cd1bd16012102cc9e1da5763f59aae14a6a2dc1eff655068c1b46a017f255f714a07ba918ac20ffffff000234d17600000000001976a9148fceb139af00190b0c3fc870f61b6f6533265ea788ace6f31902000000001976a9143ba658363c46bdc4e67e27c76c3affdb80810edf88ac00000000", "vin": [{"sequence": 16777215, "scriptSig": {"hex": "483045022100ac2bb5a95a7b349532a44926d81364668479224a42983e75ca4c214cd151fbca022058784236ce4484f629ab1e41cf346810565e40512efc35aecc6c7b4b8cd1bd16012102cc9e1da5763f59aae14a6a2dc1eff655068c1b46a017f255f714a07ba918ac20", "asm": "3045022100ac2bb5a95a7b349532a44926d81364668479224a42983e75ca4c214cd151fbca022058784236ce4484f629ab1e41cf346810565e40512efc35aecc6c7b4b8cd1bd16[ALL] 02cc9e1da5763f59aae14a6a2dc1eff655068c1b46a017f255f714a07ba918ac20"}, "vout": 1, "txid": "3d720300fc6673245dcb99bc1f87a9b27519d0b98a4ae883e6bc056e52c1c4f4"}], "txid": "d97a4058dafc57bb5c4f286dc1234d7263b4ab254720bbade188845f274273ef", "blocktime": 1537869901, "version": 1, "confirmations": 11522, "time": 1537869901, "locktime": 0, "vsize": 226, "size": 226}