{"hash": "d980fd1aeddd3f7f05f8751c1fa04954eab6c3b3700dff26f55435204d4834df", "blockhash": "00000000000000000024a2167bbff67b0be802c0b01cdd79e6331c2be6459f87", "vout": [{"scriptPubKey": {"reqSigs": 1, "hex": "a91425996b330e43cc462aba3a8cbcee4db5e8d9ce5887", "addresses": ["357piN1EJqdcJwVTEH7UfU8RfroVP5Y6y6"], "asm": "OP_HASH160 25996b330e43cc462aba3a8cbcee4db5e8d9ce58 OP_EQUAL", "type": "scripthash"}, "value": 0.01523534, "n": 0}, {"scriptPubKey": {"reqSigs": 1, "hex": "76a9141d6ac94f8f8ba9042fa0b8b8b46e85fa11bc623c88ac", "addresses": ["13gYXDBzBy9rSEGj6TqV2emvDToamDfTNn"], "asm": "OP_DUP OP_HASH160 1d6ac94f8f8ba9042fa0b8b8b46e85fa11bc623c OP_EQUALVERIFY OP_CHECKSIG", "type": "pubkeyhash"}, "value": 0.00012852, "n": 1}], "hex": "0100000002575de81afbd2bfa91d0e9d8886314c8542ae21d2321a98bd5996abae010f5c3801000000db00483045022100dfd31dfd36a47d3c899138af71c4da712ad0e0162fa7953290dc611521cf7a85022045d48d16e8a37021bb5fc9778a5fc8cb13ed0fdd6c282711880e826a341c6e4001483045022100c3fc9d7e50c873d54595ced3ed3af8493d93c1f022f35d8390ee291b171a05a602205a9bab085761386ff122ddbd0989ca606e7c1d34dfb732abdf9a4994a0ec4a450147522102907a54bed8ad74b3f35638c60114ca240a308cb986f3f2f306178869a8880b612102e4691e1f72086a96357409d1cefc3646efe63a6cebc62e928b9725125cae56fb52aeffffffffb244a65cc432f8a6a8ffc511c2a468a0f45ae2e8eade5451259566a4d6de496a01000000da00483045022100bb6ffff3b7a454bda834762efbe1fbc04aaccc30aac88fe47f2f4e3cede6a25102205063c29c309241023216187b4ffc7c0f43f254efa0b54477f80bf58989a8a0ea0147304402205f6cdffd3e7aef8145b90ced0d10d8b0594aa3e28c34abe8d2053564e58a28920220623862a0652254487754affd406151033df58a169c2840daee1a1bb78e1d64d401475221028d8a96e1305c0dcc8d0d1f77b8f501c15bc35b5bc4d55f272e9374a58c9f157e2102907a54bed8ad74b3f35638c60114ca240a308cb986f3f2f306178869a8880b6152aeffffffff024e3f17000000000017a91425996b330e43cc462aba3a8cbcee4db5e8d9ce588734320000000000001976a9141d6ac94f8f8ba9042fa0b8b8b46e85fa11bc623c88ac00000000", "vin": [{"sequence": 4294967295, "scriptSig": {"hex": "00483045022100dfd31dfd36a47d3c899138af71c4da712ad0e0162fa7953290dc611521cf7a85022045d48d16e8a37021bb5fc9778a5fc8cb13ed0fdd6c282711880e826a341c6e4001483045022100c3fc9d7e50c873d54595ced3ed3af8493d93c1f022f35d8390ee291b171a05a602205a9bab085761386ff122ddbd0989ca606e7c1d34dfb732abdf9a4994a0ec4a450147522102907a54bed8ad74b3f35638c60114ca240a308cb986f3f2f306178869a8880b612102e4691e1f72086a96357409d1cefc3646efe63a6cebc62e928b9725125cae56fb52ae", "asm": "0 3045022100dfd31dfd36a47d3c899138af71c4da712ad0e0162fa7953290dc611521cf7a85022045d48d16e8a37021bb5fc9778a5fc8cb13ed0fdd6c282711880e826a341c6e40[ALL] 3045022100c3fc9d7e50c873d54595ced3ed3af8493d93c1f022f35d8390ee291b171a05a602205a9bab085761386ff122ddbd0989ca606e7c1d34dfb732abdf9a4994a0ec4a45[ALL] 522102907a54bed8ad74b3f35638c60114ca240a308cb986f3f2f306178869a8880b612102e4691e1f72086a96357409d1cefc3646efe63a6cebc62e928b9725125cae56fb52ae"}, "vout": 1, "txid": "385c0f01aeab9659bd981a32d221ae42854c3186889d0e1da9bfd2fb1ae85d57"}, {"sequence": 4294967295, "scriptSig": {"hex": "00483045022100bb6ffff3b7a454bda834762efbe1fbc04aaccc30aac88fe47f2f4e3cede6a25102205063c29c309241023216187b4ffc7c0f43f254efa0b54477f80bf58989a8a0ea0147304402205f6cdffd3e7aef8145b90ced0d10d8b0594aa3e28c34abe8d2053564e58a28920220623862a0652254487754affd406151033df58a169c2840daee1a1bb78e1d64d401475221028d8a96e1305c0dcc8d0d1f77b8f501c15bc35b5bc4d55f272e9374a58c9f157e2102907a54bed8ad74b3f35638c60114ca240a308cb986f3f2f306178869a8880b6152ae", "asm": "0 3045022100bb6ffff3b7a454bda834762efbe1fbc04aaccc30aac88fe47f2f4e3cede6a25102205063c29c309241023216187b4ffc7c0f43f254efa0b54477f80bf58989a8a0ea[ALL] 304402205f6cdffd3e7aef8145b90ced0d10d8b0594aa3e28c34abe8d2053564e58a28920220623862a0652254487754affd406151033df58a169c2840daee1a1bb78e1d64d4[ALL] 5221028d8a96e1305c0dcc8d0d1f77b8f501c15bc35b5bc4d55f272e9374a58c9f157e2102907a54bed8ad74b3f35638c60114ca240a308cb986f3f2f306178869a8880b6152ae"}, "vout": 1, "txid": "6a49ded6a46695255154deeae8e25af4a068a4c211c5ffa8a6f832c45ca644b2"}], "txid": "d980fd1aeddd3f7f05f8751c1fa04954eab6c3b3700dff26f55435204d4834df", "blocktime": 1537870564, "version": 1, "confirmations": 11515, "time": 1537870564, "locktime": 0, "vsize": 595, "size": 595}