{"hash": "d9864d3c981971d041a5d59ae5f5376721b64fca688970643f7ee0703aa884b6", "blockhash": "00000000000000000004ffacab907a6b429b9a5745fa0b75af4234bf69dd7176", "vout": [{"scriptPubKey": {"reqSigs": 1, "hex": "76a9147605a69b1e101f561d46470058fb818704ed82be88ac", "addresses": ["1Bm3WG8CvzvBocNsUDjESFxqsYC2h7RdeU"], "asm": "OP_DUP OP_HASH160 7605a69b1e101f561d46470058fb818704ed82be OP_EQUALVERIFY OP_CHECKSIG", "type": "pubkeyhash"}, "value": 5.46e-06, "n": 0}, {"scriptPubKey": {"reqSigs": 1, "hex": "76a9140a6b825daa1b89f8e100ed8eec6d79b592500f4988ac", "addresses": ["1x6YnuBVeeE65dQRZztRWgUPwyBjHCA5g"], "asm": "OP_DUP OP_HASH160 0a6b825daa1b89f8e100ed8eec6d79b592500f49 OP_EQUALVERIFY OP_CHECKSIG", "type": "pubkeyhash"}, "value": 0.4429289, "n": 1}, {"scriptPubKey": {"type": "nulldata", "hex": "6a146f6d6e69000000000000001f000001dbe7e4d800", "asm": "OP_RETURN 6f6d6e69000000000000001f000001dbe7e4d800"}, "value": 0.0, "n": 2}], "hex": "01000000018ee59750a8eeca9c3a7403457e817dbfcf59b6a19eee6c3072e1af64bd83f100000000006a47304402202ce1e28cddc298a09d4944aac8b5eda78e5f30b9fa9568afd5e772bc53f40bf6022053bc998c98f5d6485949d102bef4706322ffec4ba03d092676e1a33c4009e960012103fe02b06a6bfd9b5a83e0417430a3235a39a0b4c7973591ca27ac58f6474d9120ffffffff0322020000000000001976a9147605a69b1e101f561d46470058fb818704ed82be88ac1adba302000000001976a9140a6b825daa1b89f8e100ed8eec6d79b592500f4988ac0000000000000000166a146f6d6e69000000000000001f000001dbe7e4d80000000000", "vin": [{"sequence": 4294967295, "scriptSig": {"hex": "47304402202ce1e28cddc298a09d4944aac8b5eda78e5f30b9fa9568afd5e772bc53f40bf6022053bc998c98f5d6485949d102bef4706322ffec4ba03d092676e1a33c4009e960012103fe02b06a6bfd9b5a83e0417430a3235a39a0b4c7973591ca27ac58f6474d9120", "asm": "304402202ce1e28cddc298a09d4944aac8b5eda78e5f30b9fa9568afd5e772bc53f40bf6022053bc998c98f5d6485949d102bef4706322ffec4ba03d092676e1a33c4009e960[ALL] 03fe02b06a6bfd9b5a83e0417430a3235a39a0b4c7973591ca27ac58f6474d9120"}, "vout": 0, "txid": "00f183bd64afe172306cee9ea1b659cfbf7d817e4503743a9ccaeea85097e58e"}], "txid": "d9864d3c981971d041a5d59ae5f5376721b64fca688970643f7ee0703aa884b6", "blocktime": 1537875543, "version": 1, "confirmations": 11464, "time": 1537875543, "locktime": 0, "vsize": 256, "size": 256}