{"hash": "d987508a7bada75f8b0192f2591ee5386356a766f944bf589b62e9b0bbe55ac6", "blockhash": "00000000000000000018f53835495a110e01622372bf6ae95dc86f2b0ab887b0", "vout": [{"scriptPubKey": {"reqSigs": 1, "hex": "76a914f81a5722813542c18a2d1d2e86c689abcf955a2288ac", "addresses": ["1Pcr8jdPLFGfyCcEfPSQPX9DqSg1wAELrY"], "asm": "OP_DUP OP_HASH160 f81a5722813542c18a2d1d2e86c689abcf955a22 OP_EQUALVERIFY OP_CHECKSIG", "type": "pubkeyhash"}, "value": 0.02395992, "n": 0}], "hex": "01000000035c75218f883858af49be1c9a9da34cb53f3a76db71a555176fd062046419320f000000006a47304402202cc9fa731c77aec371e8ccb23adafc3b1e5612144181551ee139ab9cc552e1c302203efac58681760595a58da78105fb29b6dbb346af6b6e99e95dd650f8396f8b0201210293dfb53de4ee9be163b5c36dd3c00e0d2616a86aa562ae844c4a24692178adb1ffffffff827ebf8dff05c6a675eda2b5c9238923f4c679eef0fd15e51a5384ef4d83b285130000006a47304402200bcf360503eff0bee0e3381163e88967c04445e4853a1c5cce35fb95d44c8eb202205494d5c3c489099d16e25d1b53fb38799ad752b717b694f074d4aeee9d38da12012103d041f69507eccf7d4accdd0edf67e3d6a64c1a237f8b23cb4b22933849ccc291ffffffffd9ed52223219e9b80fe182db72a25b7c49b67f3fb52cc6a65c68a40b838e8b950b0000006a47304402203166b65072304886126d19615989b7780752a7f46d3eea3b7fe77d31e9cfe07602206e196152fbfba6b8bbad6ed1a04dd2fedda8f5be283f6412000018f1d9f5fece0121035712ceff59db9b7d695fa3a7e93b06d1dacc1eb5d42197fca27ab2c8f8b58cf5ffffffff01588f2400000000001976a914f81a5722813542c18a2d1d2e86c689abcf955a2288ac00000000", "vin": [{"sequence": 4294967295, "scriptSig": {"hex": "47304402202cc9fa731c77aec371e8ccb23adafc3b1e5612144181551ee139ab9cc552e1c302203efac58681760595a58da78105fb29b6dbb346af6b6e99e95dd650f8396f8b0201210293dfb53de4ee9be163b5c36dd3c00e0d2616a86aa562ae844c4a24692178adb1", "asm": "304402202cc9fa731c77aec371e8ccb23adafc3b1e5612144181551ee139ab9cc552e1c302203efac58681760595a58da78105fb29b6dbb346af6b6e99e95dd650f8396f8b02[ALL] 0293dfb53de4ee9be163b5c36dd3c00e0d2616a86aa562ae844c4a24692178adb1"}, "vout": 0, "txid": "0f3219640462d06f1755a571db763a3fb54ca39d9a1cbe49af5838888f21755c"}, {"sequence": 4294967295, "scriptSig": {"hex": "47304402200bcf360503eff0bee0e3381163e88967c04445e4853a1c5cce35fb95d44c8eb202205494d5c3c489099d16e25d1b53fb38799ad752b717b694f074d4aeee9d38da12012103d041f69507eccf7d4accdd0edf67e3d6a64c1a237f8b23cb4b22933849ccc291", "asm": "304402200bcf360503eff0bee0e3381163e88967c04445e4853a1c5cce35fb95d44c8eb202205494d5c3c489099d16e25d1b53fb38799ad752b717b694f074d4aeee9d38da12[ALL] 03d041f69507eccf7d4accdd0edf67e3d6a64c1a237f8b23cb4b22933849ccc291"}, "vout": 19, "txid": "85b2834def84531ae515fdf0ee79c6f4238923c9b5a2ed75a6c605ff8dbf7e82"}, {"sequence": 4294967295, "scriptSig": {"hex": "47304402203166b65072304886126d19615989b7780752a7f46d3eea3b7fe77d31e9cfe07602206e196152fbfba6b8bbad6ed1a04dd2fedda8f5be283f6412000018f1d9f5fece0121035712ceff59db9b7d695fa3a7e93b06d1dacc1eb5d42197fca27ab2c8f8b58cf5", "asm": "304402203166b65072304886126d19615989b7780752a7f46d3eea3b7fe77d31e9cfe07602206e196152fbfba6b8bbad6ed1a04dd2fedda8f5be283f6412000018f1d9f5fece[ALL] 035712ceff59db9b7d695fa3a7e93b06d1dacc1eb5d42197fca27ab2c8f8b58cf5"}, "vout": 11, "txid": "958b8e830ba4685ca6c62cb53f7fb6497c5ba272db82e10fb8e919322252edd9"}], "txid": "d987508a7bada75f8b0192f2591ee5386356a766f944bf589b62e9b0bbe55ac6", "blocktime": 1537870928, "version": 1, "confirmations": 11514, "time": 1537870928, "locktime": 0, "vsize": 485, "size": 485}