{"hash": "d98b7fb2623a29077e555cbdef9e591078e89b69511765867cb4d5d4d6ee274a", "blockhash": "0000000000000000000baef3f32e3676a92c3b2e5da21b426e4f302fc371ce76", "vout": [{"scriptPubKey": {"type": "nulldata", "hex": "6a4c50000078180001c19c070e633ba8c382a7bdcd019d6ddc0f1b8ff117702940d64fa54d8eb2dd4fcdbab925c0a56033672b095c855b5baa1c6e06153582649cc4081d100759d4ba30d2c37bb011d97e02cf", "asm": "OP_RETURN 000078180001c19c070e633ba8c382a7bdcd019d6ddc0f1b8ff117702940d64fa54d8eb2dd4fcdbab925c0a56033672b095c855b5baa1c6e06153582649cc4081d100759d4ba30d2c37bb011d97e02cf"}, "value": 0.0, "n": 0}, {"scriptPubKey": {"reqSigs": 1, "hex": "76a9143194f325f7525a6e5160e5ba59a6c36242a4b5df88ac", "addresses": ["15XAYcZT2LjHmuRaxn1z1SFy5jcYt725xZ"], "asm": "OP_DUP OP_HASH160 3194f325f7525a6e5160e5ba59a6c36242a4b5df OP_EQUALVERIFY OP_CHECKSIG", "type": "pubkeyhash"}, "value": 0.00636005, "n": 1}], "hex": "01000000016543f342a66da882a1c5daf92e5150b98803c883058a14b3383bb9ba170218bc010000006a47304402204a7e5a4a54ccc5718c340afc778fe9846cd854fc9be33fcde8ac3db0ebbf001c02200b1d9f5ae1a0776e4ae2ac17dd8a87dacf7b7823a94653e7b3062f1a8458423a0121039eacc23eb9a4216098cd5b64a24143dcf432508481f9367ee728786cd0d39548ffffffff020000000000000000536a4c50000078180001c19c070e633ba8c382a7bdcd019d6ddc0f1b8ff117702940d64fa54d8eb2dd4fcdbab925c0a56033672b095c855b5baa1c6e06153582649cc4081d100759d4ba30d2c37bb011d97e02cf65b40900000000001976a9143194f325f7525a6e5160e5ba59a6c36242a4b5df88ac00000000", "vin": [{"sequence": 4294967295, "scriptSig": {"hex": "47304402204a7e5a4a54ccc5718c340afc778fe9846cd854fc9be33fcde8ac3db0ebbf001c02200b1d9f5ae1a0776e4ae2ac17dd8a87dacf7b7823a94653e7b3062f1a8458423a0121039eacc23eb9a4216098cd5b64a24143dcf432508481f9367ee728786cd0d39548", "asm": "304402204a7e5a4a54ccc5718c340afc778fe9846cd854fc9be33fcde8ac3db0ebbf001c02200b1d9f5ae1a0776e4ae2ac17dd8a87dacf7b7823a94653e7b3062f1a8458423a[ALL] 039eacc23eb9a4216098cd5b64a24143dcf432508481f9367ee728786cd0d39548"}, "vout": 1, "txid": "bc180217bab93b38b3148a0583c80388b950512ef9dac5a182a86da642f34365"}], "txid": "d98b7fb2623a29077e555cbdef9e591078e89b69511765867cb4d5d4d6ee274a", "blocktime": 1537876114, "version": 1, "confirmations": 11460, "time": 1537876114, "locktime": 0, "vsize": 283, "size": 283}