{"hash": "d98be02270a32678393c0553956e5adfaf0111d3818095a5fcdd579461b0533f", "blockhash": "0000000000000000001cda96e906b7601b7a6fb1a3b62bca570a9e5d8f4b3de1", "vout": [{"scriptPubKey": {"reqSigs": 1, "hex": "76a9148fba15bf9f778c5fad8ecd8e23d42e76734457f488ac", "addresses": ["1E6xYqnUUQBRUkY7KSJayuHDakUu1tCduR"], "asm": "OP_DUP OP_HASH160 8fba15bf9f778c5fad8ecd8e23d42e76734457f4 OP_EQUALVERIFY OP_CHECKSIG", "type": "pubkeyhash"}, "value": 60.55733781, "n": 0}, {"scriptPubKey": {"reqSigs": 1, "hex": "a9148126e371a548cff9f140893bd3dcff195e26445f87", "addresses": ["3DTugJkqWWeDnYhJ8rcenwZYt4L9eeV8Gq"], "asm": "OP_HASH160 8126e371a548cff9f140893bd3dcff195e26445f OP_EQUAL", "type": "scripthash"}, "value": 0.11536148, "n": 1}], "hex": "0100000001a198be3d85a9aef407fe1575d44113287a1bc22926fcedab6566340f5a6db1bf000000006a4730440220587334a0e257b7537788f71ad417166facf599c120e61b9fac141885bce883b0022052d87f1af97c13383ebc87f429b9e3d6ea5a126c855d066ffae60e526287b1330121034e360c649abfc017ba458288ecf3b155eb34d2f50ba385f34aebf5ebea0ea8b1ffffffff02152af368010000001976a9148fba15bf9f778c5fad8ecd8e23d42e76734457f488ac1407b0000000000017a9148126e371a548cff9f140893bd3dcff195e26445f8700000000", "vin": [{"sequence": 4294967295, "scriptSig": {"hex": "4730440220587334a0e257b7537788f71ad417166facf599c120e61b9fac141885bce883b0022052d87f1af97c13383ebc87f429b9e3d6ea5a126c855d066ffae60e526287b1330121034e360c649abfc017ba458288ecf3b155eb34d2f50ba385f34aebf5ebea0ea8b1", "asm": "30440220587334a0e257b7537788f71ad417166facf599c120e61b9fac141885bce883b0022052d87f1af97c13383ebc87f429b9e3d6ea5a126c855d066ffae60e526287b133[ALL] 034e360c649abfc017ba458288ecf3b155eb34d2f50ba385f34aebf5ebea0ea8b1"}, "vout": 0, "txid": "bfb16d5a0f346665abedfc2629c21b7a281341d47515fe07f4aea9853dbe98a1"}], "txid": "d98be02270a32678393c0553956e5adfaf0111d3818095a5fcdd579461b0533f", "blocktime": 1537873282, "version": 1, "confirmations": 11480, "time": 1537873282, "locktime": 0, "vsize": 223, "size": 223}