{"hash": "d99561c97b6237dcc1cc141b23f7636c1f4b8b0bd7908e8d9bdf1d2655bf1544", "blockhash": "0000000000000000000e13cef7c366c0283d82e591d1acd082e914b08063cdf1", "vout": [{"scriptPubKey": {"reqSigs": 1, "hex": "a914713a6d56f7ca45a36b534e233d30b3911850a54687", "addresses": ["3C1iGompZHM25FRjT1AgnWdFsma6QQAPJ1"], "asm": "OP_HASH160 713a6d56f7ca45a36b534e233d30b3911850a546 OP_EQUAL", "type": "scripthash"}, "value": 0.0203828, "n": 0}, {"scriptPubKey": {"reqSigs": 1, "hex": "76a914876e0aa71bab68a4aaf92f7ea0644bfe583b46ac88ac", "addresses": ["1DM63iu4t6sB9PKeGQ1eRM62Fdk1nD4eAH"], "asm": "OP_DUP OP_HASH160 876e0aa71bab68a4aaf92f7ea0644bfe583b46ac OP_EQUALVERIFY OP_CHECKSIG", "type": "pubkeyhash"}, "value": 0.92352636, "n": 1}], "hex": "01000000018cf4f05e524a6d844005402d1567b88a97696af7645ab4f4bf598d701464d267010000006b483045022100cdcca6b13ea000e1e2daad1f32795f2e1bb20e2f6a61ee917aff01ba97aff4a40220649566af8c3b5830c2319dc37138e139ffe27ae2b185a06f31e81790ebf01be5012102bc429aff91ee95f71790d930e120f696fc2e0d823454484832594841f74aa876ffffffff02081a1f000000000017a914713a6d56f7ca45a36b534e233d30b3911850a546877c308105000000001976a914876e0aa71bab68a4aaf92f7ea0644bfe583b46ac88ac00000000", "vin": [{"sequence": 4294967295, "scriptSig": {"hex": "483045022100cdcca6b13ea000e1e2daad1f32795f2e1bb20e2f6a61ee917aff01ba97aff4a40220649566af8c3b5830c2319dc37138e139ffe27ae2b185a06f31e81790ebf01be5012102bc429aff91ee95f71790d930e120f696fc2e0d823454484832594841f74aa876", "asm": "3045022100cdcca6b13ea000e1e2daad1f32795f2e1bb20e2f6a61ee917aff01ba97aff4a40220649566af8c3b5830c2319dc37138e139ffe27ae2b185a06f31e81790ebf01be5[ALL] 02bc429aff91ee95f71790d930e120f696fc2e0d823454484832594841f74aa876"}, "vout": 1, "txid": "67d26414708d59bff4b45a64f76a69978ab867152d400540846d4a525ef0f48c"}], "txid": "d99561c97b6237dcc1cc141b23f7636c1f4b8b0bd7908e8d9bdf1d2655bf1544", "blocktime": 1537871767, "version": 1, "confirmations": 11493, "time": 1537871767, "locktime": 0, "vsize": 224, "size": 224}