{"hash": "3371731cd4dadd733009f1fa1efbb688e3477377fd5959685fa9e3a5c84450c7", "blockhash": "0000000000000000001cda96e906b7601b7a6fb1a3b62bca570a9e5d8f4b3de1", "vout": [{"scriptPubKey": {"reqSigs": 1, "hex": "a9145f777451e79978e23948c544ed4741bafc258e6187", "addresses": ["3APoDbw7L5hignxabrhFeP5YzT7S8hdmRL"], "asm": "OP_HASH160 5f777451e79978e23948c544ed4741bafc258e61 OP_EQUAL", "type": "scripthash"}, "value": 0.02700574, "n": 0}, {"scriptPubKey": {"reqSigs": 1, "hex": "a91494c9c9212cfae6fa439b50ae14676f99278a0f0187", "addresses": ["3FFjfFMTUvVgCRN98s4ikBBXaNrJyqcqVs"], "asm": "OP_HASH160 94c9c9212cfae6fa439b50ae14676f99278a0f01 OP_EQUAL", "type": "scripthash"}, "value": 0.2899, "n": 1}], "hex": "0200000000010205d63d230560eede8526c7a204d75577fecaaf2cbeb23330ce58f6a3bcf595fe0000000017160014128a750764254eb17345921390aa772dd4cbe534feffffff8c75438e3c38835843fa6362ecd622655de9c35d6f64a23092cf90749a5c98fc0000000017160014dc30cc7b34557ed8db4702201ec0daa96484089efeffffff021e3529000000000017a9145f777451e79978e23948c544ed4741bafc258e6187305aba010000000017a91494c9c9212cfae6fa439b50ae14676f99278a0f018702483045022100851aa4a0f818f73e5bf3b33910d6f43d2418542bc63ea24b1ac50f6bf363f082022057fe0ca03fa1af6c5134dec924c72e347cf9d06bee6c5492fea1963acee62e33012103c89b707102dfabdec83fac28dbb8b990dd0b5f1b66ae3031760e9693afd81fab02483045022100f9b44b3071d9ac58d4e2e4780d85cc1aad2ae083b4af50daced1ffd678d1662b022026db2d367fb521e7ae19ddf90896171657c30bfe5cbbcf51add2b03d87ccf0770121021970a6b365d20b69f7467f477b62bf8234c071af9a495c557e71fe059853c852be480800", "vin": [{"txinwitness": ["3045022100851aa4a0f818f73e5bf3b33910d6f43d2418542bc63ea24b1ac50f6bf363f082022057fe0ca03fa1af6c5134dec924c72e347cf9d06bee6c5492fea1963acee62e3301", "03c89b707102dfabdec83fac28dbb8b990dd0b5f1b66ae3031760e9693afd81fab"], "sequence": 4294967294, "scriptSig": {"hex": "160014128a750764254eb17345921390aa772dd4cbe534", "asm": "0014128a750764254eb17345921390aa772dd4cbe534"}, "vout": 0, "txid": "fe95f5bca3f658ce3033b2be2cafcafe7755d704a2c72685deee6005233dd605"}, {"txinwitness": ["3045022100f9b44b3071d9ac58d4e2e4780d85cc1aad2ae083b4af50daced1ffd678d1662b022026db2d367fb521e7ae19ddf90896171657c30bfe5cbbcf51add2b03d87ccf07701", "021970a6b365d20b69f7467f477b62bf8234c071af9a495c557e71fe059853c852"], "sequence": 4294967294, "scriptSig": {"hex": "160014dc30cc7b34557ed8db4702201ec0daa96484089e", "asm": "0014dc30cc7b34557ed8db4702201ec0daa96484089e"}, "vout": 0, "txid": "fc985c9a7490cf9230a2646f5dc3e95d6522d6ec6263fa435883383c8e43758c"}], "txid": "d997666eb78d8aa53e30835db520ea431abf67fa3a9df761549927a9ad013a12", "blocktime": 1537873282, "version": 2, "confirmations": 11485, "time": 1537873282, "locktime": 542910, "vsize": 257, "size": 420}