{"hash": "d99a951272d436f1a692a4d1ddb17d79c369ce6488a0e1c74ce50529334c33b8", "blockhash": "0000000000000000001cda96e906b7601b7a6fb1a3b62bca570a9e5d8f4b3de1", "vout": [{"scriptPubKey": {"reqSigs": 1, "hex": "a9149d71d608ed7f05cfef2cf3324a983dfc8d4e570887", "addresses": ["3G3WP8WEAaJcHeXCpfBs76BbXarx3zxsbi"], "asm": "OP_HASH160 9d71d608ed7f05cfef2cf3324a983dfc8d4e5708 OP_EQUAL", "type": "scripthash"}, "value": 0.0025, "n": 0}, {"scriptPubKey": {"reqSigs": 1, "hex": "76a9146290e0ed310c571a8fbaded1b16f0caaedc4786788ac", "addresses": ["19zAn9FmiMgHGZqcviCJg4gVm2bXfn2ns8"], "asm": "OP_DUP OP_HASH160 6290e0ed310c571a8fbaded1b16f0caaedc47867 OP_EQUALVERIFY OP_CHECKSIG", "type": "pubkeyhash"}, "value": 0.00986018, "n": 1}], "hex": "010000000172d7f6e62e5a1cd8ff2da8edc4b1e7b984cea61f3101fbfcabfbb168ecd34f19010000006a47304402201e726b7e1b4f19cdc277234904ec0f52a3ab22e275f98e2f203c1396ee0ae1a6022048e2192ea5e54b69d9e61a76a3d8bac9dcda7dfd3d5bc843ce2bfe77d6ca497f0121025648bbc462093f0f8593c4d3b92580c8b824b18381918a693b83b8ca8504cc4fffffffff0290d003000000000017a9149d71d608ed7f05cfef2cf3324a983dfc8d4e570887a20b0f00000000001976a9146290e0ed310c571a8fbaded1b16f0caaedc4786788ac00000000", "vin": [{"sequence": 4294967295, "scriptSig": {"hex": "47304402201e726b7e1b4f19cdc277234904ec0f52a3ab22e275f98e2f203c1396ee0ae1a6022048e2192ea5e54b69d9e61a76a3d8bac9dcda7dfd3d5bc843ce2bfe77d6ca497f0121025648bbc462093f0f8593c4d3b92580c8b824b18381918a693b83b8ca8504cc4f", "asm": "304402201e726b7e1b4f19cdc277234904ec0f52a3ab22e275f98e2f203c1396ee0ae1a6022048e2192ea5e54b69d9e61a76a3d8bac9dcda7dfd3d5bc843ce2bfe77d6ca497f[ALL] 025648bbc462093f0f8593c4d3b92580c8b824b18381918a693b83b8ca8504cc4f"}, "vout": 1, "txid": "194fd3ec68b1fbabfcfb01311fa6ce84b9e7b1c4eda82dffd81c5a2ee6f6d772"}], "txid": "d99a951272d436f1a692a4d1ddb17d79c369ce6488a0e1c74ce50529334c33b8", "blocktime": 1537873282, "version": 1, "confirmations": 11485, "time": 1537873282, "locktime": 0, "vsize": 223, "size": 223}