{"hash": "121b2c51a01917b9e544d100b183b294969016f77e1c387652c1a05c29eee70d", "blockhash": "000000000000000000022b45ed06c6f4ccd3cf7fb5ba4856ebd2e58215665228", "vout": [{"scriptPubKey": {"reqSigs": 1, "hex": "a914c58adf8db9e0c2e8ab7a2731c61e12218314e28a87", "addresses": ["3KhXQRAEgMdLj1zcqikkeMMx4kUSGr1NZd"], "asm": "OP_HASH160 c58adf8db9e0c2e8ab7a2731c61e12218314e28a OP_EQUAL", "type": "scripthash"}, "value": 0.3, "n": 0}, {"scriptPubKey": {"reqSigs": 1, "hex": "a9140feb8df68f803b48a12c2c08c1cb7ac0a288093087", "addresses": ["339CF39U3M857KMaWqe9YjUgq3BFVmfzer"], "asm": "OP_HASH160 0feb8df68f803b48a12c2c08c1cb7ac0a2880930 OP_EQUAL", "type": "scripthash"}, "value": 16.76551313, "n": 1}], "hex": "02000000000101a9a591ffd6c0e4d70a2ec1a6fc2d262d3d0a5f8ffdfe239cedfdf314d3bc32f601000000171600148ebec149fd93650653669a41c9e9216ceb05e049feffffff0280c3c9010000000017a914c58adf8db9e0c2e8ab7a2731c61e12218314e28a879124ee630000000017a9140feb8df68f803b48a12c2c08c1cb7ac0a2880930870247304402201691a253b59b8d451bbd4bde9e992cb01b789dc9c63780a84e04c8472de7c6b8022020e6939fc8e5be1ccf571399069eb8de021efbba376d9690473b2d9fda5b5d0101210314e68084de0e419c77c29ca8256145b1fe11b65121d65719e28d70b0753140a80b490800", "vin": [{"txinwitness": ["304402201691a253b59b8d451bbd4bde9e992cb01b789dc9c63780a84e04c8472de7c6b8022020e6939fc8e5be1ccf571399069eb8de021efbba376d9690473b2d9fda5b5d0101", "0314e68084de0e419c77c29ca8256145b1fe11b65121d65719e28d70b0753140a8"], "sequence": 4294967294, "scriptSig": {"hex": "1600148ebec149fd93650653669a41c9e9216ceb05e049", "asm": "00148ebec149fd93650653669a41c9e9216ceb05e049"}, "vout": 1, "txid": "f632bcd314f3fded9c23fefd8f5f0a3d2d262dfca6c12e0ad7e4c0d6ff91a5a9"}], "txid": "d99d9c6e6d9d4c14e183d720878b78c1c71be1a1f871af9516973d8191cf9e32", "blocktime": 1537869901, "version": 2, "confirmations": 11522, "time": 1537869901, "locktime": 542987, "vsize": 166, "size": 247}