{"hash": "d9a9fae94f8b3ae03685d558e8efce8b287970c67457a3207e5324622dc6f9f1", "blockhash": "0000000000000000001e0dab787dd257d1dbfcb92a98c2207d5e1078be1f4165", "vout": [{"scriptPubKey": {"reqSigs": 1, "hex": "76a914d243e6abb9a60fbff430b421d2df4b7d59ec186088ac", "addresses": ["1LAnF8h3qMGx3TSwNUHVneBZUEpwE4gu3D"], "asm": "OP_DUP OP_HASH160 d243e6abb9a60fbff430b421d2df4b7d59ec1860 OP_EQUALVERIFY OP_CHECKSIG", "type": "pubkeyhash"}, "value": 0.00077314, "n": 0}, {"scriptPubKey": {"reqSigs": 1, "hex": "76a9149e391efe4320364df99e43c42c574ed610c815c788ac", "addresses": ["1FRcC9jQQfmgB1vcQ8WXzoAvF272Fcsh3S"], "asm": "OP_DUP OP_HASH160 9e391efe4320364df99e43c42c574ed610c815c7 OP_EQUALVERIFY OP_CHECKSIG", "type": "pubkeyhash"}, "value": 5.46e-06, "n": 1}, {"scriptPubKey": {"type": "nulldata", "hex": "6a146f6d6e69000000000000001f0000000b866e0f00", "asm": "OP_RETURN 6f6d6e69000000000000001f0000000b866e0f00"}, "value": 0.0, "n": 2}], "hex": "0100000001de8e69a01f065331b2e0a1d8912c5273f5cc5e9f46bdf9c02bc95cc9c8db0bbb000000006b483045022100a5ed81a05d50e791493257c3328ce59c0446c58b44f91e38d0ed773960a0adc3022046499cc99c7724275ba7e1df878d0759444b71d5ebd5912d1a34ccfd2191fb1f01210271977291b74f1f5f5c42157e8aae804664eaaeccfd097918450d37f28fb94d77ffffffff03022e0100000000001976a914d243e6abb9a60fbff430b421d2df4b7d59ec186088ac22020000000000001976a9149e391efe4320364df99e43c42c574ed610c815c788ac0000000000000000166a146f6d6e69000000000000001f0000000b866e0f0000000000", "vin": [{"sequence": 4294967295, "scriptSig": {"hex": "483045022100a5ed81a05d50e791493257c3328ce59c0446c58b44f91e38d0ed773960a0adc3022046499cc99c7724275ba7e1df878d0759444b71d5ebd5912d1a34ccfd2191fb1f01210271977291b74f1f5f5c42157e8aae804664eaaeccfd097918450d37f28fb94d77", "asm": "3045022100a5ed81a05d50e791493257c3328ce59c0446c58b44f91e38d0ed773960a0adc3022046499cc99c7724275ba7e1df878d0759444b71d5ebd5912d1a34ccfd2191fb1f[ALL] 0271977291b74f1f5f5c42157e8aae804664eaaeccfd097918450d37f28fb94d77"}, "vout": 0, "txid": "bb0bdbc8c95cc92bc0f9bd469f5eccf573522c91d8a1e0b23153061fa0698ede"}], "txid": "d9a9fae94f8b3ae03685d558e8efce8b287970c67457a3207e5324622dc6f9f1", "blocktime": 1537872475, "version": 1, "confirmations": 11486, "time": 1537872475, "locktime": 0, "vsize": 257, "size": 257}