{"hash": "c329e35bd2e2aed2a80fbdc445a85b3d35b6a595ef907d63418df63b5f3b2663", "blockhash": "0000000000000000000e13cef7c366c0283d82e591d1acd082e914b08063cdf1", "vout": [{"scriptPubKey": {"reqSigs": 1, "hex": "a914185d81a63129381a18310acd6dba60cef1bfb7a487", "addresses": ["33urA68GHJuHTbAYb7RDMC7AEVU54MdQz4"], "asm": "OP_HASH160 185d81a63129381a18310acd6dba60cef1bfb7a4 OP_EQUAL", "type": "scripthash"}, "value": 0.05290046, "n": 0}], "hex": "010000000001012efcf2f3cb46c7c0f3c2b27ebc1fc0f5155d237aaaafe2a9dee34edce0a51a320000000017160014ad07ee944cb9d6f76f2ffcb3f6276cffd9666f86ffffffff013eb850000000000017a914185d81a63129381a18310acd6dba60cef1bfb7a48702483045022100d8d5723ab78f58c9b83deb5ea29a2c7bc1a5b89f5592addf0f25bbde8965e209022073bdb67ec65cfb42a9d43c24451040289a79c558055170c7e6bd4f0969f6d8f401210258ebd59df6995b2bba53434299b60f1d1a56309a5647798de61069f717562a0200000000", "vin": [{"txinwitness": ["3045022100d8d5723ab78f58c9b83deb5ea29a2c7bc1a5b89f5592addf0f25bbde8965e209022073bdb67ec65cfb42a9d43c24451040289a79c558055170c7e6bd4f0969f6d8f401", "0258ebd59df6995b2bba53434299b60f1d1a56309a5647798de61069f717562a02"], "sequence": 4294967295, "scriptSig": {"hex": "160014ad07ee944cb9d6f76f2ffcb3f6276cffd9666f86", "asm": "0014ad07ee944cb9d6f76f2ffcb3f6276cffd9666f86"}, "vout": 0, "txid": "321aa5e0dc4ee3dea9e2afaa7a235d15f5c01fbc7eb2c2f3c0c746cbf3f2fc2e"}], "txid": "d9aed40f22cccadd8f2840d57561c61a93e2caf8fe9c766f73bf91b3448ae80b", "blocktime": 1537871767, "version": 1, "confirmations": 11495, "time": 1537871767, "locktime": 0, "vsize": 134, "size": 216}