{"hash": "44e722a2efae52a1bc89732b485ef222cf33a435728c2647184fef8954f1f295", "blockhash": "0000000000000000001f76057863aec43deb6fa401d9628bb513d65a8098bfab", "vout": [{"scriptPubKey": {"reqSigs": 1, "hex": "a9146232aee2ff4a804636307fdcb0c74a5c8dfbb85587", "addresses": ["3AeErsRfSaUgRJkvkqjAs4eYkm7NWEFdEs"], "asm": "OP_HASH160 6232aee2ff4a804636307fdcb0c74a5c8dfbb855 OP_EQUAL", "type": "scripthash"}, "value": 0.01003025, "n": 0}, {"scriptPubKey": {"reqSigs": 1, "hex": "a914a667148e48ffe5ee4df94a7fea1e871be185787c87", "addresses": ["3GrsaXpN2Lxpd4Dh9hbkKejJjgzorPajEw"], "asm": "OP_HASH160 a667148e48ffe5ee4df94a7fea1e871be185787c OP_EQUAL", "type": "scripthash"}, "value": 0.00508693, "n": 1}], "hex": "020000000001041196e32b1833ddb089414bdb472d75928859aaaa44078aa7a3296f67cb79ee56010000001716001412ed8120846c9ed16fb0467a24d5d27b9df60c97fdffffff22bbb05c42ecee41f8eafaa215983dcd97c408e726970611e4f7bfe4a782d2fd0000000017160014436733bed5ff0d435badeb32571d4522cc313189fdffffffa9f073c140b7f9bb13480ce0b536d9a21113b6a1d48c08727e8d0e836fe9b4fc0100000017160014522da99b8d8ad83be5c0269be34bb808c3a061b5fdffffffadd5c61ab19cbb2cb3b33a93babff355079e645b437a4bbcec702d7192e5a00000000000171600149844f12ed5937b80045059b3860c23de1a5402bdfdffffff02114e0f000000000017a9146232aee2ff4a804636307fdcb0c74a5c8dfbb8558715c307000000000017a914a667148e48ffe5ee4df94a7fea1e871be185787c8702483045022100b24440a60f3bb6102c94bbf16c541835bdd7b4e7ddd8b3543051a0199d68830e0220133378cd36557c1fa2c47e820e57fd535365a3084caf6f43c0fcb0fb1cfa3f5d01210287f9b6a062aad5de3072d6110647d9e0436736e920c47c74801a1241e8d9452702473044022077be4550a92e0fd36d85e9e713c97c69673ada5109275f627bf5d4a5980c7d2802206b94f116255306c9f5be294bd80bb5623855a321e9969491074967e2739cca2c0121025c1f2d22264e70b902acc8a9fa6c816674cd0e989b6d61fd56286e03ba76ae09024730440220170d368ee238730050683191e480bb65526abde843ba261c7c797082127920a10220195785f8daf7d530a9f9f43f76b5a8e6c663702c22f3d83a415d9a1e5c314ab30121038c1841bbbe87ab4b7357124ebad513234543c8fbf612fcfbdd3424b1a9de510402483045022100df1483f8e5772f1aec3f016e2bd6bea5a7864efa8079871f8bba5b69355716940220580de92710062073629feb7056325b6d0faf783b2d5bb1fe1fdfc0a96d27f1de01210234f71d775cb5b9e91c9fcaf0dfd6c460d492f0d300393a0ef9e2e4de672d661c14490800", "vin": [{"txinwitness": ["3045022100b24440a60f3bb6102c94bbf16c541835bdd7b4e7ddd8b3543051a0199d68830e0220133378cd36557c1fa2c47e820e57fd535365a3084caf6f43c0fcb0fb1cfa3f5d01", "0287f9b6a062aad5de3072d6110647d9e0436736e920c47c74801a1241e8d94527"], "sequence": 4294967293, "scriptSig": {"hex": "16001412ed8120846c9ed16fb0467a24d5d27b9df60c97", "asm": "001412ed8120846c9ed16fb0467a24d5d27b9df60c97"}, "vout": 1, "txid": "56ee79cb676f29a3a78a0744aaaa598892752d47db4b4189b0dd33182be39611"}, {"txinwitness": ["3044022077be4550a92e0fd36d85e9e713c97c69673ada5109275f627bf5d4a5980c7d2802206b94f116255306c9f5be294bd80bb5623855a321e9969491074967e2739cca2c01", "025c1f2d22264e70b902acc8a9fa6c816674cd0e989b6d61fd56286e03ba76ae09"], "sequence": 4294967293, "scriptSig": {"hex": "160014436733bed5ff0d435badeb32571d4522cc313189", "asm": "0014436733bed5ff0d435badeb32571d4522cc313189"}, "vout": 0, "txid": "fdd282a7e4bff7e411069726e708c497cd3d9815a2faeaf841eeec425cb0bb22"}, {"txinwitness": ["30440220170d368ee238730050683191e480bb65526abde843ba261c7c797082127920a10220195785f8daf7d530a9f9f43f76b5a8e6c663702c22f3d83a415d9a1e5c314ab301", "038c1841bbbe87ab4b7357124ebad513234543c8fbf612fcfbdd3424b1a9de5104"], "sequence": 4294967293, "scriptSig": {"hex": "160014522da99b8d8ad83be5c0269be34bb808c3a061b5", "asm": "0014522da99b8d8ad83be5c0269be34bb808c3a061b5"}, "vout": 1, "txid": "fcb4e96f830e8d7e72088cd4a1b61311a2d936b5e00c4813bbf9b740c173f0a9"}, {"txinwitness": ["3045022100df1483f8e5772f1aec3f016e2bd6bea5a7864efa8079871f8bba5b69355716940220580de92710062073629feb7056325b6d0faf783b2d5bb1fe1fdfc0a96d27f1de01", "0234f71d775cb5b9e91c9fcaf0dfd6c460d492f0d300393a0ef9e2e4de672d661c"], "sequence": 4294967293, "scriptSig": {"hex": "1600149844f12ed5937b80045059b3860c23de1a5402bd", "asm": "00149844f12ed5937b80045059b3860c23de1a5402bd"}, "vout": 0, "txid": "00a0e592712d70ecbc4b7a435b649e0755f3bfba933ab3b32cbb9cb11ac6d5ad"}], "txid": "d9b0774c1a444e5db4453c4955f95b77796e22cf8bdb4ee56f569f38362793f6", "blocktime": 1537873891, "version": 2, "confirmations": 11478, "time": 1537873891, "locktime": 542996, "vsize": 438, "size": 762}