{"hash": "85a81fff3469aab10be82216ad65c9077a7c6963198876501acac610a15af23b", "blockhash": "00000000000000000024a2167bbff67b0be802c0b01cdd79e6331c2be6459f87", "vout": [{"scriptPubKey": {"reqSigs": 1, "hex": "76a91435a3d3c72883fce066a3cf6972517967b932dd0188ac", "addresses": ["15td55u2SSHKtrKKQdx18t8qc5YFdfb2X5"], "asm": "OP_DUP OP_HASH160 35a3d3c72883fce066a3cf6972517967b932dd01 OP_EQUALVERIFY OP_CHECKSIG", "type": "pubkeyhash"}, "value": 0.034469, "n": 0}, {"scriptPubKey": {"reqSigs": 1, "hex": "a914fec37293f73cc540a971ea4d2fdd15cdc3e9e57d87", "addresses": ["3Qv5hCnHwXzsNm6fDb2kpgUQ74twMk8QLm"], "asm": "OP_HASH160 fec37293f73cc540a971ea4d2fdd15cdc3e9e57d OP_EQUAL", "type": "scripthash"}, "value": 0.14819504, "n": 1}], "hex": "020000000001012536ffccdd7ed5eac353b2f195b05b70838110a1121e43fa1a622e19fac3442d01000000171600149749079a9c040fee0d0a0e3b209195d18cc5dd12ffffffff0274983400000000001976a91435a3d3c72883fce066a3cf6972517967b932dd0188acb020e2000000000017a914fec37293f73cc540a971ea4d2fdd15cdc3e9e57d8702483045022100a6dcee33af1aef525e15d13a134013d2f9508c168e9c01b08d211917302adaa0022041c6e115484afd940581088d3033559d925b7efdf9210a301727399a848612ab01210328f960405f1448804c2899b754664a69c1664511ce3bd84f5c30a4e653ae850400000000", "vin": [{"txinwitness": ["3045022100a6dcee33af1aef525e15d13a134013d2f9508c168e9c01b08d211917302adaa0022041c6e115484afd940581088d3033559d925b7efdf9210a301727399a848612ab01", "0328f960405f1448804c2899b754664a69c1664511ce3bd84f5c30a4e653ae8504"], "sequence": 4294967295, "scriptSig": {"hex": "1600149749079a9c040fee0d0a0e3b209195d18cc5dd12", "asm": "00149749079a9c040fee0d0a0e3b209195d18cc5dd12"}, "vout": 1, "txid": "2d44c3fa192e621afa431e12a1108183705bb095f1b253c3ead57eddccff3625"}], "txid": "d9b291bedb605e5ae1672919f4e68dbbf5ce2addc081b7007a78653e60bcf76a", "blocktime": 1537870564, "version": 2, "confirmations": 11515, "time": 1537870564, "locktime": 0, "vsize": 168, "size": 250}