{"hash": "d9b441c1a24ad31a4e2614c5e2a4717d2679bf8f399081645b9f8754a75af173", "blockhash": "00000000000000000004ffacab907a6b429b9a5745fa0b75af4234bf69dd7176", "vout": [{"scriptPubKey": {"reqSigs": 1, "hex": "76a914bbf2dd0a9c4d6d1dbdf53a6bf04471a2c543167488ac", "addresses": ["1J8nJKZyfye4f32jYwQSgptTF3esQdh1rr"], "asm": "OP_DUP OP_HASH160 bbf2dd0a9c4d6d1dbdf53a6bf04471a2c5431674 OP_EQUALVERIFY OP_CHECKSIG", "type": "pubkeyhash"}, "value": 0.00112265, "n": 0}, {"scriptPubKey": {"reqSigs": 1, "hex": "76a9144c5ebf1cde5c5c6e8bf23ef00a80534e440add9488ac", "addresses": ["17xorgf3Cd72iuFhPbawSTaYFRMWr4FV8N"], "asm": "OP_DUP OP_HASH160 4c5ebf1cde5c5c6e8bf23ef00a80534e440add94 OP_EQUALVERIFY OP_CHECKSIG", "type": "pubkeyhash"}, "value": 0.00474237, "n": 1}], "hex": "0100000003b4e3a2cb80431ace163d2d1b935d2881d54c52a56bab439466567baf00e913002b0000006b483045022100bb5cdbf16ac9bb99ab1f0c4f66210d6f4ebabb0855ea4856ae800cfd69e67d7102204e481acd77dbfec224543a1df9bc2afe852c3a1cfa914ed1cb7012bf60fad1280121024cd1fb8ecb6e94d9bb6e132fbe842cd27a350ae807f408d47fd754d14549ffa1ffffffffa1d2ba5321e69002ee13696c5ba4194ae333d430ff96341566905d1f855f1f47320000006a473044022060ad34ea6bb8415fc4f8f7bfa9e45dd3a6a21cd46f7ae815f1eef24d92a465b402200f6f332a5bde83fc107c391ae84847bf6450977011d34766edce51f83fc8f7f40121024cd1fb8ecb6e94d9bb6e132fbe842cd27a350ae807f408d47fd754d14549ffa1ffffffff3943e7ff2b43da206db14ef18f492fa4520dc2dd1b484d7a57a5baec50608c5e340000006a473044022048e03c0aed9cc163a3cf26ec5b6a26170d9cc4426976ab4720f8ad0cd653a5d902202382086dad567e49cd3d112a6fd34c05c67fc4e63882a346e456e67399b77d580121024cd1fb8ecb6e94d9bb6e132fbe842cd27a350ae807f408d47fd754d14549ffa1ffffffff0289b60100000000001976a914bbf2dd0a9c4d6d1dbdf53a6bf04471a2c543167488ac7d3c0700000000001976a9144c5ebf1cde5c5c6e8bf23ef00a80534e440add9488ac00000000", "vin": [{"sequence": 4294967295, "scriptSig": {"hex": "483045022100bb5cdbf16ac9bb99ab1f0c4f66210d6f4ebabb0855ea4856ae800cfd69e67d7102204e481acd77dbfec224543a1df9bc2afe852c3a1cfa914ed1cb7012bf60fad1280121024cd1fb8ecb6e94d9bb6e132fbe842cd27a350ae807f408d47fd754d14549ffa1", "asm": "3045022100bb5cdbf16ac9bb99ab1f0c4f66210d6f4ebabb0855ea4856ae800cfd69e67d7102204e481acd77dbfec224543a1df9bc2afe852c3a1cfa914ed1cb7012bf60fad128[ALL] 024cd1fb8ecb6e94d9bb6e132fbe842cd27a350ae807f408d47fd754d14549ffa1"}, "vout": 43, "txid": "0013e900af7b56669443ab6ba5524cd581285d931b2d3d16ce1a4380cba2e3b4"}, {"sequence": 4294967295, "scriptSig": {"hex": "473044022060ad34ea6bb8415fc4f8f7bfa9e45dd3a6a21cd46f7ae815f1eef24d92a465b402200f6f332a5bde83fc107c391ae84847bf6450977011d34766edce51f83fc8f7f40121024cd1fb8ecb6e94d9bb6e132fbe842cd27a350ae807f408d47fd754d14549ffa1", "asm": "3044022060ad34ea6bb8415fc4f8f7bfa9e45dd3a6a21cd46f7ae815f1eef24d92a465b402200f6f332a5bde83fc107c391ae84847bf6450977011d34766edce51f83fc8f7f4[ALL] 024cd1fb8ecb6e94d9bb6e132fbe842cd27a350ae807f408d47fd754d14549ffa1"}, "vout": 50, "txid": "471f5f851f5d9066153496ff30d433e34a19a45b6c6913ee0290e62153bad2a1"}, {"sequence": 4294967295, "scriptSig": {"hex": "473044022048e03c0aed9cc163a3cf26ec5b6a26170d9cc4426976ab4720f8ad0cd653a5d902202382086dad567e49cd3d112a6fd34c05c67fc4e63882a346e456e67399b77d580121024cd1fb8ecb6e94d9bb6e132fbe842cd27a350ae807f408d47fd754d14549ffa1", "asm": "3044022048e03c0aed9cc163a3cf26ec5b6a26170d9cc4426976ab4720f8ad0cd653a5d902202382086dad567e49cd3d112a6fd34c05c67fc4e63882a346e456e67399b77d58[ALL] 024cd1fb8ecb6e94d9bb6e132fbe842cd27a350ae807f408d47fd754d14549ffa1"}, "vout": 52, "txid": "5e8c6050ecbaa5577a4d481bddc20d52a42f498ff14eb16d20da432bffe74339"}], "txid": "d9b441c1a24ad31a4e2614c5e2a4717d2679bf8f399081645b9f8754a75af173", "blocktime": 1537875543, "version": 1, "confirmations": 11464, "time": 1537875543, "locktime": 0, "vsize": 520, "size": 520}