{"hash": "d9b441544d431cd535566282ba8f8362fccc0a0e8e1ab9097f46b1f10ee27a55", "blockhash": "00000000000000000017f5eb5941039fbcee6240d03bc1f2f8e35350df66a1d8", "vout": [{"scriptPubKey": {"reqSigs": 1, "hex": "76a914d48cbbf591376a733b2b0a63ec52fc0232ce6a6b88ac", "addresses": ["1LNrr44axRfgmUgnHcujMRawnAj5mVwLiP"], "asm": "OP_DUP OP_HASH160 d48cbbf591376a733b2b0a63ec52fc0232ce6a6b OP_EQUALVERIFY OP_CHECKSIG", "type": "pubkeyhash"}, "value": 0.00042785, "n": 0}, {"scriptPubKey": {"reqSigs": 1, "hex": "76a9146d5f1a7525a2e7b9f887dd830b5cc95cefd04b1288ac", "addresses": ["1AyJaoknaYxDELM1dgzErgzv7wDS1BPByw"], "asm": "OP_DUP OP_HASH160 6d5f1a7525a2e7b9f887dd830b5cc95cefd04b12 OP_EQUALVERIFY OP_CHECKSIG", "type": "pubkeyhash"}, "value": 0.07815076, "n": 1}], "hex": "01000000011f2d79013158c36b9b24ca5adb61aa01432fcb572018b12c16ce89b798997e27010000006b48304502210094e7dc95ac8faedcac5b70d42e3d364d1f325b72b0d1109a0f95886740b0675402203feb8e23963bc6a16447d03331524e94d7d8ff21c1ce8c1caa81ceda4a1390cd01210362faebe64521953fc2e93267889ba93f1c4f4f2045a10b5f135805480f5b4d4bffffffff0221a70000000000001976a914d48cbbf591376a733b2b0a63ec52fc0232ce6a6b88aca43f7700000000001976a9146d5f1a7525a2e7b9f887dd830b5cc95cefd04b1288ac00000000", "vin": [{"sequence": 4294967295, "scriptSig": {"hex": "48304502210094e7dc95ac8faedcac5b70d42e3d364d1f325b72b0d1109a0f95886740b0675402203feb8e23963bc6a16447d03331524e94d7d8ff21c1ce8c1caa81ceda4a1390cd01210362faebe64521953fc2e93267889ba93f1c4f4f2045a10b5f135805480f5b4d4b", "asm": "304502210094e7dc95ac8faedcac5b70d42e3d364d1f325b72b0d1109a0f95886740b0675402203feb8e23963bc6a16447d03331524e94d7d8ff21c1ce8c1caa81ceda4a1390cd[ALL] 0362faebe64521953fc2e93267889ba93f1c4f4f2045a10b5f135805480f5b4d4b"}, "vout": 1, "txid": "277e9998b789ce162cb1182057cb2f4301aa61db5aca249b6bc3583101792d1f"}], "txid": "d9b441544d431cd535566282ba8f8362fccc0a0e8e1ab9097f46b1f10ee27a55", "blocktime": 1537874412, "version": 1, "confirmations": 11468, "time": 1537874412, "locktime": 0, "vsize": 226, "size": 226}