{"hash": "d9b58b8d38af1eddd780a152b85b1692a260ac5b58091349561da693b3382ab4", "blockhash": "00000000000000000004ffacab907a6b429b9a5745fa0b75af4234bf69dd7176", "vout": [{"scriptPubKey": {"reqSigs": 1, "hex": "76a9147f8eb5a22d1b8ba837f318b899317474542e2d9d88ac", "addresses": ["1CdTmzaf2qN6iDspTovHPfnPwEeEFP918S"], "asm": "OP_DUP OP_HASH160 7f8eb5a22d1b8ba837f318b899317474542e2d9d OP_EQUALVERIFY OP_CHECKSIG", "type": "pubkeyhash"}, "value": 1.11341359, "n": 0}, {"scriptPubKey": {"reqSigs": 1, "hex": "a914cbcd57e7b10c6dce88861bc8ac03f8643f23f70a87", "addresses": ["3LGd5zaAY1iSac4dRAr8WnsShMa4yuFX8i"], "asm": "OP_HASH160 cbcd57e7b10c6dce88861bc8ac03f8643f23f70a OP_EQUAL", "type": "scripthash"}, "value": 0.00287011, "n": 1}], "hex": "02000000015584d0a004b73223c5a43387dabab767e022f94d19620a6247a08002d3e64528010000006a473044022046b9601939941ff655261b1152ebda39db4a13272832d93a68ec4199c26a73a102201e25998f5c08855f787f5a548b5ce2ce9839a745eddaa29ec5e9466a87309b010121027af940ad25f4bbf0681d1b552aca4863f7b0e6385b754b4248db4fbfbfa8fd76ffffffff022fefa206000000001976a9147f8eb5a22d1b8ba837f318b899317474542e2d9d88ac236104000000000017a914cbcd57e7b10c6dce88861bc8ac03f8643f23f70a8700000000", "vin": [{"sequence": 4294967295, "scriptSig": {"hex": "473044022046b9601939941ff655261b1152ebda39db4a13272832d93a68ec4199c26a73a102201e25998f5c08855f787f5a548b5ce2ce9839a745eddaa29ec5e9466a87309b010121027af940ad25f4bbf0681d1b552aca4863f7b0e6385b754b4248db4fbfbfa8fd76", "asm": "3044022046b9601939941ff655261b1152ebda39db4a13272832d93a68ec4199c26a73a102201e25998f5c08855f787f5a548b5ce2ce9839a745eddaa29ec5e9466a87309b01[ALL] 027af940ad25f4bbf0681d1b552aca4863f7b0e6385b754b4248db4fbfbfa8fd76"}, "vout": 1, "txid": "2845e6d30280a047620a62194df922e067b7bada8733a4c52332b704a0d08455"}], "txid": "d9b58b8d38af1eddd780a152b85b1692a260ac5b58091349561da693b3382ab4", "blocktime": 1537875543, "version": 2, "confirmations": 11464, "time": 1537875543, "locktime": 0, "vsize": 223, "size": 223}