{"hash": "7581eccddab7c013464732ff49306abafd25d69a006aad2953f67c9ed9763b25", "blockhash": "00000000000000000017f5eb5941039fbcee6240d03bc1f2f8e35350df66a1d8", "vout": [{"scriptPubKey": {"reqSigs": 1, "hex": "a914cdfdc441c2d99baa35aee20a83cb32d844dc0c6387", "addresses": ["3LUCStCA5rgesDxpeKmFBZLB83hayrq9fc"], "asm": "OP_HASH160 cdfdc441c2d99baa35aee20a83cb32d844dc0c63 OP_EQUAL", "type": "scripthash"}, "value": 0.00020053, "n": 0}, {"scriptPubKey": {"reqSigs": 1, "hex": "a914414cec0fc72a9410f6836edaf08de1aa3b2a321c87", "addresses": ["37eHzewnAFRR2SVZu8rZM3nBsmuE2XBU7D"], "asm": "OP_HASH160 414cec0fc72a9410f6836edaf08de1aa3b2a321c OP_EQUAL", "type": "scripthash"}, "value": 0.24780247, "n": 1}], "hex": "0100000000010135badc54b100eb4cffbbb9a1b0daf900f70badd038be3b6e930c805f8ff63f370100000023220020ce74cde37cfb8dd71d0179287e12fc721ee236ce3c89c2745bcd365b39807eb3ffffffff02554e00000000000017a914cdfdc441c2d99baa35aee20a83cb32d844dc0c6387d71d7a010000000017a914414cec0fc72a9410f6836edaf08de1aa3b2a321c870400473044022000a6c271515c55ee547f03fc63339a121e36d3df5c1f4c33e7bce847a1563cc602204214aa84fd841d2bebfe7fed8af460117e1cd4a56487afa23ba866be363a9d5201483045022100ed5bd48d8011b8bc82abca3cbcab6f8ddfa4e03e7739b3b4a55be9978fbd926a0220625726e6712599baacce2721c32e2e271e96b907194224694a226f80752f6add0147522103ada901d90d5a76319a60f228e0b1bbc84b1d9a87238550bae5d5d190067b66712103871fc2ca08e6950b38867e8e6a0e94ee625223d3aa0df5c65f414c6d784467e252ae00000000", "vin": [{"txinwitness": ["", "3044022000a6c271515c55ee547f03fc63339a121e36d3df5c1f4c33e7bce847a1563cc602204214aa84fd841d2bebfe7fed8af460117e1cd4a56487afa23ba866be363a9d5201", "3045022100ed5bd48d8011b8bc82abca3cbcab6f8ddfa4e03e7739b3b4a55be9978fbd926a0220625726e6712599baacce2721c32e2e271e96b907194224694a226f80752f6add01", "522103ada901d90d5a76319a60f228e0b1bbc84b1d9a87238550bae5d5d190067b66712103871fc2ca08e6950b38867e8e6a0e94ee625223d3aa0df5c65f414c6d784467e252ae"], "sequence": 4294967295, "scriptSig": {"hex": "220020ce74cde37cfb8dd71d0179287e12fc721ee236ce3c89c2745bcd365b39807eb3", "asm": "0020ce74cde37cfb8dd71d0179287e12fc721ee236ce3c89c2745bcd365b39807eb3"}, "vout": 1, "txid": "373ff68f5f800c936e3bbe38d0ad0bf700f9dab0a1b9bbff4ceb00b154dcba35"}], "txid": "d9b810a0f029fda036b9b6aeaa723d3642707a40a235618ef08561bb7256bb32", "blocktime": 1537874412, "version": 1, "confirmations": 11468, "time": 1537874412, "locktime": 0, "vsize": 206, "size": 371}