{"hash": "d9bdf7f5b829230c19ffb97a13125017f4f8647b88fd323c017d3b50c503ad9e", "blockhash": "00000000000000000018f53835495a110e01622372bf6ae95dc86f2b0ab887b0", "vout": [{"scriptPubKey": {"reqSigs": 1, "hex": "76a91458f32143a95cd11ee5f37e5d1dff6f9fbafa660b88ac", "addresses": ["197Kir2psnjrTFwx8R9cUnmVCUFeUgCNxS"], "asm": "OP_DUP OP_HASH160 58f32143a95cd11ee5f37e5d1dff6f9fbafa660b OP_EQUALVERIFY OP_CHECKSIG", "type": "pubkeyhash"}, "value": 0.91701571, "n": 0}, {"scriptPubKey": {"type": "nulldata", "hex": "6a146f6d6e69000000000000001f000001c72c65f8c0", "asm": "OP_RETURN 6f6d6e69000000000000001f000001c72c65f8c0"}, "value": 0.0, "n": 1}, {"scriptPubKey": {"reqSigs": 1, "hex": "76a91426edf64b3658a38cd9f30805ad6e6bdefd537b2e88ac", "addresses": ["14YqkBjeRQg7C6Rfni6An7Vx2rBSok8oVe"], "asm": "OP_DUP OP_HASH160 26edf64b3658a38cd9f30805ad6e6bdefd537b2e OP_EQUALVERIFY OP_CHECKSIG", "type": "pubkeyhash"}, "value": 5.46e-06, "n": 2}], "hex": "01000000011ba77eb00b3eff7e73884170d2b0de930929a58df765015154c6dba4c3a4685a000000006b483045022100f0a137fb3b0682c7a5fdc2d30966cc72953583782892e7746778e06e17df577c022050805c3a51a328e1061a3871e4808c1d9890906a45df9bf8c28985b0867bbdbf01210251e12972b557d5dbac73bfd2470adeac64ac46202389f0ef2db7231f645a0aeafeffffff0343417705000000001976a91458f32143a95cd11ee5f37e5d1dff6f9fbafa660b88ac0000000000000000166a146f6d6e69000000000000001f000001c72c65f8c022020000000000001976a91426edf64b3658a38cd9f30805ad6e6bdefd537b2e88ac0e490800", "vin": [{"sequence": 4294967294, "scriptSig": {"hex": "483045022100f0a137fb3b0682c7a5fdc2d30966cc72953583782892e7746778e06e17df577c022050805c3a51a328e1061a3871e4808c1d9890906a45df9bf8c28985b0867bbdbf01210251e12972b557d5dbac73bfd2470adeac64ac46202389f0ef2db7231f645a0aea", "asm": "3045022100f0a137fb3b0682c7a5fdc2d30966cc72953583782892e7746778e06e17df577c022050805c3a51a328e1061a3871e4808c1d9890906a45df9bf8c28985b0867bbdbf[ALL] 0251e12972b557d5dbac73bfd2470adeac64ac46202389f0ef2db7231f645a0aea"}, "vout": 0, "txid": "5a68a4c3a4dbc654510165f78da5290993deb0d2704188737eff3e0bb07ea71b"}], "txid": "d9bdf7f5b829230c19ffb97a13125017f4f8647b88fd323c017d3b50c503ad9e", "blocktime": 1537870928, "version": 1, "confirmations": 11512, "time": 1537870928, "locktime": 542990, "vsize": 257, "size": 257}