{"hash": "9817c1c7af94d72fbde4ce0866d47149fd160930dffae6f30ca6775d65effec7", "blockhash": "0000000000000000001cda96e906b7601b7a6fb1a3b62bca570a9e5d8f4b3de1", "vout": [{"scriptPubKey": {"reqSigs": 1, "hex": "00143d0d92a453cf8eca60c8d16d66d167364c2fd788", "addresses": ["bc1q85xe9fzne78v5cxg69kkd5t8xexzl4ug0fpnjj"], "asm": "0 3d0d92a453cf8eca60c8d16d66d167364c2fd788", "type": "witness_v0_keyhash"}, "value": 1.083e-05, "n": 0}, {"scriptPubKey": {"reqSigs": 1, "hex": "76a91458ed259a20547dd410369ab4faf0397ad054d2b788ac", "addresses": ["197CZ8rQQ18yF3Mp5kFVhPFaBrp1YWfEJv"], "asm": "OP_DUP OP_HASH160 58ed259a20547dd410369ab4faf0397ad054d2b7 OP_EQUALVERIFY OP_CHECKSIG", "type": "pubkeyhash"}, "value": 0.00183, "n": 1}], "hex": "010000000001013aacafc5be1dd8803d4ed373b115f87bf654c2e7e27a653b2f66d75f011acd6f0100000000ffffffff023b040000000000001600143d0d92a453cf8eca60c8d16d66d167364c2fd788d8ca0200000000001976a91458ed259a20547dd410369ab4faf0397ad054d2b788ac02483045022100a5a4fbd54276bc813d6f918aff882619f8a61cad26848f064e3b6e476a66106a022027f3e117bc57c037ff67b1347d93db974b8fe924b7d0b2416fed63e202bd6393012102a8a264c774d031db7f0a155ae9c07b0a7d2b974da06e441808a39b74c4d7647500000000", "vin": [{"txinwitness": ["3045022100a5a4fbd54276bc813d6f918aff882619f8a61cad26848f064e3b6e476a66106a022027f3e117bc57c037ff67b1347d93db974b8fe924b7d0b2416fed63e202bd639301", "02a8a264c774d031db7f0a155ae9c07b0a7d2b974da06e441808a39b74c4d76475"], "sequence": 4294967295, "scriptSig": {"hex": "", "asm": ""}, "vout": 1, "txid": "6fcd1a015fd7662f3b657ae2e7c254f67bf815b173d34e3d80d81dbec5afac3a"}], "txid": "d9c2218a7b876ddfd4ab9d780a38126ddc460b680c908f3d797d7799d1d65607", "blocktime": 1537873282, "version": 1, "confirmations": 11484, "time": 1537873282, "locktime": 0, "vsize": 144, "size": 226}