{"hash": "d9c39c8e9260efcbc7e65d633d73e886cc11ddf36d9e975507cc17bdb32609d2", "blockhash": "0000000000000000001f76057863aec43deb6fa401d9628bb513d65a8098bfab", "vout": [{"scriptPubKey": {"reqSigs": 1, "hex": "76a91490e04112f3aedb8c5d21d783e785ad1201ae9e9888ac", "addresses": ["1ED2x5YCdcvk3ZqK9QbqgdGU8eykHuxb1P"], "asm": "OP_DUP OP_HASH160 90e04112f3aedb8c5d21d783e785ad1201ae9e98 OP_EQUALVERIFY OP_CHECKSIG", "type": "pubkeyhash"}, "value": 6.351e-05, "n": 0}, {"scriptPubKey": {"reqSigs": 1, "hex": "76a914ad587e94383acaac5911346b6340da5e3078053c88ac", "addresses": ["1GoZutYsN5CuEn5fE8XmeWLyds4D1MShby"], "asm": "OP_DUP OP_HASH160 ad587e94383acaac5911346b6340da5e3078053c OP_EQUALVERIFY OP_CHECKSIG", "type": "pubkeyhash"}, "value": 0.1, "n": 1}], "hex": "0100000002b37c690a2f772f08172d8a3d83ddaabe21bced019f4157a6c6b858d67f07b264000000006b483045022100c09975f8128a31bc440a0ffbf9bae8dad459fc437c9b9cf425f6a56705b9b936022027fe7abdd0f075eb32ef60f2863170b6dd1bf5ee7748d26350d847aa7e6832b1012103165a59929f21be27842456c1911366fcf80f4ac15bbfd32a1c6a999aee73c26affffffff32ac9b4515ac2ccd2ab8f36ba573451756eaa12fdca2a96ff3350d5c3e3751a2000000006b483045022100e5cf6f6356239b0c55a85f6db490f24c21a1eb6f4771a24efd41dec88afb272402203dfb1aa70935773a9f84ca2a93a3c1e8f8120a778cb4c1c3095f98d30889b9f4012103165a59929f21be27842456c1911366fcf80f4ac15bbfd32a1c6a999aee73c26affffffff02cf180000000000001976a91490e04112f3aedb8c5d21d783e785ad1201ae9e9888ac80969800000000001976a914ad587e94383acaac5911346b6340da5e3078053c88ac00000000", "vin": [{"sequence": 4294967295, "scriptSig": {"hex": "483045022100c09975f8128a31bc440a0ffbf9bae8dad459fc437c9b9cf425f6a56705b9b936022027fe7abdd0f075eb32ef60f2863170b6dd1bf5ee7748d26350d847aa7e6832b1012103165a59929f21be27842456c1911366fcf80f4ac15bbfd32a1c6a999aee73c26a", "asm": "3045022100c09975f8128a31bc440a0ffbf9bae8dad459fc437c9b9cf425f6a56705b9b936022027fe7abdd0f075eb32ef60f2863170b6dd1bf5ee7748d26350d847aa7e6832b1[ALL] 03165a59929f21be27842456c1911366fcf80f4ac15bbfd32a1c6a999aee73c26a"}, "vout": 0, "txid": "64b2077fd658b8c6a657419f01edbc21beaadd833d8a2d17082f772f0a697cb3"}, {"sequence": 4294967295, "scriptSig": {"hex": "483045022100e5cf6f6356239b0c55a85f6db490f24c21a1eb6f4771a24efd41dec88afb272402203dfb1aa70935773a9f84ca2a93a3c1e8f8120a778cb4c1c3095f98d30889b9f4012103165a59929f21be27842456c1911366fcf80f4ac15bbfd32a1c6a999aee73c26a", "asm": "3045022100e5cf6f6356239b0c55a85f6db490f24c21a1eb6f4771a24efd41dec88afb272402203dfb1aa70935773a9f84ca2a93a3c1e8f8120a778cb4c1c3095f98d30889b9f4[ALL] 03165a59929f21be27842456c1911366fcf80f4ac15bbfd32a1c6a999aee73c26a"}, "vout": 0, "txid": "a251373e5c0d35f36fa9a2dc2fa1ea56174573a56bf3b82acd2cac15459bac32"}], "txid": "d9c39c8e9260efcbc7e65d633d73e886cc11ddf36d9e975507cc17bdb32609d2", "blocktime": 1537873891, "version": 1, "confirmations": 11475, "time": 1537873891, "locktime": 0, "vsize": 374, "size": 374}