{"hash": "d9c6f47fafbf483ebec39fdaaf871e46e38e3054f973760d6a5cdb0b52a078e2", "blockhash": "00000000000000000017f5eb5941039fbcee6240d03bc1f2f8e35350df66a1d8", "vout": [{"scriptPubKey": {"reqSigs": 1, "hex": "76a91415b721108a94bb4901f57c34b7609e482373784588ac", "addresses": ["12ypa4oAvniGNhQezFPf1mmy29oU8oTH1d"], "asm": "OP_DUP OP_HASH160 15b721108a94bb4901f57c34b7609e4823737845 OP_EQUALVERIFY OP_CHECKSIG", "type": "pubkeyhash"}, "value": 0.01897968, "n": 0}], "hex": "010000000100e54ecf51adadce6787b21fbe8ed9622bac2b667f31d43ebddad481d5761ed5000000006a47304402202e4502e92ed99cc8f00d29ef241c22224846ebe6450b3981f51680a18e81aad0022023e11a2c23e96b4509afac735bbfe32c7b585b2991b84c66d9f924df20088f200121034fe05879fdf23f6c0df1b45155e63d180d0baf387262e129734365c3c382b75effffffff01f0f51c00000000001976a91415b721108a94bb4901f57c34b7609e482373784588ac00000000", "vin": [{"sequence": 4294967295, "scriptSig": {"hex": "47304402202e4502e92ed99cc8f00d29ef241c22224846ebe6450b3981f51680a18e81aad0022023e11a2c23e96b4509afac735bbfe32c7b585b2991b84c66d9f924df20088f200121034fe05879fdf23f6c0df1b45155e63d180d0baf387262e129734365c3c382b75e", "asm": "304402202e4502e92ed99cc8f00d29ef241c22224846ebe6450b3981f51680a18e81aad0022023e11a2c23e96b4509afac735bbfe32c7b585b2991b84c66d9f924df20088f20[ALL] 034fe05879fdf23f6c0df1b45155e63d180d0baf387262e129734365c3c382b75e"}, "vout": 0, "txid": "d51e76d581d4dabd3ed4317f662bac2b62d98ebe1fb28767ceadad51cf4ee500"}], "txid": "d9c6f47fafbf483ebec39fdaaf871e46e38e3054f973760d6a5cdb0b52a078e2", "blocktime": 1537874412, "version": 1, "confirmations": 11468, "time": 1537874412, "locktime": 0, "vsize": 191, "size": 191}