{"hash": "fcae023e67e983da4c7f60a331bb1afd780fb7febe0597978614722f04d08ed0", "blockhash": "00000000000000000024a2167bbff67b0be802c0b01cdd79e6331c2be6459f87", "vout": [{"scriptPubKey": {"reqSigs": 1, "hex": "76a914e0088dbd449eb6657828d5272404ce983b736bf488ac", "addresses": ["1MRacHnT5tf1kFYaKnJN9hw8AxW4isFGYu"], "asm": "OP_DUP OP_HASH160 e0088dbd449eb6657828d5272404ce983b736bf4 OP_EQUALVERIFY OP_CHECKSIG", "type": "pubkeyhash"}, "value": 0.025, "n": 0}, {"scriptPubKey": {"reqSigs": 1, "hex": "a91431c4c22411be27366e2678dd2100d295e181906c87", "addresses": ["36EAjxJ4rEPsvrgMg7cckGhdzwmnKmjLFR"], "asm": "OP_HASH160 31c4c22411be27366e2678dd2100d295e181906c OP_EQUAL", "type": "scripthash"}, "value": 0.01630127, "n": 1}], "hex": "01000000000105d71fcc1524c7f426555ba0882802cee8e09250e34aa208eb9b450808d5acf89b0000000017160014fd972cdc3e57e4551bec68e2a62620be9220fd86ffffff0018d8a657db63e5ffed16892a09381ecf50248efbc24d99f070f4a47b5f0a579600000000171600142b206d72d3f63b9b51376af7e46df91bb3b05cafffffff0037373b3fcb948e3e57ac32eb10d8c6d678a992010909708837b51e616c3a7ad5000000001716001412fe354e14e53dcd1339146793919a158a413aadffffff0069da0ec9cb2a145021ab489bc8a41028f96a23579311bbdf734729286823a69001000000171600142d8ded18f9473a171bf5afe995a42ba38e1d25f5ffffff00ca7fec93764699ad499b2073ccf4369c17ea085963ca8f048490a7b840b7621500000000171600142d8ded18f9473a171bf5afe995a42ba38e1d25f5ffffff0002a0252600000000001976a914e0088dbd449eb6657828d5272404ce983b736bf488acafdf18000000000017a91431c4c22411be27366e2678dd2100d295e181906c87024730440220499162517d5854e5ecb59df767b0edf5d42c62d32325424de9821c4d0220f0d902200b6af9866dfb443a82f7ba89c726daff98a41b2b96075668dce375cd9e7e6f46012103e176e110f25f16c65f961a4432ecb06a700ff0585a4125a89290a729c880593e02483045022100a10dc16c4b5d8cdc0896ae9e63ea5c271283e43e242da4cf40cd6b50a2a2261602205d097ea13386335858d2792a3a7a4d2455af0c43d5749c6a8a4fe68b5446bc44012102e9beecc89f32b79342c75aa520c0fb993f54f0f8faeb7ea97eeb09d694d93d950247304402200f3cec4182effedc45dabee42a2fbbc6cbcf57cce02f3ba1f947e2c4e30989710220412b923ce658b29d77237559069168307a5fb7d08a50e5139379ae8f117941300121028ea8289036b7ef242604bb86db06d8785239b5c8d93c835d0c9b6d35f2711eb102483045022100c781f0b6358d9808d468afa610eab698eb2a4701a1c6437efada7e900a3a3ff802203dc95781379e9ee5163562bd6d26e2f384c4ca0414628fed91a8676295a4cd8b012102c9e4b282a717c0e13d9df7e7b585a41a95cd08ad8e57a6206ef7da4123ffa55a02483045022100bb9303193a9ee2f5561161df84bae16ea906ebaf63a20ccece8c4fc2c1ecd9850220333a869c7cdb80878632a709b1fad46d39df30e1483eb71ebaf13270033d5bc7012102c9e4b282a717c0e13d9df7e7b585a41a95cd08ad8e57a6206ef7da4123ffa55a00000000", "vin": [{"txinwitness": ["30440220499162517d5854e5ecb59df767b0edf5d42c62d32325424de9821c4d0220f0d902200b6af9866dfb443a82f7ba89c726daff98a41b2b96075668dce375cd9e7e6f4601", "03e176e110f25f16c65f961a4432ecb06a700ff0585a4125a89290a729c880593e"], "sequence": 16777215, "scriptSig": {"hex": "160014fd972cdc3e57e4551bec68e2a62620be9220fd86", "asm": "0014fd972cdc3e57e4551bec68e2a62620be9220fd86"}, "vout": 0, "txid": "9bf8acd50808459beb08a24ae35092e0e8ce022888a05b5526f4c72415cc1fd7"}, {"txinwitness": ["3045022100a10dc16c4b5d8cdc0896ae9e63ea5c271283e43e242da4cf40cd6b50a2a2261602205d097ea13386335858d2792a3a7a4d2455af0c43d5749c6a8a4fe68b5446bc4401", "02e9beecc89f32b79342c75aa520c0fb993f54f0f8faeb7ea97eeb09d694d93d95"], "sequence": 16777215, "scriptSig": {"hex": "1600142b206d72d3f63b9b51376af7e46df91bb3b05caf", "asm": "00142b206d72d3f63b9b51376af7e46df91bb3b05caf"}, "vout": 0, "txid": "96570a5f7ba4f470f0994dc2fb8e2450cf1e38092a8916edffe563db57a6d818"}, {"txinwitness": ["304402200f3cec4182effedc45dabee42a2fbbc6cbcf57cce02f3ba1f947e2c4e30989710220412b923ce658b29d77237559069168307a5fb7d08a50e5139379ae8f1179413001", "028ea8289036b7ef242604bb86db06d8785239b5c8d93c835d0c9b6d35f2711eb1"], "sequence": 16777215, "scriptSig": {"hex": "16001412fe354e14e53dcd1339146793919a158a413aad", "asm": "001412fe354e14e53dcd1339146793919a158a413aad"}, "vout": 0, "txid": "d57a3a6c611eb537887009090192a978d6c6d810eb32ac573e8e94cb3f3b3737"}, {"txinwitness": ["3045022100c781f0b6358d9808d468afa610eab698eb2a4701a1c6437efada7e900a3a3ff802203dc95781379e9ee5163562bd6d26e2f384c4ca0414628fed91a8676295a4cd8b01", "02c9e4b282a717c0e13d9df7e7b585a41a95cd08ad8e57a6206ef7da4123ffa55a"], "sequence": 16777215, "scriptSig": {"hex": "1600142d8ded18f9473a171bf5afe995a42ba38e1d25f5", "asm": "00142d8ded18f9473a171bf5afe995a42ba38e1d25f5"}, "vout": 1, "txid": "90a6236828294773dfbb119357236af92810a4c89b48ab2150142acbc90eda69"}, {"txinwitness": ["3045022100bb9303193a9ee2f5561161df84bae16ea906ebaf63a20ccece8c4fc2c1ecd9850220333a869c7cdb80878632a709b1fad46d39df30e1483eb71ebaf13270033d5bc701", "02c9e4b282a717c0e13d9df7e7b585a41a95cd08ad8e57a6206ef7da4123ffa55a"], "sequence": 16777215, "scriptSig": {"hex": "1600142d8ded18f9473a171bf5afe995a42ba38e1d25f5", "asm": "00142d8ded18f9473a171bf5afe995a42ba38e1d25f5"}, "vout": 0, "txid": "1562b740b8a79084048fca635908ea179c36f4cc73209b49ad99467693ec7fca"}], "txid": "d9c6d5789d6cc1d25828bc92ce99019db7e78c78e388acc4c11a02382a3450c1", "blocktime": 1537870564, "version": 1, "confirmations": 11515, "time": 1537870564, "locktime": 0, "vsize": 531, "size": 936}