{"hash": "d9ceb0cd24d38c44e1025f6ef131fb1f58c9b409f856cb8a9de8f6fe49a082ed", "blockhash": "00000000000000000024a2167bbff67b0be802c0b01cdd79e6331c2be6459f87", "vout": [{"scriptPubKey": {"reqSigs": 1, "hex": "76a914e279d4fc1671526d5030b77a4a4d5df5209f6c2f88ac", "addresses": ["1MeVfPURA9P7XT6XJsiBrpHqwmXpW5MaAd"], "asm": "OP_DUP OP_HASH160 e279d4fc1671526d5030b77a4a4d5df5209f6c2f OP_EQUALVERIFY OP_CHECKSIG", "type": "pubkeyhash"}, "value": 0.07796617, "n": 0}], "hex": "0100000001d63815dece2276b22f9b24892edab3470585cafb358595ce78844ba328dcbb65000000006b483045022100c7fbe91dc4132484d5aa286b46d73c3f654151952725b0c58fafd5ae1da270b102206a3e6045aa80c3c7948a17aeaa355b83d03fb4e10913de1d657999a4a8a334a8012102228006666a85965c232f8cc7ca3a3a5b5dc3c8cbef3934964370089f321e3032ffffffff0189f77600000000001976a914e279d4fc1671526d5030b77a4a4d5df5209f6c2f88ac00000000", "vin": [{"sequence": 4294967295, "scriptSig": {"hex": "483045022100c7fbe91dc4132484d5aa286b46d73c3f654151952725b0c58fafd5ae1da270b102206a3e6045aa80c3c7948a17aeaa355b83d03fb4e10913de1d657999a4a8a334a8012102228006666a85965c232f8cc7ca3a3a5b5dc3c8cbef3934964370089f321e3032", "asm": "3045022100c7fbe91dc4132484d5aa286b46d73c3f654151952725b0c58fafd5ae1da270b102206a3e6045aa80c3c7948a17aeaa355b83d03fb4e10913de1d657999a4a8a334a8[ALL] 02228006666a85965c232f8cc7ca3a3a5b5dc3c8cbef3934964370089f321e3032"}, "vout": 0, "txid": "65bbdc28a34b8478ce958535fbca850547b3da2e89249b2fb27622cede1538d6"}], "txid": "d9ceb0cd24d38c44e1025f6ef131fb1f58c9b409f856cb8a9de8f6fe49a082ed", "blocktime": 1537870564, "version": 1, "confirmations": 11515, "time": 1537870564, "locktime": 0, "vsize": 192, "size": 192}