{"hash": "7cc6eb2bb0ec95846a7e4ba330c9a63eb6fd89ae830cf5465bf36763168a1e5b", "blockhash": "00000000000000000004ffacab907a6b429b9a5745fa0b75af4234bf69dd7176", "vout": [{"scriptPubKey": {"reqSigs": 1, "hex": "76a91485db7cab769f93a69785c13cc1e0df51be1f9d8b88ac", "addresses": ["1DCmojk8DoVM3CmvYCzyJbGfcHzZstF2vU"], "asm": "OP_DUP OP_HASH160 85db7cab769f93a69785c13cc1e0df51be1f9d8b OP_EQUALVERIFY OP_CHECKSIG", "type": "pubkeyhash"}, "value": 2.605e-05, "n": 0}, {"scriptPubKey": {"reqSigs": 1, "hex": "a914e8db75c900cf08f06518e96d167331f2a4abfb3387", "addresses": ["3NvFbQMAkkqEFj4i1sYPPLkSWzxTFUchjA"], "asm": "OP_HASH160 e8db75c900cf08f06518e96d167331f2a4abfb33 OP_EQUAL", "type": "scripthash"}, "value": 0.01213121, "n": 1}], "hex": "010000000001021b8809b33987926524b81621a21a0296e284c03c195356d89ac612cdbd4078890100000023220020941cfaff8837763dc1f69ff82b6d6553fdea17a41cfc29a04403293eedd8ccc7ffffffff89ee805719eb1e566a761cd657ce5eb87a0e15ce910fec8c78c0b3a26826a3120100000023220020941cfaff8837763dc1f69ff82b6d6553fdea17a41cfc29a04403293eedd8ccc7ffffffff022d0a0000000000001976a91485db7cab769f93a69785c13cc1e0df51be1f9d8b88acc18212000000000017a914e8db75c900cf08f06518e96d167331f2a4abfb3387040047304402201978fb8284b99e831f38ef06e82b3207977b0175539bdebc4af41a11b638ffc702203c3904d4f0633672d82f14cb065055a59aded1c43f307fecfa949ea967c2ef030148304502210099998455cb9a60957fd12972817402efd183b933e228837b2f599aae38c50b6902206d02e5bbd527778ff5ec9d7832d9552c92cad3bb34d509d060186681ffebcf230147522102531db3a5883f29bab4241dd0cd726936667bcda445d89bdd22244e828b6993342103148c80a5bdfddb05ff5bcffc397c8ca748d8b435ec6a175bc9d7bfc7fc6f853752ae0400473044022070603ea6681b68ba9022bf2228a24e571300d9133fd7be9d5b77c4db927da74302201c40b859683f5434f225f2b75a3fb97de570330817e0da4d46b8c0c2a187c87e0148304502210095e4654475d40b3d7a3b55fb149d3922cf8bcf2cfe457ac2a63d939198df0e6d02206b1770008028b511b2374921be7f4161b4c66b249757e55d08fc463a5287828d0147522102531db3a5883f29bab4241dd0cd726936667bcda445d89bdd22244e828b6993342103148c80a5bdfddb05ff5bcffc397c8ca748d8b435ec6a175bc9d7bfc7fc6f853752ae00000000", "vin": [{"txinwitness": ["", "304402201978fb8284b99e831f38ef06e82b3207977b0175539bdebc4af41a11b638ffc702203c3904d4f0633672d82f14cb065055a59aded1c43f307fecfa949ea967c2ef0301", "304502210099998455cb9a60957fd12972817402efd183b933e228837b2f599aae38c50b6902206d02e5bbd527778ff5ec9d7832d9552c92cad3bb34d509d060186681ffebcf2301", "522102531db3a5883f29bab4241dd0cd726936667bcda445d89bdd22244e828b6993342103148c80a5bdfddb05ff5bcffc397c8ca748d8b435ec6a175bc9d7bfc7fc6f853752ae"], "sequence": 4294967295, "scriptSig": {"hex": "220020941cfaff8837763dc1f69ff82b6d6553fdea17a41cfc29a04403293eedd8ccc7", "asm": "0020941cfaff8837763dc1f69ff82b6d6553fdea17a41cfc29a04403293eedd8ccc7"}, "vout": 1, "txid": "897840bdcd12c69ad85653193cc084e296021aa22116b82465928739b309881b"}, {"txinwitness": ["", "3044022070603ea6681b68ba9022bf2228a24e571300d9133fd7be9d5b77c4db927da74302201c40b859683f5434f225f2b75a3fb97de570330817e0da4d46b8c0c2a187c87e01", "304502210095e4654475d40b3d7a3b55fb149d3922cf8bcf2cfe457ac2a63d939198df0e6d02206b1770008028b511b2374921be7f4161b4c66b249757e55d08fc463a5287828d01", "522102531db3a5883f29bab4241dd0cd726936667bcda445d89bdd22244e828b6993342103148c80a5bdfddb05ff5bcffc397c8ca748d8b435ec6a175bc9d7bfc7fc6f853752ae"], "sequence": 4294967295, "scriptSig": {"hex": "220020941cfaff8837763dc1f69ff82b6d6553fdea17a41cfc29a04403293eedd8ccc7", "asm": "0020941cfaff8837763dc1f69ff82b6d6553fdea17a41cfc29a04403293eedd8ccc7"}, "vout": 1, "txid": "12a32668a2b3c0788cec0f91ce150e7ab85ece57d61c766a561eeb195780ee89"}], "txid": "d9d02cc81cca1c5a8b90a1fec3fdb9bdc2ed04f336760bc5eadede1f16989c3b", "blocktime": 1537875543, "version": 1, "confirmations": 11464, "time": 1537875543, "locktime": 0, "vsize": 338, "size": 668}