{"hash": "4011c5cd969ef52b1481a69a2ad71c62c8cfb290a63bc4bb1b3a63d4d7dacea9", "blockhash": "0000000000000000001e0dab787dd257d1dbfcb92a98c2207d5e1078be1f4165", "vout": [{"scriptPubKey": {"reqSigs": 1, "hex": "0014dfe87b799665bc0bde31dcb82442928f2c6f8ca9", "addresses": ["bc1qml58k7vkvk7qhh33mjuzgs5j3ukxlr9ftaxz0q"], "asm": "0 dfe87b799665bc0bde31dcb82442928f2c6f8ca9", "type": "witness_v0_keyhash"}, "value": 0.00933809, "n": 0}, {"scriptPubKey": {"reqSigs": 1, "hex": "76a914b704f206a2c58c18465fe841b85852521fddb04588ac", "addresses": ["1HgiaifVSorTBKvVimbQX46sF37hQagDAC"], "asm": "OP_DUP OP_HASH160 b704f206a2c58c18465fe841b85852521fddb045 OP_EQUALVERIFY OP_CHECKSIG", "type": "pubkeyhash"}, "value": 0.8, "n": 1}], "hex": "01000000000101d6b04ad4c56269e273151cb57b066095d6f89f00c3fe7982d36affc42921e9920000000000ffffffff02b13f0e0000000000160014dfe87b799665bc0bde31dcb82442928f2c6f8ca900b4c404000000001976a914b704f206a2c58c18465fe841b85852521fddb04588ac02483045022100aaf0e80bba016d98c953412d62a90882d52af838e654bdbc323503827a0d12ef02206260c077e1f0c27647f01e920dcd812f8a5031a4d19903694ac873b6d7bd70030121028998e5f9f6573a44f00f76c54950c30fecbbf2d643dd246a154143e46d56ae9100000000", "vin": [{"txinwitness": ["3045022100aaf0e80bba016d98c953412d62a90882d52af838e654bdbc323503827a0d12ef02206260c077e1f0c27647f01e920dcd812f8a5031a4d19903694ac873b6d7bd700301", "028998e5f9f6573a44f00f76c54950c30fecbbf2d643dd246a154143e46d56ae91"], "sequence": 4294967295, "scriptSig": {"hex": "", "asm": ""}, "vout": 0, "txid": "92e92129c4ff6ad38279fec3009ff8d69560067bb51c1573e26962c5d44ab0d6"}], "txid": "d9d9d6dfe5166bf4991b35fa2b5a3db30686bbd6a9f9c2119f87bffd3e18be78", "blocktime": 1537872475, "version": 1, "confirmations": 11487, "time": 1537872475, "locktime": 0, "vsize": 144, "size": 226}