{"hash": "d9da94655d1f20c51e3c9e06f015cffdc2585d26fc1609b9352b1fe79ac60c07", "blockhash": "0000000000000000000e13cef7c366c0283d82e591d1acd082e914b08063cdf1", "vout": [{"scriptPubKey": {"reqSigs": 1, "hex": "76a9141303d2a39d83f66710eec872b25b6233973c388888ac", "addresses": ["12jYRFycdR19TNVHHv1xuh5gcafdBJkEW2"], "asm": "OP_DUP OP_HASH160 1303d2a39d83f66710eec872b25b6233973c3888 OP_EQUALVERIFY OP_CHECKSIG", "type": "pubkeyhash"}, "value": 0.02, "n": 0}, {"scriptPubKey": {"reqSigs": 1, "hex": "76a9142d50a088977cc1b45c0b94fe900528af02af0ac888ac", "addresses": ["158bzhd7pT4YpQFxBHX4HNLB3Cg9p7zzns"], "asm": "OP_DUP OP_HASH160 2d50a088977cc1b45c0b94fe900528af02af0ac8 OP_EQUALVERIFY OP_CHECKSIG", "type": "pubkeyhash"}, "value": 0.01996202, "n": 1}], "hex": "01000000024ae8b085ddbfa86d1fd3d65cfd754e17b93cd64b87a2d01b0811bd9e47bd42f1010000006a47304402201ef3c624dd5316eb2e10d484369f94ebec25028f9f3a0cc8991a3256fe1da59402207d16e01f1ae5b3ddf67be6224a47daf296f4364890116bfe76c6b3fbb9dcf8e20121033e570e5c6ac7edd44787d7d97ef1d3f133051188a87cd2507b1c9be8f1326c58feffffff7edf53b5128c9e1ea40fd3bf8866222e545e7de18728b9cb07cd9f9749c2b4f6000000006a4730440220124c45eaaba5af3da752b52674a87c723b8cd2d9a1e14947a530efc219110f8402201192aabd56a87da3efa4dde4ee1ad53ace29a7d341cec6a61086f7763728163b0121031cad438bc2bf148b45bc22b0f3a6c80fd32412a690a93eeb55f1d4334923e46ffeffffff0280841e00000000001976a9141303d2a39d83f66710eec872b25b6233973c388888acaa751e00000000001976a9142d50a088977cc1b45c0b94fe900528af02af0ac888ac10490800", "vin": [{"sequence": 4294967294, "scriptSig": {"hex": "47304402201ef3c624dd5316eb2e10d484369f94ebec25028f9f3a0cc8991a3256fe1da59402207d16e01f1ae5b3ddf67be6224a47daf296f4364890116bfe76c6b3fbb9dcf8e20121033e570e5c6ac7edd44787d7d97ef1d3f133051188a87cd2507b1c9be8f1326c58", "asm": "304402201ef3c624dd5316eb2e10d484369f94ebec25028f9f3a0cc8991a3256fe1da59402207d16e01f1ae5b3ddf67be6224a47daf296f4364890116bfe76c6b3fbb9dcf8e2[ALL] 033e570e5c6ac7edd44787d7d97ef1d3f133051188a87cd2507b1c9be8f1326c58"}, "vout": 1, "txid": "f142bd479ebd11081bd0a2874bd63cb9174e75fd5cd6d31f6da8bfdd85b0e84a"}, {"sequence": 4294967294, "scriptSig": {"hex": "4730440220124c45eaaba5af3da752b52674a87c723b8cd2d9a1e14947a530efc219110f8402201192aabd56a87da3efa4dde4ee1ad53ace29a7d341cec6a61086f7763728163b0121031cad438bc2bf148b45bc22b0f3a6c80fd32412a690a93eeb55f1d4334923e46f", "asm": "30440220124c45eaaba5af3da752b52674a87c723b8cd2d9a1e14947a530efc219110f8402201192aabd56a87da3efa4dde4ee1ad53ace29a7d341cec6a61086f7763728163b[ALL] 031cad438bc2bf148b45bc22b0f3a6c80fd32412a690a93eeb55f1d4334923e46f"}, "vout": 0, "txid": "f6b4c249979fcd07cbb92887e17d5e542e226688bfd30fa41e9e8c12b553df7e"}], "txid": "d9da94655d1f20c51e3c9e06f015cffdc2585d26fc1609b9352b1fe79ac60c07", "blocktime": 1537871767, "version": 1, "confirmations": 11495, "time": 1537871767, "locktime": 542992, "vsize": 372, "size": 372}