{"hash": "d9dfe0dc377c6ed2168e5676b2e07a77e8e4643d863c56e6160f20f3810c4444", "blockhash": "0000000000000000000e13cef7c366c0283d82e591d1acd082e914b08063cdf1", "vout": [{"scriptPubKey": {"reqSigs": 1, "hex": "76a91427c2b837d41baf5c885eb19074370a42e7c4cb9e88ac", "addresses": ["14dEcqX2Bni1TKHktcPwnMXAtAdYLVxEAg"], "asm": "OP_DUP OP_HASH160 27c2b837d41baf5c885eb19074370a42e7c4cb9e OP_EQUALVERIFY OP_CHECKSIG", "type": "pubkeyhash"}, "value": 0.0025, "n": 0}, {"scriptPubKey": {"reqSigs": 1, "hex": "76a9147711eab6ffcc99e4376ac39f4022de413e1ea2a988ac", "addresses": ["1BrasiLb2KMbdtuhb1chAVnS2FvcNGfV9J"], "asm": "OP_DUP OP_HASH160 7711eab6ffcc99e4376ac39f4022de413e1ea2a9 OP_EQUALVERIFY OP_CHECKSIG", "type": "pubkeyhash"}, "value": 0.00934888, "n": 1}], "hex": "0200000001f10b1bcdfacbf8afbea5bde962675d6201b486783015d522f300f9f7aac17de8060000006b48304502210096f5cc2100bc2f87ce2e0237daf9e652eeb7f635c8561f2718245dc958ccba0302203f5895a2cb773f6a2d7437da0ec7b7b514be92788b08eb834c129e3701cfd3a00121032ecac1bd4ea0fc67ce90e32cde10a0924c1a21d47ea7e037432a949b99acf4deffffffff0290d00300000000001976a91427c2b837d41baf5c885eb19074370a42e7c4cb9e88ace8430e00000000001976a9147711eab6ffcc99e4376ac39f4022de413e1ea2a988ac00000000", "vin": [{"sequence": 4294967295, "scriptSig": {"hex": "48304502210096f5cc2100bc2f87ce2e0237daf9e652eeb7f635c8561f2718245dc958ccba0302203f5895a2cb773f6a2d7437da0ec7b7b514be92788b08eb834c129e3701cfd3a00121032ecac1bd4ea0fc67ce90e32cde10a0924c1a21d47ea7e037432a949b99acf4de", "asm": "304502210096f5cc2100bc2f87ce2e0237daf9e652eeb7f635c8561f2718245dc958ccba0302203f5895a2cb773f6a2d7437da0ec7b7b514be92788b08eb834c129e3701cfd3a0[ALL] 032ecac1bd4ea0fc67ce90e32cde10a0924c1a21d47ea7e037432a949b99acf4de"}, "vout": 6, "txid": "e87dc1aaf7f900f322d515307886b401625d6762e9bda5beaff8cbfacd1b0bf1"}], "txid": "d9dfe0dc377c6ed2168e5676b2e07a77e8e4643d863c56e6160f20f3810c4444", "blocktime": 1537871767, "version": 2, "confirmations": 11493, "time": 1537871767, "locktime": 0, "vsize": 226, "size": 226}