{"hash": "0a336e7cc8d14ac68126b78455b1290e335b0bb72fcdf721840d0ccf5d14f3bd", "blockhash": "0000000000000000001cda96e906b7601b7a6fb1a3b62bca570a9e5d8f4b3de1", "vout": [{"scriptPubKey": {"reqSigs": 1, "hex": "76a914ed7f77c064e59d814a72b3ef652078244ee72dd788ac", "addresses": ["1Nemr5fSaBjJqwcT1sNtxn7izJo1FSUwxu"], "asm": "OP_DUP OP_HASH160 ed7f77c064e59d814a72b3ef652078244ee72dd7 OP_EQUALVERIFY OP_CHECKSIG", "type": "pubkeyhash"}, "value": 0.00050966, "n": 0}, {"scriptPubKey": {"reqSigs": 1, "hex": "a914bfe3b9b006bd60d821de4768216fbcf3cb0629a487", "addresses": ["3KBdnpNRSUC6xH7oL58GWg3f1QzPQs9FWq"], "asm": "OP_HASH160 bfe3b9b006bd60d821de4768216fbcf3cb0629a4 OP_EQUAL", "type": "scripthash"}, "value": 0.01093712, "n": 1}], "hex": "01000000000101ebdbf9eb25da8477e332b173b6497c04b5cd8a9bf655ce7f0643818c0b4026c301000000232200204ac72bc93353695ed44de9eabe5eab31fde46c3e5524f6f6c253b37df4627817ffffffff0216c70000000000001976a914ed7f77c064e59d814a72b3ef652078244ee72dd788ac50b010000000000017a914bfe3b9b006bd60d821de4768216fbcf3cb0629a487040047304402201b2aa35845cfe327d97fbc038fa453dfb27f61636adef203090409f317c6d96002207099f5cdf1cc38293ab9d3d2b6a3465f72d7bd3f227ee16967359fc18191757f014730440220644350911ba15cbb48bb75dd9e498557111d9f8baa638d7556cb41af7069beaf022073f0e14bfa5c32f52f0c2de85c221b06b40483838450a5d6ba44928b8c446641014752210383dd989bbcdccf0b79b07f5bbd82921af5ac4762329b0aa9346994805e5cd8fc2103871fc2ca08e6950b38867e8e6a0e94ee625223d3aa0df5c65f414c6d784467e252ae00000000", "vin": [{"txinwitness": ["", "304402201b2aa35845cfe327d97fbc038fa453dfb27f61636adef203090409f317c6d96002207099f5cdf1cc38293ab9d3d2b6a3465f72d7bd3f227ee16967359fc18191757f01", "30440220644350911ba15cbb48bb75dd9e498557111d9f8baa638d7556cb41af7069beaf022073f0e14bfa5c32f52f0c2de85c221b06b40483838450a5d6ba44928b8c44664101", "52210383dd989bbcdccf0b79b07f5bbd82921af5ac4762329b0aa9346994805e5cd8fc2103871fc2ca08e6950b38867e8e6a0e94ee625223d3aa0df5c65f414c6d784467e252ae"], "sequence": 4294967295, "scriptSig": {"hex": "2200204ac72bc93353695ed44de9eabe5eab31fde46c3e5524f6f6c253b37df4627817", "asm": "00204ac72bc93353695ed44de9eabe5eab31fde46c3e5524f6f6c253b37df4627817"}, "vout": 1, "txid": "c326400b8c8143067fce55f69b8acdb5047c49b673b132e37784da25ebf9dbeb"}], "txid": "d9df42b8742c0e7bd79253488226966bfbcf16bae47e82f0e95a2e7d91ee50d1", "blocktime": 1537873282, "version": 1, "confirmations": 11484, "time": 1537873282, "locktime": 0, "vsize": 207, "size": 372}