{"hash": "6878e5778c77b5a4a900f9c428e7fcb20d40085011b75c15f169c5204fc9d314", "blockhash": "0000000000000000000dcc0f55137456b1a82d3642486a52398922ac4d620174", "vout": [{"scriptPubKey": {"reqSigs": 1, "hex": "a914e3b79feb4bedf805d3c3035bbb634fc761a0644f87", "addresses": ["3NT5HZCaA79rMzRq9P2pwpvRN6ptdf9nT6"], "asm": "OP_HASH160 e3b79feb4bedf805d3c3035bbb634fc761a0644f OP_EQUAL", "type": "scripthash"}, "value": 0.04373932, "n": 0}, {"scriptPubKey": {"reqSigs": 1, "hex": "a91453d20c834e81c93e857a03204e6bd0d286857e4087", "addresses": ["39LDdvB8QDV3M1Wv99rRpjiLiepoBirQxs"], "asm": "OP_HASH160 53d20c834e81c93e857a03204e6bd0d286857e40 OP_EQUAL", "type": "scripthash"}, "value": 0.05405124, "n": 1}, {"scriptPubKey": {"reqSigs": 1, "hex": "a9147e4cf6575d8817e08764b6e55528569ca53f8e8387", "addresses": ["3DCqG9TjRXKSThfoxkNUxucYYf6Z4ChVfP"], "asm": "OP_HASH160 7e4cf6575d8817e08764b6e55528569ca53f8e83 OP_EQUAL", "type": "scripthash"}, "value": 0.06105985, "n": 2}, {"scriptPubKey": {"reqSigs": 1, "hex": "a9149f5f0a1fc5e0d07156d129a3e57ce8fd067a17ef87", "addresses": ["3GDhDWSBz6jZ66ikhfryKEird2MZ1NPUki"], "asm": "OP_HASH160 9f5f0a1fc5e0d07156d129a3e57ce8fd067a17ef OP_EQUAL", "type": "scripthash"}, "value": 0.0392478, "n": 3}], "hex": "0200000000010161f956f7c97f8e2e5756126abde27faa2745822055a873264f8ff1b6d1aa15ca020000001716001496a7bd4e1336b5956eec473b5d72eeb4be497655fdffffff04acbd42000000000017a914e3b79feb4bedf805d3c3035bbb634fc761a0644f87c47952000000000017a91453d20c834e81c93e857a03204e6bd0d286857e4087812b5d000000000017a9147e4cf6575d8817e08764b6e55528569ca53f8e83872ce33b000000000017a9149f5f0a1fc5e0d07156d129a3e57ce8fd067a17ef8702483045022100903b90c592657772e85ca52571701cd6163ee18940870c25efb272cce92234f7022040a6f33718d2e7f7b8acda0a47d310efb307cb61caff803849fa13601fd9398e012103ad9ca98f13154d2ecbef014f7a88a40ebc3dc7284fbc272571b25af4495cc57d0c490800", "vin": [{"txinwitness": ["3045022100903b90c592657772e85ca52571701cd6163ee18940870c25efb272cce92234f7022040a6f33718d2e7f7b8acda0a47d310efb307cb61caff803849fa13601fd9398e01", "03ad9ca98f13154d2ecbef014f7a88a40ebc3dc7284fbc272571b25af4495cc57d"], "sequence": 4294967293, "scriptSig": {"hex": "16001496a7bd4e1336b5956eec473b5d72eeb4be497655", "asm": "001496a7bd4e1336b5956eec473b5d72eeb4be497655"}, "vout": 2, "txid": "ca15aad1b6f18f4f2673a85520824527aa7fe2bd6a1256572e8e7fc9f756f961"}], "txid": "d9e0b7f7e2420cb006d3f406b095559ddf60929ce00a544a35987f9920f46e71", "blocktime": 1537870268, "version": 2, "confirmations": 11518, "time": 1537870268, "locktime": 542988, "vsize": 230, "size": 312}