{"hash": "d9e7152ba6d74806dcc3895903644daefb4eb7d4bb8a4030e665d2ce8fb53263", "blockhash": "0000000000000000001f76057863aec43deb6fa401d9628bb513d65a8098bfab", "vout": [{"scriptPubKey": {"reqSigs": 1, "hex": "76a9149a33afcf920fcdd1a8a39b5d287c1d3e8a06e66f88ac", "addresses": ["1F4LyoTZeUqkKb9fM3rpxv9QcVQ12iCVYu"], "asm": "OP_DUP OP_HASH160 9a33afcf920fcdd1a8a39b5d287c1d3e8a06e66f OP_EQUALVERIFY OP_CHECKSIG", "type": "pubkeyhash"}, "value": 0.00379161, "n": 0}, {"scriptPubKey": {"reqSigs": 1, "hex": "a9145c6d4690c8213884c707971dab36cd78de31cd7487", "addresses": ["3A7izoC1Pf3Tq1Znin8VZXExCfJgt97a3N"], "asm": "OP_HASH160 5c6d4690c8213884c707971dab36cd78de31cd74 OP_EQUAL", "type": "scripthash"}, "value": 0.18471084, "n": 1}], "hex": "02000000013d68d7e81cd0bd233371ad7752b1e359ccf7cdc8200f774c17821372f72cf5dd010000006b483045022100ec341e00f3bc1e901d2c1be1cbde97dcccb82ad8105c8afbe70a727d4dced8ed022049e69c65e35777ca940451ef3cbae28a86d1fc0ec2b5f4082057a8afec3d92aa0121027349b20e8e77f3283803a1dcd48da54f4ea09bed64a7896da013a11c4e8880fcffffffff0219c90500000000001976a9149a33afcf920fcdd1a8a39b5d287c1d3e8a06e66f88acacd819010000000017a9145c6d4690c8213884c707971dab36cd78de31cd748700000000", "vin": [{"sequence": 4294967295, "scriptSig": {"hex": "483045022100ec341e00f3bc1e901d2c1be1cbde97dcccb82ad8105c8afbe70a727d4dced8ed022049e69c65e35777ca940451ef3cbae28a86d1fc0ec2b5f4082057a8afec3d92aa0121027349b20e8e77f3283803a1dcd48da54f4ea09bed64a7896da013a11c4e8880fc", "asm": "3045022100ec341e00f3bc1e901d2c1be1cbde97dcccb82ad8105c8afbe70a727d4dced8ed022049e69c65e35777ca940451ef3cbae28a86d1fc0ec2b5f4082057a8afec3d92aa[ALL] 027349b20e8e77f3283803a1dcd48da54f4ea09bed64a7896da013a11c4e8880fc"}, "vout": 1, "txid": "ddf52cf7721382174c770f20c8cdf7cc59e3b15277ad713323bdd01ce8d7683d"}], "txid": "d9e7152ba6d74806dcc3895903644daefb4eb7d4bb8a4030e665d2ce8fb53263", "blocktime": 1537873891, "version": 2, "confirmations": 11474, "time": 1537873891, "locktime": 0, "vsize": 224, "size": 224}