{"hash": "b4b01f235f0929ba3e663196af779cc4dbea5a925a2dc60b34554187003139a1", "blockhash": "00000000000000000004ffacab907a6b429b9a5745fa0b75af4234bf69dd7176", "vout": [{"scriptPubKey": {"reqSigs": 1, "hex": "a914c732f8a5140027cb8a3908ae7f5eed8f9cf2309187", "addresses": ["3KrHTGFsQb62EzFdxvSUmqo4dV4uYWwRRq"], "asm": "OP_HASH160 c732f8a5140027cb8a3908ae7f5eed8f9cf23091 OP_EQUAL", "type": "scripthash"}, "value": 0.00198769, "n": 0}, {"scriptPubKey": {"reqSigs": 1, "hex": "a91447a7a7f7f235446024e6dfb9561342ca77bd85b087", "addresses": ["38Dtk7fHMzatcmrHxDS2cPe6dcimNx8GGg"], "asm": "OP_HASH160 47a7a7f7f235446024e6dfb9561342ca77bd85b0 OP_EQUAL", "type": "scripthash"}, "value": 0.02692196, "n": 1}], "hex": "01000000000101c17a72c6f41d812fd967dfee9e9881b91c65e893c1da90630dba27e8fe6c16ad01000000232200207f4f1c2ec83ce5d5698bd5f633aa871186abafa33b70202c9324efe33f1ea9ccffffffff02710803000000000017a914c732f8a5140027cb8a3908ae7f5eed8f9cf2309187641429000000000017a91447a7a7f7f235446024e6dfb9561342ca77bd85b0870400483045022100ec72c852984ac0e88b039a8ca9811f9163748820c64ffa2f75c1e359c5f5d2360220203fb3cd513877019afc918bdc2feed1105863ea93a66f06446356599d65ed700147304402206160de6b2b21ce15f0fad041c58d4df5368f23f92dd7fa850fa9f7c0f1c3028d0220239a215f31fb1667d033da6dabc1f127e8fd130e6827f4a118c2e511838b2e490147522103c77ae4563097e26a41470a1e8f7ca1009fd3f8a96f0613ffc9c4a5e02fdced4a2102f0ca3513e2a2b04db733e23efd1bf196a44c1f50dd0ba8c10cd6a6ad7288f0a952ae00000000", "vin": [{"txinwitness": ["", "3045022100ec72c852984ac0e88b039a8ca9811f9163748820c64ffa2f75c1e359c5f5d2360220203fb3cd513877019afc918bdc2feed1105863ea93a66f06446356599d65ed7001", "304402206160de6b2b21ce15f0fad041c58d4df5368f23f92dd7fa850fa9f7c0f1c3028d0220239a215f31fb1667d033da6dabc1f127e8fd130e6827f4a118c2e511838b2e4901", "522103c77ae4563097e26a41470a1e8f7ca1009fd3f8a96f0613ffc9c4a5e02fdced4a2102f0ca3513e2a2b04db733e23efd1bf196a44c1f50dd0ba8c10cd6a6ad7288f0a952ae"], "sequence": 4294967295, "scriptSig": {"hex": "2200207f4f1c2ec83ce5d5698bd5f633aa871186abafa33b70202c9324efe33f1ea9cc", "asm": "00207f4f1c2ec83ce5d5698bd5f633aa871186abafa33b70202c9324efe33f1ea9cc"}, "vout": 1, "txid": "ad166cfee827ba0d6390dac193e8651cb981989eeedf67d92f811df4c6727ac1"}], "txid": "d9edc55d6a196da4cf4726e92c44694278dfa6fb83ed69112d610703d61e019c", "blocktime": 1537875543, "version": 1, "confirmations": 11464, "time": 1537875543, "locktime": 0, "vsize": 206, "size": 371}