{"hash": "d4f41f14e2c322b69ce60d027b72fcc8ac21ba89360691b47f209e74d7246765", "blockhash": "000000000000000000022b45ed06c6f4ccd3cf7fb5ba4856ebd2e58215665228", "vout": [{"scriptPubKey": {"reqSigs": 1, "hex": "a9144a9a228774e498aba860777c1b76ea72135d4f2f87", "addresses": ["38VUaDcsMzd8pVUkqy3h2bt5SYiArCXiie"], "asm": "OP_HASH160 4a9a228774e498aba860777c1b76ea72135d4f2f OP_EQUAL", "type": "scripthash"}, "value": 0.01016996, "n": 0}, {"scriptPubKey": {"reqSigs": 1, "hex": "76a91425003cf998fe78a489ca995f9f11244532d54f6c88ac", "addresses": ["14NeHeXYGU6Hjy1ZKoWBamUL3z1wyQfgym"], "asm": "OP_DUP OP_HASH160 25003cf998fe78a489ca995f9f11244532d54f6c OP_EQUALVERIFY OP_CHECKSIG", "type": "pubkeyhash"}, "value": 0.0026726, "n": 1}], "hex": "020000000001024c1d64f8ac5eb204d036bf0d931610871c3c096e659d1a908869e13b9a7094f400000000171600140ec1927cd329d0893fef34b8017d771ec5d51f3dfeffffff7ac4841594a2fe98ddf417b821972cea5b4ce84f1b9513c9900284fda7e2155410000000171600149303f95a9f4faa2b3fdc037833a15c8ac98eb467feffffff02a4840f000000000017a9144a9a228774e498aba860777c1b76ea72135d4f2f87fc130400000000001976a91425003cf998fe78a489ca995f9f11244532d54f6c88ac024730440220593508a2533a46da15d2f002d9c91b7753616785618d5d9693fe408f9df56a1902207cbb97dcec7992c495acb0cf9bcdcbf40c6c55ffc92aabff0d67ea4d519eb37301210289e1ff486f8fc4053dc0cd39f1018583fd59386ef0aa0d712994738f07aeeaa60247304402204685b806ce69dce11c5e4789ddf0c975a77806d2fff6eb9a8851b735c77b21f2022068222c29a101f80dfa2835c1eb51f560e09e02c9da3bed82674591d35b0e99a2012103ea3a6100b30c43fdcfa31b4e5ba7e4b2556344cc9e53c23b973e5a4fb32625380b490800", "vin": [{"txinwitness": ["30440220593508a2533a46da15d2f002d9c91b7753616785618d5d9693fe408f9df56a1902207cbb97dcec7992c495acb0cf9bcdcbf40c6c55ffc92aabff0d67ea4d519eb37301", "0289e1ff486f8fc4053dc0cd39f1018583fd59386ef0aa0d712994738f07aeeaa6"], "sequence": 4294967294, "scriptSig": {"hex": "1600140ec1927cd329d0893fef34b8017d771ec5d51f3d", "asm": "00140ec1927cd329d0893fef34b8017d771ec5d51f3d"}, "vout": 0, "txid": "f494709a3be16988901a9d656e093c1c871016930dbf36d004b25eacf8641d4c"}, {"txinwitness": ["304402204685b806ce69dce11c5e4789ddf0c975a77806d2fff6eb9a8851b735c77b21f2022068222c29a101f80dfa2835c1eb51f560e09e02c9da3bed82674591d35b0e99a201", "03ea3a6100b30c43fdcfa31b4e5ba7e4b2556344cc9e53c23b973e5a4fb3262538"], "sequence": 4294967294, "scriptSig": {"hex": "1600149303f95a9f4faa2b3fdc037833a15c8ac98eb467", "asm": "00149303f95a9f4faa2b3fdc037833a15c8ac98eb467"}, "vout": 16, "txid": "5415e2a7fd840290c913951b4fe84c5bea2c9721b817f4dd98fea2941584c47a"}], "txid": "d9f049997d08281dd20a3eb46f7b53f215963fae93dbd82750c877fc0257acee", "blocktime": 1537869901, "version": 2, "confirmations": 11524, "time": 1537869901, "locktime": 542987, "vsize": 258, "size": 420}