{"hash": "d9f1c8a6cb11437ef3bb61a6540a72469bae48a054d5d7539fcb863f4f6b4497", "blockhash": "0000000000000000000e13cef7c366c0283d82e591d1acd082e914b08063cdf1", "vout": [{"scriptPubKey": {"reqSigs": 1, "hex": "76a9140088028e218675c13315d5b4ca98e6da24a8e7c188ac", "addresses": ["113ow95AZ8dwg8eHQBKKYT3mtJUSW1jqkQ"], "asm": "OP_DUP OP_HASH160 0088028e218675c13315d5b4ca98e6da24a8e7c1 OP_EQUALVERIFY OP_CHECKSIG", "type": "pubkeyhash"}, "value": 0.00045929, "n": 0}, {"scriptPubKey": {"type": "nulldata", "hex": "6a146f6d6e69000000000000001f000000433996e840", "asm": "OP_RETURN 6f6d6e69000000000000001f000000433996e840"}, "value": 0.0, "n": 1}, {"scriptPubKey": {"reqSigs": 1, "hex": "76a914ecf5eb14b20ffbd71355143c9b371be4a149d3a488ac", "addresses": ["1Nbw4yVL9m9QdLA9wBSpTeq2PWW94n4qKt"], "asm": "OP_DUP OP_HASH160 ecf5eb14b20ffbd71355143c9b371be4a149d3a4 OP_EQUALVERIFY OP_CHECKSIG", "type": "pubkeyhash"}, "value": 5.46e-06, "n": 2}], "hex": "010000000199f1678cb514da2616ff3c5cbc24f262ea0c475bf8925bf4613d12cf3b555fbb000000006a47304402203eafde78f7c4ab816cb269376c4c56282e0d8e19b460a959aa4f616c9e4af52402206ebb670556cc90752bf3dbb72993a05d50ff0c305e11d70fc19b881138525128012103d99cfa19bb37702b3742c7a1317ba1bf14911f439f023f62f20ed1a246e5840afeffffff0369b30000000000001976a9140088028e218675c13315d5b4ca98e6da24a8e7c188ac0000000000000000166a146f6d6e69000000000000001f000000433996e84022020000000000001976a914ecf5eb14b20ffbd71355143c9b371be4a149d3a488ac10490800", "vin": [{"sequence": 4294967294, "scriptSig": {"hex": "47304402203eafde78f7c4ab816cb269376c4c56282e0d8e19b460a959aa4f616c9e4af52402206ebb670556cc90752bf3dbb72993a05d50ff0c305e11d70fc19b881138525128012103d99cfa19bb37702b3742c7a1317ba1bf14911f439f023f62f20ed1a246e5840a", "asm": "304402203eafde78f7c4ab816cb269376c4c56282e0d8e19b460a959aa4f616c9e4af52402206ebb670556cc90752bf3dbb72993a05d50ff0c305e11d70fc19b881138525128[ALL] 03d99cfa19bb37702b3742c7a1317ba1bf14911f439f023f62f20ed1a246e5840a"}, "vout": 0, "txid": "bb5f553bcf123d61f45b92f85b470cea62f224bc5c3cff1626da14b58c67f199"}], "txid": "d9f1c8a6cb11437ef3bb61a6540a72469bae48a054d5d7539fcb863f4f6b4497", "blocktime": 1537871767, "version": 1, "confirmations": 11490, "time": 1537871767, "locktime": 542992, "vsize": 256, "size": 256}