{"hash": "d9faa761760f130cd0b18d7cc757e76a8d79a1265f972aa077a3a4049ce0c78c", "blockhash": "0000000000000000001cda96e906b7601b7a6fb1a3b62bca570a9e5d8f4b3de1", "vout": [{"scriptPubKey": {"reqSigs": 1, "hex": "76a91426bf8f86162a2463450185778571982c515547e188ac", "addresses": ["14XtAA4GSPV8cLt9te4dWKCtPd9rnMoGR7"], "asm": "OP_DUP OP_HASH160 26bf8f86162a2463450185778571982c515547e1 OP_EQUALVERIFY OP_CHECKSIG", "type": "pubkeyhash"}, "value": 0.04556662, "n": 0}, {"scriptPubKey": {"reqSigs": 1, "hex": "76a914d366b84b7119888dafa35102d3e4b48e33f9910388ac", "addresses": ["1LGndaeN4zojTXi4oagey4DfzjrNV3VEoK"], "asm": "OP_DUP OP_HASH160 d366b84b7119888dafa35102d3e4b48e33f99103 OP_EQUALVERIFY OP_CHECKSIG", "type": "pubkeyhash"}, "value": 0.09329455, "n": 1}], "hex": "0100000001e4e089409c264127577267f73bc7e3fc9230b44224c462f8d86ed50dad221707010000006a4730440220256e6c0bb8d985ff4a8b8251d8700c34018acd38a42f33b962f4d83a34116c04022074f3c8186acb8989fa6f80b300c2f3f5a1a6e51a3b10d6f3ea98ab19fbac9b30012102147559f0ac5f820ba2bcf18d842c0968f1d04177d5ee672b4bd051af2b8d320fffffffff0276874500000000001976a91426bf8f86162a2463450185778571982c515547e188ac2f5b8e00000000001976a914d366b84b7119888dafa35102d3e4b48e33f9910388ac00000000", "vin": [{"sequence": 4294967295, "scriptSig": {"hex": "4730440220256e6c0bb8d985ff4a8b8251d8700c34018acd38a42f33b962f4d83a34116c04022074f3c8186acb8989fa6f80b300c2f3f5a1a6e51a3b10d6f3ea98ab19fbac9b30012102147559f0ac5f820ba2bcf18d842c0968f1d04177d5ee672b4bd051af2b8d320f", "asm": "30440220256e6c0bb8d985ff4a8b8251d8700c34018acd38a42f33b962f4d83a34116c04022074f3c8186acb8989fa6f80b300c2f3f5a1a6e51a3b10d6f3ea98ab19fbac9b30[ALL] 02147559f0ac5f820ba2bcf18d842c0968f1d04177d5ee672b4bd051af2b8d320f"}, "vout": 1, "txid": "071722ad0dd56ed8f862c42442b43092fce3c73bf76772572741269c4089e0e4"}], "txid": "d9faa761760f130cd0b18d7cc757e76a8d79a1265f972aa077a3a4049ce0c78c", "blocktime": 1537873282, "version": 1, "confirmations": 11483, "time": 1537873282, "locktime": 0, "vsize": 225, "size": 225}