{"hash": "da271043cee94fdd745525c5897df02112570bc3c3206492cc3c78fc5ca75b18", "blockhash": "00000000000000000004ffacab907a6b429b9a5745fa0b75af4234bf69dd7176", "vout": [{"scriptPubKey": {"reqSigs": 1, "hex": "a9142ad053be29ee95ee02a1a3d630e310142b56c2a287", "addresses": ["35bPsRUHBB7nByuAsy4ZX6TrDogy3FgGjX"], "asm": "OP_HASH160 2ad053be29ee95ee02a1a3d630e310142b56c2a2 OP_EQUAL", "type": "scripthash"}, "value": 0.01004357, "n": 0}, {"scriptPubKey": {"reqSigs": 1, "hex": "76a914420960c57b95bab8b4daf84cbb326dd6bcaa096288ac", "addresses": ["172AqFtCR2Jfzkwdcq6Xey8oKUc7C9mqXE"], "asm": "OP_DUP OP_HASH160 420960c57b95bab8b4daf84cbb326dd6bcaa0962 OP_EQUALVERIFY OP_CHECKSIG", "type": "pubkeyhash"}, "value": 0.00334452, "n": 1}], "hex": "02000000000102707af8a20ac67311e294175094fcd0b2594d747c288a1263668b8b333003350b00000000171600144bf77ea008190b08aedf639de8737e3383ed5ebefeffffffc7789530e4824295b3569ff80cb42199e838778eae5b193d7a706fee72650140000000001716001422c2e97033cac7a868be5e4cc6c59b0ef7a36247feffffff0245530f000000000017a9142ad053be29ee95ee02a1a3d630e310142b56c2a287741a0500000000001976a914420960c57b95bab8b4daf84cbb326dd6bcaa096288ac02483045022100a7fe47ceff7875609c0d50ca4d0e952d2c6b9bd46e02ee5c5a961bec17590e7d02205ea23ff85cebad54abaafde1fe82242a7e54d4c93008c3b631b2c6ed22eadfae01210274ec40efd414cb6ba87a0bd91d3814b76f6f8fb408a7071e4a7eeec1b22a9fc702483045022100eb2a1e4d8aeac664e9575fdb7cb09adac505d8324894a434234a1a81e0e952c2022005a3009e502f08471f88c97c9240d2b99f7e1e9c83f105806e079fd68b3a70060121023d32739f02e898eb9289f5640da57495ecdabb7c699350259118dff6d4e3ca9a13490800", "vin": [{"txinwitness": ["3045022100a7fe47ceff7875609c0d50ca4d0e952d2c6b9bd46e02ee5c5a961bec17590e7d02205ea23ff85cebad54abaafde1fe82242a7e54d4c93008c3b631b2c6ed22eadfae01", "0274ec40efd414cb6ba87a0bd91d3814b76f6f8fb408a7071e4a7eeec1b22a9fc7"], "sequence": 4294967294, "scriptSig": {"hex": "1600144bf77ea008190b08aedf639de8737e3383ed5ebe", "asm": "00144bf77ea008190b08aedf639de8737e3383ed5ebe"}, "vout": 0, "txid": "0b350330338b8b6663128a287c744d59b2d0fc94501794e21173c60aa2f87a70"}, {"txinwitness": ["3045022100eb2a1e4d8aeac664e9575fdb7cb09adac505d8324894a434234a1a81e0e952c2022005a3009e502f08471f88c97c9240d2b99f7e1e9c83f105806e079fd68b3a700601", "023d32739f02e898eb9289f5640da57495ecdabb7c699350259118dff6d4e3ca9a"], "sequence": 4294967294, "scriptSig": {"hex": "16001422c2e97033cac7a868be5e4cc6c59b0ef7a36247", "asm": "001422c2e97033cac7a868be5e4cc6c59b0ef7a36247"}, "vout": 0, "txid": "40016572ee6f707a3d195bae8e7738e89921b40cf89f56b3954282e4309578c7"}], "txid": "d9fcff03dac282043100182df83c97ac7925928817715f91e4744d6cb7969a0d", "blocktime": 1537875543, "version": 2, "confirmations": 11464, "time": 1537875543, "locktime": 542995, "vsize": 259, "size": 422}