{"hash": "da02787b4ac7c83d0e5071c0b8817642b96967bacb7bf3af5103df227c971e98", "blockhash": "0000000000000000000e13cef7c366c0283d82e591d1acd082e914b08063cdf1", "vout": [{"scriptPubKey": {"reqSigs": 1, "hex": "a914b6fb714690242c54c8c40a197891791b4427916587", "addresses": ["3JNY7zC8m2zd1vzA7TccMBFCwkpDLfAGCi"], "asm": "OP_HASH160 b6fb714690242c54c8c40a197891791b44279165 OP_EQUAL", "type": "scripthash"}, "value": 0.00028, "n": 0}, {"scriptPubKey": {"reqSigs": 1, "hex": "76a91413abab722f10361142c63132c57e2431c2fcf58388ac", "addresses": ["12o1VTzeGLNqdfBLXMVCeTsJmGANhziEEB"], "asm": "OP_DUP OP_HASH160 13abab722f10361142c63132c57e2431c2fcf583 OP_EQUALVERIFY OP_CHECKSIG", "type": "pubkeyhash"}, "value": 0.0118133, "n": 1}], "hex": "0100000001a74a327dafd573b97964005a172948b1d4a6cc0f572ebd9ec6fa5eac69b83f34010000006b483045022100ec80c36b6bb4e5652c5824e3e93120bb047fbb9de02e16a0d327158835e9a5fa0220032f0d064ba816a4517d722b39f58aff6d5e8d2db6b0cbccb46fc75d9f789a2a012102b46381d7707383a74c76e6ce01329b8acc78c385b76868ebd1bc838b9e1f0e55ffffffff02606d00000000000017a914b6fb714690242c54c8c40a197891791b442791658792061200000000001976a91413abab722f10361142c63132c57e2431c2fcf58388ac00000000", "vin": [{"sequence": 4294967295, "scriptSig": {"hex": "483045022100ec80c36b6bb4e5652c5824e3e93120bb047fbb9de02e16a0d327158835e9a5fa0220032f0d064ba816a4517d722b39f58aff6d5e8d2db6b0cbccb46fc75d9f789a2a012102b46381d7707383a74c76e6ce01329b8acc78c385b76868ebd1bc838b9e1f0e55", "asm": "3045022100ec80c36b6bb4e5652c5824e3e93120bb047fbb9de02e16a0d327158835e9a5fa0220032f0d064ba816a4517d722b39f58aff6d5e8d2db6b0cbccb46fc75d9f789a2a[ALL] 02b46381d7707383a74c76e6ce01329b8acc78c385b76868ebd1bc838b9e1f0e55"}, "vout": 1, "txid": "343fb869ac5efac69ebd2e570fcca6d4b14829175a006479b973d5af7d324aa7"}], "txid": "da02787b4ac7c83d0e5071c0b8817642b96967bacb7bf3af5103df227c971e98", "blocktime": 1537871767, "version": 1, "confirmations": 11495, "time": 1537871767, "locktime": 0, "vsize": 224, "size": 224}