{"hash": "da023cbb64d2e15adb2f68022b53a7b9f619fcff19ebc9f2c15d45f4a37d43d3", "blockhash": "0000000000000000000baef3f32e3676a92c3b2e5da21b426e4f302fc371ce76", "vout": [{"scriptPubKey": {"reqSigs": 1, "hex": "a914f9f8249279d75ec210d4775e051f6e96697a7aef87", "addresses": ["3QUjSaTee3vwkbgicogrWRnyEpZaPcaXYT"], "asm": "OP_HASH160 f9f8249279d75ec210d4775e051f6e96697a7aef OP_EQUAL", "type": "scripthash"}, "value": 0.01562, "n": 0}, {"scriptPubKey": {"reqSigs": 1, "hex": "a914e370231feecbfc25e2e2423a5a79bf79bfdca59887", "addresses": ["3NRbeX3vD5VaVE4TDU9ivCDsEf7NPPte6J"], "asm": "OP_HASH160 e370231feecbfc25e2e2423a5a79bf79bfdca598 OP_EQUAL", "type": "scripthash"}, "value": 8.93733062, "n": 1}], "hex": "0100000001d96a4fd712746ba66d1012d6439a3f847b7010b2a19e6219783ead5bff5a6cb401000000da0047304402200de1f4569652e8620da5fa8c568f5ee291b11049906b1744e5101b0781aa404602200d401567a387bf59a65a117177e083d125484a8db24ee4b2a92f1f6bbb776fc801483045022100a84ef2485014fcddc0b789acd9c8c508eb8d583a1e9dc4e7780b89f41274e741022066ced67fff2c7a499ebd16db5bff10d1b739e0aa4152caca7ea528f713b3155e014752210327881b6abce6535553a3ce21fad12a7d74fd237ce7c4cd270a267162344e3082210256141f8eb687f5a68c5cc65054652dc25116fa285e44d72b44368827ffe77d9a52aeffffffff0290d517000000000017a914f9f8249279d75ec210d4775e051f6e96697a7aef87c64845350000000017a914e370231feecbfc25e2e2423a5a79bf79bfdca5988700000000", "vin": [{"sequence": 4294967295, "scriptSig": {"hex": "0047304402200de1f4569652e8620da5fa8c568f5ee291b11049906b1744e5101b0781aa404602200d401567a387bf59a65a117177e083d125484a8db24ee4b2a92f1f6bbb776fc801483045022100a84ef2485014fcddc0b789acd9c8c508eb8d583a1e9dc4e7780b89f41274e741022066ced67fff2c7a499ebd16db5bff10d1b739e0aa4152caca7ea528f713b3155e014752210327881b6abce6535553a3ce21fad12a7d74fd237ce7c4cd270a267162344e3082210256141f8eb687f5a68c5cc65054652dc25116fa285e44d72b44368827ffe77d9a52ae", "asm": "0 304402200de1f4569652e8620da5fa8c568f5ee291b11049906b1744e5101b0781aa404602200d401567a387bf59a65a117177e083d125484a8db24ee4b2a92f1f6bbb776fc8[ALL] 3045022100a84ef2485014fcddc0b789acd9c8c508eb8d583a1e9dc4e7780b89f41274e741022066ced67fff2c7a499ebd16db5bff10d1b739e0aa4152caca7ea528f713b3155e[ALL] 52210327881b6abce6535553a3ce21fad12a7d74fd237ce7c4cd270a267162344e3082210256141f8eb687f5a68c5cc65054652dc25116fa285e44d72b44368827ffe77d9a52ae"}, "vout": 1, "txid": "b46c5aff5bad3e7819629ea1b210707b843f9a43d612106da66b7412d74f6ad9"}], "txid": "da023cbb64d2e15adb2f68022b53a7b9f619fcff19ebc9f2c15d45f4a37d43d3", "blocktime": 1537876114, "version": 1, "confirmations": 11460, "time": 1537876114, "locktime": 0, "vsize": 333, "size": 333}