{"hash": "da035dc2d973e2a3a5fcf6760258f7687c4ae5a40a86ff422cd5ec8ef98fa8be", "blockhash": "0000000000000000001cda96e906b7601b7a6fb1a3b62bca570a9e5d8f4b3de1", "vout": [{"scriptPubKey": {"reqSigs": 1, "hex": "76a914bdcf5c58470903eaa664a42641615a9a0672553a88ac", "addresses": ["1JJd7w2ZRN8v4aKBBKe2EL86UywkaAUVNw"], "asm": "OP_DUP OP_HASH160 bdcf5c58470903eaa664a42641615a9a0672553a OP_EQUALVERIFY OP_CHECKSIG", "type": "pubkeyhash"}, "value": 0.00073554, "n": 0}], "hex": "01000000017bf87c21de6bb1795375a38c0232a42138b177a3271123ecd1512cddeb11b905010000006a473044022052024e4df4a1c219a1363e08c2a450418c70f48d17d9ce880d94307c3835f53402206fb9d02a487038888ccc802865a25c97ca857384b5c12d58f19c8ee58c7f3d5201210351b8625a95079d6bd17ae1d37bc8a9e4d8f10ea8bfc8344fa5e139c264271578ffffffff01521f0100000000001976a914bdcf5c58470903eaa664a42641615a9a0672553a88ac00000000", "vin": [{"sequence": 4294967295, "scriptSig": {"hex": "473044022052024e4df4a1c219a1363e08c2a450418c70f48d17d9ce880d94307c3835f53402206fb9d02a487038888ccc802865a25c97ca857384b5c12d58f19c8ee58c7f3d5201210351b8625a95079d6bd17ae1d37bc8a9e4d8f10ea8bfc8344fa5e139c264271578", "asm": "3044022052024e4df4a1c219a1363e08c2a450418c70f48d17d9ce880d94307c3835f53402206fb9d02a487038888ccc802865a25c97ca857384b5c12d58f19c8ee58c7f3d52[ALL] 0351b8625a95079d6bd17ae1d37bc8a9e4d8f10ea8bfc8344fa5e139c264271578"}, "vout": 1, "txid": "05b911ebdd2c51d1ec231127a377b13821a432028ca3755379b16bde217cf87b"}], "txid": "da035dc2d973e2a3a5fcf6760258f7687c4ae5a40a86ff422cd5ec8ef98fa8be", "blocktime": 1537873282, "version": 1, "confirmations": 11485, "time": 1537873282, "locktime": 0, "vsize": 191, "size": 191}