{"hash": "da04a72532c825f8a11c96c7dd4fb4afacf49594e3f43a36863beffd68ed67ec", "blockhash": "0000000000000000001e0dab787dd257d1dbfcb92a98c2207d5e1078be1f4165", "vout": [{"scriptPubKey": {"reqSigs": 1, "hex": "a914da119fb42b32d8836d92941fec35a00e5121bf4f87", "addresses": ["3Ma4LtWNVKgQSvRpAZfY5ZBiXkn2TJj13T"], "asm": "OP_HASH160 da119fb42b32d8836d92941fec35a00e5121bf4f OP_EQUAL", "type": "scripthash"}, "value": 0.98, "n": 0}, {"scriptPubKey": {"reqSigs": 1, "hex": "76a9141ff9823d16c5093e7fe9ae0d323271842ec9dd4b88ac", "addresses": ["13v4r7rmtU223AM9mBqMoyk6fmsPbdRL67"], "asm": "OP_DUP OP_HASH160 1ff9823d16c5093e7fe9ae0d323271842ec9dd4b OP_EQUALVERIFY OP_CHECKSIG", "type": "pubkeyhash"}, "value": 2.01987625, "n": 1}], "hex": "0100000001839d08b60cdd5c2679e1daed0a0aaad84843f0763ac130b062299bd97aa3904f010000006b483045022100df2506853fcd792c94576ff3c1fc8b154e6af467b00c8c98263e8f4767d3d9eb02201f2f6f05c860772fa9c6c4f8086e365f1605699ca17ecf4069187df6fb58ac8d0121029c8fdca7667b7351aa1685a2a1d7a6c9a8cdf6b80f3302e0a3c2a11d2473e6d1ffffffff02805cd7050000000017a914da119fb42b32d8836d92941fec35a00e5121bf4f8729160a0c000000001976a9141ff9823d16c5093e7fe9ae0d323271842ec9dd4b88ac00000000", "vin": [{"sequence": 4294967295, "scriptSig": {"hex": "483045022100df2506853fcd792c94576ff3c1fc8b154e6af467b00c8c98263e8f4767d3d9eb02201f2f6f05c860772fa9c6c4f8086e365f1605699ca17ecf4069187df6fb58ac8d0121029c8fdca7667b7351aa1685a2a1d7a6c9a8cdf6b80f3302e0a3c2a11d2473e6d1", "asm": "3045022100df2506853fcd792c94576ff3c1fc8b154e6af467b00c8c98263e8f4767d3d9eb02201f2f6f05c860772fa9c6c4f8086e365f1605699ca17ecf4069187df6fb58ac8d[ALL] 029c8fdca7667b7351aa1685a2a1d7a6c9a8cdf6b80f3302e0a3c2a11d2473e6d1"}, "vout": 1, "txid": "4f90a37ad99b2962b030c13a76f04348d8aa0a0aeddae179265cdd0cb6089d83"}], "txid": "da04a72532c825f8a11c96c7dd4fb4afacf49594e3f43a36863beffd68ed67ec", "blocktime": 1537872475, "version": 1, "confirmations": 11486, "time": 1537872475, "locktime": 0, "vsize": 224, "size": 224}