{"hash": "da040520d47dde5814b7c302713e0b5e2460eb09914e6e4ad7508bd5346dbd73", "blockhash": "00000000000000000024a2167bbff67b0be802c0b01cdd79e6331c2be6459f87", "vout": [{"scriptPubKey": {"reqSigs": 1, "hex": "76a914ebd232cc1233321e4fa593153d1b19a4a4c5adb788ac", "addresses": ["1NVubvXUnCAXdzMuHsjiypWJkYXSmHDgCS"], "asm": "OP_DUP OP_HASH160 ebd232cc1233321e4fa593153d1b19a4a4c5adb7 OP_EQUALVERIFY OP_CHECKSIG", "type": "pubkeyhash"}, "value": 0.09770978, "n": 0}, {"scriptPubKey": {"reqSigs": 1, "hex": "76a9142356acc95b52931e35d72423afa76b125a4c754c88ac", "addresses": ["14DrUzi9rZqSr3F5W6LMeeGaGptxA7wJeM"], "asm": "OP_DUP OP_HASH160 2356acc95b52931e35d72423afa76b125a4c754c OP_EQUALVERIFY OP_CHECKSIG", "type": "pubkeyhash"}, "value": 0.10741159, "n": 1}], "hex": "010000000122468f5ecec62585af9f1e96518f69485cc4f06a09f617c07a32f24ddc557307010000006b483045022100e4db2640dc2a6b58b7b5342af20ac2e7f4095af3b99bdf3a88cc7b88d4f7cbee02201737a15d6eb361b04ee35957ad5fc22a84f612b9bf98a1fc1e2da0aa91737e3801210266a19d1677934d18a97caf45ab031db42529024bac86084815f91dd9c1351279ffffffff02e2179500000000001976a914ebd232cc1233321e4fa593153d1b19a4a4c5adb788aca7e5a300000000001976a9142356acc95b52931e35d72423afa76b125a4c754c88ac00000000", "vin": [{"sequence": 4294967295, "scriptSig": {"hex": "483045022100e4db2640dc2a6b58b7b5342af20ac2e7f4095af3b99bdf3a88cc7b88d4f7cbee02201737a15d6eb361b04ee35957ad5fc22a84f612b9bf98a1fc1e2da0aa91737e3801210266a19d1677934d18a97caf45ab031db42529024bac86084815f91dd9c1351279", "asm": "3045022100e4db2640dc2a6b58b7b5342af20ac2e7f4095af3b99bdf3a88cc7b88d4f7cbee02201737a15d6eb361b04ee35957ad5fc22a84f612b9bf98a1fc1e2da0aa91737e38[ALL] 0266a19d1677934d18a97caf45ab031db42529024bac86084815f91dd9c1351279"}, "vout": 1, "txid": "077355dc4df2327ac017f6096af0c45c48698f51961e9faf8525c6ce5e8f4622"}], "txid": "da040520d47dde5814b7c302713e0b5e2460eb09914e6e4ad7508bd5346dbd73", "blocktime": 1537870564, "version": 1, "confirmations": 11515, "time": 1537870564, "locktime": 0, "vsize": 226, "size": 226}