{"hash": "da0422770daaa32a8bd166b7c3ed112d341361ad12baf1aebcfd48d45ee796cf", "blockhash": "000000000000000000022b45ed06c6f4ccd3cf7fb5ba4856ebd2e58215665228", "vout": [{"scriptPubKey": {"reqSigs": 1, "hex": "76a914c8cbc6b886fd8ee23eecf7bacbd499237f060cb488ac", "addresses": ["1KJiFzKt3q56PcpBgjisf4jCWDu1hrjx6S"], "asm": "OP_DUP OP_HASH160 c8cbc6b886fd8ee23eecf7bacbd499237f060cb4 OP_EQUALVERIFY OP_CHECKSIG", "type": "pubkeyhash"}, "value": 0.00374184, "n": 0}, {"scriptPubKey": {"reqSigs": 1, "hex": "76a914a66009928f959df0102662735cf2a8ed84b9839d88ac", "addresses": ["1GAiDe49z2yMwXANepzmD1HCuWZUz7oV29"], "asm": "OP_DUP OP_HASH160 a66009928f959df0102662735cf2a8ed84b9839d OP_EQUALVERIFY OP_CHECKSIG", "type": "pubkeyhash"}, "value": 0.4026869, "n": 1}], "hex": "01000000017e9ab4584a7656bc861271e10fe6be806855c59d9e6edd335b6dfc9c9f3797b4010000006a4730440220558e19294000bf8a11b3f5612a9134afb38e563ce107aad1a90c931af17ccb2b02203b6efbcc800535e1c0d8c1ef15e604569828d42d4938f2a19d10b5f92c2fc103012102284094bc819ff99525bd3cda7e8cda0d0c96ce7410a42b16925b5273aced49c2ffffffff02a8b50500000000001976a914c8cbc6b886fd8ee23eecf7bacbd499237f060cb488ac92736602000000001976a914a66009928f959df0102662735cf2a8ed84b9839d88ac00000000", "vin": [{"sequence": 4294967295, "scriptSig": {"hex": "4730440220558e19294000bf8a11b3f5612a9134afb38e563ce107aad1a90c931af17ccb2b02203b6efbcc800535e1c0d8c1ef15e604569828d42d4938f2a19d10b5f92c2fc103012102284094bc819ff99525bd3cda7e8cda0d0c96ce7410a42b16925b5273aced49c2", "asm": "30440220558e19294000bf8a11b3f5612a9134afb38e563ce107aad1a90c931af17ccb2b02203b6efbcc800535e1c0d8c1ef15e604569828d42d4938f2a19d10b5f92c2fc103[ALL] 02284094bc819ff99525bd3cda7e8cda0d0c96ce7410a42b16925b5273aced49c2"}, "vout": 1, "txid": "b497379f9cfc6d5b33dd6e9e9dc5556880bee60fe1711286bc56764a58b49a7e"}], "txid": "da0422770daaa32a8bd166b7c3ed112d341361ad12baf1aebcfd48d45ee796cf", "blocktime": 1537869901, "version": 1, "confirmations": 11522, "time": 1537869901, "locktime": 0, "vsize": 225, "size": 225}