{"hash": "55e2f68a1fc218816914a50d7e41bf3e24bf6c1932e5b1692ca174d1d9dc99f4", "blockhash": "00000000000000000017f5eb5941039fbcee6240d03bc1f2f8e35350df66a1d8", "vout": [{"scriptPubKey": {"reqSigs": 1, "hex": "76a91420379134fa7bb08e84d2d9c71313be77cdd096d288ac", "addresses": ["13wMC1wwbbq8byVXB678nY3wFBvkVrpZes"], "asm": "OP_DUP OP_HASH160 20379134fa7bb08e84d2d9c71313be77cdd096d2 OP_EQUALVERIFY OP_CHECKSIG", "type": "pubkeyhash"}, "value": 0.00110744, "n": 0}, {"scriptPubKey": {"reqSigs": 1, "hex": "0014d4521bf306e043c92444fc2c96aaeb7ccd83183f", "addresses": ["bc1q63fphucxuppujfzylskfd2ht0nxcxxplkalyxq"], "asm": "0 d4521bf306e043c92444fc2c96aaeb7ccd83183f", "type": "witness_v0_keyhash"}, "value": 9.53e-06, "n": 1}], "hex": "0100000000010175b5dd9533832d64e5fe3459cd3509ed6d53ecdac274bf6ce1d403a838fdedd400000000171600146851dc0687483b9c02b3c8fbac3c46c3284cb601ffffffff0298b00100000000001976a91420379134fa7bb08e84d2d9c71313be77cdd096d288acb903000000000000160014d4521bf306e043c92444fc2c96aaeb7ccd83183f024830450221009c07924cb96b00a6c1b1e073c9ce7e4301f906afb0e053e2689eee6ad2e95f4002204f82f868a79c21a23fecff6cc74543835fef57064b5ed21911e4f4cbf4037532012103ed14f7db8e0b865281c62528fcd31135f93b554a6edc62b6c247c2ad70128fcd00000000", "vin": [{"txinwitness": ["30450221009c07924cb96b00a6c1b1e073c9ce7e4301f906afb0e053e2689eee6ad2e95f4002204f82f868a79c21a23fecff6cc74543835fef57064b5ed21911e4f4cbf403753201", "03ed14f7db8e0b865281c62528fcd31135f93b554a6edc62b6c247c2ad70128fcd"], "sequence": 4294967295, "scriptSig": {"hex": "1600146851dc0687483b9c02b3c8fbac3c46c3284cb601", "asm": "00146851dc0687483b9c02b3c8fbac3c46c3284cb601"}, "vout": 0, "txid": "d4edfd38a803d4e16cbf74c2daec536ded0935cd5934fee5642d833395ddb575"}], "txid": "da04d6189e606cc1fc9fe0a34b208cb24c98fb5920dac2390f71564537b41e47", "blocktime": 1537874412, "version": 1, "confirmations": 11468, "time": 1537874412, "locktime": 0, "vsize": 167, "size": 249}