{"hash": "da05346536f3bbb7db35f814965e572c5c144daade83401836ffe862b414e428", "blockhash": "0000000000000000001f0ddff1eddb255c1121bcd4da4f1bc9a0da00cae72433", "vout": [{"scriptPubKey": {"reqSigs": 1, "hex": "76a914ca6403bf1afa4d85bd6da313affa8a5cafb7fd5588ac", "addresses": ["1KT9JtXZnXcMmZ9UGZCVZVdDw6qMsqLLkY"], "asm": "OP_DUP OP_HASH160 ca6403bf1afa4d85bd6da313affa8a5cafb7fd55 OP_EQUALVERIFY OP_CHECKSIG", "type": "pubkeyhash"}, "value": 0.0002, "n": 0}, {"scriptPubKey": {"reqSigs": 1, "hex": "76a91473bedc010aaf00fe8d3bc53e746a66cc3d8ae68188ac", "addresses": ["1BZ1MCoSi8gx92nJyy2j6NeJ1MJ7aaEyZY"], "asm": "OP_DUP OP_HASH160 73bedc010aaf00fe8d3bc53e746a66cc3d8ae681 OP_EQUALVERIFY OP_CHECKSIG", "type": "pubkeyhash"}, "value": 0.01003036, "n": 1}], "hex": "0100000002e7ea1dd00ad0d15959c6da162e0fa90d103ea067f98d55a6f8af632d799c6ddd000000006a47304402205d66eece340cad727cb5b4307c6866f21c19aa176fee7badc3e97ae5c924b74f0220586d360570a669f969c269fa46628f08a5362436207f07b808bad9f0a5110b8601210324f35cf245806dacda6ab2b296e2bfa4a1a486dfa30b607f2db7a117be9a03bcfeffffffe7ea1dd00ad0d15959c6da162e0fa90d103ea067f98d55a6f8af632d799c6ddd010000006a47304402203cc95986279def1fb1e913e429caa013f5ee54b3d6d064dbb1cbfc16aeb3c7ec02207920bd4edd211fb4e2f28bf177e02e5f98f7c16f619ed2c6f65feb791ecddcf001210317cf40d27d413e48eec294008ad24556a57f0ceff818d4c82f6536d35e7afe1ffeffffff02204e0000000000001976a914ca6403bf1afa4d85bd6da313affa8a5cafb7fd5588ac1c4e0f00000000001976a91473bedc010aaf00fe8d3bc53e746a66cc3d8ae68188ac11490800", "vin": [{"sequence": 4294967294, "scriptSig": {"hex": "47304402205d66eece340cad727cb5b4307c6866f21c19aa176fee7badc3e97ae5c924b74f0220586d360570a669f969c269fa46628f08a5362436207f07b808bad9f0a5110b8601210324f35cf245806dacda6ab2b296e2bfa4a1a486dfa30b607f2db7a117be9a03bc", "asm": "304402205d66eece340cad727cb5b4307c6866f21c19aa176fee7badc3e97ae5c924b74f0220586d360570a669f969c269fa46628f08a5362436207f07b808bad9f0a5110b86[ALL] 0324f35cf245806dacda6ab2b296e2bfa4a1a486dfa30b607f2db7a117be9a03bc"}, "vout": 0, "txid": "dd6d9c792d63aff8a6558df967a03e100da90f2e16dac65959d1d00ad01deae7"}, {"sequence": 4294967294, "scriptSig": {"hex": "47304402203cc95986279def1fb1e913e429caa013f5ee54b3d6d064dbb1cbfc16aeb3c7ec02207920bd4edd211fb4e2f28bf177e02e5f98f7c16f619ed2c6f65feb791ecddcf001210317cf40d27d413e48eec294008ad24556a57f0ceff818d4c82f6536d35e7afe1f", "asm": "304402203cc95986279def1fb1e913e429caa013f5ee54b3d6d064dbb1cbfc16aeb3c7ec02207920bd4edd211fb4e2f28bf177e02e5f98f7c16f619ed2c6f65feb791ecddcf0[ALL] 0317cf40d27d413e48eec294008ad24556a57f0ceff818d4c82f6536d35e7afe1f"}, "vout": 1, "txid": "dd6d9c792d63aff8a6558df967a03e100da90f2e16dac65959d1d00ad01deae7"}], "txid": "da05346536f3bbb7db35f814965e572c5c144daade83401836ffe862b414e428", "blocktime": 1537872018, "version": 1, "confirmations": 11489, "time": 1537872018, "locktime": 542993, "vsize": 372, "size": 372}