{"hash": "da09a1ef6b0d7f394911f87bb4dc95b6f26f8dd78a881fa3b7b28c3b0dbcd6d4", "blockhash": "0000000000000000001f0ddff1eddb255c1121bcd4da4f1bc9a0da00cae72433", "vout": [{"scriptPubKey": {"reqSigs": 1, "hex": "76a914dd6d7d9286e3969325fcaaf403058606331e883d88ac", "addresses": ["1MBoVvtDZmMuUww9BFoYt1MsD3PxEVp8be"], "asm": "OP_DUP OP_HASH160 dd6d7d9286e3969325fcaaf403058606331e883d OP_EQUALVERIFY OP_CHECKSIG", "type": "pubkeyhash"}, "value": 0.10493521, "n": 0}, {"scriptPubKey": {"reqSigs": 1, "hex": "76a914487301b771ce6e16a1227a624c3162fb189630ad88ac", "addresses": ["17c5RcqBAFtydt4aPdhpMNrmWcLFFkeYWz"], "asm": "OP_DUP OP_HASH160 487301b771ce6e16a1227a624c3162fb189630ad OP_EQUALVERIFY OP_CHECKSIG", "type": "pubkeyhash"}, "value": 0.19476362, "n": 1}], "hex": "0200000001914c4ab29706c9c3f5d3500872f897b1e41f333c74084f33c3d9d51570d2fbfa000000006a4730440220466702df94cefea98755a8e93d8a9d80b5273e2e83149afc017327ce831053000220209666449ad6bee9c3e277f4a004dd6ba68762b3cdaab61ad91c9b68106e61990121032b9ef84a3b5bf2b9465f9cf8a484a84ded9322fd2ea7f76cf0a2733cd4c2ef49feffffff02511ea000000000001976a914dd6d7d9286e3969325fcaaf403058606331e883d88ac8a2f2901000000001976a914487301b771ce6e16a1227a624c3162fb189630ad88acbf480800", "vin": [{"sequence": 4294967294, "scriptSig": {"hex": "4730440220466702df94cefea98755a8e93d8a9d80b5273e2e83149afc017327ce831053000220209666449ad6bee9c3e277f4a004dd6ba68762b3cdaab61ad91c9b68106e61990121032b9ef84a3b5bf2b9465f9cf8a484a84ded9322fd2ea7f76cf0a2733cd4c2ef49", "asm": "30440220466702df94cefea98755a8e93d8a9d80b5273e2e83149afc017327ce831053000220209666449ad6bee9c3e277f4a004dd6ba68762b3cdaab61ad91c9b68106e6199[ALL] 032b9ef84a3b5bf2b9465f9cf8a484a84ded9322fd2ea7f76cf0a2733cd4c2ef49"}, "vout": 0, "txid": "fafbd27015d5d9c3334f08743c331fe4b197f8720850d3f5c3c90697b24a4c91"}], "txid": "da09a1ef6b0d7f394911f87bb4dc95b6f26f8dd78a881fa3b7b28c3b0dbcd6d4", "blocktime": 1537872018, "version": 2, "confirmations": 11489, "time": 1537872018, "locktime": 542911, "vsize": 225, "size": 225}