{"hash": "92efea17f0c21f4d19986d2c80bd07f43016353c06eceb362bb8c394a9f65e45", "blockhash": "000000000000000000205f8b0775d31398ef75b89a5e8ec8d2c57b4dc0ac4c20", "vout": [{"scriptPubKey": {"reqSigs": 1, "hex": "76a9142a7c877d7dd10d60af58c4e5da38191a1903b07d88ac", "addresses": ["14seZW5tQmCDkrnzCpWDigndhadDj3j2JT"], "asm": "OP_DUP OP_HASH160 2a7c877d7dd10d60af58c4e5da38191a1903b07d OP_EQUALVERIFY OP_CHECKSIG", "type": "pubkeyhash"}, "value": 0.0744682, "n": 0}, {"scriptPubKey": {"reqSigs": 1, "hex": "a91477cfb3a915b559bf68652b09399f07d80e720ed887", "addresses": ["3CcX9kCHnJsZrkUNVfWY7gJTbv1FKGeC1a"], "asm": "OP_HASH160 77cfb3a915b559bf68652b09399f07d80e720ed8 OP_EQUAL", "type": "scripthash"}, "value": 0.00050828, "n": 1}], "hex": "020000000001013534b6681479baca3edb6e2ff7b9f9843b6140dd6422aa8b5f0551e667a8d3e10000000017160014719a4c872c9841dbd95eb4988863056d41ea4ea9feffffff0224a17100000000001976a9142a7c877d7dd10d60af58c4e5da38191a1903b07d88ac8cc600000000000017a91477cfb3a915b559bf68652b09399f07d80e720ed8870247304402204045f1d2793f20d7cb36bb46ce2d81d138ae0937809801749221c8ff4515ab99022069fdfb0191e5bcb3605a723c5d89bbcaef3c1c0c505fd3360a69c23828e9f29101210362b6c1469c3eac30370e51fe8f73a85c6a79da29f9868afbf47c8625f823182d0f490800", "vin": [{"txinwitness": ["304402204045f1d2793f20d7cb36bb46ce2d81d138ae0937809801749221c8ff4515ab99022069fdfb0191e5bcb3605a723c5d89bbcaef3c1c0c505fd3360a69c23828e9f29101", "0362b6c1469c3eac30370e51fe8f73a85c6a79da29f9868afbf47c8625f823182d"], "sequence": 4294967294, "scriptSig": {"hex": "160014719a4c872c9841dbd95eb4988863056d41ea4ea9", "asm": "0014719a4c872c9841dbd95eb4988863056d41ea4ea9"}, "vout": 0, "txid": "e1d3a867e651055f8baa2264dd40613b84f9b9f72f6edb3ecaba791468b63435"}], "txid": "da0a5a1ab7392358e2fd7d7cb4823d675d13af88c104c0c53fd992900674f268", "blocktime": 1537871175, "version": 2, "confirmations": 11511, "time": 1537871175, "locktime": 542991, "vsize": 168, "size": 249}