{"hash": "da0bee8c8947061064e83a3fe7bb49e78b7de70b1f88f3e102bd0947992286db", "blockhash": "000000000000000000022b45ed06c6f4ccd3cf7fb5ba4856ebd2e58215665228", "vout": [{"scriptPubKey": {"reqSigs": 1, "hex": "76a9148cd1e3beafb9d22e76b9d1dc0f10caf75ed2126c88ac", "addresses": ["1Dqb3F7USEP1Ar7SGUzSgp7efnPiYqUR2R"], "asm": "OP_DUP OP_HASH160 8cd1e3beafb9d22e76b9d1dc0f10caf75ed2126c OP_EQUALVERIFY OP_CHECKSIG", "type": "pubkeyhash"}, "value": 3e-05, "n": 0}, {"scriptPubKey": {"reqSigs": 1, "hex": "76a9143b6643eee4745fe3d99dfb206af482e54cbfb25588ac", "addresses": ["16R5NqivzKBPLHVngoa5rtVsSMtp1DkfVh"], "asm": "OP_DUP OP_HASH160 3b6643eee4745fe3d99dfb206af482e54cbfb255 OP_EQUALVERIFY OP_CHECKSIG", "type": "pubkeyhash"}, "value": 0.09839898, "n": 1}], "hex": "0100000001364bd27a93cf666352e7ebd3c7ad0a7f2ce46cb2498b12369e2c4d7eb4bc5215000000006b483045022100e0eb0c30d6bf2d65d9402952761383dc5e3366f44e001145ba80f7097352f1bb022005c326dc2d811512ba754be72d01033a02e494b164b11becc2dd012869b7a3290121024462a967e5eee132e5e98849378a0724d3f9b776fe523ce2fb704ff13a4c9210feffffff02b80b0000000000001976a9148cd1e3beafb9d22e76b9d1dc0f10caf75ed2126c88ac1a259600000000001976a9143b6643eee4745fe3d99dfb206af482e54cbfb25588ac0b490800", "vin": [{"sequence": 4294967294, "scriptSig": {"hex": "483045022100e0eb0c30d6bf2d65d9402952761383dc5e3366f44e001145ba80f7097352f1bb022005c326dc2d811512ba754be72d01033a02e494b164b11becc2dd012869b7a3290121024462a967e5eee132e5e98849378a0724d3f9b776fe523ce2fb704ff13a4c9210", "asm": "3045022100e0eb0c30d6bf2d65d9402952761383dc5e3366f44e001145ba80f7097352f1bb022005c326dc2d811512ba754be72d01033a02e494b164b11becc2dd012869b7a329[ALL] 024462a967e5eee132e5e98849378a0724d3f9b776fe523ce2fb704ff13a4c9210"}, "vout": 0, "txid": "1552bcb47e4d2c9e36128b49b26ce42c7f0aadc7d3ebe7526366cf937ad24b36"}], "txid": "da0bee8c8947061064e83a3fe7bb49e78b7de70b1f88f3e102bd0947992286db", "blocktime": 1537869901, "version": 1, "confirmations": 11524, "time": 1537869901, "locktime": 542987, "vsize": 226, "size": 226}