{"hash": "da0d56bd80f6931d646c5311632a91d987a4937f1ddd2f86f1d6d428a0d6d61a", "blockhash": "0000000000000000001cda96e906b7601b7a6fb1a3b62bca570a9e5d8f4b3de1", "vout": [{"scriptPubKey": {"reqSigs": 1, "hex": "a91469f37699288abf9db413316ae76d004fc43b1c3187", "addresses": ["3BMEXoyrU3b55TWYJgf6P8MfZbc3c1jiGV"], "asm": "OP_HASH160 69f37699288abf9db413316ae76d004fc43b1c31 OP_EQUAL", "type": "scripthash"}, "value": 0.0908584, "n": 0}], "hex": "01000000011170af1b41d85198b7a39e4ec0b935422d725ec2f6f66429e4c0ab950894668c010000006b483045022100920ff14b2a6e27e16a1e8e8324115f9bb35e51200cc65b1fafd846f907e086770220097481a2f4bd0d90d558452eb4b6df85dbead2825a406e64b08b4f996f0dc596012102808c191064da0e2844c15e839847b045452b329197747095e9099bbecdb0c100ffffffff0190a38a000000000017a91469f37699288abf9db413316ae76d004fc43b1c318700000000", "vin": [{"sequence": 4294967295, "scriptSig": {"hex": "483045022100920ff14b2a6e27e16a1e8e8324115f9bb35e51200cc65b1fafd846f907e086770220097481a2f4bd0d90d558452eb4b6df85dbead2825a406e64b08b4f996f0dc596012102808c191064da0e2844c15e839847b045452b329197747095e9099bbecdb0c100", "asm": "3045022100920ff14b2a6e27e16a1e8e8324115f9bb35e51200cc65b1fafd846f907e086770220097481a2f4bd0d90d558452eb4b6df85dbead2825a406e64b08b4f996f0dc596[ALL] 02808c191064da0e2844c15e839847b045452b329197747095e9099bbecdb0c100"}, "vout": 1, "txid": "8c66940895abc0e42964f6f6c25e722d4235b9c04e9ea3b79851d8411baf7011"}], "txid": "da0d56bd80f6931d646c5311632a91d987a4937f1ddd2f86f1d6d428a0d6d61a", "blocktime": 1537873282, "version": 1, "confirmations": 11481, "time": 1537873282, "locktime": 0, "vsize": 190, "size": 190}