{"hash": "01a9f733f37ea8c18b38167f8bbd67a2ee70069678ea2d92d3f7e7abb4379b61", "blockhash": "0000000000000000001e0dab787dd257d1dbfcb92a98c2207d5e1078be1f4165", "vout": [{"scriptPubKey": {"reqSigs": 1, "hex": "76a914d9087b9b7041c99920efcfead361ec8cdfde17ac88ac", "addresses": ["1LnZo2U6TzMViFGunTG9Av921t5pw2MWUo"], "asm": "OP_DUP OP_HASH160 d9087b9b7041c99920efcfead361ec8cdfde17ac OP_EQUALVERIFY OP_CHECKSIG", "type": "pubkeyhash"}, "value": 0.00301198, "n": 0}, {"scriptPubKey": {"reqSigs": 1, "hex": "a914412a5a9d44d5834123b7756088f409b7b3a36da687", "addresses": ["37daapNiiDgPEaARWMQCfhGXJo4yF1nTaW"], "asm": "OP_HASH160 412a5a9d44d5834123b7756088f409b7b3a36da6 OP_EQUAL", "type": "scripthash"}, "value": 0.01699883, "n": 1}], "hex": "010000000001014ed5ebf5dae83a291bd4f24993a97b3bf6b398ffb77fec8a161b2cd42bd98f23010000002322002083f5850b1b9ae687f7cf8d5c77fefcbd87cde420155cd43c20d50f5f293b7ed6ffffffff028e980400000000001976a914d9087b9b7041c99920efcfead361ec8cdfde17ac88ac2bf019000000000017a914412a5a9d44d5834123b7756088f409b7b3a36da687040047304402203b531269f7bfc651416fa2c20326236d8f3845689cf547dab45b0b526e3454db022066f6399f74454771481d152dd6497bbb1dee164ec28eddb86a21443b70de6d540147304402202e1950d70faffcb6e0e0b04f3998294dcb602ff804a69a222d1de1766b4a60a702202fc5bc9f51f02135ce4ba38faea235391e7eebd627fc6437fb5d6b79a5a742a501475221020511070566b8412d1941b8dc0ded10caa6a6915b609dfa65bb8111255071d3a22103871fc2ca08e6950b38867e8e6a0e94ee625223d3aa0df5c65f414c6d784467e252ae00000000", "vin": [{"txinwitness": ["", "304402203b531269f7bfc651416fa2c20326236d8f3845689cf547dab45b0b526e3454db022066f6399f74454771481d152dd6497bbb1dee164ec28eddb86a21443b70de6d5401", "304402202e1950d70faffcb6e0e0b04f3998294dcb602ff804a69a222d1de1766b4a60a702202fc5bc9f51f02135ce4ba38faea235391e7eebd627fc6437fb5d6b79a5a742a501", "5221020511070566b8412d1941b8dc0ded10caa6a6915b609dfa65bb8111255071d3a22103871fc2ca08e6950b38867e8e6a0e94ee625223d3aa0df5c65f414c6d784467e252ae"], "sequence": 4294967295, "scriptSig": {"hex": "22002083f5850b1b9ae687f7cf8d5c77fefcbd87cde420155cd43c20d50f5f293b7ed6", "asm": "002083f5850b1b9ae687f7cf8d5c77fefcbd87cde420155cd43c20d50f5f293b7ed6"}, "vout": 1, "txid": "238fd92bd42c1b168aec7fb7ff98b3f63b7ba99349f2d41b293ae8daf5ebd54e"}], "txid": "da1050885d9e07caacad1702ef8d9b224601232c41b6fe8c29171e290b13e926", "blocktime": 1537872475, "version": 1, "confirmations": 11487, "time": 1537872475, "locktime": 0, "vsize": 207, "size": 372}