{"hash": "da1697b0d4d79c2e37e8e9dcd671902ad215930bad184fa6eb9a3d5cd0c79c99", "blockhash": "0000000000000000001f0ddff1eddb255c1121bcd4da4f1bc9a0da00cae72433", "vout": [{"scriptPubKey": {"reqSigs": 1, "hex": "76a914f75c9b69641157f97b88c252d54681d497bedfac88ac", "addresses": ["1PYvqqQfF7xrigqvHKyUz7WLmxEC7ER83R"], "asm": "OP_DUP OP_HASH160 f75c9b69641157f97b88c252d54681d497bedfac OP_EQUALVERIFY OP_CHECKSIG", "type": "pubkeyhash"}, "value": 0.00127929, "n": 0}, {"scriptPubKey": {"reqSigs": 1, "hex": "76a91420ae9de0d1eb2d4e477e7b9d690a13e9090d156488ac", "addresses": ["13yooinSFxLsgcwA218CT4jzpR6VmbvVJ5"], "asm": "OP_DUP OP_HASH160 20ae9de0d1eb2d4e477e7b9d690a13e9090d1564 OP_EQUALVERIFY OP_CHECKSIG", "type": "pubkeyhash"}, "value": 6.49e-06, "n": 1}], "hex": "01000000017e5373087335ba576b5e0fa373620e884e2b7c5413502720a3a6c25b96aaa044010000006b4830450221009ce4c8bb4be8b2d30c05ea67a442d709093cdd3d46743f0d76599eb497bdff0c02202ff4f0e52bb8def9a9fef840b96d701397f8737ae30d0843a09103c222deeb500121030f7bb749ffa65939d959f2e48463bfaa93b7be1f166f17c03d2c1de8e79644caffffffff02b9f30100000000001976a914f75c9b69641157f97b88c252d54681d497bedfac88ac89020000000000001976a91420ae9de0d1eb2d4e477e7b9d690a13e9090d156488ac00000000", "vin": [{"sequence": 4294967295, "scriptSig": {"hex": "4830450221009ce4c8bb4be8b2d30c05ea67a442d709093cdd3d46743f0d76599eb497bdff0c02202ff4f0e52bb8def9a9fef840b96d701397f8737ae30d0843a09103c222deeb500121030f7bb749ffa65939d959f2e48463bfaa93b7be1f166f17c03d2c1de8e79644ca", "asm": "30450221009ce4c8bb4be8b2d30c05ea67a442d709093cdd3d46743f0d76599eb497bdff0c02202ff4f0e52bb8def9a9fef840b96d701397f8737ae30d0843a09103c222deeb50[ALL] 030f7bb749ffa65939d959f2e48463bfaa93b7be1f166f17c03d2c1de8e79644ca"}, "vout": 1, "txid": "44a0aa965bc2a6a320275013547c2b4e880e6273a30f5e6b57ba35730873537e"}], "txid": "da1697b0d4d79c2e37e8e9dcd671902ad215930bad184fa6eb9a3d5cd0c79c99", "blocktime": 1537872018, "version": 1, "confirmations": 11489, "time": 1537872018, "locktime": 0, "vsize": 226, "size": 226}