{"hash": "da1649638b9b77a82200da84643334fa8faea4fd8ffecc0850a2b693a2c881ce", "blockhash": "0000000000000000001cda96e906b7601b7a6fb1a3b62bca570a9e5d8f4b3de1", "vout": [{"scriptPubKey": {"reqSigs": 1, "hex": "76a914c49f0e4c76f38d3e149c678e077a9f9fe1c453e088ac", "addresses": ["1JvdyzcKxTDksaYcJGSPYSVzautRWYGUMP"], "asm": "OP_DUP OP_HASH160 c49f0e4c76f38d3e149c678e077a9f9fe1c453e0 OP_EQUALVERIFY OP_CHECKSIG", "type": "pubkeyhash"}, "value": 0.00266011, "n": 0}, {"scriptPubKey": {"reqSigs": 1, "hex": "76a9146c238950c3b1fc1e1d0ce0b95fa2669f7a9905a288ac", "addresses": ["1ArnYq6cC5hfRPFWitfUVCiE56SCsBPVgx"], "asm": "OP_DUP OP_HASH160 6c238950c3b1fc1e1d0ce0b95fa2669f7a9905a2 OP_EQUALVERIFY OP_CHECKSIG", "type": "pubkeyhash"}, "value": 0.01561404, "n": 1}], "hex": "010000000790125a50a9ae13f1b0ea90eb22196879fd5c386f3422bff53c7c8969a1133c1b000000006a47304402206e55b13739aeda6313424aa0ce948723b2eded0a57af1e917e89a889adcb9d6902204227005f0ce79245e8e1ac83675a43c6a7bc6dffbeed343dfec101cbe6cd6d88012102a14f368b7d0fcc3089320d7a2ed7ab94e3d4640b11f5af72877bbd4f780b9eeeffffffff4bec36062dbefaf182b0f32fb9c2ff6fec507e1bac82e8bc39370915f5a13c650c0000006b483045022100d4502d342ba2f0379eaa36ff2599598151715ef49555dbd6e8badd66faa3d427022046a1e123c587916f5ce8727ff241d6231602ab5e7606f3a0e1536a3ebf3d3257012102a14f368b7d0fcc3089320d7a2ed7ab94e3d4640b11f5af72877bbd4f780b9eeeffffffffc61f9d5eb3d03e9ba92a08c6b614f8e48be0d5ac7bb501250e3bd7de60789065000000006a47304402204cad8c6305ae2b1895282ae117532b542229c34154dde3e7ff94b0c976fa43a70220778433a945f420cb91b9fc52310cb9cd1df22a9a885c7f40ac07c8125f04443a012102a14f368b7d0fcc3089320d7a2ed7ab94e3d4640b11f5af72877bbd4f780b9eeeffffffff8cc2775d48f00ba49344f2efd16b04e9576d8208696ee384b2d8cb8c60fa74a1000000006a47304402203a954ccb9d286cca5b0c4f418a0a26eb7af64e9e8597b935b3527e48922666da02205f26a54f8faa5e15561cae974846d44d5661797b5b544ea6d49c5681dc8c3931012102a14f368b7d0fcc3089320d7a2ed7ab94e3d4640b11f5af72877bbd4f780b9eeeffffffffc6c01f8d827ccce9ecfa62261d93c083ad4e989350ae560dc8b1a9cb3a3c7fab0e0000006b4830450221008f43035b8616460e46ba652e10157e313b89e6ddc57aee8ad59b177f08e8be3a02201bc25ac03b1a679b5711cf89d4afef9ed1105f8aee4d40e4a552c28d0ebe5f09012102a14f368b7d0fcc3089320d7a2ed7ab94e3d4640b11f5af72877bbd4f780b9eeeffffffff84f6bd4ec9a2f3df9bc586f8ff334f1399a19741a61bd266840c7dd48f079dcf000000006b4830450221009243928c3d414530ee60ae10e74b6c621d69799f79fd8a3a59ecae729cb9bdc6022031ee83ca921d4824ec88fe9fb12e426160778e515c8122cdbc824cfeb7987576012102a14f368b7d0fcc3089320d7a2ed7ab94e3d4640b11f5af72877bbd4f780b9eeeffffffff0804ffcef10f90f2099fb66e9cf4cbfe0f6e810998417c378fbfb86627d1f9f6000000006b4830450221008fd48e2a0e9254749c9fdc67d1ae6dbac54cc450dfc0501224416cd727aa8d86022006ef62fdd4a8d88e745249dd7e479b577e4ceb8c032826a7f87a8f6c491c088a012102a14f368b7d0fcc3089320d7a2ed7ab94e3d4640b11f5af72877bbd4f780b9eeeffffffff021b0f0400000000001976a914c49f0e4c76f38d3e149c678e077a9f9fe1c453e088ac3cd31700000000001976a9146c238950c3b1fc1e1d0ce0b95fa2669f7a9905a288ac00000000", "vin": [{"sequence": 4294967295, "scriptSig": {"hex": "47304402206e55b13739aeda6313424aa0ce948723b2eded0a57af1e917e89a889adcb9d6902204227005f0ce79245e8e1ac83675a43c6a7bc6dffbeed343dfec101cbe6cd6d88012102a14f368b7d0fcc3089320d7a2ed7ab94e3d4640b11f5af72877bbd4f780b9eee", "asm": "304402206e55b13739aeda6313424aa0ce948723b2eded0a57af1e917e89a889adcb9d6902204227005f0ce79245e8e1ac83675a43c6a7bc6dffbeed343dfec101cbe6cd6d88[ALL] 02a14f368b7d0fcc3089320d7a2ed7ab94e3d4640b11f5af72877bbd4f780b9eee"}, "vout": 0, "txid": "1b3c13a169897c3cf5bf22346f385cfd79681922eb90eab0f113aea9505a1290"}, {"sequence": 4294967295, "scriptSig": {"hex": "483045022100d4502d342ba2f0379eaa36ff2599598151715ef49555dbd6e8badd66faa3d427022046a1e123c587916f5ce8727ff241d6231602ab5e7606f3a0e1536a3ebf3d3257012102a14f368b7d0fcc3089320d7a2ed7ab94e3d4640b11f5af72877bbd4f780b9eee", "asm": "3045022100d4502d342ba2f0379eaa36ff2599598151715ef49555dbd6e8badd66faa3d427022046a1e123c587916f5ce8727ff241d6231602ab5e7606f3a0e1536a3ebf3d3257[ALL] 02a14f368b7d0fcc3089320d7a2ed7ab94e3d4640b11f5af72877bbd4f780b9eee"}, "vout": 12, "txid": "653ca1f515093739bce882ac1b7e50ec6fffc2b92ff3b082f1fabe2d0636ec4b"}, {"sequence": 4294967295, "scriptSig": {"hex": "47304402204cad8c6305ae2b1895282ae117532b542229c34154dde3e7ff94b0c976fa43a70220778433a945f420cb91b9fc52310cb9cd1df22a9a885c7f40ac07c8125f04443a012102a14f368b7d0fcc3089320d7a2ed7ab94e3d4640b11f5af72877bbd4f780b9eee", "asm": "304402204cad8c6305ae2b1895282ae117532b542229c34154dde3e7ff94b0c976fa43a70220778433a945f420cb91b9fc52310cb9cd1df22a9a885c7f40ac07c8125f04443a[ALL] 02a14f368b7d0fcc3089320d7a2ed7ab94e3d4640b11f5af72877bbd4f780b9eee"}, "vout": 0, "txid": "65907860ded73b0e2501b57bacd5e08be4f814b6c6082aa99b3ed0b35e9d1fc6"}, {"sequence": 4294967295, "scriptSig": {"hex": "47304402203a954ccb9d286cca5b0c4f418a0a26eb7af64e9e8597b935b3527e48922666da02205f26a54f8faa5e15561cae974846d44d5661797b5b544ea6d49c5681dc8c3931012102a14f368b7d0fcc3089320d7a2ed7ab94e3d4640b11f5af72877bbd4f780b9eee", "asm": "304402203a954ccb9d286cca5b0c4f418a0a26eb7af64e9e8597b935b3527e48922666da02205f26a54f8faa5e15561cae974846d44d5661797b5b544ea6d49c5681dc8c3931[ALL] 02a14f368b7d0fcc3089320d7a2ed7ab94e3d4640b11f5af72877bbd4f780b9eee"}, "vout": 0, "txid": "a174fa608ccbd8b284e36e6908826d57e9046bd1eff24493a40bf0485d77c28c"}, {"sequence": 4294967295, "scriptSig": {"hex": "4830450221008f43035b8616460e46ba652e10157e313b89e6ddc57aee8ad59b177f08e8be3a02201bc25ac03b1a679b5711cf89d4afef9ed1105f8aee4d40e4a552c28d0ebe5f09012102a14f368b7d0fcc3089320d7a2ed7ab94e3d4640b11f5af72877bbd4f780b9eee", "asm": "30450221008f43035b8616460e46ba652e10157e313b89e6ddc57aee8ad59b177f08e8be3a02201bc25ac03b1a679b5711cf89d4afef9ed1105f8aee4d40e4a552c28d0ebe5f09[ALL] 02a14f368b7d0fcc3089320d7a2ed7ab94e3d4640b11f5af72877bbd4f780b9eee"}, "vout": 14, "txid": "ab7f3c3acba9b1c80d56ae5093984ead83c0931d2662faece9cc7c828d1fc0c6"}, {"sequence": 4294967295, "scriptSig": {"hex": "4830450221009243928c3d414530ee60ae10e74b6c621d69799f79fd8a3a59ecae729cb9bdc6022031ee83ca921d4824ec88fe9fb12e426160778e515c8122cdbc824cfeb7987576012102a14f368b7d0fcc3089320d7a2ed7ab94e3d4640b11f5af72877bbd4f780b9eee", "asm": "30450221009243928c3d414530ee60ae10e74b6c621d69799f79fd8a3a59ecae729cb9bdc6022031ee83ca921d4824ec88fe9fb12e426160778e515c8122cdbc824cfeb7987576[ALL] 02a14f368b7d0fcc3089320d7a2ed7ab94e3d4640b11f5af72877bbd4f780b9eee"}, "vout": 0, "txid": "cf9d078fd47d0c8466d21ba64197a199134f33fff886c59bdff3a2c94ebdf684"}, {"sequence": 4294967295, "scriptSig": {"hex": "4830450221008fd48e2a0e9254749c9fdc67d1ae6dbac54cc450dfc0501224416cd727aa8d86022006ef62fdd4a8d88e745249dd7e479b577e4ceb8c032826a7f87a8f6c491c088a012102a14f368b7d0fcc3089320d7a2ed7ab94e3d4640b11f5af72877bbd4f780b9eee", "asm": "30450221008fd48e2a0e9254749c9fdc67d1ae6dbac54cc450dfc0501224416cd727aa8d86022006ef62fdd4a8d88e745249dd7e479b577e4ceb8c032826a7f87a8f6c491c088a[ALL] 02a14f368b7d0fcc3089320d7a2ed7ab94e3d4640b11f5af72877bbd4f780b9eee"}, "vout": 0, "txid": "f6f9d12766b8bf8f377c419809816e0ffecbf49c6eb69f09f2900ff1ceff0408"}], "txid": "da1649638b9b77a82200da84643334fa8faea4fd8ffecc0850a2b693a2c881ce", "blocktime": 1537873282, "version": 1, "confirmations": 11482, "time": 1537873282, "locktime": 0, "vsize": 1111, "size": 1111}