{"hash": "da1620c339a48fac907eb6ba7b445b15209c8b6b836909a3d8ae5111da4f0a78", "blockhash": "0000000000000000000dcc0f55137456b1a82d3642486a52398922ac4d620174", "vout": [{"scriptPubKey": {"reqSigs": 1, "hex": "76a914b11a7ff4d231fd907aab16e9f168d3f3e855920588ac", "addresses": ["1H9SMCH14KnpNCSqVw8mj4R8tBLrMVUm14"], "asm": "OP_DUP OP_HASH160 b11a7ff4d231fd907aab16e9f168d3f3e8559205 OP_EQUALVERIFY OP_CHECKSIG", "type": "pubkeyhash"}, "value": 3.86, "n": 0}, {"scriptPubKey": {"reqSigs": 1, "hex": "76a914760169debf432a620a21ced464b3e6438de782d088ac", "addresses": ["1BkxRrPWjHddw4NbXo27NoD4ByXSwe9Qzu"], "asm": "OP_DUP OP_HASH160 760169debf432a620a21ced464b3e6438de782d0 OP_EQUALVERIFY OP_CHECKSIG", "type": "pubkeyhash"}, "value": 1.03996, "n": 1}], "hex": "010000000134febe2c68afc2c19bf237a65fca85f1950fb7d7515d777636cbd40333e5d499000000006a47304402204d95149736dbff3fcd6ea12ea2fc1705daae8eceed078bfcada032048a58430b02207fcb659c22073a7b8175f0fa207eab78f13b32a103baf4215c0908c9abcbf4c501210243049c0e9b1e2b3bbda4a7dc7db0fba1cff22da87f27fc9d9d324564cdf8117dffffffff0280e40117000000001976a914b11a7ff4d231fd907aab16e9f168d3f3e855920588ac60da3206000000001976a914760169debf432a620a21ced464b3e6438de782d088ac00000000", "vin": [{"sequence": 4294967295, "scriptSig": {"hex": "47304402204d95149736dbff3fcd6ea12ea2fc1705daae8eceed078bfcada032048a58430b02207fcb659c22073a7b8175f0fa207eab78f13b32a103baf4215c0908c9abcbf4c501210243049c0e9b1e2b3bbda4a7dc7db0fba1cff22da87f27fc9d9d324564cdf8117d", "asm": "304402204d95149736dbff3fcd6ea12ea2fc1705daae8eceed078bfcada032048a58430b02207fcb659c22073a7b8175f0fa207eab78f13b32a103baf4215c0908c9abcbf4c5[ALL] 0243049c0e9b1e2b3bbda4a7dc7db0fba1cff22da87f27fc9d9d324564cdf8117d"}, "vout": 0, "txid": "99d4e53303d4cb3676775d51d7b70f95f185ca5fa637f29bc1c2af682cbefe34"}], "txid": "da1620c339a48fac907eb6ba7b445b15209c8b6b836909a3d8ae5111da4f0a78", "blocktime": 1537870268, "version": 1, "confirmations": 11516, "time": 1537870268, "locktime": 0, "vsize": 225, "size": 225}