{"hash": "cfb6b1f8fb4d047873ad85b5e0596f1d5d5c3e82f7d97fc68ff624168337914f", "blockhash": "0000000000000000000e13cef7c366c0283d82e591d1acd082e914b08063cdf1", "vout": [{"scriptPubKey": {"reqSigs": 1, "hex": "76a914934c30c7a66d111c8c58bdd1871d549b843dc30f88ac", "addresses": ["1ERqc1e9k713hZfuh3UhY1TspHYFohnKCV"], "asm": "OP_DUP OP_HASH160 934c30c7a66d111c8c58bdd1871d549b843dc30f OP_EQUALVERIFY OP_CHECKSIG", "type": "pubkeyhash"}, "value": 0.00078, "n": 0}, {"scriptPubKey": {"reqSigs": 1, "hex": "a9141988a27e3c2df4ddee7fad5a2303d086179b2a3087", "addresses": ["3422VtS7UtCvXYxoXMVp6eZupR252z85oC"], "asm": "OP_HASH160 1988a27e3c2df4ddee7fad5a2303d086179b2a30 OP_EQUAL", "type": "scripthash"}, "value": 3.05026557, "n": 1}], "hex": "010000000001013d1502d44f9f6e562620bbfb967be52133d3df8ce3f9289101783d54a9f89713020000002322002065d416c48a8072e0ac51c2d111eb194f009caef0332446c1bf2097316cf07fa9ffffffff02b0300100000000001976a914934c30c7a66d111c8c58bdd1871d549b843dc30f88acfd552e120000000017a9141988a27e3c2df4ddee7fad5a2303d086179b2a30870400483045022100979958a49c9995f08b15d5a5c5099e9a24a38465fa4fd36ad25d5e11da634ea0022016cb476940b05ab4ccabc46215524afd53780f696bfdf007c6d2ca44fe94ca300147304402204049823a09014d88799c07d2f499c7a3739001e1eafc891cb72430171432c25402202b5db2013c19f010b73459152d26ea1019fc959c5d81aa60e844ef150a061c500169522102f44abcf9e23c9a460da309ccca56c619c04eed3bde2c2cff5e7d78fbcd980b9c2103c9443cf3047bb6c2c82f1b0c44c36109cdc3d0d601d16d1189a1602bf8d1a0a02103bfe867059274412412e088af5572b92168c2ef495cfe6c9b7a753a009eb37c4853ae00000000", "vin": [{"txinwitness": ["", "3045022100979958a49c9995f08b15d5a5c5099e9a24a38465fa4fd36ad25d5e11da634ea0022016cb476940b05ab4ccabc46215524afd53780f696bfdf007c6d2ca44fe94ca3001", "304402204049823a09014d88799c07d2f499c7a3739001e1eafc891cb72430171432c25402202b5db2013c19f010b73459152d26ea1019fc959c5d81aa60e844ef150a061c5001", "522102f44abcf9e23c9a460da309ccca56c619c04eed3bde2c2cff5e7d78fbcd980b9c2103c9443cf3047bb6c2c82f1b0c44c36109cdc3d0d601d16d1189a1602bf8d1a0a02103bfe867059274412412e088af5572b92168c2ef495cfe6c9b7a753a009eb37c4853ae"], "sequence": 4294967295, "scriptSig": {"hex": "22002065d416c48a8072e0ac51c2d111eb194f009caef0332446c1bf2097316cf07fa9", "asm": "002065d416c48a8072e0ac51c2d111eb194f009caef0332446c1bf2097316cf07fa9"}, "vout": 2, "txid": "1397f8a9543d78019128f9e38cdfd33321e57b96fbbb2026566e9f4fd402153d"}], "txid": "da1c13822c6ee1492d0e32d93416dd13e02995f2c66ded4a17dd948ef1183465", "blocktime": 1537871767, "version": 1, "confirmations": 11491, "time": 1537871767, "locktime": 0, "vsize": 216, "size": 407}