{"hash": "da1dc5026798925a3bdea3e7b4c11cac0e22b2cc53b6d4ff438ac7a9b384a8e2", "blockhash": "0000000000000000001f76057863aec43deb6fa401d9628bb513d65a8098bfab", "vout": [{"scriptPubKey": {"reqSigs": 1, "hex": "76a91478eed28ddeb38c3885e20a44702d19c3da08e26888ac", "addresses": ["1C2SBhPH4JtkuR6Wzzqszh3gKigrMfybJF"], "asm": "OP_DUP OP_HASH160 78eed28ddeb38c3885e20a44702d19c3da08e268 OP_EQUALVERIFY OP_CHECKSIG", "type": "pubkeyhash"}, "value": 0.0001724, "n": 0}, {"scriptPubKey": {"reqSigs": 1, "hex": "a9146fdf13ac00d2b347d095aa5949855120a99afaca87", "addresses": ["3BtYAVEynDCxBEDjxUsCSS4LMUoL2Mqprk"], "asm": "OP_HASH160 6fdf13ac00d2b347d095aa5949855120a99afaca OP_EQUAL", "type": "scripthash"}, "value": 0.00780398, "n": 1}], "hex": "0100000008ad0525937514d9a9c5b07d58cdfe2f3be978be78122be23fd8a9a105671d1575160000006b483045022100990f0782ec7a81369c85839779090fbf4534875051201fc01c8da891bbb2034302200cdd06c3f147f353ee45d753eb453e50b241b8b1d578d98e0a97523fc7648860012102d598a3d63f4adcaaef6a8888c72f81efac542da7b24524668e9b4bbe5217c557ffffffffad0525937514d9a9c5b07d58cdfe2f3be978be78122be23fd8a9a105671d1575180000006b483045022100a6181a8d156cc488888200e430aea07580692b18bba488890c97b7a7b3d26787022061117d8e59c4e35f23d14548065989a7322340044a252885bca281f196080537012102cc4a36fd279c7d0757ee3b4dd94bc6d3fc4b1d01d439a5e56396c16e6f38b3eeffffffffad0525937514d9a9c5b07d58cdfe2f3be978be78122be23fd8a9a105671d15751c0000006b483045022100dc2026e51cf91176fd6b75a261683fe11ef43fdd7e5f9c8bf1d2130e134cdc97022014252b66368679c84afe5a4a6e4d74a477666a350b14bb78383f3582fd10574701210311701542f62337679221c7cd569157b80981a11bcfbc2ab6998a0c671d5093f2ffffffffad0525937514d9a9c5b07d58cdfe2f3be978be78122be23fd8a9a105671d15751f0000006a473044022040193046541ec44b70981cf58068e05e0e16fa71b59349ed544b49f25d11c65d0220638ffbdd90764ccdb6fc319dd33f62af9f4fa7c57d8efe26dee3da412331fcf90121033ed864b0d08fbda4006cdfe537697378904b1410d2dd56f57761c8ac26c3a904ffffffffad0525937514d9a9c5b07d58cdfe2f3be978be78122be23fd8a9a105671d1575200000006b483045022100acae94bbcdb69c7d4391fa85d29b621df691ad7c4a8bd6d574ed3d7260b5df930220260f8dc70c6ff91ff1d2536fde2bb5db270376ee41ea32def3a518cf7a247195012102be71d9da225ceaed7546c4dfc504bee2c4a20c351127ce0f31b166c4df2d5f94ffffffffad0525937514d9a9c5b07d58cdfe2f3be978be78122be23fd8a9a105671d1575220000006a473044022062b6347c1b106144e1b170d7d67979b79d6b1e9339e088cff4404c01afcc103f02204f9faf01de6e432c726a0194aeb5aedfd14a44d8da15e7143c97aaa9ad038d100121028172ca7e702a7b8ac7dd44548bb14fa63eec0c6db5d507b4a407e519ff46a7bfffffffffad0525937514d9a9c5b07d58cdfe2f3be978be78122be23fd8a9a105671d1575250000006a47304402204bc103584d5134d1cb8f2bcfe5a76a8aabbea3b0db48613df6014e17e9bd510102203c9c4024c8fe98031c90c2fabfd8227426ebfe3b3ae239d0217bc5c718b269150121029d8590d96f5ad7150a44e2277a33a5da947e55e6506991b246e3b05e9767dcbfffffffffad0525937514d9a9c5b07d58cdfe2f3be978be78122be23fd8a9a105671d1575280000006b483045022100fdf8e783efa622c34383db8d56f52199559b33eec320eb3a50577660e2bbb1d0022037543a28b2e2f764996aef12893902655d03605d042e7334e4c37f9afc3efa2a01210281b6ec71abea05c8a596695f1e23588911e9b3c6b7c7ef48a1a2e0d641600f88ffffffff0258430000000000001976a91478eed28ddeb38c3885e20a44702d19c3da08e26888ac6ee80b000000000017a9146fdf13ac00d2b347d095aa5949855120a99afaca8700000000", "vin": [{"sequence": 4294967295, "scriptSig": {"hex": "483045022100990f0782ec7a81369c85839779090fbf4534875051201fc01c8da891bbb2034302200cdd06c3f147f353ee45d753eb453e50b241b8b1d578d98e0a97523fc7648860012102d598a3d63f4adcaaef6a8888c72f81efac542da7b24524668e9b4bbe5217c557", "asm": "3045022100990f0782ec7a81369c85839779090fbf4534875051201fc01c8da891bbb2034302200cdd06c3f147f353ee45d753eb453e50b241b8b1d578d98e0a97523fc7648860[ALL] 02d598a3d63f4adcaaef6a8888c72f81efac542da7b24524668e9b4bbe5217c557"}, "vout": 22, "txid": "75151d6705a1a9d83fe22b1278be78e93b2ffecd587db0c5a9d91475932505ad"}, {"sequence": 4294967295, "scriptSig": {"hex": "483045022100a6181a8d156cc488888200e430aea07580692b18bba488890c97b7a7b3d26787022061117d8e59c4e35f23d14548065989a7322340044a252885bca281f196080537012102cc4a36fd279c7d0757ee3b4dd94bc6d3fc4b1d01d439a5e56396c16e6f38b3ee", "asm": "3045022100a6181a8d156cc488888200e430aea07580692b18bba488890c97b7a7b3d26787022061117d8e59c4e35f23d14548065989a7322340044a252885bca281f196080537[ALL] 02cc4a36fd279c7d0757ee3b4dd94bc6d3fc4b1d01d439a5e56396c16e6f38b3ee"}, "vout": 24, "txid": "75151d6705a1a9d83fe22b1278be78e93b2ffecd587db0c5a9d91475932505ad"}, {"sequence": 4294967295, "scriptSig": {"hex": "483045022100dc2026e51cf91176fd6b75a261683fe11ef43fdd7e5f9c8bf1d2130e134cdc97022014252b66368679c84afe5a4a6e4d74a477666a350b14bb78383f3582fd10574701210311701542f62337679221c7cd569157b80981a11bcfbc2ab6998a0c671d5093f2", "asm": "3045022100dc2026e51cf91176fd6b75a261683fe11ef43fdd7e5f9c8bf1d2130e134cdc97022014252b66368679c84afe5a4a6e4d74a477666a350b14bb78383f3582fd105747[ALL] 0311701542f62337679221c7cd569157b80981a11bcfbc2ab6998a0c671d5093f2"}, "vout": 28, "txid": "75151d6705a1a9d83fe22b1278be78e93b2ffecd587db0c5a9d91475932505ad"}, {"sequence": 4294967295, "scriptSig": {"hex": "473044022040193046541ec44b70981cf58068e05e0e16fa71b59349ed544b49f25d11c65d0220638ffbdd90764ccdb6fc319dd33f62af9f4fa7c57d8efe26dee3da412331fcf90121033ed864b0d08fbda4006cdfe537697378904b1410d2dd56f57761c8ac26c3a904", "asm": "3044022040193046541ec44b70981cf58068e05e0e16fa71b59349ed544b49f25d11c65d0220638ffbdd90764ccdb6fc319dd33f62af9f4fa7c57d8efe26dee3da412331fcf9[ALL] 033ed864b0d08fbda4006cdfe537697378904b1410d2dd56f57761c8ac26c3a904"}, "vout": 31, "txid": "75151d6705a1a9d83fe22b1278be78e93b2ffecd587db0c5a9d91475932505ad"}, {"sequence": 4294967295, "scriptSig": {"hex": "483045022100acae94bbcdb69c7d4391fa85d29b621df691ad7c4a8bd6d574ed3d7260b5df930220260f8dc70c6ff91ff1d2536fde2bb5db270376ee41ea32def3a518cf7a247195012102be71d9da225ceaed7546c4dfc504bee2c4a20c351127ce0f31b166c4df2d5f94", "asm": "3045022100acae94bbcdb69c7d4391fa85d29b621df691ad7c4a8bd6d574ed3d7260b5df930220260f8dc70c6ff91ff1d2536fde2bb5db270376ee41ea32def3a518cf7a247195[ALL] 02be71d9da225ceaed7546c4dfc504bee2c4a20c351127ce0f31b166c4df2d5f94"}, "vout": 32, "txid": "75151d6705a1a9d83fe22b1278be78e93b2ffecd587db0c5a9d91475932505ad"}, {"sequence": 4294967295, "scriptSig": {"hex": "473044022062b6347c1b106144e1b170d7d67979b79d6b1e9339e088cff4404c01afcc103f02204f9faf01de6e432c726a0194aeb5aedfd14a44d8da15e7143c97aaa9ad038d100121028172ca7e702a7b8ac7dd44548bb14fa63eec0c6db5d507b4a407e519ff46a7bf", "asm": "3044022062b6347c1b106144e1b170d7d67979b79d6b1e9339e088cff4404c01afcc103f02204f9faf01de6e432c726a0194aeb5aedfd14a44d8da15e7143c97aaa9ad038d10[ALL] 028172ca7e702a7b8ac7dd44548bb14fa63eec0c6db5d507b4a407e519ff46a7bf"}, "vout": 34, "txid": "75151d6705a1a9d83fe22b1278be78e93b2ffecd587db0c5a9d91475932505ad"}, {"sequence": 4294967295, "scriptSig": {"hex": "47304402204bc103584d5134d1cb8f2bcfe5a76a8aabbea3b0db48613df6014e17e9bd510102203c9c4024c8fe98031c90c2fabfd8227426ebfe3b3ae239d0217bc5c718b269150121029d8590d96f5ad7150a44e2277a33a5da947e55e6506991b246e3b05e9767dcbf", "asm": "304402204bc103584d5134d1cb8f2bcfe5a76a8aabbea3b0db48613df6014e17e9bd510102203c9c4024c8fe98031c90c2fabfd8227426ebfe3b3ae239d0217bc5c718b26915[ALL] 029d8590d96f5ad7150a44e2277a33a5da947e55e6506991b246e3b05e9767dcbf"}, "vout": 37, "txid": "75151d6705a1a9d83fe22b1278be78e93b2ffecd587db0c5a9d91475932505ad"}, {"sequence": 4294967295, "scriptSig": {"hex": "483045022100fdf8e783efa622c34383db8d56f52199559b33eec320eb3a50577660e2bbb1d0022037543a28b2e2f764996aef12893902655d03605d042e7334e4c37f9afc3efa2a01210281b6ec71abea05c8a596695f1e23588911e9b3c6b7c7ef48a1a2e0d641600f88", "asm": "3045022100fdf8e783efa622c34383db8d56f52199559b33eec320eb3a50577660e2bbb1d0022037543a28b2e2f764996aef12893902655d03605d042e7334e4c37f9afc3efa2a[ALL] 0281b6ec71abea05c8a596695f1e23588911e9b3c6b7c7ef48a1a2e0d641600f88"}, "vout": 40, "txid": "75151d6705a1a9d83fe22b1278be78e93b2ffecd587db0c5a9d91475932505ad"}], "txid": "da1dc5026798925a3bdea3e7b4c11cac0e22b2cc53b6d4ff438ac7a9b384a8e2", "blocktime": 1537873891, "version": 1, "confirmations": 11478, "time": 1537873891, "locktime": 0, "vsize": 1257, "size": 1257}