{"hash": "6fc0c7fbd8b9e9a72b3f52149f84ecd7da4dd20cb191f173943a6cb7976c6c49", "blockhash": "0000000000000000000e13cef7c366c0283d82e591d1acd082e914b08063cdf1", "vout": [{"scriptPubKey": {"reqSigs": 1, "hex": "76a9140ed43539553bf5150098cf31237a62292cc015c388ac", "addresses": ["12MQg9fgErSjino6brFePm8867uo7tpc9h"], "asm": "OP_DUP OP_HASH160 0ed43539553bf5150098cf31237a62292cc015c3 OP_EQUALVERIFY OP_CHECKSIG", "type": "pubkeyhash"}, "value": 0.0213369, "n": 0}, {"scriptPubKey": {"reqSigs": 1, "hex": "a9140189c83947c95eaaf2430480b81438843c3f2b0487", "addresses": ["31q9f1GPoSUfFy6n54KzzKmWCWRZkNAXqR"], "asm": "OP_HASH160 0189c83947c95eaaf2430480b81438843c3f2b04 OP_EQUAL", "type": "scripthash"}, "value": 0.28032889, "n": 1}], "hex": "02000000000101a90d67ed737e7ddd1f30a040b5cdc38056e97dca0be2c1fa4957ee3c28b3acb902000000171600149a81a1c29c81ce5a915a347c53734c0b335b3deffeffffff02ba8e2000000000001976a9140ed43539553bf5150098cf31237a62292cc015c388ac79bfab010000000017a9140189c83947c95eaaf2430480b81438843c3f2b04870247304402206ab923298e8a6f2430e2070d2943066dfeccd7080f8edb7c96d0bc33036b93e90220287253e7753734cf340078045aa633047ec32c3c426afe49ee35ae8cc1cb2a700121031689aa8dc9f7f043e859737e563a86e1ba97a4137d7a19af5e3aa7b2e33c21c90f490800", "vin": [{"txinwitness": ["304402206ab923298e8a6f2430e2070d2943066dfeccd7080f8edb7c96d0bc33036b93e90220287253e7753734cf340078045aa633047ec32c3c426afe49ee35ae8cc1cb2a7001", "031689aa8dc9f7f043e859737e563a86e1ba97a4137d7a19af5e3aa7b2e33c21c9"], "sequence": 4294967294, "scriptSig": {"hex": "1600149a81a1c29c81ce5a915a347c53734c0b335b3def", "asm": "00149a81a1c29c81ce5a915a347c53734c0b335b3def"}, "vout": 2, "txid": "b9acb3283cee5749fac1e20bca7de95680c3cdb540a0301fdd7d7e73ed670da9"}], "txid": "da1ea7449d8ed542559daf6d89be68633e088199d5ac4859cd6e8bc2ab7ca6ac", "blocktime": 1537871767, "version": 2, "confirmations": 11495, "time": 1537871767, "locktime": 542991, "vsize": 168, "size": 249}