{"hash": "e888c756c3aacfb9bac96d3e456a17a3fb4b33edca74d9289c590f2351cfa874", "blockhash": "00000000000000000017f5eb5941039fbcee6240d03bc1f2f8e35350df66a1d8", "vout": [{"scriptPubKey": {"reqSigs": 1, "hex": "001406599100e90d52e9c0af7d5f12b9a7001f5e3c8f", "addresses": ["bc1qqevezq8fp4fwns9004039wd8qq04u0y064yvlc"], "asm": "0 06599100e90d52e9c0af7d5f12b9a7001f5e3c8f", "type": "witness_v0_keyhash"}, "value": 0.00014471, "n": 0}, {"scriptPubKey": {"reqSigs": 1, "hex": "76a914e41440fcd512c6c0089e91b5fa8d439a0e3c62de88ac", "addresses": ["1MnyL11BehhXq7LCpiMBoFV8tm8PcPxTpQ"], "asm": "OP_DUP OP_HASH160 e41440fcd512c6c0089e91b5fa8d439a0e3c62de OP_EQUALVERIFY OP_CHECKSIG", "type": "pubkeyhash"}, "value": 0.00156, "n": 1}], "hex": "01000000000101c0219b08461fe6e52f7134e88e5113497454c7590880868ae9fd841c225a9cf40d00000017160014eabc6aac09ccfc20701f99f09807fd4d15f2b06effffffff02873800000000000016001406599100e90d52e9c0af7d5f12b9a7001f5e3c8f60610200000000001976a914e41440fcd512c6c0089e91b5fa8d439a0e3c62de88ac024730440220213b7bcf7f443829572b524167854a3d40ce0d63e5f8fa883e6d19e7492af356022014bd88cd03d7b13fbf027029ca7bc5b63494c3212bf05bff655eccc56dcc89350121032f06b46440f2085df5189398bbb51a922595f1f0d27ed1e61df9f98a3777a8ae00000000", "vin": [{"txinwitness": ["30440220213b7bcf7f443829572b524167854a3d40ce0d63e5f8fa883e6d19e7492af356022014bd88cd03d7b13fbf027029ca7bc5b63494c3212bf05bff655eccc56dcc893501", "032f06b46440f2085df5189398bbb51a922595f1f0d27ed1e61df9f98a3777a8ae"], "sequence": 4294967295, "scriptSig": {"hex": "160014eabc6aac09ccfc20701f99f09807fd4d15f2b06e", "asm": "0014eabc6aac09ccfc20701f99f09807fd4d15f2b06e"}, "vout": 13, "txid": "f49c5a221c84fde98a86800859c754744913518ee834712fe5e61f46089b21c0"}], "txid": "da22ae741a6b68991cb650f56ad8404fe684930d8816c4ada16b35310bdd45ad", "blocktime": 1537874412, "version": 1, "confirmations": 11468, "time": 1537874412, "locktime": 0, "vsize": 167, "size": 248}