{"hash": "a3bd67ca017ee0b8dc7d9393950d4e62cfb3263a77637ea0046b8b37855fa15d", "blockhash": "0000000000000000000e13cef7c366c0283d82e591d1acd082e914b08063cdf1", "vout": [{"scriptPubKey": {"reqSigs": 1, "hex": "a91454b1afbc93b97c4f8bde2dac0f3a00ebfd815ee387", "addresses": ["39QqYXh4RrEUCkq9Z7PUeyZRXsUK9EcXq6"], "asm": "OP_HASH160 54b1afbc93b97c4f8bde2dac0f3a00ebfd815ee3 OP_EQUAL", "type": "scripthash"}, "value": 0.00312671, "n": 0}, {"scriptPubKey": {"reqSigs": 1, "hex": "76a91410af4f04510c9376abe4b9cb90659bf0eb9c1a0688ac", "addresses": ["12XDpjFfjGdcecM6fXMt6YVUJEiDD19o9y"], "asm": "OP_DUP OP_HASH160 10af4f04510c9376abe4b9cb90659bf0eb9c1a06 OP_EQUALVERIFY OP_CHECKSIG", "type": "pubkeyhash"}, "value": 0.47632457, "n": 1}], "hex": "02000000000101106ff4ac65acc5284aa4c732d463d4827dd4ff17a78beed38220afb8283d1d9d0000000017160014e1c3976d8a80abf709d47ed48bc796082f804520feffffff025fc504000000000017a91454b1afbc93b97c4f8bde2dac0f3a00ebfd815ee38749d0d602000000001976a91410af4f04510c9376abe4b9cb90659bf0eb9c1a0688ac02473044022065dacf6919261696415348f3264559a9e0e1721cf47c280cca83a6725c1f11e502203ad22f038da21599cd7cf6eb331ed29b163c8c3a346f8fe61d453781599e3a6e01210374ac4d1bae7b4fb12605bfb1b5e40eccd0e1e3f7ddf3357112aea9f823a88db310490800", "vin": [{"txinwitness": ["3044022065dacf6919261696415348f3264559a9e0e1721cf47c280cca83a6725c1f11e502203ad22f038da21599cd7cf6eb331ed29b163c8c3a346f8fe61d453781599e3a6e01", "0374ac4d1bae7b4fb12605bfb1b5e40eccd0e1e3f7ddf3357112aea9f823a88db3"], "sequence": 4294967294, "scriptSig": {"hex": "160014e1c3976d8a80abf709d47ed48bc796082f804520", "asm": "0014e1c3976d8a80abf709d47ed48bc796082f804520"}, "vout": 0, "txid": "9d1d3d28b8af2082d3ee8ba717ffd47d82d463d432c7a44a28c5ac65acf46f10"}], "txid": "da276d5257e5646e09264bb74412b700ac7cbc63655354208dce8b04a0a1019b", "blocktime": 1537871767, "version": 2, "confirmations": 11490, "time": 1537871767, "locktime": 542992, "vsize": 168, "size": 249}