{"hash": "da2a61ccb57089b854e8d1c4b4abf887077205939329795839d561140342b5e3", "blockhash": "0000000000000000001cda96e906b7601b7a6fb1a3b62bca570a9e5d8f4b3de1", "vout": [{"scriptPubKey": {"reqSigs": 1, "hex": "76a9145434e9f3e8a31e56061fa482d931bf3d53c1c8ab88ac", "addresses": ["18gF9doJJvUXeiVtBNuYgsDU2gHDxuwh3V"], "asm": "OP_DUP OP_HASH160 5434e9f3e8a31e56061fa482d931bf3d53c1c8ab OP_EQUALVERIFY OP_CHECKSIG", "type": "pubkeyhash"}, "value": 0.22124248, "n": 0}, {"scriptPubKey": {"reqSigs": 1, "hex": "76a9142a5e9cb42abd8a3f1f51d7a20c5dd6a5627f12e988ac", "addresses": ["14s2iphvBV6ZGuvXUtNPcJX1xSYZzwgUeu"], "asm": "OP_DUP OP_HASH160 2a5e9cb42abd8a3f1f51d7a20c5dd6a5627f12e9 OP_EQUALVERIFY OP_CHECKSIG", "type": "pubkeyhash"}, "value": 0.024, "n": 1}], "hex": "02000000018f8538af08ce257211ecd45b3086a42fc28dbdf446932e5a9590168c2cc8f1ee000000006b483045022100ccdb4ece7076df7ee5501dc50ee2812a824ea1c0480f509e65069b6b65c3b09402200d3136b90c39e7467141a7d26d2c9f834a1a504cc6e247eddccd8b159e49563f012103f93aaec5e003b60b661c0558d370243a02fbec09c8c728e3e5eb5302191da7e7feffffff02d8965101000000001976a9145434e9f3e8a31e56061fa482d931bf3d53c1c8ab88ac009f2400000000001976a9142a5e9cb42abd8a3f1f51d7a20c5dd6a5627f12e988ac0b490800", "vin": [{"sequence": 4294967294, "scriptSig": {"hex": "483045022100ccdb4ece7076df7ee5501dc50ee2812a824ea1c0480f509e65069b6b65c3b09402200d3136b90c39e7467141a7d26d2c9f834a1a504cc6e247eddccd8b159e49563f012103f93aaec5e003b60b661c0558d370243a02fbec09c8c728e3e5eb5302191da7e7", "asm": "3045022100ccdb4ece7076df7ee5501dc50ee2812a824ea1c0480f509e65069b6b65c3b09402200d3136b90c39e7467141a7d26d2c9f834a1a504cc6e247eddccd8b159e49563f[ALL] 03f93aaec5e003b60b661c0558d370243a02fbec09c8c728e3e5eb5302191da7e7"}, "vout": 0, "txid": "eef1c82c8c1690955a2e9346f4bd8dc22fa486305bd4ec117225ce08af38858f"}], "txid": "da2a61ccb57089b854e8d1c4b4abf887077205939329795839d561140342b5e3", "blocktime": 1537873282, "version": 2, "confirmations": 11480, "time": 1537873282, "locktime": 542987, "vsize": 226, "size": 226}