{"hash": "da2eca2b13bd84524a37077f5d914e3769a372146b5e1d0feb6e3ca6794c43ab", "blockhash": "000000000000000000022b45ed06c6f4ccd3cf7fb5ba4856ebd2e58215665228", "vout": [{"scriptPubKey": {"reqSigs": 1, "hex": "76a9143e602affb580284671e6a67196c2c44935476ef888ac", "addresses": ["16gp6m8HioEH6PSCBfEbXG1R5WCc41nHW3"], "asm": "OP_DUP OP_HASH160 3e602affb580284671e6a67196c2c44935476ef8 OP_EQUALVERIFY OP_CHECKSIG", "type": "pubkeyhash"}, "value": 0.01358322, "n": 0}], "hex": "010000000167eb811e192b38084369c7200a7b3f6b09a37b3dd258eaed4972724b52f45fb7000000006a473044022021b883fbdc80d3b749280927624738bf80e0f826d3deacf18fe0f26117a264ba02204abe3be2a010370ff9d24034e3bfc92166e725be692149586d399ec50e2c822f0121026c43a5e7861ca5962eec0b9be149f7a26d1844f78577ed79fb405f4a04e93ff8ffffffff01f2b91400000000001976a9143e602affb580284671e6a67196c2c44935476ef888ac00000000", "vin": [{"sequence": 4294967295, "scriptSig": {"hex": "473044022021b883fbdc80d3b749280927624738bf80e0f826d3deacf18fe0f26117a264ba02204abe3be2a010370ff9d24034e3bfc92166e725be692149586d399ec50e2c822f0121026c43a5e7861ca5962eec0b9be149f7a26d1844f78577ed79fb405f4a04e93ff8", "asm": "3044022021b883fbdc80d3b749280927624738bf80e0f826d3deacf18fe0f26117a264ba02204abe3be2a010370ff9d24034e3bfc92166e725be692149586d399ec50e2c822f[ALL] 026c43a5e7861ca5962eec0b9be149f7a26d1844f78577ed79fb405f4a04e93ff8"}, "vout": 0, "txid": "b75ff4524b727249edea58d23d7ba3096b3f7b0a20c7694308382b191e81eb67"}], "txid": "da2eca2b13bd84524a37077f5d914e3769a372146b5e1d0feb6e3ca6794c43ab", "blocktime": 1537869901, "version": 1, "confirmations": 11523, "time": 1537869901, "locktime": 0, "vsize": 191, "size": 191}