{"hash": "da3dd7efbdbd296378709ce8e5a80d5db44347a3b4cd9ca91132315df37f59d9", "blockhash": "0000000000000000000dcc0f55137456b1a82d3642486a52398922ac4d620174", "vout": [{"scriptPubKey": {"reqSigs": 1, "hex": "76a914eff4692b09f9dc7e119d8fbb89f697e141acda0188ac", "addresses": ["1NsmHoth5jfYDQzKfjPXtBr2t7McPotSgm"], "asm": "OP_DUP OP_HASH160 eff4692b09f9dc7e119d8fbb89f697e141acda01 OP_EQUALVERIFY OP_CHECKSIG", "type": "pubkeyhash"}, "value": 0.0036633, "n": 0}, {"scriptPubKey": {"reqSigs": 1, "hex": "76a914e5d6ba9bed8e72e7b21e3bdc11fdc72a72c833c388ac", "addresses": ["1MxGyZLmGUzTDNke1yX4vs2odQt5C5WNdJ"], "asm": "OP_DUP OP_HASH160 e5d6ba9bed8e72e7b21e3bdc11fdc72a72c833c3 OP_EQUALVERIFY OP_CHECKSIG", "type": "pubkeyhash"}, "value": 0.002676, "n": 1}], "hex": "01000000013269a0f9e0096765728ae7e748350daf0b8c567e71853c12e98d846a6c4ad6d0000000006b483045022100eee25accd8f0d81a815b97b318ac95f8cef643c791c058b1064f042667feb6be022075f8466c66c44d1c77156cab43486d205c073765ebfc1a510e52afcd425989be012102af65a1ce3d4278c605f87d73d51af4facd05abfcb107ef6b0a3f20e059c0acffffffffff02fa960500000000001976a914eff4692b09f9dc7e119d8fbb89f697e141acda0188ac50150400000000001976a914e5d6ba9bed8e72e7b21e3bdc11fdc72a72c833c388ac00000000", "vin": [{"sequence": 4294967295, "scriptSig": {"hex": "483045022100eee25accd8f0d81a815b97b318ac95f8cef643c791c058b1064f042667feb6be022075f8466c66c44d1c77156cab43486d205c073765ebfc1a510e52afcd425989be012102af65a1ce3d4278c605f87d73d51af4facd05abfcb107ef6b0a3f20e059c0acff", "asm": "3045022100eee25accd8f0d81a815b97b318ac95f8cef643c791c058b1064f042667feb6be022075f8466c66c44d1c77156cab43486d205c073765ebfc1a510e52afcd425989be[ALL] 02af65a1ce3d4278c605f87d73d51af4facd05abfcb107ef6b0a3f20e059c0acff"}, "vout": 0, "txid": "d0d64a6c6a848de9123c85717e568c0baf0d3548e7e78a72656709e0f9a06932"}], "txid": "da3dd7efbdbd296378709ce8e5a80d5db44347a3b4cd9ca91132315df37f59d9", "blocktime": 1537870268, "version": 1, "confirmations": 11518, "time": 1537870268, "locktime": 0, "vsize": 226, "size": 226}