{"hash": "da3eed3aaefcac8b3a6c7b406b5b5c30835a71319c4122b111806277eff07c62", "blockhash": "00000000000000000024a2167bbff67b0be802c0b01cdd79e6331c2be6459f87", "vout": [{"scriptPubKey": {"reqSigs": 1, "hex": "a914a4aac7ac66da57e4acc2615c1b2ea07a0b03a4fc87", "addresses": ["3GhhL1DguL5NaCu4xaEuUTQwUCKrpRKiUA"], "asm": "OP_HASH160 a4aac7ac66da57e4acc2615c1b2ea07a0b03a4fc OP_EQUAL", "type": "scripthash"}, "value": 0.0068, "n": 0}, {"scriptPubKey": {"reqSigs": 1, "hex": "76a91487c5ab7fa35e4cccd526d52e64e522cde40adddf88ac", "addresses": ["1DNu2F8ikrEfRDKLoUpcVTNp7tVZYxEDAr"], "asm": "OP_DUP OP_HASH160 87c5ab7fa35e4cccd526d52e64e522cde40adddf OP_EQUALVERIFY OP_CHECKSIG", "type": "pubkeyhash"}, "value": 0.0886544, "n": 1}], "hex": "01000000017bb4f9efa093950ff4b933f40f74302357fcdf97d9899176c857612ac8eb7acc010000006a47304402200c27cfb121ee65bf4ad8bbe2d8e06473c590428d9d067e6d65c94f0f08595530022012b62567abf8ad853a5eb865c0854e4edc35ab76fb96d2d8c595038c915f395b0121028c689329a653d19ceb01350417714912c06c1c1624086b42ddd20e222ad31f6effffffff0240600a000000000017a914a4aac7ac66da57e4acc2615c1b2ea07a0b03a4fc87a0468700000000001976a91487c5ab7fa35e4cccd526d52e64e522cde40adddf88ac00000000", "vin": [{"sequence": 4294967295, "scriptSig": {"hex": "47304402200c27cfb121ee65bf4ad8bbe2d8e06473c590428d9d067e6d65c94f0f08595530022012b62567abf8ad853a5eb865c0854e4edc35ab76fb96d2d8c595038c915f395b0121028c689329a653d19ceb01350417714912c06c1c1624086b42ddd20e222ad31f6e", "asm": "304402200c27cfb121ee65bf4ad8bbe2d8e06473c590428d9d067e6d65c94f0f08595530022012b62567abf8ad853a5eb865c0854e4edc35ab76fb96d2d8c595038c915f395b[ALL] 028c689329a653d19ceb01350417714912c06c1c1624086b42ddd20e222ad31f6e"}, "vout": 1, "txid": "cc7aebc82a6157c8769189d997dffc572330740ff433b9f40f9593a0eff9b47b"}], "txid": "da3eed3aaefcac8b3a6c7b406b5b5c30835a71319c4122b111806277eff07c62", "blocktime": 1537870564, "version": 1, "confirmations": 11515, "time": 1537870564, "locktime": 0, "vsize": 223, "size": 223}