{"hash": "da437edb4663e7548207ecc40047e8bcf0a3139813477dbeb19b2d3546a8e08a", "blockhash": "0000000000000000001f76057863aec43deb6fa401d9628bb513d65a8098bfab", "vout": [{"scriptPubKey": {"reqSigs": 1, "hex": "a914267c591e04b438bc1b3d06a00cf55b829d0e0c2187", "addresses": ["35CWZh5KuTtaYoxoPEypUXp7bcD4b8n8EB"], "asm": "OP_HASH160 267c591e04b438bc1b3d06a00cf55b829d0e0c21 OP_EQUAL", "type": "scripthash"}, "value": 0.00512, "n": 0}, {"scriptPubKey": {"reqSigs": 1, "hex": "a914bd8c7d9efb244674cf6adf3881923700bbffc87987", "addresses": ["3JyFwGLG8gekU4JD3TED6Yt7Sz34G6JPtC"], "asm": "OP_HASH160 bd8c7d9efb244674cf6adf3881923700bbffc879 OP_EQUAL", "type": "scripthash"}, "value": 0.02983, "n": 1}, {"scriptPubKey": {"reqSigs": 1, "hex": "a9146ae474c4f0fbf8d32aaceb69f73a54d4cf1663e887", "addresses": ["3BSDEHf1HQU9wS6RrnRkMY1g723jfHwwYp"], "asm": "OP_HASH160 6ae474c4f0fbf8d32aaceb69f73a54d4cf1663e8 OP_EQUAL", "type": "scripthash"}, "value": 1.78466554, "n": 2}], "hex": "01000000017a34f238f54c7914356eb4e5a1de394f53dd957f410bd98eac14ad02759ddc1502000000fdfe00004830450221009e6c976d705b0982f95baede68742954db635f011d4d414770b2213444fb70a1022074f2f271b7ac2b862f8a49870c1663430589cd62a56b3ea0617abd50ad722f7d01483045022100e62cdbbd25e97915da18a17cf00ee55d6599c9ed280bce62b9fb083a23050f470220746ddecb6506e3b6d2141b8f1d817c29c8fd463acd6061ce0fcef4346b8ea9c5014c69522102a5241afca74a1c0d117e108fe5b787d4573d0c79cdc26a07f73d84135ccd6a682102d7bdb3de714d3449b27db69b16718941a6d345a37c95b0086b693c42efe530e721035aa29c27d062092bee52372dcbd2e24871f02d6c5bb4487b2d292cf8fa19b37753aefdffffff0300d007000000000017a914267c591e04b438bc1b3d06a00cf55b829d0e0c218758842d000000000017a914bd8c7d9efb244674cf6adf3881923700bbffc87987fa2ea30a0000000017a9146ae474c4f0fbf8d32aaceb69f73a54d4cf1663e88714490800", "vin": [{"sequence": 4294967293, "scriptSig": {"hex": "004830450221009e6c976d705b0982f95baede68742954db635f011d4d414770b2213444fb70a1022074f2f271b7ac2b862f8a49870c1663430589cd62a56b3ea0617abd50ad722f7d01483045022100e62cdbbd25e97915da18a17cf00ee55d6599c9ed280bce62b9fb083a23050f470220746ddecb6506e3b6d2141b8f1d817c29c8fd463acd6061ce0fcef4346b8ea9c5014c69522102a5241afca74a1c0d117e108fe5b787d4573d0c79cdc26a07f73d84135ccd6a682102d7bdb3de714d3449b27db69b16718941a6d345a37c95b0086b693c42efe530e721035aa29c27d062092bee52372dcbd2e24871f02d6c5bb4487b2d292cf8fa19b37753ae", "asm": "0 30450221009e6c976d705b0982f95baede68742954db635f011d4d414770b2213444fb70a1022074f2f271b7ac2b862f8a49870c1663430589cd62a56b3ea0617abd50ad722f7d[ALL] 3045022100e62cdbbd25e97915da18a17cf00ee55d6599c9ed280bce62b9fb083a23050f470220746ddecb6506e3b6d2141b8f1d817c29c8fd463acd6061ce0fcef4346b8ea9c5[ALL] 522102a5241afca74a1c0d117e108fe5b787d4573d0c79cdc26a07f73d84135ccd6a682102d7bdb3de714d3449b27db69b16718941a6d345a37c95b0086b693c42efe530e721035aa29c27d062092bee52372dcbd2e24871f02d6c5bb4487b2d292cf8fa19b37753ae"}, "vout": 2, "txid": "15dc9d7502ad14ac8ed90b417f95dd534f39dea1e5b46e3514794cf538f2347a"}], "txid": "da437edb4663e7548207ecc40047e8bcf0a3139813477dbeb19b2d3546a8e08a", "blocktime": 1537873891, "version": 1, "confirmations": 11479, "time": 1537873891, "locktime": 542996, "vsize": 403, "size": 403}