{"hash": "da6e4a767e6549a86d2016225925b28cf5fcc5f66d6a545017fc5b2605a7492b", "blockhash": "00000000000000000024a2167bbff67b0be802c0b01cdd79e6331c2be6459f87", "vout": [{"scriptPubKey": {"reqSigs": 1, "hex": "a914f89094050fdb2f106672961c648a5b84da6c474f87", "addresses": ["3QMJhb1vcdt2ULZTxEm3o7NUJXHht6WEun"], "asm": "OP_HASH160 f89094050fdb2f106672961c648a5b84da6c474f OP_EQUAL", "type": "scripthash"}, "value": 0.05499554, "n": 0}, {"scriptPubKey": {"reqSigs": 1, "hex": "76a91401d8efd39f53b57e1c00fd2aba7a0a330c79264788ac", "addresses": ["1AmZE93khXUkZjjXNg2pAaHhtViiUMT5W"], "asm": "OP_DUP OP_HASH160 01d8efd39f53b57e1c00fd2aba7a0a330c792647 OP_EQUALVERIFY OP_CHECKSIG", "type": "pubkeyhash"}, "value": 0.06152087, "n": 1}], "hex": "0100000001f23aae28f12c8263d9cd870b7d1f1d7b2dc32a0aa26f0ceb655a0da97e9e25dd000000006b483045022100a6f2f536fc94455229dbfe80171d0849a473ca70a247f466e6c437c45fd58ab002204389beab55431b3f0634d560dc5da2228f97cc4d980ccd35f45296787975da9f012103501bada3901be90ede38a512c3306adc314de06b0f19e807bec81a96f2cc9ef7fdffffff02a2ea53000000000017a914f89094050fdb2f106672961c648a5b84da6c474f8797df5d00000000001976a91401d8efd39f53b57e1c00fd2aba7a0a330c79264788ac0d490800", "vin": [{"sequence": 4294967293, "scriptSig": {"hex": "483045022100a6f2f536fc94455229dbfe80171d0849a473ca70a247f466e6c437c45fd58ab002204389beab55431b3f0634d560dc5da2228f97cc4d980ccd35f45296787975da9f012103501bada3901be90ede38a512c3306adc314de06b0f19e807bec81a96f2cc9ef7", "asm": "3045022100a6f2f536fc94455229dbfe80171d0849a473ca70a247f466e6c437c45fd58ab002204389beab55431b3f0634d560dc5da2228f97cc4d980ccd35f45296787975da9f[ALL] 03501bada3901be90ede38a512c3306adc314de06b0f19e807bec81a96f2cc9ef7"}, "vout": 0, "txid": "dd259e7ea90d5a65eb0c6fa20a2ac32d7b1d1f7d0b87cdd963822cf128ae3af2"}], "txid": "da6e4a767e6549a86d2016225925b28cf5fcc5f66d6a545017fc5b2605a7492b", "blocktime": 1537870564, "version": 1, "confirmations": 11515, "time": 1537870564, "locktime": 542989, "vsize": 224, "size": 224}