{"hash": "da6f4ff2b03da2179d2974057b8289bf1f1a1759e630d9f5bc6c9df81d5d5851", "blockhash": "0000000000000000000dcc0f55137456b1a82d3642486a52398922ac4d620174", "vout": [{"scriptPubKey": {"reqSigs": 1, "hex": "a914166fec323115d7819a532931647baf26c383a2c887", "addresses": ["33jesHWUoa1vVadq1wrcKAijk5fUKcwq7M"], "asm": "OP_HASH160 166fec323115d7819a532931647baf26c383a2c8 OP_EQUAL", "type": "scripthash"}, "value": 0.00219, "n": 0}], "hex": "0100000001ed24bf93b3a1fa87bd0a915faf7bd6d898c4cd9634f8c96ab41bf327cc33f0f64e0000006a47304402206f28c0fe2f1da8bbf167542ad91968c59cfb67e37915fe766034b2d6c2fe48a5022048a81c9215566d3f1a871c8c7af4d107530ce8d1acb0133e9972ffa45ce9c744012103986a7eb5875e32623c63ca061abe08d4ee31d608db655ccb6fb758a18b562d3affffffff01785703000000000017a914166fec323115d7819a532931647baf26c383a2c88700000000", "vin": [{"sequence": 4294967295, "scriptSig": {"hex": "47304402206f28c0fe2f1da8bbf167542ad91968c59cfb67e37915fe766034b2d6c2fe48a5022048a81c9215566d3f1a871c8c7af4d107530ce8d1acb0133e9972ffa45ce9c744012103986a7eb5875e32623c63ca061abe08d4ee31d608db655ccb6fb758a18b562d3a", "asm": "304402206f28c0fe2f1da8bbf167542ad91968c59cfb67e37915fe766034b2d6c2fe48a5022048a81c9215566d3f1a871c8c7af4d107530ce8d1acb0133e9972ffa45ce9c744[ALL] 03986a7eb5875e32623c63ca061abe08d4ee31d608db655ccb6fb758a18b562d3a"}, "vout": 78, "txid": "f6f033cc27f31bb46ac9f83496cdc498d8d67baf5f910abd87faa1b393bf24ed"}], "txid": "da6f4ff2b03da2179d2974057b8289bf1f1a1759e630d9f5bc6c9df81d5d5851", "blocktime": 1537870268, "version": 1, "confirmations": 11516, "time": 1537870268, "locktime": 0, "vsize": 189, "size": 189}