{"hash": "da7120e112885b9d00f0d38f57cba95dc4ccd1ee670e05fb5f06d2413c972b8d", "blockhash": "0000000000000000000dcc0f55137456b1a82d3642486a52398922ac4d620174", "vout": [{"scriptPubKey": {"reqSigs": 1, "hex": "76a914a4fe77428271e3f5aa3ecf80b61af91e0e3818fb88ac", "addresses": ["1G3Qf4N8kKA33XaykFavXoKuW9rCTsLJi9"], "asm": "OP_DUP OP_HASH160 a4fe77428271e3f5aa3ecf80b61af91e0e3818fb OP_EQUALVERIFY OP_CHECKSIG", "type": "pubkeyhash"}, "value": 0.01014345, "n": 0}], "hex": "0100000001c4f1540270b600494751b3847f99e5b8eea155a3fffa133c10ebb2ee850dd399000000006b483045022100b39d5962fe6247dd53a8e8430f80a6a1de42eebb96a88eb9fd5ab3c1d2042760022044d976bd38e4661d299b5037eb1d76784de961215cd8de7fa35e5b2891ee7ac5012102573d6f43f06ce5d42bdf6f5f2683641b2c88df565d519d5983e279b799cf831fffffffff01497a0f00000000001976a914a4fe77428271e3f5aa3ecf80b61af91e0e3818fb88ac00000000", "vin": [{"sequence": 4294967295, "scriptSig": {"hex": "483045022100b39d5962fe6247dd53a8e8430f80a6a1de42eebb96a88eb9fd5ab3c1d2042760022044d976bd38e4661d299b5037eb1d76784de961215cd8de7fa35e5b2891ee7ac5012102573d6f43f06ce5d42bdf6f5f2683641b2c88df565d519d5983e279b799cf831f", "asm": "3045022100b39d5962fe6247dd53a8e8430f80a6a1de42eebb96a88eb9fd5ab3c1d2042760022044d976bd38e4661d299b5037eb1d76784de961215cd8de7fa35e5b2891ee7ac5[ALL] 02573d6f43f06ce5d42bdf6f5f2683641b2c88df565d519d5983e279b799cf831f"}, "vout": 0, "txid": "99d30d85eeb2eb103c13faffa355a1eeb8e5997f84b351474900b6700254f1c4"}], "txid": "da7120e112885b9d00f0d38f57cba95dc4ccd1ee670e05fb5f06d2413c972b8d", "blocktime": 1537870268, "version": 1, "confirmations": 11518, "time": 1537870268, "locktime": 0, "vsize": 192, "size": 192}