{"hash": "da7741dff577d6c982bbb936992bbe003fd855e31f2fd76b0b3373c3633f367a", "blockhash": "0000000000000000001f76057863aec43deb6fa401d9628bb513d65a8098bfab", "vout": [{"scriptPubKey": {"reqSigs": 1, "hex": "76a91434691b267ac5fbe9a3f1e4d738e2d0c6ccaf78e788ac", "addresses": ["15n83saKeFdX3uw64bMha2sdx3h5ZK9i1K"], "asm": "OP_DUP OP_HASH160 34691b267ac5fbe9a3f1e4d738e2d0c6ccaf78e7 OP_EQUALVERIFY OP_CHECKSIG", "type": "pubkeyhash"}, "value": 0.00312243, "n": 0}, {"scriptPubKey": {"reqSigs": 1, "hex": "76a914001c2fc8234e3b4c1a0c811711ab1f40506114a188ac", "addresses": ["11amSfwWAbrUTWJgVhBnBscbtaTjNjCZ4"], "asm": "OP_DUP OP_HASH160 001c2fc8234e3b4c1a0c811711ab1f40506114a1 OP_EQUALVERIFY OP_CHECKSIG", "type": "pubkeyhash"}, "value": 0.03336929, "n": 1}], "hex": "0100000002672e634d583dcde5c004e8c04ec184b65ef4106dbca1f963603c30e14c3b24d4010000006b483045022100c8939b0256aa9d10435dd5c8888d585c396d942c77a9c5200d97a7f904cb9424022010500847d75545206efe2dc592ba787e27e229321c93e31b82c0e4f9e58a5ccb0121022fd0775e3422ef5852e31f496de241ef3abb87c4ec8b85a6771262bcbea9b01affffffff237db479115865c7a89d30bd13fb9c724dcc375d5c4aa77a25e8ff30d9f2cfd6010000006b4830450221009aa162a3c49a79a4e3c1273424a7587b64c79edb9bed2f1a47650f9dca2d1f5502201166a4be3e81cc65b35e383bd1db08dbbc63d79653cebbc0e16948ca1f02404a012102b9aa6b908ac09ba1aa3e90d4835753fb361fd3a1fa5f5e6fc560f5839734b157ffffffff02b3c30400000000001976a91434691b267ac5fbe9a3f1e4d738e2d0c6ccaf78e788ace1ea3200000000001976a914001c2fc8234e3b4c1a0c811711ab1f40506114a188ac00000000", "vin": [{"sequence": 4294967295, "scriptSig": {"hex": "483045022100c8939b0256aa9d10435dd5c8888d585c396d942c77a9c5200d97a7f904cb9424022010500847d75545206efe2dc592ba787e27e229321c93e31b82c0e4f9e58a5ccb0121022fd0775e3422ef5852e31f496de241ef3abb87c4ec8b85a6771262bcbea9b01a", "asm": "3045022100c8939b0256aa9d10435dd5c8888d585c396d942c77a9c5200d97a7f904cb9424022010500847d75545206efe2dc592ba787e27e229321c93e31b82c0e4f9e58a5ccb[ALL] 022fd0775e3422ef5852e31f496de241ef3abb87c4ec8b85a6771262bcbea9b01a"}, "vout": 1, "txid": "d4243b4ce1303c6063f9a1bc6d10f45eb684c14ec0e804c0e5cd3d584d632e67"}, {"sequence": 4294967295, "scriptSig": {"hex": "4830450221009aa162a3c49a79a4e3c1273424a7587b64c79edb9bed2f1a47650f9dca2d1f5502201166a4be3e81cc65b35e383bd1db08dbbc63d79653cebbc0e16948ca1f02404a012102b9aa6b908ac09ba1aa3e90d4835753fb361fd3a1fa5f5e6fc560f5839734b157", "asm": "30450221009aa162a3c49a79a4e3c1273424a7587b64c79edb9bed2f1a47650f9dca2d1f5502201166a4be3e81cc65b35e383bd1db08dbbc63d79653cebbc0e16948ca1f02404a[ALL] 02b9aa6b908ac09ba1aa3e90d4835753fb361fd3a1fa5f5e6fc560f5839734b157"}, "vout": 1, "txid": "d6cff2d930ffe8257aa74a5c5d37cc4d729cfb13bd309da8c765581179b47d23"}], "txid": "da7741dff577d6c982bbb936992bbe003fd855e31f2fd76b0b3373c3633f367a", "blocktime": 1537873891, "version": 1, "confirmations": 11478, "time": 1537873891, "locktime": 0, "vsize": 374, "size": 374}