{"hash": "da7947464aeb3ce0a1a1418dcf3c55d5e657019585523cc5ddb668857d27974f", "blockhash": "00000000000000000024a2167bbff67b0be802c0b01cdd79e6331c2be6459f87", "vout": [{"scriptPubKey": {"reqSigs": 1, "hex": "76a91496f4208bfd19e4113d362d4ebc7189fbeef3827888ac", "addresses": ["1EmAp2UG1XxvVttWCFjRrws1DpeRTYN4F3"], "asm": "OP_DUP OP_HASH160 96f4208bfd19e4113d362d4ebc7189fbeef38278 OP_EQUALVERIFY OP_CHECKSIG", "type": "pubkeyhash"}, "value": 0.00652145, "n": 0}, {"scriptPubKey": {"type": "nulldata", "hex": "6a4c500000778000011c022e0c415768e7d361314ebcbefa6b8351586b4e86aeaeacb577c031fc76cb8f02c9cfe207060681f0f855d8e45baa0aa706144a1441cdbcb01d100759d4ba30d2c37bb011d97e02cf", "asm": "OP_RETURN 0000778000011c022e0c415768e7d361314ebcbefa6b8351586b4e86aeaeacb577c031fc76cb8f02c9cfe207060681f0f855d8e45baa0aa706144a1441cdbcb01d100759d4ba30d2c37bb011d97e02cf"}, "value": 0.0, "n": 1}], "hex": "0100000001665cdd500fe7b6bed2552b3a1e1138478e2d9b7cc07b80554544ed5c9e287fdf000000006a473044022050e6e78ba5530d322baf4eb25ecd2786883db818f3c6652489762258bb31fa8902202322fdff3321f031dfc2baf5649bc562aa021f370f73d90748fd6d3d05a03c3b012102d28d36fffd644a9a20c00dc64a978c23617cb7b42653194b0347b70141605771ffffffff0271f30900000000001976a91496f4208bfd19e4113d362d4ebc7189fbeef3827888ac0000000000000000536a4c500000778000011c022e0c415768e7d361314ebcbefa6b8351586b4e86aeaeacb577c031fc76cb8f02c9cfe207060681f0f855d8e45baa0aa706144a1441cdbcb01d100759d4ba30d2c37bb011d97e02cf00000000", "vin": [{"sequence": 4294967295, "scriptSig": {"hex": "473044022050e6e78ba5530d322baf4eb25ecd2786883db818f3c6652489762258bb31fa8902202322fdff3321f031dfc2baf5649bc562aa021f370f73d90748fd6d3d05a03c3b012102d28d36fffd644a9a20c00dc64a978c23617cb7b42653194b0347b70141605771", "asm": "3044022050e6e78ba5530d322baf4eb25ecd2786883db818f3c6652489762258bb31fa8902202322fdff3321f031dfc2baf5649bc562aa021f370f73d90748fd6d3d05a03c3b[ALL] 02d28d36fffd644a9a20c00dc64a978c23617cb7b42653194b0347b70141605771"}, "vout": 0, "txid": "df7f289e5ced444555807bc07c9b2d8e4738111e3a2b55d2beb6e70f50dd5c66"}], "txid": "da7947464aeb3ce0a1a1418dcf3c55d5e657019585523cc5ddb668857d27974f", "blocktime": 1537870564, "version": 1, "confirmations": 11515, "time": 1537870564, "locktime": 0, "vsize": 283, "size": 283}