{"hash": "4075742d41e932f86474037ae96f41237f4959612ac2401e5be1e6455b1b7d4c", "blockhash": "0000000000000000000e13cef7c366c0283d82e591d1acd082e914b08063cdf1", "vout": [{"scriptPubKey": {"reqSigs": 1, "hex": "a914aec2a48204f417a9f14933b38db9f08873c9478787", "addresses": ["3Hd4fvmQ3kW5qEiwz8UCB5UqoNtYJB34jY"], "asm": "OP_HASH160 aec2a48204f417a9f14933b38db9f08873c94787 OP_EQUAL", "type": "scripthash"}, "value": 0.0111965, "n": 0}, {"scriptPubKey": {"reqSigs": 1, "hex": "76a914eb3257daa592b3f5165eb06509ca4f9f3829e8ae88ac", "addresses": ["1NSc6zAdG2NGbjPLQwAjAuqjHSoq5KECT7"], "asm": "OP_DUP OP_HASH160 eb3257daa592b3f5165eb06509ca4f9f3829e8ae OP_EQUALVERIFY OP_CHECKSIG", "type": "pubkeyhash"}, "value": 1.99, "n": 1}], "hex": "02000000000102f1e866df348bfe538e5e286e99248acba9f08793f9eea21015a1043df954628d000000006b483045022100b32ef770657d172c101f8c70e84adbc11e9a662606f93434d303196ae24ded45022078dcf6fd886ba875ddcd0ac40abc40b704ba87cd653eb0681190f44bde7d75d10121030ccb5a35c5245927d49f69570cb664d5e5fea11f255ef4ca15eb10a585fbeebffeffffffff120d9094288330f017ac02bb76c29895bc011d8034c2b2811bb31fe56ca5ad00000000171600149b8a275b6dcef54dee0312f8a4c4421736f670b8feffffff02a21511000000000017a914aec2a48204f417a9f14933b38db9f08873c9478787c07fdc0b000000001976a914eb3257daa592b3f5165eb06509ca4f9f3829e8ae88ac0002483045022100e43ad92db45b3ad75078e48b3821785fd464f6e39bff293180c2db1df87f9ff202201e3a4351b8d179cf6adc34efb3afd141fed25410fb82353321edcad2b62134990121033774022efff8aaf084cfa22277cec9fbab8200fb293d27805254db0ea2f6128d04490800", "vin": [{"sequence": 4294967294, "scriptSig": {"hex": "483045022100b32ef770657d172c101f8c70e84adbc11e9a662606f93434d303196ae24ded45022078dcf6fd886ba875ddcd0ac40abc40b704ba87cd653eb0681190f44bde7d75d10121030ccb5a35c5245927d49f69570cb664d5e5fea11f255ef4ca15eb10a585fbeebf", "asm": "3045022100b32ef770657d172c101f8c70e84adbc11e9a662606f93434d303196ae24ded45022078dcf6fd886ba875ddcd0ac40abc40b704ba87cd653eb0681190f44bde7d75d1[ALL] 030ccb5a35c5245927d49f69570cb664d5e5fea11f255ef4ca15eb10a585fbeebf"}, "vout": 0, "txid": "8d6254f93d04a11510a2eef99387f0a9cb8a24996e285e8e53fe8b34df66e8f1"}, {"txinwitness": ["3045022100e43ad92db45b3ad75078e48b3821785fd464f6e39bff293180c2db1df87f9ff202201e3a4351b8d179cf6adc34efb3afd141fed25410fb82353321edcad2b621349901", "033774022efff8aaf084cfa22277cec9fbab8200fb293d27805254db0ea2f6128d"], "sequence": 4294967294, "scriptSig": {"hex": "1600149b8a275b6dcef54dee0312f8a4c4421736f670b8", "asm": "00149b8a275b6dcef54dee0312f8a4c4421736f670b8"}, "vout": 0, "txid": "ada56ce51fb31b81b2c234801d01bc9598c276bb02ac17f030832894900d12ff"}], "txid": "da7e1951a4327274c3a014437d4522d489ff6ef0a280a2d6813d3de395a223e7", "blocktime": 1537871767, "version": 2, "confirmations": 11490, "time": 1537871767, "locktime": 542980, "vsize": 316, "size": 399}