{"hash": "da84d79079635c9713f2bc74f775384d6e041697ef181ea0de2ec743085dad27", "blockhash": "00000000000000000004ffacab907a6b429b9a5745fa0b75af4234bf69dd7176", "vout": [{"scriptPubKey": {"reqSigs": 1, "hex": "76a914bbcd9455bc2d352c35b9c2dfe6f2e7335e38aa2a88ac", "addresses": ["1J81dnLiKZu1suYaHa6uNw6j1MHyQd2Dvt"], "asm": "OP_DUP OP_HASH160 bbcd9455bc2d352c35b9c2dfe6f2e7335e38aa2a OP_EQUALVERIFY OP_CHECKSIG", "type": "pubkeyhash"}, "value": 0.002321, "n": 0}, {"scriptPubKey": {"reqSigs": 1, "hex": "76a914cf61845bce209ad223d5f6b42e16a8ce7e8b2e0b88ac", "addresses": ["1KuXhK1yrbCVyaJp6WFwSwv733Vh7MLRc8"], "asm": "OP_DUP OP_HASH160 cf61845bce209ad223d5f6b42e16a8ce7e8b2e0b OP_EQUALVERIFY OP_CHECKSIG", "type": "pubkeyhash"}, "value": 0.00855493, "n": 1}], "hex": "0100000001b897b10358868ffec353a6d86dd3dd4b15b9262b5779251be3d04982311acea3010000006b483045022100c1c8ebe9e0c6675e57e0d1eb94b73783d83ee4d3a3fab7491fc987e4276a013002203a1ebc7ab4711694dd90217f23f11a313ebe7f83d7392da9db2ffd39dac3ea2d012102ebac2b4e185ba6e01cf63b015bc54f14f7fe7e920b7546906b84c782c3c17955ffffffff02a48a0300000000001976a914bbcd9455bc2d352c35b9c2dfe6f2e7335e38aa2a88acc50d0d00000000001976a914cf61845bce209ad223d5f6b42e16a8ce7e8b2e0b88ac00000000", "vin": [{"sequence": 4294967295, "scriptSig": {"hex": "483045022100c1c8ebe9e0c6675e57e0d1eb94b73783d83ee4d3a3fab7491fc987e4276a013002203a1ebc7ab4711694dd90217f23f11a313ebe7f83d7392da9db2ffd39dac3ea2d012102ebac2b4e185ba6e01cf63b015bc54f14f7fe7e920b7546906b84c782c3c17955", "asm": "3045022100c1c8ebe9e0c6675e57e0d1eb94b73783d83ee4d3a3fab7491fc987e4276a013002203a1ebc7ab4711694dd90217f23f11a313ebe7f83d7392da9db2ffd39dac3ea2d[ALL] 02ebac2b4e185ba6e01cf63b015bc54f14f7fe7e920b7546906b84c782c3c17955"}, "vout": 1, "txid": "a3ce1a318249d0e31b2579572b26b9154bddd36dd8a653c3fe8f865803b197b8"}], "txid": "da84d79079635c9713f2bc74f775384d6e041697ef181ea0de2ec743085dad27", "blocktime": 1537875543, "version": 1, "confirmations": 11464, "time": 1537875543, "locktime": 0, "vsize": 226, "size": 226}