{"hash": "52de0c8bf0214f6da97f8100e97d2614f4f2bb3ce9d2faeac55dbf0d7742c053", "blockhash": "0000000000000000000e13cef7c366c0283d82e591d1acd082e914b08063cdf1", "vout": [{"scriptPubKey": {"reqSigs": 1, "hex": "0014bd098521b297587ce4c13a97d3c54c5754e3c256", "addresses": ["bc1qh5yc2gdjjav8eexp82ta832v2a2w8sjksl33p3"], "asm": "0 bd098521b297587ce4c13a97d3c54c5754e3c256", "type": "witness_v0_keyhash"}, "value": 1.46553314, "n": 0}, {"scriptPubKey": {"reqSigs": 1, "hex": "76a91462f9a19bb360a0c3c690c954a73ac93b0defb7bb88ac", "addresses": ["1A2LGV8JrkBhHwfUaMMLy55eF2uQ2wYnWE"], "asm": "OP_DUP OP_HASH160 62f9a19bb360a0c3c690c954a73ac93b0defb7bb OP_EQUALVERIFY OP_CHECKSIG", "type": "pubkeyhash"}, "value": 0.010561, "n": 1}], "hex": "0100000000010111bc22460597a7bebadcc6e238699a1a70abe4a1e4d8992c1bc9006205f3eede0000000000ffffffff02e239bc0800000000160014bd098521b297587ce4c13a97d3c54c5754e3c256641d1000000000001976a91462f9a19bb360a0c3c690c954a73ac93b0defb7bb88ac0247304402201415eeb7c738a284f970598ba1e8eed8c83d815243596e0a5a55571426cee84502207bc3eeac706028709f7e25183173fdb468a4c2b84cb62538591c3f19f8e17ad601210251fcf6e09668ac9b07d15899f7ebd729ed7d997dfea02e042530600820a3a0aa00000000", "vin": [{"txinwitness": ["304402201415eeb7c738a284f970598ba1e8eed8c83d815243596e0a5a55571426cee84502207bc3eeac706028709f7e25183173fdb468a4c2b84cb62538591c3f19f8e17ad601", "0251fcf6e09668ac9b07d15899f7ebd729ed7d997dfea02e042530600820a3a0aa"], "sequence": 4294967295, "scriptSig": {"hex": "", "asm": ""}, "vout": 0, "txid": "deeef3056200c91b2c99d8e4a1e4ab701a9a6938e2c6dcbabea797054622bc11"}], "txid": "da863e1c2d53b2ef31e06c5d73c0c67762f5703e7f9b0f9ac1d894d009ab54fb", "blocktime": 1537871767, "version": 1, "confirmations": 11495, "time": 1537871767, "locktime": 0, "vsize": 144, "size": 225}