{"hash": "60801f839abe70382812a8cda8516a1707f8d245d062736228c9c1003f8cb4bc", "blockhash": "00000000000000000018f53835495a110e01622372bf6ae95dc86f2b0ab887b0", "vout": [{"scriptPubKey": {"reqSigs": 1, "hex": "a914bb49933e65f4e4d1e42e366fa0cb8ea35e80857487", "addresses": ["3JmJRWSy2hy8jb9rdDZ5sk4Ae8ph2AmBFg"], "asm": "OP_HASH160 bb49933e65f4e4d1e42e366fa0cb8ea35e808574 OP_EQUAL", "type": "scripthash"}, "value": 0.01007607, "n": 0}, {"scriptPubKey": {"reqSigs": 1, "hex": "76a91417a8b9e25d3e8fadb831a83e19aa5789e4faab8988ac", "addresses": ["13A6fi3vero9ok4TBkwS1qtbAg3qixtodx"], "asm": "OP_DUP OP_HASH160 17a8b9e25d3e8fadb831a83e19aa5789e4faab89 OP_EQUALVERIFY OP_CHECKSIG", "type": "pubkeyhash"}, "value": 0.00182232, "n": 1}, {"scriptPubKey": {"reqSigs": 1, "hex": "76a9141283c522af07c6528dcd0e312e1e8d049eacc59f88ac", "addresses": ["12gu1zqms14j4BUkLYfaQkcnuWmX8Px7Ck"], "asm": "OP_DUP OP_HASH160 1283c522af07c6528dcd0e312e1e8d049eacc59f OP_EQUALVERIFY OP_CHECKSIG", "type": "pubkeyhash"}, "value": 0.00493769, "n": 2}, {"scriptPubKey": {"reqSigs": 1, "hex": "a91469f374b3a11d153a22df13a54661b99598d0b3be87", "addresses": ["3BMEXJ8D6rXQCLAocrjw8tz8RFPEadbSBR"], "asm": "OP_HASH160 69f374b3a11d153a22df13a54661b99598d0b3be OP_EQUAL", "type": "scripthash"}, "value": 0.00166465, "n": 3}, {"scriptPubKey": {"reqSigs": 1, "hex": "a914b6ac512461e6d83561259c8b8d625f80a7c2968a87", "addresses": ["3JLuLFQnMUJti28Q5GwcgYn9UWK2qh8kdE"], "asm": "OP_HASH160 b6ac512461e6d83561259c8b8d625f80a7c2968a OP_EQUAL", "type": "scripthash"}, "value": 0.18356392, "n": 4}], "hex": "020000000001040aff5b635c6ed4ab3f5a3e429f7e4dee2334fd64531cab21ebed37a7809aedec0100000017160014d790c4838a07a8c4e200c78b207ff5abea138088fdffffff12ce402e4b6ee17609643ac26201f2fb97145b2b130fa8bc208c69ba91388507000000001716001453fe93e09b64b009a85492411d13cd23af569a34fdffffff430de7f0a65d9560142f0ad0e6e9b01bf6e87c8ff7bbb0940c9df3d5e6ad19da0000000017160014d4cb659353ac0bcf1771b6e85dc3dcc128193df5fdffffffd0186cbd4a397ddfecedcb94eb2ce006d00b58249f5582cd7d9a716c3500ea5801000000171600140ed30b0030839996c1da4c1c0a0ad4d48ae5abdafdffffff05f75f0f000000000017a914bb49933e65f4e4d1e42e366fa0cb8ea35e80857487d8c70200000000001976a91417a8b9e25d3e8fadb831a83e19aa5789e4faab8988acc9880700000000001976a9141283c522af07c6528dcd0e312e1e8d049eacc59f88ac418a02000000000017a91469f374b3a11d153a22df13a54661b99598d0b3be87a81818010000000017a914b6ac512461e6d83561259c8b8d625f80a7c2968a8702483045022100a1a8436468bc4c25a2a53296c61d47b0e2e7bd5c8cf6dd20d3bf1406dca7b658022003b5eeeb288d8e644c64bb3e2df82166b61d3b964c9bc420cb496d027eb0c3dc012103950a29437b4502b5d7df67297ee2fc6d0453db96fca858ea1b73a7e1cc0db40f024830450221008d52e3d9b8e3e1f6b57ac35a0819ea0e1848cd3d6f00ce8fa1414558f9e808c302204bb4bab3e82bd87456453ffc188a87203f01337c4887ca51c4ee9847c43ac58e0121026eda62dd88b4f682b2173d792bafb3e6d8fdb1908f52d954edc15754d387c51e02483045022100fa12e41a246dc34455e878c0198e34b934f7317f0a3f7ca944e885b10263e6220220734e2a2ef35c70f0caa4320a3b083403f4402d806849ef462eaf439739f89058012103fad059462d99f5c802551c6b6aa6e6ec58b17fbaa780ca1973f8f86d23cd097902483045022100f0c286ea63007b5ffc80d563dbf4de884d3acaa6e63cb851c595db715aa31cfc02206f7ac57a60ab2e0ba2430a7a14db36439cd03112d230d8bc36dc48e5e096ba59012103bcd597d5a877073317d92dda285708b1104219b8d40914381d514fbde01927350e490800", "vin": [{"txinwitness": ["3045022100a1a8436468bc4c25a2a53296c61d47b0e2e7bd5c8cf6dd20d3bf1406dca7b658022003b5eeeb288d8e644c64bb3e2df82166b61d3b964c9bc420cb496d027eb0c3dc01", "03950a29437b4502b5d7df67297ee2fc6d0453db96fca858ea1b73a7e1cc0db40f"], "sequence": 4294967293, "scriptSig": {"hex": "160014d790c4838a07a8c4e200c78b207ff5abea138088", "asm": "0014d790c4838a07a8c4e200c78b207ff5abea138088"}, "vout": 1, "txid": "eced9a80a737edeb21ab1c5364fd3423ee4d7e9f423e5a3fabd46e5c635bff0a"}, {"txinwitness": ["30450221008d52e3d9b8e3e1f6b57ac35a0819ea0e1848cd3d6f00ce8fa1414558f9e808c302204bb4bab3e82bd87456453ffc188a87203f01337c4887ca51c4ee9847c43ac58e01", "026eda62dd88b4f682b2173d792bafb3e6d8fdb1908f52d954edc15754d387c51e"], "sequence": 4294967293, "scriptSig": {"hex": "16001453fe93e09b64b009a85492411d13cd23af569a34", "asm": "001453fe93e09b64b009a85492411d13cd23af569a34"}, "vout": 0, "txid": "07853891ba698c20bca80f132b5b1497fbf20162c23a640976e16e4b2e40ce12"}, {"txinwitness": ["3045022100fa12e41a246dc34455e878c0198e34b934f7317f0a3f7ca944e885b10263e6220220734e2a2ef35c70f0caa4320a3b083403f4402d806849ef462eaf439739f8905801", "03fad059462d99f5c802551c6b6aa6e6ec58b17fbaa780ca1973f8f86d23cd0979"], "sequence": 4294967293, "scriptSig": {"hex": "160014d4cb659353ac0bcf1771b6e85dc3dcc128193df5", "asm": "0014d4cb659353ac0bcf1771b6e85dc3dcc128193df5"}, "vout": 0, "txid": "da19ade6d5f39d0c94b0bbf78f7ce8f61bb0e9e6d00a2f1460955da6f0e70d43"}, {"txinwitness": ["3045022100f0c286ea63007b5ffc80d563dbf4de884d3acaa6e63cb851c595db715aa31cfc02206f7ac57a60ab2e0ba2430a7a14db36439cd03112d230d8bc36dc48e5e096ba5901", "03bcd597d5a877073317d92dda285708b1104219b8d40914381d514fbde0192735"], "sequence": 4294967293, "scriptSig": {"hex": "1600140ed30b0030839996c1da4c1c0a0ad4d48ae5abda", "asm": "00140ed30b0030839996c1da4c1c0a0ad4d48ae5abda"}, "vout": 1, "txid": "58ea00356c719a7dcd82559f24580bd006e02ceb94cbedecdf7d394abd6c18d0"}], "txid": "da8ffd0c8e13f5a4a0a42a3366dbac0ec27e5f52314900ded0f5a7242e29047b", "blocktime": 1537870928, "version": 2, "confirmations": 11514, "time": 1537870928, "locktime": 542990, "vsize": 539, "size": 864}