{"hash": "da90695f1590d3dd4614d056c4421cf92d8ed10ff1c3d3e4b833c30d9ca091ca", "blockhash": "00000000000000000017f5eb5941039fbcee6240d03bc1f2f8e35350df66a1d8", "vout": [{"scriptPubKey": {"reqSigs": 1, "hex": "a914cd60dccf2a8215c6b836f4f4939123f8963a723287", "addresses": ["3LQxUzikM2rWBhUFrLFNiuWPbPLLJn84DB"], "asm": "OP_HASH160 cd60dccf2a8215c6b836f4f4939123f8963a7232 OP_EQUAL", "type": "scripthash"}, "value": 0.00573569, "n": 0}], "hex": "01000000015714efdbffcbe190b0fdc8f4eb91464acf55563250733833784ffe9b78597cb1030000008a4730440220442ee98007de5e1f4191d206afa5e0c1fdb3a7dae22d897fd2af73113a37219a022054add8f6925e790f1c4e35b3713fa44322a8ac908ed62d1ad65eb682a1d18792014104bcba21d00040337143b280e687be36e01a89d4886ba59177878a9517240aa9bb1f6f999f648fe395c6f4ed72b44873252abf1202e3494527b3f6e4efe04fc474ffffffff0181c008000000000017a914cd60dccf2a8215c6b836f4f4939123f8963a72328700000000", "vin": [{"sequence": 4294967295, "scriptSig": {"hex": "4730440220442ee98007de5e1f4191d206afa5e0c1fdb3a7dae22d897fd2af73113a37219a022054add8f6925e790f1c4e35b3713fa44322a8ac908ed62d1ad65eb682a1d18792014104bcba21d00040337143b280e687be36e01a89d4886ba59177878a9517240aa9bb1f6f999f648fe395c6f4ed72b44873252abf1202e3494527b3f6e4efe04fc474", "asm": "30440220442ee98007de5e1f4191d206afa5e0c1fdb3a7dae22d897fd2af73113a37219a022054add8f6925e790f1c4e35b3713fa44322a8ac908ed62d1ad65eb682a1d18792[ALL] 04bcba21d00040337143b280e687be36e01a89d4886ba59177878a9517240aa9bb1f6f999f648fe395c6f4ed72b44873252abf1202e3494527b3f6e4efe04fc474"}, "vout": 3, "txid": "b17c59789bfe4f7833387350325655cf4a4691ebf4c8fdb090e1cbffdbef1457"}], "txid": "da90695f1590d3dd4614d056c4421cf92d8ed10ff1c3d3e4b833c30d9ca091ca", "blocktime": 1537874412, "version": 1, "confirmations": 11467, "time": 1537874412, "locktime": 0, "vsize": 221, "size": 221}