{"hash": "da99221e7cca583b723c6d458ef20649e3d3a879a300b4eebf0e641c42f84d42", "blockhash": "0000000000000000001f76057863aec43deb6fa401d9628bb513d65a8098bfab", "vout": [{"scriptPubKey": {"reqSigs": 1, "hex": "76a9147a497f08267018b06f22028a2945218d2c7a2e9288ac", "addresses": ["1C9bV1asrhWVdFxLLMYpE9Jg9NVfcJYRdB"], "asm": "OP_DUP OP_HASH160 7a497f08267018b06f22028a2945218d2c7a2e92 OP_EQUALVERIFY OP_CHECKSIG", "type": "pubkeyhash"}, "value": 0.00149983, "n": 0}, {"scriptPubKey": {"reqSigs": 1, "hex": "a9148b25e46dcc76d79e83073a2e885e1a7cea5ac0ce87", "addresses": ["3ENmF1cW2Yg1iPWppGtSAHxY6ER8gjVuVK"], "asm": "OP_HASH160 8b25e46dcc76d79e83073a2e885e1a7cea5ac0ce OP_EQUAL", "type": "scripthash"}, "value": 0.00686651, "n": 1}, {"scriptPubKey": {"reqSigs": 1, "hex": "76a914214ce63695a5236a6eac8c94567aadfee5de863288ac", "addresses": ["1435RPMRSBWpyNV7fi7B2uuSC37Ai2VUvB"], "asm": "OP_DUP OP_HASH160 214ce63695a5236a6eac8c94567aadfee5de8632 OP_EQUALVERIFY OP_CHECKSIG", "type": "pubkeyhash"}, "value": 0.03037547, "n": 2}, {"scriptPubKey": {"reqSigs": 1, "hex": "a914ad3bd308ea149e5a2853b057d21ef3038da7a4b387", "addresses": ["3HUzVQ82a9K4mCsobJRtgbXQUp9NePjGe2"], "asm": "OP_HASH160 ad3bd308ea149e5a2853b057d21ef3038da7a4b3 OP_EQUAL", "type": "scripthash"}, "value": 0.63072712, "n": 3}], "hex": "02000000018916e98968e4f42f2106bd589f2fb974c034046fb934222467c8f6179e2f9219010000006b483045022100a2d64575cc7c3d9d83516f85371c05f743e69cde6b08e646740d6caeb410379d02201fb9038c4eb4db28e46b9b68c2c247501d2a1c48183aeb2250ba342a8ed417860121038bae374c5305a8069378242fd78dcc5a7336690020204d005b5b663572d87258feffffff04df490200000000001976a9147a497f08267018b06f22028a2945218d2c7a2e9288ac3b7a0a000000000017a9148b25e46dcc76d79e83073a2e885e1a7cea5ac0ce876b592e00000000001976a914214ce63695a5236a6eac8c94567aadfee5de863288acc869c2030000000017a914ad3bd308ea149e5a2853b057d21ef3038da7a4b38714490800", "vin": [{"sequence": 4294967294, "scriptSig": {"hex": "483045022100a2d64575cc7c3d9d83516f85371c05f743e69cde6b08e646740d6caeb410379d02201fb9038c4eb4db28e46b9b68c2c247501d2a1c48183aeb2250ba342a8ed417860121038bae374c5305a8069378242fd78dcc5a7336690020204d005b5b663572d87258", "asm": "3045022100a2d64575cc7c3d9d83516f85371c05f743e69cde6b08e646740d6caeb410379d02201fb9038c4eb4db28e46b9b68c2c247501d2a1c48183aeb2250ba342a8ed41786[ALL] 038bae374c5305a8069378242fd78dcc5a7336690020204d005b5b663572d87258"}, "vout": 1, "txid": "19922f9e17f6c867242234b96f0434c074b92f9f58bd06212ff4e46889e91689"}], "txid": "da99221e7cca583b723c6d458ef20649e3d3a879a300b4eebf0e641c42f84d42", "blocktime": 1537873891, "version": 2, "confirmations": 11474, "time": 1537873891, "locktime": 542996, "vsize": 290, "size": 290}