{"hash": "15bde042b01cf80f650dce9c4782bf30d34bb7f3fa296f1fe403b6bba5ce2d43", "blockhash": "0000000000000000000e13cef7c366c0283d82e591d1acd082e914b08063cdf1", "vout": [{"scriptPubKey": {"reqSigs": 1, "hex": "a914c4d4531e6582d62d92e58e6f50ef0114d308305a87", "addresses": ["3KdkiiidzMmrvwLss3QTmSF4u5JaynQsei"], "asm": "OP_HASH160 c4d4531e6582d62d92e58e6f50ef0114d308305a OP_EQUAL", "type": "scripthash"}, "value": 0.00998383, "n": 0}, {"scriptPubKey": {"reqSigs": 1, "hex": "76a914ecd3be48417e64da9512d7885a0e13f2ffb483eb88ac", "addresses": ["1NbE8TKDszXTvRvd47A3rLrAW5TaEdthUA"], "asm": "OP_DUP OP_HASH160 ecd3be48417e64da9512d7885a0e13f2ffb483eb OP_EQUALVERIFY OP_CHECKSIG", "type": "pubkeyhash"}, "value": 0.0205209, "n": 1}], "hex": "020000000001014a53de6732490950b7ff842e8f705ab65c13421331b28274806973c800132c2408000000171600147006de6ef343a3d3b1e2a5c5809c69fb49132527feffffff02ef3b0f000000000017a914c4d4531e6582d62d92e58e6f50ef0114d308305a87fa4f1f00000000001976a914ecd3be48417e64da9512d7885a0e13f2ffb483eb88ac02483045022100fb85bb568dc3a79fe1028b4ea2bad0d11d37bb332fcff2afb7edac5b4497027102205010d251a9c1ea75c0d54bef7909b70cf073df1658bf0d76f8cb6bdc73c74e2e012102c0f5626bc48e3d985bfe130e6b2c4dd3550f1c1b2b99b56eff6e1177e0a4095ef2480800", "vin": [{"txinwitness": ["3045022100fb85bb568dc3a79fe1028b4ea2bad0d11d37bb332fcff2afb7edac5b4497027102205010d251a9c1ea75c0d54bef7909b70cf073df1658bf0d76f8cb6bdc73c74e2e01", "02c0f5626bc48e3d985bfe130e6b2c4dd3550f1c1b2b99b56eff6e1177e0a4095e"], "sequence": 4294967294, "scriptSig": {"hex": "1600147006de6ef343a3d3b1e2a5c5809c69fb49132527", "asm": "00147006de6ef343a3d3b1e2a5c5809c69fb49132527"}, "vout": 8, "txid": "242c1300c87369807482b2311342135cb65a708f2e84ffb75009493267de534a"}], "txid": "da9b49f3def49f97b0da13a23659cf3f4f4ce8d8adddc0e2b167376405d369b0", "blocktime": 1537871767, "version": 2, "confirmations": 11491, "time": 1537871767, "locktime": 542962, "vsize": 168, "size": 250}