{"hash": "da9cd1de268fdbac4943adad2431279c3452f77d0db22772d7663ccffc71785d", "blockhash": "00000000000000000018f53835495a110e01622372bf6ae95dc86f2b0ab887b0", "vout": [{"scriptPubKey": {"reqSigs": 1, "hex": "76a9145501f88e3e1d23aca615ad9613e6e1dc07616f1488ac", "addresses": ["18kUoFMitd5pP9U1TfSTJyHZHvfrqnkQNN"], "asm": "OP_DUP OP_HASH160 5501f88e3e1d23aca615ad9613e6e1dc07616f14 OP_EQUALVERIFY OP_CHECKSIG", "type": "pubkeyhash"}, "value": 0.0295, "n": 0}], "hex": "010000000236a48b3077279085e04be46eacfc90410c1e30d854109122d21a9ba1d7930c15030000006b483045022100987386c86209300cce1110e902098b5e4d14b839827ae29e09f9b4ec33349c2402206542c979fb3ea477593a569ac256098e0485b2291c9a7d2b44129215995b5f16012102c49b1c686116071ec5bed37824254466fe3e7284e942d352616bddbee5f6e2d6fffffffff2b3807a304e1a9ad5949704861af7d9700d530eb4188be43a9e9b4cb7a5e233010000006b483045022100ca87b1cb35f4b58c38c640353ea082e8eb3be138dbac215de5bf41c15054c0af0220078443d21c4c79a97a4a47af5ba31284445920c9d6f4b15dc089aa6a65c1b31f0121025c6816e06fb95af304361ebe86e3d6240f0fd0e1e914f77615ca06f681c6c316ffffffff0170032d00000000001976a9145501f88e3e1d23aca615ad9613e6e1dc07616f1488ac00000000", "vin": [{"sequence": 4294967295, "scriptSig": {"hex": "483045022100987386c86209300cce1110e902098b5e4d14b839827ae29e09f9b4ec33349c2402206542c979fb3ea477593a569ac256098e0485b2291c9a7d2b44129215995b5f16012102c49b1c686116071ec5bed37824254466fe3e7284e942d352616bddbee5f6e2d6", "asm": "3045022100987386c86209300cce1110e902098b5e4d14b839827ae29e09f9b4ec33349c2402206542c979fb3ea477593a569ac256098e0485b2291c9a7d2b44129215995b5f16[ALL] 02c49b1c686116071ec5bed37824254466fe3e7284e942d352616bddbee5f6e2d6"}, "vout": 3, "txid": "150c93d7a19b1ad222911054d8301e0c4190fcac6ee44be085902777308ba436"}, {"sequence": 4294967295, "scriptSig": {"hex": "483045022100ca87b1cb35f4b58c38c640353ea082e8eb3be138dbac215de5bf41c15054c0af0220078443d21c4c79a97a4a47af5ba31284445920c9d6f4b15dc089aa6a65c1b31f0121025c6816e06fb95af304361ebe86e3d6240f0fd0e1e914f77615ca06f681c6c316", "asm": "3045022100ca87b1cb35f4b58c38c640353ea082e8eb3be138dbac215de5bf41c15054c0af0220078443d21c4c79a97a4a47af5ba31284445920c9d6f4b15dc089aa6a65c1b31f[ALL] 025c6816e06fb95af304361ebe86e3d6240f0fd0e1e914f77615ca06f681c6c316"}, "vout": 1, "txid": "33e2a5b74c9b9e3ae48b18b40e530d70d9f71a86049794d59a1a4e307a80b3f2"}], "txid": "da9cd1de268fdbac4943adad2431279c3452f77d0db22772d7663ccffc71785d", "blocktime": 1537870928, "version": 1, "confirmations": 11512, "time": 1537870928, "locktime": 0, "vsize": 340, "size": 340}