{"hash": "daa13c71de9e2b4ba431a649db7393bc9dd8384a07d35bc5a835acbdd664af8b", "blockhash": "0000000000000000000baef3f32e3676a92c3b2e5da21b426e4f302fc371ce76", "vout": [{"scriptPubKey": {"reqSigs": 1, "hex": "a914d4c17c29f24aed78fd1b472a6e9a3f8d475ead5187", "addresses": ["3M5xxnZU8dvSn3w3Tg4YtNPLxKnRLfbbcy"], "asm": "OP_HASH160 d4c17c29f24aed78fd1b472a6e9a3f8d475ead51 OP_EQUAL", "type": "scripthash"}, "value": 0.02930947, "n": 0}, {"scriptPubKey": {"reqSigs": 1, "hex": "76a9140fc0301d75a8affae7893121e0d63f45559bc06088ac", "addresses": ["12SHNLA6eiFQsWtsiGVy2ZFYwQ4dnU2yYy"], "asm": "OP_DUP OP_HASH160 0fc0301d75a8affae7893121e0d63f45559bc060 OP_EQUALVERIFY OP_CHECKSIG", "type": "pubkeyhash"}, "value": 4.45975377, "n": 1}], "hex": "0100000001f62cf9ed027f276940108c13b95b7da004aed43f77281360ddfc453d60e5ea30010000006b483045022100f32394dc1f1739eaa5f430c92469d40e29244c06ba7c554fba30403324f9b653022071c0c5e42bdba5b9c0a7c4c4e00dceb027109b77e71ebdded00568acb599d42f0121030ff2d045489bd561d979167e7d212cf405411c375c08e3a51b6f376d752bdce3ffffffff0203b92c000000000017a914d4c17c29f24aed78fd1b472a6e9a3f8d475ead5187510b951a000000001976a9140fc0301d75a8affae7893121e0d63f45559bc06088ac00000000", "vin": [{"sequence": 4294967295, "scriptSig": {"hex": "483045022100f32394dc1f1739eaa5f430c92469d40e29244c06ba7c554fba30403324f9b653022071c0c5e42bdba5b9c0a7c4c4e00dceb027109b77e71ebdded00568acb599d42f0121030ff2d045489bd561d979167e7d212cf405411c375c08e3a51b6f376d752bdce3", "asm": "3045022100f32394dc1f1739eaa5f430c92469d40e29244c06ba7c554fba30403324f9b653022071c0c5e42bdba5b9c0a7c4c4e00dceb027109b77e71ebdded00568acb599d42f[ALL] 030ff2d045489bd561d979167e7d212cf405411c375c08e3a51b6f376d752bdce3"}, "vout": 1, "txid": "30eae5603d45fcdd601328773fd4ae04a07d5bb9138c104069277f02edf92cf6"}], "txid": "daa13c71de9e2b4ba431a649db7393bc9dd8384a07d35bc5a835acbdd664af8b", "blocktime": 1537876114, "version": 1, "confirmations": 11459, "time": 1537876114, "locktime": 0, "vsize": 224, "size": 224}