{"hash": "ad04918ccc77a320beac6106f46c0013eb2e6af0158005628b1b13b7a07138fb", "blockhash": "0000000000000000001e0dab787dd257d1dbfcb92a98c2207d5e1078be1f4165", "vout": [{"scriptPubKey": {"reqSigs": 1, "hex": "a9143fae3e70c8590c2124570d40de262f4c2d605f9e87", "addresses": ["37VjEJpcCxnHboZzFU4mYgM3EdhJ8W2Ech"], "asm": "OP_HASH160 3fae3e70c8590c2124570d40de262f4c2d605f9e OP_EQUAL", "type": "scripthash"}, "value": 0.00997217, "n": 0}, {"scriptPubKey": {"reqSigs": 1, "hex": "76a914954dadc22ad4ee0802b0841146fe53733ce4c82788ac", "addresses": ["1EcSjoCNvSfxkDZkqJoG7KowMNKiSge9KR"], "asm": "OP_DUP OP_HASH160 954dadc22ad4ee0802b0841146fe53733ce4c827 OP_EQUALVERIFY OP_CHECKSIG", "type": "pubkeyhash"}, "value": 0.111982, "n": 1}], "hex": "0200000000010232fce5e188c5aa8f9fdab847589798c754f63ea3e2a5178c8b6562e13b3100fe0000000017160014bbdb0e10c555761d38e3cb97cbcd63cbb011acd4feffffffe09bef924b0162a5ea700d2dd5c766cabcf2cf9abde993f178deda322eb31035340000001716001496f4cff0ce050f933734fce1cce68bbf555fbd2efeffffff0261370f000000000017a9143fae3e70c8590c2124570d40de262f4c2d605f9e87f8deaa00000000001976a914954dadc22ad4ee0802b0841146fe53733ce4c82788ac0247304402200f3e06eb5ef5905bf816b70887998e168975e23d3eabeb0971687c5811b3d6d20220655d5db01dfcc673e0d79c7b932c03737183cda9257591b1465aa2d5e51147a10121031760ceb2d462ef14bf83f9f77a6c5814617536a8adfcf374628029db2ce2520702483045022100c58bef39db40a8e571231f9e340555599174e5df0e0ad8b2443cbc0587afffdb02206478e2e458b8ce38262cf63f16ab50e14afc0deea7d03c5ef718b7235436d8970121030579d64cb8c34269a930e784d3732b379cf7c28192c93ae44f191aa916eba77f12490800", "vin": [{"txinwitness": ["304402200f3e06eb5ef5905bf816b70887998e168975e23d3eabeb0971687c5811b3d6d20220655d5db01dfcc673e0d79c7b932c03737183cda9257591b1465aa2d5e51147a101", "031760ceb2d462ef14bf83f9f77a6c5814617536a8adfcf374628029db2ce25207"], "sequence": 4294967294, "scriptSig": {"hex": "160014bbdb0e10c555761d38e3cb97cbcd63cbb011acd4", "asm": "0014bbdb0e10c555761d38e3cb97cbcd63cbb011acd4"}, "vout": 0, "txid": "fe00313be162658b8c17a5e2a33ef654c798975847b8da9f8faac588e1e5fc32"}, {"txinwitness": ["3045022100c58bef39db40a8e571231f9e340555599174e5df0e0ad8b2443cbc0587afffdb02206478e2e458b8ce38262cf63f16ab50e14afc0deea7d03c5ef718b7235436d89701", "030579d64cb8c34269a930e784d3732b379cf7c28192c93ae44f191aa916eba77f"], "sequence": 4294967294, "scriptSig": {"hex": "16001496f4cff0ce050f933734fce1cce68bbf555fbd2e", "asm": "001496f4cff0ce050f933734fce1cce68bbf555fbd2e"}, "vout": 52, "txid": "3510b32e32dade78f193e9bd9acff2bcca66c7d52d0d70eaa562014b92ef9be0"}], "txid": "daa1b5d08074db9f79510a00c5add9088ef039a71debbb9fcf95b00ab87b4540", "blocktime": 1537872475, "version": 2, "confirmations": 11486, "time": 1537872475, "locktime": 542994, "vsize": 259, "size": 421}