{"hash": "daa44c4207c7c93246481887dfdef3c79c41eea75c7a825e2c32a3d221ca09e1", "blockhash": "0000000000000000000e13cef7c366c0283d82e591d1acd082e914b08063cdf1", "vout": [{"scriptPubKey": {"reqSigs": 1, "hex": "76a91452b33eaf8b90c85362880b211c229b01a4c13f8488ac", "addresses": ["18YH8t98cFdUobE7vDTUMFLzt9jbj8U6cV"], "asm": "OP_DUP OP_HASH160 52b33eaf8b90c85362880b211c229b01a4c13f84 OP_EQUALVERIFY OP_CHECKSIG", "type": "pubkeyhash"}, "value": 0.00522809, "n": 0}, {"scriptPubKey": {"reqSigs": 1, "hex": "76a914c68be2a4bab276e383f93b0785eb2c4ef6acaf4c88ac", "addresses": ["1K6pNPM3zP8ZDk2GHYHXyVJzxe8gvY8h3G"], "asm": "OP_DUP OP_HASH160 c68be2a4bab276e383f93b0785eb2c4ef6acaf4c OP_EQUALVERIFY OP_CHECKSIG", "type": "pubkeyhash"}, "value": 0.28203918, "n": 1}], "hex": "0100000001e998df58b2f191c45eedb2b7e161d18c96fd541d92d954645aa1963e3f4e45e4010000006b483045022100ff1d4e0ea9eb1e6ecd90c1bc6be565dfd6a7acc8354469574a0052925a02f6dc0220212536ebd2bd27771d23dbbc0af24d5ec173454e926a89e4e20388ac90063ac2012103ffbc4c83f94dc55f31df9f888aa09440cf6a7679d371a9bf09690ecb0d275e78ffffffff0239fa0700000000001976a91452b33eaf8b90c85362880b211c229b01a4c13f8488ac8e5bae01000000001976a914c68be2a4bab276e383f93b0785eb2c4ef6acaf4c88ac00000000", "vin": [{"sequence": 4294967295, "scriptSig": {"hex": "483045022100ff1d4e0ea9eb1e6ecd90c1bc6be565dfd6a7acc8354469574a0052925a02f6dc0220212536ebd2bd27771d23dbbc0af24d5ec173454e926a89e4e20388ac90063ac2012103ffbc4c83f94dc55f31df9f888aa09440cf6a7679d371a9bf09690ecb0d275e78", "asm": "3045022100ff1d4e0ea9eb1e6ecd90c1bc6be565dfd6a7acc8354469574a0052925a02f6dc0220212536ebd2bd27771d23dbbc0af24d5ec173454e926a89e4e20388ac90063ac2[ALL] 03ffbc4c83f94dc55f31df9f888aa09440cf6a7679d371a9bf09690ecb0d275e78"}, "vout": 1, "txid": "e4454e3f3e96a15a6454d9921d54fd968cd161e1b7b2ed5ec491f1b258df98e9"}], "txid": "daa44c4207c7c93246481887dfdef3c79c41eea75c7a825e2c32a3d221ca09e1", "blocktime": 1537871767, "version": 1, "confirmations": 11495, "time": 1537871767, "locktime": 0, "vsize": 226, "size": 226}