{"hash": "d99cb0576a7f6873bb4087d244a6a67f2b86057161218220e6e311cce833e912", "blockhash": "0000000000000000000e13cef7c366c0283d82e591d1acd082e914b08063cdf1", "vout": [{"scriptPubKey": {"reqSigs": 1, "hex": "a914400393840598857b4fbbc961129562fe0fc5790787", "addresses": ["37XVTJTzHMSSqHkUEBRcqz2B2uNHLe5Qdm"], "asm": "OP_HASH160 400393840598857b4fbbc961129562fe0fc57907 OP_EQUAL", "type": "scripthash"}, "value": 0.01021093, "n": 0}, {"scriptPubKey": {"reqSigs": 1, "hex": "76a91499bfa0bc37d94f726eadd6d0638309fb0ac7f30e88ac", "addresses": ["1F1wwtWJAKrekQ3GqwgvNsbd67Gzi4XoVg"], "asm": "OP_DUP OP_HASH160 99bfa0bc37d94f726eadd6d0638309fb0ac7f30e OP_EQUALVERIFY OP_CHECKSIG", "type": "pubkeyhash"}, "value": 0.0017146, "n": 1}], "hex": "020000000001025b9615c3e21dfedb62485e24faf18782da51e8ebeb051ab7b69526ff12d9014b0000000017160014361517f3aa0fcf9f19bfc76e35061c17ec6a5b4bfeffffffbf34756785a2065b9e0699a6d8e5f414d86e0ca5aaa726de9ad19818c62581e80800000017160014406a70edbf0e77001577aac0d5876fd5201ce28dfeffffff02a5940f000000000017a914400393840598857b4fbbc961129562fe0fc5790787c49d0200000000001976a91499bfa0bc37d94f726eadd6d0638309fb0ac7f30e88ac02483045022100d509c6e9c4b60b5b1903116fee3372d2054c83ea5f6db2b4ad04c2ff7846c946022052cce61e67b1ca6c20d9a70b46416093287cf956e53d180ec8030b8f80081306012102686945cfd57bb4c36db579ab4d9636895e1467c06a7313ce8684e38933060d700247304402207b3b332e4f307cc759d2ea633edb7597cdc74685a13ed305b9941746204b4681022040d4776f2e80c90589b1a7df875e7ce8cb53961886f29f9fac6c7176377c88b301210273056327179f2722e6f3688a663ded081f61d574286f064d46f279a0eed0db3810490800", "vin": [{"txinwitness": ["3045022100d509c6e9c4b60b5b1903116fee3372d2054c83ea5f6db2b4ad04c2ff7846c946022052cce61e67b1ca6c20d9a70b46416093287cf956e53d180ec8030b8f8008130601", "02686945cfd57bb4c36db579ab4d9636895e1467c06a7313ce8684e38933060d70"], "sequence": 4294967294, "scriptSig": {"hex": "160014361517f3aa0fcf9f19bfc76e35061c17ec6a5b4b", "asm": "0014361517f3aa0fcf9f19bfc76e35061c17ec6a5b4b"}, "vout": 0, "txid": "4b01d912ff2695b6b71a05ebebe851da8287f1fa245e4862dbfe1de2c315965b"}, {"txinwitness": ["304402207b3b332e4f307cc759d2ea633edb7597cdc74685a13ed305b9941746204b4681022040d4776f2e80c90589b1a7df875e7ce8cb53961886f29f9fac6c7176377c88b301", "0273056327179f2722e6f3688a663ded081f61d574286f064d46f279a0eed0db38"], "sequence": 4294967294, "scriptSig": {"hex": "160014406a70edbf0e77001577aac0d5876fd5201ce28d", "asm": "0014406a70edbf0e77001577aac0d5876fd5201ce28d"}, "vout": 8, "txid": "e88125c61898d19ade26a7aaa50c6ed814f4e5d8a699069e5b06a285677534bf"}], "txid": "daad3e9f33ef655202d821629dee639c3ef8696c8b4e9ac4c88b6613a4abb6f3", "blocktime": 1537871767, "version": 2, "confirmations": 11495, "time": 1537871767, "locktime": 542992, "vsize": 259, "size": 421}