{"hash": "dabafd175d76388a92025c60635dbec2f5bd64536a7fea4339668e25f3505795", "blockhash": "0000000000000000001f0ddff1eddb255c1121bcd4da4f1bc9a0da00cae72433", "vout": [{"scriptPubKey": {"reqSigs": 1, "hex": "76a9144327049a7c5212a5220fb82023ffa8e38afd79b688ac", "addresses": ["17851sSF9d3F8Vd68cprjPum7N6uQESzua"], "asm": "OP_DUP OP_HASH160 4327049a7c5212a5220fb82023ffa8e38afd79b6 OP_EQUALVERIFY OP_CHECKSIG", "type": "pubkeyhash"}, "value": 0.00641794, "n": 0}, {"scriptPubKey": {"type": "nulldata", "hex": "6a4c50000077a900013f28305dd15bb3407afe8d20af6c953dd567cf27e7e3ef3236678a6250975e4d5b8dfd28209081d9196931d189995baa10040612fa8b53ccfddc1d100759d4ba30d2c37bb011d97e02cf", "asm": "OP_RETURN 000077a900013f28305dd15bb3407afe8d20af6c953dd567cf27e7e3ef3236678a6250975e4d5b8dfd28209081d9196931d189995baa10040612fa8b53ccfddc1d100759d4ba30d2c37bb011d97e02cf"}, "value": 0.0, "n": 1}], "hex": "0100000001542e9275446c413cfac3574a8587364a0ff8f2591a4e117c8c4cad5d8cc1c49d010000006a47304402200ae9ffb72dae62c4d6f899f658847501d3d82d58044f4cf8ee6ac80826d145e90220637da583dcb88b8632d4072af998aca6844b354521a48507b36794c1a6fb92cb0121022c45fd151a5a5e9c693c861b58850a5b5331064d95ee5195554bd5dc62265e42ffffffff0202cb0900000000001976a9144327049a7c5212a5220fb82023ffa8e38afd79b688ac0000000000000000536a4c50000077a900013f28305dd15bb3407afe8d20af6c953dd567cf27e7e3ef3236678a6250975e4d5b8dfd28209081d9196931d189995baa10040612fa8b53ccfddc1d100759d4ba30d2c37bb011d97e02cf00000000", "vin": [{"sequence": 4294967295, "scriptSig": {"hex": "47304402200ae9ffb72dae62c4d6f899f658847501d3d82d58044f4cf8ee6ac80826d145e90220637da583dcb88b8632d4072af998aca6844b354521a48507b36794c1a6fb92cb0121022c45fd151a5a5e9c693c861b58850a5b5331064d95ee5195554bd5dc62265e42", "asm": "304402200ae9ffb72dae62c4d6f899f658847501d3d82d58044f4cf8ee6ac80826d145e90220637da583dcb88b8632d4072af998aca6844b354521a48507b36794c1a6fb92cb[ALL] 022c45fd151a5a5e9c693c861b58850a5b5331064d95ee5195554bd5dc62265e42"}, "vout": 1, "txid": "9dc4c18c5dad4c8c7c114e1a59f2f80f4a3687854a57c3fa3c416c4475922e54"}], "txid": "dabafd175d76388a92025c60635dbec2f5bd64536a7fea4339668e25f3505795", "blocktime": 1537872018, "version": 1, "confirmations": 11489, "time": 1537872018, "locktime": 0, "vsize": 283, "size": 283}