{"hash": "324db72841cb22f10fbd4ec17d184ff140f35ecdd6fa7d72291ee301bef4c996", "blockhash": "0000000000000000000e13cef7c366c0283d82e591d1acd082e914b08063cdf1", "vout": [{"scriptPubKey": {"reqSigs": 1, "hex": "76a914658bc2e4001cfacc64a3e041943e921b3086737588ac", "addresses": ["1AFvgAG4FN8fhtp3ZtSF8hsmKvPTDiB4RV"], "asm": "OP_DUP OP_HASH160 658bc2e4001cfacc64a3e041943e921b30867375 OP_EQUALVERIFY OP_CHECKSIG", "type": "pubkeyhash"}, "value": 3.27e-05, "n": 0}, {"scriptPubKey": {"reqSigs": 1, "hex": "a9148ddb66c3371910a0ef8f38021cc4094e61e69f3a87", "addresses": ["3Ed62sPENkraPwpovPty9YMFGJ8FtTyv63"], "asm": "OP_HASH160 8ddb66c3371910a0ef8f38021cc4094e61e69f3a OP_EQUAL", "type": "scripthash"}, "value": 0.0003292, "n": 1}], "hex": "01000000000101d79ffcc54407a6f5074f1375d27db76e24bf4d18ee36d566fd9907834c3278ef0100000023220020fdd23d707f55451c4e006c77b5e8df35a185a8e99f9bda70bf0ded7913bb1eb3ffffffff02c60c0000000000001976a914658bc2e4001cfacc64a3e041943e921b3086737588ac988000000000000017a9148ddb66c3371910a0ef8f38021cc4094e61e69f3a870400473044022043bc57fd3b29ebc8f3a81031fd7f780a050748fccd596cc38c18dea00c07dcff0220110bb6fc891cd2d763321ea29717a942318190d0d48fb5dd22b40ca8399b0a14014730440220352f8d63619f33756134e720e0de12ecb7d2b2037356b79c29e5e3e5ecefc2c3022006a139ede011c43ad44f12b4e5c13ab0d3036a4d2308852d3ed66e64be9071a2014752210286c104577b978160849865bc23f9a6df9b53d41c8ffb486754b97b2a474a181c2103148c80a5bdfddb05ff5bcffc397c8ca748d8b435ec6a175bc9d7bfc7fc6f853752ae00000000", "vin": [{"txinwitness": ["", "3044022043bc57fd3b29ebc8f3a81031fd7f780a050748fccd596cc38c18dea00c07dcff0220110bb6fc891cd2d763321ea29717a942318190d0d48fb5dd22b40ca8399b0a1401", "30440220352f8d63619f33756134e720e0de12ecb7d2b2037356b79c29e5e3e5ecefc2c3022006a139ede011c43ad44f12b4e5c13ab0d3036a4d2308852d3ed66e64be9071a201", "52210286c104577b978160849865bc23f9a6df9b53d41c8ffb486754b97b2a474a181c2103148c80a5bdfddb05ff5bcffc397c8ca748d8b435ec6a175bc9d7bfc7fc6f853752ae"], "sequence": 4294967295, "scriptSig": {"hex": "220020fdd23d707f55451c4e006c77b5e8df35a185a8e99f9bda70bf0ded7913bb1eb3", "asm": "0020fdd23d707f55451c4e006c77b5e8df35a185a8e99f9bda70bf0ded7913bb1eb3"}, "vout": 1, "txid": "ef78324c830799fd66d536ee184dbf246eb77dd275134f07f5a60744c5fc9fd7"}], "txid": "dabc0c0fd7acd65778c416ad7ac58f52def11f1c1979d56034eac68c8c8027a1", "blocktime": 1537871767, "version": 1, "confirmations": 11495, "time": 1537871767, "locktime": 0, "vsize": 207, "size": 372}