{"hash": "dac08daa26269257d9aab44149adbb1f44bf410a656c4549037a9f63451d1c49", "blockhash": "0000000000000000000baef3f32e3676a92c3b2e5da21b426e4f302fc371ce76", "vout": [{"scriptPubKey": {"reqSigs": 1, "hex": "76a9142d4f942f2f6a6801cac22d406cd50eb88d3e22c988ac", "addresses": ["158ajsK7SUaSdm79c8g97hE8wkc6XnVeNu"], "asm": "OP_DUP OP_HASH160 2d4f942f2f6a6801cac22d406cd50eb88d3e22c9 OP_EQUALVERIFY OP_CHECKSIG", "type": "pubkeyhash"}, "value": 0.002215, "n": 0}, {"scriptPubKey": {"reqSigs": 1, "hex": "76a91459bd6b15c7aa7dd33f44aae91b9518aa4a7ddfdd88ac", "addresses": ["19BW464KmDPaRq2sX3bGw49QGRqAvmEBep"], "asm": "OP_DUP OP_HASH160 59bd6b15c7aa7dd33f44aae91b9518aa4a7ddfdd OP_EQUALVERIFY OP_CHECKSIG", "type": "pubkeyhash"}, "value": 0.01456035, "n": 1}], "hex": "01000000010291b40e1b1fb45d7b5ec2596bc543b3c8ab9e1d5a020c4ecf6e2dbd9fba79f3010000006a473044022055bd50340cdfcf8dbc168716b81e43aa9f29664a0fb180a87a82b2ef180927cb0220781c2d9923730f213024bdc70dac1aebc9d128fa6e4af883cde1cb3f1459bf0601210264fa4c707fb4240c8395d6ba671619f57dee27e1fdf45ea38893f5a4d1424a12ffffffff023c610300000000001976a9142d4f942f2f6a6801cac22d406cd50eb88d3e22c988aca3371600000000001976a91459bd6b15c7aa7dd33f44aae91b9518aa4a7ddfdd88ac00000000", "vin": [{"sequence": 4294967295, "scriptSig": {"hex": "473044022055bd50340cdfcf8dbc168716b81e43aa9f29664a0fb180a87a82b2ef180927cb0220781c2d9923730f213024bdc70dac1aebc9d128fa6e4af883cde1cb3f1459bf0601210264fa4c707fb4240c8395d6ba671619f57dee27e1fdf45ea38893f5a4d1424a12", "asm": "3044022055bd50340cdfcf8dbc168716b81e43aa9f29664a0fb180a87a82b2ef180927cb0220781c2d9923730f213024bdc70dac1aebc9d128fa6e4af883cde1cb3f1459bf06[ALL] 0264fa4c707fb4240c8395d6ba671619f57dee27e1fdf45ea38893f5a4d1424a12"}, "vout": 1, "txid": "f379ba9fbd2d6ecf4e0c025a1d9eabc8b343c56b59c25e7b5db41f1b0eb49102"}], "txid": "dac08daa26269257d9aab44149adbb1f44bf410a656c4549037a9f63451d1c49", "blocktime": 1537876114, "version": 1, "confirmations": 11460, "time": 1537876114, "locktime": 0, "vsize": 225, "size": 225}