{"hash": "dadf700cbf587b54492329258461439a088dec2285f0a2eb7f257e115495c6e1", "blockhash": "0000000000000000000e13cef7c366c0283d82e591d1acd082e914b08063cdf1", "vout": [{"scriptPubKey": {"reqSigs": 1, "hex": "76a9148ce790fec3ff107757d4579ddf0c24e73f37fb8588ac", "addresses": ["1Dr31NWnpCjrJW4txsZdG1Qf7bEYG41R6B"], "asm": "OP_DUP OP_HASH160 8ce790fec3ff107757d4579ddf0c24e73f37fb85 OP_EQUALVERIFY OP_CHECKSIG", "type": "pubkeyhash"}, "value": 0.001, "n": 0}, {"scriptPubKey": {"reqSigs": 1, "hex": "a914892a99ddf22e98ab5a86a1b82cac0fec8ca5600587", "addresses": ["3ECHXoAvzXroGYqrPUprp7bCJwYMpNzQeU"], "asm": "OP_HASH160 892a99ddf22e98ab5a86a1b82cac0fec8ca56005 OP_EQUAL", "type": "scripthash"}, "value": 0.002275, "n": 1}, {"scriptPubKey": {"reqSigs": 1, "hex": "a9146cc22235a6efa0b2b781c6e32a129213a6e2b3f487", "addresses": ["3Bc5TuJcb86g8rAsoSgWoVV4uSN5n9m6SM"], "asm": "OP_HASH160 6cc22235a6efa0b2b781c6e32a129213a6e2b3f4 OP_EQUAL", "type": "scripthash"}, "value": 0.00398854, "n": 2}], "hex": "0100000001869128dc61f340499a7bae8a863d0a4e235d352ff3f289a3c4ba94384d9d983100000000fdfd0000483045022100b5dd25b9ca18b811b9ee2deb157e782e05eab8fe5600b7f854cc465941f819c50220024ec6472b31fffdb3c7693b3266d968688b88b2e0124210489268ad2204765f0147304402201056e4047f156921efea009a9d075bbf78790e18d55eecdef576c23a84f7a9550220765997aa92e34381729a470547b35ccd5e54458ca358c068d717ba61e8c52ba1014c69522102fbc4d0256ec394e0ede91e8a6b3549e5590d8876a7e12d29f9053e81c10eaf0221035ce09d68d131e331e3873a5caab1986e6ccff24977b083ab1e77f1c9da3584cc2103f6440381aaaaec434e58db7cecc54460e3f2392e154b6272708ec66e28259e1a53aefdffffff03a0860100000000001976a9148ce790fec3ff107757d4579ddf0c24e73f37fb8588acac7803000000000017a914892a99ddf22e98ab5a86a1b82cac0fec8ca5600587061606000000000017a9146cc22235a6efa0b2b781c6e32a129213a6e2b3f4870f490800", "vin": [{"sequence": 4294967293, "scriptSig": {"hex": "00483045022100b5dd25b9ca18b811b9ee2deb157e782e05eab8fe5600b7f854cc465941f819c50220024ec6472b31fffdb3c7693b3266d968688b88b2e0124210489268ad2204765f0147304402201056e4047f156921efea009a9d075bbf78790e18d55eecdef576c23a84f7a9550220765997aa92e34381729a470547b35ccd5e54458ca358c068d717ba61e8c52ba1014c69522102fbc4d0256ec394e0ede91e8a6b3549e5590d8876a7e12d29f9053e81c10eaf0221035ce09d68d131e331e3873a5caab1986e6ccff24977b083ab1e77f1c9da3584cc2103f6440381aaaaec434e58db7cecc54460e3f2392e154b6272708ec66e28259e1a53ae", "asm": "0 3045022100b5dd25b9ca18b811b9ee2deb157e782e05eab8fe5600b7f854cc465941f819c50220024ec6472b31fffdb3c7693b3266d968688b88b2e0124210489268ad2204765f[ALL] 304402201056e4047f156921efea009a9d075bbf78790e18d55eecdef576c23a84f7a9550220765997aa92e34381729a470547b35ccd5e54458ca358c068d717ba61e8c52ba1[ALL] 522102fbc4d0256ec394e0ede91e8a6b3549e5590d8876a7e12d29f9053e81c10eaf0221035ce09d68d131e331e3873a5caab1986e6ccff24977b083ab1e77f1c9da3584cc2103f6440381aaaaec434e58db7cecc54460e3f2392e154b6272708ec66e28259e1a53ae"}, "vout": 0, "txid": "31989d4d3894bac4a389f2f32f355d234e0a3d868aae7b9a4940f361dc289186"}], "txid": "dadf700cbf587b54492329258461439a088dec2285f0a2eb7f257e115495c6e1", "blocktime": 1537871767, "version": 1, "confirmations": 11493, "time": 1537871767, "locktime": 542991, "vsize": 404, "size": 404}