{"hash": "daebeb871e5bd93b935f92b9541ec85a25aeff3339d060bcbfc9655f534da1f4", "blockhash": "00000000000000000024a2167bbff67b0be802c0b01cdd79e6331c2be6459f87", "vout": [{"scriptPubKey": {"reqSigs": 1, "hex": "76a9142d8ba6bb6057832e339143abc72d541da624a47388ac", "addresses": ["159phmveFX3JSUTZzuk57m7YYNhCmMoPKr"], "asm": "OP_DUP OP_HASH160 2d8ba6bb6057832e339143abc72d541da624a473 OP_EQUALVERIFY OP_CHECKSIG", "type": "pubkeyhash"}, "value": 1.992e-05, "n": 0}, {"scriptPubKey": {"reqSigs": 1, "hex": "a914c6288d82266c473d47aed03018278c1f52cb7f0387", "addresses": ["3KknJBVxMKC7Cs7MWyDQjbmvtKTDuC8aES"], "asm": "OP_HASH160 c6288d82266c473d47aed03018278c1f52cb7f03 OP_EQUAL", "type": "scripthash"}, "value": 5e-05, "n": 1}], "hex": "01000000025a56cc04b6ca94bb5e74d469f3cbf5ec5d407dddf1b647a28d9d725bb8fcb81a030000006a473044022039941adc146869565d04a42636a869ba8a4ceda51b780fc1fcfbaf714f54f0fc022063735eed0cc2a7028b7a2a34ad5e15fd15f82abfe87ec1accdaf04918fea9b6b012102553449229868306478a1077deb0c0f73003708a6968b03889e7581135921a730ffffffff38654f9d39f30823eaf88c39c0224c5d8da508ccbe8f27b0af9c3520d8f98dca060000006a473044022028a0db8a5a7f91a28c2966749f12a4dd25d8805aed3afc66e494183300b6346a0220798e5cb11426a8ecf056457f621ae905088975f1b92cf913f7e6a553148705ac01210330e8626c456f22d2f05a6b8af2836d391f83f9cb87217197fd0a9daff658d23affffffff02c8070000000000001976a9142d8ba6bb6057832e339143abc72d541da624a47388ac881300000000000017a914c6288d82266c473d47aed03018278c1f52cb7f038700000000", "vin": [{"sequence": 4294967295, "scriptSig": {"hex": "473044022039941adc146869565d04a42636a869ba8a4ceda51b780fc1fcfbaf714f54f0fc022063735eed0cc2a7028b7a2a34ad5e15fd15f82abfe87ec1accdaf04918fea9b6b012102553449229868306478a1077deb0c0f73003708a6968b03889e7581135921a730", "asm": "3044022039941adc146869565d04a42636a869ba8a4ceda51b780fc1fcfbaf714f54f0fc022063735eed0cc2a7028b7a2a34ad5e15fd15f82abfe87ec1accdaf04918fea9b6b[ALL] 02553449229868306478a1077deb0c0f73003708a6968b03889e7581135921a730"}, "vout": 3, "txid": "1ab8fcb85b729d8da247b6f1dd7d405decf5cbf369d4745ebb94cab604cc565a"}, {"sequence": 4294967295, "scriptSig": {"hex": "473044022028a0db8a5a7f91a28c2966749f12a4dd25d8805aed3afc66e494183300b6346a0220798e5cb11426a8ecf056457f621ae905088975f1b92cf913f7e6a553148705ac01210330e8626c456f22d2f05a6b8af2836d391f83f9cb87217197fd0a9daff658d23a", "asm": "3044022028a0db8a5a7f91a28c2966749f12a4dd25d8805aed3afc66e494183300b6346a0220798e5cb11426a8ecf056457f621ae905088975f1b92cf913f7e6a553148705ac[ALL] 0330e8626c456f22d2f05a6b8af2836d391f83f9cb87217197fd0a9daff658d23a"}, "vout": 6, "txid": "ca8df9d820359cafb0278fbecc08a58d5d4c22c0398cf8ea2308f3399d4f6538"}], "txid": "daebeb871e5bd93b935f92b9541ec85a25aeff3339d060bcbfc9655f534da1f4", "blocktime": 1537870564, "version": 1, "confirmations": 11515, "time": 1537870564, "locktime": 0, "vsize": 370, "size": 370}