{"hash": "daef0435b97c9c9bcecf6c93daed4bf53f91b7e3d249aa711659823cc87e1221", "blockhash": "0000000000000000000dcc0f55137456b1a82d3642486a52398922ac4d620174", "vout": [{"scriptPubKey": {"reqSigs": 1, "hex": "a914d3884af938fb03333cb3ab367d988aaa90e098a987", "addresses": ["3LyVmpBTz7vkhK8GejPcyNk8A9G7WAZtXx"], "asm": "OP_HASH160 d3884af938fb03333cb3ab367d988aaa90e098a9 OP_EQUAL", "type": "scripthash"}, "value": 0.0684, "n": 0}, {"scriptPubKey": {"reqSigs": 1, "hex": "a914ddcf6291ca377f8500b7c153f75ba1bdb9d9de1387", "addresses": ["3MuqhJYSTdnfgQjbTyNiqStCNq47pbqWvn"], "asm": "OP_HASH160 ddcf6291ca377f8500b7c153f75ba1bdb9d9de13 OP_EQUAL", "type": "scripthash"}, "value": 1.1215668, "n": 1}, {"scriptPubKey": {"reqSigs": 1, "hex": "a9142e96d373880aa57c1722ac817e08a9b53cc8902287", "addresses": ["35wMgwXMiWeDX8zqT5NDdoGnKuDfYvs1pJ"], "asm": "OP_HASH160 2e96d373880aa57c1722ac817e08a9b53cc89022 OP_EQUAL", "type": "scripthash"}, "value": 0.81, "n": 2}], "hex": "0200000001bba521a82f52ac8073420fbe4eef6b3c17efb8783a9d7d6e9c3ed7ecc64e1b191b000000fdfd0000483045022100cf44759fd23ed5064f5eda3e8b16b96aed1b83485ab67cb9abd204d15d67f4ef022018ba40601a5f207abee8a0dc82e5e067515f6ea3fa37c48410bb10d703b84ec201473044022045302813f31997ed7e3183cd88eed3a4b7d9efd78026fa0035e626ae545d1d5302207050bf7ad6ea3051798c34c457142727801305572b14fb142c67372c134a0299014c69522103ba40505bbd5685fff5cda50745ee5cba325a7194251177046405e54ed90045e62102e985526c154bc8b9fd59566897e1991a50745be1182db5a39ddc3bf1a4467e3d21027866f2c60f639fdf45977fac2490064a661d4c2a36fba95556108d1f1109feec53ae0000000003c05e68000000000017a914d3884af938fb03333cb3ab367d988aaa90e098a9870860af060000000017a914ddcf6291ca377f8500b7c153f75ba1bdb9d9de138740f6d3040000000017a9142e96d373880aa57c1722ac817e08a9b53cc890228700000000", "vin": [{"sequence": 0, "scriptSig": {"hex": "00483045022100cf44759fd23ed5064f5eda3e8b16b96aed1b83485ab67cb9abd204d15d67f4ef022018ba40601a5f207abee8a0dc82e5e067515f6ea3fa37c48410bb10d703b84ec201473044022045302813f31997ed7e3183cd88eed3a4b7d9efd78026fa0035e626ae545d1d5302207050bf7ad6ea3051798c34c457142727801305572b14fb142c67372c134a0299014c69522103ba40505bbd5685fff5cda50745ee5cba325a7194251177046405e54ed90045e62102e985526c154bc8b9fd59566897e1991a50745be1182db5a39ddc3bf1a4467e3d21027866f2c60f639fdf45977fac2490064a661d4c2a36fba95556108d1f1109feec53ae", "asm": "0 3045022100cf44759fd23ed5064f5eda3e8b16b96aed1b83485ab67cb9abd204d15d67f4ef022018ba40601a5f207abee8a0dc82e5e067515f6ea3fa37c48410bb10d703b84ec2[ALL] 3044022045302813f31997ed7e3183cd88eed3a4b7d9efd78026fa0035e626ae545d1d5302207050bf7ad6ea3051798c34c457142727801305572b14fb142c67372c134a0299[ALL] 522103ba40505bbd5685fff5cda50745ee5cba325a7194251177046405e54ed90045e62102e985526c154bc8b9fd59566897e1991a50745be1182db5a39ddc3bf1a4467e3d21027866f2c60f639fdf45977fac2490064a661d4c2a36fba95556108d1f1109feec53ae"}, "vout": 27, "txid": "191b4ec6ecd73e9c6e7d9d3a78b8ef173c6bef4ebe0f427380ac522fa821a5bb"}], "txid": "daef0435b97c9c9bcecf6c93daed4bf53f91b7e3d249aa711659823cc87e1221", "blocktime": 1537870268, "version": 2, "confirmations": 11516, "time": 1537870268, "locktime": 0, "vsize": 402, "size": 402}