{"hash": "4bf17b80923bb73bd6cf65707189c25a7f89459b929fa84818b21fa634e92e32", "blockhash": "00000000000000000004ffacab907a6b429b9a5745fa0b75af4234bf69dd7176", "vout": [{"scriptPubKey": {"reqSigs": 1, "hex": "76a91445dca801e855882ad189fdd9776561b8a3bc2dd388ac", "addresses": ["17NPxho52EnZAcb8wNaJeTBPpyommvXMvA"], "asm": "OP_DUP OP_HASH160 45dca801e855882ad189fdd9776561b8a3bc2dd3 OP_EQUALVERIFY OP_CHECKSIG", "type": "pubkeyhash"}, "value": 0.025007, "n": 0}, {"scriptPubKey": {"reqSigs": 1, "hex": "a914dee0a1cc9f055700143e0f4ecee53180ab3530dc87", "addresses": ["3N1V2qWA5hpScEmS72pMooYRmXUiLmwPQQ"], "asm": "OP_HASH160 dee0a1cc9f055700143e0f4ecee53180ab3530dc OP_EQUAL", "type": "scripthash"}, "value": 0.85278078, "n": 1}], "hex": "0200000000010136a6432d892107b189d0a26427a4a2398ce96e3c925f4c69711e2188f6c0b4690100000017160014cb5dbe423de4d42b6425c6921084c6197a5d2937ffffffff025c282600000000001976a91445dca801e855882ad189fdd9776561b8a3bc2dd388ac7e3d15050000000017a914dee0a1cc9f055700143e0f4ecee53180ab3530dc8702483045022100d774a7bb61c066d9fe576480c64a52e12f1e053f42e8efd8b1939ee7a8c7898c02205971bc5abe10b2bc4f1077042859d6fd40a7faea77158087fbaf6727288594bb012102acecad485eda786cbe0422823b7594aea6854abb5ec85e267f1c4b87f3f758f700000000", "vin": [{"txinwitness": ["3045022100d774a7bb61c066d9fe576480c64a52e12f1e053f42e8efd8b1939ee7a8c7898c02205971bc5abe10b2bc4f1077042859d6fd40a7faea77158087fbaf6727288594bb01", "02acecad485eda786cbe0422823b7594aea6854abb5ec85e267f1c4b87f3f758f7"], "sequence": 4294967295, "scriptSig": {"hex": "160014cb5dbe423de4d42b6425c6921084c6197a5d2937", "asm": "0014cb5dbe423de4d42b6425c6921084c6197a5d2937"}, "vout": 1, "txid": "69b4c0f688211e71694c5f923c6ee98c39a2a42764a2d089b10721892d43a636"}], "txid": "daf4205287937add6d63bcaac03385291f7abd3604e98d117c4245b5bae8c94b", "blocktime": 1537875543, "version": 2, "confirmations": 11464, "time": 1537875543, "locktime": 0, "vsize": 168, "size": 250}