{"hash": "d110bdc48a5eba58fb0d92d49fff8686b51fb6c68767aef147ec0226f0d53e5d", "blockhash": "0000000000000000001cda96e906b7601b7a6fb1a3b62bca570a9e5d8f4b3de1", "vout": [{"scriptPubKey": {"reqSigs": 1, "hex": "0014d3b8b43c63385165ca12ef70dc98fa6506f7fd49", "addresses": ["bc1q6wutg0rr8pgktjsjaacdex86v5r00l2fk28vpd"], "asm": "0 d3b8b43c63385165ca12ef70dc98fa6506f7fd49", "type": "witness_v0_keyhash"}, "value": 0.00022106, "n": 0}, {"scriptPubKey": {"reqSigs": 1, "hex": "76a914079c56df1570d1f0de514e3ab12c7d85dcde069788ac", "addresses": ["1hF1zThPfbvBeZHoYSSXmmCkTXqvxEs73"], "asm": "OP_DUP OP_HASH160 079c56df1570d1f0de514e3ab12c7d85dcde0697 OP_EQUALVERIFY OP_CHECKSIG", "type": "pubkeyhash"}, "value": 0.00359207, "n": 1}], "hex": "01000000000101834ce655511d4f760c72a42e7d60555877bdb8e87311f68f5a146ab9c5162b980000000000ffffffff025a56000000000000160014d3b8b43c63385165ca12ef70dc98fa6506f7fd49277b0500000000001976a914079c56df1570d1f0de514e3ab12c7d85dcde069788ac02483045022100b52bebdec977ee83e1f954ea7a3935c5359491a862a368093b5c068d28065de20220622669f7b3aa34e18771a401c36b1b08c0bc8550c09543be518bdcd406d71e6d01210250f72e848513269f27ec05a450fceab3faadfec96c8eaebc95f7441645bce09600000000", "vin": [{"txinwitness": ["3045022100b52bebdec977ee83e1f954ea7a3935c5359491a862a368093b5c068d28065de20220622669f7b3aa34e18771a401c36b1b08c0bc8550c09543be518bdcd406d71e6d01", "0250f72e848513269f27ec05a450fceab3faadfec96c8eaebc95f7441645bce096"], "sequence": 4294967295, "scriptSig": {"hex": "", "asm": ""}, "vout": 0, "txid": "982b16c5b96a145a8ff61173e8b8bd775855607d2ea4720c764f1d5155e64c83"}], "txid": "daf80deb8ccdb7946f77575e2f54ec02ff4a4aa5146203037a0176b2756e1b80", "blocktime": 1537873282, "version": 1, "confirmations": 11484, "time": 1537873282, "locktime": 0, "vsize": 144, "size": 226}