{"hash": "daf95feb74c17afdb0406397455fb89d8cae15ef89584e12669a13f550bc13bf", "blockhash": "0000000000000000000dcc0f55137456b1a82d3642486a52398922ac4d620174", "vout": [{"scriptPubKey": {"reqSigs": 1, "hex": "76a9144e8ef957da7fe6f638cf6df127f904d57941854288ac", "addresses": ["18ANyyGqRrgJu21D3iVD2H13QfWDcJtDTV"], "asm": "OP_DUP OP_HASH160 4e8ef957da7fe6f638cf6df127f904d579418542 OP_EQUALVERIFY OP_CHECKSIG", "type": "pubkeyhash"}, "value": 0.00155913, "n": 0}, {"scriptPubKey": {"reqSigs": 1, "hex": "76a91486b5fe45f7a919465d50a91c03b958b830d06e0588ac", "addresses": ["1DHHZpTr8yZzUbY6q1wpdWSZUCDwyuVkNg"], "asm": "OP_DUP OP_HASH160 86b5fe45f7a919465d50a91c03b958b830d06e05 OP_EQUALVERIFY OP_CHECKSIG", "type": "pubkeyhash"}, "value": 0.00242698, "n": 1}], "hex": "0100000001f696d102e660e278867aed428b7fdc20485653f3414f735e503adccab8a2513a010000006b483045022100ddcfbc11a05ae363c705adda5ffd2f547a676434a6155e1947764028544c27ba02207fd5289ac7ab27e8c69d982fbb2a7e8cca9140b1bbf7f02c7c71f9e3e3aed4b601210214bed5b2f8c10544e3fcd6982d5b65027cdc50ca79a0a58677b7332aa0f76fd2ffffffff0209610200000000001976a9144e8ef957da7fe6f638cf6df127f904d57941854288ac0ab40300000000001976a91486b5fe45f7a919465d50a91c03b958b830d06e0588ac00000000", "vin": [{"sequence": 4294967295, "scriptSig": {"hex": "483045022100ddcfbc11a05ae363c705adda5ffd2f547a676434a6155e1947764028544c27ba02207fd5289ac7ab27e8c69d982fbb2a7e8cca9140b1bbf7f02c7c71f9e3e3aed4b601210214bed5b2f8c10544e3fcd6982d5b65027cdc50ca79a0a58677b7332aa0f76fd2", "asm": "3045022100ddcfbc11a05ae363c705adda5ffd2f547a676434a6155e1947764028544c27ba02207fd5289ac7ab27e8c69d982fbb2a7e8cca9140b1bbf7f02c7c71f9e3e3aed4b6[ALL] 0214bed5b2f8c10544e3fcd6982d5b65027cdc50ca79a0a58677b7332aa0f76fd2"}, "vout": 1, "txid": "3a51a2b8cadc3a505e734f41f353564820dc7f8b42ed7a8678e260e602d196f6"}], "txid": "daf95feb74c17afdb0406397455fb89d8cae15ef89584e12669a13f550bc13bf", "blocktime": 1537870268, "version": 1, "confirmations": 11517, "time": 1537870268, "locktime": 0, "vsize": 226, "size": 226}