{"hash": "daff2a0f3bc3de6c4072f819def65949c3b9a96a1f553a258904f137112a85c7", "blockhash": "000000000000000000022b45ed06c6f4ccd3cf7fb5ba4856ebd2e58215665228", "vout": [{"scriptPubKey": {"reqSigs": 1, "hex": "76a91475e4d3d355824c0ca22c485e4f060aa09da009f588ac", "addresses": ["1BkNBeuvHtpvPDLWG7JWjNMASF7CDzdVpq"], "asm": "OP_DUP OP_HASH160 75e4d3d355824c0ca22c485e4f060aa09da009f5 OP_EQUALVERIFY OP_CHECKSIG", "type": "pubkeyhash"}, "value": 0.00281262, "n": 0}, {"scriptPubKey": {"reqSigs": 1, "hex": "76a914ba48d3090f0bcc93b34873ba6450d4ac90d408dd88ac", "addresses": ["1Hyyvc7rpHsg1tgDw9ojbGkvVLTDU6sDkU"], "asm": "OP_DUP OP_HASH160 ba48d3090f0bcc93b34873ba6450d4ac90d408dd OP_EQUALVERIFY OP_CHECKSIG", "type": "pubkeyhash"}, "value": 5.46e-06, "n": 1}, {"scriptPubKey": {"type": "nulldata", "hex": "6a146f6d6e69000000000000001f0000000c2c47ec9a", "asm": "OP_RETURN 6f6d6e69000000000000001f0000000c2c47ec9a"}, "value": 0.0, "n": 2}], "hex": "0100000002eae7c7a7ff38b20afc9e0efcd68cb00729e2e988224c82bce8f6b8ae88ba29ba010000008b483045022100c882c4c9e726c036b70056b95387e4f9d2758029dbd85c42955487c41d61b6a802201e3ad50dd05a43504f2bb4cceca1acf5f0d7b7d5df9387555355e31f49256245014104ac4a486a136fc5f971e45ec4384779dc0d5622f7420f30aedf37e967628052b0bac3d1ccc89b33286c04f5fc6f29ef857cf84d65f7adeaed0e6e8b26e8366f59ffffffff5c50be66039ce8635e60c129833ac6a086b0f54a615db9f55b31964bfbed2e0a000000008b483045022100dd8a65f114c6df66a80880be19a4c2d8eaf76c0aa1a68273f1bc6fa7eaa35b5c02203457241f2fa71453f6030772ce112113c8225e8b25ed685382c620258ab62031014104ac4a486a136fc5f971e45ec4384779dc0d5622f7420f30aedf37e967628052b0bac3d1ccc89b33286c04f5fc6f29ef857cf84d65f7adeaed0e6e8b26e8366f59ffffffff03ae4a0400000000001976a91475e4d3d355824c0ca22c485e4f060aa09da009f588ac22020000000000001976a914ba48d3090f0bcc93b34873ba6450d4ac90d408dd88ac0000000000000000166a146f6d6e69000000000000001f0000000c2c47ec9a00000000", "vin": [{"sequence": 4294967295, "scriptSig": {"hex": "483045022100c882c4c9e726c036b70056b95387e4f9d2758029dbd85c42955487c41d61b6a802201e3ad50dd05a43504f2bb4cceca1acf5f0d7b7d5df9387555355e31f49256245014104ac4a486a136fc5f971e45ec4384779dc0d5622f7420f30aedf37e967628052b0bac3d1ccc89b33286c04f5fc6f29ef857cf84d65f7adeaed0e6e8b26e8366f59", "asm": "3045022100c882c4c9e726c036b70056b95387e4f9d2758029dbd85c42955487c41d61b6a802201e3ad50dd05a43504f2bb4cceca1acf5f0d7b7d5df9387555355e31f49256245[ALL] 04ac4a486a136fc5f971e45ec4384779dc0d5622f7420f30aedf37e967628052b0bac3d1ccc89b33286c04f5fc6f29ef857cf84d65f7adeaed0e6e8b26e8366f59"}, "vout": 1, "txid": "ba29ba88aeb8f6e8bc824c2288e9e22907b08cd6fc0e9efc0ab238ffa7c7e7ea"}, {"sequence": 4294967295, "scriptSig": {"hex": "483045022100dd8a65f114c6df66a80880be19a4c2d8eaf76c0aa1a68273f1bc6fa7eaa35b5c02203457241f2fa71453f6030772ce112113c8225e8b25ed685382c620258ab62031014104ac4a486a136fc5f971e45ec4384779dc0d5622f7420f30aedf37e967628052b0bac3d1ccc89b33286c04f5fc6f29ef857cf84d65f7adeaed0e6e8b26e8366f59", "asm": "3045022100dd8a65f114c6df66a80880be19a4c2d8eaf76c0aa1a68273f1bc6fa7eaa35b5c02203457241f2fa71453f6030772ce112113c8225e8b25ed685382c620258ab62031[ALL] 04ac4a486a136fc5f971e45ec4384779dc0d5622f7420f30aedf37e967628052b0bac3d1ccc89b33286c04f5fc6f29ef857cf84d65f7adeaed0e6e8b26e8366f59"}, "vout": 0, "txid": "0a2eedfb4b96315bf5b95d614af5b086a0c63a8329c1605e63e89c0366be505c"}], "txid": "daff2a0f3bc3de6c4072f819def65949c3b9a96a1f553a258904f137112a85c7", "blocktime": 1537869901, "version": 1, "confirmations": 11522, "time": 1537869901, "locktime": 0, "vsize": 469, "size": 469}