{"hash": "159f6be0861037fc8f968f28f97b985aed01f2ff4bfe07286bc233c960c8f0f8", "blockhash": "0000000000000000000baef3f32e3676a92c3b2e5da21b426e4f302fc371ce76", "vout": [{"scriptPubKey": {"reqSigs": 1, "hex": "76a914f3c72b0465803989181913efa60b6fff12c81f4a88ac", "addresses": ["1PDyo43hSAueEPabRwCWJ3KRLTHCK2v6ww"], "asm": "OP_DUP OP_HASH160 f3c72b0465803989181913efa60b6fff12c81f4a OP_EQUALVERIFY OP_CHECKSIG", "type": "pubkeyhash"}, "value": 4.292e-05, "n": 0}, {"scriptPubKey": {"reqSigs": 1, "hex": "a91449d7e96499e76d96ef877a2fcb98823c8bccba2187", "addresses": ["38RTuMXR3rjgmqC2TwiJHrCLzc9nbGoNw7"], "asm": "OP_HASH160 49d7e96499e76d96ef877a2fcb98823c8bccba21 OP_EQUAL", "type": "scripthash"}, "value": 0.0004845, "n": 1}], "hex": "010000000001018b6034557a536b78a7667233f6f7d23c3d34a0cb970fb797d0f9217c7cbb558100000000232200202a9a1aa43dd52fca361d638a9bb1c7c7a7b32bed598a04104268b8ecbdbfe96fffffffff02c4100000000000001976a914f3c72b0465803989181913efa60b6fff12c81f4a88ac42bd00000000000017a91449d7e96499e76d96ef877a2fcb98823c8bccba2187040047304402203b3a66baa533c0ac35bbb60049387b6ce0a41386eccfcd187c29e6031d4a6f6402204fc87a7df45b6476fd01ea79022eab5d675702fb2f8e5305816e42622bcbf10601483045022100ef5ea021d87bc72da34e860e60f0e1f8f785000bd83085fead261d1456bcb8570220588401b1fb319a60db0548a3bff970bde6521d0e017abfea2e3712e7664f6a5a0147522103ea39afa13bfc0b16775c1ffdd58dbb69a77441d8211cfd208f16ac7437c451312103338f346cab6ba87fe940591a03ac234be06520c5ab386d4b6632e8eef0d0db7652ae00000000", "vin": [{"txinwitness": ["", "304402203b3a66baa533c0ac35bbb60049387b6ce0a41386eccfcd187c29e6031d4a6f6402204fc87a7df45b6476fd01ea79022eab5d675702fb2f8e5305816e42622bcbf10601", "3045022100ef5ea021d87bc72da34e860e60f0e1f8f785000bd83085fead261d1456bcb8570220588401b1fb319a60db0548a3bff970bde6521d0e017abfea2e3712e7664f6a5a01", "522103ea39afa13bfc0b16775c1ffdd58dbb69a77441d8211cfd208f16ac7437c451312103338f346cab6ba87fe940591a03ac234be06520c5ab386d4b6632e8eef0d0db7652ae"], "sequence": 4294967295, "scriptSig": {"hex": "2200202a9a1aa43dd52fca361d638a9bb1c7c7a7b32bed598a04104268b8ecbdbfe96f", "asm": "00202a9a1aa43dd52fca361d638a9bb1c7c7a7b32bed598a04104268b8ecbdbfe96f"}, "vout": 0, "txid": "8155bb7c7c21f9d097b70f97cba0343d3cd2f7f6337266a7786b537a5534608b"}], "txid": "db025877e902db5a46cda318b2a686a8489e89a442bc0b3e5b8bf26cfd6294a4", "blocktime": 1537876114, "version": 1, "confirmations": 11462, "time": 1537876114, "locktime": 0, "vsize": 208, "size": 373}