{"hash": "6608f09c7cdc1b7335503213c7f4e41a2055748d3b90701b588e0dea1fc16d24", "blockhash": "000000000000000000205f8b0775d31398ef75b89a5e8ec8d2c57b4dc0ac4c20", "vout": [{"scriptPubKey": {"reqSigs": 1, "hex": "a9149031f58f1fa0d098938d49134ea2948e28d2c18187", "addresses": ["3EqT5PqCxCdupWEpQ6TNMWTZSVbuLxua6j"], "asm": "OP_HASH160 9031f58f1fa0d098938d49134ea2948e28d2c181 OP_EQUAL", "type": "scripthash"}, "value": 12.52651468, "n": 0}, {"scriptPubKey": {"type": "nulldata", "hex": "6a24aa21a9ede801e3b2d70f97b6afd9c804faad701083c6d567aa6fd069051374ad6c5e7d8c", "asm": "OP_RETURN aa21a9ede801e3b2d70f97b6afd9c804faad701083c6d567aa6fd069051374ad6c5e7d8c"}, "value": 0.0, "n": 1}], "hex": "010000000001010000000000000000000000000000000000000000000000000000000000000000ffffffff220310490800041a0daa5b0438e8d6210869cc655b1f390000092f426974667572792fffffffff02ccf1a94a0000000017a9149031f58f1fa0d098938d49134ea2948e28d2c181870000000000000000266a24aa21a9ede801e3b2d70f97b6afd9c804faad701083c6d567aa6fd069051374ad6c5e7d8c0120000000000000000000000000000000000000000000000000000000000000000000000000", "vin": [{"coinbase": "0310490800041a0daa5b0438e8d6210869cc655b1f390000092f426974667572792f", "sequence": 4294967295}], "txid": "db05d274566cf3e11a82bd16df0b46886907af65970d210d71c4e338ad3f3197", "blocktime": 1537871175, "version": 1, "confirmations": 11510, "time": 1537871175, "locktime": 0, "vsize": 173, "size": 200}