{"hash": "1b213766409e24a9eb492902a2a820749791c13dea96daa7314ce9f87c56cf7e", "blockhash": "0000000000000000001cda96e906b7601b7a6fb1a3b62bca570a9e5d8f4b3de1", "vout": [{"scriptPubKey": {"reqSigs": 1, "hex": "a914155b47c941e47833cfec700f307d7396e2a0eee287", "addresses": ["33dwTr4C8boNRiHycJCbaTc45trvF1TvkF"], "asm": "OP_HASH160 155b47c941e47833cfec700f307d7396e2a0eee2 OP_EQUAL", "type": "scripthash"}, "value": 0.453, "n": 0}, {"scriptPubKey": {"reqSigs": 1, "hex": "a914bddce1db77593a7ac8d67f0d488c4311d5103ffa87", "addresses": ["3JzvEy64J63pDv7KjyKsVzupMgKcwdgQU4"], "asm": "OP_HASH160 bddce1db77593a7ac8d67f0d488c4311d5103ffa OP_EQUAL", "type": "scripthash"}, "value": 1.62563788, "n": 1}], "hex": "02000000000101b34a177a3da38d08bfdcbca168ba8667b3e2476ecf5e9cb50bda5adebb9edfa00100000017160014394c1d55120fea8442873d75d93263e22518f914ffffffff022039b3020000000017a914155b47c941e47833cfec700f307d7396e2a0eee287cc86b0090000000017a914bddce1db77593a7ac8d67f0d488c4311d5103ffa8702473044022000993dcb93ac77be286be8445a5b5b1331354de06208ebfd918c505731848b59022011e947bfdbad85ca274784acd7ce0574ec4b0d2f03a3ee2c2f9523db053d8dff012103e196163b6d30d0fef27eff5bae2754a7ccba75d466b78c87116b6535bacce31b00000000", "vin": [{"txinwitness": ["3044022000993dcb93ac77be286be8445a5b5b1331354de06208ebfd918c505731848b59022011e947bfdbad85ca274784acd7ce0574ec4b0d2f03a3ee2c2f9523db053d8dff01", "03e196163b6d30d0fef27eff5bae2754a7ccba75d466b78c87116b6535bacce31b"], "sequence": 4294967295, "scriptSig": {"hex": "160014394c1d55120fea8442873d75d93263e22518f914", "asm": "0014394c1d55120fea8442873d75d93263e22518f914"}, "vout": 1, "txid": "a0df9ebbde5ada0bb59c5ecf6e47e2b36786ba68a1bcdcbf088da33d7a174ab3"}], "txid": "db0c7ad8c1e705402e765303894cb03bd21c4fa60058959220b1d8b8af28204c", "blocktime": 1537873282, "version": 2, "confirmations": 11484, "time": 1537873282, "locktime": 0, "vsize": 166, "size": 247}