{"hash": "db136668e47ea06f9a2fe328a284b06333f354ee323a04bf1e3132393467f516", "blockhash": "0000000000000000000baef3f32e3676a92c3b2e5da21b426e4f302fc371ce76", "vout": [{"scriptPubKey": {"reqSigs": 1, "hex": "76a914f8887c5aa5cea838fd43555c6742557ba1ec9e3d88ac", "addresses": ["1Pf85mhYfhKAUhRHiF74V9vQgAm6cMNBvd"], "asm": "OP_DUP OP_HASH160 f8887c5aa5cea838fd43555c6742557ba1ec9e3d OP_EQUALVERIFY OP_CHECKSIG", "type": "pubkeyhash"}, "value": 0.0135847, "n": 0}, {"scriptPubKey": {"reqSigs": 1, "hex": "76a914511e23efc8f6c7611bb5bf4dc1d0f8d6bc36bc6488ac", "addresses": ["18PuqjFNtBrAApUWxKE1NRGNHuVtB4svj1"], "asm": "OP_DUP OP_HASH160 511e23efc8f6c7611bb5bf4dc1d0f8d6bc36bc64 OP_EQUALVERIFY OP_CHECKSIG", "type": "pubkeyhash"}, "value": 0.03091464, "n": 1}], "hex": "0100000001e33cf55e2b94686a771b5e2dda60cc4b27620a915291d340a59ef6106f218f1c000000006a4730440220123bd72f46282a1397363f278a6d22d7aa8081ddf32451b5364335ac0f014568022072ba9c9b75e5829643025e8aeb5fd9016f16e157f7b22b968e5adef730ace1ff0121021e889baf2b48155c1935450f82d1d203fd28b9f13d977892be586407356f5c12ffffffff0286ba1400000000001976a914f8887c5aa5cea838fd43555c6742557ba1ec9e3d88ac082c2f00000000001976a914511e23efc8f6c7611bb5bf4dc1d0f8d6bc36bc6488ac00000000", "vin": [{"sequence": 4294967295, "scriptSig": {"hex": "4730440220123bd72f46282a1397363f278a6d22d7aa8081ddf32451b5364335ac0f014568022072ba9c9b75e5829643025e8aeb5fd9016f16e157f7b22b968e5adef730ace1ff0121021e889baf2b48155c1935450f82d1d203fd28b9f13d977892be586407356f5c12", "asm": "30440220123bd72f46282a1397363f278a6d22d7aa8081ddf32451b5364335ac0f014568022072ba9c9b75e5829643025e8aeb5fd9016f16e157f7b22b968e5adef730ace1ff[ALL] 021e889baf2b48155c1935450f82d1d203fd28b9f13d977892be586407356f5c12"}, "vout": 0, "txid": "1c8f216f10f69ea540d39152910a62274bcc60da2d5e1b776a68942b5ef53ce3"}], "txid": "db136668e47ea06f9a2fe328a284b06333f354ee323a04bf1e3132393467f516", "blocktime": 1537876114, "version": 1, "confirmations": 11460, "time": 1537876114, "locktime": 0, "vsize": 225, "size": 225}