{"hash": "5523beecc85e947613c3322430f6e119d66b333fb222d39f27ba19750d3a69ea", "blockhash": "0000000000000000001f76057863aec43deb6fa401d9628bb513d65a8098bfab", "vout": [{"scriptPubKey": {"reqSigs": 1, "hex": "00144ce6c9539693c9594713ea04f5a0cb51fd80ae25", "addresses": ["bc1qfnnvj5ukj0y4j3cnagz0tgxt287cpt39c9hh6j"], "asm": "0 4ce6c9539693c9594713ea04f5a0cb51fd80ae25", "type": "witness_v0_keyhash"}, "value": 0.00778118, "n": 0}], "hex": "02000000000101a832ac31f42536bb91be8c9d2b62e02f92dfb428099d1e8f742262ecb0786c6a0000000000000000000186df0b00000000001600144ce6c9539693c9594713ea04f5a0cb51fd80ae2502483045022100d03a293c2acb2c2706f4847912f455f917460b3a91bde8b96ca6ece60a65c3d502201fee4c4a84f506cc2c7ea9f03b9171451637391ebe4ab168a7bf049a3e7c0d7d012103698a4b2054ca30d8fe783b7bca7d088795e44cb0e6d9de4eecbd75cbad72753000000000", "vin": [{"txinwitness": ["3045022100d03a293c2acb2c2706f4847912f455f917460b3a91bde8b96ca6ece60a65c3d502201fee4c4a84f506cc2c7ea9f03b9171451637391ebe4ab168a7bf049a3e7c0d7d01", "03698a4b2054ca30d8fe783b7bca7d088795e44cb0e6d9de4eecbd75cbad727530"], "sequence": 0, "scriptSig": {"hex": "", "asm": ""}, "vout": 0, "txid": "6a6c78b0ec6222748f1e9d0928b4df922fe0622b9d8cbe91bb3625f431ac32a8"}], "txid": "db1d8f85081f81fda474316c0bcbd04d4c776088b43da8ed01e5a6e8cf5fc708", "blocktime": 1537873891, "version": 2, "confirmations": 11479, "time": 1537873891, "locktime": 0, "vsize": 110, "size": 192}