{"hash": "db1fabd2617dc84efedd7f73e49f532ca6ed0bc379eb024b7a04aa1562a39f9e", "blockhash": "00000000000000000018f53835495a110e01622372bf6ae95dc86f2b0ab887b0", "vout": [{"scriptPubKey": {"type": "nulldata", "hex": "6a146f6d6e69000000000000001f000008a3d074b180", "asm": "OP_RETURN 6f6d6e69000000000000001f000008a3d074b180"}, "value": 0.0, "n": 0}, {"scriptPubKey": {"reqSigs": 1, "hex": "76a914d411471acaeae800ad9bb114ba596b33850e733888ac", "addresses": ["1LLJx9YfVyUg3eafHb4dRiJQoe4WRePsTp"], "asm": "OP_DUP OP_HASH160 d411471acaeae800ad9bb114ba596b33850e7338 OP_EQUALVERIFY OP_CHECKSIG", "type": "pubkeyhash"}, "value": 5.46e-06, "n": 1}, {"scriptPubKey": {"reqSigs": 1, "hex": "76a914a25dec4d0011064ef106a983c39c7a540699f22088ac", "addresses": ["1FoWyxwPXuj4C6abqwhjDWdz6D4PZgYRjA"], "asm": "OP_DUP OP_HASH160 a25dec4d0011064ef106a983c39c7a540699f220 OP_EQUALVERIFY OP_CHECKSIG", "type": "pubkeyhash"}, "value": 0.01995188, "n": 2}], "hex": "0100000001a44813c76173a4fe9689194c29809e35be05f1741d9b5e1e9e8bd44070ac1fea6d0000006a47304402205cac8f80d0b119ed31ead5d03045e951fba7453ceada6b289597575d95302027022032977b11cc6151ce212b882bf82403a38ae49b1e0bb81daa33a8a3ae5288c7e2012103da5bac7b36d5aa38f531c6b9601e21bb598a4b6716ebed38b009a55dabde9440feffffff030000000000000000166a146f6d6e69000000000000001f000008a3d074b18022020000000000001976a914d411471acaeae800ad9bb114ba596b33850e733888acb4711e00000000001976a914a25dec4d0011064ef106a983c39c7a540699f22088ac0e490800", "vin": [{"sequence": 4294967294, "scriptSig": {"hex": "47304402205cac8f80d0b119ed31ead5d03045e951fba7453ceada6b289597575d95302027022032977b11cc6151ce212b882bf82403a38ae49b1e0bb81daa33a8a3ae5288c7e2012103da5bac7b36d5aa38f531c6b9601e21bb598a4b6716ebed38b009a55dabde9440", "asm": "304402205cac8f80d0b119ed31ead5d03045e951fba7453ceada6b289597575d95302027022032977b11cc6151ce212b882bf82403a38ae49b1e0bb81daa33a8a3ae5288c7e2[ALL] 03da5bac7b36d5aa38f531c6b9601e21bb598a4b6716ebed38b009a55dabde9440"}, "vout": 109, "txid": "ea1fac7040d48b9e1e5e9b1d74f105be359e80294c198996fea47361c71348a4"}], "txid": "db1fabd2617dc84efedd7f73e49f532ca6ed0bc379eb024b7a04aa1562a39f9e", "blocktime": 1537870928, "version": 1, "confirmations": 11512, "time": 1537870928, "locktime": 542990, "vsize": 256, "size": 256}