{"hash": "db22c1b0cd775ff4bae47690e63b0904fdab790714bfb004d767c75ef79206af", "blockhash": "0000000000000000000baef3f32e3676a92c3b2e5da21b426e4f302fc371ce76", "vout": [{"scriptPubKey": {"reqSigs": 1, "hex": "a9144afa992de4320164926039c92f07885c49ec4a3f87", "addresses": ["38XU8cp6aiLLc88M9g6ivJx4pMLiWwAc92"], "asm": "OP_HASH160 4afa992de4320164926039c92f07885c49ec4a3f OP_EQUAL", "type": "scripthash"}, "value": 0.018766, "n": 0}, {"scriptPubKey": {"reqSigs": 1, "hex": "76a9147ea5914c7703bb99949a4c050565d90a15f69dd688ac", "addresses": ["1CYeV1RViVAAMLvuL7aAPzktTbRKtthpZE"], "asm": "OP_DUP OP_HASH160 7ea5914c7703bb99949a4c050565d90a15f69dd6 OP_EQUALVERIFY OP_CHECKSIG", "type": "pubkeyhash"}, "value": 0.1812116, "n": 1}], "hex": "0100000001911d34a226c9ee653fbf6fcf22fe9188c73fcc71d21f731f6313f61996c9bb39000000006a4730440220675695f3c581a028fdc067931f96e89f30dcd851cf5feeae92396e11ff0609c5022055fa64dc0642fe0e0bc57ceb2a2d080f65d3ff0a42ce48e4ccd3c5e1e1fbadfc01210320974cd168ff517ba79e53471479e77a778607e639c95b6cb36d042bd73891f4ffffffff0278a21c000000000017a9144afa992de4320164926039c92f07885c49ec4a3f87c8811401000000001976a9147ea5914c7703bb99949a4c050565d90a15f69dd688ac00000000", "vin": [{"sequence": 4294967295, "scriptSig": {"hex": "4730440220675695f3c581a028fdc067931f96e89f30dcd851cf5feeae92396e11ff0609c5022055fa64dc0642fe0e0bc57ceb2a2d080f65d3ff0a42ce48e4ccd3c5e1e1fbadfc01210320974cd168ff517ba79e53471479e77a778607e639c95b6cb36d042bd73891f4", "asm": "30440220675695f3c581a028fdc067931f96e89f30dcd851cf5feeae92396e11ff0609c5022055fa64dc0642fe0e0bc57ceb2a2d080f65d3ff0a42ce48e4ccd3c5e1e1fbadfc[ALL] 0320974cd168ff517ba79e53471479e77a778607e639c95b6cb36d042bd73891f4"}, "vout": 0, "txid": "39bbc99619f613631f731fd271cc3fc78891fe22cf6fbf3f65eec926a2341d91"}], "txid": "db22c1b0cd775ff4bae47690e63b0904fdab790714bfb004d767c75ef79206af", "blocktime": 1537876114, "version": 1, "confirmations": 11460, "time": 1537876114, "locktime": 0, "vsize": 223, "size": 223}