{"hash": "258abf7c46a53deed696eab17ca827f65f8235bf2fbeaad630d92b0392eccb4e", "blockhash": "00000000000000000017f5eb5941039fbcee6240d03bc1f2f8e35350df66a1d8", "vout": [{"scriptPubKey": {"reqSigs": 1, "hex": "a91471d0adf79b5f7dc046b0b1a81c7b3df2c446e17087", "addresses": ["3C4pGXj6LQ4r7eQXcRP3gsLV8LzaHasUtu"], "asm": "OP_HASH160 71d0adf79b5f7dc046b0b1a81c7b3df2c446e170 OP_EQUAL", "type": "scripthash"}, "value": 0.00492241, "n": 0}, {"scriptPubKey": {"reqSigs": 1, "hex": "00144cd37560d3b400e170e404ff4fb0ab55191f7b0b", "addresses": ["bc1qfnfh2cxnksqwzu8yqnl5lv9t25v377ctz98qgt"], "asm": "0 4cd37560d3b400e170e404ff4fb0ab55191f7b0b", "type": "witness_v0_keyhash"}, "value": 7.262e-05, "n": 1}], "hex": "0100000000010167cffcc8fcc2d6a1ccab7b8a8786ae52a25a116463d36f6ab2b62b0592ded5970100000017160014326dcf6c37ae19ba8f3c8d067cdcae906ea3f063ffffffff02d18207000000000017a91471d0adf79b5f7dc046b0b1a81c7b3df2c446e170875e1c0000000000001600144cd37560d3b400e170e404ff4fb0ab55191f7b0b02483045022100ce9861d038ad2e0bb022a22aa1019f2f11bbb0607912164c8a9868e516f7df25022020c1ad84720ecd635b3c86e5dd2808c2b1223081bbb474e656b34e4c91eb9636012102bb74a302a1af75db67488f1c07e7190bc33e19bc56c6c5e16702546958fc5db200000000", "vin": [{"txinwitness": ["3045022100ce9861d038ad2e0bb022a22aa1019f2f11bbb0607912164c8a9868e516f7df25022020c1ad84720ecd635b3c86e5dd2808c2b1223081bbb474e656b34e4c91eb963601", "02bb74a302a1af75db67488f1c07e7190bc33e19bc56c6c5e16702546958fc5db2"], "sequence": 4294967295, "scriptSig": {"hex": "160014326dcf6c37ae19ba8f3c8d067cdcae906ea3f063", "asm": "0014326dcf6c37ae19ba8f3c8d067cdcae906ea3f063"}, "vout": 1, "txid": "97d5de92052bb6b26a6fd36364115aa252ae86878a7babcca1d6c2fcc8fccf67"}], "txid": "db28cfaa896695b98d9df930701b8489b2b5433a31a033d9f481ee0b427ede91", "blocktime": 1537874412, "version": 1, "confirmations": 11468, "time": 1537874412, "locktime": 0, "vsize": 165, "size": 247}