{"hash": "db28c9f572d5d55cfa66363583a89af56b0b4f11b31295b4432fe71cf36efa22", "blockhash": "00000000000000000017f5eb5941039fbcee6240d03bc1f2f8e35350df66a1d8", "vout": [{"scriptPubKey": {"type": "nulldata", "hex": "6a4c50000077ef00012cb2bc3ed45b681581ade26cd19ed074892d00f8e87af8e8e963c7cfd5b99529522677c7572b56c310f930b169925baa18000613e36e32f8169cbc9a9526289ac0f6612cd74e33776ee4", "asm": "OP_RETURN 000077ef00012cb2bc3ed45b681581ade26cd19ed074892d00f8e87af8e8e963c7cfd5b99529522677c7572b56c310f930b169925baa18000613e36e32f8169cbc9a9526289ac0f6612cd74e33776ee4"}, "value": 0.0, "n": 0}, {"scriptPubKey": {"reqSigs": 1, "hex": "76a914395cc550ba82155f9b9b0f48a46d283d6f446d1488ac", "addresses": ["16EJem5VKuWmCLavVTgnEWfSPtf3MRtevS"], "asm": "OP_DUP OP_HASH160 395cc550ba82155f9b9b0f48a46d283d6f446d14 OP_EQUALVERIFY OP_CHECKSIG", "type": "pubkeyhash"}, "value": 0.0147378, "n": 1}], "hex": "010000000122e3ad74b8d89c98a9151657c31ce06b43e666bc261a0689de6d04c2f91b11ff000000006b483045022100d142a702c37fea8111a16a01096963fbac0a0fb9ac204e4407c3ca2971c9a12302207a28b15162c44cb0840100a14d2d6106b5178b3fc3391292d2f781537e9a02fc012103956dbc390037846b29f01d1388376ec327468b2985e14d6cbad34d7e3e799231ffffffff020000000000000000536a4c50000077ef00012cb2bc3ed45b681581ade26cd19ed074892d00f8e87af8e8e963c7cfd5b99529522677c7572b56c310f930b169925baa18000613e36e32f8169cbc9a9526289ac0f6612cd74e33776ee4f47c1600000000001976a914395cc550ba82155f9b9b0f48a46d283d6f446d1488ac00000000", "vin": [{"sequence": 4294967295, "scriptSig": {"hex": "483045022100d142a702c37fea8111a16a01096963fbac0a0fb9ac204e4407c3ca2971c9a12302207a28b15162c44cb0840100a14d2d6106b5178b3fc3391292d2f781537e9a02fc012103956dbc390037846b29f01d1388376ec327468b2985e14d6cbad34d7e3e799231", "asm": "3045022100d142a702c37fea8111a16a01096963fbac0a0fb9ac204e4407c3ca2971c9a12302207a28b15162c44cb0840100a14d2d6106b5178b3fc3391292d2f781537e9a02fc[ALL] 03956dbc390037846b29f01d1388376ec327468b2985e14d6cbad34d7e3e799231"}, "vout": 0, "txid": "ff111bf9c2046dde89061a26bc66e6436be01cc3571615a9989cd8b874ade322"}], "txid": "db28c9f572d5d55cfa66363583a89af56b0b4f11b31295b4432fe71cf36efa22", "blocktime": 1537874412, "version": 1, "confirmations": 11467, "time": 1537874412, "locktime": 0, "vsize": 284, "size": 284}