{"hash": "db2c3d14db78226b25ab23c444fe8b5c37c180c779461aa9f6a2dab1f1d7cd23", "blockhash": "0000000000000000001e0dab787dd257d1dbfcb92a98c2207d5e1078be1f4165", "vout": [{"scriptPubKey": {"reqSigs": 1, "hex": "76a91437cef050a8fbd5bad1e6eae643864a17c013037288ac", "addresses": ["16664uXy2k9dBVUMgxytzS1s1hAruzV2n3"], "asm": "OP_DUP OP_HASH160 37cef050a8fbd5bad1e6eae643864a17c0130372 OP_EQUALVERIFY OP_CHECKSIG", "type": "pubkeyhash"}, "value": 0.00040372, "n": 0}, {"scriptPubKey": {"reqSigs": 1, "hex": "a91411a71f781a77fa37b28093a2d73a3e27b7ef5d7887", "addresses": ["33JMci6ZYYQfm9mzmwotG8ySBZh6f6UpUo"], "asm": "OP_HASH160 11a71f781a77fa37b28093a2d73a3e27b7ef5d78 OP_EQUAL", "type": "scripthash"}, "value": 0.00121, "n": 1}], "hex": "010000000132edcdb80d31a13ec2d094e9e1b6e7e7e72c0fe7762ee459b202d166c1e180c6000000006a47304402205e8f9eb03180ba6e8028e8ed08dfe5b8687ddb2c36332c888c829f3939893a1202204c3f89d92075f65098eb5ed2d12bc6f1f6052f7f5b6a07cb719becc4eb4e9f34012102b1b4ba027b598139676e4237cce8b7874065226e980a0a8102ec493a39308043ffffffff02b49d0000000000001976a91437cef050a8fbd5bad1e6eae643864a17c013037288aca8d801000000000017a91411a71f781a77fa37b28093a2d73a3e27b7ef5d788700000000", "vin": [{"sequence": 4294967295, "scriptSig": {"hex": "47304402205e8f9eb03180ba6e8028e8ed08dfe5b8687ddb2c36332c888c829f3939893a1202204c3f89d92075f65098eb5ed2d12bc6f1f6052f7f5b6a07cb719becc4eb4e9f34012102b1b4ba027b598139676e4237cce8b7874065226e980a0a8102ec493a39308043", "asm": "304402205e8f9eb03180ba6e8028e8ed08dfe5b8687ddb2c36332c888c829f3939893a1202204c3f89d92075f65098eb5ed2d12bc6f1f6052f7f5b6a07cb719becc4eb4e9f34[ALL] 02b1b4ba027b598139676e4237cce8b7874065226e980a0a8102ec493a39308043"}, "vout": 0, "txid": "c680e1c166d102b259e42e76e70f2ce7e7e7b6e1e994d0c23ea1310db8cded32"}], "txid": "db2c3d14db78226b25ab23c444fe8b5c37c180c779461aa9f6a2dab1f1d7cd23", "blocktime": 1537872475, "version": 1, "confirmations": 11487, "time": 1537872475, "locktime": 0, "vsize": 223, "size": 223}