{"hash": "db308965a23468e9af1c0f49ec88f21e87b517a5dd97827dbd43856db93917d6", "blockhash": "0000000000000000000baef3f32e3676a92c3b2e5da21b426e4f302fc371ce76", "vout": [{"scriptPubKey": {"reqSigs": 1, "hex": "76a9141b9c9f35e84f9e8295712064b0c62347229440d588ac", "addresses": ["13WzsTjd5v6vUeiNvzAUv5CWKZHJz1tgZz"], "asm": "OP_DUP OP_HASH160 1b9c9f35e84f9e8295712064b0c62347229440d5 OP_EQUALVERIFY OP_CHECKSIG", "type": "pubkeyhash"}, "value": 0.00102, "n": 0}, {"scriptPubKey": {"reqSigs": 1, "hex": "76a914e980406100f1b02d9023620d15858ca5a5fb144c88ac", "addresses": ["1NHe5mQK8w5uu6QxqnWsd6M8fPLPiYGWzA"], "asm": "OP_DUP OP_HASH160 e980406100f1b02d9023620d15858ca5a5fb144c OP_EQUALVERIFY OP_CHECKSIG", "type": "pubkeyhash"}, "value": 0.06353384, "n": 1}], "hex": "010000000129d9d5522f9efd5062c8bdca59f932569eff6b8c082e06e7ebc05ff9cc1bcfb6010000006a473044022028b492f21beba6b059e111caecad57fa5b772b8b5d5f7bf4ae68c9114cb0eee8022004b99ac9c0dd23f9a239bb2b646fd1d461083a40a850931d7d2f9b7f6bfa6df0012103ad603f5d3610dce0c476cc5ff31b70d340cb842f4285d362fdb63d990e4c8e16ffffffff02708e0100000000001976a9141b9c9f35e84f9e8295712064b0c62347229440d588ace8f16000000000001976a914e980406100f1b02d9023620d15858ca5a5fb144c88ac00000000", "vin": [{"sequence": 4294967295, "scriptSig": {"hex": "473044022028b492f21beba6b059e111caecad57fa5b772b8b5d5f7bf4ae68c9114cb0eee8022004b99ac9c0dd23f9a239bb2b646fd1d461083a40a850931d7d2f9b7f6bfa6df0012103ad603f5d3610dce0c476cc5ff31b70d340cb842f4285d362fdb63d990e4c8e16", "asm": "3044022028b492f21beba6b059e111caecad57fa5b772b8b5d5f7bf4ae68c9114cb0eee8022004b99ac9c0dd23f9a239bb2b646fd1d461083a40a850931d7d2f9b7f6bfa6df0[ALL] 03ad603f5d3610dce0c476cc5ff31b70d340cb842f4285d362fdb63d990e4c8e16"}, "vout": 1, "txid": "b6cf1bccf95fc0ebe7062e088c6bff9e5632f959cabdc86250fd9e2f52d5d929"}], "txid": "db308965a23468e9af1c0f49ec88f21e87b517a5dd97827dbd43856db93917d6", "blocktime": 1537876114, "version": 1, "confirmations": 11459, "time": 1537876114, "locktime": 0, "vsize": 225, "size": 225}