{"hash": "db3141f09330f9fac24d5ab9fd626ae7a2b9fc0ff8c2822e5e613f0ba85a65b9", "blockhash": "0000000000000000001f76057863aec43deb6fa401d9628bb513d65a8098bfab", "vout": [{"scriptPubKey": {"reqSigs": 1, "hex": "76a914e6c651f8b69bc2a91041932cf4084d5c60516db988ac", "addresses": ["1N3Dzei85Zm2xz36P1B3MPFhi56gU8iSEa"], "asm": "OP_DUP OP_HASH160 e6c651f8b69bc2a91041932cf4084d5c60516db9 OP_EQUALVERIFY OP_CHECKSIG", "type": "pubkeyhash"}, "value": 0.00047786, "n": 0}, {"scriptPubKey": {"reqSigs": 1, "hex": "76a914b4f1a172c8ff6b828358ba9d9de94e5c9259627288ac", "addresses": ["1HVk6KfsxcD3FU8GMJb1WTx9ynGeKbjVKf"], "asm": "OP_DUP OP_HASH160 b4f1a172c8ff6b828358ba9d9de94e5c92596272 OP_EQUALVERIFY OP_CHECKSIG", "type": "pubkeyhash"}, "value": 1.6218229, "n": 1}], "hex": "0100000001fc98512bcdde1e45edffc3aea5b7c54c7c5e639e428fa6a6306d480a31fbec33010000006b483045022100910500f8073035d62a38025cff8a540cff3b9fe6e4dc51cc9972ea940c61e034022078e78b42788ddea7193ceabb2371d4d1b51e91ece4a4061e866beceefcf3c904012102489754c5b3516917a01b51bbc606a95acb574ba06cb33598cb0ee9045fe534f3ffffffff02aaba0000000000001976a914e6c651f8b69bc2a91041932cf4084d5c60516db988ac92b4aa09000000001976a914b4f1a172c8ff6b828358ba9d9de94e5c9259627288ac00000000", "vin": [{"sequence": 4294967295, "scriptSig": {"hex": "483045022100910500f8073035d62a38025cff8a540cff3b9fe6e4dc51cc9972ea940c61e034022078e78b42788ddea7193ceabb2371d4d1b51e91ece4a4061e866beceefcf3c904012102489754c5b3516917a01b51bbc606a95acb574ba06cb33598cb0ee9045fe534f3", "asm": "3045022100910500f8073035d62a38025cff8a540cff3b9fe6e4dc51cc9972ea940c61e034022078e78b42788ddea7193ceabb2371d4d1b51e91ece4a4061e866beceefcf3c904[ALL] 02489754c5b3516917a01b51bbc606a95acb574ba06cb33598cb0ee9045fe534f3"}, "vout": 1, "txid": "33ecfb310a486d30a6a68f429e635e7c4cc5b7a5aec3ffed451edecd2b5198fc"}], "txid": "db3141f09330f9fac24d5ab9fd626ae7a2b9fc0ff8c2822e5e613f0ba85a65b9", "blocktime": 1537873891, "version": 1, "confirmations": 11478, "time": 1537873891, "locktime": 0, "vsize": 226, "size": 226}