{"hash": "db38563daacb16247d0c8a51c8580297003a5652b91931b0bb465f35f92ed94e", "blockhash": "00000000000000000018f53835495a110e01622372bf6ae95dc86f2b0ab887b0", "vout": [{"scriptPubKey": {"reqSigs": 1, "hex": "76a914bb180e177f1f2b8ced5835fdca5c9769875f5dee88ac", "addresses": ["1J4GBFHBBVqHT5wx6PtYPjMsdvmvGHSG9B"], "asm": "OP_DUP OP_HASH160 bb180e177f1f2b8ced5835fdca5c9769875f5dee OP_EQUALVERIFY OP_CHECKSIG", "type": "pubkeyhash"}, "value": 0.00491399, "n": 0}, {"scriptPubKey": {"reqSigs": 1, "hex": "76a91471b2c2291273a270c97ce429604015f71347f56688ac", "addresses": ["1BNBW2o5DQyx2UnuqPwC4Q16UZymirpmtZ"], "asm": "OP_DUP OP_HASH160 71b2c2291273a270c97ce429604015f71347f566 OP_EQUALVERIFY OP_CHECKSIG", "type": "pubkeyhash"}, "value": 0.00608375, "n": 1}], "hex": "01000000014fd34c3058152295b6ddcadecb6b062e29f314cf807258ba4c2a5b55a8449466010000006a4730440220743c4f50ce4dab3f84264e347a6d15051dab7467e7c851f385ad0bf189f417ad0220730338a851ef149b462ab62623f0a2104fffa2a45388ec9f39eda0e88cf1eaf0012103fc805a9fe18665532cbc162facea88aefec2c4c6da89cde902344474de81814afdffffff02877f0700000000001976a914bb180e177f1f2b8ced5835fdca5c9769875f5dee88ac77480900000000001976a91471b2c2291273a270c97ce429604015f71347f56688ac0e490800", "vin": [{"sequence": 4294967293, "scriptSig": {"hex": "4730440220743c4f50ce4dab3f84264e347a6d15051dab7467e7c851f385ad0bf189f417ad0220730338a851ef149b462ab62623f0a2104fffa2a45388ec9f39eda0e88cf1eaf0012103fc805a9fe18665532cbc162facea88aefec2c4c6da89cde902344474de81814a", "asm": "30440220743c4f50ce4dab3f84264e347a6d15051dab7467e7c851f385ad0bf189f417ad0220730338a851ef149b462ab62623f0a2104fffa2a45388ec9f39eda0e88cf1eaf0[ALL] 03fc805a9fe18665532cbc162facea88aefec2c4c6da89cde902344474de81814a"}, "vout": 1, "txid": "669444a8555b2a4cba587280cf14f3292e066bcbdecaddb695221558304cd34f"}], "txid": "db38563daacb16247d0c8a51c8580297003a5652b91931b0bb465f35f92ed94e", "blocktime": 1537870928, "version": 1, "confirmations": 11514, "time": 1537870928, "locktime": 542990, "vsize": 225, "size": 225}