{"hash": "db3df2dbbe72e9772d7702f978c6e412ed230d30fa5d980f34ec7c007923f1b9", "blockhash": "0000000000000000000baef3f32e3676a92c3b2e5da21b426e4f302fc371ce76", "vout": [{"scriptPubKey": {"type": "nulldata", "hex": "6a4c500000782a000153859a53cab2d46ba22edb7b27b7256b4774d339f6019d6ddc0f1b8ff117eae40cebdb6a3375ae57fb1ddc5e1e0c5baa1ea20614346d0f2803d9bc9a9526289ac0f6612cd74e33776ee4", "asm": "OP_RETURN 0000782a000153859a53cab2d46ba22edb7b27b7256b4774d339f6019d6ddc0f1b8ff117eae40cebdb6a3375ae57fb1ddc5e1e0c5baa1ea20614346d0f2803d9bc9a9526289ac0f6612cd74e33776ee4"}, "value": 0.0, "n": 0}, {"scriptPubKey": {"reqSigs": 1, "hex": "76a914f92677373433bddccd183539382b05b5d478ab3a88ac", "addresses": ["1PiPLQhC3adZNGuN468QajkdHjNXgK1u8D"], "asm": "OP_DUP OP_HASH160 f92677373433bddccd183539382b05b5d478ab3a OP_EQUALVERIFY OP_CHECKSIG", "type": "pubkeyhash"}, "value": 0.0006532, "n": 1}], "hex": "01000000013bc7c86363cd86d3e600a19050d1c1755f2cab4433335f56242c8cf5ffaed2d7000000006a47304402201103289c495f32e00c2c03b28120bf3ea6c27ad474cdbfd426d300dfd9d477050220459a848bf71da0ea000f86b6a008fa5b3a33a56a422912846d8b0ff8cc98db8e012102495d629767af5a4d8514c91399d812f4904f64b6a2718582971f08afa6378bb8ffffffff020000000000000000536a4c500000782a000153859a53cab2d46ba22edb7b27b7256b4774d339f6019d6ddc0f1b8ff117eae40cebdb6a3375ae57fb1ddc5e1e0c5baa1ea20614346d0f2803d9bc9a9526289ac0f6612cd74e33776ee428ff0000000000001976a914f92677373433bddccd183539382b05b5d478ab3a88ac00000000", "vin": [{"sequence": 4294967295, "scriptSig": {"hex": "47304402201103289c495f32e00c2c03b28120bf3ea6c27ad474cdbfd426d300dfd9d477050220459a848bf71da0ea000f86b6a008fa5b3a33a56a422912846d8b0ff8cc98db8e012102495d629767af5a4d8514c91399d812f4904f64b6a2718582971f08afa6378bb8", "asm": "304402201103289c495f32e00c2c03b28120bf3ea6c27ad474cdbfd426d300dfd9d477050220459a848bf71da0ea000f86b6a008fa5b3a33a56a422912846d8b0ff8cc98db8e[ALL] 02495d629767af5a4d8514c91399d812f4904f64b6a2718582971f08afa6378bb8"}, "vout": 0, "txid": "d7d2aefff58c2c24565f333344ab2c5f75c1d15090a100e6d386cd6363c8c73b"}], "txid": "db3df2dbbe72e9772d7702f978c6e412ed230d30fa5d980f34ec7c007923f1b9", "blocktime": 1537876114, "version": 1, "confirmations": 11460, "time": 1537876114, "locktime": 0, "vsize": 283, "size": 283}