{"hash": "db4ecb8a3cf5f9fa1636192c0c4dbebe0c4277472f4d391653de2bd8f3d4d9da", "blockhash": "0000000000000000000baef3f32e3676a92c3b2e5da21b426e4f302fc371ce76", "vout": [{"scriptPubKey": {"reqSigs": 1, "hex": "a914eca79978ffde2d5fec9d33b9322c88334cc6039a87", "addresses": ["3PGLAqHYe1VJXoeBtZ5E7qCo87GGfzStYd"], "asm": "OP_HASH160 eca79978ffde2d5fec9d33b9322c88334cc6039a OP_EQUAL", "type": "scripthash"}, "value": 0.32, "n": 0}, {"scriptPubKey": {"reqSigs": 1, "hex": "76a91430a57f800206e81527494d1fa3e2637d9070259788ac", "addresses": ["15SDhDQ5Tt9XHQiVguUCGNLszxG8KmsCQK"], "asm": "OP_DUP OP_HASH160 30a57f800206e81527494d1fa3e2637d90702597 OP_EQUALVERIFY OP_CHECKSIG", "type": "pubkeyhash"}, "value": 0.82830408, "n": 1}], "hex": "0100000001a66fbbb3ef2b1f6d732bc1e6f48c1a465627e2b5f427d4a27e3e96c5c457f56a010000006a4730440220725309aa7c3132164d2187cf6bd091c4326f1861d48706e4b5f589c76aec40e702206134436d298f3b52cce08506f76b425d14ac5743d0fd01df6bd87975d3069ae601210225541e2149e14542fc632932afdae8351ae9aebad8f11633945214c3c9267cfbfdffffff020048e8010000000017a914eca79978ffde2d5fec9d33b9322c88334cc6039a8748e4ef04000000001976a91430a57f800206e81527494d1fa3e2637d9070259788ac16490800", "vin": [{"sequence": 4294967293, "scriptSig": {"hex": "4730440220725309aa7c3132164d2187cf6bd091c4326f1861d48706e4b5f589c76aec40e702206134436d298f3b52cce08506f76b425d14ac5743d0fd01df6bd87975d3069ae601210225541e2149e14542fc632932afdae8351ae9aebad8f11633945214c3c9267cfb", "asm": "30440220725309aa7c3132164d2187cf6bd091c4326f1861d48706e4b5f589c76aec40e702206134436d298f3b52cce08506f76b425d14ac5743d0fd01df6bd87975d3069ae6[ALL] 0225541e2149e14542fc632932afdae8351ae9aebad8f11633945214c3c9267cfb"}, "vout": 1, "txid": "6af557c4c5963e7ea2d427f4b5e22756461a8cf4e6c12b736d1f2befb3bb6fa6"}], "txid": "db4ecb8a3cf5f9fa1636192c0c4dbebe0c4277472f4d391653de2bd8f3d4d9da", "blocktime": 1537876114, "version": 1, "confirmations": 11460, "time": 1537876114, "locktime": 542998, "vsize": 223, "size": 223}