{"hash": "db4f53467a36a72be31f7d9344dce89e0ed96f6ccb3462bd853f117d0a38e854", "blockhash": "0000000000000000001cda96e906b7601b7a6fb1a3b62bca570a9e5d8f4b3de1", "vout": [{"scriptPubKey": {"type": "nulldata", "hex": "6a4c50000077d100018db13301a1b9b350ec67fd425b23cc0f42c2fc38c5e5bf9ae76da98a211a3cc616770e89ddbb7fc9a7f4c6f763565baa14480613be1a3ec7129ebc9a9526289ac0f6612cd74e33776ee4", "asm": "OP_RETURN 000077d100018db13301a1b9b350ec67fd425b23cc0f42c2fc38c5e5bf9ae76da98a211a3cc616770e89ddbb7fc9a7f4c6f763565baa14480613be1a3ec7129ebc9a9526289ac0f6612cd74e33776ee4"}, "value": 0.0, "n": 0}, {"scriptPubKey": {"reqSigs": 1, "hex": "76a9144530076205467731c88e71f1723d315ef610b4d088ac", "addresses": ["17JqALdwD8rPab8hVUCun3Ch75pKodkDp6"], "asm": "OP_DUP OP_HASH160 4530076205467731c88e71f1723d315ef610b4d0 OP_EQUALVERIFY OP_CHECKSIG", "type": "pubkeyhash"}, "value": 0.0147264, "n": 1}], "hex": "0100000001a82da1791f19801afdc15659a7d13a39795d01dbade8dcc65fe8a7573a8fcd91000000006a47304402201c7f7e2f58a7f0d1a1d9d20a92e1db9cb6fa5c7fff4adde0654fd388bacbb9d40220284774376d5f25e52f7160fd1a91242193385c1a65c7aeffcb5bbc88b66ef223012103aec6b48e08e25d35a46efed68fce5fdb2088274b9b3b3956feefd6736277defaffffffff020000000000000000536a4c50000077d100018db13301a1b9b350ec67fd425b23cc0f42c2fc38c5e5bf9ae76da98a211a3cc616770e89ddbb7fc9a7f4c6f763565baa14480613be1a3ec7129ebc9a9526289ac0f6612cd74e33776ee480781600000000001976a9144530076205467731c88e71f1723d315ef610b4d088ac00000000", "vin": [{"sequence": 4294967295, "scriptSig": {"hex": "47304402201c7f7e2f58a7f0d1a1d9d20a92e1db9cb6fa5c7fff4adde0654fd388bacbb9d40220284774376d5f25e52f7160fd1a91242193385c1a65c7aeffcb5bbc88b66ef223012103aec6b48e08e25d35a46efed68fce5fdb2088274b9b3b3956feefd6736277defa", "asm": "304402201c7f7e2f58a7f0d1a1d9d20a92e1db9cb6fa5c7fff4adde0654fd388bacbb9d40220284774376d5f25e52f7160fd1a91242193385c1a65c7aeffcb5bbc88b66ef223[ALL] 03aec6b48e08e25d35a46efed68fce5fdb2088274b9b3b3956feefd6736277defa"}, "vout": 0, "txid": "91cd8f3a57a7e85fc6dce8addb015d79393ad1a75956c1fd1a80191f79a12da8"}], "txid": "db4f53467a36a72be31f7d9344dce89e0ed96f6ccb3462bd853f117d0a38e854", "blocktime": 1537873282, "version": 1, "confirmations": 11484, "time": 1537873282, "locktime": 0, "vsize": 283, "size": 283}