{"hash": "db57804b1dc245c2d71552702e8ea2a63a880d089a8fcefca30d8dac8914efe2", "blockhash": "0000000000000000001e0dab787dd257d1dbfcb92a98c2207d5e1078be1f4165", "vout": [{"scriptPubKey": {"reqSigs": 1, "hex": "76a91488d78dd7d4e1821b0e183ae8d9de5ade42fc8f8088ac", "addresses": ["1DUZ83pVw9r8SRvZZatXsyYTr9vgdB5rfb"], "asm": "OP_DUP OP_HASH160 88d78dd7d4e1821b0e183ae8d9de5ade42fc8f80 OP_EQUALVERIFY OP_CHECKSIG", "type": "pubkeyhash"}, "value": 1.67204362, "n": 0}, {"scriptPubKey": {"reqSigs": 1, "hex": "76a914260c00cec829fdabd083b580cdd1394f9707cc6d88ac", "addresses": ["14UB4HSNKwsdrBHQVfZjaP8rYs7yFMiCbE"], "asm": "OP_DUP OP_HASH160 260c00cec829fdabd083b580cdd1394f9707cc6d OP_EQUALVERIFY OP_CHECKSIG", "type": "pubkeyhash"}, "value": 0.01663835, "n": 1}], "hex": "01000000015c15955173fbe5f07e87568af4a8c5198b1a88f3915d990cd6cad994c518128f000000006b483045022100d448a065ab0c9fe6c7e920254385de401ce0a8d35753f94951764f8594a6c06702202c369dedb3e74bf825672dcdb152515e89cd37e72339851e0c7570a72e007e2301210246d7f303f89ef8a6341ecba0e9c69cac7e236a702cca750f4883f2367cf9410effffffff020a56f709000000001976a91488d78dd7d4e1821b0e183ae8d9de5ade42fc8f8088ac5b631900000000001976a914260c00cec829fdabd083b580cdd1394f9707cc6d88ac00000000", "vin": [{"sequence": 4294967295, "scriptSig": {"hex": "483045022100d448a065ab0c9fe6c7e920254385de401ce0a8d35753f94951764f8594a6c06702202c369dedb3e74bf825672dcdb152515e89cd37e72339851e0c7570a72e007e2301210246d7f303f89ef8a6341ecba0e9c69cac7e236a702cca750f4883f2367cf9410e", "asm": "3045022100d448a065ab0c9fe6c7e920254385de401ce0a8d35753f94951764f8594a6c06702202c369dedb3e74bf825672dcdb152515e89cd37e72339851e0c7570a72e007e23[ALL] 0246d7f303f89ef8a6341ecba0e9c69cac7e236a702cca750f4883f2367cf9410e"}, "vout": 0, "txid": "8f1218c594d9cad60c995d91f3881a8b19c5a8f48a56877ef0e5fb735195155c"}], "txid": "db57804b1dc245c2d71552702e8ea2a63a880d089a8fcefca30d8dac8914efe2", "blocktime": 1537872475, "version": 1, "confirmations": 11486, "time": 1537872475, "locktime": 0, "vsize": 226, "size": 226}