{"hash": "cb797254634f787d197ae7068c63e07cd0d7ee840d0251e7b8d521a4ae28b0e2", "blockhash": "0000000000000000000e13cef7c366c0283d82e591d1acd082e914b08063cdf1", "vout": [{"scriptPubKey": {"reqSigs": 1, "hex": "a914ce53f488604da857b268b24b9cfd57306ed743a187", "addresses": ["3LVyhNTbubc8CiWnBwkcewq2FjEPF4CS7R"], "asm": "OP_HASH160 ce53f488604da857b268b24b9cfd57306ed743a1 OP_EQUAL", "type": "scripthash"}, "value": 0.1, "n": 0}, {"scriptPubKey": {"reqSigs": 1, "hex": "a914d130a708dbd39ed855e7de2ceded94cd70dbb02e87", "addresses": ["3Lm7S516SQ5kWRuDkrRSXWPq4zUuyjvSdr"], "asm": "OP_HASH160 d130a708dbd39ed855e7de2ceded94cd70dbb02e OP_EQUAL", "type": "scripthash"}, "value": 0.00231973, "n": 1}], "hex": "01000000000101cd4df5a366b75a08032d60ec01f78f5bee0db60e10413155b6b8f86053adb1330000000017160014986a48384e8fde7f15f18f6916bf600e96e8261bffffffff02809698000000000017a914ce53f488604da857b268b24b9cfd57306ed743a187258a03000000000017a914d130a708dbd39ed855e7de2ceded94cd70dbb02e8702483045022100cc787beb6b01dcadd796106e54c02f79637ec93e1c99a6c7eaa33f96d3748fc902201a9364e6c39bb99273e1d4082418aa0ba7d622d6aad717e935811f64d6003c34012102ed7f73e7a59afe58d59b44d64f95db4c820adfb11986cb8621edbbf0b0c0424700000000", "vin": [{"txinwitness": ["3045022100cc787beb6b01dcadd796106e54c02f79637ec93e1c99a6c7eaa33f96d3748fc902201a9364e6c39bb99273e1d4082418aa0ba7d622d6aad717e935811f64d6003c3401", "02ed7f73e7a59afe58d59b44d64f95db4c820adfb11986cb8621edbbf0b0c04247"], "sequence": 4294967295, "scriptSig": {"hex": "160014986a48384e8fde7f15f18f6916bf600e96e8261b", "asm": "0014986a48384e8fde7f15f18f6916bf600e96e8261b"}, "vout": 0, "txid": "33b1ad5360f8b8b6553141100eb60dee5b8ff701ec602d03085ab766a3f54dcd"}], "txid": "db6110c9123803183fc227162674682631ea26f06750c1e9bc28c0266816f916", "blocktime": 1537871767, "version": 1, "confirmations": 11494, "time": 1537871767, "locktime": 0, "vsize": 166, "size": 248}