{"hash": "db6d83abc84f26802cc073f77c864df080c74e4d3e3797e50c5a52203e3ab2b9", "blockhash": "0000000000000000001f0ddff1eddb255c1121bcd4da4f1bc9a0da00cae72433", "vout": [{"scriptPubKey": {"reqSigs": 1, "hex": "76a9142d6ed7b4fd2fac1b4fd9bf5af6e00ae0d69c06ca88ac", "addresses": ["159EC7UTPWvSDtYeA2stH6d3kdThVbQ39Q"], "asm": "OP_DUP OP_HASH160 2d6ed7b4fd2fac1b4fd9bf5af6e00ae0d69c06ca OP_EQUALVERIFY OP_CHECKSIG", "type": "pubkeyhash"}, "value": 0.01215676, "n": 0}, {"scriptPubKey": {"reqSigs": 1, "hex": "76a9149d313163c000eedd01a0b193e2b279dbd7c118ee88ac", "addresses": ["1FLA26uyvvBH1aQ2pqKHbgn9Wq3abqJqbv"], "asm": "OP_DUP OP_HASH160 9d313163c000eedd01a0b193e2b279dbd7c118ee OP_EQUALVERIFY OP_CHECKSIG", "type": "pubkeyhash"}, "value": 0.002619, "n": 1}], "hex": "0100000001e745f572945b76a7d2c7a078ce2b6ac1e4e7bc4e99ffb0c276b3af64a5a3aa57000000006a47304402205375db44558fa020ce9b892e7d47a234cdf4ea335587cff718e1d2e14aa536dc0220657b2ce226a52cffc1750782df8725a409ebebde5aea5556c343ad6f00639dd901210384305cf95d611c8b1b7afc2718dd8d1e0475586600b511768f2f7e11848396ebffffffff02bc8c1200000000001976a9142d6ed7b4fd2fac1b4fd9bf5af6e00ae0d69c06ca88ac0cff0300000000001976a9149d313163c000eedd01a0b193e2b279dbd7c118ee88ac00000000", "vin": [{"sequence": 4294967295, "scriptSig": {"hex": "47304402205375db44558fa020ce9b892e7d47a234cdf4ea335587cff718e1d2e14aa536dc0220657b2ce226a52cffc1750782df8725a409ebebde5aea5556c343ad6f00639dd901210384305cf95d611c8b1b7afc2718dd8d1e0475586600b511768f2f7e11848396eb", "asm": "304402205375db44558fa020ce9b892e7d47a234cdf4ea335587cff718e1d2e14aa536dc0220657b2ce226a52cffc1750782df8725a409ebebde5aea5556c343ad6f00639dd9[ALL] 0384305cf95d611c8b1b7afc2718dd8d1e0475586600b511768f2f7e11848396eb"}, "vout": 0, "txid": "57aaa3a564afb376c2b0ff994ebce7e4c16a2bce78a0c7d2a7765b9472f545e7"}], "txid": "db6d83abc84f26802cc073f77c864df080c74e4d3e3797e50c5a52203e3ab2b9", "blocktime": 1537872018, "version": 1, "confirmations": 11489, "time": 1537872018, "locktime": 0, "vsize": 225, "size": 225}