{"hash": "db6fa7d035b6974c7b3203e200e52e103e110587c06133c898f4a8378214a813", "blockhash": "00000000000000000018f53835495a110e01622372bf6ae95dc86f2b0ab887b0", "vout": [{"scriptPubKey": {"reqSigs": 1, "hex": "76a91491066183155fa5945fd20bc27a37a8aa68388c0688ac", "addresses": ["1EDpdAn3Rjc27T1FtxruLsTcvQJswCVWnc"], "asm": "OP_DUP OP_HASH160 91066183155fa5945fd20bc27a37a8aa68388c06 OP_EQUALVERIFY OP_CHECKSIG", "type": "pubkeyhash"}, "value": 0.00778881, "n": 0}, {"scriptPubKey": {"reqSigs": 1, "hex": "76a914846c1ad1d34a4116a5d9a6de7ff2b941c5cddb2888ac", "addresses": ["1D5BhaCFtYt3e9hDrbiSNzsbD26KJeEVJZ"], "asm": "OP_DUP OP_HASH160 846c1ad1d34a4116a5d9a6de7ff2b941c5cddb28 OP_EQUALVERIFY OP_CHECKSIG", "type": "pubkeyhash"}, "value": 0.0383721, "n": 1}], "hex": "0100000001e27bc3ecf0ea3b4005aa692d01525d2ad8954df7dc2ba4d9a7f303f6264382ca010000008a4730440220269efbd284a96ab984b05e0e42149ba1db3d9e150808dbf36915177e7529dbb902204ddda0a3f29dd98ef5647eefa596a2901df0d12611fad9759ca95faf5cf05e8e014104861373a0859d9de828b0837610a50a7d19b5f95cd662a5fb86ed5edf5557801c872559f44553f537711cccbaa4649ee6f3ecfd1fd0b2c7a6843be1487fabc1a6ffffffff0281e20b00000000001976a91491066183155fa5945fd20bc27a37a8aa68388c0688ac1a8d3a00000000001976a914846c1ad1d34a4116a5d9a6de7ff2b941c5cddb2888ac00000000", "vin": [{"sequence": 4294967295, "scriptSig": {"hex": "4730440220269efbd284a96ab984b05e0e42149ba1db3d9e150808dbf36915177e7529dbb902204ddda0a3f29dd98ef5647eefa596a2901df0d12611fad9759ca95faf5cf05e8e014104861373a0859d9de828b0837610a50a7d19b5f95cd662a5fb86ed5edf5557801c872559f44553f537711cccbaa4649ee6f3ecfd1fd0b2c7a6843be1487fabc1a6", "asm": "30440220269efbd284a96ab984b05e0e42149ba1db3d9e150808dbf36915177e7529dbb902204ddda0a3f29dd98ef5647eefa596a2901df0d12611fad9759ca95faf5cf05e8e[ALL] 04861373a0859d9de828b0837610a50a7d19b5f95cd662a5fb86ed5edf5557801c872559f44553f537711cccbaa4649ee6f3ecfd1fd0b2c7a6843be1487fabc1a6"}, "vout": 1, "txid": "ca824326f603f3a7d9a42bdcf74d95d82a5d52012d69aa05403beaf0ecc37be2"}], "txid": "db6fa7d035b6974c7b3203e200e52e103e110587c06133c898f4a8378214a813", "blocktime": 1537870928, "version": 1, "confirmations": 11514, "time": 1537870928, "locktime": 0, "vsize": 257, "size": 257}