{"hash": "db70ac0ed37de1ff335254cea8fb0d6bd3491d84fba2d98751e31927788b3019", "blockhash": "0000000000000000001e0dab787dd257d1dbfcb92a98c2207d5e1078be1f4165", "vout": [{"scriptPubKey": {"reqSigs": 1, "hex": "76a9143d5d896021734204e05378a29c393251fca8fdd788ac", "addresses": ["16bUGjvunVp7LqygLHrTvHyvbvfeuRCWAh"], "asm": "OP_DUP OP_HASH160 3d5d896021734204e05378a29c393251fca8fdd7 OP_EQUALVERIFY OP_CHECKSIG", "type": "pubkeyhash"}, "value": 0.00553768, "n": 0}, {"scriptPubKey": {"reqSigs": 1, "hex": "76a9140c45a1894afbb623f5ce8630d29f52bc08fba53988ac", "addresses": ["127tXMEAzJhusykNwmF5YBiXd3ne61pnAp"], "asm": "OP_DUP OP_HASH160 0c45a1894afbb623f5ce8630d29f52bc08fba539 OP_EQUALVERIFY OP_CHECKSIG", "type": "pubkeyhash"}, "value": 5.46e-06, "n": 1}, {"scriptPubKey": {"type": "nulldata", "hex": "6a146f6d6e69000000000000001f000000320effa600", "asm": "OP_RETURN 6f6d6e69000000000000001f000000320effa600"}, "value": 0.0, "n": 2}], "hex": "010000000162b3769f15ba96857c092e3a66de9d4185506cc252a32fa87a0a4c70cc583858000000006a4730440220222dee3dc01987bf4025767a1a2c4e9f7f5cbd222b79835b56acd67c8590c368022065edf9b6c9d5cd22b48f4f6187daaa4e476386527d6c709d0dad6b164c691f0a012103486fea7a6ac64066aad0880cdef75a12efb8ef02a17201aa5e09388afaa6c3bbffffffff0328730800000000001976a9143d5d896021734204e05378a29c393251fca8fdd788ac22020000000000001976a9140c45a1894afbb623f5ce8630d29f52bc08fba53988ac0000000000000000166a146f6d6e69000000000000001f000000320effa60000000000", "vin": [{"sequence": 4294967295, "scriptSig": {"hex": "4730440220222dee3dc01987bf4025767a1a2c4e9f7f5cbd222b79835b56acd67c8590c368022065edf9b6c9d5cd22b48f4f6187daaa4e476386527d6c709d0dad6b164c691f0a012103486fea7a6ac64066aad0880cdef75a12efb8ef02a17201aa5e09388afaa6c3bb", "asm": "30440220222dee3dc01987bf4025767a1a2c4e9f7f5cbd222b79835b56acd67c8590c368022065edf9b6c9d5cd22b48f4f6187daaa4e476386527d6c709d0dad6b164c691f0a[ALL] 03486fea7a6ac64066aad0880cdef75a12efb8ef02a17201aa5e09388afaa6c3bb"}, "vout": 0, "txid": "583858cc704c0a7aa82fa352c26c5085419dde663a2e097c8596ba159f76b362"}], "txid": "db70ac0ed37de1ff335254cea8fb0d6bd3491d84fba2d98751e31927788b3019", "blocktime": 1537872475, "version": 1, "confirmations": 11486, "time": 1537872475, "locktime": 0, "vsize": 256, "size": 256}