{"hash": "db7022199187fc969b1a0e4a1169f4d2cef017a5d6b1a486304c795a285b5837", "blockhash": "00000000000000000017f5eb5941039fbcee6240d03bc1f2f8e35350df66a1d8", "vout": [{"scriptPubKey": {"reqSigs": 1, "hex": "76a914bf78c8fd6907ef67bd7e8f3b122860d41d09368a88ac", "addresses": ["1JTQkwKtCgp8Dy7v5N82CpL5vrfVj2CZoK"], "asm": "OP_DUP OP_HASH160 bf78c8fd6907ef67bd7e8f3b122860d41d09368a OP_EQUALVERIFY OP_CHECKSIG", "type": "pubkeyhash"}, "value": 0.00830995, "n": 0}, {"scriptPubKey": {"reqSigs": 1, "hex": "76a914d35590fe1491a858db478a4e1de0e2f1afa6c9f288ac", "addresses": ["1LGS5jUWpu4SPPz6tLxZd37GGthrcddRZT"], "asm": "OP_DUP OP_HASH160 d35590fe1491a858db478a4e1de0e2f1afa6c9f2 OP_EQUALVERIFY OP_CHECKSIG", "type": "pubkeyhash"}, "value": 0.8068, "n": 1}], "hex": "0100000001b204ff5a9ad923cdb6655b69b4e2198cb98274b2adbd34946d9355144b1e2ddc000000006b48304502210089aa0c49da024ee4b844fd5ea37c701c04dfc71b03a9d16d403cfc56649d95d702203b3c19170fcfda58f5d21298322ede24a59ce127a5aae4e8c11a6e69bca0be3c012103bfb5cc314fc38d34baf4b434e205570424b81a2030d69361aa05d1dba903b453ffffffff0213ae0c00000000001976a914bf78c8fd6907ef67bd7e8f3b122860d41d09368a88ac4014cf04000000001976a914d35590fe1491a858db478a4e1de0e2f1afa6c9f288ac00000000", "vin": [{"sequence": 4294967295, "scriptSig": {"hex": "48304502210089aa0c49da024ee4b844fd5ea37c701c04dfc71b03a9d16d403cfc56649d95d702203b3c19170fcfda58f5d21298322ede24a59ce127a5aae4e8c11a6e69bca0be3c012103bfb5cc314fc38d34baf4b434e205570424b81a2030d69361aa05d1dba903b453", "asm": "304502210089aa0c49da024ee4b844fd5ea37c701c04dfc71b03a9d16d403cfc56649d95d702203b3c19170fcfda58f5d21298322ede24a59ce127a5aae4e8c11a6e69bca0be3c[ALL] 03bfb5cc314fc38d34baf4b434e205570424b81a2030d69361aa05d1dba903b453"}, "vout": 0, "txid": "dc2d1e4b1455936d9434bdadb27482b98c19e2b4695b65b6cd23d99a5aff04b2"}], "txid": "db7022199187fc969b1a0e4a1169f4d2cef017a5d6b1a486304c795a285b5837", "blocktime": 1537874412, "version": 1, "confirmations": 11467, "time": 1537874412, "locktime": 0, "vsize": 226, "size": 226}