{"hash": "a797e572af215c8a53abbe65041f93358407349f4b59de0a80e10d18e001dfbe", "blockhash": "0000000000000000001f76057863aec43deb6fa401d9628bb513d65a8098bfab", "vout": [{"scriptPubKey": {"reqSigs": 1, "hex": "a914e29078c7bec5293962c8afc3ec0d05302b6a88c287", "addresses": ["3NLyhySXuWNEwbfpTNiu6oNKMJCGRteHx6"], "asm": "OP_HASH160 e29078c7bec5293962c8afc3ec0d05302b6a88c2 OP_EQUAL", "type": "scripthash"}, "value": 0.01008344, "n": 0}, {"scriptPubKey": {"reqSigs": 1, "hex": "a914353aab42399230f1c939c67012ed567db5f0cc3887", "addresses": ["36YU26vSTWLKwmqeYgsgwm5WvMWBuvT3mR"], "asm": "OP_HASH160 353aab42399230f1c939c67012ed567db5f0cc38 OP_EQUAL", "type": "scripthash"}, "value": 0.04661258, "n": 1}], "hex": "02000000000102334f475ef25bdcfeeedf696bea59a4d32c45a00a9e203bd1ca92b769f1dfaf84010000006b483045022100ad6b25098b22dc2ce496f0f9dad5cd5f1130bf7ddecd7d9d6afb06bbad2ccb6e0220551d42750a572a7d68410b6244c26fca2ca8c9b402cec56e54c97eb1bfba629d0121033499169ea38a4fe64d0566f038ad27f0637a4a61a443d1c7731d6e98f3db34d7feffffffb036b060a33573ef984853b0cedbb16f0fc6f1b934b23adeba5ee64649faad5901000000171600140b8c0d8dd0d2209b7a5bed600715ea97065cb6d0feffffff02d8620f000000000017a914e29078c7bec5293962c8afc3ec0d05302b6a88c2870a2047000000000017a914353aab42399230f1c939c67012ed567db5f0cc38870002483045022100dc5b176bd58534d253994d7fa93670fda4630a5d2589285e26a93eca6f4dad5a02206f7194fb2938bb2382e2d0abe235411cb0ca409b3b17856dabdd3a023f9bf931012102967e00d76baefde181617057cfa98cb9dbf4ded3c84f5c3a6006cff9a731fd7114490800", "vin": [{"sequence": 4294967294, "scriptSig": {"hex": "483045022100ad6b25098b22dc2ce496f0f9dad5cd5f1130bf7ddecd7d9d6afb06bbad2ccb6e0220551d42750a572a7d68410b6244c26fca2ca8c9b402cec56e54c97eb1bfba629d0121033499169ea38a4fe64d0566f038ad27f0637a4a61a443d1c7731d6e98f3db34d7", "asm": "3045022100ad6b25098b22dc2ce496f0f9dad5cd5f1130bf7ddecd7d9d6afb06bbad2ccb6e0220551d42750a572a7d68410b6244c26fca2ca8c9b402cec56e54c97eb1bfba629d[ALL] 033499169ea38a4fe64d0566f038ad27f0637a4a61a443d1c7731d6e98f3db34d7"}, "vout": 1, "txid": "84afdff169b792cad13b209e0aa0452cd3a459ea6b69dfeefedc5bf25e474f33"}, {"txinwitness": ["3045022100dc5b176bd58534d253994d7fa93670fda4630a5d2589285e26a93eca6f4dad5a02206f7194fb2938bb2382e2d0abe235411cb0ca409b3b17856dabdd3a023f9bf93101", "02967e00d76baefde181617057cfa98cb9dbf4ded3c84f5c3a6006cff9a731fd71"], "sequence": 4294967294, "scriptSig": {"hex": "1600140b8c0d8dd0d2209b7a5bed600715ea97065cb6d0", "asm": "00140b8c0d8dd0d2209b7a5bed600715ea97065cb6d0"}, "vout": 1, "txid": "59adfa4946e65ebade3ab234b9f1c60f6fb1dbceb0534898ef7335a360b036b0"}], "txid": "db84b17c820b16095da9fb51e965785b984a75fbb180fb7ae30901bac7a0d82b", "blocktime": 1537873891, "version": 2, "confirmations": 11476, "time": 1537873891, "locktime": 542996, "vsize": 314, "size": 397}