{"hash": "db860461619d68c48b3876899b93c89ef1d4ed5391bc87e20dc85f5cea8f06c2", "blockhash": "0000000000000000000e13cef7c366c0283d82e591d1acd082e914b08063cdf1", "vout": [{"scriptPubKey": {"reqSigs": 1, "hex": "76a9147dca5626fa4a5fd063cf0a2e4c30ff03cfdd929888ac", "addresses": ["1CU7rZvAKhxPEPrnzu2PBzMYDe1MdnVP1Z"], "asm": "OP_DUP OP_HASH160 7dca5626fa4a5fd063cf0a2e4c30ff03cfdd9298 OP_EQUALVERIFY OP_CHECKSIG", "type": "pubkeyhash"}, "value": 0.00546845, "n": 0}, {"scriptPubKey": {"reqSigs": 1, "hex": "76a914254014a0b86c33752e9db672b13a516f487f21ad88ac", "addresses": ["14PxmVfpf1ouWvEjoPVKHR19U9KtXYcHfM"], "asm": "OP_DUP OP_HASH160 254014a0b86c33752e9db672b13a516f487f21ad OP_EQUALVERIFY OP_CHECKSIG", "type": "pubkeyhash"}, "value": 0.01040311, "n": 1}], "hex": "01000000019f4879f287804fd9c96a4d6ae033d1a0a39af65414f8399ca41a155136e6c775160000006a47304402201313564a7c7f2204bea8d35f1be6689c5e6cbb2c474a0463b9e2ee9a2361894e02204cafc092418f98026519398553b6d957303fa4a1d13645113945de9ebc9bdb4e0121022624704e2711f150716e196471f7d9996fabd3f8aaf64e6765ca2e301af50a46ffffffff021d580800000000001976a9147dca5626fa4a5fd063cf0a2e4c30ff03cfdd929888acb7df0f00000000001976a914254014a0b86c33752e9db672b13a516f487f21ad88ac00000000", "vin": [{"sequence": 4294967295, "scriptSig": {"hex": "47304402201313564a7c7f2204bea8d35f1be6689c5e6cbb2c474a0463b9e2ee9a2361894e02204cafc092418f98026519398553b6d957303fa4a1d13645113945de9ebc9bdb4e0121022624704e2711f150716e196471f7d9996fabd3f8aaf64e6765ca2e301af50a46", "asm": "304402201313564a7c7f2204bea8d35f1be6689c5e6cbb2c474a0463b9e2ee9a2361894e02204cafc092418f98026519398553b6d957303fa4a1d13645113945de9ebc9bdb4e[ALL] 022624704e2711f150716e196471f7d9996fabd3f8aaf64e6765ca2e301af50a46"}, "vout": 22, "txid": "75c7e63651151aa49c39f81454f69aa3a0d133e06a4d6ac9d94f8087f279489f"}], "txid": "db860461619d68c48b3876899b93c89ef1d4ed5391bc87e20dc85f5cea8f06c2", "blocktime": 1537871767, "version": 1, "confirmations": 11495, "time": 1537871767, "locktime": 0, "vsize": 225, "size": 225}