{"hash": "db86a1943442765ab565c3e947e2c71c6114154b12712b66df3aea6565b3a3cf", "blockhash": "0000000000000000001cda96e906b7601b7a6fb1a3b62bca570a9e5d8f4b3de1", "vout": [{"scriptPubKey": {"reqSigs": 1, "hex": "76a9143c92174cdda73876c0be52f31c24673a464cbc3288ac", "addresses": ["16XGZ6KBefVaSDuSNxaCr5DvcGUec7bMCQ"], "asm": "OP_DUP OP_HASH160 3c92174cdda73876c0be52f31c24673a464cbc32 OP_EQUALVERIFY OP_CHECKSIG", "type": "pubkeyhash"}, "value": 0.00057718, "n": 0}, {"scriptPubKey": {"reqSigs": 1, "hex": "76a91479ec5933af4b13c02c79a44fc5a8075fca89ca9e88ac", "addresses": ["1C7ftzP6EhxYQx9mMvL86w9NCrFHcEQfEi"], "asm": "OP_DUP OP_HASH160 79ec5933af4b13c02c79a44fc5a8075fca89ca9e OP_EQUALVERIFY OP_CHECKSIG", "type": "pubkeyhash"}, "value": 0.036242, "n": 1}], "hex": "01000000017f2f44ed929a21cfb09af07c50762419ae3c93ce628a878d070714de99076d78010000006b483045022100e4bd00c453e8dffc06381591a98fe291ad97e70857c543a09419b15f0b73e56802200c26e2e9cfd968367e3852307bf70e294d76c2f2c09ddf728938d58b022cf507012103ac900c893490166f26fd35efd06d3b622a41f0c4078833181592b00341f49b68ffffffff0276e10000000000001976a9143c92174cdda73876c0be52f31c24673a464cbc3288ac084d3700000000001976a91479ec5933af4b13c02c79a44fc5a8075fca89ca9e88ac00000000", "vin": [{"sequence": 4294967295, "scriptSig": {"hex": "483045022100e4bd00c453e8dffc06381591a98fe291ad97e70857c543a09419b15f0b73e56802200c26e2e9cfd968367e3852307bf70e294d76c2f2c09ddf728938d58b022cf507012103ac900c893490166f26fd35efd06d3b622a41f0c4078833181592b00341f49b68", "asm": "3045022100e4bd00c453e8dffc06381591a98fe291ad97e70857c543a09419b15f0b73e56802200c26e2e9cfd968367e3852307bf70e294d76c2f2c09ddf728938d58b022cf507[ALL] 03ac900c893490166f26fd35efd06d3b622a41f0c4078833181592b00341f49b68"}, "vout": 1, "txid": "786d0799de1407078d878a62ce933cae192476507cf09ab0cf219a92ed442f7f"}], "txid": "db86a1943442765ab565c3e947e2c71c6114154b12712b66df3aea6565b3a3cf", "blocktime": 1537873282, "version": 1, "confirmations": 11480, "time": 1537873282, "locktime": 0, "vsize": 226, "size": 226}