{"hash": "db89c0932eecae8ad85cd2b41d8d69459627925aa81ea8b083ad065bf6d3e3c5", "blockhash": "0000000000000000000dcc0f55137456b1a82d3642486a52398922ac4d620174", "vout": [{"scriptPubKey": {"reqSigs": 1, "hex": "76a914ffd4684c704dbb795136cb2b3e296116d9243dcc88ac", "addresses": ["1QKhmF5he6MmQ92i4ztqZYZyzB2DD1sVJ7"], "asm": "OP_DUP OP_HASH160 ffd4684c704dbb795136cb2b3e296116d9243dcc OP_EQUALVERIFY OP_CHECKSIG", "type": "pubkeyhash"}, "value": 0.009373, "n": 0}, {"scriptPubKey": {"reqSigs": 1, "hex": "76a914423ec725c395e914a38b3f55d38d701d7549105888ac", "addresses": ["173GoYjdvMaXpfFGay6PtexugHDtsapVs7"], "asm": "OP_DUP OP_HASH160 423ec725c395e914a38b3f55d38d701d75491058 OP_EQUALVERIFY OP_CHECKSIG", "type": "pubkeyhash"}, "value": 0.00029419, "n": 1}], "hex": "0100000002ce4252d7aab519d4cf2af671c372944f2a5aa04a80272aae6fa16217140723ff010000006b483045022100f394a44b980d56ba5c486090de05587b0546c22b853205dc6abcc26764355b8902202fb9a1ccfdc80698984779d057a27b6bb91949fe5e7634f9923b07432ebc1140012103cf99f952c979628c78d991b0d8c8b34395922899b956aed9c0811f0ceb5c467cffffffffe0ae2cd337a98bf9a4bac8b1a4fa7a785dfbc46f0b08b464780ec7997eeac561010000006a4730440220358b1bb71de43068eb83e0d88e9c69115055956a07f851c59ea2b96550904a3802205cbf32bad38fc57bd32c845c86cb4f31b7b7b60d648b7a96502522adfbc3159101210220ed4427f5b1f3ea0f7c5aa4718274491982e0bd6a4d51293947f1770dc2cb94ffffffff02544d0e00000000001976a914ffd4684c704dbb795136cb2b3e296116d9243dcc88aceb720000000000001976a914423ec725c395e914a38b3f55d38d701d7549105888ac00000000", "vin": [{"sequence": 4294967295, "scriptSig": {"hex": "483045022100f394a44b980d56ba5c486090de05587b0546c22b853205dc6abcc26764355b8902202fb9a1ccfdc80698984779d057a27b6bb91949fe5e7634f9923b07432ebc1140012103cf99f952c979628c78d991b0d8c8b34395922899b956aed9c0811f0ceb5c467c", "asm": "3045022100f394a44b980d56ba5c486090de05587b0546c22b853205dc6abcc26764355b8902202fb9a1ccfdc80698984779d057a27b6bb91949fe5e7634f9923b07432ebc1140[ALL] 03cf99f952c979628c78d991b0d8c8b34395922899b956aed9c0811f0ceb5c467c"}, "vout": 1, "txid": "ff2307141762a16fae2a27804aa05a2a4f9472c371f62acfd419b5aad75242ce"}, {"sequence": 4294967295, "scriptSig": {"hex": "4730440220358b1bb71de43068eb83e0d88e9c69115055956a07f851c59ea2b96550904a3802205cbf32bad38fc57bd32c845c86cb4f31b7b7b60d648b7a96502522adfbc3159101210220ed4427f5b1f3ea0f7c5aa4718274491982e0bd6a4d51293947f1770dc2cb94", "asm": "30440220358b1bb71de43068eb83e0d88e9c69115055956a07f851c59ea2b96550904a3802205cbf32bad38fc57bd32c845c86cb4f31b7b7b60d648b7a96502522adfbc31591[ALL] 0220ed4427f5b1f3ea0f7c5aa4718274491982e0bd6a4d51293947f1770dc2cb94"}, "vout": 1, "txid": "61c5ea7e99c70e7864b4080b6fc4fb5d787afaa4b1c8baa4f98ba937d32caee0"}], "txid": "db89c0932eecae8ad85cd2b41d8d69459627925aa81ea8b083ad065bf6d3e3c5", "blocktime": 1537870268, "version": 1, "confirmations": 11518, "time": 1537870268, "locktime": 0, "vsize": 373, "size": 373}