{"hash": "db89e730629b758b018ab95543dfeb9c8137fc23bf91f1e08ce7bd3e6b9107a8", "blockhash": "0000000000000000001e0dab787dd257d1dbfcb92a98c2207d5e1078be1f4165", "vout": [{"scriptPubKey": {"reqSigs": 1, "hex": "76a91442f454f56a9d8c1e6dce0aea1ed61a7855e13a5188ac", "addresses": ["1772J8vyrZy8kZt9HiMMXNo86bjFG6EUtL"], "asm": "OP_DUP OP_HASH160 42f454f56a9d8c1e6dce0aea1ed61a7855e13a51 OP_EQUALVERIFY OP_CHECKSIG", "type": "pubkeyhash"}, "value": 0.01968735, "n": 0}, {"scriptPubKey": {"reqSigs": 1, "hex": "0014cdb2ee244008c10d5d6d5ff0f1ff529eca76ed62", "addresses": ["bc1qekewufzqprqs6htdtlc0rl6jnm98dmtzg2006g"], "asm": "0 cdb2ee244008c10d5d6d5ff0f1ff529eca76ed62", "type": "witness_v0_keyhash"}, "value": 0.0264684, "n": 1}], "hex": "01000000018b29b1a624fd924de0de8d33174a5118e51e3e6594b81eca899e2cbeed226d68010000006a47304402206f5e464cc3469da4f73a26240be210f067ffea17c78b7ba057ff1ba6e837f8a70220183b92526a1bf1e9b86f6e02fc5d8e4be27834ee8111394c5270b9211980bbd5012103897364576721d6f3b223b2ef679c0130f2a7f0c2c1480d73174a0dd362dfefe1fdffffff025f0a1e00000000001976a91442f454f56a9d8c1e6dce0aea1ed61a7855e13a5188ac3863280000000000160014cdb2ee244008c10d5d6d5ff0f1ff529eca76ed6212490800", "vin": [{"sequence": 4294967293, "scriptSig": {"hex": "47304402206f5e464cc3469da4f73a26240be210f067ffea17c78b7ba057ff1ba6e837f8a70220183b92526a1bf1e9b86f6e02fc5d8e4be27834ee8111394c5270b9211980bbd5012103897364576721d6f3b223b2ef679c0130f2a7f0c2c1480d73174a0dd362dfefe1", "asm": "304402206f5e464cc3469da4f73a26240be210f067ffea17c78b7ba057ff1ba6e837f8a70220183b92526a1bf1e9b86f6e02fc5d8e4be27834ee8111394c5270b9211980bbd5[ALL] 03897364576721d6f3b223b2ef679c0130f2a7f0c2c1480d73174a0dd362dfefe1"}, "vout": 1, "txid": "686d22edbe2c9e89ca1eb894653e1ee518514a17338ddee04d92fd24a6b1298b"}], "txid": "db89e730629b758b018ab95543dfeb9c8137fc23bf91f1e08ce7bd3e6b9107a8", "blocktime": 1537872475, "version": 1, "confirmations": 11486, "time": 1537872475, "locktime": 542994, "vsize": 222, "size": 222}