{"hash": "db8b96278396c2029fcacde31a92007ca5b15ca2c5ccf82413f38fcad8eccdfe", "blockhash": "0000000000000000000baef3f32e3676a92c3b2e5da21b426e4f302fc371ce76", "vout": [{"scriptPubKey": {"reqSigs": 1, "hex": "76a914d722b00eee230d04e09d8b9bcab08cd7210d05be88ac", "addresses": ["1LcXqPa1JYHiY8xWnCDR4JygaYctMaubDs"], "asm": "OP_DUP OP_HASH160 d722b00eee230d04e09d8b9bcab08cd7210d05be OP_EQUALVERIFY OP_CHECKSIG", "type": "pubkeyhash"}, "value": 0.0274538, "n": 0}, {"scriptPubKey": {"reqSigs": 1, "hex": "a9143083bd9f3144193e895a9de0da67b1412b155afa87", "addresses": ["367YBFqb8yHwPe9T7ES2TiQNBWFtRyVQN3"], "asm": "OP_HASH160 3083bd9f3144193e895a9de0da67b1412b155afa OP_EQUAL", "type": "scripthash"}, "value": 0.0469983, "n": 1}], "hex": "01000000019c6623301c18cf4fe2eac78424277261126e0bd0db35825740c12bcc1ca8759e010000006b483045022100a0c833451262dc344feb31a38d5a7ce442bb04272a15e0ab4be5106f51149a2f022067468993e31af28067e653344a1690642ff32381a0e615109149a03d92d34cd701210263d51114d18a2ca7be6379ec83e1c0b857fe028af399671039e6c625d12c0044ffffffff0224e42900000000001976a914d722b00eee230d04e09d8b9bcab08cd7210d05be88acb6b647000000000017a9143083bd9f3144193e895a9de0da67b1412b155afa8700000000", "vin": [{"sequence": 4294967295, "scriptSig": {"hex": "483045022100a0c833451262dc344feb31a38d5a7ce442bb04272a15e0ab4be5106f51149a2f022067468993e31af28067e653344a1690642ff32381a0e615109149a03d92d34cd701210263d51114d18a2ca7be6379ec83e1c0b857fe028af399671039e6c625d12c0044", "asm": "3045022100a0c833451262dc344feb31a38d5a7ce442bb04272a15e0ab4be5106f51149a2f022067468993e31af28067e653344a1690642ff32381a0e615109149a03d92d34cd7[ALL] 0263d51114d18a2ca7be6379ec83e1c0b857fe028af399671039e6c625d12c0044"}, "vout": 1, "txid": "9e75a81ccc2bc140578235dbd00b6e126172272484c7eae24fcf181c3023669c"}], "txid": "db8b96278396c2029fcacde31a92007ca5b15ca2c5ccf82413f38fcad8eccdfe", "blocktime": 1537876114, "version": 1, "confirmations": 11460, "time": 1537876114, "locktime": 0, "vsize": 224, "size": 224}