{"hash": "db9a92301bb0ef2d876684ccca14d0f3758a08621b7c4e2ceec3a6ca979fb97a", "blockhash": "0000000000000000000e13cef7c366c0283d82e591d1acd082e914b08063cdf1", "vout": [{"scriptPubKey": {"reqSigs": 1, "hex": "76a914ea8d43689e0f1ff24cff20c492ed1b2e7d6f8d0788ac", "addresses": ["1NPCM34VekvL2GyJi6jZC89uhjQuN9u2Kj"], "asm": "OP_DUP OP_HASH160 ea8d43689e0f1ff24cff20c492ed1b2e7d6f8d07 OP_EQUALVERIFY OP_CHECKSIG", "type": "pubkeyhash"}, "value": 0.0064252, "n": 0}, {"scriptPubKey": {"type": "nulldata", "hex": "6a4c50000077a30001f966f4bb5ab751de6692046aaf6c953dd567cf27e7e3ef3236678a625097de5e4155ec6ff010c8342a2a715108165baa0ecc0614967b449222e61d100759d4ba30d2c37bb011d97e02cf", "asm": "OP_RETURN 000077a30001f966f4bb5ab751de6692046aaf6c953dd567cf27e7e3ef3236678a625097de5e4155ec6ff010c8342a2a715108165baa0ecc0614967b449222e61d100759d4ba30d2c37bb011d97e02cf"}, "value": 0.0, "n": 1}], "hex": "010000000108e94168a1077dfd7036c58ba71a16a28f5d2fe7e31637c8a93bb6e785345cbd000000006b48304502210094b29b1fe4b37457cac2ef02964fe3fac26a28a913818eabf5ca8e2fa93d913302207047d6d9b7d8b4691a66a2113690fd434e218ec0e28f4e8d718bde1d46bacb1b0121032ee39ae505dfa6e64d93c20777fa62e02b839eeb2a72ff74d6b512045a28d1bfffffffff02d8cd0900000000001976a914ea8d43689e0f1ff24cff20c492ed1b2e7d6f8d0788ac0000000000000000536a4c50000077a30001f966f4bb5ab751de6692046aaf6c953dd567cf27e7e3ef3236678a625097de5e4155ec6ff010c8342a2a715108165baa0ecc0614967b449222e61d100759d4ba30d2c37bb011d97e02cf00000000", "vin": [{"sequence": 4294967295, "scriptSig": {"hex": "48304502210094b29b1fe4b37457cac2ef02964fe3fac26a28a913818eabf5ca8e2fa93d913302207047d6d9b7d8b4691a66a2113690fd434e218ec0e28f4e8d718bde1d46bacb1b0121032ee39ae505dfa6e64d93c20777fa62e02b839eeb2a72ff74d6b512045a28d1bf", "asm": "304502210094b29b1fe4b37457cac2ef02964fe3fac26a28a913818eabf5ca8e2fa93d913302207047d6d9b7d8b4691a66a2113690fd434e218ec0e28f4e8d718bde1d46bacb1b[ALL] 032ee39ae505dfa6e64d93c20777fa62e02b839eeb2a72ff74d6b512045a28d1bf"}, "vout": 0, "txid": "bd5c3485e7b63ba9c83716e3e72f5d8fa2161aa78bc53670fd7d07a16841e908"}], "txid": "db9a92301bb0ef2d876684ccca14d0f3758a08621b7c4e2ceec3a6ca979fb97a", "blocktime": 1537871767, "version": 1, "confirmations": 11495, "time": 1537871767, "locktime": 0, "vsize": 284, "size": 284}