{"hash": "cce9012bf215168822fe76cb6d87a5fe65f2c53a3d8a380f5fa1d2bbde54d096", "blockhash": "0000000000000000000baef3f32e3676a92c3b2e5da21b426e4f302fc371ce76", "vout": [{"scriptPubKey": {"reqSigs": 1, "hex": "a914e145d395bf913f83c50f283f8428dc1c63efb7e487", "addresses": ["3NE9cLT13wni3r4JFHnKeupHfJzPvLu8sJ"], "asm": "OP_HASH160 e145d395bf913f83c50f283f8428dc1c63efb7e4 OP_EQUAL", "type": "scripthash"}, "value": 1.0, "n": 0}, {"scriptPubKey": {"reqSigs": 1, "hex": "a9145b59ea2c9bde8156d2b9919de60e2c8e1d2a5c4487", "addresses": ["3A238PMSJHeME4smRq3hba1LBzQwhy7CTw"], "asm": "OP_HASH160 5b59ea2c9bde8156d2b9919de60e2c8e1d2a5c44 OP_EQUAL", "type": "scripthash"}, "value": 14.29499994, "n": 1}], "hex": "0100000000010178b0447b2a4e62d9608f8b647bb713f11fbdade4cf505f6675886c5d0d16529207000000171600149a2f4a53cab2dac46c01c7d60cd260ac7450dc6effffffff0200e1f5050000000017a914e145d395bf913f83c50f283f8428dc1c63efb7e4875a7034550000000017a9145b59ea2c9bde8156d2b9919de60e2c8e1d2a5c44870247304402203ee2acfb91de4dec768cd94f022be4ee92038b0ab53ad3f8d47cdc4bb48a85c1022021a18822273f58d184c6fa36684cfeb0f7538a9a5c030d629a11e97277ea1c2f012102310eba34a14802588b9d04745304c1e8f61a9598117955b0a6e944ed3784faf500000000", "vin": [{"txinwitness": ["304402203ee2acfb91de4dec768cd94f022be4ee92038b0ab53ad3f8d47cdc4bb48a85c1022021a18822273f58d184c6fa36684cfeb0f7538a9a5c030d629a11e97277ea1c2f01", "02310eba34a14802588b9d04745304c1e8f61a9598117955b0a6e944ed3784faf5"], "sequence": 4294967295, "scriptSig": {"hex": "1600149a2f4a53cab2dac46c01c7d60cd260ac7450dc6e", "asm": "00149a2f4a53cab2dac46c01c7d60cd260ac7450dc6e"}, "vout": 7, "txid": "9252160d5d6c8875665f50cfe4adbd1ff113b77b648b8f60d9624e2a7b44b078"}], "txid": "db9a7df6b970bb8abae4a2a8a3c14083ccb985d149276088a778404a407639c4", "blocktime": 1537876114, "version": 1, "confirmations": 11460, "time": 1537876114, "locktime": 0, "vsize": 166, "size": 247}