{"hash": "db9f8d708d57931f104202acbd54a841ddcf476ce9d72f9e6de866f2dfc34cd8", "blockhash": "0000000000000000000baef3f32e3676a92c3b2e5da21b426e4f302fc371ce76", "vout": [{"scriptPubKey": {"reqSigs": 1, "hex": "76a914d243e6abb9a60fbff430b421d2df4b7d59ec186088ac", "addresses": ["1LAnF8h3qMGx3TSwNUHVneBZUEpwE4gu3D"], "asm": "OP_DUP OP_HASH160 d243e6abb9a60fbff430b421d2df4b7d59ec1860 OP_EQUALVERIFY OP_CHECKSIG", "type": "pubkeyhash"}, "value": 0.00076972, "n": 0}, {"scriptPubKey": {"reqSigs": 1, "hex": "76a9143851f34d13937b673a7d24a1950bb5b21ce94af388ac", "addresses": ["168o1kqNquEJeR9vosUB5fw4eAwcVAgh8P"], "asm": "OP_DUP OP_HASH160 3851f34d13937b673a7d24a1950bb5b21ce94af3 OP_EQUALVERIFY OP_CHECKSIG", "type": "pubkeyhash"}, "value": 5.46e-06, "n": 1}, {"scriptPubKey": {"type": "nulldata", "hex": "6a146f6d6e69000000000000001f00000038f941af00", "asm": "OP_RETURN 6f6d6e69000000000000001f00000038f941af00"}, "value": 0.0, "n": 2}], "hex": "0100000002f17c974557260854b86be9f79c0a0b6ec969fa1fa17c31c4660d421520f64c09010000006b483045022100e8b8781f4c69482da194975a2f0329eba71d41c28a169f420648ef27ff624f2e0220641d96adf223eafef3ebb289c9307a23bc5a1d9cc5593b8a525ef0d030372f8d0121036df9277da3c36bb949d4de62e2903298a225cdc6f4011734694bbe376392dbccffffffff609dc61985dd3a2e7072602b57112cfe222970b79bcf7936ae65f514d6f49b3c000000006a47304402206d0f7f3ae1f5176d3cc03e7c23b7f2e462bddc5edfcd306c7743d4c5b1d9f83b022010f8a284847c5f34882cb749a0e10dc6df5f0bb69cd83b2f65ae7fdb790278a501210271977291b74f1f5f5c42157e8aae804664eaaeccfd097918450d37f28fb94d77ffffffff03ac2c0100000000001976a914d243e6abb9a60fbff430b421d2df4b7d59ec186088ac22020000000000001976a9143851f34d13937b673a7d24a1950bb5b21ce94af388ac0000000000000000166a146f6d6e69000000000000001f00000038f941af0000000000", "vin": [{"sequence": 4294967295, "scriptSig": {"hex": "483045022100e8b8781f4c69482da194975a2f0329eba71d41c28a169f420648ef27ff624f2e0220641d96adf223eafef3ebb289c9307a23bc5a1d9cc5593b8a525ef0d030372f8d0121036df9277da3c36bb949d4de62e2903298a225cdc6f4011734694bbe376392dbcc", "asm": "3045022100e8b8781f4c69482da194975a2f0329eba71d41c28a169f420648ef27ff624f2e0220641d96adf223eafef3ebb289c9307a23bc5a1d9cc5593b8a525ef0d030372f8d[ALL] 036df9277da3c36bb949d4de62e2903298a225cdc6f4011734694bbe376392dbcc"}, "vout": 1, "txid": "094cf62015420d66c4317ca11ffa69c96e0b0a9cf7e96bb85408265745977cf1"}, {"sequence": 4294967295, "scriptSig": {"hex": "47304402206d0f7f3ae1f5176d3cc03e7c23b7f2e462bddc5edfcd306c7743d4c5b1d9f83b022010f8a284847c5f34882cb749a0e10dc6df5f0bb69cd83b2f65ae7fdb790278a501210271977291b74f1f5f5c42157e8aae804664eaaeccfd097918450d37f28fb94d77", "asm": "304402206d0f7f3ae1f5176d3cc03e7c23b7f2e462bddc5edfcd306c7743d4c5b1d9f83b022010f8a284847c5f34882cb749a0e10dc6df5f0bb69cd83b2f65ae7fdb790278a5[ALL] 0271977291b74f1f5f5c42157e8aae804664eaaeccfd097918450d37f28fb94d77"}, "vout": 0, "txid": "3c9bf4d614f565ae3679cf9bb7702922fe2c11572b6072702e3add8519c69d60"}], "txid": "db9f8d708d57931f104202acbd54a841ddcf476ce9d72f9e6de866f2dfc34cd8", "blocktime": 1537876114, "version": 1, "confirmations": 11460, "time": 1537876114, "locktime": 0, "vsize": 404, "size": 404}