{"hash": "dba2b8cb95676edc8afd07610bc8e9e8c2782ec0745392bf196915b056569c5a", "blockhash": "0000000000000000000dcc0f55137456b1a82d3642486a52398922ac4d620174", "vout": [{"scriptPubKey": {"reqSigs": 1, "hex": "76a91465a7539139d5d2e0511301ad36a73c8645c5799188ac", "addresses": ["1AGVhRKn7bSo5VFG9t6VXYsgBFqryd8cK7"], "asm": "OP_DUP OP_HASH160 65a7539139d5d2e0511301ad36a73c8645c57991 OP_EQUALVERIFY OP_CHECKSIG", "type": "pubkeyhash"}, "value": 0.02020836, "n": 0}, {"scriptPubKey": {"reqSigs": 1, "hex": "76a914ce99948f3d5248064c825973652756090683a0c488ac", "addresses": ["1KqQBTvKTNXU9tV3eBWGv8xZhxDSUJfviZ"], "asm": "OP_DUP OP_HASH160 ce99948f3d5248064c825973652756090683a0c4 OP_EQUALVERIFY OP_CHECKSIG", "type": "pubkeyhash"}, "value": 0.01086987, "n": 1}], "hex": "010000000120ca1f6ccefaf9af9e9f81267990a1dea7df27da9b04712ad18983380dd5163f010000006a473044022020082f18f8ab1d5a2274ee49ea3747e53403b612a8b820730b3df8429d16315b022040e74c710041de654bffdb23882d2918ae5c04a8abbbdf96ac19e2ce12aa3c6301210207160c122ec88b0d73fdc54b78368bb9cf4c33a6f4e43ad48aad13cb4d603915ffffffff02e4d51e00000000001976a91465a7539139d5d2e0511301ad36a73c8645c5799188ac0b961000000000001976a914ce99948f3d5248064c825973652756090683a0c488ac00000000", "vin": [{"sequence": 4294967295, "scriptSig": {"hex": "473044022020082f18f8ab1d5a2274ee49ea3747e53403b612a8b820730b3df8429d16315b022040e74c710041de654bffdb23882d2918ae5c04a8abbbdf96ac19e2ce12aa3c6301210207160c122ec88b0d73fdc54b78368bb9cf4c33a6f4e43ad48aad13cb4d603915", "asm": "3044022020082f18f8ab1d5a2274ee49ea3747e53403b612a8b820730b3df8429d16315b022040e74c710041de654bffdb23882d2918ae5c04a8abbbdf96ac19e2ce12aa3c63[ALL] 0207160c122ec88b0d73fdc54b78368bb9cf4c33a6f4e43ad48aad13cb4d603915"}, "vout": 1, "txid": "3f16d50d388389d12a71049bda27dfa7dea1907926819f9eaff9face6c1fca20"}], "txid": "dba2b8cb95676edc8afd07610bc8e9e8c2782ec0745392bf196915b056569c5a", "blocktime": 1537870268, "version": 1, "confirmations": 11516, "time": 1537870268, "locktime": 0, "vsize": 225, "size": 225}