{"hash": "dba23f539f37c78076501653011a70408875df0a4fbf34b8eb662d4e8080ed8f", "blockhash": "0000000000000000001f0ddff1eddb255c1121bcd4da4f1bc9a0da00cae72433", "vout": [{"scriptPubKey": {"reqSigs": 1, "hex": "76a914fa927e2da83bd40975a640487773c0b2985a9d8088ac", "addresses": ["1PquRTmxCFRCt4KTnHDboTXkHJ2gLPRkVw"], "asm": "OP_DUP OP_HASH160 fa927e2da83bd40975a640487773c0b2985a9d80 OP_EQUALVERIFY OP_CHECKSIG", "type": "pubkeyhash"}, "value": 0.00141624, "n": 0}, {"scriptPubKey": {"type": "nulldata", "hex": "6a4c50000077ab0001de4825a21dd09bb4255e0444af6c953dd567cf27e7e3ef3236678a625097ab00a67cb3161ad038029740894688805baa103a0612e31d5a47cc75bc9a9526289ac0f6612cd74e33776ee4", "asm": "OP_RETURN 000077ab0001de4825a21dd09bb4255e0444af6c953dd567cf27e7e3ef3236678a625097ab00a67cb3161ad038029740894688805baa103a0612e31d5a47cc75bc9a9526289ac0f6612cd74e33776ee4"}, "value": 0.0, "n": 1}], "hex": "01000000018a20bd77206f06c6cf6ed1e2aad88169a76482a36a9e77cef8be1beb4ce06817010000006a4730440220077bdec26e5e6f169b58adf4d4e983503aff9701e155d9156cfe28922950ebb6022010930fa79203e63b435b5898f70ad9563d50e74b13681eef8795dcb319c8f27701210350270d116ce17d8cb7457637b512cfcdad252db61f89bbfec07b95149d6a384fffffffff0238290200000000001976a914fa927e2da83bd40975a640487773c0b2985a9d8088ac0000000000000000536a4c50000077ab0001de4825a21dd09bb4255e0444af6c953dd567cf27e7e3ef3236678a625097ab00a67cb3161ad038029740894688805baa103a0612e31d5a47cc75bc9a9526289ac0f6612cd74e33776ee400000000", "vin": [{"sequence": 4294967295, "scriptSig": {"hex": "4730440220077bdec26e5e6f169b58adf4d4e983503aff9701e155d9156cfe28922950ebb6022010930fa79203e63b435b5898f70ad9563d50e74b13681eef8795dcb319c8f27701210350270d116ce17d8cb7457637b512cfcdad252db61f89bbfec07b95149d6a384f", "asm": "30440220077bdec26e5e6f169b58adf4d4e983503aff9701e155d9156cfe28922950ebb6022010930fa79203e63b435b5898f70ad9563d50e74b13681eef8795dcb319c8f277[ALL] 0350270d116ce17d8cb7457637b512cfcdad252db61f89bbfec07b95149d6a384f"}, "vout": 1, "txid": "1768e04ceb1bbef8ce779e6aa38264a76981d8aae2d16ecfc6066f2077bd208a"}], "txid": "dba23f539f37c78076501653011a70408875df0a4fbf34b8eb662d4e8080ed8f", "blocktime": 1537872018, "version": 1, "confirmations": 11489, "time": 1537872018, "locktime": 0, "vsize": 283, "size": 283}