{"hash": "dba43815849e4845bb569edff7b5e216480b844a236363ce64ec37bfd28b23c2", "blockhash": "0000000000000000000dcc0f55137456b1a82d3642486a52398922ac4d620174", "vout": [{"scriptPubKey": {"reqSigs": 1, "hex": "76a914d87ebf8b0b69e04069d2f8d4cf80cc1ca61694bd88ac", "addresses": ["1Ljio4EbrGZQiLQvdt2PS5qAxThQkAkiQ8"], "asm": "OP_DUP OP_HASH160 d87ebf8b0b69e04069d2f8d4cf80cc1ca61694bd OP_EQUALVERIFY OP_CHECKSIG", "type": "pubkeyhash"}, "value": 0.01555062, "n": 0}, {"scriptPubKey": {"reqSigs": 1, "hex": "76a914e6f9c85ae3922c318dbd7237656f40e2ccbd501188ac", "addresses": ["1N4HeKj7KVFG2JNE2YCmsfQH1S8vGdA3cE"], "asm": "OP_DUP OP_HASH160 e6f9c85ae3922c318dbd7237656f40e2ccbd5011 OP_EQUALVERIFY OP_CHECKSIG", "type": "pubkeyhash"}, "value": 0.06995551, "n": 1}], "hex": "0100000001382c9a04c3adfbb494ee322ea7564e943cde5612c39b74cc60f78b88331d5e24010000006a47304402203f813b524253b2723f516b2bea66a9a8be9ed375aca17729c9070f0d6dfee7ae02205abc5e8babf011ef2d79547dcfb9d06b4a305dcf1c5655a68a6af78337ec5cfc012102e6ee58c5df4d77d0337bdc7461b2da0c6fc89b844ff3344d0dd408c59ffa4ef0ffffffff0276ba1700000000001976a914d87ebf8b0b69e04069d2f8d4cf80cc1ca61694bd88ac5fbe6a00000000001976a914e6f9c85ae3922c318dbd7237656f40e2ccbd501188ac00000000", "vin": [{"sequence": 4294967295, "scriptSig": {"hex": "47304402203f813b524253b2723f516b2bea66a9a8be9ed375aca17729c9070f0d6dfee7ae02205abc5e8babf011ef2d79547dcfb9d06b4a305dcf1c5655a68a6af78337ec5cfc012102e6ee58c5df4d77d0337bdc7461b2da0c6fc89b844ff3344d0dd408c59ffa4ef0", "asm": "304402203f813b524253b2723f516b2bea66a9a8be9ed375aca17729c9070f0d6dfee7ae02205abc5e8babf011ef2d79547dcfb9d06b4a305dcf1c5655a68a6af78337ec5cfc[ALL] 02e6ee58c5df4d77d0337bdc7461b2da0c6fc89b844ff3344d0dd408c59ffa4ef0"}, "vout": 1, "txid": "245e1d33888bf760cc749bc31256de3c944e56a72e32ee94b4fbadc3049a2c38"}], "txid": "dba43815849e4845bb569edff7b5e216480b844a236363ce64ec37bfd28b23c2", "blocktime": 1537870268, "version": 1, "confirmations": 11516, "time": 1537870268, "locktime": 0, "vsize": 225, "size": 225}