{"hash": "13bca22c2e3b8c77a0412131bfcf4ef88b232fcfd0488c7a2206778072a061f4", "blockhash": "0000000000000000001e0dab787dd257d1dbfcb92a98c2207d5e1078be1f4165", "vout": [{"scriptPubKey": {"reqSigs": 1, "hex": "a91417251f0c2ca9d81b8f54fc5fd9053969b241744d87", "addresses": ["33oPwBqF58ApTyMqfFDZU97XNMncZMHnYE"], "asm": "OP_HASH160 17251f0c2ca9d81b8f54fc5fd9053969b241744d OP_EQUAL", "type": "scripthash"}, "value": 0.01016121, "n": 0}, {"scriptPubKey": {"reqSigs": 1, "hex": "a9145699b1bab0141b4da11142e2ab4c27e17c28f97587", "addresses": ["39av9uTPPDxKCdzSBPjZtNnVg2Y4XQNbi9"], "asm": "OP_HASH160 5699b1bab0141b4da11142e2ab4c27e17c28f975 OP_EQUAL", "type": "scripthash"}, "value": 0.23974859, "n": 1}], "hex": "0200000000010197b3aa1f4c0fd0de2fc288db306218932889e111c45e28cd4d256d1c49d84980000000001716001438c9d70baee9072d57735c495f59687a502cbac5feffffff0239810f000000000017a91417251f0c2ca9d81b8f54fc5fd9053969b241744d87cbd36d010000000017a9145699b1bab0141b4da11142e2ab4c27e17c28f97587024730440220550b3272b63600decccebd4bfb8a095c185717de705586b377997533765c3952022037937d3e9b580d93c7950b15a25739fe3d4f89863c97b5d704d17948524447a9012103f854868cf31a67b1d6c750a053f6c3c84a504282afee92de25b13144e0ec076112490800", "vin": [{"txinwitness": ["30440220550b3272b63600decccebd4bfb8a095c185717de705586b377997533765c3952022037937d3e9b580d93c7950b15a25739fe3d4f89863c97b5d704d17948524447a901", "03f854868cf31a67b1d6c750a053f6c3c84a504282afee92de25b13144e0ec0761"], "sequence": 4294967294, "scriptSig": {"hex": "16001438c9d70baee9072d57735c495f59687a502cbac5", "asm": "001438c9d70baee9072d57735c495f59687a502cbac5"}, "vout": 0, "txid": "8049d8491c6d254dcd285ec411e1892893186230db88c22fded00f4c1faab397"}], "txid": "dba77089901d7c7bf4656cbd3979c9c219523f2fc8842bfc72478170a5ee9646", "blocktime": 1537872475, "version": 2, "confirmations": 11486, "time": 1537872475, "locktime": 542994, "vsize": 166, "size": 247}