{"hash": "dbaae887b0ef8a71aabc347e1a90b22a0fb11e687b71603d77585fc0f2894c34", "blockhash": "0000000000000000000e13cef7c366c0283d82e591d1acd082e914b08063cdf1", "vout": [{"scriptPubKey": {"reqSigs": 1, "hex": "76a914f3eec4478328274cf509f9bd8ab0261051306c6488ac", "addresses": ["1PEoERC2hbrahUz1wYATuTxQztPLt6MAVb"], "asm": "OP_DUP OP_HASH160 f3eec4478328274cf509f9bd8ab0261051306c64 OP_EQUALVERIFY OP_CHECKSIG", "type": "pubkeyhash"}, "value": 0.00739892, "n": 0}], "hex": "0100000002a7966526a722baa5dbd36238e8bef6b069cf6b10744897a8b68be0a213c7083d000000006a4730440220750bde700e9634cf03b004d52705e3220f6663883b211a85c440119a659af8fe0220071097a4e8ee567cf519a70210eeca3e05c154bbf77a71a7a17032b69b782ee1012103a2598f968988c9dea2e31ddccd52ab081f5d51b2b3c40fd77f7a84cd40657b58ffffffff69dffe348e0747a618f414e1dc98898a664ee684ed7aed66d4aac98d4615bd67000000006a47304402207473f975401789d0acc1c66b13bfaf1b7805f0a650ec7a773ad24919f98bf0040220339d216e1bb78600e226d48908934c4e2995c4744a8c7a4bbf372d64c5ccd983012103a2598f968988c9dea2e31ddccd52ab081f5d51b2b3c40fd77f7a84cd40657b58ffffffff01344a0b00000000001976a914f3eec4478328274cf509f9bd8ab0261051306c6488ac00000000", "vin": [{"sequence": 4294967295, "scriptSig": {"hex": "4730440220750bde700e9634cf03b004d52705e3220f6663883b211a85c440119a659af8fe0220071097a4e8ee567cf519a70210eeca3e05c154bbf77a71a7a17032b69b782ee1012103a2598f968988c9dea2e31ddccd52ab081f5d51b2b3c40fd77f7a84cd40657b58", "asm": "30440220750bde700e9634cf03b004d52705e3220f6663883b211a85c440119a659af8fe0220071097a4e8ee567cf519a70210eeca3e05c154bbf77a71a7a17032b69b782ee1[ALL] 03a2598f968988c9dea2e31ddccd52ab081f5d51b2b3c40fd77f7a84cd40657b58"}, "vout": 0, "txid": "3d08c713a2e08bb6a8974874106bcf69b0f6bee83862d3dba5ba22a7266596a7"}, {"sequence": 4294967295, "scriptSig": {"hex": "47304402207473f975401789d0acc1c66b13bfaf1b7805f0a650ec7a773ad24919f98bf0040220339d216e1bb78600e226d48908934c4e2995c4744a8c7a4bbf372d64c5ccd983012103a2598f968988c9dea2e31ddccd52ab081f5d51b2b3c40fd77f7a84cd40657b58", "asm": "304402207473f975401789d0acc1c66b13bfaf1b7805f0a650ec7a773ad24919f98bf0040220339d216e1bb78600e226d48908934c4e2995c4744a8c7a4bbf372d64c5ccd983[ALL] 03a2598f968988c9dea2e31ddccd52ab081f5d51b2b3c40fd77f7a84cd40657b58"}, "vout": 0, "txid": "67bd15468dc9aad466ed7aed84e64e668a8998dce114f418a647078e34fedf69"}], "txid": "dbaae887b0ef8a71aabc347e1a90b22a0fb11e687b71603d77585fc0f2894c34", "blocktime": 1537871767, "version": 1, "confirmations": 11495, "time": 1537871767, "locktime": 0, "vsize": 338, "size": 338}