{"hash": "dbad6974accdaa95a25e56d684799fe458322d78570730734028515c9efe0349", "blockhash": "00000000000000000018f53835495a110e01622372bf6ae95dc86f2b0ab887b0", "vout": [{"scriptPubKey": {"reqSigs": 1, "hex": "76a914957a6e36ccefea98ff12e06faef4277cd313c22988ac", "addresses": ["1EdNMCsSbKAPxeojNDY97nLaTUFh8XjpPm"], "asm": "OP_DUP OP_HASH160 957a6e36ccefea98ff12e06faef4277cd313c229 OP_EQUALVERIFY OP_CHECKSIG", "type": "pubkeyhash"}, "value": 1.347e-05, "n": 0}, {"scriptPubKey": {"reqSigs": 1, "hex": "a914e7c730dce3eb938ec7ba5ed75b7036567f71814e87", "addresses": ["3NpYdt3b6enyXP9EfqQoer7RAs188Vb6jV"], "asm": "OP_HASH160 e7c730dce3eb938ec7ba5ed75b7036567f71814e OP_EQUAL", "type": "scripthash"}, "value": 0.00385593, "n": 1}], "hex": "010000000183cf07d8bc48c835c50c7db857de76d435a3c1f43cd140d98e6d27b035cb0e37010000006a47304402202236f3625989c87b7a692ab87a4214a36b2173b05e179e4da4f3b7bc4f16046a022061a6b98f881c067a23c15ff140f0af1a4823305fe3da34d53cdeee570a5d8e8f012103b7467d11dbd7eb236af46b845d54f85d628b714d59d4eeacdfe1e9388e2f3400ffffffff0243050000000000001976a914957a6e36ccefea98ff12e06faef4277cd313c22988ac39e205000000000017a914e7c730dce3eb938ec7ba5ed75b7036567f71814e8700000000", "vin": [{"sequence": 4294967295, "scriptSig": {"hex": "47304402202236f3625989c87b7a692ab87a4214a36b2173b05e179e4da4f3b7bc4f16046a022061a6b98f881c067a23c15ff140f0af1a4823305fe3da34d53cdeee570a5d8e8f012103b7467d11dbd7eb236af46b845d54f85d628b714d59d4eeacdfe1e9388e2f3400", "asm": "304402202236f3625989c87b7a692ab87a4214a36b2173b05e179e4da4f3b7bc4f16046a022061a6b98f881c067a23c15ff140f0af1a4823305fe3da34d53cdeee570a5d8e8f[ALL] 03b7467d11dbd7eb236af46b845d54f85d628b714d59d4eeacdfe1e9388e2f3400"}, "vout": 1, "txid": "370ecb35b0276d8ed940d13cf4c1a335d476de57b87d0cc535c848bcd807cf83"}], "txid": "dbad6974accdaa95a25e56d684799fe458322d78570730734028515c9efe0349", "blocktime": 1537870928, "version": 1, "confirmations": 11514, "time": 1537870928, "locktime": 0, "vsize": 223, "size": 223}