{"hash": "dbaf828019a80149044ddfc3d8639000fb760442b4e4e55b3c95a593a08e5e46", "blockhash": "000000000000000000022b45ed06c6f4ccd3cf7fb5ba4856ebd2e58215665228", "vout": [{"scriptPubKey": {"reqSigs": 1, "hex": "76a914cde0010239a7642f5e89e9597ceebaf584b917c388ac", "addresses": ["1KmZsPjDARM6JzmYyuhJtmUdB6NtHnZBxZ"], "asm": "OP_DUP OP_HASH160 cde0010239a7642f5e89e9597ceebaf584b917c3 OP_EQUALVERIFY OP_CHECKSIG", "type": "pubkeyhash"}, "value": 1.28674854, "n": 0}, {"scriptPubKey": {"reqSigs": 1, "hex": "76a9146c6e8a8d0a1f45fe1fb3ef0659aee1bcf1ef383588ac", "addresses": ["1AtLQFqvrz1PCApokbttTGR8m7bxc4vH5A"], "asm": "OP_DUP OP_HASH160 6c6e8a8d0a1f45fe1fb3ef0659aee1bcf1ef3835 OP_EQUALVERIFY OP_CHECKSIG", "type": "pubkeyhash"}, "value": 0.01568886, "n": 1}], "hex": "0200000001f3ac3e7a58ea2df54e75ae718d02fec0c92fc2fa66d40a320d6896dff70dddbd030000006a47304402203a9f3a855c6eb7c0701cb7d06ab2539025fa27b121ac5d5539e4fcccf882d221022027e0347a4dbe880bbb5bebd98f4a8b5767841aec8717761905a98aac87efeb7b0121029c0c8559f5522dc12760aa1aa1c473386c6423eda1f9ae399f744a85db470428feffffff02266cab07000000001976a914cde0010239a7642f5e89e9597ceebaf584b917c388ac76f01700000000001976a9146c6e8a8d0a1f45fe1fb3ef0659aee1bcf1ef383588ac0b490800", "vin": [{"sequence": 4294967294, "scriptSig": {"hex": "47304402203a9f3a855c6eb7c0701cb7d06ab2539025fa27b121ac5d5539e4fcccf882d221022027e0347a4dbe880bbb5bebd98f4a8b5767841aec8717761905a98aac87efeb7b0121029c0c8559f5522dc12760aa1aa1c473386c6423eda1f9ae399f744a85db470428", "asm": "304402203a9f3a855c6eb7c0701cb7d06ab2539025fa27b121ac5d5539e4fcccf882d221022027e0347a4dbe880bbb5bebd98f4a8b5767841aec8717761905a98aac87efeb7b[ALL] 029c0c8559f5522dc12760aa1aa1c473386c6423eda1f9ae399f744a85db470428"}, "vout": 3, "txid": "bddd0df7df96680d320ad466fac22fc9c0fe028d71ae754ef52dea587a3eacf3"}], "txid": "dbaf828019a80149044ddfc3d8639000fb760442b4e4e55b3c95a593a08e5e46", "blocktime": 1537869901, "version": 2, "confirmations": 11522, "time": 1537869901, "locktime": 542987, "vsize": 225, "size": 225}