{"hash": "dbb2b879f3f7c006f395b57ee411d2edf7cc85edc98b17ace18267014cde3cb8", "blockhash": "0000000000000000000e13cef7c366c0283d82e591d1acd082e914b08063cdf1", "vout": [{"scriptPubKey": {"reqSigs": 1, "hex": "76a914512fc0b0fb5b6000896e3cca5f6e08f5326daca788ac", "addresses": ["18QGwTLUHAhsTimgTFeTj5zqjLDrQxiBmA"], "asm": "OP_DUP OP_HASH160 512fc0b0fb5b6000896e3cca5f6e08f5326daca7 OP_EQUALVERIFY OP_CHECKSIG", "type": "pubkeyhash"}, "value": 0.8921662, "n": 0}, {"scriptPubKey": {"reqSigs": 1, "hex": "76a914e8cea30989bd15530f819b766684b00dc7ba7cfa88ac", "addresses": ["1NDyJtNTjmwk5xPNhjgAMu4HDHigtobu1s"], "asm": "OP_DUP OP_HASH160 e8cea30989bd15530f819b766684b00dc7ba7cfa OP_EQUALVERIFY OP_CHECKSIG", "type": "pubkeyhash"}, "value": 4.6076078, "n": 1}], "hex": "02000000017f0f30b1c75cba899c442be2ee0901a141d51968f45d8b29376671f794d1205f000000006a47304402206a99c6a684b86f1e55d8782479651469461edb6a94f8ad77527af71c14bc1089022057652b86aede09f915be7ffd80a240d11f6fb46854ce319ef7ec7712d87bb370012102c9b47840e4edd9d306dbe975907e8abfdea9790237d4a2f7d751d3b809165a79feffffff026c565105000000001976a914512fc0b0fb5b6000896e3cca5f6e08f5326daca788accca6761b000000001976a914e8cea30989bd15530f819b766684b00dc7ba7cfa88ac10490800", "vin": [{"sequence": 4294967294, "scriptSig": {"hex": "47304402206a99c6a684b86f1e55d8782479651469461edb6a94f8ad77527af71c14bc1089022057652b86aede09f915be7ffd80a240d11f6fb46854ce319ef7ec7712d87bb370012102c9b47840e4edd9d306dbe975907e8abfdea9790237d4a2f7d751d3b809165a79", "asm": "304402206a99c6a684b86f1e55d8782479651469461edb6a94f8ad77527af71c14bc1089022057652b86aede09f915be7ffd80a240d11f6fb46854ce319ef7ec7712d87bb370[ALL] 02c9b47840e4edd9d306dbe975907e8abfdea9790237d4a2f7d751d3b809165a79"}, "vout": 0, "txid": "5f20d194f7716637298b5df46819d541a10109eee22b449c89ba5cc7b1300f7f"}], "txid": "dbb2b879f3f7c006f395b57ee411d2edf7cc85edc98b17ace18267014cde3cb8", "blocktime": 1537871767, "version": 2, "confirmations": 11490, "time": 1537871767, "locktime": 542992, "vsize": 225, "size": 225}