{"hash": "dbb7b54450fad8693552c1b6736c4011e43f26160eee893c590a91fa940466de", "blockhash": "0000000000000000001f76057863aec43deb6fa401d9628bb513d65a8098bfab", "vout": [{"scriptPubKey": {"reqSigs": 1, "hex": "76a9144bcd29129c67ff09f0eb30744ceaed8779b4a15088ac", "addresses": ["17uoTBhuEJBNNC6YptdGkfnkzn2tJ8dkAA"], "asm": "OP_DUP OP_HASH160 4bcd29129c67ff09f0eb30744ceaed8779b4a150 OP_EQUALVERIFY OP_CHECKSIG", "type": "pubkeyhash"}, "value": 0.2199774, "n": 0}], "hex": "01000000012a4cc5b4550d8a6ea74714a303a59e1faf00f85a444d5e9d481a55ea462be8d5000000006b4830450221009b8114cf669e082616bda6e0b1900a2cd69b8bfaa6435332351087f9b65a1d19022034bf3f55d246b5b7785e348756657736309d926983d942e510622b7b2d5c0c7c01210228dec23286675e203d7285b2063afc51c38133ab7f6462e71e11f291d6de82daffffffff01aca84f01000000001976a9144bcd29129c67ff09f0eb30744ceaed8779b4a15088ac00000000", "vin": [{"sequence": 4294967295, "scriptSig": {"hex": "4830450221009b8114cf669e082616bda6e0b1900a2cd69b8bfaa6435332351087f9b65a1d19022034bf3f55d246b5b7785e348756657736309d926983d942e510622b7b2d5c0c7c01210228dec23286675e203d7285b2063afc51c38133ab7f6462e71e11f291d6de82da", "asm": "30450221009b8114cf669e082616bda6e0b1900a2cd69b8bfaa6435332351087f9b65a1d19022034bf3f55d246b5b7785e348756657736309d926983d942e510622b7b2d5c0c7c[ALL] 0228dec23286675e203d7285b2063afc51c38133ab7f6462e71e11f291d6de82da"}, "vout": 0, "txid": "d5e82b46ea551a489d5e4d445af800af1f9ea503a31447a76e8a0d55b4c54c2a"}], "txid": "dbb7b54450fad8693552c1b6736c4011e43f26160eee893c590a91fa940466de", "blocktime": 1537873891, "version": 1, "confirmations": 11475, "time": 1537873891, "locktime": 0, "vsize": 192, "size": 192}