{"hash": "dbb913c9e030c8c45310165311bd153cd65611b0d3b29e31e42a8bf45e7ac0c7", "blockhash": "0000000000000000001f0ddff1eddb255c1121bcd4da4f1bc9a0da00cae72433", "vout": [{"scriptPubKey": {"reqSigs": 1, "hex": "76a914d63fc99a5c604f8a2b9132ad91f8075b802c64cf88ac", "addresses": ["1LXr25yM4qLWNAymyyw8fSvgSa2HQudE75"], "asm": "OP_DUP OP_HASH160 d63fc99a5c604f8a2b9132ad91f8075b802c64cf OP_EQUALVERIFY OP_CHECKSIG", "type": "pubkeyhash"}, "value": 0.00641344, "n": 0}, {"scriptPubKey": {"type": "nulldata", "hex": "6a4c50000077aa0001cc3e71fd0089983f3f86dd1eaf6c953dd567cf27e7e3ef3236678a6250974d5fd9fc3590d6af0d317254c51eff475baa101e0612d889803a8ebc1d100759d4ba30d2c37bb011d97e02cf", "asm": "OP_RETURN 000077aa0001cc3e71fd0089983f3f86dd1eaf6c953dd567cf27e7e3ef3236678a6250974d5fd9fc3590d6af0d317254c51eff475baa101e0612d889803a8ebc1d100759d4ba30d2c37bb011d97e02cf"}, "value": 0.0, "n": 1}], "hex": "01000000011554d262904b3a0204fc513824a7eb16b5bcfa6a02708910cd052ad0c41dfe5d010000006a4730440220578df917014ad457c2ebf9a8078c3cb874648bde1ff201a7d1bccae75e0c8214022030db15ad7f70ab2d6b9b8d09c0429154d0bd55fe31d5332bab2c9b8835ba036a0121030bbcbfb2dd6bb745ca799596fc5854ea86cab0224a9a814cdab8f780bffea83affffffff0240c90900000000001976a914d63fc99a5c604f8a2b9132ad91f8075b802c64cf88ac0000000000000000536a4c50000077aa0001cc3e71fd0089983f3f86dd1eaf6c953dd567cf27e7e3ef3236678a6250974d5fd9fc3590d6af0d317254c51eff475baa101e0612d889803a8ebc1d100759d4ba30d2c37bb011d97e02cf00000000", "vin": [{"sequence": 4294967295, "scriptSig": {"hex": "4730440220578df917014ad457c2ebf9a8078c3cb874648bde1ff201a7d1bccae75e0c8214022030db15ad7f70ab2d6b9b8d09c0429154d0bd55fe31d5332bab2c9b8835ba036a0121030bbcbfb2dd6bb745ca799596fc5854ea86cab0224a9a814cdab8f780bffea83a", "asm": "30440220578df917014ad457c2ebf9a8078c3cb874648bde1ff201a7d1bccae75e0c8214022030db15ad7f70ab2d6b9b8d09c0429154d0bd55fe31d5332bab2c9b8835ba036a[ALL] 030bbcbfb2dd6bb745ca799596fc5854ea86cab0224a9a814cdab8f780bffea83a"}, "vout": 1, "txid": "5dfe1dc4d02a05cd108970026afabcb516eba7243851fc04023a4b9062d25415"}], "txid": "dbb913c9e030c8c45310165311bd153cd65611b0d3b29e31e42a8bf45e7ac0c7", "blocktime": 1537872018, "version": 1, "confirmations": 11489, "time": 1537872018, "locktime": 0, "vsize": 283, "size": 283}