{"hash": "de113d9b7064c99bd4a6e0173f4a7aa92c1750ee413bf441661baca977da683d", "blockhash": "0000000000000000001cda96e906b7601b7a6fb1a3b62bca570a9e5d8f4b3de1", "vout": [{"scriptPubKey": {"reqSigs": 1, "hex": "76a914d2499eb9e80ce07e59e8a149ceb8f518208ff87788ac", "addresses": ["1LAu6VccfRDG8e3mvjxRiEmh3HU3wg7ArL"], "asm": "OP_DUP OP_HASH160 d2499eb9e80ce07e59e8a149ceb8f518208ff877 OP_EQUALVERIFY OP_CHECKSIG", "type": "pubkeyhash"}, "value": 0.01198249, "n": 0}, {"scriptPubKey": {"reqSigs": 1, "hex": "a91469d48312e4936b0df02aed59c8c786ef2bfe532e87", "addresses": ["3BLbTH8zagWw4Lp3zg7WkXozm6awe65xcA"], "asm": "OP_HASH160 69d48312e4936b0df02aed59c8c786ef2bfe532e OP_EQUAL", "type": "scripthash"}, "value": 0.69732816, "n": 1}, {"scriptPubKey": {"reqSigs": 1, "hex": "76a914eac15f99475bf958c299578997f76f1c6c22275f88ac", "addresses": ["1NQGmiBJtWdzeRvZPz6GzqQBJLnb6if4sY"], "asm": "OP_DUP OP_HASH160 eac15f99475bf958c299578997f76f1c6c22275f OP_EQUALVERIFY OP_CHECKSIG", "type": "pubkeyhash"}, "value": 0.03241043, "n": 2}], "hex": "020000000001028d56f8dbf549a4e81f853e7fc0722fa34260c3b0a027aa8445e3d19d329982c70100000017160014260e422f29bd2066f387883484dd77aae57d9e65feffffffc95193281dd7e89c8eba00bc7f5dcb3f483ac5ed5f1669c23f1eec68e2fbab9e020000006a473044022046177b012500b9e314b08cd879d7dae69c6371cc686f3311a9a1dd56c593b02d022075240dc84b0f06777dc523b5d47c912663cb5d6d22b246b7c09c80812cc2b53d01210265c9d9b5aad29452b2b89246c97dd783a16d281ba2df62d18279c29bda8ebad5feffffff03a9481200000000001976a914d2499eb9e80ce07e59e8a149ceb8f518208ff87788acd00928040000000017a91469d48312e4936b0df02aed59c8c786ef2bfe532e8753743100000000001976a914eac15f99475bf958c299578997f76f1c6c22275f88ac02483045022100f9fa8dbaf73b75006d5dad0e02b6c51dc0125c74a5ba9d8be87a4a6964a7573f022016334fd3e5dac0e34f3a9ef933f7bb73fbaa654a7a1072e04e3bf0284e7969d4012102da93e51c95c77b2e00dc8d3a419b0a8fd070df616fca0e4e368dec752de3d9fd0013490800", "vin": [{"txinwitness": ["3045022100f9fa8dbaf73b75006d5dad0e02b6c51dc0125c74a5ba9d8be87a4a6964a7573f022016334fd3e5dac0e34f3a9ef933f7bb73fbaa654a7a1072e04e3bf0284e7969d401", "02da93e51c95c77b2e00dc8d3a419b0a8fd070df616fca0e4e368dec752de3d9fd"], "sequence": 4294967294, "scriptSig": {"hex": "160014260e422f29bd2066f387883484dd77aae57d9e65", "asm": "0014260e422f29bd2066f387883484dd77aae57d9e65"}, "vout": 1, "txid": "c78299329dd1e34584aa27a0b0c36042a32f72c07f3e851fe8a449f5dbf8568d"}, {"sequence": 4294967294, "scriptSig": {"hex": "473044022046177b012500b9e314b08cd879d7dae69c6371cc686f3311a9a1dd56c593b02d022075240dc84b0f06777dc523b5d47c912663cb5d6d22b246b7c09c80812cc2b53d01210265c9d9b5aad29452b2b89246c97dd783a16d281ba2df62d18279c29bda8ebad5", "asm": "3044022046177b012500b9e314b08cd879d7dae69c6371cc686f3311a9a1dd56c593b02d022075240dc84b0f06777dc523b5d47c912663cb5d6d22b246b7c09c80812cc2b53d[ALL] 0265c9d9b5aad29452b2b89246c97dd783a16d281ba2df62d18279c29bda8ebad5"}, "vout": 2, "txid": "9eabfbe268ec1e3fc269165fedc53a483fcb5d7fbc00ba8e9ce8d71d289351c9"}], "txid": "dbc13a176475531ce93f5feac4b2ba63a048709dac1911518a1507fbc7bbb4ba", "blocktime": 1537873282, "version": 2, "confirmations": 11480, "time": 1537873282, "locktime": 542995, "vsize": 349, "size": 432}