{"hash": "29ddcee51f9228b7e7b52256fa2ef7178b0a54d1e0d843b48fde7db3c60f1948", "blockhash": "00000000000000000017f5eb5941039fbcee6240d03bc1f2f8e35350df66a1d8", "vout": [{"scriptPubKey": {"reqSigs": 1, "hex": "a914cdacafee6aacf64881b625ac1d5de62b9d7211fd87", "addresses": ["3LSXKPU9TcRfXuvNdYp6D2YXAPK2pq3cw2"], "asm": "OP_HASH160 cdacafee6aacf64881b625ac1d5de62b9d7211fd OP_EQUAL", "type": "scripthash"}, "value": 4.2341599, "n": 0}, {"scriptPubKey": {"reqSigs": 1, "hex": "a914a30522d387099811f76532214bf3be1e809fbc6787", "addresses": ["3GYzDfqcCSASJsLyvurNz1RX65sTk9EAAy"], "asm": "OP_HASH160 a30522d387099811f76532214bf3be1e809fbc67 OP_EQUAL", "type": "scripthash"}, "value": 0.014, "n": 1}, {"scriptPubKey": {"reqSigs": 1, "hex": "76a9140ce4bd470996335e0a2393038b3eb3cbff18668488ac", "addresses": ["12BB8Pid8ZJr1tZHv5WCvz9xVky1d8n3yn"], "asm": "OP_DUP OP_HASH160 0ce4bd470996335e0a2393038b3eb3cbff186684 OP_EQUALVERIFY OP_CHECKSIG", "type": "pubkeyhash"}, "value": 0.08890085, "n": 2}], "hex": "020000000001012466373eb1d7da4d7ca63a191fd03b7cf7f3d32af985a8d154cbf7e6a6d171400600000017160014274a90ec458add3639864eb87e4f0e22837c5d34fdffffff03b6d03c190000000017a914cdacafee6aacf64881b625ac1d5de62b9d7211fd87c05c15000000000017a914a30522d387099811f76532214bf3be1e809fbc6787e5a68700000000001976a9140ce4bd470996335e0a2393038b3eb3cbff18668488ac024830450221009a7c8841cb741834a011167f79d68768606387848c2781c29c76c5493a3a3b8502207399f0a4574ae1389d56f496a3cfc9a04020bce557e185d2e64227dd9c69b1a9012102c48c4c3c8cc38567a303e421d8c617b2781a932b601c03fd2c93d43373d922bf15490800", "vin": [{"txinwitness": ["30450221009a7c8841cb741834a011167f79d68768606387848c2781c29c76c5493a3a3b8502207399f0a4574ae1389d56f496a3cfc9a04020bce557e185d2e64227dd9c69b1a901", "02c48c4c3c8cc38567a303e421d8c617b2781a932b601c03fd2c93d43373d922bf"], "sequence": 4294967293, "scriptSig": {"hex": "160014274a90ec458add3639864eb87e4f0e22837c5d34", "asm": "0014274a90ec458add3639864eb87e4f0e22837c5d34"}, "vout": 6, "txid": "4071d1a6e6f7cb54d1a885f92ad3f3f77c3bd01f193aa67c4ddad7b13e376624"}], "txid": "dbc4b943a3d9b83efa128ce099f13025fe87166b47a116c36b2117d73f4b386a", "blocktime": 1537874412, "version": 2, "confirmations": 11468, "time": 1537874412, "locktime": 542997, "vsize": 200, "size": 282}