{"hash": "dbc782e057f3f8fd097de8b22e2b751f24a43387bd56d2e5c18e63e364bcd0e5", "blockhash": "0000000000000000000dcc0f55137456b1a82d3642486a52398922ac4d620174", "vout": [{"scriptPubKey": {"reqSigs": 1, "hex": "76a914c0793bb60d122b59a8fe233687d966267226e39d88ac", "addresses": ["1JYhyGNm46z8HmyHQGLafRaY1o3Wij3hF2"], "asm": "OP_DUP OP_HASH160 c0793bb60d122b59a8fe233687d966267226e39d OP_EQUALVERIFY OP_CHECKSIG", "type": "pubkeyhash"}, "value": 0.00011341, "n": 0}, {"scriptPubKey": {"reqSigs": 1, "hex": "a914a692342ce987da0cc5a8f882998fe603f27437f287", "addresses": ["3GsmEoj6LHMmF1o2Zh979yNUErpDi9VMmB"], "asm": "OP_HASH160 a692342ce987da0cc5a8f882998fe603f27437f2 OP_EQUAL", "type": "scripthash"}, "value": 0.06626316, "n": 1}], "hex": "01000000029804070cc4116191af64567a82e1bdc1015dba3c3db88839579eaf44013b45c2000000006a47304402202028e6e5b5a1c58270e293b4d5b59262bdb35290d7c4afa73360db49e9c0dd3e02200a70481ecd893bf0215a1dcce60591037767e55372df89b30fdc9df08480cd470121025a647ee4d40f44767ca2d13fb9dd78fc3a7df40d0435699a0f22834bdea8b894ffffffffb876985089b32aa0580d54bdc88db1496ab2a6506cccebd92c013167407c3ace000000006b4830450221009885efe624f5b7465298b3db2bf72a0d83af738c03490169bb85f3876e7a551002204d64962ce553e6fb06e694a8c4e8d0bb822669bc4be405420ac42e5658f2a2260121026710fe0453a5175daff372a9c7200804874223a790bd550d9fb11376e10f6d55ffffffff024d2c0000000000001976a914c0793bb60d122b59a8fe233687d966267226e39d88ac0c1c65000000000017a914a692342ce987da0cc5a8f882998fe603f27437f28700000000", "vin": [{"sequence": 4294967295, "scriptSig": {"hex": "47304402202028e6e5b5a1c58270e293b4d5b59262bdb35290d7c4afa73360db49e9c0dd3e02200a70481ecd893bf0215a1dcce60591037767e55372df89b30fdc9df08480cd470121025a647ee4d40f44767ca2d13fb9dd78fc3a7df40d0435699a0f22834bdea8b894", "asm": "304402202028e6e5b5a1c58270e293b4d5b59262bdb35290d7c4afa73360db49e9c0dd3e02200a70481ecd893bf0215a1dcce60591037767e55372df89b30fdc9df08480cd47[ALL] 025a647ee4d40f44767ca2d13fb9dd78fc3a7df40d0435699a0f22834bdea8b894"}, "vout": 0, "txid": "c2453b0144af9e573988b83d3cba5d01c1bde1827a5664af916111c40c070498"}, {"sequence": 4294967295, "scriptSig": {"hex": "4830450221009885efe624f5b7465298b3db2bf72a0d83af738c03490169bb85f3876e7a551002204d64962ce553e6fb06e694a8c4e8d0bb822669bc4be405420ac42e5658f2a2260121026710fe0453a5175daff372a9c7200804874223a790bd550d9fb11376e10f6d55", "asm": "30450221009885efe624f5b7465298b3db2bf72a0d83af738c03490169bb85f3876e7a551002204d64962ce553e6fb06e694a8c4e8d0bb822669bc4be405420ac42e5658f2a226[ALL] 026710fe0453a5175daff372a9c7200804874223a790bd550d9fb11376e10f6d55"}, "vout": 0, "txid": "ce3a7c406731012cd9ebcc6c50a6b26a49b18dc8bd540d58a02ab389509876b8"}], "txid": "dbc782e057f3f8fd097de8b22e2b751f24a43387bd56d2e5c18e63e364bcd0e5", "blocktime": 1537870268, "version": 1, "confirmations": 11516, "time": 1537870268, "locktime": 0, "vsize": 371, "size": 371}