{"hash": "dbc9075cfac758c16a1e369cba894b32b5954789282f05b97c7731c7b97d9def", "blockhash": "0000000000000000000baef3f32e3676a92c3b2e5da21b426e4f302fc371ce76", "vout": [{"scriptPubKey": {"reqSigs": 1, "hex": "76a914da8c6dd53ad7b4f56199e5b0871337382307f9a188ac", "addresses": ["1LvaXzy5ju7RaxcEnKuvrC6y4NM6bf7TSK"], "asm": "OP_DUP OP_HASH160 da8c6dd53ad7b4f56199e5b0871337382307f9a1 OP_EQUALVERIFY OP_CHECKSIG", "type": "pubkeyhash"}, "value": 0.12521878, "n": 0}], "hex": "0100000005536cc7eb081ddb96165bb1cf48f98bbea2949906138f5bb1693bc0b4dbf0a542000000006b483045022100f8b85de1e0145e78b52e3c941e6fc29e7074c1561d297da5616bbefc597c3732022068809c8bcdb6c433ecd6464b790e1bd681c0bf218cb5f14f8b649fbf9cfdac79012102ff5dca218c8ccad2b913a94d38d304d8d75a4f6f6e0cc3d7897fb36713779a54feffffff11156ad0ab119e3188ac5675a1ba24132390fa8c48128455958cb9fdc866cfbc000000006b483045022100d2c300eebc38ff3aa2d61873a1d9088ec3d13e25ea9bac399fddee4ddc014f0502203fa4d4ed20388a565b8f4d20a5d259a9ccddf876af797b2c7564d4f5f9d08432012102ff5dca218c8ccad2b913a94d38d304d8d75a4f6f6e0cc3d7897fb36713779a54feffffffc546097769cd18d4a7f6c2e77a81fbf0b5ba4ab3352445fe588cb010e5cb0ac7010000006b483045022100c4b926bfb9c98445d0b08d7ae8d5adba468a3c580a7c1b4a3cb53d5fc999595102200b0a4c5715ad93e4f0ad8d7557f763285a7126c8be1447d0b60b6d8fe18604520121036c6db995dc2d137524f441126a0188991fc107c7c045e8301fb1c1776578a4d9feffffffe2fec29bca4ee391b7454b32d9dd17368bcb92febf835a238094413b5fc167e9000000006b483045022100e5fb7e441babdaa17cc2435b68358d8aea40baf1c3ba9239021566d005bd8529022055a3ae58a2ba64095692c40e42211ec62a654624a2ba753af4efacabe83dfaca01210325004e30c7910ae90be0ce0d7a8254bd9104d5dc997ee60d5f8689675bc9abe9feffffffa1013279ed4e7d2fc9a85603241a266b2d3c1e173026deab9c8a90ebcffb2bf8000000006a47304402204bdf6af6d028b1901e4d5a35c4af2fc53044c7d9e1c25aca20b6805633ffc315022061c30c88bc4c8fb17bb28cc11f5e6938c529567b64fde5d618f396b28366ebea012102ff5dca218c8ccad2b913a94d38d304d8d75a4f6f6e0cc3d7897fb36713779a54feffffff019611bf00000000001976a914da8c6dd53ad7b4f56199e5b0871337382307f9a188ac17490800", "vin": [{"sequence": 4294967294, "scriptSig": {"hex": "483045022100f8b85de1e0145e78b52e3c941e6fc29e7074c1561d297da5616bbefc597c3732022068809c8bcdb6c433ecd6464b790e1bd681c0bf218cb5f14f8b649fbf9cfdac79012102ff5dca218c8ccad2b913a94d38d304d8d75a4f6f6e0cc3d7897fb36713779a54", "asm": "3045022100f8b85de1e0145e78b52e3c941e6fc29e7074c1561d297da5616bbefc597c3732022068809c8bcdb6c433ecd6464b790e1bd681c0bf218cb5f14f8b649fbf9cfdac79[ALL] 02ff5dca218c8ccad2b913a94d38d304d8d75a4f6f6e0cc3d7897fb36713779a54"}, "vout": 0, "txid": "42a5f0dbb4c03b69b15b8f13069994a2be8bf948cfb15b1696db1d08ebc76c53"}, {"sequence": 4294967294, "scriptSig": {"hex": "483045022100d2c300eebc38ff3aa2d61873a1d9088ec3d13e25ea9bac399fddee4ddc014f0502203fa4d4ed20388a565b8f4d20a5d259a9ccddf876af797b2c7564d4f5f9d08432012102ff5dca218c8ccad2b913a94d38d304d8d75a4f6f6e0cc3d7897fb36713779a54", "asm": "3045022100d2c300eebc38ff3aa2d61873a1d9088ec3d13e25ea9bac399fddee4ddc014f0502203fa4d4ed20388a565b8f4d20a5d259a9ccddf876af797b2c7564d4f5f9d08432[ALL] 02ff5dca218c8ccad2b913a94d38d304d8d75a4f6f6e0cc3d7897fb36713779a54"}, "vout": 0, "txid": "bccf66c8fdb98c95558412488cfa90231324baa17556ac88319e11abd06a1511"}, {"sequence": 4294967294, "scriptSig": {"hex": "483045022100c4b926bfb9c98445d0b08d7ae8d5adba468a3c580a7c1b4a3cb53d5fc999595102200b0a4c5715ad93e4f0ad8d7557f763285a7126c8be1447d0b60b6d8fe18604520121036c6db995dc2d137524f441126a0188991fc107c7c045e8301fb1c1776578a4d9", "asm": "3045022100c4b926bfb9c98445d0b08d7ae8d5adba468a3c580a7c1b4a3cb53d5fc999595102200b0a4c5715ad93e4f0ad8d7557f763285a7126c8be1447d0b60b6d8fe1860452[ALL] 036c6db995dc2d137524f441126a0188991fc107c7c045e8301fb1c1776578a4d9"}, "vout": 1, "txid": "c70acbe510b08c58fe452435b34abab5f0fb817ae7c2f6a7d418cd69770946c5"}, {"sequence": 4294967294, "scriptSig": {"hex": "483045022100e5fb7e441babdaa17cc2435b68358d8aea40baf1c3ba9239021566d005bd8529022055a3ae58a2ba64095692c40e42211ec62a654624a2ba753af4efacabe83dfaca01210325004e30c7910ae90be0ce0d7a8254bd9104d5dc997ee60d5f8689675bc9abe9", "asm": "3045022100e5fb7e441babdaa17cc2435b68358d8aea40baf1c3ba9239021566d005bd8529022055a3ae58a2ba64095692c40e42211ec62a654624a2ba753af4efacabe83dfaca[ALL] 0325004e30c7910ae90be0ce0d7a8254bd9104d5dc997ee60d5f8689675bc9abe9"}, "vout": 0, "txid": "e967c15f3b419480235a83bffe92cb8b3617ddd9324b45b791e34eca9bc2fee2"}, {"sequence": 4294967294, "scriptSig": {"hex": "47304402204bdf6af6d028b1901e4d5a35c4af2fc53044c7d9e1c25aca20b6805633ffc315022061c30c88bc4c8fb17bb28cc11f5e6938c529567b64fde5d618f396b28366ebea012102ff5dca218c8ccad2b913a94d38d304d8d75a4f6f6e0cc3d7897fb36713779a54", "asm": "304402204bdf6af6d028b1901e4d5a35c4af2fc53044c7d9e1c25aca20b6805633ffc315022061c30c88bc4c8fb17bb28cc11f5e6938c529567b64fde5d618f396b28366ebea[ALL] 02ff5dca218c8ccad2b913a94d38d304d8d75a4f6f6e0cc3d7897fb36713779a54"}, "vout": 0, "txid": "f82bfbcfeb908a9cabde2630171e3c2d6b261a240356a8c92f7d4eed793201a1"}], "txid": "dbc9075cfac758c16a1e369cba894b32b5954789282f05b97c7731c7b97d9def", "blocktime": 1537876114, "version": 1, "confirmations": 11460, "time": 1537876114, "locktime": 542999, "vsize": 783, "size": 783}