{"hash": "12080dbd21db494707da24aea7d8b249a9486e87e76d788be5de734e8c97838c", "blockhash": "0000000000000000001cda96e906b7601b7a6fb1a3b62bca570a9e5d8f4b3de1", "vout": [{"scriptPubKey": {"reqSigs": 1, "hex": "a914f6ba631e1d63a82add7f413dc127c77462cfa9da87", "addresses": ["3QBbS9CgFssYZQxr1hkDXrQKMxDGBrmr5M"], "asm": "OP_HASH160 f6ba631e1d63a82add7f413dc127c77462cfa9da OP_EQUAL", "type": "scripthash"}, "value": 0.0346592, "n": 0}, {"scriptPubKey": {"reqSigs": 1, "hex": "76a914e688a53bcb7a42e33a48a5bbd99180df67771fdc88ac", "addresses": ["1N1x7QwtM91srRhBaoyD3pS9Sq7usEgh8L"], "asm": "OP_DUP OP_HASH160 e688a53bcb7a42e33a48a5bbd99180df67771fdc OP_EQUALVERIFY OP_CHECKSIG", "type": "pubkeyhash"}, "value": 0.30266, "n": 1}], "hex": "020000000001025404b3c2eed1556aff1b2a02e315bb0f967273779cdb4141f8ab250ab3dda96300000000171600142dd3d85d93c413e80e7990aed34f6972e83aec2efdffffffe761570bab68dde63c7900045cacbfc809a616f5aef8a0aa73fc48e4536616a90000000017160014968c806cc8fa54986341abd5385d3f0f2d440871fdffffff02c0e234000000000017a914f6ba631e1d63a82add7f413dc127c77462cfa9da8790d2cd01000000001976a914e688a53bcb7a42e33a48a5bbd99180df67771fdc88ac024830450221008176c3a9512f105ded6a9186e790e2a743c88c1d9c26519cd449355fd3e637bf022024794a14ac606b346f51c876d8e8eadcc14f8b474d78db9cbb7b445a4e1bed9e0121025f2d4de0fea0fab036f2bfc9fe25f2b1b90e20dd96a7ec1f4641d507a56d6ec902483045022100ecfc94ea6563b2817904eaf202fa013c1d171c734b554803f4edf16c8d5095230220630adf9c615c26cffb2fa93daac40512fb57ba447ab9892ee5b647770c0e43ba012103b2c71882938d1222c7cf340c2900d2d66dcec806755e795a0a3298bb4dca9ba313490800", "vin": [{"txinwitness": ["30450221008176c3a9512f105ded6a9186e790e2a743c88c1d9c26519cd449355fd3e637bf022024794a14ac606b346f51c876d8e8eadcc14f8b474d78db9cbb7b445a4e1bed9e01", "025f2d4de0fea0fab036f2bfc9fe25f2b1b90e20dd96a7ec1f4641d507a56d6ec9"], "sequence": 4294967293, "scriptSig": {"hex": "1600142dd3d85d93c413e80e7990aed34f6972e83aec2e", "asm": "00142dd3d85d93c413e80e7990aed34f6972e83aec2e"}, "vout": 0, "txid": "63a9ddb30a25abf84141db9c777372960fbb15e3022a1bff6a55d1eec2b30454"}, {"txinwitness": ["3045022100ecfc94ea6563b2817904eaf202fa013c1d171c734b554803f4edf16c8d5095230220630adf9c615c26cffb2fa93daac40512fb57ba447ab9892ee5b647770c0e43ba01", "03b2c71882938d1222c7cf340c2900d2d66dcec806755e795a0a3298bb4dca9ba3"], "sequence": 4294967293, "scriptSig": {"hex": "160014968c806cc8fa54986341abd5385d3f0f2d440871", "asm": "0014968c806cc8fa54986341abd5385d3f0f2d440871"}, "vout": 0, "txid": "a9166653e448fc73aaa0f8aef516a609c8bfac5c0400793ce6dd68ab0b5761e7"}], "txid": "dbd07d01cc57b5fd7e8df46c90492982b88c3db924479fba1f60e39a4602f3d9", "blocktime": 1537873282, "version": 2, "confirmations": 11480, "time": 1537873282, "locktime": 542995, "vsize": 259, "size": 422}