{"hash": "dbdcc212995684e908956fe85d399ef0e04a8dcc8bef82811613220307f360c7", "blockhash": "000000000000000000022b45ed06c6f4ccd3cf7fb5ba4856ebd2e58215665228", "vout": [{"scriptPubKey": {"reqSigs": 1, "hex": "76a914d243e6abb9a60fbff430b421d2df4b7d59ec186088ac", "addresses": ["1LAnF8h3qMGx3TSwNUHVneBZUEpwE4gu3D"], "asm": "OP_DUP OP_HASH160 d243e6abb9a60fbff430b421d2df4b7d59ec1860 OP_EQUALVERIFY OP_CHECKSIG", "type": "pubkeyhash"}, "value": 0.00076972, "n": 0}, {"scriptPubKey": {"reqSigs": 1, "hex": "76a9143851f34d13937b673a7d24a1950bb5b21ce94af388ac", "addresses": ["168o1kqNquEJeR9vosUB5fw4eAwcVAgh8P"], "asm": "OP_DUP OP_HASH160 3851f34d13937b673a7d24a1950bb5b21ce94af3 OP_EQUALVERIFY OP_CHECKSIG", "type": "pubkeyhash"}, "value": 5.46e-06, "n": 1}, {"scriptPubKey": {"type": "nulldata", "hex": "6a146f6d6e69000000000000001f00000022ecb25c00", "asm": "OP_RETURN 6f6d6e69000000000000001f00000022ecb25c00"}, "value": 0.0, "n": 2}], "hex": "0100000002c971c23d0f7d5f62bc34c936a0670c6c82f7427c643f48d7697305cd0cfc89ee020000006a47304402202986251ee0ec023d3eb68b36a46493663076ecdfbf962022f9333d0fad0b5d8902200287d645915fc0289a975f2f822d2ecd08d201c3c79455f16658582b965c074f0121032af1ed59eaa690d09adffde44bac9ad93f99b21c3e1961bee880d31123df8662ffffffff64dc8c1967918fa77f3ecca1709953d88fddda889ffa1cb3b921eb74c0ee46a0000000006a473044022078641e1c06045dd84e08b05229d7e8914f86d0746280b7e02dd93e8c19c0fd1c022067860df582e0b3e62174b8a511ab0dcb221bdacb2370d9cf001e2862d8cc7f5d01210271977291b74f1f5f5c42157e8aae804664eaaeccfd097918450d37f28fb94d77ffffffff03ac2c0100000000001976a914d243e6abb9a60fbff430b421d2df4b7d59ec186088ac22020000000000001976a9143851f34d13937b673a7d24a1950bb5b21ce94af388ac0000000000000000166a146f6d6e69000000000000001f00000022ecb25c0000000000", "vin": [{"sequence": 4294967295, "scriptSig": {"hex": "47304402202986251ee0ec023d3eb68b36a46493663076ecdfbf962022f9333d0fad0b5d8902200287d645915fc0289a975f2f822d2ecd08d201c3c79455f16658582b965c074f0121032af1ed59eaa690d09adffde44bac9ad93f99b21c3e1961bee880d31123df8662", "asm": "304402202986251ee0ec023d3eb68b36a46493663076ecdfbf962022f9333d0fad0b5d8902200287d645915fc0289a975f2f822d2ecd08d201c3c79455f16658582b965c074f[ALL] 032af1ed59eaa690d09adffde44bac9ad93f99b21c3e1961bee880d31123df8662"}, "vout": 2, "txid": "ee89fc0ccd057369d7483f647c42f7826c0c67a036c934bc625f7d0f3dc271c9"}, {"sequence": 4294967295, "scriptSig": {"hex": "473044022078641e1c06045dd84e08b05229d7e8914f86d0746280b7e02dd93e8c19c0fd1c022067860df582e0b3e62174b8a511ab0dcb221bdacb2370d9cf001e2862d8cc7f5d01210271977291b74f1f5f5c42157e8aae804664eaaeccfd097918450d37f28fb94d77", "asm": "3044022078641e1c06045dd84e08b05229d7e8914f86d0746280b7e02dd93e8c19c0fd1c022067860df582e0b3e62174b8a511ab0dcb221bdacb2370d9cf001e2862d8cc7f5d[ALL] 0271977291b74f1f5f5c42157e8aae804664eaaeccfd097918450d37f28fb94d77"}, "vout": 0, "txid": "a046eec074eb21b9b31cfa9f88dadd8fd8539970a1cc3e7fa78f9167198cdc64"}], "txid": "dbdcc212995684e908956fe85d399ef0e04a8dcc8bef82811613220307f360c7", "blocktime": 1537869901, "version": 1, "confirmations": 11522, "time": 1537869901, "locktime": 0, "vsize": 403, "size": 403}