{"hash": "dbdd79ce4513736bc9634408d3a62df0de7c831d44e73d5314905b7bedc5905c", "blockhash": "0000000000000000000dcc0f55137456b1a82d3642486a52398922ac4d620174", "vout": [{"scriptPubKey": {"reqSigs": 1, "hex": "76a914a829abfa89bde2848dbf526edcf55f582c20b12788ac", "addresses": ["1GLASdnyDtKbSGk2YVShiwhsByW1RfguXy"], "asm": "OP_DUP OP_HASH160 a829abfa89bde2848dbf526edcf55f582c20b127 OP_EQUALVERIFY OP_CHECKSIG", "type": "pubkeyhash"}, "value": 0.00065998, "n": 0}, {"scriptPubKey": {"type": "nulldata", "hex": "6a4c500000777400012aa17d2e0f5049a186e3222b86aeaeacb577c031fc3a016b46dc7dc7d096e02a39400554f6e38461c97c4f8427f65baa092c06144f1be050ace320599f7cb8fbacf7bab7719c405f2d9a", "asm": "OP_RETURN 0000777400012aa17d2e0f5049a186e3222b86aeaeacb577c031fc3a016b46dc7dc7d096e02a39400554f6e38461c97c4f8427f65baa092c06144f1be050ace320599f7cb8fbacf7bab7719c405f2d9a"}, "value": 0.0, "n": 1}], "hex": "0100000001601e158b7b785a8b79dde7944c8d56135a4ba1ffbb4ca4ef7a501da87a24393a000000006a47304402205661ab24982ac0eb5f6f802d3e856b5bf53ac5e7c499130e331d0f1937e598b70220271675783114d2a69fe2eaec2fb565f3a9d0ffecc86d6caaf80a1ae00a49b76b0121031f6ef8f2ce000c86199b2d712388f6cb6370d8e6b13468460bb35816888ae825ffffffff02ce010100000000001976a914a829abfa89bde2848dbf526edcf55f582c20b12788ac0000000000000000536a4c500000777400012aa17d2e0f5049a186e3222b86aeaeacb577c031fc3a016b46dc7dc7d096e02a39400554f6e38461c97c4f8427f65baa092c06144f1be050ace320599f7cb8fbacf7bab7719c405f2d9a00000000", "vin": [{"sequence": 4294967295, "scriptSig": {"hex": "47304402205661ab24982ac0eb5f6f802d3e856b5bf53ac5e7c499130e331d0f1937e598b70220271675783114d2a69fe2eaec2fb565f3a9d0ffecc86d6caaf80a1ae00a49b76b0121031f6ef8f2ce000c86199b2d712388f6cb6370d8e6b13468460bb35816888ae825", "asm": "304402205661ab24982ac0eb5f6f802d3e856b5bf53ac5e7c499130e331d0f1937e598b70220271675783114d2a69fe2eaec2fb565f3a9d0ffecc86d6caaf80a1ae00a49b76b[ALL] 031f6ef8f2ce000c86199b2d712388f6cb6370d8e6b13468460bb35816888ae825"}, "vout": 0, "txid": "3a39247aa81d507aefa44cbbffa14b5a13568d4c94e7dd798b5a787b8b151e60"}], "txid": "dbdd79ce4513736bc9634408d3a62df0de7c831d44e73d5314905b7bedc5905c", "blocktime": 1537870268, "version": 1, "confirmations": 11516, "time": 1537870268, "locktime": 0, "vsize": 283, "size": 283}