{"hash": "dbe1a168137278d27cb584108e2b513e5ad47a54dadc628a0064f91f1bbdbafa", "blockhash": "00000000000000000018f53835495a110e01622372bf6ae95dc86f2b0ab887b0", "vout": [{"scriptPubKey": {"reqSigs": 1, "hex": "76a914e7b16b6e456f18121211cfa6ec76b5462fd7e14488ac", "addresses": ["1N85deVCxxAzqf45Ek2ArJP3mLkmtAae2M"], "asm": "OP_DUP OP_HASH160 e7b16b6e456f18121211cfa6ec76b5462fd7e144 OP_EQUALVERIFY OP_CHECKSIG", "type": "pubkeyhash"}, "value": 0.0003322, "n": 0}, {"scriptPubKey": {"reqSigs": 1, "hex": "a91498e9b23ba0ae5634218cee75c3fb5aa777138a1587", "addresses": ["3FdYbCZcxqaHCYaewU9kp3W9v3DGQZGzj7"], "asm": "OP_HASH160 98e9b23ba0ae5634218cee75c3fb5aa777138a15 OP_EQUAL", "type": "scripthash"}, "value": 0.001, "n": 1}], "hex": "01000000014edb9cf5cd5c90c5b33f26cd0f0bcbadb56e7333a78b8453abbb914ea0c72912000000006b483045022100870727e8496eabefab5bd69e73c1e3ce9778b9e43505cb9e5d26db5d3c02597e02204486bc5d3b8b22ec410f8db9bf41b484bdf652863326df49395ae728991df6be012103c127566f617a34e26362242ed60ef88cf5f8bd26d99f0a185fcd6e9d15946608ffffffff02c4810000000000001976a914e7b16b6e456f18121211cfa6ec76b5462fd7e14488aca08601000000000017a91498e9b23ba0ae5634218cee75c3fb5aa777138a158700000000", "vin": [{"sequence": 4294967295, "scriptSig": {"hex": "483045022100870727e8496eabefab5bd69e73c1e3ce9778b9e43505cb9e5d26db5d3c02597e02204486bc5d3b8b22ec410f8db9bf41b484bdf652863326df49395ae728991df6be012103c127566f617a34e26362242ed60ef88cf5f8bd26d99f0a185fcd6e9d15946608", "asm": "3045022100870727e8496eabefab5bd69e73c1e3ce9778b9e43505cb9e5d26db5d3c02597e02204486bc5d3b8b22ec410f8db9bf41b484bdf652863326df49395ae728991df6be[ALL] 03c127566f617a34e26362242ed60ef88cf5f8bd26d99f0a185fcd6e9d15946608"}, "vout": 0, "txid": "1229c7a04e91bbab53848ba733736eb5adcb0b0fcd263fb3c5905ccdf59cdb4e"}], "txid": "dbe1a168137278d27cb584108e2b513e5ad47a54dadc628a0064f91f1bbdbafa", "blocktime": 1537870928, "version": 1, "confirmations": 11514, "time": 1537870928, "locktime": 0, "vsize": 224, "size": 224}