{"hash": "0f041c2c1e5cc78d61d2557be7c1f252335f668770bdb4eae83b3e52e2f535e1", "blockhash": "0000000000000000000e13cef7c366c0283d82e591d1acd082e914b08063cdf1", "vout": [{"scriptPubKey": {"reqSigs": 1, "hex": "a9141ced6eb4e8e80a8cdc247f67973f5415bb9a837687", "addresses": ["34KyH1aG4ka3reibdjapCSGyxiFqwnccdV"], "asm": "OP_HASH160 1ced6eb4e8e80a8cdc247f67973f5415bb9a8376 OP_EQUAL", "type": "scripthash"}, "value": 0.00014379, "n": 0}, {"scriptPubKey": {"reqSigs": 1, "hex": "a91449d7e96499e76d96ef877a2fcb98823c8bccba2187", "addresses": ["38RTuMXR3rjgmqC2TwiJHrCLzc9nbGoNw7"], "asm": "OP_HASH160 49d7e96499e76d96ef877a2fcb98823c8bccba21 OP_EQUAL", "type": "scripthash"}, "value": 0.00039995, "n": 1}], "hex": "0100000000010220bfcd029a4311c4150674c4c2b6b51a6aa9cd320074e4df0897b07cb7b5c31c0100000023220020f63dfc12340f6360d0251c22746d6b56093e3243e96ca012a65484a5d9cf0ec0ffffffffd3c7ed54e5e55d454e92cc6ad4168db27da336946b69bd2c07f644a5b7be3a4f00000000232200202a9a1aa43dd52fca361d638a9bb1c7c7a7b32bed598a04104268b8ecbdbfe96fffffffff022b3800000000000017a9141ced6eb4e8e80a8cdc247f67973f5415bb9a8376873b9c00000000000017a91449d7e96499e76d96ef877a2fcb98823c8bccba21870400483045022100c9ce63fb2f4f1e427bd6e074ec7f0777699b170cbc7f20d4b0b23a2069fe8c9302204b3038b2d1f4ef767fa125066495a32750cf0e2984fadac4f74cf199e962b67d0147304402207ad77d58fe526c35709afd21a50c60b8c3f833f502511740e3b83da65ae666b8022057ae9669f4173ab43389860271f548825fe618fd8c8cc2f11dc45f685d20ede70147522102097067a6a0cc130a9a6f6577b47bf369b840a79de31cd7457187994266b1bb7c2103338f346cab6ba87fe940591a03ac234be06520c5ab386d4b6632e8eef0d0db7652ae0400473044022023bdd7763868202e98ca0af37675cd96226ac849e046b8ce5d5218065c0bb0d5022027997fbe3c028ce063dd28bba2b258462d5e7827bdd1c0bd06601d1e100f7b9a01483045022100de0122924f70193c81e399357b07871ffc322bd722f4a62e7a9693a82f6ed45802202a488140e3a5d04f6e260242837c3acf56d46f668c1fbb46ca2f31d7c39e44df0147522103ea39afa13bfc0b16775c1ffdd58dbb69a77441d8211cfd208f16ac7437c451312103338f346cab6ba87fe940591a03ac234be06520c5ab386d4b6632e8eef0d0db7652ae00000000", "vin": [{"txinwitness": ["", "3045022100c9ce63fb2f4f1e427bd6e074ec7f0777699b170cbc7f20d4b0b23a2069fe8c9302204b3038b2d1f4ef767fa125066495a32750cf0e2984fadac4f74cf199e962b67d01", "304402207ad77d58fe526c35709afd21a50c60b8c3f833f502511740e3b83da65ae666b8022057ae9669f4173ab43389860271f548825fe618fd8c8cc2f11dc45f685d20ede701", "522102097067a6a0cc130a9a6f6577b47bf369b840a79de31cd7457187994266b1bb7c2103338f346cab6ba87fe940591a03ac234be06520c5ab386d4b6632e8eef0d0db7652ae"], "sequence": 4294967295, "scriptSig": {"hex": "220020f63dfc12340f6360d0251c22746d6b56093e3243e96ca012a65484a5d9cf0ec0", "asm": "0020f63dfc12340f6360d0251c22746d6b56093e3243e96ca012a65484a5d9cf0ec0"}, "vout": 1, "txid": "1cc3b5b77cb09708dfe4740032cda96a1ab5b6c2c4740615c411439a02cdbf20"}, {"txinwitness": ["", "3044022023bdd7763868202e98ca0af37675cd96226ac849e046b8ce5d5218065c0bb0d5022027997fbe3c028ce063dd28bba2b258462d5e7827bdd1c0bd06601d1e100f7b9a01", "3045022100de0122924f70193c81e399357b07871ffc322bd722f4a62e7a9693a82f6ed45802202a488140e3a5d04f6e260242837c3acf56d46f668c1fbb46ca2f31d7c39e44df01", "522103ea39afa13bfc0b16775c1ffdd58dbb69a77441d8211cfd208f16ac7437c451312103338f346cab6ba87fe940591a03ac234be06520c5ab386d4b6632e8eef0d0db7652ae"], "sequence": 4294967295, "scriptSig": {"hex": "2200202a9a1aa43dd52fca361d638a9bb1c7c7a7b32bed598a04104268b8ecbdbfe96f", "asm": "00202a9a1aa43dd52fca361d638a9bb1c7c7a7b32bed598a04104268b8ecbdbfe96f"}, "vout": 0, "txid": "4f3abeb7a544f6072cbd696b9436a37db28d16d46acc924e455de5e554edc7d3"}], "txid": "dbe8a4addc33eeb07fb34283d1dce2387e14f3aa9bf460ad070175275d5e2fe7", "blocktime": 1537871767, "version": 1, "confirmations": 11495, "time": 1537871767, "locktime": 0, "vsize": 336, "size": 666}