{"hash": "dbeb7d596e1faf142cd09c00e32deef8466b8b9948d859d5cdd7b0a62761a68f", "blockhash": "0000000000000000000baef3f32e3676a92c3b2e5da21b426e4f302fc371ce76", "vout": [{"scriptPubKey": {"type": "nulldata", "hex": "6a4c5000007829000157eebd27b7256b4774d339f6019d6ddc0f1b8ff117702940d64fa54d8eb27385e5af92a7dd1658fbad0c4fc619325baa1e8b0613eb77d51649ea1d100759d4ba30d2c37bb011d97e02cf", "asm": "OP_RETURN 00007829000157eebd27b7256b4774d339f6019d6ddc0f1b8ff117702940d64fa54d8eb27385e5af92a7dd1658fbad0c4fc619325baa1e8b0613eb77d51649ea1d100759d4ba30d2c37bb011d97e02cf"}, "value": 0.0, "n": 0}, {"scriptPubKey": {"reqSigs": 1, "hex": "76a9141fa185f60bb3ae506451b2cf2f9ebe570da0545088ac", "addresses": ["13tFSnKYxyM2JTB1DW9JYuAStpPvQ42cvP"], "asm": "OP_DUP OP_HASH160 1fa185f60bb3ae506451b2cf2f9ebe570da05450 OP_EQUALVERIFY OP_CHECKSIG", "type": "pubkeyhash"}, "value": 0.00629375, "n": 1}], "hex": "0100000001dd19da8c699e93983258433ac0634253c770beb1fb61be9507821dc69b2d9e93010000006a47304402205fb78463952a21c449a1493e838ecc25f0e2c050cc98bbddd6a4d295a8b194c9022076b142893ec7f8e8c99aafd40d3f00d1bb7b1aa7aec2bf6e3389e0361fb925c101210346c8dbebd759e097d0b4f59a84a25c6096a90a4f4165c52378442f7f1b0fa528ffffffff020000000000000000536a4c5000007829000157eebd27b7256b4774d339f6019d6ddc0f1b8ff117702940d64fa54d8eb27385e5af92a7dd1658fbad0c4fc619325baa1e8b0613eb77d51649ea1d100759d4ba30d2c37bb011d97e02cf7f9a0900000000001976a9141fa185f60bb3ae506451b2cf2f9ebe570da0545088ac00000000", "vin": [{"sequence": 4294967295, "scriptSig": {"hex": "47304402205fb78463952a21c449a1493e838ecc25f0e2c050cc98bbddd6a4d295a8b194c9022076b142893ec7f8e8c99aafd40d3f00d1bb7b1aa7aec2bf6e3389e0361fb925c101210346c8dbebd759e097d0b4f59a84a25c6096a90a4f4165c52378442f7f1b0fa528", "asm": "304402205fb78463952a21c449a1493e838ecc25f0e2c050cc98bbddd6a4d295a8b194c9022076b142893ec7f8e8c99aafd40d3f00d1bb7b1aa7aec2bf6e3389e0361fb925c1[ALL] 0346c8dbebd759e097d0b4f59a84a25c6096a90a4f4165c52378442f7f1b0fa528"}, "vout": 1, "txid": "939e2d9bc61d820795be61fbb1be70c7534263c03a43583298939e698cda19dd"}], "txid": "dbeb7d596e1faf142cd09c00e32deef8466b8b9948d859d5cdd7b0a62761a68f", "blocktime": 1537876114, "version": 1, "confirmations": 11463, "time": 1537876114, "locktime": 0, "vsize": 283, "size": 283}