{"hash": "c2ad1f8cc8fd4bf7b1c7de6679d0348de5abdf50345b28b1816a261781910508", "blockhash": "0000000000000000000baef3f32e3676a92c3b2e5da21b426e4f302fc371ce76", "vout": [{"scriptPubKey": {"reqSigs": 1, "hex": "76a9145341148a44a8a64815ed68964a400d5110fb737888ac", "addresses": ["18bD3n1AqzbDJVLavpN2NLL4grwwV7gvUv"], "asm": "OP_DUP OP_HASH160 5341148a44a8a64815ed68964a400d5110fb7378 OP_EQUALVERIFY OP_CHECKSIG", "type": "pubkeyhash"}, "value": 0.014, "n": 0}, {"scriptPubKey": {"reqSigs": 1, "hex": "0020701a8d401c84fb13e6baf169d59684e17abd9fa216c8cc5b9fc63d622ff8c58d", "addresses": ["bc1qwqdg6squsna38e46795at95yu9atm8azzmyvckulcc7kytlcckxswvvzej"], "asm": "0 701a8d401c84fb13e6baf169d59684e17abd9fa216c8cc5b9fc63d622ff8c58d", "type": "witness_v0_scripthash"}, "value": 0.00301524, "n": 1}], "hex": "0100000000010122666b29989fa9b3416d168c55a1b818969eaec19bb91ef4de35d5496a559d4e0400000000ffffffff02c05c1500000000001976a9145341148a44a8a64815ed68964a400d5110fb737888acd499040000000000220020701a8d401c84fb13e6baf169d59684e17abd9fa216c8cc5b9fc63d622ff8c58d040047304402202e62a8ac75c4e94b24904a853c2aef751c2cd999f8f4d4bac447633240d9ca2c02201a8d0588ba2abf769d9519ceb3711c43d1090e49a8933c9a230d978f2dac9acc014830450221008762a9e26c7728e2f8123ab692ba05eaf089897839d36e1508978faa7e7e145a022037b0b1238ca86180bce13709f2eb9d2bf0b76700d7dee90a403a9dde6b5a4561016952210375e00eb72e29da82b89367947f29ef34afb75e8654f6ea368e0acdfd92976b7c2103a1b26313f430c4b15bb1fdce663207659d8cac749a0e53d70eff01874496feff2103c96d495bfdd5ba4145e3e046fee45e84a8a48ad05bd8dbb395c011a32cf9f88053ae00000000", "vin": [{"txinwitness": ["", "304402202e62a8ac75c4e94b24904a853c2aef751c2cd999f8f4d4bac447633240d9ca2c02201a8d0588ba2abf769d9519ceb3711c43d1090e49a8933c9a230d978f2dac9acc01", "30450221008762a9e26c7728e2f8123ab692ba05eaf089897839d36e1508978faa7e7e145a022037b0b1238ca86180bce13709f2eb9d2bf0b76700d7dee90a403a9dde6b5a456101", "52210375e00eb72e29da82b89367947f29ef34afb75e8654f6ea368e0acdfd92976b7c2103a1b26313f430c4b15bb1fdce663207659d8cac749a0e53d70eff01874496feff2103c96d495bfdd5ba4145e3e046fee45e84a8a48ad05bd8dbb395c011a32cf9f88053ae"], "sequence": 4294967295, "scriptSig": {"hex": "", "asm": ""}, "vout": 4, "txid": "4e9d556a49d535def41eb99bc1ae9e9618b8a1558c166d41b3a99f98296b6622"}], "txid": "dbf51c28b7915ecf53f253fc9d5a2b4b51e0589d10167d0e8632225d07920aa6", "blocktime": 1537876114, "version": 1, "confirmations": 11459, "time": 1537876114, "locktime": 0, "vsize": 192, "size": 383}