{"hash": "dbf7392611823b165f8465ede4561a62f437fdfaf32741d09f845ac78176a656", "blockhash": "0000000000000000000dcc0f55137456b1a82d3642486a52398922ac4d620174", "vout": [{"scriptPubKey": {"reqSigs": 1, "hex": "76a914440cab03d6117d58b296509641c1ba9e5701186a88ac", "addresses": ["17Cp8Ebe77i7KPSqDDPY9DuKHAaniZKPEy"], "asm": "OP_DUP OP_HASH160 440cab03d6117d58b296509641c1ba9e5701186a OP_EQUALVERIFY OP_CHECKSIG", "type": "pubkeyhash"}, "value": 3.189e-05, "n": 0}, {"scriptPubKey": {"reqSigs": 1, "hex": "76a91406b375823eb39951bb750268cf3696e2c0b3bed588ac", "addresses": ["1cS3BZuBYH7ZSrnYhGyk3vGUzmcHEE8o5"], "asm": "OP_DUP OP_HASH160 06b375823eb39951bb750268cf3696e2c0b3bed5 OP_EQUALVERIFY OP_CHECKSIG", "type": "pubkeyhash"}, "value": 0.0124677, "n": 1}], "hex": "010000000167350994fa011f7681b1f1674af80604ae2eeb518ffef0bdde51b318ea74ffed010000006b4830450221009f4363b98308efd8e65e69eb089dfa3e0f48a4357fb86018c48b81ce8c95bb3d022033a147e6f933da109de93907326a075d1b440ae168a0d596ba66dfc9e6b1edf8012103968f139e890f948216cbe1e5267885e80c5980be9eb9a806425c194c4d809d1fffffffff02750c0000000000001976a914440cab03d6117d58b296509641c1ba9e5701186a88ac32061300000000001976a91406b375823eb39951bb750268cf3696e2c0b3bed588ac00000000", "vin": [{"sequence": 4294967295, "scriptSig": {"hex": "4830450221009f4363b98308efd8e65e69eb089dfa3e0f48a4357fb86018c48b81ce8c95bb3d022033a147e6f933da109de93907326a075d1b440ae168a0d596ba66dfc9e6b1edf8012103968f139e890f948216cbe1e5267885e80c5980be9eb9a806425c194c4d809d1f", "asm": "30450221009f4363b98308efd8e65e69eb089dfa3e0f48a4357fb86018c48b81ce8c95bb3d022033a147e6f933da109de93907326a075d1b440ae168a0d596ba66dfc9e6b1edf8[ALL] 03968f139e890f948216cbe1e5267885e80c5980be9eb9a806425c194c4d809d1f"}, "vout": 1, "txid": "edff74ea18b351debdf0fe8f51eb2eae0406f84a67f1b181761f01fa94093567"}], "txid": "dbf7392611823b165f8465ede4561a62f437fdfaf32741d09f845ac78176a656", "blocktime": 1537870268, "version": 1, "confirmations": 11518, "time": 1537870268, "locktime": 0, "vsize": 226, "size": 226}