{"hash": "09e65540fd8881eb47e29dca2b6af223734de7b0328369acc05a54a64d8ae1c8", "blockhash": "0000000000000000000e13cef7c366c0283d82e591d1acd082e914b08063cdf1", "vout": [{"scriptPubKey": {"reqSigs": 1, "hex": "76a9146a6cc776575a1613c91e41b4b9ea1500b1f7848688ac", "addresses": ["1AhiwSdL5ovEn4aWt76dC74R9KuBvyTjeC"], "asm": "OP_DUP OP_HASH160 6a6cc776575a1613c91e41b4b9ea1500b1f78486 OP_EQUALVERIFY OP_CHECKSIG", "type": "pubkeyhash"}, "value": 0.0114904, "n": 0}, {"scriptPubKey": {"reqSigs": 1, "hex": "a914ecc6fc920c5850b6890372e069450a72133e13d487", "addresses": ["3PGymeVsCxm64kBVQDiCzA5rosuDRHoLq2"], "asm": "OP_HASH160 ecc6fc920c5850b6890372e069450a72133e13d4 OP_EQUAL", "type": "scripthash"}, "value": 0.00011708, "n": 1}], "hex": "01000000000101ecb375cfa86fcf969e584b22d7147e3f25e65c3dd13ca82ff7fab239cfe7970f020000002322002028367a2e6f2cd2327f62ad4c4028f177b82e48ce6743fe645b3c881929dec65dffffffff0270881100000000001976a9146a6cc776575a1613c91e41b4b9ea1500b1f7848688acbc2d00000000000017a914ecc6fc920c5850b6890372e069450a72133e13d487040047304402207e76652b4ebb00d6b39950c035906452f5c4e0c52f78ac40a8809dcd539ce00702203acf337ac54f7cbe2fc711c5cd6c7c12d63e23ade0fdbfe3fe86118699887720014730440220781609e540996123f896b594f973b0211e97b3c8cdbdff5e604ec30ea8c341880220531db544d8a7b192f6392b88da62f12f4f6a36ed9b2654ecbf89c54c349861890147522103254512cb8e33dd70bde3085262ed8f47f01181bf2a681213838f095cdc29b4b221038407424ead2b88063db2d589e50c34e1572f6b82eb9e266dec536939ee0db9eb52ae00000000", "vin": [{"txinwitness": ["", "304402207e76652b4ebb00d6b39950c035906452f5c4e0c52f78ac40a8809dcd539ce00702203acf337ac54f7cbe2fc711c5cd6c7c12d63e23ade0fdbfe3fe8611869988772001", "30440220781609e540996123f896b594f973b0211e97b3c8cdbdff5e604ec30ea8c341880220531db544d8a7b192f6392b88da62f12f4f6a36ed9b2654ecbf89c54c3498618901", "522103254512cb8e33dd70bde3085262ed8f47f01181bf2a681213838f095cdc29b4b221038407424ead2b88063db2d589e50c34e1572f6b82eb9e266dec536939ee0db9eb52ae"], "sequence": 4294967295, "scriptSig": {"hex": "22002028367a2e6f2cd2327f62ad4c4028f177b82e48ce6743fe645b3c881929dec65d", "asm": "002028367a2e6f2cd2327f62ad4c4028f177b82e48ce6743fe645b3c881929dec65d"}, "vout": 2, "txid": "0f97e7cf39b2faf72fa83cd13d5ce6253f7e14d7224b589e96cf6fa8cf75b3ec"}], "txid": "dbf774bb1424040ac74d8d25985c7f380a0efff52c5ff7c4afd1828e9e4b1449", "blocktime": 1537871767, "version": 1, "confirmations": 11491, "time": 1537871767, "locktime": 0, "vsize": 207, "size": 372}