{"hash": "dbfd222d9f8007b0733ac01ee34db2ee6cec406b5ce07b7b69b9132d808de998", "blockhash": "00000000000000000018f53835495a110e01622372bf6ae95dc86f2b0ab887b0", "vout": [{"scriptPubKey": {"reqSigs": 1, "hex": "76a9145ca3536a4a600072fbec9f8b83dbea883287f42488ac", "addresses": ["19Sppj9nb2UGuM3S97LHKzPG68hUmHjmyN"], "asm": "OP_DUP OP_HASH160 5ca3536a4a600072fbec9f8b83dbea883287f424 OP_EQUALVERIFY OP_CHECKSIG", "type": "pubkeyhash"}, "value": 0.50981016, "n": 0}, {"scriptPubKey": {"reqSigs": 1, "hex": "76a914e6ca68942f84496d0c11207414446d61169f59bc88ac", "addresses": ["1N3JtiEUP4FUpHYNgUib8XLEWCBRMeS3fE"], "asm": "OP_DUP OP_HASH160 e6ca68942f84496d0c11207414446d61169f59bc OP_EQUALVERIFY OP_CHECKSIG", "type": "pubkeyhash"}, "value": 0.00775551, "n": 1}], "hex": "0100000001435bc5cb62f8dca329d5d8d4e73433dbeafad85a44bbce3dd0be1c11c05f06ed030000006a47304402202e53a8bd9408a017ee41333b0609a51751dcec0785378a208f1ba1a04da72c2302203c52744538a44eff0a6d075ce0e49186f4fe5a577d91ac40970ff81297525e87012103b9da43bbe260dbd4abfbee6083826d45c8bff4e77d25ca80a560e9d2d1818d0affffffff0298e80903000000001976a9145ca3536a4a600072fbec9f8b83dbea883287f42488ac7fd50b00000000001976a914e6ca68942f84496d0c11207414446d61169f59bc88ac00000000", "vin": [{"sequence": 4294967295, "scriptSig": {"hex": "47304402202e53a8bd9408a017ee41333b0609a51751dcec0785378a208f1ba1a04da72c2302203c52744538a44eff0a6d075ce0e49186f4fe5a577d91ac40970ff81297525e87012103b9da43bbe260dbd4abfbee6083826d45c8bff4e77d25ca80a560e9d2d1818d0a", "asm": "304402202e53a8bd9408a017ee41333b0609a51751dcec0785378a208f1ba1a04da72c2302203c52744538a44eff0a6d075ce0e49186f4fe5a577d91ac40970ff81297525e87[ALL] 03b9da43bbe260dbd4abfbee6083826d45c8bff4e77d25ca80a560e9d2d1818d0a"}, "vout": 3, "txid": "ed065fc0111cbed03dcebb445ad8faeadb3334e7d4d8d529a3dcf862cbc55b43"}], "txid": "dbfd222d9f8007b0733ac01ee34db2ee6cec406b5ce07b7b69b9132d808de998", "blocktime": 1537870928, "version": 1, "confirmations": 11512, "time": 1537870928, "locktime": 0, "vsize": 225, "size": 225}