{"hash": "86df3a5dace8a2bcd063a77c8a7b3aef9cd0b9a9a32bb8a8979830bac7384604", "blockhash": "0000000000000000001e0dab787dd257d1dbfcb92a98c2207d5e1078be1f4165", "vout": [{"scriptPubKey": {"reqSigs": 1, "hex": "76a9141da3b3c20f49fb2668c6c1de2034a1807f05d79388ac", "addresses": ["13hihnpNLQPTTLwtRCyfGnMQJ1HuH9Hjis"], "asm": "OP_DUP OP_HASH160 1da3b3c20f49fb2668c6c1de2034a1807f05d793 OP_EQUALVERIFY OP_CHECKSIG", "type": "pubkeyhash"}, "value": 0.0092525, "n": 0}, {"scriptPubKey": {"reqSigs": 1, "hex": "76a914047cb9edcf94f0af68219dc42fb6f3234064ee8188ac", "addresses": ["1Qj7uHjvRs4RRA5rzKg74m2caFWWhqDRS"], "asm": "OP_DUP OP_HASH160 047cb9edcf94f0af68219dc42fb6f3234064ee81 OP_EQUALVERIFY OP_CHECKSIG", "type": "pubkeyhash"}, "value": 0.0416599, "n": 1}, {"scriptPubKey": {"reqSigs": 1, "hex": "a91437406654c6d31f4b68cc90411692ae8541353a2387", "addresses": ["36jAEfbJq1FZvym1RLy4CNvYQqHrM6GcQg"], "asm": "OP_HASH160 37406654c6d31f4b68cc90411692ae8541353a23 OP_EQUAL", "type": "scripthash"}, "value": 0.001, "n": 2}, {"scriptPubKey": {"reqSigs": 1, "hex": "a914cff38eb53852832e3968ca05777403c59a3242af87", "addresses": ["3LeZZvNxpTkiWGhWi4gsQyoh1NqmR8vWpD"], "asm": "OP_HASH160 cff38eb53852832e3968ca05777403c59a3242af OP_EQUAL", "type": "scripthash"}, "value": 0.0027265, "n": 3}, {"scriptPubKey": {"reqSigs": 1, "hex": "a9146f9a79ee0b3e6fe754abcd0b6caf11f91cfd392f87", "addresses": ["3Bs7z38p8c2FNM1wi2Rd7iR9t7CPC8uanw"], "asm": "OP_HASH160 6f9a79ee0b3e6fe754abcd0b6caf11f91cfd392f OP_EQUAL", "type": "scripthash"}, "value": 0.00315143, "n": 4}, {"scriptPubKey": {"reqSigs": 1, "hex": "a91433563cdea66281e1be89a0cb0f70751095eb498487", "addresses": ["36NThESdjrSxLitFdK5EpX3dWd4guQ5p2g"], "asm": "OP_HASH160 33563cdea66281e1be89a0cb0f70751095eb4984 OP_EQUAL", "type": "scripthash"}, "value": 0.01790457, "n": 5}, {"scriptPubKey": {"reqSigs": 1, "hex": "a914a486cb6a97b5045a5609fcb4254c90214d5e56ad87", "addresses": ["3GgxDhMei8yrUKHZwc1anwqhyBoLqucWfB"], "asm": "OP_HASH160 a486cb6a97b5045a5609fcb4254c90214d5e56ad OP_EQUAL", "type": "scripthash"}, "value": 0.054, "n": 6}, {"scriptPubKey": {"reqSigs": 1, "hex": "a9141cda2b87d69fa17adcfae999f344f2c03038fe9c87", "addresses": ["34KaCdoCAUNiM6o7RXYWf1wg1rMPbn4CMX"], "asm": "OP_HASH160 1cda2b87d69fa17adcfae999f344f2c03038fe9c OP_EQUAL", "type": "scripthash"}, "value": 0.79764485, "n": 7}, {"scriptPubKey": {"reqSigs": 1, "hex": "a914baed1c79cc6325333d5013b44dc17e8256bf5b7187", "addresses": ["3JjPf13Rd8g6WAyvg8yiPnrsdjJt1NP4FC"], "asm": "OP_HASH160 baed1c79cc6325333d5013b44dc17e8256bf5b71 OP_EQUAL", "type": "scripthash"}, "value": 14.70347865, "n": 8}], "hex": "02000000000101470730eb1d1560c07113a2b35e6a99f4c27c1d08b6606800ea3357b1b376bd9708000000171600140976ae89087e12920490628529bfe4a9107439b1ffffffff09421e0e00000000001976a9141da3b3c20f49fb2668c6c1de2034a1807f05d79388ac66913f00000000001976a914047cb9edcf94f0af68219dc42fb6f3234064ee8188aca08601000000000017a91437406654c6d31f4b68cc90411692ae8541353a23870a2904000000000017a914cff38eb53852832e3968ca05777403c59a3242af8707cf04000000000017a9146f9a79ee0b3e6fe754abcd0b6caf11f91cfd392f87f9511b000000000017a91433563cdea66281e1be89a0cb0f70751095eb498487c06552000000000017a914a486cb6a97b5045a5609fcb4254c90214d5e56ad87051cc1040000000017a9141cda2b87d69fa17adcfae999f344f2c03038fe9c8759baa3570000000017a914baed1c79cc6325333d5013b44dc17e8256bf5b71870247304402207787fc7fdedd26454233641b471645c39697f0a8c39b11b3fac8f04b3360118302205b6cc2b71d021ff6760625749ae9b90e6992cb1ce5371f6328c6205c53d9001601210248566d3b6acc09341b00ed637bb5b5c4195352e13edb3402acd7f6c00438e50800000000", "vin": [{"txinwitness": ["304402207787fc7fdedd26454233641b471645c39697f0a8c39b11b3fac8f04b3360118302205b6cc2b71d021ff6760625749ae9b90e6992cb1ce5371f6328c6205c53d9001601", "0248566d3b6acc09341b00ed637bb5b5c4195352e13edb3402acd7f6c00438e508"], "sequence": 4294967295, "scriptSig": {"hex": "1600140976ae89087e12920490628529bfe4a9107439b1", "asm": "00140976ae89087e12920490628529bfe4a9107439b1"}, "vout": 8, "txid": "97bd76b3b15733ea006860b6081d7cc2f4996a5eb3a21371c060151deb300747"}], "txid": "dc06e85b557b8219d34da7e1f6fe6c9579a8fdf7f0496c0940d197feaf388fe5", "blocktime": 1537872475, "version": 2, "confirmations": 11486, "time": 1537872475, "locktime": 0, "vsize": 394, "size": 475}