{"hash": "dc094f65b88d86fb7542e8aed24a713d5eddaa57f3a52283744ab086a965b731", "blockhash": "000000000000000000022b45ed06c6f4ccd3cf7fb5ba4856ebd2e58215665228", "vout": [{"scriptPubKey": {"reqSigs": 1, "hex": "76a91473ff690944fe60b3231646e95706d076e28decb888ac", "addresses": ["1BaLgHBsaoGxaULeNmfJppCzutCjU5uVBP"], "asm": "OP_DUP OP_HASH160 73ff690944fe60b3231646e95706d076e28decb8 OP_EQUALVERIFY OP_CHECKSIG", "type": "pubkeyhash"}, "value": 0.03076371, "n": 0}, {"scriptPubKey": {"reqSigs": 1, "hex": "76a9142b1801d4f40e9f1b4bb40df0697eaed7e65b3bb488ac", "addresses": ["14vrpJ7oeijTicxgPQHbz6VbVyXWgGFfNH"], "asm": "OP_DUP OP_HASH160 2b1801d4f40e9f1b4bb40df0697eaed7e65b3bb4 OP_EQUALVERIFY OP_CHECKSIG", "type": "pubkeyhash"}, "value": 0.00010491, "n": 1}], "hex": "01000000026459412d1f12403d7371d843e0eaeeacf059b84c7e60809e86c0fc7fb2f6fd76000000006b483045022100957646b4e22d7812caca6b899fb13d68ae226e3f8d690023e2fc0652f6c9626202201cc8e70b4b7d0a55c5829d3724edfc32eb78807604b5511398df318c1ac3e0510121039200741f111ae640dd8c55c853e6eebb58efa08ec9b522728a221003aeaa2969fffffffff058e8e50a963fefa2ff89fcc8098bb17744003151c4a1a5063c2e207ffb71d2010000006a47304402205a57afc7ab7c2ab27b20313aeb7dcac6ea6a3fb4221dfcc8738cc9a26d702b3f0220035240ef1d252e469cefce31b55e3c3b88d3335de67b0e89d85b95208d10225d0121025fc7bb8fa5f561f122e21ecfe5cf54c75763f3fc7dd2bc6f39c1d306b9a65b6fffffffff0213f12e00000000001976a91473ff690944fe60b3231646e95706d076e28decb888acfb280000000000001976a9142b1801d4f40e9f1b4bb40df0697eaed7e65b3bb488ac00000000", "vin": [{"sequence": 4294967295, "scriptSig": {"hex": "483045022100957646b4e22d7812caca6b899fb13d68ae226e3f8d690023e2fc0652f6c9626202201cc8e70b4b7d0a55c5829d3724edfc32eb78807604b5511398df318c1ac3e0510121039200741f111ae640dd8c55c853e6eebb58efa08ec9b522728a221003aeaa2969", "asm": "3045022100957646b4e22d7812caca6b899fb13d68ae226e3f8d690023e2fc0652f6c9626202201cc8e70b4b7d0a55c5829d3724edfc32eb78807604b5511398df318c1ac3e051[ALL] 039200741f111ae640dd8c55c853e6eebb58efa08ec9b522728a221003aeaa2969"}, "vout": 0, "txid": "76fdf6b27ffcc0869e80607e4cb859f0aceeeae043d871733d40121f2d415964"}, {"sequence": 4294967295, "scriptSig": {"hex": "47304402205a57afc7ab7c2ab27b20313aeb7dcac6ea6a3fb4221dfcc8738cc9a26d702b3f0220035240ef1d252e469cefce31b55e3c3b88d3335de67b0e89d85b95208d10225d0121025fc7bb8fa5f561f122e21ecfe5cf54c75763f3fc7dd2bc6f39c1d306b9a65b6f", "asm": "304402205a57afc7ab7c2ab27b20313aeb7dcac6ea6a3fb4221dfcc8738cc9a26d702b3f0220035240ef1d252e469cefce31b55e3c3b88d3335de67b0e89d85b95208d10225d[ALL] 025fc7bb8fa5f561f122e21ecfe5cf54c75763f3fc7dd2bc6f39c1d306b9a65b6f"}, "vout": 1, "txid": "d271fb7f202e3c06a5a1c45131004477b18b09c8fc89ffa2ef3f960ae5e858f0"}], "txid": "dc094f65b88d86fb7542e8aed24a713d5eddaa57f3a52283744ab086a965b731", "blocktime": 1537869901, "version": 1, "confirmations": 11523, "time": 1537869901, "locktime": 0, "vsize": 373, "size": 373}