{"hash": "dc0cdcaea862885369607f22bb13f84074f37a988324642b25dad9183ed3a1b8", "blockhash": "0000000000000000000dcc0f55137456b1a82d3642486a52398922ac4d620174", "vout": [{"scriptPubKey": {"reqSigs": 1, "hex": "76a914c5f242562d6f1c4c79453543fd7283d3caee92d988ac", "addresses": ["1K3eLFVY1tMLmeLXTpjnozqojUHdpQceEp"], "asm": "OP_DUP OP_HASH160 c5f242562d6f1c4c79453543fd7283d3caee92d9 OP_EQUALVERIFY OP_CHECKSIG", "type": "pubkeyhash"}, "value": 0.00949427, "n": 0}, {"scriptPubKey": {"reqSigs": 1, "hex": "76a914397b9440e285d5bcedb669157ced9fe78eecfc1688ac", "addresses": ["16EwZMz2P2jyydr8o93Zw8qACezZyzenFF"], "asm": "OP_DUP OP_HASH160 397b9440e285d5bcedb669157ced9fe78eecfc16 OP_EQUALVERIFY OP_CHECKSIG", "type": "pubkeyhash"}, "value": 0.1, "n": 1}], "hex": "010000000153ed48d88d6c1022fc39721335d7b8ebd72e416c74f826b29ff33379b41e8008030000006a473044022019ffff7614e1ca3ad4ababa02b69fa5e62d5e3e8a8531142caafb1da01f09eed022064b592011d8a1196f47f5c4c29eb248664ae958057eb916e038d8af76fab0f770121023ded110e43c37033869aff2d8293207f8cf708ec7de1c37b66da1e4c8d696f63ffffffff02b37c0e00000000001976a914c5f242562d6f1c4c79453543fd7283d3caee92d988ac80969800000000001976a914397b9440e285d5bcedb669157ced9fe78eecfc1688ac00000000", "vin": [{"sequence": 4294967295, "scriptSig": {"hex": "473044022019ffff7614e1ca3ad4ababa02b69fa5e62d5e3e8a8531142caafb1da01f09eed022064b592011d8a1196f47f5c4c29eb248664ae958057eb916e038d8af76fab0f770121023ded110e43c37033869aff2d8293207f8cf708ec7de1c37b66da1e4c8d696f63", "asm": "3044022019ffff7614e1ca3ad4ababa02b69fa5e62d5e3e8a8531142caafb1da01f09eed022064b592011d8a1196f47f5c4c29eb248664ae958057eb916e038d8af76fab0f77[ALL] 023ded110e43c37033869aff2d8293207f8cf708ec7de1c37b66da1e4c8d696f63"}, "vout": 3, "txid": "08801eb47933f39fb226f8746c412ed7ebb8d735137239fc22106c8dd848ed53"}], "txid": "dc0cdcaea862885369607f22bb13f84074f37a988324642b25dad9183ed3a1b8", "blocktime": 1537870268, "version": 1, "confirmations": 11518, "time": 1537870268, "locktime": 0, "vsize": 225, "size": 225}