{"hash": "dc17207d4cc8b18c9cc5a1dd75b9877c1f6f6468fc0407efd058532d36195959", "blockhash": "00000000000000000017f5eb5941039fbcee6240d03bc1f2f8e35350df66a1d8", "vout": [{"scriptPubKey": {"reqSigs": 1, "hex": "76a914bc2de09da06f0ce4ec520658f48c50382a83777e88ac", "addresses": ["1J9zzgZdhTMtTmRpNQcBgugJXHeiAt2YDc"], "asm": "OP_DUP OP_HASH160 bc2de09da06f0ce4ec520658f48c50382a83777e OP_EQUALVERIFY OP_CHECKSIG", "type": "pubkeyhash"}, "value": 0.00281585, "n": 0}], "hex": "01000000011241e83a7642744d134b5c40f6fb18d7f42b89f39ee391038bebf99a091b3959000000006a473044022047829a285ce597a944df4c21a1efe927305c6e2cd0e8bf57bba38c945a93d4190220604eff4e5469c17e7a8527c9c941a891b1a69809b03367d2c5bfdfbdfdc11184012102b741f85d14ecc91088f696ece5ffad692b016823704781d474f00798b54349ebffffffff01f14b0400000000001976a914bc2de09da06f0ce4ec520658f48c50382a83777e88ac00000000", "vin": [{"sequence": 4294967295, "scriptSig": {"hex": "473044022047829a285ce597a944df4c21a1efe927305c6e2cd0e8bf57bba38c945a93d4190220604eff4e5469c17e7a8527c9c941a891b1a69809b03367d2c5bfdfbdfdc11184012102b741f85d14ecc91088f696ece5ffad692b016823704781d474f00798b54349eb", "asm": "3044022047829a285ce597a944df4c21a1efe927305c6e2cd0e8bf57bba38c945a93d4190220604eff4e5469c17e7a8527c9c941a891b1a69809b03367d2c5bfdfbdfdc11184[ALL] 02b741f85d14ecc91088f696ece5ffad692b016823704781d474f00798b54349eb"}, "vout": 0, "txid": "59391b099af9eb8b0391e39ef3892bf4d718fbf6405c4b134d7442763ae84112"}], "txid": "dc17207d4cc8b18c9cc5a1dd75b9877c1f6f6468fc0407efd058532d36195959", "blocktime": 1537874412, "version": 1, "confirmations": 11467, "time": 1537874412, "locktime": 0, "vsize": 191, "size": 191}