{"hash": "af46b6484eb92df0a8cb10b059d5beda72a6c0293a23b988bf5174cead6b3a89", "blockhash": "0000000000000000001f76057863aec43deb6fa401d9628bb513d65a8098bfab", "vout": [{"scriptPubKey": {"reqSigs": 1, "hex": "a914008ae45e104ee3af8756ad04d1f06f9c843082de87", "addresses": ["31jtJw5pxdiXW7Eq2YPREvV4bwjvsn9oNQ"], "asm": "OP_HASH160 008ae45e104ee3af8756ad04d1f06f9c843082de OP_EQUAL", "type": "scripthash"}, "value": 0.22455232, "n": 0}, {"scriptPubKey": {"reqSigs": 1, "hex": "76a9148ec931ff3430d554f5756f85a90fe1e3dbab66ba88ac", "addresses": ["1E1yyXzvrukBhqUmY5cLfnR39fK55s4hRv"], "asm": "OP_DUP OP_HASH160 8ec931ff3430d554f5756f85a90fe1e3dbab66ba OP_EQUALVERIFY OP_CHECKSIG", "type": "pubkeyhash"}, "value": 0.0091, "n": 1}, {"scriptPubKey": {"reqSigs": 1, "hex": "76a914c086ceaf926deed5f8a8a921db1cfad682c0f94688ac", "addresses": ["1JYzEQsCNhSTV2RMLMMj7YJ5Mnhn3u1DGt"], "asm": "OP_DUP OP_HASH160 c086ceaf926deed5f8a8a921db1cfad682c0f946 OP_EQUALVERIFY OP_CHECKSIG", "type": "pubkeyhash"}, "value": 0.0188, "n": 2}, {"scriptPubKey": {"reqSigs": 1, "hex": "76a914e61f540c65598e6dbcb3463262001d2d1dceb31888ac", "addresses": ["1MymwrKpwDkiBY75QkThsavgFmNvx6gVda"], "asm": "OP_DUP OP_HASH160 e61f540c65598e6dbcb3463262001d2d1dceb318 OP_EQUALVERIFY OP_CHECKSIG", "type": "pubkeyhash"}, "value": 0.0128, "n": 3}, {"scriptPubKey": {"reqSigs": 1, "hex": "76a91433b98d61bd657b728224b02305f8c3d148d02d9988ac", "addresses": ["15iVkBWodEuLVJsZsj46d7Nn8an9uEwyEd"], "asm": "OP_DUP OP_HASH160 33b98d61bd657b728224b02305f8c3d148d02d99 OP_EQUALVERIFY OP_CHECKSIG", "type": "pubkeyhash"}, "value": 0.0061, "n": 4}, {"scriptPubKey": {"reqSigs": 1, "hex": "a914d7704c870f98deced697f36ec1f40e30a74e37e287", "addresses": ["3ML9jTJ1Naao4Hh1FuV7h4HhUyZGueWCDn"], "asm": "OP_HASH160 d7704c870f98deced697f36ec1f40e30a74e37e2 OP_EQUAL", "type": "scripthash"}, "value": 0.0237, "n": 5}, {"scriptPubKey": {"reqSigs": 1, "hex": "76a9148ca76e23cb9fc6b287608b4e8b01df8e10798d4288ac", "addresses": ["1DpiB7YbYTfetBe9K4fDcsozUPcHrG8kJ9"], "asm": "OP_DUP OP_HASH160 8ca76e23cb9fc6b287608b4e8b01df8e10798d42 OP_EQUALVERIFY OP_CHECKSIG", "type": "pubkeyhash"}, "value": 0.0774, "n": 6}, {"scriptPubKey": {"reqSigs": 1, "hex": "76a914e85dfbe85a5072335156afb1d92c2c657648c83788ac", "addresses": ["1NBeMdT5jSawkFDhyyFZxoeBRXCjiD8Gb3"], "asm": "OP_DUP OP_HASH160 e85dfbe85a5072335156afb1d92c2c657648c837 OP_EQUALVERIFY OP_CHECKSIG", "type": "pubkeyhash"}, "value": 0.0294, "n": 7}, {"scriptPubKey": {"reqSigs": 1, "hex": "a9145c616c1b13aee74204c808a834d01a9fe437d43b87", "addresses": ["3A7UoDDQrm4Jd9MJawhHz4QvEpovN3L48e"], "asm": "OP_HASH160 5c616c1b13aee74204c808a834d01a9fe437d43b OP_EQUAL", "type": "scripthash"}, "value": 0.0318, "n": 8}, {"scriptPubKey": {"reqSigs": 1, "hex": "a91429c9de6abc5d2df59ad4f41cdc35cbabf3d11e0587", "addresses": ["35VyTVxPnJkcjMq3G8pjhc9gV4tf2TFQnh"], "asm": "OP_HASH160 29c9de6abc5d2df59ad4f41cdc35cbabf3d11e05 OP_EQUAL", "type": "scripthash"}, "value": 0.0387, "n": 9}, {"scriptPubKey": {"reqSigs": 1, "hex": "a914dfbc088d599dc0f736adf8d968cf72737b60a02c87", "addresses": ["3N61s7TJpEbFGx7w763uGA6KAskadEc1F8"], "asm": "OP_HASH160 dfbc088d599dc0f736adf8d968cf72737b60a02c OP_EQUAL", "type": "scripthash"}, "value": 0.0039, "n": 10}, {"scriptPubKey": {"reqSigs": 1, "hex": "a9146f1a8a31a72e17e35bbfb0fc594563c85fe1808a87", "addresses": ["3BpUirbi6gBqBU8K22DZ6mR6k3GERWYf36"], "asm": "OP_HASH160 6f1a8a31a72e17e35bbfb0fc594563c85fe1808a OP_EQUAL", "type": "scripthash"}, "value": 0.0153, "n": 11}, {"scriptPubKey": {"reqSigs": 1, "hex": "a914ee1ffb71b37f0f1b94541e5777ce15032759a99187", "addresses": ["3PQ74MwZXykRJGC2XT2u6X46WtXbWfCDAx"], "asm": "OP_HASH160 ee1ffb71b37f0f1b94541e5777ce15032759a991 OP_EQUAL", "type": "scripthash"}, "value": 0.0636, "n": 12}], "hex": "02000000000101ce9b7b3ed847e4ca5a3326d062aae16db9b5ea94773c874921a5d92972f566b401000000171600147fd9ef23c0ed6b6bd188617b09ed08d94d6862d9fdffffff0dc0a356010000000017a914008ae45e104ee3af8756ad04d1f06f9c843082de87b0e20d00000000001976a9148ec931ff3430d554f5756f85a90fe1e3dbab66ba88acc0af1c00000000001976a914c086ceaf926deed5f8a8a921db1cfad682c0f94688ac00881300000000001976a914e61f540c65598e6dbcb3463262001d2d1dceb31888acd04e0900000000001976a91433b98d61bd657b728224b02305f8c3d148d02d9988acd02924000000000017a914d7704c870f98deced697f36ec1f40e30a74e37e287601a7600000000001976a9148ca76e23cb9fc6b287608b4e8b01df8e10798d4288ac60dc2c00000000001976a914e85dfbe85a5072335156afb1d92c2c657648c83788ace08530000000000017a9145c616c1b13aee74204c808a834d01a9fe437d43b87300d3b000000000017a91429c9de6abc5d2df59ad4f41cdc35cbabf3d11e058770f305000000000017a914dfbc088d599dc0f736adf8d968cf72737b60a02c87905817000000000017a9146f1a8a31a72e17e35bbfb0fc594563c85fe1808a87c00b61000000000017a914ee1ffb71b37f0f1b94541e5777ce15032759a9918702483045022100f7c7e22a61c3f95969cd3a74bb8fff55916cde04fae24826ab1547bf2779738302203872fdc4c2219ea569dc6ba69e930d592994acaa8bf007aef7575482836e714a012102402b47fe09b31d8ca9ecbbfa190aa2d70da8106f2128964e362c2c051a70d19e13490800", "vin": [{"txinwitness": ["3045022100f7c7e22a61c3f95969cd3a74bb8fff55916cde04fae24826ab1547bf2779738302203872fdc4c2219ea569dc6ba69e930d592994acaa8bf007aef7575482836e714a01", "02402b47fe09b31d8ca9ecbbfa190aa2d70da8106f2128964e362c2c051a70d19e"], "sequence": 4294967293, "scriptSig": {"hex": "1600147fd9ef23c0ed6b6bd188617b09ed08d94d6862d9", "asm": "00147fd9ef23c0ed6b6bd188617b09ed08d94d6862d9"}, "vout": 1, "txid": "b466f57229d9a52149873c7794eab5b96de1aa62d026335acae447d83e7b9bce"}], "txid": "dc1b273832791bacdbfe9be2abca992cbc222e1578243a7e24679a892f3188e9", "blocktime": 1537873891, "version": 2, "confirmations": 11478, "time": 1537873891, "locktime": 542995, "vsize": 530, "size": 612}