{"hash": "dc1cd7e1840a9ad18b75d76452127a5f77f67bc7fe2ce2e5046caa0169dfbde2", "blockhash": "0000000000000000001f76057863aec43deb6fa401d9628bb513d65a8098bfab", "vout": [{"scriptPubKey": {"reqSigs": 1, "hex": "76a914e6561196226c1a099a1f1a941c3b436b5791b5b888ac", "addresses": ["1MzuXHBG1MP7UAhqM1dmSF5Bw9d3bLwFPt"], "asm": "OP_DUP OP_HASH160 e6561196226c1a099a1f1a941c3b436b5791b5b8 OP_EQUALVERIFY OP_CHECKSIG", "type": "pubkeyhash"}, "value": 0.00635587, "n": 0}, {"scriptPubKey": {"type": "nulldata", "hex": "6a4c50000077e10001641c419f27e126dedfaea5697af8e8e963c7cfd5b95b23cc0f42c2fc38c5c2c16449240a893a75963896c982b8645baa16a606127c767211c7691d100759d4ba30d2c37bb011d97e02cf", "asm": "OP_RETURN 000077e10001641c419f27e126dedfaea5697af8e8e963c7cfd5b95b23cc0f42c2fc38c5c2c16449240a893a75963896c982b8645baa16a606127c767211c7691d100759d4ba30d2c37bb011d97e02cf"}, "value": 0.0, "n": 1}], "hex": "0100000001568cf53fce3f054e43e9704030d6809591b5b913972c9ac81f56ee0e26d06285010000006b4830450221008f51c26fb8e9b8e9b5a74291917647a6dc2c25082224e740e4fa73dcfed11c8602206d092692e7c5664b770b6c053aa6c3584f00e75e8a494e055b90ccb7b0e90be3012102275502b26f9d1526a5ccd03801a4c595ba8d4b5e17d2a885f00c696d2b10abefffffffff02c3b20900000000001976a914e6561196226c1a099a1f1a941c3b436b5791b5b888ac0000000000000000536a4c50000077e10001641c419f27e126dedfaea5697af8e8e963c7cfd5b95b23cc0f42c2fc38c5c2c16449240a893a75963896c982b8645baa16a606127c767211c7691d100759d4ba30d2c37bb011d97e02cf00000000", "vin": [{"sequence": 4294967295, "scriptSig": {"hex": "4830450221008f51c26fb8e9b8e9b5a74291917647a6dc2c25082224e740e4fa73dcfed11c8602206d092692e7c5664b770b6c053aa6c3584f00e75e8a494e055b90ccb7b0e90be3012102275502b26f9d1526a5ccd03801a4c595ba8d4b5e17d2a885f00c696d2b10abef", "asm": "30450221008f51c26fb8e9b8e9b5a74291917647a6dc2c25082224e740e4fa73dcfed11c8602206d092692e7c5664b770b6c053aa6c3584f00e75e8a494e055b90ccb7b0e90be3[ALL] 02275502b26f9d1526a5ccd03801a4c595ba8d4b5e17d2a885f00c696d2b10abef"}, "vout": 1, "txid": "8562d0260eee561fc89a2c9713b9b5919580d6304070e9434e053fce3ff58c56"}], "txid": "dc1cd7e1840a9ad18b75d76452127a5f77f67bc7fe2ce2e5046caa0169dfbde2", "blocktime": 1537873891, "version": 1, "confirmations": 11478, "time": 1537873891, "locktime": 0, "vsize": 284, "size": 284}