{"hash": "dc1ff28ce407cf802e362d52664cbba1d2eea9b7dfe03cc99c77391f0978e491", "blockhash": "00000000000000000018f53835495a110e01622372bf6ae95dc86f2b0ab887b0", "vout": [{"scriptPubKey": {"reqSigs": 1, "hex": "76a914ea0877bdfb843a96afde45983896824cbc30e05488ac", "addresses": ["1NLTGEmb4NvMW5FA8maFpt3NRusbQuDvzK"], "asm": "OP_DUP OP_HASH160 ea0877bdfb843a96afde45983896824cbc30e054 OP_EQUALVERIFY OP_CHECKSIG", "type": "pubkeyhash"}, "value": 0.09177225, "n": 0}, {"scriptPubKey": {"reqSigs": 1, "hex": "76a914e407025f205f506bd1be4da4940c329f86bd87b788ac", "addresses": ["1MnhTkUSiszd1hi2v6qPYuijoD3LeStpt9"], "asm": "OP_DUP OP_HASH160 e407025f205f506bd1be4da4940c329f86bd87b7 OP_EQUALVERIFY OP_CHECKSIG", "type": "pubkeyhash"}, "value": 1.58349464, "n": 1}], "hex": "01000000012ce842753bd7b06ffc8281b653be517267238386b60311783dfdc6c09045ae08010000006b483045022100e0b535dbfed152644228ad4ad48b3af1442229227bc583105035a4e590a1906302205c3b831f9a022d6ca309f341494b43ede58fd37aedbc75033fa3f9289a4c4585012102437e53fa2a1af7ae4b180567c2ebde09ade618ebbd4d111ab1ced125069dfeb1ffffffff0289088c00000000001976a914ea0877bdfb843a96afde45983896824cbc30e05488ac98387009000000001976a914e407025f205f506bd1be4da4940c329f86bd87b788ac00000000", "vin": [{"sequence": 4294967295, "scriptSig": {"hex": "483045022100e0b535dbfed152644228ad4ad48b3af1442229227bc583105035a4e590a1906302205c3b831f9a022d6ca309f341494b43ede58fd37aedbc75033fa3f9289a4c4585012102437e53fa2a1af7ae4b180567c2ebde09ade618ebbd4d111ab1ced125069dfeb1", "asm": "3045022100e0b535dbfed152644228ad4ad48b3af1442229227bc583105035a4e590a1906302205c3b831f9a022d6ca309f341494b43ede58fd37aedbc75033fa3f9289a4c4585[ALL] 02437e53fa2a1af7ae4b180567c2ebde09ade618ebbd4d111ab1ced125069dfeb1"}, "vout": 1, "txid": "08ae4590c0c6fd3d781103b6868323677251be53b68182fc6fb0d73b7542e82c"}], "txid": "dc1ff28ce407cf802e362d52664cbba1d2eea9b7dfe03cc99c77391f0978e491", "blocktime": 1537870928, "version": 1, "confirmations": 11514, "time": 1537870928, "locktime": 0, "vsize": 226, "size": 226}