{"hash": "dc23fba55bc4f02fffbc34e98540a5dd4ca509b4de060d3c0335888f6fd673bd", "blockhash": "00000000000000000017f5eb5941039fbcee6240d03bc1f2f8e35350df66a1d8", "vout": [{"scriptPubKey": {"reqSigs": 1, "hex": "76a914797b790f54b54f98e44982aacbad50ae80123e2288ac", "addresses": ["1C5LgFytjrQUmwMABjwCtZF31FVAomkNnk"], "asm": "OP_DUP OP_HASH160 797b790f54b54f98e44982aacbad50ae80123e22 OP_EQUALVERIFY OP_CHECKSIG", "type": "pubkeyhash"}, "value": 2.39615813, "n": 0}], "hex": "0100000001d8970c4d54b6c8f5b7fda9019fdc6e4fe52b2a3c231e88261015375c911841fd000000006a47304402201ebd738fb031268976e0a2c2c8fb38105a78676aefd390af9b70d8125d5f4845022013f32aee2321dc7a763763c7df3100c14e41e2da9200c41ee6e1677b7738ed890121024f1b8fcf2d0caefa33f76a9352a1de5935b9d7f1231acef7d32705f9ebb46109ffffffff01453f480e000000001976a914797b790f54b54f98e44982aacbad50ae80123e2288ac00000000", "vin": [{"sequence": 4294967295, "scriptSig": {"hex": "47304402201ebd738fb031268976e0a2c2c8fb38105a78676aefd390af9b70d8125d5f4845022013f32aee2321dc7a763763c7df3100c14e41e2da9200c41ee6e1677b7738ed890121024f1b8fcf2d0caefa33f76a9352a1de5935b9d7f1231acef7d32705f9ebb46109", "asm": "304402201ebd738fb031268976e0a2c2c8fb38105a78676aefd390af9b70d8125d5f4845022013f32aee2321dc7a763763c7df3100c14e41e2da9200c41ee6e1677b7738ed89[ALL] 024f1b8fcf2d0caefa33f76a9352a1de5935b9d7f1231acef7d32705f9ebb46109"}, "vout": 0, "txid": "fd4118915c37151026881e233c2a2be54f6edc9f01a9fdb7f5c8b6544d0c97d8"}], "txid": "dc23fba55bc4f02fffbc34e98540a5dd4ca509b4de060d3c0335888f6fd673bd", "blocktime": 1537874412, "version": 1, "confirmations": 11467, "time": 1537874412, "locktime": 0, "vsize": 191, "size": 191}