{"hash": "dc284581facdbcb0f35f9580dc03b8f89c59d258a7d75c7c71712149946a2eb1", "blockhash": "0000000000000000001f76057863aec43deb6fa401d9628bb513d65a8098bfab", "vout": [{"scriptPubKey": {"reqSigs": 1, "hex": "76a914a09c5e7eaa4531639a8f07c149026ce8e6c4546d88ac", "addresses": ["1FeESQmcbcNspJ2AHYaNqbat7dhH4TVfb3"], "asm": "OP_DUP OP_HASH160 a09c5e7eaa4531639a8f07c149026ce8e6c4546d OP_EQUALVERIFY OP_CHECKSIG", "type": "pubkeyhash"}, "value": 0.04276707, "n": 0}, {"scriptPubKey": {"reqSigs": 1, "hex": "76a91435a86aa6d0fa0c970b6ad9a5b2e3261b4270d7c688ac", "addresses": ["15tiZxZyCByPD5SbWu4k4TWUaxD2VfGyvk"], "asm": "OP_DUP OP_HASH160 35a86aa6d0fa0c970b6ad9a5b2e3261b4270d7c6 OP_EQUALVERIFY OP_CHECKSIG", "type": "pubkeyhash"}, "value": 0.11722615, "n": 1}], "hex": "01000000013aa4f8872f88d6efb2fcaeef4369de279db49d4f6d14c8a814ca3c07cc3df4b6000000006b483045022100bd444b1382a86909faa8158166250b25bb0db2578c85e1d31a4266afd97325c602201b8aab562c17f59abd8ef263d6d59c33b28e9a9895b7d1fd0106ff92aba49b95012102567de381d6d253521243c6bf3c4960d069ade07a3b16d27911c10a048a41e3dcffffffff02e3414100000000001976a914a09c5e7eaa4531639a8f07c149026ce8e6c4546d88ac77dfb200000000001976a91435a86aa6d0fa0c970b6ad9a5b2e3261b4270d7c688ac00000000", "vin": [{"sequence": 4294967295, "scriptSig": {"hex": "483045022100bd444b1382a86909faa8158166250b25bb0db2578c85e1d31a4266afd97325c602201b8aab562c17f59abd8ef263d6d59c33b28e9a9895b7d1fd0106ff92aba49b95012102567de381d6d253521243c6bf3c4960d069ade07a3b16d27911c10a048a41e3dc", "asm": "3045022100bd444b1382a86909faa8158166250b25bb0db2578c85e1d31a4266afd97325c602201b8aab562c17f59abd8ef263d6d59c33b28e9a9895b7d1fd0106ff92aba49b95[ALL] 02567de381d6d253521243c6bf3c4960d069ade07a3b16d27911c10a048a41e3dc"}, "vout": 0, "txid": "b6f43dcc073cca14a8c8146d4f9db49d27de6943efaefcb2efd6882f87f8a43a"}], "txid": "dc284581facdbcb0f35f9580dc03b8f89c59d258a7d75c7c71712149946a2eb1", "blocktime": 1537873891, "version": 1, "confirmations": 11478, "time": 1537873891, "locktime": 0, "vsize": 226, "size": 226}