{"hash": "dc2d1e4b1455936d9434bdadb27482b98c19e2b4695b65b6cd23d99a5aff04b2", "blockhash": "00000000000000000017f5eb5941039fbcee6240d03bc1f2f8e35350df66a1d8", "vout": [{"scriptPubKey": {"reqSigs": 1, "hex": "76a91495fd98d470053f996a43467a5ab52e9b54b366e988ac", "addresses": ["1Eg5Up1tNA1CweaZMsuFnwPmDZx9eNYZzA"], "asm": "OP_DUP OP_HASH160 95fd98d470053f996a43467a5ab52e9b54b366e9 OP_EQUALVERIFY OP_CHECKSIG", "type": "pubkeyhash"}, "value": 0.81512141, "n": 0}], "hex": "0100000002e7e478301e30d1919dce0448d677c91ce45f4467541fc4e2b80479e9703e5305000000006a47304402200a1b71f6f86115ad50f6ae1bf5222ece32941d0fefef5545b875ce762fc1c707022029d976e6eac7249793e2aecab1331f972c0e2ffea16d53c1528cd9e51a424720012102a68ec24eb65940b2807ffca81aaa2b8422a639ba413f82de7463cf08e1f98a39ffffffffe0d2f92e77adf9962ba3c86b26282c9dc9f697b9e48d6834dcdaf8a0a66666ed000000006b483045022100bc55c12766114686dfec6c69202f99a76046053e813106955dec406d5a88852102201b18bfbd9a38eb08a5b738e0efd6a0b58d793cfd0220c342b9659d04f19da0830121021fec920e994bf59eefdf39ab5346ec2695f2ab36f6afe9db3bcd0ce9779d9720ffffffff01cdc6db04000000001976a91495fd98d470053f996a43467a5ab52e9b54b366e988ac00000000", "vin": [{"sequence": 4294967295, "scriptSig": {"hex": "47304402200a1b71f6f86115ad50f6ae1bf5222ece32941d0fefef5545b875ce762fc1c707022029d976e6eac7249793e2aecab1331f972c0e2ffea16d53c1528cd9e51a424720012102a68ec24eb65940b2807ffca81aaa2b8422a639ba413f82de7463cf08e1f98a39", "asm": "304402200a1b71f6f86115ad50f6ae1bf5222ece32941d0fefef5545b875ce762fc1c707022029d976e6eac7249793e2aecab1331f972c0e2ffea16d53c1528cd9e51a424720[ALL] 02a68ec24eb65940b2807ffca81aaa2b8422a639ba413f82de7463cf08e1f98a39"}, "vout": 0, "txid": "05533e70e97904b8e2c41f5467445fe41cc977d64804ce9d91d1301e3078e4e7"}, {"sequence": 4294967295, "scriptSig": {"hex": "483045022100bc55c12766114686dfec6c69202f99a76046053e813106955dec406d5a88852102201b18bfbd9a38eb08a5b738e0efd6a0b58d793cfd0220c342b9659d04f19da0830121021fec920e994bf59eefdf39ab5346ec2695f2ab36f6afe9db3bcd0ce9779d9720", "asm": "3045022100bc55c12766114686dfec6c69202f99a76046053e813106955dec406d5a88852102201b18bfbd9a38eb08a5b738e0efd6a0b58d793cfd0220c342b9659d04f19da083[ALL] 021fec920e994bf59eefdf39ab5346ec2695f2ab36f6afe9db3bcd0ce9779d9720"}, "vout": 0, "txid": "ed6666a6a0f8dadc34688de4b997f6c99d2c28266bc8a32b96f9ad772ef9d2e0"}], "txid": "dc2d1e4b1455936d9434bdadb27482b98c19e2b4695b65b6cd23d99a5aff04b2", "blocktime": 1537874412, "version": 1, "confirmations": 11467, "time": 1537874412, "locktime": 0, "vsize": 339, "size": 339}