{"hash": "dc3786afcfce9390245e7a419846408cc6edb699d7dc6b2a339821dcd0eab1d9", "blockhash": "0000000000000000000e13cef7c366c0283d82e591d1acd082e914b08063cdf1", "vout": [{"scriptPubKey": {"reqSigs": 1, "hex": "a9148ace422a8ad2cde4290c6764d3a442469315bf1d87", "addresses": ["3ELxG75BTKYHckQ7t3L24UkHKBfYn9GRTF"], "asm": "OP_HASH160 8ace422a8ad2cde4290c6764d3a442469315bf1d OP_EQUAL", "type": "scripthash"}, "value": 0.01164015, "n": 0}, {"scriptPubKey": {"reqSigs": 1, "hex": "76a9145486f97b05f3e2387522d1de45cae8759a18f74588ac", "addresses": ["18hwTJudfotnofU1JFWhz6bZVG9XCUVUyW"], "asm": "OP_DUP OP_HASH160 5486f97b05f3e2387522d1de45cae8759a18f745 OP_EQUALVERIFY OP_CHECKSIG", "type": "pubkeyhash"}, "value": 0.00896044, "n": 1}], "hex": "0200000003c94e8c74799a572d24733441d7acd5866318465b896cb2281c09bcbeded89f05360000006a4730440220568295e850471a7b15597e21427cfe489d66dacfd12a1aff00b93e9b94de123902203d3600393f6e41dca349b1953b7ca4a11a7b3e383831314edf0738819e42544f012103f06885e6e1bd5bb451bd9440fa04c2d11a3a57810bd25a94061503a9309a4b81feffffffc94e8c74799a572d24733441d7acd5866318465b896cb2281c09bcbeded89f057f0100006a47304402206c15533e11915014e71e820e7d9f64d45a5c24d04f083d4916327c0d75aba6ef0220394ed566c514d9f64d006018c5c0ef8b79717009af049f8b5505935848cc3183012102b1d5dc6672d741cf5e05c975d21989f0c119f00da493442b91622a1abaacb6e5feffffff0fb0684467b78d4f74e464e475a3629ca36479067164419629ef00a029e4a37a000000006b4830450221008b0fd545ceffcbe67a6c57554b1a8c71a3b89ca9af596b15100fc203a49ae6c4022067b8109f61cd6ff977c649672706d60a8e99a4a16820014ecc37f61b69f5c5c3012102498c51d3114697657bbfa7cc2f369c650d03f10752e00ecf9047148aa76748befeffffff02efc211000000000017a9148ace422a8ad2cde4290c6764d3a442469315bf1d872cac0d00000000001976a9145486f97b05f3e2387522d1de45cae8759a18f74588ac10490800", "vin": [{"sequence": 4294967294, "scriptSig": {"hex": "4730440220568295e850471a7b15597e21427cfe489d66dacfd12a1aff00b93e9b94de123902203d3600393f6e41dca349b1953b7ca4a11a7b3e383831314edf0738819e42544f012103f06885e6e1bd5bb451bd9440fa04c2d11a3a57810bd25a94061503a9309a4b81", "asm": "30440220568295e850471a7b15597e21427cfe489d66dacfd12a1aff00b93e9b94de123902203d3600393f6e41dca349b1953b7ca4a11a7b3e383831314edf0738819e42544f[ALL] 03f06885e6e1bd5bb451bd9440fa04c2d11a3a57810bd25a94061503a9309a4b81"}, "vout": 54, "txid": "059fd8debebc091c28b26c895b46186386d5acd7413473242d579a79748c4ec9"}, {"sequence": 4294967294, "scriptSig": {"hex": "47304402206c15533e11915014e71e820e7d9f64d45a5c24d04f083d4916327c0d75aba6ef0220394ed566c514d9f64d006018c5c0ef8b79717009af049f8b5505935848cc3183012102b1d5dc6672d741cf5e05c975d21989f0c119f00da493442b91622a1abaacb6e5", "asm": "304402206c15533e11915014e71e820e7d9f64d45a5c24d04f083d4916327c0d75aba6ef0220394ed566c514d9f64d006018c5c0ef8b79717009af049f8b5505935848cc3183[ALL] 02b1d5dc6672d741cf5e05c975d21989f0c119f00da493442b91622a1abaacb6e5"}, "vout": 383, "txid": "059fd8debebc091c28b26c895b46186386d5acd7413473242d579a79748c4ec9"}, {"sequence": 4294967294, "scriptSig": {"hex": "4830450221008b0fd545ceffcbe67a6c57554b1a8c71a3b89ca9af596b15100fc203a49ae6c4022067b8109f61cd6ff977c649672706d60a8e99a4a16820014ecc37f61b69f5c5c3012102498c51d3114697657bbfa7cc2f369c650d03f10752e00ecf9047148aa76748be", "asm": "30450221008b0fd545ceffcbe67a6c57554b1a8c71a3b89ca9af596b15100fc203a49ae6c4022067b8109f61cd6ff977c649672706d60a8e99a4a16820014ecc37f61b69f5c5c3[ALL] 02498c51d3114697657bbfa7cc2f369c650d03f10752e00ecf9047148aa76748be"}, "vout": 0, "txid": "7aa3e429a000ef2996416471067964a39c62a375e464e4744f8db7674468b00f"}], "txid": "dc3786afcfce9390245e7a419846408cc6edb699d7dc6b2a339821dcd0eab1d9", "blocktime": 1537871767, "version": 2, "confirmations": 11490, "time": 1537871767, "locktime": 542992, "vsize": 518, "size": 518}