{"hash": "341aedb4faf2a417de532e932a3c6ef9a6921324cc95593d2e910fdf21771c13", "blockhash": "0000000000000000000e13cef7c366c0283d82e591d1acd082e914b08063cdf1", "vout": [{"scriptPubKey": {"reqSigs": 1, "hex": "a914af30802299f21c0f643379086148506bfba461ae87", "addresses": ["3HfLGzN568VzGP5k2fwyJR4pBrpWQr2CWU"], "asm": "OP_HASH160 af30802299f21c0f643379086148506bfba461ae OP_EQUAL", "type": "scripthash"}, "value": 1.661e-05, "n": 0}, {"scriptPubKey": {"reqSigs": 1, "hex": "a9141d7370ccde4590204155e4074f69743a8e4fac0287", "addresses": ["34Njp4ZKtmCDfqqps26wHBYQQGUo2pGkLi"], "asm": "OP_HASH160 1d7370ccde4590204155e4074f69743a8e4fac02 OP_EQUAL", "type": "scripthash"}, "value": 0.00081735, "n": 1}], "hex": "010000000001013a13c3f6fb8b86cb9240c692743f8749f3ca0514f950f6b06ee651156a7921870100000023220020f63dfc12340f6360d0251c22746d6b56093e3243e96ca012a65484a5d9cf0ec0ffffffff027d0600000000000017a914af30802299f21c0f643379086148506bfba461ae87473f01000000000017a9141d7370ccde4590204155e4074f69743a8e4fac02870400473044022048c7a2d6261904e32f1a4d2ac4c1922730e18d9e42ff2487375ad61b7b216c7002204942846a729c011b955fe0c67a9d1f6eff92ddb1d4033524fb1316aef0bd208601483045022100ba775551f2d44af9fc92859b080e25b724ec474904e5f08e77d1792e7b650be40220014a91801337f572a969f5a318b059e483fc58a7925d76955b144aab71f09ea10147522102097067a6a0cc130a9a6f6577b47bf369b840a79de31cd7457187994266b1bb7c2103338f346cab6ba87fe940591a03ac234be06520c5ab386d4b6632e8eef0d0db7652ae00000000", "vin": [{"txinwitness": ["", "3044022048c7a2d6261904e32f1a4d2ac4c1922730e18d9e42ff2487375ad61b7b216c7002204942846a729c011b955fe0c67a9d1f6eff92ddb1d4033524fb1316aef0bd208601", "3045022100ba775551f2d44af9fc92859b080e25b724ec474904e5f08e77d1792e7b650be40220014a91801337f572a969f5a318b059e483fc58a7925d76955b144aab71f09ea101", "522102097067a6a0cc130a9a6f6577b47bf369b840a79de31cd7457187994266b1bb7c2103338f346cab6ba87fe940591a03ac234be06520c5ab386d4b6632e8eef0d0db7652ae"], "sequence": 4294967295, "scriptSig": {"hex": "220020f63dfc12340f6360d0251c22746d6b56093e3243e96ca012a65484a5d9cf0ec0", "asm": "0020f63dfc12340f6360d0251c22746d6b56093e3243e96ca012a65484a5d9cf0ec0"}, "vout": 1, "txid": "8721796a1551e66eb0f650f91405caf349873f7492c64092cb868bfbf6c3133a"}], "txid": "dc3793aade8d630848ca4446f680d61d9a023821ae1f4c46040c000e7c002ff7", "blocktime": 1537871767, "version": 1, "confirmations": 11495, "time": 1537871767, "locktime": 0, "vsize": 206, "size": 371}