{"hash": "18527cde82a7601b2c22a2194f0dbdb01c32fcca1d02298cf9f82d73cf448df7", "blockhash": "0000000000000000001cda96e906b7601b7a6fb1a3b62bca570a9e5d8f4b3de1", "vout": [{"scriptPubKey": {"reqSigs": 1, "hex": "a914a5fea54c5db13a5de31202b5e3eaee215eaabd9a87", "addresses": ["3GpiUHiGeQ7RwZQ9BmdEzsxuCgBDiUK3Ue"], "asm": "OP_HASH160 a5fea54c5db13a5de31202b5e3eaee215eaabd9a OP_EQUAL", "type": "scripthash"}, "value": 0.00998522, "n": 0}, {"scriptPubKey": {"reqSigs": 1, "hex": "76a9148943c7f746460541aba9111d33949c8d66d911c988ac", "addresses": ["1DWnmo8VUKssSGGVq4bwkMqHjHL9LL8FLY"], "asm": "OP_DUP OP_HASH160 8943c7f746460541aba9111d33949c8d66d911c9 OP_EQUALVERIFY OP_CHECKSIG", "type": "pubkeyhash"}, "value": 0.0073166, "n": 1}], "hex": "0200000000010158ceb1568bc71b88427b6c0ca1aaea9f5d664f6209c211cefcf1d88ae005d0cb010000001716001491b2d4c9a82f684867dd18c51b6f9eda95bc3ac7feffffff027a3c0f000000000017a914a5fea54c5db13a5de31202b5e3eaee215eaabd9a870c2a0b00000000001976a9148943c7f746460541aba9111d33949c8d66d911c988ac02483045022100d07d74bab0ce8f9e57e87dae654742f731c03f5b397c4384feba0883d0d49caf02204ae18cb2f10bb92902f6a7ea602c8113168e127473417a86f559b3199f8f94c201210274065fd249479734c1fb9c3fb91247a23302f71bdcf734ded81456995fcc1a1413490800", "vin": [{"txinwitness": ["3045022100d07d74bab0ce8f9e57e87dae654742f731c03f5b397c4384feba0883d0d49caf02204ae18cb2f10bb92902f6a7ea602c8113168e127473417a86f559b3199f8f94c201", "0274065fd249479734c1fb9c3fb91247a23302f71bdcf734ded81456995fcc1a14"], "sequence": 4294967294, "scriptSig": {"hex": "16001491b2d4c9a82f684867dd18c51b6f9eda95bc3ac7", "asm": "001491b2d4c9a82f684867dd18c51b6f9eda95bc3ac7"}, "vout": 1, "txid": "cbd005e08ad8f1fcce11c209624f665d9feaaaa10c6c7b42881bc78b56b1ce58"}], "txid": "dc3b64f36594d81f74dc688e7f071ea7f92a9ff9a8fab83261715671d5a45603", "blocktime": 1537873282, "version": 2, "confirmations": 11481, "time": 1537873282, "locktime": 542995, "vsize": 168, "size": 250}