{"hash": "dc3c797de95e65122fb9a7646b15e48fa0f0461a9fbc585a39ebc2cbc7a17794", "blockhash": "00000000000000000004ffacab907a6b429b9a5745fa0b75af4234bf69dd7176", "vout": [{"scriptPubKey": {"reqSigs": 1, "hex": "76a914b7000f21da0c51f57e60d21e549ff4cbb32b839988ac", "addresses": ["1HgcjDJEwe6KBTnEoXURL6UNscdpw9Vehm"], "asm": "OP_DUP OP_HASH160 b7000f21da0c51f57e60d21e549ff4cbb32b8399 OP_EQUALVERIFY OP_CHECKSIG", "type": "pubkeyhash"}, "value": 0.0759, "n": 0}], "hex": "01000000015378c984f9294b7e7005cd0a7f2f19e9b939f59c06eab7adf4b13fedd749ed29010000006b483045022100fa0cb7c2f0385548ddaacc46ce9cc05d1ec2cdffb43b6b4587f9cf025f21686302206c149976461833bdd7fa8cb82d47776df976293b76e3a0e920007fc683c161130121026264c1b08c586d1d26d01f79c3598e451c98229b279dece27ba038da09d4f732ffffffff0170d07300000000001976a914b7000f21da0c51f57e60d21e549ff4cbb32b839988ac00000000", "vin": [{"sequence": 4294967295, "scriptSig": {"hex": "483045022100fa0cb7c2f0385548ddaacc46ce9cc05d1ec2cdffb43b6b4587f9cf025f21686302206c149976461833bdd7fa8cb82d47776df976293b76e3a0e920007fc683c161130121026264c1b08c586d1d26d01f79c3598e451c98229b279dece27ba038da09d4f732", "asm": "3045022100fa0cb7c2f0385548ddaacc46ce9cc05d1ec2cdffb43b6b4587f9cf025f21686302206c149976461833bdd7fa8cb82d47776df976293b76e3a0e920007fc683c16113[ALL] 026264c1b08c586d1d26d01f79c3598e451c98229b279dece27ba038da09d4f732"}, "vout": 1, "txid": "29ed49d7ed3fb1f4adb7ea069cf539b9e9192f7f0acd05707e4b29f984c97853"}], "txid": "dc3c797de95e65122fb9a7646b15e48fa0f0461a9fbc585a39ebc2cbc7a17794", "blocktime": 1537875543, "version": 1, "confirmations": 11464, "time": 1537875543, "locktime": 0, "vsize": 192, "size": 192}