{"hash": "b736b1ed113fa492ade74d76ee2efaa198dea5539c39469951eeec659e5ea014", "blockhash": "0000000000000000001cda96e906b7601b7a6fb1a3b62bca570a9e5d8f4b3de1", "vout": [{"scriptPubKey": {"reqSigs": 1, "hex": "76a914b74f99d4b86c771589948729725a6f352b89c7e888ac", "addresses": ["1HiG1scSu1Yr2CA6Q8LJtfB2ZKwrSdsu5K"], "asm": "OP_DUP OP_HASH160 b74f99d4b86c771589948729725a6f352b89c7e8 OP_EQUALVERIFY OP_CHECKSIG", "type": "pubkeyhash"}, "value": 0.15439212, "n": 0}, {"scriptPubKey": {"reqSigs": 1, "hex": "a914ddad70470f0be84f537166242453ff396b1e3a6087", "addresses": ["3Mu92fNUyxommQpgwrHuWq4xD9Bpz3ukgh"], "asm": "OP_HASH160 ddad70470f0be84f537166242453ff396b1e3a60 OP_EQUAL", "type": "scripthash"}, "value": 0.01660361, "n": 1}, {"scriptPubKey": {"reqSigs": 1, "hex": "76a91456cc8959cebe16a48722426dd20c695822389e6c88ac", "addresses": ["18ux8wn4EncAP8Ee5M3FMEqJagsqNnC4Bd"], "asm": "OP_DUP OP_HASH160 56cc8959cebe16a48722426dd20c695822389e6c OP_EQUALVERIFY OP_CHECKSIG", "type": "pubkeyhash"}, "value": 0.2725816, "n": 2}, {"scriptPubKey": {"reqSigs": 1, "hex": "76a914bc5d59b5bc96a668493ecdc4b6e80f132e32749d88ac", "addresses": ["1JAysAcGqNByf5ha1frYzBsWZGZxcie7u3"], "asm": "OP_DUP OP_HASH160 bc5d59b5bc96a668493ecdc4b6e80f132e32749d OP_EQUALVERIFY OP_CHECKSIG", "type": "pubkeyhash"}, "value": 0.05440344, "n": 3}, {"scriptPubKey": {"reqSigs": 1, "hex": "76a914209210928bfb9deb221bd65116247e47d018637088ac", "addresses": ["13yDbtsdCsT9V8vCEEHcNZKMWzsDDfysXX"], "asm": "OP_DUP OP_HASH160 209210928bfb9deb221bd65116247e47d0186370 OP_EQUALVERIFY OP_CHECKSIG", "type": "pubkeyhash"}, "value": 0.04531028, "n": 4}, {"scriptPubKey": {"reqSigs": 1, "hex": "76a914d9e3c022d19d3495fabb1e7214e0ff6e4f6ac7c288ac", "addresses": ["1Ls6U1foh47W2B82JRq76P5vedA4S4NKuX"], "asm": "OP_DUP OP_HASH160 d9e3c022d19d3495fabb1e7214e0ff6e4f6ac7c2 OP_EQUALVERIFY OP_CHECKSIG", "type": "pubkeyhash"}, "value": 0.06149517, "n": 5}], "hex": "020000000001044119a2a8da9886f34f0b10ce3277140cd323ab09edeb80e6013066bd16986a150000000017160014b4afca4bcdf47540e75fdb1c1655776a7023b990fdffffff4ecc8b77c58fc98051cb7bf754255cea19e2049e20a5b0f953a01bce4b25307b01000000171600141fed8e02921e3cd76716037ab155fa2ffe607380fdffffff965b1830f24694e26553c556f7975217684422cec5261b56ba8008d94ed8db8900000000171600141a3a3cc4f6894b72cddfe0c4a80207288fe48bdafdffffffb1ea28f14d4bce7554c551abe7ac58597aa6bf42600a8f2ca79841b530087a1000000000171600140f973b32434485c7016ea576ff523bac5adf4fcdfdffffff066c95eb00000000001976a914b74f99d4b86c771589948729725a6f352b89c7e888acc95519000000000017a914ddad70470f0be84f537166242453ff396b1e3a608730ed9f01000000001976a91456cc8959cebe16a48722426dd20c695822389e6c88ac58035300000000001976a914bc5d59b5bc96a668493ecdc4b6e80f132e32749d88ac54234500000000001976a914209210928bfb9deb221bd65116247e47d018637088ac8dd55d00000000001976a914d9e3c022d19d3495fabb1e7214e0ff6e4f6ac7c288ac0247304402202e0d4baee30968260a5b926d7b40e781cdd2cb324cf7e1c81bf21fd08f186b1f02205be87b8fb338c3110c1febdd1c88210f35c5aa2f191b99066d6c886fe4d7f8350121022d7e2d37d123e165a98d5f6a03e5be328a21bf7ac78bb3c27c267944d9e0bfba0248304502210084049a295939ff238e264f017030f0d70aa0c176608ab6773e03292c113ba2c002201b0070f322e8490db5b3b8e13e060c640a92a48e0e3cc8fd3207b9dc5e90b905012103291b6a5babd4ebd63d9b28c8f95e4fe11581f62ed8a614a532ea4eaee8fdb5840247304402207efe9f46bf07df739c32ea29c8e846c93c5e452887fb397446f0c6f69560c2b7022026c8b07aca119c9dbfae9e93012d04cb55f3fd56ef4ca0cbf1495a96d3f4f9ea012102587daf86a1f756de4bc93211d8fcba981b22d54256f75979a691264a1ed7f7ae024730440220175c511fecfe6d1eb3dcbc2a800531fd9bbedd4df7d940da4f613fd973c2120102204e103a871a5af4368df3aa776b0c783c2c665aaac1a8369630acca56ca985e56012103426d370c23a522860f6621110e723bb0e2a848d4332be4eed4fd8a85ecd878ca13490800", "vin": [{"txinwitness": ["304402202e0d4baee30968260a5b926d7b40e781cdd2cb324cf7e1c81bf21fd08f186b1f02205be87b8fb338c3110c1febdd1c88210f35c5aa2f191b99066d6c886fe4d7f83501", "022d7e2d37d123e165a98d5f6a03e5be328a21bf7ac78bb3c27c267944d9e0bfba"], "sequence": 4294967293, "scriptSig": {"hex": "160014b4afca4bcdf47540e75fdb1c1655776a7023b990", "asm": "0014b4afca4bcdf47540e75fdb1c1655776a7023b990"}, "vout": 0, "txid": "156a9816bd663001e680ebed09ab23d30c147732ce100b4ff38698daa8a21941"}, {"txinwitness": ["304502210084049a295939ff238e264f017030f0d70aa0c176608ab6773e03292c113ba2c002201b0070f322e8490db5b3b8e13e060c640a92a48e0e3cc8fd3207b9dc5e90b90501", "03291b6a5babd4ebd63d9b28c8f95e4fe11581f62ed8a614a532ea4eaee8fdb584"], "sequence": 4294967293, "scriptSig": {"hex": "1600141fed8e02921e3cd76716037ab155fa2ffe607380", "asm": "00141fed8e02921e3cd76716037ab155fa2ffe607380"}, "vout": 1, "txid": "7b30254bce1ba053f9b0a5209e04e219ea5c2554f77bcb5180c98fc5778bcc4e"}, {"txinwitness": ["304402207efe9f46bf07df739c32ea29c8e846c93c5e452887fb397446f0c6f69560c2b7022026c8b07aca119c9dbfae9e93012d04cb55f3fd56ef4ca0cbf1495a96d3f4f9ea01", "02587daf86a1f756de4bc93211d8fcba981b22d54256f75979a691264a1ed7f7ae"], "sequence": 4294967293, "scriptSig": {"hex": "1600141a3a3cc4f6894b72cddfe0c4a80207288fe48bda", "asm": "00141a3a3cc4f6894b72cddfe0c4a80207288fe48bda"}, "vout": 0, "txid": "89dbd84ed90880ba561b26c5ce224468175297f756c55365e29446f230185b96"}, {"txinwitness": ["30440220175c511fecfe6d1eb3dcbc2a800531fd9bbedd4df7d940da4f613fd973c2120102204e103a871a5af4368df3aa776b0c783c2c665aaac1a8369630acca56ca985e5601", "03426d370c23a522860f6621110e723bb0e2a848d4332be4eed4fd8a85ecd878ca"], "sequence": 4294967293, "scriptSig": {"hex": "1600140f973b32434485c7016ea576ff523bac5adf4fcd", "asm": "00140f973b32434485c7016ea576ff523bac5adf4fcd"}, "vout": 0, "txid": "107a0830b54198a72c8f0a6042bfa67a5958ace7ab51c55475ce4b4df128eab1"}], "txid": "dc410c8879826011f1a78002dc34625ff41ace86e1ac8be5a6b1a1f87d2dbdd3", "blocktime": 1537873282, "version": 2, "confirmations": 11484, "time": 1537873282, "locktime": 542995, "vsize": 576, "size": 899}