{"hash": "dc44ab55a397f5d31cd5b01755891c1a538e7a45e04d360b748d2b63a953090c", "blockhash": "0000000000000000001f76057863aec43deb6fa401d9628bb513d65a8098bfab", "vout": [{"scriptPubKey": {"reqSigs": 1, "hex": "76a914c8c4f00e92930c1ff732881454ef579c58787e4e88ac", "addresses": ["1KJa4qf8XaviborkkFtmNGxrr2KH61KBFZ"], "asm": "OP_DUP OP_HASH160 c8c4f00e92930c1ff732881454ef579c58787e4e OP_EQUALVERIFY OP_CHECKSIG", "type": "pubkeyhash"}, "value": 0.00148797, "n": 0}, {"scriptPubKey": {"reqSigs": 1, "hex": "a914e2e690c3ae100e15ba8b30ca81166ca4404e8ff487", "addresses": ["3NNkqsJzU5camyGwLQ2736D4hgfL5mYxp3"], "asm": "OP_HASH160 e2e690c3ae100e15ba8b30ca81166ca4404e8ff4 OP_EQUAL", "type": "scripthash"}, "value": 0.05110882, "n": 1}], "hex": "01000000017dac8db12bb75f489eaf05e2c5c1480be62d5f395f64c8f26a76ebff83582ce6010000006b483045022100b51878dcd82f1a4582a939673ca2a053f5082285f04c7564619693d6ee00fbcb02200a6abe1ab017f83b1391208087e03489f32dab02b949acdaf0c033b03b77e91f012102ebcfe63f84e1e708f54a7b21f39ab6e521370848f33586d0e7137e5accb2c6c2ffffffff023d450200000000001976a914c8c4f00e92930c1ff732881454ef579c58787e4e88ac62fc4d000000000017a914e2e690c3ae100e15ba8b30ca81166ca4404e8ff48700000000", "vin": [{"sequence": 4294967295, "scriptSig": {"hex": "483045022100b51878dcd82f1a4582a939673ca2a053f5082285f04c7564619693d6ee00fbcb02200a6abe1ab017f83b1391208087e03489f32dab02b949acdaf0c033b03b77e91f012102ebcfe63f84e1e708f54a7b21f39ab6e521370848f33586d0e7137e5accb2c6c2", "asm": "3045022100b51878dcd82f1a4582a939673ca2a053f5082285f04c7564619693d6ee00fbcb02200a6abe1ab017f83b1391208087e03489f32dab02b949acdaf0c033b03b77e91f[ALL] 02ebcfe63f84e1e708f54a7b21f39ab6e521370848f33586d0e7137e5accb2c6c2"}, "vout": 1, "txid": "e62c5883ffeb766af2c8645f395f2de60b48c1c5e205af9e485fb72bb18dac7d"}], "txid": "dc44ab55a397f5d31cd5b01755891c1a538e7a45e04d360b748d2b63a953090c", "blocktime": 1537873891, "version": 1, "confirmations": 11477, "time": 1537873891, "locktime": 0, "vsize": 224, "size": 224}