{"hash": "dc45bd5b3dd53bf115a8b80b0c42b1544a10b24f3027c10aec75c0a7a1deaea8", "blockhash": "00000000000000000004ffacab907a6b429b9a5745fa0b75af4234bf69dd7176", "vout": [{"scriptPubKey": {"reqSigs": 1, "hex": "76a91446c56fcc3a80b76c8e3c9cf223e0a0b60f6fbd1488ac", "addresses": ["17TCpa8eHU2bHD2WoHbvrh3VJjJChxstKf"], "asm": "OP_DUP OP_HASH160 46c56fcc3a80b76c8e3c9cf223e0a0b60f6fbd14 OP_EQUALVERIFY OP_CHECKSIG", "type": "pubkeyhash"}, "value": 0.00084299, "n": 0}, {"scriptPubKey": {"reqSigs": 1, "hex": "a914f97e9a9788426b9daa26ef282f19ea8a09cb0fc287", "addresses": ["3QSDquD5BAngz3fovesha8hQ3i7CnwEm3K"], "asm": "OP_HASH160 f97e9a9788426b9daa26ef282f19ea8a09cb0fc2 OP_EQUAL", "type": "scripthash"}, "value": 0.016, "n": 1}], "hex": "01000000011453b8f45142b8ef7dd443c9d878adfd5f8aef607a2540c8087a5c2e7314184e000000006a47304402207b8ee9af6a9fea0e637c56e00cffbf181fe9f2d3a11ea6f07477079f919da29e0220278b762265415b1c0b2806a37c43f106dc8091ab40eab8f4bf49c3689057f4020121029584329d3bc58037a1e436e7e72c4b803505464cd809fd2f97e1c5d5af6e5fc6ffffffff024b490100000000001976a91446c56fcc3a80b76c8e3c9cf223e0a0b60f6fbd1488ac006a18000000000017a914f97e9a9788426b9daa26ef282f19ea8a09cb0fc28700000000", "vin": [{"sequence": 4294967295, "scriptSig": {"hex": "47304402207b8ee9af6a9fea0e637c56e00cffbf181fe9f2d3a11ea6f07477079f919da29e0220278b762265415b1c0b2806a37c43f106dc8091ab40eab8f4bf49c3689057f4020121029584329d3bc58037a1e436e7e72c4b803505464cd809fd2f97e1c5d5af6e5fc6", "asm": "304402207b8ee9af6a9fea0e637c56e00cffbf181fe9f2d3a11ea6f07477079f919da29e0220278b762265415b1c0b2806a37c43f106dc8091ab40eab8f4bf49c3689057f402[ALL] 029584329d3bc58037a1e436e7e72c4b803505464cd809fd2f97e1c5d5af6e5fc6"}, "vout": 0, "txid": "4e1814732e5c7a08c840257a60ef8a5ffdad78d8c943d47defb84251f4b85314"}], "txid": "dc45bd5b3dd53bf115a8b80b0c42b1544a10b24f3027c10aec75c0a7a1deaea8", "blocktime": 1537875543, "version": 1, "confirmations": 11464, "time": 1537875543, "locktime": 0, "vsize": 223, "size": 223}