{"hash": "f01b7200758cbd360e2f5cd64793863315eb537ae8d72e392b9d9b487ad88937", "blockhash": "0000000000000000001e0dab787dd257d1dbfcb92a98c2207d5e1078be1f4165", "vout": [{"scriptPubKey": {"reqSigs": 1, "hex": "76a914247a844e98de74f0e87624443d86267a472172ea88ac", "addresses": ["14Kt6XQ1yr44RPPfRV7bytTJf3VWYT7aUL"], "asm": "OP_DUP OP_HASH160 247a844e98de74f0e87624443d86267a472172ea OP_EQUALVERIFY OP_CHECKSIG", "type": "pubkeyhash"}, "value": 0.00978112, "n": 0}, {"scriptPubKey": {"reqSigs": 1, "hex": "76a914b6ef1b64b53e30305eb212732302a6115dc6311c88ac", "addresses": ["1HgGRMq6zpiTKc8s7gf8BdDWze5m88pkzV"], "asm": "OP_DUP OP_HASH160 b6ef1b64b53e30305eb212732302a6115dc6311c OP_EQUALVERIFY OP_CHECKSIG", "type": "pubkeyhash"}, "value": 0.67141525, "n": 1}], "hex": "02000000000108281efd37a674713ea344484ef3c315d4f1d815871f4437620a258214f12a17cb0000000017160014ccf3e4e1aee3b3a5611e60f83c8c9264c9509d4cfeffffff39807455fa11a01251b4de2cd789d4ba8d21b551e7740b3b1e7bcd6947b6dd930000000017160014c1522156fbb9dc4ab536b24c919853141b334cd1feffffff474bfc27bbd28d221135f7d0f1b790a29b61aa5e867b683296beb20f939f74f50000000017160014ed0518c1a6b3bd5fa366edb96b236a8fe8e4480afeffffff99cc07bed8fdeb80ddf35eb6998b0bc11b7357aa3d5bc9a98b134ab0119d85bd020000006a47304402202e5cb7f381bcd5b4bce3f8963af625d111026cc2da5918060ae57656d32a6a2f0220707e6151d97ea58fb261b7957b924aee237d344027bda53f02170e69fc1891d4012103a22858fa939c8fb6d681bef79c7a4faac46efd6981ee93e19459ad64ef74ff4dfeffffffafdd7ddf0a9e05939a61a29c8bf54200da8fca4ef4c9b045db1cfaec8b44fcea0e000000171600144439a0aa05fcf476363236039843fa1ffd36cbd5feffffffd0981b0323fab77c603f409dcf86682ccf2e2d3bb89042deea022f5841b555b80000000017160014df24a56a9d06569a47661ffed3c0bf9dc054d3e8feffffffd600bbb7fda888d505bd65c6f7c675221db6814f2175941bc0d11763029bb7e8030000006a47304402207f964b15457cf2decde20ef6baa2d502bf1b740ee170c9f834b4fffc60c4316c02204f4c307b14778a3f6dcfdd91421b1cce0b3b116efc3a2cd5a35eeb8668a0d32e012102b620faf7c50c3a12b3fd94a4ca891cc722127aed622e32f3771944ea5bb71173feffffffead727dab7700e3513008ecbb4df49da552b24d8292bbd1153aa0e7b1875f93b0100000017160014c15799b3201269ab9153ff89b82025438528af91feffffff02c0ec0e00000000001976a914247a844e98de74f0e87624443d86267a472172ea88ac957f0004000000001976a914b6ef1b64b53e30305eb212732302a6115dc6311c88ac0247304402205447e180c259b81ecdf1ecab090c8fab39c107eaa46d6b5dcdfda3098ff0b62302206be2c44f6d356a2e04383828367eb6f788cc7ff77683403748261aba41b457f9012102349d515112879d41adadd427bc0fecd888a0be8c2ae907123a550ea8e01ada940248304502210084a42c1e2dbfb3740cd4eed11947bce7281795b1eb262a8a8c126b04c4871a7b0220267a8713b765e278ae88ab27faba127cc03db776f70654fc8845ce48c229fa0c0121037b8b56f93be6863e7af9becff81220ead5fc3dba0550c7ee216478d93e415c3a024730440220466aaea8306e426aa21b84b2bb0161a65cec0122d51cb3ce7dbf8c14da1e410102207d766eb5c74a367e5a285c7c047fb49fffd0c98df2a4e094ee5905db114e3cf301210263f2a3706276ae01424f6d5de96285c5506a4b9f0ee9b66ee95db6cb6a2055c70002483045022100d748da2fdce2676636a0ee84e983bbbda213ebe6d4af61606b18947263e008c70220160d043f21b74bcc1d155ea3d18011420e647db7c797941fad075a0f30d3856301210212ad92da6645eb0166fdb36f3e0590dfa26f8145d2c1288e77849a0d0736e3690247304402204ecb5f79fcbadf84f4c680491b76b23865c80cdf4f5d97d7ef6b40a9e8a9ce0b02207461e87b3fe248a015d11fec2059e19526ae674b2df2b16104b06183c06ae1090121037ac12d51b254c52570575d583325d5357dffd590c1528d7d460bbdebfdec97730002473044022010097b2717f9f9c0f196422682536cfc02b1a235a2d865e32f27147b752c00cd02200325b960cb697522d3f9fc7f15409cc08ecb9fd062577a4956ee54b3b94896bc0121022e4b48312a7b9ba5c5c8de4715def9b891c48a1cd27e3ab05af34c1c376f38de12490800", "vin": [{"txinwitness": ["304402205447e180c259b81ecdf1ecab090c8fab39c107eaa46d6b5dcdfda3098ff0b62302206be2c44f6d356a2e04383828367eb6f788cc7ff77683403748261aba41b457f901", "02349d515112879d41adadd427bc0fecd888a0be8c2ae907123a550ea8e01ada94"], "sequence": 4294967294, "scriptSig": {"hex": "160014ccf3e4e1aee3b3a5611e60f83c8c9264c9509d4c", "asm": "0014ccf3e4e1aee3b3a5611e60f83c8c9264c9509d4c"}, "vout": 0, "txid": "cb172af11482250a6237441f8715d8f1d415c3f34e4844a33e7174a637fd1e28"}, {"txinwitness": ["304502210084a42c1e2dbfb3740cd4eed11947bce7281795b1eb262a8a8c126b04c4871a7b0220267a8713b765e278ae88ab27faba127cc03db776f70654fc8845ce48c229fa0c01", "037b8b56f93be6863e7af9becff81220ead5fc3dba0550c7ee216478d93e415c3a"], "sequence": 4294967294, "scriptSig": {"hex": "160014c1522156fbb9dc4ab536b24c919853141b334cd1", "asm": "0014c1522156fbb9dc4ab536b24c919853141b334cd1"}, "vout": 0, "txid": "93ddb64769cd7b1e3b0b74e751b5218dbad489d72cdeb45112a011fa55748039"}, {"txinwitness": ["30440220466aaea8306e426aa21b84b2bb0161a65cec0122d51cb3ce7dbf8c14da1e410102207d766eb5c74a367e5a285c7c047fb49fffd0c98df2a4e094ee5905db114e3cf301", "0263f2a3706276ae01424f6d5de96285c5506a4b9f0ee9b66ee95db6cb6a2055c7"], "sequence": 4294967294, "scriptSig": {"hex": "160014ed0518c1a6b3bd5fa366edb96b236a8fe8e4480a", "asm": "0014ed0518c1a6b3bd5fa366edb96b236a8fe8e4480a"}, "vout": 0, "txid": "f5749f930fb2be9632687b865eaa619ba290b7f1d0f73511228dd2bb27fc4b47"}, {"sequence": 4294967294, "scriptSig": {"hex": "47304402202e5cb7f381bcd5b4bce3f8963af625d111026cc2da5918060ae57656d32a6a2f0220707e6151d97ea58fb261b7957b924aee237d344027bda53f02170e69fc1891d4012103a22858fa939c8fb6d681bef79c7a4faac46efd6981ee93e19459ad64ef74ff4d", "asm": "304402202e5cb7f381bcd5b4bce3f8963af625d111026cc2da5918060ae57656d32a6a2f0220707e6151d97ea58fb261b7957b924aee237d344027bda53f02170e69fc1891d4[ALL] 03a22858fa939c8fb6d681bef79c7a4faac46efd6981ee93e19459ad64ef74ff4d"}, "vout": 2, "txid": "bd859d11b04a138ba9c95b3daa57731bc10b8b99b65ef3dd80ebfdd8be07cc99"}, {"txinwitness": ["3045022100d748da2fdce2676636a0ee84e983bbbda213ebe6d4af61606b18947263e008c70220160d043f21b74bcc1d155ea3d18011420e647db7c797941fad075a0f30d3856301", "0212ad92da6645eb0166fdb36f3e0590dfa26f8145d2c1288e77849a0d0736e369"], "sequence": 4294967294, "scriptSig": {"hex": "1600144439a0aa05fcf476363236039843fa1ffd36cbd5", "asm": "00144439a0aa05fcf476363236039843fa1ffd36cbd5"}, "vout": 14, "txid": "eafc448becfa1cdb45b0c9f44eca8fda0042f58b9ca2619a93059e0adf7dddaf"}, {"txinwitness": ["304402204ecb5f79fcbadf84f4c680491b76b23865c80cdf4f5d97d7ef6b40a9e8a9ce0b02207461e87b3fe248a015d11fec2059e19526ae674b2df2b16104b06183c06ae10901", "037ac12d51b254c52570575d583325d5357dffd590c1528d7d460bbdebfdec9773"], "sequence": 4294967294, "scriptSig": {"hex": "160014df24a56a9d06569a47661ffed3c0bf9dc054d3e8", "asm": "0014df24a56a9d06569a47661ffed3c0bf9dc054d3e8"}, "vout": 0, "txid": "b855b541582f02eade4290b83b2d2ecf2c6886cf9d403f607cb7fa23031b98d0"}, {"sequence": 4294967294, "scriptSig": {"hex": "47304402207f964b15457cf2decde20ef6baa2d502bf1b740ee170c9f834b4fffc60c4316c02204f4c307b14778a3f6dcfdd91421b1cce0b3b116efc3a2cd5a35eeb8668a0d32e012102b620faf7c50c3a12b3fd94a4ca891cc722127aed622e32f3771944ea5bb71173", "asm": "304402207f964b15457cf2decde20ef6baa2d502bf1b740ee170c9f834b4fffc60c4316c02204f4c307b14778a3f6dcfdd91421b1cce0b3b116efc3a2cd5a35eeb8668a0d32e[ALL] 02b620faf7c50c3a12b3fd94a4ca891cc722127aed622e32f3771944ea5bb71173"}, "vout": 3, "txid": "e8b79b026317d1c01b9475214f81b61d2275c6f7c665bd05d588a8fdb7bb00d6"}, {"txinwitness": ["3044022010097b2717f9f9c0f196422682536cfc02b1a235a2d865e32f27147b752c00cd02200325b960cb697522d3f9fc7f15409cc08ecb9fd062577a4956ee54b3b94896bc01", "022e4b48312a7b9ba5c5c8de4715def9b891c48a1cd27e3ab05af34c1c376f38de"], "sequence": 4294967294, "scriptSig": {"hex": "160014c15799b3201269ab9153ff89b82025438528af91", "asm": "0014c15799b3201269ab9153ff89b82025438528af91"}, "vout": 1, "txid": "3bf975187b0eaa5311bd2b29d8242b55da49dfb4cb8e0013350e70b7da27d7ea"}], "txid": "dc45954c620a62d2d95f373bc7241d4c9afed28705a2b7b60e758056792a0685", "blocktime": 1537872475, "version": 2, "confirmations": 11486, "time": 1537872475, "locktime": 542994, "vsize": 918, "size": 1404}