{"hash": "5e166f894e2c33df7286249e206132d91298fc8fd77bcf87b9899f472678c3e4", "blockhash": "0000000000000000001f76057863aec43deb6fa401d9628bb513d65a8098bfab", "vout": [{"scriptPubKey": {"reqSigs": 1, "hex": "76a91497898b39417b011d55eeda530d984a4a9b520bdc88ac", "addresses": ["1EpFogSsTbEefyuECmUbKgraUrydrvQ1eD"], "asm": "OP_DUP OP_HASH160 97898b39417b011d55eeda530d984a4a9b520bdc OP_EQUALVERIFY OP_CHECKSIG", "type": "pubkeyhash"}, "value": 0.00641576, "n": 0}], "hex": "01000000000101584b510f1e5e89609a6b11f928e297419e67ca8e2be0660978d0085269b06edb00000000232200200b32f14c837e13b68a32970137f57d593a7051ddca416f99abe29f060178e24dffffffff0128ca0900000000001976a91497898b39417b011d55eeda530d984a4a9b520bdc88ac0400483045022100872ad985e383504251b1812a5eb354ba168e1c1e59d14594e2ee1a0973c0d27d02205c825bb6c49173764d1d8ec588eedf8b04d996c1fcec27ee4e39a44b72bb57930147304402204c40a7cc803b67124a575afc52d3257880d8f3f11e0f461278d812137f54706c022053e1cb6bd985686a4e6bf3e70c6b21cfcf22aa444314ca2dc46c76487aaafdaf0147522102dc99f32596fdccf3ac9abf6fbdfeecd53b42a6cc2cfd71211f9fbd7d65b7c8bc2103f15f0cfb5802314a89ec8ac243ef34ab07a7b427dcd3697af8fe6c1937c38ef252ae00000000", "vin": [{"txinwitness": ["", "3045022100872ad985e383504251b1812a5eb354ba168e1c1e59d14594e2ee1a0973c0d27d02205c825bb6c49173764d1d8ec588eedf8b04d996c1fcec27ee4e39a44b72bb579301", "304402204c40a7cc803b67124a575afc52d3257880d8f3f11e0f461278d812137f54706c022053e1cb6bd985686a4e6bf3e70c6b21cfcf22aa444314ca2dc46c76487aaafdaf01", "522102dc99f32596fdccf3ac9abf6fbdfeecd53b42a6cc2cfd71211f9fbd7d65b7c8bc2103f15f0cfb5802314a89ec8ac243ef34ab07a7b427dcd3697af8fe6c1937c38ef252ae"], "sequence": 4294967295, "scriptSig": {"hex": "2200200b32f14c837e13b68a32970137f57d593a7051ddca416f99abe29f060178e24d", "asm": "00200b32f14c837e13b68a32970137f57d593a7051ddca416f99abe29f060178e24d"}, "vout": 0, "txid": "db6eb0695208d0780966e02b8eca679e4197e228f9116b9a60895e1e0f514b58"}], "txid": "dc54c0f05e663817e016c9fb70cea29aa13dd63b1738d873449e3de6641a4ad7", "blocktime": 1537873891, "version": 1, "confirmations": 11478, "time": 1537873891, "locktime": 0, "vsize": 176, "size": 341}