{"hash": "dc5616602c39bd727d2f4d19322d7b5bcf77d2462a0ff9e655e00a9a6f0aceee", "blockhash": "0000000000000000001f76057863aec43deb6fa401d9628bb513d65a8098bfab", "vout": [{"scriptPubKey": {"reqSigs": 1, "hex": "a914925f1a086552ec76a21e908ca365196e94104d3087", "addresses": ["3F2xWLE7Y44BSskq4ynGV2ioobBycmgZca"], "asm": "OP_HASH160 925f1a086552ec76a21e908ca365196e94104d30 OP_EQUAL", "type": "scripthash"}, "value": 0.02754968, "n": 0}, {"scriptPubKey": {"reqSigs": 1, "hex": "76a914c672ba6abfca67c822b9d730e983e7808d0956d888ac", "addresses": ["1K6JESLkzY7toUfFYHF8QJZE7uqg4pskpz"], "asm": "OP_DUP OP_HASH160 c672ba6abfca67c822b9d730e983e7808d0956d8 OP_EQUALVERIFY OP_CHECKSIG", "type": "pubkeyhash"}, "value": 7.27099666, "n": 1}], "hex": "0100000001626ae3426e25ea247d3dfaec7156836d0d6a8286210a63c4cf83f85400ec9643010000006a4730440220264ddee5aa562abe2e33923a8c4bf64d6df03d3bb6719e20882788b1e00a855e02203ff5d7811d8d100078ef3b614da826f823e24e5cc7d31c219fb998bd54ec005d012102dff173063f5b79ecd67d2062cff65e71b1234c5fc8ee88d9e3e18cc0fe417e52ffffffff0298092a000000000017a914925f1a086552ec76a21e908ca365196e94104d308712a9562b000000001976a914c672ba6abfca67c822b9d730e983e7808d0956d888ac00000000", "vin": [{"sequence": 4294967295, "scriptSig": {"hex": "4730440220264ddee5aa562abe2e33923a8c4bf64d6df03d3bb6719e20882788b1e00a855e02203ff5d7811d8d100078ef3b614da826f823e24e5cc7d31c219fb998bd54ec005d012102dff173063f5b79ecd67d2062cff65e71b1234c5fc8ee88d9e3e18cc0fe417e52", "asm": "30440220264ddee5aa562abe2e33923a8c4bf64d6df03d3bb6719e20882788b1e00a855e02203ff5d7811d8d100078ef3b614da826f823e24e5cc7d31c219fb998bd54ec005d[ALL] 02dff173063f5b79ecd67d2062cff65e71b1234c5fc8ee88d9e3e18cc0fe417e52"}, "vout": 1, "txid": "4396ec0054f883cfc4630a2186826a0d6d835671ecfa3d7d24ea256e42e36a62"}], "txid": "dc5616602c39bd727d2f4d19322d7b5bcf77d2462a0ff9e655e00a9a6f0aceee", "blocktime": 1537873891, "version": 1, "confirmations": 11474, "time": 1537873891, "locktime": 0, "vsize": 223, "size": 223}