{"hash": "ce7f5c37a898a385bed1179f88aea5735adb259a3fbe2148dbb2a1a0ef0c3b13", "blockhash": "0000000000000000001e0dab787dd257d1dbfcb92a98c2207d5e1078be1f4165", "vout": [{"scriptPubKey": {"reqSigs": 1, "hex": "76a914ab7d89515b12a412825b7c3ac04b9e567c638f1288ac", "addresses": ["1GdkwE3JtNguW28zkpwuz26cFxCEQH8z88"], "asm": "OP_DUP OP_HASH160 ab7d89515b12a412825b7c3ac04b9e567c638f12 OP_EQUALVERIFY OP_CHECKSIG", "type": "pubkeyhash"}, "value": 0.0079395, "n": 0}, {"scriptPubKey": {"reqSigs": 1, "hex": "a9145671c228e3009cc7ed2852320e284a71a3140ea987", "addresses": ["39a6K7g8eBBx7rAmqF24JWXomkogMreLhV"], "asm": "OP_HASH160 5671c228e3009cc7ed2852320e284a71a3140ea9 OP_EQUAL", "type": "scripthash"}, "value": 0.4920269, "n": 1}], "hex": "02000000000101548067df3bb8ca0ccee139bea8b90ac49ba6991528f22027e29ad36eb596251201000000171600141b63f5f6d45c55f073e865b1debfba850a9a7ef4fdffffff025e1d0c00000000001976a914ab7d89515b12a412825b7c3ac04b9e567c638f1288ac02c6ee020000000017a9145671c228e3009cc7ed2852320e284a71a3140ea987024730440220311f2d62fc54ed363cbebf19316451d81bd5b0906122546cabb4f5c4c28b4ad5022024c1eabe85be4c91d55b0f0a65f69394253263cc5f3b8d144ac7df7aebdc707d012103372e4ecfb64b8f3e7040a658c56d25fc5f3c7806ce7bdb5238879de81206851712490800", "vin": [{"txinwitness": ["30440220311f2d62fc54ed363cbebf19316451d81bd5b0906122546cabb4f5c4c28b4ad5022024c1eabe85be4c91d55b0f0a65f69394253263cc5f3b8d144ac7df7aebdc707d01", "03372e4ecfb64b8f3e7040a658c56d25fc5f3c7806ce7bdb5238879de812068517"], "sequence": 4294967293, "scriptSig": {"hex": "1600141b63f5f6d45c55f073e865b1debfba850a9a7ef4", "asm": "00141b63f5f6d45c55f073e865b1debfba850a9a7ef4"}, "vout": 1, "txid": "122596b56ed39ae22720f2281599a69bc40ab9a8be39e1ce0ccab83bdf678054"}], "txid": "dc5a9c8adf532ca065dd01afb0cacfdaf043d9f9428966958cef22ca04ff101d", "blocktime": 1537872475, "version": 2, "confirmations": 11486, "time": 1537872475, "locktime": 542994, "vsize": 168, "size": 249}