{"hash": "57c54e4bdd56990bae7e81eb9a5cc61c00317944ffa2d91709430d8716d834a0", "blockhash": "0000000000000000001cda96e906b7601b7a6fb1a3b62bca570a9e5d8f4b3de1", "vout": [{"scriptPubKey": {"reqSigs": 1, "hex": "a9141d3db91e516454a79f947e9abbbda8ea177e441987", "addresses": ["34MdThoaivfMS2zgHQKg59N8oE5M9BrdTX"], "asm": "OP_HASH160 1d3db91e516454a79f947e9abbbda8ea177e4419 OP_EQUAL", "type": "scripthash"}, "value": 0.00999089, "n": 0}, {"scriptPubKey": {"reqSigs": 1, "hex": "76a914b7be3e452735ba040850819d430ff8818ce1965488ac", "addresses": ["1HkYZSMkNV4ywdVnqj7msXkFFFCEFc9CtV"], "asm": "OP_DUP OP_HASH160 b7be3e452735ba040850819d430ff8818ce19654 OP_EQUALVERIFY OP_CHECKSIG", "type": "pubkeyhash"}, "value": 0.0051276, "n": 1}], "hex": "020000000001022c51dc78d580f468cec89dd9cabeb4ecd00a286da3fcbacba1899ce0a48141610100000017160014040af01207ad4993f1dd80bf3ee3e6a66c17df65feffffff2cae9cb5938b2d9dab35c6ab13c7e30c6bdc6caaa966f9f1d70f0bb262c4a8960300000017160014e28c9e665a77170f4eeb0fceb5ea85f65acca836feffffff02b13e0f000000000017a9141d3db91e516454a79f947e9abbbda8ea177e441987f8d20700000000001976a914b7be3e452735ba040850819d430ff8818ce1965488ac02473044022027dbc7281a3d1ff618d771948e611e708345bfa42ea8cfbc325ce9c114b2ab5d022008ba172684a28085565925f110397e8e1ff1022ec6fd2505c7cacf8e331bfbba01210340d417749f163554994db96e37f41d62053a4729fb21f620155ec62f7d19f6a502483045022100b6f2f2a26d4f26f1d0342f9966e2bc21b87c26bad7d69b39410dbee723af7b0e02205576e8ad94f068c808631a504809470724d3f3c831808a374794a6ee913fcb20012102b2e3ef2e50ceded87c86bfc0d405f9df0c240010b74897f55c6525426004d4e713490800", "vin": [{"txinwitness": ["3044022027dbc7281a3d1ff618d771948e611e708345bfa42ea8cfbc325ce9c114b2ab5d022008ba172684a28085565925f110397e8e1ff1022ec6fd2505c7cacf8e331bfbba01", "0340d417749f163554994db96e37f41d62053a4729fb21f620155ec62f7d19f6a5"], "sequence": 4294967294, "scriptSig": {"hex": "160014040af01207ad4993f1dd80bf3ee3e6a66c17df65", "asm": "0014040af01207ad4993f1dd80bf3ee3e6a66c17df65"}, "vout": 1, "txid": "614181a4e09c89a1cbbafca36d280ad0ecb4becad99dc8ce68f480d578dc512c"}, {"txinwitness": ["3045022100b6f2f2a26d4f26f1d0342f9966e2bc21b87c26bad7d69b39410dbee723af7b0e02205576e8ad94f068c808631a504809470724d3f3c831808a374794a6ee913fcb2001", "02b2e3ef2e50ceded87c86bfc0d405f9df0c240010b74897f55c6525426004d4e7"], "sequence": 4294967294, "scriptSig": {"hex": "160014e28c9e665a77170f4eeb0fceb5ea85f65acca836", "asm": "0014e28c9e665a77170f4eeb0fceb5ea85f65acca836"}, "vout": 3, "txid": "96a8c462b20b0fd7f1f966a9aa6cdc6b0ce3c713abc635ab9d2d8b93b59cae2c"}], "txid": "dc5cb606e056077f138c6c244968116b63983889f634402a07fe3d394ce8bfd5", "blocktime": 1537873282, "version": 2, "confirmations": 11484, "time": 1537873282, "locktime": 542995, "vsize": 259, "size": 421}