{"hash": "6880de6697b1d817f43931b6ae59477954c4b4612f96a7c1088756fd1f23c1de", "blockhash": "0000000000000000001cda96e906b7601b7a6fb1a3b62bca570a9e5d8f4b3de1", "vout": [{"scriptPubKey": {"reqSigs": 1, "hex": "a9149eb7e940accc6ce19f78e7d3eebc617e82ab9e7d87", "addresses": ["3GAF1Du7Kh1YBo19H3LKqdTL31eL7sbuyu"], "asm": "OP_HASH160 9eb7e940accc6ce19f78e7d3eebc617e82ab9e7d OP_EQUAL", "type": "scripthash"}, "value": 1.0, "n": 0}, {"scriptPubKey": {"reqSigs": 1, "hex": "76a91458d729915bd1a9644ea2b0775a84637cbba9032788ac", "addresses": ["196kDdFFcKVbaEUWzhxC5H6zCGrQZnbDAw"], "asm": "OP_DUP OP_HASH160 58d729915bd1a9644ea2b0775a84637cbba90327 OP_EQUALVERIFY OP_CHECKSIG", "type": "pubkeyhash"}, "value": 0.02894485, "n": 1}, {"scriptPubKey": {"reqSigs": 1, "hex": "a91497a3fe3184e226e5ba0077a6d4636235146b7e3587", "addresses": ["3FWpQwT3FmH1toRxQsN4HbinVSHz5yeSXd"], "asm": "OP_HASH160 97a3fe3184e226e5ba0077a6d4636235146b7e35 OP_EQUAL", "type": "scripthash"}, "value": 0.31219228, "n": 2}, {"scriptPubKey": {"reqSigs": 1, "hex": "a9145e4633215c0ad33fa5ff61924087cc30bf5a5fc687", "addresses": ["3AHVY8yrq26SPVLZHSjUcJZ28L6KdFvw1r"], "asm": "OP_HASH160 5e4633215c0ad33fa5ff61924087cc30bf5a5fc6 OP_EQUAL", "type": "scripthash"}, "value": 0.0550781, "n": 3}, {"scriptPubKey": {"reqSigs": 1, "hex": "a914ac08805c4c24faa484bf5f7192ddae0f0ce6d4e787", "addresses": ["3HNeLE7Bmn4kHeeGwVDunrfw37tz3MtAsM"], "asm": "OP_HASH160 ac08805c4c24faa484bf5f7192ddae0f0ce6d4e7 OP_EQUAL", "type": "scripthash"}, "value": 0.02570786, "n": 4}, {"scriptPubKey": {"reqSigs": 1, "hex": "76a9148d156f8a93d518f14bea54bd76beb1f6ef1b9fe988ac", "addresses": ["1DryxRn8vXywAaKtoFd14G1MgLs3Vuiz4C"], "asm": "OP_DUP OP_HASH160 8d156f8a93d518f14bea54bd76beb1f6ef1b9fe9 OP_EQUALVERIFY OP_CHECKSIG", "type": "pubkeyhash"}, "value": 0.00237551, "n": 5}, {"scriptPubKey": {"reqSigs": 1, "hex": "a91478549276498f4bfd5c085acf6d2523f5a283db2c87", "addresses": ["3CfGKjhzJ7JzNyXhFmsJ7KzuJZC1CyJonx"], "asm": "OP_HASH160 78549276498f4bfd5c085acf6d2523f5a283db2c OP_EQUAL", "type": "scripthash"}, "value": 0.00817625, "n": 6}, {"scriptPubKey": {"reqSigs": 1, "hex": "a914f86dcf3f3fd772e5ef57e1f399df31e591e3d87287", "addresses": ["3QLb3pVQSUHiLmqnxxDk1reKegdcCnsJH2"], "asm": "OP_HASH160 f86dcf3f3fd772e5ef57e1f399df31e591e3d872 OP_EQUAL", "type": "scripthash"}, "value": 0.00202295, "n": 7}, {"scriptPubKey": {"reqSigs": 1, "hex": "a91466548f8b023c8bf193bd4b52e92e32fa8896084a87", "addresses": ["3B269VV6Y5C7BagEBiMcotv3N3oaVj7g85"], "asm": "OP_HASH160 66548f8b023c8bf193bd4b52e92e32fa8896084a OP_EQUAL", "type": "scripthash"}, "value": 0.00407, "n": 8}, {"scriptPubKey": {"reqSigs": 1, "hex": "76a914d0abca8fc6b51e252561eb3cc3a0f7f0894b0d7c88ac", "addresses": ["1L2MMAf2LP6EVg5QLUoBPMSgkJYQcsriSX"], "asm": "OP_DUP OP_HASH160 d0abca8fc6b51e252561eb3cc3a0f7f0894b0d7c OP_EQUALVERIFY OP_CHECKSIG", "type": "pubkeyhash"}, "value": 0.00265474, "n": 9}], "hex": "01000000000105752f5f2d7a72afe0ed0029d8bd71185085f9f5e6ea44047e6a2e16c72221c9d51500000023220020a84e38ce21d72efcd05cd69ec3b6f8aa09a1d62c6dc75b7cc5afbfc39b913febffffffffdaa74590590bfcdcc662465cd83d89f6e26c3088c2f388deccc74ba2130ee88606000000fdfd0000483045022100cc9852cc839411ee05062f91c1205df559b838fc45998645e890217d9f065f6c02200fe24ecbad69578614c8d66b54e1a1c68e8188bfe7c589f7ff686053d6c3410301473044022040292d354513fa1f55b3316efb7cdc9bd1cbf33bd76388205782acc4be4957da02205938c580ad95f75424c97f169177d345c271ef217cb7d1c6904dcad2e3794112014c695221021579caf66fd10bba41f206612d8a0cfe8143e7e50679384bf4bc707a787052a821035fc492224627a5e001fb704d8a5e024332697d46dc0a4e034eb252b9d5d30ad32103ffe28f0775189605f769074663bd63e8cfe51791b6a0032c5f5442ebc299a7b253aeffffffffee358c343868b59cf4905553dcf91d48d0b5b8d754ca84ad2ed97d2174f246020000000023220020a13570969a857d578f5a3c9d7611ba0bd7c8379dde9518f71d8c9b807b11bb0bffffffffae8675e5c811b2c52666ab384c0d42fb0d02c3fb75cb975908bd82baa842dc0f01000000fdfe0000483045022100dc3d5d6576d07983f8103d73f7745828ca82fbaeb9ed655eef74074d951ab4d702200c90260ddfbfa66a98eeb5066765df3452548f4c125462ce0cf13a7abffb8c1901483045022100f6768e2e7eed923b5ef9f617314af391109fcabef21b78accb542fd6f6b7160c02204d39306b3ce2eccf6d235d0c20080e0a4c82e9ea7d1783f6bd47ba9ea472448d014c69522102ac03be530acbe3f6d876ef9722348824f97a67e5b5fb81143a002be2afdbaad321030f32b1b177037f165a24013d7eecb43eeb20a6beae7bf42c3bf1375a2fbc172421023ba6dcf48d7f3909f8398ca6713332194b7cc47820f54060ad67522cddf99df853aeffffffff948c4ba9977584325d7ed94de8e7aaa45ef38617d540195504ca2fe5317761b100000000232200208a02a98b27e593bdf1b7424cdb025ecbf2899c3c0c8c0c3dc2b6f69fcac20544ffffffff0a00e1f5050000000017a9149eb7e940accc6ce19f78e7d3eebc617e82ab9e7d87952a2c00000000001976a91458d729915bd1a9644ea2b0775a84637cbba9032788ac1c5edc010000000017a91497a3fe3184e226e5ba0077a6d4636235146b7e3587e20a54000000000017a9145e4633215c0ad33fa5ff61924087cc30bf5a5fc687223a27000000000017a914ac08805c4c24faa484bf5f7192ddae0f0ce6d4e787ef9f0300000000001976a9148d156f8a93d518f14bea54bd76beb1f6ef1b9fe988acd9790c000000000017a91478549276498f4bfd5c085acf6d2523f5a283db2c87371603000000000017a914f86dcf3f3fd772e5ef57e1f399df31e591e3d87287d83506000000000017a91466548f8b023c8bf193bd4b52e92e32fa8896084a87020d0400000000001976a914d0abca8fc6b51e252561eb3cc3a0f7f0894b0d7c88ac0400483045022100b2e5f645fa351b1604c866f212426ee504aeea23e1c06b1e7a087d6bee5f8440022073bb5218e1d35ffab363e46abbf0514922c02874e62ea06401effdf5bbb0676e0147304402204ee026076316c4579a1c99f3976c3d973f4bdf094b5ac54c78b889eaf433339c022056f8aa232ed280018798ece89eb4239eca97c551213588ba0296186fa9c7c74801695221035b11a2db13647d45d3a9ae5085a193bb421bdfd98b63b07c9128bdbf55b85eac21029e64837a4922cb098cc09541cce8f3d1d9ae16d430fe5aafe473e1d0a4b86ddd2102aec547065b8ce1ebd0d52bbe33938ded373242d8fc6f6b0efb89ca3a7487049353ae000400483045022100c5d9996aa73a99a3e3c38343278ad0c6cd6276a8c1f21f9ec4aa7ef59e48bb1602201b9f2427f87ecb165a1225815f66f81554aba5f08088a642d266d6e9cd1fbe9f014830450221009d6fae0746d81113e6becf4ebbcfa915e235422f9aa0eed49485d5beb91c830e02207003bad4ad23ab697304704fa4f1e4ca2cffc9e2c6425e60c9dffd44b55d72f5016952210263671610b14ac87fedf8cbd483c10005b14a52e50b01d55ebfebff0e5c0923fd2102250ff037104e56d75ff52d2ae068d8009bae7f0a93395dbb4fb614811ca59dd421025d20fdd73f7bd4321cdca5389fb281dfcfbd2c9eda62b93c39ff5c53943d571d53ae000400483045022100d87718a33a3c55f196f7a24ebeb46dbcb9d1188b72ef9919b1de89c2ba999dfd022004fcc76ade35887c3b35a62e6a8c2213b07f3f87a4ac76622a2316b97e1be0210147304402206fe03cf85cf444d205d9f292b6831e8c2f0543b0ee02845dc8b81e8a1176b0cf02206d118a45b0f12235a31440f36c6cfc9bed89d1b46b1e21c0a7375619458a6b26016952210241a7ee33796f9ebfa1502af65377cc9b2950ba47acdae306a2ecaad6ab1f57912102489d3eeb8c1513155ccfae2934e35b578708acfc421449a6d747184706aa9bfa21029129a2d4f7ac0b7e81efc8442e49e43b6474f02274c7ffc111ac625da594173c53ae00000000", "vin": [{"txinwitness": ["", "3045022100b2e5f645fa351b1604c866f212426ee504aeea23e1c06b1e7a087d6bee5f8440022073bb5218e1d35ffab363e46abbf0514922c02874e62ea06401effdf5bbb0676e01", "304402204ee026076316c4579a1c99f3976c3d973f4bdf094b5ac54c78b889eaf433339c022056f8aa232ed280018798ece89eb4239eca97c551213588ba0296186fa9c7c74801", "5221035b11a2db13647d45d3a9ae5085a193bb421bdfd98b63b07c9128bdbf55b85eac21029e64837a4922cb098cc09541cce8f3d1d9ae16d430fe5aafe473e1d0a4b86ddd2102aec547065b8ce1ebd0d52bbe33938ded373242d8fc6f6b0efb89ca3a7487049353ae"], "sequence": 4294967295, "scriptSig": {"hex": "220020a84e38ce21d72efcd05cd69ec3b6f8aa09a1d62c6dc75b7cc5afbfc39b913feb", "asm": "0020a84e38ce21d72efcd05cd69ec3b6f8aa09a1d62c6dc75b7cc5afbfc39b913feb"}, "vout": 21, "txid": "d5c92122c7162e6a7e0444eae6f5f985501871bdd82900ede0af727a2d5f2f75"}, {"sequence": 4294967295, "scriptSig": {"hex": "00483045022100cc9852cc839411ee05062f91c1205df559b838fc45998645e890217d9f065f6c02200fe24ecbad69578614c8d66b54e1a1c68e8188bfe7c589f7ff686053d6c3410301473044022040292d354513fa1f55b3316efb7cdc9bd1cbf33bd76388205782acc4be4957da02205938c580ad95f75424c97f169177d345c271ef217cb7d1c6904dcad2e3794112014c695221021579caf66fd10bba41f206612d8a0cfe8143e7e50679384bf4bc707a787052a821035fc492224627a5e001fb704d8a5e024332697d46dc0a4e034eb252b9d5d30ad32103ffe28f0775189605f769074663bd63e8cfe51791b6a0032c5f5442ebc299a7b253ae", "asm": "0 3045022100cc9852cc839411ee05062f91c1205df559b838fc45998645e890217d9f065f6c02200fe24ecbad69578614c8d66b54e1a1c68e8188bfe7c589f7ff686053d6c34103[ALL] 3044022040292d354513fa1f55b3316efb7cdc9bd1cbf33bd76388205782acc4be4957da02205938c580ad95f75424c97f169177d345c271ef217cb7d1c6904dcad2e3794112[ALL] 5221021579caf66fd10bba41f206612d8a0cfe8143e7e50679384bf4bc707a787052a821035fc492224627a5e001fb704d8a5e024332697d46dc0a4e034eb252b9d5d30ad32103ffe28f0775189605f769074663bd63e8cfe51791b6a0032c5f5442ebc299a7b253ae"}, "vout": 6, "txid": "86e80e13a24bc7ccde88f3c288306ce2f6893dd85c4662c6dcfc0b599045a7da"}, {"txinwitness": ["", "3045022100c5d9996aa73a99a3e3c38343278ad0c6cd6276a8c1f21f9ec4aa7ef59e48bb1602201b9f2427f87ecb165a1225815f66f81554aba5f08088a642d266d6e9cd1fbe9f01", "30450221009d6fae0746d81113e6becf4ebbcfa915e235422f9aa0eed49485d5beb91c830e02207003bad4ad23ab697304704fa4f1e4ca2cffc9e2c6425e60c9dffd44b55d72f501", "52210263671610b14ac87fedf8cbd483c10005b14a52e50b01d55ebfebff0e5c0923fd2102250ff037104e56d75ff52d2ae068d8009bae7f0a93395dbb4fb614811ca59dd421025d20fdd73f7bd4321cdca5389fb281dfcfbd2c9eda62b93c39ff5c53943d571d53ae"], "sequence": 4294967295, "scriptSig": {"hex": "220020a13570969a857d578f5a3c9d7611ba0bd7c8379dde9518f71d8c9b807b11bb0b", "asm": "0020a13570969a857d578f5a3c9d7611ba0bd7c8379dde9518f71d8c9b807b11bb0b"}, "vout": 0, "txid": "0246f274217dd92ead84ca54d7b8b5d0481df9dc535590f49cb56838348c35ee"}, {"sequence": 4294967295, "scriptSig": {"hex": "00483045022100dc3d5d6576d07983f8103d73f7745828ca82fbaeb9ed655eef74074d951ab4d702200c90260ddfbfa66a98eeb5066765df3452548f4c125462ce0cf13a7abffb8c1901483045022100f6768e2e7eed923b5ef9f617314af391109fcabef21b78accb542fd6f6b7160c02204d39306b3ce2eccf6d235d0c20080e0a4c82e9ea7d1783f6bd47ba9ea472448d014c69522102ac03be530acbe3f6d876ef9722348824f97a67e5b5fb81143a002be2afdbaad321030f32b1b177037f165a24013d7eecb43eeb20a6beae7bf42c3bf1375a2fbc172421023ba6dcf48d7f3909f8398ca6713332194b7cc47820f54060ad67522cddf99df853ae", "asm": "0 3045022100dc3d5d6576d07983f8103d73f7745828ca82fbaeb9ed655eef74074d951ab4d702200c90260ddfbfa66a98eeb5066765df3452548f4c125462ce0cf13a7abffb8c19[ALL] 3045022100f6768e2e7eed923b5ef9f617314af391109fcabef21b78accb542fd6f6b7160c02204d39306b3ce2eccf6d235d0c20080e0a4c82e9ea7d1783f6bd47ba9ea472448d[ALL] 522102ac03be530acbe3f6d876ef9722348824f97a67e5b5fb81143a002be2afdbaad321030f32b1b177037f165a24013d7eecb43eeb20a6beae7bf42c3bf1375a2fbc172421023ba6dcf48d7f3909f8398ca6713332194b7cc47820f54060ad67522cddf99df853ae"}, "vout": 1, "txid": "0fdc42a8ba82bd085997cb75fbc3020dfb420d4c38ab6626c5b211c8e57586ae"}, {"txinwitness": ["", "3045022100d87718a33a3c55f196f7a24ebeb46dbcb9d1188b72ef9919b1de89c2ba999dfd022004fcc76ade35887c3b35a62e6a8c2213b07f3f87a4ac76622a2316b97e1be02101", "304402206fe03cf85cf444d205d9f292b6831e8c2f0543b0ee02845dc8b81e8a1176b0cf02206d118a45b0f12235a31440f36c6cfc9bed89d1b46b1e21c0a7375619458a6b2601", "52210241a7ee33796f9ebfa1502af65377cc9b2950ba47acdae306a2ecaad6ab1f57912102489d3eeb8c1513155ccfae2934e35b578708acfc421449a6d747184706aa9bfa21029129a2d4f7ac0b7e81efc8442e49e43b6474f02274c7ffc111ac625da594173c53ae"], "sequence": 4294967295, "scriptSig": {"hex": "2200208a02a98b27e593bdf1b7424cdb025ecbf2899c3c0c8c0c3dc2b6f69fcac20544", "asm": "00208a02a98b27e593bdf1b7424cdb025ecbf2899c3c0c8c0c3dc2b6f69fcac20544"}, "vout": 0, "txid": "b1617731e52fca04551940d51786f35ea4aae7e84dd97e5d32847597a94b8c94"}], "txid": "dc6193e40c5e720084504b11517c971a507d77438fa59c89d2ad358ed588f775", "blocktime": 1537873282, "version": 1, "confirmations": 11484, "time": 1537873282, "locktime": 0, "vsize": 1348, "size": 1921}