{"hash": "dc63b55a38e969be2b16ddb5b5d16fe1e81a1c84aaf0d00083dd65e7137ad1cd", "blockhash": "0000000000000000001e0dab787dd257d1dbfcb92a98c2207d5e1078be1f4165", "vout": [{"scriptPubKey": {"reqSigs": 1, "hex": "76a914679fecda094f234ec6ffbf713f42a4055df5590888ac", "addresses": ["1ASvBZGdHFoRoSyFRpek8HJhBtaG9bGZmo"], "asm": "OP_DUP OP_HASH160 679fecda094f234ec6ffbf713f42a4055df55908 OP_EQUALVERIFY OP_CHECKSIG", "type": "pubkeyhash"}, "value": 0.0047645, "n": 0}, {"scriptPubKey": {"reqSigs": 1, "hex": "76a914546535b4354890fa7d355f4e1c9910c14568329b88ac", "addresses": ["18hF1HyP5NiX8eZmQ3jT3Ui7yvBGyD6F4R"], "asm": "OP_DUP OP_HASH160 546535b4354890fa7d355f4e1c9910c14568329b OP_EQUALVERIFY OP_CHECKSIG", "type": "pubkeyhash"}, "value": 0.56800552, "n": 1}], "hex": "010000000159b852fbcc5dbb4486abd1c6d4e6e7f668cff38574e486f6be9138fb54ebb342010000006a47304402202c279260d9e40c66f22ff1a97a1aa6d726d473c33a3d143fa19f9ac9c37fa47d022076fb5adbd4b5fb12ff4a1cda144446b6529520c9e8bf0945d4570de73ee8a66101210387a49b5d3e0789fd93c17631f04da60e804b0a55bf6ccb00d4471f26167bececffffffff0222450700000000001976a914679fecda094f234ec6ffbf713f42a4055df5590888ac28b56203000000001976a914546535b4354890fa7d355f4e1c9910c14568329b88ac00000000", "vin": [{"sequence": 4294967295, "scriptSig": {"hex": "47304402202c279260d9e40c66f22ff1a97a1aa6d726d473c33a3d143fa19f9ac9c37fa47d022076fb5adbd4b5fb12ff4a1cda144446b6529520c9e8bf0945d4570de73ee8a66101210387a49b5d3e0789fd93c17631f04da60e804b0a55bf6ccb00d4471f26167becec", "asm": "304402202c279260d9e40c66f22ff1a97a1aa6d726d473c33a3d143fa19f9ac9c37fa47d022076fb5adbd4b5fb12ff4a1cda144446b6529520c9e8bf0945d4570de73ee8a661[ALL] 0387a49b5d3e0789fd93c17631f04da60e804b0a55bf6ccb00d4471f26167becec"}, "vout": 1, "txid": "42b3eb54fb3891bef686e47485f3cf68f6e7e6d4c6d1ab8644bb5dccfb52b859"}], "txid": "dc63b55a38e969be2b16ddb5b5d16fe1e81a1c84aaf0d00083dd65e7137ad1cd", "blocktime": 1537872475, "version": 1, "confirmations": 11486, "time": 1537872475, "locktime": 0, "vsize": 225, "size": 225}