{"hash": "dc6de137e36d1d95b3db782831d09aba31e45977c5aa8cae09b216c32d7ca341", "blockhash": "0000000000000000001e0dab787dd257d1dbfcb92a98c2207d5e1078be1f4165", "vout": [{"scriptPubKey": {"reqSigs": 1, "hex": "76a914ebe38d4df1f34957a63ba006e9a7efedacba71df88ac", "addresses": ["1NWGPfkyRZJ4jRb3i8yWuHb5D5BRoATfTc"], "asm": "OP_DUP OP_HASH160 ebe38d4df1f34957a63ba006e9a7efedacba71df OP_EQUALVERIFY OP_CHECKSIG", "type": "pubkeyhash"}, "value": 0.10029775, "n": 0}, {"scriptPubKey": {"reqSigs": 1, "hex": "a91492c059827ccec623a84a2a067d0a61ae04adfea287", "addresses": ["3F4y1EoYXgUsezWcCMfhidSSA9uRcDdXnH"], "asm": "OP_HASH160 92c059827ccec623a84a2a067d0a61ae04adfea2 OP_EQUAL", "type": "scripthash"}, "value": 0.3, "n": 1}], "hex": "0100000001028f8bbb45b7157655640da6f323ada39474a7d7c271279d4c323fbe80b06dfa000000006a47304402207ae02f613045c53cb28eb957df8a0ccc05c5242ab20c9af26c2dd667df0c4bbb02205848fd178a3d0bb9dd4abd623c2750c65b6af5ae707be4c2f13ba4d4149492b8012102f705e99ae90d5ca419a8ac8d7f84c547fe1ea5abfafbafd96bc8a89dad5dd0c9ffffffff02cf0a9900000000001976a914ebe38d4df1f34957a63ba006e9a7efedacba71df88ac80c3c9010000000017a91492c059827ccec623a84a2a067d0a61ae04adfea28700000000", "vin": [{"sequence": 4294967295, "scriptSig": {"hex": "47304402207ae02f613045c53cb28eb957df8a0ccc05c5242ab20c9af26c2dd667df0c4bbb02205848fd178a3d0bb9dd4abd623c2750c65b6af5ae707be4c2f13ba4d4149492b8012102f705e99ae90d5ca419a8ac8d7f84c547fe1ea5abfafbafd96bc8a89dad5dd0c9", "asm": "304402207ae02f613045c53cb28eb957df8a0ccc05c5242ab20c9af26c2dd667df0c4bbb02205848fd178a3d0bb9dd4abd623c2750c65b6af5ae707be4c2f13ba4d4149492b8[ALL] 02f705e99ae90d5ca419a8ac8d7f84c547fe1ea5abfafbafd96bc8a89dad5dd0c9"}, "vout": 0, "txid": "fa6db080be3f324c9d2771c2d7a77494a3ad23f3a60d64557615b745bb8b8f02"}], "txid": "dc6de137e36d1d95b3db782831d09aba31e45977c5aa8cae09b216c32d7ca341", "blocktime": 1537872475, "version": 1, "confirmations": 11486, "time": 1537872475, "locktime": 0, "vsize": 223, "size": 223}