{"hash": "6ea4608e804fb1b16a389f564a369eb7c1f5cd606b2d32404cf4c1c1edca55bd", "blockhash": "000000000000000000022b45ed06c6f4ccd3cf7fb5ba4856ebd2e58215665228", "vout": [{"scriptPubKey": {"reqSigs": 1, "hex": "a914e3a816c0eef74cfe9a06cfe4ce82a2319c9cd0a787", "addresses": ["3NSkg7Ja48jTpPuGppLpNLF2cMfRpYoyB6"], "asm": "OP_HASH160 e3a816c0eef74cfe9a06cfe4ce82a2319c9cd0a7 OP_EQUAL", "type": "scripthash"}, "value": 0.005, "n": 0}, {"scriptPubKey": {"reqSigs": 1, "hex": "a9149e563bc564fc71192d97bd4f0b62522209654d8687", "addresses": ["3G8DzTeWWeYmHEoG8CQLDZETuPH4LRnPPj"], "asm": "OP_HASH160 9e563bc564fc71192d97bd4f0b62522209654d86 OP_EQUAL", "type": "scripthash"}, "value": 0.31382117, "n": 1}, {"scriptPubKey": {"reqSigs": 1, "hex": "a914b5e80b5b4fa24cd55909f9f027b5afe288c7b71187", "addresses": ["3JGrCzNZdWUshJjySHmQDQDwBEa69SHYWG"], "asm": "OP_HASH160 b5e80b5b4fa24cd55909f9f027b5afe288c7b711 OP_EQUAL", "type": "scripthash"}, "value": 0.00267, "n": 2}], "hex": "010000000001011d16c82e6af556ccc9c3489e7c60f337be00e2273320eaf63e6b953a0ffd626b0200000023220020748ed600903d6afd6f3c03f617155225bedf930f34671db93dd8ee60934502bdffffffff0320a107000000000017a914e3a816c0eef74cfe9a06cfe4ce82a2319c9cd0a78765dade010000000017a9149e563bc564fc71192d97bd4f0b62522209654d8687f81204000000000017a914b5e80b5b4fa24cd55909f9f027b5afe288c7b711870400473044022049a6cf71dadb554cb2348ab8e6e4caa8fa876a178eb4b6ff0b1b4e3053cc4c4b02202fa8d82d50ee4108702171f022e0ecf9ba95c8a1eac320ecdfc4ce2c899406620147304402204acbe85a6c18c4f6d2438de6fcb5e4d77686993f5d8ee88b264a3e0773d8be1a02206f16720bf97ae992056ec90ff1f7fb081d1bd2e78f5415db58245018211d00370169522103e021ef1b32f01448c425301530a1b52f2a18eee47347f37403585be196f582152102bfa3053f1a66055f8c29a9fee02a657e3cb88fc5f0b2cd8c1c56be8ecc7c49542102ea9e9dbdd9e77cb33d0ac82f0b05d1061caaf694dd4b8b1a744443c5cc60ef3253ae00000000", "vin": [{"txinwitness": ["", "3044022049a6cf71dadb554cb2348ab8e6e4caa8fa876a178eb4b6ff0b1b4e3053cc4c4b02202fa8d82d50ee4108702171f022e0ecf9ba95c8a1eac320ecdfc4ce2c8994066201", "304402204acbe85a6c18c4f6d2438de6fcb5e4d77686993f5d8ee88b264a3e0773d8be1a02206f16720bf97ae992056ec90ff1f7fb081d1bd2e78f5415db58245018211d003701", "522103e021ef1b32f01448c425301530a1b52f2a18eee47347f37403585be196f582152102bfa3053f1a66055f8c29a9fee02a657e3cb88fc5f0b2cd8c1c56be8ecc7c49542102ea9e9dbdd9e77cb33d0ac82f0b05d1061caaf694dd4b8b1a744443c5cc60ef3253ae"], "sequence": 4294967295, "scriptSig": {"hex": "220020748ed600903d6afd6f3c03f617155225bedf930f34671db93dd8ee60934502bd", "asm": "0020748ed600903d6afd6f3c03f617155225bedf930f34671db93dd8ee60934502bd"}, "vout": 2, "txid": "6b62fd0f3a956b3ef6ea203327e200be37f3607c9e48c3c9cc56f56a2ec8161d"}], "txid": "dc7153bd0379bf195c4e801a1f07b092c475e85b58806f31fa8acdfc319a245f", "blocktime": 1537869901, "version": 1, "confirmations": 11523, "time": 1537869901, "locktime": 0, "vsize": 246, "size": 436}