{"hash": "dc72fdd9a00445cb2d4c69ab71b6625b0b2159a03b72de622aa235e4df68065f", "blockhash": "00000000000000000017f5eb5941039fbcee6240d03bc1f2f8e35350df66a1d8", "vout": [{"scriptPubKey": {"type": "nulldata", "hex": "6a4c50000077fe0001a423e6d10f55c2ff27e7ee67d19ed074892d00f8e87af8e8e963c7cfd5b9471402dbd1898d20170305f05e061da35baa19a90613d4f52767aefd1d100759d4ba30d2c37bb011d97e02cf", "asm": "OP_RETURN 000077fe0001a423e6d10f55c2ff27e7ee67d19ed074892d00f8e87af8e8e963c7cfd5b9471402dbd1898d20170305f05e061da35baa19a90613d4f52767aefd1d100759d4ba30d2c37bb011d97e02cf"}, "value": 0.0, "n": 0}, {"scriptPubKey": {"reqSigs": 1, "hex": "76a9143d6d5a7948565a8b15e5806e860e18f17c3e15ac88ac", "addresses": ["16boDiBSpsQYqnd24kV17ShyHXURGcb89r"], "asm": "OP_DUP OP_HASH160 3d6d5a7948565a8b15e5806e860e18f17c3e15ac OP_EQUALVERIFY OP_CHECKSIG", "type": "pubkeyhash"}, "value": 0.00632587, "n": 1}], "hex": "0100000001ce163da26469e75e2d7632b073590816590a97416d105ac40108521132512b6a010000006a47304402202c12db11ea4600720291af7783099573fec9bf0daadd1ce01907bf8aad24f29602200ea275a5969ae023e2627f7452bd97f4490805e28f66426cf71275cb537f1906012102d3f12641750de48acf51a7857735c11be5c8e9c79a83441c522dd09136a85f9cffffffff020000000000000000536a4c50000077fe0001a423e6d10f55c2ff27e7ee67d19ed074892d00f8e87af8e8e963c7cfd5b9471402dbd1898d20170305f05e061da35baa19a90613d4f52767aefd1d100759d4ba30d2c37bb011d97e02cf0ba70900000000001976a9143d6d5a7948565a8b15e5806e860e18f17c3e15ac88ac00000000", "vin": [{"sequence": 4294967295, "scriptSig": {"hex": "47304402202c12db11ea4600720291af7783099573fec9bf0daadd1ce01907bf8aad24f29602200ea275a5969ae023e2627f7452bd97f4490805e28f66426cf71275cb537f1906012102d3f12641750de48acf51a7857735c11be5c8e9c79a83441c522dd09136a85f9c", "asm": "304402202c12db11ea4600720291af7783099573fec9bf0daadd1ce01907bf8aad24f29602200ea275a5969ae023e2627f7452bd97f4490805e28f66426cf71275cb537f1906[ALL] 02d3f12641750de48acf51a7857735c11be5c8e9c79a83441c522dd09136a85f9c"}, "vout": 1, "txid": "6a2b513211520801c45a106d41970a5916085973b032762d5ee76964a23d16ce"}], "txid": "dc72fdd9a00445cb2d4c69ab71b6625b0b2159a03b72de622aa235e4df68065f", "blocktime": 1537874412, "version": 1, "confirmations": 11467, "time": 1537874412, "locktime": 0, "vsize": 283, "size": 283}