{"hash": "a68f8a204ede2e78c3bd1f073b471792da67e90fffc8880f5ade9dc1dd7c76c4", "blockhash": "0000000000000000001cda96e906b7601b7a6fb1a3b62bca570a9e5d8f4b3de1", "vout": [{"scriptPubKey": {"reqSigs": 1, "hex": "76a9149a1b8f9b1fa2d2297863adb1cb11c71df455684888ac", "addresses": ["1F3r5We2zwNiSzG6GQUTTWnnPMCz2HJbJu"], "asm": "OP_DUP OP_HASH160 9a1b8f9b1fa2d2297863adb1cb11c71df4556848 OP_EQUALVERIFY OP_CHECKSIG", "type": "pubkeyhash"}, "value": 2.713e-05, "n": 0}, {"scriptPubKey": {"reqSigs": 1, "hex": "a914e8db75c900cf08f06518e96d167331f2a4abfb3387", "addresses": ["3NvFbQMAkkqEFj4i1sYPPLkSWzxTFUchjA"], "asm": "OP_HASH160 e8db75c900cf08f06518e96d167331f2a4abfb33 OP_EQUAL", "type": "scripthash"}, "value": 7.704e-05, "n": 1}], "hex": "010000000001012f4f8887d27079581b02c951a3f5781006f43c4de7834cadb9c4012a01dae0e80100000023220020941cfaff8837763dc1f69ff82b6d6553fdea17a41cfc29a04403293eedd8ccc7ffffffff02990a0000000000001976a9149a1b8f9b1fa2d2297863adb1cb11c71df455684888ac181e00000000000017a914e8db75c900cf08f06518e96d167331f2a4abfb33870400483045022100eb9b182e9e950a59419aea7062464f0c4bcda3653d34f2928b07fc00dfdf6a8a022008bd4a25ea882c02d29b3db369742638411f818f02c3d08bd5dd6e5a5a77b80401483045022100fd0119ada54a330866974fb56aca114b4775a8827dfa55a19ca2f29331d4784802206c30c76db3e3236e78167929baf6492023438d1538fe63575bcad8a91134a97e0147522102531db3a5883f29bab4241dd0cd726936667bcda445d89bdd22244e828b6993342103148c80a5bdfddb05ff5bcffc397c8ca748d8b435ec6a175bc9d7bfc7fc6f853752ae00000000", "vin": [{"txinwitness": ["", "3045022100eb9b182e9e950a59419aea7062464f0c4bcda3653d34f2928b07fc00dfdf6a8a022008bd4a25ea882c02d29b3db369742638411f818f02c3d08bd5dd6e5a5a77b80401", "3045022100fd0119ada54a330866974fb56aca114b4775a8827dfa55a19ca2f29331d4784802206c30c76db3e3236e78167929baf6492023438d1538fe63575bcad8a91134a97e01", "522102531db3a5883f29bab4241dd0cd726936667bcda445d89bdd22244e828b6993342103148c80a5bdfddb05ff5bcffc397c8ca748d8b435ec6a175bc9d7bfc7fc6f853752ae"], "sequence": 4294967295, "scriptSig": {"hex": "220020941cfaff8837763dc1f69ff82b6d6553fdea17a41cfc29a04403293eedd8ccc7", "asm": "0020941cfaff8837763dc1f69ff82b6d6553fdea17a41cfc29a04403293eedd8ccc7"}, "vout": 1, "txid": "e8e0da012a01c4b9ad4c83e74d3cf4061078f5a351c9021b587970d287884f2f"}], "txid": "dc7e9764450ef617d2db85b55a2d8c06acdf11dbd0dba8c1292846980b5fbd48", "blocktime": 1537873282, "version": 1, "confirmations": 11484, "time": 1537873282, "locktime": 0, "vsize": 208, "size": 374}