{"hash": "868bd74a57c795b7d0ac4df533756d918a8b04a30b1b8e576fa0d14b03c91554", "blockhash": "0000000000000000001f76057863aec43deb6fa401d9628bb513d65a8098bfab", "vout": [{"scriptPubKey": {"reqSigs": 1, "hex": "a91413ded40c35628d1dead126be5b7a862bd7e4ab9687", "addresses": ["33W5ha5BNofHBEfyDmQaHEzPq9bRpmQsLW"], "asm": "OP_HASH160 13ded40c35628d1dead126be5b7a862bd7e4ab96 OP_EQUAL", "type": "scripthash"}, "value": 0.01047647, "n": 0}, {"scriptPubKey": {"reqSigs": 1, "hex": "76a9148d3ea1a917d300e0b527fa1e7ad4fc2222d9f33288ac", "addresses": ["1DsqJm5puCeVDWDfNDptpGHkVQrtG5a3aQ"], "asm": "OP_DUP OP_HASH160 8d3ea1a917d300e0b527fa1e7ad4fc2222d9f332 OP_EQUALVERIFY OP_CHECKSIG", "type": "pubkeyhash"}, "value": 0.0027216, "n": 1}], "hex": "0200000000010287411bbf370b413f6c573b6a07490daaa2401274364cbe6a13cc73716a3e0ae9100000001716001463a1a380b7a79f3bf7ca9ec57b788a662fa79798feffffffcf145664876b316e1a6f9cfc6dbae59c08ce7cd18ea90970da3bbc09adf60b93010000001716001468ff5c26de7620d758b18871765bbe4f13d4ef83feffffff025ffc0f000000000017a91413ded40c35628d1dead126be5b7a862bd7e4ab968720270400000000001976a9148d3ea1a917d300e0b527fa1e7ad4fc2222d9f33288ac02483045022100dd5e13b0287859c8df49286b5348b1b994fd13f11c96df1abe53baac8092cabb02205e25088f8b3d1672acd20ac5076429dd904d9d9338bc4180058aa4da6eef580701210327d9db41449ad33eef98765129de62c9e2f60f4ed4d6f9bc134d344ee8eae4ea02473044022044985bae3c7da8881a905991a3e254255b822af7c7c19be649dbda8de17c75ad0220576581acde44c0a10bc1404cfb545e87cff3d8064e8e20beff5a8e3076a5b1aa01210220dc62495b74a1cf840cb69dc1fcb09903bca170134f656bdf731d393d031a6a14490800", "vin": [{"txinwitness": ["3045022100dd5e13b0287859c8df49286b5348b1b994fd13f11c96df1abe53baac8092cabb02205e25088f8b3d1672acd20ac5076429dd904d9d9338bc4180058aa4da6eef580701", "0327d9db41449ad33eef98765129de62c9e2f60f4ed4d6f9bc134d344ee8eae4ea"], "sequence": 4294967294, "scriptSig": {"hex": "16001463a1a380b7a79f3bf7ca9ec57b788a662fa79798", "asm": "001463a1a380b7a79f3bf7ca9ec57b788a662fa79798"}, "vout": 16, "txid": "e90a3e6a7173cc136abe4c36741240a2aa0d49076a3b576c3f410b37bf1b4187"}, {"txinwitness": ["3044022044985bae3c7da8881a905991a3e254255b822af7c7c19be649dbda8de17c75ad0220576581acde44c0a10bc1404cfb545e87cff3d8064e8e20beff5a8e3076a5b1aa01", "0220dc62495b74a1cf840cb69dc1fcb09903bca170134f656bdf731d393d031a6a"], "sequence": 4294967294, "scriptSig": {"hex": "16001468ff5c26de7620d758b18871765bbe4f13d4ef83", "asm": "001468ff5c26de7620d758b18871765bbe4f13d4ef83"}, "vout": 1, "txid": "930bf6ad09bc3bda7009a98ed17cce089ce5ba6dfc9c6f1a6e316b87645614cf"}], "txid": "dc809a16aad7eae4ffdc2683f718d282c94f9a8ca6bfa11c3b61a5ca4c0c5368", "blocktime": 1537873891, "version": 2, "confirmations": 11478, "time": 1537873891, "locktime": 542996, "vsize": 259, "size": 421}