{"hash": "1da77f8bc80f92fb59f39f64f5a104e1ed0a8a694d3744e515148e5d6f979205", "blockhash": "0000000000000000000e13cef7c366c0283d82e591d1acd082e914b08063cdf1", "vout": [{"scriptPubKey": {"reqSigs": 1, "hex": "00140e0015ed9087109eb948d36e0037f9d73dec8b14", "addresses": ["bc1qpcqptmvssugfaw2g6dhqqdle6u77ezc5r8rg82"], "asm": "0 0e0015ed9087109eb948d36e0037f9d73dec8b14", "type": "witness_v0_keyhash"}, "value": 7.144e-05, "n": 0}, {"scriptPubKey": {"reqSigs": 1, "hex": "a91469f3747877802420ae4f55bb47a3fafae6e6bb8287", "addresses": ["3BMEXEVCsv5NkqjfMpeQuuJGnNMs4NuDNR"], "asm": "OP_HASH160 69f3747877802420ae4f55bb47a3fafae6e6bb82 OP_EQUAL", "type": "scripthash"}, "value": 0.00475875, "n": 1}], "hex": "01000000000101cd5b1a650a3a81dad2840aa3df583f01e42b5ece7bcf708974918defd08e4d1a010000001716001447e91ad81e33cb57ef865167cc22495fb34e2265ffffffff02e81b0000000000001600140e0015ed9087109eb948d36e0037f9d73dec8b14e34207000000000017a91469f3747877802420ae4f55bb47a3fafae6e6bb828702483045022100f880ec349b6fa3b643e9333ef5243663e5870a58d7a8f6ff88badf853416db6e02205683ff2872f33d4535d7147813d61953330590248ca5df505c1ce42c3c536415012103642db0f4e8e05d8b643fa35fdf87e3b4639a777acfbfd7e85d9b5f6472dd060100000000", "vin": [{"txinwitness": ["3045022100f880ec349b6fa3b643e9333ef5243663e5870a58d7a8f6ff88badf853416db6e02205683ff2872f33d4535d7147813d61953330590248ca5df505c1ce42c3c53641501", "03642db0f4e8e05d8b643fa35fdf87e3b4639a777acfbfd7e85d9b5f6472dd0601"], "sequence": 4294967295, "scriptSig": {"hex": "16001447e91ad81e33cb57ef865167cc22495fb34e2265", "asm": "001447e91ad81e33cb57ef865167cc22495fb34e2265"}, "vout": 1, "txid": "1a4d8ed0ef8d91748970cf7bce5e2be4013f58dfa30a84d2da813a0a651a5bcd"}], "txid": "dc805ff4457e3f7b0f165518b206d454b823b4af8abcdf9337cf84c37b5ca4ee", "blocktime": 1537871767, "version": 1, "confirmations": 11495, "time": 1537871767, "locktime": 0, "vsize": 165, "size": 247}