{"hash": "dc8433dbbc991e72b014b7d683ee96ae1732ea2de89d5ebb5cd525e849da1685", "blockhash": "00000000000000000017f5eb5941039fbcee6240d03bc1f2f8e35350df66a1d8", "vout": [{"scriptPubKey": {"reqSigs": 1, "hex": "a9143bf128d5647d335b3d8897d5212e265df5e1368387", "addresses": ["379xgvCMrrJjTygQE8PP5PXVEjsDxcvphd"], "asm": "OP_HASH160 3bf128d5647d335b3d8897d5212e265df5e13683 OP_EQUAL", "type": "scripthash"}, "value": 0.13395107, "n": 0}], "hex": "010000000239dd66ee750a874196d0499f486c02aa45c2214d5d3793c7f5e8b657d6d4bf2e000000006a47304402201ed86630750af0d3dc22a85085bb757fb142844409f1a95a6ef3b0be052b3edb022037e24c963f77555a4fdec274e9d491ec474922be63b2255b7cf36c143bc3ad79012103c0f49bb7a80bcc72e056cc7301f59b10fa05520719ef7f9507281785d94e2d59fffffffffd8ba2526605f2f97b27aa07eda6a991521499d0ee8f42e7abf3c67ec34f23b1010000006b4830450221009a85b77cdedb927f7c851c57de3667732525e5f96f6610400a7aaf7c2d4c2828022047207a8452951639a2d00ad0cbbd347505bc0578977b09bc21f0648a54246672012103c0f49bb7a80bcc72e056cc7301f59b10fa05520719ef7f9507281785d94e2d59ffffffff01a364cc000000000017a9143bf128d5647d335b3d8897d5212e265df5e136838700000000", "vin": [{"sequence": 4294967295, "scriptSig": {"hex": "47304402201ed86630750af0d3dc22a85085bb757fb142844409f1a95a6ef3b0be052b3edb022037e24c963f77555a4fdec274e9d491ec474922be63b2255b7cf36c143bc3ad79012103c0f49bb7a80bcc72e056cc7301f59b10fa05520719ef7f9507281785d94e2d59", "asm": "304402201ed86630750af0d3dc22a85085bb757fb142844409f1a95a6ef3b0be052b3edb022037e24c963f77555a4fdec274e9d491ec474922be63b2255b7cf36c143bc3ad79[ALL] 03c0f49bb7a80bcc72e056cc7301f59b10fa05520719ef7f9507281785d94e2d59"}, "vout": 0, "txid": "2ebfd4d657b6e8f5c793375d4d21c245aa026c489f49d09641870a75ee66dd39"}, {"sequence": 4294967295, "scriptSig": {"hex": "4830450221009a85b77cdedb927f7c851c57de3667732525e5f96f6610400a7aaf7c2d4c2828022047207a8452951639a2d00ad0cbbd347505bc0578977b09bc21f0648a54246672012103c0f49bb7a80bcc72e056cc7301f59b10fa05520719ef7f9507281785d94e2d59", "asm": "30450221009a85b77cdedb927f7c851c57de3667732525e5f96f6610400a7aaf7c2d4c2828022047207a8452951639a2d00ad0cbbd347505bc0578977b09bc21f0648a54246672[ALL] 03c0f49bb7a80bcc72e056cc7301f59b10fa05520719ef7f9507281785d94e2d59"}, "vout": 1, "txid": "b1234fc37ec6f3abe7428feed099145291a9a6ed07aa277bf9f2056652a28bfd"}], "txid": "dc8433dbbc991e72b014b7d683ee96ae1732ea2de89d5ebb5cd525e849da1685", "blocktime": 1537874412, "version": 1, "confirmations": 11467, "time": 1537874412, "locktime": 0, "vsize": 337, "size": 337}