{"hash": "dc8625c828c41cb4012a4bd677fdce80344a0772d66b854b84ca6e0362249d76", "blockhash": "0000000000000000001e0dab787dd257d1dbfcb92a98c2207d5e1078be1f4165", "vout": [{"scriptPubKey": {"reqSigs": 1, "hex": "76a914ea84ac228543533577127594ff60a584786ba62d88ac", "addresses": ["1NP248SvxWFyU4Qmvpd4bQwJaDdjk5ZmtL"], "asm": "OP_DUP OP_HASH160 ea84ac228543533577127594ff60a584786ba62d OP_EQUALVERIFY OP_CHECKSIG", "type": "pubkeyhash"}, "value": 0.01712052, "n": 0}, {"scriptPubKey": {"reqSigs": 1, "hex": "76a914257fb7e79b9e0a2fd54b323699a998fc6204198388ac", "addresses": ["14RH18KViwwtnZCJtJHGhQrF3mw2FtDTnv"], "asm": "OP_DUP OP_HASH160 257fb7e79b9e0a2fd54b323699a998fc62041983 OP_EQUALVERIFY OP_CHECKSIG", "type": "pubkeyhash"}, "value": 0.003916, "n": 1}], "hex": "010000000168187173cdf52225db2663bd1e3a77fb2b693cb21b8f388e17176be9f7a155b9010000006b483045022100a999320ed7f4ffd7038cf6a4403f5ec532e1c6ddd33f583484a9cd478fd93e4302206201042f52d6dfcd1c9afdee4c0b85f5525f97a3c29e11bef1679c13656d55590121036bfe5d47b82e4e75d52f6879f62253f5c78d8e55d6e4512f4f5911a194979a8cffffffff02b41f1a00000000001976a914ea84ac228543533577127594ff60a584786ba62d88acb0f90500000000001976a914257fb7e79b9e0a2fd54b323699a998fc6204198388ac00000000", "vin": [{"sequence": 4294967295, "scriptSig": {"hex": "483045022100a999320ed7f4ffd7038cf6a4403f5ec532e1c6ddd33f583484a9cd478fd93e4302206201042f52d6dfcd1c9afdee4c0b85f5525f97a3c29e11bef1679c13656d55590121036bfe5d47b82e4e75d52f6879f62253f5c78d8e55d6e4512f4f5911a194979a8c", "asm": "3045022100a999320ed7f4ffd7038cf6a4403f5ec532e1c6ddd33f583484a9cd478fd93e4302206201042f52d6dfcd1c9afdee4c0b85f5525f97a3c29e11bef1679c13656d5559[ALL] 036bfe5d47b82e4e75d52f6879f62253f5c78d8e55d6e4512f4f5911a194979a8c"}, "vout": 1, "txid": "b955a1f7e96b17178e388f1bb23c692bfb773a1ebd6326db2522f5cd73711868"}], "txid": "dc8625c828c41cb4012a4bd677fdce80344a0772d66b854b84ca6e0362249d76", "blocktime": 1537872475, "version": 1, "confirmations": 11487, "time": 1537872475, "locktime": 0, "vsize": 226, "size": 226}