{"hash": "dc87fc05ee1b15379c553973638f7bf9559effd7e84aaa7d186d519635d6b687", "blockhash": "0000000000000000000e13cef7c366c0283d82e591d1acd082e914b08063cdf1", "vout": [{"scriptPubKey": {"type": "nulldata", "hex": "6a4c50000077a100017aeeb0efea85e68cbd4bafe4af6c953dd567cf27e7e3ef3236678a62509789436e322618ef0bc4455e3aa58ec0eb5baa0e670614b397304af9fd1d100759d4ba30d2c37bb011d97e02cf", "asm": "OP_RETURN 000077a100017aeeb0efea85e68cbd4bafe4af6c953dd567cf27e7e3ef3236678a62509789436e322618ef0bc4455e3aa58ec0eb5baa0e670614b397304af9fd1d100759d4ba30d2c37bb011d97e02cf"}, "value": 0.0, "n": 0}, {"scriptPubKey": {"reqSigs": 1, "hex": "76a9149581fae0a24868b3ef6c4c21d523076bb6431c4788ac", "addresses": ["1EdXPkYc8Sz9AejG44sZkLEsS3YxQpU8S5"], "asm": "OP_DUP OP_HASH160 9581fae0a24868b3ef6c4c21d523076bb6431c47 OP_EQUALVERIFY OP_CHECKSIG", "type": "pubkeyhash"}, "value": 0.0059875, "n": 1}], "hex": "010000000133412cd17e8afc4d18e4c8561561bfc53b1b3fbc5e7eff3f2a02fc6f03af8417000000006a473044022053d1a7c7450d9e424f6ab3c1fa2711f468daeaf6659823144db4fe11846e9732022068a8a8607f2911ca9ca542420d3d0353930844d9d143cd027ee0ca83b918464201210242c06dd96ac4fd7d01b8fdbeae703b0c570e0996d7ebc2eed87fa0902500ebf2ffffffff020000000000000000536a4c50000077a100017aeeb0efea85e68cbd4bafe4af6c953dd567cf27e7e3ef3236678a62509789436e322618ef0bc4455e3aa58ec0eb5baa0e670614b397304af9fd1d100759d4ba30d2c37bb011d97e02cfde220900000000001976a9149581fae0a24868b3ef6c4c21d523076bb6431c4788ac00000000", "vin": [{"sequence": 4294967295, "scriptSig": {"hex": "473044022053d1a7c7450d9e424f6ab3c1fa2711f468daeaf6659823144db4fe11846e9732022068a8a8607f2911ca9ca542420d3d0353930844d9d143cd027ee0ca83b918464201210242c06dd96ac4fd7d01b8fdbeae703b0c570e0996d7ebc2eed87fa0902500ebf2", "asm": "3044022053d1a7c7450d9e424f6ab3c1fa2711f468daeaf6659823144db4fe11846e9732022068a8a8607f2911ca9ca542420d3d0353930844d9d143cd027ee0ca83b9184642[ALL] 0242c06dd96ac4fd7d01b8fdbeae703b0c570e0996d7ebc2eed87fa0902500ebf2"}, "vout": 0, "txid": "1784af036ffc022a3fff7e5ebc3f1b3bc5bf611556c8e4184dfc8a7ed12c4133"}], "txid": "dc87fc05ee1b15379c553973638f7bf9559effd7e84aaa7d186d519635d6b687", "blocktime": 1537871767, "version": 1, "confirmations": 11493, "time": 1537871767, "locktime": 0, "vsize": 283, "size": 283}