{"hash": "b73bf53a20089df5a6a910c651087d84217f5b5cb8ccabaed2aac56d5f4d45a0", "blockhash": "000000000000000000022b45ed06c6f4ccd3cf7fb5ba4856ebd2e58215665228", "vout": [{"scriptPubKey": {"reqSigs": 1, "hex": "a914c4633313d084b8325bda62e21a976ff28d23015e87", "addresses": ["3KbRCeRejn2aaGX8DMnUZq6hpki2tbmfHN"], "asm": "OP_HASH160 c4633313d084b8325bda62e21a976ff28d23015e OP_EQUAL", "type": "scripthash"}, "value": 0.011027, "n": 0}, {"scriptPubKey": {"reqSigs": 1, "hex": "a9140ac1fde2d7d67d3563ac546a52882ad5ea4e703087", "addresses": ["32fu5F9CU2Wz4UEAw868GNuA5227cDKtjX"], "asm": "OP_HASH160 0ac1fde2d7d67d3563ac546a52882ad5ea4e7030 OP_EQUAL", "type": "scripthash"}, "value": 0.103, "n": 1}], "hex": "0100000000010181952ceb980b55a84fd2df08ad014fb52220a2ff6cd49be1c03b154b57fbf703010000002322002074b4b219d7ccf29e34168e9e784454a95f6f3c2e0170563866255366f64a4894ffffffff026cd310000000000017a914c4633313d084b8325bda62e21a976ff28d23015e87602a9d000000000017a9140ac1fde2d7d67d3563ac546a52882ad5ea4e7030870400483045022100c89546dcbb44bd5185118fd361a81422c2cec87e1dda2ee6d4abc0199ba06fab02207dbd951b09b02af56aef7712abe4316439e7ceceb067e82efb01a9b3f46ff0a701483045022100def16d375b8bf8dfc73f9634b29947ee560b09d392434b2c787114fa2f2fb5890220417ff41a5fb26f0ef455797f1c80b9ada46230478c6d60d8dee0cf37a25c48fc0169522103331859bce7bc957aedde0fe15ad8d479dc585422eac0b44dd6d9407dfd12b19c2102c137daa7c2dd161f37f5164733e296d203d8b2c6d11ca6301d9d480d0063a6a3210251e1de12e43fac97c352cbd37bc5fe79418fd0346edc53e6407ae6d4d1f484c953ae00000000", "vin": [{"txinwitness": ["", "3045022100c89546dcbb44bd5185118fd361a81422c2cec87e1dda2ee6d4abc0199ba06fab02207dbd951b09b02af56aef7712abe4316439e7ceceb067e82efb01a9b3f46ff0a701", "3045022100def16d375b8bf8dfc73f9634b29947ee560b09d392434b2c787114fa2f2fb5890220417ff41a5fb26f0ef455797f1c80b9ada46230478c6d60d8dee0cf37a25c48fc01", "522103331859bce7bc957aedde0fe15ad8d479dc585422eac0b44dd6d9407dfd12b19c2102c137daa7c2dd161f37f5164733e296d203d8b2c6d11ca6301d9d480d0063a6a3210251e1de12e43fac97c352cbd37bc5fe79418fd0346edc53e6407ae6d4d1f484c953ae"], "sequence": 4294967295, "scriptSig": {"hex": "22002074b4b219d7ccf29e34168e9e784454a95f6f3c2e0170563866255366f64a4894", "asm": "002074b4b219d7ccf29e34168e9e784454a95f6f3c2e0170563866255366f64a4894"}, "vout": 1, "txid": "03f7fb574b153bc0e19bd46cffa22022b54f01ad08dfd24fa8550b98eb2c9581"}], "txid": "dc89502dd749d2dc53a41612645f39820727e5788196898e07df192c3da15af6", "blocktime": 1537869901, "version": 1, "confirmations": 11524, "time": 1537869901, "locktime": 0, "vsize": 214, "size": 406}