{"hash": "12c169069d6336816b30f69de22cdd4bb263bd93d6ce9f69141fab93265c2e1a", "blockhash": "0000000000000000000baef3f32e3676a92c3b2e5da21b426e4f302fc371ce76", "vout": [{"scriptPubKey": {"reqSigs": 1, "hex": "a914a8174b3bf2ffec6971375dd687df58fc2da2f17e87", "addresses": ["3H1oMFxQ7mzgpjVBHKBuJjYefMFy629Ra1"], "asm": "OP_HASH160 a8174b3bf2ffec6971375dd687df58fc2da2f17e OP_EQUAL", "type": "scripthash"}, "value": 0.109, "n": 0}, {"scriptPubKey": {"reqSigs": 1, "hex": "a914ea645e5e20987adfaa9d5fa4a915d008965f102387", "addresses": ["3P4NHAbib3uvj6QNYmPWqEJMZnx4HzszTp"], "asm": "OP_HASH160 ea645e5e20987adfaa9d5fa4a915d008965f1023 OP_EQUAL", "type": "scripthash"}, "value": 0.01000822, "n": 1}], "hex": "0200000000010a6128f1132c1dcb67799ae021ebc9f88cfbca59295c4f0fcb51e43239b441ac080000000017160014cd493a54c969799b14907395d072cf6b1aba8477ffffffffe02c98013610aff82354b9f3328bf789439147146db64a300fc7f104fe5e8cfe1600000017160014c8ee40f162364a2762f021a42b9ebc928b343bc0ffffffff2947a1eea9d439a4092d4cb5ed3d7dfd2e913f084e27ad73d5f787d8de28d2e62200000017160014de738699aff5e9d4a459e0bcac8a885cf637442bffffffff51b4723a1d16e29d43c9e5006b894d078333f1a11201519dd28941e3c3066adb0c00000017160014a384b67aa8c20205f2d231ca8b4fb81465b78787ffffffff51b4723a1d16e29d43c9e5006b894d078333f1a11201519dd28941e3c3066adb0500000017160014c0943f337ebdbe27dbb9c853eabe6eda1225b84fffffffff3b397a3c212ce0097f8d3da66d2f2af5d51c5416c7361c7e10abfcf785dbf71a1100000017160014be31f67ed502f310e07b9ab32fca4394e7f5f6a9ffffffff359402a19a797c4ff7e54ca9aa1b6d220813f61ba7e06b62f2e724a65438266e0000000017160014ab05f9950e2edadac85f7f4d0f077f77cb1eba32ffffffff2d2bca5cfcfa4ce10e8c71eb2d576166146a3991567e20682f160cc2dd17eab203000000171600145b9af89c1511073f109f1dee93b037cc71e36e12ffffffff3b397a3c212ce0097f8d3da66d2f2af5d51c5416c7361c7e10abfcf785dbf71a1800000017160014bfccaffa81f7bbd2a985687740c25f71a4f62e40ffffffffc92bc5f3897747615b74c84953c85ed151e9f48834ca86cefc637fba2198799b0b000000171600142767162ab05c0b31357c7723c3b984f16c313c8cffffffff022052a6000000000017a914a8174b3bf2ffec6971375dd687df58fc2da2f17e8776450f000000000017a914ea645e5e20987adfaa9d5fa4a915d008965f10238702483045022100c1506962683f4b184ee7b79e014fa104e0d3c87d6c76619712651c4b032862fe0220437c29ab58c03ba17c77f692917ce1137675e183527856b0915e1f4608d309a3012103706acc5beccd6a17b1384cee8be5856e2f21a66c5dc2561d8b8256db01bb3b8802473044022063f71543935fe11725aebf742bdef9829614715473c2a222188857eb4ce2626d02207b93a88dfc9fe382334bd289161347c28073888280093ab84ece50f7cc2a4bb20121036a1ad2302da3cb69bab1dd59eb2d2cb1027fc79302e9574be4773765975bba8102483045022100ea8c59d841a7556efa75f5258791bb08b2048c5cff98e08671e6ef5d66bcaf0802207a5f7b9403473e6f83dc81110ced4e25a28c5a996e0b240eb9676cf795256b9d0121032fdf04ab29e20d5a66e04fbec091c9b687a5401f44f6808d8845afafd04f925802483045022100b74a1961169668d99f42c02eca7b4d9baa227759ee6ac8a450a2a276b52fe9410220679c1b68e9a312ae52eb93e4c6f80525a3728f66d2d05cac75ed3f207d6ad3ba0121033128fd315f1990476202266c3d8a2ef5d7ad3a3157d30fb9d3b1e9025d5e77e102483045022100cc1f54b3964df4a130b967710bf82c43666f57635bd842b0280b97c899c0bb2002201ca04df54dfd185b13a6902bc637331ee9f4aeb7ea5f9c0a845bb4ee68bcb37d0121039e7764be70e4bc13bf2a09fa1e745e94f995f4f2ab536b9cddfe48e62f8bfb330247304402201b7aa7249f5085fa66410823ae644cb611bf9b287224f9789ee337e57446d6e502206da05f0b1895956c0f99c716b5d5f7898068fa0581da9f150d6635d8c8530209012102a3f23c5bf4fef4f47db5c64db749f0edf9b6c6c5dcd7f0759841c32d6a44df9902473044022071f8a4b7d2e88500a8d954c2f81d27d6895146ce482284feff162ff9af6b934902200fc9183bbc0ecc88989d5350ce617a1bb6a6087363eb2b8cb9b29a798b86724c01210267dd313168386ba238f4a75a1ab66e1b00512517d6c039413a2323aea13ec47502483045022100de35971add4ff4baa0ea32bbf52473611eaa84a97851ab76bfe0837dedb0c74b02202e761bb59f8f5f803e998482f42d79c538b42dd5759ba577d3b6d852aa91c64f0121036c4ce9d770b1ec4d493e01b67b66912c4d2e10052aa28bc0ba5dc9a9c83e5f1602483045022100aac91d5dcae81aeaf204dabea4e655457be2f9a985a5d734b4fba284c2242f32022021fae6ca05e95ed852d4344e4f03c3b0698d564c5a6c0645361fd7cd5d4f4c1001210236eb1dbe7ede0e2bdec1ed36f55f06df9288d80ca467f3354ecae7f6011aa9e102483045022100905f77b31668f4f603f514e87af76cb425b559c02757c16a0d1002b71b961a8802204160cfb2aba0f13ead6fb8957735d97676dcb0e5a4005236d6ef5b722324fb7401210292a5db6b22543b58a29942c318fcd206fb3492d3c303fc233b4908ab0a96811500000000", "vin": [{"txinwitness": ["3045022100c1506962683f4b184ee7b79e014fa104e0d3c87d6c76619712651c4b032862fe0220437c29ab58c03ba17c77f692917ce1137675e183527856b0915e1f4608d309a301", "03706acc5beccd6a17b1384cee8be5856e2f21a66c5dc2561d8b8256db01bb3b88"], "sequence": 4294967295, "scriptSig": {"hex": "160014cd493a54c969799b14907395d072cf6b1aba8477", "asm": "0014cd493a54c969799b14907395d072cf6b1aba8477"}, "vout": 0, "txid": "08ac41b43932e451cb0f4f5c2959cafb8cf8c9eb21e09a7967cb1d2c13f12861"}, {"txinwitness": ["3044022063f71543935fe11725aebf742bdef9829614715473c2a222188857eb4ce2626d02207b93a88dfc9fe382334bd289161347c28073888280093ab84ece50f7cc2a4bb201", "036a1ad2302da3cb69bab1dd59eb2d2cb1027fc79302e9574be4773765975bba81"], "sequence": 4294967295, "scriptSig": {"hex": "160014c8ee40f162364a2762f021a42b9ebc928b343bc0", "asm": "0014c8ee40f162364a2762f021a42b9ebc928b343bc0"}, "vout": 22, "txid": "fe8c5efe04f1c70f304ab66d1447914389f78b32f3b95423f8af103601982ce0"}, {"txinwitness": ["3045022100ea8c59d841a7556efa75f5258791bb08b2048c5cff98e08671e6ef5d66bcaf0802207a5f7b9403473e6f83dc81110ced4e25a28c5a996e0b240eb9676cf795256b9d01", "032fdf04ab29e20d5a66e04fbec091c9b687a5401f44f6808d8845afafd04f9258"], "sequence": 4294967295, "scriptSig": {"hex": "160014de738699aff5e9d4a459e0bcac8a885cf637442b", "asm": "0014de738699aff5e9d4a459e0bcac8a885cf637442b"}, "vout": 34, "txid": "e6d228ded887f7d573ad274e083f912efd7d3dedb54c2d09a439d4a9eea14729"}, {"txinwitness": ["3045022100b74a1961169668d99f42c02eca7b4d9baa227759ee6ac8a450a2a276b52fe9410220679c1b68e9a312ae52eb93e4c6f80525a3728f66d2d05cac75ed3f207d6ad3ba01", "033128fd315f1990476202266c3d8a2ef5d7ad3a3157d30fb9d3b1e9025d5e77e1"], "sequence": 4294967295, "scriptSig": {"hex": "160014a384b67aa8c20205f2d231ca8b4fb81465b78787", "asm": "0014a384b67aa8c20205f2d231ca8b4fb81465b78787"}, "vout": 12, "txid": "db6a06c3e34189d29d510112a1f13383074d896b00e5c9439de2161d3a72b451"}, {"txinwitness": ["3045022100cc1f54b3964df4a130b967710bf82c43666f57635bd842b0280b97c899c0bb2002201ca04df54dfd185b13a6902bc637331ee9f4aeb7ea5f9c0a845bb4ee68bcb37d01", "039e7764be70e4bc13bf2a09fa1e745e94f995f4f2ab536b9cddfe48e62f8bfb33"], "sequence": 4294967295, "scriptSig": {"hex": "160014c0943f337ebdbe27dbb9c853eabe6eda1225b84f", "asm": "0014c0943f337ebdbe27dbb9c853eabe6eda1225b84f"}, "vout": 5, "txid": "db6a06c3e34189d29d510112a1f13383074d896b00e5c9439de2161d3a72b451"}, {"txinwitness": ["304402201b7aa7249f5085fa66410823ae644cb611bf9b287224f9789ee337e57446d6e502206da05f0b1895956c0f99c716b5d5f7898068fa0581da9f150d6635d8c853020901", "02a3f23c5bf4fef4f47db5c64db749f0edf9b6c6c5dcd7f0759841c32d6a44df99"], "sequence": 4294967295, "scriptSig": {"hex": "160014be31f67ed502f310e07b9ab32fca4394e7f5f6a9", "asm": "0014be31f67ed502f310e07b9ab32fca4394e7f5f6a9"}, "vout": 17, "txid": "1af7db85f7fcab107e1c36c716541cd5f52a2f6da63d8d7f09e02c213c7a393b"}, {"txinwitness": ["3044022071f8a4b7d2e88500a8d954c2f81d27d6895146ce482284feff162ff9af6b934902200fc9183bbc0ecc88989d5350ce617a1bb6a6087363eb2b8cb9b29a798b86724c01", "0267dd313168386ba238f4a75a1ab66e1b00512517d6c039413a2323aea13ec475"], "sequence": 4294967295, "scriptSig": {"hex": "160014ab05f9950e2edadac85f7f4d0f077f77cb1eba32", "asm": "0014ab05f9950e2edadac85f7f4d0f077f77cb1eba32"}, "vout": 0, "txid": "6e263854a624e7f2626be0a71bf61308226d1baaa94ce5f74f7c799aa1029435"}, {"txinwitness": ["3045022100de35971add4ff4baa0ea32bbf52473611eaa84a97851ab76bfe0837dedb0c74b02202e761bb59f8f5f803e998482f42d79c538b42dd5759ba577d3b6d852aa91c64f01", "036c4ce9d770b1ec4d493e01b67b66912c4d2e10052aa28bc0ba5dc9a9c83e5f16"], "sequence": 4294967295, "scriptSig": {"hex": "1600145b9af89c1511073f109f1dee93b037cc71e36e12", "asm": "00145b9af89c1511073f109f1dee93b037cc71e36e12"}, "vout": 3, "txid": "b2ea17ddc20c162f68207e5691396a146661572deb718c0ee14cfafc5cca2b2d"}, {"txinwitness": ["3045022100aac91d5dcae81aeaf204dabea4e655457be2f9a985a5d734b4fba284c2242f32022021fae6ca05e95ed852d4344e4f03c3b0698d564c5a6c0645361fd7cd5d4f4c1001", "0236eb1dbe7ede0e2bdec1ed36f55f06df9288d80ca467f3354ecae7f6011aa9e1"], "sequence": 4294967295, "scriptSig": {"hex": "160014bfccaffa81f7bbd2a985687740c25f71a4f62e40", "asm": "0014bfccaffa81f7bbd2a985687740c25f71a4f62e40"}, "vout": 24, "txid": "1af7db85f7fcab107e1c36c716541cd5f52a2f6da63d8d7f09e02c213c7a393b"}, {"txinwitness": ["3045022100905f77b31668f4f603f514e87af76cb425b559c02757c16a0d1002b71b961a8802204160cfb2aba0f13ead6fb8957735d97676dcb0e5a4005236d6ef5b722324fb7401", "0292a5db6b22543b58a29942c318fcd206fb3492d3c303fc233b4908ab0a968115"], "sequence": 4294967295, "scriptSig": {"hex": "1600142767162ab05c0b31357c7723c3b984f16c313c8c", "asm": "00142767162ab05c0b31357c7723c3b984f16c313c8c"}, "vout": 11, "txid": "9b799821ba7f63fcce86ca3488f4e951d15ec85349c8745b61477789f3c52bc9"}], "txid": "dc89e0e7f2431158bcf7153e2fb1281b662aa49ff1532a7368cb5fa5da8dae61", "blocktime": 1537876114, "version": 2, "confirmations": 11460, "time": 1537876114, "locktime": 0, "vsize": 984, "size": 1793}