{"hash": "dc8c9f80d16e66d10e4dceb7be7735b50eb6fe1656f5590bd74940ec2fd37c86", "blockhash": "0000000000000000001f76057863aec43deb6fa401d9628bb513d65a8098bfab", "vout": [{"scriptPubKey": {"reqSigs": 1, "hex": "76a914717149c1ba51a2a1b7f6deb632148863ecb9ecfd88ac", "addresses": ["1BLq55E9nW9KDubf19CHDNWetf22uiy6Gu"], "asm": "OP_DUP OP_HASH160 717149c1ba51a2a1b7f6deb632148863ecb9ecfd OP_EQUALVERIFY OP_CHECKSIG", "type": "pubkeyhash"}, "value": 8.65e-06, "n": 0}, {"scriptPubKey": {"reqSigs": 1, "hex": "a914cf1f05f928091e2a28abd527cb2dd002fe840ee687", "addresses": ["3LaAxnsGaZA6fChgym39C8BZSBE3fTy982"], "asm": "OP_HASH160 cf1f05f928091e2a28abd527cb2dd002fe840ee6 OP_EQUAL", "type": "scripthash"}, "value": 0.00010567, "n": 1}], "hex": "0100000001b929b0840d1ea02374e8e0972e04444119d3aa5c2b956d096eabb7fc07fe441e000000006b4830450221008efb28646a717d1b226e8cfed24a7654d74f712af0a41e4ff9c7c332caafde77022003dc39aa305a48a84f7257d8e4776fab831fb90bcc9ee73f03ed1ea6adb9f6a70121025952cd9f0f794fd1c2f98f88ad9601b37af8f06e7f17d1df6ce1c9ca7b7c6c90ffffffff0261030000000000001976a914717149c1ba51a2a1b7f6deb632148863ecb9ecfd88ac472900000000000017a914cf1f05f928091e2a28abd527cb2dd002fe840ee68700000000", "vin": [{"sequence": 4294967295, "scriptSig": {"hex": "4830450221008efb28646a717d1b226e8cfed24a7654d74f712af0a41e4ff9c7c332caafde77022003dc39aa305a48a84f7257d8e4776fab831fb90bcc9ee73f03ed1ea6adb9f6a70121025952cd9f0f794fd1c2f98f88ad9601b37af8f06e7f17d1df6ce1c9ca7b7c6c90", "asm": "30450221008efb28646a717d1b226e8cfed24a7654d74f712af0a41e4ff9c7c332caafde77022003dc39aa305a48a84f7257d8e4776fab831fb90bcc9ee73f03ed1ea6adb9f6a7[ALL] 025952cd9f0f794fd1c2f98f88ad9601b37af8f06e7f17d1df6ce1c9ca7b7c6c90"}, "vout": 0, "txid": "1e44fe07fcb7ab6e096d952b5caad3194144042e97e0e87423a01e0d84b029b9"}], "txid": "dc8c9f80d16e66d10e4dceb7be7735b50eb6fe1656f5590bd74940ec2fd37c86", "blocktime": 1537873891, "version": 1, "confirmations": 11478, "time": 1537873891, "locktime": 0, "vsize": 224, "size": 224}