{"hash": "dc8cefccbdca3fb36a76a8814174f5f7552d7e5202406ad0b5793e41765ca562", "blockhash": "0000000000000000000dcc0f55137456b1a82d3642486a52398922ac4d620174", "vout": [{"scriptPubKey": {"reqSigs": 1, "hex": "76a91473218c667c607e00d1d0f033f26c48e35bac275c88ac", "addresses": ["1BVku3ik8q8quZmCdhFKDpyWa89DGeGid4"], "asm": "OP_DUP OP_HASH160 73218c667c607e00d1d0f033f26c48e35bac275c OP_EQUALVERIFY OP_CHECKSIG", "type": "pubkeyhash"}, "value": 0.06261126, "n": 0}, {"scriptPubKey": {"reqSigs": 1, "hex": "76a9148ae6d899a46f6a6485ce22cc69b28c13b08571ac88ac", "addresses": ["1DfSnwYbeghE12xRV9DF5hui3omb8PsDkZ"], "asm": "OP_DUP OP_HASH160 8ae6d899a46f6a6485ce22cc69b28c13b08571ac OP_EQUALVERIFY OP_CHECKSIG", "type": "pubkeyhash"}, "value": 0.00730591, "n": 1}], "hex": "0100000007c5af78c945020649f216d5b2a8cf8224b40d82d5cc800d252b8283c1b48a0f55000000006b483045022100bdc95a88a17ff5aedec050f61942ce93df0bb80fc81ba2f1f27f5b0ed240b18102200ad814513636f1e70f01f46ba0e991613defe5ad25d0e354347df4a3e282107d0121026326f8c3793ad2898952a2a8f115735e37e2889ae737cfbab1251cb14f04771affffffff8758c185a199c5ec213e8f3c03a7ab28f22727ba3bcd371b8e2059aa4b1d8e51000000006b483045022100986c50c7c6fe1e8c99624b96053201f31c9fe5015a0d05d98c6ae31a94792acd02202a308db97d26e0c1d22399f9129af5fcb3a7a2cd295ffbc16537431f990e7c140121026326f8c3793ad2898952a2a8f115735e37e2889ae737cfbab1251cb14f04771affffffff28e6aa68fb2840492d192dc77b21acaa94f97d97fac0d42ff23ac02d3aeb5b04000000006a4730440220318ff60ede826bc7d7118aede6e126cb60d89a6fb9136d450fef25f98b56e8e0022033f1b4757bc6aad6b8161b6006074124132fa8e06296727ec0ce57f9a99dbbcd0121026326f8c3793ad2898952a2a8f115735e37e2889ae737cfbab1251cb14f04771affffffffaac992ad10f64410269cfb4f800b857210dfb048918a734166c87cd4e97cf346030000006b483045022100b18045ba472c02653b5bcf59f281d27fdff930acd193322fa877590711c912c002203c5e21ddb51f179060f7e015cbd62a774de0211aa3134b8f4c66e2b060b4b39f0121026326f8c3793ad2898952a2a8f115735e37e2889ae737cfbab1251cb14f04771affffffff08f1736fcef9271caa83ff710b2c7c1091dc5a8147a8bc18d3f16d3782df7c32010000006b483045022100fd8f40391e89402bf319c22f9162000c45cfd298c1bba65cfafe9079b5427d5002204462380f96e60c4d91e7a8d7cfcf7e35923bed754d9cc0ba31ac1609e85adada0121026326f8c3793ad2898952a2a8f115735e37e2889ae737cfbab1251cb14f04771affffffff71d47f6595ba6115297f66174666e0614da9fe1cfaccae1e586f43b94ed86301010000006a47304402205366b9e1149492baeb9fb183932d76fd8f9c90a08dbd873e1fc898defdbc4dab022065714df844c6f1d18a935921097e8fc15bd9d16605ad54608996ea593022d62f0121026326f8c3793ad2898952a2a8f115735e37e2889ae737cfbab1251cb14f04771affffffff9a9d939f77d4130811d1c96a7c89cbffba856caa66d1737c084b55a56700b101010000006a4730440220363baa8f67e767a566a28cf78740798b87676f125d689209cde44c14358fb06002205e3059c37d87da8325b1c87d8510d08b784ad59d58a83b50c081fd010e02e6d60121026326f8c3793ad2898952a2a8f115735e37e2889ae737cfbab1251cb14f04771affffffff0286895f00000000001976a91473218c667c607e00d1d0f033f26c48e35bac275c88acdf250b00000000001976a9148ae6d899a46f6a6485ce22cc69b28c13b08571ac88ac00000000", "vin": [{"sequence": 4294967295, "scriptSig": {"hex": "483045022100bdc95a88a17ff5aedec050f61942ce93df0bb80fc81ba2f1f27f5b0ed240b18102200ad814513636f1e70f01f46ba0e991613defe5ad25d0e354347df4a3e282107d0121026326f8c3793ad2898952a2a8f115735e37e2889ae737cfbab1251cb14f04771a", "asm": "3045022100bdc95a88a17ff5aedec050f61942ce93df0bb80fc81ba2f1f27f5b0ed240b18102200ad814513636f1e70f01f46ba0e991613defe5ad25d0e354347df4a3e282107d[ALL] 026326f8c3793ad2898952a2a8f115735e37e2889ae737cfbab1251cb14f04771a"}, "vout": 0, "txid": "550f8ab4c183822b250d80ccd5820db42482cfa8b2d516f249060245c978afc5"}, {"sequence": 4294967295, "scriptSig": {"hex": "483045022100986c50c7c6fe1e8c99624b96053201f31c9fe5015a0d05d98c6ae31a94792acd02202a308db97d26e0c1d22399f9129af5fcb3a7a2cd295ffbc16537431f990e7c140121026326f8c3793ad2898952a2a8f115735e37e2889ae737cfbab1251cb14f04771a", "asm": "3045022100986c50c7c6fe1e8c99624b96053201f31c9fe5015a0d05d98c6ae31a94792acd02202a308db97d26e0c1d22399f9129af5fcb3a7a2cd295ffbc16537431f990e7c14[ALL] 026326f8c3793ad2898952a2a8f115735e37e2889ae737cfbab1251cb14f04771a"}, "vout": 0, "txid": "518e1d4baa59208e1b37cd3bba2727f228aba7033c8f3e21ecc599a185c15887"}, {"sequence": 4294967295, "scriptSig": {"hex": "4730440220318ff60ede826bc7d7118aede6e126cb60d89a6fb9136d450fef25f98b56e8e0022033f1b4757bc6aad6b8161b6006074124132fa8e06296727ec0ce57f9a99dbbcd0121026326f8c3793ad2898952a2a8f115735e37e2889ae737cfbab1251cb14f04771a", "asm": "30440220318ff60ede826bc7d7118aede6e126cb60d89a6fb9136d450fef25f98b56e8e0022033f1b4757bc6aad6b8161b6006074124132fa8e06296727ec0ce57f9a99dbbcd[ALL] 026326f8c3793ad2898952a2a8f115735e37e2889ae737cfbab1251cb14f04771a"}, "vout": 0, "txid": "045beb3a2dc03af22fd4c0fa977df994aaac217bc72d192d494028fb68aae628"}, {"sequence": 4294967295, "scriptSig": {"hex": "483045022100b18045ba472c02653b5bcf59f281d27fdff930acd193322fa877590711c912c002203c5e21ddb51f179060f7e015cbd62a774de0211aa3134b8f4c66e2b060b4b39f0121026326f8c3793ad2898952a2a8f115735e37e2889ae737cfbab1251cb14f04771a", "asm": "3045022100b18045ba472c02653b5bcf59f281d27fdff930acd193322fa877590711c912c002203c5e21ddb51f179060f7e015cbd62a774de0211aa3134b8f4c66e2b060b4b39f[ALL] 026326f8c3793ad2898952a2a8f115735e37e2889ae737cfbab1251cb14f04771a"}, "vout": 3, "txid": "46f37ce9d47cc86641738a9148b0df1072850b804ffb9c261044f610ad92c9aa"}, {"sequence": 4294967295, "scriptSig": {"hex": "483045022100fd8f40391e89402bf319c22f9162000c45cfd298c1bba65cfafe9079b5427d5002204462380f96e60c4d91e7a8d7cfcf7e35923bed754d9cc0ba31ac1609e85adada0121026326f8c3793ad2898952a2a8f115735e37e2889ae737cfbab1251cb14f04771a", "asm": "3045022100fd8f40391e89402bf319c22f9162000c45cfd298c1bba65cfafe9079b5427d5002204462380f96e60c4d91e7a8d7cfcf7e35923bed754d9cc0ba31ac1609e85adada[ALL] 026326f8c3793ad2898952a2a8f115735e37e2889ae737cfbab1251cb14f04771a"}, "vout": 1, "txid": "327cdf82376df1d318bca847815adc91107c2c0b71ff83aa1c27f9ce6f73f108"}, {"sequence": 4294967295, "scriptSig": {"hex": "47304402205366b9e1149492baeb9fb183932d76fd8f9c90a08dbd873e1fc898defdbc4dab022065714df844c6f1d18a935921097e8fc15bd9d16605ad54608996ea593022d62f0121026326f8c3793ad2898952a2a8f115735e37e2889ae737cfbab1251cb14f04771a", "asm": "304402205366b9e1149492baeb9fb183932d76fd8f9c90a08dbd873e1fc898defdbc4dab022065714df844c6f1d18a935921097e8fc15bd9d16605ad54608996ea593022d62f[ALL] 026326f8c3793ad2898952a2a8f115735e37e2889ae737cfbab1251cb14f04771a"}, "vout": 1, "txid": "0163d84eb9436f581eaeccfa1cfea94d61e0664617667f291561ba95657fd471"}, {"sequence": 4294967295, "scriptSig": {"hex": "4730440220363baa8f67e767a566a28cf78740798b87676f125d689209cde44c14358fb06002205e3059c37d87da8325b1c87d8510d08b784ad59d58a83b50c081fd010e02e6d60121026326f8c3793ad2898952a2a8f115735e37e2889ae737cfbab1251cb14f04771a", "asm": "30440220363baa8f67e767a566a28cf78740798b87676f125d689209cde44c14358fb06002205e3059c37d87da8325b1c87d8510d08b784ad59d58a83b50c081fd010e02e6d6[ALL] 026326f8c3793ad2898952a2a8f115735e37e2889ae737cfbab1251cb14f04771a"}, "vout": 1, "txid": "01b10067a5554b087c73d166aa6c85baffcb897c6ac9d1110813d4779f939d9a"}], "txid": "dc8cefccbdca3fb36a76a8814174f5f7552d7e5202406ad0b5793e41765ca562", "blocktime": 1537870268, "version": 1, "confirmations": 11518, "time": 1537870268, "locktime": 0, "vsize": 1111, "size": 1111}