{"hash": "0185a4bce9c4e700edc1c42c621c5404aebe4c5df59124b9cc75101f4460adc1", "blockhash": "0000000000000000001cda96e906b7601b7a6fb1a3b62bca570a9e5d8f4b3de1", "vout": [{"scriptPubKey": {"reqSigs": 1, "hex": "76a9140165a2f00175e416bf9a75b50055d1e37a0767c488ac", "addresses": ["18PS23CRXQviGKGP9G9fjbB5bzcWht1ix"], "asm": "OP_DUP OP_HASH160 0165a2f00175e416bf9a75b50055d1e37a0767c4 OP_EQUALVERIFY OP_CHECKSIG", "type": "pubkeyhash"}, "value": 0.00780662, "n": 0}, {"scriptPubKey": {"reqSigs": 1, "hex": "a914ada4753546b2e8a07dfe5f328cee71273a383d2687", "addresses": ["3HX9qTjbRFDTBMGJ2SpxKYtAx2BqwJf25M"], "asm": "OP_HASH160 ada4753546b2e8a07dfe5f328cee71273a383d26 OP_EQUAL", "type": "scripthash"}, "value": 0.02455415, "n": 1}], "hex": "010000000001013b18b2377dd5a07b08e0e46c644bfd3fa4158ac4e8e97049c567b50bb598e0ee0100000017160014320721fcc6ebaa3cbf3b005468eeb5f19910c477ffffffff0276e90b00000000001976a9140165a2f00175e416bf9a75b50055d1e37a0767c488ac777725000000000017a914ada4753546b2e8a07dfe5f328cee71273a383d268702473044022031fc2657ae2b4f7377df7ace29033794daf4e6c04416c590c8042f2f5e4c78ec022038024ea5541162972f196a2dd4598486397267f8680a05fb2def6e7339204fa401210340da2a85308deac7b86829041e40c8b21cacb3a534c77fcacc41e8e71cea454e00000000", "vin": [{"txinwitness": ["3044022031fc2657ae2b4f7377df7ace29033794daf4e6c04416c590c8042f2f5e4c78ec022038024ea5541162972f196a2dd4598486397267f8680a05fb2def6e7339204fa401", "0340da2a85308deac7b86829041e40c8b21cacb3a534c77fcacc41e8e71cea454e"], "sequence": 4294967295, "scriptSig": {"hex": "160014320721fcc6ebaa3cbf3b005468eeb5f19910c477", "asm": "0014320721fcc6ebaa3cbf3b005468eeb5f19910c477"}, "vout": 1, "txid": "eee098b50bb567c54970e9e8c48a15a43ffd4b646ce4e0087ba0d57d37b2183b"}], "txid": "dc8dd87037b90d4aa38df8bfa704ce0b3c55b402ff567b49f5d8234d0bddfb43", "blocktime": 1537873282, "version": 1, "confirmations": 11481, "time": 1537873282, "locktime": 0, "vsize": 168, "size": 249}