{"hash": "dc9006dfdefad1e2390fb82d9a1b91faec1a6549cf9d4320fdd846ee091afd13", "blockhash": "0000000000000000001cda96e906b7601b7a6fb1a3b62bca570a9e5d8f4b3de1", "vout": [{"scriptPubKey": {"reqSigs": 1, "hex": "a914f8aaa495bf815259fc3bfe207deccee51586be3487", "addresses": ["3QMqvbTdmL1j78rEPsLK5M1aVkdy4xzSLF"], "asm": "OP_HASH160 f8aaa495bf815259fc3bfe207deccee51586be34 OP_EQUAL", "type": "scripthash"}, "value": 0.039026, "n": 0}, {"scriptPubKey": {"reqSigs": 1, "hex": "76a914ff53209d0fe94c18c72d472d2cde444e7018597b88ac", "addresses": ["1QH2ti9rNYTpzEVpJSc2wMKzvKZMgCfARw"], "asm": "OP_DUP OP_HASH160 ff53209d0fe94c18c72d472d2cde444e7018597b OP_EQUALVERIFY OP_CHECKSIG", "type": "pubkeyhash"}, "value": 0.02646625, "n": 1}], "hex": "0100000001240bb29e282a09499dba44e2e0de95b4a554c3bd052ea100810a4aec86526598010000006a4730440220212295789c0590df00f6fc5158c3d55e4eb527db50ca5541b6abd5254c3baad902207603a05104b67d9fc366427f36d0d3fadf38a2a66603324fca757cc5ba5d3daa012103f1517d5bb5e12bb90fc7fccde205b82d1d0c0e3c1b03bf6da586b888dd8bb571ffffffff02888c3b000000000017a914f8aaa495bf815259fc3bfe207deccee51586be348761622800000000001976a914ff53209d0fe94c18c72d472d2cde444e7018597b88ac00000000", "vin": [{"sequence": 4294967295, "scriptSig": {"hex": "4730440220212295789c0590df00f6fc5158c3d55e4eb527db50ca5541b6abd5254c3baad902207603a05104b67d9fc366427f36d0d3fadf38a2a66603324fca757cc5ba5d3daa012103f1517d5bb5e12bb90fc7fccde205b82d1d0c0e3c1b03bf6da586b888dd8bb571", "asm": "30440220212295789c0590df00f6fc5158c3d55e4eb527db50ca5541b6abd5254c3baad902207603a05104b67d9fc366427f36d0d3fadf38a2a66603324fca757cc5ba5d3daa[ALL] 03f1517d5bb5e12bb90fc7fccde205b82d1d0c0e3c1b03bf6da586b888dd8bb571"}, "vout": 1, "txid": "98655286ec4a0a8100a12e05bdc354a5b495dee0e244ba9d49092a289eb20b24"}], "txid": "dc9006dfdefad1e2390fb82d9a1b91faec1a6549cf9d4320fdd846ee091afd13", "blocktime": 1537873282, "version": 1, "confirmations": 11484, "time": 1537873282, "locktime": 0, "vsize": 223, "size": 223}