{"hash": "dc9070d7a13e52c40bb9afc0691273927d64bb03d70047bb2432c8cf87506888", "blockhash": "00000000000000000004ffacab907a6b429b9a5745fa0b75af4234bf69dd7176", "vout": [{"scriptPubKey": {"reqSigs": 1, "hex": "a914c92c48ae4c17a03c362dd1ceba5dfa7b3f181e5c87", "addresses": ["3L2io13ntWzQPxu54LXk9WvewfMy3FTxMH"], "asm": "OP_HASH160 c92c48ae4c17a03c362dd1ceba5dfa7b3f181e5c OP_EQUAL", "type": "scripthash"}, "value": 0.001, "n": 0}, {"scriptPubKey": {"reqSigs": 1, "hex": "76a914e980406100f1b02d9023620d15858ca5a5fb144c88ac", "addresses": ["1NHe5mQK8w5uu6QxqnWsd6M8fPLPiYGWzA"], "asm": "OP_DUP OP_HASH160 e980406100f1b02d9023620d15858ca5a5fb144c OP_EQUALVERIFY OP_CHECKSIG", "type": "pubkeyhash"}, "value": 0.07810064, "n": 1}], "hex": "0100000001e6368fb54ca17b293a5627527777d179880eb694e63e04a3c456b6b82310eab0010000006a473044022028d79c95a692b7ce552c4cc4a12c4393fbcc87970fc960f3d233cac7c120a25002207edffa1efe1e41d95fb871cf1c54b95529d11fc8b0436d954b1a39440ac4c1ec012103ad603f5d3610dce0c476cc5ff31b70d340cb842f4285d362fdb63d990e4c8e16ffffffff02a08601000000000017a914c92c48ae4c17a03c362dd1ceba5dfa7b3f181e5c87102c7700000000001976a914e980406100f1b02d9023620d15858ca5a5fb144c88ac00000000", "vin": [{"sequence": 4294967295, "scriptSig": {"hex": "473044022028d79c95a692b7ce552c4cc4a12c4393fbcc87970fc960f3d233cac7c120a25002207edffa1efe1e41d95fb871cf1c54b95529d11fc8b0436d954b1a39440ac4c1ec012103ad603f5d3610dce0c476cc5ff31b70d340cb842f4285d362fdb63d990e4c8e16", "asm": "3044022028d79c95a692b7ce552c4cc4a12c4393fbcc87970fc960f3d233cac7c120a25002207edffa1efe1e41d95fb871cf1c54b95529d11fc8b0436d954b1a39440ac4c1ec[ALL] 03ad603f5d3610dce0c476cc5ff31b70d340cb842f4285d362fdb63d990e4c8e16"}, "vout": 1, "txid": "b0ea1023b8b656c4a3043ee694b60e8879d177775227563a297ba14cb58f36e6"}], "txid": "dc9070d7a13e52c40bb9afc0691273927d64bb03d70047bb2432c8cf87506888", "blocktime": 1537875543, "version": 1, "confirmations": 11464, "time": 1537875543, "locktime": 0, "vsize": 223, "size": 223}