{"hash": "dc9d0732ef7e91926073db6b7b2517ff303047a280b6b14a89e98c1756dee685", "blockhash": "0000000000000000000baef3f32e3676a92c3b2e5da21b426e4f302fc371ce76", "vout": [{"scriptPubKey": {"reqSigs": 1, "hex": "76a914890f40df39f4b9f18fee538959202a0cfa318a3288ac", "addresses": ["1DVhr79cPbFMo4LQakBH2SvHabjETLzrRe"], "asm": "OP_DUP OP_HASH160 890f40df39f4b9f18fee538959202a0cfa318a32 OP_EQUALVERIFY OP_CHECKSIG", "type": "pubkeyhash"}, "value": 0.07976904, "n": 0}, {"scriptPubKey": {"reqSigs": 1, "hex": "76a914ee73f729cf8eb0adaa00579141ca052fe13195d588ac", "addresses": ["1Njpk5ZJJppux8hpQmTimEporxY3kQsWGg"], "asm": "OP_DUP OP_HASH160 ee73f729cf8eb0adaa00579141ca052fe13195d5 OP_EQUALVERIFY OP_CHECKSIG", "type": "pubkeyhash"}, "value": 0.13298802, "n": 1}], "hex": "0100000001e350f68c3926178bee0039efa7000f3cadee5a910bbf3f1414b54d45f6813979010000006a473044022079afee502c9b0d08e89b1acee2afd2135a7e0d240789a140b960ec290f65803a02204b35a4587f495d9765f95fb536290d68532a656291e14a2c510e3dad0c502e5b0121023ec84bef531e1417aa4284233f76977dbf6ceac8b7a230b02886ac862ec5030cfeffffff02c8b77900000000001976a914890f40df39f4b9f18fee538959202a0cfa318a3288ac72ecca00000000001976a914ee73f729cf8eb0adaa00579141ca052fe13195d588ac16490800", "vin": [{"sequence": 4294967294, "scriptSig": {"hex": "473044022079afee502c9b0d08e89b1acee2afd2135a7e0d240789a140b960ec290f65803a02204b35a4587f495d9765f95fb536290d68532a656291e14a2c510e3dad0c502e5b0121023ec84bef531e1417aa4284233f76977dbf6ceac8b7a230b02886ac862ec5030c", "asm": "3044022079afee502c9b0d08e89b1acee2afd2135a7e0d240789a140b960ec290f65803a02204b35a4587f495d9765f95fb536290d68532a656291e14a2c510e3dad0c502e5b[ALL] 023ec84bef531e1417aa4284233f76977dbf6ceac8b7a230b02886ac862ec5030c"}, "vout": 1, "txid": "793981f6454db514143fbf0b915aeead3c0f00a7ef3900ee8b1726398cf650e3"}], "txid": "dc9d0732ef7e91926073db6b7b2517ff303047a280b6b14a89e98c1756dee685", "blocktime": 1537876114, "version": 1, "confirmations": 11460, "time": 1537876114, "locktime": 542998, "vsize": 225, "size": 225}