{"hash": "dca15564d871b9104507bad04b2e2edd7b81834e48f4f1182050e97fa9637073", "blockhash": "0000000000000000001e0dab787dd257d1dbfcb92a98c2207d5e1078be1f4165", "vout": [{"scriptPubKey": {"reqSigs": 1, "hex": "a9144b4712c7c89a0febff4e82d0a63e307de4faa92287", "addresses": ["38Z3kCFKSXVQ737tg8ToxHcUzUJ4zrqpnr"], "asm": "OP_HASH160 4b4712c7c89a0febff4e82d0a63e307de4faa922 OP_EQUAL", "type": "scripthash"}, "value": 0.02657005, "n": 0}, {"scriptPubKey": {"reqSigs": 1, "hex": "76a91453271d673c36b4f017a10039adeb06804d3f618f88ac", "addresses": ["18afwfrCtwAvJRzCpXmLArYYE8PGf7hiPx"], "asm": "OP_DUP OP_HASH160 53271d673c36b4f017a10039adeb06804d3f618f OP_EQUALVERIFY OP_CHECKSIG", "type": "pubkeyhash"}, "value": 2.08746167, "n": 1}], "hex": "01000000014623afbc078a471c8897d1820b86d302230c3d7b2bbd702309b72be4a4ad9d8f010000006b483045022100cb3eddeb78f513628a83c5443c6a31a7e7b009570c8d691cc9369ad10955e49602200e721f8beaa9cc80bc1d9839d4f79c3c2dbc8c68787341c198de6e3ea1dc434301210271ec7a52bc0cad433d58418578def370610af8aef37a0652d1aeb1ef123e7a26ffffffff02ed8a28000000000017a9144b4712c7c89a0febff4e82d0a63e307de4faa92287b736710c000000001976a91453271d673c36b4f017a10039adeb06804d3f618f88ac00000000", "vin": [{"sequence": 4294967295, "scriptSig": {"hex": "483045022100cb3eddeb78f513628a83c5443c6a31a7e7b009570c8d691cc9369ad10955e49602200e721f8beaa9cc80bc1d9839d4f79c3c2dbc8c68787341c198de6e3ea1dc434301210271ec7a52bc0cad433d58418578def370610af8aef37a0652d1aeb1ef123e7a26", "asm": "3045022100cb3eddeb78f513628a83c5443c6a31a7e7b009570c8d691cc9369ad10955e49602200e721f8beaa9cc80bc1d9839d4f79c3c2dbc8c68787341c198de6e3ea1dc4343[ALL] 0271ec7a52bc0cad433d58418578def370610af8aef37a0652d1aeb1ef123e7a26"}, "vout": 1, "txid": "8f9dada4e42bb7092370bd2b7b3d0c2302d3860b82d197881c478a07bcaf2346"}], "txid": "dca15564d871b9104507bad04b2e2edd7b81834e48f4f1182050e97fa9637073", "blocktime": 1537872475, "version": 1, "confirmations": 11487, "time": 1537872475, "locktime": 0, "vsize": 224, "size": 224}