{"hash": "8350d4cc294cdf551d7af89290551218a50a24968d0ffdca0831a0b72e392017", "blockhash": "0000000000000000000baef3f32e3676a92c3b2e5da21b426e4f302fc371ce76", "vout": [{"scriptPubKey": {"type": "nulldata", "hex": "6a146f6d6e69000000000000001f00000129f2469980", "asm": "OP_RETURN 6f6d6e69000000000000001f00000129f2469980"}, "value": 0.0, "n": 0}, {"scriptPubKey": {"reqSigs": 1, "hex": "a914e818e90b8e6b38dba66f74b35cb708bbc73e2ea787", "addresses": ["3NrEXrB9qAxXYfRt6jKtBD8QzoU2qtNWDR"], "asm": "OP_HASH160 e818e90b8e6b38dba66f74b35cb708bbc73e2ea7 OP_EQUAL", "type": "scripthash"}, "value": 2.73e-05, "n": 1}, {"scriptPubKey": {"reqSigs": 1, "hex": "a914e818e90b8e6b38dba66f74b35cb708bbc73e2ea787", "addresses": ["3NrEXrB9qAxXYfRt6jKtBD8QzoU2qtNWDR"], "asm": "OP_HASH160 e818e90b8e6b38dba66f74b35cb708bbc73e2ea7 OP_EQUAL", "type": "scripthash"}, "value": 0.10681166, "n": 2}], "hex": "01000000000102d9a1a34a59a057f6628e4d4717a810035851425d7841392d1a9b53b85511ffd60100000017160014706a16e58463c3fa0c3b52ef6eb8fc092ae90415ffffffff5a639ef355e05b3f58b56b7567f6ed337352a9c701a4f3fe3af152973e8efb6b0100000017160014005b8e6c68ada584dae3ddb40b823e8f3eda4c1dffffffff030000000000000000166a146f6d6e69000000000000001f00000129f2469980aa0a00000000000017a914e818e90b8e6b38dba66f74b35cb708bbc73e2ea7874efba2000000000017a914e818e90b8e6b38dba66f74b35cb708bbc73e2ea78702483045022100c6e8ed511dfedfd946e198cafbdc4e5d1b8c24cb8f54d3cc5cbc603702150800022019d4027c906eef184085ab34a30a4cf528361f3ce0346852bf72db500a3b2ee001210318372e47322ec37af6fed96c8a799283ad3872109384df4ef627fceb4ac2460f0247304402200919bd0fbf5190f5db80f9c6a10261d907b690abeb6c44a1441c7b710c9a8407022002aab9d0c772ef086d8b78a0d61b08a248a3d5b02addd4bbc38d6b3f33202133012102e57ca7945357d97e2d895b83c9412822294934a3c6e15b077cdb75e0c9f78f7d00000000", "vin": [{"txinwitness": ["3045022100c6e8ed511dfedfd946e198cafbdc4e5d1b8c24cb8f54d3cc5cbc603702150800022019d4027c906eef184085ab34a30a4cf528361f3ce0346852bf72db500a3b2ee001", "0318372e47322ec37af6fed96c8a799283ad3872109384df4ef627fceb4ac2460f"], "sequence": 4294967295, "scriptSig": {"hex": "160014706a16e58463c3fa0c3b52ef6eb8fc092ae90415", "asm": "0014706a16e58463c3fa0c3b52ef6eb8fc092ae90415"}, "vout": 1, "txid": "d6ff1155b8539b1a2d3941785d4251580310a817474d8e62f657a0594aa3a1d9"}, {"txinwitness": ["304402200919bd0fbf5190f5db80f9c6a10261d907b690abeb6c44a1441c7b710c9a8407022002aab9d0c772ef086d8b78a0d61b08a248a3d5b02addd4bbc38d6b3f3320213301", "02e57ca7945357d97e2d895b83c9412822294934a3c6e15b077cdb75e0c9f78f7d"], "sequence": 4294967295, "scriptSig": {"hex": "160014005b8e6c68ada584dae3ddb40b823e8f3eda4c1d", "asm": "0014005b8e6c68ada584dae3ddb40b823e8f3eda4c1d"}, "vout": 1, "txid": "6bfb8e3e9752f13afef3a401c7a9527333edf667756bb5583f5be055f39e635a"}], "txid": "dca3ce4ef23132c62b587476ee8a0ebb40ff067689cc3456a86b10f150111ecf", "blocktime": 1537876114, "version": 1, "confirmations": 11460, "time": 1537876114, "locktime": 0, "vsize": 288, "size": 450}