{"hash": "dca3db7501b05f7d76fba075b16c6e9bd21d267722d6a46136b3a45b52b935d6", "blockhash": "00000000000000000004ffacab907a6b429b9a5745fa0b75af4234bf69dd7176", "vout": [{"scriptPubKey": {"reqSigs": 1, "hex": "76a914d243e6abb9a60fbff430b421d2df4b7d59ec186088ac", "addresses": ["1LAnF8h3qMGx3TSwNUHVneBZUEpwE4gu3D"], "asm": "OP_DUP OP_HASH160 d243e6abb9a60fbff430b421d2df4b7d59ec1860 OP_EQUALVERIFY OP_CHECKSIG", "type": "pubkeyhash"}, "value": 0.00077314, "n": 0}, {"scriptPubKey": {"reqSigs": 1, "hex": "76a91417d526d33ec92a8ded88d7392b1634b87deca6e588ac", "addresses": ["13B1tT3tBAJNirFPhCbbpYvh81VT6gKx7o"], "asm": "OP_DUP OP_HASH160 17d526d33ec92a8ded88d7392b1634b87deca6e5 OP_EQUALVERIFY OP_CHECKSIG", "type": "pubkeyhash"}, "value": 5.46e-06, "n": 1}, {"scriptPubKey": {"type": "nulldata", "hex": "6a146f6d6e69000000000000001f000004a210def420", "asm": "OP_RETURN 6f6d6e69000000000000001f000004a210def420"}, "value": 0.0, "n": 2}], "hex": "0100000001bfc49113029f7d5cd1274ef9a07c1e43a4581c16227ced9e13d658cda1deb1a5000000006b483045022100be78f8d1edabd7fec5bac4078dc178f69def3242dcd6df49c94c2c880dab810002202f0852f4cbd9eb6eccc25fa685546e6ceef4e7ea67a5db0617d1a343b567074001210271977291b74f1f5f5c42157e8aae804664eaaeccfd097918450d37f28fb94d77ffffffff03022e0100000000001976a914d243e6abb9a60fbff430b421d2df4b7d59ec186088ac22020000000000001976a91417d526d33ec92a8ded88d7392b1634b87deca6e588ac0000000000000000166a146f6d6e69000000000000001f000004a210def42000000000", "vin": [{"sequence": 4294967295, "scriptSig": {"hex": "483045022100be78f8d1edabd7fec5bac4078dc178f69def3242dcd6df49c94c2c880dab810002202f0852f4cbd9eb6eccc25fa685546e6ceef4e7ea67a5db0617d1a343b567074001210271977291b74f1f5f5c42157e8aae804664eaaeccfd097918450d37f28fb94d77", "asm": "3045022100be78f8d1edabd7fec5bac4078dc178f69def3242dcd6df49c94c2c880dab810002202f0852f4cbd9eb6eccc25fa685546e6ceef4e7ea67a5db0617d1a343b5670740[ALL] 0271977291b74f1f5f5c42157e8aae804664eaaeccfd097918450d37f28fb94d77"}, "vout": 0, "txid": "a5b1dea1cd58d6139eed7c22161c58a4431e7ca0f94e27d15c7d9f021391c4bf"}], "txid": "dca3db7501b05f7d76fba075b16c6e9bd21d267722d6a46136b3a45b52b935d6", "blocktime": 1537875543, "version": 1, "confirmations": 11464, "time": 1537875543, "locktime": 0, "vsize": 257, "size": 257}