{"hash": "dcaae544983e144839564155b4b9cfa6e595de45eae850b9b27136f6d5707577", "blockhash": "0000000000000000001f76057863aec43deb6fa401d9628bb513d65a8098bfab", "vout": [{"scriptPubKey": {"reqSigs": 1, "hex": "76a9144d462c7413e673bed3faa503ff36df54321a91ae88ac", "addresses": ["183b6XErGSmV3J9t4BjK6GDoFamzDBw1mr"], "asm": "OP_DUP OP_HASH160 4d462c7413e673bed3faa503ff36df54321a91ae OP_EQUALVERIFY OP_CHECKSIG", "type": "pubkeyhash"}, "value": 0.034186, "n": 0}, {"scriptPubKey": {"reqSigs": 1, "hex": "76a91491808220a9f1701a4318ecad0b472b0b25ed265a88ac", "addresses": ["1EGLvjJfDRHqRfp2NcDhaddFYVkseMx8aL"], "asm": "OP_DUP OP_HASH160 91808220a9f1701a4318ecad0b472b0b25ed265a OP_EQUALVERIFY OP_CHECKSIG", "type": "pubkeyhash"}, "value": 10.55669896, "n": 1}], "hex": "0100000001c3fbe5f286d4709ae5cabd2c1c3c19dd92b63c2b96847739dd1f590e22b552f4030000006b483045022100ab25a9d46926613f91d73c86c027ffc291cb068120681caf5e9fdf070f429b35022054d8539369433a22492cffa8ef5f45b0fca1933f38c675b8afb8aae0cecd1b8301210396f85c7e3a231bd81764df08fa0dafdc86d94d17c170d77e0ab1534628377c6fffffffff02e8293400000000001976a9144d462c7413e673bed3faa503ff36df54321a91ae88ac883eec3e000000001976a91491808220a9f1701a4318ecad0b472b0b25ed265a88ac00000000", "vin": [{"sequence": 4294967295, "scriptSig": {"hex": "483045022100ab25a9d46926613f91d73c86c027ffc291cb068120681caf5e9fdf070f429b35022054d8539369433a22492cffa8ef5f45b0fca1933f38c675b8afb8aae0cecd1b8301210396f85c7e3a231bd81764df08fa0dafdc86d94d17c170d77e0ab1534628377c6f", "asm": "3045022100ab25a9d46926613f91d73c86c027ffc291cb068120681caf5e9fdf070f429b35022054d8539369433a22492cffa8ef5f45b0fca1933f38c675b8afb8aae0cecd1b83[ALL] 0396f85c7e3a231bd81764df08fa0dafdc86d94d17c170d77e0ab1534628377c6f"}, "vout": 3, "txid": "f452b5220e591fdd397784962b3cb692dd193c1c2cbdcae59a70d486f2e5fbc3"}], "txid": "dcaae544983e144839564155b4b9cfa6e595de45eae850b9b27136f6d5707577", "blocktime": 1537873891, "version": 1, "confirmations": 11478, "time": 1537873891, "locktime": 0, "vsize": 226, "size": 226}