{"hash": "4af3180ea327f081814d02460180d86b4b056e7e9ddea549eaefe33fb60a9c2d", "blockhash": "0000000000000000000e13cef7c366c0283d82e591d1acd082e914b08063cdf1", "vout": [{"scriptPubKey": {"reqSigs": 1, "hex": "76a914b2b7029e493d4f6766c9a6738593ea3fd74ae69488ac", "addresses": ["1HHxWvKjU7zzjaiEdjzYq2WqN51uDyLSCy"], "asm": "OP_DUP OP_HASH160 b2b7029e493d4f6766c9a6738593ea3fd74ae694 OP_EQUALVERIFY OP_CHECKSIG", "type": "pubkeyhash"}, "value": 0.038957, "n": 0}, {"scriptPubKey": {"reqSigs": 1, "hex": "a914d7f1f0bfe7c2dfda0fd9cfdde08c7706ed65df5b87", "addresses": ["3MNq36vb1wZdNahbKaPLFMtv4LgP4LHR3L"], "asm": "OP_HASH160 d7f1f0bfe7c2dfda0fd9cfdde08c7706ed65df5b OP_EQUAL", "type": "scripthash"}, "value": 0.35256167, "n": 1}], "hex": "0200000000010118eee6bb297349af1792e4531250861ebf264f915331cbb129dd2cdaae1336b20100000017160014678cdb8e49644cce00f85f94b0035cd18fc61776ffffffff0294713b00000000001976a914b2b7029e493d4f6766c9a6738593ea3fd74ae69488ac67f719020000000017a914d7f1f0bfe7c2dfda0fd9cfdde08c7706ed65df5b8702473044022032470f3bad9c6f2f89eb0b472f87b0d2858e47d088fbc00b595dab9de7c381080220068dc95f785167a8a8a9efc13a9e329b8ebc215cccf9c8ede5e280b50b0c5b760121035e55607833cc544f8cdab9c86ce98c1f06becd134206095528de636bc7e05c7500000000", "vin": [{"txinwitness": ["3044022032470f3bad9c6f2f89eb0b472f87b0d2858e47d088fbc00b595dab9de7c381080220068dc95f785167a8a8a9efc13a9e329b8ebc215cccf9c8ede5e280b50b0c5b7601", "035e55607833cc544f8cdab9c86ce98c1f06becd134206095528de636bc7e05c75"], "sequence": 4294967295, "scriptSig": {"hex": "160014678cdb8e49644cce00f85f94b0035cd18fc61776", "asm": "0014678cdb8e49644cce00f85f94b0035cd18fc61776"}, "vout": 1, "txid": "b23613aeda2cdd29b1cb3153914f26bf1e86501253e49217af497329bbe6ee18"}], "txid": "dcb13b09c8fa77a34b2b583d58a05b76179389d65d2d154dae7fe6339edac7a6", "blocktime": 1537871767, "version": 2, "confirmations": 11491, "time": 1537871767, "locktime": 0, "vsize": 168, "size": 249}