{"hash": "2a64bcc11b1838d1465c28a3d4837f82d50236fab7c54cbdf9c96135fb93bf77", "blockhash": "0000000000000000001e0dab787dd257d1dbfcb92a98c2207d5e1078be1f4165", "vout": [{"scriptPubKey": {"reqSigs": 1, "hex": "a914f32cbb7a966fad7a4907d433d5d5d4371e786cd587", "addresses": ["3ProiDUmWGmKPJk78aF6vYdJ9bCgg7BrLS"], "asm": "OP_HASH160 f32cbb7a966fad7a4907d433d5d5d4371e786cd5 OP_EQUAL", "type": "scripthash"}, "value": 0.11954317, "n": 0}, {"scriptPubKey": {"reqSigs": 1, "hex": "a914cec5398d30a1a929cfff84a301e53d6d22de3b6787", "addresses": ["3LYKPUr17Kmf83qKwZKtpJsBseUKdCuNHz"], "asm": "OP_HASH160 cec5398d30a1a929cfff84a301e53d6d22de3b67 OP_EQUAL", "type": "scripthash"}, "value": 0.22443749, "n": 1}], "hex": "010000000001023cb28cee78f4ea359cd4f2f48c99e5cae3017a8b51ef624b68f2c41df9c3744c030000001716001472eeb9d09e2a1ee1e60099cf0b82e6cf229213c8ffffffffd7e00c0c7c9ec1533c851291747042ff2f3d8eacccb0b27221ac168987e1139f0300000017160014755569e85b293553ddaf211d5379e8114e1fe057ffffffff028d68b6000000000017a914f32cbb7a966fad7a4907d433d5d5d4371e786cd587e57656010000000017a914cec5398d30a1a929cfff84a301e53d6d22de3b67870248304502210095c236b55920383fa869fe7f5a994f4730cc5c27f3c1d432a6a2316648ac007d02206e6ffe1736b4f6097c5df61c8020af4c43ea489e60eac9b38fc12c19fd0d33db01210337476e3facf6f5656f371c4fda05f7e5e6c6cae2ceb26952ab4f4ed5bce4b8e602483045022100fbadc1e3dac46cd963b89b634a8a1ffe5e29d87940dcb7ac5f227c845cef11c0022068c93c3fbf426fa25a5989d2108e118d7403592d124f3a55330f378c7becfc12012103b16578f080587ace4f028e0928df6a60d4f33c9237e77ad11103a8f59705dede00000000", "vin": [{"txinwitness": ["304502210095c236b55920383fa869fe7f5a994f4730cc5c27f3c1d432a6a2316648ac007d02206e6ffe1736b4f6097c5df61c8020af4c43ea489e60eac9b38fc12c19fd0d33db01", "0337476e3facf6f5656f371c4fda05f7e5e6c6cae2ceb26952ab4f4ed5bce4b8e6"], "sequence": 4294967295, "scriptSig": {"hex": "16001472eeb9d09e2a1ee1e60099cf0b82e6cf229213c8", "asm": "001472eeb9d09e2a1ee1e60099cf0b82e6cf229213c8"}, "vout": 3, "txid": "4c74c3f91dc4f2684b62ef518b7a01e3cae5998cf4f2d49c35eaf478ee8cb23c"}, {"txinwitness": ["3045022100fbadc1e3dac46cd963b89b634a8a1ffe5e29d87940dcb7ac5f227c845cef11c0022068c93c3fbf426fa25a5989d2108e118d7403592d124f3a55330f378c7becfc1201", "03b16578f080587ace4f028e0928df6a60d4f33c9237e77ad11103a8f59705dede"], "sequence": 4294967295, "scriptSig": {"hex": "160014755569e85b293553ddaf211d5379e8114e1fe057", "asm": "0014755569e85b293553ddaf211d5379e8114e1fe057"}, "vout": 3, "txid": "9f13e1878916ac2172b2b0ccac8e3d2fff4270749112853c53c19e7c0c0ce0d7"}], "txid": "dcb4d71782f16b4925385ab440bb073d50161e56adce2c3a3fea1220d0a5905b", "blocktime": 1537872475, "version": 1, "confirmations": 11486, "time": 1537872475, "locktime": 0, "vsize": 257, "size": 420}