{"hash": "dcb922a1cfb935fb3e5fe0a7dd839d0be320249eca82d66b52ce59e9f78963fe", "blockhash": "00000000000000000017f5eb5941039fbcee6240d03bc1f2f8e35350df66a1d8", "vout": [{"scriptPubKey": {"type": "nulldata", "hex": "6a146f6d6e69000000000000001f000000183953edad", "asm": "OP_RETURN 6f6d6e69000000000000001f000000183953edad"}, "value": 0.0, "n": 0}, {"scriptPubKey": {"reqSigs": 1, "hex": "76a914cba695c48fc8626e1afb5d5c2b7065117583e74088ac", "addresses": ["1KZojUQCLefqdF5WQmr7RhCHzT3G9hAc5Z"], "asm": "OP_DUP OP_HASH160 cba695c48fc8626e1afb5d5c2b7065117583e740 OP_EQUALVERIFY OP_CHECKSIG", "type": "pubkeyhash"}, "value": 5.46e-06, "n": 1}, {"scriptPubKey": {"reqSigs": 1, "hex": "76a91412aed4a2fed565f0f473b3688e60246576710f2a88ac", "addresses": ["12hnbu1xVuYF4VhaXYFyw6Pq2eudj3CG4g"], "asm": "OP_DUP OP_HASH160 12aed4a2fed565f0f473b3688e60246576710f2a OP_EQUALVERIFY OP_CHECKSIG", "type": "pubkeyhash"}, "value": 0.77341152, "n": 2}], "hex": "0100000001627c3169edcfef5303e14a204edf7ad1152c13269139a4a6414ac314e8a38bf5000000006b48304502210092c29e7791ca7f5803f1218e580ec59b326058f37771479ae44ae782ec25de9b022027d039a507449c4312dee28350909203f9270b754f4d2e99058b88af632719960121034eac30c603f2c1df608b63739b5386726f6cd1cda40a969a15fb2f61da507d31feffffff030000000000000000166a146f6d6e69000000000000001f000000183953edad22020000000000001976a914cba695c48fc8626e1afb5d5c2b7065117583e74088ace0219c04000000001976a91412aed4a2fed565f0f473b3688e60246576710f2a88ac15490800", "vin": [{"sequence": 4294967294, "scriptSig": {"hex": "48304502210092c29e7791ca7f5803f1218e580ec59b326058f37771479ae44ae782ec25de9b022027d039a507449c4312dee28350909203f9270b754f4d2e99058b88af632719960121034eac30c603f2c1df608b63739b5386726f6cd1cda40a969a15fb2f61da507d31", "asm": "304502210092c29e7791ca7f5803f1218e580ec59b326058f37771479ae44ae782ec25de9b022027d039a507449c4312dee28350909203f9270b754f4d2e99058b88af63271996[ALL] 034eac30c603f2c1df608b63739b5386726f6cd1cda40a969a15fb2f61da507d31"}, "vout": 0, "txid": "f58ba3e814c34a41a6a4399126132c15d17adf4e204ae10353efcfed69317c62"}], "txid": "dcb922a1cfb935fb3e5fe0a7dd839d0be320249eca82d66b52ce59e9f78963fe", "blocktime": 1537874412, "version": 1, "confirmations": 11467, "time": 1537874412, "locktime": 542997, "vsize": 257, "size": 257}