{"hash": "dcbb9a1de877f0ff4f7c1c41dd62a8bce6d3910ad83ec80028e021139f1d1864", "blockhash": "0000000000000000001cda96e906b7601b7a6fb1a3b62bca570a9e5d8f4b3de1", "vout": [{"scriptPubKey": {"reqSigs": 1, "hex": "76a9145a7081c27cd19fd83bc731e3079b9df0de03065b88ac", "addresses": ["19FCbP1ESHWfL9QBmfn3REhkNAAnLKyTcL"], "asm": "OP_DUP OP_HASH160 5a7081c27cd19fd83bc731e3079b9df0de03065b OP_EQUALVERIFY OP_CHECKSIG", "type": "pubkeyhash"}, "value": 0.007807, "n": 0}, {"scriptPubKey": {"reqSigs": 1, "hex": "76a914c0838d6710ef14536d5d655184122cfba6bf511688ac", "addresses": ["1JYvLFTRKVrD2fEGy33uFxPXnLCAd1bKnQ"], "asm": "OP_DUP OP_HASH160 c0838d6710ef14536d5d655184122cfba6bf5116 OP_EQUALVERIFY OP_CHECKSIG", "type": "pubkeyhash"}, "value": 0.04964964, "n": 1}], "hex": "01000000010636f41170fff775fc8650ef50721926fd56157dbe3d400815d3855db8883b63010000006a47304402203af5941b782d7c7c8943bf57d8ed159a8ecc2261cb6006339e2c6d0087a6521002203d69090443c33eea5a0442ed2803067a7f2aecff7f65cf0993f1e2b72ac7026601210261b47d1e2c969c6f6f850e815705739a96143175cd4bff92ff3d3ef668267effffffffff029ce90b00000000001976a9145a7081c27cd19fd83bc731e3079b9df0de03065b88ac64c24b00000000001976a914c0838d6710ef14536d5d655184122cfba6bf511688ac00000000", "vin": [{"sequence": 4294967295, "scriptSig": {"hex": "47304402203af5941b782d7c7c8943bf57d8ed159a8ecc2261cb6006339e2c6d0087a6521002203d69090443c33eea5a0442ed2803067a7f2aecff7f65cf0993f1e2b72ac7026601210261b47d1e2c969c6f6f850e815705739a96143175cd4bff92ff3d3ef668267eff", "asm": "304402203af5941b782d7c7c8943bf57d8ed159a8ecc2261cb6006339e2c6d0087a6521002203d69090443c33eea5a0442ed2803067a7f2aecff7f65cf0993f1e2b72ac70266[ALL] 0261b47d1e2c969c6f6f850e815705739a96143175cd4bff92ff3d3ef668267eff"}, "vout": 1, "txid": "633b88b85d85d31508403dbe7d1556fd26197250ef5086fc75f7ff7011f43606"}], "txid": "dcbb9a1de877f0ff4f7c1c41dd62a8bce6d3910ad83ec80028e021139f1d1864", "blocktime": 1537873282, "version": 1, "confirmations": 11482, "time": 1537873282, "locktime": 0, "vsize": 225, "size": 225}