{"hash": "14a3bf5f52e294a71c915df04f97a8802f21296597e9a47d0b2f562d94d6b819", "blockhash": "000000000000000000022b45ed06c6f4ccd3cf7fb5ba4856ebd2e58215665228", "vout": [{"scriptPubKey": {"reqSigs": 1, "hex": "0014eb4363c239ba1493bbc853d3927d521f65ae48c9", "addresses": ["bc1qadpk8s3ehg2f8w7g20feyl2jraj6ujxfcxslz7"], "asm": "0 eb4363c239ba1493bbc853d3927d521f65ae48c9", "type": "witness_v0_keyhash"}, "value": 0.00037901, "n": 0}, {"scriptPubKey": {"reqSigs": 1, "hex": "a914bf1496c22cec1e51705238509f6f7f3edc532aa787", "addresses": ["3K7Mej1y178EB61GfWhvLrPzQ7yMan8g5r"], "asm": "OP_HASH160 bf1496c22cec1e51705238509f6f7f3edc532aa7 OP_EQUAL", "type": "scripthash"}, "value": 0.006, "n": 1}], "hex": "0100000000010145c1fa84f89777b05567c6bb166732791197f403dce9d1d3c28261e592af116d000000001716001452b27b986c04ff867120753a3d7d4131805cf1f1ffffffff020d94000000000000160014eb4363c239ba1493bbc853d3927d521f65ae48c9c02709000000000017a914bf1496c22cec1e51705238509f6f7f3edc532aa78702483045022100ba59feb07f2121edb6083c5644dcbc0defecfaf0c01307bbdf1cf32eac5b6c720220032a338b8ac87f34e5d4f48cec7abd7a67d8d03224b78170b9d92a62cdb51520012103bff7d63d9e214dd0a1ef2954f3507fef8761ed0cf35bc208b3be823a8f4b1a9800000000", "vin": [{"txinwitness": ["3045022100ba59feb07f2121edb6083c5644dcbc0defecfaf0c01307bbdf1cf32eac5b6c720220032a338b8ac87f34e5d4f48cec7abd7a67d8d03224b78170b9d92a62cdb5152001", "03bff7d63d9e214dd0a1ef2954f3507fef8761ed0cf35bc208b3be823a8f4b1a98"], "sequence": 4294967295, "scriptSig": {"hex": "16001452b27b986c04ff867120753a3d7d4131805cf1f1", "asm": "001452b27b986c04ff867120753a3d7d4131805cf1f1"}, "vout": 0, "txid": "6d11af92e56182c2d3d1e9dc03f4971179326716bbc66755b07797f884fac145"}], "txid": "dcbc0b03e391d052a68580228044d7c1c75a8fbb68d586f077067160974c8594", "blocktime": 1537869901, "version": 1, "confirmations": 11523, "time": 1537869901, "locktime": 0, "vsize": 165, "size": 247}