{"hash": "6f4e0237b35ffdfb4f215c0fe599e923ab65451e7cc785a0ee91c236c9905dd6", "blockhash": "00000000000000000017f5eb5941039fbcee6240d03bc1f2f8e35350df66a1d8", "vout": [{"scriptPubKey": {"reqSigs": 1, "hex": "76a9149a1b8f9b1fa2d2297863adb1cb11c71df455684888ac", "addresses": ["1F3r5We2zwNiSzG6GQUTTWnnPMCz2HJbJu"], "asm": "OP_DUP OP_HASH160 9a1b8f9b1fa2d2297863adb1cb11c71df4556848 OP_EQUALVERIFY OP_CHECKSIG", "type": "pubkeyhash"}, "value": 2.685e-05, "n": 0}, {"scriptPubKey": {"reqSigs": 1, "hex": "a9148ddb66c3371910a0ef8f38021cc4094e61e69f3a87", "addresses": ["3Ed62sPENkraPwpovPty9YMFGJ8FtTyv63"], "asm": "OP_HASH160 8ddb66c3371910a0ef8f38021cc4094e61e69f3a OP_EQUAL", "type": "scripthash"}, "value": 0.00019539, "n": 1}], "hex": "01000000000101632bb4db2b6f8f0ea615c038fe837abaebc454df49b02c6818e80cf18f2a59470100000023220020fdd23d707f55451c4e006c77b5e8df35a185a8e99f9bda70bf0ded7913bb1eb3ffffffff027d0a0000000000001976a9149a1b8f9b1fa2d2297863adb1cb11c71df455684888ac534c00000000000017a9148ddb66c3371910a0ef8f38021cc4094e61e69f3a870400483045022100ad17dba92d35cad85c9a7eec693b9ed5ee25366a1a79f2ab7ec42c85b68d6ead0220359dd808bb0a0038aa0f751aa98c70102e019274390752af2d7bbdfe4138c1b20147304402207776f27391b0b117ec97bec9340043219283fc5c1b2aae68d052c52b45cf7f64022019f834e6337352dcb7f3ee54d65aa4bad38116638fccfef345e01a167f9a0fc7014752210286c104577b978160849865bc23f9a6df9b53d41c8ffb486754b97b2a474a181c2103148c80a5bdfddb05ff5bcffc397c8ca748d8b435ec6a175bc9d7bfc7fc6f853752ae00000000", "vin": [{"txinwitness": ["", "3045022100ad17dba92d35cad85c9a7eec693b9ed5ee25366a1a79f2ab7ec42c85b68d6ead0220359dd808bb0a0038aa0f751aa98c70102e019274390752af2d7bbdfe4138c1b201", "304402207776f27391b0b117ec97bec9340043219283fc5c1b2aae68d052c52b45cf7f64022019f834e6337352dcb7f3ee54d65aa4bad38116638fccfef345e01a167f9a0fc701", "52210286c104577b978160849865bc23f9a6df9b53d41c8ffb486754b97b2a474a181c2103148c80a5bdfddb05ff5bcffc397c8ca748d8b435ec6a175bc9d7bfc7fc6f853752ae"], "sequence": 4294967295, "scriptSig": {"hex": "220020fdd23d707f55451c4e006c77b5e8df35a185a8e99f9bda70bf0ded7913bb1eb3", "asm": "0020fdd23d707f55451c4e006c77b5e8df35a185a8e99f9bda70bf0ded7913bb1eb3"}, "vout": 1, "txid": "47592a8ff10ce818682cb049df54c4ebba7a83fe38c015a60e8f6f2bdbb42b63"}], "txid": "dcbe2a41797250bea2c260265361cc44ea9de951986be233010d136d4c51269a", "blocktime": 1537874412, "version": 1, "confirmations": 11468, "time": 1537874412, "locktime": 0, "vsize": 208, "size": 373}