{"hash": "dcc0ac5909aa1c2878951c301f67dbf62baa38bdac7849b4f4db3950f18852da", "blockhash": "00000000000000000024a2167bbff67b0be802c0b01cdd79e6331c2be6459f87", "vout": [{"scriptPubKey": {"reqSigs": 1, "hex": "a914a1c1bf137f7158d748e0f61cd7f87d1201e802f087", "addresses": ["3GSJpASzhAxgpJ2CVfScx549dY8cR1DWwd"], "asm": "OP_HASH160 a1c1bf137f7158d748e0f61cd7f87d1201e802f0 OP_EQUAL", "type": "scripthash"}, "value": 0.00433662, "n": 0}, {"scriptPubKey": {"reqSigs": 1, "hex": "76a914b36e1919b1745552b21d8bed60d6c129ea70cc6888ac", "addresses": ["1HMjr5t5eNSzVRcdRR9WzpbFHV5LWBSq2p"], "asm": "OP_DUP OP_HASH160 b36e1919b1745552b21d8bed60d6c129ea70cc68 OP_EQUALVERIFY OP_CHECKSIG", "type": "pubkeyhash"}, "value": 0.04208984, "n": 1}], "hex": "0100000001d63b80e195c2b324d71eea0587ef9ce5770758ec9f088e4b355622c16fd35d0b010000006b483045022100d043d1ca097be595a9d05b10cbfed17a148bc3b4536f0575b21fbe305604d408022019629149aca6fcc098cd740e81d93d9d786d3c5a29ee9f67e0c9b87aef08bbce012103d021236a78f75c27df411f73c24e090d644d73148be8f5cf9658d870c69776dbffffffff02fe9d06000000000017a914a1c1bf137f7158d748e0f61cd7f87d1201e802f08758394000000000001976a914b36e1919b1745552b21d8bed60d6c129ea70cc6888ac00000000", "vin": [{"sequence": 4294967295, "scriptSig": {"hex": "483045022100d043d1ca097be595a9d05b10cbfed17a148bc3b4536f0575b21fbe305604d408022019629149aca6fcc098cd740e81d93d9d786d3c5a29ee9f67e0c9b87aef08bbce012103d021236a78f75c27df411f73c24e090d644d73148be8f5cf9658d870c69776db", "asm": "3045022100d043d1ca097be595a9d05b10cbfed17a148bc3b4536f0575b21fbe305604d408022019629149aca6fcc098cd740e81d93d9d786d3c5a29ee9f67e0c9b87aef08bbce[ALL] 03d021236a78f75c27df411f73c24e090d644d73148be8f5cf9658d870c69776db"}, "vout": 1, "txid": "0b5dd36fc12256354b8e089fec580777e59cef8705ea1ed724b3c295e1803bd6"}], "txid": "dcc0ac5909aa1c2878951c301f67dbf62baa38bdac7849b4f4db3950f18852da", "blocktime": 1537870564, "version": 1, "confirmations": 11515, "time": 1537870564, "locktime": 0, "vsize": 224, "size": 224}