{"hash": "7424eb4d0a4bb7c3e3d7bf2528850f0e46cc1c41623df8911aeea09b1b7963dd", "blockhash": "0000000000000000000dcc0f55137456b1a82d3642486a52398922ac4d620174", "vout": [{"scriptPubKey": {"reqSigs": 1, "hex": "a914016cdf6290c81326c1c5fdd2d4c2a85f2dbfbf0287", "addresses": ["31pZ2LTYBzVhGLdJ4DivCoo9cEmbf4qTW2"], "asm": "OP_HASH160 016cdf6290c81326c1c5fdd2d4c2a85f2dbfbf02 OP_EQUAL", "type": "scripthash"}, "value": 0.01431519, "n": 0}, {"scriptPubKey": {"reqSigs": 1, "hex": "a91481ec82f5853ad493a77b31e38eae2f1e3477805e87", "addresses": ["3DXzRQDUqTEfiMUp3iqmWRW8mGJG74UtWi"], "asm": "OP_HASH160 81ec82f5853ad493a77b31e38eae2f1e3477805e OP_EQUAL", "type": "scripthash"}, "value": 0.15588416, "n": 1}], "hex": "020000000001019de33348db7731e3e59ba488a37357c50b6f2714d2e47d111c60db11d4655ee701000000171600144fb9b10d6b99134f432df915f1d4ae84a43f8916ffffffff02dfd715000000000017a914016cdf6290c81326c1c5fdd2d4c2a85f2dbfbf028740dced000000000017a91481ec82f5853ad493a77b31e38eae2f1e3477805e8702483045022100d4c76a3a488800c1950c6b73c87b48a0d7f3711d2ee7d05b6af5b63537b5abd1022006b23175ad5cc5cd9173a7bc1b7088d71930c47bdcfb6e404246a87cabcf3bad0121025b89ce1085c9536af6bb1a7fe6160de0bd548b789fc8b8caa7efe96334f280ec00000000", "vin": [{"txinwitness": ["3045022100d4c76a3a488800c1950c6b73c87b48a0d7f3711d2ee7d05b6af5b63537b5abd1022006b23175ad5cc5cd9173a7bc1b7088d71930c47bdcfb6e404246a87cabcf3bad01", "025b89ce1085c9536af6bb1a7fe6160de0bd548b789fc8b8caa7efe96334f280ec"], "sequence": 4294967295, "scriptSig": {"hex": "1600144fb9b10d6b99134f432df915f1d4ae84a43f8916", "asm": "00144fb9b10d6b99134f432df915f1d4ae84a43f8916"}, "vout": 1, "txid": "e75e65d411db601c117de4d214276f0bc55773a388a49be5e33177db4833e39d"}], "txid": "dcc3dbf8afbab6542154d5b552e700a39c11763051eef5e506f35ac18246096a", "blocktime": 1537870268, "version": 2, "confirmations": 11516, "time": 1537870268, "locktime": 0, "vsize": 166, "size": 248}