{"hash": "dcc5910ab992cadddc5ed9ca55a4163b7bc19eb8be63cde3bc3d778570cb6ff9", "blockhash": "00000000000000000004ffacab907a6b429b9a5745fa0b75af4234bf69dd7176", "vout": [{"scriptPubKey": {"reqSigs": 1, "hex": "76a914a29f244d5cfaebbceddcd7705cf0c98bc091141a88ac", "addresses": ["1Fps7ShKdxfQinN2Zch93RnueqUAoHkz2W"], "asm": "OP_DUP OP_HASH160 a29f244d5cfaebbceddcd7705cf0c98bc091141a OP_EQUALVERIFY OP_CHECKSIG", "type": "pubkeyhash"}, "value": 0.00243775, "n": 0}, {"scriptPubKey": {"reqSigs": 1, "hex": "76a914dd2929c7f878931f5d0359f7785ed11de526ad6088ac", "addresses": ["1MAPeTvzFU8u3w9MgybHY8BPPLgdixyrAg"], "asm": "OP_DUP OP_HASH160 dd2929c7f878931f5d0359f7785ed11de526ad60 OP_EQUALVERIFY OP_CHECKSIG", "type": "pubkeyhash"}, "value": 0.0005672, "n": 1}], "hex": "0200000001d4834d01c41e340404b9234e65ba57e4fe4278f3ae3e665c0db77d4014fae46a010000006b4830450221008edc39ec47f23b1004095e89144c2c202b7ec84c5f904e79540b1020e682572d022075592af98a84927506b0a8601606108efbc3f7f5824fffbc9512fb06fc4ae0820121036bd207b4647593e0d23713bf7790d96ef94e67b67100db2c35e1e064789a49f6ffffffff023fb80300000000001976a914a29f244d5cfaebbceddcd7705cf0c98bc091141a88ac90dd0000000000001976a914dd2929c7f878931f5d0359f7785ed11de526ad6088ac00000000", "vin": [{"sequence": 4294967295, "scriptSig": {"hex": "4830450221008edc39ec47f23b1004095e89144c2c202b7ec84c5f904e79540b1020e682572d022075592af98a84927506b0a8601606108efbc3f7f5824fffbc9512fb06fc4ae0820121036bd207b4647593e0d23713bf7790d96ef94e67b67100db2c35e1e064789a49f6", "asm": "30450221008edc39ec47f23b1004095e89144c2c202b7ec84c5f904e79540b1020e682572d022075592af98a84927506b0a8601606108efbc3f7f5824fffbc9512fb06fc4ae082[ALL] 036bd207b4647593e0d23713bf7790d96ef94e67b67100db2c35e1e064789a49f6"}, "vout": 1, "txid": "6ae4fa14407db70d5c663eaef37842fee457ba654e23b90404341ec4014d83d4"}], "txid": "dcc5910ab992cadddc5ed9ca55a4163b7bc19eb8be63cde3bc3d778570cb6ff9", "blocktime": 1537875543, "version": 2, "confirmations": 11464, "time": 1537875543, "locktime": 0, "vsize": 226, "size": 226}