{"hash": "7f51d3a261040359507f4bc83cd6ed905cbab2b1890d55058ac0d611fb8ce5c1", "blockhash": "0000000000000000000dcc0f55137456b1a82d3642486a52398922ac4d620174", "vout": [{"scriptPubKey": {"reqSigs": 1, "hex": "a91434087ca4b540bd308f027d51d0ad5381c548a35587", "addresses": ["36S9ECTEFbh1jhEV1d8t3EPMHn53wvFHoi"], "asm": "OP_HASH160 34087ca4b540bd308f027d51d0ad5381c548a355 OP_EQUAL", "type": "scripthash"}, "value": 0.005, "n": 0}, {"scriptPubKey": {"reqSigs": 1, "hex": "0014e4d4e5f8c9ade407eff6ad2997a8d9881a65ec51", "addresses": ["bc1qun2wt7xf4hjq0mlk455e02xe3qdxtmz3267mtj"], "asm": "0 e4d4e5f8c9ade407eff6ad2997a8d9881a65ec51", "type": "witness_v0_keyhash"}, "value": 0.0025042, "n": 1}], "hex": "0100000000010119423776abcb944625544a6085fdbbed8e8335cd1d7279bf8ab541a08de78ab80100000017160014808c34db028d318362970c02baecaae9d986c645ffffffff0220a107000000000017a91434087ca4b540bd308f027d51d0ad5381c548a3558734d2030000000000160014e4d4e5f8c9ade407eff6ad2997a8d9881a65ec510247304402203c31a9c7f580c01074bd774c8c68b802340719a33be1417334fa9b39aeb6c5e10220388d8c787b816a0f6008df2663e55ddc92dc4738b9c90a7dff64c3c43e20465b012103ca4f9251ed31af62f56d284d8e088f7427a244b6817f3f00684eabfc11ea772900000000", "vin": [{"txinwitness": ["304402203c31a9c7f580c01074bd774c8c68b802340719a33be1417334fa9b39aeb6c5e10220388d8c787b816a0f6008df2663e55ddc92dc4738b9c90a7dff64c3c43e20465b01", "03ca4f9251ed31af62f56d284d8e088f7427a244b6817f3f00684eabfc11ea7729"], "sequence": 4294967295, "scriptSig": {"hex": "160014808c34db028d318362970c02baecaae9d986c645", "asm": "0014808c34db028d318362970c02baecaae9d986c645"}, "vout": 1, "txid": "b88ae78da041b58abf79721dcd35838eedbbfd85604a54254694cbab76374219"}], "txid": "dcc5d7c74fb5d6ce3099233cff2fd150b75c0db1c357890f03728b7b62aa8e7e", "blocktime": 1537870268, "version": 1, "confirmations": 11518, "time": 1537870268, "locktime": 0, "vsize": 165, "size": 246}