{"hash": "2f146dc6f0b9d2e86ed3e1db764e4a0d0e21a6a9b9596c49a7827361937bf22a", "blockhash": "0000000000000000001f0ddff1eddb255c1121bcd4da4f1bc9a0da00cae72433", "vout": [{"scriptPubKey": {"reqSigs": 1, "hex": "a9141d31a679cbfc627835e9a834d51da7d205a2463987", "addresses": ["34MNzsQXPtuPH1eEEFpBYz5Mu42bYpnUX4"], "asm": "OP_HASH160 1d31a679cbfc627835e9a834d51da7d205a24639 OP_EQUAL", "type": "scripthash"}, "value": 0.01112623, "n": 0}, {"scriptPubKey": {"reqSigs": 1, "hex": "76a9146e323df9a96abeedf5abed4fee57d1d40f1cba8988ac", "addresses": ["1B3fWz1rgnBBQDfEiE5pJZragwJAwBrjrn"], "asm": "OP_DUP OP_HASH160 6e323df9a96abeedf5abed4fee57d1d40f1cba89 OP_EQUALVERIFY OP_CHECKSIG", "type": "pubkeyhash"}, "value": 0.00126563, "n": 1}], "hex": "02000000000101110ba4b92df490511a0bfda5efa18a918f2d015304a639fd721c6da21f1f95da00000000171600147b26b66b20c33c80d4e9f0b64b33670f4039a5c6feffffff022ffa10000000000017a9141d31a679cbfc627835e9a834d51da7d205a246398763ee0100000000001976a9146e323df9a96abeedf5abed4fee57d1d40f1cba8988ac02483045022100828a3b6ce3cc0087a1b62464c803071d30639cfe85984c39aa4690cfe3a5f8e10220614746ba1d5911aacea950c4085e84d318d2174840f4fa74fee9f597a257f62f012103ae67242b9da6ee443fb5ab82832bab8a954ea7ca070b75c54cbb577d4b0336bc0f490800", "vin": [{"txinwitness": ["3045022100828a3b6ce3cc0087a1b62464c803071d30639cfe85984c39aa4690cfe3a5f8e10220614746ba1d5911aacea950c4085e84d318d2174840f4fa74fee9f597a257f62f01", "03ae67242b9da6ee443fb5ab82832bab8a954ea7ca070b75c54cbb577d4b0336bc"], "sequence": 4294967294, "scriptSig": {"hex": "1600147b26b66b20c33c80d4e9f0b64b33670f4039a5c6", "asm": "00147b26b66b20c33c80d4e9f0b64b33670f4039a5c6"}, "vout": 0, "txid": "da951f1fa26d1c72fd39a60453012d8f918aa1efa5fd0b1a5190f42db9a40b11"}], "txid": "dcc79cf5d99b39bbd99086e8b13871dc03a3da3a69183494809e49db95ab7b29", "blocktime": 1537872018, "version": 2, "confirmations": 11489, "time": 1537872018, "locktime": 542991, "vsize": 168, "size": 250}