{"hash": "dcd3f28c8a38f3eb95597c0dbce207b37139abfb6ce4ae404ed453bcad3a3dfb", "blockhash": "00000000000000000004ffacab907a6b429b9a5745fa0b75af4234bf69dd7176", "vout": [{"scriptPubKey": {"reqSigs": 1, "hex": "76a9145139ab811e5c60f21207434fa11d1ea99be5157688ac", "addresses": ["18QUpWvPCQDvcJggxoUZvjBoZfutQF6FFp"], "asm": "OP_DUP OP_HASH160 5139ab811e5c60f21207434fa11d1ea99be51576 OP_EQUALVERIFY OP_CHECKSIG", "type": "pubkeyhash"}, "value": 0.0156715, "n": 0}, {"scriptPubKey": {"reqSigs": 1, "hex": "76a914f1500b42aae1fc3be29be34b93966022b66aef7688ac", "addresses": ["1NzwjnX11ZJVVNyJq9Uq1zE1A8QzNsFTWJ"], "asm": "OP_DUP OP_HASH160 f1500b42aae1fc3be29be34b93966022b66aef76 OP_EQUALVERIFY OP_CHECKSIG", "type": "pubkeyhash"}, "value": 0.05868429, "n": 1}], "hex": "010000000128f8ea0a75e49c49de7bf872aea2c29bc5314376f46cc1ce9cb0a73f738a4d7d010000006b483045022100cba5ee3bf4e23b8c41a4281aaa4f6af00ddf8e52c235771d41fa8321373403ee02204688f82e89cbc415aa4f4c055d168d7b4b6dc3fa923bf615617b92fdee4ed7f401210202bd1e41b429de1e18e027b2f432be2cebfc5d7c6be760e7b2983ce88801339affffffff02aee91700000000001976a9145139ab811e5c60f21207434fa11d1ea99be5157688ac8d8b5900000000001976a914f1500b42aae1fc3be29be34b93966022b66aef7688ac00000000", "vin": [{"sequence": 4294967295, "scriptSig": {"hex": "483045022100cba5ee3bf4e23b8c41a4281aaa4f6af00ddf8e52c235771d41fa8321373403ee02204688f82e89cbc415aa4f4c055d168d7b4b6dc3fa923bf615617b92fdee4ed7f401210202bd1e41b429de1e18e027b2f432be2cebfc5d7c6be760e7b2983ce88801339a", "asm": "3045022100cba5ee3bf4e23b8c41a4281aaa4f6af00ddf8e52c235771d41fa8321373403ee02204688f82e89cbc415aa4f4c055d168d7b4b6dc3fa923bf615617b92fdee4ed7f4[ALL] 0202bd1e41b429de1e18e027b2f432be2cebfc5d7c6be760e7b2983ce88801339a"}, "vout": 1, "txid": "7d4d8a733fa7b09ccec16cf4764331c59bc2a2ae72f87bde499ce4750aeaf828"}], "txid": "dcd3f28c8a38f3eb95597c0dbce207b37139abfb6ce4ae404ed453bcad3a3dfb", "blocktime": 1537875543, "version": 1, "confirmations": 11464, "time": 1537875543, "locktime": 0, "vsize": 226, "size": 226}