{"hash": "dcd59681f32def155c6e9fea12778b91f914cb462c5b4ad8fc13d3e589bb3d60", "blockhash": "0000000000000000001cda96e906b7601b7a6fb1a3b62bca570a9e5d8f4b3de1", "vout": [{"scriptPubKey": {"reqSigs": 1, "hex": "76a914e8d45e52245783f330efef2cd0c5558f0227168588ac", "addresses": ["1NE6B87UNZJyxvSyWtTxuS11opg9PXcLMC"], "asm": "OP_DUP OP_HASH160 e8d45e52245783f330efef2cd0c5558f02271685 OP_EQUALVERIFY OP_CHECKSIG", "type": "pubkeyhash"}, "value": 0.04897774, "n": 0}, {"scriptPubKey": {"reqSigs": 1, "hex": "76a91401020596a94088686989d9686d6105942816c68c88ac", "addresses": ["16L6fvRPXcm93LNUky86cntP8QCE3ga4y"], "asm": "OP_DUP OP_HASH160 01020596a94088686989d9686d6105942816c68c OP_EQUALVERIFY OP_CHECKSIG", "type": "pubkeyhash"}, "value": 16.20323099, "n": 1}], "hex": "02000000012cb923bc136738646cca000aaf6ced0b089272fcc054a67f358abded1ea696d2010000006a47304402204836313476234f3a71b3e3594474950db0dc9d8f9dd1c1827a50b6416671c722022076f8cb4f605ff196d81baa9821a1ae616b30e288f248e95f320fd8a69624a3c801210300b391f17b2139ed59c0ea6189468e01a9edf3db77937805b2bd8c3b32046e00ffffffff02eebb4a00000000001976a914e8d45e52245783f330efef2cd0c5558f0227168588ac1b2b9460000000001976a91401020596a94088686989d9686d6105942816c68c88ac00000000", "vin": [{"sequence": 4294967295, "scriptSig": {"hex": "47304402204836313476234f3a71b3e3594474950db0dc9d8f9dd1c1827a50b6416671c722022076f8cb4f605ff196d81baa9821a1ae616b30e288f248e95f320fd8a69624a3c801210300b391f17b2139ed59c0ea6189468e01a9edf3db77937805b2bd8c3b32046e00", "asm": "304402204836313476234f3a71b3e3594474950db0dc9d8f9dd1c1827a50b6416671c722022076f8cb4f605ff196d81baa9821a1ae616b30e288f248e95f320fd8a69624a3c8[ALL] 0300b391f17b2139ed59c0ea6189468e01a9edf3db77937805b2bd8c3b32046e00"}, "vout": 1, "txid": "d296a61eedbd8a357fa654c0fc7292080bed6caf0a00ca6c64386713bc23b92c"}], "txid": "dcd59681f32def155c6e9fea12778b91f914cb462c5b4ad8fc13d3e589bb3d60", "blocktime": 1537873282, "version": 2, "confirmations": 11485, "time": 1537873282, "locktime": 0, "vsize": 225, "size": 225}