{"hash": "dcd5f5fb160179e829f27548f4706308b791f10bea5de8c8d6adf2060ebaee2a", "blockhash": "0000000000000000001cda96e906b7601b7a6fb1a3b62bca570a9e5d8f4b3de1", "vout": [{"scriptPubKey": {"reqSigs": 1, "hex": "a9147a7ca4d5d903a615ae8f4f02d090913e5b93db4287", "addresses": ["3CrfgMcdG6UR2T1VH1VzB3CMWdEraogpW3"], "asm": "OP_HASH160 7a7ca4d5d903a615ae8f4f02d090913e5b93db42 OP_EQUAL", "type": "scripthash"}, "value": 0.00361487, "n": 0}, {"scriptPubKey": {"reqSigs": 1, "hex": "76a9149da42adb936e5be3d530ae8664088d262acaf93488ac", "addresses": ["1FNXkfpBiVUe9zyMqYoVeZYDSSuVQqbYy3"], "asm": "OP_DUP OP_HASH160 9da42adb936e5be3d530ae8664088d262acaf934 OP_EQUALVERIFY OP_CHECKSIG", "type": "pubkeyhash"}, "value": 0.00461407, "n": 1}], "hex": "0100000001b77fab04ddb62769f40fce37da45d4ae6b5c2e1a76dae336246557407f03804d000000006a47304402200baf244b80353e50b1d191eeabe65e065d41be2c824fe35590c17a7887dcc79302202633d20b372c6cc4975d6f774f826c09acf37eaa9f42588dcd708121515d971e01210212334fd0f0e06e7216c70df8f29f246dfe0e6451bd0cbe0c07dc9b882a4c5d7dffffffff020f8405000000000017a9147a7ca4d5d903a615ae8f4f02d090913e5b93db42875f0a0700000000001976a9149da42adb936e5be3d530ae8664088d262acaf93488ac00000000", "vin": [{"sequence": 4294967295, "scriptSig": {"hex": "47304402200baf244b80353e50b1d191eeabe65e065d41be2c824fe35590c17a7887dcc79302202633d20b372c6cc4975d6f774f826c09acf37eaa9f42588dcd708121515d971e01210212334fd0f0e06e7216c70df8f29f246dfe0e6451bd0cbe0c07dc9b882a4c5d7d", "asm": "304402200baf244b80353e50b1d191eeabe65e065d41be2c824fe35590c17a7887dcc79302202633d20b372c6cc4975d6f774f826c09acf37eaa9f42588dcd708121515d971e[ALL] 0212334fd0f0e06e7216c70df8f29f246dfe0e6451bd0cbe0c07dc9b882a4c5d7d"}, "vout": 0, "txid": "4d80037f4057652436e3da761a2e5c6baed445da37ce0ff46927b6dd04ab7fb7"}], "txid": "dcd5f5fb160179e829f27548f4706308b791f10bea5de8c8d6adf2060ebaee2a", "blocktime": 1537873282, "version": 1, "confirmations": 11485, "time": 1537873282, "locktime": 0, "vsize": 223, "size": 223}