{"hash": "dcdb7e5e5f5871b1d34e28dde6b6bc1fc3d40d1ba3b218d6de2ba2274bc39800", "blockhash": "0000000000000000000dcc0f55137456b1a82d3642486a52398922ac4d620174", "vout": [{"scriptPubKey": {"reqSigs": 1, "hex": "a9147a6310de6c2a17d800471f6683af3aaf838621e887", "addresses": ["3Cr93AapqG7WAsTAL1XDpy8LTdScUtHVkZ"], "asm": "OP_HASH160 7a6310de6c2a17d800471f6683af3aaf838621e8 OP_EQUAL", "type": "scripthash"}, "value": 0.01035229, "n": 0}], "hex": "010000000150ff0c04486be7ab95a95428002b266ca4fe3d33dbf23913eed7a72999a89d98070000006b48304502210098559bcd25cb003fbcbf37b3d96092ed62e62a7aa411d6ecad94540f17eb3362022005f14c29fb97399d22705a803f79a9f520082abd2ec0d3310780e93ccd4a774f0121037ff43c10609cbc262f192877a4e8e7e3aeda891c19817cdf735814f68b6ef51affffffff01ddcb0f000000000017a9147a6310de6c2a17d800471f6683af3aaf838621e88700000000", "vin": [{"sequence": 4294967295, "scriptSig": {"hex": "48304502210098559bcd25cb003fbcbf37b3d96092ed62e62a7aa411d6ecad94540f17eb3362022005f14c29fb97399d22705a803f79a9f520082abd2ec0d3310780e93ccd4a774f0121037ff43c10609cbc262f192877a4e8e7e3aeda891c19817cdf735814f68b6ef51a", "asm": "304502210098559bcd25cb003fbcbf37b3d96092ed62e62a7aa411d6ecad94540f17eb3362022005f14c29fb97399d22705a803f79a9f520082abd2ec0d3310780e93ccd4a774f[ALL] 037ff43c10609cbc262f192877a4e8e7e3aeda891c19817cdf735814f68b6ef51a"}, "vout": 7, "txid": "989da89929a7d7ee1339f2db333dfea46c262b002854a995abe76b48040cff50"}], "txid": "dcdb7e5e5f5871b1d34e28dde6b6bc1fc3d40d1ba3b218d6de2ba2274bc39800", "blocktime": 1537870268, "version": 1, "confirmations": 11516, "time": 1537870268, "locktime": 0, "vsize": 190, "size": 190}