{"hash": "30984bb6c8b5e61b2611ef10a75d9abd297f3ab3029520b7b17cdb2fe4d6cb27", "blockhash": "0000000000000000000baef3f32e3676a92c3b2e5da21b426e4f302fc371ce76", "vout": [{"scriptPubKey": {"reqSigs": 1, "hex": "76a914771d042ec35c612414754e3983b0132e25382e4e88ac", "addresses": ["1BrpAvGPNa2cP6UPsqygfSSyfS2ZPTXbWc"], "asm": "OP_DUP OP_HASH160 771d042ec35c612414754e3983b0132e25382e4e OP_EQUALVERIFY OP_CHECKSIG", "type": "pubkeyhash"}, "value": 0.011731, "n": 0}, {"scriptPubKey": {"reqSigs": 1, "hex": "a914dee0a1cc9f055700143e0f4ecee53180ab3530dc87", "addresses": ["3N1V2qWA5hpScEmS72pMooYRmXUiLmwPQQ"], "asm": "OP_HASH160 dee0a1cc9f055700143e0f4ecee53180ab3530dc OP_EQUAL", "type": "scripthash"}, "value": 0.10235002, "n": 1}], "hex": "0200000000010149e276557fc28ce68a907854c6cb521a527952283dc08f13ededbf786a4184d10100000017160014cb5dbe423de4d42b6425c6921084c6197a5d2937ffffffff026ce61100000000001976a914771d042ec35c612414754e3983b0132e25382e4e88ac7a2c9c000000000017a914dee0a1cc9f055700143e0f4ecee53180ab3530dc87024730440220506629151099f2ec8b84e067931faf020b98e622b5a13b1ab9661b05c77cb59f022034a47d187ab79a1cd682f2d8995ecb0cc26c2dced372ac3e8b38359a91e01a73012102acecad485eda786cbe0422823b7594aea6854abb5ec85e267f1c4b87f3f758f700000000", "vin": [{"txinwitness": ["30440220506629151099f2ec8b84e067931faf020b98e622b5a13b1ab9661b05c77cb59f022034a47d187ab79a1cd682f2d8995ecb0cc26c2dced372ac3e8b38359a91e01a7301", "02acecad485eda786cbe0422823b7594aea6854abb5ec85e267f1c4b87f3f758f7"], "sequence": 4294967295, "scriptSig": {"hex": "160014cb5dbe423de4d42b6425c6921084c6197a5d2937", "asm": "0014cb5dbe423de4d42b6425c6921084c6197a5d2937"}, "vout": 1, "txid": "d184416a78bfeded138fc03d285279521a52cbc65478908ae68cc27f5576e249"}], "txid": "dcde377fba36ccd446be92851ab25e2bd061868f69ad201aa103920f1254d66f", "blocktime": 1537876114, "version": 2, "confirmations": 11459, "time": 1537876114, "locktime": 0, "vsize": 168, "size": 249}