{"hash": "dcdf32ceeb286766666024543273fef9b751ec15d8b1dfd0ab6ce7d3b8398378", "blockhash": "00000000000000000004ffacab907a6b429b9a5745fa0b75af4234bf69dd7176", "vout": [{"scriptPubKey": {"reqSigs": 1, "hex": "76a914f5c3821779410102f4e3489501683205727802de88ac", "addresses": ["1PQUm9NRDG4DgYQ2TYMNt96cis4Jnube6b"], "asm": "OP_DUP OP_HASH160 f5c3821779410102f4e3489501683205727802de OP_EQUALVERIFY OP_CHECKSIG", "type": "pubkeyhash"}, "value": 0.00054621, "n": 0}, {"scriptPubKey": {"reqSigs": 1, "hex": "a9142d710d3badcde70e5bf942ccf59eff870fda37e387", "addresses": ["35qHm9PKHNJ1aycmsDsAVZq8W2CxkUUaHL"], "asm": "OP_HASH160 2d710d3badcde70e5bf942ccf59eff870fda37e3 OP_EQUAL", "type": "scripthash"}, "value": 0.0032106, "n": 1}], "hex": "01000000014ab94ebf3f7d315b26d7c53e003ea3b1fcfb0a088a35db0b6aff68523f56a44b000000008b483045022100d19676466a82099b840f9481a08ee8e72a3104d24254fa26eb37bc9eb11d5b2d02207585114220131af3d600cbf4175ec15d7df18b9b505ba6df3c6acf326adf0a12014104da913cd1cd32688db3bf1f6d4332f35a94da99a5c79fceef6a4a5e7b44fc02138e2d05e47c6d24890df735db300e9df79ad047f9c51e10382422748d345877afffffffff025dd50000000000001976a914f5c3821779410102f4e3489501683205727802de88ac24e604000000000017a9142d710d3badcde70e5bf942ccf59eff870fda37e38700000000", "vin": [{"sequence": 4294967295, "scriptSig": {"hex": "483045022100d19676466a82099b840f9481a08ee8e72a3104d24254fa26eb37bc9eb11d5b2d02207585114220131af3d600cbf4175ec15d7df18b9b505ba6df3c6acf326adf0a12014104da913cd1cd32688db3bf1f6d4332f35a94da99a5c79fceef6a4a5e7b44fc02138e2d05e47c6d24890df735db300e9df79ad047f9c51e10382422748d345877af", "asm": "3045022100d19676466a82099b840f9481a08ee8e72a3104d24254fa26eb37bc9eb11d5b2d02207585114220131af3d600cbf4175ec15d7df18b9b505ba6df3c6acf326adf0a12[ALL] 04da913cd1cd32688db3bf1f6d4332f35a94da99a5c79fceef6a4a5e7b44fc02138e2d05e47c6d24890df735db300e9df79ad047f9c51e10382422748d345877af"}, "vout": 0, "txid": "4ba4563f5268ff6a0bdb358a080afbfcb1a33e003ec5d7265b317d3fbf4eb94a"}], "txid": "dcdf32ceeb286766666024543273fef9b751ec15d8b1dfd0ab6ce7d3b8398378", "blocktime": 1537875543, "version": 1, "confirmations": 11464, "time": 1537875543, "locktime": 0, "vsize": 256, "size": 256}