{"hash": "dce0960f192a4c29f5ee793734475347b7f4b80ff10c71b4b22691b23a89f00e", "blockhash": "00000000000000000018f53835495a110e01622372bf6ae95dc86f2b0ab887b0", "vout": [{"scriptPubKey": {"reqSigs": 1, "hex": "a91437bc18e61dad9cd52ea33e56dfdb5bbc3440674487", "addresses": ["36miRKayPqgAHWutkhoXpkfFgaebwhCABG"], "asm": "OP_HASH160 37bc18e61dad9cd52ea33e56dfdb5bbc34406744 OP_EQUAL", "type": "scripthash"}, "value": 4.938e-05, "n": 0}, {"scriptPubKey": {"reqSigs": 1, "hex": "76a914b5570242ea9b96966606cfcd1b253c7f92de476688ac", "addresses": ["1HXqYCfKZAXquL1u9KfHHNpugkmpZ8RMmW"], "asm": "OP_DUP OP_HASH160 b5570242ea9b96966606cfcd1b253c7f92de4766 OP_EQUALVERIFY OP_CHECKSIG", "type": "pubkeyhash"}, "value": 0.02522713, "n": 1}], "hex": "01000000019a95a462f523cf7233e91c155bf56df36573bad8244972843cb3f1f3edab2f9b010000006b483045022100e45b06f63c1533c7615ee6f928c6aed5aa0b9a88be0b2775943c1eca2eedb3330220171d92f8308a41a639e8d440a8798029226d9d7c6472d48a92f901d59d07c1a80121037e0f0afb53384a493d5d011f18aaa6ece25420e81e4f208a3ba9210ed732098bffffffff024a1300000000000017a91437bc18e61dad9cd52ea33e56dfdb5bbc3440674487597e2600000000001976a914b5570242ea9b96966606cfcd1b253c7f92de476688ac00000000", "vin": [{"sequence": 4294967295, "scriptSig": {"hex": "483045022100e45b06f63c1533c7615ee6f928c6aed5aa0b9a88be0b2775943c1eca2eedb3330220171d92f8308a41a639e8d440a8798029226d9d7c6472d48a92f901d59d07c1a80121037e0f0afb53384a493d5d011f18aaa6ece25420e81e4f208a3ba9210ed732098b", "asm": "3045022100e45b06f63c1533c7615ee6f928c6aed5aa0b9a88be0b2775943c1eca2eedb3330220171d92f8308a41a639e8d440a8798029226d9d7c6472d48a92f901d59d07c1a8[ALL] 037e0f0afb53384a493d5d011f18aaa6ece25420e81e4f208a3ba9210ed732098b"}, "vout": 1, "txid": "9b2fabedf3f1b33c84724924d8ba7365f36df55b151ce93372cf23f562a4959a"}], "txid": "dce0960f192a4c29f5ee793734475347b7f4b80ff10c71b4b22691b23a89f00e", "blocktime": 1537870928, "version": 1, "confirmations": 11514, "time": 1537870928, "locktime": 0, "vsize": 224, "size": 224}