{"hash": "dce1f64d6bf1392c37b7cb29d8d12ef3ce94cbece654ecf477f8d0ab7e7e9894", "blockhash": "0000000000000000001cda96e906b7601b7a6fb1a3b62bca570a9e5d8f4b3de1", "vout": [{"scriptPubKey": {"reqSigs": 1, "hex": "76a9145e25f4062ec0b9f88205388eb22dba366011240f88ac", "addresses": ["19aoz4wefWCCye7hv4e9L6X6yfyDaTErZG"], "asm": "OP_DUP OP_HASH160 5e25f4062ec0b9f88205388eb22dba366011240f OP_EQUALVERIFY OP_CHECKSIG", "type": "pubkeyhash"}, "value": 0.00232, "n": 0}, {"scriptPubKey": {"reqSigs": 1, "hex": "76a914c4d087d482465637215524cb31dd2223fe32602d88ac", "addresses": ["1JwfFZMpPcgKN87NGs56CTouYtkAvz1apv"], "asm": "OP_DUP OP_HASH160 c4d087d482465637215524cb31dd2223fe32602d OP_EQUALVERIFY OP_CHECKSIG", "type": "pubkeyhash"}, "value": 0.01513743, "n": 1}], "hex": "010000000112975b5fd93aea38082ac6d1fa869c4103f6ab633b9dd965f4887691ef0edb43010000006b483045022100d339f296921a15371765b9ce76152c2b1cdac3229e3ea30f94ced5165572d96702205b4eede9136810599240d659b071038b59c0058a823613df12e75b3a7c507237012102ba98af28570c99eda7069f4e49349c1320392e5090ea1589331af837b9d2d5c0ffffffff02408a0300000000001976a9145e25f4062ec0b9f88205388eb22dba366011240f88ac0f191700000000001976a914c4d087d482465637215524cb31dd2223fe32602d88ac00000000", "vin": [{"sequence": 4294967295, "scriptSig": {"hex": "483045022100d339f296921a15371765b9ce76152c2b1cdac3229e3ea30f94ced5165572d96702205b4eede9136810599240d659b071038b59c0058a823613df12e75b3a7c507237012102ba98af28570c99eda7069f4e49349c1320392e5090ea1589331af837b9d2d5c0", "asm": "3045022100d339f296921a15371765b9ce76152c2b1cdac3229e3ea30f94ced5165572d96702205b4eede9136810599240d659b071038b59c0058a823613df12e75b3a7c507237[ALL] 02ba98af28570c99eda7069f4e49349c1320392e5090ea1589331af837b9d2d5c0"}, "vout": 1, "txid": "43db0eef917688f465d99d3b63abf603419c86fad1c62a0838ea3ad95f5b9712"}], "txid": "dce1f64d6bf1392c37b7cb29d8d12ef3ce94cbece654ecf477f8d0ab7e7e9894", "blocktime": 1537873282, "version": 1, "confirmations": 11484, "time": 1537873282, "locktime": 0, "vsize": 226, "size": 226}