{"hash": "1a1093557cf515ce3fa375282f4ae922e1536873e8c2a9d7383076f48fbfae71", "blockhash": "0000000000000000000e13cef7c366c0283d82e591d1acd082e914b08063cdf1", "vout": [{"scriptPubKey": {"reqSigs": 1, "hex": "001425aa1ddfefe865f6e63fcb0f0973f5b2fc2d5861", "addresses": ["bc1qyk4pmhl0apjlde3lev8sjul4kt7z6krpqdh2d9"], "asm": "0 25aa1ddfefe865f6e63fcb0f0973f5b2fc2d5861", "type": "witness_v0_keyhash"}, "value": 0.00769207, "n": 0}, {"scriptPubKey": {"reqSigs": 1, "hex": "0020d0f40082a6a799047fb594d33a7e54249880f7765cc6f3873aa10ac7340ee75d", "addresses": ["bc1q6r6qpq4x57vsgla4jnfn5lj5yjvgpamktnr08pe65y9vwdqwuaws76efhu"], "asm": "0 d0f40082a6a799047fb594d33a7e54249880f7765cc6f3873aa10ac7340ee75d", "type": "witness_v0_scripthash"}, "value": 0.02106209, "n": 1}], "hex": "0100000000010639f12563b1415abdb069d7173cf6c1319bcbae8e4c051efa23e1783cd35a79430000000000ffffffff5939b4381e4bccefa39051977fa9b9083095a9b600ec099146e0691ea135775e0000000000ffffffffe3639d65ac09d6ab60fbb19255fbce1350bbb53f9cc32329bf65d2a7e47893960000000000ffffffffcf2e5059e2bcdcaf9b89504c9968810a715fbe1afe75b23f9c1d2c94dd303c9d0000000000ffffffffdf7e06ab39ee19f6d69c4be87f624d2e64e82063395181f0d3d161a63dfa7fa60000000000ffffffff3ee7956d53c6f881e2ecbcbbb16b50707ffc8a052adb2a516e81a8d435245ed90000000000ffffffff02b7bc0b000000000016001425aa1ddfefe865f6e63fcb0f0973f5b2fc2d58616123200000000000220020d0f40082a6a799047fb594d33a7e54249880f7765cc6f3873aa10ac7340ee75d02473044022046586969c0541f4a24e4e0c684ad5f6e7ea16a634eb7ef39cd4f16fc10a27775022020b5da919b8f6bc1570b929b34754ad4faf2cf9193188f35c9a0f9adfb4075ca012103f757907b08d10988efc8a0215ac31b33876bae92cbd2f5ed1e2b466006e9cc6a02483045022100ab76f5229a943bacfa4cbd5088927413b7f54824bf758c055a0af236e897498b022079614b25117216ab1e745f215954174421fd2a9c68bd75b55b1c8d1a19de0686012103ad6977b9e7a5ecb2d40396ca342d5a2abcdca43ffa77271ee0cb40775e05dc9e024730440220431eb1f5dd2155f799532f4d703308ba280946071fce0d6069e705dea1b28ec50220043e3ceb4d37659697e11d507e39b58e8315f0c7a6d5b5e49fd1430bde630464012103f246a2a93bba567316c1e5bacdb30d31f427fd0e6fd92363576062ec658f17dd02483045022100cecb5107c95672136b007425e4a842c14104885cca01eeaeb5f56cd9918b2e960220186f948c8bc065fd01aa5fde7c82ee4a0c363b6af303ff829a6a9c0e38cfdd230121032df9f59b10b148de750023c917cb29be9a337df620a9786813f17e151a3b6fcb024730440220558b00704e7b1053a495a1bda445d81cc52755e1e9aa6b465a7d6fb10172d33a022057d319544aa7f40d61be2e8d4d9364f5b55784ceb2cfd36506b3705600d4fab80121028350e385f4f67783d5e5a4dbaec6607b59c6a58006244b3d2d958bcbf06b1fb402473044022002364710f675fa2c5bbb3de109f0bd635d9d46c75c609b18a82f9b701bd0bc2202202fe186512cac619fa24b8c3ce42bb8f4452f19e0fd48cdfa80b5f7df972c9089012103fbe0ffbcb5eb0f05e266368521c7c95140021f22a9415df46e6a35edb17f5a7f00000000", "vin": [{"txinwitness": ["3044022046586969c0541f4a24e4e0c684ad5f6e7ea16a634eb7ef39cd4f16fc10a27775022020b5da919b8f6bc1570b929b34754ad4faf2cf9193188f35c9a0f9adfb4075ca01", "03f757907b08d10988efc8a0215ac31b33876bae92cbd2f5ed1e2b466006e9cc6a"], "sequence": 4294967295, "scriptSig": {"hex": "", "asm": ""}, "vout": 0, "txid": "43795ad33c78e123fa1e054c8eaecb9b31c1f63c17d769b0bd5a41b16325f139"}, {"txinwitness": ["3045022100ab76f5229a943bacfa4cbd5088927413b7f54824bf758c055a0af236e897498b022079614b25117216ab1e745f215954174421fd2a9c68bd75b55b1c8d1a19de068601", "03ad6977b9e7a5ecb2d40396ca342d5a2abcdca43ffa77271ee0cb40775e05dc9e"], "sequence": 4294967295, "scriptSig": {"hex": "", "asm": ""}, "vout": 0, "txid": "5e7735a11e69e0469109ec00b6a9953008b9a97f975190a3efcc4b1e38b43959"}, {"txinwitness": ["30440220431eb1f5dd2155f799532f4d703308ba280946071fce0d6069e705dea1b28ec50220043e3ceb4d37659697e11d507e39b58e8315f0c7a6d5b5e49fd1430bde63046401", "03f246a2a93bba567316c1e5bacdb30d31f427fd0e6fd92363576062ec658f17dd"], "sequence": 4294967295, "scriptSig": {"hex": "", "asm": ""}, "vout": 0, "txid": "969378e4a7d265bf2923c39c3fb5bb5013cefb5592b1fb60abd609ac659d63e3"}, {"txinwitness": ["3045022100cecb5107c95672136b007425e4a842c14104885cca01eeaeb5f56cd9918b2e960220186f948c8bc065fd01aa5fde7c82ee4a0c363b6af303ff829a6a9c0e38cfdd2301", "032df9f59b10b148de750023c917cb29be9a337df620a9786813f17e151a3b6fcb"], "sequence": 4294967295, "scriptSig": {"hex": "", "asm": ""}, "vout": 0, "txid": "9d3c30dd942c1d9c3fb275fe1abe5f710a8168994c50899bafdcbce259502ecf"}, {"txinwitness": ["30440220558b00704e7b1053a495a1bda445d81cc52755e1e9aa6b465a7d6fb10172d33a022057d319544aa7f40d61be2e8d4d9364f5b55784ceb2cfd36506b3705600d4fab801", "028350e385f4f67783d5e5a4dbaec6607b59c6a58006244b3d2d958bcbf06b1fb4"], "sequence": 4294967295, "scriptSig": {"hex": "", "asm": ""}, "vout": 0, "txid": "a67ffa3da661d1d3f08151396320e8642e4d627fe84b9cd6f619ee39ab067edf"}, {"txinwitness": ["3044022002364710f675fa2c5bbb3de109f0bd635d9d46c75c609b18a82f9b701bd0bc2202202fe186512cac619fa24b8c3ce42bb8f4452f19e0fd48cdfa80b5f7df972c908901", "03fbe0ffbcb5eb0f05e266368521c7c95140021f22a9415df46e6a35edb17f5a7f"], "sequence": 4294967295, "scriptSig": {"hex": "", "asm": ""}, "vout": 0, "txid": "d95e2435d4a8816e512adb2a058afc7f70506bb1bbbcece281f8c6536d95e73e"}], "txid": "dce38bd3763e4dbea3d7cc6989c0630caafda80f47aed3a5ef4991d3950ed67f", "blocktime": 1537871767, "version": 1, "confirmations": 11495, "time": 1537871767, "locktime": 0, "vsize": 492, "size": 976}