{"hash": "dce7429b2de2fc39a57d1ab4f7d0ebcfb7c14235a5dcc660bc4cf2ded0d2b7ae", "blockhash": "0000000000000000000e13cef7c366c0283d82e591d1acd082e914b08063cdf1", "vout": [{"scriptPubKey": {"type": "nulldata", "hex": "6a146f6d6e69000000000000001f0000005c5bf87200", "asm": "OP_RETURN 6f6d6e69000000000000001f0000005c5bf87200"}, "value": 0.0, "n": 0}, {"scriptPubKey": {"reqSigs": 1, "hex": "76a914b1c36cdbc8488828fdf7c51a01ffdc5fad795f3f88ac", "addresses": ["1HCviLYNqHAyeZxGTj9Mtgvj1NJgQuSo91"], "asm": "OP_DUP OP_HASH160 b1c36cdbc8488828fdf7c51a01ffdc5fad795f3f OP_EQUALVERIFY OP_CHECKSIG", "type": "pubkeyhash"}, "value": 0.47773274, "n": 1}, {"scriptPubKey": {"reqSigs": 1, "hex": "76a914d33a19c8e0bb0e008a2e33d749d095b096a726a088ac", "addresses": ["1LFsBPLXEzRJrufBwXMdM54LYsEVK2uQTH"], "asm": "OP_DUP OP_HASH160 d33a19c8e0bb0e008a2e33d749d095b096a726a0 OP_EQUALVERIFY OP_CHECKSIG", "type": "pubkeyhash"}, "value": 5.46e-06, "n": 2}], "hex": "01000000010d53be435bb22f2d8c44475d3fa0bd948454c24c31ef386b71b3f20b31692991010000006a47304402202e0c30e418e7b4793fa68918b5de8349f1a0c4b210da1443c847a1f394dcb12a0220449a49949d317b4573284108e2025a85810955472964ca0a6991d0b83bc59a45012102bc94fc0fec87accd4903e80d06afb112a46f743e997af2c7680035cba6d4b38cfeffffff030000000000000000166a146f6d6e69000000000000001f0000005c5bf872005af6d802000000001976a914b1c36cdbc8488828fdf7c51a01ffdc5fad795f3f88ac22020000000000001976a914d33a19c8e0bb0e008a2e33d749d095b096a726a088ac10490800", "vin": [{"sequence": 4294967294, "scriptSig": {"hex": "47304402202e0c30e418e7b4793fa68918b5de8349f1a0c4b210da1443c847a1f394dcb12a0220449a49949d317b4573284108e2025a85810955472964ca0a6991d0b83bc59a45012102bc94fc0fec87accd4903e80d06afb112a46f743e997af2c7680035cba6d4b38c", "asm": "304402202e0c30e418e7b4793fa68918b5de8349f1a0c4b210da1443c847a1f394dcb12a0220449a49949d317b4573284108e2025a85810955472964ca0a6991d0b83bc59a45[ALL] 02bc94fc0fec87accd4903e80d06afb112a46f743e997af2c7680035cba6d4b38c"}, "vout": 1, "txid": "912969310bf2b3716b38ef314cc2548494bda03f5d47448c2d2fb25b43be530d"}], "txid": "dce7429b2de2fc39a57d1ab4f7d0ebcfb7c14235a5dcc660bc4cf2ded0d2b7ae", "blocktime": 1537871767, "version": 1, "confirmations": 11495, "time": 1537871767, "locktime": 542992, "vsize": 256, "size": 256}