{"hash": "dcf22274abcf357dd9d573d23320cd1c3eb723c98a7d1850d484ab97f1283d67", "blockhash": "00000000000000000024a2167bbff67b0be802c0b01cdd79e6331c2be6459f87", "vout": [{"scriptPubKey": {"reqSigs": 1, "hex": "76a914811b7488c312652967223c79b6063413948bd3fa88ac", "addresses": ["1Cmf4NKteBr9AkcuvDQ6iy1TGr8h2HkZo8"], "asm": "OP_DUP OP_HASH160 811b7488c312652967223c79b6063413948bd3fa OP_EQUALVERIFY OP_CHECKSIG", "type": "pubkeyhash"}, "value": 6.0, "n": 0}, {"scriptPubKey": {"reqSigs": 1, "hex": "76a9140fd4e05bfdcdef034b22f8cca9e1772b64ca476788ac", "addresses": ["12Si9nnAA2F4zK91WHoMANfsDHvwy12bvv"], "asm": "OP_DUP OP_HASH160 0fd4e05bfdcdef034b22f8cca9e1772b64ca4767 OP_EQUALVERIFY OP_CHECKSIG", "type": "pubkeyhash"}, "value": 1.16973739, "n": 1}], "hex": "0200000002d481b2b1ac69fba4bb0db4d0fb5958e5e9b3b97258794c74c0759de58a6b02ce010000006b483045022100a7a33f75eb568152f14cde07d0f0588ee73babb7cd49fbfa61b1fac1bef65d3102204666d60cd63406fb6724dd863ccd16b711a7e65bcd39d50b3665292c654c2893012102c5777d16103920108b67b4c4e5c150b1eda17beee9a3bd5ea4d6de4320399b88ffffffffa211ea6e163d5fed2fc99702eb6d728c255b5ac3f113d0502f3dea8bfe3eda62010000006a473044022057159baeb9ea89b39b7fa3113bdb4ad89fc50897b0962a4289258e090f7901f10220738fe27f7b6fb679c417de00f1edc2026cafa3ffb05c5467c06fb17d8da3dbd4012102c5777d16103920108b67b4c4e5c150b1eda17beee9a3bd5ea4d6de4320399b88ffffffff020046c323000000001976a914811b7488c312652967223c79b6063413948bd3fa88acabe0f806000000001976a9140fd4e05bfdcdef034b22f8cca9e1772b64ca476788ac00000000", "vin": [{"sequence": 4294967295, "scriptSig": {"hex": "483045022100a7a33f75eb568152f14cde07d0f0588ee73babb7cd49fbfa61b1fac1bef65d3102204666d60cd63406fb6724dd863ccd16b711a7e65bcd39d50b3665292c654c2893012102c5777d16103920108b67b4c4e5c150b1eda17beee9a3bd5ea4d6de4320399b88", "asm": "3045022100a7a33f75eb568152f14cde07d0f0588ee73babb7cd49fbfa61b1fac1bef65d3102204666d60cd63406fb6724dd863ccd16b711a7e65bcd39d50b3665292c654c2893[ALL] 02c5777d16103920108b67b4c4e5c150b1eda17beee9a3bd5ea4d6de4320399b88"}, "vout": 1, "txid": "ce026b8ae59d75c0744c795872b9b3e9e55859fbd0b40dbba4fb69acb1b281d4"}, {"sequence": 4294967295, "scriptSig": {"hex": "473044022057159baeb9ea89b39b7fa3113bdb4ad89fc50897b0962a4289258e090f7901f10220738fe27f7b6fb679c417de00f1edc2026cafa3ffb05c5467c06fb17d8da3dbd4012102c5777d16103920108b67b4c4e5c150b1eda17beee9a3bd5ea4d6de4320399b88", "asm": "3044022057159baeb9ea89b39b7fa3113bdb4ad89fc50897b0962a4289258e090f7901f10220738fe27f7b6fb679c417de00f1edc2026cafa3ffb05c5467c06fb17d8da3dbd4[ALL] 02c5777d16103920108b67b4c4e5c150b1eda17beee9a3bd5ea4d6de4320399b88"}, "vout": 1, "txid": "62da3efe8bea3d2f50d013f1c35a5b258c726deb0297c92fed5f3d166eea11a2"}], "txid": "dcf22274abcf357dd9d573d23320cd1c3eb723c98a7d1850d484ab97f1283d67", "blocktime": 1537870564, "version": 2, "confirmations": 11515, "time": 1537870564, "locktime": 0, "vsize": 373, "size": 373}