{"hash": "3a14e0fea6b7ccef2d338e0f388bbb9af20beb00027c55643606a8c8304edb81", "blockhash": "000000000000000000205f8b0775d31398ef75b89a5e8ec8d2c57b4dc0ac4c20", "vout": [{"scriptPubKey": {"reqSigs": 1, "hex": "a9146148240b2bc92d579c1c3ffe96556e62fdd3ffbe87", "addresses": ["3AZPtagutxzDrMHhmVTaoftUi82eVrtkXM"], "asm": "OP_HASH160 6148240b2bc92d579c1c3ffe96556e62fdd3ffbe OP_EQUAL", "type": "scripthash"}, "value": 0.684, "n": 0}, {"scriptPubKey": {"reqSigs": 1, "hex": "a914ad0d185fa422fe96e4cc60acdc3efd229f9811e687", "addresses": ["3HU2WbqkLgir6jm7ibk5Sg6PhKmSPvQB8i"], "asm": "OP_HASH160 ad0d185fa422fe96e4cc60acdc3efd229f9811e6 OP_EQUAL", "type": "scripthash"}, "value": 13.75281005, "n": 1}], "hex": "01000000000101113fd5469cece29abd5b17bb8f706fd8006a97eecc516d3ed38006f1ff951ee100000000232200201fbf9a6527e78094a5d9f4bd3df502d3b520f908f90db333cd6cebf241ae0b10ffffffff0280b313040000000017a9146148240b2bc92d579c1c3ffe96556e62fdd3ffbe876d1ff9510000000017a914ad0d185fa422fe96e4cc60acdc3efd229f9811e6870400483045022100a844955eba2a357bdbf5cf0bfc2c05e05f6b68d7098fea761c940fb29dddf2f002206d082c626ce5380c8695be6ac0480d44e0cc0e8b3410b24d140e77d9379ad2170147304402202e0d839bb542e94baa60df4ca3023fd9d2822cc152a9221b4dc859ab0615b53202206b758387bf75e32de81259f9125a431427ff81c6230344de6a7a0ee3724422ab0169522102a5b50881f866a171a791210c36964c54dd815682f60aacb1e867687b831a68f0210226bb3b0c02a5117038f445114a2626a9c52110d0593261359fa03e5fe955b14f2103a38c89d37de6161c27ece0d16b3a80cf00f17187104e459449791b5a0a1666e153ae00000000", "vin": [{"txinwitness": ["", "3045022100a844955eba2a357bdbf5cf0bfc2c05e05f6b68d7098fea761c940fb29dddf2f002206d082c626ce5380c8695be6ac0480d44e0cc0e8b3410b24d140e77d9379ad21701", "304402202e0d839bb542e94baa60df4ca3023fd9d2822cc152a9221b4dc859ab0615b53202206b758387bf75e32de81259f9125a431427ff81c6230344de6a7a0ee3724422ab01", "522102a5b50881f866a171a791210c36964c54dd815682f60aacb1e867687b831a68f0210226bb3b0c02a5117038f445114a2626a9c52110d0593261359fa03e5fe955b14f2103a38c89d37de6161c27ece0d16b3a80cf00f17187104e459449791b5a0a1666e153ae"], "sequence": 4294967295, "scriptSig": {"hex": "2200201fbf9a6527e78094a5d9f4bd3df502d3b520f908f90db333cd6cebf241ae0b10", "asm": "00201fbf9a6527e78094a5d9f4bd3df502d3b520f908f90db333cd6cebf241ae0b10"}, "vout": 0, "txid": "e11e95fff10680d33e6d51ccee976a00d86f708fbb175bbd9ae2ec9c46d53f11"}], "txid": "dcfc09088d35725a0170113d9c1be1715203fa6528152a89e3c20af6660584c1", "blocktime": 1537871175, "version": 1, "confirmations": 11511, "time": 1537871175, "locktime": 0, "vsize": 214, "size": 405}