{"hash": "dcff73b5614e1183da098ee5dad63e498e7df3acdfd1ba423d60432cc668c292", "blockhash": "0000000000000000000baef3f32e3676a92c3b2e5da21b426e4f302fc371ce76", "vout": [{"scriptPubKey": {"reqSigs": 1, "hex": "76a914b3610c9994b4e0ec5b5237705a37ea092fb6899288ac", "addresses": ["1HMUDSGDbtrDKwsUe4vQWCUdRP3Ark7o6T"], "asm": "OP_DUP OP_HASH160 b3610c9994b4e0ec5b5237705a37ea092fb68992 OP_EQUALVERIFY OP_CHECKSIG", "type": "pubkeyhash"}, "value": 0.00687491, "n": 0}, {"scriptPubKey": {"reqSigs": 1, "hex": "76a9146546c8b8d8e85bbc06128ed603c02554c78f821d88ac", "addresses": ["1AEW3YDtjmthZrJz9ZUq3dbYBBYLaSXnUA"], "asm": "OP_DUP OP_HASH160 6546c8b8d8e85bbc06128ed603c02554c78f821d OP_EQUALVERIFY OP_CHECKSIG", "type": "pubkeyhash"}, "value": 0.8913949, "n": 1}], "hex": "0100000001a79b3e1f9e45cde8890cf14923d6c9fb745eee0404b9bb1cb1d551683aa1982e010000006b483045022100a000628cb534e0b8ddde05473cdca3f11401094769722578eb2e90e66b0731260220299a74ee9e5d3a746d1e803e93def8f8d0c14af4b351e23e99e502dbb26acd4c01210379b99957b5e3e21ebfbc8f2e45390752e8eb69347942794000d0e1247c8b747cfeffffff02837d0a00000000001976a914b3610c9994b4e0ec5b5237705a37ea092fb6899288ac22295005000000001976a9146546c8b8d8e85bbc06128ed603c02554c78f821d88ac6e440800", "vin": [{"sequence": 4294967294, "scriptSig": {"hex": "483045022100a000628cb534e0b8ddde05473cdca3f11401094769722578eb2e90e66b0731260220299a74ee9e5d3a746d1e803e93def8f8d0c14af4b351e23e99e502dbb26acd4c01210379b99957b5e3e21ebfbc8f2e45390752e8eb69347942794000d0e1247c8b747c", "asm": "3045022100a000628cb534e0b8ddde05473cdca3f11401094769722578eb2e90e66b0731260220299a74ee9e5d3a746d1e803e93def8f8d0c14af4b351e23e99e502dbb26acd4c[ALL] 0379b99957b5e3e21ebfbc8f2e45390752e8eb69347942794000d0e1247c8b747c"}, "vout": 1, "txid": "2e98a13a6851d5b11cbbb90404ee5e74fbc9d62349f10c89e8cd459e1f3e9ba7"}], "txid": "dcff73b5614e1183da098ee5dad63e498e7df3acdfd1ba423d60432cc668c292", "blocktime": 1537876114, "version": 1, "confirmations": 11460, "time": 1537876114, "locktime": 541806, "vsize": 226, "size": 226}