{"hash": "dd049502c53ae11c8544f1ae950fe54e9a8845735fe15557c8a99385ebd56a42", "blockhash": "000000000000000000022b45ed06c6f4ccd3cf7fb5ba4856ebd2e58215665228", "vout": [{"scriptPubKey": {"reqSigs": 1, "hex": "76a91470bd919f1349091925cf7e64483a2d83ac6d380888ac", "addresses": ["1BH7mxbJe51ehu9MnM3eziViVLJ8nKoSN7"], "asm": "OP_DUP OP_HASH160 70bd919f1349091925cf7e64483a2d83ac6d3808 OP_EQUALVERIFY OP_CHECKSIG", "type": "pubkeyhash"}, "value": 0.00667749, "n": 0}, {"scriptPubKey": {"reqSigs": 1, "hex": "76a9141ac3824572af48e41442ad0f0a4d43a5cecb6dd288ac", "addresses": ["13SWnBZr4oW96iVpNzzR1bNsMXcyBGWEaB"], "asm": "OP_DUP OP_HASH160 1ac3824572af48e41442ad0f0a4d43a5cecb6dd2 OP_EQUALVERIFY OP_CHECKSIG", "type": "pubkeyhash"}, "value": 0.15591332, "n": 1}], "hex": "010000000186a5ef68a56fc7a5a4edc8966c9268ebe89a77ff9403cd4d0384285ce71a8019010000006a47304402204dd03a319cdf118b2e985dc12194ea937a6c9a2e073f6abdacab421bbad22d0b022021d36c2275f884d1bcacc195fbe747f58b203a3e8c75c07fc612f0721e746a5f01210338447fb088175292cff248124405131450c259266fc8b522560fc47320e8be30ffffffff0265300a00000000001976a91470bd919f1349091925cf7e64483a2d83ac6d380888aca4e7ed00000000001976a9141ac3824572af48e41442ad0f0a4d43a5cecb6dd288ac00000000", "vin": [{"sequence": 4294967295, "scriptSig": {"hex": "47304402204dd03a319cdf118b2e985dc12194ea937a6c9a2e073f6abdacab421bbad22d0b022021d36c2275f884d1bcacc195fbe747f58b203a3e8c75c07fc612f0721e746a5f01210338447fb088175292cff248124405131450c259266fc8b522560fc47320e8be30", "asm": "304402204dd03a319cdf118b2e985dc12194ea937a6c9a2e073f6abdacab421bbad22d0b022021d36c2275f884d1bcacc195fbe747f58b203a3e8c75c07fc612f0721e746a5f[ALL] 0338447fb088175292cff248124405131450c259266fc8b522560fc47320e8be30"}, "vout": 1, "txid": "19801ae75c2884034dcd0394ff779ae8eb68926c96c8eda4a5c76fa568efa586"}], "txid": "dd049502c53ae11c8544f1ae950fe54e9a8845735fe15557c8a99385ebd56a42", "blocktime": 1537869901, "version": 1, "confirmations": 11522, "time": 1537869901, "locktime": 0, "vsize": 225, "size": 225}