{"hash": "190d60cf42d4c6ff26ad33a1f76a3ebe8f47d8bf3783f8220d64c5aa1d243616", "blockhash": "0000000000000000001f76057863aec43deb6fa401d9628bb513d65a8098bfab", "vout": [{"scriptPubKey": {"reqSigs": 1, "hex": "76a914663760c78af2096c62b857106ff2d8c8936c78da88ac", "addresses": ["1AKUGJSb2f1NdzMWTzKcyaaXCQFRPLuMbH"], "asm": "OP_DUP OP_HASH160 663760c78af2096c62b857106ff2d8c8936c78da OP_EQUALVERIFY OP_CHECKSIG", "type": "pubkeyhash"}, "value": 0.01873588, "n": 0}, {"scriptPubKey": {"reqSigs": 1, "hex": "0014d3682167e747b10ba052703d4e854fa61a46f83c", "addresses": ["bc1q6d5zzel8g7cshgzjwq75ap205cdyd7puqqrt9t"], "asm": "0 d3682167e747b10ba052703d4e854fa61a46f83c", "type": "witness_v0_keyhash"}, "value": 0.00033848, "n": 1}], "hex": "01000000000101bd084f440d2726d0c07d6f2e185852df36c581e7433292c0455d6e11f267b4e50100000017160014accce3c0b526d2db8bd6a082ddc099404d25dcc5ffffffff02b4961c00000000001976a914663760c78af2096c62b857106ff2d8c8936c78da88ac3884000000000000160014d3682167e747b10ba052703d4e854fa61a46f83c0247304402203ea43bd515ed4f5b07e54e46ca6c7d280b6b715d66570ba5c43190c75fb457040220354ebcb2f763ba75d08216359fb737d1461e29f29f38db3e9503d8bd124dd05501210273ac8ef323ff675b6ac8d3ff5b71bf877db20b02a22ad62d6a0eb87b921e6ff000000000", "vin": [{"txinwitness": ["304402203ea43bd515ed4f5b07e54e46ca6c7d280b6b715d66570ba5c43190c75fb457040220354ebcb2f763ba75d08216359fb737d1461e29f29f38db3e9503d8bd124dd05501", "0273ac8ef323ff675b6ac8d3ff5b71bf877db20b02a22ad62d6a0eb87b921e6ff0"], "sequence": 4294967295, "scriptSig": {"hex": "160014accce3c0b526d2db8bd6a082ddc099404d25dcc5", "asm": "0014accce3c0b526d2db8bd6a082ddc099404d25dcc5"}, "vout": 1, "txid": "e5b467f2116e5d45c0923243e781c536df5258182e6f7dc0d026270d444f08bd"}], "txid": "dd08d9838b65a6f684ebedcdc7e28905501f6f9e7f9c097ecf1c8d252a0fa1e3", "blocktime": 1537873891, "version": 1, "confirmations": 11478, "time": 1537873891, "locktime": 0, "vsize": 167, "size": 248}