{"hash": "dd097098b01bfeea78a1df40d7a43ac8113748e06b7671530e124ed732cf9423", "blockhash": "00000000000000000024a2167bbff67b0be802c0b01cdd79e6331c2be6459f87", "vout": [{"scriptPubKey": {"reqSigs": 1, "hex": "76a9142c3c0a5729620f5cbc93994bffec17bf4ecd14a388ac", "addresses": ["152tf7yAFLM3wQ8m4oijiqNuzKiBu7AhRw"], "asm": "OP_DUP OP_HASH160 2c3c0a5729620f5cbc93994bffec17bf4ecd14a3 OP_EQUALVERIFY OP_CHECKSIG", "type": "pubkeyhash"}, "value": 0.00474616, "n": 0}, {"scriptPubKey": {"reqSigs": 1, "hex": "76a91401486806a4f6b307c2e6da13ab8bb13e685f286488ac", "addresses": ["17nR5FezZ1jKidgJpdkNSwMGMs5TCXuKK"], "asm": "OP_DUP OP_HASH160 01486806a4f6b307c2e6da13ab8bb13e685f2864 OP_EQUALVERIFY OP_CHECKSIG", "type": "pubkeyhash"}, "value": 0.04098603, "n": 1}], "hex": "0100000004fbaa561d0e117b86a510c67572d504ac7421682620318b070aee6bf187ca8829000000006b483045022100e4c59ae97addc2103ad0340fca32fa009001b39825f519fceeac53493e58ab25022006a091fa3158b67ade7ac4cd86e7a5d2b6b622d346686833915f7b8f21c174e4012103b7410ac7e2f0416f3f601b00bfe59f69f98e42b155affe85a75834df65559603ffffffff4da32d42069822264552182ec8cb567f27921f5a8953e89166da5f1e4cf85466000000006a4730440220156a6ac3812b6f965ba88d28ed69d726720e227638c696a0837ba769a5f08c68022067659ef5d21d02ecea6d40a4ecb44d15ac62c71289b25e9745dfc662914d0cab012103b7410ac7e2f0416f3f601b00bfe59f69f98e42b155affe85a75834df65559603ffffffff00f7a15580990db90a7806936e43157e90c701cb01528722cc762b7e66b9d37c010000006b483045022100ca581b1c66b62890b593968858ed3cfa93dd4b9ae5da3442d9f9b27a6e6cdf7e02203b6221a146298a5c1adc69b6928eff8d06513699953d8bfb40ea5e66b96ddb72012103b7410ac7e2f0416f3f601b00bfe59f69f98e42b155affe85a75834df65559603ffffffffc8813bbce14507db7fec31aedaed1afe5ea6913ae24a0647dfb94fa952a43dc5000000006b483045022100d5432e7c9653e2f7f667eb34cd8aeceb690027c6d78eb878490fcd8f7becc2aa0220645321ec116574f7237770e18582f69651e8a9c4b2e4a01d943641e5321d06b3012103b7410ac7e2f0416f3f601b00bfe59f69f98e42b155affe85a75834df65559603ffffffff02f83d0700000000001976a9142c3c0a5729620f5cbc93994bffec17bf4ecd14a388ac2b8a3e00000000001976a91401486806a4f6b307c2e6da13ab8bb13e685f286488ac00000000", "vin": [{"sequence": 4294967295, "scriptSig": {"hex": "483045022100e4c59ae97addc2103ad0340fca32fa009001b39825f519fceeac53493e58ab25022006a091fa3158b67ade7ac4cd86e7a5d2b6b622d346686833915f7b8f21c174e4012103b7410ac7e2f0416f3f601b00bfe59f69f98e42b155affe85a75834df65559603", "asm": "3045022100e4c59ae97addc2103ad0340fca32fa009001b39825f519fceeac53493e58ab25022006a091fa3158b67ade7ac4cd86e7a5d2b6b622d346686833915f7b8f21c174e4[ALL] 03b7410ac7e2f0416f3f601b00bfe59f69f98e42b155affe85a75834df65559603"}, "vout": 0, "txid": "2988ca87f16bee0a078b312026682174ac04d57275c610a5867b110e1d56aafb"}, {"sequence": 4294967295, "scriptSig": {"hex": "4730440220156a6ac3812b6f965ba88d28ed69d726720e227638c696a0837ba769a5f08c68022067659ef5d21d02ecea6d40a4ecb44d15ac62c71289b25e9745dfc662914d0cab012103b7410ac7e2f0416f3f601b00bfe59f69f98e42b155affe85a75834df65559603", "asm": "30440220156a6ac3812b6f965ba88d28ed69d726720e227638c696a0837ba769a5f08c68022067659ef5d21d02ecea6d40a4ecb44d15ac62c71289b25e9745dfc662914d0cab[ALL] 03b7410ac7e2f0416f3f601b00bfe59f69f98e42b155affe85a75834df65559603"}, "vout": 0, "txid": "6654f84c1e5fda6691e853895a1f92277f56cbc82e18524526229806422da34d"}, {"sequence": 4294967295, "scriptSig": {"hex": "483045022100ca581b1c66b62890b593968858ed3cfa93dd4b9ae5da3442d9f9b27a6e6cdf7e02203b6221a146298a5c1adc69b6928eff8d06513699953d8bfb40ea5e66b96ddb72012103b7410ac7e2f0416f3f601b00bfe59f69f98e42b155affe85a75834df65559603", "asm": "3045022100ca581b1c66b62890b593968858ed3cfa93dd4b9ae5da3442d9f9b27a6e6cdf7e02203b6221a146298a5c1adc69b6928eff8d06513699953d8bfb40ea5e66b96ddb72[ALL] 03b7410ac7e2f0416f3f601b00bfe59f69f98e42b155affe85a75834df65559603"}, "vout": 1, "txid": "7cd3b9667e2b76cc22875201cb01c7907e15436e9306780ab90d998055a1f700"}, {"sequence": 4294967295, "scriptSig": {"hex": "483045022100d5432e7c9653e2f7f667eb34cd8aeceb690027c6d78eb878490fcd8f7becc2aa0220645321ec116574f7237770e18582f69651e8a9c4b2e4a01d943641e5321d06b3012103b7410ac7e2f0416f3f601b00bfe59f69f98e42b155affe85a75834df65559603", "asm": "3045022100d5432e7c9653e2f7f667eb34cd8aeceb690027c6d78eb878490fcd8f7becc2aa0220645321ec116574f7237770e18582f69651e8a9c4b2e4a01d943641e5321d06b3[ALL] 03b7410ac7e2f0416f3f601b00bfe59f69f98e42b155affe85a75834df65559603"}, "vout": 0, "txid": "c53da452a94fb9df47064ae23a91a65efe1aeddaae31ec7fdb0745e1bc3b81c8"}], "txid": "dd097098b01bfeea78a1df40d7a43ac8113748e06b7671530e124ed732cf9423", "blocktime": 1537870564, "version": 1, "confirmations": 11515, "time": 1537870564, "locktime": 0, "vsize": 669, "size": 669}