{"hash": "dd0b74591ce33f678a7db1e10a8c2be0c738e5c75916f440629de1e583ab16be", "blockhash": "0000000000000000001cda96e906b7601b7a6fb1a3b62bca570a9e5d8f4b3de1", "vout": [{"scriptPubKey": {"reqSigs": 1, "hex": "a91440a04a6f3901926dec196f0275e29db883bbfced87", "addresses": ["37ajC21EYhE41sejVjT8pgcrHvc43ZyV7d"], "asm": "OP_HASH160 40a04a6f3901926dec196f0275e29db883bbfced OP_EQUAL", "type": "scripthash"}, "value": 0.0027396, "n": 0}, {"scriptPubKey": {"reqSigs": 1, "hex": "76a9140751bd3bf1e795de293e2ea6bad6451411c8572788ac", "addresses": ["1fhegYHDrKksajgCQid2BsfDKjX33bHuY"], "asm": "OP_DUP OP_HASH160 0751bd3bf1e795de293e2ea6bad6451411c85727 OP_EQUALVERIFY OP_CHECKSIG", "type": "pubkeyhash"}, "value": 0.05149266, "n": 1}], "hex": "01000000018664349b57679edb4f0833af69d39c298a40bba5b4b1cdd96b46e84960f84f73010000006a47304402201e629fbb79325055581081864c7cc047694044183f7cefaf7d4f60949b92172b0220139914002706ecea0b8e64191b8c8e72bf43a1d9f7a662b434343dbabb638c08012103116bf81c69f4944a4866f62d9caa85f901154229967c6e1b6e0b6ef02f927891ffffffff02282e04000000000017a91440a04a6f3901926dec196f0275e29db883bbfced8752924e00000000001976a9140751bd3bf1e795de293e2ea6bad6451411c8572788ac00000000", "vin": [{"sequence": 4294967295, "scriptSig": {"hex": "47304402201e629fbb79325055581081864c7cc047694044183f7cefaf7d4f60949b92172b0220139914002706ecea0b8e64191b8c8e72bf43a1d9f7a662b434343dbabb638c08012103116bf81c69f4944a4866f62d9caa85f901154229967c6e1b6e0b6ef02f927891", "asm": "304402201e629fbb79325055581081864c7cc047694044183f7cefaf7d4f60949b92172b0220139914002706ecea0b8e64191b8c8e72bf43a1d9f7a662b434343dbabb638c08[ALL] 03116bf81c69f4944a4866f62d9caa85f901154229967c6e1b6e0b6ef02f927891"}, "vout": 1, "txid": "734ff86049e8466bd9cdb1b4a5bb408a299cd369af33084fdb9e67579b346486"}], "txid": "dd0b74591ce33f678a7db1e10a8c2be0c738e5c75916f440629de1e583ab16be", "blocktime": 1537873282, "version": 1, "confirmations": 11484, "time": 1537873282, "locktime": 0, "vsize": 223, "size": 223}