{"hash": "dd0f0061dada61231e0b27e6b8e121513b86982cc261ad834fec0236f93aae12", "blockhash": "0000000000000000001cda96e906b7601b7a6fb1a3b62bca570a9e5d8f4b3de1", "vout": [{"scriptPubKey": {"reqSigs": 1, "hex": "76a914a8e0d18fc4f26dc99724101447c070e1abe1771788ac", "addresses": ["1GPwqu4pVnCnLpN2rxFMbuX2C721rd7reL"], "asm": "OP_DUP OP_HASH160 a8e0d18fc4f26dc99724101447c070e1abe17717 OP_EQUALVERIFY OP_CHECKSIG", "type": "pubkeyhash"}, "value": 0.03639697, "n": 0}], "hex": "0100000001b116772b7400746980ad44369591c5b2bc1c7604289b7383675ff711e778dcf1010000006a473044022074afa370676160cab5f36aac2b9c67f7166d4496b81d54268d2e5775c5d24c9902204489a5a89c1571437b61f47156f76c154dd7c81618b72f1e869ada78e9809862012102d184831eb13ec5183762ee3608cdf4d6fc9422ba44085c868e902086880c1cd3ffffffff0191893700000000001976a914a8e0d18fc4f26dc99724101447c070e1abe1771788ac00000000", "vin": [{"sequence": 4294967295, "scriptSig": {"hex": "473044022074afa370676160cab5f36aac2b9c67f7166d4496b81d54268d2e5775c5d24c9902204489a5a89c1571437b61f47156f76c154dd7c81618b72f1e869ada78e9809862012102d184831eb13ec5183762ee3608cdf4d6fc9422ba44085c868e902086880c1cd3", "asm": "3044022074afa370676160cab5f36aac2b9c67f7166d4496b81d54268d2e5775c5d24c9902204489a5a89c1571437b61f47156f76c154dd7c81618b72f1e869ada78e9809862[ALL] 02d184831eb13ec5183762ee3608cdf4d6fc9422ba44085c868e902086880c1cd3"}, "vout": 1, "txid": "f1dc78e711f75f6783739b2804761cbcb2c591953644ad80697400742b7716b1"}], "txid": "dd0f0061dada61231e0b27e6b8e121513b86982cc261ad834fec0236f93aae12", "blocktime": 1537873282, "version": 1, "confirmations": 11484, "time": 1537873282, "locktime": 0, "vsize": 191, "size": 191}