{"hash": "dd101c242b0eb8741e4ddfd12fd6c1c6258e874155c94232df60dc12c0a24906", "blockhash": "0000000000000000000baef3f32e3676a92c3b2e5da21b426e4f302fc371ce76", "vout": [{"scriptPubKey": {"reqSigs": 1, "hex": "76a914a520c86a08366941cd90d22e11ac1c7eefa2db3788ac", "addresses": ["1G47mSr3oANXMafVrR8UC4pzV7FEAzo3r9"], "asm": "OP_DUP OP_HASH160 a520c86a08366941cd90d22e11ac1c7eefa2db37 OP_EQUALVERIFY OP_CHECKSIG", "type": "pubkeyhash"}, "value": 0.22039543, "n": 0}, {"scriptPubKey": {"reqSigs": 1, "hex": "a91429e9cce431de28b160a7b19d2cf12ffd5a305aa387", "addresses": ["35Wdi9DGFJmrymv3ZU19nzUHFDgkFFJ2dP"], "asm": "OP_HASH160 29e9cce431de28b160a7b19d2cf12ffd5a305aa3 OP_EQUAL", "type": "scripthash"}, "value": 0.033, "n": 1}], "hex": "0100000001d21bd9627eb9376a6d0aed74ae6a03bf0bc90a3aae85e3b4386930c8d59003c6000000006b483045022100b9f38010ff0af516d08ada6b212d2c2057a076014827ce45b7791acb5452a3ba02200a1eeec3a08df947c64b5e936cca971032e0eeb61171c0b234b2999d24b5c5ac012103f3f44c9e80e2cedc1a2909631a3adea8866ee32187f74d0912387359b0ff36a2ffffffff02f74b5001000000001976a914a520c86a08366941cd90d22e11ac1c7eefa2db3788aca05a32000000000017a91429e9cce431de28b160a7b19d2cf12ffd5a305aa38700000000", "vin": [{"sequence": 4294967295, "scriptSig": {"hex": "483045022100b9f38010ff0af516d08ada6b212d2c2057a076014827ce45b7791acb5452a3ba02200a1eeec3a08df947c64b5e936cca971032e0eeb61171c0b234b2999d24b5c5ac012103f3f44c9e80e2cedc1a2909631a3adea8866ee32187f74d0912387359b0ff36a2", "asm": "3045022100b9f38010ff0af516d08ada6b212d2c2057a076014827ce45b7791acb5452a3ba02200a1eeec3a08df947c64b5e936cca971032e0eeb61171c0b234b2999d24b5c5ac[ALL] 03f3f44c9e80e2cedc1a2909631a3adea8866ee32187f74d0912387359b0ff36a2"}, "vout": 0, "txid": "c60390d5c8306938b4e385ae3a0ac90bbf036aae74ed0a6d6a37b97e62d91bd2"}], "txid": "dd101c242b0eb8741e4ddfd12fd6c1c6258e874155c94232df60dc12c0a24906", "blocktime": 1537876114, "version": 1, "confirmations": 11460, "time": 1537876114, "locktime": 0, "vsize": 224, "size": 224}