{"hash": "dd1247020ce05b1e4a42796038fec1182a4a0658cb4418f52c69e301b55c13a2", "blockhash": "0000000000000000001f76057863aec43deb6fa401d9628bb513d65a8098bfab", "vout": [{"scriptPubKey": {"reqSigs": 1, "hex": "76a91487d0a410ff6d597de9b739f07d03f7040fc880b188ac", "addresses": ["1DP8AX9voAdDuNjbRKGSJnT1baXQF9QkFf"], "asm": "OP_DUP OP_HASH160 87d0a410ff6d597de9b739f07d03f7040fc880b1 OP_EQUALVERIFY OP_CHECKSIG", "type": "pubkeyhash"}, "value": 0.01261, "n": 0}, {"scriptPubKey": {"reqSigs": 1, "hex": "a914e370231feecbfc25e2e2423a5a79bf79bfdca59887", "addresses": ["3NRbeX3vD5VaVE4TDU9ivCDsEf7NPPte6J"], "asm": "OP_HASH160 e370231feecbfc25e2e2423a5a79bf79bfdca598 OP_EQUAL", "type": "scripthash"}, "value": 0.45761788, "n": 1}], "hex": "0100000001ab52f43b39e9b62cd87fd53d5754d381fb9e69d453f184488cf3fc0b75ddf77401000000da0048304502210089a278de87316f0a4fd565ab3570d0edab824fac4dee331d218544b744c6ffb40220561363b22592721012c38fa18181cee26bbed43fe113d62dc98c80ff599a5c4b0147304402202861df7b85e15a4463cda8d9c4f9a5aef30d067cddf84f55115a6ccebc78c20d02205b66ee93e3eb75eae7efe7c83cc0020f72631f5c03a8f861e18db8b983380ad4014752210327881b6abce6535553a3ce21fad12a7d74fd237ce7c4cd270a267162344e3082210256141f8eb687f5a68c5cc65054652dc25116fa285e44d72b44368827ffe77d9a52aeffffffff02c83d1300000000001976a91487d0a410ff6d597de9b739f07d03f7040fc880b188acfc44ba020000000017a914e370231feecbfc25e2e2423a5a79bf79bfdca5988700000000", "vin": [{"sequence": 4294967295, "scriptSig": {"hex": "0048304502210089a278de87316f0a4fd565ab3570d0edab824fac4dee331d218544b744c6ffb40220561363b22592721012c38fa18181cee26bbed43fe113d62dc98c80ff599a5c4b0147304402202861df7b85e15a4463cda8d9c4f9a5aef30d067cddf84f55115a6ccebc78c20d02205b66ee93e3eb75eae7efe7c83cc0020f72631f5c03a8f861e18db8b983380ad4014752210327881b6abce6535553a3ce21fad12a7d74fd237ce7c4cd270a267162344e3082210256141f8eb687f5a68c5cc65054652dc25116fa285e44d72b44368827ffe77d9a52ae", "asm": "0 304502210089a278de87316f0a4fd565ab3570d0edab824fac4dee331d218544b744c6ffb40220561363b22592721012c38fa18181cee26bbed43fe113d62dc98c80ff599a5c4b[ALL] 304402202861df7b85e15a4463cda8d9c4f9a5aef30d067cddf84f55115a6ccebc78c20d02205b66ee93e3eb75eae7efe7c83cc0020f72631f5c03a8f861e18db8b983380ad4[ALL] 52210327881b6abce6535553a3ce21fad12a7d74fd237ce7c4cd270a267162344e3082210256141f8eb687f5a68c5cc65054652dc25116fa285e44d72b44368827ffe77d9a52ae"}, "vout": 1, "txid": "74f7dd750bfcf38c4884f153d4699efb81d354573dd57fd82cb6e9393bf452ab"}], "txid": "dd1247020ce05b1e4a42796038fec1182a4a0658cb4418f52c69e301b55c13a2", "blocktime": 1537873891, "version": 1, "confirmations": 11478, "time": 1537873891, "locktime": 0, "vsize": 335, "size": 335}