{"hash": "4041137f0ce70ab239e609b373481065c2a622f86588ecc4d0a804d8ec87e9f6", "blockhash": "0000000000000000000e13cef7c366c0283d82e591d1acd082e914b08063cdf1", "vout": [{"scriptPubKey": {"reqSigs": 1, "hex": "76a914bd7d024bd5287f2b5ef6f5aa73900adccb724a5488ac", "addresses": ["1JGvU2pjNPDdm3mFyoqB6VF4nK7hRzrkuy"], "asm": "OP_DUP OP_HASH160 bd7d024bd5287f2b5ef6f5aa73900adccb724a54 OP_EQUALVERIFY OP_CHECKSIG", "type": "pubkeyhash"}, "value": 0.074537, "n": 0}, {"scriptPubKey": {"reqSigs": 1, "hex": "a914c26e83ece7f65beff0e252ecd2fd5403e10ca99587", "addresses": ["3KR5QVtQB6sCqdUacdb3vb8QTkauyqsbut"], "asm": "OP_HASH160 c26e83ece7f65beff0e252ecd2fd5403e10ca995 OP_EQUAL", "type": "scripthash"}, "value": 0.13042881, "n": 1}], "hex": "01000000000101768334def50a316d4586307ed16ee8792149ae579e6151ae8de68b5f85d0f9c6010000002322002061b7e0679c39feb972a76917fed8b59a2af28b216dde6dcf6b3205156948ce58ffffffff0204bc7100000000001976a914bd7d024bd5287f2b5ef6f5aa73900adccb724a5488acc104c7000000000017a914c26e83ece7f65beff0e252ecd2fd5403e10ca99587040047304402207fd588b62774bb9eedec33bc305e65c4257819d2495afe07014c5fd9eff4d7810220177d0accb837cd1e4f4d43c1dfca2bb60323b2d7a42d64193029d5952d702e8c01483045022100aff7219c376872773e07414a9c29aa7dea4c714c46a812ac6765b863fa86058702202281b38654241aee4f00a374dc40ec763d777e0963d7de1fce4de1be5c785915014752210334016f8ee34d545e41a39e49929d1d9d91db6b3d60e6e69635ba210692b768a42102dd2332c0512dee4ea813748993f8056f254166d97719c8c2e4e8f542e54e1af152ae00000000", "vin": [{"txinwitness": ["", "304402207fd588b62774bb9eedec33bc305e65c4257819d2495afe07014c5fd9eff4d7810220177d0accb837cd1e4f4d43c1dfca2bb60323b2d7a42d64193029d5952d702e8c01", "3045022100aff7219c376872773e07414a9c29aa7dea4c714c46a812ac6765b863fa86058702202281b38654241aee4f00a374dc40ec763d777e0963d7de1fce4de1be5c78591501", "52210334016f8ee34d545e41a39e49929d1d9d91db6b3d60e6e69635ba210692b768a42102dd2332c0512dee4ea813748993f8056f254166d97719c8c2e4e8f542e54e1af152ae"], "sequence": 4294967295, "scriptSig": {"hex": "22002061b7e0679c39feb972a76917fed8b59a2af28b216dde6dcf6b3205156948ce58", "asm": "002061b7e0679c39feb972a76917fed8b59a2af28b216dde6dcf6b3205156948ce58"}, "vout": 1, "txid": "c6f9d0855f8be68dae51619e57ae492179e86ed17e3086456d310af5de348376"}], "txid": "dd1bae6c963117d3faeb2ee0676fc95d13544a1b728eeed6a04e062c1ee4f8c0", "blocktime": 1537871767, "version": 1, "confirmations": 11495, "time": 1537871767, "locktime": 0, "vsize": 208, "size": 373}