{"hash": "dd1b85c03145333bfd5d67e7d5aec7deacc7d5a96d8235580feabe60e4b3efd1", "blockhash": "00000000000000000024a2167bbff67b0be802c0b01cdd79e6331c2be6459f87", "vout": [{"scriptPubKey": {"reqSigs": 1, "hex": "76a914ce8d0382046e1315caf1e6b75dd29e02427b386188ac", "addresses": ["1Kq98KcVHRTGqNyoWok9CDUugjRuuRPHL2"], "asm": "OP_DUP OP_HASH160 ce8d0382046e1315caf1e6b75dd29e02427b3861 OP_EQUALVERIFY OP_CHECKSIG", "type": "pubkeyhash"}, "value": 0.02942202, "n": 0}, {"scriptPubKey": {"reqSigs": 1, "hex": "76a914a981cfdae3259bf191fdeea31e657dfa349c522188ac", "addresses": ["1GTGhupKKB99F5QvPdAhL3u6fTPpCRPggY"], "asm": "OP_DUP OP_HASH160 a981cfdae3259bf191fdeea31e657dfa349c5221 OP_EQUALVERIFY OP_CHECKSIG", "type": "pubkeyhash"}, "value": 0.1898436, "n": 1}], "hex": "0100000001db934df12d8141e81ce9e65f1d0216315020f6c11fba9d5ccb28853223818378010000006b483045022100c0257fb6917bddf509fbcfce6db92c0f9c8a6ddb244013f56599e29fbc749a020220464871d2745c807e02a35c687153650c49d57b471ec01175aac2ab4c06d9cb320121022da8a2022fc0943770d94a1cd27a07013fcad53022d2fafd014a8e8a5b32088effffffff02fae42c00000000001976a914ce8d0382046e1315caf1e6b75dd29e02427b386188aca8ad2101000000001976a914a981cfdae3259bf191fdeea31e657dfa349c522188ac00000000", "vin": [{"sequence": 4294967295, "scriptSig": {"hex": "483045022100c0257fb6917bddf509fbcfce6db92c0f9c8a6ddb244013f56599e29fbc749a020220464871d2745c807e02a35c687153650c49d57b471ec01175aac2ab4c06d9cb320121022da8a2022fc0943770d94a1cd27a07013fcad53022d2fafd014a8e8a5b32088e", "asm": "3045022100c0257fb6917bddf509fbcfce6db92c0f9c8a6ddb244013f56599e29fbc749a020220464871d2745c807e02a35c687153650c49d57b471ec01175aac2ab4c06d9cb32[ALL] 022da8a2022fc0943770d94a1cd27a07013fcad53022d2fafd014a8e8a5b32088e"}, "vout": 1, "txid": "78838123328528cb5c9dba1fc1f620503116021d5fe6e91ce841812df14d93db"}], "txid": "dd1b85c03145333bfd5d67e7d5aec7deacc7d5a96d8235580feabe60e4b3efd1", "blocktime": 1537870564, "version": 1, "confirmations": 11515, "time": 1537870564, "locktime": 0, "vsize": 226, "size": 226}