{"hash": "dab60cbce62bb999d43c9d7fd8f2ac9c1a7656d95bb8ff4d5f0e29c45dd9346d", "blockhash": "00000000000000000024a2167bbff67b0be802c0b01cdd79e6331c2be6459f87", "vout": [{"scriptPubKey": {"reqSigs": 1, "hex": "a9146de64e678dd19afffe93b3cfbfbacef05aae950587", "addresses": ["3Bi7UQvWoL9UGiWtG6ieNcACxMWTzaBvYc"], "asm": "OP_HASH160 6de64e678dd19afffe93b3cfbfbacef05aae9505 OP_EQUAL", "type": "scripthash"}, "value": 0.00262844, "n": 0}, {"scriptPubKey": {"reqSigs": 1, "hex": "a91408d001e3551d3ce83bd32e12f5296206cc4dd5a687", "addresses": ["32VcWgdry8nUd42dA72Vq4YqN6M9eDA4rT"], "asm": "OP_HASH160 08d001e3551d3ce83bd32e12f5296206cc4dd5a6 OP_EQUAL", "type": "scripthash"}, "value": 1.31960254, "n": 1}], "hex": "010000000001015bf1b0fe9c7895c10cc1f1e8327b8a60d51799f9233b4042f03721619b70b3e90100000023220020ca96902fcb665c94a3834ad4f51d6b18c7ec1284932199a2addfdde7a8d1a7bbffffffff02bc0204000000000017a9146de64e678dd19afffe93b3cfbfbacef05aae950587be8ddd070000000017a91408d001e3551d3ce83bd32e12f5296206cc4dd5a6870400483045022100fc8cbba02b0453e90da6b011ece6a3a7b0a5d82fae5000aee31682a9fa4a45e302206297e7428337a7c5a4ba6bed2b027fd3cec1b29e106c5e8aecd0f43edc038dd00147304402206e51565d66b4ead5e3eb14923ccf354a659d053a757bc6712ceea40b9a9cb45102207544756c138b6e4d9292464acc727b60ac7533902f250f53d3636b0ea2510e58014752210236155d50029dca74760e35f0eabb4424eb6d649bf250f7d17826d4bc70264eac21035103ae7fde57e8b6bb3bb5f71f41a1a19d611723da7ff266c973839886408c4452ae00000000", "vin": [{"txinwitness": ["", "3045022100fc8cbba02b0453e90da6b011ece6a3a7b0a5d82fae5000aee31682a9fa4a45e302206297e7428337a7c5a4ba6bed2b027fd3cec1b29e106c5e8aecd0f43edc038dd001", "304402206e51565d66b4ead5e3eb14923ccf354a659d053a757bc6712ceea40b9a9cb45102207544756c138b6e4d9292464acc727b60ac7533902f250f53d3636b0ea2510e5801", "52210236155d50029dca74760e35f0eabb4424eb6d649bf250f7d17826d4bc70264eac21035103ae7fde57e8b6bb3bb5f71f41a1a19d611723da7ff266c973839886408c4452ae"], "sequence": 4294967295, "scriptSig": {"hex": "220020ca96902fcb665c94a3834ad4f51d6b18c7ec1284932199a2addfdde7a8d1a7bb", "asm": "0020ca96902fcb665c94a3834ad4f51d6b18c7ec1284932199a2addfdde7a8d1a7bb"}, "vout": 1, "txid": "e9b3709b612137f042403b23f99917d5608a7b32e8f1c10cc195789cfeb0f15b"}], "txid": "dd1ffa3b6184c026cd35ac525aa55865abada53c94f927d46c2f8b971fc1ff00", "blocktime": 1537870564, "version": 1, "confirmations": 11515, "time": 1537870564, "locktime": 0, "vsize": 206, "size": 371}