{"hash": "dd2110384c3b3b9a71ec158d23664b8848894b2148f3942894074fc5bb188518", "blockhash": "0000000000000000000e13cef7c366c0283d82e591d1acd082e914b08063cdf1", "vout": [{"scriptPubKey": {"reqSigs": 1, "hex": "a914f15a2ee420a10933fff7c7561ff2687a5bab822c87", "addresses": ["3PhAop1Q5EAgjg9uhwiaYqTCXZJ2cw4GWx"], "asm": "OP_HASH160 f15a2ee420a10933fff7c7561ff2687a5bab822c OP_EQUAL", "type": "scripthash"}, "value": 0.00504506, "n": 0}, {"scriptPubKey": {"reqSigs": 1, "hex": "76a914ba840eb4140b03c3e21b9e88393d92ce8b379a5c88ac", "addresses": ["1J1CtC8cd3dpMC3ErVkqa57ueTxPgXWWTM"], "asm": "OP_DUP OP_HASH160 ba840eb4140b03c3e21b9e88393d92ce8b379a5c OP_EQUALVERIFY OP_CHECKSIG", "type": "pubkeyhash"}, "value": 0.2266645, "n": 1}], "hex": "01000000013882e52f9f9a962fde4cfce4318ac5969a3182aad4ef335729c8f5abf0551ae9010000006a473044022013551accb3f1511b9fd1f5fa1cf40eee6fcc748702af015c673c675612de26d5022033ce61dbbbc72e4aaf5b18a8d3a32e55b6ee48ae0c5ff1d6330a1e0481ad35f701210333cfc98324101a6631da7774fdfe3f998eabb4a6ea8881c462aba5892b7abfa9ffffffff02bab207000000000017a914f15a2ee420a10933fff7c7561ff2687a5bab822c87d2dc5901000000001976a914ba840eb4140b03c3e21b9e88393d92ce8b379a5c88ac00000000", "vin": [{"sequence": 4294967295, "scriptSig": {"hex": "473044022013551accb3f1511b9fd1f5fa1cf40eee6fcc748702af015c673c675612de26d5022033ce61dbbbc72e4aaf5b18a8d3a32e55b6ee48ae0c5ff1d6330a1e0481ad35f701210333cfc98324101a6631da7774fdfe3f998eabb4a6ea8881c462aba5892b7abfa9", "asm": "3044022013551accb3f1511b9fd1f5fa1cf40eee6fcc748702af015c673c675612de26d5022033ce61dbbbc72e4aaf5b18a8d3a32e55b6ee48ae0c5ff1d6330a1e0481ad35f7[ALL] 0333cfc98324101a6631da7774fdfe3f998eabb4a6ea8881c462aba5892b7abfa9"}, "vout": 1, "txid": "e91a55f0abf5c8295733efd4aa82319a96c58a31e4fc4cde2f969a9f2fe58238"}], "txid": "dd2110384c3b3b9a71ec158d23664b8848894b2148f3942894074fc5bb188518", "blocktime": 1537871767, "version": 1, "confirmations": 11495, "time": 1537871767, "locktime": 0, "vsize": 223, "size": 223}