{"hash": "dd214ae1617dff2a20c37411df38f9c6fad5c70b919391b3158440b43d34766a", "blockhash": "00000000000000000017f5eb5941039fbcee6240d03bc1f2f8e35350df66a1d8", "vout": [{"scriptPubKey": {"reqSigs": 1, "hex": "a9149f541b4f703c58aa1f4eb9ba744a7fe91e787ae487", "addresses": ["3GDU7sxeYiWuLHeYSNRv29RgPv3f7ekNag"], "asm": "OP_HASH160 9f541b4f703c58aa1f4eb9ba744a7fe91e787ae4 OP_EQUAL", "type": "scripthash"}, "value": 0.00325187, "n": 0}, {"scriptPubKey": {"reqSigs": 1, "hex": "76a914212f262b2565460fa70801c9ded766336f74ba5688ac", "addresses": ["142TnJooT5TDghfneg4zJMSoy4BXxi7AZP"], "asm": "OP_DUP OP_HASH160 212f262b2565460fa70801c9ded766336f74ba56 OP_EQUALVERIFY OP_CHECKSIG", "type": "pubkeyhash"}, "value": 0.02574628, "n": 1}], "hex": "0100000001f20e36c5f0a1ceec764383d9adc093736e7ed9fdddd359f2e3729aa5324ce803010000006a473044022068ef13c4c3804bc5564c94e88b0f1504a161c41dfdd418a3bed273b012d7d74a02203a0dad6a3407530d95e5c2295eacf207182b14114ff8b48f6fc0ffc898fb0b5c012103fcfaba1eda9046e719a85ab1892501f49f9148fc5ef5b4a546a6537111674101ffffffff0243f604000000000017a9149f541b4f703c58aa1f4eb9ba744a7fe91e787ae48724492700000000001976a914212f262b2565460fa70801c9ded766336f74ba5688ac00000000", "vin": [{"sequence": 4294967295, "scriptSig": {"hex": "473044022068ef13c4c3804bc5564c94e88b0f1504a161c41dfdd418a3bed273b012d7d74a02203a0dad6a3407530d95e5c2295eacf207182b14114ff8b48f6fc0ffc898fb0b5c012103fcfaba1eda9046e719a85ab1892501f49f9148fc5ef5b4a546a6537111674101", "asm": "3044022068ef13c4c3804bc5564c94e88b0f1504a161c41dfdd418a3bed273b012d7d74a02203a0dad6a3407530d95e5c2295eacf207182b14114ff8b48f6fc0ffc898fb0b5c[ALL] 03fcfaba1eda9046e719a85ab1892501f49f9148fc5ef5b4a546a6537111674101"}, "vout": 1, "txid": "03e84c32a59a72e3f259d3ddfdd97e6e7393c0add9834376eccea1f0c5360ef2"}], "txid": "dd214ae1617dff2a20c37411df38f9c6fad5c70b919391b3158440b43d34766a", "blocktime": 1537874412, "version": 1, "confirmations": 11467, "time": 1537874412, "locktime": 0, "vsize": 223, "size": 223}