{"hash": "dd26041592810352b7258b4507cb25d6acf7f45ca356eed7ee5d63bc4168ee62", "blockhash": "0000000000000000000baef3f32e3676a92c3b2e5da21b426e4f302fc371ce76", "vout": [{"scriptPubKey": {"reqSigs": 1, "hex": "76a914d5808ca08030e63499af9d113fef130344729d2c88ac", "addresses": ["1LTtvdAT3LNFKNkEBkDmSF1kCNTYChCyqQ"], "asm": "OP_DUP OP_HASH160 d5808ca08030e63499af9d113fef130344729d2c OP_EQUALVERIFY OP_CHECKSIG", "type": "pubkeyhash"}, "value": 0.0027459, "n": 0}, {"scriptPubKey": {"reqSigs": 1, "hex": "76a914bb96ba5bf6cfd588a3152c5e1b8ddcba4adeb04e88ac", "addresses": ["1J6svdpyFPtv8K2jLKngSuSYLunQjJzoQt"], "asm": "OP_DUP OP_HASH160 bb96ba5bf6cfd588a3152c5e1b8ddcba4adeb04e OP_EQUALVERIFY OP_CHECKSIG", "type": "pubkeyhash"}, "value": 0.02572289, "n": 1}], "hex": "0100000001d16d3b7c2be308583ded3de4fedc79dfb691d04f229e6f236f6ae2e6033688c2010000006b483045022100933206a2f4ba80dfad62786e0aec5be8fd3a07e32aa6798056d993531a697e3c022023175ae1a472b2200fc8b31f5a94c0b8d12ba8fe1787d14cd7e18068057fc30401210327b1c2841280462ca8c339e452e391c9ab57b046869a9582213054ec187aa810ffffffff029e300400000000001976a914d5808ca08030e63499af9d113fef130344729d2c88ac01402700000000001976a914bb96ba5bf6cfd588a3152c5e1b8ddcba4adeb04e88ac00000000", "vin": [{"sequence": 4294967295, "scriptSig": {"hex": "483045022100933206a2f4ba80dfad62786e0aec5be8fd3a07e32aa6798056d993531a697e3c022023175ae1a472b2200fc8b31f5a94c0b8d12ba8fe1787d14cd7e18068057fc30401210327b1c2841280462ca8c339e452e391c9ab57b046869a9582213054ec187aa810", "asm": "3045022100933206a2f4ba80dfad62786e0aec5be8fd3a07e32aa6798056d993531a697e3c022023175ae1a472b2200fc8b31f5a94c0b8d12ba8fe1787d14cd7e18068057fc304[ALL] 0327b1c2841280462ca8c339e452e391c9ab57b046869a9582213054ec187aa810"}, "vout": 1, "txid": "c2883603e6e26a6f236f9e224fd091b6df79dcfee43ded3d5808e32b7c3b6dd1"}], "txid": "dd26041592810352b7258b4507cb25d6acf7f45ca356eed7ee5d63bc4168ee62", "blocktime": 1537876114, "version": 1, "confirmations": 11460, "time": 1537876114, "locktime": 0, "vsize": 226, "size": 226}