{"hash": "dd2d25446eb155f36fc72548171b5f731dd19cf1df2a58dd281ef4b44893fb9b", "blockhash": "0000000000000000001e0dab787dd257d1dbfcb92a98c2207d5e1078be1f4165", "vout": [{"scriptPubKey": {"reqSigs": 1, "hex": "76a9142412b577c8a114adcc3863928a822b91cccd988788ac", "addresses": ["14HjjpaBNoD4aQmFtRQ4FicqZKPbPNXXEG"], "asm": "OP_DUP OP_HASH160 2412b577c8a114adcc3863928a822b91cccd9887 OP_EQUALVERIFY OP_CHECKSIG", "type": "pubkeyhash"}, "value": 0.00266463, "n": 0}, {"scriptPubKey": {"reqSigs": 1, "hex": "76a914beeea4e77a03ba83b0f1f7c5dba169711ed5ae1088ac", "addresses": ["1JQZGjbs1TRAZhgFuELY4FEbYCuHAp7W7K"], "asm": "OP_DUP OP_HASH160 beeea4e77a03ba83b0f1f7c5dba169711ed5ae10 OP_EQUALVERIFY OP_CHECKSIG", "type": "pubkeyhash"}, "value": 0.00812308, "n": 1}], "hex": "0100000002fc23bf260029f1115a7e466b36a42047036def1795a5b274039f053afd7ace30000000006a473044022041dabc35470b1a64a0ebb1fb1a75d81af6e1809c588b0e5ed744de309c2d098402206492c8d1bae4670e4153279afd44752dc1da678ecacb855e01e2b8e9f8dd809e0121027467924dcab34ed3d4b2e97c748208f07b139ac9153b43cfb380e3656c2700a4ffffffff58455e30f37ec3e6df4552c42620771a4bd25b0c80e6e043e875c45709227d3a000000006b483045022100c2e5654642abadc9769f87a70022d6f989ed02b998a7c6618777ad19cf5fa75102204694358861ab255ee85085f92efe8cbef8fb3db380c0c6c7ffde9c082562d023012102526c52b0413311b18d761c83cdd599c2a6b945a297a5fe05d74bb5d1adb244b4ffffffff02df100400000000001976a9142412b577c8a114adcc3863928a822b91cccd988788ac14650c00000000001976a914beeea4e77a03ba83b0f1f7c5dba169711ed5ae1088ac00000000", "vin": [{"sequence": 4294967295, "scriptSig": {"hex": "473044022041dabc35470b1a64a0ebb1fb1a75d81af6e1809c588b0e5ed744de309c2d098402206492c8d1bae4670e4153279afd44752dc1da678ecacb855e01e2b8e9f8dd809e0121027467924dcab34ed3d4b2e97c748208f07b139ac9153b43cfb380e3656c2700a4", "asm": "3044022041dabc35470b1a64a0ebb1fb1a75d81af6e1809c588b0e5ed744de309c2d098402206492c8d1bae4670e4153279afd44752dc1da678ecacb855e01e2b8e9f8dd809e[ALL] 027467924dcab34ed3d4b2e97c748208f07b139ac9153b43cfb380e3656c2700a4"}, "vout": 0, "txid": "30ce7afd3a059f0374b2a59517ef6d034720a4366b467e5a11f1290026bf23fc"}, {"sequence": 4294967295, "scriptSig": {"hex": "483045022100c2e5654642abadc9769f87a70022d6f989ed02b998a7c6618777ad19cf5fa75102204694358861ab255ee85085f92efe8cbef8fb3db380c0c6c7ffde9c082562d023012102526c52b0413311b18d761c83cdd599c2a6b945a297a5fe05d74bb5d1adb244b4", "asm": "3045022100c2e5654642abadc9769f87a70022d6f989ed02b998a7c6618777ad19cf5fa75102204694358861ab255ee85085f92efe8cbef8fb3db380c0c6c7ffde9c082562d023[ALL] 02526c52b0413311b18d761c83cdd599c2a6b945a297a5fe05d74bb5d1adb244b4"}, "vout": 0, "txid": "3a7d220957c475e843e0e6800c5bd24b1a772026c45245dfe6c37ef3305e4558"}], "txid": "dd2d25446eb155f36fc72548171b5f731dd19cf1df2a58dd281ef4b44893fb9b", "blocktime": 1537872475, "version": 1, "confirmations": 11487, "time": 1537872475, "locktime": 0, "vsize": 373, "size": 373}