{"hash": "dd32df552fd365eaf1fdfc4b2746e61dfd45c19b8ff70e6b496cf9d7d4c81c45", "blockhash": "00000000000000000004ffacab907a6b429b9a5745fa0b75af4234bf69dd7176", "vout": [{"scriptPubKey": {"reqSigs": 1, "hex": "76a914bd16870a6cf1441ecc0940c59cdac12fdf9b0a5d88ac", "addresses": ["1JEohVfnEGRmrMwS4ae8UMwdGiBMAPYo4f"], "asm": "OP_DUP OP_HASH160 bd16870a6cf1441ecc0940c59cdac12fdf9b0a5d OP_EQUALVERIFY OP_CHECKSIG", "type": "pubkeyhash"}, "value": 0.0101, "n": 0}, {"scriptPubKey": {"reqSigs": 1, "hex": "76a914b7888cc82fdecaf88856880550ac43fe948b8cae88ac", "addresses": ["1HjSEm71Kqt31Va9JhJk2SvztwotZkQJFN"], "asm": "OP_DUP OP_HASH160 b7888cc82fdecaf88856880550ac43fe948b8cae OP_EQUALVERIFY OP_CHECKSIG", "type": "pubkeyhash"}, "value": 0.00977775, "n": 1}], "hex": "020000000188c69133c0f9f9e70c7ee5d59716b91f3a45d8b8ccd1d5a62f0a5876def7e889020000006b483045022100d8f596b315f810d8ce5c7576b89f9157759a4b744c7aa2621f3c4771b6833102022008633c070647c5d7f56e5dec3f22f7cd14d45f033087b3f8fb1379f4100c8cc60121024683193ecde27218cc155e1f0a6595311756025cc88e893a335e06190d2e4d86ffffffff0250690f00000000001976a914bd16870a6cf1441ecc0940c59cdac12fdf9b0a5d88ac6feb0e00000000001976a914b7888cc82fdecaf88856880550ac43fe948b8cae88ac00000000", "vin": [{"sequence": 4294967295, "scriptSig": {"hex": "483045022100d8f596b315f810d8ce5c7576b89f9157759a4b744c7aa2621f3c4771b6833102022008633c070647c5d7f56e5dec3f22f7cd14d45f033087b3f8fb1379f4100c8cc60121024683193ecde27218cc155e1f0a6595311756025cc88e893a335e06190d2e4d86", "asm": "3045022100d8f596b315f810d8ce5c7576b89f9157759a4b744c7aa2621f3c4771b6833102022008633c070647c5d7f56e5dec3f22f7cd14d45f033087b3f8fb1379f4100c8cc6[ALL] 024683193ecde27218cc155e1f0a6595311756025cc88e893a335e06190d2e4d86"}, "vout": 2, "txid": "89e8f7de76580a2fa6d5d1ccb8d8453a1fb91697d5e57e0ce7f9f9c03391c688"}], "txid": "dd32df552fd365eaf1fdfc4b2746e61dfd45c19b8ff70e6b496cf9d7d4c81c45", "blocktime": 1537875543, "version": 2, "confirmations": 11464, "time": 1537875543, "locktime": 0, "vsize": 226, "size": 226}