{"hash": "a2276755d2f50068cc51562d2a99a3257cf976a783e09ca569b6fb1acc3f6fee", "blockhash": "0000000000000000000e13cef7c366c0283d82e591d1acd082e914b08063cdf1", "vout": [{"scriptPubKey": {"reqSigs": 1, "hex": "0014a1c1956a79c1c669c9df5e3a7b479402fa955c4e", "addresses": ["bc1q58qe26nec8rxnjwltca8k3u5qtaf2hzw4yk948"], "asm": "0 a1c1956a79c1c669c9df5e3a7b479402fa955c4e", "type": "witness_v0_keyhash"}, "value": 1.53e-05, "n": 0}, {"scriptPubKey": {"reqSigs": 1, "hex": "76a914d59735f92d7baeda1ddc9c54e3100eeb998fb82188ac", "addresses": ["1LUN5B2Ctq63r8Y2mhs7cZY7JdxGSapRU5"], "asm": "OP_DUP OP_HASH160 d59735f92d7baeda1ddc9c54e3100eeb998fb821 OP_EQUALVERIFY OP_CHECKSIG", "type": "pubkeyhash"}, "value": 0.00059999, "n": 1}], "hex": "010000000001010d9c14f165df869122402dc8bf6243bbc1be102058553a28e1245e0ca1510fb4000000001716001407c359882be1c09431045fa33b7011299442242affffffff02fa05000000000000160014a1c1956a79c1c669c9df5e3a7b479402fa955c4e5fea0000000000001976a914d59735f92d7baeda1ddc9c54e3100eeb998fb82188ac0247304402204f974ca72059ee71645b1f197ceb516d2f310e97d63c10f936156eb9dd4bac0f02206605e4ce8dfa5c9920bfb4c02043a26bd9d23a219c02aad356344491681f9272012102a693118a733c4f45b08f392057faadbb6dc118181f215c577488fe6dfca49b6400000000", "vin": [{"txinwitness": ["304402204f974ca72059ee71645b1f197ceb516d2f310e97d63c10f936156eb9dd4bac0f02206605e4ce8dfa5c9920bfb4c02043a26bd9d23a219c02aad356344491681f927201", "02a693118a733c4f45b08f392057faadbb6dc118181f215c577488fe6dfca49b64"], "sequence": 4294967295, "scriptSig": {"hex": "16001407c359882be1c09431045fa33b7011299442242a", "asm": "001407c359882be1c09431045fa33b7011299442242a"}, "vout": 0, "txid": "b40f51a10c5e24e1283a55582010bec1bb4362bfc82d40229186df65f1149c0d"}], "txid": "dd37af7d8de8d5f0bd051a5f833428bed81cfccd5819d48a4641b99f7a5ff541", "blocktime": 1537871767, "version": 1, "confirmations": 11495, "time": 1537871767, "locktime": 0, "vsize": 167, "size": 248}