{"hash": "e06a5183336235f9bb6a80bfb6a2edc44611c2a35ca3031821708146c83eb51b", "blockhash": "0000000000000000000e13cef7c366c0283d82e591d1acd082e914b08063cdf1", "vout": [{"scriptPubKey": {"reqSigs": 1, "hex": "a914d77d1f1c0cb6ae132c23c796361572240c91fac187", "addresses": ["3MLR6PAnH3xzkv7Fa1Q1obt4VF56cCTFXf"], "asm": "OP_HASH160 d77d1f1c0cb6ae132c23c796361572240c91fac1 OP_EQUAL", "type": "scripthash"}, "value": 0.01000717, "n": 0}, {"scriptPubKey": {"reqSigs": 1, "hex": "a914d20603a3a698f1211bc57c800a4c04afa6de2eb887", "addresses": ["3LqX2hjmfc9pW7LoGHa1A5QkxsN7A2uLyh"], "asm": "OP_HASH160 d20603a3a698f1211bc57c800a4c04afa6de2eb8 OP_EQUAL", "type": "scripthash"}, "value": 0.0043976, "n": 1}], "hex": "0200000000010279d0f544500d90d70e8c74948b2cae05cbddf7ccb3ff029f55cd3be724c67da105000000171600149e4e6bdf2c44a425421119425e3f40cfe86bbf93feffffff9a75c210d2313756e159381aba03874939dbafb5de1aa99803ff40b579f1a97a00000000171600144d499b48198b656fe3bdd9dbbe324fb37c887ceffeffffff020d450f000000000017a914d77d1f1c0cb6ae132c23c796361572240c91fac187d0b506000000000017a914d20603a3a698f1211bc57c800a4c04afa6de2eb8870247304402205693e35e1226f0aca4922954db99151c2d000fd922fa02a8b06bcf1800833c5d022073a93273557f3afea1d921e8e4d0d672f2f25152d5eadff3b646be3b4750bddc01210212c1dc12e6e4938d9b2e74b65722fd48db0dc9a63d49bdabc13bee992217fdf10247304402202043a8808f34737fa4f12b6d01a5ec5ad08710d0e5f74ee7eebf28a3858803c902203ce619bc5c203031b5e4499750055c6cbd669547f344b30f886b97292930d144012102bc2315559227e4a484c40a778d5b0a78189e7ac556c70720c17f81980665e8f510490800", "vin": [{"txinwitness": ["304402205693e35e1226f0aca4922954db99151c2d000fd922fa02a8b06bcf1800833c5d022073a93273557f3afea1d921e8e4d0d672f2f25152d5eadff3b646be3b4750bddc01", "0212c1dc12e6e4938d9b2e74b65722fd48db0dc9a63d49bdabc13bee992217fdf1"], "sequence": 4294967294, "scriptSig": {"hex": "1600149e4e6bdf2c44a425421119425e3f40cfe86bbf93", "asm": "00149e4e6bdf2c44a425421119425e3f40cfe86bbf93"}, "vout": 5, "txid": "a17dc624e73bcd559f02ffb3ccf7ddcb05ae2c8b94748c0ed7900d5044f5d079"}, {"txinwitness": ["304402202043a8808f34737fa4f12b6d01a5ec5ad08710d0e5f74ee7eebf28a3858803c902203ce619bc5c203031b5e4499750055c6cbd669547f344b30f886b97292930d14401", "02bc2315559227e4a484c40a778d5b0a78189e7ac556c70720c17f81980665e8f5"], "sequence": 4294967294, "scriptSig": {"hex": "1600144d499b48198b656fe3bdd9dbbe324fb37c887cef", "asm": "00144d499b48198b656fe3bdd9dbbe324fb37c887cef"}, "vout": 0, "txid": "7aa9f179b540ff0398a91adeb5afdb39498703ba1a3859e1563731d210c2759a"}], "txid": "dd48bd7d4887cb1f9acb0c083e8c6ce6fed14d74a9f90593afcffef939c1806a", "blocktime": 1537871767, "version": 2, "confirmations": 11495, "time": 1537871767, "locktime": 542992, "vsize": 256, "size": 418}