{"hash": "8a188041ff0c1e3d225064efd2b7a5e4d6e1910b137eb08ac4ec2b039bc46204", "blockhash": "0000000000000000000baef3f32e3676a92c3b2e5da21b426e4f302fc371ce76", "vout": [{"scriptPubKey": {"reqSigs": 1, "hex": "a9149bcf4e5317ec84f31541c690173e74d81d586e5587", "addresses": ["3Fts19XLpQKm6QC9upPwA4LE9Lm6FQSmxu"], "asm": "OP_HASH160 9bcf4e5317ec84f31541c690173e74d81d586e55 OP_EQUAL", "type": "scripthash"}, "value": 0.00123465, "n": 0}, {"scriptPubKey": {"reqSigs": 1, "hex": "a914414cec0fc72a9410f6836edaf08de1aa3b2a321c87", "addresses": ["37eHzewnAFRR2SVZu8rZM3nBsmuE2XBU7D"], "asm": "OP_HASH160 414cec0fc72a9410f6836edaf08de1aa3b2a321c OP_EQUAL", "type": "scripthash"}, "value": 0.22956934, "n": 1}], "hex": "01000000000101cc12ac750cf4425096a5e36a71d2a0f42f41ff7d742fde6700050b0c1bc28df50100000023220020ce74cde37cfb8dd71d0179287e12fc721ee236ce3c89c2745bcd365b39807eb3ffffffff0249e201000000000017a9149bcf4e5317ec84f31541c690173e74d81d586e5587864b5e010000000017a914414cec0fc72a9410f6836edaf08de1aa3b2a321c87040048304502210096edacf8daaacceb1d515f296a6ade0e8ed69289a3bcfea2da4ca14bef87bce0022041fad6157490cc0701bfae617aa9849dcd7142929dbc2c3aa67af003158ac11f01483045022100ae20feb4df5306b5388cbb8f424f4077ab7017b0e4465eb242883026f2d2568f02207d8c97c39fe135c8e6ee96b5f5e030c5c7c877cf1c2da6ace623c06fe21ed1c60147522103ada901d90d5a76319a60f228e0b1bbc84b1d9a87238550bae5d5d190067b66712103871fc2ca08e6950b38867e8e6a0e94ee625223d3aa0df5c65f414c6d784467e252ae00000000", "vin": [{"txinwitness": ["", "304502210096edacf8daaacceb1d515f296a6ade0e8ed69289a3bcfea2da4ca14bef87bce0022041fad6157490cc0701bfae617aa9849dcd7142929dbc2c3aa67af003158ac11f01", "3045022100ae20feb4df5306b5388cbb8f424f4077ab7017b0e4465eb242883026f2d2568f02207d8c97c39fe135c8e6ee96b5f5e030c5c7c877cf1c2da6ace623c06fe21ed1c601", "522103ada901d90d5a76319a60f228e0b1bbc84b1d9a87238550bae5d5d190067b66712103871fc2ca08e6950b38867e8e6a0e94ee625223d3aa0df5c65f414c6d784467e252ae"], "sequence": 4294967295, "scriptSig": {"hex": "220020ce74cde37cfb8dd71d0179287e12fc721ee236ce3c89c2745bcd365b39807eb3", "asm": "0020ce74cde37cfb8dd71d0179287e12fc721ee236ce3c89c2745bcd365b39807eb3"}, "vout": 1, "txid": "f58dc21b0c0b050067de2f747dff412ff4a0d2716ae3a5965042f40c75ac12cc"}], "txid": "dd4de463c9791b93fa4bdafdc92149100f56a7a808a1c0dde25fad833b7dc468", "blocktime": 1537876114, "version": 1, "confirmations": 11460, "time": 1537876114, "locktime": 0, "vsize": 206, "size": 372}