{"hash": "dd5021ad7b7dd2b74c5d96bb9019dbe89210f1a2b54b01bb97fe426e3031996e", "blockhash": "00000000000000000018f53835495a110e01622372bf6ae95dc86f2b0ab887b0", "vout": [{"scriptPubKey": {"reqSigs": 1, "hex": "76a914a51230c6933315afaf408779eb8e0639d919d66988ac", "addresses": ["1G3pHZ2cHoYaauMmjocaotSjQ7PePJHKtS"], "asm": "OP_DUP OP_HASH160 a51230c6933315afaf408779eb8e0639d919d669 OP_EQUALVERIFY OP_CHECKSIG", "type": "pubkeyhash"}, "value": 0.0064552, "n": 0}, {"scriptPubKey": {"type": "nulldata", "hex": "6a4c500000778700019de7cc7cef771308ba7ce792bcbefa6b8351586b4e86aeaeacb577c031fce76239506a958aa53a52b4e0af851c9f5baa0b8406144549ac8ab9c51d100759d4ba30d2c37bb011d97e02cf", "asm": "OP_RETURN 0000778700019de7cc7cef771308ba7ce792bcbefa6b8351586b4e86aeaeacb577c031fce76239506a958aa53a52b4e0af851c9f5baa0b8406144549ac8ab9c51d100759d4ba30d2c37bb011d97e02cf"}, "value": 0.0, "n": 1}], "hex": "010000000165f26dff5e700419e27afa8dd3939390ed91ddedadd0add7fe171656b8b0f45d010000006a473044022065d10fc9fc34599f7cafa27594bb958fa70e37496e53f6e4f4f5b1713c3736f90220169c8e6e889554b56be3627743f45fc4768b72edf9268865e8d3b7b47dba567f0121024bf287681b39b15799427cf7332e660a7cd497c5c8c80f61f564dbbd3ca6d015ffffffff0290d90900000000001976a914a51230c6933315afaf408779eb8e0639d919d66988ac0000000000000000536a4c500000778700019de7cc7cef771308ba7ce792bcbefa6b8351586b4e86aeaeacb577c031fce76239506a958aa53a52b4e0af851c9f5baa0b8406144549ac8ab9c51d100759d4ba30d2c37bb011d97e02cf00000000", "vin": [{"sequence": 4294967295, "scriptSig": {"hex": "473044022065d10fc9fc34599f7cafa27594bb958fa70e37496e53f6e4f4f5b1713c3736f90220169c8e6e889554b56be3627743f45fc4768b72edf9268865e8d3b7b47dba567f0121024bf287681b39b15799427cf7332e660a7cd497c5c8c80f61f564dbbd3ca6d015", "asm": "3044022065d10fc9fc34599f7cafa27594bb958fa70e37496e53f6e4f4f5b1713c3736f90220169c8e6e889554b56be3627743f45fc4768b72edf9268865e8d3b7b47dba567f[ALL] 024bf287681b39b15799427cf7332e660a7cd497c5c8c80f61f564dbbd3ca6d015"}, "vout": 1, "txid": "5df4b0b8561617fed7add0adeddd91ed909393d38dfa7ae21904705eff6df265"}], "txid": "dd5021ad7b7dd2b74c5d96bb9019dbe89210f1a2b54b01bb97fe426e3031996e", "blocktime": 1537870928, "version": 1, "confirmations": 11512, "time": 1537870928, "locktime": 0, "vsize": 283, "size": 283}