{"hash": "dd542bb86cf75b395b3e8d61910920d26bb6a85e3b55b5ce491fb8979dcbb719", "blockhash": "0000000000000000000dcc0f55137456b1a82d3642486a52398922ac4d620174", "vout": [{"scriptPubKey": {"reqSigs": 1, "hex": "76a914523bfdd35f300325f1ea81f5100ea2fa93975b6588ac", "addresses": ["18VpH1kspqZ13rkNqn5X9R3kVBAZwVuzKH"], "asm": "OP_DUP OP_HASH160 523bfdd35f300325f1ea81f5100ea2fa93975b65 OP_EQUALVERIFY OP_CHECKSIG", "type": "pubkeyhash"}, "value": 0.03049655, "n": 0}, {"scriptPubKey": {"reqSigs": 1, "hex": "a914f2782bd2edd855be5ea6aca200669b6d816a251487", "addresses": ["3Po5QcApwtqPZ6vdWU7JXz6tTw12VvoZEJ"], "asm": "OP_HASH160 f2782bd2edd855be5ea6aca200669b6d816a2514 OP_EQUAL", "type": "scripthash"}, "value": 0.00463, "n": 1}], "hex": "0100000001469b1be40e2d9ffab1a3769d2b0534e827ec70bcb918bfe96a57a3258d623ff6010000006a4730440220413607752faf34adc5eb9d8e99bce4e81d475fdb7747f2753f6235bbec959e9b02207232fe01135a3f8eeb114d2ee916977f6884f9f4d67bd3d2710d42c442d5f9ce0121022190d79705ac21005005ecf71bbd323fd2bf7cb89a6f9fabbc696b91f61871a1ffffffff02b7882e00000000001976a914523bfdd35f300325f1ea81f5100ea2fa93975b6588ac981007000000000017a914f2782bd2edd855be5ea6aca200669b6d816a25148700000000", "vin": [{"sequence": 4294967295, "scriptSig": {"hex": "4730440220413607752faf34adc5eb9d8e99bce4e81d475fdb7747f2753f6235bbec959e9b02207232fe01135a3f8eeb114d2ee916977f6884f9f4d67bd3d2710d42c442d5f9ce0121022190d79705ac21005005ecf71bbd323fd2bf7cb89a6f9fabbc696b91f61871a1", "asm": "30440220413607752faf34adc5eb9d8e99bce4e81d475fdb7747f2753f6235bbec959e9b02207232fe01135a3f8eeb114d2ee916977f6884f9f4d67bd3d2710d42c442d5f9ce[ALL] 022190d79705ac21005005ecf71bbd323fd2bf7cb89a6f9fabbc696b91f61871a1"}, "vout": 1, "txid": "f63f628d25a3576ae9bf18b9bc70ec27e834052b9d76a3b1fa9f2d0ee41b9b46"}], "txid": "dd542bb86cf75b395b3e8d61910920d26bb6a85e3b55b5ce491fb8979dcbb719", "blocktime": 1537870268, "version": 1, "confirmations": 11516, "time": 1537870268, "locktime": 0, "vsize": 223, "size": 223}