{"hash": "4830a00233d4271688d773f43a3337909b2706b708988feb94421386df0f7c9a", "blockhash": "0000000000000000001f76057863aec43deb6fa401d9628bb513d65a8098bfab", "vout": [{"scriptPubKey": {"reqSigs": 1, "hex": "76a9141ecf88cddaa74de445d4399eb0cb4da5d45f98a288ac", "addresses": ["13outVqaj8oscsUaoS7ZnrgfKDHGHxKeqv"], "asm": "OP_DUP OP_HASH160 1ecf88cddaa74de445d4399eb0cb4da5d45f98a2 OP_EQUALVERIFY OP_CHECKSIG", "type": "pubkeyhash"}, "value": 0.54814855, "n": 0}, {"scriptPubKey": {"reqSigs": 1, "hex": "76a91446ca2acac3c39c993a642db7565c87f2ec58a75988ac", "addresses": ["17TJVFQg28e86EQ8BE1mMWnwCEsjizEB6i"], "asm": "OP_DUP OP_HASH160 46ca2acac3c39c993a642db7565c87f2ec58a759 OP_EQUALVERIFY OP_CHECKSIG", "type": "pubkeyhash"}, "value": 0.00150378, "n": 1}, {"scriptPubKey": {"reqSigs": 1, "hex": "a91409cfa4aac97da46699789c506b9d8fb1980b988187", "addresses": ["32atkaJ2tXWJawZwwW2mgQ497PFVSJhn4n"], "asm": "OP_HASH160 09cfa4aac97da46699789c506b9d8fb1980b9881 OP_EQUAL", "type": "scripthash"}, "value": 1.649369, "n": 2}, {"scriptPubKey": {"reqSigs": 1, "hex": "a91469f375e7e87d057cc5b226e4731169394f3ad95687", "addresses": ["3BMEXd5gv1p9aVQWRyqC4azH7M736x7Qjc"], "asm": "OP_HASH160 69f375e7e87d057cc5b226e4731169394f3ad956 OP_EQUAL", "type": "scripthash"}, "value": 0.1495, "n": 3}, {"scriptPubKey": {"reqSigs": 1, "hex": "a91469f374d764a775b4b63ede665d28560b5c75305287", "addresses": ["3BMEXLKm81dYtwur5sKXqUwj7Goj74mSaU"], "asm": "OP_HASH160 69f374d764a775b4b63ede665d28560b5c753052 OP_EQUAL", "type": "scripthash"}, "value": 0.0407165, "n": 4}, {"scriptPubKey": {"reqSigs": 1, "hex": "a91469f376837e571eaa610bf324f1d355c44a10b2a387", "addresses": ["3BMEXneavntP8pf6ZyF3qYmFW7yGbhBbhb"], "asm": "OP_HASH160 69f376837e571eaa610bf324f1d355c44a10b2a3 OP_EQUAL", "type": "scripthash"}, "value": 0.08195822, "n": 5}, {"scriptPubKey": {"reqSigs": 1, "hex": "a91469f3751a52e189059426f942e1d2abac60faf5f987", "addresses": ["3BMEXQSUDftLGjSTHMmNSiHtfYrNuKSBRx"], "asm": "OP_HASH160 69f3751a52e189059426f942e1d2abac60faf5f9 OP_EQUAL", "type": "scripthash"}, "value": 0.0065, "n": 6}, {"scriptPubKey": {"reqSigs": 1, "hex": "a91469f376c029a819ccb74a50b7835210a991e53b3c87", "addresses": ["3BMEXrNxpAgTuHMbMgN2u2UA6NwmxGvbNa"], "asm": "OP_HASH160 69f376c029a819ccb74a50b7835210a991e53b3c OP_EQUAL", "type": "scripthash"}, "value": 0.5, "n": 7}, {"scriptPubKey": {"reqSigs": 1, "hex": "a91469f376e7ba9389c33c271b9d620ec94dd2b1c5b087", "addresses": ["3BMEXtp5Mt4KZy4iqFQmG6dzoQ3vRJaqBf"], "asm": "OP_HASH160 69f376e7ba9389c33c271b9d620ec94dd2b1c5b0 OP_EQUAL", "type": "scripthash"}, "value": 0.01324065, "n": 8}, {"scriptPubKey": {"reqSigs": 1, "hex": "a91469f3754d2d7647e86591d7e52402e053e2709c5487", "addresses": ["3BMEXTZqiksKysbPrxYwSM7DJ9q3ajby26"], "asm": "OP_HASH160 69f3754d2d7647e86591d7e52402e053e2709c54 OP_EQUAL", "type": "scripthash"}, "value": 0.11480414, "n": 9}, {"scriptPubKey": {"reqSigs": 1, "hex": "a91469f375b47e3d4a2c0ec4376efcb2327e237b657587", "addresses": ["3BMEXZvKKmETFLhkR376e3N37UwXK7eWTa"], "asm": "OP_HASH160 69f375b47e3d4a2c0ec4376efcb2327e237b6575 OP_EQUAL", "type": "scripthash"}, "value": 0.0681436, "n": 10}, {"scriptPubKey": {"reqSigs": 1, "hex": "a9147c8c3de992c1a0a6e19d3d71cbf6577763741a8587", "addresses": ["3D3ZiWEx9ySDafk2NxyrhkV2zNjzPgLLtC"], "asm": "OP_HASH160 7c8c3de992c1a0a6e19d3d71cbf6577763741a85 OP_EQUAL", "type": "scripthash"}, "value": 1.9995, "n": 11}, {"scriptPubKey": {"reqSigs": 1, "hex": "a9149423c6fba8aae5ff3162e6963d8d7c5b9e41c5ce87", "addresses": ["3FCJnnPsSsgYo64CUbP1YpWhYqTVAtNECG"], "asm": "OP_HASH160 9423c6fba8aae5ff3162e6963d8d7c5b9e41c5ce OP_EQUAL", "type": "scripthash"}, "value": 0.27424936, "n": 12}, {"scriptPubKey": {"reqSigs": 1, "hex": "a914bd69d63e5140e28428293dc4a35480b9c6e51f2b87", "addresses": ["3JxYRUYGBD6z3a5LbnRNdhWu4j7XEuggcD"], "asm": "OP_HASH160 bd69d63e5140e28428293dc4a35480b9c6e51f2b OP_EQUAL", "type": "scripthash"}, "value": 4.0, "n": 13}, {"scriptPubKey": {"reqSigs": 1, "hex": "a9145bc27870c6ff1883362cfa05cf457bfafd2751eb87", "addresses": ["3A4CP3bNqwqKHrztfe86z1o9FED5Lg5eZH"], "asm": "OP_HASH160 5bc27870c6ff1883362cfa05cf457bfafd2751eb OP_EQUAL", "type": "scripthash"}, "value": 1.27050789, "n": 14}], "hex": "010000000001019bc6b852902f0d9979952279c5e782b1afbabf4b7fc594e103643ef1e9a0f7ff01000000232200205f5727ed9271588dfe5177471c032c59ecd5095552ba7936e951a6bf9703e69cffffffff0f87684403000000001976a9141ecf88cddaa74de445d4399eb0cb4da5d45f98a288ac6a4b0200000000001976a91446ca2acac3c39c993a642db7565c87f2ec58a75988acc4bcd4090000000017a91409cfa4aac97da46699789c506b9d8fb1980b988187701ee4000000000017a91469f375e7e87d057cc5b226e4731169394f3ad95687e2203e000000000017a91469f374d764a775b4b63ede665d28560b5c75305287ee0e7d000000000017a91469f376837e571eaa610bf324f1d355c44a10b2a38710eb09000000000017a91469f3751a52e189059426f942e1d2abac60faf5f98780f0fa020000000017a91469f376c029a819ccb74a50b7835210a991e53b3c87213414000000000017a91469f376e7ba9389c33c271b9d620ec94dd2b1c5b0875e2daf000000000017a91469f3754d2d7647e86591d7e52402e053e2709c548798fa67000000000017a91469f375b47e3d4a2c0ec4376efcb2327e237b657587b0feea0b0000000017a9147c8c3de992c1a0a6e19d3d71cbf6577763741a8587a878a2010000000017a9149423c6fba8aae5ff3162e6963d8d7c5b9e41c5ce870084d7170000000017a914bd69d63e5140e28428293dc4a35480b9c6e51f2b8725a492070000000017a9145bc27870c6ff1883362cfa05cf457bfafd2751eb870400483045022100fe210cd05d85022e14c1d742c67ee3d9720683e67de288a8f16857bb2c8bbfff02206dafa7d440450c85ae3909feec1f3ffd7cfdaaff13ae2971037b6887923e19aa01483045022100ce0e71f39276e70adcbc1d088890bfd97edda4d669a2efb0bdea63fae4a561eb022013072c087569567e61c70ca757de881065454de4d1588508ecacfbaa1f8b74df01695221027c15d73e3cf2f14a51e9548ca9c583891a5d50272afc6ea2bbd6c67e66618da321033229281cfd9219baef6458b5ce0e61d6b6e40cbbbac38954111b9116150f04cc2103941cc3af5979cf6a463b9776410d37de945dc775159399cd211688bd07b1220153ae00000000", "vin": [{"txinwitness": ["", "3045022100fe210cd05d85022e14c1d742c67ee3d9720683e67de288a8f16857bb2c8bbfff02206dafa7d440450c85ae3909feec1f3ffd7cfdaaff13ae2971037b6887923e19aa01", "3045022100ce0e71f39276e70adcbc1d088890bfd97edda4d669a2efb0bdea63fae4a561eb022013072c087569567e61c70ca757de881065454de4d1588508ecacfbaa1f8b74df01", "5221027c15d73e3cf2f14a51e9548ca9c583891a5d50272afc6ea2bbd6c67e66618da321033229281cfd9219baef6458b5ce0e61d6b6e40cbbbac38954111b9116150f04cc2103941cc3af5979cf6a463b9776410d37de945dc775159399cd211688bd07b1220153ae"], "sequence": 4294967295, "scriptSig": {"hex": "2200205f5727ed9271588dfe5177471c032c59ecd5095552ba7936e951a6bf9703e69c", "asm": "00205f5727ed9271588dfe5177471c032c59ecd5095552ba7936e951a6bf9703e69c"}, "vout": 1, "txid": "fff7a0e9f13e6403e194c57f4bbfbaafb182e7c579229579990d2f9052b8c69b"}], "txid": "dd61e9a9c7168b5cca908e2a51372986d9e3c8ca3d5121c46216df55414cfaaa", "blocktime": 1537873891, "version": 1, "confirmations": 11478, "time": 1537873891, "locktime": 0, "vsize": 634, "size": 826}