{"hash": "dd6aa452ad6db534cb3b2eaaf1107521a4a094d73b5b5a266189a3b06568be89", "blockhash": "0000000000000000001f76057863aec43deb6fa401d9628bb513d65a8098bfab", "vout": [{"scriptPubKey": {"type": "nulldata", "hex": "6a4c50000077dc0001057ffcdc7709b0f59811b7277af8e8e963c7cfd5b95b23cc0f42c2fc38c5e7f9b63708a5d9a01eb5a7faf062f1305baa15eb061314d0b4f7c043c288b2720c27cdda35b5f050e1b42260", "asm": "OP_RETURN 000077dc0001057ffcdc7709b0f59811b7277af8e8e963c7cfd5b95b23cc0f42c2fc38c5e7f9b63708a5d9a01eb5a7faf062f1305baa15eb061314d0b4f7c043c288b2720c27cdda35b5f050e1b42260"}, "value": 0.0, "n": 0}, {"scriptPubKey": {"reqSigs": 1, "hex": "76a91471cd54c1c73cee4338ddcde6d55c9427d55b90a488ac", "addresses": ["1BNjLLArBFoiXYnxcLzNDZH5iFBCnwNJzf"], "asm": "OP_DUP OP_HASH160 71cd54c1c73cee4338ddcde6d55c9427d55b90a4 OP_EQUALVERIFY OP_CHECKSIG", "type": "pubkeyhash"}, "value": 0.0004236, "n": 1}], "hex": "010000000138ecd648aa3815b6d2a6e89297ee2c1022e0627ced40a46e7845bd82a888894c000000006a47304402201e47768ee87aaa57503832880c3de99dfdaa46d71dd250e15fe54ea33f0cb842022037dff60d2132899cd1e3e917b49c1750574a2eef9b986a65ef9749ec8e42d42b0121025516502ac6e06df166a17c94d7a519ec2c7531530266530ada28a2237e1712c1ffffffff020000000000000000536a4c50000077dc0001057ffcdc7709b0f59811b7277af8e8e963c7cfd5b95b23cc0f42c2fc38c5e7f9b63708a5d9a01eb5a7faf062f1305baa15eb061314d0b4f7c043c288b2720c27cdda35b5f050e1b4226078a50000000000001976a91471cd54c1c73cee4338ddcde6d55c9427d55b90a488ac00000000", "vin": [{"sequence": 4294967295, "scriptSig": {"hex": "47304402201e47768ee87aaa57503832880c3de99dfdaa46d71dd250e15fe54ea33f0cb842022037dff60d2132899cd1e3e917b49c1750574a2eef9b986a65ef9749ec8e42d42b0121025516502ac6e06df166a17c94d7a519ec2c7531530266530ada28a2237e1712c1", "asm": "304402201e47768ee87aaa57503832880c3de99dfdaa46d71dd250e15fe54ea33f0cb842022037dff60d2132899cd1e3e917b49c1750574a2eef9b986a65ef9749ec8e42d42b[ALL] 025516502ac6e06df166a17c94d7a519ec2c7531530266530ada28a2237e1712c1"}, "vout": 0, "txid": "4c8988a882bd45786ea440ed7c62e022102cee9792e8a6d2b61538aa48d6ec38"}], "txid": "dd6aa452ad6db534cb3b2eaaf1107521a4a094d73b5b5a266189a3b06568be89", "blocktime": 1537873891, "version": 1, "confirmations": 11476, "time": 1537873891, "locktime": 0, "vsize": 283, "size": 283}