{"hash": "dd6bd7c02be406a7c3fb326d849418f197a0895df284cc1c55ebf843e30dda01", "blockhash": "00000000000000000004ffacab907a6b429b9a5745fa0b75af4234bf69dd7176", "vout": [{"scriptPubKey": {"reqSigs": 1, "hex": "a914fef4b6c2638372d528fb918864ba6532d67491a787", "addresses": ["3Qw6iHhjfgF58ugha8SmpLDDXCrAVJNATU"], "asm": "OP_HASH160 fef4b6c2638372d528fb918864ba6532d67491a7 OP_EQUAL", "type": "scripthash"}, "value": 0.0023439, "n": 0}, {"scriptPubKey": {"reqSigs": 1, "hex": "76a914070eccca25d5945757e270b8617b122f245725c088ac", "addresses": ["1eKTfQ4kr3hjApAXrqFGT4i9A1AcH4usP"], "asm": "OP_DUP OP_HASH160 070eccca25d5945757e270b8617b122f245725c0 OP_EQUALVERIFY OP_CHECKSIG", "type": "pubkeyhash"}, "value": 0.00922916, "n": 1}], "hex": "010000000152758759bfa3086d0ab57b601e78187a185a6d3d512f038b9f86d78627022198010000006a47304402200104a5addb6479b52db64d0b77b0d3349659ea56e068bca6b332ed4904229729022006cf0fe540f024808bcfa18f51ac24bc035b6823866514afc3f3fff6e86c420f012102238216f12add7117fc4f31e7c06f6e98055229ce11c96dc1f2fa0a63738a0bfaffffffff02969303000000000017a914fef4b6c2638372d528fb918864ba6532d67491a78724150e00000000001976a914070eccca25d5945757e270b8617b122f245725c088ac00000000", "vin": [{"sequence": 4294967295, "scriptSig": {"hex": "47304402200104a5addb6479b52db64d0b77b0d3349659ea56e068bca6b332ed4904229729022006cf0fe540f024808bcfa18f51ac24bc035b6823866514afc3f3fff6e86c420f012102238216f12add7117fc4f31e7c06f6e98055229ce11c96dc1f2fa0a63738a0bfa", "asm": "304402200104a5addb6479b52db64d0b77b0d3349659ea56e068bca6b332ed4904229729022006cf0fe540f024808bcfa18f51ac24bc035b6823866514afc3f3fff6e86c420f[ALL] 02238216f12add7117fc4f31e7c06f6e98055229ce11c96dc1f2fa0a63738a0bfa"}, "vout": 1, "txid": "9821022786d7869f8b032f513d6d5a187a18781e607bb50a6d08a3bf59877552"}], "txid": "dd6bd7c02be406a7c3fb326d849418f197a0895df284cc1c55ebf843e30dda01", "blocktime": 1537875543, "version": 1, "confirmations": 11464, "time": 1537875543, "locktime": 0, "vsize": 223, "size": 223}