{"hash": "dd6c5ee069fdc622296976c51d31a4268cdc4abcb905ed1c5dbb7e807f745488", "blockhash": "000000000000000000022b45ed06c6f4ccd3cf7fb5ba4856ebd2e58215665228", "vout": [{"scriptPubKey": {"reqSigs": 1, "hex": "a914260df682877bbee3bae0849282393b2a862053d687", "addresses": ["35AEKzeDqUY1NhmyuEEHkApLrDHpaGqbD6"], "asm": "OP_HASH160 260df682877bbee3bae0849282393b2a862053d6 OP_EQUAL", "type": "scripthash"}, "value": 0.04, "n": 0}, {"scriptPubKey": {"reqSigs": 1, "hex": "76a9143e009e35bc292b33bbbbf7d33c2d0ca56a19a13e88ac", "addresses": ["16eqdqLYPVmk87BfqhGgXtX9pQBfhEdPwp"], "asm": "OP_DUP OP_HASH160 3e009e35bc292b33bbbbf7d33c2d0ca56a19a13e OP_EQUALVERIFY OP_CHECKSIG", "type": "pubkeyhash"}, "value": 1.11257429, "n": 1}], "hex": "010000000117ba60f00b10b2b705d8bf9765d9f3502575b708db909e7008ffc5787c641f9b010000006a4730440220496eab2b31ed95013f157f830c59ffa0fb0f53dac3e698f053755915560bb1c802200ad170cf616f1a384e40cb5a69260fd8848fc386694c2e81a06155832c6bac42012102fb7305cff43cb1c834be1cc761783bce3b51a5caffe58ee6ad2cb545a58f2a74ffffffff0200093d000000000017a914260df682877bbee3bae0849282393b2a862053d68755a7a106000000001976a9143e009e35bc292b33bbbbf7d33c2d0ca56a19a13e88ac00000000", "vin": [{"sequence": 4294967295, "scriptSig": {"hex": "4730440220496eab2b31ed95013f157f830c59ffa0fb0f53dac3e698f053755915560bb1c802200ad170cf616f1a384e40cb5a69260fd8848fc386694c2e81a06155832c6bac42012102fb7305cff43cb1c834be1cc761783bce3b51a5caffe58ee6ad2cb545a58f2a74", "asm": "30440220496eab2b31ed95013f157f830c59ffa0fb0f53dac3e698f053755915560bb1c802200ad170cf616f1a384e40cb5a69260fd8848fc386694c2e81a06155832c6bac42[ALL] 02fb7305cff43cb1c834be1cc761783bce3b51a5caffe58ee6ad2cb545a58f2a74"}, "vout": 1, "txid": "9b1f647c78c5ff08709e90db08b7752550f3d96597bfd805b7b2100bf060ba17"}], "txid": "dd6c5ee069fdc622296976c51d31a4268cdc4abcb905ed1c5dbb7e807f745488", "blocktime": 1537869901, "version": 1, "confirmations": 11524, "time": 1537869901, "locktime": 0, "vsize": 223, "size": 223}