{"hash": "dd6dfa0ca6f619ba9360272a409f4098be115c651b34ad9191132840819bd007", "blockhash": "00000000000000000018f53835495a110e01622372bf6ae95dc86f2b0ab887b0", "vout": [{"scriptPubKey": {"reqSigs": 1, "hex": "a91476461fac2a07ebf3c3013f4284fcff599154c17f87", "addresses": ["3CUPfThzjbLKtd4dnpKNHKKDgESTZJ6tL4"], "asm": "OP_HASH160 76461fac2a07ebf3c3013f4284fcff599154c17f OP_EQUAL", "type": "scripthash"}, "value": 0.01383129, "n": 0}, {"scriptPubKey": {"reqSigs": 1, "hex": "76a91433e5bd7ac3db6fb171cfe06e07b12fc234488e9e88ac", "addresses": ["15jQgQjK4ZFkjWiB5Pv7ofkMC7jkAP6Swa"], "asm": "OP_DUP OP_HASH160 33e5bd7ac3db6fb171cfe06e07b12fc234488e9e OP_EQUALVERIFY OP_CHECKSIG", "type": "pubkeyhash"}, "value": 0.00114967, "n": 1}], "hex": "01000000014334997ba6ba4b3b61c31b27de59774e8cc4b083d6bc86c61b4edd017568fe8701000000da004730440220654949dddafebaab46fd0046e2b7ce075603429ba833af8252d05ddcc223b32d02203f625d5eff70b448c1192753625464126aeeb5b10f48618a293b49dea7f065e101483045022100fc2f74a9ba3ace1f2f525fec62385ebeef0c97741aa3021045f93e2be1b9518d022037519cc99dca06c9d40070539252d69e6534bcaa96ecc06b46b876c5a9c2574b0147522102907a54bed8ad74b3f35638c60114ca240a308cb986f3f2f306178869a8880b612103b5516ffdd1e9725848acd1c842fd062a5306e9925d89528795515d0eed9f191a52aeffffffff02d91a15000000000017a91476461fac2a07ebf3c3013f4284fcff599154c17f8717c10100000000001976a91433e5bd7ac3db6fb171cfe06e07b12fc234488e9e88ac00000000", "vin": [{"sequence": 4294967295, "scriptSig": {"hex": "004730440220654949dddafebaab46fd0046e2b7ce075603429ba833af8252d05ddcc223b32d02203f625d5eff70b448c1192753625464126aeeb5b10f48618a293b49dea7f065e101483045022100fc2f74a9ba3ace1f2f525fec62385ebeef0c97741aa3021045f93e2be1b9518d022037519cc99dca06c9d40070539252d69e6534bcaa96ecc06b46b876c5a9c2574b0147522102907a54bed8ad74b3f35638c60114ca240a308cb986f3f2f306178869a8880b612103b5516ffdd1e9725848acd1c842fd062a5306e9925d89528795515d0eed9f191a52ae", "asm": "0 30440220654949dddafebaab46fd0046e2b7ce075603429ba833af8252d05ddcc223b32d02203f625d5eff70b448c1192753625464126aeeb5b10f48618a293b49dea7f065e1[ALL] 3045022100fc2f74a9ba3ace1f2f525fec62385ebeef0c97741aa3021045f93e2be1b9518d022037519cc99dca06c9d40070539252d69e6534bcaa96ecc06b46b876c5a9c2574b[ALL] 522102907a54bed8ad74b3f35638c60114ca240a308cb986f3f2f306178869a8880b612103b5516ffdd1e9725848acd1c842fd062a5306e9925d89528795515d0eed9f191a52ae"}, "vout": 1, "txid": "87fe687501dd4e1bc686bcd683b0c48c4e7759de271bc3613b4bbaa67b993443"}], "txid": "dd6dfa0ca6f619ba9360272a409f4098be115c651b34ad9191132840819bd007", "blocktime": 1537870928, "version": 1, "confirmations": 11512, "time": 1537870928, "locktime": 0, "vsize": 335, "size": 335}