{"hash": "929a1cbe931e0e2f6492396e04f602630e5ae4232c5dab7976a04c0f285565fe", "blockhash": "0000000000000000000e13cef7c366c0283d82e591d1acd082e914b08063cdf1", "vout": [{"scriptPubKey": {"reqSigs": 1, "hex": "a914762fb28f26dd164665734bde1bf1ea6c8ac7d97787", "addresses": ["3CTvoG2ddBJpfzZ2BMMSiH8pspZ6Vp6cBy"], "asm": "OP_HASH160 762fb28f26dd164665734bde1bf1ea6c8ac7d977 OP_EQUAL", "type": "scripthash"}, "value": 3.29913246, "n": 0}, {"scriptPubKey": {"reqSigs": 1, "hex": "a91452a807099f5773489b6668f78ee3616f9dea98dc87", "addresses": ["39E4d2cMAWBdDvws1dD26P3WM5ouh9W8sm"], "asm": "OP_HASH160 52a807099f5773489b6668f78ee3616f9dea98dc OP_EQUAL", "type": "scripthash"}, "value": 0.1309978, "n": 1}], "hex": "020000000001015b13b4261f40a5c9447a5455fbb789a20e0e4c10bc78814c4e327815da28a28200000000171600140bc3089b43a3335f7fd70d2399f10590c7af594afeffffff029e13aa130000000017a914762fb28f26dd164665734bde1bf1ea6c8ac7d9778704e3c7000000000017a91452a807099f5773489b6668f78ee3616f9dea98dc8702473044022066f1e6e6cefc20fc1313c061a5192d3202a899426bff29f2cdc9ddec5db7bfe6022041c6abe9df4fee27b5fda2533c49765895219486cebe921d924c333bfcd0e63c0121020b4e6bd4317c05bdf63a29bf36f4854c51aa1d41140aaf3116e1b3383e61999c10490800", "vin": [{"txinwitness": ["3044022066f1e6e6cefc20fc1313c061a5192d3202a899426bff29f2cdc9ddec5db7bfe6022041c6abe9df4fee27b5fda2533c49765895219486cebe921d924c333bfcd0e63c01", "020b4e6bd4317c05bdf63a29bf36f4854c51aa1d41140aaf3116e1b3383e61999c"], "sequence": 4294967294, "scriptSig": {"hex": "1600140bc3089b43a3335f7fd70d2399f10590c7af594a", "asm": "00140bc3089b43a3335f7fd70d2399f10590c7af594a"}, "vout": 0, "txid": "82a228da1578324e4c8178bc104c0e0ea289b7fb55547a44c9a5401f26b4135b"}], "txid": "dd6d29c6b14f486717aa783644a52252f1653dae5b4363018489594e436de886", "blocktime": 1537871767, "version": 2, "confirmations": 11495, "time": 1537871767, "locktime": 542992, "vsize": 166, "size": 247}