{"hash": "dd6fb10e5b9d7013446620ec6e050db6c553040ab0ddaa3ab2edb529a536c767", "blockhash": "0000000000000000001cda96e906b7601b7a6fb1a3b62bca570a9e5d8f4b3de1", "vout": [{"scriptPubKey": {"reqSigs": 1, "hex": "76a914c9498c4e6c5c40777d117c10cd8e80494cae911788ac", "addresses": ["1KMJvmWwQ8KwoSCu3GPdTj9UC3ygGGabes"], "asm": "OP_DUP OP_HASH160 c9498c4e6c5c40777d117c10cd8e80494cae9117 OP_EQUALVERIFY OP_CHECKSIG", "type": "pubkeyhash"}, "value": 0.00214259, "n": 0}, {"scriptPubKey": {"reqSigs": 1, "hex": "a914628908267754123796ffe9b67b8adbf9635bc15487", "addresses": ["3Ag2JUuynfi6SAhUw2As69xx1UynHFZzp6"], "asm": "OP_HASH160 628908267754123796ffe9b67b8adbf9635bc154 OP_EQUAL", "type": "scripthash"}, "value": 0.00470701, "n": 1}], "hex": "0100000002d2af5b53c086ae5595d0d37cb03236f25afb8d91ae8399f1d43e5f98cd863d6a010000006b483045022100b78d1d3c96754f22f6637d15d5758631b7abac4b7772575a19607a808a5a935e02206c6d2a3e78c2032ff823c769f9adf7d51029698ba8e86d14d7525934ba8eb0eb012103a5c4cd736c95c81e737f2466c347c70524b417a874745ad8894b404558dace01fffffffff7250bd480f85415f3910d0c737fc70c6da82a7cc18e6d2b5126515a97a26ee2000000006a47304402201566fca564fd5ab260a3f6a64f22256623267047d2596c82000b569fa269929a0220085aaacceed6a960edd57a65b35527d736dc2de0a87f281416f5511118fec7a8012102b71fd0117e238dd462feadd0530d9da050a3d7caefc687ad6cccab48c9989d84ffffffff02f3440300000000001976a914c9498c4e6c5c40777d117c10cd8e80494cae911788acad2e07000000000017a914628908267754123796ffe9b67b8adbf9635bc1548700000000", "vin": [{"sequence": 4294967295, "scriptSig": {"hex": "483045022100b78d1d3c96754f22f6637d15d5758631b7abac4b7772575a19607a808a5a935e02206c6d2a3e78c2032ff823c769f9adf7d51029698ba8e86d14d7525934ba8eb0eb012103a5c4cd736c95c81e737f2466c347c70524b417a874745ad8894b404558dace01", "asm": "3045022100b78d1d3c96754f22f6637d15d5758631b7abac4b7772575a19607a808a5a935e02206c6d2a3e78c2032ff823c769f9adf7d51029698ba8e86d14d7525934ba8eb0eb[ALL] 03a5c4cd736c95c81e737f2466c347c70524b417a874745ad8894b404558dace01"}, "vout": 1, "txid": "6a3d86cd985f3ed4f19983ae918dfb5af23632b07cd3d09555ae86c0535bafd2"}, {"sequence": 4294967295, "scriptSig": {"hex": "47304402201566fca564fd5ab260a3f6a64f22256623267047d2596c82000b569fa269929a0220085aaacceed6a960edd57a65b35527d736dc2de0a87f281416f5511118fec7a8012102b71fd0117e238dd462feadd0530d9da050a3d7caefc687ad6cccab48c9989d84", "asm": "304402201566fca564fd5ab260a3f6a64f22256623267047d2596c82000b569fa269929a0220085aaacceed6a960edd57a65b35527d736dc2de0a87f281416f5511118fec7a8[ALL] 02b71fd0117e238dd462feadd0530d9da050a3d7caefc687ad6cccab48c9989d84"}, "vout": 0, "txid": "e26ea2975a5126512b6d8ec17c2aa86d0cc77f730c0d91f31554f880d40b25f7"}], "txid": "dd6fb10e5b9d7013446620ec6e050db6c553040ab0ddaa3ab2edb529a536c767", "blocktime": 1537873282, "version": 1, "confirmations": 11481, "time": 1537873282, "locktime": 0, "vsize": 371, "size": 371}