{"hash": "dd73f89d868eb7954a2a8eb865697313ae079909adaaddaeaec161d3c8af5ca4", "blockhash": "0000000000000000001f76057863aec43deb6fa401d9628bb513d65a8098bfab", "vout": [{"scriptPubKey": {"reqSigs": 1, "hex": "76a9144cafdbc27a9e1ea17bdaea8ebd8cb60e1269258e88ac", "addresses": ["17zV2SNfX4pNhbpD7rbfit9RSmzdnpVLsq"], "asm": "OP_DUP OP_HASH160 4cafdbc27a9e1ea17bdaea8ebd8cb60e1269258e OP_EQUALVERIFY OP_CHECKSIG", "type": "pubkeyhash"}, "value": 0.19840861, "n": 0}, {"scriptPubKey": {"reqSigs": 1, "hex": "76a914ef143b34d736a87d04d3f8ec468304f54703a5a588ac", "addresses": ["1No8jYPGitVsXW3DF3w36PQ3Gqk682zw37"], "asm": "OP_DUP OP_HASH160 ef143b34d736a87d04d3f8ec468304f54703a5a5 OP_EQUALVERIFY OP_CHECKSIG", "type": "pubkeyhash"}, "value": 2.26160274, "n": 1}], "hex": "010000000100fb39a5a2b182a50e354e581e828a949894bd6a865d3633add5f97daf5c78c1000000006b483045022100bee38c892956f4e2788a7ae50053621ffb694b637d7cca2796cb4f5b4a75e24a022028bc5b8572c58391af86042fc6a462cc4955c612479298d548959e7a818b867101210375f44406b5988d2daf793a34c77a88e57dc2fd7430ba3e317efde1c6a85f8cc8ffffffff025dbf2e01000000001976a9144cafdbc27a9e1ea17bdaea8ebd8cb60e1269258e88ac92ee7a0d000000001976a914ef143b34d736a87d04d3f8ec468304f54703a5a588ac00000000", "vin": [{"sequence": 4294967295, "scriptSig": {"hex": "483045022100bee38c892956f4e2788a7ae50053621ffb694b637d7cca2796cb4f5b4a75e24a022028bc5b8572c58391af86042fc6a462cc4955c612479298d548959e7a818b867101210375f44406b5988d2daf793a34c77a88e57dc2fd7430ba3e317efde1c6a85f8cc8", "asm": "3045022100bee38c892956f4e2788a7ae50053621ffb694b637d7cca2796cb4f5b4a75e24a022028bc5b8572c58391af86042fc6a462cc4955c612479298d548959e7a818b8671[ALL] 0375f44406b5988d2daf793a34c77a88e57dc2fd7430ba3e317efde1c6a85f8cc8"}, "vout": 0, "txid": "c1785caf7df9d5ad33365d866abd9498948a821e584e350ea582b1a2a539fb00"}], "txid": "dd73f89d868eb7954a2a8eb865697313ae079909adaaddaeaec161d3c8af5ca4", "blocktime": 1537873891, "version": 1, "confirmations": 11478, "time": 1537873891, "locktime": 0, "vsize": 226, "size": 226}