{"hash": "dd776dfe72e727d82d028335013a0be5d37e479626fb8722a39fb164be2e4245", "blockhash": "00000000000000000017f5eb5941039fbcee6240d03bc1f2f8e35350df66a1d8", "vout": [{"scriptPubKey": {"reqSigs": 1, "hex": "a9142cf0aacea21cd2bf2619306ec24fdea11159252587", "addresses": ["35ndxqR8myPvk2PsW2sb6eDQTNLf2Pjpjs"], "asm": "OP_HASH160 2cf0aacea21cd2bf2619306ec24fdea111592525 OP_EQUAL", "type": "scripthash"}, "value": 0.0004, "n": 0}, {"scriptPubKey": {"reqSigs": 1, "hex": "76a9140cecd1d82cae148bc45bf205d630888748935a9488ac", "addresses": ["12BLopmL7u2N2UXCRQH8bpLkHaUcvPJnAa"], "asm": "OP_DUP OP_HASH160 0cecd1d82cae148bc45bf205d630888748935a94 OP_EQUALVERIFY OP_CHECKSIG", "type": "pubkeyhash"}, "value": 6.661e-05, "n": 1}], "hex": "01000000046f0e795507b48ac9964fe60bddfe736a807b6b674a1025f9a065800f99c5d3e2000000008b48304502210092d6baa4fce1ef22bfb67aaf38f0992db189c08989c5ae7574d39828243aaa3e02200f513d945906831720caa3919e56e0a8e63cf24334324e46124b2f48e8816609014104d12f3ebf1f9a50d5262a6841a61f38d9dadd77d97643c501c2e9224c103cac691d8ca9a4ab2e7b2fd6b9edcf11bd4d998807de38f3d0e233fe47e65fe7e3ca02ffffffff82d35e98dc6e76db87e43e75de13895ec7a05405c2af8a4757264d3352f12423f10000008a47304402206abf1d38a504b6081f98122b432a23eb4519c7fdd67bbb5f21e9d97a2462768a02207877627266b98242bc23ac93083e0d7d7dc261845731e7005acc476bff5f26e8014104d12f3ebf1f9a50d5262a6841a61f38d9dadd77d97643c501c2e9224c103cac691d8ca9a4ab2e7b2fd6b9edcf11bd4d998807de38f3d0e233fe47e65fe7e3ca02ffffffff1279a6aeba2c7d205fd0d2b8e6b9bd4b4c7791e8463c75d19ec98769ae385c78d00000008a473044022026c76a3511cd19b74281d923d5192b4585db5c3dc8328bd0e1952b8f67e0e5a70220320f12987257f63252313b9a8506a0d03986e01e4ffa7806603212115079db31014104d12f3ebf1f9a50d5262a6841a61f38d9dadd77d97643c501c2e9224c103cac691d8ca9a4ab2e7b2fd6b9edcf11bd4d998807de38f3d0e233fe47e65fe7e3ca02ffffffff63bff00e8b25a45cf53cc2a50858d514a54691d87cfdfbe6c081f06ffccdbdb9010000008a473044022008abbbbe3fbf92c2a7003e1f7b8636e1de9eb50d3bbdfa447f372d8ab88dab36022045abc76e30ba1e76d89328547ce346b12a3d09ec59c3584be4741f2f8e343184014104d12f3ebf1f9a50d5262a6841a61f38d9dadd77d97643c501c2e9224c103cac691d8ca9a4ab2e7b2fd6b9edcf11bd4d998807de38f3d0e233fe47e65fe7e3ca02ffffffff02409c00000000000017a9142cf0aacea21cd2bf2619306ec24fdea11159252587051a0000000000001976a9140cecd1d82cae148bc45bf205d630888748935a9488ac00000000", "vin": [{"sequence": 4294967295, "scriptSig": {"hex": "48304502210092d6baa4fce1ef22bfb67aaf38f0992db189c08989c5ae7574d39828243aaa3e02200f513d945906831720caa3919e56e0a8e63cf24334324e46124b2f48e8816609014104d12f3ebf1f9a50d5262a6841a61f38d9dadd77d97643c501c2e9224c103cac691d8ca9a4ab2e7b2fd6b9edcf11bd4d998807de38f3d0e233fe47e65fe7e3ca02", "asm": "304502210092d6baa4fce1ef22bfb67aaf38f0992db189c08989c5ae7574d39828243aaa3e02200f513d945906831720caa3919e56e0a8e63cf24334324e46124b2f48e8816609[ALL] 04d12f3ebf1f9a50d5262a6841a61f38d9dadd77d97643c501c2e9224c103cac691d8ca9a4ab2e7b2fd6b9edcf11bd4d998807de38f3d0e233fe47e65fe7e3ca02"}, "vout": 0, "txid": "e2d3c5990f8065a0f925104a676b7b806a73fedd0be64f96c98ab40755790e6f"}, {"sequence": 4294967295, "scriptSig": {"hex": "47304402206abf1d38a504b6081f98122b432a23eb4519c7fdd67bbb5f21e9d97a2462768a02207877627266b98242bc23ac93083e0d7d7dc261845731e7005acc476bff5f26e8014104d12f3ebf1f9a50d5262a6841a61f38d9dadd77d97643c501c2e9224c103cac691d8ca9a4ab2e7b2fd6b9edcf11bd4d998807de38f3d0e233fe47e65fe7e3ca02", "asm": "304402206abf1d38a504b6081f98122b432a23eb4519c7fdd67bbb5f21e9d97a2462768a02207877627266b98242bc23ac93083e0d7d7dc261845731e7005acc476bff5f26e8[ALL] 04d12f3ebf1f9a50d5262a6841a61f38d9dadd77d97643c501c2e9224c103cac691d8ca9a4ab2e7b2fd6b9edcf11bd4d998807de38f3d0e233fe47e65fe7e3ca02"}, "vout": 241, "txid": "2324f152334d2657478aafc20554a0c75e8913de753ee487db766edc985ed382"}, {"sequence": 4294967295, "scriptSig": {"hex": "473044022026c76a3511cd19b74281d923d5192b4585db5c3dc8328bd0e1952b8f67e0e5a70220320f12987257f63252313b9a8506a0d03986e01e4ffa7806603212115079db31014104d12f3ebf1f9a50d5262a6841a61f38d9dadd77d97643c501c2e9224c103cac691d8ca9a4ab2e7b2fd6b9edcf11bd4d998807de38f3d0e233fe47e65fe7e3ca02", "asm": "3044022026c76a3511cd19b74281d923d5192b4585db5c3dc8328bd0e1952b8f67e0e5a70220320f12987257f63252313b9a8506a0d03986e01e4ffa7806603212115079db31[ALL] 04d12f3ebf1f9a50d5262a6841a61f38d9dadd77d97643c501c2e9224c103cac691d8ca9a4ab2e7b2fd6b9edcf11bd4d998807de38f3d0e233fe47e65fe7e3ca02"}, "vout": 208, "txid": "785c38ae6987c99ed1753c46e891774c4bbdb9e6b8d2d05f207d2cbaaea67912"}, {"sequence": 4294967295, "scriptSig": {"hex": "473044022008abbbbe3fbf92c2a7003e1f7b8636e1de9eb50d3bbdfa447f372d8ab88dab36022045abc76e30ba1e76d89328547ce346b12a3d09ec59c3584be4741f2f8e343184014104d12f3ebf1f9a50d5262a6841a61f38d9dadd77d97643c501c2e9224c103cac691d8ca9a4ab2e7b2fd6b9edcf11bd4d998807de38f3d0e233fe47e65fe7e3ca02", "asm": "3044022008abbbbe3fbf92c2a7003e1f7b8636e1de9eb50d3bbdfa447f372d8ab88dab36022045abc76e30ba1e76d89328547ce346b12a3d09ec59c3584be4741f2f8e343184[ALL] 04d12f3ebf1f9a50d5262a6841a61f38d9dadd77d97643c501c2e9224c103cac691d8ca9a4ab2e7b2fd6b9edcf11bd4d998807de38f3d0e233fe47e65fe7e3ca02"}, "vout": 1, "txid": "b9bdcdfc6ff081c0e6fbfd7cd89146a514d55808a5c23cf55ca4258b0ef0bf63"}], "txid": "dd776dfe72e727d82d028335013a0be5d37e479626fb8722a39fb164be2e4245", "blocktime": 1537874412, "version": 1, "confirmations": 11467, "time": 1537874412, "locktime": 0, "vsize": 793, "size": 793}