{"hash": "dd78ffd0be57b83529f9ea101364f22015e66102abb48830de6e24ce54087633", "blockhash": "00000000000000000024a2167bbff67b0be802c0b01cdd79e6331c2be6459f87", "vout": [{"scriptPubKey": {"reqSigs": 1, "hex": "76a914356208f7f836a4fec459e26d0c33fde5461c4d0e88ac", "addresses": ["15sGFm7ZLzPCH58zmtTkPowWCkEhmWJzZB"], "asm": "OP_DUP OP_HASH160 356208f7f836a4fec459e26d0c33fde5461c4d0e OP_EQUALVERIFY OP_CHECKSIG", "type": "pubkeyhash"}, "value": 0.02267714, "n": 0}], "hex": "0100000001b4fec1dcf9a2751fcc9328871645018e9af27f626df11bab37a6d1da4bc0a02d000000006b4830450221008480b11e7b71039b9304d0d5156cb81416ec3b46423b71fb1b23e5e44b314f86022050c1fb89b8cc0cddc695503b7b68d6ffa4c6f3053d61b16775ccbe72bc7ed9e901210349269d2ce5a088cc1315219763728ec16495182919b7421578b792874b8d0de4ffffffff01429a2200000000001976a914356208f7f836a4fec459e26d0c33fde5461c4d0e88ac00000000", "vin": [{"sequence": 4294967295, "scriptSig": {"hex": "4830450221008480b11e7b71039b9304d0d5156cb81416ec3b46423b71fb1b23e5e44b314f86022050c1fb89b8cc0cddc695503b7b68d6ffa4c6f3053d61b16775ccbe72bc7ed9e901210349269d2ce5a088cc1315219763728ec16495182919b7421578b792874b8d0de4", "asm": "30450221008480b11e7b71039b9304d0d5156cb81416ec3b46423b71fb1b23e5e44b314f86022050c1fb89b8cc0cddc695503b7b68d6ffa4c6f3053d61b16775ccbe72bc7ed9e9[ALL] 0349269d2ce5a088cc1315219763728ec16495182919b7421578b792874b8d0de4"}, "vout": 0, "txid": "2da0c04bdad1a637ab1bf16d627ff29a8e014516872893cc1f75a2f9dcc1feb4"}], "txid": "dd78ffd0be57b83529f9ea101364f22015e66102abb48830de6e24ce54087633", "blocktime": 1537870564, "version": 1, "confirmations": 11515, "time": 1537870564, "locktime": 0, "vsize": 192, "size": 192}