{"hash": "dd80988bb936a76fea4a3af62dfb51b4105732c985ec3c4546791130cb793e90", "blockhash": "0000000000000000001f0ddff1eddb255c1121bcd4da4f1bc9a0da00cae72433", "vout": [{"scriptPubKey": {"reqSigs": 1, "hex": "76a91470b6cd95e07d7ba907487d5f3bb5b9a1aa2611ce88ac", "addresses": ["1BGyfsANbBF7Xmchvb2NH1sDPFXsP9L3sf"], "asm": "OP_DUP OP_HASH160 70b6cd95e07d7ba907487d5f3bb5b9a1aa2611ce OP_EQUALVERIFY OP_CHECKSIG", "type": "pubkeyhash"}, "value": 1e-05, "n": 0}, {"scriptPubKey": {"reqSigs": 1, "hex": "76a914c19e0f035dd9375ad1743e370e8b6a9cbdd2f5d288ac", "addresses": ["1Jekm8ZswQmDhLFMp9cuYb1Kcq26riFp6m"], "asm": "OP_DUP OP_HASH160 c19e0f035dd9375ad1743e370e8b6a9cbdd2f5d2 OP_EQUALVERIFY OP_CHECKSIG", "type": "pubkeyhash"}, "value": 23.18474489, "n": 1}, {"scriptPubKey": {"type": "nulldata", "hex": "6a146f6d6e69000000000000001f00000045d964b800", "asm": "OP_RETURN 6f6d6e69000000000000001f00000045d964b800"}, "value": 0.0, "n": 2}], "hex": "0200000001ac74703fc50a497582d0812576f43031b9260e71ab7ac976b18fd119258d8468010000008b4830450221009384ac41eb17907cc7ac655964e4cba09fc52e3514d4e91de7b063798d387bde02205641dd8dd40f6f41b6895410f427d880dfb7302fc05b530d66d5054efdc32d420141040dd834391c53ff254e0d20195ed8b53537601370406fda7b7aa0d908a99f79676ec133f222f1c9b457c6b1c83a2cbbb015f05a03f633fed22d7732011c2dc3ffffffffff03e8030000000000001976a91470b6cd95e07d7ba907487d5f3bb5b9a1aa2611ce88acf91c318a000000001976a914c19e0f035dd9375ad1743e370e8b6a9cbdd2f5d288ac0000000000000000166a146f6d6e69000000000000001f00000045d964b80000000000", "vin": [{"sequence": 4294967295, "scriptSig": {"hex": "4830450221009384ac41eb17907cc7ac655964e4cba09fc52e3514d4e91de7b063798d387bde02205641dd8dd40f6f41b6895410f427d880dfb7302fc05b530d66d5054efdc32d420141040dd834391c53ff254e0d20195ed8b53537601370406fda7b7aa0d908a99f79676ec133f222f1c9b457c6b1c83a2cbbb015f05a03f633fed22d7732011c2dc3ff", "asm": "30450221009384ac41eb17907cc7ac655964e4cba09fc52e3514d4e91de7b063798d387bde02205641dd8dd40f6f41b6895410f427d880dfb7302fc05b530d66d5054efdc32d42[ALL] 040dd834391c53ff254e0d20195ed8b53537601370406fda7b7aa0d908a99f79676ec133f222f1c9b457c6b1c83a2cbbb015f05a03f633fed22d7732011c2dc3ff"}, "vout": 1, "txid": "68848d2519d18fb176c97aab710e26b93130f4762581d08275490ac53f7074ac"}], "txid": "dd80988bb936a76fea4a3af62dfb51b4105732c985ec3c4546791130cb793e90", "blocktime": 1537872018, "version": 2, "confirmations": 11489, "time": 1537872018, "locktime": 0, "vsize": 289, "size": 289}