{"hash": "41bd90e20fd7917ad3ec1369819691a53a2345bb4bc10397d0d13b76407c60f2", "blockhash": "0000000000000000001f76057863aec43deb6fa401d9628bb513d65a8098bfab", "vout": [{"scriptPubKey": {"reqSigs": 1, "hex": "76a91480d0cdd55269115102bb3c1d6c476186f60eb7ae88ac", "addresses": ["1Ck7dWkzMJksyVGbontbynaoL2u1iGS3Y9"], "asm": "OP_DUP OP_HASH160 80d0cdd55269115102bb3c1d6c476186f60eb7ae OP_EQUALVERIFY OP_CHECKSIG", "type": "pubkeyhash"}, "value": 0.2131892, "n": 0}, {"scriptPubKey": {"reqSigs": 1, "hex": "0014a5fe8b3dd7c2a8915adfc7085d1509c64ee88ee4", "addresses": ["bc1q5hlgk0whc25fzkklcuy969gfce8w3rhyeeh5la"], "asm": "0 a5fe8b3dd7c2a8915adfc7085d1509c64ee88ee4", "type": "witness_v0_keyhash"}, "value": 0.02886037, "n": 1}], "hex": "010000000001016438e773d3a98cfe7965443c2af359c39cb0a8836a416637af38cf1e1d0f59c41f000000171600149a70d650fa7482842fe0c45bc789f906839062f5ffffffff02084d4501000000001976a91480d0cdd55269115102bb3c1d6c476186f60eb7ae88ac95092c0000000000160014a5fe8b3dd7c2a8915adfc7085d1509c64ee88ee40247304402201a131de0e61c522f3a476f06ed06fbfdd6dede9010a832e14a01f2c61b768c0c022021080556d2ba67599ebd969397c54107048f432ef02ceb714aaf733f4879c0930121022fb269d9fc1b217109861dab0b72cdae2ecb60ccbb1b5c26436ae48d206510e500000000", "vin": [{"txinwitness": ["304402201a131de0e61c522f3a476f06ed06fbfdd6dede9010a832e14a01f2c61b768c0c022021080556d2ba67599ebd969397c54107048f432ef02ceb714aaf733f4879c09301", "022fb269d9fc1b217109861dab0b72cdae2ecb60ccbb1b5c26436ae48d206510e5"], "sequence": 4294967295, "scriptSig": {"hex": "1600149a70d650fa7482842fe0c45bc789f906839062f5", "asm": "00149a70d650fa7482842fe0c45bc789f906839062f5"}, "vout": 31, "txid": "c4590f1d1ecf38af3766416a83a8b09cc359f32a3c446579fe8ca9d373e73864"}], "txid": "dd824084a238775d8cebc31751d61dfb317d71b3f5c97d546a1dd70db7b5cf02", "blocktime": 1537873891, "version": 1, "confirmations": 11478, "time": 1537873891, "locktime": 0, "vsize": 167, "size": 248}