{"hash": "dd8e25a051f0c4923a4ccd8d802f5928087f3b1c140474bac18ca83349c849f3", "blockhash": "0000000000000000000baef3f32e3676a92c3b2e5da21b426e4f302fc371ce76", "vout": [{"scriptPubKey": {"reqSigs": 1, "hex": "a914b52130dac4f6da88465b1a5704555ce4c33bb27c87", "addresses": ["3JCjzQSRE53woAh6A65UWGKkfdLz3fM67B"], "asm": "OP_HASH160 b52130dac4f6da88465b1a5704555ce4c33bb27c OP_EQUAL", "type": "scripthash"}, "value": 0.001255, "n": 0}, {"scriptPubKey": {"reqSigs": 1, "hex": "76a9149a9c0dd540f6494af0e643713b1cae3e1237d75288ac", "addresses": ["1F6W1NFNVx1aGv2dFpZUAMQSE6dCTS2ZD4"], "asm": "OP_DUP OP_HASH160 9a9c0dd540f6494af0e643713b1cae3e1237d752 OP_EQUALVERIFY OP_CHECKSIG", "type": "pubkeyhash"}, "value": 0.00200216, "n": 1}], "hex": "010000000108efb87a88de6e7f6c5ce4b2a1676091d2568e9bda75aa4b6910dc3a9ad19faf000000008a47304402202585d997fa209aa316591bacc2d5d6e88c5298704a12c77e393c4cbbc75da2080220087587fbe72d901db4f2ec2646d28da95574f58297410df360f994eca6094f5f014104b99f1f932c0a210b24859c3f31d1cf9b618c4be6c45887d9291731004213e5ee47b3fb71b74464101d5889c4749de78026e8099cbb320c7e34eb7caa2f539428ffffffff023cea01000000000017a914b52130dac4f6da88465b1a5704555ce4c33bb27c87180e0300000000001976a9149a9c0dd540f6494af0e643713b1cae3e1237d75288ac00000000", "vin": [{"sequence": 4294967295, "scriptSig": {"hex": "47304402202585d997fa209aa316591bacc2d5d6e88c5298704a12c77e393c4cbbc75da2080220087587fbe72d901db4f2ec2646d28da95574f58297410df360f994eca6094f5f014104b99f1f932c0a210b24859c3f31d1cf9b618c4be6c45887d9291731004213e5ee47b3fb71b74464101d5889c4749de78026e8099cbb320c7e34eb7caa2f539428", "asm": "304402202585d997fa209aa316591bacc2d5d6e88c5298704a12c77e393c4cbbc75da2080220087587fbe72d901db4f2ec2646d28da95574f58297410df360f994eca6094f5f[ALL] 04b99f1f932c0a210b24859c3f31d1cf9b618c4be6c45887d9291731004213e5ee47b3fb71b74464101d5889c4749de78026e8099cbb320c7e34eb7caa2f539428"}, "vout": 0, "txid": "af9fd19a3adc10694baa75da9b8e56d2916067a1b2e45c6c7f6ede887ab8ef08"}], "txid": "dd8e25a051f0c4923a4ccd8d802f5928087f3b1c140474bac18ca83349c849f3", "blocktime": 1537876114, "version": 1, "confirmations": 11460, "time": 1537876114, "locktime": 0, "vsize": 255, "size": 255}