{"hash": "dd8f43e15932f0bc038102fe6e108adf01d3e0b21ce2650d8ddd75f775c1dc4b", "blockhash": "00000000000000000017f5eb5941039fbcee6240d03bc1f2f8e35350df66a1d8", "vout": [{"scriptPubKey": {"reqSigs": 1, "hex": "a9140b3614db56df97c1df6611aa64f63002f2875d9f87", "addresses": ["32iJ9JNtudWHqw59izTiNvLUSdJz8RL1Bp"], "asm": "OP_HASH160 0b3614db56df97c1df6611aa64f63002f2875d9f OP_EQUAL", "type": "scripthash"}, "value": 0.0046893, "n": 0}, {"scriptPubKey": {"reqSigs": 1, "hex": "76a914c4dfddf0ec0c4a453f9bfe9d0311fffdfd37094588ac", "addresses": ["1Jwyd9Zi4ZsiNf6nVEAXXr26cukmzuQjDm"], "asm": "OP_DUP OP_HASH160 c4dfddf0ec0c4a453f9bfe9d0311fffdfd370945 OP_EQUALVERIFY OP_CHECKSIG", "type": "pubkeyhash"}, "value": 0.02688488, "n": 1}], "hex": "0100000001dfd115156e84f30f09f23b80eeeb795f5420bd0aa5d7333fd283130225eba07b010000006a47304402203612771078c101e826c3c95492701c9337bf5e5ef843f2867f174c1bd9cd4c51022057f51cf179f15cd2ff81e17e031b182c86871b4413bedcaecc518b0fcae0580b012103e5166cb61d2a521760b3e4a657a81d26edae33396fe34adc203154521735e345ffffffff02c22707000000000017a9140b3614db56df97c1df6611aa64f63002f2875d9f87e8052900000000001976a914c4dfddf0ec0c4a453f9bfe9d0311fffdfd37094588ac00000000", "vin": [{"sequence": 4294967295, "scriptSig": {"hex": "47304402203612771078c101e826c3c95492701c9337bf5e5ef843f2867f174c1bd9cd4c51022057f51cf179f15cd2ff81e17e031b182c86871b4413bedcaecc518b0fcae0580b012103e5166cb61d2a521760b3e4a657a81d26edae33396fe34adc203154521735e345", "asm": "304402203612771078c101e826c3c95492701c9337bf5e5ef843f2867f174c1bd9cd4c51022057f51cf179f15cd2ff81e17e031b182c86871b4413bedcaecc518b0fcae0580b[ALL] 03e5166cb61d2a521760b3e4a657a81d26edae33396fe34adc203154521735e345"}, "vout": 1, "txid": "7ba0eb25021383d23f33d7a50abd20545f79ebee803bf2090ff3846e1515d1df"}], "txid": "dd8f43e15932f0bc038102fe6e108adf01d3e0b21ce2650d8ddd75f775c1dc4b", "blocktime": 1537874412, "version": 1, "confirmations": 11467, "time": 1537874412, "locktime": 0, "vsize": 223, "size": 223}