{"hash": "dd98d7f2e716e84f10f57d0b936594f6883d10e09f2ae2c9c2cf47b4ce526dc3", "blockhash": "00000000000000000024a2167bbff67b0be802c0b01cdd79e6331c2be6459f87", "vout": [{"scriptPubKey": {"reqSigs": 1, "hex": "76a9149465ec38042e66578eaecc86b49cdc0f168dafd988ac", "addresses": ["1EXf77AeQEaKqYgpUW97Vqm7S55PhcfQz4"], "asm": "OP_DUP OP_HASH160 9465ec38042e66578eaecc86b49cdc0f168dafd9 OP_EQUALVERIFY OP_CHECKSIG", "type": "pubkeyhash"}, "value": 1.607e-05, "n": 0}, {"scriptPubKey": {"reqSigs": 1, "hex": "a91443c250035779ca602c332a2661fa69b49e7d201287", "addresses": ["37sHyUAPTusLBQmL6SQNba3d1d9QEvWbkn"], "asm": "OP_HASH160 43c250035779ca602c332a2661fa69b49e7d2012 OP_EQUAL", "type": "scripthash"}, "value": 0.0092, "n": 1}], "hex": "0100000002935e5002e52264780834088a777ba6c0a22d65400e502fdf18df18ce946e363d010000006b483045022100f8e057685b98535c79ae03da8c0c883a419aa3f44c6fd44dc3cad536269d3e5f0220536df6416f0dd5d2ccb6ac8ddf6160abfc946adbde2bd273a9f78600070814b501210236069a59c13cfa1f9c0997eab2ae34887d392221c1388efd276ba442fc2b1fb0ffffffff7257fd9d42a4aa491b9b4f5c35e41213eeacef86a4102dcc1f8205d9d1c4f9f3000000006b48304502210097f52856fb1abcdb7ec3ee37117585f0988c1934a625e916efc20c03de3e99da022013d0f34c9aa076d4805ac22f1b2f3be6303962e03dce6f292ad220a918f5bd970121036248414a9537e57567e508c04de3879a38284288b9220b92d634160e77074e96ffffffff0247060000000000001976a9149465ec38042e66578eaecc86b49cdc0f168dafd988acc0090e000000000017a91443c250035779ca602c332a2661fa69b49e7d20128700000000", "vin": [{"sequence": 4294967295, "scriptSig": {"hex": "483045022100f8e057685b98535c79ae03da8c0c883a419aa3f44c6fd44dc3cad536269d3e5f0220536df6416f0dd5d2ccb6ac8ddf6160abfc946adbde2bd273a9f78600070814b501210236069a59c13cfa1f9c0997eab2ae34887d392221c1388efd276ba442fc2b1fb0", "asm": "3045022100f8e057685b98535c79ae03da8c0c883a419aa3f44c6fd44dc3cad536269d3e5f0220536df6416f0dd5d2ccb6ac8ddf6160abfc946adbde2bd273a9f78600070814b5[ALL] 0236069a59c13cfa1f9c0997eab2ae34887d392221c1388efd276ba442fc2b1fb0"}, "vout": 1, "txid": "3d366e94ce18df18df2f500e40652da2c0a67b778a083408786422e502505e93"}, {"sequence": 4294967295, "scriptSig": {"hex": "48304502210097f52856fb1abcdb7ec3ee37117585f0988c1934a625e916efc20c03de3e99da022013d0f34c9aa076d4805ac22f1b2f3be6303962e03dce6f292ad220a918f5bd970121036248414a9537e57567e508c04de3879a38284288b9220b92d634160e77074e96", "asm": "304502210097f52856fb1abcdb7ec3ee37117585f0988c1934a625e916efc20c03de3e99da022013d0f34c9aa076d4805ac22f1b2f3be6303962e03dce6f292ad220a918f5bd97[ALL] 036248414a9537e57567e508c04de3879a38284288b9220b92d634160e77074e96"}, "vout": 0, "txid": "f3f9c4d1d905821fcc2d10a486efacee1312e4355c4f9b1b49aaa4429dfd5772"}], "txid": "dd98d7f2e716e84f10f57d0b936594f6883d10e09f2ae2c9c2cf47b4ce526dc3", "blocktime": 1537870564, "version": 1, "confirmations": 11515, "time": 1537870564, "locktime": 0, "vsize": 372, "size": 372}