{"hash": "dd9f0d431b90e038a8e24622efabe1386a4bfb3f95d1e168829321a5bdc4b424", "blockhash": "00000000000000000024a2167bbff67b0be802c0b01cdd79e6331c2be6459f87", "vout": [{"scriptPubKey": {"reqSigs": 1, "hex": "a914ff8f822724dcaa5dc08e71ec9e9642020fe6176487", "addresses": ["3QzJ9bjQSN1MVvVx35AkpdESNdbT8fazqm"], "asm": "OP_HASH160 ff8f822724dcaa5dc08e71ec9e9642020fe61764 OP_EQUAL", "type": "scripthash"}, "value": 0.00277321, "n": 0}, {"scriptPubKey": {"reqSigs": 1, "hex": "76a914c06b74a7fc78ba2d548d0123363ff0e621c842a588ac", "addresses": ["1JYRTz3fkRdf8qRiiVRTQGTPjaBCCyFTZt"], "asm": "OP_DUP OP_HASH160 c06b74a7fc78ba2d548d0123363ff0e621c842a5 OP_EQUALVERIFY OP_CHECKSIG", "type": "pubkeyhash"}, "value": 0.04149034, "n": 1}], "hex": "0100000001050b1f0a2f44bd9818a89949b224f6105b80d964d3fb2d9e359dbbd759430ac8010000006a47304402200c3a07d1e44f6061b7ddbf79a2e87e9b3f13fb82719ae81384c61978dbc6c59002207a6e0ceb2c85aee4de7f9ba294a34b34c065aa8f68b18292c496fbfbc76c080301210245a6972d5184819a60d25a9c9a15accdaab71cc67e8d4e345bbb1d3fd6e4a57dffffffff02493b04000000000017a914ff8f822724dcaa5dc08e71ec9e9642020fe61764872a4f3f00000000001976a914c06b74a7fc78ba2d548d0123363ff0e621c842a588ac00000000", "vin": [{"sequence": 4294967295, "scriptSig": {"hex": "47304402200c3a07d1e44f6061b7ddbf79a2e87e9b3f13fb82719ae81384c61978dbc6c59002207a6e0ceb2c85aee4de7f9ba294a34b34c065aa8f68b18292c496fbfbc76c080301210245a6972d5184819a60d25a9c9a15accdaab71cc67e8d4e345bbb1d3fd6e4a57d", "asm": "304402200c3a07d1e44f6061b7ddbf79a2e87e9b3f13fb82719ae81384c61978dbc6c59002207a6e0ceb2c85aee4de7f9ba294a34b34c065aa8f68b18292c496fbfbc76c0803[ALL] 0245a6972d5184819a60d25a9c9a15accdaab71cc67e8d4e345bbb1d3fd6e4a57d"}, "vout": 1, "txid": "c80a4359d7bb9d359e2dfbd364d9805b10f624b24999a81898bd442f0a1f0b05"}], "txid": "dd9f0d431b90e038a8e24622efabe1386a4bfb3f95d1e168829321a5bdc4b424", "blocktime": 1537870564, "version": 1, "confirmations": 11515, "time": 1537870564, "locktime": 0, "vsize": 223, "size": 223}