{"hash": "dda04cf437ee5ccee57a280cec442237aa4fbc08c0c28f75e86a7b441cadc151", "blockhash": "0000000000000000000dcc0f55137456b1a82d3642486a52398922ac4d620174", "vout": [{"scriptPubKey": {"reqSigs": 1, "hex": "a914a91fc7ed5584c1ce253427344c2b62054463b40287", "addresses": ["3H7GC9GCrfzYD3Doua3CSseLaDF7MStmvv"], "asm": "OP_HASH160 a91fc7ed5584c1ce253427344c2b62054463b402 OP_EQUAL", "type": "scripthash"}, "value": 10.0, "n": 0}, {"scriptPubKey": {"reqSigs": 1, "hex": "76a914033bd08182597e8241db1951c132cceb3f7e0d3488ac", "addresses": ["1J6gZNdUcTQDxvgD6Hpiot61goen4xZxp"], "asm": "OP_DUP OP_HASH160 033bd08182597e8241db1951c132cceb3f7e0d34 OP_EQUALVERIFY OP_CHECKSIG", "type": "pubkeyhash"}, "value": 0.0095922, "n": 1}], "hex": "0200000005221bc1904ea10a732fdf57526161b6e815497fa62f3195a8aa93e4b0cfeec82b010000006b483045022100f92ca62e8fdda8254c1f586f732d15910934e20731f096bea376dfdd43f29e4e0220463355f95c5c6d66631c749e9ba55fcdf8b36b65929fe39c6ce6c718d207dcea0121031cb0372af8255becb06423f9ed1a818588c22705a27b26b2cfb3404b5dfa6954feffffff4367da0d8a6eaf07dc11bbcf8d329795ba2de05444b1b73934214ab2f5dc422c000000006b48304502210093cdf626c7ffb8fa8a7ba666aebb52e1d033b3a646b43109fe3ae4f03792565a022024ae51ee25125863ffc60353b5519c0ff714a8bb98bc854b7371d9ba1fb28f640121025594bb21e3625a4f56637ed5d60b2d65fb91ac786cf11787d8e1561521b7e1fcfeffffff4fe05c0a567945acabb25f9e281f48c44172b4da79e139947680f3554fb0baff100000006b4830450221008a0ea0d0baadd966b16156fea128f3f447562b929a13c46f3991bccdd56ea61c02206c7197fdffb0a40cc00dd02b91c2afc8804fc98ace8ec3edb776c6c7b27290e8012102f24c3ddab53e8f40829805eabdfa7644dd1c5ef07865781895a55c21a5b7ced0feffffff71d0ee81f7034905a449339bf2706a44ee962aabd9f0997be8d68e91ded8400b010000006b483045022100960cdc0e4db156fabcdfca3313c5cc395252946b1af5c0e5656e5a030c4996fc02207e62ae17e953cb749b66161cdaef63243c7ea452c03b359a3676af6cebd7fbd3012102893e8e835fa550d56543aed8698c5742dcbf393abdeefabf02029c7e4eabd25cfeffffffc968c7972165af66a48d4e20cec61cff505743dc2d08ecfd19918be1e4e48d4e010000006b483045022100b505c9d276259f47ac67b182cc9a1be43eef48588113276bf676c0fe89e2618702205d1a79169ea75b732ea0483063ab8cff6d28e25a29708d23a32118568037cb180121036b1b627673c2b14b451c907c957233040ccaad4daaaeb6ff816d1cdb2f8e566bfeffffff0200ca9a3b0000000017a914a91fc7ed5584c1ce253427344c2b62054463b40287f4a20e00000000001976a914033bd08182597e8241db1951c132cceb3f7e0d3488ac0a490800", "vin": [{"sequence": 4294967294, "scriptSig": {"hex": "483045022100f92ca62e8fdda8254c1f586f732d15910934e20731f096bea376dfdd43f29e4e0220463355f95c5c6d66631c749e9ba55fcdf8b36b65929fe39c6ce6c718d207dcea0121031cb0372af8255becb06423f9ed1a818588c22705a27b26b2cfb3404b5dfa6954", "asm": "3045022100f92ca62e8fdda8254c1f586f732d15910934e20731f096bea376dfdd43f29e4e0220463355f95c5c6d66631c749e9ba55fcdf8b36b65929fe39c6ce6c718d207dcea[ALL] 031cb0372af8255becb06423f9ed1a818588c22705a27b26b2cfb3404b5dfa6954"}, "vout": 1, "txid": "2bc8eecfb0e493aaa895312fa67f4915e8b661615257df2f730aa14e90c11b22"}, {"sequence": 4294967294, "scriptSig": {"hex": "48304502210093cdf626c7ffb8fa8a7ba666aebb52e1d033b3a646b43109fe3ae4f03792565a022024ae51ee25125863ffc60353b5519c0ff714a8bb98bc854b7371d9ba1fb28f640121025594bb21e3625a4f56637ed5d60b2d65fb91ac786cf11787d8e1561521b7e1fc", "asm": "304502210093cdf626c7ffb8fa8a7ba666aebb52e1d033b3a646b43109fe3ae4f03792565a022024ae51ee25125863ffc60353b5519c0ff714a8bb98bc854b7371d9ba1fb28f64[ALL] 025594bb21e3625a4f56637ed5d60b2d65fb91ac786cf11787d8e1561521b7e1fc"}, "vout": 0, "txid": "2c42dcf5b24a213439b7b14454e02dba9597328dcfbb11dc07af6e8a0dda6743"}, {"sequence": 4294967294, "scriptSig": {"hex": "4830450221008a0ea0d0baadd966b16156fea128f3f447562b929a13c46f3991bccdd56ea61c02206c7197fdffb0a40cc00dd02b91c2afc8804fc98ace8ec3edb776c6c7b27290e8012102f24c3ddab53e8f40829805eabdfa7644dd1c5ef07865781895a55c21a5b7ced0", "asm": "30450221008a0ea0d0baadd966b16156fea128f3f447562b929a13c46f3991bccdd56ea61c02206c7197fdffb0a40cc00dd02b91c2afc8804fc98ace8ec3edb776c6c7b27290e8[ALL] 02f24c3ddab53e8f40829805eabdfa7644dd1c5ef07865781895a55c21a5b7ced0"}, "vout": 16, "txid": "ffbab04f55f380769439e179dab47241c4481f289e5fb2abac4579560a5ce04f"}, {"sequence": 4294967294, "scriptSig": {"hex": "483045022100960cdc0e4db156fabcdfca3313c5cc395252946b1af5c0e5656e5a030c4996fc02207e62ae17e953cb749b66161cdaef63243c7ea452c03b359a3676af6cebd7fbd3012102893e8e835fa550d56543aed8698c5742dcbf393abdeefabf02029c7e4eabd25c", "asm": "3045022100960cdc0e4db156fabcdfca3313c5cc395252946b1af5c0e5656e5a030c4996fc02207e62ae17e953cb749b66161cdaef63243c7ea452c03b359a3676af6cebd7fbd3[ALL] 02893e8e835fa550d56543aed8698c5742dcbf393abdeefabf02029c7e4eabd25c"}, "vout": 1, "txid": "0b40d8de918ed6e87b99f0d9ab2a96ee446a70f29b3349a4054903f781eed071"}, {"sequence": 4294967294, "scriptSig": {"hex": "483045022100b505c9d276259f47ac67b182cc9a1be43eef48588113276bf676c0fe89e2618702205d1a79169ea75b732ea0483063ab8cff6d28e25a29708d23a32118568037cb180121036b1b627673c2b14b451c907c957233040ccaad4daaaeb6ff816d1cdb2f8e566b", "asm": "3045022100b505c9d276259f47ac67b182cc9a1be43eef48588113276bf676c0fe89e2618702205d1a79169ea75b732ea0483063ab8cff6d28e25a29708d23a32118568037cb18[ALL] 036b1b627673c2b14b451c907c957233040ccaad4daaaeb6ff816d1cdb2f8e566b"}, "vout": 1, "txid": "4e8de4e4e18b9119fdec082ddc435750ff1cc6ce204e8da466af652197c768c9"}], "txid": "dda04cf437ee5ccee57a280cec442237aa4fbc08c0c28f75e86a7b441cadc151", "blocktime": 1537870268, "version": 2, "confirmations": 11516, "time": 1537870268, "locktime": 542986, "vsize": 816, "size": 816}