{"hash": "79e6d1f31d2cd421145ebfed114a5b63218f91923bfb2ca9ea6424a46b656e55", "blockhash": "0000000000000000001cda96e906b7601b7a6fb1a3b62bca570a9e5d8f4b3de1", "vout": [{"scriptPubKey": {"reqSigs": 1, "hex": "76a91478aa84418021eb078a543a6f5062c9f2a35c6b7088ac", "addresses": ["1C12MiuEBmmvkVDQH8ucZZLA5MmawFUj5F"], "asm": "OP_DUP OP_HASH160 78aa84418021eb078a543a6f5062c9f2a35c6b70 OP_EQUALVERIFY OP_CHECKSIG", "type": "pubkeyhash"}, "value": 0.0093, "n": 0}, {"scriptPubKey": {"reqSigs": 1, "hex": "a91482fb50a4ca14f12e82908219f40dffffc6e7fb1787", "addresses": ["3Ddaq9woYWjhtQFjuroLq4c4XyfpzEcXm7"], "asm": "OP_HASH160 82fb50a4ca14f12e82908219f40dffffc6e7fb17 OP_EQUAL", "type": "scripthash"}, "value": 2.565e-05, "n": 1}], "hex": "02000000000104c7bf5f01bde0865f9c7c9ca3158d418f2f930e87c938f19aad1d099b14e70dea00000000171600140d8b1a5d0bd4dd7dd6de37f6c6b7fdfd67a4e84ffeffffff287741649c06b5db19bcb81e0c8501104a7929ad25c65e65649c8d841a35e53e0000000017160014f2ff5d0a05c54edb4fdf4e915f658aa4748ad143feffffff0f504d99cc55d6699609474d141864389113319b3cf7372d18477f141eaeff990100000017160014f3a37e8ed22e5c86c201f572a156c792ae900567fefffffff6fff419bbf21f97fa025664067fa67ba2cd58312260c0b91722ebe499688b760000000017160014c861b4d88ec5c3c107656d198ee23eb622d35392feffffff02d0300e00000000001976a91478aa84418021eb078a543a6f5062c9f2a35c6b7088ac050a00000000000017a91482fb50a4ca14f12e82908219f40dffffc6e7fb178702483045022100f47306d8807d14c0e55ae084fcae5188860110d63b00c53b287dc75fbbc056a60220520f9af56d733da38ac3f3569fc59294c0c5c25cfef58bf0d665dee4378ccf050121028ebb112dff91482cf0141dee136d11af0bba9efa8f689f78ea1fc8eec7dd4c8f0247304402200c904feb3ae7463261edf85473c89270957a20a21e12538d8cb46b14cf3b445d02206220e417847a98b1ebcaf32ea7f9a26118adee6c0df5704bd015ccb4259dfc42012102dc5f2fe513fb778d82ff0d699a111ba37bbab9f337632fdc2143bbf11c497b3502483045022100e66355920147e0a0646f66435a62c9dd0943f948be6c134c66aed4d5132138eb02203c1c8ff1c2218cc30c75a7364cdbfff1ab60dd9d9c6aa4c3ad7dad20da76c45101210365e7ae4a716125ca0362f1c80ad2e65e421b07e455eabb4f804b2d9ef3086e7a02483045022100b43f149e509dc67bf5f691a975cf6bb0cbce8cd8533a2452abd95b42cd3e13b4022044297bf13443bc9fc807e6b429ae39657f811df6fb182059af158de4a92a4693012102a84055d5641bb596fadfbf03b30f5d65bb14859e29f696f789926b434030738913490800", "vin": [{"txinwitness": ["3045022100f47306d8807d14c0e55ae084fcae5188860110d63b00c53b287dc75fbbc056a60220520f9af56d733da38ac3f3569fc59294c0c5c25cfef58bf0d665dee4378ccf0501", "028ebb112dff91482cf0141dee136d11af0bba9efa8f689f78ea1fc8eec7dd4c8f"], "sequence": 4294967294, "scriptSig": {"hex": "1600140d8b1a5d0bd4dd7dd6de37f6c6b7fdfd67a4e84f", "asm": "00140d8b1a5d0bd4dd7dd6de37f6c6b7fdfd67a4e84f"}, "vout": 0, "txid": "ea0de7149b091dad9af138c9870e932f8f418d15a39c7c9c5f86e0bd015fbfc7"}, {"txinwitness": ["304402200c904feb3ae7463261edf85473c89270957a20a21e12538d8cb46b14cf3b445d02206220e417847a98b1ebcaf32ea7f9a26118adee6c0df5704bd015ccb4259dfc4201", "02dc5f2fe513fb778d82ff0d699a111ba37bbab9f337632fdc2143bbf11c497b35"], "sequence": 4294967294, "scriptSig": {"hex": "160014f2ff5d0a05c54edb4fdf4e915f658aa4748ad143", "asm": "0014f2ff5d0a05c54edb4fdf4e915f658aa4748ad143"}, "vout": 0, "txid": "3ee5351a848d9c64655ec625ad29794a1001850c1eb8bc19dbb5069c64417728"}, {"txinwitness": ["3045022100e66355920147e0a0646f66435a62c9dd0943f948be6c134c66aed4d5132138eb02203c1c8ff1c2218cc30c75a7364cdbfff1ab60dd9d9c6aa4c3ad7dad20da76c45101", "0365e7ae4a716125ca0362f1c80ad2e65e421b07e455eabb4f804b2d9ef3086e7a"], "sequence": 4294967294, "scriptSig": {"hex": "160014f3a37e8ed22e5c86c201f572a156c792ae900567", "asm": "0014f3a37e8ed22e5c86c201f572a156c792ae900567"}, "vout": 1, "txid": "99ffae1e147f47182d37f73c9b311391386418144d47099669d655cc994d500f"}, {"txinwitness": ["3045022100b43f149e509dc67bf5f691a975cf6bb0cbce8cd8533a2452abd95b42cd3e13b4022044297bf13443bc9fc807e6b429ae39657f811df6fb182059af158de4a92a469301", "02a84055d5641bb596fadfbf03b30f5d65bb14859e29f696f789926b4340307389"], "sequence": 4294967294, "scriptSig": {"hex": "160014c861b4d88ec5c3c107656d198ee23eb622d35392", "asm": "0014c861b4d88ec5c3c107656d198ee23eb622d35392"}, "vout": 0, "txid": "768b6899e4eb2217b9c060223158cda27ba67f06645602fa971ff2bb19f4fff6"}], "txid": "dda3a7d979cf8ee70ec593d67179a645acbee8c937bb68ed41a31f4f8fb3f1a1", "blocktime": 1537873282, "version": 2, "confirmations": 11481, "time": 1537873282, "locktime": 542995, "vsize": 441, "size": 765}