{"hash": "6e9da9dc712a662c5a61089be99008e4bdd76d964e890193a3e1a4b9bee06c15", "blockhash": "00000000000000000004ffacab907a6b429b9a5745fa0b75af4234bf69dd7176", "vout": [{"scriptPubKey": {"reqSigs": 1, "hex": "a914c93c738521aadc585345eff56a598ff92549fb4e87", "addresses": ["3L34AKzCeAU3zE9fM6hfBvxrNuZZotRZs7"], "asm": "OP_HASH160 c93c738521aadc585345eff56a598ff92549fb4e OP_EQUAL", "type": "scripthash"}, "value": 0.01026425, "n": 0}, {"scriptPubKey": {"reqSigs": 1, "hex": "76a914d33925f27a29a2431d1b0a5bc0ffe36fb073559c88ac", "addresses": ["1LFr3CtPVcmPx9P7TdXB2Fv8DK2esqZyw9"], "asm": "OP_DUP OP_HASH160 d33925f27a29a2431d1b0a5bc0ffe36fb073559c OP_EQUALVERIFY OP_CHECKSIG", "type": "pubkeyhash"}, "value": 0.009052, "n": 1}], "hex": "02000000000101a6871ca0a224ed7ff4d8bb6a5b63aac7499df217df12087d3995aca933f704080000000017160014585e203d375016607f33fd8ba6aeeed8e0a63ad0fdffffff0279a90f000000000017a914c93c738521aadc585345eff56a598ff92549fb4e87f0cf0d00000000001976a914d33925f27a29a2431d1b0a5bc0ffe36fb073559c88ac0247304402202c6b99c0f84b4c940eb839b70c3532835c73af5f33f3fe55c83940c5ffa6a4f3022014960c98e3d6c1f9f1288d3b09f6d2fe5e0dbe024547f1d18eb740683123ee0b0121032be7d1097d71f915a019367fa0588e4ec79706d5842000c02d20a4f52e21b465bd480800", "vin": [{"txinwitness": ["304402202c6b99c0f84b4c940eb839b70c3532835c73af5f33f3fe55c83940c5ffa6a4f3022014960c98e3d6c1f9f1288d3b09f6d2fe5e0dbe024547f1d18eb740683123ee0b01", "032be7d1097d71f915a019367fa0588e4ec79706d5842000c02d20a4f52e21b465"], "sequence": 4294967293, "scriptSig": {"hex": "160014585e203d375016607f33fd8ba6aeeed8e0a63ad0", "asm": "0014585e203d375016607f33fd8ba6aeeed8e0a63ad0"}, "vout": 0, "txid": "0804f733a9ac95397d0812df17f29d49c7aa635b6abbd8f47fed24a2a01c87a6"}], "txid": "dda66c8cd3564f4daf7ac02c5b23697143b8ff46f9171cd6969f809350e9f4b3", "blocktime": 1537875543, "version": 2, "confirmations": 11464, "time": 1537875543, "locktime": 542909, "vsize": 168, "size": 249}