{"hash": "3d232897526c7fb93aa9f697424b636f2c115a71acb124eb6e9f4d887422e499", "blockhash": "0000000000000000000dcc0f55137456b1a82d3642486a52398922ac4d620174", "vout": [{"scriptPubKey": {"reqSigs": 1, "hex": "0014486ae66b37c7ade4a5b09e88181580c33c719186", "addresses": ["bc1qfp4wv6ehc7k7ffdsn6yps9vqcv78ryvx5hfq3r"], "asm": "0 486ae66b37c7ade4a5b09e88181580c33c719186", "type": "witness_v0_keyhash"}, "value": 6.88335634, "n": 0}, {"scriptPubKey": {"reqSigs": 1, "hex": "a9145e69bcfc2b0c550ea7016860ffc696304fdaae1287", "addresses": ["3AJE7PwWVKsgwUNi79jMKT6GfB4NnW9XGB"], "asm": "OP_HASH160 5e69bcfc2b0c550ea7016860ffc696304fdaae12 OP_EQUAL", "type": "scripthash"}, "value": 0.18020025, "n": 1}], "hex": "020000000001011c1029c1cef3d8a3ce61329577e887a01821d862e1e7f1ff0ab504e37e3592fc0000000000ffffffff02122b072900000000160014486ae66b37c7ade4a5b09e88181580c33c719186b9f612010000000017a9145e69bcfc2b0c550ea7016860ffc696304fdaae128702473044022065b32257a1b28f824148a010a3addce4f9aba05f2851ed659b8cb2b22cf629d0022049a5cb09e427aeddc52314ff2a5e002b856af7727311e1ac00b76225b3ace4d30121038e45ae9b91c764debddfd157a18a541deea524437854c82032fa955ccd54e6c000000000", "vin": [{"txinwitness": ["3044022065b32257a1b28f824148a010a3addce4f9aba05f2851ed659b8cb2b22cf629d0022049a5cb09e427aeddc52314ff2a5e002b856af7727311e1ac00b76225b3ace4d301", "038e45ae9b91c764debddfd157a18a541deea524437854c82032fa955ccd54e6c0"], "sequence": 4294967295, "scriptSig": {"hex": "", "asm": ""}, "vout": 0, "txid": "fc92357ee304b50afff1e7e162d82118a087e877953261cea3d8f3cec129101c"}], "txid": "ddaa3c1c06686da468a7bccdc64b9a7bd61c8845c002f708003b21e45d5796ca", "blocktime": 1537870268, "version": 2, "confirmations": 11516, "time": 1537870268, "locktime": 0, "vsize": 142, "size": 223}