{"hash": "ddb576c609d5b0d4b646c0b315ef0805015bf30162cbbdbb1a73f2545c44ccf0", "blockhash": "0000000000000000001cda96e906b7601b7a6fb1a3b62bca570a9e5d8f4b3de1", "vout": [{"scriptPubKey": {"reqSigs": 1, "hex": "76a9143e310a8925b341a6e20c1e1dc49d9dc2010ce51288ac", "addresses": ["16fqeLJ9zkAMdUoRmS8i2R47Nwf2pdmXA4"], "asm": "OP_DUP OP_HASH160 3e310a8925b341a6e20c1e1dc49d9dc2010ce512 OP_EQUALVERIFY OP_CHECKSIG", "type": "pubkeyhash"}, "value": 9.23e-06, "n": 0}, {"scriptPubKey": {"reqSigs": 1, "hex": "a91418d8328c8ac10f9f46d71c935326f025e10b43bf87", "addresses": ["33xP8oxFSkXGnMHrJaBKyzszxvrbuDcZaQ"], "asm": "OP_HASH160 18d8328c8ac10f9f46d71c935326f025e10b43bf OP_EQUAL", "type": "scripthash"}, "value": 0.00199851, "n": 1}], "hex": "0100000002bfcd849687ca91888ecc0b8c66532a52e86e89a8938d41a3e3338bc7572ff72b000000006b483045022100fa4eb2b34c2fd0719764b8ea4b59f86d17c247d50311b1130e0080747c58e572022055b181cf196cccb38aeae7eaa5d072972d71205ef8eb250547ad02aaf83e44b501210210bda62726645a71d9048d243e625465027ff9e00a6386252c167a4bb307447cfffffffff49ad4f613d5fcadf2ca455c95e3a12f95a0d8e9e00cc2ab3c77c46c624b4b80000000006a4730440220501a0cb3dcb3e61755bd7c8201f858dfb7c75a499f17520b5bcab85e08b7e2ca02202885f48d7082ffd435e23af678b7ae1ba3c5cbb31bb9f155711afb3bd2fbc6d501210330efc8a5f0db1d2146dedd5d6f39d36aa5ab2608299c77320ad6b8295c1907c9ffffffff029b030000000000001976a9143e310a8925b341a6e20c1e1dc49d9dc2010ce51288acab0c03000000000017a91418d8328c8ac10f9f46d71c935326f025e10b43bf8700000000", "vin": [{"sequence": 4294967295, "scriptSig": {"hex": "483045022100fa4eb2b34c2fd0719764b8ea4b59f86d17c247d50311b1130e0080747c58e572022055b181cf196cccb38aeae7eaa5d072972d71205ef8eb250547ad02aaf83e44b501210210bda62726645a71d9048d243e625465027ff9e00a6386252c167a4bb307447c", "asm": "3045022100fa4eb2b34c2fd0719764b8ea4b59f86d17c247d50311b1130e0080747c58e572022055b181cf196cccb38aeae7eaa5d072972d71205ef8eb250547ad02aaf83e44b5[ALL] 0210bda62726645a71d9048d243e625465027ff9e00a6386252c167a4bb307447c"}, "vout": 0, "txid": "2bf72f57c78b33e3a3418d93a8896ee8522a53668c0bcc8e8891ca879684cdbf"}, {"sequence": 4294967295, "scriptSig": {"hex": "4730440220501a0cb3dcb3e61755bd7c8201f858dfb7c75a499f17520b5bcab85e08b7e2ca02202885f48d7082ffd435e23af678b7ae1ba3c5cbb31bb9f155711afb3bd2fbc6d501210330efc8a5f0db1d2146dedd5d6f39d36aa5ab2608299c77320ad6b8295c1907c9", "asm": "30440220501a0cb3dcb3e61755bd7c8201f858dfb7c75a499f17520b5bcab85e08b7e2ca02202885f48d7082ffd435e23af678b7ae1ba3c5cbb31bb9f155711afb3bd2fbc6d5[ALL] 0330efc8a5f0db1d2146dedd5d6f39d36aa5ab2608299c77320ad6b8295c1907c9"}, "vout": 0, "txid": "804b4b626cc4773cabc20ce0e9d8a0952fa1e3955c45caf2adfcd513f6d49af4"}], "txid": "ddb576c609d5b0d4b646c0b315ef0805015bf30162cbbdbb1a73f2545c44ccf0", "blocktime": 1537873282, "version": 1, "confirmations": 11485, "time": 1537873282, "locktime": 0, "vsize": 371, "size": 371}