{"hash": "1081f485a2171c35018dfd52b7a3606b34870ebb828af3de5fa87650dfa11bb8", "blockhash": "0000000000000000001f76057863aec43deb6fa401d9628bb513d65a8098bfab", "vout": [{"scriptPubKey": {"reqSigs": 1, "hex": "76a9149a1b8f9b1fa2d2297863adb1cb11c71df455684888ac", "addresses": ["1F3r5We2zwNiSzG6GQUTTWnnPMCz2HJbJu"], "asm": "OP_DUP OP_HASH160 9a1b8f9b1fa2d2297863adb1cb11c71df4556848 OP_EQUALVERIFY OP_CHECKSIG", "type": "pubkeyhash"}, "value": 2.699e-05, "n": 0}, {"scriptPubKey": {"reqSigs": 1, "hex": "a9148ddb66c3371910a0ef8f38021cc4094e61e69f3a87", "addresses": ["3Ed62sPENkraPwpovPty9YMFGJ8FtTyv63"], "asm": "OP_HASH160 8ddb66c3371910a0ef8f38021cc4094e61e69f3a OP_EQUAL", "type": "scripthash"}, "value": 0.00032795, "n": 1}], "hex": "010000000001014ceaf37a245e06a90c5ea5ac27241ca6b64b696946e65329e6cdef93ae3e696c0100000023220020fdd23d707f55451c4e006c77b5e8df35a185a8e99f9bda70bf0ded7913bb1eb3ffffffff028b0a0000000000001976a9149a1b8f9b1fa2d2297863adb1cb11c71df455684888ac1b8000000000000017a9148ddb66c3371910a0ef8f38021cc4094e61e69f3a870400483045022100b9ffedc7f591afc3b191d46ff9434c912068aae594a26ba179557e5c6268667b022026d352f82920a97e9223c11f62a22e4171da9f7c5ad5b34d46d29a57f44424d2014730440220332a9a9021d91a374a5089a2a3fbd859884a09aa3c6c750b8f69b1ffd57bd48602201b494c4bb9c5f15299233dd2565b79735ceb23dd5d068f6bf0b90b9f56325bff014752210286c104577b978160849865bc23f9a6df9b53d41c8ffb486754b97b2a474a181c2103148c80a5bdfddb05ff5bcffc397c8ca748d8b435ec6a175bc9d7bfc7fc6f853752ae00000000", "vin": [{"txinwitness": ["", "3045022100b9ffedc7f591afc3b191d46ff9434c912068aae594a26ba179557e5c6268667b022026d352f82920a97e9223c11f62a22e4171da9f7c5ad5b34d46d29a57f44424d201", "30440220332a9a9021d91a374a5089a2a3fbd859884a09aa3c6c750b8f69b1ffd57bd48602201b494c4bb9c5f15299233dd2565b79735ceb23dd5d068f6bf0b90b9f56325bff01", "52210286c104577b978160849865bc23f9a6df9b53d41c8ffb486754b97b2a474a181c2103148c80a5bdfddb05ff5bcffc397c8ca748d8b435ec6a175bc9d7bfc7fc6f853752ae"], "sequence": 4294967295, "scriptSig": {"hex": "220020fdd23d707f55451c4e006c77b5e8df35a185a8e99f9bda70bf0ded7913bb1eb3", "asm": "0020fdd23d707f55451c4e006c77b5e8df35a185a8e99f9bda70bf0ded7913bb1eb3"}, "vout": 1, "txid": "6c693eae93efcde62953e64669694bb6a61c2427aca55e0ca9065e247af3ea4c"}], "txid": "ddc5089207d8c5ce40d022e068663518524d4c47e0583ba6b2755c80e260a185", "blocktime": 1537873891, "version": 1, "confirmations": 11478, "time": 1537873891, "locktime": 0, "vsize": 208, "size": 373}