{"hash": "ddc9c2cd4da40b93c6541121c59aa511ce314804f790541eace8d1c3861d8541", "blockhash": "00000000000000000004ffacab907a6b429b9a5745fa0b75af4234bf69dd7176", "vout": [{"scriptPubKey": {"reqSigs": 1, "hex": "76a91483b3290206d609aab8c0d8edebf223d332a5461f88ac", "addresses": ["1D1N9Q5GyuaV24iYe3q2LJ42jZMTGTAjq9"], "asm": "OP_DUP OP_HASH160 83b3290206d609aab8c0d8edebf223d332a5461f OP_EQUALVERIFY OP_CHECKSIG", "type": "pubkeyhash"}, "value": 1.57, "n": 0}, {"scriptPubKey": {"reqSigs": 1, "hex": "76a914bae025140c454518b8cba0c25d45a6dc87f4b9ce88ac", "addresses": ["1J37CY8hcdUXQ1KfBhMCsUVafa8XjDsdCn"], "asm": "OP_DUP OP_HASH160 bae025140c454518b8cba0c25d45a6dc87f4b9ce OP_EQUALVERIFY OP_CHECKSIG", "type": "pubkeyhash"}, "value": 0.20624592, "n": 1}], "hex": "0100000001614afbe7a13b66cd6de3f3765b5cadfb33855a1581c845197fec456c61277a82000000008a473044022044f2ffec0c3384e8a5f196da8f3b78d69637bfe6a61bb38a7676949641254a5502202d5289bd8b5e9d05e5bc915b147039b8f64be338904a8912d3ed2c656751a9d2014104115a69057db389ad45c4d53f74fdcdb870cd48d9f8b87492fbafb23f81abdb308eab148c1e53689541137fc99c1378ce28a4ebc6c880fbf75d23e08db3eef3fcffffffff0240a15b09000000001976a91483b3290206d609aab8c0d8edebf223d332a5461f88acd0b43a01000000001976a914bae025140c454518b8cba0c25d45a6dc87f4b9ce88ac00000000", "vin": [{"sequence": 4294967295, "scriptSig": {"hex": "473044022044f2ffec0c3384e8a5f196da8f3b78d69637bfe6a61bb38a7676949641254a5502202d5289bd8b5e9d05e5bc915b147039b8f64be338904a8912d3ed2c656751a9d2014104115a69057db389ad45c4d53f74fdcdb870cd48d9f8b87492fbafb23f81abdb308eab148c1e53689541137fc99c1378ce28a4ebc6c880fbf75d23e08db3eef3fc", "asm": "3044022044f2ffec0c3384e8a5f196da8f3b78d69637bfe6a61bb38a7676949641254a5502202d5289bd8b5e9d05e5bc915b147039b8f64be338904a8912d3ed2c656751a9d2[ALL] 04115a69057db389ad45c4d53f74fdcdb870cd48d9f8b87492fbafb23f81abdb308eab148c1e53689541137fc99c1378ce28a4ebc6c880fbf75d23e08db3eef3fc"}, "vout": 0, "txid": "827a27616c45ec7f1945c881155a8533fbad5c5b76f3e36dcd663ba1e7fb4a61"}], "txid": "ddc9c2cd4da40b93c6541121c59aa511ce314804f790541eace8d1c3861d8541", "blocktime": 1537875543, "version": 1, "confirmations": 11464, "time": 1537875543, "locktime": 0, "vsize": 257, "size": 257}