{"hash": "ddcbc3fc2b0afccd7f84845683f8d15fdacf363dfbf9722c38db0b7c6fefbfa4", "blockhash": "0000000000000000001f76057863aec43deb6fa401d9628bb513d65a8098bfab", "vout": [{"scriptPubKey": {"reqSigs": 1, "hex": "a91409e68aeee6dff90d2ab15459874d420a351aef3f87", "addresses": ["32bNBf95XfitsNMa1cTxrCvtsapVauqP1H"], "asm": "OP_HASH160 09e68aeee6dff90d2ab15459874d420a351aef3f OP_EQUAL", "type": "scripthash"}, "value": 0.01561968, "n": 0}, {"scriptPubKey": {"reqSigs": 1, "hex": "a914d18ef6d078459e68d267ed4132433d969571e5da87", "addresses": ["3Lo4QxUyMAnbepekryZ7BiTQ6ckkYmFDsz"], "asm": "OP_HASH160 d18ef6d078459e68d267ed4132433d969571e5da OP_EQUAL", "type": "scripthash"}, "value": 0.0153853, "n": 1}, {"scriptPubKey": {"reqSigs": 1, "hex": "76a9141e8f57ed34e45c2d486a548af08a2fc5988e731b88ac", "addresses": ["13nazS8mSN3sgKYPVQ9w8T8tbS6NdHKwWx"], "asm": "OP_DUP OP_HASH160 1e8f57ed34e45c2d486a548af08a2fc5988e731b OP_EQUALVERIFY OP_CHECKSIG", "type": "pubkeyhash"}, "value": 0.00013459, "n": 2}], "hex": "0100000001de222776f36a3417e06230d2214e6bfb53dee43ad8768262de812058b9a741c907000000da0047304402200f90325101ff4aa40c695e8dbbd8558849d70d98c121c6c5e5adc0ff588dee200220324becaf8b1f84c294f6d8ca779f7758cf6e26573834a389340dee0d877f185a01483045022100e0b4366bd376b4e0e1abdfe67db9b023e11c62d6476276cf3bdec26737c4f3710220324c4619355cd5337697bc489b5f2fbbf83e17604a0affd9dc906be5a52b2a2f0147522102907a54bed8ad74b3f35638c60114ca240a308cb986f3f2f306178869a8880b612102c5777a32deec9c2b093057f68a7b2a8f493b68fae03b66b9727bab006496c2aa52aeffffffff0370d517000000000017a91409e68aeee6dff90d2ab15459874d420a351aef3f87e27917000000000017a914d18ef6d078459e68d267ed4132433d969571e5da8793340000000000001976a9141e8f57ed34e45c2d486a548af08a2fc5988e731b88ac00000000", "vin": [{"sequence": 4294967295, "scriptSig": {"hex": "0047304402200f90325101ff4aa40c695e8dbbd8558849d70d98c121c6c5e5adc0ff588dee200220324becaf8b1f84c294f6d8ca779f7758cf6e26573834a389340dee0d877f185a01483045022100e0b4366bd376b4e0e1abdfe67db9b023e11c62d6476276cf3bdec26737c4f3710220324c4619355cd5337697bc489b5f2fbbf83e17604a0affd9dc906be5a52b2a2f0147522102907a54bed8ad74b3f35638c60114ca240a308cb986f3f2f306178869a8880b612102c5777a32deec9c2b093057f68a7b2a8f493b68fae03b66b9727bab006496c2aa52ae", "asm": "0 304402200f90325101ff4aa40c695e8dbbd8558849d70d98c121c6c5e5adc0ff588dee200220324becaf8b1f84c294f6d8ca779f7758cf6e26573834a389340dee0d877f185a[ALL] 3045022100e0b4366bd376b4e0e1abdfe67db9b023e11c62d6476276cf3bdec26737c4f3710220324c4619355cd5337697bc489b5f2fbbf83e17604a0affd9dc906be5a52b2a2f[ALL] 522102907a54bed8ad74b3f35638c60114ca240a308cb986f3f2f306178869a8880b612102c5777a32deec9c2b093057f68a7b2a8f493b68fae03b66b9727bab006496c2aa52ae"}, "vout": 7, "txid": "c941a7b9582081de628276d83ae4de53fb6b4e21d23062e017346af3762722de"}], "txid": "ddcbc3fc2b0afccd7f84845683f8d15fdacf363dfbf9722c38db0b7c6fefbfa4", "blocktime": 1537873891, "version": 1, "confirmations": 11478, "time": 1537873891, "locktime": 0, "vsize": 367, "size": 367}