{"hash": "ddd616e47f7238ea8c2354f3c69fcd170e1b85fcacf3957dbdfc7704482cf865", "blockhash": "000000000000000000205f8b0775d31398ef75b89a5e8ec8d2c57b4dc0ac4c20", "vout": [{"scriptPubKey": {"reqSigs": 1, "hex": "a91441e967cbb52a3e5946e1f5066b32989175ff233e87", "addresses": ["37hXTJoru2MsauV7dYwczAHSwyPDukJUb6"], "asm": "OP_HASH160 41e967cbb52a3e5946e1f5066b32989175ff233e OP_EQUAL", "type": "scripthash"}, "value": 0.00193643, "n": 0}], "hex": "01000000012742832fe26bffd582f2a0504e7158045c0b6266b5886574982ad627e1995880010000006a4730440220245b0a27a5718eb9a7c46a4b62a5531c807d561af5d3855b7f4cf9813de256c902204b5e6f7c64995ce07210d87e070e911db9996b340697e7ad77aae2031a53b7d30121034027a0f4112e6e56e656c075e52a0a08ffd43c1aeb18d84974c4c9e0b88154ccffffffff016bf402000000000017a91441e967cbb52a3e5946e1f5066b32989175ff233e8700000000", "vin": [{"sequence": 4294967295, "scriptSig": {"hex": "4730440220245b0a27a5718eb9a7c46a4b62a5531c807d561af5d3855b7f4cf9813de256c902204b5e6f7c64995ce07210d87e070e911db9996b340697e7ad77aae2031a53b7d30121034027a0f4112e6e56e656c075e52a0a08ffd43c1aeb18d84974c4c9e0b88154cc", "asm": "30440220245b0a27a5718eb9a7c46a4b62a5531c807d561af5d3855b7f4cf9813de256c902204b5e6f7c64995ce07210d87e070e911db9996b340697e7ad77aae2031a53b7d3[ALL] 034027a0f4112e6e56e656c075e52a0a08ffd43c1aeb18d84974c4c9e0b88154cc"}, "vout": 1, "txid": "805899e127d62a98746588b566620b5c0458714e50a0f282d5ff6be22f834227"}], "txid": "ddd616e47f7238ea8c2354f3c69fcd170e1b85fcacf3957dbdfc7704482cf865", "blocktime": 1537871175, "version": 1, "confirmations": 11511, "time": 1537871175, "locktime": 0, "vsize": 189, "size": 189}