{"hash": "ddd6fd73a7e9f6b442f2e80bf3910b2fab868d185704a5f6a0829bda76ce4057", "blockhash": "00000000000000000018f53835495a110e01622372bf6ae95dc86f2b0ab887b0", "vout": [{"scriptPubKey": {"reqSigs": 1, "hex": "76a91487d0a410ff6d597de9b739f07d03f7040fc880b188ac", "addresses": ["1DP8AX9voAdDuNjbRKGSJnT1baXQF9QkFf"], "asm": "OP_DUP OP_HASH160 87d0a410ff6d597de9b739f07d03f7040fc880b1 OP_EQUALVERIFY OP_CHECKSIG", "type": "pubkeyhash"}, "value": 0.0228, "n": 0}, {"scriptPubKey": {"reqSigs": 1, "hex": "a914e370231feecbfc25e2e2423a5a79bf79bfdca59887", "addresses": ["3NRbeX3vD5VaVE4TDU9ivCDsEf7NPPte6J"], "asm": "OP_HASH160 e370231feecbfc25e2e2423a5a79bf79bfdca598 OP_EQUAL", "type": "scripthash"}, "value": 11.64503698, "n": 1}], "hex": "0100000001f45d48e15b68bcf464340f49a8db2409499dfed11452bea61e68a8a2d43722ac01000000da00473044022060b036e35239d9d2647508d9ddd75bd8d2a47e9a9e32de191410abe7caf8de7b022076ed750c396c9ad234b83a106367d9fc55d762168d84fd0446b35a4f80dbf22701483045022100ce78650416a2418eebac925539fd14af85250abd27674a0709063c99caef397502204bc78338497c91c9d01f54a7d262900e7bfdbc32b396426918afdb06c953997c014752210327881b6abce6535553a3ce21fad12a7d74fd237ce7c4cd270a267162344e3082210256141f8eb687f5a68c5cc65054652dc25116fa285e44d72b44368827ffe77d9a52aeffffffff0240ca2200000000001976a91487d0a410ff6d597de9b739f07d03f7040fc880b188ac92ea68450000000017a914e370231feecbfc25e2e2423a5a79bf79bfdca5988700000000", "vin": [{"sequence": 4294967295, "scriptSig": {"hex": "00473044022060b036e35239d9d2647508d9ddd75bd8d2a47e9a9e32de191410abe7caf8de7b022076ed750c396c9ad234b83a106367d9fc55d762168d84fd0446b35a4f80dbf22701483045022100ce78650416a2418eebac925539fd14af85250abd27674a0709063c99caef397502204bc78338497c91c9d01f54a7d262900e7bfdbc32b396426918afdb06c953997c014752210327881b6abce6535553a3ce21fad12a7d74fd237ce7c4cd270a267162344e3082210256141f8eb687f5a68c5cc65054652dc25116fa285e44d72b44368827ffe77d9a52ae", "asm": "0 3044022060b036e35239d9d2647508d9ddd75bd8d2a47e9a9e32de191410abe7caf8de7b022076ed750c396c9ad234b83a106367d9fc55d762168d84fd0446b35a4f80dbf227[ALL] 3045022100ce78650416a2418eebac925539fd14af85250abd27674a0709063c99caef397502204bc78338497c91c9d01f54a7d262900e7bfdbc32b396426918afdb06c953997c[ALL] 52210327881b6abce6535553a3ce21fad12a7d74fd237ce7c4cd270a267162344e3082210256141f8eb687f5a68c5cc65054652dc25116fa285e44d72b44368827ffe77d9a52ae"}, "vout": 1, "txid": "ac2237d4a2a8681ea6be5214d1fe9d490924dba8490f3464f4bc685be1485df4"}], "txid": "ddd6fd73a7e9f6b442f2e80bf3910b2fab868d185704a5f6a0829bda76ce4057", "blocktime": 1537870928, "version": 1, "confirmations": 11514, "time": 1537870928, "locktime": 0, "vsize": 335, "size": 335}