{"hash": "ddd78a07279e4b96727ed48339edcbcc8ab8d2c6d17303a1147f9d2926b377fd", "blockhash": "00000000000000000017f5eb5941039fbcee6240d03bc1f2f8e35350df66a1d8", "vout": [{"scriptPubKey": {"type": "nulldata", "hex": "6a4c50000077f70001ccfeee89e73f9c4bfa7ba107d19ed074892d00f8e87af8e8e963c7cfd5b9275ab78f8dddb51bee1882bd3d39cc7f5baa18c90613c75d98c6dd151d100759d4ba30d2c37bb011d97e02cf", "asm": "OP_RETURN 000077f70001ccfeee89e73f9c4bfa7ba107d19ed074892d00f8e87af8e8e963c7cfd5b9275ab78f8dddb51bee1882bd3d39cc7f5baa18c90613c75d98c6dd151d100759d4ba30d2c37bb011d97e02cf"}, "value": 0.0, "n": 0}, {"scriptPubKey": {"reqSigs": 1, "hex": "76a914eeb69fb8e50cba54d22281b0be3365fbe540cfd188ac", "addresses": ["1NmCbb63kyApDVFokuLC3M7gk8Egi3mL3T"], "asm": "OP_DUP OP_HASH160 eeb69fb8e50cba54d22281b0be3365fbe540cfd1 OP_EQUALVERIFY OP_CHECKSIG", "type": "pubkeyhash"}, "value": 0.00632309, "n": 1}], "hex": "0100000001052f1ded65d37eaadbc10b21646d945e9c24d9464d1c611adb1a426d9dc9eb8f010000006b483045022100c635a0ab5fc948f51f4b3246791efa76941be0c64454b44894f54e5dca7afee4022035315d0dafcb3a61f226cb3d07b86ee9b9296bb746db21f295c511f7496938e3012102e8f49e7118d07c3cc7b5febd4f3290b150d57f2c71e320b098865e2bd77f5f5cffffffff020000000000000000536a4c50000077f70001ccfeee89e73f9c4bfa7ba107d19ed074892d00f8e87af8e8e963c7cfd5b9275ab78f8dddb51bee1882bd3d39cc7f5baa18c90613c75d98c6dd151d100759d4ba30d2c37bb011d97e02cff5a50900000000001976a914eeb69fb8e50cba54d22281b0be3365fbe540cfd188ac00000000", "vin": [{"sequence": 4294967295, "scriptSig": {"hex": "483045022100c635a0ab5fc948f51f4b3246791efa76941be0c64454b44894f54e5dca7afee4022035315d0dafcb3a61f226cb3d07b86ee9b9296bb746db21f295c511f7496938e3012102e8f49e7118d07c3cc7b5febd4f3290b150d57f2c71e320b098865e2bd77f5f5c", "asm": "3045022100c635a0ab5fc948f51f4b3246791efa76941be0c64454b44894f54e5dca7afee4022035315d0dafcb3a61f226cb3d07b86ee9b9296bb746db21f295c511f7496938e3[ALL] 02e8f49e7118d07c3cc7b5febd4f3290b150d57f2c71e320b098865e2bd77f5f5c"}, "vout": 1, "txid": "8febc99d6d421adb1a611c4d46d9249c5e946d64210bc1dbaa7ed365ed1d2f05"}], "txid": "ddd78a07279e4b96727ed48339edcbcc8ab8d2c6d17303a1147f9d2926b377fd", "blocktime": 1537874412, "version": 1, "confirmations": 11467, "time": 1537874412, "locktime": 0, "vsize": 284, "size": 284}