{"hash": "7cde1198c8e955cf9c810b72e0daa2374dc38c059e4defc6b51cab85871d1aed", "blockhash": "00000000000000000017f5eb5941039fbcee6240d03bc1f2f8e35350df66a1d8", "vout": [{"scriptPubKey": {"reqSigs": 1, "hex": "0014de70b19493550187c53f41e557994a5a7a20d5c4", "addresses": ["bc1qmectr9yn25qc03flg8j40x22tfazp4wy9f6dw5"], "asm": "0 de70b19493550187c53f41e557994a5a7a20d5c4", "type": "witness_v0_keyhash"}, "value": 0.01, "n": 0}, {"scriptPubKey": {"reqSigs": 1, "hex": "0014b5293267b85c348a73e0dba12707c9218668d93b", "addresses": ["bc1qk55nyeacts6g5ulqmwsjwp7fyxrx3kfmcpggx8"], "asm": "0 b5293267b85c348a73e0dba12707c9218668d93b", "type": "witness_v0_keyhash"}, "value": 0.07669738, "n": 1}], "hex": "0100000000010156162adf35351d86d2823281744db7059ae31408611fe1bcba54c4d566164f780300000000fdffffff0240420f0000000000160014de70b19493550187c53f41e557994a5a7a20d5c4ea07750000000000160014b5293267b85c348a73e0dba12707c9218668d93b02473044022003b34bb2dc8320e34ef7bd11fc84bb737fef5ef72e026e4aa263eb4c07042f3f0220594f36dc7bf05d45ac8ef5d9af1e2120ac8500b0caae7fb277669f5f2d824e450121035381de1e5a9a2c4d0435beaef7865e046670d065a8e8674f6494cc11a91d20cd00000000", "vin": [{"txinwitness": ["3044022003b34bb2dc8320e34ef7bd11fc84bb737fef5ef72e026e4aa263eb4c07042f3f0220594f36dc7bf05d45ac8ef5d9af1e2120ac8500b0caae7fb277669f5f2d824e4501", "035381de1e5a9a2c4d0435beaef7865e046670d065a8e8674f6494cc11a91d20cd"], "sequence": 4294967293, "scriptSig": {"hex": "", "asm": ""}, "vout": 3, "txid": "784f1666d5c454babce11f610814e39a05b74d74813282d2861d3535df2a1656"}], "txid": "ddd90172d5d1be71ddf8f3f4135ccdd6efd2abb10ca1c563f6a84176305a59b9", "blocktime": 1537874412, "version": 1, "confirmations": 11468, "time": 1537874412, "locktime": 0, "vsize": 141, "size": 222}