{"hash": "dddbf0d40129a297ce2cdc46a4b35341f93659aeabdec31aa5fb62da3b99cda0", "blockhash": "00000000000000000017f5eb5941039fbcee6240d03bc1f2f8e35350df66a1d8", "vout": [{"scriptPubKey": {"reqSigs": 1, "hex": "76a914ce4448e2618d1c1d77b1b3e305bcfe4f58c1ed0e88ac", "addresses": ["1Koe12FKXDrgjGFcomqpUd5kyBvvCzaHfm"], "asm": "OP_DUP OP_HASH160 ce4448e2618d1c1d77b1b3e305bcfe4f58c1ed0e OP_EQUALVERIFY OP_CHECKSIG", "type": "pubkeyhash"}, "value": 0.00101479, "n": 0}, {"scriptPubKey": {"reqSigs": 1, "hex": "76a9143baa5ea848dea9cca46c96c21b13ebef1f27142d88ac", "addresses": ["16SUxpLRjz7dhW52SVwQhxU8dYENLsydva"], "asm": "OP_DUP OP_HASH160 3baa5ea848dea9cca46c96c21b13ebef1f27142d OP_EQUALVERIFY OP_CHECKSIG", "type": "pubkeyhash"}, "value": 0.00483167, "n": 1}], "hex": "0100000001bd2377ddc7348ed906fc9013917a7b504ce2944f1409058347fc5127b5b0bf23000000006b4830450221009e713aac64729d2b5958d0ae55e39a0cf27776011b7f5282aecd0f5e8ea5fa12022015238284e5a8bb3a32d05fd1067c4bfb9a8bd78feed55ec0fd2f2660a1271881012102db397920303860f8ac378f76f7785eaf946e89255c7ea44d8976df8c87dc67aeffffffff02678c0100000000001976a914ce4448e2618d1c1d77b1b3e305bcfe4f58c1ed0e88ac5f5f0700000000001976a9143baa5ea848dea9cca46c96c21b13ebef1f27142d88ac00000000", "vin": [{"sequence": 4294967295, "scriptSig": {"hex": "4830450221009e713aac64729d2b5958d0ae55e39a0cf27776011b7f5282aecd0f5e8ea5fa12022015238284e5a8bb3a32d05fd1067c4bfb9a8bd78feed55ec0fd2f2660a1271881012102db397920303860f8ac378f76f7785eaf946e89255c7ea44d8976df8c87dc67ae", "asm": "30450221009e713aac64729d2b5958d0ae55e39a0cf27776011b7f5282aecd0f5e8ea5fa12022015238284e5a8bb3a32d05fd1067c4bfb9a8bd78feed55ec0fd2f2660a1271881[ALL] 02db397920303860f8ac378f76f7785eaf946e89255c7ea44d8976df8c87dc67ae"}, "vout": 0, "txid": "23bfb0b52751fc47830509144f94e24c507b7a911390fc06d98e34c7dd7723bd"}], "txid": "dddbf0d40129a297ce2cdc46a4b35341f93659aeabdec31aa5fb62da3b99cda0", "blocktime": 1537874412, "version": 1, "confirmations": 11468, "time": 1537874412, "locktime": 0, "vsize": 226, "size": 226}