{"hash": "dde550cbf3c4283c7a514ca0058fc74c391936874762696e1059f0faedc95af7", "blockhash": "00000000000000000004ffacab907a6b429b9a5745fa0b75af4234bf69dd7176", "vout": [{"scriptPubKey": {"type": "nulldata", "hex": "6a146f6d6e69000000000000001f000000102e85d700", "asm": "OP_RETURN 6f6d6e69000000000000001f000000102e85d700"}, "value": 0.0, "n": 0}, {"scriptPubKey": {"reqSigs": 1, "hex": "76a914f96c9ce8dade84571041652edd4a8f71e033164188ac", "addresses": ["1PjqNKp1JtwVtHCxqB8VBp1YjT628Lz2v6"], "asm": "OP_DUP OP_HASH160 f96c9ce8dade84571041652edd4a8f71e0331641 OP_EQUALVERIFY OP_CHECKSIG", "type": "pubkeyhash"}, "value": 6e-06, "n": 1}, {"scriptPubKey": {"reqSigs": 1, "hex": "76a9140e49b81f43f719255334d008a790ef674e2e72c288ac", "addresses": ["12JYmnfYU2ghzjwUAspzJsSnmJtK9bZPYR"], "asm": "OP_DUP OP_HASH160 0e49b81f43f719255334d008a790ef674e2e72c2 OP_EQUALVERIFY OP_CHECKSIG", "type": "pubkeyhash"}, "value": 0.07717656, "n": 2}, {"scriptPubKey": {"reqSigs": 1, "hex": "76a9141c265418aadbb9ecf72468290b5613b436a9717188ac", "addresses": ["13ZqqUyB9zjMKa1H1HPeqoB36pW9zQNBwg"], "asm": "OP_DUP OP_HASH160 1c265418aadbb9ecf72468290b5613b436a97171 OP_EQUALVERIFY OP_CHECKSIG", "type": "pubkeyhash"}, "value": 6e-06, "n": 3}], "hex": "0100000002ec47ea41eb1fbfb17e584c6fca672718130d1c6b138e2940e8127baaacd3b6ee010000006b483045022100b57d20f8e517d5b7a1f04dcf3d1cc583fc93492417fc344e9d72e688369c5b61022042454b553f2f5d14ae30bf3fea0b3aaa2f3a0bec55d661cbc75360490d7d48b60121025ac90c5c62726b379ee703fa269f8a8d04ca7c7739e77bda1a3b0bc744763db8ffffffff6a5d6e3a5df1d06ed134233c35395f905e1058358a38e6300328f36d9a7d9fb9020000006a473044022066c4e32130bd107fd12bc52f8e1a9ef7dda8100607ed0ca806865ea0e9e633ae02207fbf612375b5d4b7862e7bb7fb335d3469eddba40ef96978ce949c06a55a923f01210361f26bf6731f956d2e62ee98a7a9fc6f0d36efdc9e6916973e7986a5ba9d19c4ffffffff040000000000000000166a146f6d6e69000000000000001f000000102e85d70058020000000000001976a914f96c9ce8dade84571041652edd4a8f71e033164188ac18c37500000000001976a9140e49b81f43f719255334d008a790ef674e2e72c288ac58020000000000001976a9141c265418aadbb9ecf72468290b5613b436a9717188ac00000000", "vin": [{"sequence": 4294967295, "scriptSig": {"hex": "483045022100b57d20f8e517d5b7a1f04dcf3d1cc583fc93492417fc344e9d72e688369c5b61022042454b553f2f5d14ae30bf3fea0b3aaa2f3a0bec55d661cbc75360490d7d48b60121025ac90c5c62726b379ee703fa269f8a8d04ca7c7739e77bda1a3b0bc744763db8", "asm": "3045022100b57d20f8e517d5b7a1f04dcf3d1cc583fc93492417fc344e9d72e688369c5b61022042454b553f2f5d14ae30bf3fea0b3aaa2f3a0bec55d661cbc75360490d7d48b6[ALL] 025ac90c5c62726b379ee703fa269f8a8d04ca7c7739e77bda1a3b0bc744763db8"}, "vout": 1, "txid": "eeb6d3acaa7b12e840298e136b1c0d13182767ca6f4c587eb1bf1feb41ea47ec"}, {"sequence": 4294967295, "scriptSig": {"hex": "473044022066c4e32130bd107fd12bc52f8e1a9ef7dda8100607ed0ca806865ea0e9e633ae02207fbf612375b5d4b7862e7bb7fb335d3469eddba40ef96978ce949c06a55a923f01210361f26bf6731f956d2e62ee98a7a9fc6f0d36efdc9e6916973e7986a5ba9d19c4", "asm": "3044022066c4e32130bd107fd12bc52f8e1a9ef7dda8100607ed0ca806865ea0e9e633ae02207fbf612375b5d4b7862e7bb7fb335d3469eddba40ef96978ce949c06a55a923f[ALL] 0361f26bf6731f956d2e62ee98a7a9fc6f0d36efdc9e6916973e7986a5ba9d19c4"}, "vout": 2, "txid": "b99f7d9a6df3280330e6388a3558105e905f39353c2334d16ed0f15d3a6e5d6a"}], "txid": "dde550cbf3c4283c7a514ca0058fc74c391936874762696e1059f0faedc95af7", "blocktime": 1537875543, "version": 1, "confirmations": 11464, "time": 1537875543, "locktime": 0, "vsize": 438, "size": 438}