{"hash": "b9da3b658c030f5f219dde7d8c3cda13485da9b59be9cdaaf57f6414728898a6", "blockhash": "0000000000000000001cda96e906b7601b7a6fb1a3b62bca570a9e5d8f4b3de1", "vout": [{"scriptPubKey": {"reqSigs": 1, "hex": "00148aa86ea84e6d2ed1772d123af2797feeede69c41", "addresses": ["bc1q325xa2zwd5hdzaedzga0y7tlamk7d8zpmn8ua3"], "asm": "0 8aa86ea84e6d2ed1772d123af2797feeede69c41", "type": "witness_v0_keyhash"}, "value": 0.00896937, "n": 0}, {"scriptPubKey": {"reqSigs": 1, "hex": "0014cde551b8c928e517ad3e112a09f70dfa6840fc69", "addresses": ["bc1qehj4rwxf9rj30tf7zy4qnacdlf5yplrf37p02m"], "asm": "0 cde551b8c928e517ad3e112a09f70dfa6840fc69", "type": "witness_v0_keyhash"}, "value": 0.002219, "n": 1}], "hex": "01000000000101a22ad4d0db0209ede05b8aadbfabd1eac4aea53a13e3dd14ca74197239fefffb0000000000ffffffff02a9af0d00000000001600148aa86ea84e6d2ed1772d123af2797feeede69c41cc62030000000000160014cde551b8c928e517ad3e112a09f70dfa6840fc69024730440220217ee2e49c373bcd5b4bc61d19b628544e4a6b2be15ccbf97390d284016f3a7202203ec41a6ee065f5acc51f03959f531a1effcb15517ff299f2686610a341151038012102e1bcfa0abb78bafe26ecf0fcec5f5428e322ad58987c3d18df83fb017f7b522000000000", "vin": [{"txinwitness": ["30440220217ee2e49c373bcd5b4bc61d19b628544e4a6b2be15ccbf97390d284016f3a7202203ec41a6ee065f5acc51f03959f531a1effcb15517ff299f2686610a34115103801", "02e1bcfa0abb78bafe26ecf0fcec5f5428e322ad58987c3d18df83fb017f7b5220"], "sequence": 4294967295, "scriptSig": {"hex": "", "asm": ""}, "vout": 0, "txid": "fbfffe39721974ca14dde3133aa5aec4ead1abbfad8a5be0ed0902dbd0d42aa2"}], "txid": "dde7fb308846f62e4af03aa52f78cd5cbf5e4f194cb0a4eb8a03d2fcacae5917", "blocktime": 1537873282, "version": 1, "confirmations": 11485, "time": 1537873282, "locktime": 0, "vsize": 141, "size": 222}