{"hash": "dde987c1b00208df8049bc48f3b32b3f968c81ce381ee5beff3c2251610e01ac", "blockhash": "00000000000000000018f53835495a110e01622372bf6ae95dc86f2b0ab887b0", "vout": [{"scriptPubKey": {"reqSigs": 1, "hex": "76a9147e633d992692ce9974f610cf9548f436755f052e88ac", "addresses": ["1CXH2Xio3yBTZk3HDLtE96c68s61ETepCb"], "asm": "OP_DUP OP_HASH160 7e633d992692ce9974f610cf9548f436755f052e OP_EQUALVERIFY OP_CHECKSIG", "type": "pubkeyhash"}, "value": 0.01595365, "n": 0}, {"scriptPubKey": {"reqSigs": 1, "hex": "76a9146665befb4283f7696e2f3093a487da998be3378588ac", "addresses": ["1ALRp1F9mqpkLVoKdZJ2NPWC73E3LbR6Zr"], "asm": "OP_DUP OP_HASH160 6665befb4283f7696e2f3093a487da998be33785 OP_EQUALVERIFY OP_CHECKSIG", "type": "pubkeyhash"}, "value": 0.10692231, "n": 1}], "hex": "01000000010c355e81e93eded9f70f449c84b8d900a705b80a9afc6f0060530f35a8147790010000006b483045022100a212ab35481e71e9dac931928e5cf4633c6de441c6febaed59aa4455199097fd0220452ec9c182e9c994ccadcb5fa13cae79e6533d6aecbd3c68e570a8e6d027169b012102fc52368d62cb1edda2d70fa1100c1cf768029afbc8ce59872f0f0293ca436dd5fdffffff02e5571800000000001976a9147e633d992692ce9974f610cf9548f436755f052e88ac8726a300000000001976a9146665befb4283f7696e2f3093a487da998be3378588ac0e490800", "vin": [{"sequence": 4294967293, "scriptSig": {"hex": "483045022100a212ab35481e71e9dac931928e5cf4633c6de441c6febaed59aa4455199097fd0220452ec9c182e9c994ccadcb5fa13cae79e6533d6aecbd3c68e570a8e6d027169b012102fc52368d62cb1edda2d70fa1100c1cf768029afbc8ce59872f0f0293ca436dd5", "asm": "3045022100a212ab35481e71e9dac931928e5cf4633c6de441c6febaed59aa4455199097fd0220452ec9c182e9c994ccadcb5fa13cae79e6533d6aecbd3c68e570a8e6d027169b[ALL] 02fc52368d62cb1edda2d70fa1100c1cf768029afbc8ce59872f0f0293ca436dd5"}, "vout": 1, "txid": "907714a8350f5360006ffc9a0ab805a700d9b8849c440ff7d9de3ee9815e350c"}], "txid": "dde987c1b00208df8049bc48f3b32b3f968c81ce381ee5beff3c2251610e01ac", "blocktime": 1537870928, "version": 1, "confirmations": 11512, "time": 1537870928, "locktime": 542990, "vsize": 226, "size": 226}