{"hash": "ddf2c0974112bd8ac6d0c5ba7c3df0c0325bfb283ee039704eea48a769daae78", "blockhash": "0000000000000000001cda96e906b7601b7a6fb1a3b62bca570a9e5d8f4b3de1", "vout": [{"scriptPubKey": {"reqSigs": 1, "hex": "a914205407867c0fe4576c1c32178a4e52889019fc8787", "addresses": ["34dxD9V7SXZay8DjSAnwve8gYQRdNC2o1r"], "asm": "OP_HASH160 205407867c0fe4576c1c32178a4e52889019fc87 OP_EQUAL", "type": "scripthash"}, "value": 0.00637205, "n": 0}, {"scriptPubKey": {"reqSigs": 1, "hex": "76a914397a2201e66db95c5ba2404f33548d4805f8376288ac", "addresses": ["16EupsdXzpBHdbsCFKpZYAJLCvzzKtTk7Y"], "asm": "OP_DUP OP_HASH160 397a2201e66db95c5ba2404f33548d4805f83762 OP_EQUALVERIFY OP_CHECKSIG", "type": "pubkeyhash"}, "value": 0.00360555, "n": 1}], "hex": "01000000013ed8ef1c964f77a441001d074a4878b5a8ae073724ece1fc2f3c55350a4ac82b010000006b483045022100e279e1ee42790f106eb65922d6ffe77fb6fc6b7700bef769743228bb076f771402207d7c67c7dae1e553e2e9a29a90e4c3197e517f9c8e8a591ad50e901c6747984501210207e1dd36db8c490d1b7253a7b53d7ccef6b1cb86f46f80cef0e476c8c1e8667effffffff0215b909000000000017a914205407867c0fe4576c1c32178a4e52889019fc87876b800500000000001976a914397a2201e66db95c5ba2404f33548d4805f8376288ac00000000", "vin": [{"sequence": 4294967295, "scriptSig": {"hex": "483045022100e279e1ee42790f106eb65922d6ffe77fb6fc6b7700bef769743228bb076f771402207d7c67c7dae1e553e2e9a29a90e4c3197e517f9c8e8a591ad50e901c6747984501210207e1dd36db8c490d1b7253a7b53d7ccef6b1cb86f46f80cef0e476c8c1e8667e", "asm": "3045022100e279e1ee42790f106eb65922d6ffe77fb6fc6b7700bef769743228bb076f771402207d7c67c7dae1e553e2e9a29a90e4c3197e517f9c8e8a591ad50e901c67479845[ALL] 0207e1dd36db8c490d1b7253a7b53d7ccef6b1cb86f46f80cef0e476c8c1e8667e"}, "vout": 1, "txid": "2bc84a0a35553c2ffce1ec243707aea8b578484a071d0041a4774f961cefd83e"}], "txid": "ddf2c0974112bd8ac6d0c5ba7c3df0c0325bfb283ee039704eea48a769daae78", "blocktime": 1537873282, "version": 1, "confirmations": 11481, "time": 1537873282, "locktime": 0, "vsize": 224, "size": 224}