{"hash": "ddf4b09c6e93573d4c75293e7144d5155e2f8a9a44d1cc80c882e9cb335d5024", "blockhash": "0000000000000000001e0dab787dd257d1dbfcb92a98c2207d5e1078be1f4165", "vout": [{"scriptPubKey": {"reqSigs": 1, "hex": "a914a4a717cc77e012cfe62b24d0a6078006e59a53d487", "addresses": ["3Ghcuptuybn9RHpaNAaVdYyLZSumi8ctkZ"], "asm": "OP_HASH160 a4a717cc77e012cfe62b24d0a6078006e59a53d4 OP_EQUAL", "type": "scripthash"}, "value": 0.002346, "n": 0}, {"scriptPubKey": {"reqSigs": 1, "hex": "76a914e55cdd48a4f9807d61dcd463a3be44cd13ccc43d88ac", "addresses": ["1MukzG5uqFxUaziSRpTqNorF8bHX7YiKRz"], "asm": "OP_DUP OP_HASH160 e55cdd48a4f9807d61dcd463a3be44cd13ccc43d OP_EQUALVERIFY OP_CHECKSIG", "type": "pubkeyhash"}, "value": 0.02870673, "n": 1}], "hex": "0100000001790f782380720eb06902fbfd4554b9f4592e9242e2050b3ba011617daa14cf3c010000006a473044022046529e5234594eb5ebb8f8d2c3849c0d232e3c087fca840257c0d5d85ed511340220538eb7f2517ca507cb8b1b6b94c9992c11359903dd186ab4d418e1604b1ef7ed01210367697d68ace19f5b3dc9512553d3f3375c0853642638af3769a27dbc49761050ffffffff02689403000000000017a914a4a717cc77e012cfe62b24d0a6078006e59a53d48791cd2b00000000001976a914e55cdd48a4f9807d61dcd463a3be44cd13ccc43d88ac00000000", "vin": [{"sequence": 4294967295, "scriptSig": {"hex": "473044022046529e5234594eb5ebb8f8d2c3849c0d232e3c087fca840257c0d5d85ed511340220538eb7f2517ca507cb8b1b6b94c9992c11359903dd186ab4d418e1604b1ef7ed01210367697d68ace19f5b3dc9512553d3f3375c0853642638af3769a27dbc49761050", "asm": "3044022046529e5234594eb5ebb8f8d2c3849c0d232e3c087fca840257c0d5d85ed511340220538eb7f2517ca507cb8b1b6b94c9992c11359903dd186ab4d418e1604b1ef7ed[ALL] 0367697d68ace19f5b3dc9512553d3f3375c0853642638af3769a27dbc49761050"}, "vout": 1, "txid": "3ccf14aa7d6111a03b0b05e242922e59f4b95445fdfb0269b00e728023780f79"}], "txid": "ddf4b09c6e93573d4c75293e7144d5155e2f8a9a44d1cc80c882e9cb335d5024", "blocktime": 1537872475, "version": 1, "confirmations": 11487, "time": 1537872475, "locktime": 0, "vsize": 223, "size": 223}