{"hash": "ddf52cf7721382174c770f20c8cdf7cc59e3b15277ad713323bdd01ce8d7683d", "blockhash": "0000000000000000001cda96e906b7601b7a6fb1a3b62bca570a9e5d8f4b3de1", "vout": [{"scriptPubKey": {"reqSigs": 1, "hex": "76a9146aef8c4d23150f30b3326c2b3539573c6ff4c0d388ac", "addresses": ["1AkRbRcv2r1fofuHR1uHYnpjbGYZpZNSP4"], "asm": "OP_DUP OP_HASH160 6aef8c4d23150f30b3326c2b3539573c6ff4c0d3 OP_EQUALVERIFY OP_CHECKSIG", "type": "pubkeyhash"}, "value": 0.01169475, "n": 0}, {"scriptPubKey": {"reqSigs": 1, "hex": "76a9149184c13eb8e9fc74e26f42401069278c1353d8b488ac", "addresses": ["1EGS1nXp3a4Si1FEdRVFLh61hbGm1ejKPV"], "asm": "OP_DUP OP_HASH160 9184c13eb8e9fc74e26f42401069278c1353d8b4 OP_EQUALVERIFY OP_CHECKSIG", "type": "pubkeyhash"}, "value": 0.18880045, "n": 1}], "hex": "020000000121e4e9c2abbd8d61b3bf804b2558ded9db23a38daa3613b0830b728389b0ae46010000006a4730440220428fea647c9cbc8d58d988b39f997ffaa796fdbc31305a9eeaa643df44fcd4eb0220021aec75b821aa3603d0b0f513add02f0c20539ca5bdc32e776d04317918d7e8012103435f16773223d852109511fd38dbf5737e3cbb593601febfbf4a0bde7a122107feffffff0243d81100000000001976a9146aef8c4d23150f30b3326c2b3539573c6ff4c0d388ac2d162001000000001976a9149184c13eb8e9fc74e26f42401069278c1353d8b488ac13490800", "vin": [{"sequence": 4294967294, "scriptSig": {"hex": "4730440220428fea647c9cbc8d58d988b39f997ffaa796fdbc31305a9eeaa643df44fcd4eb0220021aec75b821aa3603d0b0f513add02f0c20539ca5bdc32e776d04317918d7e8012103435f16773223d852109511fd38dbf5737e3cbb593601febfbf4a0bde7a122107", "asm": "30440220428fea647c9cbc8d58d988b39f997ffaa796fdbc31305a9eeaa643df44fcd4eb0220021aec75b821aa3603d0b0f513add02f0c20539ca5bdc32e776d04317918d7e8[ALL] 03435f16773223d852109511fd38dbf5737e3cbb593601febfbf4a0bde7a122107"}, "vout": 1, "txid": "46aeb08983720b83b01336aa8da323dbd9de58254b80bfb3618dbdabc2e9e421"}], "txid": "ddf52cf7721382174c770f20c8cdf7cc59e3b15277ad713323bdd01ce8d7683d", "blocktime": 1537873282, "version": 2, "confirmations": 11485, "time": 1537873282, "locktime": 542995, "vsize": 225, "size": 225}