{"hash": "ddf5d0b0a246ca23c1895779fc0fdca496f00842c3c882822f67656e53e7863c", "blockhash": "00000000000000000004ffacab907a6b429b9a5745fa0b75af4234bf69dd7176", "vout": [{"scriptPubKey": {"reqSigs": 1, "hex": "76a914b6fba7bf4f6da1fd2f2ed59fbda92eadda04255e88ac", "addresses": ["1HgXTEBn6edZNSKcjpiRWKW7ptk27r16Ku"], "asm": "OP_DUP OP_HASH160 b6fba7bf4f6da1fd2f2ed59fbda92eadda04255e OP_EQUALVERIFY OP_CHECKSIG", "type": "pubkeyhash"}, "value": 0.00116094, "n": 0}, {"scriptPubKey": {"reqSigs": 1, "hex": "76a9144851a6c1c81827500ff05c23c2d25656183912b488ac", "addresses": ["17bPU3udvYacNZR5tD9jcwoCedeDT88B45"], "asm": "OP_DUP OP_HASH160 4851a6c1c81827500ff05c23c2d25656183912b4 OP_EQUALVERIFY OP_CHECKSIG", "type": "pubkeyhash"}, "value": 0.05231658, "n": 1}], "hex": "0100000001f19a537be1a76d1db67a2d06990fa3aa456bc22f2032585efd723e9768a941f1000000006b483045022100b795c3a8f00702b3206f55fa108d0cc7fde796fa5fc48e1f04727d84aa78d70e0220253d137530719400d121d85548e0f417022c06ca40fc991d64a8f8006891c927012103b73f52af84bcd5d5292fe30c7a81d9aa701f4e46785e0425d50e9b62d5b04e6dffffffff027ec50100000000001976a914b6fba7bf4f6da1fd2f2ed59fbda92eadda04255e88ac2ad44f00000000001976a9144851a6c1c81827500ff05c23c2d25656183912b488ac00000000", "vin": [{"sequence": 4294967295, "scriptSig": {"hex": "483045022100b795c3a8f00702b3206f55fa108d0cc7fde796fa5fc48e1f04727d84aa78d70e0220253d137530719400d121d85548e0f417022c06ca40fc991d64a8f8006891c927012103b73f52af84bcd5d5292fe30c7a81d9aa701f4e46785e0425d50e9b62d5b04e6d", "asm": "3045022100b795c3a8f00702b3206f55fa108d0cc7fde796fa5fc48e1f04727d84aa78d70e0220253d137530719400d121d85548e0f417022c06ca40fc991d64a8f8006891c927[ALL] 03b73f52af84bcd5d5292fe30c7a81d9aa701f4e46785e0425d50e9b62d5b04e6d"}, "vout": 0, "txid": "f141a968973e72fd5e5832202fc26b45aaa30f99062d7ab61d6da7e17b539af1"}], "txid": "ddf5d0b0a246ca23c1895779fc0fdca496f00842c3c882822f67656e53e7863c", "blocktime": 1537875543, "version": 1, "confirmations": 11464, "time": 1537875543, "locktime": 0, "vsize": 226, "size": 226}