{"hash": "ddf54dfb97ef98eaf9799498e01eeb36790b36abf3e1ae3745f51370ab78d7df", "blockhash": "00000000000000000017f5eb5941039fbcee6240d03bc1f2f8e35350df66a1d8", "vout": [{"scriptPubKey": {"reqSigs": 1, "hex": "76a914d8c49bb5c9bdf918eee54c5a5b22a83bd319c09e88ac", "addresses": ["1LmAV1uKhbKRnuvXLJ1iu1bWLBUh4j7wwg"], "asm": "OP_DUP OP_HASH160 d8c49bb5c9bdf918eee54c5a5b22a83bd319c09e OP_EQUALVERIFY OP_CHECKSIG", "type": "pubkeyhash"}, "value": 0.47, "n": 0}, {"scriptPubKey": {"reqSigs": 1, "hex": "76a9142450e86c7eadeb22ddee6862079bc26d48b2be3288ac", "addresses": ["14K2FVAyDpMPXWhWZAnKk6LHVjjVm6ZThe"], "asm": "OP_DUP OP_HASH160 2450e86c7eadeb22ddee6862079bc26d48b2be32 OP_EQUALVERIFY OP_CHECKSIG", "type": "pubkeyhash"}, "value": 3.84480756, "n": 1}], "hex": "0100000001ed23f856e155950abdaee62e094cfc6f86dde766c218543c4b982e210649f1cb010000006b483045022100dd8339922372026d24c99d357ad2cc1a5e216d6dbe8e3f8955ccd2620f6f59f602204afd35d31f70abb3c143e55e277ba859ec0879cdc286c814b88508eaa7d32e9d012103edd9755f8252fda358db30cef6f52926d9a238d4f62b2e4ea6943b47f8e48fdcffffffff02c029cd02000000001976a914d8c49bb5c9bdf918eee54c5a5b22a83bd319c09e88acf4b5ea16000000001976a9142450e86c7eadeb22ddee6862079bc26d48b2be3288ac00000000", "vin": [{"sequence": 4294967295, "scriptSig": {"hex": "483045022100dd8339922372026d24c99d357ad2cc1a5e216d6dbe8e3f8955ccd2620f6f59f602204afd35d31f70abb3c143e55e277ba859ec0879cdc286c814b88508eaa7d32e9d012103edd9755f8252fda358db30cef6f52926d9a238d4f62b2e4ea6943b47f8e48fdc", "asm": "3045022100dd8339922372026d24c99d357ad2cc1a5e216d6dbe8e3f8955ccd2620f6f59f602204afd35d31f70abb3c143e55e277ba859ec0879cdc286c814b88508eaa7d32e9d[ALL] 03edd9755f8252fda358db30cef6f52926d9a238d4f62b2e4ea6943b47f8e48fdc"}, "vout": 1, "txid": "cbf14906212e984b3c5418c266e7dd866ffc4c092ee6aebd0a9555e156f823ed"}], "txid": "ddf54dfb97ef98eaf9799498e01eeb36790b36abf3e1ae3745f51370ab78d7df", "blocktime": 1537874412, "version": 1, "confirmations": 11468, "time": 1537874412, "locktime": 0, "vsize": 226, "size": 226}