{"hash": "ddfac39476a8cb89c0a09aafeb855f6c13e1aa2a421e2d02aab01d8acc42fb09", "blockhash": "000000000000000000022b45ed06c6f4ccd3cf7fb5ba4856ebd2e58215665228", "vout": [{"scriptPubKey": {"type": "nulldata", "hex": "6a146f6d6e69000000000000001f0000000fefb31380", "asm": "OP_RETURN 6f6d6e69000000000000001f0000000fefb31380"}, "value": 0.0, "n": 0}, {"scriptPubKey": {"reqSigs": 1, "hex": "76a91450bf7bd1dcf56c24a6245df87ba4938c319888fb88ac", "addresses": ["18MxSsBL1JHG8kDBXyDJBcZ7XcFM3iPpTr"], "asm": "OP_DUP OP_HASH160 50bf7bd1dcf56c24a6245df87ba4938c319888fb OP_EQUALVERIFY OP_CHECKSIG", "type": "pubkeyhash"}, "value": 0.00250994, "n": 1}, {"scriptPubKey": {"reqSigs": 1, "hex": "76a914a25dec4d0011064ef106a983c39c7a540699f22088ac", "addresses": ["1FoWyxwPXuj4C6abqwhjDWdz6D4PZgYRjA"], "asm": "OP_DUP OP_HASH160 a25dec4d0011064ef106a983c39c7a540699f220 OP_EQUALVERIFY OP_CHECKSIG", "type": "pubkeyhash"}, "value": 5.46e-06, "n": 2}], "hex": "0100000004ecb238aedaa3001eb87eaeb7f9001a1d3c6e9988afebcdc3bc85508b3d403881020000006a473044022076629f818ffde1cfc752cb1ee6049b428fcb46309feb0d4ba06a0e514f7d39ff022037652265d57da7080dda36a9e37ee1cfc3ca43edfc13b79e941b9c2f51c7c72a01210333732843f12c5ceda29852dca1f664ce2c3738fdf903bd39ba82675d03f41631feffffffef85dab7c89e9404a92cd9a1b4c37975e8a84f8aeb213ace33c8cabe06220443010000006a473044022008379f2fabe4b053177d43f3680ce6766c6c0d02cd7f9dc11dc59505c34533da022079b182fdf0321eef8c827ed92399dd9b67e1d27e236bbe1e03e6cd5f5f51a4ca01210333732843f12c5ceda29852dca1f664ce2c3738fdf903bd39ba82675d03f41631feffffff1ee925584496684f8cb4c552b374550b1fa72f3d5e7684bd2a42c0349fe2e514020000006b483045022100f48b2cf9301e0d0ded39c6bdf971185a372ed035ca3b1a49ce9a0cd363d840480220490fd9daa2c0d2627de243785a77ab31506e145975f2dfd833bb7789800c2fb201210333732843f12c5ceda29852dca1f664ce2c3738fdf903bd39ba82675d03f41631feffffffdc6192afe1856368fe952f41dfcf82f2cfa40ca6257c71d945786df9dce80d52010000006a4730440220361e2097adcd174ca1e26f159bbf48b8c7bb9c670011002bcb70e5a99165651f022015732f9f6e288946b040994dcf226a5d0cecb0fea8a187919bad5eff1ab13c7b01210333732843f12c5ceda29852dca1f664ce2c3738fdf903bd39ba82675d03f41631feffffff030000000000000000166a146f6d6e69000000000000001f0000000fefb3138072d40300000000001976a91450bf7bd1dcf56c24a6245df87ba4938c319888fb88ac22020000000000001976a914a25dec4d0011064ef106a983c39c7a540699f22088ac0b490800", "vin": [{"sequence": 4294967294, "scriptSig": {"hex": "473044022076629f818ffde1cfc752cb1ee6049b428fcb46309feb0d4ba06a0e514f7d39ff022037652265d57da7080dda36a9e37ee1cfc3ca43edfc13b79e941b9c2f51c7c72a01210333732843f12c5ceda29852dca1f664ce2c3738fdf903bd39ba82675d03f41631", "asm": "3044022076629f818ffde1cfc752cb1ee6049b428fcb46309feb0d4ba06a0e514f7d39ff022037652265d57da7080dda36a9e37ee1cfc3ca43edfc13b79e941b9c2f51c7c72a[ALL] 0333732843f12c5ceda29852dca1f664ce2c3738fdf903bd39ba82675d03f41631"}, "vout": 2, "txid": "8138403d8b5085bcc3cdebaf88996e3c1d1a00f9b7ae7eb81e00a3daae38b2ec"}, {"sequence": 4294967294, "scriptSig": {"hex": "473044022008379f2fabe4b053177d43f3680ce6766c6c0d02cd7f9dc11dc59505c34533da022079b182fdf0321eef8c827ed92399dd9b67e1d27e236bbe1e03e6cd5f5f51a4ca01210333732843f12c5ceda29852dca1f664ce2c3738fdf903bd39ba82675d03f41631", "asm": "3044022008379f2fabe4b053177d43f3680ce6766c6c0d02cd7f9dc11dc59505c34533da022079b182fdf0321eef8c827ed92399dd9b67e1d27e236bbe1e03e6cd5f5f51a4ca[ALL] 0333732843f12c5ceda29852dca1f664ce2c3738fdf903bd39ba82675d03f41631"}, "vout": 1, "txid": "43042206becac833ce3a21eb8a4fa8e87579c3b4a1d92ca904949ec8b7da85ef"}, {"sequence": 4294967294, "scriptSig": {"hex": "483045022100f48b2cf9301e0d0ded39c6bdf971185a372ed035ca3b1a49ce9a0cd363d840480220490fd9daa2c0d2627de243785a77ab31506e145975f2dfd833bb7789800c2fb201210333732843f12c5ceda29852dca1f664ce2c3738fdf903bd39ba82675d03f41631", "asm": "3045022100f48b2cf9301e0d0ded39c6bdf971185a372ed035ca3b1a49ce9a0cd363d840480220490fd9daa2c0d2627de243785a77ab31506e145975f2dfd833bb7789800c2fb2[ALL] 0333732843f12c5ceda29852dca1f664ce2c3738fdf903bd39ba82675d03f41631"}, "vout": 2, "txid": "14e5e29f34c0422abd84765e3d2fa71f0b5574b352c5b48c4f6896445825e91e"}, {"sequence": 4294967294, "scriptSig": {"hex": "4730440220361e2097adcd174ca1e26f159bbf48b8c7bb9c670011002bcb70e5a99165651f022015732f9f6e288946b040994dcf226a5d0cecb0fea8a187919bad5eff1ab13c7b01210333732843f12c5ceda29852dca1f664ce2c3738fdf903bd39ba82675d03f41631", "asm": "30440220361e2097adcd174ca1e26f159bbf48b8c7bb9c670011002bcb70e5a99165651f022015732f9f6e288946b040994dcf226a5d0cecb0fea8a187919bad5eff1ab13c7b[ALL] 0333732843f12c5ceda29852dca1f664ce2c3738fdf903bd39ba82675d03f41631"}, "vout": 1, "txid": "520de8dcf96d7845d9717c25a60ca4cff282cfdf412f95fe686385e1af9261dc"}], "txid": "ddfac39476a8cb89c0a09aafeb855f6c13e1aa2a421e2d02aab01d8acc42fb09", "blocktime": 1537869901, "version": 1, "confirmations": 11524, "time": 1537869901, "locktime": 542987, "vsize": 698, "size": 698}