{"hash": "ddfa92bf9a40091dc95431e5c68260659a5e4665a21b59ee0fae2dee9760ffdc", "blockhash": "00000000000000000017f5eb5941039fbcee6240d03bc1f2f8e35350df66a1d8", "vout": [{"scriptPubKey": {"reqSigs": 1, "hex": "76a9142cd1e8bcac236fcf3f1ffc887a605e20671508dc88ac", "addresses": ["155zCBawXcr5gYL6nmX9KcFsnLaz49fJTc"], "asm": "OP_DUP OP_HASH160 2cd1e8bcac236fcf3f1ffc887a605e20671508dc OP_EQUALVERIFY OP_CHECKSIG", "type": "pubkeyhash"}, "value": 0.08601706, "n": 0}, {"scriptPubKey": {"reqSigs": 1, "hex": "76a914e5a29c5ed9eaf03bc833a1d9f7a5f3f22ca3444388ac", "addresses": ["1MwCYKycizBu99i4Qe2GdGaFTyaphF3UjG"], "asm": "OP_DUP OP_HASH160 e5a29c5ed9eaf03bc833a1d9f7a5f3f22ca34443 OP_EQUALVERIFY OP_CHECKSIG", "type": "pubkeyhash"}, "value": 0.09054868, "n": 1}], "hex": "0100000004d584bf5ccb5dd6bcd68b70b4f9e4f8c8ef0c5d1a897867987d2133ca0c4f3833000000006a473044022043c2cee037614db7906df48b169fcaffcc67078a237e6c76cc9a5337250a622d02206b0492066bcd97167df5c1446652908f9a870d132d5a00e8cb0e23df19436fc8012102e4180337bdfe482d6e494ed06f086e04c499462f96ccf1f2f6c21efb765bd26cffffffff59f513b05a9cc15fce723cd045c6b962bd03f631a590309976b841cc900ca43d010000006b483045022100f16d7a0bf71a2690c28536bea33a112f1ae14d49d1a34243f33279c9a1bf4da8022066f0e57bd92831924ef852e2de590564235b2c09a0070849570c0470f200f1370121027303a715153d01f7b3bf0933adcb85b1676f538ec76f12ca4987aa64ce7ccd2fffffffff4a43ed36a526c3d20afc1dac461e4fe036fa3c99122c3deb9854d8bb3fbfa373000000006b483045022100902d7a3a04d34b59fcfa64aa51f26e89755e4134c93bfbf9a04c0a29262544350220364f4176ab697c8d0d12c081913318c1e3f755b99dc5922ff1dbab32824a991b012102e4180337bdfe482d6e494ed06f086e04c499462f96ccf1f2f6c21efb765bd26cffffffff45d8b5812de13e88a1d8f012cb4201b3c6e7823ab56cdd07925c4bb03349f7ea010000006a4730440220680b96529d8f1dcf4a1a2c839a486a5886c88c63dcb3b781d4bb06bf34e945e202203f8cda256b33d70ec2e5f43160ea360f9e410d67291af7594537279ebeaccbc3012102e4180337bdfe482d6e494ed06f086e04c499462f96ccf1f2f6c21efb765bd26cffffffff026a408300000000001976a9142cd1e8bcac236fcf3f1ffc887a605e20671508dc88ac942a8a00000000001976a914e5a29c5ed9eaf03bc833a1d9f7a5f3f22ca3444388ac00000000", "vin": [{"sequence": 4294967295, "scriptSig": {"hex": "473044022043c2cee037614db7906df48b169fcaffcc67078a237e6c76cc9a5337250a622d02206b0492066bcd97167df5c1446652908f9a870d132d5a00e8cb0e23df19436fc8012102e4180337bdfe482d6e494ed06f086e04c499462f96ccf1f2f6c21efb765bd26c", "asm": "3044022043c2cee037614db7906df48b169fcaffcc67078a237e6c76cc9a5337250a622d02206b0492066bcd97167df5c1446652908f9a870d132d5a00e8cb0e23df19436fc8[ALL] 02e4180337bdfe482d6e494ed06f086e04c499462f96ccf1f2f6c21efb765bd26c"}, "vout": 0, "txid": "33384f0cca33217d986778891a5d0cefc8f8e4f9b4708bd6bcd65dcb5cbf84d5"}, {"sequence": 4294967295, "scriptSig": {"hex": "483045022100f16d7a0bf71a2690c28536bea33a112f1ae14d49d1a34243f33279c9a1bf4da8022066f0e57bd92831924ef852e2de590564235b2c09a0070849570c0470f200f1370121027303a715153d01f7b3bf0933adcb85b1676f538ec76f12ca4987aa64ce7ccd2f", "asm": "3045022100f16d7a0bf71a2690c28536bea33a112f1ae14d49d1a34243f33279c9a1bf4da8022066f0e57bd92831924ef852e2de590564235b2c09a0070849570c0470f200f137[ALL] 027303a715153d01f7b3bf0933adcb85b1676f538ec76f12ca4987aa64ce7ccd2f"}, "vout": 1, "txid": "3da40c90cc41b876993090a531f603bd62b9c645d03c72ce5fc19c5ab013f559"}, {"sequence": 4294967295, "scriptSig": {"hex": "483045022100902d7a3a04d34b59fcfa64aa51f26e89755e4134c93bfbf9a04c0a29262544350220364f4176ab697c8d0d12c081913318c1e3f755b99dc5922ff1dbab32824a991b012102e4180337bdfe482d6e494ed06f086e04c499462f96ccf1f2f6c21efb765bd26c", "asm": "3045022100902d7a3a04d34b59fcfa64aa51f26e89755e4134c93bfbf9a04c0a29262544350220364f4176ab697c8d0d12c081913318c1e3f755b99dc5922ff1dbab32824a991b[ALL] 02e4180337bdfe482d6e494ed06f086e04c499462f96ccf1f2f6c21efb765bd26c"}, "vout": 0, "txid": "73a3bf3fbbd85498eb3d2c12993cfa36e04f1e46ac1dfc0ad2c326a536ed434a"}, {"sequence": 4294967295, "scriptSig": {"hex": "4730440220680b96529d8f1dcf4a1a2c839a486a5886c88c63dcb3b781d4bb06bf34e945e202203f8cda256b33d70ec2e5f43160ea360f9e410d67291af7594537279ebeaccbc3012102e4180337bdfe482d6e494ed06f086e04c499462f96ccf1f2f6c21efb765bd26c", "asm": "30440220680b96529d8f1dcf4a1a2c839a486a5886c88c63dcb3b781d4bb06bf34e945e202203f8cda256b33d70ec2e5f43160ea360f9e410d67291af7594537279ebeaccbc3[ALL] 02e4180337bdfe482d6e494ed06f086e04c499462f96ccf1f2f6c21efb765bd26c"}, "vout": 1, "txid": "eaf74933b04b5c9207dd6cb53a82e7c6b30142cb12f0d8a1883ee12d81b5d845"}], "txid": "ddfa92bf9a40091dc95431e5c68260659a5e4665a21b59ee0fae2dee9760ffdc", "blocktime": 1537874412, "version": 1, "confirmations": 11467, "time": 1537874412, "locktime": 0, "vsize": 668, "size": 668}