{"hash": "de01ba899b105ad0b646b923b986dcfdda00748303d3d8879ae7259ef1ba06b8", "blockhash": "0000000000000000000e13cef7c366c0283d82e591d1acd082e914b08063cdf1", "vout": [{"scriptPubKey": {"reqSigs": 1, "hex": "76a91486e5514d80a7ee1ba450272ee9ba16078fa2589388ac", "addresses": ["1DJGFyJMwu1AkrJzfEPznTju1kvksNKrQA"], "asm": "OP_DUP OP_HASH160 86e5514d80a7ee1ba450272ee9ba16078fa25893 OP_EQUALVERIFY OP_CHECKSIG", "type": "pubkeyhash"}, "value": 0.49, "n": 0}, {"scriptPubKey": {"reqSigs": 1, "hex": "76a9140e9bacab02627580e190a55519340a653ee1b07188ac", "addresses": ["12LEx92fjKd9HYmYNsnkUcbiMfzYJ2qDLP"], "asm": "OP_DUP OP_HASH160 0e9bacab02627580e190a55519340a653ee1b071 OP_EQUALVERIFY OP_CHECKSIG", "type": "pubkeyhash"}, "value": 3.994437, "n": 1}], "hex": "0100000001950b377b2bf6f09d88c86cc079d12b059cf9cad22b15100115936dab5cde4b3d000000006a473044022050a7aad651c494717342a33d3a0e8ee38f804d609ffc23d3ed59b7caaaa71507022009d8c49a76dda07353fe9868cbccce0ec27df78d691d70608bbdfcd015399bec0121028c1d168564365af863b100d66413e90c40627b81822e03b2d48cc7aa20bef8cbfdffffff0240aeeb02000000001976a91486e5514d80a7ee1ba450272ee9ba16078fa2589388acf406cf17000000001976a9140e9bacab02627580e190a55519340a653ee1b07188ac00000000", "vin": [{"sequence": 4294967293, "scriptSig": {"hex": "473044022050a7aad651c494717342a33d3a0e8ee38f804d609ffc23d3ed59b7caaaa71507022009d8c49a76dda07353fe9868cbccce0ec27df78d691d70608bbdfcd015399bec0121028c1d168564365af863b100d66413e90c40627b81822e03b2d48cc7aa20bef8cb", "asm": "3044022050a7aad651c494717342a33d3a0e8ee38f804d609ffc23d3ed59b7caaaa71507022009d8c49a76dda07353fe9868cbccce0ec27df78d691d70608bbdfcd015399bec[ALL] 028c1d168564365af863b100d66413e90c40627b81822e03b2d48cc7aa20bef8cb"}, "vout": 0, "txid": "3d4bde5cab6d93150110152bd2caf99c052bd179c06cc8889df0f62b7b370b95"}], "txid": "de01ba899b105ad0b646b923b986dcfdda00748303d3d8879ae7259ef1ba06b8", "blocktime": 1537871767, "version": 1, "confirmations": 11490, "time": 1537871767, "locktime": 0, "vsize": 225, "size": 225}