{"hash": "de0394ca054a26829b86662bb7e9003a91c5168ee2c95600a4ff59d11bc8d053", "blockhash": "00000000000000000017f5eb5941039fbcee6240d03bc1f2f8e35350df66a1d8", "vout": [{"scriptPubKey": {"reqSigs": 1, "hex": "a9144dbd6ef3960f6baf1e49f212b9f64ec55209e87287", "addresses": ["38n4tNu7FLfvkG66rCuKT1AF3UfaX13Lwy"], "asm": "OP_HASH160 4dbd6ef3960f6baf1e49f212b9f64ec55209e872 OP_EQUAL", "type": "scripthash"}, "value": 0.0033246, "n": 0}, {"scriptPubKey": {"reqSigs": 1, "hex": "76a914a3f8fb7f79903acea2eb2704e551b5dfb1e90d4488ac", "addresses": ["1Fx1QsSrpKt3vYG9ia6uPmHNAjMEn5YVXh"], "asm": "OP_DUP OP_HASH160 a3f8fb7f79903acea2eb2704e551b5dfb1e90d44 OP_EQUALVERIFY OP_CHECKSIG", "type": "pubkeyhash"}, "value": 0.02487869, "n": 1}], "hex": "0100000001adfc582619ffa558fe8df5a288c93160ab5cc18e5b3178642fa20c0edc7589fd010000006a47304402205d129f3a18c19f5eb0b3f38470918aa0eb58326b934292656367111d5146a03102200c32f766367a21e28eeaf7e4defc703552f9fa08197fa24d1ac5de3677f40516012102a3be525d5fdb222235b5a4d15bc165d2bdd495d1dfcb21fb2c5fb4ba98b914dcffffffff02ac1205000000000017a9144dbd6ef3960f6baf1e49f212b9f64ec55209e872873df62500000000001976a914a3f8fb7f79903acea2eb2704e551b5dfb1e90d4488ac00000000", "vin": [{"sequence": 4294967295, "scriptSig": {"hex": "47304402205d129f3a18c19f5eb0b3f38470918aa0eb58326b934292656367111d5146a03102200c32f766367a21e28eeaf7e4defc703552f9fa08197fa24d1ac5de3677f40516012102a3be525d5fdb222235b5a4d15bc165d2bdd495d1dfcb21fb2c5fb4ba98b914dc", "asm": "304402205d129f3a18c19f5eb0b3f38470918aa0eb58326b934292656367111d5146a03102200c32f766367a21e28eeaf7e4defc703552f9fa08197fa24d1ac5de3677f40516[ALL] 02a3be525d5fdb222235b5a4d15bc165d2bdd495d1dfcb21fb2c5fb4ba98b914dc"}, "vout": 1, "txid": "fd8975dc0e0ca22f6478315b8ec15cab6031c988a2f58dfe58a5ff192658fcad"}], "txid": "de0394ca054a26829b86662bb7e9003a91c5168ee2c95600a4ff59d11bc8d053", "blocktime": 1537874412, "version": 1, "confirmations": 11467, "time": 1537874412, "locktime": 0, "vsize": 223, "size": 223}