{"hash": "de03626248559beac35c4c061d8b329a971aa46758cd2e5326bd309a8b09d40c", "blockhash": "000000000000000000022b45ed06c6f4ccd3cf7fb5ba4856ebd2e58215665228", "vout": [{"scriptPubKey": {"reqSigs": 1, "hex": "76a9141d9066e2a9cfc253eb7a64d761b2d169624ebe8588ac", "addresses": ["13hKanQ4eznQcHyRh6A7wRaWp1apDgNycU"], "asm": "OP_DUP OP_HASH160 1d9066e2a9cfc253eb7a64d761b2d169624ebe85 OP_EQUALVERIFY OP_CHECKSIG", "type": "pubkeyhash"}, "value": 0.00012142, "n": 0}, {"scriptPubKey": {"reqSigs": 1, "hex": "76a914e08633a4886b8e5c2e004cad0cce323b3c9de87088ac", "addresses": ["1MUB8UErmwXvT8a7gwHGbsVyMH9fDG4iWe"], "asm": "OP_DUP OP_HASH160 e08633a4886b8e5c2e004cad0cce323b3c9de870 OP_EQUALVERIFY OP_CHECKSIG", "type": "pubkeyhash"}, "value": 0.00624183, "n": 1}], "hex": "0100000001e92823eb2e8d3671637aa4ece47ac15a624247a4e0636f7ceb62a9695621eeb0000000006b483045022100a174fe26531adfc2286af6234a4adc37ddcb8368122fb5a6c343fda7c97563d602207c67b2627e83c24bcae51b66ff1810787e83465e34743926d636313a6f407d4d012102118463003416b3923de78a8decd6d3dab16c364022b0312242bcecb4a3a4a457ffffffff026e2f0000000000001976a9141d9066e2a9cfc253eb7a64d761b2d169624ebe8588ac37860900000000001976a914e08633a4886b8e5c2e004cad0cce323b3c9de87088ac00000000", "vin": [{"sequence": 4294967295, "scriptSig": {"hex": "483045022100a174fe26531adfc2286af6234a4adc37ddcb8368122fb5a6c343fda7c97563d602207c67b2627e83c24bcae51b66ff1810787e83465e34743926d636313a6f407d4d012102118463003416b3923de78a8decd6d3dab16c364022b0312242bcecb4a3a4a457", "asm": "3045022100a174fe26531adfc2286af6234a4adc37ddcb8368122fb5a6c343fda7c97563d602207c67b2627e83c24bcae51b66ff1810787e83465e34743926d636313a6f407d4d[ALL] 02118463003416b3923de78a8decd6d3dab16c364022b0312242bcecb4a3a4a457"}, "vout": 0, "txid": "b0ee215669a962eb7c6f63e0a44742625ac17ae4eca47a6371368d2eeb2328e9"}], "txid": "de03626248559beac35c4c061d8b329a971aa46758cd2e5326bd309a8b09d40c", "blocktime": 1537869901, "version": 1, "confirmations": 11523, "time": 1537869901, "locktime": 0, "vsize": 226, "size": 226}