{"hash": "de08d7dd799ffe1f63925ee23bbd43580d48cfedfc226f228cb20e9033389927", "blockhash": "0000000000000000000baef3f32e3676a92c3b2e5da21b426e4f302fc371ce76", "vout": [{"scriptPubKey": {"reqSigs": 1, "hex": "76a914d243e6abb9a60fbff430b421d2df4b7d59ec186088ac", "addresses": ["1LAnF8h3qMGx3TSwNUHVneBZUEpwE4gu3D"], "asm": "OP_DUP OP_HASH160 d243e6abb9a60fbff430b421d2df4b7d59ec1860 OP_EQUALVERIFY OP_CHECKSIG", "type": "pubkeyhash"}, "value": 0.00077314, "n": 0}, {"scriptPubKey": {"reqSigs": 1, "hex": "76a91435e29b39793fb58e5cec321a7ab56685aab5897c88ac", "addresses": ["15uvH41j5Uo7simWQhHbVKYLevd3US1FQ7"], "asm": "OP_DUP OP_HASH160 35e29b39793fb58e5cec321a7ab56685aab5897c OP_EQUALVERIFY OP_CHECKSIG", "type": "pubkeyhash"}, "value": 5.46e-06, "n": 1}, {"scriptPubKey": {"type": "nulldata", "hex": "6a146f6d6e69000000000000001f000002001c6a8b00", "asm": "OP_RETURN 6f6d6e69000000000000001f000002001c6a8b00"}, "value": 0.0, "n": 2}], "hex": "01000000011be20d59ed116432908f2434e40f68f87a109d33e32837cc9feb9eb3ce9ca37a000000006b483045022100c95e35fe106bfbae84474991532cc8fc5a761794e9be0badb214f67cbf4a73f3022041b6fb23bb300b9a04dde1c17255f62b1b477911430c29895c1808caffee0bb901210271977291b74f1f5f5c42157e8aae804664eaaeccfd097918450d37f28fb94d77ffffffff03022e0100000000001976a914d243e6abb9a60fbff430b421d2df4b7d59ec186088ac22020000000000001976a91435e29b39793fb58e5cec321a7ab56685aab5897c88ac0000000000000000166a146f6d6e69000000000000001f000002001c6a8b0000000000", "vin": [{"sequence": 4294967295, "scriptSig": {"hex": "483045022100c95e35fe106bfbae84474991532cc8fc5a761794e9be0badb214f67cbf4a73f3022041b6fb23bb300b9a04dde1c17255f62b1b477911430c29895c1808caffee0bb901210271977291b74f1f5f5c42157e8aae804664eaaeccfd097918450d37f28fb94d77", "asm": "3045022100c95e35fe106bfbae84474991532cc8fc5a761794e9be0badb214f67cbf4a73f3022041b6fb23bb300b9a04dde1c17255f62b1b477911430c29895c1808caffee0bb9[ALL] 0271977291b74f1f5f5c42157e8aae804664eaaeccfd097918450d37f28fb94d77"}, "vout": 0, "txid": "7aa39cceb39eeb9fcc3728e3339d107af8680fe434248f90326411ed590de21b"}], "txid": "de08d7dd799ffe1f63925ee23bbd43580d48cfedfc226f228cb20e9033389927", "blocktime": 1537876114, "version": 1, "confirmations": 11460, "time": 1537876114, "locktime": 0, "vsize": 257, "size": 257}