{"hash": "68712ddee6941bdf73521446e4cce98049738f06a238ef0caf923c9ae90c81a3", "blockhash": "0000000000000000001cda96e906b7601b7a6fb1a3b62bca570a9e5d8f4b3de1", "vout": [{"scriptPubKey": {"reqSigs": 1, "hex": "a914b379977cb382fb04ffa2735bfe80fc1b3e5ec67d87", "addresses": ["3J3zYDwz3JbRfXHz49Mc6xebsdhR9b46NA"], "asm": "OP_HASH160 b379977cb382fb04ffa2735bfe80fc1b3e5ec67d OP_EQUAL", "type": "scripthash"}, "value": 0.01561356, "n": 0}], "hex": "010000000001012aa0ebb832fe09d6481ed797bb4bf582bbb0d6ff838e7c4986a5cc35098911d60100000017160014a552f299cae13676365711808787a43cb54829c2ffffffff010cd317000000000017a914b379977cb382fb04ffa2735bfe80fc1b3e5ec67d8702483045022100adcce421a3d5384feb12d9f0e0bd9757c63e2df3bcbdb907d61ec31d8f0858d802200bb4c88ea8899099475e3a9b8b29313471b5ea287073df1982e72e9a795cf6ee0121023693972738e8ef4a0317a6c9c5853fbed6026dcecb01b0a5b2ac73f06c0f281f00000000", "vin": [{"txinwitness": ["3045022100adcce421a3d5384feb12d9f0e0bd9757c63e2df3bcbdb907d61ec31d8f0858d802200bb4c88ea8899099475e3a9b8b29313471b5ea287073df1982e72e9a795cf6ee01", "023693972738e8ef4a0317a6c9c5853fbed6026dcecb01b0a5b2ac73f06c0f281f"], "sequence": 4294967295, "scriptSig": {"hex": "160014a552f299cae13676365711808787a43cb54829c2", "asm": "0014a552f299cae13676365711808787a43cb54829c2"}, "vout": 1, "txid": "d611890935cca586497c8e83ffd6b0bb82f54bbb97d71e48d609fe32b8eba02a"}], "txid": "de087d4b5e78b5f22ae91e2d98eef9313a9d08e382e1d19b324c0079320f904b", "blocktime": 1537873282, "version": 1, "confirmations": 11484, "time": 1537873282, "locktime": 0, "vsize": 134, "size": 216}