{"hash": "3e0924c8c63179ae97ffbe88bae9447ac67b248bfd5441334b91730d6c245a1d", "blockhash": "0000000000000000000e13cef7c366c0283d82e591d1acd082e914b08063cdf1", "vout": [{"scriptPubKey": {"reqSigs": 1, "hex": "a9140b8072d3cf30786aa2d3652f15fb960d792d393a87", "addresses": ["32jqER33oQx8C8sw9czG13fwS9fPy5z8em"], "asm": "OP_HASH160 0b8072d3cf30786aa2d3652f15fb960d792d393a OP_EQUAL", "type": "scripthash"}, "value": 0.01076038, "n": 0}, {"scriptPubKey": {"reqSigs": 1, "hex": "76a914634d46a98b1e184569cc6e7f5b7255e5891d1b9f88ac", "addresses": ["1A44UDxwM5DuAikwQWp5p5mERvxEiBh3wA"], "asm": "OP_DUP OP_HASH160 634d46a98b1e184569cc6e7f5b7255e5891d1b9f OP_EQUALVERIFY OP_CHECKSIG", "type": "pubkeyhash"}, "value": 0.10493925, "n": 1}], "hex": "01000000000104b5d59d141ba421da2b4fa2a660f76a4ebc7db4dbd81df6076bfa04455b3caad70000000017160014d2d6946a23042a05c1b0bc68ee9a62c64e197dc3feffffffcb329e9964efa70e42ad1ae5c56c46f3819f6ae1c612ef3096fa6b082c5dd2fbde000000171600149165ffb8316498084d5110f7f836c2d92f630821feffffffeff1c5ab49fc85cb1f892a67c2d67088ea7a6980aa3e3afb154db46c7b525d480000000017160014d2d6946a23042a05c1b0bc68ee9a62c64e197dc3feffffffffc0a453274d563f205b8b7bad7906378eec4531546eed16e6ce8cdf0cf589a8000000001716001497421ff1ffc60915724a1c0dec0f320c193ac76bfeffffff02466b10000000000017a9140b8072d3cf30786aa2d3652f15fb960d792d393a87e51fa000000000001976a914634d46a98b1e184569cc6e7f5b7255e5891d1b9f88ac02483045022100fcdbfcaaa4d312b43c66bbf5f71887fc5fe572cbffb4c7c6b241d7767bcf86fa022032374023387e55ce03031f07b1f10d183b7ad59901bcc6ce5dafd955297aa4b2012103a5d0b319282fc3c2fa198a854968b054cc5585a1364cd1f0e7a949caa9af1e7c024830450221009a58f399bc7a9c697a0d6d0e1b53e4552e2357024ba384608b1efdbe6d4ee50302200bf07233f891a4b92200c628b9acf2d7da03303874f4c918e635b3b7440fb6a401210320b1bb032444520c6e078f72e1aa22096022639096bb12be7d366831a4dbdb8302483045022100b68ea7d6c01aa62087f48a52b41746b931244af3c6bce731e17af81a4a5d9c2c02202fdf44b61399e31f991536e532e912b80fcf1496df04e44608f6812388b6466b012103a5d0b319282fc3c2fa198a854968b054cc5585a1364cd1f0e7a949caa9af1e7c02483045022100e0070511a6c143a76020784cdb38557216c8ca243d380f2479226e1a8ea2901b0220592ead5432808bb4bec6c0b25bef0580e514968d2c250c543945991b8e5817580121036010825a6c69d5f56ff8dbb26deb994d832f93afe936fe3f73a7bc1a0466bc5000000000", "vin": [{"txinwitness": ["3045022100fcdbfcaaa4d312b43c66bbf5f71887fc5fe572cbffb4c7c6b241d7767bcf86fa022032374023387e55ce03031f07b1f10d183b7ad59901bcc6ce5dafd955297aa4b201", "03a5d0b319282fc3c2fa198a854968b054cc5585a1364cd1f0e7a949caa9af1e7c"], "sequence": 4294967294, "scriptSig": {"hex": "160014d2d6946a23042a05c1b0bc68ee9a62c64e197dc3", "asm": "0014d2d6946a23042a05c1b0bc68ee9a62c64e197dc3"}, "vout": 0, "txid": "d7aa3c5b4504fa6b07f61dd8dbb47dbc4e6af760a6a24f2bda21a41b149dd5b5"}, {"txinwitness": ["30450221009a58f399bc7a9c697a0d6d0e1b53e4552e2357024ba384608b1efdbe6d4ee50302200bf07233f891a4b92200c628b9acf2d7da03303874f4c918e635b3b7440fb6a401", "0320b1bb032444520c6e078f72e1aa22096022639096bb12be7d366831a4dbdb83"], "sequence": 4294967294, "scriptSig": {"hex": "1600149165ffb8316498084d5110f7f836c2d92f630821", "asm": "00149165ffb8316498084d5110f7f836c2d92f630821"}, "vout": 222, "txid": "fbd25d2c086bfa9630ef12c6e16a9f81f3466cc5e51aad420ea7ef64999e32cb"}, {"txinwitness": ["3045022100b68ea7d6c01aa62087f48a52b41746b931244af3c6bce731e17af81a4a5d9c2c02202fdf44b61399e31f991536e532e912b80fcf1496df04e44608f6812388b6466b01", "03a5d0b319282fc3c2fa198a854968b054cc5585a1364cd1f0e7a949caa9af1e7c"], "sequence": 4294967294, "scriptSig": {"hex": "160014d2d6946a23042a05c1b0bc68ee9a62c64e197dc3", "asm": "0014d2d6946a23042a05c1b0bc68ee9a62c64e197dc3"}, "vout": 0, "txid": "485d527b6cb44d15fb3a3eaa80697aea8870d6c2672a891fcb85fc49abc5f1ef"}, {"txinwitness": ["3045022100e0070511a6c143a76020784cdb38557216c8ca243d380f2479226e1a8ea2901b0220592ead5432808bb4bec6c0b25bef0580e514968d2c250c543945991b8e58175801", "036010825a6c69d5f56ff8dbb26deb994d832f93afe936fe3f73a7bc1a0466bc50"], "sequence": 4294967294, "scriptSig": {"hex": "16001497421ff1ffc60915724a1c0dec0f320c193ac76b", "asm": "001497421ff1ffc60915724a1c0dec0f320c193ac76b"}, "vout": 0, "txid": "a889f50cdf8ccee616ed6e543145ec8e370679ad7b8b5b203f564d2753a4c0ff"}], "txid": "de13829dc450f00b0875351b198420398f8de064fe9328115999082524e5d2c0", "blocktime": 1537871767, "version": 1, "confirmations": 11495, "time": 1537871767, "locktime": 0, "vsize": 441, "size": 766}