{"hash": "de14833eeb127b88f5b9051565f41c6d287090288526a3835c1e9f3834828834", "blockhash": "0000000000000000001cda96e906b7601b7a6fb1a3b62bca570a9e5d8f4b3de1", "vout": [{"scriptPubKey": {"reqSigs": 1, "hex": "a9141e2179f54e018ff7a0d229389cabbca8123f07dc87", "addresses": ["34SLJHB45EgRTQRF6kXNAMY9xUKpgjr1PN"], "asm": "OP_HASH160 1e2179f54e018ff7a0d229389cabbca8123f07dc OP_EQUAL", "type": "scripthash"}, "value": 0.01, "n": 0}, {"scriptPubKey": {"reqSigs": 1, "hex": "76a914a18f37d8d25abbc444ad2f2d56a15f4ec370c5c688ac", "addresses": ["1FjFMrfoqmfe4uwYoypL1mNLJ656u8ry4y"], "asm": "OP_DUP OP_HASH160 a18f37d8d25abbc444ad2f2d56a15f4ec370c5c6 OP_EQUALVERIFY OP_CHECKSIG", "type": "pubkeyhash"}, "value": 0.01498748, "n": 1}], "hex": "010000000155ae5fa4e505e50529085bd516e20709de26221c2c68f25f6ed2622f4fef48d5000000006b483045022100caab4be4e2f7248f8b72823525dde96736ba5150994c2e15f0e4d1bbfd7c5cc702201b8f18a011fa4739fac7dfe1e374f713f8838026f455268cfcacc1b499898b13012102a0badb511016074146036890cf457a26d6a9e2e7d58515d4258507f87de4fffdffffffff0240420f000000000017a9141e2179f54e018ff7a0d229389cabbca8123f07dc877cde1600000000001976a914a18f37d8d25abbc444ad2f2d56a15f4ec370c5c688ac00000000", "vin": [{"sequence": 4294967295, "scriptSig": {"hex": "483045022100caab4be4e2f7248f8b72823525dde96736ba5150994c2e15f0e4d1bbfd7c5cc702201b8f18a011fa4739fac7dfe1e374f713f8838026f455268cfcacc1b499898b13012102a0badb511016074146036890cf457a26d6a9e2e7d58515d4258507f87de4fffd", "asm": "3045022100caab4be4e2f7248f8b72823525dde96736ba5150994c2e15f0e4d1bbfd7c5cc702201b8f18a011fa4739fac7dfe1e374f713f8838026f455268cfcacc1b499898b13[ALL] 02a0badb511016074146036890cf457a26d6a9e2e7d58515d4258507f87de4fffd"}, "vout": 0, "txid": "d548ef4f2f62d26e5ff2682c1c2226de0907e216d55b082905e505e5a45fae55"}], "txid": "de14833eeb127b88f5b9051565f41c6d287090288526a3835c1e9f3834828834", "blocktime": 1537873282, "version": 1, "confirmations": 11485, "time": 1537873282, "locktime": 0, "vsize": 224, "size": 224}