{"hash": "087207435e585ebf94297334c44d1bc8946efea0aee5731fe36f40e665c1b6e9", "blockhash": "00000000000000000018f53835495a110e01622372bf6ae95dc86f2b0ab887b0", "vout": [{"scriptPubKey": {"reqSigs": 1, "hex": "0014ca1cb4c9fd05109ae3b7d0d3daae598b9edc9bd3", "addresses": ["bc1qegwtfj0aq5gf4cah6rfa4tje3w0dex7nfhclt8"], "asm": "0 ca1cb4c9fd05109ae3b7d0d3daae598b9edc9bd3", "type": "witness_v0_keyhash"}, "value": 0.16844895, "n": 0}, {"scriptPubKey": {"reqSigs": 1, "hex": "76a914668ffdd8822a50c2b4c4bb94c0cfa39487e176c888ac", "addresses": ["1AMJRH6EHekGGnHaWwWZAWb2UcYaeDvuui"], "asm": "OP_DUP OP_HASH160 668ffdd8822a50c2b4c4bb94c0cfa39487e176c8 OP_EQUALVERIFY OP_CHECKSIG", "type": "pubkeyhash"}, "value": 0.03904517, "n": 1}], "hex": "01000000000101e277a3e89bbc60e1182e25cac593ae863e6bcf35c12fdc0bc0382746f17caa6403000000171600148a805e9a12af0474d1565816308dd1baabb1c389ffffffff025f08010100000000160014ca1cb4c9fd05109ae3b7d0d3daae598b9edc9bd305943b00000000001976a914668ffdd8822a50c2b4c4bb94c0cfa39487e176c888ac02483045022100ef407f0cbac245f3536d646dc3ae1fc75b8fdac217c10855652d586b437411f802200bad6e9d832ef1802c31a165379cfecc3cae973aa858d5f26477192652c6ac230121029b9e41973232627706f81c231d27859ef8ca90492f9bd1b496813a8a7ac66e1100000000", "vin": [{"txinwitness": ["3045022100ef407f0cbac245f3536d646dc3ae1fc75b8fdac217c10855652d586b437411f802200bad6e9d832ef1802c31a165379cfecc3cae973aa858d5f26477192652c6ac2301", "029b9e41973232627706f81c231d27859ef8ca90492f9bd1b496813a8a7ac66e11"], "sequence": 4294967295, "scriptSig": {"hex": "1600148a805e9a12af0474d1565816308dd1baabb1c389", "asm": "00148a805e9a12af0474d1565816308dd1baabb1c389"}, "vout": 3, "txid": "64aa7cf1462738c00bdc2fc135cf6b3e86ae93c5ca252e18e160bc9be8a377e2"}], "txid": "de17c921b33e44f4c6cbf22c1a086ca70a772990836780ab944ade2985badb71", "blocktime": 1537870928, "version": 1, "confirmations": 11514, "time": 1537870928, "locktime": 0, "vsize": 167, "size": 249}