{"hash": "de19b45262d14037f2751478d7e4603fc4aa33241a8716bbc748d4b1b23f843f", "blockhash": "0000000000000000001f76057863aec43deb6fa401d9628bb513d65a8098bfab", "vout": [{"scriptPubKey": {"reqSigs": 1, "hex": "76a914d41fa428a5c86c5d747471f0671d9758a22bdef488ac", "addresses": ["1LLcA9915ZbbPXrpzZZXhRuaeQFgPFw6tR"], "asm": "OP_DUP OP_HASH160 d41fa428a5c86c5d747471f0671d9758a22bdef4 OP_EQUALVERIFY OP_CHECKSIG", "type": "pubkeyhash"}, "value": 0.00327708, "n": 0}, {"scriptPubKey": {"reqSigs": 1, "hex": "76a9140b0fe7ef48364884588fefeaaf41fd4d2d37f24988ac", "addresses": ["121VVH8K4YsR4WTs8vnMp653BLeyFHin7R"], "asm": "OP_DUP OP_HASH160 0b0fe7ef48364884588fefeaaf41fd4d2d37f249 OP_EQUALVERIFY OP_CHECKSIG", "type": "pubkeyhash"}, "value": 0.0084032, "n": 1}], "hex": "0100000001fc451a804e2957ec19399e7653d7a4960529ab16a768b960ec91962028f34b21000000006b48304502210097dec7c28b7e0cf244e041900a80f47f249401e250d4e6e7220808441c468af102200f25b53f71eb3f6592c805beecfcb222a9c44b5af8cafc8be1aa124dcfba09d1012102bbc30ac5ec5df122f6477d1320f017ba818385a0f07b6aa5c8f8e7cace387a60ffffffff021c000500000000001976a914d41fa428a5c86c5d747471f0671d9758a22bdef488ac80d20c00000000001976a9140b0fe7ef48364884588fefeaaf41fd4d2d37f24988ac00000000", "vin": [{"sequence": 4294967295, "scriptSig": {"hex": "48304502210097dec7c28b7e0cf244e041900a80f47f249401e250d4e6e7220808441c468af102200f25b53f71eb3f6592c805beecfcb222a9c44b5af8cafc8be1aa124dcfba09d1012102bbc30ac5ec5df122f6477d1320f017ba818385a0f07b6aa5c8f8e7cace387a60", "asm": "304502210097dec7c28b7e0cf244e041900a80f47f249401e250d4e6e7220808441c468af102200f25b53f71eb3f6592c805beecfcb222a9c44b5af8cafc8be1aa124dcfba09d1[ALL] 02bbc30ac5ec5df122f6477d1320f017ba818385a0f07b6aa5c8f8e7cace387a60"}, "vout": 0, "txid": "214bf328209691ec60b968a716ab290596a4d753769e3919ec57294e801a45fc"}], "txid": "de19b45262d14037f2751478d7e4603fc4aa33241a8716bbc748d4b1b23f843f", "blocktime": 1537873891, "version": 1, "confirmations": 11478, "time": 1537873891, "locktime": 0, "vsize": 226, "size": 226}