{"hash": "de19596c80ad0609c66c1990ff1c7d2861da06f7ee7a38b81843b6f53295eea7", "blockhash": "00000000000000000024a2167bbff67b0be802c0b01cdd79e6331c2be6459f87", "vout": [{"scriptPubKey": {"reqSigs": 1, "hex": "76a91470e86c4a1c290649abda84dd5438738b8babdb0988ac", "addresses": ["1BJ17X5SyWf4wnoVcktqRbpriLZHbgv6S6"], "asm": "OP_DUP OP_HASH160 70e86c4a1c290649abda84dd5438738b8babdb09 OP_EQUALVERIFY OP_CHECKSIG", "type": "pubkeyhash"}, "value": 0.03133735, "n": 0}, {"scriptPubKey": {"reqSigs": 1, "hex": "76a9146586ced214191eaee684bf8787713d2671eff5aa88ac", "addresses": ["1AFpjzWNNtmMamjbbSSNLiVdktzrYMspCQ"], "asm": "OP_DUP OP_HASH160 6586ced214191eaee684bf8787713d2671eff5aa OP_EQUALVERIFY OP_CHECKSIG", "type": "pubkeyhash"}, "value": 0.34795358, "n": 1}], "hex": "0200000001124b8224d0716284b41351fd2327000297d665195b84557534eae72fb80710bc010000006a473044022015f2092e9ffd5db1788aeba731bb92174afb2a2bfc35b82210c0e8fea809867b0220155e277004364141001c1956bd023330f10cf2df60484adb68cbb34701f3e15601210210dac65f236a05432a1dbd2f909aa1c6e1870304203e734e8d07db9b57443d46ffffffff0227d12f00000000001976a91470e86c4a1c290649abda84dd5438738b8babdb0988ac5eef1202000000001976a9146586ced214191eaee684bf8787713d2671eff5aa88ac00000000", "vin": [{"sequence": 4294967295, "scriptSig": {"hex": "473044022015f2092e9ffd5db1788aeba731bb92174afb2a2bfc35b82210c0e8fea809867b0220155e277004364141001c1956bd023330f10cf2df60484adb68cbb34701f3e15601210210dac65f236a05432a1dbd2f909aa1c6e1870304203e734e8d07db9b57443d46", "asm": "3044022015f2092e9ffd5db1788aeba731bb92174afb2a2bfc35b82210c0e8fea809867b0220155e277004364141001c1956bd023330f10cf2df60484adb68cbb34701f3e156[ALL] 0210dac65f236a05432a1dbd2f909aa1c6e1870304203e734e8d07db9b57443d46"}, "vout": 1, "txid": "bc1007b82fe7ea347555845b1965d69702002723fd5113b4846271d024824b12"}], "txid": "de19596c80ad0609c66c1990ff1c7d2861da06f7ee7a38b81843b6f53295eea7", "blocktime": 1537870564, "version": 2, "confirmations": 11515, "time": 1537870564, "locktime": 0, "vsize": 225, "size": 225}