{"hash": "de1a5592c3552c7a1a89f4fbe5374b7da82ad1e5d8c2ad9f8a4432a977e336be", "blockhash": "0000000000000000001e0dab787dd257d1dbfcb92a98c2207d5e1078be1f4165", "vout": [{"scriptPubKey": {"reqSigs": 1, "hex": "76a91444cfcf13be19bee758a031ca6eea13bf4b3de4db88ac", "addresses": ["17Gqtrrmegcsn7RhyrifQR5Ljrj7TQ3exZ"], "asm": "OP_DUP OP_HASH160 44cfcf13be19bee758a031ca6eea13bf4b3de4db OP_EQUALVERIFY OP_CHECKSIG", "type": "pubkeyhash"}, "value": 0.0064052, "n": 0}, {"scriptPubKey": {"type": "nulldata", "hex": "6a4c50000077b60001b22ed29afdbc8dce19afa319e5bf9ae76da98a211aaf6c953dd567cf27e7835a26a8631298ef5936eaec5549141e5baa11ba061236ab9608277d1d100759d4ba30d2c37bb011d97e02cf", "asm": "OP_RETURN 000077b60001b22ed29afdbc8dce19afa319e5bf9ae76da98a211aaf6c953dd567cf27e7835a26a8631298ef5936eaec5549141e5baa11ba061236ab9608277d1d100759d4ba30d2c37bb011d97e02cf"}, "value": 0.0, "n": 1}], "hex": "01000000012f80cd817a5176c3d08f13413e4e93fa31b2dba4ade169e1a7fe7084baf6b71e000000006b483045022100af3d4c9f404da5dcddfda909e6069a55c76e53fa5f827bb5daed502badbe2473022064b91ab68d9df288b4122ce6cef26e3ed0d1abd266fef56b741969f83ae27fd3012103cec226940437690d2075bf3023dac153aa9f1bcbc71d86fcb934e15ac88bc7c0ffffffff0208c60900000000001976a91444cfcf13be19bee758a031ca6eea13bf4b3de4db88ac0000000000000000536a4c50000077b60001b22ed29afdbc8dce19afa319e5bf9ae76da98a211aaf6c953dd567cf27e7835a26a8631298ef5936eaec5549141e5baa11ba061236ab9608277d1d100759d4ba30d2c37bb011d97e02cf00000000", "vin": [{"sequence": 4294967295, "scriptSig": {"hex": "483045022100af3d4c9f404da5dcddfda909e6069a55c76e53fa5f827bb5daed502badbe2473022064b91ab68d9df288b4122ce6cef26e3ed0d1abd266fef56b741969f83ae27fd3012103cec226940437690d2075bf3023dac153aa9f1bcbc71d86fcb934e15ac88bc7c0", "asm": "3045022100af3d4c9f404da5dcddfda909e6069a55c76e53fa5f827bb5daed502badbe2473022064b91ab68d9df288b4122ce6cef26e3ed0d1abd266fef56b741969f83ae27fd3[ALL] 03cec226940437690d2075bf3023dac153aa9f1bcbc71d86fcb934e15ac88bc7c0"}, "vout": 0, "txid": "1eb7f6ba8470fea7e169e1ada4dbb231fa934e3e41138fd0c376517a81cd802f"}], "txid": "de1a5592c3552c7a1a89f4fbe5374b7da82ad1e5d8c2ad9f8a4432a977e336be", "blocktime": 1537872475, "version": 1, "confirmations": 11486, "time": 1537872475, "locktime": 0, "vsize": 284, "size": 284}