{"hash": "de22f5b9f38422742e4df058997675e1875ec5c880317517e2acfb989217e881", "blockhash": "0000000000000000000e13cef7c366c0283d82e591d1acd082e914b08063cdf1", "vout": [{"scriptPubKey": {"reqSigs": 1, "hex": "76a914a7c04d2ec1766adc906d334b291733caaaefa4ec88ac", "addresses": ["1GHzDNupdovu1fF3AaSs3sqERYhdtraEVc"], "asm": "OP_DUP OP_HASH160 a7c04d2ec1766adc906d334b291733caaaefa4ec OP_EQUALVERIFY OP_CHECKSIG", "type": "pubkeyhash"}, "value": 0.0156546, "n": 0}, {"scriptPubKey": {"reqSigs": 1, "hex": "76a914b66dd0cb1e3c2528c0ccc41aae5e6bfe01ea331c88ac", "addresses": ["1HdbY31sqB72HaWC9ve6vpqKgQxhKWdnei"], "asm": "OP_DUP OP_HASH160 b66dd0cb1e3c2528c0ccc41aae5e6bfe01ea331c OP_EQUALVERIFY OP_CHECKSIG", "type": "pubkeyhash"}, "value": 0.00010493, "n": 1}], "hex": "0100000001357f18b1c931712b90dcae54f6a24f7264bcc4c9b0ab9cdcc580b680afec1238010000006b4830450221009519603cc9001820354bded80ab41d1f7fa8d295918f15f109c05a26e211f677022077212560e434480a4f39f29884242e9f0c4d7d0478132275cbf6d819317e72570121028193d4e243e21153d32b0f455f41df7f17ebd4463b67d33a971b247f9e35c00affffffff0214e31700000000001976a914a7c04d2ec1766adc906d334b291733caaaefa4ec88acfd280000000000001976a914b66dd0cb1e3c2528c0ccc41aae5e6bfe01ea331c88ac00000000", "vin": [{"sequence": 4294967295, "scriptSig": {"hex": "4830450221009519603cc9001820354bded80ab41d1f7fa8d295918f15f109c05a26e211f677022077212560e434480a4f39f29884242e9f0c4d7d0478132275cbf6d819317e72570121028193d4e243e21153d32b0f455f41df7f17ebd4463b67d33a971b247f9e35c00a", "asm": "30450221009519603cc9001820354bded80ab41d1f7fa8d295918f15f109c05a26e211f677022077212560e434480a4f39f29884242e9f0c4d7d0478132275cbf6d819317e7257[ALL] 028193d4e243e21153d32b0f455f41df7f17ebd4463b67d33a971b247f9e35c00a"}, "vout": 1, "txid": "3812ecaf80b680c5dc9cabb0c9c4bc64724fa2f654aedc902b7131c9b1187f35"}], "txid": "de22f5b9f38422742e4df058997675e1875ec5c880317517e2acfb989217e881", "blocktime": 1537871767, "version": 1, "confirmations": 11495, "time": 1537871767, "locktime": 0, "vsize": 226, "size": 226}