{"hash": "de259f4b22770309bbcd8144daa1e33a5796cb2a277844b2a2be4742fed5a09d", "blockhash": "0000000000000000001e0dab787dd257d1dbfcb92a98c2207d5e1078be1f4165", "vout": [{"scriptPubKey": {"reqSigs": 1, "hex": "76a914d34c7ca97e2417392b60fbc949fb81a9f216c31288ac", "addresses": ["1LGFCtEwXsdLwEyCmzBiAmMd1mcV1U4cKd"], "asm": "OP_DUP OP_HASH160 d34c7ca97e2417392b60fbc949fb81a9f216c312 OP_EQUALVERIFY OP_CHECKSIG", "type": "pubkeyhash"}, "value": 0.53001356, "n": 0}, {"scriptPubKey": {"reqSigs": 1, "hex": "76a914122543332143cd27c62df36cef9f2838d61137cf88ac", "addresses": ["12ewoVp7HBmfPe9GJk6R27JnTN8mrJbWTj"], "asm": "OP_DUP OP_HASH160 122543332143cd27c62df36cef9f2838d61137cf OP_EQUALVERIFY OP_CHECKSIG", "type": "pubkeyhash"}, "value": 2.02510377, "n": 1}], "hex": "01000000014685af8b9c444e1e5976401cfeafd5d801820f33791252f53bb12e2d031aaa28010000006a473044022071571b47667f1ae277a88441f1d5a582d86e1260ec05e498ade43dd2d52c408b02207f3d22585bba07252511c72d5cf000d6c8b4067eb4162d765a2738ec6e08c0f401210355779f1ab9b41e15f0b6a907adf308af6f8142ef69771514bd44226969a464bfffffffff028cbc2803000000001976a914d34c7ca97e2417392b60fbc949fb81a9f216c31288ac2910120c000000001976a914122543332143cd27c62df36cef9f2838d61137cf88ac00000000", "vin": [{"sequence": 4294967295, "scriptSig": {"hex": "473044022071571b47667f1ae277a88441f1d5a582d86e1260ec05e498ade43dd2d52c408b02207f3d22585bba07252511c72d5cf000d6c8b4067eb4162d765a2738ec6e08c0f401210355779f1ab9b41e15f0b6a907adf308af6f8142ef69771514bd44226969a464bf", "asm": "3044022071571b47667f1ae277a88441f1d5a582d86e1260ec05e498ade43dd2d52c408b02207f3d22585bba07252511c72d5cf000d6c8b4067eb4162d765a2738ec6e08c0f4[ALL] 0355779f1ab9b41e15f0b6a907adf308af6f8142ef69771514bd44226969a464bf"}, "vout": 1, "txid": "28aa1a032d2eb13bf5521279330f8201d8d5affe1c4076591e4e449c8baf8546"}], "txid": "de259f4b22770309bbcd8144daa1e33a5796cb2a277844b2a2be4742fed5a09d", "blocktime": 1537872475, "version": 1, "confirmations": 11486, "time": 1537872475, "locktime": 0, "vsize": 225, "size": 225}