{"hash": "de297d0d009c0712b2c80b0409ce3efa755b6fd6926c5a7b19fc4c6a1a23a9ea", "blockhash": "0000000000000000001cda96e906b7601b7a6fb1a3b62bca570a9e5d8f4b3de1", "vout": [{"scriptPubKey": {"reqSigs": 1, "hex": "76a91446a8a27a7f51f84dc75ae07019df18ca39cecd2288ac", "addresses": ["17ScKNXo4cL8DyfWfcCWu1uJySQuJm7iKC"], "asm": "OP_DUP OP_HASH160 46a8a27a7f51f84dc75ae07019df18ca39cecd22 OP_EQUALVERIFY OP_CHECKSIG", "type": "pubkeyhash"}, "value": 0.57446502, "n": 0}, {"scriptPubKey": {"type": "nulldata", "hex": "6a146f6d6e69000000000000001f00000036b7176e00", "asm": "OP_RETURN 6f6d6e69000000000000001f00000036b7176e00"}, "value": 0.0, "n": 1}, {"scriptPubKey": {"reqSigs": 1, "hex": "76a914605ffbfdf91cb8dc44042b220889735f5aa1458488ac", "addresses": ["19narXSeDNTzXGsMwmixeh5DUKKeB3eFLY"], "asm": "OP_DUP OP_HASH160 605ffbfdf91cb8dc44042b220889735f5aa14584 OP_EQUALVERIFY OP_CHECKSIG", "type": "pubkeyhash"}, "value": 5.46e-06, "n": 2}], "hex": "0100000001eb5b11e7423e7974e7a8dbd62585e400d4cd2d51bbd888da119ae1fd3a2093d7020000006a4730440220554118e63761e93b501511e09efc96780702dab62c1be511883f4261508334c002203607affefa4dda8998d854c90665e4ed9f18cb9d72e681d375decddab01f8a6c012102b7042dc82d0ecbadc24910515789f34674fe32a285676c7f7b0c64f750b10e36feffffff0366906c03000000001976a91446a8a27a7f51f84dc75ae07019df18ca39cecd2288ac0000000000000000166a146f6d6e69000000000000001f00000036b7176e0022020000000000001976a914605ffbfdf91cb8dc44042b220889735f5aa1458488ac13490800", "vin": [{"sequence": 4294967294, "scriptSig": {"hex": "4730440220554118e63761e93b501511e09efc96780702dab62c1be511883f4261508334c002203607affefa4dda8998d854c90665e4ed9f18cb9d72e681d375decddab01f8a6c012102b7042dc82d0ecbadc24910515789f34674fe32a285676c7f7b0c64f750b10e36", "asm": "30440220554118e63761e93b501511e09efc96780702dab62c1be511883f4261508334c002203607affefa4dda8998d854c90665e4ed9f18cb9d72e681d375decddab01f8a6c[ALL] 02b7042dc82d0ecbadc24910515789f34674fe32a285676c7f7b0c64f750b10e36"}, "vout": 2, "txid": "d793203afde19a11da88d8bb512dcdd400e48525d6dba8e774793e42e7115beb"}], "txid": "de297d0d009c0712b2c80b0409ce3efa755b6fd6926c5a7b19fc4c6a1a23a9ea", "blocktime": 1537873282, "version": 1, "confirmations": 11484, "time": 1537873282, "locktime": 542995, "vsize": 256, "size": 256}