{"hash": "89abca2b2bf135e6203bc559e527fde94b18de524ea1820a9df077dc48871d19", "blockhash": "000000000000000000022b45ed06c6f4ccd3cf7fb5ba4856ebd2e58215665228", "vout": [{"scriptPubKey": {"reqSigs": 1, "hex": "76a91497d42867964b39b870838e5ed02c5b1e61a26f6588ac", "addresses": ["1EqoBx9oHYofJPJHEVm68uruS67XwCVz7w"], "asm": "OP_DUP OP_HASH160 97d42867964b39b870838e5ed02c5b1e61a26f65 OP_EQUALVERIFY OP_CHECKSIG", "type": "pubkeyhash"}, "value": 0.178, "n": 0}, {"scriptPubKey": {"reqSigs": 1, "hex": "a9146e0e83455c3cdda562f01c2f48b49b8ab361986287", "addresses": ["3Biwe1ZgPBFtfLfrndXrT4qY3RRrLMKYH4"], "asm": "OP_HASH160 6e0e83455c3cdda562f01c2f48b49b8ab3619862 OP_EQUAL", "type": "scripthash"}, "value": 0.01019159, "n": 1}], "hex": "020000000001023becfdab8fb817abc03bca40a22a3f74eb8e9aadf315c63e572a354cd547ba0e01000000171600140a42871cd6eccd4b5ea2b69fc3633a223cebcda3feffffff642007779c9d84e9ebe625ceff37a90e1b3d76bace6e83674d5c760f8a36ff5101000000171600140e5c4ba975def1b433c1b55ec12bac36257fa3a0feffffff02409b0f01000000001976a91497d42867964b39b870838e5ed02c5b1e61a26f6588ac178d0f000000000017a9146e0e83455c3cdda562f01c2f48b49b8ab361986287024730440220229868bb5f937c71d01134aadc3d6935b68e0fb0073da94d2f4c891bc46e60f102206f5e63b702a20dd40bb94d3e72f4d101d02778d44c8e84195c19ad21b143c4d00121033a621fb7c8bbdcab44114db266da53460b73114c24a18fc47b04b080cdc8f72e02483045022100d8d14a803c9cddf288afad31a22165e00cd7f18309158d35fe8d027d6c19ca7d02200cd88c4f851849297b0380f012d51d687e0c5a8b8e6309f555022adb9d178379012102d471b11df9d810b0276203fa48c50350fc558e8f80287b2ecfc2597be094ec7d0a490800", "vin": [{"txinwitness": ["30440220229868bb5f937c71d01134aadc3d6935b68e0fb0073da94d2f4c891bc46e60f102206f5e63b702a20dd40bb94d3e72f4d101d02778d44c8e84195c19ad21b143c4d001", "033a621fb7c8bbdcab44114db266da53460b73114c24a18fc47b04b080cdc8f72e"], "sequence": 4294967294, "scriptSig": {"hex": "1600140a42871cd6eccd4b5ea2b69fc3633a223cebcda3", "asm": "00140a42871cd6eccd4b5ea2b69fc3633a223cebcda3"}, "vout": 1, "txid": "0eba47d54c352a573ec615f3ad9a8eeb743f2aa240ca3bc0ab17b88fabfdec3b"}, {"txinwitness": ["3045022100d8d14a803c9cddf288afad31a22165e00cd7f18309158d35fe8d027d6c19ca7d02200cd88c4f851849297b0380f012d51d687e0c5a8b8e6309f555022adb9d17837901", "02d471b11df9d810b0276203fa48c50350fc558e8f80287b2ecfc2597be094ec7d"], "sequence": 4294967294, "scriptSig": {"hex": "1600140e5c4ba975def1b433c1b55ec12bac36257fa3a0", "asm": "00140e5c4ba975def1b433c1b55ec12bac36257fa3a0"}, "vout": 1, "txid": "51ff368a0f765c4d67836eceba763d1b0ea937ffce25e6ebe9849d9c77072064"}], "txid": "de2d2b8ebc56da05a600a0c8c6f01fcf551e3816786a1172c07307a05781ca19", "blocktime": 1537869901, "version": 2, "confirmations": 11522, "time": 1537869901, "locktime": 542986, "vsize": 259, "size": 421}