{"hash": "de2dca193fd30fa3fd3af215121e61aa4b550228efdafafaab142878411a5db2", "blockhash": "0000000000000000001e0dab787dd257d1dbfcb92a98c2207d5e1078be1f4165", "vout": [{"scriptPubKey": {"reqSigs": 1, "hex": "76a91492d97602c2459bf24d863ab787e73917384ebfbf88ac", "addresses": ["1EPUATjmieDS7NZQqCRbLVSmHZ66CzRxEr"], "asm": "OP_DUP OP_HASH160 92d97602c2459bf24d863ab787e73917384ebfbf OP_EQUALVERIFY OP_CHECKSIG", "type": "pubkeyhash"}, "value": 0.00156225, "n": 0}, {"scriptPubKey": {"reqSigs": 1, "hex": "76a914b533273a5afe38872362074c6afac87c3b22b47588ac", "addresses": ["1HX6auoLZ47YHzMT54pHGBGU5uibjhYrRS"], "asm": "OP_DUP OP_HASH160 b533273a5afe38872362074c6afac87c3b22b475 OP_EQUALVERIFY OP_CHECKSIG", "type": "pubkeyhash"}, "value": 0.00037303, "n": 1}], "hex": "010000000159ba297efe2b29a9f3346ebf8dff16ef5d1f0446a5da855572db57457256da5a000000006a4730440220430bf4524807ba16729fd63b4c36a4bf955bdbc4abc92217616e456fcf728dc3022049baed20673866fe4dc6b43887b89140db62649bf959f7472dc2fc24d746b919012103dec02c4917541ab9386f2796ad57dc931046b31e305c075b4e9837468aa65e9cffffffff0241620200000000001976a91492d97602c2459bf24d863ab787e73917384ebfbf88acb7910000000000001976a914b533273a5afe38872362074c6afac87c3b22b47588ac00000000", "vin": [{"sequence": 4294967295, "scriptSig": {"hex": "4730440220430bf4524807ba16729fd63b4c36a4bf955bdbc4abc92217616e456fcf728dc3022049baed20673866fe4dc6b43887b89140db62649bf959f7472dc2fc24d746b919012103dec02c4917541ab9386f2796ad57dc931046b31e305c075b4e9837468aa65e9c", "asm": "30440220430bf4524807ba16729fd63b4c36a4bf955bdbc4abc92217616e456fcf728dc3022049baed20673866fe4dc6b43887b89140db62649bf959f7472dc2fc24d746b919[ALL] 03dec02c4917541ab9386f2796ad57dc931046b31e305c075b4e9837468aa65e9c"}, "vout": 0, "txid": "5ada56724557db725585daa546041f5def16ff8dbf6e34f3a9292bfe7e29ba59"}], "txid": "de2dca193fd30fa3fd3af215121e61aa4b550228efdafafaab142878411a5db2", "blocktime": 1537872475, "version": 1, "confirmations": 11486, "time": 1537872475, "locktime": 0, "vsize": 225, "size": 225}