{"hash": "63e772ad158fd284272b75d74d00bf5f042a4c3b084ef5bd069be9f2917ff72b", "blockhash": "00000000000000000018f53835495a110e01622372bf6ae95dc86f2b0ab887b0", "vout": [{"scriptPubKey": {"reqSigs": 1, "hex": "00146c4cb06d46c3a41c51597a7cc6b2ccf0ca80b11e", "addresses": ["bc1qd3xtqm2xcwjpc52e0f7vdvkv7r9gpvg7hjjudu"], "asm": "0 6c4cb06d46c3a41c51597a7cc6b2ccf0ca80b11e", "type": "witness_v0_keyhash"}, "value": 0.00029278, "n": 0}, {"scriptPubKey": {"reqSigs": 1, "hex": "a914cf591d087eba8b112b16f1a1460060dba897148d87", "addresses": ["3LbNYxh1aq1JJ3go1Lohw9wDj5MfeGfyeE"], "asm": "OP_HASH160 cf591d087eba8b112b16f1a1460060dba897148d OP_EQUAL", "type": "scripthash"}, "value": 0.00702909, "n": 1}], "hex": "010000000001013fdd3984fdec03d5378c1a68c87bf222384e09c4f06da6bab1f87480d7e948030100000000ffffffff025e720000000000001600146c4cb06d46c3a41c51597a7cc6b2ccf0ca80b11ebdb90a000000000017a914cf591d087eba8b112b16f1a1460060dba897148d870247304402203c9e988746d00c6b21efbedaabec5a1930e4d87c981e888229a4f5e76c4f12c1022024d9fcbba7a8782ca4b4c12e6d66bba7e998d713f48dbc60adbfe06096d79a86012102a78875ae3562346c230b3cf4bc9a5d88dc6a29ab9f36e1851b7759c09fac25b200000000", "vin": [{"txinwitness": ["304402203c9e988746d00c6b21efbedaabec5a1930e4d87c981e888229a4f5e76c4f12c1022024d9fcbba7a8782ca4b4c12e6d66bba7e998d713f48dbc60adbfe06096d79a8601", "02a78875ae3562346c230b3cf4bc9a5d88dc6a29ab9f36e1851b7759c09fac25b2"], "sequence": 4294967295, "scriptSig": {"hex": "", "asm": ""}, "vout": 1, "txid": "0348e9d78074f8b1baa66df0c4094e3822f27bc8681a8c37d503ecfd8439dd3f"}], "txid": "de303a0c299289f39a22cd919d0f7ce7610c5860047f6b1cdbf97d314a190663", "blocktime": 1537870928, "version": 1, "confirmations": 11513, "time": 1537870928, "locktime": 0, "vsize": 142, "size": 223}