{"hash": "de3388c3309123390d4c5531c7e7e33d8ea7e356e342d9397ebaa57bac32f821", "blockhash": "0000000000000000000e13cef7c366c0283d82e591d1acd082e914b08063cdf1", "vout": [{"scriptPubKey": {"reqSigs": 1, "hex": "76a914efa9c1631c3e7636a9b83e7154cb13b1b0020a5188ac", "addresses": ["1NrDrfKh2sjmQBAexBMvpGF9ZqEufRPRks"], "asm": "OP_DUP OP_HASH160 efa9c1631c3e7636a9b83e7154cb13b1b0020a51 OP_EQUALVERIFY OP_CHECKSIG", "type": "pubkeyhash"}, "value": 0.0058434, "n": 0}, {"scriptPubKey": {"reqSigs": 1, "hex": "76a91467e4a4d8a615b434b7e6a19419a2dce83ce8837288ac", "addresses": ["1AULWDcBFmFrX3uf6gG165h1VWFE5SGspM"], "asm": "OP_DUP OP_HASH160 67e4a4d8a615b434b7e6a19419a2dce83ce88372 OP_EQUALVERIFY OP_CHECKSIG", "type": "pubkeyhash"}, "value": 0.00800845, "n": 1}], "hex": "010000000114513f374744045764d426a17f75cdc1c01ad60d7a8a701a95a1f5cdb325d442010000006b483045022100db1ffb5b49f1ed32a8486830fb9c38d2cca445848abce92fd612c4af52ecddcb0220711a77bd6ed25276be7ef4337c3078ab1221191c26d2c3505c8e1ae5bf93a8b7012103c6a5bb5239ae8bd1fa0a3105fb08e51dd718ea9b7761d03c55f6d351957d782affffffff0294ea0800000000001976a914efa9c1631c3e7636a9b83e7154cb13b1b0020a5188ac4d380c00000000001976a91467e4a4d8a615b434b7e6a19419a2dce83ce8837288ac00000000", "vin": [{"sequence": 4294967295, "scriptSig": {"hex": "483045022100db1ffb5b49f1ed32a8486830fb9c38d2cca445848abce92fd612c4af52ecddcb0220711a77bd6ed25276be7ef4337c3078ab1221191c26d2c3505c8e1ae5bf93a8b7012103c6a5bb5239ae8bd1fa0a3105fb08e51dd718ea9b7761d03c55f6d351957d782a", "asm": "3045022100db1ffb5b49f1ed32a8486830fb9c38d2cca445848abce92fd612c4af52ecddcb0220711a77bd6ed25276be7ef4337c3078ab1221191c26d2c3505c8e1ae5bf93a8b7[ALL] 03c6a5bb5239ae8bd1fa0a3105fb08e51dd718ea9b7761d03c55f6d351957d782a"}, "vout": 1, "txid": "42d425b3cdf5a1951a708a7a0dd61ac0c1cd757fa126d46457044447373f5114"}], "txid": "de3388c3309123390d4c5531c7e7e33d8ea7e356e342d9397ebaa57bac32f821", "blocktime": 1537871767, "version": 1, "confirmations": 11493, "time": 1537871767, "locktime": 0, "vsize": 226, "size": 226}