{"hash": "de376ce85d61e7a47ce6418505af6ae2a4ecc29d79218443029688017a74006d", "blockhash": "0000000000000000000e13cef7c366c0283d82e591d1acd082e914b08063cdf1", "vout": [{"scriptPubKey": {"type": "nulldata", "hex": "6a4c500000779900017c038179860f3e5d945bd11ae3ef3236678a625097bcbefa6b8351586b4ed902b191a16717d951b634efeebbfc6b5baa0d420614f81402a269ed1d100759d4ba30d2c37bb011d97e02cf", "asm": "OP_RETURN 0000779900017c038179860f3e5d945bd11ae3ef3236678a625097bcbefa6b8351586b4ed902b191a16717d951b634efeebbfc6b5baa0d420614f81402a269ed1d100759d4ba30d2c37bb011d97e02cf"}, "value": 0.0, "n": 0}, {"scriptPubKey": {"reqSigs": 1, "hex": "76a91441cd85d93716ebcbec64e26251d6ed9ecdf1725288ac", "addresses": ["16zw8SuVxgxtWkm4cdmyocGgyBqsoUtPBn"], "asm": "OP_DUP OP_HASH160 41cd85d93716ebcbec64e26251d6ed9ecdf17252 OP_EQUALVERIFY OP_CHECKSIG", "type": "pubkeyhash"}, "value": 0.00642756, "n": 1}], "hex": "0100000001e9af3ae14e11f841aaa09b10ec45bcfcef4888f076525093fc4bbcd48d92afc9000000006a47304402202102e2475d5a37b4bb262e8fe2682f75e547b6ad36aa40fd6a5816547b5a309d022056551501d28ae66a8074ae2c72c386befce68522398a2036518b94e30496eb0c0121022413028b4890f41e318c511ae674f54861f586758709698c0d413882998d9f50ffffffff020000000000000000536a4c500000779900017c038179860f3e5d945bd11ae3ef3236678a625097bcbefa6b8351586b4ed902b191a16717d951b634efeebbfc6b5baa0d420614f81402a269ed1d100759d4ba30d2c37bb011d97e02cfc4ce0900000000001976a91441cd85d93716ebcbec64e26251d6ed9ecdf1725288ac00000000", "vin": [{"sequence": 4294967295, "scriptSig": {"hex": "47304402202102e2475d5a37b4bb262e8fe2682f75e547b6ad36aa40fd6a5816547b5a309d022056551501d28ae66a8074ae2c72c386befce68522398a2036518b94e30496eb0c0121022413028b4890f41e318c511ae674f54861f586758709698c0d413882998d9f50", "asm": "304402202102e2475d5a37b4bb262e8fe2682f75e547b6ad36aa40fd6a5816547b5a309d022056551501d28ae66a8074ae2c72c386befce68522398a2036518b94e30496eb0c[ALL] 022413028b4890f41e318c511ae674f54861f586758709698c0d413882998d9f50"}, "vout": 0, "txid": "c9af928dd4bc4bfc93505276f08848effcbc45ec109ba0aa41f8114ee13aafe9"}], "txid": "de376ce85d61e7a47ce6418505af6ae2a4ecc29d79218443029688017a74006d", "blocktime": 1537871767, "version": 1, "confirmations": 11495, "time": 1537871767, "locktime": 0, "vsize": 283, "size": 283}