{"hash": "6ac5ba783e7c466a756a0ddfa0587009fd4195576439d666b082a1fd4e999e6d", "blockhash": "0000000000000000001f76057863aec43deb6fa401d9628bb513d65a8098bfab", "vout": [{"scriptPubKey": {"reqSigs": 1, "hex": "76a914f0cbd95646405f72339a71f6cb4454fb5624d06588ac", "addresses": ["1NxDNiRfiRAdvrDGu9gftPdLmdAN7t1awn"], "asm": "OP_DUP OP_HASH160 f0cbd95646405f72339a71f6cb4454fb5624d065 OP_EQUALVERIFY OP_CHECKSIG", "type": "pubkeyhash"}, "value": 0.0027516, "n": 0}, {"scriptPubKey": {"reqSigs": 1, "hex": "a91438d449b1008134de21b9671abd8a4bcd3baa876887", "addresses": ["36sW5JendrQU9fxmQTF1grvnmrGzY6nMfG"], "asm": "OP_HASH160 38d449b1008134de21b9671abd8a4bcd3baa8768 OP_EQUAL", "type": "scripthash"}, "value": 0.0107794, "n": 1}], "hex": "02000000000102bf34756785a2065b9e0699a6d8e5f414d86e0ca5aaa726de9ad19818c62581e80400000017160014d1f72567a09b9022132db374c4ad17fb17ff8900feffffffd3853633de1f5807108e75c07b2921be8868f18d47ac03ba9216bf838bf15c770100000017160014aa59dc74ab3bcf41607a5880e84ab3859f2ef2eafeffffff02d8320400000000001976a914f0cbd95646405f72339a71f6cb4454fb5624d06588acb47210000000000017a91438d449b1008134de21b9671abd8a4bcd3baa87688702483045022100e7380845e6bfe7bfe1aa79028be5b08a17e9cd615b764b85b9bf5ce2670dbcd002207ae099e712023a80167da89fed9d5ffe6cbd6f5e0295d51bc59cda3c880247ef012103fc5b403da03ef5306110b672e5f22b5455b0529b2d5366fdf2e2dd0559a0022302483045022100eb7e252ae1038ed809087273349ddfd65981c1a0cf8299ffb71e03e380613d0602202f6dff2866cfab0211d16124f85a0de17db5bd2c1b796b4dcbc2aa01a46438a801210377bbf85fa3647982e6aa00dd62aa9da055a77e95a9ec9a35bab38bd4be87bc800a490800", "vin": [{"txinwitness": ["3045022100e7380845e6bfe7bfe1aa79028be5b08a17e9cd615b764b85b9bf5ce2670dbcd002207ae099e712023a80167da89fed9d5ffe6cbd6f5e0295d51bc59cda3c880247ef01", "03fc5b403da03ef5306110b672e5f22b5455b0529b2d5366fdf2e2dd0559a00223"], "sequence": 4294967294, "scriptSig": {"hex": "160014d1f72567a09b9022132db374c4ad17fb17ff8900", "asm": "0014d1f72567a09b9022132db374c4ad17fb17ff8900"}, "vout": 4, "txid": "e88125c61898d19ade26a7aaa50c6ed814f4e5d8a699069e5b06a285677534bf"}, {"txinwitness": ["3045022100eb7e252ae1038ed809087273349ddfd65981c1a0cf8299ffb71e03e380613d0602202f6dff2866cfab0211d16124f85a0de17db5bd2c1b796b4dcbc2aa01a46438a801", "0377bbf85fa3647982e6aa00dd62aa9da055a77e95a9ec9a35bab38bd4be87bc80"], "sequence": 4294967294, "scriptSig": {"hex": "160014aa59dc74ab3bcf41607a5880e84ab3859f2ef2ea", "asm": "0014aa59dc74ab3bcf41607a5880e84ab3859f2ef2ea"}, "vout": 1, "txid": "775cf18b83bf1692ba03ac478df16888be21297bc0758e1007581fde333685d3"}], "txid": "de3ad1d335e9d49ffa127477733d54177b6ecb5923ad5caa1e97e2b613b234d0", "blocktime": 1537873891, "version": 2, "confirmations": 11478, "time": 1537873891, "locktime": 542986, "vsize": 259, "size": 422}