{"hash": "de4f15e4f8376b493b800f161fabff73ee865a3ec73f3a5c5357d96188087490", "blockhash": "00000000000000000004ffacab907a6b429b9a5745fa0b75af4234bf69dd7176", "vout": [{"scriptPubKey": {"reqSigs": 1, "hex": "a91483f393704af4a0716a444a6ef1ed896bf60d641387", "addresses": ["3DiiEdG8kACjSwbR7BQ3BBMBdGYRQT19rM"], "asm": "OP_HASH160 83f393704af4a0716a444a6ef1ed896bf60d6413 OP_EQUAL", "type": "scripthash"}, "value": 0.01749992, "n": 0}, {"scriptPubKey": {"reqSigs": 1, "hex": "76a9146e713b539c0ede20ff47cbeb5c4be0ebe3033d0588ac", "addresses": ["1B4xyah684tQCNWvV5dpNU5SZSNbNxf8KQ"], "asm": "OP_DUP OP_HASH160 6e713b539c0ede20ff47cbeb5c4be0ebe3033d05 OP_EQUALVERIFY OP_CHECKSIG", "type": "pubkeyhash"}, "value": 0.652203, "n": 1}], "hex": "0100000001758a5ec4b8673aacd80dc62509a29fee9d9506d1b470ced613c3f0078e2149951b0000006a4730440220483c7f6f402d865520a7c0b4c19b9f653ad0012bede7c41b9186c13cb6d9756a022031a4b7600b97f743e61dc51a4f3b5ec498ff77939a64b81ac1ee4eba935aad370121034f4ca62a22f6592f1cc69cc4c5895fdb0a37ffa8cea0f17df96662a82c8afd8cffffffff02e8b31a000000000017a91483f393704af4a0716a444a6ef1ed896bf60d641387cc2ee303000000001976a9146e713b539c0ede20ff47cbeb5c4be0ebe3033d0588ac00000000", "vin": [{"sequence": 4294967295, "scriptSig": {"hex": "4730440220483c7f6f402d865520a7c0b4c19b9f653ad0012bede7c41b9186c13cb6d9756a022031a4b7600b97f743e61dc51a4f3b5ec498ff77939a64b81ac1ee4eba935aad370121034f4ca62a22f6592f1cc69cc4c5895fdb0a37ffa8cea0f17df96662a82c8afd8c", "asm": "30440220483c7f6f402d865520a7c0b4c19b9f653ad0012bede7c41b9186c13cb6d9756a022031a4b7600b97f743e61dc51a4f3b5ec498ff77939a64b81ac1ee4eba935aad37[ALL] 034f4ca62a22f6592f1cc69cc4c5895fdb0a37ffa8cea0f17df96662a82c8afd8c"}, "vout": 27, "txid": "9549218e07f0c313d6ce70b4d106959dee9fa20925c60dd8ac3a67b8c45e8a75"}], "txid": "de4f15e4f8376b493b800f161fabff73ee865a3ec73f3a5c5357d96188087490", "blocktime": 1537875543, "version": 1, "confirmations": 11464, "time": 1537875543, "locktime": 0, "vsize": 223, "size": 223}