{"hash": "de538381fdf67f63290d689cc88249662194a695aa4252282e8a456fb3522f19", "blockhash": "0000000000000000001cda96e906b7601b7a6fb1a3b62bca570a9e5d8f4b3de1", "vout": [{"scriptPubKey": {"reqSigs": 1, "hex": "a914a8106b325dc63dde7b604f0b40b3212f37a32e7487", "addresses": ["3H1f7ZjMHNPiZpEaeTwBnVMEyyBLzi4jhM"], "asm": "OP_HASH160 a8106b325dc63dde7b604f0b40b3212f37a32e74 OP_EQUAL", "type": "scripthash"}, "value": 0.02308582, "n": 0}, {"scriptPubKey": {"reqSigs": 1, "hex": "76a91488dbaa5429fbe489e09b1f0206adaaec55784ea688ac", "addresses": ["1DUe3hswzAH28Hn1gr8Cs33ymgiw5EJc6Q"], "asm": "OP_DUP OP_HASH160 88dbaa5429fbe489e09b1f0206adaaec55784ea6 OP_EQUALVERIFY OP_CHECKSIG", "type": "pubkeyhash"}, "value": 9.976e-05, "n": 1}], "hex": "01000000042607770a590e526df2fd9b56a57b29c9164faa80cfbb184c190383141f0ec3641d000000da0047304402206f811cd0c941da41c534ee4225138bc9f8314f805e603ba5ec96a5a1ab5efb5c02206a3dc5f5ebc1bd33a61bd62062cc0938f11b49f7c3d9ead7a42c2f59cc8404b701483045022100eb8c7de577b8f1a8d61554476a3e71d1db81f66d334f81cfd51aced80d3d628002201a37ca848588d910e7e21075fe0cbc2d49753d13fbd3e97b172461a4989a32100147522102907a54bed8ad74b3f35638c60114ca240a308cb986f3f2f306178869a8880b6121029f649d6631072ee064a92fa02fb31811e58e2ebb049c141e621a03760fae9f8352aeffffffff99847a1dc5bb9247ae8a87d94caae733a07717267b1387d817519d4157db538e2b000000da0048304502210095c2bf320d8502a0ed82c043b1c2d703be0777b7337ad5587f8c2504c8a023060220143d9aa0cb5951fd490a96399503c498b4a52fc28a71fab23790977a5633c1bc014730440220624aa27a821ac28734b6ecc5727cb5165e29550a8405faa234d7017ded4f545d02200ecd4d5e6ceb06946693b14a82a67c389d0b06f4f68680d0ad6666db2f89f8d30147522102907a54bed8ad74b3f35638c60114ca240a308cb986f3f2f306178869a8880b61210304dfeeebf427b001c629dcd39c86261aeab813100d5d407b661cf518009d526452aeffffffffa3f024d1fece9a094aa23d21544c2e5915631a19d26867d572c7d8445c9bc43402000000db004830450221008a628ef13377f4e1dfc7bcc09767002abe63250c8e112ff3a9322a020c9335cb0220537bed78e82293790cfff482b59e65ebc6b9b972346d31edf53bdd59aad53b3b014830450221008e261af8d831cbf8834f9cbb8cc3d1cd89e88fb17b1713e32b28e26adc61e29f0220624fc531286d777bc97c313d433de7048b3185d6335ad7e9a6baf73905b7e05901475221029016f1457ba984d289e64d2ac6312b3602939d7bf4e26b394d9a68a0b9754ee42102907a54bed8ad74b3f35638c60114ca240a308cb986f3f2f306178869a8880b6152aeffffffff92137ea789411701247cfde44c0fbfbe596b7a6a615e9d44e350ace8721cd76b010000006a473044022065b50f08b5f317a758c22fedf9cf0eccf58d5dfe1688fc22708061d499c574ae02201d4bba93553af6e9cb37de39889deb3434df2bc4039901d1ce0fbe876aec6b750121021c09077c173252a8abb69e815ff9e7f02bf5b87a9dfd4af7c89888c759bd9322ffffffff02e63923000000000017a914a8106b325dc63dde7b604f0b40b3212f37a32e7487f8260000000000001976a91488dbaa5429fbe489e09b1f0206adaaec55784ea688ac00000000", "vin": [{"sequence": 4294967295, "scriptSig": {"hex": "0047304402206f811cd0c941da41c534ee4225138bc9f8314f805e603ba5ec96a5a1ab5efb5c02206a3dc5f5ebc1bd33a61bd62062cc0938f11b49f7c3d9ead7a42c2f59cc8404b701483045022100eb8c7de577b8f1a8d61554476a3e71d1db81f66d334f81cfd51aced80d3d628002201a37ca848588d910e7e21075fe0cbc2d49753d13fbd3e97b172461a4989a32100147522102907a54bed8ad74b3f35638c60114ca240a308cb986f3f2f306178869a8880b6121029f649d6631072ee064a92fa02fb31811e58e2ebb049c141e621a03760fae9f8352ae", "asm": "0 304402206f811cd0c941da41c534ee4225138bc9f8314f805e603ba5ec96a5a1ab5efb5c02206a3dc5f5ebc1bd33a61bd62062cc0938f11b49f7c3d9ead7a42c2f59cc8404b7[ALL] 3045022100eb8c7de577b8f1a8d61554476a3e71d1db81f66d334f81cfd51aced80d3d628002201a37ca848588d910e7e21075fe0cbc2d49753d13fbd3e97b172461a4989a3210[ALL] 522102907a54bed8ad74b3f35638c60114ca240a308cb986f3f2f306178869a8880b6121029f649d6631072ee064a92fa02fb31811e58e2ebb049c141e621a03760fae9f8352ae"}, "vout": 29, "txid": "64c30e1f148303194c18bbcf80aa4f16c9297ba5569bfdf26d520e590a770726"}, {"sequence": 4294967295, "scriptSig": {"hex": "0048304502210095c2bf320d8502a0ed82c043b1c2d703be0777b7337ad5587f8c2504c8a023060220143d9aa0cb5951fd490a96399503c498b4a52fc28a71fab23790977a5633c1bc014730440220624aa27a821ac28734b6ecc5727cb5165e29550a8405faa234d7017ded4f545d02200ecd4d5e6ceb06946693b14a82a67c389d0b06f4f68680d0ad6666db2f89f8d30147522102907a54bed8ad74b3f35638c60114ca240a308cb986f3f2f306178869a8880b61210304dfeeebf427b001c629dcd39c86261aeab813100d5d407b661cf518009d526452ae", "asm": "0 304502210095c2bf320d8502a0ed82c043b1c2d703be0777b7337ad5587f8c2504c8a023060220143d9aa0cb5951fd490a96399503c498b4a52fc28a71fab23790977a5633c1bc[ALL] 30440220624aa27a821ac28734b6ecc5727cb5165e29550a8405faa234d7017ded4f545d02200ecd4d5e6ceb06946693b14a82a67c389d0b06f4f68680d0ad6666db2f89f8d3[ALL] 522102907a54bed8ad74b3f35638c60114ca240a308cb986f3f2f306178869a8880b61210304dfeeebf427b001c629dcd39c86261aeab813100d5d407b661cf518009d526452ae"}, "vout": 43, "txid": "8e53db57419d5117d887137b261777a033e7aa4cd9878aae4792bbc51d7a8499"}, {"sequence": 4294967295, "scriptSig": {"hex": "004830450221008a628ef13377f4e1dfc7bcc09767002abe63250c8e112ff3a9322a020c9335cb0220537bed78e82293790cfff482b59e65ebc6b9b972346d31edf53bdd59aad53b3b014830450221008e261af8d831cbf8834f9cbb8cc3d1cd89e88fb17b1713e32b28e26adc61e29f0220624fc531286d777bc97c313d433de7048b3185d6335ad7e9a6baf73905b7e05901475221029016f1457ba984d289e64d2ac6312b3602939d7bf4e26b394d9a68a0b9754ee42102907a54bed8ad74b3f35638c60114ca240a308cb986f3f2f306178869a8880b6152ae", "asm": "0 30450221008a628ef13377f4e1dfc7bcc09767002abe63250c8e112ff3a9322a020c9335cb0220537bed78e82293790cfff482b59e65ebc6b9b972346d31edf53bdd59aad53b3b[ALL] 30450221008e261af8d831cbf8834f9cbb8cc3d1cd89e88fb17b1713e32b28e26adc61e29f0220624fc531286d777bc97c313d433de7048b3185d6335ad7e9a6baf73905b7e059[ALL] 5221029016f1457ba984d289e64d2ac6312b3602939d7bf4e26b394d9a68a0b9754ee42102907a54bed8ad74b3f35638c60114ca240a308cb986f3f2f306178869a8880b6152ae"}, "vout": 2, "txid": "34c49b5c44d8c772d56768d2191a6315592e4c54213da24a099acefed124f0a3"}, {"sequence": 4294967295, "scriptSig": {"hex": "473044022065b50f08b5f317a758c22fedf9cf0eccf58d5dfe1688fc22708061d499c574ae02201d4bba93553af6e9cb37de39889deb3434df2bc4039901d1ce0fbe876aec6b750121021c09077c173252a8abb69e815ff9e7f02bf5b87a9dfd4af7c89888c759bd9322", "asm": "3044022065b50f08b5f317a758c22fedf9cf0eccf58d5dfe1688fc22708061d499c574ae02201d4bba93553af6e9cb37de39889deb3434df2bc4039901d1ce0fbe876aec6b75[ALL] 021c09077c173252a8abb69e815ff9e7f02bf5b87a9dfd4af7c89888c759bd9322"}, "vout": 1, "txid": "6bd71c72e8ac50e3449d5e616a7a6b59bebf0f4ce4fd7c2401174189a77e1392"}], "txid": "de538381fdf67f63290d689cc88249662194a695aa4252282e8a456fb3522f19", "blocktime": 1537873282, "version": 1, "confirmations": 11484, "time": 1537873282, "locktime": 0, "vsize": 1001, "size": 1001}