{"hash": "a12460bfe307034304bab806e8511341d58b58b733094d7802f2ba3e15a89e0f", "blockhash": "00000000000000000004ffacab907a6b429b9a5745fa0b75af4234bf69dd7176", "vout": [{"scriptPubKey": {"reqSigs": 1, "hex": "76a91405b68906acbd3fc640957c37e5e7e42de0a8652088ac", "addresses": ["1XD3jQrW2hAFFLarLB3i8L6zjHgF7MjZr"], "asm": "OP_DUP OP_HASH160 05b68906acbd3fc640957c37e5e7e42de0a86520 OP_EQUALVERIFY OP_CHECKSIG", "type": "pubkeyhash"}, "value": 0.27160288, "n": 0}, {"scriptPubKey": {"reqSigs": 1, "hex": "76a914a5e7647c79f1b3a47e3bc59f46af36a7f62faf2c88ac", "addresses": ["1G8Dh61swvFR85AJP7PNMGF2TxSqzg8CdZ"], "asm": "OP_DUP OP_HASH160 a5e7647c79f1b3a47e3bc59f46af36a7f62faf2c OP_EQUALVERIFY OP_CHECKSIG", "type": "pubkeyhash"}, "value": 0.00076611, "n": 1}], "hex": "02000000000101585817f18f2bcffe54c9f967b757e73df5cd4eb08100b3421d0feff7b6b53c490000000017160014fb5ab9f21eac43c118583e2b0920ecb877c4ba0efeffffff02e06e9e01000000001976a91405b68906acbd3fc640957c37e5e7e42de0a8652088ac432b0100000000001976a914a5e7647c79f1b3a47e3bc59f46af36a7f62faf2c88ac024730440220286b47536b332051a7f4b3433778edd5d4908d48e00794d9994a543d9920a2e202207091d71f8d557f364106bfd7ac2efffe4839c1822a1556a1d04fc37a93c4794f01210319e61db139f845f7bc7174dd55fd9e1fecc0565bb5c586d08d3cb5e4cb7515b816490800", "vin": [{"txinwitness": ["30440220286b47536b332051a7f4b3433778edd5d4908d48e00794d9994a543d9920a2e202207091d71f8d557f364106bfd7ac2efffe4839c1822a1556a1d04fc37a93c4794f01", "0319e61db139f845f7bc7174dd55fd9e1fecc0565bb5c586d08d3cb5e4cb7515b8"], "sequence": 4294967294, "scriptSig": {"hex": "160014fb5ab9f21eac43c118583e2b0920ecb877c4ba0e", "asm": "0014fb5ab9f21eac43c118583e2b0920ecb877c4ba0e"}, "vout": 0, "txid": "493cb5b6f7ef0f1d42b30081b04ecdf53de757b767f9c954fecf2b8ff1175858"}], "txid": "de5c1ff8ec7b56641087848deaa60344bda02e3b699fa6f794695b9d45b2b45f", "blocktime": 1537875543, "version": 2, "confirmations": 11464, "time": 1537875543, "locktime": 542998, "vsize": 170, "size": 251}