{"hash": "de5edabfc4d688d5e0c95a6ef205264be1b9fdd211199a0a0d913a46fb9cd6b1", "blockhash": "00000000000000000024a2167bbff67b0be802c0b01cdd79e6331c2be6459f87", "vout": [{"scriptPubKey": {"reqSigs": 1, "hex": "76a914ab085076b08877a9f8d9a3313427d84da53f01b688ac", "addresses": ["1GbLWVWH5Z7ssRF5f33Lio6USPPruGaRpW"], "asm": "OP_DUP OP_HASH160 ab085076b08877a9f8d9a3313427d84da53f01b6 OP_EQUALVERIFY OP_CHECKSIG", "type": "pubkeyhash"}, "value": 0.001075, "n": 0}, {"scriptPubKey": {"type": "nulldata", "hex": "6a4c500000777d0001de4215b43db0a279af8825cebcbefa6b8351586b4e86aeaeacb577c031fc9c1e8c6132e0f3bf2d685b9279d73f765baa0a7f0614a37d269892c0bc9a9526289ac0f6612cd74e33776ee4", "asm": "OP_RETURN 0000777d0001de4215b43db0a279af8825cebcbefa6b8351586b4e86aeaeacb577c031fc9c1e8c6132e0f3bf2d685b9279d73f765baa0a7f0614a37d269892c0bc9a9526289ac0f6612cd74e33776ee4"}, "value": 0.0, "n": 1}], "hex": "01000000014ca400f6f39a898fe98ea16765cae49cf54cd84ed3304b0751ae1af6dd2bf17c000000006b483045022100a0e9f9fce17caa3708e4bde45edd598923c45fc787d0dbd3906668eb49e1602502204b4dd5e2415f38e92e96035befd81b6c55a0a713123f8632f9d99200afbf758e0121035fc3b446072060b4f380944233666f592a685b962385f3148e0e86994b5c2fc9ffffffff02eca30100000000001976a914ab085076b08877a9f8d9a3313427d84da53f01b688ac0000000000000000536a4c500000777d0001de4215b43db0a279af8825cebcbefa6b8351586b4e86aeaeacb577c031fc9c1e8c6132e0f3bf2d685b9279d73f765baa0a7f0614a37d269892c0bc9a9526289ac0f6612cd74e33776ee400000000", "vin": [{"sequence": 4294967295, "scriptSig": {"hex": "483045022100a0e9f9fce17caa3708e4bde45edd598923c45fc787d0dbd3906668eb49e1602502204b4dd5e2415f38e92e96035befd81b6c55a0a713123f8632f9d99200afbf758e0121035fc3b446072060b4f380944233666f592a685b962385f3148e0e86994b5c2fc9", "asm": "3045022100a0e9f9fce17caa3708e4bde45edd598923c45fc787d0dbd3906668eb49e1602502204b4dd5e2415f38e92e96035befd81b6c55a0a713123f8632f9d99200afbf758e[ALL] 035fc3b446072060b4f380944233666f592a685b962385f3148e0e86994b5c2fc9"}, "vout": 0, "txid": "7cf12bddf61aae51074b30d34ed84cf59ce4ca6567a18ee98f899af3f600a44c"}], "txid": "de5edabfc4d688d5e0c95a6ef205264be1b9fdd211199a0a0d913a46fb9cd6b1", "blocktime": 1537870564, "version": 1, "confirmations": 11515, "time": 1537870564, "locktime": 0, "vsize": 284, "size": 284}