{"hash": "de5ffd3dc19882feb82aea9ac243e3b44db9f7ec199a5a80f489bf07c9f27935", "blockhash": "0000000000000000001cda96e906b7601b7a6fb1a3b62bca570a9e5d8f4b3de1", "vout": [{"scriptPubKey": {"reqSigs": 1, "hex": "a914684daf15532c0dba6ad42b4154460fe29f72737587", "addresses": ["3BCXG4s934EWTJ8iCfo2E7YoiPiAjkyJSe"], "asm": "OP_HASH160 684daf15532c0dba6ad42b4154460fe29f727375 OP_EQUAL", "type": "scripthash"}, "value": 0.00204991, "n": 0}, {"scriptPubKey": {"reqSigs": 1, "hex": "76a914cce6c97921351c8cdf86d228de9fd187608c761388ac", "addresses": ["1KgRKVkCWfpRLbCHaodAXohewVhZkn4RHx"], "asm": "OP_DUP OP_HASH160 cce6c97921351c8cdf86d228de9fd187608c7613 OP_EQUALVERIFY OP_CHECKSIG", "type": "pubkeyhash"}, "value": 0.02467252, "n": 1}], "hex": "010000000155ca884188df6015a107636908302bc63b66ad19d5b3f6b8686faa601dc99d4f000000006a47304402201f1ad0b77abc8138ccc18b9afa473efc064f0c3f2b2f970ed9c34009c4c7e081022041a8ed605f161dac685fe026909615b3811bc084201f6771c770aae88a73c876012102ad96a3db4f06cb3f50d25b73dfba7b41b259f6e21b94d49c3f22adfbd4859f83ffffffff02bf2003000000000017a914684daf15532c0dba6ad42b4154460fe29f72737587b4a52500000000001976a914cce6c97921351c8cdf86d228de9fd187608c761388ac00000000", "vin": [{"sequence": 4294967295, "scriptSig": {"hex": "47304402201f1ad0b77abc8138ccc18b9afa473efc064f0c3f2b2f970ed9c34009c4c7e081022041a8ed605f161dac685fe026909615b3811bc084201f6771c770aae88a73c876012102ad96a3db4f06cb3f50d25b73dfba7b41b259f6e21b94d49c3f22adfbd4859f83", "asm": "304402201f1ad0b77abc8138ccc18b9afa473efc064f0c3f2b2f970ed9c34009c4c7e081022041a8ed605f161dac685fe026909615b3811bc084201f6771c770aae88a73c876[ALL] 02ad96a3db4f06cb3f50d25b73dfba7b41b259f6e21b94d49c3f22adfbd4859f83"}, "vout": 0, "txid": "4f9dc91d60aa6f68b8f6b3d519ad663bc62b3008696307a11560df884188ca55"}], "txid": "de5ffd3dc19882feb82aea9ac243e3b44db9f7ec199a5a80f489bf07c9f27935", "blocktime": 1537873282, "version": 1, "confirmations": 11484, "time": 1537873282, "locktime": 0, "vsize": 223, "size": 223}