{"hash": "de605c891158173109f7c36733f03616c67e815a83097dbe335ec87d310d4e41", "blockhash": "0000000000000000001f76057863aec43deb6fa401d9628bb513d65a8098bfab", "vout": [{"scriptPubKey": {"type": "nulldata", "hex": "6a4c50000077e30001887ee3febd18774bd779a4b07af8e8e963c7cfd5b95b23cc0f42c2fc38c5522519f5df268510f8e8fa9aa59c00095baa17080612819676dd69bcbc9a9526289ac0f6612cd74e33776ee4", "asm": "OP_RETURN 000077e30001887ee3febd18774bd779a4b07af8e8e963c7cfd5b95b23cc0f42c2fc38c5522519f5df268510f8e8fa9aa59c00095baa17080612819676dd69bcbc9a9526289ac0f6612cd74e33776ee4"}, "value": 0.0, "n": 0}, {"scriptPubKey": {"reqSigs": 1, "hex": "76a914e591b109d16cb1241fd263cfee1152d9832da32488ac", "addresses": ["1MvrGkr1Cmn5oPFwMCpNayc3JEC1EgDsCM"], "asm": "OP_DUP OP_HASH160 e591b109d16cb1241fd263cfee1152d9832da324 OP_EQUALVERIFY OP_CHECKSIG", "type": "pubkeyhash"}, "value": 0.0147264, "n": 1}], "hex": "01000000019d1cc00b7bc5df4e385a8b28c8f0abbf7991df34e34aeada26e82f55dfcde0b2000000006a47304402201b925ca460282a230e4261b06fc93291a1b4e70b4151abd09c3f0a69710be8e5022003f291b80c81774ba0844df05d47c7ca162a5c510e5fc1cb40fc73549174fc9601210318cebbb2dd8376332be34a864cc67ce0d17f2039b51dfb14a7500b4c2f8197caffffffff020000000000000000536a4c50000077e30001887ee3febd18774bd779a4b07af8e8e963c7cfd5b95b23cc0f42c2fc38c5522519f5df268510f8e8fa9aa59c00095baa17080612819676dd69bcbc9a9526289ac0f6612cd74e33776ee480781600000000001976a914e591b109d16cb1241fd263cfee1152d9832da32488ac00000000", "vin": [{"sequence": 4294967295, "scriptSig": {"hex": "47304402201b925ca460282a230e4261b06fc93291a1b4e70b4151abd09c3f0a69710be8e5022003f291b80c81774ba0844df05d47c7ca162a5c510e5fc1cb40fc73549174fc9601210318cebbb2dd8376332be34a864cc67ce0d17f2039b51dfb14a7500b4c2f8197ca", "asm": "304402201b925ca460282a230e4261b06fc93291a1b4e70b4151abd09c3f0a69710be8e5022003f291b80c81774ba0844df05d47c7ca162a5c510e5fc1cb40fc73549174fc96[ALL] 0318cebbb2dd8376332be34a864cc67ce0d17f2039b51dfb14a7500b4c2f8197ca"}, "vout": 0, "txid": "b2e0cddf552fe826daea4ae334df9179bfabf0c8288b5a384edfc57b0bc01c9d"}], "txid": "de605c891158173109f7c36733f03616c67e815a83097dbe335ec87d310d4e41", "blocktime": 1537873891, "version": 1, "confirmations": 11478, "time": 1537873891, "locktime": 0, "vsize": 283, "size": 283}