{"hash": "92e82f55cc2f6af14678e4c360ef9222a36b1cf724aa834007800426e37c887e", "blockhash": "00000000000000000004ffacab907a6b429b9a5745fa0b75af4234bf69dd7176", "vout": [{"scriptPubKey": {"reqSigs": 1, "hex": "76a914deccc84944987d119bfd08d4801c99841dd9d75e88ac", "addresses": ["1MK4L7evtaRkeCKYN11m8npegXHiPdZ874"], "asm": "OP_DUP OP_HASH160 deccc84944987d119bfd08d4801c99841dd9d75e OP_EQUALVERIFY OP_CHECKSIG", "type": "pubkeyhash"}, "value": 0.00172152, "n": 0}, {"scriptPubKey": {"reqSigs": 1, "hex": "a914cfaabfe8c271f99a4364b5197ba50c6cddb7adb987", "addresses": ["3Ld4M9RPwEG3VeQbHcC1PsKUndQL7VYLZP"], "asm": "OP_HASH160 cfaabfe8c271f99a4364b5197ba50c6cddb7adb9 OP_EQUAL", "type": "scripthash"}, "value": 0.1890872, "n": 1}], "hex": "01000000000101caba5fd9ea166cf61e4ffd9c1963a525db4f4246e7d08002781bc4fd80cb432d01000000232200202f7b4024602241b47d3306a6733d9889e4b6761d9f1cb82a18aa8b9ac4506e51ffffffff0278a00200000000001976a914deccc84944987d119bfd08d4801c99841dd9d75e88ac308620010000000017a914cfaabfe8c271f99a4364b5197ba50c6cddb7adb9870400483045022100b09d7f3b51bf669ca5ea5d51d5f7ef6d1ebaf26a55bc654527e1c4498d5ff6b402203ef9b391e6aa607d06893778e8627f3addfa4433d4be7eaf2c3a2fc7d59f65f801483045022100a38456073c0e68bff2e16f43d64fe1b95ab91fea4c49e5723f564e6ea6efa57202204520ae682b234990a129290ea6a9d66df5e75c2702d4c0d1083cdf9173c18ede0147522102973cd851fecff3a20f08377b072729f303801eee1b7678668338adcaec770ec221033e4af03ed09dbd8a417ba042650d5bd1db7f14f271a8f660974e3abf1fdfa4da52ae00000000", "vin": [{"txinwitness": ["", "3045022100b09d7f3b51bf669ca5ea5d51d5f7ef6d1ebaf26a55bc654527e1c4498d5ff6b402203ef9b391e6aa607d06893778e8627f3addfa4433d4be7eaf2c3a2fc7d59f65f801", "3045022100a38456073c0e68bff2e16f43d64fe1b95ab91fea4c49e5723f564e6ea6efa57202204520ae682b234990a129290ea6a9d66df5e75c2702d4c0d1083cdf9173c18ede01", "522102973cd851fecff3a20f08377b072729f303801eee1b7678668338adcaec770ec221033e4af03ed09dbd8a417ba042650d5bd1db7f14f271a8f660974e3abf1fdfa4da52ae"], "sequence": 4294967295, "scriptSig": {"hex": "2200202f7b4024602241b47d3306a6733d9889e4b6761d9f1cb82a18aa8b9ac4506e51", "asm": "00202f7b4024602241b47d3306a6733d9889e4b6761d9f1cb82a18aa8b9ac4506e51"}, "vout": 1, "txid": "2d43cb80fdc41b780280d0e746424fdb25a563199cfd4f1ef66c16ead95fbaca"}], "txid": "de6aa93f277d0d6e3e6831ac80053dc24819ae8f3207ff8290fcbeb30c246a4a", "blocktime": 1537875543, "version": 1, "confirmations": 11464, "time": 1537875543, "locktime": 0, "vsize": 208, "size": 374}