{"hash": "de6b6d79983aaa9880611d5e91f99f7a8921c402bd1e9c9a48b9e91cac96d7bc", "blockhash": "0000000000000000000e13cef7c366c0283d82e591d1acd082e914b08063cdf1", "vout": [{"scriptPubKey": {"reqSigs": 1, "hex": "76a914b174898e56333abf16dfb92403391afdeab69b7688ac", "addresses": ["1HBJD7MLxB8L3ARvE7uu3P3EEbNq5YEJnp"], "asm": "OP_DUP OP_HASH160 b174898e56333abf16dfb92403391afdeab69b76 OP_EQUALVERIFY OP_CHECKSIG", "type": "pubkeyhash"}, "value": 0.0001873, "n": 0}, {"scriptPubKey": {"reqSigs": 1, "hex": "76a914b527b916a6ead451ad0e03ebaa80bbd4204dc6ef88ac", "addresses": ["1HWrtiz5TnMAaEfoBy2M5WHpWPkfLKQ34T"], "asm": "OP_DUP OP_HASH160 b527b916a6ead451ad0e03ebaa80bbd4204dc6ef OP_EQUALVERIFY OP_CHECKSIG", "type": "pubkeyhash"}, "value": 0.01, "n": 1}], "hex": "010000000284b6083086f1ec4c196c4e9de653578f20fbb5e00a4c5a82d1e7dc58ba13b95b640000006a47304402204eb616627800aa4045fcfc57852dfdb38ae5d713444da8cb6aca3f97688d52ef0220046b824b9800c6bd951f5f74f34e0af787a1e2c695638943f1d0d6b49f15e3980121026fb1e26dd56ef3674e6f99ebae03d3d87acb86aeade75e1b48c8e951e9dcc062ffffffff94be55239cac701220f4d2e5a06c9b288b7cbcce4b23d3551d70333631bb3ca2000000006a47304402205d6e8328305a2a5979a032235d7a794b2721d920a246eb901bc895f7744f02ed02201086bfd64d2cfe4d7a441ace6c43c803b2335e9aeb9ba18879739f83d7d4134d01210292f3e285fd57762d93d5d954356473af53285c0d4c0efc1c123ec9229f75ce3affffffff022a490000000000001976a914b174898e56333abf16dfb92403391afdeab69b7688ac40420f00000000001976a914b527b916a6ead451ad0e03ebaa80bbd4204dc6ef88ac00000000", "vin": [{"sequence": 4294967295, "scriptSig": {"hex": "47304402204eb616627800aa4045fcfc57852dfdb38ae5d713444da8cb6aca3f97688d52ef0220046b824b9800c6bd951f5f74f34e0af787a1e2c695638943f1d0d6b49f15e3980121026fb1e26dd56ef3674e6f99ebae03d3d87acb86aeade75e1b48c8e951e9dcc062", "asm": "304402204eb616627800aa4045fcfc57852dfdb38ae5d713444da8cb6aca3f97688d52ef0220046b824b9800c6bd951f5f74f34e0af787a1e2c695638943f1d0d6b49f15e398[ALL] 026fb1e26dd56ef3674e6f99ebae03d3d87acb86aeade75e1b48c8e951e9dcc062"}, "vout": 100, "txid": "5bb913ba58dce7d1825a4c0ae0b5fb208f5753e69d4e6c194cecf1863008b684"}, {"sequence": 4294967295, "scriptSig": {"hex": "47304402205d6e8328305a2a5979a032235d7a794b2721d920a246eb901bc895f7744f02ed02201086bfd64d2cfe4d7a441ace6c43c803b2335e9aeb9ba18879739f83d7d4134d01210292f3e285fd57762d93d5d954356473af53285c0d4c0efc1c123ec9229f75ce3a", "asm": "304402205d6e8328305a2a5979a032235d7a794b2721d920a246eb901bc895f7744f02ed02201086bfd64d2cfe4d7a441ace6c43c803b2335e9aeb9ba18879739f83d7d4134d[ALL] 0292f3e285fd57762d93d5d954356473af53285c0d4c0efc1c123ec9229f75ce3a"}, "vout": 0, "txid": "a23cbb313633701d55d3234bcebc7c8b289b6ca0e5d2f4201270ac9c2355be94"}], "txid": "de6b6d79983aaa9880611d5e91f99f7a8921c402bd1e9c9a48b9e91cac96d7bc", "blocktime": 1537871767, "version": 1, "confirmations": 11495, "time": 1537871767, "locktime": 0, "vsize": 372, "size": 372}