{"hash": "9645f0d16863393102575d2f4a1884dc219e8b667ac4bc11104f5e94884022e7", "blockhash": "00000000000000000017f5eb5941039fbcee6240d03bc1f2f8e35350df66a1d8", "vout": [{"scriptPubKey": {"reqSigs": 1, "hex": "a91464eb9cbda9a63f963ad559c8d66c1faf35947bf087", "addresses": ["3AtdkMVvtSP97MN7qjcK1psPpgsezdYv14"], "asm": "OP_HASH160 64eb9cbda9a63f963ad559c8d66c1faf35947bf0 OP_EQUAL", "type": "scripthash"}, "value": 5.48862217, "n": 0}, {"scriptPubKey": {"reqSigs": 1, "hex": "76a91481b48aaa101bac0925381be44987d95af1e03b0288ac", "addresses": ["1CppT12Ly8Mj2bVbFmMbn1YZJ1StQ26rc7"], "asm": "OP_DUP OP_HASH160 81b48aaa101bac0925381be44987d95af1e03b02 OP_EQUALVERIFY OP_CHECKSIG", "type": "pubkeyhash"}, "value": 0.01, "n": 1}], "hex": "0200000000010101304a036b2f30a099ec38963eb5fb7d1f39cf42dfd568847856d7eaa3c41c19010000001716001487951ef76c14cd2b2538860a95d32eee629f98c5feffffff0209f9b6200000000017a91464eb9cbda9a63f963ad559c8d66c1faf35947bf08740420f00000000001976a91481b48aaa101bac0925381be44987d95af1e03b0288ac02483045022100d73ace03337bcbbb1bf7ddb0712c811389192cd0d6cd4e915f38c54681cf72e1022064210e4d092365309dff4e6f0b2d4d8a6ebbacb0a8680b8880295411759616b901210249c27f55e66a3c6716ae907a96a00119745b58a680ce257a9d8bcd54ead54ea515490800", "vin": [{"txinwitness": ["3045022100d73ace03337bcbbb1bf7ddb0712c811389192cd0d6cd4e915f38c54681cf72e1022064210e4d092365309dff4e6f0b2d4d8a6ebbacb0a8680b8880295411759616b901", "0249c27f55e66a3c6716ae907a96a00119745b58a680ce257a9d8bcd54ead54ea5"], "sequence": 4294967294, "scriptSig": {"hex": "16001487951ef76c14cd2b2538860a95d32eee629f98c5", "asm": "001487951ef76c14cd2b2538860a95d32eee629f98c5"}, "vout": 1, "txid": "191cc4a3ead756788468d5df42cf391f7dfbb53e9638ec99a0302f6b034a3001"}], "txid": "de72b7ad160f6e48e78e643bf0774308e752219ba46b91abcb9fc7ab446e62ce", "blocktime": 1537874412, "version": 2, "confirmations": 11468, "time": 1537874412, "locktime": 542997, "vsize": 168, "size": 250}