{"hash": "768b9e8927f1cf478e73c91ec84a235b165bb469a1c714fe32a4af6cdedcbaac", "blockhash": "00000000000000000004ffacab907a6b429b9a5745fa0b75af4234bf69dd7176", "vout": [{"scriptPubKey": {"reqSigs": 1, "hex": "a91428eb606bd986a0637c895b30850bc5da3c97834b87", "addresses": ["35RNvUPVZcxveeWcYww6ULPA1MmXoL8JHJ"], "asm": "OP_HASH160 28eb606bd986a0637c895b30850bc5da3c97834b OP_EQUAL", "type": "scripthash"}, "value": 0.041, "n": 0}, {"scriptPubKey": {"reqSigs": 1, "hex": "0020701a8d401c84fb13e6baf169d59684e17abd9fa216c8cc5b9fc63d622ff8c58d", "addresses": ["bc1qwqdg6squsna38e46795at95yu9atm8azzmyvckulcc7kytlcckxswvvzej"], "asm": "0 701a8d401c84fb13e6baf169d59684e17abd9fa216c8cc5b9fc63d622ff8c58d", "type": "witness_v0_scripthash"}, "value": 0.02707736, "n": 1}], "hex": "01000000000101b95cb2e74a941b8b64005ccceae5fd565f0d92b081cb36ffabe5a825962ee77c0200000000ffffffff02a08f3e000000000017a91428eb606bd986a0637c895b30850bc5da3c97834b871851290000000000220020701a8d401c84fb13e6baf169d59684e17abd9fa216c8cc5b9fc63d622ff8c58d0400483045022100c6515499c9ecd55471dbba5d5d7a6fa49d8b77b025c66af9e931a8bf3ceede18022005fe7820b7c396e44fdf00449c3fc623e9a505783ad5b3f9de90d1b3ef6adb4201483045022100c0a7f429103e02d79cb2638bc107002ced749b5860ed4cf76c019345c162d7fd0220617cff6e7cf98c89b286a0e2dc3b0bce78f91e0e8518e78cddb218ed9a8efd7f016952210375e00eb72e29da82b89367947f29ef34afb75e8654f6ea368e0acdfd92976b7c2103a1b26313f430c4b15bb1fdce663207659d8cac749a0e53d70eff01874496feff2103c96d495bfdd5ba4145e3e046fee45e84a8a48ad05bd8dbb395c011a32cf9f88053ae00000000", "vin": [{"txinwitness": ["", "3045022100c6515499c9ecd55471dbba5d5d7a6fa49d8b77b025c66af9e931a8bf3ceede18022005fe7820b7c396e44fdf00449c3fc623e9a505783ad5b3f9de90d1b3ef6adb4201", "3045022100c0a7f429103e02d79cb2638bc107002ced749b5860ed4cf76c019345c162d7fd0220617cff6e7cf98c89b286a0e2dc3b0bce78f91e0e8518e78cddb218ed9a8efd7f01", "52210375e00eb72e29da82b89367947f29ef34afb75e8654f6ea368e0acdfd92976b7c2103a1b26313f430c4b15bb1fdce663207659d8cac749a0e53d70eff01874496feff2103c96d495bfdd5ba4145e3e046fee45e84a8a48ad05bd8dbb395c011a32cf9f88053ae"], "sequence": 4294967295, "scriptSig": {"hex": "", "asm": ""}, "vout": 2, "txid": "7ce72e9625a8e5abff36cb81b0920d5f56fde5eacc5c00648b1b944ae7b25cb9"}], "txid": "de7615a9abdfeb024e959caad783aac853c8a1e7d6cb8dd4df2e3481ab85c963", "blocktime": 1537875543, "version": 1, "confirmations": 11464, "time": 1537875543, "locktime": 0, "vsize": 190, "size": 382}