{"hash": "7f129b71a7cbd8ba38c202d0b016171c3d2b1f702f62caf5dbf4506394e997d7", "blockhash": "0000000000000000001f76057863aec43deb6fa401d9628bb513d65a8098bfab", "vout": [{"scriptPubKey": {"reqSigs": 1, "hex": "76a9140a3195c50a139c1268b517078c4818eb7c3cee7288ac", "addresses": ["1vuA9XxA95fff3zonS6wemPTWBvQ16vN9"], "asm": "OP_DUP OP_HASH160 0a3195c50a139c1268b517078c4818eb7c3cee72 OP_EQUALVERIFY OP_CHECKSIG", "type": "pubkeyhash"}, "value": 0.0051556, "n": 0}, {"scriptPubKey": {"reqSigs": 1, "hex": "a914f8a1a5c022bdc8bb26d1923abbcb5ddab6fa7e1d87", "addresses": ["3QMf9acUhmkydupxeRJskN9UH3gpvoVu1r"], "asm": "OP_HASH160 f8a1a5c022bdc8bb26d1923abbcb5ddab6fa7e1d OP_EQUAL", "type": "scripthash"}, "value": 0.01003782, "n": 1}], "hex": "020000000001023ca0f03a93d4bc320ccc38cbe81c06e50a51e6cd782a05705e81914f1f0a1eb10100000017160014158c5516abc0c4f1cf849f19df01841f4a13da3efeffffff62584b8628e9284ab6561657186b3a21dff54d63795b63767417207f6b1c2cb003000000171600147c4ced66cdc975d95aafa045a29066184172bd12feffffff02e8dd0700000000001976a9140a3195c50a139c1268b517078c4818eb7c3cee7288ac06510f000000000017a914f8a1a5c022bdc8bb26d1923abbcb5ddab6fa7e1d87024730440220260426ecaa987f37f523ffd90565e065e740a91e5c33538baa1cd7452410442e0220662a71421cdd11f7f530b3fb6a8a2226c7bb3f4480ed2daac62480d74f34a47f0121027f5b146eca75ddb1e0823a8df4d2328f35ab8b5f4ee59236964871e7e4a7ec5102473044022047a8ca831128e58d9b3d4b8e25f83346a68f2dba21e52e64f7ca927d1b36a9e6022027d0bbfac299561268966a48dba0cbb374cbdc17e38c991bb788a195b1f615b301210249bd59cad66e9adb3f1646b1233ecd8c20310dfe935e5a1b7cf8b247775bec3714490800", "vin": [{"txinwitness": ["30440220260426ecaa987f37f523ffd90565e065e740a91e5c33538baa1cd7452410442e0220662a71421cdd11f7f530b3fb6a8a2226c7bb3f4480ed2daac62480d74f34a47f01", "027f5b146eca75ddb1e0823a8df4d2328f35ab8b5f4ee59236964871e7e4a7ec51"], "sequence": 4294967294, "scriptSig": {"hex": "160014158c5516abc0c4f1cf849f19df01841f4a13da3e", "asm": "0014158c5516abc0c4f1cf849f19df01841f4a13da3e"}, "vout": 1, "txid": "b11e0a1f4f91815e70052a78cde6510ae5061ce8cb38cc0c32bcd4933af0a03c"}, {"txinwitness": ["3044022047a8ca831128e58d9b3d4b8e25f83346a68f2dba21e52e64f7ca927d1b36a9e6022027d0bbfac299561268966a48dba0cbb374cbdc17e38c991bb788a195b1f615b301", "0249bd59cad66e9adb3f1646b1233ecd8c20310dfe935e5a1b7cf8b247775bec37"], "sequence": 4294967294, "scriptSig": {"hex": "1600147c4ced66cdc975d95aafa045a29066184172bd12", "asm": "00147c4ced66cdc975d95aafa045a29066184172bd12"}, "vout": 3, "txid": "b02c1c6b7f20177476635b79634df5df213a6b18571656b64a28e928864b5862"}], "txid": "de7a7930cf3142614cf5cc2d8c94a9762082a218fa96a3d99f1c5b9c2ad6fcbe", "blocktime": 1537873891, "version": 2, "confirmations": 11478, "time": 1537873891, "locktime": 542996, "vsize": 258, "size": 420}