{"hash": "de7a700114e36b5aeee11638c91b58b284591ead3c04ed42e369933b93f26e37", "blockhash": "0000000000000000001cda96e906b7601b7a6fb1a3b62bca570a9e5d8f4b3de1", "vout": [{"scriptPubKey": {"reqSigs": 1, "hex": "a914ee3d4bc469ef96a93f8f1b958d65672e8efb16c887", "addresses": ["3PQiB7nQ8LNPbnX6WqZ6waCZ1zCZ3itrjU"], "asm": "OP_HASH160 ee3d4bc469ef96a93f8f1b958d65672e8efb16c8 OP_EQUAL", "type": "scripthash"}, "value": 7e-05, "n": 0}], "hex": "020000000153169dcb96f55208404d3ebdff757d0dea85a3d87e7b96bf4678ee2b0969140117000000fdfd0000473044022028958fa0030ae7edc38950105d7b41c7b094d03d10eef80ab339a2f59a70ff06022049d1f102b0ce101130729c884292010e3cdf621ae0c0701747fa7fec7ee9d28001483045022100c0705eea7f441d36ac3569da813fd31623a656a300ce489c32fa414228ce2d2a02204718fd48d10f3aca1dceb700927a05b75bf875a407d6bb62d1d84ae5a1742168014c6952210341017a5dfcca22787eeb24209cd606267a0c7be4fd5c6cece503e1b344e85fa221022d1f421e913db8f5dacc25d20ede1a663ea7b16046cf3664cb1eb86f7f675e00210342c9b4bb18b601f983294053e7617459de92317890466ad39a730911ca99601153aeffffffff01581b00000000000017a914ee3d4bc469ef96a93f8f1b958d65672e8efb16c88700000000", "vin": [{"sequence": 4294967295, "scriptSig": {"hex": "00473044022028958fa0030ae7edc38950105d7b41c7b094d03d10eef80ab339a2f59a70ff06022049d1f102b0ce101130729c884292010e3cdf621ae0c0701747fa7fec7ee9d28001483045022100c0705eea7f441d36ac3569da813fd31623a656a300ce489c32fa414228ce2d2a02204718fd48d10f3aca1dceb700927a05b75bf875a407d6bb62d1d84ae5a1742168014c6952210341017a5dfcca22787eeb24209cd606267a0c7be4fd5c6cece503e1b344e85fa221022d1f421e913db8f5dacc25d20ede1a663ea7b16046cf3664cb1eb86f7f675e00210342c9b4bb18b601f983294053e7617459de92317890466ad39a730911ca99601153ae", "asm": "0 3044022028958fa0030ae7edc38950105d7b41c7b094d03d10eef80ab339a2f59a70ff06022049d1f102b0ce101130729c884292010e3cdf621ae0c0701747fa7fec7ee9d280[ALL] 3045022100c0705eea7f441d36ac3569da813fd31623a656a300ce489c32fa414228ce2d2a02204718fd48d10f3aca1dceb700927a05b75bf875a407d6bb62d1d84ae5a1742168[ALL] 52210341017a5dfcca22787eeb24209cd606267a0c7be4fd5c6cece503e1b344e85fa221022d1f421e913db8f5dacc25d20ede1a663ea7b16046cf3664cb1eb86f7f675e00210342c9b4bb18b601f983294053e7617459de92317890466ad39a730911ca99601153ae"}, "vout": 23, "txid": "011469092bee7846bf967b7ed8a385ea0d7d75ffbd3e4d400852f596cb9d1653"}], "txid": "de7a700114e36b5aeee11638c91b58b284591ead3c04ed42e369933b93f26e37", "blocktime": 1537873282, "version": 2, "confirmations": 11485, "time": 1537873282, "locktime": 0, "vsize": 338, "size": 338}