{"hash": "5d560e0b72fb0aca8b27dd306deb559aa2d7171c2f903ac775cf396627971819", "blockhash": "0000000000000000001f76057863aec43deb6fa401d9628bb513d65a8098bfab", "vout": [{"scriptPubKey": {"reqSigs": 1, "hex": "76a914c7027bc6f7e4f974a8435973e4d762f95ca13b5288ac", "addresses": ["1K9GSjQiu5zphG7uwscCRzngDeni8BHX1K"], "asm": "OP_DUP OP_HASH160 c7027bc6f7e4f974a8435973e4d762f95ca13b52 OP_EQUALVERIFY OP_CHECKSIG", "type": "pubkeyhash"}, "value": 0.034499, "n": 0}, {"scriptPubKey": {"reqSigs": 1, "hex": "a914dee0a1cc9f055700143e0f4ecee53180ab3530dc87", "addresses": ["3N1V2qWA5hpScEmS72pMooYRmXUiLmwPQQ"], "asm": "OP_HASH160 dee0a1cc9f055700143e0f4ecee53180ab3530dc OP_EQUAL", "type": "scripthash"}, "value": 0.43265126, "n": 1}], "hex": "020000000001019544f72d970113cdbd461787cb974ef78abe83d4f3d9423a2e26d3feeced74630100000017160014cb5dbe423de4d42b6425c6921084c6197a5d2937ffffffff022ca43400000000001976a914c7027bc6f7e4f974a8435973e4d762f95ca13b5288ac662c94020000000017a914dee0a1cc9f055700143e0f4ecee53180ab3530dc87024730440220602763f36d2929d179bfd3f61882bc4d097221ad89f6cadbc12aae6922a952ef02200f61d6dff5630ce033cb75fb3300fae5d0c9b4f6b1a81479f750eff2d85ba05c012102acecad485eda786cbe0422823b7594aea6854abb5ec85e267f1c4b87f3f758f700000000", "vin": [{"txinwitness": ["30440220602763f36d2929d179bfd3f61882bc4d097221ad89f6cadbc12aae6922a952ef02200f61d6dff5630ce033cb75fb3300fae5d0c9b4f6b1a81479f750eff2d85ba05c01", "02acecad485eda786cbe0422823b7594aea6854abb5ec85e267f1c4b87f3f758f7"], "sequence": 4294967295, "scriptSig": {"hex": "160014cb5dbe423de4d42b6425c6921084c6197a5d2937", "asm": "0014cb5dbe423de4d42b6425c6921084c6197a5d2937"}, "vout": 1, "txid": "6374edecfed3262e3a42d9f3d483be8af74e97cb871746bdcd1301972df74495"}], "txid": "de81f989a64e976449ff7517879bbc78f8e3ee2922701025dc864d5bbe24ebda", "blocktime": 1537873891, "version": 2, "confirmations": 11475, "time": 1537873891, "locktime": 0, "vsize": 168, "size": 249}