{"hash": "de83a0b8b47076ec75901fb024c5a221609a0f21d2da49c6419daf5b46f22cc6", "blockhash": "0000000000000000000e13cef7c366c0283d82e591d1acd082e914b08063cdf1", "vout": [{"scriptPubKey": {"reqSigs": 1, "hex": "76a9141f0bdde625311316143ab2d32070a9cb44c5e8fc88ac", "addresses": ["13qAAU2YF1bH1L97FbPZbX45fuZvJPLHr3"], "asm": "OP_DUP OP_HASH160 1f0bdde625311316143ab2d32070a9cb44c5e8fc OP_EQUALVERIFY OP_CHECKSIG", "type": "pubkeyhash"}, "value": 0.00026, "n": 0}, {"scriptPubKey": {"reqSigs": 1, "hex": "76a9145c590b1f2a8e9f758fa6ab9606d9daea9eb681a988ac", "addresses": ["19RHqVjS1H6KCmawoJuDSrAmM5aSZ1wWtQ"], "asm": "OP_DUP OP_HASH160 5c590b1f2a8e9f758fa6ab9606d9daea9eb681a9 OP_EQUALVERIFY OP_CHECKSIG", "type": "pubkeyhash"}, "value": 0.02023084, "n": 1}], "hex": "0100000002540f730a5a11861c61d9f774e4882194ff073cd6b05343c4da616d22a27e8030000000006b483045022100fa54954b70dad4e309e59a8d9d7482ccce348bb961ff12400fa685488091c0d602200fb20f3d90e4d2b1da76c0f8375cc5758a2ed5f0dee8d15a2f7e702d679c21c4012102663ec1fdb52d8a436baaa268b277195e4cadc5d858277fc6a72481372a98ef21feffffff571c4c7f50dd452c9e81b16f83058864d7280a06bcccb74b63ec9a37c29379b1010000006b483045022100814f217e7ee210ea7b32ed9ab80839d3ace7665da1cf4c0a679be65cab91756b022068d5d856043efb7e7b44d21929d91752c3c3d3cd88ccfcf58037e6f2ca08759d01210369bd3f43bacff783445ad9f181a958c0211fc97bf2a708a430cca843c8a06cbbfeffffff0290650000000000001976a9141f0bdde625311316143ab2d32070a9cb44c5e8fc88acacde1e00000000001976a9145c590b1f2a8e9f758fa6ab9606d9daea9eb681a988ac10490800", "vin": [{"sequence": 4294967294, "scriptSig": {"hex": "483045022100fa54954b70dad4e309e59a8d9d7482ccce348bb961ff12400fa685488091c0d602200fb20f3d90e4d2b1da76c0f8375cc5758a2ed5f0dee8d15a2f7e702d679c21c4012102663ec1fdb52d8a436baaa268b277195e4cadc5d858277fc6a72481372a98ef21", "asm": "3045022100fa54954b70dad4e309e59a8d9d7482ccce348bb961ff12400fa685488091c0d602200fb20f3d90e4d2b1da76c0f8375cc5758a2ed5f0dee8d15a2f7e702d679c21c4[ALL] 02663ec1fdb52d8a436baaa268b277195e4cadc5d858277fc6a72481372a98ef21"}, "vout": 0, "txid": "30807ea2226d61dac44353b0d63c07ff942188e474f7d9611c86115a0a730f54"}, {"sequence": 4294967294, "scriptSig": {"hex": "483045022100814f217e7ee210ea7b32ed9ab80839d3ace7665da1cf4c0a679be65cab91756b022068d5d856043efb7e7b44d21929d91752c3c3d3cd88ccfcf58037e6f2ca08759d01210369bd3f43bacff783445ad9f181a958c0211fc97bf2a708a430cca843c8a06cbb", "asm": "3045022100814f217e7ee210ea7b32ed9ab80839d3ace7665da1cf4c0a679be65cab91756b022068d5d856043efb7e7b44d21929d91752c3c3d3cd88ccfcf58037e6f2ca08759d[ALL] 0369bd3f43bacff783445ad9f181a958c0211fc97bf2a708a430cca843c8a06cbb"}, "vout": 1, "txid": "b17993c2379aec634bb7ccbc060a28d7648805836fb1819e2c45dd507f4c1c57"}], "txid": "de83a0b8b47076ec75901fb024c5a221609a0f21d2da49c6419daf5b46f22cc6", "blocktime": 1537871767, "version": 1, "confirmations": 11490, "time": 1537871767, "locktime": 542992, "vsize": 374, "size": 374}