{"hash": "249557dc1a119ffc11bdd038bea3bec500cabf7dc1c370784e144cae14be1f1a", "blockhash": "0000000000000000001f0ddff1eddb255c1121bcd4da4f1bc9a0da00cae72433", "vout": [{"scriptPubKey": {"reqSigs": 1, "hex": "76a914d8b500270a7d5e816eb5ad995cd1309c115ab7f088ac", "addresses": ["1LkqnaUpcZ8hUVoPwu6u6onEmhTNtjgU5e"], "asm": "OP_DUP OP_HASH160 d8b500270a7d5e816eb5ad995cd1309c115ab7f0 OP_EQUALVERIFY OP_CHECKSIG", "type": "pubkeyhash"}, "value": 0.0108131, "n": 0}, {"scriptPubKey": {"reqSigs": 1, "hex": "a9140f3fce9747fc8756096c71faee7334b9e9e17c6887", "addresses": ["335eVoskLk6LmGzJ1FEefVXEoTCFo11f7w"], "asm": "OP_HASH160 0f3fce9747fc8756096c71faee7334b9e9e17c68 OP_EQUAL", "type": "scripthash"}, "value": 0.17540614, "n": 1}], "hex": "01000000000101708ba2636427a1e8771e889b0150270b3e6c3dfdab779dc5a134859f1e15062001000000232200204255f471b9a938c8ef53c440152f214ab37954c128b2b0e9373faf1d34bff651ffffffff02de7f1000000000001976a914d8b500270a7d5e816eb5ad995cd1309c115ab7f088ac06a60b010000000017a9140f3fce9747fc8756096c71faee7334b9e9e17c688704004730440220346f12e44db5aace8a9fe9ca599bf032dba43ac400b1a7a53ad3463ca30d8f3102207e374a22a5cf3f813fbd32b6db460fdfc801e24da052c789b69285047ee8ce21014730440220286c8239ac8c73d666a2f8401207d02899956dc3f8d97a9b662fe166df25095e022057b708201ea3106433ab40ffd7fffa641d4bdcdb9db1d7e4bc8416556f9a60740169522102b63f5282e4c726f38fc4f958ff7f24dcd8a747e23f142a8a4ca87173464b9d70210315de7049f75b410ae651dd408a63ab04d563b707e2019c2e0a09c76318ac8c052103f2f479ce93a4933c059d0b0072233f67894fdb661bdd0b3a344a2b8dfcf3acbb53ae00000000", "vin": [{"txinwitness": ["", "30440220346f12e44db5aace8a9fe9ca599bf032dba43ac400b1a7a53ad3463ca30d8f3102207e374a22a5cf3f813fbd32b6db460fdfc801e24da052c789b69285047ee8ce2101", "30440220286c8239ac8c73d666a2f8401207d02899956dc3f8d97a9b662fe166df25095e022057b708201ea3106433ab40ffd7fffa641d4bdcdb9db1d7e4bc8416556f9a607401", "522102b63f5282e4c726f38fc4f958ff7f24dcd8a747e23f142a8a4ca87173464b9d70210315de7049f75b410ae651dd408a63ab04d563b707e2019c2e0a09c76318ac8c052103f2f479ce93a4933c059d0b0072233f67894fdb661bdd0b3a344a2b8dfcf3acbb53ae"], "sequence": 4294967295, "scriptSig": {"hex": "2200204255f471b9a938c8ef53c440152f214ab37954c128b2b0e9373faf1d34bff651", "asm": "00204255f471b9a938c8ef53c440152f214ab37954c128b2b0e9373faf1d34bff651"}, "vout": 1, "txid": "2006151e9f8534a1c59d77abfd3d6c3e0b2750019b881e77e8a1276463a28b70"}], "txid": "de8cea956c0619ae639fa0522d8e764f8f8207c88ca0983605ceabdca0aee3da", "blocktime": 1537872018, "version": 1, "confirmations": 11489, "time": 1537872018, "locktime": 0, "vsize": 216, "size": 406}