{"hash": "de989a22e6033120279b46201f6f35d6606c854fc76028f9c339bd3d0cd5983c", "blockhash": "00000000000000000024a2167bbff67b0be802c0b01cdd79e6331c2be6459f87", "vout": [{"scriptPubKey": {"reqSigs": 1, "hex": "76a9143ca7c0ab34f3013343a8f664ff6e06eb3da03a7e88ac", "addresses": ["16XiWAcKjjR5JMwt5WZ9AWE4YLZp5JLtXK"], "asm": "OP_DUP OP_HASH160 3ca7c0ab34f3013343a8f664ff6e06eb3da03a7e OP_EQUALVERIFY OP_CHECKSIG", "type": "pubkeyhash"}, "value": 0.07812865, "n": 0}, {"scriptPubKey": {"reqSigs": 1, "hex": "76a91448a7a60a90e7406817e82192f26c0d0a1dca9bf488ac", "addresses": ["17dAVExWorvapZswho5uD5vg1fA2NPPmeY"], "asm": "OP_DUP OP_HASH160 48a7a60a90e7406817e82192f26c0d0a1dca9bf4 OP_EQUALVERIFY OP_CHECKSIG", "type": "pubkeyhash"}, "value": 0.204028, "n": 1}], "hex": "010000000183e33bc276f9e4083d0f77b8d21b19865bf679d5926bb65521c37b4065e14866000000006a47304402204acee4f5e7e4d5e45c23ab2761374fa3a10c724063935807e5aebe1f4674babd02204808ffe112498e7c0e03df7320433c72f4e2abcb6ed95b9accf9aecfd78a114b0121038e98415c615ae7b71e905c94f9eee8cb480ced81da285ec9edf2ac08929d3ab7ffffffff0201377700000000001976a9143ca7c0ab34f3013343a8f664ff6e06eb3da03a7e88ac70523701000000001976a91448a7a60a90e7406817e82192f26c0d0a1dca9bf488ac00000000", "vin": [{"sequence": 4294967295, "scriptSig": {"hex": "47304402204acee4f5e7e4d5e45c23ab2761374fa3a10c724063935807e5aebe1f4674babd02204808ffe112498e7c0e03df7320433c72f4e2abcb6ed95b9accf9aecfd78a114b0121038e98415c615ae7b71e905c94f9eee8cb480ced81da285ec9edf2ac08929d3ab7", "asm": "304402204acee4f5e7e4d5e45c23ab2761374fa3a10c724063935807e5aebe1f4674babd02204808ffe112498e7c0e03df7320433c72f4e2abcb6ed95b9accf9aecfd78a114b[ALL] 038e98415c615ae7b71e905c94f9eee8cb480ced81da285ec9edf2ac08929d3ab7"}, "vout": 0, "txid": "6648e165407bc32155b66b92d579f65b86191bd2b8770f3d08e4f976c23be383"}], "txid": "de989a22e6033120279b46201f6f35d6606c854fc76028f9c339bd3d0cd5983c", "blocktime": 1537870564, "version": 1, "confirmations": 11515, "time": 1537870564, "locktime": 0, "vsize": 225, "size": 225}