{"hash": "4faa0ec8a13b1ad7b1221031fe08b92a3da564b7e8428e713cd481df0a9776dd", "blockhash": "0000000000000000001f76057863aec43deb6fa401d9628bb513d65a8098bfab", "vout": [{"scriptPubKey": {"reqSigs": 1, "hex": "76a9146af4487619239d3ab92b01156e52acd98bfb5cea88ac", "addresses": ["1AkXGRFHF2yymEwoiPFaiBhKSwWQqEFnXt"], "asm": "OP_DUP OP_HASH160 6af4487619239d3ab92b01156e52acd98bfb5cea OP_EQUALVERIFY OP_CHECKSIG", "type": "pubkeyhash"}, "value": 0.0018266, "n": 0}, {"scriptPubKey": {"reqSigs": 1, "hex": "a9149c5668bad9b0921802e35b293d6973ccb1062af187", "addresses": ["3FwerH8U44shfFybTwfAcidNXmu5x42C5N"], "asm": "OP_HASH160 9c5668bad9b0921802e35b293d6973ccb1062af1 OP_EQUAL", "type": "scripthash"}, "value": 0.01170448, "n": 1}], "hex": "02000000000102a2a0dc1fa63c71e1f26a6787c7d178f730f8b9a512d36525dfa337c59157b050010000001716001411bc5bc23c4563d432ec24d4ddd6286ee5771e7bfeffffffd806391d52203081ab91d45528ce7e3253083f27dba81cf24c327041974862950600000017160014f2f0068a22ad36358452346ce7e93c753ae5aef0feffffff0284c90200000000001976a9146af4487619239d3ab92b01156e52acd98bfb5cea88ac10dc11000000000017a9149c5668bad9b0921802e35b293d6973ccb1062af18702483045022100ee12b8424226fcb9ebf07f671bd728a7ebd9faf6a15324a4fda4ed56bfd6390c02207f9724d7b87fc5561e283aa07c68eca32c38bc0a1dac5795e499777822480dce012103031917c05406f8ac0a53e1697bdddd9df9956ca2f4d242096ab05fea32e81bb702483045022100fc14d483bfb7d7d7c23681649358e08e84c71ee02102b2849d0864cd4108526e02202d81436da6ba025706163f6f72f69669db958b899121d4a3c6aca1008acb63170121023e1bd0f5195f9fb6b154ee83fc39dc7bdac40b4321dd05d57ba03ed3841b5f4414490800", "vin": [{"txinwitness": ["3045022100ee12b8424226fcb9ebf07f671bd728a7ebd9faf6a15324a4fda4ed56bfd6390c02207f9724d7b87fc5561e283aa07c68eca32c38bc0a1dac5795e499777822480dce01", "03031917c05406f8ac0a53e1697bdddd9df9956ca2f4d242096ab05fea32e81bb7"], "sequence": 4294967294, "scriptSig": {"hex": "16001411bc5bc23c4563d432ec24d4ddd6286ee5771e7b", "asm": "001411bc5bc23c4563d432ec24d4ddd6286ee5771e7b"}, "vout": 1, "txid": "50b05791c537a3df2565d312a5b9f830f778d1c787676af2e1713ca61fdca0a2"}, {"txinwitness": ["3045022100fc14d483bfb7d7d7c23681649358e08e84c71ee02102b2849d0864cd4108526e02202d81436da6ba025706163f6f72f69669db958b899121d4a3c6aca1008acb631701", "023e1bd0f5195f9fb6b154ee83fc39dc7bdac40b4321dd05d57ba03ed3841b5f44"], "sequence": 4294967294, "scriptSig": {"hex": "160014f2f0068a22ad36358452346ce7e93c753ae5aef0", "asm": "0014f2f0068a22ad36358452346ce7e93c753ae5aef0"}, "vout": 6, "txid": "956248974170324cf21ca8db273f0853327ece2855d491ab813020521d3906d8"}], "txid": "de9c5be7e51b8769762c0c4a351e376834b2b0243e71058bd24c2048b2e28f1a", "blocktime": 1537873891, "version": 2, "confirmations": 11478, "time": 1537873891, "locktime": 542996, "vsize": 259, "size": 422}