{"hash": "dea1fb2657cbf8c78f40cd029f13eb816c0ace57f7030290fe98f9e0955a19be", "blockhash": "0000000000000000001f76057863aec43deb6fa401d9628bb513d65a8098bfab", "vout": [{"scriptPubKey": {"type": "nulldata", "hex": "6a4c50000077e20001f8fb869647df387a71663dc57af8e8e963c7cfd5b95b23cc0f42c2fc38c5c153fe2502fe1657337ef23ea47cf7a35baa16d60612aea269f834541d100759d4ba30d2c37bb011d97e02cf", "asm": "OP_RETURN 000077e20001f8fb869647df387a71663dc57af8e8e963c7cfd5b95b23cc0f42c2fc38c5c153fe2502fe1657337ef23ea47cf7a35baa16d60612aea269f834541d100759d4ba30d2c37bb011d97e02cf"}, "value": 0.0, "n": 0}, {"scriptPubKey": {"reqSigs": 1, "hex": "76a91409de0d8a50953c493a6c54e310a48077fd2f058588ac", "addresses": ["1uB6ET2K5Sxk2BUa7MLSeTHKAAycPZBnh"], "asm": "OP_DUP OP_HASH160 09de0d8a50953c493a6c54e310a48077fd2f0585 OP_EQUALVERIFY OP_CHECKSIG", "type": "pubkeyhash"}, "value": 0.00635794, "n": 1}], "hex": "010000000121ab9a68a45d6532cce27ed5d8532c42699bff9262adf7e7e16dc2bb70b4bfb3000000006b483045022100933576228d54c2d0fea15355d02cc02bd9cb31eb147bdea22b8219e9c0ac297202203ac33d36af8dc79f748135b98564c569c348ea0fa9894326f01f76a9ff8995020121027a856683584fa727e30fbc08ddb96b6c2eef1fb27c479a375dfb34e536c61a9fffffffff020000000000000000536a4c50000077e20001f8fb869647df387a71663dc57af8e8e963c7cfd5b95b23cc0f42c2fc38c5c153fe2502fe1657337ef23ea47cf7a35baa16d60612aea269f834541d100759d4ba30d2c37bb011d97e02cf92b30900000000001976a91409de0d8a50953c493a6c54e310a48077fd2f058588ac00000000", "vin": [{"sequence": 4294967295, "scriptSig": {"hex": "483045022100933576228d54c2d0fea15355d02cc02bd9cb31eb147bdea22b8219e9c0ac297202203ac33d36af8dc79f748135b98564c569c348ea0fa9894326f01f76a9ff8995020121027a856683584fa727e30fbc08ddb96b6c2eef1fb27c479a375dfb34e536c61a9f", "asm": "3045022100933576228d54c2d0fea15355d02cc02bd9cb31eb147bdea22b8219e9c0ac297202203ac33d36af8dc79f748135b98564c569c348ea0fa9894326f01f76a9ff899502[ALL] 027a856683584fa727e30fbc08ddb96b6c2eef1fb27c479a375dfb34e536c61a9f"}, "vout": 0, "txid": "b3bfb470bbc26de1e7f7ad6292ff9b69422c53d8d57ee2cc32655da4689aab21"}], "txid": "dea1fb2657cbf8c78f40cd029f13eb816c0ace57f7030290fe98f9e0955a19be", "blocktime": 1537873891, "version": 1, "confirmations": 11478, "time": 1537873891, "locktime": 0, "vsize": 284, "size": 284}