{"hash": "dea2989fd88ef1a6aff7c4fd29a805cb341e12add7ff626724a272b3b1ecfe0f", "blockhash": "00000000000000000004ffacab907a6b429b9a5745fa0b75af4234bf69dd7176", "vout": [{"scriptPubKey": {"reqSigs": 1, "hex": "76a914f1f7bbaa7c256ebfa616a6d8531dedd936617fbb88ac", "addresses": ["1P4Qd2YW1nCsVF4b9t25qiTmaQ4c4zWijM"], "asm": "OP_DUP OP_HASH160 f1f7bbaa7c256ebfa616a6d8531dedd936617fbb OP_EQUALVERIFY OP_CHECKSIG", "type": "pubkeyhash"}, "value": 0.0016018, "n": 0}, {"scriptPubKey": {"reqSigs": 1, "hex": "76a914e3d7bc86a373f7bd24b770893f02e9d7f93f909788ac", "addresses": ["1MmiqBB54NaqBEEzVp49CXWcxDo588vhon"], "asm": "OP_DUP OP_HASH160 e3d7bc86a373f7bd24b770893f02e9d7f93f9097 OP_EQUALVERIFY OP_CHECKSIG", "type": "pubkeyhash"}, "value": 0.06833843, "n": 1}], "hex": "0100000001c2238bd2bf37ec64ce6363234a840b4816e2b5f7df9e56bb45489e841538a4db010000006a473044022061129a2466b1db93cf0187beb6af0b372a1dd56cf54049e7c1c080d7fecaa96d022030131f531d293b9a22efa5da052b4c10656cc3f4fb4e21895d62de8ccad2dc7e012102ab0869158fb02015c69b66471244f52415ae2c9a5c1e06d97cbb5f844397e34effffffff02b4710200000000001976a914f1f7bbaa7c256ebfa616a6d8531dedd936617fbb88acb3466800000000001976a914e3d7bc86a373f7bd24b770893f02e9d7f93f909788ac00000000", "vin": [{"sequence": 4294967295, "scriptSig": {"hex": "473044022061129a2466b1db93cf0187beb6af0b372a1dd56cf54049e7c1c080d7fecaa96d022030131f531d293b9a22efa5da052b4c10656cc3f4fb4e21895d62de8ccad2dc7e012102ab0869158fb02015c69b66471244f52415ae2c9a5c1e06d97cbb5f844397e34e", "asm": "3044022061129a2466b1db93cf0187beb6af0b372a1dd56cf54049e7c1c080d7fecaa96d022030131f531d293b9a22efa5da052b4c10656cc3f4fb4e21895d62de8ccad2dc7e[ALL] 02ab0869158fb02015c69b66471244f52415ae2c9a5c1e06d97cbb5f844397e34e"}, "vout": 1, "txid": "dba43815849e4845bb569edff7b5e216480b844a236363ce64ec37bfd28b23c2"}], "txid": "dea2989fd88ef1a6aff7c4fd29a805cb341e12add7ff626724a272b3b1ecfe0f", "blocktime": 1537875543, "version": 1, "confirmations": 11464, "time": 1537875543, "locktime": 0, "vsize": 225, "size": 225}