{"hash": "dea31e1f0ec06e0645e531e0f5726d7e5424fcfca548107cfd72e7f1e339b6ca", "blockhash": "0000000000000000000baef3f32e3676a92c3b2e5da21b426e4f302fc371ce76", "vout": [{"scriptPubKey": {"reqSigs": 1, "hex": "76a914e5a253ce781263afd1116d65fad5a7bc7a1ca8eb88ac", "addresses": ["1MwCCdgkxLNiLwNFeEiNJ3rKmKaBXQ55zM"], "asm": "OP_DUP OP_HASH160 e5a253ce781263afd1116d65fad5a7bc7a1ca8eb OP_EQUALVERIFY OP_CHECKSIG", "type": "pubkeyhash"}, "value": 0.00631746, "n": 0}, {"scriptPubKey": {"type": "nulldata", "hex": "6a4c500000780d0001c78d17027948b65dd7fe9479702940d64fa54d8eb2d19ed074892d00f8e8f7d41f3189e6396d7460ecffa621c2e45baa1b3506145033477435ec1d100759d4ba30d2c37bb011d97e02cf", "asm": "OP_RETURN 0000780d0001c78d17027948b65dd7fe9479702940d64fa54d8eb2d19ed074892d00f8e8f7d41f3189e6396d7460ecffa621c2e45baa1b3506145033477435ec1d100759d4ba30d2c37bb011d97e02cf"}, "value": 0.0, "n": 1}], "hex": "0100000001d56e4c8cc800520b28c9851934fca418133b469d7f1c56fc7e19511eccde3f37010000006b483045022100d2f468462297ac5f0667b24ef44eb899c6099f6cf2254505fff0241296c13ad5022055a15018d7d857a10a2a485a057911bd21985a5c315b1148245c8c9bed588329012102b9144a73501cbb1245a8e74ffd5cf312588e5f5913c2aea7a58ca84789401c0dffffffff02c2a30900000000001976a914e5a253ce781263afd1116d65fad5a7bc7a1ca8eb88ac0000000000000000536a4c500000780d0001c78d17027948b65dd7fe9479702940d64fa54d8eb2d19ed074892d00f8e8f7d41f3189e6396d7460ecffa621c2e45baa1b3506145033477435ec1d100759d4ba30d2c37bb011d97e02cf00000000", "vin": [{"sequence": 4294967295, "scriptSig": {"hex": "483045022100d2f468462297ac5f0667b24ef44eb899c6099f6cf2254505fff0241296c13ad5022055a15018d7d857a10a2a485a057911bd21985a5c315b1148245c8c9bed588329012102b9144a73501cbb1245a8e74ffd5cf312588e5f5913c2aea7a58ca84789401c0d", "asm": "3045022100d2f468462297ac5f0667b24ef44eb899c6099f6cf2254505fff0241296c13ad5022055a15018d7d857a10a2a485a057911bd21985a5c315b1148245c8c9bed588329[ALL] 02b9144a73501cbb1245a8e74ffd5cf312588e5f5913c2aea7a58ca84789401c0d"}, "vout": 1, "txid": "373fdecc1e51197efc561c7f9d463b1318a4fc341985c9280b5200c88c4c6ed5"}], "txid": "dea31e1f0ec06e0645e531e0f5726d7e5424fcfca548107cfd72e7f1e339b6ca", "blocktime": 1537876114, "version": 1, "confirmations": 11463, "time": 1537876114, "locktime": 0, "vsize": 284, "size": 284}