{"hash": "b5948374c2f3ce27f4d41e97258016bf648b6e7caff3340b41c0bb268592506a", "blockhash": "0000000000000000001cda96e906b7601b7a6fb1a3b62bca570a9e5d8f4b3de1", "vout": [{"scriptPubKey": {"reqSigs": 1, "hex": "76a9141c0d24b26d3115f2c2d1ef0bf2e0cebab05c9ad988ac", "addresses": ["13ZKfb3qffB6gac1366VBapYEJ1Afmssjn"], "asm": "OP_DUP OP_HASH160 1c0d24b26d3115f2c2d1ef0bf2e0cebab05c9ad9 OP_EQUALVERIFY OP_CHECKSIG", "type": "pubkeyhash"}, "value": 1.0, "n": 0}, {"scriptPubKey": {"reqSigs": 1, "hex": "a914f039f5997b32f3f3b8fd7a59afbb2844f197c3f387", "addresses": ["3PbDXfsAvdYaJ6uUEqK9fdtPwT9gMWJ4cK"], "asm": "OP_HASH160 f039f5997b32f3f3b8fd7a59afbb2844f197c3f3 OP_EQUAL", "type": "scripthash"}, "value": 4.9751621, "n": 1}], "hex": "01000000000101394e039e71094ab396c10565b8dba7df4cd40f3a4b9b06ec05b4e4b380b5efc10100000017160014ef57089cc5dd278f701cdd7477ecd8eff4ee49ccffffffff0200e1f505000000001976a9141c0d24b26d3115f2c2d1ef0bf2e0cebab05c9ad988acb27ea71d0000000017a914f039f5997b32f3f3b8fd7a59afbb2844f197c3f3870247304402200c1e865dc1fff87fce21b045311fc4bc42bdc586afc807a8e71dc848d07bb11402203a0ec5f1bce9c4f9458e40d4b7649e7924a50c7014cf1e901e97e86e1a62e0aa0121037e7e9efbdee734b5baaf43b4b6ac1112db15e7d53950f6a3a04bf3e2a5fe4ec400000000", "vin": [{"txinwitness": ["304402200c1e865dc1fff87fce21b045311fc4bc42bdc586afc807a8e71dc848d07bb11402203a0ec5f1bce9c4f9458e40d4b7649e7924a50c7014cf1e901e97e86e1a62e0aa01", "037e7e9efbdee734b5baaf43b4b6ac1112db15e7d53950f6a3a04bf3e2a5fe4ec4"], "sequence": 4294967295, "scriptSig": {"hex": "160014ef57089cc5dd278f701cdd7477ecd8eff4ee49cc", "asm": "0014ef57089cc5dd278f701cdd7477ecd8eff4ee49cc"}, "vout": 1, "txid": "c1efb580b3e4b405ec069b4b3a0fd44cdfa7dbb86505c196b34a09719e034e39"}], "txid": "deabeca12d05bb4fdb458bd95d30b77a9ab51ea5affed9e517e4c8f72e8b46dd", "blocktime": 1537873282, "version": 1, "confirmations": 11484, "time": 1537873282, "locktime": 0, "vsize": 168, "size": 249}