{"hash": "deab6710c13c89bdb4f158bac7a289c28b643abbc60240520a07f3abd8c8fba8", "blockhash": "0000000000000000001f76057863aec43deb6fa401d9628bb513d65a8098bfab", "vout": [{"scriptPubKey": {"reqSigs": 1, "hex": "76a914c5b7fd920dce5f61934e792c7e6fcc829aff533d88ac", "addresses": ["1K2SXgApmo9uZoyahvsbSanpVWbzZWVVMF"], "asm": "OP_DUP OP_HASH160 c5b7fd920dce5f61934e792c7e6fcc829aff533d OP_EQUALVERIFY OP_CHECKSIG", "type": "pubkeyhash"}, "value": 0.0015535, "n": 0}, {"scriptPubKey": {"type": "nulldata", "hex": "6a28466100000002707d63dc39c9fb01769c387dbd24779a73ed9925386783895561dbd6af63cf763225", "asm": "OP_RETURN 466100000002707d63dc39c9fb01769c387dbd24779a73ed9925386783895561dbd6af63cf763225"}, "value": 0.0, "n": 1}], "hex": "020000000194fa188fcbdcc63a33f93c7ee6f5acf5c5f2ad8b64a15ffa5992b853bc3da764000000006b483045022100882e2f5e3bb4b4ef84dbe0614d93220a8856a5cbe1ec377383437f359ef54b790220217319834e9e6834f3051b5095e93ff3880b79a82415abfbea1fcf9a0eeabfba0121027e706cd1c919431b693a0247e4a239e632659a8723a621a91ec610c64f4173acffffffff02d65e0200000000001976a914c5b7fd920dce5f61934e792c7e6fcc829aff533d88ac00000000000000002a6a28466100000002707d63dc39c9fb01769c387dbd24779a73ed9925386783895561dbd6af63cf76322500000000", "vin": [{"sequence": 4294967295, "scriptSig": {"hex": "483045022100882e2f5e3bb4b4ef84dbe0614d93220a8856a5cbe1ec377383437f359ef54b790220217319834e9e6834f3051b5095e93ff3880b79a82415abfbea1fcf9a0eeabfba0121027e706cd1c919431b693a0247e4a239e632659a8723a621a91ec610c64f4173ac", "asm": "3045022100882e2f5e3bb4b4ef84dbe0614d93220a8856a5cbe1ec377383437f359ef54b790220217319834e9e6834f3051b5095e93ff3880b79a82415abfbea1fcf9a0eeabfba[ALL] 027e706cd1c919431b693a0247e4a239e632659a8723a621a91ec610c64f4173ac"}, "vout": 0, "txid": "64a73dbc53b89259fa5fa1648badf2c5f5acf5e67e3cf9333ac6dccb8f18fa94"}], "txid": "deab6710c13c89bdb4f158bac7a289c28b643abbc60240520a07f3abd8c8fba8", "blocktime": 1537873891, "version": 2, "confirmations": 11475, "time": 1537873891, "locktime": 0, "vsize": 243, "size": 243}