{"hash": "debcfed981dc66bda0d9cf71ec897fcd85daee0e9764781ea9c77ce8404f2d5f", "blockhash": "00000000000000000004ffacab907a6b429b9a5745fa0b75af4234bf69dd7176", "vout": [{"scriptPubKey": {"reqSigs": 1, "hex": "a91458e1a20c347643df5db561813ec7f37dcf97f8dc87", "addresses": ["39nyggRCS1SV3mT9MMoZbiNifpNxuqZJRo"], "asm": "OP_HASH160 58e1a20c347643df5db561813ec7f37dcf97f8dc OP_EQUAL", "type": "scripthash"}, "value": 0.0025666, "n": 0}, {"scriptPubKey": {"reqSigs": 1, "hex": "76a914cce4a7f2dc0e9e7582a2ab6b9f98f728116156c688ac", "addresses": ["1KgNmSBou5sLdipKpAP71VkHwF7jzhiAMn"], "asm": "OP_DUP OP_HASH160 cce4a7f2dc0e9e7582a2ab6b9f98f728116156c6 OP_EQUALVERIFY OP_CHECKSIG", "type": "pubkeyhash"}, "value": 0.09510914, "n": 1}], "hex": "010000000187afb0028a2a3e6a735ddc3dcb44ec9af51f5db6b9414900acbb95e896ec2c16010000006a473044022045b3de5ff6dc5633c3c49c22702469180e649656c05f42bb0bbb501d8536988c02203a8a44929b3e4083d7a49187026ddb1d230f93ca97ac1e8673e23327a889aab601210386d7efbe40f7ff5ce45295565320bf3cf2ce78d8cbc8aa6ebf9835304af61139ffffffff0294ea03000000000017a91458e1a20c347643df5db561813ec7f37dcf97f8dc8702209100000000001976a914cce4a7f2dc0e9e7582a2ab6b9f98f728116156c688ac00000000", "vin": [{"sequence": 4294967295, "scriptSig": {"hex": "473044022045b3de5ff6dc5633c3c49c22702469180e649656c05f42bb0bbb501d8536988c02203a8a44929b3e4083d7a49187026ddb1d230f93ca97ac1e8673e23327a889aab601210386d7efbe40f7ff5ce45295565320bf3cf2ce78d8cbc8aa6ebf9835304af61139", "asm": "3044022045b3de5ff6dc5633c3c49c22702469180e649656c05f42bb0bbb501d8536988c02203a8a44929b3e4083d7a49187026ddb1d230f93ca97ac1e8673e23327a889aab6[ALL] 0386d7efbe40f7ff5ce45295565320bf3cf2ce78d8cbc8aa6ebf9835304af61139"}, "vout": 1, "txid": "162cec96e895bbac004941b9b65d1ff59aec44cb3ddc5d736a3e2a8a02b0af87"}], "txid": "debcfed981dc66bda0d9cf71ec897fcd85daee0e9764781ea9c77ce8404f2d5f", "blocktime": 1537875543, "version": 1, "confirmations": 11464, "time": 1537875543, "locktime": 0, "vsize": 223, "size": 223}