{"hash": "dec568d1b284c228f6efc615a85e4a060066042585e9bc50c4ad1c284447749c", "blockhash": "0000000000000000000e13cef7c366c0283d82e591d1acd082e914b08063cdf1", "vout": [{"scriptPubKey": {"reqSigs": 1, "hex": "76a914aef43ead1d842ccf8af350d1cfa596a673df9b6288ac", "addresses": ["1Gx5Aonpr2cjt3SMXCKDCQPWQkcMZ2KLaU"], "asm": "OP_DUP OP_HASH160 aef43ead1d842ccf8af350d1cfa596a673df9b62 OP_EQUALVERIFY OP_CHECKSIG", "type": "pubkeyhash"}, "value": 0.00045313, "n": 0}, {"scriptPubKey": {"reqSigs": 1, "hex": "a9143db4de2f6b3736af3b519bcfc9f36d33a59cb09787", "addresses": ["37KHpAi24CqcbvwCR8rJSYwmFVPEffSUrj"], "asm": "OP_HASH160 3db4de2f6b3736af3b519bcfc9f36d33a59cb097 OP_EQUAL", "type": "scripthash"}, "value": 0.00312198, "n": 1}], "hex": "0100000001b5557e5d2ee3d4677bb20acf73786d63fea17d00b086cd87afcb6674befca33b010000006a4730440220340577b914f2db2946082eff843469ecb18fe1b574d9e2f08cad42fd6ad09191022005bc5f51c251774ee57b780462809d8aad33e3cc903c99183294fc459bf5a8560121037abdfd371271364891abf3b0e08ec06db033b3c3717b0e54c06d1a676a7f749fffffffff0201b10000000000001976a914aef43ead1d842ccf8af350d1cfa596a673df9b6288ac86c304000000000017a9143db4de2f6b3736af3b519bcfc9f36d33a59cb0978700000000", "vin": [{"sequence": 4294967295, "scriptSig": {"hex": "4730440220340577b914f2db2946082eff843469ecb18fe1b574d9e2f08cad42fd6ad09191022005bc5f51c251774ee57b780462809d8aad33e3cc903c99183294fc459bf5a8560121037abdfd371271364891abf3b0e08ec06db033b3c3717b0e54c06d1a676a7f749f", "asm": "30440220340577b914f2db2946082eff843469ecb18fe1b574d9e2f08cad42fd6ad09191022005bc5f51c251774ee57b780462809d8aad33e3cc903c99183294fc459bf5a856[ALL] 037abdfd371271364891abf3b0e08ec06db033b3c3717b0e54c06d1a676a7f749f"}, "vout": 1, "txid": "3ba3fcbe7466cbaf87cd86b0007da1fe636d7873cf0ab27b67d4e32e5d7e55b5"}], "txid": "dec568d1b284c228f6efc615a85e4a060066042585e9bc50c4ad1c284447749c", "blocktime": 1537871767, "version": 1, "confirmations": 11495, "time": 1537871767, "locktime": 0, "vsize": 223, "size": 223}