{"hash": "0514d0322c11681d5a7b70da6b208e39508d463b86c71891b3461383b28c20ad", "blockhash": "0000000000000000001f76057863aec43deb6fa401d9628bb513d65a8098bfab", "vout": [{"scriptPubKey": {"reqSigs": 1, "hex": "001432fec5f41c99a695ad6198ed5aa56352451b6add", "addresses": ["bc1qxtlvtaqunxnftttpnrk44ftr2fz3k6kammyfce"], "asm": "0 32fec5f41c99a695ad6198ed5aa56352451b6add", "type": "witness_v0_keyhash"}, "value": 2.403e-05, "n": 0}, {"scriptPubKey": {"reqSigs": 1, "hex": "a914bac4d49fecfe7c1d38fefc2dd92363822528b6a787", "addresses": ["3JiZQFYnQZHG5K1Z6FDrX1mbfeV56L5pcM"], "asm": "OP_HASH160 bac4d49fecfe7c1d38fefc2dd92363822528b6a7 OP_EQUAL", "type": "scripthash"}, "value": 0.00060745, "n": 1}], "hex": "010000000001017f803f7e022f5381cb54a48f56fb174bb943e9639b68b1fe02838007b741ee9e45030000171600141be5176102d1c7c950f6e503d841b438fff455aeffffffff02630900000000000016001432fec5f41c99a695ad6198ed5aa56352451b6add49ed00000000000017a914bac4d49fecfe7c1d38fefc2dd92363822528b6a78702483045022100dec66bfa3894fec202616c4038df05cfcc763c56cb78c1eed1bf9516167cc2fc02200697b5b4cea1ad85532723c77e98c7a60ed0971633c581e4d70a4c277a5db60b0121023b4c5e4d473c317d7293c7fc89c9c1b0c4f291aee287d9fb55a9210e96fc5ecb00000000", "vin": [{"txinwitness": ["3045022100dec66bfa3894fec202616c4038df05cfcc763c56cb78c1eed1bf9516167cc2fc02200697b5b4cea1ad85532723c77e98c7a60ed0971633c581e4d70a4c277a5db60b01", "023b4c5e4d473c317d7293c7fc89c9c1b0c4f291aee287d9fb55a9210e96fc5ecb"], "sequence": 4294967295, "scriptSig": {"hex": "1600141be5176102d1c7c950f6e503d841b438fff455ae", "asm": "00141be5176102d1c7c950f6e503d841b438fff455ae"}, "vout": 837, "txid": "9eee41b707808302feb1689b63e943b94b17fb568fa454cb81532f027e3f807f"}], "txid": "dec6311ac7568124c0c5e781cc2e77af4f8e73a940b3cdcb8274e3a80b27f688", "blocktime": 1537873891, "version": 1, "confirmations": 11478, "time": 1537873891, "locktime": 0, "vsize": 165, "size": 247}