{"hash": "aca9f718b5825ce5e4f0d0c2cf4a43ae7b84ccf401dc34c5c64c8576d68bcb0c", "blockhash": "0000000000000000000e13cef7c366c0283d82e591d1acd082e914b08063cdf1", "vout": [{"scriptPubKey": {"reqSigs": 1, "hex": "76a914b418d32b9f7f1ca06f0de03a786ae4c513bc9cf288ac", "addresses": ["1HRGNPmysDeccfNjLYRDGu2eBdvWkqb3e9"], "asm": "OP_DUP OP_HASH160 b418d32b9f7f1ca06f0de03a786ae4c513bc9cf2 OP_EQUALVERIFY OP_CHECKSIG", "type": "pubkeyhash"}, "value": 0.026, "n": 0}, {"scriptPubKey": {"reqSigs": 1, "hex": "a9145302653b6c2b64578899b8001d7c15d7d3f4d72587", "addresses": ["39FvsuN41GGyPDyvG9kuTDfzQtjFDXetdm"], "asm": "OP_HASH160 5302653b6c2b64578899b8001d7c15d7d3f4d725 OP_EQUAL", "type": "scripthash"}, "value": 0.0099946, "n": 1}], "hex": "02000000000105199859f85eecd94976ed03fb77905f3838a7e1547f585e7420795987a605247b000000006a4730440220504f2cb86b23258a43530b25285266b8a4034849c4c0a1c78037285d97db63970220747c0cbf7b441202703252b4fd23c611bc4ae6bb33ea749b593eae595c47b355012102e641439cdac00d620ae8d5a9a16aa7efab9e845b4af048be26a0bc61a6a00688feffffff2cb2fce7dd58359e234e6268da1fd1fcd51e72c0f1555c22fd4f34ed7f15ca10000000006a47304402204612e60ee3fa8fd7eec08b393ff4b3d215bdff12963565a2aa0aab5da60e7cc202202ffaae2a9eab4f901403952e244578e8d3568e80d656518dc843248987becadc012102e641439cdac00d620ae8d5a9a16aa7efab9e845b4af048be26a0bc61a6a00688feffffff3793c25c0f628d27312aecae4c8a0af5d1f3b0da308a08ae1be05eae751b18760100000017160014fb1831f383170238174dff40c861a90a8ba17d39feffffff49ba162de9fca34d5a103ea7824cd564eeab7a47d4982b8a6d635bff282aa668000000006b4830450221009b2ffafce3f4433c3d2473224fb4370c5b43c544d5b5053eeeebfaadf8931e6102202e44888610bf7f0584afa47bfc69b0f567580f3c089fdd800a995ef1b2eefa0b012102e641439cdac00d620ae8d5a9a16aa7efab9e845b4af048be26a0bc61a6a00688feffffff4b5f3e21d3eb6bb3dbc04d33b3b3984f95b77cd52ed79c5c8f2b2923255311d4010000006b483045022100fda38ea90d330720ba012e895e65593ce32e5448412ccd6a5949e3a29431c064022049bcadcad4a64143191c6da9ffa8f1c6754e3ebd8191c3c08c6a5bc1c247a8fd0121027db23ca1d6070c6413565bf2e780aecbe2cf9015e8ec38fcd84cf514237b1807feffffff0240ac2700000000001976a914b418d32b9f7f1ca06f0de03a786ae4c513bc9cf288ac24400f000000000017a9145302653b6c2b64578899b8001d7c15d7d3f4d7258700000248304502210097314a7ff9d2f6ad6d9a12dfeeba225b562008720e66f7f9d303b0e26d2d7c9b0220553e02f61660aebc622f0db525caa5c909544ed70c44d762c402235dfad602b90121035337bd4cc180760759258b0541900a3e4f922fb22cad7d3e339a11e7cf7627d4000010490800", "vin": [{"sequence": 4294967294, "scriptSig": {"hex": "4730440220504f2cb86b23258a43530b25285266b8a4034849c4c0a1c78037285d97db63970220747c0cbf7b441202703252b4fd23c611bc4ae6bb33ea749b593eae595c47b355012102e641439cdac00d620ae8d5a9a16aa7efab9e845b4af048be26a0bc61a6a00688", "asm": "30440220504f2cb86b23258a43530b25285266b8a4034849c4c0a1c78037285d97db63970220747c0cbf7b441202703252b4fd23c611bc4ae6bb33ea749b593eae595c47b355[ALL] 02e641439cdac00d620ae8d5a9a16aa7efab9e845b4af048be26a0bc61a6a00688"}, "vout": 0, "txid": "7b2405a687597920745e587f54e1a738385f9077fb03ed7649d9ec5ef8599819"}, {"sequence": 4294967294, "scriptSig": {"hex": "47304402204612e60ee3fa8fd7eec08b393ff4b3d215bdff12963565a2aa0aab5da60e7cc202202ffaae2a9eab4f901403952e244578e8d3568e80d656518dc843248987becadc012102e641439cdac00d620ae8d5a9a16aa7efab9e845b4af048be26a0bc61a6a00688", "asm": "304402204612e60ee3fa8fd7eec08b393ff4b3d215bdff12963565a2aa0aab5da60e7cc202202ffaae2a9eab4f901403952e244578e8d3568e80d656518dc843248987becadc[ALL] 02e641439cdac00d620ae8d5a9a16aa7efab9e845b4af048be26a0bc61a6a00688"}, "vout": 0, "txid": "10ca157fed344ffd225c55f1c0721ed5fcd11fda68624e239e3558dde7fcb22c"}, {"txinwitness": ["304502210097314a7ff9d2f6ad6d9a12dfeeba225b562008720e66f7f9d303b0e26d2d7c9b0220553e02f61660aebc622f0db525caa5c909544ed70c44d762c402235dfad602b901", "035337bd4cc180760759258b0541900a3e4f922fb22cad7d3e339a11e7cf7627d4"], "sequence": 4294967294, "scriptSig": {"hex": "160014fb1831f383170238174dff40c861a90a8ba17d39", "asm": "0014fb1831f383170238174dff40c861a90a8ba17d39"}, "vout": 1, "txid": "76181b75ae5ee01bae088a30dab0f3d1f50a8a4caeec2a31278d620f5cc29337"}, {"sequence": 4294967294, "scriptSig": {"hex": "4830450221009b2ffafce3f4433c3d2473224fb4370c5b43c544d5b5053eeeebfaadf8931e6102202e44888610bf7f0584afa47bfc69b0f567580f3c089fdd800a995ef1b2eefa0b012102e641439cdac00d620ae8d5a9a16aa7efab9e845b4af048be26a0bc61a6a00688", "asm": "30450221009b2ffafce3f4433c3d2473224fb4370c5b43c544d5b5053eeeebfaadf8931e6102202e44888610bf7f0584afa47bfc69b0f567580f3c089fdd800a995ef1b2eefa0b[ALL] 02e641439cdac00d620ae8d5a9a16aa7efab9e845b4af048be26a0bc61a6a00688"}, "vout": 0, "txid": "68a62a28ff5b636d8a2b98d4477aabee64d54c82a73e105a4da3fce92d16ba49"}, {"sequence": 4294967294, "scriptSig": {"hex": "483045022100fda38ea90d330720ba012e895e65593ce32e5448412ccd6a5949e3a29431c064022049bcadcad4a64143191c6da9ffa8f1c6754e3ebd8191c3c08c6a5bc1c247a8fd0121027db23ca1d6070c6413565bf2e780aecbe2cf9015e8ec38fcd84cf514237b1807", "asm": "3045022100fda38ea90d330720ba012e895e65593ce32e5448412ccd6a5949e3a29431c064022049bcadcad4a64143191c6da9ffa8f1c6754e3ebd8191c3c08c6a5bc1c247a8fd[ALL] 027db23ca1d6070c6413565bf2e780aecbe2cf9015e8ec38fcd84cf514237b1807"}, "vout": 1, "txid": "d411532523292b8f5c9cd72ed57cb7954f98b3b3334dc0dbb36bebd3213e5f4b"}], "txid": "dec75a8e9ecd6e56872e26ead69fadd288337bc20dec87ca940c80d8e980fcea", "blocktime": 1537871767, "version": 2, "confirmations": 11495, "time": 1537871767, "locktime": 542992, "vsize": 759, "size": 844}