{"hash": "be57731d44e672bf975febe9dd3399383a76a3b95285d6f6187d5a8dedda7d13", "blockhash": "0000000000000000001f76057863aec43deb6fa401d9628bb513d65a8098bfab", "vout": [{"scriptPubKey": {"reqSigs": 1, "hex": "a9149a911e6903a59e6e55477cb7399d7e11d100f36a87", "addresses": ["3FnHq7gEV4sV821DZoysKC8ortCqS9nLW2"], "asm": "OP_HASH160 9a911e6903a59e6e55477cb7399d7e11d100f36a OP_EQUAL", "type": "scripthash"}, "value": 0.01006778, "n": 0}, {"scriptPubKey": {"reqSigs": 1, "hex": "76a91445c30f7293864a8b149b1093e230e6e13e96909288ac", "addresses": ["17MsJGTPVAGwYRP6mhugVZ5a3JZeYriesC"], "asm": "OP_DUP OP_HASH160 45c30f7293864a8b149b1093e230e6e13e969092 OP_EQUALVERIFY OP_CHECKSIG", "type": "pubkeyhash"}, "value": 0.0044186, "n": 1}], "hex": "020000000001027243552edbf142408a3f04156ae7f919fb92d724a1c7cff29d8b18eb650e0b580100000017160014f4a661c7eb6940614d7d72122e339f30fde10f5afeffffffcb2a125331b582d6dea3680cbef06b96d70c0af6a42b567de24f502cfe0052fc010000001716001430a0104385f40824d1292823ece38cd3602acb17feffffff02ba5c0f000000000017a9149a911e6903a59e6e55477cb7399d7e11d100f36a8704be0600000000001976a91445c30f7293864a8b149b1093e230e6e13e96909288ac02483045022100ec8145417332316270905dc74aca94c663b45934a57f193692ccebf696c3be9902201f15df8cdfe7370a5c3d6011f664532357ccc8743fc66000e69de93da445efc3012103b9377c81f8c356a57526c84309861ae2183388097823dbede839c41b24faeb610247304402206d700c2636ac49cc493db8e1ae51dc078bc3363dcb45eca4c599a100d79e7883022033a76146d5e3f952fd06ca752384e44b7bb44999c3040e03bf5fb61f3a80bba90121028e15c7d8ece3620d3acc36492ea67e9550b3a75175f11239ca33cc8bd86f696c13490800", "vin": [{"txinwitness": ["3045022100ec8145417332316270905dc74aca94c663b45934a57f193692ccebf696c3be9902201f15df8cdfe7370a5c3d6011f664532357ccc8743fc66000e69de93da445efc301", "03b9377c81f8c356a57526c84309861ae2183388097823dbede839c41b24faeb61"], "sequence": 4294967294, "scriptSig": {"hex": "160014f4a661c7eb6940614d7d72122e339f30fde10f5a", "asm": "0014f4a661c7eb6940614d7d72122e339f30fde10f5a"}, "vout": 1, "txid": "580b0e65eb188b9df2cfc7a124d792fb19f9e76a15043f8a4042f1db2e554372"}, {"txinwitness": ["304402206d700c2636ac49cc493db8e1ae51dc078bc3363dcb45eca4c599a100d79e7883022033a76146d5e3f952fd06ca752384e44b7bb44999c3040e03bf5fb61f3a80bba901", "028e15c7d8ece3620d3acc36492ea67e9550b3a75175f11239ca33cc8bd86f696c"], "sequence": 4294967294, "scriptSig": {"hex": "16001430a0104385f40824d1292823ece38cd3602acb17", "asm": "001430a0104385f40824d1292823ece38cd3602acb17"}, "vout": 1, "txid": "fc5200fe2c504fe27d562ba4f60a0cd7966bf0be0c68a3ded682b53153122acb"}], "txid": "dece2d440cc18db288aae716a48d484dec4924ae7f51e92efbf684bd0ebede94", "blocktime": 1537873891, "version": 2, "confirmations": 11478, "time": 1537873891, "locktime": 542995, "vsize": 259, "size": 421}