{"hash": "b433c580a4edfdbe42131d4eed0b0afc2734e204a99a437592539785b49f16ae", "blockhash": "0000000000000000000e13cef7c366c0283d82e591d1acd082e914b08063cdf1", "vout": [{"scriptPubKey": {"reqSigs": 1, "hex": "a914e64ecc691291541ee0153fdc1ff4f9d733fa905587", "addresses": ["3NgmjgLRcMsrDNUV6cgRQPg4gCU5oHi9B1"], "asm": "OP_HASH160 e64ecc691291541ee0153fdc1ff4f9d733fa9055 OP_EQUAL", "type": "scripthash"}, "value": 0.48616273, "n": 0}, {"scriptPubKey": {"reqSigs": 1, "hex": "76a914af55e3ba7b11dde3e98f6b8f8797005d69bdd60888ac", "addresses": ["1Gz69HMCXpdnEn9qceref46GBiw8rGLpEc"], "asm": "OP_DUP OP_HASH160 af55e3ba7b11dde3e98f6b8f8797005d69bdd608 OP_EQUALVERIFY OP_CHECKSIG", "type": "pubkeyhash"}, "value": 0.029, "n": 1}], "hex": "02000000000101e22f92b17f8e83036365766fa0d021a8e0d980217831105f2e79bbac137c9c6a0100000017160014897e4428c6505221745f40704717f521afa2689afeffffff0251d3e5020000000017a914e64ecc691291541ee0153fdc1ff4f9d733fa90558720402c00000000001976a914af55e3ba7b11dde3e98f6b8f8797005d69bdd60888ac02483045022100bce40678b78a343be75b7cde5593296e3f9a957f3f5e0055f1500c8cddc0b20e0220451ac997abaf6dfb0c310e57de2bad02245e6f5907a7990ddd2d8a584c79becf0121028acd9d3bbc30079314944addc189f0575972f554fd3ed52762dadde795edb4b510490800", "vin": [{"txinwitness": ["3045022100bce40678b78a343be75b7cde5593296e3f9a957f3f5e0055f1500c8cddc0b20e0220451ac997abaf6dfb0c310e57de2bad02245e6f5907a7990ddd2d8a584c79becf01", "028acd9d3bbc30079314944addc189f0575972f554fd3ed52762dadde795edb4b5"], "sequence": 4294967294, "scriptSig": {"hex": "160014897e4428c6505221745f40704717f521afa2689a", "asm": "0014897e4428c6505221745f40704717f521afa2689a"}, "vout": 1, "txid": "6a9c7c13acbb792e5f1031782180d9e0a821d0a06f76656303838e7fb1922fe2"}], "txid": "ded9d42b27caa590de1d18fb73347376301e21db8742d5b094d295bbc211245b", "blocktime": 1537871767, "version": 2, "confirmations": 11495, "time": 1537871767, "locktime": 542992, "vsize": 168, "size": 250}