{"hash": "dede89247797175637c410d26ffeef4fe20a2b721382f4736ae7eb63ea36d356", "blockhash": "0000000000000000000e13cef7c366c0283d82e591d1acd082e914b08063cdf1", "vout": [{"scriptPubKey": {"reqSigs": 1, "hex": "a9144cb80a4d2277bc74c9b266f93bc729040d3aa79187", "addresses": ["38gfkToPVDduMwZdUdzEdmt8vBmjirujSW"], "asm": "OP_HASH160 4cb80a4d2277bc74c9b266f93bc729040d3aa791 OP_EQUAL", "type": "scripthash"}, "value": 0.0032036, "n": 0}, {"scriptPubKey": {"reqSigs": 1, "hex": "76a914c20f3377edf795bb5e8d79d2be4cfbbc624853da88ac", "addresses": ["1Jh6JQLxLRJ5CSsQbjWnfnTqYCddi1GUm9"], "asm": "OP_DUP OP_HASH160 c20f3377edf795bb5e8d79d2be4cfbbc624853da OP_EQUALVERIFY OP_CHECKSIG", "type": "pubkeyhash"}, "value": 0.00669122, "n": 1}], "hex": "01000000014d622c81227c6beee0639d81b8b1ba3270d429127ee43c617ec97febb0653282010000006a4730440220704f8525e2e5281cde8a0f3d813c3c3d1d7a63fb698965b0c98d44435437ac1b02204251f5d90b25342fe4c909d43c5548afe2da114d2012ce44fb5726e3d32aaea101210278454584fd49a14a421934227daa101722dc8c0b0c35248c3260b434f42e3c3bffffffff0268e304000000000017a9144cb80a4d2277bc74c9b266f93bc729040d3aa79187c2350a00000000001976a914c20f3377edf795bb5e8d79d2be4cfbbc624853da88ac00000000", "vin": [{"sequence": 4294967295, "scriptSig": {"hex": "4730440220704f8525e2e5281cde8a0f3d813c3c3d1d7a63fb698965b0c98d44435437ac1b02204251f5d90b25342fe4c909d43c5548afe2da114d2012ce44fb5726e3d32aaea101210278454584fd49a14a421934227daa101722dc8c0b0c35248c3260b434f42e3c3b", "asm": "30440220704f8525e2e5281cde8a0f3d813c3c3d1d7a63fb698965b0c98d44435437ac1b02204251f5d90b25342fe4c909d43c5548afe2da114d2012ce44fb5726e3d32aaea1[ALL] 0278454584fd49a14a421934227daa101722dc8c0b0c35248c3260b434f42e3c3b"}, "vout": 1, "txid": "823265b0eb7fc97e613ce47e1229d47032bab1b8819d63e0ee6b7c22812c624d"}], "txid": "dede89247797175637c410d26ffeef4fe20a2b721382f4736ae7eb63ea36d356", "blocktime": 1537871767, "version": 1, "confirmations": 11490, "time": 1537871767, "locktime": 0, "vsize": 223, "size": 223}