{"hash": "dee1377d0902be8dfb3b4d4e9f2d5a47419e762902993f529492f0b25ddde3d2", "blockhash": "0000000000000000001e0dab787dd257d1dbfcb92a98c2207d5e1078be1f4165", "vout": [{"scriptPubKey": {"reqSigs": 1, "hex": "76a9141f0461482af91c65811729e727a268e89aaf364988ac", "addresses": ["13q1CGx5v5b9g5hbFZBE1XTtbF47NJ2vWt"], "asm": "OP_DUP OP_HASH160 1f0461482af91c65811729e727a268e89aaf3649 OP_EQUALVERIFY OP_CHECKSIG", "type": "pubkeyhash"}, "value": 0.02326792, "n": 0}, {"scriptPubKey": {"reqSigs": 1, "hex": "a914a6f527b7b7e8d3712ce08fa3dc0932b66dd1f1fb87", "addresses": ["3Guon4mkHn4SjQm1kZSXF4LmBAJKFU3uH4"], "asm": "OP_HASH160 a6f527b7b7e8d3712ce08fa3dc0932b66dd1f1fb OP_EQUAL", "type": "scripthash"}, "value": 0.06, "n": 1}], "hex": "0100000001b1828d20c2299e79178e2befb9c789dd8c14f262a40a83b40aa60e2f8ca3c1c2010000006a473044022072bcbf8d6c52b5ca1efe00e2fb24910dbc41a0ceee24ebed2fef46aca4af88b802201b9aed1fea88b85d9cf2bc9dea5813392d48003fedf248546fd290f0a943e55b012103f494a69e5795a654ad3dcc8bb2de91b34706d03a656a123ea686f42d17e08547fdffffff0208812300000000001976a9141f0461482af91c65811729e727a268e89aaf364988ac808d5b000000000017a914a6f527b7b7e8d3712ce08fa3dc0932b66dd1f1fb8712490800", "vin": [{"sequence": 4294967293, "scriptSig": {"hex": "473044022072bcbf8d6c52b5ca1efe00e2fb24910dbc41a0ceee24ebed2fef46aca4af88b802201b9aed1fea88b85d9cf2bc9dea5813392d48003fedf248546fd290f0a943e55b012103f494a69e5795a654ad3dcc8bb2de91b34706d03a656a123ea686f42d17e08547", "asm": "3044022072bcbf8d6c52b5ca1efe00e2fb24910dbc41a0ceee24ebed2fef46aca4af88b802201b9aed1fea88b85d9cf2bc9dea5813392d48003fedf248546fd290f0a943e55b[ALL] 03f494a69e5795a654ad3dcc8bb2de91b34706d03a656a123ea686f42d17e08547"}, "vout": 1, "txid": "c2c1a38c2f0ea60ab4830aa462f2148cdd89c7b9ef2b8e17799e29c2208d82b1"}], "txid": "dee1377d0902be8dfb3b4d4e9f2d5a47419e762902993f529492f0b25ddde3d2", "blocktime": 1537872475, "version": 1, "confirmations": 11487, "time": 1537872475, "locktime": 542994, "vsize": 223, "size": 223}