{"hash": "dee68ebb4fa9e2382ad06ba3d0a338d37feda4056bbef81d464687ed600419b5", "blockhash": "0000000000000000000e13cef7c366c0283d82e591d1acd082e914b08063cdf1", "vout": [{"scriptPubKey": {"reqSigs": 1, "hex": "76a91439f1d196cb497c3932e08839c5314d7f18b9288988ac", "addresses": ["16HPCnyXZ5mepHfD2gLjyP6neN9hELsMzb"], "asm": "OP_DUP OP_HASH160 39f1d196cb497c3932e08839c5314d7f18b92889 OP_EQUALVERIFY OP_CHECKSIG", "type": "pubkeyhash"}, "value": 0.00078147, "n": 0}, {"scriptPubKey": {"reqSigs": 1, "hex": "76a91458faa2950aca14e2f8122051c9a7dcdf3e6e67de88ac", "addresses": ["197UiK7EHcMmFi7jtkF536Tgsdk5dJ7Hs1"], "asm": "OP_DUP OP_HASH160 58faa2950aca14e2f8122051c9a7dcdf3e6e67de OP_EQUALVERIFY OP_CHECKSIG", "type": "pubkeyhash"}, "value": 0.05862559, "n": 1}], "hex": "0100000001762aaa369f66e59b5b187973a9359d98b0fc152b8a246896a592f63d76425aa7010000006a473044022034c7bf0c6073d4ce6ac6fe57977d7a90af7f5d99627fcef660cf4115560475dd02202d54cc92d0e36c6cf314b2357c1adde7fa43468a6542cba83ed7fc4542217052012103b8bd51d646ef71f07097977f675490fad9f02d50dfedb8a48b3cc166214374d7ffffffff0243310100000000001976a91439f1d196cb497c3932e08839c5314d7f18b9288988ac9f745900000000001976a91458faa2950aca14e2f8122051c9a7dcdf3e6e67de88ac00000000", "vin": [{"sequence": 4294967295, "scriptSig": {"hex": "473044022034c7bf0c6073d4ce6ac6fe57977d7a90af7f5d99627fcef660cf4115560475dd02202d54cc92d0e36c6cf314b2357c1adde7fa43468a6542cba83ed7fc4542217052012103b8bd51d646ef71f07097977f675490fad9f02d50dfedb8a48b3cc166214374d7", "asm": "3044022034c7bf0c6073d4ce6ac6fe57977d7a90af7f5d99627fcef660cf4115560475dd02202d54cc92d0e36c6cf314b2357c1adde7fa43468a6542cba83ed7fc4542217052[ALL] 03b8bd51d646ef71f07097977f675490fad9f02d50dfedb8a48b3cc166214374d7"}, "vout": 1, "txid": "a75a42763df692a59668248a2b15fcb0989d35a97379185b9be5669f36aa2a76"}], "txid": "dee68ebb4fa9e2382ad06ba3d0a338d37feda4056bbef81d464687ed600419b5", "blocktime": 1537871767, "version": 1, "confirmations": 11495, "time": 1537871767, "locktime": 0, "vsize": 225, "size": 225}