{"hash": "deefce6e75348cf443b1c164a774a640c1ecb8986df4aa91ff78c68d795cded6", "blockhash": "0000000000000000001cda96e906b7601b7a6fb1a3b62bca570a9e5d8f4b3de1", "vout": [{"scriptPubKey": {"reqSigs": 1, "hex": "a914dbfbe9289635033db79580ec5a38bde11adcb7c387", "addresses": ["3MkBgd3AiCo5YsP3XS8v3oKX4DU4jgTNux"], "asm": "OP_HASH160 dbfbe9289635033db79580ec5a38bde11adcb7c3 OP_EQUAL", "type": "scripthash"}, "value": 0.0468204, "n": 0}, {"scriptPubKey": {"reqSigs": 1, "hex": "76a91467dd17330d3815e5cc3a860c335c608efefd200188ac", "addresses": ["1AUBTQT6UU7cLoN5gMEA8wZPZFY3ofSFTj"], "asm": "OP_DUP OP_HASH160 67dd17330d3815e5cc3a860c335c608efefd2001 OP_EQUALVERIFY OP_CHECKSIG", "type": "pubkeyhash"}, "value": 0.13501845, "n": 1}], "hex": "010000000181288df714af16f4fb40219c0a0054d30d166f29f5f79fa4c0291a5e1fd97f87010000006b483045022100a2d49ce34ba8342dbca7c85bd1d4bf96edb1aea9b7ba1ca590668c5d1278cf87022039f2c65ca11b2cef170d83a1221fa8e43d51e996cf6b3e766fe11dcbd2f354cf012103436ec025711f9f9e432e9b604516c20215817eb2a6bffc3e983cf48eacc78363fdffffff02387147000000000017a914dbfbe9289635033db79580ec5a38bde11adcb7c3879505ce00000000001976a91467dd17330d3815e5cc3a860c335c608efefd200188ac13490800", "vin": [{"sequence": 4294967293, "scriptSig": {"hex": "483045022100a2d49ce34ba8342dbca7c85bd1d4bf96edb1aea9b7ba1ca590668c5d1278cf87022039f2c65ca11b2cef170d83a1221fa8e43d51e996cf6b3e766fe11dcbd2f354cf012103436ec025711f9f9e432e9b604516c20215817eb2a6bffc3e983cf48eacc78363", "asm": "3045022100a2d49ce34ba8342dbca7c85bd1d4bf96edb1aea9b7ba1ca590668c5d1278cf87022039f2c65ca11b2cef170d83a1221fa8e43d51e996cf6b3e766fe11dcbd2f354cf[ALL] 03436ec025711f9f9e432e9b604516c20215817eb2a6bffc3e983cf48eacc78363"}, "vout": 1, "txid": "877fd91f5e1a29c0a49ff7f5296f160dd354000a9c2140fbf416af14f78d2881"}], "txid": "deefce6e75348cf443b1c164a774a640c1ecb8986df4aa91ff78c68d795cded6", "blocktime": 1537873282, "version": 1, "confirmations": 11484, "time": 1537873282, "locktime": 542995, "vsize": 224, "size": 224}