{"hash": "def373316d1104d13fb0773177fce76a0d2c6e478f80d8aee90b96a5a9d540e2", "blockhash": "00000000000000000018f53835495a110e01622372bf6ae95dc86f2b0ab887b0", "vout": [{"scriptPubKey": {"reqSigs": 1, "hex": "76a9145f29f296e3d9b42b276c51b71ed8077abad13a6c88ac", "addresses": ["19gBSo8HWkVEPAArUjatmMHR11j4efL2fw"], "asm": "OP_DUP OP_HASH160 5f29f296e3d9b42b276c51b71ed8077abad13a6c OP_EQUALVERIFY OP_CHECKSIG", "type": "pubkeyhash"}, "value": 0.000787, "n": 0}, {"scriptPubKey": {"reqSigs": 1, "hex": "76a914d32030a428bc65166cf70d8f1c84eb4de01c1c6b88ac", "addresses": ["1LFL95TvD5oC79wuECT2uTdZC3uVNx2A1Z"], "asm": "OP_DUP OP_HASH160 d32030a428bc65166cf70d8f1c84eb4de01c1c6b OP_EQUALVERIFY OP_CHECKSIG", "type": "pubkeyhash"}, "value": 0.00443272, "n": 1}], "hex": "0100000001e3bddff490a8ec3538ac1a0e5ae6ba056e3bf14729558e47cdba872f36f15761010000006a47304402207746617b7cbb01e5fb366b79550fae76b63bf6f23291bdcc4f11aae139c931eb02203ed2e1a9349adb83585be625ad88f782ea20df602fcd8f6c6a86382b69eaf2c8012102a00ae708a61bd99a4ef3f7946e4f4d9a6003b31bf9a94e3a0c107ea7b8c5e5ddfdffffff026c330100000000001976a9145f29f296e3d9b42b276c51b71ed8077abad13a6c88ac88c30600000000001976a914d32030a428bc65166cf70d8f1c84eb4de01c1c6b88ac0e490800", "vin": [{"sequence": 4294967293, "scriptSig": {"hex": "47304402207746617b7cbb01e5fb366b79550fae76b63bf6f23291bdcc4f11aae139c931eb02203ed2e1a9349adb83585be625ad88f782ea20df602fcd8f6c6a86382b69eaf2c8012102a00ae708a61bd99a4ef3f7946e4f4d9a6003b31bf9a94e3a0c107ea7b8c5e5dd", "asm": "304402207746617b7cbb01e5fb366b79550fae76b63bf6f23291bdcc4f11aae139c931eb02203ed2e1a9349adb83585be625ad88f782ea20df602fcd8f6c6a86382b69eaf2c8[ALL] 02a00ae708a61bd99a4ef3f7946e4f4d9a6003b31bf9a94e3a0c107ea7b8c5e5dd"}, "vout": 1, "txid": "6157f1362f87bacd478e552947f13b6e05bae65a0e1aac3835eca890f4dfbde3"}], "txid": "def373316d1104d13fb0773177fce76a0d2c6e478f80d8aee90b96a5a9d540e2", "blocktime": 1537870928, "version": 1, "confirmations": 11514, "time": 1537870928, "locktime": 542990, "vsize": 225, "size": 225}