{"hash": "def60aede4b348da997232880837df102e6c09301f77a99d8bf0a6890b68819b", "blockhash": "00000000000000000018f53835495a110e01622372bf6ae95dc86f2b0ab887b0", "vout": [{"scriptPubKey": {"reqSigs": 1, "hex": "a9147ad8f604d486354bf9c2a57bb5d9717db4f66fae87", "addresses": ["3CtaGfNa1veK452mXcU8L5FEZ82EmfZnuX"], "asm": "OP_HASH160 7ad8f604d486354bf9c2a57bb5d9717db4f66fae OP_EQUAL", "type": "scripthash"}, "value": 0.00632452, "n": 0}, {"scriptPubKey": {"reqSigs": 1, "hex": "76a914de94a7e9a4ffa583ef3bed5331d79776983b9d4388ac", "addresses": ["1MHu6P3FKAGJPCVun2ufEJKJmKq4f22eS8"], "asm": "OP_DUP OP_HASH160 de94a7e9a4ffa583ef3bed5331d79776983b9d43 OP_EQUALVERIFY OP_CHECKSIG", "type": "pubkeyhash"}, "value": 0.00928356, "n": 1}], "hex": "01000000010afeecbf4eb0715d4020f7e71c88be51068facca965e5169ae85e567158da13a010000006a47304402204bb037b53e09203a386d59f75c6f71bcfbd191558a0c9ccfc81b82a6ef6eebfc02204852dd0cc4c8336562820841e6fc3d6d332c36b09258640fc7924cf4ffc2840e012102288b2ecc9394373954309ee015f672127e6546f098e6d0a99898fa13908634d3ffffffff0284a609000000000017a9147ad8f604d486354bf9c2a57bb5d9717db4f66fae87642a0e00000000001976a914de94a7e9a4ffa583ef3bed5331d79776983b9d4388ac00000000", "vin": [{"sequence": 4294967295, "scriptSig": {"hex": "47304402204bb037b53e09203a386d59f75c6f71bcfbd191558a0c9ccfc81b82a6ef6eebfc02204852dd0cc4c8336562820841e6fc3d6d332c36b09258640fc7924cf4ffc2840e012102288b2ecc9394373954309ee015f672127e6546f098e6d0a99898fa13908634d3", "asm": "304402204bb037b53e09203a386d59f75c6f71bcfbd191558a0c9ccfc81b82a6ef6eebfc02204852dd0cc4c8336562820841e6fc3d6d332c36b09258640fc7924cf4ffc2840e[ALL] 02288b2ecc9394373954309ee015f672127e6546f098e6d0a99898fa13908634d3"}, "vout": 1, "txid": "3aa18d1567e585ae69515e96caac8f0651be881ce7f720405d71b04ebfecfe0a"}], "txid": "def60aede4b348da997232880837df102e6c09301f77a99d8bf0a6890b68819b", "blocktime": 1537870928, "version": 1, "confirmations": 11514, "time": 1537870928, "locktime": 0, "vsize": 223, "size": 223}