{"hash": "def62407e322d8f19d14a785706eceffa040a144f8dfeae911fbbdf94bcd9b94", "blockhash": "00000000000000000004ffacab907a6b429b9a5745fa0b75af4234bf69dd7176", "vout": [{"scriptPubKey": {"reqSigs": 1, "hex": "76a914d243e6abb9a60fbff430b421d2df4b7d59ec186088ac", "addresses": ["1LAnF8h3qMGx3TSwNUHVneBZUEpwE4gu3D"], "asm": "OP_DUP OP_HASH160 d243e6abb9a60fbff430b421d2df4b7d59ec1860 OP_EQUALVERIFY OP_CHECKSIG", "type": "pubkeyhash"}, "value": 0.00077314, "n": 0}, {"scriptPubKey": {"reqSigs": 1, "hex": "76a914dc60f34deebe4b32ed0a8beb22b465269a1218e588ac", "addresses": ["1M6FoSEmepfQC7trxmYj3bWSpQ1rYsjkBx"], "asm": "OP_DUP OP_HASH160 dc60f34deebe4b32ed0a8beb22b465269a1218e5 OP_EQUALVERIFY OP_CHECKSIG", "type": "pubkeyhash"}, "value": 5.46e-06, "n": 1}, {"scriptPubKey": {"type": "nulldata", "hex": "6a146f6d6e69000000000000001f00000021c6463290", "asm": "OP_RETURN 6f6d6e69000000000000001f00000021c6463290"}, "value": 0.0, "n": 2}], "hex": "0100000001197746726a4181c52c8e14b53de2e96dfea97606dc6a26522937a3065076ec63000000006a473044022010f0e2f299ad11b72de4d24c470927c1f7a31ded015d4d9485f3fb2e23bd270e022000b5a7668a85f254615151476c9759d9b67e69f0de3065b1a4736f76f763ce7f01210271977291b74f1f5f5c42157e8aae804664eaaeccfd097918450d37f28fb94d77ffffffff03022e0100000000001976a914d243e6abb9a60fbff430b421d2df4b7d59ec186088ac22020000000000001976a914dc60f34deebe4b32ed0a8beb22b465269a1218e588ac0000000000000000166a146f6d6e69000000000000001f00000021c646329000000000", "vin": [{"sequence": 4294967295, "scriptSig": {"hex": "473044022010f0e2f299ad11b72de4d24c470927c1f7a31ded015d4d9485f3fb2e23bd270e022000b5a7668a85f254615151476c9759d9b67e69f0de3065b1a4736f76f763ce7f01210271977291b74f1f5f5c42157e8aae804664eaaeccfd097918450d37f28fb94d77", "asm": "3044022010f0e2f299ad11b72de4d24c470927c1f7a31ded015d4d9485f3fb2e23bd270e022000b5a7668a85f254615151476c9759d9b67e69f0de3065b1a4736f76f763ce7f[ALL] 0271977291b74f1f5f5c42157e8aae804664eaaeccfd097918450d37f28fb94d77"}, "vout": 0, "txid": "63ec765006a3372952266adc0676a9fe6de9e23db5148e2cc581416a72467719"}], "txid": "def62407e322d8f19d14a785706eceffa040a144f8dfeae911fbbdf94bcd9b94", "blocktime": 1537875543, "version": 1, "confirmations": 11464, "time": 1537875543, "locktime": 0, "vsize": 256, "size": 256}