{"hash": "defb7414a786be24bc9f536f5a639625e49ff2d64f1f3d8a87ac2b2f5ef6cfe5", "blockhash": "00000000000000000024a2167bbff67b0be802c0b01cdd79e6331c2be6459f87", "vout": [{"scriptPubKey": {"reqSigs": 1, "hex": "76a9146f025abce03d6c6d45ae414bb86db5f3b9d744dc88ac", "addresses": ["1B7xptCuZ9RyLcHTXyVbjCCWNpMh6p7Vrx"], "asm": "OP_DUP OP_HASH160 6f025abce03d6c6d45ae414bb86db5f3b9d744dc OP_EQUALVERIFY OP_CHECKSIG", "type": "pubkeyhash"}, "value": 0.0008242, "n": 0}, {"scriptPubKey": {"type": "nulldata", "hex": "6a4c500000777f0001697b62b91ca94ca97e027312bcbefa6b8351586b4e86aeaeacb577c031fc23f646fef7818aeb8a3635f57734f1825baa0a860613dabc4d245b7abc9a9526289ac0f6612cd74e33776ee4", "asm": "OP_RETURN 0000777f0001697b62b91ca94ca97e027312bcbefa6b8351586b4e86aeaeacb577c031fc23f646fef7818aeb8a3635f57734f1825baa0a860613dabc4d245b7abc9a9526289ac0f6612cd74e33776ee4"}, "value": 0.0, "n": 1}], "hex": "0100000001869a4cde67ec7669c3a7677b8c17fd815280281991bcc50962ece3d3070c2e3e000000006b483045022100fb1f81fbc81c8cadc996ebcd11ebefdb6bbf3e81fec78686ab4e4badcf67959102205d18560baef572efb44ada6d16a08e103f4667dfac9bde19388390b1b8f1307d012102db699f1ae1c3b3cbd3325b82ade34df449e589141b057cb7cef2d975bb99bc6fffffffff02f4410100000000001976a9146f025abce03d6c6d45ae414bb86db5f3b9d744dc88ac0000000000000000536a4c500000777f0001697b62b91ca94ca97e027312bcbefa6b8351586b4e86aeaeacb577c031fc23f646fef7818aeb8a3635f57734f1825baa0a860613dabc4d245b7abc9a9526289ac0f6612cd74e33776ee400000000", "vin": [{"sequence": 4294967295, "scriptSig": {"hex": "483045022100fb1f81fbc81c8cadc996ebcd11ebefdb6bbf3e81fec78686ab4e4badcf67959102205d18560baef572efb44ada6d16a08e103f4667dfac9bde19388390b1b8f1307d012102db699f1ae1c3b3cbd3325b82ade34df449e589141b057cb7cef2d975bb99bc6f", "asm": "3045022100fb1f81fbc81c8cadc996ebcd11ebefdb6bbf3e81fec78686ab4e4badcf67959102205d18560baef572efb44ada6d16a08e103f4667dfac9bde19388390b1b8f1307d[ALL] 02db699f1ae1c3b3cbd3325b82ade34df449e589141b057cb7cef2d975bb99bc6f"}, "vout": 0, "txid": "3e2e0c07d3e3ec6209c5bc911928805281fd178c7b67a7c36976ec67de4c9a86"}], "txid": "defb7414a786be24bc9f536f5a639625e49ff2d64f1f3d8a87ac2b2f5ef6cfe5", "blocktime": 1537870564, "version": 1, "confirmations": 11515, "time": 1537870564, "locktime": 0, "vsize": 284, "size": 284}