{"hash": "df010129ffa5c8ad34e542749011f9fddfa56f8f9adcaaad5e3619254eed1276", "blockhash": "0000000000000000000e13cef7c366c0283d82e591d1acd082e914b08063cdf1", "vout": [{"scriptPubKey": {"reqSigs": 1, "hex": "76a914a896512d80a3dacea8837bdbcc0a69de727afc7a88ac", "addresses": ["1GNQbSgSCxiKQPTJusupqTvv3qAQiP6yZA"], "asm": "OP_DUP OP_HASH160 a896512d80a3dacea8837bdbcc0a69de727afc7a OP_EQUALVERIFY OP_CHECKSIG", "type": "pubkeyhash"}, "value": 0.00013103, "n": 0}, {"scriptPubKey": {"reqSigs": 1, "hex": "76a914aaafe6346ddd513c7b3b3a6d549f4a87c9a305ce88ac", "addresses": ["1GZWbJfBcGnmYwi4iJGdNz8ZGehcVE36wa"], "asm": "OP_DUP OP_HASH160 aaafe6346ddd513c7b3b3a6d549f4a87c9a305ce OP_EQUALVERIFY OP_CHECKSIG", "type": "pubkeyhash"}, "value": 0.00312589, "n": 1}], "hex": "0100000002017e51b1b4ded2cec78d9a9c0af2c0107723e9825954e28225c795a4e97ae85d000000006b483045022100e354b48157269c0006b6f0653eb3f9fc158a52d98b64adb85ad838ae984e615402200babc18f9592b83c2b0447b543b267aac9b9579c0386cb3017369101481be79a01210317c5bad3cd3ce3ea03aa8adf52e65ffd143d36ae290afc10a3b708f3542d8cc6ffffffffb6e57bfd86b8c5c7fdac8a2078a88b9c4f803e6746f38cb94e903450d0014ef4000000006a47304402205e15e7bea846d749757b6f11f75ea4e6aaabe56fd2de432d2058b9bf10438f9c02204c1b6c5b4e005908100673065e6c0d84192d0f33472e83c48d90909a540846760121028b60a8c7f4d5239e06c2023510cb512cf41c8b7fb80d9dcc549770a6fd6b2a25ffffffff022f330000000000001976a914a896512d80a3dacea8837bdbcc0a69de727afc7a88ac0dc50400000000001976a914aaafe6346ddd513c7b3b3a6d549f4a87c9a305ce88ac00000000", "vin": [{"sequence": 4294967295, "scriptSig": {"hex": "483045022100e354b48157269c0006b6f0653eb3f9fc158a52d98b64adb85ad838ae984e615402200babc18f9592b83c2b0447b543b267aac9b9579c0386cb3017369101481be79a01210317c5bad3cd3ce3ea03aa8adf52e65ffd143d36ae290afc10a3b708f3542d8cc6", "asm": "3045022100e354b48157269c0006b6f0653eb3f9fc158a52d98b64adb85ad838ae984e615402200babc18f9592b83c2b0447b543b267aac9b9579c0386cb3017369101481be79a[ALL] 0317c5bad3cd3ce3ea03aa8adf52e65ffd143d36ae290afc10a3b708f3542d8cc6"}, "vout": 0, "txid": "5de87ae9a495c72582e2545982e9237710c0f20a9c9a8dc7ced2deb4b1517e01"}, {"sequence": 4294967295, "scriptSig": {"hex": "47304402205e15e7bea846d749757b6f11f75ea4e6aaabe56fd2de432d2058b9bf10438f9c02204c1b6c5b4e005908100673065e6c0d84192d0f33472e83c48d90909a540846760121028b60a8c7f4d5239e06c2023510cb512cf41c8b7fb80d9dcc549770a6fd6b2a25", "asm": "304402205e15e7bea846d749757b6f11f75ea4e6aaabe56fd2de432d2058b9bf10438f9c02204c1b6c5b4e005908100673065e6c0d84192d0f33472e83c48d90909a54084676[ALL] 028b60a8c7f4d5239e06c2023510cb512cf41c8b7fb80d9dcc549770a6fd6b2a25"}, "vout": 0, "txid": "f44e01d05034904eb98cf346673e804f9c8ba878208aacfdc7c5b886fd7be5b6"}], "txid": "df010129ffa5c8ad34e542749011f9fddfa56f8f9adcaaad5e3619254eed1276", "blocktime": 1537871767, "version": 1, "confirmations": 11495, "time": 1537871767, "locktime": 0, "vsize": 373, "size": 373}