{"hash": "df052c5ac139d8ca77788c723c3b736bb8f14599a395873f0aa48a3d7a20e148", "blockhash": "0000000000000000000e13cef7c366c0283d82e591d1acd082e914b08063cdf1", "vout": [{"scriptPubKey": {"reqSigs": 1, "hex": "76a9141878f8eb1e841972c318b40b24fece292e57393a88ac", "addresses": ["13EQ8uju5t7ZKW7Mv1upmgdNXUCNmtKAJG"], "asm": "OP_DUP OP_HASH160 1878f8eb1e841972c318b40b24fece292e57393a OP_EQUALVERIFY OP_CHECKSIG", "type": "pubkeyhash"}, "value": 0.00012861, "n": 0}, {"scriptPubKey": {"reqSigs": 1, "hex": "76a91460ddd667593ef6df63c88dc81c9c6b5c23c9ac9b88ac", "addresses": ["19qBcxUUcAZxcPCpNB53eY7ALN3KohTQd1"], "asm": "OP_DUP OP_HASH160 60ddd667593ef6df63c88dc81c9c6b5c23c9ac9b OP_EQUALVERIFY OP_CHECKSIG", "type": "pubkeyhash"}, "value": 0.00296959, "n": 1}], "hex": "0100000001cb9de9b8dfdcdcdf728aeb621afd7e30b9180382bc37e79bd8d8e736faeb4333000000006b483045022100f48807433b4f2540cbf39564472a685ad38655c9c9bc59f755c95133a296f4520220571f56abc28872761be723d3c3ca9d05665779876b8c476c61cc7ff2b0cfd05f0121032c9ba1717c44507ea8e8e24fb141aab6f6b4b4de2d007c9936564437022c8ec4ffffffff023d320000000000001976a9141878f8eb1e841972c318b40b24fece292e57393a88acff870400000000001976a91460ddd667593ef6df63c88dc81c9c6b5c23c9ac9b88ac00000000", "vin": [{"sequence": 4294967295, "scriptSig": {"hex": "483045022100f48807433b4f2540cbf39564472a685ad38655c9c9bc59f755c95133a296f4520220571f56abc28872761be723d3c3ca9d05665779876b8c476c61cc7ff2b0cfd05f0121032c9ba1717c44507ea8e8e24fb141aab6f6b4b4de2d007c9936564437022c8ec4", "asm": "3045022100f48807433b4f2540cbf39564472a685ad38655c9c9bc59f755c95133a296f4520220571f56abc28872761be723d3c3ca9d05665779876b8c476c61cc7ff2b0cfd05f[ALL] 032c9ba1717c44507ea8e8e24fb141aab6f6b4b4de2d007c9936564437022c8ec4"}, "vout": 0, "txid": "3343ebfa36e7d8d89be737bc820318b9307efd1a62eb8a72dfdcdcdfb8e99dcb"}], "txid": "df052c5ac139d8ca77788c723c3b736bb8f14599a395873f0aa48a3d7a20e148", "blocktime": 1537871767, "version": 1, "confirmations": 11495, "time": 1537871767, "locktime": 0, "vsize": 226, "size": 226}