{"hash": "df06b2f1819f9afacacf3e3ff054efa187592f80de45b3a00b84e42474ab95eb", "blockhash": "0000000000000000000baef3f32e3676a92c3b2e5da21b426e4f302fc371ce76", "vout": [{"scriptPubKey": {"reqSigs": 1, "hex": "76a914aec91bcd3302454063344cd7c05ab43c21a1e2ad88ac", "addresses": ["1GwBVeeAPCWnCGvSFRZ9RqgJjCDGt7Ntf4"], "asm": "OP_DUP OP_HASH160 aec91bcd3302454063344cd7c05ab43c21a1e2ad OP_EQUALVERIFY OP_CHECKSIG", "type": "pubkeyhash"}, "value": 0.00305984, "n": 0}, {"scriptPubKey": {"reqSigs": 1, "hex": "76a914b6363358942088db54e4f7a444e885431980515e88ac", "addresses": ["1HcSuqRDfrDQeWddSMBvGckKFpqfGrBdRJ"], "asm": "OP_DUP OP_HASH160 b6363358942088db54e4f7a444e885431980515e OP_EQUALVERIFY OP_CHECKSIG", "type": "pubkeyhash"}, "value": 0.02772002, "n": 1}], "hex": "010000000111ec374c970f16de96d81ba1d4c1f27e44cecdeb939ac5eb0dd9e54297c2ec7c020000006b483045022100fce7a2d4d60bafc8e962bd0e409824661476ea71b6103d545c69aa5cabe6da0f0220249d6f2ba12d3e5d6a6a1ec37d0ac8dadea2c8887992873727c597493278ae30012102c8e4652ef2a570d16d8ede3f86c7e9e2104159e9f917f5dabd0e3d53c0432a0effffffff0240ab0400000000001976a914aec91bcd3302454063344cd7c05ab43c21a1e2ad88ac224c2a00000000001976a914b6363358942088db54e4f7a444e885431980515e88ac00000000", "vin": [{"sequence": 4294967295, "scriptSig": {"hex": "483045022100fce7a2d4d60bafc8e962bd0e409824661476ea71b6103d545c69aa5cabe6da0f0220249d6f2ba12d3e5d6a6a1ec37d0ac8dadea2c8887992873727c597493278ae30012102c8e4652ef2a570d16d8ede3f86c7e9e2104159e9f917f5dabd0e3d53c0432a0e", "asm": "3045022100fce7a2d4d60bafc8e962bd0e409824661476ea71b6103d545c69aa5cabe6da0f0220249d6f2ba12d3e5d6a6a1ec37d0ac8dadea2c8887992873727c597493278ae30[ALL] 02c8e4652ef2a570d16d8ede3f86c7e9e2104159e9f917f5dabd0e3d53c0432a0e"}, "vout": 2, "txid": "7cecc29742e5d90debc59a93ebcdce447ef2c1d4a11bd896de160f974c37ec11"}], "txid": "df06b2f1819f9afacacf3e3ff054efa187592f80de45b3a00b84e42474ab95eb", "blocktime": 1537876114, "version": 1, "confirmations": 11460, "time": 1537876114, "locktime": 0, "vsize": 226, "size": 226}