{"hash": "df080e238ec90d58ef763a1f9f149b66c82e334da58e2ecda0e25967c57b0444", "blockhash": "000000000000000000022b45ed06c6f4ccd3cf7fb5ba4856ebd2e58215665228", "vout": [{"scriptPubKey": {"reqSigs": 1, "hex": "a9149d047cf95039724effb0b583b3fdad1af13d77aa87", "addresses": ["3G1FPWG3b1QHNWDMP5ErBaVb94KmbKS1gf"], "asm": "OP_HASH160 9d047cf95039724effb0b583b3fdad1af13d77aa OP_EQUAL", "type": "scripthash"}, "value": 0.007, "n": 0}, {"scriptPubKey": {"reqSigs": 1, "hex": "76a914912816463eb246777a9cba3e3ded5e94102ff50788ac", "addresses": ["1EEX17Ms4EmbVobe6iqS1vHG46G89ydT7c"], "asm": "OP_DUP OP_HASH160 912816463eb246777a9cba3e3ded5e94102ff507 OP_EQUALVERIFY OP_CHECKSIG", "type": "pubkeyhash"}, "value": 0.0263744, "n": 1}], "hex": "01000000010e7ad74533850c9ad4668c3de027ab69793f5b382f8b60a57f7632c803172b74000000006a473044022046a09cfbffadc6f61292cffa57f59842aff0eed4740a630425d652cbbb62dcc0022054d95693408027d09258db68430f39708eec6ca41154326027eceee211f4c55801210243956fccd0308364221797dd286108c97648ac3765e1a7d36e0a3351f45d684fffffffff0260ae0a000000000017a9149d047cf95039724effb0b583b3fdad1af13d77aa87803e2800000000001976a914912816463eb246777a9cba3e3ded5e94102ff50788ac00000000", "vin": [{"sequence": 4294967295, "scriptSig": {"hex": "473044022046a09cfbffadc6f61292cffa57f59842aff0eed4740a630425d652cbbb62dcc0022054d95693408027d09258db68430f39708eec6ca41154326027eceee211f4c55801210243956fccd0308364221797dd286108c97648ac3765e1a7d36e0a3351f45d684f", "asm": "3044022046a09cfbffadc6f61292cffa57f59842aff0eed4740a630425d652cbbb62dcc0022054d95693408027d09258db68430f39708eec6ca41154326027eceee211f4c558[ALL] 0243956fccd0308364221797dd286108c97648ac3765e1a7d36e0a3351f45d684f"}, "vout": 0, "txid": "742b1703c832767fa5608b2f385b3f7969ab27e03d8c66d49a0c853345d77a0e"}], "txid": "df080e238ec90d58ef763a1f9f149b66c82e334da58e2ecda0e25967c57b0444", "blocktime": 1537869901, "version": 1, "confirmations": 11522, "time": 1537869901, "locktime": 0, "vsize": 223, "size": 223}