{"hash": "df177df32bf05d5ef53e88bf7899927715d621c4d7f4f2feb106f576efa33ac6", "blockhash": "0000000000000000000baef3f32e3676a92c3b2e5da21b426e4f302fc371ce76", "vout": [{"scriptPubKey": {"reqSigs": 1, "hex": "76a914d46e9b10c93f885ce57f084465457affcb59120488ac", "addresses": ["1LNEkgwFi7Hh1GUd5LdHwoDa6CGj3EJMCB"], "asm": "OP_DUP OP_HASH160 d46e9b10c93f885ce57f084465457affcb591204 OP_EQUALVERIFY OP_CHECKSIG", "type": "pubkeyhash"}, "value": 8.417e-05, "n": 0}, {"scriptPubKey": {"reqSigs": 1, "hex": "76a914634cf8de92bbe26fd54d96c2ba3079d7cdc16db388ac", "addresses": ["1A4477MzUQ8BFpPT3TC4Ktw9PEzvXx1Qcs"], "asm": "OP_DUP OP_HASH160 634cf8de92bbe26fd54d96c2ba3079d7cdc16db3 OP_EQUALVERIFY OP_CHECKSIG", "type": "pubkeyhash"}, "value": 0.01962281, "n": 1}], "hex": "01000000013277e227678a605cc4d0fdac2dafc2f172b7fb0e855ee40e53bbdf9ebbcafbfa000000006b483045022100ca2873d9cfc6bd2ac324c0d4f25c1e3ae28c0816938bb8c31636a012f5032ec6022030c957034393574fbc2b5e172b40f20503623dac5c972ea31a63f8db44e7f552012102684c5a5598db0cf12f7f7ba845794500b1eb66428f430f42fcce64445ed6b8a3ffffffff02e1200000000000001976a914d46e9b10c93f885ce57f084465457affcb59120488ac29f11d00000000001976a914634cf8de92bbe26fd54d96c2ba3079d7cdc16db388ac00000000", "vin": [{"sequence": 4294967295, "scriptSig": {"hex": "483045022100ca2873d9cfc6bd2ac324c0d4f25c1e3ae28c0816938bb8c31636a012f5032ec6022030c957034393574fbc2b5e172b40f20503623dac5c972ea31a63f8db44e7f552012102684c5a5598db0cf12f7f7ba845794500b1eb66428f430f42fcce64445ed6b8a3", "asm": "3045022100ca2873d9cfc6bd2ac324c0d4f25c1e3ae28c0816938bb8c31636a012f5032ec6022030c957034393574fbc2b5e172b40f20503623dac5c972ea31a63f8db44e7f552[ALL] 02684c5a5598db0cf12f7f7ba845794500b1eb66428f430f42fcce64445ed6b8a3"}, "vout": 0, "txid": "fafbcabb9edfbb530ee45e850efbb772f1c2af2dacfdd0c45c608a6727e27732"}], "txid": "df177df32bf05d5ef53e88bf7899927715d621c4d7f4f2feb106f576efa33ac6", "blocktime": 1537876114, "version": 1, "confirmations": 11460, "time": 1537876114, "locktime": 0, "vsize": 226, "size": 226}