{"hash": "df1850b9dc6bb86a0d3a38355428627d737768537744820e5d7246e3137b3439", "blockhash": "0000000000000000000e13cef7c366c0283d82e591d1acd082e914b08063cdf1", "vout": [{"scriptPubKey": {"reqSigs": 1, "hex": "76a9147bdc2836889ed85c69cfaf163e2386433eeabf8888ac", "addresses": ["1CHurNtVw1LYRXYq9t2nau8UUrNYUJsjxG"], "asm": "OP_DUP OP_HASH160 7bdc2836889ed85c69cfaf163e2386433eeabf88 OP_EQUALVERIFY OP_CHECKSIG", "type": "pubkeyhash"}, "value": 0.01624738, "n": 0}], "hex": "01000000076b2394c8362f0ead352c675f54e1e8de0529b817540e66e19e53337690bd5834000000006a473044022030121111b3d37793bd47a9e8ed243f144b61ab4b793063a37ee111642c9bbe2702203b7f4b23b8be5d5da379b5d3d291a08072bcdbbfd2c7414bc6862f23bd64fc3901210322f02199b62e132375b0ec042661200eaf703cd7650b2f624fde4c2b9cff63a0ffffffffcdc548e9e3fc7e614deb73f8b57b3e9829ec3ffd83a08b722afa9118ab5c793b020000006b483045022100c6ef695b38ab253b023ee2d3e0903167070cc39143899da0aeae2840fa85f4d002205d13543d958800f7ecabb315eb4c491e07445fb611a8ee6107052ba5180c00a70121020acf7c1a89e9f2ac65121fe5c51891348f13ab0165735e3767f5dd54cb7705c1ffffffff1389bed8e5e269c48166f172f125eb0cd57e675c3bec76b239349346d56bd04ee60300006a47304402206f55f721762ce4a0e826018bf465a904bb1097754d763ef31e5628a877767e9a022074fb6cd533341f9a3bcc10242e16a4dc40d170242edd850d9e3bb76d0bff5e0401210342e8dcba317e95a9a5c88058009bf112a85f850b79b5f51c2eac279612521c0affffffffc696c288f96f5e5f21ecc01b3449a10843ee0935196d3c887252bc81afeaed533e0300006a473044022057315f6e22f69955b83884c47053cb1546162fe307887aad7f709990d70b60ab022012f7fd3c8eef95425f2900264a68f501531005b58b044622c8f1d683591f0b500121026655640506974c8c79fb8d234fbf78ff75b44374164c16713cab2c8fd059e154ffffffff9bd836dbdea39b61cf55e3441e7a969f3fe093619ce32022df0233eb5f3beb75960000006a47304402201dcd7d8ae17e0305ee1ad6079525b97635ab224bb2f3aeb4a650373c03076baf02201af619a764a3a06a07410fe007fc6082e2931dbf4b3eb087edb5e0270bc8e566012103d8ce73711a11e9da44f9d541ecbc87e76f5e8886b884d00f872e110179b7b62affffffff578ad3884de00862339e471226a82d8c20700b9c3997b1ff3a63683d8abd80ac010000006a47304402205e72adad2776aa4a0e72db5e303c6425a8b46388be5a2a51d5806b6e7d133961022003467f50912f87058a32063036f55746c67e9164497fd7644722d1dfd27efd6d012103418489ba2de2254913e9c0268742f76cdb352875bfcada414dd7e42aa19d0417ffffffff0be7df5f429932834cf5e41d4162efeec8426c42908dd545a53bafd11ac2c5bdae0000006b483045022100b1c7b52950429edfe4f5f208248ba8f4dde55c9190a323c4b7f442f6b0ff149202201d7ad5cd66adfb43ed3266b0964c8f500f5db01600b7ca97d802b9e955db8e74012102e706bb171f70ca0667668243b223a48bf6ed8afdb67193902ebe4f7041a798abffffffff01a2ca1800000000001976a9147bdc2836889ed85c69cfaf163e2386433eeabf8888ac00000000", "vin": [{"sequence": 4294967295, "scriptSig": {"hex": "473044022030121111b3d37793bd47a9e8ed243f144b61ab4b793063a37ee111642c9bbe2702203b7f4b23b8be5d5da379b5d3d291a08072bcdbbfd2c7414bc6862f23bd64fc3901210322f02199b62e132375b0ec042661200eaf703cd7650b2f624fde4c2b9cff63a0", "asm": "3044022030121111b3d37793bd47a9e8ed243f144b61ab4b793063a37ee111642c9bbe2702203b7f4b23b8be5d5da379b5d3d291a08072bcdbbfd2c7414bc6862f23bd64fc39[ALL] 0322f02199b62e132375b0ec042661200eaf703cd7650b2f624fde4c2b9cff63a0"}, "vout": 0, "txid": "3458bd907633539ee1660e5417b82905dee8e1545f672c35ad0e2f36c894236b"}, {"sequence": 4294967295, "scriptSig": {"hex": "483045022100c6ef695b38ab253b023ee2d3e0903167070cc39143899da0aeae2840fa85f4d002205d13543d958800f7ecabb315eb4c491e07445fb611a8ee6107052ba5180c00a70121020acf7c1a89e9f2ac65121fe5c51891348f13ab0165735e3767f5dd54cb7705c1", "asm": "3045022100c6ef695b38ab253b023ee2d3e0903167070cc39143899da0aeae2840fa85f4d002205d13543d958800f7ecabb315eb4c491e07445fb611a8ee6107052ba5180c00a7[ALL] 020acf7c1a89e9f2ac65121fe5c51891348f13ab0165735e3767f5dd54cb7705c1"}, "vout": 2, "txid": "3b795cab1891fa2a728ba083fd3fec29983e7bb5f873eb4d617efce3e948c5cd"}, {"sequence": 4294967295, "scriptSig": {"hex": "47304402206f55f721762ce4a0e826018bf465a904bb1097754d763ef31e5628a877767e9a022074fb6cd533341f9a3bcc10242e16a4dc40d170242edd850d9e3bb76d0bff5e0401210342e8dcba317e95a9a5c88058009bf112a85f850b79b5f51c2eac279612521c0a", "asm": "304402206f55f721762ce4a0e826018bf465a904bb1097754d763ef31e5628a877767e9a022074fb6cd533341f9a3bcc10242e16a4dc40d170242edd850d9e3bb76d0bff5e04[ALL] 0342e8dcba317e95a9a5c88058009bf112a85f850b79b5f51c2eac279612521c0a"}, "vout": 998, "txid": "4ed06bd546933439b276ec3b5c677ed50ceb25f172f16681c469e2e5d8be8913"}, {"sequence": 4294967295, "scriptSig": {"hex": "473044022057315f6e22f69955b83884c47053cb1546162fe307887aad7f709990d70b60ab022012f7fd3c8eef95425f2900264a68f501531005b58b044622c8f1d683591f0b500121026655640506974c8c79fb8d234fbf78ff75b44374164c16713cab2c8fd059e154", "asm": "3044022057315f6e22f69955b83884c47053cb1546162fe307887aad7f709990d70b60ab022012f7fd3c8eef95425f2900264a68f501531005b58b044622c8f1d683591f0b50[ALL] 026655640506974c8c79fb8d234fbf78ff75b44374164c16713cab2c8fd059e154"}, "vout": 830, "txid": "53edeaaf81bc5272883c6d193509ee4308a149341bc0ec215f5e6ff988c296c6"}, {"sequence": 4294967295, "scriptSig": {"hex": "47304402201dcd7d8ae17e0305ee1ad6079525b97635ab224bb2f3aeb4a650373c03076baf02201af619a764a3a06a07410fe007fc6082e2931dbf4b3eb087edb5e0270bc8e566012103d8ce73711a11e9da44f9d541ecbc87e76f5e8886b884d00f872e110179b7b62a", "asm": "304402201dcd7d8ae17e0305ee1ad6079525b97635ab224bb2f3aeb4a650373c03076baf02201af619a764a3a06a07410fe007fc6082e2931dbf4b3eb087edb5e0270bc8e566[ALL] 03d8ce73711a11e9da44f9d541ecbc87e76f5e8886b884d00f872e110179b7b62a"}, "vout": 150, "txid": "75eb3b5feb3302df2220e39c6193e03f9f967a1e44e355cf619ba3dedb36d89b"}, {"sequence": 4294967295, "scriptSig": {"hex": "47304402205e72adad2776aa4a0e72db5e303c6425a8b46388be5a2a51d5806b6e7d133961022003467f50912f87058a32063036f55746c67e9164497fd7644722d1dfd27efd6d012103418489ba2de2254913e9c0268742f76cdb352875bfcada414dd7e42aa19d0417", "asm": "304402205e72adad2776aa4a0e72db5e303c6425a8b46388be5a2a51d5806b6e7d133961022003467f50912f87058a32063036f55746c67e9164497fd7644722d1dfd27efd6d[ALL] 03418489ba2de2254913e9c0268742f76cdb352875bfcada414dd7e42aa19d0417"}, "vout": 1, "txid": "ac80bd8a3d68633affb197399c0b70208c2da82612479e336208e04d88d38a57"}, {"sequence": 4294967295, "scriptSig": {"hex": "483045022100b1c7b52950429edfe4f5f208248ba8f4dde55c9190a323c4b7f442f6b0ff149202201d7ad5cd66adfb43ed3266b0964c8f500f5db01600b7ca97d802b9e955db8e74012102e706bb171f70ca0667668243b223a48bf6ed8afdb67193902ebe4f7041a798ab", "asm": "3045022100b1c7b52950429edfe4f5f208248ba8f4dde55c9190a323c4b7f442f6b0ff149202201d7ad5cd66adfb43ed3266b0964c8f500f5db01600b7ca97d802b9e955db8e74[ALL] 02e706bb171f70ca0667668243b223a48bf6ed8afdb67193902ebe4f7041a798ab"}, "vout": 174, "txid": "bdc5c21ad1af3ba545d58d90426c42c8eeef62411de4f54c833299425fdfe70b"}], "txid": "df1850b9dc6bb86a0d3a38355428627d737768537744820e5d7246e3137b3439", "blocktime": 1537871767, "version": 1, "confirmations": 11495, "time": 1537871767, "locktime": 0, "vsize": 1075, "size": 1075}