{"hash": "b5e8feef36a884316d2d993546ca4623e06d464c97ad20a31a0c42b28792b6b1", "blockhash": "0000000000000000000e13cef7c366c0283d82e591d1acd082e914b08063cdf1", "vout": [{"scriptPubKey": {"reqSigs": 1, "hex": "76a914d4128d3c6e47630a841800f0f8935c3aa547d2b088ac", "addresses": ["1LLLUfTKMGEENAo2mTi8YndswoVyvix5pW"], "asm": "OP_DUP OP_HASH160 d4128d3c6e47630a841800f0f8935c3aa547d2b0 OP_EQUALVERIFY OP_CHECKSIG", "type": "pubkeyhash"}, "value": 0.08976703, "n": 0}, {"scriptPubKey": {"reqSigs": 1, "hex": "0014a4bfd3d182036e85048b9f9fe92d2f7a14cc0756", "addresses": ["bc1q5jla85vzqdhg2pytn707jtf00g2vcp6k9672qs"], "asm": "0 a4bfd3d182036e85048b9f9fe92d2f7a14cc0756", "type": "witness_v0_keyhash"}, "value": 0.00648851, "n": 1}], "hex": "010000000001012af045f4d3aa0069b10a9198f6dfb171ba18107860a930d09db1253f88a47fd50000000000ffffffff023ff98800000000001976a914d4128d3c6e47630a841800f0f8935c3aa547d2b088ac93e6090000000000160014a4bfd3d182036e85048b9f9fe92d2f7a14cc0756024730440220295e9e0fc7abe2264720a924bf4d6aede94ff3aa2ccdfe3b066baf886bbbfa570220669c5447091be52b137bf959b547d6aca325d8bdfed640b3f0ac66095a6778b90121037fbd424def58ca8f8815f3876108346354113996ac993c52127599e0b61ec5b200000000", "vin": [{"txinwitness": ["30440220295e9e0fc7abe2264720a924bf4d6aede94ff3aa2ccdfe3b066baf886bbbfa570220669c5447091be52b137bf959b547d6aca325d8bdfed640b3f0ac66095a6778b901", "037fbd424def58ca8f8815f3876108346354113996ac993c52127599e0b61ec5b2"], "sequence": 4294967295, "scriptSig": {"hex": "", "asm": ""}, "vout": 0, "txid": "d57fa4883f25b19dd030a960781018ba71b1dff698910ab16900aad3f445f02a"}], "txid": "df18803eb4348e0b528eadc9dc76577c96eacf90b8e296b949be5f5524dc4190", "blocktime": 1537871767, "version": 1, "confirmations": 11495, "time": 1537871767, "locktime": 0, "vsize": 144, "size": 225}