{"hash": "df1ba85b5634c63043e49877b213f44a1dd6a8ca5971f190e0ea88ca0d193a78", "blockhash": "0000000000000000000e13cef7c366c0283d82e591d1acd082e914b08063cdf1", "vout": [{"scriptPubKey": {"reqSigs": 1, "hex": "76a914e075b3b1f017bbbc23027ec919aa4b09638e715388ac", "addresses": ["1MTqN3YBD1gRYH8TniSk4as3g9FaTsuix7"], "asm": "OP_DUP OP_HASH160 e075b3b1f017bbbc23027ec919aa4b09638e7153 OP_EQUALVERIFY OP_CHECKSIG", "type": "pubkeyhash"}, "value": 0.00615982, "n": 0}, {"scriptPubKey": {"reqSigs": 1, "hex": "76a9148809cb1f55d39e31a1cf966e302a7af591d1ab4388ac", "addresses": ["1DQJdYshzncwPcEFPB1qtiyNM1mx3jZpq5"], "asm": "OP_DUP OP_HASH160 8809cb1f55d39e31a1cf966e302a7af591d1ab43 OP_EQUALVERIFY OP_CHECKSIG", "type": "pubkeyhash"}, "value": 0.00016818, "n": 1}], "hex": "01000000025df79ab39065c28219e5eeedb0050269065a8c5844e0669979934455725d352400000000da004830450221008b092cb830e67fcbe9b5b0346460855c146f7ef30c8a8fc24a63d3b6e2c476fe02206c7b77735649b8e98ed802ece88f5fbe7d2a5f6758e452ed5eb3932e3431f45a014730440220672984ebefc179e6db1f9fed8656cb109e55cc76f4a7361575602186fc7bbbb40220329b41b77ce9083fe36f6c0aeba246968958f4db28f68d88353d2f7b95eabb520147522102907a54bed8ad74b3f35638c60114ca240a308cb986f3f2f306178869a8880b612102f20a75f34c880e29f6529859f53fd931e3686701bcff083b9920624edd1059df52aeffffffff46f08e243cae07b9df59d610fc2f72713e940a807e96f65e8564f0d96983c701020000006a4730440220140d5f247fc620c779ec8afbcd98dd6eaa72349b705fec541c1d48cf02b10b45022035111e5ca3809469faadfd65fd92297cfe5ae6683e86d54db7d78eecc5730f6f012102a04332bc457538791f21b1b097125a429724a1057f5a601933e6b7f7379b74b1ffffffff022e660900000000001976a914e075b3b1f017bbbc23027ec919aa4b09638e715388acb2410000000000001976a9148809cb1f55d39e31a1cf966e302a7af591d1ab4388ac00000000", "vin": [{"sequence": 4294967295, "scriptSig": {"hex": "004830450221008b092cb830e67fcbe9b5b0346460855c146f7ef30c8a8fc24a63d3b6e2c476fe02206c7b77735649b8e98ed802ece88f5fbe7d2a5f6758e452ed5eb3932e3431f45a014730440220672984ebefc179e6db1f9fed8656cb109e55cc76f4a7361575602186fc7bbbb40220329b41b77ce9083fe36f6c0aeba246968958f4db28f68d88353d2f7b95eabb520147522102907a54bed8ad74b3f35638c60114ca240a308cb986f3f2f306178869a8880b612102f20a75f34c880e29f6529859f53fd931e3686701bcff083b9920624edd1059df52ae", "asm": "0 30450221008b092cb830e67fcbe9b5b0346460855c146f7ef30c8a8fc24a63d3b6e2c476fe02206c7b77735649b8e98ed802ece88f5fbe7d2a5f6758e452ed5eb3932e3431f45a[ALL] 30440220672984ebefc179e6db1f9fed8656cb109e55cc76f4a7361575602186fc7bbbb40220329b41b77ce9083fe36f6c0aeba246968958f4db28f68d88353d2f7b95eabb52[ALL] 522102907a54bed8ad74b3f35638c60114ca240a308cb986f3f2f306178869a8880b612102f20a75f34c880e29f6529859f53fd931e3686701bcff083b9920624edd1059df52ae"}, "vout": 0, "txid": "24355d72554493799966e044588c5a06690205b0edeee51982c26590b39af75d"}, {"sequence": 4294967295, "scriptSig": {"hex": "4730440220140d5f247fc620c779ec8afbcd98dd6eaa72349b705fec541c1d48cf02b10b45022035111e5ca3809469faadfd65fd92297cfe5ae6683e86d54db7d78eecc5730f6f012102a04332bc457538791f21b1b097125a429724a1057f5a601933e6b7f7379b74b1", "asm": "30440220140d5f247fc620c779ec8afbcd98dd6eaa72349b705fec541c1d48cf02b10b45022035111e5ca3809469faadfd65fd92297cfe5ae6683e86d54db7d78eecc5730f6f[ALL] 02a04332bc457538791f21b1b097125a429724a1057f5a601933e6b7f7379b74b1"}, "vout": 2, "txid": "01c78369d9f064855ef6967e800a943e71722ffc10d659dfb907ae3c248ef046"}], "txid": "df1ba85b5634c63043e49877b213f44a1dd6a8ca5971f190e0ea88ca0d193a78", "blocktime": 1537871767, "version": 1, "confirmations": 11495, "time": 1537871767, "locktime": 0, "vsize": 484, "size": 484}