{"hash": "4673d9406c1627faa98fc09525a84996dfe6ca8e588df92094102e95a7b7822d", "blockhash": "0000000000000000001f76057863aec43deb6fa401d9628bb513d65a8098bfab", "vout": [{"scriptPubKey": {"reqSigs": 1, "hex": "76a9142e1b944fe7ffbe969fc1df8d662fd7b5d6303c9b88ac", "addresses": ["15Co856cRnFRCKwSSzECoyT3ozVhuFoJZ6"], "asm": "OP_DUP OP_HASH160 2e1b944fe7ffbe969fc1df8d662fd7b5d6303c9b OP_EQUALVERIFY OP_CHECKSIG", "type": "pubkeyhash"}, "value": 0.0018266, "n": 0}, {"scriptPubKey": {"reqSigs": 1, "hex": "a914afd97f640ec3c39702c4bf158ae34332518fea4287", "addresses": ["3Hipj7YgFiWPLECzVsBwkCRe7AEdaapr9R"], "asm": "OP_HASH160 afd97f640ec3c39702c4bf158ae34332518fea42 OP_EQUAL", "type": "scripthash"}, "value": 0.01053511, "n": 1}], "hex": "020000000001025dbef7e18f4e7c1badde09873a2db299273a95a1d6fe75d821898bbb7bcc5f7b010000001716001490c605da66baacd245de7bc10d97df4505f1275cfeffffff7e5fed3ab4b150df3d891c458599fb2756da38bd04ba363dcd5aba24ead3d2f30000000017160014f6d7a42fadd0e5022585862b3aab4b1533dbcdbdfeffffff0284c90200000000001976a9142e1b944fe7ffbe969fc1df8d662fd7b5d6303c9b88ac471310000000000017a914afd97f640ec3c39702c4bf158ae34332518fea428702473044022029e6db92410b9ce39d3975733e5068126dea8932599a2175cbe75792f7dd54e702205490e131d465590bc76ea57ead94339af66cfd987ff2e48c6009c69673cbd75301210235d71f379ec9a74b2b3b980284713f2cf31232152d01746dc1dc12f6ef67221102483045022100b352e69cdb8dd1828ad868af03bc96c46382b948afbe0391b8678282a9e677590220373570cbdba988645ac3cbc3cf97333f730fa0cee001dc5e0554a2b72e268f9f012103597c45ab9818a2aad2d9f8efc02c13d1e157ee89f2eb7bdad604c8b28f9d93b814490800", "vin": [{"txinwitness": ["3044022029e6db92410b9ce39d3975733e5068126dea8932599a2175cbe75792f7dd54e702205490e131d465590bc76ea57ead94339af66cfd987ff2e48c6009c69673cbd75301", "0235d71f379ec9a74b2b3b980284713f2cf31232152d01746dc1dc12f6ef672211"], "sequence": 4294967294, "scriptSig": {"hex": "16001490c605da66baacd245de7bc10d97df4505f1275c", "asm": "001490c605da66baacd245de7bc10d97df4505f1275c"}, "vout": 1, "txid": "7b5fcc7bbb8b8921d875fed6a1953a2799b22d3a8709dead1b7c4e8fe1f7be5d"}, {"txinwitness": ["3045022100b352e69cdb8dd1828ad868af03bc96c46382b948afbe0391b8678282a9e677590220373570cbdba988645ac3cbc3cf97333f730fa0cee001dc5e0554a2b72e268f9f01", "03597c45ab9818a2aad2d9f8efc02c13d1e157ee89f2eb7bdad604c8b28f9d93b8"], "sequence": 4294967294, "scriptSig": {"hex": "160014f6d7a42fadd0e5022585862b3aab4b1533dbcdbd", "asm": "0014f6d7a42fadd0e5022585862b3aab4b1533dbcdbd"}, "vout": 0, "txid": "f3d2d3ea24ba5acd3d36ba04bd38da5627fb9985451c893ddf50b1b43aed5f7e"}], "txid": "df1d720bb127f3c2a1d15d8967062d7517ca1af83f32e3165141bfa8cc903749", "blocktime": 1537873891, "version": 2, "confirmations": 11478, "time": 1537873891, "locktime": 542996, "vsize": 259, "size": 421}