{"hash": "df1e20cc6157aa4b7b94ded669320b772ebe6ab663e5d744ad1ca7cc99838d95", "blockhash": "00000000000000000018f53835495a110e01622372bf6ae95dc86f2b0ab887b0", "vout": [{"scriptPubKey": {"reqSigs": 1, "hex": "76a914ea1575739d399813dfcfe37612886ed4d034e75c88ac", "addresses": ["1NLipsYvpdv3d7c8Qkt9HKy344HPPRoGbz"], "asm": "OP_DUP OP_HASH160 ea1575739d399813dfcfe37612886ed4d034e75c OP_EQUALVERIFY OP_CHECKSIG", "type": "pubkeyhash"}, "value": 0.00151864, "n": 0}, {"scriptPubKey": {"reqSigs": 1, "hex": "76a91492fb5c6a48aea47143efe8e1c8597c5c6a30fbde88ac", "addresses": ["1EQAmsn6u5HoEYC9TvJFKPSJwScSVj77JW"], "asm": "OP_DUP OP_HASH160 92fb5c6a48aea47143efe8e1c8597c5c6a30fbde OP_EQUALVERIFY OP_CHECKSIG", "type": "pubkeyhash"}, "value": 0.00156112, "n": 1}], "hex": "0100000003c36941327a52e65335cb272b313f211dbdb090dbc87a135680d287b3d791e62a000000006a473044022067e0f9fb5020451a043f1cceb7615bbb9502d3dffd849fee383eafceecf7f74d022016452887e65826a4c4d521e7712db2af3ad4977e15a02611bbe1c118f0a7ebeb012103941694a2bf74dcfd6d92b2463fba7aa580dd8b9c526a4ead19fe9eb52262c477fdffffffa13c5b595166e7f77dd0145fce8280b68ccfdc3387ebf27e8ec0bcec0da2f58c000000006b483045022100ef7b6658360a24a45ebc387ef08632a69c883aea1a9c6300bfe7b92a965a2ff3022078ab45cad199a94a7e192cae0186017ff7173c77839ea03a879d1ebcc962b8f9012103941694a2bf74dcfd6d92b2463fba7aa580dd8b9c526a4ead19fe9eb52262c477fdffffffe8dfe2c9c10c42320bc4a49474613d07e7b1c5b81242bb0e79cd8770b63e6db8000000006a473044022033ea7f9a5d4e10b73b834f4c5525fac366c45d2b38969cfbdc4a117bec1be07d022055766d9595ef65ccf782049b155cf46e19b70b2d467f000bdfbf535f37bbed7b012103941694a2bf74dcfd6d92b2463fba7aa580dd8b9c526a4ead19fe9eb52262c477fdffffff0238510200000000001976a914ea1575739d399813dfcfe37612886ed4d034e75c88acd0610200000000001976a91492fb5c6a48aea47143efe8e1c8597c5c6a30fbde88ac0e490800", "vin": [{"sequence": 4294967293, "scriptSig": {"hex": "473044022067e0f9fb5020451a043f1cceb7615bbb9502d3dffd849fee383eafceecf7f74d022016452887e65826a4c4d521e7712db2af3ad4977e15a02611bbe1c118f0a7ebeb012103941694a2bf74dcfd6d92b2463fba7aa580dd8b9c526a4ead19fe9eb52262c477", "asm": "3044022067e0f9fb5020451a043f1cceb7615bbb9502d3dffd849fee383eafceecf7f74d022016452887e65826a4c4d521e7712db2af3ad4977e15a02611bbe1c118f0a7ebeb[ALL] 03941694a2bf74dcfd6d92b2463fba7aa580dd8b9c526a4ead19fe9eb52262c477"}, "vout": 0, "txid": "2ae691d7b387d28056137ac8db90b0bd1d213f312b27cb3553e6527a324169c3"}, {"sequence": 4294967293, "scriptSig": {"hex": "483045022100ef7b6658360a24a45ebc387ef08632a69c883aea1a9c6300bfe7b92a965a2ff3022078ab45cad199a94a7e192cae0186017ff7173c77839ea03a879d1ebcc962b8f9012103941694a2bf74dcfd6d92b2463fba7aa580dd8b9c526a4ead19fe9eb52262c477", "asm": "3045022100ef7b6658360a24a45ebc387ef08632a69c883aea1a9c6300bfe7b92a965a2ff3022078ab45cad199a94a7e192cae0186017ff7173c77839ea03a879d1ebcc962b8f9[ALL] 03941694a2bf74dcfd6d92b2463fba7aa580dd8b9c526a4ead19fe9eb52262c477"}, "vout": 0, "txid": "8cf5a20decbcc08e7ef2eb8733dccf8cb68082ce5f14d07df7e76651595b3ca1"}, {"sequence": 4294967293, "scriptSig": {"hex": "473044022033ea7f9a5d4e10b73b834f4c5525fac366c45d2b38969cfbdc4a117bec1be07d022055766d9595ef65ccf782049b155cf46e19b70b2d467f000bdfbf535f37bbed7b012103941694a2bf74dcfd6d92b2463fba7aa580dd8b9c526a4ead19fe9eb52262c477", "asm": "3044022033ea7f9a5d4e10b73b834f4c5525fac366c45d2b38969cfbdc4a117bec1be07d022055766d9595ef65ccf782049b155cf46e19b70b2d467f000bdfbf535f37bbed7b[ALL] 03941694a2bf74dcfd6d92b2463fba7aa580dd8b9c526a4ead19fe9eb52262c477"}, "vout": 0, "txid": "b86d3eb67087cd790ebb4212b8c5b1e7073d617494a4c40b32420cc1c9e2dfe8"}], "txid": "df1e20cc6157aa4b7b94ded669320b772ebe6ab663e5d744ad1ca7cc99838d95", "blocktime": 1537870928, "version": 1, "confirmations": 11514, "time": 1537870928, "locktime": 542990, "vsize": 520, "size": 520}