{"hash": "df2eef82a3fff9e744c0ba138d01c80fc95a44bc46add0c42b764f62b5f5ea54", "blockhash": "0000000000000000001e0dab787dd257d1dbfcb92a98c2207d5e1078be1f4165", "vout": [{"scriptPubKey": {"reqSigs": 1, "hex": "a914947f23cfc18a50c1116fa0fd380e6ab0d1b1720787", "addresses": ["3FECEmZAzvdpVazh4onXf5116ibaJn6ksP"], "asm": "OP_HASH160 947f23cfc18a50c1116fa0fd380e6ab0d1b17207 OP_EQUAL", "type": "scripthash"}, "value": 0.0005879, "n": 0}, {"scriptPubKey": {"reqSigs": 1, "hex": "76a914f0349d9082e98008af0133c17e3f60f4b1aab22f88ac", "addresses": ["1Nu6CpzJqySb6gDjeKMC245WXWxSo88o7T"], "asm": "OP_DUP OP_HASH160 f0349d9082e98008af0133c17e3f60f4b1aab22f OP_EQUALVERIFY OP_CHECKSIG", "type": "pubkeyhash"}, "value": 0.0128617, "n": 1}], "hex": "010000000166a104aaabd5829e22ad8df0b9aefb38164c0b6c95ac87e9a092a801087f252d010000006a4730440220210a3a3d89c32fd88360ee664d48045fb2af1f12d8fc31f253b8dc9f8ceb64fa0220493c79aad5c6f238a972f31daf4612d95a696cec0abd4620155c020872acaf000121029aaaa25b449454fc4c017e9bf14aa715e915a1597de17e1263d9e3f2a5a20348ffffffff02a6e500000000000017a914947f23cfc18a50c1116fa0fd380e6ab0d1b17207871aa01300000000001976a914f0349d9082e98008af0133c17e3f60f4b1aab22f88ac00000000", "vin": [{"sequence": 4294967295, "scriptSig": {"hex": "4730440220210a3a3d89c32fd88360ee664d48045fb2af1f12d8fc31f253b8dc9f8ceb64fa0220493c79aad5c6f238a972f31daf4612d95a696cec0abd4620155c020872acaf000121029aaaa25b449454fc4c017e9bf14aa715e915a1597de17e1263d9e3f2a5a20348", "asm": "30440220210a3a3d89c32fd88360ee664d48045fb2af1f12d8fc31f253b8dc9f8ceb64fa0220493c79aad5c6f238a972f31daf4612d95a696cec0abd4620155c020872acaf00[ALL] 029aaaa25b449454fc4c017e9bf14aa715e915a1597de17e1263d9e3f2a5a20348"}, "vout": 1, "txid": "2d257f0801a892a0e987ac956c0b4c1638fbaeb9f08dad229e82d5abaa04a166"}], "txid": "df2eef82a3fff9e744c0ba138d01c80fc95a44bc46add0c42b764f62b5f5ea54", "blocktime": 1537872475, "version": 1, "confirmations": 11487, "time": 1537872475, "locktime": 0, "vsize": 223, "size": 223}