{"hash": "df3566f39d3bf11c739fe6926dabe22b7033f0a7da3cc9b7b1cc6596bb91aad9", "blockhash": "00000000000000000017f5eb5941039fbcee6240d03bc1f2f8e35350df66a1d8", "vout": [{"scriptPubKey": {"reqSigs": 1, "hex": "76a914a64cb3a2749c3437182c98ee9966aa88673eecef88ac", "addresses": ["1GAK4Aw22RUh9SuXwaH5cvm1nj81WmV1Rr"], "asm": "OP_DUP OP_HASH160 a64cb3a2749c3437182c98ee9966aa88673eecef OP_EQUALVERIFY OP_CHECKSIG", "type": "pubkeyhash"}, "value": 0.00219308, "n": 0}, {"scriptPubKey": {"reqSigs": 1, "hex": "a9148cacfa8785069812bd9b39583da11d723cc11bc487", "addresses": ["3EWqkAaXAuAjgx8V6cVB2G95rac82WZYTW"], "asm": "OP_HASH160 8cacfa8785069812bd9b39583da11d723cc11bc4 OP_EQUAL", "type": "scripthash"}, "value": 0.3, "n": 1}], "hex": "0100000002db7c2df398aaa2d21ce8c1ee8fa5792e46d3938da7f3dba99167a4fbc3d8e715000000006a4730440220120f5a1a51b5f9b0d12f2077cc00df4e39101f594a55c7e731ed83475707cb880220106f0e29898bf39eeffe7e2371f8860629b369f401209aaf52cbc3272102f6a501210236645f62b6ecdfcc1476f74a617352bb6bebc96a402821612766c578e117faf0ffffffffaebedc33075e43af779922872582bb1514e5fc21bfe4615aee777734d885154d000000006b483045022100bdd80217e2c432a7666b1e7fee86d2d4b7fd8a1ecc089aa5a5ef7cf9d6d6699c022055fbedb5b43b275c8d64ded3626b392e7d40168973abeee09cd01a601e8ccb1a0121024d790c11146d696d94e30e52d000864b33eec9274c8f3a809d6b04d17a5db9feffffffff02ac580300000000001976a914a64cb3a2749c3437182c98ee9966aa88673eecef88ac80c3c9010000000017a9148cacfa8785069812bd9b39583da11d723cc11bc48700000000", "vin": [{"sequence": 4294967295, "scriptSig": {"hex": "4730440220120f5a1a51b5f9b0d12f2077cc00df4e39101f594a55c7e731ed83475707cb880220106f0e29898bf39eeffe7e2371f8860629b369f401209aaf52cbc3272102f6a501210236645f62b6ecdfcc1476f74a617352bb6bebc96a402821612766c578e117faf0", "asm": "30440220120f5a1a51b5f9b0d12f2077cc00df4e39101f594a55c7e731ed83475707cb880220106f0e29898bf39eeffe7e2371f8860629b369f401209aaf52cbc3272102f6a5[ALL] 0236645f62b6ecdfcc1476f74a617352bb6bebc96a402821612766c578e117faf0"}, "vout": 0, "txid": "15e7d8c3fba46791a9dbf3a78d93d3462e79a58feec1e81cd2a2aa98f32d7cdb"}, {"sequence": 4294967295, "scriptSig": {"hex": "483045022100bdd80217e2c432a7666b1e7fee86d2d4b7fd8a1ecc089aa5a5ef7cf9d6d6699c022055fbedb5b43b275c8d64ded3626b392e7d40168973abeee09cd01a601e8ccb1a0121024d790c11146d696d94e30e52d000864b33eec9274c8f3a809d6b04d17a5db9fe", "asm": "3045022100bdd80217e2c432a7666b1e7fee86d2d4b7fd8a1ecc089aa5a5ef7cf9d6d6699c022055fbedb5b43b275c8d64ded3626b392e7d40168973abeee09cd01a601e8ccb1a[ALL] 024d790c11146d696d94e30e52d000864b33eec9274c8f3a809d6b04d17a5db9fe"}, "vout": 0, "txid": "4d1585d8347777ee5a61e4bf21fce51415bb822587229977af435e0733dcbeae"}], "txid": "df3566f39d3bf11c739fe6926dabe22b7033f0a7da3cc9b7b1cc6596bb91aad9", "blocktime": 1537874412, "version": 1, "confirmations": 11467, "time": 1537874412, "locktime": 0, "vsize": 371, "size": 371}