{"hash": "df3cd11207957d90cb1dcff824407aba0f6a0b36da2afc91ec1373e157b52a2c", "blockhash": "0000000000000000001e0dab787dd257d1dbfcb92a98c2207d5e1078be1f4165", "vout": [{"scriptPubKey": {"reqSigs": 1, "hex": "76a914ea9c831b52c211f357fb7c93f7c6a07475d7664888ac", "addresses": ["1NPWcYSnykbysrSwLrzjZewZHubocrJ9XZ"], "asm": "OP_DUP OP_HASH160 ea9c831b52c211f357fb7c93f7c6a07475d76648 OP_EQUALVERIFY OP_CHECKSIG", "type": "pubkeyhash"}, "value": 0.00287, "n": 0}, {"scriptPubKey": {"reqSigs": 1, "hex": "76a914a059fcc2bfcc7b63c23b5e3c50aa58639e7ba29288ac", "addresses": ["1Fcrv89rz7sbgyak3kRF1LcUjDyxHgefQi"], "asm": "OP_DUP OP_HASH160 a059fcc2bfcc7b63c23b5e3c50aa58639e7ba292 OP_EQUALVERIFY OP_CHECKSIG", "type": "pubkeyhash"}, "value": 0.06323802, "n": 1}], "hex": "010000000184a4aff22b8981c7d8435dc3bb52020d335ec270ad262e62a7315d5c5feac85d010000006b483045022100f09b109a7f2673b720a1f386503c03e01271fafd8ab9ed99dabcc4a8c4a0534a02202ce639011e6379a20bf1f02158cdc26367a2c4a898423a62e45ef887c8304e05012103c0f13ab86164f13e668f4154679d1823a64c95ec56c55b167aeb49f4dc1f4394ffffffff0218610400000000001976a914ea9c831b52c211f357fb7c93f7c6a07475d7664888ac5a7e6000000000001976a914a059fcc2bfcc7b63c23b5e3c50aa58639e7ba29288ac00000000", "vin": [{"sequence": 4294967295, "scriptSig": {"hex": "483045022100f09b109a7f2673b720a1f386503c03e01271fafd8ab9ed99dabcc4a8c4a0534a02202ce639011e6379a20bf1f02158cdc26367a2c4a898423a62e45ef887c8304e05012103c0f13ab86164f13e668f4154679d1823a64c95ec56c55b167aeb49f4dc1f4394", "asm": "3045022100f09b109a7f2673b720a1f386503c03e01271fafd8ab9ed99dabcc4a8c4a0534a02202ce639011e6379a20bf1f02158cdc26367a2c4a898423a62e45ef887c8304e05[ALL] 03c0f13ab86164f13e668f4154679d1823a64c95ec56c55b167aeb49f4dc1f4394"}, "vout": 1, "txid": "5dc8ea5f5c5d31a7622e26ad70c25e330d0252bbc35d43d8c781892bf2afa484"}], "txid": "df3cd11207957d90cb1dcff824407aba0f6a0b36da2afc91ec1373e157b52a2c", "blocktime": 1537872475, "version": 1, "confirmations": 11486, "time": 1537872475, "locktime": 0, "vsize": 226, "size": 226}