{"hash": "df3cbcc8f6ecdd97cb21ca8b09f8ed5aaabf8218b26da332342b1cb151473979", "blockhash": "0000000000000000000e13cef7c366c0283d82e591d1acd082e914b08063cdf1", "vout": [{"scriptPubKey": {"type": "nulldata", "hex": "6a4c500000779c000114a898f23fe1bc665f662dbfe3ef3236678a625097bcbefa6b8351586b4eba21a813ee8def98f42073a9709d8c795baa0d99061567b421566cf620599f7cb8fbacf7bab7719c405f2d9a", "asm": "OP_RETURN 0000779c000114a898f23fe1bc665f662dbfe3ef3236678a625097bcbefa6b8351586b4eba21a813ee8def98f42073a9709d8c795baa0d99061567b421566cf620599f7cb8fbacf7bab7719c405f2d9a"}, "value": 0.0, "n": 0}, {"scriptPubKey": {"reqSigs": 1, "hex": "76a914542b4440cceeb0c3fca0fd93c2a6e320e2d382f488ac", "addresses": ["18g3bLBkjq6Lph2QxMuRW56GFNRDAS4ft3"], "asm": "OP_DUP OP_HASH160 542b4440cceeb0c3fca0fd93c2a6e320e2d382f4 OP_EQUALVERIFY OP_CHECKSIG", "type": "pubkeyhash"}, "value": 0.00062008, "n": 1}], "hex": "0100000001cbcb8c052ffe4337f8c38ef8f7d040a9b930beb923ad6687f279772197c7c318010000006b483045022100d06035020b5fd7a0293449583a255b2eacf8676ef07fcd977e6033903d2704800220682a1735fda07f2a16ad70bbccfe134177f89b34d0d1e25e98cd189c6b4c662a012103c79625a432e14b347e72df490a6c81ddacec26f0acb53adcd70260b125bbdb65ffffffff020000000000000000536a4c500000779c000114a898f23fe1bc665f662dbfe3ef3236678a625097bcbefa6b8351586b4eba21a813ee8def98f42073a9709d8c795baa0d99061567b421566cf620599f7cb8fbacf7bab7719c405f2d9a38f20000000000001976a914542b4440cceeb0c3fca0fd93c2a6e320e2d382f488ac00000000", "vin": [{"sequence": 4294967295, "scriptSig": {"hex": "483045022100d06035020b5fd7a0293449583a255b2eacf8676ef07fcd977e6033903d2704800220682a1735fda07f2a16ad70bbccfe134177f89b34d0d1e25e98cd189c6b4c662a012103c79625a432e14b347e72df490a6c81ddacec26f0acb53adcd70260b125bbdb65", "asm": "3045022100d06035020b5fd7a0293449583a255b2eacf8676ef07fcd977e6033903d2704800220682a1735fda07f2a16ad70bbccfe134177f89b34d0d1e25e98cd189c6b4c662a[ALL] 03c79625a432e14b347e72df490a6c81ddacec26f0acb53adcd70260b125bbdb65"}, "vout": 1, "txid": "18c3c797217779f28766ad23b9be30b9a940d0f7f88ec3f83743fe2f058ccbcb"}], "txid": "df3cbcc8f6ecdd97cb21ca8b09f8ed5aaabf8218b26da332342b1cb151473979", "blocktime": 1537871767, "version": 1, "confirmations": 11491, "time": 1537871767, "locktime": 0, "vsize": 284, "size": 284}