{"hash": "df41626b365c3c24a86d88b1737ba23d6fd156420b6b2a1a33f6dcc56682308b", "blockhash": "00000000000000000017f5eb5941039fbcee6240d03bc1f2f8e35350df66a1d8", "vout": [{"scriptPubKey": {"reqSigs": 1, "hex": "a9146c8f1b1ecbcf7ecfe0f974a6598dc7e1d88d943f87", "addresses": ["3Bb2LSGDFR6MUwSnqx4cZARrjRkR4GBRga"], "asm": "OP_HASH160 6c8f1b1ecbcf7ecfe0f974a6598dc7e1d88d943f OP_EQUAL", "type": "scripthash"}, "value": 0.999803, "n": 0}, {"scriptPubKey": {"reqSigs": 1, "hex": "76a9140ffbd8fca6e8778fca2d37a0b46407e8b14e33e388ac", "addresses": ["12TWqZEqB1pqUofjmgaSUxzor1DN7wzAPU"], "asm": "OP_DUP OP_HASH160 0ffbd8fca6e8778fca2d37a0b46407e8b14e33e3 OP_EQUALVERIFY OP_CHECKSIG", "type": "pubkeyhash"}, "value": 11.00726318, "n": 1}], "hex": "0100000001c086cc93315c38c229ab8482f3634f0a53dbdcb8c3640e1faa6912fe39af7283010000008b483045022100f4dbfb57682c0eaaddb9a3b874b79c4eb1728f6f25a0431792e3f916e37259d702200d57ac6fec4cfbc6e6f520ee70fa40a964b5206a243b081ee4199816f13cf14b0141047c02d87fdf6b63cd3a9deb849392c4d2e6382b777b9fe1dc75c6ed0c99bc92acac2c1a2d8bca090b7a03a8108ae3575273013b1ebf2d41d141287cbb2a4b3054fdffffff020c94f5050000000017a9146c8f1b1ecbcf7ecfe0f974a6598dc7e1d88d943f872ec09b41000000001976a9140ffbd8fca6e8778fca2d37a0b46407e8b14e33e388ac15490800", "vin": [{"sequence": 4294967293, "scriptSig": {"hex": "483045022100f4dbfb57682c0eaaddb9a3b874b79c4eb1728f6f25a0431792e3f916e37259d702200d57ac6fec4cfbc6e6f520ee70fa40a964b5206a243b081ee4199816f13cf14b0141047c02d87fdf6b63cd3a9deb849392c4d2e6382b777b9fe1dc75c6ed0c99bc92acac2c1a2d8bca090b7a03a8108ae3575273013b1ebf2d41d141287cbb2a4b3054", "asm": "3045022100f4dbfb57682c0eaaddb9a3b874b79c4eb1728f6f25a0431792e3f916e37259d702200d57ac6fec4cfbc6e6f520ee70fa40a964b5206a243b081ee4199816f13cf14b[ALL] 047c02d87fdf6b63cd3a9deb849392c4d2e6382b777b9fe1dc75c6ed0c99bc92acac2c1a2d8bca090b7a03a8108ae3575273013b1ebf2d41d141287cbb2a4b3054"}, "vout": 1, "txid": "8372af39fe1269aa1f0e64c3b8dcdb530a4f63f38284ab29c2385c3193cc86c0"}], "txid": "df41626b365c3c24a86d88b1737ba23d6fd156420b6b2a1a33f6dcc56682308b", "blocktime": 1537874412, "version": 1, "confirmations": 11467, "time": 1537874412, "locktime": 542997, "vsize": 256, "size": 256}