{"hash": "615d8fbf0fb045c49d679cdc007768059b005be2a450a74bc46381bd27868717", "blockhash": "00000000000000000018f53835495a110e01622372bf6ae95dc86f2b0ab887b0", "vout": [{"scriptPubKey": {"reqSigs": 1, "hex": "76a914c9a710aab13654dd423973e230b3665ce0faf3d788ac", "addresses": ["1KPExSoaD6TxfdmGPdYGtBB6zjh6YqtF6L"], "asm": "OP_DUP OP_HASH160 c9a710aab13654dd423973e230b3665ce0faf3d7 OP_EQUALVERIFY OP_CHECKSIG", "type": "pubkeyhash"}, "value": 0.00405, "n": 0}, {"scriptPubKey": {"reqSigs": 1, "hex": "a91473fa1e1e1e986e8b6ff4ce345acfc6931d6418ea87", "addresses": ["3CGFG5mb9kNbvoPKccAmhXoJwB7atLdZsn"], "asm": "OP_HASH160 73fa1e1e1e986e8b6ff4ce345acfc6931d6418ea OP_EQUAL", "type": "scripthash"}, "value": 0.124822, "n": 1}], "hex": "0100000000010199f93301813159225b033a4b745c65b871a46d91a2125f82fb53e7e9901c3341000000002322002071e618f67431fa8b8af26bda86a67788303d6f874bb6e00acbad9c228e1fa99bffffffff02082e0600000000001976a914c9a710aab13654dd423973e230b3665ce0faf3d788ac9876be000000000017a91473fa1e1e1e986e8b6ff4ce345acfc6931d6418ea870400483045022100da1eb846952e96639e1559c73b1bda30732274b178f7a7fa3c63cd5f1361282602203124be8c41a71b258783fb8c471dbdef0cda321380a19c6813789f07d7f9f7a001483045022100bb2e859a31624b1bf69ae692ae9af9db3e2634184c42f1d83e470186bba68f2602206ab6861700f78944765eb9123633f17aeb941853e6f5d75978ef445a3b49cd1401695221023c522a550713cb4c715cb7ff5ea266c598f9a7ba3bb591a0ac02b22cdb3447742102d0e334ecb667b38cd26a9863a6852500f6c0c22f292610a79143176e850f59612102ab293b1362fd9b85a93684f1cbfa6f102f7128ecde1f54ab2f747413f448517b53ae00000000", "vin": [{"txinwitness": ["", "3045022100da1eb846952e96639e1559c73b1bda30732274b178f7a7fa3c63cd5f1361282602203124be8c41a71b258783fb8c471dbdef0cda321380a19c6813789f07d7f9f7a001", "3045022100bb2e859a31624b1bf69ae692ae9af9db3e2634184c42f1d83e470186bba68f2602206ab6861700f78944765eb9123633f17aeb941853e6f5d75978ef445a3b49cd1401", "5221023c522a550713cb4c715cb7ff5ea266c598f9a7ba3bb591a0ac02b22cdb3447742102d0e334ecb667b38cd26a9863a6852500f6c0c22f292610a79143176e850f59612102ab293b1362fd9b85a93684f1cbfa6f102f7128ecde1f54ab2f747413f448517b53ae"], "sequence": 4294967295, "scriptSig": {"hex": "22002071e618f67431fa8b8af26bda86a67788303d6f874bb6e00acbad9c228e1fa99b", "asm": "002071e618f67431fa8b8af26bda86a67788303d6f874bb6e00acbad9c228e1fa99b"}, "vout": 0, "txid": "41331c90e9e753fb825f12a2916da471b8655c744b3a035b225931810133f999"}], "txid": "df4185124d2609100d2f894ba75c9668b589bea715328c8efd2cb350c8090ac1", "blocktime": 1537870928, "version": 1, "confirmations": 11514, "time": 1537870928, "locktime": 0, "vsize": 216, "size": 408}