{"hash": "df49259e7a00d3853c5f3d2d542fd4889802a3eab351d6b0ced00de7e5421d7f", "blockhash": "0000000000000000000e13cef7c366c0283d82e591d1acd082e914b08063cdf1", "vout": [{"scriptPubKey": {"reqSigs": 1, "hex": "76a9143e27787841d9a482e4a0e4fdd45c376bed0ca54688ac", "addresses": ["16feBMkfqVsfaVrbNSnBefDVJkxHFunAgp"], "asm": "OP_DUP OP_HASH160 3e27787841d9a482e4a0e4fdd45c376bed0ca546 OP_EQUALVERIFY OP_CHECKSIG", "type": "pubkeyhash"}, "value": 5.246e-05, "n": 0}, {"scriptPubKey": {"reqSigs": 1, "hex": "76a914d4bc7b9e2d9a09917cb97ee7b02a7c1d810fb53388ac", "addresses": ["1LPr3gvTKppscTEMZSyPJhs7VP7LDK44Gm"], "asm": "OP_DUP OP_HASH160 d4bc7b9e2d9a09917cb97ee7b02a7c1d810fb533 OP_EQUALVERIFY OP_CHECKSIG", "type": "pubkeyhash"}, "value": 0.04001076, "n": 1}], "hex": "0100000001fd4ccd9b57bba5d3bc4e5079d9d0e1b9a4ba4cf8d03d10b4f856211a67c599f9020000006b483045022100c2e2280119b356783daec7f9b00185482cff4d31f10f13f9c8c0a7ca7299ec91022045aa0af273752895aac3c0f963636046bf18f1f7a9257abbef0dd7ab218278d9012103e0b860ec7da14af30c0222ecb1175d1179af1c3999db84e17121cbb37f8e9f1effffffff027e140000000000001976a9143e27787841d9a482e4a0e4fdd45c376bed0ca54688ac340d3d00000000001976a914d4bc7b9e2d9a09917cb97ee7b02a7c1d810fb53388ac00000000", "vin": [{"sequence": 4294967295, "scriptSig": {"hex": "483045022100c2e2280119b356783daec7f9b00185482cff4d31f10f13f9c8c0a7ca7299ec91022045aa0af273752895aac3c0f963636046bf18f1f7a9257abbef0dd7ab218278d9012103e0b860ec7da14af30c0222ecb1175d1179af1c3999db84e17121cbb37f8e9f1e", "asm": "3045022100c2e2280119b356783daec7f9b00185482cff4d31f10f13f9c8c0a7ca7299ec91022045aa0af273752895aac3c0f963636046bf18f1f7a9257abbef0dd7ab218278d9[ALL] 03e0b860ec7da14af30c0222ecb1175d1179af1c3999db84e17121cbb37f8e9f1e"}, "vout": 2, "txid": "f999c5671a2156f8b4103dd0f84cbaa4b9e1d0d979504ebcd3a5bb579bcd4cfd"}], "txid": "df49259e7a00d3853c5f3d2d542fd4889802a3eab351d6b0ced00de7e5421d7f", "blocktime": 1537871767, "version": 1, "confirmations": 11495, "time": 1537871767, "locktime": 0, "vsize": 226, "size": 226}