{"hash": "df4c4e12800fde8cd45b819253827602b73ad21493fd54051e6ddef548a370c4", "blockhash": "00000000000000000017f5eb5941039fbcee6240d03bc1f2f8e35350df66a1d8", "vout": [{"scriptPubKey": {"type": "nulldata", "hex": "6a146f6d6e69000000000000001f0000000021f98280", "asm": "OP_RETURN 6f6d6e69000000000000001f0000000021f98280"}, "value": 0.0, "n": 0}, {"scriptPubKey": {"reqSigs": 1, "hex": "76a914882cc4f54c2ea08d18892bb11ab27fc43e466e7188ac", "addresses": ["1DR2XiiEjs91cTtp1LxyqEKm5ihNABmRZ7"], "asm": "OP_DUP OP_HASH160 882cc4f54c2ea08d18892bb11ab27fc43e466e71 OP_EQUALVERIFY OP_CHECKSIG", "type": "pubkeyhash"}, "value": 0.11056394, "n": 1}, {"scriptPubKey": {"reqSigs": 1, "hex": "76a9143c4f86bb2d18c19f0afde122b645b9867df787d688ac", "addresses": ["16Vtp6RnFtc89PHhoiWBVeEf7VyNHn3gQA"], "asm": "OP_DUP OP_HASH160 3c4f86bb2d18c19f0afde122b645b9867df787d6 OP_EQUALVERIFY OP_CHECKSIG", "type": "pubkeyhash"}, "value": 5.46e-06, "n": 2}], "hex": "0100000001284876ebc5adbecba362dcb4420d632caf5a3b1f827061d16ae195a4fe6df18d000000006a473044022041e99ad13ae3ad428edfe2d82a8fdac4b5d3e74771cef24e7d02f832ed3e07ed022012db2d9409cd4dbadf80436e22c48c99e1bb573b2ab444b2c16ea80cc764c487012102d7800c61a710c2c233322b2fbdcbbd492c162678a6cf6e859c3b7322e14189eefeffffff030000000000000000166a146f6d6e69000000000000001f0000000021f982800ab5a800000000001976a914882cc4f54c2ea08d18892bb11ab27fc43e466e7188ac22020000000000001976a9143c4f86bb2d18c19f0afde122b645b9867df787d688ac15490800", "vin": [{"sequence": 4294967294, "scriptSig": {"hex": "473044022041e99ad13ae3ad428edfe2d82a8fdac4b5d3e74771cef24e7d02f832ed3e07ed022012db2d9409cd4dbadf80436e22c48c99e1bb573b2ab444b2c16ea80cc764c487012102d7800c61a710c2c233322b2fbdcbbd492c162678a6cf6e859c3b7322e14189ee", "asm": "3044022041e99ad13ae3ad428edfe2d82a8fdac4b5d3e74771cef24e7d02f832ed3e07ed022012db2d9409cd4dbadf80436e22c48c99e1bb573b2ab444b2c16ea80cc764c487[ALL] 02d7800c61a710c2c233322b2fbdcbbd492c162678a6cf6e859c3b7322e14189ee"}, "vout": 0, "txid": "8df16dfea495e16ad16170821f3b5aaf2c630d42b4dc62a3cbbeadc5eb764828"}], "txid": "df4c4e12800fde8cd45b819253827602b73ad21493fd54051e6ddef548a370c4", "blocktime": 1537874412, "version": 1, "confirmations": 11466, "time": 1537874412, "locktime": 542997, "vsize": 256, "size": 256}