{"hash": "42f531887206657b3b43ffd05d8e156b77b19a65cabd61b1405164e7794d7eac", "blockhash": "0000000000000000000e13cef7c366c0283d82e591d1acd082e914b08063cdf1", "vout": [{"scriptPubKey": {"reqSigs": 1, "hex": "a9146b8782fc215c690c29a8c92e6f1a7109a803272587", "addresses": ["3BVaZasVCQJEE1zhc6JQDQYB5hve5rub4y"], "asm": "OP_HASH160 6b8782fc215c690c29a8c92e6f1a7109a8032725 OP_EQUAL", "type": "scripthash"}, "value": 0.02387, "n": 0}, {"scriptPubKey": {"reqSigs": 1, "hex": "a9149fb16ffaa54c6c7ff93afa5960bbd828656ccd1a87", "addresses": ["3GFPvcVYCzA3XUje4HFKjb44NTHz63RT5R"], "asm": "OP_HASH160 9fb16ffaa54c6c7ff93afa5960bbd828656ccd1a OP_EQUAL", "type": "scripthash"}, "value": 0.00959126, "n": 1}], "hex": "01000000000109b346bdd8567a3a78b4d97fabd7baa894af4228aa8cf7070bcd35bddee491f7660000000023220020d5aa7885b88ddc7c0b54d4c08dff138629f72a4d36ac41827bbb8eea2f83ebbdfdffffff7c270442caf75131da51c374920a2b24f6eee6cf1c7bb6876d448c4dbc22ec820000000023220020d5aa7885b88ddc7c0b54d4c08dff138629f72a4d36ac41827bbb8eea2f83ebbdfdffffffb02fdc33338340b0411afecfe9fb11c860471ef40c19bcbdc4afb8868665479d0000000023220020d5aa7885b88ddc7c0b54d4c08dff138629f72a4d36ac41827bbb8eea2f83ebbdfdffffffc74bee93919200cf1e650e0034085de263de73d2bf41b13b549401f53eff440c0000000023220020d5aa7885b88ddc7c0b54d4c08dff138629f72a4d36ac41827bbb8eea2f83ebbdfdffffff0094c56294ff1f5e8d6f921409836246e9fa74a7e53b29f874ca59445f5d4f370000000023220020d5aa7885b88ddc7c0b54d4c08dff138629f72a4d36ac41827bbb8eea2f83ebbdfdffffffc4b3cf48a0fd602d1741617a74912010aa0c47a52fb72725973f4a498adf34720000000023220020d5aa7885b88ddc7c0b54d4c08dff138629f72a4d36ac41827bbb8eea2f83ebbdfdffffffa21635e9e689795cd52d35f1e333b7f6c1defd231cc2f5009eba8a37c253a8480000000023220020d5aa7885b88ddc7c0b54d4c08dff138629f72a4d36ac41827bbb8eea2f83ebbdfdffffff5da57bff1e19d6f9e11b16fa13cee9f00d0968ca66f71efeebd55e55230d6ba1010000002322002007efc5ddb2a179a4dcf49011054aac39613320a8bbb2b3983223032f735cb37efdffffff94532de94295aca8bbd8401aeedd7e346f9ac4a382d7a4b75dc0874979aaa0390000000023220020d5aa7885b88ddc7c0b54d4c08dff138629f72a4d36ac41827bbb8eea2f83ebbdfdffffff02386c24000000000017a9146b8782fc215c690c29a8c92e6f1a7109a80327258796a20e000000000017a9149fb16ffaa54c6c7ff93afa5960bbd828656ccd1a87040047304402202f0aa93af36ca6566fe4afd79b51d28dc3e85317b03069ddfd2e6489e88b23cb022020b72e6dcd8feae616ce4ed59d0f7c70af3e32a663d8bb0ef9beaaba6fea5fcb01483045022100de9de68dea39af44897dc132c6348a63aa6ee8129deea730de07f96e7ed4baba022029c552a2c56db74960041c3e61f81d5375bd867b8e7f06e254d441510348058501475221029459dff2403c3c28b012a4d9c068e3f4a1df664e6668be892fb2f762f139cd4e210316734b80636d8452a20a36b7fcda3d4c5c2c8231c106eeb3c81b8a502263750352ae0400483045022100b8cca57a229b6038cef909cefcec5b28becb3d724ae0a3140f21c91a89a224a002207c879a26f321eddbd03659c9f17ed0b3676f965f5d30cc43647f5f35b2441a0401483045022100c5229bad6b469f1dedaacf690857376290ac43532027027db758fc65f593ed020220444e691f600bff17d5e2f62802ece3609194ada7e6d74995dac38211bb050cac01475221029459dff2403c3c28b012a4d9c068e3f4a1df664e6668be892fb2f762f139cd4e210316734b80636d8452a20a36b7fcda3d4c5c2c8231c106eeb3c81b8a502263750352ae0400483045022100af0e3eaa0004a5d73dab8b87b1e7607d2fde687c2714ef45567d2079418dd7fc02203fd56a518362af572207fdf6a571e5b78fced7cd4d5359eb95331cd8eefa452c0147304402204bcd571d769792b5e0016de3d91d77c05bf59c4c5111b78bda25598ed523c442022014de79ca82afd65e40098c1f5812032c8921491b403de841bf10cfc993f3a7e801475221029459dff2403c3c28b012a4d9c068e3f4a1df664e6668be892fb2f762f139cd4e210316734b80636d8452a20a36b7fcda3d4c5c2c8231c106eeb3c81b8a502263750352ae0400483045022100f0b8b615d5a9ac9df4e6f2197874a8dc579b78f450d539cb50f0c806d71b86c2022021885d673aaf55fda88e56968c05c9ed76205cc85d12494996a9686cefaba98e014730440220208def39a9994b6d87eec35f4016652404223a2333ba79307893abd74e16ffa302202e12aeb7c4a2e2ec22669740bba992d6092d8d0643a503af054db1d4802d96fb01475221029459dff2403c3c28b012a4d9c068e3f4a1df664e6668be892fb2f762f139cd4e210316734b80636d8452a20a36b7fcda3d4c5c2c8231c106eeb3c81b8a502263750352ae04004830450221009a561a4a6aea7112d663b0275023588c92f0adc771216e6df4de77193467b99002207dcc3f073f83db9e2f44ca672f5d7eba5a669f216551fd722ba7ea74e3120cc601483045022100aeed0ab536c1f436f66adbfca0156de531c281b8668afa9cb8b5903fd3dc0f34022028f872579ec0c7ec9ca4fcf4ed3792117d5206a6ffe07a4f6e6e343d9d5d082101475221029459dff2403c3c28b012a4d9c068e3f4a1df664e6668be892fb2f762f139cd4e210316734b80636d8452a20a36b7fcda3d4c5c2c8231c106eeb3c81b8a502263750352ae0400473044022009c8e35b644f508d8228ee39273d22c448498ebc6b9b8efd0b40678046cb92160220515155a92f58643611db5e946c099bad725d77d6b913eaaa0d6fc20b441b49c801483045022100bdc4fff1fe76da15af148eec88b5df4daa7e100cb6c9d055e297e8b404dcf5bc02200153ec06ee0a4b225fee38af32ede13dcca0b9c4bfff22178975a1023c32bb6101475221029459dff2403c3c28b012a4d9c068e3f4a1df664e6668be892fb2f762f139cd4e210316734b80636d8452a20a36b7fcda3d4c5c2c8231c106eeb3c81b8a502263750352ae0400473044022021f3676d610710ae87e75350e9ab4da1efbc859177d89c4b0d13599e5e9c7d7802202bd183ee2860bcd7fa3f26cad81d92b4372ad8b505d297cad6a87dfc89648fde01473044022010d4f879398a4b6256d297a93607fbc1fef9d36923be094696fb3680a41faa7e0220311e9ff6b45d3f7c05a9e85c45a94922709b35b5b2f48bb0cf14dbd0d166dd2801475221029459dff2403c3c28b012a4d9c068e3f4a1df664e6668be892fb2f762f139cd4e210316734b80636d8452a20a36b7fcda3d4c5c2c8231c106eeb3c81b8a502263750352ae0400483045022100e092ff6be4ea386eb4ee24f75007f18d91ce5b0c21a8b07c44f2fc0010e2a2c4022079b09ddf2f1c423a1f5ef3b002696a642cc8e0eaf73936eef188f31cf4a11698014730440220720746dae7d4996b4a89c86c8ff0e9850cf30ffb2b847ca840a0645bd509a816022032d7753c1e1977b0b77885c9e7848d0ed87b8772050e4cdbc2c97ca9fdcc711c0147522102a37eedcdd9dd21a9532982d0c387065917fa1878ce667ac9ed992649166ba6da21038d9e57235f3a7c7c7d5a532ba6168136df04ccf00df53617a60443f49d4216bc52ae0400483045022100f306324697993c85b0967a007a293efc5632e7d65341eb618f407d2a3bb1a8fa02204d518f95cbc099b8880b23687d11468199ba74ba60feeac46b8563a0b2f3622a0147304402207ec70fb5c50162d445ab8ce01778bf5796ad87549d6ebefafc83d4a079c0b3e3022013f5ab607bdabb2d735c7af1ee1d5ec0aaa9d1c2af7e4736064a994279e960c901475221029459dff2403c3c28b012a4d9c068e3f4a1df664e6668be892fb2f762f139cd4e210316734b80636d8452a20a36b7fcda3d4c5c2c8231c106eeb3c81b8a502263750352ae00000000", "vin": [{"txinwitness": ["", "304402202f0aa93af36ca6566fe4afd79b51d28dc3e85317b03069ddfd2e6489e88b23cb022020b72e6dcd8feae616ce4ed59d0f7c70af3e32a663d8bb0ef9beaaba6fea5fcb01", "3045022100de9de68dea39af44897dc132c6348a63aa6ee8129deea730de07f96e7ed4baba022029c552a2c56db74960041c3e61f81d5375bd867b8e7f06e254d441510348058501", "5221029459dff2403c3c28b012a4d9c068e3f4a1df664e6668be892fb2f762f139cd4e210316734b80636d8452a20a36b7fcda3d4c5c2c8231c106eeb3c81b8a502263750352ae"], "sequence": 4294967293, "scriptSig": {"hex": "220020d5aa7885b88ddc7c0b54d4c08dff138629f72a4d36ac41827bbb8eea2f83ebbd", "asm": "0020d5aa7885b88ddc7c0b54d4c08dff138629f72a4d36ac41827bbb8eea2f83ebbd"}, "vout": 0, "txid": "66f791e4debd35cd0b07f78caa2842af94a8bad7ab7fd9b4783a7a56d8bd46b3"}, {"txinwitness": ["", "3045022100b8cca57a229b6038cef909cefcec5b28becb3d724ae0a3140f21c91a89a224a002207c879a26f321eddbd03659c9f17ed0b3676f965f5d30cc43647f5f35b2441a0401", "3045022100c5229bad6b469f1dedaacf690857376290ac43532027027db758fc65f593ed020220444e691f600bff17d5e2f62802ece3609194ada7e6d74995dac38211bb050cac01", "5221029459dff2403c3c28b012a4d9c068e3f4a1df664e6668be892fb2f762f139cd4e210316734b80636d8452a20a36b7fcda3d4c5c2c8231c106eeb3c81b8a502263750352ae"], "sequence": 4294967293, "scriptSig": {"hex": "220020d5aa7885b88ddc7c0b54d4c08dff138629f72a4d36ac41827bbb8eea2f83ebbd", "asm": "0020d5aa7885b88ddc7c0b54d4c08dff138629f72a4d36ac41827bbb8eea2f83ebbd"}, "vout": 0, "txid": "82ec22bc4d8c446d87b67b1ccfe6eef6242b0a9274c351da3151f7ca4204277c"}, {"txinwitness": ["", "3045022100af0e3eaa0004a5d73dab8b87b1e7607d2fde687c2714ef45567d2079418dd7fc02203fd56a518362af572207fdf6a571e5b78fced7cd4d5359eb95331cd8eefa452c01", "304402204bcd571d769792b5e0016de3d91d77c05bf59c4c5111b78bda25598ed523c442022014de79ca82afd65e40098c1f5812032c8921491b403de841bf10cfc993f3a7e801", "5221029459dff2403c3c28b012a4d9c068e3f4a1df664e6668be892fb2f762f139cd4e210316734b80636d8452a20a36b7fcda3d4c5c2c8231c106eeb3c81b8a502263750352ae"], "sequence": 4294967293, "scriptSig": {"hex": "220020d5aa7885b88ddc7c0b54d4c08dff138629f72a4d36ac41827bbb8eea2f83ebbd", "asm": "0020d5aa7885b88ddc7c0b54d4c08dff138629f72a4d36ac41827bbb8eea2f83ebbd"}, "vout": 0, "txid": "9d47658686b8afc4bdbc190cf41e4760c811fbe9cffe1a41b040833333dc2fb0"}, {"txinwitness": ["", "3045022100f0b8b615d5a9ac9df4e6f2197874a8dc579b78f450d539cb50f0c806d71b86c2022021885d673aaf55fda88e56968c05c9ed76205cc85d12494996a9686cefaba98e01", "30440220208def39a9994b6d87eec35f4016652404223a2333ba79307893abd74e16ffa302202e12aeb7c4a2e2ec22669740bba992d6092d8d0643a503af054db1d4802d96fb01", "5221029459dff2403c3c28b012a4d9c068e3f4a1df664e6668be892fb2f762f139cd4e210316734b80636d8452a20a36b7fcda3d4c5c2c8231c106eeb3c81b8a502263750352ae"], "sequence": 4294967293, "scriptSig": {"hex": "220020d5aa7885b88ddc7c0b54d4c08dff138629f72a4d36ac41827bbb8eea2f83ebbd", "asm": "0020d5aa7885b88ddc7c0b54d4c08dff138629f72a4d36ac41827bbb8eea2f83ebbd"}, "vout": 0, "txid": "0c44ff3ef50194543bb141bfd273de63e25d0834000e651ecf00929193ee4bc7"}, {"txinwitness": ["", "30450221009a561a4a6aea7112d663b0275023588c92f0adc771216e6df4de77193467b99002207dcc3f073f83db9e2f44ca672f5d7eba5a669f216551fd722ba7ea74e3120cc601", "3045022100aeed0ab536c1f436f66adbfca0156de531c281b8668afa9cb8b5903fd3dc0f34022028f872579ec0c7ec9ca4fcf4ed3792117d5206a6ffe07a4f6e6e343d9d5d082101", "5221029459dff2403c3c28b012a4d9c068e3f4a1df664e6668be892fb2f762f139cd4e210316734b80636d8452a20a36b7fcda3d4c5c2c8231c106eeb3c81b8a502263750352ae"], "sequence": 4294967293, "scriptSig": {"hex": "220020d5aa7885b88ddc7c0b54d4c08dff138629f72a4d36ac41827bbb8eea2f83ebbd", "asm": "0020d5aa7885b88ddc7c0b54d4c08dff138629f72a4d36ac41827bbb8eea2f83ebbd"}, "vout": 0, "txid": "374f5d5f4459ca74f8293be5a774fae94662830914926f8d5e1fff9462c59400"}, {"txinwitness": ["", "3044022009c8e35b644f508d8228ee39273d22c448498ebc6b9b8efd0b40678046cb92160220515155a92f58643611db5e946c099bad725d77d6b913eaaa0d6fc20b441b49c801", "3045022100bdc4fff1fe76da15af148eec88b5df4daa7e100cb6c9d055e297e8b404dcf5bc02200153ec06ee0a4b225fee38af32ede13dcca0b9c4bfff22178975a1023c32bb6101", "5221029459dff2403c3c28b012a4d9c068e3f4a1df664e6668be892fb2f762f139cd4e210316734b80636d8452a20a36b7fcda3d4c5c2c8231c106eeb3c81b8a502263750352ae"], "sequence": 4294967293, "scriptSig": {"hex": "220020d5aa7885b88ddc7c0b54d4c08dff138629f72a4d36ac41827bbb8eea2f83ebbd", "asm": "0020d5aa7885b88ddc7c0b54d4c08dff138629f72a4d36ac41827bbb8eea2f83ebbd"}, "vout": 0, "txid": "7234df8a494a3f972527b72fa5470caa102091747a6141172d60fda048cfb3c4"}, {"txinwitness": ["", "3044022021f3676d610710ae87e75350e9ab4da1efbc859177d89c4b0d13599e5e9c7d7802202bd183ee2860bcd7fa3f26cad81d92b4372ad8b505d297cad6a87dfc89648fde01", "3044022010d4f879398a4b6256d297a93607fbc1fef9d36923be094696fb3680a41faa7e0220311e9ff6b45d3f7c05a9e85c45a94922709b35b5b2f48bb0cf14dbd0d166dd2801", "5221029459dff2403c3c28b012a4d9c068e3f4a1df664e6668be892fb2f762f139cd4e210316734b80636d8452a20a36b7fcda3d4c5c2c8231c106eeb3c81b8a502263750352ae"], "sequence": 4294967293, "scriptSig": {"hex": "220020d5aa7885b88ddc7c0b54d4c08dff138629f72a4d36ac41827bbb8eea2f83ebbd", "asm": "0020d5aa7885b88ddc7c0b54d4c08dff138629f72a4d36ac41827bbb8eea2f83ebbd"}, "vout": 0, "txid": "48a853c2378aba9e00f5c21c23fddec1f6b733e3f1352dd55c7989e6e93516a2"}, {"txinwitness": ["", "3045022100e092ff6be4ea386eb4ee24f75007f18d91ce5b0c21a8b07c44f2fc0010e2a2c4022079b09ddf2f1c423a1f5ef3b002696a642cc8e0eaf73936eef188f31cf4a1169801", "30440220720746dae7d4996b4a89c86c8ff0e9850cf30ffb2b847ca840a0645bd509a816022032d7753c1e1977b0b77885c9e7848d0ed87b8772050e4cdbc2c97ca9fdcc711c01", "522102a37eedcdd9dd21a9532982d0c387065917fa1878ce667ac9ed992649166ba6da21038d9e57235f3a7c7c7d5a532ba6168136df04ccf00df53617a60443f49d4216bc52ae"], "sequence": 4294967293, "scriptSig": {"hex": "22002007efc5ddb2a179a4dcf49011054aac39613320a8bbb2b3983223032f735cb37e", "asm": "002007efc5ddb2a179a4dcf49011054aac39613320a8bbb2b3983223032f735cb37e"}, "vout": 1, "txid": "a16b0d23555ed5ebfe1ef766ca68090df0e9ce13fa161be1f9d6191eff7ba55d"}, {"txinwitness": ["", "3045022100f306324697993c85b0967a007a293efc5632e7d65341eb618f407d2a3bb1a8fa02204d518f95cbc099b8880b23687d11468199ba74ba60feeac46b8563a0b2f3622a01", "304402207ec70fb5c50162d445ab8ce01778bf5796ad87549d6ebefafc83d4a079c0b3e3022013f5ab607bdabb2d735c7af1ee1d5ec0aaa9d1c2af7e4736064a994279e960c901", "5221029459dff2403c3c28b012a4d9c068e3f4a1df664e6668be892fb2f762f139cd4e210316734b80636d8452a20a36b7fcda3d4c5c2c8231c106eeb3c81b8a502263750352ae"], "sequence": 4294967293, "scriptSig": {"hex": "220020d5aa7885b88ddc7c0b54d4c08dff138629f72a4d36ac41827bbb8eea2f83ebbd", "asm": "0020d5aa7885b88ddc7c0b54d4c08dff138629f72a4d36ac41827bbb8eea2f83ebbd"}, "vout": 0, "txid": "39a0aa794987c05db7a4d782a3c49a6f347eddee1a40d8bba8ac9542e92d5394"}], "txid": "df4ef8b4aeed2e4ecf0ded4a9c2f636e5afc972ce472f5085352a4a1b30410a0", "blocktime": 1537871767, "version": 1, "confirmations": 11495, "time": 1537871767, "locktime": 0, "vsize": 1252, "size": 2732}