{"hash": "df4f561322eaf86eea877b790220c9a512e1db07d6aba3e9ceaf00f85c5f9bff", "blockhash": "000000000000000000022b45ed06c6f4ccd3cf7fb5ba4856ebd2e58215665228", "vout": [{"scriptPubKey": {"reqSigs": 1, "hex": "76a9145aea84df6fded4dcba509311d78ee29866a2ef3d88ac", "addresses": ["19Hikw7K9PmYhck3zqA2fCdRJ3JGZVnZ6a"], "asm": "OP_DUP OP_HASH160 5aea84df6fded4dcba509311d78ee29866a2ef3d OP_EQUALVERIFY OP_CHECKSIG", "type": "pubkeyhash"}, "value": 0.00072159, "n": 0}, {"scriptPubKey": {"reqSigs": 1, "hex": "76a914db1044be3170f9746e42225d093e86521976f3a288ac", "addresses": ["1LyJUNLkzVQ5qoERQDGHHMAnGsJRZbSu5i"], "asm": "OP_DUP OP_HASH160 db1044be3170f9746e42225d093e86521976f3a2 OP_EQUALVERIFY OP_CHECKSIG", "type": "pubkeyhash"}, "value": 0.002715, "n": 1}], "hex": "010000000226c8ec33a4fa24df65c6a9a186603077b9160a8e8bda3f6df5e8223cc3bcce97010000006a473044022074c743442e4e84c9d3593fff41c7ae14654de5c3fc0dcd2ef23018e50a4cdec9022063664f0ba37ae1228576bb39e0338ec226e7c1d78ef6c9aa3497e534f48450db0121036d4b4c0025d46f15ffa0d75c2c3b5fd90d7efe59ce606766431bb34cab531edbffffffff7d5be1f51b5337157271c424499484f6075627ba7700c0b9baa44c0eaa7775ce000000006a47304402203e312d10c52731bcaf2c9631bdc2a40514276267d386a23bb40cbbe013b63c850220617994fa7e4c8c4d37935326f3f4d81fa416b3e17f49e380b859d61727c356ab0121035cc2a21b206b34d83c5fd40ffbd3e51c6d5b78d88edac211d2f5a3a84f94d83fffffffff02df190100000000001976a9145aea84df6fded4dcba509311d78ee29866a2ef3d88ac8c240400000000001976a914db1044be3170f9746e42225d093e86521976f3a288ac00000000", "vin": [{"sequence": 4294967295, "scriptSig": {"hex": "473044022074c743442e4e84c9d3593fff41c7ae14654de5c3fc0dcd2ef23018e50a4cdec9022063664f0ba37ae1228576bb39e0338ec226e7c1d78ef6c9aa3497e534f48450db0121036d4b4c0025d46f15ffa0d75c2c3b5fd90d7efe59ce606766431bb34cab531edb", "asm": "3044022074c743442e4e84c9d3593fff41c7ae14654de5c3fc0dcd2ef23018e50a4cdec9022063664f0ba37ae1228576bb39e0338ec226e7c1d78ef6c9aa3497e534f48450db[ALL] 036d4b4c0025d46f15ffa0d75c2c3b5fd90d7efe59ce606766431bb34cab531edb"}, "vout": 1, "txid": "97cebcc33c22e8f56d3fda8b8e0a16b977306086a1a9c665df24faa433ecc826"}, {"sequence": 4294967295, "scriptSig": {"hex": "47304402203e312d10c52731bcaf2c9631bdc2a40514276267d386a23bb40cbbe013b63c850220617994fa7e4c8c4d37935326f3f4d81fa416b3e17f49e380b859d61727c356ab0121035cc2a21b206b34d83c5fd40ffbd3e51c6d5b78d88edac211d2f5a3a84f94d83f", "asm": "304402203e312d10c52731bcaf2c9631bdc2a40514276267d386a23bb40cbbe013b63c850220617994fa7e4c8c4d37935326f3f4d81fa416b3e17f49e380b859d61727c356ab[ALL] 035cc2a21b206b34d83c5fd40ffbd3e51c6d5b78d88edac211d2f5a3a84f94d83f"}, "vout": 0, "txid": "ce7577aa0e4ca4bab9c00077ba275607f684944924c471721537531bf5e15b7d"}], "txid": "df4f561322eaf86eea877b790220c9a512e1db07d6aba3e9ceaf00f85c5f9bff", "blocktime": 1537869901, "version": 1, "confirmations": 11524, "time": 1537869901, "locktime": 0, "vsize": 372, "size": 372}