{"hash": "df57ddbc7038658a5bf82accb76ca4bc5455c881a4d51718aed2b6534ed92ca0", "blockhash": "0000000000000000001cda96e906b7601b7a6fb1a3b62bca570a9e5d8f4b3de1", "vout": [{"scriptPubKey": {"reqSigs": 1, "hex": "a9143c2b4d37c4040e69967c3ada18d385b0748df31e87", "addresses": ["37BALhmbGEtWKD2sRpMrAVUJXxevdjnhRa"], "asm": "OP_HASH160 3c2b4d37c4040e69967c3ada18d385b0748df31e OP_EQUAL", "type": "scripthash"}, "value": 0.00121044, "n": 0}, {"scriptPubKey": {"reqSigs": 1, "hex": "76a9140f059be57a2fe59bc434da0e8c10d81579cba75f88ac", "addresses": ["12NRrbYQufDKbqvCdeF3eLWcbcDfZ67MGD"], "asm": "OP_DUP OP_HASH160 0f059be57a2fe59bc434da0e8c10d81579cba75f OP_EQUALVERIFY OP_CHECKSIG", "type": "pubkeyhash"}, "value": 0.00016408, "n": 1}], "hex": "0100000001262505a0dae9f29bfe7e29c67ac60f122d882f97d6a6415dba15ce5d63db1062000000006a47304402206cf23f72f55a6ed7f52b8617484e60abc349d688c7617281124f72e78a90579102207f16f933ff3c238e1bc982b6397ce023f5e4393bf0284d0b5c728a49aeb399ce0121022b018259d04fcc51747f4ce3555f9eafaeef0e38d22aab30f4a233e9e7aaceb7ffffffff02d4d801000000000017a9143c2b4d37c4040e69967c3ada18d385b0748df31e8718400000000000001976a9140f059be57a2fe59bc434da0e8c10d81579cba75f88ac00000000", "vin": [{"sequence": 4294967295, "scriptSig": {"hex": "47304402206cf23f72f55a6ed7f52b8617484e60abc349d688c7617281124f72e78a90579102207f16f933ff3c238e1bc982b6397ce023f5e4393bf0284d0b5c728a49aeb399ce0121022b018259d04fcc51747f4ce3555f9eafaeef0e38d22aab30f4a233e9e7aaceb7", "asm": "304402206cf23f72f55a6ed7f52b8617484e60abc349d688c7617281124f72e78a90579102207f16f933ff3c238e1bc982b6397ce023f5e4393bf0284d0b5c728a49aeb399ce[ALL] 022b018259d04fcc51747f4ce3555f9eafaeef0e38d22aab30f4a233e9e7aaceb7"}, "vout": 0, "txid": "6210db635dce15ba5d41a6d6972f882d120fc67ac6297efe9bf2e9daa0052526"}], "txid": "df57ddbc7038658a5bf82accb76ca4bc5455c881a4d51718aed2b6534ed92ca0", "blocktime": 1537873282, "version": 1, "confirmations": 11484, "time": 1537873282, "locktime": 0, "vsize": 223, "size": 223}