{"hash": "b31d3652333967c350c0c9122d67b92897c36851778cba0c46c9c60d05635ff6", "blockhash": "0000000000000000000baef3f32e3676a92c3b2e5da21b426e4f302fc371ce76", "vout": [{"scriptPubKey": {"reqSigs": 1, "hex": "a9148cdf601efaea0439f63d60eb53651bc361546e8387", "addresses": ["3EXt7oMH7GNVRH9hFcVALJZyFJkgGqSp1L"], "asm": "OP_HASH160 8cdf601efaea0439f63d60eb53651bc361546e83 OP_EQUAL", "type": "scripthash"}, "value": 0.0033951, "n": 0}, {"scriptPubKey": {"reqSigs": 1, "hex": "a91421b2a44777d80e835a855051f81a3281dc890e2d87", "addresses": ["34mCE7oijdzexVoAzqCb7tAWk8G6nGXXs6"], "asm": "OP_HASH160 21b2a44777d80e835a855051f81a3281dc890e2d OP_EQUAL", "type": "scripthash"}, "value": 20.72958377, "n": 1}], "hex": "020000000001012671344447b4254edf075aed333633cdfe1f5e1620921e0980951405a9a59d9d0100000017160014b9267df502242b64b0dafa416b43d8a09aad5fa0feffffff02362e05000000000017a9148cdf601efaea0439f63d60eb53651bc361546e8387a9d58e7b0000000017a91421b2a44777d80e835a855051f81a3281dc890e2d87024830450221008f66a26baab7c327b73c002aec1183402c0070b0c4b31aafa20c7b4363d6e1ae02203c455079f39abc3c12c5d84fbf729817407c6d1d976b4f5b9dc9225191cbfe79012103344bb94a1751dc2c38bb2ffa3a3ec1f07f21b7b9d71bfb4801ef0677467d9e0717490800", "vin": [{"txinwitness": ["30450221008f66a26baab7c327b73c002aec1183402c0070b0c4b31aafa20c7b4363d6e1ae02203c455079f39abc3c12c5d84fbf729817407c6d1d976b4f5b9dc9225191cbfe7901", "03344bb94a1751dc2c38bb2ffa3a3ec1f07f21b7b9d71bfb4801ef0677467d9e07"], "sequence": 4294967294, "scriptSig": {"hex": "160014b9267df502242b64b0dafa416b43d8a09aad5fa0", "asm": "0014b9267df502242b64b0dafa416b43d8a09aad5fa0"}, "vout": 1, "txid": "9d9da5a905149580091e9220165e1ffecd333633ed5a07df4e25b44744347126"}], "txid": "df5b95915ac977aef8c40d816cd22249fe09f253c90302c6f12c23dd99fd2c82", "blocktime": 1537876114, "version": 2, "confirmations": 11459, "time": 1537876114, "locktime": 542999, "vsize": 166, "size": 248}