{"hash": "400811e3b76855b248e239763d975c40efb684a36f23a5487d9e9c98dcc545b7", "blockhash": "00000000000000000004ffacab907a6b429b9a5745fa0b75af4234bf69dd7176", "vout": [{"scriptPubKey": {"reqSigs": 1, "hex": "a9141988a27e3c2df4ddee7fad5a2303d086179b2a3087", "addresses": ["3422VtS7UtCvXYxoXMVp6eZupR252z85oC"], "asm": "OP_HASH160 1988a27e3c2df4ddee7fad5a2303d086179b2a30 OP_EQUAL", "type": "scripthash"}, "value": 0.43015161, "n": 0}, {"scriptPubKey": {"reqSigs": 1, "hex": "a914af297ee47c9daface1e44da7da1046eb2788c8d587", "addresses": ["3HfBtHRni7HosGhUePvPehiA3bQhLo1BH3"], "asm": "OP_HASH160 af297ee47c9daface1e44da7da1046eb2788c8d5 OP_EQUAL", "type": "scripthash"}, "value": 0.007535, "n": 1}, {"scriptPubKey": {"reqSigs": 1, "hex": "76a914eb3e9ac8460a2d8155e440510c8fd576f94bce5188ac", "addresses": ["1NSrnvfhCaRcjm1s8fRqQFzaEcqadYLN2Y"], "asm": "OP_DUP OP_HASH160 eb3e9ac8460a2d8155e440510c8fd576f94bce51 OP_EQUALVERIFY OP_CHECKSIG", "type": "pubkeyhash"}, "value": 0.00187993, "n": 2}, {"scriptPubKey": {"reqSigs": 1, "hex": "76a9149614f954ea259d994f10509d6dc8fa3a2f745b1e88ac", "addresses": ["1EgZV55TqxqAERCKW5uT4PXUY6tABwEhwS"], "asm": "OP_DUP OP_HASH160 9614f954ea259d994f10509d6dc8fa3a2f745b1e OP_EQUALVERIFY OP_CHECKSIG", "type": "pubkeyhash"}, "value": 0.04214019, "n": 3}], "hex": "01000000000101e142cf68ff82d462daa2a03eef80e19cdbd8359061d83837fccc17286d45b5a101000000232200202035e78a6b34d583ad0a874b80ee41a0507b92cf0b671656108f594c7f75ca90ffffffff04f95b90020000000017a9141988a27e3c2df4ddee7fad5a2303d086179b2a30875c7f0b000000000017a914af297ee47c9daface1e44da7da1046eb2788c8d58759de0200000000001976a914eb3e9ac8460a2d8155e440510c8fd576f94bce5188ac034d4000000000001976a9149614f954ea259d994f10509d6dc8fa3a2f745b1e88ac040047304402205d7a7c31355354fbb87177503dab908b66a2419a32e412dfa64847e2b021f8c402203a0e96685933bf36e08dffe474e2221351d04eb4f289c3f1ffef226705062d9801483045022100c2c0e27b173c1a20dfe71e263a4bdb9d45745fec799d9838aa24d572062c4dd20220028f2d40abd5770f3dc2b3273f0eb077c624e4ef8f0ed57d44be05aa7142dc6e01695221029103d1dfbbee9ea5249ee0b03ca59e08291ce34a7467513edf8ea767b5aa26382103dce07bea5905a1c3e70f86c1f74f0e98e7cf3b6f5d02226a4c531c9e930c613b210268d8878afaf4b55118519d8520fe0db27f9596a812d4378f4bf4a96a5333694653ae00000000", "vin": [{"txinwitness": ["", "304402205d7a7c31355354fbb87177503dab908b66a2419a32e412dfa64847e2b021f8c402203a0e96685933bf36e08dffe474e2221351d04eb4f289c3f1ffef226705062d9801", "3045022100c2c0e27b173c1a20dfe71e263a4bdb9d45745fec799d9838aa24d572062c4dd20220028f2d40abd5770f3dc2b3273f0eb077c624e4ef8f0ed57d44be05aa7142dc6e01", "5221029103d1dfbbee9ea5249ee0b03ca59e08291ce34a7467513edf8ea767b5aa26382103dce07bea5905a1c3e70f86c1f74f0e98e7cf3b6f5d02226a4c531c9e930c613b210268d8878afaf4b55118519d8520fe0db27f9596a812d4378f4bf4a96a5333694653ae"], "sequence": 4294967295, "scriptSig": {"hex": "2200202035e78a6b34d583ad0a874b80ee41a0507b92cf0b671656108f594c7f75ca90", "asm": "00202035e78a6b34d583ad0a874b80ee41a0507b92cf0b671656108f594c7f75ca90"}, "vout": 1, "txid": "a1b5456d2817ccfc3738d8619035d8db9ce180ef3ea0a2da62d482ff68cf42e1"}], "txid": "df5c075999bbfc337467c488f70fa6ad3a25e9147f675a017ffebca5407dd592", "blocktime": 1537875543, "version": 1, "confirmations": 11464, "time": 1537875543, "locktime": 0, "vsize": 282, "size": 473}