{"hash": "df601d77ce7271c85bbc1f4cfb8baa28f68dcdea8e2ac32c9e7871bd520021b1", "blockhash": "00000000000000000004ffacab907a6b429b9a5745fa0b75af4234bf69dd7176", "vout": [{"scriptPubKey": {"reqSigs": 1, "hex": "76a9149b0164661a59eb6dd5a5dfda629996c8e53b9c5988ac", "addresses": ["1F8bQTvrGFhjP5uxtbTdLmYJD8nta2Tum2"], "asm": "OP_DUP OP_HASH160 9b0164661a59eb6dd5a5dfda629996c8e53b9c59 OP_EQUALVERIFY OP_CHECKSIG", "type": "pubkeyhash"}, "value": 0.00010203, "n": 0}, {"scriptPubKey": {"reqSigs": 1, "hex": "76a9146c40f1315205db2914bbd4bfcf5158a7985e7a2e88ac", "addresses": ["1AsPmyiwgEUx5F6PfaydsYNxg5dmcGQmrt"], "asm": "OP_DUP OP_HASH160 6c40f1315205db2914bbd4bfcf5158a7985e7a2e OP_EQUALVERIFY OP_CHECKSIG", "type": "pubkeyhash"}, "value": 0.02515892, "n": 1}], "hex": "0100000001b7f453628250b2415e67751ac7e9a79ef13c3e2bc494f9b32932b4f8edf86ea2010000006a47304402203544f46904523a815863259e9e49297bfca96c6fb78c35d3b75fa583cac609aa02205109281c0354394a8a469c56f09f4af2d0ea60e896841b7cbd7bb6e82ed68918012102552f583dc3b72f72f2545fe5916226a14c2acc307cfba85c25e05e33583f4bf6ffffffff02db270000000000001976a9149b0164661a59eb6dd5a5dfda629996c8e53b9c5988acb4632600000000001976a9146c40f1315205db2914bbd4bfcf5158a7985e7a2e88ac00000000", "vin": [{"sequence": 4294967295, "scriptSig": {"hex": "47304402203544f46904523a815863259e9e49297bfca96c6fb78c35d3b75fa583cac609aa02205109281c0354394a8a469c56f09f4af2d0ea60e896841b7cbd7bb6e82ed68918012102552f583dc3b72f72f2545fe5916226a14c2acc307cfba85c25e05e33583f4bf6", "asm": "304402203544f46904523a815863259e9e49297bfca96c6fb78c35d3b75fa583cac609aa02205109281c0354394a8a469c56f09f4af2d0ea60e896841b7cbd7bb6e82ed68918[ALL] 02552f583dc3b72f72f2545fe5916226a14c2acc307cfba85c25e05e33583f4bf6"}, "vout": 1, "txid": "a26ef8edf8b43229b3f994c42b3e3cf19ea7e9c71a75675e41b250826253f4b7"}], "txid": "df601d77ce7271c85bbc1f4cfb8baa28f68dcdea8e2ac32c9e7871bd520021b1", "blocktime": 1537875543, "version": 1, "confirmations": 11464, "time": 1537875543, "locktime": 0, "vsize": 225, "size": 225}