{"hash": "df6cebdfd00984eb3e74a55e213086f1c5acf23c241469bec2c4ca495ccdbd98", "blockhash": "0000000000000000000e13cef7c366c0283d82e591d1acd082e914b08063cdf1", "vout": [{"scriptPubKey": {"reqSigs": 1, "hex": "76a91476cc00268397d20be9f872014daa341ea29b861a88ac", "addresses": ["1Bq97r2dW814jmg8JgvTUoNQMgLReoPRVs"], "asm": "OP_DUP OP_HASH160 76cc00268397d20be9f872014daa341ea29b861a OP_EQUALVERIFY OP_CHECKSIG", "type": "pubkeyhash"}, "value": 0.0158443, "n": 0}, {"scriptPubKey": {"reqSigs": 1, "hex": "76a914191af03c2a37850dcb918481733aff2abb52738b88ac", "addresses": ["13HkAWaAiBoDFnZe1QbQDkqLtERb7YJ74k"], "asm": "OP_DUP OP_HASH160 191af03c2a37850dcb918481733aff2abb52738b OP_EQUALVERIFY OP_CHECKSIG", "type": "pubkeyhash"}, "value": 0.09003377, "n": 1}], "hex": "010000000196e00e55c44632898d499b22caf545c4b1375359f5f00f4e16205fb15ce142fe010000006b48304502210083a981498d1c811a0c96e78141317badcd440ea1f0b7649e9e154f4a8807fe30022060879ce34feb4d5aa9349b53917e1d9bef1d0750875b6fc36d4a76de84a2d1790121032a37bb6957b6849e0a58e5476913a52ba218efe99cb821625b42318f32a185b8ffffffff022e2d1800000000001976a91476cc00268397d20be9f872014daa341ea29b861a88ac71618900000000001976a914191af03c2a37850dcb918481733aff2abb52738b88ac00000000", "vin": [{"sequence": 4294967295, "scriptSig": {"hex": "48304502210083a981498d1c811a0c96e78141317badcd440ea1f0b7649e9e154f4a8807fe30022060879ce34feb4d5aa9349b53917e1d9bef1d0750875b6fc36d4a76de84a2d1790121032a37bb6957b6849e0a58e5476913a52ba218efe99cb821625b42318f32a185b8", "asm": "304502210083a981498d1c811a0c96e78141317badcd440ea1f0b7649e9e154f4a8807fe30022060879ce34feb4d5aa9349b53917e1d9bef1d0750875b6fc36d4a76de84a2d179[ALL] 032a37bb6957b6849e0a58e5476913a52ba218efe99cb821625b42318f32a185b8"}, "vout": 1, "txid": "fe42e15cb15f20164e0ff0f5595337b1c445f5ca229b498d893246c4550ee096"}], "txid": "df6cebdfd00984eb3e74a55e213086f1c5acf23c241469bec2c4ca495ccdbd98", "blocktime": 1537871767, "version": 1, "confirmations": 11493, "time": 1537871767, "locktime": 0, "vsize": 226, "size": 226}