{"hash": "a68d4692503a48b740385564e417d7df2405999c063471776447c8352d309075", "blockhash": "0000000000000000001f0ddff1eddb255c1121bcd4da4f1bc9a0da00cae72433", "vout": [{"scriptPubKey": {"reqSigs": 1, "hex": "a9142b23b7dbc7347a34847ae2ac45389080eb88aab387", "addresses": ["35d7mY4RjzfMEjpxzcADTHdGvYCAXS14Bo"], "asm": "OP_HASH160 2b23b7dbc7347a34847ae2ac45389080eb88aab3 OP_EQUAL", "type": "scripthash"}, "value": 0.36746468, "n": 0}, {"scriptPubKey": {"reqSigs": 1, "hex": "a914eca45247c1c08c48908c76978cfe94ce18f83b6c87", "addresses": ["3PGGF4raV9T4Aes6MP9SyFWFM4vMtKrmGu"], "asm": "OP_HASH160 eca45247c1c08c48908c76978cfe94ce18f83b6c OP_EQUAL", "type": "scripthash"}, "value": 0.0295269, "n": 1}], "hex": "0100000000010b90900a539bf5dc1ef5e6d8538fda90a8e4eaa53d4dbf519470e56d71efa998680100000023220020b688bbdda2472c685a5f36a7b8c6664c17003d0fbca9886e533fe1acdc59c83efdffffff005d32e8498ce8272a08c8572d943e28b2d436586cdfc042eb885f8faa4112130100000023220020b688bbdda2472c685a5f36a7b8c6664c17003d0fbca9886e533fe1acdc59c83efdffffffd6ee31af7ed026b70993e40c74670e3bb4e9bbce79d7ee0c8086d9f1762cbe5c0000000023220020b688bbdda2472c685a5f36a7b8c6664c17003d0fbca9886e533fe1acdc59c83efdffffff2cbbb3d337d9847f27f92bbf1920bd526f538289b870a050fe0365dd3f0ad0170000000023220020b688bbdda2472c685a5f36a7b8c6664c17003d0fbca9886e533fe1acdc59c83efdffffffa9c05601ae7800d5305d2711a53266fab4324896715cadcce46f3a63bd011d390100000023220020b688bbdda2472c685a5f36a7b8c6664c17003d0fbca9886e533fe1acdc59c83efdffffffabf553e40b5b8320bb48a4ca98ad989cdbfaf74ce5d66a74bb83312071cae5840100000023220020b688bbdda2472c685a5f36a7b8c6664c17003d0fbca9886e533fe1acdc59c83efdffffff5edeb0569adfca73b0d6753890cbb999f5180044856fc639cbc424c5f8a3b70b0100000023220020b688bbdda2472c685a5f36a7b8c6664c17003d0fbca9886e533fe1acdc59c83efdffffff26c3014728bf4ba0e8b853fc3bbc1ec314fd458d93afcafdb07b4b46a85cd93b0000000023220020b688bbdda2472c685a5f36a7b8c6664c17003d0fbca9886e533fe1acdc59c83efdffffff21db4e201dfdbbe1d4748f0363c0d5118eb6ac3bebe685bef7c08dc08be1d38f0100000023220020b688bbdda2472c685a5f36a7b8c6664c17003d0fbca9886e533fe1acdc59c83efdffffff6351dbf79ccae105f089712980dd9f6fd5cfd52c703231a27d7f6feb588330540000000023220020b688bbdda2472c685a5f36a7b8c6664c17003d0fbca9886e533fe1acdc59c83efdffffff50c2deed052919ca49dc7202e2cd157d854d314958170e90712a043b3e34536f0000000023220020b688bbdda2472c685a5f36a7b8c6664c17003d0fbca9886e533fe1acdc59c83efdffffff02e4b430020000000017a9142b23b7dbc7347a34847ae2ac45389080eb88aab387f20d2d000000000017a914eca45247c1c08c48908c76978cfe94ce18f83b6c870400483045022100d5cd8a7e151e98d0bea8b6232694714cb1200744ec75305852dd9894ea640918022078a3ba30136e62f0892a4a4845206c216f86e6a015aeb1c2242cbce50818326b0147304402203c62b6a2b96eb82a38db8ee24e4fc864cda2d73d87b2208f2a08f8409f0c371602206b0c504a8edf1880571160bf4ca51d90d7aee2eb5b3988a730c49694509fd3080147522103aa2368035ae41f437250d24339c75ab16226187e07bd614e60ce112eb067d7462102e93aa3d613c68e88fd52b218dddc0893802513a17f584cb5e8f149a6e09a51b652ae0400483045022100c73529330a56e2fafbe789c8f9afb0bb2b185de28fcd1e161bc62d356195170b0220386bb2febd1d1c80d5c3616afbba9a8d63eaf0e2616e8b7618d4a33d70bd2bad0148304502210087dfab781df998a71a7c30587944d6607723fea3ce22e00f4ea308699f2858140220155fdb2265fec3c7a8db500b0b7fce4e43063957f6b490c02bd877e971749df20147522103aa2368035ae41f437250d24339c75ab16226187e07bd614e60ce112eb067d7462102e93aa3d613c68e88fd52b218dddc0893802513a17f584cb5e8f149a6e09a51b652ae0400483045022100e61508b973cc3c3daeb1fe923046cab02050018f833a703b5bf414dfa76ffce102201e10fc80e859d9c0f7893562ebe3566c48073d423a8cd9a8fc1276b11900759501473044022021c028258287ab37292acac1bb9636795b65d2405f1ba5724ef21530f024f9e302200afae9bca0863c49d7184e74aff990090d2ccab159abb3819a6862337c28de110147522103aa2368035ae41f437250d24339c75ab16226187e07bd614e60ce112eb067d7462102e93aa3d613c68e88fd52b218dddc0893802513a17f584cb5e8f149a6e09a51b652ae04004830450221008c8236356aecc5efc8d6f89e3db2a731402e93dea6d877c99f802f964f5a35c102203fe1b21e1eb26ca73ca14da468845aedab32d0e162d38721207b33567167501801473044022004bcce8f8d1c1ad3e2abfa9688ce621575958670687e7cf55f9f8a39b5af6498022051730c1a853a2f73bfed87bcab0d9ae5ec58fa0c112244eec824f2887ae51ef40147522103aa2368035ae41f437250d24339c75ab16226187e07bd614e60ce112eb067d7462102e93aa3d613c68e88fd52b218dddc0893802513a17f584cb5e8f149a6e09a51b652ae0400483045022100876fa78d9d080adf26776c0e6fbd7fd3232484335000ee530e777a041b1f6e0c022008d8f6525a4a980881c23a8ef9a2cc7a51d3aa2306d435ae1867570c08dda17101483045022100e40a1c0a74102358369d09fd4278227a7e7ed9f6c14d162c0650b36fad70210002200872cea4d77ae18be8036eace2e24444155ac39e0bf8ba28c83b7deb2b597f280147522103aa2368035ae41f437250d24339c75ab16226187e07bd614e60ce112eb067d7462102e93aa3d613c68e88fd52b218dddc0893802513a17f584cb5e8f149a6e09a51b652ae0400483045022100d4742e8dbbfc4317a1f84a155b29c36293d0e8ada6379231cf13ea5f78bd67f802200eb0c882cd466f0573b395877c0f00d7e37c26ae3ae0c5b10f53528b5a905ca001483045022100856659da0e57fa2163c20b3e8716fb8b5394bc8a7a74888e75672cba9bf3dee6022061b8a412554dfea2d19b029b4bd5a890b3ee0a02b82b44afbb8c855db75e4bbf0147522103aa2368035ae41f437250d24339c75ab16226187e07bd614e60ce112eb067d7462102e93aa3d613c68e88fd52b218dddc0893802513a17f584cb5e8f149a6e09a51b652ae0400483045022100be33c51a96d290794a63fce9b271d61978b1e26f583f8242c9494015bbecebf002205eafeaf157c9750f59c2cd1ea9691f5f9d5ee159393f98dc5c3e40a986df6b690147304402204b2469fcc10b3c239df75eaed550a49d4360b7d395fc712d7ef0ee1ed23d140702206923bcf9f076fec8587f96f442bfcc16d4f58f3a060bf632b2d7cac111f895ff0147522103aa2368035ae41f437250d24339c75ab16226187e07bd614e60ce112eb067d7462102e93aa3d613c68e88fd52b218dddc0893802513a17f584cb5e8f149a6e09a51b652ae040047304402202c4022942c3b61b48a6717064b3335bfbc6b6921e34844f66fec475bb41fa4ab022039cbbd019f6cfb005dd152b9a559942705722e131fc728a0312352254e0df9d301483045022100d625d5265d877fb93c0cfa229c8bd91288f9925de3addb8e8ae020fa388c107b02206b4df61b1eb20b2e342ae952148135c3df74e769a7ee39b6d6887b5701d615350147522103aa2368035ae41f437250d24339c75ab16226187e07bd614e60ce112eb067d7462102e93aa3d613c68e88fd52b218dddc0893802513a17f584cb5e8f149a6e09a51b652ae040047304402200e96dd1153482fde5b6d46da36e5e1880865d577372b5baf60bae5fbc6995c4802206fa6d9cfbf4fd84ebb421bf02271c213c26f8613922e821ce8fb39669409ba000147304402203d7db7c566079178e806f2a5c349befdc5ee66f29f77cb120472fe48ca7497c602200e45741f0a5526b25197e0775181bacd33980c0bf2340456c69403c43d96b83c0147522103aa2368035ae41f437250d24339c75ab16226187e07bd614e60ce112eb067d7462102e93aa3d613c68e88fd52b218dddc0893802513a17f584cb5e8f149a6e09a51b652ae04004730440220536a6233fd022741977df70c68eef23b5fc1b1657a0e1257b06b08d6c7d6aabe02200f2495eef637e06c8332172928d75efb189c8b4f4fe7510df289e670b9a173a001483045022100c14c50226ad31169a0bba3a5ad6e7aa7b420c78968ebc1e9a55d03e7d5bdb4d802202c503a6a8d13a2702df5bc74302530f04fbddd3a1e1a8ca9a342a9a7fa0c77e50147522103aa2368035ae41f437250d24339c75ab16226187e07bd614e60ce112eb067d7462102e93aa3d613c68e88fd52b218dddc0893802513a17f584cb5e8f149a6e09a51b652ae0400483045022100bc3c60f65c0b97a6294ffdd4adf3826aee7a927560510468526b7e83248dc3e102201c0a681bed6f37ff3e3e8692b9191d77d69eeb1989e8aa3a220a8eb1bfa09ae901473044022006b261701e040ebc52d5df58f39e7f77ebdc9f3dfb94c116e041506ad2bc57ab022007dc964588164cec9d50884d5f532a897937c0178ef34f025ec15622791c64490147522103aa2368035ae41f437250d24339c75ab16226187e07bd614e60ce112eb067d7462102e93aa3d613c68e88fd52b218dddc0893802513a17f584cb5e8f149a6e09a51b652ae00000000", "vin": [{"txinwitness": ["", "3045022100d5cd8a7e151e98d0bea8b6232694714cb1200744ec75305852dd9894ea640918022078a3ba30136e62f0892a4a4845206c216f86e6a015aeb1c2242cbce50818326b01", "304402203c62b6a2b96eb82a38db8ee24e4fc864cda2d73d87b2208f2a08f8409f0c371602206b0c504a8edf1880571160bf4ca51d90d7aee2eb5b3988a730c49694509fd30801", "522103aa2368035ae41f437250d24339c75ab16226187e07bd614e60ce112eb067d7462102e93aa3d613c68e88fd52b218dddc0893802513a17f584cb5e8f149a6e09a51b652ae"], "sequence": 4294967293, "scriptSig": {"hex": "220020b688bbdda2472c685a5f36a7b8c6664c17003d0fbca9886e533fe1acdc59c83e", "asm": "0020b688bbdda2472c685a5f36a7b8c6664c17003d0fbca9886e533fe1acdc59c83e"}, "vout": 1, "txid": "6898a9ef716de5709451bf4d3da5eae4a890da8f53d8e6f51edcf59b530a9090"}, {"txinwitness": ["", "3045022100c73529330a56e2fafbe789c8f9afb0bb2b185de28fcd1e161bc62d356195170b0220386bb2febd1d1c80d5c3616afbba9a8d63eaf0e2616e8b7618d4a33d70bd2bad01", "304502210087dfab781df998a71a7c30587944d6607723fea3ce22e00f4ea308699f2858140220155fdb2265fec3c7a8db500b0b7fce4e43063957f6b490c02bd877e971749df201", "522103aa2368035ae41f437250d24339c75ab16226187e07bd614e60ce112eb067d7462102e93aa3d613c68e88fd52b218dddc0893802513a17f584cb5e8f149a6e09a51b652ae"], "sequence": 4294967293, "scriptSig": {"hex": "220020b688bbdda2472c685a5f36a7b8c6664c17003d0fbca9886e533fe1acdc59c83e", "asm": "0020b688bbdda2472c685a5f36a7b8c6664c17003d0fbca9886e533fe1acdc59c83e"}, "vout": 1, "txid": "131241aa8f5f88eb42c0df6c5836d4b2283e942d57c8082a27e88c49e8325d00"}, {"txinwitness": ["", "3045022100e61508b973cc3c3daeb1fe923046cab02050018f833a703b5bf414dfa76ffce102201e10fc80e859d9c0f7893562ebe3566c48073d423a8cd9a8fc1276b11900759501", "3044022021c028258287ab37292acac1bb9636795b65d2405f1ba5724ef21530f024f9e302200afae9bca0863c49d7184e74aff990090d2ccab159abb3819a6862337c28de1101", "522103aa2368035ae41f437250d24339c75ab16226187e07bd614e60ce112eb067d7462102e93aa3d613c68e88fd52b218dddc0893802513a17f584cb5e8f149a6e09a51b652ae"], "sequence": 4294967293, "scriptSig": {"hex": "220020b688bbdda2472c685a5f36a7b8c6664c17003d0fbca9886e533fe1acdc59c83e", "asm": "0020b688bbdda2472c685a5f36a7b8c6664c17003d0fbca9886e533fe1acdc59c83e"}, "vout": 0, "txid": "5cbe2c76f1d986800ceed779cebbe9b43b0e67740ce49309b726d07eaf31eed6"}, {"txinwitness": ["", "30450221008c8236356aecc5efc8d6f89e3db2a731402e93dea6d877c99f802f964f5a35c102203fe1b21e1eb26ca73ca14da468845aedab32d0e162d38721207b33567167501801", "3044022004bcce8f8d1c1ad3e2abfa9688ce621575958670687e7cf55f9f8a39b5af6498022051730c1a853a2f73bfed87bcab0d9ae5ec58fa0c112244eec824f2887ae51ef401", "522103aa2368035ae41f437250d24339c75ab16226187e07bd614e60ce112eb067d7462102e93aa3d613c68e88fd52b218dddc0893802513a17f584cb5e8f149a6e09a51b652ae"], "sequence": 4294967293, "scriptSig": {"hex": "220020b688bbdda2472c685a5f36a7b8c6664c17003d0fbca9886e533fe1acdc59c83e", "asm": "0020b688bbdda2472c685a5f36a7b8c6664c17003d0fbca9886e533fe1acdc59c83e"}, "vout": 0, "txid": "17d00a3fdd6503fe50a070b88982536f52bd2019bf2bf9277f84d937d3b3bb2c"}, {"txinwitness": ["", "3045022100876fa78d9d080adf26776c0e6fbd7fd3232484335000ee530e777a041b1f6e0c022008d8f6525a4a980881c23a8ef9a2cc7a51d3aa2306d435ae1867570c08dda17101", "3045022100e40a1c0a74102358369d09fd4278227a7e7ed9f6c14d162c0650b36fad70210002200872cea4d77ae18be8036eace2e24444155ac39e0bf8ba28c83b7deb2b597f2801", "522103aa2368035ae41f437250d24339c75ab16226187e07bd614e60ce112eb067d7462102e93aa3d613c68e88fd52b218dddc0893802513a17f584cb5e8f149a6e09a51b652ae"], "sequence": 4294967293, "scriptSig": {"hex": "220020b688bbdda2472c685a5f36a7b8c6664c17003d0fbca9886e533fe1acdc59c83e", "asm": "0020b688bbdda2472c685a5f36a7b8c6664c17003d0fbca9886e533fe1acdc59c83e"}, "vout": 1, "txid": "391d01bd633a6fe4ccad5c71964832b4fa6632a511275d30d50078ae0156c0a9"}, {"txinwitness": ["", "3045022100d4742e8dbbfc4317a1f84a155b29c36293d0e8ada6379231cf13ea5f78bd67f802200eb0c882cd466f0573b395877c0f00d7e37c26ae3ae0c5b10f53528b5a905ca001", "3045022100856659da0e57fa2163c20b3e8716fb8b5394bc8a7a74888e75672cba9bf3dee6022061b8a412554dfea2d19b029b4bd5a890b3ee0a02b82b44afbb8c855db75e4bbf01", "522103aa2368035ae41f437250d24339c75ab16226187e07bd614e60ce112eb067d7462102e93aa3d613c68e88fd52b218dddc0893802513a17f584cb5e8f149a6e09a51b652ae"], "sequence": 4294967293, "scriptSig": {"hex": "220020b688bbdda2472c685a5f36a7b8c6664c17003d0fbca9886e533fe1acdc59c83e", "asm": "0020b688bbdda2472c685a5f36a7b8c6664c17003d0fbca9886e533fe1acdc59c83e"}, "vout": 1, "txid": "84e5ca71203183bb746ad6e54cf7fadb9c98ad98caa448bb20835b0be453f5ab"}, {"txinwitness": ["", "3045022100be33c51a96d290794a63fce9b271d61978b1e26f583f8242c9494015bbecebf002205eafeaf157c9750f59c2cd1ea9691f5f9d5ee159393f98dc5c3e40a986df6b6901", "304402204b2469fcc10b3c239df75eaed550a49d4360b7d395fc712d7ef0ee1ed23d140702206923bcf9f076fec8587f96f442bfcc16d4f58f3a060bf632b2d7cac111f895ff01", "522103aa2368035ae41f437250d24339c75ab16226187e07bd614e60ce112eb067d7462102e93aa3d613c68e88fd52b218dddc0893802513a17f584cb5e8f149a6e09a51b652ae"], "sequence": 4294967293, "scriptSig": {"hex": "220020b688bbdda2472c685a5f36a7b8c6664c17003d0fbca9886e533fe1acdc59c83e", "asm": "0020b688bbdda2472c685a5f36a7b8c6664c17003d0fbca9886e533fe1acdc59c83e"}, "vout": 1, "txid": "0bb7a3f8c524c4cb39c66f85440018f599b9cb903875d6b073cadf9a56b0de5e"}, {"txinwitness": ["", "304402202c4022942c3b61b48a6717064b3335bfbc6b6921e34844f66fec475bb41fa4ab022039cbbd019f6cfb005dd152b9a559942705722e131fc728a0312352254e0df9d301", "3045022100d625d5265d877fb93c0cfa229c8bd91288f9925de3addb8e8ae020fa388c107b02206b4df61b1eb20b2e342ae952148135c3df74e769a7ee39b6d6887b5701d6153501", "522103aa2368035ae41f437250d24339c75ab16226187e07bd614e60ce112eb067d7462102e93aa3d613c68e88fd52b218dddc0893802513a17f584cb5e8f149a6e09a51b652ae"], "sequence": 4294967293, "scriptSig": {"hex": "220020b688bbdda2472c685a5f36a7b8c6664c17003d0fbca9886e533fe1acdc59c83e", "asm": "0020b688bbdda2472c685a5f36a7b8c6664c17003d0fbca9886e533fe1acdc59c83e"}, "vout": 0, "txid": "3bd95ca8464b7bb0fdcaaf938d45fd14c31ebc3bfc53b8e8a04bbf284701c326"}, {"txinwitness": ["", "304402200e96dd1153482fde5b6d46da36e5e1880865d577372b5baf60bae5fbc6995c4802206fa6d9cfbf4fd84ebb421bf02271c213c26f8613922e821ce8fb39669409ba0001", "304402203d7db7c566079178e806f2a5c349befdc5ee66f29f77cb120472fe48ca7497c602200e45741f0a5526b25197e0775181bacd33980c0bf2340456c69403c43d96b83c01", "522103aa2368035ae41f437250d24339c75ab16226187e07bd614e60ce112eb067d7462102e93aa3d613c68e88fd52b218dddc0893802513a17f584cb5e8f149a6e09a51b652ae"], "sequence": 4294967293, "scriptSig": {"hex": "220020b688bbdda2472c685a5f36a7b8c6664c17003d0fbca9886e533fe1acdc59c83e", "asm": "0020b688bbdda2472c685a5f36a7b8c6664c17003d0fbca9886e533fe1acdc59c83e"}, "vout": 1, "txid": "8fd3e18bc08dc0f7be85e6eb3bacb68e11d5c063038f74d4e1bbfd1d204edb21"}, {"txinwitness": ["", "30440220536a6233fd022741977df70c68eef23b5fc1b1657a0e1257b06b08d6c7d6aabe02200f2495eef637e06c8332172928d75efb189c8b4f4fe7510df289e670b9a173a001", "3045022100c14c50226ad31169a0bba3a5ad6e7aa7b420c78968ebc1e9a55d03e7d5bdb4d802202c503a6a8d13a2702df5bc74302530f04fbddd3a1e1a8ca9a342a9a7fa0c77e501", "522103aa2368035ae41f437250d24339c75ab16226187e07bd614e60ce112eb067d7462102e93aa3d613c68e88fd52b218dddc0893802513a17f584cb5e8f149a6e09a51b652ae"], "sequence": 4294967293, "scriptSig": {"hex": "220020b688bbdda2472c685a5f36a7b8c6664c17003d0fbca9886e533fe1acdc59c83e", "asm": "0020b688bbdda2472c685a5f36a7b8c6664c17003d0fbca9886e533fe1acdc59c83e"}, "vout": 0, "txid": "54308358eb6f7f7da23132702cd5cfd56f9fdd80297189f005e1ca9cf7db5163"}, {"txinwitness": ["", "3045022100bc3c60f65c0b97a6294ffdd4adf3826aee7a927560510468526b7e83248dc3e102201c0a681bed6f37ff3e3e8692b9191d77d69eeb1989e8aa3a220a8eb1bfa09ae901", "3044022006b261701e040ebc52d5df58f39e7f77ebdc9f3dfb94c116e041506ad2bc57ab022007dc964588164cec9d50884d5f532a897937c0178ef34f025ec15622791c644901", "522103aa2368035ae41f437250d24339c75ab16226187e07bd614e60ce112eb067d7462102e93aa3d613c68e88fd52b218dddc0893802513a17f584cb5e8f149a6e09a51b652ae"], "sequence": 4294967293, "scriptSig": {"hex": "220020b688bbdda2472c685a5f36a7b8c6664c17003d0fbca9886e533fe1acdc59c83e", "asm": "0020b688bbdda2472c685a5f36a7b8c6664c17003d0fbca9886e533fe1acdc59c83e"}, "vout": 0, "txid": "6f53343e3b042a71900e175849314d857d15cde20272dc49ca192905eddec250"}], "txid": "df749ee10cb7e117027fad554f0d0f95aafe3f192c732a28cbf0b3cd4b6212f3", "blocktime": 1537872018, "version": 1, "confirmations": 11489, "time": 1537872018, "locktime": 0, "vsize": 1514, "size": 3323}