{"hash": "df774dbc64f063d81b7692660c3ad2a3f5b71a40f48ca444b595161ccd8e41ce", "blockhash": "0000000000000000000e13cef7c366c0283d82e591d1acd082e914b08063cdf1", "vout": [{"scriptPubKey": {"reqSigs": 1, "hex": "76a9143793acb0c4b8996f55b17d4bd69c1f2256815f0688ac", "addresses": ["164s5AGgkZbUrExHpfYHb1rYYXBjRasvCD"], "asm": "OP_DUP OP_HASH160 3793acb0c4b8996f55b17d4bd69c1f2256815f06 OP_EQUALVERIFY OP_CHECKSIG", "type": "pubkeyhash"}, "value": 7.676e-05, "n": 0}, {"scriptPubKey": {"reqSigs": 1, "hex": "76a914244b73ad37871d0999cdb9e239c45a9d5505022388ac", "addresses": ["14JuiPobdixzkNbmsvJh1JAQZ8j5VXDCpL"], "asm": "OP_DUP OP_HASH160 244b73ad37871d0999cdb9e239c45a9d55050223 OP_EQUALVERIFY OP_CHECKSIG", "type": "pubkeyhash"}, "value": 0.00242174, "n": 1}], "hex": "01000000012c92231f5f3501baad837554d82ce2b37b8935712976b3fd758a4f660d791b0d000000006a473044022018b94bcc0671fea19c18d00ba7ae063d18910b5885fdc7c1fee13fe85acd96c1022023d952ce5aaabe3eed929dd92cd3094a5d3647acc87510a262f294b81d91176e012103926110465eac949fb8758117bd88ef8ce96851e2a2294ba864dbd405db4efbe3ffffffff02fc1d0000000000001976a9143793acb0c4b8996f55b17d4bd69c1f2256815f0688acfeb10300000000001976a914244b73ad37871d0999cdb9e239c45a9d5505022388ac00000000", "vin": [{"sequence": 4294967295, "scriptSig": {"hex": "473044022018b94bcc0671fea19c18d00ba7ae063d18910b5885fdc7c1fee13fe85acd96c1022023d952ce5aaabe3eed929dd92cd3094a5d3647acc87510a262f294b81d91176e012103926110465eac949fb8758117bd88ef8ce96851e2a2294ba864dbd405db4efbe3", "asm": "3044022018b94bcc0671fea19c18d00ba7ae063d18910b5885fdc7c1fee13fe85acd96c1022023d952ce5aaabe3eed929dd92cd3094a5d3647acc87510a262f294b81d91176e[ALL] 03926110465eac949fb8758117bd88ef8ce96851e2a2294ba864dbd405db4efbe3"}, "vout": 0, "txid": "0d1b790d664f8a75fdb376297135897bb3e22cd8547583adba01355f1f23922c"}], "txid": "df774dbc64f063d81b7692660c3ad2a3f5b71a40f48ca444b595161ccd8e41ce", "blocktime": 1537871767, "version": 1, "confirmations": 11495, "time": 1537871767, "locktime": 0, "vsize": 225, "size": 225}