{"hash": "df78a0ad9007b5a297b47e954eedec49c66ef8e8dc1712e642abb792384bb875", "blockhash": "0000000000000000001f0ddff1eddb255c1121bcd4da4f1bc9a0da00cae72433", "vout": [{"scriptPubKey": {"reqSigs": 1, "hex": "76a91488ac913d10374c15f36582fd1d418bedc95fe04088ac", "addresses": ["1DTfdH7TvJs6squgtAnj782cs6cGfwqWHB"], "asm": "OP_DUP OP_HASH160 88ac913d10374c15f36582fd1d418bedc95fe040 OP_EQUALVERIFY OP_CHECKSIG", "type": "pubkeyhash"}, "value": 0.03109485, "n": 0}, {"scriptPubKey": {"reqSigs": 1, "hex": "a9149a363fa30d3021fcb428e5df71a78c42c75ea24987", "addresses": ["3FkQyLrhNLFyX2KJXrUH7vbba3C92th1tZ"], "asm": "OP_HASH160 9a363fa30d3021fcb428e5df71a78c42c75ea249 OP_EQUAL", "type": "scripthash"}, "value": 0.08, "n": 1}], "hex": "01000000019232230854652ac98f077deaf765959db5b3fd107dd662743c0da7b5ea942393000000006a473044022062dd5e5480fb54867b94a6a97b9d962544664e1e7fab5ef0986733f738b7105602204d2ae97dd234a9fbbdd0bafd38a9cca457018be8d88579d8f7a984f6af996f9d0121022fb11f4bfd0cce2e0bd4c34225ed7371873a1b0587deff682157b7e76cdce52ffdffffff026d722f00000000001976a91488ac913d10374c15f36582fd1d418bedc95fe04088ac00127a000000000017a9149a363fa30d3021fcb428e5df71a78c42c75ea2498710490800", "vin": [{"sequence": 4294967293, "scriptSig": {"hex": "473044022062dd5e5480fb54867b94a6a97b9d962544664e1e7fab5ef0986733f738b7105602204d2ae97dd234a9fbbdd0bafd38a9cca457018be8d88579d8f7a984f6af996f9d0121022fb11f4bfd0cce2e0bd4c34225ed7371873a1b0587deff682157b7e76cdce52f", "asm": "3044022062dd5e5480fb54867b94a6a97b9d962544664e1e7fab5ef0986733f738b7105602204d2ae97dd234a9fbbdd0bafd38a9cca457018be8d88579d8f7a984f6af996f9d[ALL] 022fb11f4bfd0cce2e0bd4c34225ed7371873a1b0587deff682157b7e76cdce52f"}, "vout": 0, "txid": "932394eab5a70d3c7462d67d10fdb3b59d9565f7ea7d078fc92a655408233292"}], "txid": "df78a0ad9007b5a297b47e954eedec49c66ef8e8dc1712e642abb792384bb875", "blocktime": 1537872018, "version": 1, "confirmations": 11489, "time": 1537872018, "locktime": 542992, "vsize": 223, "size": 223}