{"hash": "537d4396d324b76b950d803fd1322de5db055de07eb2fe5ff75b795cd56c6799", "blockhash": "0000000000000000001cda96e906b7601b7a6fb1a3b62bca570a9e5d8f4b3de1", "vout": [{"scriptPubKey": {"reqSigs": 1, "hex": "76a91426d948ac08375c9f2bdd74b494f6a112032992d788ac", "addresses": ["14YQySPy6i6Utq2RGVNovTiVjqVtgK17Tf"], "asm": "OP_DUP OP_HASH160 26d948ac08375c9f2bdd74b494f6a112032992d7 OP_EQUALVERIFY OP_CHECKSIG", "type": "pubkeyhash"}, "value": 0.10890067, "n": 0}, {"scriptPubKey": {"reqSigs": 1, "hex": "a91443f62a3d4933e05622cd51c77017b970eed9a05b87", "addresses": ["37tN6EtYzsorm6zBcpfWz8w5xRNy3mab33"], "asm": "OP_HASH160 43f62a3d4933e05622cd51c77017b970eed9a05b OP_EQUAL", "type": "scripthash"}, "value": 0.41234762, "n": 1}], "hex": "0100000000010262a6da454ba3bbdc903f76851484f28061f3c26d213b479488763e45c0fc3ad601000000232200201dd6ce43abdc84f34fdcc73ab17bc29ae9c934e26a45e54e686de9b71cb3af4affffffffe8e7fbcd01aa30ea62b9a2892e58ac659d48679042a83df86c182263705bc37400000000232200201dd6ce43abdc84f34fdcc73ab17bc29ae9c934e26a45e54e686de9b71cb3af4affffffff02532ba600000000001976a91426d948ac08375c9f2bdd74b494f6a112032992d788ac4a3175020000000017a91443f62a3d4933e05622cd51c77017b970eed9a05b870400483045022100cec2cf40b519f92c920d64b609990f73b1674547a7378022cd07b8ac9721f2e7022072acd332e1cee11775d39fc04ab93ec34b28b5276087812c6040c6c71b9f8602014830450221008196ddc9c99c081ce23aa1faf5d46c5514b38338e55f7401d9427b086bf0284602200a2a21782d75b214dbfc3a008028319b85459f1aa188211f2ad6b579d921156101475221023d094ce44231935102dd1c672bc70808e5831d5d55d4082df3b1d9c342a4f7b92103c86ff487c5c7bef620008af5c952420bf509584280226750bb54cc3b293fd7ec52ae0400483045022100aeeac5f260b4b90cad1abceea662577c53b45d82cb1bbcaf5926a80fee79fcbc02202f04748b9357147910e13fe3cb59f376eccb506af4f87083dd5f6fb35f5d35250147304402204a2b6feab16ac58e9c186a52edef632f25956066a68bb6bc6f4d14826a68322b0220654b8c935434f22bc597cc354a232c289130834a612927069a5bf94bacc1369f01475221023d094ce44231935102dd1c672bc70808e5831d5d55d4082df3b1d9c342a4f7b92103c86ff487c5c7bef620008af5c952420bf509584280226750bb54cc3b293fd7ec52ae00000000", "vin": [{"txinwitness": ["", "3045022100cec2cf40b519f92c920d64b609990f73b1674547a7378022cd07b8ac9721f2e7022072acd332e1cee11775d39fc04ab93ec34b28b5276087812c6040c6c71b9f860201", "30450221008196ddc9c99c081ce23aa1faf5d46c5514b38338e55f7401d9427b086bf0284602200a2a21782d75b214dbfc3a008028319b85459f1aa188211f2ad6b579d921156101", "5221023d094ce44231935102dd1c672bc70808e5831d5d55d4082df3b1d9c342a4f7b92103c86ff487c5c7bef620008af5c952420bf509584280226750bb54cc3b293fd7ec52ae"], "sequence": 4294967295, "scriptSig": {"hex": "2200201dd6ce43abdc84f34fdcc73ab17bc29ae9c934e26a45e54e686de9b71cb3af4a", "asm": "00201dd6ce43abdc84f34fdcc73ab17bc29ae9c934e26a45e54e686de9b71cb3af4a"}, "vout": 1, "txid": "d63afcc0453e768894473b216dc2f36180f2841485763f90dcbba34b45daa662"}, {"txinwitness": ["", "3045022100aeeac5f260b4b90cad1abceea662577c53b45d82cb1bbcaf5926a80fee79fcbc02202f04748b9357147910e13fe3cb59f376eccb506af4f87083dd5f6fb35f5d352501", "304402204a2b6feab16ac58e9c186a52edef632f25956066a68bb6bc6f4d14826a68322b0220654b8c935434f22bc597cc354a232c289130834a612927069a5bf94bacc1369f01", "5221023d094ce44231935102dd1c672bc70808e5831d5d55d4082df3b1d9c342a4f7b92103c86ff487c5c7bef620008af5c952420bf509584280226750bb54cc3b293fd7ec52ae"], "sequence": 4294967295, "scriptSig": {"hex": "2200201dd6ce43abdc84f34fdcc73ab17bc29ae9c934e26a45e54e686de9b71cb3af4a", "asm": "00201dd6ce43abdc84f34fdcc73ab17bc29ae9c934e26a45e54e686de9b71cb3af4a"}, "vout": 0, "txid": "74c35b706322186cf83da8429067489d65ac582e89a2b962ea30aa01cdfbe7e8"}], "txid": "df7bda2c542e1a1f8a9e197b6630e6ba9dea0899f489c5b5bf7bbc09f1d62b51", "blocktime": 1537873282, "version": 1, "confirmations": 11484, "time": 1537873282, "locktime": 0, "vsize": 339, "size": 669}