{"hash": "df7f289e5ced444555807bc07c9b2d8e4738111e3a2b55d2beb6e70f50dd5c66", "blockhash": "0000000000000000000dcc0f55137456b1a82d3642486a52398922ac4d620174", "vout": [{"scriptPubKey": {"reqSigs": 1, "hex": "76a914c7189c021535f102de67e9eb166069a2b7491adb88ac", "addresses": ["1K9ix4pPvw6LkyBBrvh21XfgoPFJpcosdN"], "asm": "OP_DUP OP_HASH160 c7189c021535f102de67e9eb166069a2b7491adb OP_EQUALVERIFY OP_CHECKSIG", "type": "pubkeyhash"}, "value": 0.00653145, "n": 0}, {"scriptPubKey": {"type": "nulldata", "hex": "6a4c50000077760001289af6db5aa7155404994516bcbefa6b8351586b4e86aeaeacb577c031fc4be3474d14b6f32469216d99516ca4025baa09660614909024164bf41d100759d4ba30d2c37bb011d97e02cf", "asm": "OP_RETURN 000077760001289af6db5aa7155404994516bcbefa6b8351586b4e86aeaeacb577c031fc4be3474d14b6f32469216d99516ca4025baa09660614909024164bf41d100759d4ba30d2c37bb011d97e02cf"}, "value": 0.0, "n": 1}], "hex": "0100000001552b8dbcd32fd23ade6356b0d63a599a5afc93e5ad998ee311cba1603dd29f34000000006b483045022100afb59396663664492905b1b775e7bcc52c05a28d4895904826189a8afbb6534602206223347bccb37316d06c74ceca3c6b124a2471a01580336f0e6d85fda2f6dc5501210280765ae1765a6aff62032dc7f40725736b93b9511c06bbd8481208bc061cc9f8ffffffff0259f70900000000001976a914c7189c021535f102de67e9eb166069a2b7491adb88ac0000000000000000536a4c50000077760001289af6db5aa7155404994516bcbefa6b8351586b4e86aeaeacb577c031fc4be3474d14b6f32469216d99516ca4025baa09660614909024164bf41d100759d4ba30d2c37bb011d97e02cf00000000", "vin": [{"sequence": 4294967295, "scriptSig": {"hex": "483045022100afb59396663664492905b1b775e7bcc52c05a28d4895904826189a8afbb6534602206223347bccb37316d06c74ceca3c6b124a2471a01580336f0e6d85fda2f6dc5501210280765ae1765a6aff62032dc7f40725736b93b9511c06bbd8481208bc061cc9f8", "asm": "3045022100afb59396663664492905b1b775e7bcc52c05a28d4895904826189a8afbb6534602206223347bccb37316d06c74ceca3c6b124a2471a01580336f0e6d85fda2f6dc55[ALL] 0280765ae1765a6aff62032dc7f40725736b93b9511c06bbd8481208bc061cc9f8"}, "vout": 0, "txid": "349fd23d60a1cb11e38e99ade593fc5a9a593ad6b05663de3ad22fd3bc8d2b55"}], "txid": "df7f289e5ced444555807bc07c9b2d8e4738111e3a2b55d2beb6e70f50dd5c66", "blocktime": 1537870268, "version": 1, "confirmations": 11518, "time": 1537870268, "locktime": 0, "vsize": 284, "size": 284}