{"hash": "a79dbba323cfc2e0a33a9b5febd7c4080fa3d622735442c310f0da8306741da7", "blockhash": "0000000000000000000e13cef7c366c0283d82e591d1acd082e914b08063cdf1", "vout": [{"scriptPubKey": {"reqSigs": 1, "hex": "a9145c23b905fe39bbe17f072c8a72bf36d21669bd5387", "addresses": ["3A6CtFaaBwJkFz9zjp7Q4ZH7PrnvD7hvnt"], "asm": "OP_HASH160 5c23b905fe39bbe17f072c8a72bf36d21669bd53 OP_EQUAL", "type": "scripthash"}, "value": 0.22873716, "n": 0}, {"scriptPubKey": {"reqSigs": 1, "hex": "a914cc9e749ed228fe7221e965c60f23c3d95ecf073087", "addresses": ["3LLwbMvvzXVqzMMR5J98wgrBGUbSw3LSV9"], "asm": "OP_HASH160 cc9e749ed228fe7221e965c60f23c3d95ecf0730 OP_EQUAL", "type": "scripthash"}, "value": 0.10336729, "n": 1}, {"scriptPubKey": {"reqSigs": 1, "hex": "76a91401a7c320b160be788fde3366e55adad2fca4882188ac", "addresses": ["19keWsf7e2BtdNnYSv8yfAyrJAuZXULVN"], "asm": "OP_DUP OP_HASH160 01a7c320b160be788fde3366e55adad2fca48821 OP_EQUALVERIFY OP_CHECKSIG", "type": "pubkeyhash"}, "value": 0.01004029, "n": 2}, {"scriptPubKey": {"reqSigs": 1, "hex": "76a9149661a2c230865b5e57ee18a255a4c24cca1ddfc188ac", "addresses": ["1Ei9KdNqRE7H562sWehHFuDjSU491sj6Gb"], "asm": "OP_DUP OP_HASH160 9661a2c230865b5e57ee18a255a4c24cca1ddfc1 OP_EQUALVERIFY OP_CHECKSIG", "type": "pubkeyhash"}, "value": 0.01631603, "n": 3}, {"scriptPubKey": {"reqSigs": 1, "hex": "a9143cf8bfb947b249c634ce452e2080b67c4ab2e12887", "addresses": ["37FQTRzACeC2Se7pgXN1WJH7YA75QsHNXJ"], "asm": "OP_HASH160 3cf8bfb947b249c634ce452e2080b67c4ab2e128 OP_EQUAL", "type": "scripthash"}, "value": 0.24148503, "n": 4}], "hex": "02000000000101d00a34a9c2273182c2b0ac90e37fb40b0a86e132895027fc30dd1d13d9cda2ad00000000171600141209db4af0cb90357d2d598b610334028ec762cdfdffffff0574065d010000000017a9145c23b905fe39bbe17f072c8a72bf36d21669bd5387d9b99d000000000017a914cc9e749ed228fe7221e965c60f23c3d95ecf073087fd510f00000000001976a91401a7c320b160be788fde3366e55adad2fca4882188ac73e51800000000001976a9149661a2c230865b5e57ee18a255a4c24cca1ddfc188ac177a70010000000017a9143cf8bfb947b249c634ce452e2080b67c4ab2e12887024830450221008c4759f422e1455f247b03f78f960a9090baf1eb1d00f19066f8d2f10cd7cb1302207681b94954e909f19a3e692a6bf51ca233d6f7e944c1932e8492d7e3d9af6f420121024d632754a79f3472d99342a1912891d3c54d169692f94f7c3c1bd298ba5fe3c601000000", "vin": [{"txinwitness": ["30450221008c4759f422e1455f247b03f78f960a9090baf1eb1d00f19066f8d2f10cd7cb1302207681b94954e909f19a3e692a6bf51ca233d6f7e944c1932e8492d7e3d9af6f4201", "024d632754a79f3472d99342a1912891d3c54d169692f94f7c3c1bd298ba5fe3c6"], "sequence": 4294967293, "scriptSig": {"hex": "1600141209db4af0cb90357d2d598b610334028ec762cd", "asm": "00141209db4af0cb90357d2d598b610334028ec762cd"}, "vout": 0, "txid": "ada2cdd9131ddd30fc27508932e1860a0bb47fe390acb0c2823127c2a9340ad0"}], "txid": "df82ccba7488cf4d2c80090474ff4cc9aaca90f6b8ff7edc653dcd2c7acf8629", "blocktime": 1537871767, "version": 2, "confirmations": 11490, "time": 1537871767, "locktime": 1, "vsize": 266, "size": 348}