{"hash": "23fccca80392787e780d011d0e11fa62c72ae882b564391ee5154f9a4e965e3c", "blockhash": "00000000000000000018f53835495a110e01622372bf6ae95dc86f2b0ab887b0", "vout": [{"scriptPubKey": {"reqSigs": 1, "hex": "76a914186ac9e4ad28b440bf46e79e31cb235aa4a00bce88ac", "addresses": ["13E79QjDpJU94HUnPzfcy313c6wNb3Bsos"], "asm": "OP_DUP OP_HASH160 186ac9e4ad28b440bf46e79e31cb235aa4a00bce OP_EQUALVERIFY OP_CHECKSIG", "type": "pubkeyhash"}, "value": 11.0, "n": 0}, {"scriptPubKey": {"reqSigs": 1, "hex": "a91419141c71936193d2dfc58e2da52eeada0ec3959b87", "addresses": ["33ycugcYgvVubojPEzYLtoYEVPPyeUnHkn"], "asm": "OP_HASH160 19141c71936193d2dfc58e2da52eeada0ec3959b OP_EQUAL", "type": "scripthash"}, "value": 10.87141068, "n": 1}], "hex": "01000000000101e97cc76aade07bd1e9a8ff3b75a8f4ee3cc7b8be4a84f1e966845968185c7dfd010000001716001410ec10f033b111baad20e5da7c2aa38b1eb3d65bffffffff0200ab9041000000001976a914186ac9e4ad28b440bf46e79e31cb235aa4a00bce88accc74cc400000000017a91419141c71936193d2dfc58e2da52eeada0ec3959b8702483045022100be0cf2667caa8ee15991119aed4b73381fd54036309f603ce32b57eff7a3e446022025c7440dd8359782ae08d629d29470501c4960ae6be7a938ce237dd927c0d9ac012102f58898583906e8c1c5de9468da15466a50a45ef0f7c812c5ac96a1e4dbd861e000000000", "vin": [{"txinwitness": ["3045022100be0cf2667caa8ee15991119aed4b73381fd54036309f603ce32b57eff7a3e446022025c7440dd8359782ae08d629d29470501c4960ae6be7a938ce237dd927c0d9ac01", "02f58898583906e8c1c5de9468da15466a50a45ef0f7c812c5ac96a1e4dbd861e0"], "sequence": 4294967295, "scriptSig": {"hex": "16001410ec10f033b111baad20e5da7c2aa38b1eb3d65b", "asm": "001410ec10f033b111baad20e5da7c2aa38b1eb3d65b"}, "vout": 1, "txid": "fd7d5c1868598466e9f1844abeb8c73ceef4a8753bffa8e9d17be0ad6ac77ce9"}], "txid": "df833502ba148b9c2b7c42f13b8f52e78d3b5b78917de691bc57ce8dd0b58997", "blocktime": 1537870928, "version": 1, "confirmations": 11512, "time": 1537870928, "locktime": 0, "vsize": 168, "size": 250}