{"hash": "00df2bce7384e85627dc8f99dbd4b6d60e7727571107c1f605150828ce8c940b", "blockhash": "0000000000000000001f76057863aec43deb6fa401d9628bb513d65a8098bfab", "vout": [{"scriptPubKey": {"reqSigs": 1, "hex": "001447d9171e9ab22ec3463c0a2a60f689d188d80bab", "addresses": ["bc1qglv3w856kghvx33upg4xpa5f6xydszatvttae0"], "asm": "0 47d9171e9ab22ec3463c0a2a60f689d188d80bab", "type": "witness_v0_keyhash"}, "value": 0.00982412, "n": 0}, {"scriptPubKey": {"reqSigs": 1, "hex": "76a9146413f3b444600986f9b7a6e32772249c69dacc0d88ac", "addresses": ["1A8AUUGgh42ggTFNQxphVDdKk5tvdmjTwz"], "asm": "OP_DUP OP_HASH160 6413f3b444600986f9b7a6e32772249c69dacc0d OP_EQUALVERIFY OP_CHECKSIG", "type": "pubkeyhash"}, "value": 0.0181, "n": 1}], "hex": "01000000000101533e2ad2087e25b30a3335cffb0756e5a4fe555d9a7f78fa5ddd0e631ce111820900000017160014e7b2f9be02e98b1b125dc8b8edfbbf746a5d9936ffffffff028cfd0e000000000016001447d9171e9ab22ec3463c0a2a60f689d188d80bab509e1b00000000001976a9146413f3b444600986f9b7a6e32772249c69dacc0d88ac02473044022019c6dd5039472fc06ee42c59b58e2f89985ccae801905b5fc7bcb78bf88e695102204409658e5cce7c6e52d4df722edc4778b5819de4cfd42fe69d46f1b9693dd112012103314e5d61e600f5d272bcc3a5700fc9b11beefaa292f2ca00a8ee5e404d17241900000000", "vin": [{"txinwitness": ["3044022019c6dd5039472fc06ee42c59b58e2f89985ccae801905b5fc7bcb78bf88e695102204409658e5cce7c6e52d4df722edc4778b5819de4cfd42fe69d46f1b9693dd11201", "03314e5d61e600f5d272bcc3a5700fc9b11beefaa292f2ca00a8ee5e404d172419"], "sequence": 4294967295, "scriptSig": {"hex": "160014e7b2f9be02e98b1b125dc8b8edfbbf746a5d9936", "asm": "0014e7b2f9be02e98b1b125dc8b8edfbbf746a5d9936"}, "vout": 9, "txid": "8211e11c630edd5dfa787f9a5d55fea4e55607fbcf35330ab3257e08d22a3e53"}], "txid": "df869ce0807622703231a4074ba3e05cb59db4e8c414e80c4347d918e4542bee", "blocktime": 1537873891, "version": 1, "confirmations": 11478, "time": 1537873891, "locktime": 0, "vsize": 167, "size": 248}