{"hash": "df872711618da33cbc936b57fd4fb3a1454d9371f7a72cabbc1c1f172b1bee28", "blockhash": "0000000000000000000baef3f32e3676a92c3b2e5da21b426e4f302fc371ce76", "vout": [{"scriptPubKey": {"type": "nulldata", "hex": "6a4c500000782d0001d441b1e9d59bc691606cacc227b7256b4774d339f6019d6ddc0f1b8ff11799af0a8885b55c678f7e3453e4d972a95baa1f3d0613af1ad49593921d100759d4ba30d2c37bb011d97e02cf", "asm": "OP_RETURN 0000782d0001d441b1e9d59bc691606cacc227b7256b4774d339f6019d6ddc0f1b8ff11799af0a8885b55c678f7e3453e4d972a95baa1f3d0613af1ad49593921d100759d4ba30d2c37bb011d97e02cf"}, "value": 0.0, "n": 0}, {"scriptPubKey": {"reqSigs": 1, "hex": "76a91425e68603a5b35fe0bff8b2b0d85901409c6b670188ac", "addresses": ["14TQA9kPGrTVJYBKcpmbiZWBTRw5gXFX2y"], "asm": "OP_DUP OP_HASH160 25e68603a5b35fe0bff8b2b0d85901409c6b6701 OP_EQUALVERIFY OP_CHECKSIG", "type": "pubkeyhash"}, "value": 0.00627452, "n": 1}], "hex": "0100000001c88e88d31a388c10a51dd8b3fb9b3f9cd797530b74d775a27520f1aa115b6c86010000006b483045022100c9d798015142b174534c0e2be5752c1ef5b67a6336d228be72d683545bf08d7302203de3dd9b09ad206e47b7b5c98f14c6c11606cdcab795a1352789027f28976d24012102caaae3011cfca8e95dd0fe5d69f0354750eb3dd2a4d0d2daff571dbc4a14102fffffffff020000000000000000536a4c500000782d0001d441b1e9d59bc691606cacc227b7256b4774d339f6019d6ddc0f1b8ff11799af0a8885b55c678f7e3453e4d972a95baa1f3d0613af1ad49593921d100759d4ba30d2c37bb011d97e02cffc920900000000001976a91425e68603a5b35fe0bff8b2b0d85901409c6b670188ac00000000", "vin": [{"sequence": 4294967295, "scriptSig": {"hex": "483045022100c9d798015142b174534c0e2be5752c1ef5b67a6336d228be72d683545bf08d7302203de3dd9b09ad206e47b7b5c98f14c6c11606cdcab795a1352789027f28976d24012102caaae3011cfca8e95dd0fe5d69f0354750eb3dd2a4d0d2daff571dbc4a14102f", "asm": "3045022100c9d798015142b174534c0e2be5752c1ef5b67a6336d228be72d683545bf08d7302203de3dd9b09ad206e47b7b5c98f14c6c11606cdcab795a1352789027f28976d24[ALL] 02caaae3011cfca8e95dd0fe5d69f0354750eb3dd2a4d0d2daff571dbc4a14102f"}, "vout": 1, "txid": "866c5b11aaf12075a275d7740b5397d79c3f9bfbb3d81da5108c381ad3888ec8"}], "txid": "df872711618da33cbc936b57fd4fb3a1454d9371f7a72cabbc1c1f172b1bee28", "blocktime": 1537876114, "version": 1, "confirmations": 11460, "time": 1537876114, "locktime": 0, "vsize": 284, "size": 284}