{"hash": "f21943714b8a341512a9c3ea7aede9344021d65c9bacee61f27ef08f9ee66e15", "blockhash": "0000000000000000001f76057863aec43deb6fa401d9628bb513d65a8098bfab", "vout": [{"scriptPubKey": {"reqSigs": 1, "hex": "76a9145a62485b423da3c0eb6e623e3af9d2a1a5f2c64e88ac", "addresses": ["19EuZ4d6oGUSmLLw1258knMEAJH21eNW4U"], "asm": "OP_DUP OP_HASH160 5a62485b423da3c0eb6e623e3af9d2a1a5f2c64e OP_EQUALVERIFY OP_CHECKSIG", "type": "pubkeyhash"}, "value": 0.0004526, "n": 0}, {"scriptPubKey": {"reqSigs": 1, "hex": "a9146713ef520fa6305f914719a7bff80f4fc1d8e40987", "addresses": ["3B63QQ8ifVRDzdF9YWZHx3qhPfKJZQNgJt"], "asm": "OP_HASH160 6713ef520fa6305f914719a7bff80f4fc1d8e409 OP_EQUAL", "type": "scripthash"}, "value": 0.03740963, "n": 1}], "hex": "01000000000101053022f7737af2e6a9ed28287b5ec56bd9029fa46a4f569d49fea29992aed0c10100000023220020e9e0b3de653b496552279d7656c1adb6d015cc64167673ae5a957f0db7347f20ffffffff02ccb00000000000001976a9145a62485b423da3c0eb6e623e3af9d2a1a5f2c64e88ac231539000000000017a9146713ef520fa6305f914719a7bff80f4fc1d8e40987040047304402207ac8c255141a0b2dd04910ed43a8da3e52ff05c088a83e11c2313c2ee07c12fd02206ed0316def3820e5e19aa9b7cef8677195b24b431675f1c6f66f9f4688583ab5014830450221008c0e5acdc4cc156ee9d17beb47921363c9d7bd5c60d665799b1e1720242a399202203aee5348661550e9c44e70e5789188136cd6cac6407728f869b4171e5f4e51780147522102e2ad1067c8f71913d2ef0a2b07059646d1ac3ab8fb900dbe4fd18d1d088a12f021030580d373ab00643a581abb399b43fa66d7b6fc29624eb75b2d5ec8d99faa163f52ae00000000", "vin": [{"txinwitness": ["", "304402207ac8c255141a0b2dd04910ed43a8da3e52ff05c088a83e11c2313c2ee07c12fd02206ed0316def3820e5e19aa9b7cef8677195b24b431675f1c6f66f9f4688583ab501", "30450221008c0e5acdc4cc156ee9d17beb47921363c9d7bd5c60d665799b1e1720242a399202203aee5348661550e9c44e70e5789188136cd6cac6407728f869b4171e5f4e517801", "522102e2ad1067c8f71913d2ef0a2b07059646d1ac3ab8fb900dbe4fd18d1d088a12f021030580d373ab00643a581abb399b43fa66d7b6fc29624eb75b2d5ec8d99faa163f52ae"], "sequence": 4294967295, "scriptSig": {"hex": "220020e9e0b3de653b496552279d7656c1adb6d015cc64167673ae5a957f0db7347f20", "asm": "0020e9e0b3de653b496552279d7656c1adb6d015cc64167673ae5a957f0db7347f20"}, "vout": 1, "txid": "c1d0ae9299a2fe499d564f6aa49f02d96bc55e7b2828eda9e6f27a73f7223005"}], "txid": "df8e80d343d2e8f600593f554f4e4744b6b19bd5a4fc1e69ff517c9f82554001", "blocktime": 1537873891, "version": 1, "confirmations": 11478, "time": 1537873891, "locktime": 0, "vsize": 208, "size": 373}