{"hash": "df9a660b41c1c465ae82e5803ad86e2d354c6382bec2cf421d24f4751e7c30d8", "blockhash": "00000000000000000024a2167bbff67b0be802c0b01cdd79e6331c2be6459f87", "vout": [{"scriptPubKey": {"reqSigs": 1, "hex": "a91419d2d29699cbbaa90fdb326fc75a834660fe384587", "addresses": ["343ZNYvoC14qxMqTLkNpEyJPc6L1cZ8S66"], "asm": "OP_HASH160 19d2d29699cbbaa90fdb326fc75a834660fe3845 OP_EQUAL", "type": "scripthash"}, "value": 0.00063, "n": 0}, {"scriptPubKey": {"reqSigs": 1, "hex": "76a914685770f560813d706dce98e1cfdc559283e26f8788ac", "addresses": ["1AWi2UXHHUiyepXWvY9YQ1hN4UpmrJrQfD"], "asm": "OP_DUP OP_HASH160 685770f560813d706dce98e1cfdc559283e26f87 OP_EQUALVERIFY OP_CHECKSIG", "type": "pubkeyhash"}, "value": 0.00615422, "n": 1}], "hex": "0100000001c0d34bb42af315b0c37a3e531981bf6a3033e4391b77e2e40a6ecb6964cfae2e010000006b483045022100fcc7821fce4289642887f50d524b2e8311d21319147231ca27bbe18718df3eea022002ce0634a5e908e1c1d40c20834b2167ce599c5a2015d7b3cc8f6478c8f0fb880121038a7d6cce7c6cf3ae7278dad41ae5099b6e968da4f4b2272330fc3c07c56db223fdffffff0218f600000000000017a91419d2d29699cbbaa90fdb326fc75a834660fe384587fe630900000000001976a914685770f560813d706dce98e1cfdc559283e26f8788ac0c490800", "vin": [{"sequence": 4294967293, "scriptSig": {"hex": "483045022100fcc7821fce4289642887f50d524b2e8311d21319147231ca27bbe18718df3eea022002ce0634a5e908e1c1d40c20834b2167ce599c5a2015d7b3cc8f6478c8f0fb880121038a7d6cce7c6cf3ae7278dad41ae5099b6e968da4f4b2272330fc3c07c56db223", "asm": "3045022100fcc7821fce4289642887f50d524b2e8311d21319147231ca27bbe18718df3eea022002ce0634a5e908e1c1d40c20834b2167ce599c5a2015d7b3cc8f6478c8f0fb88[ALL] 038a7d6cce7c6cf3ae7278dad41ae5099b6e968da4f4b2272330fc3c07c56db223"}, "vout": 1, "txid": "2eaecf6469cb6e0ae4e2771b39e433306abf8119533e7ac3b015f32ab44bd3c0"}], "txid": "df9a660b41c1c465ae82e5803ad86e2d354c6382bec2cf421d24f4751e7c30d8", "blocktime": 1537870564, "version": 1, "confirmations": 11515, "time": 1537870564, "locktime": 542988, "vsize": 224, "size": 224}