{"hash": "df9bfa1714c86537d4281dbc18524932f5c6441e63b268265c742e54c6a93b83", "blockhash": "00000000000000000004ffacab907a6b429b9a5745fa0b75af4234bf69dd7176", "vout": [{"scriptPubKey": {"reqSigs": 1, "hex": "76a914d243e6abb9a60fbff430b421d2df4b7d59ec186088ac", "addresses": ["1LAnF8h3qMGx3TSwNUHVneBZUEpwE4gu3D"], "asm": "OP_DUP OP_HASH160 d243e6abb9a60fbff430b421d2df4b7d59ec1860 OP_EQUALVERIFY OP_CHECKSIG", "type": "pubkeyhash"}, "value": 0.00077314, "n": 0}, {"scriptPubKey": {"reqSigs": 1, "hex": "76a914dd5a78395cd35c5faa34e22332ec8c92a935cb7f88ac", "addresses": ["1MBQiLPYUrzhDGdF1cLcK7n5osEdXgUUJD"], "asm": "OP_DUP OP_HASH160 dd5a78395cd35c5faa34e22332ec8c92a935cb7f OP_EQUALVERIFY OP_CHECKSIG", "type": "pubkeyhash"}, "value": 5.46e-06, "n": 1}, {"scriptPubKey": {"type": "nulldata", "hex": "6a146f6d6e69000000000000001f00000032b84fead0", "asm": "OP_RETURN 6f6d6e69000000000000001f00000032b84fead0"}, "value": 0.0, "n": 2}], "hex": "01000000016f6de96b9ac404d01bf5dbaf10a1003a53d397eee12f67deb6d2152ff5f05bd4000000006b48304502210088e637328390d25fc22c2fe73ec046a96096814056200bee3ce16959dafeccdd022044b19a5b56964197d1976301ca5c3d2ed3d2df46aa97f9b9b488e7cf846d451701210271977291b74f1f5f5c42157e8aae804664eaaeccfd097918450d37f28fb94d77ffffffff03022e0100000000001976a914d243e6abb9a60fbff430b421d2df4b7d59ec186088ac22020000000000001976a914dd5a78395cd35c5faa34e22332ec8c92a935cb7f88ac0000000000000000166a146f6d6e69000000000000001f00000032b84fead000000000", "vin": [{"sequence": 4294967295, "scriptSig": {"hex": "48304502210088e637328390d25fc22c2fe73ec046a96096814056200bee3ce16959dafeccdd022044b19a5b56964197d1976301ca5c3d2ed3d2df46aa97f9b9b488e7cf846d451701210271977291b74f1f5f5c42157e8aae804664eaaeccfd097918450d37f28fb94d77", "asm": "304502210088e637328390d25fc22c2fe73ec046a96096814056200bee3ce16959dafeccdd022044b19a5b56964197d1976301ca5c3d2ed3d2df46aa97f9b9b488e7cf846d4517[ALL] 0271977291b74f1f5f5c42157e8aae804664eaaeccfd097918450d37f28fb94d77"}, "vout": 0, "txid": "d45bf0f52f15d2b6de672fe1ee97d3533a00a110afdbf51bd004c49a6be96d6f"}], "txid": "df9bfa1714c86537d4281dbc18524932f5c6441e63b268265c742e54c6a93b83", "blocktime": 1537875543, "version": 1, "confirmations": 11464, "time": 1537875543, "locktime": 0, "vsize": 257, "size": 257}