{"hash": "df9cc27fbdf260a21c1b9c3889450e410f3a07cfe288aece7fb99a2811e6463a", "blockhash": "0000000000000000000dcc0f55137456b1a82d3642486a52398922ac4d620174", "vout": [{"scriptPubKey": {"reqSigs": 1, "hex": "76a9148da30dd452243c4e3b6cbce5b563cedafc8208ac88ac", "addresses": ["1DuucEve4zaq5LkUT32KrSAXkFtjiVvXjV"], "asm": "OP_DUP OP_HASH160 8da30dd452243c4e3b6cbce5b563cedafc8208ac OP_EQUALVERIFY OP_CHECKSIG", "type": "pubkeyhash"}, "value": 0.05700362, "n": 0}, {"scriptPubKey": {"reqSigs": 1, "hex": "76a914d27d1bf4f3206c0d16ed3f848878efd76cf998d788ac", "addresses": ["1LBxn2RDtTXyu8dW4X2P1vs28tBBHMPAss"], "asm": "OP_DUP OP_HASH160 d27d1bf4f3206c0d16ed3f848878efd76cf998d7 OP_EQUALVERIFY OP_CHECKSIG", "type": "pubkeyhash"}, "value": 0.0092, "n": 1}], "hex": "0100000001f37d429dbede5fabf0bd5af8d2ba21a5bbcc9965f3ea4ac30737b53432572ef5010000006b483045022100de1761d47bc8bc1424e7252a988bcc9c27161a81d2a0802e876911ee3954cd7c02204ad9897d386bcf23390527ae45833c10453d38fcfdf3afa692c97853257398c6012102064e8a5cd543b6742940c17ef326cee86fa8a3495ae9ec7be7362b1a38b02779ffffffff020afb5600000000001976a9148da30dd452243c4e3b6cbce5b563cedafc8208ac88acc0090e00000000001976a914d27d1bf4f3206c0d16ed3f848878efd76cf998d788ac00000000", "vin": [{"sequence": 4294967295, "scriptSig": {"hex": "483045022100de1761d47bc8bc1424e7252a988bcc9c27161a81d2a0802e876911ee3954cd7c02204ad9897d386bcf23390527ae45833c10453d38fcfdf3afa692c97853257398c6012102064e8a5cd543b6742940c17ef326cee86fa8a3495ae9ec7be7362b1a38b02779", "asm": "3045022100de1761d47bc8bc1424e7252a988bcc9c27161a81d2a0802e876911ee3954cd7c02204ad9897d386bcf23390527ae45833c10453d38fcfdf3afa692c97853257398c6[ALL] 02064e8a5cd543b6742940c17ef326cee86fa8a3495ae9ec7be7362b1a38b02779"}, "vout": 1, "txid": "f52e573234b53707c34aeaf36599ccbba521bad2f85abdf0ab5fdebe9d427df3"}], "txid": "df9cc27fbdf260a21c1b9c3889450e410f3a07cfe288aece7fb99a2811e6463a", "blocktime": 1537870268, "version": 1, "confirmations": 11516, "time": 1537870268, "locktime": 0, "vsize": 226, "size": 226}