{"hash": "df9ca35339a368ae5d819f26518577b530ef2dba0e35dd9ae1b7118aff10c73c", "blockhash": "0000000000000000001f76057863aec43deb6fa401d9628bb513d65a8098bfab", "vout": [{"scriptPubKey": {"reqSigs": 1, "hex": "76a914e2b1af741fc719aab759311a04da9c84a54d8eff88ac", "addresses": ["1Mfea9fJdhjuPndDjdvdZXuNgY9k6dwRaG"], "asm": "OP_DUP OP_HASH160 e2b1af741fc719aab759311a04da9c84a54d8eff OP_EQUALVERIFY OP_CHECKSIG", "type": "pubkeyhash"}, "value": 9.972e-05, "n": 0}, {"scriptPubKey": {"reqSigs": 1, "hex": "76a914167d8492d6a9bf465acd2bfcd28410324950de8988ac", "addresses": ["133vEMZQfUfmfk3FYebZpdrm8LUZCmAvb1"], "asm": "OP_DUP OP_HASH160 167d8492d6a9bf465acd2bfcd28410324950de89 OP_EQUALVERIFY OP_CHECKSIG", "type": "pubkeyhash"}, "value": 0.00782407, "n": 1}], "hex": "01000000015d8ac1a09c3036fe96859430b656c3d60171a521061cdf766bad092a78c0aab0000000006b4830450221009e83ee64aba597b5d35b2bb3379f0d29705a51204ebf8bfdafc99c6a82ed5937022030c10159528b322822b575616b531ef1601c4073c669fd6a0b55fd752252fc860121031fc75e41b7f201abf02c603e208525555c7cad467a2565ba5507ed51003167caffffffff02f4260000000000001976a914e2b1af741fc719aab759311a04da9c84a54d8eff88ac47f00b00000000001976a914167d8492d6a9bf465acd2bfcd28410324950de8988ac00000000", "vin": [{"sequence": 4294967295, "scriptSig": {"hex": "4830450221009e83ee64aba597b5d35b2bb3379f0d29705a51204ebf8bfdafc99c6a82ed5937022030c10159528b322822b575616b531ef1601c4073c669fd6a0b55fd752252fc860121031fc75e41b7f201abf02c603e208525555c7cad467a2565ba5507ed51003167ca", "asm": "30450221009e83ee64aba597b5d35b2bb3379f0d29705a51204ebf8bfdafc99c6a82ed5937022030c10159528b322822b575616b531ef1601c4073c669fd6a0b55fd752252fc86[ALL] 031fc75e41b7f201abf02c603e208525555c7cad467a2565ba5507ed51003167ca"}, "vout": 0, "txid": "b0aac0782a09ad6b76df1c0621a57101d6c356b630948596fe36309ca0c18a5d"}], "txid": "df9ca35339a368ae5d819f26518577b530ef2dba0e35dd9ae1b7118aff10c73c", "blocktime": 1537873891, "version": 1, "confirmations": 11478, "time": 1537873891, "locktime": 0, "vsize": 226, "size": 226}