{"hash": "dfa47b4ecbdc1fd071c1523aa0e72d3baa6618b60c92fdaf6cb305e911163447", "blockhash": "0000000000000000001e0dab787dd257d1dbfcb92a98c2207d5e1078be1f4165", "vout": [{"scriptPubKey": {"reqSigs": 1, "hex": "76a914b632faa4f08c87263d656d032ae71d94f0729a4588ac", "addresses": ["1HcP416bDNu72GRCzbF7vZ5sx9oZEBtAaq"], "asm": "OP_DUP OP_HASH160 b632faa4f08c87263d656d032ae71d94f0729a45 OP_EQUALVERIFY OP_CHECKSIG", "type": "pubkeyhash"}, "value": 0.17265479, "n": 0}, {"scriptPubKey": {"reqSigs": 1, "hex": "76a9147d4006de9530514bb83d64bc2bbc56f55f56698488ac", "addresses": ["1CRGAeC2QwxsXviWN4KrMck3jvxefA4N76"], "asm": "OP_DUP OP_HASH160 7d4006de9530514bb83d64bc2bbc56f55f566984 OP_EQUALVERIFY OP_CHECKSIG", "type": "pubkeyhash"}, "value": 0.23433948, "n": 1}], "hex": "0100000001a2ba65bcc8744cf7795caf4b0a881a05e242cd261853f73730814a53fc4053dd040000006b483045022100959ee48731617b877bb327b0dca1b20fc5cc1de4b83d57a911862144bf6a564c0220311f31101b7d36fa316d8928160a1030f042d7a3b0f1320bcf981e83a4ddc07a012103b06281e097578fd48a5ffaeed7904875f12330723050ebb81afe69b171e2192effffffff0247730701000000001976a914b632faa4f08c87263d656d032ae71d94f0729a4588acdc926501000000001976a9147d4006de9530514bb83d64bc2bbc56f55f56698488ac00000000", "vin": [{"sequence": 4294967295, "scriptSig": {"hex": "483045022100959ee48731617b877bb327b0dca1b20fc5cc1de4b83d57a911862144bf6a564c0220311f31101b7d36fa316d8928160a1030f042d7a3b0f1320bcf981e83a4ddc07a012103b06281e097578fd48a5ffaeed7904875f12330723050ebb81afe69b171e2192e", "asm": "3045022100959ee48731617b877bb327b0dca1b20fc5cc1de4b83d57a911862144bf6a564c0220311f31101b7d36fa316d8928160a1030f042d7a3b0f1320bcf981e83a4ddc07a[ALL] 03b06281e097578fd48a5ffaeed7904875f12330723050ebb81afe69b171e2192e"}, "vout": 4, "txid": "dd5340fc534a813037f7531826cd42e2051a880a4baf5c79f74c74c8bc65baa2"}], "txid": "dfa47b4ecbdc1fd071c1523aa0e72d3baa6618b60c92fdaf6cb305e911163447", "blocktime": 1537872475, "version": 1, "confirmations": 11487, "time": 1537872475, "locktime": 0, "vsize": 226, "size": 226}