{"hash": "dfa5e03c0eebc9c154f1a6795715e8f82fae51a4611a89cb3dcd80bb5e3f70d6", "blockhash": "0000000000000000001cda96e906b7601b7a6fb1a3b62bca570a9e5d8f4b3de1", "vout": [{"scriptPubKey": {"reqSigs": 1, "hex": "a9142e1fe0abcfda05409ffaaff177ecbdb736e8a05987", "addresses": ["35tuCGG8T5C62wZEA3gqVKMozoUhK74zea"], "asm": "OP_HASH160 2e1fe0abcfda05409ffaaff177ecbdb736e8a059 OP_EQUAL", "type": "scripthash"}, "value": 0.01601333, "n": 0}, {"scriptPubKey": {"reqSigs": 1, "hex": "76a9147da1fae0481b038e2f4fa9f0bcef5b71e5a7910e88ac", "addresses": ["1CTHWYdtoyA67sjr387ZwHznepjfF5AgAa"], "asm": "OP_DUP OP_HASH160 7da1fae0481b038e2f4fa9f0bcef5b71e5a7910e OP_EQUALVERIFY OP_CHECKSIG", "type": "pubkeyhash"}, "value": 0.00897513, "n": 1}], "hex": "0200000003f0e801787c966206d160501f333261b93a1d854ec3b5e8cbd2fb7fc473429d1a000000006a473044022022e2c6cc3506e95474281932aab91d1da6af30720b36176ab2ba8e8e6a3a5d86022043aa9426d891289ecfdf3fc822902e68525ed60a35d2a37776092095c6157403012102881f828bd04b12374f1d3faa26357595e590d499a1217feda42904b745694b71feffffffc0ffe871618f097d6ab6a25e524768eda604752123a3d4d5c350203265c05169210000006a4730440220387c9a51eddd645481866e7b965771901a83beac283310abcdd8cb4b5f22e145022078c30cf503efa141eaeea4aea566cf10314780e053db07a30ab94353561f6bad01210248b9f134dea01062a013274bfbf0b6625abc8551ef0b025eeade6c2b50e61644feffffff212cc3509a52ef64e708ba43680be7c6e247e08841fea424eae9ff9b1dcfecee000000006a47304402206053b989937281d4c406daa5d5a4f41b1970bccaa536f210d26994f82a536deb02203f955a40c8ec0c0cc27257ef62cdcee935016e221561e19093ee8a281798bede01210392d18c58918f3bf99a6e0c61be907f54aed6f35fc9a41998aa59cdfaab5c3f78feffffff02356f18000000000017a9142e1fe0abcfda05409ffaaff177ecbdb736e8a05987e9b10d00000000001976a9147da1fae0481b038e2f4fa9f0bcef5b71e5a7910e88ac13490800", "vin": [{"sequence": 4294967294, "scriptSig": {"hex": "473044022022e2c6cc3506e95474281932aab91d1da6af30720b36176ab2ba8e8e6a3a5d86022043aa9426d891289ecfdf3fc822902e68525ed60a35d2a37776092095c6157403012102881f828bd04b12374f1d3faa26357595e590d499a1217feda42904b745694b71", "asm": "3044022022e2c6cc3506e95474281932aab91d1da6af30720b36176ab2ba8e8e6a3a5d86022043aa9426d891289ecfdf3fc822902e68525ed60a35d2a37776092095c6157403[ALL] 02881f828bd04b12374f1d3faa26357595e590d499a1217feda42904b745694b71"}, "vout": 0, "txid": "1a9d4273c47ffbd2cbe8b5c34e851d3ab96132331f5060d10662967c7801e8f0"}, {"sequence": 4294967294, "scriptSig": {"hex": "4730440220387c9a51eddd645481866e7b965771901a83beac283310abcdd8cb4b5f22e145022078c30cf503efa141eaeea4aea566cf10314780e053db07a30ab94353561f6bad01210248b9f134dea01062a013274bfbf0b6625abc8551ef0b025eeade6c2b50e61644", "asm": "30440220387c9a51eddd645481866e7b965771901a83beac283310abcdd8cb4b5f22e145022078c30cf503efa141eaeea4aea566cf10314780e053db07a30ab94353561f6bad[ALL] 0248b9f134dea01062a013274bfbf0b6625abc8551ef0b025eeade6c2b50e61644"}, "vout": 33, "txid": "6951c065322050c3d5d4a323217504a6ed6847525ea2b66a7d098f6171e8ffc0"}, {"sequence": 4294967294, "scriptSig": {"hex": "47304402206053b989937281d4c406daa5d5a4f41b1970bccaa536f210d26994f82a536deb02203f955a40c8ec0c0cc27257ef62cdcee935016e221561e19093ee8a281798bede01210392d18c58918f3bf99a6e0c61be907f54aed6f35fc9a41998aa59cdfaab5c3f78", "asm": "304402206053b989937281d4c406daa5d5a4f41b1970bccaa536f210d26994f82a536deb02203f955a40c8ec0c0cc27257ef62cdcee935016e221561e19093ee8a281798bede[ALL] 0392d18c58918f3bf99a6e0c61be907f54aed6f35fc9a41998aa59cdfaab5c3f78"}, "vout": 0, "txid": "eeeccf1d9bffe9ea24a4fe4188e047e2c6e70b6843ba08e764ef529a50c32c21"}], "txid": "dfa5e03c0eebc9c154f1a6795715e8f82fae51a4611a89cb3dcd80bb5e3f70d6", "blocktime": 1537873282, "version": 2, "confirmations": 11480, "time": 1537873282, "locktime": 542995, "vsize": 517, "size": 517}