{"hash": "5a81d1435ba848d16eb3007234c5fee5421ca4ed63a38ddf9fe2c87649488f06", "blockhash": "0000000000000000001cda96e906b7601b7a6fb1a3b62bca570a9e5d8f4b3de1", "vout": [{"scriptPubKey": {"reqSigs": 1, "hex": "a91469f3740bd538c55648861cee0d87f8f0ba45933687", "addresses": ["3BMEX7om8YhdcK6FbNZxJmNQ3ybu9WUBnP"], "asm": "OP_HASH160 69f3740bd538c55648861cee0d87f8f0ba459336 OP_EQUAL", "type": "scripthash"}, "value": 0.01367795, "n": 0}, {"scriptPubKey": {"reqSigs": 1, "hex": "a914067c6e3c0ed20d9b6dbd7c5fade108952fbb2d6b87", "addresses": ["32HK3HTruWRfxztwbPrBDBtYya6SCEDrKD"], "asm": "OP_HASH160 067c6e3c0ed20d9b6dbd7c5fade108952fbb2d6b OP_EQUAL", "type": "scripthash"}, "value": 31.43741446, "n": 1}], "hex": "020000000001018597e2fab3fad3ab21249732b3b21630a1cda87795785e764c81eab66ba1e4060100000017160014cee4b3ef100b63c333ee17825ab180a57b425ccbfeffffff02f3de14000000000017a91469f3740bd538c55648861cee0d87f8f0ba4593368706b061bb0000000017a914067c6e3c0ed20d9b6dbd7c5fade108952fbb2d6b870247304402207e7373755a4be29e799ef4a67ea76090218b67e2d6e3b3e76b84a50d7f61746602205eef12ed7c58f1c11f3af06cea782d9ee273dcd46ce2a4bfa476ddf14e891ecc0121039aa6ea925cf6b6c0c90bd92a9e89aea49db7986bb60dabc2e3be95b1426e281513490800", "vin": [{"txinwitness": ["304402207e7373755a4be29e799ef4a67ea76090218b67e2d6e3b3e76b84a50d7f61746602205eef12ed7c58f1c11f3af06cea782d9ee273dcd46ce2a4bfa476ddf14e891ecc01", "039aa6ea925cf6b6c0c90bd92a9e89aea49db7986bb60dabc2e3be95b1426e2815"], "sequence": 4294967294, "scriptSig": {"hex": "160014cee4b3ef100b63c333ee17825ab180a57b425ccb", "asm": "0014cee4b3ef100b63c333ee17825ab180a57b425ccb"}, "vout": 1, "txid": "06e4a16bb6ea814c765e789577a8cda13016b2b332972421abd3fab3fae29785"}], "txid": "dfa8e2c07e7550c40f006dabb2c3109ce52e2015f46b9283c5a583428bf3f4ee", "blocktime": 1537873282, "version": 2, "confirmations": 11480, "time": 1537873282, "locktime": 542995, "vsize": 166, "size": 247}