{"hash": "ef1597c1d441cfe15d9a3b38f4a33610326cc2751959219fb5f2aa5a2204d3c1", "blockhash": "00000000000000000004ffacab907a6b429b9a5745fa0b75af4234bf69dd7176", "vout": [{"scriptPubKey": {"reqSigs": 1, "hex": "76a9140074cdff3882596d5856bbf56084342d68f981b588ac", "addresses": ["113QvjQZ87eecYUziVWwWCw9xm5gsZqieu"], "asm": "OP_DUP OP_HASH160 0074cdff3882596d5856bbf56084342d68f981b5 OP_EQUALVERIFY OP_CHECKSIG", "type": "pubkeyhash"}, "value": 0.01293448, "n": 0}, {"scriptPubKey": {"reqSigs": 1, "hex": "76a91474e00e071422db21128ad59a27720a46f1e7951388ac", "addresses": ["1BeynrSc7kTtEani6D8Ad17iJquqspduH2"], "asm": "OP_DUP OP_HASH160 74e00e071422db21128ad59a27720a46f1e79513 OP_EQUALVERIFY OP_CHECKSIG", "type": "pubkeyhash"}, "value": 0.3251907, "n": 1}], "hex": "020000000001042a4431ee3d30e3e3495edaa39bb635b29e151b28a6306c5e9f38ea64f204f1210000000017160014f370905465c9d1dabc5566515e8174a333504e1afeffffff3abfcf009dcf6e321e727f4f729f475e3ab486bdd999fc6a8ff8ef6c78e8aeae00000000171600146a7ac0eced780f3de21f881e3a069fb58eb71e51feffffff7560a555215d6f715d1b1784210dd8a9c84d49adc042dc077b5ff0d5e7fe3e86000000001716001422e70e9896a168334f5b34dff13be484e529767bfeffffffb7f453628250b2415e67751ac7e9a79ef13c3e2bc494f9b32932b4f8edf86ea2000000006a473044022010521af8b2b0dc463743ae344042f495d8580d07b5056bf6b2ef0350521513920220552f0f6107cc06f48681336d698365761823ebb5e7fe0fa96e299109a89b580c01210343eb6fa8bc2cfbe4509e799541a1861d2b7d36da66cb4c4f5ccd6a20f60bdfb0feffffff0288bc1300000000001976a9140074cdff3882596d5856bbf56084342d68f981b588ac9e33f001000000001976a91474e00e071422db21128ad59a27720a46f1e7951388ac02463043021f7954fb34fc592a3510bc565c0162c59329b8da220690883806cb5eafa4808b02206dbdb04347548245692c514b42f385b23e1be8482062369368be420af08524380121025a485932be02107d405e2d8cbbf024ea27bba5e865b4e04c8b101123587aab730247304402207e15f3aa6bd2e140bba0bc19fba868a6ba2ec44ab7c7dedd43f5f68118ae3dfc02206a19c0e9d60439a17ecd084c83e266dd0e2837275e09791494e2edfd61f1da14012102059532dbc0e8d2a0736ccb1aa8ed1d319832277840d592e102fe5b0986c27720024830450221008011e0672ed6639968bb5b5bb0c653d76128b165744e8d4b20abc35c39419576022046916190c4ca3c8212f1e4f4d320189a1133ce42cf0616bbfe2c1dff43ac85f0012102f4407e4a42735903aedfc1436b2a10bdec8c647e40a015131c654bc7cf856fc80016490800", "vin": [{"txinwitness": ["3043021f7954fb34fc592a3510bc565c0162c59329b8da220690883806cb5eafa4808b02206dbdb04347548245692c514b42f385b23e1be8482062369368be420af085243801", "025a485932be02107d405e2d8cbbf024ea27bba5e865b4e04c8b101123587aab73"], "sequence": 4294967294, "scriptSig": {"hex": "160014f370905465c9d1dabc5566515e8174a333504e1a", "asm": "0014f370905465c9d1dabc5566515e8174a333504e1a"}, "vout": 0, "txid": "21f104f264ea389f5e6c30a6281b159eb235b69ba3da5e49e3e3303dee31442a"}, {"txinwitness": ["304402207e15f3aa6bd2e140bba0bc19fba868a6ba2ec44ab7c7dedd43f5f68118ae3dfc02206a19c0e9d60439a17ecd084c83e266dd0e2837275e09791494e2edfd61f1da1401", "02059532dbc0e8d2a0736ccb1aa8ed1d319832277840d592e102fe5b0986c27720"], "sequence": 4294967294, "scriptSig": {"hex": "1600146a7ac0eced780f3de21f881e3a069fb58eb71e51", "asm": "00146a7ac0eced780f3de21f881e3a069fb58eb71e51"}, "vout": 0, "txid": "aeaee8786ceff88f6afc99d9bd86b43a5e479f724f7f721e326ecf9d00cfbf3a"}, {"txinwitness": ["30450221008011e0672ed6639968bb5b5bb0c653d76128b165744e8d4b20abc35c39419576022046916190c4ca3c8212f1e4f4d320189a1133ce42cf0616bbfe2c1dff43ac85f001", "02f4407e4a42735903aedfc1436b2a10bdec8c647e40a015131c654bc7cf856fc8"], "sequence": 4294967294, "scriptSig": {"hex": "16001422e70e9896a168334f5b34dff13be484e529767b", "asm": "001422e70e9896a168334f5b34dff13be484e529767b"}, "vout": 0, "txid": "863efee7d5f05f7b07dc42c0ad494dc8a9d80d2184171b5d716f5d2155a56075"}, {"sequence": 4294967294, "scriptSig": {"hex": "473044022010521af8b2b0dc463743ae344042f495d8580d07b5056bf6b2ef0350521513920220552f0f6107cc06f48681336d698365761823ebb5e7fe0fa96e299109a89b580c01210343eb6fa8bc2cfbe4509e799541a1861d2b7d36da66cb4c4f5ccd6a20f60bdfb0", "asm": "3044022010521af8b2b0dc463743ae344042f495d8580d07b5056bf6b2ef0350521513920220552f0f6107cc06f48681336d698365761823ebb5e7fe0fa96e299109a89b580c[ALL] 0343eb6fa8bc2cfbe4509e799541a1861d2b7d36da66cb4c4f5ccd6a20f60bdfb0"}, "vout": 0, "txid": "a26ef8edf8b43229b3f994c42b3e3cf19ea7e9c71a75675e41b250826253f4b7"}], "txid": "dfa8fbe7ab7b85dfb5cbd68a1fc6f1c75037174d130f4aa415969ce278a326f4", "blocktime": 1537875543, "version": 2, "confirmations": 11464, "time": 1537875543, "locktime": 542998, "vsize": 498, "size": 741}