{"hash": "dfac4c578e17d82457b78438bd5acf084a22ac21f7f929f842a0bc5feeefcc49", "blockhash": "0000000000000000001f76057863aec43deb6fa401d9628bb513d65a8098bfab", "vout": [{"scriptPubKey": {"type": "nulldata", "hex": "6a4c50000077e00001b15f0a0b270be8f1c94f23bb7af8e8e963c7cfd5b95b23cc0f42c2fc38c5da02c0d93ca171c0d941a9a1deb0e2735baa169c0612408b743db2c74bbf23acfcfaac8058b692fe6808c31d", "asm": "OP_RETURN 000077e00001b15f0a0b270be8f1c94f23bb7af8e8e963c7cfd5b95b23cc0f42c2fc38c5da02c0d93ca171c0d941a9a1deb0e2735baa169c0612408b743db2c74bbf23acfcfaac8058b692fe6808c31d"}, "value": 0.0, "n": 0}, {"scriptPubKey": {"reqSigs": 1, "hex": "76a9148439475755c908fe2c7379fbc3a46127db8ac56688ac", "addresses": ["1D48p7btm1qw9bcdy8xHmzT966dvc9UPQs"], "asm": "OP_DUP OP_HASH160 8439475755c908fe2c7379fbc3a46127db8ac566 OP_EQUALVERIFY OP_CHECKSIG", "type": "pubkeyhash"}, "value": 7.575e-05, "n": 1}], "hex": "0100000001130035771acc33d57bedb4d183054f69099eafe9e3c36684925cddf048ebf730010000006a47304402207f9b48c84d334dfdd747de3fdf3e6a377694eb45412f1695f7cd3b4abfef52da02206b85834cef5abf16705effd5315b0c06b35266ed2e76937ad014d5344c92165f012103335827b050628a6c39861fc5c41ab5e5225af225decd7b8fece92a3a96f8ec01ffffffff020000000000000000536a4c50000077e00001b15f0a0b270be8f1c94f23bb7af8e8e963c7cfd5b95b23cc0f42c2fc38c5da02c0d93ca171c0d941a9a1deb0e2735baa169c0612408b743db2c74bbf23acfcfaac8058b692fe6808c31d971d0000000000001976a9148439475755c908fe2c7379fbc3a46127db8ac56688ac00000000", "vin": [{"sequence": 4294967295, "scriptSig": {"hex": "47304402207f9b48c84d334dfdd747de3fdf3e6a377694eb45412f1695f7cd3b4abfef52da02206b85834cef5abf16705effd5315b0c06b35266ed2e76937ad014d5344c92165f012103335827b050628a6c39861fc5c41ab5e5225af225decd7b8fece92a3a96f8ec01", "asm": "304402207f9b48c84d334dfdd747de3fdf3e6a377694eb45412f1695f7cd3b4abfef52da02206b85834cef5abf16705effd5315b0c06b35266ed2e76937ad014d5344c92165f[ALL] 03335827b050628a6c39861fc5c41ab5e5225af225decd7b8fece92a3a96f8ec01"}, "vout": 1, "txid": "30f7eb48f0dd5c928466c3e3e9af9e09694f0583d1b4ed7bd533cc1a77350013"}], "txid": "dfac4c578e17d82457b78438bd5acf084a22ac21f7f929f842a0bc5feeefcc49", "blocktime": 1537873891, "version": 1, "confirmations": 11478, "time": 1537873891, "locktime": 0, "vsize": 283, "size": 283}