{"hash": "dfb003be0f70555bc0ee12569ed3da06ae60499f6042385045386349f4907d45", "blockhash": "000000000000000000022b45ed06c6f4ccd3cf7fb5ba4856ebd2e58215665228", "vout": [{"scriptPubKey": {"reqSigs": 1, "hex": "a91418fe0ac40fd53b7bacd362751ed7f9bac261376787", "addresses": ["33yAUJJGTFcDnBPXGKPREyGwGEoTeTSCpJ"], "asm": "OP_HASH160 18fe0ac40fd53b7bacd362751ed7f9bac2613767 OP_EQUAL", "type": "scripthash"}, "value": 0.00936, "n": 0}, {"scriptPubKey": {"reqSigs": 1, "hex": "76a9149136c295de79b908b767875500b784f1b591a4b688ac", "addresses": ["1EEpacbsX2HWHpoNGXPfMUjFMYLmyryzdk"], "asm": "OP_DUP OP_HASH160 9136c295de79b908b767875500b784f1b591a4b6 OP_EQUALVERIFY OP_CHECKSIG", "type": "pubkeyhash"}, "value": 0.018473, "n": 1}], "hex": "010000000253ae7dc4a6ae477084f164fdf1f55f09cab251a84796131a0c8cd59c3234c2e9000000006a473044022031e961f2077993bbd3e3ff760c9980588f7a795a70e194af4ecee50bd8ecd61d02205801e773de086e5cdf6b19974c77911cc4c92b13b93dd75c376e18689ee2aaf2012103d29c6c909c6b278f4bcf4c37e2681cfdfca2292bf6af14ddfcafc184c6d002e4ffffffff7a275507fcceb236f2f1e84a6986260dba4413003ed12de944a00f3452a09f7c010000006b4830450221008caee547daad484e6aeea5922151bcab5f1527424c829581e68888a6665a03e302205cf36995d1feefdb863aa7b161361ea2f0209806b184881b7f13a0def5f8026301210292fa3db4c36b999a8c647160f799681c2453b0eec2891f06a24383210a60074effffffff0240480e000000000017a91418fe0ac40fd53b7bacd362751ed7f9bac26137678704301c00000000001976a9149136c295de79b908b767875500b784f1b591a4b688ac00000000", "vin": [{"sequence": 4294967295, "scriptSig": {"hex": "473044022031e961f2077993bbd3e3ff760c9980588f7a795a70e194af4ecee50bd8ecd61d02205801e773de086e5cdf6b19974c77911cc4c92b13b93dd75c376e18689ee2aaf2012103d29c6c909c6b278f4bcf4c37e2681cfdfca2292bf6af14ddfcafc184c6d002e4", "asm": "3044022031e961f2077993bbd3e3ff760c9980588f7a795a70e194af4ecee50bd8ecd61d02205801e773de086e5cdf6b19974c77911cc4c92b13b93dd75c376e18689ee2aaf2[ALL] 03d29c6c909c6b278f4bcf4c37e2681cfdfca2292bf6af14ddfcafc184c6d002e4"}, "vout": 0, "txid": "e9c234329cd58c0c1a139647a851b2ca095ff5f1fd64f1847047aea6c47dae53"}, {"sequence": 4294967295, "scriptSig": {"hex": "4830450221008caee547daad484e6aeea5922151bcab5f1527424c829581e68888a6665a03e302205cf36995d1feefdb863aa7b161361ea2f0209806b184881b7f13a0def5f8026301210292fa3db4c36b999a8c647160f799681c2453b0eec2891f06a24383210a60074e", "asm": "30450221008caee547daad484e6aeea5922151bcab5f1527424c829581e68888a6665a03e302205cf36995d1feefdb863aa7b161361ea2f0209806b184881b7f13a0def5f80263[ALL] 0292fa3db4c36b999a8c647160f799681c2453b0eec2891f06a24383210a60074e"}, "vout": 1, "txid": "7c9fa052340fa044e92dd13e001344ba0d2686694ae8f1f236b2cefc0755277a"}], "txid": "dfb003be0f70555bc0ee12569ed3da06ae60499f6042385045386349f4907d45", "blocktime": 1537869901, "version": 1, "confirmations": 11524, "time": 1537869901, "locktime": 0, "vsize": 371, "size": 371}