{"hash": "6f1085af2ac758632b1eae15a766b8b660d209d9f0dfaf61143aa30004cbdba9", "blockhash": "0000000000000000001e0dab787dd257d1dbfcb92a98c2207d5e1078be1f4165", "vout": [{"scriptPubKey": {"reqSigs": 1, "hex": "a914562f56e223bb875f20491e1beb3980f1f93d610087", "addresses": ["39YikEqzq9Z9D9zPbSia4DqadVTpxVVnHe"], "asm": "OP_HASH160 562f56e223bb875f20491e1beb3980f1f93d6100 OP_EQUAL", "type": "scripthash"}, "value": 0.012, "n": 0}, {"scriptPubKey": {"reqSigs": 1, "hex": "a914ef0bfb252a202c13c51c60561df34708811cc87887", "addresses": ["3PUymr9ZJa5MWVzQgr43ANn563PFN4BPFf"], "asm": "OP_HASH160 ef0bfb252a202c13c51c60561df34708811cc878 OP_EQUAL", "type": "scripthash"}, "value": 0.23174604, "n": 1}], "hex": "02000000000101912a11417f24c2c0649b8f01faa9055f462ac025049dbe43c0c63aacfc9e692f00000000171600142d75057ad602d7260bed66a6fcb49dec35739f2cfdffffff02804f12000000000017a914562f56e223bb875f20491e1beb3980f1f93d610087cc9d61010000000017a914ef0bfb252a202c13c51c60561df34708811cc878870247304402205e0225c71f430dab745ca68b14739a76aa177507e70c6d8eecada9e1311d311a0220295879a93605893f90f7aeebc7f1fcb5fa60d9948ca24abf7d87ebe6b35df79f012102f1ffb9b01a01e7c68c6711eba05ebf4ac39741e54e3cabdcbc15c93f7907b50712490800", "vin": [{"txinwitness": ["304402205e0225c71f430dab745ca68b14739a76aa177507e70c6d8eecada9e1311d311a0220295879a93605893f90f7aeebc7f1fcb5fa60d9948ca24abf7d87ebe6b35df79f01", "02f1ffb9b01a01e7c68c6711eba05ebf4ac39741e54e3cabdcbc15c93f7907b507"], "sequence": 4294967293, "scriptSig": {"hex": "1600142d75057ad602d7260bed66a6fcb49dec35739f2c", "asm": "00142d75057ad602d7260bed66a6fcb49dec35739f2c"}, "vout": 0, "txid": "2f699efcac3ac6c043be9d0425c02a465f05a9fa018f9b64c0c2247f41112a91"}], "txid": "dfb3aafd98460d9644125d6b8a40e4d079b93d3e54b257a6c9758a859d8fdf57", "blocktime": 1537872475, "version": 2, "confirmations": 11486, "time": 1537872475, "locktime": 542994, "vsize": 166, "size": 247}