{"hash": "dfb8ac9bff218d99f8d0032c3a433c331bd7b3bb6f4adabf8cbf50c0c750251a", "blockhash": "0000000000000000001e0dab787dd257d1dbfcb92a98c2207d5e1078be1f4165", "vout": [{"scriptPubKey": {"reqSigs": 1, "hex": "a9146d89538d0412a5a9b52759a3ef5c19400997044987", "addresses": ["3BgC64FDRQrsKrDL71rothNxWzP8qh7Vwp"], "asm": "OP_HASH160 6d89538d0412a5a9b52759a3ef5c194009970449 OP_EQUAL", "type": "scripthash"}, "value": 0.10195747, "n": 0}], "hex": "01000000024c72e670f9c8ce2601ce39a3961dc4e93c5657331a9ba8a8a245bd7f2810ec63040000006b483045022100c80569c59c3ac82015c784cc627b4f60b4d3d5cf82a368112fb5e80e941b7bf102205fede2c53a92bba01dc282727c72b55961919559baffb6592b00c48c81d0dc730121030c467e7f1a9b77ecab2cb8c09198046aedea8dfd28bbbebaa0e78a6ba8bcd33effffffff265903999327035c2e40061453c361e3deb0bad25a5e0e5140b5df5c12e3128f060000006b483045022100affd2d724e3ea8de0537ae1c2ac6612eb50aaafa2425cc0f5fdd13828ebf7268022024a2fe36004478c767a51ecd8358991711707ea1d6268b722c73fda700813e9e012103fb8c85ed55be33862d0b2a276a739df1f201d3a32c80b99aaf2b3856f0e0dd07ffffffff0123939b000000000017a9146d89538d0412a5a9b52759a3ef5c1940099704498700000000", "vin": [{"sequence": 4294967295, "scriptSig": {"hex": "483045022100c80569c59c3ac82015c784cc627b4f60b4d3d5cf82a368112fb5e80e941b7bf102205fede2c53a92bba01dc282727c72b55961919559baffb6592b00c48c81d0dc730121030c467e7f1a9b77ecab2cb8c09198046aedea8dfd28bbbebaa0e78a6ba8bcd33e", "asm": "3045022100c80569c59c3ac82015c784cc627b4f60b4d3d5cf82a368112fb5e80e941b7bf102205fede2c53a92bba01dc282727c72b55961919559baffb6592b00c48c81d0dc73[ALL] 030c467e7f1a9b77ecab2cb8c09198046aedea8dfd28bbbebaa0e78a6ba8bcd33e"}, "vout": 4, "txid": "63ec10287fbd45a2a8a89b1a3357563ce9c41d96a339ce0126cec8f970e6724c"}, {"sequence": 4294967295, "scriptSig": {"hex": "483045022100affd2d724e3ea8de0537ae1c2ac6612eb50aaafa2425cc0f5fdd13828ebf7268022024a2fe36004478c767a51ecd8358991711707ea1d6268b722c73fda700813e9e012103fb8c85ed55be33862d0b2a276a739df1f201d3a32c80b99aaf2b3856f0e0dd07", "asm": "3045022100affd2d724e3ea8de0537ae1c2ac6612eb50aaafa2425cc0f5fdd13828ebf7268022024a2fe36004478c767a51ecd8358991711707ea1d6268b722c73fda700813e9e[ALL] 03fb8c85ed55be33862d0b2a276a739df1f201d3a32c80b99aaf2b3856f0e0dd07"}, "vout": 6, "txid": "8f12e3125cdfb540510e5e5ad2bab0dee361c3531406402e5c03279399035926"}], "txid": "dfb8ac9bff218d99f8d0032c3a433c331bd7b3bb6f4adabf8cbf50c0c750251a", "blocktime": 1537872475, "version": 1, "confirmations": 11486, "time": 1537872475, "locktime": 0, "vsize": 338, "size": 338}