{"hash": "dfba502310d5206d0119474647225a12bd8bce6a75cb566e223269d3fed191ce", "blockhash": "00000000000000000024a2167bbff67b0be802c0b01cdd79e6331c2be6459f87", "vout": [{"scriptPubKey": {"reqSigs": 1, "hex": "76a9141508276fd4193e83f5fce7a810a40e8f983c161988ac", "addresses": ["12vCxak5xc1t6T275xbm6AJ4xsZCxkTSc5"], "asm": "OP_DUP OP_HASH160 1508276fd4193e83f5fce7a810a40e8f983c1619 OP_EQUALVERIFY OP_CHECKSIG", "type": "pubkeyhash"}, "value": 2.50615149, "n": 0}, {"scriptPubKey": {"type": "nulldata", "hex": "6a146f6d6e69000000000000001f0000008bb2c97000", "asm": "OP_RETURN 6f6d6e69000000000000001f0000008bb2c97000"}, "value": 0.0, "n": 1}, {"scriptPubKey": {"reqSigs": 1, "hex": "76a9141508276fd4193e83f5fce7a810a40e8f983c161988ac", "addresses": ["12vCxak5xc1t6T275xbm6AJ4xsZCxkTSc5"], "asm": "OP_DUP OP_HASH160 1508276fd4193e83f5fce7a810a40e8f983c1619 OP_EQUALVERIFY OP_CHECKSIG", "type": "pubkeyhash"}, "value": 5.46e-06, "n": 2}], "hex": "0100000002d3098e05a85e270e5fb70a460316fd8152b1fde31c1bbb3a96ce75ac7070c941030000006a473044022100e17e1743b037b745607949ad9ef4d0ba8e3883a2ed8725f6b9f4d0eba5839a35021f0109993f6b26c5dff158fd1398de22241b94dc8fc04f19c66304f2d7b655050121034cf4a7f4cbe1aa17e92fbcb8c51bd4c2f2604ff658519a837d3905c9b6bc6a4affffffffe9a16456bdde8343b684f51bcc8e49207a3058ead77ed583b18d856187e00e2b000000006a473044022009e57adf4c2568daf3d583c35cce8dc2de5adc46d23d69a44df873c4f5e7590b02201712bd6a8b59608d0893c8fc9bb03f50c1bd0ebfd28ce7a603c6e8574ccb26fd0121035bb5ec1330953265719fecb2345ebd0cd02272efa8a3a940a8a28021b37703eeffffffff036d15f00e000000001976a9141508276fd4193e83f5fce7a810a40e8f983c161988ac0000000000000000166a146f6d6e69000000000000001f0000008bb2c9700022020000000000001976a9141508276fd4193e83f5fce7a810a40e8f983c161988ac00000000", "vin": [{"sequence": 4294967295, "scriptSig": {"hex": "473044022100e17e1743b037b745607949ad9ef4d0ba8e3883a2ed8725f6b9f4d0eba5839a35021f0109993f6b26c5dff158fd1398de22241b94dc8fc04f19c66304f2d7b655050121034cf4a7f4cbe1aa17e92fbcb8c51bd4c2f2604ff658519a837d3905c9b6bc6a4a", "asm": "3044022100e17e1743b037b745607949ad9ef4d0ba8e3883a2ed8725f6b9f4d0eba5839a35021f0109993f6b26c5dff158fd1398de22241b94dc8fc04f19c66304f2d7b65505[ALL] 034cf4a7f4cbe1aa17e92fbcb8c51bd4c2f2604ff658519a837d3905c9b6bc6a4a"}, "vout": 3, "txid": "41c97070ac75ce963abb1b1ce3fdb15281fd1603460ab75f0e275ea8058e09d3"}, {"sequence": 4294967295, "scriptSig": {"hex": "473044022009e57adf4c2568daf3d583c35cce8dc2de5adc46d23d69a44df873c4f5e7590b02201712bd6a8b59608d0893c8fc9bb03f50c1bd0ebfd28ce7a603c6e8574ccb26fd0121035bb5ec1330953265719fecb2345ebd0cd02272efa8a3a940a8a28021b37703ee", "asm": "3044022009e57adf4c2568daf3d583c35cce8dc2de5adc46d23d69a44df873c4f5e7590b02201712bd6a8b59608d0893c8fc9bb03f50c1bd0ebfd28ce7a603c6e8574ccb26fd[ALL] 035bb5ec1330953265719fecb2345ebd0cd02272efa8a3a940a8a28021b37703ee"}, "vout": 0, "txid": "2b0ee08761858db183d57ed7ea58307a20498ecc1bf584b64383debd5664a1e9"}], "txid": "dfba502310d5206d0119474647225a12bd8bce6a75cb566e223269d3fed191ce", "blocktime": 1537870564, "version": 1, "confirmations": 11515, "time": 1537870564, "locktime": 0, "vsize": 403, "size": 403}