{"hash": "ec7d18b9f4bb988e1f3ab555a6718aee88108bee9b18ef77ed945bbe15c6f708", "blockhash": "0000000000000000000baef3f32e3676a92c3b2e5da21b426e4f302fc371ce76", "vout": [{"scriptPubKey": {"reqSigs": 1, "hex": "76a9147054a68f6ea9f6e0beb5e3af6909c301c31c867288ac", "addresses": ["1BEx67bDj19krLoRLkZvP8mjqdTfdWVB3R"], "asm": "OP_DUP OP_HASH160 7054a68f6ea9f6e0beb5e3af6909c301c31c8672 OP_EQUALVERIFY OP_CHECKSIG", "type": "pubkeyhash"}, "value": 0.36041956, "n": 0}, {"scriptPubKey": {"reqSigs": 1, "hex": "76a9146cd49dc429df53aa4fc5d522459a2a157fa3c31788ac", "addresses": ["1AvSgZDSEM33c9ytgH2zHS3YML2rtV1yMF"], "asm": "OP_DUP OP_HASH160 6cd49dc429df53aa4fc5d522459a2a157fa3c317 OP_EQUALVERIFY OP_CHECKSIG", "type": "pubkeyhash"}, "value": 0.327, "n": 1}], "hex": "020000000001011be0b48a7487ec824e382ada7229679b6f8777f468c2d012d930ea203412e38400000000171600148e131e3edcddbe87f8f1d4729340a728f6dd4ccffeffffff02e4f42502000000001976a9147054a68f6ea9f6e0beb5e3af6909c301c31c867288ac60f6f201000000001976a9146cd49dc429df53aa4fc5d522459a2a157fa3c31788ac02473044022033d7d22b9ddb1e55fab14df60d36ac14aaf52d40339640e4d473fdbbc98919f60220367116310a1888816784cd3598566ab08f2a0045b65f37647701574bf2297a8d01210226052083c065ecc0ab8f48662846841462bdd8883edbee697966d271c23d12dc17490800", "vin": [{"txinwitness": ["3044022033d7d22b9ddb1e55fab14df60d36ac14aaf52d40339640e4d473fdbbc98919f60220367116310a1888816784cd3598566ab08f2a0045b65f37647701574bf2297a8d01", "0226052083c065ecc0ab8f48662846841462bdd8883edbee697966d271c23d12dc"], "sequence": 4294967294, "scriptSig": {"hex": "1600148e131e3edcddbe87f8f1d4729340a728f6dd4ccf", "asm": "00148e131e3edcddbe87f8f1d4729340a728f6dd4ccf"}, "vout": 0, "txid": "84e3123420ea30d912d0c268f477876f9b672972da2a384e82ec87748ab4e01b"}], "txid": "dfbf9e3afb60faf7f0379ddfb21e61711dfebfc4ff3f73c6268076c9f9bfc986", "blocktime": 1537876114, "version": 2, "confirmations": 11459, "time": 1537876114, "locktime": 542999, "vsize": 170, "size": 251}