{"hash": "dfc17f4ee0d466fd9721df8d0d633c49bb2e11ead5812ee93edb4158d31d5e22", "blockhash": "0000000000000000000baef3f32e3676a92c3b2e5da21b426e4f302fc371ce76", "vout": [{"scriptPubKey": {"reqSigs": 1, "hex": "76a9147508a13d23aae95fb55c74fee16ae70a5c0e147b88ac", "addresses": ["1BfpQ4F2ydF1dREvw4ZRSdGagHRaepisb7"], "asm": "OP_DUP OP_HASH160 7508a13d23aae95fb55c74fee16ae70a5c0e147b OP_EQUALVERIFY OP_CHECKSIG", "type": "pubkeyhash"}, "value": 0.011345, "n": 0}, {"scriptPubKey": {"reqSigs": 1, "hex": "a9147d8b69d5614f8a38294395e4c41555b97954340287", "addresses": ["3D8qQ8rc1KoL8eu8ih4gLtUoQbmR4N5oJa"], "asm": "OP_HASH160 7d8b69d5614f8a38294395e4c41555b979543402 OP_EQUAL", "type": "scripthash"}, "value": 0.0204318, "n": 1}], "hex": "0100000001ef71385e1a06305326ff7a964bda23e014f96f0081a84877eeb89de8d249955a000000006a47304402205f3c14f08a727bedc5758f2da702001c9834136a4941ce3583f3a6725060f794022004ba7bef605be82db0ba98082330cc5523894fbd20b02248a59e1352a3a09fac0121030ead6511fb2482b2822054e619da080de845b59d673e7c9968ea1cf4a119af0bffffffff02a44f1100000000001976a9147508a13d23aae95fb55c74fee16ae70a5c0e147b88ac2c2d1f000000000017a9147d8b69d5614f8a38294395e4c41555b9795434028700000000", "vin": [{"sequence": 4294967295, "scriptSig": {"hex": "47304402205f3c14f08a727bedc5758f2da702001c9834136a4941ce3583f3a6725060f794022004ba7bef605be82db0ba98082330cc5523894fbd20b02248a59e1352a3a09fac0121030ead6511fb2482b2822054e619da080de845b59d673e7c9968ea1cf4a119af0b", "asm": "304402205f3c14f08a727bedc5758f2da702001c9834136a4941ce3583f3a6725060f794022004ba7bef605be82db0ba98082330cc5523894fbd20b02248a59e1352a3a09fac[ALL] 030ead6511fb2482b2822054e619da080de845b59d673e7c9968ea1cf4a119af0b"}, "vout": 0, "txid": "5a9549d2e89db8ee7748a881006ff914e023da4b967aff265330061a5e3871ef"}], "txid": "dfc17f4ee0d466fd9721df8d0d633c49bb2e11ead5812ee93edb4158d31d5e22", "blocktime": 1537876114, "version": 1, "confirmations": 11460, "time": 1537876114, "locktime": 0, "vsize": 223, "size": 223}