{"hash": "b154a2378ed0cedb4526ef44594202262ede72c8119cb2b89a3284d1ced14c6e", "blockhash": "0000000000000000001e0dab787dd257d1dbfcb92a98c2207d5e1078be1f4165", "vout": [{"scriptPubKey": {"reqSigs": 1, "hex": "a914e1cd5a5717f5d1f7ed5207832fa62d0fec3e253387", "addresses": ["3NGwxsgX9MSdfLMqu1EgoeJEP6JjnPRWuy"], "asm": "OP_HASH160 e1cd5a5717f5d1f7ed5207832fa62d0fec3e2533 OP_EQUAL", "type": "scripthash"}, "value": 0.01811475, "n": 0}, {"scriptPubKey": {"reqSigs": 1, "hex": "76a9148f021c471fe4bda1c8c9e40a7161371f3417f76388ac", "addresses": ["1E3AA51TN97xFcNULzm5GKmVuQFUtoAaFK"], "asm": "OP_DUP OP_HASH160 8f021c471fe4bda1c8c9e40a7161371f3417f763 OP_EQUALVERIFY OP_CHECKSIG", "type": "pubkeyhash"}, "value": 0.009057, "n": 1}], "hex": "02000000000101282fc45df16f779a5c8fd410bde9fcbfc85b29500e7bdd6995be17cd3319eeeb01000000171600146b7ac1823259319c6fc20a96ed51d575d3c7d658fdffffff0213a41b000000000017a914e1cd5a5717f5d1f7ed5207832fa62d0fec3e253387e4d10d00000000001976a9148f021c471fe4bda1c8c9e40a7161371f3417f76388ac02483045022100dd89c47c1f38d35de7f386588a0fa7d17a5b5e8577f689cc27255187c7b6adcd0220436b6c005875859a242abfdf7af0be0ed18d30e6bc0f57118ae2de6b4c909ad8012103db0a9adb33e2cd50c604d3a609509e8fddabe8c66b8148f7862e05b5be3ac01112490800", "vin": [{"txinwitness": ["3045022100dd89c47c1f38d35de7f386588a0fa7d17a5b5e8577f689cc27255187c7b6adcd0220436b6c005875859a242abfdf7af0be0ed18d30e6bc0f57118ae2de6b4c909ad801", "03db0a9adb33e2cd50c604d3a609509e8fddabe8c66b8148f7862e05b5be3ac011"], "sequence": 4294967293, "scriptSig": {"hex": "1600146b7ac1823259319c6fc20a96ed51d575d3c7d658", "asm": "00146b7ac1823259319c6fc20a96ed51d575d3c7d658"}, "vout": 1, "txid": "ebee1933cd17be9569dd7b0e50295bc8bffce9bd10d48f5c9a776ff15dc42f28"}], "txid": "dfc3805743893ad358b38118ce4a2061d48ad117c6a0b65312506aeff90de0b4", "blocktime": 1537872475, "version": 2, "confirmations": 11486, "time": 1537872475, "locktime": 542994, "vsize": 168, "size": 250}