{"hash": "dfc50af9212fbcc2756c4c6562e719da77cdeffcab023d1575eba6a53ab8045a", "blockhash": "0000000000000000001cda96e906b7601b7a6fb1a3b62bca570a9e5d8f4b3de1", "vout": [{"scriptPubKey": {"reqSigs": 1, "hex": "76a9140fadef29aaee764bd524a1bdd10935fe6b0b581f88ac", "addresses": ["12RuW3JBxuwRF2MkLRJHQKyVGNFnT7ZfqL"], "asm": "OP_DUP OP_HASH160 0fadef29aaee764bd524a1bdd10935fe6b0b581f OP_EQUALVERIFY OP_CHECKSIG", "type": "pubkeyhash"}, "value": 0.00013034, "n": 0}, {"scriptPubKey": {"reqSigs": 1, "hex": "76a914266e217430cbf7a321986fac14d173968cb84add88ac", "addresses": ["14WCcJbHJtcMqkSieyn7GFRsv6oseLZbM1"], "asm": "OP_DUP OP_HASH160 266e217430cbf7a321986fac14d173968cb84add OP_EQUALVERIFY OP_CHECKSIG", "type": "pubkeyhash"}, "value": 0.0589768, "n": 1}], "hex": "010000000225615f83e2188ac38e287208f240eec8b0b030016f035a42bb7509c82d16ad18000000006a47304402204328c81730aa80cdd24d3c543f14fe9ff46ac25a351d988fd2b86298c6d8c36302206cfcb74eca272b550a8baa440e3da6fa99023a9f3f58f66c40a3e70f4fb8352e0121026d4b3362d739f104202812c9af12c1e72b4520af970d5840ca053dba8eb81ed7feffffff1a60316211095201e830dc507f9930cc843719484e106b1a8f9dfd3723fe36a8010000006b483045022100aa147f1a0a2bc2229342bc7df96e7574516dadbbfd7af83a7f68081057675911022001f7f6955dfdb0bdb42125909199900cd13629ff77662cc466c4df404cbbb99a01210372c9a43cf475615ecaf7dd7fbb4f82b1bdd93f73d5d8c79b9a0d75ba9e21ada2feffffff02ea320000000000001976a9140fadef29aaee764bd524a1bdd10935fe6b0b581f88acd0fd5900000000001976a914266e217430cbf7a321986fac14d173968cb84add88ac13490800", "vin": [{"sequence": 4294967294, "scriptSig": {"hex": "47304402204328c81730aa80cdd24d3c543f14fe9ff46ac25a351d988fd2b86298c6d8c36302206cfcb74eca272b550a8baa440e3da6fa99023a9f3f58f66c40a3e70f4fb8352e0121026d4b3362d739f104202812c9af12c1e72b4520af970d5840ca053dba8eb81ed7", "asm": "304402204328c81730aa80cdd24d3c543f14fe9ff46ac25a351d988fd2b86298c6d8c36302206cfcb74eca272b550a8baa440e3da6fa99023a9f3f58f66c40a3e70f4fb8352e[ALL] 026d4b3362d739f104202812c9af12c1e72b4520af970d5840ca053dba8eb81ed7"}, "vout": 0, "txid": "18ad162dc80975bb425a036f0130b0b0c8ee40f20872288ec38a18e2835f6125"}, {"sequence": 4294967294, "scriptSig": {"hex": "483045022100aa147f1a0a2bc2229342bc7df96e7574516dadbbfd7af83a7f68081057675911022001f7f6955dfdb0bdb42125909199900cd13629ff77662cc466c4df404cbbb99a01210372c9a43cf475615ecaf7dd7fbb4f82b1bdd93f73d5d8c79b9a0d75ba9e21ada2", "asm": "3045022100aa147f1a0a2bc2229342bc7df96e7574516dadbbfd7af83a7f68081057675911022001f7f6955dfdb0bdb42125909199900cd13629ff77662cc466c4df404cbbb99a[ALL] 0372c9a43cf475615ecaf7dd7fbb4f82b1bdd93f73d5d8c79b9a0d75ba9e21ada2"}, "vout": 1, "txid": "a836fe2337fd9d8f1a6b104e48193784cc30997f50dc30e8015209116231601a"}], "txid": "dfc50af9212fbcc2756c4c6562e719da77cdeffcab023d1575eba6a53ab8045a", "blocktime": 1537873282, "version": 1, "confirmations": 11484, "time": 1537873282, "locktime": 542995, "vsize": 373, "size": 373}