{"hash": "dfcb423505bcf5c6e82dc5974968f1690057d356d5ff8799eacc60d1b6951b57", "blockhash": "0000000000000000001f76057863aec43deb6fa401d9628bb513d65a8098bfab", "vout": [{"scriptPubKey": {"reqSigs": 1, "hex": "a914db48c6caf16c95c9374ac017c05b792dbb729bbd87", "addresses": ["3MgV6A3vUn4bY2QehFjWrmqoTXtxTZ3GXj"], "asm": "OP_HASH160 db48c6caf16c95c9374ac017c05b792dbb729bbd OP_EQUAL", "type": "scripthash"}, "value": 0.00452492, "n": 0}, {"scriptPubKey": {"reqSigs": 1, "hex": "76a9146586ced214191eaee684bf8787713d2671eff5aa88ac", "addresses": ["1AFpjzWNNtmMamjbbSSNLiVdktzrYMspCQ"], "asm": "OP_DUP OP_HASH160 6586ced214191eaee684bf8787713d2671eff5aa OP_EQUALVERIFY OP_CHECKSIG", "type": "pubkeyhash"}, "value": 0.27104575, "n": 1}], "hex": "02000000014463a28f6ca246bffd400959c61125393294de78210b26ee15b558f690cae348010000006b483045022100a449e719092adc5e222984e674fc4d3ffcd9d021542f142fee1037a5995e54d802205e6177ff64a2bf37888fd5cdbd09e7dbe243eeb7137fbe60803cce1122cb3e9f01210210dac65f236a05432a1dbd2f909aa1c6e1870304203e734e8d07db9b57443d46ffffffff028ce706000000000017a914db48c6caf16c95c9374ac017c05b792dbb729bbd873f959d01000000001976a9146586ced214191eaee684bf8787713d2671eff5aa88ac00000000", "vin": [{"sequence": 4294967295, "scriptSig": {"hex": "483045022100a449e719092adc5e222984e674fc4d3ffcd9d021542f142fee1037a5995e54d802205e6177ff64a2bf37888fd5cdbd09e7dbe243eeb7137fbe60803cce1122cb3e9f01210210dac65f236a05432a1dbd2f909aa1c6e1870304203e734e8d07db9b57443d46", "asm": "3045022100a449e719092adc5e222984e674fc4d3ffcd9d021542f142fee1037a5995e54d802205e6177ff64a2bf37888fd5cdbd09e7dbe243eeb7137fbe60803cce1122cb3e9f[ALL] 0210dac65f236a05432a1dbd2f909aa1c6e1870304203e734e8d07db9b57443d46"}, "vout": 1, "txid": "48e3ca90f658b515ee260b2178de9432392511c6590940fdbf46a26c8fa26344"}], "txid": "dfcb423505bcf5c6e82dc5974968f1690057d356d5ff8799eacc60d1b6951b57", "blocktime": 1537873891, "version": 2, "confirmations": 11475, "time": 1537873891, "locktime": 0, "vsize": 224, "size": 224}