{"hash": "dfceaa914cc9d0045a505f3b2df718b06aae27ff7b5cc3e3f31413575430e110", "blockhash": "0000000000000000001f0ddff1eddb255c1121bcd4da4f1bc9a0da00cae72433", "vout": [{"scriptPubKey": {"reqSigs": 1, "hex": "76a914d12726f2a53805a5620092b52f96fed52628d5aa88ac", "addresses": ["1L4u8RzfNbT4nPK1TbAahMHqG27qJwgs81"], "asm": "OP_DUP OP_HASH160 d12726f2a53805a5620092b52f96fed52628d5aa OP_EQUALVERIFY OP_CHECKSIG", "type": "pubkeyhash"}, "value": 6.951e-05, "n": 0}, {"scriptPubKey": {"reqSigs": 1, "hex": "76a914790bcfe18893200d23344ace82d248807ef4bb4888ac", "addresses": ["1C32uviJ9fCSuKVKwj8pUBVWjnzvNzXBtu"], "asm": "OP_DUP OP_HASH160 790bcfe18893200d23344ace82d248807ef4bb48 OP_EQUALVERIFY OP_CHECKSIG", "type": "pubkeyhash"}, "value": 0.004225, "n": 1}], "hex": "01000000071769060e5de93d635999698c1832f680af9d7e881f7bc75a8702ab9e8adffb0db50100006a47304402203c6b04da60d749d5234c4aa17d60a494a49f3eb2679bfe3ff974f21a677baf55022057fdf111a4a45d8c2f962df79ea50b8a3055c16a5f330191d9463628128d3cf301210325be66bc3202a0dbf86347c51cff963778f4e6ac7945a5f403881cedd2511cc9fdffffffc045e53c079d498a69366a931a17996382daaa5193bc7425681a0b40ae22aa22000000006a47304402205396ec58920ffbcedbd6132df5f2da98e5d43837203be23cc34d203157c80b3d02205a6b3ff1e85f6cc2c977fae7aac6b92f7e27817881a77b04cbb8a7b28bbdb522012103da91c70e3037d6fbbf2c9a730a624c179e8ace391157c988f0e8dbb2a5c55de5fdffffff6b2394c8362f0ead352c675f54e1e8de0529b817540e66e19e53337690bd5834a50200006b483045022100b964333c051df89ea6c98939c4f9f2a4ce94c3d739900ae65572e2dbb97d20b5022049420dcc0679ec33ca9bde10c46e6d24942142867f4e7b2bb197b41a047527fd012102c685b376178b968780bcc6fc0071bfc91be8001523dbb7eb36b9365ff5c4faf4fdffffff10cb8b5517669bd1fb9db8f3e968aad4ae08f13aea6add361a5d44b4ede09b9c000000006b483045022100ff4c3c0a0ad1fc3674b523d0e99153e43cef12d785cbf33c3ceac865b14f442202207eb975cc4a83e2f1f92e54d4c0d3003176e38fcb505f30132b528fa0763b4ebc0121021c7a9177ef39d8a731e755e141219dd17671600d97207855dcaa15dbf97f4e45fdffffff8324a53ff194474211ff051f11544bf1336ec117587f4ab7e44b9c896ba2dfa9220a00006a47304402202469da22c70838073a4a419a9217399ce4b001ca0f5223fef5046a456d86d2a5022043e7bf93ac7129d59fe647606840f0c49e5a7c4d6d925ee0aec075ceebb1a8cc012102c2b59f23b0aa88c940292b62aed1888b45e15dd492b6e50fd07d0f034faf931efdffffff5ffdf76b66206e42ad17bc8733c3c5f03071567aab5f7072b5879c8b30106fb6060300006a47304402201daa2378b0b88e19b0446f43a8aee02647188c4af2a7e8668d029bfb6b8650e002206066858ff548b470f4b035efc7c42dbadfadcac2a3f56dc88c85f37ebaddece5012102c2b59f23b0aa88c940292b62aed1888b45e15dd492b6e50fd07d0f034faf931efdffffff8b1913179fa03e774689055d99ba67923de1a7cfee99aa8c70e6f604ac5dcbb7890700006b483045022100bff17ff1904199ae23406aefea83cdd7582ac2bf98848ae5d97a3da8ee87004602202e0f1af326a720227de1d8537b81e7361115034a99b7c71a1aa67462345b4b36012102c2b59f23b0aa88c940292b62aed1888b45e15dd492b6e50fd07d0f034faf931efdffffff02271b0000000000001976a914d12726f2a53805a5620092b52f96fed52628d5aa88ac64720600000000001976a914790bcfe18893200d23344ace82d248807ef4bb4888ac0f490800", "vin": [{"sequence": 4294967293, "scriptSig": {"hex": "47304402203c6b04da60d749d5234c4aa17d60a494a49f3eb2679bfe3ff974f21a677baf55022057fdf111a4a45d8c2f962df79ea50b8a3055c16a5f330191d9463628128d3cf301210325be66bc3202a0dbf86347c51cff963778f4e6ac7945a5f403881cedd2511cc9", "asm": "304402203c6b04da60d749d5234c4aa17d60a494a49f3eb2679bfe3ff974f21a677baf55022057fdf111a4a45d8c2f962df79ea50b8a3055c16a5f330191d9463628128d3cf3[ALL] 0325be66bc3202a0dbf86347c51cff963778f4e6ac7945a5f403881cedd2511cc9"}, "vout": 437, "txid": "0dfbdf8a9eab02875ac77b1f887e9daf80f632188c699959633de95d0e066917"}, {"sequence": 4294967293, "scriptSig": {"hex": "47304402205396ec58920ffbcedbd6132df5f2da98e5d43837203be23cc34d203157c80b3d02205a6b3ff1e85f6cc2c977fae7aac6b92f7e27817881a77b04cbb8a7b28bbdb522012103da91c70e3037d6fbbf2c9a730a624c179e8ace391157c988f0e8dbb2a5c55de5", "asm": "304402205396ec58920ffbcedbd6132df5f2da98e5d43837203be23cc34d203157c80b3d02205a6b3ff1e85f6cc2c977fae7aac6b92f7e27817881a77b04cbb8a7b28bbdb522[ALL] 03da91c70e3037d6fbbf2c9a730a624c179e8ace391157c988f0e8dbb2a5c55de5"}, "vout": 0, "txid": "22aa22ae400b1a682574bc9351aada826399171a936a36698a499d073ce545c0"}, {"sequence": 4294967293, "scriptSig": {"hex": "483045022100b964333c051df89ea6c98939c4f9f2a4ce94c3d739900ae65572e2dbb97d20b5022049420dcc0679ec33ca9bde10c46e6d24942142867f4e7b2bb197b41a047527fd012102c685b376178b968780bcc6fc0071bfc91be8001523dbb7eb36b9365ff5c4faf4", "asm": "3045022100b964333c051df89ea6c98939c4f9f2a4ce94c3d739900ae65572e2dbb97d20b5022049420dcc0679ec33ca9bde10c46e6d24942142867f4e7b2bb197b41a047527fd[ALL] 02c685b376178b968780bcc6fc0071bfc91be8001523dbb7eb36b9365ff5c4faf4"}, "vout": 677, "txid": "3458bd907633539ee1660e5417b82905dee8e1545f672c35ad0e2f36c894236b"}, {"sequence": 4294967293, "scriptSig": {"hex": "483045022100ff4c3c0a0ad1fc3674b523d0e99153e43cef12d785cbf33c3ceac865b14f442202207eb975cc4a83e2f1f92e54d4c0d3003176e38fcb505f30132b528fa0763b4ebc0121021c7a9177ef39d8a731e755e141219dd17671600d97207855dcaa15dbf97f4e45", "asm": "3045022100ff4c3c0a0ad1fc3674b523d0e99153e43cef12d785cbf33c3ceac865b14f442202207eb975cc4a83e2f1f92e54d4c0d3003176e38fcb505f30132b528fa0763b4ebc[ALL] 021c7a9177ef39d8a731e755e141219dd17671600d97207855dcaa15dbf97f4e45"}, "vout": 0, "txid": "9c9be0edb4445d1a36dd6aea3af108aed4aa68e9f3b89dfbd19b6617558bcb10"}, {"sequence": 4294967293, "scriptSig": {"hex": "47304402202469da22c70838073a4a419a9217399ce4b001ca0f5223fef5046a456d86d2a5022043e7bf93ac7129d59fe647606840f0c49e5a7c4d6d925ee0aec075ceebb1a8cc012102c2b59f23b0aa88c940292b62aed1888b45e15dd492b6e50fd07d0f034faf931e", "asm": "304402202469da22c70838073a4a419a9217399ce4b001ca0f5223fef5046a456d86d2a5022043e7bf93ac7129d59fe647606840f0c49e5a7c4d6d925ee0aec075ceebb1a8cc[ALL] 02c2b59f23b0aa88c940292b62aed1888b45e15dd492b6e50fd07d0f034faf931e"}, "vout": 2594, "txid": "a9dfa26b899c4be4b74a7f5817c16e33f14b54111f05ff11424794f13fa52483"}, {"sequence": 4294967293, "scriptSig": {"hex": "47304402201daa2378b0b88e19b0446f43a8aee02647188c4af2a7e8668d029bfb6b8650e002206066858ff548b470f4b035efc7c42dbadfadcac2a3f56dc88c85f37ebaddece5012102c2b59f23b0aa88c940292b62aed1888b45e15dd492b6e50fd07d0f034faf931e", "asm": "304402201daa2378b0b88e19b0446f43a8aee02647188c4af2a7e8668d029bfb6b8650e002206066858ff548b470f4b035efc7c42dbadfadcac2a3f56dc88c85f37ebaddece5[ALL] 02c2b59f23b0aa88c940292b62aed1888b45e15dd492b6e50fd07d0f034faf931e"}, "vout": 774, "txid": "b66f10308b9c87b572705fab7a567130f0c5c33387bc17ad426e20666bf7fd5f"}, {"sequence": 4294967293, "scriptSig": {"hex": "483045022100bff17ff1904199ae23406aefea83cdd7582ac2bf98848ae5d97a3da8ee87004602202e0f1af326a720227de1d8537b81e7361115034a99b7c71a1aa67462345b4b36012102c2b59f23b0aa88c940292b62aed1888b45e15dd492b6e50fd07d0f034faf931e", "asm": "3045022100bff17ff1904199ae23406aefea83cdd7582ac2bf98848ae5d97a3da8ee87004602202e0f1af326a720227de1d8537b81e7361115034a99b7c71a1aa67462345b4b36[ALL] 02c2b59f23b0aa88c940292b62aed1888b45e15dd492b6e50fd07d0f034faf931e"}, "vout": 1929, "txid": "b7cb5dac04f6e6708caa99eecfa7e13d9267ba995d058946773ea09f1713198b"}], "txid": "dfceaa914cc9d0045a505f3b2df718b06aae27ff7b5cc3e3f31413575430e110", "blocktime": 1537872018, "version": 1, "confirmations": 11489, "time": 1537872018, "locktime": 542991, "vsize": 1110, "size": 1110}