{"hash": "065caf4af6eea52beedb036b9d631a669b5dde2c1994bf06fd7af8d325de6863", "blockhash": "0000000000000000001e0dab787dd257d1dbfcb92a98c2207d5e1078be1f4165", "vout": [{"scriptPubKey": {"reqSigs": 1, "hex": "a9143ddbc77767fa4e392f08320ab7c82ca8ea5dc6dc87", "addresses": ["37L6Rmb3BDQp8UjoEi3EyE39WGsVjdzCq6"], "asm": "OP_HASH160 3ddbc77767fa4e392f08320ab7c82ca8ea5dc6dc OP_EQUAL", "type": "scripthash"}, "value": 0.029876, "n": 0}, {"scriptPubKey": {"reqSigs": 1, "hex": "a914b72b169584167a55a9bd7f0866f6437cca761ae287", "addresses": ["3JPXCUFYY9nC9yzDy2HZcQo76rrqxZ7J9Q"], "asm": "OP_HASH160 b72b169584167a55a9bd7f0866f6437cca761ae2 OP_EQUAL", "type": "scripthash"}, "value": 0.01033109, "n": 1}], "hex": "020000000001011d39bced4c22889bc684d2d1c7440b894dc6e7f9fcf02c367c50156f90b0e7220300000017160014fabb81ec37642f44e41439b5f6fdf5c7cecc478ffdffffff0250962d000000000017a9143ddbc77767fa4e392f08320ab7c82ca8ea5dc6dc8795c30f000000000017a914b72b169584167a55a9bd7f0866f6437cca761ae28702483045022100d1aea7ce2bd510fa3514f73324dfa323952b2e9890514b880392d15125badcd302200fb5fe88cc019a86ad8d4671a18def0541b1d7c131e0cab6c9362a63e00f89ac012103a846f7edecb36daaaa0294bf4df0f4a5ca8add295a2ce4003dd9d3e328912da700000000", "vin": [{"txinwitness": ["3045022100d1aea7ce2bd510fa3514f73324dfa323952b2e9890514b880392d15125badcd302200fb5fe88cc019a86ad8d4671a18def0541b1d7c131e0cab6c9362a63e00f89ac01", "03a846f7edecb36daaaa0294bf4df0f4a5ca8add295a2ce4003dd9d3e328912da7"], "sequence": 4294967293, "scriptSig": {"hex": "160014fabb81ec37642f44e41439b5f6fdf5c7cecc478f", "asm": "0014fabb81ec37642f44e41439b5f6fdf5c7cecc478f"}, "vout": 3, "txid": "22e7b0906f15507c362cf0fcf9e7c64d890b44c7d1d284c69b88224cedbc391d"}], "txid": "dfd303cd63006fd85ad4fde3ef1111f270a16184a62d3a35eb56330ce42ef504", "blocktime": 1537872475, "version": 2, "confirmations": 11487, "time": 1537872475, "locktime": 0, "vsize": 166, "size": 248}