{"hash": "dfd77be74847357815f285d08a593005fba30365ff6f6ee858b5ff7f070e5fe7", "blockhash": "000000000000000000022b45ed06c6f4ccd3cf7fb5ba4856ebd2e58215665228", "vout": [{"scriptPubKey": {"reqSigs": 1, "hex": "a914180a91eca6bd70da38620a100f1bd764e6feae0f87", "addresses": ["33t8oZk7tHwcKwWUSvrH39wRgrqHRx2CEh"], "asm": "OP_HASH160 180a91eca6bd70da38620a100f1bd764e6feae0f OP_EQUAL", "type": "scripthash"}, "value": 0.0033, "n": 0}, {"scriptPubKey": {"reqSigs": 1, "hex": "a9148687ae059fe37e9367d66103bf7a442b47e9565287", "addresses": ["3DxM1Sm4pzQoFHR5LHayizf3cTYnGA87eZ"], "asm": "OP_HASH160 8687ae059fe37e9367d66103bf7a442b47e95652 OP_EQUAL", "type": "scripthash"}, "value": 0.28765475, "n": 1}], "hex": "0100000001b24acbf98394cc389b339d11b3bd96be9ddb511cac85da3ace5adfbfe05499fe01000000fc0047304402206c994ea3b2e73d7a9e3105873685cbb2dd871b73ff318354445061f3478a07ae02205f3461dab90f67f86fe02b991093c932930f3cdce9f221b1ec5abbe9ffd7548d01473044022023f82e4e29077fd47642ecf4ec4dd5234bf7607d81e44552abf30355b547c5fe0220220d2394c31f38ce8b43073751dc4e5a0af635f68d27c6ca93d0e92096417865014c6952210203fd58fcf72ae2a32a9d685584594ba3111155381f386cc6c9bbb0608e050b3621037288d6a08966d5de0406b409d2c752bc5a5a46bf613cca9634dd568f3a378e732103c2f9ad72d9deefe78378fe4ec868ae491853c5e83c760f24923e04e1cbf54b1f53aefdffffff02100905000000000017a914180a91eca6bd70da38620a100f1bd764e6feae0f8723edb6010000000017a9148687ae059fe37e9367d66103bf7a442b47e95652870b490800", "vin": [{"sequence": 4294967293, "scriptSig": {"hex": "0047304402206c994ea3b2e73d7a9e3105873685cbb2dd871b73ff318354445061f3478a07ae02205f3461dab90f67f86fe02b991093c932930f3cdce9f221b1ec5abbe9ffd7548d01473044022023f82e4e29077fd47642ecf4ec4dd5234bf7607d81e44552abf30355b547c5fe0220220d2394c31f38ce8b43073751dc4e5a0af635f68d27c6ca93d0e92096417865014c6952210203fd58fcf72ae2a32a9d685584594ba3111155381f386cc6c9bbb0608e050b3621037288d6a08966d5de0406b409d2c752bc5a5a46bf613cca9634dd568f3a378e732103c2f9ad72d9deefe78378fe4ec868ae491853c5e83c760f24923e04e1cbf54b1f53ae", "asm": "0 304402206c994ea3b2e73d7a9e3105873685cbb2dd871b73ff318354445061f3478a07ae02205f3461dab90f67f86fe02b991093c932930f3cdce9f221b1ec5abbe9ffd7548d[ALL] 3044022023f82e4e29077fd47642ecf4ec4dd5234bf7607d81e44552abf30355b547c5fe0220220d2394c31f38ce8b43073751dc4e5a0af635f68d27c6ca93d0e92096417865[ALL] 52210203fd58fcf72ae2a32a9d685584594ba3111155381f386cc6c9bbb0608e050b3621037288d6a08966d5de0406b409d2c752bc5a5a46bf613cca9634dd568f3a378e732103c2f9ad72d9deefe78378fe4ec868ae491853c5e83c760f24923e04e1cbf54b1f53ae"}, "vout": 1, "txid": "fe9954e0bfdf5ace3ada85ac1c51db9dbe96bdb3119d339b38cc9483f9cb4ab2"}], "txid": "dfd77be74847357815f285d08a593005fba30365ff6f6ee858b5ff7f070e5fe7", "blocktime": 1537869901, "version": 1, "confirmations": 11524, "time": 1537869901, "locktime": 542987, "vsize": 367, "size": 367}