{"hash": "dfd89fb404a0baeb250f10e1786c9c3a6f2d98539c1ed54ed446d43d1b74368d", "blockhash": "0000000000000000001cda96e906b7601b7a6fb1a3b62bca570a9e5d8f4b3de1", "vout": [{"scriptPubKey": {"reqSigs": 1, "hex": "76a914546b93ae14778a3316835883409bce5d29abc55488ac", "addresses": ["18hNdgnw9cRXZCqHWMaVP9RavZrQAoxQZX"], "asm": "OP_DUP OP_HASH160 546b93ae14778a3316835883409bce5d29abc554 OP_EQUALVERIFY OP_CHECKSIG", "type": "pubkeyhash"}, "value": 0.01497, "n": 0}], "hex": "01000000017e02a37421bfe0a8f7469b25731005fca460b54e0524f235030e79ce856791e9000000006a47304402200f3d188e9400ae60b2cf609de9e13fffb1ab869103be0aa7d1516e220385fb6602201b09e75a9ee78181b76fc44e30c9086d12e784d196081291b16493542fd803c10121024d622dcdb5ad62ed5ac9136a2042507a2dc963047b7c119dae4e7db11be04cedffffffff01a8d71600000000001976a914546b93ae14778a3316835883409bce5d29abc55488ac00000000", "vin": [{"sequence": 4294967295, "scriptSig": {"hex": "47304402200f3d188e9400ae60b2cf609de9e13fffb1ab869103be0aa7d1516e220385fb6602201b09e75a9ee78181b76fc44e30c9086d12e784d196081291b16493542fd803c10121024d622dcdb5ad62ed5ac9136a2042507a2dc963047b7c119dae4e7db11be04ced", "asm": "304402200f3d188e9400ae60b2cf609de9e13fffb1ab869103be0aa7d1516e220385fb6602201b09e75a9ee78181b76fc44e30c9086d12e784d196081291b16493542fd803c1[ALL] 024d622dcdb5ad62ed5ac9136a2042507a2dc963047b7c119dae4e7db11be04ced"}, "vout": 0, "txid": "e9916785ce790e0335f224054eb560a4fc051073259b46f7a8e0bf2174a3027e"}], "txid": "dfd89fb404a0baeb250f10e1786c9c3a6f2d98539c1ed54ed446d43d1b74368d", "blocktime": 1537873282, "version": 1, "confirmations": 11481, "time": 1537873282, "locktime": 0, "vsize": 191, "size": 191}