{"hash": "9ec971b908966234a873825eeca9eaa0376f8194da8f153a18b6d14e7e3cc202", "blockhash": "0000000000000000000e13cef7c366c0283d82e591d1acd082e914b08063cdf1", "vout": [{"scriptPubKey": {"reqSigs": 1, "hex": "a9148178bd3c7e162af5010dfb94095b62bed3e550dd87", "addresses": ["3DVbjPyJR3LkKHDuUiT77puc5kG1kJn37k"], "asm": "OP_HASH160 8178bd3c7e162af5010dfb94095b62bed3e550dd OP_EQUAL", "type": "scripthash"}, "value": 0.00999465, "n": 0}, {"scriptPubKey": {"reqSigs": 1, "hex": "76a914e340f2a407404cf5a2935fdbefe6422d3aa7d82288ac", "addresses": ["1MicCCXs2j5EMyHAPfMEhSuzUBSC53Sszj"], "asm": "OP_DUP OP_HASH160 e340f2a407404cf5a2935fdbefe6422d3aa7d822 OP_EQUALVERIFY OP_CHECKSIG", "type": "pubkeyhash"}, "value": 0.00209356, "n": 1}], "hex": "0200000000010225b7aaea2bb9472238489d282f1b239f6e0f35d47332e9a458706a0a349ea86f00000000171600145cb3bf0ae5dbe336fa2134784b19b2d55cd959a3feffffff2ca06c1bbf1e7ebdb29feecbe8e464d2f8ede9c4d9fbb70ac2465be2c6d80f7601000000171600146d5124b6a1676bd62d89d2bba36f87b861c8dcc4feffffff0229400f000000000017a9148178bd3c7e162af5010dfb94095b62bed3e550dd87cc310300000000001976a914e340f2a407404cf5a2935fdbefe6422d3aa7d82288ac0247304402206ce992f3c4f214301e0e824ff4fe989fe21813127b434b6b9fbfb63559a9f4ff02203a4120b789dea959b39060774a2803dc7171cfecb107541677d217b939329f6501210288d6bf3bbcb554d15fdb07ed42139f514546bfe62bdfdf5f09c0703e3af661bf02473044022019de51d1dd932555d2d5c11bc0395c04286dac194da706fa6441bf5fb75c5b9e022072894584e53002a98080fc768787c4cdb786618fbf4220f340900d4809a1806b012102a2f30eb6a356589fe3354953d3149635e1bf78e0937746ee0e09e9bca69c51bd10490800", "vin": [{"txinwitness": ["304402206ce992f3c4f214301e0e824ff4fe989fe21813127b434b6b9fbfb63559a9f4ff02203a4120b789dea959b39060774a2803dc7171cfecb107541677d217b939329f6501", "0288d6bf3bbcb554d15fdb07ed42139f514546bfe62bdfdf5f09c0703e3af661bf"], "sequence": 4294967294, "scriptSig": {"hex": "1600145cb3bf0ae5dbe336fa2134784b19b2d55cd959a3", "asm": "00145cb3bf0ae5dbe336fa2134784b19b2d55cd959a3"}, "vout": 0, "txid": "6fa89e340a6a7058a4e93273d4350f6e9f231b2f289d48382247b92beaaab725"}, {"txinwitness": ["3044022019de51d1dd932555d2d5c11bc0395c04286dac194da706fa6441bf5fb75c5b9e022072894584e53002a98080fc768787c4cdb786618fbf4220f340900d4809a1806b01", "02a2f30eb6a356589fe3354953d3149635e1bf78e0937746ee0e09e9bca69c51bd"], "sequence": 4294967294, "scriptSig": {"hex": "1600146d5124b6a1676bd62d89d2bba36f87b861c8dcc4", "asm": "00146d5124b6a1676bd62d89d2bba36f87b861c8dcc4"}, "vout": 1, "txid": "760fd8c6e25b46c20ab7fbd9c4e9edf8d264e4e8cbee9fb2bd7e1ebf1b6ca02c"}], "txid": "dfdeccd3ad5497b4b4a7e227a0bd41abfb25d71b51af1715a7b246d8482cbf72", "blocktime": 1537871767, "version": 2, "confirmations": 11495, "time": 1537871767, "locktime": 542992, "vsize": 258, "size": 420}