{"hash": "dfe0d2c4ab7bdcf6ceda74efa432016e0bbc2892593f031105c897bd94ed6717", "blockhash": "000000000000000000022b45ed06c6f4ccd3cf7fb5ba4856ebd2e58215665228", "vout": [{"scriptPubKey": {"reqSigs": 1, "hex": "76a91463cfebf03affe117530ec4f30348a3eab133368288ac", "addresses": ["1A6kye6jR5yBZVLyUQ5Pt9sGrrNNPJBFNY"], "asm": "OP_DUP OP_HASH160 63cfebf03affe117530ec4f30348a3eab1333682 OP_EQUALVERIFY OP_CHECKSIG", "type": "pubkeyhash"}, "value": 3.209e-05, "n": 0}, {"scriptPubKey": {"reqSigs": 1, "hex": "76a9146b0bcdaf612d78cef6b592c7f9fb38976c39dfba88ac", "addresses": ["1Am1SeNvWbLVxLoQeV53Tg7znzRbmMoF5h"], "asm": "OP_DUP OP_HASH160 6b0bcdaf612d78cef6b592c7f9fb38976c39dfba OP_EQUALVERIFY OP_CHECKSIG", "type": "pubkeyhash"}, "value": 0.00010928, "n": 1}], "hex": "0100000001076c5750878d714217124a0d1eb0af1fa033cbe3f1facf682ec61559f973f83f010000006b483045022100aa5fad21c91dc272591f50983641887a943f18baee3645197f6dab36a99296ca02203c6ba6d34c70d04c077c1adf39523dff13e3f7688d8409f611cfd19940cb9beb012103dff9e49694cf17d382a3ae8387b7114c4ef647a0a860e24e9ad0fac47f04ea4effffffff02890c0000000000001976a91463cfebf03affe117530ec4f30348a3eab133368288acb02a0000000000001976a9146b0bcdaf612d78cef6b592c7f9fb38976c39dfba88ac00000000", "vin": [{"sequence": 4294967295, "scriptSig": {"hex": "483045022100aa5fad21c91dc272591f50983641887a943f18baee3645197f6dab36a99296ca02203c6ba6d34c70d04c077c1adf39523dff13e3f7688d8409f611cfd19940cb9beb012103dff9e49694cf17d382a3ae8387b7114c4ef647a0a860e24e9ad0fac47f04ea4e", "asm": "3045022100aa5fad21c91dc272591f50983641887a943f18baee3645197f6dab36a99296ca02203c6ba6d34c70d04c077c1adf39523dff13e3f7688d8409f611cfd19940cb9beb[ALL] 03dff9e49694cf17d382a3ae8387b7114c4ef647a0a860e24e9ad0fac47f04ea4e"}, "vout": 1, "txid": "3ff873f95915c62e68cffaf1e3cb33a01fafb01e0d4a121742718d8750576c07"}], "txid": "dfe0d2c4ab7bdcf6ceda74efa432016e0bbc2892593f031105c897bd94ed6717", "blocktime": 1537869901, "version": 1, "confirmations": 11522, "time": 1537869901, "locktime": 0, "vsize": 226, "size": 226}