{"hash": "dfe1543650080a119c5045681afba4b20dbe490ac1758d54de3b16d3c3304117", "blockhash": "00000000000000000004ffacab907a6b429b9a5745fa0b75af4234bf69dd7176", "vout": [{"scriptPubKey": {"reqSigs": 1, "hex": "76a9149a342b1bfbc28ff3f45035d07cbfcc97f335c10e88ac", "addresses": ["1F4MZGQNDnAMmq1tERQZsGi5EiRxSEWVf5"], "asm": "OP_DUP OP_HASH160 9a342b1bfbc28ff3f45035d07cbfcc97f335c10e OP_EQUALVERIFY OP_CHECKSIG", "type": "pubkeyhash"}, "value": 0.13689922, "n": 0}], "hex": "0100000001c56f38aa68e34c33dea47b2d647faf43b5da8e923fdb3072757dd8bf525d0531010000006a4730440220473c939d07fc4511b11ed8b12e755b5d728c202cd814605c8edad88e7255e69502201b2ae46a24475e5cb25520e0b7fa800e6a541bf0af60d9744a2632bf0b9adc7a012103c54af6e732adae1a34711ba85e611a7da84ef79de225cd0e86f4f8f3a6f932eaffffffff0142e4d000000000001976a9149a342b1bfbc28ff3f45035d07cbfcc97f335c10e88ac00000000", "vin": [{"sequence": 4294967295, "scriptSig": {"hex": "4730440220473c939d07fc4511b11ed8b12e755b5d728c202cd814605c8edad88e7255e69502201b2ae46a24475e5cb25520e0b7fa800e6a541bf0af60d9744a2632bf0b9adc7a012103c54af6e732adae1a34711ba85e611a7da84ef79de225cd0e86f4f8f3a6f932ea", "asm": "30440220473c939d07fc4511b11ed8b12e755b5d728c202cd814605c8edad88e7255e69502201b2ae46a24475e5cb25520e0b7fa800e6a541bf0af60d9744a2632bf0b9adc7a[ALL] 03c54af6e732adae1a34711ba85e611a7da84ef79de225cd0e86f4f8f3a6f932ea"}, "vout": 1, "txid": "31055d52bfd87d757230db3f928edab543af7f642d7ba4de334ce368aa386fc5"}], "txid": "dfe1543650080a119c5045681afba4b20dbe490ac1758d54de3b16d3c3304117", "blocktime": 1537875543, "version": 1, "confirmations": 11464, "time": 1537875543, "locktime": 0, "vsize": 191, "size": 191}