{"hash": "8f97d4ac09ab73f3f0d3433949cfaf4ea5e652602889300961ca0147df5cc918", "blockhash": "00000000000000000018f53835495a110e01622372bf6ae95dc86f2b0ab887b0", "vout": [{"scriptPubKey": {"reqSigs": 1, "hex": "76a914e5f31a09e31291e7e8a163e444203fdf4f6b8f1f88ac", "addresses": ["1Mxrxw5MjFQ4eu2dR9Uq8XowNCaNv3fGMx"], "asm": "OP_DUP OP_HASH160 e5f31a09e31291e7e8a163e444203fdf4f6b8f1f OP_EQUALVERIFY OP_CHECKSIG", "type": "pubkeyhash"}, "value": 0.00081213, "n": 0}, {"scriptPubKey": {"reqSigs": 1, "hex": "a9149b102491da8ebc11a806f94137a48f79e381cb9087", "addresses": ["3FpuzuHtVnLqExBk1rm7hcJdxuWcpa9SuM"], "asm": "OP_HASH160 9b102491da8ebc11a806f94137a48f79e381cb90 OP_EQUAL", "type": "scripthash"}, "value": 0.00655107, "n": 1}], "hex": "01000000000101e8b874d019d8f0d813a58c3aae4702b72549c5c3b979487ed9e8d8e175f29d1f0100000023220020ef35486f43c2607aa7841fd7fa85f1ba4566ef4d305135ade8ce651171556d60ffffffff023d3d0100000000001976a914e5f31a09e31291e7e8a163e444203fdf4f6b8f1f88ac03ff09000000000017a9149b102491da8ebc11a806f94137a48f79e381cb908704004830450221008ab39c45ae467522dad4223fdd02d0a18b2e2cad181344000a8e895ac95bdb130220064951dc28c742fe1362f0b0da03677e68424446eb62b9e57301a4511b270f4601483045022100c218d5f4c072d7f3707ff45c61579ac4212a792ed937cd6e8f45f10ef7474d4c0220079754dba6709affaf467f4b882475cfc7d01bef2b9ed864e28a0d4543d686bc014752210217fb1f2992fad579ab1fc6582c1cda0b35950b2341ee15ca69b2a0680c64a6c42103f222873b80b4e3d44290c8bd944d84c8c834af0ea2722a720ec29f9db13f198452ae00000000", "vin": [{"txinwitness": ["", "30450221008ab39c45ae467522dad4223fdd02d0a18b2e2cad181344000a8e895ac95bdb130220064951dc28c742fe1362f0b0da03677e68424446eb62b9e57301a4511b270f4601", "3045022100c218d5f4c072d7f3707ff45c61579ac4212a792ed937cd6e8f45f10ef7474d4c0220079754dba6709affaf467f4b882475cfc7d01bef2b9ed864e28a0d4543d686bc01", "52210217fb1f2992fad579ab1fc6582c1cda0b35950b2341ee15ca69b2a0680c64a6c42103f222873b80b4e3d44290c8bd944d84c8c834af0ea2722a720ec29f9db13f198452ae"], "sequence": 4294967295, "scriptSig": {"hex": "220020ef35486f43c2607aa7841fd7fa85f1ba4566ef4d305135ade8ce651171556d60", "asm": "0020ef35486f43c2607aa7841fd7fa85f1ba4566ef4d305135ade8ce651171556d60"}, "vout": 1, "txid": "1f9df275e1d8e8d97e4879b9c3c54925b70247ae3a8ca513d8f0d819d074b8e8"}], "txid": "dfe24408aff03856368dece2a2724a64a828b03d202eb434242b98f626e04c46", "blocktime": 1537870928, "version": 1, "confirmations": 11514, "time": 1537870928, "locktime": 0, "vsize": 208, "size": 374}