{"hash": "d5ec65d109c0e7950a670e0b85aa3e82982ba92c11b3a7a4abc0433a9a90dd7a", "blockhash": "0000000000000000000e13cef7c366c0283d82e591d1acd082e914b08063cdf1", "vout": [{"scriptPubKey": {"reqSigs": 1, "hex": "a914d3c9a5909a49f6fbb2e6d7fd481a7ea8bdc83ab487", "addresses": ["3Lzr4gSuexdvFnNxd6HKgPR18t8s2Q4gBb"], "asm": "OP_HASH160 d3c9a5909a49f6fbb2e6d7fd481a7ea8bdc83ab4 OP_EQUAL", "type": "scripthash"}, "value": 0.34842329, "n": 0}, {"scriptPubKey": {"reqSigs": 1, "hex": "a914d82a6b619733a06aa3e6f8e592d80549a255ddc987", "addresses": ["3MPzhLNH1gsSCXnpu5Qef5bvp4rkVVrWbQ"], "asm": "OP_HASH160 d82a6b619733a06aa3e6f8e592d80549a255ddc9 OP_EQUAL", "type": "scripthash"}, "value": 0.3957933, "n": 1}, {"scriptPubKey": {"reqSigs": 1, "hex": "a914a9366a15437e0f85da3eeee7c38249ba2a7712fb87", "addresses": ["3H7jJjvv99WrFCJRcbNk9zTQByqNzxCLC8"], "asm": "OP_HASH160 a9366a15437e0f85da3eeee7c38249ba2a7712fb OP_EQUAL", "type": "scripthash"}, "value": 0.79202211, "n": 2}, {"scriptPubKey": {"reqSigs": 1, "hex": "a914c67c1dca871221a3f4c36524222d79c042543d4e87", "addresses": ["3KnWQHMnmb59GDENDxe3vn8Cz7Mj9qoDHc"], "asm": "OP_HASH160 c67c1dca871221a3f4c36524222d79c042543d4e OP_EQUAL", "type": "scripthash"}, "value": 12.59152691, "n": 3}, {"scriptPubKey": {"reqSigs": 1, "hex": "a9143b2bc139cd3b86f7a19a1efe85682fa8ca2d47fd87", "addresses": ["375tCzpdBigsSQzeWpAPiJvdCPz7BxBnh7"], "asm": "OP_HASH160 3b2bc139cd3b86f7a19a1efe85682fa8ca2d47fd OP_EQUAL", "type": "scripthash"}, "value": 0.07918993, "n": 4}], "hex": "010000000001021856124c5f38b1e84434dd01755c38e28b5705d5322fa3c3fc74d531d89e588f02000000fdfe0000483045022100ea6c19ef16069fef89dbc7fa976f094a551cd2a5bbecd5f87e489d2bc848d418022037c3370e5cbee24400df0e7e9461edb8b9bf493edce0f181285f3f048420e16401483045022100d2ba58bebac3f00befb3445c5ff7c1994ee97293ef831f3616a03aad8f20d70002204140b4eba47797f54f35ed31d1644ed3e78ab57435164caaef1b5232d8034ebd014c69522102411e6c9e8e794b232976a711c8b058f1f24bc4675e019854bb7f3f97f82f58f021036136cd92a640039ea9727f756cda109034d6d841b8e58bdcd71a0c31d16ef8082103ff9a399fc834e42e662a166085f34233d5571fbf620a9b6ca468d94c437105f453aeffffffff393fccb02cb7771313e493c89433e02bb36f7a541d21551481190dcf04b2985e00000000232200208b489b982ff7aae9cfe1505e3eb20e875d225d959af7442dfe60f9c7586137ecffffffff05d9a613020000000017a914d3c9a5909a49f6fbb2e6d7fd481a7ea8bdc83ab487c2ee5b020000000017a914d82a6b619733a06aa3e6f8e592d80549a255ddc987a387b8040000000017a914a9366a15437e0f85da3eeee7c38249ba2a7712fb8733250d4b0000000017a914c67c1dca871221a3f4c36524222d79c042543d4e8791d578000000000017a9143b2bc139cd3b86f7a19a1efe85682fa8ca2d47fd87000400483045022100f5225cbadb647b526e3a5c62c3aa13382cffcd7e86990c349df2329a6b5b5ce202204f2d5dcf75f13d90e8bf00982686b5ac6f3e3e2853c5ac1ab539e3d2dfea0a620147304402205e5cc1a77cf41df09bd450490250f3db5da4ec402105de27833e91a69dd7d8130220361e8e26ccab5faef1781d68d3babc32b11c0b72d09b592098cc5b1412e260be01695221033c50d1325e10cc7acc1f4ecff6715a3026b64be2c3d2fc6df5a4053f3b0ce68a210325ba0fbc67aad5b7f584b29dc7b162633f6305061852f5c5dca63fa642c46b442102292eacc4e837d698637989eafc63b4e1150161055d4502435317f7beac58984e53ae00000000", "vin": [{"sequence": 4294967295, "scriptSig": {"hex": "00483045022100ea6c19ef16069fef89dbc7fa976f094a551cd2a5bbecd5f87e489d2bc848d418022037c3370e5cbee24400df0e7e9461edb8b9bf493edce0f181285f3f048420e16401483045022100d2ba58bebac3f00befb3445c5ff7c1994ee97293ef831f3616a03aad8f20d70002204140b4eba47797f54f35ed31d1644ed3e78ab57435164caaef1b5232d8034ebd014c69522102411e6c9e8e794b232976a711c8b058f1f24bc4675e019854bb7f3f97f82f58f021036136cd92a640039ea9727f756cda109034d6d841b8e58bdcd71a0c31d16ef8082103ff9a399fc834e42e662a166085f34233d5571fbf620a9b6ca468d94c437105f453ae", "asm": "0 3045022100ea6c19ef16069fef89dbc7fa976f094a551cd2a5bbecd5f87e489d2bc848d418022037c3370e5cbee24400df0e7e9461edb8b9bf493edce0f181285f3f048420e164[ALL] 3045022100d2ba58bebac3f00befb3445c5ff7c1994ee97293ef831f3616a03aad8f20d70002204140b4eba47797f54f35ed31d1644ed3e78ab57435164caaef1b5232d8034ebd[ALL] 522102411e6c9e8e794b232976a711c8b058f1f24bc4675e019854bb7f3f97f82f58f021036136cd92a640039ea9727f756cda109034d6d841b8e58bdcd71a0c31d16ef8082103ff9a399fc834e42e662a166085f34233d5571fbf620a9b6ca468d94c437105f453ae"}, "vout": 2, "txid": "8f589ed831d574fcc3a32f32d505578be2385c7501dd3444e8b1385f4c125618"}, {"txinwitness": ["", "3045022100f5225cbadb647b526e3a5c62c3aa13382cffcd7e86990c349df2329a6b5b5ce202204f2d5dcf75f13d90e8bf00982686b5ac6f3e3e2853c5ac1ab539e3d2dfea0a6201", "304402205e5cc1a77cf41df09bd450490250f3db5da4ec402105de27833e91a69dd7d8130220361e8e26ccab5faef1781d68d3babc32b11c0b72d09b592098cc5b1412e260be01", "5221033c50d1325e10cc7acc1f4ecff6715a3026b64be2c3d2fc6df5a4053f3b0ce68a210325ba0fbc67aad5b7f584b29dc7b162633f6305061852f5c5dca63fa642c46b442102292eacc4e837d698637989eafc63b4e1150161055d4502435317f7beac58984e53ae"], "sequence": 4294967295, "scriptSig": {"hex": "2200208b489b982ff7aae9cfe1505e3eb20e875d225d959af7442dfe60f9c7586137ec", "asm": "00208b489b982ff7aae9cfe1505e3eb20e875d225d959af7442dfe60f9c7586137ec"}, "vout": 0, "txid": "5e98b204cf0d19811455211d547a6fb32be03394c893e4131377b72cb0cc3f39"}], "txid": "dfe38082d292bad3863c9b0d81e5d1fe20d52cf0889007cffbadc6c7ee9b1568", "blocktime": 1537871767, "version": 1, "confirmations": 11490, "time": 1537871767, "locktime": 0, "vsize": 607, "size": 799}