{"hash": "dfe42479706a8ca0440cf97061d889a14e18ee29055c42795ecb82aa31ecb0b2", "blockhash": "0000000000000000001e0dab787dd257d1dbfcb92a98c2207d5e1078be1f4165", "vout": [{"scriptPubKey": {"reqSigs": 1, "hex": "76a914251280271828c3e5f4e333adf0c7741e62022bd288ac", "addresses": ["14P2AYRJj5o5JVUist5yEGrRze4rjHyV2a"], "asm": "OP_DUP OP_HASH160 251280271828c3e5f4e333adf0c7741e62022bd2 OP_EQUALVERIFY OP_CHECKSIG", "type": "pubkeyhash"}, "value": 0.003, "n": 0}, {"scriptPubKey": {"reqSigs": 1, "hex": "76a9144f5078a235ae74d9ad64a10930a5dcddedf23d6d88ac", "addresses": ["18ENnPpDUPnoDttNYd14KHG924x4WfwQHZ"], "asm": "OP_DUP OP_HASH160 4f5078a235ae74d9ad64a10930a5dcddedf23d6d OP_EQUALVERIFY OP_CHECKSIG", "type": "pubkeyhash"}, "value": 0.01797836, "n": 1}], "hex": "02000000016f6ddcd62e342febe27dc1f443ce7f432939143756971924324894adcd4ac4eb000000006a473044022051891b2d28be525ad7371a82ddc0a1c209512ec88c690763f74ea82ac9cc1b6e02205182dafd79b2bd6f2536f86c2f66130c3cf04c67162969fc1756ff82a47c63300121039b8d73eaf52c853bfb3b7861c63dae340decd49328f8ac119ec877eab907ebbefeffffff02e0930400000000001976a914251280271828c3e5f4e333adf0c7741e62022bd288accc6e1b00000000001976a9144f5078a235ae74d9ad64a10930a5dcddedf23d6d88ac12490800", "vin": [{"sequence": 4294967294, "scriptSig": {"hex": "473044022051891b2d28be525ad7371a82ddc0a1c209512ec88c690763f74ea82ac9cc1b6e02205182dafd79b2bd6f2536f86c2f66130c3cf04c67162969fc1756ff82a47c63300121039b8d73eaf52c853bfb3b7861c63dae340decd49328f8ac119ec877eab907ebbe", "asm": "3044022051891b2d28be525ad7371a82ddc0a1c209512ec88c690763f74ea82ac9cc1b6e02205182dafd79b2bd6f2536f86c2f66130c3cf04c67162969fc1756ff82a47c6330[ALL] 039b8d73eaf52c853bfb3b7861c63dae340decd49328f8ac119ec877eab907ebbe"}, "vout": 0, "txid": "ebc44acdad9448322419975637143929437fce43f4c17de2eb2f342ed6dc6d6f"}], "txid": "dfe42479706a8ca0440cf97061d889a14e18ee29055c42795ecb82aa31ecb0b2", "blocktime": 1537872475, "version": 2, "confirmations": 11487, "time": 1537872475, "locktime": 542994, "vsize": 225, "size": 225}