{"hash": "5cef3d54fd36a13b31054413ab5508a82f7b24853ce52868aa63cbc44e636df8", "blockhash": "00000000000000000017f5eb5941039fbcee6240d03bc1f2f8e35350df66a1d8", "vout": [{"scriptPubKey": {"reqSigs": 1, "hex": "a914b44337f216fcdcf0a5895a72e8c4169a68ef293e87", "addresses": ["3J8A5VuG2KUQmCweiwHBDfv67VqWTciCM2"], "asm": "OP_HASH160 b44337f216fcdcf0a5895a72e8c4169a68ef293e OP_EQUAL", "type": "scripthash"}, "value": 0.04129058, "n": 0}], "hex": "0100000000010121a3cdc7f3ad47ffec50b0087c554e846e2b7f2c051ff93fc1ae011113d4dad70b000000171600144b813aad5e581f7a88fb6e393d55ba01ccd2c5c4ffffffff0122013f000000000017a914b44337f216fcdcf0a5895a72e8c4169a68ef293e8702483045022100f4231c27e1788e4d0a0c2f2a5f862066f342fcf7b5db28c3654d66b4f1aae67d022075733b66135f5eea64512ed57e5cc6c0a1776a50b790e8078961af4da3353b86012102764cbb48fb580516eda5b6cb5ef5d545b4617f2942238133896a897135783d4b00000000", "vin": [{"txinwitness": ["3045022100f4231c27e1788e4d0a0c2f2a5f862066f342fcf7b5db28c3654d66b4f1aae67d022075733b66135f5eea64512ed57e5cc6c0a1776a50b790e8078961af4da3353b8601", "02764cbb48fb580516eda5b6cb5ef5d545b4617f2942238133896a897135783d4b"], "sequence": 4294967295, "scriptSig": {"hex": "1600144b813aad5e581f7a88fb6e393d55ba01ccd2c5c4", "asm": "00144b813aad5e581f7a88fb6e393d55ba01ccd2c5c4"}, "vout": 11, "txid": "d7dad4131101aec13ff91f052c7f2b6e844e557c08b050ecff47adf3c7cda321"}], "txid": "dfec31cec2f2eb81feb7f6b73f62f9b7f8e29a7bfd598f469d101b5e5027a45c", "blocktime": 1537874412, "version": 1, "confirmations": 11467, "time": 1537874412, "locktime": 0, "vsize": 134, "size": 216}