{"hash": "dff4913308a448a428fca4e89fd2615fa8c11c1dd0a3ec13bba593d6fb7fbac3", "blockhash": "0000000000000000001f76057863aec43deb6fa401d9628bb513d65a8098bfab", "vout": [{"scriptPubKey": {"reqSigs": 1, "hex": "76a914d243e6abb9a60fbff430b421d2df4b7d59ec186088ac", "addresses": ["1LAnF8h3qMGx3TSwNUHVneBZUEpwE4gu3D"], "asm": "OP_DUP OP_HASH160 d243e6abb9a60fbff430b421d2df4b7d59ec1860 OP_EQUALVERIFY OP_CHECKSIG", "type": "pubkeyhash"}, "value": 0.00077314, "n": 0}, {"scriptPubKey": {"reqSigs": 1, "hex": "76a9147a74172304d0e7c5831f531a5a8ea332fe65842488ac", "addresses": ["1CAUWWF6R239K9cYKKghYrsoBNc9V1SknZ"], "asm": "OP_DUP OP_HASH160 7a74172304d0e7c5831f531a5a8ea332fe658424 OP_EQUALVERIFY OP_CHECKSIG", "type": "pubkeyhash"}, "value": 5.46e-06, "n": 1}, {"scriptPubKey": {"type": "nulldata", "hex": "6a146f6d6e69000000000000001f000001c0f0184130", "asm": "OP_RETURN 6f6d6e69000000000000001f000001c0f0184130"}, "value": 0.0, "n": 2}], "hex": "01000000019a3d0bfddc7c214a85c73f0d8a0bbc14235497971032e9dd72f145f683af9f92000000006b483045022100a062deddd9ab21d113c963b966e6b5e90463237a398c33bfeb52cfe6d5d910a202201754e8a21cbd77a66ddd82ee72701793465809a574a9bdfc84e6e4f1e2a0b45201210271977291b74f1f5f5c42157e8aae804664eaaeccfd097918450d37f28fb94d77ffffffff03022e0100000000001976a914d243e6abb9a60fbff430b421d2df4b7d59ec186088ac22020000000000001976a9147a74172304d0e7c5831f531a5a8ea332fe65842488ac0000000000000000166a146f6d6e69000000000000001f000001c0f018413000000000", "vin": [{"sequence": 4294967295, "scriptSig": {"hex": "483045022100a062deddd9ab21d113c963b966e6b5e90463237a398c33bfeb52cfe6d5d910a202201754e8a21cbd77a66ddd82ee72701793465809a574a9bdfc84e6e4f1e2a0b45201210271977291b74f1f5f5c42157e8aae804664eaaeccfd097918450d37f28fb94d77", "asm": "3045022100a062deddd9ab21d113c963b966e6b5e90463237a398c33bfeb52cfe6d5d910a202201754e8a21cbd77a66ddd82ee72701793465809a574a9bdfc84e6e4f1e2a0b452[ALL] 0271977291b74f1f5f5c42157e8aae804664eaaeccfd097918450d37f28fb94d77"}, "vout": 0, "txid": "929faf83f645f172dde932109797542314bc0b8a0d3fc7854a217cdcfd0b3d9a"}], "txid": "dff4913308a448a428fca4e89fd2615fa8c11c1dd0a3ec13bba593d6fb7fbac3", "blocktime": 1537873891, "version": 1, "confirmations": 11475, "time": 1537873891, "locktime": 0, "vsize": 257, "size": 257}