{"hash": "c78f5544ae93dd579b73c6f6f12e555d1a85409b688faa7f4fc25a70a1762904", "blockhash": "00000000000000000017f5eb5941039fbcee6240d03bc1f2f8e35350df66a1d8", "vout": [{"scriptPubKey": {"reqSigs": 1, "hex": "001476569dc764abc7e730bbb864910de224dff1573f", "addresses": ["bc1qwetfm3my40r7wv9mhpjfzr0zyn0lz4elmzyl7p"], "asm": "0 76569dc764abc7e730bbb864910de224dff1573f", "type": "witness_v0_keyhash"}, "value": 0.00027874, "n": 0}, {"scriptPubKey": {"reqSigs": 1, "hex": "76a9147596866f008e2720a6dd69fb947a27a12c87e28188ac", "addresses": ["1BikP7bFvAdMS82mwVfHP1hUqvfrpGWH86"], "asm": "OP_DUP OP_HASH160 7596866f008e2720a6dd69fb947a27a12c87e281 OP_EQUALVERIFY OP_CHECKSIG", "type": "pubkeyhash"}, "value": 0.00651338, "n": 1}], "hex": "01000000000101d059a1436d046b48fd5474786faf3155fa387f741bee302f78615115b918310d0100000000ffffffff02e26c00000000000016001476569dc764abc7e730bbb864910de224dff1573f4af00900000000001976a9147596866f008e2720a6dd69fb947a27a12c87e28188ac0248304502210093eac0cce49f820c6594b24bf8c1f2d65e82156e8239389985b1c58417f78db10220303a0989b9f2d2b4194a49d996502d1bb0d51117382324e8aaf25a23b2ea541c012103e8b844369a66d1b10c88704505c6f6c55c337b24da851495e5af4ef6263c084200000000", "vin": [{"txinwitness": ["304502210093eac0cce49f820c6594b24bf8c1f2d65e82156e8239389985b1c58417f78db10220303a0989b9f2d2b4194a49d996502d1bb0d51117382324e8aaf25a23b2ea541c01", "03e8b844369a66d1b10c88704505c6f6c55c337b24da851495e5af4ef6263c0842"], "sequence": 4294967295, "scriptSig": {"hex": "", "asm": ""}, "vout": 1, "txid": "0d3118b9155161782f30ee1b747f38fa5531af6f787454fd486b046d43a159d0"}], "txid": "dffe8ed41eec943a975943453d4563189fa9dc5c5c7702dbbd5d687152fdd79b", "blocktime": 1537874412, "version": 1, "confirmations": 11467, "time": 1537874412, "locktime": 0, "vsize": 144, "size": 226}