{"hash": "e004a7d5fdb8abbbb54f24349e96f93d08deb0f0a7f9ab34adaebcdf508bffc5", "blockhash": "0000000000000000000e13cef7c366c0283d82e591d1acd082e914b08063cdf1", "vout": [{"scriptPubKey": {"type": "nulldata", "hex": "6a146f6d6e69000000000000001f00000007aef40a00", "asm": "OP_RETURN 6f6d6e69000000000000001f00000007aef40a00"}, "value": 0.0, "n": 0}, {"scriptPubKey": {"reqSigs": 1, "hex": "76a914311501b7076dd9d5be36416376c217bafbd6bd7e88ac", "addresses": ["15UXGyJXomEF2FMFGNwa1yiBY4mRda62KQ"], "asm": "OP_DUP OP_HASH160 311501b7076dd9d5be36416376c217bafbd6bd7e OP_EQUALVERIFY OP_CHECKSIG", "type": "pubkeyhash"}, "value": 0.00219498, "n": 1}], "hex": "01000000026963cdad5c386e9c1ab6d5ae262364a98ba87485724d6ad22b16414b3dff0ca4020000006b483045022100800e6be9540377b647fdba7cd0395d55fdced03b2d1273a7cce6344a5ce9b4110220683c588ef85d63dd82883ffaaa64d2a9c9b9252fcd3ff51b14970e56018681cd012103bb9221e7333526ce29c91be9e6fcfac0551c1818e28b5f6a4cc9b9be67a34493ffffffff538d7d7de595b41f06325bb864098ddd2edab713c8fd9efbc7927fd8d918a688010000006a47304402201010d8538ae8fb92dcbec511c779f3d5cd5515beb6a08a62a4d14337a9a21abe0220446315bafa380d2f5e56a4e8932afa52831fe3c5c51b00343945f6812a2a500a012103ace9f4487b96c5599fbcabf506252f4a3512e1c0760a70ac1ebbd1a46e8d52daffffffff020000000000000000166a146f6d6e69000000000000001f00000007aef40a006a590300000000001976a914311501b7076dd9d5be36416376c217bafbd6bd7e88ac00000000", "vin": [{"sequence": 4294967295, "scriptSig": {"hex": "483045022100800e6be9540377b647fdba7cd0395d55fdced03b2d1273a7cce6344a5ce9b4110220683c588ef85d63dd82883ffaaa64d2a9c9b9252fcd3ff51b14970e56018681cd012103bb9221e7333526ce29c91be9e6fcfac0551c1818e28b5f6a4cc9b9be67a34493", "asm": "3045022100800e6be9540377b647fdba7cd0395d55fdced03b2d1273a7cce6344a5ce9b4110220683c588ef85d63dd82883ffaaa64d2a9c9b9252fcd3ff51b14970e56018681cd[ALL] 03bb9221e7333526ce29c91be9e6fcfac0551c1818e28b5f6a4cc9b9be67a34493"}, "vout": 2, "txid": "a40cff3d4b41162bd26a4d728574a88ba9642326aed5b61a9c6e385cadcd6369"}, {"sequence": 4294967295, "scriptSig": {"hex": "47304402201010d8538ae8fb92dcbec511c779f3d5cd5515beb6a08a62a4d14337a9a21abe0220446315bafa380d2f5e56a4e8932afa52831fe3c5c51b00343945f6812a2a500a012103ace9f4487b96c5599fbcabf506252f4a3512e1c0760a70ac1ebbd1a46e8d52da", "asm": "304402201010d8538ae8fb92dcbec511c779f3d5cd5515beb6a08a62a4d14337a9a21abe0220446315bafa380d2f5e56a4e8932afa52831fe3c5c51b00343945f6812a2a500a[ALL] 03ace9f4487b96c5599fbcabf506252f4a3512e1c0760a70ac1ebbd1a46e8d52da"}, "vout": 1, "txid": "88a618d9d87f92c7fb9efdc813b7da2edd8d0964b85b32061fb495e57d7d8d53"}], "txid": "e004a7d5fdb8abbbb54f24349e96f93d08deb0f0a7f9ab34adaebcdf508bffc5", "blocktime": 1537871767, "version": 1, "confirmations": 11490, "time": 1537871767, "locktime": 0, "vsize": 370, "size": 370}