{"hash": "e00603a9ab9bfb77c8ac97a1a0de818da7dedaee7342d3af6b1eb758afe98b9a", "blockhash": "0000000000000000001f0ddff1eddb255c1121bcd4da4f1bc9a0da00cae72433", "vout": [{"scriptPubKey": {"reqSigs": 1, "hex": "76a914ee53655914d1b664160d3f8c9b6025c6e48eee4b88ac", "addresses": ["1Nj9j71qWn6YwxzUxsDvHAuSAu6oEuUafE"], "asm": "OP_DUP OP_HASH160 ee53655914d1b664160d3f8c9b6025c6e48eee4b OP_EQUALVERIFY OP_CHECKSIG", "type": "pubkeyhash"}, "value": 0.00644332, "n": 0}, {"scriptPubKey": {"type": "nulldata", "hex": "6a4c50000077a70001bce166cdd5c3a8a548e45712af6c953dd567cf27e7e3ef3236678a62509738897a2b0c6b1d23b3efafcc8f3883695baa0f96061395acacf5c7191d100759d4ba30d2c37bb011d97e02cf", "asm": "OP_RETURN 000077a70001bce166cdd5c3a8a548e45712af6c953dd567cf27e7e3ef3236678a62509738897a2b0c6b1d23b3efafcc8f3883695baa0f96061395acacf5c7191d100759d4ba30d2c37bb011d97e02cf"}, "value": 0.0, "n": 1}], "hex": "01000000010ce3e7585af09f72ca63e4ecb7170191a504218ed8c8954fb45c24ecc3e8e600010000006a47304402207cd9c52c6204ba96053b184b10ea96a9f885ff46fe06944b496563882bb913e502204a20feaac95b29465b2ba7043331ac8729bd08461d97dcfb4181d31b1a4a036d0121032dc4bf53be8cc575c19e516a35c8eb5520ffd24f707ab5ab1333c59381126d07ffffffff02ecd40900000000001976a914ee53655914d1b664160d3f8c9b6025c6e48eee4b88ac0000000000000000536a4c50000077a70001bce166cdd5c3a8a548e45712af6c953dd567cf27e7e3ef3236678a62509738897a2b0c6b1d23b3efafcc8f3883695baa0f96061395acacf5c7191d100759d4ba30d2c37bb011d97e02cf00000000", "vin": [{"sequence": 4294967295, "scriptSig": {"hex": "47304402207cd9c52c6204ba96053b184b10ea96a9f885ff46fe06944b496563882bb913e502204a20feaac95b29465b2ba7043331ac8729bd08461d97dcfb4181d31b1a4a036d0121032dc4bf53be8cc575c19e516a35c8eb5520ffd24f707ab5ab1333c59381126d07", "asm": "304402207cd9c52c6204ba96053b184b10ea96a9f885ff46fe06944b496563882bb913e502204a20feaac95b29465b2ba7043331ac8729bd08461d97dcfb4181d31b1a4a036d[ALL] 032dc4bf53be8cc575c19e516a35c8eb5520ffd24f707ab5ab1333c59381126d07"}, "vout": 1, "txid": "00e6e8c3ec245cb44f95c8d88e2104a5910117b7ece463ca729ff05a58e7e30c"}], "txid": "e00603a9ab9bfb77c8ac97a1a0de818da7dedaee7342d3af6b1eb758afe98b9a", "blocktime": 1537872018, "version": 1, "confirmations": 11489, "time": 1537872018, "locktime": 0, "vsize": 283, "size": 283}