{"hash": "6083bf6c9f95639c9fbd0b96d4d59bcd735fed0471d2725e565ec2e0fdd6d9b8", "blockhash": "0000000000000000000dcc0f55137456b1a82d3642486a52398922ac4d620174", "vout": [{"scriptPubKey": {"reqSigs": 1, "hex": "a91459aa3b68c275b289ce8dd3af36d00744ebef153087", "addresses": ["39s7zYju6f5Xgv6qvYvRoJFspivQ9JS4Tg"], "asm": "OP_HASH160 59aa3b68c275b289ce8dd3af36d00744ebef1530 OP_EQUAL", "type": "scripthash"}, "value": 0.00385095, "n": 0}, {"scriptPubKey": {"reqSigs": 1, "hex": "76a914f4c08734e2cd61135efeb15a94d1e09da148c90988ac", "addresses": ["1PK8Wu2gQTZRDyGCGHRqLdv6zymKH8RNVH"], "asm": "OP_DUP OP_HASH160 f4c08734e2cd61135efeb15a94d1e09da148c909 OP_EQUALVERIFY OP_CHECKSIG", "type": "pubkeyhash"}, "value": 0.01637557, "n": 1}], "hex": "010000000001012081762b0d9120a11385f08395ae7b246edcc72b8379d8e4b131e84cea8aba5600000000232200204ab1413fe69f1f7e8fe388f76b0e201417783a9f4ea8f3fb64459bbc1d787579ffffffff0247e005000000000017a91459aa3b68c275b289ce8dd3af36d00744ebef153087b5fc1800000000001976a914f4c08734e2cd61135efeb15a94d1e09da148c90988ac040047304402205822d49a81e2f8f4be937b45e45ce6b8f7c0e6a9a4a5d82ab5feb29c9b6bbc9f022009ca5390ed561e61f0f8daa823307917526fe78a571f7d157bbfe276e60d4a2901483045022100d4dd16b53c4071d4561d6c06b8b797c92742c005ddd86fd4bfcc6965689959c402205587bae17fd858fa163f97b7c752afe55ea97413176a8022c14b85eee8c1123f016952210296f4b502dc3ca8663f006614f3aded40d1a9c3657027423cb9ee7c084126e64e210233c69921d0e50c558b691778c4af471e6722294417474c48d9541763ae4b26592102a93de6ac99373da32e7853aa389432d5b9ce1ad9bd43fc76b1b542e9050fa24d53ae00000000", "vin": [{"txinwitness": ["", "304402205822d49a81e2f8f4be937b45e45ce6b8f7c0e6a9a4a5d82ab5feb29c9b6bbc9f022009ca5390ed561e61f0f8daa823307917526fe78a571f7d157bbfe276e60d4a2901", "3045022100d4dd16b53c4071d4561d6c06b8b797c92742c005ddd86fd4bfcc6965689959c402205587bae17fd858fa163f97b7c752afe55ea97413176a8022c14b85eee8c1123f01", "52210296f4b502dc3ca8663f006614f3aded40d1a9c3657027423cb9ee7c084126e64e210233c69921d0e50c558b691778c4af471e6722294417474c48d9541763ae4b26592102a93de6ac99373da32e7853aa389432d5b9ce1ad9bd43fc76b1b542e9050fa24d53ae"], "sequence": 4294967295, "scriptSig": {"hex": "2200204ab1413fe69f1f7e8fe388f76b0e201417783a9f4ea8f3fb64459bbc1d787579", "asm": "00204ab1413fe69f1f7e8fe388f76b0e201417783a9f4ea8f3fb64459bbc1d787579"}, "vout": 0, "txid": "56ba8aea4ce831b1e4d879832bc7dc6e247bae9583f08513a120910d2b768120"}], "txid": "e01025d68a0afaaa91f4d4c192946fd01f23431834ada029e1f8e73cd90db1e0", "blocktime": 1537870268, "version": 1, "confirmations": 11518, "time": 1537870268, "locktime": 0, "vsize": 216, "size": 407}