{"hash": "fe0764316aab56bc394504b3ba2812ec42d371f04211fa622f908f2168d3b7f4", "blockhash": "0000000000000000001cda96e906b7601b7a6fb1a3b62bca570a9e5d8f4b3de1", "vout": [{"scriptPubKey": {"reqSigs": 1, "hex": "0014fc3ebd4255a506257f4381df97fc87455fa00187", "addresses": ["bc1qlslt6sj455rz2l6rs80e0ly8g406qqv8zm9p5q"], "asm": "0 fc3ebd4255a506257f4381df97fc87455fa00187", "type": "witness_v0_keyhash"}, "value": 0.38338278, "n": 0}, {"scriptPubKey": {"reqSigs": 1, "hex": "a9146cc38b42a78a25212c00198f276d75efd16e8cea87", "addresses": ["3Bc79tubqMbkooSZNiEU7SP818xdB7YKDK"], "asm": "OP_HASH160 6cc38b42a78a25212c00198f276d75efd16e8cea OP_EQUAL", "type": "scripthash"}, "value": 0.21216, "n": 1}], "hex": "0100000000010162544b0aed4db1e60ee0eb2ab3b77b4fe2d5d4092e8bbb0ac3a2877a19aa2fe20100000000ffffffff02e6fe480200000000160014fc3ebd4255a506257f4381df97fc87455fa0018700bb43010000000017a9146cc38b42a78a25212c00198f276d75efd16e8cea8702483045022100f64bf5ab6c2b9892cd8b1d6704bd8509a5b5b003c365c36e597bb8f7d0e723ab02204f6abee76c99db547808f6b2fa1ea3af2141f7709e27cf16a7a2f181e53440e901210217676cea36cb0fce69c2eeb9099b79d63543eb59a46935881cef30ca52c137b800000000", "vin": [{"txinwitness": ["3045022100f64bf5ab6c2b9892cd8b1d6704bd8509a5b5b003c365c36e597bb8f7d0e723ab02204f6abee76c99db547808f6b2fa1ea3af2141f7709e27cf16a7a2f181e53440e901", "0217676cea36cb0fce69c2eeb9099b79d63543eb59a46935881cef30ca52c137b8"], "sequence": 4294967295, "scriptSig": {"hex": "", "asm": ""}, "vout": 1, "txid": "e22faa197a87a2c30abb8b2e09d4d5e24f7bb7b32aebe00ee6b14ded0a4b5462"}], "txid": "e01187eafbe460027b3549ad548f928b24ca022693513488208fc30ed2857260", "blocktime": 1537873282, "version": 1, "confirmations": 11484, "time": 1537873282, "locktime": 0, "vsize": 142, "size": 224}