{"hash": "e0132e6aba26f2581012bf126574635e2409ae337419d9845d052c372ac5fed3", "blockhash": "0000000000000000001e0dab787dd257d1dbfcb92a98c2207d5e1078be1f4165", "vout": [{"scriptPubKey": {"reqSigs": 1, "hex": "a91447bf0c7af63a8c152780b637ba030f6363c39d1987", "addresses": ["38ENmTr2AD1avJrmmi9iM7PfS6nZVmuMKf"], "asm": "OP_HASH160 47bf0c7af63a8c152780b637ba030f6363c39d19 OP_EQUAL", "type": "scripthash"}, "value": 0.10992386, "n": 0}], "hex": "01000000012a754aa0c1ad5803b0088efaebb87df424ce6dfcbf5de6f2ad2c5b7741a46abf000000006b483045022100bd2c85701829fe18aa046c11bc12b7a5c64dfa9460dcabb867f8c19091eaa6eb022041941729c08b920b2e0162f7f68e3b67acd97bac9ab63e70647c10a38842b4780121027aaff6177bc2b80a703841f281af548c43f4eb6fd7587df8001a6ea839ecd15effffffff0102bba7000000000017a91447bf0c7af63a8c152780b637ba030f6363c39d198700000000", "vin": [{"sequence": 4294967295, "scriptSig": {"hex": "483045022100bd2c85701829fe18aa046c11bc12b7a5c64dfa9460dcabb867f8c19091eaa6eb022041941729c08b920b2e0162f7f68e3b67acd97bac9ab63e70647c10a38842b4780121027aaff6177bc2b80a703841f281af548c43f4eb6fd7587df8001a6ea839ecd15e", "asm": "3045022100bd2c85701829fe18aa046c11bc12b7a5c64dfa9460dcabb867f8c19091eaa6eb022041941729c08b920b2e0162f7f68e3b67acd97bac9ab63e70647c10a38842b478[ALL] 027aaff6177bc2b80a703841f281af548c43f4eb6fd7587df8001a6ea839ecd15e"}, "vout": 0, "txid": "bf6aa441775b2cadf2e65dbffc6dce24f47db8ebfa8e08b00358adc1a04a752a"}], "txid": "e0132e6aba26f2581012bf126574635e2409ae337419d9845d052c372ac5fed3", "blocktime": 1537872475, "version": 1, "confirmations": 11486, "time": 1537872475, "locktime": 0, "vsize": 190, "size": 190}