{"hash": "e01705f48aa46a95686410397b206401409d3c8cc7ae502e1668de98dddba474", "blockhash": "00000000000000000004ffacab907a6b429b9a5745fa0b75af4234bf69dd7176", "vout": [{"scriptPubKey": {"reqSigs": 1, "hex": "76a9145dfca7d011a13c5265367947d180fb8619e3c04088ac", "addresses": ["19ZxWeu74qecQuYZKimEXkm5A7rVQmRenr"], "asm": "OP_DUP OP_HASH160 5dfca7d011a13c5265367947d180fb8619e3c040 OP_EQUALVERIFY OP_CHECKSIG", "type": "pubkeyhash"}, "value": 0.00110055, "n": 0}, {"scriptPubKey": {"reqSigs": 1, "hex": "76a914e980406100f1b02d9023620d15858ca5a5fb144c88ac", "addresses": ["1NHe5mQK8w5uu6QxqnWsd6M8fPLPiYGWzA"], "asm": "OP_DUP OP_HASH160 e980406100f1b02d9023620d15858ca5a5fb144c OP_EQUALVERIFY OP_CHECKSIG", "type": "pubkeyhash"}, "value": 0.07690009, "n": 1}], "hex": "010000000188685087cfc83224bb4700d703bb647d92731269c0afb90bc4523ea1d77090dc010000006a473044022072075de5a1101943e7bb8b8b592ff37b74a8d3e4acdd652f5a73b4ec3b3b1e49022076c60ce36adaa8bce5e57270ce5c9ae0fcb71d77d8f8c4c4b6c901197c70167f012103ad603f5d3610dce0c476cc5ff31b70d340cb842f4285d362fdb63d990e4c8e16ffffffff02e7ad0100000000001976a9145dfca7d011a13c5265367947d180fb8619e3c04088ac19577500000000001976a914e980406100f1b02d9023620d15858ca5a5fb144c88ac00000000", "vin": [{"sequence": 4294967295, "scriptSig": {"hex": "473044022072075de5a1101943e7bb8b8b592ff37b74a8d3e4acdd652f5a73b4ec3b3b1e49022076c60ce36adaa8bce5e57270ce5c9ae0fcb71d77d8f8c4c4b6c901197c70167f012103ad603f5d3610dce0c476cc5ff31b70d340cb842f4285d362fdb63d990e4c8e16", "asm": "3044022072075de5a1101943e7bb8b8b592ff37b74a8d3e4acdd652f5a73b4ec3b3b1e49022076c60ce36adaa8bce5e57270ce5c9ae0fcb71d77d8f8c4c4b6c901197c70167f[ALL] 03ad603f5d3610dce0c476cc5ff31b70d340cb842f4285d362fdb63d990e4c8e16"}, "vout": 1, "txid": "dc9070d7a13e52c40bb9afc0691273927d64bb03d70047bb2432c8cf87506888"}], "txid": "e01705f48aa46a95686410397b206401409d3c8cc7ae502e1668de98dddba474", "blocktime": 1537875543, "version": 1, "confirmations": 11464, "time": 1537875543, "locktime": 0, "vsize": 225, "size": 225}