{"hash": "e0193995089a524fda472965cf1370e42c707d7ae38fb9699dd79759285367f8", "blockhash": "0000000000000000000baef3f32e3676a92c3b2e5da21b426e4f302fc371ce76", "vout": [{"scriptPubKey": {"reqSigs": 1, "hex": "76a9147c6b41a7c933d4981a548c97f7bc62e1e3c7309388ac", "addresses": ["1CLsH6d1CeAUTQuLvwmPuAb1BA1s18Vx7i"], "asm": "OP_DUP OP_HASH160 7c6b41a7c933d4981a548c97f7bc62e1e3c73093 OP_EQUALVERIFY OP_CHECKSIG", "type": "pubkeyhash"}, "value": 0.001, "n": 0}, {"scriptPubKey": {"reqSigs": 1, "hex": "76a914e163d073e054266d0f5e025eebd6100b0c946b5b88ac", "addresses": ["1MYkcNyCtPmxivKoMy5v5VBkv6LuBrgrAy"], "asm": "OP_DUP OP_HASH160 e163d073e054266d0f5e025eebd6100b0c946b5b OP_EQUALVERIFY OP_CHECKSIG", "type": "pubkeyhash"}, "value": 0.05587494, "n": 1}], "hex": "010000000156feedfe9d1059a2fa2cda2d4fd2eab8a4002a9677370d2fa1ef841dbdcac993010000006b483045022100892cf8cd00d34799699fc51c96ef14bffa84859f46b2105ad4aaec2d290484c902200cee37d9f091e8de8f389e4dd196e9c24b85078957a009285a3cf8dfc5e515ec0121033387315522fd785dc6a3184e4f2acbd937f90409a105c06583c94e6554220085ffffffff02a0860100000000001976a9147c6b41a7c933d4981a548c97f7bc62e1e3c7309388ac26425500000000001976a914e163d073e054266d0f5e025eebd6100b0c946b5b88ac00000000", "vin": [{"sequence": 4294967295, "scriptSig": {"hex": "483045022100892cf8cd00d34799699fc51c96ef14bffa84859f46b2105ad4aaec2d290484c902200cee37d9f091e8de8f389e4dd196e9c24b85078957a009285a3cf8dfc5e515ec0121033387315522fd785dc6a3184e4f2acbd937f90409a105c06583c94e6554220085", "asm": "3045022100892cf8cd00d34799699fc51c96ef14bffa84859f46b2105ad4aaec2d290484c902200cee37d9f091e8de8f389e4dd196e9c24b85078957a009285a3cf8dfc5e515ec[ALL] 033387315522fd785dc6a3184e4f2acbd937f90409a105c06583c94e6554220085"}, "vout": 1, "txid": "93c9cabd1d84efa12f0d3777962a00a4b8ead24f2dda2cfaa259109dfeedfe56"}], "txid": "e0193995089a524fda472965cf1370e42c707d7ae38fb9699dd79759285367f8", "blocktime": 1537876114, "version": 1, "confirmations": 11459, "time": 1537876114, "locktime": 0, "vsize": 226, "size": 226}