{"hash": "e01cd7e81307d8d4b093c7edf93aed84101bc2ed118112671c64f48507bd4db0", "blockhash": "00000000000000000004ffacab907a6b429b9a5745fa0b75af4234bf69dd7176", "vout": [{"scriptPubKey": {"reqSigs": 1, "hex": "76a914578ff19c6bbe807dfc1218d9b1c6d3ca08d874bc88ac", "addresses": ["18yzE5bqvidaKohYJMgvDoMRWteAhHQXFK"], "asm": "OP_DUP OP_HASH160 578ff19c6bbe807dfc1218d9b1c6d3ca08d874bc OP_EQUALVERIFY OP_CHECKSIG", "type": "pubkeyhash"}, "value": 0.01566112, "n": 0}, {"scriptPubKey": {"reqSigs": 1, "hex": "76a9140c08045d6b318f67a3288954c20bd826d4e4f78588ac", "addresses": ["126ciLWdwbzkgwi4D7ZCKAjZ4qANSV7P8H"], "asm": "OP_DUP OP_HASH160 0c08045d6b318f67a3288954c20bd826d4e4f785 OP_EQUALVERIFY OP_CHECKSIG", "type": "pubkeyhash"}, "value": 0.00751178, "n": 1}], "hex": "0100000001f0374537a6bf877ff473daec3491d67222c92fe0d212d8fe2f03fc57fe4efbde010000006b483045022100a6db8e377ce0cf7c30d41f559aeb2de39b56dd16689c175d984e69ca49e2068b022071a6a9fca9a2bec48962b5e0426651119b57a20a1983a17172bf6e0ce2ffe976012102f3f4bc8bd9a15c6e2b5f722993076c9a542e7fee2331601c45fa4c4d68db26fbffffffff02a0e51700000000001976a914578ff19c6bbe807dfc1218d9b1c6d3ca08d874bc88ac4a760b00000000001976a9140c08045d6b318f67a3288954c20bd826d4e4f78588ac00000000", "vin": [{"sequence": 4294967295, "scriptSig": {"hex": "483045022100a6db8e377ce0cf7c30d41f559aeb2de39b56dd16689c175d984e69ca49e2068b022071a6a9fca9a2bec48962b5e0426651119b57a20a1983a17172bf6e0ce2ffe976012102f3f4bc8bd9a15c6e2b5f722993076c9a542e7fee2331601c45fa4c4d68db26fb", "asm": "3045022100a6db8e377ce0cf7c30d41f559aeb2de39b56dd16689c175d984e69ca49e2068b022071a6a9fca9a2bec48962b5e0426651119b57a20a1983a17172bf6e0ce2ffe976[ALL] 02f3f4bc8bd9a15c6e2b5f722993076c9a542e7fee2331601c45fa4c4d68db26fb"}, "vout": 1, "txid": "defb4efe57fc032ffed812d2e02fc92272d69134ecda73f47f87bfa6374537f0"}], "txid": "e01cd7e81307d8d4b093c7edf93aed84101bc2ed118112671c64f48507bd4db0", "blocktime": 1537875543, "version": 1, "confirmations": 11464, "time": 1537875543, "locktime": 0, "vsize": 226, "size": 226}