{"hash": "e03042a832487c0be98523aebfb78c298cfbad6e52a64953ab25cc82f789659a", "blockhash": "0000000000000000001cda96e906b7601b7a6fb1a3b62bca570a9e5d8f4b3de1", "vout": [{"scriptPubKey": {"reqSigs": 1, "hex": "76a9144c861c4e854551547e8f93f8d068e4327bdcd56588ac", "addresses": ["17yd1kDVG1GC14uHE73827YDq47C2CaCTj"], "asm": "OP_DUP OP_HASH160 4c861c4e854551547e8f93f8d068e4327bdcd565 OP_EQUALVERIFY OP_CHECKSIG", "type": "pubkeyhash"}, "value": 0.01946585, "n": 0}, {"scriptPubKey": {"reqSigs": 1, "hex": "a91438cad4e9ab44560c41eecc96703020ff6087629787", "addresses": ["36sJkH9R7R74nfoK6RK9WcKZ57YajVG9zU"], "asm": "OP_HASH160 38cad4e9ab44560c41eecc96703020ff60876297 OP_EQUAL", "type": "scripthash"}, "value": 0.02733118, "n": 1}], "hex": "01000000013a0849cec68f67bc072528f326bc1d39c5d4f55da3d1eae8b37ee44dc85dd22c010000006a473044022066760f18f18d36e92903bd971ccd3a82595dc1aa634d44a694112bab5b6299c60220709726ff797e39317e20120b8a2c4e1201a4c136d9c04d74fcae31f1d00578fa012102966126b91ad5b65602c846c287c7ec9121d8679df8bed884bf6ab4729cd0e5e9ffffffff02d9b31d00000000001976a9144c861c4e854551547e8f93f8d068e4327bdcd56588ac3eb429000000000017a91438cad4e9ab44560c41eecc96703020ff608762978700000000", "vin": [{"sequence": 4294967295, "scriptSig": {"hex": "473044022066760f18f18d36e92903bd971ccd3a82595dc1aa634d44a694112bab5b6299c60220709726ff797e39317e20120b8a2c4e1201a4c136d9c04d74fcae31f1d00578fa012102966126b91ad5b65602c846c287c7ec9121d8679df8bed884bf6ab4729cd0e5e9", "asm": "3044022066760f18f18d36e92903bd971ccd3a82595dc1aa634d44a694112bab5b6299c60220709726ff797e39317e20120b8a2c4e1201a4c136d9c04d74fcae31f1d00578fa[ALL] 02966126b91ad5b65602c846c287c7ec9121d8679df8bed884bf6ab4729cd0e5e9"}, "vout": 1, "txid": "2cd25dc84de47eb3e8ead1a35df5d4c5391dbc26f3282507bc678fc6ce49083a"}], "txid": "e03042a832487c0be98523aebfb78c298cfbad6e52a64953ab25cc82f789659a", "blocktime": 1537873282, "version": 1, "confirmations": 11485, "time": 1537873282, "locktime": 0, "vsize": 223, "size": 223}