{"hash": "e03610e57fa66359eeec31e53a1456e73548347ab825f5256897591dcbab1794", "blockhash": "0000000000000000001cda96e906b7601b7a6fb1a3b62bca570a9e5d8f4b3de1", "vout": [{"scriptPubKey": {"reqSigs": 1, "hex": "76a9147bdeef07df90246d63d8bb763d143c0941198ff588ac", "addresses": ["1CHyBJU272jLWz1ovG7Wj2NKJUFQt8nxZD"], "asm": "OP_DUP OP_HASH160 7bdeef07df90246d63d8bb763d143c0941198ff5 OP_EQUALVERIFY OP_CHECKSIG", "type": "pubkeyhash"}, "value": 5.46e-06, "n": 0}, {"scriptPubKey": {"reqSigs": 1, "hex": "a9143f4eecba122ad73039d481c8d37f99cb4f887cd887", "addresses": ["37Tm3Qz8Zw2VJrheUUhArDAoq58S6YrS3g"], "asm": "OP_HASH160 3f4eecba122ad73039d481c8d37f99cb4f887cd8 OP_EQUAL", "type": "scripthash"}, "value": 0.9998727, "n": 1}, {"scriptPubKey": {"type": "nulldata", "hex": "6a146f6d6e69000000000000001f00001b48df6c1e00", "asm": "OP_RETURN 6f6d6e69000000000000001f00001b48df6c1e00"}, "value": 0.0, "n": 2}], "hex": "0100000001feae40873201f99b25d25405647ed907d27aadd755298e14feac1fccbbce366501000000fdfd0000473044022041d64b61f9e2c4cdfdd69248e62b6f6acbd82f3f17676286f2eddbeac49cfc1c0220229cad1662635fcaeacfa5b6a82c12e5969f442beb579723c724fa44390c2b2501483045022100c4f0e4445e4be781ae89d9decb16addb7c2b58783e252ce73a63a007833b5f7e0220645bf7a5a3a775184a985cd97bca8012a7aa7d5babe096c8422e93aabd4670b0014c6952210246ccf4de0c54cc7f3354cdd993c2c50cf965fd82238b89659fbd73a1b4bf05a121024fc59f72272a897fe43803374969f396058152fe4765a8d15216f94624257b1b21022593bc69ecbf3bbcc3c58082267cb49dadaf4ca8dbf1b2297338a9d628c4297653aeffffffff0322020000000000001976a9147bdeef07df90246d63d8bb763d143c0941198ff588ac46aff5050000000017a9143f4eecba122ad73039d481c8d37f99cb4f887cd8870000000000000000166a146f6d6e69000000000000001f00001b48df6c1e0000000000", "vin": [{"sequence": 4294967295, "scriptSig": {"hex": "00473044022041d64b61f9e2c4cdfdd69248e62b6f6acbd82f3f17676286f2eddbeac49cfc1c0220229cad1662635fcaeacfa5b6a82c12e5969f442beb579723c724fa44390c2b2501483045022100c4f0e4445e4be781ae89d9decb16addb7c2b58783e252ce73a63a007833b5f7e0220645bf7a5a3a775184a985cd97bca8012a7aa7d5babe096c8422e93aabd4670b0014c6952210246ccf4de0c54cc7f3354cdd993c2c50cf965fd82238b89659fbd73a1b4bf05a121024fc59f72272a897fe43803374969f396058152fe4765a8d15216f94624257b1b21022593bc69ecbf3bbcc3c58082267cb49dadaf4ca8dbf1b2297338a9d628c4297653ae", "asm": "0 3044022041d64b61f9e2c4cdfdd69248e62b6f6acbd82f3f17676286f2eddbeac49cfc1c0220229cad1662635fcaeacfa5b6a82c12e5969f442beb579723c724fa44390c2b25[ALL] 3045022100c4f0e4445e4be781ae89d9decb16addb7c2b58783e252ce73a63a007833b5f7e0220645bf7a5a3a775184a985cd97bca8012a7aa7d5babe096c8422e93aabd4670b0[ALL] 52210246ccf4de0c54cc7f3354cdd993c2c50cf965fd82238b89659fbd73a1b4bf05a121024fc59f72272a897fe43803374969f396058152fe4765a8d15216f94624257b1b21022593bc69ecbf3bbcc3c58082267cb49dadaf4ca8dbf1b2297338a9d628c4297653ae"}, "vout": 1, "txid": "6536cebbcc1facfe148e2955d7ad7ad207d97e640554d2259bf901328740aefe"}], "txid": "e03610e57fa66359eeec31e53a1456e73548347ab825f5256897591dcbab1794", "blocktime": 1537873282, "version": 1, "confirmations": 11484, "time": 1537873282, "locktime": 0, "vsize": 403, "size": 403}