{"hash": "e03bad9680a472ee9cd5e0778c2a0f8fdcb60aa38d9f8e792b8185ef7dd2d19b", "blockhash": "0000000000000000001e0dab787dd257d1dbfcb92a98c2207d5e1078be1f4165", "vout": [{"scriptPubKey": {"reqSigs": 1, "hex": "76a914531c49b9a301e63687ab30342f44b15a449edd9388ac", "addresses": ["18aSyQYGatnQnD5SyX6PHT3HWRr1LrA5a4"], "asm": "OP_DUP OP_HASH160 531c49b9a301e63687ab30342f44b15a449edd93 OP_EQUALVERIFY OP_CHECKSIG", "type": "pubkeyhash"}, "value": 0.03635752, "n": 0}, {"scriptPubKey": {"reqSigs": 1, "hex": "76a914debf463e418378db97bcbbc47826ccc13a34621388ac", "addresses": ["1MJn9ZhZfCsHH1hSwCdNCpdNyEaYkHN6Ho"], "asm": "OP_DUP OP_HASH160 debf463e418378db97bcbbc47826ccc13a346213 OP_EQUALVERIFY OP_CHECKSIG", "type": "pubkeyhash"}, "value": 0.74092547, "n": 1}], "hex": "01000000012ed3e2080d68695fa7f22e9ea9196ff03e3bf8a3e187bebc3eee07fd5af477f0010000006a47304402203b0e2bea847387647fe913876736cf00618b546e947e1e075b404b44bdc9326f02205535f144bbd4a64c8736c7fa3235ded38dac0c5ff8078a8910fff206f6181837012102837132748b5eaeb1f2962b879a351d7d45699266cc4a25463ebf823e5ffd943dffffffff02287a3700000000001976a914531c49b9a301e63687ab30342f44b15a449edd9388ac03906a04000000001976a914debf463e418378db97bcbbc47826ccc13a34621388ac00000000", "vin": [{"sequence": 4294967295, "scriptSig": {"hex": "47304402203b0e2bea847387647fe913876736cf00618b546e947e1e075b404b44bdc9326f02205535f144bbd4a64c8736c7fa3235ded38dac0c5ff8078a8910fff206f6181837012102837132748b5eaeb1f2962b879a351d7d45699266cc4a25463ebf823e5ffd943d", "asm": "304402203b0e2bea847387647fe913876736cf00618b546e947e1e075b404b44bdc9326f02205535f144bbd4a64c8736c7fa3235ded38dac0c5ff8078a8910fff206f6181837[ALL] 02837132748b5eaeb1f2962b879a351d7d45699266cc4a25463ebf823e5ffd943d"}, "vout": 1, "txid": "f077f45afd07ee3ebcbe87e1a3f83b3ef06f19a99e2ef2a75f69680d08e2d32e"}], "txid": "e03bad9680a472ee9cd5e0778c2a0f8fdcb60aa38d9f8e792b8185ef7dd2d19b", "blocktime": 1537872475, "version": 1, "confirmations": 11487, "time": 1537872475, "locktime": 0, "vsize": 225, "size": 225}