{"hash": "e03d8df4e7e01aff7d3f70446b95c976781e837fe1a15f1e7685d7751898ae28", "blockhash": "0000000000000000001f76057863aec43deb6fa401d9628bb513d65a8098bfab", "vout": [{"scriptPubKey": {"reqSigs": 1, "hex": "76a91416ff383ad50a3a05fd85f1efda22dd29a67c627888ac", "addresses": ["136bcC9oYkeYz1yKxurSp1Udsycc3XpUrk"], "asm": "OP_DUP OP_HASH160 16ff383ad50a3a05fd85f1efda22dd29a67c6278 OP_EQUALVERIFY OP_CHECKSIG", "type": "pubkeyhash"}, "value": 0.01696375, "n": 0}, {"scriptPubKey": {"reqSigs": 1, "hex": "76a9141a9e270541edd1240bdc317b4df35221632fa9e088ac", "addresses": ["13Rk2cREZ3zJxDYRho1tjXi5pCHafep87Q"], "asm": "OP_DUP OP_HASH160 1a9e270541edd1240bdc317b4df35221632fa9e0 OP_EQUALVERIFY OP_CHECKSIG", "type": "pubkeyhash"}, "value": 0.13727074, "n": 1}], "hex": "0100000001f166dbc1a49f1bec823605302a3bf336e08c295abb4c98e613dae48ec081604f010000006b483045022100a4da7a02cb79edb80343eedb7e0c35d24a6c29b5dc7dd52457da061881a620cd022042e17e82b4861b9c530bf7b040798de1ddfcf25693516bdef3557ae23c5325500121021b7cf5fd309fb70477a4a3e0b5da9bf1a0048eb5f35fdcafaeafdffda6a5f799ffffffff0277e21900000000001976a91416ff383ad50a3a05fd85f1efda22dd29a67c627888ac6275d100000000001976a9141a9e270541edd1240bdc317b4df35221632fa9e088ac00000000", "vin": [{"sequence": 4294967295, "scriptSig": {"hex": "483045022100a4da7a02cb79edb80343eedb7e0c35d24a6c29b5dc7dd52457da061881a620cd022042e17e82b4861b9c530bf7b040798de1ddfcf25693516bdef3557ae23c5325500121021b7cf5fd309fb70477a4a3e0b5da9bf1a0048eb5f35fdcafaeafdffda6a5f799", "asm": "3045022100a4da7a02cb79edb80343eedb7e0c35d24a6c29b5dc7dd52457da061881a620cd022042e17e82b4861b9c530bf7b040798de1ddfcf25693516bdef3557ae23c532550[ALL] 021b7cf5fd309fb70477a4a3e0b5da9bf1a0048eb5f35fdcafaeafdffda6a5f799"}, "vout": 1, "txid": "4f6081c08ee4da13e6984cbb5a298ce036f33b2a30053682ec1b9fa4c1db66f1"}], "txid": "e03d8df4e7e01aff7d3f70446b95c976781e837fe1a15f1e7685d7751898ae28", "blocktime": 1537873891, "version": 1, "confirmations": 11477, "time": 1537873891, "locktime": 0, "vsize": 226, "size": 226}