{"hash": "e03e85df72862a4bb043f5c11009ab1cc4a0ca3aa1ac8c14c2cc3850f8e82a5c", "blockhash": "0000000000000000000e13cef7c366c0283d82e591d1acd082e914b08063cdf1", "vout": [{"scriptPubKey": {"reqSigs": 1, "hex": "76a914d243e6abb9a60fbff430b421d2df4b7d59ec186088ac", "addresses": ["1LAnF8h3qMGx3TSwNUHVneBZUEpwE4gu3D"], "asm": "OP_DUP OP_HASH160 d243e6abb9a60fbff430b421d2df4b7d59ec1860 OP_EQUALVERIFY OP_CHECKSIG", "type": "pubkeyhash"}, "value": 0.00077314, "n": 0}, {"scriptPubKey": {"reqSigs": 1, "hex": "76a914b2d0a1109490386392a9248ffc15ed296b94a81f88ac", "addresses": ["1HJVCxL1jhEHKGjXby69pbgi2VDmim8Zur"], "asm": "OP_DUP OP_HASH160 b2d0a1109490386392a9248ffc15ed296b94a81f OP_EQUALVERIFY OP_CHECKSIG", "type": "pubkeyhash"}, "value": 5.46e-06, "n": 1}, {"scriptPubKey": {"type": "nulldata", "hex": "6a146f6d6e69000000000000001f00000d80ba5cd120", "asm": "OP_RETURN 6f6d6e69000000000000001f00000d80ba5cd120"}, "value": 0.0, "n": 2}], "hex": "010000000167853c7923d005c33df158b4772d9eff753e08ce9e1337b49f75d3b8efcb9fac000000006b483045022100e79ba094f05b98b7b9d9dc7cd0809299b23568d1f697b611848a37eb4411c77e02205ca861379d79537b2a9fb81cf86069131951f9bea7f49ff21bcbad01726e127b01210271977291b74f1f5f5c42157e8aae804664eaaeccfd097918450d37f28fb94d77ffffffff03022e0100000000001976a914d243e6abb9a60fbff430b421d2df4b7d59ec186088ac22020000000000001976a914b2d0a1109490386392a9248ffc15ed296b94a81f88ac0000000000000000166a146f6d6e69000000000000001f00000d80ba5cd12000000000", "vin": [{"sequence": 4294967295, "scriptSig": {"hex": "483045022100e79ba094f05b98b7b9d9dc7cd0809299b23568d1f697b611848a37eb4411c77e02205ca861379d79537b2a9fb81cf86069131951f9bea7f49ff21bcbad01726e127b01210271977291b74f1f5f5c42157e8aae804664eaaeccfd097918450d37f28fb94d77", "asm": "3045022100e79ba094f05b98b7b9d9dc7cd0809299b23568d1f697b611848a37eb4411c77e02205ca861379d79537b2a9fb81cf86069131951f9bea7f49ff21bcbad01726e127b[ALL] 0271977291b74f1f5f5c42157e8aae804664eaaeccfd097918450d37f28fb94d77"}, "vout": 0, "txid": "ac9fcbefb8d3759fb437139ece083e75ff9e2d77b458f13dc305d023793c8567"}], "txid": "e03e85df72862a4bb043f5c11009ab1cc4a0ca3aa1ac8c14c2cc3850f8e82a5c", "blocktime": 1537871767, "version": 1, "confirmations": 11491, "time": 1537871767, "locktime": 0, "vsize": 257, "size": 257}