{"hash": "837a322bee35a1f34901e908aa7ed8994a18d7713edd6a2239c54fc6cb47354a", "blockhash": "0000000000000000000e13cef7c366c0283d82e591d1acd082e914b08063cdf1", "vout": [{"scriptPubKey": {"reqSigs": 1, "hex": "00149a87d0b7b03f614d8afccc9a9d8f01ff5a568e7a", "addresses": ["bc1qn2rapdas8as5mzhuejdfmrcplad9drn62cw6fh"], "asm": "0 9a87d0b7b03f614d8afccc9a9d8f01ff5a568e7a", "type": "witness_v0_keyhash"}, "value": 1.074e-05, "n": 0}, {"scriptPubKey": {"reqSigs": 1, "hex": "76a9142af3fa4369b8088e67931c682a56a701c783a61588ac", "addresses": ["14v7evC7TZUxQxzKZd2F9kAJMTdoCYWFs7"], "asm": "OP_DUP OP_HASH160 2af3fa4369b8088e67931c682a56a701c783a615 OP_EQUALVERIFY OP_CHECKSIG", "type": "pubkeyhash"}, "value": 0.00148631, "n": 1}], "hex": "0100000000010117ae4e9910e48b844fc830c2da4616a10cd8c73ffbd396a3517070c7b5caec170000000000ffffffff0232040000000000001600149a87d0b7b03f614d8afccc9a9d8f01ff5a568e7a97440200000000001976a9142af3fa4369b8088e67931c682a56a701c783a61588ac024830450221008dea18dd98236f5d230204f7bd549853f0d3e1a09bf3c5c692c3c7be92cdace10220406328d6fc2ef4face6bf5c2ed7aa1d94b5f320b678d20170190c3ee5a53a380012102eb7454b05eec2b393f8832522a8f0eaf92e2e77622be7c377ef5efa400fd483900000000", "vin": [{"txinwitness": ["30450221008dea18dd98236f5d230204f7bd549853f0d3e1a09bf3c5c692c3c7be92cdace10220406328d6fc2ef4face6bf5c2ed7aa1d94b5f320b678d20170190c3ee5a53a38001", "02eb7454b05eec2b393f8832522a8f0eaf92e2e77622be7c377ef5efa400fd4839"], "sequence": 4294967295, "scriptSig": {"hex": "", "asm": ""}, "vout": 0, "txid": "17eccab5c7707051a396d3fb3fc7d80ca11646dac230c84f848be410994eae17"}], "txid": "e044d6955756ea26f4f712a4c3ec2f91b8cf39e538302c0fa7553960335a719a", "blocktime": 1537871767, "version": 1, "confirmations": 11495, "time": 1537871767, "locktime": 0, "vsize": 144, "size": 226}