{"hash": "e04a1e074f232955c7d8a243bf59fee7ecda6a868dac94577c33afe079103767", "blockhash": "0000000000000000001f76057863aec43deb6fa401d9628bb513d65a8098bfab", "vout": [{"scriptPubKey": {"reqSigs": 1, "hex": "76a914b421b799c6fb1f15500ab5b0c5ea2ed416d4573f88ac", "addresses": ["1HRT2EyTfmRccSqXh9NbfGFVpV1iWQwX5e"], "asm": "OP_DUP OP_HASH160 b421b799c6fb1f15500ab5b0c5ea2ed416d4573f OP_EQUALVERIFY OP_CHECKSIG", "type": "pubkeyhash"}, "value": 0.0008926, "n": 0}, {"scriptPubKey": {"type": "nulldata", "hex": "6a4c50000077e30001887ee3febd18774bd779a4b07af8e8e963c7cfd5b95b23cc0f42c2fc38c5522519f5df268510f8e8fa9aa59c00095baa17080612819676dd69bcbc9a9526289ac0f6612cd74e33776ee4", "asm": "OP_RETURN 000077e30001887ee3febd18774bd779a4b07af8e8e963c7cfd5b95b23cc0f42c2fc38c5522519f5df268510f8e8fa9aa59c00095baa17080612819676dd69bcbc9a9526289ac0f6612cd74e33776ee4"}, "value": 0.0, "n": 1}], "hex": "01000000018611d4c4a63f9855e90075d8c68b98f8a8d22a84fb93006f6bd6508adcb1524e000000006a47304402206deba6972c7264c264e67b0ed99504435153ade081d9f786a8586f31568e8daf0220677c48f01480ea682dd4f861b849e2818e73224cdac6d49d870e59f217302032012103e498960925cfa4fe407b3274c918126be89792543c409b5a68dba2e042923e7fffffffff02ac5c0100000000001976a914b421b799c6fb1f15500ab5b0c5ea2ed416d4573f88ac0000000000000000536a4c50000077e30001887ee3febd18774bd779a4b07af8e8e963c7cfd5b95b23cc0f42c2fc38c5522519f5df268510f8e8fa9aa59c00095baa17080612819676dd69bcbc9a9526289ac0f6612cd74e33776ee400000000", "vin": [{"sequence": 4294967295, "scriptSig": {"hex": "47304402206deba6972c7264c264e67b0ed99504435153ade081d9f786a8586f31568e8daf0220677c48f01480ea682dd4f861b849e2818e73224cdac6d49d870e59f217302032012103e498960925cfa4fe407b3274c918126be89792543c409b5a68dba2e042923e7f", "asm": "304402206deba6972c7264c264e67b0ed99504435153ade081d9f786a8586f31568e8daf0220677c48f01480ea682dd4f861b849e2818e73224cdac6d49d870e59f217302032[ALL] 03e498960925cfa4fe407b3274c918126be89792543c409b5a68dba2e042923e7f"}, "vout": 0, "txid": "4e52b1dc8a50d66b6f0093fb842ad2a8f8988bc6d87500e955983fa6c4d41186"}], "txid": "e04a1e074f232955c7d8a243bf59fee7ecda6a868dac94577c33afe079103767", "blocktime": 1537873891, "version": 1, "confirmations": 11478, "time": 1537873891, "locktime": 0, "vsize": 283, "size": 283}