{"hash": "f19c58cc3473cbf513de8a832149f922eb252e8b3442a979bef47d1316614cde", "blockhash": "0000000000000000000dcc0f55137456b1a82d3642486a52398922ac4d620174", "vout": [{"scriptPubKey": {"reqSigs": 1, "hex": "76a91499fc2cea35d60095401155a1e704658b419ee04088ac", "addresses": ["1F3CUoq7eBhEFE4bEXUeZmcJb1SwsoFhdC"], "asm": "OP_DUP OP_HASH160 99fc2cea35d60095401155a1e704658b419ee040 OP_EQUALVERIFY OP_CHECKSIG", "type": "pubkeyhash"}, "value": 0.00038947, "n": 0}, {"scriptPubKey": {"reqSigs": 1, "hex": "00143832f068be241ad4320d3e2e716fb8688609535c", "addresses": ["bc1q8qe0q697ysddgvsd8ch8zmacdzrqj56uzfe88j"], "asm": "0 3832f068be241ad4320d3e2e716fb8688609535c", "type": "witness_v0_keyhash"}, "value": 1.053e-05, "n": 1}], "hex": "01000000000101aaf1ee3a51b479d9214e505fda1bed2c156148b7d49600205a98519c3ef305020100000000ffffffff0223980000000000001976a91499fc2cea35d60095401155a1e704658b419ee04088ac1d040000000000001600143832f068be241ad4320d3e2e716fb8688609535c0247304402205a0c664d0b50af410598b5409980900a94222da0480e2f74263cb29dc342d2580220026043b62df4313ea820917ade98bb2521a358d0366bf8c3d4bd243de66356f501210398963340788482245a9954f5dac1c06a4c341ddb8a68c01e87589abfdd6f4bf200000000", "vin": [{"txinwitness": ["304402205a0c664d0b50af410598b5409980900a94222da0480e2f74263cb29dc342d2580220026043b62df4313ea820917ade98bb2521a358d0366bf8c3d4bd243de66356f501", "0398963340788482245a9954f5dac1c06a4c341ddb8a68c01e87589abfdd6f4bf2"], "sequence": 4294967295, "scriptSig": {"hex": "", "asm": ""}, "vout": 1, "txid": "0205f33e9c51985a200096d4b74861152ced1bda5f504e21d979b4513aeef1aa"}], "txid": "e04cd76bd5676ed1f0355137ea6e2897d1af1555f3112795d0cde36ea8182a64", "blocktime": 1537870268, "version": 1, "confirmations": 11518, "time": 1537870268, "locktime": 0, "vsize": 144, "size": 225}