{"hash": "5b01d52e4c87cda2a6afcb338aad6d0ee9126ca36b531ab9205f3ce21eae7c1d", "blockhash": "0000000000000000000baef3f32e3676a92c3b2e5da21b426e4f302fc371ce76", "vout": [{"scriptPubKey": {"reqSigs": 1, "hex": "a9149576da4130319ed5104c80200d38a0660a02a76587", "addresses": ["3FKJz9UY3fg29v23sriDG9CYvT9bkVxx46"], "asm": "OP_HASH160 9576da4130319ed5104c80200d38a0660a02a765 OP_EQUAL", "type": "scripthash"}, "value": 0.025584, "n": 0}, {"scriptPubKey": {"reqSigs": 1, "hex": "a91487cf2e58132a094ab640c6d445857eaed079109d87", "addresses": ["3E57LdZuVgnimF9CNwJvjeYTKoSRVkEzUh"], "asm": "OP_HASH160 87cf2e58132a094ab640c6d445857eaed079109d OP_EQUAL", "type": "scripthash"}, "value": 0.47440936, "n": 1}], "hex": "01000000000101c6131bd152a3fd5bfa2cd162fce2d01de6b7fc5fe1c9ef39e71d580a387b16ef0000000017160014471d93eaddfad743565e2c55e389f813e4eeedc8ffffffff02c00927000000000017a9149576da4130319ed5104c80200d38a0660a02a7658728e4d3020000000017a91487cf2e58132a094ab640c6d445857eaed079109d8702483045022100d91398c308aacd3f737db4cdca7c9966a689efaf744a94f2b700d2dc8f02460002207b9eb98dd6d6d6a25d91676359c42696f651e941dee69b41c159b7ec94bbce74012102120eeae9dfdc59665f789f856c63c440dd8002bbadac38c57a798fe1947f9f9500000000", "vin": [{"txinwitness": ["3045022100d91398c308aacd3f737db4cdca7c9966a689efaf744a94f2b700d2dc8f02460002207b9eb98dd6d6d6a25d91676359c42696f651e941dee69b41c159b7ec94bbce7401", "02120eeae9dfdc59665f789f856c63c440dd8002bbadac38c57a798fe1947f9f95"], "sequence": 4294967295, "scriptSig": {"hex": "160014471d93eaddfad743565e2c55e389f813e4eeedc8", "asm": "0014471d93eaddfad743565e2c55e389f813e4eeedc8"}, "vout": 0, "txid": "ef167b380a581de739efc9e15ffcb7e61dd0e2fc62d12cfa5bfda352d11b13c6"}], "txid": "e0506c67b161a951eb98d7511df77f8a061b81bf116d0aba6d73d40346a40c8f", "blocktime": 1537876114, "version": 1, "confirmations": 11462, "time": 1537876114, "locktime": 0, "vsize": 166, "size": 248}