{"hash": "e0560c68fc32248901b8067a2e894efa2867427b71c3fdfd177e5ab6402b398d", "blockhash": "0000000000000000001cda96e906b7601b7a6fb1a3b62bca570a9e5d8f4b3de1", "vout": [{"scriptPubKey": {"type": "nulldata", "hex": "6a146f6d6e69000000000000001f0000015d3ef79800", "asm": "OP_RETURN 6f6d6e69000000000000001f0000015d3ef79800"}, "value": 0.0, "n": 0}, {"scriptPubKey": {"reqSigs": 1, "hex": "76a91479f638878e898187b280ebe6013821f7e7d8ee1f88ac", "addresses": ["1C7siwAX4z2o3Ca1LZ82Zp8XkHJZMnFA3A"], "asm": "OP_DUP OP_HASH160 79f638878e898187b280ebe6013821f7e7d8ee1f OP_EQUALVERIFY OP_CHECKSIG", "type": "pubkeyhash"}, "value": 5.46e-06, "n": 1}, {"scriptPubKey": {"reqSigs": 1, "hex": "76a914a25dec4d0011064ef106a983c39c7a540699f22088ac", "addresses": ["1FoWyxwPXuj4C6abqwhjDWdz6D4PZgYRjA"], "asm": "OP_DUP OP_HASH160 a25dec4d0011064ef106a983c39c7a540699f220 OP_EQUALVERIFY OP_CHECKSIG", "type": "pubkeyhash"}, "value": 0.01990392, "n": 2}], "hex": "01000000010e2a73c0834ebaf7695e00d4706ab17edd30a814d9d0a9f5cc94a1f3b1001130010000006a4730440220036e491b43246b4a2c9f15c040863010965b9cbda4fa340bf15598255a5ac95702205db395b09d9bda97f0d9e7431e51af959a85df473c58d453ac992a428ebbadff012103da5bac7b36d5aa38f531c6b9601e21bb598a4b6716ebed38b009a55dabde9440feffffff030000000000000000166a146f6d6e69000000000000001f0000015d3ef7980022020000000000001976a91479f638878e898187b280ebe6013821f7e7d8ee1f88acf85e1e00000000001976a914a25dec4d0011064ef106a983c39c7a540699f22088ac13490800", "vin": [{"sequence": 4294967294, "scriptSig": {"hex": "4730440220036e491b43246b4a2c9f15c040863010965b9cbda4fa340bf15598255a5ac95702205db395b09d9bda97f0d9e7431e51af959a85df473c58d453ac992a428ebbadff012103da5bac7b36d5aa38f531c6b9601e21bb598a4b6716ebed38b009a55dabde9440", "asm": "30440220036e491b43246b4a2c9f15c040863010965b9cbda4fa340bf15598255a5ac95702205db395b09d9bda97f0d9e7431e51af959a85df473c58d453ac992a428ebbadff[ALL] 03da5bac7b36d5aa38f531c6b9601e21bb598a4b6716ebed38b009a55dabde9440"}, "vout": 1, "txid": "301100b1f3a194ccf5a9d0d914a830dd7eb16a70d4005e69f7ba4e83c0732a0e"}], "txid": "e0560c68fc32248901b8067a2e894efa2867427b71c3fdfd177e5ab6402b398d", "blocktime": 1537873282, "version": 1, "confirmations": 11481, "time": 1537873282, "locktime": 542995, "vsize": 256, "size": 256}