{"hash": "c577b78f6401d4a671a734b5e486082280ea86b2343a8ea2ad972a5cc7ac32f0", "blockhash": "00000000000000000018f53835495a110e01622372bf6ae95dc86f2b0ab887b0", "vout": [{"scriptPubKey": {"reqSigs": 1, "hex": "a914f870b9e24c01be2d3aa9e67d90a0383a058d902587", "addresses": ["3QLeYTvnM5C4ztZ4rTVoj2htBz2dFSHwje"], "asm": "OP_HASH160 f870b9e24c01be2d3aa9e67d90a0383a058d9025 OP_EQUAL", "type": "scripthash"}, "value": 0.01038943, "n": 0}, {"scriptPubKey": {"reqSigs": 1, "hex": "a9144fded5f83fe61cfded70e39347362e75cea9a9cb87", "addresses": ["38yLFbu6pWJjMNtUdrgxJ4c3UAELTNX3LL"], "asm": "OP_HASH160 4fded5f83fe61cfded70e39347362e75cea9a9cb OP_EQUAL", "type": "scripthash"}, "value": 5.47670206, "n": 1}], "hex": "02000000000102df373b967da186b8f2f7769a935ef9ede6020deb79e915a2678a89bf0129a9df04000000171600149d13704649e12facd099033eace83a9c4df8d945feffffffe675ab0f7e64531e9c7c686988fdedaf1772d0cd62c83d9f4b2cade17335c77501000000171600144b41b745b40382b54222cc34073a3984f7299d2afeffffff025fda0f000000000017a914f870b9e24c01be2d3aa9e67d90a0383a058d902587bec8a4200000000017a9144fded5f83fe61cfded70e39347362e75cea9a9cb87024730440220736b6350f29b2485803785e6f88944b24a6cb3f9e809cfe0ed55c66d8d6bee4502202ec5d7403dc43bce0d1a084bd19f5ce0b52367576b77fcc025b0bd861a5041a50121031bb14a3b2b1dc45e90b565d4f7596a9acb56693065e612363ec4c44ba1256bb9024730440220332ac11e01847aaba020b781530536aaeabf5fbca4d2655fa43d2c59381272aa0220706ca8e1ff97477df2af2566fa2aab9cec8144168f9a18fa5b222406b231ea7001210234e94b8a754cbdd1c710f1728aad88bac9f29b0230ccaced0b55120720988fad0e490800", "vin": [{"txinwitness": ["30440220736b6350f29b2485803785e6f88944b24a6cb3f9e809cfe0ed55c66d8d6bee4502202ec5d7403dc43bce0d1a084bd19f5ce0b52367576b77fcc025b0bd861a5041a501", "031bb14a3b2b1dc45e90b565d4f7596a9acb56693065e612363ec4c44ba1256bb9"], "sequence": 4294967294, "scriptSig": {"hex": "1600149d13704649e12facd099033eace83a9c4df8d945", "asm": "00149d13704649e12facd099033eace83a9c4df8d945"}, "vout": 4, "txid": "dfa92901bf898a67a215e979eb0d02e6edf95e939a76f7f2b886a17d963b37df"}, {"txinwitness": ["30440220332ac11e01847aaba020b781530536aaeabf5fbca4d2655fa43d2c59381272aa0220706ca8e1ff97477df2af2566fa2aab9cec8144168f9a18fa5b222406b231ea7001", "0234e94b8a754cbdd1c710f1728aad88bac9f29b0230ccaced0b55120720988fad"], "sequence": 4294967294, "scriptSig": {"hex": "1600144b41b745b40382b54222cc34073a3984f7299d2a", "asm": "00144b41b745b40382b54222cc34073a3984f7299d2a"}, "vout": 1, "txid": "75c73573e1ad2c4b9f3dc862cdd07217afedfd8869687c9c1e53647e0fab75e6"}], "txid": "e05b05b3c33a380c8aae58e4cfd7c33f433c52e24d2aca75471bb7615c4c2a43", "blocktime": 1537870928, "version": 2, "confirmations": 11512, "time": 1537870928, "locktime": 542990, "vsize": 256, "size": 418}