{"hash": "e05ca7449c6f1683ecc74d67fff0e1b9b5aae6dda1b02b7ac0f40b40efa1f5e7", "blockhash": "00000000000000000017f5eb5941039fbcee6240d03bc1f2f8e35350df66a1d8", "vout": [{"scriptPubKey": {"reqSigs": 1, "hex": "76a9147e96f3bed6b65a66407c7825f8271efa89579aa888ac", "addresses": ["1CYLyWVkq66RhMSwBSCTep2TU2GU181EFq"], "asm": "OP_DUP OP_HASH160 7e96f3bed6b65a66407c7825f8271efa89579aa8 OP_EQUALVERIFY OP_CHECKSIG", "type": "pubkeyhash"}, "value": 0.09899737, "n": 0}, {"scriptPubKey": {"reqSigs": 1, "hex": "76a9143744ab9943105e69483e3de0a8e89f411bd5350488ac", "addresses": ["163ERr9EFv1adMKRo7KDMm8VHB5N9uGzA2"], "asm": "OP_DUP OP_HASH160 3744ab9943105e69483e3de0a8e89f411bd53504 OP_EQUALVERIFY OP_CHECKSIG", "type": "pubkeyhash"}, "value": 0.31278933, "n": 1}], "hex": "0100000002b718b6222d4fbb617b4b53734eb2122c07e159c5161153d5e7c7dc573603e1ac010000006a4730440220483dc6d5c9495d087bb6f0a1a9c20bf5a5c13a465881779a439060906f0ffae702203a0234ca76bd082037d6c4b6eb4bd794e2d2b72cdc16eb054d3267d6fa578653012102f8a81337eb4dcb9cf8a7fa64e985553b49141e73e8274c0700e00948aaebb624ffffffff10211f05ce6d294a1a3552359d8245e002d4658f5f94c915fb62a891dd02f1b3010000006a4730440220387284c8894889189f064690b916f8e7a1d5a94c4302167b283c8fdb8211acec02202a8434c3ba6ae270b996b7e181ecc743f7e7446f809afd7be95f4bbf3965f7ac012102f8a81337eb4dcb9cf8a7fa64e985553b49141e73e8274c0700e00948aaebb624ffffffff02d90e9700000000001976a9147e96f3bed6b65a66407c7825f8271efa89579aa888ac5547dd01000000001976a9143744ab9943105e69483e3de0a8e89f411bd5350488ac00000000", "vin": [{"sequence": 4294967295, "scriptSig": {"hex": "4730440220483dc6d5c9495d087bb6f0a1a9c20bf5a5c13a465881779a439060906f0ffae702203a0234ca76bd082037d6c4b6eb4bd794e2d2b72cdc16eb054d3267d6fa578653012102f8a81337eb4dcb9cf8a7fa64e985553b49141e73e8274c0700e00948aaebb624", "asm": "30440220483dc6d5c9495d087bb6f0a1a9c20bf5a5c13a465881779a439060906f0ffae702203a0234ca76bd082037d6c4b6eb4bd794e2d2b72cdc16eb054d3267d6fa578653[ALL] 02f8a81337eb4dcb9cf8a7fa64e985553b49141e73e8274c0700e00948aaebb624"}, "vout": 1, "txid": "ace1033657dcc7e7d5531116c559e1072c12b24e73534b7b61bb4f2d22b618b7"}, {"sequence": 4294967295, "scriptSig": {"hex": "4730440220387284c8894889189f064690b916f8e7a1d5a94c4302167b283c8fdb8211acec02202a8434c3ba6ae270b996b7e181ecc743f7e7446f809afd7be95f4bbf3965f7ac012102f8a81337eb4dcb9cf8a7fa64e985553b49141e73e8274c0700e00948aaebb624", "asm": "30440220387284c8894889189f064690b916f8e7a1d5a94c4302167b283c8fdb8211acec02202a8434c3ba6ae270b996b7e181ecc743f7e7446f809afd7be95f4bbf3965f7ac[ALL] 02f8a81337eb4dcb9cf8a7fa64e985553b49141e73e8274c0700e00948aaebb624"}, "vout": 1, "txid": "b3f102dd91a862fb15c9945f8f65d402e045829d3552351a4a296dce051f2110"}], "txid": "e05ca7449c6f1683ecc74d67fff0e1b9b5aae6dda1b02b7ac0f40b40efa1f5e7", "blocktime": 1537874412, "version": 1, "confirmations": 11468, "time": 1537874412, "locktime": 0, "vsize": 372, "size": 372}