{"hash": "e05ffa6755192d5293c1d1c4d83711ba6d043fac6793f9f9856d1c2d4e326c92", "blockhash": "0000000000000000001e0dab787dd257d1dbfcb92a98c2207d5e1078be1f4165", "vout": [{"scriptPubKey": {"reqSigs": 1, "hex": "a914f3354d6f264108d3c8421305f23938aebb4e9b4687", "addresses": ["3PryygNQKx1kfP9XGiARcqCBGxyvwhuPkr"], "asm": "OP_HASH160 f3354d6f264108d3c8421305f23938aebb4e9b46 OP_EQUAL", "type": "scripthash"}, "value": 0.01986071, "n": 0}], "hex": "0100000002a44845f10a18874da89359dbf0d62f5336383aea79ae021f0f60ff61580f4611060000006a47304402204f221365f72b67aeb8806c7b13f0f7e86a0987873a2b57f1b682dafd34dd103802200b62af47cb4cf905b3c0b00c878274ab28b5668ca8053c17dc69b27725658cea012102bd35430efb0787fe64b85b97c7dca5ba366fe545d89fe8aefb1fb69c8673a9a2ffffffff3be0d28320dde08c57bd23f2e20f399a6506e92de9032248d59b187eec02e5ad010000006a473044022016deade8a4daf6e186dd48afba8a776c77fea4321425332a1b33eb1c0efc156202203cd666f94ab883732bb992857444260fc7934032e68f2241a2ccea33f6fd1be7012103c2576f98d5c421fed1508c72fd1f6a4eb27d50917c7c1c9ed7078b385353681fffffffff01174e1e000000000017a914f3354d6f264108d3c8421305f23938aebb4e9b468700000000", "vin": [{"sequence": 4294967295, "scriptSig": {"hex": "47304402204f221365f72b67aeb8806c7b13f0f7e86a0987873a2b57f1b682dafd34dd103802200b62af47cb4cf905b3c0b00c878274ab28b5668ca8053c17dc69b27725658cea012102bd35430efb0787fe64b85b97c7dca5ba366fe545d89fe8aefb1fb69c8673a9a2", "asm": "304402204f221365f72b67aeb8806c7b13f0f7e86a0987873a2b57f1b682dafd34dd103802200b62af47cb4cf905b3c0b00c878274ab28b5668ca8053c17dc69b27725658cea[ALL] 02bd35430efb0787fe64b85b97c7dca5ba366fe545d89fe8aefb1fb69c8673a9a2"}, "vout": 6, "txid": "11460f5861ff600f1f02ae79ea3a3836532fd6f0db5993a84d87180af14548a4"}, {"sequence": 4294967295, "scriptSig": {"hex": "473044022016deade8a4daf6e186dd48afba8a776c77fea4321425332a1b33eb1c0efc156202203cd666f94ab883732bb992857444260fc7934032e68f2241a2ccea33f6fd1be7012103c2576f98d5c421fed1508c72fd1f6a4eb27d50917c7c1c9ed7078b385353681f", "asm": "3044022016deade8a4daf6e186dd48afba8a776c77fea4321425332a1b33eb1c0efc156202203cd666f94ab883732bb992857444260fc7934032e68f2241a2ccea33f6fd1be7[ALL] 03c2576f98d5c421fed1508c72fd1f6a4eb27d50917c7c1c9ed7078b385353681f"}, "vout": 1, "txid": "ade502ec7e189bd5482203e92de906659a390fe2f223bd578ce0dd2083d2e03b"}], "txid": "e05ffa6755192d5293c1d1c4d83711ba6d043fac6793f9f9856d1c2d4e326c92", "blocktime": 1537872475, "version": 1, "confirmations": 11486, "time": 1537872475, "locktime": 0, "vsize": 336, "size": 336}