{"hash": "6d3d8b4472877fc86049415b0988d1601f54f49a6bc7e6a41e2f3da6096d5f6f", "blockhash": "0000000000000000001cda96e906b7601b7a6fb1a3b62bca570a9e5d8f4b3de1", "vout": [{"scriptPubKey": {"reqSigs": 1, "hex": "76a914ee7c4e8d5b8f76692ce5ab5c6b780f046b46079488ac", "addresses": ["1NjzjeWC7DptHw97kEhJZgvAfHkwPHGAoz"], "asm": "OP_DUP OP_HASH160 ee7c4e8d5b8f76692ce5ab5c6b780f046b460794 OP_EQUALVERIFY OP_CHECKSIG", "type": "pubkeyhash"}, "value": 0.01059295, "n": 0}, {"scriptPubKey": {"reqSigs": 1, "hex": "76a914b24c28c17d9f362661a34ad4d9d5957e907bb94588ac", "addresses": ["1HFkWnEpC6PMXfyqrr7SBWprQkWkzTXZBr"], "asm": "OP_DUP OP_HASH160 b24c28c17d9f362661a34ad4d9d5957e907bb945 OP_EQUALVERIFY OP_CHECKSIG", "type": "pubkeyhash"}, "value": 0.43433067, "n": 1}, {"scriptPubKey": {"reqSigs": 1, "hex": "76a914ed27771aa736d2bed8d13e2bccd08c3f9f478d1b88ac", "addresses": ["1NcxRZLNXiumTFtM5pjRf8L71cgq5qJ41x"], "asm": "OP_DUP OP_HASH160 ed27771aa736d2bed8d13e2bccd08c3f9f478d1b OP_EQUALVERIFY OP_CHECKSIG", "type": "pubkeyhash"}, "value": 0.00746606, "n": 2}], "hex": "0200000000010285098b36b800a6efe2e30350cdafc274e8b9015cfed2a499864f138b7c815ef6010000006a47304402203e5cbc17cfbca30666c2f4b416ca3fd81affbc79236c960a17e09ede24ffd1e602205602902ad16d654ac574979b435c0f97939e705dc3aac0f1a94a980a964a48020121023cae7abd315fdc3c7c9304596d09fa4a800e93b0a8f745c16cbdc7df6e85f9c2feffffffcf550407769d4a8f55fca776b67fdea970f8ec9475c552a38a733aea450b751b00000000171600143f4a78f4877d0e3cf6bdf11b0fb97753c11661d5feffffff03df291000000000001976a914ee7c4e8d5b8f76692ce5ab5c6b780f046b46079488ac6bbc9602000000001976a914b24c28c17d9f362661a34ad4d9d5957e907bb94588ac6e640b00000000001976a914ed27771aa736d2bed8d13e2bccd08c3f9f478d1b88ac0002483045022100eb5d7f2faf7c3751288120db6ff7fd99f77c5d4f6506959f923542dae7c6b032022017322e708d5fbe7e98006cb2482781adc314d844868e58b2f4323ffe9ecd2eb3012103a42829486a2c2f0e83dd2541d293bfe4639e5dcf8e2ae599e35b86674552c53712490800", "vin": [{"sequence": 4294967294, "scriptSig": {"hex": "47304402203e5cbc17cfbca30666c2f4b416ca3fd81affbc79236c960a17e09ede24ffd1e602205602902ad16d654ac574979b435c0f97939e705dc3aac0f1a94a980a964a48020121023cae7abd315fdc3c7c9304596d09fa4a800e93b0a8f745c16cbdc7df6e85f9c2", "asm": "304402203e5cbc17cfbca30666c2f4b416ca3fd81affbc79236c960a17e09ede24ffd1e602205602902ad16d654ac574979b435c0f97939e705dc3aac0f1a94a980a964a4802[ALL] 023cae7abd315fdc3c7c9304596d09fa4a800e93b0a8f745c16cbdc7df6e85f9c2"}, "vout": 1, "txid": "f65e817c8b134f8699a4d2fe5c01b9e874c2afcd5003e3e2efa600b8368b0985"}, {"txinwitness": ["3045022100eb5d7f2faf7c3751288120db6ff7fd99f77c5d4f6506959f923542dae7c6b032022017322e708d5fbe7e98006cb2482781adc314d844868e58b2f4323ffe9ecd2eb301", "03a42829486a2c2f0e83dd2541d293bfe4639e5dcf8e2ae599e35b86674552c537"], "sequence": 4294967294, "scriptSig": {"hex": "1600143f4a78f4877d0e3cf6bdf11b0fb97753c11661d5", "asm": "00143f4a78f4877d0e3cf6bdf11b0fb97753c11661d5"}, "vout": 0, "txid": "1b750b45ea3a738aa352c57594ecf870a9de7fb676a7fc558f4a9d76070455cf"}], "txid": "e06023b621416098839006eba69b6864cef4089a326af18db6aa0cd0bf6d5e5c", "blocktime": 1537873282, "version": 2, "confirmations": 11480, "time": 1537873282, "locktime": 542994, "vsize": 351, "size": 434}