{"hash": "e0677c9f24cab07972f0aebddff7951b9b239c72027bc378e8d95e4c5b2406bc", "blockhash": "00000000000000000018f53835495a110e01622372bf6ae95dc86f2b0ab887b0", "vout": [{"scriptPubKey": {"reqSigs": 1, "hex": "76a9141093eda645b68b9a9c37d805730f1b7d41c74e0f88ac", "addresses": ["12Wf2Jvbh85Uxzcvn73VrTLcwLcsRg13Qo"], "asm": "OP_DUP OP_HASH160 1093eda645b68b9a9c37d805730f1b7d41c74e0f OP_EQUALVERIFY OP_CHECKSIG", "type": "pubkeyhash"}, "value": 0.00046972, "n": 0}, {"scriptPubKey": {"reqSigs": 1, "hex": "76a9148837d5e76e3afc2eec0f538678bad7415183699488ac", "addresses": ["1DRFncVEAQKZdKqJvEZADJnZ97jjCbcDdw"], "asm": "OP_DUP OP_HASH160 8837d5e76e3afc2eec0f538678bad74151836994 OP_EQUALVERIFY OP_CHECKSIG", "type": "pubkeyhash"}, "value": 0.0554445, "n": 1}], "hex": "0100000001b49f9eb9bda7c96c297f0ee84c108ba0f006087153183c28b82b19519f6eb424000000006b483045022100a819345c2d3d6cac81b2ba033b53ff68d8f0d0afdf32a9b3aa0697f1734fcb0d02206fb0041e13a731cbfc930d625c16509cf172b22c48903ff5423e7e48729787e901210326fe20c6115466881ccd95cd91e5e3b5c6cb90624b7b9def30329b6ab9d28b06ffffffff027cb70000000000001976a9141093eda645b68b9a9c37d805730f1b7d41c74e0f88ac029a5400000000001976a9148837d5e76e3afc2eec0f538678bad7415183699488ac00000000", "vin": [{"sequence": 4294967295, "scriptSig": {"hex": "483045022100a819345c2d3d6cac81b2ba033b53ff68d8f0d0afdf32a9b3aa0697f1734fcb0d02206fb0041e13a731cbfc930d625c16509cf172b22c48903ff5423e7e48729787e901210326fe20c6115466881ccd95cd91e5e3b5c6cb90624b7b9def30329b6ab9d28b06", "asm": "3045022100a819345c2d3d6cac81b2ba033b53ff68d8f0d0afdf32a9b3aa0697f1734fcb0d02206fb0041e13a731cbfc930d625c16509cf172b22c48903ff5423e7e48729787e9[ALL] 0326fe20c6115466881ccd95cd91e5e3b5c6cb90624b7b9def30329b6ab9d28b06"}, "vout": 0, "txid": "24b46e9f51192bb8283c1853710806f0a08b104ce80e7f296cc9a7bdb99e9fb4"}], "txid": "e0677c9f24cab07972f0aebddff7951b9b239c72027bc378e8d95e4c5b2406bc", "blocktime": 1537870928, "version": 1, "confirmations": 11514, "time": 1537870928, "locktime": 0, "vsize": 226, "size": 226}