{"hash": "e077ff221afacc45f852dc3e423d331e0b45602054ea7f3b469032a1a6542f40", "blockhash": "0000000000000000001f76057863aec43deb6fa401d9628bb513d65a8098bfab", "vout": [{"scriptPubKey": {"reqSigs": 1, "hex": "76a91471c059c76e8c371ac394397f688e5ebe274581f088ac", "addresses": ["1BNTnSPWsk71LWDjNe1Bf8bpDvWGkmFEXB"], "asm": "OP_DUP OP_HASH160 71c059c76e8c371ac394397f688e5ebe274581f0 OP_EQUALVERIFY OP_CHECKSIG", "type": "pubkeyhash"}, "value": 0.01802412, "n": 0}, {"scriptPubKey": {"reqSigs": 1, "hex": "76a91425e9943ae91cb27ddc20958822111ccf15ab2bc488ac", "addresses": ["14TTpTGJopkKESBTKVSxsbBkjnWfpxme4k"], "asm": "OP_DUP OP_HASH160 25e9943ae91cb27ddc20958822111ccf15ab2bc4 OP_EQUALVERIFY OP_CHECKSIG", "type": "pubkeyhash"}, "value": 8.6, "n": 1}], "hex": "010000000288dbfb5fec17eb82bb363c05882b1a90f751f70de080e447019e1956e5d9bebe010000006b483045022100b5e2b7f1ba1ed0b49fb44504c744e6e652196e3ccef971daefeb320dc245f40202200d6555439c4e8a99e59a5b69e1d2b9cd423cb68b4b00854e04ebbc7c993adbb101210394fd8604f209d9084f0c655462c7e125031a0d8d32524b43e6a77acb93f6a465ffffffffa04233b7641a9e8d2b0fb3321bac21526b76e1761f85795c31c7a0b6f68b5be0110000006b483045022100d67bbf2c6330df72901b133be6bdd98c6f726c1c08fa92e007621cfe6cabf11b022029af96ce7c19616efe18e7c6426884f5e6455ae3440b5d0fea9fdbbbf6571ab70121032b6885229fe96062c26ae476fb19b41259e307f5519131b919c8caad8a064ef3ffffffff02ac801b00000000001976a91471c059c76e8c371ac394397f688e5ebe274581f088ac008f4233000000001976a91425e9943ae91cb27ddc20958822111ccf15ab2bc488ac00000000", "vin": [{"sequence": 4294967295, "scriptSig": {"hex": "483045022100b5e2b7f1ba1ed0b49fb44504c744e6e652196e3ccef971daefeb320dc245f40202200d6555439c4e8a99e59a5b69e1d2b9cd423cb68b4b00854e04ebbc7c993adbb101210394fd8604f209d9084f0c655462c7e125031a0d8d32524b43e6a77acb93f6a465", "asm": "3045022100b5e2b7f1ba1ed0b49fb44504c744e6e652196e3ccef971daefeb320dc245f40202200d6555439c4e8a99e59a5b69e1d2b9cd423cb68b4b00854e04ebbc7c993adbb1[ALL] 0394fd8604f209d9084f0c655462c7e125031a0d8d32524b43e6a77acb93f6a465"}, "vout": 1, "txid": "bebed9e556199e0147e480e00df751f7901a2b88053c36bb82eb17ec5ffbdb88"}, {"sequence": 4294967295, "scriptSig": {"hex": "483045022100d67bbf2c6330df72901b133be6bdd98c6f726c1c08fa92e007621cfe6cabf11b022029af96ce7c19616efe18e7c6426884f5e6455ae3440b5d0fea9fdbbbf6571ab70121032b6885229fe96062c26ae476fb19b41259e307f5519131b919c8caad8a064ef3", "asm": "3045022100d67bbf2c6330df72901b133be6bdd98c6f726c1c08fa92e007621cfe6cabf11b022029af96ce7c19616efe18e7c6426884f5e6455ae3440b5d0fea9fdbbbf6571ab7[ALL] 032b6885229fe96062c26ae476fb19b41259e307f5519131b919c8caad8a064ef3"}, "vout": 17, "txid": "e05b8bf6b6a0c7315c79851f76e1766b5221ac1b32b30f2b8d9e1a64b73342a0"}], "txid": "e077ff221afacc45f852dc3e423d331e0b45602054ea7f3b469032a1a6542f40", "blocktime": 1537873891, "version": 1, "confirmations": 11478, "time": 1537873891, "locktime": 0, "vsize": 374, "size": 374}