{"hash": "e07838671dd9b2e29309b2c7e8042cd26cfb0a6df26beb195d050d58c67b5702", "blockhash": "0000000000000000001e0dab787dd257d1dbfcb92a98c2207d5e1078be1f4165", "vout": [{"scriptPubKey": {"reqSigs": 1, "hex": "76a914609de6bf688c1ab85808488815f364220d24970188ac", "addresses": ["19os2bUe3pNKoeHnHnHnQaz6tjyV6rbo8x"], "asm": "OP_DUP OP_HASH160 609de6bf688c1ab85808488815f364220d249701 OP_EQUALVERIFY OP_CHECKSIG", "type": "pubkeyhash"}, "value": 9.28376328, "n": 0}, {"scriptPubKey": {"reqSigs": 1, "hex": "76a914f580f5ea688cc8dd7e87f1aecc54f1dc86dcd58d88ac", "addresses": ["1PP73LdzvaBU5EStTMztPgn7fPuKVrtZxk"], "asm": "OP_DUP OP_HASH160 f580f5ea688cc8dd7e87f1aecc54f1dc86dcd58d OP_EQUALVERIFY OP_CHECKSIG", "type": "pubkeyhash"}, "value": 0.01, "n": 1}], "hex": "010000000108946f4e299f0ecb08300e38a2b3b1cdaa9cf2b2a77fb7ba8525d385d41c9f96000000006a47304402203bc5a63bc580a799ad5aa6c2e311236bd74b647e63957ada8f907208aa0f2a5e02204f4631987becb5597da4d1a7e3c2c097611bc17f37a740e2ca9e774ed1ceed99012102c08603b6d1caf351a764e8bcfc99d817e549acc47865c2ae2a90141e7690407bffffffff0208e65537000000001976a914609de6bf688c1ab85808488815f364220d24970188ac40420f00000000001976a914f580f5ea688cc8dd7e87f1aecc54f1dc86dcd58d88ac00000000", "vin": [{"sequence": 4294967295, "scriptSig": {"hex": "47304402203bc5a63bc580a799ad5aa6c2e311236bd74b647e63957ada8f907208aa0f2a5e02204f4631987becb5597da4d1a7e3c2c097611bc17f37a740e2ca9e774ed1ceed99012102c08603b6d1caf351a764e8bcfc99d817e549acc47865c2ae2a90141e7690407b", "asm": "304402203bc5a63bc580a799ad5aa6c2e311236bd74b647e63957ada8f907208aa0f2a5e02204f4631987becb5597da4d1a7e3c2c097611bc17f37a740e2ca9e774ed1ceed99[ALL] 02c08603b6d1caf351a764e8bcfc99d817e549acc47865c2ae2a90141e7690407b"}, "vout": 0, "txid": "969f1cd485d32585bab77fa7b2f29caacdb1b3a2380e3008cb0e9f294e6f9408"}], "txid": "e07838671dd9b2e29309b2c7e8042cd26cfb0a6df26beb195d050d58c67b5702", "blocktime": 1537872475, "version": 1, "confirmations": 11486, "time": 1537872475, "locktime": 0, "vsize": 225, "size": 225}