{"hash": "c68d356011236b6582d2487575b788576ceea11042c10d9f0c5ba7df79a302b9", "blockhash": "0000000000000000000baef3f32e3676a92c3b2e5da21b426e4f302fc371ce76", "vout": [{"scriptPubKey": {"reqSigs": 1, "hex": "a9148f772fc68951c0f5a1542148d347e27c385eb8c087", "addresses": ["3EmbLCyUv4z2goZJrKyg8uHYNGS3BHrtyz"], "asm": "OP_HASH160 8f772fc68951c0f5a1542148d347e27c385eb8c0 OP_EQUAL", "type": "scripthash"}, "value": 0.0112066, "n": 0}, {"scriptPubKey": {"reqSigs": 1, "hex": "a91436920ea1a88e69832e1ea43ff76363cd5f4a8b5887", "addresses": ["36fZP8atniQBc5WfU7mC6u7FNhk84sbskm"], "asm": "OP_HASH160 36920ea1a88e69832e1ea43ff76363cd5f4a8b58 OP_EQUAL", "type": "scripthash"}, "value": 0.0021576, "n": 1}], "hex": "0200000000010227c6c4298d30a9fad4cc6f796ec976d4b75c45d29d16d6a4eb9d56814ca5d8750100000017160014807030f008cd025f1d58a144c1c6d45970bb5318feffffff581f7e30a2eb4182a2ed3989377151cf9643df5832287d9e3adade65335ba8e00e00000017160014b117020d60a5e8352a53e1fcab600f4838931576feffffff02941911000000000017a9148f772fc68951c0f5a1542148d347e27c385eb8c087d04a03000000000017a91436920ea1a88e69832e1ea43ff76363cd5f4a8b58870247304402201237b48ae21459f4a5ece2d82a22946c7cae3006ecc6b2de9696a6742be20d5b02201c9f27163b6ba865b91875e988028a63ab0443b782c012b6d6675e640c402806012103a9e0ad78bceae2230501a82504db6725f00a83c1415385f673ba01c33dc10cea02483045022100c39fcdcef443ac04ba74651b4db1e3b767123efe04346598fa968fe03cf2546d02207bcecde00f420635c306f115c1825ca3e1c193b5ad414c73debcdd8e28ac37380121030b770d5820f6fcce5f1b31b945fe980d215a7fe193eb1659d513b9d9c6e419d917490800", "vin": [{"txinwitness": ["304402201237b48ae21459f4a5ece2d82a22946c7cae3006ecc6b2de9696a6742be20d5b02201c9f27163b6ba865b91875e988028a63ab0443b782c012b6d6675e640c40280601", "03a9e0ad78bceae2230501a82504db6725f00a83c1415385f673ba01c33dc10cea"], "sequence": 4294967294, "scriptSig": {"hex": "160014807030f008cd025f1d58a144c1c6d45970bb5318", "asm": "0014807030f008cd025f1d58a144c1c6d45970bb5318"}, "vout": 1, "txid": "75d8a54c81569deba4d6169dd2455cb7d476c96e796fccd4faa9308d29c4c627"}, {"txinwitness": ["3045022100c39fcdcef443ac04ba74651b4db1e3b767123efe04346598fa968fe03cf2546d02207bcecde00f420635c306f115c1825ca3e1c193b5ad414c73debcdd8e28ac373801", "030b770d5820f6fcce5f1b31b945fe980d215a7fe193eb1659d513b9d9c6e419d9"], "sequence": 4294967294, "scriptSig": {"hex": "160014b117020d60a5e8352a53e1fcab600f4838931576", "asm": "0014b117020d60a5e8352a53e1fcab600f4838931576"}, "vout": 14, "txid": "e0a85b3365deda3a9e7d283258df4396cf5171378939eda28241eba2307e1f58"}], "txid": "e07d743ba1c92800606e6bd7a45b4c1c743418b34d015fb7b3030a9228bcfc37", "blocktime": 1537876114, "version": 2, "confirmations": 11462, "time": 1537876114, "locktime": 542999, "vsize": 257, "size": 419}