{"hash": "e07d35d2604072b5ae98fa12d96527854c435d3bde392d247737ef3290cff61a", "blockhash": "0000000000000000000e13cef7c366c0283d82e591d1acd082e914b08063cdf1", "vout": [{"scriptPubKey": {"reqSigs": 1, "hex": "76a914b9f929e1d2f3c04013d9549859d31699e321a9da88ac", "addresses": ["1HxLVgPqK9bY7bGsUdsxe3wHGSLD4q68zj"], "asm": "OP_DUP OP_HASH160 b9f929e1d2f3c04013d9549859d31699e321a9da OP_EQUALVERIFY OP_CHECKSIG", "type": "pubkeyhash"}, "value": 0.07832053, "n": 0}, {"scriptPubKey": {"reqSigs": 1, "hex": "76a9148f083f107c84365bc41df4cb5013bf069b94208188ac", "addresses": ["1E3HWQ5ReFn1y35gxXCVXwTPnTbxoYpWgw"], "asm": "OP_DUP OP_HASH160 8f083f107c84365bc41df4cb5013bf069b942081 OP_EQUALVERIFY OP_CHECKSIG", "type": "pubkeyhash"}, "value": 0.04344741, "n": 1}], "hex": "010000000102dc39ee3e410c98fe659536c8d09b83b09039c316ff3d6e9f3dffbe3d5b9aec010000006b483045022100c246a78f7415d9b0174f8bba739736e39159247b7b0c94f11c83124c44be80e60220317e9dc241daf085d4303f6f808a5f7b9d19e9315e49b0f54a0ab25f6132708f0121032cfcbe2f2957d3eca553d43083adb02cbb31ad349d1622f01882f84a39bc60efffffffff02f5817700000000001976a914b9f929e1d2f3c04013d9549859d31699e321a9da88aca54b4200000000001976a9148f083f107c84365bc41df4cb5013bf069b94208188ac00000000", "vin": [{"sequence": 4294967295, "scriptSig": {"hex": "483045022100c246a78f7415d9b0174f8bba739736e39159247b7b0c94f11c83124c44be80e60220317e9dc241daf085d4303f6f808a5f7b9d19e9315e49b0f54a0ab25f6132708f0121032cfcbe2f2957d3eca553d43083adb02cbb31ad349d1622f01882f84a39bc60ef", "asm": "3045022100c246a78f7415d9b0174f8bba739736e39159247b7b0c94f11c83124c44be80e60220317e9dc241daf085d4303f6f808a5f7b9d19e9315e49b0f54a0ab25f6132708f[ALL] 032cfcbe2f2957d3eca553d43083adb02cbb31ad349d1622f01882f84a39bc60ef"}, "vout": 1, "txid": "ec9a5b3dbeff3d9f6e3dff16c33990b0839bd0c8369565fe980c413eee39dc02"}], "txid": "e07d35d2604072b5ae98fa12d96527854c435d3bde392d247737ef3290cff61a", "blocktime": 1537871767, "version": 1, "confirmations": 11490, "time": 1537871767, "locktime": 0, "vsize": 226, "size": 226}