{"hash": "e08d81032dfa29a49d8c6ced62309a11c3a1c26d804e5e5d3f4e07278d3a4b39", "blockhash": "0000000000000000000e13cef7c366c0283d82e591d1acd082e914b08063cdf1", "vout": [{"scriptPubKey": {"reqSigs": 1, "hex": "76a914e52c2f3d6194164b759a4958060426eac36af6f388ac", "addresses": ["1Mtkfvbrr9H6hHim2FJp3pjp1K4M2QaMhk"], "asm": "OP_DUP OP_HASH160 e52c2f3d6194164b759a4958060426eac36af6f3 OP_EQUALVERIFY OP_CHECKSIG", "type": "pubkeyhash"}, "value": 0.00042601, "n": 0}, {"scriptPubKey": {"reqSigs": 1, "hex": "76a9146be31c18b892cccd05e09e79b6e27bd2267362e688ac", "addresses": ["1AqTNPWViDo4m5vVXgG1sVr2w9rq1JqYNv"], "asm": "OP_DUP OP_HASH160 6be31c18b892cccd05e09e79b6e27bd2267362e6 OP_EQUALVERIFY OP_CHECKSIG", "type": "pubkeyhash"}, "value": 0.046875, "n": 1}], "hex": "01000000012c8c8577d53c04767de86765f1f819c9aa478a27dba5d3c808a0527c6e019ba2000000006b483045022100a9ca8e449bab76d23b6b6769b303aa79a78e5c69a894b52b4f32cc1d2f9a985d022051ac56fa173de32a69b413658fb715497ea803ab95b793a4f07daa7ace312f3b012102f11afa6c1f344f652cd1e29e67a7794adcda475cce965e728df58c6c0345312bffffffff0269a60000000000001976a914e52c2f3d6194164b759a4958060426eac36af6f388ac8c864700000000001976a9146be31c18b892cccd05e09e79b6e27bd2267362e688ac00000000", "vin": [{"sequence": 4294967295, "scriptSig": {"hex": "483045022100a9ca8e449bab76d23b6b6769b303aa79a78e5c69a894b52b4f32cc1d2f9a985d022051ac56fa173de32a69b413658fb715497ea803ab95b793a4f07daa7ace312f3b012102f11afa6c1f344f652cd1e29e67a7794adcda475cce965e728df58c6c0345312b", "asm": "3045022100a9ca8e449bab76d23b6b6769b303aa79a78e5c69a894b52b4f32cc1d2f9a985d022051ac56fa173de32a69b413658fb715497ea803ab95b793a4f07daa7ace312f3b[ALL] 02f11afa6c1f344f652cd1e29e67a7794adcda475cce965e728df58c6c0345312b"}, "vout": 0, "txid": "a29b016e7c52a008c8d3a5db278a47aac919f8f16567e87d76043cd577858c2c"}], "txid": "e08d81032dfa29a49d8c6ced62309a11c3a1c26d804e5e5d3f4e07278d3a4b39", "blocktime": 1537871767, "version": 1, "confirmations": 11495, "time": 1537871767, "locktime": 0, "vsize": 226, "size": 226}