{"hash": "e090cc6ba62b357aed21f9456e177182947c53e12b1290c70dff6440fb26d7a1", "blockhash": "0000000000000000000e13cef7c366c0283d82e591d1acd082e914b08063cdf1", "vout": [{"scriptPubKey": {"reqSigs": 1, "hex": "76a91487764119d543c31326a43a5d32e95aa72572499a88ac", "addresses": ["1DMFtMJDQvh4mandJ1NsrHMr1Bs9YTCUks"], "asm": "OP_DUP OP_HASH160 87764119d543c31326a43a5d32e95aa72572499a OP_EQUALVERIFY OP_CHECKSIG", "type": "pubkeyhash"}, "value": 0.01561961, "n": 0}, {"scriptPubKey": {"reqSigs": 1, "hex": "76a914d61f35e2c53bb248a005ce44db8c1226202baab188ac", "addresses": ["1LXAzbVVPLNHrgQTmbyqUsCgAuMqu8EX1u"], "asm": "OP_DUP OP_HASH160 d61f35e2c53bb248a005ce44db8c1226202baab1 OP_EQUALVERIFY OP_CHECKSIG", "type": "pubkeyhash"}, "value": 0.547752, "n": 1}], "hex": "0100000001f8ac57c43b4cb13864a0f45533ae05bbb8d876482e2cd0c96a4643168b4a023a010000006b483045022100ade44daf47b64b9876b9338222b6a18da7c691aafe6b5ba89328a6c6780c26cc02207625ae0f2f0c6a5a16fc4a8a3484c46b6332292d7440b954af8f59d2568518f101210329b3459fa10e8fe925fe86bc0ce96999edf8a6100cceb80900875e65d12511f9ffffffff0269d51700000000001976a91487764119d543c31326a43a5d32e95aa72572499a88aca0cd4303000000001976a914d61f35e2c53bb248a005ce44db8c1226202baab188ac00000000", "vin": [{"sequence": 4294967295, "scriptSig": {"hex": "483045022100ade44daf47b64b9876b9338222b6a18da7c691aafe6b5ba89328a6c6780c26cc02207625ae0f2f0c6a5a16fc4a8a3484c46b6332292d7440b954af8f59d2568518f101210329b3459fa10e8fe925fe86bc0ce96999edf8a6100cceb80900875e65d12511f9", "asm": "3045022100ade44daf47b64b9876b9338222b6a18da7c691aafe6b5ba89328a6c6780c26cc02207625ae0f2f0c6a5a16fc4a8a3484c46b6332292d7440b954af8f59d2568518f1[ALL] 0329b3459fa10e8fe925fe86bc0ce96999edf8a6100cceb80900875e65d12511f9"}, "vout": 1, "txid": "3a024a8b1643466ac9d02c2e4876d8b8bb05ae3355f4a06438b14c3bc457acf8"}], "txid": "e090cc6ba62b357aed21f9456e177182947c53e12b1290c70dff6440fb26d7a1", "blocktime": 1537871767, "version": 1, "confirmations": 11495, "time": 1537871767, "locktime": 0, "vsize": 226, "size": 226}