{"hash": "6511bfc3ccdbafdd4dcda4c7d47538903c8d6cd854d38c4892d8980cfd32b021", "blockhash": "0000000000000000001e0dab787dd257d1dbfcb92a98c2207d5e1078be1f4165", "vout": [{"scriptPubKey": {"reqSigs": 1, "hex": "a914e1ef5430ed097bc9f4e06653e6a3dade9cf23bdb87", "addresses": ["3NHefZr31BhExibMSpC8GgSLw2GKZ8PZ7C"], "asm": "OP_HASH160 e1ef5430ed097bc9f4e06653e6a3dade9cf23bdb OP_EQUAL", "type": "scripthash"}, "value": 0.00999583, "n": 0}, {"scriptPubKey": {"reqSigs": 1, "hex": "76a9142e1b944fe7ffbe969fc1df8d662fd7b5d6303c9b88ac", "addresses": ["15Co856cRnFRCKwSSzECoyT3ozVhuFoJZ6"], "asm": "OP_DUP OP_HASH160 2e1b944fe7ffbe969fc1df8d662fd7b5d6303c9b OP_EQUALVERIFY OP_CHECKSIG", "type": "pubkeyhash"}, "value": 0.0028546, "n": 1}], "hex": "020000000001025c4836479ff5292986e72e459be9b0a7e5758a3d95205d6e69810ff358e88622000000001716001475f1b8b7dd13d2f75a33bce876fd3caa632ab8a5feffffffbb3a0039a598631e8ac2d1e8166d6cc937d3ed7a709382d28a4142277b293ea900000000171600144b521a6a6f5ab985de98fda4640b53151a10da0cfeffffff029f400f000000000017a914e1ef5430ed097bc9f4e06653e6a3dade9cf23bdb87145b0400000000001976a9142e1b944fe7ffbe969fc1df8d662fd7b5d6303c9b88ac02483045022100dfb19b369cda1b53371eb32a564cedb4d762306d77be168e86071b18cce1b2a1022046be30dcae040c2445a6f263c22164885ef3f2ec973b3863438db213f81b2ca7012102b3b7be50736ffe94d0c1b5a23c99564e18fd079bef722ed519a9ffc2e6b7b39e0247304402200d511f50bb52df7044ddef532bb40cb9c4c3f7640ec1a407c73651939ddee88d02204007492efd31bac3a32c57f49120447f14d9e815ef9bed039213291474792343012102c2a9dd72bfc6e3e4f4eb9e9219c38901199e16249a304871c80b019942c7624005490800", "vin": [{"txinwitness": ["3045022100dfb19b369cda1b53371eb32a564cedb4d762306d77be168e86071b18cce1b2a1022046be30dcae040c2445a6f263c22164885ef3f2ec973b3863438db213f81b2ca701", "02b3b7be50736ffe94d0c1b5a23c99564e18fd079bef722ed519a9ffc2e6b7b39e"], "sequence": 4294967294, "scriptSig": {"hex": "16001475f1b8b7dd13d2f75a33bce876fd3caa632ab8a5", "asm": "001475f1b8b7dd13d2f75a33bce876fd3caa632ab8a5"}, "vout": 0, "txid": "2286e858f30f81696e5d20953d8a75e5a7b0e99b452ee7862929f59f4736485c"}, {"txinwitness": ["304402200d511f50bb52df7044ddef532bb40cb9c4c3f7640ec1a407c73651939ddee88d02204007492efd31bac3a32c57f49120447f14d9e815ef9bed03921329147479234301", "02c2a9dd72bfc6e3e4f4eb9e9219c38901199e16249a304871c80b019942c76240"], "sequence": 4294967294, "scriptSig": {"hex": "1600144b521a6a6f5ab985de98fda4640b53151a10da0c", "asm": "00144b521a6a6f5ab985de98fda4640b53151a10da0c"}, "vout": 0, "txid": "a93e297b2742418ad28293707aedd337c96c6d16e8d1c28a1e6398a539003abb"}], "txid": "e0986bddfcfd3b1f63b0199feef5b44f318e81ae2e2840c1ad718c0fa7d16016", "blocktime": 1537872475, "version": 2, "confirmations": 11487, "time": 1537872475, "locktime": 542981, "vsize": 259, "size": 421}