{"hash": "e0a0045ccdb137296c281846e24035fa80086cba406650fda266d7b6055ddb79", "blockhash": "0000000000000000001f0ddff1eddb255c1121bcd4da4f1bc9a0da00cae72433", "vout": [{"scriptPubKey": {"reqSigs": 1, "hex": "a914b29b9d76a620bb6a1413e5c6dcef5a740a7d03d787", "addresses": ["3HyQd1s3L7cHSTgQ8MPEnVDNk7Y969zap7"], "asm": "OP_HASH160 b29b9d76a620bb6a1413e5c6dcef5a740a7d03d7 OP_EQUAL", "type": "scripthash"}, "value": 0.015, "n": 0}, {"scriptPubKey": {"reqSigs": 1, "hex": "76a914c963e2a55e028b6147115322fbd939fdbea5bdd388ac", "addresses": ["1KMrUiLaGEMF6V5Gm12m2dbujmv71WSXTB"], "asm": "OP_DUP OP_HASH160 c963e2a55e028b6147115322fbd939fdbea5bdd3 OP_EQUALVERIFY OP_CHECKSIG", "type": "pubkeyhash"}, "value": 0.02758877, "n": 1}], "hex": "01000000019d4a1c73a389f00bcafb71349be4271cc49276fb421e4ff8b99fbb620a14a5fc000000006a47304402202fafc4f8200ee5a59adf287628464c123c9781fb49a2ec30b815124e67a439360220358e8882daacc0adf756238d899cee060e1147e0522c5f96231c3cac47192e0f01210345875d93a4efd75227bc3c2ed96c92f7d9879098c509f53d0ef1e1a43b2aaeb3ffffffff0260e316000000000017a914b29b9d76a620bb6a1413e5c6dcef5a740a7d03d787dd182a00000000001976a914c963e2a55e028b6147115322fbd939fdbea5bdd388ac00000000", "vin": [{"sequence": 4294967295, "scriptSig": {"hex": "47304402202fafc4f8200ee5a59adf287628464c123c9781fb49a2ec30b815124e67a439360220358e8882daacc0adf756238d899cee060e1147e0522c5f96231c3cac47192e0f01210345875d93a4efd75227bc3c2ed96c92f7d9879098c509f53d0ef1e1a43b2aaeb3", "asm": "304402202fafc4f8200ee5a59adf287628464c123c9781fb49a2ec30b815124e67a439360220358e8882daacc0adf756238d899cee060e1147e0522c5f96231c3cac47192e0f[ALL] 0345875d93a4efd75227bc3c2ed96c92f7d9879098c509f53d0ef1e1a43b2aaeb3"}, "vout": 0, "txid": "fca5140a62bb9fb9f84f1e42fb7692c41c27e49b3471fbca0bf089a3731c4a9d"}], "txid": "e0a0045ccdb137296c281846e24035fa80086cba406650fda266d7b6055ddb79", "blocktime": 1537872018, "version": 1, "confirmations": 11489, "time": 1537872018, "locktime": 0, "vsize": 223, "size": 223}