{"hash": "5f0327075d56a90030642471ca7a114e9424834252c6ead892b4053fd55cf509", "blockhash": "00000000000000000018f53835495a110e01622372bf6ae95dc86f2b0ab887b0", "vout": [{"scriptPubKey": {"reqSigs": 1, "hex": "a9143988bf519b49ceb184baeee457700a79cfa12d8b87", "addresses": ["36wEFrEsseSk64dQoBSd7fjb588GfHxMAs"], "asm": "OP_HASH160 3988bf519b49ceb184baeee457700a79cfa12d8b OP_EQUAL", "type": "scripthash"}, "value": 0.0004, "n": 0}, {"scriptPubKey": {"reqSigs": 1, "hex": "00145022cd484440c6bfd738acb3788e1e8032ac70a6", "addresses": ["bc1q2q3v6jzygrrtl4ec4jeh3rs7sqe2cu9x3srux0"], "asm": "0 5022cd484440c6bfd738acb3788e1e8032ac70a6", "type": "witness_v0_keyhash"}, "value": 1.5e-05, "n": 1}], "hex": "01000000000101b91496759369882a7c99d33512deaafe99f5f0e4b968e75cfeb0beda9171078a0000000000ffffffff02409c00000000000017a9143988bf519b49ceb184baeee457700a79cfa12d8b87dc050000000000001600145022cd484440c6bfd738acb3788e1e8032ac70a6024730440220107dfd6f4eaaf5f4727b19c812377718462e776396235c36f9781ec0e591316502206485cdbaf8961c1934a858be3b33a25c9f48a86f4e7565ad71d4f579b6bff8b3012103272f9865ecb8c72c817635a9e514bbfd00afd13c3623d3c0ccb9a29f7db91bec00000000", "vin": [{"txinwitness": ["30440220107dfd6f4eaaf5f4727b19c812377718462e776396235c36f9781ec0e591316502206485cdbaf8961c1934a858be3b33a25c9f48a86f4e7565ad71d4f579b6bff8b301", "03272f9865ecb8c72c817635a9e514bbfd00afd13c3623d3c0ccb9a29f7db91bec"], "sequence": 4294967295, "scriptSig": {"hex": "", "asm": ""}, "vout": 0, "txid": "8a077191dabeb0fe5ce768b9e4f0f599feaade1235d3997c2a886993759614b9"}], "txid": "e0a3700119105c9164fd52da3776f0f6c9315b615580026c38ca4bbdc44fbb8c", "blocktime": 1537870928, "version": 1, "confirmations": 11513, "time": 1537870928, "locktime": 0, "vsize": 142, "size": 223}