{"hash": "e0ac3002ed8d54bfdc10e83f8a9e776a9666a7d306f2cc7dbf1d7c76a62fc246", "blockhash": "0000000000000000000baef3f32e3676a92c3b2e5da21b426e4f302fc371ce76", "vout": [{"scriptPubKey": {"type": "nulldata", "hex": "6a4c500000781a0001df7057ef6d3dfe1d072e502d019d6ddc0f1b8ff117702940d64fa54d8eb227026f8ee00e0da3470aa859b12bdaa45baa1cde0614814ff37bef711d100759d4ba30d2c37bb011d97e02cf", "asm": "OP_RETURN 0000781a0001df7057ef6d3dfe1d072e502d019d6ddc0f1b8ff117702940d64fa54d8eb227026f8ee00e0da3470aa859b12bdaa45baa1cde0614814ff37bef711d100759d4ba30d2c37bb011d97e02cf"}, "value": 0.0, "n": 0}, {"scriptPubKey": {"reqSigs": 1, "hex": "76a91430c17ca25d4c5d18be3e08d13f96e530a0d1b08588ac", "addresses": ["15SoDunRbc2J4Lz8kYjFiJ5sUYEjD3xwtm"], "asm": "OP_DUP OP_HASH160 30c17ca25d4c5d18be3e08d13f96e530a0d1b085 OP_EQUALVERIFY OP_CHECKSIG", "type": "pubkeyhash"}, "value": 0.00629789, "n": 1}], "hex": "0100000001b73a061235ccf5ea81d83a7441f651bc8fb29185474a30f690adfc62b1e4a49f000000006a4730440220024153c9c2df6dfa6b757946a16b77045bf3a3ccde39488f66d7e88031b3c4af022056faf72ecd337e93ad8792deba749987974f443e6326884f6225a95f1b83c02001210300f52c88e92743214f1c22a716f112d18a4b2273ebe050ff6d4ff1b13dfc95fdffffffff020000000000000000536a4c500000781a0001df7057ef6d3dfe1d072e502d019d6ddc0f1b8ff117702940d64fa54d8eb227026f8ee00e0da3470aa859b12bdaa45baa1cde0614814ff37bef711d100759d4ba30d2c37bb011d97e02cf1d9c0900000000001976a91430c17ca25d4c5d18be3e08d13f96e530a0d1b08588ac00000000", "vin": [{"sequence": 4294967295, "scriptSig": {"hex": "4730440220024153c9c2df6dfa6b757946a16b77045bf3a3ccde39488f66d7e88031b3c4af022056faf72ecd337e93ad8792deba749987974f443e6326884f6225a95f1b83c02001210300f52c88e92743214f1c22a716f112d18a4b2273ebe050ff6d4ff1b13dfc95fd", "asm": "30440220024153c9c2df6dfa6b757946a16b77045bf3a3ccde39488f66d7e88031b3c4af022056faf72ecd337e93ad8792deba749987974f443e6326884f6225a95f1b83c020[ALL] 0300f52c88e92743214f1c22a716f112d18a4b2273ebe050ff6d4ff1b13dfc95fd"}, "vout": 0, "txid": "9fa4e4b162fcad90f6304a478591b28fbc51f641743ad881eaf5cc3512063ab7"}], "txid": "e0ac3002ed8d54bfdc10e83f8a9e776a9666a7d306f2cc7dbf1d7c76a62fc246", "blocktime": 1537876114, "version": 1, "confirmations": 11460, "time": 1537876114, "locktime": 0, "vsize": 283, "size": 283}