{"hash": "e0ad8f2210a6f70b93fb84d2bbd2816d786d882a0d12afba798faa17397e5d33", "blockhash": "0000000000000000001f76057863aec43deb6fa401d9628bb513d65a8098bfab", "vout": [{"scriptPubKey": {"reqSigs": 1, "hex": "76a9143718fc01ef9a04eb45c8dd0d86fb79e63d5d2c9c88ac", "addresses": ["162L6VrhoPRPVHjFGQkoC25FF2YpM2mKak"], "asm": "OP_DUP OP_HASH160 3718fc01ef9a04eb45c8dd0d86fb79e63d5d2c9c OP_EQUALVERIFY OP_CHECKSIG", "type": "pubkeyhash"}, "value": 0.00623498, "n": 0}, {"scriptPubKey": {"reqSigs": 1, "hex": "a91427fc707a8943e994d06d743be12c50019df85e7187", "addresses": ["35LSgpWt52hhdFwhXJqZpQoFRXJqM35xMe"], "asm": "OP_HASH160 27fc707a8943e994d06d743be12c50019df85e71 OP_EQUAL", "type": "scripthash"}, "value": 0.00686935, "n": 1}], "hex": "010000000136d00796ab29f5a6ed04b3d3b24e003c5f68f481e7ffb0411d5bea26f991e7d2000000006b483045022100be098fb0b22eba769b742ec6f8c5ff81e84e1c51794dc14f27985153960be9c5022017eba61b444950f2c365ce9f3bd2632b74fce4ee299d25fcaa06be678757629c012102b9aa6b908ac09ba1aa3e90d4835753fb361fd3a1fa5f5e6fc560f5839734b157ffffffff028a830900000000001976a9143718fc01ef9a04eb45c8dd0d86fb79e63d5d2c9c88ac577b0a000000000017a91427fc707a8943e994d06d743be12c50019df85e718700000000", "vin": [{"sequence": 4294967295, "scriptSig": {"hex": "483045022100be098fb0b22eba769b742ec6f8c5ff81e84e1c51794dc14f27985153960be9c5022017eba61b444950f2c365ce9f3bd2632b74fce4ee299d25fcaa06be678757629c012102b9aa6b908ac09ba1aa3e90d4835753fb361fd3a1fa5f5e6fc560f5839734b157", "asm": "3045022100be098fb0b22eba769b742ec6f8c5ff81e84e1c51794dc14f27985153960be9c5022017eba61b444950f2c365ce9f3bd2632b74fce4ee299d25fcaa06be678757629c[ALL] 02b9aa6b908ac09ba1aa3e90d4835753fb361fd3a1fa5f5e6fc560f5839734b157"}, "vout": 0, "txid": "d2e791f926ea5b1d41b0ffe781f4685f3c004eb2d3b304eda6f529ab9607d036"}], "txid": "e0ad8f2210a6f70b93fb84d2bbd2816d786d882a0d12afba798faa17397e5d33", "blocktime": 1537873891, "version": 1, "confirmations": 11478, "time": 1537873891, "locktime": 0, "vsize": 224, "size": 224}