{"hash": "e0afb1dc15c32e46ed8160d81d23a360fed90c5d8862b019b4ddfab8e329df74", "blockhash": "0000000000000000000e13cef7c366c0283d82e591d1acd082e914b08063cdf1", "vout": [{"scriptPubKey": {"reqSigs": 1, "hex": "76a914d146a19d145f57c10e06854bcf1a3d7abadfda9088ac", "addresses": ["1L5YqeD7Z3mkE9XuVGJW2iQXGPM6mg5Qyw"], "asm": "OP_DUP OP_HASH160 d146a19d145f57c10e06854bcf1a3d7abadfda90 OP_EQUALVERIFY OP_CHECKSIG", "type": "pubkeyhash"}, "value": 0.00027027, "n": 0}, {"scriptPubKey": {"reqSigs": 1, "hex": "76a91488d5f4012cd0061224003ed11b2e5bbebda1dba788ac", "addresses": ["1DUXCpD2rQLQLq4AJsvkjwFEAqsvHhBUmX"], "asm": "OP_DUP OP_HASH160 88d5f4012cd0061224003ed11b2e5bbebda1dba7 OP_EQUALVERIFY OP_CHECKSIG", "type": "pubkeyhash"}, "value": 0.001224, "n": 1}], "hex": "0100000001b3303e13112f93331d4755d97192aaa1f25c2bede09cf75c711cf5ae7ac1007d030000006a47304402205f0f9c16830b4404c4f8495d08b84e9271d6c6569fd4c15fc211876d6f117714022024b677b1c4f2ae22de426ab3d2237b91dfede779db639fb88d389a410d7b5cb00121020d143280551e08359a993ad810e4c032e412c13e838379610ce8a510a5215758ffffffff0293690000000000001976a914d146a19d145f57c10e06854bcf1a3d7abadfda9088ac20de0100000000001976a91488d5f4012cd0061224003ed11b2e5bbebda1dba788ac00000000", "vin": [{"sequence": 4294967295, "scriptSig": {"hex": "47304402205f0f9c16830b4404c4f8495d08b84e9271d6c6569fd4c15fc211876d6f117714022024b677b1c4f2ae22de426ab3d2237b91dfede779db639fb88d389a410d7b5cb00121020d143280551e08359a993ad810e4c032e412c13e838379610ce8a510a5215758", "asm": "304402205f0f9c16830b4404c4f8495d08b84e9271d6c6569fd4c15fc211876d6f117714022024b677b1c4f2ae22de426ab3d2237b91dfede779db639fb88d389a410d7b5cb0[ALL] 020d143280551e08359a993ad810e4c032e412c13e838379610ce8a510a5215758"}, "vout": 3, "txid": "7d00c17aaef51c715cf79ce0ed2b5cf2a1aa9271d955471d33932f11133e30b3"}], "txid": "e0afb1dc15c32e46ed8160d81d23a360fed90c5d8862b019b4ddfab8e329df74", "blocktime": 1537871767, "version": 1, "confirmations": 11495, "time": 1537871767, "locktime": 0, "vsize": 225, "size": 225}