{"hash": "e0b01723cf3d0bf428545801094127925b3bcdca5c84db4aa7900d77103f23d1", "blockhash": "0000000000000000000dcc0f55137456b1a82d3642486a52398922ac4d620174", "vout": [{"scriptPubKey": {"reqSigs": 1, "hex": "76a914e8f2431349879313fd1a63fb4fc7f2f9c95b151388ac", "addresses": ["1NEhzAY7PmGavqvTPHETEETbLmLbKi2w8t"], "asm": "OP_DUP OP_HASH160 e8f2431349879313fd1a63fb4fc7f2f9c95b1513 OP_EQUALVERIFY OP_CHECKSIG", "type": "pubkeyhash"}, "value": 0.82368002, "n": 0}], "hex": "01000000028ef4d201adba3420dd48c751ef3050e3cb912a3d2441ad2a95a9be79aa989504010000006a4730440220086dd644ba5edec565b2fd9f0ff9b5c680e36512d77b2cf7ea0a771085c171ba02201dfb4b64669baa48006991ba2f690f6094001d7cc5a0b1a1b0161c727c3acb8a012102817ddf46d8a15d9620cf7a0fd5700bb0bd10922a659d35a043e2daf6e40d4497ffffffffd0cf632e9fa41e91519799958ead96c909565f2df1c8ec3b0bac1cedf3922e49000000006a4730440220120df075f40c50966f0cbc05e2bef5973bf726cd513fa2a44cf3c9bc02a8e30202200f08a9021244e28fa1cd13d92f1bf120f1fdd621cf32c321374d9782ee964cd0012102939189a85fa69f696a7ce2ed64caf4d88431375966ab06f112b2e65d970eb9bcffffffff0102d6e804000000001976a914e8f2431349879313fd1a63fb4fc7f2f9c95b151388ac00000000", "vin": [{"sequence": 4294967295, "scriptSig": {"hex": "4730440220086dd644ba5edec565b2fd9f0ff9b5c680e36512d77b2cf7ea0a771085c171ba02201dfb4b64669baa48006991ba2f690f6094001d7cc5a0b1a1b0161c727c3acb8a012102817ddf46d8a15d9620cf7a0fd5700bb0bd10922a659d35a043e2daf6e40d4497", "asm": "30440220086dd644ba5edec565b2fd9f0ff9b5c680e36512d77b2cf7ea0a771085c171ba02201dfb4b64669baa48006991ba2f690f6094001d7cc5a0b1a1b0161c727c3acb8a[ALL] 02817ddf46d8a15d9620cf7a0fd5700bb0bd10922a659d35a043e2daf6e40d4497"}, "vout": 1, "txid": "049598aa79bea9952aad41243d2a91cbe35030ef51c748dd2034baad01d2f48e"}, {"sequence": 4294967295, "scriptSig": {"hex": "4730440220120df075f40c50966f0cbc05e2bef5973bf726cd513fa2a44cf3c9bc02a8e30202200f08a9021244e28fa1cd13d92f1bf120f1fdd621cf32c321374d9782ee964cd0012102939189a85fa69f696a7ce2ed64caf4d88431375966ab06f112b2e65d970eb9bc", "asm": "30440220120df075f40c50966f0cbc05e2bef5973bf726cd513fa2a44cf3c9bc02a8e30202200f08a9021244e28fa1cd13d92f1bf120f1fdd621cf32c321374d9782ee964cd0[ALL] 02939189a85fa69f696a7ce2ed64caf4d88431375966ab06f112b2e65d970eb9bc"}, "vout": 0, "txid": "492e92f3ed1cac0b3becc8f12d5f5609c996ad8e95999751911ea49f2e63cfd0"}], "txid": "e0b01723cf3d0bf428545801094127925b3bcdca5c84db4aa7900d77103f23d1", "blocktime": 1537870268, "version": 1, "confirmations": 11518, "time": 1537870268, "locktime": 0, "vsize": 338, "size": 338}