{"hash": "f3a84dd18d7cc7fda004946937f03d02e1813048db7cc8d18259b6706cf7a2c9", "blockhash": "0000000000000000001cda96e906b7601b7a6fb1a3b62bca570a9e5d8f4b3de1", "vout": [{"scriptPubKey": {"reqSigs": 1, "hex": "76a914aa0cbca5b0c1adeeb58f0914749223e879fb38ec88ac", "addresses": ["1GW98b2jfRwK38SuMgRrE29RQg3AhCvtXz"], "asm": "OP_DUP OP_HASH160 aa0cbca5b0c1adeeb58f0914749223e879fb38ec OP_EQUALVERIFY OP_CHECKSIG", "type": "pubkeyhash"}, "value": 0.01257747, "n": 0}, {"scriptPubKey": {"reqSigs": 1, "hex": "76a914e3c8a8bba40813b5a1767046b39301e4509d1b0688ac", "addresses": ["1MmQmawJjXYsChBNxGjqA9E8XeGd814hFa"], "asm": "OP_DUP OP_HASH160 e3c8a8bba40813b5a1767046b39301e4509d1b06 OP_EQUALVERIFY OP_CHECKSIG", "type": "pubkeyhash"}, "value": 0.08737323, "n": 1}], "hex": "02000000000101ef1dc058e30e6755c92faab0f09940a346a4dafe77dcf623a537dd84ded7e40501000000171600140d4cadb1d20c85c71e0bc498572ced7ac3891745feffffff0213311300000000001976a914aa0cbca5b0c1adeeb58f0914749223e879fb38ec88ac2b528500000000001976a914e3c8a8bba40813b5a1767046b39301e4509d1b0688ac0247304402204f6f6512e3f63a7842e5a0a1d60aff7813ce0c6124e419355b73d70a3355fe46022017dc3da002b179d79514aab323acee835a38a1cfef4600101d0528448494df4d012102f3b7f1ee855742c1db872e8a15df0d405a17d23222b2fab76c201fab63cd334313490800", "vin": [{"txinwitness": ["304402204f6f6512e3f63a7842e5a0a1d60aff7813ce0c6124e419355b73d70a3355fe46022017dc3da002b179d79514aab323acee835a38a1cfef4600101d0528448494df4d01", "02f3b7f1ee855742c1db872e8a15df0d405a17d23222b2fab76c201fab63cd3343"], "sequence": 4294967294, "scriptSig": {"hex": "1600140d4cadb1d20c85c71e0bc498572ced7ac3891745", "asm": "00140d4cadb1d20c85c71e0bc498572ced7ac3891745"}, "vout": 1, "txid": "05e4d7de84dd37a523f6dc77fedaa446a34099f0b0aa2fc955670ee358c01def"}], "txid": "e0b497e6d579b0f86c97c84b62f1b821c8dae575f05680202a816f4750edf446", "blocktime": 1537873282, "version": 2, "confirmations": 11480, "time": 1537873282, "locktime": 542995, "vsize": 170, "size": 251}