{"hash": "e0c26925e348b9a98116960df5e0f13893a552150cac2bdf22ca441b62c6a3a2", "blockhash": "0000000000000000001e0dab787dd257d1dbfcb92a98c2207d5e1078be1f4165", "vout": [{"scriptPubKey": {"reqSigs": 1, "hex": "76a914d782e18499e7c7732e23b508e8c6801c37348b3d88ac", "addresses": ["1LeX51aUnCnBQBwqbFkZSzrcMvQeCXVNCA"], "asm": "OP_DUP OP_HASH160 d782e18499e7c7732e23b508e8c6801c37348b3d OP_EQUALVERIFY OP_CHECKSIG", "type": "pubkeyhash"}, "value": 0.00471536, "n": 0}, {"scriptPubKey": {"type": "nulldata", "hex": "6a146f6d6e69000000000000001f0000002e90edd000", "asm": "OP_RETURN 6f6d6e69000000000000001f0000002e90edd000"}, "value": 0.0, "n": 1}, {"scriptPubKey": {"reqSigs": 1, "hex": "76a914a25dec4d0011064ef106a983c39c7a540699f22088ac", "addresses": ["1FoWyxwPXuj4C6abqwhjDWdz6D4PZgYRjA"], "asm": "OP_DUP OP_HASH160 a25dec4d0011064ef106a983c39c7a540699f220 OP_EQUALVERIFY OP_CHECKSIG", "type": "pubkeyhash"}, "value": 5.46e-06, "n": 2}], "hex": "01000000034fe98605c39cced46fdd75a11c4bec496e9bd4bb15e2b44cc9faa311fc2e217e020000006b483045022100f0876b6a4b07442bef8e0c3499d6af0a79aa538844180285a4bf2df01e80a5990220606fa17221faabcff5cca5cccfc66ea83fb3a6a15fb3b63e3b1f610f4f59086d0121026c49c93d6e5f3abf3866264f41533d0e5ab94673e4a6f8d10e0c39d47e25bd48feffffff6cec8635636e50ab36ef9bf569bf08a813e05ac4725730d24a421e8dbd3f77bd020000006a47304402203dc203ac8c1fb39bf466047685565fa310ceb40bf891ee0a8a0d299d293b4515022062210cf893e48f8122459b17410f3b580a285bd557b4724dc1ee531f1c9e93f40121026c49c93d6e5f3abf3866264f41533d0e5ab94673e4a6f8d10e0c39d47e25bd48feffffff2499a40388cffb676ca6ab64cf961f0f5c9ff772bfaa9044a0f60ad70a50c537020000006b483045022100918c73e419759846faa9c68f134212a2e7002217ce446a940612627280fdd21e022055b32b9f9329573d5f7573d20b184fd332c5671520ecf8a76be44f2c01dfe2ad0121026c49c93d6e5f3abf3866264f41533d0e5ab94673e4a6f8d10e0c39d47e25bd48feffffff03f0310700000000001976a914d782e18499e7c7732e23b508e8c6801c37348b3d88ac0000000000000000166a146f6d6e69000000000000001f0000002e90edd00022020000000000001976a914a25dec4d0011064ef106a983c39c7a540699f22088ac12490800", "vin": [{"sequence": 4294967294, "scriptSig": {"hex": "483045022100f0876b6a4b07442bef8e0c3499d6af0a79aa538844180285a4bf2df01e80a5990220606fa17221faabcff5cca5cccfc66ea83fb3a6a15fb3b63e3b1f610f4f59086d0121026c49c93d6e5f3abf3866264f41533d0e5ab94673e4a6f8d10e0c39d47e25bd48", "asm": "3045022100f0876b6a4b07442bef8e0c3499d6af0a79aa538844180285a4bf2df01e80a5990220606fa17221faabcff5cca5cccfc66ea83fb3a6a15fb3b63e3b1f610f4f59086d[ALL] 026c49c93d6e5f3abf3866264f41533d0e5ab94673e4a6f8d10e0c39d47e25bd48"}, "vout": 2, "txid": "7e212efc11a3fac94cb4e215bbd49b6e49ec4b1ca175dd6fd4ce9cc30586e94f"}, {"sequence": 4294967294, "scriptSig": {"hex": "47304402203dc203ac8c1fb39bf466047685565fa310ceb40bf891ee0a8a0d299d293b4515022062210cf893e48f8122459b17410f3b580a285bd557b4724dc1ee531f1c9e93f40121026c49c93d6e5f3abf3866264f41533d0e5ab94673e4a6f8d10e0c39d47e25bd48", "asm": "304402203dc203ac8c1fb39bf466047685565fa310ceb40bf891ee0a8a0d299d293b4515022062210cf893e48f8122459b17410f3b580a285bd557b4724dc1ee531f1c9e93f4[ALL] 026c49c93d6e5f3abf3866264f41533d0e5ab94673e4a6f8d10e0c39d47e25bd48"}, "vout": 2, "txid": "bd773fbd8d1e424ad2305772c45ae013a808bf69f59bef36ab506e633586ec6c"}, {"sequence": 4294967294, "scriptSig": {"hex": "483045022100918c73e419759846faa9c68f134212a2e7002217ce446a940612627280fdd21e022055b32b9f9329573d5f7573d20b184fd332c5671520ecf8a76be44f2c01dfe2ad0121026c49c93d6e5f3abf3866264f41533d0e5ab94673e4a6f8d10e0c39d47e25bd48", "asm": "3045022100918c73e419759846faa9c68f134212a2e7002217ce446a940612627280fdd21e022055b32b9f9329573d5f7573d20b184fd332c5671520ecf8a76be44f2c01dfe2ad[ALL] 026c49c93d6e5f3abf3866264f41533d0e5ab94673e4a6f8d10e0c39d47e25bd48"}, "vout": 2, "txid": "37c5500ad70af6a04490aabf72f79f5c0f1f96cf64aba66c67fbcf8803a49924"}], "txid": "e0c26925e348b9a98116960df5e0f13893a552150cac2bdf22ca441b62c6a3a2", "blocktime": 1537872475, "version": 1, "confirmations": 11487, "time": 1537872475, "locktime": 542994, "vsize": 552, "size": 552}