{"hash": "e0c5fa89c4f8f6608f39a9bf705066792b8c9e4feb6548e1d7279ea2aec8e674", "blockhash": "00000000000000000024a2167bbff67b0be802c0b01cdd79e6331c2be6459f87", "vout": [{"scriptPubKey": {"reqSigs": 1, "hex": "a91455491ad73d06dca976817956e176ee3ab27bf2ac87", "addresses": ["39TxwGDTkdFSVAyS2uRAkXDuARJv2CdCKo"], "asm": "OP_HASH160 55491ad73d06dca976817956e176ee3ab27bf2ac OP_EQUAL", "type": "scripthash"}, "value": 0.0373, "n": 0}, {"scriptPubKey": {"reqSigs": 1, "hex": "76a914e01bae7d7c54ca2864bc8c5c0dc1d041fbef562d88ac", "addresses": ["1MRyXKePEaNSqZu6wwkskM38jTui3vmG2w"], "asm": "OP_DUP OP_HASH160 e01bae7d7c54ca2864bc8c5c0dc1d041fbef562d OP_EQUALVERIFY OP_CHECKSIG", "type": "pubkeyhash"}, "value": 0.01176898, "n": 1}], "hex": "0200000002259bf13d07c786005fb35d14d73459863b918407c0fd8e5be4ac66f8326dc1b0000000006b483045022100f9de04f9570815d4049bbc75487b8a4ff5535e284e7ffa0d1f294e527797f3fe022045ff2a4e49713fc089a492e6626825356b776b2c25654858a4875cd32051dbfe012103eba93b22736ca0985a73bc02d224105e02a87240a08152e6964ae30d494ec85cfeffffff9e3f8f0c9fbff108adab9a96fb67e3c5305d1a59717bfc6de79584d0852c1929010000006b483045022100ef2adaf0b6907fc24137552957de1e9ebd06d6f961887c308de6843510e3bdf702206ae2b68618028e190b3cdd3c014910834567e05be89c8aca57206f5e462ad1c401210254f109c3e0830c52f8ef74a2029ea8d3c5331e11813fab24dd6914969a0f9f80feffffff0250ea38000000000017a91455491ad73d06dca976817956e176ee3ab27bf2ac8742f51100000000001976a914e01bae7d7c54ca2864bc8c5c0dc1d041fbef562d88ac0d490800", "vin": [{"sequence": 4294967294, "scriptSig": {"hex": "483045022100f9de04f9570815d4049bbc75487b8a4ff5535e284e7ffa0d1f294e527797f3fe022045ff2a4e49713fc089a492e6626825356b776b2c25654858a4875cd32051dbfe012103eba93b22736ca0985a73bc02d224105e02a87240a08152e6964ae30d494ec85c", "asm": "3045022100f9de04f9570815d4049bbc75487b8a4ff5535e284e7ffa0d1f294e527797f3fe022045ff2a4e49713fc089a492e6626825356b776b2c25654858a4875cd32051dbfe[ALL] 03eba93b22736ca0985a73bc02d224105e02a87240a08152e6964ae30d494ec85c"}, "vout": 0, "txid": "b0c16d32f866ace45b8efdc00784913b865934d7145db35f0086c7073df19b25"}, {"sequence": 4294967294, "scriptSig": {"hex": "483045022100ef2adaf0b6907fc24137552957de1e9ebd06d6f961887c308de6843510e3bdf702206ae2b68618028e190b3cdd3c014910834567e05be89c8aca57206f5e462ad1c401210254f109c3e0830c52f8ef74a2029ea8d3c5331e11813fab24dd6914969a0f9f80", "asm": "3045022100ef2adaf0b6907fc24137552957de1e9ebd06d6f961887c308de6843510e3bdf702206ae2b68618028e190b3cdd3c014910834567e05be89c8aca57206f5e462ad1c4[ALL] 0254f109c3e0830c52f8ef74a2029ea8d3c5331e11813fab24dd6914969a0f9f80"}, "vout": 1, "txid": "29192c85d08495e76dfc7b71591a5d30c5e367fb969aabad08f1bf9f0c8f3f9e"}], "txid": "e0c5fa89c4f8f6608f39a9bf705066792b8c9e4feb6548e1d7279ea2aec8e674", "blocktime": 1537870564, "version": 2, "confirmations": 11515, "time": 1537870564, "locktime": 542989, "vsize": 372, "size": 372}