{"hash": "e0ca4970ae934cf2b9d252ce10a02be7dac52ec471e8c5de215e214ccc5a85c6", "blockhash": "0000000000000000000e13cef7c366c0283d82e591d1acd082e914b08063cdf1", "vout": [{"scriptPubKey": {"reqSigs": 1, "hex": "76a91421a52660b10e414fe2eb2d5a68f4637758a6348288ac", "addresses": ["144u99ZFj7pZ2vJs7HGWGD22BLynuqvyiJ"], "asm": "OP_DUP OP_HASH160 21a52660b10e414fe2eb2d5a68f4637758a63482 OP_EQUALVERIFY OP_CHECKSIG", "type": "pubkeyhash"}, "value": 1.522e-05, "n": 0}, {"scriptPubKey": {"reqSigs": 1, "hex": "a9141ca9ec3c03382c7ca729f5fbddbc7316f60a2fb587", "addresses": ["34JaQMgqP98Jbgpy4nE6323HmmWfRAcvz6"], "asm": "OP_HASH160 1ca9ec3c03382c7ca729f5fbddbc7316f60a2fb5 OP_EQUAL", "type": "scripthash"}, "value": 0.02360445, "n": 1}], "hex": "0100000001cba266bb01f64d66dc6f679b3590dc69bb89dfd93f4a8f93e3027c302424b0aa000000006b4830450221009e6c22d09c6635065ed00096fe30024e0f70eb75b94a7fdd538b3e7272c9cada02206f3d85cb666d41f2f234c9aa94d484c3c073393f1a35175cb2b0ed6139f14175012103a53db575c27e37faa6f490d98aa8dae1fb4e6240a08b8f2d1c35c5aae9abe654ffffffff02f2050000000000001976a91421a52660b10e414fe2eb2d5a68f4637758a6348288ac7d0424000000000017a9141ca9ec3c03382c7ca729f5fbddbc7316f60a2fb58700000000", "vin": [{"sequence": 4294967295, "scriptSig": {"hex": "4830450221009e6c22d09c6635065ed00096fe30024e0f70eb75b94a7fdd538b3e7272c9cada02206f3d85cb666d41f2f234c9aa94d484c3c073393f1a35175cb2b0ed6139f14175012103a53db575c27e37faa6f490d98aa8dae1fb4e6240a08b8f2d1c35c5aae9abe654", "asm": "30450221009e6c22d09c6635065ed00096fe30024e0f70eb75b94a7fdd538b3e7272c9cada02206f3d85cb666d41f2f234c9aa94d484c3c073393f1a35175cb2b0ed6139f14175[ALL] 03a53db575c27e37faa6f490d98aa8dae1fb4e6240a08b8f2d1c35c5aae9abe654"}, "vout": 0, "txid": "aab02424307c02e3938f4a3fd9df89bb69dc90359b676fdc664df601bb66a2cb"}], "txid": "e0ca4970ae934cf2b9d252ce10a02be7dac52ec471e8c5de215e214ccc5a85c6", "blocktime": 1537871767, "version": 1, "confirmations": 11490, "time": 1537871767, "locktime": 0, "vsize": 224, "size": 224}