{"hash": "25f556da706477d23fb47bc6582f9823cd1dedf1ef849e0e11a2d511d1efc3cc", "blockhash": "0000000000000000001f76057863aec43deb6fa401d9628bb513d65a8098bfab", "vout": [{"scriptPubKey": {"reqSigs": 1, "hex": "76a9141fff69c27a41b719e92fbf59f308eb2a09c740da88ac", "addresses": ["13vBvMykGDTmRkakCNDy2BmjWJdt5CDPUm"], "asm": "OP_DUP OP_HASH160 1fff69c27a41b719e92fbf59f308eb2a09c740da OP_EQUALVERIFY OP_CHECKSIG", "type": "pubkeyhash"}, "value": 0.0012, "n": 0}, {"scriptPubKey": {"reqSigs": 1, "hex": "a9149649ad6d2730bb28020a268d9d80df10a9f74ad487", "addresses": ["3FPfYWwfMfKMGY7fuPHvz2b73RhTNGzsm3"], "asm": "OP_HASH160 9649ad6d2730bb28020a268d9d80df10a9f74ad4 OP_EQUAL", "type": "scripthash"}, "value": 13.83697635, "n": 1}], "hex": "01000000000101b0e2a3662fa0aa765a885afe1f05276664ea25a5ceffb6e623996183eb4b059501000000232200207768efcc1e5eb3d28410fac3f45831004c860cc24cddd940a616b34324823fceffffffff02c0d40100000000001976a9141fff69c27a41b719e92fbf59f308eb2a09c740da88ace38c79520000000017a9149649ad6d2730bb28020a268d9d80df10a9f74ad4870400473044022008bf2cb2eec5364cea0dae823b08b5851c8c8088e510c8c2170ab28188bca9b70220799c0a5e94283bc01f6a1d7a264f0fd5a692f6b70f63f49d40974de0decc99dd01473044022066afb83f9bf55868a27a15ecd5225e2aa329f6b61e9ef132cbc8c260699ba20602207b8b755f6b08c07a95b8facb1e45dd3644d4284504a0404305551598c9ec7a200147522102529d5d1f6733ab45d9d50e07db42c7f6b967ae321c38b726c2247f149959b8262103d0c936a5988dd8421c63240496b723b0ec42400c38b9350e32c2eb4f47d8796952ae00000000", "vin": [{"txinwitness": ["", "3044022008bf2cb2eec5364cea0dae823b08b5851c8c8088e510c8c2170ab28188bca9b70220799c0a5e94283bc01f6a1d7a264f0fd5a692f6b70f63f49d40974de0decc99dd01", "3044022066afb83f9bf55868a27a15ecd5225e2aa329f6b61e9ef132cbc8c260699ba20602207b8b755f6b08c07a95b8facb1e45dd3644d4284504a0404305551598c9ec7a2001", "522102529d5d1f6733ab45d9d50e07db42c7f6b967ae321c38b726c2247f149959b8262103d0c936a5988dd8421c63240496b723b0ec42400c38b9350e32c2eb4f47d8796952ae"], "sequence": 4294967295, "scriptSig": {"hex": "2200207768efcc1e5eb3d28410fac3f45831004c860cc24cddd940a616b34324823fce", "asm": "00207768efcc1e5eb3d28410fac3f45831004c860cc24cddd940a616b34324823fce"}, "vout": 1, "txid": "95054beb83619923e6b6ffcea525ea646627051ffe5a885a76aaa02f66a3e2b0"}], "txid": "e0cc6f7b0b9949ecc804712b7399a5abe725db6c8087c5a0d8ad33ad13d60d1a", "blocktime": 1537873891, "version": 1, "confirmations": 11478, "time": 1537873891, "locktime": 0, "vsize": 207, "size": 372}