{"hash": "e0cd386b253095763dbdaab7884367843224dbb7dd4cdfd15e7053ae71e4f3cc", "blockhash": "000000000000000000022b45ed06c6f4ccd3cf7fb5ba4856ebd2e58215665228", "vout": [{"scriptPubKey": {"reqSigs": 1, "hex": "76a9141b229683f9800e869b8fa3306c062586d49b4fdb88ac", "addresses": ["13UUgPm4JGi2st66cpVqKMbGHXhEtonrDJ"], "asm": "OP_DUP OP_HASH160 1b229683f9800e869b8fa3306c062586d49b4fdb OP_EQUALVERIFY OP_CHECKSIG", "type": "pubkeyhash"}, "value": 0.00390808, "n": 0}, {"scriptPubKey": {"reqSigs": 1, "hex": "76a914b6ea0e79be8e0653759b97dff1f020891b81ec2e88ac", "addresses": ["1HgANSvhLKpGP5NpxzfnsmpUdQURAwyxXf"], "asm": "OP_DUP OP_HASH160 b6ea0e79be8e0653759b97dff1f020891b81ec2e OP_EQUALVERIFY OP_CHECKSIG", "type": "pubkeyhash"}, "value": 0.00401027, "n": 1}], "hex": "01000000026926d4af0d5eb5f5e6275fb5a5a45ec275b360b8eabd04d63d91e247a3c1df02000000006a4730440220205885e45b12842336e61cbebb1db32d1f1108445074a218a8782798cf79f564022000f3860be868e9a440b6408a7aacfe286c903acb83799f348f863d580caec7c7012102f01f6c4f0220895edea083f397252f3ec0380a1d274118683d56891d78cee110ffffffff9c2088f6356b940096b8454f10edb0894459aee0b148ee1369cc15700e6dbafb000000006b483045022100c7889847656e0b5ff0af599ec2984b819bb272eaea4d531c24617d75bf1cc3d402206a400981e8c5668b94f32906abb70eb6ae04523b845da855e427e883a983aabc0121032ce642a56020737bbea29b68334078ccc8858108d076551c7ec6934cac9cca35ffffffff0298f60500000000001976a9141b229683f9800e869b8fa3306c062586d49b4fdb88ac831e0600000000001976a914b6ea0e79be8e0653759b97dff1f020891b81ec2e88ac00000000", "vin": [{"sequence": 4294967295, "scriptSig": {"hex": "4730440220205885e45b12842336e61cbebb1db32d1f1108445074a218a8782798cf79f564022000f3860be868e9a440b6408a7aacfe286c903acb83799f348f863d580caec7c7012102f01f6c4f0220895edea083f397252f3ec0380a1d274118683d56891d78cee110", "asm": "30440220205885e45b12842336e61cbebb1db32d1f1108445074a218a8782798cf79f564022000f3860be868e9a440b6408a7aacfe286c903acb83799f348f863d580caec7c7[ALL] 02f01f6c4f0220895edea083f397252f3ec0380a1d274118683d56891d78cee110"}, "vout": 0, "txid": "02dfc1a347e2913dd604bdeab860b375c25ea4a5b55f27e6f5b55e0dafd42669"}, {"sequence": 4294967295, "scriptSig": {"hex": "483045022100c7889847656e0b5ff0af599ec2984b819bb272eaea4d531c24617d75bf1cc3d402206a400981e8c5668b94f32906abb70eb6ae04523b845da855e427e883a983aabc0121032ce642a56020737bbea29b68334078ccc8858108d076551c7ec6934cac9cca35", "asm": "3045022100c7889847656e0b5ff0af599ec2984b819bb272eaea4d531c24617d75bf1cc3d402206a400981e8c5668b94f32906abb70eb6ae04523b845da855e427e883a983aabc[ALL] 032ce642a56020737bbea29b68334078ccc8858108d076551c7ec6934cac9cca35"}, "vout": 0, "txid": "fbba6d0e7015cc6913ee48b1e0ae594489b0ed104f45b89600946b35f688209c"}], "txid": "e0cd386b253095763dbdaab7884367843224dbb7dd4cdfd15e7053ae71e4f3cc", "blocktime": 1537869901, "version": 1, "confirmations": 11522, "time": 1537869901, "locktime": 0, "vsize": 373, "size": 373}