{"hash": "3204ae7458f8ab853e2d9e2b6cd0a5b3a5f15774c68cc171864ffc3d3c49f2a6", "blockhash": "0000000000000000001e0dab787dd257d1dbfcb92a98c2207d5e1078be1f4165", "vout": [{"scriptPubKey": {"reqSigs": 1, "hex": "a914ee1dc30d9751f57d8336d0be370bc85dc6c8e48887", "addresses": ["3PQ4Q6RPfMFLw8unR9U2NeAyu7QVkUVxiM"], "asm": "OP_HASH160 ee1dc30d9751f57d8336d0be370bc85dc6c8e488 OP_EQUAL", "type": "scripthash"}, "value": 0.00618762, "n": 0}, {"scriptPubKey": {"reqSigs": 1, "hex": "a914a5c679defd49547b8133a1367eeadbdeaecec3da87", "addresses": ["3GoZBZ6F8g4UiCt7moPNLDX7KKwgtGgLUT"], "asm": "OP_HASH160 a5c679defd49547b8133a1367eeadbdeaecec3da OP_EQUAL", "type": "scripthash"}, "value": 0.5896715, "n": 1}], "hex": "010000000001018e3d72b355921573cc241d0b083085a45cf34a7a9a06665e5671eca2079549fa01000000232200202d90cd274cea8141a030c0b79acc5b5c0b80b73d028692a1104913808bff6c09ffffffff020a7109000000000017a914ee1dc30d9751f57d8336d0be370bc85dc6c8e488876ec483030000000017a914a5c679defd49547b8133a1367eeadbdeaecec3da870400483045022100974e6a99e99e02dc85cb497a09c8cef9b9008393b69f677e4c492aa26e225290022011b7f1b34947570b55488bda728983feb879dc74cb1e7a35f36125e75b448b0d014730440220487e5ff95424ccddc2e2efb6bb3cfcce7b4b49e08d9228dd3db2fbf79484d413022044cfb90cb7a0e8a05317d593238e09696b07988505adca4fa211fe8b65ee5caf014752210295d70c0f10033e6e119fdc61ddd495bfe23995150af6df4688db5bf235f2853b21023e4b58fb2a91970de56515d11487aabd364f0404f1099bef70493cc56002342352ae00000000", "vin": [{"txinwitness": ["", "3045022100974e6a99e99e02dc85cb497a09c8cef9b9008393b69f677e4c492aa26e225290022011b7f1b34947570b55488bda728983feb879dc74cb1e7a35f36125e75b448b0d01", "30440220487e5ff95424ccddc2e2efb6bb3cfcce7b4b49e08d9228dd3db2fbf79484d413022044cfb90cb7a0e8a05317d593238e09696b07988505adca4fa211fe8b65ee5caf01", "52210295d70c0f10033e6e119fdc61ddd495bfe23995150af6df4688db5bf235f2853b21023e4b58fb2a91970de56515d11487aabd364f0404f1099bef70493cc56002342352ae"], "sequence": 4294967295, "scriptSig": {"hex": "2200202d90cd274cea8141a030c0b79acc5b5c0b80b73d028692a1104913808bff6c09", "asm": "00202d90cd274cea8141a030c0b79acc5b5c0b80b73d028692a1104913808bff6c09"}, "vout": 1, "txid": "fa499507a2ec71565e66069a7a4af35ca48530080b1d24cc73159255b3723d8e"}], "txid": "e0d059c6902d4c1357aa1edd8927ba98769d2d8f06c8726cc249f486824dabfc", "blocktime": 1537872475, "version": 1, "confirmations": 11487, "time": 1537872475, "locktime": 0, "vsize": 206, "size": 371}