{"hash": "4660a4c6322969da7eab53eb339491e59f17a1e517f5a2c08d9332b658f297d9", "blockhash": "0000000000000000000e13cef7c366c0283d82e591d1acd082e914b08063cdf1", "vout": [{"scriptPubKey": {"reqSigs": 1, "hex": "a914414620ffb365e14e403fa8cb592eccc6da4cb4f287", "addresses": ["37e9reu8NAMYVYnP7y6bg3MvotiZH9ETfX"], "asm": "OP_HASH160 414620ffb365e14e403fa8cb592eccc6da4cb4f2 OP_EQUAL", "type": "scripthash"}, "value": 0.00996986, "n": 0}, {"scriptPubKey": {"reqSigs": 1, "hex": "76a9142693c4e2167abd04825703e7a3367d6b12288aeb88ac", "addresses": ["14WyhTxppffkA8xV3PdhAcnBYW2wSPoUDP"], "asm": "OP_DUP OP_HASH160 2693c4e2167abd04825703e7a3367d6b12288aeb OP_EQUALVERIFY OP_CHECKSIG", "type": "pubkeyhash"}, "value": 0.150796, "n": 1}], "hex": "020000000001032f9693d40af934a29cbf48e70e5583b97c52f74f6237c8683daeb95d5d966d9601000000171600148355e34feadd74e0ed9c00a58d35bde7c7ce03c6feffffff4fde84049dc820a684d1b03ed06be523e5f92a06c28f1b918d7059414c3242ee0500000017160014efd67358a37362ac45376358b2cbc8ab87346507fefffffff276ea4c36586d02bf2ad8a93211fa979d340291dd46818eb18a5aa14c10bb9e0000000017160014a044b6aceae05459a861fd56638450e919dd517cfeffffff027a360f000000000017a914414620ffb365e14e403fa8cb592eccc6da4cb4f287b018e600000000001976a9142693c4e2167abd04825703e7a3367d6b12288aeb88ac0247304402205936678201c8441f5330a56151229d0216c6997b00c7405f331bc9fba56e9cac02207649eb529c251609ad4f56a8d10d5372f87959b08aa18ad91b1e22ce3063e38e0121027fc025bd0ff71ffdd25a8bc2351c215f127fefadac5f023d660503bc63640e9502483045022100c7dcec59d46eb2cc4d2cd7e3c94d056071e5cd94b2d1ae9a06833dc3a55f267e02201e92e5865c93f9c0b96736b090bd9993bcde8a2f07ff8267bc2635c66fd835e80121037fdebc4972ba45ededbbc0d0167e5073d943c8c13e1db98de44dc3eb90c950ac02483045022100ffc0975eea8eb1cd1b855b8fc55524dbceb3b98d1eb3f73201820e03443c25de02201c9f0fcad63bce453dcb50a7b03feeb888cc521aee887d5f9eee1e160bc39aea012102ce1a9cf845dc9f950c3fa23e71cef3b59762588bfc2e9f302d1fcafe7202d75010490800", "vin": [{"txinwitness": ["304402205936678201c8441f5330a56151229d0216c6997b00c7405f331bc9fba56e9cac02207649eb529c251609ad4f56a8d10d5372f87959b08aa18ad91b1e22ce3063e38e01", "027fc025bd0ff71ffdd25a8bc2351c215f127fefadac5f023d660503bc63640e95"], "sequence": 4294967294, "scriptSig": {"hex": "1600148355e34feadd74e0ed9c00a58d35bde7c7ce03c6", "asm": "00148355e34feadd74e0ed9c00a58d35bde7c7ce03c6"}, "vout": 1, "txid": "966d965d5db9ae3d68c837624ff7527cb983550ee748bf9ca234f90ad493962f"}, {"txinwitness": ["3045022100c7dcec59d46eb2cc4d2cd7e3c94d056071e5cd94b2d1ae9a06833dc3a55f267e02201e92e5865c93f9c0b96736b090bd9993bcde8a2f07ff8267bc2635c66fd835e801", "037fdebc4972ba45ededbbc0d0167e5073d943c8c13e1db98de44dc3eb90c950ac"], "sequence": 4294967294, "scriptSig": {"hex": "160014efd67358a37362ac45376358b2cbc8ab87346507", "asm": "0014efd67358a37362ac45376358b2cbc8ab87346507"}, "vout": 5, "txid": "ee42324c4159708d911b8fc2062af9e523e56bd03eb0d184a620c89d0484de4f"}, {"txinwitness": ["3045022100ffc0975eea8eb1cd1b855b8fc55524dbceb3b98d1eb3f73201820e03443c25de02201c9f0fcad63bce453dcb50a7b03feeb888cc521aee887d5f9eee1e160bc39aea01", "02ce1a9cf845dc9f950c3fa23e71cef3b59762588bfc2e9f302d1fcafe7202d750"], "sequence": 4294967294, "scriptSig": {"hex": "160014a044b6aceae05459a861fd56638450e919dd517c", "asm": "0014a044b6aceae05459a861fd56638450e919dd517c"}, "vout": 0, "txid": "9ebb104ca15a8ab18e8146dd9102349d97fa1132a9d82abf026d58364cea76f2"}], "txid": "e0d576dbe86ee7e85b57527f8a338f098db7d26eb3488d47ea3729675d42a6ab", "blocktime": 1537871767, "version": 2, "confirmations": 11491, "time": 1537871767, "locktime": 542992, "vsize": 350, "size": 593}