{"hash": "e0e15fa5cfd58b996740a14802a9bc79747e14756cd956b98604818f7de6c0da", "blockhash": "0000000000000000001f76057863aec43deb6fa401d9628bb513d65a8098bfab", "vout": [{"scriptPubKey": {"reqSigs": 1, "hex": "a914d571a9c91e8539a4c552b5d04e15d7d3d705859687", "addresses": ["3M9c1s1GGm6qMU1kSwYHy6zeWKGRyDj7U8"], "asm": "OP_HASH160 d571a9c91e8539a4c552b5d04e15d7d3d7058596 OP_EQUAL", "type": "scripthash"}, "value": 0.11282592, "n": 0}, {"scriptPubKey": {"reqSigs": 1, "hex": "76a914de1cebac28be82c9e429b199a78b6c4b9d699adb88ac", "addresses": ["1MFRf2Rep4mfMNf26ui1eTr9kf4X92AW67"], "asm": "OP_DUP OP_HASH160 de1cebac28be82c9e429b199a78b6c4b9d699adb OP_EQUALVERIFY OP_CHECKSIG", "type": "pubkeyhash"}, "value": 0.0049, "n": 1}], "hex": "0100000001c11ed1b4d4606671b1133f977458e17156964f3d4cbbbc9293811bfb13637de001000000fdfd00004730440220138773dace08c6ebdc7161aac23068353b8deece34818c0b9babf78bcb4e6938022005e17d5ac9f558d58c3b53683f45c74164d0345dda3fb1864fb03edde684786a01483045022100d3f8449ab07b6dd6ea5474d118a14542faebc4b53215651cb83a4baeaf7e3d5c02201dd7c6d471e06cfbd885d30370196f6598b1c5192896faa9e15123c59cd3806b014c69522103bd2e7ae1f30e0fe0706a55b1a89350eaab4b4e8657bd332693fa98d257e609de21025c102b9ea6aa0f8c7fc169d70ce88145f79ffaca58cd86579c8af7f206bfd4e521033565a03c7bd2fa7c9ba57e74063d8d62c54cb9c4256c8fcb9c5d4aff5382b95a53aeffffffff02a028ac000000000017a914d571a9c91e8539a4c552b5d04e15d7d3d705859687107a0700000000001976a914de1cebac28be82c9e429b199a78b6c4b9d699adb88ac00000000", "vin": [{"sequence": 4294967295, "scriptSig": {"hex": "004730440220138773dace08c6ebdc7161aac23068353b8deece34818c0b9babf78bcb4e6938022005e17d5ac9f558d58c3b53683f45c74164d0345dda3fb1864fb03edde684786a01483045022100d3f8449ab07b6dd6ea5474d118a14542faebc4b53215651cb83a4baeaf7e3d5c02201dd7c6d471e06cfbd885d30370196f6598b1c5192896faa9e15123c59cd3806b014c69522103bd2e7ae1f30e0fe0706a55b1a89350eaab4b4e8657bd332693fa98d257e609de21025c102b9ea6aa0f8c7fc169d70ce88145f79ffaca58cd86579c8af7f206bfd4e521033565a03c7bd2fa7c9ba57e74063d8d62c54cb9c4256c8fcb9c5d4aff5382b95a53ae", "asm": "0 30440220138773dace08c6ebdc7161aac23068353b8deece34818c0b9babf78bcb4e6938022005e17d5ac9f558d58c3b53683f45c74164d0345dda3fb1864fb03edde684786a[ALL] 3045022100d3f8449ab07b6dd6ea5474d118a14542faebc4b53215651cb83a4baeaf7e3d5c02201dd7c6d471e06cfbd885d30370196f6598b1c5192896faa9e15123c59cd3806b[ALL] 522103bd2e7ae1f30e0fe0706a55b1a89350eaab4b4e8657bd332693fa98d257e609de21025c102b9ea6aa0f8c7fc169d70ce88145f79ffaca58cd86579c8af7f206bfd4e521033565a03c7bd2fa7c9ba57e74063d8d62c54cb9c4256c8fcb9c5d4aff5382b95a53ae"}, "vout": 1, "txid": "e07d6313fb1b819392bcbb4c3d4f965671e15874973f13b1716660d4b4d11ec1"}], "txid": "e0e15fa5cfd58b996740a14802a9bc79747e14756cd956b98604818f7de6c0da", "blocktime": 1537873891, "version": 1, "confirmations": 11478, "time": 1537873891, "locktime": 0, "vsize": 372, "size": 372}