{"hash": "4e6bed01ec35577fb7876d81baddfcabefd7739cd2fb4c78020dc75c63be6c5f", "blockhash": "0000000000000000000baef3f32e3676a92c3b2e5da21b426e4f302fc371ce76", "vout": [{"scriptPubKey": {"reqSigs": 1, "hex": "76a91419daa2017464bc0fea1b10a58f952c755d562b8588ac", "addresses": ["13Mhofwgt8CNgg3vdx3iNwwmfLTVasPL8a"], "asm": "OP_DUP OP_HASH160 19daa2017464bc0fea1b10a58f952c755d562b85 OP_EQUALVERIFY OP_CHECKSIG", "type": "pubkeyhash"}, "value": 0.00187416, "n": 0}, {"scriptPubKey": {"reqSigs": 1, "hex": "76a914c243e3bf5f1bb17a0efbae2238d12636f1bcf23188ac", "addresses": ["1JiBRGexXHbLQM6oer5Sn58BLPpNkbpUZ5"], "asm": "OP_DUP OP_HASH160 c243e3bf5f1bb17a0efbae2238d12636f1bcf231 OP_EQUALVERIFY OP_CHECKSIG", "type": "pubkeyhash"}, "value": 0.0021833, "n": 1}, {"scriptPubKey": {"reqSigs": 1, "hex": "76a9149fb31ed01be4a3d3ea7dca969546629db012b0b688ac", "addresses": ["1FZR217sLoSYskp1cPcYBmptLUyofugHCm"], "asm": "OP_DUP OP_HASH160 9fb31ed01be4a3d3ea7dca969546629db012b0b6 OP_EQUALVERIFY OP_CHECKSIG", "type": "pubkeyhash"}, "value": 0.0015688, "n": 2}, {"scriptPubKey": {"reqSigs": 1, "hex": "a91426d1ee8347b71686f97f4eb28c494d370cbbe0d187", "addresses": ["35EH69EwpKo7DUvdmQWtkeJShh5zevYmcC"], "asm": "OP_HASH160 26d1ee8347b71686f97f4eb28c494d370cbbe0d1 OP_EQUAL", "type": "scripthash"}, "value": 0.00303038, "n": 3}], "hex": "01000000000101ea326fb744aaa4e3c8a32fe0e899945f9ffc46f3f19ed49fa05edef49f9f7c52020000002322002062c107b7a8d99929a5228c0aac10d775cb0e509801505be04338cc7188bf6af8ffffffff0418dc0200000000001976a91419daa2017464bc0fea1b10a58f952c755d562b8588acda540300000000001976a914c243e3bf5f1bb17a0efbae2238d12636f1bcf23188acd0640200000000001976a9149fb31ed01be4a3d3ea7dca969546629db012b0b688acbe9f04000000000017a91426d1ee8347b71686f97f4eb28c494d370cbbe0d187040047304402202bb7089e94e596c1185d33dcb0ec5f43aa1766f856a5e95f377ef1378ea685e40220774443a3762d1fde15c1b6f68f335272d0202582b075257eef5f0d9c8deb222f01483045022100d2a9d323830f519b6b1fb3c3cc61bfc718a91bacefe9fb16e683a2e42f7a6bf6022029469dcf11a7740b83c335f73925ab8a263c0286f341673c80e7b12c6cbde1260147522102db2595d74b59864e376e540d450876cb4c54ef4584ed478250a3dbf2655f24af21021a3feeb9756f6dbed085a4ed71d6067d0131d501a2bec141546b184c8b8a183652ae00000000", "vin": [{"txinwitness": ["", "304402202bb7089e94e596c1185d33dcb0ec5f43aa1766f856a5e95f377ef1378ea685e40220774443a3762d1fde15c1b6f68f335272d0202582b075257eef5f0d9c8deb222f01", "3045022100d2a9d323830f519b6b1fb3c3cc61bfc718a91bacefe9fb16e683a2e42f7a6bf6022029469dcf11a7740b83c335f73925ab8a263c0286f341673c80e7b12c6cbde12601", "522102db2595d74b59864e376e540d450876cb4c54ef4584ed478250a3dbf2655f24af21021a3feeb9756f6dbed085a4ed71d6067d0131d501a2bec141546b184c8b8a183652ae"], "sequence": 4294967295, "scriptSig": {"hex": "22002062c107b7a8d99929a5228c0aac10d775cb0e509801505be04338cc7188bf6af8", "asm": "002062c107b7a8d99929a5228c0aac10d775cb0e509801505be04338cc7188bf6af8"}, "vout": 2, "txid": "527c9f9ff4de5ea09fd49ef1f346fc9f5f9499e8e02fa3c8e3a4aa44b76f32ea"}], "txid": "e0e8527b8e3a6cd194c429c34d65d3d692e95115c1241336c6db5a84f3758aa5", "blocktime": 1537876114, "version": 1, "confirmations": 11462, "time": 1537876114, "locktime": 0, "vsize": 276, "size": 441}