{"hash": "8deba0bc1f4541f62584f88f18a591d27b70173ca9aa0b54344e0170c2dea17e", "blockhash": "0000000000000000001f76057863aec43deb6fa401d9628bb513d65a8098bfab", "vout": [{"scriptPubKey": {"reqSigs": 1, "hex": "76a914eddfb9395db2e6affa76766037458aec634cff2e88ac", "addresses": ["1NgmA3k7ak5B7WydLVVsmQE7dDb7uSwh3W"], "asm": "OP_DUP OP_HASH160 eddfb9395db2e6affa76766037458aec634cff2e OP_EQUALVERIFY OP_CHECKSIG", "type": "pubkeyhash"}, "value": 0.08773052, "n": 0}, {"scriptPubKey": {"reqSigs": 1, "hex": "a9144a180daad1ce3273a7f389cc80d5b5d8a22d15da87", "addresses": ["38Snjzq8xoWBhY8BgqJKPu7z1pfaQJjPuL"], "asm": "OP_HASH160 4a180daad1ce3273a7f389cc80d5b5d8a22d15da OP_EQUAL", "type": "scripthash"}, "value": 0.82270787, "n": 1}], "hex": "01000000000101426fd723bea0852d8ff359936feea33477010bc510b42ca47a73a42ea9150db601000000232200202726046ed1053bfba247f619b401292b6a6e1fac1f6c3f3805d8a694f40cdb8cffffffff02bcdd8500000000001976a914eddfb9395db2e6affa76766037458aec634cff2e88ac435ae7040000000017a9144a180daad1ce3273a7f389cc80d5b5d8a22d15da870400473044022030b32b3df8b5ef3f98f83cda061e5f067fdbcca5fed60806959e4134035de31c022049fdfcf10e45fceb37e732d769bf59a5833ebe6eae36b6ed387c6164ee6f266c0147304402204f9b718e1b3dcf4dc360e48db4418f9f7af24c64cccf6cfd54c97d515add18d902207b4cc31e95bb6961b022f13ccda48cd391798164e0a8b0afc4447a81d5e476f2016952210296c1323498e4ec6802fc6f4c73cfb028c8badae530180cc96b033390c558e62d21024980c593be795ab05095fa23b0b82a974047e1a46f0b1ce683b45af0850d80562103252a0abca84825e482268577d164a8c5278b5c8434a9b104626175d702231cb053ae00000000", "vin": [{"txinwitness": ["", "3044022030b32b3df8b5ef3f98f83cda061e5f067fdbcca5fed60806959e4134035de31c022049fdfcf10e45fceb37e732d769bf59a5833ebe6eae36b6ed387c6164ee6f266c01", "304402204f9b718e1b3dcf4dc360e48db4418f9f7af24c64cccf6cfd54c97d515add18d902207b4cc31e95bb6961b022f13ccda48cd391798164e0a8b0afc4447a81d5e476f201", "52210296c1323498e4ec6802fc6f4c73cfb028c8badae530180cc96b033390c558e62d21024980c593be795ab05095fa23b0b82a974047e1a46f0b1ce683b45af0850d80562103252a0abca84825e482268577d164a8c5278b5c8434a9b104626175d702231cb053ae"], "sequence": 4294967295, "scriptSig": {"hex": "2200202726046ed1053bfba247f619b401292b6a6e1fac1f6c3f3805d8a694f40cdb8c", "asm": "00202726046ed1053bfba247f619b401292b6a6e1fac1f6c3f3805d8a694f40cdb8c"}, "vout": 1, "txid": "b60d15a92ea4737aa42cb410c50b017734a3ee6f9359f38f2d85a0be23d76f42"}], "txid": "e0ee09c076dc0fbf658d30d1d04c13fc02ad5da5f8c0a21e2445c3a2c0d76c2e", "blocktime": 1537873891, "version": 1, "confirmations": 11478, "time": 1537873891, "locktime": 0, "vsize": 216, "size": 406}