{"hash": "e0f473889a06c04c50cba438b1ef7ec0de5008643e4aeb2bc83c38afda73ae73", "blockhash": "0000000000000000000dcc0f55137456b1a82d3642486a52398922ac4d620174", "vout": [{"scriptPubKey": {"type": "nulldata", "hex": "6a146f6d6e69000000000000001f00000004d6589a00", "asm": "OP_RETURN 6f6d6e69000000000000001f00000004d6589a00"}, "value": 0.0, "n": 0}, {"scriptPubKey": {"reqSigs": 1, "hex": "76a914388256b4fb33f6155727017f7d5cce7e0d2a65f388ac", "addresses": ["169nyqNqauSUMcS3rAExS3rhhrwz9mVA4i"], "asm": "OP_DUP OP_HASH160 388256b4fb33f6155727017f7d5cce7e0d2a65f3 OP_EQUALVERIFY OP_CHECKSIG", "type": "pubkeyhash"}, "value": 0.0017029, "n": 1}, {"scriptPubKey": {"reqSigs": 1, "hex": "76a9148e2f83d9b4a89b9dd9a83622412f339a3a19bbbd88ac", "addresses": ["1DxoseHTX4YLURYLiN69biVHS3izsGGsBQ"], "asm": "OP_DUP OP_HASH160 8e2f83d9b4a89b9dd9a83622412f339a3a19bbbd OP_EQUALVERIFY OP_CHECKSIG", "type": "pubkeyhash"}, "value": 5.46e-06, "n": 2}], "hex": "01000000013f1b91f5dda8937f289e5a86f20579f73fbe67f49ba2681cb930b966e91ac29d020000006b483045022100f9737316a65e76a1c6b6c050c9ce33ad07d1db301f1b9e5ad331559675ea509502203b4b5806a08dd0546df8793a6e8a8f618fde7c1d0f63f7bdc36428b7f95ddd69012102cca43b3082ae7d70499eba1e028fba08cb647209c0be3dee55eeb6b51b623f1ffeffffff030000000000000000166a146f6d6e69000000000000001f00000004d6589a0032990200000000001976a914388256b4fb33f6155727017f7d5cce7e0d2a65f388ac22020000000000001976a9148e2f83d9b4a89b9dd9a83622412f339a3a19bbbd88ac0c490800", "vin": [{"sequence": 4294967294, "scriptSig": {"hex": "483045022100f9737316a65e76a1c6b6c050c9ce33ad07d1db301f1b9e5ad331559675ea509502203b4b5806a08dd0546df8793a6e8a8f618fde7c1d0f63f7bdc36428b7f95ddd69012102cca43b3082ae7d70499eba1e028fba08cb647209c0be3dee55eeb6b51b623f1f", "asm": "3045022100f9737316a65e76a1c6b6c050c9ce33ad07d1db301f1b9e5ad331559675ea509502203b4b5806a08dd0546df8793a6e8a8f618fde7c1d0f63f7bdc36428b7f95ddd69[ALL] 02cca43b3082ae7d70499eba1e028fba08cb647209c0be3dee55eeb6b51b623f1f"}, "vout": 2, "txid": "9dc21ae966b930b91c68a29bf467be3ff77905f2865a9e287f93a8ddf5911b3f"}], "txid": "e0f473889a06c04c50cba438b1ef7ec0de5008643e4aeb2bc83c38afda73ae73", "blocktime": 1537870268, "version": 1, "confirmations": 11519, "time": 1537870268, "locktime": 542988, "vsize": 257, "size": 257}