{"hash": "e0f5fd2a9518917acffd08b6d01c01f40bf0c2e2ec557836586ab08688365a2b", "blockhash": "0000000000000000001f0ddff1eddb255c1121bcd4da4f1bc9a0da00cae72433", "vout": [{"scriptPubKey": {"reqSigs": 1, "hex": "76a914045fc023347b72586e58a2f5d28c075d4715ad3e88ac", "addresses": ["1Q8Qdccth9MnXdLc8cZPFDjqcUMbjG79U"], "asm": "OP_DUP OP_HASH160 045fc023347b72586e58a2f5d28c075d4715ad3e OP_EQUALVERIFY OP_CHECKSIG", "type": "pubkeyhash"}, "value": 0.009908, "n": 0}], "hex": "0100000001c0ffe871618f097d6ab6a25e524768eda604752123a3d4d5c350203265c05169450000006b483045022100b48a82a2edddd8c697d4a28502f2033d66ffb437a5f4a5388d1e8bf3aff2deb5022048f5d064cc774ccd504581c3ea589565b3c202b6d69e83f4b5301f3b1bfe2a8101210200d7758f558e17a393f444123da43f5dddfb7edb4ead19b3696313badc1fe33cffffffff01501e0f00000000001976a914045fc023347b72586e58a2f5d28c075d4715ad3e88ac00000000", "vin": [{"sequence": 4294967295, "scriptSig": {"hex": "483045022100b48a82a2edddd8c697d4a28502f2033d66ffb437a5f4a5388d1e8bf3aff2deb5022048f5d064cc774ccd504581c3ea589565b3c202b6d69e83f4b5301f3b1bfe2a8101210200d7758f558e17a393f444123da43f5dddfb7edb4ead19b3696313badc1fe33c", "asm": "3045022100b48a82a2edddd8c697d4a28502f2033d66ffb437a5f4a5388d1e8bf3aff2deb5022048f5d064cc774ccd504581c3ea589565b3c202b6d69e83f4b5301f3b1bfe2a81[ALL] 0200d7758f558e17a393f444123da43f5dddfb7edb4ead19b3696313badc1fe33c"}, "vout": 69, "txid": "6951c065322050c3d5d4a323217504a6ed6847525ea2b66a7d098f6171e8ffc0"}], "txid": "e0f5fd2a9518917acffd08b6d01c01f40bf0c2e2ec557836586ab08688365a2b", "blocktime": 1537872018, "version": 1, "confirmations": 11489, "time": 1537872018, "locktime": 0, "vsize": 192, "size": 192}