{"hash": "9e73c8935c0b65fff1225c0f6da793884d61c225559d96b6e1ca45760db19d73", "blockhash": "00000000000000000024a2167bbff67b0be802c0b01cdd79e6331c2be6459f87", "vout": [{"scriptPubKey": {"reqSigs": 1, "hex": "a914eaae6f43d2a27510c8b8fd6f578a9e6d350fc82f87", "addresses": ["3P5u1Myrtjbr9BhQVy4EsPaoR2VBmSxEVp"], "asm": "OP_HASH160 eaae6f43d2a27510c8b8fd6f578a9e6d350fc82f OP_EQUAL", "type": "scripthash"}, "value": 0.202827, "n": 0}, {"scriptPubKey": {"reqSigs": 1, "hex": "76a914f1c333899d1c9b4e1b3af0326deb1309d5d80c9d88ac", "addresses": ["1P3Kh4H8G35Av1sfSpwbSjV1ia678c89Jq"], "asm": "OP_DUP OP_HASH160 f1c333899d1c9b4e1b3af0326deb1309d5d80c9d OP_EQUALVERIFY OP_CHECKSIG", "type": "pubkeyhash"}, "value": 0.011719, "n": 1}], "hex": "01000000000101082618fc46fb45370235eb92953fa6123066292532e26ff3008a25ee6e138f17010000002322002085f641a5be07b84f3ef53b0b835d005b8e361b5db17f1a62d929464ff726e2cdffffffff024c7d35010000000017a914eaae6f43d2a27510c8b8fd6f578a9e6d350fc82f87bce11100000000001976a914f1c333899d1c9b4e1b3af0326deb1309d5d80c9d88ac0400483045022100b5d180839ee67f1e669f54f4f5675a9a36dc65017f0e6b0fde15bdf359aa8bfe02206a79d98aefc814a797280de8dfe5340a50df9f2a76e2ad6211f7a9570a62283801483045022100c10165952a5710ef7a3983f751b84171c15c2554b6c5549e5c0acfa66b1686d602207db73ec44f7a18665312bd2c4938c12930ae168e235c027fa379b9ff04dbc6bc0169522103181a529bc732faf8af2fe5434dba9be449b59c75564dba3124b2e717a3fe49092102c2d2993011134d50a249b4994c4625cf7a9531f02ff453cafaeda671f22ba0d821039da0f6d6a0cef8759e029a598e304b38f4e4bea510b770830854b423c440db0d53ae00000000", "vin": [{"txinwitness": ["", "3045022100b5d180839ee67f1e669f54f4f5675a9a36dc65017f0e6b0fde15bdf359aa8bfe02206a79d98aefc814a797280de8dfe5340a50df9f2a76e2ad6211f7a9570a62283801", "3045022100c10165952a5710ef7a3983f751b84171c15c2554b6c5549e5c0acfa66b1686d602207db73ec44f7a18665312bd2c4938c12930ae168e235c027fa379b9ff04dbc6bc01", "522103181a529bc732faf8af2fe5434dba9be449b59c75564dba3124b2e717a3fe49092102c2d2993011134d50a249b4994c4625cf7a9531f02ff453cafaeda671f22ba0d821039da0f6d6a0cef8759e029a598e304b38f4e4bea510b770830854b423c440db0d53ae"], "sequence": 4294967295, "scriptSig": {"hex": "22002085f641a5be07b84f3ef53b0b835d005b8e361b5db17f1a62d929464ff726e2cd", "asm": "002085f641a5be07b84f3ef53b0b835d005b8e361b5db17f1a62d929464ff726e2cd"}, "vout": 1, "txid": "178f136eee258a00f36fe2322529663012a63f9592eb35023745fb46fc182608"}], "txid": "e0f96c44bc70c2a3927735c432b5aa7f6ada64e843a8794fc658df7dd6692709", "blocktime": 1537870564, "version": 1, "confirmations": 11515, "time": 1537870564, "locktime": 0, "vsize": 216, "size": 408}