{"hash": "823d26d12063ea366c85aceabf0827c1066be1b4504a0b1d904c790140ea1996", "blockhash": "0000000000000000000dcc0f55137456b1a82d3642486a52398922ac4d620174", "vout": [{"scriptPubKey": {"reqSigs": 1, "hex": "a9141b7b3a277397a6ca50feba92e1e383c7913335d187", "addresses": ["34CKnhMqLJoj7Ts7qqWCKLmxL7fNH6uqCW"], "asm": "OP_HASH160 1b7b3a277397a6ca50feba92e1e383c7913335d1 OP_EQUAL", "type": "scripthash"}, "value": 0.032, "n": 0}, {"scriptPubKey": {"reqSigs": 1, "hex": "a91402469fbd04a09b0f00242ce2886d8c8eea8b7dde87", "addresses": ["31u3sy4gT2ea3bsa1ak5z6d3xetu9Rdzif"], "asm": "OP_HASH160 02469fbd04a09b0f00242ce2886d8c8eea8b7dde OP_EQUAL", "type": "scripthash"}, "value": 0.46242601, "n": 1}], "hex": "01000000000101574a79156630b077c036c3f46a2ce8690e79b072671f8eae54946f227c5e34140100000017160014a3b65151c9e828e8411858645e103f3260f63dedfdffffff0200d430000000000017a9141b7b3a277397a6ca50feba92e1e383c7913335d187299bc1020000000017a91402469fbd04a09b0f00242ce2886d8c8eea8b7dde8702483045022100eb644a8cc9b7db6eff74df112e626c7f8f7f6d8da344621405c8897560ce793502203219fa2a39d4280de3dc405ccae1b4ecdc24071979ae7ab8053d60a164bf8fdf0121031964b7697bb869d51ae94973b1e05f8f8222fe7511a88d9b31260e70acb0185c0c490800", "vin": [{"txinwitness": ["3045022100eb644a8cc9b7db6eff74df112e626c7f8f7f6d8da344621405c8897560ce793502203219fa2a39d4280de3dc405ccae1b4ecdc24071979ae7ab8053d60a164bf8fdf01", "031964b7697bb869d51ae94973b1e05f8f8222fe7511a88d9b31260e70acb0185c"], "sequence": 4294967293, "scriptSig": {"hex": "160014a3b65151c9e828e8411858645e103f3260f63ded", "asm": "0014a3b65151c9e828e8411858645e103f3260f63ded"}, "vout": 1, "txid": "14345e7c226f9454ae8e1f6772b0790e69e82c6af4c336c077b0306615794a57"}], "txid": "e0fd1e1d37d96717541700bffdfd99c4c1af9b722145a23786e9e3f24d672cff", "blocktime": 1537870268, "version": 1, "confirmations": 11516, "time": 1537870268, "locktime": 542988, "vsize": 166, "size": 248}