{"hash": "e0fe6fc3aee83cf0735d4931c12e66c7d5aa0b8fbebe64e9c170f811b6d0d3f3", "blockhash": "0000000000000000000dcc0f55137456b1a82d3642486a52398922ac4d620174", "vout": [{"scriptPubKey": {"reqSigs": 1, "hex": "76a9140de95af630658f9edc1ab3bad93eb696d4ace86c88ac", "addresses": ["12GZLJj5BoUvZBjUQPizJKhvWgUCktsPnK"], "asm": "OP_DUP OP_HASH160 0de95af630658f9edc1ab3bad93eb696d4ace86c OP_EQUALVERIFY OP_CHECKSIG", "type": "pubkeyhash"}, "value": 0.021696, "n": 0}, {"scriptPubKey": {"reqSigs": 1, "hex": "a9149bdbdc3a63a7ca75a0effdf9d03d642661e919af87", "addresses": ["3Fu83SGpzQhBo4NYUrWh5SVXYxUthFax9D"], "asm": "OP_HASH160 9bdbdc3a63a7ca75a0effdf9d03d642661e919af OP_EQUAL", "type": "scripthash"}, "value": 0.01064, "n": 1}], "hex": "020000000207803117643aa6573005d1a6d989b7470c4ab4d6d308e2eb0b1e8a77f5e6d99c020000006a47304402202c595b15df6d5b1f2b1d3199caf9145feeee9bc5f4b19cd9629d7243080b54ca02207600d7ebc41a67cba17a4cb4acdb2c2fcc6dd7e69a07e89c8413da401e9db7520121035bfc0b137e014d75b14e8b3eb24ead32543073a721266e156a6af74d82b2e177fdfffffff40343786f853f023144d3574cff5706e371629690b98e75721b005941ad724b020000006a47304402200c255d286c95377d9b0eda337efd074bbb407a9211dcccce5dd5bce8d5b71060022063da7e962fddb1d3ba94e2e68a19345633e384872fb41076cca87f5269d0fd650121035bfc0b137e014d75b14e8b3eb24ead32543073a721266e156a6af74d82b2e177fdffffff02001b2100000000001976a9140de95af630658f9edc1ab3bad93eb696d4ace86c88ac403c10000000000017a9149bdbdc3a63a7ca75a0effdf9d03d642661e919af870b490800", "vin": [{"sequence": 4294967293, "scriptSig": {"hex": "47304402202c595b15df6d5b1f2b1d3199caf9145feeee9bc5f4b19cd9629d7243080b54ca02207600d7ebc41a67cba17a4cb4acdb2c2fcc6dd7e69a07e89c8413da401e9db7520121035bfc0b137e014d75b14e8b3eb24ead32543073a721266e156a6af74d82b2e177", "asm": "304402202c595b15df6d5b1f2b1d3199caf9145feeee9bc5f4b19cd9629d7243080b54ca02207600d7ebc41a67cba17a4cb4acdb2c2fcc6dd7e69a07e89c8413da401e9db752[ALL] 035bfc0b137e014d75b14e8b3eb24ead32543073a721266e156a6af74d82b2e177"}, "vout": 2, "txid": "9cd9e6f5778a1e0bebe208d3d6b44a0c47b789d9a6d1053057a63a6417318007"}, {"sequence": 4294967293, "scriptSig": {"hex": "47304402200c255d286c95377d9b0eda337efd074bbb407a9211dcccce5dd5bce8d5b71060022063da7e962fddb1d3ba94e2e68a19345633e384872fb41076cca87f5269d0fd650121035bfc0b137e014d75b14e8b3eb24ead32543073a721266e156a6af74d82b2e177", "asm": "304402200c255d286c95377d9b0eda337efd074bbb407a9211dcccce5dd5bce8d5b71060022063da7e962fddb1d3ba94e2e68a19345633e384872fb41076cca87f5269d0fd65[ALL] 035bfc0b137e014d75b14e8b3eb24ead32543073a721266e156a6af74d82b2e177"}, "vout": 2, "txid": "4b72ad4159001b72758eb990966271e30657ff4c57d34431023f856f784303f4"}], "txid": "e0fe6fc3aee83cf0735d4931c12e66c7d5aa0b8fbebe64e9c170f811b6d0d3f3", "blocktime": 1537870268, "version": 2, "confirmations": 11516, "time": 1537870268, "locktime": 542987, "vsize": 370, "size": 370}