{"hash": "e10584c05c52b43b7a8b0120c86f291c2c11009fbfdc8438fb203dbe1b628090", "blockhash": "0000000000000000000dcc0f55137456b1a82d3642486a52398922ac4d620174", "vout": [{"scriptPubKey": {"reqSigs": 1, "hex": "76a914d7f74e0738983f1c8f7b2778ffdca5bd3b7d800188ac", "addresses": ["1LgvYHN4SVM1mUtY7EL6QQb8q28vLftkMv"], "asm": "OP_DUP OP_HASH160 d7f74e0738983f1c8f7b2778ffdca5bd3b7d8001 OP_EQUALVERIFY OP_CHECKSIG", "type": "pubkeyhash"}, "value": 0.00171057, "n": 0}, {"scriptPubKey": {"reqSigs": 1, "hex": "a914fdc375f2a4c51b8c89e9057d77d5d4f16020390d87", "addresses": ["3Qpo2vhizYZt6ePJYXai6eopheKUUGFfJJ"], "asm": "OP_HASH160 fdc375f2a4c51b8c89e9057d77d5d4f16020390d OP_EQUAL", "type": "scripthash"}, "value": 0.0023, "n": 1}], "hex": "010000000145d9f11df99296118ae1fb6292c19c5e7b36437c472e6f081a6606829c4f1d04010000006b483045022100a63b026ae105cb95074f3aaa6080db17eacc4563c0c582ac5f680cadcd80d3c40220590a7ceffa4a2f0d96cd0cc181dfa9656541a2a2a936dc19e65108bee5841bda01210293239d40ba139b11d55288745364ac0c8b9dea9a031fc71b1b87314669b87627ffffffff02319c0200000000001976a914d7f74e0738983f1c8f7b2778ffdca5bd3b7d800188ac708203000000000017a914fdc375f2a4c51b8c89e9057d77d5d4f16020390d8700000000", "vin": [{"sequence": 4294967295, "scriptSig": {"hex": "483045022100a63b026ae105cb95074f3aaa6080db17eacc4563c0c582ac5f680cadcd80d3c40220590a7ceffa4a2f0d96cd0cc181dfa9656541a2a2a936dc19e65108bee5841bda01210293239d40ba139b11d55288745364ac0c8b9dea9a031fc71b1b87314669b87627", "asm": "3045022100a63b026ae105cb95074f3aaa6080db17eacc4563c0c582ac5f680cadcd80d3c40220590a7ceffa4a2f0d96cd0cc181dfa9656541a2a2a936dc19e65108bee5841bda[ALL] 0293239d40ba139b11d55288745364ac0c8b9dea9a031fc71b1b87314669b87627"}, "vout": 1, "txid": "041d4f9c8206661a086f2e477c43367b5e9cc19262fbe18a119692f91df1d945"}], "txid": "e10584c05c52b43b7a8b0120c86f291c2c11009fbfdc8438fb203dbe1b628090", "blocktime": 1537870268, "version": 1, "confirmations": 11518, "time": 1537870268, "locktime": 0, "vsize": 224, "size": 224}