{"hash": "e106906501189f4348b08dcafa8163864951876f6eef010357202b6308b72394", "blockhash": "00000000000000000018f53835495a110e01622372bf6ae95dc86f2b0ab887b0", "vout": [{"scriptPubKey": {"reqSigs": 1, "hex": "76a914f27d8fc862908e91cf7c464a32311a68e8caba6c88ac", "addresses": ["1P7AwbmXrgG7YdcPPyMHK9iwQpQHAskNMA"], "asm": "OP_DUP OP_HASH160 f27d8fc862908e91cf7c464a32311a68e8caba6c OP_EQUALVERIFY OP_CHECKSIG", "type": "pubkeyhash"}, "value": 0.00165, "n": 0}, {"scriptPubKey": {"reqSigs": 1, "hex": "76a9142c1116504e9d9531b889bca4caea30c01b6789ff88ac", "addresses": ["1521CgHsewFUrXSHxWHiySZSthqX42Eobc"], "asm": "OP_DUP OP_HASH160 2c1116504e9d9531b889bca4caea30c01b6789ff OP_EQUALVERIFY OP_CHECKSIG", "type": "pubkeyhash"}, "value": 0.00426457, "n": 1}], "hex": "01000000010794c88f88139c89f681dde714df1cb9edef6e8e471f4a29f14752adc11db3bc010000006a47304402202b609994bd1653b727fc6f9f42b0b368a96368bbb273a43ff9c79a1a3ae64d7d0220505361001a78e0d7f9b8f9821a6e9ac0f6ac6f1c6190bd57ffbde24e5a2efa990121030776c1910ea59255b3914d758068046d0c7291fa63df5210b5fca91be9eff0ceffffffff0288840200000000001976a914f27d8fc862908e91cf7c464a32311a68e8caba6c88acd9810600000000001976a9142c1116504e9d9531b889bca4caea30c01b6789ff88ac00000000", "vin": [{"sequence": 4294967295, "scriptSig": {"hex": "47304402202b609994bd1653b727fc6f9f42b0b368a96368bbb273a43ff9c79a1a3ae64d7d0220505361001a78e0d7f9b8f9821a6e9ac0f6ac6f1c6190bd57ffbde24e5a2efa990121030776c1910ea59255b3914d758068046d0c7291fa63df5210b5fca91be9eff0ce", "asm": "304402202b609994bd1653b727fc6f9f42b0b368a96368bbb273a43ff9c79a1a3ae64d7d0220505361001a78e0d7f9b8f9821a6e9ac0f6ac6f1c6190bd57ffbde24e5a2efa99[ALL] 030776c1910ea59255b3914d758068046d0c7291fa63df5210b5fca91be9eff0ce"}, "vout": 1, "txid": "bcb31dc1ad5247f1294a1f478e6eefedb91cdf14e7dd81f6899c13888fc89407"}], "txid": "e106906501189f4348b08dcafa8163864951876f6eef010357202b6308b72394", "blocktime": 1537870928, "version": 1, "confirmations": 11512, "time": 1537870928, "locktime": 0, "vsize": 225, "size": 225}