{"hash": "e10e24c9ab85de619d8c427ee136515ba04a5f8785787b8b6ccb949d428dcc84", "blockhash": "0000000000000000001e0dab787dd257d1dbfcb92a98c2207d5e1078be1f4165", "vout": [{"scriptPubKey": {"type": "nulldata", "hex": "6a4c50000077b700016c4a6e389b27c0f7b2c81bf3e5bf9ae76da98a211aaf6c953dd567cf27e746aadbe921a799d6b34dd41139cf4efb5baa11e40612621fe311414e1d100759d4ba30d2c37bb011d97e02cf", "asm": "OP_RETURN 000077b700016c4a6e389b27c0f7b2c81bf3e5bf9ae76da98a211aaf6c953dd567cf27e746aadbe921a799d6b34dd41139cf4efb5baa11e40612621fe311414e1d100759d4ba30d2c37bb011d97e02cf"}, "value": 0.0, "n": 0}, {"scriptPubKey": {"reqSigs": 1, "hex": "76a914e6012e893191f943ff40728c6e4ca06b435108b688ac", "addresses": ["1My9qEVNtqQj9GfHMxhg5LZWiyftAnRrgZ"], "asm": "OP_DUP OP_HASH160 e6012e893191f943ff40728c6e4ca06b435108b6 OP_EQUALVERIFY OP_CHECKSIG", "type": "pubkeyhash"}, "value": 0.00640746, "n": 1}], "hex": "0100000001c3bb3c948e664d000f82f05f00aa82abd981f0772c655726b330950762b9c4a7000000006a47304402200de065611a0cc3a5b13c4eae7a4ae5a129330835b28e622db48031051f5a7ba5022075b11d809d44cb6af2033a70f41eb94fe2f7b09f153f9ad72e2d93d39ff024c40121027afb5c9dc26ecc1b984940da88bf07d7ca812d52aa3d87da672d5294118896d1ffffffff020000000000000000536a4c50000077b700016c4a6e389b27c0f7b2c81bf3e5bf9ae76da98a211aaf6c953dd567cf27e746aadbe921a799d6b34dd41139cf4efb5baa11e40612621fe311414e1d100759d4ba30d2c37bb011d97e02cfeac60900000000001976a914e6012e893191f943ff40728c6e4ca06b435108b688ac00000000", "vin": [{"sequence": 4294967295, "scriptSig": {"hex": "47304402200de065611a0cc3a5b13c4eae7a4ae5a129330835b28e622db48031051f5a7ba5022075b11d809d44cb6af2033a70f41eb94fe2f7b09f153f9ad72e2d93d39ff024c40121027afb5c9dc26ecc1b984940da88bf07d7ca812d52aa3d87da672d5294118896d1", "asm": "304402200de065611a0cc3a5b13c4eae7a4ae5a129330835b28e622db48031051f5a7ba5022075b11d809d44cb6af2033a70f41eb94fe2f7b09f153f9ad72e2d93d39ff024c4[ALL] 027afb5c9dc26ecc1b984940da88bf07d7ca812d52aa3d87da672d5294118896d1"}, "vout": 0, "txid": "a7c4b962079530b32657652c77f081d9ab82aa005ff0820f004d668e943cbbc3"}], "txid": "e10e24c9ab85de619d8c427ee136515ba04a5f8785787b8b6ccb949d428dcc84", "blocktime": 1537872475, "version": 1, "confirmations": 11486, "time": 1537872475, "locktime": 0, "vsize": 283, "size": 283}