{"hash": "e11118e6d4966387706ab51e709f2af6f261dd9230a913c906924c385f142716", "blockhash": "0000000000000000001f76057863aec43deb6fa401d9628bb513d65a8098bfab", "vout": [{"scriptPubKey": {"reqSigs": 1, "hex": "76a9140f942397419b0fe0c82a4d353785e80beffe27c388ac", "addresses": ["12RNbkwAW6p2cC1GTxrDxH1TjabyhZ25d7"], "asm": "OP_DUP OP_HASH160 0f942397419b0fe0c82a4d353785e80beffe27c3 OP_EQUALVERIFY OP_CHECKSIG", "type": "pubkeyhash"}, "value": 0.00910321, "n": 0}, {"scriptPubKey": {"reqSigs": 1, "hex": "76a9144081e83de075ef413a9954f8214621e95e633b5e88ac", "addresses": ["16t5sPTfMBd3yBknezqskqMajiKQaFz7rM"], "asm": "OP_DUP OP_HASH160 4081e83de075ef413a9954f8214621e95e633b5e OP_EQUALVERIFY OP_CHECKSIG", "type": "pubkeyhash"}, "value": 0.036234, "n": 1}], "hex": "01000000019785954c9d5c1f96fb23f0a9ab28b863d4fd070ee226cbd12e7342c056769356000000006a4730440220670ecd3005ab8bc96e6ebfe50156c08f6a20cc4810569282a9153c462221100702207ff8de3eb544cf78d588929a0f230fe6f7d0e5d0136571f76d8227c9c19da935012103cf59e72658ffc4e76b725fcfec0ced901e24e2367c5be582a472870774896ecbffffffff02f1e30d00000000001976a9140f942397419b0fe0c82a4d353785e80beffe27c388ace8493700000000001976a9144081e83de075ef413a9954f8214621e95e633b5e88ac00000000", "vin": [{"sequence": 4294967295, "scriptSig": {"hex": "4730440220670ecd3005ab8bc96e6ebfe50156c08f6a20cc4810569282a9153c462221100702207ff8de3eb544cf78d588929a0f230fe6f7d0e5d0136571f76d8227c9c19da935012103cf59e72658ffc4e76b725fcfec0ced901e24e2367c5be582a472870774896ecb", "asm": "30440220670ecd3005ab8bc96e6ebfe50156c08f6a20cc4810569282a9153c462221100702207ff8de3eb544cf78d588929a0f230fe6f7d0e5d0136571f76d8227c9c19da935[ALL] 03cf59e72658ffc4e76b725fcfec0ced901e24e2367c5be582a472870774896ecb"}, "vout": 0, "txid": "56937656c042732ed1cb26e20e07fdd463b828aba9f023fb961f5c9d4c958597"}], "txid": "e11118e6d4966387706ab51e709f2af6f261dd9230a913c906924c385f142716", "blocktime": 1537873891, "version": 1, "confirmations": 11478, "time": 1537873891, "locktime": 0, "vsize": 225, "size": 225}