{"hash": "e1176d94174792fed0abbcdfa398b8df96f8049b26b8df3995a6053bd0ffc405", "blockhash": "00000000000000000024a2167bbff67b0be802c0b01cdd79e6331c2be6459f87", "vout": [{"scriptPubKey": {"reqSigs": 1, "hex": "76a9141508276fd4193e83f5fce7a810a40e8f983c161988ac", "addresses": ["12vCxak5xc1t6T275xbm6AJ4xsZCxkTSc5"], "asm": "OP_DUP OP_HASH160 1508276fd4193e83f5fce7a810a40e8f983c1619 OP_EQUALVERIFY OP_CHECKSIG", "type": "pubkeyhash"}, "value": 49.99885695, "n": 0}, {"scriptPubKey": {"type": "nulldata", "hex": "6a146f6d6e69000000000000001f000007e9a068d800", "asm": "OP_RETURN 6f6d6e69000000000000001f000007e9a068d800"}, "value": 0.0, "n": 1}, {"scriptPubKey": {"reqSigs": 1, "hex": "76a9141508276fd4193e83f5fce7a810a40e8f983c161988ac", "addresses": ["12vCxak5xc1t6T275xbm6AJ4xsZCxkTSc5"], "asm": "OP_DUP OP_HASH160 1508276fd4193e83f5fce7a810a40e8f983c1619 OP_EQUALVERIFY OP_CHECKSIG", "type": "pubkeyhash"}, "value": 5.46e-06, "n": 2}], "hex": "0100000002273198a2f086211b79eb56f092ffa6fd509d3b2a2a5eb5d01bc7676d717833bb000000006a473044022053346ad94548fdb9e7350dada3e6e41f1bc68b4a5af91826b936bb7c54096972022001ff5df29c3607f4287f4dbb9cb225394078f214d0e7583972a1843b5eeb71b901210225a57a1eb6c121eadf81766af42fbd5a78eb8daf0dd790ecb10dd49c4fdac4a6ffffffffd3098e05a85e270e5fb70a460316fd8152b1fde31c1bbb3a96ce75ac7070c941000000006a47304402204ec356d0a7ebf5c7d93d42ec9cc84b16d7e73957b9bc949f273068f9b20de82b02200daeb81f27e05067a32b71118c806675e84b718bb59944e11307b5826dd4a6230121035bb5ec1330953265719fecb2345ebd0cd02272efa8a3a940a8a28021b37703eeffffffff037f33042a010000001976a9141508276fd4193e83f5fce7a810a40e8f983c161988ac0000000000000000166a146f6d6e69000000000000001f000007e9a068d80022020000000000001976a9141508276fd4193e83f5fce7a810a40e8f983c161988ac00000000", "vin": [{"sequence": 4294967295, "scriptSig": {"hex": "473044022053346ad94548fdb9e7350dada3e6e41f1bc68b4a5af91826b936bb7c54096972022001ff5df29c3607f4287f4dbb9cb225394078f214d0e7583972a1843b5eeb71b901210225a57a1eb6c121eadf81766af42fbd5a78eb8daf0dd790ecb10dd49c4fdac4a6", "asm": "3044022053346ad94548fdb9e7350dada3e6e41f1bc68b4a5af91826b936bb7c54096972022001ff5df29c3607f4287f4dbb9cb225394078f214d0e7583972a1843b5eeb71b9[ALL] 0225a57a1eb6c121eadf81766af42fbd5a78eb8daf0dd790ecb10dd49c4fdac4a6"}, "vout": 0, "txid": "bb3378716d67c71bd0b55e2a2a3b9d50fda6ff92f056eb791b2186f0a2983127"}, {"sequence": 4294967295, "scriptSig": {"hex": "47304402204ec356d0a7ebf5c7d93d42ec9cc84b16d7e73957b9bc949f273068f9b20de82b02200daeb81f27e05067a32b71118c806675e84b718bb59944e11307b5826dd4a6230121035bb5ec1330953265719fecb2345ebd0cd02272efa8a3a940a8a28021b37703ee", "asm": "304402204ec356d0a7ebf5c7d93d42ec9cc84b16d7e73957b9bc949f273068f9b20de82b02200daeb81f27e05067a32b71118c806675e84b718bb59944e11307b5826dd4a623[ALL] 035bb5ec1330953265719fecb2345ebd0cd02272efa8a3a940a8a28021b37703ee"}, "vout": 0, "txid": "41c97070ac75ce963abb1b1ce3fdb15281fd1603460ab75f0e275ea8058e09d3"}], "txid": "e1176d94174792fed0abbcdfa398b8df96f8049b26b8df3995a6053bd0ffc405", "blocktime": 1537870564, "version": 1, "confirmations": 11515, "time": 1537870564, "locktime": 0, "vsize": 403, "size": 403}