{"hash": "e11c52e240db94c4932c6ee6d6ce55ef2371434f8dd33b8d28f2ed022bb71269", "blockhash": "00000000000000000004ffacab907a6b429b9a5745fa0b75af4234bf69dd7176", "vout": [{"scriptPubKey": {"reqSigs": 1, "hex": "76a9140a6b825daa1b89f8e100ed8eec6d79b592500f4988ac", "addresses": ["1x6YnuBVeeE65dQRZztRWgUPwyBjHCA5g"], "asm": "OP_DUP OP_HASH160 0a6b825daa1b89f8e100ed8eec6d79b592500f49 OP_EQUALVERIFY OP_CHECKSIG", "type": "pubkeyhash"}, "value": 0.44338522, "n": 0}, {"scriptPubKey": {"reqSigs": 1, "hex": "76a914aa74d222fbf7874555d1acd87829d882379e33bc88ac", "addresses": ["1GYHpU2C7kGtCNFsNjYfKDexVb13Db4ATs"], "asm": "OP_DUP OP_HASH160 aa74d222fbf7874555d1acd87829d882379e33bc OP_EQUALVERIFY OP_CHECKSIG", "type": "pubkeyhash"}, "value": 5.46e-06, "n": 1}, {"scriptPubKey": {"type": "nulldata", "hex": "6a146f6d6e69000000000000001f00000001a832e4f8", "asm": "OP_RETURN 6f6d6e69000000000000001f00000001a832e4f8"}, "value": 0.0, "n": 2}], "hex": "0100000001420825997d222e162abc3d3a003fd10f2ec670ae8ebf8cecef4f34501ecd16b1010000006b483045022100ef50c4578ef0ba0b9c6364f1476125baf93c8e02a0c97d8092c673739563916002203eaa050781f2e3fa046cbf13abd39ac9c707eb0ebe1ec1f7c72a581f2f98558f012103fe02b06a6bfd9b5a83e0417430a3235a39a0b4c7973591ca27ac58f6474d9120ffffffff035a8da402000000001976a9140a6b825daa1b89f8e100ed8eec6d79b592500f4988ac22020000000000001976a914aa74d222fbf7874555d1acd87829d882379e33bc88ac0000000000000000166a146f6d6e69000000000000001f00000001a832e4f800000000", "vin": [{"sequence": 4294967295, "scriptSig": {"hex": "483045022100ef50c4578ef0ba0b9c6364f1476125baf93c8e02a0c97d8092c673739563916002203eaa050781f2e3fa046cbf13abd39ac9c707eb0ebe1ec1f7c72a581f2f98558f012103fe02b06a6bfd9b5a83e0417430a3235a39a0b4c7973591ca27ac58f6474d9120", "asm": "3045022100ef50c4578ef0ba0b9c6364f1476125baf93c8e02a0c97d8092c673739563916002203eaa050781f2e3fa046cbf13abd39ac9c707eb0ebe1ec1f7c72a581f2f98558f[ALL] 03fe02b06a6bfd9b5a83e0417430a3235a39a0b4c7973591ca27ac58f6474d9120"}, "vout": 1, "txid": "b116cd1e50344fefec8cbf8eae70c62e0fd13f003a3dbc2a162e227d99250842"}], "txid": "e11c52e240db94c4932c6ee6d6ce55ef2371434f8dd33b8d28f2ed022bb71269", "blocktime": 1537875543, "version": 1, "confirmations": 11464, "time": 1537875543, "locktime": 0, "vsize": 257, "size": 257}