{"hash": "e11d0e4e979c7f85ce3b0c45ae53387fcf20d52d9ce6daceecfca8af9d3ab344", "blockhash": "0000000000000000001f76057863aec43deb6fa401d9628bb513d65a8098bfab", "vout": [{"scriptPubKey": {"reqSigs": 1, "hex": "76a9149f6729335aa625e7072cfe937758d92f7dc9dd4888ac", "addresses": ["1FXr2FRxDKsvikRLuCdB7dr1CWHsyAUv5J"], "asm": "OP_DUP OP_HASH160 9f6729335aa625e7072cfe937758d92f7dc9dd48 OP_EQUALVERIFY OP_CHECKSIG", "type": "pubkeyhash"}, "value": 0.00259299, "n": 0}, {"scriptPubKey": {"reqSigs": 1, "hex": "76a9142cf4f6190bd80fdd4d8d638521617ee6ffaeeab688ac", "addresses": ["156iBenMfTpkh4XzTLYjVu6JXYxMzVgi7J"], "asm": "OP_DUP OP_HASH160 2cf4f6190bd80fdd4d8d638521617ee6ffaeeab6 OP_EQUALVERIFY OP_CHECKSIG", "type": "pubkeyhash"}, "value": 0.00995078, "n": 1}], "hex": "02000000036d047f6c47fa6672d661e6fc05f1583df151fb4d94008623203a8ea84085847c020000006b483045022100b2016426d6789bc419513f6ea66c08d990f407de2a1a06f36b0aa4747815ff710220316ee9c0574515f199dc8c7c3be1e0de6a67de2ab46217440da5dfa889bc32a8012103ee521d7eca2d07ca44ba1853d5179a5291c9c709cbc31fcd088f653b7e457be0feffffffb935de7a4e17e2e9f6af27f5d5a10613ed3591624c63325fe859d485bf884b28000000006a47304402204e233d7d1f3d5f7dedc530313441d8e2fd7a77ece0135f351ec9bd6f0d1bd9d202207310b778aae3d146fc5a3def94aaf610f0af60539d69593a6b5e0d8401c9a9200121035ca0b6b526999eb89720095a2e9f0c8967f8f6b16987051742d0bdc05752e992feffffffdc4e3478aaf359a1690f0ae8cd9960b257352eee39d17b5a71cee90d610255a7010000006b48304502210099d43a6e0734c784267ccc4790d0ca1a512ae783cf5cfebb2b88e1a56992916d0220438495ec8264e6136a6f0e6c025e57f2e76b06eda083fce68523dfdf9aac9f280121029a9674c78447193bf68368e08d190784e09107c8b11cd42fbfaad1649f69a16cfeffffff02e3f40300000000001976a9149f6729335aa625e7072cfe937758d92f7dc9dd4888ac062f0f00000000001976a9142cf4f6190bd80fdd4d8d638521617ee6ffaeeab688acc4480800", "vin": [{"sequence": 4294967294, "scriptSig": {"hex": "483045022100b2016426d6789bc419513f6ea66c08d990f407de2a1a06f36b0aa4747815ff710220316ee9c0574515f199dc8c7c3be1e0de6a67de2ab46217440da5dfa889bc32a8012103ee521d7eca2d07ca44ba1853d5179a5291c9c709cbc31fcd088f653b7e457be0", "asm": "3045022100b2016426d6789bc419513f6ea66c08d990f407de2a1a06f36b0aa4747815ff710220316ee9c0574515f199dc8c7c3be1e0de6a67de2ab46217440da5dfa889bc32a8[ALL] 03ee521d7eca2d07ca44ba1853d5179a5291c9c709cbc31fcd088f653b7e457be0"}, "vout": 2, "txid": "7c848540a88e3a20238600944dfb51f13d58f105fce661d67266fa476c7f046d"}, {"sequence": 4294967294, "scriptSig": {"hex": "47304402204e233d7d1f3d5f7dedc530313441d8e2fd7a77ece0135f351ec9bd6f0d1bd9d202207310b778aae3d146fc5a3def94aaf610f0af60539d69593a6b5e0d8401c9a9200121035ca0b6b526999eb89720095a2e9f0c8967f8f6b16987051742d0bdc05752e992", "asm": "304402204e233d7d1f3d5f7dedc530313441d8e2fd7a77ece0135f351ec9bd6f0d1bd9d202207310b778aae3d146fc5a3def94aaf610f0af60539d69593a6b5e0d8401c9a920[ALL] 035ca0b6b526999eb89720095a2e9f0c8967f8f6b16987051742d0bdc05752e992"}, "vout": 0, "txid": "284b88bf85d459e85f32634c629135ed1306a1d5f527aff6e9e2174e7ade35b9"}, {"sequence": 4294967294, "scriptSig": {"hex": "48304502210099d43a6e0734c784267ccc4790d0ca1a512ae783cf5cfebb2b88e1a56992916d0220438495ec8264e6136a6f0e6c025e57f2e76b06eda083fce68523dfdf9aac9f280121029a9674c78447193bf68368e08d190784e09107c8b11cd42fbfaad1649f69a16c", "asm": "304502210099d43a6e0734c784267ccc4790d0ca1a512ae783cf5cfebb2b88e1a56992916d0220438495ec8264e6136a6f0e6c025e57f2e76b06eda083fce68523dfdf9aac9f28[ALL] 029a9674c78447193bf68368e08d190784e09107c8b11cd42fbfaad1649f69a16c"}, "vout": 1, "txid": "a75502610de9ce715a7bd139ee2e3557b26099cde80a0f69a159f3aa78344edc"}], "txid": "e11d0e4e979c7f85ce3b0c45ae53387fcf20d52d9ce6daceecfca8af9d3ab344", "blocktime": 1537873891, "version": 2, "confirmations": 11475, "time": 1537873891, "locktime": 542916, "vsize": 521, "size": 521}