{"hash": "604a9799c776445192940cf3b7dbbd43e79193752f6c2af28cff091b24868966", "blockhash": "0000000000000000001cda96e906b7601b7a6fb1a3b62bca570a9e5d8f4b3de1", "vout": [{"scriptPubKey": {"reqSigs": 1, "hex": "76a914976c8e190502176333eec5130d11f7610c8feb8f88ac", "addresses": ["1Eof5WHGWDcrv3zYjAWdx3FbEj7hZpUqZx"], "asm": "OP_DUP OP_HASH160 976c8e190502176333eec5130d11f7610c8feb8f OP_EQUALVERIFY OP_CHECKSIG", "type": "pubkeyhash"}, "value": 0.2095, "n": 0}, {"scriptPubKey": {"reqSigs": 1, "hex": "a914646a79b4ccfe80aa17e209733565cb00f9aba48387", "addresses": ["3Aqy3mWv31XRnBBPZU6RbasXwHD6jbJBqt"], "asm": "OP_HASH160 646a79b4ccfe80aa17e209733565cb00f9aba483 OP_EQUAL", "type": "scripthash"}, "value": 2.06819312, "n": 1}, {"scriptPubKey": {"reqSigs": 1, "hex": "a914036af5eacc802d6502a727dd1620ae4e23d15afb87", "addresses": ["32165sb13gezWDFf7yb876TWsnzaiFahLU"], "asm": "OP_HASH160 036af5eacc802d6502a727dd1620ae4e23d15afb OP_EQUAL", "type": "scripthash"}, "value": 1.12018623, "n": 2}], "hex": "020000000001054da69f382e490e8a0bdf6704fe29a5d494f286d4e221e10252609d75585644580300000017160014400e795227d5a4921e9e7479629261ef287eccd9ffffffffc60141bc7bbe09ea5e5469eb206d3afad7acbd22dd7fbfb3c197d7718779e71407000000171600141d06aeacae5a064038dca14c3ac74c76d14c68c0ffffffffbcff6ee30f28a01bcee78e25e0b342d002444f8068c57de17283f9527af4cd7b0100000017160014ce1aba062c6092b930b39db03ab5a7cc4bc3f91dffffffffc15a2bb9142b5c489d2d0b3599ee9088acb720e9cc18ecce52553a7b3313c37a0000000017160014f91931e6c48931152ef4ed19ab32c0261857afe4ffffffffb5cb9410ffacf369591a462a96b78e6ed2a6ba6d639594eb0a8220e1b431bca0000000001716001432ff2f723df35fc2be1da82fea53b29a2d9a245cffffffff03f0ab3f01000000001976a914976c8e190502176333eec5130d11f7610c8feb8f88acf0cf530c0000000017a914646a79b4ccfe80aa17e209733565cb00f9aba48387bf44ad060000000017a914036af5eacc802d6502a727dd1620ae4e23d15afb87024830450221009ddac45da8c7ec8f4396b0849d21a2c911364082c61ed4bd1ca100407b50f48d02200b634a854d1cf421d381901a275ca6266d94c5e1427470e05a84f4df9bacb8ce01210225d6324c75e42ac67e081d0effa3a4f84fa13b3e5d821cbec9ad6947c6de0097024830450221009f14c4ef7958255e8b03af41cfb8df936707002fe4c16414878f935b3dd4c59b022005df8dfc2a055ac46e43e72515121d11a004e1442aa07d79670339db104ffe4d012102fc67d0dbd7ebf222d53408c59b9f4fadd2ab1cb62d04104c07ea153ebea85a750247304402201ae38b43515dbb358576a058d5d3b0eeaf2d54954c7d378765eb4354eca777a302204f95efb8ed60b472623df3d42f016147c61667252b1673b6d09d3338a0e43c3901210355ca25e6889825d23daaa323f016371b1ec3cd7f7644ee50a614a4a1b332af040248304502210098e462110db9bc364930661938300644eb70fe4105a8164430041e730e585dee02206de343edc2655d05739b639e3be5bace38d4454c4f44055cde9568b07b232963012103f5f852405b1e4c3861febc99789697f76bcf7abd79804ca9a29ad3f203a977840247304402201a9ad2fb8e47aab1b362380b142b6eea3067c2f1a57da343bced6fdb2b50287f022001409bd81a480e87b98a114e225500bb9507f74fdd27a484c7175ff0064affcf01210244b6ada5511b20cb76425b73b0de50957709db90652c07d0014ebb0fdb6fa1e100000000", "vin": [{"txinwitness": ["30450221009ddac45da8c7ec8f4396b0849d21a2c911364082c61ed4bd1ca100407b50f48d02200b634a854d1cf421d381901a275ca6266d94c5e1427470e05a84f4df9bacb8ce01", "0225d6324c75e42ac67e081d0effa3a4f84fa13b3e5d821cbec9ad6947c6de0097"], "sequence": 4294967295, "scriptSig": {"hex": "160014400e795227d5a4921e9e7479629261ef287eccd9", "asm": "0014400e795227d5a4921e9e7479629261ef287eccd9"}, "vout": 3, "txid": "58445658759d605202e121e2d486f294d4a529fe0467df0b8a0e492e389fa64d"}, {"txinwitness": ["30450221009f14c4ef7958255e8b03af41cfb8df936707002fe4c16414878f935b3dd4c59b022005df8dfc2a055ac46e43e72515121d11a004e1442aa07d79670339db104ffe4d01", "02fc67d0dbd7ebf222d53408c59b9f4fadd2ab1cb62d04104c07ea153ebea85a75"], "sequence": 4294967295, "scriptSig": {"hex": "1600141d06aeacae5a064038dca14c3ac74c76d14c68c0", "asm": "00141d06aeacae5a064038dca14c3ac74c76d14c68c0"}, "vout": 7, "txid": "14e7798771d797c1b3bf7fdd22bdacd7fa3a6d20eb69545eea09be7bbc4101c6"}, {"txinwitness": ["304402201ae38b43515dbb358576a058d5d3b0eeaf2d54954c7d378765eb4354eca777a302204f95efb8ed60b472623df3d42f016147c61667252b1673b6d09d3338a0e43c3901", "0355ca25e6889825d23daaa323f016371b1ec3cd7f7644ee50a614a4a1b332af04"], "sequence": 4294967295, "scriptSig": {"hex": "160014ce1aba062c6092b930b39db03ab5a7cc4bc3f91d", "asm": "0014ce1aba062c6092b930b39db03ab5a7cc4bc3f91d"}, "vout": 1, "txid": "7bcdf47a52f98372e17dc568804f4402d042b3e0258ee7ce1ba0280fe36effbc"}, {"txinwitness": ["304502210098e462110db9bc364930661938300644eb70fe4105a8164430041e730e585dee02206de343edc2655d05739b639e3be5bace38d4454c4f44055cde9568b07b23296301", "03f5f852405b1e4c3861febc99789697f76bcf7abd79804ca9a29ad3f203a97784"], "sequence": 4294967295, "scriptSig": {"hex": "160014f91931e6c48931152ef4ed19ab32c0261857afe4", "asm": "0014f91931e6c48931152ef4ed19ab32c0261857afe4"}, "vout": 0, "txid": "7ac313337b3a5552ceec18cce920b7ac8890ee99350b2d9d485c2b14b92b5ac1"}, {"txinwitness": ["304402201a9ad2fb8e47aab1b362380b142b6eea3067c2f1a57da343bced6fdb2b50287f022001409bd81a480e87b98a114e225500bb9507f74fdd27a484c7175ff0064affcf01", "0244b6ada5511b20cb76425b73b0de50957709db90652c07d0014ebb0fdb6fa1e1"], "sequence": 4294967295, "scriptSig": {"hex": "16001432ff2f723df35fc2be1da82fea53b29a2d9a245c", "asm": "001432ff2f723df35fc2be1da82fea53b29a2d9a245c"}, "vout": 0, "txid": "a0bc31b4e120820aeb9495636dbaa6d26e8eb7962a461a5969f3acff1094cbb5"}], "txid": "e12306a4402fb0928f2a4680098e0ac4385d9746d5d5431e20afa27eae8a7f7c", "blocktime": 1537873282, "version": 2, "confirmations": 11480, "time": 1537873282, "locktime": 0, "vsize": 563, "size": 968}