{"hash": "e125785fb3af82ce68b50ec1bdc6e1b4c06e1b04f4332bdd83f4a9d67f8b1e14", "blockhash": "00000000000000000004ffacab907a6b429b9a5745fa0b75af4234bf69dd7176", "vout": [{"scriptPubKey": {"type": "nulldata", "hex": "6a146f6d6e69000000000000001f00000001283c2e80", "asm": "OP_RETURN 6f6d6e69000000000000001f00000001283c2e80"}, "value": 0.0, "n": 0}, {"scriptPubKey": {"reqSigs": 1, "hex": "76a914916475a8f2e92489796e6d682c167374a52ef1c888ac", "addresses": ["1EFmKsYUsSChHNwMddsKgx4s5Yjbm13JUz"], "asm": "OP_DUP OP_HASH160 916475a8f2e92489796e6d682c167374a52ef1c8 OP_EQUALVERIFY OP_CHECKSIG", "type": "pubkeyhash"}, "value": 5.46e-06, "n": 1}, {"scriptPubKey": {"reqSigs": 1, "hex": "76a914a25dec4d0011064ef106a983c39c7a540699f22088ac", "addresses": ["1FoWyxwPXuj4C6abqwhjDWdz6D4PZgYRjA"], "asm": "OP_DUP OP_HASH160 a25dec4d0011064ef106a983c39c7a540699f220 OP_EQUALVERIFY OP_CHECKSIG", "type": "pubkeyhash"}, "value": 0.0197116, "n": 2}], "hex": "010000000179779cac001db6f37e5a994c2e0b60b6d41f52dd600a2ab886a9188f61e2de2d010000006a47304402200d6107fa50226bd7a618b35c6c0402421f77baca92dc6e07ffcbac15b0c3c6ac0220579803022b177e3355d0e823ffa743d6a0458fbec62bcee847d7b269f4a423af012103da5bac7b36d5aa38f531c6b9601e21bb598a4b6716ebed38b009a55dabde9440feffffff030000000000000000166a146f6d6e69000000000000001f00000001283c2e8022020000000000001976a914916475a8f2e92489796e6d682c167374a52ef1c888acd8131e00000000001976a914a25dec4d0011064ef106a983c39c7a540699f22088ac16490800", "vin": [{"sequence": 4294967294, "scriptSig": {"hex": "47304402200d6107fa50226bd7a618b35c6c0402421f77baca92dc6e07ffcbac15b0c3c6ac0220579803022b177e3355d0e823ffa743d6a0458fbec62bcee847d7b269f4a423af012103da5bac7b36d5aa38f531c6b9601e21bb598a4b6716ebed38b009a55dabde9440", "asm": "304402200d6107fa50226bd7a618b35c6c0402421f77baca92dc6e07ffcbac15b0c3c6ac0220579803022b177e3355d0e823ffa743d6a0458fbec62bcee847d7b269f4a423af[ALL] 03da5bac7b36d5aa38f531c6b9601e21bb598a4b6716ebed38b009a55dabde9440"}, "vout": 1, "txid": "2ddee2618f18a986b82a0a60dd521fd4b6600b2e4c995a7ef3b61d00ac9c7779"}], "txid": "e125785fb3af82ce68b50ec1bdc6e1b4c06e1b04f4332bdd83f4a9d67f8b1e14", "blocktime": 1537875543, "version": 1, "confirmations": 11464, "time": 1537875543, "locktime": 542998, "vsize": 256, "size": 256}