{"hash": "dfb9214bdaf6fe26b3fa9eebcae1af12ef15a53bd92aa7c1001f1ad1ee80bc78", "blockhash": "0000000000000000000baef3f32e3676a92c3b2e5da21b426e4f302fc371ce76", "vout": [{"scriptPubKey": {"reqSigs": 1, "hex": "76a91485db7cab769f93a69785c13cc1e0df51be1f9d8b88ac", "addresses": ["1DCmojk8DoVM3CmvYCzyJbGfcHzZstF2vU"], "asm": "OP_DUP OP_HASH160 85db7cab769f93a69785c13cc1e0df51be1f9d8b OP_EQUALVERIFY OP_CHECKSIG", "type": "pubkeyhash"}, "value": 2.613e-05, "n": 0}, {"scriptPubKey": {"reqSigs": 1, "hex": "a914e8db75c900cf08f06518e96d167331f2a4abfb3387", "addresses": ["3NvFbQMAkkqEFj4i1sYPPLkSWzxTFUchjA"], "asm": "OP_HASH160 e8db75c900cf08f06518e96d167331f2a4abfb33 OP_EQUAL", "type": "scripthash"}, "value": 0.0492761, "n": 1}], "hex": "0100000000010100d9de5b665ea9ca7f5571cd05e72ac637001ab7bc0bc6001ffd4a3442680a6a0100000023220020941cfaff8837763dc1f69ff82b6d6553fdea17a41cfc29a04403293eedd8ccc7ffffffff02350a0000000000001976a91485db7cab769f93a69785c13cc1e0df51be1f9d8b88ac7a304b000000000017a914e8db75c900cf08f06518e96d167331f2a4abfb33870400483045022100e9597f06ac04469308c6e7501e2822c8375fcac7731688c0df97275ca555b13a0220475f14d792060344c2154632faf553bdade00b3a7603541c9afbc6d8eb4064530148304502210095fef2046302b965d3f93e223362a045c096bd5c264c0b24e68d6e7c45e68b1202205d7d70642b5ad66423071ed3a0de6f5c3526632ecb89c1416074662124dc84b70147522102531db3a5883f29bab4241dd0cd726936667bcda445d89bdd22244e828b6993342103148c80a5bdfddb05ff5bcffc397c8ca748d8b435ec6a175bc9d7bfc7fc6f853752ae00000000", "vin": [{"txinwitness": ["", "3045022100e9597f06ac04469308c6e7501e2822c8375fcac7731688c0df97275ca555b13a0220475f14d792060344c2154632faf553bdade00b3a7603541c9afbc6d8eb40645301", "304502210095fef2046302b965d3f93e223362a045c096bd5c264c0b24e68d6e7c45e68b1202205d7d70642b5ad66423071ed3a0de6f5c3526632ecb89c1416074662124dc84b701", "522102531db3a5883f29bab4241dd0cd726936667bcda445d89bdd22244e828b6993342103148c80a5bdfddb05ff5bcffc397c8ca748d8b435ec6a175bc9d7bfc7fc6f853752ae"], "sequence": 4294967295, "scriptSig": {"hex": "220020941cfaff8837763dc1f69ff82b6d6553fdea17a41cfc29a04403293eedd8ccc7", "asm": "0020941cfaff8837763dc1f69ff82b6d6553fdea17a41cfc29a04403293eedd8ccc7"}, "vout": 1, "txid": "6a0a6842344afd1f00c60bbcb71a0037c62ae705cd71557fcaa95e665bded900"}], "txid": "e126fb7506109cd06c45705de263aa61afb1cea63171966f2eb4fd3c9f4cccc4", "blocktime": 1537876114, "version": 1, "confirmations": 11462, "time": 1537876114, "locktime": 0, "vsize": 208, "size": 374}