{"hash": "5a44e46fd29ca2674da7ad5919aa269c91bd472a2bfeab91be0fb71d03866922", "blockhash": "0000000000000000001f76057863aec43deb6fa401d9628bb513d65a8098bfab", "vout": [{"scriptPubKey": {"reqSigs": 1, "hex": "0014fff082dec4415d244205f134c09ff94f4e0ec794", "addresses": ["bc1qllcg9hkyg9wjgss97y6vp8lefa8qa3u58mg7t2"], "asm": "0 fff082dec4415d244205f134c09ff94f4e0ec794", "type": "witness_v0_keyhash"}, "value": 0.62763122, "n": 0}, {"scriptPubKey": {"reqSigs": 1, "hex": "a9147faf816e2dd7f4acd89ed07f88fc0fdd9824e9f987", "addresses": ["3DL9zFMFEinCbMMkZqufRLN4mN2mmP1n71"], "asm": "OP_HASH160 7faf816e2dd7f4acd89ed07f88fc0fdd9824e9f9 OP_EQUAL", "type": "scripthash"}, "value": 0.03329507, "n": 1}], "hex": "0100000000010172a2dc1aae5aba23ab7bb042e79ef385668a52f9533065dee4d8c4da70e8a3c61800000017160014c8cf974d6cd227282947888ea9be028f9a5145f3ffffffff0272b0bd0300000000160014fff082dec4415d244205f134c09ff94f4e0ec794e3cd32000000000017a9147faf816e2dd7f4acd89ed07f88fc0fdd9824e9f9870247304402200af6347d9dfd76c86b2add8ff7596986ed5c99308f75f62772f8d7675856a3d5022030c8955392fba89cd0bc6894ee24cadfc526125456d43f6fcb3993a0586969b601210352ffa97589b05d27193bda26c195a4c4e048b245cc580e88027e1d606b8711c000000000", "vin": [{"txinwitness": ["304402200af6347d9dfd76c86b2add8ff7596986ed5c99308f75f62772f8d7675856a3d5022030c8955392fba89cd0bc6894ee24cadfc526125456d43f6fcb3993a0586969b601", "0352ffa97589b05d27193bda26c195a4c4e048b245cc580e88027e1d606b8711c0"], "sequence": 4294967295, "scriptSig": {"hex": "160014c8cf974d6cd227282947888ea9be028f9a5145f3", "asm": "0014c8cf974d6cd227282947888ea9be028f9a5145f3"}, "vout": 24, "txid": "c6a3e870dac4d8e4de653053f9528a6685f39ee742b07bab23ba5aae1adca272"}], "txid": "e127202348b336e71a35d2924b24ffad8e8dad275a23a0c36157dab07989d4a3", "blocktime": 1537873891, "version": 1, "confirmations": 11478, "time": 1537873891, "locktime": 0, "vsize": 165, "size": 246}