{"hash": "e129d30ce9611b20b69c1ab3872cbd74056c32e4ebfb705ebab098fa4fd343b4", "blockhash": "0000000000000000001f0ddff1eddb255c1121bcd4da4f1bc9a0da00cae72433", "vout": [{"scriptPubKey": {"reqSigs": 1, "hex": "76a9144ca5f8ebec3c6e5fa1225a3f829f2d107b92349188ac", "addresses": ["17zHBYL53iPN2WacJeqXhBSFAfo9dYiP7g"], "asm": "OP_DUP OP_HASH160 4ca5f8ebec3c6e5fa1225a3f829f2d107b923491 OP_EQUALVERIFY OP_CHECKSIG", "type": "pubkeyhash"}, "value": 0.00182211, "n": 0}, {"scriptPubKey": {"reqSigs": 1, "hex": "a91403831345452bdee3cc3089c1deae4899cc12e5e287", "addresses": ["321ayPX4hHKF9fREnUNkLvguWR6hMoyncP"], "asm": "OP_HASH160 03831345452bdee3cc3089c1deae4899cc12e5e2 OP_EQUAL", "type": "scripthash"}, "value": 0.00182358, "n": 1}, {"scriptPubKey": {"reqSigs": 1, "hex": "a9142ca6c50d939a0d9e84374a0d7b5713d67a5c13cf87", "addresses": ["35m7SMBouBJpJJEc74YyBU57qyUtgsNZgJ"], "asm": "OP_HASH160 2ca6c50d939a0d9e84374a0d7b5713d67a5c13cf OP_EQUAL", "type": "scripthash"}, "value": 0.00180194, "n": 2}, {"scriptPubKey": {"reqSigs": 1, "hex": "76a914532f6f57c8490c816953bed6f08db0e5fe5bdd1c88ac", "addresses": ["18aqum1pQSWTDdRWA1exseKi2JUDwnWYgE"], "asm": "OP_DUP OP_HASH160 532f6f57c8490c816953bed6f08db0e5fe5bdd1c OP_EQUALVERIFY OP_CHECKSIG", "type": "pubkeyhash"}, "value": 0.0018377, "n": 3}, {"scriptPubKey": {"reqSigs": 1, "hex": "76a914e314d7d5dab2761fa349eb3612134e500da727f788ac", "addresses": ["1MhhMkVsa1vkWQvTe1nd2LbXSkYe4xurXH"], "asm": "OP_DUP OP_HASH160 e314d7d5dab2761fa349eb3612134e500da727f7 OP_EQUALVERIFY OP_CHECKSIG", "type": "pubkeyhash"}, "value": 0.00181424, "n": 4}, {"scriptPubKey": {"reqSigs": 1, "hex": "a914eb64f0fdcafaa36b8f79829e89bc47f1ee21efdd87", "addresses": ["3P9fe9rNZ4r9ZLo8xeo9pRbndAFw7i4TBV"], "asm": "OP_HASH160 eb64f0fdcafaa36b8f79829e89bc47f1ee21efdd OP_EQUAL", "type": "scripthash"}, "value": 0.00179356, "n": 5}, {"scriptPubKey": {"reqSigs": 1, "hex": "76a9149a0f2506b989590301c7286271a38b6b4c636bde88ac", "addresses": ["1F3bCox8mDdnKtZEp6iTEKFLzenNBqryCg"], "asm": "OP_DUP OP_HASH160 9a0f2506b989590301c7286271a38b6b4c636bde OP_EQUALVERIFY OP_CHECKSIG", "type": "pubkeyhash"}, "value": 0.00180753, "n": 6}, {"scriptPubKey": {"reqSigs": 1, "hex": "a914878d39c7359fc2fbd68470ec37e2986485f72b4e87", "addresses": ["3E3kKyTbaC6RUeEMB4oiKr7fj8zX8ByXvm"], "asm": "OP_HASH160 878d39c7359fc2fbd68470ec37e2986485f72b4e OP_EQUAL", "type": "scripthash"}, "value": 0.00183702, "n": 7}, {"scriptPubKey": {"reqSigs": 1, "hex": "76a91411625dc96004de9f418815cf108a131b4555f64688ac", "addresses": ["12avKsmDCnpxpCZPL8saYGVpVKFbKwPzmr"], "asm": "OP_DUP OP_HASH160 11625dc96004de9f418815cf108a131b4555f646 OP_EQUALVERIFY OP_CHECKSIG", "type": "pubkeyhash"}, "value": 0.00183572, "n": 8}, {"scriptPubKey": {"reqSigs": 1, "hex": "a914bc5c9dcc70e23731f178fbfe47df3d07f771410a87", "addresses": ["3Jryui2gYjf3GYQtHednANFi2rEFmyQxPS"], "asm": "OP_HASH160 bc5c9dcc70e23731f178fbfe47df3d07f771410a OP_EQUAL", "type": "scripthash"}, "value": 0.00183387, "n": 9}, {"scriptPubKey": {"reqSigs": 1, "hex": "76a914fbde2a8e044b55c8a357192d951a0fb6b71709d688ac", "addresses": ["1PxkkXiqmStTJaie8GiVnGDwGZTDwVte8N"], "asm": "OP_DUP OP_HASH160 fbde2a8e044b55c8a357192d951a0fb6b71709d6 OP_EQUALVERIFY OP_CHECKSIG", "type": "pubkeyhash"}, "value": 0.00182417, "n": 10}, {"scriptPubKey": {"reqSigs": 1, "hex": "76a914fe508ebc0ebd064adc40011e066d574507d0d26588ac", "addresses": ["1QBh8xoZEMn96mjiu8yrZdtTt3bNysL3cH"], "asm": "OP_DUP OP_HASH160 fe508ebc0ebd064adc40011e066d574507d0d265 OP_EQUALVERIFY OP_CHECKSIG", "type": "pubkeyhash"}, "value": 0.00183626, "n": 11}, {"scriptPubKey": {"reqSigs": 1, "hex": "76a914c4b4c3be6a1eec217c0e90e9c27698ddd1da715388ac", "addresses": ["1Jw5zM1ipqaUmYnRmsXx229L6tWJU8sAxQ"], "asm": "OP_DUP OP_HASH160 c4b4c3be6a1eec217c0e90e9c27698ddd1da7153 OP_EQUALVERIFY OP_CHECKSIG", "type": "pubkeyhash"}, "value": 0.00181937, "n": 12}, {"scriptPubKey": {"reqSigs": 1, "hex": "76a91496ed0dbfe25cc1834b47b4d6d8c477eb18369eb888ac", "addresses": ["1Em2LZC7gnKWAMEuej1kT7XvKDFHQaFq9p"], "asm": "OP_DUP OP_HASH160 96ed0dbfe25cc1834b47b4d6d8c477eb18369eb8 OP_EQUALVERIFY OP_CHECKSIG", "type": "pubkeyhash"}, "value": 0.00178942, "n": 13}, {"scriptPubKey": {"reqSigs": 1, "hex": "a9142652f1f3d60ee7fec5997234f4a7248680de850487", "addresses": ["35BexxjcjakaFnKXPpZmUs3jCpz4wgo1eU"], "asm": "OP_HASH160 2652f1f3d60ee7fec5997234f4a7248680de8504 OP_EQUAL", "type": "scripthash"}, "value": 0.001792, "n": 14}, {"scriptPubKey": {"reqSigs": 1, "hex": "76a914ab53d2d16648cb3529cb9d9c07ee97d919e4c8c188ac", "addresses": ["1GctxxpagtcLgPniwzPe4c5Xv2V8dPPrc7"], "asm": "OP_DUP OP_HASH160 ab53d2d16648cb3529cb9d9c07ee97d919e4c8c1 OP_EQUALVERIFY OP_CHECKSIG", "type": "pubkeyhash"}, "value": 0.00181762, "n": 15}, {"scriptPubKey": {"reqSigs": 1, "hex": "a91401a6fd3fc82c04d986f127305c0efb039deb684e87", "addresses": ["31qkeMPhqKN2An39pAwBhvsgJzAEngzqJi"], "asm": "OP_HASH160 01a6fd3fc82c04d986f127305c0efb039deb684e OP_EQUAL", "type": "scripthash"}, "value": 0.00183252, "n": 16}, {"scriptPubKey": {"reqSigs": 1, "hex": "76a9148239a0d27484cfd15ef99b6c296815761bbd632288ac", "addresses": ["1CsZt1wjiTbxUonNeTphxbes9acusDeBZv"], "asm": "OP_DUP OP_HASH160 8239a0d27484cfd15ef99b6c296815761bbd6322 OP_EQUALVERIFY OP_CHECKSIG", "type": "pubkeyhash"}, "value": 0.00179649, "n": 17}, {"scriptPubKey": {"reqSigs": 1, "hex": "a914fb673b978464dce5ca7a13fb00169663c960c13287", "addresses": ["3QcKCS3KQY6Ec9ACk4skgfw5Yk933YRkae"], "asm": "OP_HASH160 fb673b978464dce5ca7a13fb00169663c960c132 OP_EQUAL", "type": "scripthash"}, "value": 0.00183224, "n": 18}, {"scriptPubKey": {"reqSigs": 1, "hex": "76a91492a8044013afc2e98db3068ab1dac6b9cda5ba7588ac", "addresses": ["1ENSw1KMymTQVPKE4i7F8at2Jg6XRyM7LS"], "asm": "OP_DUP OP_HASH160 92a8044013afc2e98db3068ab1dac6b9cda5ba75 OP_EQUALVERIFY OP_CHECKSIG", "type": "pubkeyhash"}, "value": 0.00180172, "n": 19}, {"scriptPubKey": {"reqSigs": 1, "hex": "a9144d8271f2ffd2c1af1fae6e021b54b5c1bd0b354587", "addresses": ["38krDoMrVqvMH4wVigUfE98bSRQj3tMaoP"], "asm": "OP_HASH160 4d8271f2ffd2c1af1fae6e021b54b5c1bd0b3545 OP_EQUAL", "type": "scripthash"}, "value": 0.001837, "n": 20}, {"scriptPubKey": {"reqSigs": 1, "hex": "76a9141addd1d3c409350b5c8f01c77089617e9d55078d88ac", "addresses": ["13T4JHbnch8xaA5JeeNSTooUPoMoejdZ1t"], "asm": "OP_DUP OP_HASH160 1addd1d3c409350b5c8f01c77089617e9d55078d OP_EQUALVERIFY OP_CHECKSIG", "type": "pubkeyhash"}, "value": 0.0018369, "n": 21}, {"scriptPubKey": {"reqSigs": 1, "hex": "a914379ed683ba5d1959dd0ff58b690135831f07adea87", "addresses": ["36m7NMAbsd5SUa3fywB3Npk8ycisoRDqKg"], "asm": "OP_HASH160 379ed683ba5d1959dd0ff58b690135831f07adea OP_EQUAL", "type": "scripthash"}, "value": 0.00184, "n": 22}, {"scriptPubKey": {"reqSigs": 1, "hex": "76a914bbd066a03e8d47a0aa8013c103c29a2b2caaf41d88ac", "addresses": ["1J851pXgMCN21RiGxricykR4hsf3oBhkSp"], "asm": "OP_DUP OP_HASH160 bbd066a03e8d47a0aa8013c103c29a2b2caaf41d OP_EQUALVERIFY OP_CHECKSIG", "type": "pubkeyhash"}, "value": 0.0018099, "n": 23}, {"scriptPubKey": {"reqSigs": 1, "hex": "76a9144d2cd22d22888722a2f2e9670703c0cf61e7b0d288ac", "addresses": ["1834izLzbedocFxUgBXhULcfR3Fj4yy3QA"], "asm": "OP_DUP OP_HASH160 4d2cd22d22888722a2f2e9670703c0cf61e7b0d2 OP_EQUALVERIFY OP_CHECKSIG", "type": "pubkeyhash"}, "value": 0.00180593, "n": 24}, {"scriptPubKey": {"reqSigs": 1, "hex": "76a914e85e2297016adbf0fe29feee423a12b6dbcc228a88ac", "addresses": ["1NBeY8Nzg8ypPn1r7J7Mw55kV6qGZjP4Wm"], "asm": "OP_DUP OP_HASH160 e85e2297016adbf0fe29feee423a12b6dbcc228a OP_EQUALVERIFY OP_CHECKSIG", "type": "pubkeyhash"}, "value": 0.00181428, "n": 25}, {"scriptPubKey": {"reqSigs": 1, "hex": "76a9146dcb45d491ebce40b2d3db9877dc482e75d141d788ac", "addresses": ["1B1YAYsZhuxMR2BD1ytvnUEDgrARnwRcxh"], "asm": "OP_DUP OP_HASH160 6dcb45d491ebce40b2d3db9877dc482e75d141d7 OP_EQUALVERIFY OP_CHECKSIG", "type": "pubkeyhash"}, "value": 109.49238357, "n": 26}, {"scriptPubKey": {"reqSigs": 1, "hex": "76a9149ac2c4980a89e5e53b56db29b09432ec2cc0d1b988ac", "addresses": ["1F7JPFqzyBsEvyEoY3PYQ9ZZYT7W16xu7u"], "asm": "OP_DUP OP_HASH160 9ac2c4980a89e5e53b56db29b09432ec2cc0d1b9 OP_EQUALVERIFY OP_CHECKSIG", "type": "pubkeyhash"}, "value": 0.00184021, "n": 27}, {"scriptPubKey": {"reqSigs": 1, "hex": "76a914511f93c1bfd65311c5f7fca3d4bb301625f03f5988ac", "addresses": ["18PwZZQzUpSgQoJBeyWEQow9Tji4ZRGdTs"], "asm": "OP_DUP OP_HASH160 511f93c1bfd65311c5f7fca3d4bb301625f03f59 OP_EQUALVERIFY OP_CHECKSIG", "type": "pubkeyhash"}, "value": 0.00184104, "n": 28}, {"scriptPubKey": {"reqSigs": 1, "hex": "76a914035b0d635587868f2d34c6acf3c223bc7610cc3688ac", "addresses": ["1Jk6zzytBM4wVc77VCNXbWUnBEUhoDnv3"], "asm": "OP_DUP OP_HASH160 035b0d635587868f2d34c6acf3c223bc7610cc36 OP_EQUALVERIFY OP_CHECKSIG", "type": "pubkeyhash"}, "value": 0.00182297, "n": 29}, {"scriptPubKey": {"reqSigs": 1, "hex": "76a9148d512751cfb6f43f3a4587bc39fd60fbd47d20b688ac", "addresses": ["1DtDVhWpdDgnyjDyok7M7rvuSprif9pEDG"], "asm": "OP_DUP OP_HASH160 8d512751cfb6f43f3a4587bc39fd60fbd47d20b6 OP_EQUALVERIFY OP_CHECKSIG", "type": "pubkeyhash"}, "value": 0.00180744, "n": 30}, {"scriptPubKey": {"reqSigs": 1, "hex": "76a9143dfd1a3fc3a72c858525da13a45ac570d310a0d388ac", "addresses": ["16emRaJLri8tPoR4oDhx32ErsYhVPBNHCZ"], "asm": "OP_DUP OP_HASH160 3dfd1a3fc3a72c858525da13a45ac570d310a0d3 OP_EQUALVERIFY OP_CHECKSIG", "type": "pubkeyhash"}, "value": 0.00181423, "n": 31}, {"scriptPubKey": {"reqSigs": 1, "hex": "76a9140313a2553c0f422940495f3a96e3426d56528d6d88ac", "addresses": ["1HGYn6nxDqaYeqiAVhFA6zZTqwTh2CCt4"], "asm": "OP_DUP OP_HASH160 0313a2553c0f422940495f3a96e3426d56528d6d OP_EQUALVERIFY OP_CHECKSIG", "type": "pubkeyhash"}, "value": 0.00184241, "n": 32}, {"scriptPubKey": {"reqSigs": 1, "hex": "a91475eac4de5d05ab0bc9e5faff5571a1bfba77560287", "addresses": ["3CSWE2RCicXL5vNAAZBRv4yR5Jm1UpbfJw"], "asm": "OP_HASH160 75eac4de5d05ab0bc9e5faff5571a1bfba775602 OP_EQUAL", "type": "scripthash"}, "value": 0.00183681, "n": 33}, {"scriptPubKey": {"reqSigs": 1, "hex": "76a914532c87abea2ee9926ef4a9f30edf7f1e39954fef88ac", "addresses": ["18anRvG4djsjuETxy51uwzwsDhV9QRz9Gr"], "asm": "OP_DUP OP_HASH160 532c87abea2ee9926ef4a9f30edf7f1e39954fef OP_EQUALVERIFY OP_CHECKSIG", "type": "pubkeyhash"}, "value": 0.00179009, "n": 34}, {"scriptPubKey": {"reqSigs": 1, "hex": "76a914cd978b611b7b578773ab55f30ef9d3f8e251b85d88ac", "addresses": ["1Kk54pTbVmyj8UGSsUVnbHeoeSpvyVcXuc"], "asm": "OP_DUP OP_HASH160 cd978b611b7b578773ab55f30ef9d3f8e251b85d OP_EQUALVERIFY OP_CHECKSIG", "type": "pubkeyhash"}, "value": 0.00181041, "n": 35}, {"scriptPubKey": {"reqSigs": 1, "hex": "76a9144635c50aeb1fd4e3c8c98ef5492bef8911e0e54288ac", "addresses": ["17QEiQukUrKMq5YmaD7qBetdVefnnrWS6K"], "asm": "OP_DUP OP_HASH160 4635c50aeb1fd4e3c8c98ef5492bef8911e0e542 OP_EQUALVERIFY OP_CHECKSIG", "type": "pubkeyhash"}, "value": 0.00181834, "n": 36}, {"scriptPubKey": {"reqSigs": 1, "hex": "76a91423e76dc321d8ba4099d6885238e8d859a60fae0488ac", "addresses": ["14GqtfdqN48Anrd4SGj8LDqw7V2o3cTGF1"], "asm": "OP_DUP OP_HASH160 23e76dc321d8ba4099d6885238e8d859a60fae04 OP_EQUALVERIFY OP_CHECKSIG", "type": "pubkeyhash"}, "value": 0.00183336, "n": 37}, {"scriptPubKey": {"reqSigs": 1, "hex": "76a91409da63a439f9f948b1efc59a64ade4420fe114c888ac", "addresses": ["1u6hgCTVBPJL67YoSBjTnvJZtgpGfUjj1"], "asm": "OP_DUP OP_HASH160 09da63a439f9f948b1efc59a64ade4420fe114c8 OP_EQUALVERIFY OP_CHECKSIG", "type": "pubkeyhash"}, "value": 0.00182535, "n": 38}, {"scriptPubKey": {"reqSigs": 1, "hex": "76a914b9afd2cdba596d8f5bcaa065b1be410bef95f5c888ac", "addresses": ["1Hvpdv99z1uTVtt9KX9o7LjsKjLqr3cjuu"], "asm": "OP_DUP OP_HASH160 b9afd2cdba596d8f5bcaa065b1be410bef95f5c8 OP_EQUALVERIFY OP_CHECKSIG", "type": "pubkeyhash"}, "value": 0.00178875, "n": 39}, {"scriptPubKey": {"reqSigs": 1, "hex": "a91427dcdf8bb6a239203bdd44fa7c0a7150618fb57887", "addresses": ["35KnsZmwD8BMdbYVbv8hjEDFbHf5CMaJJz"], "asm": "OP_HASH160 27dcdf8bb6a239203bdd44fa7c0a7150618fb578 OP_EQUAL", "type": "scripthash"}, "value": 0.00184171, "n": 40}, {"scriptPubKey": {"reqSigs": 1, "hex": "76a914485f220bdae1bcbccdac0954ce371e98060cb3e088ac", "addresses": ["17bfcmYj4WHZxKfix23FbmPafVHpamngNP"], "asm": "OP_DUP OP_HASH160 485f220bdae1bcbccdac0954ce371e98060cb3e0 OP_EQUALVERIFY OP_CHECKSIG", "type": "pubkeyhash"}, "value": 0.00180433, "n": 41}, {"scriptPubKey": {"reqSigs": 1, "hex": "76a9141e7e7e344a5746031fbede9fd90eb5dddcc9970c88ac", "addresses": ["13nEoeDQ9wsHXkHVzpRDJKPumtfX181LG6"], "asm": "OP_DUP OP_HASH160 1e7e7e344a5746031fbede9fd90eb5dddcc9970c OP_EQUALVERIFY OP_CHECKSIG", "type": "pubkeyhash"}, "value": 0.00182836, "n": 42}, {"scriptPubKey": {"reqSigs": 1, "hex": "76a91446cd001799bc5fa2b71bb027f953c057695313a288ac", "addresses": ["17TMt6y1wrPZFkgbhKnxxbwgZNERMd697j"], "asm": "OP_DUP OP_HASH160 46cd001799bc5fa2b71bb027f953c057695313a2 OP_EQUALVERIFY OP_CHECKSIG", "type": "pubkeyhash"}, "value": 0.00180408, "n": 43}, {"scriptPubKey": {"reqSigs": 1, "hex": "76a9145badf6b873af4ae008e909316b2f59355472afdf88ac", "addresses": ["19MktfrkT9CEUc53LLuX7P6PKjQG5pUmgp"], "asm": "OP_DUP OP_HASH160 5badf6b873af4ae008e909316b2f59355472afdf OP_EQUALVERIFY OP_CHECKSIG", "type": "pubkeyhash"}, "value": 0.00182563, "n": 44}, {"scriptPubKey": {"reqSigs": 1, "hex": "76a914b17c94910ba85967333cefbfb62317900974407888ac", "addresses": ["1HBTqwxqfrGoTXAw3KGkecj9MyVrxy9Mkd"], "asm": "OP_DUP OP_HASH160 b17c94910ba85967333cefbfb623179009744078 OP_EQUALVERIFY OP_CHECKSIG", "type": "pubkeyhash"}, "value": 0.00179703, "n": 45}, {"scriptPubKey": {"reqSigs": 1, "hex": "a914e63572c86b73501fa4ce9817adbbaff11beba3a787", "addresses": ["3NgFNKfeJJFBdmqZQ9TqPHV2dmma5SnAGF"], "asm": "OP_HASH160 e63572c86b73501fa4ce9817adbbaff11beba3a7 OP_EQUAL", "type": "scripthash"}, "value": 0.00183649, "n": 46}, {"scriptPubKey": {"reqSigs": 1, "hex": "a9143b6d4c6b0ce6c5b9633b72defe249061dff7d46287", "addresses": ["377Ej4A7tHW6DfezQGcAbKxygaMGeV4UfM"], "asm": "OP_HASH160 3b6d4c6b0ce6c5b9633b72defe249061dff7d462 OP_EQUAL", "type": "scripthash"}, "value": 0.0018372, "n": 47}, {"scriptPubKey": {"reqSigs": 1, "hex": "a914bd10e4073ad4901eef36537e438f68eac1764a4a87", "addresses": ["3JvhsPVPphdUATKv8kJD4Z2d4fLvBRaBxQ"], "asm": "OP_HASH160 bd10e4073ad4901eef36537e438f68eac1764a4a OP_EQUAL", "type": "scripthash"}, "value": 0.00182441, "n": 48}, {"scriptPubKey": {"reqSigs": 1, "hex": "a914d6b388cd9b9dd5784bd047575ec6d2630934d10687", "addresses": ["3MGFbs2gBSQWvySH4cKs3Nxh6KeL6HtFZH"], "asm": "OP_HASH160 d6b388cd9b9dd5784bd047575ec6d2630934d106 OP_EQUAL", "type": "scripthash"}, "value": 0.00181525, "n": 49}, {"scriptPubKey": {"reqSigs": 1, "hex": "a91439671ab4a91fd1cf12897134157b8c3f6b24b43f87", "addresses": ["36vXxHsn7mvqWHAwu7Qp6tftmwujS5y2Lr"], "asm": "OP_HASH160 39671ab4a91fd1cf12897134157b8c3f6b24b43f OP_EQUAL", "type": "scripthash"}, "value": 0.00182339, "n": 50}, {"scriptPubKey": {"reqSigs": 1, "hex": "a9141b341688e0b7ed28c6d8cba607d53c4c681f81d587", "addresses": ["34ArZrzJ2Ji3EbaakHJVg6fsnp5Vkk4R31"], "asm": "OP_HASH160 1b341688e0b7ed28c6d8cba607d53c4c681f81d5 OP_EQUAL", "type": "scripthash"}, "value": 0.00183615, "n": 51}, {"scriptPubKey": {"reqSigs": 1, "hex": "76a914eafefa429fe7c0e12cbddf3d518fb2a1eca3683f88ac", "addresses": ["1NRYa3PG5QkCr3waJAmP5HaK1yT4P7kEQG"], "asm": "OP_DUP OP_HASH160 eafefa429fe7c0e12cbddf3d518fb2a1eca3683f OP_EQUALVERIFY OP_CHECKSIG", "type": "pubkeyhash"}, "value": 0.00180697, "n": 52}, {"scriptPubKey": {"reqSigs": 1, "hex": "76a914deb85bd71697ba3c59d81c0858fc500af917b90488ac", "addresses": ["1MJds4JUfPJ4mVdW95uMNSoR3iNFfksTBx"], "asm": "OP_DUP OP_HASH160 deb85bd71697ba3c59d81c0858fc500af917b904 OP_EQUALVERIFY OP_CHECKSIG", "type": "pubkeyhash"}, "value": 0.00183646, "n": 53}, {"scriptPubKey": {"reqSigs": 1, "hex": "a9144362b53aed5f0b57b80a9f7588008a1624a72e9187", "addresses": ["37qKSk5q71WHAXeUZJo9skhwZKyR5vDDRa"], "asm": "OP_HASH160 4362b53aed5f0b57b80a9f7588008a1624a72e91 OP_EQUAL", "type": "scripthash"}, "value": 0.00181004, "n": 54}, {"scriptPubKey": {"reqSigs": 1, "hex": "a914bbd2a857754f21a935eefbfd2296d0157a7da8fb87", "addresses": ["3Jp8eAKvLEzEkYNTf6qQpwnrETXx2ufLco"], "asm": "OP_HASH160 bbd2a857754f21a935eefbfd2296d0157a7da8fb OP_EQUAL", "type": "scripthash"}, "value": 0.0018309, "n": 55}, {"scriptPubKey": {"reqSigs": 1, "hex": "76a914700edcc03af431bd51e9d06d5e1a643357f6dd0088ac", "addresses": ["1BDWV8uTjBB6LWpE1Jx9oPxoB5WHSpmdQG"], "asm": "OP_DUP OP_HASH160 700edcc03af431bd51e9d06d5e1a643357f6dd00 OP_EQUALVERIFY OP_CHECKSIG", "type": "pubkeyhash"}, "value": 0.00182968, "n": 56}, {"scriptPubKey": {"reqSigs": 1, "hex": "76a914bea6fe39fad5d07c6331294ef49aa0fd89462ab488ac", "addresses": ["1JP5SL8cQJtWoePZrMnU7Q1xPiRWt4FArT"], "asm": "OP_DUP OP_HASH160 bea6fe39fad5d07c6331294ef49aa0fd89462ab4 OP_EQUALVERIFY OP_CHECKSIG", "type": "pubkeyhash"}, "value": 0.00184361, "n": 57}, {"scriptPubKey": {"reqSigs": 1, "hex": "76a914f735e48ed4edf1245e43c2e1aef913858917c98888ac", "addresses": ["1PY8TvMFQtVSoRAQ4c1j8qzSCiMqAnvNm2"], "asm": "OP_DUP OP_HASH160 f735e48ed4edf1245e43c2e1aef913858917c988 OP_EQUALVERIFY OP_CHECKSIG", "type": "pubkeyhash"}, "value": 0.00183916, "n": 58}, {"scriptPubKey": {"reqSigs": 1, "hex": "76a9146fbb8333538cda66d9faa9f4e2d3e65ddda3f7ae88ac", "addresses": ["1BBndtdh4QE87pJjMqLhTJqdLeHGWKvm8V"], "asm": "OP_DUP OP_HASH160 6fbb8333538cda66d9faa9f4e2d3e65ddda3f7ae OP_EQUALVERIFY OP_CHECKSIG", "type": "pubkeyhash"}, "value": 0.00183989, "n": 59}, {"scriptPubKey": {"reqSigs": 1, "hex": "76a914ba13b234d3fe4fa4f447f4515b5f7c706dadaeae88ac", "addresses": ["1HxtHC4kR3dJNesgzd43hXC7NW2A7aZMDz"], "asm": "OP_DUP OP_HASH160 ba13b234d3fe4fa4f447f4515b5f7c706dadaeae OP_EQUALVERIFY OP_CHECKSIG", "type": "pubkeyhash"}, "value": 0.00180619, "n": 60}, {"scriptPubKey": {"reqSigs": 1, "hex": "a914a3e20b382b04685c959090cb116dc3c6bdfad06487", "addresses": ["3GdYrcUbywmnx3iKXqZ7aH7q2SGSNujh8b"], "asm": "OP_HASH160 a3e20b382b04685c959090cb116dc3c6bdfad064 OP_EQUAL", "type": "scripthash"}, "value": 0.00183755, "n": 61}, {"scriptPubKey": {"reqSigs": 1, "hex": "76a9149c4d8a921e560d61e4ed0183299fd88764938c9688ac", "addresses": ["1FFTJbAJWvaUnCTiNPSvAdAGncV7Cj84FP"], "asm": "OP_DUP OP_HASH160 9c4d8a921e560d61e4ed0183299fd88764938c96 OP_EQUALVERIFY OP_CHECKSIG", "type": "pubkeyhash"}, "value": 0.00183826, "n": 62}, {"scriptPubKey": {"reqSigs": 1, "hex": "76a914730308d7d782d6509db3a43a5a39d9db5f33925388ac", "addresses": ["1BV8LuSz66WDtt831GzTGheMiz2f31Butk"], "asm": "OP_DUP OP_HASH160 730308d7d782d6509db3a43a5a39d9db5f339253 OP_EQUALVERIFY OP_CHECKSIG", "type": "pubkeyhash"}, "value": 0.00182656, "n": 63}, {"scriptPubKey": {"reqSigs": 1, "hex": "76a914e371a02ba026bbdc254ac81d62e2f0b5011374e388ac", "addresses": ["1MjcWPvKuL43RcPi9NxApTXAZFwAusMY5U"], "asm": "OP_DUP OP_HASH160 e371a02ba026bbdc254ac81d62e2f0b5011374e3 OP_EQUALVERIFY OP_CHECKSIG", "type": "pubkeyhash"}, "value": 0.00179917, "n": 64}, {"scriptPubKey": {"reqSigs": 1, "hex": "a9140c5817d99d2449200f731599e4c87bb7d338cdab87", "addresses": ["32pHZfawRSqSU4tWxLpTZ2Dyi3o5Yn6KjY"], "asm": "OP_HASH160 0c5817d99d2449200f731599e4c87bb7d338cdab OP_EQUAL", "type": "scripthash"}, "value": 0.00183396, "n": 65}, {"scriptPubKey": {"reqSigs": 1, "hex": "76a91417bfb15af0f5c5422e9bd923793cf64aa798530988ac", "addresses": ["13AaBTjXmFrDqV5gDbpH3o6Era5jDcbNpJ"], "asm": "OP_DUP OP_HASH160 17bfb15af0f5c5422e9bd923793cf64aa7985309 OP_EQUALVERIFY OP_CHECKSIG", "type": "pubkeyhash"}, "value": 0.0017988, "n": 66}, {"scriptPubKey": {"reqSigs": 1, "hex": "76a9148af2e54560b88843b17ab5813f2706df2a988ce588ac", "addresses": ["1DfhE9wE4NCdaXL1kahCK8Jni8Qs7YCNmV"], "asm": "OP_DUP OP_HASH160 8af2e54560b88843b17ab5813f2706df2a988ce5 OP_EQUALVERIFY OP_CHECKSIG", "type": "pubkeyhash"}, "value": 0.00178852, "n": 67}, {"scriptPubKey": {"reqSigs": 1, "hex": "a914bcdf0afdf381f09bdff78d4fb7e96c46138044bc87", "addresses": ["3Jug9uKTYBxYFvH9jGiSMc2bm3m5qxFXyg"], "asm": "OP_HASH160 bcdf0afdf381f09bdff78d4fb7e96c46138044bc OP_EQUAL", "type": "scripthash"}, "value": 0.00183566, "n": 68}, {"scriptPubKey": {"reqSigs": 1, "hex": "76a9140ab61e5b7a24ae8f0737da2ab4cb5e8d7fde72d388ac", "addresses": ["1ydvjt3Kh4fDXo2RVSAaaLiUxryvvuhJV"], "asm": "OP_DUP OP_HASH160 0ab61e5b7a24ae8f0737da2ab4cb5e8d7fde72d3 OP_EQUALVERIFY OP_CHECKSIG", "type": "pubkeyhash"}, "value": 0.00179943, "n": 69}, {"scriptPubKey": {"reqSigs": 1, "hex": "a91486ba025b0fd0afb1f58a8f6fd326669916b6c30087", "addresses": ["3DyPJPru655YW3KZGM2ivypgrkyYfkmFH8"], "asm": "OP_HASH160 86ba025b0fd0afb1f58a8f6fd326669916b6c300 OP_EQUAL", "type": "scripthash"}, "value": 0.00181839, "n": 70}, {"scriptPubKey": {"reqSigs": 1, "hex": "76a91497ab5f782960ae99b3300d32b299e727b4b87f2c88ac", "addresses": ["1EpxLAdrSunWHv8hoa6vowYFGmBJuyW28g"], "asm": "OP_DUP OP_HASH160 97ab5f782960ae99b3300d32b299e727b4b87f2c OP_EQUALVERIFY OP_CHECKSIG", "type": "pubkeyhash"}, "value": 0.00182191, "n": 71}, {"scriptPubKey": {"reqSigs": 1, "hex": "76a914c6f4807cabf9d4c79cadd43415bb9415bc3b37c388ac", "addresses": ["1K8yhGoRtL3jKK8r9J7V1JdFqPTUdqpH1w"], "asm": "OP_DUP OP_HASH160 c6f4807cabf9d4c79cadd43415bb9415bc3b37c3 OP_EQUALVERIFY OP_CHECKSIG", "type": "pubkeyhash"}, "value": 0.0018132, "n": 72}, {"scriptPubKey": {"reqSigs": 1, "hex": "76a914de612d56ce1d8847253a940821560fd4cb8f681488ac", "addresses": ["1MGqRa4bRocGquNCoL58vwGVu9CD5UhW7a"], "asm": "OP_DUP OP_HASH160 de612d56ce1d8847253a940821560fd4cb8f6814 OP_EQUALVERIFY OP_CHECKSIG", "type": "pubkeyhash"}, "value": 0.00180888, "n": 73}, {"scriptPubKey": {"reqSigs": 1, "hex": "76a91446e88b1f093b41aac69e2318391e21f7a90478a188ac", "addresses": ["17Tvsq8KBNGe468YyXwjQuxujWBpgmHDF3"], "asm": "OP_DUP OP_HASH160 46e88b1f093b41aac69e2318391e21f7a90478a1 OP_EQUALVERIFY OP_CHECKSIG", "type": "pubkeyhash"}, "value": 0.00182292, "n": 74}, {"scriptPubKey": {"reqSigs": 1, "hex": "76a91417d0e65f55a55559419e1e41896ac2efca77b61188ac", "addresses": ["13Avo2oWcirqGycyDKoRWhSwWrcQRHpsJB"], "asm": "OP_DUP OP_HASH160 17d0e65f55a55559419e1e41896ac2efca77b611 OP_EQUALVERIFY OP_CHECKSIG", "type": "pubkeyhash"}, "value": 0.00182962, "n": 75}, {"scriptPubKey": {"reqSigs": 1, "hex": "76a9143d9f1c4bfdf8df06d4ddb2f6c63ad53c6daa4feb88ac", "addresses": ["16cpptw9Z2aN6ovZMGzeLUxCSeKJYvxip1"], "asm": "OP_DUP OP_HASH160 3d9f1c4bfdf8df06d4ddb2f6c63ad53c6daa4feb OP_EQUALVERIFY OP_CHECKSIG", "type": "pubkeyhash"}, "value": 0.00182207, "n": 76}, {"scriptPubKey": {"reqSigs": 1, "hex": "76a914e45e803523aefb731f3537ced55935ba8e15188888ac", "addresses": ["1MpWGmbBr4Ydr9iwC9dfuqtdQFUX5vJ5aA"], "asm": "OP_DUP OP_HASH160 e45e803523aefb731f3537ced55935ba8e151888 OP_EQUALVERIFY OP_CHECKSIG", "type": "pubkeyhash"}, "value": 0.00183377, "n": 77}, {"scriptPubKey": {"reqSigs": 1, "hex": "76a9141f447be3569e9d926a8fb9b8c9b632f1f49f082b88ac", "addresses": ["13rKzJ4XNkSv2MNoH319tCKVVqbNvfxBjX"], "asm": "OP_DUP OP_HASH160 1f447be3569e9d926a8fb9b8c9b632f1f49f082b OP_EQUALVERIFY OP_CHECKSIG", "type": "pubkeyhash"}, "value": 0.00179796, "n": 78}, {"scriptPubKey": {"reqSigs": 1, "hex": "76a914a808382802254ad51b58ba27afd5bf6c17d7365988ac", "addresses": ["1GKUNKV4xGs1pm9S5T434n2z8mQJJvxYSj"], "asm": "OP_DUP OP_HASH160 a808382802254ad51b58ba27afd5bf6c17d73659 OP_EQUALVERIFY OP_CHECKSIG", "type": "pubkeyhash"}, "value": 0.00180741, "n": 79}, {"scriptPubKey": {"reqSigs": 1, "hex": "76a914d95a864b95a655ac2c3c4e2e46ae80e53226365488ac", "addresses": ["1LpG5PPdnrG6CzYgrQmG8xEnJCBMMi4nkZ"], "asm": "OP_DUP OP_HASH160 d95a864b95a655ac2c3c4e2e46ae80e532263654 OP_EQUALVERIFY OP_CHECKSIG", "type": "pubkeyhash"}, "value": 0.00181423, "n": 80}, {"scriptPubKey": {"reqSigs": 1, "hex": "76a914babe8803b65b8bf1ff0dbe4427740ee5a6a8ae0888ac", "addresses": ["1J2Qw2cGzSkjGBnsqVM4tRGXib3YipZe6f"], "asm": "OP_DUP OP_HASH160 babe8803b65b8bf1ff0dbe4427740ee5a6a8ae08 OP_EQUALVERIFY OP_CHECKSIG", "type": "pubkeyhash"}, "value": 0.00181334, "n": 81}, {"scriptPubKey": {"reqSigs": 1, "hex": "76a914dcee0c22402da23a7d07a99e0ae9efa66cb78a9388ac", "addresses": ["1M9Aq2Vw3tmv5oSpbAPnuD3sb85zJDGscP"], "asm": "OP_DUP OP_HASH160 dcee0c22402da23a7d07a99e0ae9efa66cb78a93 OP_EQUALVERIFY OP_CHECKSIG", "type": "pubkeyhash"}, "value": 0.00182814, "n": 82}, {"scriptPubKey": {"reqSigs": 1, "hex": "a914327bf59adf5a01adc2d634787f49279d40ef5e5787", "addresses": ["36HxCz5mTmzsHWrMtRUkGn6FaYG9tmjeCQ"], "asm": "OP_HASH160 327bf59adf5a01adc2d634787f49279d40ef5e57 OP_EQUAL", "type": "scripthash"}, "value": 0.00183246, "n": 83}, {"scriptPubKey": {"reqSigs": 1, "hex": "76a914e2585c99932fc27448356e52358028a657d18d0488ac", "addresses": ["1MdoZqLtiwDDZUAjVkzpr4hMPAZBVKdUNe"], "asm": "OP_DUP OP_HASH160 e2585c99932fc27448356e52358028a657d18d04 OP_EQUALVERIFY OP_CHECKSIG", "type": "pubkeyhash"}, "value": 0.00182047, "n": 84}, {"scriptPubKey": {"reqSigs": 1, "hex": "a914069e33da8cecf4a0c81ef96f367e766a8c9af14887", "addresses": ["32J1VoQMa2kDKfcUMUmvNbDmJaK52SXj87"], "asm": "OP_HASH160 069e33da8cecf4a0c81ef96f367e766a8c9af148 OP_EQUAL", "type": "scripthash"}, "value": 0.00179822, "n": 85}, {"scriptPubKey": {"reqSigs": 1, "hex": "76a914117526046971400a22b7910d329403d12db115b488ac", "addresses": ["12bJpt9oxtPiBpCgUedF2qX1z5whxFcGC3"], "asm": "OP_DUP OP_HASH160 117526046971400a22b7910d329403d12db115b4 OP_EQUALVERIFY OP_CHECKSIG", "type": "pubkeyhash"}, "value": 0.00184152, "n": 86}, {"scriptPubKey": {"reqSigs": 1, "hex": "76a91480969c15897954bb7fd00e7a4f177970d3f5911988ac", "addresses": ["1Ciuv6oFwFQ73BfNJRYgZcs94WSvQzUM2h"], "asm": "OP_DUP OP_HASH160 80969c15897954bb7fd00e7a4f177970d3f59119 OP_EQUALVERIFY OP_CHECKSIG", "type": "pubkeyhash"}, "value": 0.00180721, "n": 87}, {"scriptPubKey": {"reqSigs": 1, "hex": "a914a3135beba7dedf2cd34f27a8b38e537d810edc3687", "addresses": ["3GZHFuMdHNy8xQYqH7jYzBjgTFihCsVgcb"], "asm": "OP_HASH160 a3135beba7dedf2cd34f27a8b38e537d810edc36 OP_EQUAL", "type": "scripthash"}, "value": 0.00182826, "n": 88}, {"scriptPubKey": {"reqSigs": 1, "hex": "76a9142465b21292db3e57e4bf8785ffd473e95d5af6de88ac", "addresses": ["14KT9qhzprUhUEPmzChKHVfT5UwXRvcaMW"], "asm": "OP_DUP OP_HASH160 2465b21292db3e57e4bf8785ffd473e95d5af6de OP_EQUALVERIFY OP_CHECKSIG", "type": "pubkeyhash"}, "value": 0.00180161, "n": 89}, {"scriptPubKey": {"reqSigs": 1, "hex": "76a91492d98586d7db7372f803a731ceb980239d98b1d588ac", "addresses": ["1EPUEfzFXqoXdMk2tyNfdTZgF4vKejsxJy"], "asm": "OP_DUP OP_HASH160 92d98586d7db7372f803a731ceb980239d98b1d5 OP_EQUALVERIFY OP_CHECKSIG", "type": "pubkeyhash"}, "value": 0.00183954, "n": 90}, {"scriptPubKey": {"reqSigs": 1, "hex": "a914da642e2984140e03515a44cff6ba67230bfc161e87", "addresses": ["3MbmF1jii7vZ2wDtuPv9kiiNsSJaGFAo2Z"], "asm": "OP_HASH160 da642e2984140e03515a44cff6ba67230bfc161e OP_EQUAL", "type": "scripthash"}, "value": 0.00182626, "n": 91}, {"scriptPubKey": {"reqSigs": 1, "hex": "76a91441c452a0809135b0c918c6158ba2841669dafad688ac", "addresses": ["16zk7DPWs2mkfXvxXmRgmJ116p5TVtwziD"], "asm": "OP_DUP OP_HASH160 41c452a0809135b0c918c6158ba2841669dafad6 OP_EQUALVERIFY OP_CHECKSIG", "type": "pubkeyhash"}, "value": 0.00179819, "n": 92}, {"scriptPubKey": {"reqSigs": 1, "hex": "76a91491f56cc79d40e365860b2a7221a58404f67dc3a088ac", "addresses": ["1EJkzEoAkLPoKFAJfR6SdeNwzzemshKLtN"], "asm": "OP_DUP OP_HASH160 91f56cc79d40e365860b2a7221a58404f67dc3a0 OP_EQUALVERIFY OP_CHECKSIG", "type": "pubkeyhash"}, "value": 0.0018432, "n": 93}, {"scriptPubKey": {"reqSigs": 1, "hex": "a9142097f6012f40391ddca85da51f9846fc8ab8814c87", "addresses": ["34fMb7bqrUuXcXS3ufFwfkzFi2KGNoZp8P"], "asm": "OP_HASH160 2097f6012f40391ddca85da51f9846fc8ab8814c OP_EQUAL", "type": "scripthash"}, "value": 0.00183551, "n": 94}, {"scriptPubKey": {"reqSigs": 1, "hex": "76a9144a9f5fca6488ff80d30fb3a803d4cf47e188977288ac", "addresses": ["17oZvi3sPmwTBD7tioxh3NmyEbMTvKUFym"], "asm": "OP_DUP OP_HASH160 4a9f5fca6488ff80d30fb3a803d4cf47e1889772 OP_EQUALVERIFY OP_CHECKSIG", "type": "pubkeyhash"}, "value": 0.0018435, "n": 95}, {"scriptPubKey": {"reqSigs": 1, "hex": "76a9147e9ffb3729ee2eaf886193a73a0b9b178d5bbfd688ac", "addresses": ["1CYXnsHScFrW4M5gWBeGFNJue63PveKj6Z"], "asm": "OP_DUP OP_HASH160 7e9ffb3729ee2eaf886193a73a0b9b178d5bbfd6 OP_EQUALVERIFY OP_CHECKSIG", "type": "pubkeyhash"}, "value": 0.0018321, "n": 96}, {"scriptPubKey": {"reqSigs": 1, "hex": "76a914226a4b1e8bab94f18b9fc92c4f31f97172a2ea5488ac", "addresses": ["148yJvLQVqVj29bPvEG8q29YWT5VcPtJik"], "asm": "OP_DUP OP_HASH160 226a4b1e8bab94f18b9fc92c4f31f97172a2ea54 OP_EQUALVERIFY OP_CHECKSIG", "type": "pubkeyhash"}, "value": 0.00182309, "n": 97}, {"scriptPubKey": {"reqSigs": 1, "hex": "76a914001a6bef708c8598c4e2ce4be293e88af76d63a488ac", "addresses": ["11Yeon5CJvBZWEF5AFX2CVQVrJ8Tc9snG"], "asm": "OP_DUP OP_HASH160 001a6bef708c8598c4e2ce4be293e88af76d63a4 OP_EQUALVERIFY OP_CHECKSIG", "type": "pubkeyhash"}, "value": 0.00182298, "n": 98}, {"scriptPubKey": {"reqSigs": 1, "hex": "76a914f22aa2d08f1cb433254befb5618e6862c889d25d88ac", "addresses": ["1P5TbpnKuoPzaMtWoYFz5U5wL7cL6C7vsJ"], "asm": "OP_DUP OP_HASH160 f22aa2d08f1cb433254befb5618e6862c889d25d OP_EQUALVERIFY OP_CHECKSIG", "type": "pubkeyhash"}, "value": 0.00184329, "n": 99}, {"scriptPubKey": {"reqSigs": 1, "hex": "a91483f97dc54bb7b96648b676c06e2ca107842df7ec87", "addresses": ["3DiqKddcpGMHBvYiSjd7fViHtKKUoHhCk9"], "asm": "OP_HASH160 83f97dc54bb7b96648b676c06e2ca107842df7ec OP_EQUAL", "type": "scripthash"}, "value": 0.0018315, "n": 100}], "hex": "02000000019e5eeedc749202de5a0e1e4755e1a9f19af1e6a552637ea3004d804ded71ebd65a0000006a47304402200a4533fa793434a56b2ecc860417a280455fcc05c7cc12afad2b5be1f489635b02206c7a2150ec6162963dbb4e439ce734e60f52d3bc73c1a707b34287fe5d8be5990121030072e9274c61f96c48a8a63c0ed29d44b8ea7c9045b29cbd32527d20980a2010feffffff65c3c70200000000001976a9144ca5f8ebec3c6e5fa1225a3f829f2d107b92349188ac56c802000000000017a91403831345452bdee3cc3089c1deae4899cc12e5e287e2bf02000000000017a9142ca6c50d939a0d9e84374a0d7b5713d67a5c13cf87dacd0200000000001976a914532f6f57c8490c816953bed6f08db0e5fe5bdd1c88acb0c40200000000001976a914e314d7d5dab2761fa349eb3612134e500da727f788ac9cbc02000000000017a914eb64f0fdcafaa36b8f79829e89bc47f1ee21efdd8711c20200000000001976a9149a0f2506b989590301c7286271a38b6b4c636bde88ac96cd02000000000017a914878d39c7359fc2fbd68470ec37e2986485f72b4e8714cd0200000000001976a91411625dc96004de9f418815cf108a131b4555f64688ac5bcc02000000000017a914bc5c9dcc70e23731f178fbfe47df3d07f771410a8791c80200000000001976a914fbde2a8e044b55c8a357192d951a0fb6b71709d688ac4acd0200000000001976a914fe508ebc0ebd064adc40011e066d574507d0d26588acb1c60200000000001976a914c4b4c3be6a1eec217c0e90e9c27698ddd1da715388acfeba0200000000001976a91496ed0dbfe25cc1834b47b4d6d8c477eb18369eb888ac00bc02000000000017a9142652f1f3d60ee7fec5997234f4a7248680de85048702c60200000000001976a914ab53d2d16648cb3529cb9d9c07ee97d919e4c8c188acd4cb02000000000017a91401a6fd3fc82c04d986f127305c0efb039deb684e87c1bd0200000000001976a9148239a0d27484cfd15ef99b6c296815761bbd632288acb8cb02000000000017a914fb673b978464dce5ca7a13fb00169663c960c13287ccbf0200000000001976a91492a8044013afc2e98db3068ab1dac6b9cda5ba7588ac94cd02000000000017a9144d8271f2ffd2c1af1fae6e021b54b5c1bd0b3545878acd0200000000001976a9141addd1d3c409350b5c8f01c77089617e9d55078d88acc0ce02000000000017a914379ed683ba5d1959dd0ff58b690135831f07adea87fec20200000000001976a914bbd066a03e8d47a0aa8013c103c29a2b2caaf41d88ac71c10200000000001976a9144d2cd22d22888722a2f2e9670703c0cf61e7b0d288acb4c40200000000001976a914e85e2297016adbf0fe29feee423a12b6dbcc228a88ac551ea08c020000001976a9146dcb45d491ebce40b2d3db9877dc482e75d141d788acd5ce0200000000001976a9149ac2c4980a89e5e53b56db29b09432ec2cc0d1b988ac28cf0200000000001976a914511f93c1bfd65311c5f7fca3d4bb301625f03f5988ac19c80200000000001976a914035b0d635587868f2d34c6acf3c223bc7610cc3688ac08c20200000000001976a9148d512751cfb6f43f3a4587bc39fd60fbd47d20b688acafc40200000000001976a9143dfd1a3fc3a72c858525da13a45ac570d310a0d388acb1cf0200000000001976a9140313a2553c0f422940495f3a96e3426d56528d6d88ac81cd02000000000017a91475eac4de5d05ab0bc9e5faff5571a1bfba7756028741bb0200000000001976a914532c87abea2ee9926ef4a9f30edf7f1e39954fef88ac31c30200000000001976a914cd978b611b7b578773ab55f30ef9d3f8e251b85d88ac4ac60200000000001976a9144635c50aeb1fd4e3c8c98ef5492bef8911e0e54288ac28cc0200000000001976a91423e76dc321d8ba4099d6885238e8d859a60fae0488ac07c90200000000001976a91409da63a439f9f948b1efc59a64ade4420fe114c888acbbba0200000000001976a914b9afd2cdba596d8f5bcaa065b1be410bef95f5c888ac6bcf02000000000017a91427dcdf8bb6a239203bdd44fa7c0a7150618fb57887d1c00200000000001976a914485f220bdae1bcbccdac0954ce371e98060cb3e088ac34ca0200000000001976a9141e7e7e344a5746031fbede9fd90eb5dddcc9970c88acb8c00200000000001976a91446cd001799bc5fa2b71bb027f953c057695313a288ac23c90200000000001976a9145badf6b873af4ae008e909316b2f59355472afdf88acf7bd0200000000001976a914b17c94910ba85967333cefbfb62317900974407888ac61cd02000000000017a914e63572c86b73501fa4ce9817adbbaff11beba3a787a8cd02000000000017a9143b6d4c6b0ce6c5b9633b72defe249061dff7d46287a9c802000000000017a914bd10e4073ad4901eef36537e438f68eac1764a4a8715c502000000000017a914d6b388cd9b9dd5784bd047575ec6d2630934d1068743c802000000000017a91439671ab4a91fd1cf12897134157b8c3f6b24b43f873fcd02000000000017a9141b341688e0b7ed28c6d8cba607d53c4c681f81d587d9c10200000000001976a914eafefa429fe7c0e12cbddf3d518fb2a1eca3683f88ac5ecd0200000000001976a914deb85bd71697ba3c59d81c0858fc500af917b90488ac0cc302000000000017a9144362b53aed5f0b57b80a9f7588008a1624a72e918732cb02000000000017a914bbd2a857754f21a935eefbfd2296d0157a7da8fb87b8ca0200000000001976a914700edcc03af431bd51e9d06d5e1a643357f6dd0088ac29d00200000000001976a914bea6fe39fad5d07c6331294ef49aa0fd89462ab488ac6cce0200000000001976a914f735e48ed4edf1245e43c2e1aef913858917c98888acb5ce0200000000001976a9146fbb8333538cda66d9faa9f4e2d3e65ddda3f7ae88ac8bc10200000000001976a914ba13b234d3fe4fa4f447f4515b5f7c706dadaeae88accbcd02000000000017a914a3e20b382b04685c959090cb116dc3c6bdfad0648712ce0200000000001976a9149c4d8a921e560d61e4ed0183299fd88764938c9688ac80c90200000000001976a914730308d7d782d6509db3a43a5a39d9db5f33925388accdbe0200000000001976a914e371a02ba026bbdc254ac81d62e2f0b5011374e388ac64cc02000000000017a9140c5817d99d2449200f731599e4c87bb7d338cdab87a8be0200000000001976a91417bfb15af0f5c5422e9bd923793cf64aa798530988aca4ba0200000000001976a9148af2e54560b88843b17ab5813f2706df2a988ce588ac0ecd02000000000017a914bcdf0afdf381f09bdff78d4fb7e96c46138044bc87e7be0200000000001976a9140ab61e5b7a24ae8f0737da2ab4cb5e8d7fde72d388ac4fc602000000000017a91486ba025b0fd0afb1f58a8f6fd326669916b6c30087afc70200000000001976a91497ab5f782960ae99b3300d32b299e727b4b87f2c88ac48c40200000000001976a914c6f4807cabf9d4c79cadd43415bb9415bc3b37c388ac98c20200000000001976a914de612d56ce1d8847253a940821560fd4cb8f681488ac14c80200000000001976a91446e88b1f093b41aac69e2318391e21f7a90478a188acb2ca0200000000001976a91417d0e65f55a55559419e1e41896ac2efca77b61188acbfc70200000000001976a9143d9f1c4bfdf8df06d4ddb2f6c63ad53c6daa4feb88ac51cc0200000000001976a914e45e803523aefb731f3537ced55935ba8e15188888ac54be0200000000001976a9141f447be3569e9d926a8fb9b8c9b632f1f49f082b88ac05c20200000000001976a914a808382802254ad51b58ba27afd5bf6c17d7365988acafc40200000000001976a914d95a864b95a655ac2c3c4e2e46ae80e53226365488ac56c40200000000001976a914babe8803b65b8bf1ff0dbe4427740ee5a6a8ae0888ac1eca0200000000001976a914dcee0c22402da23a7d07a99e0ae9efa66cb78a9388accecb02000000000017a914327bf59adf5a01adc2d634787f49279d40ef5e57871fc70200000000001976a914e2585c99932fc27448356e52358028a657d18d0488ac6ebe02000000000017a914069e33da8cecf4a0c81ef96f367e766a8c9af1488758cf0200000000001976a914117526046971400a22b7910d329403d12db115b488acf1c10200000000001976a91480969c15897954bb7fd00e7a4f177970d3f5911988ac2aca02000000000017a914a3135beba7dedf2cd34f27a8b38e537d810edc3687c1bf0200000000001976a9142465b21292db3e57e4bf8785ffd473e95d5af6de88ac92ce0200000000001976a91492d98586d7db7372f803a731ceb980239d98b1d588ac62c902000000000017a914da642e2984140e03515a44cff6ba67230bfc161e876bbe0200000000001976a91441c452a0809135b0c918c6158ba2841669dafad688ac00d00200000000001976a91491f56cc79d40e365860b2a7221a58404f67dc3a088acffcc02000000000017a9142097f6012f40391ddca85da51f9846fc8ab8814c871ed00200000000001976a9144a9f5fca6488ff80d30fb3a803d4cf47e188977288acaacb0200000000001976a9147e9ffb3729ee2eaf886193a73a0b9b178d5bbfd688ac25c80200000000001976a914226a4b1e8bab94f18b9fc92c4f31f97172a2ea5488ac1ac80200000000001976a914001a6bef708c8598c4e2ce4be293e88af76d63a488ac09d00200000000001976a914f22aa2d08f1cb433254befb5618e6862c889d25d88ac6ecb02000000000017a91483f97dc54bb7b96648b676c06e2ca107842df7ec8711490800", "vin": [{"sequence": 4294967294, "scriptSig": {"hex": "47304402200a4533fa793434a56b2ecc860417a280455fcc05c7cc12afad2b5be1f489635b02206c7a2150ec6162963dbb4e439ce734e60f52d3bc73c1a707b34287fe5d8be5990121030072e9274c61f96c48a8a63c0ed29d44b8ea7c9045b29cbd32527d20980a2010", "asm": "304402200a4533fa793434a56b2ecc860417a280455fcc05c7cc12afad2b5be1f489635b02206c7a2150ec6162963dbb4e439ce734e60f52d3bc73c1a707b34287fe5d8be599[ALL] 030072e9274c61f96c48a8a63c0ed29d44b8ea7c9045b29cbd32527d20980a2010"}, "vout": 90, "txid": "d6eb71ed4d804d00a37e6352a5e6f19af1a9e155471e0e5ade029274dcee5e9e"}], "txid": "e129d30ce9611b20b69c1ab3872cbd74056c32e4ebfb705ebab098fa4fd343b4", "blocktime": 1537872018, "version": 2, "confirmations": 11489, "time": 1537872018, "locktime": 542993, "vsize": 3531, "size": 3531}