{"hash": "677ad1b4413aa1c1047547d17e84e4c0b83a302d005b5b58e32c12bf0697359a", "blockhash": "0000000000000000000e13cef7c366c0283d82e591d1acd082e914b08063cdf1", "vout": [{"scriptPubKey": {"reqSigs": 1, "hex": "76a914b55649c194881389dbf1b54b81a544272554d14d88ac", "addresses": ["1HXpg8D9AMGFVZ9FEU2tkZYvAZ8xBhVudo"], "asm": "OP_DUP OP_HASH160 b55649c194881389dbf1b54b81a544272554d14d OP_EQUALVERIFY OP_CHECKSIG", "type": "pubkeyhash"}, "value": 0.0026726, "n": 0}, {"scriptPubKey": {"reqSigs": 1, "hex": "a91450e9246421e857592e6dc211e8a2f8d947b5afd087", "addresses": ["394qGtdSLbRbQmMJgHFTGNY9befZvuVNch"], "asm": "OP_HASH160 50e9246421e857592e6dc211e8a2f8d947b5afd0 OP_EQUAL", "type": "scripthash"}, "value": 0.01004577, "n": 1}], "hex": "02000000000102365d53356305f558c9d7b3c4d9a22e253cdc03ee05848938fa615dea7131ab271d000000171600147fb8b0b327ae267d4de189402236db8f5400cc8cfeffffffd9ca22b1e058842a4d11730b97be16fdd12336bfb6dff7330cb9e7cf77d3c5e700000000171600148dd4b52b20338c33324a88f6d4ebcf82216db7bbfeffffff02fc130400000000001976a914b55649c194881389dbf1b54b81a544272554d14d88ac21540f000000000017a91450e9246421e857592e6dc211e8a2f8d947b5afd08702483045022100875c2296a8f3cc920e70b65b21d001ca5dd8a44acacdf8051fee16bfba64f92902202d0864bacc2ae48fc4a1fb3ecd2c532d3ee888cb09d814e3507d328c8f2468490121030c682c2bf5cfac2fe29f81130aa648e9c482a95c894535ec7f38d8a954bdf9e002473044022034d46d126e93dad479aa37297bf752ffd921136fe9efc581b7a70ef7bacbfca5022002cfb9fb8f56398b1183afe532c6de77f1a05ac48153c367ee31b7cf2cfe0d830121036bb1fcfbfac21d2f4fa7733d0a6561b45956a5ee413e54dcf35f81a06dac2bf8b9480800", "vin": [{"txinwitness": ["3045022100875c2296a8f3cc920e70b65b21d001ca5dd8a44acacdf8051fee16bfba64f92902202d0864bacc2ae48fc4a1fb3ecd2c532d3ee888cb09d814e3507d328c8f24684901", "030c682c2bf5cfac2fe29f81130aa648e9c482a95c894535ec7f38d8a954bdf9e0"], "sequence": 4294967294, "scriptSig": {"hex": "1600147fb8b0b327ae267d4de189402236db8f5400cc8c", "asm": "00147fb8b0b327ae267d4de189402236db8f5400cc8c"}, "vout": 29, "txid": "27ab3171ea5d61fa38898405ee03dc3c252ea2d9c4b3d7c958f5056335535d36"}, {"txinwitness": ["3044022034d46d126e93dad479aa37297bf752ffd921136fe9efc581b7a70ef7bacbfca5022002cfb9fb8f56398b1183afe532c6de77f1a05ac48153c367ee31b7cf2cfe0d8301", "036bb1fcfbfac21d2f4fa7733d0a6561b45956a5ee413e54dcf35f81a06dac2bf8"], "sequence": 4294967294, "scriptSig": {"hex": "1600148dd4b52b20338c33324a88f6d4ebcf82216db7bb", "asm": "00148dd4b52b20338c33324a88f6d4ebcf82216db7bb"}, "vout": 0, "txid": "e7c5d377cfe7b90c33f7dfb6bf3623d1fd16be970b73114d2a8458e0b122cad9"}], "txid": "e12ffbf93ec419779ffc4f7a77320e67ab0631a47472a780bfe0213124a0741a", "blocktime": 1537871767, "version": 2, "confirmations": 11495, "time": 1537871767, "locktime": 542905, "vsize": 259, "size": 421}