{"hash": "e1312c83a751e127f58bc5fe0d6a8e4aa6ae2f09b429c5485610094520a7ebfe", "blockhash": "000000000000000000205f8b0775d31398ef75b89a5e8ec8d2c57b4dc0ac4c20", "vout": [{"scriptPubKey": {"reqSigs": 1, "hex": "76a914b5dd1d0948a174eb08d85ca21590290b3e0264e488ac", "addresses": ["1HacBxB4F43uEEpy78UNYedZScdM17LfRL"], "asm": "OP_DUP OP_HASH160 b5dd1d0948a174eb08d85ca21590290b3e0264e4 OP_EQUALVERIFY OP_CHECKSIG", "type": "pubkeyhash"}, "value": 3.21179656, "n": 0}, {"scriptPubKey": {"reqSigs": 1, "hex": "76a914cd121cc9033381d5f614b8a9cd72890aa66a1d9288ac", "addresses": ["1KhKDoPUHfp84yMteZJAZLgHDG38RfEexE"], "asm": "OP_DUP OP_HASH160 cd121cc9033381d5f614b8a9cd72890aa66a1d92 OP_EQUALVERIFY OP_CHECKSIG", "type": "pubkeyhash"}, "value": 7.34, "n": 1}], "hex": "0100000002e29c2a211735290439df4b5da1a9c9cfbcc81a196ec2568b7140a53af7c04c2a0f0000006a47304402201a675a61f3b2a4f2ac2debda1161e0a3addc3af5a441f27dce03bb0d674f912b02203a22be63ada5b73f3e4af0dd843f24df1eea8f048ddab291732fb0ad834e484c012103f531342cfb0331d6da2311efe84a634c919f466fed1cf132ecf668d2b68e6436ffffffff32902249461fb0c8f5b0a6f5a0ad7b10216331896ac82aff726a3e7642d08be7010000006b4830450221008d1202967255c2cd6e2a08019693036f73802f702394e464f857765ddb723ef402202cad275348d9cd99ec61988ec61acdc10b4b5387aac2c8eb76d731ebba7c7a26012103e504f0e4a68f45f50bc288df73b610c64b1ce353a222a8bc09941f715d820a13ffffffff0208d02413000000001976a914b5dd1d0948a174eb08d85ca21590290b3e0264e488ac80f3bf2b000000001976a914cd121cc9033381d5f614b8a9cd72890aa66a1d9288ac00000000", "vin": [{"sequence": 4294967295, "scriptSig": {"hex": "47304402201a675a61f3b2a4f2ac2debda1161e0a3addc3af5a441f27dce03bb0d674f912b02203a22be63ada5b73f3e4af0dd843f24df1eea8f048ddab291732fb0ad834e484c012103f531342cfb0331d6da2311efe84a634c919f466fed1cf132ecf668d2b68e6436", "asm": "304402201a675a61f3b2a4f2ac2debda1161e0a3addc3af5a441f27dce03bb0d674f912b02203a22be63ada5b73f3e4af0dd843f24df1eea8f048ddab291732fb0ad834e484c[ALL] 03f531342cfb0331d6da2311efe84a634c919f466fed1cf132ecf668d2b68e6436"}, "vout": 15, "txid": "2a4cc0f73aa540718b56c26e191ac8bccfc9a9a15d4bdf3904293517212a9ce2"}, {"sequence": 4294967295, "scriptSig": {"hex": "4830450221008d1202967255c2cd6e2a08019693036f73802f702394e464f857765ddb723ef402202cad275348d9cd99ec61988ec61acdc10b4b5387aac2c8eb76d731ebba7c7a26012103e504f0e4a68f45f50bc288df73b610c64b1ce353a222a8bc09941f715d820a13", "asm": "30450221008d1202967255c2cd6e2a08019693036f73802f702394e464f857765ddb723ef402202cad275348d9cd99ec61988ec61acdc10b4b5387aac2c8eb76d731ebba7c7a26[ALL] 03e504f0e4a68f45f50bc288df73b610c64b1ce353a222a8bc09941f715d820a13"}, "vout": 1, "txid": "e78bd042763e6a72ff2ac86a89316321107bada0f5a6b0f5c8b01f4649229032"}], "txid": "e1312c83a751e127f58bc5fe0d6a8e4aa6ae2f09b429c5485610094520a7ebfe", "blocktime": 1537871175, "version": 1, "confirmations": 11511, "time": 1537871175, "locktime": 0, "vsize": 373, "size": 373}