{"hash": "e13bdede9739298ff59347aac2e9f2cdad8ab56785f4b49bed7bca0ed52b04f3", "blockhash": "00000000000000000004ffacab907a6b429b9a5745fa0b75af4234bf69dd7176", "vout": [{"scriptPubKey": {"reqSigs": 1, "hex": "76a914a4b76969a68b505c8625db9cd44116c058ec95af88ac", "addresses": ["1G1wY8jJfp5s9YcUTeh8yxFXPmXpHU8aXD"], "asm": "OP_DUP OP_HASH160 a4b76969a68b505c8625db9cd44116c058ec95af OP_EQUALVERIFY OP_CHECKSIG", "type": "pubkeyhash"}, "value": 0.22492831, "n": 0}, {"scriptPubKey": {"reqSigs": 1, "hex": "76a9146cfa041f94256660db59253b224cc6c21f9aea3288ac", "addresses": ["1AwDV9CSND7rB6Vn2MngcMci6NjC47Zahe"], "asm": "OP_DUP OP_HASH160 6cfa041f94256660db59253b224cc6c21f9aea32 OP_EQUALVERIFY OP_CHECKSIG", "type": "pubkeyhash"}, "value": 2.51160029, "n": 1}], "hex": "0100000001e0e700115bdd094ba9c82fc48ea8cae77149f8fb26f97d5fa29b4dd36bdd9067020000006a47304402201aa4a15e7f0961dac3098ce5e98adb8de64f926570096a03b1cb2604802c94870220677ccc9e48100307f7a95f750af32766529c992fdcbf8614b346af7644f9222f01210290d483281942e0e613e4c763eec2b4e6fbe607784b851bc9fe70cb5aa1082431ffffffff029f365701000000001976a914a4b76969a68b505c8625db9cd44116c058ec95af88acdd65f80e000000001976a9146cfa041f94256660db59253b224cc6c21f9aea3288ac00000000", "vin": [{"sequence": 4294967295, "scriptSig": {"hex": "47304402201aa4a15e7f0961dac3098ce5e98adb8de64f926570096a03b1cb2604802c94870220677ccc9e48100307f7a95f750af32766529c992fdcbf8614b346af7644f9222f01210290d483281942e0e613e4c763eec2b4e6fbe607784b851bc9fe70cb5aa1082431", "asm": "304402201aa4a15e7f0961dac3098ce5e98adb8de64f926570096a03b1cb2604802c94870220677ccc9e48100307f7a95f750af32766529c992fdcbf8614b346af7644f9222f[ALL] 0290d483281942e0e613e4c763eec2b4e6fbe607784b851bc9fe70cb5aa1082431"}, "vout": 2, "txid": "6790dd6bd34d9ba25f7df926fbf84971e7caa88ec42fc8a94b09dd5b1100e7e0"}], "txid": "e13bdede9739298ff59347aac2e9f2cdad8ab56785f4b49bed7bca0ed52b04f3", "blocktime": 1537875543, "version": 1, "confirmations": 11464, "time": 1537875543, "locktime": 0, "vsize": 225, "size": 225}