{"hash": "e13cdd66c71a85aa9f5e51c849c05cd1640f703271587426ef33a4d71a7d3ed0", "blockhash": "0000000000000000001e0dab787dd257d1dbfcb92a98c2207d5e1078be1f4165", "vout": [{"scriptPubKey": {"reqSigs": 1, "hex": "76a9144412930a9aab16bafbd7b4934c72a98bab073ccb88ac", "addresses": ["17CwCcg3aiLPCjPq5KWeRvjWmNfBB1CH6P"], "asm": "OP_DUP OP_HASH160 4412930a9aab16bafbd7b4934c72a98bab073ccb OP_EQUALVERIFY OP_CHECKSIG", "type": "pubkeyhash"}, "value": 0.01094362, "n": 0}, {"scriptPubKey": {"reqSigs": 1, "hex": "76a9142e0c95c80fdaefd1043e810227ed4a58a2cec2fe88ac", "addresses": ["15CVAFZujhWWP2N6WDUDsGXHf9EpWhYkqj"], "asm": "OP_DUP OP_HASH160 2e0c95c80fdaefd1043e810227ed4a58a2cec2fe OP_EQUALVERIFY OP_CHECKSIG", "type": "pubkeyhash"}, "value": 0.03711265, "n": 1}], "hex": "0100000001ff46a6b8e352a7e61d58c3fd0b76e7fc5b0c3c89192f2c94168ef8f48d3be10f010000006a473044022020e3c14b1238c0871312430ae65f4be6bd3fd1581dc0c08b9bd923a5502788b602206ee0b9d3e6108d6c197ea3cd708df4c049421edeeda9ac7b1379ce3be322a7190121028d8a00eda8f732ad75c269235d0ace1467e04c24e323097bbd8b63b60b03f8e8ffffffff02dab21000000000001976a9144412930a9aab16bafbd7b4934c72a98bab073ccb88ac21a13800000000001976a9142e0c95c80fdaefd1043e810227ed4a58a2cec2fe88ac00000000", "vin": [{"sequence": 4294967295, "scriptSig": {"hex": "473044022020e3c14b1238c0871312430ae65f4be6bd3fd1581dc0c08b9bd923a5502788b602206ee0b9d3e6108d6c197ea3cd708df4c049421edeeda9ac7b1379ce3be322a7190121028d8a00eda8f732ad75c269235d0ace1467e04c24e323097bbd8b63b60b03f8e8", "asm": "3044022020e3c14b1238c0871312430ae65f4be6bd3fd1581dc0c08b9bd923a5502788b602206ee0b9d3e6108d6c197ea3cd708df4c049421edeeda9ac7b1379ce3be322a719[ALL] 028d8a00eda8f732ad75c269235d0ace1467e04c24e323097bbd8b63b60b03f8e8"}, "vout": 1, "txid": "0fe13b8df4f88e16942c2f19893c0c5bfce7760bfdc3581de6a752e3b8a646ff"}], "txid": "e13cdd66c71a85aa9f5e51c849c05cd1640f703271587426ef33a4d71a7d3ed0", "blocktime": 1537872475, "version": 1, "confirmations": 11486, "time": 1537872475, "locktime": 0, "vsize": 225, "size": 225}