{"hash": "047b1ea08a8f59c69a242e051e9856cf9a9a621ecdb421f5a6f0431c6998c441", "blockhash": "000000000000000000022b45ed06c6f4ccd3cf7fb5ba4856ebd2e58215665228", "vout": [{"scriptPubKey": {"reqSigs": 1, "hex": "a914cfaabfe8c271f99a4364b5197ba50c6cddb7adb987", "addresses": ["3Ld4M9RPwEG3VeQbHcC1PsKUndQL7VYLZP"], "asm": "OP_HASH160 cfaabfe8c271f99a4364b5197ba50c6cddb7adb9 OP_EQUAL", "type": "scripthash"}, "value": 0.02508959, "n": 0}, {"scriptPubKey": {"reqSigs": 1, "hex": "a9147c148f97d23c5f61f7e70385d50913012be98c0b87", "addresses": ["3D16LvmSxvwyLL6QFmvAryAU85BotxSEKp"], "asm": "OP_HASH160 7c148f97d23c5f61f7e70385d50913012be98c0b OP_EQUAL", "type": "scripthash"}, "value": 0.07776581, "n": 1}], "hex": "01000000000102523ada31f98f5b04a9858f08cf39140b506f2629fd14335989a4ecf8fa97d8e7000000002322002014cfb5338192c9218a1b5937fe00b62f1533576e60068da2c727e49f896ae4efffffffff5064ab7aea783db6ee60c3da7bfcf60c5627e88daf46bb96cb51b7492197922f010000002322002002b9d327c88a295f29b047872695fca72f58f11cdb5a8649e6204e76327bff29ffffffff029f4826000000000017a914cfaabfe8c271f99a4364b5197ba50c6cddb7adb98745a976000000000017a9147c148f97d23c5f61f7e70385d50913012be98c0b870400483045022100c23bbede6533d7bbcb0a5d1b214767e42c871c755b1409ab5768ca637195aef902207f12c1cdef8f70a36824d9203e33887244654bccc4c3fdb0bc252df872f31beb01483045022100d8c770108bba91de403f37de0bea745e705e24d00ba2c672e498ddc0531d320a02205f443315ac00bffdd210ae0cc1f85950d70c35314251f8deccc5ed03a1cb12af0147522102f849325d4fa7fe73cdd0fc0c21fe01bfa548285319356ba4704a26998feac1ed21033e4af03ed09dbd8a417ba042650d5bd1db7f14f271a8f660974e3abf1fdfa4da52ae040047304402207cf501698aa329a4dc3ac1f590bac8e95d9a9d5330f4a94da95313e0a88a02720220239d574c59165c209fdce7788df7d5ee253b4c4b20f656fdd102ee235cf37d920147304402203380ab5babfc0823be9a77a1710a22ce7a906dd908a0382f7d689998405c90dc02201a1a159becf9286fad7e6e82782741de2a16ba1f2ad41f4dc819857de3c0552b0147522102356cc28debade2ba11e5d5bd06b6f99384fc92bfef5682806f3df5286004293b21033e4af03ed09dbd8a417ba042650d5bd1db7f14f271a8f660974e3abf1fdfa4da52ae00000000", "vin": [{"txinwitness": ["", "3045022100c23bbede6533d7bbcb0a5d1b214767e42c871c755b1409ab5768ca637195aef902207f12c1cdef8f70a36824d9203e33887244654bccc4c3fdb0bc252df872f31beb01", "3045022100d8c770108bba91de403f37de0bea745e705e24d00ba2c672e498ddc0531d320a02205f443315ac00bffdd210ae0cc1f85950d70c35314251f8deccc5ed03a1cb12af01", "522102f849325d4fa7fe73cdd0fc0c21fe01bfa548285319356ba4704a26998feac1ed21033e4af03ed09dbd8a417ba042650d5bd1db7f14f271a8f660974e3abf1fdfa4da52ae"], "sequence": 4294967295, "scriptSig": {"hex": "22002014cfb5338192c9218a1b5937fe00b62f1533576e60068da2c727e49f896ae4ef", "asm": "002014cfb5338192c9218a1b5937fe00b62f1533576e60068da2c727e49f896ae4ef"}, "vout": 0, "txid": "e7d897faf8eca489593314fd29266f500b1439cf088f85a9045b8ff931da3a52"}, {"txinwitness": ["", "304402207cf501698aa329a4dc3ac1f590bac8e95d9a9d5330f4a94da95313e0a88a02720220239d574c59165c209fdce7788df7d5ee253b4c4b20f656fdd102ee235cf37d9201", "304402203380ab5babfc0823be9a77a1710a22ce7a906dd908a0382f7d689998405c90dc02201a1a159becf9286fad7e6e82782741de2a16ba1f2ad41f4dc819857de3c0552b01", "522102356cc28debade2ba11e5d5bd06b6f99384fc92bfef5682806f3df5286004293b21033e4af03ed09dbd8a417ba042650d5bd1db7f14f271a8f660974e3abf1fdfa4da52ae"], "sequence": 4294967295, "scriptSig": {"hex": "22002002b9d327c88a295f29b047872695fca72f58f11cdb5a8649e6204e76327bff29", "asm": "002002b9d327c88a295f29b047872695fca72f58f11cdb5a8649e6204e76327bff29"}, "vout": 1, "txid": "2f92972149b751cb96bb46af8de827560cf6fc7bdac360eeb63d78ea7aab6450"}], "txid": "e13dff57581ddbc3a54fddbd616ae5e90f6ca0ba1211ad52209cd5be01570380", "blocktime": 1537869901, "version": 1, "confirmations": 11524, "time": 1537869901, "locktime": 0, "vsize": 336, "size": 666}