{"hash": "e13ffe7882c9bd9ae163b0a5534be33fba6be60c716eff0af49a9126105c37c8", "blockhash": "00000000000000000017f5eb5941039fbcee6240d03bc1f2f8e35350df66a1d8", "vout": [{"scriptPubKey": {"reqSigs": 1, "hex": "76a9140ffb81f6d9bdb3e954dc14cae2dbcebf6a14266188ac", "addresses": ["12TWRwLpikRsvctNvroCeViU9cdUcC63cu"], "asm": "OP_DUP OP_HASH160 0ffb81f6d9bdb3e954dc14cae2dbcebf6a142661 OP_EQUALVERIFY OP_CHECKSIG", "type": "pubkeyhash"}, "value": 0.00084859, "n": 0}, {"scriptPubKey": {"reqSigs": 1, "hex": "76a9141b5190b2a399640cea7d90261d994153555d5eb788ac", "addresses": ["13VSxRykqAdbijnrPvNqu4eqsbXfdYxgt6"], "asm": "OP_DUP OP_HASH160 1b5190b2a399640cea7d90261d994153555d5eb7 OP_EQUALVERIFY OP_CHECKSIG", "type": "pubkeyhash"}, "value": 0.00583333, "n": 1}], "hex": "01000000018f6796f6fb1d3e4ddf9ee90299902e7bb1c02237e6044199bee0ff2c1310f934010000006b483045022100dfd67594c0f6471af4ce98f69b060752632b3d2fe1daec7230ca95638cd1b3f802203480858e0a084af4ab4a21ee1771bc16b4abcf69bcfab0040cf0fbcf54cc39ba012102fce444c6210148be89162e84755d2bfc0e6f4dc2a564a91d7eeae77f6dcf8991fdffffff027b4b0100000000001976a9140ffb81f6d9bdb3e954dc14cae2dbcebf6a14266188aca5e60800000000001976a9141b5190b2a399640cea7d90261d994153555d5eb788ac15490800", "vin": [{"sequence": 4294967293, "scriptSig": {"hex": "483045022100dfd67594c0f6471af4ce98f69b060752632b3d2fe1daec7230ca95638cd1b3f802203480858e0a084af4ab4a21ee1771bc16b4abcf69bcfab0040cf0fbcf54cc39ba012102fce444c6210148be89162e84755d2bfc0e6f4dc2a564a91d7eeae77f6dcf8991", "asm": "3045022100dfd67594c0f6471af4ce98f69b060752632b3d2fe1daec7230ca95638cd1b3f802203480858e0a084af4ab4a21ee1771bc16b4abcf69bcfab0040cf0fbcf54cc39ba[ALL] 02fce444c6210148be89162e84755d2bfc0e6f4dc2a564a91d7eeae77f6dcf8991"}, "vout": 1, "txid": "34f910132cffe0be994104e63722c0b17b2e909902e99edf4d3e1dfbf696678f"}], "txid": "e13ffe7882c9bd9ae163b0a5534be33fba6be60c716eff0af49a9126105c37c8", "blocktime": 1537874412, "version": 1, "confirmations": 11467, "time": 1537874412, "locktime": 542997, "vsize": 226, "size": 226}