{"hash": "35ade01497207f7f42e9d8207823c639a9850116d172aad117f564f57ee05e54", "blockhash": "00000000000000000004ffacab907a6b429b9a5745fa0b75af4234bf69dd7176", "vout": [{"scriptPubKey": {"reqSigs": 1, "hex": "a9140356f589f85d7051f31569e5dc2a49e2e83e608987", "addresses": ["31zg89RJqLUijBxXYspaPm2iFcNvkhpnA2"], "asm": "OP_HASH160 0356f589f85d7051f31569e5dc2a49e2e83e6089 OP_EQUAL", "type": "scripthash"}, "value": 12.1598736, "n": 0}, {"scriptPubKey": {"reqSigs": 1, "hex": "a91488efe2e9951702d840fbf99683c311fc31301a3587", "addresses": ["3EB5CEK8qFfgayepj2UBUDihoCyCVL2JqM"], "asm": "OP_HASH160 88efe2e9951702d840fbf99683c311fc31301a35 OP_EQUAL", "type": "scripthash"}, "value": 0.12675028, "n": 1}], "hex": "020000000001018245a2d7cce1a0f3429832b595db3123d1dc3d82e27824d02be6df7ed8de6d94000000001716001431e129914a2ef34eb7d4df34a773fbce4d7bab39feffffff02a07e7a480000000017a9140356f589f85d7051f31569e5dc2a49e2e83e608987d467c1000000000017a91488efe2e9951702d840fbf99683c311fc31301a35870247304402207a2ac769163a1fae89975310c52f1cdefa7b167489591bf1624d42ccd69217de0220068d2160839ad9c0b5ea4900b15e88bc2e4c279ee6cbb07e91dc1ccdddea53f801210390d688aa2e870365199454a50e720b5df584d822a10f11f16562b1786ad9ffb716490800", "vin": [{"txinwitness": ["304402207a2ac769163a1fae89975310c52f1cdefa7b167489591bf1624d42ccd69217de0220068d2160839ad9c0b5ea4900b15e88bc2e4c279ee6cbb07e91dc1ccdddea53f801", "0390d688aa2e870365199454a50e720b5df584d822a10f11f16562b1786ad9ffb7"], "sequence": 4294967294, "scriptSig": {"hex": "16001431e129914a2ef34eb7d4df34a773fbce4d7bab39", "asm": "001431e129914a2ef34eb7d4df34a773fbce4d7bab39"}, "vout": 0, "txid": "946dded87edfe62bd02478e2823ddcd12331db95b5329842f3a0e1ccd7a24582"}], "txid": "e1410273a32b61649ea6265330acb304876bdc1aaa4a74f0ca64550572c8b6bb", "blocktime": 1537875543, "version": 2, "confirmations": 11464, "time": 1537875543, "locktime": 542998, "vsize": 166, "size": 247}