{"hash": "a36c763915cc7b5db45f4cf07a883d49f785e7aa85d55947ed7e841d8095da6e", "blockhash": "0000000000000000000e13cef7c366c0283d82e591d1acd082e914b08063cdf1", "vout": [{"scriptPubKey": {"reqSigs": 1, "hex": "a9141e45b14c4368bab98e5b14053330ffe35875ec3a87", "addresses": ["34T5gd76KeZNENS7EV5gmcD1zNwb1R9rPg"], "asm": "OP_HASH160 1e45b14c4368bab98e5b14053330ffe35875ec3a OP_EQUAL", "type": "scripthash"}, "value": 0.1887687, "n": 0}, {"scriptPubKey": {"reqSigs": 1, "hex": "a91424850938921974f758abbf9d48e7f3c9407cc81a87", "addresses": ["3527cxJcs3jjV7nG7mDGBTcULMWmcUoYoF"], "asm": "OP_HASH160 24850938921974f758abbf9d48e7f3c9407cc81a OP_EQUAL", "type": "scripthash"}, "value": 0.05742214, "n": 1}], "hex": "01000000000101959944c59dfbef1af41cf68c38b6fefd3f27fac86ea51b79728f0ff180ad87df0100000023220020f99658d94dad4af993362f8689f5461cbfa003e6c1460f49f78edf325e506d41ffffffff02c60920010000000017a9141e45b14c4368bab98e5b14053330ffe35875ec3a87869e57000000000017a91424850938921974f758abbf9d48e7f3c9407cc81a87040047304402202884d5290ab20d064c46ba9976cc0661e1cc8cef769492e34cd4a668ff6c39da02204a35f2c9131df1f24c592a7e7be56de55b3e02a42c5c225ac3cbb30fda214f290147304402204813d65b7aad59cab79e1d466cb2a29a5c0022ddd7126b522d462e5db39eb64e02207e4ef50ec5c8a445cc8aa5b92377bc1f2a40bda8fb2c8737f57fb053790cda5001695221030d8d0b3baf2c432beb11ce9762b4c01da98897ff7da4cc6c14f90e01e52a271b2103fa3ba7a48006425c463b9e7b15770e516c5218f7de41a2c65ce25e7c7665df94210203867029220ae48f98cc7ce1b92996af8d463a396b7f9dd07bbaecf57d60f89453ae00000000", "vin": [{"txinwitness": ["", "304402202884d5290ab20d064c46ba9976cc0661e1cc8cef769492e34cd4a668ff6c39da02204a35f2c9131df1f24c592a7e7be56de55b3e02a42c5c225ac3cbb30fda214f2901", "304402204813d65b7aad59cab79e1d466cb2a29a5c0022ddd7126b522d462e5db39eb64e02207e4ef50ec5c8a445cc8aa5b92377bc1f2a40bda8fb2c8737f57fb053790cda5001", "5221030d8d0b3baf2c432beb11ce9762b4c01da98897ff7da4cc6c14f90e01e52a271b2103fa3ba7a48006425c463b9e7b15770e516c5218f7de41a2c65ce25e7c7665df94210203867029220ae48f98cc7ce1b92996af8d463a396b7f9dd07bbaecf57d60f89453ae"], "sequence": 4294967295, "scriptSig": {"hex": "220020f99658d94dad4af993362f8689f5461cbfa003e6c1460f49f78edf325e506d41", "asm": "0020f99658d94dad4af993362f8689f5461cbfa003e6c1460f49f78edf325e506d41"}, "vout": 1, "txid": "df87ad80f10f8f72791ba56ec8fa273ffdfeb6388cf61cf41aeffb9dc5449995"}], "txid": "e14483ddcd9938de1d99dfa0080791ed9f40676f64939dcff6157d75b92bddd5", "blocktime": 1537871767, "version": 1, "confirmations": 11495, "time": 1537871767, "locktime": 0, "vsize": 214, "size": 404}