{"hash": "03d62bc59447955a94ce030371d5c73197deee96f0570d55d6e2bc1e0b7b6a51", "blockhash": "000000000000000000022b45ed06c6f4ccd3cf7fb5ba4856ebd2e58215665228", "vout": [{"scriptPubKey": {"reqSigs": 1, "hex": "76a914730c19031d7f935f54abef0656510e304147412a88ac", "addresses": ["1BVKCdB73TKXp58Jp8Tz4mHESuok4seR9s"], "asm": "OP_DUP OP_HASH160 730c19031d7f935f54abef0656510e304147412a OP_EQUALVERIFY OP_CHECKSIG", "type": "pubkeyhash"}, "value": 0.068936, "n": 0}, {"scriptPubKey": {"reqSigs": 1, "hex": "a91448e0c041ca1c811e218c2638b4dd0f612b45a2e487", "addresses": ["38LMpL3D41X3oRYxZnHZVmwhrTGyWxfd6j"], "asm": "OP_HASH160 48e0c041ca1c811e218c2638b4dd0f612b45a2e4 OP_EQUAL", "type": "scripthash"}, "value": 0.06998074, "n": 1}], "hex": "0200000000010115da35fe6b64adc3956007968dad349b6b600ac34fef0e0796b168e0a434993c01000000171600143104ad8be616c63b5e7a73818f5f0b26f0b9fd12ffffffff0220306900000000001976a914730c19031d7f935f54abef0656510e304147412a88ac3ac86a000000000017a91448e0c041ca1c811e218c2638b4dd0f612b45a2e4870248304502210098aeee8f3f221eb0ffc62ed67ee5c13fc515eadbcb686492a165071b2364bed5022063bf72b748d38a66cfdd59691c350def3f55694627856f84402f0b5810771d45012102b055bea5d9038e64e6a0f7039da588fa3d1b777ca1303b778e4ad697bfe6416900000000", "vin": [{"txinwitness": ["304502210098aeee8f3f221eb0ffc62ed67ee5c13fc515eadbcb686492a165071b2364bed5022063bf72b748d38a66cfdd59691c350def3f55694627856f84402f0b5810771d4501", "02b055bea5d9038e64e6a0f7039da588fa3d1b777ca1303b778e4ad697bfe64169"], "sequence": 4294967295, "scriptSig": {"hex": "1600143104ad8be616c63b5e7a73818f5f0b26f0b9fd12", "asm": "00143104ad8be616c63b5e7a73818f5f0b26f0b9fd12"}, "vout": 1, "txid": "3c9934a4e068b196070eef4fc30a606b9b34ad8d96076095c3ad646bfe35da15"}], "txid": "e14498c9d36a02a39d114632a6113eb2d66702ac8495cd33046e472ed4550f55", "blocktime": 1537869901, "version": 2, "confirmations": 11522, "time": 1537869901, "locktime": 0, "vsize": 168, "size": 250}