{"hash": "e144027159881a5969ca22b4026231e41fa3b4532137e71a11676ab735384c7a", "blockhash": "00000000000000000004ffacab907a6b429b9a5745fa0b75af4234bf69dd7176", "vout": [{"scriptPubKey": {"reqSigs": 1, "hex": "76a914098263d35b2f62699d515034defe718769abbea688ac", "addresses": ["1sHHNxbMnfM7vHwhjRMn2YLBtVk47nA9T"], "asm": "OP_DUP OP_HASH160 098263d35b2f62699d515034defe718769abbea6 OP_EQUALVERIFY OP_CHECKSIG", "type": "pubkeyhash"}, "value": 0.00016823, "n": 0}, {"scriptPubKey": {"reqSigs": 1, "hex": "76a9140c15ee477a555f72a0d1e3a38361449efbf7835a88ac", "addresses": ["126uP5bFFohWMdUV91kefJTS4GGuCK8L3k"], "asm": "OP_DUP OP_HASH160 0c15ee477a555f72a0d1e3a38361449efbf7835a OP_EQUALVERIFY OP_CHECKSIG", "type": "pubkeyhash"}, "value": 0.01829577, "n": 1}], "hex": "01000000015ecf6de399b02a0221922416a3311a4a4c4d2d24606e07b163d71a51eb2ae034010000006b483045022100b9dc86b97fc3857a5aa96c336f16d5094e5013288ef4679a5f5268d873146de9022078922e2f2029aa958b6ae74db6f600b279f39a5f22f7348aad9ba05d6191013801210274eb4cf1b6662576ea35907b855984f22e5a158b0aafd44b3a30c132a326d16cffffffff02b7410000000000001976a914098263d35b2f62699d515034defe718769abbea688acc9ea1b00000000001976a9140c15ee477a555f72a0d1e3a38361449efbf7835a88ac00000000", "vin": [{"sequence": 4294967295, "scriptSig": {"hex": "483045022100b9dc86b97fc3857a5aa96c336f16d5094e5013288ef4679a5f5268d873146de9022078922e2f2029aa958b6ae74db6f600b279f39a5f22f7348aad9ba05d6191013801210274eb4cf1b6662576ea35907b855984f22e5a158b0aafd44b3a30c132a326d16c", "asm": "3045022100b9dc86b97fc3857a5aa96c336f16d5094e5013288ef4679a5f5268d873146de9022078922e2f2029aa958b6ae74db6f600b279f39a5f22f7348aad9ba05d61910138[ALL] 0274eb4cf1b6662576ea35907b855984f22e5a158b0aafd44b3a30c132a326d16c"}, "vout": 1, "txid": "34e02aeb511ad763b1076e60242d4d4c4a1a31a316249221022ab099e36dcf5e"}], "txid": "e144027159881a5969ca22b4026231e41fa3b4532137e71a11676ab735384c7a", "blocktime": 1537875543, "version": 1, "confirmations": 11464, "time": 1537875543, "locktime": 0, "vsize": 226, "size": 226}