{"hash": "e14dc2eb11172f0e388f173c0b33352920aab0b016ac46c4099357f2bcc78b16", "blockhash": "00000000000000000017f5eb5941039fbcee6240d03bc1f2f8e35350df66a1d8", "vout": [{"scriptPubKey": {"reqSigs": 1, "hex": "76a9141964e2068551b122990560d5ed9bce3cd72f472088ac", "addresses": ["13KGkGGyjFWhun1SQjJwBV9CXkaJf6fXdn"], "asm": "OP_DUP OP_HASH160 1964e2068551b122990560d5ed9bce3cd72f4720 OP_EQUALVERIFY OP_CHECKSIG", "type": "pubkeyhash"}, "value": 0.006537, "n": 0}, {"scriptPubKey": {"reqSigs": 1, "hex": "76a9142267be0973ad033aefa0760a0b41ae2b0fd7b04e88ac", "addresses": ["148vFfcnThqAXLi5qGboxCzyQvHNcJkjPG"], "asm": "OP_DUP OP_HASH160 2267be0973ad033aefa0760a0b41ae2b0fd7b04e OP_EQUALVERIFY OP_CHECKSIG", "type": "pubkeyhash"}, "value": 0.00156491, "n": 1}], "hex": "0100000001971a6c30d5cabf2f8b044d97028f67195c5cdfb60f2c7d5c4a4e28417ff09e4b000000006b483045022100c80e1007edbba38e5d945de49bd1b6d7e25e5e339cc3faa676e049c36d297be20220171529ad4e96d179af539d908ba616a974ea88f5ca89ca46300a0ffc4af88bff0121033a12b15278b9068a052d09d1d1e5cf13c8c566f40ec9d863918732483e6e1ea2ffffffff0284f90900000000001976a9141964e2068551b122990560d5ed9bce3cd72f472088ac4b630200000000001976a9142267be0973ad033aefa0760a0b41ae2b0fd7b04e88ac00000000", "vin": [{"sequence": 4294967295, "scriptSig": {"hex": "483045022100c80e1007edbba38e5d945de49bd1b6d7e25e5e339cc3faa676e049c36d297be20220171529ad4e96d179af539d908ba616a974ea88f5ca89ca46300a0ffc4af88bff0121033a12b15278b9068a052d09d1d1e5cf13c8c566f40ec9d863918732483e6e1ea2", "asm": "3045022100c80e1007edbba38e5d945de49bd1b6d7e25e5e339cc3faa676e049c36d297be20220171529ad4e96d179af539d908ba616a974ea88f5ca89ca46300a0ffc4af88bff[ALL] 033a12b15278b9068a052d09d1d1e5cf13c8c566f40ec9d863918732483e6e1ea2"}, "vout": 0, "txid": "4b9ef07f41284e4a5c7d2c0fb6df5c5c19678f02974d048b2fbfcad5306c1a97"}], "txid": "e14dc2eb11172f0e388f173c0b33352920aab0b016ac46c4099357f2bcc78b16", "blocktime": 1537874412, "version": 1, "confirmations": 11468, "time": 1537874412, "locktime": 0, "vsize": 226, "size": 226}