{"hash": "e14f793805ccacf22732bfbe3b0f3402712bf7fb0816a9fc60578bab3341f692", "blockhash": "00000000000000000024a2167bbff67b0be802c0b01cdd79e6331c2be6459f87", "vout": [{"scriptPubKey": {"reqSigs": 1, "hex": "76a914c5b7fd920dce5f61934e792c7e6fcc829aff533d88ac", "addresses": ["1K2SXgApmo9uZoyahvsbSanpVWbzZWVVMF"], "asm": "OP_DUP OP_HASH160 c5b7fd920dce5f61934e792c7e6fcc829aff533d OP_EQUALVERIFY OP_CHECKSIG", "type": "pubkeyhash"}, "value": 0.0041812, "n": 0}, {"scriptPubKey": {"type": "nulldata", "hex": "6a284661000000027077511e533bb449fd897d8117c130e4324e445dd8f833e536226c4739ea5800f6a3", "asm": "OP_RETURN 4661000000027077511e533bb449fd897d8117c130e4324e445dd8f833e536226c4739ea5800f6a3"}, "value": 0.0, "n": 1}], "hex": "020000000108a3d6e97dbe71d4e0358223943aaf807908507d4daf1ea2284ee191382dff61000000006b483045022100b677f06b9eee32c2b8e5907e7dfdc7f90f711f8c5abd8e3ff47df0b622b06fbd0220736cfe493d8e4f10864f6cba246f03267956e091a59e30daf01bbbdbd850ba7c0121027e706cd1c919431b693a0247e4a239e632659a8723a621a91ec610c64f4173acffffffff0248610600000000001976a914c5b7fd920dce5f61934e792c7e6fcc829aff533d88ac00000000000000002a6a284661000000027077511e533bb449fd897d8117c130e4324e445dd8f833e536226c4739ea5800f6a300000000", "vin": [{"sequence": 4294967295, "scriptSig": {"hex": "483045022100b677f06b9eee32c2b8e5907e7dfdc7f90f711f8c5abd8e3ff47df0b622b06fbd0220736cfe493d8e4f10864f6cba246f03267956e091a59e30daf01bbbdbd850ba7c0121027e706cd1c919431b693a0247e4a239e632659a8723a621a91ec610c64f4173ac", "asm": "3045022100b677f06b9eee32c2b8e5907e7dfdc7f90f711f8c5abd8e3ff47df0b622b06fbd0220736cfe493d8e4f10864f6cba246f03267956e091a59e30daf01bbbdbd850ba7c[ALL] 027e706cd1c919431b693a0247e4a239e632659a8723a621a91ec610c64f4173ac"}, "vout": 0, "txid": "61ff2d3891e14e28a21eaf4d7d50087980af3a94238235e0d471be7de9d6a308"}], "txid": "e14f793805ccacf22732bfbe3b0f3402712bf7fb0816a9fc60578bab3341f692", "blocktime": 1537870564, "version": 2, "confirmations": 11515, "time": 1537870564, "locktime": 0, "vsize": 243, "size": 243}