{"hash": "e16546c12735ac94acc0d48f128a4c9ab80196374e5613b136fb6fa6fabf31d3", "blockhash": "0000000000000000001cda96e906b7601b7a6fb1a3b62bca570a9e5d8f4b3de1", "vout": [{"scriptPubKey": {"reqSigs": 1, "hex": "76a914bf186e463b5f11d80426133c370c2eab12bcbb8e88ac", "addresses": ["1JRRL7sghGeVtADTtBrsRyeaGdUsAavgC6"], "asm": "OP_DUP OP_HASH160 bf186e463b5f11d80426133c370c2eab12bcbb8e OP_EQUALVERIFY OP_CHECKSIG", "type": "pubkeyhash"}, "value": 0.001657, "n": 0}, {"scriptPubKey": {"reqSigs": 1, "hex": "76a9141491a6a6a336ea12bdc5801d43b1f70d756d9ae088ac", "addresses": ["12skzqxePzvWk1oZXZ25ZzcPvwavSqwNcy"], "asm": "OP_DUP OP_HASH160 1491a6a6a336ea12bdc5801d43b1f70d756d9ae0 OP_EQUALVERIFY OP_CHECKSIG", "type": "pubkeyhash"}, "value": 0.014443, "n": 1}], "hex": "0100000001a49da278ecd2ba4be620841d997ee71886ed42220b4b614e7f93e26f723b5aab000000006b483045022100b26978a9eb8fe313951695760330291f01d35a342bc12f133f2f29d52790339c02207a8b8edae5e5447b7eff98bf4fea06e862f2897447c6a9c9738fadd0553445ef012103ad46c606d62582f886ecb5a34bd3a9dc5f2162bc9729d195b886e9d7affb6323ffffffff0244870200000000001976a914bf186e463b5f11d80426133c370c2eab12bcbb8e88accc091600000000001976a9141491a6a6a336ea12bdc5801d43b1f70d756d9ae088ac00000000", "vin": [{"sequence": 4294967295, "scriptSig": {"hex": "483045022100b26978a9eb8fe313951695760330291f01d35a342bc12f133f2f29d52790339c02207a8b8edae5e5447b7eff98bf4fea06e862f2897447c6a9c9738fadd0553445ef012103ad46c606d62582f886ecb5a34bd3a9dc5f2162bc9729d195b886e9d7affb6323", "asm": "3045022100b26978a9eb8fe313951695760330291f01d35a342bc12f133f2f29d52790339c02207a8b8edae5e5447b7eff98bf4fea06e862f2897447c6a9c9738fadd0553445ef[ALL] 03ad46c606d62582f886ecb5a34bd3a9dc5f2162bc9729d195b886e9d7affb6323"}, "vout": 0, "txid": "ab5a3b726fe2937f4e614b0b2242ed8618e77e991d8420e64bbad2ec78a29da4"}], "txid": "e16546c12735ac94acc0d48f128a4c9ab80196374e5613b136fb6fa6fabf31d3", "blocktime": 1537873282, "version": 1, "confirmations": 11485, "time": 1537873282, "locktime": 0, "vsize": 226, "size": 226}