{"hash": "e165b44ff0a6f6553edbfa1fe4198f4eed35396ab09bfa18407dbdd64ca0236c", "blockhash": "00000000000000000017f5eb5941039fbcee6240d03bc1f2f8e35350df66a1d8", "vout": [{"scriptPubKey": {"reqSigs": 1, "hex": "76a9145062f82f4fb24f320e10cd372a4254a8b4a0089788ac", "addresses": ["18L3csDsd3mdvFGxkNWrR9iuHtVRoxqoac"], "asm": "OP_DUP OP_HASH160 5062f82f4fb24f320e10cd372a4254a8b4a00897 OP_EQUALVERIFY OP_CHECKSIG", "type": "pubkeyhash"}, "value": 1.017e-05, "n": 0}, {"scriptPubKey": {"reqSigs": 1, "hex": "a9148ed125bafede9b1ce39283880049314a40355c5787", "addresses": ["3EiARbgKrwUbSKbE5a8YHmAhqvgXi14yYM"], "asm": "OP_HASH160 8ed125bafede9b1ce39283880049314a40355c57 OP_EQUAL", "type": "scripthash"}, "value": 0.00015631, "n": 1}], "hex": "0100000002d8f9a72a6198d276e9e62ab08542a3fd61402df896040a3694747ff13e54ec42000000006a47304402200ca282126ac6386c82fa60bbb6e6e77fd119f967455928db946e0d495756a4fd02202bb397c8336fda58a00b7f1e4793a0ec2056154b1ce9d6c758b45fb1e96c2b1f012103fb7d360347ee9829d96f7f211cf84966309f6f5cdb7d3c82e4dee8838a791d0affffffff049d63585d1ecab79bbedf5c2cc16a85d6ebaee50efd2c888b482a358f0814b5010000006b483045022100d4fb0d12a18f9fb28b304c234310a1cff125748cf8e1e3d280cb41fe6288b0ba0220609a48228bf0a2f233c5a4807fb0370d5359197528ede317793c63282aa711ab0121033771b196ca4f3ed620a648b5b342c755f8b4fa380395ff743299a290d0bb4f23ffffffff02f9030000000000001976a9145062f82f4fb24f320e10cd372a4254a8b4a0089788ac0f3d00000000000017a9148ed125bafede9b1ce39283880049314a40355c578700000000", "vin": [{"sequence": 4294967295, "scriptSig": {"hex": "47304402200ca282126ac6386c82fa60bbb6e6e77fd119f967455928db946e0d495756a4fd02202bb397c8336fda58a00b7f1e4793a0ec2056154b1ce9d6c758b45fb1e96c2b1f012103fb7d360347ee9829d96f7f211cf84966309f6f5cdb7d3c82e4dee8838a791d0a", "asm": "304402200ca282126ac6386c82fa60bbb6e6e77fd119f967455928db946e0d495756a4fd02202bb397c8336fda58a00b7f1e4793a0ec2056154b1ce9d6c758b45fb1e96c2b1f[ALL] 03fb7d360347ee9829d96f7f211cf84966309f6f5cdb7d3c82e4dee8838a791d0a"}, "vout": 0, "txid": "42ec543ef17f7494360a0496f82d4061fda34285b02ae6e976d298612aa7f9d8"}, {"sequence": 4294967295, "scriptSig": {"hex": "483045022100d4fb0d12a18f9fb28b304c234310a1cff125748cf8e1e3d280cb41fe6288b0ba0220609a48228bf0a2f233c5a4807fb0370d5359197528ede317793c63282aa711ab0121033771b196ca4f3ed620a648b5b342c755f8b4fa380395ff743299a290d0bb4f23", "asm": "3045022100d4fb0d12a18f9fb28b304c234310a1cff125748cf8e1e3d280cb41fe6288b0ba0220609a48228bf0a2f233c5a4807fb0370d5359197528ede317793c63282aa711ab[ALL] 033771b196ca4f3ed620a648b5b342c755f8b4fa380395ff743299a290d0bb4f23"}, "vout": 1, "txid": "b514088f352a488b882cfd0ee5aeebd6856ac12c5cdfbe9bb7ca1e5d58639d04"}], "txid": "e165b44ff0a6f6553edbfa1fe4198f4eed35396ab09bfa18407dbdd64ca0236c", "blocktime": 1537874412, "version": 1, "confirmations": 11468, "time": 1537874412, "locktime": 0, "vsize": 371, "size": 371}