{"hash": "e167e2bd89cc6e816f64b959a2ea3880c66added17534e69eaf73118c7cad8d1", "blockhash": "0000000000000000001cda96e906b7601b7a6fb1a3b62bca570a9e5d8f4b3de1", "vout": [{"scriptPubKey": {"reqSigs": 1, "hex": "a9143d7c3e606e4f5459ff8b50a2b38e57af1be3392087", "addresses": ["37J7yr2misBsyoSZNwP7TsLFuCBgxdbas1"], "asm": "OP_HASH160 3d7c3e606e4f5459ff8b50a2b38e57af1be33920 OP_EQUAL", "type": "scripthash"}, "value": 0.00326479, "n": 0}, {"scriptPubKey": {"reqSigs": 1, "hex": "76a9146586ced214191eaee684bf8787713d2671eff5aa88ac", "addresses": ["1AFpjzWNNtmMamjbbSSNLiVdktzrYMspCQ"], "asm": "OP_DUP OP_HASH160 6586ced214191eaee684bf8787713d2671eff5aa OP_EQUALVERIFY OP_CHECKSIG", "type": "pubkeyhash"}, "value": 0.10606886, "n": 1}], "hex": "02000000010c6b6e28b825f4a63cdf7bdba4765297d5447edf16faa4b41f1a900a609e2835010000006b4830450221008fb6f0e7d6ac09665a0710f404cfff9d226860d4cb4b5f4a70dfc31231ff91cb02201632a06032566eed19378d9a7d71e1dc9abb279ce8ef498dc68cdb979705638201210210dac65f236a05432a1dbd2f909aa1c6e1870304203e734e8d07db9b57443d46ffffffff024ffb04000000000017a9143d7c3e606e4f5459ff8b50a2b38e57af1be339208726d9a100000000001976a9146586ced214191eaee684bf8787713d2671eff5aa88ac00000000", "vin": [{"sequence": 4294967295, "scriptSig": {"hex": "4830450221008fb6f0e7d6ac09665a0710f404cfff9d226860d4cb4b5f4a70dfc31231ff91cb02201632a06032566eed19378d9a7d71e1dc9abb279ce8ef498dc68cdb979705638201210210dac65f236a05432a1dbd2f909aa1c6e1870304203e734e8d07db9b57443d46", "asm": "30450221008fb6f0e7d6ac09665a0710f404cfff9d226860d4cb4b5f4a70dfc31231ff91cb02201632a06032566eed19378d9a7d71e1dc9abb279ce8ef498dc68cdb9797056382[ALL] 0210dac65f236a05432a1dbd2f909aa1c6e1870304203e734e8d07db9b57443d46"}, "vout": 1, "txid": "35289e600a901a1fb4a4fa16df7e44d5975276a4db7bdf3ca6f425b8286e6b0c"}], "txid": "e167e2bd89cc6e816f64b959a2ea3880c66added17534e69eaf73118c7cad8d1", "blocktime": 1537873282, "version": 2, "confirmations": 11484, "time": 1537873282, "locktime": 0, "vsize": 224, "size": 224}