{"hash": "e16840354a87de7e31e840e1f61956763c1a9ffec72c2bba4e5d07c795b0bcf9", "blockhash": "0000000000000000001e0dab787dd257d1dbfcb92a98c2207d5e1078be1f4165", "vout": [{"scriptPubKey": {"reqSigs": 1, "hex": "76a9140a4c27ff41ac4a40dd0c3e5424a45c6b67c30d4088ac", "addresses": ["1wSzM6jMCJKS1YpZYRnYqyXDXic4TAoNi"], "asm": "OP_DUP OP_HASH160 0a4c27ff41ac4a40dd0c3e5424a45c6b67c30d40 OP_EQUALVERIFY OP_CHECKSIG", "type": "pubkeyhash"}, "value": 0.014772, "n": 0}, {"scriptPubKey": {"type": "nulldata", "hex": "6a4c50000077ae0001adaf350a813e09068a8e8f00af6c953dd567cf27e7e3ef3236678a6250975d38637e5e7ea8a59895ad68641c2c5b5baa10f20611f279415e8296bc9a9526289ac0f6612cd74e33776ee4", "asm": "OP_RETURN 000077ae0001adaf350a813e09068a8e8f00af6c953dd567cf27e7e3ef3236678a6250975d38637e5e7ea8a59895ad68641c2c5b5baa10f20611f279415e8296bc9a9526289ac0f6612cd74e33776ee4"}, "value": 0.0, "n": 1}], "hex": "010000000129a351e3f289b610ebafce31e09503181fb264b83ed03b4b1ec2058c9cf526be000000006a473044022058f0a76ecf1897866df478f9bf358a56d5a5677749cf5431e5341aacea1a15480220796db14337ebe9b60127923f7ed5632b7ff4d1f008746bd967026452589f6eda01210301f9478e7aeb897cc680e11bcccf48abc74ff3aa4e9edc9c98a22b7bac9fbdddffffffff02508a1600000000001976a9140a4c27ff41ac4a40dd0c3e5424a45c6b67c30d4088ac0000000000000000536a4c50000077ae0001adaf350a813e09068a8e8f00af6c953dd567cf27e7e3ef3236678a6250975d38637e5e7ea8a59895ad68641c2c5b5baa10f20611f279415e8296bc9a9526289ac0f6612cd74e33776ee400000000", "vin": [{"sequence": 4294967295, "scriptSig": {"hex": "473044022058f0a76ecf1897866df478f9bf358a56d5a5677749cf5431e5341aacea1a15480220796db14337ebe9b60127923f7ed5632b7ff4d1f008746bd967026452589f6eda01210301f9478e7aeb897cc680e11bcccf48abc74ff3aa4e9edc9c98a22b7bac9fbddd", "asm": "3044022058f0a76ecf1897866df478f9bf358a56d5a5677749cf5431e5341aacea1a15480220796db14337ebe9b60127923f7ed5632b7ff4d1f008746bd967026452589f6eda[ALL] 0301f9478e7aeb897cc680e11bcccf48abc74ff3aa4e9edc9c98a22b7bac9fbddd"}, "vout": 0, "txid": "be26f59c8c05c21e4b3bd03eb864b21f180395e031ceafeb10b689f2e351a329"}], "txid": "e16840354a87de7e31e840e1f61956763c1a9ffec72c2bba4e5d07c795b0bcf9", "blocktime": 1537872475, "version": 1, "confirmations": 11486, "time": 1537872475, "locktime": 0, "vsize": 283, "size": 283}