{"hash": "e170a3e04472f2dc326167d9d3d52afd7bb120a6739b563a1d8525bb8d28b94d", "blockhash": "0000000000000000001cda96e906b7601b7a6fb1a3b62bca570a9e5d8f4b3de1", "vout": [{"scriptPubKey": {"reqSigs": 1, "hex": "76a914c7770c8bc9728bc4393c923a2ee969737837a5a188ac", "addresses": ["1KBg5qyMsD9KeixoHQCAJyGiMEZHBqTcCa"], "asm": "OP_DUP OP_HASH160 c7770c8bc9728bc4393c923a2ee969737837a5a1 OP_EQUALVERIFY OP_CHECKSIG", "type": "pubkeyhash"}, "value": 0.025356, "n": 0}], "hex": "0100000001cda3557aeae577a2cb2a53527552005a7fbb7b418bcec5d5743621b5351265f2000000006b483045022100deed1b4514f79ce98c40b625a56e1aae13c76e1a6228ce06e4930318aeeff4a602204f481991ff827fdc7ee5e37362266ebdb15ac0c968252f2028e1fa37d25f69b3012102551a8133239f2a8e0676776d61e7af1a54fe8a4d3216eb266cd84ac327c6fd72ffffffff01b0b02600000000001976a914c7770c8bc9728bc4393c923a2ee969737837a5a188ac00000000", "vin": [{"sequence": 4294967295, "scriptSig": {"hex": "483045022100deed1b4514f79ce98c40b625a56e1aae13c76e1a6228ce06e4930318aeeff4a602204f481991ff827fdc7ee5e37362266ebdb15ac0c968252f2028e1fa37d25f69b3012102551a8133239f2a8e0676776d61e7af1a54fe8a4d3216eb266cd84ac327c6fd72", "asm": "3045022100deed1b4514f79ce98c40b625a56e1aae13c76e1a6228ce06e4930318aeeff4a602204f481991ff827fdc7ee5e37362266ebdb15ac0c968252f2028e1fa37d25f69b3[ALL] 02551a8133239f2a8e0676776d61e7af1a54fe8a4d3216eb266cd84ac327c6fd72"}, "vout": 0, "txid": "f2651235b5213674d5c5ce8b417bbb7f5a00527552532acba277e5ea7a55a3cd"}], "txid": "e170a3e04472f2dc326167d9d3d52afd7bb120a6739b563a1d8525bb8d28b94d", "blocktime": 1537873282, "version": 1, "confirmations": 11481, "time": 1537873282, "locktime": 0, "vsize": 192, "size": 192}