{"hash": "e1737483b5abe6d0fc2c7016b55cde0b4378d3c6cba12a52fbeb2702056921a2", "blockhash": "0000000000000000000e13cef7c366c0283d82e591d1acd082e914b08063cdf1", "vout": [{"scriptPubKey": {"reqSigs": 1, "hex": "76a91491462698e8cd9e2d8d2b7fbb56b40d9b295ec15688ac", "addresses": ["1EF91ydeFXWN3bnMok1V8jSjCVQAVcy9mP"], "asm": "OP_DUP OP_HASH160 91462698e8cd9e2d8d2b7fbb56b40d9b295ec156 OP_EQUALVERIFY OP_CHECKSIG", "type": "pubkeyhash"}, "value": 0.011843, "n": 0}, {"scriptPubKey": {"reqSigs": 1, "hex": "a914bf58e717ac3c9e3ce85e7f6ff2ec653934526aa987", "addresses": ["3K8mVFYd99MBkaksBLZCbyXUzv2LAEvQnd"], "asm": "OP_HASH160 bf58e717ac3c9e3ce85e7f6ff2ec653934526aa9 OP_EQUAL", "type": "scripthash"}, "value": 0.03815942, "n": 1}], "hex": "0200000001d85eb2e4c97bdcb99d9f5fda0d32126b723bb1929c1c4df5b381f9f6d1d7fc82010000006b483045022100a389576f46215b2c38042f4827a1ce4fd466cc05eab254ad5cd70fd1b9a739da0220216eafedf1326666a011e6328a6d6dc926f66b26d4c60d92520c5ca42a35159c012103aa01a849e0f214c003085fa80a0f7ce99e2fdb4ca4911b8836894fc3ddeb4265feffffff022c121200000000001976a91491462698e8cd9e2d8d2b7fbb56b40d9b295ec15688ac063a3a000000000017a914bf58e717ac3c9e3ce85e7f6ff2ec653934526aa98710490800", "vin": [{"sequence": 4294967294, "scriptSig": {"hex": "483045022100a389576f46215b2c38042f4827a1ce4fd466cc05eab254ad5cd70fd1b9a739da0220216eafedf1326666a011e6328a6d6dc926f66b26d4c60d92520c5ca42a35159c012103aa01a849e0f214c003085fa80a0f7ce99e2fdb4ca4911b8836894fc3ddeb4265", "asm": "3045022100a389576f46215b2c38042f4827a1ce4fd466cc05eab254ad5cd70fd1b9a739da0220216eafedf1326666a011e6328a6d6dc926f66b26d4c60d92520c5ca42a35159c[ALL] 03aa01a849e0f214c003085fa80a0f7ce99e2fdb4ca4911b8836894fc3ddeb4265"}, "vout": 1, "txid": "82fcd7d1f6f981b3f54d1c9c92b13b726b12320dda5f9f9db9dc7bc9e4b25ed8"}], "txid": "e1737483b5abe6d0fc2c7016b55cde0b4378d3c6cba12a52fbeb2702056921a2", "blocktime": 1537871767, "version": 2, "confirmations": 11490, "time": 1537871767, "locktime": 542992, "vsize": 224, "size": 224}