{"hash": "a4510071054953a0668a10315f6fbda87d933e7ca1993a418bb45187c5092f8f", "blockhash": "00000000000000000018f53835495a110e01622372bf6ae95dc86f2b0ab887b0", "vout": [{"scriptPubKey": {"reqSigs": 1, "hex": "76a914ab29ebcd81d027309701eaae0cdd23a84ff98d4588ac", "addresses": ["1Gc2mXt2L9MaDunwvU5gaqVoY4TmQ3ys35"], "asm": "OP_DUP OP_HASH160 ab29ebcd81d027309701eaae0cdd23a84ff98d45 OP_EQUALVERIFY OP_CHECKSIG", "type": "pubkeyhash"}, "value": 0.98589265, "n": 0}, {"scriptPubKey": {"reqSigs": 1, "hex": "76a91420cf3cba9ff51c47dd94d1e5a0865eade04cfe9a88ac", "addresses": ["13zUtEXcSrm7GFFLy8zLqfMshqV5bdknVy"], "asm": "OP_DUP OP_HASH160 20cf3cba9ff51c47dd94d1e5a0865eade04cfe9a OP_EQUALVERIFY OP_CHECKSIG", "type": "pubkeyhash"}, "value": 0.4996, "n": 1}, {"scriptPubKey": {"reqSigs": 1, "hex": "a914f3988317ad34ce3aae61876bb859b712f295c85687", "addresses": ["3Pu2ptCpEzGxYC1NpbFEXLuF3pm4NJaTc5"], "asm": "OP_HASH160 f3988317ad34ce3aae61876bb859b712f295c856 OP_EQUAL", "type": "scripthash"}, "value": 0.1896, "n": 2}, {"scriptPubKey": {"reqSigs": 1, "hex": "76a914cebb2851a9c7cfe2582c12ecaf7f3ff4383d1dc088ac", "addresses": ["1Kr6QSydW9bFQG1mXiPNNu6WpJGmUa9i1g"], "asm": "OP_DUP OP_HASH160 cebb2851a9c7cfe2582c12ecaf7f3ff4383d1dc0 OP_EQUALVERIFY OP_CHECKSIG", "type": "pubkeyhash"}, "value": 12.03187957, "n": 3}], "hex": "02000000000106e9523df9ca0467a5ae679cc30cec9e1af53cac3e354b5bb90f17738b7668f9210000000017160014105edc26e6063c951062f15f36df282564477219fffffffff3c27d0b07cfa44a22cdb3b5e01371d1db21160b2a36f4bf961ce709bbc3063900000000171600140c2675dc45894298cc8ed1cc10774fa01036e0c7ffffffff0b1416b52b157817677d2e1587c7dae948428af5f453a9b93a9b7ff3606ec12c010000006b483045022100d1f4e21f5b2bc6bb659a1b7bd0c9f2cdcf597809a6922a15209ce7672c3df3b0022011e89e1935f4faf82fe9e2f9f9d8cc117986614d0bcd783f8370f015bd19a2510121025ee4c6892d120b62a2538f09fd5b5a9bc03ba2d77679a4dcba483245b7c604e2ffffffff795e4cef23ab8864f460b641d8987240f74b0adb523494b89454bfca412cbda4010000006a473044022066cca30228b5604e543bdbd6109b0a69c4460d35be8a81b621e5ea507448891402203eb794d1ff18ed8aee1e58d84e4d7aa0db581a915dc2382eec4e2d797125fd0a012103603b08fdeb26eb25e540dbcdd51150843c48fa38b48e6e0122939a14e5aa225dffffffff7799d6ef6c9b320ff2de58c90c84be9d13bef4c4cd88ad84dedf8d06bbb5ffa0050000006a473044022026ee446e871d8f50699c35a9f2e4ae127924ab3fb1e694d2bacb64974b5c8e530220370dfc22821d29b6299686fa89ea3782b6a4dee211702d4d013c0d57275f57a3012102baeb6b1f95ab289f7f6de21c76eee86a90cf3a4d9597b2d3c23f9d6fcb1faf27ffffffffa4f359a3425e8d928e8da933fa151eb90d2c53c3bbd8177eaeae672b021b13fc000000006b483045022100ff7536a7bf32c2b7da8d86e07c4c72833fc0f82a00a38ad6a582d8e664fc498c0220362986b46929f29b5b61df56c77d655bc83c13299cbe7750e9dd6c8c746184370121024eefe0f19c2cce8e16da5685a1a201b2dd7da6eac1d08945416d63fa372efdceffffffff04515ae005000000001976a914ab29ebcd81d027309701eaae0cdd23a84ff98d4588ac4054fa02000000001976a91420cf3cba9ff51c47dd94d1e5a0865eade04cfe9a88ac804e21010000000017a914f3988317ad34ce3aae61876bb859b712f295c85687f530b747000000001976a914cebb2851a9c7cfe2582c12ecaf7f3ff4383d1dc088ac02473044022001cb8c58d85ff3c4f7251aec1cec1f8a5b37d83bbae730590d87a45f9ec475f602200f8dbf8b4f13be2c1c67d6676966ac824ca972ce22e1bf53f02d133ad5036d9f012102112999db4fb82e0f5886685e0326f74a5bdbbfb233fd2bbba9e36a3966b7fdca02483045022100bd0a2f1f97bf30e3000d4c6f3013e5adb032a1ddb2d20ef9c5c0ee9769e8cac4022062745668b4182dcfb17d1d73af10eefeabebe8e20ff008f743161334ffa01bf601210312629efac563b42b122be8e5648d64fbe2b84f1112ecc5dd0eb7aa036348dc5e0000000000000000", "vin": [{"txinwitness": ["3044022001cb8c58d85ff3c4f7251aec1cec1f8a5b37d83bbae730590d87a45f9ec475f602200f8dbf8b4f13be2c1c67d6676966ac824ca972ce22e1bf53f02d133ad5036d9f01", "02112999db4fb82e0f5886685e0326f74a5bdbbfb233fd2bbba9e36a3966b7fdca"], "sequence": 4294967295, "scriptSig": {"hex": "160014105edc26e6063c951062f15f36df282564477219", "asm": "0014105edc26e6063c951062f15f36df282564477219"}, "vout": 0, "txid": "21f968768b73170fb95b4b353eac3cf51a9eec0cc39c67aea56704caf93d52e9"}, {"txinwitness": ["3045022100bd0a2f1f97bf30e3000d4c6f3013e5adb032a1ddb2d20ef9c5c0ee9769e8cac4022062745668b4182dcfb17d1d73af10eefeabebe8e20ff008f743161334ffa01bf601", "0312629efac563b42b122be8e5648d64fbe2b84f1112ecc5dd0eb7aa036348dc5e"], "sequence": 4294967295, "scriptSig": {"hex": "1600140c2675dc45894298cc8ed1cc10774fa01036e0c7", "asm": "00140c2675dc45894298cc8ed1cc10774fa01036e0c7"}, "vout": 0, "txid": "3906c3bb09e71c96bff4362a0b1621dbd17113e0b5b3cd224aa4cf070b7dc2f3"}, {"sequence": 4294967295, "scriptSig": {"hex": "483045022100d1f4e21f5b2bc6bb659a1b7bd0c9f2cdcf597809a6922a15209ce7672c3df3b0022011e89e1935f4faf82fe9e2f9f9d8cc117986614d0bcd783f8370f015bd19a2510121025ee4c6892d120b62a2538f09fd5b5a9bc03ba2d77679a4dcba483245b7c604e2", "asm": "3045022100d1f4e21f5b2bc6bb659a1b7bd0c9f2cdcf597809a6922a15209ce7672c3df3b0022011e89e1935f4faf82fe9e2f9f9d8cc117986614d0bcd783f8370f015bd19a251[ALL] 025ee4c6892d120b62a2538f09fd5b5a9bc03ba2d77679a4dcba483245b7c604e2"}, "vout": 1, "txid": "2cc16e60f37f9b3ab9a953f4f58a4248e9dac787152e7d671778152bb516140b"}, {"sequence": 4294967295, "scriptSig": {"hex": "473044022066cca30228b5604e543bdbd6109b0a69c4460d35be8a81b621e5ea507448891402203eb794d1ff18ed8aee1e58d84e4d7aa0db581a915dc2382eec4e2d797125fd0a012103603b08fdeb26eb25e540dbcdd51150843c48fa38b48e6e0122939a14e5aa225d", "asm": "3044022066cca30228b5604e543bdbd6109b0a69c4460d35be8a81b621e5ea507448891402203eb794d1ff18ed8aee1e58d84e4d7aa0db581a915dc2382eec4e2d797125fd0a[ALL] 03603b08fdeb26eb25e540dbcdd51150843c48fa38b48e6e0122939a14e5aa225d"}, "vout": 1, "txid": "a4bd2c41cabf5494b8943452db0a4bf7407298d841b660f46488ab23ef4c5e79"}, {"sequence": 4294967295, "scriptSig": {"hex": "473044022026ee446e871d8f50699c35a9f2e4ae127924ab3fb1e694d2bacb64974b5c8e530220370dfc22821d29b6299686fa89ea3782b6a4dee211702d4d013c0d57275f57a3012102baeb6b1f95ab289f7f6de21c76eee86a90cf3a4d9597b2d3c23f9d6fcb1faf27", "asm": "3044022026ee446e871d8f50699c35a9f2e4ae127924ab3fb1e694d2bacb64974b5c8e530220370dfc22821d29b6299686fa89ea3782b6a4dee211702d4d013c0d57275f57a3[ALL] 02baeb6b1f95ab289f7f6de21c76eee86a90cf3a4d9597b2d3c23f9d6fcb1faf27"}, "vout": 5, "txid": "a0ffb5bb068ddfde84ad88cdc4f4be139dbe840cc958def20f329b6cefd69977"}, {"sequence": 4294967295, "scriptSig": {"hex": "483045022100ff7536a7bf32c2b7da8d86e07c4c72833fc0f82a00a38ad6a582d8e664fc498c0220362986b46929f29b5b61df56c77d655bc83c13299cbe7750e9dd6c8c746184370121024eefe0f19c2cce8e16da5685a1a201b2dd7da6eac1d08945416d63fa372efdce", "asm": "3045022100ff7536a7bf32c2b7da8d86e07c4c72833fc0f82a00a38ad6a582d8e664fc498c0220362986b46929f29b5b61df56c77d655bc83c13299cbe7750e9dd6c8c74618437[ALL] 024eefe0f19c2cce8e16da5685a1a201b2dd7da6eac1d08945416d63fa372efdce"}, "vout": 0, "txid": "fc131b022b67aeae7e17d8bbc3532c0db91e15fa33a98d8e928d5e42a359f3a4"}], "txid": "e176e87dfa7bff5afc0a398a018462fc653793e48ecc0fa48c314f69144ce7c9", "blocktime": 1537870928, "version": 2, "confirmations": 11512, "time": 1537870928, "locktime": 0, "vsize": 918, "size": 1083}