{"hash": "ff835df9270c5f86fc1da2855f063024cdcc293527f4dd22a2dddd3fe10cc8e8", "blockhash": "0000000000000000000e13cef7c366c0283d82e591d1acd082e914b08063cdf1", "vout": [{"scriptPubKey": {"reqSigs": 1, "hex": "76a91426862b8cb37fd07ee25b1cb0d3c82fb9d8955e6888ac", "addresses": ["14WhQbNb7bAaf7FUjvmJEAUrd4g63NxYsL"], "asm": "OP_DUP OP_HASH160 26862b8cb37fd07ee25b1cb0d3c82fb9d8955e68 OP_EQUALVERIFY OP_CHECKSIG", "type": "pubkeyhash"}, "value": 0.004, "n": 0}, {"scriptPubKey": {"reqSigs": 1, "hex": "001424b52d248b03ee001f0ac3fd7bb1f0e8115fa840", "addresses": ["bc1qyj6j6fytq0hqq8c2c07hhv0saqg4l2zqg39fya"], "asm": "0 24b52d248b03ee001f0ac3fd7bb1f0e8115fa840", "type": "witness_v0_keyhash"}, "value": 0.04211694, "n": 1}], "hex": "010000000001017750e5ec6bc94deaea7bfac154b994224fa50009cc4983361abf77158fa70d910000000000ffffffff02801a0600000000001976a91426862b8cb37fd07ee25b1cb0d3c82fb9d8955e6888acee4340000000000016001424b52d248b03ee001f0ac3fd7bb1f0e8115fa8400247304402207376ec81638b27c157ec8db31888c728127910647d995ba8c41f932ebf44cc3702203ada924d5a42829ef629c64043ae4f401405d54c4e7120543297d19f061862cd0121037d7e5b0e30ef44c7cee142399e3f9ebff27a91728b7fbb5f7afcc2b81b5db97f00000000", "vin": [{"txinwitness": ["304402207376ec81638b27c157ec8db31888c728127910647d995ba8c41f932ebf44cc3702203ada924d5a42829ef629c64043ae4f401405d54c4e7120543297d19f061862cd01", "037d7e5b0e30ef44c7cee142399e3f9ebff27a91728b7fbb5f7afcc2b81b5db97f"], "sequence": 4294967295, "scriptSig": {"hex": "", "asm": ""}, "vout": 0, "txid": "910da78f1577bf1a368349cc0900a54f2294b954c1fa7beaea4dc96bece55077"}], "txid": "e176c864996fc2c9f600d36ef45ebd3b71c174c93fd2fb7eb257a4ab69619a0e", "blocktime": 1537871767, "version": 1, "confirmations": 11495, "time": 1537871767, "locktime": 0, "vsize": 144, "size": 225}