{"hash": "e17889b96232406313ccc67dba8c441e4f261ea6e4398662799806caa06e7bc7", "blockhash": "0000000000000000000baef3f32e3676a92c3b2e5da21b426e4f302fc371ce76", "vout": [{"scriptPubKey": {"reqSigs": 1, "hex": "76a9142168af2d4ba646d648b81592bc241fa69434066688ac", "addresses": ["143ehvUiq3rx2vEJ2KPDH3smRyKEWxEXPC"], "asm": "OP_DUP OP_HASH160 2168af2d4ba646d648b81592bc241fa694340666 OP_EQUALVERIFY OP_CHECKSIG", "type": "pubkeyhash"}, "value": 0.05475442, "n": 0}, {"scriptPubKey": {"reqSigs": 1, "hex": "76a9148930078b727314dd7f96cfb4f3a72d01296d8f0a88ac", "addresses": ["1DWP7RmGw5hUvKSKiFGBt4t5fMR4WpTyiL"], "asm": "OP_DUP OP_HASH160 8930078b727314dd7f96cfb4f3a72d01296d8f0a OP_EQUALVERIFY OP_CHECKSIG", "type": "pubkeyhash"}, "value": 0.0657543, "n": 1}], "hex": "01000000014a6b1fd17e072718b63344842d1d95931924c921bea111357cb1dc34bb45826d000000006b483045022100e79235e2581613b85684522023c15fec43833f94e867f50c49c4c9ba5b1a41ee022069468a093431ebcff923033c3632dfd47d8d531f8f2055c6c94a9b0f36f482a801210275aed88be0b2812d160e796b682007b16fe7db0df265fc61f8eb27d0d07ae9f1ffffffff02728c5300000000001976a9142168af2d4ba646d648b81592bc241fa69434066688ac46556400000000001976a9148930078b727314dd7f96cfb4f3a72d01296d8f0a88ac00000000", "vin": [{"sequence": 4294967295, "scriptSig": {"hex": "483045022100e79235e2581613b85684522023c15fec43833f94e867f50c49c4c9ba5b1a41ee022069468a093431ebcff923033c3632dfd47d8d531f8f2055c6c94a9b0f36f482a801210275aed88be0b2812d160e796b682007b16fe7db0df265fc61f8eb27d0d07ae9f1", "asm": "3045022100e79235e2581613b85684522023c15fec43833f94e867f50c49c4c9ba5b1a41ee022069468a093431ebcff923033c3632dfd47d8d531f8f2055c6c94a9b0f36f482a8[ALL] 0275aed88be0b2812d160e796b682007b16fe7db0df265fc61f8eb27d0d07ae9f1"}, "vout": 0, "txid": "6d8245bb34dcb17c3511a1be21c9241993951d2d844433b61827077ed11f6b4a"}], "txid": "e17889b96232406313ccc67dba8c441e4f261ea6e4398662799806caa06e7bc7", "blocktime": 1537876114, "version": 1, "confirmations": 11460, "time": 1537876114, "locktime": 0, "vsize": 226, "size": 226}