{"hash": "e179f49b3957aeb829b34e913327c516316ebd6f478b9cd45c13b59db93488cd", "blockhash": "0000000000000000001f0ddff1eddb255c1121bcd4da4f1bc9a0da00cae72433", "vout": [{"scriptPubKey": {"reqSigs": 1, "hex": "76a914ba71db94930bac182495c6b3d71b1eed55360bec88ac", "addresses": ["1Hzq5eyBQLfLHnagHP9dhJoPR4ZVNTpoR6"], "asm": "OP_DUP OP_HASH160 ba71db94930bac182495c6b3d71b1eed55360bec OP_EQUALVERIFY OP_CHECKSIG", "type": "pubkeyhash"}, "value": 0.01263112, "n": 0}, {"scriptPubKey": {"reqSigs": 1, "hex": "76a91474f6ddec5ec253874e333c315c848da22151161288ac", "addresses": ["1BfT7s8srmXouRfJXG1Z2igdxjhGYh2g2f"], "asm": "OP_DUP OP_HASH160 74f6ddec5ec253874e333c315c848da221511612 OP_EQUALVERIFY OP_CHECKSIG", "type": "pubkeyhash"}, "value": 0.3348, "n": 1}], "hex": "02000000031d6b25a967093a42874c49457b82c1dfeee2525ba8d27e56af7c7cb56a53c6fe010000006a4730440220751be778392fd4fa6fdb86ee50cce29c38518618ea001cc6e3fa61da783835bc022061c833d9e196a6c04c36c4bdb03d05b309680c82c88459928941560efcb4274c0121021a87497f18ab352aaea567d9a502c6a17d8f31699c97e2c8b54047dc8a73a9bafeffffff63d8d51b4bee47a7bd8827a6185caaf18b542220fa02b1f73a61a3072d1373c3000000006a47304402201bf13fe462a3abd55a4c3c0bf83fd7713ec521bb69039105e8c506238efeb251022044f7847beac8a9e105b16c8468a71d7375fe6ce93909053d0225416eda6891d9012103525ee1bd9d4b0679b4506f49d4d61a28dab73516aa51d8b7188860dd49a117b4feffffffca649a87f0d225570ea0e4e971cc5d255d5f894e466c9d87f8ce706d48cfe827010000006a47304402205669348309d18bb5e00c0921ed9068695eec671c09625a1d70b94305e48ccb3b0220645b6ed1e51116271a9f8278393be49df804f34da5b9d9250799f2eaadb5f45101210342c9e7008e6efa1dc0688b6721d3e3c410527207b76aa9ce9e7611cd195912c1feffffff0208461300000000001976a914ba71db94930bac182495c6b3d71b1eed55360bec88ac40ddfe01000000001976a91474f6ddec5ec253874e333c315c848da22151161288ac11490800", "vin": [{"sequence": 4294967294, "scriptSig": {"hex": "4730440220751be778392fd4fa6fdb86ee50cce29c38518618ea001cc6e3fa61da783835bc022061c833d9e196a6c04c36c4bdb03d05b309680c82c88459928941560efcb4274c0121021a87497f18ab352aaea567d9a502c6a17d8f31699c97e2c8b54047dc8a73a9ba", "asm": "30440220751be778392fd4fa6fdb86ee50cce29c38518618ea001cc6e3fa61da783835bc022061c833d9e196a6c04c36c4bdb03d05b309680c82c88459928941560efcb4274c[ALL] 021a87497f18ab352aaea567d9a502c6a17d8f31699c97e2c8b54047dc8a73a9ba"}, "vout": 1, "txid": "fec6536ab57c7caf567ed2a85b52e2eedfc1827b45494c87423a0967a9256b1d"}, {"sequence": 4294967294, "scriptSig": {"hex": "47304402201bf13fe462a3abd55a4c3c0bf83fd7713ec521bb69039105e8c506238efeb251022044f7847beac8a9e105b16c8468a71d7375fe6ce93909053d0225416eda6891d9012103525ee1bd9d4b0679b4506f49d4d61a28dab73516aa51d8b7188860dd49a117b4", "asm": "304402201bf13fe462a3abd55a4c3c0bf83fd7713ec521bb69039105e8c506238efeb251022044f7847beac8a9e105b16c8468a71d7375fe6ce93909053d0225416eda6891d9[ALL] 03525ee1bd9d4b0679b4506f49d4d61a28dab73516aa51d8b7188860dd49a117b4"}, "vout": 0, "txid": "c373132d07a3613af7b102fa2022548bf1aa5c18a62788bda747ee4b1bd5d863"}, {"sequence": 4294967294, "scriptSig": {"hex": "47304402205669348309d18bb5e00c0921ed9068695eec671c09625a1d70b94305e48ccb3b0220645b6ed1e51116271a9f8278393be49df804f34da5b9d9250799f2eaadb5f45101210342c9e7008e6efa1dc0688b6721d3e3c410527207b76aa9ce9e7611cd195912c1", "asm": "304402205669348309d18bb5e00c0921ed9068695eec671c09625a1d70b94305e48ccb3b0220645b6ed1e51116271a9f8278393be49df804f34da5b9d9250799f2eaadb5f451[ALL] 0342c9e7008e6efa1dc0688b6721d3e3c410527207b76aa9ce9e7611cd195912c1"}, "vout": 1, "txid": "27e8cf486d70cef8879d6c464e895f5d255dcc71e9e4a00e5725d2f0879a64ca"}], "txid": "e179f49b3957aeb829b34e913327c516316ebd6f478b9cd45c13b59db93488cd", "blocktime": 1537872018, "version": 2, "confirmations": 11489, "time": 1537872018, "locktime": 542993, "vsize": 519, "size": 519}