{"hash": "b3639f78dd039b80740ee2f88d7d98f79b15dc0098890a44b28f037f27e273e5", "blockhash": "0000000000000000000e13cef7c366c0283d82e591d1acd082e914b08063cdf1", "vout": [{"scriptPubKey": {"reqSigs": 1, "hex": "76a9144d63516648c6f7baeedf3fb89c6d8aee358489a388ac", "addresses": ["184C1WFMRKACCd6rtVgnLfvg4rCm3jaRoc"], "asm": "OP_DUP OP_HASH160 4d63516648c6f7baeedf3fb89c6d8aee358489a3 OP_EQUALVERIFY OP_CHECKSIG", "type": "pubkeyhash"}, "value": 0.00445995, "n": 0}, {"scriptPubKey": {"reqSigs": 1, "hex": "a91408c364340a91e77e4376b26fdad3b5aedc5661f787", "addresses": ["32VMQ7Th4qGhbDYY68FZrfSF9hTbsPivgt"], "asm": "OP_HASH160 08c364340a91e77e4376b26fdad3b5aedc5661f7 OP_EQUAL", "type": "scripthash"}, "value": 0.0395977, "n": 1}], "hex": "0100000000010141954fcb1703ca819a69db924a007b9e7bcef61b7fedd0e6bcc07664b90e4ac4010000002322002027561ef61439ff4994ea3793249bbb358319edb59fff63c1eeada48f299e81b5ffffffff022bce0600000000001976a9144d63516648c6f7baeedf3fb89c6d8aee358489a388acda6b3c000000000017a91408c364340a91e77e4376b26fdad3b5aedc5661f7870400483045022100ae59f8885644f0c00ac3185f43a55497152e87c63470b040478ad7a9e2cc297002205272fb8c4f97b842d9709998fa0367f0daf78016f2b2e24f5bc1fac6e1c6a2f20147304402201d7e900a20df2d295d16ba79064dfddeb0e8f8c213dbb6c4b4bb2dbdb90d87a302205d7f5f85e8fb0a4eb3e55e6ea33a7d1e710d25802875d3983645bdf43a2f1b820147522102f484437eae67e7d1f9cf7235bd52510c99f379408a1f6fe737011d4bc259358a2103871fc2ca08e6950b38867e8e6a0e94ee625223d3aa0df5c65f414c6d784467e252ae00000000", "vin": [{"txinwitness": ["", "3045022100ae59f8885644f0c00ac3185f43a55497152e87c63470b040478ad7a9e2cc297002205272fb8c4f97b842d9709998fa0367f0daf78016f2b2e24f5bc1fac6e1c6a2f201", "304402201d7e900a20df2d295d16ba79064dfddeb0e8f8c213dbb6c4b4bb2dbdb90d87a302205d7f5f85e8fb0a4eb3e55e6ea33a7d1e710d25802875d3983645bdf43a2f1b8201", "522102f484437eae67e7d1f9cf7235bd52510c99f379408a1f6fe737011d4bc259358a2103871fc2ca08e6950b38867e8e6a0e94ee625223d3aa0df5c65f414c6d784467e252ae"], "sequence": 4294967295, "scriptSig": {"hex": "22002027561ef61439ff4994ea3793249bbb358319edb59fff63c1eeada48f299e81b5", "asm": "002027561ef61439ff4994ea3793249bbb358319edb59fff63c1eeada48f299e81b5"}, "vout": 1, "txid": "c44a0eb96476c0bce6d0ed7f1bf6ce7b9e7b004a92db699a81ca0317cb4f9541"}], "txid": "e1835f8af2e4af72599e2b8eb812cd95052997eff8e2149b7a64409046528a40", "blocktime": 1537871767, "version": 1, "confirmations": 11495, "time": 1537871767, "locktime": 0, "vsize": 208, "size": 373}