{"hash": "e185da0d9fc08750af7ffdea5c017f173e0dbae198176b014306a5b9a7e5cb31", "blockhash": "000000000000000000022b45ed06c6f4ccd3cf7fb5ba4856ebd2e58215665228", "vout": [{"scriptPubKey": {"reqSigs": 1, "hex": "76a91421ce9aaae02b32e397e6d816aea7a4be1efa9bd288ac", "addresses": ["145koSWSoF9xzA6MmPF3otTXRUGcgZNgVX"], "asm": "OP_DUP OP_HASH160 21ce9aaae02b32e397e6d816aea7a4be1efa9bd2 OP_EQUALVERIFY OP_CHECKSIG", "type": "pubkeyhash"}, "value": 0.005, "n": 0}, {"scriptPubKey": {"reqSigs": 1, "hex": "76a91488d924f51033b74a895863a5fb57fd545529df7d88ac", "addresses": ["1DUb2YYbQA1jjaNYzVXLZ7ZioEhLXtbUru"], "asm": "OP_DUP OP_HASH160 88d924f51033b74a895863a5fb57fd545529df7d OP_EQUALVERIFY OP_CHECKSIG", "type": "pubkeyhash"}, "value": 1.39425153, "n": 1}], "hex": "0100000001e24b89c6d59eaa04204f1fdbd86a817c7b552958cafa81ee60c9066c75110c34010000006b483045022100f3c24b8e0cfa9385c38ac307f1dc7399c6dd4f55591c6c9561d0136c07eb2bd30220572920040387142db0a448721978b4440dedaae708a6e1b73a697eeb371257270121030888863fcb4cdf5b7d33b40e613af35df8f39d576e7972238b0d396cd3fcc3f2ffffffff0220a10700000000001976a91421ce9aaae02b32e397e6d816aea7a4be1efa9bd288ac81754f08000000001976a91488d924f51033b74a895863a5fb57fd545529df7d88ac00000000", "vin": [{"sequence": 4294967295, "scriptSig": {"hex": "483045022100f3c24b8e0cfa9385c38ac307f1dc7399c6dd4f55591c6c9561d0136c07eb2bd30220572920040387142db0a448721978b4440dedaae708a6e1b73a697eeb371257270121030888863fcb4cdf5b7d33b40e613af35df8f39d576e7972238b0d396cd3fcc3f2", "asm": "3045022100f3c24b8e0cfa9385c38ac307f1dc7399c6dd4f55591c6c9561d0136c07eb2bd30220572920040387142db0a448721978b4440dedaae708a6e1b73a697eeb37125727[ALL] 030888863fcb4cdf5b7d33b40e613af35df8f39d576e7972238b0d396cd3fcc3f2"}, "vout": 1, "txid": "340c11756c06c960ee81faca5829557b7c816ad8db1f4f2004aa9ed5c6894be2"}], "txid": "e185da0d9fc08750af7ffdea5c017f173e0dbae198176b014306a5b9a7e5cb31", "blocktime": 1537869901, "version": 1, "confirmations": 11522, "time": 1537869901, "locktime": 0, "vsize": 226, "size": 226}