{"hash": "e187f5e04e9149dde58086d287457ab78be6777b75c6b4a10d5ce0ac6a6a7d0c", "blockhash": "0000000000000000001f0ddff1eddb255c1121bcd4da4f1bc9a0da00cae72433", "vout": [{"scriptPubKey": {"reqSigs": 1, "hex": "a91433bfca1f820a8c1222167dd6a099c47255debaa687", "addresses": ["36Qe96eZNmVqrUfaiTeV8LWtie8CxiHRyi"], "asm": "OP_HASH160 33bfca1f820a8c1222167dd6a099c47255debaa6 OP_EQUAL", "type": "scripthash"}, "value": 0.01114874, "n": 0}], "hex": "0200000001dec6ab50380bf3a8b29baed1f5f30cb56a09b1db68a35488eb4682e07fd24ebf790000006b483045022100af68bc01c231a9a28366f5d44b7ae8f954339215bbeda54adb2534e0e068b749022032f6ff744164f9f35f70c8f660d951e76b6c1a22be81b6f4f1cc29c27c8f3613012103dd630d62e17931fc60f857e6c9a9859b3c354113fe1641f0693dbb1c80ba71a7feffffff01fa0211000000000017a91433bfca1f820a8c1222167dd6a099c47255debaa68711490800", "vin": [{"sequence": 4294967294, "scriptSig": {"hex": "483045022100af68bc01c231a9a28366f5d44b7ae8f954339215bbeda54adb2534e0e068b749022032f6ff744164f9f35f70c8f660d951e76b6c1a22be81b6f4f1cc29c27c8f3613012103dd630d62e17931fc60f857e6c9a9859b3c354113fe1641f0693dbb1c80ba71a7", "asm": "3045022100af68bc01c231a9a28366f5d44b7ae8f954339215bbeda54adb2534e0e068b749022032f6ff744164f9f35f70c8f660d951e76b6c1a22be81b6f4f1cc29c27c8f3613[ALL] 03dd630d62e17931fc60f857e6c9a9859b3c354113fe1641f0693dbb1c80ba71a7"}, "vout": 121, "txid": "bf4ed27fe08246eb8854a368dbb1096ab50cf3f5d1ae9bb2a8f30b3850abc6de"}], "txid": "e187f5e04e9149dde58086d287457ab78be6777b75c6b4a10d5ce0ac6a6a7d0c", "blocktime": 1537872018, "version": 2, "confirmations": 11489, "time": 1537872018, "locktime": 542993, "vsize": 190, "size": 190}