{"hash": "645a16560e628c505258dd9497a32c32206bf9d85a2429b6a5a31ebeb7e494a2", "blockhash": "0000000000000000000baef3f32e3676a92c3b2e5da21b426e4f302fc371ce76", "vout": [{"scriptPubKey": {"reqSigs": 1, "hex": "76a9147c154ed1dc59609e3d26abb2df2ea3d587cd8c4188ac", "addresses": ["1CK6KHY6MHgYvmRQ4PAafKYDrg1ejbH1cE"], "asm": "OP_DUP OP_HASH160 7c154ed1dc59609e3d26abb2df2ea3d587cd8c41 OP_EQUALVERIFY OP_CHECKSIG", "type": "pubkeyhash"}, "value": 12.64876319, "n": 0}, {"scriptPubKey": {"type": "nulldata", "hex": "6a4c2952534b424c4f434b3a3fa0fc457dacb2e845a67e82f567a2b6b692d252ed3066a74dcba25839d49f40", "asm": "OP_RETURN 52534b424c4f434b3a3fa0fc457dacb2e845a67e82f567a2b6b692d252ed3066a74dcba25839d49f40"}, "value": 0.0, "n": 1}, {"scriptPubKey": {"type": "nulldata", "hex": "6a24aa21a9ed468b8f65848492c5a231aa008b3f79e58587f7a2995c73cbc80fe9dd6ab63360", "asm": "OP_RETURN aa21a9ed468b8f65848492c5a231aa008b3f79e58587f7a2995c73cbc80fe9dd6ab63360"}, "value": 0.0, "n": 2}], "hex": "010000000001010000000000000000000000000000000000000000000000000000000000000000ffffffff4503184908fabe6d6dad61b790c00b831813177872c824a03391af99a3f6851b67ed147eab7152bed101000000000000000b6507006dbf297a250000b026082f736c7573682f00000000031f7b644b000000001976a9147c154ed1dc59609e3d26abb2df2ea3d587cd8c4188ac00000000000000002c6a4c2952534b424c4f434b3a3fa0fc457dacb2e845a67e82f567a2b6b692d252ed3066a74dcba25839d49f400000000000000000266a24aa21a9ed468b8f65848492c5a231aa008b3f79e58587f7a2995c73cbc80fe9dd6ab633600120000000000000000000000000000000000000000000000000000000000000000000000000", "vin": [{"coinbase": "03184908fabe6d6dad61b790c00b831813177872c824a03391af99a3f6851b67ed147eab7152bed101000000000000000b6507006dbf297a250000b026082f736c7573682f", "sequence": 0}], "txid": "e1876a3ab2ebb31f8d5223ec597a000914e8f372081af6d9b250a74930986598", "blocktime": 1537876114, "version": 1, "confirmations": 11459, "time": 1537876114, "locktime": 0, "vsize": 263, "size": 290}