{"hash": "46e4f30215f36182107692ce87e64c43a252064dd29b8aef4786b68914f5ddaa", "blockhash": "00000000000000000017f5eb5941039fbcee6240d03bc1f2f8e35350df66a1d8", "vout": [{"scriptPubKey": {"reqSigs": 1, "hex": "a914eb8f6f0e5582312cc02b4d8791cf4c3c732caa0187", "addresses": ["3PAYYab4d2KszrSTv1kqqVxgXeC2yTj2ib"], "asm": "OP_HASH160 eb8f6f0e5582312cc02b4d8791cf4c3c732caa01 OP_EQUAL", "type": "scripthash"}, "value": 0.01528171, "n": 0}, {"scriptPubKey": {"reqSigs": 1, "hex": "76a9148053654f9858ee7f6cfbef207f983124f192322988ac", "addresses": ["1ChXPzZ5NBYYQC6zNoA79L1CejG5yGrP2h"], "asm": "OP_DUP OP_HASH160 8053654f9858ee7f6cfbef207f983124f1923229 OP_EQUALVERIFY OP_CHECKSIG", "type": "pubkeyhash"}, "value": 0.00204735, "n": 1}], "hex": "0200000000010137f8076a6ec173715dff952887f9fb2414f9b3bf5264e7e25a2db66476e0b01f00000000171600147bd9e16c9cdaa202ec186cf6846de3d75afd6315feffffff026b5117000000000017a914eb8f6f0e5582312cc02b4d8791cf4c3c732caa0187bf1f0300000000001976a9148053654f9858ee7f6cfbef207f983124f192322988ac02483045022100817c04b2459e0a378c0f21ae8b7f3a5918fd0e8ab6a521b8d6035fde2868087902204e0f73f24d75aef621c905a7a53e97b3c818d03f3283e727948e7d230f1e8a300121039138d019ef19483f217fc4e23def07bf17628c6d41b58198d289279ab483287915490800", "vin": [{"txinwitness": ["3045022100817c04b2459e0a378c0f21ae8b7f3a5918fd0e8ab6a521b8d6035fde2868087902204e0f73f24d75aef621c905a7a53e97b3c818d03f3283e727948e7d230f1e8a3001", "039138d019ef19483f217fc4e23def07bf17628c6d41b58198d289279ab4832879"], "sequence": 4294967294, "scriptSig": {"hex": "1600147bd9e16c9cdaa202ec186cf6846de3d75afd6315", "asm": "00147bd9e16c9cdaa202ec186cf6846de3d75afd6315"}, "vout": 0, "txid": "1fb0e07664b62d5ae2e76452bfb3f91424fbf9872895ff5d7173c16e6a07f837"}], "txid": "e189a89d45cf762d74c0842843e4427d9fc3515b7efbabe571ef7bc281a2602b", "blocktime": 1537874412, "version": 2, "confirmations": 11468, "time": 1537874412, "locktime": 542997, "vsize": 168, "size": 250}