{"hash": "e190354c28dc80425a8fa819ccc96d6522e505e32ac46b567e9fbbd01011b491", "blockhash": "00000000000000000004ffacab907a6b429b9a5745fa0b75af4234bf69dd7176", "vout": [{"scriptPubKey": {"reqSigs": 1, "hex": "a914ce6add8e3d18973b2d71d03e215bc5c29a66123a87", "addresses": ["3LWT9ChhpSF5m7w4BYhUC7QadpQ85SyLDd"], "asm": "OP_HASH160 ce6add8e3d18973b2d71d03e215bc5c29a66123a OP_EQUAL", "type": "scripthash"}, "value": 0.19303591, "n": 0}], "hex": "0100000005abc11342ba828dd8527e5ce0752f2afa0a7603f8307382a83a657392c726ced0010000006b483045022100f0b2e252d002bd25a85659ffa8131869a457a15dec35261dc1608c30fc09b2b90220796e35c63d936c46bcb6944d3a06b6f65e50c94472f281ddfbb6d813338b7ad2012103834416a7cc476a0e77691e29bc9a70303718c1dcfd55af072b8ac67c241299f3ffffffff1b4039200e5e006aa99b5e7a15765ce21a8f082e28876c5b6b6017d615950c8f000000006a47304402207e8d72ca127f285faf7043def9c2a3832e4d9e8c855aec2c5364fd598d6f78c1022052db6133edce12f1b8942d2a1e89bb381d4420088e99cd51abd7b70cdf1f1f03012103684297d0eec05b85bc1c8480d10e2d4f4e8fab2312efe09ac6abf5999919fcbaffffffff11303fcf5c2d064bf6fa9ce024a51e10c99d96a51ac2ad9686f2ac4a28cd515d010000006b483045022100d542d398b3545cb063ed800ce6054956cfd4c973e099754f80d3f8ac44b3aed302200eb5a49e934f9db2235dcd56c8c1ebfc3b5ebfaf438f7d3a26141b17182501320121028854e71b049756cf2dbe7784c54ce11d89c5ac462315df7106188f588ab2e09bffffffffe58c9d1002068bfd6eaca6c8b78d031ffa661e1d912ad138bebd31fc1b4a4987010000006a473044022066b0f2165d8f425d208cbedb27d08d392ed53b4f21328d4ae7caa7a83da53b6f02206eed5d3dfa9c2201be4af5fb6d8cfb9177444fa553faa10a10c31e130b27752401210367b3c0abafb613e13a566ff54870f39171a24d914b25a135bbedb00894094860ffffffffe76caedf6231f8d4c2eccd1a24c8fb0c393ec5482b2d930fc4c3c9859e58c3a50c0000006b4830450221009fe216c3f8e4d3fa068c2c2da0bea346be7a35fe5872d95253e3744b398af8e502205bd8cd5c300d2bcb6cd2275d23719a045712b1045179b1602425c5b5cbe49a4701210367b3c0abafb613e13a566ff54870f39171a24d914b25a135bbedb00894094860ffffffff01a78c26010000000017a914ce6add8e3d18973b2d71d03e215bc5c29a66123a8700000000", "vin": [{"sequence": 4294967295, "scriptSig": {"hex": "483045022100f0b2e252d002bd25a85659ffa8131869a457a15dec35261dc1608c30fc09b2b90220796e35c63d936c46bcb6944d3a06b6f65e50c94472f281ddfbb6d813338b7ad2012103834416a7cc476a0e77691e29bc9a70303718c1dcfd55af072b8ac67c241299f3", "asm": "3045022100f0b2e252d002bd25a85659ffa8131869a457a15dec35261dc1608c30fc09b2b90220796e35c63d936c46bcb6944d3a06b6f65e50c94472f281ddfbb6d813338b7ad2[ALL] 03834416a7cc476a0e77691e29bc9a70303718c1dcfd55af072b8ac67c241299f3"}, "vout": 1, "txid": "d0ce26c79273653aa8827330f803760afa2a2f75e05c7e52d88d82ba4213c1ab"}, {"sequence": 4294967295, "scriptSig": {"hex": "47304402207e8d72ca127f285faf7043def9c2a3832e4d9e8c855aec2c5364fd598d6f78c1022052db6133edce12f1b8942d2a1e89bb381d4420088e99cd51abd7b70cdf1f1f03012103684297d0eec05b85bc1c8480d10e2d4f4e8fab2312efe09ac6abf5999919fcba", "asm": "304402207e8d72ca127f285faf7043def9c2a3832e4d9e8c855aec2c5364fd598d6f78c1022052db6133edce12f1b8942d2a1e89bb381d4420088e99cd51abd7b70cdf1f1f03[ALL] 03684297d0eec05b85bc1c8480d10e2d4f4e8fab2312efe09ac6abf5999919fcba"}, "vout": 0, "txid": "8f0c9515d617606b5b6c87282e088f1ae25c76157a5e9ba96a005e0e2039401b"}, {"sequence": 4294967295, "scriptSig": {"hex": "483045022100d542d398b3545cb063ed800ce6054956cfd4c973e099754f80d3f8ac44b3aed302200eb5a49e934f9db2235dcd56c8c1ebfc3b5ebfaf438f7d3a26141b17182501320121028854e71b049756cf2dbe7784c54ce11d89c5ac462315df7106188f588ab2e09b", "asm": "3045022100d542d398b3545cb063ed800ce6054956cfd4c973e099754f80d3f8ac44b3aed302200eb5a49e934f9db2235dcd56c8c1ebfc3b5ebfaf438f7d3a26141b1718250132[ALL] 028854e71b049756cf2dbe7784c54ce11d89c5ac462315df7106188f588ab2e09b"}, "vout": 1, "txid": "5d51cd284aacf28696adc21aa5969dc9101ea524e09cfaf64b062d5ccf3f3011"}, {"sequence": 4294967295, "scriptSig": {"hex": "473044022066b0f2165d8f425d208cbedb27d08d392ed53b4f21328d4ae7caa7a83da53b6f02206eed5d3dfa9c2201be4af5fb6d8cfb9177444fa553faa10a10c31e130b27752401210367b3c0abafb613e13a566ff54870f39171a24d914b25a135bbedb00894094860", "asm": "3044022066b0f2165d8f425d208cbedb27d08d392ed53b4f21328d4ae7caa7a83da53b6f02206eed5d3dfa9c2201be4af5fb6d8cfb9177444fa553faa10a10c31e130b277524[ALL] 0367b3c0abafb613e13a566ff54870f39171a24d914b25a135bbedb00894094860"}, "vout": 1, "txid": "87494a1bfc31bdbe38d12a911d1e66fa1f038db7c8a6ac6efd8b0602109d8ce5"}, {"sequence": 4294967295, "scriptSig": {"hex": "4830450221009fe216c3f8e4d3fa068c2c2da0bea346be7a35fe5872d95253e3744b398af8e502205bd8cd5c300d2bcb6cd2275d23719a045712b1045179b1602425c5b5cbe49a4701210367b3c0abafb613e13a566ff54870f39171a24d914b25a135bbedb00894094860", "asm": "30450221009fe216c3f8e4d3fa068c2c2da0bea346be7a35fe5872d95253e3744b398af8e502205bd8cd5c300d2bcb6cd2275d23719a045712b1045179b1602425c5b5cbe49a47[ALL] 0367b3c0abafb613e13a566ff54870f39171a24d914b25a135bbedb00894094860"}, "vout": 12, "txid": "a5c3589e85c9c3c40f932d2b48c53e390cfbc8241acdecc2d4f83162dfae6ce7"}], "txid": "e190354c28dc80425a8fa819ccc96d6522e505e32ac46b567e9fbbd01011b491", "blocktime": 1537875543, "version": 1, "confirmations": 11464, "time": 1537875543, "locktime": 0, "vsize": 780, "size": 780}