{"hash": "e19010859451fb75ac0bf477613ee042c7c82f0f9897b43eb5acd063cab60c18", "blockhash": "00000000000000000017f5eb5941039fbcee6240d03bc1f2f8e35350df66a1d8", "vout": [{"scriptPubKey": {"reqSigs": 1, "hex": "76a9147956422bb8a3570dc1767f3ae2b5bc0b2dd8d42a88ac", "addresses": ["1C4a6ZERsjLR7uyqBdUNT4C2tcBjopvhVh"], "asm": "OP_DUP OP_HASH160 7956422bb8a3570dc1767f3ae2b5bc0b2dd8d42a OP_EQUALVERIFY OP_CHECKSIG", "type": "pubkeyhash"}, "value": 0.0342565, "n": 0}, {"scriptPubKey": {"reqSigs": 1, "hex": "76a9142d1040e2589d18317805d33c03edde3f2b7f265a88ac", "addresses": ["157GsweLowwXf7HBNF9dRpTPc7L32apUtj"], "asm": "OP_DUP OP_HASH160 2d1040e2589d18317805d33c03edde3f2b7f265a OP_EQUALVERIFY OP_CHECKSIG", "type": "pubkeyhash"}, "value": 0.01599732, "n": 1}], "hex": "02000000020a7d215551edc7fe4b242e8b56942bfaa24e4f21da233d9bffe38cd32f84f7ea000000006b4830450221008f8bca6e133e7b39e1496635a64650be70eae43e182a5499d855a1014b2b8ea9022011e1ba4efc4064ae2af1a2c5d09707451edde288cb8960cb94bffccc87ab594e01210228998f11b12310a6772eb79d051c3994ded0a8f0792bbd597bacc8e06621a939feffffffa5f2cc33b5bf4eb17338faf4af98386b8b76e40ef6da521db53a0eb444c50944000000006a47304402206f2151c6e2b93e5d3b52f9d5d0ddfd7ec1dcb49549c71f40572fd68e634aff19022053c64c38964c883941712968fab651184adf7eb960573cfc4cd29cd047090d7501210228998f11b12310a6772eb79d051c3994ded0a8f0792bbd597bacc8e06621a939feffffff0272453400000000001976a9147956422bb8a3570dc1767f3ae2b5bc0b2dd8d42a88acf4681800000000001976a9142d1040e2589d18317805d33c03edde3f2b7f265a88ac15490800", "vin": [{"sequence": 4294967294, "scriptSig": {"hex": "4830450221008f8bca6e133e7b39e1496635a64650be70eae43e182a5499d855a1014b2b8ea9022011e1ba4efc4064ae2af1a2c5d09707451edde288cb8960cb94bffccc87ab594e01210228998f11b12310a6772eb79d051c3994ded0a8f0792bbd597bacc8e06621a939", "asm": "30450221008f8bca6e133e7b39e1496635a64650be70eae43e182a5499d855a1014b2b8ea9022011e1ba4efc4064ae2af1a2c5d09707451edde288cb8960cb94bffccc87ab594e[ALL] 0228998f11b12310a6772eb79d051c3994ded0a8f0792bbd597bacc8e06621a939"}, "vout": 0, "txid": "eaf7842fd38ce3ff9b3d23da214f4ea2fa2b94568b2e244bfec7ed5155217d0a"}, {"sequence": 4294967294, "scriptSig": {"hex": "47304402206f2151c6e2b93e5d3b52f9d5d0ddfd7ec1dcb49549c71f40572fd68e634aff19022053c64c38964c883941712968fab651184adf7eb960573cfc4cd29cd047090d7501210228998f11b12310a6772eb79d051c3994ded0a8f0792bbd597bacc8e06621a939", "asm": "304402206f2151c6e2b93e5d3b52f9d5d0ddfd7ec1dcb49549c71f40572fd68e634aff19022053c64c38964c883941712968fab651184adf7eb960573cfc4cd29cd047090d75[ALL] 0228998f11b12310a6772eb79d051c3994ded0a8f0792bbd597bacc8e06621a939"}, "vout": 0, "txid": "4409c544b40e3ab51d52daf60ee4768b6b3898aff4fa3873b14ebfb533ccf2a5"}], "txid": "e19010859451fb75ac0bf477613ee042c7c82f0f9897b43eb5acd063cab60c18", "blocktime": 1537874412, "version": 2, "confirmations": 11467, "time": 1537874412, "locktime": 542997, "vsize": 373, "size": 373}