{"hash": "e03bdc8fcb2932213f7807d2ae3791de64219d03b6c650255e26f52bc0f98840", "blockhash": "0000000000000000001f76057863aec43deb6fa401d9628bb513d65a8098bfab", "vout": [{"scriptPubKey": {"reqSigs": 1, "hex": "00141efbc85a65088a9c6e4ed1b5353fd8e609358b1d", "addresses": ["bc1qrmauskn9pz9fcmjw6x6n207cucyntzcazyx6en"], "asm": "0 1efbc85a65088a9c6e4ed1b5353fd8e609358b1d", "type": "witness_v0_keyhash"}, "value": 0.0395878, "n": 0}, {"scriptPubKey": {"reqSigs": 1, "hex": "a914b41e0ef0ecd2c2a6f98ab6b2b81dbc59c611325e87", "addresses": ["3J7PZZim6YGnks2ooi2SsDvEyA9vTteP2Z"], "asm": "OP_HASH160 b41e0ef0ecd2c2a6f98ab6b2b81dbc59c611325e OP_EQUAL", "type": "scripthash"}, "value": 0.02980139, "n": 1}], "hex": "010000000001018dbb246a2d9823c3142629128519f1689d2564191aa5fffbb0de6537d5731fe40100000000ffffffff02fc673c00000000001600141efbc85a65088a9c6e4ed1b5353fd8e609358b1d2b792d000000000017a914b41e0ef0ecd2c2a6f98ab6b2b81dbc59c611325e8702473044022035d256a7a2047038cd80f571d6614f6028aec58a2c7d5897547c8a7ae6cd4fc802201c4e6e7b335daa0d292b6c39fd0c925f530b707f7465fc901b3daae1eb2521530121025dd3b44301168aa30f12b8818aa2a317b1e6cc3feeb0835db088c324a65ef70b00000000", "vin": [{"txinwitness": ["3044022035d256a7a2047038cd80f571d6614f6028aec58a2c7d5897547c8a7ae6cd4fc802201c4e6e7b335daa0d292b6c39fd0c925f530b707f7465fc901b3daae1eb25215301", "025dd3b44301168aa30f12b8818aa2a317b1e6cc3feeb0835db088c324a65ef70b"], "sequence": 4294967295, "scriptSig": {"hex": "", "asm": ""}, "vout": 1, "txid": "e41f73d53765deb0fbffa51a1964259d68f1198512292614c323982d6a24bb8d"}], "txid": "e1906a0868c473c353e8c5a0439011e7d3553e6aa0a933e07ef37db6f717ce6d", "blocktime": 1537873891, "version": 1, "confirmations": 11478, "time": 1537873891, "locktime": 0, "vsize": 142, "size": 223}