{"hash": "e19447022eb16b076963f852a87a0080dc66e522224c3ff8dd906e444eabecfb", "blockhash": "0000000000000000001e0dab787dd257d1dbfcb92a98c2207d5e1078be1f4165", "vout": [{"scriptPubKey": {"type": "nulldata", "hex": "6a146f6d6e69000000000000001f0000000ee1276ec0", "asm": "OP_RETURN 6f6d6e69000000000000001f0000000ee1276ec0"}, "value": 0.0, "n": 0}, {"scriptPubKey": {"reqSigs": 1, "hex": "76a914628a073fe8ce7a239e56a9158ebd5d291a8bc0d988ac", "addresses": ["19z2aBA5FYQm9bK1Q5UW5u7bJWHbZZ4Z5E"], "asm": "OP_DUP OP_HASH160 628a073fe8ce7a239e56a9158ebd5d291a8bc0d9 OP_EQUALVERIFY OP_CHECKSIG", "type": "pubkeyhash"}, "value": 0.0399799, "n": 1}, {"scriptPubKey": {"reqSigs": 1, "hex": "76a914cc028ecf32d71e240df9202c5644bc24dccc14b688ac", "addresses": ["1KbhureApdrHK2PFRGQeh6rJjm9NxWWfKs"], "asm": "OP_DUP OP_HASH160 cc028ecf32d71e240df9202c5644bc24dccc14b6 OP_EQUALVERIFY OP_CHECKSIG", "type": "pubkeyhash"}, "value": 5.46e-06, "n": 2}], "hex": "01000000010205aa9653c88fb5df348ed28911881d1075d315c1a66a83c1ae2305ba5d9423020000006a473044022018695c340121ed017993edc289faa6548af6c05321bac8ad20509239deb577620220127ec8b519a288f251ed1d35d70be4a52952d923eb7dd013064525dcd4326bd1012103e4addb7809d20e3cf85c913ea93969a52c57a5fdfcb1fedcb25002cf9b21d816feffffff030000000000000000166a146f6d6e69000000000000001f0000000ee1276ec026013d00000000001976a914628a073fe8ce7a239e56a9158ebd5d291a8bc0d988ac22020000000000001976a914cc028ecf32d71e240df9202c5644bc24dccc14b688ac11490800", "vin": [{"sequence": 4294967294, "scriptSig": {"hex": "473044022018695c340121ed017993edc289faa6548af6c05321bac8ad20509239deb577620220127ec8b519a288f251ed1d35d70be4a52952d923eb7dd013064525dcd4326bd1012103e4addb7809d20e3cf85c913ea93969a52c57a5fdfcb1fedcb25002cf9b21d816", "asm": "3044022018695c340121ed017993edc289faa6548af6c05321bac8ad20509239deb577620220127ec8b519a288f251ed1d35d70be4a52952d923eb7dd013064525dcd4326bd1[ALL] 03e4addb7809d20e3cf85c913ea93969a52c57a5fdfcb1fedcb25002cf9b21d816"}, "vout": 2, "txid": "23945dba0523aec1836aa6c115d375101d881189d28e34dfb58fc85396aa0502"}], "txid": "e19447022eb16b076963f852a87a0080dc66e522224c3ff8dd906e444eabecfb", "blocktime": 1537872475, "version": 1, "confirmations": 11487, "time": 1537872475, "locktime": 542993, "vsize": 256, "size": 256}