{"hash": "f003e336a65e354f6d184789212f0a15f36c29e9da97d988c27eed665f478709", "blockhash": "000000000000000000022b45ed06c6f4ccd3cf7fb5ba4856ebd2e58215665228", "vout": [{"scriptPubKey": {"reqSigs": 1, "hex": "76a914750c2b0562674500d48232c75c0897824ccdd67988ac", "addresses": ["1BftdtvK5C4NJFMuvx7uavxRTq8gDDynmr"], "asm": "OP_DUP OP_HASH160 750c2b0562674500d48232c75c0897824ccdd679 OP_EQUALVERIFY OP_CHECKSIG", "type": "pubkeyhash"}, "value": 0.000178, "n": 0}, {"scriptPubKey": {"reqSigs": 1, "hex": "a91417a7e8dca2278f0777750e372117678d40726d8587", "addresses": ["33r6cX9MuxB78CbZ2Hr1WeLEwFb3t131z7"], "asm": "OP_HASH160 17a7e8dca2278f0777750e372117678d40726d85 OP_EQUAL", "type": "scripthash"}, "value": 0.110536, "n": 1}], "hex": "01000000000101b4cd01abfc15383e9f4acdc4bf8f4b88750c889cf5f7b5ffc35d5274ab672e5e0100000023220020cf89210712a11140f762e254eae9779d28302ab7c05dfef6eb0b9509820d1522ffffffff0288450000000000001976a914750c2b0562674500d48232c75c0897824ccdd67988ac20aaa8000000000017a91417a7e8dca2278f0777750e372117678d40726d858704004830450221009e4e2ce8e3190d6e6749f4ddf85d8c1e3cf6227d52e300f16236eb6bfd85383802207f24d8e08faa448d15697e562e5c8fd187739b1f8319def41b1759d145c6895e0147304402200634e93ff5ce69dc6d429a5cf9f46444a3191ae95b459ad81811516d431ec35402201a7583647a2080a116b11f9bcd953ab196d3dab4df26f8f0b69907137f20b2ea0169522102348c54fe05f0e0c1591f61dfad07d7ce38655f703e585973ce36b9f6b525e0c42103f8e58d76f1d2e38b7be791e492e33c534b1d688683a1bd4e6bacdf259a0b956f210253085e02033378cfe8e078f057533a6b5bf5a3f715b9da6200b9e95096871faa53ae00000000", "vin": [{"txinwitness": ["", "30450221009e4e2ce8e3190d6e6749f4ddf85d8c1e3cf6227d52e300f16236eb6bfd85383802207f24d8e08faa448d15697e562e5c8fd187739b1f8319def41b1759d145c6895e01", "304402200634e93ff5ce69dc6d429a5cf9f46444a3191ae95b459ad81811516d431ec35402201a7583647a2080a116b11f9bcd953ab196d3dab4df26f8f0b69907137f20b2ea01", "522102348c54fe05f0e0c1591f61dfad07d7ce38655f703e585973ce36b9f6b525e0c42103f8e58d76f1d2e38b7be791e492e33c534b1d688683a1bd4e6bacdf259a0b956f210253085e02033378cfe8e078f057533a6b5bf5a3f715b9da6200b9e95096871faa53ae"], "sequence": 4294967295, "scriptSig": {"hex": "220020cf89210712a11140f762e254eae9779d28302ab7c05dfef6eb0b9509820d1522", "asm": "0020cf89210712a11140f762e254eae9779d28302ab7c05dfef6eb0b9509820d1522"}, "vout": 1, "txid": "5e2e67ab74525dc3ffb5f7f59c880c75884b8fbfc4cd4a9f3e3815fcab01cdb4"}], "txid": "e19821154e9365965ba5aa28669fa5dc926cce523c07b96637c0643e346a7f78", "blocktime": 1537869901, "version": 1, "confirmations": 11524, "time": 1537869901, "locktime": 0, "vsize": 216, "size": 407}