{"hash": "e1986c264508e41be889d71e8a41eb59d07a4dada078d590c30ec7aeffc3f0dc", "blockhash": "00000000000000000024a2167bbff67b0be802c0b01cdd79e6331c2be6459f87", "vout": [{"scriptPubKey": {"reqSigs": 1, "hex": "76a91458f32143a95cd11ee5f37e5d1dff6f9fbafa660b88ac", "addresses": ["197Kir2psnjrTFwx8R9cUnmVCUFeUgCNxS"], "asm": "OP_DUP OP_HASH160 58f32143a95cd11ee5f37e5d1dff6f9fbafa660b OP_EQUALVERIFY OP_CHECKSIG", "type": "pubkeyhash"}, "value": 0.91708187, "n": 0}, {"scriptPubKey": {"type": "nulldata", "hex": "6a146f6d6e69000000000000001f000000389bea6b80", "asm": "OP_RETURN 6f6d6e69000000000000001f000000389bea6b80"}, "value": 0.0, "n": 1}, {"scriptPubKey": {"reqSigs": 1, "hex": "76a9143f23904b2f622e2ceff6caa1827902878a79511288ac", "addresses": ["16krB6Gc7kUezjCjPdREyqQohzrovUHvki"], "asm": "OP_DUP OP_HASH160 3f23904b2f622e2ceff6caa1827902878a795112 OP_EQUALVERIFY OP_CHECKSIG", "type": "pubkeyhash"}, "value": 5.46e-06, "n": 2}], "hex": "010000000157f2bc5be6a7fda2175f9f1f96614103452ee0500507bbcec9f894fd68ffe5b4020000006a47304402203039b55d71736d70f413edc5826391b05b08e779a293ab36a3d2e5650724b31d0220747aeb364cf47a1c7bba55b35a46ffa81d76aca8de275e2aac992e1945588cbf01210251e12972b557d5dbac73bfd2470adeac64ac46202389f0ef2db7231f645a0aeafeffffff031b5b7705000000001976a91458f32143a95cd11ee5f37e5d1dff6f9fbafa660b88ac0000000000000000166a146f6d6e69000000000000001f000000389bea6b8022020000000000001976a9143f23904b2f622e2ceff6caa1827902878a79511288accf480800", "vin": [{"sequence": 4294967294, "scriptSig": {"hex": "47304402203039b55d71736d70f413edc5826391b05b08e779a293ab36a3d2e5650724b31d0220747aeb364cf47a1c7bba55b35a46ffa81d76aca8de275e2aac992e1945588cbf01210251e12972b557d5dbac73bfd2470adeac64ac46202389f0ef2db7231f645a0aea", "asm": "304402203039b55d71736d70f413edc5826391b05b08e779a293ab36a3d2e5650724b31d0220747aeb364cf47a1c7bba55b35a46ffa81d76aca8de275e2aac992e1945588cbf[ALL] 0251e12972b557d5dbac73bfd2470adeac64ac46202389f0ef2db7231f645a0aea"}, "vout": 2, "txid": "b4e5ff68fd94f8c9cebb070550e02e45034161961f9f5f17a2fda7e65bbcf257"}], "txid": "e1986c264508e41be889d71e8a41eb59d07a4dada078d590c30ec7aeffc3f0dc", "blocktime": 1537870564, "version": 1, "confirmations": 11515, "time": 1537870564, "locktime": 542927, "vsize": 256, "size": 256}