{"hash": "491e34cbddb11cc17c0d8c02f8b0c9a195197b65f737e2f05f71c73edb6f7a95", "blockhash": "000000000000000000022b45ed06c6f4ccd3cf7fb5ba4856ebd2e58215665228", "vout": [{"scriptPubKey": {"reqSigs": 1, "hex": "0014c0a43da792917763bfbece3e2b91ac13b5e2a52a", "addresses": ["bc1qczjrmfujj9mk80a7eclzhydvzw679ff2p2fuy5"], "asm": "0 c0a43da792917763bfbece3e2b91ac13b5e2a52a", "type": "witness_v0_keyhash"}, "value": 1.335e-05, "n": 0}, {"scriptPubKey": {"reqSigs": 1, "hex": "76a9149cf1fa838b0f9e5f7703293495712f3840976ad188ac", "addresses": ["1FJrHthPxZxFVmb4vRx2a2xK2edpzGDugq"], "asm": "OP_DUP OP_HASH160 9cf1fa838b0f9e5f7703293495712f3840976ad1 OP_EQUALVERIFY OP_CHECKSIG", "type": "pubkeyhash"}, "value": 0.0001, "n": 1}], "hex": "01000000000101d4414b80820ae81671b5707dbe187dbb602bebda95da87d9a5af564122997bae0100000000ffffffff023705000000000000160014c0a43da792917763bfbece3e2b91ac13b5e2a52a10270000000000001976a9149cf1fa838b0f9e5f7703293495712f3840976ad188ac02473044022026334f0820266b0c2d360bf7cb0aae2863d365ba399691345576656275d791f702203389ff0f23640cbae045c639bfb435aaec2e8de2077603ff8d90614aaa0dd08d012102708181118d3412f84d914866dc1e6a122f3ad79b340eb73dbfebf931f3602b2300000000", "vin": [{"txinwitness": ["3044022026334f0820266b0c2d360bf7cb0aae2863d365ba399691345576656275d791f702203389ff0f23640cbae045c639bfb435aaec2e8de2077603ff8d90614aaa0dd08d01", "02708181118d3412f84d914866dc1e6a122f3ad79b340eb73dbfebf931f3602b23"], "sequence": 4294967295, "scriptSig": {"hex": "", "asm": ""}, "vout": 1, "txid": "ae7b99224156afa5d987da95daeb2b60bb7d18be7d70b57116e80a82804b41d4"}], "txid": "e19bdb0f4d3f1a5d89d85ed32664c0ee661c3f5dec0daf987de3e70501883cff", "blocktime": 1537869901, "version": 1, "confirmations": 11523, "time": 1537869901, "locktime": 0, "vsize": 144, "size": 225}