{"hash": "e19de9ed0bdb90037d86058c1d3214630ad363a6d63efa84fa55c975a9e23e59", "blockhash": "000000000000000000022b45ed06c6f4ccd3cf7fb5ba4856ebd2e58215665228", "vout": [{"scriptPubKey": {"reqSigs": 1, "hex": "76a91488d924f51033b74a895863a5fb57fd545529df7d88ac", "addresses": ["1DUb2YYbQA1jjaNYzVXLZ7ZioEhLXtbUru"], "asm": "OP_DUP OP_HASH160 88d924f51033b74a895863a5fb57fd545529df7d OP_EQUALVERIFY OP_CHECKSIG", "type": "pubkeyhash"}, "value": 1.39417086, "n": 0}, {"scriptPubKey": {"type": "nulldata", "hex": "6a146f6d6e69000000000000001f0000000af16b1600", "asm": "OP_RETURN 6f6d6e69000000000000001f0000000af16b1600"}, "value": 0.0, "n": 1}, {"scriptPubKey": {"reqSigs": 1, "hex": "a914ce8bb82c3bf15c1255e89e66aba50551ce13f75887", "addresses": ["3LX8VwHAfdoDHWQmTh1QbYdjqbLKnxXWDR"], "asm": "OP_HASH160 ce8bb82c3bf15c1255e89e66aba50551ce13f758 OP_EQUAL", "type": "scripthash"}, "value": 5.4e-06, "n": 2}], "hex": "0100000001066b364a98fc0672857900c07e66a5389d258cd24d0764ab9b31497cb24f90f5000000006a4730440220070b97ecd91ccd67ebc3d46107958e77a9c97f39a91aeab329af2e4d9153846202201deb3d73dff58878fbcc92484f7dfe5f569c5b11a3e0e96916fa4118ca267bef0121030888863fcb4cdf5b7d33b40e613af35df8f39d576e7972238b0d396cd3fcc3f2feffffff03fe554f08000000001976a91488d924f51033b74a895863a5fb57fd545529df7d88ac0000000000000000166a146f6d6e69000000000000001f0000000af16b16001c0200000000000017a914ce8bb82c3bf15c1255e89e66aba50551ce13f758870b490800", "vin": [{"sequence": 4294967294, "scriptSig": {"hex": "4730440220070b97ecd91ccd67ebc3d46107958e77a9c97f39a91aeab329af2e4d9153846202201deb3d73dff58878fbcc92484f7dfe5f569c5b11a3e0e96916fa4118ca267bef0121030888863fcb4cdf5b7d33b40e613af35df8f39d576e7972238b0d396cd3fcc3f2", "asm": "30440220070b97ecd91ccd67ebc3d46107958e77a9c97f39a91aeab329af2e4d9153846202201deb3d73dff58878fbcc92484f7dfe5f569c5b11a3e0e96916fa4118ca267bef[ALL] 030888863fcb4cdf5b7d33b40e613af35df8f39d576e7972238b0d396cd3fcc3f2"}, "vout": 0, "txid": "f5904fb27c49319bab64074dd28c259d38a5667ec00079857206fc984a366b06"}], "txid": "e19de9ed0bdb90037d86058c1d3214630ad363a6d63efa84fa55c975a9e23e59", "blocktime": 1537869901, "version": 1, "confirmations": 11522, "time": 1537869901, "locktime": 542987, "vsize": 254, "size": 254}