{"hash": "35b4c5d92c7d877f201ba0296131952603371c4c915745756277430d8fc4c58a", "blockhash": "0000000000000000001cda96e906b7601b7a6fb1a3b62bca570a9e5d8f4b3de1", "vout": [{"scriptPubKey": {"reqSigs": 1, "hex": "76a914e9027d5f3bc535588c25ff8960fe4f784ba7ae5688ac", "addresses": ["1NF3RgobpKybXRmjahP1DCbEJWnVdj5CSg"], "asm": "OP_DUP OP_HASH160 e9027d5f3bc535588c25ff8960fe4f784ba7ae56 OP_EQUALVERIFY OP_CHECKSIG", "type": "pubkeyhash"}, "value": 0.45070852, "n": 0}, {"scriptPubKey": {"reqSigs": 1, "hex": "a914d6b0bd4278ec4c82116dc3d3ce6dac884d28c7dc87", "addresses": ["3MGCFf4QY2cnEPmbWaQ5Mw54NLnvqDr6o5"], "asm": "OP_HASH160 d6b0bd4278ec4c82116dc3d3ce6dac884d28c7dc OP_EQUAL", "type": "scripthash"}, "value": 0.41990779, "n": 1}], "hex": "010000000001039e99364e846ac6af0f1a3ca729d98664f27261f3717eebb7f97b07665e198d1201000000171600149062a989e8811de2ce2d705f1489b36fe9695b6affffff000b94ef1b2289007ea58818fb259150228b0dce21a7a366b69ea2d60cc4d127830600000017160014dfa0b2afedb628ba406cb6c12ed98c45adf4c7ceffffff00c6c848f6e7fea5c6fab7ca0ef1e3256c62e5cfff81461f280e1abd683f3fa9a70e00000017160014dfa0b2afedb628ba406cb6c12ed98c45adf4c7ceffffff000204baaf02000000001976a914e9027d5f3bc535588c25ff8960fe4f784ba7ae5688ac7bba80020000000017a914d6b0bd4278ec4c82116dc3d3ce6dac884d28c7dc8702483045022100cab5d3ae5a7d68a5de047a5617c68abc22e998ee1eb82ec8796d5b603d6102c902200b66f0cae1be40f605819cbaa5fd0a6fdbb8a82843c6eadf0eeba71a2240e8eb012103561d29f054393420cffce84ca102653eb7d12dad72f3d39e179f34bec9749d04024730440220237d94b7c6af6b52124dfb02958a74a9998cb0b0de892e19337abf9b103d59cd02207ca2fed85a4e8f4c53788d6a3d4d35e4530766e764358e95b0275026a21cd21c012103676f0700a9076bc8be40ac07734e148f9817dbf9079b49d64810e35daf34e71902483045022100917a6837b45a85f60f6189b4cd57cc40453cfdbf4a2f354515793430e8c699b102202a9c5e859cf8eaea75cdedff1cc70a5a8a34a6996215db9148b4e1086376aded012103676f0700a9076bc8be40ac07734e148f9817dbf9079b49d64810e35daf34e71900000000", "vin": [{"txinwitness": ["3045022100cab5d3ae5a7d68a5de047a5617c68abc22e998ee1eb82ec8796d5b603d6102c902200b66f0cae1be40f605819cbaa5fd0a6fdbb8a82843c6eadf0eeba71a2240e8eb01", "03561d29f054393420cffce84ca102653eb7d12dad72f3d39e179f34bec9749d04"], "sequence": 16777215, "scriptSig": {"hex": "1600149062a989e8811de2ce2d705f1489b36fe9695b6a", "asm": "00149062a989e8811de2ce2d705f1489b36fe9695b6a"}, "vout": 1, "txid": "128d195e66077bf9b7eb7e71f36172f26486d929a73c1a0fafc66a844e36999e"}, {"txinwitness": ["30440220237d94b7c6af6b52124dfb02958a74a9998cb0b0de892e19337abf9b103d59cd02207ca2fed85a4e8f4c53788d6a3d4d35e4530766e764358e95b0275026a21cd21c01", "03676f0700a9076bc8be40ac07734e148f9817dbf9079b49d64810e35daf34e719"], "sequence": 16777215, "scriptSig": {"hex": "160014dfa0b2afedb628ba406cb6c12ed98c45adf4c7ce", "asm": "0014dfa0b2afedb628ba406cb6c12ed98c45adf4c7ce"}, "vout": 6, "txid": "8327d1c40cd6a29eb666a3a721ce0d8b22509125fb1888a57e0089221bef940b"}, {"txinwitness": ["3045022100917a6837b45a85f60f6189b4cd57cc40453cfdbf4a2f354515793430e8c699b102202a9c5e859cf8eaea75cdedff1cc70a5a8a34a6996215db9148b4e1086376aded01", "03676f0700a9076bc8be40ac07734e148f9817dbf9079b49d64810e35daf34e719"], "sequence": 16777215, "scriptSig": {"hex": "160014dfa0b2afedb628ba406cb6c12ed98c45adf4c7ce", "asm": "0014dfa0b2afedb628ba406cb6c12ed98c45adf4c7ce"}, "vout": 14, "txid": "a7a93f3f68bd1a0e281f4681ffcfe5626c25e3f10ecab7fac6a5fee7f648c8c6"}], "txid": "e19ed5e871b21a5998556597ebbf636af8781d26e97f65ec03890e6778fd5831", "blocktime": 1537873282, "version": 1, "confirmations": 11485, "time": 1537873282, "locktime": 0, "vsize": 350, "size": 593}