{"hash": "e1a2fc5c82b1054da8f6519f163309b7f798b91377b82c972abfce34307592c7", "blockhash": "00000000000000000024a2167bbff67b0be802c0b01cdd79e6331c2be6459f87", "vout": [{"scriptPubKey": {"reqSigs": 1, "hex": "76a914618289b9df84126358019a9c749b213975002a3788ac", "addresses": ["19tavYgfNFZMMTeYtFLTCaFgStjwRo8VD9"], "asm": "OP_DUP OP_HASH160 618289b9df84126358019a9c749b213975002a37 OP_EQUALVERIFY OP_CHECKSIG", "type": "pubkeyhash"}, "value": 0.0164889, "n": 0}, {"scriptPubKey": {"reqSigs": 1, "hex": "76a9144444bc71592db2307caf753142dfcecb2d74f27488ac", "addresses": ["17DyHuwTW1UqSBm49ebRQVmEumQsxDdmHk"], "asm": "OP_DUP OP_HASH160 4444bc71592db2307caf753142dfcecb2d74f274 OP_EQUALVERIFY OP_CHECKSIG", "type": "pubkeyhash"}, "value": 0.04228099, "n": 1}], "hex": "0100000001771e0e4f07176e713075dd56c01f76d2b682137f4d506cde6610463d18b8c9d4000000006b483045022100b41b63c3a1ffc7f53c96d8bfb12ea52f6f503d6569f9204ad2a91a73aa35f8e9022007dcf1301a5f2247ac7ae7a0bb2c46560797431d1580e3d22c298176fbb51a28012103249c423d919179092c479362fb87f43856a825392f11c6e76e8a295491cae600ffffffff02fa281900000000001976a914618289b9df84126358019a9c749b213975002a3788ac03844000000000001976a9144444bc71592db2307caf753142dfcecb2d74f27488ac00000000", "vin": [{"sequence": 4294967295, "scriptSig": {"hex": "483045022100b41b63c3a1ffc7f53c96d8bfb12ea52f6f503d6569f9204ad2a91a73aa35f8e9022007dcf1301a5f2247ac7ae7a0bb2c46560797431d1580e3d22c298176fbb51a28012103249c423d919179092c479362fb87f43856a825392f11c6e76e8a295491cae600", "asm": "3045022100b41b63c3a1ffc7f53c96d8bfb12ea52f6f503d6569f9204ad2a91a73aa35f8e9022007dcf1301a5f2247ac7ae7a0bb2c46560797431d1580e3d22c298176fbb51a28[ALL] 03249c423d919179092c479362fb87f43856a825392f11c6e76e8a295491cae600"}, "vout": 0, "txid": "d4c9b8183d461066de6c504d7f1382b6d2761fc056dd7530716e17074f0e1e77"}], "txid": "e1a2fc5c82b1054da8f6519f163309b7f798b91377b82c972abfce34307592c7", "blocktime": 1537870564, "version": 1, "confirmations": 11515, "time": 1537870564, "locktime": 0, "vsize": 226, "size": 226}