{"hash": "e1afd74d58e2066de00c7c4b3ba0eefc7a283506fa89b09b59fe299316a26a8d", "blockhash": "0000000000000000001cda96e906b7601b7a6fb1a3b62bca570a9e5d8f4b3de1", "vout": [{"scriptPubKey": {"type": "nulldata", "hex": "6a4c50000077ce000147dac6a2c35aff3bb21f6bb15b23cc0f42c2fc38c5e5bf9ae76da98a211a244d9450dbc6e1130efc8a8660b4cb825baa1419061363ed63ed43c01d100759d4ba30d2c37bb011d97e02cf", "asm": "OP_RETURN 000077ce000147dac6a2c35aff3bb21f6bb15b23cc0f42c2fc38c5e5bf9ae76da98a211a244d9450dbc6e1130efc8a8660b4cb825baa1419061363ed63ed43c01d100759d4ba30d2c37bb011d97e02cf"}, "value": 0.0, "n": 0}, {"scriptPubKey": {"reqSigs": 1, "hex": "76a914f187b69f31fda04b08a99c85fa054eaab409f61688ac", "addresses": ["1P26Rm9XWEPWjJVnMz9g1VC381vqb3oEVz"], "asm": "OP_DUP OP_HASH160 f187b69f31fda04b08a99c85fa054eaab409f616 OP_EQUALVERIFY OP_CHECKSIG", "type": "pubkeyhash"}, "value": 0.00637587, "n": 1}], "hex": "0100000001c61defbc2041bfa7ce8f9f8d7442afe8efd7a5a7d05a8d55ca3a4ab9056a37af010000006b483045022100b101ed7852dd17bd04c17a084baf03c15de1a7ee08a55704790c095d6bee6f7202200e7352458fac8805bbe182685f59ddb2d1ce7d2be38859beefb68e44360e4209012103c2d04c34d3a1b1d476e81b7e8ae03d0cdb18c8580ab20424ad8e6cff57ea8a68ffffffff020000000000000000536a4c50000077ce000147dac6a2c35aff3bb21f6bb15b23cc0f42c2fc38c5e5bf9ae76da98a211a244d9450dbc6e1130efc8a8660b4cb825baa1419061363ed63ed43c01d100759d4ba30d2c37bb011d97e02cf93ba0900000000001976a914f187b69f31fda04b08a99c85fa054eaab409f61688ac00000000", "vin": [{"sequence": 4294967295, "scriptSig": {"hex": "483045022100b101ed7852dd17bd04c17a084baf03c15de1a7ee08a55704790c095d6bee6f7202200e7352458fac8805bbe182685f59ddb2d1ce7d2be38859beefb68e44360e4209012103c2d04c34d3a1b1d476e81b7e8ae03d0cdb18c8580ab20424ad8e6cff57ea8a68", "asm": "3045022100b101ed7852dd17bd04c17a084baf03c15de1a7ee08a55704790c095d6bee6f7202200e7352458fac8805bbe182685f59ddb2d1ce7d2be38859beefb68e44360e4209[ALL] 03c2d04c34d3a1b1d476e81b7e8ae03d0cdb18c8580ab20424ad8e6cff57ea8a68"}, "vout": 1, "txid": "af376a05b94a3aca558d5ad0a7a5d7efe8af42748d9f8fcea7bf4120bcef1dc6"}], "txid": "e1afd74d58e2066de00c7c4b3ba0eefc7a283506fa89b09b59fe299316a26a8d", "blocktime": 1537873282, "version": 1, "confirmations": 11484, "time": 1537873282, "locktime": 0, "vsize": 284, "size": 284}