{"hash": "e1bb181dfb9d9fd6ebbb6172ef79800e149b098dade33ae7956038f0c822c8a1", "blockhash": "00000000000000000004ffacab907a6b429b9a5745fa0b75af4234bf69dd7176", "vout": [{"scriptPubKey": {"reqSigs": 1, "hex": "76a9144afab5e382b1e3b1c8b37b2f4369259a8fe801f488ac", "addresses": ["17qTLsG9abFhxcU4zHwM5JmRqGeG4sRjUG"], "asm": "OP_DUP OP_HASH160 4afab5e382b1e3b1c8b37b2f4369259a8fe801f4 OP_EQUALVERIFY OP_CHECKSIG", "type": "pubkeyhash"}, "value": 1.86, "n": 0}, {"scriptPubKey": {"reqSigs": 1, "hex": "76a9140f259e9bc45edfdc9d19368d58ce2cce89e5caa788ac", "addresses": ["12P6CjNmaLhR4t4kMdfSCNLiRDeNm3SsN4"], "asm": "OP_DUP OP_HASH160 0f259e9bc45edfdc9d19368d58ce2cce89e5caa7 OP_EQUALVERIFY OP_CHECKSIG", "type": "pubkeyhash"}, "value": 0.22364, "n": 1}], "hex": "0100000003356e282b7cad4b41f6cbd4aac338182373f3cc7e0ca58baf63f8f4ce3eb22e12010000006a473044022003f6457af0b3d9540b280119af510727b373246a4b647fdc5caca39fc00489ba02203a555129765d7f980bfc8945c45c083536082b651e7d3aa333151dea7637dd94012103163b4ca250d9a620bffac6f6515877b6fee11c9bd82a53f4be1c3bd14c348eb5ffffffffa4c9a91bffcc91f29cb50de239656a4093b30404ce9a133021f2de8afb2121ea000000006b483045022100fd79762e28a7c3a3f59c4441f37b70f84768092ccef707d5d9278f300470df9d0220579f0a03ac154898cd0c108075d0c92d5463641dff51e3c4349579d0b9963565012102ffcbed22f4079ae2ea994a5916e23640efc0108207e21836cb9d242f4cd4bcb9ffffffff7feec1efd8c0e25f84288b9cace5b8202596e1f8266b097d11598354ae7c9ac8000000006a47304402205deb276109a5c9fcd6e49194895a2533642e35d901dc78e16034d6bb8fca877b0220724383c9e24ac86adf6dfaf023ebad7bfef61b1d6581f8d843e517336c30d878012102c5b962f2715dba3e330c60566cf398953567937a0a6d5f9535490a820a44c89effffffff028022160b000000001976a9144afab5e382b1e3b1c8b37b2f4369259a8fe801f488ac603f5501000000001976a9140f259e9bc45edfdc9d19368d58ce2cce89e5caa788ac00000000", "vin": [{"sequence": 4294967295, "scriptSig": {"hex": "473044022003f6457af0b3d9540b280119af510727b373246a4b647fdc5caca39fc00489ba02203a555129765d7f980bfc8945c45c083536082b651e7d3aa333151dea7637dd94012103163b4ca250d9a620bffac6f6515877b6fee11c9bd82a53f4be1c3bd14c348eb5", "asm": "3044022003f6457af0b3d9540b280119af510727b373246a4b647fdc5caca39fc00489ba02203a555129765d7f980bfc8945c45c083536082b651e7d3aa333151dea7637dd94[ALL] 03163b4ca250d9a620bffac6f6515877b6fee11c9bd82a53f4be1c3bd14c348eb5"}, "vout": 1, "txid": "122eb23ecef4f863af8ba50c7eccf373231838c3aad4cbf6414bad7c2b286e35"}, {"sequence": 4294967295, "scriptSig": {"hex": "483045022100fd79762e28a7c3a3f59c4441f37b70f84768092ccef707d5d9278f300470df9d0220579f0a03ac154898cd0c108075d0c92d5463641dff51e3c4349579d0b9963565012102ffcbed22f4079ae2ea994a5916e23640efc0108207e21836cb9d242f4cd4bcb9", "asm": "3045022100fd79762e28a7c3a3f59c4441f37b70f84768092ccef707d5d9278f300470df9d0220579f0a03ac154898cd0c108075d0c92d5463641dff51e3c4349579d0b9963565[ALL] 02ffcbed22f4079ae2ea994a5916e23640efc0108207e21836cb9d242f4cd4bcb9"}, "vout": 0, "txid": "ea2121fb8adef22130139ace0404b393406a6539e20db59cf291ccff1ba9c9a4"}, {"sequence": 4294967295, "scriptSig": {"hex": "47304402205deb276109a5c9fcd6e49194895a2533642e35d901dc78e16034d6bb8fca877b0220724383c9e24ac86adf6dfaf023ebad7bfef61b1d6581f8d843e517336c30d878012102c5b962f2715dba3e330c60566cf398953567937a0a6d5f9535490a820a44c89e", "asm": "304402205deb276109a5c9fcd6e49194895a2533642e35d901dc78e16034d6bb8fca877b0220724383c9e24ac86adf6dfaf023ebad7bfef61b1d6581f8d843e517336c30d878[ALL] 02c5b962f2715dba3e330c60566cf398953567937a0a6d5f9535490a820a44c89e"}, "vout": 0, "txid": "c89a7cae548359117d096b26f8e1962520b8e5ac9c8b28845fe2c0d8efc1ee7f"}], "txid": "e1bb181dfb9d9fd6ebbb6172ef79800e149b098dade33ae7956038f0c822c8a1", "blocktime": 1537875543, "version": 1, "confirmations": 11464, "time": 1537875543, "locktime": 0, "vsize": 520, "size": 520}