{"hash": "e1bb0328251952b0843e1ec32c68be31cc82825861cc6fcf81a9f58cbb546cc5", "blockhash": "0000000000000000000baef3f32e3676a92c3b2e5da21b426e4f302fc371ce76", "vout": [{"scriptPubKey": {"reqSigs": 1, "hex": "76a914f5906b4cd9172684ce15e530f916e83936614b7a88ac", "addresses": ["1PPRZR9TykZJqZ5RrT1UMcaCGvjx7ThUtV"], "asm": "OP_DUP OP_HASH160 f5906b4cd9172684ce15e530f916e83936614b7a OP_EQUALVERIFY OP_CHECKSIG", "type": "pubkeyhash"}, "value": 0.00312749, "n": 0}, {"scriptPubKey": {"reqSigs": 1, "hex": "76a91447031644cbc932fedc911b6668d3994884f3838a88ac", "addresses": ["17UUg7EwqBm8GwqJDjgK1kAPDq7F4rVUPN"], "asm": "OP_DUP OP_HASH160 47031644cbc932fedc911b6668d3994884f3838a OP_EQUALVERIFY OP_CHECKSIG", "type": "pubkeyhash"}, "value": 0.00212302, "n": 1}], "hex": "0100000001d8b69450510f423e0b62e226fd40233cbe72f72b01755557625b62e2a9f239a6030000006a4730440220181dc9fcb8c2d799eb4149453803221c76b6811df00e26a701fb2bf6a8ab014602207e89d0f7152f8c9c24c6159c98918aec8d95eba8d178cb4d4ec0afa4c5b7980f0121020351771478364617d3c7fd6bd92a7326d206edf056140f7e0e5713b3c7b237e0ffffffff02adc50400000000001976a914f5906b4cd9172684ce15e530f916e83936614b7a88ac4e3d0300000000001976a91447031644cbc932fedc911b6668d3994884f3838a88ac00000000", "vin": [{"sequence": 4294967295, "scriptSig": {"hex": "4730440220181dc9fcb8c2d799eb4149453803221c76b6811df00e26a701fb2bf6a8ab014602207e89d0f7152f8c9c24c6159c98918aec8d95eba8d178cb4d4ec0afa4c5b7980f0121020351771478364617d3c7fd6bd92a7326d206edf056140f7e0e5713b3c7b237e0", "asm": "30440220181dc9fcb8c2d799eb4149453803221c76b6811df00e26a701fb2bf6a8ab014602207e89d0f7152f8c9c24c6159c98918aec8d95eba8d178cb4d4ec0afa4c5b7980f[ALL] 020351771478364617d3c7fd6bd92a7326d206edf056140f7e0e5713b3c7b237e0"}, "vout": 3, "txid": "a639f2a9e2625b62575575012bf772be3c2340fd26e2620b3e420f515094b6d8"}], "txid": "e1bb0328251952b0843e1ec32c68be31cc82825861cc6fcf81a9f58cbb546cc5", "blocktime": 1537876114, "version": 1, "confirmations": 11462, "time": 1537876114, "locktime": 0, "vsize": 225, "size": 225}