{"hash": "e1c008c831ce1bc25cd3195fc58034fde2d84abe952891d3593c8032a195a924", "blockhash": "0000000000000000000dcc0f55137456b1a82d3642486a52398922ac4d620174", "vout": [{"scriptPubKey": {"reqSigs": 1, "hex": "a9142fa3aef567150d2bef038dcbe2bcf6212a36d8f287", "addresses": ["362umV2WLqy6uZCrbyH6B5YupSxTTRUY46"], "asm": "OP_HASH160 2fa3aef567150d2bef038dcbe2bcf6212a36d8f2 OP_EQUAL", "type": "scripthash"}, "value": 0.01001367, "n": 0}, {"scriptPubKey": {"reqSigs": 1, "hex": "a9142096a51e901793ecdf8cfa3626a121b74a29383587", "addresses": ["34fL1gQeSLLveKXZgtmhe6XXrgVaQfi4kt"], "asm": "OP_HASH160 2096a51e901793ecdf8cfa3626a121b74a293835 OP_EQUAL", "type": "scripthash"}, "value": 0.01746461, "n": 1}], "hex": "0200000002ba776e88990c825b44a941fbe132f49a28e02a7043cd1160585f59a5ad1ecfdc530000006a47304402202e71c41398ed544e3e26d02b16450473534065ed75f4ba61cacb1ccc30f7f78202207bd97ae30c749a43bf3cf9d0c7c2672c281d312fab53076659987b85fb9d6eef012102980f40eb047e58311fee5abf9ee30db31208a2da4356fd50b711cd4f02073ed6feffffffba776e88990c825b44a941fbe132f49a28e02a7043cd1160585f59a5ad1ecfdca60000006b483045022100b08a0b4f2650d3f1017cc6ee98fcf53f52002d0b84bd9fe2d271eba6c567aca302200f2f5e285eaa49565278210fbc092eb8aca68673cd175e529f40599896dc164d012103eb5818470d5a41bdfcb0c06c9f3769f318fe2fd7d2ab9ccee702c8a3413f3987feffffff0297470f000000000017a9142fa3aef567150d2bef038dcbe2bcf6212a36d8f2871da61a000000000017a9142096a51e901793ecdf8cfa3626a121b74a293835870c490800", "vin": [{"sequence": 4294967294, "scriptSig": {"hex": "47304402202e71c41398ed544e3e26d02b16450473534065ed75f4ba61cacb1ccc30f7f78202207bd97ae30c749a43bf3cf9d0c7c2672c281d312fab53076659987b85fb9d6eef012102980f40eb047e58311fee5abf9ee30db31208a2da4356fd50b711cd4f02073ed6", "asm": "304402202e71c41398ed544e3e26d02b16450473534065ed75f4ba61cacb1ccc30f7f78202207bd97ae30c749a43bf3cf9d0c7c2672c281d312fab53076659987b85fb9d6eef[ALL] 02980f40eb047e58311fee5abf9ee30db31208a2da4356fd50b711cd4f02073ed6"}, "vout": 83, "txid": "dccf1eada5595f586011cd43702ae0289af432e1fb41a9445b820c99886e77ba"}, {"sequence": 4294967294, "scriptSig": {"hex": "483045022100b08a0b4f2650d3f1017cc6ee98fcf53f52002d0b84bd9fe2d271eba6c567aca302200f2f5e285eaa49565278210fbc092eb8aca68673cd175e529f40599896dc164d012103eb5818470d5a41bdfcb0c06c9f3769f318fe2fd7d2ab9ccee702c8a3413f3987", "asm": "3045022100b08a0b4f2650d3f1017cc6ee98fcf53f52002d0b84bd9fe2d271eba6c567aca302200f2f5e285eaa49565278210fbc092eb8aca68673cd175e529f40599896dc164d[ALL] 03eb5818470d5a41bdfcb0c06c9f3769f318fe2fd7d2ab9ccee702c8a3413f3987"}, "vout": 166, "txid": "dccf1eada5595f586011cd43702ae0289af432e1fb41a9445b820c99886e77ba"}], "txid": "e1c008c831ce1bc25cd3195fc58034fde2d84abe952891d3593c8032a195a924", "blocktime": 1537870268, "version": 2, "confirmations": 11516, "time": 1537870268, "locktime": 542988, "vsize": 369, "size": 369}