{"hash": "e1c43ceff0f21432781445cd7e286c3e4719e2ee39b4c9d2379e478916577c01", "blockhash": "0000000000000000000e13cef7c366c0283d82e591d1acd082e914b08063cdf1", "vout": [{"scriptPubKey": {"reqSigs": 1, "hex": "76a91423687e8695e38dc9fa006126b133b8d05bda514388ac", "addresses": ["14EDq6sWHoyvPiEQcQ5HxTB1oY2n1VtMYw"], "asm": "OP_DUP OP_HASH160 23687e8695e38dc9fa006126b133b8d05bda5143 OP_EQUALVERIFY OP_CHECKSIG", "type": "pubkeyhash"}, "value": 0.00249222, "n": 0}, {"scriptPubKey": {"reqSigs": 1, "hex": "76a914237d1bcc2e8122333153850289bf3a285f9c273188ac", "addresses": ["14EeXQqFm23n4SLVFsRscNCbyaesyn81NT"], "asm": "OP_DUP OP_HASH160 237d1bcc2e8122333153850289bf3a285f9c2731 OP_EQUALVERIFY OP_CHECKSIG", "type": "pubkeyhash"}, "value": 0.005022, "n": 1}], "hex": "0100000001a8253b952ebfc9e36fe3d880af16ac4dfa6d411313cbcd78b5e6f32d1703647e010000006a47304402204fde4801872eabd62a272b9019d88ff06d4b36cbba8c8964eabf79c62e1f1ae20220524127cdc4d808368ba4101fa7578e5f9d72915d089bd1a559f5fa725b76ddc30121036d88f6f97b3b73cbda0c01b087330dc74503f45193d73d4fe350ba445d2308bfffffffff0286cd0300000000001976a91423687e8695e38dc9fa006126b133b8d05bda514388acb8a90700000000001976a914237d1bcc2e8122333153850289bf3a285f9c273188ac00000000", "vin": [{"sequence": 4294967295, "scriptSig": {"hex": "47304402204fde4801872eabd62a272b9019d88ff06d4b36cbba8c8964eabf79c62e1f1ae20220524127cdc4d808368ba4101fa7578e5f9d72915d089bd1a559f5fa725b76ddc30121036d88f6f97b3b73cbda0c01b087330dc74503f45193d73d4fe350ba445d2308bf", "asm": "304402204fde4801872eabd62a272b9019d88ff06d4b36cbba8c8964eabf79c62e1f1ae20220524127cdc4d808368ba4101fa7578e5f9d72915d089bd1a559f5fa725b76ddc3[ALL] 036d88f6f97b3b73cbda0c01b087330dc74503f45193d73d4fe350ba445d2308bf"}, "vout": 1, "txid": "7e6403172df3e6b578cdcb1313416dfa4dac16af80d8e36fe3c9bf2e953b25a8"}], "txid": "e1c43ceff0f21432781445cd7e286c3e4719e2ee39b4c9d2379e478916577c01", "blocktime": 1537871767, "version": 1, "confirmations": 11495, "time": 1537871767, "locktime": 0, "vsize": 225, "size": 225}