{"hash": "e1c7e9ace8137a7e9103f597290341d875ea1cb5dbd792b72b9f1d109d90d939", "blockhash": "0000000000000000001e0dab787dd257d1dbfcb92a98c2207d5e1078be1f4165", "vout": [{"scriptPubKey": {"reqSigs": 1, "hex": "76a9145fc8dfd64165eb7c5aad2f8ecd59e0a0b0726f4d88ac", "addresses": ["19jTqDin8199W3j1dmnioRCJXMtUHipd5p"], "asm": "OP_DUP OP_HASH160 5fc8dfd64165eb7c5aad2f8ecd59e0a0b0726f4d OP_EQUALVERIFY OP_CHECKSIG", "type": "pubkeyhash"}, "value": 0.00203371, "n": 0}, {"scriptPubKey": {"reqSigs": 1, "hex": "76a9144841703c01e6e4f52e57e9c359485a03f5ed66d788ac", "addresses": ["17b43Z41XktNMtYaQAeZcj4aAsT5d7tiVT"], "asm": "OP_DUP OP_HASH160 4841703c01e6e4f52e57e9c359485a03f5ed66d7 OP_EQUALVERIFY OP_CHECKSIG", "type": "pubkeyhash"}, "value": 0.11915144, "n": 1}], "hex": "0100000001109e048034a2e53f1e62fd59d755486a33a9aff893987398f76799fa0b2593d4010000006a47304402201efa78e13367e98d79eefc369799a759665c2b9657ab814365086a014f67a3c402206cfe9d43f81acef31030c8ca5884fce47dfe8d9888ff199aaf458ab87c3e0bb30121039664361c175a5b0e78ff8fc03a25c02c17ab04e5add7f83534967d3bc12c7eafffffffff026b1a0300000000001976a9145fc8dfd64165eb7c5aad2f8ecd59e0a0b0726f4d88ac88cfb500000000001976a9144841703c01e6e4f52e57e9c359485a03f5ed66d788ac00000000", "vin": [{"sequence": 4294967295, "scriptSig": {"hex": "47304402201efa78e13367e98d79eefc369799a759665c2b9657ab814365086a014f67a3c402206cfe9d43f81acef31030c8ca5884fce47dfe8d9888ff199aaf458ab87c3e0bb30121039664361c175a5b0e78ff8fc03a25c02c17ab04e5add7f83534967d3bc12c7eaf", "asm": "304402201efa78e13367e98d79eefc369799a759665c2b9657ab814365086a014f67a3c402206cfe9d43f81acef31030c8ca5884fce47dfe8d9888ff199aaf458ab87c3e0bb3[ALL] 039664361c175a5b0e78ff8fc03a25c02c17ab04e5add7f83534967d3bc12c7eaf"}, "vout": 1, "txid": "d493250bfa9967f798739893f8afa9336a4855d759fd621e3fe5a23480049e10"}], "txid": "e1c7e9ace8137a7e9103f597290341d875ea1cb5dbd792b72b9f1d109d90d939", "blocktime": 1537872475, "version": 1, "confirmations": 11486, "time": 1537872475, "locktime": 0, "vsize": 225, "size": 225}