{"hash": "e1c913fd8384a85bd5c20e762fdcd8ffa7fbb9042f7832778f7cbf316ad4d588", "blockhash": "0000000000000000000e13cef7c366c0283d82e591d1acd082e914b08063cdf1", "vout": [{"scriptPubKey": {"reqSigs": 1, "hex": "76a914b75cbde63db6c6f956123acf307fa624f26e7fe488ac", "addresses": ["1HiXkvEXHuA7BNKYoZiTV6smiR9GWJYth1"], "asm": "OP_DUP OP_HASH160 b75cbde63db6c6f956123acf307fa624f26e7fe4 OP_EQUALVERIFY OP_CHECKSIG", "type": "pubkeyhash"}, "value": 0.11279023, "n": 0}, {"scriptPubKey": {"reqSigs": 1, "hex": "76a91421218aaf8c36a94041d1e3e5d427b01b176f2b5a88ac", "addresses": ["142BUrPEGSoCo6Vbo62PusyC5hJzruTiVK"], "asm": "OP_DUP OP_HASH160 21218aaf8c36a94041d1e3e5d427b01b176f2b5a OP_EQUALVERIFY OP_CHECKSIG", "type": "pubkeyhash"}, "value": 0.71245431, "n": 1}], "hex": "010000000214fae96fa6427bf5a6329c316e82baeb237ec299db777b53c91f2f0e8909079f020000006b483045022100ae9899d3a6a2b4fb876cea88f35837e256714757802d34c2875b145579aa7321022060598683c331d3cc152625777b1727765414079cc72b4e53edb20feff721aaa20121030299dea75c46e222f3bb0e3eb6c57b8cdff6dfe7168ddf7771c237de880b6376ffffffff77bc326faccd1f54d9cd17d7608d8b28f62d2623db4365a2a48f3816f533cfa5010000006b483045022100eb807ca56088ea42c42d0df66b6be343159ab9e528d603ad4bfb89294096c7b502201e71b0f9bde28c75a00e050f1547b41afc02777866c5a54bdf4b8e1aebf11ce2012103bf10bc96083ca9fb463b544f131d298af80e9a2299858caf5720e5ff8e6a567affffffff02af1aac00000000001976a914b75cbde63db6c6f956123acf307fa624f26e7fe488ac771e3f04000000001976a91421218aaf8c36a94041d1e3e5d427b01b176f2b5a88ac00000000", "vin": [{"sequence": 4294967295, "scriptSig": {"hex": "483045022100ae9899d3a6a2b4fb876cea88f35837e256714757802d34c2875b145579aa7321022060598683c331d3cc152625777b1727765414079cc72b4e53edb20feff721aaa20121030299dea75c46e222f3bb0e3eb6c57b8cdff6dfe7168ddf7771c237de880b6376", "asm": "3045022100ae9899d3a6a2b4fb876cea88f35837e256714757802d34c2875b145579aa7321022060598683c331d3cc152625777b1727765414079cc72b4e53edb20feff721aaa2[ALL] 030299dea75c46e222f3bb0e3eb6c57b8cdff6dfe7168ddf7771c237de880b6376"}, "vout": 2, "txid": "9f0709890e2f1fc9537b77db99c27e23ebba826e319c32a6f57b42a66fe9fa14"}, {"sequence": 4294967295, "scriptSig": {"hex": "483045022100eb807ca56088ea42c42d0df66b6be343159ab9e528d603ad4bfb89294096c7b502201e71b0f9bde28c75a00e050f1547b41afc02777866c5a54bdf4b8e1aebf11ce2012103bf10bc96083ca9fb463b544f131d298af80e9a2299858caf5720e5ff8e6a567a", "asm": "3045022100eb807ca56088ea42c42d0df66b6be343159ab9e528d603ad4bfb89294096c7b502201e71b0f9bde28c75a00e050f1547b41afc02777866c5a54bdf4b8e1aebf11ce2[ALL] 03bf10bc96083ca9fb463b544f131d298af80e9a2299858caf5720e5ff8e6a567a"}, "vout": 1, "txid": "a5cf33f516388fa4a26543db23262df6288b8d60d717cdd9541fcdac6f32bc77"}], "txid": "e1c913fd8384a85bd5c20e762fdcd8ffa7fbb9042f7832778f7cbf316ad4d588", "blocktime": 1537871767, "version": 1, "confirmations": 11491, "time": 1537871767, "locktime": 0, "vsize": 374, "size": 374}