{"hash": "e1ce78171cc7911a48817307b0aa9e8ec3bd34d0944644fdbf4e335f08496b31", "blockhash": "00000000000000000017f5eb5941039fbcee6240d03bc1f2f8e35350df66a1d8", "vout": [{"scriptPubKey": {"type": "nulldata", "hex": "6a146f6d6e69000000000000001f000060680c58a000", "asm": "OP_RETURN 6f6d6e69000000000000001f000060680c58a000"}, "value": 0.0, "n": 0}, {"scriptPubKey": {"reqSigs": 1, "hex": "76a9146ec899c0bbdb7921092346e047a8cf4e4874ad6d88ac", "addresses": ["1B6me5MvLP7Mu1yYXB8mbEVtsRsQkeYr6X"], "asm": "OP_DUP OP_HASH160 6ec899c0bbdb7921092346e047a8cf4e4874ad6d OP_EQUALVERIFY OP_CHECKSIG", "type": "pubkeyhash"}, "value": 0.00204117, "n": 1}, {"scriptPubKey": {"reqSigs": 1, "hex": "76a914a25dec4d0011064ef106a983c39c7a540699f22088ac", "addresses": ["1FoWyxwPXuj4C6abqwhjDWdz6D4PZgYRjA"], "asm": "OP_DUP OP_HASH160 a25dec4d0011064ef106a983c39c7a540699f220 OP_EQUALVERIFY OP_CHECKSIG", "type": "pubkeyhash"}, "value": 5.46e-06, "n": 2}], "hex": "0100000001684263045b414811f68e0292ed78bcd3a02f6ab8d25c080a9e6b928bbe6767f7000000006a47304402204d44c9ed771ee9b022c226e048a34e82a32d254b341e11f903a42fb958c690dd022063b2addc1a0713c08858eb25ef2f2c9fb944af62f0ae88f55d092b96ceb1a3d501210384490bbaad5393ddf7e613ecca8d813315b414261596ee151afdec343514c043feffffff030000000000000000166a146f6d6e69000000000000001f000060680c58a000551d0300000000001976a9146ec899c0bbdb7921092346e047a8cf4e4874ad6d88ac22020000000000001976a914a25dec4d0011064ef106a983c39c7a540699f22088ac15490800", "vin": [{"sequence": 4294967294, "scriptSig": {"hex": "47304402204d44c9ed771ee9b022c226e048a34e82a32d254b341e11f903a42fb958c690dd022063b2addc1a0713c08858eb25ef2f2c9fb944af62f0ae88f55d092b96ceb1a3d501210384490bbaad5393ddf7e613ecca8d813315b414261596ee151afdec343514c043", "asm": "304402204d44c9ed771ee9b022c226e048a34e82a32d254b341e11f903a42fb958c690dd022063b2addc1a0713c08858eb25ef2f2c9fb944af62f0ae88f55d092b96ceb1a3d5[ALL] 0384490bbaad5393ddf7e613ecca8d813315b414261596ee151afdec343514c043"}, "vout": 0, "txid": "f76767be8b926b9e0a085cd2b86a2fa0d3bc78ed92028ef61148415b04634268"}], "txid": "e1ce78171cc7911a48817307b0aa9e8ec3bd34d0944644fdbf4e335f08496b31", "blocktime": 1537874412, "version": 1, "confirmations": 11468, "time": 1537874412, "locktime": 542997, "vsize": 256, "size": 256}