{"hash": "e1d3d367b7e7e1a25ca5c81a81b9f4d3a100c6800adfaf831e146d23666b6461", "blockhash": "0000000000000000001f76057863aec43deb6fa401d9628bb513d65a8098bfab", "vout": [{"scriptPubKey": {"reqSigs": 1, "hex": "76a914382ce655e1cdd01af2d9e46573e9fbd0bb749d3688ac", "addresses": ["1682dS3BbTDCgAgnRYMNhDwEGYjRpaS3h3"], "asm": "OP_DUP OP_HASH160 382ce655e1cdd01af2d9e46573e9fbd0bb749d36 OP_EQUALVERIFY OP_CHECKSIG", "type": "pubkeyhash"}, "value": 0.00326208, "n": 0}, {"scriptPubKey": {"type": "nulldata", "hex": "6a146f6d6e69000000000000001f0000024c8a196490", "asm": "OP_RETURN 6f6d6e69000000000000001f0000024c8a196490"}, "value": 0.0, "n": 1}, {"scriptPubKey": {"reqSigs": 1, "hex": "76a914e556b281cade9c57a026dcb231fc3555a1c4594f88ac", "addresses": ["1MudbmEgNo25mgiNgzfCumtHDMmsi9SVc1"], "asm": "OP_DUP OP_HASH160 e556b281cade9c57a026dcb231fc3555a1c4594f OP_EQUALVERIFY OP_CHECKSIG", "type": "pubkeyhash"}, "value": 5.46e-06, "n": 2}], "hex": "010000000384359e4877c6db3ebc739476c0f840e21fffbe18245624748a546211942ef356020000006a473044022032d47c2bd14d5d297f8aa83bee647881fc4cc77faf41a7a193d92da1c70267fc02202c2b882ecafafdc4814fb25d48882a3287a1d867d0b4fd598b1f0db4aff4650101210269c0e0d2c1d365de58f3a0aff2959771bf34911738cb99ea19a64a847d19dd22ffffffff179acd4b8fa49be285c708085e782922f27376b4e6d942860a7140fd99d9c020010000006b483045022100ff7d8b754e8f11f912ce9c40f0918da1ed09c462cc749cbfd3031e716ad73b8302203411bdbd70332919ee56397755fe080c47a876d7d9b1f2a51b65ce183c57541501210269c0e0d2c1d365de58f3a0aff2959771bf34911738cb99ea19a64a847d19dd22ffffffff4ad2eeca23407719d7bd196a7ab9ce653d2fc5a1f956d9a3bdd3151f8cd422b0000000006b483045022100ff1e708a115657874084be8edd603e91b96f677837c3e831f7bce5e61e521648022064be2b6aa985b4dfc85df8ef135222685133b02e2fa7b8e4d7cf88e9868aa6850121039000d0616967dd25f800d8a8f45648c89fb366c2caeefd348010ea3a8f9a69ffffffffff0340fa0400000000001976a914382ce655e1cdd01af2d9e46573e9fbd0bb749d3688ac0000000000000000166a146f6d6e69000000000000001f0000024c8a19649022020000000000001976a914e556b281cade9c57a026dcb231fc3555a1c4594f88ac00000000", "vin": [{"sequence": 4294967295, "scriptSig": {"hex": "473044022032d47c2bd14d5d297f8aa83bee647881fc4cc77faf41a7a193d92da1c70267fc02202c2b882ecafafdc4814fb25d48882a3287a1d867d0b4fd598b1f0db4aff4650101210269c0e0d2c1d365de58f3a0aff2959771bf34911738cb99ea19a64a847d19dd22", "asm": "3044022032d47c2bd14d5d297f8aa83bee647881fc4cc77faf41a7a193d92da1c70267fc02202c2b882ecafafdc4814fb25d48882a3287a1d867d0b4fd598b1f0db4aff46501[ALL] 0269c0e0d2c1d365de58f3a0aff2959771bf34911738cb99ea19a64a847d19dd22"}, "vout": 2, "txid": "56f32e941162548a7424562418beff1fe240f8c0769473bc3edbc677489e3584"}, {"sequence": 4294967295, "scriptSig": {"hex": "483045022100ff7d8b754e8f11f912ce9c40f0918da1ed09c462cc749cbfd3031e716ad73b8302203411bdbd70332919ee56397755fe080c47a876d7d9b1f2a51b65ce183c57541501210269c0e0d2c1d365de58f3a0aff2959771bf34911738cb99ea19a64a847d19dd22", "asm": "3045022100ff7d8b754e8f11f912ce9c40f0918da1ed09c462cc749cbfd3031e716ad73b8302203411bdbd70332919ee56397755fe080c47a876d7d9b1f2a51b65ce183c575415[ALL] 0269c0e0d2c1d365de58f3a0aff2959771bf34911738cb99ea19a64a847d19dd22"}, "vout": 1, "txid": "20c0d999fd40710a8642d9e6b47673f22229785e0808c785e29ba48f4bcd9a17"}, {"sequence": 4294967295, "scriptSig": {"hex": "483045022100ff1e708a115657874084be8edd603e91b96f677837c3e831f7bce5e61e521648022064be2b6aa985b4dfc85df8ef135222685133b02e2fa7b8e4d7cf88e9868aa6850121039000d0616967dd25f800d8a8f45648c89fb366c2caeefd348010ea3a8f9a69ff", "asm": "3045022100ff1e708a115657874084be8edd603e91b96f677837c3e831f7bce5e61e521648022064be2b6aa985b4dfc85df8ef135222685133b02e2fa7b8e4d7cf88e9868aa685[ALL] 039000d0616967dd25f800d8a8f45648c89fb366c2caeefd348010ea3a8f9a69ff"}, "vout": 0, "txid": "b022d48c1f15d3bda3d956f9a1c52f3d65ceb97a6a19bdd719774023caeed24a"}], "txid": "e1d3d367b7e7e1a25ca5c81a81b9f4d3a100c6800adfaf831e146d23666b6461", "blocktime": 1537873891, "version": 1, "confirmations": 11477, "time": 1537873891, "locktime": 0, "vsize": 552, "size": 552}