{"hash": "e1d3767b53b5a3e7f6963d2bae1fc60f3aa7109dc25f62fb5a81b0f373e5de25", "blockhash": "00000000000000000018f53835495a110e01622372bf6ae95dc86f2b0ab887b0", "vout": [{"scriptPubKey": {"reqSigs": 1, "hex": "76a914bd3433a1c4cdf2b7177e92eb85fc581c11e97b3888ac", "addresses": ["1JFRFHyqgLuGQnaiymxZ6RVr2WqsSazRqf"], "asm": "OP_DUP OP_HASH160 bd3433a1c4cdf2b7177e92eb85fc581c11e97b38 OP_EQUALVERIFY OP_CHECKSIG", "type": "pubkeyhash"}, "value": 0.00011879, "n": 0}, {"scriptPubKey": {"reqSigs": 1, "hex": "76a914cadaf546ea895e685474fcb3a4ea2d2adf42132d88ac", "addresses": ["1KVboE7qWCAyeFxWE5dXw1Gh6hfzu1vnPb"], "asm": "OP_DUP OP_HASH160 cadaf546ea895e685474fcb3a4ea2d2adf42132d OP_EQUALVERIFY OP_CHECKSIG", "type": "pubkeyhash"}, "value": 0.0454566, "n": 1}], "hex": "0100000001afba0b2d903333e357239851fc796272765ba88da3313a1d121c1f61852e116c020000006b483045022100e6a7af1d36dc62c74883ad73966b98feaf5ce41852bc6ac86072db094f267f1b0220237a67060fd7ba6d2916300a723a1859f6b7cd2e30dcd6b8c2320bba9de7ab1b01210342a29442c6e61620ba353601b06c6c18a7d59248cab02c78c00072e1875456b7ffffffff02672e0000000000001976a914bd3433a1c4cdf2b7177e92eb85fc581c11e97b3888ac7c5c4500000000001976a914cadaf546ea895e685474fcb3a4ea2d2adf42132d88ac00000000", "vin": [{"sequence": 4294967295, "scriptSig": {"hex": "483045022100e6a7af1d36dc62c74883ad73966b98feaf5ce41852bc6ac86072db094f267f1b0220237a67060fd7ba6d2916300a723a1859f6b7cd2e30dcd6b8c2320bba9de7ab1b01210342a29442c6e61620ba353601b06c6c18a7d59248cab02c78c00072e1875456b7", "asm": "3045022100e6a7af1d36dc62c74883ad73966b98feaf5ce41852bc6ac86072db094f267f1b0220237a67060fd7ba6d2916300a723a1859f6b7cd2e30dcd6b8c2320bba9de7ab1b[ALL] 0342a29442c6e61620ba353601b06c6c18a7d59248cab02c78c00072e1875456b7"}, "vout": 2, "txid": "6c112e85611f1c121d3a31a38da85b76726279fc51982357e33333902d0bbaaf"}], "txid": "e1d3767b53b5a3e7f6963d2bae1fc60f3aa7109dc25f62fb5a81b0f373e5de25", "blocktime": 1537870928, "version": 1, "confirmations": 11512, "time": 1537870928, "locktime": 0, "vsize": 226, "size": 226}