{"hash": "e1dadf594cde0c54ca137d1e73ea760ef3d9fc8ae572c098abdf31a7cdd7ca36", "blockhash": "00000000000000000017f5eb5941039fbcee6240d03bc1f2f8e35350df66a1d8", "vout": [{"scriptPubKey": {"reqSigs": 1, "hex": "76a914ae89d2f0bd68b27ac88da69cae3b9c58ac03290f88ac", "addresses": ["1GusgZJTnzFs9f43DkDZ4fdcUwTqthVeFZ"], "asm": "OP_DUP OP_HASH160 ae89d2f0bd68b27ac88da69cae3b9c58ac03290f OP_EQUALVERIFY OP_CHECKSIG", "type": "pubkeyhash"}, "value": 0.01008779, "n": 0}, {"scriptPubKey": {"reqSigs": 1, "hex": "76a9148a669e4f139afcc24bb7c4432bf92ab7fa75263c88ac", "addresses": ["1DcoBXNTN4eHRu2mZkSLyj6hHe6EHwdJzL"], "asm": "OP_DUP OP_HASH160 8a669e4f139afcc24bb7c4432bf92ab7fa75263c OP_EQUALVERIFY OP_CHECKSIG", "type": "pubkeyhash"}, "value": 0.01479624, "n": 1}], "hex": "0200000002093a3b4f111adafe003ebae202bd9fb8afddaf18741859af1290f75fa84880a2010000006b483045022100b54ff44e6e28215a3cc92b8a75e7194cb0c85c054dcd2850ba3cc3a1d514eb2c0220099e1a9b170ef12707f9d39a9ccd4e1dbb8f744185372bd88f6e279cdc5fb8660121024a6390a87b824b5dd858975be6b4f381e1dc3f44b1dd97c64d854aed647ff088feffffff5e4980d1407d5c555193db37c0299fbfb26c1a2e15b8b9ac04d334291be17e64010000006a473044022065eb0e67e213ae59a1ffcffe4eb1f8db2b9b2ca49a467a9911fd372cbdb41f4d02206bfec95ea5f2441f1cafd649b70a948214dfd4eabb87549bae6a8b88a46dd2550121032a13054767df2ec14c8b03a3845768a74a87b92070602bc16a0df27de055564cfeffffff028b640f00000000001976a914ae89d2f0bd68b27ac88da69cae3b9c58ac03290f88acc8931600000000001976a9148a669e4f139afcc24bb7c4432bf92ab7fa75263c88ac15490800", "vin": [{"sequence": 4294967294, "scriptSig": {"hex": "483045022100b54ff44e6e28215a3cc92b8a75e7194cb0c85c054dcd2850ba3cc3a1d514eb2c0220099e1a9b170ef12707f9d39a9ccd4e1dbb8f744185372bd88f6e279cdc5fb8660121024a6390a87b824b5dd858975be6b4f381e1dc3f44b1dd97c64d854aed647ff088", "asm": "3045022100b54ff44e6e28215a3cc92b8a75e7194cb0c85c054dcd2850ba3cc3a1d514eb2c0220099e1a9b170ef12707f9d39a9ccd4e1dbb8f744185372bd88f6e279cdc5fb866[ALL] 024a6390a87b824b5dd858975be6b4f381e1dc3f44b1dd97c64d854aed647ff088"}, "vout": 1, "txid": "a28048a85ff79012af59187418afddafb89fbd02e2ba3e00feda1a114f3b3a09"}, {"sequence": 4294967294, "scriptSig": {"hex": "473044022065eb0e67e213ae59a1ffcffe4eb1f8db2b9b2ca49a467a9911fd372cbdb41f4d02206bfec95ea5f2441f1cafd649b70a948214dfd4eabb87549bae6a8b88a46dd2550121032a13054767df2ec14c8b03a3845768a74a87b92070602bc16a0df27de055564c", "asm": "3044022065eb0e67e213ae59a1ffcffe4eb1f8db2b9b2ca49a467a9911fd372cbdb41f4d02206bfec95ea5f2441f1cafd649b70a948214dfd4eabb87549bae6a8b88a46dd255[ALL] 032a13054767df2ec14c8b03a3845768a74a87b92070602bc16a0df27de055564c"}, "vout": 1, "txid": "647ee11b2934d304acb9b8152e1a6cb2bf9f29c037db9351555c7d40d180495e"}], "txid": "e1dadf594cde0c54ca137d1e73ea760ef3d9fc8ae572c098abdf31a7cdd7ca36", "blocktime": 1537874412, "version": 2, "confirmations": 11466, "time": 1537874412, "locktime": 542997, "vsize": 373, "size": 373}