{"hash": "e1dba05d21fb807902d560843ad1e406e66ab3574a8a7080a3b27492383eff15", "blockhash": "0000000000000000001f76057863aec43deb6fa401d9628bb513d65a8098bfab", "vout": [{"scriptPubKey": {"reqSigs": 1, "hex": "a914d3517095a029c87b02df2a448c4304fcc42a898e87", "addresses": ["3LxN4ZAJ1DPiQ7oA7gA3E5V2kSpW3TTAqb"], "asm": "OP_HASH160 d3517095a029c87b02df2a448c4304fcc42a898e OP_EQUAL", "type": "scripthash"}, "value": 0.00486162, "n": 0}, {"scriptPubKey": {"reqSigs": 1, "hex": "76a914ff13b07b64a3836ae0131d9a37c993877c56e12d88ac", "addresses": ["1QFitxdGzrsXnpvHspfS6RWKNjN7vXVNxV"], "asm": "OP_DUP OP_HASH160 ff13b07b64a3836ae0131d9a37c993877c56e12d OP_EQUALVERIFY OP_CHECKSIG", "type": "pubkeyhash"}, "value": 0.0060632, "n": 1}], "hex": "0100000001e6c0b8d7bd7c34e53c8850fc799881169fc2bd5c270dd30b9bac0372392ffded010000006b483045022100b5fdc0285bf55dadc8d60c12970ed09a2c06caaf6ad6679f48d87845d10a0bdb02205378acdb1ee927f95833030dd7e32daae8892414d870bc0253dbc9d7b37533f70121028280785daa526bbc8ebf83724334fa74280a91444a37b79088fda7ea50bfa3e5ffffffff02126b07000000000017a914d3517095a029c87b02df2a448c4304fcc42a898e8770400900000000001976a914ff13b07b64a3836ae0131d9a37c993877c56e12d88ac00000000", "vin": [{"sequence": 4294967295, "scriptSig": {"hex": "483045022100b5fdc0285bf55dadc8d60c12970ed09a2c06caaf6ad6679f48d87845d10a0bdb02205378acdb1ee927f95833030dd7e32daae8892414d870bc0253dbc9d7b37533f70121028280785daa526bbc8ebf83724334fa74280a91444a37b79088fda7ea50bfa3e5", "asm": "3045022100b5fdc0285bf55dadc8d60c12970ed09a2c06caaf6ad6679f48d87845d10a0bdb02205378acdb1ee927f95833030dd7e32daae8892414d870bc0253dbc9d7b37533f7[ALL] 028280785daa526bbc8ebf83724334fa74280a91444a37b79088fda7ea50bfa3e5"}, "vout": 1, "txid": "edfd2f397203ac9b0bd30d275cbdc29f16819879fc50883ce5347cbdd7b8c0e6"}], "txid": "e1dba05d21fb807902d560843ad1e406e66ab3574a8a7080a3b27492383eff15", "blocktime": 1537873891, "version": 1, "confirmations": 11477, "time": 1537873891, "locktime": 0, "vsize": 224, "size": 224}