{"hash": "e1e31e8ca92c2ef7831f7fb102985900c910296ac67ee7b7ee148379dd931c7f", "blockhash": "0000000000000000000e13cef7c366c0283d82e591d1acd082e914b08063cdf1", "vout": [{"scriptPubKey": {"reqSigs": 1, "hex": "76a91459655815a6e5f18e85e19d74066298358a720ea788ac", "addresses": ["199gYapQfn9z9yYF5uu9AjC2ee5dWZkJpG"], "asm": "OP_DUP OP_HASH160 59655815a6e5f18e85e19d74066298358a720ea7 OP_EQUALVERIFY OP_CHECKSIG", "type": "pubkeyhash"}, "value": 0.00022582, "n": 0}, {"scriptPubKey": {"reqSigs": 1, "hex": "76a9148f8cc3864bf91b540091267841a0418dce7309f188ac", "addresses": ["1E62FsT3QaPRhoAFastxtA7ZtdGcqYMRUo"], "asm": "OP_DUP OP_HASH160 8f8cc3864bf91b540091267841a0418dce7309f1 OP_EQUALVERIFY OP_CHECKSIG", "type": "pubkeyhash"}, "value": 0.017, "n": 1}], "hex": "010000000854f3ef5fe2d813f4bd927ddfaad72d27a2ee34a3bb44288d3018f7a03cdd24312a0000006a47304402204675e6194f4be1694b736b7ce711c08d392dd6df98fb4eefd067d8bcb859df0c02201bf0077e1de185880b5752b0f1d5242cedfd627e9774998f285d2c7fec171f4a01210379fdcd623e39588277812aefd1a83615d03a86e4a12a0eee97b07a76fbe1c281ffffffff79e111f24f26489161a8c25d07aedec42744fe44d2eeea93de9f44b4f4fe9e4b100000006a4730440220452c1319fa15307169edc82ea1fb1c7963e1ed7ed8f74b41ba07ee0de91595d502205b7ad82d0386136f70c41d706c1e16f3cc8ff109c73f1e1a8f9c543fa8985a8a01210379fdcd623e39588277812aefd1a83615d03a86e4a12a0eee97b07a76fbe1c281ffffffff82cda1cc3105cb54c8dbf20dd4df88b7ae86524f86f00ed2a78a311746c6ae54220000006a47304402201bf2983237457349857087e8f199ca897e19b8b9d5e1f4132fadc88e70c4fb5e02201ee8711623aff1112b2a1be95406bc90d46df47b3d0ba5a61447a58d3bf527bf01210379fdcd623e39588277812aefd1a83615d03a86e4a12a0eee97b07a76fbe1c281ffffffffd6465918c5a859f6af6b2b58edd218aa8a9c58b70e239fea1229e7429952e860010000006a4730440220678edd19677a00e00c4dcf0522ba0ad3506da892da4db687b0899ddd3c35f3680220256a386d583c87b12776c8d1a050800fbb91a2fe78f51b9b68c775c6b31cd76201210379fdcd623e39588277812aefd1a83615d03a86e4a12a0eee97b07a76fbe1c281ffffffff528db13086293beea40a6ae7beae394d31913368d39f192145239e515194fb67070000006a47304402200390330aa77829496b443f583cf9471b17efa12de3bea4122765c78831bcde8002206f2fdf95343eb00723f7e2be452c7f11f55146a7671d568bba03b5e4350228c701210379fdcd623e39588277812aefd1a83615d03a86e4a12a0eee97b07a76fbe1c281ffffffff2f3f27d05b0214353bb129e281acded44fee450afeea5df2797383b6e56652821a0000006b483045022100c7b0e202742c3bd1de350d1e5a8b7c466a17c595fb6923a31b5e44b7a051563902204aa8d5d306d20bc92312225c461492f6f0af59cd71dcc0c31f5f2f7a70af5cee01210379fdcd623e39588277812aefd1a83615d03a86e4a12a0eee97b07a76fbe1c281ffffffff47f8d62fa6517504c93d625d213145b70d0a60aa3a409a1ceaa6dfa0bd63d99d000000006a4730440220302d2bc2664341bbba247c00e8d24131fe269ec8975e3a37ef646b2a4d0fa3c50220599d24d8fc6919c6253140e859bc676a582c72473a42f3f1cb69b7df0be499b301210379fdcd623e39588277812aefd1a83615d03a86e4a12a0eee97b07a76fbe1c281ffffffffdfcd23b89e41e4917a9028b49ba0ef1cce3e070ba0b6b2229b707a4509a50abe010000006a473044022002eebf76141b32c0b58ae6c983d20c0691f3727b5dbca8f3d4b70bb238148ca50220777aaa98e984928e86c45d6448058418274a92d9cf8e3b69715a1db7ccad22cc01210379fdcd623e39588277812aefd1a83615d03a86e4a12a0eee97b07a76fbe1c281ffffffff0236580000000000001976a91459655815a6e5f18e85e19d74066298358a720ea788aca0f01900000000001976a9148f8cc3864bf91b540091267841a0418dce7309f188ac00000000", "vin": [{"sequence": 4294967295, "scriptSig": {"hex": "47304402204675e6194f4be1694b736b7ce711c08d392dd6df98fb4eefd067d8bcb859df0c02201bf0077e1de185880b5752b0f1d5242cedfd627e9774998f285d2c7fec171f4a01210379fdcd623e39588277812aefd1a83615d03a86e4a12a0eee97b07a76fbe1c281", "asm": "304402204675e6194f4be1694b736b7ce711c08d392dd6df98fb4eefd067d8bcb859df0c02201bf0077e1de185880b5752b0f1d5242cedfd627e9774998f285d2c7fec171f4a[ALL] 0379fdcd623e39588277812aefd1a83615d03a86e4a12a0eee97b07a76fbe1c281"}, "vout": 42, "txid": "3124dd3ca0f718308d2844bba334eea2272dd7aadf7d92bdf413d8e25feff354"}, {"sequence": 4294967295, "scriptSig": {"hex": "4730440220452c1319fa15307169edc82ea1fb1c7963e1ed7ed8f74b41ba07ee0de91595d502205b7ad82d0386136f70c41d706c1e16f3cc8ff109c73f1e1a8f9c543fa8985a8a01210379fdcd623e39588277812aefd1a83615d03a86e4a12a0eee97b07a76fbe1c281", "asm": "30440220452c1319fa15307169edc82ea1fb1c7963e1ed7ed8f74b41ba07ee0de91595d502205b7ad82d0386136f70c41d706c1e16f3cc8ff109c73f1e1a8f9c543fa8985a8a[ALL] 0379fdcd623e39588277812aefd1a83615d03a86e4a12a0eee97b07a76fbe1c281"}, "vout": 16, "txid": "4b9efef4b4449fde93eaeed244fe4427c4deae075dc2a8619148264ff211e179"}, {"sequence": 4294967295, "scriptSig": {"hex": "47304402201bf2983237457349857087e8f199ca897e19b8b9d5e1f4132fadc88e70c4fb5e02201ee8711623aff1112b2a1be95406bc90d46df47b3d0ba5a61447a58d3bf527bf01210379fdcd623e39588277812aefd1a83615d03a86e4a12a0eee97b07a76fbe1c281", "asm": "304402201bf2983237457349857087e8f199ca897e19b8b9d5e1f4132fadc88e70c4fb5e02201ee8711623aff1112b2a1be95406bc90d46df47b3d0ba5a61447a58d3bf527bf[ALL] 0379fdcd623e39588277812aefd1a83615d03a86e4a12a0eee97b07a76fbe1c281"}, "vout": 34, "txid": "54aec64617318aa7d20ef0864f5286aeb788dfd40df2dbc854cb0531cca1cd82"}, {"sequence": 4294967295, "scriptSig": {"hex": "4730440220678edd19677a00e00c4dcf0522ba0ad3506da892da4db687b0899ddd3c35f3680220256a386d583c87b12776c8d1a050800fbb91a2fe78f51b9b68c775c6b31cd76201210379fdcd623e39588277812aefd1a83615d03a86e4a12a0eee97b07a76fbe1c281", "asm": "30440220678edd19677a00e00c4dcf0522ba0ad3506da892da4db687b0899ddd3c35f3680220256a386d583c87b12776c8d1a050800fbb91a2fe78f51b9b68c775c6b31cd762[ALL] 0379fdcd623e39588277812aefd1a83615d03a86e4a12a0eee97b07a76fbe1c281"}, "vout": 1, "txid": "60e8529942e72912ea9f230eb7589c8aaa18d2ed582b6baff659a8c5185946d6"}, {"sequence": 4294967295, "scriptSig": {"hex": "47304402200390330aa77829496b443f583cf9471b17efa12de3bea4122765c78831bcde8002206f2fdf95343eb00723f7e2be452c7f11f55146a7671d568bba03b5e4350228c701210379fdcd623e39588277812aefd1a83615d03a86e4a12a0eee97b07a76fbe1c281", "asm": "304402200390330aa77829496b443f583cf9471b17efa12de3bea4122765c78831bcde8002206f2fdf95343eb00723f7e2be452c7f11f55146a7671d568bba03b5e4350228c7[ALL] 0379fdcd623e39588277812aefd1a83615d03a86e4a12a0eee97b07a76fbe1c281"}, "vout": 7, "txid": "67fb9451519e234521199fd3683391314d39aebee76a0aa4ee3b298630b18d52"}, {"sequence": 4294967295, "scriptSig": {"hex": "483045022100c7b0e202742c3bd1de350d1e5a8b7c466a17c595fb6923a31b5e44b7a051563902204aa8d5d306d20bc92312225c461492f6f0af59cd71dcc0c31f5f2f7a70af5cee01210379fdcd623e39588277812aefd1a83615d03a86e4a12a0eee97b07a76fbe1c281", "asm": "3045022100c7b0e202742c3bd1de350d1e5a8b7c466a17c595fb6923a31b5e44b7a051563902204aa8d5d306d20bc92312225c461492f6f0af59cd71dcc0c31f5f2f7a70af5cee[ALL] 0379fdcd623e39588277812aefd1a83615d03a86e4a12a0eee97b07a76fbe1c281"}, "vout": 26, "txid": "825266e5b6837379f25deafe0a45ee4fd4deac81e229b13b3514025bd0273f2f"}, {"sequence": 4294967295, "scriptSig": {"hex": "4730440220302d2bc2664341bbba247c00e8d24131fe269ec8975e3a37ef646b2a4d0fa3c50220599d24d8fc6919c6253140e859bc676a582c72473a42f3f1cb69b7df0be499b301210379fdcd623e39588277812aefd1a83615d03a86e4a12a0eee97b07a76fbe1c281", "asm": "30440220302d2bc2664341bbba247c00e8d24131fe269ec8975e3a37ef646b2a4d0fa3c50220599d24d8fc6919c6253140e859bc676a582c72473a42f3f1cb69b7df0be499b3[ALL] 0379fdcd623e39588277812aefd1a83615d03a86e4a12a0eee97b07a76fbe1c281"}, "vout": 0, "txid": "9dd963bda0dfa6ea1c9a403aaa600a0db74531215d623dc9047551a62fd6f847"}, {"sequence": 4294967295, "scriptSig": {"hex": "473044022002eebf76141b32c0b58ae6c983d20c0691f3727b5dbca8f3d4b70bb238148ca50220777aaa98e984928e86c45d6448058418274a92d9cf8e3b69715a1db7ccad22cc01210379fdcd623e39588277812aefd1a83615d03a86e4a12a0eee97b07a76fbe1c281", "asm": "3044022002eebf76141b32c0b58ae6c983d20c0691f3727b5dbca8f3d4b70bb238148ca50220777aaa98e984928e86c45d6448058418274a92d9cf8e3b69715a1db7ccad22cc[ALL] 0379fdcd623e39588277812aefd1a83615d03a86e4a12a0eee97b07a76fbe1c281"}, "vout": 1, "txid": "be0aa509457a709b22b2b6a00b073ece1cefa09bb428907a91e4419eb823cddf"}], "txid": "e1e31e8ca92c2ef7831f7fb102985900c910296ac67ee7b7ee148379dd931c7f", "blocktime": 1537871767, "version": 1, "confirmations": 11493, "time": 1537871767, "locktime": 0, "vsize": 1255, "size": 1255}