{"hash": "4fef8315c7f87dd14df8e39154b3ce4b0f0fb138b0bcf6ab69dba2bf131daae0", "blockhash": "0000000000000000000baef3f32e3676a92c3b2e5da21b426e4f302fc371ce76", "vout": [{"scriptPubKey": {"reqSigs": 1, "hex": "00142730e7f67b238f3a46073d44499177278c0c56f1", "addresses": ["bc1qyucw0anmyw8n53s884zynythy7xqc4h373jxc7"], "asm": "0 2730e7f67b238f3a46073d44499177278c0c56f1", "type": "witness_v0_keyhash"}, "value": 0.00663201, "n": 0}, {"scriptPubKey": {"reqSigs": 1, "hex": "a9140136c10502ae5684e49b302f1af10f145f74b6b787", "addresses": ["31oSC7GvQMTZoouyNLBEHVRDhXEFbVhSmh"], "asm": "OP_HASH160 0136c10502ae5684e49b302f1af10f145f74b6b7 OP_EQUAL", "type": "scripthash"}, "value": 0.0307622, "n": 1}], "hex": "0100000000010148586e5d553c2b7aaa63b53e9b6946c1e4df127152b80458c00b5415a6e299190100000023220020efd02f10cc1074c68ec89b458572a71ce6bfc8a17595d8fde80232e47279444bffffffff02a11e0a00000000001600142730e7f67b238f3a46073d44499177278c0c56f17cf02e000000000017a9140136c10502ae5684e49b302f1af10f145f74b6b787040047304402200a7b4427566a68a4321f2d3cba2a06f76bef7474a48bd452dca9d262513a21cb02205229d5e061adf31c8727c8649c6e25f47fac55f69737f02ed3ee2b20681bd4f40147304402204d61b912379d9cc84700e77b9968dd2a569f51e5f92f3b5354ce0ce0cde23ff0022053774c272f866b7a53846b8503337a69ea9c328a55e2d0fd6c6c993d5df460b40147522103f985ea61f461801f3abc09ebed98ce7e20804639a64616f639f492883ea4e8d62103871fc2ca08e6950b38867e8e6a0e94ee625223d3aa0df5c65f414c6d784467e252ae00000000", "vin": [{"txinwitness": ["", "304402200a7b4427566a68a4321f2d3cba2a06f76bef7474a48bd452dca9d262513a21cb02205229d5e061adf31c8727c8649c6e25f47fac55f69737f02ed3ee2b20681bd4f401", "304402204d61b912379d9cc84700e77b9968dd2a569f51e5f92f3b5354ce0ce0cde23ff0022053774c272f866b7a53846b8503337a69ea9c328a55e2d0fd6c6c993d5df460b401", "522103f985ea61f461801f3abc09ebed98ce7e20804639a64616f639f492883ea4e8d62103871fc2ca08e6950b38867e8e6a0e94ee625223d3aa0df5c65f414c6d784467e252ae"], "sequence": 4294967295, "scriptSig": {"hex": "220020efd02f10cc1074c68ec89b458572a71ce6bfc8a17595d8fde80232e47279444b", "asm": "0020efd02f10cc1074c68ec89b458572a71ce6bfc8a17595d8fde80232e47279444b"}, "vout": 1, "txid": "1999e2a615540bc05804b8527112dfe4c146699b3eb563aa7a2b3c555d6e5848"}], "txid": "e1e77f566d7459f0964c368002175f8a70b0237d1dc334037531af0b11e8a563", "blocktime": 1537876114, "version": 1, "confirmations": 11460, "time": 1537876114, "locktime": 0, "vsize": 204, "size": 369}