{"hash": "7a3a03abd421033d12f6e7dab226285a11e08d6fba062356a4274eafce1870a7", "blockhash": "0000000000000000001f76057863aec43deb6fa401d9628bb513d65a8098bfab", "vout": [{"scriptPubKey": {"reqSigs": 1, "hex": "00149fd5f0755d127016f961ea6b31a9acc4f74d54dc", "addresses": ["bc1qnl2lqa2azfcpd7tpaf4nr2dvcnm564xuk03adt"], "asm": "0 9fd5f0755d127016f961ea6b31a9acc4f74d54dc", "type": "witness_v0_keyhash"}, "value": 2.251e-05, "n": 0}, {"scriptPubKey": {"reqSigs": 1, "hex": "a914828c069b3cbfb918066a48ce05759ee8a4398f4687", "addresses": ["3DbHWeP1K5ckrB7BA9TPADg2NBB7aGrcT8"], "asm": "OP_HASH160 828c069b3cbfb918066a48ce05759ee8a4398f46 OP_EQUAL", "type": "scripthash"}, "value": 0.003744, "n": 1}], "hex": "010000000001013bf461ab1ca6409685e4cb329704655bcb76cf79f79db2567770dadced1237aa010000001716001420d43be74e140eb201f3e767520d9596268b746bffffffff02cb080000000000001600149fd5f0755d127016f961ea6b31a9acc4f74d54dc80b605000000000017a914828c069b3cbfb918066a48ce05759ee8a4398f468702483045022100c589b0df49951041e9373b27cba655406ce4362bd9ac013cd40ba631a251b17a02204302255e077a3c27ac473c72cc42b868ee93502a67cc71fe339f5285f927211201210207c0f95be69ce678639f799009397e3567493ffb25c4bb4945eb41364e1967ad00000000", "vin": [{"txinwitness": ["3045022100c589b0df49951041e9373b27cba655406ce4362bd9ac013cd40ba631a251b17a02204302255e077a3c27ac473c72cc42b868ee93502a67cc71fe339f5285f927211201", "0207c0f95be69ce678639f799009397e3567493ffb25c4bb4945eb41364e1967ad"], "sequence": 4294967295, "scriptSig": {"hex": "16001420d43be74e140eb201f3e767520d9596268b746b", "asm": "001420d43be74e140eb201f3e767520d9596268b746b"}, "vout": 1, "txid": "aa3712eddcda707756b29df779cf76cb5b65049732cbe4859640a61cab61f43b"}], "txid": "e1f0e2c3b98c0b69568f8fcf11de9ac0de293fe14896175ea253b7b8d32b5ad1", "blocktime": 1537873891, "version": 1, "confirmations": 11478, "time": 1537873891, "locktime": 0, "vsize": 165, "size": 247}