{"hash": "23ab1cc4fe56c48ec65d2a4c19fbae352f664c090b909224dbd72cb82a108d1a", "blockhash": "0000000000000000000e13cef7c366c0283d82e591d1acd082e914b08063cdf1", "vout": [{"scriptPubKey": {"reqSigs": 1, "hex": "a91440b27ec805e52f91e630ca8b667b978fcbd0feef87", "addresses": ["37b6ztS3WxLMGw5kprFJCGjz2jfdmWejgc"], "asm": "OP_HASH160 40b27ec805e52f91e630ca8b667b978fcbd0feef OP_EQUAL", "type": "scripthash"}, "value": 0.0023425, "n": 0}, {"scriptPubKey": {"reqSigs": 1, "hex": "00144972edc9caaa9be58bd1e3d44de002c227c5738c", "addresses": ["bc1qf9ewmjw242d7tz73u02ymcqzcgnu2uuvmhen5n"], "asm": "0 4972edc9caaa9be58bd1e3d44de002c227c5738c", "type": "witness_v0_keyhash"}, "value": 6.169e-05, "n": 1}], "hex": "01000000000101bbeeee8a1e0da33d8e453f12bbfecd629dda77687d38924c68b63b20af53044a050000001716001426459c4cbf2a88f6f7aaaaa6af8aa7bf16aad7cbffffffff020a9303000000000017a91440b27ec805e52f91e630ca8b667b978fcbd0feef8719180000000000001600144972edc9caaa9be58bd1e3d44de002c227c5738c024730440220313f9e793df2b5ed18eddc2072c81d8ca558b696936a76ac93b0ebcd74fdfde00220334770901d4f08977075179c621071554bb034a4f25f8a5b65a4af103c8ebfaa01210333a3bf5e896c602ec6ce71e32c3691d2bcbae66c359fd499eb7f5bc1d7804a7400000000", "vin": [{"txinwitness": ["30440220313f9e793df2b5ed18eddc2072c81d8ca558b696936a76ac93b0ebcd74fdfde00220334770901d4f08977075179c621071554bb034a4f25f8a5b65a4af103c8ebfaa01", "0333a3bf5e896c602ec6ce71e32c3691d2bcbae66c359fd499eb7f5bc1d7804a74"], "sequence": 4294967295, "scriptSig": {"hex": "16001426459c4cbf2a88f6f7aaaaa6af8aa7bf16aad7cb", "asm": "001426459c4cbf2a88f6f7aaaaa6af8aa7bf16aad7cb"}, "vout": 5, "txid": "4a0453af203bb6684c92387d6877da9d62cdfebb123f458e3da30d1e8aeeeebb"}], "txid": "e1f45341e872ef5285afc58009eb55ce6109ed02755e0118d158ddae76476195", "blocktime": 1537871767, "version": 1, "confirmations": 11495, "time": 1537871767, "locktime": 0, "vsize": 165, "size": 246}