{"hash": "ef39c71f865d44606b3d2a2a6942b570ffec88e6d32786e5b6b49fe3930408d3", "blockhash": "0000000000000000001cda96e906b7601b7a6fb1a3b62bca570a9e5d8f4b3de1", "vout": [{"scriptPubKey": {"reqSigs": 1, "hex": "76a914f97d3a1583b167219f81b9ccf97f10b71520836988ac", "addresses": ["1PkBGgbYjxL27facVgei2xn4Q7EWTDc3za"], "asm": "OP_DUP OP_HASH160 f97d3a1583b167219f81b9ccf97f10b715208369 OP_EQUALVERIFY OP_CHECKSIG", "type": "pubkeyhash"}, "value": 0.00024288, "n": 0}, {"scriptPubKey": {"reqSigs": 1, "hex": "a914ecd406db1e2ecd7cb995ba6077c70a94f7e7337987", "addresses": ["3PHFPhFNBDdpaeaaR3ucUK6WnTjWVng5Xn"], "asm": "OP_HASH160 ecd406db1e2ecd7cb995ba6077c70a94f7e73379 OP_EQUAL", "type": "scripthash"}, "value": 0.0101465, "n": 1}], "hex": "0200000000010135e9dcf0285adc0e9e7d159064290b6a1a4667dd545863b7c51849c61f85245e0100000017160014bc6d291cf717f82fc7923f66767b8233c0317168feffffff02e05e0000000000001976a914f97d3a1583b167219f81b9ccf97f10b71520836988ac7a7b0f000000000017a914ecd406db1e2ecd7cb995ba6077c70a94f7e733798702483045022100ea65c781dc095eee1f3532d0e50b15399d62d74b6659ca44f5cfbd5669b444a602202521752592259ee67dbb33f0c4ec62915bbfe6179ea97fc9beabc1d5cd0c38a80121036ce90d7372e463cca8717c2f3947a04ff7f491ab0c8a7216779f911c4e8b296a13490800", "vin": [{"txinwitness": ["3045022100ea65c781dc095eee1f3532d0e50b15399d62d74b6659ca44f5cfbd5669b444a602202521752592259ee67dbb33f0c4ec62915bbfe6179ea97fc9beabc1d5cd0c38a801", "036ce90d7372e463cca8717c2f3947a04ff7f491ab0c8a7216779f911c4e8b296a"], "sequence": 4294967294, "scriptSig": {"hex": "160014bc6d291cf717f82fc7923f66767b8233c0317168", "asm": "0014bc6d291cf717f82fc7923f66767b8233c0317168"}, "vout": 1, "txid": "5e24851fc64918c5b7635854dd67461a6a0b296490157d9e0edc5a28f0dce935"}], "txid": "e1fba7281332078882aa3e5271b20f14a33155403bbb2b469b0cbd56fce5e1b7", "blocktime": 1537873282, "version": 2, "confirmations": 11485, "time": 1537873282, "locktime": 542995, "vsize": 168, "size": 250}