{"hash": "d8e4f3d822c2677a3bca7a250c4166a346cfe69a4c9186b2c428b4b4864a79d6", "blockhash": "00000000000000000018f53835495a110e01622372bf6ae95dc86f2b0ab887b0", "vout": [{"scriptPubKey": {"reqSigs": 1, "hex": "a914d1ce12d5c7a25a7ab02ab9e5e1c727bda0916b1b87", "addresses": ["3LpN1sxAhE4WgruKBJqgrfwyFARzQPdPA3"], "asm": "OP_HASH160 d1ce12d5c7a25a7ab02ab9e5e1c727bda0916b1b OP_EQUAL", "type": "scripthash"}, "value": 0.01721856, "n": 0}, {"scriptPubKey": {"reqSigs": 1, "hex": "a91458ee49ebd419a5c5ca5b5de5f44320188f5ae1fe87", "addresses": ["39oEr1z1hmSDFgoRwC2zhMnFC4mqmZc2di"], "asm": "OP_HASH160 58ee49ebd419a5c5ca5b5de5f44320188f5ae1fe OP_EQUAL", "type": "scripthash"}, "value": 5.41196746, "n": 1}], "hex": "020000000001016bb3fbf32fc0d8364d7c05c191a2fbe638ba1bb4492c0c60126f4d87926c876d020000001716001439706e58452cacab6e6abd89b7651236e255f39bffffffff0200461a000000000017a914d1ce12d5c7a25a7ab02ab9e5e1c727bda0916b1b87ca0142200000000017a91458ee49ebd419a5c5ca5b5de5f44320188f5ae1fe87024730440220458653ad2f0c91ff2d9e5fcd4e7ac52cb31840acd8a6da2a24f59507222466420220292c6ce59fe14fddaa078041a30ba6ed9c9f3924c9361f259f013468e71a8c3f0121039096c1c3d28c881a8d97329b0245aa618f639604f33de3b918c87cebc66a5d8700000000", "vin": [{"txinwitness": ["30440220458653ad2f0c91ff2d9e5fcd4e7ac52cb31840acd8a6da2a24f59507222466420220292c6ce59fe14fddaa078041a30ba6ed9c9f3924c9361f259f013468e71a8c3f01", "039096c1c3d28c881a8d97329b0245aa618f639604f33de3b918c87cebc66a5d87"], "sequence": 4294967295, "scriptSig": {"hex": "16001439706e58452cacab6e6abd89b7651236e255f39b", "asm": "001439706e58452cacab6e6abd89b7651236e255f39b"}, "vout": 2, "txid": "6d876c92874d6f12600c2c49b41bba38e6fba291c1057c4d36d8c02ff3fbb36b"}], "txid": "e1fd5a9bd82dd156a9090a77e703f6215dcbbe758542a50ce67248e2c720dcb9", "blocktime": 1537870928, "version": 2, "confirmations": 11512, "time": 1537870928, "locktime": 0, "vsize": 166, "size": 247}