{"hash": "b66a717152d61ce0121824ee5ccf44bb357837bf3a506a3ff20bca4ed2039b07", "blockhash": "00000000000000000018f53835495a110e01622372bf6ae95dc86f2b0ab887b0", "vout": [{"scriptPubKey": {"reqSigs": 1, "hex": "a914ad286c192b7d9d8854fd0c5fb2486dce958c91cc87", "addresses": ["3HUbFKQj1EkEYuBnrMDNYqEEyrYFeVzXJ2"], "asm": "OP_HASH160 ad286c192b7d9d8854fd0c5fb2486dce958c91cc OP_EQUAL", "type": "scripthash"}, "value": 0.00992078, "n": 0}, {"scriptPubKey": {"reqSigs": 1, "hex": "76a914f1371b5974735ac7b3e81f090f4eaa689b493b0588ac", "addresses": ["1NzRs82FstrW9SbgDkWQ86zmnK2hyw2LmQ"], "asm": "OP_DUP OP_HASH160 f1371b5974735ac7b3e81f090f4eaa689b493b05 OP_EQUALVERIFY OP_CHECKSIG", "type": "pubkeyhash"}, "value": 0.23210993, "n": 1}], "hex": "020000000001037c3bc991446d8771da399b9ee87f02e70619bb4c757c2e2e052fd6644798e2a80100000017160014f2dd5843bc17cd3de84742e9bfb4cefe7b86ad9bfeffffff89e85bd1b4a625894cc5f165197c7cbf407d3836fa7b02280e7d95dcf7381a0a0100000017160014cd04f0eb2f86d186f718e064269d832a74a70bf7feffffffa1292acf9a13c51c3f03a3b37370cbb8928f2c6b7b4a97ad316836440b40b39b0000000017160014dc254be5797c223567b678f5df4e58da40c098fafeffffff024e230f000000000017a914ad286c192b7d9d8854fd0c5fb2486dce958c91cc87f12b6201000000001976a914f1371b5974735ac7b3e81f090f4eaa689b493b0588ac024830450221009265705fcb0fa227e2904035741b839f4f6aa95577a3393bb615e202453697b3022029ea3118ff3cdeac6c7dd9b4507acff36526e676027c78d2102fce4115683b35012102f072b2f461a05d410d7eba7e3d72a66e0bf9ed2a2c2c8a23827b2713c3c81ceb024830450221009957820cb16ff7338f005be33ee9d4eb777d7c2671bdae06149c9419772270e202206992a5ef9c85268bb22fcc63e03e10c9733e61e3a9033449dd081a3f2dfffc0b01210315d119924fc823ec40cfaf8d15680a9d48e64af3eec57ea8877feb42f7402f8c02483045022100a789f57cd24038f40012ec2d8b7483dd5db948e74dae31d2045c57619c3020b702201682003007cc6413e39bf165a297f11b258698b6a8dcc77c05546580cb94e161012102114dda4d75a8ef5e15f2fcb2fc92530297190e60e0a606aa9ea3270d90a4d1b700000000", "vin": [{"txinwitness": ["30450221009265705fcb0fa227e2904035741b839f4f6aa95577a3393bb615e202453697b3022029ea3118ff3cdeac6c7dd9b4507acff36526e676027c78d2102fce4115683b3501", "02f072b2f461a05d410d7eba7e3d72a66e0bf9ed2a2c2c8a23827b2713c3c81ceb"], "sequence": 4294967294, "scriptSig": {"hex": "160014f2dd5843bc17cd3de84742e9bfb4cefe7b86ad9b", "asm": "0014f2dd5843bc17cd3de84742e9bfb4cefe7b86ad9b"}, "vout": 1, "txid": "a8e2984764d62f052e2e7c754cbb1906e7027fe89e9b39da71876d4491c93b7c"}, {"txinwitness": ["30450221009957820cb16ff7338f005be33ee9d4eb777d7c2671bdae06149c9419772270e202206992a5ef9c85268bb22fcc63e03e10c9733e61e3a9033449dd081a3f2dfffc0b01", "0315d119924fc823ec40cfaf8d15680a9d48e64af3eec57ea8877feb42f7402f8c"], "sequence": 4294967294, "scriptSig": {"hex": "160014cd04f0eb2f86d186f718e064269d832a74a70bf7", "asm": "0014cd04f0eb2f86d186f718e064269d832a74a70bf7"}, "vout": 1, "txid": "0a1a38f7dc957d0e28027bfa36387d40bf7c7c1965f1c54c8925a6b4d15be889"}, {"txinwitness": ["3045022100a789f57cd24038f40012ec2d8b7483dd5db948e74dae31d2045c57619c3020b702201682003007cc6413e39bf165a297f11b258698b6a8dcc77c05546580cb94e16101", "02114dda4d75a8ef5e15f2fcb2fc92530297190e60e0a606aa9ea3270d90a4d1b7"], "sequence": 4294967294, "scriptSig": {"hex": "160014dc254be5797c223567b678f5df4e58da40c098fa", "asm": "0014dc254be5797c223567b678f5df4e58da40c098fa"}, "vout": 0, "txid": "9bb3400b44366831ad974a7b6b2c8f92b8cb7073b3a3033f1cc5139acf2a29a1"}], "txid": "e200629a2ebdf2ef1b2a6158a2f7c0552b79c7811f20d1b1e63a376bf7584a8b", "blocktime": 1537870928, "version": 2, "confirmations": 11512, "time": 1537870928, "locktime": 0, "vsize": 350, "size": 594}