{"hash": "e204a789cb95b0f90a27bf7dbf91eaa03a10d972a0d84fc52a9eee2facb96511", "blockhash": "0000000000000000000e13cef7c366c0283d82e591d1acd082e914b08063cdf1", "vout": [{"scriptPubKey": {"type": "nulldata", "hex": "6a146f6d6e69000000000000001f000000109fc58a00", "asm": "OP_RETURN 6f6d6e69000000000000001f000000109fc58a00"}, "value": 0.0, "n": 0}, {"scriptPubKey": {"reqSigs": 1, "hex": "76a914a25dec4d0011064ef106a983c39c7a540699f22088ac", "addresses": ["1FoWyxwPXuj4C6abqwhjDWdz6D4PZgYRjA"], "asm": "OP_DUP OP_HASH160 a25dec4d0011064ef106a983c39c7a540699f220 OP_EQUALVERIFY OP_CHECKSIG", "type": "pubkeyhash"}, "value": 5.46e-06, "n": 1}, {"scriptPubKey": {"reqSigs": 1, "hex": "76a9142b39879b0a1612375e2b07d7cb4c39bb73c9f89188ac", "addresses": ["14wYyV1ofaiPxyXf1XqsHhXFQGmbgYy5SG"], "asm": "OP_DUP OP_HASH160 2b39879b0a1612375e2b07d7cb4c39bb73c9f891 OP_EQUALVERIFY OP_CHECKSIG", "type": "pubkeyhash"}, "value": 0.00478596, "n": 2}], "hex": "010000000853afda3783dd117ca2bfd5bb51ff17b4150912a14277f39c3cc72b533dc58527010000006a47304402201e3df8050e30793d942c1d5648c38e2d42c0a27431913c77539ff51c048924870220142aa123fe1a717e49e9110863dc78af9d782eac0358b4338967e8f507ac90ce012102f8700905089a08fb70a794b18242eac57a1931df4584e2ba7d4090792d9df89ffeffffff69a70256b02b0e33895ddd766ee94277c3473a6d32b9ff4857de2f0f9ba14b74020000006a4730440220667517994667fb65cf1286a1db1414cd1a93eca890ee136e7cf5af15c2ad1df60220136b80f53b42a1410adf0f1028c63ad2c8b8d19aa3928dc0e5d38a88d31d9b0f012102f8700905089a08fb70a794b18242eac57a1931df4584e2ba7d4090792d9df89ffeffffff7791280f53624eb3d40496765360b78476180709305a66cebabcb9ce3a6d2c1a020000006a47304402206d782b51f57ce7b8b2e3e171406b0069c37459e73a5e11344666256543ece96002203ee6a5e342f220a5af450bf7d40dd0ebd48a9a89c5eca9823d417cb77e8ffda8012102f8700905089a08fb70a794b18242eac57a1931df4584e2ba7d4090792d9df89ffeffffff7af9fcd9feeafd8ed053c704a18b47859c443c756816d3ea9307429cf3e83cb5010000006b483045022100e76d03c760ab7cec632c046027bc4ac270ae41751e0da9abea32ea0b16a00a5a0220214b0f3ff424c9f32dc7cae04236b684ddef37e8ca41debb542e306d1d441b84012102f8700905089a08fb70a794b18242eac57a1931df4584e2ba7d4090792d9df89ffeffffff9b1b1c664f67ed853ad7a407fc0f7bd75c087dafd49ea0366ec00805ebf7946b020000006a4730440220127e15707d8f76eef99ee97acaea15bd495321b20fc4f706a9873f6f0fcf816802207b7bc2d08005ad8445bb69c0789eabdc26cca387a37f91a31e8be883bdabae1b012102f8700905089a08fb70a794b18242eac57a1931df4584e2ba7d4090792d9df89ffeffffffb6f978ae22aa5e0b31260263d255849c5cf5cc0336cadc27edf3ca007fb776a4010000006a47304402203cd1128413135f937e4d2264f75ebb4ddbe66481d36e5b99aeba1d05c769e23002202fd900d2d71ff59c3eba6de707c747dd695887371cca76cd5e3c65877e845402012102f8700905089a08fb70a794b18242eac57a1931df4584e2ba7d4090792d9df89ffeffffff2aef707546fdc3f1d5f15b1aee1a9b877e3aa7beff3eeff5af9b8c151a1d5112010000006a47304402202bcfbf89941eb8d0440173fb8f383087f3b9c590ed93d9e6c3f3fddaf3f2ac4402205818590225b625e537a19599fac68f20e6e9e39dd191fcb5668e99c226f08cf4012102f8700905089a08fb70a794b18242eac57a1931df4584e2ba7d4090792d9df89ffeffffffc8800b8017914ce0750bbf6c7af025bf04a9118a7afad34a728327ec2c9ab5f6010000006a47304402204d574cd49e317752735dd74834b520841bfac45e98b8042c60043e8df0ae4392022011a7ef19140f73f09c6205c894b36182945c2abe38358f0e2b56d11d7f325be8012102f8700905089a08fb70a794b18242eac57a1931df4584e2ba7d4090792d9df89ffeffffff030000000000000000166a146f6d6e69000000000000001f000000109fc58a0022020000000000001976a914a25dec4d0011064ef106a983c39c7a540699f22088ac844d0700000000001976a9142b39879b0a1612375e2b07d7cb4c39bb73c9f89188ac10490800", "vin": [{"sequence": 4294967294, "scriptSig": {"hex": "47304402201e3df8050e30793d942c1d5648c38e2d42c0a27431913c77539ff51c048924870220142aa123fe1a717e49e9110863dc78af9d782eac0358b4338967e8f507ac90ce012102f8700905089a08fb70a794b18242eac57a1931df4584e2ba7d4090792d9df89f", "asm": "304402201e3df8050e30793d942c1d5648c38e2d42c0a27431913c77539ff51c048924870220142aa123fe1a717e49e9110863dc78af9d782eac0358b4338967e8f507ac90ce[ALL] 02f8700905089a08fb70a794b18242eac57a1931df4584e2ba7d4090792d9df89f"}, "vout": 1, "txid": "2785c53d532bc73c9cf37742a1120915b417ff51bbd5bfa27c11dd8337daaf53"}, {"sequence": 4294967294, "scriptSig": {"hex": "4730440220667517994667fb65cf1286a1db1414cd1a93eca890ee136e7cf5af15c2ad1df60220136b80f53b42a1410adf0f1028c63ad2c8b8d19aa3928dc0e5d38a88d31d9b0f012102f8700905089a08fb70a794b18242eac57a1931df4584e2ba7d4090792d9df89f", "asm": "30440220667517994667fb65cf1286a1db1414cd1a93eca890ee136e7cf5af15c2ad1df60220136b80f53b42a1410adf0f1028c63ad2c8b8d19aa3928dc0e5d38a88d31d9b0f[ALL] 02f8700905089a08fb70a794b18242eac57a1931df4584e2ba7d4090792d9df89f"}, "vout": 2, "txid": "744ba19b0f2fde5748ffb9326d3a47c37742e96e76dd5d89330e2bb05602a769"}, {"sequence": 4294967294, "scriptSig": {"hex": "47304402206d782b51f57ce7b8b2e3e171406b0069c37459e73a5e11344666256543ece96002203ee6a5e342f220a5af450bf7d40dd0ebd48a9a89c5eca9823d417cb77e8ffda8012102f8700905089a08fb70a794b18242eac57a1931df4584e2ba7d4090792d9df89f", "asm": "304402206d782b51f57ce7b8b2e3e171406b0069c37459e73a5e11344666256543ece96002203ee6a5e342f220a5af450bf7d40dd0ebd48a9a89c5eca9823d417cb77e8ffda8[ALL] 02f8700905089a08fb70a794b18242eac57a1931df4584e2ba7d4090792d9df89f"}, "vout": 2, "txid": "1a2c6d3aceb9bcbace665a300907187684b76053769604d4b34e62530f289177"}, {"sequence": 4294967294, "scriptSig": {"hex": "483045022100e76d03c760ab7cec632c046027bc4ac270ae41751e0da9abea32ea0b16a00a5a0220214b0f3ff424c9f32dc7cae04236b684ddef37e8ca41debb542e306d1d441b84012102f8700905089a08fb70a794b18242eac57a1931df4584e2ba7d4090792d9df89f", "asm": "3045022100e76d03c760ab7cec632c046027bc4ac270ae41751e0da9abea32ea0b16a00a5a0220214b0f3ff424c9f32dc7cae04236b684ddef37e8ca41debb542e306d1d441b84[ALL] 02f8700905089a08fb70a794b18242eac57a1931df4584e2ba7d4090792d9df89f"}, "vout": 1, "txid": "b53ce8f39c420793ead31668753c449c85478ba104c753d08efdeafed9fcf97a"}, {"sequence": 4294967294, "scriptSig": {"hex": "4730440220127e15707d8f76eef99ee97acaea15bd495321b20fc4f706a9873f6f0fcf816802207b7bc2d08005ad8445bb69c0789eabdc26cca387a37f91a31e8be883bdabae1b012102f8700905089a08fb70a794b18242eac57a1931df4584e2ba7d4090792d9df89f", "asm": "30440220127e15707d8f76eef99ee97acaea15bd495321b20fc4f706a9873f6f0fcf816802207b7bc2d08005ad8445bb69c0789eabdc26cca387a37f91a31e8be883bdabae1b[ALL] 02f8700905089a08fb70a794b18242eac57a1931df4584e2ba7d4090792d9df89f"}, "vout": 2, "txid": "6b94f7eb0508c06e36a09ed4af7d085cd77b0ffc07a4d73a85ed674f661c1b9b"}, {"sequence": 4294967294, "scriptSig": {"hex": "47304402203cd1128413135f937e4d2264f75ebb4ddbe66481d36e5b99aeba1d05c769e23002202fd900d2d71ff59c3eba6de707c747dd695887371cca76cd5e3c65877e845402012102f8700905089a08fb70a794b18242eac57a1931df4584e2ba7d4090792d9df89f", "asm": "304402203cd1128413135f937e4d2264f75ebb4ddbe66481d36e5b99aeba1d05c769e23002202fd900d2d71ff59c3eba6de707c747dd695887371cca76cd5e3c65877e845402[ALL] 02f8700905089a08fb70a794b18242eac57a1931df4584e2ba7d4090792d9df89f"}, "vout": 1, "txid": "a476b77f00caf3ed27dcca3603ccf55c9c8455d2630226310b5eaa22ae78f9b6"}, {"sequence": 4294967294, "scriptSig": {"hex": "47304402202bcfbf89941eb8d0440173fb8f383087f3b9c590ed93d9e6c3f3fddaf3f2ac4402205818590225b625e537a19599fac68f20e6e9e39dd191fcb5668e99c226f08cf4012102f8700905089a08fb70a794b18242eac57a1931df4584e2ba7d4090792d9df89f", "asm": "304402202bcfbf89941eb8d0440173fb8f383087f3b9c590ed93d9e6c3f3fddaf3f2ac4402205818590225b625e537a19599fac68f20e6e9e39dd191fcb5668e99c226f08cf4[ALL] 02f8700905089a08fb70a794b18242eac57a1931df4584e2ba7d4090792d9df89f"}, "vout": 1, "txid": "12511d1a158c9baff5ef3effbea73a7e879b1aee1a5bf1d5f1c3fd467570ef2a"}, {"sequence": 4294967294, "scriptSig": {"hex": "47304402204d574cd49e317752735dd74834b520841bfac45e98b8042c60043e8df0ae4392022011a7ef19140f73f09c6205c894b36182945c2abe38358f0e2b56d11d7f325be8012102f8700905089a08fb70a794b18242eac57a1931df4584e2ba7d4090792d9df89f", "asm": "304402204d574cd49e317752735dd74834b520841bfac45e98b8042c60043e8df0ae4392022011a7ef19140f73f09c6205c894b36182945c2abe38358f0e2b56d11d7f325be8[ALL] 02f8700905089a08fb70a794b18242eac57a1931df4584e2ba7d4090792d9df89f"}, "vout": 1, "txid": "f6b59a2cec2783724ad3fa7a8a11a904bf25f07a6cbf0b75e04c9117800b80c8"}], "txid": "e204a789cb95b0f90a27bf7dbf91eaa03a10d972a0d84fc52a9eee2facb96511", "blocktime": 1537871767, "version": 1, "confirmations": 11495, "time": 1537871767, "locktime": 542992, "vsize": 1286, "size": 1286}