{"hash": "e20be8d6c643247284e88911bdf50f426f4ea880a452ccfb010e7049c7dce3bb", "blockhash": "0000000000000000001e0dab787dd257d1dbfcb92a98c2207d5e1078be1f4165", "vout": [{"scriptPubKey": {"reqSigs": 1, "hex": "a914d09a560758f2bc9c0b7667042907d1e27ae3631a87", "addresses": ["3Li1MuDuBmWvUqbDN9F71RsgY8uBmm4gPj"], "asm": "OP_HASH160 d09a560758f2bc9c0b7667042907d1e27ae3631a OP_EQUAL", "type": "scripthash"}, "value": 0.02887644, "n": 0}], "hex": "0100000003c095876f3d08343a2d837515d2f4062d4624933916d6c09b33e4f7c553fbbc3c000000006b483045022100d0a8d8f0627be6f3463ad05448fc5a0af0fd1107d10037e053ff009cb76269120220667c4147a11c5d6854e84fe37f91d616d60104a86126064bf1af77fc6f33b7580121023f7c58ea2200c8eb1d3e1ea38517bf5417751891d211d989f783af645d16ba6affffffffe16e9677c4d713549cf59ef637a1b529c35d051a4ca24b6dc239c101c41cde81010000006a47304402207d039469642138307218e7490b6ef156ef569dad88660b3970b295ad10e1866e0220137c67a21ff8788b1a401e8ca6b1869f0fabb107c938d57134f4794e5d17c5ba0121021950ab7df00a5081af7d60854b992b54d953bbef42397989acc55ed6dab64517ffffffff79557fd39a43f71725943b1380f757d0acce29fe961cf47412cc5b297227b08a0d0000006a473044022015b5b9f3b0b1393eba9d462e135eb1d40aa6c57e1611f872a7d104d3ec496a9302202cf0109f7aea077f62b8c8eb0e41e26d5b001cdd28d792c6095eeea0b459030601210341916de6c9de2ee0d311563bb30b5f5c61888760c0cdb04cc221b26bdc33b379ffffffff01dc0f2c000000000017a914d09a560758f2bc9c0b7667042907d1e27ae3631a8700000000", "vin": [{"sequence": 4294967295, "scriptSig": {"hex": "483045022100d0a8d8f0627be6f3463ad05448fc5a0af0fd1107d10037e053ff009cb76269120220667c4147a11c5d6854e84fe37f91d616d60104a86126064bf1af77fc6f33b7580121023f7c58ea2200c8eb1d3e1ea38517bf5417751891d211d989f783af645d16ba6a", "asm": "3045022100d0a8d8f0627be6f3463ad05448fc5a0af0fd1107d10037e053ff009cb76269120220667c4147a11c5d6854e84fe37f91d616d60104a86126064bf1af77fc6f33b758[ALL] 023f7c58ea2200c8eb1d3e1ea38517bf5417751891d211d989f783af645d16ba6a"}, "vout": 0, "txid": "3cbcfb53c5f7e4339bc0d616399324462d06f4d21575832d3a34083d6f8795c0"}, {"sequence": 4294967295, "scriptSig": {"hex": "47304402207d039469642138307218e7490b6ef156ef569dad88660b3970b295ad10e1866e0220137c67a21ff8788b1a401e8ca6b1869f0fabb107c938d57134f4794e5d17c5ba0121021950ab7df00a5081af7d60854b992b54d953bbef42397989acc55ed6dab64517", "asm": "304402207d039469642138307218e7490b6ef156ef569dad88660b3970b295ad10e1866e0220137c67a21ff8788b1a401e8ca6b1869f0fabb107c938d57134f4794e5d17c5ba[ALL] 021950ab7df00a5081af7d60854b992b54d953bbef42397989acc55ed6dab64517"}, "vout": 1, "txid": "81de1cc401c139c26d4ba24c1a055dc329b5a137f69ef59c5413d7c477966ee1"}, {"sequence": 4294967295, "scriptSig": {"hex": "473044022015b5b9f3b0b1393eba9d462e135eb1d40aa6c57e1611f872a7d104d3ec496a9302202cf0109f7aea077f62b8c8eb0e41e26d5b001cdd28d792c6095eeea0b459030601210341916de6c9de2ee0d311563bb30b5f5c61888760c0cdb04cc221b26bdc33b379", "asm": "3044022015b5b9f3b0b1393eba9d462e135eb1d40aa6c57e1611f872a7d104d3ec496a9302202cf0109f7aea077f62b8c8eb0e41e26d5b001cdd28d792c6095eeea0b4590306[ALL] 0341916de6c9de2ee0d311563bb30b5f5c61888760c0cdb04cc221b26bdc33b379"}, "vout": 13, "txid": "8ab02772295bcc1274f41c96fe29ceacd057f780133b942517f7439ad37f5579"}], "txid": "e20be8d6c643247284e88911bdf50f426f4ea880a452ccfb010e7049c7dce3bb", "blocktime": 1537872475, "version": 1, "confirmations": 11487, "time": 1537872475, "locktime": 0, "vsize": 484, "size": 484}