{"hash": "73b4459e43554e5c20fc5b9a2673323d69801c805a1148725838c1648047ff13", "blockhash": "0000000000000000000baef3f32e3676a92c3b2e5da21b426e4f302fc371ce76", "vout": [{"scriptPubKey": {"reqSigs": 1, "hex": "a914c1298afb7732f1960674545b188e38a2dcc295c687", "addresses": ["3KJN721n6WDqtzbhgkeFKzjbj66swYHTGn"], "asm": "OP_HASH160 c1298afb7732f1960674545b188e38a2dcc295c6 OP_EQUAL", "type": "scripthash"}, "value": 0.0235609, "n": 0}, {"scriptPubKey": {"reqSigs": 1, "hex": "a9147bf84c5e7e3c89f7f57b391df00df9f1786cf65787", "addresses": ["3CzWVD3JrpErkJTUWmB2E16vBnKdheFpCP"], "asm": "OP_HASH160 7bf84c5e7e3c89f7f57b391df00df9f1786cf657 OP_EQUAL", "type": "scripthash"}, "value": 0.01000932, "n": 1}], "hex": "0200000000010212a0b86002f6667cc9af35a04e074b7a40962065f35ed0199233e0f05d1fe70c030000006b483045022100f65897f26466ffb8ad786dc1cb4fa035a5383ff8e7f9faef47b789000422f110022064114cbf40ed23478b5c4bea73baf81440974f62f7c2cad3c16d854f6d1e326001210269305bcf41fc79fd899d52d9268f5f7b82504638e689ddc226f962b46b63ee3efeffffff654f587be25484dfc5d712be7b10e11b19d48047e230cf68a94443bc98e0aaf20e000000171600140bee124cb8a277defa4f450d56e7c26359456f4efeffffff027af323000000000017a914c1298afb7732f1960674545b188e38a2dcc295c687e4450f000000000017a9147bf84c5e7e3c89f7f57b391df00df9f1786cf657870002483045022100962f5ede2716c78f375dd4b43b2bbfd798cf61d59ec8e5a68cb04aad304f39a70220059670434d11bb75087d50e012776d931de5333ab1df074f39d0c5f14a3468a5012103345b36a913cd569c0084d8907576c1484679a14d1387e7a0637d80fe40be48bf17490800", "vin": [{"sequence": 4294967294, "scriptSig": {"hex": "483045022100f65897f26466ffb8ad786dc1cb4fa035a5383ff8e7f9faef47b789000422f110022064114cbf40ed23478b5c4bea73baf81440974f62f7c2cad3c16d854f6d1e326001210269305bcf41fc79fd899d52d9268f5f7b82504638e689ddc226f962b46b63ee3e", "asm": "3045022100f65897f26466ffb8ad786dc1cb4fa035a5383ff8e7f9faef47b789000422f110022064114cbf40ed23478b5c4bea73baf81440974f62f7c2cad3c16d854f6d1e3260[ALL] 0269305bcf41fc79fd899d52d9268f5f7b82504638e689ddc226f962b46b63ee3e"}, "vout": 3, "txid": "0ce71f5df0e0339219d05ef3652096407a4b074ea035afc97c66f60260b8a012"}, {"txinwitness": ["3045022100962f5ede2716c78f375dd4b43b2bbfd798cf61d59ec8e5a68cb04aad304f39a70220059670434d11bb75087d50e012776d931de5333ab1df074f39d0c5f14a3468a501", "03345b36a913cd569c0084d8907576c1484679a14d1387e7a0637d80fe40be48bf"], "sequence": 4294967294, "scriptSig": {"hex": "1600140bee124cb8a277defa4f450d56e7c26359456f4e", "asm": "00140bee124cb8a277defa4f450d56e7c26359456f4e"}, "vout": 14, "txid": "f2aae098bc4344a968cf30e24780d4191be1107bbe12d7c5df8454e27b584f65"}], "txid": "e21785404dd1714714895f3377bb51048bffab8d33906227890c23b0ed3a8032", "blocktime": 1537876114, "version": 2, "confirmations": 11459, "time": 1537876114, "locktime": 542999, "vsize": 314, "size": 397}