{"hash": "e217663fa69b5a7b1ce655b36875fa67e206a6917f448c208fc71785bfd80914", "blockhash": "00000000000000000024a2167bbff67b0be802c0b01cdd79e6331c2be6459f87", "vout": [{"scriptPubKey": {"reqSigs": 1, "hex": "a914a1dc120a1b29435a0afdce1f6f3cb2492fac964187", "addresses": ["3GSrMC7yA9kpw9KdHrb94GJhZivM9Ain18"], "asm": "OP_HASH160 a1dc120a1b29435a0afdce1f6f3cb2492fac9641 OP_EQUAL", "type": "scripthash"}, "value": 0.00319707, "n": 0}, {"scriptPubKey": {"reqSigs": 1, "hex": "76a914f52639f3a2ad04042eacdb17671b4136cf8b857688ac", "addresses": ["1PMEM1nK77uYj3CUoQvkv6gyxegk5TsJQL"], "asm": "OP_DUP OP_HASH160 f52639f3a2ad04042eacdb17671b4136cf8b8576 OP_EQUALVERIFY OP_CHECKSIG", "type": "pubkeyhash"}, "value": 0.00075451, "n": 1}], "hex": "0100000001f4b8058602c4d2bc4b88de89ace94bfe33a06702d90cdd0149ece81e94effd72000000006a47304402207b80fd9384c12ef1a2d09a370e5227a963519476c2e2a57df118119d482be8dd02200d2e2639f9e7bbdfb6cb1525b63d1ceedf29209904925b5c1239c298982bc6cf012103029ad5f90e1b1f01c28fa8464622cd999399cdb59458f569446280d57ed18295ffffffff02dbe004000000000017a914a1dc120a1b29435a0afdce1f6f3cb2492fac964187bb260100000000001976a914f52639f3a2ad04042eacdb17671b4136cf8b857688ac00000000", "vin": [{"sequence": 4294967295, "scriptSig": {"hex": "47304402207b80fd9384c12ef1a2d09a370e5227a963519476c2e2a57df118119d482be8dd02200d2e2639f9e7bbdfb6cb1525b63d1ceedf29209904925b5c1239c298982bc6cf012103029ad5f90e1b1f01c28fa8464622cd999399cdb59458f569446280d57ed18295", "asm": "304402207b80fd9384c12ef1a2d09a370e5227a963519476c2e2a57df118119d482be8dd02200d2e2639f9e7bbdfb6cb1525b63d1ceedf29209904925b5c1239c298982bc6cf[ALL] 03029ad5f90e1b1f01c28fa8464622cd999399cdb59458f569446280d57ed18295"}, "vout": 0, "txid": "72fdef941ee8ec4901dd0cd90267a033fe4be9ac89de884bbcd2c4028605b8f4"}], "txid": "e217663fa69b5a7b1ce655b36875fa67e206a6917f448c208fc71785bfd80914", "blocktime": 1537870564, "version": 1, "confirmations": 11515, "time": 1537870564, "locktime": 0, "vsize": 223, "size": 223}