{"hash": "3159d6356c63271d7be3f24bce38d2ffe3388418a6fb4845ba85ba4bc16cb0d0", "blockhash": "0000000000000000000dcc0f55137456b1a82d3642486a52398922ac4d620174", "vout": [{"scriptPubKey": {"reqSigs": 1, "hex": "a9141d7370ccde4590204155e4074f69743a8e4fac0287", "addresses": ["34Njp4ZKtmCDfqqps26wHBYQQGUo2pGkLi"], "asm": "OP_HASH160 1d7370ccde4590204155e4074f69743a8e4fac02 OP_EQUAL", "type": "scripthash"}, "value": 0.00049574, "n": 0}], "hex": "01000000000101e610355bac99e5d952d63bde3930f893e3f4e37cf6d07939c9f0d4ec126c4f67020000001716001424bcf9adaa32cd82c8ae46a515b7ed700379cd47ffffffff01a6c100000000000017a9141d7370ccde4590204155e4074f69743a8e4fac028702483045022100c6c3abf18823ddfad519b92b9ecf41c8b3d3fa91f7faf096670131d3a192dee102200345e51a9df83682574544d981a8dadce48f026ba7c46d269ffd809f2f317571012103ce0943bfafe46be2f577fb2fe7fa04b33ffe4403c333802983da20c36aabf06500000000", "vin": [{"txinwitness": ["3045022100c6c3abf18823ddfad519b92b9ecf41c8b3d3fa91f7faf096670131d3a192dee102200345e51a9df83682574544d981a8dadce48f026ba7c46d269ffd809f2f31757101", "03ce0943bfafe46be2f577fb2fe7fa04b33ffe4403c333802983da20c36aabf065"], "sequence": 4294967295, "scriptSig": {"hex": "16001424bcf9adaa32cd82c8ae46a515b7ed700379cd47", "asm": "001424bcf9adaa32cd82c8ae46a515b7ed700379cd47"}, "vout": 2, "txid": "674f6c12ecd4f0c93979d0f67ce3f4e393f83039de3bd652d9e599ac5b3510e6"}], "txid": "e21cc9b7fd5fa8661dd6e25a34ae62df501511461d3e3d9c2720e84c3905a139", "blocktime": 1537870268, "version": 1, "confirmations": 11518, "time": 1537870268, "locktime": 0, "vsize": 134, "size": 216}