{"hash": "85d43dd01496d5d90770a4bace28a94ebeef1d3dda695d76da66ffb1d1c147fc", "blockhash": "0000000000000000001f0ddff1eddb255c1121bcd4da4f1bc9a0da00cae72433", "vout": [{"scriptPubKey": {"reqSigs": 1, "hex": "00144a1bb5cca7e1cf2414ecdb9805d7a43422b50976", "addresses": ["bc1qfgdmtn98u88jg98vmwvqt4ayxs3t2ztkk8p3c2"], "asm": "0 4a1bb5cca7e1cf2414ecdb9805d7a43422b50976", "type": "witness_v0_keyhash"}, "value": 0.00040894, "n": 0}, {"scriptPubKey": {"reqSigs": 1, "hex": "a9142f8290996962534cae8e992da8ba59d55c671ba487", "addresses": ["362E6N4dzMv7k1quje6PNbimYR1QScnACL"], "asm": "OP_HASH160 2f8290996962534cae8e992da8ba59d55c671ba4 OP_EQUAL", "type": "scripthash"}, "value": 0.01129625, "n": 1}], "hex": "01000000000101180e3266a6ce73539884c00bc232a4619ad9e66de0dfed4d464655530af29d931c0000001716001463f3c9ff53f99b961874506119ae8d745a8dec0dffffffff02be9f0000000000001600144a1bb5cca7e1cf2414ecdb9805d7a43422b50976993c11000000000017a9142f8290996962534cae8e992da8ba59d55c671ba48702483045022100f8ca14bc8a481077e51917f1cd3a181f1edefab05986f286be02f1cb19c6539e0220460ad7e818735ee75ebf3b7e09d7e65af17552a9c4e5c7ae016b69ea3d138d710121030d1cd94910911d4d9366f77a6b438b8cd4e6486bdacea09e09e1fab3c161676300000000", "vin": [{"txinwitness": ["3045022100f8ca14bc8a481077e51917f1cd3a181f1edefab05986f286be02f1cb19c6539e0220460ad7e818735ee75ebf3b7e09d7e65af17552a9c4e5c7ae016b69ea3d138d7101", "030d1cd94910911d4d9366f77a6b438b8cd4e6486bdacea09e09e1fab3c1616763"], "sequence": 4294967295, "scriptSig": {"hex": "16001463f3c9ff53f99b961874506119ae8d745a8dec0d", "asm": "001463f3c9ff53f99b961874506119ae8d745a8dec0d"}, "vout": 28, "txid": "939df20a535546464deddfe06de6d99a61a432c20bc084985373cea666320e18"}], "txid": "e21f8dfbe9dfb0d12ce41595670dcfb78b2ca3094664938a9fb249b311a63380", "blocktime": 1537872018, "version": 1, "confirmations": 11489, "time": 1537872018, "locktime": 0, "vsize": 165, "size": 247}