{"hash": "2063eb9ab3ec93c78e8576ee1d0cd18dec24f7d443cbb4a35f9af97ff3487568", "blockhash": "0000000000000000001e0dab787dd257d1dbfcb92a98c2207d5e1078be1f4165", "vout": [{"scriptPubKey": {"reqSigs": 1, "hex": "a91482e7e273ec4e0dff2590e50d5fec2ebc665cd1f787", "addresses": ["3DdBZ734DjaqBf29PvjxWv9mvU6VaQEs8H"], "asm": "OP_HASH160 82e7e273ec4e0dff2590e50d5fec2ebc665cd1f7 OP_EQUAL", "type": "scripthash"}, "value": 0.02049761, "n": 0}, {"scriptPubKey": {"reqSigs": 1, "hex": "a914cb0fa9fa38981c9d8e2780626ac71dd20ecf708387", "addresses": ["3LChrqX5h52V2wmecnddMEUeHpYboxxTmg"], "asm": "OP_HASH160 cb0fa9fa38981c9d8e2780626ac71dd20ecf7083 OP_EQUAL", "type": "scripthash"}, "value": 0.152577, "n": 1}, {"scriptPubKey": {"reqSigs": 1, "hex": "76a9149f3d3f9ab32a353a79886d977761bb44a982086688ac", "addresses": ["1FWyp7rnGHovNnSKRaA7EiBjbLaauVkeuX"], "asm": "OP_DUP OP_HASH160 9f3d3f9ab32a353a79886d977761bb44a9820866 OP_EQUALVERIFY OP_CHECKSIG", "type": "pubkeyhash"}, "value": 0.18050047, "n": 2}, {"scriptPubKey": {"reqSigs": 1, "hex": "76a914f60cae1a0ed2beebeddaed8d3bffceff57a8974a88ac", "addresses": ["1PRzRDeVfUR2Dg6jgWnHuLawbHYvydjed9"], "asm": "OP_DUP OP_HASH160 f60cae1a0ed2beebeddaed8d3bffceff57a8974a OP_EQUALVERIFY OP_CHECKSIG", "type": "pubkeyhash"}, "value": 0.00178233, "n": 3}], "hex": "0100000000010742ea94c5946248ab5e649f4f959e395c150c63ff06eee81edf728d0f3e14fd870000000023220020a6bc93ed5ee5b215e902a87499cee25d6be38200198d3ff24fce962401329fccffffffff70928c216a5b6301eb71793c31a1005060e7155dab0c1d04bdd79ff1db52d9c01d0000002322002033614f2af72982466048fea2ec8d1e959784e4292c2feee43c270694bbbe6533fffffffffc20e278863ce382c0dc95b610584dd376918d06d74d283af22a54c4a17115690000000023220020396e410c1f0faa6cf44962c0624cd22732a29701c600c1d906e0db9f939fa239ffffffff30c70b17a73a75ed9ed3204cb1a4750887808a468b8f65ec13c969edc03936740000000023220020396e410c1f0faa6cf44962c0624cd22732a29701c600c1d906e0db9f939fa239ffffffff2ff9b45a790c6a4782233189d12b315f9fa141f41d0dfebe7745f80c0d8737770000000023220020396e410c1f0faa6cf44962c0624cd22732a29701c600c1d906e0db9f939fa239fffffffff2a1566f4a03b665b1bb8f489a012bf635fdb09ded7712f291d437bd185eb4bf0000000023220020396e410c1f0faa6cf44962c0624cd22732a29701c600c1d906e0db9f939fa239ffffffffb89fac6544d0c60d20e8d0ef9ba28f8fcb743c59f59c7a801ccd13ddbabbf9c20000000023220020396e410c1f0faa6cf44962c0624cd22732a29701c600c1d906e0db9f939fa239ffffffff04e1461f000000000017a91482e7e273ec4e0dff2590e50d5fec2ebc665cd1f78764d0e8000000000017a914cb0fa9fa38981c9d8e2780626ac71dd20ecf708387ff6b1301000000001976a9149f3d3f9ab32a353a79886d977761bb44a982086688ac39b80200000000001976a914f60cae1a0ed2beebeddaed8d3bffceff57a8974a88ac03483045022100c965fd5b18cf7fcaefb9b7df5def44de61d1e896d65654d663364af28c8da675022027eb4301faa02db67da162086e8d55f197c5726da1d425c64e4f6894a6228c340121022283b1df94587df4df89c1fedd910339b57dec822efa238f0d0c098b95c37ac61976a914e1ceb1d811345a1b663fff7b6e4047add6fb8edb88ac034730440220622c46171253ad733a1eeea5eb4b9f91affa307ccbffc708a1f2e53d480a66b1022018bee7bdd33428c762026407a8d839a8fe018f6b242a21051bf48d1cbe224321012103c75642ca04636d54bf068f4941c27b43a8ea46055121e52d093e9377db2997341976a914fe238c2e24f86f6f289c81ea04f39709c283929988ac03483045022100ab64f3760b4be2c8932cbd7a28cf595f826203c14234a09b975a5ac3f6fd214502202ceade79460907a12a998b35088ec3369abf8e6d651418c44482fe9e6ec8559f012102d941dfddbc2339802d015e0777dc30cd416ff591acd587c3e34824c6583b4dac1976a914d1cd43434d93559101682b017ed06e55a1c7119e88ac03483045022100faf4bde233fa943c1c0d0033f5761a87d45d0a0efdad44937dc9b391536aeda80220337254f95a7ed1964de3ab247d7c056a387078ae0f2051d7207148edb3b982d7012102d941dfddbc2339802d015e0777dc30cd416ff591acd587c3e34824c6583b4dac1976a914d1cd43434d93559101682b017ed06e55a1c7119e88ac03483045022100cebf49d260c1f7dd92ac137be4ea7ad698446aef4797511420d0cb246488782e02200e77084abc584927f12ccbff754acf647c9ec81f305f4b17767d94cacda77322012102d941dfddbc2339802d015e0777dc30cd416ff591acd587c3e34824c6583b4dac1976a914d1cd43434d93559101682b017ed06e55a1c7119e88ac03483045022100a4659b6b06624611ba6e0931f18834bf1a9795f88638a3dbfb2df7bb1aaa4d4802200ee6404b13803f68099e937eb78e12f01994e66c3eae5c620e789a664fc73e91012102d941dfddbc2339802d015e0777dc30cd416ff591acd587c3e34824c6583b4dac1976a914d1cd43434d93559101682b017ed06e55a1c7119e88ac03473044022059055dbed515f0d9763d02502d9e29cab1a6337c1b767fff4e238f2137fbb6d60220514467d535de2afd0af5ab7bbcf36b67791b8e821592289bf478052dda579b2c012102d941dfddbc2339802d015e0777dc30cd416ff591acd587c3e34824c6583b4dac1976a914d1cd43434d93559101682b017ed06e55a1c7119e88ac00000000", "vin": [{"txinwitness": ["3045022100c965fd5b18cf7fcaefb9b7df5def44de61d1e896d65654d663364af28c8da675022027eb4301faa02db67da162086e8d55f197c5726da1d425c64e4f6894a6228c3401", "022283b1df94587df4df89c1fedd910339b57dec822efa238f0d0c098b95c37ac6", "76a914e1ceb1d811345a1b663fff7b6e4047add6fb8edb88ac"], "sequence": 4294967295, "scriptSig": {"hex": "220020a6bc93ed5ee5b215e902a87499cee25d6be38200198d3ff24fce962401329fcc", "asm": "0020a6bc93ed5ee5b215e902a87499cee25d6be38200198d3ff24fce962401329fcc"}, "vout": 0, "txid": "87fd143e0f8d72df1ee8ee06ff630c155c399e954f9f645eab486294c594ea42"}, {"txinwitness": ["30440220622c46171253ad733a1eeea5eb4b9f91affa307ccbffc708a1f2e53d480a66b1022018bee7bdd33428c762026407a8d839a8fe018f6b242a21051bf48d1cbe22432101", "03c75642ca04636d54bf068f4941c27b43a8ea46055121e52d093e9377db299734", "76a914fe238c2e24f86f6f289c81ea04f39709c283929988ac"], "sequence": 4294967295, "scriptSig": {"hex": "22002033614f2af72982466048fea2ec8d1e959784e4292c2feee43c270694bbbe6533", "asm": "002033614f2af72982466048fea2ec8d1e959784e4292c2feee43c270694bbbe6533"}, "vout": 29, "txid": "c0d952dbf19fd7bd041d0cab5d15e7605000a1313c7971eb01635b6a218c9270"}, {"txinwitness": ["3045022100ab64f3760b4be2c8932cbd7a28cf595f826203c14234a09b975a5ac3f6fd214502202ceade79460907a12a998b35088ec3369abf8e6d651418c44482fe9e6ec8559f01", "02d941dfddbc2339802d015e0777dc30cd416ff591acd587c3e34824c6583b4dac", "76a914d1cd43434d93559101682b017ed06e55a1c7119e88ac"], "sequence": 4294967295, "scriptSig": {"hex": "220020396e410c1f0faa6cf44962c0624cd22732a29701c600c1d906e0db9f939fa239", "asm": "0020396e410c1f0faa6cf44962c0624cd22732a29701c600c1d906e0db9f939fa239"}, "vout": 0, "txid": "691571a1c4542af23a284dd7068d9176d34d5810b695dcc082e33c8678e220fc"}, {"txinwitness": ["3045022100faf4bde233fa943c1c0d0033f5761a87d45d0a0efdad44937dc9b391536aeda80220337254f95a7ed1964de3ab247d7c056a387078ae0f2051d7207148edb3b982d701", "02d941dfddbc2339802d015e0777dc30cd416ff591acd587c3e34824c6583b4dac", "76a914d1cd43434d93559101682b017ed06e55a1c7119e88ac"], "sequence": 4294967295, "scriptSig": {"hex": "220020396e410c1f0faa6cf44962c0624cd22732a29701c600c1d906e0db9f939fa239", "asm": "0020396e410c1f0faa6cf44962c0624cd22732a29701c600c1d906e0db9f939fa239"}, "vout": 0, "txid": "743639c0ed69c913ec658f8b468a80870875a4b14c20d39eed753aa7170bc730"}, {"txinwitness": ["3045022100cebf49d260c1f7dd92ac137be4ea7ad698446aef4797511420d0cb246488782e02200e77084abc584927f12ccbff754acf647c9ec81f305f4b17767d94cacda7732201", "02d941dfddbc2339802d015e0777dc30cd416ff591acd587c3e34824c6583b4dac", "76a914d1cd43434d93559101682b017ed06e55a1c7119e88ac"], "sequence": 4294967295, "scriptSig": {"hex": "220020396e410c1f0faa6cf44962c0624cd22732a29701c600c1d906e0db9f939fa239", "asm": "0020396e410c1f0faa6cf44962c0624cd22732a29701c600c1d906e0db9f939fa239"}, "vout": 0, "txid": "7737870d0cf84577befe0d1df441a19f5f312bd189312382476a0c795ab4f92f"}, {"txinwitness": ["3045022100a4659b6b06624611ba6e0931f18834bf1a9795f88638a3dbfb2df7bb1aaa4d4802200ee6404b13803f68099e937eb78e12f01994e66c3eae5c620e789a664fc73e9101", "02d941dfddbc2339802d015e0777dc30cd416ff591acd587c3e34824c6583b4dac", "76a914d1cd43434d93559101682b017ed06e55a1c7119e88ac"], "sequence": 4294967295, "scriptSig": {"hex": "220020396e410c1f0faa6cf44962c0624cd22732a29701c600c1d906e0db9f939fa239", "asm": "0020396e410c1f0faa6cf44962c0624cd22732a29701c600c1d906e0db9f939fa239"}, "vout": 0, "txid": "bfb45e18bd37d491f21277ed9db0fd35f62b019a488fbbb165b6034a6f56a1f2"}, {"txinwitness": ["3044022059055dbed515f0d9763d02502d9e29cab1a6337c1b767fff4e238f2137fbb6d60220514467d535de2afd0af5ab7bbcf36b67791b8e821592289bf478052dda579b2c01", "02d941dfddbc2339802d015e0777dc30cd416ff591acd587c3e34824c6583b4dac", "76a914d1cd43434d93559101682b017ed06e55a1c7119e88ac"], "sequence": 4294967295, "scriptSig": {"hex": "220020396e410c1f0faa6cf44962c0624cd22732a29701c600c1d906e0db9f939fa239", "asm": "0020396e410c1f0faa6cf44962c0624cd22732a29701c600c1d906e0db9f939fa239"}, "vout": 0, "txid": "c2f9bbbadd13cd1c807a9cf5593c74cb8f8fa29befd0e8200dc6d04465ac9fb8"}], "txid": "e220dbd9eab06ec5991170b902cf146f5a2d8f3c251a2cc713df9e6e8a3e69d6", "blocktime": 1537872475, "version": 1, "confirmations": 11486, "time": 1537872475, "locktime": 0, "vsize": 909, "size": 1612}