{"hash": "e225fd25ac5dc34ab835c6a7707d0dcb83ed2d9f86fd85351fec8c707d6b0cc7", "blockhash": "00000000000000000024a2167bbff67b0be802c0b01cdd79e6331c2be6459f87", "vout": [{"scriptPubKey": {"reqSigs": 1, "hex": "76a914d243e6abb9a60fbff430b421d2df4b7d59ec186088ac", "addresses": ["1LAnF8h3qMGx3TSwNUHVneBZUEpwE4gu3D"], "asm": "OP_DUP OP_HASH160 d243e6abb9a60fbff430b421d2df4b7d59ec1860 OP_EQUALVERIFY OP_CHECKSIG", "type": "pubkeyhash"}, "value": 0.00076972, "n": 0}, {"scriptPubKey": {"reqSigs": 1, "hex": "76a9143851f34d13937b673a7d24a1950bb5b21ce94af388ac", "addresses": ["168o1kqNquEJeR9vosUB5fw4eAwcVAgh8P"], "asm": "OP_DUP OP_HASH160 3851f34d13937b673a7d24a1950bb5b21ce94af3 OP_EQUALVERIFY OP_CHECKSIG", "type": "pubkeyhash"}, "value": 5.46e-06, "n": 1}, {"scriptPubKey": {"type": "nulldata", "hex": "6a146f6d6e69000000000000001f000009184dda0980", "asm": "OP_RETURN 6f6d6e69000000000000001f000009184dda0980"}, "value": 0.0, "n": 2}], "hex": "0100000002c4a042762cc7a5ec9fe843957e5ce8da8c6ec7457bf2a55448b98054ee45e4b0010000006a47304402207a173b7ff74eaff3a663d0bc2caf7ce8ab42ad71ddd0e46fa983d8913554099b022000a1fb04d822225853095ab0cd4594666fff1257ecacc44848bdfa8b6fd093d5012103b487189b8715e34a732a1dc706ba209abfaf8fe43d018bd627e237734dd2f360ffffffffd7c2abc3ada343e8d286ec3725218461152fd39865cd2c91b9c53f561ba0ca08000000006a47304402201e5031a559ea21d386001edf0fd70ddf5e9ac5e52b135622a6d297bd95fb752c02200a02b20a070260146749d5bbd7dc29367c766f48f0d189f47113100322dbc77301210271977291b74f1f5f5c42157e8aae804664eaaeccfd097918450d37f28fb94d77ffffffff03ac2c0100000000001976a914d243e6abb9a60fbff430b421d2df4b7d59ec186088ac22020000000000001976a9143851f34d13937b673a7d24a1950bb5b21ce94af388ac0000000000000000166a146f6d6e69000000000000001f000009184dda098000000000", "vin": [{"sequence": 4294967295, "scriptSig": {"hex": "47304402207a173b7ff74eaff3a663d0bc2caf7ce8ab42ad71ddd0e46fa983d8913554099b022000a1fb04d822225853095ab0cd4594666fff1257ecacc44848bdfa8b6fd093d5012103b487189b8715e34a732a1dc706ba209abfaf8fe43d018bd627e237734dd2f360", "asm": "304402207a173b7ff74eaff3a663d0bc2caf7ce8ab42ad71ddd0e46fa983d8913554099b022000a1fb04d822225853095ab0cd4594666fff1257ecacc44848bdfa8b6fd093d5[ALL] 03b487189b8715e34a732a1dc706ba209abfaf8fe43d018bd627e237734dd2f360"}, "vout": 1, "txid": "b0e445ee5480b94854a5f27b45c76e8cdae85c7e9543e89feca5c72c7642a0c4"}, {"sequence": 4294967295, "scriptSig": {"hex": "47304402201e5031a559ea21d386001edf0fd70ddf5e9ac5e52b135622a6d297bd95fb752c02200a02b20a070260146749d5bbd7dc29367c766f48f0d189f47113100322dbc77301210271977291b74f1f5f5c42157e8aae804664eaaeccfd097918450d37f28fb94d77", "asm": "304402201e5031a559ea21d386001edf0fd70ddf5e9ac5e52b135622a6d297bd95fb752c02200a02b20a070260146749d5bbd7dc29367c766f48f0d189f47113100322dbc773[ALL] 0271977291b74f1f5f5c42157e8aae804664eaaeccfd097918450d37f28fb94d77"}, "vout": 0, "txid": "08caa01b563fc5b9912ccd6598d32f156184212537ec86d2e843a3adc3abc2d7"}], "txid": "e225fd25ac5dc34ab835c6a7707d0dcb83ed2d9f86fd85351fec8c707d6b0cc7", "blocktime": 1537870564, "version": 1, "confirmations": 11515, "time": 1537870564, "locktime": 0, "vsize": 403, "size": 403}