{"hash": "fcd6c548ef46f2a065da6d3fc07fd78c84bba9b837bea31fcdf54ab1b2c05068", "blockhash": "0000000000000000001cda96e906b7601b7a6fb1a3b62bca570a9e5d8f4b3de1", "vout": [{"scriptPubKey": {"reqSigs": 1, "hex": "0014b158a80e29d60edd7ec87658f3563f3acb3d0e87", "addresses": ["bc1qk9v2sr3f6c8d6lkgwev0x43l8t9n6r58yzjgeg"], "asm": "0 b158a80e29d60edd7ec87658f3563f3acb3d0e87", "type": "witness_v0_keyhash"}, "value": 1.049e-05, "n": 0}, {"scriptPubKey": {"reqSigs": 1, "hex": "76a914c5ccc6669b2cc3f0954c08454c112db414a2ccda88ac", "addresses": ["1K2sRopaD6rF4ydBuGfBdQgMVBEQsD2PAw"], "asm": "OP_DUP OP_HASH160 c5ccc6669b2cc3f0954c08454c112db414a2ccda OP_EQUALVERIFY OP_CHECKSIG", "type": "pubkeyhash"}, "value": 0.00124385, "n": 1}], "hex": "01000000000101b68a81fca49d7b3f207771d5a7376c64daeae503e4f46c7420992cdbef893abd0100000000ffffffff021904000000000000160014b158a80e29d60edd7ec87658f3563f3acb3d0e87e1e50100000000001976a914c5ccc6669b2cc3f0954c08454c112db414a2ccda88ac02483045022100c8f8aa2c2bb9133d9c79b9c29915db397054ca1337a3a9bd57d54732c4c45f6802204228db5c079c715046cf1be15f1cc1be405c70c404b3dd3fe286519e1cd0a257012103437422f9f9e68bbc65b4cafb8acdcc3c945132609d0c422261b50aca0817ba0a00000000", "vin": [{"txinwitness": ["3045022100c8f8aa2c2bb9133d9c79b9c29915db397054ca1337a3a9bd57d54732c4c45f6802204228db5c079c715046cf1be15f1cc1be405c70c404b3dd3fe286519e1cd0a25701", "03437422f9f9e68bbc65b4cafb8acdcc3c945132609d0c422261b50aca0817ba0a"], "sequence": 4294967295, "scriptSig": {"hex": "", "asm": ""}, "vout": 1, "txid": "bd3a89efdb2c9920746cf4e403e5eada646c37a7d57177203f7b9da4fc818ab6"}], "txid": "e2267e2178479c79ef5103ae62366f063b340cb77a63e772ac7f0f672064f13a", "blocktime": 1537873282, "version": 1, "confirmations": 11484, "time": 1537873282, "locktime": 0, "vsize": 144, "size": 226}