{"hash": "d0979adc90f215def6c89258d69c69f13ffd28bcc21807f791cab7bcd15d125e", "blockhash": "0000000000000000001f76057863aec43deb6fa401d9628bb513d65a8098bfab", "vout": [{"scriptPubKey": {"reqSigs": 1, "hex": "a91402e77513cf55b52d9399d10d0d33631aa164446c87", "addresses": ["31xNYs7imDxipXVvnaPG1g5DrwceyTiibR"], "asm": "OP_HASH160 02e77513cf55b52d9399d10d0d33631aa164446c OP_EQUAL", "type": "scripthash"}, "value": 0.00153214, "n": 0}, {"scriptPubKey": {"reqSigs": 1, "hex": "a91498ce6251c2384149701da4d3c54236f3bd38f65687", "addresses": ["3FcysWzLvhvvXLFmk7tGVDUCf9UNejtUPF"], "asm": "OP_HASH160 98ce6251c2384149701da4d3c54236f3bd38f656 OP_EQUAL", "type": "scripthash"}, "value": 8.29616076, "n": 1}], "hex": "020000000001019d9c94cd9c97df7c14f1c83bfe15959380a14ea58c37c4116043792bedc02f3c000000001716001419928e454652de5d62c38ab47190486ba340997bfeffffff027e5602000000000017a91402e77513cf55b52d9399d10d0d33631aa164446c87ccef72310000000017a91498ce6251c2384149701da4d3c54236f3bd38f656870247304402207a6048e38b7a60eec56d7c7eded6895bec3533fb1de2ac47a1daea1307d81fa0022020a7985bafe16afe8d43d97c0b1008cf40504866951fbca899ed47c8c3655ff10121026b215d253facdb408b914138603c723c16e70c684598502ca42573823eb0647314490800", "vin": [{"txinwitness": ["304402207a6048e38b7a60eec56d7c7eded6895bec3533fb1de2ac47a1daea1307d81fa0022020a7985bafe16afe8d43d97c0b1008cf40504866951fbca899ed47c8c3655ff101", "026b215d253facdb408b914138603c723c16e70c684598502ca42573823eb06473"], "sequence": 4294967294, "scriptSig": {"hex": "16001419928e454652de5d62c38ab47190486ba340997b", "asm": "001419928e454652de5d62c38ab47190486ba340997b"}, "vout": 0, "txid": "3c2fc0ed2b79436011c4378ca54ea180939515fe3bc8f1147cdf979ccd949c9d"}], "txid": "e22e1d7f5b558986cd4c424c4b00f63fb109ae5e75d4cfd88923af1f0668339f", "blocktime": 1537873891, "version": 2, "confirmations": 11474, "time": 1537873891, "locktime": 542996, "vsize": 166, "size": 247}