{"hash": "cf1942318cbf93b3a149d38a48cc935dfb89c533658089a7780ed34e1db8d103", "blockhash": "0000000000000000000e13cef7c366c0283d82e591d1acd082e914b08063cdf1", "vout": [{"scriptPubKey": {"reqSigs": 1, "hex": "76a914dc619e9e29852140f3352c3bb76d6cc1d884b9ab88ac", "addresses": ["1M6Gbw2TtHArCoJJLpUvEGe98R1PBqUhni"], "asm": "OP_DUP OP_HASH160 dc619e9e29852140f3352c3bb76d6cc1d884b9ab OP_EQUALVERIFY OP_CHECKSIG", "type": "pubkeyhash"}, "value": 0.00857058, "n": 0}, {"scriptPubKey": {"reqSigs": 1, "hex": "00145ab4bcc5952bb057e2e0c924d5139f78119c054d", "addresses": ["bc1qt26te3v49wc90chqeyjd2yul0qgecp2dvfv7lc"], "asm": "0 5ab4bcc5952bb057e2e0c924d5139f78119c054d", "type": "witness_v0_keyhash"}, "value": 0.59554778, "n": 1}], "hex": "0100000000010190d03aa219e494894ef335c1e0dd6470cfeb0172fb4480adf0a44e9162c0cf6e0000000000ffffffff02e2130d00000000001976a914dc619e9e29852140f3352c3bb76d6cc1d884b9ab88acdabb8c03000000001600145ab4bcc5952bb057e2e0c924d5139f78119c054d0247304402200e5f172aba053195a6dbaf37bc20411186bfd75e5ec81f43e30cc85d91e88791022031640e374d74ab15432e5959b1c7caa045b8052bdc9ec7bcb02c3e29ef42647b012103cd8e1ffad1e534473ba845d1dad6d769ad57bb63c1910f84b7433579f21edc1400000000", "vin": [{"txinwitness": ["304402200e5f172aba053195a6dbaf37bc20411186bfd75e5ec81f43e30cc85d91e88791022031640e374d74ab15432e5959b1c7caa045b8052bdc9ec7bcb02c3e29ef42647b01", "03cd8e1ffad1e534473ba845d1dad6d769ad57bb63c1910f84b7433579f21edc14"], "sequence": 4294967295, "scriptSig": {"hex": "", "asm": ""}, "vout": 0, "txid": "6ecfc062914ea4f0ad8044fb7201ebcf7064dde0c135f34e8994e419a23ad090"}], "txid": "e22faa197a87a2c30abb8b2e09d4d5e24f7bb7b32aebe00ee6b14ded0a4b5462", "blocktime": 1537871767, "version": 1, "confirmations": 11495, "time": 1537871767, "locktime": 0, "vsize": 144, "size": 225}