{"hash": "e23616e743991f72f2c60670e70f428dec7b127b95e4ed72afed2fb1f5079a9b", "blockhash": "0000000000000000001cda96e906b7601b7a6fb1a3b62bca570a9e5d8f4b3de1", "vout": [{"scriptPubKey": {"reqSigs": 1, "hex": "76a91487d0a410ff6d597de9b739f07d03f7040fc880b188ac", "addresses": ["1DP8AX9voAdDuNjbRKGSJnT1baXQF9QkFf"], "asm": "OP_DUP OP_HASH160 87d0a410ff6d597de9b739f07d03f7040fc880b1 OP_EQUALVERIFY OP_CHECKSIG", "type": "pubkeyhash"}, "value": 0.06025, "n": 0}, {"scriptPubKey": {"reqSigs": 1, "hex": "a914e370231feecbfc25e2e2423a5a79bf79bfdca59887", "addresses": ["3NRbeX3vD5VaVE4TDU9ivCDsEf7NPPte6J"], "asm": "OP_HASH160 e370231feecbfc25e2e2423a5a79bf79bfdca598 OP_EQUAL", "type": "scripthash"}, "value": 3.18406357, "n": 1}], "hex": "01000000010e0efb68bfbd99f4172a058dcbed78b86873c2dcfbbea16bd92cbe7a4f7be43501000000da00473044022055378171936f2f135060119160a26e77c2b5196a911082250555418eac9e5d2302200f0e86d6b5d9d58e5000f0f22bde683700b891e24f54e48759f7bcb45d1ff4ae01483045022100f92772ff5eb89e24d5feba98246a1b6e0b24ff2ceecb20cd6d79ea92f493e2c7022016ae8f62f15eed244c67d19b712f962b7807f987bbb3bd8a2cdab19a1fe4d680014752210327881b6abce6535553a3ce21fad12a7d74fd237ce7c4cd270a267162344e3082210256141f8eb687f5a68c5cc65054652dc25116fa285e44d72b44368827ffe77d9a52aeffffffff0228ef5b00000000001976a91487d0a410ff6d597de9b739f07d03f7040fc880b188acd57efa120000000017a914e370231feecbfc25e2e2423a5a79bf79bfdca5988700000000", "vin": [{"sequence": 4294967295, "scriptSig": {"hex": "00473044022055378171936f2f135060119160a26e77c2b5196a911082250555418eac9e5d2302200f0e86d6b5d9d58e5000f0f22bde683700b891e24f54e48759f7bcb45d1ff4ae01483045022100f92772ff5eb89e24d5feba98246a1b6e0b24ff2ceecb20cd6d79ea92f493e2c7022016ae8f62f15eed244c67d19b712f962b7807f987bbb3bd8a2cdab19a1fe4d680014752210327881b6abce6535553a3ce21fad12a7d74fd237ce7c4cd270a267162344e3082210256141f8eb687f5a68c5cc65054652dc25116fa285e44d72b44368827ffe77d9a52ae", "asm": "0 3044022055378171936f2f135060119160a26e77c2b5196a911082250555418eac9e5d2302200f0e86d6b5d9d58e5000f0f22bde683700b891e24f54e48759f7bcb45d1ff4ae[ALL] 3045022100f92772ff5eb89e24d5feba98246a1b6e0b24ff2ceecb20cd6d79ea92f493e2c7022016ae8f62f15eed244c67d19b712f962b7807f987bbb3bd8a2cdab19a1fe4d680[ALL] 52210327881b6abce6535553a3ce21fad12a7d74fd237ce7c4cd270a267162344e3082210256141f8eb687f5a68c5cc65054652dc25116fa285e44d72b44368827ffe77d9a52ae"}, "vout": 1, "txid": "35e47b4f7abe2cd96ba1befbdcc27368b878edcb8d052a17f499bdbf68fb0e0e"}], "txid": "e23616e743991f72f2c60670e70f428dec7b127b95e4ed72afed2fb1f5079a9b", "blocktime": 1537873282, "version": 1, "confirmations": 11484, "time": 1537873282, "locktime": 0, "vsize": 335, "size": 335}