{"hash": "e23b8edee5293e9d8ef3886f5b4142ac02f7cec34548f1677325aa2854169df8", "blockhash": "00000000000000000018f53835495a110e01622372bf6ae95dc86f2b0ab887b0", "vout": [{"scriptPubKey": {"reqSigs": 1, "hex": "76a914475e31acfaf02c3dcac09616f9d8a1904f39940c88ac", "addresses": ["17WMpLYeNBV9b88tR7bxxcPwYuvBn39sc4"], "asm": "OP_DUP OP_HASH160 475e31acfaf02c3dcac09616f9d8a1904f39940c OP_EQUALVERIFY OP_CHECKSIG", "type": "pubkeyhash"}, "value": 0.00668016, "n": 0}, {"scriptPubKey": {"reqSigs": 1, "hex": "a914f3e7c0fe9baf6d4134de7e772e89704dfe32f26887", "addresses": ["3PvfkhbesHdhDcogKRedFKMS35w8TrQwoi"], "asm": "OP_HASH160 f3e7c0fe9baf6d4134de7e772e89704dfe32f268 OP_EQUAL", "type": "scripthash"}, "value": 0.024251, "n": 1}], "hex": "0100000002e64c56c5cc5b0fc71924e6faf18fe40ebfd5177ead65ea5e2c3b314a0af39446010000006b483045022100c431f5e4b26827d7d837ea179f98b90c1b6dead44306f9615f6b2d9a88e7acc80220372e0f9c76f5db80998fd3e5cdd5b6a6b191226b77400ad42f7aaa19a61d3c7d012103de1d246f84303012b71e5d8b5c7877a0d2248e4ff27a6e9e70fefd20db694870ffffffffdd17dc869f37f189afcc79a4a1be817cf8f2c22cf3ab1c1fab14aaf239b226ed010000006b483045022100b1bfbab0db53297161413eb94ad1facc3e23ad9383c6407b21850cb56a178c6c02204bbcba097f5eb63eadec3f445f8551be6e920a8e7d4ff74c1dd337e100246d1b012103323f224481a168d140782b47be17035c9f9ac377e23598629d2b3a3ee6a034c3ffffffff0270310a00000000001976a914475e31acfaf02c3dcac09616f9d8a1904f39940c88ac0c0125000000000017a914f3e7c0fe9baf6d4134de7e772e89704dfe32f2688700000000", "vin": [{"sequence": 4294967295, "scriptSig": {"hex": "483045022100c431f5e4b26827d7d837ea179f98b90c1b6dead44306f9615f6b2d9a88e7acc80220372e0f9c76f5db80998fd3e5cdd5b6a6b191226b77400ad42f7aaa19a61d3c7d012103de1d246f84303012b71e5d8b5c7877a0d2248e4ff27a6e9e70fefd20db694870", "asm": "3045022100c431f5e4b26827d7d837ea179f98b90c1b6dead44306f9615f6b2d9a88e7acc80220372e0f9c76f5db80998fd3e5cdd5b6a6b191226b77400ad42f7aaa19a61d3c7d[ALL] 03de1d246f84303012b71e5d8b5c7877a0d2248e4ff27a6e9e70fefd20db694870"}, "vout": 1, "txid": "4694f30a4a313b2c5eea65ad7e17d5bf0ee48ff1fae62419c70f5bccc5564ce6"}, {"sequence": 4294967295, "scriptSig": {"hex": "483045022100b1bfbab0db53297161413eb94ad1facc3e23ad9383c6407b21850cb56a178c6c02204bbcba097f5eb63eadec3f445f8551be6e920a8e7d4ff74c1dd337e100246d1b012103323f224481a168d140782b47be17035c9f9ac377e23598629d2b3a3ee6a034c3", "asm": "3045022100b1bfbab0db53297161413eb94ad1facc3e23ad9383c6407b21850cb56a178c6c02204bbcba097f5eb63eadec3f445f8551be6e920a8e7d4ff74c1dd337e100246d1b[ALL] 03323f224481a168d140782b47be17035c9f9ac377e23598629d2b3a3ee6a034c3"}, "vout": 1, "txid": "ed26b239f2aa14ab1f1cabf32cc2f2f87c81bea1a479ccaf89f1379f86dc17dd"}], "txid": "e23b8edee5293e9d8ef3886f5b4142ac02f7cec34548f1677325aa2854169df8", "blocktime": 1537870928, "version": 1, "confirmations": 11512, "time": 1537870928, "locktime": 0, "vsize": 372, "size": 372}