{"hash": "e23bc8822323bda1a46e4a3d39826d1c1de71d4c1b839680fee754ef9e64ffc4", "blockhash": "0000000000000000000dcc0f55137456b1a82d3642486a52398922ac4d620174", "vout": [{"scriptPubKey": {"reqSigs": 1, "hex": "76a914b2c33f3805d50c8348ea0edbe402714746cbbff688ac", "addresses": ["1HJDB9DSq6Y3uLK9542yfthwgUFdvCi4eV"], "asm": "OP_DUP OP_HASH160 b2c33f3805d50c8348ea0edbe402714746cbbff6 OP_EQUALVERIFY OP_CHECKSIG", "type": "pubkeyhash"}, "value": 0.0071, "n": 0}, {"scriptPubKey": {"reqSigs": 1, "hex": "a9144f9eb3042fee79c406dfc5d77900b1dedb91f1ae87", "addresses": ["38x1RKPR3SFiNuxp1HwUEc8Wo8jBVy55DY"], "asm": "OP_HASH160 4f9eb3042fee79c406dfc5d77900b1dedb91f1ae OP_EQUAL", "type": "scripthash"}, "value": 0.25314168, "n": 1}], "hex": "01000000011839448b0dcba799d59f4d274147f9f6f76967a66323bf53118db7c67d20b07b00000000fdfd0000483045022100e8249ce0236bf4f1272f953062fc4cacffdfad7db84af9b8e9bbead335830d2a022001e25095d102a63590ad5e16a4990adb98a071e0e4752eab96ce22cc45979276014730440220356da80308fc4da1f3804dc2198f1f7e8363e89917c28e71e66bcb61f25cdd6202207491d9ec16fc3ed117859190c7670bb9076938028fd6db2871bf8c33a85a2f43014c6952210275f1b48386b60e3b9ff4e47c99ec22203f37d4a10040464cf453c16d9cc231a42103a7fbeabda4079de58043567039cf3f8aae2863450c7031ae818676fed51c4d502102e0a8ad4f12edee310aadcb4a5b89fbeb5f53fe10b80d327b8b984cc982cf0a5753aeffffffff0270d50a00000000001976a914b2c33f3805d50c8348ea0edbe402714746cbbff688ac784382010000000017a9144f9eb3042fee79c406dfc5d77900b1dedb91f1ae8700000000", "vin": [{"sequence": 4294967295, "scriptSig": {"hex": "00483045022100e8249ce0236bf4f1272f953062fc4cacffdfad7db84af9b8e9bbead335830d2a022001e25095d102a63590ad5e16a4990adb98a071e0e4752eab96ce22cc45979276014730440220356da80308fc4da1f3804dc2198f1f7e8363e89917c28e71e66bcb61f25cdd6202207491d9ec16fc3ed117859190c7670bb9076938028fd6db2871bf8c33a85a2f43014c6952210275f1b48386b60e3b9ff4e47c99ec22203f37d4a10040464cf453c16d9cc231a42103a7fbeabda4079de58043567039cf3f8aae2863450c7031ae818676fed51c4d502102e0a8ad4f12edee310aadcb4a5b89fbeb5f53fe10b80d327b8b984cc982cf0a5753ae", "asm": "0 3045022100e8249ce0236bf4f1272f953062fc4cacffdfad7db84af9b8e9bbead335830d2a022001e25095d102a63590ad5e16a4990adb98a071e0e4752eab96ce22cc45979276[ALL] 30440220356da80308fc4da1f3804dc2198f1f7e8363e89917c28e71e66bcb61f25cdd6202207491d9ec16fc3ed117859190c7670bb9076938028fd6db2871bf8c33a85a2f43[ALL] 52210275f1b48386b60e3b9ff4e47c99ec22203f37d4a10040464cf453c16d9cc231a42103a7fbeabda4079de58043567039cf3f8aae2863450c7031ae818676fed51c4d502102e0a8ad4f12edee310aadcb4a5b89fbeb5f53fe10b80d327b8b984cc982cf0a5753ae"}, "vout": 0, "txid": "7bb0207dc6b78d1153bf2363a66769f7f6f94741274d9fd599a7cb0d8b443918"}], "txid": "e23bc8822323bda1a46e4a3d39826d1c1de71d4c1b839680fee754ef9e64ffc4", "blocktime": 1537870268, "version": 1, "confirmations": 11518, "time": 1537870268, "locktime": 0, "vsize": 372, "size": 372}