{"hash": "3238d67e9fe34e278a27be3ae609f5d3eb1ee2608bfc3f2f7a6f91c7c34cc14a", "blockhash": "00000000000000000017f5eb5941039fbcee6240d03bc1f2f8e35350df66a1d8", "vout": [{"scriptPubKey": {"reqSigs": 1, "hex": "00142aea6fd7386a6c10514baae78a9427dcf1ce0571", "addresses": ["bc1q9t4xl4ecdfkpq52t4tnc49p8mncuupt3vgzllt"], "asm": "0 2aea6fd7386a6c10514baae78a9427dcf1ce0571", "type": "witness_v0_keyhash"}, "value": 0.01620162, "n": 0}, {"scriptPubKey": {"reqSigs": 1, "hex": "76a914e2ad97b335b69f99ddc49d59fcb921db01bffcf088ac", "addresses": ["1MfZfn6Pd2kdZsyxdHcH92mQKCktw4q1bc"], "asm": "OP_DUP OP_HASH160 e2ad97b335b69f99ddc49d59fcb921db01bffcf0 OP_EQUALVERIFY OP_CHECKSIG", "type": "pubkeyhash"}, "value": 0.07022179, "n": 1}], "hex": "01000000000101740f9139fe54706b5ba5e0500c1eb495204d84a9b0863a1ba647f526f671c1070100000000ffffffff02c2b81800000000001600142aea6fd7386a6c10514baae78a9427dcf1ce057163266b00000000001976a914e2ad97b335b69f99ddc49d59fcb921db01bffcf088ac0247304402202322255dcdc96580b4ca0b39057121254350885f08ca82b311bd19c81c9c6bcc02204b4962fd56b9baea11dc79d91072050658da52d98a4324e23f5b9da6dea3bbce012103094e68e80564cc4eafda96c04578a718e5950bf2ad4cdd89f1d1caa4b322cbed00000000", "vin": [{"txinwitness": ["304402202322255dcdc96580b4ca0b39057121254350885f08ca82b311bd19c81c9c6bcc02204b4962fd56b9baea11dc79d91072050658da52d98a4324e23f5b9da6dea3bbce01", "03094e68e80564cc4eafda96c04578a718e5950bf2ad4cdd89f1d1caa4b322cbed"], "sequence": 4294967295, "scriptSig": {"hex": "", "asm": ""}, "vout": 1, "txid": "07c171f626f547a61b3a86b0a9844d2095b41e0c50e0a55b6b7054fe39910f74"}], "txid": "e2455fd68761fe13051c8393f7a3a412df998e3317acc8640876503918b349eb", "blocktime": 1537874412, "version": 1, "confirmations": 11467, "time": 1537874412, "locktime": 0, "vsize": 144, "size": 225}