{"hash": "78a27e2f6f945fad94d6c26b9890ce642cd00fb5c2ad2352674a8648a80eaf43", "blockhash": "00000000000000000024a2167bbff67b0be802c0b01cdd79e6331c2be6459f87", "vout": [{"scriptPubKey": {"reqSigs": 1, "hex": "a91403563b97cc2cdad01ec7c77a2daf8d54482ec53b87", "addresses": ["31zfFgHfqJevC9QNZSDN1DptiAywWLUBjt"], "asm": "OP_HASH160 03563b97cc2cdad01ec7c77a2daf8d54482ec53b OP_EQUAL", "type": "scripthash"}, "value": 0.01714587, "n": 0}, {"scriptPubKey": {"reqSigs": 1, "hex": "a914d32287e6955b78da65a60b82b7a21e90cde0e72587", "addresses": ["3LwPsGQDMpwFPwwcyoAEQ3VGA4qqQ7bn6b"], "asm": "OP_HASH160 d32287e6955b78da65a60b82b7a21e90cde0e725 OP_EQUAL", "type": "scripthash"}, "value": 0.33710161, "n": 1}, {"scriptPubKey": {"reqSigs": 1, "hex": "76a91479983b171c6feacdd515d38ac3fc32683c77011988ac", "addresses": ["1C5w8PsheSDFhs4YrFomGoKrxkyHvfqHPS"], "asm": "OP_DUP OP_HASH160 79983b171c6feacdd515d38ac3fc32683c770119 OP_EQUALVERIFY OP_CHECKSIG", "type": "pubkeyhash"}, "value": 0.017, "n": 2}], "hex": "01000000000101794e03a6e6cd3d4d4e6765809b33a2df057a492cfaecad0cc7d981286b6b4ed7010000002322002002508bea702b18d9615e78a1181a80efbcf324b5d38cde4e8d1a7d9e1c04e653ffffffff039b291a000000000017a91403563b97cc2cdad01ec7c77a2daf8d54482ec53b87516002020000000017a914d32287e6955b78da65a60b82b7a21e90cde0e72587a0f01900000000001976a91479983b171c6feacdd515d38ac3fc32683c77011988ac040047304402205492438323fedd6635692fb0dcbd8c2471452777419b4909f93d16809382a9b30220415d6d19997cce56fc4b65aba0bf246c8f8ceedaee987f608dbeacdeb98214c301483045022100c967241e373d14ce94fa37f74200dae3b756b129e6bf8c3712119aa2a0b39df302201981fd1bc60af9ef1aee66435ab96352e012da51484881aaa94ace22cf60e72401695221022d17e974277cd9a83430557a47dcbfa74d74158730691c22cf539ea3175f5b3221031d7112aac977db772a0369fe2bcd901dc054c4cc4dc460cada3b4968a4ff8aba21038900708e0b163e2b379aef86dc2ddec0573b5a4521d7ce1f77f064be22551b2353ae00000000", "vin": [{"txinwitness": ["", "304402205492438323fedd6635692fb0dcbd8c2471452777419b4909f93d16809382a9b30220415d6d19997cce56fc4b65aba0bf246c8f8ceedaee987f608dbeacdeb98214c301", "3045022100c967241e373d14ce94fa37f74200dae3b756b129e6bf8c3712119aa2a0b39df302201981fd1bc60af9ef1aee66435ab96352e012da51484881aaa94ace22cf60e72401", "5221022d17e974277cd9a83430557a47dcbfa74d74158730691c22cf539ea3175f5b3221031d7112aac977db772a0369fe2bcd901dc054c4cc4dc460cada3b4968a4ff8aba21038900708e0b163e2b379aef86dc2ddec0573b5a4521d7ce1f77f064be22551b2353ae"], "sequence": 4294967295, "scriptSig": {"hex": "22002002508bea702b18d9615e78a1181a80efbcf324b5d38cde4e8d1a7d9e1c04e653", "asm": "002002508bea702b18d9615e78a1181a80efbcf324b5d38cde4e8d1a7d9e1c04e653"}, "vout": 1, "txid": "d74e6b6b2881d9c70cadecfa2c497a05dfa2339b8065674e4d3dcde6a6034e79"}], "txid": "e2461d4860c0b058e0fd3aa4881e9e7510194fb3b286c2a823462accddbcb98d", "blocktime": 1537870564, "version": 1, "confirmations": 11515, "time": 1537870564, "locktime": 0, "vsize": 248, "size": 439}