{"hash": "d1fbaafd195db593fe9e2a0601789ceb97f021abe9832b13d06cd065ae9e4863", "blockhash": "0000000000000000001f76057863aec43deb6fa401d9628bb513d65a8098bfab", "vout": [{"scriptPubKey": {"reqSigs": 1, "hex": "76a914200b28df1f040dd508af52d503435a970d41025188ac", "addresses": ["13vRzXSz67RZBSpWKyDpJHHWqEAXDRrKBr"], "asm": "OP_DUP OP_HASH160 200b28df1f040dd508af52d503435a970d410251 OP_EQUALVERIFY OP_CHECKSIG", "type": "pubkeyhash"}, "value": 0.00618243, "n": 0}, {"scriptPubKey": {"reqSigs": 1, "hex": "a9140136c10502ae5684e49b302f1af10f145f74b6b787", "addresses": ["31oSC7GvQMTZoouyNLBEHVRDhXEFbVhSmh"], "asm": "OP_HASH160 0136c10502ae5684e49b302f1af10f145f74b6b7 OP_EQUAL", "type": "scripthash"}, "value": 0.05905085, "n": 1}], "hex": "010000000001016eab2c57a71f93bdb8b92d9bb127ac75fafe1bf98a9cd2279e7e4c309c463cf60100000023220020efd02f10cc1074c68ec89b458572a71ce6bfc8a17595d8fde80232e47279444bffffffff02036f0900000000001976a914200b28df1f040dd508af52d503435a970d41025188acbd1a5a000000000017a9140136c10502ae5684e49b302f1af10f145f74b6b7870400483045022100baa4570b5fdf267ef124210737acf2dcf5f4f10e57eac17ff8b9610383c927c402200817fd237f7e3baed5ecd2744be84cc78b34844ce7d78c7f9c797bc996ff8f3001483045022100d00b370075d0986ff20a164d0ff49d0b13f9f5197b7bdbc18f1ea183d192143d022029ab7e701cc3b6e16b3cf4363a6ff8fa73392f5632543ce65589d304c5f510500147522103f985ea61f461801f3abc09ebed98ce7e20804639a64616f639f492883ea4e8d62103871fc2ca08e6950b38867e8e6a0e94ee625223d3aa0df5c65f414c6d784467e252ae00000000", "vin": [{"txinwitness": ["", "3045022100baa4570b5fdf267ef124210737acf2dcf5f4f10e57eac17ff8b9610383c927c402200817fd237f7e3baed5ecd2744be84cc78b34844ce7d78c7f9c797bc996ff8f3001", "3045022100d00b370075d0986ff20a164d0ff49d0b13f9f5197b7bdbc18f1ea183d192143d022029ab7e701cc3b6e16b3cf4363a6ff8fa73392f5632543ce65589d304c5f5105001", "522103f985ea61f461801f3abc09ebed98ce7e20804639a64616f639f492883ea4e8d62103871fc2ca08e6950b38867e8e6a0e94ee625223d3aa0df5c65f414c6d784467e252ae"], "sequence": 4294967295, "scriptSig": {"hex": "220020efd02f10cc1074c68ec89b458572a71ce6bfc8a17595d8fde80232e47279444b", "asm": "0020efd02f10cc1074c68ec89b458572a71ce6bfc8a17595d8fde80232e47279444b"}, "vout": 1, "txid": "f63c469c304c7e9e27d29c8af91bfefa75ac27b19b2db9b8bd931fa7572cab6e"}], "txid": "e2467e1c544afbd5c9763263728ca20e832d82a70a6b40542e3c97f8a48b8dce", "blocktime": 1537873891, "version": 1, "confirmations": 11478, "time": 1537873891, "locktime": 0, "vsize": 208, "size": 374}