{"hash": "e24ade196b623cda5c0d9ec11dd238e439748fe339010b8c95abfc3a4c42f7d2", "blockhash": "0000000000000000000e13cef7c366c0283d82e591d1acd082e914b08063cdf1", "vout": [{"scriptPubKey": {"reqSigs": 1, "hex": "76a9147db2d4cbeba4eafe71967bec88e4b2f3f697551288ac", "addresses": ["1CTdhPgAT5Grqec6K51d8vrCSex27wwjDn"], "asm": "OP_DUP OP_HASH160 7db2d4cbeba4eafe71967bec88e4b2f3f6975512 OP_EQUALVERIFY OP_CHECKSIG", "type": "pubkeyhash"}, "value": 0.0432031, "n": 0}, {"scriptPubKey": {"reqSigs": 1, "hex": "76a914ffa6b466cf8a4c95789d1ec233d96ca90babd83288ac", "addresses": ["1QJm1mCAoWoCVscu7gZKaTC7m8k3p8HbYS"], "asm": "OP_DUP OP_HASH160 ffa6b466cf8a4c95789d1ec233d96ca90babd832 OP_EQUALVERIFY OP_CHECKSIG", "type": "pubkeyhash"}, "value": 0.79497832, "n": 1}], "hex": "01000000012435a0fc44d442f2dec4b63b3dfdc84714265e91beaa46e143d998381f5fb4fc010000006a473044022076d067bf34964a0632667c6fc403213c8e7f28fa7b83bb2a2be4e4c4a4a1258002204b96e21b48718b3687ad4d6d92e4e6a922ecafeea2d6cf7f4c9241533e03dbe101210215f9771df7b0776238e41c97b05e98a478bf25f032ef353a6bf6af50fc9d8580ffffffff0236ec4100000000001976a9147db2d4cbeba4eafe71967bec88e4b2f3f697551288ac680abd04000000001976a914ffa6b466cf8a4c95789d1ec233d96ca90babd83288ac00000000", "vin": [{"sequence": 4294967295, "scriptSig": {"hex": "473044022076d067bf34964a0632667c6fc403213c8e7f28fa7b83bb2a2be4e4c4a4a1258002204b96e21b48718b3687ad4d6d92e4e6a922ecafeea2d6cf7f4c9241533e03dbe101210215f9771df7b0776238e41c97b05e98a478bf25f032ef353a6bf6af50fc9d8580", "asm": "3044022076d067bf34964a0632667c6fc403213c8e7f28fa7b83bb2a2be4e4c4a4a1258002204b96e21b48718b3687ad4d6d92e4e6a922ecafeea2d6cf7f4c9241533e03dbe1[ALL] 0215f9771df7b0776238e41c97b05e98a478bf25f032ef353a6bf6af50fc9d8580"}, "vout": 1, "txid": "fcb45f1f3898d943e146aabe915e261447c8fd3d3bb6c4def242d444fca03524"}], "txid": "e24ade196b623cda5c0d9ec11dd238e439748fe339010b8c95abfc3a4c42f7d2", "blocktime": 1537871767, "version": 1, "confirmations": 11493, "time": 1537871767, "locktime": 0, "vsize": 225, "size": 225}