{"hash": "2dbda57b3dcdd9abe543ab4cb677c2683d00c4031caa8e4cd83e438bc0b8dada", "blockhash": "0000000000000000001cda96e906b7601b7a6fb1a3b62bca570a9e5d8f4b3de1", "vout": [{"scriptPubKey": {"reqSigs": 1, "hex": "a914e5fc5aa31c2ade6c5c0572a5c1022c0aae541cfa87", "addresses": ["3Nf4yLfLHzLmuJYpNVFjX6CQ5Eu6YPj4KA"], "asm": "OP_HASH160 e5fc5aa31c2ade6c5c0572a5c1022c0aae541cfa OP_EQUAL", "type": "scripthash"}, "value": 2.69176573, "n": 0}, {"scriptPubKey": {"reqSigs": 1, "hex": "76a914b291bccae6b43a3ab9693b530605cda8c741a1dc88ac", "addresses": ["1HHBsASjeTaGRB6Cv5qE3GPe5PZ7PkPreU"], "asm": "OP_DUP OP_HASH160 b291bccae6b43a3ab9693b530605cda8c741a1dc OP_EQUALVERIFY OP_CHECKSIG", "type": "pubkeyhash"}, "value": 1.7631, "n": 1}], "hex": "020000000001012f351e2de1b0424c82a1bd56d835e53031bceac920894bbe44c23fb5c00ed6f9010000001716001479dfdfbe42810f8550667c938b2dc6e5517291d2feffffff02fd4e0b100000000017a914e5fc5aa31c2ade6c5c0572a5c1022c0aae541cfa87f046820a000000001976a914b291bccae6b43a3ab9693b530605cda8c741a1dc88ac0247304402201a445ce0ef7b2669aebb5e3e44715319722b270e100317f9d78e39bde6cabbb9022040a0ec93a7ca7688b62d6adf576afe832c90dc1eb38b86cd9fcc1f01f8b5a85a012102dd383bbd16695400037d284599ca1bcaf30a8dc8966c5c6ae85802c8b0f8a7dd13490800", "vin": [{"txinwitness": ["304402201a445ce0ef7b2669aebb5e3e44715319722b270e100317f9d78e39bde6cabbb9022040a0ec93a7ca7688b62d6adf576afe832c90dc1eb38b86cd9fcc1f01f8b5a85a01", "02dd383bbd16695400037d284599ca1bcaf30a8dc8966c5c6ae85802c8b0f8a7dd"], "sequence": 4294967294, "scriptSig": {"hex": "16001479dfdfbe42810f8550667c938b2dc6e5517291d2", "asm": "001479dfdfbe42810f8550667c938b2dc6e5517291d2"}, "vout": 1, "txid": "f9d60ec0b53fc244be4b8920c9eabc3130e535d856bda1824c42b0e12d1e352f"}], "txid": "e24ed00789ae801d0ebaa71f8826192748bc1cc419e54893fc5df5ce5f4e1963", "blocktime": 1537873282, "version": 2, "confirmations": 11484, "time": 1537873282, "locktime": 542995, "vsize": 168, "size": 249}