{"hash": "e24fc505a76c8eacd95d6126b30362369a5fb05cfbf8e21aff18b4a0fcee6cd7", "blockhash": "0000000000000000001e0dab787dd257d1dbfcb92a98c2207d5e1078be1f4165", "vout": [{"scriptPubKey": {"reqSigs": 1, "hex": "0014670a9faddde7c3c58b5960f353a7bcf40aab56ef", "addresses": ["bc1qvu9fltwaulputz6evre48fau7s92k4h0f3nywx"], "asm": "0 670a9faddde7c3c58b5960f353a7bcf40aab56ef", "type": "witness_v0_keyhash"}, "value": 0.00168876, "n": 0}, {"scriptPubKey": {"reqSigs": 1, "hex": "76a91432a6aaafa5546429de9b7d5ba3fdfc3145369f8888ac", "addresses": ["15cpSoPaQGUAdQCvJNm3NWvKWesk3CFxJR"], "asm": "OP_DUP OP_HASH160 32a6aaafa5546429de9b7d5ba3fdfc3145369f88 OP_EQUALVERIFY OP_CHECKSIG", "type": "pubkeyhash"}, "value": 0.044967, "n": 1}], "hex": "01000000013a9b0476d9d2852bed43764a475eeca26f376c7b97b4b2c67f09ae66578b81ce040000006a4730440220728d39859c4a27033414f4679f43b349adc368dd9fbd86c180c647bd0d6db22302204ad79abe63cc134446fd0a9e51579165af5475094050e4adc383a5990703f51d012102d51daff489be51624dae9fd8ada312329c6b60fb009e9b5f096c669a9a831a83ffffffff02ac93020000000000160014670a9faddde7c3c58b5960f353a7bcf40aab56ef3c9d4400000000001976a91432a6aaafa5546429de9b7d5ba3fdfc3145369f8888ac00000000", "vin": [{"sequence": 4294967295, "scriptSig": {"hex": "4730440220728d39859c4a27033414f4679f43b349adc368dd9fbd86c180c647bd0d6db22302204ad79abe63cc134446fd0a9e51579165af5475094050e4adc383a5990703f51d012102d51daff489be51624dae9fd8ada312329c6b60fb009e9b5f096c669a9a831a83", "asm": "30440220728d39859c4a27033414f4679f43b349adc368dd9fbd86c180c647bd0d6db22302204ad79abe63cc134446fd0a9e51579165af5475094050e4adc383a5990703f51d[ALL] 02d51daff489be51624dae9fd8ada312329c6b60fb009e9b5f096c669a9a831a83"}, "vout": 4, "txid": "ce818b5766ae097fc6b2b4977b6c376fa2ec5e474a7643ed2b85d2d976049b3a"}], "txid": "e24fc505a76c8eacd95d6126b30362369a5fb05cfbf8e21aff18b4a0fcee6cd7", "blocktime": 1537872475, "version": 1, "confirmations": 11486, "time": 1537872475, "locktime": 0, "vsize": 222, "size": 222}