{"hash": "e2696cbc621ae6622ba6092dc2786c01b02889471279f7a61cf591ab915bb572", "blockhash": "0000000000000000001cda96e906b7601b7a6fb1a3b62bca570a9e5d8f4b3de1", "vout": [{"scriptPubKey": {"reqSigs": 1, "hex": "76a914a68390a9e7fe3bb039c566c685f3ef15f2b98a2d88ac", "addresses": ["1GBSn9WdVZ5KcRYsG7dRnmCEWZQVYaE2Wn"], "asm": "OP_DUP OP_HASH160 a68390a9e7fe3bb039c566c685f3ef15f2b98a2d OP_EQUALVERIFY OP_CHECKSIG", "type": "pubkeyhash"}, "value": 0.001568, "n": 0}, {"scriptPubKey": {"reqSigs": 1, "hex": "76a9140059075006c736c3bbac75e0cb0e9235c217fc6988ac", "addresses": ["112qepANb9xZX1nVLzZzYSYG1X4JGJymUk"], "asm": "OP_DUP OP_HASH160 0059075006c736c3bbac75e0cb0e9235c217fc69 OP_EQUALVERIFY OP_CHECKSIG", "type": "pubkeyhash"}, "value": 0.09524268, "n": 1}], "hex": "0100000001c15af9eaff1f0d02311f6a82c5ddc4da79c65e1fcae14165e114060af30a4d4a000000006a47304402206114b3e82f6d5d4016a81184e95ac20f2138e9c111253b2813a613ccd127207602205e690bb6baf81f7c994b43f6725fe4803db97bf712a476d1520ab064f37f2d19012103e32fc443e963080c819d2741460d95b935e0d8360453c13148ea736fe43f0cadffffffff0280640200000000001976a914a68390a9e7fe3bb039c566c685f3ef15f2b98a2d88ac2c549100000000001976a9140059075006c736c3bbac75e0cb0e9235c217fc6988ac00000000", "vin": [{"sequence": 4294967295, "scriptSig": {"hex": "47304402206114b3e82f6d5d4016a81184e95ac20f2138e9c111253b2813a613ccd127207602205e690bb6baf81f7c994b43f6725fe4803db97bf712a476d1520ab064f37f2d19012103e32fc443e963080c819d2741460d95b935e0d8360453c13148ea736fe43f0cad", "asm": "304402206114b3e82f6d5d4016a81184e95ac20f2138e9c111253b2813a613ccd127207602205e690bb6baf81f7c994b43f6725fe4803db97bf712a476d1520ab064f37f2d19[ALL] 03e32fc443e963080c819d2741460d95b935e0d8360453c13148ea736fe43f0cad"}, "vout": 0, "txid": "4a4d0af30a0614e16541e1ca1f5ec679dac4ddc5826a1f31020d1fffeaf95ac1"}], "txid": "e2696cbc621ae6622ba6092dc2786c01b02889471279f7a61cf591ab915bb572", "blocktime": 1537873282, "version": 1, "confirmations": 11485, "time": 1537873282, "locktime": 0, "vsize": 225, "size": 225}