{"hash": "e27314f16f9892ba9bb9e4fe1ba520fb561b07b09962bb85d6458bcce39f70a0", "blockhash": "0000000000000000000dcc0f55137456b1a82d3642486a52398922ac4d620174", "vout": [{"scriptPubKey": {"reqSigs": 1, "hex": "a91413d425676b182463b10da42c965332d014742c3c87", "addresses": ["33VruMkeGnxoD72vTsSC5RhHNXsVKhpFLp"], "asm": "OP_HASH160 13d425676b182463b10da42c965332d014742c3c OP_EQUAL", "type": "scripthash"}, "value": 0.00062146, "n": 0}, {"scriptPubKey": {"reqSigs": 1, "hex": "76a9149a5c26ba88acff7498777146b183ad04dd77c90788ac", "addresses": ["1F5BTKsQoZToGmiSNTv5enZhSumcoqGUMw"], "asm": "OP_DUP OP_HASH160 9a5c26ba88acff7498777146b183ad04dd77c907 OP_EQUALVERIFY OP_CHECKSIG", "type": "pubkeyhash"}, "value": 9.01e-05, "n": 1}], "hex": "0100000002fded4503211600ffb058d236774b3d9596a902e9926af0f22f3e66e2ce8a3c25000000006b483045022100d2b469ce390fe820cba53c44f4a8387e2edfce50e9b6358a98747133ac3089d302200341d30626979470da3e828cc2f9986393ecaee7342beb738c1ae10ef6dc54e9012103e830b7467e4ad0897bcc4ba0b84306fa9764ccdf0a0b2d642b94a441d0b20013ffffffff1e2ec936f7b2d3c9af6af19e49a515754786f374105a3e2ec7394db48c7bdb50000000006b48304502210099a58db06997b84b93120b599f80b7eaa57b7fdf280b5c794044514951f03fef022023ce09bb2334c272c7089e866acbbf74b3ff9bc98445a5b6a637344b8b4d74f5012103e830b7467e4ad0897bcc4ba0b84306fa9764ccdf0a0b2d642b94a441d0b20013ffffffff02c2f200000000000017a91413d425676b182463b10da42c965332d014742c3c8732230000000000001976a9149a5c26ba88acff7498777146b183ad04dd77c90788ac00000000", "vin": [{"sequence": 4294967295, "scriptSig": {"hex": "483045022100d2b469ce390fe820cba53c44f4a8387e2edfce50e9b6358a98747133ac3089d302200341d30626979470da3e828cc2f9986393ecaee7342beb738c1ae10ef6dc54e9012103e830b7467e4ad0897bcc4ba0b84306fa9764ccdf0a0b2d642b94a441d0b20013", "asm": "3045022100d2b469ce390fe820cba53c44f4a8387e2edfce50e9b6358a98747133ac3089d302200341d30626979470da3e828cc2f9986393ecaee7342beb738c1ae10ef6dc54e9[ALL] 03e830b7467e4ad0897bcc4ba0b84306fa9764ccdf0a0b2d642b94a441d0b20013"}, "vout": 0, "txid": "253c8acee2663e2ff2f06a92e902a996953d4b7736d258b0ff0016210345edfd"}, {"sequence": 4294967295, "scriptSig": {"hex": "48304502210099a58db06997b84b93120b599f80b7eaa57b7fdf280b5c794044514951f03fef022023ce09bb2334c272c7089e866acbbf74b3ff9bc98445a5b6a637344b8b4d74f5012103e830b7467e4ad0897bcc4ba0b84306fa9764ccdf0a0b2d642b94a441d0b20013", "asm": "304502210099a58db06997b84b93120b599f80b7eaa57b7fdf280b5c794044514951f03fef022023ce09bb2334c272c7089e866acbbf74b3ff9bc98445a5b6a637344b8b4d74f5[ALL] 03e830b7467e4ad0897bcc4ba0b84306fa9764ccdf0a0b2d642b94a441d0b20013"}, "vout": 0, "txid": "50db7b8cb44d39c72e3e5a1074f386477515a5499ef16aafc9d3b2f736c92e1e"}], "txid": "e27314f16f9892ba9bb9e4fe1ba520fb561b07b09962bb85d6458bcce39f70a0", "blocktime": 1537870268, "version": 1, "confirmations": 11516, "time": 1537870268, "locktime": 0, "vsize": 372, "size": 372}