{"hash": "e2780cbd9200e25cc3f3c83c262f5aaf7dc99a373c547c7f514e6cc0be57e5b4", "blockhash": "00000000000000000004ffacab907a6b429b9a5745fa0b75af4234bf69dd7176", "vout": [{"scriptPubKey": {"reqSigs": 1, "hex": "76a91484755916364b4aeaa1df3acb4642ab0a746dcb6b88ac", "addresses": ["1D5NmobAnPFLQK8Bw7vVR9jBdX3snQB5Dr"], "asm": "OP_DUP OP_HASH160 84755916364b4aeaa1df3acb4642ab0a746dcb6b OP_EQUALVERIFY OP_CHECKSIG", "type": "pubkeyhash"}, "value": 0.00398, "n": 0}, {"scriptPubKey": {"reqSigs": 1, "hex": "76a914e339ca050952a60de6a08843cf84363be5ad711788ac", "addresses": ["1MiTcoi2bbcz6NiZNoM637pLr9HHJHLvT7"], "asm": "OP_DUP OP_HASH160 e339ca050952a60de6a08843cf84363be5ad7117 OP_EQUALVERIFY OP_CHECKSIG", "type": "pubkeyhash"}, "value": 0.03698998, "n": 1}], "hex": "010000000125dcfe30921c777c367c76502dbc7065ef3ccb4969075fdf6d5924cfa7cab4f1010000006b483045022100aabecc84dad8feff0940a0fcd4982b6166d3aa0ed84880b119090f3fa90d049e022031d2ad09442ce0265be4f8c81855df5299e324cd3376eb27c5d2242a51e63a1b01210288f5cc9a2bf66dee25d34f83d60340c025b3c17cce2eb9c9712c175a744adf25ffffffff02b0120600000000001976a91484755916364b4aeaa1df3acb4642ab0a746dcb6b88ac36713800000000001976a914e339ca050952a60de6a08843cf84363be5ad711788ac00000000", "vin": [{"sequence": 4294967295, "scriptSig": {"hex": "483045022100aabecc84dad8feff0940a0fcd4982b6166d3aa0ed84880b119090f3fa90d049e022031d2ad09442ce0265be4f8c81855df5299e324cd3376eb27c5d2242a51e63a1b01210288f5cc9a2bf66dee25d34f83d60340c025b3c17cce2eb9c9712c175a744adf25", "asm": "3045022100aabecc84dad8feff0940a0fcd4982b6166d3aa0ed84880b119090f3fa90d049e022031d2ad09442ce0265be4f8c81855df5299e324cd3376eb27c5d2242a51e63a1b[ALL] 0288f5cc9a2bf66dee25d34f83d60340c025b3c17cce2eb9c9712c175a744adf25"}, "vout": 1, "txid": "f1b4caa7cf24596ddf5f076949cb3cef6570bc2d50767c367c771c9230fedc25"}], "txid": "e2780cbd9200e25cc3f3c83c262f5aaf7dc99a373c547c7f514e6cc0be57e5b4", "blocktime": 1537875543, "version": 1, "confirmations": 11464, "time": 1537875543, "locktime": 0, "vsize": 226, "size": 226}