{"hash": "60345281dbd876d43bec0ce9afbdadc1471f7f2607ecefba97bc532ca1661503", "blockhash": "0000000000000000001e0dab787dd257d1dbfcb92a98c2207d5e1078be1f4165", "vout": [{"scriptPubKey": {"reqSigs": 1, "hex": "a91478c947af01bff2fbedcdfcb7f85bae21f4f4220f87", "addresses": ["3Chg8k6wreXF319xSjQw5Uk4XN1YdxMh3Q"], "asm": "OP_HASH160 78c947af01bff2fbedcdfcb7f85bae21f4f4220f OP_EQUAL", "type": "scripthash"}, "value": 0.2164, "n": 0}, {"scriptPubKey": {"reqSigs": 1, "hex": "a914d11faffdcf0ad6bd81bfc6d836c55a5075d4876187", "addresses": ["3Lkm7KX2NpWtKHmRdd43DBFfXaFZNpvxjn"], "asm": "OP_HASH160 d11faffdcf0ad6bd81bfc6d836c55a5075d48761 OP_EQUAL", "type": "scripthash"}, "value": 0.0673, "n": 1}], "hex": "01000000000101f1342a1f65b4aaeb40761bed6f75b929df9c9d67d1c9a61af7f7a7c9f299d14902000000232200202d529686623b91b52f4d51e6ce4a95b00ada12c439cba284c538efc95f563d3affffffff0240334a010000000017a91478c947af01bff2fbedcdfcb7f85bae21f4f4220f8710b166000000000017a914d11faffdcf0ad6bd81bfc6d836c55a5075d48761870400483045022100a8dbb83ec6ff6fe33e323cc1f7e53fb1e93e7970cf2bffb937330e5a81198e9102205d90c09ac3105282dfa6afc73cc2a86524d5e5be446d6281c0367aa9980b5a9a014830450221009d966fd73b83894a1bcbeeb3b7f2cb73a4bc08861ed39014f3e06e5b4b4f8d90022014d6bdac5bcdb6fd9ce4f06a2235cd4df9d650918f714cdd7930dfa478de185c0169522102c6a019cc9e7d6ce8c9f9630d18af998349f7acfab3ccbe409504e8e13ff50b4f21025f41c9b666b14088f3f504535bfccf5d1500b9569a4615fc509a253133b7f38a2102715fda62e763850a49d5e21343aad3db1571e66d1b722e08980795711c50bcc653ae00000000", "vin": [{"txinwitness": ["", "3045022100a8dbb83ec6ff6fe33e323cc1f7e53fb1e93e7970cf2bffb937330e5a81198e9102205d90c09ac3105282dfa6afc73cc2a86524d5e5be446d6281c0367aa9980b5a9a01", "30450221009d966fd73b83894a1bcbeeb3b7f2cb73a4bc08861ed39014f3e06e5b4b4f8d90022014d6bdac5bcdb6fd9ce4f06a2235cd4df9d650918f714cdd7930dfa478de185c01", "522102c6a019cc9e7d6ce8c9f9630d18af998349f7acfab3ccbe409504e8e13ff50b4f21025f41c9b666b14088f3f504535bfccf5d1500b9569a4615fc509a253133b7f38a2102715fda62e763850a49d5e21343aad3db1571e66d1b722e08980795711c50bcc653ae"], "sequence": 4294967295, "scriptSig": {"hex": "2200202d529686623b91b52f4d51e6ce4a95b00ada12c439cba284c538efc95f563d3a", "asm": "00202d529686623b91b52f4d51e6ce4a95b00ada12c439cba284c538efc95f563d3a"}, "vout": 2, "txid": "49d199f2c9a7f7f71aa6c9d1679d9cdf29b9756fed1b7640ebaab4651f2a34f1"}], "txid": "e278ad1661e6bf47bc006af06ac9e2c85773fd2fcd3137cf6b9a83484770b280", "blocktime": 1537872475, "version": 1, "confirmations": 11486, "time": 1537872475, "locktime": 0, "vsize": 214, "size": 406}