{"hash": "8089ad20680485be303373c286a6ede17fb6b86585a40ade30d4f70e8f8fac7e", "blockhash": "00000000000000000017f5eb5941039fbcee6240d03bc1f2f8e35350df66a1d8", "vout": [{"scriptPubKey": {"reqSigs": 1, "hex": "a914dcc883015fcd76c00b05b6e400d09e1c8f1654a287", "addresses": ["3MpQnYeDa4A2VRMBgbtS6KiPzd1LLFgwnv"], "asm": "OP_HASH160 dcc883015fcd76c00b05b6e400d09e1c8f1654a2 OP_EQUAL", "type": "scripthash"}, "value": 0.1842, "n": 0}, {"scriptPubKey": {"reqSigs": 1, "hex": "a91441ab141cfabb55adb6c5684fd84ec57adecbfec887", "addresses": ["37gEnm2na1zG4LbKaLLdtG7BTYjfTJuzGD"], "asm": "OP_HASH160 41ab141cfabb55adb6c5684fd84ec57adecbfec8 OP_EQUAL", "type": "scripthash"}, "value": 0.00986477, "n": 1}], "hex": "02000000000102697e5dfe6f4967d14ac580b5ced35377cbc5568ca4a3e1cf33ee69b26f4b8971010000006a4730440220169f37dee21051a3b828f94d9744525a050c743fb2962aa09c60a36e72e397f00220039f99ecb99302f8897f22c947a72edf1e6e2f433bd9ffaab7e227c1bfac09dc012103c781eafcc5067183df4a2e7c34575452b7227ab76c0d7c3cc0145118e462cb78feffffff69e04f0b2a88522cff6c092c034c8a062f976d94940665bba6b32cad731f9fc6010000001716001454fd312f45cbdea6b3240d681ed219c7c1a87dfafeffffff02201119010000000017a914dcc883015fcd76c00b05b6e400d09e1c8f1654a2876d0d0f000000000017a91441ab141cfabb55adb6c5684fd84ec57adecbfec8870002483045022100afd9b9fe5bb720e941ec14e0aac507180c2e64abac12d6c4f740c907351e7f250220780a1e6cf2720060360e5f85bd352e3aa2b43324ce31b55f7b261102d9c3ff2e012103017b063b7fbcb57bfddbf1c57b963a08c28d03cddd81924c0a78b142378cd19a15490800", "vin": [{"sequence": 4294967294, "scriptSig": {"hex": "4730440220169f37dee21051a3b828f94d9744525a050c743fb2962aa09c60a36e72e397f00220039f99ecb99302f8897f22c947a72edf1e6e2f433bd9ffaab7e227c1bfac09dc012103c781eafcc5067183df4a2e7c34575452b7227ab76c0d7c3cc0145118e462cb78", "asm": "30440220169f37dee21051a3b828f94d9744525a050c743fb2962aa09c60a36e72e397f00220039f99ecb99302f8897f22c947a72edf1e6e2f433bd9ffaab7e227c1bfac09dc[ALL] 03c781eafcc5067183df4a2e7c34575452b7227ab76c0d7c3cc0145118e462cb78"}, "vout": 1, "txid": "71894b6fb269ee33cfe1a3a48c56c5cb7753d3ceb580c54ad167496ffe5d7e69"}, {"txinwitness": ["3045022100afd9b9fe5bb720e941ec14e0aac507180c2e64abac12d6c4f740c907351e7f250220780a1e6cf2720060360e5f85bd352e3aa2b43324ce31b55f7b261102d9c3ff2e01", "03017b063b7fbcb57bfddbf1c57b963a08c28d03cddd81924c0a78b142378cd19a"], "sequence": 4294967294, "scriptSig": {"hex": "16001454fd312f45cbdea6b3240d681ed219c7c1a87dfa", "asm": "001454fd312f45cbdea6b3240d681ed219c7c1a87dfa"}, "vout": 1, "txid": "c69f1f73ad2cb3a6bb650694946d972f068a4c032c096cff2c52882a0b4fe069"}], "txid": "e2798ddab2ab3627e377064702ae0fe0b9663a902e1c853eeb7aa5458c18a0ef", "blocktime": 1537874412, "version": 2, "confirmations": 11466, "time": 1537874412, "locktime": 542997, "vsize": 313, "size": 396}