{"hash": "21da6d18e17895b659ee82a74f7b3c10cbba903fa79d5e24f6e34882dba76cc2", "blockhash": "000000000000000000022b45ed06c6f4ccd3cf7fb5ba4856ebd2e58215665228", "vout": [{"scriptPubKey": {"reqSigs": 1, "hex": "a914390afe281df83a8aef44100749c1af24e9938be387", "addresses": ["36tdcGgZQAe4sC1e8eKtSLV9NpX8xAxLyR"], "asm": "OP_HASH160 390afe281df83a8aef44100749c1af24e9938be3 OP_EQUAL", "type": "scripthash"}, "value": 0.01021656, "n": 0}, {"scriptPubKey": {"reqSigs": 1, "hex": "76a9146d150e6aebe96c789a269d020ca824f30b9810bf88ac", "addresses": ["1AwmsvqVV5q2RrdMG4R6pVuHVKqmqxtyUM"], "asm": "OP_DUP OP_HASH160 6d150e6aebe96c789a269d020ca824f30b9810bf OP_EQUALVERIFY OP_CHECKSIG", "type": "pubkeyhash"}, "value": 0.0027536, "n": 1}], "hex": "02000000000102a524a86b7bdba77021e3e77bdeabbdadcc596184bb61aa88573231d65d95c2f90000000017160014a1c9f6f789908cf3af1eef0385ac04c3776b72cbfeffffffbca8a5748aa6ce6228054de5b0994f5e808be215b20581e27362050dc163a0ee0100000017160014ca9e291176bbe19a1c8b93d8f9473d721c3f315cfeffffff02d8960f000000000017a914390afe281df83a8aef44100749c1af24e9938be387a0330400000000001976a9146d150e6aebe96c789a269d020ca824f30b9810bf88ac02483045022100f3bfcefd45ca93f4023491a7c2166eb1ec90bc0725fb205613cf1c90c31d4b7702202bcc901ad2cdfbe5bdc639f975558477813f5176f5f3691b7aa6c6b180c9d483012103aaa50350605df571a2c71529d68a76781d4f9b89b9971f13d0b37df71e042dd302473044022008f756b046193f012fd2d8cf3349c8b4d74ef54627ca381a9bbd582c881bc7a002203527c4407c1a077cfd6a1ada8419a5bf3048f9b9a7c1ad841c01f081a3e5d279012102c3bdc9a63841b3696e3d994fb62f5c993674042bf4a9adf5ef024139f83c6197c7480800", "vin": [{"txinwitness": ["3045022100f3bfcefd45ca93f4023491a7c2166eb1ec90bc0725fb205613cf1c90c31d4b7702202bcc901ad2cdfbe5bdc639f975558477813f5176f5f3691b7aa6c6b180c9d48301", "03aaa50350605df571a2c71529d68a76781d4f9b89b9971f13d0b37df71e042dd3"], "sequence": 4294967294, "scriptSig": {"hex": "160014a1c9f6f789908cf3af1eef0385ac04c3776b72cb", "asm": "0014a1c9f6f789908cf3af1eef0385ac04c3776b72cb"}, "vout": 0, "txid": "f9c2955dd631325788aa61bb846159ccadbdabde7be7e32170a7db7b6ba824a5"}, {"txinwitness": ["3044022008f756b046193f012fd2d8cf3349c8b4d74ef54627ca381a9bbd582c881bc7a002203527c4407c1a077cfd6a1ada8419a5bf3048f9b9a7c1ad841c01f081a3e5d27901", "02c3bdc9a63841b3696e3d994fb62f5c993674042bf4a9adf5ef024139f83c6197"], "sequence": 4294967294, "scriptSig": {"hex": "160014ca9e291176bbe19a1c8b93d8f9473d721c3f315c", "asm": "0014ca9e291176bbe19a1c8b93d8f9473d721c3f315c"}, "vout": 1, "txid": "eea063c10d056273e28105b215e28b805e4f99b0e54d052862cea68a74a5a8bc"}], "txid": "e27a25bb719425de9328760ec87be8e596d3375fd8f6c7a9db912361438c71e0", "blocktime": 1537869901, "version": 2, "confirmations": 11524, "time": 1537869901, "locktime": 542919, "vsize": 259, "size": 421}