{"hash": "e27aa8fbbe90781f8dfe4c53140c8d661b8753d7aa106229545dbc3cc1f665a2", "blockhash": "0000000000000000000e13cef7c366c0283d82e591d1acd082e914b08063cdf1", "vout": [{"scriptPubKey": {"reqSigs": 1, "hex": "76a914e887bdb8de4fa6a0dc5d61194045b132f0f5a2e688ac", "addresses": ["1NCWNxnRFGneFFqRbPHUv86RMxQba9DBRQ"], "asm": "OP_DUP OP_HASH160 e887bdb8de4fa6a0dc5d61194045b132f0f5a2e6 OP_EQUALVERIFY OP_CHECKSIG", "type": "pubkeyhash"}, "value": 0.00095948, "n": 0}, {"scriptPubKey": {"reqSigs": 1, "hex": "a914c2e2e82f48c971fde220de074687cef03da7fd5d87", "addresses": ["3KTUqXnebvLDnGZbRXFZvNaRPV8e8jfj7S"], "asm": "OP_HASH160 c2e2e82f48c971fde220de074687cef03da7fd5d OP_EQUAL", "type": "scripthash"}, "value": 0.0157, "n": 1}], "hex": "0100000002e872ffe45169e184f5efc4638db6a94e5c9adae94d483a834d2dca2fcf43aa28000000006b483045022100b4ece77fe49ccdd5a8b14ef66166bb42973c4d26a57622c636417359ca1eadfa0220466a03bf7781ccf3c8c6c708202f7283eccde317abf669993ab7bd32c9111f7901210368623f269e82ff733a032c4daf77e3fcf6bc3ec34cb1114ce735db7e4540c0f5ffffffff280b1713e43ae03ffb3b4a463d2f9de1524433d7768c749c52126117ea741bfe000000006a47304402207bb69509f08b407500e76a2d63ca00b6fb63123b8ca0ddcc3aef2af736b4111a02206cad1d5aebc23130425ae408564777332ed4a67d04852bbee5b849cb1e1be98c0121036c3c747552773edc6241a1adb28d2aae2cc7704b94004face1cb337f478f8fbeffffffff02cc760100000000001976a914e887bdb8de4fa6a0dc5d61194045b132f0f5a2e688acd0f417000000000017a914c2e2e82f48c971fde220de074687cef03da7fd5d8700000000", "vin": [{"sequence": 4294967295, "scriptSig": {"hex": "483045022100b4ece77fe49ccdd5a8b14ef66166bb42973c4d26a57622c636417359ca1eadfa0220466a03bf7781ccf3c8c6c708202f7283eccde317abf669993ab7bd32c9111f7901210368623f269e82ff733a032c4daf77e3fcf6bc3ec34cb1114ce735db7e4540c0f5", "asm": "3045022100b4ece77fe49ccdd5a8b14ef66166bb42973c4d26a57622c636417359ca1eadfa0220466a03bf7781ccf3c8c6c708202f7283eccde317abf669993ab7bd32c9111f79[ALL] 0368623f269e82ff733a032c4daf77e3fcf6bc3ec34cb1114ce735db7e4540c0f5"}, "vout": 0, "txid": "28aa43cf2fca2d4d833a484de9da9a5c4ea9b68d63c4eff584e16951e4ff72e8"}, {"sequence": 4294967295, "scriptSig": {"hex": "47304402207bb69509f08b407500e76a2d63ca00b6fb63123b8ca0ddcc3aef2af736b4111a02206cad1d5aebc23130425ae408564777332ed4a67d04852bbee5b849cb1e1be98c0121036c3c747552773edc6241a1adb28d2aae2cc7704b94004face1cb337f478f8fbe", "asm": "304402207bb69509f08b407500e76a2d63ca00b6fb63123b8ca0ddcc3aef2af736b4111a02206cad1d5aebc23130425ae408564777332ed4a67d04852bbee5b849cb1e1be98c[ALL] 036c3c747552773edc6241a1adb28d2aae2cc7704b94004face1cb337f478f8fbe"}, "vout": 0, "txid": "fe1b74ea176112529c748c76d7334452e19d2f3d464a3bfb3fe03ae413170b28"}], "txid": "e27aa8fbbe90781f8dfe4c53140c8d661b8753d7aa106229545dbc3cc1f665a2", "blocktime": 1537871767, "version": 1, "confirmations": 11492, "time": 1537871767, "locktime": 0, "vsize": 371, "size": 371}