{"hash": "e27d8561ea2391d97e85b609b10461c8eb2c2d164e4a5347909ca4754345c80f", "blockhash": "0000000000000000000dcc0f55137456b1a82d3642486a52398922ac4d620174", "vout": [{"scriptPubKey": {"reqSigs": 1, "hex": "76a91419cec3006a4ef932bbc1a561be24355ab674940388ac", "addresses": ["13MTarS3mPWozGHKcfLayvcZFSVpMFwK8o"], "asm": "OP_DUP OP_HASH160 19cec3006a4ef932bbc1a561be24355ab6749403 OP_EQUALVERIFY OP_CHECKSIG", "type": "pubkeyhash"}, "value": 0.0002347, "n": 0}, {"scriptPubKey": {"reqSigs": 1, "hex": "76a914f4e09b30ef51945c3772fb56574b07471f55d3d288ac", "addresses": ["1PKnwimHXsqh5RdFLrFHJgaF9Bs7G64MMX"], "asm": "OP_DUP OP_HASH160 f4e09b30ef51945c3772fb56574b07471f55d3d2 OP_EQUALVERIFY OP_CHECKSIG", "type": "pubkeyhash"}, "value": 0.00155957, "n": 1}], "hex": "010000000184cc2ffeb45e540e34e248b11126252a154194ad9090612471e0b38ce9d97aa40a0000006a47304402206e0657f62be852b46a9ca3ad20eefbdc8dc153bfdd7be796ce919de77052aebc022046befbd99a0d705437804b248daa150f47abc8d9a7e5a089a0090247195b9a92012103d904a018bbc7fcb8b9da83760ec1041b5409120339e5936df64e2e8b79669faaffffffff02ae5b0000000000001976a91419cec3006a4ef932bbc1a561be24355ab674940388ac35610200000000001976a914f4e09b30ef51945c3772fb56574b07471f55d3d288ac00000000", "vin": [{"sequence": 4294967295, "scriptSig": {"hex": "47304402206e0657f62be852b46a9ca3ad20eefbdc8dc153bfdd7be796ce919de77052aebc022046befbd99a0d705437804b248daa150f47abc8d9a7e5a089a0090247195b9a92012103d904a018bbc7fcb8b9da83760ec1041b5409120339e5936df64e2e8b79669faa", "asm": "304402206e0657f62be852b46a9ca3ad20eefbdc8dc153bfdd7be796ce919de77052aebc022046befbd99a0d705437804b248daa150f47abc8d9a7e5a089a0090247195b9a92[ALL] 03d904a018bbc7fcb8b9da83760ec1041b5409120339e5936df64e2e8b79669faa"}, "vout": 10, "txid": "a47ad9e98cb3e07124619090ad9441152a252611b148e2340e545eb4fe2fcc84"}], "txid": "e27d8561ea2391d97e85b609b10461c8eb2c2d164e4a5347909ca4754345c80f", "blocktime": 1537870268, "version": 1, "confirmations": 11518, "time": 1537870268, "locktime": 0, "vsize": 225, "size": 225}