{"hash": "e27d9bc31e5699ebb5c80a01376016e7abbd12e109155ea3fb8728d0619f2cb5", "blockhash": "000000000000000000022b45ed06c6f4ccd3cf7fb5ba4856ebd2e58215665228", "vout": [{"scriptPubKey": {"type": "nulldata", "hex": "6a146f6d6e69000000000000001f0000000d655a6dc0", "asm": "OP_RETURN 6f6d6e69000000000000001f0000000d655a6dc0"}, "value": 0.0, "n": 0}, {"scriptPubKey": {"reqSigs": 1, "hex": "76a914a25dec4d0011064ef106a983c39c7a540699f22088ac", "addresses": ["1FoWyxwPXuj4C6abqwhjDWdz6D4PZgYRjA"], "asm": "OP_DUP OP_HASH160 a25dec4d0011064ef106a983c39c7a540699f220 OP_EQUALVERIFY OP_CHECKSIG", "type": "pubkeyhash"}, "value": 5.46e-06, "n": 1}, {"scriptPubKey": {"reqSigs": 1, "hex": "76a9142833ea08fd83563a37c0d8c7864e6c17cd1482d288ac", "addresses": ["14faDjdhRWytb4ebxT35pWeNES3cJCbxJY"], "asm": "OP_DUP OP_HASH160 2833ea08fd83563a37c0d8c7864e6c17cd1482d2 OP_EQUALVERIFY OP_CHECKSIG", "type": "pubkeyhash"}, "value": 0.00499066, "n": 2}], "hex": "01000000013640c9dc99ebf48d8d8f1238708e1453a3e81a96ab9b754fe03f816e76ef54bc000000006a47304402206b4ecf78c215ac97fb797234659b13d44b2c879286e0b755a73033ca776d6a1a022045f0c518e9508866e9c40c17ce64f608be49fb580e2026d41bb21ffcfff994e5012102cf2e271667f427df24a99ee7b0f26477ebcada03b0a28645d4e57b8937bf9757feffffff030000000000000000166a146f6d6e69000000000000001f0000000d655a6dc022020000000000001976a914a25dec4d0011064ef106a983c39c7a540699f22088ac7a9d0700000000001976a9142833ea08fd83563a37c0d8c7864e6c17cd1482d288ac0b490800", "vin": [{"sequence": 4294967294, "scriptSig": {"hex": "47304402206b4ecf78c215ac97fb797234659b13d44b2c879286e0b755a73033ca776d6a1a022045f0c518e9508866e9c40c17ce64f608be49fb580e2026d41bb21ffcfff994e5012102cf2e271667f427df24a99ee7b0f26477ebcada03b0a28645d4e57b8937bf9757", "asm": "304402206b4ecf78c215ac97fb797234659b13d44b2c879286e0b755a73033ca776d6a1a022045f0c518e9508866e9c40c17ce64f608be49fb580e2026d41bb21ffcfff994e5[ALL] 02cf2e271667f427df24a99ee7b0f26477ebcada03b0a28645d4e57b8937bf9757"}, "vout": 0, "txid": "bc54ef766e813fe04f759bab961ae8a353148e7038128f8d8df4eb99dcc94036"}], "txid": "e27d9bc31e5699ebb5c80a01376016e7abbd12e109155ea3fb8728d0619f2cb5", "blocktime": 1537869901, "version": 1, "confirmations": 11524, "time": 1537869901, "locktime": 542987, "vsize": 256, "size": 256}