{"hash": "e4f4e1034c7f1770e8d02637dc5c2a65a06d20eea584d5ab8edb62593a06fa9a", "blockhash": "00000000000000000017f5eb5941039fbcee6240d03bc1f2f8e35350df66a1d8", "vout": [{"scriptPubKey": {"reqSigs": 1, "hex": "a914a22f5e3e5213265064673e011b3e86a853c15dbc87", "addresses": ["3GUa8pJ5fhLYshTTdeRuHrVtUnWbz8P1hs"], "asm": "OP_HASH160 a22f5e3e5213265064673e011b3e86a853c15dbc OP_EQUAL", "type": "scripthash"}, "value": 1.258925, "n": 0}, {"scriptPubKey": {"reqSigs": 1, "hex": "a9142d4aa27698632b69b728de9f58bdfc34ae800ce687", "addresses": ["35pVjt2XCzzyP24yL6XDc61DTNaMiFsoVN"], "asm": "OP_HASH160 2d4aa27698632b69b728de9f58bdfc34ae800ce6 OP_EQUAL", "type": "scripthash"}, "value": 0.01011219, "n": 1}], "hex": "0200000000010333526c1350e4992c164c5fbb74e9e302f3d43f22e724f950afe9ac052307d87701000000171600144c776231c333d4660de7e2da8413eaae7a049ff5feffffff6c39219122f8b9045fab628c5a10d5dc80f8012d13c35f898d41319008490a4d01000000171600149fac2cc2e6c26f9a9a21187034e03cd5716ea06ffeffffffa9aa4d99166d511b5a7305fa0fab334827f95823af8ff68f213bf1dc89155daf0000000017160014d45c75aa5b705897dae86e7efa709e1f3c044f8ffeffffff0294f780070000000017a914a22f5e3e5213265064673e011b3e86a853c15dbc87136e0f000000000017a9142d4aa27698632b69b728de9f58bdfc34ae800ce68702483045022100b4f59023fdb335cfa1c02abd950b6c0d77af2fdb9b7d28aa2c38fda2640d213602205a82925edf4263ac7f25337366f7ca9d103f631fe42c080c0448c7c05cd86847012102f20cf66c98ba98fda8373b228fb6ef0ea3be560f1f80af0091de22bc12e3dffc0247304402203f609408f0c30e46e66a72e426c09e66e248050b5ad35231cfdaba00a70657a2022048e048e8f40cf454388f713cee35ef01d21c39269b5a6d6211c6cdbc2a3058260121031e13e9aca7c01769abd454a888417c8bb0ded613294c69821139435f9c7b698002483045022100e7ad6b1ff6813694404e535b18ea7baac5c9c8b6549dba70dcd103993691a4280220778b4e3498c2781b2a95fb00d847f264c0ef47ec25f220524806827c01169fa001210376cf1b5c882ed90e59ea06ad154c3be97bf7744bae75443f2b7b2733689de47815490800", "vin": [{"txinwitness": ["3045022100b4f59023fdb335cfa1c02abd950b6c0d77af2fdb9b7d28aa2c38fda2640d213602205a82925edf4263ac7f25337366f7ca9d103f631fe42c080c0448c7c05cd8684701", "02f20cf66c98ba98fda8373b228fb6ef0ea3be560f1f80af0091de22bc12e3dffc"], "sequence": 4294967294, "scriptSig": {"hex": "1600144c776231c333d4660de7e2da8413eaae7a049ff5", "asm": "00144c776231c333d4660de7e2da8413eaae7a049ff5"}, "vout": 1, "txid": "77d8072305ace9af50f924e7223fd4f302e3e974bb5f4c162c99e450136c5233"}, {"txinwitness": ["304402203f609408f0c30e46e66a72e426c09e66e248050b5ad35231cfdaba00a70657a2022048e048e8f40cf454388f713cee35ef01d21c39269b5a6d6211c6cdbc2a30582601", "031e13e9aca7c01769abd454a888417c8bb0ded613294c69821139435f9c7b6980"], "sequence": 4294967294, "scriptSig": {"hex": "1600149fac2cc2e6c26f9a9a21187034e03cd5716ea06f", "asm": "00149fac2cc2e6c26f9a9a21187034e03cd5716ea06f"}, "vout": 1, "txid": "4d0a49089031418d895fc3132d01f880dcd5105a8c62ab5f04b9f8229121396c"}, {"txinwitness": ["3045022100e7ad6b1ff6813694404e535b18ea7baac5c9c8b6549dba70dcd103993691a4280220778b4e3498c2781b2a95fb00d847f264c0ef47ec25f220524806827c01169fa001", "0376cf1b5c882ed90e59ea06ad154c3be97bf7744bae75443f2b7b2733689de478"], "sequence": 4294967294, "scriptSig": {"hex": "160014d45c75aa5b705897dae86e7efa709e1f3c044f8f", "asm": "0014d45c75aa5b705897dae86e7efa709e1f3c044f8f"}, "vout": 0, "txid": "af5d1589dcf13b218ff68faf2358f9274833ab0ffa05735a1b516d16994daaa9"}], "txid": "e27d770841bcf1ba51b513a3ec2555bb0701d3d85c32577d2c25bc76c59e640d", "blocktime": 1537874412, "version": 2, "confirmations": 11468, "time": 1537874412, "locktime": 542997, "vsize": 348, "size": 591}