{"hash": "b26f641a51944b072f54ad740431b86af3542a5d37f297e976500a115412f00e", "blockhash": "00000000000000000004ffacab907a6b429b9a5745fa0b75af4234bf69dd7176", "vout": [{"scriptPubKey": {"reqSigs": 1, "hex": "76a914ffcbe6b1fc60fd35f4420d93a659285209093f6d88ac", "addresses": ["1QKXaDbsFibavfgUtHni4yHQJGbGDmwPTp"], "asm": "OP_DUP OP_HASH160 ffcbe6b1fc60fd35f4420d93a659285209093f6d OP_EQUALVERIFY OP_CHECKSIG", "type": "pubkeyhash"}, "value": 0.002852, "n": 0}, {"scriptPubKey": {"reqSigs": 1, "hex": "76a914e74a25cc38192934e6c893ad29931ce0eba0dee188ac", "addresses": ["1N5wvBYC4Pw7hiuVi5gY9GjM1q1jYML6aC"], "asm": "OP_DUP OP_HASH160 e74a25cc38192934e6c893ad29931ce0eba0dee1 OP_EQUALVERIFY OP_CHECKSIG", "type": "pubkeyhash"}, "value": 0.31264, "n": 1}, {"scriptPubKey": {"reqSigs": 1, "hex": "76a914adb91435dd99e3d4a9f085f34685c20161f36d9188ac", "addresses": ["1GqZchSqsLJXzy3ruqwY8Y1xMciWQDLgVZ"], "asm": "OP_DUP OP_HASH160 adb91435dd99e3d4a9f085f34685c20161f36d91 OP_EQUALVERIFY OP_CHECKSIG", "type": "pubkeyhash"}, "value": 0.0218, "n": 2}, {"scriptPubKey": {"reqSigs": 1, "hex": "a9141988a27e3c2df4ddee7fad5a2303d086179b2a3087", "addresses": ["3422VtS7UtCvXYxoXMVp6eZupR252z85oC"], "asm": "OP_HASH160 1988a27e3c2df4ddee7fad5a2303d086179b2a30 OP_EQUAL", "type": "scripthash"}, "value": 2.34136138, "n": 3}], "hex": "010000000001014017319644dc1f167f6023f86db3a48bc686f23b953d13d4c929f11bd1d1021d020000002322002065d416c48a8072e0ac51c2d111eb194f009caef0332446c1bf2097316cf07fa9ffffffff04105a0400000000001976a914ffcbe6b1fc60fd35f4420d93a659285209093f6d88ac000ddd01000000001976a914e74a25cc38192934e6c893ad29931ce0eba0dee188aca0432100000000001976a914adb91435dd99e3d4a9f085f34685c20161f36d9188ac4aa2f40d0000000017a9141988a27e3c2df4ddee7fad5a2303d086179b2a30870400483045022100dd5f60fc89ade2db47dd2f6d0b49bc2d33f73ec55a0418253ce3978d1ccfc237022048cfea62d5d76ed0ec3910034c305f7f0880120e32d5a39cc9394645ef2e776c0147304402205b7e613c71301c25b01db3de5ec298ea23f6767aae8b350c0c6f5ccaca1cca53022031977fadf3b0379153178063b62bfd8ee945cc856b8190053b08fdcb7732b0420169522102f44abcf9e23c9a460da309ccca56c619c04eed3bde2c2cff5e7d78fbcd980b9c2103c9443cf3047bb6c2c82f1b0c44c36109cdc3d0d601d16d1189a1602bf8d1a0a02103bfe867059274412412e088af5572b92168c2ef495cfe6c9b7a753a009eb37c4853ae00000000", "vin": [{"txinwitness": ["", "3045022100dd5f60fc89ade2db47dd2f6d0b49bc2d33f73ec55a0418253ce3978d1ccfc237022048cfea62d5d76ed0ec3910034c305f7f0880120e32d5a39cc9394645ef2e776c01", "304402205b7e613c71301c25b01db3de5ec298ea23f6767aae8b350c0c6f5ccaca1cca53022031977fadf3b0379153178063b62bfd8ee945cc856b8190053b08fdcb7732b04201", "522102f44abcf9e23c9a460da309ccca56c619c04eed3bde2c2cff5e7d78fbcd980b9c2103c9443cf3047bb6c2c82f1b0c44c36109cdc3d0d601d16d1189a1602bf8d1a0a02103bfe867059274412412e088af5572b92168c2ef495cfe6c9b7a753a009eb37c4853ae"], "sequence": 4294967295, "scriptSig": {"hex": "22002065d416c48a8072e0ac51c2d111eb194f009caef0332446c1bf2097316cf07fa9", "asm": "002065d416c48a8072e0ac51c2d111eb194f009caef0332446c1bf2097316cf07fa9"}, "vout": 2, "txid": "1d02d1d11bf129c9d4133d953bf286c68ba4b36df823607f161fdc4496311740"}], "txid": "e27eea618221406050b9880e45487965ceaa7135a47557421a044b0aa08f2867", "blocktime": 1537875543, "version": 1, "confirmations": 11464, "time": 1537875543, "locktime": 0, "vsize": 284, "size": 475}