{"hash": "e280442da67a036a46106b391070661ae9ce7a007dff0679cfdd861bf7090d51", "blockhash": "00000000000000000017f5eb5941039fbcee6240d03bc1f2f8e35350df66a1d8", "vout": [{"scriptPubKey": {"reqSigs": 1, "hex": "76a914759fb9532944d7bac8a45f314e90784e7bfd88d588ac", "addresses": ["1BiwQFugPayC4naHQp2QnbERvRBZaatozL"], "asm": "OP_DUP OP_HASH160 759fb9532944d7bac8a45f314e90784e7bfd88d5 OP_EQUALVERIFY OP_CHECKSIG", "type": "pubkeyhash"}, "value": 0.01150186, "n": 0}, {"scriptPubKey": {"reqSigs": 1, "hex": "76a9149da49d2e4185944fa77c95ea5bad34150894dc3988ac", "addresses": ["1FNYHhU6oERMG5qCc5NjVXXvShhSbQ7uFR"], "asm": "OP_DUP OP_HASH160 9da49d2e4185944fa77c95ea5bad34150894dc39 OP_EQUALVERIFY OP_CHECKSIG", "type": "pubkeyhash"}, "value": 0.00026882, "n": 1}], "hex": "0100000009b8666911b3d0e0b840931ac326153d72459ca290460eba35577816ac8702398b000000006a47304402203dc1435ad8a7d7455ced8350a402ebca1b83c4634de3cb305c4bba24ed556776022017b86279fbf42ff5ce0b50097f3b606a978016d3bb457c4bd2d24ddff96836f1012102da7d2fec29e70b21c5c724db031af2b6fe20356226472c1dc1d3938dd1328184ffffffff6ad627e785d336c3a338fa7e09a3e2e90644623c5c7aaab2ddabe9529b9306ef000000006a4730440220698adc7a0493c81875eb20be508a4fe0889fe12d348a0a09f5a9b54c1e84cedf02200a85753b62a6fe58bdf9517095324b0c60006353031221f4873a3fbee3c92d22012102da7d2fec29e70b21c5c724db031af2b6fe20356226472c1dc1d3938dd1328184ffffffff69301af94dbe9ce8a34f7d9a0e8199578e5072c5eb8dcfcba53b28ba73b009c8000000006a4730440220455a38d2b7c9f3525f605a8710ea7cc284f2e37e5e4b6c3d464ec77071d04a0902207b0ca798e81fcd6122c6c6f39bb01d740736bcecbd5d5c627d9e94a8f47fe1aa012102da7d2fec29e70b21c5c724db031af2b6fe20356226472c1dc1d3938dd1328184ffffffff5df5f93827ef934afbabcefd30cdb4c894794a759b1862b4f6a3949120078599000000006b483045022100e21caf7ce4ce15316d720f7b131eaf453b233cd068341fd5e90693228a66dc47022001474e93d04d02619de08cceec7d8208a387249bffb47392378c659368c00b32012102da7d2fec29e70b21c5c724db031af2b6fe20356226472c1dc1d3938dd1328184ffffffff5b719099cad31429b257affc0415cf6a24b53930c807778f46d411e0b9312a99000000006b483045022100f4fd984fa4505764b349c5c58a8e248f9d4b74bedc1550c3a3c3bd6f74a531fb02206eed5dfa8f0e1cdecea24663b43566e569d3a5bd16b7d8e4642589291dc2d742012102da7d2fec29e70b21c5c724db031af2b6fe20356226472c1dc1d3938dd1328184ffffffff493d7dd895280ca80b3e37badc4d2068d6ffd75aa4f4cb80a12cf07984d6b103000000006b483045022100b0786c3a604a3611b9d276b1c57ccbbc26a6869e017f6564768d6ded54f2f6a9022069e5100a8772831699e0c607af833a4068328c945e64913d168c93cb2408922c012102da7d2fec29e70b21c5c724db031af2b6fe20356226472c1dc1d3938dd1328184ffffffff44f84d13536ab94c6d8b4dd6720afa8ca9f2521c3dc9dda0bf4781ae9603fd3b000000006a47304402204da0beba8e162d718858d8d4488d43881bb9d9ee9f3efd1919426c0b74a4a723022049489c3825642e75667732073e1a556f2421b58f1042ed860c483d53c0faba0b012102da7d2fec29e70b21c5c724db031af2b6fe20356226472c1dc1d3938dd1328184ffffffff31a9c6c921685be59cb83ca9550436ee58687158234c05fc6c748ab6ce818aa1000000006b483045022100b0db5ee8fa35895c21792205f7e1ad3139304bd7468cb2f5aa44b4d88f9ab960022002a6d024d4d241cc92008a769a6900b850d76437db33467ab9f117913291cfdc012102da7d2fec29e70b21c5c724db031af2b6fe20356226472c1dc1d3938dd1328184ffffffff1457ff01ba5ca6dfffa198c038c485420ec32f848fa8a8814bc23d6c45f157bf010000006a473044022011098d952a0748634fd5401d70912ea577ae2eedaff15d5f0b1f8a16e2bd3a0e0220190ac4e19291bf7c9652589273bb5106f05de448597d173a71138756070fd03b012102da7d2fec29e70b21c5c724db031af2b6fe20356226472c1dc1d3938dd1328184ffffffff02ea8c1100000000001976a914759fb9532944d7bac8a45f314e90784e7bfd88d588ac02690000000000001976a9149da49d2e4185944fa77c95ea5bad34150894dc3988ac00000000", "vin": [{"sequence": 4294967295, "scriptSig": {"hex": "47304402203dc1435ad8a7d7455ced8350a402ebca1b83c4634de3cb305c4bba24ed556776022017b86279fbf42ff5ce0b50097f3b606a978016d3bb457c4bd2d24ddff96836f1012102da7d2fec29e70b21c5c724db031af2b6fe20356226472c1dc1d3938dd1328184", "asm": "304402203dc1435ad8a7d7455ced8350a402ebca1b83c4634de3cb305c4bba24ed556776022017b86279fbf42ff5ce0b50097f3b606a978016d3bb457c4bd2d24ddff96836f1[ALL] 02da7d2fec29e70b21c5c724db031af2b6fe20356226472c1dc1d3938dd1328184"}, "vout": 0, "txid": "8b390287ac16785735ba0e4690a29c45723d1526c31a9340b8e0d0b3116966b8"}, {"sequence": 4294967295, "scriptSig": {"hex": "4730440220698adc7a0493c81875eb20be508a4fe0889fe12d348a0a09f5a9b54c1e84cedf02200a85753b62a6fe58bdf9517095324b0c60006353031221f4873a3fbee3c92d22012102da7d2fec29e70b21c5c724db031af2b6fe20356226472c1dc1d3938dd1328184", "asm": "30440220698adc7a0493c81875eb20be508a4fe0889fe12d348a0a09f5a9b54c1e84cedf02200a85753b62a6fe58bdf9517095324b0c60006353031221f4873a3fbee3c92d22[ALL] 02da7d2fec29e70b21c5c724db031af2b6fe20356226472c1dc1d3938dd1328184"}, "vout": 0, "txid": "ef06939b52e9abddb2aa7a5c3c624406e9e2a3097efa38a3c336d385e727d66a"}, {"sequence": 4294967295, "scriptSig": {"hex": "4730440220455a38d2b7c9f3525f605a8710ea7cc284f2e37e5e4b6c3d464ec77071d04a0902207b0ca798e81fcd6122c6c6f39bb01d740736bcecbd5d5c627d9e94a8f47fe1aa012102da7d2fec29e70b21c5c724db031af2b6fe20356226472c1dc1d3938dd1328184", "asm": "30440220455a38d2b7c9f3525f605a8710ea7cc284f2e37e5e4b6c3d464ec77071d04a0902207b0ca798e81fcd6122c6c6f39bb01d740736bcecbd5d5c627d9e94a8f47fe1aa[ALL] 02da7d2fec29e70b21c5c724db031af2b6fe20356226472c1dc1d3938dd1328184"}, "vout": 0, "txid": "c809b073ba283ba5cbcf8debc572508e5799810e9a7d4fa3e89cbe4df91a3069"}, {"sequence": 4294967295, "scriptSig": {"hex": "483045022100e21caf7ce4ce15316d720f7b131eaf453b233cd068341fd5e90693228a66dc47022001474e93d04d02619de08cceec7d8208a387249bffb47392378c659368c00b32012102da7d2fec29e70b21c5c724db031af2b6fe20356226472c1dc1d3938dd1328184", "asm": "3045022100e21caf7ce4ce15316d720f7b131eaf453b233cd068341fd5e90693228a66dc47022001474e93d04d02619de08cceec7d8208a387249bffb47392378c659368c00b32[ALL] 02da7d2fec29e70b21c5c724db031af2b6fe20356226472c1dc1d3938dd1328184"}, "vout": 0, "txid": "998507209194a3f6b462189b754a7994c8b4cd30fdceabfb4a93ef2738f9f55d"}, {"sequence": 4294967295, "scriptSig": {"hex": "483045022100f4fd984fa4505764b349c5c58a8e248f9d4b74bedc1550c3a3c3bd6f74a531fb02206eed5dfa8f0e1cdecea24663b43566e569d3a5bd16b7d8e4642589291dc2d742012102da7d2fec29e70b21c5c724db031af2b6fe20356226472c1dc1d3938dd1328184", "asm": "3045022100f4fd984fa4505764b349c5c58a8e248f9d4b74bedc1550c3a3c3bd6f74a531fb02206eed5dfa8f0e1cdecea24663b43566e569d3a5bd16b7d8e4642589291dc2d742[ALL] 02da7d2fec29e70b21c5c724db031af2b6fe20356226472c1dc1d3938dd1328184"}, "vout": 0, "txid": "992a31b9e011d4468f7707c83039b5246acf1504fcaf57b22914d3ca9990715b"}, {"sequence": 4294967295, "scriptSig": {"hex": "483045022100b0786c3a604a3611b9d276b1c57ccbbc26a6869e017f6564768d6ded54f2f6a9022069e5100a8772831699e0c607af833a4068328c945e64913d168c93cb2408922c012102da7d2fec29e70b21c5c724db031af2b6fe20356226472c1dc1d3938dd1328184", "asm": "3045022100b0786c3a604a3611b9d276b1c57ccbbc26a6869e017f6564768d6ded54f2f6a9022069e5100a8772831699e0c607af833a4068328c945e64913d168c93cb2408922c[ALL] 02da7d2fec29e70b21c5c724db031af2b6fe20356226472c1dc1d3938dd1328184"}, "vout": 0, "txid": "03b1d68479f02ca180cbf4a45ad7ffd668204ddcba373e0ba80c2895d87d3d49"}, {"sequence": 4294967295, "scriptSig": {"hex": "47304402204da0beba8e162d718858d8d4488d43881bb9d9ee9f3efd1919426c0b74a4a723022049489c3825642e75667732073e1a556f2421b58f1042ed860c483d53c0faba0b012102da7d2fec29e70b21c5c724db031af2b6fe20356226472c1dc1d3938dd1328184", "asm": "304402204da0beba8e162d718858d8d4488d43881bb9d9ee9f3efd1919426c0b74a4a723022049489c3825642e75667732073e1a556f2421b58f1042ed860c483d53c0faba0b[ALL] 02da7d2fec29e70b21c5c724db031af2b6fe20356226472c1dc1d3938dd1328184"}, "vout": 0, "txid": "3bfd0396ae8147bfa0ddc93d1c52f2a98cfa0a72d64d8b6d4cb96a53134df844"}, {"sequence": 4294967295, "scriptSig": {"hex": "483045022100b0db5ee8fa35895c21792205f7e1ad3139304bd7468cb2f5aa44b4d88f9ab960022002a6d024d4d241cc92008a769a6900b850d76437db33467ab9f117913291cfdc012102da7d2fec29e70b21c5c724db031af2b6fe20356226472c1dc1d3938dd1328184", "asm": "3045022100b0db5ee8fa35895c21792205f7e1ad3139304bd7468cb2f5aa44b4d88f9ab960022002a6d024d4d241cc92008a769a6900b850d76437db33467ab9f117913291cfdc[ALL] 02da7d2fec29e70b21c5c724db031af2b6fe20356226472c1dc1d3938dd1328184"}, "vout": 0, "txid": "a18a81ceb68a746cfc054c2358716858ee360455a93cb89ce55b6821c9c6a931"}, {"sequence": 4294967295, "scriptSig": {"hex": "473044022011098d952a0748634fd5401d70912ea577ae2eedaff15d5f0b1f8a16e2bd3a0e0220190ac4e19291bf7c9652589273bb5106f05de448597d173a71138756070fd03b012102da7d2fec29e70b21c5c724db031af2b6fe20356226472c1dc1d3938dd1328184", "asm": "3044022011098d952a0748634fd5401d70912ea577ae2eedaff15d5f0b1f8a16e2bd3a0e0220190ac4e19291bf7c9652589273bb5106f05de448597d173a71138756070fd03b[ALL] 02da7d2fec29e70b21c5c724db031af2b6fe20356226472c1dc1d3938dd1328184"}, "vout": 1, "txid": "bf57f1456c3dc24b81a8a88f842fc30e4285c438c098a1ffdfa65cba01ff5714"}], "txid": "e280442da67a036a46106b391070661ae9ce7a007dff0679cfdd861bf7090d51", "blocktime": 1537874412, "version": 1, "confirmations": 11467, "time": 1537874412, "locktime": 0, "vsize": 1405, "size": 1405}