{"hash": "e282fd54195c1dc321832e33635d299d34b2f3ed60b2053b826de1308a8192f6", "blockhash": "00000000000000000017f5eb5941039fbcee6240d03bc1f2f8e35350df66a1d8", "vout": [{"scriptPubKey": {"reqSigs": 1, "hex": "76a914d243e6abb9a60fbff430b421d2df4b7d59ec186088ac", "addresses": ["1LAnF8h3qMGx3TSwNUHVneBZUEpwE4gu3D"], "asm": "OP_DUP OP_HASH160 d243e6abb9a60fbff430b421d2df4b7d59ec1860 OP_EQUALVERIFY OP_CHECKSIG", "type": "pubkeyhash"}, "value": 0.00077314, "n": 0}, {"scriptPubKey": {"reqSigs": 1, "hex": "a914933c933d694962195e22f996ebd664922154945487", "addresses": ["3F7XpaW7gekku5MdLET9bsBhR6Znh4iKbe"], "asm": "OP_HASH160 933c933d694962195e22f996ebd6649221549454 OP_EQUAL", "type": "scripthash"}, "value": 5.46e-06, "n": 1}, {"scriptPubKey": {"type": "nulldata", "hex": "6a146f6d6e69000000000000001f0000001f89da95f0", "asm": "OP_RETURN 6f6d6e69000000000000001f0000001f89da95f0"}, "value": 0.0, "n": 2}], "hex": "0100000001c53c136950d9e2c4e58bba38cd4a731df8d5d06ecf52288d8474987ee6205acb000000006a47304402200fc1289f72453cce1efc03219faf5b6095d0e2a7d5e3c30da6a2360b8795b8c902207ed925c28329001b3e2bcb8978174c8e600e704b5a52c23de89852754c91f74101210271977291b74f1f5f5c42157e8aae804664eaaeccfd097918450d37f28fb94d77ffffffff03022e0100000000001976a914d243e6abb9a60fbff430b421d2df4b7d59ec186088ac220200000000000017a914933c933d694962195e22f996ebd6649221549454870000000000000000166a146f6d6e69000000000000001f0000001f89da95f000000000", "vin": [{"sequence": 4294967295, "scriptSig": {"hex": "47304402200fc1289f72453cce1efc03219faf5b6095d0e2a7d5e3c30da6a2360b8795b8c902207ed925c28329001b3e2bcb8978174c8e600e704b5a52c23de89852754c91f74101210271977291b74f1f5f5c42157e8aae804664eaaeccfd097918450d37f28fb94d77", "asm": "304402200fc1289f72453cce1efc03219faf5b6095d0e2a7d5e3c30da6a2360b8795b8c902207ed925c28329001b3e2bcb8978174c8e600e704b5a52c23de89852754c91f741[ALL] 0271977291b74f1f5f5c42157e8aae804664eaaeccfd097918450d37f28fb94d77"}, "vout": 0, "txid": "cb5a20e67e9874848d2852cf6ed0d5f81d734acd38ba8be5c4e2d95069133cc5"}], "txid": "e282fd54195c1dc321832e33635d299d34b2f3ed60b2053b826de1308a8192f6", "blocktime": 1537874412, "version": 1, "confirmations": 11467, "time": 1537874412, "locktime": 0, "vsize": 254, "size": 254}