{"hash": "bf1a1bb2b57feef60506b43b2028a47d36b5bca9482e86475d4dddd20001780c", "blockhash": "0000000000000000001f0ddff1eddb255c1121bcd4da4f1bc9a0da00cae72433", "vout": [{"scriptPubKey": {"reqSigs": 1, "hex": "76a9140a3195c50a139c1268b517078c4818eb7c3cee7288ac", "addresses": ["1vuA9XxA95fff3zonS6wemPTWBvQ16vN9"], "asm": "OP_DUP OP_HASH160 0a3195c50a139c1268b517078c4818eb7c3cee72 OP_EQUALVERIFY OP_CHECKSIG", "type": "pubkeyhash"}, "value": 0.0028477, "n": 0}, {"scriptPubKey": {"reqSigs": 1, "hex": "a914262bd07ca54bd6261e1742714331f5a203ecc52287", "addresses": ["35Ar67Qknnwrz8pYmRBpagCZ3TKCKpbLZT"], "asm": "OP_HASH160 262bd07ca54bd6261e1742714331f5a203ecc522 OP_EQUAL", "type": "scripthash"}, "value": 0.00998532, "n": 1}], "hex": "020000000001050a24124fbb8e940c33e9b2b641a18380a477d2ff8ff1986acd21db846267f9a1000000001716001485cb0cacaaa27acdba40abb2c1b05e5515f61d24feffffff193aaab734fab521cb4568c459811ef84d8400d7e5585169217f679aa2a052af0a00000017160014a34ccaec593ebbce4b47b87249f3738b2b1127a6feffffff5e8de6414fd19cdbd5947a2de15446af0ec63cfd15e9c265c05808f61723a20a0900000017160014e15e40697d0c5e13814d0c259f2d9119ecf9d22cfeffffff954e4134cd73541cf9d2e931d24dbf66f1b777fdb7f74f26db152ea9f4b977c3080000001716001476cf3a283a1047e4ae47d19deca250427625eff1fefffffff4a01f5390dfa96666325f00d1ce5aa6b689c20e157050ae9b3abde4dd3c3948220000001716001453201fe7c1385678047b6e18fa06892bf6e252d0feffffff0262580400000000001976a9140a3195c50a139c1268b517078c4818eb7c3cee7288ac843c0f000000000017a914262bd07ca54bd6261e1742714331f5a203ecc52287024730440220266f00eb1c85bb7b30005bf6c1c90afc2104bb8792e8e27dfdc73e0cdc14ce1e02201eb7bced74dace4a2c26494a3ddc41f91c53ef7edf34da87231c9c9881852dfa012102021b5e29e63b773e35257635d90c31f221576854fa4c672197eaadbdbb81415a02483045022100a0a7f25b55592c651d5b8ac3772f14292b1c8684a7501b05d69cb62764612bc402202a4f163a68d0b6018e5523bad2aef49281627c3eefb46df996337e22d4791378012102501c667ba29d7c29f232a12f027d17f3dac40abc0fa33db6b4db5bd0a692385d0247304402204e3d9922cc97a870dd9e348da63213ee379635581958cfa0303f4dce38d76b2902204a7812f850f3e09059eca9899db5cc0e56ab972c2fa95c5b9f50a133b01d55a00121025cd51f37b2a2073b04d8d6c5ad2d41022e581cbab799d1ed7f99b967a18b570502483045022100f98873d5d0d34cf26d92923292d7705aba974515d41ad23be25e10ebb8eb535702201fb43b3fe7bfcf5a624ad16445a61d71ed2098d208bbe16e700465903fed75f1012103590189ec290117955f0fa884fbee6cefdb0f49eab5e51e6c15c543851f84201902483045022100ab05147a43370c629f12609a8e0700fb11d72440f2cee9ea0618a946233d498a022070eda6203c02b296685f43f1271287a3705639c88b66b3468671ae2ddaba7901012102f34f3f55c2d1ed144ab0da09c729e82cf9d887857cbdcd1cbede457420c051ea11490800", "vin": [{"txinwitness": ["30440220266f00eb1c85bb7b30005bf6c1c90afc2104bb8792e8e27dfdc73e0cdc14ce1e02201eb7bced74dace4a2c26494a3ddc41f91c53ef7edf34da87231c9c9881852dfa01", "02021b5e29e63b773e35257635d90c31f221576854fa4c672197eaadbdbb81415a"], "sequence": 4294967294, "scriptSig": {"hex": "16001485cb0cacaaa27acdba40abb2c1b05e5515f61d24", "asm": "001485cb0cacaaa27acdba40abb2c1b05e5515f61d24"}, "vout": 0, "txid": "a1f9676284db21cd6a98f18fffd277a48083a141b6b2e9330c948ebb4f12240a"}, {"txinwitness": ["3045022100a0a7f25b55592c651d5b8ac3772f14292b1c8684a7501b05d69cb62764612bc402202a4f163a68d0b6018e5523bad2aef49281627c3eefb46df996337e22d479137801", "02501c667ba29d7c29f232a12f027d17f3dac40abc0fa33db6b4db5bd0a692385d"], "sequence": 4294967294, "scriptSig": {"hex": "160014a34ccaec593ebbce4b47b87249f3738b2b1127a6", "asm": "0014a34ccaec593ebbce4b47b87249f3738b2b1127a6"}, "vout": 10, "txid": "af52a0a29a677f21695158e5d700844df81e8159c46845cb21b5fa34b7aa3a19"}, {"txinwitness": ["304402204e3d9922cc97a870dd9e348da63213ee379635581958cfa0303f4dce38d76b2902204a7812f850f3e09059eca9899db5cc0e56ab972c2fa95c5b9f50a133b01d55a001", "025cd51f37b2a2073b04d8d6c5ad2d41022e581cbab799d1ed7f99b967a18b5705"], "sequence": 4294967294, "scriptSig": {"hex": "160014e15e40697d0c5e13814d0c259f2d9119ecf9d22c", "asm": "0014e15e40697d0c5e13814d0c259f2d9119ecf9d22c"}, "vout": 9, "txid": "0aa22317f60858c065c2e915fd3cc60eaf4654e12d7a94d5db9cd14f41e68d5e"}, {"txinwitness": ["3045022100f98873d5d0d34cf26d92923292d7705aba974515d41ad23be25e10ebb8eb535702201fb43b3fe7bfcf5a624ad16445a61d71ed2098d208bbe16e700465903fed75f101", "03590189ec290117955f0fa884fbee6cefdb0f49eab5e51e6c15c543851f842019"], "sequence": 4294967294, "scriptSig": {"hex": "16001476cf3a283a1047e4ae47d19deca250427625eff1", "asm": "001476cf3a283a1047e4ae47d19deca250427625eff1"}, "vout": 8, "txid": "c377b9f4a92e15db264ff7b7fd77b7f166bf4dd231e9d2f91c5473cd34414e95"}, {"txinwitness": ["3045022100ab05147a43370c629f12609a8e0700fb11d72440f2cee9ea0618a946233d498a022070eda6203c02b296685f43f1271287a3705639c88b66b3468671ae2ddaba790101", "02f34f3f55c2d1ed144ab0da09c729e82cf9d887857cbdcd1cbede457420c051ea"], "sequence": 4294967294, "scriptSig": {"hex": "16001453201fe7c1385678047b6e18fa06892bf6e252d0", "asm": "001453201fe7c1385678047b6e18fa06892bf6e252d0"}, "vout": 34, "txid": "48393cdde4bd3a9bae5070150ec289b6a65aced1005f326666a9df90531fa0f4"}], "txid": "e284622cb44c9b2088758df319317ab176b8b81dde2e2058d72d29544c4cdf4b", "blocktime": 1537872018, "version": 2, "confirmations": 11489, "time": 1537872018, "locktime": 542993, "vsize": 531, "size": 936}