{"hash": "e288637299de2411eff4995627a42e450a93c4001a226dbec2ad3fca2b7c8dd4", "blockhash": "0000000000000000000e13cef7c366c0283d82e591d1acd082e914b08063cdf1", "vout": [{"scriptPubKey": {"reqSigs": 1, "hex": "76a9144c4079aa8a655232453e6ed2ccf22027c363d68588ac", "addresses": ["17xBbQ7vJbru7hK11jKXLbUp5YVEqhJMPv"], "asm": "OP_DUP OP_HASH160 4c4079aa8a655232453e6ed2ccf22027c363d685 OP_EQUALVERIFY OP_CHECKSIG", "type": "pubkeyhash"}, "value": 0.1004, "n": 0}, {"scriptPubKey": {"reqSigs": 1, "hex": "a914a3e4383945c3f5ee6cb729e414cc1c4ab3dfbe0887", "addresses": ["3GdbTnkNosDck7tcqPjwQTvDqMuKFGb68N"], "asm": "OP_HASH160 a3e4383945c3f5ee6cb729e414cc1c4ab3dfbe08 OP_EQUAL", "type": "scripthash"}, "value": 5.2422986, "n": 1}], "hex": "02000000013f20eed1330bec5e6552b075405068cbf4d24952391a1641a0d250d59fca64b700000000da00483045022100ff3c3d5753be6d312b57912ce45dea76927445fce06687d486329916cdb7228f02205f3e3e67329a721a1e1ccbd8e72ea3cc9fd40caf2c6c443cadb5e1ffb20ded6c0147304402205720334fec27353514bd35161e238d085203b3b004122a095d3d8009099d63b70220498f2d777c39ef1f4c56b1176a611572eb9169707812e692de46f106f04f834e0147522103071ea2f6e7e5af0b01e482b84f8e14124e37f119897713bdedd4a86d85aa8406210319ac7f304828d720179de7c08f935623d176cc0a8984affc988e640f5eb069b552aeffffffff02c0329900000000001976a9144c4079aa8a655232453e6ed2ccf22027c363d68588ace41c3f1f0000000017a914a3e4383945c3f5ee6cb729e414cc1c4ab3dfbe088700000000", "vin": [{"sequence": 4294967295, "scriptSig": {"hex": "00483045022100ff3c3d5753be6d312b57912ce45dea76927445fce06687d486329916cdb7228f02205f3e3e67329a721a1e1ccbd8e72ea3cc9fd40caf2c6c443cadb5e1ffb20ded6c0147304402205720334fec27353514bd35161e238d085203b3b004122a095d3d8009099d63b70220498f2d777c39ef1f4c56b1176a611572eb9169707812e692de46f106f04f834e0147522103071ea2f6e7e5af0b01e482b84f8e14124e37f119897713bdedd4a86d85aa8406210319ac7f304828d720179de7c08f935623d176cc0a8984affc988e640f5eb069b552ae", "asm": "0 3045022100ff3c3d5753be6d312b57912ce45dea76927445fce06687d486329916cdb7228f02205f3e3e67329a721a1e1ccbd8e72ea3cc9fd40caf2c6c443cadb5e1ffb20ded6c[ALL] 304402205720334fec27353514bd35161e238d085203b3b004122a095d3d8009099d63b70220498f2d777c39ef1f4c56b1176a611572eb9169707812e692de46f106f04f834e[ALL] 522103071ea2f6e7e5af0b01e482b84f8e14124e37f119897713bdedd4a86d85aa8406210319ac7f304828d720179de7c08f935623d176cc0a8984affc988e640f5eb069b552ae"}, "vout": 0, "txid": "b764ca9fd550d2a041161a395249d2f4cb68504075b052655eec0b33d1ee203f"}], "txid": "e288637299de2411eff4995627a42e450a93c4001a226dbec2ad3fca2b7c8dd4", "blocktime": 1537871767, "version": 2, "confirmations": 11491, "time": 1537871767, "locktime": 0, "vsize": 335, "size": 335}