{"hash": "84ef2413fa2786c55443a62ff513c1962649f87884c66208468280a328af9b96", "blockhash": "000000000000000000022b45ed06c6f4ccd3cf7fb5ba4856ebd2e58215665228", "vout": [{"scriptPubKey": {"reqSigs": 1, "hex": "76a914f7c4676e55a20540018065159abcbb0f3407d4a988ac", "addresses": ["1Pb5BmqwbJh5x9TLpFU6KRLYzuFBdzN77z"], "asm": "OP_DUP OP_HASH160 f7c4676e55a20540018065159abcbb0f3407d4a9 OP_EQUALVERIFY OP_CHECKSIG", "type": "pubkeyhash"}, "value": 0.00079009, "n": 0}, {"scriptPubKey": {"reqSigs": 1, "hex": "76a9140f2a6fffcae4045ff5b49490917b3bd18501068488ac", "addresses": ["12PByVDM89GYPk2tkMM9GQJbVoKsXTyGYY"], "asm": "OP_DUP OP_HASH160 0f2a6fffcae4045ff5b49490917b3bd185010684 OP_EQUALVERIFY OP_CHECKSIG", "type": "pubkeyhash"}, "value": 0.0082905, "n": 1}, {"scriptPubKey": {"reqSigs": 1, "hex": "a914cadacee3d90938404f4873a741da5d6189edb68c87", "addresses": ["3LBcYMKwKF5kc2JdWpkHBAk7G89ardRCbF"], "asm": "OP_HASH160 cadacee3d90938404f4873a741da5d6189edb68c OP_EQUAL", "type": "scripthash"}, "value": 0.20110926, "n": 2}], "hex": "0100000000010194448a4ae28b035310c78dab8abbc0c3c696226d31e54cc6bca4872500f7f7bd00000000171600142c0a0a4ed824f4debe0bfbe2d0ee23f4b51b2be2ffffffff03a1340100000000001976a914f7c4676e55a20540018065159abcbb0f3407d4a988ac7aa60c00000000001976a9140f2a6fffcae4045ff5b49490917b3bd18501068488ac4ede32010000000017a914cadacee3d90938404f4873a741da5d6189edb68c87024830450221009c977bc040f4ef5e8d563e380b2798278fafcaf8f572111d979f9ff1ebf9568d02207185f6263ad6424281822e15ce85f5dbf07d67a05a9b7e35c7da74870f1cf6fa01210282f81b8532293dfcd8d9e2a9379c79ad79f8b20aa7b5cb4f95fe6f902bf361b000000000", "vin": [{"txinwitness": ["30450221009c977bc040f4ef5e8d563e380b2798278fafcaf8f572111d979f9ff1ebf9568d02207185f6263ad6424281822e15ce85f5dbf07d67a05a9b7e35c7da74870f1cf6fa01", "0282f81b8532293dfcd8d9e2a9379c79ad79f8b20aa7b5cb4f95fe6f902bf361b0"], "sequence": 4294967295, "scriptSig": {"hex": "1600142c0a0a4ed824f4debe0bfbe2d0ee23f4b51b2be2", "asm": "00142c0a0a4ed824f4debe0bfbe2d0ee23f4b51b2be2"}, "vout": 0, "txid": "bdf7f7002587a4bcc64ce5316d2296c6c3c0bb8aab8dc71053038be24a8a4494"}], "txid": "e289791663b06163104c055820df73ea9d63f0a23103956eb93b3da1e48b2d9d", "blocktime": 1537869901, "version": 1, "confirmations": 11522, "time": 1537869901, "locktime": 0, "vsize": 202, "size": 284}