{"hash": "e28aa5b25b6e2546546ae601fbae94f2b3a756ddf356d07f25706f98644d8ac2", "blockhash": "0000000000000000001e0dab787dd257d1dbfcb92a98c2207d5e1078be1f4165", "vout": [{"scriptPubKey": {"reqSigs": 1, "hex": "76a914aca841338e5ff00b7d2929836ce2a13bec8a025f88ac", "addresses": ["1GjvnY5b2XjrkiVYC7wwxZrbC6enggoxkU"], "asm": "OP_DUP OP_HASH160 aca841338e5ff00b7d2929836ce2a13bec8a025f OP_EQUALVERIFY OP_CHECKSIG", "type": "pubkeyhash"}, "value": 0.02499723, "n": 0}, {"scriptPubKey": {"reqSigs": 1, "hex": "76a9146438611929060118ea682dd0559e0e906367360688ac", "addresses": ["1A8v7V7rpN5KFF94X2nFWBPBsecbUBbYpa"], "asm": "OP_DUP OP_HASH160 6438611929060118ea682dd0559e0e9063673606 OP_EQUALVERIFY OP_CHECKSIG", "type": "pubkeyhash"}, "value": 1.43620786, "n": 1}], "hex": "010000000191baae8373bb4fbe6f48fed008d404dea8292800f307e35d222107b8cd55f7e7010000006b483045022100cb7b5371ee3443db514feb945226116385a9325a8a3a636f4c876979527b25000220206b9ab9babca10980a3ad7754954547488b5277c6e96dafeb910287fec4a36e0121024610d836d662dded124c10c466f9be04c3ec0d4aeae25513d2fd1a49dac2196affffffff028b242600000000001976a914aca841338e5ff00b7d2929836ce2a13bec8a025f88acb27a8f08000000001976a9146438611929060118ea682dd0559e0e906367360688ac00000000", "vin": [{"sequence": 4294967295, "scriptSig": {"hex": "483045022100cb7b5371ee3443db514feb945226116385a9325a8a3a636f4c876979527b25000220206b9ab9babca10980a3ad7754954547488b5277c6e96dafeb910287fec4a36e0121024610d836d662dded124c10c466f9be04c3ec0d4aeae25513d2fd1a49dac2196a", "asm": "3045022100cb7b5371ee3443db514feb945226116385a9325a8a3a636f4c876979527b25000220206b9ab9babca10980a3ad7754954547488b5277c6e96dafeb910287fec4a36e[ALL] 024610d836d662dded124c10c466f9be04c3ec0d4aeae25513d2fd1a49dac2196a"}, "vout": 1, "txid": "e7f755cdb80721225de307f3002829a8de04d408d0fe486fbe4fbb7383aeba91"}], "txid": "e28aa5b25b6e2546546ae601fbae94f2b3a756ddf356d07f25706f98644d8ac2", "blocktime": 1537872475, "version": 1, "confirmations": 11487, "time": 1537872475, "locktime": 0, "vsize": 226, "size": 226}