{"hash": "e28fea74ca52292a893a7c57019e2a1419724a890c68b4b8dea740fafc332044", "blockhash": "0000000000000000001cda96e906b7601b7a6fb1a3b62bca570a9e5d8f4b3de1", "vout": [{"scriptPubKey": {"reqSigs": 1, "hex": "76a914f8661195e9bc31f22916565b2b28dacb4f55b8e288ac", "addresses": ["1PeQrS1GUq9DehMkmMUWrkTZEeFWxDsjJA"], "asm": "OP_DUP OP_HASH160 f8661195e9bc31f22916565b2b28dacb4f55b8e2 OP_EQUALVERIFY OP_CHECKSIG", "type": "pubkeyhash"}, "value": 0.00318922, "n": 0}, {"scriptPubKey": {"reqSigs": 1, "hex": "a914654be02cb615b63060e49bb7df4575ee34f462aa87", "addresses": ["3Avd4rTGGuxQwfcPXYCvMQmcZDmyf8Qryk"], "asm": "OP_HASH160 654be02cb615b63060e49bb7df4575ee34f462aa OP_EQUAL", "type": "scripthash"}, "value": 0.004606, "n": 1}], "hex": "0100000001a9d03548b47ef2d19c13063f07ca8278d23f36ea3e6564cf8cada650b3ca8fe6000000006b483045022100ed711e96a3506c558898ffceaefdb8eb602816581390d0de39300eb4753bb181022018a6fc90acbdd813589635cd30c8e15dd6255ff3b0fbd431bd2c71e801fe6ad901210321c53d4935e87d299326a3a200bbcdaff8b1c194ae882b3a9f54d1ce326cedd4ffffffff02cadd0400000000001976a914f8661195e9bc31f22916565b2b28dacb4f55b8e288ac380707000000000017a914654be02cb615b63060e49bb7df4575ee34f462aa8700000000", "vin": [{"sequence": 4294967295, "scriptSig": {"hex": "483045022100ed711e96a3506c558898ffceaefdb8eb602816581390d0de39300eb4753bb181022018a6fc90acbdd813589635cd30c8e15dd6255ff3b0fbd431bd2c71e801fe6ad901210321c53d4935e87d299326a3a200bbcdaff8b1c194ae882b3a9f54d1ce326cedd4", "asm": "3045022100ed711e96a3506c558898ffceaefdb8eb602816581390d0de39300eb4753bb181022018a6fc90acbdd813589635cd30c8e15dd6255ff3b0fbd431bd2c71e801fe6ad9[ALL] 0321c53d4935e87d299326a3a200bbcdaff8b1c194ae882b3a9f54d1ce326cedd4"}, "vout": 0, "txid": "e68fcab350a6ad8ccf64653eea363fd27882ca073f06139cd1f27eb44835d0a9"}], "txid": "e28fea74ca52292a893a7c57019e2a1419724a890c68b4b8dea740fafc332044", "blocktime": 1537873282, "version": 1, "confirmations": 11484, "time": 1537873282, "locktime": 0, "vsize": 224, "size": 224}