{"hash": "e2a22b572a6e7eff72723335dde6e39d828fb66af7e330ac655e6e063e394f01", "blockhash": "00000000000000000004ffacab907a6b429b9a5745fa0b75af4234bf69dd7176", "vout": [{"scriptPubKey": {"reqSigs": 1, "hex": "76a91454796250a6f54cddbabeb0cff6b0a2b5635c4a3088ac", "addresses": ["18hfB2Ss9YiLDrm7i2t3wwHoXekUW4EBu8"], "asm": "OP_DUP OP_HASH160 54796250a6f54cddbabeb0cff6b0a2b5635c4a30 OP_EQUALVERIFY OP_CHECKSIG", "type": "pubkeyhash"}, "value": 0.0001, "n": 0}, {"scriptPubKey": {"reqSigs": 1, "hex": "76a914476cb347972082d3be14e4b11a86546a5de0bd3e88ac", "addresses": ["17WfCFVwpxVaVrgwX9HHiHxduaDyLqkdD4"], "asm": "OP_DUP OP_HASH160 476cb347972082d3be14e4b11a86546a5de0bd3e OP_EQUALVERIFY OP_CHECKSIG", "type": "pubkeyhash"}, "value": 0.01048815, "n": 1}], "hex": "0100000003cb746169313ff442577033634eff5fd4dab5a3f2a35055677ef0f70185a0c4d8000000006b483045022100daf29d5161883a1f4298ce50172ab16495b15cd3cd74ff050f047aa8bea91dc802200a317350e6caed5ffa31eeec0f1862a9ce6a0ccff1fcca17ed82e230a2dc764e8121036643ff6ef3b0a73ab2f3adc451a6e80d89bfac0425ad709d89d9f85e023d951effffffff16e335e3574a5685b8fe099cc44128f3ac76fea95db7c1527d84dd2eaaf76a4d000000006a47304402207f4e6923546cec6c64b8e15c0cbf03d8620b5f5cb528891ab8a12cff2d6e1ed5022028d61879be502ad57619f507d2f3e0681aaeae60661522a11865fad8eb14ff078121036643ff6ef3b0a73ab2f3adc451a6e80d89bfac0425ad709d89d9f85e023d951effffffff1b6ff118b4bb85f5aed9eb4c040b1c0b4b1ece87ff14ed7ed75eeb746e0ba44a010000006a473044022068a02e3504763abd0328721f4163061fcb7d725bbe4a15f94aaec325e87c97a4022033e151fc4f628224cae70b4368e60d88c0f5b928431b5806b53c7987f3e73a0a8121036643ff6ef3b0a73ab2f3adc451a6e80d89bfac0425ad709d89d9f85e023d951effffffff0210270000000000001976a91454796250a6f54cddbabeb0cff6b0a2b5635c4a3088acef001000000000001976a914476cb347972082d3be14e4b11a86546a5de0bd3e88ac00000000", "vin": [{"sequence": 4294967295, "scriptSig": {"hex": "483045022100daf29d5161883a1f4298ce50172ab16495b15cd3cd74ff050f047aa8bea91dc802200a317350e6caed5ffa31eeec0f1862a9ce6a0ccff1fcca17ed82e230a2dc764e8121036643ff6ef3b0a73ab2f3adc451a6e80d89bfac0425ad709d89d9f85e023d951e", "asm": "3045022100daf29d5161883a1f4298ce50172ab16495b15cd3cd74ff050f047aa8bea91dc802200a317350e6caed5ffa31eeec0f1862a9ce6a0ccff1fcca17ed82e230a2dc764e[ALL|ANYONECANPAY] 036643ff6ef3b0a73ab2f3adc451a6e80d89bfac0425ad709d89d9f85e023d951e"}, "vout": 0, "txid": "d8c4a08501f7f07e675550a3f2a3b5dad45fff4e6333705742f43f31696174cb"}, {"sequence": 4294967295, "scriptSig": {"hex": "47304402207f4e6923546cec6c64b8e15c0cbf03d8620b5f5cb528891ab8a12cff2d6e1ed5022028d61879be502ad57619f507d2f3e0681aaeae60661522a11865fad8eb14ff078121036643ff6ef3b0a73ab2f3adc451a6e80d89bfac0425ad709d89d9f85e023d951e", "asm": "304402207f4e6923546cec6c64b8e15c0cbf03d8620b5f5cb528891ab8a12cff2d6e1ed5022028d61879be502ad57619f507d2f3e0681aaeae60661522a11865fad8eb14ff07[ALL|ANYONECANPAY] 036643ff6ef3b0a73ab2f3adc451a6e80d89bfac0425ad709d89d9f85e023d951e"}, "vout": 0, "txid": "4d6af7aa2edd847d52c1b75da9fe76acf32841c49c09feb885564a57e335e316"}, {"sequence": 4294967295, "scriptSig": {"hex": "473044022068a02e3504763abd0328721f4163061fcb7d725bbe4a15f94aaec325e87c97a4022033e151fc4f628224cae70b4368e60d88c0f5b928431b5806b53c7987f3e73a0a8121036643ff6ef3b0a73ab2f3adc451a6e80d89bfac0425ad709d89d9f85e023d951e", "asm": "3044022068a02e3504763abd0328721f4163061fcb7d725bbe4a15f94aaec325e87c97a4022033e151fc4f628224cae70b4368e60d88c0f5b928431b5806b53c7987f3e73a0a[ALL|ANYONECANPAY] 036643ff6ef3b0a73ab2f3adc451a6e80d89bfac0425ad709d89d9f85e023d951e"}, "vout": 1, "txid": "4aa40b6e74eb5ed77eed14ff87ce1e4b0b1c0b044cebd9aef585bbb418f16f1b"}], "txid": "e2a22b572a6e7eff72723335dde6e39d828fb66af7e330ac655e6e063e394f01", "blocktime": 1537875543, "version": 1, "confirmations": 11464, "time": 1537875543, "locktime": 0, "vsize": 520, "size": 520}