{"hash": "e2a703fbcd1833ecba939a80f6a9566dac74dce065043a58ab3a3ea88724e627", "blockhash": "0000000000000000000e13cef7c366c0283d82e591d1acd082e914b08063cdf1", "vout": [{"scriptPubKey": {"reqSigs": 1, "hex": "76a91413d52652995fe213a635e57033dfe6e90ce588ac88ac", "addresses": ["12osBYdo5U72NRg6jnHKJpFe6EQq5yywjG"], "asm": "OP_DUP OP_HASH160 13d52652995fe213a635e57033dfe6e90ce588ac OP_EQUALVERIFY OP_CHECKSIG", "type": "pubkeyhash"}, "value": 1.26, "n": 0}, {"scriptPubKey": {"reqSigs": 1, "hex": "76a914900369b02a0bd8fcc995ac297d63abae3bf836ae88ac", "addresses": ["1E8UPkdGPkPaF4bNZQfnFsAgjakwQxvw4a"], "asm": "OP_DUP OP_HASH160 900369b02a0bd8fcc995ac297d63abae3bf836ae OP_EQUALVERIFY OP_CHECKSIG", "type": "pubkeyhash"}, "value": 0.5, "n": 1}, {"scriptPubKey": {"reqSigs": 1, "hex": "a914cc0b74bc7833d39b654cec1f204431dc3571e37d87", "addresses": ["3LHuVetUmywoXFyjcyBSZEXMFFrDiwnMbL"], "asm": "OP_HASH160 cc0b74bc7833d39b654cec1f204431dc3571e37d OP_EQUAL", "type": "scripthash"}, "value": 0.524, "n": 2}, {"scriptPubKey": {"reqSigs": 1, "hex": "76a9147a8859fc2aa22ede6ed21663868080917790ede788ac", "addresses": ["1CAtnGmfVAbWnZ7BFHhSvH1djnV6e5QAY6"], "asm": "OP_DUP OP_HASH160 7a8859fc2aa22ede6ed21663868080917790ede7 OP_EQUALVERIFY OP_CHECKSIG", "type": "pubkeyhash"}, "value": 1.281, "n": 3}, {"scriptPubKey": {"reqSigs": 1, "hex": "a9142eaf45cf3c1ea05bdcad72f8fb43490e6862b75e87", "addresses": ["35wryXb5X39b6iVsqRDCz8saz1ZnrzWLtV"], "asm": "OP_HASH160 2eaf45cf3c1ea05bdcad72f8fb43490e6862b75e OP_EQUAL", "type": "scripthash"}, "value": 0.97692767, "n": 4}], "hex": "010000000c15c52b13d6d20ab3ebbfa22ec4fecb7bff0e1aa1a6ae07e69d9f0fe72f339ae883050000fdfd0000483045022100df363557b83a52b3540e331f176a9e9ede78d497880a3b94baea32b28983063e02202dfff8ff0981de685f9b5676f61c1a9c5729e84fcd14aea15e4c80832ef00c840147304402202ed8c46592dbaf6099581a01dfacc6ac9c2d321dca79869e3d8dece29bb64910022058ece2f4e1944ab1ccf5d5a1b645e08eed85376128b435ea5592f053393819f6014c69522103d3d6abb757c45ce5558a652c9133c36fcb57413059cbbb19aebf2d17c08b693d2102e5756a5d0e8a5939544d5f653101b4fcb571f5d139a6e2bb6b47e28e905f32f72102f8ee46b373f24a4dc7a9455009266d7c45c5dba7ec760efad9da74ca5373a48153aeffffffffc26c7e51f329fe681a5d712dace25ec3e060ffd881c8354fc8f684375c3db0c3e7010000fdfd0000483045022100913dc140dc03be82eacf74d027504f130c3d260adf92db9b483759840e89dc9a02200d9b7c9b85015202f033dd0ae1c034a18cc29faf3fff2077a11e6c68253a3dbc014730440220151dd83fe0942702b9b265b6759c29d0138878737af5fe2338dc48d68a67dde702206bea9fd9eb77326c8d5d11945dcf0035ab78adc6406bb9af13604583882f918f014c69522103f8552956d27c914190d0c58bad5b9958a41a7a856f6c2b76070f522ed33a9cae21026f9d65a01cc6837b06fe259daa36b6280b38ecf3e2f93610c5b7ced434d0cdfc21025820c2f1ebc28548c65dc4432fab453dbd358cfe35c26cf2ea82b8202af06fa553aeffffffff9ed12308acc390eb5c390c36e6384e49cb71f33b4861efe3cb89286a29674aeec0000000fdfd0000483045022100f5ea7a3610b55ff7a187cd1762e64158cb3097888ec4be9510d84cfe386159b902203b2bfddecab6b920cf37ce56c036c80a872fa56f36e3b6f3934c4a08f86f71d40147304402206857cbfc6ba0ed43a94339c727c67667848730ba654e6b74a9ac55fa9bd177cc02201028ed18cb2699e575a17c943ca2dcedfe9e885bf2cf7b71a2f4d13980ce51b1014c695221035e42977ccf7e17984cf1787ba9f7a26521582a11a11506ab7e1a39a72b3c3ddf210262c75607f8135128873482d4a55f1d319c4d7f9a003d890106180fb6185d8c852102781de028800750602736e875d82bab0b96d9a461b20692d732c7f59cbfcd041553aeffffffff44959a3f831551f8db6764f92a12daa2ba94cb07450ada889809449cd0058071d9020000fdfd0000483045022100fc2f480ab4cdbe7061c1651347fe3582233417449cdb649086bae1d78e5c0b8b0220097007ba07df1d5be15ace5f2f3f7a467a809336ae176d84e136c315bcb9f32a01473044022012bf8565679fcc0b87cc1068494abf4fc4493e3d4812ce1b0e61908eccd5d890022077c3526b406c09e4b18c5a57ae885ddafc3a9bb2cc288bded11d5140d8b372db014c6952210328f86e2d8f4938754c3e08560683c7b1668ed09327d3e52bd51a9f59c08e682e2103a5f9122fbd92e2b1b96222fdb771a9804b15ed0925f9635e45a91296b0aeb1542102b8ad3e8760ec4135060a913b8ab4cf4a77af33d6a56db5c2add821e6d5d10ad053aeffffffff9ed12308acc390eb5c390c36e6384e49cb71f33b4861efe3cb89286a29674aeec8000000fdfd00004830450221009ce2c46a68857c5581ede8011be303558a2c3ce3677e4ffd4efa84533de2cf52022025bd8243d1284f294a321299a45f34a2b9ac8cfa93703ce646f50ba3a0edac9601473044022050dce7176a0d9cf56e71237d5a457cf27331d3d075a10b05784c8b2e940bcb1a02206eafc5148d3576fa25d35287edfed6f69a4e72a5e8a7e717a39de76c9bd45350014c69522103c468b6831614c27113682ac5ab7ba1d1860de95ae6b552183a5e55939fa7b1572103af387b430e2edd0ff639218605b37c51e93ff9552ce1f40b0c85fb86388bc28b21022e41feea0cd7449fabede954c14bd6a42e4be29a17dafae85e2f9c8a9c455dad53aeffffffff4c43118428f108eaea6bca70ee59b940ed3f2dd86c9be9d33733f4f4f155da6c00000000fdfd0000483045022100d88ebb23b46617cbdb3616b949f98f2d3bfc226a38cc9d32a8509df7aa8d858d02203da68ec14ed9c1193d037d8123a35be809fa4d8ba0d18d71e7a44dafbb68cd7b014730440220335fa8b1fc22934da19216cebe3dbccf32e9da2a333bd3ed1c902d3d53447aab022047e82999fa458b8275238fb86507e8e2277d270f903f93ee55ab322fe6fae9f7014c6952210249dd8752af4a4e9b6bdd4d5aca8e23d70893b9c225ace7fd3170358da8c4f8162103f3b6e42290a637a29c6ad44ff210d78c08e74bb382d496b8c2331f2c85dcde6f210398233b7d6c6d723c5310db13e812d42565e1fe7a39df86c486069ee9a636223e53aeffffffff80665014a79a09ee9fc4b223d86001180ae827214c097ebb24cc9af2b5e951a901000000fdfd0000483045022100d0e580187ba2bad9a702e355c2af27a1aa8523ab34a6f549d963a9d6eb1d77b402203894bb2a577d8bae635ae58098c7071b5ae21efa31d98438dee0ea35d989595801473044022031180752cb32c0ac31ac83e76a657b0c833ec8df89f50496265f0362d6a2105102204d4fb5808f1c3ede97adab37b0dbb529d635739449fb94425b330e7612e596b9014c6952210318278d6a927c1256349a5ecd6519ec64ee009e0ca2ebfc4d9c6feb440f14d54321026c3e361bb620b875d3611c13a3014b336d4d8682bbc287879c1f3f608d836e302103ece9422b37a0fbaed36270ac0ef6365bcb384ff997fedde2ceb46bbbfe9ba66153aeffffffffe1c998e1963d604e2b80b752a8a2f2fb803d31a1ce15d12c67bb90bffa3972cf03000000fdfd0000483045022100a7e69c84a522cae796624804f08057bed83a3d9fce8306937c04b15ee4a2628402202509ccdb8833b1ece74de9c5a04187a7df187637999ea80c4dd14d310c9bf646014730440220554fbaeaf872f3ad3179a5d02d2a92d9d84e02efda417fe8cab5051cb7c0ccfb02207fb8b0d396459cab58df5cd550bc0ac0c50e3ce98563da630c26e2651bfc736a014c6952210393f2c350a042018ae33748565638abe641ea596cb1257c20aac9aa1b6e3627e42103a5fbcf8e61e47fc5dacdaa4428304c34cd8d65095c62b8f7596794262534d7c1210201477b84d7fb53b80cee1b082c724ef09769eba7d1a23d5a8efed9ae89c840ca53aeffffffff1fc4b3ffa591e45b1fce7811afd0af9e54a3d7c4ba854ce52f365be219c54ab100000000fc0047304402207e6497e77851122ba252ee50ddb97f81bd2c95672fc7fbe30e0ed9d67ad33c4b022005aee0cbb13b7e69fe75ae9a2e68b826abe18af8a8dd60449d29ba5f623705800147304402202472c200d6f9c7a0115a1d854481c8b713d13f036e7361190f4257cdaae469a0022031b8f350a550cc439b130fcfbf0b961867d131406896b9d0abad06ce830188b7014c69522102f52ced1e93be7fb565c8920a7edddac686f972461422c021d6802d72eabdf8a521027be1a10fc460555a4eecb7451cdde89ef671cbf861a1ae43021a8b7680e491ea21038ed955de6e5d3fcf4dbdef81c6f8f03224123d4649df53d3d3bf34bcfdd5a50953aeffffffff4f8f239e1c218ec6cdde23c275677bf8a7ca67adb2a3b439bf1b33ebdabfd11d00000000fc0047304402205226ee8ea60534fbe4bab064f16a1175ce70e10086d7f3f0822796a51410c0f402206a53ec4a42ff2a38f2107aa009af2f4fc483f012606ae33ab667a9c7941e5d8d01473044022023dd04f828a26ad9ca4cecf96aa308e96d4c526a881cf1909f7bea6b71627c150220137c8fee51dac8ad264a7ae00afedec28eebbcab99621ac89627ddc87c46447d014c6952210246ccf4de0c54cc7f3354cdd993c2c50cf965fd82238b89659fbd73a1b4bf05a121024fc59f72272a897fe43803374969f396058152fe4765a8d15216f94624257b1b21022593bc69ecbf3bbcc3c58082267cb49dadaf4ca8dbf1b2297338a9d628c4297653aeffffffff08549a353854ed795d8bec11151fb2e295f7181a7e2eb8176ba0c34c1afac90900000000fdfe000048304502210087f60b763ffffbbadac961d385b27e718ddeff5e3daa8defff4918ae0cca0b04022022a0a1a307a4127e92f01e9f1ac02b6e9981e7714f723003a879cfe038c6b85401483045022100f69d48c93653701fc07f90286e67d933b108bac3595e13249e762f5ac1a7d7e402200ca575ffc1bf9c1b22f97ef37b8e71260bed2adf8882a8b07b3d4bb36dfcf3a4014c6952210246ccf4de0c54cc7f3354cdd993c2c50cf965fd82238b89659fbd73a1b4bf05a121024fc59f72272a897fe43803374969f396058152fe4765a8d15216f94624257b1b21022593bc69ecbf3bbcc3c58082267cb49dadaf4ca8dbf1b2297338a9d628c4297653aeffffffff56e0e133c05ba8a520a70c842e7915a4161edbe62e809b24f90d3fcde39da20900000000fdfd0000483045022100ef1628823d67596dd9d54c2b8e36af054f237fdcff806820af17b76da3324cdf022026739c7dd6681393b3eba42b56cce31c25af3b4f61015572dc482e5491051b750147304402206562641e461129310408075c563eca6ff2b177ee514d7dabcc96f1155ca29c7b022061d40ac26d3e1a186997f2913fd019f4478c908453265eea25c1caaeba542d7c014c69522103eb71c2cab823ffd8e16add77346c86e59c9610cc9e347fc03d98b50f829e538121028980c14ae2f7e74a8e8535f39ccca66ee6d1a67b4e4298e797cf3e11bf2619022102913ea88fdc29c4e79c1276de788a58cdab4fa635a17d2a4270791899cf81db9453aeffffffff05809b8207000000001976a91413d52652995fe213a635e57033dfe6e90ce588ac88ac80f0fa02000000001976a914900369b02a0bd8fcc995ac297d63abae3bf836ae88ac808f1f030000000017a914cc0b74bc7833d39b654cec1f204431dc3571e37d87a0a6a207000000001976a9147a8859fc2aa22ede6ed21663868080917790ede788ac5facd2050000000017a9142eaf45cf3c1ea05bdcad72f8fb43490e6862b75e8700000000", "vin": [{"sequence": 4294967295, "scriptSig": {"hex": "00483045022100df363557b83a52b3540e331f176a9e9ede78d497880a3b94baea32b28983063e02202dfff8ff0981de685f9b5676f61c1a9c5729e84fcd14aea15e4c80832ef00c840147304402202ed8c46592dbaf6099581a01dfacc6ac9c2d321dca79869e3d8dece29bb64910022058ece2f4e1944ab1ccf5d5a1b645e08eed85376128b435ea5592f053393819f6014c69522103d3d6abb757c45ce5558a652c9133c36fcb57413059cbbb19aebf2d17c08b693d2102e5756a5d0e8a5939544d5f653101b4fcb571f5d139a6e2bb6b47e28e905f32f72102f8ee46b373f24a4dc7a9455009266d7c45c5dba7ec760efad9da74ca5373a48153ae", "asm": "0 3045022100df363557b83a52b3540e331f176a9e9ede78d497880a3b94baea32b28983063e02202dfff8ff0981de685f9b5676f61c1a9c5729e84fcd14aea15e4c80832ef00c84[ALL] 304402202ed8c46592dbaf6099581a01dfacc6ac9c2d321dca79869e3d8dece29bb64910022058ece2f4e1944ab1ccf5d5a1b645e08eed85376128b435ea5592f053393819f6[ALL] 522103d3d6abb757c45ce5558a652c9133c36fcb57413059cbbb19aebf2d17c08b693d2102e5756a5d0e8a5939544d5f653101b4fcb571f5d139a6e2bb6b47e28e905f32f72102f8ee46b373f24a4dc7a9455009266d7c45c5dba7ec760efad9da74ca5373a48153ae"}, "vout": 1411, "txid": "e89a332fe70f9f9de607aea6a11a0eff7bcbfec42ea2bfebb30ad2d6132bc515"}, {"sequence": 4294967295, "scriptSig": {"hex": "00483045022100913dc140dc03be82eacf74d027504f130c3d260adf92db9b483759840e89dc9a02200d9b7c9b85015202f033dd0ae1c034a18cc29faf3fff2077a11e6c68253a3dbc014730440220151dd83fe0942702b9b265b6759c29d0138878737af5fe2338dc48d68a67dde702206bea9fd9eb77326c8d5d11945dcf0035ab78adc6406bb9af13604583882f918f014c69522103f8552956d27c914190d0c58bad5b9958a41a7a856f6c2b76070f522ed33a9cae21026f9d65a01cc6837b06fe259daa36b6280b38ecf3e2f93610c5b7ced434d0cdfc21025820c2f1ebc28548c65dc4432fab453dbd358cfe35c26cf2ea82b8202af06fa553ae", "asm": "0 3045022100913dc140dc03be82eacf74d027504f130c3d260adf92db9b483759840e89dc9a02200d9b7c9b85015202f033dd0ae1c034a18cc29faf3fff2077a11e6c68253a3dbc[ALL] 30440220151dd83fe0942702b9b265b6759c29d0138878737af5fe2338dc48d68a67dde702206bea9fd9eb77326c8d5d11945dcf0035ab78adc6406bb9af13604583882f918f[ALL] 522103f8552956d27c914190d0c58bad5b9958a41a7a856f6c2b76070f522ed33a9cae21026f9d65a01cc6837b06fe259daa36b6280b38ecf3e2f93610c5b7ced434d0cdfc21025820c2f1ebc28548c65dc4432fab453dbd358cfe35c26cf2ea82b8202af06fa553ae"}, "vout": 487, "txid": "c3b03d5c3784f6c84f35c881d8ff60e0c35ee2ac2d715d1a68fe29f3517e6cc2"}, {"sequence": 4294967295, "scriptSig": {"hex": "00483045022100f5ea7a3610b55ff7a187cd1762e64158cb3097888ec4be9510d84cfe386159b902203b2bfddecab6b920cf37ce56c036c80a872fa56f36e3b6f3934c4a08f86f71d40147304402206857cbfc6ba0ed43a94339c727c67667848730ba654e6b74a9ac55fa9bd177cc02201028ed18cb2699e575a17c943ca2dcedfe9e885bf2cf7b71a2f4d13980ce51b1014c695221035e42977ccf7e17984cf1787ba9f7a26521582a11a11506ab7e1a39a72b3c3ddf210262c75607f8135128873482d4a55f1d319c4d7f9a003d890106180fb6185d8c852102781de028800750602736e875d82bab0b96d9a461b20692d732c7f59cbfcd041553ae", "asm": "0 3045022100f5ea7a3610b55ff7a187cd1762e64158cb3097888ec4be9510d84cfe386159b902203b2bfddecab6b920cf37ce56c036c80a872fa56f36e3b6f3934c4a08f86f71d4[ALL] 304402206857cbfc6ba0ed43a94339c727c67667848730ba654e6b74a9ac55fa9bd177cc02201028ed18cb2699e575a17c943ca2dcedfe9e885bf2cf7b71a2f4d13980ce51b1[ALL] 5221035e42977ccf7e17984cf1787ba9f7a26521582a11a11506ab7e1a39a72b3c3ddf210262c75607f8135128873482d4a55f1d319c4d7f9a003d890106180fb6185d8c852102781de028800750602736e875d82bab0b96d9a461b20692d732c7f59cbfcd041553ae"}, "vout": 192, "txid": "ee4a67296a2889cbe3ef61483bf371cb494e38e6360c395ceb90c3ac0823d19e"}, {"sequence": 4294967295, "scriptSig": {"hex": "00483045022100fc2f480ab4cdbe7061c1651347fe3582233417449cdb649086bae1d78e5c0b8b0220097007ba07df1d5be15ace5f2f3f7a467a809336ae176d84e136c315bcb9f32a01473044022012bf8565679fcc0b87cc1068494abf4fc4493e3d4812ce1b0e61908eccd5d890022077c3526b406c09e4b18c5a57ae885ddafc3a9bb2cc288bded11d5140d8b372db014c6952210328f86e2d8f4938754c3e08560683c7b1668ed09327d3e52bd51a9f59c08e682e2103a5f9122fbd92e2b1b96222fdb771a9804b15ed0925f9635e45a91296b0aeb1542102b8ad3e8760ec4135060a913b8ab4cf4a77af33d6a56db5c2add821e6d5d10ad053ae", "asm": "0 3045022100fc2f480ab4cdbe7061c1651347fe3582233417449cdb649086bae1d78e5c0b8b0220097007ba07df1d5be15ace5f2f3f7a467a809336ae176d84e136c315bcb9f32a[ALL] 3044022012bf8565679fcc0b87cc1068494abf4fc4493e3d4812ce1b0e61908eccd5d890022077c3526b406c09e4b18c5a57ae885ddafc3a9bb2cc288bded11d5140d8b372db[ALL] 52210328f86e2d8f4938754c3e08560683c7b1668ed09327d3e52bd51a9f59c08e682e2103a5f9122fbd92e2b1b96222fdb771a9804b15ed0925f9635e45a91296b0aeb1542102b8ad3e8760ec4135060a913b8ab4cf4a77af33d6a56db5c2add821e6d5d10ad053ae"}, "vout": 729, "txid": "718005d09c44099888da0a4507cb94baa2da122af96467dbf85115833f9a9544"}, {"sequence": 4294967295, "scriptSig": {"hex": "004830450221009ce2c46a68857c5581ede8011be303558a2c3ce3677e4ffd4efa84533de2cf52022025bd8243d1284f294a321299a45f34a2b9ac8cfa93703ce646f50ba3a0edac9601473044022050dce7176a0d9cf56e71237d5a457cf27331d3d075a10b05784c8b2e940bcb1a02206eafc5148d3576fa25d35287edfed6f69a4e72a5e8a7e717a39de76c9bd45350014c69522103c468b6831614c27113682ac5ab7ba1d1860de95ae6b552183a5e55939fa7b1572103af387b430e2edd0ff639218605b37c51e93ff9552ce1f40b0c85fb86388bc28b21022e41feea0cd7449fabede954c14bd6a42e4be29a17dafae85e2f9c8a9c455dad53ae", "asm": "0 30450221009ce2c46a68857c5581ede8011be303558a2c3ce3677e4ffd4efa84533de2cf52022025bd8243d1284f294a321299a45f34a2b9ac8cfa93703ce646f50ba3a0edac96[ALL] 3044022050dce7176a0d9cf56e71237d5a457cf27331d3d075a10b05784c8b2e940bcb1a02206eafc5148d3576fa25d35287edfed6f69a4e72a5e8a7e717a39de76c9bd45350[ALL] 522103c468b6831614c27113682ac5ab7ba1d1860de95ae6b552183a5e55939fa7b1572103af387b430e2edd0ff639218605b37c51e93ff9552ce1f40b0c85fb86388bc28b21022e41feea0cd7449fabede954c14bd6a42e4be29a17dafae85e2f9c8a9c455dad53ae"}, "vout": 200, "txid": "ee4a67296a2889cbe3ef61483bf371cb494e38e6360c395ceb90c3ac0823d19e"}, {"sequence": 4294967295, "scriptSig": {"hex": "00483045022100d88ebb23b46617cbdb3616b949f98f2d3bfc226a38cc9d32a8509df7aa8d858d02203da68ec14ed9c1193d037d8123a35be809fa4d8ba0d18d71e7a44dafbb68cd7b014730440220335fa8b1fc22934da19216cebe3dbccf32e9da2a333bd3ed1c902d3d53447aab022047e82999fa458b8275238fb86507e8e2277d270f903f93ee55ab322fe6fae9f7014c6952210249dd8752af4a4e9b6bdd4d5aca8e23d70893b9c225ace7fd3170358da8c4f8162103f3b6e42290a637a29c6ad44ff210d78c08e74bb382d496b8c2331f2c85dcde6f210398233b7d6c6d723c5310db13e812d42565e1fe7a39df86c486069ee9a636223e53ae", "asm": "0 3045022100d88ebb23b46617cbdb3616b949f98f2d3bfc226a38cc9d32a8509df7aa8d858d02203da68ec14ed9c1193d037d8123a35be809fa4d8ba0d18d71e7a44dafbb68cd7b[ALL] 30440220335fa8b1fc22934da19216cebe3dbccf32e9da2a333bd3ed1c902d3d53447aab022047e82999fa458b8275238fb86507e8e2277d270f903f93ee55ab322fe6fae9f7[ALL] 52210249dd8752af4a4e9b6bdd4d5aca8e23d70893b9c225ace7fd3170358da8c4f8162103f3b6e42290a637a29c6ad44ff210d78c08e74bb382d496b8c2331f2c85dcde6f210398233b7d6c6d723c5310db13e812d42565e1fe7a39df86c486069ee9a636223e53ae"}, "vout": 0, "txid": "6cda55f1f4f43337d3e99b6cd82d3fed40b959ee70ca6beaea08f1288411434c"}, {"sequence": 4294967295, "scriptSig": {"hex": "00483045022100d0e580187ba2bad9a702e355c2af27a1aa8523ab34a6f549d963a9d6eb1d77b402203894bb2a577d8bae635ae58098c7071b5ae21efa31d98438dee0ea35d989595801473044022031180752cb32c0ac31ac83e76a657b0c833ec8df89f50496265f0362d6a2105102204d4fb5808f1c3ede97adab37b0dbb529d635739449fb94425b330e7612e596b9014c6952210318278d6a927c1256349a5ecd6519ec64ee009e0ca2ebfc4d9c6feb440f14d54321026c3e361bb620b875d3611c13a3014b336d4d8682bbc287879c1f3f608d836e302103ece9422b37a0fbaed36270ac0ef6365bcb384ff997fedde2ceb46bbbfe9ba66153ae", "asm": "0 3045022100d0e580187ba2bad9a702e355c2af27a1aa8523ab34a6f549d963a9d6eb1d77b402203894bb2a577d8bae635ae58098c7071b5ae21efa31d98438dee0ea35d9895958[ALL] 3044022031180752cb32c0ac31ac83e76a657b0c833ec8df89f50496265f0362d6a2105102204d4fb5808f1c3ede97adab37b0dbb529d635739449fb94425b330e7612e596b9[ALL] 52210318278d6a927c1256349a5ecd6519ec64ee009e0ca2ebfc4d9c6feb440f14d54321026c3e361bb620b875d3611c13a3014b336d4d8682bbc287879c1f3f608d836e302103ece9422b37a0fbaed36270ac0ef6365bcb384ff997fedde2ceb46bbbfe9ba66153ae"}, "vout": 1, "txid": "a951e9b5f29acc24bb7e094c2127e80a180160d823b2c49fee099aa714506680"}, {"sequence": 4294967295, "scriptSig": {"hex": "00483045022100a7e69c84a522cae796624804f08057bed83a3d9fce8306937c04b15ee4a2628402202509ccdb8833b1ece74de9c5a04187a7df187637999ea80c4dd14d310c9bf646014730440220554fbaeaf872f3ad3179a5d02d2a92d9d84e02efda417fe8cab5051cb7c0ccfb02207fb8b0d396459cab58df5cd550bc0ac0c50e3ce98563da630c26e2651bfc736a014c6952210393f2c350a042018ae33748565638abe641ea596cb1257c20aac9aa1b6e3627e42103a5fbcf8e61e47fc5dacdaa4428304c34cd8d65095c62b8f7596794262534d7c1210201477b84d7fb53b80cee1b082c724ef09769eba7d1a23d5a8efed9ae89c840ca53ae", "asm": "0 3045022100a7e69c84a522cae796624804f08057bed83a3d9fce8306937c04b15ee4a2628402202509ccdb8833b1ece74de9c5a04187a7df187637999ea80c4dd14d310c9bf646[ALL] 30440220554fbaeaf872f3ad3179a5d02d2a92d9d84e02efda417fe8cab5051cb7c0ccfb02207fb8b0d396459cab58df5cd550bc0ac0c50e3ce98563da630c26e2651bfc736a[ALL] 52210393f2c350a042018ae33748565638abe641ea596cb1257c20aac9aa1b6e3627e42103a5fbcf8e61e47fc5dacdaa4428304c34cd8d65095c62b8f7596794262534d7c1210201477b84d7fb53b80cee1b082c724ef09769eba7d1a23d5a8efed9ae89c840ca53ae"}, "vout": 3, "txid": "cf7239fabf90bb672cd115cea1313d80fbf2a2a852b7802b4e603d96e198c9e1"}, {"sequence": 4294967295, "scriptSig": {"hex": "0047304402207e6497e77851122ba252ee50ddb97f81bd2c95672fc7fbe30e0ed9d67ad33c4b022005aee0cbb13b7e69fe75ae9a2e68b826abe18af8a8dd60449d29ba5f623705800147304402202472c200d6f9c7a0115a1d854481c8b713d13f036e7361190f4257cdaae469a0022031b8f350a550cc439b130fcfbf0b961867d131406896b9d0abad06ce830188b7014c69522102f52ced1e93be7fb565c8920a7edddac686f972461422c021d6802d72eabdf8a521027be1a10fc460555a4eecb7451cdde89ef671cbf861a1ae43021a8b7680e491ea21038ed955de6e5d3fcf4dbdef81c6f8f03224123d4649df53d3d3bf34bcfdd5a50953ae", "asm": "0 304402207e6497e77851122ba252ee50ddb97f81bd2c95672fc7fbe30e0ed9d67ad33c4b022005aee0cbb13b7e69fe75ae9a2e68b826abe18af8a8dd60449d29ba5f62370580[ALL] 304402202472c200d6f9c7a0115a1d854481c8b713d13f036e7361190f4257cdaae469a0022031b8f350a550cc439b130fcfbf0b961867d131406896b9d0abad06ce830188b7[ALL] 522102f52ced1e93be7fb565c8920a7edddac686f972461422c021d6802d72eabdf8a521027be1a10fc460555a4eecb7451cdde89ef671cbf861a1ae43021a8b7680e491ea21038ed955de6e5d3fcf4dbdef81c6f8f03224123d4649df53d3d3bf34bcfdd5a50953ae"}, "vout": 0, "txid": "b14ac519e25b362fe54c85bac4d7a3549eafd0af1178ce1f5be491a5ffb3c41f"}, {"sequence": 4294967295, "scriptSig": {"hex": "0047304402205226ee8ea60534fbe4bab064f16a1175ce70e10086d7f3f0822796a51410c0f402206a53ec4a42ff2a38f2107aa009af2f4fc483f012606ae33ab667a9c7941e5d8d01473044022023dd04f828a26ad9ca4cecf96aa308e96d4c526a881cf1909f7bea6b71627c150220137c8fee51dac8ad264a7ae00afedec28eebbcab99621ac89627ddc87c46447d014c6952210246ccf4de0c54cc7f3354cdd993c2c50cf965fd82238b89659fbd73a1b4bf05a121024fc59f72272a897fe43803374969f396058152fe4765a8d15216f94624257b1b21022593bc69ecbf3bbcc3c58082267cb49dadaf4ca8dbf1b2297338a9d628c4297653ae", "asm": "0 304402205226ee8ea60534fbe4bab064f16a1175ce70e10086d7f3f0822796a51410c0f402206a53ec4a42ff2a38f2107aa009af2f4fc483f012606ae33ab667a9c7941e5d8d[ALL] 3044022023dd04f828a26ad9ca4cecf96aa308e96d4c526a881cf1909f7bea6b71627c150220137c8fee51dac8ad264a7ae00afedec28eebbcab99621ac89627ddc87c46447d[ALL] 52210246ccf4de0c54cc7f3354cdd993c2c50cf965fd82238b89659fbd73a1b4bf05a121024fc59f72272a897fe43803374969f396058152fe4765a8d15216f94624257b1b21022593bc69ecbf3bbcc3c58082267cb49dadaf4ca8dbf1b2297338a9d628c4297653ae"}, "vout": 0, "txid": "1dd1bfdaeb331bbf39b4a3b2ad67caa7f87b6775c223decdc68e211c9e238f4f"}, {"sequence": 4294967295, "scriptSig": {"hex": "0048304502210087f60b763ffffbbadac961d385b27e718ddeff5e3daa8defff4918ae0cca0b04022022a0a1a307a4127e92f01e9f1ac02b6e9981e7714f723003a879cfe038c6b85401483045022100f69d48c93653701fc07f90286e67d933b108bac3595e13249e762f5ac1a7d7e402200ca575ffc1bf9c1b22f97ef37b8e71260bed2adf8882a8b07b3d4bb36dfcf3a4014c6952210246ccf4de0c54cc7f3354cdd993c2c50cf965fd82238b89659fbd73a1b4bf05a121024fc59f72272a897fe43803374969f396058152fe4765a8d15216f94624257b1b21022593bc69ecbf3bbcc3c58082267cb49dadaf4ca8dbf1b2297338a9d628c4297653ae", "asm": "0 304502210087f60b763ffffbbadac961d385b27e718ddeff5e3daa8defff4918ae0cca0b04022022a0a1a307a4127e92f01e9f1ac02b6e9981e7714f723003a879cfe038c6b854[ALL] 3045022100f69d48c93653701fc07f90286e67d933b108bac3595e13249e762f5ac1a7d7e402200ca575ffc1bf9c1b22f97ef37b8e71260bed2adf8882a8b07b3d4bb36dfcf3a4[ALL] 52210246ccf4de0c54cc7f3354cdd993c2c50cf965fd82238b89659fbd73a1b4bf05a121024fc59f72272a897fe43803374969f396058152fe4765a8d15216f94624257b1b21022593bc69ecbf3bbcc3c58082267cb49dadaf4ca8dbf1b2297338a9d628c4297653ae"}, "vout": 0, "txid": "09c9fa1a4cc3a06b17b82e7e1a18f795e2b21f1511ec8b5d79ed5438359a5408"}, {"sequence": 4294967295, "scriptSig": {"hex": "00483045022100ef1628823d67596dd9d54c2b8e36af054f237fdcff806820af17b76da3324cdf022026739c7dd6681393b3eba42b56cce31c25af3b4f61015572dc482e5491051b750147304402206562641e461129310408075c563eca6ff2b177ee514d7dabcc96f1155ca29c7b022061d40ac26d3e1a186997f2913fd019f4478c908453265eea25c1caaeba542d7c014c69522103eb71c2cab823ffd8e16add77346c86e59c9610cc9e347fc03d98b50f829e538121028980c14ae2f7e74a8e8535f39ccca66ee6d1a67b4e4298e797cf3e11bf2619022102913ea88fdc29c4e79c1276de788a58cdab4fa635a17d2a4270791899cf81db9453ae", "asm": "0 3045022100ef1628823d67596dd9d54c2b8e36af054f237fdcff806820af17b76da3324cdf022026739c7dd6681393b3eba42b56cce31c25af3b4f61015572dc482e5491051b75[ALL] 304402206562641e461129310408075c563eca6ff2b177ee514d7dabcc96f1155ca29c7b022061d40ac26d3e1a186997f2913fd019f4478c908453265eea25c1caaeba542d7c[ALL] 522103eb71c2cab823ffd8e16add77346c86e59c9610cc9e347fc03d98b50f829e538121028980c14ae2f7e74a8e8535f39ccca66ee6d1a67b4e4298e797cf3e11bf2619022102913ea88fdc29c4e79c1276de788a58cdab4fa635a17d2a4270791899cf81db9453ae"}, "vout": 0, "txid": "09a29de3cd3f0df9249b802ee6db1e16a415792e840ca720a5a85bc033e1e056"}], "txid": "e2a703fbcd1833ecba939a80f6a9566dac74dce065043a58ab3a3ea88724e627", "blocktime": 1537871767, "version": 1, "confirmations": 11490, "time": 1537871767, "locktime": 0, "vsize": 3723, "size": 3723}