{"hash": "e2af5e496a7a045e579ef4010239004de27b193cc0d110b859a87bde2c89864c", "blockhash": "00000000000000000018f53835495a110e01622372bf6ae95dc86f2b0ab887b0", "vout": [{"scriptPubKey": {"reqSigs": 1, "hex": "a914321102e954eb547bd9cf15bf797ac670fb00532087", "addresses": ["36Fk677T7sbdUVyH9nLVnkempuHGsQ7iZh"], "asm": "OP_HASH160 321102e954eb547bd9cf15bf797ac670fb005320 OP_EQUAL", "type": "scripthash"}, "value": 0.09035155, "n": 0}], "hex": "01000000012357a143005190e0f9b11b3e61c7b1920072fc4d72cbb3993ed38c054463bf2d010000006a47304402207949330e63fbbcf801a98110e522e7b3f383983f05976354d1c8673a88cef3df0220696366f4f5c3719898a9d8329b1b0e4a31846ad86e8e8bae07f7c89b5f43109e01210282204da68e7f7946a9418dea019185cde6ac285cd420fd3392dce744704fa12fffffffff0193dd89000000000017a914321102e954eb547bd9cf15bf797ac670fb0053208700000000", "vin": [{"sequence": 4294967295, "scriptSig": {"hex": "47304402207949330e63fbbcf801a98110e522e7b3f383983f05976354d1c8673a88cef3df0220696366f4f5c3719898a9d8329b1b0e4a31846ad86e8e8bae07f7c89b5f43109e01210282204da68e7f7946a9418dea019185cde6ac285cd420fd3392dce744704fa12f", "asm": "304402207949330e63fbbcf801a98110e522e7b3f383983f05976354d1c8673a88cef3df0220696366f4f5c3719898a9d8329b1b0e4a31846ad86e8e8bae07f7c89b5f43109e[ALL] 0282204da68e7f7946a9418dea019185cde6ac285cd420fd3392dce744704fa12f"}, "vout": 1, "txid": "2dbf6344058cd33e99b3cb724dfc720092b1c7613e1bb1f9e090510043a15723"}], "txid": "e2af5e496a7a045e579ef4010239004de27b193cc0d110b859a87bde2c89864c", "blocktime": 1537870928, "version": 1, "confirmations": 11512, "time": 1537870928, "locktime": 0, "vsize": 189, "size": 189}