{"hash": "78791d4efbbe595abc9eaf7b61ca654802173bcc60a55c50437ea89f0dc2184e", "blockhash": "0000000000000000001cda96e906b7601b7a6fb1a3b62bca570a9e5d8f4b3de1", "vout": [{"scriptPubKey": {"reqSigs": 1, "hex": "a91445eeb1feb13ce6de8cd6080e2d0794ba6c7ef6c087", "addresses": ["384nVcu2YniDaGvduQPiFSGBjzLaZ6gYDp"], "asm": "OP_HASH160 45eeb1feb13ce6de8cd6080e2d0794ba6c7ef6c0 OP_EQUAL", "type": "scripthash"}, "value": 0.01171, "n": 0}, {"scriptPubKey": {"reqSigs": 1, "hex": "a91434554be96ae943124caa6e97709f06fa564884f687", "addresses": ["36TjF2SwH8k3cghzJnbXesTYBcV8sHkSUt"], "asm": "OP_HASH160 34554be96ae943124caa6e97709f06fa564884f6 OP_EQUAL", "type": "scripthash"}, "value": 0.00311333, "n": 1}], "hex": "010000000001054e9ea7881b8ff7daa764c2f459aced9b1405d904773eddddd773775279ff77197a040000171600146520762e89d99f0acb254892aaa4055ad1b170f2ffffff00bb05849b14761ecb3c2247b15ba380090f3d9f385faa7eab451c49b3198c727b73040000171600146520762e89d99f0acb254892aaa4055ad1b170f2ffffff006b2e636d4e7d218affd1d4fb5bc557690eba929795d76dcc49a9bd5fdce219d9fe040000171600146520762e89d99f0acb254892aaa4055ad1b170f2ffffff0062fd2c3de5e03815fb9fe64ee53ce6d180338ba83d7cf6687f731014d8ab6ced00000000171600146603c8acdc5b6f153811b5718c4ccd586bc75cf3ffffff00f6db814638cb3eb8d74ac4262bf66637ac46fc10170e14492d8df11d457160fc5e000000171600144edb6b087c74b7fcc69e593b64d916ee92033331ffffff000238de11000000000017a91445eeb1feb13ce6de8cd6080e2d0794ba6c7ef6c08725c004000000000017a91434554be96ae943124caa6e97709f06fa564884f68702483045022100f1e88d170ea8545f0fa1c61fb47f533e79cc556ec4811930d94b29fe5bf9f192022039d2812f3c51cfea8302bf3393a378fa1aad9f0516bbbca6835813d97871ca8f012103717abaf95838d5db3b0923a96df48b4dffe3cf447fdbadba4d42a0e732cdf87e02483045022100ce60d9ca1e8eb4a0cd771dcc3ec5106e5db960f796207263b9001ef2213a3aa602207f1fe42d2e5eb61d662130c7ea6bc2e9e16fc98ba644270696999b683a50e917012103717abaf95838d5db3b0923a96df48b4dffe3cf447fdbadba4d42a0e732cdf87e0247304402201169aca1281c9bac185e3894771ef4492b7dea45606a01d9a6d64afe6181077e022031b81460cfe336fe6f12f58c67846d35d3b24a679c651588f15148a634d28fc6012103717abaf95838d5db3b0923a96df48b4dffe3cf447fdbadba4d42a0e732cdf87e02483045022100edc3c2e0252c69565e74ac3c51f35ca46bb73d74bfd79681ea64f07f7a46b745022069fb1a2911e174f5cac398666f2044e56f6871c87134dc959ab219bba7e5c59c012102436d7e582f5ab95bcff4e0b19451d6ba35775f995fbd6a371850603505f3692102483045022100b696313f1740f7eae716236cd5badbfc544ba7d24d033e804585217c24cf63ca022033647cfc8a8c7e3f60f06039abe64fb89b4bc2dad497a41326b1cb87e3b50acb01210353b9174cd69625b94f31c9b7434464ddb918eefd0b9905c65a1f2a655bd17cdd00000000", "vin": [{"txinwitness": ["3045022100f1e88d170ea8545f0fa1c61fb47f533e79cc556ec4811930d94b29fe5bf9f192022039d2812f3c51cfea8302bf3393a378fa1aad9f0516bbbca6835813d97871ca8f01", "03717abaf95838d5db3b0923a96df48b4dffe3cf447fdbadba4d42a0e732cdf87e"], "sequence": 16777215, "scriptSig": {"hex": "1600146520762e89d99f0acb254892aaa4055ad1b170f2", "asm": "00146520762e89d99f0acb254892aaa4055ad1b170f2"}, "vout": 1146, "txid": "1977ff79527773d7dddd3e7704d905149bedac59f4c264a7daf78f1b88a79e4e"}, {"txinwitness": ["3045022100ce60d9ca1e8eb4a0cd771dcc3ec5106e5db960f796207263b9001ef2213a3aa602207f1fe42d2e5eb61d662130c7ea6bc2e9e16fc98ba644270696999b683a50e91701", "03717abaf95838d5db3b0923a96df48b4dffe3cf447fdbadba4d42a0e732cdf87e"], "sequence": 16777215, "scriptSig": {"hex": "1600146520762e89d99f0acb254892aaa4055ad1b170f2", "asm": "00146520762e89d99f0acb254892aaa4055ad1b170f2"}, "vout": 1139, "txid": "7b728c19b3491c45ab7eaa5f389f3d0f0980a35bb147223ccb1e76149b8405bb"}, {"txinwitness": ["304402201169aca1281c9bac185e3894771ef4492b7dea45606a01d9a6d64afe6181077e022031b81460cfe336fe6f12f58c67846d35d3b24a679c651588f15148a634d28fc601", "03717abaf95838d5db3b0923a96df48b4dffe3cf447fdbadba4d42a0e732cdf87e"], "sequence": 16777215, "scriptSig": {"hex": "1600146520762e89d99f0acb254892aaa4055ad1b170f2", "asm": "00146520762e89d99f0acb254892aaa4055ad1b170f2"}, "vout": 1278, "txid": "d919e2dc5fbda949cc6dd7959792ba0e6957c55bfbd4d1ff8a217d4e6d632e6b"}, {"txinwitness": ["3045022100edc3c2e0252c69565e74ac3c51f35ca46bb73d74bfd79681ea64f07f7a46b745022069fb1a2911e174f5cac398666f2044e56f6871c87134dc959ab219bba7e5c59c01", "02436d7e582f5ab95bcff4e0b19451d6ba35775f995fbd6a371850603505f36921"], "sequence": 16777215, "scriptSig": {"hex": "1600146603c8acdc5b6f153811b5718c4ccd586bc75cf3", "asm": "00146603c8acdc5b6f153811b5718c4ccd586bc75cf3"}, "vout": 0, "txid": "ed6cabd81410737f68f67c3da88b3380d1e63ce54ee69ffb1538e0e53d2cfd62"}, {"txinwitness": ["3045022100b696313f1740f7eae716236cd5badbfc544ba7d24d033e804585217c24cf63ca022033647cfc8a8c7e3f60f06039abe64fb89b4bc2dad497a41326b1cb87e3b50acb01", "0353b9174cd69625b94f31c9b7434464ddb918eefd0b9905c65a1f2a655bd17cdd"], "sequence": 16777215, "scriptSig": {"hex": "1600144edb6b087c74b7fcc69e593b64d916ee92033331", "asm": "00144edb6b087c74b7fcc69e593b64d916ee92033331"}, "vout": 94, "txid": "fc6071451df18d2d49140e1710fc46ac3766f62b26c44ad7b83ecb384681dbf6"}], "txid": "e2b0e09529e259febfd1476f3f5488f45b1ee2855042006175133a4a9d223e6b", "blocktime": 1537873282, "version": 1, "confirmations": 11484, "time": 1537873282, "locktime": 0, "vsize": 530, "size": 935}