{"hash": "e2b34cdfd37a3149368bce56d524d307e2cbcd02eeae469a94cf5ea4b944cc58", "blockhash": "000000000000000000022b45ed06c6f4ccd3cf7fb5ba4856ebd2e58215665228", "vout": [{"scriptPubKey": {"reqSigs": 1, "hex": "76a91456df1db3dcd9de0b62e0edeeae8473b92896021888ac", "addresses": ["18vLPsVu3qGBLa6MgKbDSPpu6GxQSzPHDB"], "asm": "OP_DUP OP_HASH160 56df1db3dcd9de0b62e0edeeae8473b928960218 OP_EQUALVERIFY OP_CHECKSIG", "type": "pubkeyhash"}, "value": 0.00499066, "n": 0}, {"scriptPubKey": {"type": "nulldata", "hex": "6a146f6d6e69000000000000001f000001586d26a900", "asm": "OP_RETURN 6f6d6e69000000000000001f000001586d26a900"}, "value": 0.0, "n": 1}, {"scriptPubKey": {"reqSigs": 1, "hex": "76a914a25dec4d0011064ef106a983c39c7a540699f22088ac", "addresses": ["1FoWyxwPXuj4C6abqwhjDWdz6D4PZgYRjA"], "asm": "OP_DUP OP_HASH160 a25dec4d0011064ef106a983c39c7a540699f220 OP_EQUALVERIFY OP_CHECKSIG", "type": "pubkeyhash"}, "value": 5.46e-06, "n": 2}], "hex": "0100000001912557e17582ceb1e81d6f8ffb4f018df417ac78d3254cd8c0dfa44a279b8e73060000006a473044022063d4686b4c254eacf5457384b2a663e3489393431b1a19f1b3407c6d37a541a30220167d556545d18d80bf2dafcce8d26e3b24c3bd6b808eb3e823331423d969bb1f0121032a45e76899ac49d4ee4a234c7ece8ac0aaff83020a72b8a690d773597ec236c7feffffff037a9d0700000000001976a91456df1db3dcd9de0b62e0edeeae8473b92896021888ac0000000000000000166a146f6d6e69000000000000001f000001586d26a90022020000000000001976a914a25dec4d0011064ef106a983c39c7a540699f22088ac00490800", "vin": [{"sequence": 4294967294, "scriptSig": {"hex": "473044022063d4686b4c254eacf5457384b2a663e3489393431b1a19f1b3407c6d37a541a30220167d556545d18d80bf2dafcce8d26e3b24c3bd6b808eb3e823331423d969bb1f0121032a45e76899ac49d4ee4a234c7ece8ac0aaff83020a72b8a690d773597ec236c7", "asm": "3044022063d4686b4c254eacf5457384b2a663e3489393431b1a19f1b3407c6d37a541a30220167d556545d18d80bf2dafcce8d26e3b24c3bd6b808eb3e823331423d969bb1f[ALL] 032a45e76899ac49d4ee4a234c7ece8ac0aaff83020a72b8a690d773597ec236c7"}, "vout": 6, "txid": "738e9b274aa4dfc0d84c25d378ac17f48d014ffb8f6f1de8b1ce8275e1572591"}], "txid": "e2b34cdfd37a3149368bce56d524d307e2cbcd02eeae469a94cf5ea4b944cc58", "blocktime": 1537869901, "version": 1, "confirmations": 11524, "time": 1537869901, "locktime": 542976, "vsize": 256, "size": 256}