{"hash": "e2c2040a27e0b8041252ceb771fe7e59c0eb2a550673ddd5631bbbda127e26b9", "blockhash": "0000000000000000001f0ddff1eddb255c1121bcd4da4f1bc9a0da00cae72433", "vout": [{"scriptPubKey": {"reqSigs": 1, "hex": "76a9140eb6fbf1bb669eaf96a186e9011f2de6426a42e088ac", "addresses": ["12Lofea5iqQKQDoje5mYtWonJb9t1NrB7a"], "asm": "OP_DUP OP_HASH160 0eb6fbf1bb669eaf96a186e9011f2de6426a42e0 OP_EQUALVERIFY OP_CHECKSIG", "type": "pubkeyhash"}, "value": 0.03753808, "n": 0}], "hex": "010000000168b0bba2cfc3d7fa1ae1cf766a5ad29fa2afea46a0b7c558a97a7877a98e5d3d000000006b483045022100eafac8f1f2bae0c188362b876af66883e6022d10cc7346a94b73b96799f42356022067e2efaeaed6efcf0519592d28e6e88f40658daf86654be35052a4c6e292ac95012102d2a1e1519f9c2684b7d81c6639b6f1fd7c69fdd917d30df1eb32228405de01f8fdffffff0150473900000000001976a9140eb6fbf1bb669eaf96a186e9011f2de6426a42e088ac10490800", "vin": [{"sequence": 4294967293, "scriptSig": {"hex": "483045022100eafac8f1f2bae0c188362b876af66883e6022d10cc7346a94b73b96799f42356022067e2efaeaed6efcf0519592d28e6e88f40658daf86654be35052a4c6e292ac95012102d2a1e1519f9c2684b7d81c6639b6f1fd7c69fdd917d30df1eb32228405de01f8", "asm": "3045022100eafac8f1f2bae0c188362b876af66883e6022d10cc7346a94b73b96799f42356022067e2efaeaed6efcf0519592d28e6e88f40658daf86654be35052a4c6e292ac95[ALL] 02d2a1e1519f9c2684b7d81c6639b6f1fd7c69fdd917d30df1eb32228405de01f8"}, "vout": 0, "txid": "3d5d8ea977787aa958c5b7a046eaafa29fd25a6a76cfe11afad7c3cfa2bbb068"}], "txid": "e2c2040a27e0b8041252ceb771fe7e59c0eb2a550673ddd5631bbbda127e26b9", "blocktime": 1537872018, "version": 1, "confirmations": 11489, "time": 1537872018, "locktime": 542992, "vsize": 192, "size": 192}