{"hash": "0a3023f71d799ece7f4d2fc028f9a1946e7a2aec45e9b24fbc3e9bfdeac8ce57", "blockhash": "00000000000000000004ffacab907a6b429b9a5745fa0b75af4234bf69dd7176", "vout": [{"scriptPubKey": {"reqSigs": 1, "hex": "a91425518061438114e37797e0fbfccb64e593d456ba87", "addresses": ["356LZTriiqJd9dGDQk9YhwbeNotsAC4yFM"], "asm": "OP_HASH160 25518061438114e37797e0fbfccb64e593d456ba OP_EQUAL", "type": "scripthash"}, "value": 0.24795456, "n": 0}, {"scriptPubKey": {"reqSigs": 1, "hex": "a9140621e656cda2b9232b2b07040824a43c6864342387", "addresses": ["32FSb6G3Cs4f8KY9EhQWT6FaUrjEUrianB"], "asm": "OP_HASH160 0621e656cda2b9232b2b07040824a43c68643423 OP_EQUAL", "type": "scripthash"}, "value": 0.44979506, "n": 1}], "hex": "020000000001013e785accb8356ea99a074217ec370d83d9991d4cdf3e68a424b8619bdad0bded01000000171600143746a00b53fbf6a18e2f250d4ae4ca20cd592b8efeffffff0240597a010000000017a91425518061438114e37797e0fbfccb64e593d456ba873255ae020000000017a9140621e656cda2b9232b2b07040824a43c686434238702483045022100c57efe7ac08f0b41c4fcfe63aef8746de6d8664de0d8188a5dace3a35ced72ee02203f493e7beb7f94832f7f0a38d8f6fe240d8c97bd1480b7fa1567c97df8028e190121030b2b4fdf894482603cc6de26c8560a704dc0c608a8fc8c690b98ba490c447ce216490800", "vin": [{"txinwitness": ["3045022100c57efe7ac08f0b41c4fcfe63aef8746de6d8664de0d8188a5dace3a35ced72ee02203f493e7beb7f94832f7f0a38d8f6fe240d8c97bd1480b7fa1567c97df8028e1901", "030b2b4fdf894482603cc6de26c8560a704dc0c608a8fc8c690b98ba490c447ce2"], "sequence": 4294967294, "scriptSig": {"hex": "1600143746a00b53fbf6a18e2f250d4ae4ca20cd592b8e", "asm": "00143746a00b53fbf6a18e2f250d4ae4ca20cd592b8e"}, "vout": 1, "txid": "edbdd0da9b61b824a4683edf4c1d99d9830d37ec1742079aa96e35b8cc5a783e"}], "txid": "e2c3671d5350926ab3d0a0e53026da43739dd25a152ed9b504ad86ca001784f5", "blocktime": 1537875543, "version": 2, "confirmations": 11464, "time": 1537875543, "locktime": 542998, "vsize": 166, "size": 248}