{"hash": "8feeb285bc18c4f2ad46665c5666ac6ac50cc713338334be1da7ee1e34149215", "blockhash": "0000000000000000000e13cef7c366c0283d82e591d1acd082e914b08063cdf1", "vout": [{"scriptPubKey": {"reqSigs": 1, "hex": "a9149454aef7a409476bc912ec5c2fe4567aa94a239587", "addresses": ["3FDKNqxxxLieDspVXoZ9c1tKnWcsV24qoZ"], "asm": "OP_HASH160 9454aef7a409476bc912ec5c2fe4567aa94a2395 OP_EQUAL", "type": "scripthash"}, "value": 0.01000688, "n": 0}, {"scriptPubKey": {"reqSigs": 1, "hex": "76a9142c2f33d1ed940a36a08247388ca4991858fd0e8788ac", "addresses": ["152dH86UEPzCpp1HZLTj3MkRbrKY8zvBxN"], "asm": "OP_DUP OP_HASH160 2c2f33d1ed940a36a08247388ca4991858fd0e87 OP_EQUALVERIFY OP_CHECKSIG", "type": "pubkeyhash"}, "value": 0.0024566, "n": 1}], "hex": "020000000001022d26ab7828721526c82d7fff5173bc393b2bd112c295c66e7b9af5cf597b8d850000000017160014b2269d77bff5ccbce15a9c873ec2b48f1db78346feffffff880a853392a1371b3700073c32465c96734011a58e9cae346fd11ad56dc317b2010000001716001428f5a1698888a84aa3a5c92ab96f1de0b949da18feffffff02f0440f000000000017a9149454aef7a409476bc912ec5c2fe4567aa94a2395879cbf0300000000001976a9142c2f33d1ed940a36a08247388ca4991858fd0e8788ac024730440220347255c9757763a74774b7ab6857b15fc7fa2ca5f2fcc2b71cd41b0d8c39c80502206baf6bde48e111a9149f7a361b8c86e8d2c20a1b76c5c84d8210122be9031f8c012103ead5bc5d8a8e291316ad02d87e632d309e513a154d1732056247876740ebe4f302483045022100cdddface12eaa35f7b4cbd3a3c7a732f6a2244e5e0997d3b42d9161c62ffa5a00220307ca4ccec0f9d36122184ef542cf35ef249464af12b1b0a1868176c6d2323e9012103776d8044af5b16aa0581b2e23c2c081da97b9bd3bb9031f63013a794ca87b25e10490800", "vin": [{"txinwitness": ["30440220347255c9757763a74774b7ab6857b15fc7fa2ca5f2fcc2b71cd41b0d8c39c80502206baf6bde48e111a9149f7a361b8c86e8d2c20a1b76c5c84d8210122be9031f8c01", "03ead5bc5d8a8e291316ad02d87e632d309e513a154d1732056247876740ebe4f3"], "sequence": 4294967294, "scriptSig": {"hex": "160014b2269d77bff5ccbce15a9c873ec2b48f1db78346", "asm": "0014b2269d77bff5ccbce15a9c873ec2b48f1db78346"}, "vout": 0, "txid": "858d7b59cff59a7b6ec695c212d12b3b39bc7351ff7f2dc82615722878ab262d"}, {"txinwitness": ["3045022100cdddface12eaa35f7b4cbd3a3c7a732f6a2244e5e0997d3b42d9161c62ffa5a00220307ca4ccec0f9d36122184ef542cf35ef249464af12b1b0a1868176c6d2323e901", "03776d8044af5b16aa0581b2e23c2c081da97b9bd3bb9031f63013a794ca87b25e"], "sequence": 4294967294, "scriptSig": {"hex": "16001428f5a1698888a84aa3a5c92ab96f1de0b949da18", "asm": "001428f5a1698888a84aa3a5c92ab96f1de0b949da18"}, "vout": 1, "txid": "b217c36dd51ad16f34ae9c8ea5114073965c46323c0700371b37a19233850a88"}], "txid": "e2c551fb58fd6c0c92adacd268938d86b23459188ee6d997f9a7b9d66ebf2ed6", "blocktime": 1537871767, "version": 2, "confirmations": 11495, "time": 1537871767, "locktime": 542992, "vsize": 259, "size": 421}