{"hash": "e2ca9c600a734041310f2973f5deb755a4e69ad9c2b6cda4f675007e77d0beff", "blockhash": "0000000000000000000e13cef7c366c0283d82e591d1acd082e914b08063cdf1", "vout": [{"scriptPubKey": {"reqSigs": 1, "hex": "76a91435f8431d1884229f5eebb3b547d26a633b63fcf588ac", "addresses": ["15vNDj2AHtLEKDWrcnhs5HHVvbtj9H3QYz"], "asm": "OP_DUP OP_HASH160 35f8431d1884229f5eebb3b547d26a633b63fcf5 OP_EQUALVERIFY OP_CHECKSIG", "type": "pubkeyhash"}, "value": 8.672e-05, "n": 0}, {"scriptPubKey": {"reqSigs": 1, "hex": "76a9147e9057f0c9a22f5014ae3d0675e80572e10b110388ac", "addresses": ["1CYD4LNqe3523zTK8EB2G4tyL1bQ3K35eX"], "asm": "OP_DUP OP_HASH160 7e9057f0c9a22f5014ae3d0675e80572e10b1103 OP_EQUALVERIFY OP_CHECKSIG", "type": "pubkeyhash"}, "value": 0.01390755, "n": 1}], "hex": "0100000001d504c4f56a49e51c1c6f30e3ae70eaaaca17a0510717ff20c61635ec143376d9060000006b4830450221008771ea4f45148bb1320392f1d238bd4dfe23d16f85c4e42972e01a39d6ab519e02207d9c8fee947c694d956d6fb5dfabbe2280ad57bb757d6f39fbb75d662eb075c80121032da4effa62f45adec87077bcf4db0d208d3f70c568f50ce0859d5fca68d20cf1ffffffff02e0210000000000001976a91435f8431d1884229f5eebb3b547d26a633b63fcf588aca3381500000000001976a9147e9057f0c9a22f5014ae3d0675e80572e10b110388ac00000000", "vin": [{"sequence": 4294967295, "scriptSig": {"hex": "4830450221008771ea4f45148bb1320392f1d238bd4dfe23d16f85c4e42972e01a39d6ab519e02207d9c8fee947c694d956d6fb5dfabbe2280ad57bb757d6f39fbb75d662eb075c80121032da4effa62f45adec87077bcf4db0d208d3f70c568f50ce0859d5fca68d20cf1", "asm": "30450221008771ea4f45148bb1320392f1d238bd4dfe23d16f85c4e42972e01a39d6ab519e02207d9c8fee947c694d956d6fb5dfabbe2280ad57bb757d6f39fbb75d662eb075c8[ALL] 032da4effa62f45adec87077bcf4db0d208d3f70c568f50ce0859d5fca68d20cf1"}, "vout": 6, "txid": "d9763314ec3516c620ff170751a017caaaea70aee3306f1c1ce5496af5c404d5"}], "txid": "e2ca9c600a734041310f2973f5deb755a4e69ad9c2b6cda4f675007e77d0beff", "blocktime": 1537871767, "version": 1, "confirmations": 11495, "time": 1537871767, "locktime": 0, "vsize": 226, "size": 226}