{"hash": "e2cc6fdfab5cd6903d4a88eea75fe72f6c19538f72546721ec76d6e79570365e", "blockhash": "0000000000000000001cda96e906b7601b7a6fb1a3b62bca570a9e5d8f4b3de1", "vout": [{"scriptPubKey": {"reqSigs": 1, "hex": "76a914c1d441fe0168d67acc529a2e71bfdd19416ee62e88ac", "addresses": ["1JfsgxFGbrTnxAJegzB7jLX5btozYDDwHw"], "asm": "OP_DUP OP_HASH160 c1d441fe0168d67acc529a2e71bfdd19416ee62e OP_EQUALVERIFY OP_CHECKSIG", "type": "pubkeyhash"}, "value": 0.24336313, "n": 0}], "hex": "0100000001057296d3009347f695cd128c92403f3e54ce31963245aa87a08d7ee84b7df976000000006a473044022063f4a286990ecf857e00373bc96952c5792f0caaf5e196e43c40bb2ebdae08b302206fb37a306f6fc75606e885c75cf9a47951f399e25a1e607e141a2c73052b310b01210232268db454a73cf6d297bf95f40542115cf2455c86cca6fa58cc7cd01ce7b141ffffffff01b9577301000000001976a914c1d441fe0168d67acc529a2e71bfdd19416ee62e88ac00000000", "vin": [{"sequence": 4294967295, "scriptSig": {"hex": "473044022063f4a286990ecf857e00373bc96952c5792f0caaf5e196e43c40bb2ebdae08b302206fb37a306f6fc75606e885c75cf9a47951f399e25a1e607e141a2c73052b310b01210232268db454a73cf6d297bf95f40542115cf2455c86cca6fa58cc7cd01ce7b141", "asm": "3044022063f4a286990ecf857e00373bc96952c5792f0caaf5e196e43c40bb2ebdae08b302206fb37a306f6fc75606e885c75cf9a47951f399e25a1e607e141a2c73052b310b[ALL] 0232268db454a73cf6d297bf95f40542115cf2455c86cca6fa58cc7cd01ce7b141"}, "vout": 0, "txid": "76f97d4be87e8da087aa45329631ce543e3f40928c12cd95f6479300d3967205"}], "txid": "e2cc6fdfab5cd6903d4a88eea75fe72f6c19538f72546721ec76d6e79570365e", "blocktime": 1537873282, "version": 1, "confirmations": 11480, "time": 1537873282, "locktime": 0, "vsize": 191, "size": 191}