{"hash": "e2ced26de408066dc9a0081b0c05b58b8f8c78458c78b0ca6bd39b2918d0c391", "blockhash": "0000000000000000001f0ddff1eddb255c1121bcd4da4f1bc9a0da00cae72433", "vout": [{"scriptPubKey": {"reqSigs": 1, "hex": "76a91451c32c7b490ea1afb7c4ad26ac7eba5b059f2ca688ac", "addresses": ["18TKYT22pzm39pFm7sHarQzweMA6xy5xt5"], "asm": "OP_DUP OP_HASH160 51c32c7b490ea1afb7c4ad26ac7eba5b059f2ca6 OP_EQUALVERIFY OP_CHECKSIG", "type": "pubkeyhash"}, "value": 0.0095886, "n": 0}, {"scriptPubKey": {"reqSigs": 1, "hex": "76a914ad8fa300588e487e60dda13a13e42e8c9aeb619d88ac", "addresses": ["1GphyEzS1CwL9fjo4FncpCVFrcLMUopcT3"], "asm": "OP_DUP OP_HASH160 ad8fa300588e487e60dda13a13e42e8c9aeb619d OP_EQUALVERIFY OP_CHECKSIG", "type": "pubkeyhash"}, "value": 0.0297, "n": 1}], "hex": "02000000024e7057651192283ec9d2f56679479cc171fd9f39a8cc9767d40f689b0fd8ff03060000006a473044022029a15f6f53dbaf97f66f7f55c065c5e42a7e72c2c15ae4aacad66528bc68ef3a02201f5e6ae35e64dc820b091583787e7be338ceefcbd5cd6c52e7023d61bdd8f0bb012102578dee6ef828584bbb4054816e7fc5f372b29e1de1bfc85885404993e22c280dfefffffffed83af313eb719ee0b5e3f99e7f47cfa8e2b86ccf5196a15b4a3ff41f5f8716000000006a47304402203f385b6d088f47579901e4b2b9563b743e2cfaa10a1028e9a77d9eb33440fedf022006d155f99a7fddf95ef44e0f9268fb0a475830177da9826e06ce982c02882898012103a5b2bd8437ea50b21e51c7a52cfc7fa3e1680ed90b53aae56fe591d60f714f5ffeffffff028ca10e00000000001976a91451c32c7b490ea1afb7c4ad26ac7eba5b059f2ca688ac90512d00000000001976a914ad8fa300588e487e60dda13a13e42e8c9aeb619d88ac11490800", "vin": [{"sequence": 4294967294, "scriptSig": {"hex": "473044022029a15f6f53dbaf97f66f7f55c065c5e42a7e72c2c15ae4aacad66528bc68ef3a02201f5e6ae35e64dc820b091583787e7be338ceefcbd5cd6c52e7023d61bdd8f0bb012102578dee6ef828584bbb4054816e7fc5f372b29e1de1bfc85885404993e22c280d", "asm": "3044022029a15f6f53dbaf97f66f7f55c065c5e42a7e72c2c15ae4aacad66528bc68ef3a02201f5e6ae35e64dc820b091583787e7be338ceefcbd5cd6c52e7023d61bdd8f0bb[ALL] 02578dee6ef828584bbb4054816e7fc5f372b29e1de1bfc85885404993e22c280d"}, "vout": 6, "txid": "03ffd80f9b680fd46797cca8399ffd71c19c477966f5d2c93e2892116557704e"}, {"sequence": 4294967294, "scriptSig": {"hex": "47304402203f385b6d088f47579901e4b2b9563b743e2cfaa10a1028e9a77d9eb33440fedf022006d155f99a7fddf95ef44e0f9268fb0a475830177da9826e06ce982c02882898012103a5b2bd8437ea50b21e51c7a52cfc7fa3e1680ed90b53aae56fe591d60f714f5f", "asm": "304402203f385b6d088f47579901e4b2b9563b743e2cfaa10a1028e9a77d9eb33440fedf022006d155f99a7fddf95ef44e0f9268fb0a475830177da9826e06ce982c02882898[ALL] 03a5b2bd8437ea50b21e51c7a52cfc7fa3e1680ed90b53aae56fe591d60f714f5f"}, "vout": 0, "txid": "16875f1ff43f4a5ba19651cf6cb8e2a8cf477f9ef9e3b5e09e71eb13f33ad8fe"}], "txid": "e2ced26de408066dc9a0081b0c05b58b8f8c78458c78b0ca6bd39b2918d0c391", "blocktime": 1537872018, "version": 2, "confirmations": 11489, "time": 1537872018, "locktime": 542993, "vsize": 372, "size": 372}