{"hash": "997ae49c9585f9716f0b73b2b91afd2b1546e4f40ac642b434e585c1df4edbae", "blockhash": "0000000000000000000baef3f32e3676a92c3b2e5da21b426e4f302fc371ce76", "vout": [{"scriptPubKey": {"reqSigs": 1, "hex": "76a914ef8c2fe62bd9333cc663df481c208acbd07428df88ac", "addresses": ["1NqcSDfXC1d9RngoDn7tNZDfuHP64M7nfc"], "asm": "OP_DUP OP_HASH160 ef8c2fe62bd9333cc663df481c208acbd07428df OP_EQUALVERIFY OP_CHECKSIG", "type": "pubkeyhash"}, "value": 0.00240164, "n": 0}, {"scriptPubKey": {"reqSigs": 1, "hex": "a91426a05d41edc90200cd9103e5dfd8f33fa6b32a7687", "addresses": ["35DFi92wgdqfE9vJms6qez4yMM6Pz7pC4r"], "asm": "OP_HASH160 26a05d41edc90200cd9103e5dfd8f33fa6b32a76 OP_EQUAL", "type": "scripthash"}, "value": 0.00751537, "n": 1}, {"scriptPubKey": {"reqSigs": 1, "hex": "a914bddce1db77593a7ac8d67f0d488c4311d5103ffa87", "addresses": ["3JzvEy64J63pDv7KjyKsVzupMgKcwdgQU4"], "asm": "OP_HASH160 bddce1db77593a7ac8d67f0d488c4311d5103ffa OP_EQUAL", "type": "scripthash"}, "value": 7.861e-05, "n": 2}], "hex": "0200000000010103e333f591470dc59ae7587b9203bca9f2be756ccee4be55b49c135cc0667de40400000017160014394c1d55120fea8442873d75d93263e22518f914ffffffff0324aa0300000000001976a914ef8c2fe62bd9333cc663df481c208acbd07428df88acb1770b000000000017a91426a05d41edc90200cd9103e5dfd8f33fa6b32a7687b51e00000000000017a914bddce1db77593a7ac8d67f0d488c4311d5103ffa8702483045022100ac9e09f90f0f9ed7131558a7a22554116d6a66780729087d0ce59cfe711613f802206d0058609ee7da39a059927ad5b45395dc357293d1f158bc8b6cf2a1eb9ddd90012103e196163b6d30d0fef27eff5bae2754a7ccba75d466b78c87116b6535bacce31b00000000", "vin": [{"txinwitness": ["3045022100ac9e09f90f0f9ed7131558a7a22554116d6a66780729087d0ce59cfe711613f802206d0058609ee7da39a059927ad5b45395dc357293d1f158bc8b6cf2a1eb9ddd9001", "03e196163b6d30d0fef27eff5bae2754a7ccba75d466b78c87116b6535bacce31b"], "sequence": 4294967295, "scriptSig": {"hex": "160014394c1d55120fea8442873d75d93263e22518f914", "asm": "0014394c1d55120fea8442873d75d93263e22518f914"}, "vout": 4, "txid": "e47d66c05c139cb455bee4ce6c75bef2a9bc03927b58e79ac50d4791f533e303"}], "txid": "e2cf8e2fe41bb98c344206d04dc4838c0bd40886f1935cebd088367abb771fa7", "blocktime": 1537876114, "version": 2, "confirmations": 11460, "time": 1537876114, "locktime": 0, "vsize": 200, "size": 282}