{"hash": "2187cee5de2528ce54a39ce44bc018153618382092085b9e63718052f1717c2b", "blockhash": "0000000000000000001f76057863aec43deb6fa401d9628bb513d65a8098bfab", "vout": [{"scriptPubKey": {"reqSigs": 1, "hex": "a914ec93282262b3157a6ba3f6a82a079222b728827487", "addresses": ["3PFugSvGsiaUQ9E9zdYVouiZaEYxHfR21b"], "asm": "OP_HASH160 ec93282262b3157a6ba3f6a82a079222b7288274 OP_EQUAL", "type": "scripthash"}, "value": 0.00995942, "n": 0}, {"scriptPubKey": {"reqSigs": 1, "hex": "76a914548f67e3d89f902b55ff2a8a92bd064f4948751888ac", "addresses": ["18i7Z8ExPMcdH9vZV2G8EM7nqAxUSnGV9s"], "asm": "OP_DUP OP_HASH160 548f67e3d89f902b55ff2a8a92bd064f49487518 OP_EQUALVERIFY OP_CHECKSIG", "type": "pubkeyhash"}, "value": 0.01347, "n": 1}], "hex": "0200000000010359b2d90b24b71d85f264321a0a1bfed85ab2a276706f7a8e908c2daff6ca89e40100000017160014cb19bc8e0dc08b306e5c6690cc6ff7c5fef14090feffffff5e01f0a80131652af0c401e70bc9db6cdd973656fc84d811fcaa5db0d2ac778f01000000171600141866089377bf2f4cfb417f01b03a6af08c5360eefeffffffb7244473ea27df44c62375b784c983ab0e79646c9b13165ac1ffed2e710ebd1d000000006b483045022100f00140833f2f0ffa74c17a1b5b151ce753c71ff95b0475a4cdd262fbcf882de802206f79658d23fb4598d73b648da2795d7ccce65b5fa0a2efab7825df68d0efde290121038e8502e53ac2e4b67b324336d1a4a3691c1c954858ebe99e330e8c59fe32e008feffffff0266320f000000000017a914ec93282262b3157a6ba3f6a82a079222b728827487b88d1400000000001976a914548f67e3d89f902b55ff2a8a92bd064f4948751888ac0247304402206b18080bae1f59e1661267fa662a0ab3203c1fa2dbd97e1b86b91f45f3c6c91602205ce3bc3906084034e440c2b3a06847c61e8f18799cef5189ae9316531db27afe0121033db7ddda3e0bcacccc67b2574fbe5eb7b356e2bbfda61ae2a3e484590b2d457b02483045022100d05e1666a3ce08bba3af07e807f02f4f77ddb0c40d7ed8a738ae514483b02be602203017d501a8611aee8f254b1971bacf9ca28be96c8b39fc1528a9810e42fc041a0121023a959974add7876ffb5cebe148e73c20b0065b861d6170616b96742cb1be89b80014490800", "vin": [{"txinwitness": ["304402206b18080bae1f59e1661267fa662a0ab3203c1fa2dbd97e1b86b91f45f3c6c91602205ce3bc3906084034e440c2b3a06847c61e8f18799cef5189ae9316531db27afe01", "033db7ddda3e0bcacccc67b2574fbe5eb7b356e2bbfda61ae2a3e484590b2d457b"], "sequence": 4294967294, "scriptSig": {"hex": "160014cb19bc8e0dc08b306e5c6690cc6ff7c5fef14090", "asm": "0014cb19bc8e0dc08b306e5c6690cc6ff7c5fef14090"}, "vout": 1, "txid": "e489caf6af2d8c908e7a6f7076a2b25ad8fe1b0a1a3264f2851db7240bd9b259"}, {"txinwitness": ["3045022100d05e1666a3ce08bba3af07e807f02f4f77ddb0c40d7ed8a738ae514483b02be602203017d501a8611aee8f254b1971bacf9ca28be96c8b39fc1528a9810e42fc041a01", "023a959974add7876ffb5cebe148e73c20b0065b861d6170616b96742cb1be89b8"], "sequence": 4294967294, "scriptSig": {"hex": "1600141866089377bf2f4cfb417f01b03a6af08c5360ee", "asm": "00141866089377bf2f4cfb417f01b03a6af08c5360ee"}, "vout": 1, "txid": "8f77acd2b05daafc11d884fc563697dd6cdbc90be701c4f02a653101a8f0015e"}, {"sequence": 4294967294, "scriptSig": {"hex": "483045022100f00140833f2f0ffa74c17a1b5b151ce753c71ff95b0475a4cdd262fbcf882de802206f79658d23fb4598d73b648da2795d7ccce65b5fa0a2efab7825df68d0efde290121038e8502e53ac2e4b67b324336d1a4a3691c1c954858ebe99e330e8c59fe32e008", "asm": "3045022100f00140833f2f0ffa74c17a1b5b151ce753c71ff95b0475a4cdd262fbcf882de802206f79658d23fb4598d73b648da2795d7ccce65b5fa0a2efab7825df68d0efde29[ALL] 038e8502e53ac2e4b67b324336d1a4a3691c1c954858ebe99e330e8c59fe32e008"}, "vout": 0, "txid": "1dbd0e712eedffc15a16139b6c64790eab83c984b77523c644df27ea734424b7"}], "txid": "e2d1b63be10ac661f43e3376c1da1ca1dd37a05b4a1d2bf6193189ca200ec3ac", "blocktime": 1537873891, "version": 2, "confirmations": 11475, "time": 1537873891, "locktime": 542996, "vsize": 407, "size": 570}