{"hash": "e2dcb144f94cbb77521fdf85f9e8e2f427ce073303e4370d5f6aef9eea270a07", "blockhash": "00000000000000000017f5eb5941039fbcee6240d03bc1f2f8e35350df66a1d8", "vout": [{"scriptPubKey": {"reqSigs": 1, "hex": "a914a5421dfb08a3543237dd3617e10fc9debf855aef87", "addresses": ["3Gkpd6MtJxvFAQpZiSxJ9UfC4jiydZ35du"], "asm": "OP_HASH160 a5421dfb08a3543237dd3617e10fc9debf855aef OP_EQUAL", "type": "scripthash"}, "value": 0.06249874, "n": 0}, {"scriptPubKey": {"reqSigs": 1, "hex": "a914c7957a6549e993b090d10f21040167d2cdfb8fc287", "addresses": ["3KtKTe1xPUuAZvJCQtepRtaXh5PfP8rNcu"], "asm": "OP_HASH160 c7957a6549e993b090d10f21040167d2cdfb8fc2 OP_EQUAL", "type": "scripthash"}, "value": 0.20717115, "n": 1}], "hex": "02000000018a1231c0a5cdc0cd1e438143ca3a0c0d557e2a6226e4957f80198ae11e8cf7ef000000006b483045022100cadd98b07cedf28b28eab752737b2ddf9a9891dad2e69f81aa43a30e11ee3384022032e8f267fc31e9343a28278a8deb2299dcff68666e468f05e148ef4bd82d5980012103a9bc72469d36667a56270f185823d14ddbc2cc56c120ade01c40aeca9077f86bfdffffff02925d5f000000000017a914a5421dfb08a3543237dd3617e10fc9debf855aef873b1e3c010000000017a914c7957a6549e993b090d10f21040167d2cdfb8fc28715490800", "vin": [{"sequence": 4294967293, "scriptSig": {"hex": "483045022100cadd98b07cedf28b28eab752737b2ddf9a9891dad2e69f81aa43a30e11ee3384022032e8f267fc31e9343a28278a8deb2299dcff68666e468f05e148ef4bd82d5980012103a9bc72469d36667a56270f185823d14ddbc2cc56c120ade01c40aeca9077f86b", "asm": "3045022100cadd98b07cedf28b28eab752737b2ddf9a9891dad2e69f81aa43a30e11ee3384022032e8f267fc31e9343a28278a8deb2299dcff68666e468f05e148ef4bd82d5980[ALL] 03a9bc72469d36667a56270f185823d14ddbc2cc56c120ade01c40aeca9077f86b"}, "vout": 0, "txid": "eff78c1ee18a19807f95e426622a7e550d0c3aca4381431ecdc0cda5c031128a"}], "txid": "e2dcb144f94cbb77521fdf85f9e8e2f427ce073303e4370d5f6aef9eea270a07", "blocktime": 1537874412, "version": 2, "confirmations": 11468, "time": 1537874412, "locktime": 542997, "vsize": 222, "size": 222}