{"hash": "34dbdd927620132aed7c55920910211b28c8215a5bf56c10112ecc01ea57f2a7", "blockhash": "0000000000000000000e13cef7c366c0283d82e591d1acd082e914b08063cdf1", "vout": [{"scriptPubKey": {"reqSigs": 1, "hex": "00144cd48839471f440de9304334df8d886e68836ff8", "addresses": ["bc1qfn2gsw28razqm6fsgv6dlrvgde5gxmlcdls7jn"], "asm": "0 4cd48839471f440de9304334df8d886e68836ff8", "type": "witness_v0_keyhash"}, "value": 0.50089224, "n": 0}, {"scriptPubKey": {"reqSigs": 1, "hex": "76a9149899f71136a76b0630919fb2111d8d10bd0f993988ac", "addresses": ["1Eut9qoLRH2u4Y86WHwSXvcdgTUutch7en"], "asm": "OP_DUP OP_HASH160 9899f71136a76b0630919fb2111d8d10bd0f9939 OP_EQUALVERIFY OP_CHECKSIG", "type": "pubkeyhash"}, "value": 0.00898872, "n": 1}], "hex": "01000000000101a8a5aaab7d6008716c87bbf5b743cd43af3f7bb84b66c5c38e0e137feb33cea90100000000ffffffff02084dfc02000000001600144cd48839471f440de9304334df8d886e68836ff838b70d00000000001976a9149899f71136a76b0630919fb2111d8d10bd0f993988ac02483045022100fb23ef7f65cf6f1091c8f0fd776ceee1100775f8adfe83e7f3e28d08fe6b03880220442d126f991a8dcbbf660313331242bbccc9ee57e719e5a57357c045d33c01ca012103b307f49eb27bd5a56b042c7d01475f69a9da192265f764a47d1190514ec033ad00000000", "vin": [{"txinwitness": ["3045022100fb23ef7f65cf6f1091c8f0fd776ceee1100775f8adfe83e7f3e28d08fe6b03880220442d126f991a8dcbbf660313331242bbccc9ee57e719e5a57357c045d33c01ca01", "03b307f49eb27bd5a56b042c7d01475f69a9da192265f764a47d1190514ec033ad"], "sequence": 4294967295, "scriptSig": {"hex": "", "asm": ""}, "vout": 1, "txid": "a9ce33eb7f130e8ec3c5664bb87b3faf43cd43b7f5bb876c7108607dabaaa5a8"}], "txid": "e2dee2e4b29db18651024f77b1693bbc1bb3e78557ce3ab3e444ad9f60f407e4", "blocktime": 1537871767, "version": 1, "confirmations": 11495, "time": 1537871767, "locktime": 0, "vsize": 144, "size": 226}