{"hash": "e2e3c1ef127e55b24b67d78cff7415a22d1175a36a03d1a0641da42f569f78c3", "blockhash": "0000000000000000000e13cef7c366c0283d82e591d1acd082e914b08063cdf1", "vout": [{"scriptPubKey": {"reqSigs": 1, "hex": "76a91486c59cd28b31e5b680a61c95ac73d931bed6a48088ac", "addresses": ["1DHcH4ygpQH8fmVkDt2ypZHH8iLNv5gGeW"], "asm": "OP_DUP OP_HASH160 86c59cd28b31e5b680a61c95ac73d931bed6a480 OP_EQUALVERIFY OP_CHECKSIG", "type": "pubkeyhash"}, "value": 0.009, "n": 0}, {"scriptPubKey": {"reqSigs": 1, "hex": "76a914681d36aefdc544750881c8eea75560fd0d14c0dd88ac", "addresses": ["1AVWGkMHKZfQ2ibe4SycEqBGFZay9kLLkJ"], "asm": "OP_DUP OP_HASH160 681d36aefdc544750881c8eea75560fd0d14c0dd OP_EQUALVERIFY OP_CHECKSIG", "type": "pubkeyhash"}, "value": 0.71489518, "n": 1}], "hex": "010000000155d8cb91efd2e747a913fdbb9123d675d4b66a9ff9b5ba1226265bedfdf384a2010000006a47304402206bf73dbcc3a3792552d005e2493d5e9a3dc224c3250e8c0cd5fe5949546c341202207116269189630d9221eee616ccdea0d3e75ededf0303ef6a61fbb4145b38cbd8012102fa7b39e007125944058e01b25932f513d6a8fe2e9c83e0aeace109444fdbddd0ffffffff02a0bb0d00000000001976a91486c59cd28b31e5b680a61c95ac73d931bed6a48088aceed74204000000001976a914681d36aefdc544750881c8eea75560fd0d14c0dd88ac00000000", "vin": [{"sequence": 4294967295, "scriptSig": {"hex": "47304402206bf73dbcc3a3792552d005e2493d5e9a3dc224c3250e8c0cd5fe5949546c341202207116269189630d9221eee616ccdea0d3e75ededf0303ef6a61fbb4145b38cbd8012102fa7b39e007125944058e01b25932f513d6a8fe2e9c83e0aeace109444fdbddd0", "asm": "304402206bf73dbcc3a3792552d005e2493d5e9a3dc224c3250e8c0cd5fe5949546c341202207116269189630d9221eee616ccdea0d3e75ededf0303ef6a61fbb4145b38cbd8[ALL] 02fa7b39e007125944058e01b25932f513d6a8fe2e9c83e0aeace109444fdbddd0"}, "vout": 1, "txid": "a284f3fded5b262612bab5f99f6ab6d475d62391bbfd13a947e7d2ef91cbd855"}], "txid": "e2e3c1ef127e55b24b67d78cff7415a22d1175a36a03d1a0641da42f569f78c3", "blocktime": 1537871767, "version": 1, "confirmations": 11495, "time": 1537871767, "locktime": 0, "vsize": 225, "size": 225}