{"hash": "7b81bd5cfca8f4e768eebe2cb476b8c98a6f37ea7addf22199973ef89f2b8c60", "blockhash": "00000000000000000018f53835495a110e01622372bf6ae95dc86f2b0ab887b0", "vout": [{"scriptPubKey": {"reqSigs": 1, "hex": "a9149865ad29f07661239fc0bb7db479d728f4c7335987", "addresses": ["3FapSJZUNGxcCQg9iNGFp2U241YbzLgVok"], "asm": "OP_HASH160 9865ad29f07661239fc0bb7db479d728f4c73359 OP_EQUAL", "type": "scripthash"}, "value": 0.00898, "n": 0}], "hex": "010000000001011212fd62b8dd60b6bb408c3d6a58f68f36a3a0a0e5c793cea49d233151a319be0100000023220020f321a6e5ebcebe5da8e1a96341b14c6ba3fc634d56f311308e30f05c0df15165ffffffff01d0b30d000000000017a9149865ad29f07661239fc0bb7db479d728f4c73359870400483045022100b435a361f71218b7faafeb2d2244abecea63a3d5574a64648dc1f7331ad9453402207a6ff96214dabf9b5d7e2e768d70dec978548cf0ad429c98c5dc2a3fa01c0d57014830450221008057177f5f0c5c62be943772dd75eaa2b4a50355024fed738f9c39e62eb8fd150220247eee4b06f0c118ba3bb8c493cc1793629bb4e75688eab5bba5dc5b9ea6482c0169522103757df0e829fd3a371c3026db211792202f4f227ed6954767b83d88cd5024a88a2102ef11c392cb716ba69280fbe65d2d7af6238ce27760c707a8c99041df55e8f2642102d97c473f0d3f0adfb65fc17026b9cef71f99421faa44fe11c04e5019d5a1449853ae00000000", "vin": [{"txinwitness": ["", "3045022100b435a361f71218b7faafeb2d2244abecea63a3d5574a64648dc1f7331ad9453402207a6ff96214dabf9b5d7e2e768d70dec978548cf0ad429c98c5dc2a3fa01c0d5701", "30450221008057177f5f0c5c62be943772dd75eaa2b4a50355024fed738f9c39e62eb8fd150220247eee4b06f0c118ba3bb8c493cc1793629bb4e75688eab5bba5dc5b9ea6482c01", "522103757df0e829fd3a371c3026db211792202f4f227ed6954767b83d88cd5024a88a2102ef11c392cb716ba69280fbe65d2d7af6238ce27760c707a8c99041df55e8f2642102d97c473f0d3f0adfb65fc17026b9cef71f99421faa44fe11c04e5019d5a1449853ae"], "sequence": 4294967295, "scriptSig": {"hex": "220020f321a6e5ebcebe5da8e1a96341b14c6ba3fc634d56f311308e30f05c0df15165", "asm": "0020f321a6e5ebcebe5da8e1a96341b14c6ba3fc634d56f311308e30f05c0df15165"}, "vout": 1, "txid": "be19a35131239da4ce93c7e5a0a0a3368ff6586a3d8c40bbb660ddb862fd1212"}], "txid": "e2e497b0a803f969c9cb9ed3529bf0c2d09a88a98d33a7f7ae7f4dba10eb7e54", "blocktime": 1537870928, "version": 1, "confirmations": 11512, "time": 1537870928, "locktime": 0, "vsize": 182, "size": 374}