{"hash": "e2e4b6558d03d69d1ae49ecb3947f5f90a475fb5f75f358f470eaac6e067e257", "blockhash": "0000000000000000001f76057863aec43deb6fa401d9628bb513d65a8098bfab", "vout": [{"scriptPubKey": {"reqSigs": 1, "hex": "76a914a520c86a08366941cd90d22e11ac1c7eefa2db3788ac", "addresses": ["1G47mSr3oANXMafVrR8UC4pzV7FEAzo3r9"], "asm": "OP_DUP OP_HASH160 a520c86a08366941cd90d22e11ac1c7eefa2db37 OP_EQUALVERIFY OP_CHECKSIG", "type": "pubkeyhash"}, "value": 0.23385328, "n": 0}, {"scriptPubKey": {"reqSigs": 1, "hex": "76a914b674db0d21d1c883032a84f90564e911abefbea888ac", "addresses": ["1HdjyBsJjsQMugcTBKKXWbL2NnFcAdsKUM"], "asm": "OP_DUP OP_HASH160 b674db0d21d1c883032a84f90564e911abefbea8 OP_EQUALVERIFY OP_CHECKSIG", "type": "pubkeyhash"}, "value": 0.36779182, "n": 1}], "hex": "010000000173d95ae3caee249d6933073eb971ccf67959cc6f7f1aa44ed018c4b54503418a000000006a473044022022ff084ea42f30c07462787bb9966f9345c161af49317dfca69a541390d97d5302202a2d5b3d549cca92659bb2c4e2011312791d36557f2e07ff6dee147e82f3db75012103f3f44c9e80e2cedc1a2909631a3adea8866ee32187f74d0912387359b0ff36a2ffffffff02f0d46401000000001976a914a520c86a08366941cd90d22e11ac1c7eefa2db3788acae343102000000001976a914b674db0d21d1c883032a84f90564e911abefbea888ac00000000", "vin": [{"sequence": 4294967295, "scriptSig": {"hex": "473044022022ff084ea42f30c07462787bb9966f9345c161af49317dfca69a541390d97d5302202a2d5b3d549cca92659bb2c4e2011312791d36557f2e07ff6dee147e82f3db75012103f3f44c9e80e2cedc1a2909631a3adea8866ee32187f74d0912387359b0ff36a2", "asm": "3044022022ff084ea42f30c07462787bb9966f9345c161af49317dfca69a541390d97d5302202a2d5b3d549cca92659bb2c4e2011312791d36557f2e07ff6dee147e82f3db75[ALL] 03f3f44c9e80e2cedc1a2909631a3adea8866ee32187f74d0912387359b0ff36a2"}, "vout": 0, "txid": "8a410345b5c418d04ea41a7f6fcc5979f6cc71b93e0733699d24eecae35ad973"}], "txid": "e2e4b6558d03d69d1ae49ecb3947f5f90a475fb5f75f358f470eaac6e067e257", "blocktime": 1537873891, "version": 1, "confirmations": 11475, "time": 1537873891, "locktime": 0, "vsize": 225, "size": 225}