{"hash": "e2ec1529583baa9c691a6d8f13e5357e3b8b6af3b7f63035f012f1100fc09ba1", "blockhash": "0000000000000000001cda96e906b7601b7a6fb1a3b62bca570a9e5d8f4b3de1", "vout": [{"scriptPubKey": {"reqSigs": 1, "hex": "76a9146b08f4b7924c1c60ad30172271a333159308e62e88ac", "addresses": ["1Akx2o5j2pLE1A5fXKuDPkCtX19Vepeygx"], "asm": "OP_DUP OP_HASH160 6b08f4b7924c1c60ad30172271a333159308e62e OP_EQUALVERIFY OP_CHECKSIG", "type": "pubkeyhash"}, "value": 0.0003404, "n": 0}, {"scriptPubKey": {"reqSigs": 1, "hex": "a914d47ba691a8e71e45d918e729395ccd6e783c805f87", "addresses": ["3M4XJcMFFS5TcpamQE7n7Lw5Yp7Ksb1iKX"], "asm": "OP_HASH160 d47ba691a8e71e45d918e729395ccd6e783c805f OP_EQUAL", "type": "scripthash"}, "value": 0.294, "n": 1}], "hex": "0100000004bb20866cf18cc211e3689c0abf329bd8105b21e1d6d5850624fbaf119ef60922000000006b483045022100fc756b4001e22bf6fb809d5f8310e98736553190f42091224c675ce4690f6fa802206251a1901737d61399c04c984633f141733ae7257957dffae8a1df1bfa053d20012103cf459d1992b57da9b7399da489641865100b46ca22dffb20ad191818ede26976ffffffff5dd7bf2f290bf98e2714f2e4318734c3eb682bf369b18d16d8b9c27ab4c3b953000000006b483045022100c1ca3a481d418703659fe3fe7032e59724ce960c6351d676894cd5da9933afe7022052b5f533c7bcfd8f088b2d72de9fec452b785c6199e0f128a131c361a3017029012103369cd7dc236e60cb846cc9ccc15280dbebd88ef5442080fa2b036b94a8df53cfffffffff8e81769b4973395ab485a6f76afcd4f9ee8c72caeb403a969fda1bd97da17fa9010000006b483045022100d9a703473f3b5c33a52da863fd10a5b5aa30864e4b613aab3870dafc1a69a077022002f21bba7975ea004ebc1fc0287beddfd4ae0e3b17bdad2c027f684675b0348001210205bcbc7b1eba3f1af8d14e50bf4a8d69cf74a1d8c71d1b1e5f855a61a2618a29ffffffff94fcacfd24eaac05c868e57c20a543ca4012e027b66081cd558ccc563b23db01010000006b483045022100cb7190ca2348a5f9da10d202e6999865b65573f58ace1f888b4d5728efae8638022074dacc084c9235920ec1af77d023b4350533fd435581c4ebd4b963d0612aefd8012103c7720f3700f2e329dc49e11fc4ed3b584227e88e08a6cd2111704854cfccdd67ffffffff02f8840000000000001976a9146b08f4b7924c1c60ad30172271a333159308e62e88acc09bc0010000000017a914d47ba691a8e71e45d918e729395ccd6e783c805f8700000000", "vin": [{"sequence": 4294967295, "scriptSig": {"hex": "483045022100fc756b4001e22bf6fb809d5f8310e98736553190f42091224c675ce4690f6fa802206251a1901737d61399c04c984633f141733ae7257957dffae8a1df1bfa053d20012103cf459d1992b57da9b7399da489641865100b46ca22dffb20ad191818ede26976", "asm": "3045022100fc756b4001e22bf6fb809d5f8310e98736553190f42091224c675ce4690f6fa802206251a1901737d61399c04c984633f141733ae7257957dffae8a1df1bfa053d20[ALL] 03cf459d1992b57da9b7399da489641865100b46ca22dffb20ad191818ede26976"}, "vout": 0, "txid": "2209f69e11affb240685d5d6e1215b10d89b32bf0a9c68e311c28cf16c8620bb"}, {"sequence": 4294967295, "scriptSig": {"hex": "483045022100c1ca3a481d418703659fe3fe7032e59724ce960c6351d676894cd5da9933afe7022052b5f533c7bcfd8f088b2d72de9fec452b785c6199e0f128a131c361a3017029012103369cd7dc236e60cb846cc9ccc15280dbebd88ef5442080fa2b036b94a8df53cf", "asm": "3045022100c1ca3a481d418703659fe3fe7032e59724ce960c6351d676894cd5da9933afe7022052b5f533c7bcfd8f088b2d72de9fec452b785c6199e0f128a131c361a3017029[ALL] 03369cd7dc236e60cb846cc9ccc15280dbebd88ef5442080fa2b036b94a8df53cf"}, "vout": 0, "txid": "53b9c3b47ac2b9d8168db169f32b68ebc3348731e4f214278ef90b292fbfd75d"}, {"sequence": 4294967295, "scriptSig": {"hex": "483045022100d9a703473f3b5c33a52da863fd10a5b5aa30864e4b613aab3870dafc1a69a077022002f21bba7975ea004ebc1fc0287beddfd4ae0e3b17bdad2c027f684675b0348001210205bcbc7b1eba3f1af8d14e50bf4a8d69cf74a1d8c71d1b1e5f855a61a2618a29", "asm": "3045022100d9a703473f3b5c33a52da863fd10a5b5aa30864e4b613aab3870dafc1a69a077022002f21bba7975ea004ebc1fc0287beddfd4ae0e3b17bdad2c027f684675b03480[ALL] 0205bcbc7b1eba3f1af8d14e50bf4a8d69cf74a1d8c71d1b1e5f855a61a2618a29"}, "vout": 1, "txid": "a97fa17dd91bda9f963a40ebca728ceef9d4fc6af7a685b45a3973499b76818e"}, {"sequence": 4294967295, "scriptSig": {"hex": "483045022100cb7190ca2348a5f9da10d202e6999865b65573f58ace1f888b4d5728efae8638022074dacc084c9235920ec1af77d023b4350533fd435581c4ebd4b963d0612aefd8012103c7720f3700f2e329dc49e11fc4ed3b584227e88e08a6cd2111704854cfccdd67", "asm": "3045022100cb7190ca2348a5f9da10d202e6999865b65573f58ace1f888b4d5728efae8638022074dacc084c9235920ec1af77d023b4350533fd435581c4ebd4b963d0612aefd8[ALL] 03c7720f3700f2e329dc49e11fc4ed3b584227e88e08a6cd2111704854cfccdd67"}, "vout": 1, "txid": "01db233b56cc8c55cd8160b627e01240ca43a5207ce568c805acea24fdacfc94"}], "txid": "e2ec1529583baa9c691a6d8f13e5357e3b8b6af3b7f63035f012f1100fc09ba1", "blocktime": 1537873282, "version": 1, "confirmations": 11484, "time": 1537873282, "locktime": 0, "vsize": 668, "size": 668}