{"hash": "e2f037abb0f8cbd66c053e7894c919e830227aa6074648500f3c156e20391b67", "blockhash": "0000000000000000001cda96e906b7601b7a6fb1a3b62bca570a9e5d8f4b3de1", "vout": [{"scriptPubKey": {"reqSigs": 1, "hex": "a9144dfd898ec1b75a823f2eef4b40eaba33e2c5ca1c87", "addresses": ["38oPgQ1YiTKB1j34oHyLUvS4EWEiYEEpLf"], "asm": "OP_HASH160 4dfd898ec1b75a823f2eef4b40eaba33e2c5ca1c OP_EQUAL", "type": "scripthash"}, "value": 0.0308, "n": 0}, {"scriptPubKey": {"reqSigs": 1, "hex": "76a91407ff4787aad1cfd50689a1374a3508e73599386388ac", "addresses": ["1jHYU7UPFByjjbzqoyeGEixoMii9kx1sy"], "asm": "OP_DUP OP_HASH160 07ff4787aad1cfd50689a1374a3508e735993863 OP_EQUALVERIFY OP_CHECKSIG", "type": "pubkeyhash"}, "value": 0.00836018, "n": 1}], "hex": "02000000057f803f7e022f5381cb54a48f56fb174bb943e9639b68b1fe02838007b741ee9e2e0100006b483045022100c5e74ff0aaaf6b03510a07cad41f8175497937fa1dd413c25d2e7a33cefa19af0220670977252095061445ed74fbd400a61b77e2cf6cef26174620df73558bb9a4f5012102c011e94e6acdaeb9417ff229a9e933169ee802f37fb8fdafd242a421686d38d4feffffff7f803f7e022f5381cb54a48f56fb174bb943e9639b68b1fe02838007b741ee9e390300006b483045022100815cda40a01758d62051f0cd38cf2d30f89d8298e3d3a1348ba2de1df872288502207ac501957dcc83b6b330bfdd004d63f2e95272015d5603c823a7270491d5c655012102568be4f4772f9ad211e6d5c324af8bfe42d32128d46a8e4ddaa3078b4202fa65feffffffc94e8c74799a572d24733441d7acd5866318465b896cb2281c09bcbeded89f056a0000006b483045022100c2c5b282d67db9cccd48bff4af42ce94f6b8e7172d3f1aa7f48c444f1b5c5cad0220440f9c34b9736b56b8e7113eebcc0b9987ed7e6571324acea22144367e723bca0121020ec5302a21719e785780e107b14fe4fdbfe3fdf66ccc062e6ba8652d64c382f1feffffff5d500b81072d828b3e8679e89099ca64f4286111edd7f47f90bb2e06f9fd459cad0000006b483045022100f05d3c4ef828ae171b361107fac1e7285e6ae87b66ce95857ca48d65e0ad68c5022007a74236e52caecd439ee1ce2794a019e06e69e81fc94b3361132d7f4651e7cc012102db45134eaf1de999ab87ae56f7fa40b191d633a5434aecd6fc145848ecbf482cfeffffff2e1f65ceae369b463c19082573d4b4562d39986673926d118c3bc260ca795dfd0c0000006a473044022038d54122f11eda99c3ccbc9c2b12088b8a1cfc288158c7eb2b3385cbaaa0445302205740808de9b857975c0919059adf594e6bb472b995abf836672aa03af1774080012103ed87ec1d1a122c528d5a4137f743651e4c84a58184260359adcf911109aa71b3feffffff0240ff2e000000000017a9144dfd898ec1b75a823f2eef4b40eaba33e2c5ca1c87b2c10c00000000001976a91407ff4787aad1cfd50689a1374a3508e73599386388ac12490800", "vin": [{"sequence": 4294967294, "scriptSig": {"hex": "483045022100c5e74ff0aaaf6b03510a07cad41f8175497937fa1dd413c25d2e7a33cefa19af0220670977252095061445ed74fbd400a61b77e2cf6cef26174620df73558bb9a4f5012102c011e94e6acdaeb9417ff229a9e933169ee802f37fb8fdafd242a421686d38d4", "asm": "3045022100c5e74ff0aaaf6b03510a07cad41f8175497937fa1dd413c25d2e7a33cefa19af0220670977252095061445ed74fbd400a61b77e2cf6cef26174620df73558bb9a4f5[ALL] 02c011e94e6acdaeb9417ff229a9e933169ee802f37fb8fdafd242a421686d38d4"}, "vout": 302, "txid": "9eee41b707808302feb1689b63e943b94b17fb568fa454cb81532f027e3f807f"}, {"sequence": 4294967294, "scriptSig": {"hex": "483045022100815cda40a01758d62051f0cd38cf2d30f89d8298e3d3a1348ba2de1df872288502207ac501957dcc83b6b330bfdd004d63f2e95272015d5603c823a7270491d5c655012102568be4f4772f9ad211e6d5c324af8bfe42d32128d46a8e4ddaa3078b4202fa65", "asm": "3045022100815cda40a01758d62051f0cd38cf2d30f89d8298e3d3a1348ba2de1df872288502207ac501957dcc83b6b330bfdd004d63f2e95272015d5603c823a7270491d5c655[ALL] 02568be4f4772f9ad211e6d5c324af8bfe42d32128d46a8e4ddaa3078b4202fa65"}, "vout": 825, "txid": "9eee41b707808302feb1689b63e943b94b17fb568fa454cb81532f027e3f807f"}, {"sequence": 4294967294, "scriptSig": {"hex": "483045022100c2c5b282d67db9cccd48bff4af42ce94f6b8e7172d3f1aa7f48c444f1b5c5cad0220440f9c34b9736b56b8e7113eebcc0b9987ed7e6571324acea22144367e723bca0121020ec5302a21719e785780e107b14fe4fdbfe3fdf66ccc062e6ba8652d64c382f1", "asm": "3045022100c2c5b282d67db9cccd48bff4af42ce94f6b8e7172d3f1aa7f48c444f1b5c5cad0220440f9c34b9736b56b8e7113eebcc0b9987ed7e6571324acea22144367e723bca[ALL] 020ec5302a21719e785780e107b14fe4fdbfe3fdf66ccc062e6ba8652d64c382f1"}, "vout": 106, "txid": "059fd8debebc091c28b26c895b46186386d5acd7413473242d579a79748c4ec9"}, {"sequence": 4294967294, "scriptSig": {"hex": "483045022100f05d3c4ef828ae171b361107fac1e7285e6ae87b66ce95857ca48d65e0ad68c5022007a74236e52caecd439ee1ce2794a019e06e69e81fc94b3361132d7f4651e7cc012102db45134eaf1de999ab87ae56f7fa40b191d633a5434aecd6fc145848ecbf482c", "asm": "3045022100f05d3c4ef828ae171b361107fac1e7285e6ae87b66ce95857ca48d65e0ad68c5022007a74236e52caecd439ee1ce2794a019e06e69e81fc94b3361132d7f4651e7cc[ALL] 02db45134eaf1de999ab87ae56f7fa40b191d633a5434aecd6fc145848ecbf482c"}, "vout": 173, "txid": "9c45fdf9062ebb907ff4d7ed116128f464ca9990e879863e8b822d07810b505d"}, {"sequence": 4294967294, "scriptSig": {"hex": "473044022038d54122f11eda99c3ccbc9c2b12088b8a1cfc288158c7eb2b3385cbaaa0445302205740808de9b857975c0919059adf594e6bb472b995abf836672aa03af1774080012103ed87ec1d1a122c528d5a4137f743651e4c84a58184260359adcf911109aa71b3", "asm": "3044022038d54122f11eda99c3ccbc9c2b12088b8a1cfc288158c7eb2b3385cbaaa0445302205740808de9b857975c0919059adf594e6bb472b995abf836672aa03af1774080[ALL] 03ed87ec1d1a122c528d5a4137f743651e4c84a58184260359adcf911109aa71b3"}, "vout": 12, "txid": "fd5d79ca60c23b8c116d92736698392d56b4d4732508193c469b36aece651f2e"}], "txid": "e2f037abb0f8cbd66c053e7894c919e830227aa6074648500f3c156e20391b67", "blocktime": 1537873282, "version": 2, "confirmations": 11480, "time": 1537873282, "locktime": 542994, "vsize": 815, "size": 815}