{"hash": "e2f05767bb343ff0ac6632becd1917615eaa511d49ca33c15bba26d47d724575", "blockhash": "00000000000000000017f5eb5941039fbcee6240d03bc1f2f8e35350df66a1d8", "vout": [{"scriptPubKey": {"reqSigs": 1, "hex": "76a914beeffd8359389757f2c4c6116e3ef6eea1678d9888ac", "addresses": ["1JQatGNweQ8qTyGCiCDLYFdGMraqsfjtZk"], "asm": "OP_DUP OP_HASH160 beeffd8359389757f2c4c6116e3ef6eea1678d98 OP_EQUALVERIFY OP_CHECKSIG", "type": "pubkeyhash"}, "value": 1.748e-05, "n": 0}, {"scriptPubKey": {"reqSigs": 1, "hex": "a914ad3627db3f861a99f53ec8562de126406631241a87", "addresses": ["3HUshXuWv6DSxv3mEVsJv3vxBC5z25F2G3"], "asm": "OP_HASH160 ad3627db3f861a99f53ec8562de126406631241a OP_EQUAL", "type": "scripthash"}, "value": 0.00374786, "n": 1}], "hex": "01000000036251e44df094208fc95fa4d69d67375b676f33f541add48358267d2e5a3e63cf090000006a473044022005df5fe62b1deb282c1dc065fa2841a42ef0fb843dbc838d8531109f74b289b0022019f2127b57d6a170d25690498684ba2c1c9052be76a7f112379fe3ecdf2105c10121021754e4207a668e40a7ba3e107c1ed5e6470f60a9b374db14c660804b95204024fffffffff0048cc6724124b9a6d184d7118faf2e44c4f15f7149633f27f154ebdcf699ec000000006b483045022100b39dfdaae0ea4bbee41dcdf50b54f8bde6f5bebf9191655eef4f850ac61dea100220701d376f9cf9d1cec641a55b3e90b71047cd4aef5760217cceecb95cbccf1c38012102930d63cec538e20d9aecafcdce9dfd0c41005e5f7af732672748f56c1a6cbe59ffffffff0b85389aac804ff9561fc94d01486c2a706029e1116532a23394d2618043e7f8000000006a47304402201fc368d850a1bf08ff12cc0b34c4c96f967a3b326d345e6d154d01d8f85ed12e0220670343b54d935a162182dd1abdf16982d5d4ea9f48acee89a48da57fa5f9a2de012103f79c44fe789e6effad9a4d1e01718c47643e9060d91301f7d4b4bf0f87f8c3b4ffffffff02d4060000000000001976a914beeffd8359389757f2c4c6116e3ef6eea1678d9888ac02b805000000000017a914ad3627db3f861a99f53ec8562de126406631241a8700000000", "vin": [{"sequence": 4294967295, "scriptSig": {"hex": "473044022005df5fe62b1deb282c1dc065fa2841a42ef0fb843dbc838d8531109f74b289b0022019f2127b57d6a170d25690498684ba2c1c9052be76a7f112379fe3ecdf2105c10121021754e4207a668e40a7ba3e107c1ed5e6470f60a9b374db14c660804b95204024", "asm": "3044022005df5fe62b1deb282c1dc065fa2841a42ef0fb843dbc838d8531109f74b289b0022019f2127b57d6a170d25690498684ba2c1c9052be76a7f112379fe3ecdf2105c1[ALL] 021754e4207a668e40a7ba3e107c1ed5e6470f60a9b374db14c660804b95204024"}, "vout": 9, "txid": "cf633e5a2e7d265883d4ad41f5336f675b37679dd6a45fc98f2094f04de45162"}, {"sequence": 4294967295, "scriptSig": {"hex": "483045022100b39dfdaae0ea4bbee41dcdf50b54f8bde6f5bebf9191655eef4f850ac61dea100220701d376f9cf9d1cec641a55b3e90b71047cd4aef5760217cceecb95cbccf1c38012102930d63cec538e20d9aecafcdce9dfd0c41005e5f7af732672748f56c1a6cbe59", "asm": "3045022100b39dfdaae0ea4bbee41dcdf50b54f8bde6f5bebf9191655eef4f850ac61dea100220701d376f9cf9d1cec641a55b3e90b71047cd4aef5760217cceecb95cbccf1c38[ALL] 02930d63cec538e20d9aecafcdce9dfd0c41005e5f7af732672748f56c1a6cbe59"}, "vout": 0, "txid": "ec99f6dceb54f1273f6349715ff1c4442eaf8f11d784d1a6b9244172c68c04f0"}, {"sequence": 4294967295, "scriptSig": {"hex": "47304402201fc368d850a1bf08ff12cc0b34c4c96f967a3b326d345e6d154d01d8f85ed12e0220670343b54d935a162182dd1abdf16982d5d4ea9f48acee89a48da57fa5f9a2de012103f79c44fe789e6effad9a4d1e01718c47643e9060d91301f7d4b4bf0f87f8c3b4", "asm": "304402201fc368d850a1bf08ff12cc0b34c4c96f967a3b326d345e6d154d01d8f85ed12e0220670343b54d935a162182dd1abdf16982d5d4ea9f48acee89a48da57fa5f9a2de[ALL] 03f79c44fe789e6effad9a4d1e01718c47643e9060d91301f7d4b4bf0f87f8c3b4"}, "vout": 0, "txid": "f8e7438061d29433a2326511e12960702a6c48014dc91f56f94f80ac9a38850b"}], "txid": "e2f05767bb343ff0ac6632becd1917615eaa511d49ca33c15bba26d47d724575", "blocktime": 1537874412, "version": 1, "confirmations": 11468, "time": 1537874412, "locktime": 0, "vsize": 518, "size": 518}