{"hash": "e2f1439892e59e45f556b6d39b4556e9e649f834dfbcc364ef2cab329222f39a", "blockhash": "0000000000000000001f76057863aec43deb6fa401d9628bb513d65a8098bfab", "vout": [{"scriptPubKey": {"reqSigs": 1, "hex": "a9148d619e731316c4b828cc7cc923faa864ad99869687", "addresses": ["3Eaa9Gu9W8kqGFQKFRvKnBQYu3dtEvNqbL"], "asm": "OP_HASH160 8d619e731316c4b828cc7cc923faa864ad998696 OP_EQUAL", "type": "scripthash"}, "value": 0.00221014, "n": 0}, {"scriptPubKey": {"reqSigs": 1, "hex": "a91449b2f3112f553f771b7ed3d74f784bd5a325620b87", "addresses": ["38QhdB7vXri76g81aMt6UbEsQNLhk7gTMv"], "asm": "OP_HASH160 49b2f3112f553f771b7ed3d74f784bd5a325620b OP_EQUAL", "type": "scripthash"}, "value": 0.01899473, "n": 1}], "hex": "02000000019d1d5868aa12678e3bed12ef7e2f7acde629f5cc55f027cf940af8e7d5eacc8801000000fdfe000048304502210088995c8c536b04f6f59ed3bfcd3c2af27ac8734170d5f9132b01a3d23a7066ee02201d9200b46ef3d99e09586b0b00fa0143f4d7dbd5404b715988c802c9193d84c501483045022100a38f9cb32aa3b2e95130aa1c68fd3386a87aa014f141b2ec3a58b2fa503a7dc802207bece919df20f04214b71caf1bdb79f18d08b1958950b4f2b7ab3f3040fe6ac5014c69522102ffa5fa917a56716dbb4cfa98c8cc0b7587dc491dcacc994e67b064f345c4d725210332ecd4548709d37033f4546954ec0791ca185651172e381ed0c800686ab26eee2103c27c4bbb4817a8ee5e25ad9f67ee7b19222b46b4e0f5dc67e172efd286d48b6753aeffffffff02565f03000000000017a9148d619e731316c4b828cc7cc923faa864ad99869687d1fb1c000000000017a91449b2f3112f553f771b7ed3d74f784bd5a325620b8700000000", "vin": [{"sequence": 4294967295, "scriptSig": {"hex": "0048304502210088995c8c536b04f6f59ed3bfcd3c2af27ac8734170d5f9132b01a3d23a7066ee02201d9200b46ef3d99e09586b0b00fa0143f4d7dbd5404b715988c802c9193d84c501483045022100a38f9cb32aa3b2e95130aa1c68fd3386a87aa014f141b2ec3a58b2fa503a7dc802207bece919df20f04214b71caf1bdb79f18d08b1958950b4f2b7ab3f3040fe6ac5014c69522102ffa5fa917a56716dbb4cfa98c8cc0b7587dc491dcacc994e67b064f345c4d725210332ecd4548709d37033f4546954ec0791ca185651172e381ed0c800686ab26eee2103c27c4bbb4817a8ee5e25ad9f67ee7b19222b46b4e0f5dc67e172efd286d48b6753ae", "asm": "0 304502210088995c8c536b04f6f59ed3bfcd3c2af27ac8734170d5f9132b01a3d23a7066ee02201d9200b46ef3d99e09586b0b00fa0143f4d7dbd5404b715988c802c9193d84c5[ALL] 3045022100a38f9cb32aa3b2e95130aa1c68fd3386a87aa014f141b2ec3a58b2fa503a7dc802207bece919df20f04214b71caf1bdb79f18d08b1958950b4f2b7ab3f3040fe6ac5[ALL] 522102ffa5fa917a56716dbb4cfa98c8cc0b7587dc491dcacc994e67b064f345c4d725210332ecd4548709d37033f4546954ec0791ca185651172e381ed0c800686ab26eee2103c27c4bbb4817a8ee5e25ad9f67ee7b19222b46b4e0f5dc67e172efd286d48b6753ae"}, "vout": 1, "txid": "88ccead5e7f80a94cf27f055ccf529e6cd7a2f7eef12ed3b8e6712aa68581d9d"}], "txid": "e2f1439892e59e45f556b6d39b4556e9e649f834dfbcc364ef2cab329222f39a", "blocktime": 1537873891, "version": 2, "confirmations": 11478, "time": 1537873891, "locktime": 0, "vsize": 371, "size": 371}