{"hash": "e2f443d7907f4685f05cd1abac09f40ca598118c99c33726bb8fb06c7672788f", "blockhash": "0000000000000000000e13cef7c366c0283d82e591d1acd082e914b08063cdf1", "vout": [{"scriptPubKey": {"reqSigs": 1, "hex": "a9141645d527486cb7b64952aa3354a88e3d4653a11f87", "addresses": ["33inSpXcv4xSCrycfj6eDXbzAYqy472aL3"], "asm": "OP_HASH160 1645d527486cb7b64952aa3354a88e3d4653a11f OP_EQUAL", "type": "scripthash"}, "value": 0.008092, "n": 0}, {"scriptPubKey": {"reqSigs": 1, "hex": "76a91447a02045aa95c5ac522b9243e4fb4ecaddad436688ac", "addresses": ["17XioNggoEKd5yHeqfKJAwx9uG7bRwHYTE"], "asm": "OP_DUP OP_HASH160 47a02045aa95c5ac522b9243e4fb4ecaddad4366 OP_EQUALVERIFY OP_CHECKSIG", "type": "pubkeyhash"}, "value": 0.2401632, "n": 1}], "hex": "01000000019aeac5e89c1dfe0a4fd0ad091f9d5e17fecbd90f69b33532ed39e5b49ef6168b010000006b48304502210087f2e39d9fb03c58d3260b437f995306603cea01c882f3dd2b8ff967fe314cd002201779f7f917cc9f01c2ed6613c520b184968e6bb19f9a6b350d05b6f83462eb710121024e44557f95b78682855d55daa0378318089bb21ffb5e581e6162d4fa10304496ffffffff02f0580c000000000017a9141645d527486cb7b64952aa3354a88e3d4653a11f87c0756e01000000001976a91447a02045aa95c5ac522b9243e4fb4ecaddad436688ac00000000", "vin": [{"sequence": 4294967295, "scriptSig": {"hex": "48304502210087f2e39d9fb03c58d3260b437f995306603cea01c882f3dd2b8ff967fe314cd002201779f7f917cc9f01c2ed6613c520b184968e6bb19f9a6b350d05b6f83462eb710121024e44557f95b78682855d55daa0378318089bb21ffb5e581e6162d4fa10304496", "asm": "304502210087f2e39d9fb03c58d3260b437f995306603cea01c882f3dd2b8ff967fe314cd002201779f7f917cc9f01c2ed6613c520b184968e6bb19f9a6b350d05b6f83462eb71[ALL] 024e44557f95b78682855d55daa0378318089bb21ffb5e581e6162d4fa10304496"}, "vout": 1, "txid": "8b16f69eb4e539ed3235b3690fd9cbfe175e9d1f09add04f0afe1d9ce8c5ea9a"}], "txid": "e2f443d7907f4685f05cd1abac09f40ca598118c99c33726bb8fb06c7672788f", "blocktime": 1537871767, "version": 1, "confirmations": 11495, "time": 1537871767, "locktime": 0, "vsize": 224, "size": 224}