{"hash": "e2fc65f38fb420fbb6e2c8e1310f11e82faedc63da596353e3cf5539ea173d91", "blockhash": "00000000000000000004ffacab907a6b429b9a5745fa0b75af4234bf69dd7176", "vout": [{"scriptPubKey": {"type": "nulldata", "hex": "6a4c500000780100014e0ce0702940d64fa54d8eb2d19ed074892d00f8e87af8e8e963c7cfd5b9f3e263dabad4372658501355ed46101e5baa1a040613867adde0ad2bc288b2720c27cdda35b5f050e1b42260", "asm": "OP_RETURN 0000780100014e0ce0702940d64fa54d8eb2d19ed074892d00f8e87af8e8e963c7cfd5b9f3e263dabad4372658501355ed46101e5baa1a040613867adde0ad2bc288b2720c27cdda35b5f050e1b42260"}, "value": 0.0, "n": 0}, {"scriptPubKey": {"reqSigs": 1, "hex": "76a9147e3b01d02f7d4beac7bf68e2d4da1aef073f51b188ac", "addresses": ["1CWSq4Amok3wDGw6b9QRmc4NEj5EaKYkXu"], "asm": "OP_DUP OP_HASH160 7e3b01d02f7d4beac7bf68e2d4da1aef073f51b1 OP_EQUALVERIFY OP_CHECKSIG", "type": "pubkeyhash"}, "value": 0.0013071, "n": 1}], "hex": "01000000010941a1482fb3ffa3960b35651f1fc8a73afa0feaff11586cfe40b7a5f4de1da1000000006b483045022100a9d90d6b4618ce78ead53ffc01972acd54ea157912866923386a89bbd800dfc90220763554a26286179a2da51a5615966b170a0fef9f0ed323cf090ce4d0cab8da70012103400542f4df7465025ec3290d73d989b11917393f1a9226a9d93fc548488f0fbaffffffff020000000000000000536a4c500000780100014e0ce0702940d64fa54d8eb2d19ed074892d00f8e87af8e8e963c7cfd5b9f3e263dabad4372658501355ed46101e5baa1a040613867adde0ad2bc288b2720c27cdda35b5f050e1b4226096fe0100000000001976a9147e3b01d02f7d4beac7bf68e2d4da1aef073f51b188ac00000000", "vin": [{"sequence": 4294967295, "scriptSig": {"hex": "483045022100a9d90d6b4618ce78ead53ffc01972acd54ea157912866923386a89bbd800dfc90220763554a26286179a2da51a5615966b170a0fef9f0ed323cf090ce4d0cab8da70012103400542f4df7465025ec3290d73d989b11917393f1a9226a9d93fc548488f0fba", "asm": "3045022100a9d90d6b4618ce78ead53ffc01972acd54ea157912866923386a89bbd800dfc90220763554a26286179a2da51a5615966b170a0fef9f0ed323cf090ce4d0cab8da70[ALL] 03400542f4df7465025ec3290d73d989b11917393f1a9226a9d93fc548488f0fba"}, "vout": 0, "txid": "a11ddef4a5b740fe6c5811ffea0ffa3aa7c81f1f65350b96a3ffb32f48a14109"}], "txid": "e2fc65f38fb420fbb6e2c8e1310f11e82faedc63da596353e3cf5539ea173d91", "blocktime": 1537875543, "version": 1, "confirmations": 11464, "time": 1537875543, "locktime": 0, "vsize": 284, "size": 284}