{"hash": "e2fd23e3b62568953a23e94a2be7e6911990dea3ee3ffbd4a19a4273ecf57a1a", "blockhash": "0000000000000000000dcc0f55137456b1a82d3642486a52398922ac4d620174", "vout": [{"scriptPubKey": {"reqSigs": 1, "hex": "a9145ab2207674b8a4fdfae6f9601450c0d5d8ebee7b87", "addresses": ["39xa8GxtPXEyj5pfbgmQCtgsFgcpJQcPXM"], "asm": "OP_HASH160 5ab2207674b8a4fdfae6f9601450c0d5d8ebee7b OP_EQUAL", "type": "scripthash"}, "value": 0.00355, "n": 0}, {"scriptPubKey": {"reqSigs": 1, "hex": "76a914bf7419526a7800bc8a1924a3d3f557ed3776000b88ac", "addresses": ["1JTK9LM6iFggyA4Ge4G4kNkyk1R6sNR4xV"], "asm": "OP_DUP OP_HASH160 bf7419526a7800bc8a1924a3d3f557ed3776000b OP_EQUALVERIFY OP_CHECKSIG", "type": "pubkeyhash"}, "value": 0.05778927, "n": 1}], "hex": "0100000001b3d3f029fcbd2c9df9c85b5021adb9e5dcc8effd7e8d646b5469fc71aa398650010000006a47304402202dc5aae8becbaa8cd639ebfbc95bce9980d9e5616334431952bb135d331aa0c902201845f6f3bb36e846a1e0a4d8beed160191f370506c202d1e8590afc47c0ca8dd0121029dc317fceddcb4c9d973e76f08a4a3895807024fe8ad2b636dcdc4741b81c299ffffffff02b86a05000000000017a9145ab2207674b8a4fdfae6f9601450c0d5d8ebee7b87ef2d5800000000001976a914bf7419526a7800bc8a1924a3d3f557ed3776000b88ac00000000", "vin": [{"sequence": 4294967295, "scriptSig": {"hex": "47304402202dc5aae8becbaa8cd639ebfbc95bce9980d9e5616334431952bb135d331aa0c902201845f6f3bb36e846a1e0a4d8beed160191f370506c202d1e8590afc47c0ca8dd0121029dc317fceddcb4c9d973e76f08a4a3895807024fe8ad2b636dcdc4741b81c299", "asm": "304402202dc5aae8becbaa8cd639ebfbc95bce9980d9e5616334431952bb135d331aa0c902201845f6f3bb36e846a1e0a4d8beed160191f370506c202d1e8590afc47c0ca8dd[ALL] 029dc317fceddcb4c9d973e76f08a4a3895807024fe8ad2b636dcdc4741b81c299"}, "vout": 1, "txid": "508639aa71fc69546b648d7efdefc8dce5b9ad21505bc8f99d2cbdfc29f0d3b3"}], "txid": "e2fd23e3b62568953a23e94a2be7e6911990dea3ee3ffbd4a19a4273ecf57a1a", "blocktime": 1537870268, "version": 1, "confirmations": 11516, "time": 1537870268, "locktime": 0, "vsize": 223, "size": 223}