{"hash": "e2fd89ccc445d6171461149e095a537a2ac09f7ed60532647ab775ac52447b3d", "blockhash": "0000000000000000000dcc0f55137456b1a82d3642486a52398922ac4d620174", "vout": [{"scriptPubKey": {"reqSigs": 1, "hex": "76a9149cb1a30139d299b4c4b38397a10c9f1accabe35d88ac", "addresses": ["1FHXDLryLkWEQvDnTUenc65r22cyBXWwhG"], "asm": "OP_DUP OP_HASH160 9cb1a30139d299b4c4b38397a10c9f1accabe35d OP_EQUALVERIFY OP_CHECKSIG", "type": "pubkeyhash"}, "value": 0.00031191, "n": 0}, {"scriptPubKey": {"reqSigs": 1, "hex": "76a9145d80e696e742d7e85fdd181331ace7ac926ca8ee88ac", "addresses": ["19XQG2CWkBdA7GwmAvfQy1iv7vdatcjcrx"], "asm": "OP_DUP OP_HASH160 5d80e696e742d7e85fdd181331ace7ac926ca8ee OP_EQUALVERIFY OP_CHECKSIG", "type": "pubkeyhash"}, "value": 0.00056226, "n": 1}], "hex": "0100000001bcb0a33e2644ce9279096357c630e4a23e47e1a291190e6c9e191684502a3357010000006a47304402201ff8b551436376b8d5ebc035ee692410259e487e97a0b28d64e5673c9735dee802207238a0f7a2e063e0de7fd1ea0caa69fa967d72a83463f4bd16ddbd83f177ca7401210313477c69381804c1ffae9af3c224587a6bdfc120ff9dddf180540639051f29f5ffffffff02d7790000000000001976a9149cb1a30139d299b4c4b38397a10c9f1accabe35d88aca2db0000000000001976a9145d80e696e742d7e85fdd181331ace7ac926ca8ee88ac00000000", "vin": [{"sequence": 4294967295, "scriptSig": {"hex": "47304402201ff8b551436376b8d5ebc035ee692410259e487e97a0b28d64e5673c9735dee802207238a0f7a2e063e0de7fd1ea0caa69fa967d72a83463f4bd16ddbd83f177ca7401210313477c69381804c1ffae9af3c224587a6bdfc120ff9dddf180540639051f29f5", "asm": "304402201ff8b551436376b8d5ebc035ee692410259e487e97a0b28d64e5673c9735dee802207238a0f7a2e063e0de7fd1ea0caa69fa967d72a83463f4bd16ddbd83f177ca74[ALL] 0313477c69381804c1ffae9af3c224587a6bdfc120ff9dddf180540639051f29f5"}, "vout": 1, "txid": "57332a508416199e6c0e1991a2e1473ea2e430c65763097992ce44263ea3b0bc"}], "txid": "e2fd89ccc445d6171461149e095a537a2ac09f7ed60532647ab775ac52447b3d", "blocktime": 1537870268, "version": 1, "confirmations": 11518, "time": 1537870268, "locktime": 0, "vsize": 225, "size": 225}