{"hash": "e2fd2e38220cc85ed4d57401fce16bf944a87af42bc153d02353dad3258484b8", "blockhash": "00000000000000000018f53835495a110e01622372bf6ae95dc86f2b0ab887b0", "vout": [{"scriptPubKey": {"reqSigs": 1, "hex": "76a914c7a27b2a020904faab0d4e3994181b81fc2eece588ac", "addresses": ["1KCa7ZTkDBoCFSUoeugYRnezpSxMzDscUd"], "asm": "OP_DUP OP_HASH160 c7a27b2a020904faab0d4e3994181b81fc2eece5 OP_EQUALVERIFY OP_CHECKSIG", "type": "pubkeyhash"}, "value": 0.010513, "n": 0}], "hex": "0100000003a8aadcf7f56354fad3784014a2012fec70372d41e0ff36c030f515794ab5d70e040000006a473044022053ed246a745a582efb868333c47501e0f0a102813c1b7907ec28b4696feda84d02205971eae7fd0d344da232446ad5936a6148df0e3062e6ebf4d4625357e8857719012102e4b577c384aa10a45981f8f2320f04718e984ffb92432645fedfd8bbbb126acefeffffffcfbe35dbfbb8efa0cd1fce067b09d2b2878694978eec7133f3deb666a3d8a9f0000000006a4730440220702ac92e4c0683ff524fe7251a765ef2be29bf72285f810eba1e14483e47dde80220624e37b5f27fdccadfceb31deef5c84a947024cdaba2c3b2bf16e0bde2f6569601210351539a72f96f31d56460f0eb531121ce0ed3b0241cc683aaace1f2e7755ad155feffffff0156b1af0a2bbdce6ff4eebfabb1aad16d38c6a64de90445d322a923021ecdfc000000006b483045022100b9e0f4895ea008376ecb004c813611726c99669c2a028943e488e0181cd578bf02205b5678a652f730b50be7ea17ac0734518c3aee2cf3ed43704f8f2e7c82851aa4012102a38323c6a91378317da199b4fe5f0454f7c5e6e213ad87d5cba6b3d616f30b0bfeffffff01a40a1000000000001976a914c7a27b2a020904faab0d4e3994181b81fc2eece588ac0e490800", "vin": [{"sequence": 4294967294, "scriptSig": {"hex": "473044022053ed246a745a582efb868333c47501e0f0a102813c1b7907ec28b4696feda84d02205971eae7fd0d344da232446ad5936a6148df0e3062e6ebf4d4625357e8857719012102e4b577c384aa10a45981f8f2320f04718e984ffb92432645fedfd8bbbb126ace", "asm": "3044022053ed246a745a582efb868333c47501e0f0a102813c1b7907ec28b4696feda84d02205971eae7fd0d344da232446ad5936a6148df0e3062e6ebf4d4625357e8857719[ALL] 02e4b577c384aa10a45981f8f2320f04718e984ffb92432645fedfd8bbbb126ace"}, "vout": 4, "txid": "0ed7b54a7915f530c036ffe0412d3770ec2f01a2144078d3fa5463f5f7dcaaa8"}, {"sequence": 4294967294, "scriptSig": {"hex": "4730440220702ac92e4c0683ff524fe7251a765ef2be29bf72285f810eba1e14483e47dde80220624e37b5f27fdccadfceb31deef5c84a947024cdaba2c3b2bf16e0bde2f6569601210351539a72f96f31d56460f0eb531121ce0ed3b0241cc683aaace1f2e7755ad155", "asm": "30440220702ac92e4c0683ff524fe7251a765ef2be29bf72285f810eba1e14483e47dde80220624e37b5f27fdccadfceb31deef5c84a947024cdaba2c3b2bf16e0bde2f65696[ALL] 0351539a72f96f31d56460f0eb531121ce0ed3b0241cc683aaace1f2e7755ad155"}, "vout": 0, "txid": "f0a9d8a366b6def33371ec8e97948687b2d2097b06ce1fcda0efb8fbdb35becf"}, {"sequence": 4294967294, "scriptSig": {"hex": "483045022100b9e0f4895ea008376ecb004c813611726c99669c2a028943e488e0181cd578bf02205b5678a652f730b50be7ea17ac0734518c3aee2cf3ed43704f8f2e7c82851aa4012102a38323c6a91378317da199b4fe5f0454f7c5e6e213ad87d5cba6b3d616f30b0b", "asm": "3045022100b9e0f4895ea008376ecb004c813611726c99669c2a028943e488e0181cd578bf02205b5678a652f730b50be7ea17ac0734518c3aee2cf3ed43704f8f2e7c82851aa4[ALL] 02a38323c6a91378317da199b4fe5f0454f7c5e6e213ad87d5cba6b3d616f30b0b"}, "vout": 0, "txid": "fccd1e0223a922d34504e94da6c6386dd1aab1abbfeef46fcebd2b0aafb15601"}], "txid": "e2fd2e38220cc85ed4d57401fce16bf944a87af42bc153d02353dad3258484b8", "blocktime": 1537870928, "version": 1, "confirmations": 11512, "time": 1537870928, "locktime": 542990, "vsize": 486, "size": 486}