{"hash": "e301045e43ce674b377595d157a06623ffb297a7d6755971f31804dabfb87d80", "blockhash": "0000000000000000001e0dab787dd257d1dbfcb92a98c2207d5e1078be1f4165", "vout": [{"scriptPubKey": {"reqSigs": 1, "hex": "a9142cf905871cffa50f871c303a564b923c66d087db87", "addresses": ["35noyJp2GsiRLus4ARRhB2aKXPZ1CU4yFr"], "asm": "OP_HASH160 2cf905871cffa50f871c303a564b923c66d087db OP_EQUAL", "type": "scripthash"}, "value": 0.00155218, "n": 0}, {"scriptPubKey": {"reqSigs": 1, "hex": "76a914ed05937d2e1f2598b8c691f8fb06a1d248e32c8a88ac", "addresses": ["1NcFpuCiSDdXHrP7JzHAgRH6rdp2KTcwb6"], "asm": "OP_DUP OP_HASH160 ed05937d2e1f2598b8c691f8fb06a1d248e32c8a OP_EQUALVERIFY OP_CHECKSIG", "type": "pubkeyhash"}, "value": 0.00033232, "n": 1}], "hex": "0100000001f5334f428266a0e106707bd8cdb6a00d30e235576b84b508c2e1f13ddf0485a500000000d900473044022007262941d786c87a271123fa5a49297c3c1013b0547dfb142d793f8dae1f66e502207c369cf255b32039beb6b1a148897e459e5f645ec7a1e2b7e01f57dfe8c0ae1b01473044022024c10e273b54b77a5f8ef9cb80fae341939450be2469c328361d26d048f60c1002203c32f6cb40de2c4344ad42d42609bc49ca715e1e494645d5dbf848c4a717b4d80147522102907a54bed8ad74b3f35638c60114ca240a308cb986f3f2f306178869a8880b612103377c18ef4beee62a9fc38ac9819af7c3d5da627684ccd685e30902bc5abf306c52aeffffffff02525e02000000000017a9142cf905871cffa50f871c303a564b923c66d087db87d0810000000000001976a914ed05937d2e1f2598b8c691f8fb06a1d248e32c8a88ac00000000", "vin": [{"sequence": 4294967295, "scriptSig": {"hex": "00473044022007262941d786c87a271123fa5a49297c3c1013b0547dfb142d793f8dae1f66e502207c369cf255b32039beb6b1a148897e459e5f645ec7a1e2b7e01f57dfe8c0ae1b01473044022024c10e273b54b77a5f8ef9cb80fae341939450be2469c328361d26d048f60c1002203c32f6cb40de2c4344ad42d42609bc49ca715e1e494645d5dbf848c4a717b4d80147522102907a54bed8ad74b3f35638c60114ca240a308cb986f3f2f306178869a8880b612103377c18ef4beee62a9fc38ac9819af7c3d5da627684ccd685e30902bc5abf306c52ae", "asm": "0 3044022007262941d786c87a271123fa5a49297c3c1013b0547dfb142d793f8dae1f66e502207c369cf255b32039beb6b1a148897e459e5f645ec7a1e2b7e01f57dfe8c0ae1b[ALL] 3044022024c10e273b54b77a5f8ef9cb80fae341939450be2469c328361d26d048f60c1002203c32f6cb40de2c4344ad42d42609bc49ca715e1e494645d5dbf848c4a717b4d8[ALL] 522102907a54bed8ad74b3f35638c60114ca240a308cb986f3f2f306178869a8880b612103377c18ef4beee62a9fc38ac9819af7c3d5da627684ccd685e30902bc5abf306c52ae"}, "vout": 0, "txid": "a58504df3df1e1c208b5846b5735e2300da0b6cdd87b7006e1a06682424f33f5"}], "txid": "e301045e43ce674b377595d157a06623ffb297a7d6755971f31804dabfb87d80", "blocktime": 1537872475, "version": 1, "confirmations": 11486, "time": 1537872475, "locktime": 0, "vsize": 334, "size": 334}