{"hash": "e30b99892df302f472f48d29c6bcade344712fb6a9e30d0d069f505f0529c664", "blockhash": "0000000000000000000dcc0f55137456b1a82d3642486a52398922ac4d620174", "vout": [{"scriptPubKey": {"reqSigs": 1, "hex": "76a914889e594ad6d0ea551a3c57133729edc33dc76e2888ac", "addresses": ["1DTNbMff7jxdrcFNSSmbdT2TinZepnmcsQ"], "asm": "OP_DUP OP_HASH160 889e594ad6d0ea551a3c57133729edc33dc76e28 OP_EQUALVERIFY OP_CHECKSIG", "type": "pubkeyhash"}, "value": 0.01123786, "n": 0}, {"scriptPubKey": {"reqSigs": 1, "hex": "76a9142685eb18dd5b267d4fcba6a48a25fed07cab1db888ac", "addresses": ["14Wh76mkbi5msvX4qM4UXSB8uvzaat92qx"], "asm": "OP_DUP OP_HASH160 2685eb18dd5b267d4fcba6a48a25fed07cab1db8 OP_EQUALVERIFY OP_CHECKSIG", "type": "pubkeyhash"}, "value": 0.0009325, "n": 1}], "hex": "0200000002131806327502021065511d9b99357077ded428c8594ffd6f8e13a19dd8628f12000000006b483045022100d5738d2dcf6230e0ada8ef1cbf987d9dcf067ef130af62d868e5c3cdb366e6ca02204e4a7056e366c11a69b6e514b8b6fd7337f6df9d2b860f78a756bd2f7a03ac610121027ef6609026c000f7b47cfc6d2d95f553af2f5169585a6dd1190c87a9327e7ff0fefffffff278016fc09bb109e9fdf3c7def90c304ccefcd62cc64abfc3efdd1870f5a63d000000006b483045022100c7046d1bf5c4610546f9055706b94f781e8751b5bddc7124bacf169d5dacc32002201b5bfbeeb3bf1c38e81a8856bb622d221c0c208e93999a249db0fdab2c0d13a801210373433996f28f5e22d3e4b069232170e4ad6c8bec4cc6ea71093bbc98bca31f39feffffff02ca251100000000001976a914889e594ad6d0ea551a3c57133729edc33dc76e2888ac426c0100000000001976a9142685eb18dd5b267d4fcba6a48a25fed07cab1db888ac0c490800", "vin": [{"sequence": 4294967294, "scriptSig": {"hex": "483045022100d5738d2dcf6230e0ada8ef1cbf987d9dcf067ef130af62d868e5c3cdb366e6ca02204e4a7056e366c11a69b6e514b8b6fd7337f6df9d2b860f78a756bd2f7a03ac610121027ef6609026c000f7b47cfc6d2d95f553af2f5169585a6dd1190c87a9327e7ff0", "asm": "3045022100d5738d2dcf6230e0ada8ef1cbf987d9dcf067ef130af62d868e5c3cdb366e6ca02204e4a7056e366c11a69b6e514b8b6fd7337f6df9d2b860f78a756bd2f7a03ac61[ALL] 027ef6609026c000f7b47cfc6d2d95f553af2f5169585a6dd1190c87a9327e7ff0"}, "vout": 0, "txid": "128f62d89da1138e6ffd4f59c828d4de777035999b1d51651002027532061813"}, {"sequence": 4294967294, "scriptSig": {"hex": "483045022100c7046d1bf5c4610546f9055706b94f781e8751b5bddc7124bacf169d5dacc32002201b5bfbeeb3bf1c38e81a8856bb622d221c0c208e93999a249db0fdab2c0d13a801210373433996f28f5e22d3e4b069232170e4ad6c8bec4cc6ea71093bbc98bca31f39", "asm": "3045022100c7046d1bf5c4610546f9055706b94f781e8751b5bddc7124bacf169d5dacc32002201b5bfbeeb3bf1c38e81a8856bb622d221c0c208e93999a249db0fdab2c0d13a8[ALL] 0373433996f28f5e22d3e4b069232170e4ad6c8bec4cc6ea71093bbc98bca31f39"}, "vout": 0, "txid": "3da6f57018ddefc3bf4ac62cd6fcce4c300cf9dec7f3fde909b19bc06f0178f2"}], "txid": "e30b99892df302f472f48d29c6bcade344712fb6a9e30d0d069f505f0529c664", "blocktime": 1537870268, "version": 2, "confirmations": 11518, "time": 1537870268, "locktime": 542988, "vsize": 374, "size": 374}