{"hash": "7a35c4f1b7450531abb687c4b1626b2d16a899b6fc3526eda47c1bc3242bc5bc", "blockhash": "0000000000000000001cda96e906b7601b7a6fb1a3b62bca570a9e5d8f4b3de1", "vout": [{"scriptPubKey": {"reqSigs": 1, "hex": "76a9142fac0da4b2ec2ecbb7931748404df459e2be2fb288ac", "addresses": ["15M4sVLJjgWxT8CPUSiiom3KAnpZw2pPHP"], "asm": "OP_DUP OP_HASH160 2fac0da4b2ec2ecbb7931748404df459e2be2fb2 OP_EQUALVERIFY OP_CHECKSIG", "type": "pubkeyhash"}, "value": 0.00085793, "n": 0}, {"scriptPubKey": {"reqSigs": 1, "hex": "76a9147b2b28f2fe29d6ecb9436ddcf525ccc6d013c93f88ac", "addresses": ["1CEFpQHvBLd1CMF1SroyEN3envyaQe18RU"], "asm": "OP_DUP OP_HASH160 7b2b28f2fe29d6ecb9436ddcf525ccc6d013c93f OP_EQUALVERIFY OP_CHECKSIG", "type": "pubkeyhash"}, "value": 0.00129086, "n": 1}, {"scriptPubKey": {"reqSigs": 1, "hex": "76a9148498fa46544a00d3a388b2d2b8a5bab97b80483c88ac", "addresses": ["1D67TPrgh5mnDSsRhsKRB4BkHcp7bp2ZCd"], "asm": "OP_DUP OP_HASH160 8498fa46544a00d3a388b2d2b8a5bab97b80483c OP_EQUALVERIFY OP_CHECKSIG", "type": "pubkeyhash"}, "value": 0.00099563, "n": 2}, {"scriptPubKey": {"reqSigs": 1, "hex": "76a914bc0cbe9d1a815fa33503a1ead7c502b8dc8f036c88ac", "addresses": ["1J9KJaFszAG9nAwreB2mHR3BuwttY6pj9w"], "asm": "OP_DUP OP_HASH160 bc0cbe9d1a815fa33503a1ead7c502b8dc8f036c OP_EQUALVERIFY OP_CHECKSIG", "type": "pubkeyhash"}, "value": 0.00327315, "n": 3}, {"scriptPubKey": {"reqSigs": 1, "hex": "a9147cf5129db0f77f8af6d4c8b2149f6535bff183c987", "addresses": ["3D5jJHJ2SP8184qXD2FYTY7DgmK2YkN2jf"], "asm": "OP_HASH160 7cf5129db0f77f8af6d4c8b2149f6535bff183c9 OP_EQUAL", "type": "scripthash"}, "value": 0.01674639, "n": 4}], "hex": "01000000000101d62892892ef326da97a78d352185f35d5c6867f6873da9591c0413912b33f7a70200000023220020d07b7b46f3cd5c708aebfa6a8ebb91395095c6210b895cd17181da1a63836cacffffffff05214f0100000000001976a9142fac0da4b2ec2ecbb7931748404df459e2be2fb288ac3ef80100000000001976a9147b2b28f2fe29d6ecb9436ddcf525ccc6d013c93f88aceb840100000000001976a9148498fa46544a00d3a388b2d2b8a5bab97b80483c88ac93fe0400000000001976a914bc0cbe9d1a815fa33503a1ead7c502b8dc8f036c88ac8f8d19000000000017a9147cf5129db0f77f8af6d4c8b2149f6535bff183c987040047304402201f2e79d4e26a792037c7574d249a1844e844a6020cd5b78605be623804741846022018919e14953c0ba2d79f84a3215f10de0634e902be95df6cfe1b055c0429921d01483045022100ed35a0a2ce2b3a77556774ab10d492c0ba0b9b0217129c3e67700e8f2eb1b6bc02206064757134284bfc0c97383494cd943c49576071a16aae44e60eb6147fa4a3df0169522102a1a1eb2e37df636563f2815fc3572ff098dafcdeee744863be7efd8fc2d553652103350cbc1875bb1516d1354691d7dc9b5cb2b1ab6667aa8d2c6f80be755005464821025c51988d252a762975c495d0715256bdce49751672a2354f0378120ff234d6f753ae00000000", "vin": [{"txinwitness": ["", "304402201f2e79d4e26a792037c7574d249a1844e844a6020cd5b78605be623804741846022018919e14953c0ba2d79f84a3215f10de0634e902be95df6cfe1b055c0429921d01", "3045022100ed35a0a2ce2b3a77556774ab10d492c0ba0b9b0217129c3e67700e8f2eb1b6bc02206064757134284bfc0c97383494cd943c49576071a16aae44e60eb6147fa4a3df01", "522102a1a1eb2e37df636563f2815fc3572ff098dafcdeee744863be7efd8fc2d553652103350cbc1875bb1516d1354691d7dc9b5cb2b1ab6667aa8d2c6f80be755005464821025c51988d252a762975c495d0715256bdce49751672a2354f0378120ff234d6f753ae"], "sequence": 4294967295, "scriptSig": {"hex": "220020d07b7b46f3cd5c708aebfa6a8ebb91395095c6210b895cd17181da1a63836cac", "asm": "0020d07b7b46f3cd5c708aebfa6a8ebb91395095c6210b895cd17181da1a63836cac"}, "vout": 2, "txid": "a7f7332b9113041c59a93d87f667685c5df38521358da797da26f32e899228d6"}], "txid": "e318391bfef004c9467740b46d64c0c5ce1984cff2ce4628707357d186982cd9", "blocktime": 1537873282, "version": 1, "confirmations": 11485, "time": 1537873282, "locktime": 0, "vsize": 318, "size": 509}