{"hash": "8582cb171a8b2cc2f1fddd42654b0a4f46161711784ae35bd9859760abe6b58e", "blockhash": "00000000000000000004ffacab907a6b429b9a5745fa0b75af4234bf69dd7176", "vout": [{"scriptPubKey": {"reqSigs": 1, "hex": "a91452e2d587e4e95acba68e56a45c33a0d3124b123d87", "addresses": ["39FH4z1cC7dJWsgHN5PNofNFJJNQpKvr5E"], "asm": "OP_HASH160 52e2d587e4e95acba68e56a45c33a0d3124b123d OP_EQUAL", "type": "scripthash"}, "value": 0.00236866, "n": 0}, {"scriptPubKey": {"reqSigs": 1, "hex": "a9146202be24a59d609e5c094d38a593df35aeeec75387", "addresses": ["3AdFRusxRTjbgKt9JEQshtz76eygFbtbnQ"], "asm": "OP_HASH160 6202be24a59d609e5c094d38a593df35aeeec753 OP_EQUAL", "type": "scripthash"}, "value": 0.00658194, "n": 1}], "hex": "0100000000010179f10e17e5e76d9313dd0bb19d91cec99be065121520c76a2f58ed93e82a059a010000002322002046f028cf7d5f539e1200a11d2d49375f3a9946081bc69a5947e16316bec6c757ffffffff02429d03000000000017a91452e2d587e4e95acba68e56a45c33a0d3124b123d87120b0a000000000017a9146202be24a59d609e5c094d38a593df35aeeec75387040047304402200a1e1cf457f58ea5db6c64e23690a300eb1a08ea5f7a83713db324846a5cc2950220262e9b1cba8cd5799f49991c9dc9e98e55faa904247860c3c00307aa0f256cf9014730440220082163763569807ceda1c21e3297e461140bd93f5eddead5b38133de328c62b9022078f7d4f0660fc2c5335a1ad3b94dc5c0511aa9b5404191b69e5fd2c3abafaae101475221029de0e33576c10f5b46f759b553be8c7e3f5ba5be9fbadfd2ae4dbb62931b0e7a210292d679353fa4a760eaad69284c09d063a1fd1a15ad8c70e83dbf86f7063f8c1852ae00000000", "vin": [{"txinwitness": ["", "304402200a1e1cf457f58ea5db6c64e23690a300eb1a08ea5f7a83713db324846a5cc2950220262e9b1cba8cd5799f49991c9dc9e98e55faa904247860c3c00307aa0f256cf901", "30440220082163763569807ceda1c21e3297e461140bd93f5eddead5b38133de328c62b9022078f7d4f0660fc2c5335a1ad3b94dc5c0511aa9b5404191b69e5fd2c3abafaae101", "5221029de0e33576c10f5b46f759b553be8c7e3f5ba5be9fbadfd2ae4dbb62931b0e7a210292d679353fa4a760eaad69284c09d063a1fd1a15ad8c70e83dbf86f7063f8c1852ae"], "sequence": 4294967295, "scriptSig": {"hex": "22002046f028cf7d5f539e1200a11d2d49375f3a9946081bc69a5947e16316bec6c757", "asm": "002046f028cf7d5f539e1200a11d2d49375f3a9946081bc69a5947e16316bec6c757"}, "vout": 1, "txid": "9a052ae893ed582f6ac720151265e09bc9ce919db10bdd13936de7e5170ef179"}], "txid": "e31a53fb5be09466c8c75ac2dc8246cd06c7f3fe892811e5dd2823ea9e58e8e6", "blocktime": 1537875543, "version": 1, "confirmations": 11464, "time": 1537875543, "locktime": 0, "vsize": 205, "size": 370}