{"hash": "08b549cdcc39c6382804fb1218432b992cee0ecb0eb726b256c050919089672a", "blockhash": "000000000000000000022b45ed06c6f4ccd3cf7fb5ba4856ebd2e58215665228", "vout": [{"scriptPubKey": {"reqSigs": 1, "hex": "76a91464f6e9c4bcfcd0a404e1af80daae282538b4904788ac", "addresses": ["1ACrN1amZWNk7MMBWDVLCRfDPQSXW8t4c8"], "asm": "OP_DUP OP_HASH160 64f6e9c4bcfcd0a404e1af80daae282538b49047 OP_EQUALVERIFY OP_CHECKSIG", "type": "pubkeyhash"}, "value": 2.6e-05, "n": 0}, {"scriptPubKey": {"reqSigs": 1, "hex": "a91449d7e96499e76d96ef877a2fcb98823c8bccba2187", "addresses": ["38RTuMXR3rjgmqC2TwiJHrCLzc9nbGoNw7"], "asm": "OP_HASH160 49d7e96499e76d96ef877a2fcb98823c8bccba21 OP_EQUAL", "type": "scripthash"}, "value": 0.0004635, "n": 1}], "hex": "0100000000010161b30441245b20f9a2f08353d95897c98c535f5a86f77e5d1e06c7340a2bedee00000000232200202a9a1aa43dd52fca361d638a9bb1c7c7a7b32bed598a04104268b8ecbdbfe96fffffffff02280a0000000000001976a91464f6e9c4bcfcd0a404e1af80daae282538b4904788ac0eb500000000000017a91449d7e96499e76d96ef877a2fcb98823c8bccba21870400473044022100ee069347ff48e936c264a38923eed7353cb85b3ecf3753c056d7dad35c75155b021f7d9babd42082a5c9bc8c86c0219697f424546c77ee1166c3f1e81d45088d2801473044022057f2b1b247f311c10b6031ddbcae57802994f6b4dbc87c5f9f54c2326d32d1b6022023fa30a02e5fb3d06ad86e1c59082e1b5dd39838949544707040253a425ca2670147522103ea39afa13bfc0b16775c1ffdd58dbb69a77441d8211cfd208f16ac7437c451312103338f346cab6ba87fe940591a03ac234be06520c5ab386d4b6632e8eef0d0db7652ae00000000", "vin": [{"txinwitness": ["", "3044022100ee069347ff48e936c264a38923eed7353cb85b3ecf3753c056d7dad35c75155b021f7d9babd42082a5c9bc8c86c0219697f424546c77ee1166c3f1e81d45088d2801", "3044022057f2b1b247f311c10b6031ddbcae57802994f6b4dbc87c5f9f54c2326d32d1b6022023fa30a02e5fb3d06ad86e1c59082e1b5dd39838949544707040253a425ca26701", "522103ea39afa13bfc0b16775c1ffdd58dbb69a77441d8211cfd208f16ac7437c451312103338f346cab6ba87fe940591a03ac234be06520c5ab386d4b6632e8eef0d0db7652ae"], "sequence": 4294967295, "scriptSig": {"hex": "2200202a9a1aa43dd52fca361d638a9bb1c7c7a7b32bed598a04104268b8ecbdbfe96f", "asm": "00202a9a1aa43dd52fca361d638a9bb1c7c7a7b32bed598a04104268b8ecbdbfe96f"}, "vout": 0, "txid": "eeed2b0a34c7061e5d7ef7865a5f538cc99758d95383f0a2f9205b244104b361"}], "txid": "e31c32e1bd97f3d2ba2ca3edd82f4c64dc2893f61170b69f0c2c3973a9d4374f", "blocktime": 1537869901, "version": 1, "confirmations": 11524, "time": 1537869901, "locktime": 0, "vsize": 207, "size": 372}