{"hash": "13bd969e28b8d32b49c8d112876f89c5a1cec8a32ec123103035aa08325be05c", "blockhash": "0000000000000000001e0dab787dd257d1dbfcb92a98c2207d5e1078be1f4165", "vout": [{"scriptPubKey": {"reqSigs": 1, "hex": "76a91497939b2888647158cd6e3ac9d1cce55ebbb9969488ac", "addresses": ["1EpTrpPq8QoxcVEH7xXymbxSU8XNWCx2XB"], "asm": "OP_DUP OP_HASH160 97939b2888647158cd6e3ac9d1cce55ebbb99694 OP_EQUALVERIFY OP_CHECKSIG", "type": "pubkeyhash"}, "value": 0.35958659, "n": 0}, {"scriptPubKey": {"reqSigs": 1, "hex": "001414478501261f9031c36d2789fd1063d33aaaef32", "addresses": ["bc1qz3rc2qfxr7grrsmdy7yl6yrr6va24mej4nlm5d"], "asm": "0 14478501261f9031c36d2789fd1063d33aaaef32", "type": "witness_v0_keyhash"}, "value": 0.01454662, "n": 1}], "hex": "010000000001019f9fb5b56ca385f676806a0b878f0663dab3f9a2b7166f0824257ba80628ab600000000000ffffffff0283af2402000000001976a91497939b2888647158cd6e3ac9d1cce55ebbb9969488ac463216000000000016001414478501261f9031c36d2789fd1063d33aaaef3202483045022100a2d034e4624e3aa267ce1d81e1d0cace7cd52111d17782ec50b2d52e440214dd022015f85cb6eb6793297d0ba4c9bd84dfc228e49960ac746ef9965af6efd775fa8b0121031a82b5cbb91169faf1532c3aa62800eaf3f05c56f8b1af8255fa411d313fc8f000000000", "vin": [{"txinwitness": ["3045022100a2d034e4624e3aa267ce1d81e1d0cace7cd52111d17782ec50b2d52e440214dd022015f85cb6eb6793297d0ba4c9bd84dfc228e49960ac746ef9965af6efd775fa8b01", "031a82b5cbb91169faf1532c3aa62800eaf3f05c56f8b1af8255fa411d313fc8f0"], "sequence": 4294967295, "scriptSig": {"hex": "", "asm": ""}, "vout": 0, "txid": "60ab2806a87b2524086f16b7a2f9b3da63068f870b6a8076f685a36cb5b59f9f"}], "txid": "e31fbca707aa2c36cc9445e66dd5c61896080d1d2c0cb51620e73da912289456", "blocktime": 1537872475, "version": 1, "confirmations": 11487, "time": 1537872475, "locktime": 0, "vsize": 144, "size": 226}