{"hash": "2a1441a90ec0bf9dc9a12c20918010b25214a584caa90841241a8c3a1970af21", "blockhash": "00000000000000000017f5eb5941039fbcee6240d03bc1f2f8e35350df66a1d8", "vout": [{"scriptPubKey": {"reqSigs": 1, "hex": "76a914ee803039e0652b969cff971b804e70a6a297580c88ac", "addresses": ["1Nk5PLkvm5dYTZFtpUCwskcSD3TDGqkCw5"], "asm": "OP_DUP OP_HASH160 ee803039e0652b969cff971b804e70a6a297580c OP_EQUALVERIFY OP_CHECKSIG", "type": "pubkeyhash"}, "value": 0.0018932, "n": 0}, {"scriptPubKey": {"reqSigs": 1, "hex": "76a9144b554673f1b0f7664129e1906c7833d6a2a0014a88ac", "addresses": ["17sKqQvhJbAiYWNrUsk5qfRYNSGPKjnLEW"], "asm": "OP_DUP OP_HASH160 4b554673f1b0f7664129e1906c7833d6a2a0014a OP_EQUALVERIFY OP_CHECKSIG", "type": "pubkeyhash"}, "value": 0.0367769, "n": 1}, {"scriptPubKey": {"reqSigs": 1, "hex": "a914fb5987b510668b925cd3a07331696e2afae0ac3487", "addresses": ["3Qc2nMVGsQ9AUBQtZDAj88bUBbD5UP92We"], "asm": "OP_HASH160 fb5987b510668b925cd3a07331696e2afae0ac34 OP_EQUAL", "type": "scripthash"}, "value": 0.00479541, "n": 2}, {"scriptPubKey": {"reqSigs": 1, "hex": "a914339e3b87d876b1733b20e04c94ba5c239de2c39f87", "addresses": ["36PwwWvtYPVhfezSwZ23VKearidDJ5xins"], "asm": "OP_HASH160 339e3b87d876b1733b20e04c94ba5c239de2c39f OP_EQUAL", "type": "scripthash"}, "value": 0.00343844, "n": 3}, {"scriptPubKey": {"reqSigs": 1, "hex": "a9146471c313d456fd5615a7950efbbe296dc44141f687", "addresses": ["3Ar7n3tWAWB6K1UDTeJQ3z5EDv6akHjHcK"], "asm": "OP_HASH160 6471c313d456fd5615a7950efbbe296dc44141f6 OP_EQUAL", "type": "scripthash"}, "value": 0.00292049, "n": 4}, {"scriptPubKey": {"reqSigs": 1, "hex": "a91479ed0c722f4f77b2c22fb6af216798747f2ba03c87", "addresses": ["3CohfBWCtUXvv6U9WpT3JudptmnSFnRzrN"], "asm": "OP_HASH160 79ed0c722f4f77b2c22fb6af216798747f2ba03c OP_EQUAL", "type": "scripthash"}, "value": 0.0002205, "n": 5}, {"scriptPubKey": {"reqSigs": 1, "hex": "a91474be6a0082b690cd35106afdbe0d45afa8cfe93987", "addresses": ["3CLJQzpGikPSkKR9t5x4ibh6b1s6vYVwGT"], "asm": "OP_HASH160 74be6a0082b690cd35106afdbe0d45afa8cfe939 OP_EQUAL", "type": "scripthash"}, "value": 0.0027096, "n": 6}, {"scriptPubKey": {"reqSigs": 1, "hex": "76a914313aa980e339c9b1b6ca21f11d2bb7dc2d1052c788ac", "addresses": ["15VJPKJAQhmaakVM7FKbGYWeC844NmFsNR"], "asm": "OP_DUP OP_HASH160 313aa980e339c9b1b6ca21f11d2bb7dc2d1052c7 OP_EQUALVERIFY OP_CHECKSIG", "type": "pubkeyhash"}, "value": 0.04917746, "n": 7}, {"scriptPubKey": {"reqSigs": 1, "hex": "76a9145c4038834cd0987f2c7db3c945efdad1b63ef8c588ac", "addresses": ["19Qn6nWKNFTw9C1DDignn7p8H8B12L4hj1"], "asm": "OP_DUP OP_HASH160 5c4038834cd0987f2c7db3c945efdad1b63ef8c5 OP_EQUALVERIFY OP_CHECKSIG", "type": "pubkeyhash"}, "value": 0.0079891, "n": 8}, {"scriptPubKey": {"reqSigs": 1, "hex": "a9148b7f61f074822f8fdab1367978d4c3b588fe76e787", "addresses": ["3EQcSuRb54GHwhJbs4qn8DSzdQB6jCpyTW"], "asm": "OP_HASH160 8b7f61f074822f8fdab1367978d4c3b588fe76e7 OP_EQUAL", "type": "scripthash"}, "value": 0.0025126, "n": 9}, {"scriptPubKey": {"reqSigs": 1, "hex": "a9146174d110c3824c75c5b1b3519e4fa5dbb7befb2587", "addresses": ["3AaKQiSSdsysQ4oyCbdJXknGavhnRYHbRf"], "asm": "OP_HASH160 6174d110c3824c75c5b1b3519e4fa5dbb7befb25 OP_EQUAL", "type": "scripthash"}, "value": 0.02191532, "n": 10}, {"scriptPubKey": {"reqSigs": 1, "hex": "a9140f44ab19e53c5eb04c6923792807d74e3a5784af87", "addresses": ["335kKakiQLc47SSvhVSwjEgQqZqhYtyKrF"], "asm": "OP_HASH160 0f44ab19e53c5eb04c6923792807d74e3a5784af OP_EQUAL", "type": "scripthash"}, "value": 0.00114, "n": 11}, {"scriptPubKey": {"reqSigs": 1, "hex": "a914d385b9f652c8273a5b98867488e07302844a9a4587", "addresses": ["3LyShVcdShfLgm1sFU74q7g7qiwWc3Lz9V"], "asm": "OP_HASH160 d385b9f652c8273a5b98867488e07302844a9a45 OP_EQUAL", "type": "scripthash"}, "value": 0.01971422, "n": 12}, {"scriptPubKey": {"reqSigs": 1, "hex": "a914ca1dd0c1b1d632b48daa15d62affd17a655db8a287", "addresses": ["3L7i8ubeXgAS9hbWhyzmvaWY7K1UoYc9HE"], "asm": "OP_HASH160 ca1dd0c1b1d632b48daa15d62affd17a655db8a2 OP_EQUAL", "type": "scripthash"}, "value": 0.00687201, "n": 13}, {"scriptPubKey": {"reqSigs": 1, "hex": "76a91463e248f6cbee2bca8935a72cd2b765b5c702dfb188ac", "addresses": ["1A78yYtLwia4Be7B8egSDuAzqzcddCfpiL"], "asm": "OP_DUP OP_HASH160 63e248f6cbee2bca8935a72cd2b765b5c702dfb1 OP_EQUALVERIFY OP_CHECKSIG", "type": "pubkeyhash"}, "value": 0.0021508, "n": 14}, {"scriptPubKey": {"reqSigs": 1, "hex": "a9145ac889caca10a6069bcc3c6cb8172640ab3ad01b87", "addresses": ["39y2yT5StcQMqXuptxHZtWDbmBoaCEZGVp"], "asm": "OP_HASH160 5ac889caca10a6069bcc3c6cb8172640ab3ad01b OP_EQUAL", "type": "scripthash"}, "value": 1.12417783, "n": 15}, {"scriptPubKey": {"reqSigs": 1, "hex": "a914908f4d7948ff0289ab7afa2b55d8ef661a1d612687", "addresses": ["3EsNu1ThpoHvdJvyuAcJD1QY62d212imA6"], "asm": "OP_HASH160 908f4d7948ff0289ab7afa2b55d8ef661a1d6126 OP_EQUAL", "type": "scripthash"}, "value": 0.00364217, "n": 16}, {"scriptPubKey": {"reqSigs": 1, "hex": "a9141464094084dd5089e1f4c42baefd77b05adef4e687", "addresses": ["33YqH1iuPHx1sjfnrSsbW918R9xxEjfyo4"], "asm": "OP_HASH160 1464094084dd5089e1f4c42baefd77b05adef4e6 OP_EQUAL", "type": "scripthash"}, "value": 0.0025646, "n": 17}, {"scriptPubKey": {"reqSigs": 1, "hex": "a914e04ad79141799110decdcf43538dc0f0cc72d08a87", "addresses": ["3N8xwdZrcW4LaBL1p2EvNCm3XqGccmzQBF"], "asm": "OP_HASH160 e04ad79141799110decdcf43538dc0f0cc72d08a OP_EQUAL", "type": "scripthash"}, "value": 0.0046281, "n": 18}, {"scriptPubKey": {"reqSigs": 1, "hex": "a91426550db29307ec488746f0ebd85359e288eb920987", "addresses": ["35BhVTKEvj8jH4awVUi5tVNZk3sdyDxP52"], "asm": "OP_HASH160 26550db29307ec488746f0ebd85359e288eb9209 OP_EQUAL", "type": "scripthash"}, "value": 0.00571701, "n": 19}, {"scriptPubKey": {"reqSigs": 1, "hex": "76a91405db79067656ab6f25a8d5ee7f86c4b60dd632f088ac", "addresses": ["1XyJCDvVuSwMrafAYw3UbPLrvrB6cvqfA"], "asm": "OP_DUP OP_HASH160 05db79067656ab6f25a8d5ee7f86c4b60dd632f0 OP_EQUALVERIFY OP_CHECKSIG", "type": "pubkeyhash"}, "value": 0.012, "n": 20}, {"scriptPubKey": {"reqSigs": 1, "hex": "a914282b3c13c1b27ca2c72f465fe03160169b27497987", "addresses": ["35MQkDRMvPLry54WF8jD3pDL3V3Bzm3xjx"], "asm": "OP_HASH160 282b3c13c1b27ca2c72f465fe03160169b274979 OP_EQUAL", "type": "scripthash"}, "value": 0.00188182, "n": 21}, {"scriptPubKey": {"reqSigs": 1, "hex": "a91483a8279751e9572d7cdab3e7ae4326004482ab6387", "addresses": ["3Dh9tGF8EHFfdEkKTTBdWbeMGwioaZcuH9"], "asm": "OP_HASH160 83a8279751e9572d7cdab3e7ae4326004482ab63 OP_EQUAL", "type": "scripthash"}, "value": 0.00479597, "n": 22}, {"scriptPubKey": {"reqSigs": 1, "hex": "a914745f75eb4f48e9d9697c0c3da695e0ae85fac99f87", "addresses": ["3CJLfWuJTW6CaBwz9ovn1gFaSTYiWCLDYs"], "asm": "OP_HASH160 745f75eb4f48e9d9697c0c3da695e0ae85fac99f OP_EQUAL", "type": "scripthash"}, "value": 0.00352225, "n": 23}], "hex": "020000000001016251e44df094208fc95fa4d69d67375b676f33f541add48358267d2e5a3e63cf0f00000017160014dd9cebc39711e19a731e6b463c165edaff3b07c8feffffff1888e30200000000001976a914ee803039e0652b969cff971b804e70a6a297580c88acfa1d3800000000001976a9144b554673f1b0f7664129e1906c7833d6a2a0014a88ac355107000000000017a914fb5987b510668b925cd3a07331696e2afae0ac3487243f05000000000017a914339e3b87d876b1733b20e04c94ba5c239de2c39f87d17404000000000017a9146471c313d456fd5615a7950efbbe296dc44141f687225600000000000017a91479ed0c722f4f77b2c22fb6af216798747f2ba03c87702204000000000017a91474be6a0082b690cd35106afdbe0d45afa8cfe93987f2094b00000000001976a914313aa980e339c9b1b6ca21f11d2bb7dc2d1052c788acbe300c00000000001976a9145c4038834cd0987f2c7db3c945efdad1b63ef8c588ac7cd503000000000017a9148b7f61f074822f8fdab1367978d4c3b588fe76e787ac7021000000000017a9146174d110c3824c75c5b1b3519e4fa5dbb7befb258750bd01000000000017a9140f44ab19e53c5eb04c6923792807d74e3a5784af87de141e000000000017a914d385b9f652c8273a5b98867488e07302844a9a4587617c0a000000000017a914ca1dd0c1b1d632b48daa15d62affd17a655db8a28728480300000000001976a91463e248f6cbee2bca8935a72cd2b765b5c702dfb188acf75bb3060000000017a9145ac889caca10a6069bcc3c6cb8172640ab3ad01b87b98e05000000000017a914908f4d7948ff0289ab7afa2b55d8ef661a1d612687cce903000000000017a9141464094084dd5089e1f4c42baefd77b05adef4e687da0f07000000000017a914e04ad79141799110decdcf43538dc0f0cc72d08a8735b908000000000017a91426550db29307ec488746f0ebd85359e288eb920987804f1200000000001976a91405db79067656ab6f25a8d5ee7f86c4b60dd632f088ac16df02000000000017a914282b3c13c1b27ca2c72f465fe03160169b274979876d5107000000000017a91483a8279751e9572d7cdab3e7ae4326004482ab6387e15f05000000000017a914745f75eb4f48e9d9697c0c3da695e0ae85fac99f87024730440220152308c3cfcc418f80b38fd7c6ddf169250ea360a57e3e4e24d6bc40b2a15a4c02203838cfcbbe68b48cf0bbebfcbe1011ee06a2cf413b5e86d38fe3a824cac1e9060121031aa937d64ebdb73bb9e360f8ff6716a1e0de77f6867d4cd926274ac41d8d328115490800", "vin": [{"txinwitness": ["30440220152308c3cfcc418f80b38fd7c6ddf169250ea360a57e3e4e24d6bc40b2a15a4c02203838cfcbbe68b48cf0bbebfcbe1011ee06a2cf413b5e86d38fe3a824cac1e90601", "031aa937d64ebdb73bb9e360f8ff6716a1e0de77f6867d4cd926274ac41d8d3281"], "sequence": 4294967294, "scriptSig": {"hex": "160014dd9cebc39711e19a731e6b463c165edaff3b07c8", "asm": "0014dd9cebc39711e19a731e6b463c165edaff3b07c8"}, "vout": 15, "txid": "cf633e5a2e7d265883d4ad41f5336f675b37679dd6a45fc98f2094f04de45162"}], "txid": "e320bc3b32d6e697f95813920f2b998aff2a035d7ade9e3961344f9231d746e0", "blocktime": 1537874412, "version": 2, "confirmations": 11467, "time": 1537874412, "locktime": 542997, "vsize": 882, "size": 963}