{"hash": "e33038b082671e04952e099700844beabd15716502020361fa091f71960d8d92", "blockhash": "00000000000000000017f5eb5941039fbcee6240d03bc1f2f8e35350df66a1d8", "vout": [{"scriptPubKey": {"reqSigs": 1, "hex": "76a914a25dec4d0011064ef106a983c39c7a540699f22088ac", "addresses": ["1FoWyxwPXuj4C6abqwhjDWdz6D4PZgYRjA"], "asm": "OP_DUP OP_HASH160 a25dec4d0011064ef106a983c39c7a540699f220 OP_EQUALVERIFY OP_CHECKSIG", "type": "pubkeyhash"}, "value": 0.01990415, "n": 0}, {"scriptPubKey": {"type": "nulldata", "hex": "6a146f6d6e69000000000000001f00000654847ffd80", "asm": "OP_RETURN 6f6d6e69000000000000001f00000654847ffd80"}, "value": 0.0, "n": 1}, {"scriptPubKey": {"reqSigs": 1, "hex": "76a9145f2915f7aa299c12f9d5e1598f02db0e14e2441688ac", "addresses": ["19gAQv8YizsqruRPkBfoVpdL8jccnGauq8"], "asm": "OP_DUP OP_HASH160 5f2915f7aa299c12f9d5e1598f02db0e14e24416 OP_EQUALVERIFY OP_CHECKSIG", "type": "pubkeyhash"}, "value": 5.46e-06, "n": 2}], "hex": "01000000013323271e570aa4da223c21a25bbef362c4832d0b2420f35687e1c7ce73f5621b020000006b483045022100a0c6988aebc8759eb860a4cf6217029e8b9b0068981ed67409b538bcba4f54de02200b59d8626166234545c86a138a211250ad1f91914eca27da2098c7cdb529b69f012103da5bac7b36d5aa38f531c6b9601e21bb598a4b6716ebed38b009a55dabde9440feffffff030f5f1e00000000001976a914a25dec4d0011064ef106a983c39c7a540699f22088ac0000000000000000166a146f6d6e69000000000000001f00000654847ffd8022020000000000001976a9145f2915f7aa299c12f9d5e1598f02db0e14e2441688ac15490800", "vin": [{"sequence": 4294967294, "scriptSig": {"hex": "483045022100a0c6988aebc8759eb860a4cf6217029e8b9b0068981ed67409b538bcba4f54de02200b59d8626166234545c86a138a211250ad1f91914eca27da2098c7cdb529b69f012103da5bac7b36d5aa38f531c6b9601e21bb598a4b6716ebed38b009a55dabde9440", "asm": "3045022100a0c6988aebc8759eb860a4cf6217029e8b9b0068981ed67409b538bcba4f54de02200b59d8626166234545c86a138a211250ad1f91914eca27da2098c7cdb529b69f[ALL] 03da5bac7b36d5aa38f531c6b9601e21bb598a4b6716ebed38b009a55dabde9440"}, "vout": 2, "txid": "1b62f573cec7e18756f320240b2d83c462f3be5ba2213c22daa40a571e272333"}], "txid": "e33038b082671e04952e099700844beabd15716502020361fa091f71960d8d92", "blocktime": 1537874412, "version": 1, "confirmations": 11467, "time": 1537874412, "locktime": 542997, "vsize": 257, "size": 257}