{"hash": "e33588de0aa75c396bbe7e25d3aa82f0cdd5b9a354151edc6991bf17bfbdf904", "blockhash": "0000000000000000000baef3f32e3676a92c3b2e5da21b426e4f302fc371ce76", "vout": [{"scriptPubKey": {"reqSigs": 1, "hex": "76a91469435ae4fb9020df087c6708820adadcfcdbdbaa88ac", "addresses": ["1Abae47BxqykyczncHw7Axi2fGFySj5shg"], "asm": "OP_DUP OP_HASH160 69435ae4fb9020df087c6708820adadcfcdbdbaa OP_EQUALVERIFY OP_CHECKSIG", "type": "pubkeyhash"}, "value": 0.06419, "n": 0}], "hex": "0100000001ae66ce5b3ae1206d9d2b71b9e63fab2048526507bab65bb8dadf6af729dbf10a010000006b483045022100c3d0a44c0ceddb50e2e22d1178bdb61dae50ca937fa4992b11473a91dbf5487502203e3efb70e83fc8ec9b9a3fe32891913e82d2af2906269d2e47faede4c2a628600121026a784e8e521c58c0fe09da7140c631a6c51a14bcd9ded047b842158c90e114b5ffffffff0138f26100000000001976a91469435ae4fb9020df087c6708820adadcfcdbdbaa88ac00000000", "vin": [{"sequence": 4294967295, "scriptSig": {"hex": "483045022100c3d0a44c0ceddb50e2e22d1178bdb61dae50ca937fa4992b11473a91dbf5487502203e3efb70e83fc8ec9b9a3fe32891913e82d2af2906269d2e47faede4c2a628600121026a784e8e521c58c0fe09da7140c631a6c51a14bcd9ded047b842158c90e114b5", "asm": "3045022100c3d0a44c0ceddb50e2e22d1178bdb61dae50ca937fa4992b11473a91dbf5487502203e3efb70e83fc8ec9b9a3fe32891913e82d2af2906269d2e47faede4c2a62860[ALL] 026a784e8e521c58c0fe09da7140c631a6c51a14bcd9ded047b842158c90e114b5"}, "vout": 1, "txid": "0af1db29f76adfdab85bb6ba0765524820ab3fe6b9712b9d6d20e13a5bce66ae"}], "txid": "e33588de0aa75c396bbe7e25d3aa82f0cdd5b9a354151edc6991bf17bfbdf904", "blocktime": 1537876114, "version": 1, "confirmations": 11463, "time": 1537876114, "locktime": 0, "vsize": 192, "size": 192}