{"hash": "e33d3d7b931abbcda4dfedb84fa55dcb6f6d82e5b7f06f0938cf886034942a3d", "blockhash": "0000000000000000000dcc0f55137456b1a82d3642486a52398922ac4d620174", "vout": [{"scriptPubKey": {"reqSigs": 1, "hex": "76a914d243e6abb9a60fbff430b421d2df4b7d59ec186088ac", "addresses": ["1LAnF8h3qMGx3TSwNUHVneBZUEpwE4gu3D"], "asm": "OP_DUP OP_HASH160 d243e6abb9a60fbff430b421d2df4b7d59ec1860 OP_EQUALVERIFY OP_CHECKSIG", "type": "pubkeyhash"}, "value": 0.00076972, "n": 0}, {"scriptPubKey": {"reqSigs": 1, "hex": "76a9143851f34d13937b673a7d24a1950bb5b21ce94af388ac", "addresses": ["168o1kqNquEJeR9vosUB5fw4eAwcVAgh8P"], "asm": "OP_DUP OP_HASH160 3851f34d13937b673a7d24a1950bb5b21ce94af3 OP_EQUALVERIFY OP_CHECKSIG", "type": "pubkeyhash"}, "value": 5.46e-06, "n": 1}, {"scriptPubKey": {"type": "nulldata", "hex": "6a146f6d6e69000000000000001f0000006060dacb4d", "asm": "OP_RETURN 6f6d6e69000000000000001f0000006060dacb4d"}, "value": 0.0, "n": 2}], "hex": "0100000002bdfbb1f1723a1938f0d4a11e8dbfdd5e93afb458a907939d136c08ba3779de57010000006b483045022100f837960c24cd69769e02b31ecd955d8c0c0e0a2a5699ff6a175191fd716b5fdb02203e9b8c461840f35a3b7d7e2c62ea285f0a24dc5f72f95a421c87fb490bbd6c21012102e38b99f86ccdbe379e795c75e8a1d5a86bfef0ead570991ffa4148fe3e45923effffffff6469bd5475bb27a56647ef5fd23efe12fe001e720f31e06edc659df6d86a2ccb000000006a47304402201c7e1a478c3ec765d6d0cf8aa00177f46259bf78cec8a79284b5d978a222b4d90220260e9094c686a76d24d7fbcd167f9e9ee41083bb8bf3fc31a9aec0d1b6fefbd601210271977291b74f1f5f5c42157e8aae804664eaaeccfd097918450d37f28fb94d77ffffffff03ac2c0100000000001976a914d243e6abb9a60fbff430b421d2df4b7d59ec186088ac22020000000000001976a9143851f34d13937b673a7d24a1950bb5b21ce94af388ac0000000000000000166a146f6d6e69000000000000001f0000006060dacb4d00000000", "vin": [{"sequence": 4294967295, "scriptSig": {"hex": "483045022100f837960c24cd69769e02b31ecd955d8c0c0e0a2a5699ff6a175191fd716b5fdb02203e9b8c461840f35a3b7d7e2c62ea285f0a24dc5f72f95a421c87fb490bbd6c21012102e38b99f86ccdbe379e795c75e8a1d5a86bfef0ead570991ffa4148fe3e45923e", "asm": "3045022100f837960c24cd69769e02b31ecd955d8c0c0e0a2a5699ff6a175191fd716b5fdb02203e9b8c461840f35a3b7d7e2c62ea285f0a24dc5f72f95a421c87fb490bbd6c21[ALL] 02e38b99f86ccdbe379e795c75e8a1d5a86bfef0ead570991ffa4148fe3e45923e"}, "vout": 1, "txid": "57de7937ba086c139d9307a958b4af935eddbf8d1ea1d4f038193a72f1b1fbbd"}, {"sequence": 4294967295, "scriptSig": {"hex": "47304402201c7e1a478c3ec765d6d0cf8aa00177f46259bf78cec8a79284b5d978a222b4d90220260e9094c686a76d24d7fbcd167f9e9ee41083bb8bf3fc31a9aec0d1b6fefbd601210271977291b74f1f5f5c42157e8aae804664eaaeccfd097918450d37f28fb94d77", "asm": "304402201c7e1a478c3ec765d6d0cf8aa00177f46259bf78cec8a79284b5d978a222b4d90220260e9094c686a76d24d7fbcd167f9e9ee41083bb8bf3fc31a9aec0d1b6fefbd6[ALL] 0271977291b74f1f5f5c42157e8aae804664eaaeccfd097918450d37f28fb94d77"}, "vout": 0, "txid": "cb2c6ad8f69d65dc6ee0310f721e00fe12fe3ed25fef4766a527bb7554bd6964"}], "txid": "e33d3d7b931abbcda4dfedb84fa55dcb6f6d82e5b7f06f0938cf886034942a3d", "blocktime": 1537870268, "version": 1, "confirmations": 11516, "time": 1537870268, "locktime": 0, "vsize": 404, "size": 404}