{"hash": "25edf360f682fed2c40dc639acd128ba1dc03bc0e6bd044610e768426e38a47f", "blockhash": "0000000000000000000e13cef7c366c0283d82e591d1acd082e914b08063cdf1", "vout": [{"scriptPubKey": {"reqSigs": 1, "hex": "a914bc5b0d2269c0c52a0b96716b9b81a371adf39dba87", "addresses": ["3Jrx2xqd9Py5rnE2g1CpScYBCRbpM8mHAM"], "asm": "OP_HASH160 bc5b0d2269c0c52a0b96716b9b81a371adf39dba OP_EQUAL", "type": "scripthash"}, "value": 0.0030546, "n": 0}, {"scriptPubKey": {"reqSigs": 1, "hex": "a9142dc538ce71cb10a50d79fee1183261a5aeb32cf087", "addresses": ["35s2bPoarLj4QBiUDCELzcdxvdESLJDA31"], "asm": "OP_HASH160 2dc538ce71cb10a50d79fee1183261a5aeb32cf0 OP_EQUAL", "type": "scripthash"}, "value": 0.02161942, "n": 1}], "hex": "01000000000101d80dffd4703dfd70bac1f261b0a26777ce6d37f5b7fdac3643a15a63f4325f450100000023220020a43533702b8f918e85109c5bb0cb3d02adee351674fb390409f559de892642a5ffffffff0234a904000000000017a914bc5b0d2269c0c52a0b96716b9b81a371adf39dba8716fd20000000000017a9142dc538ce71cb10a50d79fee1183261a5aeb32cf0870400483045022100bb0b92b7e4758bbc4c2c6acc5dba6ed0b094bf5c3d4ee39552f50e87e7cb472a02205c44cb72cd9f9ed83592e0b6511fb5e037824b8053523be2a7e4a938edbef781014730440220581819e0039f814480809c36a2ab34e36fb79463ba7c4517c3f62e75265a2ed60220024e5ff95fcd13805000bef21dc6c821797d0aaf50c238a385ec8bf58833485c0147522103b365417e780d3880bb487601bec488db710283cefbf9f514ea1ec0c1ad1680d4210203c534d0fa987b3bd3c576fb75f2fc2fd33a71170864e7d6ef4934997f28cd7052ae00000000", "vin": [{"txinwitness": ["", "3045022100bb0b92b7e4758bbc4c2c6acc5dba6ed0b094bf5c3d4ee39552f50e87e7cb472a02205c44cb72cd9f9ed83592e0b6511fb5e037824b8053523be2a7e4a938edbef78101", "30440220581819e0039f814480809c36a2ab34e36fb79463ba7c4517c3f62e75265a2ed60220024e5ff95fcd13805000bef21dc6c821797d0aaf50c238a385ec8bf58833485c01", "522103b365417e780d3880bb487601bec488db710283cefbf9f514ea1ec0c1ad1680d4210203c534d0fa987b3bd3c576fb75f2fc2fd33a71170864e7d6ef4934997f28cd7052ae"], "sequence": 4294967295, "scriptSig": {"hex": "220020a43533702b8f918e85109c5bb0cb3d02adee351674fb390409f559de892642a5", "asm": "0020a43533702b8f918e85109c5bb0cb3d02adee351674fb390409f559de892642a5"}, "vout": 1, "txid": "455f32f4635aa14336acfdb7f5376dce7767a2b061f2c1ba70fd3d70d4ff0dd8"}], "txid": "e3400a616f0a7807d8f8716880fcaf50f3301dbe59494f3710aef08a1565cb70", "blocktime": 1537871767, "version": 1, "confirmations": 11495, "time": 1537871767, "locktime": 0, "vsize": 206, "size": 371}