{"hash": "e3415230db1be8bfe143242822dd3577ac68eb0e9bea51a3a0108c1c993ba16b", "blockhash": "0000000000000000000baef3f32e3676a92c3b2e5da21b426e4f302fc371ce76", "vout": [{"scriptPubKey": {"reqSigs": 1, "hex": "76a914ac50ad9f53f7a7ab0de55f1f7bd5c146a87029e088ac", "addresses": ["1Gi7scgt19CidGz8ZpHTrtsMUfXLS6Wt8Q"], "asm": "OP_DUP OP_HASH160 ac50ad9f53f7a7ab0de55f1f7bd5c146a87029e0 OP_EQUALVERIFY OP_CHECKSIG", "type": "pubkeyhash"}, "value": 0.08577213, "n": 0}, {"scriptPubKey": {"type": "nulldata", "hex": "6a146f6d6e69000000000000001f0000003fa4edfd80", "asm": "OP_RETURN 6f6d6e69000000000000001f0000003fa4edfd80"}, "value": 0.0, "n": 1}, {"scriptPubKey": {"reqSigs": 1, "hex": "a914e8485d1ce40d6543cefbf45256d0ad25f54e1adc87", "addresses": ["3NsDNy6VgmdLLUP4s2DR1K8g4sYXNYvkag"], "asm": "OP_HASH160 e8485d1ce40d6543cefbf45256d0ad25f54e1adc OP_EQUAL", "type": "scripthash"}, "value": 5.4e-06, "n": 2}], "hex": "010000000181e56e1f18f99fe818888181873edaf8f2e6d3cbac914e36475f6fe1b80cf82a000000006b483045022100962ab7b9bed74fd43fba8e15cf3c89e1ffd768b52d825ba3c698c3e13d00466602200fdb51ed55cc7746831a2f94f7ef8d52c541caf3ddc3ea4e61fb1d07e65a59920121035261cbee3658f2d5eda72974ecb86224ec61e3b879b7a7e0f69e87ddfd028580ffffffff03bde08200000000001976a914ac50ad9f53f7a7ab0de55f1f7bd5c146a87029e088ac0000000000000000166a146f6d6e69000000000000001f0000003fa4edfd801c0200000000000017a914e8485d1ce40d6543cefbf45256d0ad25f54e1adc8700000000", "vin": [{"sequence": 4294967295, "scriptSig": {"hex": "483045022100962ab7b9bed74fd43fba8e15cf3c89e1ffd768b52d825ba3c698c3e13d00466602200fdb51ed55cc7746831a2f94f7ef8d52c541caf3ddc3ea4e61fb1d07e65a59920121035261cbee3658f2d5eda72974ecb86224ec61e3b879b7a7e0f69e87ddfd028580", "asm": "3045022100962ab7b9bed74fd43fba8e15cf3c89e1ffd768b52d825ba3c698c3e13d00466602200fdb51ed55cc7746831a2f94f7ef8d52c541caf3ddc3ea4e61fb1d07e65a5992[ALL] 035261cbee3658f2d5eda72974ecb86224ec61e3b879b7a7e0f69e87ddfd028580"}, "vout": 0, "txid": "2af80cb8e16f5f47364e91accbd3e6f2f8da3e8781818818e89ff9181f6ee581"}], "txid": "e3415230db1be8bfe143242822dd3577ac68eb0e9bea51a3a0108c1c993ba16b", "blocktime": 1537876114, "version": 1, "confirmations": 11460, "time": 1537876114, "locktime": 0, "vsize": 255, "size": 255}