{"hash": "e3464ef4b03e6beefe78790c0037c49fd4cdc774a76d14caea45f00988a98322", "blockhash": "0000000000000000000e13cef7c366c0283d82e591d1acd082e914b08063cdf1", "vout": [{"scriptPubKey": {"reqSigs": 1, "hex": "76a9142d0c40b760bffa39ed4a26013e72d5b463bf324b88ac", "addresses": ["157C5yMppAaEZq6JaVQ5sVc6oWai3J3Mct"], "asm": "OP_DUP OP_HASH160 2d0c40b760bffa39ed4a26013e72d5b463bf324b OP_EQUALVERIFY OP_CHECKSIG", "type": "pubkeyhash"}, "value": 0.00233261, "n": 0}, {"scriptPubKey": {"reqSigs": 1, "hex": "76a914d5c3f4c2f387d066b5e5a06a32cc87f01923b5a288ac", "addresses": ["1LVHg8SsQwEv98ujmjLxTMV8oVcNbg982D"], "asm": "OP_DUP OP_HASH160 d5c3f4c2f387d066b5e5a06a32cc87f01923b5a2 OP_EQUALVERIFY OP_CHECKSIG", "type": "pubkeyhash"}, "value": 0.02422166, "n": 1}], "hex": "0100000001144f864e46dcc5fa47cedfa87289822c5b22189bbb0c1a58c11b1941cc5347b4000000006a47304402207815be2e0c49d943d4dafdc8af2c928b0e86c15af1f8e503befd4007970d4be802207d63f3baab2075f3d4acacfc85fe071bc6f1d5d0c23145719d903e50bd887a7201210322b78db19e5c45d34736d255dfa6a821c3b42ffa1564528a4eadf0b286e00d4effffffff022d8f0300000000001976a9142d0c40b760bffa39ed4a26013e72d5b463bf324b88ac96f52400000000001976a914d5c3f4c2f387d066b5e5a06a32cc87f01923b5a288ac00000000", "vin": [{"sequence": 4294967295, "scriptSig": {"hex": "47304402207815be2e0c49d943d4dafdc8af2c928b0e86c15af1f8e503befd4007970d4be802207d63f3baab2075f3d4acacfc85fe071bc6f1d5d0c23145719d903e50bd887a7201210322b78db19e5c45d34736d255dfa6a821c3b42ffa1564528a4eadf0b286e00d4e", "asm": "304402207815be2e0c49d943d4dafdc8af2c928b0e86c15af1f8e503befd4007970d4be802207d63f3baab2075f3d4acacfc85fe071bc6f1d5d0c23145719d903e50bd887a72[ALL] 0322b78db19e5c45d34736d255dfa6a821c3b42ffa1564528a4eadf0b286e00d4e"}, "vout": 0, "txid": "b44753cc41191bc1581a0cbb9b18225b2c828972a8dfce47fac5dc464e864f14"}], "txid": "e3464ef4b03e6beefe78790c0037c49fd4cdc774a76d14caea45f00988a98322", "blocktime": 1537871767, "version": 1, "confirmations": 11495, "time": 1537871767, "locktime": 0, "vsize": 225, "size": 225}