{"hash": "e347f36e24859aa194a8db787d69d5029e6897562959ae9bdb2c9382a368ad45", "blockhash": "00000000000000000024a2167bbff67b0be802c0b01cdd79e6331c2be6459f87", "vout": [{"scriptPubKey": {"reqSigs": 1, "hex": "a914ff2da11cf36926ead5fb0207fb37531e283fc36e87", "addresses": ["3QxGtqrkHQa6Mfkqgbc7ZR9pEus6tt2EXe"], "asm": "OP_HASH160 ff2da11cf36926ead5fb0207fb37531e283fc36e OP_EQUAL", "type": "scripthash"}, "value": 0.00251202, "n": 0}, {"scriptPubKey": {"reqSigs": 1, "hex": "76a9144f4fac80cca2fca8a1260bb616599f66b095d21988ac", "addresses": ["18EMpzRdBvhHrhXA7TKKSfVGesdkn2L48w"], "asm": "OP_DUP OP_HASH160 4f4fac80cca2fca8a1260bb616599f66b095d219 OP_EQUALVERIFY OP_CHECKSIG", "type": "pubkeyhash"}, "value": 0.00313958, "n": 1}], "hex": "010000000139f464b7a637ac1aae467fe6a3dd8b069f832038a8c704175a866e00b9a66f77010000006b483045022100b5deb50bd5c9a4dba2f98b45e1ff444e6bf2d99a164bf4ea18bfd151b414fef2022043128f750317ee11c8dfbc092d0af44fa4f8bf754ecd63564c42f967992d27910121035c324f4a8d67033bddcd677a82e4b84029d41f784d0990bd71f907dde0ec7e2efdffffff0242d503000000000017a914ff2da11cf36926ead5fb0207fb37531e283fc36e8766ca0400000000001976a9144f4fac80cca2fca8a1260bb616599f66b095d21988ac0c490800", "vin": [{"sequence": 4294967293, "scriptSig": {"hex": "483045022100b5deb50bd5c9a4dba2f98b45e1ff444e6bf2d99a164bf4ea18bfd151b414fef2022043128f750317ee11c8dfbc092d0af44fa4f8bf754ecd63564c42f967992d27910121035c324f4a8d67033bddcd677a82e4b84029d41f784d0990bd71f907dde0ec7e2e", "asm": "3045022100b5deb50bd5c9a4dba2f98b45e1ff444e6bf2d99a164bf4ea18bfd151b414fef2022043128f750317ee11c8dfbc092d0af44fa4f8bf754ecd63564c42f967992d2791[ALL] 035c324f4a8d67033bddcd677a82e4b84029d41f784d0990bd71f907dde0ec7e2e"}, "vout": 1, "txid": "776fa6b9006e865a1704c7a83820839f068bdda3e67f46ae1aac37a6b764f439"}], "txid": "e347f36e24859aa194a8db787d69d5029e6897562959ae9bdb2c9382a368ad45", "blocktime": 1537870564, "version": 1, "confirmations": 11515, "time": 1537870564, "locktime": 542988, "vsize": 224, "size": 224}