{"hash": "c0de7d7d7f8383e57e952fd0f249a878284b7fd443a25421f8e3637ba245cb91", "blockhash": "0000000000000000000e13cef7c366c0283d82e591d1acd082e914b08063cdf1", "vout": [{"scriptPubKey": {"reqSigs": 1, "hex": "a91436f24b08ed819bd0b4b9d0efe35c7840b0700fb787", "addresses": ["36hYfisJAmetoLoZrvcEA1P6E2N2ZUK8iz"], "asm": "OP_HASH160 36f24b08ed819bd0b4b9d0efe35c7840b0700fb7 OP_EQUAL", "type": "scripthash"}, "value": 0.025, "n": 0}, {"scriptPubKey": {"reqSigs": 1, "hex": "0014f0f24a887beaf031fda43e57d16654af1a04828e", "addresses": ["bc1q7rey4zrmatcrrldy8etazej54udqfq5wt7rs3c"], "asm": "0 f0f24a887beaf031fda43e57d16654af1a04828e", "type": "witness_v0_keyhash"}, "value": 0.53885923, "n": 1}], "hex": "01000000000101443c615c8c4b432124c0138d868010e20abf83f9fe5b0480fb64a3d33f307c590000000000ffffffff02a02526000000000017a91436f24b08ed819bd0b4b9d0efe35c7840b0700fb787e33b360300000000160014f0f24a887beaf031fda43e57d16654af1a04828e02483045022100e29a6f2561040d32a72c05e8d17f4d847bd4f014be2a6d1867fcda9620f74fd302200e0c04c22499c07ffda38d381e1040a1d16599f8fa5305546783fe73918288c00121024eabcf1f9647e154fd4b58c3cff7bfd54634bf015030c4879108f8d2719a9fa000000000", "vin": [{"txinwitness": ["3045022100e29a6f2561040d32a72c05e8d17f4d847bd4f014be2a6d1867fcda9620f74fd302200e0c04c22499c07ffda38d381e1040a1d16599f8fa5305546783fe73918288c001", "024eabcf1f9647e154fd4b58c3cff7bfd54634bf015030c4879108f8d2719a9fa0"], "sequence": 4294967295, "scriptSig": {"hex": "", "asm": ""}, "vout": 0, "txid": "597c303fd3a364fb80045bfef983bf0ae21080868d13c02421434b8c5c613c44"}], "txid": "e34790775e7527a073d101c1257c7d77ec93c06d1ba7bbee2796af9152a61e0c", "blocktime": 1537871767, "version": 1, "confirmations": 11495, "time": 1537871767, "locktime": 0, "vsize": 142, "size": 224}