{"hash": "ea800b4a440b363862219c87c8caad1f361a947b0c3da2bc079e08e138876983", "blockhash": "00000000000000000017f5eb5941039fbcee6240d03bc1f2f8e35350df66a1d8", "vout": [{"scriptPubKey": {"reqSigs": 1, "hex": "a914b4468f3d4b28cfe387779867030d4606d5d665fa87", "addresses": ["3J8E5doF9omGyppCBy4PanaAmfZJQCcoxE"], "asm": "OP_HASH160 b4468f3d4b28cfe387779867030d4606d5d665fa OP_EQUAL", "type": "scripthash"}, "value": 0.00260466, "n": 0}, {"scriptPubKey": {"reqSigs": 1, "hex": "a914d7ed1724e494e7b2fe484e0890b2b3c6baf5a39b87", "addresses": ["3MNjE7mgeFyrDuYY4cYLdcggyrsjbMmcxV"], "asm": "OP_HASH160 d7ed1724e494e7b2fe484e0890b2b3c6baf5a39b OP_EQUAL", "type": "scripthash"}, "value": 0.00280901, "n": 1}, {"scriptPubKey": {"reqSigs": 1, "hex": "a914afd7758b891bf6915a2c7e344ca6c7b315c04fa387", "addresses": ["3HinHUjaGQoZfz9b8UzbXPiDMV2LXS81Bi"], "asm": "OP_HASH160 afd7758b891bf6915a2c7e344ca6c7b315c04fa3 OP_EQUAL", "type": "scripthash"}, "value": 0.00017425, "n": 2}, {"scriptPubKey": {"reqSigs": 1, "hex": "a9146df63b5c3b0bd535cd28207276d9b2efa997f8b187", "addresses": ["3BiSYwhhunfyn6DN4iLgBRoGVJ27mrY7Kc"], "asm": "OP_HASH160 6df63b5c3b0bd535cd28207276d9b2efa997f8b1 OP_EQUAL", "type": "scripthash"}, "value": 0.00378926, "n": 3}, {"scriptPubKey": {"reqSigs": 1, "hex": "a914a2948a46c1e0ca13a902529738221b0efa79771487", "addresses": ["3GWfLNRvcAzWAbkFHNs7NDTDZ61JPNspwA"], "asm": "OP_HASH160 a2948a46c1e0ca13a902529738221b0efa797714 OP_EQUAL", "type": "scripthash"}, "value": 0.00111663, "n": 4}, {"scriptPubKey": {"reqSigs": 1, "hex": "a9143f36af953a0443f73bb009c146404b2a1591fa7287", "addresses": ["37TG1GcUeitDa4g5PC5ZxaNHUudYdg4BwP"], "asm": "OP_HASH160 3f36af953a0443f73bb009c146404b2a1591fa72 OP_EQUAL", "type": "scripthash"}, "value": 0.00549017, "n": 5}, {"scriptPubKey": {"reqSigs": 1, "hex": "76a9149ef69fb57d3b2dc919af5ab9ce339b0028cdcd8188ac", "addresses": ["1FVXD34q46S5sDjsZm8tRosPwiu81mqqPF"], "asm": "OP_DUP OP_HASH160 9ef69fb57d3b2dc919af5ab9ce339b0028cdcd81 OP_EQUALVERIFY OP_CHECKSIG", "type": "pubkeyhash"}, "value": 0.0021, "n": 6}, {"scriptPubKey": {"reqSigs": 1, "hex": "a9144cebde57af50972d475b03bbbe251d7eea24b95b87", "addresses": ["38hjqZAMvzk8MxFJL7NNAe9QhKZ5iQUtFp"], "asm": "OP_HASH160 4cebde57af50972d475b03bbbe251d7eea24b95b OP_EQUAL", "type": "scripthash"}, "value": 0.00664282, "n": 7}, {"scriptPubKey": {"reqSigs": 1, "hex": "76a9146d54b3dbb550c737c768ac13d0af14dd680a118c88ac", "addresses": ["1Ay689YepaHWUxQZnJApW35JFTksFNQWaJ"], "asm": "OP_DUP OP_HASH160 6d54b3dbb550c737c768ac13d0af14dd680a118c OP_EQUALVERIFY OP_CHECKSIG", "type": "pubkeyhash"}, "value": 1.8, "n": 8}, {"scriptPubKey": {"reqSigs": 1, "hex": "a914021e51161cecbca7e2c4c7b5e3991d84fdc9b6fc87", "addresses": ["31tDbNWdSg9xSian22CvmevfEQgJnNJFFU"], "asm": "OP_HASH160 021e51161cecbca7e2c4c7b5e3991d84fdc9b6fc OP_EQUAL", "type": "scripthash"}, "value": 0.0015, "n": 9}, {"scriptPubKey": {"reqSigs": 1, "hex": "a9144eabb2120d6a610fb22add5faf757f6c70247ec587", "addresses": ["38rzK8D9hjBwXA94X5LXkpZrpheBtDRDx7"], "asm": "OP_HASH160 4eabb2120d6a610fb22add5faf757f6c70247ec5 OP_EQUAL", "type": "scripthash"}, "value": 0.00359876, "n": 10}, {"scriptPubKey": {"reqSigs": 1, "hex": "76a9146d9541501a0931be8250ae9084a7328dbb15aaa388ac", "addresses": ["1AzRTLaraqD1YhcXHymSdajfp47eaoDbAm"], "asm": "OP_DUP OP_HASH160 6d9541501a0931be8250ae9084a7328dbb15aaa3 OP_EQUALVERIFY OP_CHECKSIG", "type": "pubkeyhash"}, "value": 0.0071921, "n": 11}, {"scriptPubKey": {"reqSigs": 1, "hex": "a914580b88b6e16417046231074c0e25f6f7b7337a7c87", "addresses": ["39iZCpkFAcXqCiP91A3yZ5gz6pBaua78ew"], "asm": "OP_HASH160 580b88b6e16417046231074c0e25f6f7b7337a7c OP_EQUAL", "type": "scripthash"}, "value": 0.00149083, "n": 12}, {"scriptPubKey": {"reqSigs": 1, "hex": "a914b8524736c353781a330954da66afa786bbb5290687", "addresses": ["3JVcpdR7nVTjRVqY8EbwtQpmn2eujkug2V"], "asm": "OP_HASH160 b8524736c353781a330954da66afa786bbb52906 OP_EQUAL", "type": "scripthash"}, "value": 0.0011218, "n": 13}, {"scriptPubKey": {"reqSigs": 1, "hex": "a914f6225859d3a6b4802fc657ddf9c930dc8bed82c387", "addresses": ["3Q8TJ5J4mR5kAaEjB1RYmjBEPnMwWJ55nX"], "asm": "OP_HASH160 f6225859d3a6b4802fc657ddf9c930dc8bed82c3 OP_EQUAL", "type": "scripthash"}, "value": 0.00749291, "n": 14}, {"scriptPubKey": {"reqSigs": 1, "hex": "a91427aaa04e2398855b99dc94b97bace4f663dbf16c87", "addresses": ["35JkgLimbdgtXRSLx6vifwkvjpjxcwVDXz"], "asm": "OP_HASH160 27aaa04e2398855b99dc94b97bace4f663dbf16c OP_EQUAL", "type": "scripthash"}, "value": 0.00530254, "n": 15}, {"scriptPubKey": {"reqSigs": 1, "hex": "a914b5cf0348d7fe68a8835a8161e8e648f9642c6e4087", "addresses": ["3JGLDmY3aKFD88bt8oNRxWbTD7vF9KSxdM"], "asm": "OP_HASH160 b5cf0348d7fe68a8835a8161e8e648f9642c6e40 OP_EQUAL", "type": "scripthash"}, "value": 0.00215075, "n": 16}, {"scriptPubKey": {"reqSigs": 1, "hex": "76a91489d9b5db0cc5a810c035d75223b27381f447775788ac", "addresses": ["1DZtP4dzicMWKJmsnZApioQAHXBMaCKHoM"], "asm": "OP_DUP OP_HASH160 89d9b5db0cc5a810c035d75223b27381f4477757 OP_EQUALVERIFY OP_CHECKSIG", "type": "pubkeyhash"}, "value": 0.01251929, "n": 17}, {"scriptPubKey": {"reqSigs": 1, "hex": "a9146169dba779c6a676ba0912a80574ee108dac4ef787", "addresses": ["3Aa6HJ7ELovJXTQjm9iSy2pCthJGmfgLo3"], "asm": "OP_HASH160 6169dba779c6a676ba0912a80574ee108dac4ef7 OP_EQUAL", "type": "scripthash"}, "value": 0.00325113, "n": 18}, {"scriptPubKey": {"reqSigs": 1, "hex": "a914c324c41fb910b934e4b0b67ccd642279cb75c3b787", "addresses": ["3KUqjWE9x8SWAJZkvmRRqAkrKNWaL5BWhU"], "asm": "OP_HASH160 c324c41fb910b934e4b0b67ccd642279cb75c3b7 OP_EQUAL", "type": "scripthash"}, "value": 0.00225947, "n": 19}, {"scriptPubKey": {"reqSigs": 1, "hex": "a914222499818a2f242d638932a942ad89fe3dc95eae87", "addresses": ["34oYk42karqbYq3cZV5uPDD9ngJLWJUuEx"], "asm": "OP_HASH160 222499818a2f242d638932a942ad89fe3dc95eae OP_EQUAL", "type": "scripthash"}, "value": 0.00364344, "n": 20}, {"scriptPubKey": {"reqSigs": 1, "hex": "a914eb2bc5fe96a9c1e0edf98436ca5e3a2eeb244dd087", "addresses": ["3P8VA46TaZu14zPFMHDv5AkpcvZPr6FaDh"], "asm": "OP_HASH160 eb2bc5fe96a9c1e0edf98436ca5e3a2eeb244dd0 OP_EQUAL", "type": "scripthash"}, "value": 0.00302915, "n": 21}, {"scriptPubKey": {"reqSigs": 1, "hex": "a9143fe2f8617368d2026fa43668081f9f5dc76fcdf887", "addresses": ["37WpPoDQ2o8CwqesidJhd3KrZzqa8iRJqs"], "asm": "OP_HASH160 3fe2f8617368d2026fa43668081f9f5dc76fcdf8 OP_EQUAL", "type": "scripthash"}, "value": 0.0071, "n": 22}, {"scriptPubKey": {"reqSigs": 1, "hex": "a91480527f509fdb14d0f7ea43127aefe4667bfe9dd087", "addresses": ["3DPXF7V4aSfyKiyrxLrmCpc41RaR3EuREo"], "asm": "OP_HASH160 80527f509fdb14d0f7ea43127aefe4667bfe9dd0 OP_EQUAL", "type": "scripthash"}, "value": 0.00507952, "n": 23}, {"scriptPubKey": {"reqSigs": 1, "hex": "76a9143887abf908a3405a4a1a8e3a6f9ca676e8af97da88ac", "addresses": ["169uNPAuAhuq1w4RsZ6xVCh11i7NZnSDPX"], "asm": "OP_DUP OP_HASH160 3887abf908a3405a4a1a8e3a6f9ca676e8af97da OP_EQUALVERIFY OP_CHECKSIG", "type": "pubkeyhash"}, "value": 0.01046053, "n": 24}, {"scriptPubKey": {"reqSigs": 1, "hex": "a914cd4789413b4dc57d961d528d4a8df9f54a1d726187", "addresses": ["3LQS9HetM875m1w8dY79pc2fw6vdbK3pkE"], "asm": "OP_HASH160 cd4789413b4dc57d961d528d4a8df9f54a1d7261 OP_EQUAL", "type": "scripthash"}, "value": 16.9850041, "n": 25}, {"scriptPubKey": {"reqSigs": 1, "hex": "a91452d9d389db4f45e307444c34999b6dddbb873ac887", "addresses": ["39F6H7TCFM8C3vdazBukf6BMLxw8NstpMt"], "asm": "OP_HASH160 52d9d389db4f45e307444c34999b6dddbb873ac8 OP_EQUAL", "type": "scripthash"}, "value": 0.01886915, "n": 26}, {"scriptPubKey": {"reqSigs": 1, "hex": "76a91484034cb673027eda6254b8387340780628d2c17188ac", "addresses": ["1D329az6hY7KDv4ntvSL68edHHtyQ7d45m"], "asm": "OP_DUP OP_HASH160 84034cb673027eda6254b8387340780628d2c171 OP_EQUALVERIFY OP_CHECKSIG", "type": "pubkeyhash"}, "value": 0.0065604, "n": 27}, {"scriptPubKey": {"reqSigs": 1, "hex": "76a914faa1dbab355480b527f67ae1dfc23096ca108bbb88ac", "addresses": ["1PrDq49UQca3CWGd5WLimH4Yy4ep1UefLG"], "asm": "OP_DUP OP_HASH160 faa1dbab355480b527f67ae1dfc23096ca108bbb OP_EQUALVERIFY OP_CHECKSIG", "type": "pubkeyhash"}, "value": 0.00028168, "n": 28}, {"scriptPubKey": {"reqSigs": 1, "hex": "a9143849719106a6b318a15d3c621563381c2670c15287", "addresses": ["36pdkEnA5TUKtk3u1FpPCHfqVvS2qcgu34"], "asm": "OP_HASH160 3849719106a6b318a15d3c621563381c2670c152 OP_EQUAL", "type": "scripthash"}, "value": 0.00078645, "n": 29}, {"scriptPubKey": {"reqSigs": 1, "hex": "76a9146132859f72dd1b85d1b3c1abeaf1892aa1398c8088ac", "addresses": ["19rw4wEuDUZJTSS51YQPRJEV4t4viwwh3T"], "asm": "OP_DUP OP_HASH160 6132859f72dd1b85d1b3c1abeaf1892aa1398c80 OP_EQUALVERIFY OP_CHECKSIG", "type": "pubkeyhash"}, "value": 0.008546, "n": 30}, {"scriptPubKey": {"reqSigs": 1, "hex": "a9141c7114d557f06d2ea90fa56e6e644dcfa8df1e3587", "addresses": ["34HQJwt9hN1m7PcHigT6GTMos463665zG5"], "asm": "OP_HASH160 1c7114d557f06d2ea90fa56e6e644dcfa8df1e35 OP_EQUAL", "type": "scripthash"}, "value": 0.00659732, "n": 31}, {"scriptPubKey": {"reqSigs": 1, "hex": "a9141bb6c764b9210b13ec8dae02370b6a07f5bdc9ce87", "addresses": ["34DZ8RTMcZGRBtGZN93ysDDFg8XbfhLcW8"], "asm": "OP_HASH160 1bb6c764b9210b13ec8dae02370b6a07f5bdc9ce OP_EQUAL", "type": "scripthash"}, "value": 0.00214004, "n": 32}, {"scriptPubKey": {"reqSigs": 1, "hex": "76a9145048af8d88610b7e4b6d15d56e018b98a3a0bfb988ac", "addresses": ["18KW8eBiGadwdo7TVuHYHKERDv3pZFFDEM"], "asm": "OP_DUP OP_HASH160 5048af8d88610b7e4b6d15d56e018b98a3a0bfb9 OP_EQUALVERIFY OP_CHECKSIG", "type": "pubkeyhash"}, "value": 0.0046456, "n": 33}, {"scriptPubKey": {"reqSigs": 1, "hex": "a914a05043c1ce7afa1d73c74b61f218ebaf609b1aab87", "addresses": ["3GJgC89eyUgKj66SLbhhxzCTwDQ9aS8RDX"], "asm": "OP_HASH160 a05043c1ce7afa1d73c74b61f218ebaf609b1aab OP_EQUAL", "type": "scripthash"}, "value": 0.0025666, "n": 34}, {"scriptPubKey": {"reqSigs": 1, "hex": "76a91415a47dccd585f4bdff3b80ad9000ec3f3b2b699788ac", "addresses": ["12ySF6Kdmgcn1ij2uYhi4viAViq8Pg8Z3z"], "asm": "OP_DUP OP_HASH160 15a47dccd585f4bdff3b80ad9000ec3f3b2b6997 OP_EQUALVERIFY OP_CHECKSIG", "type": "pubkeyhash"}, "value": 0.02060556, "n": 35}, {"scriptPubKey": {"reqSigs": 1, "hex": "a9143e24e566252717263bdc216aadf17c7098e3784e87", "addresses": ["37Mc22FxrYgXBT8AxcSVZG2Zf8eYEB5e1H"], "asm": "OP_HASH160 3e24e566252717263bdc216aadf17c7098e3784e OP_EQUAL", "type": "scripthash"}, "value": 0.0035626, "n": 36}, {"scriptPubKey": {"reqSigs": 1, "hex": "76a914376097eb1d75f32993d9876de8f843f22db3a8de88ac", "addresses": ["163osyqXAL8n3PQGMfcoRKkdn8y2fnJgm7"], "asm": "OP_DUP OP_HASH160 376097eb1d75f32993d9876de8f843f22db3a8de OP_EQUALVERIFY OP_CHECKSIG", "type": "pubkeyhash"}, "value": 0.00451672, "n": 37}, {"scriptPubKey": {"reqSigs": 1, "hex": "a9147e37e63776d4f211dc4b846a424579c25c26ae4687", "addresses": ["3DCQ2fWMpK2a7NPdLxY7Du8d2AE7nBjjv1"], "asm": "OP_HASH160 7e37e63776d4f211dc4b846a424579c25c26ae46 OP_EQUAL", "type": "scripthash"}, "value": 0.0030306, "n": 38}], "hex": "02000000000101e8eb496a33058bbf03429ed9710887e8340212d59774d00ecc840bf9910f43d80c00000017160014a70713def4747e6df69ea8b1d45ac13e747dc34bfeffffff2772f903000000000017a914b4468f3d4b28cfe387779867030d4606d5d665fa87454904000000000017a914d7ed1724e494e7b2fe484e0890b2b3c6baf5a39b87114400000000000017a914afd7758b891bf6915a2c7e344ca6c7b315c04fa3872ec805000000000017a9146df63b5c3b0bd535cd28207276d9b2efa997f8b1872fb401000000000017a914a2948a46c1e0ca13a902529738221b0efa79771487996008000000000017a9143f36af953a0443f73bb009c146404b2a1591fa728750340300000000001976a9149ef69fb57d3b2dc919af5ab9ce339b0028cdcd8188acda220a000000000017a9144cebde57af50972d475b03bbbe251d7eea24b95b870095ba0a000000001976a9146d54b3dbb550c737c768ac13d0af14dd680a118c88acf04902000000000017a914021e51161cecbca7e2c4c7b5e3991d84fdc9b6fc87c47d05000000000017a9144eabb2120d6a610fb22add5faf757f6c70247ec5876af90a00000000001976a9146d9541501a0931be8250ae9084a7328dbb15aaa388ac5b4602000000000017a914580b88b6e16417046231074c0e25f6f7b7337a7c8734b601000000000017a914b8524736c353781a330954da66afa786bbb5290687eb6e0b000000000017a914f6225859d3a6b4802fc657ddf9c930dc8bed82c3874e1708000000000017a91427aaa04e2398855b99dc94b97bace4f663dbf16c87234803000000000017a914b5cf0348d7fe68a8835a8161e8e648f9642c6e4087591a1300000000001976a91489d9b5db0cc5a810c035d75223b27381f447775788acf9f504000000000017a9146169dba779c6a676ba0912a80574ee108dac4ef7879b7203000000000017a914c324c41fb910b934e4b0b67ccd642279cb75c3b787388f05000000000017a914222499818a2f242d638932a942ad89fe3dc95eae87439f04000000000017a914eb2bc5fe96a9c1e0edf98436ca5e3a2eeb244dd08770d50a000000000017a9143fe2f8617368d2026fa43668081f9f5dc76fcdf88730c007000000000017a91480527f509fdb14d0f7ea43127aefe4667bfe9dd08725f60f00000000001976a9143887abf908a3405a4a1a8e3a6f9ca676e8af97da88ac3a0f3d650000000017a914cd4789413b4dc57d961d528d4a8df9f54a1d726187c3ca1c000000000017a91452d9d389db4f45e307444c34999b6dddbb873ac887a8020a00000000001976a91484034cb673027eda6254b8387340780628d2c17188ac086e0000000000001976a914faa1dbab355480b527f67ae1dfc23096ca108bbb88ac353301000000000017a9143849719106a6b318a15d3c621563381c2670c15287480a0d00000000001976a9146132859f72dd1b85d1b3c1abeaf1892aa1398c8088ac14110a000000000017a9141c7114d557f06d2ea90fa56e6e644dcfa8df1e3587f44303000000000017a9141bb6c764b9210b13ec8dae02370b6a07f5bdc9ce87b0160700000000001976a9145048af8d88610b7e4b6d15d56e018b98a3a0bfb988ac94ea03000000000017a914a05043c1ce7afa1d73c74b61f218ebaf609b1aab870c711f00000000001976a91415a47dccd585f4bdff3b80ad9000ec3f3b2b699788aca46f05000000000017a9143e24e566252717263bdc216aadf17c7098e3784e8758e40600000000001976a914376097eb1d75f32993d9876de8f843f22db3a8de88acd49f04000000000017a9147e37e63776d4f211dc4b846a424579c25c26ae46870247304402201815791c0c3048ea63ee68dab6ff8ea1766556d3de0388cc0795aeda57a3269302201d9607fbf26b72c9391b28ca01c52d3269c5c5d82185a51d7f97b0e152318e550121030974a33b43c0013e0758431d5807c8de0605931cbdf340ca84de3120137d5d1415490800", "vin": [{"txinwitness": ["304402201815791c0c3048ea63ee68dab6ff8ea1766556d3de0388cc0795aeda57a3269302201d9607fbf26b72c9391b28ca01c52d3269c5c5d82185a51d7f97b0e152318e5501", "030974a33b43c0013e0758431d5807c8de0605931cbdf340ca84de3120137d5d14"], "sequence": 4294967294, "scriptSig": {"hex": "160014a70713def4747e6df69ea8b1d45ac13e747dc34b", "asm": "0014a70713def4747e6df69ea8b1d45ac13e747dc34b"}, "vout": 12, "txid": "d8430f91f90b84cc0ed07497d5120234e8870871d99e4203bf8b05336a49ebe8"}], "txid": "e34bc1f9f766009542a0cbc85cf295bba335bba37a01077254ade671500a0cf3", "blocktime": 1537874412, "version": 2, "confirmations": 11467, "time": 1537874412, "locktime": 542997, "vsize": 1372, "size": 1453}