{"hash": "fd75df321470036bf128da3cb017d34f93f061f76f4b250b8673339fbeb65f1b", "blockhash": "0000000000000000001f76057863aec43deb6fa401d9628bb513d65a8098bfab", "vout": [{"scriptPubKey": {"reqSigs": 1, "hex": "a9148ca6193d395090c2d1c43246401c23a4a14f308d87", "addresses": ["3EWhW8deT6mDTZkHD9zDwK7XA71bLLVf72"], "asm": "OP_HASH160 8ca6193d395090c2d1c43246401c23a4a14f308d OP_EQUAL", "type": "scripthash"}, "value": 0.00999036, "n": 0}, {"scriptPubKey": {"reqSigs": 1, "hex": "76a914d08996c47fceac06dc7bcb8b41ea858b0b4721f488ac", "addresses": ["1L1eNkMsn5dX6itogsaNiSFoJWhx2hCGfQ"], "asm": "OP_DUP OP_HASH160 d08996c47fceac06dc7bcb8b41ea858b0b4721f4 OP_EQUALVERIFY OP_CHECKSIG", "type": "pubkeyhash"}, "value": 0.0032276, "n": 1}], "hex": "020000000001021b5aa8e7bf2b67d80391e51c32d50d0482ed8eda826a11b12274548be946489817000000171600148224b3e849898e5b9fa1cd07e4e6c4733157d16ffeffffffb55da9dda5118af87c57cbb0db890a49d5dad51fd6a8c8fd6c6321814424f02f010000001716001414f97a470d0155d56520f9f5f835bf345bc544cdfeffffff027c3e0f000000000017a9148ca6193d395090c2d1c43246401c23a4a14f308d87c8ec0400000000001976a914d08996c47fceac06dc7bcb8b41ea858b0b4721f488ac02483045022100b52d54b1c71b30a72cb7cd5346228b34c67aed7b15659236ebf580e6624fd6fc022005c84ac712e208a6c38a5fba001d85d830c0b3ae7f4141a6f58db431e16b587a012102d1862828546b7775ef271d39f525c1ab250f8a2a4d373787ef2c57db5f9b3ab9024830450221008b927d4d4e349f13f96081eed3805b573755b11d0dd75d60e4b262b1a587cd60022075b417f9fb82798d38263e2bd7fe9f874057ffb4824b60fba2049f9df69eb60e0121028f3b5021ffa172aeb7a21c7817e19b0d3f0aca3a6a247370dc5109779143cf3b14490800", "vin": [{"txinwitness": ["3045022100b52d54b1c71b30a72cb7cd5346228b34c67aed7b15659236ebf580e6624fd6fc022005c84ac712e208a6c38a5fba001d85d830c0b3ae7f4141a6f58db431e16b587a01", "02d1862828546b7775ef271d39f525c1ab250f8a2a4d373787ef2c57db5f9b3ab9"], "sequence": 4294967294, "scriptSig": {"hex": "1600148224b3e849898e5b9fa1cd07e4e6c4733157d16f", "asm": "00148224b3e849898e5b9fa1cd07e4e6c4733157d16f"}, "vout": 23, "txid": "984846e98b547422b1116a82da8eed82040dd5321ce59103d8672bbfe7a85a1b"}, {"txinwitness": ["30450221008b927d4d4e349f13f96081eed3805b573755b11d0dd75d60e4b262b1a587cd60022075b417f9fb82798d38263e2bd7fe9f874057ffb4824b60fba2049f9df69eb60e01", "028f3b5021ffa172aeb7a21c7817e19b0d3f0aca3a6a247370dc5109779143cf3b"], "sequence": 4294967294, "scriptSig": {"hex": "16001414f97a470d0155d56520f9f5f835bf345bc544cd", "asm": "001414f97a470d0155d56520f9f5f835bf345bc544cd"}, "vout": 1, "txid": "2ff024448121636cfdc8a8d61fd5dad5490a89dbb0cb577cf88a11a5dda95db5"}], "txid": "e34cd2bea0883628328a1bf3a03fb1ca82dc9e1133af491c47778b3a2951e4e0", "blocktime": 1537873891, "version": 2, "confirmations": 11478, "time": 1537873891, "locktime": 542996, "vsize": 259, "size": 422}