{"hash": "e34dac816fd55f412f45e58514db3c2b376d1021cd4edee71d399fdc16e9097f", "blockhash": "0000000000000000001f76057863aec43deb6fa401d9628bb513d65a8098bfab", "vout": [{"scriptPubKey": {"type": "nulldata", "hex": "6a4c50000077eb0001898c5f3db24d8427f7d2a7c27af8e8e963c7cfd5b95b23cc0f42c2fc38c5cace7bf33c6de829e480a5d8b3e868275baa179f0613112e39738db1bc9a9526289ac0f6612cd74e33776ee4", "asm": "OP_RETURN 000077eb0001898c5f3db24d8427f7d2a7c27af8e8e963c7cfd5b95b23cc0f42c2fc38c5cace7bf33c6de829e480a5d8b3e868275baa179f0613112e39738db1bc9a9526289ac0f6612cd74e33776ee4"}, "value": 0.0, "n": 0}, {"scriptPubKey": {"reqSigs": 1, "hex": "76a9147efd74f5dfdcb354a3822b4c0f4a0d23b95f509988ac", "addresses": ["1CaTmfTsqx8gNQcu8VKCiw1j75Rtox4nPG"], "asm": "OP_DUP OP_HASH160 7efd74f5dfdcb354a3822b4c0f4a0d23b95f5099 OP_EQUALVERIFY OP_CHECKSIG", "type": "pubkeyhash"}, "value": 0.0008812, "n": 1}], "hex": "010000000167371079e0af337c5794ac8d866adaece7fe59bf43a2d8c75529234f071e4ae0000000006b483045022100d946ce43fb2c3be4037e05ac5d8c47f84411378dd0e30cb0d7a112d5fde95c5d022014b18b36dd7731d8842f312ca72f590c1c844070cf411ff883e811264fa125d901210299acc4281f1253f0f34e9788210e5afec878dce48c68d6de4e346927b36985f8ffffffff020000000000000000536a4c50000077eb0001898c5f3db24d8427f7d2a7c27af8e8e963c7cfd5b95b23cc0f42c2fc38c5cace7bf33c6de829e480a5d8b3e868275baa179f0613112e39738db1bc9a9526289ac0f6612cd74e33776ee438580100000000001976a9147efd74f5dfdcb354a3822b4c0f4a0d23b95f509988ac00000000", "vin": [{"sequence": 4294967295, "scriptSig": {"hex": "483045022100d946ce43fb2c3be4037e05ac5d8c47f84411378dd0e30cb0d7a112d5fde95c5d022014b18b36dd7731d8842f312ca72f590c1c844070cf411ff883e811264fa125d901210299acc4281f1253f0f34e9788210e5afec878dce48c68d6de4e346927b36985f8", "asm": "3045022100d946ce43fb2c3be4037e05ac5d8c47f84411378dd0e30cb0d7a112d5fde95c5d022014b18b36dd7731d8842f312ca72f590c1c844070cf411ff883e811264fa125d9[ALL] 0299acc4281f1253f0f34e9788210e5afec878dce48c68d6de4e346927b36985f8"}, "vout": 0, "txid": "e04a1e074f232955c7d8a243bf59fee7ecda6a868dac94577c33afe079103767"}], "txid": "e34dac816fd55f412f45e58514db3c2b376d1021cd4edee71d399fdc16e9097f", "blocktime": 1537873891, "version": 1, "confirmations": 11478, "time": 1537873891, "locktime": 0, "vsize": 284, "size": 284}