{"hash": "e34ed04829e8b48fb2293d72e96206d277985b7b43ba87f30bb7308c542cd5cb", "blockhash": "00000000000000000018f53835495a110e01622372bf6ae95dc86f2b0ab887b0", "vout": [{"scriptPubKey": {"reqSigs": 1, "hex": "76a91405028260c794783a908f52dcaa9e16af9b39926c88ac", "addresses": ["1TVPJqrL7TeB8UUiC1my7jt98L4h7eQBk"], "asm": "OP_DUP OP_HASH160 05028260c794783a908f52dcaa9e16af9b39926c OP_EQUALVERIFY OP_CHECKSIG", "type": "pubkeyhash"}, "value": 0.0387368, "n": 0}, {"scriptPubKey": {"reqSigs": 1, "hex": "76a91440309e94ceb91813c0be06f2cb8354404bb3a1aa88ac", "addresses": ["16rQVR9W2BFg7PJwMFgxVEibnbNqDTZjxz"], "asm": "OP_DUP OP_HASH160 40309e94ceb91813c0be06f2cb8354404bb3a1aa OP_EQUALVERIFY OP_CHECKSIG", "type": "pubkeyhash"}, "value": 0.10120964, "n": 1}], "hex": "010000000152d95165faeb1cb47be1630b3400ca077c78751dab50042b7bcb7ac591279a19040000006b483045022100a3182603853e463885b8cf82b84a78170aa30a78c9427450d6d27209e50dbbde0220206ac00cbc56db1874791439f57a5b63defc66f1b3c5def75c3a521bf18dc0c401210341c306e48bb15b2b508df886f6b9b5ede026e42fc2e561b26b34f41f498e4ec1ffffffff02901b3b00000000001976a91405028260c794783a908f52dcaa9e16af9b39926c88ac046f9a00000000001976a91440309e94ceb91813c0be06f2cb8354404bb3a1aa88ac00000000", "vin": [{"sequence": 4294967295, "scriptSig": {"hex": "483045022100a3182603853e463885b8cf82b84a78170aa30a78c9427450d6d27209e50dbbde0220206ac00cbc56db1874791439f57a5b63defc66f1b3c5def75c3a521bf18dc0c401210341c306e48bb15b2b508df886f6b9b5ede026e42fc2e561b26b34f41f498e4ec1", "asm": "3045022100a3182603853e463885b8cf82b84a78170aa30a78c9427450d6d27209e50dbbde0220206ac00cbc56db1874791439f57a5b63defc66f1b3c5def75c3a521bf18dc0c4[ALL] 0341c306e48bb15b2b508df886f6b9b5ede026e42fc2e561b26b34f41f498e4ec1"}, "vout": 4, "txid": "199a2791c57acb7b2b0450ab1d75787c07ca00340b63e17bb41cebfa6551d952"}], "txid": "e34ed04829e8b48fb2293d72e96206d277985b7b43ba87f30bb7308c542cd5cb", "blocktime": 1537870928, "version": 1, "confirmations": 11512, "time": 1537870928, "locktime": 0, "vsize": 226, "size": 226}