{"hash": "e35008012e349c390a64d592ede453281a929550eb8529e87319cb470d5e1fdb", "blockhash": "0000000000000000001e0dab787dd257d1dbfcb92a98c2207d5e1078be1f4165", "vout": [{"scriptPubKey": {"reqSigs": 1, "hex": "76a9140377efe0d2b830b0b930994eb688cca04e662d4488ac", "addresses": ["1KLhwsTBcxQmgv364gPFB1to1MxvBzeEb"], "asm": "OP_DUP OP_HASH160 0377efe0d2b830b0b930994eb688cca04e662d44 OP_EQUALVERIFY OP_CHECKSIG", "type": "pubkeyhash"}, "value": 0.01874557, "n": 0}, {"scriptPubKey": {"reqSigs": 1, "hex": "76a9143d29e940810aa0c086cf29438e2fd84dd606bb4588ac", "addresses": ["16aQRjr9qyMU2TQJRmEFFaXJaHMb8yQQU1"], "asm": "OP_DUP OP_HASH160 3d29e940810aa0c086cf29438e2fd84dd606bb45 OP_EQUALVERIFY OP_CHECKSIG", "type": "pubkeyhash"}, "value": 0.34436553, "n": 1}], "hex": "0100000001b106d532f24a48fe5f6d043ea9d7683754bcf26a92a5935a39130d168c2c4927000000006a473044022075976939b83d3b991bc823052638a478db45f1e794fdf3da1edaf05e9f697d8c02205f345d94230b328982a9e6c4cf3443ce282d2733979860894b868f23b818b6820121023758601a8b8e601c4f7a0abc6db053bd1830e288650bef739f86e738bd1939fdffffffff027d9a1c00000000001976a9140377efe0d2b830b0b930994eb688cca04e662d4488acc9750d02000000001976a9143d29e940810aa0c086cf29438e2fd84dd606bb4588ac00000000", "vin": [{"sequence": 4294967295, "scriptSig": {"hex": "473044022075976939b83d3b991bc823052638a478db45f1e794fdf3da1edaf05e9f697d8c02205f345d94230b328982a9e6c4cf3443ce282d2733979860894b868f23b818b6820121023758601a8b8e601c4f7a0abc6db053bd1830e288650bef739f86e738bd1939fd", "asm": "3044022075976939b83d3b991bc823052638a478db45f1e794fdf3da1edaf05e9f697d8c02205f345d94230b328982a9e6c4cf3443ce282d2733979860894b868f23b818b682[ALL] 023758601a8b8e601c4f7a0abc6db053bd1830e288650bef739f86e738bd1939fd"}, "vout": 0, "txid": "27492c8c160d13395a93a5926af2bc543768d7a93e046d5ffe484af232d506b1"}], "txid": "e35008012e349c390a64d592ede453281a929550eb8529e87319cb470d5e1fdb", "blocktime": 1537872475, "version": 1, "confirmations": 11487, "time": 1537872475, "locktime": 0, "vsize": 225, "size": 225}