{"hash": "e3511dd74f96933f76f23cf635a81f56c5d42528cdca5a5de35d758325035479", "blockhash": "0000000000000000001cda96e906b7601b7a6fb1a3b62bca570a9e5d8f4b3de1", "vout": [{"scriptPubKey": {"reqSigs": 1, "hex": "76a914eea3763f21882e370f818c09365d3e787fb9de2488ac", "addresses": ["1NkoeBt9dNjLcdGcCGK4k3pPzFk9b3poX5"], "asm": "OP_DUP OP_HASH160 eea3763f21882e370f818c09365d3e787fb9de24 OP_EQUALVERIFY OP_CHECKSIG", "type": "pubkeyhash"}, "value": 0.12423287, "n": 0}, {"scriptPubKey": {"reqSigs": 1, "hex": "76a914eff4b50e90d5e00f55a869e431ccc4c6270cf69b88ac", "addresses": ["1NsmeQXAaJZVm7eQLEfMk1hsU8iGx6RJES"], "asm": "OP_DUP OP_HASH160 eff4b50e90d5e00f55a869e431ccc4c6270cf69b OP_EQUALVERIFY OP_CHECKSIG", "type": "pubkeyhash"}, "value": 2.0, "n": 1}], "hex": "010000000a9cc2e1d6efa92b43829ac955c1107c1e046e7197fafb643af56adbacbc165d63a20000006a473044022023bbc1fc664ec720f26484a0be83c132eb7f0955eaadb84ff667ddd8b9367f9c022002c0e4f182e3790cec2f96e6f29c6e1d47fb1f8c781921f56645fbb3a65069510121022a9c07df27e43cc4c37c2b7b75ee4748edb53781545889ba6d210979b216e683ffffffff09b038c13cf2dc458c8fc8e46cf6ccf53f631d210a07dc9bd81f53177ff9087ea20000006b483045022100f301c610badbd9a09f79c4cac37672c3970c63a4557cb48905b0fb37e37f2d0e022057431b18ebc35f1f3b252740018bf6cf9a29fac9623b7daf7e3a0be35b1bf92c0121022a9c07df27e43cc4c37c2b7b75ee4748edb53781545889ba6d210979b216e683ffffffff94ebf13c06ea148e6299682850b9de89018bf7ee15ca5f9933d5b5d6a7fecbae3a0100006b483045022100f9967555924e12c336d67412bedd25e1c955dff72b330c27877daaf8cb76d61902204db22b7aae8cebf07496c21c3f0ab159f8e8ff96268354f32d34a3fd5318be1b0121022a9c07df27e43cc4c37c2b7b75ee4748edb53781545889ba6d210979b216e683ffffffffb188046dfcb7c71af36fe872d354853cbd7760782fd22916d4c0fca5097356062d0100006b4830450221008349dce9c0bb29657193b8808a78e92a5c35fbe8ea3677d1253f29eaddf64e7102200e25a704a88cb179796c8be1df029fac448d29e9a45ca82a7bcab975f006108e0121022a9c07df27e43cc4c37c2b7b75ee4748edb53781545889ba6d210979b216e683ffffffffdf3c23682860b7b390f81d0305318df30173d687f6cb3ad9f1356ede4e936613e80000006a4730440220675a52761bbd8aad41c215db5cf9e5b99cc21c58a6f1e788124cbed1352bc741022044ede043e7ec6507dad9a0587bfcedd6ab6eb8edb6560a3a10ba173bf34495070121022a9c07df27e43cc4c37c2b7b75ee4748edb53781545889ba6d210979b216e683ffffffffa2ad30633a9c1630447d060adfba3d00c0e33ad88802a6761da2b5657145f553a40000006a473044022014fbc85494b325e333b3dc11a7cf1d4a011f1760fe09dc88bae85ffabf21b11c02202a4df76d6dfd248e739ebe93c6787b8c0abd327658bb98350b597d1d6032b6d30121022a9c07df27e43cc4c37c2b7b75ee4748edb53781545889ba6d210979b216e683ffffffffd48c52a0526527cafee3a2f7efe7adf381e0f6779c3d6a91c99b9668ed4c127aac0000006a47304402200a6458f6cc42f9195b9a6776f5a9532929a33f3877cee2ecd37e3f1baa4430fd02204a1ffa7cb9da85dc523df514d8ca84ccc783e557f2ed641ec9262f60bbb1a09c0121022a9c07df27e43cc4c37c2b7b75ee4748edb53781545889ba6d210979b216e683ffffffffb8e4c4b5ff3677d55a3f4e6fc07ba92e42b5edee48e3522ade78fabd915224f1010000006a47304402204d73d72e79fba1431902992c63024da8cbc35e9ec4a0d4acbb2c73e6f947113902206647d9b14b490acbcf28f04780da484dab1ca2c4a5196f2e2aab94e3b90666ec012102cee2290ff975c78825a1d287e3c8d135c34d366734a0fe4ada7e1738e2553500ffffffffa34422f7d34912e67cfdb0b4644c89c2bae99fdec5e0bb5a5be7647a2ec0baed370100006b483045022100ec199df4b84501771f5513542a318f0a5ccf36f6931e532837654f18d394ac8302207b414f148d01dd4069806593589636860340f0189cc16ca3c28f944d6822d7950121022a9c07df27e43cc4c37c2b7b75ee4748edb53781545889ba6d210979b216e683ffffffff836ee62c46568579fd364f04d7a45ecbe5dff116bad6b1cb587029726baecc9aaf0000006b483045022100f6e422c802e43f2259b945032fb38ce722572ce7c8baddcdfc97161adf3e065502205edab7c8bd91a03c7e24555bd6d798fad2176d29af9f91a07b152cbb8a9a73170121022a9c07df27e43cc4c37c2b7b75ee4748edb53781545889ba6d210979b216e683ffffffff027790bd00000000001976a914eea3763f21882e370f818c09365d3e787fb9de2488ac00c2eb0b000000001976a914eff4b50e90d5e00f55a869e431ccc4c6270cf69b88ac00000000", "vin": [{"sequence": 4294967295, "scriptSig": {"hex": "473044022023bbc1fc664ec720f26484a0be83c132eb7f0955eaadb84ff667ddd8b9367f9c022002c0e4f182e3790cec2f96e6f29c6e1d47fb1f8c781921f56645fbb3a65069510121022a9c07df27e43cc4c37c2b7b75ee4748edb53781545889ba6d210979b216e683", "asm": "3044022023bbc1fc664ec720f26484a0be83c132eb7f0955eaadb84ff667ddd8b9367f9c022002c0e4f182e3790cec2f96e6f29c6e1d47fb1f8c781921f56645fbb3a6506951[ALL] 022a9c07df27e43cc4c37c2b7b75ee4748edb53781545889ba6d210979b216e683"}, "vout": 162, "txid": "635d16bcacdb6af53a64fbfa97716e041e7c10c155c99a82432ba9efd6e1c29c"}, {"sequence": 4294967295, "scriptSig": {"hex": "483045022100f301c610badbd9a09f79c4cac37672c3970c63a4557cb48905b0fb37e37f2d0e022057431b18ebc35f1f3b252740018bf6cf9a29fac9623b7daf7e3a0be35b1bf92c0121022a9c07df27e43cc4c37c2b7b75ee4748edb53781545889ba6d210979b216e683", "asm": "3045022100f301c610badbd9a09f79c4cac37672c3970c63a4557cb48905b0fb37e37f2d0e022057431b18ebc35f1f3b252740018bf6cf9a29fac9623b7daf7e3a0be35b1bf92c[ALL] 022a9c07df27e43cc4c37c2b7b75ee4748edb53781545889ba6d210979b216e683"}, "vout": 162, "txid": "7e08f97f17531fd89bdc070a211d633ff5ccf66ce4c88f8c45dcf23cc138b009"}, {"sequence": 4294967295, "scriptSig": {"hex": "483045022100f9967555924e12c336d67412bedd25e1c955dff72b330c27877daaf8cb76d61902204db22b7aae8cebf07496c21c3f0ab159f8e8ff96268354f32d34a3fd5318be1b0121022a9c07df27e43cc4c37c2b7b75ee4748edb53781545889ba6d210979b216e683", "asm": "3045022100f9967555924e12c336d67412bedd25e1c955dff72b330c27877daaf8cb76d61902204db22b7aae8cebf07496c21c3f0ab159f8e8ff96268354f32d34a3fd5318be1b[ALL] 022a9c07df27e43cc4c37c2b7b75ee4748edb53781545889ba6d210979b216e683"}, "vout": 314, "txid": "aecbfea7d6b5d533995fca15eef78b0189deb950286899628e14ea063cf1eb94"}, {"sequence": 4294967295, "scriptSig": {"hex": "4830450221008349dce9c0bb29657193b8808a78e92a5c35fbe8ea3677d1253f29eaddf64e7102200e25a704a88cb179796c8be1df029fac448d29e9a45ca82a7bcab975f006108e0121022a9c07df27e43cc4c37c2b7b75ee4748edb53781545889ba6d210979b216e683", "asm": "30450221008349dce9c0bb29657193b8808a78e92a5c35fbe8ea3677d1253f29eaddf64e7102200e25a704a88cb179796c8be1df029fac448d29e9a45ca82a7bcab975f006108e[ALL] 022a9c07df27e43cc4c37c2b7b75ee4748edb53781545889ba6d210979b216e683"}, "vout": 301, "txid": "06567309a5fcc0d41629d22f786077bd3c8554d372e86ff31ac7b7fc6d0488b1"}, {"sequence": 4294967295, "scriptSig": {"hex": "4730440220675a52761bbd8aad41c215db5cf9e5b99cc21c58a6f1e788124cbed1352bc741022044ede043e7ec6507dad9a0587bfcedd6ab6eb8edb6560a3a10ba173bf34495070121022a9c07df27e43cc4c37c2b7b75ee4748edb53781545889ba6d210979b216e683", "asm": "30440220675a52761bbd8aad41c215db5cf9e5b99cc21c58a6f1e788124cbed1352bc741022044ede043e7ec6507dad9a0587bfcedd6ab6eb8edb6560a3a10ba173bf3449507[ALL] 022a9c07df27e43cc4c37c2b7b75ee4748edb53781545889ba6d210979b216e683"}, "vout": 232, "txid": "1366934ede6e35f1d93acbf687d67301f38d3105031df890b3b7602868233cdf"}, {"sequence": 4294967295, "scriptSig": {"hex": "473044022014fbc85494b325e333b3dc11a7cf1d4a011f1760fe09dc88bae85ffabf21b11c02202a4df76d6dfd248e739ebe93c6787b8c0abd327658bb98350b597d1d6032b6d30121022a9c07df27e43cc4c37c2b7b75ee4748edb53781545889ba6d210979b216e683", "asm": "3044022014fbc85494b325e333b3dc11a7cf1d4a011f1760fe09dc88bae85ffabf21b11c02202a4df76d6dfd248e739ebe93c6787b8c0abd327658bb98350b597d1d6032b6d3[ALL] 022a9c07df27e43cc4c37c2b7b75ee4748edb53781545889ba6d210979b216e683"}, "vout": 164, "txid": "53f5457165b5a21d76a60288d83ae3c0003dbadf0a067d4430169c3a6330ada2"}, {"sequence": 4294967295, "scriptSig": {"hex": "47304402200a6458f6cc42f9195b9a6776f5a9532929a33f3877cee2ecd37e3f1baa4430fd02204a1ffa7cb9da85dc523df514d8ca84ccc783e557f2ed641ec9262f60bbb1a09c0121022a9c07df27e43cc4c37c2b7b75ee4748edb53781545889ba6d210979b216e683", "asm": "304402200a6458f6cc42f9195b9a6776f5a9532929a33f3877cee2ecd37e3f1baa4430fd02204a1ffa7cb9da85dc523df514d8ca84ccc783e557f2ed641ec9262f60bbb1a09c[ALL] 022a9c07df27e43cc4c37c2b7b75ee4748edb53781545889ba6d210979b216e683"}, "vout": 172, "txid": "7a124ced68969bc9916a3d9c77f6e081f3ade7eff7a2e3feca276552a0528cd4"}, {"sequence": 4294967295, "scriptSig": {"hex": "47304402204d73d72e79fba1431902992c63024da8cbc35e9ec4a0d4acbb2c73e6f947113902206647d9b14b490acbcf28f04780da484dab1ca2c4a5196f2e2aab94e3b90666ec012102cee2290ff975c78825a1d287e3c8d135c34d366734a0fe4ada7e1738e2553500", "asm": "304402204d73d72e79fba1431902992c63024da8cbc35e9ec4a0d4acbb2c73e6f947113902206647d9b14b490acbcf28f04780da484dab1ca2c4a5196f2e2aab94e3b90666ec[ALL] 02cee2290ff975c78825a1d287e3c8d135c34d366734a0fe4ada7e1738e2553500"}, "vout": 1, "txid": "f1245291bdfa78de2a52e348eeedb5422ea97bc06f4e3f5ad57736ffb5c4e4b8"}, {"sequence": 4294967295, "scriptSig": {"hex": "483045022100ec199df4b84501771f5513542a318f0a5ccf36f6931e532837654f18d394ac8302207b414f148d01dd4069806593589636860340f0189cc16ca3c28f944d6822d7950121022a9c07df27e43cc4c37c2b7b75ee4748edb53781545889ba6d210979b216e683", "asm": "3045022100ec199df4b84501771f5513542a318f0a5ccf36f6931e532837654f18d394ac8302207b414f148d01dd4069806593589636860340f0189cc16ca3c28f944d6822d795[ALL] 022a9c07df27e43cc4c37c2b7b75ee4748edb53781545889ba6d210979b216e683"}, "vout": 311, "txid": "edbac02e7a64e75b5abbe0c5de9fe9bac2894c64b4b0fd7ce61249d3f72244a3"}, {"sequence": 4294967295, "scriptSig": {"hex": "483045022100f6e422c802e43f2259b945032fb38ce722572ce7c8baddcdfc97161adf3e065502205edab7c8bd91a03c7e24555bd6d798fad2176d29af9f91a07b152cbb8a9a73170121022a9c07df27e43cc4c37c2b7b75ee4748edb53781545889ba6d210979b216e683", "asm": "3045022100f6e422c802e43f2259b945032fb38ce722572ce7c8baddcdfc97161adf3e065502205edab7c8bd91a03c7e24555bd6d798fad2176d29af9f91a07b152cbb8a9a7317[ALL] 022a9c07df27e43cc4c37c2b7b75ee4748edb53781545889ba6d210979b216e683"}, "vout": 175, "txid": "9accae6b72297058cbb1d6ba16f1dfe5cb5ea4d7044f36fd798556462ce66e83"}], "txid": "e3511dd74f96933f76f23cf635a81f56c5d42528cdca5a5de35d758325035479", "blocktime": 1537873282, "version": 1, "confirmations": 11484, "time": 1537873282, "locktime": 0, "vsize": 1553, "size": 1553}