{"hash": "e352b1686f15dba99473e8b3f431a69c9a8d3d0c528e8a961b1d353717af437e", "blockhash": "0000000000000000000baef3f32e3676a92c3b2e5da21b426e4f302fc371ce76", "vout": [{"scriptPubKey": {"type": "nulldata", "hex": "6a4c50000078310001d75e35aaba5f9ef370ee0d8227b7256b4774d339f6019d6ddc0f1b8ff117e83132d6b50bbefcaa751ee9699ba1f85baa1f870613f3f75e0aa5401d100759d4ba30d2c37bb011d97e02cf", "asm": "OP_RETURN 000078310001d75e35aaba5f9ef370ee0d8227b7256b4774d339f6019d6ddc0f1b8ff117e83132d6b50bbefcaa751ee9699ba1f85baa1f870613f3f75e0aa5401d100759d4ba30d2c37bb011d97e02cf"}, "value": 0.0, "n": 0}, {"scriptPubKey": {"reqSigs": 1, "hex": "76a9142417d58b9068c954d80bc909c40683cbabb920f588ac", "addresses": ["14Hqsw5feS7c8Wfy56Yk1dDJ3ExDES4XqE"], "asm": "OP_DUP OP_HASH160 2417d58b9068c954d80bc909c40683cbabb920f5 OP_EQUALVERIFY OP_CHECKSIG", "type": "pubkeyhash"}, "value": 0.00627476, "n": 1}], "hex": "010000000172fb4817aa2bda17119790183f66f873c2e1e153683cd4af23eaa0fb4a70738e000000006a47304402202d3ee847eef1c7203cdb3fb01a39ff7e337ab83c641fa502d8ba423ab17d2e420220469945b5ec6319d0e4578829ef58f025ab2c6639d04ca74a1804c0e4bf642b56012103c4815d0f052d6a943b38fb82c87f760a75056cdc27c806ee6921041207f14831ffffffff020000000000000000536a4c50000078310001d75e35aaba5f9ef370ee0d8227b7256b4774d339f6019d6ddc0f1b8ff117e83132d6b50bbefcaa751ee9699ba1f85baa1f870613f3f75e0aa5401d100759d4ba30d2c37bb011d97e02cf14930900000000001976a9142417d58b9068c954d80bc909c40683cbabb920f588ac00000000", "vin": [{"sequence": 4294967295, "scriptSig": {"hex": "47304402202d3ee847eef1c7203cdb3fb01a39ff7e337ab83c641fa502d8ba423ab17d2e420220469945b5ec6319d0e4578829ef58f025ab2c6639d04ca74a1804c0e4bf642b56012103c4815d0f052d6a943b38fb82c87f760a75056cdc27c806ee6921041207f14831", "asm": "304402202d3ee847eef1c7203cdb3fb01a39ff7e337ab83c641fa502d8ba423ab17d2e420220469945b5ec6319d0e4578829ef58f025ab2c6639d04ca74a1804c0e4bf642b56[ALL] 03c4815d0f052d6a943b38fb82c87f760a75056cdc27c806ee6921041207f14831"}, "vout": 0, "txid": "8e73704afba0ea23afd43c6853e1e1c273f8663f1890971117da2baa1748fb72"}], "txid": "e352b1686f15dba99473e8b3f431a69c9a8d3d0c528e8a961b1d353717af437e", "blocktime": 1537876114, "version": 1, "confirmations": 11463, "time": 1537876114, "locktime": 0, "vsize": 283, "size": 283}