{"hash": "321034c069a0c64649ead6f95f9aa9079d0512c7e41ebba7c8cb22fd6858d417", "blockhash": "0000000000000000000baef3f32e3676a92c3b2e5da21b426e4f302fc371ce76", "vout": [{"scriptPubKey": {"reqSigs": 1, "hex": "a914c8948f84ab8bc2187580e4fb86ecf2a0a06e11cf87", "addresses": ["3Kyb35jwJ7YCiAF7JRfW5VZdpyywKap5YB"], "asm": "OP_HASH160 c8948f84ab8bc2187580e4fb86ecf2a0a06e11cf OP_EQUAL", "type": "scripthash"}, "value": 4.114e-05, "n": 0}, {"scriptPubKey": {"reqSigs": 1, "hex": "a914e8db75c900cf08f06518e96d167331f2a4abfb3387", "addresses": ["3NvFbQMAkkqEFj4i1sYPPLkSWzxTFUchjA"], "asm": "OP_HASH160 e8db75c900cf08f06518e96d167331f2a4abfb33 OP_EQUAL", "type": "scripthash"}, "value": 0.00140396, "n": 1}], "hex": "010000000001017772998f41cd22ce290c9c9377a84a6f6ac1fec42872e29f5f053ab4ae2bbd920100000023220020941cfaff8837763dc1f69ff82b6d6553fdea17a41cfc29a04403293eedd8ccc7ffffffff02121000000000000017a914c8948f84ab8bc2187580e4fb86ecf2a0a06e11cf876c2402000000000017a914e8db75c900cf08f06518e96d167331f2a4abfb33870400473044022029dec1e3d8b1e904886502b294f75fbb4a29969d85c6647b99edb0ba6f97844c02200eedeb2e518428c5efadfd36baa66156f1434113d00d017c2c6ed91f644684c501473044022045f82cec00ccebc32255d1ec1a91b77a5bb550aa4527e1bd0b4500dd6918c93d02207907ebea2362c0accbbe0e02a84f433048715dd14a30f8b3f2afb0043125448f0147522102531db3a5883f29bab4241dd0cd726936667bcda445d89bdd22244e828b6993342103148c80a5bdfddb05ff5bcffc397c8ca748d8b435ec6a175bc9d7bfc7fc6f853752ae00000000", "vin": [{"txinwitness": ["", "3044022029dec1e3d8b1e904886502b294f75fbb4a29969d85c6647b99edb0ba6f97844c02200eedeb2e518428c5efadfd36baa66156f1434113d00d017c2c6ed91f644684c501", "3044022045f82cec00ccebc32255d1ec1a91b77a5bb550aa4527e1bd0b4500dd6918c93d02207907ebea2362c0accbbe0e02a84f433048715dd14a30f8b3f2afb0043125448f01", "522102531db3a5883f29bab4241dd0cd726936667bcda445d89bdd22244e828b6993342103148c80a5bdfddb05ff5bcffc397c8ca748d8b435ec6a175bc9d7bfc7fc6f853752ae"], "sequence": 4294967295, "scriptSig": {"hex": "220020941cfaff8837763dc1f69ff82b6d6553fdea17a41cfc29a04403293eedd8ccc7", "asm": "0020941cfaff8837763dc1f69ff82b6d6553fdea17a41cfc29a04403293eedd8ccc7"}, "vout": 1, "txid": "92bd2baeb43a055f9fe27228c4fec16a6f4aa877939c0c29ce22cd418f997277"}], "txid": "e3569d8dcd605bf221c24a7a246a37ad9c2f69509a470c9064141f92910e4cc1", "blocktime": 1537876114, "version": 1, "confirmations": 11460, "time": 1537876114, "locktime": 0, "vsize": 205, "size": 370}