{"hash": "e358cd3187856539a4c33e2d85508c2caceb93ce150b87c80e69c8752243bfd2", "blockhash": "0000000000000000001f0ddff1eddb255c1121bcd4da4f1bc9a0da00cae72433", "vout": [{"scriptPubKey": {"reqSigs": 1, "hex": "a9146b434927aa7fc36487b07c4a7b765a61c38a534e87", "addresses": ["3BUAqAbcVyb6aQeQZc5JU9HXTg8Gb7qj9L"], "asm": "OP_HASH160 6b434927aa7fc36487b07c4a7b765a61c38a534e OP_EQUAL", "type": "scripthash"}, "value": 0.01763166, "n": 0}], "hex": "0100000003304bb7d5665b3d13b7196adb818d2068142c4221cb774b43404218460a8afe41010000006a47304402202381d97cb9c67faad441b81581e64bee115352b9614d0edce2b951c2511878f802200cebeb8138bf97a69ca88c649d9b8e0e75c0f40282b34576445182f8a2b2b74a012102a7fad8e21e2b335bc0951c0e93d8c49f7d223b5eaabb6b0b61eb2275b97ddeccffffffffbf66280f77bc1116228926f90ca35196b16b2b98fc1e98abc3797c17a46cef98010000006b483045022100b64f976e019273677a36e8352c4c870e8fc0267716f90b028939c7edfcc01b8c02200e42aa8cc2d08393c5aee33ef93b60e02edebf523a9e8339ecc69fc3e90e1f550121033afc95ec749075d140b2db63a9e56a114224941cecebf4a63fc7db83e319ac01ffffffffd5a1b2873b9f9c90ae739a5705beb80cd1e27a1b1ff9c0896ab787720b75220e000000006a473044022034b9756a71c138b0701d0f299a0b03948f0e9c440ebeec467d754789d804ea9702205ad1abfb7f0db7e737a5f9215e3e3903dee8caf3a49a18a366a8e758c91528e80121033afc95ec749075d140b2db63a9e56a114224941cecebf4a63fc7db83e319ac01ffffffff015ee71a000000000017a9146b434927aa7fc36487b07c4a7b765a61c38a534e8700000000", "vin": [{"sequence": 4294967295, "scriptSig": {"hex": "47304402202381d97cb9c67faad441b81581e64bee115352b9614d0edce2b951c2511878f802200cebeb8138bf97a69ca88c649d9b8e0e75c0f40282b34576445182f8a2b2b74a012102a7fad8e21e2b335bc0951c0e93d8c49f7d223b5eaabb6b0b61eb2275b97ddecc", "asm": "304402202381d97cb9c67faad441b81581e64bee115352b9614d0edce2b951c2511878f802200cebeb8138bf97a69ca88c649d9b8e0e75c0f40282b34576445182f8a2b2b74a[ALL] 02a7fad8e21e2b335bc0951c0e93d8c49f7d223b5eaabb6b0b61eb2275b97ddecc"}, "vout": 1, "txid": "41fe8a0a46184240434b77cb21422c1468208d81db6a19b7133d5b66d5b74b30"}, {"sequence": 4294967295, "scriptSig": {"hex": "483045022100b64f976e019273677a36e8352c4c870e8fc0267716f90b028939c7edfcc01b8c02200e42aa8cc2d08393c5aee33ef93b60e02edebf523a9e8339ecc69fc3e90e1f550121033afc95ec749075d140b2db63a9e56a114224941cecebf4a63fc7db83e319ac01", "asm": "3045022100b64f976e019273677a36e8352c4c870e8fc0267716f90b028939c7edfcc01b8c02200e42aa8cc2d08393c5aee33ef93b60e02edebf523a9e8339ecc69fc3e90e1f55[ALL] 033afc95ec749075d140b2db63a9e56a114224941cecebf4a63fc7db83e319ac01"}, "vout": 1, "txid": "98ef6ca4177c79c3ab981efc982b6bb19651a30cf92689221611bc770f2866bf"}, {"sequence": 4294967295, "scriptSig": {"hex": "473044022034b9756a71c138b0701d0f299a0b03948f0e9c440ebeec467d754789d804ea9702205ad1abfb7f0db7e737a5f9215e3e3903dee8caf3a49a18a366a8e758c91528e80121033afc95ec749075d140b2db63a9e56a114224941cecebf4a63fc7db83e319ac01", "asm": "3044022034b9756a71c138b0701d0f299a0b03948f0e9c440ebeec467d754789d804ea9702205ad1abfb7f0db7e737a5f9215e3e3903dee8caf3a49a18a366a8e758c91528e8[ALL] 033afc95ec749075d140b2db63a9e56a114224941cecebf4a63fc7db83e319ac01"}, "vout": 0, "txid": "0e22750b7287b76a89c0f91f1b7ae2d10cb8be05579a73ae909c9f3b87b2a1d5"}], "txid": "e358cd3187856539a4c33e2d85508c2caceb93ce150b87c80e69c8752243bfd2", "blocktime": 1537872018, "version": 1, "confirmations": 11489, "time": 1537872018, "locktime": 0, "vsize": 484, "size": 484}