{"hash": "057bc9eca13564e6ac00c91feb78442d839835589ec9660ef746d83a74673e8e", "blockhash": "000000000000000000205f8b0775d31398ef75b89a5e8ec8d2c57b4dc0ac4c20", "vout": [{"scriptPubKey": {"reqSigs": 1, "hex": "76a91423b5365be8758e59e2e5c8b5ad1773760392f81688ac", "addresses": ["14FojZxLXjuwL4r4j4v21FFf7P1dw79yt2"], "asm": "OP_DUP OP_HASH160 23b5365be8758e59e2e5c8b5ad1773760392f816 OP_EQUALVERIFY OP_CHECKSIG", "type": "pubkeyhash"}, "value": 1.04357, "n": 0}], "hex": "0200000000011116d4b451e6e9d80728685e4e195c723dcc664fab95a2846a0bf12cac0d48fe24090000001716001450e6a562a5b9a1156ce736d6a88702ae641a76f0feffffff24d4fb0db89251b2ab0a6c48dbb6530d6a3d62ddaa73c61f94c16984a18714bf00000000171600149f016e9465feceb66d07e19c4858ffe65a0d4b1cfeffffff5a4d1d76512e1ed04ee08de62462fece12baa1c3212668ff6a7fe5324f42579d0000000017160014d9c766c45fa89ae6eee9f6812410cd7999750e04feffffff5bfa09861537077441be27b3e616d0e60365d6cdcd5a86570abe8eedc0c9bddf020000001716001403017b12358c7df243957f5cd75a8d32cea33939feffffff6d18783771536f79a32e010f4642ef6ca3abb9f1b81e68412c4b32b9e494c0f0070000001716001403e3e39a04677862998f72ff73baa3a60df65ff7feffffff9253b323d67fcdb39bffe7e6f66f57973085b357eee8cfc8408062347e96282e0000000017160014a4aaae1ca6cf8370a63e111bffdc4fa66e726be6feffffff9622821648db2326e83a649ac7aa5dca8bf3b37e5a19dae491e167c2539afb030100000017160014a862e1f39e6a3e022829366e528c2e256f2d5209feffffff9c3bfd4bd1f27f41ec9ecba4571a9a730faf58bf4c5bf8701a9cdf471b81b06a000000001716001421750638352c0d4432eaaa3bc6fa216e097afd23feffffffa31a1b3a7ce554fb0b5f778bac7f77b1e3998c8332d5e34dea69a1bf31077adf0000000017160014199ae82ebc28c85aebd9ce21eb722807389a8734feffffffa6fa72552a3353f6f8f3be77f179bf28a0a5065fd30cc1672ae58d91aac789b40000000017160014d81a56d12b37d45ed169ba6255f17f20b6393c9afeffffffaeb57df195b984d96b4d38ef0d4a88df944d331c04fbca5e6500e710b4649e6e0000000017160014ef4d1bd7ac6ee85fcb1c3bc971b2bcb4d08dc5c7feffffffb8abf51141d5fc326b576529bba1b4ca16a11c4a176a5e7cd83a52174087ffb9180000001716001455b6d60de173cc21db85090a3013c1f05c5a44e2feffffffc4a4031e19f7779235da38153971018c7e603a19e2aa8a8eb5afce92a55e03ed0f00000017160014f58a4867210d2fd82f2520ab7db9c824f8972b5afeffffffcd825a0faf6f048fbb7b2b6ea5b0079c769d37518849f0fb55bb7336a42584ee0100000017160014e541edffadd8f61c263400f1c629306f73f41d7efeffffffcedb6202b9867c3fe12df8ebfb475e67176c7ee2094e13e803e85742190cf9be00000000171600145b8dddafc924ca8453a88022baee558c70f5a2ebfefffffff744eda3b9563096b96b32cb581d05b6c1b17fdb830f557100c6e67afeb72f680c0000001716001422176a426056eaf9b67549d1a55c99531a8df8c5fefffffff9b0a563a139c0579eb4c68ba2b6b21a871071d3813c28b8c34ddee8241ec6120000000017160014f2fe58c284f2935ea70fd85f634a8c913a44401efeffffff01885c3806000000001976a91423b5365be8758e59e2e5c8b5ad1773760392f81688ac0247304402206cf4397f51b71402887a7976df4d79751c67977ee8b53603c12ee003422a6ae402207e42949c5043cce279378791a84ba1e30b807af65e1332fea3bf0eff20ef44f7012103611cd315dc2e3d8360f40238ccacecabb53acbf5e5200dee1f8e0fbe8570f5670247304402202d81f81c2d9e6c1d18fe7b9b5a7f77d1f33ac34771cf5bc27aa6954ee7a305f4022009cdca75f1d6e22f1e4e86cf58944b3a2cb66a757006af94a83421180a1d4847012103ec962b84e24d6d74f2b453bd0a42cedee60bbadab2b5b67cab1270df4ea1edd30247304402202691496269c05dcbc0bda2badc6e3edf73439006bc179e8a93408ddaaa3e878f02206589353b10cffa7b18a88fe2b8190bb278ca10b97fe9dc15024de444ce302e5e0121036cd89355f732c758dca2706934a9f5fca0848a08d2486833e98b718d71cbf42702483045022100ed2da68c1126bff44f86870eca83984db1c6651e01968af2530720d9c2df9e1d02207e4de2093e80e8b01eea332638bf4423092644e3be4eb3f9f1aa1d00b7c6684e0121020dbc7a76f89f85e406210087978cfa57628e1d9fccc404e7f43e3646d2dca57e024730440220534b9921265da4a381f1fc79f0c17e9775bb5dfff35638001f410bd3b8347d7602205f1a9c121c01a76d04c8c787f8288a85d3a58d068144847369bfa19856d7ea23012103a837c77bffa19460ae9e99bd86f24ea6bbde52298f63ba4ee33014582a14c67002483045022100ab616c294d6e3c4e1ff6aaee6b36c9f4234ff2b632de0aca4db922eb3c60fcc702204cec0a16aeefebcbd4d5c63a83544e06c3652e52745928f45db3eb5222684c20012102b06ff513d50614aaf82d6f995bc9e6bd368ca256d95a76d2d9c23e7ef25aa22802483045022100c074993bcdd6b82843f3e519e7d151408c2c23f2732e3df8c586b04db1873ab902206c9533e1279ff8c4cd24b68c418cb24f20eb99367fb73807d1fcdf17caf968500121035ef47412fc2bc4d894920c1edae3b5119aeb1387cc7a75853ec5aa8f0a6e6b1e0247304402206b621839e39e7582b96841e70f5f13a48c17156d27671070fe01b5651b52a8e702202f30d177a5fce781e70b184075b159c00a8077ce07b1dc9ce1997c90b4043c45012103ce75ae22688fad2ce263dcac3566031a779a959627ae3b6b3a5d2844acb78e47024730440220018781bc3c0af7cc827cfe605ebbaa18bfa3ead66ae1ba3c1a6cb8e4a29a9af8022057da45efe1efed9a22c1b240ecca0c39f9a6bc80f0c6c4904b2e498dd30b46ad012102c691885c31a7632e9d77091ef2345b94a0af4554fc6e39876f850617bac83c080247304402200992dcaa4bdca9ac5805da89afb46f61db363151bb54e8f00f9d94c74254164f022000a8351a224ff5d671f36d74f9583168458c37515185a8152060094b8a090f45012103700c69569463cb1c15063a9569ab9774697e35082c300c0fbab31d853cea4c4e02483045022100f583420365c217e796e14ab28d6615ca9835b146993722e61529583d7cab3f3602205664f2f265a6b37fcbbf6507bb2c03a5241aa9a523a57460750520eec6560c16012102e60d7d27eec66195235c3fcfc0eddf2222ad1cf9d2e0b2d3b56dccdc6023697b0247304402202a69616c5404b9e95e1c2e8b59a69ae9c7cb14bb56c5f3f34efe03ca0a757703022059b3c4f80ec82fa97ce18497d4ba707b4ce27a898febd727caba2bcb3e00dd040121034fb4ac05355b643c59847b8eb68c0bb4e2a89a772664424b9e65fbbee68cc1ad0247304402202973a2e93ce424f92aba3d4a9c5c685f92653fc3fa9e5d189580e8f557b70449022000de90e6d098f4562607b7d19df986980b83242bcc3ad0b453e23003fc0ebbbd012102d486543e85edd5afde52aa6868a680d7d9aba3ceb37ae628521d46b386b5d3ee0247304402205de0d136f420cd2175ce6b4771ccbe326fae194e5187c6f86bc273d1e20e8e5402207ddfb03f2944721048671a674385f2759a3d664f38bbe2b2b13499ef563389ec012103012a9019bbed102addd805df2b3541863d6fe5b89db92ff71fe1d55fadd711bd02483045022100a1fd61ef8d15d6dc544ebbf5dfad0fbad1a0937e11239161830f3dc51007e5ca0220340ea6a75ff72df8b426e155ae334c5836c603deaf1f5615eaa90c47f468f7fb01210202b918b601cb4120ffbc1b8dc171add4192a7336b13516660139ef98895f5e1f02473044022013440ae4414028a118ecdef1e471d504de36fe086d7e556adde160b419b9b4e7022060daa317dcf61cf17dfe0c3240c4d837add296024eabec95dbd99b4727dc9654012103df9b953938da84ec1c2241ccffc1f2c5ebc2092f9998a6d448f4e6a3abb1d31602483045022100cafbbb7395376fcf1fbf2672eeef54a8901d380a137d0d1fc9027e6a20f324a4022033bf9fba90702be81d303c3cdd9a17ef452a95b2345eb7bd20e18a5816b2132a012102bd27b54f320957acc9e76c8513129851fef5342c7d93b4ec5e016dd7d91857cc0f490800", "vin": [{"txinwitness": ["304402206cf4397f51b71402887a7976df4d79751c67977ee8b53603c12ee003422a6ae402207e42949c5043cce279378791a84ba1e30b807af65e1332fea3bf0eff20ef44f701", "03611cd315dc2e3d8360f40238ccacecabb53acbf5e5200dee1f8e0fbe8570f567"], "sequence": 4294967294, "scriptSig": {"hex": "16001450e6a562a5b9a1156ce736d6a88702ae641a76f0", "asm": "001450e6a562a5b9a1156ce736d6a88702ae641a76f0"}, "vout": 9, "txid": "24fe480dac2cf10b6a84a295ab4f66cc3d725c194e5e682807d8e9e651b4d416"}, {"txinwitness": ["304402202d81f81c2d9e6c1d18fe7b9b5a7f77d1f33ac34771cf5bc27aa6954ee7a305f4022009cdca75f1d6e22f1e4e86cf58944b3a2cb66a757006af94a83421180a1d484701", "03ec962b84e24d6d74f2b453bd0a42cedee60bbadab2b5b67cab1270df4ea1edd3"], "sequence": 4294967294, "scriptSig": {"hex": "1600149f016e9465feceb66d07e19c4858ffe65a0d4b1c", "asm": "00149f016e9465feceb66d07e19c4858ffe65a0d4b1c"}, "vout": 0, "txid": "bf1487a18469c1941fc673aadd623d6a0d53b6db486c0aabb25192b80dfbd424"}, {"txinwitness": ["304402202691496269c05dcbc0bda2badc6e3edf73439006bc179e8a93408ddaaa3e878f02206589353b10cffa7b18a88fe2b8190bb278ca10b97fe9dc15024de444ce302e5e01", "036cd89355f732c758dca2706934a9f5fca0848a08d2486833e98b718d71cbf427"], "sequence": 4294967294, "scriptSig": {"hex": "160014d9c766c45fa89ae6eee9f6812410cd7999750e04", "asm": "0014d9c766c45fa89ae6eee9f6812410cd7999750e04"}, "vout": 0, "txid": "9d57424f32e57f6aff682621c3a1ba12cefe6224e68de04ed01e2e51761d4d5a"}, {"txinwitness": ["3045022100ed2da68c1126bff44f86870eca83984db1c6651e01968af2530720d9c2df9e1d02207e4de2093e80e8b01eea332638bf4423092644e3be4eb3f9f1aa1d00b7c6684e01", "020dbc7a76f89f85e406210087978cfa57628e1d9fccc404e7f43e3646d2dca57e"], "sequence": 4294967294, "scriptSig": {"hex": "16001403017b12358c7df243957f5cd75a8d32cea33939", "asm": "001403017b12358c7df243957f5cd75a8d32cea33939"}, "vout": 2, "txid": "dfbdc9c0ed8ebe0a57865acdcdd66503e6d016e6b327be41740737158609fa5b"}, {"txinwitness": ["30440220534b9921265da4a381f1fc79f0c17e9775bb5dfff35638001f410bd3b8347d7602205f1a9c121c01a76d04c8c787f8288a85d3a58d068144847369bfa19856d7ea2301", "03a837c77bffa19460ae9e99bd86f24ea6bbde52298f63ba4ee33014582a14c670"], "sequence": 4294967294, "scriptSig": {"hex": "16001403e3e39a04677862998f72ff73baa3a60df65ff7", "asm": "001403e3e39a04677862998f72ff73baa3a60df65ff7"}, "vout": 7, "txid": "f0c094e4b9324b2c41681eb8f1b9aba36cef42460f012ea3796f53713778186d"}, {"txinwitness": ["3045022100ab616c294d6e3c4e1ff6aaee6b36c9f4234ff2b632de0aca4db922eb3c60fcc702204cec0a16aeefebcbd4d5c63a83544e06c3652e52745928f45db3eb5222684c2001", "02b06ff513d50614aaf82d6f995bc9e6bd368ca256d95a76d2d9c23e7ef25aa228"], "sequence": 4294967294, "scriptSig": {"hex": "160014a4aaae1ca6cf8370a63e111bffdc4fa66e726be6", "asm": "0014a4aaae1ca6cf8370a63e111bffdc4fa66e726be6"}, "vout": 0, "txid": "2e28967e34628040c8cfe8ee57b3853097576ff6e6e7ff9bb3cd7fd623b35392"}, {"txinwitness": ["3045022100c074993bcdd6b82843f3e519e7d151408c2c23f2732e3df8c586b04db1873ab902206c9533e1279ff8c4cd24b68c418cb24f20eb99367fb73807d1fcdf17caf9685001", "035ef47412fc2bc4d894920c1edae3b5119aeb1387cc7a75853ec5aa8f0a6e6b1e"], "sequence": 4294967294, "scriptSig": {"hex": "160014a862e1f39e6a3e022829366e528c2e256f2d5209", "asm": "0014a862e1f39e6a3e022829366e528c2e256f2d5209"}, "vout": 1, "txid": "03fb9a53c267e191e4da195a7eb3f38bca5daac79a643ae82623db4816822296"}, {"txinwitness": ["304402206b621839e39e7582b96841e70f5f13a48c17156d27671070fe01b5651b52a8e702202f30d177a5fce781e70b184075b159c00a8077ce07b1dc9ce1997c90b4043c4501", "03ce75ae22688fad2ce263dcac3566031a779a959627ae3b6b3a5d2844acb78e47"], "sequence": 4294967294, "scriptSig": {"hex": "16001421750638352c0d4432eaaa3bc6fa216e097afd23", "asm": "001421750638352c0d4432eaaa3bc6fa216e097afd23"}, "vout": 0, "txid": "6ab0811b47df9c1a70f85b4cbf58af0f739a1a57a4cb9eec417ff2d14bfd3b9c"}, {"txinwitness": ["30440220018781bc3c0af7cc827cfe605ebbaa18bfa3ead66ae1ba3c1a6cb8e4a29a9af8022057da45efe1efed9a22c1b240ecca0c39f9a6bc80f0c6c4904b2e498dd30b46ad01", "02c691885c31a7632e9d77091ef2345b94a0af4554fc6e39876f850617bac83c08"], "sequence": 4294967294, "scriptSig": {"hex": "160014199ae82ebc28c85aebd9ce21eb722807389a8734", "asm": "0014199ae82ebc28c85aebd9ce21eb722807389a8734"}, "vout": 0, "txid": "df7a0731bfa169ea4de3d532838c99e3b1777fac8b775f0bfb54e57c3a1b1aa3"}, {"txinwitness": ["304402200992dcaa4bdca9ac5805da89afb46f61db363151bb54e8f00f9d94c74254164f022000a8351a224ff5d671f36d74f9583168458c37515185a8152060094b8a090f4501", "03700c69569463cb1c15063a9569ab9774697e35082c300c0fbab31d853cea4c4e"], "sequence": 4294967294, "scriptSig": {"hex": "160014d81a56d12b37d45ed169ba6255f17f20b6393c9a", "asm": "0014d81a56d12b37d45ed169ba6255f17f20b6393c9a"}, "vout": 0, "txid": "b489c7aa918de52a67c10cd35f06a5a028bf79f177bef3f8f653332a5572faa6"}, {"txinwitness": ["3045022100f583420365c217e796e14ab28d6615ca9835b146993722e61529583d7cab3f3602205664f2f265a6b37fcbbf6507bb2c03a5241aa9a523a57460750520eec6560c1601", "02e60d7d27eec66195235c3fcfc0eddf2222ad1cf9d2e0b2d3b56dccdc6023697b"], "sequence": 4294967294, "scriptSig": {"hex": "160014ef4d1bd7ac6ee85fcb1c3bc971b2bcb4d08dc5c7", "asm": "0014ef4d1bd7ac6ee85fcb1c3bc971b2bcb4d08dc5c7"}, "vout": 0, "txid": "6e9e64b410e700655ecafb041c334d94df884a0def384d6bd984b995f17db5ae"}, {"txinwitness": ["304402202a69616c5404b9e95e1c2e8b59a69ae9c7cb14bb56c5f3f34efe03ca0a757703022059b3c4f80ec82fa97ce18497d4ba707b4ce27a898febd727caba2bcb3e00dd0401", "034fb4ac05355b643c59847b8eb68c0bb4e2a89a772664424b9e65fbbee68cc1ad"], "sequence": 4294967294, "scriptSig": {"hex": "16001455b6d60de173cc21db85090a3013c1f05c5a44e2", "asm": "001455b6d60de173cc21db85090a3013c1f05c5a44e2"}, "vout": 24, "txid": "b9ff874017523ad87c5e6a174a1ca116cab4a1bb2965576b32fcd54111f5abb8"}, {"txinwitness": ["304402202973a2e93ce424f92aba3d4a9c5c685f92653fc3fa9e5d189580e8f557b70449022000de90e6d098f4562607b7d19df986980b83242bcc3ad0b453e23003fc0ebbbd01", "02d486543e85edd5afde52aa6868a680d7d9aba3ceb37ae628521d46b386b5d3ee"], "sequence": 4294967294, "scriptSig": {"hex": "160014f58a4867210d2fd82f2520ab7db9c824f8972b5a", "asm": "0014f58a4867210d2fd82f2520ab7db9c824f8972b5a"}, "vout": 15, "txid": "ed035ea592ceafb58e8aaae2193a607e8c0171391538da359277f7191e03a4c4"}, {"txinwitness": ["304402205de0d136f420cd2175ce6b4771ccbe326fae194e5187c6f86bc273d1e20e8e5402207ddfb03f2944721048671a674385f2759a3d664f38bbe2b2b13499ef563389ec01", "03012a9019bbed102addd805df2b3541863d6fe5b89db92ff71fe1d55fadd711bd"], "sequence": 4294967294, "scriptSig": {"hex": "160014e541edffadd8f61c263400f1c629306f73f41d7e", "asm": "0014e541edffadd8f61c263400f1c629306f73f41d7e"}, "vout": 1, "txid": "ee8425a43673bb55fbf0498851379d769c07b0a56e2b7bbb8f046faf0f5a82cd"}, {"txinwitness": ["3045022100a1fd61ef8d15d6dc544ebbf5dfad0fbad1a0937e11239161830f3dc51007e5ca0220340ea6a75ff72df8b426e155ae334c5836c603deaf1f5615eaa90c47f468f7fb01", "0202b918b601cb4120ffbc1b8dc171add4192a7336b13516660139ef98895f5e1f"], "sequence": 4294967294, "scriptSig": {"hex": "1600145b8dddafc924ca8453a88022baee558c70f5a2eb", "asm": "00145b8dddafc924ca8453a88022baee558c70f5a2eb"}, "vout": 0, "txid": "bef90c194257e803e8134e09e27e6c17675e47fbebf82de13f7c86b90262dbce"}, {"txinwitness": ["3044022013440ae4414028a118ecdef1e471d504de36fe086d7e556adde160b419b9b4e7022060daa317dcf61cf17dfe0c3240c4d837add296024eabec95dbd99b4727dc965401", "03df9b953938da84ec1c2241ccffc1f2c5ebc2092f9998a6d448f4e6a3abb1d316"], "sequence": 4294967294, "scriptSig": {"hex": "16001422176a426056eaf9b67549d1a55c99531a8df8c5", "asm": "001422176a426056eaf9b67549d1a55c99531a8df8c5"}, "vout": 12, "txid": "682fb7fe7ae6c60071550f83db7fb1c1b6051d58cb326bb9963056b9a3ed44f7"}, {"txinwitness": ["3045022100cafbbb7395376fcf1fbf2672eeef54a8901d380a137d0d1fc9027e6a20f324a4022033bf9fba90702be81d303c3cdd9a17ef452a95b2345eb7bd20e18a5816b2132a01", "02bd27b54f320957acc9e76c8513129851fef5342c7d93b4ec5e016dd7d91857cc"], "sequence": 4294967294, "scriptSig": {"hex": "160014f2fe58c284f2935ea70fd85f634a8c913a44401e", "asm": "0014f2fe58c284f2935ea70fd85f634a8c913a44401e"}, "vout": 0, "txid": "12c61e24e8de4dc3b8283c81d37110871ab2b6a28bc6b49e57c039a163a5b0f9"}], "txid": "e3647d87c21c928c712b17e302628951658865dc9fbc953143b7b5ea950e26ed", "blocktime": 1537871175, "version": 2, "confirmations": 11511, "time": 1537871175, "locktime": 542991, "vsize": 1589, "size": 2959}