{"hash": "abb3c28997267c07940562cca663410aa7b4a18f4be677f7015c2105ea1ef5d1", "blockhash": "000000000000000000022b45ed06c6f4ccd3cf7fb5ba4856ebd2e58215665228", "vout": [{"scriptPubKey": {"reqSigs": 1, "hex": "76a914e2e935237afbbfe00bd99aaa81246024105058c788ac", "addresses": ["1Mgo5uCE8xnPyzaSukNvFp2KYQNQKmaVky"], "asm": "OP_DUP OP_HASH160 e2e935237afbbfe00bd99aaa81246024105058c7 OP_EQUALVERIFY OP_CHECKSIG", "type": "pubkeyhash"}, "value": 0.0035216, "n": 0}, {"scriptPubKey": {"reqSigs": 1, "hex": "a914faf39666ba0e38e8f59c48d34cdea69cd05f2c7987", "addresses": ["3QZvfFutBMKEx41e6AJ25NbzCZYhwY8VA4"], "asm": "OP_HASH160 faf39666ba0e38e8f59c48d34cdea69cd05f2c79 OP_EQUAL", "type": "scripthash"}, "value": 0.00999878, "n": 1}], "hex": "020000000001027ae9831082da873b0a344a4a1f0963f403a8b4e4e6411cb1efcebd7ba2665e1f0000000017160014ac73d98261f7b7e814af9e00b6bbf7b944fffbfcfeffffffb0dd6d0e540172b54b2648d890f18d248684e5fd2c32bc84d4a7eeae4a5a01af000000001716001476021050a183143240d87ebe9241cfcde8c21905feffffff02a05f0500000000001976a914e2e935237afbbfe00bd99aaa81246024105058c788acc6410f000000000017a914faf39666ba0e38e8f59c48d34cdea69cd05f2c79870248304502210092f3378acbab29f75586d5ad42fff482d85cdb63a89786480a560d1ef388d2a9022006da700481af3d615a1240b64887ac8f582e2bf2197bcf9e599f7f63951fcfaf01210307190e9f81c8556c3a51096d39665e62694e4667c94f8ad6edbe1dc9276b4b900247304402204858e189f81275cfd12a3303db00530d75ef49d67aedabc2c132bf36462df0620220404bff9399646a61d33f862616ee65c91b159884e90a115bb4f4b3e04f126214012103d20f2188e5101514041ab60bf42a7c984ff188b6b43065644fb5f44426aa07a60b490800", "vin": [{"txinwitness": ["304502210092f3378acbab29f75586d5ad42fff482d85cdb63a89786480a560d1ef388d2a9022006da700481af3d615a1240b64887ac8f582e2bf2197bcf9e599f7f63951fcfaf01", "0307190e9f81c8556c3a51096d39665e62694e4667c94f8ad6edbe1dc9276b4b90"], "sequence": 4294967294, "scriptSig": {"hex": "160014ac73d98261f7b7e814af9e00b6bbf7b944fffbfc", "asm": "0014ac73d98261f7b7e814af9e00b6bbf7b944fffbfc"}, "vout": 0, "txid": "1f5e66a27bbdceefb11c41e6e4b4a803f463091f4a4a340a3b87da821083e97a"}, {"txinwitness": ["304402204858e189f81275cfd12a3303db00530d75ef49d67aedabc2c132bf36462df0620220404bff9399646a61d33f862616ee65c91b159884e90a115bb4f4b3e04f12621401", "03d20f2188e5101514041ab60bf42a7c984ff188b6b43065644fb5f44426aa07a6"], "sequence": 4294967294, "scriptSig": {"hex": "16001476021050a183143240d87ebe9241cfcde8c21905", "asm": "001476021050a183143240d87ebe9241cfcde8c21905"}, "vout": 0, "txid": "af015a4aaeeea7d484bc322cfde58486248df190d848264bb57201540e6dddb0"}], "txid": "e36abe829a822075971852c81adc524dfcd6ffa41a69042b48cdb4c08202d771", "blocktime": 1537869901, "version": 2, "confirmations": 11524, "time": 1537869901, "locktime": 542987, "vsize": 259, "size": 421}