{"hash": "e36dcd00c5a66b32e75a16998fdc8ee1aaacb321a6bcbc7a5db4fa7baab7c7d5", "blockhash": "0000000000000000001f76057863aec43deb6fa401d9628bb513d65a8098bfab", "vout": [{"scriptPubKey": {"reqSigs": 1, "hex": "76a914e3cdbf47d8c5f2f9e1f8037ef043897909fc06bb88ac", "addresses": ["1MmWs7S2WmJXyj9gURxoLe9CSSuEr79dqM"], "asm": "OP_DUP OP_HASH160 e3cdbf47d8c5f2f9e1f8037ef043897909fc06bb OP_EQUALVERIFY OP_CHECKSIG", "type": "pubkeyhash"}, "value": 7.26e-05, "n": 0}, {"scriptPubKey": {"reqSigs": 1, "hex": "76a9140612d531c45c2a3aebd7842d02b635ab91f9386d88ac", "addresses": ["1Z7cgDnpQFMhaSL8TVuzJAcVx9SZA79nC"], "asm": "OP_DUP OP_HASH160 0612d531c45c2a3aebd7842d02b635ab91f9386d OP_EQUALVERIFY OP_CHECKSIG", "type": "pubkeyhash"}, "value": 0.01404659, "n": 1}], "hex": "0100000002bdda60b2ca874dff3b6f0905d0a9a5cd241c77c303194754942a6856bb05af128c0000006a4730440220036f42614f09cfea0a5c0c7c028ef43389d6587d53a2c009ae34efe388700ac1022003cff8c42bdac406a0f8481c4cd8e5a70aaa4839bf38f579f5e9ab7d09e59f2c012102a414f9a92be50d059bf6745fb424b137c01a600d1ca0d4e1d177e7f30bd4caeaffffffffa3a40880094eadd3673e5b2081753d6955665777440e4463a6aca9a3343b73c0000000006a47304402207b522d7b3790cd09bfc2624d89eba99fba2e08175df608f4d73c8e7e0b451efe02207c8cb2b31fa01852fb190155f14a39cadc30b882362620754772c463e43fc099012103120812026e11578f91e5c34f751c1d8a9f249f2c14e5c46e908f374879d3d302ffffffff025c1c0000000000001976a914e3cdbf47d8c5f2f9e1f8037ef043897909fc06bb88acf36e1500000000001976a9140612d531c45c2a3aebd7842d02b635ab91f9386d88ac00000000", "vin": [{"sequence": 4294967295, "scriptSig": {"hex": "4730440220036f42614f09cfea0a5c0c7c028ef43389d6587d53a2c009ae34efe388700ac1022003cff8c42bdac406a0f8481c4cd8e5a70aaa4839bf38f579f5e9ab7d09e59f2c012102a414f9a92be50d059bf6745fb424b137c01a600d1ca0d4e1d177e7f30bd4caea", "asm": "30440220036f42614f09cfea0a5c0c7c028ef43389d6587d53a2c009ae34efe388700ac1022003cff8c42bdac406a0f8481c4cd8e5a70aaa4839bf38f579f5e9ab7d09e59f2c[ALL] 02a414f9a92be50d059bf6745fb424b137c01a600d1ca0d4e1d177e7f30bd4caea"}, "vout": 140, "txid": "12af05bb56682a9454471903c3771c24cda5a9d005096f3bff4d87cab260dabd"}, {"sequence": 4294967295, "scriptSig": {"hex": "47304402207b522d7b3790cd09bfc2624d89eba99fba2e08175df608f4d73c8e7e0b451efe02207c8cb2b31fa01852fb190155f14a39cadc30b882362620754772c463e43fc099012103120812026e11578f91e5c34f751c1d8a9f249f2c14e5c46e908f374879d3d302", "asm": "304402207b522d7b3790cd09bfc2624d89eba99fba2e08175df608f4d73c8e7e0b451efe02207c8cb2b31fa01852fb190155f14a39cadc30b882362620754772c463e43fc099[ALL] 03120812026e11578f91e5c34f751c1d8a9f249f2c14e5c46e908f374879d3d302"}, "vout": 0, "txid": "c0733b34a3a9aca663440e4477576655693d7581205b3e67d3ad4e098008a4a3"}], "txid": "e36dcd00c5a66b32e75a16998fdc8ee1aaacb321a6bcbc7a5db4fa7baab7c7d5", "blocktime": 1537873891, "version": 1, "confirmations": 11478, "time": 1537873891, "locktime": 0, "vsize": 372, "size": 372}