{"hash": "113e87fec8d34df0f9a7a7d14fbb7cc2b1a37d586458ea7d44c6987fe96ba019", "blockhash": "00000000000000000018f53835495a110e01622372bf6ae95dc86f2b0ab887b0", "vout": [{"scriptPubKey": {"reqSigs": 1, "hex": "001496e93d84db2255705555514ab8fdc14ca1b9c6ab", "addresses": ["bc1qjm5nmpxmyf2hq424299t3lwpfjsmn34tucc4zk"], "asm": "0 96e93d84db2255705555514ab8fdc14ca1b9c6ab", "type": "witness_v0_keyhash"}, "value": 2.24705035, "n": 0}, {"scriptPubKey": {"reqSigs": 1, "hex": "76a9142300ae452872f40cbea82fffd87001f99930cea788ac", "addresses": ["14C5U1kQDJf8Q3k11B5RfUTkGX6nw4CXcP"], "asm": "OP_DUP OP_HASH160 2300ae452872f40cbea82fffd87001f99930cea7 OP_EQUALVERIFY OP_CHECKSIG", "type": "pubkeyhash"}, "value": 0.00928205, "n": 1}], "hex": "0200000000010110cc6eb709aacccbc4eca69b096cce1b9666d5351c8f87c90c180c82a93e71a60100000000ffffffff020bba640d0000000016001496e93d84db2255705555514ab8fdc14ca1b9c6abcd290e00000000001976a9142300ae452872f40cbea82fffd87001f99930cea788ac02483045022100dae1cb1e4f20f247d29d52c493e27da96c18c45f17a6b89e3af50e72b561ef6102207302399535c2451535ed774c1391be986332293365c7f328977baf471158c9410121035457990e7d9074be7eea9ca6e617f20c63d419668f87bca427671d471ddae15200000000", "vin": [{"txinwitness": ["3045022100dae1cb1e4f20f247d29d52c493e27da96c18c45f17a6b89e3af50e72b561ef6102207302399535c2451535ed774c1391be986332293365c7f328977baf471158c94101", "035457990e7d9074be7eea9ca6e617f20c63d419668f87bca427671d471ddae152"], "sequence": 4294967295, "scriptSig": {"hex": "", "asm": ""}, "vout": 1, "txid": "a6713ea9820c180cc9878f1c35d566961bce6c099ba6ecc4cbccaa09b76ecc10"}], "txid": "e36e4a4e0b69612c0206b7f1f7a78721f24515d09ce8f30c009ec4330e455f8d", "blocktime": 1537870928, "version": 2, "confirmations": 11512, "time": 1537870928, "locktime": 0, "vsize": 144, "size": 226}