{"hash": "e371ff01e198809117b2e8d5d08eaa72141f98c57338c72b51f16fa03a6a73f8", "blockhash": "00000000000000000024a2167bbff67b0be802c0b01cdd79e6331c2be6459f87", "vout": [{"scriptPubKey": {"reqSigs": 1, "hex": "76a91427f5adf6415e8b8b15f6ad43bf827e4b3172fcd988ac", "addresses": ["14eHfbWb2QSxb7k3qMUvZWCKxFp9om5ViF"], "asm": "OP_DUP OP_HASH160 27f5adf6415e8b8b15f6ad43bf827e4b3172fcd9 OP_EQUALVERIFY OP_CHECKSIG", "type": "pubkeyhash"}, "value": 0.0075893, "n": 0}, {"scriptPubKey": {"reqSigs": 1, "hex": "76a9147520088aec796d22486c64a4bf624b56f1d66daa88ac", "addresses": ["1BgJSAP17DuqJkDoE18etsNq4sbsvG4zXu"], "asm": "OP_DUP OP_HASH160 7520088aec796d22486c64a4bf624b56f1d66daa OP_EQUALVERIFY OP_CHECKSIG", "type": "pubkeyhash"}, "value": 0.00079379, "n": 1}], "hex": "02000000013ad8216f667cfe05e3686e49d69c291ede1fdce9cc77aefe6e1ccdb92ec6bc21010000006a47304402200708ecf700ddb195c5bbeaf2484da91cbb2932e670d4af9ede1b58b6a3b4f910022005954d6f2ac089b8408b801e576a54465bdf5b75d5bd50c02dda7e202814e4fc0121031296bad3ab75b20c75ad6a4d159f99eb2c0fc96b7e10e907e192279155727c30feffffff0292940b00000000001976a91427f5adf6415e8b8b15f6ad43bf827e4b3172fcd988ac13360100000000001976a9147520088aec796d22486c64a4bf624b56f1d66daa88ac0d490800", "vin": [{"sequence": 4294967294, "scriptSig": {"hex": "47304402200708ecf700ddb195c5bbeaf2484da91cbb2932e670d4af9ede1b58b6a3b4f910022005954d6f2ac089b8408b801e576a54465bdf5b75d5bd50c02dda7e202814e4fc0121031296bad3ab75b20c75ad6a4d159f99eb2c0fc96b7e10e907e192279155727c30", "asm": "304402200708ecf700ddb195c5bbeaf2484da91cbb2932e670d4af9ede1b58b6a3b4f910022005954d6f2ac089b8408b801e576a54465bdf5b75d5bd50c02dda7e202814e4fc[ALL] 031296bad3ab75b20c75ad6a4d159f99eb2c0fc96b7e10e907e192279155727c30"}, "vout": 1, "txid": "21bcc62eb9cd1c6efeae77cce9dc1fde1e299cd6496e68e305fe7c666f21d83a"}], "txid": "e371ff01e198809117b2e8d5d08eaa72141f98c57338c72b51f16fa03a6a73f8", "blocktime": 1537870564, "version": 2, "confirmations": 11515, "time": 1537870564, "locktime": 542989, "vsize": 225, "size": 225}