{"hash": "e371e14b483888e992c6606805234cd002f796cc35f9145cf85f100e3a36ac77", "blockhash": "00000000000000000018f53835495a110e01622372bf6ae95dc86f2b0ab887b0", "vout": [{"scriptPubKey": {"reqSigs": 1, "hex": "76a914d314bcbd5edd067e57f799a499f33d0e25e92d6e88ac", "addresses": ["1LF6RKwkYvfVM9RmGk3odQ8cBzR8r6sT1A"], "asm": "OP_DUP OP_HASH160 d314bcbd5edd067e57f799a499f33d0e25e92d6e OP_EQUALVERIFY OP_CHECKSIG", "type": "pubkeyhash"}, "value": 0.00025575, "n": 0}, {"scriptPubKey": {"type": "nulldata", "hex": "6a4c50000077810001ff1c0bec365306f189a5c1f2bcbefa6b8351586b4e86aeaeacb577c031fca0890c5975127e9f5c77f48d6206b15c5baa0ad906143fe9098cd3024bbf23acfcfaac8058b692fe6808c31d", "asm": "OP_RETURN 000077810001ff1c0bec365306f189a5c1f2bcbefa6b8351586b4e86aeaeacb577c031fca0890c5975127e9f5c77f48d6206b15c5baa0ad906143fe9098cd3024bbf23acfcfaac8058b692fe6808c31d"}, "value": 0.0, "n": 1}], "hex": "01000000016905ea621ddce2ed1c65af5678d1872f6efc2420d49ac9df8d8945faf39f8c49000000006b483045022100d28e19ea96acea532cf716ee351d52af9a78e9f802fb0df8ed7236c98b92e36f022074f633d816c8ee71c17aa566b1f38c4c58a53b0cf35977d690ca5ac1f8f1044201210360079cae742119138a859f68f181a35a4e66688d11a9d9f9a4e6fb6ec8310751ffffffff02e7630000000000001976a914d314bcbd5edd067e57f799a499f33d0e25e92d6e88ac0000000000000000536a4c50000077810001ff1c0bec365306f189a5c1f2bcbefa6b8351586b4e86aeaeacb577c031fca0890c5975127e9f5c77f48d6206b15c5baa0ad906143fe9098cd3024bbf23acfcfaac8058b692fe6808c31d00000000", "vin": [{"sequence": 4294967295, "scriptSig": {"hex": "483045022100d28e19ea96acea532cf716ee351d52af9a78e9f802fb0df8ed7236c98b92e36f022074f633d816c8ee71c17aa566b1f38c4c58a53b0cf35977d690ca5ac1f8f1044201210360079cae742119138a859f68f181a35a4e66688d11a9d9f9a4e6fb6ec8310751", "asm": "3045022100d28e19ea96acea532cf716ee351d52af9a78e9f802fb0df8ed7236c98b92e36f022074f633d816c8ee71c17aa566b1f38c4c58a53b0cf35977d690ca5ac1f8f10442[ALL] 0360079cae742119138a859f68f181a35a4e66688d11a9d9f9a4e6fb6ec8310751"}, "vout": 0, "txid": "498c9ff3fa45898ddfc99ad42024fc6e2f87d17856af651cede2dc1d62ea0569"}], "txid": "e371e14b483888e992c6606805234cd002f796cc35f9145cf85f100e3a36ac77", "blocktime": 1537870928, "version": 1, "confirmations": 11512, "time": 1537870928, "locktime": 0, "vsize": 284, "size": 284}