{"hash": "e372320f2ef9e5edc51000d62e47bb46edff907704944366bc168e819fce4efe", "blockhash": "0000000000000000000dcc0f55137456b1a82d3642486a52398922ac4d620174", "vout": [{"scriptPubKey": {"reqSigs": 1, "hex": "76a914abd922201353eb9096aa90f5083fb6569e04a6c488ac", "addresses": ["1GfefVP2kucJYYgoVg6GXs9BeQ11huneL9"], "asm": "OP_DUP OP_HASH160 abd922201353eb9096aa90f5083fb6569e04a6c4 OP_EQUALVERIFY OP_CHECKSIG", "type": "pubkeyhash"}, "value": 0.029674, "n": 0}, {"scriptPubKey": {"reqSigs": 1, "hex": "76a9147f076ae9d1c452c534fee85d4ad1dab83d975dbc88ac", "addresses": ["1CafhkQnxE3hUu94wDVCykZMKF5q7DFyuG"], "asm": "OP_DUP OP_HASH160 7f076ae9d1c452c534fee85d4ad1dab83d975dbc OP_EQUALVERIFY OP_CHECKSIG", "type": "pubkeyhash"}, "value": 0.02903399, "n": 1}], "hex": "0100000001e309e7100c068121dc5d5657a2c4822422a72eb6ecaeb54d7a9514cc64a702dc010000006a473044022030b79e903b49f0b4683f70678e604be9f9fd1c0ca9e95d94f366d562b9122ccf02207a20658f8f06d1a5800ecba32c9fb0c676a921315de822345685882898df71cf012102013bb6be6b3747ab5a9fce79bb216e59babc9770a7a2390c9fcf116570f93472ffffffff0268472d00000000001976a914abd922201353eb9096aa90f5083fb6569e04a6c488ac674d2c00000000001976a9147f076ae9d1c452c534fee85d4ad1dab83d975dbc88ac00000000", "vin": [{"sequence": 4294967295, "scriptSig": {"hex": "473044022030b79e903b49f0b4683f70678e604be9f9fd1c0ca9e95d94f366d562b9122ccf02207a20658f8f06d1a5800ecba32c9fb0c676a921315de822345685882898df71cf012102013bb6be6b3747ab5a9fce79bb216e59babc9770a7a2390c9fcf116570f93472", "asm": "3044022030b79e903b49f0b4683f70678e604be9f9fd1c0ca9e95d94f366d562b9122ccf02207a20658f8f06d1a5800ecba32c9fb0c676a921315de822345685882898df71cf[ALL] 02013bb6be6b3747ab5a9fce79bb216e59babc9770a7a2390c9fcf116570f93472"}, "vout": 1, "txid": "dc02a764cc14957a4db5aeecb62ea7222482c4a257565ddc2181060c10e709e3"}], "txid": "e372320f2ef9e5edc51000d62e47bb46edff907704944366bc168e819fce4efe", "blocktime": 1537870268, "version": 1, "confirmations": 11518, "time": 1537870268, "locktime": 0, "vsize": 225, "size": 225}