{"hash": "16c3d9acede26e407b186590814ecbfa4008bcdc053fafee8b0556fadfe5523f", "blockhash": "00000000000000000004ffacab907a6b429b9a5745fa0b75af4234bf69dd7176", "vout": [{"scriptPubKey": {"reqSigs": 1, "hex": "76a914b1a6d3154cd711dbda1b351e9009c1ebafe2361c88ac", "addresses": ["1HCLT8LX6aaM1PFtss1c7dcV4kwmbBnZmA"], "asm": "OP_DUP OP_HASH160 b1a6d3154cd711dbda1b351e9009c1ebafe2361c OP_EQUALVERIFY OP_CHECKSIG", "type": "pubkeyhash"}, "value": 0.0149, "n": 0}, {"scriptPubKey": {"reqSigs": 1, "hex": "a9144d293bcdc8b44f39bc0c92eb41ca5b5ef1480d4687", "addresses": ["38j1MGxv8M2EzE5QVWzavCTicpwByECqCv"], "asm": "OP_HASH160 4d293bcdc8b44f39bc0c92eb41ca5b5ef1480d46 OP_EQUAL", "type": "scripthash"}, "value": 8.79366905, "n": 1}], "hex": "02000000000101ac713e445299dcbb4170f6da4e141b3f692343e469beeb53181ad2ac20895ca501000000171600143ff816c3a02e013cd7ea4b2c204674768da8a76dffffffff0250bc1600000000001976a914b1a6d3154cd711dbda1b351e9009c1ebafe2361c88acf9126a340000000017a9144d293bcdc8b44f39bc0c92eb41ca5b5ef1480d468702473044022044d7ef4344796f630919ba9bc5070dbe58c13b62418f5ec9a6f69e4a6ccfad2802204cc257873360aa5ddc4f9ff07a450e9d1afda2abd052367ec86a28e3fb88d7f401210306f6e5c3dfeb94059c2c436c189768eff8f584c499fad5bb8e2f7ab65449bdeb00000000", "vin": [{"txinwitness": ["3044022044d7ef4344796f630919ba9bc5070dbe58c13b62418f5ec9a6f69e4a6ccfad2802204cc257873360aa5ddc4f9ff07a450e9d1afda2abd052367ec86a28e3fb88d7f401", "0306f6e5c3dfeb94059c2c436c189768eff8f584c499fad5bb8e2f7ab65449bdeb"], "sequence": 4294967295, "scriptSig": {"hex": "1600143ff816c3a02e013cd7ea4b2c204674768da8a76d", "asm": "00143ff816c3a02e013cd7ea4b2c204674768da8a76d"}, "vout": 1, "txid": "a55c8920acd21a1853ebbe69e44323693f1b144edaf67041bbdc9952443e71ac"}], "txid": "e381683594f56a8bfb7c865fcb541023c5c49a9a82accedffce71ee981c39214", "blocktime": 1537875543, "version": 2, "confirmations": 11464, "time": 1537875543, "locktime": 0, "vsize": 168, "size": 249}