{"hash": "7dba858b21651cddf74c6ba97747a43932aa2880037e1b75e20f0a15775a4ead", "blockhash": "0000000000000000000e13cef7c366c0283d82e591d1acd082e914b08063cdf1", "vout": [{"scriptPubKey": {"reqSigs": 1, "hex": "a9143f66de37236f97be788a70208d8d0ba1d19db30287", "addresses": ["37UFj2QQiWZuX7XBUGGKApixUuNsU7Qpc1"], "asm": "OP_HASH160 3f66de37236f97be788a70208d8d0ba1d19db302 OP_EQUAL", "type": "scripthash"}, "value": 0.0099954, "n": 0}, {"scriptPubKey": {"reqSigs": 1, "hex": "76a914ebaf2cafdc497032205ccfcbdbc8180fe58ee72688ac", "addresses": ["1NVBeRU67WqPFJyJXWJ3Ee52Y9pg5jxJiR"], "asm": "OP_DUP OP_HASH160 ebaf2cafdc497032205ccfcbdbc8180fe58ee726 OP_EQUALVERIFY OP_CHECKSIG", "type": "pubkeyhash"}, "value": 0.0058446, "n": 1}], "hex": "02000000000102632529530fc896dc364ee63e9302a04bd9e9e55c41c5904a9c9406a18c98feb919000000171600140fe07d04a95f26bbe80ba8785e4386cf338f067afeffffff90733fb84ab72217ee8756a9e4e51ee42cf60fc5f4a61484bb6e2cb1141c9b6700000000171600142d375f6edcc77ea8163db0a6defea6f3ddd04416feffffff0274400f000000000017a9143f66de37236f97be788a70208d8d0ba1d19db302870ceb0800000000001976a914ebaf2cafdc497032205ccfcbdbc8180fe58ee72688ac02473044022021adbdd68ebc903b0bb2df9e4ee908744815c0f944b5ed29d633b4252cfc30ec02204b61c123f022b77fbc098346f8134a233e7d31a41242701ee94d3fb9adb130f5012102419368d7c3b93b7844506dda217b0ed18b80a701bc85e3db70464b67edc9a8f50247304402201cb98487845f09449b31834674198eff99db496cb1d620fbc363f7e99b4576b0022056e7c856a7b07711a94fcd0cb5878c6254ce7ae365c2c8feedfd9bf78dbd4344012102823edddbcdc2461e137064ab3e949f5637b59a30eae08e38d975d9e7087355900f490800", "vin": [{"txinwitness": ["3044022021adbdd68ebc903b0bb2df9e4ee908744815c0f944b5ed29d633b4252cfc30ec02204b61c123f022b77fbc098346f8134a233e7d31a41242701ee94d3fb9adb130f501", "02419368d7c3b93b7844506dda217b0ed18b80a701bc85e3db70464b67edc9a8f5"], "sequence": 4294967294, "scriptSig": {"hex": "1600140fe07d04a95f26bbe80ba8785e4386cf338f067a", "asm": "00140fe07d04a95f26bbe80ba8785e4386cf338f067a"}, "vout": 25, "txid": "b9fe988ca106949c4a90c5415ce5e9d94ba002933ee64e36dc96c80f53292563"}, {"txinwitness": ["304402201cb98487845f09449b31834674198eff99db496cb1d620fbc363f7e99b4576b0022056e7c856a7b07711a94fcd0cb5878c6254ce7ae365c2c8feedfd9bf78dbd434401", "02823edddbcdc2461e137064ab3e949f5637b59a30eae08e38d975d9e708735590"], "sequence": 4294967294, "scriptSig": {"hex": "1600142d375f6edcc77ea8163db0a6defea6f3ddd04416", "asm": "00142d375f6edcc77ea8163db0a6defea6f3ddd04416"}, "vout": 0, "txid": "679b1c14b12c6ebb8414a6f4c50ff62ce41ee5e4a95687ee1722b74ab83f7390"}], "txid": "e383842d59982601cc198e871746962e23e2700e4ce651758fd5464b7d569b92", "blocktime": 1537871767, "version": 2, "confirmations": 11495, "time": 1537871767, "locktime": 542991, "vsize": 258, "size": 420}