{"hash": "e38c319d50cf28d78972a3eed8938500c844fe406eb39c8735acaa052494a3a0", "blockhash": "00000000000000000024a2167bbff67b0be802c0b01cdd79e6331c2be6459f87", "vout": [{"scriptPubKey": {"reqSigs": 1, "hex": "a914770b80627513972c53e389d0d56ab738f84ccddc87", "addresses": ["3CYU7WXnAtPi332HHC5zXxAusbBYtN4fud"], "asm": "OP_HASH160 770b80627513972c53e389d0d56ab738f84ccddc OP_EQUAL", "type": "scripthash"}, "value": 0.01477533, "n": 0}, {"scriptPubKey": {"reqSigs": 1, "hex": "76a914e8adbc1bd8e8f7ed25543088fdf866c40b26630288ac", "addresses": ["1NDHtozSngkXeE5oZwvGoRqzXwK5iojAWi"], "asm": "OP_DUP OP_HASH160 e8adbc1bd8e8f7ed25543088fdf866c40b266302 OP_EQUALVERIFY OP_CHECKSIG", "type": "pubkeyhash"}, "value": 0.00058689, "n": 1}], "hex": "0100000002cded04867c849fd72fe66ef904fcb936b87b976efd6e219ba04d66e08a406fb001000000d90046304302202000a9a1c9ddeffa39a49d077d39090fdee9a297c2096c7c900482b4a858b184021f48304b122056e76f9918001fb725a4d2b10d3120e332e9e8ca78a82ba46e7401483045022100f73397ab735848daaae7469f50464a5ae082e4ece6459e7d0db0a9288bb9e697022027200e2fd0765aa16ff4ecf1fb115edfe66f6816ac24fc0bf68c8ab5743168f80147522102907a54bed8ad74b3f35638c60114ca240a308cb986f3f2f306178869a8880b612102c4f17a410359459d6ee22a668097db9694ca8e15ca259804d12d38765ae324cb52aeffffffff66f85d5fa0c26690985c51459bc62436981bc48fda7406189ae07b2c677f0c1801000000d90047304402201168d4894a7c511748e1ee2f0dca5ec8182e82b134bc62820d6727847148ea410220626a326005b1b368c404e0599231a23e1733ae0da2a272ce73700185dda84a9f014730440220241fd0801ad58c0bae7a47bec3c012f85e8ddd5079869fd342f0ca7ebf1b305f022017f7f440f24fb71ae5fdf509cb5a79eae2fba0324a6e7cc9c02a858c8cd017890147522102661f6a331f95efc25637cf954b178bae164bfd91f8872f565ca0a4ffd84bd3312102907a54bed8ad74b3f35638c60114ca240a308cb986f3f2f306178869a8880b6152aeffffffff029d8b16000000000017a914770b80627513972c53e389d0d56ab738f84ccddc8741e50000000000001976a914e8adbc1bd8e8f7ed25543088fdf866c40b26630288ac00000000", "vin": [{"sequence": 4294967295, "scriptSig": {"hex": "0046304302202000a9a1c9ddeffa39a49d077d39090fdee9a297c2096c7c900482b4a858b184021f48304b122056e76f9918001fb725a4d2b10d3120e332e9e8ca78a82ba46e7401483045022100f73397ab735848daaae7469f50464a5ae082e4ece6459e7d0db0a9288bb9e697022027200e2fd0765aa16ff4ecf1fb115edfe66f6816ac24fc0bf68c8ab5743168f80147522102907a54bed8ad74b3f35638c60114ca240a308cb986f3f2f306178869a8880b612102c4f17a410359459d6ee22a668097db9694ca8e15ca259804d12d38765ae324cb52ae", "asm": "0 304302202000a9a1c9ddeffa39a49d077d39090fdee9a297c2096c7c900482b4a858b184021f48304b122056e76f9918001fb725a4d2b10d3120e332e9e8ca78a82ba46e74[ALL] 3045022100f73397ab735848daaae7469f50464a5ae082e4ece6459e7d0db0a9288bb9e697022027200e2fd0765aa16ff4ecf1fb115edfe66f6816ac24fc0bf68c8ab5743168f8[ALL] 522102907a54bed8ad74b3f35638c60114ca240a308cb986f3f2f306178869a8880b612102c4f17a410359459d6ee22a668097db9694ca8e15ca259804d12d38765ae324cb52ae"}, "vout": 1, "txid": "b06f408ae0664da09b216efd6e977bb836b9fc04f96ee62fd79f847c8604edcd"}, {"sequence": 4294967295, "scriptSig": {"hex": "0047304402201168d4894a7c511748e1ee2f0dca5ec8182e82b134bc62820d6727847148ea410220626a326005b1b368c404e0599231a23e1733ae0da2a272ce73700185dda84a9f014730440220241fd0801ad58c0bae7a47bec3c012f85e8ddd5079869fd342f0ca7ebf1b305f022017f7f440f24fb71ae5fdf509cb5a79eae2fba0324a6e7cc9c02a858c8cd017890147522102661f6a331f95efc25637cf954b178bae164bfd91f8872f565ca0a4ffd84bd3312102907a54bed8ad74b3f35638c60114ca240a308cb986f3f2f306178869a8880b6152ae", "asm": "0 304402201168d4894a7c511748e1ee2f0dca5ec8182e82b134bc62820d6727847148ea410220626a326005b1b368c404e0599231a23e1733ae0da2a272ce73700185dda84a9f[ALL] 30440220241fd0801ad58c0bae7a47bec3c012f85e8ddd5079869fd342f0ca7ebf1b305f022017f7f440f24fb71ae5fdf509cb5a79eae2fba0324a6e7cc9c02a858c8cd01789[ALL] 522102661f6a331f95efc25637cf954b178bae164bfd91f8872f565ca0a4ffd84bd3312102907a54bed8ad74b3f35638c60114ca240a308cb986f3f2f306178869a8880b6152ae"}, "vout": 1, "txid": "180c7f672c7be09a180674da8fc41b983624c69b45515c989066c2a05f5df866"}], "txid": "e38c319d50cf28d78972a3eed8938500c844fe406eb39c8735acaa052494a3a0", "blocktime": 1537870564, "version": 1, "confirmations": 11515, "time": 1537870564, "locktime": 0, "vsize": 592, "size": 592}