{"hash": "e391a7c7a71a5149d63dc9a348f97477e6d95b5e2ce20d5d9fc9c27b5ca38b9d", "blockhash": "00000000000000000024a2167bbff67b0be802c0b01cdd79e6331c2be6459f87", "vout": [{"scriptPubKey": {"reqSigs": 1, "hex": "a914a90ab9920b03709e2537e86463266ff28125b0de87", "addresses": ["3H6py9956SxmmC5eiq5XBAWReqofSM4b5Y"], "asm": "OP_HASH160 a90ab9920b03709e2537e86463266ff28125b0de OP_EQUAL", "type": "scripthash"}, "value": 0.00389975, "n": 0}, {"scriptPubKey": {"reqSigs": 1, "hex": "76a91404a7f6a8513eb266b3c8c0d2b7a0a1aca7584e9f88ac", "addresses": ["1Rcv5Rg6VkVjURaumX4e42RMYveziTJM1"], "asm": "OP_DUP OP_HASH160 04a7f6a8513eb266b3c8c0d2b7a0a1aca7584e9f OP_EQUALVERIFY OP_CHECKSIG", "type": "pubkeyhash"}, "value": 0.01204721, "n": 1}], "hex": "010000000118476927d0d2e9cecacf049cbe4f77ddb725ac950b270114d765dd05004bb650010000006a4730440220026e57113d0d22f9831fd21f99c62b98a2d08a77fdb00c4d644f518ba52cba4b02204b757121b8575962aa346288201cd2e371d7e1330eff7e98edea7a409bc786650121038f1ff5c3dfe99bbfd4bd78e88367307745590dad7363f24cb04a29207b133eb2ffffffff0257f305000000000017a914a90ab9920b03709e2537e86463266ff28125b0de87f1611200000000001976a91404a7f6a8513eb266b3c8c0d2b7a0a1aca7584e9f88ac00000000", "vin": [{"sequence": 4294967295, "scriptSig": {"hex": "4730440220026e57113d0d22f9831fd21f99c62b98a2d08a77fdb00c4d644f518ba52cba4b02204b757121b8575962aa346288201cd2e371d7e1330eff7e98edea7a409bc786650121038f1ff5c3dfe99bbfd4bd78e88367307745590dad7363f24cb04a29207b133eb2", "asm": "30440220026e57113d0d22f9831fd21f99c62b98a2d08a77fdb00c4d644f518ba52cba4b02204b757121b8575962aa346288201cd2e371d7e1330eff7e98edea7a409bc78665[ALL] 038f1ff5c3dfe99bbfd4bd78e88367307745590dad7363f24cb04a29207b133eb2"}, "vout": 1, "txid": "50b64b0005dd65d71401270b95ac25b7dd774fbe9c04cfcacee9d2d027694718"}], "txid": "e391a7c7a71a5149d63dc9a348f97477e6d95b5e2ce20d5d9fc9c27b5ca38b9d", "blocktime": 1537870564, "version": 1, "confirmations": 11515, "time": 1537870564, "locktime": 0, "vsize": 223, "size": 223}