{"hash": "e395803e9fd3b26aa894bb4b5d818a3afc61f0422fb79575220ba6ed872ca224", "blockhash": "00000000000000000004ffacab907a6b429b9a5745fa0b75af4234bf69dd7176", "vout": [{"scriptPubKey": {"reqSigs": 1, "hex": "76a914523212b925b7d3b62b4d275cc7966b4be74d8b9688ac", "addresses": ["18VcPscjHvkM7mf35W6nCtFjAaTANC5zpN"], "asm": "OP_DUP OP_HASH160 523212b925b7d3b62b4d275cc7966b4be74d8b96 OP_EQUALVERIFY OP_CHECKSIG", "type": "pubkeyhash"}, "value": 0.00416, "n": 0}, {"scriptPubKey": {"reqSigs": 1, "hex": "76a914289ac1cf51fe3e4f1b1306a5d0e2b3f01fced33b88ac", "addresses": ["14hhRPDAnJj5rQ22Y5qdw313tffnc5GGoW"], "asm": "OP_DUP OP_HASH160 289ac1cf51fe3e4f1b1306a5d0e2b3f01fced33b OP_EQUALVERIFY OP_CHECKSIG", "type": "pubkeyhash"}, "value": 0.0061, "n": 1}, {"scriptPubKey": {"reqSigs": 1, "hex": "76a9143a58e08b78491fca46ba25058ebf2c0ec605e1fe88ac", "addresses": ["16KWfRCkqorjuxtgPRW8NGvUhvqFUgtYvc"], "asm": "OP_DUP OP_HASH160 3a58e08b78491fca46ba25058ebf2c0ec605e1fe OP_EQUALVERIFY OP_CHECKSIG", "type": "pubkeyhash"}, "value": 0.01451, "n": 2}, {"scriptPubKey": {"reqSigs": 1, "hex": "76a9140b6f05f8cd023b7e49f31599d7c1422aca5aee8988ac", "addresses": ["123TS9Ujf2yCpAQKMBjHbsHaEiVSo2KN4V"], "asm": "OP_DUP OP_HASH160 0b6f05f8cd023b7e49f31599d7c1422aca5aee89 OP_EQUALVERIFY OP_CHECKSIG", "type": "pubkeyhash"}, "value": 0.00189, "n": 3}, {"scriptPubKey": {"reqSigs": 1, "hex": "76a9140b6f05f8cd023b7e49f31599d7c1422aca5aee8988ac", "addresses": ["123TS9Ujf2yCpAQKMBjHbsHaEiVSo2KN4V"], "asm": "OP_DUP OP_HASH160 0b6f05f8cd023b7e49f31599d7c1422aca5aee89 OP_EQUALVERIFY OP_CHECKSIG", "type": "pubkeyhash"}, "value": 0.00211, "n": 4}, {"scriptPubKey": {"reqSigs": 1, "hex": "76a914081870a41ba9f1086be5bbc736d2bbd1a04d2c8688ac", "addresses": ["1jogf3SVkfQaE91NWoc15esUVEpV1Akzq"], "asm": "OP_DUP OP_HASH160 081870a41ba9f1086be5bbc736d2bbd1a04d2c86 OP_EQUALVERIFY OP_CHECKSIG", "type": "pubkeyhash"}, "value": 0.00874, "n": 5}, {"scriptPubKey": {"reqSigs": 1, "hex": "76a9141d176a0e4af14c2506264290a6b5e54d0438eb7488ac", "addresses": ["13epeR7p847CrNpJsaJZBM3Fbsx6ppo4UW"], "asm": "OP_DUP OP_HASH160 1d176a0e4af14c2506264290a6b5e54d0438eb74 OP_EQUALVERIFY OP_CHECKSIG", "type": "pubkeyhash"}, "value": 0.04977, "n": 6}, {"scriptPubKey": {"reqSigs": 1, "hex": "76a91442f8a2b720f83f552669a8799eadc220f416fb4b88ac", "addresses": ["1777TAcBMHgk25RJ73DBBUQyY8kwahLYqe"], "asm": "OP_DUP OP_HASH160 42f8a2b720f83f552669a8799eadc220f416fb4b OP_EQUALVERIFY OP_CHECKSIG", "type": "pubkeyhash"}, "value": 0.04032, "n": 7}, {"scriptPubKey": {"reqSigs": 1, "hex": "76a91432071581e35bb189010e3ff8794e7be2214f694688ac", "addresses": ["15ZXGoFQb4VCJneWezG5WpEAyLYTcvQrNa"], "asm": "OP_DUP OP_HASH160 32071581e35bb189010e3ff8794e7be2214f6946 OP_EQUALVERIFY OP_CHECKSIG", "type": "pubkeyhash"}, "value": 0.00767, "n": 8}, {"scriptPubKey": {"reqSigs": 1, "hex": "76a9140471d0e4fee393789f18ac8358876c7201ac22ee88ac", "addresses": ["1QW3qnvJChSigi4rnoVXHUk8N19AHcWZZ"], "asm": "OP_DUP OP_HASH160 0471d0e4fee393789f18ac8358876c7201ac22ee OP_EQUALVERIFY OP_CHECKSIG", "type": "pubkeyhash"}, "value": 0.00265, "n": 9}, {"scriptPubKey": {"reqSigs": 1, "hex": "76a914a8f94ef4e26b7f887d14986830cd48d3b8af9dc088ac", "addresses": ["1GQTBUsQAtuLPEXNyKAowFBo4f8hBR2NaN"], "asm": "OP_DUP OP_HASH160 a8f94ef4e26b7f887d14986830cd48d3b8af9dc0 OP_EQUALVERIFY OP_CHECKSIG", "type": "pubkeyhash"}, "value": 0.0015, "n": 10}, {"scriptPubKey": {"reqSigs": 1, "hex": "76a914523212b925b7d3b62b4d275cc7966b4be74d8b9688ac", "addresses": ["18VcPscjHvkM7mf35W6nCtFjAaTANC5zpN"], "asm": "OP_DUP OP_HASH160 523212b925b7d3b62b4d275cc7966b4be74d8b96 OP_EQUALVERIFY OP_CHECKSIG", "type": "pubkeyhash"}, "value": 0.00306, "n": 11}, {"scriptPubKey": {"reqSigs": 1, "hex": "76a9147a7a8aee4368c9d2d1369ad0fde2319035a57b7688ac", "addresses": ["1CAcEpWwFsx9SuGNkYEMKYuMiyMh7ui8cD"], "asm": "OP_DUP OP_HASH160 7a7a8aee4368c9d2d1369ad0fde2319035a57b76 OP_EQUALVERIFY OP_CHECKSIG", "type": "pubkeyhash"}, "value": 0.00765, "n": 12}, {"scriptPubKey": {"reqSigs": 1, "hex": "76a9147a7a8aee4368c9d2d1369ad0fde2319035a57b7688ac", "addresses": ["1CAcEpWwFsx9SuGNkYEMKYuMiyMh7ui8cD"], "asm": "OP_DUP OP_HASH160 7a7a8aee4368c9d2d1369ad0fde2319035a57b76 OP_EQUALVERIFY OP_CHECKSIG", "type": "pubkeyhash"}, "value": 0.01446, "n": 13}, {"scriptPubKey": {"reqSigs": 1, "hex": "76a914e5dc9cc11c03790fc52c5025ef18429688a544b788ac", "addresses": ["1MxQ2LqUjtRzCebVpgU6NeNda9fKqSdtm3"], "asm": "OP_DUP OP_HASH160 e5dc9cc11c03790fc52c5025ef18429688a544b7 OP_EQUALVERIFY OP_CHECKSIG", "type": "pubkeyhash"}, "value": 0.00275, "n": 14}, {"scriptPubKey": {"reqSigs": 1, "hex": "76a9145ac0041a75ecd633cfdd15b6ebe0f7f24c38e64088ac", "addresses": ["19Gqqmo3bKnx29yY69w3K1mrHq1Xvg3HgA"], "asm": "OP_DUP OP_HASH160 5ac0041a75ecd633cfdd15b6ebe0f7f24c38e640 OP_EQUALVERIFY OP_CHECKSIG", "type": "pubkeyhash"}, "value": 1.71539185, "n": 15}], "hex": "01000000018843e0ece871a4eb64e206ce0b7188d64172382eb14bedf6029f0d1f8ae3c1e40d0000006b483045022100a459f729af4067f4024506318a96ef600f946a30560e424094cc5bbf41240a2902206bf5fbbad62b39c964d71c3bbc58abd2b3c2a2470d1ebbeebf2cb855b665070c01210319891b4582fcaa3bf030ae7be9ba33955b93dd16cc12ac0572531c82a73aa891ffffffff1000590600000000001976a914523212b925b7d3b62b4d275cc7966b4be74d8b9688acd04e0900000000001976a914289ac1cf51fe3e4f1b1306a5d0e2b3f01fced33b88acf8231600000000001976a9143a58e08b78491fca46ba25058ebf2c0ec605e1fe88ac48e20200000000001976a9140b6f05f8cd023b7e49f31599d7c1422aca5aee8988ac38380300000000001976a9140b6f05f8cd023b7e49f31599d7c1422aca5aee8988ac10560d00000000001976a914081870a41ba9f1086be5bbc736d2bbd1a04d2c8688ac68f14b00000000001976a9141d176a0e4af14c2506264290a6b5e54d0438eb7488ac00863d00000000001976a91442f8a2b720f83f552669a8799eadc220f416fb4b88ac18b40b00000000001976a91432071581e35bb189010e3ff8794e7be2214f694688ac280b0400000000001976a9140471d0e4fee393789f18ac8358876c7201ac22ee88acf0490200000000001976a914a8f94ef4e26b7f887d14986830cd48d3b8af9dc088ac50ab0400000000001976a914523212b925b7d3b62b4d275cc7966b4be74d8b9688ac48ac0b00000000001976a9147a7a8aee4368c9d2d1369ad0fde2319035a57b7688ac70101600000000001976a9147a7a8aee4368c9d2d1369ad0fde2319035a57b7688ac38320400000000001976a914e5dc9cc11c03790fc52c5025ef18429688a544b788acf17a390a000000001976a9145ac0041a75ecd633cfdd15b6ebe0f7f24c38e64088ac00000000", "vin": [{"sequence": 4294967295, "scriptSig": {"hex": "483045022100a459f729af4067f4024506318a96ef600f946a30560e424094cc5bbf41240a2902206bf5fbbad62b39c964d71c3bbc58abd2b3c2a2470d1ebbeebf2cb855b665070c01210319891b4582fcaa3bf030ae7be9ba33955b93dd16cc12ac0572531c82a73aa891", "asm": "3045022100a459f729af4067f4024506318a96ef600f946a30560e424094cc5bbf41240a2902206bf5fbbad62b39c964d71c3bbc58abd2b3c2a2470d1ebbeebf2cb855b665070c[ALL] 0319891b4582fcaa3bf030ae7be9ba33955b93dd16cc12ac0572531c82a73aa891"}, "vout": 13, "txid": "e4c1e38a1f0d9f02f6ed4bb12e387241d688710bce06e264eba471e8ece04388"}], "txid": "e395803e9fd3b26aa894bb4b5d818a3afc61f0422fb79575220ba6ed872ca224", "blocktime": 1537875543, "version": 1, "confirmations": 11464, "time": 1537875543, "locktime": 0, "vsize": 702, "size": 702}