{"hash": "cb90901894b8cfd18044c03127fae1d227f998b78f3b8eb43592659b52f708c9", "blockhash": "0000000000000000001e0dab787dd257d1dbfcb92a98c2207d5e1078be1f4165", "vout": [{"scriptPubKey": {"reqSigs": 1, "hex": "a91490b763664ddfc09ea654dce38e6e9e68c04a5eac87", "addresses": ["3EtCvD3JPoXqbtMGnNabM6bjepv2BcCjgo"], "asm": "OP_HASH160 90b763664ddfc09ea654dce38e6e9e68c04a5eac OP_EQUAL", "type": "scripthash"}, "value": 0.0001876, "n": 0}, {"scriptPubKey": {"reqSigs": 1, "hex": "a914414cec0fc72a9410f6836edaf08de1aa3b2a321c87", "addresses": ["37eHzewnAFRR2SVZu8rZM3nBsmuE2XBU7D"], "asm": "OP_HASH160 414cec0fc72a9410f6836edaf08de1aa3b2a321c OP_EQUAL", "type": "scripthash"}, "value": 0.2637786, "n": 1}], "hex": "01000000000101ec9695d820d595011559fbfd10ee1ece93b6e854559897972ff86ba1df800e670100000023220020ce74cde37cfb8dd71d0179287e12fc721ee236ce3c89c2745bcd365b39807eb3ffffffff02484900000000000017a91490b763664ddfc09ea654dce38e6e9e68c04a5eac87847e92010000000017a914414cec0fc72a9410f6836edaf08de1aa3b2a321c87040047304402206b5a5a384cd91ea2f4caf31aa5a176e35be67a358611a5f9d603fe0ed178a2ad022006ef0d66ab6f97809b6ee1e2c34a8d3b311da7f4cf28cefcf0c9130aac4f1f55014830450221008fe832a1d6d1ee0e541234f05de16ba5e8e9cc3e271885022bbcc2956385ae0e022011877ff981aa52187cff1f61945f2ee1d082df4d1018fd6acfb512e31baa22860147522103ada901d90d5a76319a60f228e0b1bbc84b1d9a87238550bae5d5d190067b66712103871fc2ca08e6950b38867e8e6a0e94ee625223d3aa0df5c65f414c6d784467e252ae00000000", "vin": [{"txinwitness": ["", "304402206b5a5a384cd91ea2f4caf31aa5a176e35be67a358611a5f9d603fe0ed178a2ad022006ef0d66ab6f97809b6ee1e2c34a8d3b311da7f4cf28cefcf0c9130aac4f1f5501", "30450221008fe832a1d6d1ee0e541234f05de16ba5e8e9cc3e271885022bbcc2956385ae0e022011877ff981aa52187cff1f61945f2ee1d082df4d1018fd6acfb512e31baa228601", "522103ada901d90d5a76319a60f228e0b1bbc84b1d9a87238550bae5d5d190067b66712103871fc2ca08e6950b38867e8e6a0e94ee625223d3aa0df5c65f414c6d784467e252ae"], "sequence": 4294967295, "scriptSig": {"hex": "220020ce74cde37cfb8dd71d0179287e12fc721ee236ce3c89c2745bcd365b39807eb3", "asm": "0020ce74cde37cfb8dd71d0179287e12fc721ee236ce3c89c2745bcd365b39807eb3"}, "vout": 1, "txid": "670e80dfa16bf82f9797985554e8b693ce1eee10fdfb59150195d520d89596ec"}], "txid": "e397a45cbff6721afd5987e2496493f4007831be2ae7f640253eba8340935f43", "blocktime": 1537872475, "version": 1, "confirmations": 11487, "time": 1537872475, "locktime": 0, "vsize": 206, "size": 371}