{"hash": "e39be6e03237af7917fc4d43f14cf0dbdca4aa29e57c8f9b9156cbb9ed497cbe", "blockhash": "00000000000000000004ffacab907a6b429b9a5745fa0b75af4234bf69dd7176", "vout": [{"scriptPubKey": {"reqSigs": 1, "hex": "76a914e8cea30989bd15530f819b766684b00dc7ba7cfa88ac", "addresses": ["1NDyJtNTjmwk5xPNhjgAMu4HDHigtobu1s"], "asm": "OP_DUP OP_HASH160 e8cea30989bd15530f819b766684b00dc7ba7cfa OP_EQUALVERIFY OP_CHECKSIG", "type": "pubkeyhash"}, "value": 14.75458387, "n": 0}, {"scriptPubKey": {"reqSigs": 1, "hex": "76a91465d44b04bfc8c9264ae57e8992fc96063d24b80588ac", "addresses": ["1AHRZkjM8VVGcyBxacnrVL6vKtUKWfuUpv"], "asm": "OP_DUP OP_HASH160 65d44b04bfc8c9264ae57e8992fc96063d24b805 OP_EQUALVERIFY OP_CHECKSIG", "type": "pubkeyhash"}, "value": 0.00888641, "n": 1}], "hex": "0200000007054b0ed5fffa1492ed93255c6bf3785f71e9da79c6acb3acb13d65ff261b3d09050000006a4730440220461fb8cd04eef9203ce17b1d50a1e7817959d5a33a67191e7cc79479a4bbca9b0220411d99b82b656713c443cde129f217fe5259b05bd0e2a0fbdd915dd7be4300a20121028994ec2047834cb0e5f513840a5e41edf299967b50094fc9de636a49ee23f6fbfeffffff0df57283c6570cf1d1842598dbce594cf4ce614deea7aa33bbead76557328b765b0000006b483045022100a089cc2ed6900a6e7f12e2e288ce80e231b6b407c2003ff31009e45858751a9102204049dce8af276f5720ddc194b60e762716a4715ac2c459289615daed91f9eeb601210333b870646e08a32aac50e176ac0496147409c90b7f9683768a6dcc745268d3ecfeffffff609cb8926409b670af1502bbdd6d6de535ccadc40d940b03d753f36b4e382b1b000000006b48304502210091e38bd5f8e484f59bb12e24d13698aaf2d4219732f7c194412fb95e1c325a0a02203f9bb366aedb2e9753516230b611fff8088f50809d970399d2b2d4f277a6ecc40121035202c1afb4aab9c2fc8f0f1393ef002937a0e37479c9422a8321b3d723856f6cfeffffffbaef9f08e4d9349f923d4f99b12aa4fc19ed424c35cf6b63281fba9d91a42efe000000006b4830450221009ea977c3ad93b7024c61d4cfcdba329e01d48a8bc84c935d0297f03503d588010220067ad59bb6a0ce351c972800b17867d5abb65ac3508d790164f9f1b652c1192e012102d2be3aa0db0672abb6ba4caaa72be389e81ac918f5a01b862f1e64ef3e031df4feffffffcf665cd60563eaa4bb5e93e30a3d76331dfe0feaf2b0e0ba7be6e84832e43131010000006b483045022100840ee88e878c1c6ca7f890aa06be79a19eb920a210060d7c10f250949a8e553f022076bbb304eab72aae5abd7b016c1a58f2b9cace49ad72556d1d0e7857bbd6e30a0121024d680be8a0edfa27767f86ba8b9e9423bb400e9174aa9776505c3c270d5032aefeffffffe6ae5abd6f7c504cbf664fcb19fd6f875fe9e1ba0748c9326d7701ebad6f6268010000006b483045022100844b04e9246eb370ad08dc20fd741a907ab349df176d4ea91968f215b07e97410220382760fa801a1a2b9b990b8dd75cc8b05a7ab7015293590753533d237ac64a4a0121030935ce76ebd0d15e5f87dc665603b17db90fbd471e2cc5dddeefcb41cd6cbbc9fefffffffee834a56e074b9b3a1fc48f1cd83c6199b558437ca69950daf7b7f21be75b3f0f0000006b483045022100c7952e1963eb51159863b1beba3196479b4f339f866996cc24522bca3ed40dc502203bc6f73f370ad08622016e78d359718fb3ad44ac08022d6a50ed2affa1217a800121038ec70e9e7e4cf6eb1e05e4ea201080dca36aa909d25f7cc920cd94836b7abce5feffffff0253b5f157000000001976a914e8cea30989bd15530f819b766684b00dc7ba7cfa88ac418f0d00000000001976a91465d44b04bfc8c9264ae57e8992fc96063d24b80588ac16490800", "vin": [{"sequence": 4294967294, "scriptSig": {"hex": "4730440220461fb8cd04eef9203ce17b1d50a1e7817959d5a33a67191e7cc79479a4bbca9b0220411d99b82b656713c443cde129f217fe5259b05bd0e2a0fbdd915dd7be4300a20121028994ec2047834cb0e5f513840a5e41edf299967b50094fc9de636a49ee23f6fb", "asm": "30440220461fb8cd04eef9203ce17b1d50a1e7817959d5a33a67191e7cc79479a4bbca9b0220411d99b82b656713c443cde129f217fe5259b05bd0e2a0fbdd915dd7be4300a2[ALL] 028994ec2047834cb0e5f513840a5e41edf299967b50094fc9de636a49ee23f6fb"}, "vout": 5, "txid": "093d1b26ff653db1acb3acc679dae9715f78f36b5c2593ed9214faffd50e4b05"}, {"sequence": 4294967294, "scriptSig": {"hex": "483045022100a089cc2ed6900a6e7f12e2e288ce80e231b6b407c2003ff31009e45858751a9102204049dce8af276f5720ddc194b60e762716a4715ac2c459289615daed91f9eeb601210333b870646e08a32aac50e176ac0496147409c90b7f9683768a6dcc745268d3ec", "asm": "3045022100a089cc2ed6900a6e7f12e2e288ce80e231b6b407c2003ff31009e45858751a9102204049dce8af276f5720ddc194b60e762716a4715ac2c459289615daed91f9eeb6[ALL] 0333b870646e08a32aac50e176ac0496147409c90b7f9683768a6dcc745268d3ec"}, "vout": 91, "txid": "768b325765d7eabb33aaa7ee4d61cef44c59cedb982584d1f10c57c68372f50d"}, {"sequence": 4294967294, "scriptSig": {"hex": "48304502210091e38bd5f8e484f59bb12e24d13698aaf2d4219732f7c194412fb95e1c325a0a02203f9bb366aedb2e9753516230b611fff8088f50809d970399d2b2d4f277a6ecc40121035202c1afb4aab9c2fc8f0f1393ef002937a0e37479c9422a8321b3d723856f6c", "asm": "304502210091e38bd5f8e484f59bb12e24d13698aaf2d4219732f7c194412fb95e1c325a0a02203f9bb366aedb2e9753516230b611fff8088f50809d970399d2b2d4f277a6ecc4[ALL] 035202c1afb4aab9c2fc8f0f1393ef002937a0e37479c9422a8321b3d723856f6c"}, "vout": 0, "txid": "1b2b384e6bf353d7030b940dc4adcc35e56d6dddbb0215af70b6096492b89c60"}, {"sequence": 4294967294, "scriptSig": {"hex": "4830450221009ea977c3ad93b7024c61d4cfcdba329e01d48a8bc84c935d0297f03503d588010220067ad59bb6a0ce351c972800b17867d5abb65ac3508d790164f9f1b652c1192e012102d2be3aa0db0672abb6ba4caaa72be389e81ac918f5a01b862f1e64ef3e031df4", "asm": "30450221009ea977c3ad93b7024c61d4cfcdba329e01d48a8bc84c935d0297f03503d588010220067ad59bb6a0ce351c972800b17867d5abb65ac3508d790164f9f1b652c1192e[ALL] 02d2be3aa0db0672abb6ba4caaa72be389e81ac918f5a01b862f1e64ef3e031df4"}, "vout": 0, "txid": "fe2ea4919dba1f28636bcf354c42ed19fca42ab1994f3d929f34d9e4089fefba"}, {"sequence": 4294967294, "scriptSig": {"hex": "483045022100840ee88e878c1c6ca7f890aa06be79a19eb920a210060d7c10f250949a8e553f022076bbb304eab72aae5abd7b016c1a58f2b9cace49ad72556d1d0e7857bbd6e30a0121024d680be8a0edfa27767f86ba8b9e9423bb400e9174aa9776505c3c270d5032ae", "asm": "3045022100840ee88e878c1c6ca7f890aa06be79a19eb920a210060d7c10f250949a8e553f022076bbb304eab72aae5abd7b016c1a58f2b9cace49ad72556d1d0e7857bbd6e30a[ALL] 024d680be8a0edfa27767f86ba8b9e9423bb400e9174aa9776505c3c270d5032ae"}, "vout": 1, "txid": "3131e43248e8e67bbae0b0f2ea0ffe1d33763d0ae3935ebba4ea6305d65c66cf"}, {"sequence": 4294967294, "scriptSig": {"hex": "483045022100844b04e9246eb370ad08dc20fd741a907ab349df176d4ea91968f215b07e97410220382760fa801a1a2b9b990b8dd75cc8b05a7ab7015293590753533d237ac64a4a0121030935ce76ebd0d15e5f87dc665603b17db90fbd471e2cc5dddeefcb41cd6cbbc9", "asm": "3045022100844b04e9246eb370ad08dc20fd741a907ab349df176d4ea91968f215b07e97410220382760fa801a1a2b9b990b8dd75cc8b05a7ab7015293590753533d237ac64a4a[ALL] 030935ce76ebd0d15e5f87dc665603b17db90fbd471e2cc5dddeefcb41cd6cbbc9"}, "vout": 1, "txid": "68626fadeb01776d32c94807bae1e95f876ffd19cb4f66bf4c507c6fbd5aaee6"}, {"sequence": 4294967294, "scriptSig": {"hex": "483045022100c7952e1963eb51159863b1beba3196479b4f339f866996cc24522bca3ed40dc502203bc6f73f370ad08622016e78d359718fb3ad44ac08022d6a50ed2affa1217a800121038ec70e9e7e4cf6eb1e05e4ea201080dca36aa909d25f7cc920cd94836b7abce5", "asm": "3045022100c7952e1963eb51159863b1beba3196479b4f339f866996cc24522bca3ed40dc502203bc6f73f370ad08622016e78d359718fb3ad44ac08022d6a50ed2affa1217a80[ALL] 038ec70e9e7e4cf6eb1e05e4ea201080dca36aa909d25f7cc920cd94836b7abce5"}, "vout": 15, "txid": "3f5be71bf2b7f7da5099a67c4358b599613cd81c8fc41f3a9b4b076ea534e8fe"}], "txid": "e39be6e03237af7917fc4d43f14cf0dbdca4aa29e57c8f9b9156cbb9ed497cbe", "blocktime": 1537875543, "version": 2, "confirmations": 11464, "time": 1537875543, "locktime": 542998, "vsize": 1113, "size": 1113}