{"hash": "e39dfe7a9d4f9a42eb133d1fc0074781d85bc7a2c01f3fabe2fc54b21018c78a", "blockhash": "0000000000000000000e13cef7c366c0283d82e591d1acd082e914b08063cdf1", "vout": [{"scriptPubKey": {"reqSigs": 1, "hex": "76a9144ea667c26c0aa7cb35048c0c366bbcd694bff63388ac", "addresses": ["18As41Neb1C1TVcWnDTDpcCUVQ3BBZws3Z"], "asm": "OP_DUP OP_HASH160 4ea667c26c0aa7cb35048c0c366bbcd694bff633 OP_EQUALVERIFY OP_CHECKSIG", "type": "pubkeyhash"}, "value": 0.01748881, "n": 0}, {"scriptPubKey": {"reqSigs": 1, "hex": "76a9141f7457248569c0bc8d7008d9212b0260c265fd4e88ac", "addresses": ["13sKKRLG7C6RzFzn6ZdzqqA1ZBJGSmwxcc"], "asm": "OP_DUP OP_HASH160 1f7457248569c0bc8d7008d9212b0260c265fd4e OP_EQUALVERIFY OP_CHECKSIG", "type": "pubkeyhash"}, "value": 0.00895523, "n": 1}], "hex": "0200000003dbe57c748f6dfb7c8257dcf29c537db487a3e4f12343c39626dd850c93bcd5d7010000006b483045022100cf5206763636a71c0be7d4a4e996f7a7d27a52c8d42e533ac581c52b6fd6e28d022028146ec5ad60a3f0d12cea042edf19207007e36cf8e310aa6d6417629cdb9f26012102aa6056c5ccb35d73a4fdca7f734788ce453f3c9a2c8798dd1a72554b4de8cc8bfeffffff67302bc5f020ccebb84fb5026655f6bb76bea93b4a5de6de1a886d773a5f2602000000006b483045022100807c528ecbefee302596160873e2ac0836f1d87f6fd732e10ae5632b9ff81cf102207fce2382b2a4339122a6a892b47c94f6639189fbbe5ed2e132559823e45a8d220121027da8179be3d138e54cb6a5d23a781fa66aac32c70739dc748ad25c5c9d808ac0feffffff8cdf340dda898d013936cd0026c3b960cbbf699c29e8174118b7d64fa793ef47010000006b48304502210082f83f05d48e6c339aaf03d455141162946fb037c904db861c2eb99e6b51bed302201df6c1db864f1692a814c21c17e6cde6611afb56fce995be7724b0ba86936ee3012103a239dd1025f93edced3fea314a873c6d5c7327dde4ee495728eeafcc2d8331d3feffffff0291af1a00000000001976a9144ea667c26c0aa7cb35048c0c366bbcd694bff63388ac23aa0d00000000001976a9141f7457248569c0bc8d7008d9212b0260c265fd4e88ac10490800", "vin": [{"sequence": 4294967294, "scriptSig": {"hex": "483045022100cf5206763636a71c0be7d4a4e996f7a7d27a52c8d42e533ac581c52b6fd6e28d022028146ec5ad60a3f0d12cea042edf19207007e36cf8e310aa6d6417629cdb9f26012102aa6056c5ccb35d73a4fdca7f734788ce453f3c9a2c8798dd1a72554b4de8cc8b", "asm": "3045022100cf5206763636a71c0be7d4a4e996f7a7d27a52c8d42e533ac581c52b6fd6e28d022028146ec5ad60a3f0d12cea042edf19207007e36cf8e310aa6d6417629cdb9f26[ALL] 02aa6056c5ccb35d73a4fdca7f734788ce453f3c9a2c8798dd1a72554b4de8cc8b"}, "vout": 1, "txid": "d7d5bc930c85dd2696c34323f1e4a387b47d539cf2dc57827cfb6d8f747ce5db"}, {"sequence": 4294967294, "scriptSig": {"hex": "483045022100807c528ecbefee302596160873e2ac0836f1d87f6fd732e10ae5632b9ff81cf102207fce2382b2a4339122a6a892b47c94f6639189fbbe5ed2e132559823e45a8d220121027da8179be3d138e54cb6a5d23a781fa66aac32c70739dc748ad25c5c9d808ac0", "asm": "3045022100807c528ecbefee302596160873e2ac0836f1d87f6fd732e10ae5632b9ff81cf102207fce2382b2a4339122a6a892b47c94f6639189fbbe5ed2e132559823e45a8d22[ALL] 027da8179be3d138e54cb6a5d23a781fa66aac32c70739dc748ad25c5c9d808ac0"}, "vout": 0, "txid": "02265f3a776d881adee65d4a3ba9be76bbf6556602b54fb8ebcc20f0c52b3067"}, {"sequence": 4294967294, "scriptSig": {"hex": "48304502210082f83f05d48e6c339aaf03d455141162946fb037c904db861c2eb99e6b51bed302201df6c1db864f1692a814c21c17e6cde6611afb56fce995be7724b0ba86936ee3012103a239dd1025f93edced3fea314a873c6d5c7327dde4ee495728eeafcc2d8331d3", "asm": "304502210082f83f05d48e6c339aaf03d455141162946fb037c904db861c2eb99e6b51bed302201df6c1db864f1692a814c21c17e6cde6611afb56fce995be7724b0ba86936ee3[ALL] 03a239dd1025f93edced3fea314a873c6d5c7327dde4ee495728eeafcc2d8331d3"}, "vout": 1, "txid": "47ef93a74fd6b7184117e8299c69bfcb60b9c32600cd3639018d89da0d34df8c"}], "txid": "e39dfe7a9d4f9a42eb133d1fc0074781d85bc7a2c01f3fabe2fc54b21018c78a", "blocktime": 1537871767, "version": 2, "confirmations": 11490, "time": 1537871767, "locktime": 542992, "vsize": 522, "size": 522}