{"hash": "14da78e25676f84c005ed49d5aa0426bec46e8782d9616652597250f34661b45", "blockhash": "0000000000000000000baef3f32e3676a92c3b2e5da21b426e4f302fc371ce76", "vout": [{"scriptPubKey": {"reqSigs": 1, "hex": "76a9149bc3345f6e259fa4fe3a630ddc8eb91dd4c49dab88ac", "addresses": ["1FCbanaPzHNjV31PBKisfBqke4FtLkuuQR"], "asm": "OP_DUP OP_HASH160 9bc3345f6e259fa4fe3a630ddc8eb91dd4c49dab OP_EQUALVERIFY OP_CHECKSIG", "type": "pubkeyhash"}, "value": 0.8, "n": 0}, {"scriptPubKey": {"reqSigs": 1, "hex": "a91407e4021ca440e9c34ed07f5584e5976eaf16893187", "addresses": ["32QjoBFHrPpDwcvPTadEyYaPseQWzL8Fq9"], "asm": "OP_HASH160 07e4021ca440e9c34ed07f5584e5976eaf168931 OP_EQUAL", "type": "scripthash"}, "value": 18.13784436, "n": 1}], "hex": "0100000000010e3cb958cbc580d286144f2eb6a3c072e76d6523eebd4aa65bd6ff0bf1a41391711c00000017160014cab0db37e50de3a0eeb8b5ac3a3239bdc9d10ab9ffffffff3cb958cbc580d286144f2eb6a3c072e76d6523eebd4aa65bd6ff0bf1a41391714700000017160014b3007e8627f3eae1b9efbff8601df668304d35f7ffffffffb3a573a79add3a1b167ab08b0ffb2f7c918b92065773dccc5f30e9bf13a35c3e00000000171600146f130367743a13d1aea201b263c623572f05edb2ffffffff6243507215169e24387d324aa81ac3b4bc9e0d3b7ce269123c9fe76fa8f3e68a0000000017160014ba53b79b981c52861c2050fddd40f372a8617802ffffffff25dfc42c6f7f491049e77fc6992b04cf96d164ba9abc79fa2269f223802dc206000000001716001427f4f284d64143d1a5cac121acf00dafcd3e8b0bffffffff3d556e8bf4bf64a82ec406caa528c3b7e09e95da0df02f23308cf0efc7853d9303000000171600144a6056dbd3a9137d82506a36bf44393b24460c3cffffffff3d556e8bf4bf64a82ec406caa528c3b7e09e95da0df02f23308cf0efc7853d931000000017160014d26a32e21355ff6c350706767d8752341b6ca83affffffff33381377db9deb1dcbe3ea0b15859dda8ec43f6e215d12b2484ae403134382e40000000017160014ac927485eaa684bd52dcd10a0a3f14296b521ebfffffffff33381377db9deb1dcbe3ea0b15859dda8ec43f6e215d12b2484ae403134382e40200000017160014c8a4a7c1ea6daac6a1aaaf7fe59cdddd275cb8a8ffffffff3968ccd42f59c95d415a7e19302de31682aad1f2150630389596798d3167d5620100000017160014018d1327d68290d093c1ffcfceb1f391629be874ffffffff70404feb8f914578e9a8a1f9f7b1336917c177878b429a7fb3051326b15328290000000017160014ddabc741d941e8a92f60c90bc856ae4bf115f7ceffffffff4e5a1f84e96ca4d1950138b119a765852bd7ba44a40d212e2508c3a4c7f3353b0400000017160014cda793fa20d2efca37b6d1d8236f0ea11c646cceffffffff34433d5f26a8bcd1a0ddcb76d7771df5dda1f041a2e4465cc56f96ca7c958a7d0200000017160014000b814f2c1a19852357ed615a08ec572a781ed1ffffffff0f705ef82e8e98c29b0f6ed6494f2718ad744338f8f4cc7c2b4cc2fac75b43e5020000001716001480395b92d165fc1dc5470ffa0706ea66e15757b6ffffffff0200b4c404000000001976a9149bc3345f6e259fa4fe3a630ddc8eb91dd4c49dab88ac74271c6c0000000017a91407e4021ca440e9c34ed07f5584e5976eaf1689318702483045022100f8e3c6c924a6a20a2faad0346b7d0b08bf0487266e51e7ada8966b9e1b81c6d502201b459ce4e8c1dcbc1baf15738893863e84b360593abc9e0792214c2b045fcf040121032533b3f71bf62323dbba3faf029b8cf094ee8e0341d8d118338a6ce008578362024730440220403d3b086a6a22d4c45c874aa4727ef49b4b085ebac6c61daea6a7f0789f13ee02206441e1442047fa18fa9526412ed1b6ec8c2d37ef8d0c9d2f347b9280c9da399a01210390046c440b71b9fafc35d7d1684dc9ebdd52be44fd600b1e5e1007588f36f63802483045022100cc135d85f3fa42cc97b5e2d152684efdd80e7e4fbed7931f793440b3ed8bd45c022010424d97266d284c3696e52fb03fc2125a7bf0db42ef11ee5826eb5a0231dded01210240cef6b25ef449597c2f0e8b1133437255841d85596b27f85b4d8bf9d59471d702483045022100eb581738d3a0804f119e6709ed228ed09a3ec4292d640c753cefc0668730fd1d022019d24b654a0895f0688e4e379a80aeb087f928807c8f032275d2102c8b5ba7710121022b817f8ac8198e5dd51dcacf581624ef12e40a738a243dbe4a06dd558fe40a670247304402200148c23b91bf4c3d85245c60079ca201c73410d1e90d79f27353afa58b289ce202206c57f370b4b763bff1d43ebb48a94c858960ff0c67cff75dfb5d4a41cba5381b0121039cffe4d699f2aa962bdab93a6b62b205b9870555f4068b6a0ab148571cce25aa02483045022100f28ab3b9a12ca5766b693e166ec4e095d2eb0ce2bb8b9051b9c5447fcc871522022045e735b05886502f7f34fc2eb93fa1833c85f78597b0a4122af4a966eef2733a0121031e8d9b98ee7d8d91e77a16720eddee343f5551b92e1e8d9a4620fa95b87ea3de024730440220541ebc2a91021b5c117281f64964c9528b0cfa7fb0c8c48c8f97d08148d2e9e402205194a2a4bf83dc0e749d07b2dd4c6546aa856391b710cbd6dd9de0acfa2b93af01210289d6d1627c71e1b5dc77a517d88f228d3e8dce5ca72ef071824b7663cf11cc8c02483045022100b4451fb75ab2c716afe6e5368d4737ec695a1b2d3d7bc466a0d770aed8441bac02200355acbc6088f166455caf8f04a5524dfedc5c9a586ce237e881a4b70f2f980c01210297bf8cce249fb2402f2456c1d1ae918c9c16c1c35c3a92d456f7d5cc2f4fc3250247304402200642b3d6962affa3e4926392433049a5a8877b1f5cd726a6f68f3c65c60a491b02203e0d3c10380f61a42959c63ae0d1cf2e1eadc05784f7fec7a05c135701349e4f012102611719d02bb0406c07052c3a7ec55411f00e1628b66939b2af523863323523a10247304402200c484898abb7695df9671a1def46e8c8233050cbd3794e45b12d5e61ac67ef2d022025dad281fa3380c44e7e821d5c89e8938c605b76e41ededb79840843890b2f3f01210372bcfb08c29a505490b5b8489cc9c9c3989a06f2bc9c23f2dbe68a70410acdb802473044022043b9e5edc892cb190cfb04d7890ebd81f43c4169c05afd8dafe3e243916ac94b02202c37a90db9aa7bd6a39f264cdb06365afc91dfd8d3db0311439a5fac43a7719d012102ffa88cd123b937b3b29b9e7bb1ccc90670c03745bfa84bef19e90226dd5c70720247304402205f29908a8680ccf13adbeac032b5322e5e72cd29b66e8576ae5b2f15c367ed3b02206a0ba0df2430106a655b146b09d722b0abcb528ba99e02cbf3c47bdd77eb978b012102f31a30541cc65a88718a3eb6eabe7208d2bae8065e491ae1f607196ebdfe5a8e024730440220060ac5ec51ef2dfe15b451b668e6e0e3c19e4cc3d74ac640c594355330f7ff0f022075d2980514cc3e7b6ba6aaf2182788e97a08fc54e345db4b5c92bdbe7c6bb360012102aad79950b2c2af3689e8644c89e9d10dff06c2d8926200496b92e9f7ccb0304c0247304402202a3cf8bb14f8624e2fc6bc9f7e6ae67292e5d8c8f35834fa4aed2a3bdb575160022022212e17c655e74e78e5d2503961728d8ffa3929e7d7087fcd7624b7303084f0012103f166ff75d4382bb77a58c574ba3e426624712bf205c410af7858f842df68486a00000000", "vin": [{"txinwitness": ["3045022100f8e3c6c924a6a20a2faad0346b7d0b08bf0487266e51e7ada8966b9e1b81c6d502201b459ce4e8c1dcbc1baf15738893863e84b360593abc9e0792214c2b045fcf0401", "032533b3f71bf62323dbba3faf029b8cf094ee8e0341d8d118338a6ce008578362"], "sequence": 4294967295, "scriptSig": {"hex": "160014cab0db37e50de3a0eeb8b5ac3a3239bdc9d10ab9", "asm": "0014cab0db37e50de3a0eeb8b5ac3a3239bdc9d10ab9"}, "vout": 28, "txid": "719113a4f10bffd65ba64abdee23656de772c0a3b62e4f1486d280c5cb58b93c"}, {"txinwitness": ["30440220403d3b086a6a22d4c45c874aa4727ef49b4b085ebac6c61daea6a7f0789f13ee02206441e1442047fa18fa9526412ed1b6ec8c2d37ef8d0c9d2f347b9280c9da399a01", "0390046c440b71b9fafc35d7d1684dc9ebdd52be44fd600b1e5e1007588f36f638"], "sequence": 4294967295, "scriptSig": {"hex": "160014b3007e8627f3eae1b9efbff8601df668304d35f7", "asm": "0014b3007e8627f3eae1b9efbff8601df668304d35f7"}, "vout": 71, "txid": "719113a4f10bffd65ba64abdee23656de772c0a3b62e4f1486d280c5cb58b93c"}, {"txinwitness": ["3045022100cc135d85f3fa42cc97b5e2d152684efdd80e7e4fbed7931f793440b3ed8bd45c022010424d97266d284c3696e52fb03fc2125a7bf0db42ef11ee5826eb5a0231dded01", "0240cef6b25ef449597c2f0e8b1133437255841d85596b27f85b4d8bf9d59471d7"], "sequence": 4294967295, "scriptSig": {"hex": "1600146f130367743a13d1aea201b263c623572f05edb2", "asm": "00146f130367743a13d1aea201b263c623572f05edb2"}, "vout": 0, "txid": "3e5ca313bfe9305fccdc735706928b917c2ffb0f8bb07a161b3add9aa773a5b3"}, {"txinwitness": ["3045022100eb581738d3a0804f119e6709ed228ed09a3ec4292d640c753cefc0668730fd1d022019d24b654a0895f0688e4e379a80aeb087f928807c8f032275d2102c8b5ba77101", "022b817f8ac8198e5dd51dcacf581624ef12e40a738a243dbe4a06dd558fe40a67"], "sequence": 4294967295, "scriptSig": {"hex": "160014ba53b79b981c52861c2050fddd40f372a8617802", "asm": "0014ba53b79b981c52861c2050fddd40f372a8617802"}, "vout": 0, "txid": "8ae6f3a86fe79f3c1269e27c3b0d9ebcb4c31aa84a327d38249e161572504362"}, {"txinwitness": ["304402200148c23b91bf4c3d85245c60079ca201c73410d1e90d79f27353afa58b289ce202206c57f370b4b763bff1d43ebb48a94c858960ff0c67cff75dfb5d4a41cba5381b01", "039cffe4d699f2aa962bdab93a6b62b205b9870555f4068b6a0ab148571cce25aa"], "sequence": 4294967295, "scriptSig": {"hex": "16001427f4f284d64143d1a5cac121acf00dafcd3e8b0b", "asm": "001427f4f284d64143d1a5cac121acf00dafcd3e8b0b"}, "vout": 0, "txid": "06c22d8023f26922fa79bc9aba64d196cf042b99c67fe74910497f6f2cc4df25"}, {"txinwitness": ["3045022100f28ab3b9a12ca5766b693e166ec4e095d2eb0ce2bb8b9051b9c5447fcc871522022045e735b05886502f7f34fc2eb93fa1833c85f78597b0a4122af4a966eef2733a01", "031e8d9b98ee7d8d91e77a16720eddee343f5551b92e1e8d9a4620fa95b87ea3de"], "sequence": 4294967295, "scriptSig": {"hex": "1600144a6056dbd3a9137d82506a36bf44393b24460c3c", "asm": "00144a6056dbd3a9137d82506a36bf44393b24460c3c"}, "vout": 3, "txid": "933d85c7eff08c30232ff00dda959ee0b7c328a5ca06c42ea864bff48b6e553d"}, {"txinwitness": ["30440220541ebc2a91021b5c117281f64964c9528b0cfa7fb0c8c48c8f97d08148d2e9e402205194a2a4bf83dc0e749d07b2dd4c6546aa856391b710cbd6dd9de0acfa2b93af01", "0289d6d1627c71e1b5dc77a517d88f228d3e8dce5ca72ef071824b7663cf11cc8c"], "sequence": 4294967295, "scriptSig": {"hex": "160014d26a32e21355ff6c350706767d8752341b6ca83a", "asm": "0014d26a32e21355ff6c350706767d8752341b6ca83a"}, "vout": 16, "txid": "933d85c7eff08c30232ff00dda959ee0b7c328a5ca06c42ea864bff48b6e553d"}, {"txinwitness": ["3045022100b4451fb75ab2c716afe6e5368d4737ec695a1b2d3d7bc466a0d770aed8441bac02200355acbc6088f166455caf8f04a5524dfedc5c9a586ce237e881a4b70f2f980c01", "0297bf8cce249fb2402f2456c1d1ae918c9c16c1c35c3a92d456f7d5cc2f4fc325"], "sequence": 4294967295, "scriptSig": {"hex": "160014ac927485eaa684bd52dcd10a0a3f14296b521ebf", "asm": "0014ac927485eaa684bd52dcd10a0a3f14296b521ebf"}, "vout": 0, "txid": "e482431303e44a48b2125d216e3fc48eda9d85150beae3cb1deb9ddb77133833"}, {"txinwitness": ["304402200642b3d6962affa3e4926392433049a5a8877b1f5cd726a6f68f3c65c60a491b02203e0d3c10380f61a42959c63ae0d1cf2e1eadc05784f7fec7a05c135701349e4f01", "02611719d02bb0406c07052c3a7ec55411f00e1628b66939b2af523863323523a1"], "sequence": 4294967295, "scriptSig": {"hex": "160014c8a4a7c1ea6daac6a1aaaf7fe59cdddd275cb8a8", "asm": "0014c8a4a7c1ea6daac6a1aaaf7fe59cdddd275cb8a8"}, "vout": 2, "txid": "e482431303e44a48b2125d216e3fc48eda9d85150beae3cb1deb9ddb77133833"}, {"txinwitness": ["304402200c484898abb7695df9671a1def46e8c8233050cbd3794e45b12d5e61ac67ef2d022025dad281fa3380c44e7e821d5c89e8938c605b76e41ededb79840843890b2f3f01", "0372bcfb08c29a505490b5b8489cc9c9c3989a06f2bc9c23f2dbe68a70410acdb8"], "sequence": 4294967295, "scriptSig": {"hex": "160014018d1327d68290d093c1ffcfceb1f391629be874", "asm": "0014018d1327d68290d093c1ffcfceb1f391629be874"}, "vout": 1, "txid": "62d567318d79969538300615f2d1aa8216e32d30197e5a415dc9592fd4cc6839"}, {"txinwitness": ["3044022043b9e5edc892cb190cfb04d7890ebd81f43c4169c05afd8dafe3e243916ac94b02202c37a90db9aa7bd6a39f264cdb06365afc91dfd8d3db0311439a5fac43a7719d01", "02ffa88cd123b937b3b29b9e7bb1ccc90670c03745bfa84bef19e90226dd5c7072"], "sequence": 4294967295, "scriptSig": {"hex": "160014ddabc741d941e8a92f60c90bc856ae4bf115f7ce", "asm": "0014ddabc741d941e8a92f60c90bc856ae4bf115f7ce"}, "vout": 0, "txid": "292853b1261305b37f9a428b8777c1176933b1f7f9a1a8e97845918feb4f4070"}, {"txinwitness": ["304402205f29908a8680ccf13adbeac032b5322e5e72cd29b66e8576ae5b2f15c367ed3b02206a0ba0df2430106a655b146b09d722b0abcb528ba99e02cbf3c47bdd77eb978b01", "02f31a30541cc65a88718a3eb6eabe7208d2bae8065e491ae1f607196ebdfe5a8e"], "sequence": 4294967295, "scriptSig": {"hex": "160014cda793fa20d2efca37b6d1d8236f0ea11c646cce", "asm": "0014cda793fa20d2efca37b6d1d8236f0ea11c646cce"}, "vout": 4, "txid": "3b35f3c7a4c308252e210da444bad72b8565a719b1380195d1a46ce9841f5a4e"}, {"txinwitness": ["30440220060ac5ec51ef2dfe15b451b668e6e0e3c19e4cc3d74ac640c594355330f7ff0f022075d2980514cc3e7b6ba6aaf2182788e97a08fc54e345db4b5c92bdbe7c6bb36001", "02aad79950b2c2af3689e8644c89e9d10dff06c2d8926200496b92e9f7ccb0304c"], "sequence": 4294967295, "scriptSig": {"hex": "160014000b814f2c1a19852357ed615a08ec572a781ed1", "asm": "0014000b814f2c1a19852357ed615a08ec572a781ed1"}, "vout": 2, "txid": "7d8a957cca966fc55c46e4a241f0a1ddf51d77d776cbdda0d1bca8265f3d4334"}, {"txinwitness": ["304402202a3cf8bb14f8624e2fc6bc9f7e6ae67292e5d8c8f35834fa4aed2a3bdb575160022022212e17c655e74e78e5d2503961728d8ffa3929e7d7087fcd7624b7303084f001", "03f166ff75d4382bb77a58c574ba3e426624712bf205c410af7858f842df68486a"], "sequence": 4294967295, "scriptSig": {"hex": "16001480395b92d165fc1dc5470ffa0706ea66e15757b6", "asm": "001480395b92d165fc1dc5470ffa0706ea66e15757b6"}, "vout": 2, "txid": "e5435bc7fac24c2b7cccf4f8384374ad18274f49d66e0f9bc2988e2ef85e700f"}], "txid": "e39d7f087d60e02c90b6d46186464e79d6caeebaa2d4778982f0fe21bb9e715a", "blocktime": 1537876114, "version": 1, "confirmations": 11460, "time": 1537876114, "locktime": 0, "vsize": 1349, "size": 2477}