{"hash": "885a526f64c873b8aea209a3517bcf0f5b5a4588e7278522ee1735b8eba154ae", "blockhash": "0000000000000000000e13cef7c366c0283d82e591d1acd082e914b08063cdf1", "vout": [{"scriptPubKey": {"reqSigs": 1, "hex": "a914931010217c3885ec07e27157f129f5190a89613187", "addresses": ["3F6cVpY3zTdTngH952CaZq4Do9m3ofpxMw"], "asm": "OP_HASH160 931010217c3885ec07e27157f129f5190a896131 OP_EQUAL", "type": "scripthash"}, "value": 0.28393438, "n": 0}, {"scriptPubKey": {"reqSigs": 1, "hex": "76a914878d60e6907d2102c0af7d73e65032ba094a1c5488ac", "addresses": ["1DMjb3q2GfdwRoPQr1oWWV1hmyZx9dotTW"], "asm": "OP_DUP OP_HASH160 878d60e6907d2102c0af7d73e65032ba094a1c54 OP_EQUALVERIFY OP_CHECKSIG", "type": "pubkeyhash"}, "value": 0.0091979, "n": 1}], "hex": "01000000000101797d321a77c64ce598e8a5f1da8e4325f51b2aaaf339bea6ba70bccd102c5c510100000023220020e5f69f09ea0090b404d3cc22622fbe20c48a0cf0e858e00b30f75bf60f236bf2ffffffff02de3fb1010000000017a914931010217c3885ec07e27157f129f5190a89613187ee080e00000000001976a914878d60e6907d2102c0af7d73e65032ba094a1c5488ac04004730440220157b0fb949e832d50ce8f30694f9447b8c905dafa63a85ea0c263321aba634eb022021bbb4901f02dac736c7afddce7d6a66c92691d9dbcb8091268145087eec991f01473044022057c49101ad2487fea1d93a73cfdcf65fcae8274cdbf09a99c59079d22715cf66022014cbc4066c7cc338e19d7fb0292b3bd6a22ce7a6c34ef1229a1c59d4ac6840bd01695221030c06e66f1829cf28eb9106291279846aa5e1e80162a75924912b6809147f5e6b2102dad24896480102410fe49688ba5cc1f384e6ecfb0aff4b5f518eaf0b427bf3a52102e7f98adc0fc1344d532e1e5b145c4db049c7d4f022fe3602b716b9dbbbd384bf53ae00000000", "vin": [{"txinwitness": ["", "30440220157b0fb949e832d50ce8f30694f9447b8c905dafa63a85ea0c263321aba634eb022021bbb4901f02dac736c7afddce7d6a66c92691d9dbcb8091268145087eec991f01", "3044022057c49101ad2487fea1d93a73cfdcf65fcae8274cdbf09a99c59079d22715cf66022014cbc4066c7cc338e19d7fb0292b3bd6a22ce7a6c34ef1229a1c59d4ac6840bd01", "5221030c06e66f1829cf28eb9106291279846aa5e1e80162a75924912b6809147f5e6b2102dad24896480102410fe49688ba5cc1f384e6ecfb0aff4b5f518eaf0b427bf3a52102e7f98adc0fc1344d532e1e5b145c4db049c7d4f022fe3602b716b9dbbbd384bf53ae"], "sequence": 4294967295, "scriptSig": {"hex": "220020e5f69f09ea0090b404d3cc22622fbe20c48a0cf0e858e00b30f75bf60f236bf2", "asm": "0020e5f69f09ea0090b404d3cc22622fbe20c48a0cf0e858e00b30f75bf60f236bf2"}, "vout": 1, "txid": "515c2c10cdbc70baa6be39f3aa2a1bf525438edaf1a5e898e54cc6771a327d79"}], "txid": "e3a7d524c52b151a16265914a078deedf0c567c56493f8040af2e47bf11b7389", "blocktime": 1537871767, "version": 1, "confirmations": 11495, "time": 1537871767, "locktime": 0, "vsize": 216, "size": 406}