{"hash": "e3aa9e8d84f021f565cebe7849643c7cf15334e6e6a65b98060e00a3e1d89916", "blockhash": "00000000000000000004ffacab907a6b429b9a5745fa0b75af4234bf69dd7176", "vout": [{"scriptPubKey": {"reqSigs": 1, "hex": "a9148a5ea1eedfc411becf1ecf2149212b5c5d8812ab87", "addresses": ["3EJeYCdMVCNv1Y8ijB2drAgiYyPUaw8zCM"], "asm": "OP_HASH160 8a5ea1eedfc411becf1ecf2149212b5c5d8812ab OP_EQUAL", "type": "scripthash"}, "value": 0.00625309, "n": 0}, {"scriptPubKey": {"reqSigs": 1, "hex": "76a9147880213a19682ba1c1977b1e74e8ae9c62bca16688ac", "addresses": ["1Bz9adkrUMWVTwXuSjEYaUirSeySScdycg"], "asm": "OP_DUP OP_HASH160 7880213a19682ba1c1977b1e74e8ae9c62bca166 OP_EQUALVERIFY OP_CHECKSIG", "type": "pubkeyhash"}, "value": 0.00875826, "n": 1}], "hex": "01000000010ea1a26ce9adca1517f140c44d7bbb76feaccd4b60559a19bfa7af8e560ee25f000000006a473044022028cb3e4abadc059309a59510ce518baa100978e6d7c324c3c764522067647cfc0220739ba5c26165fa19c8a72b53b088f1abe4b17e2e673df6eee137a4e52c60f839012102109023010e4d47c1f0d84bb5a9d5897a485b1db70959638c2d02101ac2c6c887ffffffff029d8a09000000000017a9148a5ea1eedfc411becf1ecf2149212b5c5d8812ab87325d0d00000000001976a9147880213a19682ba1c1977b1e74e8ae9c62bca16688ac00000000", "vin": [{"sequence": 4294967295, "scriptSig": {"hex": "473044022028cb3e4abadc059309a59510ce518baa100978e6d7c324c3c764522067647cfc0220739ba5c26165fa19c8a72b53b088f1abe4b17e2e673df6eee137a4e52c60f839012102109023010e4d47c1f0d84bb5a9d5897a485b1db70959638c2d02101ac2c6c887", "asm": "3044022028cb3e4abadc059309a59510ce518baa100978e6d7c324c3c764522067647cfc0220739ba5c26165fa19c8a72b53b088f1abe4b17e2e673df6eee137a4e52c60f839[ALL] 02109023010e4d47c1f0d84bb5a9d5897a485b1db70959638c2d02101ac2c6c887"}, "vout": 0, "txid": "5fe20e568eafa7bf199a55604bcdacfe76bb7b4dc440f11715caade96ca2a10e"}], "txid": "e3aa9e8d84f021f565cebe7849643c7cf15334e6e6a65b98060e00a3e1d89916", "blocktime": 1537875543, "version": 1, "confirmations": 11464, "time": 1537875543, "locktime": 0, "vsize": 223, "size": 223}