{"hash": "e3aabea4b273267584ba0c36c7077fa97496701bf255faa3e0662c779c162f93", "blockhash": "0000000000000000001f76057863aec43deb6fa401d9628bb513d65a8098bfab", "vout": [{"scriptPubKey": {"reqSigs": 1, "hex": "76a91429c3ad5a6105b216c8dc731055cfcf6d47c7a8f488ac", "addresses": ["14oq7keQUX7z8qfZpPtsnVLuRzprU5AJ87"], "asm": "OP_DUP OP_HASH160 29c3ad5a6105b216c8dc731055cfcf6d47c7a8f4 OP_EQUALVERIFY OP_CHECKSIG", "type": "pubkeyhash"}, "value": 0.08902077, "n": 0}, {"scriptPubKey": {"reqSigs": 1, "hex": "76a9149a9101d0afb7a3b2095719f49d133ee88210e5b488ac", "addresses": ["1F6Gmp3mWfpcTHr5aiQ41tLz4u3juGnbzQ"], "asm": "OP_DUP OP_HASH160 9a9101d0afb7a3b2095719f49d133ee88210e5b4 OP_EQUALVERIFY OP_CHECKSIG", "type": "pubkeyhash"}, "value": 0.57213295, "n": 1}], "hex": "01000000014a9ccf7ea02ad6327dfbaee56272b4dc7e4109ec0285acb87de752ab63a69476000000006b483045022100cc3e464a18db2323113352a2cf74ae94c504c547c5f0349a5c58b64acc1e90770220149c6af6a0618291da932328b774902615d59672170237017f35c66c730a6b400121039054644219aac226348ce2e105a909c4e656b257dc9b0c42b5a4c62a2a824b4cfeffffff02bdd58700000000001976a91429c3ad5a6105b216c8dc731055cfcf6d47c7a8f488ac6f016903000000001976a9149a9101d0afb7a3b2095719f49d133ee88210e5b488acf0480800", "vin": [{"sequence": 4294967294, "scriptSig": {"hex": "483045022100cc3e464a18db2323113352a2cf74ae94c504c547c5f0349a5c58b64acc1e90770220149c6af6a0618291da932328b774902615d59672170237017f35c66c730a6b400121039054644219aac226348ce2e105a909c4e656b257dc9b0c42b5a4c62a2a824b4c", "asm": "3045022100cc3e464a18db2323113352a2cf74ae94c504c547c5f0349a5c58b64acc1e90770220149c6af6a0618291da932328b774902615d59672170237017f35c66c730a6b40[ALL] 039054644219aac226348ce2e105a909c4e656b257dc9b0c42b5a4c62a2a824b4c"}, "vout": 0, "txid": "7694a663ab52e77db8ac8502ec09417edcb47262e5aefb7d32d62aa07ecf9c4a"}], "txid": "e3aabea4b273267584ba0c36c7077fa97496701bf255faa3e0662c779c162f93", "blocktime": 1537873891, "version": 1, "confirmations": 11474, "time": 1537873891, "locktime": 542960, "vsize": 226, "size": 226}