{"hash": "e3ad7c84cf06a22c288e4e79510f99b5ae8163ebe2e1a86a68580a4882b00b22", "blockhash": "0000000000000000000e13cef7c366c0283d82e591d1acd082e914b08063cdf1", "vout": [{"scriptPubKey": {"reqSigs": 1, "hex": "76a91488b10e923ba601f0560a9e934079ba40e3c5debc88ac", "addresses": ["1DTm1DipgYM8bWJ3gqQ5dzDb1N56xDtTyZ"], "asm": "OP_DUP OP_HASH160 88b10e923ba601f0560a9e934079ba40e3c5debc OP_EQUALVERIFY OP_CHECKSIG", "type": "pubkeyhash"}, "value": 89.95906512, "n": 0}, {"scriptPubKey": {"reqSigs": 1, "hex": "a914c471358c085c4074ef3fb5394050d6b71fddfa0e87", "addresses": ["3Kbhz43unodbGsJf656PxGiUYcZgHJEGyQ"], "asm": "OP_HASH160 c471358c085c4074ef3fb5394050d6b71fddfa0e OP_EQUAL", "type": "scripthash"}, "value": 1.995, "n": 1}], "hex": "0200000001f18e3e08f3764f21b72eab2ff6a8b1c0fb576958d153bb5ec87c666902823be9010000006b483045022100817742c35d1c1013a0205ea59d0843d63a3b0944dee1f9041df989a95c24ddd2022052d5a5de2aa44144454d3dda9b6c05d339f9dee3e781867a4431cc7ea9e360c00121022a8d24d05737172cdfe63f03e312dca779d14183648a769b0a50282c4aa4d439ffffffff02d0a33218020000001976a91488b10e923ba601f0560a9e934079ba40e3c5debc88ace020e40b0000000017a914c471358c085c4074ef3fb5394050d6b71fddfa0e8700000000", "vin": [{"sequence": 4294967295, "scriptSig": {"hex": "483045022100817742c35d1c1013a0205ea59d0843d63a3b0944dee1f9041df989a95c24ddd2022052d5a5de2aa44144454d3dda9b6c05d339f9dee3e781867a4431cc7ea9e360c00121022a8d24d05737172cdfe63f03e312dca779d14183648a769b0a50282c4aa4d439", "asm": "3045022100817742c35d1c1013a0205ea59d0843d63a3b0944dee1f9041df989a95c24ddd2022052d5a5de2aa44144454d3dda9b6c05d339f9dee3e781867a4431cc7ea9e360c0[ALL] 022a8d24d05737172cdfe63f03e312dca779d14183648a769b0a50282c4aa4d439"}, "vout": 1, "txid": "e93b820269667cc85ebb53d1586957fbc0b1a8f62fab2eb7214f76f3083e8ef1"}], "txid": "e3ad7c84cf06a22c288e4e79510f99b5ae8163ebe2e1a86a68580a4882b00b22", "blocktime": 1537871767, "version": 2, "confirmations": 11490, "time": 1537871767, "locktime": 0, "vsize": 224, "size": 224}