{"hash": "7ff24fb3c7a2da4374dbe0ce7d091e54505e5418fd92b890e78db673fadcacfd", "blockhash": "0000000000000000001f76057863aec43deb6fa401d9628bb513d65a8098bfab", "vout": [{"scriptPubKey": {"reqSigs": 1, "hex": "76a914de9027b28909695b08eaaf48167f2137894232bd88ac", "addresses": ["1MHohf429Rqz5uLXvsX2YFNwp7PXVLy9x5"], "asm": "OP_DUP OP_HASH160 de9027b28909695b08eaaf48167f2137894232bd OP_EQUALVERIFY OP_CHECKSIG", "type": "pubkeyhash"}, "value": 0.00233893, "n": 0}, {"scriptPubKey": {"reqSigs": 1, "hex": "00147f50e0b902f3c03d92d5f3e1b6b3892a3494f82b", "addresses": ["bc1q0agwpwgz70qrmyk470smdvuf9g6ff7pt3mvfj4"], "asm": "0 7f50e0b902f3c03d92d5f3e1b6b3892a3494f82b", "type": "witness_v0_keyhash"}, "value": 1.093e-05, "n": 1}], "hex": "010000000001014fe2f555295fbd864ccc4cce67094b2af0a6f0472098ed10721c103808f9d3f201000000171600145dc5bff2ef14c4d13523270749314493679c7198ffffffff02a5910300000000001976a914de9027b28909695b08eaaf48167f2137894232bd88ac45040000000000001600147f50e0b902f3c03d92d5f3e1b6b3892a3494f82b0247304402202a307e43efc97e730046096cf4796576d84d3788f9596d23602fb298b91c945b02204f4ad6fc541052a36f9a2637f19f0df6c3c8adea42eaac49f50a0721056939df01210235bc6b2e6debdabb88cd7d9626a5fe8215887aa301052f7481f4706e06268e0c00000000", "vin": [{"txinwitness": ["304402202a307e43efc97e730046096cf4796576d84d3788f9596d23602fb298b91c945b02204f4ad6fc541052a36f9a2637f19f0df6c3c8adea42eaac49f50a0721056939df01", "0235bc6b2e6debdabb88cd7d9626a5fe8215887aa301052f7481f4706e06268e0c"], "sequence": 4294967295, "scriptSig": {"hex": "1600145dc5bff2ef14c4d13523270749314493679c7198", "asm": "00145dc5bff2ef14c4d13523270749314493679c7198"}, "vout": 1, "txid": "f2d3f90838101c7210ed982047f0a6f02a4b0967ce4ccc4c86bd5f2955f5e24f"}], "txid": "e3ae3a3cd03218ac0e1341320381aa98414e663b4641b60dec15654fc9477269", "blocktime": 1537873891, "version": 1, "confirmations": 11478, "time": 1537873891, "locktime": 0, "vsize": 167, "size": 248}