{"hash": "e3afa7d755e530ebd0d9042b22188da8815ab1e87ffcfa5bb73bbfd235ad3591", "blockhash": "0000000000000000001f0ddff1eddb255c1121bcd4da4f1bc9a0da00cae72433", "vout": [{"scriptPubKey": {"reqSigs": 1, "hex": "a91412c6850030ecef444c9b7d40217de6632284ca1987", "addresses": ["33QHuNkGsmMfUAyGeSZnfq3XUnkyrwR6Tn"], "asm": "OP_HASH160 12c6850030ecef444c9b7d40217de6632284ca19 OP_EQUAL", "type": "scripthash"}, "value": 0.00561676, "n": 0}, {"scriptPubKey": {"reqSigs": 1, "hex": "a914720c6da9ab6d731f6e2aa0cbdf9f2453e09a45b187", "addresses": ["3C63qx6UyCSji9GDTPFu3JFTSnLKtZo91r"], "asm": "OP_HASH160 720c6da9ab6d731f6e2aa0cbdf9f2453e09a45b1 OP_EQUAL", "type": "scripthash"}, "value": 0.21394069, "n": 1}], "hex": "0100000001ca0d0859751c72899e59d887b45fcccc0e620053338a67090bf2c3f4d012f46701000000da00473044022006dbe678a6a0d6a91e7f4cde67459b0a4da0cf4d195171d44b7b69f1749f9d7402200ee02e1b8acfc5a773a36fa809cd0341ba252d71b71ea5a0599436aa265f0fe701483045022100a806530aebf31e62442d923f9ebc818a2fff1b821bf2742701788c8c4f603de602204f2841e943ef96ce74f5e865b2957158cb647e07b93abb16a91259d3425584ec0147522103f2d250ed5140d655fe49f9b9f857ff223c9290b9bbe8b68a50d522cf45e633702102045f2de7b3abee8ca375163a8879a6719ef3e6d7ffc88aa3008e11b5b89eb7ee52aeffffffff020c9208000000000017a91412c6850030ecef444c9b7d40217de6632284ca1987957246010000000017a914720c6da9ab6d731f6e2aa0cbdf9f2453e09a45b18700000000", "vin": [{"sequence": 4294967295, "scriptSig": {"hex": "00473044022006dbe678a6a0d6a91e7f4cde67459b0a4da0cf4d195171d44b7b69f1749f9d7402200ee02e1b8acfc5a773a36fa809cd0341ba252d71b71ea5a0599436aa265f0fe701483045022100a806530aebf31e62442d923f9ebc818a2fff1b821bf2742701788c8c4f603de602204f2841e943ef96ce74f5e865b2957158cb647e07b93abb16a91259d3425584ec0147522103f2d250ed5140d655fe49f9b9f857ff223c9290b9bbe8b68a50d522cf45e633702102045f2de7b3abee8ca375163a8879a6719ef3e6d7ffc88aa3008e11b5b89eb7ee52ae", "asm": "0 3044022006dbe678a6a0d6a91e7f4cde67459b0a4da0cf4d195171d44b7b69f1749f9d7402200ee02e1b8acfc5a773a36fa809cd0341ba252d71b71ea5a0599436aa265f0fe7[ALL] 3045022100a806530aebf31e62442d923f9ebc818a2fff1b821bf2742701788c8c4f603de602204f2841e943ef96ce74f5e865b2957158cb647e07b93abb16a91259d3425584ec[ALL] 522103f2d250ed5140d655fe49f9b9f857ff223c9290b9bbe8b68a50d522cf45e633702102045f2de7b3abee8ca375163a8879a6719ef3e6d7ffc88aa3008e11b5b89eb7ee52ae"}, "vout": 1, "txid": "67f412d0f4c3f20b09678a335300620ecccc5fb487d8599e89721c7559080dca"}], "txid": "e3afa7d755e530ebd0d9042b22188da8815ab1e87ffcfa5bb73bbfd235ad3591", "blocktime": 1537872018, "version": 1, "confirmations": 11489, "time": 1537872018, "locktime": 0, "vsize": 333, "size": 333}