{"hash": "e3b02309d3b56d61a4c357f07c22f5fe38a3e9b45c112a2e93b293b18c6ebe91", "blockhash": "00000000000000000017f5eb5941039fbcee6240d03bc1f2f8e35350df66a1d8", "vout": [{"scriptPubKey": {"reqSigs": 1, "hex": "a914da6b69b008af339def1d123289a3927955a653eb87", "addresses": ["3MbuuY9msjm2Uu2H9wGpxFi3boCQuDhBNA"], "asm": "OP_HASH160 da6b69b008af339def1d123289a3927955a653eb OP_EQUAL", "type": "scripthash"}, "value": 0.71963709, "n": 0}], "hex": "0100000001aa943c051bce9c5f8f9849c318feabbdf326922a0d938e7863ee9b91c2768f52000000006a47304402204b686caed5c0dd617d189a099070edc33ab1756b12b7664bf66e803865fe4ea5022015b9119a16fb25768e90289d4ef99edac57ae521e1318d99733530d9838bdae10121034cbfe1279f3c14ddb1ee340c917e82eacb19e2a1f16ca0ce03f3ae4721e231e2fdffffff013d144a040000000017a914da6b69b008af339def1d123289a3927955a653eb8726990700", "vin": [{"sequence": 4294967293, "scriptSig": {"hex": "47304402204b686caed5c0dd617d189a099070edc33ab1756b12b7664bf66e803865fe4ea5022015b9119a16fb25768e90289d4ef99edac57ae521e1318d99733530d9838bdae10121034cbfe1279f3c14ddb1ee340c917e82eacb19e2a1f16ca0ce03f3ae4721e231e2", "asm": "304402204b686caed5c0dd617d189a099070edc33ab1756b12b7664bf66e803865fe4ea5022015b9119a16fb25768e90289d4ef99edac57ae521e1318d99733530d9838bdae1[ALL] 034cbfe1279f3c14ddb1ee340c917e82eacb19e2a1f16ca0ce03f3ae4721e231e2"}, "vout": 0, "txid": "528f76c2919bee63788e930d2a9226f3bdabfe18c349988f5f9cce1b053c94aa"}], "txid": "e3b02309d3b56d61a4c357f07c22f5fe38a3e9b45c112a2e93b293b18c6ebe91", "blocktime": 1537874412, "version": 1, "confirmations": 11467, "time": 1537874412, "locktime": 497958, "vsize": 189, "size": 189}