{"hash": "e3b17ea83aa15473b7ffd0cbf5de04da4ab672dfc6d54a817f377ee7a97f04a5", "blockhash": "0000000000000000001e0dab787dd257d1dbfcb92a98c2207d5e1078be1f4165", "vout": [{"scriptPubKey": {"reqSigs": 1, "hex": "76a914c5b7cfbf1d1d147faec0cae307ea4f2a0fdff5d188ac", "addresses": ["1K2SKEpJgUDBV3BmgAgAxpDzz3AikhG98Z"], "asm": "OP_DUP OP_HASH160 c5b7cfbf1d1d147faec0cae307ea4f2a0fdff5d1 OP_EQUALVERIFY OP_CHECKSIG", "type": "pubkeyhash"}, "value": 0.00403, "n": 0}, {"scriptPubKey": {"reqSigs": 1, "hex": "76a914288c4a08dde423447849b9d133d6f7d5d3d89bf388ac", "addresses": ["14hQ68ymRYUThNMSJwEG2oeGWbf7Js1RvP"], "asm": "OP_DUP OP_HASH160 288c4a08dde423447849b9d133d6f7d5d3d89bf3 OP_EQUALVERIFY OP_CHECKSIG", "type": "pubkeyhash"}, "value": 0.10288033, "n": 1}], "hex": "0100000001ac010e6151223cffbee51e38ce818c963f2bb3f348bc4980df0802b0c187e9dd010000006a473044022000ef34bef9591a783575c12fa81215eb3f0be27a1d8f6f2f925bf0f352f950f9022013b164726616316062b911c689fd047490fc33ea19388fe3df0708b3033f0e0101210249e4b7555af69239d9ce85be8092e4d3a3a57bbb593af42ab80600e74a63ea46fdffffff0238260600000000001976a914c5b7cfbf1d1d147faec0cae307ea4f2a0fdff5d188aca1fb9c00000000001976a914288c4a08dde423447849b9d133d6f7d5d3d89bf388ac12490800", "vin": [{"sequence": 4294967293, "scriptSig": {"hex": "473044022000ef34bef9591a783575c12fa81215eb3f0be27a1d8f6f2f925bf0f352f950f9022013b164726616316062b911c689fd047490fc33ea19388fe3df0708b3033f0e0101210249e4b7555af69239d9ce85be8092e4d3a3a57bbb593af42ab80600e74a63ea46", "asm": "3044022000ef34bef9591a783575c12fa81215eb3f0be27a1d8f6f2f925bf0f352f950f9022013b164726616316062b911c689fd047490fc33ea19388fe3df0708b3033f0e01[ALL] 0249e4b7555af69239d9ce85be8092e4d3a3a57bbb593af42ab80600e74a63ea46"}, "vout": 1, "txid": "dde987c1b00208df8049bc48f3b32b3f968c81ce381ee5beff3c2251610e01ac"}], "txid": "e3b17ea83aa15473b7ffd0cbf5de04da4ab672dfc6d54a817f377ee7a97f04a5", "blocktime": 1537872475, "version": 1, "confirmations": 11486, "time": 1537872475, "locktime": 542994, "vsize": 225, "size": 225}