{"hash": "e3b20d89b36a355e65dbf4a461651433bfd1bd0df8b73a6ce766832b67d6b61e", "blockhash": "0000000000000000001f0ddff1eddb255c1121bcd4da4f1bc9a0da00cae72433", "vout": [{"scriptPubKey": {"reqSigs": 1, "hex": "76a9145a5e5b8075a6e6c1d454d244fd6532116807fd8988ac", "addresses": ["19EprLN1j33jLr5UaeUQdCBaPU7xWmaJZG"], "asm": "OP_DUP OP_HASH160 5a5e5b8075a6e6c1d454d244fd6532116807fd89 OP_EQUALVERIFY OP_CHECKSIG", "type": "pubkeyhash"}, "value": 0.00264211, "n": 0}, {"scriptPubKey": {"reqSigs": 1, "hex": "76a9142fa1c4ddf56885daee45326bad44d5b823bfa2c188ac", "addresses": ["15LrYvbQMG22xs9fFL9Cby39mDkwhE9Gzx"], "asm": "OP_DUP OP_HASH160 2fa1c4ddf56885daee45326bad44d5b823bfa2c1 OP_EQUALVERIFY OP_CHECKSIG", "type": "pubkeyhash"}, "value": 0.05356697, "n": 1}], "hex": "0100000001bf15622e9e9e960388b82b8f53ba690542873c49be2147ee2445583457aa9aa2010000006a47304402203d67f57be79383f46437137e80d9311b14269a7475b473dfd4f6f9e242c69cb202204044880b8a1c1158255401ba722c861189a0dace0102df676f1d967f32cb9b02012103207ddc147b9968d2685d38a15c8a362efc29c6d36ff0531bcf05d6385223b324ffffffff0213080400000000001976a9145a5e5b8075a6e6c1d454d244fd6532116807fd8988ac99bc5100000000001976a9142fa1c4ddf56885daee45326bad44d5b823bfa2c188ac00000000", "vin": [{"sequence": 4294967295, "scriptSig": {"hex": "47304402203d67f57be79383f46437137e80d9311b14269a7475b473dfd4f6f9e242c69cb202204044880b8a1c1158255401ba722c861189a0dace0102df676f1d967f32cb9b02012103207ddc147b9968d2685d38a15c8a362efc29c6d36ff0531bcf05d6385223b324", "asm": "304402203d67f57be79383f46437137e80d9311b14269a7475b473dfd4f6f9e242c69cb202204044880b8a1c1158255401ba722c861189a0dace0102df676f1d967f32cb9b02[ALL] 03207ddc147b9968d2685d38a15c8a362efc29c6d36ff0531bcf05d6385223b324"}, "vout": 1, "txid": "a29aaa5734584524ee4721be493c87420569ba538f2bb88803969e9e2e6215bf"}], "txid": "e3b20d89b36a355e65dbf4a461651433bfd1bd0df8b73a6ce766832b67d6b61e", "blocktime": 1537872018, "version": 1, "confirmations": 11489, "time": 1537872018, "locktime": 0, "vsize": 225, "size": 225}