{"hash": "47af12e9ce85642b56ecfcfd604ebdb354f7d081db9b8452848cabe1905296e7", "blockhash": "000000000000000000022b45ed06c6f4ccd3cf7fb5ba4856ebd2e58215665228", "vout": [{"scriptPubKey": {"reqSigs": 1, "hex": "a914c8ff43b35933915bad9c2a4e67e467fa8325f33387", "addresses": ["3L1nrzfszK4R2V65TfFjhskmLDedm2wcnE"], "asm": "OP_HASH160 c8ff43b35933915bad9c2a4e67e467fa8325f333 OP_EQUAL", "type": "scripthash"}, "value": 0.13624783, "n": 0}, {"scriptPubKey": {"reqSigs": 1, "hex": "a91441e967cbb52a3e5946e1f5066b32989175ff233e87", "addresses": ["37hXTJoru2MsauV7dYwczAHSwyPDukJUb6"], "asm": "OP_HASH160 41e967cbb52a3e5946e1f5066b32989175ff233e OP_EQUAL", "type": "scripthash"}, "value": 0.01004693, "n": 1}], "hex": "01000000000101a4e24614b0b66a5536861e1d8eceeaa3fde5466b96b5a96b4af5c8e19c093b940300000023220020cb18645f6bc25033087a9b5aed5acc3f34d59632b374c74026a278263d171a9effffffff02cfe5cf000000000017a914c8ff43b35933915bad9c2a4e67e467fa8325f3338795540f000000000017a91441e967cbb52a3e5946e1f5066b32989175ff233e870400483045022100908df5598d6d2d774ed78e1180e94ca10c36faab783d7b51a34384bd8066ee7e02201a328777bf14657edb67a89552deae48322f4aee7bdbaf0eece941521113b92401483045022100c8bb1d86f56086b2872ad81ba5fe464f1ad3835775efbfe3142d2d02d90afa44022033f0dab45263e519aa1d49b786d498e0bf8cc67ed71b4e24e5e6c7a7484b3ffb01695221036bc75bca83961391d4534198ac5d991c1a9437e284ddfe45f8ae0040061eca592102f02c1240ecb648d56e7dfc11610ae60e70e71c4ca44c4a42a81249a1a114c1fe210353f023971b267a42cd867682e59e556c058ce646cb00789af47da3d86e06d5b453ae00000000", "vin": [{"txinwitness": ["", "3045022100908df5598d6d2d774ed78e1180e94ca10c36faab783d7b51a34384bd8066ee7e02201a328777bf14657edb67a89552deae48322f4aee7bdbaf0eece941521113b92401", "3045022100c8bb1d86f56086b2872ad81ba5fe464f1ad3835775efbfe3142d2d02d90afa44022033f0dab45263e519aa1d49b786d498e0bf8cc67ed71b4e24e5e6c7a7484b3ffb01", "5221036bc75bca83961391d4534198ac5d991c1a9437e284ddfe45f8ae0040061eca592102f02c1240ecb648d56e7dfc11610ae60e70e71c4ca44c4a42a81249a1a114c1fe210353f023971b267a42cd867682e59e556c058ce646cb00789af47da3d86e06d5b453ae"], "sequence": 4294967295, "scriptSig": {"hex": "220020cb18645f6bc25033087a9b5aed5acc3f34d59632b374c74026a278263d171a9e", "asm": "0020cb18645f6bc25033087a9b5aed5acc3f34d59632b374c74026a278263d171a9e"}, "vout": 3, "txid": "943b099ce1c8f54a6ba9b5966b46e5fda3eace8e1d1e8636556ab6b01446e2a4"}], "txid": "e3b59bc7c2ae88dbdb596868b458984958ab335fe151eab2f127c0ffcfc69391", "blocktime": 1537869901, "version": 1, "confirmations": 11524, "time": 1537869901, "locktime": 0, "vsize": 214, "size": 406}