{"hash": "4ee546821acf0350dacda4def530d58e64655f5bccc1dff7d7752ef26d49a336", "blockhash": "0000000000000000001f76057863aec43deb6fa401d9628bb513d65a8098bfab", "vout": [{"scriptPubKey": {"reqSigs": 1, "hex": "a9145ca36650f88e22921e0e327a083996b0a2c339f787", "addresses": ["3A8qqQBRw1QCoGF7T65CbTMyQsdqvgQsN1"], "asm": "OP_HASH160 5ca36650f88e22921e0e327a083996b0a2c339f7 OP_EQUAL", "type": "scripthash"}, "value": 0.01001242, "n": 0}, {"scriptPubKey": {"reqSigs": 1, "hex": "76a9146598b27d83e349238d487fcac2ffbdb4879cbe7788ac", "addresses": ["1AGCAxvkBmbadWocb3mPoZqhLvJBbdAtRC"], "asm": "OP_DUP OP_HASH160 6598b27d83e349238d487fcac2ffbdb4879cbe77 OP_EQUALVERIFY OP_CHECKSIG", "type": "pubkeyhash"}, "value": 0.0046606, "n": 1}], "hex": "02000000000102305ee7ef07e6d1de43e93f356f4ada5879bd9df329533ac27c5918860d13de9905000000171600145e47cb9290370f4facc07fa36255c1de14fcb923feffffff5c11721cdaeff7f174631261f7395e46bcd1d94a2c0d68d3fbe60c138ce84c7401000000171600145bc53f26a01e534409c63257bd32079026926202feffffff021a470f000000000017a9145ca36650f88e22921e0e327a083996b0a2c339f7878c1c0700000000001976a9146598b27d83e349238d487fcac2ffbdb4879cbe7788ac02473044022048383b668d3bb88d50316686c6660c3667124e025fbb6a35bbb163e1e271d0730220442b35621d0ce69474311a646f10a4facc0543051eecf59f52a8d4ac83624efd0121030bff95396f3c8214567f2193d96772ba61e0744f92026724cdc406822f1e6da40247304402206bafea308f81ea465226e3480eb53cf358de8e860eb44bd6523af7d90589a97e022065c7675a4806187a47acb00cca55a553a4c55191717a152aef91066a6d301a7b01210349cacad3a3595aea20a4724be3b3384bbe8341f6b2e85d27b0405c61f1bd5ef414490800", "vin": [{"txinwitness": ["3044022048383b668d3bb88d50316686c6660c3667124e025fbb6a35bbb163e1e271d0730220442b35621d0ce69474311a646f10a4facc0543051eecf59f52a8d4ac83624efd01", "030bff95396f3c8214567f2193d96772ba61e0744f92026724cdc406822f1e6da4"], "sequence": 4294967294, "scriptSig": {"hex": "1600145e47cb9290370f4facc07fa36255c1de14fcb923", "asm": "00145e47cb9290370f4facc07fa36255c1de14fcb923"}, "vout": 5, "txid": "99de130d8618597cc23a5329f39dbd7958da4a6f353fe943ded1e607efe75e30"}, {"txinwitness": ["304402206bafea308f81ea465226e3480eb53cf358de8e860eb44bd6523af7d90589a97e022065c7675a4806187a47acb00cca55a553a4c55191717a152aef91066a6d301a7b01", "0349cacad3a3595aea20a4724be3b3384bbe8341f6b2e85d27b0405c61f1bd5ef4"], "sequence": 4294967294, "scriptSig": {"hex": "1600145bc53f26a01e534409c63257bd32079026926202", "asm": "00145bc53f26a01e534409c63257bd32079026926202"}, "vout": 1, "txid": "744ce88c130ce6fbd3680d2c4ad9d1bc465e39f761126374f1f7efda1c72115c"}], "txid": "e3bcb5685d0b2fafd0a1c3465cc61fc8eca6af9950e48206f7e749fa20afea1c", "blocktime": 1537873891, "version": 2, "confirmations": 11478, "time": 1537873891, "locktime": 542996, "vsize": 258, "size": 420}