{"hash": "317eb210aa91e1b8ebc8608829085310177067ad7b9865cf1987eafb99c4028d", "blockhash": "00000000000000000004ffacab907a6b429b9a5745fa0b75af4234bf69dd7176", "vout": [{"scriptPubKey": {"reqSigs": 1, "hex": "76a914477cff2be2811e0c960b775ecda2a5b5afc79bb388ac", "addresses": ["17WziYkEtaaVxQ4LKPaESZXoKM2JpshNDC"], "asm": "OP_DUP OP_HASH160 477cff2be2811e0c960b775ecda2a5b5afc79bb3 OP_EQUALVERIFY OP_CHECKSIG", "type": "pubkeyhash"}, "value": 0.06416, "n": 0}, {"scriptPubKey": {"reqSigs": 1, "hex": "a914ea645e5e20987adfaa9d5fa4a915d008965f102387", "addresses": ["3P4NHAbib3uvj6QNYmPWqEJMZnx4HzszTp"], "asm": "OP_HASH160 ea645e5e20987adfaa9d5fa4a915d008965f1023 OP_EQUAL", "type": "scripthash"}, "value": 0.01000895, "n": 1}], "hex": "0200000000010622babfda5229e5c8fca56216932fbd20750996f8f3a4b903ffe730710bb3173803000000171600147a3c8a30c27b7112cc62befb158c104ebed2ec3effffffff140c38cf7229d849616a0385fd576447dc5bf53386e30fab447f3e4612afcbf215000000171600143d778168caf87eb20a137d68e66dec75121788cfffffffff5134e6b126a160e35a88fcc9e704ee382d5a944c099c138ec97acc18c1791cc01d0000001716001421b949fab3eac445a1fd47f2afc7edd96db445b6ffffffff5134e6b126a160e35a88fcc9e704ee382d5a944c099c138ec97acc18c1791cc00800000017160014a1576420cad6161c2c4e885e93f29b8d45275774ffffffff140c38cf7229d849616a0385fd576447dc5bf53386e30fab447f3e4612afcbf20a00000017160014579b3c5af9e6687003eb87a762da7c2cb5f67415ffffffff94d83f5c734bcff77560ed3bc0ffc01c09c60d064f2042301ce9a5a0bdaad12b0100000017160014452870843ad2f4d50d277936c2a4b6663c60d322ffffffff0280e66100000000001976a914477cff2be2811e0c960b775ecda2a5b5afc79bb388acbf450f000000000017a914ea645e5e20987adfaa9d5fa4a915d008965f102387024830450221008470b4a4fbe038e22ebc7edc208662c447bd626d4d3125a83363433c270a8fef02203eaab253b9d9985baeb9ffaacd8455c3703a8df57315fd2df0bce6f05d2468df012102817dd699fd607b418ca16de4e6ed813cf2c58caa84960ae8d149b8b8d3b6ea900247304402202ec23aa674d3fec91240ba02bb01f392f3ed0844ab73c08b4cf713cbea7d7848022073609284173969a00ce973fa62fd025bea8201e9c615b5e93e16a6a147467981012102c131d781313ff2e2666a55c0e85f1d4776417f4ea7eb5076efebec4096744b5802473044022054598e69071ef7062cfd8a96883ecd1a06870da6fdc2291ae3ff5f0df22e74ce02205898a1893a33fecb5eef214e72d23228e6ca107556eee83432f80c245b6ed21c012103cf716e99019c1d669353fa7953343f79008ace0c426d60671e9134f3cca0a1c002483045022100ddaa29a67ec54c5a652b1baaa75ca46b89f97efeafb7caa1cbc9e2e9d5fe3164022024096a7f87afceb1ae5ade8a1ce60cdaab700abf4b67a75afb14403b700af2ea0121034af3b660eeffc05de7b589180d15eaf8be935b596f20e382ce022e5055d14d3d02483045022100983c0bdc902d5d54ae04f20cd9f4fb7aa376bbc101bad961d2287a799e2630a302205d4131c130ce47396df6051e9b0bdd95397eab9c56fba2262aa1912645cb4a210121034d68502ac6ddb7f5fa5525a5111f68e7695ea7d37bdb08afd3b7d0f9ad0d341602483045022100c0d7d0f759c899391692fdc3697587445eb93f3b75214c6238c67455d10f077702206e8c398e72b1c3649a47a8349de866be485e47e032db2a59426c8bbb64b7a02c012103af74fd5b542b3d72ede4f7b0f4e35e638cecfc5d32b2f74c2d9864acdbbdb25500000000", "vin": [{"txinwitness": ["30450221008470b4a4fbe038e22ebc7edc208662c447bd626d4d3125a83363433c270a8fef02203eaab253b9d9985baeb9ffaacd8455c3703a8df57315fd2df0bce6f05d2468df01", "02817dd699fd607b418ca16de4e6ed813cf2c58caa84960ae8d149b8b8d3b6ea90"], "sequence": 4294967295, "scriptSig": {"hex": "1600147a3c8a30c27b7112cc62befb158c104ebed2ec3e", "asm": "00147a3c8a30c27b7112cc62befb158c104ebed2ec3e"}, "vout": 3, "txid": "3817b30b7130e7ff03b9a4f3f896097520bd2f931662a5fcc8e52952dabfba22"}, {"txinwitness": ["304402202ec23aa674d3fec91240ba02bb01f392f3ed0844ab73c08b4cf713cbea7d7848022073609284173969a00ce973fa62fd025bea8201e9c615b5e93e16a6a14746798101", "02c131d781313ff2e2666a55c0e85f1d4776417f4ea7eb5076efebec4096744b58"], "sequence": 4294967295, "scriptSig": {"hex": "1600143d778168caf87eb20a137d68e66dec75121788cf", "asm": "00143d778168caf87eb20a137d68e66dec75121788cf"}, "vout": 21, "txid": "f2cbaf12463e7f44ab0fe38633f55bdc476457fd85036a6149d82972cf380c14"}, {"txinwitness": ["3044022054598e69071ef7062cfd8a96883ecd1a06870da6fdc2291ae3ff5f0df22e74ce02205898a1893a33fecb5eef214e72d23228e6ca107556eee83432f80c245b6ed21c01", "03cf716e99019c1d669353fa7953343f79008ace0c426d60671e9134f3cca0a1c0"], "sequence": 4294967295, "scriptSig": {"hex": "16001421b949fab3eac445a1fd47f2afc7edd96db445b6", "asm": "001421b949fab3eac445a1fd47f2afc7edd96db445b6"}, "vout": 29, "txid": "c01c79c118cc7ac98e139c094c945a2d38ee04e7c9fc885ae360a126b1e63451"}, {"txinwitness": ["3045022100ddaa29a67ec54c5a652b1baaa75ca46b89f97efeafb7caa1cbc9e2e9d5fe3164022024096a7f87afceb1ae5ade8a1ce60cdaab700abf4b67a75afb14403b700af2ea01", "034af3b660eeffc05de7b589180d15eaf8be935b596f20e382ce022e5055d14d3d"], "sequence": 4294967295, "scriptSig": {"hex": "160014a1576420cad6161c2c4e885e93f29b8d45275774", "asm": "0014a1576420cad6161c2c4e885e93f29b8d45275774"}, "vout": 8, "txid": "c01c79c118cc7ac98e139c094c945a2d38ee04e7c9fc885ae360a126b1e63451"}, {"txinwitness": ["3045022100983c0bdc902d5d54ae04f20cd9f4fb7aa376bbc101bad961d2287a799e2630a302205d4131c130ce47396df6051e9b0bdd95397eab9c56fba2262aa1912645cb4a2101", "034d68502ac6ddb7f5fa5525a5111f68e7695ea7d37bdb08afd3b7d0f9ad0d3416"], "sequence": 4294967295, "scriptSig": {"hex": "160014579b3c5af9e6687003eb87a762da7c2cb5f67415", "asm": "0014579b3c5af9e6687003eb87a762da7c2cb5f67415"}, "vout": 10, "txid": "f2cbaf12463e7f44ab0fe38633f55bdc476457fd85036a6149d82972cf380c14"}, {"txinwitness": ["3045022100c0d7d0f759c899391692fdc3697587445eb93f3b75214c6238c67455d10f077702206e8c398e72b1c3649a47a8349de866be485e47e032db2a59426c8bbb64b7a02c01", "03af74fd5b542b3d72ede4f7b0f4e35e638cecfc5d32b2f74c2d9864acdbbdb255"], "sequence": 4294967295, "scriptSig": {"hex": "160014452870843ad2f4d50d277936c2a4b6663c60d322", "asm": "0014452870843ad2f4d50d277936c2a4b6663c60d322"}, "vout": 1, "txid": "2bd1aabda0a5e91c3042204f060dc6091cc0ffc03bed6075f7cf4b735c3fd894"}], "txid": "e3be519a323aaa018ea1f76655cddcae0e655bbdbf7c6ae15bb4a1186a2a01b8", "blocktime": 1537875543, "version": 2, "confirmations": 11464, "time": 1537875543, "locktime": 0, "vsize": 622, "size": 1108}