{"hash": "e8b5740c8e1b0f0ffa79ff6b7062874bc090898b8d1c8f22b013900f8b21232c", "blockhash": "0000000000000000001f0ddff1eddb255c1121bcd4da4f1bc9a0da00cae72433", "vout": [{"scriptPubKey": {"reqSigs": 1, "hex": "a914c6af91d9e6dea911df8ba366359d8c471e06102487", "addresses": ["3Koa3KoQpNcR3t1pyM5xqsDeksAoypqMXD"], "asm": "OP_HASH160 c6af91d9e6dea911df8ba366359d8c471e061024 OP_EQUAL", "type": "scripthash"}, "value": 0.01763961, "n": 0}, {"scriptPubKey": {"reqSigs": 1, "hex": "76a914a645b33c7f1567d77f9b2e425b9c6becdc32607c88ac", "addresses": ["1GAAfhHf3nsgEtcrXNM6xjfD9hg8cg8zTH"], "asm": "OP_DUP OP_HASH160 a645b33c7f1567d77f9b2e425b9c6becdc32607c OP_EQUALVERIFY OP_CHECKSIG", "type": "pubkeyhash"}, "value": 0.00294998, "n": 1}], "hex": "0200000000010214b8295ffc62fe75c4234a4bcf1d4b15081389b433d32fe83669f2b208453ac00100000017160014079dd8e2b874cba184aeb319c4ab5e480adf844cfeffffff3dbc54fc9d7ad7c3869d9deb288adeb0b2c581e30b65c7c151a4c9d1a1ae8dad01000000171600148abb5101eb30d5ddc6f5cf17affb898b2bad288ffeffffff0279ea1a000000000017a914c6af91d9e6dea911df8ba366359d8c471e0610248756800400000000001976a914a645b33c7f1567d77f9b2e425b9c6becdc32607c88ac0247304402204c6c6f51e45b2150e34fdb41ee8d439660b371a5dbc27d93a782f1cacdd45e1c02206b0529e33617b4c84c8ea6359980c62b91d7f94a6a8420a193213cc8e5a79c000121030bad4eb8bc231360377849c18e8e277c00806c0cebadfa8fc71ada3047fa59ea02473044022056b0e12d934d5657ff8c238c74cb94495c26c08525b06a5897d0cd85af4db8ed02200471f479f06ee6dbfc2b3b48b725124d284644cdab2c964434691a946b419e150121039530e897dbba8dd7e4cf77552def2726e36c4967388c5cd40d19fb11367e6f5511490800", "vin": [{"txinwitness": ["304402204c6c6f51e45b2150e34fdb41ee8d439660b371a5dbc27d93a782f1cacdd45e1c02206b0529e33617b4c84c8ea6359980c62b91d7f94a6a8420a193213cc8e5a79c0001", "030bad4eb8bc231360377849c18e8e277c00806c0cebadfa8fc71ada3047fa59ea"], "sequence": 4294967294, "scriptSig": {"hex": "160014079dd8e2b874cba184aeb319c4ab5e480adf844c", "asm": "0014079dd8e2b874cba184aeb319c4ab5e480adf844c"}, "vout": 1, "txid": "c03a4508b2f26936e82fd333b4891308154b1dcf4b4a23c475fe62fc5f29b814"}, {"txinwitness": ["3044022056b0e12d934d5657ff8c238c74cb94495c26c08525b06a5897d0cd85af4db8ed02200471f479f06ee6dbfc2b3b48b725124d284644cdab2c964434691a946b419e1501", "039530e897dbba8dd7e4cf77552def2726e36c4967388c5cd40d19fb11367e6f55"], "sequence": 4294967294, "scriptSig": {"hex": "1600148abb5101eb30d5ddc6f5cf17affb898b2bad288f", "asm": "00148abb5101eb30d5ddc6f5cf17affb898b2bad288f"}, "vout": 1, "txid": "ad8daea1d1c9a451c1c7650be381c5b2b0de8a28eb9d9d86c3d77a9dfc54bc3d"}], "txid": "e3bf5e68dfe0a36c2730aad7b3805eced353518cf3a7cd09646d6f61b174f01d", "blocktime": 1537872018, "version": 2, "confirmations": 11489, "time": 1537872018, "locktime": 542993, "vsize": 258, "size": 420}