{"hash": "9f681d14d5c4aa391652bfc12fe0ebf0384ea4b3fbd1e38de440d8f1cb3bcda5", "blockhash": "0000000000000000001f76057863aec43deb6fa401d9628bb513d65a8098bfab", "vout": [{"scriptPubKey": {"reqSigs": 1, "hex": "a914230330a52ce8d5294ebea6637d86714db138ff7287", "addresses": ["34t9PuQPLw1gg7rF3syLrMibsNxCzRZV82"], "asm": "OP_HASH160 230330a52ce8d5294ebea6637d86714db138ff72 OP_EQUAL", "type": "scripthash"}, "value": 0.0010065, "n": 0}, {"scriptPubKey": {"reqSigs": 1, "hex": "0014b7949635d77392ebe298bff052db60f5f906d4a0", "addresses": ["bc1qk72fvdwhwwfwhc5chlc99kmq7husd49qelft7j"], "asm": "0 b7949635d77392ebe298bff052db60f5f906d4a0", "type": "witness_v0_keyhash"}, "value": 5.081e-05, "n": 1}], "hex": "010000000001016bb5fa20c29d9f746fb3bc4016cb44b4f0df2967da4aef589d9f777d62ea29c14900000017160014b95c5d8a7d52fd14a179593282de130a492bc505ffffffff022a8901000000000017a914230330a52ce8d5294ebea6637d86714db138ff7287d913000000000000160014b7949635d77392ebe298bff052db60f5f906d4a002483045022100bbfd93480b7e2fa76cf834f7f139b87172f4133ad006e80ec724ec74a5916e3d02203d6c8e8e7656085deda8485b2efa37dcb4ec70a6806a9bfa9f1af514b2eba01c012102abfd58b7f85d708d77c2be1e264b1c6b9b0b13a7708f5c71ed5dbc0179dc79b800000000", "vin": [{"txinwitness": ["3045022100bbfd93480b7e2fa76cf834f7f139b87172f4133ad006e80ec724ec74a5916e3d02203d6c8e8e7656085deda8485b2efa37dcb4ec70a6806a9bfa9f1af514b2eba01c01", "02abfd58b7f85d708d77c2be1e264b1c6b9b0b13a7708f5c71ed5dbc0179dc79b8"], "sequence": 4294967295, "scriptSig": {"hex": "160014b95c5d8a7d52fd14a179593282de130a492bc505", "asm": "0014b95c5d8a7d52fd14a179593282de130a492bc505"}, "vout": 73, "txid": "c129ea627d779f9d58ef4ada6729dff0b444cb1640bcb36f749f9dc220fab56b"}], "txid": "e3c4b4f01db954d6706ada18ccd99075d5c28d65a93a2f6a0019bd20d58d598b", "blocktime": 1537873891, "version": 1, "confirmations": 11478, "time": 1537873891, "locktime": 0, "vsize": 165, "size": 247}