{"hash": "e3d2ea661669d0fc1a84d5b6df5f396a27fec777659ef81dac2016a6da5d636f", "blockhash": "0000000000000000000e13cef7c366c0283d82e591d1acd082e914b08063cdf1", "vout": [{"scriptPubKey": {"reqSigs": 1, "hex": "76a914f51cbe7995d1e7d730dcdbc6e87ce5a808bf56df88ac", "addresses": ["1PM2zAqPHrRNpuPGh4u9yEXzTGzwQJm8Tx"], "asm": "OP_DUP OP_HASH160 f51cbe7995d1e7d730dcdbc6e87ce5a808bf56df OP_EQUALVERIFY OP_CHECKSIG", "type": "pubkeyhash"}, "value": 0.0064352, "n": 0}, {"scriptPubKey": {"type": "nulldata", "hex": "6a4c500000779a0001a3eae3b0becebaeb43a6d0dee3ef3236678a625097bcbefa6b8351586b4e7320748def585085c4a23436c4a30c4d5baa0d6106154101cfb622751d100759d4ba30d2c37bb011d97e02cf", "asm": "OP_RETURN 0000779a0001a3eae3b0becebaeb43a6d0dee3ef3236678a625097bcbefa6b8351586b4e7320748def585085c4a23436c4a30c4d5baa0d6106154101cfb622751d100759d4ba30d2c37bb011d97e02cf"}, "value": 0.0, "n": 1}], "hex": "010000000126eac1da11ba649dd6dfd33d24164de5c51ad274d85a4df0174a4c1cc4597374000000006b483045022100a8d13caef490bd07e3c4fc4e9cc7f60bf01eb93c071add46f647f49a7009aa070220343a74d447ec215e14f5af7446212abf9a03e9219a462035e50fa535e450fe5d012102c24e015d1ab5e70893151a5128aae16d38b9798104405f858a0fba9033bad239ffffffff02c0d10900000000001976a914f51cbe7995d1e7d730dcdbc6e87ce5a808bf56df88ac0000000000000000536a4c500000779a0001a3eae3b0becebaeb43a6d0dee3ef3236678a625097bcbefa6b8351586b4e7320748def585085c4a23436c4a30c4d5baa0d6106154101cfb622751d100759d4ba30d2c37bb011d97e02cf00000000", "vin": [{"sequence": 4294967295, "scriptSig": {"hex": "483045022100a8d13caef490bd07e3c4fc4e9cc7f60bf01eb93c071add46f647f49a7009aa070220343a74d447ec215e14f5af7446212abf9a03e9219a462035e50fa535e450fe5d012102c24e015d1ab5e70893151a5128aae16d38b9798104405f858a0fba9033bad239", "asm": "3045022100a8d13caef490bd07e3c4fc4e9cc7f60bf01eb93c071add46f647f49a7009aa070220343a74d447ec215e14f5af7446212abf9a03e9219a462035e50fa535e450fe5d[ALL] 02c24e015d1ab5e70893151a5128aae16d38b9798104405f858a0fba9033bad239"}, "vout": 0, "txid": "747359c41c4c4a17f04d5ad874d21ac5e54d16243dd3dfd69d64ba11dac1ea26"}], "txid": "e3d2ea661669d0fc1a84d5b6df5f396a27fec777659ef81dac2016a6da5d636f", "blocktime": 1537871767, "version": 1, "confirmations": 11495, "time": 1537871767, "locktime": 0, "vsize": 284, "size": 284}