{"hash": "dabc14e6e8e661e7a8edd9986e67a0074d665f9c0f4eac9939d21341c46dc48e", "blockhash": "0000000000000000001f0ddff1eddb255c1121bcd4da4f1bc9a0da00cae72433", "vout": [{"scriptPubKey": {"reqSigs": 1, "hex": "a91404f61193784f285f6395df0fbbf082420c5a4b2887", "addresses": ["329FQThFwT1B6198d1h3svWs5Nd2MjU9Xr"], "asm": "OP_HASH160 04f61193784f285f6395df0fbbf082420c5a4b28 OP_EQUAL", "type": "scripthash"}, "value": 0.08532, "n": 0}, {"scriptPubKey": {"reqSigs": 1, "hex": "a914a550f013ad78f70c065e6107f5d750c88b576da087", "addresses": ["3Gm8NrQpPJ6CABFRwyoykC3JKQPhBb159S"], "asm": "OP_HASH160 a550f013ad78f70c065e6107f5d750c88b576da0 OP_EQUAL", "type": "scripthash"}, "value": 0.02413122, "n": 1}, {"scriptPubKey": {"reqSigs": 1, "hex": "a91469f376407dd1c7ea1414dcc2cbd4bcb181c581de87", "addresses": ["3BMEXiXd3mBz7cFCWXTG8VSCtUDFiTspwB"], "asm": "OP_HASH160 69f376407dd1c7ea1414dcc2cbd4bcb181c581de OP_EQUAL", "type": "scripthash"}, "value": 0.02298217, "n": 2}, {"scriptPubKey": {"reqSigs": 1, "hex": "a914f5f4d35f11825ccc6506f122348032a1092c03b587", "addresses": ["3Q7WmKyRYbuWGQaKjXwAebUfLtRNsmP6er"], "asm": "OP_HASH160 f5f4d35f11825ccc6506f122348032a1092c03b5 OP_EQUAL", "type": "scripthash"}, "value": 0.06219343, "n": 3}], "hex": "01000000000105add8699b2a09a23abf9e88a1d0aa431b19fd347dd7dfa07fb4124e11ff3cd6bb0100000023220020413a2398ddfd0589b28baa65b568604ee01c35a62d015234effccf48cc5a8f76ffffffff426fc34703dacd6a601f2f41fe155abee099a7f5a5a5adda6cc5412f853604df0200000023220020196d8a97f9e11bcac1056834a9d69ff81399a647de3efb8faa6e938fca9447e3ffffffffdd284ff47dcd3558b46f0cc2cb547155b03715df5a34c88c9645eed5356ee868030000002322002012a3cdc0daf9dc5c408c58e87b73398afe09eb8355981e7483f4a99cd55f8507ffffffffad9f1f8a5f9e15e2f70fb5e3a4859b7fbf5d5d816a7fc2045bdd09d7269ca8ac0100000023220020fa6508f2774c75abd48e2a29a621917e4d3d91f294aded15e46f14a85ecd583cffffffffab3c93236f60e3e2e73ff21c3439031336e7e1cb573d44c4ade86eecc6d37ad60100000023220020bbe8b70552ed5522b630225899c5fc591e8cbd26c73b051237036d35ef55ddcbffffffff04203082000000000017a91404f61193784f285f6395df0fbbf082420c5a4b288742d224000000000017a914a550f013ad78f70c065e6107f5d750c88b576da087691123000000000017a91469f376407dd1c7ea1414dcc2cbd4bcb181c581de874fe65e000000000017a914f5f4d35f11825ccc6506f122348032a1092c03b5870400483045022100c7646794d0cdbfc3145a9b0ebdd456af2809fce6ba5db71fc9532271fa7c330f02207efab3986d3dac1a661bdf6a3ccf8e5e1c6759fc07a39c9a18aaf2762e8303050147304402205a1ed7356cfc65b885ebe8fbf0691ce132c98d08e5f74eac3794cadc77cab71402203ed0cb4eed1c31edb81b6b3c26bf48e04d4f29acbb57f3b79e49e2570565c5720147522102e7c558cfaeb7a38fd5ad437597e8e1372b8eab20a3ccf4e9ac50475ba43495bd21038407424ead2b88063db2d589e50c34e1572f6b82eb9e266dec536939ee0db9eb52ae040047304402204a790277f534bb54d8362a1f185b6f4d8d9441763089ff2e57295cda5781c07e02207f6afad6fb1742678c9ebf7fb0e3a60e03da4953b6f02e8567423af2ce81f6a40147304402201f0acc7080cf5bff6c49cf7fbac4b729ad84aaf95ab0d9315ec61f233e931369022002f3ac021875a21d55518610c63b12a786e22e6c5bfca551f68e57566f5686920147522102fb39689aa0919afa48d5e9d1ec8381e4dbdde4c0d420c239c87ae6f4ed9b238b21038407424ead2b88063db2d589e50c34e1572f6b82eb9e266dec536939ee0db9eb52ae0400483045022100bbffb42508dc377a6e2a6545df9891f2e5efeb8e11054ce1c87d8a93c0a9c58402203fd84ca3b6354e1b36ac297c0bdc14b50eb2c679bd6eb48f944391fe5841eca1014730440220262f4c9a4de966f58571457aa6913579c8ae0e6da75cbd11ab09b7d27ca81ac402206b23214719aca5a100721ecd58b6c4b05ef80ecb8f907b2b835afc95c48eac97014752210392101e06d6e6f7a96fbab950b956be4f3ae5a81a930f868310d3697451a535ad21038407424ead2b88063db2d589e50c34e1572f6b82eb9e266dec536939ee0db9eb52ae0400473044022035b63ea618170879e5576731835076c04b6cd8011021f87d618ce3aa5079177202201afe16bc9c66ed87737b3a4c71508def346ce4d7bec9c97a49c724c55bc8062901483045022100d1b6cda1a759eaad851346c45be7618c2d06d8324fc3bceef4627b552cdaad4202201b282439be982cfb3aefe863d01dd0fb0188839c0ae1adde867774f02e3c702c014752210224c96ddd49456a4b63c6f023f2685a5cc84b11b405028f9df1bd55ec6276c18921038407424ead2b88063db2d589e50c34e1572f6b82eb9e266dec536939ee0db9eb52ae040047304402207a4d0df6632475068ee9bea3108bce0e1a3a1ae10b8f16e2b68a2581dd6d0e47022046b9626ef6549617043eff1cb1885b207a726bcf911ad49d4c4cfc19b239cfe901473044022017af9d121322772d2d43209ea440488d118e5645f54597ae6433c0a368180b010220280b5d6181a8a378fc843580516a42d6885c4e4c981b7b631fb6a793c6469acc0147522103afd41435be12b58912002c480d77c516f27e10c9bb1bdc32896907cfd58a3f7121038407424ead2b88063db2d589e50c34e1572f6b82eb9e266dec536939ee0db9eb52ae00000000", "vin": [{"txinwitness": ["", "3045022100c7646794d0cdbfc3145a9b0ebdd456af2809fce6ba5db71fc9532271fa7c330f02207efab3986d3dac1a661bdf6a3ccf8e5e1c6759fc07a39c9a18aaf2762e83030501", "304402205a1ed7356cfc65b885ebe8fbf0691ce132c98d08e5f74eac3794cadc77cab71402203ed0cb4eed1c31edb81b6b3c26bf48e04d4f29acbb57f3b79e49e2570565c57201", "522102e7c558cfaeb7a38fd5ad437597e8e1372b8eab20a3ccf4e9ac50475ba43495bd21038407424ead2b88063db2d589e50c34e1572f6b82eb9e266dec536939ee0db9eb52ae"], "sequence": 4294967295, "scriptSig": {"hex": "220020413a2398ddfd0589b28baa65b568604ee01c35a62d015234effccf48cc5a8f76", "asm": "0020413a2398ddfd0589b28baa65b568604ee01c35a62d015234effccf48cc5a8f76"}, "vout": 1, "txid": "bbd63cff114e12b47fa0dfd77d34fd191b43aad0a1889ebf3aa2092a9b69d8ad"}, {"txinwitness": ["", "304402204a790277f534bb54d8362a1f185b6f4d8d9441763089ff2e57295cda5781c07e02207f6afad6fb1742678c9ebf7fb0e3a60e03da4953b6f02e8567423af2ce81f6a401", "304402201f0acc7080cf5bff6c49cf7fbac4b729ad84aaf95ab0d9315ec61f233e931369022002f3ac021875a21d55518610c63b12a786e22e6c5bfca551f68e57566f56869201", "522102fb39689aa0919afa48d5e9d1ec8381e4dbdde4c0d420c239c87ae6f4ed9b238b21038407424ead2b88063db2d589e50c34e1572f6b82eb9e266dec536939ee0db9eb52ae"], "sequence": 4294967295, "scriptSig": {"hex": "220020196d8a97f9e11bcac1056834a9d69ff81399a647de3efb8faa6e938fca9447e3", "asm": "0020196d8a97f9e11bcac1056834a9d69ff81399a647de3efb8faa6e938fca9447e3"}, "vout": 2, "txid": "df0436852f41c56cdaada5a5f5a799e0be5a15fe412f1f606acdda0347c36f42"}, {"txinwitness": ["", "3045022100bbffb42508dc377a6e2a6545df9891f2e5efeb8e11054ce1c87d8a93c0a9c58402203fd84ca3b6354e1b36ac297c0bdc14b50eb2c679bd6eb48f944391fe5841eca101", "30440220262f4c9a4de966f58571457aa6913579c8ae0e6da75cbd11ab09b7d27ca81ac402206b23214719aca5a100721ecd58b6c4b05ef80ecb8f907b2b835afc95c48eac9701", "52210392101e06d6e6f7a96fbab950b956be4f3ae5a81a930f868310d3697451a535ad21038407424ead2b88063db2d589e50c34e1572f6b82eb9e266dec536939ee0db9eb52ae"], "sequence": 4294967295, "scriptSig": {"hex": "22002012a3cdc0daf9dc5c408c58e87b73398afe09eb8355981e7483f4a99cd55f8507", "asm": "002012a3cdc0daf9dc5c408c58e87b73398afe09eb8355981e7483f4a99cd55f8507"}, "vout": 3, "txid": "68e86e35d5ee45968cc8345adf1537b0557154cbc20c6fb45835cd7df44f28dd"}, {"txinwitness": ["", "3044022035b63ea618170879e5576731835076c04b6cd8011021f87d618ce3aa5079177202201afe16bc9c66ed87737b3a4c71508def346ce4d7bec9c97a49c724c55bc8062901", "3045022100d1b6cda1a759eaad851346c45be7618c2d06d8324fc3bceef4627b552cdaad4202201b282439be982cfb3aefe863d01dd0fb0188839c0ae1adde867774f02e3c702c01", "52210224c96ddd49456a4b63c6f023f2685a5cc84b11b405028f9df1bd55ec6276c18921038407424ead2b88063db2d589e50c34e1572f6b82eb9e266dec536939ee0db9eb52ae"], "sequence": 4294967295, "scriptSig": {"hex": "220020fa6508f2774c75abd48e2a29a621917e4d3d91f294aded15e46f14a85ecd583c", "asm": "0020fa6508f2774c75abd48e2a29a621917e4d3d91f294aded15e46f14a85ecd583c"}, "vout": 1, "txid": "aca89c26d709dd5b04c27f6a815d5dbf7f9b85a4e3b50ff7e2159e5f8a1f9fad"}, {"txinwitness": ["", "304402207a4d0df6632475068ee9bea3108bce0e1a3a1ae10b8f16e2b68a2581dd6d0e47022046b9626ef6549617043eff1cb1885b207a726bcf911ad49d4c4cfc19b239cfe901", "3044022017af9d121322772d2d43209ea440488d118e5645f54597ae6433c0a368180b010220280b5d6181a8a378fc843580516a42d6885c4e4c981b7b631fb6a793c6469acc01", "522103afd41435be12b58912002c480d77c516f27e10c9bb1bdc32896907cfd58a3f7121038407424ead2b88063db2d589e50c34e1572f6b82eb9e266dec536939ee0db9eb52ae"], "sequence": 4294967295, "scriptSig": {"hex": "220020bbe8b70552ed5522b630225899c5fc591e8cbd26c73b051237036d35ef55ddcb", "asm": "0020bbe8b70552ed5522b630225899c5fc591e8cbd26c73b051237036d35ef55ddcb"}, "vout": 1, "txid": "d67ad3c6ec6ee8adc4443d57cbe1e736130339341cf23fe7e2e3606f23933cab"}], "txid": "e3d54a290f053493a2d442b5b4539e882d051638e79ff9cb3a70496b861996f0", "blocktime": 1537872018, "version": 1, "confirmations": 11489, "time": 1537872018, "locktime": 0, "vsize": 792, "size": 1613}