{"hash": "e3d9208034eede3358fd5d9e8fd1d44a067996add2abf9cb626fa75a1d04c984", "blockhash": "0000000000000000000dcc0f55137456b1a82d3642486a52398922ac4d620174", "vout": [{"scriptPubKey": {"reqSigs": 1, "hex": "76a914fd71e19ecfaede1e5c41c092f837bcc90caf328788ac", "addresses": ["1Q76P9W8Awoo1mc4U8bVVS9hoQbFaPAC5m"], "asm": "OP_DUP OP_HASH160 fd71e19ecfaede1e5c41c092f837bcc90caf3287 OP_EQUALVERIFY OP_CHECKSIG", "type": "pubkeyhash"}, "value": 0.00051433, "n": 0}, {"scriptPubKey": {"reqSigs": 1, "hex": "a914f31aeb0b8adb5067fe31dd74f89f231543cc721287", "addresses": ["3PrSNTsHUUN3R13PjgmqTWYCCRxLKb6sXJ"], "asm": "OP_HASH160 f31aeb0b8adb5067fe31dd74f89f231543cc7212 OP_EQUAL", "type": "scripthash"}, "value": 0.00092, "n": 1}], "hex": "0100000001957b78139d0e62d988d335f205bc23b9534660714c6932af5dd79c973b70e916000000006b483045022100aba85121bec270d8ab7f7263f4cd6cb4477ae0f3bb38b077b11ee94a4da2be750220111b3549015319a3ac3894629df0c87543e88bb61a67da351ebc5017355eb55f0121025e31e3b239c1a12de7e01ff95451228ae27e59691a9f15eb573a85c630cb2febffffffff02e9c80000000000001976a914fd71e19ecfaede1e5c41c092f837bcc90caf328788ac606701000000000017a914f31aeb0b8adb5067fe31dd74f89f231543cc72128700000000", "vin": [{"sequence": 4294967295, "scriptSig": {"hex": "483045022100aba85121bec270d8ab7f7263f4cd6cb4477ae0f3bb38b077b11ee94a4da2be750220111b3549015319a3ac3894629df0c87543e88bb61a67da351ebc5017355eb55f0121025e31e3b239c1a12de7e01ff95451228ae27e59691a9f15eb573a85c630cb2feb", "asm": "3045022100aba85121bec270d8ab7f7263f4cd6cb4477ae0f3bb38b077b11ee94a4da2be750220111b3549015319a3ac3894629df0c87543e88bb61a67da351ebc5017355eb55f[ALL] 025e31e3b239c1a12de7e01ff95451228ae27e59691a9f15eb573a85c630cb2feb"}, "vout": 0, "txid": "16e9703b979cd75daf32694c71604653b923bc05f235d388d9620e9d13787b95"}], "txid": "e3d9208034eede3358fd5d9e8fd1d44a067996add2abf9cb626fa75a1d04c984", "blocktime": 1537870268, "version": 1, "confirmations": 11518, "time": 1537870268, "locktime": 0, "vsize": 224, "size": 224}