{"hash": "e3dbd729897ed1a4c4f8eaee8c5a69f2fa5422fdafb55b4c84ec9d30b6d2f0e2", "blockhash": "0000000000000000001e0dab787dd257d1dbfcb92a98c2207d5e1078be1f4165", "vout": [{"scriptPubKey": {"reqSigs": 1, "hex": "76a9144338a4046650d7f6a3109c545fad840a88b4a03188ac", "addresses": ["178S8KP84vwCS533AcbcRrW91GjHooxXhM"], "asm": "OP_DUP OP_HASH160 4338a4046650d7f6a3109c545fad840a88b4a031 OP_EQUALVERIFY OP_CHECKSIG", "type": "pubkeyhash"}, "value": 0.00195841, "n": 0}], "hex": "0100000001e7a4ca1ecf64621b5c948c1dbd7e1644d9901b69f53adb2e2e7efd83942eb699010000006b483045022100909afa42933adea75113b117d488cd18b175ac3ea3aee377dc9913a536097f3b02207a19dc2dc9f61b5b7b6bf9e98b0b7b3eda96a76c9ae319a73015825eaab0c6d20121024d165f4b66595f660deea924ca19305538709908ba5a94dff75e9e0d4c1d2698ffffffff0101fd0200000000001976a9144338a4046650d7f6a3109c545fad840a88b4a03188ac00000000", "vin": [{"sequence": 4294967295, "scriptSig": {"hex": "483045022100909afa42933adea75113b117d488cd18b175ac3ea3aee377dc9913a536097f3b02207a19dc2dc9f61b5b7b6bf9e98b0b7b3eda96a76c9ae319a73015825eaab0c6d20121024d165f4b66595f660deea924ca19305538709908ba5a94dff75e9e0d4c1d2698", "asm": "3045022100909afa42933adea75113b117d488cd18b175ac3ea3aee377dc9913a536097f3b02207a19dc2dc9f61b5b7b6bf9e98b0b7b3eda96a76c9ae319a73015825eaab0c6d2[ALL] 024d165f4b66595f660deea924ca19305538709908ba5a94dff75e9e0d4c1d2698"}, "vout": 1, "txid": "99b62e9483fd7e2e2edb3af5691b90d944167ebd1d8c945c1b6264cf1ecaa4e7"}], "txid": "e3dbd729897ed1a4c4f8eaee8c5a69f2fa5422fdafb55b4c84ec9d30b6d2f0e2", "blocktime": 1537872475, "version": 1, "confirmations": 11486, "time": 1537872475, "locktime": 0, "vsize": 192, "size": 192}