{"hash": "f313a650cbc227b6d589f478733c003bd1db874088a2b57d0d96a6a0dc80d90e", "blockhash": "0000000000000000001f0ddff1eddb255c1121bcd4da4f1bc9a0da00cae72433", "vout": [{"scriptPubKey": {"reqSigs": 1, "hex": "76a9143585fe51b3c9d7e46837ad2b5c3200b0219d9c4a88ac", "addresses": ["15t1LCFjVdTUeWdYTZ9vt7VyhYKpHqsrde"], "asm": "OP_DUP OP_HASH160 3585fe51b3c9d7e46837ad2b5c3200b0219d9c4a OP_EQUALVERIFY OP_CHECKSIG", "type": "pubkeyhash"}, "value": 0.01877444, "n": 0}, {"scriptPubKey": {"reqSigs": 1, "hex": "0014d63fb9b783ccca265c07aab9d2f10d646e5c228d", "addresses": ["bc1q6clmnduren9zvhq842ua9ugdv3h9cg5d2kzmvy"], "asm": "0 d63fb9b783ccca265c07aab9d2f10d646e5c228d", "type": "witness_v0_keyhash"}, "value": 2.22626341, "n": 1}], "hex": "01000000000101865d8f25631bef557127548579cf223bc8fd6da9ecced08003a1db869260e89a0100000000ffffffff02c4a51c00000000001976a9143585fe51b3c9d7e46837ad2b5c3200b0219d9c4a88ac2502450d00000000160014d63fb9b783ccca265c07aab9d2f10d646e5c228d0247304402206baa949f861cec301f1fc14b97fb282beff61827c3690ab5ca2304f5c50aaa22022020488cfb9c45b4b257b1f019a5b2d798f459c7519e6ea879be9caa1fb3fcd55301210338c7bc80ff016d6298889a3d309f6aa87ab90eb25c9d2d8df2590570e74f2ffa00000000", "vin": [{"txinwitness": ["304402206baa949f861cec301f1fc14b97fb282beff61827c3690ab5ca2304f5c50aaa22022020488cfb9c45b4b257b1f019a5b2d798f459c7519e6ea879be9caa1fb3fcd55301", "0338c7bc80ff016d6298889a3d309f6aa87ab90eb25c9d2d8df2590570e74f2ffa"], "sequence": 4294967295, "scriptSig": {"hex": "", "asm": ""}, "vout": 1, "txid": "9ae8609286dba10380d0ceeca96dfdc83b22cf798554277155ef1b63258f5d86"}], "txid": "e3e1ec42a6a27517806f27f2066bad4f4f6fa687110271cae6ac2f2ebf534389", "blocktime": 1537872018, "version": 1, "confirmations": 11489, "time": 1537872018, "locktime": 0, "vsize": 144, "size": 225}