{"hash": "6accd892d8f2071cb603485d9f277786c74427ce0ad281e872ad59a6a64faef1", "blockhash": "0000000000000000000baef3f32e3676a92c3b2e5da21b426e4f302fc371ce76", "vout": [{"scriptPubKey": {"reqSigs": 1, "hex": "76a91497ced71f403be09993aa72b2f72c98e39f345c3a88ac", "addresses": ["1EqgpV4ZmUJtjwkNQ9kWhJYey2Bwe3vv7p"], "asm": "OP_DUP OP_HASH160 97ced71f403be09993aa72b2f72c98e39f345c3a OP_EQUALVERIFY OP_CHECKSIG", "type": "pubkeyhash"}, "value": 0.0024686, "n": 0}, {"scriptPubKey": {"reqSigs": 1, "hex": "a914a36030a8a991afe91c41a9b5ce81adbec340a96187", "addresses": ["3GasJDTWPSPZZ9myHMmTKwjgEskv3okh9n"], "asm": "OP_HASH160 a36030a8a991afe91c41a9b5ce81adbec340a961 OP_EQUAL", "type": "scripthash"}, "value": 0.01128911, "n": 1}], "hex": "0200000000010241f3d3740b78628ca323091ef7108201fc997f4976c11c291edb89251698b6d500000000171600143dd77f5a4487ac2c7171afc572aa4859b820defdfeffffff63a59247bf448697908e8e400ab2611c02668bc25d1853e0fbc8d12952864eca020000001716001427089451f74a5e5e79621f645a621b8c21cd279dfeffffff024cc40300000000001976a91497ced71f403be09993aa72b2f72c98e39f345c3a88accf3911000000000017a914a36030a8a991afe91c41a9b5ce81adbec340a96187024730440220508a2fb27f4c07721f0017719f586c434d419a192133ff9018c724ce3ffd08f002201a5e870b395b2d9da346656491a2446f9ccee91d3ea8ddbb5041c7ab97d0a4a1012102e566244e1eb0459461421160d22df8611b4150d4f1f133695a7859654e9264f1024730440220508a57805a69f22be37640d0b75185389541bf4840b2d60c0f4660de957d0884022016d0a792a884579ddb9f1b4a85cbc5cb949c7ecac8d4beefea8cdad7c05bf340012102c72a791049a357ff5132e67dca4402033cbe57847976321b784c21a7b072e51e17490800", "vin": [{"txinwitness": ["30440220508a2fb27f4c07721f0017719f586c434d419a192133ff9018c724ce3ffd08f002201a5e870b395b2d9da346656491a2446f9ccee91d3ea8ddbb5041c7ab97d0a4a101", "02e566244e1eb0459461421160d22df8611b4150d4f1f133695a7859654e9264f1"], "sequence": 4294967294, "scriptSig": {"hex": "1600143dd77f5a4487ac2c7171afc572aa4859b820defd", "asm": "00143dd77f5a4487ac2c7171afc572aa4859b820defd"}, "vout": 0, "txid": "d5b698162589db1e291cc176497f99fc018210f71e0923a38c62780b74d3f341"}, {"txinwitness": ["30440220508a57805a69f22be37640d0b75185389541bf4840b2d60c0f4660de957d0884022016d0a792a884579ddb9f1b4a85cbc5cb949c7ecac8d4beefea8cdad7c05bf34001", "02c72a791049a357ff5132e67dca4402033cbe57847976321b784c21a7b072e51e"], "sequence": 4294967294, "scriptSig": {"hex": "16001427089451f74a5e5e79621f645a621b8c21cd279d", "asm": "001427089451f74a5e5e79621f645a621b8c21cd279d"}, "vout": 2, "txid": "ca4e865229d1c8fbe053185dc28b66021c61b20a408e8e90978644bf4792a563"}], "txid": "e3e478abcc218b072ec671598b4e7acfde2e308f1972d7fc90d114945907853e", "blocktime": 1537876114, "version": 2, "confirmations": 11460, "time": 1537876114, "locktime": 542999, "vsize": 258, "size": 420}