{"hash": "e3ee6c88ea76b095a4a7980251257aa8c360f63322d271e6c10ee5a3c41ff7cc", "blockhash": "0000000000000000000dcc0f55137456b1a82d3642486a52398922ac4d620174", "vout": [{"scriptPubKey": {"reqSigs": 1, "hex": "a914fe8d6397412de17266cc09235858ccad68cb114a87", "addresses": ["3Qtxw9gUDtndPANVUZUFJzqxHWk4U5kRE8"], "asm": "OP_HASH160 fe8d6397412de17266cc09235858ccad68cb114a OP_EQUAL", "type": "scripthash"}, "value": 0.291365, "n": 0}], "hex": "010000001230769e3a712397b6b1d30038d0ed420b5f4b074044f034cfda9119c9d4163280000000006b483045022100ad9fd0a0e03950b3f8b5532719c31603665ec4e7eb3fe2f4f1a327ca8e20dc0802201c3c7f95c8f675a0915ef357f579bfa77ec3bf976e1b61b941fe124ba1117f1f01210399cfb82c4d7c56f0d9c357fcc08bf146afc1a9585e0617d8528bf7f9e994c08bffffffff57bd38fee407de94bd70003f2d0e2e5449b3a4532a4d76be41c3a72c6bf8cc6c000000006b483045022100a4d07533f5a79a8c553a3b32d95e8a1f4acf4789d0e302931f49ec8ea0a828080220726bcb1cfcffe8cbfd67383b1c5ab889e3c77ffd5d24a88bacf8c39af1af768401210399cfb82c4d7c56f0d9c357fcc08bf146afc1a9585e0617d8528bf7f9e994c08bffffffffce1582e30eb482f4fcf0288c41ec64f865849903032df86d50e63c42c1b3f4a3000000006a473044022075180f778f056e81a7669f88c7cafd29675bada7c3d626ffb79ccf2faa97759302205a566457266426d68b24804d5fcf8c00d3c7e230b0e8867efbb4e9bfcf2fb95001210399cfb82c4d7c56f0d9c357fcc08bf146afc1a9585e0617d8528bf7f9e994c08bffffffff90574c932936fc4dcec09baa8f9e1216e6c48d864875c99897ca2f0291873609000000006b483045022100c94e6bf00dd4fbcf9161396cd464bf70737bce520c2c37116efcd80b8785c4c902201057229279d670c9621ebd0899e2a6199025a393d58a7f609aa2a670b8cb596f01210399cfb82c4d7c56f0d9c357fcc08bf146afc1a9585e0617d8528bf7f9e994c08bffffffff2c0c8d7ac1d58b2c5ca5561ba14b015665553f10c11c2ad6e20d2b5d817ea57c000000006b4830450221009c89c94aa8662cf95efb560767414affa796145dc80704273748d0179ae3b6940220788b7676e29541de46d2707c15f8b22605bbc5a955e56cfdc3fd2b0fbe9fb34101210399cfb82c4d7c56f0d9c357fcc08bf146afc1a9585e0617d8528bf7f9e994c08bffffffff42ebc5565797d844582f3a3a2a42cad6fcd713cc87a1b6bbe538d7920625dd80000000006b48304502210090ee8c2825bd1d1ef19ac9b9154a92d0243531652a9ea7acdce07b8da5431b5c022021402291f8f15c82eba72647b5ae3f1bb92e20b4eeb01899fb82bf19798970d401210399cfb82c4d7c56f0d9c357fcc08bf146afc1a9585e0617d8528bf7f9e994c08bffffffff5882193c8c5ab042a19a2ac66fc858430fa1ba7bccf46a0f5949f84ff69efd6f000000006b483045022100a9d35b4b60a98dc5f6acec76ead5a760980c05c37c503dbf5843eedbe5b9435502207a2ad5cec0e02a4527da549f2174ca55512f8c27bb0acbb073bc74e57ad258fa01210399cfb82c4d7c56f0d9c357fcc08bf146afc1a9585e0617d8528bf7f9e994c08bffffffff8a0e6ae0c88dded708dab8f7e70179aa598ae9f0570eb6e8f3fdbb7ec2300695000000006b483045022100abf9cb879513e4bf893f4217597f61fa2a182943afdf528d2aa81e646bf373f702202a23497eacf2681a1bb03709728e51f28a0314a7e06631850c98787a05abf16501210399cfb82c4d7c56f0d9c357fcc08bf146afc1a9585e0617d8528bf7f9e994c08bffffffffbff54df4eb60ce4530eb27f768ed93d14d3f280daa82e49e55f83f4563d4c982000000006b48304502210081a1906a618931d4d3667e1b2b50bb003da7165a5d124315a0db218545f6d42002203331723e049ef31c88f459d969534dabb0b0af0d00cd0de0d3fe5ec305dc891601210399cfb82c4d7c56f0d9c357fcc08bf146afc1a9585e0617d8528bf7f9e994c08bffffffff8614f1d42f0449694582bd151a2b098bf9ca4cd6538e319d7aaa24bd66d42b5f000000006b483045022100e70fa9dc77ab7dde496e96779109872dd2b913f8913f3f558b299ab604574d7b0220410b348d37f848c956afb70138b85e7a1809f1d29b59815c5bc1f64d74d9131a01210399cfb82c4d7c56f0d9c357fcc08bf146afc1a9585e0617d8528bf7f9e994c08bffffffff30829b26dd3b98874c60fa87b1f2830d76b86373b68a0300b94e5efd89d6e6a3000000006a473044022012e88141d4f1f0ed30effeab3e47dccff807e390afdd9c657594f352ca484d02022019638094526ba02ede655e24a1534167b7cbed5d74b5c4c52cafc3f8d8960a5601210399cfb82c4d7c56f0d9c357fcc08bf146afc1a9585e0617d8528bf7f9e994c08bffffffff4845504ea9da5bc0815f519415d237a61543a50dc761b6bdfa4736722963de9a010000006a47304402200526eb1a6f8b35326409b5cd331f8eaa1c214d0f1eb5caa4ba3ccb50d3f4bd6702207f79c7bc6265b0517581af8b5068d2e2d476a082a18688a507e67cd98accd34001210399cfb82c4d7c56f0d9c357fcc08bf146afc1a9585e0617d8528bf7f9e994c08bffffffffee7c559d639344ee50003e88850edaf977d18c9d6eb1446dbd7741b194118431000000006b483045022100a29e06b0eff696e87aa0e2a30490110b64c78bfaf600dae7a5e88140a781baff022031b3244374b47f78b8e46047a5e7a211592ae923395693ecee075817c6501e3801210399cfb82c4d7c56f0d9c357fcc08bf146afc1a9585e0617d8528bf7f9e994c08bffffffff088e23257db066801191ae8ef74dfdb7263d4029cb9b2575fa5ce12eb399620f000000006a473044022076406c761c1942134068d5abd05bdd9e6de77049a7f218a7ce19d60eb4f0efa0022034a9d314f347713223dbd73d141c2ecd5443901f90dc049f2eebc15c53857fe401210399cfb82c4d7c56f0d9c357fcc08bf146afc1a9585e0617d8528bf7f9e994c08bffffffff041f7b06784d357013e4df1ef89488bb630bff974195703603aa679c9a102d87000000006a4730440220738da7d822bb8968c0d321680592c71bdca0af42f3984de54c1be24c03ac1244022042124e72abcb8dae1a539d0dc6b73b1152d50c75a7041a2034bcf33d717be7e401210399cfb82c4d7c56f0d9c357fcc08bf146afc1a9585e0617d8528bf7f9e994c08bfffffffffa2ae2f4de32abbf03083ef51373e153c226808329a1f49ced20e706afd1ddd4010000006b483045022100eb6c3ceb27f2ef08bdca36ccf3672cceef961a573d0d377e4a485bd0e443b9a002200c33b91b26da2c7bedcf45e9a65ca50cd62f5718cc1de938ef68353396034e0f01210399cfb82c4d7c56f0d9c357fcc08bf146afc1a9585e0617d8528bf7f9e994c08bffffffff182cb57f28893e67833a192ed9164ef08a85fa8e5dae47c5db4cb7f88001b028010000006b483045022100a2907cdf7f40a6d5085042a730257e6adc1d6a3d101cdedbe0bb7e29a830041f02204eea58a4e6347de05561b0dadbd51aaf88d651c4731981e1632a967443360bcb01210399cfb82c4d7c56f0d9c357fcc08bf146afc1a9585e0617d8528bf7f9e994c08bffffffffdaa30f1ffca9070543933af9c5a9d128fd62e2cce5da30fe523b27cc65e67700000000006b483045022100e979dddbf757c656c15b453291b29e1ebdd5669a1a4d90230853b751fef3368602201683ab9328f5a884aaf30c7c65563e421360364a4c54d71945476d621ae8d4b901210399cfb82c4d7c56f0d9c357fcc08bf146afc1a9585e0617d8528bf7f9e994c08bffffffff017496bc010000000017a914fe8d6397412de17266cc09235858ccad68cb114a8700000000", "vin": [{"sequence": 4294967295, "scriptSig": {"hex": "483045022100ad9fd0a0e03950b3f8b5532719c31603665ec4e7eb3fe2f4f1a327ca8e20dc0802201c3c7f95c8f675a0915ef357f579bfa77ec3bf976e1b61b941fe124ba1117f1f01210399cfb82c4d7c56f0d9c357fcc08bf146afc1a9585e0617d8528bf7f9e994c08b", "asm": "3045022100ad9fd0a0e03950b3f8b5532719c31603665ec4e7eb3fe2f4f1a327ca8e20dc0802201c3c7f95c8f675a0915ef357f579bfa77ec3bf976e1b61b941fe124ba1117f1f[ALL] 0399cfb82c4d7c56f0d9c357fcc08bf146afc1a9585e0617d8528bf7f9e994c08b"}, "vout": 0, "txid": "803216d4c91991dacf34f04440074b5f0b42edd03800d3b1b69723713a9e7630"}, {"sequence": 4294967295, "scriptSig": {"hex": "483045022100a4d07533f5a79a8c553a3b32d95e8a1f4acf4789d0e302931f49ec8ea0a828080220726bcb1cfcffe8cbfd67383b1c5ab889e3c77ffd5d24a88bacf8c39af1af768401210399cfb82c4d7c56f0d9c357fcc08bf146afc1a9585e0617d8528bf7f9e994c08b", "asm": "3045022100a4d07533f5a79a8c553a3b32d95e8a1f4acf4789d0e302931f49ec8ea0a828080220726bcb1cfcffe8cbfd67383b1c5ab889e3c77ffd5d24a88bacf8c39af1af7684[ALL] 0399cfb82c4d7c56f0d9c357fcc08bf146afc1a9585e0617d8528bf7f9e994c08b"}, "vout": 0, "txid": "6cccf86b2ca7c341be764d2a53a4b349542e0e2d3f0070bd94de07e4fe38bd57"}, {"sequence": 4294967295, "scriptSig": {"hex": "473044022075180f778f056e81a7669f88c7cafd29675bada7c3d626ffb79ccf2faa97759302205a566457266426d68b24804d5fcf8c00d3c7e230b0e8867efbb4e9bfcf2fb95001210399cfb82c4d7c56f0d9c357fcc08bf146afc1a9585e0617d8528bf7f9e994c08b", "asm": "3044022075180f778f056e81a7669f88c7cafd29675bada7c3d626ffb79ccf2faa97759302205a566457266426d68b24804d5fcf8c00d3c7e230b0e8867efbb4e9bfcf2fb950[ALL] 0399cfb82c4d7c56f0d9c357fcc08bf146afc1a9585e0617d8528bf7f9e994c08b"}, "vout": 0, "txid": "a3f4b3c1423ce6506df82d0303998465f864ec418c28f0fcf482b40ee38215ce"}, {"sequence": 4294967295, "scriptSig": {"hex": "483045022100c94e6bf00dd4fbcf9161396cd464bf70737bce520c2c37116efcd80b8785c4c902201057229279d670c9621ebd0899e2a6199025a393d58a7f609aa2a670b8cb596f01210399cfb82c4d7c56f0d9c357fcc08bf146afc1a9585e0617d8528bf7f9e994c08b", "asm": "3045022100c94e6bf00dd4fbcf9161396cd464bf70737bce520c2c37116efcd80b8785c4c902201057229279d670c9621ebd0899e2a6199025a393d58a7f609aa2a670b8cb596f[ALL] 0399cfb82c4d7c56f0d9c357fcc08bf146afc1a9585e0617d8528bf7f9e994c08b"}, "vout": 0, "txid": "09368791022fca9798c97548868dc4e616129e8faa9bc0ce4dfc3629934c5790"}, {"sequence": 4294967295, "scriptSig": {"hex": "4830450221009c89c94aa8662cf95efb560767414affa796145dc80704273748d0179ae3b6940220788b7676e29541de46d2707c15f8b22605bbc5a955e56cfdc3fd2b0fbe9fb34101210399cfb82c4d7c56f0d9c357fcc08bf146afc1a9585e0617d8528bf7f9e994c08b", "asm": "30450221009c89c94aa8662cf95efb560767414affa796145dc80704273748d0179ae3b6940220788b7676e29541de46d2707c15f8b22605bbc5a955e56cfdc3fd2b0fbe9fb341[ALL] 0399cfb82c4d7c56f0d9c357fcc08bf146afc1a9585e0617d8528bf7f9e994c08b"}, "vout": 0, "txid": "7ca57e815d2b0de2d62a1cc1103f556556014ba11b56a55c2c8bd5c17a8d0c2c"}, {"sequence": 4294967295, "scriptSig": {"hex": "48304502210090ee8c2825bd1d1ef19ac9b9154a92d0243531652a9ea7acdce07b8da5431b5c022021402291f8f15c82eba72647b5ae3f1bb92e20b4eeb01899fb82bf19798970d401210399cfb82c4d7c56f0d9c357fcc08bf146afc1a9585e0617d8528bf7f9e994c08b", "asm": "304502210090ee8c2825bd1d1ef19ac9b9154a92d0243531652a9ea7acdce07b8da5431b5c022021402291f8f15c82eba72647b5ae3f1bb92e20b4eeb01899fb82bf19798970d4[ALL] 0399cfb82c4d7c56f0d9c357fcc08bf146afc1a9585e0617d8528bf7f9e994c08b"}, "vout": 0, "txid": "80dd250692d738e5bbb6a187cc13d7fcd6ca422a3a3a2f5844d8975756c5eb42"}, {"sequence": 4294967295, "scriptSig": {"hex": "483045022100a9d35b4b60a98dc5f6acec76ead5a760980c05c37c503dbf5843eedbe5b9435502207a2ad5cec0e02a4527da549f2174ca55512f8c27bb0acbb073bc74e57ad258fa01210399cfb82c4d7c56f0d9c357fcc08bf146afc1a9585e0617d8528bf7f9e994c08b", "asm": "3045022100a9d35b4b60a98dc5f6acec76ead5a760980c05c37c503dbf5843eedbe5b9435502207a2ad5cec0e02a4527da549f2174ca55512f8c27bb0acbb073bc74e57ad258fa[ALL] 0399cfb82c4d7c56f0d9c357fcc08bf146afc1a9585e0617d8528bf7f9e994c08b"}, "vout": 0, "txid": "6ffd9ef64ff849590f6af4cc7bbaa10f4358c86fc62a9aa142b05a8c3c198258"}, {"sequence": 4294967295, "scriptSig": {"hex": "483045022100abf9cb879513e4bf893f4217597f61fa2a182943afdf528d2aa81e646bf373f702202a23497eacf2681a1bb03709728e51f28a0314a7e06631850c98787a05abf16501210399cfb82c4d7c56f0d9c357fcc08bf146afc1a9585e0617d8528bf7f9e994c08b", "asm": "3045022100abf9cb879513e4bf893f4217597f61fa2a182943afdf528d2aa81e646bf373f702202a23497eacf2681a1bb03709728e51f28a0314a7e06631850c98787a05abf165[ALL] 0399cfb82c4d7c56f0d9c357fcc08bf146afc1a9585e0617d8528bf7f9e994c08b"}, "vout": 0, "txid": "950630c27ebbfdf3e8b60e57f0e98a59aa7901e7f7b8da08d7de8dc8e06a0e8a"}, {"sequence": 4294967295, "scriptSig": {"hex": "48304502210081a1906a618931d4d3667e1b2b50bb003da7165a5d124315a0db218545f6d42002203331723e049ef31c88f459d969534dabb0b0af0d00cd0de0d3fe5ec305dc891601210399cfb82c4d7c56f0d9c357fcc08bf146afc1a9585e0617d8528bf7f9e994c08b", "asm": "304502210081a1906a618931d4d3667e1b2b50bb003da7165a5d124315a0db218545f6d42002203331723e049ef31c88f459d969534dabb0b0af0d00cd0de0d3fe5ec305dc8916[ALL] 0399cfb82c4d7c56f0d9c357fcc08bf146afc1a9585e0617d8528bf7f9e994c08b"}, "vout": 0, "txid": "82c9d463453ff8559ee482aa0d283f4dd193ed68f727eb3045ce60ebf44df5bf"}, {"sequence": 4294967295, "scriptSig": {"hex": "483045022100e70fa9dc77ab7dde496e96779109872dd2b913f8913f3f558b299ab604574d7b0220410b348d37f848c956afb70138b85e7a1809f1d29b59815c5bc1f64d74d9131a01210399cfb82c4d7c56f0d9c357fcc08bf146afc1a9585e0617d8528bf7f9e994c08b", "asm": "3045022100e70fa9dc77ab7dde496e96779109872dd2b913f8913f3f558b299ab604574d7b0220410b348d37f848c956afb70138b85e7a1809f1d29b59815c5bc1f64d74d9131a[ALL] 0399cfb82c4d7c56f0d9c357fcc08bf146afc1a9585e0617d8528bf7f9e994c08b"}, "vout": 0, "txid": "5f2bd466bd24aa7a9d318e53d64ccaf98b092b1a15bd82456949042fd4f11486"}, {"sequence": 4294967295, "scriptSig": {"hex": "473044022012e88141d4f1f0ed30effeab3e47dccff807e390afdd9c657594f352ca484d02022019638094526ba02ede655e24a1534167b7cbed5d74b5c4c52cafc3f8d8960a5601210399cfb82c4d7c56f0d9c357fcc08bf146afc1a9585e0617d8528bf7f9e994c08b", "asm": "3044022012e88141d4f1f0ed30effeab3e47dccff807e390afdd9c657594f352ca484d02022019638094526ba02ede655e24a1534167b7cbed5d74b5c4c52cafc3f8d8960a56[ALL] 0399cfb82c4d7c56f0d9c357fcc08bf146afc1a9585e0617d8528bf7f9e994c08b"}, "vout": 0, "txid": "a3e6d689fd5e4eb900038ab67363b8760d83f2b187fa604c87983bdd269b8230"}, {"sequence": 4294967295, "scriptSig": {"hex": "47304402200526eb1a6f8b35326409b5cd331f8eaa1c214d0f1eb5caa4ba3ccb50d3f4bd6702207f79c7bc6265b0517581af8b5068d2e2d476a082a18688a507e67cd98accd34001210399cfb82c4d7c56f0d9c357fcc08bf146afc1a9585e0617d8528bf7f9e994c08b", "asm": "304402200526eb1a6f8b35326409b5cd331f8eaa1c214d0f1eb5caa4ba3ccb50d3f4bd6702207f79c7bc6265b0517581af8b5068d2e2d476a082a18688a507e67cd98accd340[ALL] 0399cfb82c4d7c56f0d9c357fcc08bf146afc1a9585e0617d8528bf7f9e994c08b"}, "vout": 1, "txid": "9ade6329723647fabdb661c70da54315a637d21594515f81c05bdaa94e504548"}, {"sequence": 4294967295, "scriptSig": {"hex": "483045022100a29e06b0eff696e87aa0e2a30490110b64c78bfaf600dae7a5e88140a781baff022031b3244374b47f78b8e46047a5e7a211592ae923395693ecee075817c6501e3801210399cfb82c4d7c56f0d9c357fcc08bf146afc1a9585e0617d8528bf7f9e994c08b", "asm": "3045022100a29e06b0eff696e87aa0e2a30490110b64c78bfaf600dae7a5e88140a781baff022031b3244374b47f78b8e46047a5e7a211592ae923395693ecee075817c6501e38[ALL] 0399cfb82c4d7c56f0d9c357fcc08bf146afc1a9585e0617d8528bf7f9e994c08b"}, "vout": 0, "txid": "31841194b14177bd6d44b16e9d8cd177f9da0e85883e0050ee4493639d557cee"}, {"sequence": 4294967295, "scriptSig": {"hex": "473044022076406c761c1942134068d5abd05bdd9e6de77049a7f218a7ce19d60eb4f0efa0022034a9d314f347713223dbd73d141c2ecd5443901f90dc049f2eebc15c53857fe401210399cfb82c4d7c56f0d9c357fcc08bf146afc1a9585e0617d8528bf7f9e994c08b", "asm": "3044022076406c761c1942134068d5abd05bdd9e6de77049a7f218a7ce19d60eb4f0efa0022034a9d314f347713223dbd73d141c2ecd5443901f90dc049f2eebc15c53857fe4[ALL] 0399cfb82c4d7c56f0d9c357fcc08bf146afc1a9585e0617d8528bf7f9e994c08b"}, "vout": 0, "txid": "0f6299b32ee15cfa75259bcb29403d26b7fd4df78eae91118066b07d25238e08"}, {"sequence": 4294967295, "scriptSig": {"hex": "4730440220738da7d822bb8968c0d321680592c71bdca0af42f3984de54c1be24c03ac1244022042124e72abcb8dae1a539d0dc6b73b1152d50c75a7041a2034bcf33d717be7e401210399cfb82c4d7c56f0d9c357fcc08bf146afc1a9585e0617d8528bf7f9e994c08b", "asm": "30440220738da7d822bb8968c0d321680592c71bdca0af42f3984de54c1be24c03ac1244022042124e72abcb8dae1a539d0dc6b73b1152d50c75a7041a2034bcf33d717be7e4[ALL] 0399cfb82c4d7c56f0d9c357fcc08bf146afc1a9585e0617d8528bf7f9e994c08b"}, "vout": 0, "txid": "872d109a9c67aa033670954197ff0b63bb8894f81edfe41370354d78067b1f04"}, {"sequence": 4294967295, "scriptSig": {"hex": "483045022100eb6c3ceb27f2ef08bdca36ccf3672cceef961a573d0d377e4a485bd0e443b9a002200c33b91b26da2c7bedcf45e9a65ca50cd62f5718cc1de938ef68353396034e0f01210399cfb82c4d7c56f0d9c357fcc08bf146afc1a9585e0617d8528bf7f9e994c08b", "asm": "3045022100eb6c3ceb27f2ef08bdca36ccf3672cceef961a573d0d377e4a485bd0e443b9a002200c33b91b26da2c7bedcf45e9a65ca50cd62f5718cc1de938ef68353396034e0f[ALL] 0399cfb82c4d7c56f0d9c357fcc08bf146afc1a9585e0617d8528bf7f9e994c08b"}, "vout": 1, "txid": "d4ddd1af06e720ed9cf4a129838026c253e17313f53e0803bfab32def4e22afa"}, {"sequence": 4294967295, "scriptSig": {"hex": "483045022100a2907cdf7f40a6d5085042a730257e6adc1d6a3d101cdedbe0bb7e29a830041f02204eea58a4e6347de05561b0dadbd51aaf88d651c4731981e1632a967443360bcb01210399cfb82c4d7c56f0d9c357fcc08bf146afc1a9585e0617d8528bf7f9e994c08b", "asm": "3045022100a2907cdf7f40a6d5085042a730257e6adc1d6a3d101cdedbe0bb7e29a830041f02204eea58a4e6347de05561b0dadbd51aaf88d651c4731981e1632a967443360bcb[ALL] 0399cfb82c4d7c56f0d9c357fcc08bf146afc1a9585e0617d8528bf7f9e994c08b"}, "vout": 1, "txid": "28b00180f8b74cdbc547ae5d8efa858af04e16d92e193a83673e89287fb52c18"}, {"sequence": 4294967295, "scriptSig": {"hex": "483045022100e979dddbf757c656c15b453291b29e1ebdd5669a1a4d90230853b751fef3368602201683ab9328f5a884aaf30c7c65563e421360364a4c54d71945476d621ae8d4b901210399cfb82c4d7c56f0d9c357fcc08bf146afc1a9585e0617d8528bf7f9e994c08b", "asm": "3045022100e979dddbf757c656c15b453291b29e1ebdd5669a1a4d90230853b751fef3368602201683ab9328f5a884aaf30c7c65563e421360364a4c54d71945476d621ae8d4b9[ALL] 0399cfb82c4d7c56f0d9c357fcc08bf146afc1a9585e0617d8528bf7f9e994c08b"}, "vout": 0, "txid": "0077e665cc273b52fe30dae5cce262fd28d1a9c5f93a93430507a9fc1f0fa3da"}], "txid": "e3ee6c88ea76b095a4a7980251257aa8c360f63322d271e6c10ee5a3c41ff7cc", "blocktime": 1537870268, "version": 1, "confirmations": 11518, "time": 1537870268, "locktime": 0, "vsize": 2701, "size": 2701}