{"hash": "e3f3e29e4fb4465cca46138b496cb01fccabe180613794684e1e7ca98c07594b", "blockhash": "0000000000000000000e13cef7c366c0283d82e591d1acd082e914b08063cdf1", "vout": [{"scriptPubKey": {"reqSigs": 1, "hex": "76a914c136c297885bd709f76a2b11e1fe11bec09d821088ac", "addresses": ["1Jcd1pm3f1kg1jnTMjNakb3sikBgEW9QTq"], "asm": "OP_DUP OP_HASH160 c136c297885bd709f76a2b11e1fe11bec09d8210 OP_EQUALVERIFY OP_CHECKSIG", "type": "pubkeyhash"}, "value": 9.52297272, "n": 0}], "hex": "0100000001265903999327035c2e40061453c361e3deb0bad25a5e0e5140b5df5c12e3128f04000000fdfe0000483045022100f25c8c1e683cc0e790f989b997eb8ce4cd2103efd021eb64ea8927e20fe4cae102200d871b5a772e1990b1614b871c3cfaca453a0a694b970be7ec81d056bc07951401483045022100c4af60eb48de864acb6ea9ee1a9e0da17e41a1238a5e7694e38d4460fce2f75802204d7ddcf4ea5c34051c058eba186cf987a7272a0284f04114441b8f03b04ee5bf014c69522102335111d8a48304027fa9d773d4272e0faa85909119ef9861ba8c848267a30c3f21029b7a785230b2ec36aa67401848ade659a0a59d07d920feb09bcb3ef95ac171282102c800d607657cef2b0a8e2aa944d60b74fecef1461097699e7e08a4da06b1360653aefdffffff0138e7c238000000001976a914c136c297885bd709f76a2b11e1fe11bec09d821088ac10490800", "vin": [{"sequence": 4294967293, "scriptSig": {"hex": "00483045022100f25c8c1e683cc0e790f989b997eb8ce4cd2103efd021eb64ea8927e20fe4cae102200d871b5a772e1990b1614b871c3cfaca453a0a694b970be7ec81d056bc07951401483045022100c4af60eb48de864acb6ea9ee1a9e0da17e41a1238a5e7694e38d4460fce2f75802204d7ddcf4ea5c34051c058eba186cf987a7272a0284f04114441b8f03b04ee5bf014c69522102335111d8a48304027fa9d773d4272e0faa85909119ef9861ba8c848267a30c3f21029b7a785230b2ec36aa67401848ade659a0a59d07d920feb09bcb3ef95ac171282102c800d607657cef2b0a8e2aa944d60b74fecef1461097699e7e08a4da06b1360653ae", "asm": "0 3045022100f25c8c1e683cc0e790f989b997eb8ce4cd2103efd021eb64ea8927e20fe4cae102200d871b5a772e1990b1614b871c3cfaca453a0a694b970be7ec81d056bc079514[ALL] 3045022100c4af60eb48de864acb6ea9ee1a9e0da17e41a1238a5e7694e38d4460fce2f75802204d7ddcf4ea5c34051c058eba186cf987a7272a0284f04114441b8f03b04ee5bf[ALL] 522102335111d8a48304027fa9d773d4272e0faa85909119ef9861ba8c848267a30c3f21029b7a785230b2ec36aa67401848ade659a0a59d07d920feb09bcb3ef95ac171282102c800d607657cef2b0a8e2aa944d60b74fecef1461097699e7e08a4da06b1360653ae"}, "vout": 4, "txid": "8f12e3125cdfb540510e5e5ad2bab0dee361c3531406402e5c03279399035926"}], "txid": "e3f3e29e4fb4465cca46138b496cb01fccabe180613794684e1e7ca98c07594b", "blocktime": 1537871767, "version": 1, "confirmations": 11493, "time": 1537871767, "locktime": 542992, "vsize": 341, "size": 341}