{"hash": "ec9b1b3dd10d98175c20b5adb8128c383c0db72cd0a1501c4a56df718e575a8d", "blockhash": "0000000000000000001f0ddff1eddb255c1121bcd4da4f1bc9a0da00cae72433", "vout": [{"scriptPubKey": {"reqSigs": 1, "hex": "76a91483d2c9795bb16fdc5875d34c424264871151bba888ac", "addresses": ["1D222sLUsXBv8JgdtbmkZNqjdJ78oKbNFz"], "asm": "OP_DUP OP_HASH160 83d2c9795bb16fdc5875d34c424264871151bba8 OP_EQUALVERIFY OP_CHECKSIG", "type": "pubkeyhash"}, "value": 0.001, "n": 0}, {"scriptPubKey": {"reqSigs": 1, "hex": "0014b223d74c82d1aea04a03d869555f68010a6feb7c", "addresses": ["bc1qkg3awnyz6xh2qjsrmp542hmgqy9xl6muuuccsw"], "asm": "0 b223d74c82d1aea04a03d869555f68010a6feb7c", "type": "witness_v0_keyhash"}, "value": 1.412e-05, "n": 1}], "hex": "01000000000101491b646b208feb207f1c48a4ad34e5f83940e60047da1c8f014418db9ae89ed14f0000001716001499b27c4b53c7f5a9f41261008736429b9b8b6c0effffffff02a0860100000000001976a91483d2c9795bb16fdc5875d34c424264871151bba888ac8405000000000000160014b223d74c82d1aea04a03d869555f68010a6feb7c02483045022100d5a9cf627ef3d2365efd1a620805d461289f51fe9bbff620e762bb6ea25e0e840220653d665962321f7a09536ec07bd15cf291b01e7e63a962771d3e7136c8573e010121038eba45e6bf26ce6d081dec7e4003666ce46965fa5bb2654d0e53c0ad8216944600000000", "vin": [{"txinwitness": ["3045022100d5a9cf627ef3d2365efd1a620805d461289f51fe9bbff620e762bb6ea25e0e840220653d665962321f7a09536ec07bd15cf291b01e7e63a962771d3e7136c8573e0101", "038eba45e6bf26ce6d081dec7e4003666ce46965fa5bb2654d0e53c0ad82169446"], "sequence": 4294967295, "scriptSig": {"hex": "16001499b27c4b53c7f5a9f41261008736429b9b8b6c0e", "asm": "001499b27c4b53c7f5a9f41261008736429b9b8b6c0e"}, "vout": 79, "txid": "d19ee89adb1844018f1cda4700e64039f8e534ada4481c7f20eb8f206b641b49"}], "txid": "e3f5d640fb166ddcf6583abb86b58c7daf553bd912f86dceab5d9c792fe61826", "blocktime": 1537872018, "version": 1, "confirmations": 11489, "time": 1537872018, "locktime": 0, "vsize": 167, "size": 249}