{"hash": "1ba286952e061c043f6ed2803e512cb38e73b29a85e7fb775c57a2c3f59717a7", "blockhash": "00000000000000000024a2167bbff67b0be802c0b01cdd79e6331c2be6459f87", "vout": [{"scriptPubKey": {"reqSigs": 1, "hex": "76a914e70393ff1ce377767e37eaca42d0b1ea8c6c546a88ac", "addresses": ["1N4VNvcaef7BQfwUvNmwAdgMB7SKd6s6Kg"], "asm": "OP_DUP OP_HASH160 e70393ff1ce377767e37eaca42d0b1ea8c6c546a OP_EQUALVERIFY OP_CHECKSIG", "type": "pubkeyhash"}, "value": 0.0297, "n": 0}, {"scriptPubKey": {"reqSigs": 1, "hex": "a9140155874553c527f049c0ae3d5a778b0e04e347bb87", "addresses": ["31p54MS7MSBGATPf7L9k6okpqGURCLuP5X"], "asm": "OP_HASH160 0155874553c527f049c0ae3d5a778b0e04e347bb OP_EQUAL", "type": "scripthash"}, "value": 2.42957752, "n": 1}], "hex": "01000000000101c487e201892fdfd0a1dffd46f58979a3a0dee1fde5fc188d3f9856c46a4a723c0100000023220020ead9813ef71a14a1fc550cfb5c5dd853d1e6bbccfde25f8f3c1124c6b47fda22ffffffff0290512d00000000001976a914e70393ff1ce377767e37eaca42d0b1ea8c6c546a88acb83d7b0e0000000017a9140155874553c527f049c0ae3d5a778b0e04e347bb8704004730440220394462594d293409b9e1e8709b009a83e44e19d2ff0dce8a9375f5e9fb14cce80220028a57881d160d1bb9f575cbaddfe1b6cf2805a575a87600d1b24f735db0bfe201473044022064fccf599a03acbf60a4d33d75b29b49d5a93e767e45c42a7a20ed5904f31a5b022045f76884ca8de56dae00a33c2b5ed7316995f2626356c2e3726e9ad397f8749e0147522103baf82ab85653fe1a4c26c826d6e71ff0f794cef0ba8d4b9c350b7cd8a099295c210374d34c43195a03910cd16cba2c089b5a40de35ab5857ec656bdacade80fb67c052ae00000000", "vin": [{"txinwitness": ["", "30440220394462594d293409b9e1e8709b009a83e44e19d2ff0dce8a9375f5e9fb14cce80220028a57881d160d1bb9f575cbaddfe1b6cf2805a575a87600d1b24f735db0bfe201", "3044022064fccf599a03acbf60a4d33d75b29b49d5a93e767e45c42a7a20ed5904f31a5b022045f76884ca8de56dae00a33c2b5ed7316995f2626356c2e3726e9ad397f8749e01", "522103baf82ab85653fe1a4c26c826d6e71ff0f794cef0ba8d4b9c350b7cd8a099295c210374d34c43195a03910cd16cba2c089b5a40de35ab5857ec656bdacade80fb67c052ae"], "sequence": 4294967295, "scriptSig": {"hex": "220020ead9813ef71a14a1fc550cfb5c5dd853d1e6bbccfde25f8f3c1124c6b47fda22", "asm": "0020ead9813ef71a14a1fc550cfb5c5dd853d1e6bbccfde25f8f3c1124c6b47fda22"}, "vout": 1, "txid": "3c724a6ac456983f8d18fce5fde1dea0a37989f546fddfa1d0df2f8901e287c4"}], "txid": "e3fa62eb8db49248bea3e3b77b4220f280c7cc788f51592186deca9b7434053a", "blocktime": 1537870564, "version": 1, "confirmations": 11515, "time": 1537870564, "locktime": 0, "vsize": 207, "size": 372}