{"hash": "e400ead453ad2beeca242cab4d1e009a92d27a7b6c7e7c4fe5d31cbe492781df", "blockhash": "00000000000000000004ffacab907a6b429b9a5745fa0b75af4234bf69dd7176", "vout": [{"scriptPubKey": {"reqSigs": 1, "hex": "76a914c5b7fd920dce5f61934e792c7e6fcc829aff533d88ac", "addresses": ["1K2SXgApmo9uZoyahvsbSanpVWbzZWVVMF"], "asm": "OP_DUP OP_HASH160 c5b7fd920dce5f61934e792c7e6fcc829aff533d OP_EQUALVERIFY OP_CHECKSIG", "type": "pubkeyhash"}, "value": 0.0042541, "n": 0}, {"scriptPubKey": {"type": "nulldata", "hex": "6a28466100000002707e90d094709c17e6df2ddb5ad61f1c04157794e5c69d93f83e953bb80f27e716b9", "asm": "OP_RETURN 466100000002707e90d094709c17e6df2ddb5ad61f1c04157794e5c69d93f83e953bb80f27e716b9"}, "value": 0.0, "n": 1}], "hex": "0200000001575bc42c9fa61a8c0701811cc42a0eb96d537620e09084df1e84802feb7b152e000000006b483045022100929dae463cf50711f082853ffeb186f47224f9c8482b67c846f131944d1577c702205c14c2da99cc22350a742e24be0c9024d87fb432dcc763e3e9fa6726871323120121027e706cd1c919431b693a0247e4a239e632659a8723a621a91ec610c64f4173acffffffff02c27d0600000000001976a914c5b7fd920dce5f61934e792c7e6fcc829aff533d88ac00000000000000002a6a28466100000002707e90d094709c17e6df2ddb5ad61f1c04157794e5c69d93f83e953bb80f27e716b900000000", "vin": [{"sequence": 4294967295, "scriptSig": {"hex": "483045022100929dae463cf50711f082853ffeb186f47224f9c8482b67c846f131944d1577c702205c14c2da99cc22350a742e24be0c9024d87fb432dcc763e3e9fa6726871323120121027e706cd1c919431b693a0247e4a239e632659a8723a621a91ec610c64f4173ac", "asm": "3045022100929dae463cf50711f082853ffeb186f47224f9c8482b67c846f131944d1577c702205c14c2da99cc22350a742e24be0c9024d87fb432dcc763e3e9fa672687132312[ALL] 027e706cd1c919431b693a0247e4a239e632659a8723a621a91ec610c64f4173ac"}, "vout": 0, "txid": "2e157beb2f80841edf8490e02076536db90e2ac41c8101078c1aa69f2cc45b57"}], "txid": "e400ead453ad2beeca242cab4d1e009a92d27a7b6c7e7c4fe5d31cbe492781df", "blocktime": 1537875543, "version": 2, "confirmations": 11464, "time": 1537875543, "locktime": 0, "vsize": 243, "size": 243}