{"hash": "e402033372c69f486bf94d01ae8b10f8690a1a5bad6615f11799969637e75c00", "blockhash": "0000000000000000000dcc0f55137456b1a82d3642486a52398922ac4d620174", "vout": [{"scriptPubKey": {"reqSigs": 1, "hex": "a914bf928cedb5fc68058f5736e075364ca8b4b1b76187", "addresses": ["3K9xYh1zYgN3JFmMHARrJn1xa6wjAE3n4X"], "asm": "OP_HASH160 bf928cedb5fc68058f5736e075364ca8b4b1b761 OP_EQUAL", "type": "scripthash"}, "value": 0.00015595, "n": 0}, {"scriptPubKey": {"reqSigs": 1, "hex": "76a9141cf070435894ea127a600add4523010548672e0188ac", "addresses": ["13e1xLKJM5nMj1sfRPfvQ2iq766Pgi4hNE"], "asm": "OP_DUP OP_HASH160 1cf070435894ea127a600add4523010548672e01 OP_EQUALVERIFY OP_CHECKSIG", "type": "pubkeyhash"}, "value": 0.03347219, "n": 1}], "hex": "01000000012badc2ccceff71d969b612b06a445e3f7f2602ef14850a7bb81d5f43816c5872010000006a473044022053cc2f34f10e77da7554d80f997337e7d4ef68e29157a8e643709cf3806351350220251382e99c646f27338b3cd9958a36d2773f923afd6920dd349fd5590b53ec2e012103f2d6f2b1d27678510c2bc9255b963d711d372990056aa62d3e9e67fabe478f4cffffffff02eb3c00000000000017a914bf928cedb5fc68058f5736e075364ca8b4b1b7618713133300000000001976a9141cf070435894ea127a600add4523010548672e0188ac00000000", "vin": [{"sequence": 4294967295, "scriptSig": {"hex": "473044022053cc2f34f10e77da7554d80f997337e7d4ef68e29157a8e643709cf3806351350220251382e99c646f27338b3cd9958a36d2773f923afd6920dd349fd5590b53ec2e012103f2d6f2b1d27678510c2bc9255b963d711d372990056aa62d3e9e67fabe478f4c", "asm": "3044022053cc2f34f10e77da7554d80f997337e7d4ef68e29157a8e643709cf3806351350220251382e99c646f27338b3cd9958a36d2773f923afd6920dd349fd5590b53ec2e[ALL] 03f2d6f2b1d27678510c2bc9255b963d711d372990056aa62d3e9e67fabe478f4c"}, "vout": 1, "txid": "72586c81435f1db87b0a8514ef02267f3f5e446ab012b669d971ffceccc2ad2b"}], "txid": "e402033372c69f486bf94d01ae8b10f8690a1a5bad6615f11799969637e75c00", "blocktime": 1537870268, "version": 1, "confirmations": 11518, "time": 1537870268, "locktime": 0, "vsize": 223, "size": 223}