{"hash": "e4081b2d20bf82d9c9c563cda8f42e8ee62c4a87ba7c671a788b826ca862fc04", "blockhash": "0000000000000000000e13cef7c366c0283d82e591d1acd082e914b08063cdf1", "vout": [{"scriptPubKey": {"reqSigs": 1, "hex": "76a91495258e0619e9b4507ffd1cbfa1e48731d56a8d2088ac", "addresses": ["1EbcfwD7CXsUiaeMyKHwThzoDJnyBeq64v"], "asm": "OP_DUP OP_HASH160 95258e0619e9b4507ffd1cbfa1e48731d56a8d20 OP_EQUALVERIFY OP_CHECKSIG", "type": "pubkeyhash"}, "value": 0.01890899, "n": 0}, {"scriptPubKey": {"reqSigs": 1, "hex": "76a9145a39ca46bf33eda555fa860756c59c5203e6ec8588ac", "addresses": ["19E53bTtCaPRMiywV5wVdBuwrkLDDUt5KK"], "asm": "OP_DUP OP_HASH160 5a39ca46bf33eda555fa860756c59c5203e6ec85 OP_EQUALVERIFY OP_CHECKSIG", "type": "pubkeyhash"}, "value": 0.45066097, "n": 1}], "hex": "01000000018263a7ceeb33f002a12c41e332660426fa607162ae21474f72009174d2a5a06a010000006a4730440220789da609f60aa4658afae3a069e2c019710e7157fcc9c0ee06ac09d88a1d448e02205c9f70fc38c81734002c951aada5b49d4df8a57ffcfa8e8378719fecf7719c0001210282e09b18f0b4184d12623ad88d28decf78fdfca4a588134bbbb1d521c1a8a138ffffffff0253da1c00000000001976a91495258e0619e9b4507ffd1cbfa1e48731d56a8d2088ac71a7af02000000001976a9145a39ca46bf33eda555fa860756c59c5203e6ec8588ac00000000", "vin": [{"sequence": 4294967295, "scriptSig": {"hex": "4730440220789da609f60aa4658afae3a069e2c019710e7157fcc9c0ee06ac09d88a1d448e02205c9f70fc38c81734002c951aada5b49d4df8a57ffcfa8e8378719fecf7719c0001210282e09b18f0b4184d12623ad88d28decf78fdfca4a588134bbbb1d521c1a8a138", "asm": "30440220789da609f60aa4658afae3a069e2c019710e7157fcc9c0ee06ac09d88a1d448e02205c9f70fc38c81734002c951aada5b49d4df8a57ffcfa8e8378719fecf7719c00[ALL] 0282e09b18f0b4184d12623ad88d28decf78fdfca4a588134bbbb1d521c1a8a138"}, "vout": 1, "txid": "6aa0a5d2749100724f4721ae627160fa26046632e3412ca102f033ebcea76382"}], "txid": "e4081b2d20bf82d9c9c563cda8f42e8ee62c4a87ba7c671a788b826ca862fc04", "blocktime": 1537871767, "version": 1, "confirmations": 11493, "time": 1537871767, "locktime": 0, "vsize": 225, "size": 225}