{"hash": "e40af9e3c5b2c1839af44f83305605c6496dee15878490e50e0c4bed1733dc9d", "blockhash": "0000000000000000000dcc0f55137456b1a82d3642486a52398922ac4d620174", "vout": [{"scriptPubKey": {"reqSigs": 1, "hex": "76a91493eefb5852e4b31c056b907ac3f888f3f13c8d8f88ac", "addresses": ["1EVCcwuyDftWtkmjmTNC3ef6BDJYFoH6Xn"], "asm": "OP_DUP OP_HASH160 93eefb5852e4b31c056b907ac3f888f3f13c8d8f OP_EQUALVERIFY OP_CHECKSIG", "type": "pubkeyhash"}, "value": 0.0877, "n": 0}, {"scriptPubKey": {"reqSigs": 1, "hex": "76a9141889b11f1bb865a923756ca87c7a309e8719db0488ac", "addresses": ["13EkAc1JQbXjaRP8CJDS9wxJdCiAQa9GyJ"], "asm": "OP_DUP OP_HASH160 1889b11f1bb865a923756ca87c7a309e8719db04 OP_EQUALVERIFY OP_CHECKSIG", "type": "pubkeyhash"}, "value": 4.05e-05, "n": 1}], "hex": "020000000174e160c2f73b19a4a4872ad9b9b8c6fbce30181a87cfaba485230aedeef0d494010000006a473044022078a51e52554cb31f42920ad554cd6b503e11d5389d00564ee25d102730663cce02203c471b0eec90e1754a435affcb00514e2d77c3c8c61c391229b5c99c5feb17680121037ba6cac07c3b1d524ae8f635776fbf734c43c7906ffef335dd660a856d3d9ca4ffffffff02d0d18500000000001976a91493eefb5852e4b31c056b907ac3f888f3f13c8d8f88acd20f0000000000001976a9141889b11f1bb865a923756ca87c7a309e8719db0488ac00000000", "vin": [{"sequence": 4294967295, "scriptSig": {"hex": "473044022078a51e52554cb31f42920ad554cd6b503e11d5389d00564ee25d102730663cce02203c471b0eec90e1754a435affcb00514e2d77c3c8c61c391229b5c99c5feb17680121037ba6cac07c3b1d524ae8f635776fbf734c43c7906ffef335dd660a856d3d9ca4", "asm": "3044022078a51e52554cb31f42920ad554cd6b503e11d5389d00564ee25d102730663cce02203c471b0eec90e1754a435affcb00514e2d77c3c8c61c391229b5c99c5feb1768[ALL] 037ba6cac07c3b1d524ae8f635776fbf734c43c7906ffef335dd660a856d3d9ca4"}, "vout": 1, "txid": "94d4f0eeed0a2385a4abcf871a1830cefbc6b8b9d92a87a4a4193bf7c260e174"}], "txid": "e40af9e3c5b2c1839af44f83305605c6496dee15878490e50e0c4bed1733dc9d", "blocktime": 1537870268, "version": 2, "confirmations": 11517, "time": 1537870268, "locktime": 0, "vsize": 225, "size": 225}