{"hash": "48aa8282d950308a7c09287f6088dcdbb24ca9cc61e8c4fce18caf6b41345cb8", "blockhash": "0000000000000000000baef3f32e3676a92c3b2e5da21b426e4f302fc371ce76", "vout": [{"scriptPubKey": {"reqSigs": 1, "hex": "76a91498fd075d12d501bb7d413fe356ca412013c4ddbf88ac", "addresses": ["1EwvpuVGHtd9LmAqYXTJhsxZAmykCpuoEK"], "asm": "OP_DUP OP_HASH160 98fd075d12d501bb7d413fe356ca412013c4ddbf OP_EQUALVERIFY OP_CHECKSIG", "type": "pubkeyhash"}, "value": 0.00239875, "n": 0}, {"scriptPubKey": {"reqSigs": 1, "hex": "a914a5c679defd49547b8133a1367eeadbdeaecec3da87", "addresses": ["3GoZBZ6F8g4UiCt7moPNLDX7KKwgtGgLUT"], "asm": "OP_HASH160 a5c679defd49547b8133a1367eeadbdeaecec3da OP_EQUAL", "type": "scripthash"}, "value": 0.2762252, "n": 1}], "hex": "0100000000010165891eae2962cb68cc3416f99668e81baf214c8ae7985189a25dd6fb2fb9bec301000000232200202d90cd274cea8141a030c0b79acc5b5c0b80b73d028692a1104913808bff6c09ffffffff0203a90300000000001976a91498fd075d12d501bb7d413fe356ca412013c4ddbf88ac787ca5010000000017a914a5c679defd49547b8133a1367eeadbdeaecec3da870400483045022100aea362bb07587a98358325e4ba72a165218e9d3e8db4290105c236b4fb2eb3920220216fbbb6bca9c70c3c75484278f93e64cd0561794c353895c2d186c78d07f74d01473044022032ce13dfbb1fd7dc9df2eebd94d25594474629ca7fdc77e2676c66fdd494e857022016affcafe9db03f9299e5e85e8fd7962eb4815f2a5b186e20315fc56ec3fca3f014752210295d70c0f10033e6e119fdc61ddd495bfe23995150af6df4688db5bf235f2853b21023e4b58fb2a91970de56515d11487aabd364f0404f1099bef70493cc56002342352ae00000000", "vin": [{"txinwitness": ["", "3045022100aea362bb07587a98358325e4ba72a165218e9d3e8db4290105c236b4fb2eb3920220216fbbb6bca9c70c3c75484278f93e64cd0561794c353895c2d186c78d07f74d01", "3044022032ce13dfbb1fd7dc9df2eebd94d25594474629ca7fdc77e2676c66fdd494e857022016affcafe9db03f9299e5e85e8fd7962eb4815f2a5b186e20315fc56ec3fca3f01", "52210295d70c0f10033e6e119fdc61ddd495bfe23995150af6df4688db5bf235f2853b21023e4b58fb2a91970de56515d11487aabd364f0404f1099bef70493cc56002342352ae"], "sequence": 4294967295, "scriptSig": {"hex": "2200202d90cd274cea8141a030c0b79acc5b5c0b80b73d028692a1104913808bff6c09", "asm": "00202d90cd274cea8141a030c0b79acc5b5c0b80b73d028692a1104913808bff6c09"}, "vout": 1, "txid": "c3beb92ffbd65da2895198e78a4c21af1be86896f91634cc68cb6229ae1e8965"}], "txid": "e40d724a207d77f7bfed755f3e9a09b76f4efceb9f738262878890365255fc15", "blocktime": 1537876114, "version": 1, "confirmations": 11462, "time": 1537876114, "locktime": 0, "vsize": 208, "size": 373}