{"hash": "e40ff7075f629cdee72097c8a72e9641e8681c54659efd94d98f091b326c25b5", "blockhash": "0000000000000000001f0ddff1eddb255c1121bcd4da4f1bc9a0da00cae72433", "vout": [{"scriptPubKey": {"reqSigs": 1, "hex": "76a9146a511ce1147e01acb085948d59c0290de78bd07188ac", "addresses": ["1Ah9o9kPFpJRieP4zoucN98pLnVu4dFjLK"], "asm": "OP_DUP OP_HASH160 6a511ce1147e01acb085948d59c0290de78bd071 OP_EQUALVERIFY OP_CHECKSIG", "type": "pubkeyhash"}, "value": 0.04827258, "n": 0}, {"scriptPubKey": {"reqSigs": 1, "hex": "a914dd865e257764c65f9901c3767abdedcc1889e2b087", "addresses": ["3MtLDySJpaoZ3qwJYZmWghaJxAy6mouDUm"], "asm": "OP_HASH160 dd865e257764c65f9901c3767abdedcc1889e2b0 OP_EQUAL", "type": "scripthash"}, "value": 0.00156441, "n": 1}], "hex": "0100000001bcf11620602f0ea2f47091a3a187e5bf0b5ea8ecb347cc922852c1a047a3f286010000006a4730440220326e908de720f29f50aafee344c05211f4e67ef6c29a73971e2bb4973dfa1b02022029d67761b36f7bb2f8ba06975568eccdc2d797624751fb21b4c6825c4e82c91c0121033fd47cbcb3b5d82b01877cdb925ddf67ee2a83813c3c7cca1ef9971ad2e0471cffffffff027aa84900000000001976a9146a511ce1147e01acb085948d59c0290de78bd07188ac196302000000000017a914dd865e257764c65f9901c3767abdedcc1889e2b08700000000", "vin": [{"sequence": 4294967295, "scriptSig": {"hex": "4730440220326e908de720f29f50aafee344c05211f4e67ef6c29a73971e2bb4973dfa1b02022029d67761b36f7bb2f8ba06975568eccdc2d797624751fb21b4c6825c4e82c91c0121033fd47cbcb3b5d82b01877cdb925ddf67ee2a83813c3c7cca1ef9971ad2e0471c", "asm": "30440220326e908de720f29f50aafee344c05211f4e67ef6c29a73971e2bb4973dfa1b02022029d67761b36f7bb2f8ba06975568eccdc2d797624751fb21b4c6825c4e82c91c[ALL] 033fd47cbcb3b5d82b01877cdb925ddf67ee2a83813c3c7cca1ef9971ad2e0471c"}, "vout": 1, "txid": "86f2a347a0c1522892cc47b3eca85e0bbfe587a1a39170f4a20e2f602016f1bc"}], "txid": "e40ff7075f629cdee72097c8a72e9641e8681c54659efd94d98f091b326c25b5", "blocktime": 1537872018, "version": 1, "confirmations": 11489, "time": 1537872018, "locktime": 0, "vsize": 223, "size": 223}