{"hash": "bfbd4359d49b62d5f109bc974b70c70e7401312f554c0b635cc9e4416abc6819", "blockhash": "0000000000000000000e13cef7c366c0283d82e591d1acd082e914b08063cdf1", "vout": [{"scriptPubKey": {"reqSigs": 1, "hex": "76a91485175e178d0bb0c4d658a2a7f4027b5dd880a7e488ac", "addresses": ["1D8is7uY51sLTYNjgcE2TfWnkVL2sEutc7"], "asm": "OP_DUP OP_HASH160 85175e178d0bb0c4d658a2a7f4027b5dd880a7e4 OP_EQUALVERIFY OP_CHECKSIG", "type": "pubkeyhash"}, "value": 0.003, "n": 0}, {"scriptPubKey": {"reqSigs": 1, "hex": "0014623e614fb1851ff0cc028e829b753f0ef4046be0", "addresses": ["bc1qvglxzna3s50lpnqz36pfkaflpm6qg6lqajhzfm"], "asm": "0 623e614fb1851ff0cc028e829b753f0ef4046be0", "type": "witness_v0_keyhash"}, "value": 3.07e-05, "n": 1}], "hex": "010000000001011cdc8722cec35e5bd8a31fe36c7fab44d6c17eecc65d25f0b2dd945e9d48318c0100000000ffffffff02e0930400000000001976a91485175e178d0bb0c4d658a2a7f4027b5dd880a7e488acfe0b000000000000160014623e614fb1851ff0cc028e829b753f0ef4046be002483045022100cbfd2bd39d8b55927f494410aa059d482f0e4dd5250ca39513dfa90136445bf502204465dd40f24f7191afbd28b4e324c95c8abacd8b2969fd2d6eb1e3da8562e2af012103738054400ac725cbd8c86c519f3b78c8416618b01accac98243bf44e6684818200000000", "vin": [{"txinwitness": ["3045022100cbfd2bd39d8b55927f494410aa059d482f0e4dd5250ca39513dfa90136445bf502204465dd40f24f7191afbd28b4e324c95c8abacd8b2969fd2d6eb1e3da8562e2af01", "03738054400ac725cbd8c86c519f3b78c8416618b01accac98243bf44e66848182"], "sequence": 4294967295, "scriptSig": {"hex": "", "asm": ""}, "vout": 1, "txid": "8c31489d5e94ddb2f0255dc6ec7ec1d644ab7f6ce31fa3d85b5ec3ce2287dc1c"}], "txid": "e4142a5bf804987123a67ab0072203ea35e43619fffd247b058cd39dc8f21c83", "blocktime": 1537871767, "version": 1, "confirmations": 11495, "time": 1537871767, "locktime": 0, "vsize": 144, "size": 226}