{"hash": "e416028ab1b312562404f510ea5ffa092402871bb1d9d3179e8a0d2fd87b8a0b", "blockhash": "0000000000000000001f0ddff1eddb255c1121bcd4da4f1bc9a0da00cae72433", "vout": [{"scriptPubKey": {"reqSigs": 1, "hex": "76a9140a6b825daa1b89f8e100ed8eec6d79b592500f4988ac", "addresses": ["1x6YnuBVeeE65dQRZztRWgUPwyBjHCA5g"], "asm": "OP_DUP OP_HASH160 0a6b825daa1b89f8e100ed8eec6d79b592500f49 OP_EQUALVERIFY OP_CHECKSIG", "type": "pubkeyhash"}, "value": 0.44646712, "n": 0}, {"scriptPubKey": {"reqSigs": 1, "hex": "76a914d36791745ff4323e12a53975ee694525f4342a5d88ac", "addresses": ["1LGoeX98ZRhi5SNUh1UWgqmkYaYgfv62n9"], "asm": "OP_DUP OP_HASH160 d36791745ff4323e12a53975ee694525f4342a5d OP_EQUALVERIFY OP_CHECKSIG", "type": "pubkeyhash"}, "value": 5.46e-06, "n": 1}, {"scriptPubKey": {"type": "nulldata", "hex": "6a146f6d6e69000000000000001f0000008628324200", "asm": "OP_RETURN 6f6d6e69000000000000001f0000008628324200"}, "value": 0.0, "n": 2}], "hex": "0100000001150b6099f69dcba8d70e7e542f49531c31b647e9486c385f9fd77cada3622b2b000000006a473044022066524e88b6a3b790861b67dae2e2b2da5195f619b3746dc7cc366c3638e493cf0220448e19b1435f02dea31aa0588b10c939759e8f13a9a1843895a91c28635f4575012103fe02b06a6bfd9b5a83e0417430a3235a39a0b4c7973591ca27ac58f6474d9120ffffffff033841a902000000001976a9140a6b825daa1b89f8e100ed8eec6d79b592500f4988ac22020000000000001976a914d36791745ff4323e12a53975ee694525f4342a5d88ac0000000000000000166a146f6d6e69000000000000001f000000862832420000000000", "vin": [{"sequence": 4294967295, "scriptSig": {"hex": "473044022066524e88b6a3b790861b67dae2e2b2da5195f619b3746dc7cc366c3638e493cf0220448e19b1435f02dea31aa0588b10c939759e8f13a9a1843895a91c28635f4575012103fe02b06a6bfd9b5a83e0417430a3235a39a0b4c7973591ca27ac58f6474d9120", "asm": "3044022066524e88b6a3b790861b67dae2e2b2da5195f619b3746dc7cc366c3638e493cf0220448e19b1435f02dea31aa0588b10c939759e8f13a9a1843895a91c28635f4575[ALL] 03fe02b06a6bfd9b5a83e0417430a3235a39a0b4c7973591ca27ac58f6474d9120"}, "vout": 0, "txid": "2b2b62a3ad7cd79f5f386c48e947b6311c53492f547e0ed7a8cb9df699600b15"}], "txid": "e416028ab1b312562404f510ea5ffa092402871bb1d9d3179e8a0d2fd87b8a0b", "blocktime": 1537872018, "version": 1, "confirmations": 11489, "time": 1537872018, "locktime": 0, "vsize": 256, "size": 256}