{"hash": "e41be110ebac6e9744b30e9e78882a8ab22b6e80bec781f2f1a94ac6963443fd", "blockhash": "0000000000000000001f76057863aec43deb6fa401d9628bb513d65a8098bfab", "vout": [{"scriptPubKey": {"reqSigs": 1, "hex": "76a91426f6fe603d51932e4fd6ebe391afbc42a4bd745188ac", "addresses": ["14Z2ZiADEWExWGApoNzWyNKzTYHRqRsJJn"], "asm": "OP_DUP OP_HASH160 26f6fe603d51932e4fd6ebe391afbc42a4bd7451 OP_EQUALVERIFY OP_CHECKSIG", "type": "pubkeyhash"}, "value": 0.132883, "n": 0}, {"scriptPubKey": {"reqSigs": 1, "hex": "a914c6d76c6f2acfd75d1be56fc59537894872744c3887", "addresses": ["3KpPnRDTk5skVeBEBuerQK9w8GMq5JVncq"], "asm": "OP_HASH160 c6d76c6f2acfd75d1be56fc59537894872744c38 OP_EQUAL", "type": "scripthash"}, "value": 0.36, "n": 1}], "hex": "01000000020ef56601fc36d9da1114e1423eb23b62ed52d93cb2470ef7abd5617c44b8105c040000006a47304402203607cae05dc2d8831dabb24cecf1c90593088d6bac5af88e8c0eb34efe6a378a022026865357231459efaeb1f1dd6200da7572cc3f83262ae51fc057bdbb282ca7c20121034ee4a8b7dff2fb3a9d9755c2d2489207a4ffa5647b6dd96d5e60d2d89b4329e3feffffff7844f21743a599ec5f964eadb6c86bf3dbaf2ae8dc7554ea8c3b4bd6790ace8b010000006b483045022100bd8c37c10b4880bc78357700afde9204c04890b9b691e677358e2a222c574446022004b352ce672e15c06d72c811a475d0dee44f842ef3c263d47172ac56bc9ca90c01210287a89eb8ade8dbf7ce59bc0e6d240648116eeeb2cdb92ea7a2eeda61f7a00f68feffffff026cc3ca00000000001976a91426f6fe603d51932e4fd6ebe391afbc42a4bd745188ac005125020000000017a914c6d76c6f2acfd75d1be56fc59537894872744c388714490800", "vin": [{"sequence": 4294967294, "scriptSig": {"hex": "47304402203607cae05dc2d8831dabb24cecf1c90593088d6bac5af88e8c0eb34efe6a378a022026865357231459efaeb1f1dd6200da7572cc3f83262ae51fc057bdbb282ca7c20121034ee4a8b7dff2fb3a9d9755c2d2489207a4ffa5647b6dd96d5e60d2d89b4329e3", "asm": "304402203607cae05dc2d8831dabb24cecf1c90593088d6bac5af88e8c0eb34efe6a378a022026865357231459efaeb1f1dd6200da7572cc3f83262ae51fc057bdbb282ca7c2[ALL] 034ee4a8b7dff2fb3a9d9755c2d2489207a4ffa5647b6dd96d5e60d2d89b4329e3"}, "vout": 4, "txid": "5c10b8447c61d5abf70e47b23cd952ed623bb23e42e11411dad936fc0166f50e"}, {"sequence": 4294967294, "scriptSig": {"hex": "483045022100bd8c37c10b4880bc78357700afde9204c04890b9b691e677358e2a222c574446022004b352ce672e15c06d72c811a475d0dee44f842ef3c263d47172ac56bc9ca90c01210287a89eb8ade8dbf7ce59bc0e6d240648116eeeb2cdb92ea7a2eeda61f7a00f68", "asm": "3045022100bd8c37c10b4880bc78357700afde9204c04890b9b691e677358e2a222c574446022004b352ce672e15c06d72c811a475d0dee44f842ef3c263d47172ac56bc9ca90c[ALL] 0287a89eb8ade8dbf7ce59bc0e6d240648116eeeb2cdb92ea7a2eeda61f7a00f68"}, "vout": 1, "txid": "8bce0a79d64b3b8cea5475dce82aafdbf36bc8b6ad4e965fec99a54317f24478"}], "txid": "e41be110ebac6e9744b30e9e78882a8ab22b6e80bec781f2f1a94ac6963443fd", "blocktime": 1537873891, "version": 1, "confirmations": 11478, "time": 1537873891, "locktime": 542996, "vsize": 371, "size": 371}