{"hash": "b510dd1731c1eb9947c7433e7f7c1dda7302a27112a116b82741bc50ef7800de", "blockhash": "00000000000000000018f53835495a110e01622372bf6ae95dc86f2b0ab887b0", "vout": [{"scriptPubKey": {"reqSigs": 1, "hex": "76a9142cc2b87a28c8a097f48fcc1d468ced6e7d39958d88ac", "addresses": ["155fzsEBHy9Ri2bMQ8uuuR3tv1YzcDywd4"], "asm": "OP_DUP OP_HASH160 2cc2b87a28c8a097f48fcc1d468ced6e7d39958d OP_EQUALVERIFY OP_CHECKSIG", "type": "pubkeyhash"}, "value": 12.55705513, "n": 0}, {"scriptPubKey": {"type": "nulldata", "hex": "6a24aa21a9edc3bf4006d095721cd7f4772c79798e37db83fa0c5c989ed19d84f6bee46e390c", "asm": "OP_RETURN aa21a9edc3bf4006d095721cd7f4772c79798e37db83fa0c5c989ed19d84f6bee46e390c"}, "value": 0.0, "n": 1}], "hex": "010000000001010000000000000000000000000000000000000000000000000000000000000000ffffffff2e030f490800044f0caa5b0426c9452d0cfda3535c94ab665b0002000b112f426974436c7562204e6574776f726b2fffffffff02a98bd84a000000001976a9142cc2b87a28c8a097f48fcc1d468ced6e7d39958d88ac0000000000000000266a24aa21a9edc3bf4006d095721cd7f4772c79798e37db83fa0c5c989ed19d84f6bee46e390c0120000000000000000000000000000000000000000000000000000000000000000000000000", "vin": [{"coinbase": "030f490800044f0caa5b0426c9452d0cfda3535c94ab665b0002000b112f426974436c7562204e6574776f726b2f", "sequence": 4294967295}], "txid": "e41e25509a78ae279525a0cae70a51316b103fb3a191c5cbd19233c0465cc8b8", "blocktime": 1537870928, "version": 1, "confirmations": 11512, "time": 1537870928, "locktime": 0, "vsize": 187, "size": 214}