{"hash": "e41ec012b1b30f5bccddf2d7a4b50b392dae4eca396d6f286892fb7d50bc6a8b", "blockhash": "0000000000000000000baef3f32e3676a92c3b2e5da21b426e4f302fc371ce76", "vout": [{"scriptPubKey": {"reqSigs": 1, "hex": "a9143bb6b76a8b00d8e9f13fbe9b4c295c826bd7cc2d87", "addresses": ["378kgDyr7VwYyCZLPbx1QYbFKowyFio7zc"], "asm": "OP_HASH160 3bb6b76a8b00d8e9f13fbe9b4c295c826bd7cc2d OP_EQUAL", "type": "scripthash"}, "value": 0.00390433, "n": 0}], "hex": "0100000001ec445c2c817634f4e54f5707ff94c8b57ab0c9d1f12eefdaa16d5e868aa23eca000000006a47304402202d9508ec3448bf8de2f13aab0f97bf4488b5d5768975a67242bd99b024afa4f002205e41cf2244ce935b840e77b95fde3415ff8588f9c854f02f93093df12118548201210233f64ce66a8ac9971ebd19365f77f54933f96cc0ebde5c682886e5621c161eefffffffff0121f505000000000017a9143bb6b76a8b00d8e9f13fbe9b4c295c826bd7cc2d8700000000", "vin": [{"sequence": 4294967295, "scriptSig": {"hex": "47304402202d9508ec3448bf8de2f13aab0f97bf4488b5d5768975a67242bd99b024afa4f002205e41cf2244ce935b840e77b95fde3415ff8588f9c854f02f93093df12118548201210233f64ce66a8ac9971ebd19365f77f54933f96cc0ebde5c682886e5621c161eef", "asm": "304402202d9508ec3448bf8de2f13aab0f97bf4488b5d5768975a67242bd99b024afa4f002205e41cf2244ce935b840e77b95fde3415ff8588f9c854f02f93093df121185482[ALL] 0233f64ce66a8ac9971ebd19365f77f54933f96cc0ebde5c682886e5621c161eef"}, "vout": 0, "txid": "ca3ea28a865e6da1daef2ef1d1c9b07ab5c894ff07574fe5f43476812c5c44ec"}], "txid": "e41ec012b1b30f5bccddf2d7a4b50b392dae4eca396d6f286892fb7d50bc6a8b", "blocktime": 1537876114, "version": 1, "confirmations": 11459, "time": 1537876114, "locktime": 0, "vsize": 189, "size": 189}