{"hash": "b3ff5fbe1626ecaaaa2e4ab0069cc1be5cc8686a0acef6ff6cd9f2001fb03916", "blockhash": "0000000000000000001cda96e906b7601b7a6fb1a3b62bca570a9e5d8f4b3de1", "vout": [{"scriptPubKey": {"reqSigs": 1, "hex": "a9143033423982af713615b851a0feff4fbfc2e58d8c87", "addresses": ["365smGVFar8a2NPkZnSBCq4iUeGhQY3xSj"], "asm": "OP_HASH160 3033423982af713615b851a0feff4fbfc2e58d8c OP_EQUAL", "type": "scripthash"}, "value": 0.0936, "n": 0}, {"scriptPubKey": {"reqSigs": 1, "hex": "00140c4b50279ada6179c7d54d9f33d4c870557e0d29", "addresses": ["bc1qp394qfu6mfshn374fk0n84xgwp2hurfflwjzyh"], "asm": "0 0c4b50279ada6179c7d54d9f33d4c870557e0d29", "type": "witness_v0_keyhash"}, "value": 0.06939419, "n": 1}], "hex": "010000000001019425a7d5235086ff402af08379741428bf8feb23c5f9fc347f5323a90402868b0100000017160014ace409482319b5104b9eb00ed76ae513d18ede13ffffffff0280d28e000000000017a9143033423982af713615b851a0feff4fbfc2e58d8c871be36900000000001600140c4b50279ada6179c7d54d9f33d4c870557e0d290247304402202d85ff398a4cdcfd7ad6e29e4c8e3b400d46e41988a9779b4dadfbd155944e98022064086ebd8ac2ceb890daa9a3954e3d81db2a5a6bbf42ad21f7ee57a29245649b012103c138056393bd5eb1c976b23658c10bc6b2487e4900bb19ae8320a896b113152800000000", "vin": [{"txinwitness": ["304402202d85ff398a4cdcfd7ad6e29e4c8e3b400d46e41988a9779b4dadfbd155944e98022064086ebd8ac2ceb890daa9a3954e3d81db2a5a6bbf42ad21f7ee57a29245649b01", "03c138056393bd5eb1c976b23658c10bc6b2487e4900bb19ae8320a896b1131528"], "sequence": 4294967295, "scriptSig": {"hex": "160014ace409482319b5104b9eb00ed76ae513d18ede13", "asm": "0014ace409482319b5104b9eb00ed76ae513d18ede13"}, "vout": 1, "txid": "8b860204a923537f34fcf9c523eb8fbf2814747983f02a40ff865023d5a72594"}], "txid": "e41f73d53765deb0fbffa51a1964259d68f1198512292614c323982d6a24bb8d", "blocktime": 1537873282, "version": 1, "confirmations": 11484, "time": 1537873282, "locktime": 0, "vsize": 165, "size": 246}