{"hash": "e43a39cd40e517badec5c85e53991b3bb65a287b720499f8ea3bd2a072630fa2", "blockhash": "0000000000000000000baef3f32e3676a92c3b2e5da21b426e4f302fc371ce76", "vout": [{"scriptPubKey": {"reqSigs": 1, "hex": "76a91431ec67bc97beaf614dc74351bae20a84d6f08ed488ac", "addresses": ["15YyK86tK4yxrfKio5ACqXXJtb7sKU5hbQ"], "asm": "OP_DUP OP_HASH160 31ec67bc97beaf614dc74351bae20a84d6f08ed4 OP_EQUALVERIFY OP_CHECKSIG", "type": "pubkeyhash"}, "value": 0.0219962, "n": 0}, {"scriptPubKey": {"type": "nulldata", "hex": "6a4c500000781c00018f0bdad15bc188214cd37c29019d6ddc0f1b8ff117702940d64fa54d8eb2f97d5819c6de140ae1275a42503c72e75baa1ce40614542c9a77fe35bc9a9526289ac0f6612cd74e33776ee4", "asm": "OP_RETURN 0000781c00018f0bdad15bc188214cd37c29019d6ddc0f1b8ff117702940d64fa54d8eb2f97d5819c6de140ae1275a42503c72e75baa1ce40614542c9a77fe35bc9a9526289ac0f6612cd74e33776ee4"}, "value": 0.0, "n": 1}], "hex": "0100000001a7778ee8a643e679175a4ecd2326ec4aa45d578512fdb35f0fc045d29d5b2f33010000006b4830450221008125cf130a9ea82294ef0ade3d58a769737bfe16ac2f5d9e9014ae355fadbb430220784355bef54c7ce0cd8ec7260184d2729f9c88c3934767981e71cee79dfef3c30121026953d4440ba284f1b213ff26d84961c49836afcd620d67d5ec43eec461ed5b64ffffffff0244902100000000001976a91431ec67bc97beaf614dc74351bae20a84d6f08ed488ac0000000000000000536a4c500000781c00018f0bdad15bc188214cd37c29019d6ddc0f1b8ff117702940d64fa54d8eb2f97d5819c6de140ae1275a42503c72e75baa1ce40614542c9a77fe35bc9a9526289ac0f6612cd74e33776ee400000000", "vin": [{"sequence": 4294967295, "scriptSig": {"hex": "4830450221008125cf130a9ea82294ef0ade3d58a769737bfe16ac2f5d9e9014ae355fadbb430220784355bef54c7ce0cd8ec7260184d2729f9c88c3934767981e71cee79dfef3c30121026953d4440ba284f1b213ff26d84961c49836afcd620d67d5ec43eec461ed5b64", "asm": "30450221008125cf130a9ea82294ef0ade3d58a769737bfe16ac2f5d9e9014ae355fadbb430220784355bef54c7ce0cd8ec7260184d2729f9c88c3934767981e71cee79dfef3c3[ALL] 026953d4440ba284f1b213ff26d84961c49836afcd620d67d5ec43eec461ed5b64"}, "vout": 1, "txid": "332f5b9dd245c00f5fb3fd1285575da44aec2623cd4e5a1779e643a6e88e77a7"}], "txid": "e43a39cd40e517badec5c85e53991b3bb65a287b720499f8ea3bd2a072630fa2", "blocktime": 1537876114, "version": 1, "confirmations": 11460, "time": 1537876114, "locktime": 0, "vsize": 284, "size": 284}