{"hash": "53ba074feb4e2bfea0a246ebae1fea3aaeb89e5cc7ab7d1404f4b58c7a7d317f", "blockhash": "00000000000000000017f5eb5941039fbcee6240d03bc1f2f8e35350df66a1d8", "vout": [{"scriptPubKey": {"reqSigs": 1, "hex": "a914b532678a4d36bd9d0013f6a037bbc17c346b890587", "addresses": ["3JD6cRmo1W1zUph3a8epT31jW6gVQ9xKjA"], "asm": "OP_HASH160 b532678a4d36bd9d0013f6a037bbc17c346b8905 OP_EQUAL", "type": "scripthash"}, "value": 0.0130505, "n": 0}, {"scriptPubKey": {"reqSigs": 1, "hex": "a91492c749f0285eac07f62742ea31a8d157e970f89687", "addresses": ["3F57KP3ytPvZ54FKyVRA8tFqXjbBDbyjzx"], "asm": "OP_HASH160 92c749f0285eac07f62742ea31a8d157e970f896 OP_EQUAL", "type": "scripthash"}, "value": 0.01, "n": 1}], "hex": "020000000001018c68d09ffec5bd7d2a72280087638d87bcddc48dcaa92d7d54dabb551f9296360000000017160014fa2c5515bb0f4faf2c70dfa2c16696bc30e7fcb60000000002dae913000000000017a914b532678a4d36bd9d0013f6a037bbc17c346b89058740420f000000000017a91492c749f0285eac07f62742ea31a8d157e970f89687024730440220646eb915798a3d16257957c41b402a866b96f8e62f45591e7b02ff0ed0ecbeb9022020a3b7fd07212a7b45b5ef223bec2c3128fd7563f1dff376707593ddbe245fb30121039a633119d5be297bb0447b5c3b39153b42665267d831d79e934101fbc7f4b59500000000", "vin": [{"txinwitness": ["30440220646eb915798a3d16257957c41b402a866b96f8e62f45591e7b02ff0ed0ecbeb9022020a3b7fd07212a7b45b5ef223bec2c3128fd7563f1dff376707593ddbe245fb301", "039a633119d5be297bb0447b5c3b39153b42665267d831d79e934101fbc7f4b595"], "sequence": 0, "scriptSig": {"hex": "160014fa2c5515bb0f4faf2c70dfa2c16696bc30e7fcb6", "asm": "0014fa2c5515bb0f4faf2c70dfa2c16696bc30e7fcb6"}, "vout": 0, "txid": "3696921f55bbda547d2da9ca8dc4ddbc878d63870028722a7dbdc5fe9fd0688c"}], "txid": "e43b273cd1548b767d22b85a68896097b243dc4356e00c41d1da324cde070444", "blocktime": 1537874412, "version": 2, "confirmations": 11466, "time": 1537874412, "locktime": 0, "vsize": 166, "size": 247}