{"hash": "e43bb7444179d1aa3070d465c4926c06232ead9c7c01e896cc3eab46b92c38fb", "blockhash": "00000000000000000004ffacab907a6b429b9a5745fa0b75af4234bf69dd7176", "vout": [{"scriptPubKey": {"reqSigs": 1, "hex": "a9141cb51290440444909ee3c43dba91a497ac41f50487", "addresses": ["34Jom45L8h8RedBJDpN5Q4Vst2sTe6E1wa"], "asm": "OP_HASH160 1cb51290440444909ee3c43dba91a497ac41f504 OP_EQUAL", "type": "scripthash"}, "value": 0.053, "n": 0}, {"scriptPubKey": {"reqSigs": 1, "hex": "76a9147a8859fc2aa22ede6ed21663868080917790ede788ac", "addresses": ["1CAtnGmfVAbWnZ7BFHhSvH1djnV6e5QAY6"], "asm": "OP_DUP OP_HASH160 7a8859fc2aa22ede6ed21663868080917790ede7 OP_EQUALVERIFY OP_CHECKSIG", "type": "pubkeyhash"}, "value": 1.28, "n": 1}, {"scriptPubKey": {"reqSigs": 1, "hex": "a9144c6d7880474e5a0ca28f922126797c0b68635bb487", "addresses": ["38f8RHFQ8v6avZqCmaYTga5bTYiuhoM6fh"], "asm": "OP_HASH160 4c6d7880474e5a0ca28f922126797c0b68635bb4 OP_EQUAL", "type": "scripthash"}, "value": 3.045, "n": 2}, {"scriptPubKey": {"reqSigs": 1, "hex": "a9148b76024ca86e2a1dbac961c14233c121aab1e38987", "addresses": ["3EQRDcgWq33udTPpYM1uPeX7iXe7our2Je"], "asm": "OP_HASH160 8b76024ca86e2a1dbac961c14233c121aab1e389 OP_EQUAL", "type": "scripthash"}, "value": 36.33744635, "n": 3}], "hex": "01000000091d22786eee210759cabb4827f3ce35449ac651323ede5941a9c788b49b8dfad84d000000fc0047304402206e8dfabe9df0cca3ff4caac75dde624fd8b106b371996e66cef4327f215aedc402200d9444f9be8a07c9d0075190825d6d5e08d12fb1b0ebbeeb52eb411d996dc2a8014730440220410a3d65b8e5ed3e25b56488d0e6c564dfa0f050322807af779d0e133034365f02204c26e0d127fecac826c9369462bd3136d2b0e9f16a021df4f2785483c470533f014c695221038e79398690cf0057d6dcd5c8d6becabc918043e074162bda0c0aeff826b3969f2103c3f926a26aef59cd62c345845d9b6e74f9ba78aff4dee588338abcdd26bb93c5210373e9df569168da3d7db5d5c7b4dd58d98f6950cb9b3060dee8e4003fe5c51ba453aeffffffff1d22786eee210759cabb4827f3ce35449ac651323ede5941a9c788b49b8dfad82d000000fdfd0000483045022100a8d85d5bc5f3bcfcbdff2fd6d9c50cb589d00fe445398540ae64bd678813106d02204985fea3cfae1d1a13fc9b0a8a9bc96cd56b59804f911606d0649034661a5ac70147304402207c9affc5115936707bf095fc8475fc09a0d3ee20a24c5018b76a9bc3674c4a06022027351b1439198df2383fb660cfa2e28ac299f490caa348c1bc817571f035c78d014c6952210394cd779965c22d5c33a04575a83ea78c8224ebca332f33cfb03cf610f5d38d5c2102f218bba56fffc1026dd9f0ec2a91a20630ce80f8798254f38af66991802cb9112103f9d7577b5006c09b1769e73c03a889f4be44a6c24a3453bc304a4d6f12901a9e53aeffffffff8cad43f6d6cee5f251afb5141fea5abc80ee732c88853151e46892a74faa37fb0b000000fdfd0000473044022007d5dee9df34d3b9e60d2983d068db00099594f28bae27765e04c922c42121c902203d3e8d79babdce93da37691f4fa2ca52302b7ba31c256621da54b40e70ad02e501483045022100bc9b53d9cc0aad1225f3e907dc60ac92c1b32f6e059960800c3a9df4b58d1f19022010592c5d48fab346b8ae5db91b47ca6a2d4dcdee231ca91dc990bf130bc3788d014c69522102b9bcde44cd0b12a645c2656b1fdadc635f6cd80a669b1458ebdf3043dbc2830e21039827e6052c76b5246dfcde50019b3330613b25d921e52dea460c970eacc350352103ade1afcf7470773695b95f34a49da935e59c5e90de6fa8c2aa781b526e6c78c853aeffffffff4417dc3d564eb44597db93e09b05d1dc34f1133aa8a35c0673aba3dfce10aed700000000fdfd000047304402201adb9a1f10ff81cd203f25de6ea61b96c16c0b2aebc474f91c53b9d210f3aa9d02204862eba028f52aa7c86c355913f4416fd8ea57194d90356e80c1b9d135f9755801483045022100eb9ab6b39756b3009a58b3a8eecf0394d272fe8c31bfffc27366fb459f2a052102200a1feb09e75cb01e9cc85cbeb400f9126f84d50c5fe0e6bab52855ac9eee5c31014c69522103ffbd20e28fef42c7082a1453885a16cf84ff359eb13e55aab62e3fd953a201a9210360e8251854d054e3d8a36a94ca03d3078f6f641534e4dfc375ca7e4cd8388eb72102cc140e4791173f41c92077f1382165fce5cc4fc973503c6e2c47b714ff92b9da53aeffffffff2f62d63c7cf9646d12082999b84b46b8512d8e39d6bfd447c0515eb06ddddfc900000000fdfd0000483045022100e06951a9da3804af6b18f60ca249b8dce7cce5b770b70d26e38d3e9c2cf9b90002205106d06779988d246079ac30c1f43238d0139a49596e6d8109925190b26f152801473044022068ecca77536493bdec1dce94b084181fdf255e8f6ae6d97b27c2f5ae2d499736022065fe64906dbadc1a7a5c6f5c116917879468aaafa266bc2e7221cd20ab67f1ab014c69522102d8aec2d05fad7f1868bcf8a39e163f8af124ae5aa3cad815a5bd3ad72ae02eaa2103e579514b800d2da22aa4ca94e78f40e3e5b0eb47529fd8b07bdf489fce50d9c22103aab655e3ba353cb5505d5be3eeb6925cfe2365cd869641a1f35e9920f6554eac53aeffffffffd6738ee094a13c9569a9bf9ed52a82b8110ae4075d4e7fd853ae45a55eed308701000000fdfd0000483045022100d5e2b96fde62cc802906772adcb3483c0032b2da27a4a692c8e55a836173d53d02205448fde85f3efcbfa742cf21e2469adc64df67eb48143bff76cffe0ba917eccd014730440220653e87ec053ba5ab0bcb96acc5570c3bd6e3e072b49bc08818c7fc7fcc578f320220600287ea40f8571cfdf8541eeecc59a491b2e1728bb84dbf687595eaeed32a5f014c69522103654861fc15da01bcd4b01cbbef96fe25af1d3ec4697ce751ef46e2b1f895f80d21028b4be37cd8eea4ed84992e8fe6b79da64d6781e292b6567c2c430025e3cf5f1c21038eaa234b39f9bab9ded25195853fd064461bb933a6b1ee4427ad80ca8fc98f9b53aeffffffffcdb2dbc9c29d2d880ab6794a8eb93d8f2c5bb4e6b568dd9cf2f09d446508deed01000000fc0047304402206e9c4940d38ed284f60534b82f33a3dc14eb83b130dfd0d79eb4d589415f33e802206507ea7d03621209d8101cac9888da69054e99d2b56e0cfbd6f560bdafa19fad0147304402204811c5c4f590a2253501d7a9915344ab94b3c8720a58f9e7783139a42ae354c80220583f9b44cf45762fddf130e97cda7f043bf71ce06fdc63cba6ed3f20ea4b56c4014c695221029c4823fed7ce57897573191d21a4d49a996157023c9ad154ce12d85275bb4b8621033a64a7e84950ea5e2c99dfbc4147ba339d6d0988bf186e1e66446b182bc5dc282102f43b5c6d64e71bf01716ecceba2340161490253efb5a3ae4a940be294ae577fc53aeffffffff8cad43f6d6cee5f251afb5141fea5abc80ee732c88853151e46892a74faa37fb08000000fdfe0000483045022100c90c620b626fd1d6cd0a298867eef763918a3659d41512766861f187dd4eb3f9022059dbc4da95c21f92070fefda91daec9fcc06b29ba891c3f9fbffbf9d9546f65701483045022100ae16172323b73cafa613a9544deda2a851814a49c021aa0ea323846690bdf80802207f3c802a34bbbd77c5dbd7fbc91d61e4337b800bd7211381a31e0172833d36d5014c69522102d380d88ee3f7a3819793c9238a842f913ec7c019791b3c7015ebf72caf8740512103ecbcff747ba1ff15c29fd37e23df82748d0fe317864ef3e6c588b3f612d95c3b21028da61a9303800dead06329d8d0537c8327d125bc61ad46dcde16f010a450194553aeffffffffcf665cd60563eaa4bb5e93e30a3d76331dfe0feaf2b0e0ba7be6e84832e4313107000000fdfd0000473044022017fe8095839f641168acc4abd4e24e1995d42d7c58b857a3829599652b4f17de022026ea58169b5f8056dcb603e2f869f3765dbd0f0a3b81d9dada46f7ed0b6aa1e1014830450221008de9ad29aca28c63fb13eab5e356a0697a1348280cf201807baa84e9806096dd022051cb24cd7dff40bda7b5e9f0dd8d77b6a8af62845f2855b027501f7bd7975cf9014c69522102d3a0c2c0ecf4e8c0b17130b17344f3519fbd148446c40fe0ce3affa827313b2e2103cf39be38ccb2038349acb5e124a40717f9da1799d350ef6140c3e3e2416304982103de736445dc22dd67b77764185d50b706856a217e6fa2f664f5472128d411480a53aeffffffff0420df50000000000017a9141cb51290440444909ee3c43dba91a497ac41f504870020a107000000001976a9147a8859fc2aa22ede6ed21663868080917790ede788ac204d26120000000017a9144c6d7880474e5a0ca28f922126797c0b68635bb487fb8a96d80000000017a9148b76024ca86e2a1dbac961c14233c121aab1e3898700000000", "vin": [{"sequence": 4294967295, "scriptSig": {"hex": "0047304402206e8dfabe9df0cca3ff4caac75dde624fd8b106b371996e66cef4327f215aedc402200d9444f9be8a07c9d0075190825d6d5e08d12fb1b0ebbeeb52eb411d996dc2a8014730440220410a3d65b8e5ed3e25b56488d0e6c564dfa0f050322807af779d0e133034365f02204c26e0d127fecac826c9369462bd3136d2b0e9f16a021df4f2785483c470533f014c695221038e79398690cf0057d6dcd5c8d6becabc918043e074162bda0c0aeff826b3969f2103c3f926a26aef59cd62c345845d9b6e74f9ba78aff4dee588338abcdd26bb93c5210373e9df569168da3d7db5d5c7b4dd58d98f6950cb9b3060dee8e4003fe5c51ba453ae", "asm": "0 304402206e8dfabe9df0cca3ff4caac75dde624fd8b106b371996e66cef4327f215aedc402200d9444f9be8a07c9d0075190825d6d5e08d12fb1b0ebbeeb52eb411d996dc2a8[ALL] 30440220410a3d65b8e5ed3e25b56488d0e6c564dfa0f050322807af779d0e133034365f02204c26e0d127fecac826c9369462bd3136d2b0e9f16a021df4f2785483c470533f[ALL] 5221038e79398690cf0057d6dcd5c8d6becabc918043e074162bda0c0aeff826b3969f2103c3f926a26aef59cd62c345845d9b6e74f9ba78aff4dee588338abcdd26bb93c5210373e9df569168da3d7db5d5c7b4dd58d98f6950cb9b3060dee8e4003fe5c51ba453ae"}, "vout": 77, "txid": "d8fa8d9bb488c7a94159de3e3251c69a4435cef32748bbca590721ee6e78221d"}, {"sequence": 4294967295, "scriptSig": {"hex": "00483045022100a8d85d5bc5f3bcfcbdff2fd6d9c50cb589d00fe445398540ae64bd678813106d02204985fea3cfae1d1a13fc9b0a8a9bc96cd56b59804f911606d0649034661a5ac70147304402207c9affc5115936707bf095fc8475fc09a0d3ee20a24c5018b76a9bc3674c4a06022027351b1439198df2383fb660cfa2e28ac299f490caa348c1bc817571f035c78d014c6952210394cd779965c22d5c33a04575a83ea78c8224ebca332f33cfb03cf610f5d38d5c2102f218bba56fffc1026dd9f0ec2a91a20630ce80f8798254f38af66991802cb9112103f9d7577b5006c09b1769e73c03a889f4be44a6c24a3453bc304a4d6f12901a9e53ae", "asm": "0 3045022100a8d85d5bc5f3bcfcbdff2fd6d9c50cb589d00fe445398540ae64bd678813106d02204985fea3cfae1d1a13fc9b0a8a9bc96cd56b59804f911606d0649034661a5ac7[ALL] 304402207c9affc5115936707bf095fc8475fc09a0d3ee20a24c5018b76a9bc3674c4a06022027351b1439198df2383fb660cfa2e28ac299f490caa348c1bc817571f035c78d[ALL] 52210394cd779965c22d5c33a04575a83ea78c8224ebca332f33cfb03cf610f5d38d5c2102f218bba56fffc1026dd9f0ec2a91a20630ce80f8798254f38af66991802cb9112103f9d7577b5006c09b1769e73c03a889f4be44a6c24a3453bc304a4d6f12901a9e53ae"}, "vout": 45, "txid": "d8fa8d9bb488c7a94159de3e3251c69a4435cef32748bbca590721ee6e78221d"}, {"sequence": 4294967295, "scriptSig": {"hex": "00473044022007d5dee9df34d3b9e60d2983d068db00099594f28bae27765e04c922c42121c902203d3e8d79babdce93da37691f4fa2ca52302b7ba31c256621da54b40e70ad02e501483045022100bc9b53d9cc0aad1225f3e907dc60ac92c1b32f6e059960800c3a9df4b58d1f19022010592c5d48fab346b8ae5db91b47ca6a2d4dcdee231ca91dc990bf130bc3788d014c69522102b9bcde44cd0b12a645c2656b1fdadc635f6cd80a669b1458ebdf3043dbc2830e21039827e6052c76b5246dfcde50019b3330613b25d921e52dea460c970eacc350352103ade1afcf7470773695b95f34a49da935e59c5e90de6fa8c2aa781b526e6c78c853ae", "asm": "0 3044022007d5dee9df34d3b9e60d2983d068db00099594f28bae27765e04c922c42121c902203d3e8d79babdce93da37691f4fa2ca52302b7ba31c256621da54b40e70ad02e5[ALL] 3045022100bc9b53d9cc0aad1225f3e907dc60ac92c1b32f6e059960800c3a9df4b58d1f19022010592c5d48fab346b8ae5db91b47ca6a2d4dcdee231ca91dc990bf130bc3788d[ALL] 522102b9bcde44cd0b12a645c2656b1fdadc635f6cd80a669b1458ebdf3043dbc2830e21039827e6052c76b5246dfcde50019b3330613b25d921e52dea460c970eacc350352103ade1afcf7470773695b95f34a49da935e59c5e90de6fa8c2aa781b526e6c78c853ae"}, "vout": 11, "txid": "fb37aa4fa79268e4513185882c73ee80bc5aea1f14b5af51f2e5ced6f643ad8c"}, {"sequence": 4294967295, "scriptSig": {"hex": "0047304402201adb9a1f10ff81cd203f25de6ea61b96c16c0b2aebc474f91c53b9d210f3aa9d02204862eba028f52aa7c86c355913f4416fd8ea57194d90356e80c1b9d135f9755801483045022100eb9ab6b39756b3009a58b3a8eecf0394d272fe8c31bfffc27366fb459f2a052102200a1feb09e75cb01e9cc85cbeb400f9126f84d50c5fe0e6bab52855ac9eee5c31014c69522103ffbd20e28fef42c7082a1453885a16cf84ff359eb13e55aab62e3fd953a201a9210360e8251854d054e3d8a36a94ca03d3078f6f641534e4dfc375ca7e4cd8388eb72102cc140e4791173f41c92077f1382165fce5cc4fc973503c6e2c47b714ff92b9da53ae", "asm": "0 304402201adb9a1f10ff81cd203f25de6ea61b96c16c0b2aebc474f91c53b9d210f3aa9d02204862eba028f52aa7c86c355913f4416fd8ea57194d90356e80c1b9d135f97558[ALL] 3045022100eb9ab6b39756b3009a58b3a8eecf0394d272fe8c31bfffc27366fb459f2a052102200a1feb09e75cb01e9cc85cbeb400f9126f84d50c5fe0e6bab52855ac9eee5c31[ALL] 522103ffbd20e28fef42c7082a1453885a16cf84ff359eb13e55aab62e3fd953a201a9210360e8251854d054e3d8a36a94ca03d3078f6f641534e4dfc375ca7e4cd8388eb72102cc140e4791173f41c92077f1382165fce5cc4fc973503c6e2c47b714ff92b9da53ae"}, "vout": 0, "txid": "d7ae10cedfa3ab73065ca3a83a13f134dcd1059be093db9745b44e563ddc1744"}, {"sequence": 4294967295, "scriptSig": {"hex": "00483045022100e06951a9da3804af6b18f60ca249b8dce7cce5b770b70d26e38d3e9c2cf9b90002205106d06779988d246079ac30c1f43238d0139a49596e6d8109925190b26f152801473044022068ecca77536493bdec1dce94b084181fdf255e8f6ae6d97b27c2f5ae2d499736022065fe64906dbadc1a7a5c6f5c116917879468aaafa266bc2e7221cd20ab67f1ab014c69522102d8aec2d05fad7f1868bcf8a39e163f8af124ae5aa3cad815a5bd3ad72ae02eaa2103e579514b800d2da22aa4ca94e78f40e3e5b0eb47529fd8b07bdf489fce50d9c22103aab655e3ba353cb5505d5be3eeb6925cfe2365cd869641a1f35e9920f6554eac53ae", "asm": "0 3045022100e06951a9da3804af6b18f60ca249b8dce7cce5b770b70d26e38d3e9c2cf9b90002205106d06779988d246079ac30c1f43238d0139a49596e6d8109925190b26f1528[ALL] 3044022068ecca77536493bdec1dce94b084181fdf255e8f6ae6d97b27c2f5ae2d499736022065fe64906dbadc1a7a5c6f5c116917879468aaafa266bc2e7221cd20ab67f1ab[ALL] 522102d8aec2d05fad7f1868bcf8a39e163f8af124ae5aa3cad815a5bd3ad72ae02eaa2103e579514b800d2da22aa4ca94e78f40e3e5b0eb47529fd8b07bdf489fce50d9c22103aab655e3ba353cb5505d5be3eeb6925cfe2365cd869641a1f35e9920f6554eac53ae"}, "vout": 0, "txid": "c9dfdd6db05e51c047d4bfd6398e2d51b8464bb8992908126d64f97c3cd6622f"}, {"sequence": 4294967295, "scriptSig": {"hex": "00483045022100d5e2b96fde62cc802906772adcb3483c0032b2da27a4a692c8e55a836173d53d02205448fde85f3efcbfa742cf21e2469adc64df67eb48143bff76cffe0ba917eccd014730440220653e87ec053ba5ab0bcb96acc5570c3bd6e3e072b49bc08818c7fc7fcc578f320220600287ea40f8571cfdf8541eeecc59a491b2e1728bb84dbf687595eaeed32a5f014c69522103654861fc15da01bcd4b01cbbef96fe25af1d3ec4697ce751ef46e2b1f895f80d21028b4be37cd8eea4ed84992e8fe6b79da64d6781e292b6567c2c430025e3cf5f1c21038eaa234b39f9bab9ded25195853fd064461bb933a6b1ee4427ad80ca8fc98f9b53ae", "asm": "0 3045022100d5e2b96fde62cc802906772adcb3483c0032b2da27a4a692c8e55a836173d53d02205448fde85f3efcbfa742cf21e2469adc64df67eb48143bff76cffe0ba917eccd[ALL] 30440220653e87ec053ba5ab0bcb96acc5570c3bd6e3e072b49bc08818c7fc7fcc578f320220600287ea40f8571cfdf8541eeecc59a491b2e1728bb84dbf687595eaeed32a5f[ALL] 522103654861fc15da01bcd4b01cbbef96fe25af1d3ec4697ce751ef46e2b1f895f80d21028b4be37cd8eea4ed84992e8fe6b79da64d6781e292b6567c2c430025e3cf5f1c21038eaa234b39f9bab9ded25195853fd064461bb933a6b1ee4427ad80ca8fc98f9b53ae"}, "vout": 1, "txid": "8730ed5ea545ae53d87f4e5d07e40a11b8822ad59ebfa969953ca194e08e73d6"}, {"sequence": 4294967295, "scriptSig": {"hex": "0047304402206e9c4940d38ed284f60534b82f33a3dc14eb83b130dfd0d79eb4d589415f33e802206507ea7d03621209d8101cac9888da69054e99d2b56e0cfbd6f560bdafa19fad0147304402204811c5c4f590a2253501d7a9915344ab94b3c8720a58f9e7783139a42ae354c80220583f9b44cf45762fddf130e97cda7f043bf71ce06fdc63cba6ed3f20ea4b56c4014c695221029c4823fed7ce57897573191d21a4d49a996157023c9ad154ce12d85275bb4b8621033a64a7e84950ea5e2c99dfbc4147ba339d6d0988bf186e1e66446b182bc5dc282102f43b5c6d64e71bf01716ecceba2340161490253efb5a3ae4a940be294ae577fc53ae", "asm": "0 304402206e9c4940d38ed284f60534b82f33a3dc14eb83b130dfd0d79eb4d589415f33e802206507ea7d03621209d8101cac9888da69054e99d2b56e0cfbd6f560bdafa19fad[ALL] 304402204811c5c4f590a2253501d7a9915344ab94b3c8720a58f9e7783139a42ae354c80220583f9b44cf45762fddf130e97cda7f043bf71ce06fdc63cba6ed3f20ea4b56c4[ALL] 5221029c4823fed7ce57897573191d21a4d49a996157023c9ad154ce12d85275bb4b8621033a64a7e84950ea5e2c99dfbc4147ba339d6d0988bf186e1e66446b182bc5dc282102f43b5c6d64e71bf01716ecceba2340161490253efb5a3ae4a940be294ae577fc53ae"}, "vout": 1, "txid": "edde0865449df0f29cdd68b5e6b45b2c8f3db98e4a79b60a882d9dc2c9dbb2cd"}, {"sequence": 4294967295, "scriptSig": {"hex": "00483045022100c90c620b626fd1d6cd0a298867eef763918a3659d41512766861f187dd4eb3f9022059dbc4da95c21f92070fefda91daec9fcc06b29ba891c3f9fbffbf9d9546f65701483045022100ae16172323b73cafa613a9544deda2a851814a49c021aa0ea323846690bdf80802207f3c802a34bbbd77c5dbd7fbc91d61e4337b800bd7211381a31e0172833d36d5014c69522102d380d88ee3f7a3819793c9238a842f913ec7c019791b3c7015ebf72caf8740512103ecbcff747ba1ff15c29fd37e23df82748d0fe317864ef3e6c588b3f612d95c3b21028da61a9303800dead06329d8d0537c8327d125bc61ad46dcde16f010a450194553ae", "asm": "0 3045022100c90c620b626fd1d6cd0a298867eef763918a3659d41512766861f187dd4eb3f9022059dbc4da95c21f92070fefda91daec9fcc06b29ba891c3f9fbffbf9d9546f657[ALL] 3045022100ae16172323b73cafa613a9544deda2a851814a49c021aa0ea323846690bdf80802207f3c802a34bbbd77c5dbd7fbc91d61e4337b800bd7211381a31e0172833d36d5[ALL] 522102d380d88ee3f7a3819793c9238a842f913ec7c019791b3c7015ebf72caf8740512103ecbcff747ba1ff15c29fd37e23df82748d0fe317864ef3e6c588b3f612d95c3b21028da61a9303800dead06329d8d0537c8327d125bc61ad46dcde16f010a450194553ae"}, "vout": 8, "txid": "fb37aa4fa79268e4513185882c73ee80bc5aea1f14b5af51f2e5ced6f643ad8c"}, {"sequence": 4294967295, "scriptSig": {"hex": "00473044022017fe8095839f641168acc4abd4e24e1995d42d7c58b857a3829599652b4f17de022026ea58169b5f8056dcb603e2f869f3765dbd0f0a3b81d9dada46f7ed0b6aa1e1014830450221008de9ad29aca28c63fb13eab5e356a0697a1348280cf201807baa84e9806096dd022051cb24cd7dff40bda7b5e9f0dd8d77b6a8af62845f2855b027501f7bd7975cf9014c69522102d3a0c2c0ecf4e8c0b17130b17344f3519fbd148446c40fe0ce3affa827313b2e2103cf39be38ccb2038349acb5e124a40717f9da1799d350ef6140c3e3e2416304982103de736445dc22dd67b77764185d50b706856a217e6fa2f664f5472128d411480a53ae", "asm": "0 3044022017fe8095839f641168acc4abd4e24e1995d42d7c58b857a3829599652b4f17de022026ea58169b5f8056dcb603e2f869f3765dbd0f0a3b81d9dada46f7ed0b6aa1e1[ALL] 30450221008de9ad29aca28c63fb13eab5e356a0697a1348280cf201807baa84e9806096dd022051cb24cd7dff40bda7b5e9f0dd8d77b6a8af62845f2855b027501f7bd7975cf9[ALL] 522102d3a0c2c0ecf4e8c0b17130b17344f3519fbd148446c40fe0ce3affa827313b2e2103cf39be38ccb2038349acb5e124a40717f9da1799d350ef6140c3e3e2416304982103de736445dc22dd67b77764185d50b706856a217e6fa2f664f5472128d411480a53ae"}, "vout": 7, "txid": "3131e43248e8e67bbae0b0f2ea0ffe1d33763d0ae3935ebba4ea6305d65c66cf"}], "txid": "e43bb7444179d1aa3070d465c4926c06232ead9c7c01e896cc3eab46b92c38fb", "blocktime": 1537875543, "version": 1, "confirmations": 11464, "time": 1537875543, "locktime": 0, "vsize": 2799, "size": 2799}