{"hash": "e43d5e6408228ebf1711828ff276ec163a59a868f86ed471f6569269cc73e64e", "blockhash": "000000000000000000205f8b0775d31398ef75b89a5e8ec8d2c57b4dc0ac4c20", "vout": [{"scriptPubKey": {"reqSigs": 1, "hex": "a9144e68fa81fa83ee914d798e07ccb886d9e702540487", "addresses": ["38qcPYVUKWJ3oJiwdamGwAScT7ewoXfxx4"], "asm": "OP_HASH160 4e68fa81fa83ee914d798e07ccb886d9e7025404 OP_EQUAL", "type": "scripthash"}, "value": 0.00290977, "n": 0}, {"scriptPubKey": {"reqSigs": 1, "hex": "76a914f71f86966ffa581598eaa337efc55b93aa442b8488ac", "addresses": ["1PXffq3tBvby9Pjfa49gnwef8r5bmgzUys"], "asm": "OP_DUP OP_HASH160 f71f86966ffa581598eaa337efc55b93aa442b84 OP_EQUALVERIFY OP_CHECKSIG", "type": "pubkeyhash"}, "value": 0.06176216, "n": 1}], "hex": "0100000002a490f4631816b566020e856ab9fdebd225a03ccb17863d58ee6095fdccdaea56010000006a473044022030ab7e2ce4d95df45fe5be2d236227b2e9415bc73eddb0bc468c3940854a3c610220578d4c408042cd6ef40f9630fd548631d09c53505cdd5bf094ea2868014810fc012102a0a7317602e84fbe746b174eaaa6170956bacd5341da08d2d8eae7e19b1678cffffffffff584905c6b1de7136b5b9f9e03cb86a3f91e1ddbd310a071f90ff178955d9984000000006b483045022100c4c7cbc77135cdff95c6a2461c07c82ea74e3f4a0ea7ff817eba7946d76316dc02205ea04a5c9d2435f160d6bd56aa3d9810a902aa8478b73119df3189a96042368e0121024132196d26001347206352e4125d4c3188838a92457ddffbc2f337403d1943deffffffff02a17004000000000017a9144e68fa81fa83ee914d798e07ccb886d9e702540487d83d5e00000000001976a914f71f86966ffa581598eaa337efc55b93aa442b8488ac00000000", "vin": [{"sequence": 4294967295, "scriptSig": {"hex": "473044022030ab7e2ce4d95df45fe5be2d236227b2e9415bc73eddb0bc468c3940854a3c610220578d4c408042cd6ef40f9630fd548631d09c53505cdd5bf094ea2868014810fc012102a0a7317602e84fbe746b174eaaa6170956bacd5341da08d2d8eae7e19b1678cf", "asm": "3044022030ab7e2ce4d95df45fe5be2d236227b2e9415bc73eddb0bc468c3940854a3c610220578d4c408042cd6ef40f9630fd548631d09c53505cdd5bf094ea2868014810fc[ALL] 02a0a7317602e84fbe746b174eaaa6170956bacd5341da08d2d8eae7e19b1678cf"}, "vout": 1, "txid": "56eadaccfd9560ee583d8617cb3ca025d2ebfdb96a850e0266b5161863f490a4"}, {"sequence": 4294967295, "scriptSig": {"hex": "483045022100c4c7cbc77135cdff95c6a2461c07c82ea74e3f4a0ea7ff817eba7946d76316dc02205ea04a5c9d2435f160d6bd56aa3d9810a902aa8478b73119df3189a96042368e0121024132196d26001347206352e4125d4c3188838a92457ddffbc2f337403d1943de", "asm": "3045022100c4c7cbc77135cdff95c6a2461c07c82ea74e3f4a0ea7ff817eba7946d76316dc02205ea04a5c9d2435f160d6bd56aa3d9810a902aa8478b73119df3189a96042368e[ALL] 024132196d26001347206352e4125d4c3188838a92457ddffbc2f337403d1943de"}, "vout": 0, "txid": "84995d9578f10ff971a010d3db1d1ef9a386cb039e9f5b6b13e71d6b5c9084f5"}], "txid": "e43d5e6408228ebf1711828ff276ec163a59a868f86ed471f6569269cc73e64e", "blocktime": 1537871175, "version": 1, "confirmations": 11511, "time": 1537871175, "locktime": 0, "vsize": 371, "size": 371}