{"hash": "eead6ea8f9ba74006aac08f4ac586a87217a07936235352c80b7b066b41779c1", "blockhash": "0000000000000000000e13cef7c366c0283d82e591d1acd082e914b08063cdf1", "vout": [{"scriptPubKey": {"reqSigs": 1, "hex": "a914d9cbccaec4f2b5bd120ef3bf5e4aceac6c94a1df87", "addresses": ["3MYchQp5Sa7aCBFJNxG6q2yfHhwkY4tR9v"], "asm": "OP_HASH160 d9cbccaec4f2b5bd120ef3bf5e4aceac6c94a1df OP_EQUAL", "type": "scripthash"}, "value": 0.0830706, "n": 0}, {"scriptPubKey": {"reqSigs": 1, "hex": "76a91432dca5889b4bf5f1146680a3e7861d53a704e8ef88ac", "addresses": ["15dw7PTMzejQeAwYUoZeAkacoUWzfyepL6"], "asm": "OP_DUP OP_HASH160 32dca5889b4bf5f1146680a3e7861d53a704e8ef OP_EQUALVERIFY OP_CHECKSIG", "type": "pubkeyhash"}, "value": 0.020171, "n": 1}], "hex": "010000000001014b15b55dc0860e754f27af0ab73bc76d04216ee88dee883251955e8346e90ca80100000023220020e02dd2f679d8782ba3b744a9816733bf305b078f0359377c03f901add8527d93ffffffff0274c17e000000000017a914d9cbccaec4f2b5bd120ef3bf5e4aceac6c94a1df874cc71e00000000001976a91432dca5889b4bf5f1146680a3e7861d53a704e8ef88ac0400473044022037220e1041f7016df08349b325e8a39b489c2d2d58e07da6f1531eaaffecf82f02204f31931e423bc327c67d8cd76a776b6c4581b8cb88d8b89a52de265351d104cb01483045022100a2119f3408a4214c25c0ba6670ffc2ea6109be708db5c44dd039699a8f4b1b5e022069e77bf5695c9f0e32bef9e885c294a442370af82f292a49c4848c12c1cb7e740169522102a5c3d445287fbbff8e0e41af930e278b858627d42280466e8dbe484f5f0eda78210349a45d2a2480451497e06ae8fca162f5766c04755730f7d93f294a142aa963ff21032d818d9ad19d4f58dda2f8e6097f46cfc59f92beca9037681db93ed33a8c536953ae11490800", "vin": [{"txinwitness": ["", "3044022037220e1041f7016df08349b325e8a39b489c2d2d58e07da6f1531eaaffecf82f02204f31931e423bc327c67d8cd76a776b6c4581b8cb88d8b89a52de265351d104cb01", "3045022100a2119f3408a4214c25c0ba6670ffc2ea6109be708db5c44dd039699a8f4b1b5e022069e77bf5695c9f0e32bef9e885c294a442370af82f292a49c4848c12c1cb7e7401", "522102a5c3d445287fbbff8e0e41af930e278b858627d42280466e8dbe484f5f0eda78210349a45d2a2480451497e06ae8fca162f5766c04755730f7d93f294a142aa963ff21032d818d9ad19d4f58dda2f8e6097f46cfc59f92beca9037681db93ed33a8c536953ae"], "sequence": 4294967295, "scriptSig": {"hex": "220020e02dd2f679d8782ba3b744a9816733bf305b078f0359377c03f901add8527d93", "asm": "0020e02dd2f679d8782ba3b744a9816733bf305b078f0359377c03f901add8527d93"}, "vout": 1, "txid": "a80ce946835e95513288ee8de86e21046dc73bb70aaf274f750e86c05db5154b"}], "txid": "e445545c7cdae2f9247896c397086c9f268b23435c34bd8ad633a9895de0518e", "blocktime": 1537871767, "version": 1, "confirmations": 11491, "time": 1537871767, "locktime": 542993, "vsize": 216, "size": 407}