{"hash": "4126be5ad5d67b6f9f74cf1bd67f02c37f684d8377124a4cf3107d2aa5368a6d", "blockhash": "0000000000000000000dcc0f55137456b1a82d3642486a52398922ac4d620174", "vout": [{"scriptPubKey": {"reqSigs": 1, "hex": "76a9148c7ab20d9dda380d2e95fa0cab3e8de1e9c77a0688ac", "addresses": ["1DonateWffyhwAjskoEwXt83pHZxhLTr8H"], "asm": "OP_DUP OP_HASH160 8c7ab20d9dda380d2e95fa0cab3e8de1e9c77a06 OP_EQUALVERIFY OP_CHECKSIG", "type": "pubkeyhash"}, "value": 7.83e-06, "n": 0}], "hex": "0200000000010188629d3f6c245a6efbe8b660f11ba9b2d7f2f0bef7d48e4415f08e490eabe3210000000017160014f11f7291bf7387391b99c86050d530898e6ed7abffffffff010f030000000000001976a9148c7ab20d9dda380d2e95fa0cab3e8de1e9c77a0688ac02473044022045282512ecfb44c379ffa391827a090b923310a0ec449aae8f296f990104a09a02206173b47b226311c9d765e266e2985072af0932cecf0fdcf0aabeaa508fec7d07012102779729c60affe5731d0d617e3d6020370c5303f531bb78638614e69161c418a000000000", "vin": [{"txinwitness": ["3044022045282512ecfb44c379ffa391827a090b923310a0ec449aae8f296f990104a09a02206173b47b226311c9d765e266e2985072af0932cecf0fdcf0aabeaa508fec7d0701", "02779729c60affe5731d0d617e3d6020370c5303f531bb78638614e69161c418a0"], "sequence": 4294967295, "scriptSig": {"hex": "160014f11f7291bf7387391b99c86050d530898e6ed7ab", "asm": "0014f11f7291bf7387391b99c86050d530898e6ed7ab"}, "vout": 0, "txid": "21e3ab0e498ef015448ed4f7bef0f2d7b2a91bf160b6e8fb6e5a246c3f9d6288"}], "txid": "e4460c29750c548cc8e34ca08a05052c8a16f3189cb7845f6b6d97d1305137ab", "blocktime": 1537870268, "version": 2, "confirmations": 11518, "time": 1537870268, "locktime": 0, "vsize": 136, "size": 217}