{"hash": "e44a330928cf463b0b03d4b7a24d860038f9f9ae2b63f4fabc05c17f9c2732e9", "blockhash": "00000000000000000018f53835495a110e01622372bf6ae95dc86f2b0ab887b0", "vout": [{"scriptPubKey": {"type": "nulldata", "hex": "6a146f6d6e69000000000000001f00000021b4a127f6", "asm": "OP_RETURN 6f6d6e69000000000000001f00000021b4a127f6"}, "value": 0.0, "n": 0}, {"scriptPubKey": {"reqSigs": 1, "hex": "76a914a25dec4d0011064ef106a983c39c7a540699f22088ac", "addresses": ["1FoWyxwPXuj4C6abqwhjDWdz6D4PZgYRjA"], "asm": "OP_DUP OP_HASH160 a25dec4d0011064ef106a983c39c7a540699f220 OP_EQUALVERIFY OP_CHECKSIG", "type": "pubkeyhash"}, "value": 5.46e-06, "n": 1}, {"scriptPubKey": {"reqSigs": 1, "hex": "76a9145211a603ef066e40b21a4c465212a29f0f0692c688ac", "addresses": ["18UwYyDPW6Jqiug9qD6L1Z7wqHiCqVJnQm"], "asm": "OP_DUP OP_HASH160 5211a603ef066e40b21a4c465212a29f0f0692c6 OP_EQUALVERIFY OP_CHECKSIG", "type": "pubkeyhash"}, "value": 0.00499066, "n": 2}], "hex": "01000000010d01a2029185c1752ddb6f4edd511a7d23d380cfcef6d7a0ca449357da1f4f33080000006a47304402200d0e3a99404ac110f3003de25e27ec27c13ebdab9f2c8d75d4620d816641a13002205c89495bc91c4288817ab73de413e0efbe430c83fa0516fcc49241f342bf232e0121021ebeedefd5b7b066972a4f0f2be40077f166bd1bd3867ca252681664ca2f9211feffffff030000000000000000166a146f6d6e69000000000000001f00000021b4a127f622020000000000001976a914a25dec4d0011064ef106a983c39c7a540699f22088ac7a9d0700000000001976a9145211a603ef066e40b21a4c465212a29f0f0692c688ac0d490800", "vin": [{"sequence": 4294967294, "scriptSig": {"hex": "47304402200d0e3a99404ac110f3003de25e27ec27c13ebdab9f2c8d75d4620d816641a13002205c89495bc91c4288817ab73de413e0efbe430c83fa0516fcc49241f342bf232e0121021ebeedefd5b7b066972a4f0f2be40077f166bd1bd3867ca252681664ca2f9211", "asm": "304402200d0e3a99404ac110f3003de25e27ec27c13ebdab9f2c8d75d4620d816641a13002205c89495bc91c4288817ab73de413e0efbe430c83fa0516fcc49241f342bf232e[ALL] 021ebeedefd5b7b066972a4f0f2be40077f166bd1bd3867ca252681664ca2f9211"}, "vout": 8, "txid": "334f1fda579344caa0d7f6cecf80d3237d1a51dd4e6fdb2d75c1859102a2010d"}], "txid": "e44a330928cf463b0b03d4b7a24d860038f9f9ae2b63f4fabc05c17f9c2732e9", "blocktime": 1537870928, "version": 1, "confirmations": 11514, "time": 1537870928, "locktime": 542989, "vsize": 256, "size": 256}