{"hash": "f43b4e08bc34a2f29eaf7fc03143d84ccb095e5816d6724197e4cd3abe027efa", "blockhash": "0000000000000000000baef3f32e3676a92c3b2e5da21b426e4f302fc371ce76", "vout": [{"scriptPubKey": {"reqSigs": 1, "hex": "a914cab8f9a355276281c752e5464e86fea50f3d0f4087", "addresses": ["3LAv1bJBtB8KiByFnJR3Qpx5NDfBE8VJLy"], "asm": "OP_HASH160 cab8f9a355276281c752e5464e86fea50f3d0f40 OP_EQUAL", "type": "scripthash"}, "value": 0.24300597, "n": 0}, {"scriptPubKey": {"reqSigs": 1, "hex": "a9142326a2fb216094e207d0679aebb7b8bb5e2c6ac287", "addresses": ["34tsrn8bgui5t83bCsYMnEaqNXLkMz5YnY"], "asm": "OP_HASH160 2326a2fb216094e207d0679aebb7b8bb5e2c6ac2 OP_EQUAL", "type": "scripthash"}, "value": 221.40939071, "n": 1}], "hex": "02000000000101f2f349b4e718921fb1a008e736ad9eda80c7dff31f6244f0dd45a233753f29570100000017160014331a8f1508f93e3d061642b0956a62de7b7e53a2feffffff0235cc72010000000017a914cab8f9a355276281c752e5464e86fea50f3d0f40873febb3270500000017a9142326a2fb216094e207d0679aebb7b8bb5e2c6ac287024830450221009798dbf01e802abe131183ca83207b7d120d47270d14ef133b3952b124715dda02205c8f1919863361fc56721932243b43f715de9e4fa5093bf1b9b30cdc3e8f4db6012103cbbc1bfca73dd5c47fd9fa68f512cb8b498e37ddb25526c7edb5ae6d68ac63be17490800", "vin": [{"txinwitness": ["30450221009798dbf01e802abe131183ca83207b7d120d47270d14ef133b3952b124715dda02205c8f1919863361fc56721932243b43f715de9e4fa5093bf1b9b30cdc3e8f4db601", "03cbbc1bfca73dd5c47fd9fa68f512cb8b498e37ddb25526c7edb5ae6d68ac63be"], "sequence": 4294967294, "scriptSig": {"hex": "160014331a8f1508f93e3d061642b0956a62de7b7e53a2", "asm": "0014331a8f1508f93e3d061642b0956a62de7b7e53a2"}, "vout": 1, "txid": "57293f7533a245ddf044621ff3dfc780da9ead36e708a0b11f9218e7b449f3f2"}], "txid": "e44b8865365cc815cae361fec746acc5f78b95a19da183c3b44091ef262fdd0e", "blocktime": 1537876114, "version": 2, "confirmations": 11459, "time": 1537876114, "locktime": 542999, "vsize": 166, "size": 248}