{"hash": "e455ba0ed1eac98dae6e3dee4d85f04539da5820ec9f17e2e3beba4780d78c99", "blockhash": "00000000000000000004ffacab907a6b429b9a5745fa0b75af4234bf69dd7176", "vout": [{"scriptPubKey": {"type": "nulldata", "hex": "6a146f6d6e69000000000000001f00001a6fed1b95a0", "asm": "OP_RETURN 6f6d6e69000000000000001f00001a6fed1b95a0"}, "value": 0.0, "n": 0}, {"scriptPubKey": {"reqSigs": 1, "hex": "76a91490a22efa9fcab2274025c676126e5b0000da4e1f88ac", "addresses": ["1EBkbLEGCgPR6TX6jmMwgvheMsCx8c2Q6S"], "asm": "OP_DUP OP_HASH160 90a22efa9fcab2274025c676126e5b0000da4e1f OP_EQUALVERIFY OP_CHECKSIG", "type": "pubkeyhash"}, "value": 0.00122884, "n": 1}, {"scriptPubKey": {"reqSigs": 1, "hex": "76a914cb71a5b80cfc05f2920248186c8d6a4a8f49ee8e88ac", "addresses": ["1KYiKJEfdJtap9QX2v9BXJMpz2SfU4pgZw"], "asm": "OP_DUP OP_HASH160 cb71a5b80cfc05f2920248186c8d6a4a8f49ee8e OP_EQUALVERIFY OP_CHECKSIG", "type": "pubkeyhash"}, "value": 5.46e-06, "n": 2}], "hex": "0100000001fdee800db70749693f5497723d7c1404aad8ad716c57b327646bee0d8bb07764010000006a47304402207756240233548b40bd5afcebee579ff527c4d4740911482804024346003dc69b02204ec4e43c250452da863598500d050daf9b61db8eefaa5ebe54c07dca34af320e012102abb746e7abab9b1dff825c803cf4357b99d87a495f2824645fe15da73ca58a37feffffff030000000000000000166a146f6d6e69000000000000001f00001a6fed1b95a004e00100000000001976a91490a22efa9fcab2274025c676126e5b0000da4e1f88ac22020000000000001976a914cb71a5b80cfc05f2920248186c8d6a4a8f49ee8e88ac16490800", "vin": [{"sequence": 4294967294, "scriptSig": {"hex": "47304402207756240233548b40bd5afcebee579ff527c4d4740911482804024346003dc69b02204ec4e43c250452da863598500d050daf9b61db8eefaa5ebe54c07dca34af320e012102abb746e7abab9b1dff825c803cf4357b99d87a495f2824645fe15da73ca58a37", "asm": "304402207756240233548b40bd5afcebee579ff527c4d4740911482804024346003dc69b02204ec4e43c250452da863598500d050daf9b61db8eefaa5ebe54c07dca34af320e[ALL] 02abb746e7abab9b1dff825c803cf4357b99d87a495f2824645fe15da73ca58a37"}, "vout": 1, "txid": "6477b08b0dee6b6427b3576c71add8aa04147c3d7297543f694907b70d80eefd"}], "txid": "e455ba0ed1eac98dae6e3dee4d85f04539da5820ec9f17e2e3beba4780d78c99", "blocktime": 1537875543, "version": 1, "confirmations": 11464, "time": 1537875543, "locktime": 542998, "vsize": 256, "size": 256}