{"hash": "e456a375ca4b990cf5ab23a03aa71e3ca9b1a3b43a609c226b95fccc87fd81ca", "blockhash": "00000000000000000018f53835495a110e01622372bf6ae95dc86f2b0ab887b0", "vout": [{"scriptPubKey": {"type": "nulldata", "hex": "6a4c500000778c0001f70b36bf1d3054d80ba3060ce3ef3236678a625097bcbefa6b8351586b4e0397d38bd4ef329276b2018db169cec95baa0c4006144be3021c8cbfbc9a9526289ac0f6612cd74e33776ee4", "asm": "OP_RETURN 0000778c0001f70b36bf1d3054d80ba3060ce3ef3236678a625097bcbefa6b8351586b4e0397d38bd4ef329276b2018db169cec95baa0c4006144be3021c8cbfbc9a9526289ac0f6612cd74e33776ee4"}, "value": 0.0, "n": 0}, {"scriptPubKey": {"reqSigs": 1, "hex": "76a914902a4b4c7f58fba0f72c9c7efee6d11603df73d688ac", "addresses": ["1E9GyGktjksxTLhKYHpPV1zFxkKAQDTzK9"], "asm": "OP_DUP OP_HASH160 902a4b4c7f58fba0f72c9c7efee6d11603df73d6 OP_EQUALVERIFY OP_CHECKSIG", "type": "pubkeyhash"}, "value": 0.0014464, "n": 1}], "hex": "0100000001179ebbee20490d86ab8021549a8454d6f461f88faf4e1508ab48c50ed63db9fe010000006a47304402203e61da16ff869cc264b14869065b10b0c5a47c6007fce8748bbc82f6cabdc68e02200193866f0989500da6b6c594f83ab6efb0f484511bbeac7686cc692035debb51012103db7872c9fdd9b98c4b9fb0583179c5af921afcf77839f0d268280da6e4c6bd52ffffffff020000000000000000536a4c500000778c0001f70b36bf1d3054d80ba3060ce3ef3236678a625097bcbefa6b8351586b4e0397d38bd4ef329276b2018db169cec95baa0c4006144be3021c8cbfbc9a9526289ac0f6612cd74e33776ee400350200000000001976a914902a4b4c7f58fba0f72c9c7efee6d11603df73d688ac00000000", "vin": [{"sequence": 4294967295, "scriptSig": {"hex": "47304402203e61da16ff869cc264b14869065b10b0c5a47c6007fce8748bbc82f6cabdc68e02200193866f0989500da6b6c594f83ab6efb0f484511bbeac7686cc692035debb51012103db7872c9fdd9b98c4b9fb0583179c5af921afcf77839f0d268280da6e4c6bd52", "asm": "304402203e61da16ff869cc264b14869065b10b0c5a47c6007fce8748bbc82f6cabdc68e02200193866f0989500da6b6c594f83ab6efb0f484511bbeac7686cc692035debb51[ALL] 03db7872c9fdd9b98c4b9fb0583179c5af921afcf77839f0d268280da6e4c6bd52"}, "vout": 1, "txid": "feb93dd60ec548ab08154eaf8ff861f4d654849a542180ab860d4920eebb9e17"}], "txid": "e456a375ca4b990cf5ab23a03aa71e3ca9b1a3b43a609c226b95fccc87fd81ca", "blocktime": 1537870928, "version": 1, "confirmations": 11512, "time": 1537870928, "locktime": 0, "vsize": 283, "size": 283}