{"hash": "d3acfc2a861a4bee9df32185afc3ce73769cacb6f76f5b69ae751bd0ed26e54e", "blockhash": "00000000000000000024a2167bbff67b0be802c0b01cdd79e6331c2be6459f87", "vout": [{"scriptPubKey": {"reqSigs": 1, "hex": "76a914e7a4548aa3e7984805b2a7b30f8136e1402d82ca88ac", "addresses": ["1N7oxBL9HKXTt9GfpKCMbQgiTAFiiP7BSE"], "asm": "OP_DUP OP_HASH160 e7a4548aa3e7984805b2a7b30f8136e1402d82ca OP_EQUALVERIFY OP_CHECKSIG", "type": "pubkeyhash"}, "value": 0.1033031, "n": 0}, {"scriptPubKey": {"reqSigs": 1, "hex": "76a9148e4d706cdf7af7b51b86aa9fecb7b2fafaed9c0188ac", "addresses": ["1DyRiopKzx3pSCJ8juf745uykCxmoZUpmC"], "asm": "OP_DUP OP_HASH160 8e4d706cdf7af7b51b86aa9fecb7b2fafaed9c01 OP_EQUALVERIFY OP_CHECKSIG", "type": "pubkeyhash"}, "value": 0.15769505, "n": 1}], "hex": "01000000000101b8141f3f5b7c5f6df2544e1b0a8a84f1cb4e5978152ba1487d9d533b48112ffe0000000017160014bf9f9fe5a467808b893562aad5e4464da8aba157ffffffff02c6a09d00000000001976a914e7a4548aa3e7984805b2a7b30f8136e1402d82ca88aca19ff000000000001976a9148e4d706cdf7af7b51b86aa9fecb7b2fafaed9c0188ac0248304502210095ed17de1c11d294614d2dc59fa1649c7df44363f7b5183989bc5de006b446e10220281301faf8d1e9554fe2003293c6279a0a90e022e58a277bf25b82ce6ec911d501210227a1a35ce1c997fb272af1eac4ca062cac8ccbdd7d39d320a8f296b63bf5d9cb00000000", "vin": [{"txinwitness": ["304502210095ed17de1c11d294614d2dc59fa1649c7df44363f7b5183989bc5de006b446e10220281301faf8d1e9554fe2003293c6279a0a90e022e58a277bf25b82ce6ec911d501", "0227a1a35ce1c997fb272af1eac4ca062cac8ccbdd7d39d320a8f296b63bf5d9cb"], "sequence": 4294967295, "scriptSig": {"hex": "160014bf9f9fe5a467808b893562aad5e4464da8aba157", "asm": "0014bf9f9fe5a467808b893562aad5e4464da8aba157"}, "vout": 0, "txid": "fe2f11483b539d7d48a12b1578594ecbf1848a0a1b4e54f26d5f7c5b3f1f14b8"}], "txid": "e464bdf87e99cb3753622c0ebee3b0083e739b7f85570ff126d963d776c8abdc", "blocktime": 1537870564, "version": 1, "confirmations": 11515, "time": 1537870564, "locktime": 0, "vsize": 170, "size": 252}