{"hash": "e46a32a7ed0cb8e61538f440f6fadf6f2569d34473dbbdd69e6c20dc6a6101d6", "blockhash": "000000000000000000022b45ed06c6f4ccd3cf7fb5ba4856ebd2e58215665228", "vout": [{"scriptPubKey": {"reqSigs": 1, "hex": "76a914b3213999baeeb218b3ccb2d4fd95a628e0a70bec88ac", "addresses": ["1HL9krNctpHWNAtrtcisF8gBHzq6PqFCt4"], "asm": "OP_DUP OP_HASH160 b3213999baeeb218b3ccb2d4fd95a628e0a70bec OP_EQUALVERIFY OP_CHECKSIG", "type": "pubkeyhash"}, "value": 0.01001092, "n": 0}, {"scriptPubKey": {"type": "nulldata", "hex": "6a146f6d6e69000000000000001f0000003c6c11bea0", "asm": "OP_RETURN 6f6d6e69000000000000001f0000003c6c11bea0"}, "value": 0.0, "n": 1}, {"scriptPubKey": {"reqSigs": 1, "hex": "76a914f78607522d0dd64fed2e356da114b378316ae45588ac", "addresses": ["1PZnTrSGFR4XBx1frxYFAaXG5AjKChrmMG"], "asm": "OP_DUP OP_HASH160 f78607522d0dd64fed2e356da114b378316ae455 OP_EQUALVERIFY OP_CHECKSIG", "type": "pubkeyhash"}, "value": 5.46e-06, "n": 2}], "hex": "010000000253beed5200acee36fcc9bf8690d5c13d44c3d6abde9801f2d116b616a96f27c1010000006a47304402203f9fb51480f8a79ec1838b7dac7244fe9f2cf70d27598019476659de9b98321302200cff50e9693af80c37fbd35441d3050edd1e29b2be6ef194bc2bf5fd8f2475c60121024e00cdc2840fac55dd985c8d817a9bd66792270e1fdf69ac8241de45120b42c0ffffffff26de15b1b29f1213db83e6ef98ca6cc01d7f687f73f2dc256d43f6b2f8dde43d000000006b483045022100dc4a0957de2e8e020e8647a7921719040d2b7be9a416f444bd19754cdfbcfee402203ff53e4b0c0bbdbc58e2942ee023b525504b86066ae5bd8e7151307b04246dc40121038566b3faf972967d8b40bd5d15093e241bc6337d89128d80ee17907f7a346a4dffffffff0384460f00000000001976a914b3213999baeeb218b3ccb2d4fd95a628e0a70bec88ac0000000000000000166a146f6d6e69000000000000001f0000003c6c11bea022020000000000001976a914f78607522d0dd64fed2e356da114b378316ae45588ac00000000", "vin": [{"sequence": 4294967295, "scriptSig": {"hex": "47304402203f9fb51480f8a79ec1838b7dac7244fe9f2cf70d27598019476659de9b98321302200cff50e9693af80c37fbd35441d3050edd1e29b2be6ef194bc2bf5fd8f2475c60121024e00cdc2840fac55dd985c8d817a9bd66792270e1fdf69ac8241de45120b42c0", "asm": "304402203f9fb51480f8a79ec1838b7dac7244fe9f2cf70d27598019476659de9b98321302200cff50e9693af80c37fbd35441d3050edd1e29b2be6ef194bc2bf5fd8f2475c6[ALL] 024e00cdc2840fac55dd985c8d817a9bd66792270e1fdf69ac8241de45120b42c0"}, "vout": 1, "txid": "c1276fa916b616d1f20198deabd6c3443dc1d59086bfc9fc36eeac0052edbe53"}, {"sequence": 4294967295, "scriptSig": {"hex": "483045022100dc4a0957de2e8e020e8647a7921719040d2b7be9a416f444bd19754cdfbcfee402203ff53e4b0c0bbdbc58e2942ee023b525504b86066ae5bd8e7151307b04246dc40121038566b3faf972967d8b40bd5d15093e241bc6337d89128d80ee17907f7a346a4d", "asm": "3045022100dc4a0957de2e8e020e8647a7921719040d2b7be9a416f444bd19754cdfbcfee402203ff53e4b0c0bbdbc58e2942ee023b525504b86066ae5bd8e7151307b04246dc4[ALL] 038566b3faf972967d8b40bd5d15093e241bc6337d89128d80ee17907f7a346a4d"}, "vout": 0, "txid": "3de4ddf8b2f6436d25dcf2737f687f1dc06cca98efe683db13129fb2b115de26"}], "txid": "e46a32a7ed0cb8e61538f440f6fadf6f2569d34473dbbdd69e6c20dc6a6101d6", "blocktime": 1537869901, "version": 1, "confirmations": 11522, "time": 1537869901, "locktime": 0, "vsize": 404, "size": 404}