{"hash": "c474afe6ce5cbe2d5a42b261cb56ee6c6987a3df3983500f0974f581a62ba355", "blockhash": "0000000000000000000e13cef7c366c0283d82e591d1acd082e914b08063cdf1", "vout": [{"scriptPubKey": {"reqSigs": 1, "hex": "a91481b42ceda1e9e33e4c8627115de3c21ebe32c91d87", "addresses": ["3DWpw6wGbiBg6cznmMS7eBYDonrsj4HpTF"], "asm": "OP_HASH160 81b42ceda1e9e33e4c8627115de3c21ebe32c91d OP_EQUAL", "type": "scripthash"}, "value": 0.04869801, "n": 0}, {"scriptPubKey": {"reqSigs": 1, "hex": "a914358db30e583a43636b2663145bc5a4423c0ba4fc87", "addresses": ["36aBVAFV9CbBHGFug24teFKT3yGPCtFoGC"], "asm": "OP_HASH160 358db30e583a43636b2663145bc5a4423c0ba4fc OP_EQUAL", "type": "scripthash"}, "value": 0.0025, "n": 1}, {"scriptPubKey": {"reqSigs": 1, "hex": "a914aba304dca90cd2ef32ee4414b669664d0afd25c187", "addresses": ["3HLYm737Jtja4GKNYzntmiQnYS6rwTahCU"], "asm": "OP_HASH160 aba304dca90cd2ef32ee4414b669664d0afd25c1 OP_EQUAL", "type": "scripthash"}, "value": 2e-05, "n": 2}], "hex": "02000000000101d275f2d824e7860a0fb435e23aea05494c5b60ec4c2099139109287f40113f52010000001716001403a3c02aa042e392e283408700283cc1e2aa00cdfeffffff03a94e4a000000000017a91481b42ceda1e9e33e4c8627115de3c21ebe32c91d8790d003000000000017a914358db30e583a43636b2663145bc5a4423c0ba4fc87d00700000000000017a914aba304dca90cd2ef32ee4414b669664d0afd25c18702473044022059de873604199856522e803a2ce74bb0e34d6312cfc757fc736018a9494247ae02207003361955445415e00089294a9dbfa9b73d15bc21c839736444939e0657d5e6012102bf6cf0d1f16a03179d500bc983000ac2c86c9d1b18d55dccbde004287d8c2e7910490800", "vin": [{"txinwitness": ["3044022059de873604199856522e803a2ce74bb0e34d6312cfc757fc736018a9494247ae02207003361955445415e00089294a9dbfa9b73d15bc21c839736444939e0657d5e601", "02bf6cf0d1f16a03179d500bc983000ac2c86c9d1b18d55dccbde004287d8c2e79"], "sequence": 4294967294, "scriptSig": {"hex": "16001403a3c02aa042e392e283408700283cc1e2aa00cd", "asm": "001403a3c02aa042e392e283408700283cc1e2aa00cd"}, "vout": 1, "txid": "523f11407f2809911399204cec605b4c4905ea3ae235b40f0a86e724d8f275d2"}], "txid": "e476e28fb286e74dfc12ad213587a80a65ef7ecd69a33709075d8601a7ac6418", "blocktime": 1537871767, "version": 2, "confirmations": 11491, "time": 1537871767, "locktime": 542992, "vsize": 198, "size": 279}