{"hash": "e478200e4e6d3d95b41c0e8faddd9cdabc3535c23768962cf9074b5a36b11626", "blockhash": "00000000000000000018f53835495a110e01622372bf6ae95dc86f2b0ab887b0", "vout": [{"scriptPubKey": {"reqSigs": 1, "hex": "76a91446d0a4b4992f910085a341719f47881a4ae7960188ac", "addresses": ["17TSFE1mjVMHDrBunPX2MYk7Kci1vnp2it"], "asm": "OP_DUP OP_HASH160 46d0a4b4992f910085a341719f47881a4ae79601 OP_EQUALVERIFY OP_CHECKSIG", "type": "pubkeyhash"}, "value": 0.00156148, "n": 0}, {"scriptPubKey": {"reqSigs": 1, "hex": "76a9140a9a0f592177211052048473ff942c77dfe4af0188ac", "addresses": ["1y4KC7Nvd6rL6AMEDk5MncNgzcw1BuM2R"], "asm": "OP_DUP OP_HASH160 0a9a0f592177211052048473ff942c77dfe4af01 OP_EQUALVERIFY OP_CHECKSIG", "type": "pubkeyhash"}, "value": 0.00220863, "n": 1}], "hex": "01000000013dc0d0c66874439feb0ad1dd593e37590d743d3dce13b0c5b6a13da2a63bc1fc000000006a473044022046c87d1af7da4e7f78860ec2b208f1a770464cfa5a92f8020f5618ca0d5107b0022010f1c61f45e7ead3e267664b1f18b24428b68a4d9f1548fb1dffd70e3119f1c7012102c52066da37ebd3fcb826238e31f08348eae654eda8f56a6689e045b518f0bf1bffffffff02f4610200000000001976a91446d0a4b4992f910085a341719f47881a4ae7960188acbf5e0300000000001976a9140a9a0f592177211052048473ff942c77dfe4af0188ac00000000", "vin": [{"sequence": 4294967295, "scriptSig": {"hex": "473044022046c87d1af7da4e7f78860ec2b208f1a770464cfa5a92f8020f5618ca0d5107b0022010f1c61f45e7ead3e267664b1f18b24428b68a4d9f1548fb1dffd70e3119f1c7012102c52066da37ebd3fcb826238e31f08348eae654eda8f56a6689e045b518f0bf1b", "asm": "3044022046c87d1af7da4e7f78860ec2b208f1a770464cfa5a92f8020f5618ca0d5107b0022010f1c61f45e7ead3e267664b1f18b24428b68a4d9f1548fb1dffd70e3119f1c7[ALL] 02c52066da37ebd3fcb826238e31f08348eae654eda8f56a6689e045b518f0bf1b"}, "vout": 0, "txid": "fcc13ba6a23da1b6c5b013ce3d3d740d59373e59ddd10aeb9f437468c6d0c03d"}], "txid": "e478200e4e6d3d95b41c0e8faddd9cdabc3535c23768962cf9074b5a36b11626", "blocktime": 1537870928, "version": 1, "confirmations": 11514, "time": 1537870928, "locktime": 0, "vsize": 225, "size": 225}