{"hash": "e47c1eca6ad80707419652c3440bf1701628908d4037f930863e214eafcf7181", "blockhash": "000000000000000000022b45ed06c6f4ccd3cf7fb5ba4856ebd2e58215665228", "vout": [{"scriptPubKey": {"reqSigs": 1, "hex": "76a9146a6c4d4599212119a10b94e027d566106bc6694688ac", "addresses": ["1AhiNH8EmWUMzPSPz2WLPaxAK478nYL7p2"], "asm": "OP_DUP OP_HASH160 6a6c4d4599212119a10b94e027d566106bc66946 OP_EQUALVERIFY OP_CHECKSIG", "type": "pubkeyhash"}, "value": 0.012, "n": 0}, {"scriptPubKey": {"reqSigs": 1, "hex": "76a914fd946cb13c12d7a35a4de8c5d0547f09090bbc4788ac", "addresses": ["1Q7omFiLJ2QLUDHkWfDaa6mnCRsjH4yaKe"], "asm": "OP_DUP OP_HASH160 fd946cb13c12d7a35a4de8c5d0547f09090bbc47 OP_EQUALVERIFY OP_CHECKSIG", "type": "pubkeyhash"}, "value": 0.0101366, "n": 1}], "hex": "020000000172089e23597d3d6ff504428cda76b1ab0ca2c4fe663845600673c9267b00fee5000000006b483045022100d36a7288db1452d44456806f778698ea755354df93aa161746eed9b8124bfcec022003c40d593d7c16eb8a4ebc4c99eee4f0446afb3b94544c4005481e8147ff12da01210212523487a608ed1b60f27e53a20b1a9de4b9a081aeb1754b3904dd49d4fe5f99feffffff02804f1200000000001976a9146a6c4d4599212119a10b94e027d566106bc6694688ac9c770f00000000001976a914fd946cb13c12d7a35a4de8c5d0547f09090bbc4788acb0480800", "vin": [{"sequence": 4294967294, "scriptSig": {"hex": "483045022100d36a7288db1452d44456806f778698ea755354df93aa161746eed9b8124bfcec022003c40d593d7c16eb8a4ebc4c99eee4f0446afb3b94544c4005481e8147ff12da01210212523487a608ed1b60f27e53a20b1a9de4b9a081aeb1754b3904dd49d4fe5f99", "asm": "3045022100d36a7288db1452d44456806f778698ea755354df93aa161746eed9b8124bfcec022003c40d593d7c16eb8a4ebc4c99eee4f0446afb3b94544c4005481e8147ff12da[ALL] 0212523487a608ed1b60f27e53a20b1a9de4b9a081aeb1754b3904dd49d4fe5f99"}, "vout": 0, "txid": "e5fe007b26c9730660453866fec4a20cabb176da8c4204f56f3d7d59239e0872"}], "txid": "e47c1eca6ad80707419652c3440bf1701628908d4037f930863e214eafcf7181", "blocktime": 1537869901, "version": 2, "confirmations": 11522, "time": 1537869901, "locktime": 542896, "vsize": 226, "size": 226}