{"hash": "a17ef88f37d41a729cb25e8678dc6d30be629d32a304e099b2e1897a5fc9aebd", "blockhash": "0000000000000000001cda96e906b7601b7a6fb1a3b62bca570a9e5d8f4b3de1", "vout": [{"scriptPubKey": {"reqSigs": 1, "hex": "76a914e90c11b0ec4b96fc2e6165fb37e7a0c565f7f4e488ac", "addresses": ["1NFEuGpFLUZ9XBY1CQ4H8ESLQcTpQwUwwg"], "asm": "OP_DUP OP_HASH160 e90c11b0ec4b96fc2e6165fb37e7a0c565f7f4e4 OP_EQUALVERIFY OP_CHECKSIG", "type": "pubkeyhash"}, "value": 8.46e-06, "n": 0}, {"scriptPubKey": {"reqSigs": 1, "hex": "a91451c211bb228bcf3efeb20fc7daf0e3ed8859535987", "addresses": ["399K9FVf1zHVjFbdsfsHWHD9DZyv7MyH4C"], "asm": "OP_HASH160 51c211bb228bcf3efeb20fc7daf0e3ed88595359 OP_EQUAL", "type": "scripthash"}, "value": 0.00409625, "n": 1}, {"scriptPubKey": {"reqSigs": 1, "hex": "a914091ad69808b7267948cdec0d968c32f1c373960687", "addresses": ["32XAA2QVG2FcQ6k32fQxmiGxfUbsARVDB7"], "asm": "OP_HASH160 091ad69808b7267948cdec0d968c32f1c3739606 OP_EQUAL", "type": "scripthash"}, "value": 0.00099732, "n": 2}, {"scriptPubKey": {"reqSigs": 1, "hex": "76a914296e892c599c68f6ee9fe089ebe62a3073d36b9488ac", "addresses": ["14n582hnS56ngn6mZffJxsHSXcan1nE78L"], "asm": "OP_DUP OP_HASH160 296e892c599c68f6ee9fe089ebe62a3073d36b94 OP_EQUALVERIFY OP_CHECKSIG", "type": "pubkeyhash"}, "value": 0.0001, "n": 3}, {"scriptPubKey": {"reqSigs": 1, "hex": "a914bddce1db77593a7ac8d67f0d488c4311d5103ffa87", "addresses": ["3JzvEy64J63pDv7KjyKsVzupMgKcwdgQU4"], "asm": "OP_HASH160 bddce1db77593a7ac8d67f0d488c4311d5103ffa OP_EQUAL", "type": "scripthash"}, "value": 0.01001073, "n": 4}, {"scriptPubKey": {"reqSigs": 1, "hex": "76a91497b739a81f71095968150552fb0626744800f86488ac", "addresses": ["1EqCXgKhyCZ6JoBY97KerfgvDeuEUZseLM"], "asm": "OP_DUP OP_HASH160 97b739a81f71095968150552fb0626744800f864 OP_EQUALVERIFY OP_CHECKSIG", "type": "pubkeyhash"}, "value": 0.00098984, "n": 5}], "hex": "02000000000101db6d2477eb8f258b904b124ee14fea9eac2f1c8639da7d86a62bf9c5806d2e020100000017160014394c1d55120fea8442873d75d93263e22518f914ffffffff064e030000000000001976a914e90c11b0ec4b96fc2e6165fb37e7a0c565f7f4e488ac194006000000000017a91451c211bb228bcf3efeb20fc7daf0e3ed8859535987948501000000000017a914091ad69808b7267948cdec0d968c32f1c37396068710270000000000001976a914296e892c599c68f6ee9fe089ebe62a3073d36b9488ac71460f000000000017a914bddce1db77593a7ac8d67f0d488c4311d5103ffa87a8820100000000001976a91497b739a81f71095968150552fb0626744800f86488ac02473044022041c9724d2cdfb2132e90dd8bc46fd727336829ba454875ca8b01c22b434c8b49022004de3894e537eb3960364ee2aeda94e8b7dd52c36c7034769069069a19c65315012103e196163b6d30d0fef27eff5bae2754a7ccba75d466b78c87116b6535bacce31b00000000", "vin": [{"txinwitness": ["3044022041c9724d2cdfb2132e90dd8bc46fd727336829ba454875ca8b01c22b434c8b49022004de3894e537eb3960364ee2aeda94e8b7dd52c36c7034769069069a19c6531501", "03e196163b6d30d0fef27eff5bae2754a7ccba75d466b78c87116b6535bacce31b"], "sequence": 4294967295, "scriptSig": {"hex": "160014394c1d55120fea8442873d75d93263e22518f914", "asm": "0014394c1d55120fea8442873d75d93263e22518f914"}, "vout": 1, "txid": "022e6d80c5f92ba6867dda39861c2fac9eea4fe14e124b908b258feb77246ddb"}], "txid": "e47d66c05c139cb455bee4ce6c75bef2a9bc03927b58e79ac50d4791f533e303", "blocktime": 1537873282, "version": 2, "confirmations": 11484, "time": 1537873282, "locktime": 0, "vsize": 300, "size": 381}