{"hash": "e47fc35fba29a1e61db9a05aff4e3897129182cda0aefd40436d836374e58f39", "blockhash": "0000000000000000001f0ddff1eddb255c1121bcd4da4f1bc9a0da00cae72433", "vout": [{"scriptPubKey": {"reqSigs": 1, "hex": "a91427ad0e3d1f284ad38779eb9c031230e8a1c1473287", "addresses": ["35Job96eBrWrwDaCmCgMeB6HmcNfGmoXiF"], "asm": "OP_HASH160 27ad0e3d1f284ad38779eb9c031230e8a1c14732 OP_EQUAL", "type": "scripthash"}, "value": 3.67780278, "n": 0}, {"scriptPubKey": {"reqSigs": 1, "hex": "76a9141d846d1944574961e7b8c935eb6853bd9512c95588ac", "addresses": ["13h5EhHA1xgZr68CoqduBfyYStg3vdFkAM"], "asm": "OP_DUP OP_HASH160 1d846d1944574961e7b8c935eb6853bd9512c955 OP_EQUALVERIFY OP_CHECKSIG", "type": "pubkeyhash"}, "value": 0.0166, "n": 1}], "hex": "01000000012498b15a193b192c01da3dba3df8f43b3a386707e3bb37e1e8e09e742a717ce401000000fdfd00004730440220347071c3194af947d1c8a3162b2108949bab97663087edfd0abaf2349a3036f30220324130214e06245177cc1d0ac6dade507e686b5718cec1656fb95ba704ac295101483045022100adebb589a13e961c896addb26bd77cb5f69897d7911909186d5ed63255dc904a02202cd04cc7babeace3bc5115760d63a93a279df6e880192ce6e8c2245ec57da842014c69522103d1b901f5977e6ec41122a878e9ace400f1f8cb5f03d828422f0137bba3a55ce62102cc21d70e74252da672c6dbf2fb1f38032b719e2cf9df84ee7c499e56f7fe08aa2102733d1561c5dad096f254919ef44d366f6a34d7b3e6a274fc7538b2db8115598d53aeffffffff02b6e1eb150000000017a91427ad0e3d1f284ad38779eb9c031230e8a1c147328760541900000000001976a9141d846d1944574961e7b8c935eb6853bd9512c95588ac00000000", "vin": [{"sequence": 4294967295, "scriptSig": {"hex": "004730440220347071c3194af947d1c8a3162b2108949bab97663087edfd0abaf2349a3036f30220324130214e06245177cc1d0ac6dade507e686b5718cec1656fb95ba704ac295101483045022100adebb589a13e961c896addb26bd77cb5f69897d7911909186d5ed63255dc904a02202cd04cc7babeace3bc5115760d63a93a279df6e880192ce6e8c2245ec57da842014c69522103d1b901f5977e6ec41122a878e9ace400f1f8cb5f03d828422f0137bba3a55ce62102cc21d70e74252da672c6dbf2fb1f38032b719e2cf9df84ee7c499e56f7fe08aa2102733d1561c5dad096f254919ef44d366f6a34d7b3e6a274fc7538b2db8115598d53ae", "asm": "0 30440220347071c3194af947d1c8a3162b2108949bab97663087edfd0abaf2349a3036f30220324130214e06245177cc1d0ac6dade507e686b5718cec1656fb95ba704ac2951[ALL] 3045022100adebb589a13e961c896addb26bd77cb5f69897d7911909186d5ed63255dc904a02202cd04cc7babeace3bc5115760d63a93a279df6e880192ce6e8c2245ec57da842[ALL] 522103d1b901f5977e6ec41122a878e9ace400f1f8cb5f03d828422f0137bba3a55ce62102cc21d70e74252da672c6dbf2fb1f38032b719e2cf9df84ee7c499e56f7fe08aa2102733d1561c5dad096f254919ef44d366f6a34d7b3e6a274fc7538b2db8115598d53ae"}, "vout": 1, "txid": "e47c712a749ee0e8e137bbe30767383a3bf4f83dba3dda012c193b195ab19824"}], "txid": "e47fc35fba29a1e61db9a05aff4e3897129182cda0aefd40436d836374e58f39", "blocktime": 1537872018, "version": 1, "confirmations": 11489, "time": 1537872018, "locktime": 0, "vsize": 372, "size": 372}