{"hash": "e47f5867c60917450729298b696f5823b68729f4162a06daa20c35d03cfbe985", "blockhash": "00000000000000000024a2167bbff67b0be802c0b01cdd79e6331c2be6459f87", "vout": [{"scriptPubKey": {"reqSigs": 1, "hex": "76a914189417c7c2ff1f199fc582f54d47d48282a6016e88ac", "addresses": ["13ExdH9hSEXGPVAcUtLaEp4qeKVpKtYNJv"], "asm": "OP_DUP OP_HASH160 189417c7c2ff1f199fc582f54d47d48282a6016e OP_EQUALVERIFY OP_CHECKSIG", "type": "pubkeyhash"}, "value": 0.00261784, "n": 0}, {"scriptPubKey": {"reqSigs": 1, "hex": "76a9147d062f9d43eae2f359ad8f96d69cd304a8e6b6c388ac", "addresses": ["1CQ4snmjmPVT1siGNKGrXMRLGwebbinLCM"], "asm": "OP_DUP OP_HASH160 7d062f9d43eae2f359ad8f96d69cd304a8e6b6c3 OP_EQUALVERIFY OP_CHECKSIG", "type": "pubkeyhash"}, "value": 2.846e-05, "n": 1}], "hex": "010000000187411bbf370b413f6c573b6a07490daaa2401274364cbe6a13cc73716a3e0ae9160000006b483045022100bfaccbce5ccf2d313224e092250f5de4fe5af1b002114fbf6f2f955055045b0a0220170f713c6a6f067bff1a5fbecbb746203b63a635ec9a56718a3e676875f5638e012102d6aefc9f81ee991f9293131e4e12992d1125ca86cea3246122ac456e519e9cfaffffffff0298fe0300000000001976a914189417c7c2ff1f199fc582f54d47d48282a6016e88ac1e0b0000000000001976a9147d062f9d43eae2f359ad8f96d69cd304a8e6b6c388ac00000000", "vin": [{"sequence": 4294967295, "scriptSig": {"hex": "483045022100bfaccbce5ccf2d313224e092250f5de4fe5af1b002114fbf6f2f955055045b0a0220170f713c6a6f067bff1a5fbecbb746203b63a635ec9a56718a3e676875f5638e012102d6aefc9f81ee991f9293131e4e12992d1125ca86cea3246122ac456e519e9cfa", "asm": "3045022100bfaccbce5ccf2d313224e092250f5de4fe5af1b002114fbf6f2f955055045b0a0220170f713c6a6f067bff1a5fbecbb746203b63a635ec9a56718a3e676875f5638e[ALL] 02d6aefc9f81ee991f9293131e4e12992d1125ca86cea3246122ac456e519e9cfa"}, "vout": 22, "txid": "e90a3e6a7173cc136abe4c36741240a2aa0d49076a3b576c3f410b37bf1b4187"}], "txid": "e47f5867c60917450729298b696f5823b68729f4162a06daa20c35d03cfbe985", "blocktime": 1537870564, "version": 1, "confirmations": 11515, "time": 1537870564, "locktime": 0, "vsize": 226, "size": 226}