{"hash": "e481a9724d6234d12945823fba28b9bfc82a24c2494720b3170f088f326a677d", "blockhash": "00000000000000000017f5eb5941039fbcee6240d03bc1f2f8e35350df66a1d8", "vout": [{"scriptPubKey": {"reqSigs": 1, "hex": "76a914c244fd05f6b9df03a18ba661d86a34a60b4a7dcd88ac", "addresses": ["1JiCjcTD79Jz1zWd3PGMxAmBYmr4xoA8a4"], "asm": "OP_DUP OP_HASH160 c244fd05f6b9df03a18ba661d86a34a60b4a7dcd OP_EQUALVERIFY OP_CHECKSIG", "type": "pubkeyhash"}, "value": 0.01180935, "n": 0}], "hex": "010000000433438efeb276a6fc736253d97b440fc6804123edc5f350f0f9a78001792e53bc020000006a47304402202aae2efd6d48a5429272e9c1b00a021bb0ba09fb8e7e81fb3a8932e311dd662d022079b56622f438d142add5581c618a923a1485e11ee8b2de824ced95ddc1cdbee2012102662ced4033d0b21c53205a5ffad30cb2fc2e0fba3326f16e552d8967330c625effffffff72d631d55df123031bec9db660bae168fa9665a44db4b2256090a90b82a3a540030000006b483045022100884ecc570e1d7b3d0816ecacaf46251a67e18808189aea9bf0cfd2cd909c43b902205d7ce4a1765bee5d9381caeac156d17476a30de7ee4affac9fc824ddee40b986012102662ced4033d0b21c53205a5ffad30cb2fc2e0fba3326f16e552d8967330c625effffffff0b08abba98c578aa57f22bbace13d06e786584331c2e7afbf956c9f706640b39020000006a47304402201a38acec84ce8756cadb506a961ac4a98fd752e5793d5cfd7adef295f429555b0220208debfd74bcb3dd5c8b22a23a3d557f0556b9298324d3180414c5d4876c672b012102662ced4033d0b21c53205a5ffad30cb2fc2e0fba3326f16e552d8967330c625effffffffae2e6040920ea35689a247bfb4a3c5759ba6eb8beb625fac3a55b150690b0f56010000006b483045022100c821e081b4cd61a38542c9cd951fce0c120b2e631e31043eeacd914ff8aca5e302202d392f76df3ea0ad2363c6e468d69b38224918c85b68f3a15a0b1b58d28d45aa012102662ced4033d0b21c53205a5ffad30cb2fc2e0fba3326f16e552d8967330c625effffffff0107051200000000001976a914c244fd05f6b9df03a18ba661d86a34a60b4a7dcd88ac00000000", "vin": [{"sequence": 4294967295, "scriptSig": {"hex": "47304402202aae2efd6d48a5429272e9c1b00a021bb0ba09fb8e7e81fb3a8932e311dd662d022079b56622f438d142add5581c618a923a1485e11ee8b2de824ced95ddc1cdbee2012102662ced4033d0b21c53205a5ffad30cb2fc2e0fba3326f16e552d8967330c625e", "asm": "304402202aae2efd6d48a5429272e9c1b00a021bb0ba09fb8e7e81fb3a8932e311dd662d022079b56622f438d142add5581c618a923a1485e11ee8b2de824ced95ddc1cdbee2[ALL] 02662ced4033d0b21c53205a5ffad30cb2fc2e0fba3326f16e552d8967330c625e"}, "vout": 2, "txid": "bc532e790180a7f9f050f3c5ed234180c60f447bd9536273fca676b2fe8e4333"}, {"sequence": 4294967295, "scriptSig": {"hex": "483045022100884ecc570e1d7b3d0816ecacaf46251a67e18808189aea9bf0cfd2cd909c43b902205d7ce4a1765bee5d9381caeac156d17476a30de7ee4affac9fc824ddee40b986012102662ced4033d0b21c53205a5ffad30cb2fc2e0fba3326f16e552d8967330c625e", "asm": "3045022100884ecc570e1d7b3d0816ecacaf46251a67e18808189aea9bf0cfd2cd909c43b902205d7ce4a1765bee5d9381caeac156d17476a30de7ee4affac9fc824ddee40b986[ALL] 02662ced4033d0b21c53205a5ffad30cb2fc2e0fba3326f16e552d8967330c625e"}, "vout": 3, "txid": "40a5a3820ba9906025b2b44da46596fa68e1ba60b69dec1b0323f15dd531d672"}, {"sequence": 4294967295, "scriptSig": {"hex": "47304402201a38acec84ce8756cadb506a961ac4a98fd752e5793d5cfd7adef295f429555b0220208debfd74bcb3dd5c8b22a23a3d557f0556b9298324d3180414c5d4876c672b012102662ced4033d0b21c53205a5ffad30cb2fc2e0fba3326f16e552d8967330c625e", "asm": "304402201a38acec84ce8756cadb506a961ac4a98fd752e5793d5cfd7adef295f429555b0220208debfd74bcb3dd5c8b22a23a3d557f0556b9298324d3180414c5d4876c672b[ALL] 02662ced4033d0b21c53205a5ffad30cb2fc2e0fba3326f16e552d8967330c625e"}, "vout": 2, "txid": "390b6406f7c956f9fb7a2e1c338465786ed013ceba2bf257aa78c598baab080b"}, {"sequence": 4294967295, "scriptSig": {"hex": "483045022100c821e081b4cd61a38542c9cd951fce0c120b2e631e31043eeacd914ff8aca5e302202d392f76df3ea0ad2363c6e468d69b38224918c85b68f3a15a0b1b58d28d45aa012102662ced4033d0b21c53205a5ffad30cb2fc2e0fba3326f16e552d8967330c625e", "asm": "3045022100c821e081b4cd61a38542c9cd951fce0c120b2e631e31043eeacd914ff8aca5e302202d392f76df3ea0ad2363c6e468d69b38224918c85b68f3a15a0b1b58d28d45aa[ALL] 02662ced4033d0b21c53205a5ffad30cb2fc2e0fba3326f16e552d8967330c625e"}, "vout": 1, "txid": "560f0b6950b1553aac5f62eb8beba69b75c5a3b4bf47a28956a30e9240602eae"}], "txid": "e481a9724d6234d12945823fba28b9bfc82a24c2494720b3170f088f326a677d", "blocktime": 1537874412, "version": 1, "confirmations": 11467, "time": 1537874412, "locktime": 0, "vsize": 634, "size": 634}