{"hash": "ca0934c8109e58f72510c2823747a42ae2ebb0b82e57c418498981aa981fe78d", "blockhash": "00000000000000000004ffacab907a6b429b9a5745fa0b75af4234bf69dd7176", "vout": [{"scriptPubKey": {"reqSigs": 1, "hex": "a914ad55e24cac7cc9521b52942537f040c8a135a58e87", "addresses": ["3HVXi46MJLRmwWZTzunw1DC9qjD5YL5j6t"], "asm": "OP_HASH160 ad55e24cac7cc9521b52942537f040c8a135a58e OP_EQUAL", "type": "scripthash"}, "value": 0.00524799, "n": 0}, {"scriptPubKey": {"reqSigs": 1, "hex": "76a91485d84f9f05660b585da19093c5fc5d0347187e9788ac", "addresses": ["1DCi14s6fMDoU933sSf6D2TYjoT5f7DQti"], "asm": "OP_DUP OP_HASH160 85d84f9f05660b585da19093c5fc5d0347187e97 OP_EQUALVERIFY OP_CHECKSIG", "type": "pubkeyhash"}, "value": 0.0154688, "n": 1}, {"scriptPubKey": {"reqSigs": 1, "hex": "a9143411927a7b901306f9bd4d23f1076e5d55c52a1c87", "addresses": ["36SL7TNaQnfstdJPmTRAL29Z2nH1V36H4Q"], "asm": "OP_HASH160 3411927a7b901306f9bd4d23f1076e5d55c52a1c OP_EQUAL", "type": "scripthash"}, "value": 0.04503, "n": 2}, {"scriptPubKey": {"reqSigs": 1, "hex": "a9141988a27e3c2df4ddee7fad5a2303d086179b2a3087", "addresses": ["3422VtS7UtCvXYxoXMVp6eZupR252z85oC"], "asm": "OP_HASH160 1988a27e3c2df4ddee7fad5a2303d086179b2a30 OP_EQUAL", "type": "scripthash"}, "value": 2.75697557, "n": 3}, {"scriptPubKey": {"reqSigs": 1, "hex": "a91469f37498afaeae90afefe825914407ea2750764287", "addresses": ["3BMEXGU7ie6i3BHZX3kJ6gnYUEHXUseKw5"], "asm": "OP_HASH160 69f37498afaeae90afefe825914407ea27507642 OP_EQUAL", "type": "scripthash"}, "value": 0.0004, "n": 4}], "hex": "010000000001016c7145936562035d7dde1f3ff5545934075d8c970c2f39dfef7522f0408bad07010000002322002065d416c48a8072e0ac51c2d111eb194f009caef0332446c1bf2097316cf07fa9ffffffff05ff0108000000000017a914ad55e24cac7cc9521b52942537f040c8a135a58e87809a1700000000001976a91485d84f9f05660b585da19093c5fc5d0347187e9788acd8b544000000000017a9143411927a7b901306f9bd4d23f1076e5d55c52a1c8795cf6e100000000017a9141988a27e3c2df4ddee7fad5a2303d086179b2a3087409c00000000000017a91469f37498afaeae90afefe825914407ea2750764287040047304402202b6f5cb2451c8365efa97253875d49892b81f662041f556a35b61e2551a3800502207d18c481b9d30d57bb927e28a2d075daba7070e4f25d25a7439598c7407418e101483045022100911c2b2b2d6fdd88ee74a9ed256faa6f0c0f59a104b1899e2e4b6bb723521570022072c350f2e31bba72348c6b10eb4540ff5b917070fafc9f2393eb522262aa91d90169522102f44abcf9e23c9a460da309ccca56c619c04eed3bde2c2cff5e7d78fbcd980b9c2103c9443cf3047bb6c2c82f1b0c44c36109cdc3d0d601d16d1189a1602bf8d1a0a02103bfe867059274412412e088af5572b92168c2ef495cfe6c9b7a753a009eb37c4853ae00000000", "vin": [{"txinwitness": ["", "304402202b6f5cb2451c8365efa97253875d49892b81f662041f556a35b61e2551a3800502207d18c481b9d30d57bb927e28a2d075daba7070e4f25d25a7439598c7407418e101", "3045022100911c2b2b2d6fdd88ee74a9ed256faa6f0c0f59a104b1899e2e4b6bb723521570022072c350f2e31bba72348c6b10eb4540ff5b917070fafc9f2393eb522262aa91d901", "522102f44abcf9e23c9a460da309ccca56c619c04eed3bde2c2cff5e7d78fbcd980b9c2103c9443cf3047bb6c2c82f1b0c44c36109cdc3d0d601d16d1189a1602bf8d1a0a02103bfe867059274412412e088af5572b92168c2ef495cfe6c9b7a753a009eb37c4853ae"], "sequence": 4294967295, "scriptSig": {"hex": "22002065d416c48a8072e0ac51c2d111eb194f009caef0332446c1bf2097316cf07fa9", "asm": "002065d416c48a8072e0ac51c2d111eb194f009caef0332446c1bf2097316cf07fa9"}, "vout": 1, "txid": "07ad8b40f02275efdf392f0c978c5d07345954f53f1fde7d5d0362659345716c"}], "txid": "e482431303e44a48b2125d216e3fc48eda9d85150beae3cb1deb9ddb77133833", "blocktime": 1537875543, "version": 1, "confirmations": 11464, "time": 1537875543, "locktime": 0, "vsize": 312, "size": 503}