{"hash": "e486351ec0d2fe05d2e4ed7fefdae3fb6e34e5e1de45a29469ec38968569ddd1", "blockhash": "0000000000000000000e13cef7c366c0283d82e591d1acd082e914b08063cdf1", "vout": [{"scriptPubKey": {"reqSigs": 1, "hex": "a9145209c1b23f5a1371d1a8d6c1516a4a9b8fb9581887", "addresses": ["39Ao2BAhVqTAfVtpnpBsXd9VzMkiP4a7nf"], "asm": "OP_HASH160 5209c1b23f5a1371d1a8d6c1516a4a9b8fb95818 OP_EQUAL", "type": "scripthash"}, "value": 0.32424044, "n": 0}], "hex": "0100000001c8f6ae63cab68a826d140c035cc87cd413a3a4ea4f932de01275e232a58aa1b3000000006b483045022100f7090ed93871a8a571a8e3e127231d71eed058cc0c83cbb104bd3a7fa60e3ed20220279e5e88175e852db71c0c238892b1109786f7cd5046d4a58d992a77c91844bc0121026bbefd9616dd256ba4893e433073e8c5a6460b1828e83af356d123da5dde6f23fdffffff016cc0ee010000000017a9145209c1b23f5a1371d1a8d6c1516a4a9b8fb958188710490800", "vin": [{"sequence": 4294967293, "scriptSig": {"hex": "483045022100f7090ed93871a8a571a8e3e127231d71eed058cc0c83cbb104bd3a7fa60e3ed20220279e5e88175e852db71c0c238892b1109786f7cd5046d4a58d992a77c91844bc0121026bbefd9616dd256ba4893e433073e8c5a6460b1828e83af356d123da5dde6f23", "asm": "3045022100f7090ed93871a8a571a8e3e127231d71eed058cc0c83cbb104bd3a7fa60e3ed20220279e5e88175e852db71c0c238892b1109786f7cd5046d4a58d992a77c91844bc[ALL] 026bbefd9616dd256ba4893e433073e8c5a6460b1828e83af356d123da5dde6f23"}, "vout": 0, "txid": "b3a18aa532e27512e02d934feaa4a313d47cc85c030c146d828ab6ca63aef6c8"}], "txid": "e486351ec0d2fe05d2e4ed7fefdae3fb6e34e5e1de45a29469ec38968569ddd1", "blocktime": 1537871767, "version": 1, "confirmations": 11491, "time": 1537871767, "locktime": 542992, "vsize": 190, "size": 190}