{"hash": "b57198c11842a862adce328a8301def8bb397159786aeb72ecec4b720032f8ee", "blockhash": "0000000000000000000baef3f32e3676a92c3b2e5da21b426e4f302fc371ce76", "vout": [{"scriptPubKey": {"reqSigs": 1, "hex": "76a9143afbb50c2b8cc376fef8e8cc38cee1fb5c41469188ac", "addresses": ["16Nsj3usXxChyqMdCNv5t1mBRLWF4UQmVR"], "asm": "OP_DUP OP_HASH160 3afbb50c2b8cc376fef8e8cc38cee1fb5c414691 OP_EQUALVERIFY OP_CHECKSIG", "type": "pubkeyhash"}, "value": 0.00221508, "n": 0}, {"scriptPubKey": {"reqSigs": 1, "hex": "a914f3872d99d67b25b0651d298a2c868df614d7a07d87", "addresses": ["3Ptg4Vvr3VxnKeVzeqdfyaR439p92CxtWd"], "asm": "OP_HASH160 f3872d99d67b25b0651d298a2c868df614d7a07d OP_EQUAL", "type": "scripthash"}, "value": 5.864e-05, "n": 1}], "hex": "01000000000101f8772f2c651b436968f395283b611cdc2480015b95f6ba3a157fc813ce4988000700000017160014785d1e359e3268b52e16f720cd9eb014d0a1f071ffffffff0244610300000000001976a9143afbb50c2b8cc376fef8e8cc38cee1fb5c41469188ace81600000000000017a914f3872d99d67b25b0651d298a2c868df614d7a07d8702483045022100e6290a8d8f90f2c1f85fbc5706436e210526d4bc3ef2b361d1c92c11656ee18d02207f1a538037dc23e265398d1311673bfa30fa50a767ca3921768b62e0ccc9e99f012103b4e801714881a0f84babdf697db9fae6a81043582ae7247b2e362e179fa043a000000000", "vin": [{"txinwitness": ["3045022100e6290a8d8f90f2c1f85fbc5706436e210526d4bc3ef2b361d1c92c11656ee18d02207f1a538037dc23e265398d1311673bfa30fa50a767ca3921768b62e0ccc9e99f01", "03b4e801714881a0f84babdf697db9fae6a81043582ae7247b2e362e179fa043a0"], "sequence": 4294967295, "scriptSig": {"hex": "160014785d1e359e3268b52e16f720cd9eb014d0a1f071", "asm": "0014785d1e359e3268b52e16f720cd9eb014d0a1f071"}, "vout": 7, "txid": "008849ce13c87f153abaf6955b018024dc1c613b2895f36869431b652c2f77f8"}], "txid": "e48af58969c88c7a2a171f5a7fa447c99850f5bcabe18c5995fe6239fcd54006", "blocktime": 1537876114, "version": 1, "confirmations": 11460, "time": 1537876114, "locktime": 0, "vsize": 168, "size": 250}