{"hash": "e48efaf8c5515e703baf2b3400e601612c043e184809efcc72b70e6d40afec3e", "blockhash": "0000000000000000001e0dab787dd257d1dbfcb92a98c2207d5e1078be1f4165", "vout": [{"scriptPubKey": {"reqSigs": 1, "hex": "76a914f962b999086bcd762b7b77695146baf8e6138e9b88ac", "addresses": ["1PjdXJJv4v9vnEPn23NdHUZcmLr6PVSWBh"], "asm": "OP_DUP OP_HASH160 f962b999086bcd762b7b77695146baf8e6138e9b OP_EQUALVERIFY OP_CHECKSIG", "type": "pubkeyhash"}, "value": 0.05487347, "n": 0}], "hex": "01000000055171a7100b1970d88238537ff37e5a4f63332e55f290d867a646a6360cb9af4b010000006a473044022055f7e7222253595f43241d490802d0ef5d73517dba0f9dae70834773e71a6229022013a067bd5d28bb789ebb91c2e2a6ac9745769fbd09e90f458885649a82223e8e012103d933dd39e0513c18a8b54c105e9cb82a2a5f2ad23f13ed2820791985cc002c85ffffffff19bc1bac59dd6bd47f18ea6acc1a75d5f3cd36dcbbf91afb6180099354dfe16f010000006a47304402201325518ce33ba65e6580a3c5197fdd89a3d9b0e1b76080f486aa4f42629da354022032c27348ca027193530b53d4e26c5da5bbc0bd3b3b2621d1933ab848c9368f380121020a471fb7fb2d10d4ed1eee64aa7d3cd696e1548a6a56b076340c536806302fe9ffffffff5290829682da6b018c6124d8f67114d556264b667526a1b39a74cc423c93d27c000000006b483045022100fb1c1860277ccfd893b6452ae4e4df05e977f6e1c0016398f0e610b2904bf4ab022006ab5f2799a229789d2e9a3fdb3037ae65554650da809ab6ec2d83c7bc4edf6f012103e15a5d3a4bc38e5b6d2f1a002ca95d0519fc3eae2eb247bf3a882b5e9b3b1758ffffffff16f6f2016e16e7ac08bf2124ac7534df2390415224ba32a2160e8134f913679c2c0000006a47304402207eb717ad15a34f15a715f6601745ea40b1259ca8e3d6ba0d52607cdbea93db0c022044249ec18053fc94f3c0715c768cd0458894821f5f4b0ffd0dc53fc8a6f50949012103f7c21d87ddf8db521d628acf5e05d86910cebbeaf3029752d5fec0b7f0b52a88ffffffffef50079c2e48c6170cef48c3a3d92c21b96b5ba693c62157b6c0eb38e7cb58b5100000006b483045022100bf46bf6c2ab074b19e8e8473fa7952b5c8dc3e0848effabd111c0444bfd545a60220740f25b6fe57f301df1547485b04cfaf1b60b1008baca5499d11620cb065f34c012102659fbba9166e64042c1f67b86e063839b873b5197364d5cc804997a9cc966e82ffffffff01f3ba5300000000001976a914f962b999086bcd762b7b77695146baf8e6138e9b88ac00000000", "vin": [{"sequence": 4294967295, "scriptSig": {"hex": "473044022055f7e7222253595f43241d490802d0ef5d73517dba0f9dae70834773e71a6229022013a067bd5d28bb789ebb91c2e2a6ac9745769fbd09e90f458885649a82223e8e012103d933dd39e0513c18a8b54c105e9cb82a2a5f2ad23f13ed2820791985cc002c85", "asm": "3044022055f7e7222253595f43241d490802d0ef5d73517dba0f9dae70834773e71a6229022013a067bd5d28bb789ebb91c2e2a6ac9745769fbd09e90f458885649a82223e8e[ALL] 03d933dd39e0513c18a8b54c105e9cb82a2a5f2ad23f13ed2820791985cc002c85"}, "vout": 1, "txid": "4bafb90c36a646a667d890f2552e33634f5a7ef37f533882d870190b10a77151"}, {"sequence": 4294967295, "scriptSig": {"hex": "47304402201325518ce33ba65e6580a3c5197fdd89a3d9b0e1b76080f486aa4f42629da354022032c27348ca027193530b53d4e26c5da5bbc0bd3b3b2621d1933ab848c9368f380121020a471fb7fb2d10d4ed1eee64aa7d3cd696e1548a6a56b076340c536806302fe9", "asm": "304402201325518ce33ba65e6580a3c5197fdd89a3d9b0e1b76080f486aa4f42629da354022032c27348ca027193530b53d4e26c5da5bbc0bd3b3b2621d1933ab848c9368f38[ALL] 020a471fb7fb2d10d4ed1eee64aa7d3cd696e1548a6a56b076340c536806302fe9"}, "vout": 1, "txid": "6fe1df5493098061fb1af9bbdc36cdf3d5751acc6aea187fd46bdd59ac1bbc19"}, {"sequence": 4294967295, "scriptSig": {"hex": "483045022100fb1c1860277ccfd893b6452ae4e4df05e977f6e1c0016398f0e610b2904bf4ab022006ab5f2799a229789d2e9a3fdb3037ae65554650da809ab6ec2d83c7bc4edf6f012103e15a5d3a4bc38e5b6d2f1a002ca95d0519fc3eae2eb247bf3a882b5e9b3b1758", "asm": "3045022100fb1c1860277ccfd893b6452ae4e4df05e977f6e1c0016398f0e610b2904bf4ab022006ab5f2799a229789d2e9a3fdb3037ae65554650da809ab6ec2d83c7bc4edf6f[ALL] 03e15a5d3a4bc38e5b6d2f1a002ca95d0519fc3eae2eb247bf3a882b5e9b3b1758"}, "vout": 0, "txid": "7cd2933c42cc749ab3a12675664b2656d51471f6d824618c016bda8296829052"}, {"sequence": 4294967295, "scriptSig": {"hex": "47304402207eb717ad15a34f15a715f6601745ea40b1259ca8e3d6ba0d52607cdbea93db0c022044249ec18053fc94f3c0715c768cd0458894821f5f4b0ffd0dc53fc8a6f50949012103f7c21d87ddf8db521d628acf5e05d86910cebbeaf3029752d5fec0b7f0b52a88", "asm": "304402207eb717ad15a34f15a715f6601745ea40b1259ca8e3d6ba0d52607cdbea93db0c022044249ec18053fc94f3c0715c768cd0458894821f5f4b0ffd0dc53fc8a6f50949[ALL] 03f7c21d87ddf8db521d628acf5e05d86910cebbeaf3029752d5fec0b7f0b52a88"}, "vout": 44, "txid": "9c6713f934810e16a232ba2452419023df3475ac2421bf08ace7166e01f2f616"}, {"sequence": 4294967295, "scriptSig": {"hex": "483045022100bf46bf6c2ab074b19e8e8473fa7952b5c8dc3e0848effabd111c0444bfd545a60220740f25b6fe57f301df1547485b04cfaf1b60b1008baca5499d11620cb065f34c012102659fbba9166e64042c1f67b86e063839b873b5197364d5cc804997a9cc966e82", "asm": "3045022100bf46bf6c2ab074b19e8e8473fa7952b5c8dc3e0848effabd111c0444bfd545a60220740f25b6fe57f301df1547485b04cfaf1b60b1008baca5499d11620cb065f34c[ALL] 02659fbba9166e64042c1f67b86e063839b873b5197364d5cc804997a9cc966e82"}, "vout": 16, "txid": "b558cbe738ebc0b65721c693a65b6bb9212cd9a3c348ef0c17c6482e9c0750ef"}], "txid": "e48efaf8c5515e703baf2b3400e601612c043e184809efcc72b70e6d40afec3e", "blocktime": 1537872475, "version": 1, "confirmations": 11486, "time": 1537872475, "locktime": 0, "vsize": 781, "size": 781}