{"hash": "e490827f10003ba4283812bf6d941a7e0fc5a315b9ac47eed9b7028d12bbaedc", "blockhash": "0000000000000000001f76057863aec43deb6fa401d9628bb513d65a8098bfab", "vout": [{"scriptPubKey": {"type": "nulldata", "hex": "6a4c50000077ea0001814f99a93273efe365e63dda7af8e8e963c7cfd5b95b23cc0f42c2fc38c5f95a17fe4d9a42fd821436f134d7ed095baa178f0612d4ae1d00a9101d100759d4ba30d2c37bb011d97e02cf", "asm": "OP_RETURN 000077ea0001814f99a93273efe365e63dda7af8e8e963c7cfd5b95b23cc0f42c2fc38c5f95a17fe4d9a42fd821436f134d7ed095baa178f0612d4ae1d00a9101d100759d4ba30d2c37bb011d97e02cf"}, "value": 0.0, "n": 0}, {"scriptPubKey": {"reqSigs": 1, "hex": "76a914567832985ebd16a94f25a40af94f663879ef680d88ac", "addresses": ["18tD6ybBomo9zfHtSDkdtAtkazS2B7kYke"], "asm": "OP_DUP OP_HASH160 567832985ebd16a94f25a40af94f663879ef680d OP_EQUALVERIFY OP_CHECKSIG", "type": "pubkeyhash"}, "value": 0.0063881, "n": 1}], "hex": "0100000001ee77aee6c8017f4d0f571e823d6a71a1d846b424334c5f8e5f64481478ee4031000000006b483045022100eecea335b1ec209aa40cb55d07c05cef284d1ec638ee3501e255be1dee2f5a8802205ed74edd6656b38639c498e809ecf3a4188b0bc366aa4315f6e0fbf254bfb438012103a58a3faaacd23d05b20bb2d5786eca19cc8c735fc71407227a843490d1328a9cffffffff020000000000000000536a4c50000077ea0001814f99a93273efe365e63dda7af8e8e963c7cfd5b95b23cc0f42c2fc38c5f95a17fe4d9a42fd821436f134d7ed095baa178f0612d4ae1d00a9101d100759d4ba30d2c37bb011d97e02cf5abf0900000000001976a914567832985ebd16a94f25a40af94f663879ef680d88ac00000000", "vin": [{"sequence": 4294967295, "scriptSig": {"hex": "483045022100eecea335b1ec209aa40cb55d07c05cef284d1ec638ee3501e255be1dee2f5a8802205ed74edd6656b38639c498e809ecf3a4188b0bc366aa4315f6e0fbf254bfb438012103a58a3faaacd23d05b20bb2d5786eca19cc8c735fc71407227a843490d1328a9c", "asm": "3045022100eecea335b1ec209aa40cb55d07c05cef284d1ec638ee3501e255be1dee2f5a8802205ed74edd6656b38639c498e809ecf3a4188b0bc366aa4315f6e0fbf254bfb438[ALL] 03a58a3faaacd23d05b20bb2d5786eca19cc8c735fc71407227a843490d1328a9c"}, "vout": 0, "txid": "3140ee781448645f8e5f4c3324b446d8a1716a3d821e570f4d7f01c8e6ae77ee"}], "txid": "e490827f10003ba4283812bf6d941a7e0fc5a315b9ac47eed9b7028d12bbaedc", "blocktime": 1537873891, "version": 1, "confirmations": 11478, "time": 1537873891, "locktime": 0, "vsize": 284, "size": 284}