{"hash": "e4919c07e625cc15ff9b89228534a03f196d9fe704037fbe56310a599f1c3038", "blockhash": "0000000000000000001cda96e906b7601b7a6fb1a3b62bca570a9e5d8f4b3de1", "vout": [{"scriptPubKey": {"reqSigs": 1, "hex": "a9145a5c1f2079407d5ead7ddaea8dcb21e0a0d2e10a87", "addresses": ["39vo6XctL9JoUhwHha13ESymgfBV6QsZv2"], "asm": "OP_HASH160 5a5c1f2079407d5ead7ddaea8dcb21e0a0d2e10a OP_EQUAL", "type": "scripthash"}, "value": 0.0052628, "n": 0}, {"scriptPubKey": {"reqSigs": 1, "hex": "76a91426316300a4968e6b37f56955c4c7d2524872d24288ac", "addresses": ["14Uwqju4W9KRnKRbHzcg9mGfwpara5hb27"], "asm": "OP_DUP OP_HASH160 26316300a4968e6b37f56955c4c7d2524872d242 OP_EQUALVERIFY OP_CHECKSIG", "type": "pubkeyhash"}, "value": 0.0027321, "n": 1}, {"scriptPubKey": {"reqSigs": 1, "hex": "76a914d5727f30c2e05e6301d381ff0a8b09421b7a07b988ac", "addresses": ["1LTc6Eu8s9fy2zpsJRUjRHBF12th43N9je"], "asm": "OP_DUP OP_HASH160 d5727f30c2e05e6301d381ff0a8b09421b7a07b9 OP_EQUALVERIFY OP_CHECKSIG", "type": "pubkeyhash"}, "value": 0.00028367, "n": 2}], "hex": "01000000017fb18c2a6485640069dd7ebed1128c843fd60b0f3f29eaa20f91c0e2e80628d0050000006a473044022027f50684478c3870c552b127002ef711d03bdd08ef9d4491c2293076139d477302200ee7b3b18f5b570979ff7b0fd6ffa2d4bc0285ca82377daaec0fbbe2066061de012102a54b6c425a974cba19782ff7ae9d2f63c388b8d4e48e0f78cadae72bc48cb5f1ffffffff03c80708000000000017a9145a5c1f2079407d5ead7ddaea8dcb21e0a0d2e10a873a2b0400000000001976a91426316300a4968e6b37f56955c4c7d2524872d24288accf6e0000000000001976a914d5727f30c2e05e6301d381ff0a8b09421b7a07b988ac00000000", "vin": [{"sequence": 4294967295, "scriptSig": {"hex": "473044022027f50684478c3870c552b127002ef711d03bdd08ef9d4491c2293076139d477302200ee7b3b18f5b570979ff7b0fd6ffa2d4bc0285ca82377daaec0fbbe2066061de012102a54b6c425a974cba19782ff7ae9d2f63c388b8d4e48e0f78cadae72bc48cb5f1", "asm": "3044022027f50684478c3870c552b127002ef711d03bdd08ef9d4491c2293076139d477302200ee7b3b18f5b570979ff7b0fd6ffa2d4bc0285ca82377daaec0fbbe2066061de[ALL] 02a54b6c425a974cba19782ff7ae9d2f63c388b8d4e48e0f78cadae72bc48cb5f1"}, "vout": 5, "txid": "d02806e8e2c0910fa2ea293f0f0bd63f848c12d1be7edd69006485642a8cb17f"}], "txid": "e4919c07e625cc15ff9b89228534a03f196d9fe704037fbe56310a599f1c3038", "blocktime": 1537873282, "version": 1, "confirmations": 11480, "time": 1537873282, "locktime": 0, "vsize": 257, "size": 257}