{"hash": "e492782ee784425bb5e6d1229216cb19b8b85ade466696f6e538316d9738de1c", "blockhash": "0000000000000000000e13cef7c366c0283d82e591d1acd082e914b08063cdf1", "vout": [{"scriptPubKey": {"type": "nulldata", "hex": "6a4c50000077a6000180404a80dbc9af1eaeb491f9af6c953dd567cf27e7e3ef3236678a6250977f07dfeca2ad31ae70aa8be3759bed0d5baa0f6006145fadded470d6bc9a9526289ac0f6612cd74e33776ee4", "asm": "OP_RETURN 000077a6000180404a80dbc9af1eaeb491f9af6c953dd567cf27e7e3ef3236678a6250977f07dfeca2ad31ae70aa8be3759bed0d5baa0f6006145fadded470d6bc9a9526289ac0f6612cd74e33776ee4"}, "value": 0.0, "n": 0}, {"scriptPubKey": {"reqSigs": 1, "hex": "76a9142ccc9c2849b8a5f0af6012f3e5dc89e3a2d071de88ac", "addresses": ["155sqzXca4f6zMDNDfKTmxnno8NfjvZ1Ax"], "asm": "OP_DUP OP_HASH160 2ccc9c2849b8a5f0af6012f3e5dc89e3a2d071de OP_EQUALVERIFY OP_CHECKSIG", "type": "pubkeyhash"}, "value": 0.001378, "n": 1}], "hex": "01000000016550f3b084b8cc0d95e372200f81aca758970f5241d4168375ccaee944156aba010000006a473044022058bb831b687e9caed04b3e3b1d17506d3c92424d4b19a55fc0163d7adb00b83a0220797742b5f7c74121ae56a8f16b77d43d0685a97b690ec4c4cd5dac9ff6c2cae4012103d1326d6da144b45f0ed83062eae5a839d6a3bc443cef7171b9ad9ed98e5f2cb4ffffffff020000000000000000536a4c50000077a6000180404a80dbc9af1eaeb491f9af6c953dd567cf27e7e3ef3236678a6250977f07dfeca2ad31ae70aa8be3759bed0d5baa0f6006145fadded470d6bc9a9526289ac0f6612cd74e33776ee4481a0200000000001976a9142ccc9c2849b8a5f0af6012f3e5dc89e3a2d071de88ac00000000", "vin": [{"sequence": 4294967295, "scriptSig": {"hex": "473044022058bb831b687e9caed04b3e3b1d17506d3c92424d4b19a55fc0163d7adb00b83a0220797742b5f7c74121ae56a8f16b77d43d0685a97b690ec4c4cd5dac9ff6c2cae4012103d1326d6da144b45f0ed83062eae5a839d6a3bc443cef7171b9ad9ed98e5f2cb4", "asm": "3044022058bb831b687e9caed04b3e3b1d17506d3c92424d4b19a55fc0163d7adb00b83a0220797742b5f7c74121ae56a8f16b77d43d0685a97b690ec4c4cd5dac9ff6c2cae4[ALL] 03d1326d6da144b45f0ed83062eae5a839d6a3bc443cef7171b9ad9ed98e5f2cb4"}, "vout": 1, "txid": "ba6a1544e9aecc758316d441520f9758a7ac810f2072e3950dccb884b0f35065"}], "txid": "e492782ee784425bb5e6d1229216cb19b8b85ade466696f6e538316d9738de1c", "blocktime": 1537871767, "version": 1, "confirmations": 11493, "time": 1537871767, "locktime": 0, "vsize": 283, "size": 283}