{"hash": "e495c271066ff039e82f5c503743718c9ec3be50fa7def95f7015f78c577267a", "blockhash": "0000000000000000000baef3f32e3676a92c3b2e5da21b426e4f302fc371ce76", "vout": [{"scriptPubKey": {"reqSigs": 1, "hex": "76a91413b2198d74fa420ba8420f1bde3e2b5b142e00c888ac", "addresses": ["12o9CEjkN1zhbUnMvR2FXafsWh3JwMyR98"], "asm": "OP_DUP OP_HASH160 13b2198d74fa420ba8420f1bde3e2b5b142e00c8 OP_EQUALVERIFY OP_CHECKSIG", "type": "pubkeyhash"}, "value": 0.002, "n": 0}, {"scriptPubKey": {"reqSigs": 1, "hex": "76a91447f319d188a48558daa509f6e23392b5c410202688ac", "addresses": ["17ZSCZgCmnjotqTpwYW3bdugAkNxxT2hYb"], "asm": "OP_DUP OP_HASH160 47f319d188a48558daa509f6e23392b5c4102026 OP_EQUALVERIFY OP_CHECKSIG", "type": "pubkeyhash"}, "value": 0.603701, "n": 1}], "hex": "0200000009cd59cbfc8681d7b3f6cfa8e1ee46c28013f7a05ea25ee4710e3536552a9d0226000000006b483045022100f5e7eddd16a60d4155c842dfd3257c2b8f9b7422ac7be26a2ef4028de8f4c115022057945d2bb005cf660e7fbdecde22f1b1a3ac0a2e2b2c61c163071fecb9a1b0410121029a5e00e04ae87a9ddcb8ccd57079fc750c3b356ad98963dcdbab422428bef9bdffffffffc8375c1026919af40aff6e710ce66bba3fe34b53a5b063e19abdc98278fe3fe1000000006b483045022100819c22485c55654c50893a8f209cd7238226da7fd94da65f0f05b1e32b3b086902200794a50985c5ff913cea89a472f6194a916fc6c7e3d17c4f7aac314f6f05fe08012102c50c9d58023650245617ccd6c75012751290f198d050375c432292ada70f2632ffffffff471eb4374556710f39c2da2059fb984cb28c204ba3e09ffcc16c609e18d604da000000006a47304402201f182dffde1881f3778ce93d9e6cfdc728c2ad131082088d35ba93d9d1910df0022031d2f471de77b455cfecccef5ef3c93559e5a10c81d40ea8d5a27fe19f31f719012103ba3dcebc714198674a1c3ad5dc6bb8658a11b26d213604e039ae088417bfe3b5ffffffff9007aef242f74cf8365cf568e53ba9d35c722e07f3d9a5e2e8b1f5484a44dcba010000006a47304402202776c297bbf18a2e5c5faa4c73c58b4f612806411242fa2c586185dec534b00a02205ff1ca400fb84de4d04a2a8430182382d82ae615fca0bba5d2695862673369f7012102493f84ab7821ae6f3d04b8c10e63646636612c6eed4098635bc68b81a529d558ffffffffead7dcdffacfa07a21e37e60b4fd1bc5465df4a8e917a678ce191aabb456aa5f010000006a473044022020178f2fee3b517f1dd1776423f3b10f8414c7ab9bc48ec173c6d0c4772b8db602200ed7497b92179f62d8a3c05f03e47d60f193a4875d4b75211c83aa5025482995012103430ec9dc822fb4d76b96cc9980f4b1059108c5a4b6e0348447fa52b32468691fffffffff25ea8e870ef17cd06ef32d1d0f9f7fa532bf7d18e73832709098fad9fe4b83c6150000006b48304502210091b0ec6fc194eff2d78a05a7c9e0cc2e8e35f11c128a108476f369ab5a120c97022068489adb4b9f77f575cc16153928a3d89412da3e5161cf7a8af3d334379c37970121036b646c1e09f77c9361a03b7cf82db0f60fa6ae3bc6390c05da82b9bf36838b20ffffffff8a988b1dd52567073a74e8aeef580090c5d05059b150828c700df82d10b3121c010000006a4730440220782ec62e3c5bee77d3130195a71bad78099d53a6832dc0f03fddbcfeffab118302205e77d4d30ecc14914c5e32618bafec37b378f2d8fda7a7c325446a2c95e6b6cb012103430ec9dc822fb4d76b96cc9980f4b1059108c5a4b6e0348447fa52b32468691fffffffff62e2e4d65fa4a47a54f9353249ef6617a5148f683f8458bd969940a02097eb02010000006b483045022100f3dd65712048544002f20b155b18e072799e5f1a1e975cd54c4de0694036a5f6022010ee74a5b981069a3d3e70dc28ecd7a93989d4b11b5c2a04924bccc2ba1a805c012103430ec9dc822fb4d76b96cc9980f4b1059108c5a4b6e0348447fa52b32468691fffffffff25ea8e870ef17cd06ef32d1d0f9f7fa532bf7d18e73832709098fad9fe4b83c6170000006a47304402202d4508a70a159b918a9cf4653f26a8af3f8dc829b8250274015aa7ca7a66e3d6022055456c1cbc2066e1e3d39d7b95e361a37b59dee0260228895efde90c3a309ffe012102802c2b2f240943cf5c3ff9d4d7e532e01800f2a34412c68ef0223efb1e64c4c3ffffffff02400d0300000000001976a91413b2198d74fa420ba8420f1bde3e2b5b142e00c888acb42c9903000000001976a91447f319d188a48558daa509f6e23392b5c410202688ac00000000", "vin": [{"sequence": 4294967295, "scriptSig": {"hex": "483045022100f5e7eddd16a60d4155c842dfd3257c2b8f9b7422ac7be26a2ef4028de8f4c115022057945d2bb005cf660e7fbdecde22f1b1a3ac0a2e2b2c61c163071fecb9a1b0410121029a5e00e04ae87a9ddcb8ccd57079fc750c3b356ad98963dcdbab422428bef9bd", "asm": "3045022100f5e7eddd16a60d4155c842dfd3257c2b8f9b7422ac7be26a2ef4028de8f4c115022057945d2bb005cf660e7fbdecde22f1b1a3ac0a2e2b2c61c163071fecb9a1b041[ALL] 029a5e00e04ae87a9ddcb8ccd57079fc750c3b356ad98963dcdbab422428bef9bd"}, "vout": 0, "txid": "26029d2a5536350e71e45ea25ea0f71380c246eee1a8cff6b3d78186fccb59cd"}, {"sequence": 4294967295, "scriptSig": {"hex": "483045022100819c22485c55654c50893a8f209cd7238226da7fd94da65f0f05b1e32b3b086902200794a50985c5ff913cea89a472f6194a916fc6c7e3d17c4f7aac314f6f05fe08012102c50c9d58023650245617ccd6c75012751290f198d050375c432292ada70f2632", "asm": "3045022100819c22485c55654c50893a8f209cd7238226da7fd94da65f0f05b1e32b3b086902200794a50985c5ff913cea89a472f6194a916fc6c7e3d17c4f7aac314f6f05fe08[ALL] 02c50c9d58023650245617ccd6c75012751290f198d050375c432292ada70f2632"}, "vout": 0, "txid": "e13ffe7882c9bd9ae163b0a5534be33fba6be60c716eff0af49a9126105c37c8"}, {"sequence": 4294967295, "scriptSig": {"hex": "47304402201f182dffde1881f3778ce93d9e6cfdc728c2ad131082088d35ba93d9d1910df0022031d2f471de77b455cfecccef5ef3c93559e5a10c81d40ea8d5a27fe19f31f719012103ba3dcebc714198674a1c3ad5dc6bb8658a11b26d213604e039ae088417bfe3b5", "asm": "304402201f182dffde1881f3778ce93d9e6cfdc728c2ad131082088d35ba93d9d1910df0022031d2f471de77b455cfecccef5ef3c93559e5a10c81d40ea8d5a27fe19f31f719[ALL] 03ba3dcebc714198674a1c3ad5dc6bb8658a11b26d213604e039ae088417bfe3b5"}, "vout": 0, "txid": "da04d6189e606cc1fc9fe0a34b208cb24c98fb5920dac2390f71564537b41e47"}, {"sequence": 4294967295, "scriptSig": {"hex": "47304402202776c297bbf18a2e5c5faa4c73c58b4f612806411242fa2c586185dec534b00a02205ff1ca400fb84de4d04a2a8430182382d82ae615fca0bba5d2695862673369f7012102493f84ab7821ae6f3d04b8c10e63646636612c6eed4098635bc68b81a529d558", "asm": "304402202776c297bbf18a2e5c5faa4c73c58b4f612806411242fa2c586185dec534b00a02205ff1ca400fb84de4d04a2a8430182382d82ae615fca0bba5d2695862673369f7[ALL] 02493f84ab7821ae6f3d04b8c10e63646636612c6eed4098635bc68b81a529d558"}, "vout": 1, "txid": "badc444a48f5b1e8e2a5d9f3072e725cd3a93be568f55c36f84cf742f2ae0790"}, {"sequence": 4294967295, "scriptSig": {"hex": "473044022020178f2fee3b517f1dd1776423f3b10f8414c7ab9bc48ec173c6d0c4772b8db602200ed7497b92179f62d8a3c05f03e47d60f193a4875d4b75211c83aa5025482995012103430ec9dc822fb4d76b96cc9980f4b1059108c5a4b6e0348447fa52b32468691f", "asm": "3044022020178f2fee3b517f1dd1776423f3b10f8414c7ab9bc48ec173c6d0c4772b8db602200ed7497b92179f62d8a3c05f03e47d60f193a4875d4b75211c83aa5025482995[ALL] 03430ec9dc822fb4d76b96cc9980f4b1059108c5a4b6e0348447fa52b32468691f"}, "vout": 1, "txid": "5faa56b4ab1a19ce78a617e9a8f45d46c51bfdb4607ee3217aa0cffadfdcd7ea"}, {"sequence": 4294967295, "scriptSig": {"hex": "48304502210091b0ec6fc194eff2d78a05a7c9e0cc2e8e35f11c128a108476f369ab5a120c97022068489adb4b9f77f575cc16153928a3d89412da3e5161cf7a8af3d334379c37970121036b646c1e09f77c9361a03b7cf82db0f60fa6ae3bc6390c05da82b9bf36838b20", "asm": "304502210091b0ec6fc194eff2d78a05a7c9e0cc2e8e35f11c128a108476f369ab5a120c97022068489adb4b9f77f575cc16153928a3d89412da3e5161cf7a8af3d334379c3797[ALL] 036b646c1e09f77c9361a03b7cf82db0f60fa6ae3bc6390c05da82b9bf36838b20"}, "vout": 21, "txid": "c6834bfed9fa9890703238e7187dbf32a57f9f0f1d2df36ed07cf10e878eea25"}, {"sequence": 4294967295, "scriptSig": {"hex": "4730440220782ec62e3c5bee77d3130195a71bad78099d53a6832dc0f03fddbcfeffab118302205e77d4d30ecc14914c5e32618bafec37b378f2d8fda7a7c325446a2c95e6b6cb012103430ec9dc822fb4d76b96cc9980f4b1059108c5a4b6e0348447fa52b32468691f", "asm": "30440220782ec62e3c5bee77d3130195a71bad78099d53a6832dc0f03fddbcfeffab118302205e77d4d30ecc14914c5e32618bafec37b378f2d8fda7a7c325446a2c95e6b6cb[ALL] 03430ec9dc822fb4d76b96cc9980f4b1059108c5a4b6e0348447fa52b32468691f"}, "vout": 1, "txid": "1c12b3102df80d708c8250b15950d0c5900058efaee8743a076725d51d8b988a"}, {"sequence": 4294967295, "scriptSig": {"hex": "483045022100f3dd65712048544002f20b155b18e072799e5f1a1e975cd54c4de0694036a5f6022010ee74a5b981069a3d3e70dc28ecd7a93989d4b11b5c2a04924bccc2ba1a805c012103430ec9dc822fb4d76b96cc9980f4b1059108c5a4b6e0348447fa52b32468691f", "asm": "3045022100f3dd65712048544002f20b155b18e072799e5f1a1e975cd54c4de0694036a5f6022010ee74a5b981069a3d3e70dc28ecd7a93989d4b11b5c2a04924bccc2ba1a805c[ALL] 03430ec9dc822fb4d76b96cc9980f4b1059108c5a4b6e0348447fa52b32468691f"}, "vout": 1, "txid": "02eb9720a0409996bd58843f688f14a51766ef493235f9547aa4a45fd6e4e262"}, {"sequence": 4294967295, "scriptSig": {"hex": "47304402202d4508a70a159b918a9cf4653f26a8af3f8dc829b8250274015aa7ca7a66e3d6022055456c1cbc2066e1e3d39d7b95e361a37b59dee0260228895efde90c3a309ffe012102802c2b2f240943cf5c3ff9d4d7e532e01800f2a34412c68ef0223efb1e64c4c3", "asm": "304402202d4508a70a159b918a9cf4653f26a8af3f8dc829b8250274015aa7ca7a66e3d6022055456c1cbc2066e1e3d39d7b95e361a37b59dee0260228895efde90c3a309ffe[ALL] 02802c2b2f240943cf5c3ff9d4d7e532e01800f2a34412c68ef0223efb1e64c4c3"}, "vout": 23, "txid": "c6834bfed9fa9890703238e7187dbf32a57f9f0f1d2df36ed07cf10e878eea25"}], "txid": "e495c271066ff039e82f5c503743718c9ec3be50fa7def95f7015f78c577267a", "blocktime": 1537876114, "version": 2, "confirmations": 11459, "time": 1537876114, "locktime": 0, "vsize": 1405, "size": 1405}