{"hash": "e4965a9d455b9a967328379ac454ae1d56615a6d83bc83f5b2bcf1e459643785", "blockhash": "0000000000000000001f0ddff1eddb255c1121bcd4da4f1bc9a0da00cae72433", "vout": [{"scriptPubKey": {"reqSigs": 1, "hex": "76a9141efbe537c7c858a58469b77c704ff51185d9e72588ac", "addresses": ["13pq2kfo87mU1ceVT5dpVjcy9AEBS2zB1G"], "asm": "OP_DUP OP_HASH160 1efbe537c7c858a58469b77c704ff51185d9e725 OP_EQUALVERIFY OP_CHECKSIG", "type": "pubkeyhash"}, "value": 5.46e-06, "n": 0}, {"scriptPubKey": {"reqSigs": 1, "hex": "a9143f4eecba122ad73039d481c8d37f99cb4f887cd887", "addresses": ["37Tm3Qz8Zw2VJrheUUhArDAoq58S6YrS3g"], "asm": "OP_HASH160 3f4eecba122ad73039d481c8d37f99cb4f887cd8 OP_EQUAL", "type": "scripthash"}, "value": 0.99966902, "n": 1}, {"scriptPubKey": {"type": "nulldata", "hex": "6a146f6d6e69000000000000001f00000045cd78f600", "asm": "OP_RETURN 6f6d6e69000000000000001f00000045cd78f600"}, "value": 0.0, "n": 2}], "hex": "010000000123dc2405f408ca4f80892cbc36a5a3b93efcef114e6716c205ed86c6e7465cc801000000fdfd0000483045022100d8bd0840e14e01f00a2294d3863f6621db96e74e13b77c7b93413c15e469b6fc02207e588a1b35e52dd5dd5d4b6f14cbd729ec5e470657021bd08dab8c76ea44ebe90147304402205b855f2cc3eb3f5cbdaae455820e47f86c8c728d08d19c147319adc3d7f2b66a02201513819bb3e0f07af6944ac1c1f2cf6a15cb5b428440a17f6edd048f6b348d54014c6952210246ccf4de0c54cc7f3354cdd993c2c50cf965fd82238b89659fbd73a1b4bf05a121024fc59f72272a897fe43803374969f396058152fe4765a8d15216f94624257b1b21022593bc69ecbf3bbcc3c58082267cb49dadaf4ca8dbf1b2297338a9d628c4297653aeffffffff0322020000000000001976a9141efbe537c7c858a58469b77c704ff51185d9e72588acb65ff5050000000017a9143f4eecba122ad73039d481c8d37f99cb4f887cd8870000000000000000166a146f6d6e69000000000000001f00000045cd78f60000000000", "vin": [{"sequence": 4294967295, "scriptSig": {"hex": "00483045022100d8bd0840e14e01f00a2294d3863f6621db96e74e13b77c7b93413c15e469b6fc02207e588a1b35e52dd5dd5d4b6f14cbd729ec5e470657021bd08dab8c76ea44ebe90147304402205b855f2cc3eb3f5cbdaae455820e47f86c8c728d08d19c147319adc3d7f2b66a02201513819bb3e0f07af6944ac1c1f2cf6a15cb5b428440a17f6edd048f6b348d54014c6952210246ccf4de0c54cc7f3354cdd993c2c50cf965fd82238b89659fbd73a1b4bf05a121024fc59f72272a897fe43803374969f396058152fe4765a8d15216f94624257b1b21022593bc69ecbf3bbcc3c58082267cb49dadaf4ca8dbf1b2297338a9d628c4297653ae", "asm": "0 3045022100d8bd0840e14e01f00a2294d3863f6621db96e74e13b77c7b93413c15e469b6fc02207e588a1b35e52dd5dd5d4b6f14cbd729ec5e470657021bd08dab8c76ea44ebe9[ALL] 304402205b855f2cc3eb3f5cbdaae455820e47f86c8c728d08d19c147319adc3d7f2b66a02201513819bb3e0f07af6944ac1c1f2cf6a15cb5b428440a17f6edd048f6b348d54[ALL] 52210246ccf4de0c54cc7f3354cdd993c2c50cf965fd82238b89659fbd73a1b4bf05a121024fc59f72272a897fe43803374969f396058152fe4765a8d15216f94624257b1b21022593bc69ecbf3bbcc3c58082267cb49dadaf4ca8dbf1b2297338a9d628c4297653ae"}, "vout": 1, "txid": "c85c46e7c686ed05c216674e11effc3eb9a3a536bc2c89804fca08f40524dc23"}], "txid": "e4965a9d455b9a967328379ac454ae1d56615a6d83bc83f5b2bcf1e459643785", "blocktime": 1537872018, "version": 1, "confirmations": 11489, "time": 1537872018, "locktime": 0, "vsize": 403, "size": 403}