{"hash": "aaf8faa7c3df8d1d5f625532185152c483a385efdf97d32e55546c9b24cced4f", "blockhash": "0000000000000000000e13cef7c366c0283d82e591d1acd082e914b08063cdf1", "vout": [{"scriptPubKey": {"reqSigs": 1, "hex": "a91483ecd38291e232b6f33b7ee462812fe64e6f632287", "addresses": ["3Dia9eVJPK77wzqWcHkKs7wjN1LU4kt2hC"], "asm": "OP_HASH160 83ecd38291e232b6f33b7ee462812fe64e6f6322 OP_EQUAL", "type": "scripthash"}, "value": 0.971, "n": 0}, {"scriptPubKey": {"reqSigs": 1, "hex": "a914447da29ab115de5ec9e9b7131c8d6ec345fe8ab087", "addresses": ["37wANsbGDwqVzJDartdRmQv4mdDs2TKUWd"], "asm": "OP_HASH160 447da29ab115de5ec9e9b7131c8d6ec345fe8ab0 OP_EQUAL", "type": "scripthash"}, "value": 1.74483689, "n": 1}], "hex": "01000000000105f44c5930b51fca4ff4737b46f18418d2c25c06d45d2f92a2c81aa83b55cc1c070100000017160014abcd242b026fab9609a7a27186978b12b1883d96ffffffffeb26e2b3b80d20549e9e02b08b2f564bdbbaf7be9e68f7e7f57b186b3b3b46380000000017160014abcd242b026fab9609a7a27186978b12b1883d96ffffffffc121c8a41ff8824e5f1afeff9b3ca192d2d800b0ccc17811f37e13e7de30a3790100000017160014abcd242b026fab9609a7a27186978b12b1883d96ffffffffea52899e2e7e319dface6ef33497aaeed3f4d1c7d2f9175f6a47fc57c5b655950100000017160014119472124a1e46b6b319ab06cb2def10fdc4356effffffffc9c22269965a7c6bda1caa6502f348d2710a74834ca5b6ff44248ae492b215d90100000017160014abcd242b026fab9609a7a27186978b12b1883d96ffffffff02e0a0c9050000000017a91483ecd38291e232b6f33b7ee462812fe64e6f632287e968660a0000000017a914447da29ab115de5ec9e9b7131c8d6ec345fe8ab0870247304402207b75ce419682e42bda08b577c9ec189e4975bcbcc892f555ad41a7a5af5c54ed02202facd4e53f00a7bbe3f68048c792372fbc3082f59ac03f3467e2d9bf471b34c8012102cd0a16f74855d91f5d42187c4ae5a71998dc4ae3594ec35ff3363159dcd52e6102473044022033949ff77c1250ec4d930e404ec45cc61a795f486f309d6e8feb78f3fbc59fbd022001803e44ae43febde1895a7bac4ebdd85b914c1c43820b0bd1136c750c56b992012102cd0a16f74855d91f5d42187c4ae5a71998dc4ae3594ec35ff3363159dcd52e610247304402202f6c16c4d2a2be67b9233c9a7d4bbd5b3ec79d973db7867bc5485d9ce2e7e26502207edcaff1cca94925fb88e932c348500019d7ecb8669ddd1e9e1fb7225669ea3e012102cd0a16f74855d91f5d42187c4ae5a71998dc4ae3594ec35ff3363159dcd52e6102483045022100cb239221ed4d53888a3cb9257fe8b0d1b476d7fa5fcef8825c109a1f0d8c2d19022074b8bcf9a229bf5dbef4ff9bb674fd8368fe60ccdedee85b2501f76b6de2c85f012102995bd2c2eeb093c3b17f0c5406b15b9ce740cb100ac1326ff451b6300b3a86bf02483045022100cbbefd8f98fae663310d667b0a055b736f48a1151484e5a9a1bdc1d88d94e272022070ff767bfc5e53a8b39d9fc16370dd8195d8987629e0ac719eb0b445f404a55c012102cd0a16f74855d91f5d42187c4ae5a71998dc4ae3594ec35ff3363159dcd52e6100000000", "vin": [{"txinwitness": ["304402207b75ce419682e42bda08b577c9ec189e4975bcbcc892f555ad41a7a5af5c54ed02202facd4e53f00a7bbe3f68048c792372fbc3082f59ac03f3467e2d9bf471b34c801", "02cd0a16f74855d91f5d42187c4ae5a71998dc4ae3594ec35ff3363159dcd52e61"], "sequence": 4294967295, "scriptSig": {"hex": "160014abcd242b026fab9609a7a27186978b12b1883d96", "asm": "0014abcd242b026fab9609a7a27186978b12b1883d96"}, "vout": 1, "txid": "071ccc553ba81ac8a2922f5dd4065cc2d21884f1467b73f44fca1fb530594cf4"}, {"txinwitness": ["3044022033949ff77c1250ec4d930e404ec45cc61a795f486f309d6e8feb78f3fbc59fbd022001803e44ae43febde1895a7bac4ebdd85b914c1c43820b0bd1136c750c56b99201", "02cd0a16f74855d91f5d42187c4ae5a71998dc4ae3594ec35ff3363159dcd52e61"], "sequence": 4294967295, "scriptSig": {"hex": "160014abcd242b026fab9609a7a27186978b12b1883d96", "asm": "0014abcd242b026fab9609a7a27186978b12b1883d96"}, "vout": 0, "txid": "38463b3b6b187bf5e7f7689ebef7badb4b562f8bb0029e9e54200db8b3e226eb"}, {"txinwitness": ["304402202f6c16c4d2a2be67b9233c9a7d4bbd5b3ec79d973db7867bc5485d9ce2e7e26502207edcaff1cca94925fb88e932c348500019d7ecb8669ddd1e9e1fb7225669ea3e01", "02cd0a16f74855d91f5d42187c4ae5a71998dc4ae3594ec35ff3363159dcd52e61"], "sequence": 4294967295, "scriptSig": {"hex": "160014abcd242b026fab9609a7a27186978b12b1883d96", "asm": "0014abcd242b026fab9609a7a27186978b12b1883d96"}, "vout": 1, "txid": "79a330dee7137ef31178c1ccb000d8d292a13c9bfffe1a5f4e82f81fa4c821c1"}, {"txinwitness": ["3045022100cb239221ed4d53888a3cb9257fe8b0d1b476d7fa5fcef8825c109a1f0d8c2d19022074b8bcf9a229bf5dbef4ff9bb674fd8368fe60ccdedee85b2501f76b6de2c85f01", "02995bd2c2eeb093c3b17f0c5406b15b9ce740cb100ac1326ff451b6300b3a86bf"], "sequence": 4294967295, "scriptSig": {"hex": "160014119472124a1e46b6b319ab06cb2def10fdc4356e", "asm": "0014119472124a1e46b6b319ab06cb2def10fdc4356e"}, "vout": 1, "txid": "9555b6c557fc476a5f17f9d2c7d1f4d3eeaa9734f36ecefa9d317e2e9e8952ea"}, {"txinwitness": ["3045022100cbbefd8f98fae663310d667b0a055b736f48a1151484e5a9a1bdc1d88d94e272022070ff767bfc5e53a8b39d9fc16370dd8195d8987629e0ac719eb0b445f404a55c01", "02cd0a16f74855d91f5d42187c4ae5a71998dc4ae3594ec35ff3363159dcd52e61"], "sequence": 4294967295, "scriptSig": {"hex": "160014abcd242b026fab9609a7a27186978b12b1883d96", "asm": "0014abcd242b026fab9609a7a27186978b12b1883d96"}, "vout": 1, "txid": "d915b292e48a2444ffb6a54c83740a71d248f30265aa1cda6b7c5a966922c2c9"}], "txid": "e4a09cbb3ca84b44453dabf387f78f68ad045657bda2e7323176aa66dc9b4b8b", "blocktime": 1537871767, "version": 1, "confirmations": 11493, "time": 1537871767, "locktime": 0, "vsize": 529, "size": 933}