{"hash": "dbc31e68f2ff29f6380a70a8402e691e168c731801cc63bf69d90603177a47b4", "blockhash": "0000000000000000001cda96e906b7601b7a6fb1a3b62bca570a9e5d8f4b3de1", "vout": [{"scriptPubKey": {"reqSigs": 1, "hex": "a9143b1306dd106226c6f7d734dc59c2998962d97b4987", "addresses": ["375NasHJE3Hmit1SiovY3iVYefzsfz4hHi"], "asm": "OP_HASH160 3b1306dd106226c6f7d734dc59c2998962d97b49 OP_EQUAL", "type": "scripthash"}, "value": 0.00070378, "n": 0}, {"scriptPubKey": {"reqSigs": 1, "hex": "a914e70778cd241157f157c4908487e6a87042141b3c87", "addresses": ["3Nkay1eM7NB8tx9G4s7z5FhwncNDUXw7tU"], "asm": "OP_HASH160 e70778cd241157f157c4908487e6a87042141b3c OP_EQUAL", "type": "scripthash"}, "value": 0.0106695, "n": 1}], "hex": "02000000000101040c0c36d7c6ce7617d4eb0b7036a78df5b8b3499345b2cd11ffed97721220640100000017160014b0386ca0db5f5bed2fd0c3ce78d262f2f364f7f0feffffff02ea1201000000000017a9143b1306dd106226c6f7d734dc59c2998962d97b4987c64710000000000017a914e70778cd241157f157c4908487e6a87042141b3c8702483045022100e60382bb1111d24d462abf3e76f5ce7a51475d72c70817d5334ede236eb2e5a8022037fcbe76ae7ad68ef7b1e88e1c74cb8ed2a73b6cd1b746e6c57bfa04c4fd6cad0121032a5a0ff4d78ffba079867fe57d1a425750094869181b5668089c6159deb2726913490800", "vin": [{"txinwitness": ["3045022100e60382bb1111d24d462abf3e76f5ce7a51475d72c70817d5334ede236eb2e5a8022037fcbe76ae7ad68ef7b1e88e1c74cb8ed2a73b6cd1b746e6c57bfa04c4fd6cad01", "032a5a0ff4d78ffba079867fe57d1a425750094869181b5668089c6159deb27269"], "sequence": 4294967294, "scriptSig": {"hex": "160014b0386ca0db5f5bed2fd0c3ce78d262f2f364f7f0", "asm": "0014b0386ca0db5f5bed2fd0c3ce78d262f2f364f7f0"}, "vout": 1, "txid": "6420127297edff11cdb2459349b3b8f58da736700bebd41776cec6d7360c0c04"}], "txid": "e4a83a781b8a1ebddc84df205990a1cdf018607fe02e026fb720ba82ac7345a6", "blocktime": 1537873282, "version": 2, "confirmations": 11485, "time": 1537873282, "locktime": 542995, "vsize": 166, "size": 248}