{"hash": "61da4b07a62ddf1aae48443d5a74a4c06dc6b6a505ffba1a425e84fb91c1231e", "blockhash": "0000000000000000001e0dab787dd257d1dbfcb92a98c2207d5e1078be1f4165", "vout": [{"scriptPubKey": {"reqSigs": 1, "hex": "76a9145ddeea2d51388257cb95a41fc889184912bc04fb88ac", "addresses": ["19ZLtEGuSu1d2htJyoUac1erUfhHEFMTUr"], "asm": "OP_DUP OP_HASH160 5ddeea2d51388257cb95a41fc889184912bc04fb OP_EQUALVERIFY OP_CHECKSIG", "type": "pubkeyhash"}, "value": 0.04111353, "n": 0}, {"scriptPubKey": {"reqSigs": 1, "hex": "0014e5fd2edad6ad7ff1db17cd1e89c259b55c36a21c", "addresses": ["bc1quh7jakkk44llrkche50gnsjek4wrdgsu4pczgs"], "asm": "0 e5fd2edad6ad7ff1db17cd1e89c259b55c36a21c", "type": "witness_v0_keyhash"}, "value": 0.01218455, "n": 1}], "hex": "01000000000101054b0ed5fffa1492ed93255c6bf3785f71e9da79c6acb3acb13d65ff261b3d094a00000017160014a02fb329affa7591f45e94a13b02f25a56337c9dffffffff02f9bb3e00000000001976a9145ddeea2d51388257cb95a41fc889184912bc04fb88ac9797120000000000160014e5fd2edad6ad7ff1db17cd1e89c259b55c36a21c02473044022016fada31673606ca0be027a0c48802caba26a1b7377cc23f9440efc7aeb56ad4022027d6137a70490fa07c510de5582bfc370db54e341c76e2cba8e3610322c3a6f701210220f5d9599f467340de54d48a140f38d3f644bd909f350fa0e70dc2cb529581db00000000", "vin": [{"txinwitness": ["3044022016fada31673606ca0be027a0c48802caba26a1b7377cc23f9440efc7aeb56ad4022027d6137a70490fa07c510de5582bfc370db54e341c76e2cba8e3610322c3a6f701", "0220f5d9599f467340de54d48a140f38d3f644bd909f350fa0e70dc2cb529581db"], "sequence": 4294967295, "scriptSig": {"hex": "160014a02fb329affa7591f45e94a13b02f25a56337c9d", "asm": "0014a02fb329affa7591f45e94a13b02f25a56337c9d"}, "vout": 74, "txid": "093d1b26ff653db1acb3acc679dae9715f78f36b5c2593ed9214faffd50e4b05"}], "txid": "e4b4b01675bbd5bef1f56b83de6afdcd279bb7a299f3d98aa944fd84f61ee826", "blocktime": 1537872475, "version": 1, "confirmations": 11487, "time": 1537872475, "locktime": 0, "vsize": 167, "size": 248}