{"hash": "e4b500b9d1042e35fb4c2d8f78aae43a6b57ac73dd67838d86c5692fefe3cd79", "blockhash": "0000000000000000001e0dab787dd257d1dbfcb92a98c2207d5e1078be1f4165", "vout": [{"scriptPubKey": {"reqSigs": 1, "hex": "76a914fb2d2e18971a4b84d211eb134d9405370abf536188ac", "addresses": ["1Pu6jKHRR5QAmJLNwqraC5sPt6gLLVyapb"], "asm": "OP_DUP OP_HASH160 fb2d2e18971a4b84d211eb134d9405370abf5361 OP_EQUALVERIFY OP_CHECKSIG", "type": "pubkeyhash"}, "value": 0.001257, "n": 0}, {"scriptPubKey": {"reqSigs": 1, "hex": "76a91438ef2ff9a44eec844c4a92893d9aacc950def13a88ac", "addresses": ["16C3NmvoU2vtXYz1aFMiQDh7i9JiN8tRQ8"], "asm": "OP_DUP OP_HASH160 38ef2ff9a44eec844c4a92893d9aacc950def13a OP_EQUALVERIFY OP_CHECKSIG", "type": "pubkeyhash"}, "value": 5.174e-05, "n": 1}], "hex": "010000000654337042bd59ec9f5b9a016e270db25b6421430b62e225c6cc5ede983bb4ede9010000006a473044022004c66e333f74cbb908ad9b78608d19fda9b2720726cb8d3b5abade6c47d8e23102205356486bbf885a3aa2787d183973320f4a1aeaa916f3719e64a9119e45901bec0121031b3440037bc603987e3571645a5170ef3311d48f8b3ddea4a24d673af45a579dffffffffd83a51d897d2c840ddf74b5f5837a62210e1ac588dcbf822ab08e2ad508f6303000000006a4730440220778bb90c2c3bc4b76b26584334dbce6812ed5e6427ea71f95deec694c471727c022069cbaca2326271663d30d5dd6fe850989d2f66ca30b4c15e620215583f8622e5012103c5797559f2cc82146c904b7b21619e171bb69543ae9da15ef8dff658d75a9855ffffffffd5837e2441d98cb8e4a0a7b4e293f25a5783ce3f6d5a2f8a2f90e48d09345ad1000000006b48304502210092105b7cd63e6beed81c420d3baa58e6e1b8665bdd8d181a7da8a8ed23ebc758022019eda149a9e58dbb0cf619110fcd2d577f0ccf5fce792b43d99c48870119aea90121039e3c18fbd8a88c49f4a6a5283bdb16a4efb0d0c153f8a8dceb3afb5043500792fffffffff0f646089ded1df372fc153d1a895d75177349ff438440c414073b72a8a31186000000006b483045022100e949c5ba7c31d0109209edbf48a3ac51aaa1652ff1c01da0e09386083241772f02202cb53ed077c4a7992d42ca89a57a20eeb230ad43efe45a4cb73eccb8a5f600da012102e410a7078e366d81c650fc48fd1becff24cf6a8e71567887ceee12df8eeaa32affffffffa7d5490197fc60a17dab982f7c6c856198dde98d0f8c3bb2bc85653167627764010000006b483045022100b1eaeb3c432f82f418d6de5777459cf77ec838c45f4b325bfaa85c33c03d9c0502200f0482c1f1c4e78141f48170faf0affde04d67f1fc3e13b44a411f4226e0e3dc01210307edabf1d0b51d0094162db57b123e6c6e5ea7944e489ad4356ed7934cf6e5e3ffffffff2a1dd4e25e672d8b1863dba53d8ac86e3bc2caaf5020723054ad29140fc58dcd010000006a47304402200242f079aa7e8b8b82689368c4ca6f584e742e2b83f19da6a5e96f483abaa13802205d317598675cb1a5ccd47c8dc71e96d182afe69c43190b21c5f2aae5b1ca6624012103f59e82e9a08935f4bc17cb756f779e6be00bdc391fee951b2cb5fea70e8566bbffffffff0204eb0100000000001976a914fb2d2e18971a4b84d211eb134d9405370abf536188ac36140000000000001976a91438ef2ff9a44eec844c4a92893d9aacc950def13a88ac00000000", "vin": [{"sequence": 4294967295, "scriptSig": {"hex": "473044022004c66e333f74cbb908ad9b78608d19fda9b2720726cb8d3b5abade6c47d8e23102205356486bbf885a3aa2787d183973320f4a1aeaa916f3719e64a9119e45901bec0121031b3440037bc603987e3571645a5170ef3311d48f8b3ddea4a24d673af45a579d", "asm": "3044022004c66e333f74cbb908ad9b78608d19fda9b2720726cb8d3b5abade6c47d8e23102205356486bbf885a3aa2787d183973320f4a1aeaa916f3719e64a9119e45901bec[ALL] 031b3440037bc603987e3571645a5170ef3311d48f8b3ddea4a24d673af45a579d"}, "vout": 1, "txid": "e9edb43b98de5eccc625e2620b4321645bb20d276e019a5b9fec59bd42703354"}, {"sequence": 4294967295, "scriptSig": {"hex": "4730440220778bb90c2c3bc4b76b26584334dbce6812ed5e6427ea71f95deec694c471727c022069cbaca2326271663d30d5dd6fe850989d2f66ca30b4c15e620215583f8622e5012103c5797559f2cc82146c904b7b21619e171bb69543ae9da15ef8dff658d75a9855", "asm": "30440220778bb90c2c3bc4b76b26584334dbce6812ed5e6427ea71f95deec694c471727c022069cbaca2326271663d30d5dd6fe850989d2f66ca30b4c15e620215583f8622e5[ALL] 03c5797559f2cc82146c904b7b21619e171bb69543ae9da15ef8dff658d75a9855"}, "vout": 0, "txid": "03638f50ade208ab22f8cb8d58ace11022a637585f4bf7dd40c8d297d8513ad8"}, {"sequence": 4294967295, "scriptSig": {"hex": "48304502210092105b7cd63e6beed81c420d3baa58e6e1b8665bdd8d181a7da8a8ed23ebc758022019eda149a9e58dbb0cf619110fcd2d577f0ccf5fce792b43d99c48870119aea90121039e3c18fbd8a88c49f4a6a5283bdb16a4efb0d0c153f8a8dceb3afb5043500792", "asm": "304502210092105b7cd63e6beed81c420d3baa58e6e1b8665bdd8d181a7da8a8ed23ebc758022019eda149a9e58dbb0cf619110fcd2d577f0ccf5fce792b43d99c48870119aea9[ALL] 039e3c18fbd8a88c49f4a6a5283bdb16a4efb0d0c153f8a8dceb3afb5043500792"}, "vout": 0, "txid": "d15a34098de4902f8a2f5a6d3fce83575af293e2b4a7a0e4b88cd941247e83d5"}, {"sequence": 4294967295, "scriptSig": {"hex": "483045022100e949c5ba7c31d0109209edbf48a3ac51aaa1652ff1c01da0e09386083241772f02202cb53ed077c4a7992d42ca89a57a20eeb230ad43efe45a4cb73eccb8a5f600da012102e410a7078e366d81c650fc48fd1becff24cf6a8e71567887ceee12df8eeaa32a", "asm": "3045022100e949c5ba7c31d0109209edbf48a3ac51aaa1652ff1c01da0e09386083241772f02202cb53ed077c4a7992d42ca89a57a20eeb230ad43efe45a4cb73eccb8a5f600da[ALL] 02e410a7078e366d81c650fc48fd1becff24cf6a8e71567887ceee12df8eeaa32a"}, "vout": 0, "txid": "8611a3a8723b0714c4408443ff497317755d891a3d15fc72f31ded9d0846f6f0"}, {"sequence": 4294967295, "scriptSig": {"hex": "483045022100b1eaeb3c432f82f418d6de5777459cf77ec838c45f4b325bfaa85c33c03d9c0502200f0482c1f1c4e78141f48170faf0affde04d67f1fc3e13b44a411f4226e0e3dc01210307edabf1d0b51d0094162db57b123e6c6e5ea7944e489ad4356ed7934cf6e5e3", "asm": "3045022100b1eaeb3c432f82f418d6de5777459cf77ec838c45f4b325bfaa85c33c03d9c0502200f0482c1f1c4e78141f48170faf0affde04d67f1fc3e13b44a411f4226e0e3dc[ALL] 0307edabf1d0b51d0094162db57b123e6c6e5ea7944e489ad4356ed7934cf6e5e3"}, "vout": 1, "txid": "64776267316585bcb23b8c0f8de9dd9861856c7c2f98ab7da160fc970149d5a7"}, {"sequence": 4294967295, "scriptSig": {"hex": "47304402200242f079aa7e8b8b82689368c4ca6f584e742e2b83f19da6a5e96f483abaa13802205d317598675cb1a5ccd47c8dc71e96d182afe69c43190b21c5f2aae5b1ca6624012103f59e82e9a08935f4bc17cb756f779e6be00bdc391fee951b2cb5fea70e8566bb", "asm": "304402200242f079aa7e8b8b82689368c4ca6f584e742e2b83f19da6a5e96f483abaa13802205d317598675cb1a5ccd47c8dc71e96d182afe69c43190b21c5f2aae5b1ca6624[ALL] 03f59e82e9a08935f4bc17cb756f779e6be00bdc391fee951b2cb5fea70e8566bb"}, "vout": 1, "txid": "cd8dc50f1429ad5430722050afcac23b6ec88a3da5db63188b2d675ee2d41d2a"}], "txid": "e4b500b9d1042e35fb4c2d8f78aae43a6b57ac73dd67838d86c5692fefe3cd79", "blocktime": 1537872475, "version": 1, "confirmations": 11487, "time": 1537872475, "locktime": 0, "vsize": 963, "size": 963}