{"hash": "e4b6663528bf9d27728bc0b4cca83e5b34ebbd5de8e013e10f002ccdf11bc766", "blockhash": "000000000000000000022b45ed06c6f4ccd3cf7fb5ba4856ebd2e58215665228", "vout": [{"scriptPubKey": {"reqSigs": 1, "hex": "76a914c8b4b1c239b0c93e3180d638a5ecbd788ff614bd88ac", "addresses": ["1KJEcEQ6zBTDJQzp1DZs35xFBKrdjofYHP"], "asm": "OP_DUP OP_HASH160 c8b4b1c239b0c93e3180d638a5ecbd788ff614bd OP_EQUALVERIFY OP_CHECKSIG", "type": "pubkeyhash"}, "value": 0.052284, "n": 0}, {"scriptPubKey": {"reqSigs": 1, "hex": "a914cf66d6097af8dff78f130306a6d3fd0eed78fc3887", "addresses": ["3LbezRq5feDDtbnLuJNRLgsWJp2C4ysSaX"], "asm": "OP_HASH160 cf66d6097af8dff78f130306a6d3fd0eed78fc38 OP_EQUAL", "type": "scripthash"}, "value": 0.27375616, "n": 1}], "hex": "0100000003017c020129c474cd42ee8f8b6d83e129ccf4e2e18342a0b45b0e03d23f45495e01000000d90047304402206a5779d51aabf0547ffd2b6a98ec109bdfc2ca0bbc471f5d4ab40a6d01442e9302203af27517b1f3a3ea45456dd0a74be19c029baff68461fa476268331688be9d390147304402204f7cbc00e1a925ba608031f88edd7e0b0d38edd1c0d0815a1791f6f9a251418b02203dc311daf7493b5b60f83acaa034a65d6dc6b6ab6b85d352e8b87cbea1cf70ab01475221038a1751335d88288474033880ba81a14c5f7f536f7a4de0bbe1836301a9f5fde021029cfe8b16f24284e020d06aaa2566da776776e275665691857265930c813bfb8252aeffffffff42b29271c17e7b95a689cd4f76eecfc929ba5423da39b59152ea31ae05c4ab0001000000db00483045022100ef26f14c5029a49a2a658f427ad349250e8e0b53804f4164c0ec56a52dadc1550220696a6910d0446b662b056a2b823e8c0b31537e4b1a142a948c33ca665ab1e30f01483045022100bb4f0c23cc0f04a140445c43c23977e17c8619658a513cb53aa0e5d88189340a02201d94f48965c3051a6b0531d5a9e1bd710a04dbbb71537f018a7849348b4ee4a801475221038a1751335d88288474033880ba81a14c5f7f536f7a4de0bbe1836301a9f5fde021029cfe8b16f24284e020d06aaa2566da776776e275665691857265930c813bfb8252aeffffffff60312dc06017d49c1468189ab81d6a20103cae6a4694a553a14226d1375d955800000000d90047304402203bd3149ed65c8346a8da5aacdf104bc5b2a8a2774b7190b89cd8f3d8e8bf215c02201b498c244eddd536e6b21fadec3e4aca84258211764ece7af01b1a8de8b51f7901473044022005de10a27ab5fdf6866558a870bd094e48af09a0ad454087b5be010ad71c8a2902200fe181390f7862fcd711ed2b2e28888bfec470bf23a673605f777fe050d1c53701475221038a1751335d88288474033880ba81a14c5f7f536f7a4de0bbe1836301a9f5fde021029cfe8b16f24284e020d06aaa2566da776776e275665691857265930c813bfb8252aeffffffff0270c74f00000000001976a914c8b4b1c239b0c93e3180d638a5ecbd788ff614bd88ac00b8a1010000000017a914cf66d6097af8dff78f130306a6d3fd0eed78fc388700000000", "vin": [{"sequence": 4294967295, "scriptSig": {"hex": "0047304402206a5779d51aabf0547ffd2b6a98ec109bdfc2ca0bbc471f5d4ab40a6d01442e9302203af27517b1f3a3ea45456dd0a74be19c029baff68461fa476268331688be9d390147304402204f7cbc00e1a925ba608031f88edd7e0b0d38edd1c0d0815a1791f6f9a251418b02203dc311daf7493b5b60f83acaa034a65d6dc6b6ab6b85d352e8b87cbea1cf70ab01475221038a1751335d88288474033880ba81a14c5f7f536f7a4de0bbe1836301a9f5fde021029cfe8b16f24284e020d06aaa2566da776776e275665691857265930c813bfb8252ae", "asm": "0 304402206a5779d51aabf0547ffd2b6a98ec109bdfc2ca0bbc471f5d4ab40a6d01442e9302203af27517b1f3a3ea45456dd0a74be19c029baff68461fa476268331688be9d39[ALL] 304402204f7cbc00e1a925ba608031f88edd7e0b0d38edd1c0d0815a1791f6f9a251418b02203dc311daf7493b5b60f83acaa034a65d6dc6b6ab6b85d352e8b87cbea1cf70ab[ALL] 5221038a1751335d88288474033880ba81a14c5f7f536f7a4de0bbe1836301a9f5fde021029cfe8b16f24284e020d06aaa2566da776776e275665691857265930c813bfb8252ae"}, "vout": 1, "txid": "5e49453fd2030e5bb4a04283e1e2f4cc29e1836d8b8fee42cd74c42901027c01"}, {"sequence": 4294967295, "scriptSig": {"hex": "00483045022100ef26f14c5029a49a2a658f427ad349250e8e0b53804f4164c0ec56a52dadc1550220696a6910d0446b662b056a2b823e8c0b31537e4b1a142a948c33ca665ab1e30f01483045022100bb4f0c23cc0f04a140445c43c23977e17c8619658a513cb53aa0e5d88189340a02201d94f48965c3051a6b0531d5a9e1bd710a04dbbb71537f018a7849348b4ee4a801475221038a1751335d88288474033880ba81a14c5f7f536f7a4de0bbe1836301a9f5fde021029cfe8b16f24284e020d06aaa2566da776776e275665691857265930c813bfb8252ae", "asm": "0 3045022100ef26f14c5029a49a2a658f427ad349250e8e0b53804f4164c0ec56a52dadc1550220696a6910d0446b662b056a2b823e8c0b31537e4b1a142a948c33ca665ab1e30f[ALL] 3045022100bb4f0c23cc0f04a140445c43c23977e17c8619658a513cb53aa0e5d88189340a02201d94f48965c3051a6b0531d5a9e1bd710a04dbbb71537f018a7849348b4ee4a8[ALL] 5221038a1751335d88288474033880ba81a14c5f7f536f7a4de0bbe1836301a9f5fde021029cfe8b16f24284e020d06aaa2566da776776e275665691857265930c813bfb8252ae"}, "vout": 1, "txid": "00abc405ae31ea5291b539da2354ba29c9cfee764fcd89a6957b7ec17192b242"}, {"sequence": 4294967295, "scriptSig": {"hex": "0047304402203bd3149ed65c8346a8da5aacdf104bc5b2a8a2774b7190b89cd8f3d8e8bf215c02201b498c244eddd536e6b21fadec3e4aca84258211764ece7af01b1a8de8b51f7901473044022005de10a27ab5fdf6866558a870bd094e48af09a0ad454087b5be010ad71c8a2902200fe181390f7862fcd711ed2b2e28888bfec470bf23a673605f777fe050d1c53701475221038a1751335d88288474033880ba81a14c5f7f536f7a4de0bbe1836301a9f5fde021029cfe8b16f24284e020d06aaa2566da776776e275665691857265930c813bfb8252ae", "asm": "0 304402203bd3149ed65c8346a8da5aacdf104bc5b2a8a2774b7190b89cd8f3d8e8bf215c02201b498c244eddd536e6b21fadec3e4aca84258211764ece7af01b1a8de8b51f79[ALL] 3044022005de10a27ab5fdf6866558a870bd094e48af09a0ad454087b5be010ad71c8a2902200fe181390f7862fcd711ed2b2e28888bfec470bf23a673605f777fe050d1c537[ALL] 5221038a1751335d88288474033880ba81a14c5f7f536f7a4de0bbe1836301a9f5fde021029cfe8b16f24284e020d06aaa2566da776776e275665691857265930c813bfb8252ae"}, "vout": 0, "txid": "58955d37d12642a153a594466aae3c10206a1db89a1868149cd41760c02d3160"}], "txid": "e4b6663528bf9d27728bc0b4cca83e5b34ebbd5de8e013e10f002ccdf11bc766", "blocktime": 1537869901, "version": 1, "confirmations": 11524, "time": 1537869901, "locktime": 0, "vsize": 852, "size": 852}