{"hash": "1db892887688c370720025f725ddd1d051ef263ca0bfb2a85ab096eae51c2f3f", "blockhash": "00000000000000000018f53835495a110e01622372bf6ae95dc86f2b0ab887b0", "vout": [{"scriptPubKey": {"reqSigs": 1, "hex": "76a914658bc2e4001cfacc64a3e041943e921b3086737588ac", "addresses": ["1AFvgAG4FN8fhtp3ZtSF8hsmKvPTDiB4RV"], "asm": "OP_DUP OP_HASH160 658bc2e4001cfacc64a3e041943e921b30867375 OP_EQUALVERIFY OP_CHECKSIG", "type": "pubkeyhash"}, "value": 3.297e-05, "n": 0}, {"scriptPubKey": {"reqSigs": 1, "hex": "a914e8db75c900cf08f06518e96d167331f2a4abfb3387", "addresses": ["3NvFbQMAkkqEFj4i1sYPPLkSWzxTFUchjA"], "asm": "OP_HASH160 e8db75c900cf08f06518e96d167331f2a4abfb33 OP_EQUAL", "type": "scripthash"}, "value": 9.871e-05, "n": 1}], "hex": "0100000000010137c63244d7bd51dfe2cc25d139e9395c2d1d9174f3e44fc653e418bc168b57800100000023220020941cfaff8837763dc1f69ff82b6d6553fdea17a41cfc29a04403293eedd8ccc7ffffffff02e10c0000000000001976a914658bc2e4001cfacc64a3e041943e921b3086737588ac8f2600000000000017a914e8db75c900cf08f06518e96d167331f2a4abfb338704004730440220756e6c2224adf02a36ac8e4df900236da0da4360c4bc50fa277a62e37c3c98d8022009a489d2664350ffc05c8c81f91139b6b504f1d1180deba8306c08e9ed7366c201483045022100cc3cc8643f9c53f84a4ccd0d0b7b3727e46ebad0fb7713601f0f73a6dd1b13aa02207c84d33f472d22808f5a06507baa9087b3e6120bd2f3e7b794fecf6810eb54630147522102531db3a5883f29bab4241dd0cd726936667bcda445d89bdd22244e828b6993342103148c80a5bdfddb05ff5bcffc397c8ca748d8b435ec6a175bc9d7bfc7fc6f853752ae00000000", "vin": [{"txinwitness": ["", "30440220756e6c2224adf02a36ac8e4df900236da0da4360c4bc50fa277a62e37c3c98d8022009a489d2664350ffc05c8c81f91139b6b504f1d1180deba8306c08e9ed7366c201", "3045022100cc3cc8643f9c53f84a4ccd0d0b7b3727e46ebad0fb7713601f0f73a6dd1b13aa02207c84d33f472d22808f5a06507baa9087b3e6120bd2f3e7b794fecf6810eb546301", "522102531db3a5883f29bab4241dd0cd726936667bcda445d89bdd22244e828b6993342103148c80a5bdfddb05ff5bcffc397c8ca748d8b435ec6a175bc9d7bfc7fc6f853752ae"], "sequence": 4294967295, "scriptSig": {"hex": "220020941cfaff8837763dc1f69ff82b6d6553fdea17a41cfc29a04403293eedd8ccc7", "asm": "0020941cfaff8837763dc1f69ff82b6d6553fdea17a41cfc29a04403293eedd8ccc7"}, "vout": 1, "txid": "80578b16bc18e453c64fe4f374911d2d5c39e939d125cce2df51bdd74432c637"}], "txid": "e4b9a34d8aa00b548155389da2d0d400c9c6812e5fc050a3f9647ffa8c659ad8", "blocktime": 1537870928, "version": 1, "confirmations": 11514, "time": 1537870928, "locktime": 0, "vsize": 208, "size": 373}