{"hash": "e4bd78783f13561d80f59a2f97ab49f2ab6be5b18554d6652c54296596931911", "blockhash": "0000000000000000001cda96e906b7601b7a6fb1a3b62bca570a9e5d8f4b3de1", "vout": [{"scriptPubKey": {"reqSigs": 1, "hex": "a9148990fe8e23d799e127d081bf8944dc896efb7dc387", "addresses": ["3EEQCD5PiWtdqNpUTC4tdJ5kzpVFPJ6wdg"], "asm": "OP_HASH160 8990fe8e23d799e127d081bf8944dc896efb7dc3 OP_EQUAL", "type": "scripthash"}, "value": 0.0035246, "n": 0}, {"scriptPubKey": {"reqSigs": 1, "hex": "76a9141a611ae86505b978dec3667ec592fc0553c973c688ac", "addresses": ["13QUtyC6frcbGXswJjMzhfVhdfprvu5hNm"], "asm": "OP_DUP OP_HASH160 1a611ae86505b978dec3667ec592fc0553c973c6 OP_EQUALVERIFY OP_CHECKSIG", "type": "pubkeyhash"}, "value": 0.02769067, "n": 1}], "hex": "0100000001a2e8b07aa1db8919f48511cf8144e9cdb72bfb8623b1819d484eb816d0d45642010000006b483045022100a8adb57a5c198ea171fa84cef478bfe447f749e786d916fd954bfb1db062bad602202fc62edf9ce38bed007e9b7ce7917b77a34bf4485ceee4c799037d3a0983eba20121028e83fc9113838c2d0179bc3c38a1ae92553b7be79ee8adf12e8e23780617a6e9ffffffff02cc6005000000000017a9148990fe8e23d799e127d081bf8944dc896efb7dc387ab402a00000000001976a9141a611ae86505b978dec3667ec592fc0553c973c688ac00000000", "vin": [{"sequence": 4294967295, "scriptSig": {"hex": "483045022100a8adb57a5c198ea171fa84cef478bfe447f749e786d916fd954bfb1db062bad602202fc62edf9ce38bed007e9b7ce7917b77a34bf4485ceee4c799037d3a0983eba20121028e83fc9113838c2d0179bc3c38a1ae92553b7be79ee8adf12e8e23780617a6e9", "asm": "3045022100a8adb57a5c198ea171fa84cef478bfe447f749e786d916fd954bfb1db062bad602202fc62edf9ce38bed007e9b7ce7917b77a34bf4485ceee4c799037d3a0983eba2[ALL] 028e83fc9113838c2d0179bc3c38a1ae92553b7be79ee8adf12e8e23780617a6e9"}, "vout": 1, "txid": "4256d4d016b84e489d81b12386fb2bb7cde94481cf1185f41989dba17ab0e8a2"}], "txid": "e4bd78783f13561d80f59a2f97ab49f2ab6be5b18554d6652c54296596931911", "blocktime": 1537873282, "version": 1, "confirmations": 11485, "time": 1537873282, "locktime": 0, "vsize": 224, "size": 224}