{"hash": "cb36045cbb58907757104824aaee1e7b4157d43801971a538fd3ca99188fde7e", "blockhash": "0000000000000000001f76057863aec43deb6fa401d9628bb513d65a8098bfab", "vout": [{"scriptPubKey": {"reqSigs": 1, "hex": "a9149dbe6b6cbc17ac018b17625463a4e789ea11f64587", "addresses": ["3G568FPJLhpqMdXf1Z9syLUCoycs184cyA"], "asm": "OP_HASH160 9dbe6b6cbc17ac018b17625463a4e789ea11f645 OP_EQUAL", "type": "scripthash"}, "value": 0.00193828, "n": 0}, {"scriptPubKey": {"reqSigs": 1, "hex": "a9149649ad6d2730bb28020a268d9d80df10a9f74ad487", "addresses": ["3FPfYWwfMfKMGY7fuPHvz2b73RhTNGzsm3"], "asm": "OP_HASH160 9649ad6d2730bb28020a268d9d80df10a9f74ad4 OP_EQUAL", "type": "scripthash"}, "value": 13.84468708, "n": 1}], "hex": "010000000001010c7cb61f272f4f193a4068f6f4102f139053153937dcd9f13b1082321952d69001000000232200207768efcc1e5eb3d28410fac3f45831004c860cc24cddd940a616b34324823fceffffffff0224f502000000000017a9149dbe6b6cbc17ac018b17625463a4e789ea11f64587e45085520000000017a9149649ad6d2730bb28020a268d9d80df10a9f74ad487040047304402207364f4b6bf927f6b8f27d38eb8a4a4bdae4d73dc76b4088340912b03682bc0ec02204ef900dc5680793ddb16d17903b0cf412846ec231e1c70a4cc3bc4b5ca4e3ee50147304402200ced222fa81292fc5943ebdbd0bbcb1938472c0ccc8d5ea23cc8737d4cfb46fa022044d1d4a72c4359324595099a6f30d0f29cbcd03733d178f946126c2c96324a2f0147522102529d5d1f6733ab45d9d50e07db42c7f6b967ae321c38b726c2247f149959b8262103d0c936a5988dd8421c63240496b723b0ec42400c38b9350e32c2eb4f47d8796952ae00000000", "vin": [{"txinwitness": ["", "304402207364f4b6bf927f6b8f27d38eb8a4a4bdae4d73dc76b4088340912b03682bc0ec02204ef900dc5680793ddb16d17903b0cf412846ec231e1c70a4cc3bc4b5ca4e3ee501", "304402200ced222fa81292fc5943ebdbd0bbcb1938472c0ccc8d5ea23cc8737d4cfb46fa022044d1d4a72c4359324595099a6f30d0f29cbcd03733d178f946126c2c96324a2f01", "522102529d5d1f6733ab45d9d50e07db42c7f6b967ae321c38b726c2247f149959b8262103d0c936a5988dd8421c63240496b723b0ec42400c38b9350e32c2eb4f47d8796952ae"], "sequence": 4294967295, "scriptSig": {"hex": "2200207768efcc1e5eb3d28410fac3f45831004c860cc24cddd940a616b34324823fce", "asm": "00207768efcc1e5eb3d28410fac3f45831004c860cc24cddd940a616b34324823fce"}, "vout": 1, "txid": "90d652193282103bf1d9dc3739155390132f10f4f668403a194f2f271fb67c0c"}], "txid": "e4bec1548eb1d921a9bebd814701743bb91b8186a3ca43a8b97934a8dcb093c6", "blocktime": 1537873891, "version": 1, "confirmations": 11478, "time": 1537873891, "locktime": 0, "vsize": 205, "size": 370}