{"hash": "e4c1e38a1f0d9f02f6ed4bb12e387241d688710bce06e264eba471e8ece04388", "blockhash": "00000000000000000004ffacab907a6b429b9a5745fa0b75af4234bf69dd7176", "vout": [{"scriptPubKey": {"reqSigs": 1, "hex": "76a91479db27d52419bc2673435ff1e2d88fd3e65775e488ac", "addresses": ["1C7KJQjhGGWq6WBLNn5rTQS6GfjveUA7Bd"], "asm": "OP_DUP OP_HASH160 79db27d52419bc2673435ff1e2d88fd3e65775e4 OP_EQUALVERIFY OP_CHECKSIG", "type": "pubkeyhash"}, "value": 0.00163, "n": 0}, {"scriptPubKey": {"reqSigs": 1, "hex": "76a914e97d206e3ab3a7d5f36a5484d2dcf80d79a6957188ac", "addresses": ["1NHaLekBFw3X3WaBe5hSbt3RBN9uQenHJB"], "asm": "OP_DUP OP_HASH160 e97d206e3ab3a7d5f36a5484d2dcf80d79a69571 OP_EQUALVERIFY OP_CHECKSIG", "type": "pubkeyhash"}, "value": 0.00536, "n": 1}, {"scriptPubKey": {"reqSigs": 1, "hex": "76a9140b5acd846dcb7c91c5d86ad7b8f7cdf3204bbfc788ac", "addresses": ["1233DCZrGcsPkz8xUz5RZ2RN67qCK7Spid"], "asm": "OP_DUP OP_HASH160 0b5acd846dcb7c91c5d86ad7b8f7cdf3204bbfc7 OP_EQUALVERIFY OP_CHECKSIG", "type": "pubkeyhash"}, "value": 0.02271, "n": 2}, {"scriptPubKey": {"reqSigs": 1, "hex": "76a914845d04acb015c38dad06917fdcb010b5d159557c88ac", "addresses": ["1D4sdLvxNqUhvx3m8dqWuvyQrbM9gFoADS"], "asm": "OP_DUP OP_HASH160 845d04acb015c38dad06917fdcb010b5d159557c OP_EQUALVERIFY OP_CHECKSIG", "type": "pubkeyhash"}, "value": 0.00609, "n": 3}, {"scriptPubKey": {"reqSigs": 1, "hex": "76a914e97d206e3ab3a7d5f36a5484d2dcf80d79a6957188ac", "addresses": ["1NHaLekBFw3X3WaBe5hSbt3RBN9uQenHJB"], "asm": "OP_DUP OP_HASH160 e97d206e3ab3a7d5f36a5484d2dcf80d79a69571 OP_EQUALVERIFY OP_CHECKSIG", "type": "pubkeyhash"}, "value": 0.0168, "n": 4}, {"scriptPubKey": {"reqSigs": 1, "hex": "76a914956a77f7455ec5945c0b12389dbb5afae47e1e3188ac", "addresses": ["1Ed3E9p3h2GB2XRutJt6H9YfSAVPWHq9WJ"], "asm": "OP_DUP OP_HASH160 956a77f7455ec5945c0b12389dbb5afae47e1e31 OP_EQUALVERIFY OP_CHECKSIG", "type": "pubkeyhash"}, "value": 0.01014, "n": 5}, {"scriptPubKey": {"reqSigs": 1, "hex": "76a914e97d206e3ab3a7d5f36a5484d2dcf80d79a6957188ac", "addresses": ["1NHaLekBFw3X3WaBe5hSbt3RBN9uQenHJB"], "asm": "OP_DUP OP_HASH160 e97d206e3ab3a7d5f36a5484d2dcf80d79a69571 OP_EQUALVERIFY OP_CHECKSIG", "type": "pubkeyhash"}, "value": 0.03687, "n": 6}, {"scriptPubKey": {"reqSigs": 1, "hex": "76a914947d841c9842ea2dca15c50958a1b2a54215509788ac", "addresses": ["1EY9NQBhZoG14iGYFkdiuZ5FE95LXSmsFF"], "asm": "OP_DUP OP_HASH160 947d841c9842ea2dca15c50958a1b2a542155097 OP_EQUALVERIFY OP_CHECKSIG", "type": "pubkeyhash"}, "value": 0.00152, "n": 7}, {"scriptPubKey": {"reqSigs": 1, "hex": "76a914708b24e578013c1440ef556368efee65ee5e878488ac", "addresses": ["1BG5NPXaWyxwTEGAJoMGSy8hhXSdzfTYzt"], "asm": "OP_DUP OP_HASH160 708b24e578013c1440ef556368efee65ee5e8784 OP_EQUALVERIFY OP_CHECKSIG", "type": "pubkeyhash"}, "value": 0.00383, "n": 8}, {"scriptPubKey": {"reqSigs": 1, "hex": "76a9140ed0f71ca9406828b910b77737e2eee1a61680ce88ac", "addresses": ["12MLnrBKDo6kJRvbSDADtcVTDhUh4DTNrc"], "asm": "OP_DUP OP_HASH160 0ed0f71ca9406828b910b77737e2eee1a61680ce OP_EQUALVERIFY OP_CHECKSIG", "type": "pubkeyhash"}, "value": 0.00598, "n": 9}, {"scriptPubKey": {"reqSigs": 1, "hex": "76a914d0deb4cae8e443eb1846d82cb75ff276f7925f2b88ac", "addresses": ["1L3QLoR3AwWs5Ddkp5nXeuc5mzmfFRrvMM"], "asm": "OP_DUP OP_HASH160 d0deb4cae8e443eb1846d82cb75ff276f7925f2b OP_EQUALVERIFY OP_CHECKSIG", "type": "pubkeyhash"}, "value": 0.03131, "n": 10}, {"scriptPubKey": {"reqSigs": 1, "hex": "76a9140b6f05f8cd023b7e49f31599d7c1422aca5aee8988ac", "addresses": ["123TS9Ujf2yCpAQKMBjHbsHaEiVSo2KN4V"], "asm": "OP_DUP OP_HASH160 0b6f05f8cd023b7e49f31599d7c1422aca5aee89 OP_EQUALVERIFY OP_CHECKSIG", "type": "pubkeyhash"}, "value": 0.0163, "n": 11}, {"scriptPubKey": {"reqSigs": 1, "hex": "a91454218883264788c9f3bfcaf0a3b8940c822930e687", "addresses": ["39Mrrb6TtKrWga2NgqX28LZ2X7dXDVTa6u"], "asm": "OP_HASH160 54218883264788c9f3bfcaf0a3b8940c822930e6 OP_EQUAL", "type": "scripthash"}, "value": 0.0108, "n": 12}, {"scriptPubKey": {"reqSigs": 1, "hex": "76a9145ac0041a75ecd633cfdd15b6ebe0f7f24c38e64088ac", "addresses": ["19Gqqmo3bKnx29yY69w3K1mrHq1Xvg3HgA"], "asm": "OP_DUP OP_HASH160 5ac0041a75ecd633cfdd15b6ebe0f7f24c38e640 OP_EQUALVERIFY OP_CHECKSIG", "type": "pubkeyhash"}, "value": 1.88279065, "n": 13}], "hex": "0100000001f789090fb9cd6f9c380d9dec9e406380b021f62d41843c02d81d6dd2bb3f95950b0000006a47304402202162955f06e03ca95079a52b68b2b2c419269951ad58026143b0991ab69e8e3a022024b0725852cb12affa9a9807a5b76f555c1fbdd0dfcf1be13c92c6d0297af7c501210319891b4582fcaa3bf030ae7be9ba33955b93dd16cc12ac0572531c82a73aa891ffffffff0eb87c0200000000001976a91479db27d52419bc2673435ff1e2d88fd3e65775e488acc02d0800000000001976a914e97d206e3ab3a7d5f36a5484d2dcf80d79a6957188ac18a72200000000001976a9140b5acd846dcb7c91c5d86ad7b8f7cdf3204bbfc788ace84a0900000000001976a914845d04acb015c38dad06917fdcb010b5d159557c88ac80a21900000000001976a914e97d206e3ab3a7d5f36a5484d2dcf80d79a6957188acf0780f00000000001976a914956a77f7455ec5945c0b12389dbb5afae47e1e3188ac58423800000000001976a914e97d206e3ab3a7d5f36a5484d2dcf80d79a6957188acc0510200000000001976a914947d841c9842ea2dca15c50958a1b2a54215509788ac18d80500000000001976a914708b24e578013c1440ef556368efee65ee5e878488acf01f0900000000001976a9140ed0f71ca9406828b910b77737e2eee1a61680ce88ac78c62f00000000001976a914d0deb4cae8e443eb1846d82cb75ff276f7925f2b88ac30df1800000000001976a9140b6f05f8cd023b7e49f31599d7c1422aca5aee8988acc07a10000000000017a91454218883264788c9f3bfcaf0a3b8940c822930e68719e9380b000000001976a9145ac0041a75ecd633cfdd15b6ebe0f7f24c38e64088ac00000000", "vin": [{"sequence": 4294967295, "scriptSig": {"hex": "47304402202162955f06e03ca95079a52b68b2b2c419269951ad58026143b0991ab69e8e3a022024b0725852cb12affa9a9807a5b76f555c1fbdd0dfcf1be13c92c6d0297af7c501210319891b4582fcaa3bf030ae7be9ba33955b93dd16cc12ac0572531c82a73aa891", "asm": "304402202162955f06e03ca95079a52b68b2b2c419269951ad58026143b0991ab69e8e3a022024b0725852cb12affa9a9807a5b76f555c1fbdd0dfcf1be13c92c6d0297af7c5[ALL] 0319891b4582fcaa3bf030ae7be9ba33955b93dd16cc12ac0572531c82a73aa891"}, "vout": 11, "txid": "95953fbbd26d1dd8023c84412df621b08063409eec9d0d389c6fcdb90f0989f7"}], "txid": "e4c1e38a1f0d9f02f6ed4bb12e387241d688710bce06e264eba471e8ece04388", "blocktime": 1537875543, "version": 1, "confirmations": 11464, "time": 1537875543, "locktime": 0, "vsize": 631, "size": 631}