{"hash": "e4c2ef5ca98d5ac9a85eb18545757893108c3c6f88aad32169a28bb4aa86543a", "blockhash": "00000000000000000018f53835495a110e01622372bf6ae95dc86f2b0ab887b0", "vout": [{"scriptPubKey": {"type": "nulldata", "hex": "6a4c50000077810001ff1c0bec365306f189a5c1f2bcbefa6b8351586b4e86aeaeacb577c031fca0890c5975127e9f5c77f48d6206b15c5baa0ad906143fe9098cd302bc9a9526289ac0f6612cd74e33776ee4", "asm": "OP_RETURN 000077810001ff1c0bec365306f189a5c1f2bcbefa6b8351586b4e86aeaeacb577c031fca0890c5975127e9f5c77f48d6206b15c5baa0ad906143fe9098cd302bc9a9526289ac0f6612cd74e33776ee4"}, "value": 0.0, "n": 0}, {"scriptPubKey": {"reqSigs": 1, "hex": "76a9144f8040a75c91f1eb9b41e8c767e817ccc7db7be788ac", "addresses": ["18FN2JJM1kkkJMW5zVuYfCxvUK3T5JLAPb"], "asm": "OP_DUP OP_HASH160 4f8040a75c91f1eb9b41e8c767e817ccc7db7be7 OP_EQUALVERIFY OP_CHECKSIG", "type": "pubkeyhash"}, "value": 0.00151884, "n": 1}], "hex": "01000000019542122b847aac474e1b293ad18875c742c1718e789cd63425509a3c005c8b63000000006b4830450221008267f1aa79b3d47777dc110eaf2656cb9eaacba25dcdafb210f61eeb505df305022054a2671c12b976f9701e6638326167d6dc21cc839590422c10c736ec13d54fbe012103b82beb651983222e74211c264549a2ee069fc88f4f6631e3e91e40daa452e64effffffff020000000000000000536a4c50000077810001ff1c0bec365306f189a5c1f2bcbefa6b8351586b4e86aeaeacb577c031fca0890c5975127e9f5c77f48d6206b15c5baa0ad906143fe9098cd302bc9a9526289ac0f6612cd74e33776ee44c510200000000001976a9144f8040a75c91f1eb9b41e8c767e817ccc7db7be788ac00000000", "vin": [{"sequence": 4294967295, "scriptSig": {"hex": "4830450221008267f1aa79b3d47777dc110eaf2656cb9eaacba25dcdafb210f61eeb505df305022054a2671c12b976f9701e6638326167d6dc21cc839590422c10c736ec13d54fbe012103b82beb651983222e74211c264549a2ee069fc88f4f6631e3e91e40daa452e64e", "asm": "30450221008267f1aa79b3d47777dc110eaf2656cb9eaacba25dcdafb210f61eeb505df305022054a2671c12b976f9701e6638326167d6dc21cc839590422c10c736ec13d54fbe[ALL] 03b82beb651983222e74211c264549a2ee069fc88f4f6631e3e91e40daa452e64e"}, "vout": 0, "txid": "638b5c003c9a502534d69c788e71c142c77588d13a291b4e47ac7a842b124295"}], "txid": "e4c2ef5ca98d5ac9a85eb18545757893108c3c6f88aad32169a28bb4aa86543a", "blocktime": 1537870928, "version": 1, "confirmations": 11512, "time": 1537870928, "locktime": 0, "vsize": 284, "size": 284}