{"hash": "e4c578934b026fefa92530a7fd5f9a59bff13ae13ed61bfaa5602fb7430f8d61", "blockhash": "0000000000000000001f76057863aec43deb6fa401d9628bb513d65a8098bfab", "vout": [{"scriptPubKey": {"reqSigs": 1, "hex": "76a9145a3441dca160758b7e156e29dc73ec9e3837895988ac", "addresses": ["19DxRAVi1SSuNpXJHBV2SedQEybfLbyARM"], "asm": "OP_DUP OP_HASH160 5a3441dca160758b7e156e29dc73ec9e38378959 OP_EQUALVERIFY OP_CHECKSIG", "type": "pubkeyhash"}, "value": 0.00119272, "n": 0}, {"scriptPubKey": {"reqSigs": 1, "hex": "a914923a1f946ee2e6d493d4f03f916f4a9abadb38fb87", "addresses": ["3F2CD2rSNzRmzU48mdX9Ni8P6aBdr3NGrL"], "asm": "OP_HASH160 923a1f946ee2e6d493d4f03f916f4a9abadb38fb OP_EQUAL", "type": "scripthash"}, "value": 0.00390809, "n": 1}], "hex": "0100000002270665ff3166b0356c308b4a9a241c3e4b2193136181da25a4b6910bcb48ffb0000000006b483045022100d7a4077deb8147c1c5bc928bbaa637b1fbc621b1ed25e33871fae9225bf74cf00220246ea849096be42527206452861e32277cd735478ebc3b7f4ee98565064cac0b01210222f6f849796cf9e0325bc3b999cda4b06db6d80635653b0dede61d47a5681795ffffffff6b415cae0191307fa24eef10a21c1cecbacf7e0ec607cd8e2c345de3281520bc000000006b483045022100b22ee98e556853e7bab5a5eaaa772ef9cd250860244ea4413d73ef1a05639aa002207d834a566873229e1d69221492257fd268dff4447afb67d84e30052a5955c1c30121031d120ab8a59567f75799b57276a9a5f50f251b8c4121a65c0db65596546f7e19ffffffff02e8d10100000000001976a9145a3441dca160758b7e156e29dc73ec9e3837895988ac99f605000000000017a914923a1f946ee2e6d493d4f03f916f4a9abadb38fb8700000000", "vin": [{"sequence": 4294967295, "scriptSig": {"hex": "483045022100d7a4077deb8147c1c5bc928bbaa637b1fbc621b1ed25e33871fae9225bf74cf00220246ea849096be42527206452861e32277cd735478ebc3b7f4ee98565064cac0b01210222f6f849796cf9e0325bc3b999cda4b06db6d80635653b0dede61d47a5681795", "asm": "3045022100d7a4077deb8147c1c5bc928bbaa637b1fbc621b1ed25e33871fae9225bf74cf00220246ea849096be42527206452861e32277cd735478ebc3b7f4ee98565064cac0b[ALL] 0222f6f849796cf9e0325bc3b999cda4b06db6d80635653b0dede61d47a5681795"}, "vout": 0, "txid": "b0ff48cb0b91b6a425da81611393214b3e1c249a4a8b306c35b06631ff650627"}, {"sequence": 4294967295, "scriptSig": {"hex": "483045022100b22ee98e556853e7bab5a5eaaa772ef9cd250860244ea4413d73ef1a05639aa002207d834a566873229e1d69221492257fd268dff4447afb67d84e30052a5955c1c30121031d120ab8a59567f75799b57276a9a5f50f251b8c4121a65c0db65596546f7e19", "asm": "3045022100b22ee98e556853e7bab5a5eaaa772ef9cd250860244ea4413d73ef1a05639aa002207d834a566873229e1d69221492257fd268dff4447afb67d84e30052a5955c1c3[ALL] 031d120ab8a59567f75799b57276a9a5f50f251b8c4121a65c0db65596546f7e19"}, "vout": 0, "txid": "bc201528e35d342c8ecd07c60e7ecfbaec1c1ca210ef4ea27f309101ae5c416b"}], "txid": "e4c578934b026fefa92530a7fd5f9a59bff13ae13ed61bfaa5602fb7430f8d61", "blocktime": 1537873891, "version": 1, "confirmations": 11475, "time": 1537873891, "locktime": 0, "vsize": 372, "size": 372}