{"hash": "ddb921da7af1bc56ab538a173b78e3b625a9c89f66b6917830cc5e1520a469b1", "blockhash": "0000000000000000001cda96e906b7601b7a6fb1a3b62bca570a9e5d8f4b3de1", "vout": [{"scriptPubKey": {"reqSigs": 1, "hex": "a91440bdee6ffd9a1f7dad49b514b0f32f2510b23a6e87", "addresses": ["37bLhV841BM2ocWBwUm3jAFHDyyuWQqLG4"], "asm": "OP_HASH160 40bdee6ffd9a1f7dad49b514b0f32f2510b23a6e OP_EQUAL", "type": "scripthash"}, "value": 0.00015819, "n": 0}, {"scriptPubKey": {"reqSigs": 1, "hex": "a914bfe3b9b006bd60d821de4768216fbcf3cb0629a487", "addresses": ["3KBdnpNRSUC6xH7oL58GWg3f1QzPQs9FWq"], "asm": "OP_HASH160 bfe3b9b006bd60d821de4768216fbcf3cb0629a4 OP_EQUAL", "type": "scripthash"}, "value": 0.01077275, "n": 1}], "hex": "01000000000101d150ee917d2e5ae9f0827ee4ba16cffb6b962682485392d77b0e2c74b842dfd901000000232200204ac72bc93353695ed44de9eabe5eab31fde46c3e5524f6f6c253b37df4627817ffffffff02cb3d00000000000017a91440bdee6ffd9a1f7dad49b514b0f32f2510b23a6e871b7010000000000017a914bfe3b9b006bd60d821de4768216fbcf3cb0629a4870400473044022035b30c378d1a5e35861c16575c7e7463ce3a0f6054d8e97bb21abc4413f26356022038a3544d29198dafe4f866f953047d1f467ca36bf26022373d9e48891b34a9cc0147304402207759f75e0bd0756bb433b8471223b586264779f3acb43ccadaf3313156afd3970220589c3ec87bfa338cd2047f1d630750df694f1c6dbc12f397f6c891095d4cbb8b014752210383dd989bbcdccf0b79b07f5bbd82921af5ac4762329b0aa9346994805e5cd8fc2103871fc2ca08e6950b38867e8e6a0e94ee625223d3aa0df5c65f414c6d784467e252ae00000000", "vin": [{"txinwitness": ["", "3044022035b30c378d1a5e35861c16575c7e7463ce3a0f6054d8e97bb21abc4413f26356022038a3544d29198dafe4f866f953047d1f467ca36bf26022373d9e48891b34a9cc01", "304402207759f75e0bd0756bb433b8471223b586264779f3acb43ccadaf3313156afd3970220589c3ec87bfa338cd2047f1d630750df694f1c6dbc12f397f6c891095d4cbb8b01", "52210383dd989bbcdccf0b79b07f5bbd82921af5ac4762329b0aa9346994805e5cd8fc2103871fc2ca08e6950b38867e8e6a0e94ee625223d3aa0df5c65f414c6d784467e252ae"], "sequence": 4294967295, "scriptSig": {"hex": "2200204ac72bc93353695ed44de9eabe5eab31fde46c3e5524f6f6c253b37df4627817", "asm": "00204ac72bc93353695ed44de9eabe5eab31fde46c3e5524f6f6c253b37df4627817"}, "vout": 1, "txid": "d9df42b8742c0e7bd79253488226966bfbcf16bae47e82f0e95a2e7d91ee50d1"}], "txid": "e4c6f7b19ccb3ee8979dc483341035cd7c10eef688609aa1121a742d995be69f", "blocktime": 1537873282, "version": 1, "confirmations": 11484, "time": 1537873282, "locktime": 0, "vsize": 205, "size": 370}