{"hash": "1a90c71cadb0b0c178e9ab4a1e33315d5daeb3786191dc4c3f6c9163b6ee15e3", "blockhash": "0000000000000000001f76057863aec43deb6fa401d9628bb513d65a8098bfab", "vout": [{"scriptPubKey": {"reqSigs": 1, "hex": "76a914f60e509beb7c5dbeaae1afa1209952f2e120742588ac", "addresses": ["1PS2NoinFTfFuAXQijLmzHnuczcXWnKhHg"], "asm": "OP_DUP OP_HASH160 f60e509beb7c5dbeaae1afa1209952f2e1207425 OP_EQUALVERIFY OP_CHECKSIG", "type": "pubkeyhash"}, "value": 0.0026276, "n": 0}, {"scriptPubKey": {"reqSigs": 1, "hex": "a9140b959ad34f01f9a8684cc1163e4cdd84526e01f187", "addresses": ["32kGaNoVuPE85R62ZLvSarneW9aXvJ4QAr"], "asm": "OP_HASH160 0b959ad34f01f9a8684cc1163e4cdd84526e01f1 OP_EQUAL", "type": "scripthash"}, "value": 0.01000102, "n": 1}], "hex": "02000000000102a5ebdbd3d98228774007ff18c5e3bbb108122c4340b92b8bea3fad0c4b670cec0a00000017160014c5920b0655e80ec7baa7e8f25632d020f9c029d4feffffffe11af1bb066c09907e008a5e7cfcd8b4a17b2897aa398ccd352ddd41f5e79bfc0000000017160014c55f978b6900fc20553bc16aa3ebbf6f7c1fba58feffffff0268020400000000001976a914f60e509beb7c5dbeaae1afa1209952f2e120742588aca6420f000000000017a9140b959ad34f01f9a8684cc1163e4cdd84526e01f1870247304402203c1e0c32297e50fdfbfa48d9d04dbd3930ffe8a5e9cf17040f9be430d91810b102201ebc16e86b666a48abc0d381af6d9b20d1394ea494bc45239487eda07476dbee01210223888b3f45f95d080b461584833ac2f0a1d677c345c7fe0ee6a8a59dd80d3ec302473044022006c6a11599c74caec07dcaf10b3edca3c1cba75a1b2530858ec3fa7399a8506502200349f2e3a6102556556d48775abeac41b4dac1fd1e0f2f76895b6eec9d5e34700121033b63d2b192ba06a78a6f2ac0a02a5a06c53a413e90829ac2bec74ccbd4b9b68014490800", "vin": [{"txinwitness": ["304402203c1e0c32297e50fdfbfa48d9d04dbd3930ffe8a5e9cf17040f9be430d91810b102201ebc16e86b666a48abc0d381af6d9b20d1394ea494bc45239487eda07476dbee01", "0223888b3f45f95d080b461584833ac2f0a1d677c345c7fe0ee6a8a59dd80d3ec3"], "sequence": 4294967294, "scriptSig": {"hex": "160014c5920b0655e80ec7baa7e8f25632d020f9c029d4", "asm": "0014c5920b0655e80ec7baa7e8f25632d020f9c029d4"}, "vout": 10, "txid": "ec0c674b0cad3fea8b2bb940432c1208b1bbe3c518ff0740772882d9d3dbeba5"}, {"txinwitness": ["3044022006c6a11599c74caec07dcaf10b3edca3c1cba75a1b2530858ec3fa7399a8506502200349f2e3a6102556556d48775abeac41b4dac1fd1e0f2f76895b6eec9d5e347001", "033b63d2b192ba06a78a6f2ac0a02a5a06c53a413e90829ac2bec74ccbd4b9b680"], "sequence": 4294967294, "scriptSig": {"hex": "160014c55f978b6900fc20553bc16aa3ebbf6f7c1fba58", "asm": "0014c55f978b6900fc20553bc16aa3ebbf6f7c1fba58"}, "vout": 0, "txid": "fc9be7f541dd2d35cd8c39aa97287ba1b4d8fc7c5e8a007e90096c06bbf11ae1"}], "txid": "e4c8439582a25844be4c46c7aecc21b8e1e588beac0ecb44563ef81e85790e2f", "blocktime": 1537873891, "version": 2, "confirmations": 11478, "time": 1537873891, "locktime": 542996, "vsize": 258, "size": 420}