{"hash": "e0beb1fa93f27052d9c1491fd315b36d2a9defd08fb8f83d16d2aeed648bac8d", "blockhash": "0000000000000000001f76057863aec43deb6fa401d9628bb513d65a8098bfab", "vout": [{"scriptPubKey": {"reqSigs": 1, "hex": "76a9143b097e8a38e4b09f5bc97a88dc3657d8c6c173bc88ac", "addresses": ["16PAEzcRMADBqZV1BDULmBDPJXECGe11B8"], "asm": "OP_DUP OP_HASH160 3b097e8a38e4b09f5bc97a88dc3657d8c6c173bc OP_EQUALVERIFY OP_CHECKSIG", "type": "pubkeyhash"}, "value": 0.0141922, "n": 0}, {"scriptPubKey": {"reqSigs": 1, "hex": "76a914b189cc2402b40407e4913c584054bbfe5a31cdda88ac", "addresses": ["1HBjgHe5xiz1ZZMzEiiqAU9FUE59FqoSdB"], "asm": "OP_DUP OP_HASH160 b189cc2402b40407e4913c584054bbfe5a31cdda OP_EQUALVERIFY OP_CHECKSIG", "type": "pubkeyhash"}, "value": 0.01561768, "n": 1}, {"scriptPubKey": {"reqSigs": 1, "hex": "0014f18a96b7e3baf7d761101eab09d40a32d000282a", "addresses": ["bc1q7x9fddlrhtmawcgsr64sn4q2xtgqq2p2mavcum"], "asm": "0 f18a96b7e3baf7d761101eab09d40a32d000282a", "type": "witness_v0_keyhash"}, "value": 0.02789482, "n": 2}, {"scriptPubKey": {"reqSigs": 1, "hex": "76a9141a7b31e38f9adacb5bcfe2194690f5f631c14f7188ac", "addresses": ["13R29idjL1CAzNRMT4WXueg5pgDN6KqmWA"], "asm": "OP_DUP OP_HASH160 1a7b31e38f9adacb5bcfe2194690f5f631c14f71 OP_EQUALVERIFY OP_CHECKSIG", "type": "pubkeyhash"}, "value": 0.03822434, "n": 3}], "hex": "01000000000102274241f04329bb0bdab93213b06901dc8b682ec8174b082dd8ca7d34ebb5fa4f0200000000ffffffff1602020e4c18d81c2f08587c377614858a867a8c1e6ef90ea77ab858188fcb880300000000ffffffff04d4a71500000000001976a9143b097e8a38e4b09f5bc97a88dc3657d8c6c173bc88aca8d41700000000001976a914b189cc2402b40407e4913c584054bbfe5a31cdda88ac6a902a0000000000160014f18a96b7e3baf7d761101eab09d40a32d000282a62533a00000000001976a9141a7b31e38f9adacb5bcfe2194690f5f631c14f7188ac02483045022100db1a9fe4efb91d0edcc156978864cdd6ecf71d6b5d4a32e120709e0430be017002203fea99fc00087ff8f19c97f393a0d1244a8de5957f9c43797e0110a3c8bbd9eb012102ab645244ed1a66f29661724fd74f96e870c209c848628415b0824d53e47f948602483045022100d33ca2399d17372251a85fafb1572cea2f8874426e83fa59acafc2f9f8bc195802205207e1042ed59b2c68170ec2954248417868a752ae6094bac555209e0c0ef07d01210253a87752dc5245eeef2f9293f3a2c21a7259d5f41eb65fb8acb206463dd5ddae00000000", "vin": [{"txinwitness": ["3045022100db1a9fe4efb91d0edcc156978864cdd6ecf71d6b5d4a32e120709e0430be017002203fea99fc00087ff8f19c97f393a0d1244a8de5957f9c43797e0110a3c8bbd9eb01", "02ab645244ed1a66f29661724fd74f96e870c209c848628415b0824d53e47f9486"], "sequence": 4294967295, "scriptSig": {"hex": "", "asm": ""}, "vout": 2, "txid": "4ffab5eb347dcad82d084b17c82e688bdc0169b01332b9da0bbb2943f0414227"}, {"txinwitness": ["3045022100d33ca2399d17372251a85fafb1572cea2f8874426e83fa59acafc2f9f8bc195802205207e1042ed59b2c68170ec2954248417868a752ae6094bac555209e0c0ef07d01", "0253a87752dc5245eeef2f9293f3a2c21a7259d5f41eb65fb8acb206463dd5ddae"], "sequence": 4294967295, "scriptSig": {"hex": "", "asm": ""}, "vout": 3, "txid": "88cb8f1858b87aa70ef96e1e8c7a868a851476377c58082f1cd8184c0e020216"}], "txid": "e4d1c3351d4f91d4fc056ad38b46ed52a3a2b0dbf835cf86a5486e26633bbf84", "blocktime": 1537873891, "version": 1, "confirmations": 11475, "time": 1537873891, "locktime": 0, "vsize": 280, "size": 443}