{"hash": "e4d96a24dfa9e92b28312dda82c2e0775fdc39552bf834efed82cf00a5a41d8d", "blockhash": "00000000000000000018f53835495a110e01622372bf6ae95dc86f2b0ab887b0", "vout": [{"scriptPubKey": {"reqSigs": 1, "hex": "a91496d70ad842ac83673e550c6a60ab2c2cc1faa4f987", "addresses": ["3FSativRh4HdUQQfy8MFSs8zBkQCuH7H2f"], "asm": "OP_HASH160 96d70ad842ac83673e550c6a60ab2c2cc1faa4f9 OP_EQUAL", "type": "scripthash"}, "value": 0.00078174, "n": 0}, {"scriptPubKey": {"reqSigs": 1, "hex": "76a914aa0a93dd6ed87608003f7d059124a5093111abb988ac", "addresses": ["1GW6YZDpFfbiViraZoc2bWjYTYXaMr6LHw"], "asm": "OP_DUP OP_HASH160 aa0a93dd6ed87608003f7d059124a5093111abb9 OP_EQUALVERIFY OP_CHECKSIG", "type": "pubkeyhash"}, "value": 7.035e-05, "n": 1}], "hex": "0100000001dcf5b44e1c8cb1a8081e581c474792cf3a5d52a270b9c8128b5214f3ebd2e8fc010000006a473044022036cca1bbaed13f4fa6c67a9605089a365c1df395e9deefc4090db1c235fc3a3302205f13e7798706af2cb598eb47f505f300dcbcd649bdf2a4f9362fa8fe42dd72db01210252a1a319a19267dc01f895665e78e11c1c86dec1a4be965c3c55e20a7d7b7551ffffffff025e3101000000000017a91496d70ad842ac83673e550c6a60ab2c2cc1faa4f9877b1b0000000000001976a914aa0a93dd6ed87608003f7d059124a5093111abb988ac00000000", "vin": [{"sequence": 4294967295, "scriptSig": {"hex": "473044022036cca1bbaed13f4fa6c67a9605089a365c1df395e9deefc4090db1c235fc3a3302205f13e7798706af2cb598eb47f505f300dcbcd649bdf2a4f9362fa8fe42dd72db01210252a1a319a19267dc01f895665e78e11c1c86dec1a4be965c3c55e20a7d7b7551", "asm": "3044022036cca1bbaed13f4fa6c67a9605089a365c1df395e9deefc4090db1c235fc3a3302205f13e7798706af2cb598eb47f505f300dcbcd649bdf2a4f9362fa8fe42dd72db[ALL] 0252a1a319a19267dc01f895665e78e11c1c86dec1a4be965c3c55e20a7d7b7551"}, "vout": 1, "txid": "fce8d2ebf314528b12c8b970a2525d3acf9247471c581e08a8b18c1c4eb4f5dc"}], "txid": "e4d96a24dfa9e92b28312dda82c2e0775fdc39552bf834efed82cf00a5a41d8d", "blocktime": 1537870928, "version": 1, "confirmations": 11512, "time": 1537870928, "locktime": 0, "vsize": 223, "size": 223}