{"hash": "d698451312ea3806cfba7a4401570d2c4195e94993b8272ed31df2aad0044a6a", "blockhash": "000000000000000000022b45ed06c6f4ccd3cf7fb5ba4856ebd2e58215665228", "vout": [{"scriptPubKey": {"reqSigs": 1, "hex": "a91451c72b7a78832ae2c31fe24651de6dbd0f86376e87", "addresses": ["399RFeMp1sFhsytj8dFspJpsyRUerNkLar"], "asm": "OP_HASH160 51c72b7a78832ae2c31fe24651de6dbd0f86376e OP_EQUAL", "type": "scripthash"}, "value": 0.02981608, "n": 0}, {"scriptPubKey": {"reqSigs": 1, "hex": "76a914ecf6e5779950c42df8d09835741f9cc8113570a088ac", "addresses": ["1NbxEw2jDKTXLHd5MB52o8jhbNkgpKs9NK"], "asm": "OP_DUP OP_HASH160 ecf6e5779950c42df8d09835741f9cc8113570a0 OP_EQUALVERIFY OP_CHECKSIG", "type": "pubkeyhash"}, "value": 0.0001, "n": 1}], "hex": "0200000000010138d0826b3574af53cd65af978f25fec40100dba39725168f4c6200d918cecff7000000001716001465822e1989631fcefe20ebe6cfaedaf83e65e573fdffffff02e87e2d000000000017a91451c72b7a78832ae2c31fe24651de6dbd0f86376e8710270000000000001976a914ecf6e5779950c42df8d09835741f9cc8113570a088ac0247304402202b835ff4c1cafb05c09f5e48285e08b66fcf5f7810cabb966f7e39925d49937b022037a386de446aab301fb24e93399391ae85f514c85abba5fabe218de7dc7cd416012102dc6a592f4492ec87e77d84b0e053da399bb0d3081a71f9af99288fbfa35da31d0b490800", "vin": [{"txinwitness": ["304402202b835ff4c1cafb05c09f5e48285e08b66fcf5f7810cabb966f7e39925d49937b022037a386de446aab301fb24e93399391ae85f514c85abba5fabe218de7dc7cd41601", "02dc6a592f4492ec87e77d84b0e053da399bb0d3081a71f9af99288fbfa35da31d"], "sequence": 4294967293, "scriptSig": {"hex": "16001465822e1989631fcefe20ebe6cfaedaf83e65e573", "asm": "001465822e1989631fcefe20ebe6cfaedaf83e65e573"}, "vout": 0, "txid": "f7cfce18d900624c8f162597a3db0001c4fe258f97af65cd53af74356b82d038"}], "txid": "e4e2d8db998f6e728f884153b1b5ce184761daf947260aa0824707f354da497e", "blocktime": 1537869901, "version": 2, "confirmations": 11524, "time": 1537869901, "locktime": 542987, "vsize": 168, "size": 249}