{"hash": "fae6909d8979411158bf25e33062d24458626e6955770dc4fa3efe20e9741ec1", "blockhash": "00000000000000000018f53835495a110e01622372bf6ae95dc86f2b0ab887b0", "vout": [{"scriptPubKey": {"reqSigs": 1, "hex": "a9149cf2881055dd3cb5ae38111c006631f0407ffcbb87", "addresses": ["3FzssrSjEgwAuZyegyh6ATqmvwAnWQhjQc"], "asm": "OP_HASH160 9cf2881055dd3cb5ae38111c006631f0407ffcbb OP_EQUAL", "type": "scripthash"}, "value": 0.15755028, "n": 0}, {"scriptPubKey": {"reqSigs": 1, "hex": "a91461b3d19bf9b21d9850a07f2cd1aabd31fe35da8387", "addresses": ["3AbctBNTJq1Auaf49mT1uB4HSJZB5vbHqZ"], "asm": "OP_HASH160 61b3d19bf9b21d9850a07f2cd1aabd31fe35da83 OP_EQUAL", "type": "scripthash"}, "value": 0.00091699, "n": 1}], "hex": "02000000000101556aecfb93cc2f738b070b6079e6c9a71177584a9abe7410026aaf26758cb0b50100000017160014b637260b41548b8f4d86ca25b0bdaccff15e8fc9feffffff021467f0000000000017a9149cf2881055dd3cb5ae38111c006631f0407ffcbb87336601000000000017a91461b3d19bf9b21d9850a07f2cd1aabd31fe35da838702483045022100d0938001207894c58e8150999ffd011630aaed18adcda0cdd7cbafb46d556e2a022038d30c8ad8ced3b54d444b8eaf0339118e9c20a96b7a764be7c62fc6a37de1470121035f14c2bcb5b075a8c1cf454e0fbb32b1780ee6089bc013a808d782e922788e990e490800", "vin": [{"txinwitness": ["3045022100d0938001207894c58e8150999ffd011630aaed18adcda0cdd7cbafb46d556e2a022038d30c8ad8ced3b54d444b8eaf0339118e9c20a96b7a764be7c62fc6a37de14701", "035f14c2bcb5b075a8c1cf454e0fbb32b1780ee6089bc013a808d782e922788e99"], "sequence": 4294967294, "scriptSig": {"hex": "160014b637260b41548b8f4d86ca25b0bdaccff15e8fc9", "asm": "0014b637260b41548b8f4d86ca25b0bdaccff15e8fc9"}, "vout": 1, "txid": "b5b08c7526af6a021074be9a4a587711a7c9e679600b078b732fcc93fbec6a55"}], "txid": "e4e55a53558897361ad0f73a74d168fa6da36b79d4e14ec2c99810f5fb53e681", "blocktime": 1537870928, "version": 2, "confirmations": 11512, "time": 1537870928, "locktime": 542990, "vsize": 166, "size": 248}