{"hash": "e4e754b68f377cb1187feae38bb8ecb2ad2f171b4d01e1c87887af71d039a3c5", "blockhash": "000000000000000000022b45ed06c6f4ccd3cf7fb5ba4856ebd2e58215665228", "vout": [{"scriptPubKey": {"reqSigs": 1, "hex": "76a9144a0f1e2f2b0d7daeec5265f10bbbbe08ed725e8988ac", "addresses": ["17kb7c9ndg7ioSuzMWEHWECdEVUegNkcGc"], "asm": "OP_DUP OP_HASH160 4a0f1e2f2b0d7daeec5265f10bbbbe08ed725e89 OP_EQUALVERIFY OP_CHECKSIG", "type": "pubkeyhash"}, "value": 0.00048206, "n": 0}], "hex": "0100000001426951d3df959ae9b240d42f0684312cd6a0a49e0df23aaca1b7bd0ddf735982000000006b483045022100c02e3ae154072007c8b40b425f322184ac9e8cccf94b6ff8900c192fe9644db3022046b6fc7100ee6af88610b0a9133edc10718dcd86b9161bacef96616bc861ae92012102228ae404ada0570b7e4f4d904b798b156b2e054864724cf6ff18ef3ace43c97affffffff014ebc0000000000001976a9144a0f1e2f2b0d7daeec5265f10bbbbe08ed725e8988ac00000000", "vin": [{"sequence": 4294967295, "scriptSig": {"hex": "483045022100c02e3ae154072007c8b40b425f322184ac9e8cccf94b6ff8900c192fe9644db3022046b6fc7100ee6af88610b0a9133edc10718dcd86b9161bacef96616bc861ae92012102228ae404ada0570b7e4f4d904b798b156b2e054864724cf6ff18ef3ace43c97a", "asm": "3045022100c02e3ae154072007c8b40b425f322184ac9e8cccf94b6ff8900c192fe9644db3022046b6fc7100ee6af88610b0a9133edc10718dcd86b9161bacef96616bc861ae92[ALL] 02228ae404ada0570b7e4f4d904b798b156b2e054864724cf6ff18ef3ace43c97a"}, "vout": 0, "txid": "825973df0dbdb7a1ac3af20d9ea4a0d62c3184062fd440b2e99a95dfd3516942"}], "txid": "e4e754b68f377cb1187feae38bb8ecb2ad2f171b4d01e1c87887af71d039a3c5", "blocktime": 1537869901, "version": 1, "confirmations": 11522, "time": 1537869901, "locktime": 0, "vsize": 192, "size": 192}