{"hash": "e4e90a85cdfe1c83159c9e171cb91e51ec506e768f6e70b4e1fe7b4800d332d0", "blockhash": "0000000000000000000baef3f32e3676a92c3b2e5da21b426e4f302fc371ce76", "vout": [{"scriptPubKey": {"type": "nulldata", "hex": "6a4c500000782200017cdcad2d95c4798fc698134b019d6ddc0f1b8ff117702940d64fa54d8eb21b66e7736205396f49b98d72f7e7af165baa1d97061451c8c779c6dfbc9a9526289ac0f6612cd74e33776ee4", "asm": "OP_RETURN 0000782200017cdcad2d95c4798fc698134b019d6ddc0f1b8ff117702940d64fa54d8eb21b66e7736205396f49b98d72f7e7af165baa1d97061451c8c779c6dfbc9a9526289ac0f6612cd74e33776ee4"}, "value": 0.0, "n": 0}, {"scriptPubKey": {"reqSigs": 1, "hex": "76a914dde68c84cda8f4a24f6edc61a830366e85892d2a88ac", "addresses": ["1MEJXDMcA8VU228NxewFQQSLYBYabWAErQ"], "asm": "OP_DUP OP_HASH160 dde68c84cda8f4a24f6edc61a830366e85892d2a OP_EQUALVERIFY OP_CHECKSIG", "type": "pubkeyhash"}, "value": 0.0219734, "n": 1}], "hex": "0100000001464d05821410ce28917f9d06c2129ad4b836d75d1f6d2f80231363803e992fef000000006b483045022100ec8134c1b04b02218758ad7a702c68b176a485c6a2dda4fbc837b6ff60daece4022054a732a29fc1e0ec8304f6dc08b3273bae330fb7889374f1844949fa8de3537e012103ecabd53db75d38da027324ed22495e66a57705b9e05fa08effd6abd0b4bc67f4ffffffff020000000000000000536a4c500000782200017cdcad2d95c4798fc698134b019d6ddc0f1b8ff117702940d64fa54d8eb21b66e7736205396f49b98d72f7e7af165baa1d97061451c8c779c6dfbc9a9526289ac0f6612cd74e33776ee45c872100000000001976a914dde68c84cda8f4a24f6edc61a830366e85892d2a88ac00000000", "vin": [{"sequence": 4294967295, "scriptSig": {"hex": "483045022100ec8134c1b04b02218758ad7a702c68b176a485c6a2dda4fbc837b6ff60daece4022054a732a29fc1e0ec8304f6dc08b3273bae330fb7889374f1844949fa8de3537e012103ecabd53db75d38da027324ed22495e66a57705b9e05fa08effd6abd0b4bc67f4", "asm": "3045022100ec8134c1b04b02218758ad7a702c68b176a485c6a2dda4fbc837b6ff60daece4022054a732a29fc1e0ec8304f6dc08b3273bae330fb7889374f1844949fa8de3537e[ALL] 03ecabd53db75d38da027324ed22495e66a57705b9e05fa08effd6abd0b4bc67f4"}, "vout": 0, "txid": "ef2f993e80631323802f6d1f5dd736b8d49a12c2069d7f9128ce101482054d46"}], "txid": "e4e90a85cdfe1c83159c9e171cb91e51ec506e768f6e70b4e1fe7b4800d332d0", "blocktime": 1537876114, "version": 1, "confirmations": 11460, "time": 1537876114, "locktime": 0, "vsize": 284, "size": 284}