{"hash": "68551ebfd136581fb793e81bc0c47a678ee8b2c619228a8e5b638ddec459f0ea", "blockhash": "0000000000000000000dcc0f55137456b1a82d3642486a52398922ac4d620174", "vout": [{"scriptPubKey": {"reqSigs": 1, "hex": "a914dd2553e31f162848613edc2e8b09d3865c468fb587", "addresses": ["3MrKyWc7LaXE8DCQFaw6Gw2K6AvzjDUFem"], "asm": "OP_HASH160 dd2553e31f162848613edc2e8b09d3865c468fb5 OP_EQUAL", "type": "scripthash"}, "value": 0.00042036, "n": 0}, {"scriptPubKey": {"reqSigs": 1, "hex": "a9140be7846be16b05bea00dbec2fcd7e045a793cb1787", "addresses": ["32mxhko5mJHfkbkDPpz7SfdJwEJi21P1WK"], "asm": "OP_HASH160 0be7846be16b05bea00dbec2fcd7e045a793cb17 OP_EQUAL", "type": "scripthash"}, "value": 0.20399398, "n": 1}], "hex": "01000000000101a7950c6227048ce5f2c4786be0e11d64a7c71e80397221dabe159d412725416001000000232200202c66ece6da72bcbfeadf83a91236f4891c13e14d8ecebdcaa81666fc1aa73a31ffffffff0234a400000000000017a914dd2553e31f162848613edc2e8b09d3865c468fb587264537010000000017a9140be7846be16b05bea00dbec2fcd7e045a793cb178704004830450221008972b5a65317dbd8e6b8778e7a25d4f3358a242d7362cbd21d0962e7c5626dcf0220009d9f7772c0bcf8998c9348405736470c995e70884f62171436cb13663d25e0014830450221009347765b70de56983be3348558ed5a59c033bec9032b25e705bc4f3d6d43d3e4022019040c6fdf7712a249343d9d55b9162e3e70f3fa476832d9ecf7414c46e53ef501475221029e6fbb942d34a473faaa5557c1bfe08d72102f0b9754ad140fd369d7a3ba3cdc2103871fc2ca08e6950b38867e8e6a0e94ee625223d3aa0df5c65f414c6d784467e252ae00000000", "vin": [{"txinwitness": ["", "30450221008972b5a65317dbd8e6b8778e7a25d4f3358a242d7362cbd21d0962e7c5626dcf0220009d9f7772c0bcf8998c9348405736470c995e70884f62171436cb13663d25e001", "30450221009347765b70de56983be3348558ed5a59c033bec9032b25e705bc4f3d6d43d3e4022019040c6fdf7712a249343d9d55b9162e3e70f3fa476832d9ecf7414c46e53ef501", "5221029e6fbb942d34a473faaa5557c1bfe08d72102f0b9754ad140fd369d7a3ba3cdc2103871fc2ca08e6950b38867e8e6a0e94ee625223d3aa0df5c65f414c6d784467e252ae"], "sequence": 4294967295, "scriptSig": {"hex": "2200202c66ece6da72bcbfeadf83a91236f4891c13e14d8ecebdcaa81666fc1aa73a31", "asm": "00202c66ece6da72bcbfeadf83a91236f4891c13e14d8ecebdcaa81666fc1aa73a31"}, "vout": 1, "txid": "60412527419d15beda217239801ec7a7641de1e06b78c4f2e58c0427620c95a7"}], "txid": "e4f3adf3b52497ce2844d5de0b4e48bed771ee249f5933c6e3b0e760159e35e4", "blocktime": 1537870268, "version": 1, "confirmations": 11518, "time": 1537870268, "locktime": 0, "vsize": 206, "size": 372}