{"hash": "e4f3a12d7d921b523096777918b248362fa640a15b8c1d1a6e364398420927cd", "blockhash": "0000000000000000001f76057863aec43deb6fa401d9628bb513d65a8098bfab", "vout": [{"scriptPubKey": {"reqSigs": 1, "hex": "a9148a3e9f18e54a766dbdb91ec002b6d8bf2a2ec2c887", "addresses": ["3EHzC2qynT1NDJLBhWXYdsxdRtHwaSBBEY"], "asm": "OP_HASH160 8a3e9f18e54a766dbdb91ec002b6d8bf2a2ec2c8 OP_EQUAL", "type": "scripthash"}, "value": 0.01443333, "n": 0}, {"scriptPubKey": {"reqSigs": 1, "hex": "76a914762eda2b843db64a11f76998cd4940bb4c646c0388ac", "addresses": ["1BmtrzB68RZvC1vZLqc1DXxBHePLNom3Zq"], "asm": "OP_DUP OP_HASH160 762eda2b843db64a11f76998cd4940bb4c646c03 OP_EQUALVERIFY OP_CHECKSIG", "type": "pubkeyhash"}, "value": 0.00999477, "n": 1}], "hex": "02000000039dee2f3b1a6aa6473190cf78e4adddbb95ec21d0c8c6308e1bce897367a09eb0240000006a473044022033811fd029b795b8217d76a5f9f22fc4bd5621ed5012000fa705a0e458c7169a02204bcc45be84131c9109869bb5a3b3f4b540a3d73b22587d9f61bad2b1091a1720012102d3c579576baf1b5f769250b6c91da9dbbe22109cb1f2ddc7c2479344cc08a46ffeffffffa0705acc620685dcec68d84f4c308633c9d3d3e8bbdfafea8d5e0119a6ca6887000000006a47304402200c76ed98838e176f72b07745d12865771225010e071f2a60e71655a512f77a980220731fd262a580aefc8914490000a137ef5358b6b2b50e79c8e4667146d44cf39f012103963d6534e3789e4e717de17adf6fb64d1aa13b81b926bede3306c66f935478bbfeffffffdd0973fa9f202e76475f18fdba68b5c1bd25c2e66889dbf5155efd8ee8d7e37a260000006a47304402205cb8c1103b7882366e38c9554639f295841f016f8b30d79a29a677a92ff1814c022064bec5362913073a5bae2807d8ca60ff198e2ca019cdffe48e492aa61b54a3a60121029c89fc78700f3483e016baa520e25b0a15157343e0e6c608136566aa6febf67dfeffffff02050616000000000017a9148a3e9f18e54a766dbdb91ec002b6d8bf2a2ec2c88735400f00000000001976a914762eda2b843db64a11f76998cd4940bb4c646c0388ac14490800", "vin": [{"sequence": 4294967294, "scriptSig": {"hex": "473044022033811fd029b795b8217d76a5f9f22fc4bd5621ed5012000fa705a0e458c7169a02204bcc45be84131c9109869bb5a3b3f4b540a3d73b22587d9f61bad2b1091a1720012102d3c579576baf1b5f769250b6c91da9dbbe22109cb1f2ddc7c2479344cc08a46f", "asm": "3044022033811fd029b795b8217d76a5f9f22fc4bd5621ed5012000fa705a0e458c7169a02204bcc45be84131c9109869bb5a3b3f4b540a3d73b22587d9f61bad2b1091a1720[ALL] 02d3c579576baf1b5f769250b6c91da9dbbe22109cb1f2ddc7c2479344cc08a46f"}, "vout": 36, "txid": "b09ea0677389ce1b8e30c6c8d021ec95bbddade478cf903147a66a1a3b2fee9d"}, {"sequence": 4294967294, "scriptSig": {"hex": "47304402200c76ed98838e176f72b07745d12865771225010e071f2a60e71655a512f77a980220731fd262a580aefc8914490000a137ef5358b6b2b50e79c8e4667146d44cf39f012103963d6534e3789e4e717de17adf6fb64d1aa13b81b926bede3306c66f935478bb", "asm": "304402200c76ed98838e176f72b07745d12865771225010e071f2a60e71655a512f77a980220731fd262a580aefc8914490000a137ef5358b6b2b50e79c8e4667146d44cf39f[ALL] 03963d6534e3789e4e717de17adf6fb64d1aa13b81b926bede3306c66f935478bb"}, "vout": 0, "txid": "8768caa619015e8deaafdfbbe8d3d3c93386304c4fd868ecdc850662cc5a70a0"}, {"sequence": 4294967294, "scriptSig": {"hex": "47304402205cb8c1103b7882366e38c9554639f295841f016f8b30d79a29a677a92ff1814c022064bec5362913073a5bae2807d8ca60ff198e2ca019cdffe48e492aa61b54a3a60121029c89fc78700f3483e016baa520e25b0a15157343e0e6c608136566aa6febf67d", "asm": "304402205cb8c1103b7882366e38c9554639f295841f016f8b30d79a29a677a92ff1814c022064bec5362913073a5bae2807d8ca60ff198e2ca019cdffe48e492aa61b54a3a6[ALL] 029c89fc78700f3483e016baa520e25b0a15157343e0e6c608136566aa6febf67d"}, "vout": 38, "txid": "7ae3d7e88efd5e15f5db8968e6c225bdc1b568bafd185f47762e209ffa7309dd"}], "txid": "e4f3a12d7d921b523096777918b248362fa640a15b8c1d1a6e364398420927cd", "blocktime": 1537873891, "version": 2, "confirmations": 11479, "time": 1537873891, "locktime": 542996, "vsize": 517, "size": 517}