{"hash": "4414f7f6b019b7cc74980b5e737c6aa090e9b8af8d1c502a200247813e335362", "blockhash": "0000000000000000001f76057863aec43deb6fa401d9628bb513d65a8098bfab", "vout": [{"scriptPubKey": {"reqSigs": 1, "hex": "76a914e465368ce756e2e30479e7da5bdf9388ce39c40988ac", "addresses": ["1MpeK9TxDZ8U12WwRNvEAVY59xNdwngdh7"], "asm": "OP_DUP OP_HASH160 e465368ce756e2e30479e7da5bdf9388ce39c409 OP_EQUALVERIFY OP_CHECKSIG", "type": "pubkeyhash"}, "value": 0.03951, "n": 0}], "hex": "01000000000101f8992a9fe983823834762a4775e6eada1c18dc60460b75b7a7967405d7dab3650000000017160014f2d71169b8d8bb74f9199337892fa59a87c8fc47ffffff000198493c00000000001976a914e465368ce756e2e30479e7da5bdf9388ce39c40988ac02483045022100d8cabc04db1d8ecfbadf167f08fd852a9785464797542f7e5c8f2b9f42e5312202202187a754a711771457e3a1de54233840c5722dace5cc605b230f06035029f2bf012103349863e5d82d7869a6018cb6b627d587ed6f18ba5db2f73416cc7b097e3e2dec00000000", "vin": [{"txinwitness": ["3045022100d8cabc04db1d8ecfbadf167f08fd852a9785464797542f7e5c8f2b9f42e5312202202187a754a711771457e3a1de54233840c5722dace5cc605b230f06035029f2bf01", "03349863e5d82d7869a6018cb6b627d587ed6f18ba5db2f73416cc7b097e3e2dec"], "sequence": 16777215, "scriptSig": {"hex": "160014f2d71169b8d8bb74f9199337892fa59a87c8fc47", "asm": "0014f2d71169b8d8bb74f9199337892fa59a87c8fc47"}, "vout": 0, "txid": "65b3dad7057496a7b7750b4660dc181cdaeae675472a7634388283e99f2a99f8"}], "txid": "e4f5d101549c82f75e8ba526225b5772d51acb649962afac9b599eda7853a000", "blocktime": 1537873891, "version": 1, "confirmations": 11475, "time": 1537873891, "locktime": 0, "vsize": 136, "size": 218}