{"hash": "d8d96dd0ca1ab84cab139d6bab315ca3a940f05c71454b722317dabd649d6821", "blockhash": "0000000000000000000e13cef7c366c0283d82e591d1acd082e914b08063cdf1", "vout": [{"scriptPubKey": {"reqSigs": 1, "hex": "76a91418452025df8f8f417b7a6dce56d1e6db4a4a773f88ac", "addresses": ["13DL2Xvy2kr5nWWqG4t19RdgZoD4isMdQh"], "asm": "OP_DUP OP_HASH160 18452025df8f8f417b7a6dce56d1e6db4a4a773f OP_EQUALVERIFY OP_CHECKSIG", "type": "pubkeyhash"}, "value": 0.01494792, "n": 0}, {"scriptPubKey": {"reqSigs": 1, "hex": "00141a0d51e238fcf09ee8a03f7897bc102aad84fc20", "addresses": ["bc1qrgx4rc3clncfa69q8auf00qs92kcflpqtnneh5"], "asm": "0 1a0d51e238fcf09ee8a03f7897bc102aad84fc20", "type": "witness_v0_keyhash"}, "value": 0.00053208, "n": 1}], "hex": "01000000000101ca77b33782e4551d150d3d4477c45f54ece042b9aa6dcc5b0ac9dc310fd5422f0100000000ffffffff0208cf1600000000001976a91418452025df8f8f417b7a6dce56d1e6db4a4a773f88acd8cf0000000000001600141a0d51e238fcf09ee8a03f7897bc102aad84fc2002473044022058b5076ab1d188daf97d91285bc02e88aa63577c635f61e2d6531ee356f65566022049568e7147e0bc696242a7e91dcce73976d9e468453fb54311a13917f01db94f012103c94b8b46438992fecc9f5b6e6291d3018bbf6661d515944ec6f503a3b11e6c8a00000000", "vin": [{"txinwitness": ["3044022058b5076ab1d188daf97d91285bc02e88aa63577c635f61e2d6531ee356f65566022049568e7147e0bc696242a7e91dcce73976d9e468453fb54311a13917f01db94f01", "03c94b8b46438992fecc9f5b6e6291d3018bbf6661d515944ec6f503a3b11e6c8a"], "sequence": 4294967295, "scriptSig": {"hex": "", "asm": ""}, "vout": 1, "txid": "2f42d50f31dcc90a5bcc6daab942e0ec545fc477443d0d151d55e48237b377ca"}], "txid": "e4f8f772a76d673e09a609919b2ed130be5308495bf8dd1edc5251bedc2ad2e5", "blocktime": 1537871767, "version": 1, "confirmations": 11495, "time": 1537871767, "locktime": 0, "vsize": 144, "size": 225}