{"hash": "3f810e8b85bbd4989bd8c71bd8e44a095f964e2896e759a59b251bab070993a0", "blockhash": "00000000000000000017f5eb5941039fbcee6240d03bc1f2f8e35350df66a1d8", "vout": [{"scriptPubKey": {"reqSigs": 1, "hex": "a914b6ce0eedaffbbd0db042969f2dc020f555271ad587", "addresses": ["3JMbke3kjTWTDH8MDMPfKGyNzs5tQ95AB9"], "asm": "OP_HASH160 b6ce0eedaffbbd0db042969f2dc020f555271ad5 OP_EQUAL", "type": "scripthash"}, "value": 0.05399779, "n": 0}], "hex": "0100000000010165b4970947361d9b508b839a06b30dab7b07bbd5e3c161fc714f2b6e64654dff00000000171600148c6370bc0d23985a3076d7fdaa7cbdffb40f1a410000000001e36452000000000017a914b6ce0eedaffbbd0db042969f2dc020f555271ad58702483045022100d2afdb1e2badffc0d5b363dd104c719ae607d474fab3bd102fa434e2ca25ed6b0220469dad97172c523326baa85d58ffd9013d51bc9e6c714209a1d23c1b2e607ee90121027e19e57b17ed641b80cb009f417d8ab0267df8425ef8b90c6d55bd96c4b2b7c200000000", "vin": [{"txinwitness": ["3045022100d2afdb1e2badffc0d5b363dd104c719ae607d474fab3bd102fa434e2ca25ed6b0220469dad97172c523326baa85d58ffd9013d51bc9e6c714209a1d23c1b2e607ee901", "027e19e57b17ed641b80cb009f417d8ab0267df8425ef8b90c6d55bd96c4b2b7c2"], "sequence": 0, "scriptSig": {"hex": "1600148c6370bc0d23985a3076d7fdaa7cbdffb40f1a41", "asm": "00148c6370bc0d23985a3076d7fdaa7cbdffb40f1a41"}, "vout": 0, "txid": "ff4d65646e2b4f71fc61c1e3d5bb077bab0db3069a838b509b1d36470997b465"}], "txid": "e5015af68523c075f60de7d73d9ff7d6479a2d0aaf1657859506eefd0047f44b", "blocktime": 1537874412, "version": 1, "confirmations": 11467, "time": 1537874412, "locktime": 0, "vsize": 134, "size": 216}