{"hash": "1aa95321563eca81a38476a40a16d6e315ab35e93e3d5ec43d2aed81e9a67657", "blockhash": "0000000000000000001f0ddff1eddb255c1121bcd4da4f1bc9a0da00cae72433", "vout": [{"scriptPubKey": {"reqSigs": 1, "hex": "a9149516d36202375f1c3b3257e5557cb0cc0d366ae187", "addresses": ["3FHKx5suj8dbrifSCKCgJUsX5QrCCrM9Mi"], "asm": "OP_HASH160 9516d36202375f1c3b3257e5557cb0cc0d366ae1 OP_EQUAL", "type": "scripthash"}, "value": 0.01002103, "n": 0}, {"scriptPubKey": {"reqSigs": 1, "hex": "a914b4a17ad47ab5c0640b4e875812953a587debc5e587", "addresses": ["3JA6ztPJB3cj8fzd1Qzy2e9Te3so8cnpFd"], "asm": "OP_HASH160 b4a17ad47ab5c0640b4e875812953a587debc5e5 OP_EQUAL", "type": "scripthash"}, "value": 0.008093, "n": 1}], "hex": "02000000000102553962deda607319754dd46b10fd2d4f38c1089a5527c09a79215cee9d4bb1f40000000017160014fbc40eb9829d11c74d94714842add92bdcafc546feffffffc1aa227167f4f267069cf0942801975a6bcd0c3c52936ee63cbe74cccd7890970b00000017160014839c5b9cfc02ef4947aa586ee02dfa35f4dd7322feffffff02774a0f000000000017a9149516d36202375f1c3b3257e5557cb0cc0d366ae18754590c000000000017a914b4a17ad47ab5c0640b4e875812953a587debc5e587024830450221009d394ac6f3f923f17e7c22e37cd7f883853fcad3aac40397db1c507341d0cb84022048e59ba078312303d8b10ae737e98c88ca540bc446dd5decdb0a5dd764b6e1b90121030be894a03cc362b79c23b90211f1bb18c017360e09057b74e88c9f64fa1ac1ef0248304502210087a1de80bfe7cfa17bb0f484755e8b080469979225f49402b1ab67a1f79d2c00022028df9d3b04bb96102c350ff20075c4abfcd5eb5ddd05e36a602632d68370e607012102e79eff2ec33616c5042d93ca3b01209e6538bc32ef4db29d1cea455a06f369a80f490800", "vin": [{"txinwitness": ["30450221009d394ac6f3f923f17e7c22e37cd7f883853fcad3aac40397db1c507341d0cb84022048e59ba078312303d8b10ae737e98c88ca540bc446dd5decdb0a5dd764b6e1b901", "030be894a03cc362b79c23b90211f1bb18c017360e09057b74e88c9f64fa1ac1ef"], "sequence": 4294967294, "scriptSig": {"hex": "160014fbc40eb9829d11c74d94714842add92bdcafc546", "asm": "0014fbc40eb9829d11c74d94714842add92bdcafc546"}, "vout": 0, "txid": "f4b14b9dee5c21799ac027559a08c1384f2dfd106bd44d75197360dade623955"}, {"txinwitness": ["304502210087a1de80bfe7cfa17bb0f484755e8b080469979225f49402b1ab67a1f79d2c00022028df9d3b04bb96102c350ff20075c4abfcd5eb5ddd05e36a602632d68370e60701", "02e79eff2ec33616c5042d93ca3b01209e6538bc32ef4db29d1cea455a06f369a8"], "sequence": 4294967294, "scriptSig": {"hex": "160014839c5b9cfc02ef4947aa586ee02dfa35f4dd7322", "asm": "0014839c5b9cfc02ef4947aa586ee02dfa35f4dd7322"}, "vout": 11, "txid": "979078cdcc74be3ce66e93523c0ccd6b5a97012894f09c0667f2f4677122aac1"}], "txid": "e503c0035e9bd8312c098b664623c4b2e7c29ea51bc4f4d3ad410a764311a59f", "blocktime": 1537872018, "version": 2, "confirmations": 11489, "time": 1537872018, "locktime": 542991, "vsize": 257, "size": 420}