{"hash": "e50470afa9d098a1acf2a69278e0eff98ed999a47f508aab13c6f30c963d509b", "blockhash": "0000000000000000001f76057863aec43deb6fa401d9628bb513d65a8098bfab", "vout": [{"scriptPubKey": {"reqSigs": 1, "hex": "a91428caa4b9819dbce9b29aa1ce8961664d39cfd24887", "addresses": ["35Qhi8ZHUoTcCDQkpqwzoCRfwLbYs12q7V"], "asm": "OP_HASH160 28caa4b9819dbce9b29aa1ce8961664d39cfd248 OP_EQUAL", "type": "scripthash"}, "value": 0.00821, "n": 0}, {"scriptPubKey": {"reqSigs": 1, "hex": "76a9147edaa37e99d971310192a1b773858be65fd8e9ba88ac", "addresses": ["1CZk4T87zXPAPoBnd7jWqEtH2AL2DBHhHJ"], "asm": "OP_DUP OP_HASH160 7edaa37e99d971310192a1b773858be65fd8e9ba OP_EQUALVERIFY OP_CHECKSIG", "type": "pubkeyhash"}, "value": 0.02272893, "n": 1}], "hex": "0100000001c6d48d390e37f6dd743a9f7fe79b7c8387dce6fe54587378514101e126057599010000006b483045022100f74aaf2982bd1e65c568015c12906a20c60049ccf5532d1dcbf7966c36a8765402206dc028394e7ac72355a92a4658333c9640333d12c4cb2ea5fe4dd2ababcd1c94012103108df236c87d1e77b0675fc6ffc4074bfcd925f1ef10784b54cbf00dbc667862ffffffff0208870c000000000017a91428caa4b9819dbce9b29aa1ce8961664d39cfd248877dae2200000000001976a9147edaa37e99d971310192a1b773858be65fd8e9ba88ac00000000", "vin": [{"sequence": 4294967295, "scriptSig": {"hex": "483045022100f74aaf2982bd1e65c568015c12906a20c60049ccf5532d1dcbf7966c36a8765402206dc028394e7ac72355a92a4658333c9640333d12c4cb2ea5fe4dd2ababcd1c94012103108df236c87d1e77b0675fc6ffc4074bfcd925f1ef10784b54cbf00dbc667862", "asm": "3045022100f74aaf2982bd1e65c568015c12906a20c60049ccf5532d1dcbf7966c36a8765402206dc028394e7ac72355a92a4658333c9640333d12c4cb2ea5fe4dd2ababcd1c94[ALL] 03108df236c87d1e77b0675fc6ffc4074bfcd925f1ef10784b54cbf00dbc667862"}, "vout": 1, "txid": "99750526e101415178735854fee6dc87837c9be77f9f3a74ddf6370e398dd4c6"}], "txid": "e50470afa9d098a1acf2a69278e0eff98ed999a47f508aab13c6f30c963d509b", "blocktime": 1537873891, "version": 1, "confirmations": 11475, "time": 1537873891, "locktime": 0, "vsize": 224, "size": 224}