{"hash": "44291b2727d167b6175741bc1c41bc7ed2fe53eeedd5dc48d437779c9bebd5aa", "blockhash": "0000000000000000000e13cef7c366c0283d82e591d1acd082e914b08063cdf1", "vout": [{"scriptPubKey": {"reqSigs": 1, "hex": "a9146446a5057619ec7e6a904ff019e8e8220035a65c87", "addresses": ["3AqE8CbJTg5xT2VBke4egymna9eDcu41A8"], "asm": "OP_HASH160 6446a5057619ec7e6a904ff019e8e8220035a65c OP_EQUAL", "type": "scripthash"}, "value": 0.00187324, "n": 0}, {"scriptPubKey": {"reqSigs": 1, "hex": "a91481cd8404067042d697bec03c4ccb9b05f220e2e187", "addresses": ["3DXMHmctfU8cygKzpJi3ibVSNxjEMgdLgv"], "asm": "OP_HASH160 81cd8404067042d697bec03c4ccb9b05f220e2e1 OP_EQUAL", "type": "scripthash"}, "value": 0.02488907, "n": 1}], "hex": "01000000000101b9df79f50ede1528b24f90f307b7be0cf25104f9650fabf68011ab465a6f41ff01000000232200204f9f19ca771e95c2f84460e8bab083bc9d1cdca9174797698430aaa8935139d8ffffffff02bcdb02000000000017a9146446a5057619ec7e6a904ff019e8e8220035a65c874bfa25000000000017a91481cd8404067042d697bec03c4ccb9b05f220e2e1870400483045022100968122d892b7eb08edba26d0ad06293f49022ed95257531689e44bfe3c3e643d022019edd67c8ee8273bfb382c82fe03e58622f8d61d8d6cd9b3000170cb6bb4d16601483045022100ecf0574c697c26939113b41d4e65ef8279b5f64ec4cc3cbcf8475f29ccbb6df90220703a32b79ee92a7dc954a800da18095049694be7bc88c8af89d0ef327170fc8d01695221025b930b6aecf169d2be46b40b7e17ed13da945f3139def0d65b2983f77f16c19021030962db6cbba68a21c977d42b61c5223dac80d189662c1d5bae895bd9deefd9072102667513172bcd7d2848dd080bb18ae031c7ebd6e0ac215cf8e6d7c51e84f8075153ae11490800", "vin": [{"txinwitness": ["", "3045022100968122d892b7eb08edba26d0ad06293f49022ed95257531689e44bfe3c3e643d022019edd67c8ee8273bfb382c82fe03e58622f8d61d8d6cd9b3000170cb6bb4d16601", "3045022100ecf0574c697c26939113b41d4e65ef8279b5f64ec4cc3cbcf8475f29ccbb6df90220703a32b79ee92a7dc954a800da18095049694be7bc88c8af89d0ef327170fc8d01", "5221025b930b6aecf169d2be46b40b7e17ed13da945f3139def0d65b2983f77f16c19021030962db6cbba68a21c977d42b61c5223dac80d189662c1d5bae895bd9deefd9072102667513172bcd7d2848dd080bb18ae031c7ebd6e0ac215cf8e6d7c51e84f8075153ae"], "sequence": 4294967295, "scriptSig": {"hex": "2200204f9f19ca771e95c2f84460e8bab083bc9d1cdca9174797698430aaa8935139d8", "asm": "00204f9f19ca771e95c2f84460e8bab083bc9d1cdca9174797698430aaa8935139d8"}, "vout": 1, "txid": "ff416f5a46ab1180f6ab0f65f90451f20cbeb707f3904fb22815de0ef579dfb9"}], "txid": "e5095a0ce1a879af2d615a21220e069076ff7431dc05ff9e3437af5b96cbe320", "blocktime": 1537871767, "version": 1, "confirmations": 11490, "time": 1537871767, "locktime": 542993, "vsize": 214, "size": 406}