{"hash": "e5093877c230287520b2f1ca3dfdbbe84543e028fc3a82588549a21add68c879", "blockhash": "0000000000000000000baef3f32e3676a92c3b2e5da21b426e4f302fc371ce76", "vout": [{"scriptPubKey": {"reqSigs": 1, "hex": "76a914a25dec4d0011064ef106a983c39c7a540699f22088ac", "addresses": ["1FoWyxwPXuj4C6abqwhjDWdz6D4PZgYRjA"], "asm": "OP_DUP OP_HASH160 a25dec4d0011064ef106a983c39c7a540699f220 OP_EQUALVERIFY OP_CHECKSIG", "type": "pubkeyhash"}, "value": 0.01995188, "n": 0}, {"scriptPubKey": {"type": "nulldata", "hex": "6a146f6d6e69000000000000001f00000da475abf000", "asm": "OP_RETURN 6f6d6e69000000000000001f00000da475abf000"}, "value": 0.0, "n": 1}, {"scriptPubKey": {"reqSigs": 1, "hex": "76a914c4e254d606cd1c192267cafa12d179b8eb2f774088ac", "addresses": ["1Jx2aP1bBWMbXVbmxxa3QFs5MKRCipP9kJ"], "asm": "OP_DUP OP_HASH160 c4e254d606cd1c192267cafa12d179b8eb2f7740 OP_EQUALVERIFY OP_CHECKSIG", "type": "pubkeyhash"}, "value": 5.46e-06, "n": 2}], "hex": "0100000001a44813c76173a4fe9689194c29809e35be05f1741d9b5e1e9e8bd44070ac1fea970000006b48304502210080af7131fd1f76515095a9743e4ef30baf8b1c9974cb73a851a868821da91a4202202564613c07efc9e43038ba10c3f80f530aff33fe94a56447f28924eda1de768f012103da5bac7b36d5aa38f531c6b9601e21bb598a4b6716ebed38b009a55dabde9440feffffff03b4711e00000000001976a914a25dec4d0011064ef106a983c39c7a540699f22088ac0000000000000000166a146f6d6e69000000000000001f00000da475abf00022020000000000001976a914c4e254d606cd1c192267cafa12d179b8eb2f774088ac17490800", "vin": [{"sequence": 4294967294, "scriptSig": {"hex": "48304502210080af7131fd1f76515095a9743e4ef30baf8b1c9974cb73a851a868821da91a4202202564613c07efc9e43038ba10c3f80f530aff33fe94a56447f28924eda1de768f012103da5bac7b36d5aa38f531c6b9601e21bb598a4b6716ebed38b009a55dabde9440", "asm": "304502210080af7131fd1f76515095a9743e4ef30baf8b1c9974cb73a851a868821da91a4202202564613c07efc9e43038ba10c3f80f530aff33fe94a56447f28924eda1de768f[ALL] 03da5bac7b36d5aa38f531c6b9601e21bb598a4b6716ebed38b009a55dabde9440"}, "vout": 151, "txid": "ea1fac7040d48b9e1e5e9b1d74f105be359e80294c198996fea47361c71348a4"}], "txid": "e5093877c230287520b2f1ca3dfdbbe84543e028fc3a82588549a21add68c879", "blocktime": 1537876114, "version": 1, "confirmations": 11459, "time": 1537876114, "locktime": 542999, "vsize": 257, "size": 257}