{"hash": "e512e96c0b9dab9c73dfb6f4c9559e909c4b9e6e7f02488d9973134641e5221d", "blockhash": "0000000000000000000dcc0f55137456b1a82d3642486a52398922ac4d620174", "vout": [{"scriptPubKey": {"reqSigs": 1, "hex": "76a9144d6510682907e36c8c2a908d7f79e580303a994588ac", "addresses": ["184E6pxwvrqMBQDNC1X3RG62Qjnawme6v1"], "asm": "OP_DUP OP_HASH160 4d6510682907e36c8c2a908d7f79e580303a9945 OP_EQUALVERIFY OP_CHECKSIG", "type": "pubkeyhash"}, "value": 0.00016947, "n": 0}, {"scriptPubKey": {"reqSigs": 1, "hex": "76a9144ced97c967e8faa7d20d12b77baf06c50299910f88ac", "addresses": ["181kyppFdRT4wS4Kpnm62jwEXPgnedEdLA"], "asm": "OP_DUP OP_HASH160 4ced97c967e8faa7d20d12b77baf06c50299910f OP_EQUALVERIFY OP_CHECKSIG", "type": "pubkeyhash"}, "value": 0.0099, "n": 1}], "hex": "0100000002dbf7fb6d03d39cffc6df03c8b8df5cdbdbd11586f931174def2eb1dffb51a2db000000006b483045022100ea691971426421b4e9d2f667ed0b7c389c6ac836644cc1ee81f2c9ef29509979022044e8afad67dc6136af4f1c60deee3bcd54d6ce64424772afac7ba567c2e65653012102ee2837f708711de57102c92c48ffc1a9a633f3226000e9a4ae320381f9aabd91ffffffff77e9917abc09f274f260063a265a6e85e2af9f62f52f9014a2429c581e3301dc010000006a47304402200368584a3558c47f7ef961feaacdb27ca39d0b43eb4840237d4102c5d67017f2022003ba2cf810dfefd45ce0f558962f9702c32dc742b6c0965736a635a12741ae09012102ee2837f708711de57102c92c48ffc1a9a633f3226000e9a4ae320381f9aabd91ffffffff0233420000000000001976a9144d6510682907e36c8c2a908d7f79e580303a994588ac301b0f00000000001976a9144ced97c967e8faa7d20d12b77baf06c50299910f88ac00000000", "vin": [{"sequence": 4294967295, "scriptSig": {"hex": "483045022100ea691971426421b4e9d2f667ed0b7c389c6ac836644cc1ee81f2c9ef29509979022044e8afad67dc6136af4f1c60deee3bcd54d6ce64424772afac7ba567c2e65653012102ee2837f708711de57102c92c48ffc1a9a633f3226000e9a4ae320381f9aabd91", "asm": "3045022100ea691971426421b4e9d2f667ed0b7c389c6ac836644cc1ee81f2c9ef29509979022044e8afad67dc6136af4f1c60deee3bcd54d6ce64424772afac7ba567c2e65653[ALL] 02ee2837f708711de57102c92c48ffc1a9a633f3226000e9a4ae320381f9aabd91"}, "vout": 0, "txid": "dba251fbdfb12eef4d1731f98615d1dbdb5cdfb8c803dfc6ff9cd3036dfbf7db"}, {"sequence": 4294967295, "scriptSig": {"hex": "47304402200368584a3558c47f7ef961feaacdb27ca39d0b43eb4840237d4102c5d67017f2022003ba2cf810dfefd45ce0f558962f9702c32dc742b6c0965736a635a12741ae09012102ee2837f708711de57102c92c48ffc1a9a633f3226000e9a4ae320381f9aabd91", "asm": "304402200368584a3558c47f7ef961feaacdb27ca39d0b43eb4840237d4102c5d67017f2022003ba2cf810dfefd45ce0f558962f9702c32dc742b6c0965736a635a12741ae09[ALL] 02ee2837f708711de57102c92c48ffc1a9a633f3226000e9a4ae320381f9aabd91"}, "vout": 1, "txid": "dc01331e589c42a214902ff5629fafe2856e5a263a0660f274f209bc7a91e977"}], "txid": "e512e96c0b9dab9c73dfb6f4c9559e909c4b9e6e7f02488d9973134641e5221d", "blocktime": 1537870268, "version": 1, "confirmations": 11516, "time": 1537870268, "locktime": 0, "vsize": 373, "size": 373}