{"hash": "27551c7e2e4cd993a4de9f5de41e1821233df8fd3c7aa9483968e26137e87abb", "blockhash": "0000000000000000001f76057863aec43deb6fa401d9628bb513d65a8098bfab", "vout": [{"scriptPubKey": {"reqSigs": 1, "hex": "76a91407ae00b55c918e7f9f22ee995f86fdbabf48a47488ac", "addresses": ["1hcBGVKdcQ6MvsbQKLBUkBortRgwpctC7"], "asm": "OP_DUP OP_HASH160 07ae00b55c918e7f9f22ee995f86fdbabf48a474 OP_EQUALVERIFY OP_CHECKSIG", "type": "pubkeyhash"}, "value": 0.1575, "n": 0}, {"scriptPubKey": {"reqSigs": 1, "hex": "a9144777a83b2fbd2d934eb939e5ae845f6c0d233a2f87", "addresses": ["38CuF65rDJCNhMYDvTx1ypDxroAer8J1bA"], "asm": "OP_HASH160 4777a83b2fbd2d934eb939e5ae845f6c0d233a2f OP_EQUAL", "type": "scripthash"}, "value": 4.60339593, "n": 1}], "hex": "02000000000101800c78b391b2722fb0ee21206b7afc31a14d68c86598aad66d45ae7f1da978bd00000000171600140455b542db92c8d9e13a21faab2a86843249d536feffffff027053f000000000001976a91407ae00b55c918e7f9f22ee995f86fdbabf48a47488ac8939701b0000000017a9144777a83b2fbd2d934eb939e5ae845f6c0d233a2f8702473044022035a6f5c49e6c2f17331d2603864904e44b63c54e31d1cd6bc80790b02c853e4402207f2ff739fdf67692e6645e5d6db7d0092533ab9db5df82531fe399dd395d7b7801210212eb64ae5c137f77581c3a0a80f21dcd60c582dc2cecba1d5090a8df16c5207d14490800", "vin": [{"txinwitness": ["3044022035a6f5c49e6c2f17331d2603864904e44b63c54e31d1cd6bc80790b02c853e4402207f2ff739fdf67692e6645e5d6db7d0092533ab9db5df82531fe399dd395d7b7801", "0212eb64ae5c137f77581c3a0a80f21dcd60c582dc2cecba1d5090a8df16c5207d"], "sequence": 4294967294, "scriptSig": {"hex": "1600140455b542db92c8d9e13a21faab2a86843249d536", "asm": "00140455b542db92c8d9e13a21faab2a86843249d536"}, "vout": 0, "txid": "bd78a91d7fae456dd6aa9865c8684da131fc7a6b2021eeb02f72b291b3780c80"}], "txid": "e5143f688aacc04ab49f5a0a8b8d677c49339cd15fecbc22a3c6d81df0e72fe0", "blocktime": 1537873891, "version": 2, "confirmations": 11478, "time": 1537873891, "locktime": 542996, "vsize": 168, "size": 249}