{"hash": "91c7d52cce6cb5cdcc66e06a947338719141178cc050de120464cd2df39d2e48", "blockhash": "0000000000000000000dcc0f55137456b1a82d3642486a52398922ac4d620174", "vout": [{"scriptPubKey": {"reqSigs": 1, "hex": "76a914092f28ee1ac8023ef132939893dcaf64e2e9c69688ac", "addresses": ["1qZaTFZByiQqYNjgBa51cY1tLtfSjz6kf"], "asm": "OP_DUP OP_HASH160 092f28ee1ac8023ef132939893dcaf64e2e9c696 OP_EQUALVERIFY OP_CHECKSIG", "type": "pubkeyhash"}, "value": 0.0028, "n": 0}, {"scriptPubKey": {"reqSigs": 1, "hex": "76a91493a2ac79853dbbc17f3879d10cca6b9802d9106d88ac", "addresses": ["1ETdCy97zTFLNDurdx7T1okn1okPpRa4Eq"], "asm": "OP_DUP OP_HASH160 93a2ac79853dbbc17f3879d10cca6b9802d9106d OP_EQUALVERIFY OP_CHECKSIG", "type": "pubkeyhash"}, "value": 0.0397, "n": 1}, {"scriptPubKey": {"reqSigs": 1, "hex": "76a914fbafe607731f678c1fa922c5311d78a7a91836a988ac", "addresses": ["1PwoKo7V2fvSkRUu5aor6KeX5pPUwH4Txk"], "asm": "OP_DUP OP_HASH160 fbafe607731f678c1fa922c5311d78a7a91836a9 OP_EQUALVERIFY OP_CHECKSIG", "type": "pubkeyhash"}, "value": 0.0397, "n": 2}, {"scriptPubKey": {"reqSigs": 1, "hex": "a914a923586c4a285476d1d346e97cd7e829d88aed4b87", "addresses": ["3H7LTodHHfCAGQCotxSpYQMDjmrQWqCWjL"], "asm": "OP_HASH160 a923586c4a285476d1d346e97cd7e829d88aed4b OP_EQUAL", "type": "scripthash"}, "value": 0.40632898, "n": 3}], "hex": "01000000000102ba76d1b24d7e4a6d4aa8ef89742ac70f1a7a6af69a99dde58ce4bac04963ad20010000006a473044022032757df5230676a94f3fc867073a5239d42fc88616de8d1864309531ec8d611b02200902f19b48856cad488a5ef3c9a88d98d702742cc4dc5422f38ae2ddf635e6b10121039223abd642955374376cf56ddb2bcd01eeeaeec6b14b65ef98fd3d2e50497133ffffffff684903fe666b68ba8cb8149e98cdbe72e658381c77de646e2a4eac3fb11861f600000000171600143a11268dba792052749451f41b8be2b2a3b8ac37ffffffff04c0450400000000001976a914092f28ee1ac8023ef132939893dcaf64e2e9c69688acd0933c00000000001976a91493a2ac79853dbbc17f3879d10cca6b9802d9106d88acd0933c00000000001976a914fbafe607731f678c1fa922c5311d78a7a91836a988ac42026c020000000017a914a923586c4a285476d1d346e97cd7e829d88aed4b87000247304402204ed58d63c9d30615f3c08d27efd50a59f50fe451f13aef9c192d77f1f476a69a02204ba8785abe594924048833103c7405e373998358e732b6753f9e6a925f11ba7b0121028064c432358b9e4577f3d689fdc7cddd4dc7a3de11f2c78bff35b65acce5ad4800000000", "vin": [{"sequence": 4294967295, "scriptSig": {"hex": "473044022032757df5230676a94f3fc867073a5239d42fc88616de8d1864309531ec8d611b02200902f19b48856cad488a5ef3c9a88d98d702742cc4dc5422f38ae2ddf635e6b10121039223abd642955374376cf56ddb2bcd01eeeaeec6b14b65ef98fd3d2e50497133", "asm": "3044022032757df5230676a94f3fc867073a5239d42fc88616de8d1864309531ec8d611b02200902f19b48856cad488a5ef3c9a88d98d702742cc4dc5422f38ae2ddf635e6b1[ALL] 039223abd642955374376cf56ddb2bcd01eeeaeec6b14b65ef98fd3d2e50497133"}, "vout": 1, "txid": "20ad6349c0bae48ce5dd999af66a7a1a0fc72a7489efa84a6d4a7e4db2d176ba"}, {"txinwitness": ["304402204ed58d63c9d30615f3c08d27efd50a59f50fe451f13aef9c192d77f1f476a69a02204ba8785abe594924048833103c7405e373998358e732b6753f9e6a925f11ba7b01", "028064c432358b9e4577f3d689fdc7cddd4dc7a3de11f2c78bff35b65acce5ad48"], "sequence": 4294967295, "scriptSig": {"hex": "1600143a11268dba792052749451f41b8be2b2a3b8ac37", "asm": "00143a11268dba792052749451f41b8be2b2a3b8ac37"}, "vout": 0, "txid": "f66118b13fac4e2a6e64de771c3858e672becd989e14b88cba686b66fe034968"}], "txid": "e51a78d107187451d013b8e633e7d1a01eb398d233dcb118705edbf774be49fd", "blocktime": 1537870268, "version": 1, "confirmations": 11517, "time": 1537870268, "locktime": 0, "vsize": 383, "size": 465}