{"hash": "e524b8bc49ca382692841f750afd21e865df286aef11cfe330672b55bc51584f", "blockhash": "0000000000000000000e13cef7c366c0283d82e591d1acd082e914b08063cdf1", "vout": [{"scriptPubKey": {"type": "nulldata", "hex": "6a4c500000778e0001621ad1827c79e0dc044e20bae3ef3236678a625097bcbefa6b8351586b4e43474b8acf76eae3b5d2c1a6d719ddd75baa0c7106139fa1dc0af1d51d100759d4ba30d2c37bb011d97e02cf", "asm": "OP_RETURN 0000778e0001621ad1827c79e0dc044e20bae3ef3236678a625097bcbefa6b8351586b4e43474b8acf76eae3b5d2c1a6d719ddd75baa0c7106139fa1dc0af1d51d100759d4ba30d2c37bb011d97e02cf"}, "value": 0.0, "n": 0}, {"scriptPubKey": {"reqSigs": 1, "hex": "76a91481e6fc3af248236d66fd15756986d93b8bfc842488ac", "addresses": ["1CqrstHxwHXsNDGjAxCQg7dYS5hf6gyyhb"], "asm": "OP_DUP OP_HASH160 81e6fc3af248236d66fd15756986d93b8bfc8424 OP_EQUALVERIFY OP_CHECKSIG", "type": "pubkeyhash"}, "value": 0.006016, "n": 1}], "hex": "01000000011ccef0b4c2740fc74aa856ad9f5b07970aa955ddfcd1978fbb066e0b57553996000000006a4730440220357ba45e1912f88371781a47841cab45d292637e98b9ff0a6b5b77c6cf3c4bf1022075c61cbe3f01d1b918dc68068bccf63f891d42559950c894dc10d907dc953d69012103289b86f3986f61facb5aad4d4d6b58494ca0309f6120742d54244a9437cef954ffffffff020000000000000000536a4c500000778e0001621ad1827c79e0dc044e20bae3ef3236678a625097bcbefa6b8351586b4e43474b8acf76eae3b5d2c1a6d719ddd75baa0c7106139fa1dc0af1d51d100759d4ba30d2c37bb011d97e02cf002e0900000000001976a91481e6fc3af248236d66fd15756986d93b8bfc842488ac00000000", "vin": [{"sequence": 4294967295, "scriptSig": {"hex": "4730440220357ba45e1912f88371781a47841cab45d292637e98b9ff0a6b5b77c6cf3c4bf1022075c61cbe3f01d1b918dc68068bccf63f891d42559950c894dc10d907dc953d69012103289b86f3986f61facb5aad4d4d6b58494ca0309f6120742d54244a9437cef954", "asm": "30440220357ba45e1912f88371781a47841cab45d292637e98b9ff0a6b5b77c6cf3c4bf1022075c61cbe3f01d1b918dc68068bccf63f891d42559950c894dc10d907dc953d69[ALL] 03289b86f3986f61facb5aad4d4d6b58494ca0309f6120742d54244a9437cef954"}, "vout": 0, "txid": "963955570b6e06bb8f97d1fcdd55a90a97075b9fad56a84ac70f74c2b4f0ce1c"}], "txid": "e524b8bc49ca382692841f750afd21e865df286aef11cfe330672b55bc51584f", "blocktime": 1537871767, "version": 1, "confirmations": 11493, "time": 1537871767, "locktime": 0, "vsize": 283, "size": 283}