{"hash": "e525a0c388fed2ee605857cf95f8aab504eb40d38d6ad38e780dbbf2455176a5", "blockhash": "0000000000000000000e13cef7c366c0283d82e591d1acd082e914b08063cdf1", "vout": [{"scriptPubKey": {"reqSigs": 1, "hex": "001470ded0479338514a67fcdda8ab85297a2d8e2338", "addresses": ["bc1qwr0dq3un8pg55elumk52hpff0gkcugecwf3a7u"], "asm": "0 70ded0479338514a67fcdda8ab85297a2d8e2338", "type": "witness_v0_keyhash"}, "value": 7.114e-05, "n": 0}, {"scriptPubKey": {"reqSigs": 1, "hex": "a91423603a7e966faa9ac1f1abe18a85e58b68bd383c87", "addresses": ["34v4rL94zwU7RgYZ6m7Agg3KEZpbof2HeK"], "asm": "OP_HASH160 23603a7e966faa9ac1f1abe18a85e58b68bd383c OP_EQUAL", "type": "scripthash"}, "value": 0.00483396, "n": 1}], "hex": "0100000001aba2133e49923476b763a6de65fc712029d6e6e644ab14c232da4bdd02390520000000008a47304402207fc97594982dcb088967c5e87a2b7720399de546fb81e068a5df9eb24e7b552d02203607d37bdadaa8ba4f8b2a9a5744e67827088fb2fe63412adc71e33593d12c44014104a8fd83e7d7bb44a5b1ac2a092dbc37bc3d6151ebcfb8e0f71739e1bb222891ecc5d7e8d86c6bbedd085370a6248cc8b4fdf380993b8fc892dd81a7938ef30a59ffffffff02ca1b00000000000016001470ded0479338514a67fcdda8ab85297a2d8e2338446007000000000017a91423603a7e966faa9ac1f1abe18a85e58b68bd383c8700000000", "vin": [{"sequence": 4294967295, "scriptSig": {"hex": "47304402207fc97594982dcb088967c5e87a2b7720399de546fb81e068a5df9eb24e7b552d02203607d37bdadaa8ba4f8b2a9a5744e67827088fb2fe63412adc71e33593d12c44014104a8fd83e7d7bb44a5b1ac2a092dbc37bc3d6151ebcfb8e0f71739e1bb222891ecc5d7e8d86c6bbedd085370a6248cc8b4fdf380993b8fc892dd81a7938ef30a59", "asm": "304402207fc97594982dcb088967c5e87a2b7720399de546fb81e068a5df9eb24e7b552d02203607d37bdadaa8ba4f8b2a9a5744e67827088fb2fe63412adc71e33593d12c44[ALL] 04a8fd83e7d7bb44a5b1ac2a092dbc37bc3d6151ebcfb8e0f71739e1bb222891ecc5d7e8d86c6bbedd085370a6248cc8b4fdf380993b8fc892dd81a7938ef30a59"}, "vout": 0, "txid": "20053902dd4bda32c214ab44e6e6d6292071fc65dea663b7763492493e13a2ab"}], "txid": "e525a0c388fed2ee605857cf95f8aab504eb40d38d6ad38e780dbbf2455176a5", "blocktime": 1537871767, "version": 1, "confirmations": 11495, "time": 1537871767, "locktime": 0, "vsize": 252, "size": 252}