{"hash": "e52953d6662444ac50f1914da01408280b3773548172cf296ff743daada1ed65", "blockhash": "0000000000000000001cda96e906b7601b7a6fb1a3b62bca570a9e5d8f4b3de1", "vout": [{"scriptPubKey": {"reqSigs": 1, "hex": "76a914934019781c34a7b3a75c68593945889cd5ed788388ac", "addresses": ["1ERb7um3hTGePks4dpYaETxTDwTz3ACKLn"], "asm": "OP_DUP OP_HASH160 934019781c34a7b3a75c68593945889cd5ed7883 OP_EQUALVERIFY OP_CHECKSIG", "type": "pubkeyhash"}, "value": 0.0025, "n": 0}, {"scriptPubKey": {"reqSigs": 1, "hex": "76a9140d601346a607ffc85641355e26fc8e1178f036e988ac", "addresses": ["12DisvW6cdFHd1npxkNL8YpA3R9X9AQzQ8"], "asm": "OP_DUP OP_HASH160 0d601346a607ffc85641355e26fc8e1178f036e9 OP_EQUALVERIFY OP_CHECKSIG", "type": "pubkeyhash"}, "value": 0.03567915, "n": 1}], "hex": "01000000019ae2c754ad4e01b070af1e88e36d3654c2a51c2b88bb7829e00400d6fd6df0a9010000006a47304402200090551137a8db07b5044cd2634457becbba0309e0bd80065001d843b1b331590220027242c4c4787a655de7a31a644e628f3ef3813d7b7a18f1e3865c32d02843f2012103392918c42cdfba172552578ec0f94108a4f919fc2131b90196dab1fbc2f37e61ffffffff0290d00300000000001976a914934019781c34a7b3a75c68593945889cd5ed788388ac2b713600000000001976a9140d601346a607ffc85641355e26fc8e1178f036e988ac00000000", "vin": [{"sequence": 4294967295, "scriptSig": {"hex": "47304402200090551137a8db07b5044cd2634457becbba0309e0bd80065001d843b1b331590220027242c4c4787a655de7a31a644e628f3ef3813d7b7a18f1e3865c32d02843f2012103392918c42cdfba172552578ec0f94108a4f919fc2131b90196dab1fbc2f37e61", "asm": "304402200090551137a8db07b5044cd2634457becbba0309e0bd80065001d843b1b331590220027242c4c4787a655de7a31a644e628f3ef3813d7b7a18f1e3865c32d02843f2[ALL] 03392918c42cdfba172552578ec0f94108a4f919fc2131b90196dab1fbc2f37e61"}, "vout": 1, "txid": "a9f06dfdd60004e02978bb882b1ca5c254366de3881eaf70b0014ead54c7e29a"}], "txid": "e52953d6662444ac50f1914da01408280b3773548172cf296ff743daada1ed65", "blocktime": 1537873282, "version": 1, "confirmations": 11482, "time": 1537873282, "locktime": 0, "vsize": 225, "size": 225}