{"hash": "e52afa713d9a0a71f31f4818f7efa4de581d3f1641e6fee2b0819d4911ee8886", "blockhash": "0000000000000000000baef3f32e3676a92c3b2e5da21b426e4f302fc371ce76", "vout": [{"scriptPubKey": {"reqSigs": 1, "hex": "76a914cc588f2d64e600d68120d92f2c4a117a8e27d1e188ac", "addresses": ["1KdUwLkSJidorWdMVLvS6n2Hpf8DHWnMDx"], "asm": "OP_DUP OP_HASH160 cc588f2d64e600d68120d92f2c4a117a8e27d1e1 OP_EQUALVERIFY OP_CHECKSIG", "type": "pubkeyhash"}, "value": 0.02395, "n": 0}, {"scriptPubKey": {"reqSigs": 1, "hex": "a914b916952ec90155038a9696573fe42e599845cd3c87", "addresses": ["3JZfz7GzzzC5FpuY75R36NyBCwPXBbYJj7"], "asm": "OP_HASH160 b916952ec90155038a9696573fe42e599845cd3c OP_EQUAL", "type": "scripthash"}, "value": 0.02, "n": 1}], "hex": "01000000019ddde939d297c61a4e8eb119b91e18158a59db78e12b7d3265e66d7ab9d9e7be000000006b483045022100cacca3a7df56151b00b340c4597ad9ec2e30705b5c0c0a0e3b5976ce84ff9f8c02202996e1b4de153e8b94b559b8a32447f123d7655bc727b7436aa91867a4e9d3ad012103bfa723422b061b3bfbfb8162fe14eadfe90ceb21ed23ee45e33c100fe90a8b36ffffffff02788b2400000000001976a914cc588f2d64e600d68120d92f2c4a117a8e27d1e188ac80841e000000000017a914b916952ec90155038a9696573fe42e599845cd3c8700000000", "vin": [{"sequence": 4294967295, "scriptSig": {"hex": "483045022100cacca3a7df56151b00b340c4597ad9ec2e30705b5c0c0a0e3b5976ce84ff9f8c02202996e1b4de153e8b94b559b8a32447f123d7655bc727b7436aa91867a4e9d3ad012103bfa723422b061b3bfbfb8162fe14eadfe90ceb21ed23ee45e33c100fe90a8b36", "asm": "3045022100cacca3a7df56151b00b340c4597ad9ec2e30705b5c0c0a0e3b5976ce84ff9f8c02202996e1b4de153e8b94b559b8a32447f123d7655bc727b7436aa91867a4e9d3ad[ALL] 03bfa723422b061b3bfbfb8162fe14eadfe90ceb21ed23ee45e33c100fe90a8b36"}, "vout": 0, "txid": "bee7d9b97a6de665327d2be178db598a15181eb919b18e4e1ac697d239e9dd9d"}], "txid": "e52afa713d9a0a71f31f4818f7efa4de581d3f1641e6fee2b0819d4911ee8886", "blocktime": 1537876114, "version": 1, "confirmations": 11459, "time": 1537876114, "locktime": 0, "vsize": 224, "size": 224}