{"hash": "e5304eadb00d6e756e4d0b19989e1d1c99d92e41a23e265dfce852d9e7ce6b31", "blockhash": "00000000000000000004ffacab907a6b429b9a5745fa0b75af4234bf69dd7176", "vout": [{"scriptPubKey": {"type": "nulldata", "hex": "6a146f6d6e69000000000000001f00000d8188f99400", "asm": "OP_RETURN 6f6d6e69000000000000001f00000d8188f99400"}, "value": 0.0, "n": 0}, {"scriptPubKey": {"reqSigs": 1, "hex": "76a9148b427e2348c0b685d16027b3f25c766d9c7d72d488ac", "addresses": ["1DhLafHJKNbU1yRzU3fiVKcLk6U86d2VLk"], "asm": "OP_DUP OP_HASH160 8b427e2348c0b685d16027b3f25c766d9c7d72d4 OP_EQUALVERIFY OP_CHECKSIG", "type": "pubkeyhash"}, "value": 0.00495943, "n": 1}, {"scriptPubKey": {"reqSigs": 1, "hex": "76a91488d924f51033b74a895863a5fb57fd545529df7d88ac", "addresses": ["1DUb2YYbQA1jjaNYzVXLZ7ZioEhLXtbUru"], "asm": "OP_DUP OP_HASH160 88d924f51033b74a895863a5fb57fd545529df7d OP_EQUALVERIFY OP_CHECKSIG", "type": "pubkeyhash"}, "value": 5.46e-06, "n": 2}], "hex": "0100000001b7efb47cf2df479a93ae0e2763ad39fc121d7d59c6611d5fb6ddcf67679bfc3e000000006b483045022100f2832ac50c0f15dfbc05fcba7a9eadc37d8821a8dba32d0a13c5732603ed51d702201fae2db37c3e4a9b1276488e8811bd5fb29197a2bb2cc9669f4d68e22db49712012103f4f38e66ed33221e51fa691282f990b9ace4986806de9c605c3156e089ac4916feffffff030000000000000000166a146f6d6e69000000000000001f00000d8188f9940047910700000000001976a9148b427e2348c0b685d16027b3f25c766d9c7d72d488ac22020000000000001976a91488d924f51033b74a895863a5fb57fd545529df7d88ac16490800", "vin": [{"sequence": 4294967294, "scriptSig": {"hex": "483045022100f2832ac50c0f15dfbc05fcba7a9eadc37d8821a8dba32d0a13c5732603ed51d702201fae2db37c3e4a9b1276488e8811bd5fb29197a2bb2cc9669f4d68e22db49712012103f4f38e66ed33221e51fa691282f990b9ace4986806de9c605c3156e089ac4916", "asm": "3045022100f2832ac50c0f15dfbc05fcba7a9eadc37d8821a8dba32d0a13c5732603ed51d702201fae2db37c3e4a9b1276488e8811bd5fb29197a2bb2cc9669f4d68e22db49712[ALL] 03f4f38e66ed33221e51fa691282f990b9ace4986806de9c605c3156e089ac4916"}, "vout": 0, "txid": "3efc9b6767cfddb65f1d61c6597d1d12fc39ad63270eae939a47dff27cb4efb7"}], "txid": "e5304eadb00d6e756e4d0b19989e1d1c99d92e41a23e265dfce852d9e7ce6b31", "blocktime": 1537875543, "version": 1, "confirmations": 11464, "time": 1537875543, "locktime": 542998, "vsize": 257, "size": 257}