{"hash": "e5326584f3c8e26c8e85354617227f3a50c201c065a1815ba6140fe4d0b67776", "blockhash": "000000000000000000022b45ed06c6f4ccd3cf7fb5ba4856ebd2e58215665228", "vout": [{"scriptPubKey": {"reqSigs": 1, "hex": "76a914e1864bea236c840a0444f3218d10c296fa32308b88ac", "addresses": ["1MZTvFT4gmMBbC9w9cJYoCgRUfbHtiKZQu"], "asm": "OP_DUP OP_HASH160 e1864bea236c840a0444f3218d10c296fa32308b OP_EQUALVERIFY OP_CHECKSIG", "type": "pubkeyhash"}, "value": 0.00046754, "n": 0}, {"scriptPubKey": {"reqSigs": 1, "hex": "76a91421004d1c62398fe9dfc5e32b22d37644b3b7365a88ac", "addresses": ["141VfG2m5Gen71NVdfWggwhzBL6yh1V8P3"], "asm": "OP_DUP OP_HASH160 21004d1c62398fe9dfc5e32b22d37644b3b7365a OP_EQUALVERIFY OP_CHECKSIG", "type": "pubkeyhash"}, "value": 0.06593378, "n": 1}], "hex": "0100000001c88149b66ab13b724b383153c89c569b1d12c9b315b5ad995ac79e706ad6228a010000006a47304402205da6cd857f63b4deabe323a50c59025add1799bda637d8b9d18dfb4e47073a9b022045ebf267c3c492fe48b7c3930788c6fc1ed48aee2c49140947336a722126a2a1012103e21766c1881df89cd159d6047d2b1d35211c1c4ef3caeb194a13a93656390475ffffffff02a2b60000000000001976a914e1864bea236c840a0444f3218d10c296fa32308b88ac629b6400000000001976a91421004d1c62398fe9dfc5e32b22d37644b3b7365a88ac00000000", "vin": [{"sequence": 4294967295, "scriptSig": {"hex": "47304402205da6cd857f63b4deabe323a50c59025add1799bda637d8b9d18dfb4e47073a9b022045ebf267c3c492fe48b7c3930788c6fc1ed48aee2c49140947336a722126a2a1012103e21766c1881df89cd159d6047d2b1d35211c1c4ef3caeb194a13a93656390475", "asm": "304402205da6cd857f63b4deabe323a50c59025add1799bda637d8b9d18dfb4e47073a9b022045ebf267c3c492fe48b7c3930788c6fc1ed48aee2c49140947336a722126a2a1[ALL] 03e21766c1881df89cd159d6047d2b1d35211c1c4ef3caeb194a13a93656390475"}, "vout": 1, "txid": "8a22d66a709ec75a99adb515b3c9121d9b569cc85331384b723bb16ab64981c8"}], "txid": "e5326584f3c8e26c8e85354617227f3a50c201c065a1815ba6140fe4d0b67776", "blocktime": 1537869901, "version": 1, "confirmations": 11524, "time": 1537869901, "locktime": 0, "vsize": 225, "size": 225}