{"hash": "e53e8f4c523456e467290c9da81bbf82eca0f73a2cf3c2ddfbfba7bbe4aea9d2", "blockhash": "0000000000000000000e13cef7c366c0283d82e591d1acd082e914b08063cdf1", "vout": [{"scriptPubKey": {"reqSigs": 1, "hex": "76a9148ff4152608834d021968b45d032ecdf4a9dcdcb488ac", "addresses": ["1E8A2bA7r7h1pbRDKhnTb7odaAmccRw55X"], "asm": "OP_DUP OP_HASH160 8ff4152608834d021968b45d032ecdf4a9dcdcb4 OP_EQUALVERIFY OP_CHECKSIG", "type": "pubkeyhash"}, "value": 0.00041438, "n": 0}, {"scriptPubKey": {"reqSigs": 1, "hex": "76a91451fc57eecbaa6438a02f7463521b047f79677c6588ac", "addresses": ["18UW2fvkYfy8ofxGJKwanhD635GwWz4Nq4"], "asm": "OP_DUP OP_HASH160 51fc57eecbaa6438a02f7463521b047f79677c65 OP_EQUALVERIFY OP_CHECKSIG", "type": "pubkeyhash"}, "value": 0.02247191, "n": 1}], "hex": "01000000029501bca6cf980f111961da23b6619e3afe66d182970136157aa7c6baa98e618a010000006b483045022100c11916d882d1ba1527d34ec0680b2400c50e8789f2561771191ce716029889db022025403f3fa4a37f8ecb2a9abf5eba929c96d55651ec14cb783dda4a6ffa68254f01210399f07de8dced103dc9226d175c1643a6d64a689bf872403203120946ff3fe596ffffffff20281c0647ce3db4e60f0c8aa1b295435a7e772f9e65a84ad5d535d10a105cf5010000006a47304402206a41ce5691e60105c8cb062e20dcc769d7acadcc826188804fbfd4589a24b77502203166180a90207d39b767254825626d3d9e35832cc3c6f27cfaf8067ea2ec17270121030ab51b418d5b4012701389573a5f3e3056e7869745f6209f08950bc77fea098fffffffff02dea10000000000001976a9148ff4152608834d021968b45d032ecdf4a9dcdcb488ac174a2200000000001976a91451fc57eecbaa6438a02f7463521b047f79677c6588ac00000000", "vin": [{"sequence": 4294967295, "scriptSig": {"hex": "483045022100c11916d882d1ba1527d34ec0680b2400c50e8789f2561771191ce716029889db022025403f3fa4a37f8ecb2a9abf5eba929c96d55651ec14cb783dda4a6ffa68254f01210399f07de8dced103dc9226d175c1643a6d64a689bf872403203120946ff3fe596", "asm": "3045022100c11916d882d1ba1527d34ec0680b2400c50e8789f2561771191ce716029889db022025403f3fa4a37f8ecb2a9abf5eba929c96d55651ec14cb783dda4a6ffa68254f[ALL] 0399f07de8dced103dc9226d175c1643a6d64a689bf872403203120946ff3fe596"}, "vout": 1, "txid": "8a618ea9bac6a77a1536019782d166fe3a9e61b623da6119110f98cfa6bc0195"}, {"sequence": 4294967295, "scriptSig": {"hex": "47304402206a41ce5691e60105c8cb062e20dcc769d7acadcc826188804fbfd4589a24b77502203166180a90207d39b767254825626d3d9e35832cc3c6f27cfaf8067ea2ec17270121030ab51b418d5b4012701389573a5f3e3056e7869745f6209f08950bc77fea098f", "asm": "304402206a41ce5691e60105c8cb062e20dcc769d7acadcc826188804fbfd4589a24b77502203166180a90207d39b767254825626d3d9e35832cc3c6f27cfaf8067ea2ec1727[ALL] 030ab51b418d5b4012701389573a5f3e3056e7869745f6209f08950bc77fea098f"}, "vout": 1, "txid": "f55c100ad135d5d54aa8659e2f777e5a4395b2a18a0c0fe6b43dce47061c2820"}], "txid": "e53e8f4c523456e467290c9da81bbf82eca0f73a2cf3c2ddfbfba7bbe4aea9d2", "blocktime": 1537871767, "version": 1, "confirmations": 11495, "time": 1537871767, "locktime": 0, "vsize": 373, "size": 373}