{"hash": "e54323b66f7c7acdea4f686ae296a8c6a8972e68e3d014f0f075b8c2cf54f6de", "blockhash": "0000000000000000000dcc0f55137456b1a82d3642486a52398922ac4d620174", "vout": [{"scriptPubKey": {"reqSigs": 1, "hex": "76a914b0cf7261a237569d5ea536bedaebafd67ba9022988ac", "addresses": ["1H7tSRHPNyeEy36jwxdfKwTmFX6Xjjs1Bn"], "asm": "OP_DUP OP_HASH160 b0cf7261a237569d5ea536bedaebafd67ba90229 OP_EQUALVERIFY OP_CHECKSIG", "type": "pubkeyhash"}, "value": 0.00015585, "n": 0}, {"scriptPubKey": {"reqSigs": 1, "hex": "76a91467d20cd0ba8b0c75d683a00dd79ce01f8fd1a22788ac", "addresses": ["1ATxEHyAX7P4PADvdf4vGrVaKRjCcfhD2i"], "asm": "OP_DUP OP_HASH160 67d20cd0ba8b0c75d683a00dd79ce01f8fd1a227 OP_EQUALVERIFY OP_CHECKSIG", "type": "pubkeyhash"}, "value": 0.01355008, "n": 1}], "hex": "0100000001279eec52dfb06ae68b3e895804cb1cf509c88d6fa0629d755040f3dc11f60398010000006a473044022040f9ee4a09a092dede88f8d82401158ff24f1289d742ab9716eacb1b470574b4022066687bc387fb345f6628cacaea55d7c95830157b88118db9c0330ca0843da1cb0121037f65c466382b29357e8f35e68252a2f32ac847406a7bb06ca672b82ee68ef3fcffffffff02e13c0000000000001976a914b0cf7261a237569d5ea536bedaebafd67ba9022988ac00ad1400000000001976a91467d20cd0ba8b0c75d683a00dd79ce01f8fd1a22788ac00000000", "vin": [{"sequence": 4294967295, "scriptSig": {"hex": "473044022040f9ee4a09a092dede88f8d82401158ff24f1289d742ab9716eacb1b470574b4022066687bc387fb345f6628cacaea55d7c95830157b88118db9c0330ca0843da1cb0121037f65c466382b29357e8f35e68252a2f32ac847406a7bb06ca672b82ee68ef3fc", "asm": "3044022040f9ee4a09a092dede88f8d82401158ff24f1289d742ab9716eacb1b470574b4022066687bc387fb345f6628cacaea55d7c95830157b88118db9c0330ca0843da1cb[ALL] 037f65c466382b29357e8f35e68252a2f32ac847406a7bb06ca672b82ee68ef3fc"}, "vout": 1, "txid": "9803f611dcf34050759d62a06f8dc809f51ccb0458893e8be66ab0df52ec9e27"}], "txid": "e54323b66f7c7acdea4f686ae296a8c6a8972e68e3d014f0f075b8c2cf54f6de", "blocktime": 1537870268, "version": 1, "confirmations": 11518, "time": 1537870268, "locktime": 0, "vsize": 225, "size": 225}