{"hash": "615c06e54f112b256507d2eb228ec2fa93ed3fc8303722b16f657562165c92e1", "blockhash": "0000000000000000000baef3f32e3676a92c3b2e5da21b426e4f302fc371ce76", "vout": [{"scriptPubKey": {"reqSigs": 1, "hex": "76a914fcaa4b120cd7858af64dd493c654b98745d19d1788ac", "addresses": ["1Q2yHXMPhWRLaQf5XrH3kF7hDNtpr2bJ3d"], "asm": "OP_DUP OP_HASH160 fcaa4b120cd7858af64dd493c654b98745d19d17 OP_EQUALVERIFY OP_CHECKSIG", "type": "pubkeyhash"}, "value": 0.32, "n": 0}, {"scriptPubKey": {"reqSigs": 1, "hex": "a914feb63ebaf600546f17e83c95d3df7a819b40a11587", "addresses": ["3QuossmMZaiTRLpq8PUZJdaXB5KgtS8zpA"], "asm": "OP_HASH160 feb63ebaf600546f17e83c95d3df7a819b40a115 OP_EQUAL", "type": "scripthash"}, "value": 0.0078, "n": 1}, {"scriptPubKey": {"reqSigs": 1, "hex": "a91407e4021ca440e9c34ed07f5584e5976eaf16893187", "addresses": ["32QjoBFHrPpDwcvPTadEyYaPseQWzL8Fq9"], "asm": "OP_HASH160 07e4021ca440e9c34ed07f5584e5976eaf168931 OP_EQUAL", "type": "scripthash"}, "value": 18.20114148, "n": 2}], "hex": "01000000000102e3a323838fc16cf39e41ad26799beb3d10de28f24fb6d78012f0dc7ccdf55c170200000017160014000b814f2c1a19852357ed615a08ec572a781ed1ffffffffc2ba1f211af57a6d578417f92db95244ed6d3a3098a01f8999e69a39e660048f030000001716001480395b92d165fc1dc5470ffa0706ea66e15757b6ffffffff030048e801000000001976a914fcaa4b120cd7858af64dd493c654b98745d19d1788ace0e60b000000000017a914feb63ebaf600546f17e83c95d3df7a819b40a11587e4bc7c6c0000000017a91407e4021ca440e9c34ed07f5584e5976eaf16893187024830450221008b0a949357b118ff277e1eceb0e6c28f3ea841375cd62e7e3ce57a2d3f7b610e02203aa61d38e467278eca34ef6e1c63360b77167bf4c7b1c55b92b08452fb4cdef5012102aad79950b2c2af3689e8644c89e9d10dff06c2d8926200496b92e9f7ccb0304c02483045022100989c0fa6e6af5ef84e5958f8001e72211b41e9846f2d9447e1be50cf15def73f02201c253d5e0408384be882fe9f7fe923b6850791e299c61b5550e5704a528e0479012103f166ff75d4382bb77a58c574ba3e426624712bf205c410af7858f842df68486a00000000", "vin": [{"txinwitness": ["30450221008b0a949357b118ff277e1eceb0e6c28f3ea841375cd62e7e3ce57a2d3f7b610e02203aa61d38e467278eca34ef6e1c63360b77167bf4c7b1c55b92b08452fb4cdef501", "02aad79950b2c2af3689e8644c89e9d10dff06c2d8926200496b92e9f7ccb0304c"], "sequence": 4294967295, "scriptSig": {"hex": "160014000b814f2c1a19852357ed615a08ec572a781ed1", "asm": "0014000b814f2c1a19852357ed615a08ec572a781ed1"}, "vout": 2, "txid": "175cf5cd7cdcf01280d7b64ff228de103deb9b7926ad419ef36cc18f8323a3e3"}, {"txinwitness": ["3045022100989c0fa6e6af5ef84e5958f8001e72211b41e9846f2d9447e1be50cf15def73f02201c253d5e0408384be882fe9f7fe923b6850791e299c61b5550e5704a528e047901", "03f166ff75d4382bb77a58c574ba3e426624712bf205c410af7858f842df68486a"], "sequence": 4294967295, "scriptSig": {"hex": "16001480395b92d165fc1dc5470ffa0706ea66e15757b6", "asm": "001480395b92d165fc1dc5470ffa0706ea66e15757b6"}, "vout": 3, "txid": "8f0460e6399ae699891fa098303a6ded4452b92df91784576d7af51a211fbac2"}], "txid": "e5435bc7fac24c2b7cccf4f8384374ad18274f49d66e0f9bc2988e2ef85e700f", "blocktime": 1537876114, "version": 1, "confirmations": 11460, "time": 1537876114, "locktime": 0, "vsize": 291, "size": 454}