{"hash": "43c5f7b91957ca862423ec1b18ec4ef7a4a6f86f9aba8a000d80d105c2c0e3e7", "blockhash": "000000000000000000022b45ed06c6f4ccd3cf7fb5ba4856ebd2e58215665228", "vout": [{"scriptPubKey": {"reqSigs": 1, "hex": "a9145fd6b163b65b5caadd84549f738a500d69ccd91287", "addresses": ["3ARmJtnvRyiA1Viq8sDESiAVrx91HjaUjn"], "asm": "OP_HASH160 5fd6b163b65b5caadd84549f738a500d69ccd912 OP_EQUAL", "type": "scripthash"}, "value": 0.01000442, "n": 0}, {"scriptPubKey": {"reqSigs": 1, "hex": "76a9142e1b944fe7ffbe969fc1df8d662fd7b5d6303c9b88ac", "addresses": ["15Co856cRnFRCKwSSzECoyT3ozVhuFoJZ6"], "asm": "OP_DUP OP_HASH160 2e1b944fe7ffbe969fc1df8d662fd7b5d6303c9b OP_EQUALVERIFY OP_CHECKSIG", "type": "pubkeyhash"}, "value": 0.0030796, "n": 1}], "hex": "02000000000102305ee7ef07e6d1de43e93f356f4ada5879bd9df329533ac27c5918860d13de991000000017160014c400abe658f78bc568b712521baa6e5f1a157b6cfeffffffe6709b77393c1de6ab0f57891199caecb0cc92013898dddbd711beea2296e97300000000171600148167af788ebde8902459c3907038a72ecf10a122feffffff02fa430f000000000017a9145fd6b163b65b5caadd84549f738a500d69ccd91287f8b20400000000001976a9142e1b944fe7ffbe969fc1df8d662fd7b5d6303c9b88ac02483045022100dc84e525f8c8836af936ddf6b572cfa8c1d1c70c3111a653bb39c669fe0767de022048394c55b00de1b31a0339c57edb29998cf3fea8c11b1a4d44edf5385c9bcaaa012103befcb5c544010cc685e6d8c65df71fa814062b6e0ac5476f88e3f568c80248140248304502210082b77b87a1f65b211343ba04087fb1f374c9536bb66b7841544b4154db1ecb9e0220477452db96faff9cfd422e9cf0365efc11158383c979097c9f8847cf63c8b0dd012103cf5363e04e81ef07cfdfdd50cab4bf94633bb728fe2132dc510569ae9cba67910b490800", "vin": [{"txinwitness": ["3045022100dc84e525f8c8836af936ddf6b572cfa8c1d1c70c3111a653bb39c669fe0767de022048394c55b00de1b31a0339c57edb29998cf3fea8c11b1a4d44edf5385c9bcaaa01", "03befcb5c544010cc685e6d8c65df71fa814062b6e0ac5476f88e3f568c8024814"], "sequence": 4294967294, "scriptSig": {"hex": "160014c400abe658f78bc568b712521baa6e5f1a157b6c", "asm": "0014c400abe658f78bc568b712521baa6e5f1a157b6c"}, "vout": 16, "txid": "99de130d8618597cc23a5329f39dbd7958da4a6f353fe943ded1e607efe75e30"}, {"txinwitness": ["304502210082b77b87a1f65b211343ba04087fb1f374c9536bb66b7841544b4154db1ecb9e0220477452db96faff9cfd422e9cf0365efc11158383c979097c9f8847cf63c8b0dd01", "03cf5363e04e81ef07cfdfdd50cab4bf94633bb728fe2132dc510569ae9cba6791"], "sequence": 4294967294, "scriptSig": {"hex": "1600148167af788ebde8902459c3907038a72ecf10a122", "asm": "00148167af788ebde8902459c3907038a72ecf10a122"}, "vout": 0, "txid": "73e99622eabe11d7dbdd98380192ccb0ecca991189570fabe61d3c39779b70e6"}], "txid": "e54413e997c41a0f0d6822b4ca4bd07bebf49325879500884ece2f5d34cfe1d7", "blocktime": 1537869901, "version": 2, "confirmations": 11524, "time": 1537869901, "locktime": 542987, "vsize": 259, "size": 422}