{"hash": "e54726a3bf638f3fb0ff2b1ba6d3c4bfd4f14c73dba333e60e82fb153fbca251", "blockhash": "0000000000000000000e13cef7c366c0283d82e591d1acd082e914b08063cdf1", "vout": [{"scriptPubKey": {"type": "nulldata", "hex": "6a4c500000779d0001abc9a6af6c953dd567cf27e7e3ef3236678a625097bcbefa6b8351586b4e2c11c7f7018bbbbd3fbb5818bdbdc8f75baa0dcf06154ad32edb164fbc9a9526289ac0f6612cd74e33776ee4", "asm": "OP_RETURN 0000779d0001abc9a6af6c953dd567cf27e7e3ef3236678a625097bcbefa6b8351586b4e2c11c7f7018bbbbd3fbb5818bdbdc8f75baa0dcf06154ad32edb164fbc9a9526289ac0f6612cd74e33776ee4"}, "value": 0.0, "n": 0}, {"scriptPubKey": {"reqSigs": 1, "hex": "76a91490998f6be5b35043ac2f60a8fd582d4ad80a33ac88ac", "addresses": ["1EBaGBDT57J2uKCvBgupJbxmKpYUAHsSVN"], "asm": "OP_DUP OP_HASH160 90998f6be5b35043ac2f60a8fd582d4ad80a33ac OP_EQUALVERIFY OP_CHECKSIG", "type": "pubkeyhash"}, "value": 0.0007672, "n": 1}], "hex": "0100000001a42eeddbf1eb61f5f9fb21411c62f2607bd6b729cc6f40729e85c6da92a15f87000000006a47304402206d8af6e734da5bc576e9a9d8ceb0b0c8572e6ba06b2b387d2ef5261778fb3b02022050c7c73bd9fcbaa15d988bd43b7a3f07684fe7c84fb4746cc1a983c20d8e474201210383d623cbe6d6e39d4d3568c7424b097df8196003b698deabb339ddd4f9ed2456ffffffff020000000000000000536a4c500000779d0001abc9a6af6c953dd567cf27e7e3ef3236678a625097bcbefa6b8351586b4e2c11c7f7018bbbbd3fbb5818bdbdc8f75baa0dcf06154ad32edb164fbc9a9526289ac0f6612cd74e33776ee4b02b0100000000001976a91490998f6be5b35043ac2f60a8fd582d4ad80a33ac88ac00000000", "vin": [{"sequence": 4294967295, "scriptSig": {"hex": "47304402206d8af6e734da5bc576e9a9d8ceb0b0c8572e6ba06b2b387d2ef5261778fb3b02022050c7c73bd9fcbaa15d988bd43b7a3f07684fe7c84fb4746cc1a983c20d8e474201210383d623cbe6d6e39d4d3568c7424b097df8196003b698deabb339ddd4f9ed2456", "asm": "304402206d8af6e734da5bc576e9a9d8ceb0b0c8572e6ba06b2b387d2ef5261778fb3b02022050c7c73bd9fcbaa15d988bd43b7a3f07684fe7c84fb4746cc1a983c20d8e4742[ALL] 0383d623cbe6d6e39d4d3568c7424b097df8196003b698deabb339ddd4f9ed2456"}, "vout": 0, "txid": "875fa192dac6859e72406fcc29b7d67b60f2621c4121fbf9f561ebf1dbed2ea4"}], "txid": "e54726a3bf638f3fb0ff2b1ba6d3c4bfd4f14c73dba333e60e82fb153fbca251", "blocktime": 1537871767, "version": 1, "confirmations": 11493, "time": 1537871767, "locktime": 0, "vsize": 283, "size": 283}