{"hash": "e54814a6eb9ec42e5c1ce4fb1a539f3a7fec7084d658d4d9f088aec74babedae", "blockhash": "00000000000000000017f5eb5941039fbcee6240d03bc1f2f8e35350df66a1d8", "vout": [{"scriptPubKey": {"reqSigs": 1, "hex": "76a91420eb762e6031545b7cce257afee95e0b87a26ecf88ac", "addresses": ["1414hJRrJeYvCbfJxWTW3f9PrqDudB4HZu"], "asm": "OP_DUP OP_HASH160 20eb762e6031545b7cce257afee95e0b87a26ecf OP_EQUALVERIFY OP_CHECKSIG", "type": "pubkeyhash"}, "value": 0.01563585, "n": 0}, {"scriptPubKey": {"reqSigs": 1, "hex": "76a914ff98c17e23df592885210d1b66bd0b870f06f02388ac", "addresses": ["1QJUJaXGpdwJWajYZBAqTEe2jSSApGsgGA"], "asm": "OP_DUP OP_HASH160 ff98c17e23df592885210d1b66bd0b870f06f023 OP_EQUALVERIFY OP_CHECKSIG", "type": "pubkeyhash"}, "value": 0.15259644, "n": 1}], "hex": "010000000174041efcca211f295c52d3d18f1868db6076cfbb12ca09afa48caa3fc5aab260010000006b483045022100ea93272bbe06bdf68ec5d07b64d8f77f1b99d01a74214bf2cbb65ebb7bd967d8022056262a20f457d032ea9da020d441c69297e7b95be8cb6bcfc37da886b39fb12a012103bbdc58a9a2959eaf26cda5fa06539a43b63b800d46066e35370cd87035961283ffffffff02c1db1700000000001976a91420eb762e6031545b7cce257afee95e0b87a26ecf88acfcd7e800000000001976a914ff98c17e23df592885210d1b66bd0b870f06f02388ac00000000", "vin": [{"sequence": 4294967295, "scriptSig": {"hex": "483045022100ea93272bbe06bdf68ec5d07b64d8f77f1b99d01a74214bf2cbb65ebb7bd967d8022056262a20f457d032ea9da020d441c69297e7b95be8cb6bcfc37da886b39fb12a012103bbdc58a9a2959eaf26cda5fa06539a43b63b800d46066e35370cd87035961283", "asm": "3045022100ea93272bbe06bdf68ec5d07b64d8f77f1b99d01a74214bf2cbb65ebb7bd967d8022056262a20f457d032ea9da020d441c69297e7b95be8cb6bcfc37da886b39fb12a[ALL] 03bbdc58a9a2959eaf26cda5fa06539a43b63b800d46066e35370cd87035961283"}, "vout": 1, "txid": "60b2aac53faa8ca4af09ca12bbcf7660db68188fd1d3525c291f21cafc1e0474"}], "txid": "e54814a6eb9ec42e5c1ce4fb1a539f3a7fec7084d658d4d9f088aec74babedae", "blocktime": 1537874412, "version": 1, "confirmations": 11467, "time": 1537874412, "locktime": 0, "vsize": 226, "size": 226}