{"hash": "e54a18f382ee612ca688918fb8f2d74d493743c6c6c2939f4016bab2263c1d47", "blockhash": "0000000000000000000dcc0f55137456b1a82d3642486a52398922ac4d620174", "vout": [{"scriptPubKey": {"reqSigs": 1, "hex": "a914d0863ea00bfa8e149dbeb009078054a205998c5a87", "addresses": ["3LhbHvbWfS777jbBUuuaNJC7QKyeFgG4hf"], "asm": "OP_HASH160 d0863ea00bfa8e149dbeb009078054a205998c5a OP_EQUAL", "type": "scripthash"}, "value": 0.07203195, "n": 0}, {"scriptPubKey": {"reqSigs": 1, "hex": "76a9146f83792ac13b1a41fc67ad8c5acbc7715ad03b4588ac", "addresses": ["1BAdWDh4odSUU877it2296eRiywkrP2cnp"], "asm": "OP_DUP OP_HASH160 6f83792ac13b1a41fc67ad8c5acbc7715ad03b45 OP_EQUALVERIFY OP_CHECKSIG", "type": "pubkeyhash"}, "value": 0.24159437, "n": 1}], "hex": "0100000001836b787b562e1f02d4789c4ac1e39214ef21dc2ba1c0140f7512ef128f2ba0db010000006a47304402203e33fada58afba665e13de9406cd1b4e8b9048d5e073b7621f4f3fa75daf71b8022041a5084f9233b8ab8b540b9df9394fccbb7f50f2d8069c88ee80d76614da933b01210272670fb3a0f2feb120aae71c9547431b3654b12ed265e262c09bf45f18b24806ffffffff027be96d000000000017a914d0863ea00bfa8e149dbeb009078054a205998c5a87cda47001000000001976a9146f83792ac13b1a41fc67ad8c5acbc7715ad03b4588ac00000000", "vin": [{"sequence": 4294967295, "scriptSig": {"hex": "47304402203e33fada58afba665e13de9406cd1b4e8b9048d5e073b7621f4f3fa75daf71b8022041a5084f9233b8ab8b540b9df9394fccbb7f50f2d8069c88ee80d76614da933b01210272670fb3a0f2feb120aae71c9547431b3654b12ed265e262c09bf45f18b24806", "asm": "304402203e33fada58afba665e13de9406cd1b4e8b9048d5e073b7621f4f3fa75daf71b8022041a5084f9233b8ab8b540b9df9394fccbb7f50f2d8069c88ee80d76614da933b[ALL] 0272670fb3a0f2feb120aae71c9547431b3654b12ed265e262c09bf45f18b24806"}, "vout": 1, "txid": "dba02b8f12ef12750f14c0a12bdc21ef1492e3c14a9c78d4021f2e567b786b83"}], "txid": "e54a18f382ee612ca688918fb8f2d74d493743c6c6c2939f4016bab2263c1d47", "blocktime": 1537870268, "version": 1, "confirmations": 11518, "time": 1537870268, "locktime": 0, "vsize": 223, "size": 223}