{"hash": "e54c0014b09954cbb28f032a699a3d9fd0c1c855991c1d503bc37ce0270c3fe2", "blockhash": "0000000000000000000e13cef7c366c0283d82e591d1acd082e914b08063cdf1", "vout": [{"scriptPubKey": {"reqSigs": 1, "hex": "76a9144762b3725139e3b07c464b7ac4c9aeec69dc1df488ac", "addresses": ["17WTDV29zBeg7JeWYP52EqUo8BtsZ1oeZA"], "asm": "OP_DUP OP_HASH160 4762b3725139e3b07c464b7ac4c9aeec69dc1df4 OP_EQUALVERIFY OP_CHECKSIG", "type": "pubkeyhash"}, "value": 0.007768, "n": 0}, {"scriptPubKey": {"reqSigs": 1, "hex": "76a914596e81bfcd63507e4205fd59f7080eb2ab7e279488ac", "addresses": ["199sXDthhj61oDcKv3gXP3nFUj1Dce4cb7"], "asm": "OP_DUP OP_HASH160 596e81bfcd63507e4205fd59f7080eb2ab7e2794 OP_EQUALVERIFY OP_CHECKSIG", "type": "pubkeyhash"}, "value": 0.06628127, "n": 1}], "hex": "0100000001274e8e5e21277f1691ea8c8783f11696dc08275e18e08b29c639368a47f86659010000006a47304402200b100d7421d7209e76ab101d7125af475311af15cc2d765c62b4d61f61c7b17202202dd72245305643948124e229ee6ea08323592d8cdaf7dcced8529f6546fe9836012103385c09c7ecc80259bfd5871924ea929a53166a622eaf27509d68754b8a9bb4c9ffffffff0260da0b00000000001976a9144762b3725139e3b07c464b7ac4c9aeec69dc1df488ac1f236500000000001976a914596e81bfcd63507e4205fd59f7080eb2ab7e279488ac00000000", "vin": [{"sequence": 4294967295, "scriptSig": {"hex": "47304402200b100d7421d7209e76ab101d7125af475311af15cc2d765c62b4d61f61c7b17202202dd72245305643948124e229ee6ea08323592d8cdaf7dcced8529f6546fe9836012103385c09c7ecc80259bfd5871924ea929a53166a622eaf27509d68754b8a9bb4c9", "asm": "304402200b100d7421d7209e76ab101d7125af475311af15cc2d765c62b4d61f61c7b17202202dd72245305643948124e229ee6ea08323592d8cdaf7dcced8529f6546fe9836[ALL] 03385c09c7ecc80259bfd5871924ea929a53166a622eaf27509d68754b8a9bb4c9"}, "vout": 1, "txid": "5966f8478a3639c6298be0185e2708dc9616f183878cea91167f27215e8e4e27"}], "txid": "e54c0014b09954cbb28f032a699a3d9fd0c1c855991c1d503bc37ce0270c3fe2", "blocktime": 1537871767, "version": 1, "confirmations": 11495, "time": 1537871767, "locktime": 0, "vsize": 225, "size": 225}