{"hash": "e54ccf9ee02d02c6d726ce096e84154364572dbe404d3a0c352a203493463253", "blockhash": "0000000000000000001cda96e906b7601b7a6fb1a3b62bca570a9e5d8f4b3de1", "vout": [{"scriptPubKey": {"reqSigs": 1, "hex": "76a914795af72afe1d2888fa56361737a1eb453fe9ed0988ac", "addresses": ["1C4fjc6vRmDeCEmEQ6ptWChj1k22dHGrn2"], "asm": "OP_DUP OP_HASH160 795af72afe1d2888fa56361737a1eb453fe9ed09 OP_EQUALVERIFY OP_CHECKSIG", "type": "pubkeyhash"}, "value": 0.01017053, "n": 0}, {"scriptPubKey": {"reqSigs": 1, "hex": "76a91468e36b5a77bc188b76cf854947c001c6ac1a8d8a88ac", "addresses": ["1AZbiKn8hHsj6HMdVAV1VuiUd5hGjzsspT"], "asm": "OP_DUP OP_HASH160 68e36b5a77bc188b76cf854947c001c6ac1a8d8a OP_EQUALVERIFY OP_CHECKSIG", "type": "pubkeyhash"}, "value": 0.12291236, "n": 1}], "hex": "02000000060efc0f27f2821218cfc1be5db9b6d3d6d168cf2cb078d7bed14a13a813ac8ee9010000006b483045022100be29a082a1f7d0106b58c872a6d69e37d82031d7d17e76d1fe5d5b5946e945fb022008d954007b65609bda801045f8c906b65240c8c0a244e1af2416786bcddd4155012103c1a082713f6bf72fcaba79dbf30d29cc8988fed3f62b696b8736fde06eaece5bfeffffff93e35e4b758aa3613a8ac5c40522f2f2945166019b398528ac4ae7e9d5e8e5c4010000006b483045022100f5e5b133bc130b00837371fa71086280d5c41a1b7fa28a2c2f2672e72fbc901a02205e620ae0b5e1b0b06c071643f37fb67bef4ca08bd064ef0e471021adc579145c01210374b296c7efbc4060c3f5f86dfa4238a6d82602ef7f55bd6327682ccf0b9410f6feffffffd1b2600a17491f080f355b1fb8b51e5ad4106def4a8cb80e37679faa70a204704f0000006b4830450221008f0db5047fe3a9840dfa72ba7bb6902ea4456d3a387dd7d0a63198a8e9aee0a302200eedab5474e2491e3b8c5754e2b3e4bd654fd5e7b763d5704c42fdd29827ab150121035f13b27762c5c669a8ecc6f0135f1cd20af9b487b2b0b8ad6930c59c4bfe816cfeffffffe6ef1db3f7fa8bce66f8e4cb7b89a90fe1d70de9f62fec4d2d1bfffb6c73195a000000006b483045022100b95ed268f95fda66802105f4020fa2ebe86a7e18b0188a6c8ac9a0f2651a684802200c60b212dc1da410d4077bbbcbfc9b7b6ef2e6d314522075a6a9ae475784de7601210390ed6733a1b9cb6551d291f57e65ed28c79e2d2ad88379987142140dd000278efefffffff29b5e8bb582cbe68460889a0974c49172fd4395348d8dbf6b2749f764276411000000006a4730440220088c2ee48679f786f549cbec03f03b68599727b4a2cf5e704c11ee6e05b11ff9022042fa4ccefd110589880996d350e359400ccf39ec1952bec08eec52390327c8660121030ab69cb4c36468d9a31fa5490390769924bbd1dab9b21968fd77f9454e437b69fefffffff8b96857ef2ae14c727fc5b46fdf56097ad5e43977637667b0f5babfe9b354c5010000006b483045022100f577cb770ff7fc05574fa7c191c2a52eee945421d9cd22ed5a5d863b8cf8272d0220095755ed0297b98b0bea8c3ef22d99b775f2aa8d517b8680f80cef6d9337b42e012103288bbd5a09defc0ddb03f579141ebf269d548e9a8f34a61711ba4862027f209afeffffff02dd840f00000000001976a914795af72afe1d2888fa56361737a1eb453fe9ed0988aca48cbb00000000001976a91468e36b5a77bc188b76cf854947c001c6ac1a8d8a88ac13490800", "vin": [{"sequence": 4294967294, "scriptSig": {"hex": "483045022100be29a082a1f7d0106b58c872a6d69e37d82031d7d17e76d1fe5d5b5946e945fb022008d954007b65609bda801045f8c906b65240c8c0a244e1af2416786bcddd4155012103c1a082713f6bf72fcaba79dbf30d29cc8988fed3f62b696b8736fde06eaece5b", "asm": "3045022100be29a082a1f7d0106b58c872a6d69e37d82031d7d17e76d1fe5d5b5946e945fb022008d954007b65609bda801045f8c906b65240c8c0a244e1af2416786bcddd4155[ALL] 03c1a082713f6bf72fcaba79dbf30d29cc8988fed3f62b696b8736fde06eaece5b"}, "vout": 1, "txid": "e98eac13a8134ad1bed778b02ccf68d1d6d3b6b95dbec1cf181282f2270ffc0e"}, {"sequence": 4294967294, "scriptSig": {"hex": "483045022100f5e5b133bc130b00837371fa71086280d5c41a1b7fa28a2c2f2672e72fbc901a02205e620ae0b5e1b0b06c071643f37fb67bef4ca08bd064ef0e471021adc579145c01210374b296c7efbc4060c3f5f86dfa4238a6d82602ef7f55bd6327682ccf0b9410f6", "asm": "3045022100f5e5b133bc130b00837371fa71086280d5c41a1b7fa28a2c2f2672e72fbc901a02205e620ae0b5e1b0b06c071643f37fb67bef4ca08bd064ef0e471021adc579145c[ALL] 0374b296c7efbc4060c3f5f86dfa4238a6d82602ef7f55bd6327682ccf0b9410f6"}, "vout": 1, "txid": "c4e5e8d5e9e74aac2885399b01665194f2f22205c4c58a3a61a38a754b5ee393"}, {"sequence": 4294967294, "scriptSig": {"hex": "4830450221008f0db5047fe3a9840dfa72ba7bb6902ea4456d3a387dd7d0a63198a8e9aee0a302200eedab5474e2491e3b8c5754e2b3e4bd654fd5e7b763d5704c42fdd29827ab150121035f13b27762c5c669a8ecc6f0135f1cd20af9b487b2b0b8ad6930c59c4bfe816c", "asm": "30450221008f0db5047fe3a9840dfa72ba7bb6902ea4456d3a387dd7d0a63198a8e9aee0a302200eedab5474e2491e3b8c5754e2b3e4bd654fd5e7b763d5704c42fdd29827ab15[ALL] 035f13b27762c5c669a8ecc6f0135f1cd20af9b487b2b0b8ad6930c59c4bfe816c"}, "vout": 79, "txid": "7004a270aa9f67370eb88c4aef6d10d45a1eb5b81f5b350f081f49170a60b2d1"}, {"sequence": 4294967294, "scriptSig": {"hex": "483045022100b95ed268f95fda66802105f4020fa2ebe86a7e18b0188a6c8ac9a0f2651a684802200c60b212dc1da410d4077bbbcbfc9b7b6ef2e6d314522075a6a9ae475784de7601210390ed6733a1b9cb6551d291f57e65ed28c79e2d2ad88379987142140dd000278e", "asm": "3045022100b95ed268f95fda66802105f4020fa2ebe86a7e18b0188a6c8ac9a0f2651a684802200c60b212dc1da410d4077bbbcbfc9b7b6ef2e6d314522075a6a9ae475784de76[ALL] 0390ed6733a1b9cb6551d291f57e65ed28c79e2d2ad88379987142140dd000278e"}, "vout": 0, "txid": "5a19736cfbff1b2d4dec2ff6e90dd7e10fa9897bcbe4f866ce8bfaf7b31defe6"}, {"sequence": 4294967294, "scriptSig": {"hex": "4730440220088c2ee48679f786f549cbec03f03b68599727b4a2cf5e704c11ee6e05b11ff9022042fa4ccefd110589880996d350e359400ccf39ec1952bec08eec52390327c8660121030ab69cb4c36468d9a31fa5490390769924bbd1dab9b21968fd77f9454e437b69", "asm": "30440220088c2ee48679f786f549cbec03f03b68599727b4a2cf5e704c11ee6e05b11ff9022042fa4ccefd110589880996d350e359400ccf39ec1952bec08eec52390327c866[ALL] 030ab69cb4c36468d9a31fa5490390769924bbd1dab9b21968fd77f9454e437b69"}, "vout": 0, "txid": "11642764f749276bbf8d8d349543fd7291c474099a886084e6cb82b58b5e9bf2"}, {"sequence": 4294967294, "scriptSig": {"hex": "483045022100f577cb770ff7fc05574fa7c191c2a52eee945421d9cd22ed5a5d863b8cf8272d0220095755ed0297b98b0bea8c3ef22d99b775f2aa8d517b8680f80cef6d9337b42e012103288bbd5a09defc0ddb03f579141ebf269d548e9a8f34a61711ba4862027f209a", "asm": "3045022100f577cb770ff7fc05574fa7c191c2a52eee945421d9cd22ed5a5d863b8cf8272d0220095755ed0297b98b0bea8c3ef22d99b775f2aa8d517b8680f80cef6d9337b42e[ALL] 03288bbd5a09defc0ddb03f579141ebf269d548e9a8f34a61711ba4862027f209a"}, "vout": 1, "txid": "c554b3e9bfbaf5b06776637739e4d57a0956df6fb4c57f724ce12aef5768b9f8"}], "txid": "e54ccf9ee02d02c6d726ce096e84154364572dbe404d3a0c352a203493463253", "blocktime": 1537873282, "version": 2, "confirmations": 11485, "time": 1537873282, "locktime": 542995, "vsize": 965, "size": 965}