{"hash": "e5524087b9972933b8f794aa9289eae2feb7eb07a02124928c656ba0d8a0d422", "blockhash": "0000000000000000000e13cef7c366c0283d82e591d1acd082e914b08063cdf1", "vout": [{"scriptPubKey": {"reqSigs": 1, "hex": "76a914826846cabea1ac7323ec55b5d1d48e0d92b2b24f88ac", "addresses": ["1CtXmCWGdTEGgve1PwwxAxHW6kKPvmWCJR"], "asm": "OP_DUP OP_HASH160 826846cabea1ac7323ec55b5d1d48e0d92b2b24f OP_EQUALVERIFY OP_CHECKSIG", "type": "pubkeyhash"}, "value": 0.00095838, "n": 0}, {"scriptPubKey": {"reqSigs": 1, "hex": "76a914ffe289e4c98c0d0ffa3799a88bdd424143ea26b288ac", "addresses": ["1QKzh6gP1TCkczzAkvU1QFu7hbNPWHDKGB"], "asm": "OP_DUP OP_HASH160 ffe289e4c98c0d0ffa3799a88bdd424143ea26b2 OP_EQUALVERIFY OP_CHECKSIG", "type": "pubkeyhash"}, "value": 0.007823, "n": 1}], "hex": "0100000001b73c6b4ca85baa133efe5b0e7f2f6589e67f2c2fcc6c75a318e39c46c6b3a2e6010000006a47304402202639115936141433a8b1b1aedbf0d43b2b218822f37023f62673c29fa0c4e18002203e154c086c97909e373775d41a1c40df97ab1ae756d872ed6b18c8f2245201590121022a70a4687a0eb266fe2d8c727c9b8da6dcb5beb31585efb6dd03ef60e95ae273ffffffff025e760100000000001976a914826846cabea1ac7323ec55b5d1d48e0d92b2b24f88acdcef0b00000000001976a914ffe289e4c98c0d0ffa3799a88bdd424143ea26b288ac00000000", "vin": [{"sequence": 4294967295, "scriptSig": {"hex": "47304402202639115936141433a8b1b1aedbf0d43b2b218822f37023f62673c29fa0c4e18002203e154c086c97909e373775d41a1c40df97ab1ae756d872ed6b18c8f2245201590121022a70a4687a0eb266fe2d8c727c9b8da6dcb5beb31585efb6dd03ef60e95ae273", "asm": "304402202639115936141433a8b1b1aedbf0d43b2b218822f37023f62673c29fa0c4e18002203e154c086c97909e373775d41a1c40df97ab1ae756d872ed6b18c8f224520159[ALL] 022a70a4687a0eb266fe2d8c727c9b8da6dcb5beb31585efb6dd03ef60e95ae273"}, "vout": 1, "txid": "e6a2b3c6469ce318a3756ccc2f2c7fe689652f7f0e5bfe3e13aa5ba84c6b3cb7"}], "txid": "e5524087b9972933b8f794aa9289eae2feb7eb07a02124928c656ba0d8a0d422", "blocktime": 1537871767, "version": 1, "confirmations": 11495, "time": 1537871767, "locktime": 0, "vsize": 225, "size": 225}