{"hash": "e5590ac59e2eef80e0cfaa9ab8dbab4992e9f333edf785210f0b5c03d326b85f", "blockhash": "0000000000000000000e13cef7c366c0283d82e591d1acd082e914b08063cdf1", "vout": [{"scriptPubKey": {"reqSigs": 1, "hex": "76a914a4b8a55cc7c603c17bde26d5d83a06d6545a8d3b88ac", "addresses": ["1G1y1tMpUNDkH6mkBwfAjLrKiJHbufBJfn"], "asm": "OP_DUP OP_HASH160 a4b8a55cc7c603c17bde26d5d83a06d6545a8d3b OP_EQUALVERIFY OP_CHECKSIG", "type": "pubkeyhash"}, "value": 0.00657256, "n": 0}, {"scriptPubKey": {"reqSigs": 1, "hex": "a91455d025540f0e2dc19839387454731fa22638c21387", "addresses": ["39Wki5FHRc5LT3WGFy9cZ7XD41E75VFvWo"], "asm": "OP_HASH160 55d025540f0e2dc19839387454731fa22638c213 OP_EQUAL", "type": "scripthash"}, "value": 0.01042044, "n": 1}], "hex": "010000000107b70fc578120304198f91e15ee818dfaad0d3959ec3c6f52cc394b9ea47558d00000000fdfd0000473044022070ebfa7ec4d5abab13cb350803115ee2473b8406588645cca569a575845fd95e02203f5e5f98da55b5565b81b16c6a3f273bac1107590250648011e66591a50bdc2901483045022100e26c10ae8e01760e1f47fe03fec2c0c5ad4ba2a6d356d8ee887fb0f27a12a24e022029a151dc0da5d83d75d062894b62d5b3982aa54d543a1a49aa5cb3ebabc54d7c014c69522103b3139bdc9ab7be936bb28498d33ce613ea992c967554182d1ca3850a7b1deaf42103dccdb5d64e051b0779558e506efb459b3665d47188c1c4f9071d6ceb2fec14642103fb9252ebd4f90821786554b0ad37e32073ddea56e2e11084ad40066476df43fa53aeffffffff0268070a00000000001976a914a4b8a55cc7c603c17bde26d5d83a06d6545a8d3b88ac7ce60f000000000017a91455d025540f0e2dc19839387454731fa22638c2138700000000", "vin": [{"sequence": 4294967295, "scriptSig": {"hex": "00473044022070ebfa7ec4d5abab13cb350803115ee2473b8406588645cca569a575845fd95e02203f5e5f98da55b5565b81b16c6a3f273bac1107590250648011e66591a50bdc2901483045022100e26c10ae8e01760e1f47fe03fec2c0c5ad4ba2a6d356d8ee887fb0f27a12a24e022029a151dc0da5d83d75d062894b62d5b3982aa54d543a1a49aa5cb3ebabc54d7c014c69522103b3139bdc9ab7be936bb28498d33ce613ea992c967554182d1ca3850a7b1deaf42103dccdb5d64e051b0779558e506efb459b3665d47188c1c4f9071d6ceb2fec14642103fb9252ebd4f90821786554b0ad37e32073ddea56e2e11084ad40066476df43fa53ae", "asm": "0 3044022070ebfa7ec4d5abab13cb350803115ee2473b8406588645cca569a575845fd95e02203f5e5f98da55b5565b81b16c6a3f273bac1107590250648011e66591a50bdc29[ALL] 3045022100e26c10ae8e01760e1f47fe03fec2c0c5ad4ba2a6d356d8ee887fb0f27a12a24e022029a151dc0da5d83d75d062894b62d5b3982aa54d543a1a49aa5cb3ebabc54d7c[ALL] 522103b3139bdc9ab7be936bb28498d33ce613ea992c967554182d1ca3850a7b1deaf42103dccdb5d64e051b0779558e506efb459b3665d47188c1c4f9071d6ceb2fec14642103fb9252ebd4f90821786554b0ad37e32073ddea56e2e11084ad40066476df43fa53ae"}, "vout": 0, "txid": "8d5547eab994c32cf5c6c39e95d3d0aadf18e85ee1918f1904031278c50fb707"}], "txid": "e5590ac59e2eef80e0cfaa9ab8dbab4992e9f333edf785210f0b5c03d326b85f", "blocktime": 1537871767, "version": 1, "confirmations": 11493, "time": 1537871767, "locktime": 0, "vsize": 372, "size": 372}