{"hash": "e560df6643a565e01599a0e5083d76a2add026798a2c7e6c2d83d0d5390b8ac5", "blockhash": "0000000000000000001f76057863aec43deb6fa401d9628bb513d65a8098bfab", "vout": [{"scriptPubKey": {"reqSigs": 1, "hex": "76a91430546ec9036a87a8a0a6b56346bf1fcfd1dbdc2d88ac", "addresses": ["15QYahWmdS3L2xt73fxAKGvxAWsnLALKX7"], "asm": "OP_DUP OP_HASH160 30546ec9036a87a8a0a6b56346bf1fcfd1dbdc2d OP_EQUALVERIFY OP_CHECKSIG", "type": "pubkeyhash"}, "value": 0.00024191, "n": 0}, {"scriptPubKey": {"reqSigs": 1, "hex": "76a914f2683678eae5480faf2d12c042337984dcd0efda88ac", "addresses": ["1P6jNFja3a3TishGAEZx4BsQ7T575Qh8RY"], "asm": "OP_DUP OP_HASH160 f2683678eae5480faf2d12c042337984dcd0efda OP_EQUALVERIFY OP_CHECKSIG", "type": "pubkeyhash"}, "value": 0.04027442, "n": 1}], "hex": "0200000001a8809f396c1004f50d333b85af07cba8c7470310e10928c43686bff8711a16ab010000006a473044022006f5dd92582d4fc0cb78a696894be8e1c1f2b3d50fd9a09d12663749491c3f6902205237853466f107e8b8ac6d1580a5440023b5295395be5cb18cef6acfbc5b49f801210388b6ea50fa1511140e646dd25d305f994491fd0896d49b78857e57385c78476bffffffff027f5e0000000000001976a91430546ec9036a87a8a0a6b56346bf1fcfd1dbdc2d88ac32743d00000000001976a914f2683678eae5480faf2d12c042337984dcd0efda88ac00000000", "vin": [{"sequence": 4294967295, "scriptSig": {"hex": "473044022006f5dd92582d4fc0cb78a696894be8e1c1f2b3d50fd9a09d12663749491c3f6902205237853466f107e8b8ac6d1580a5440023b5295395be5cb18cef6acfbc5b49f801210388b6ea50fa1511140e646dd25d305f994491fd0896d49b78857e57385c78476b", "asm": "3044022006f5dd92582d4fc0cb78a696894be8e1c1f2b3d50fd9a09d12663749491c3f6902205237853466f107e8b8ac6d1580a5440023b5295395be5cb18cef6acfbc5b49f8[ALL] 0388b6ea50fa1511140e646dd25d305f994491fd0896d49b78857e57385c78476b"}, "vout": 1, "txid": "ab161a71f8bf8636c42809e1100347c7a8cb07af853b330df504106c399f80a8"}], "txid": "e560df6643a565e01599a0e5083d76a2add026798a2c7e6c2d83d0d5390b8ac5", "blocktime": 1537873891, "version": 2, "confirmations": 11475, "time": 1537873891, "locktime": 0, "vsize": 225, "size": 225}