{"hash": "56a2200c87e60d18e4052ecbb43e1c9730e86df478694349c18129e615711d7d", "blockhash": "00000000000000000024a2167bbff67b0be802c0b01cdd79e6331c2be6459f87", "vout": [{"scriptPubKey": {"reqSigs": 1, "hex": "76a914f0cbd95646405f72339a71f6cb4454fb5624d06588ac", "addresses": ["1NxDNiRfiRAdvrDGu9gftPdLmdAN7t1awn"], "asm": "OP_DUP OP_HASH160 f0cbd95646405f72339a71f6cb4454fb5624d065 OP_EQUALVERIFY OP_CHECKSIG", "type": "pubkeyhash"}, "value": 0.0034666, "n": 0}, {"scriptPubKey": {"reqSigs": 1, "hex": "a91419ce6175054861d0c7de363753a61510beb90efa87", "addresses": ["343U3vPkecPYVmjnn53S6Qf8rSY3R38rG4"], "asm": "OP_HASH160 19ce6175054861d0c7de363753a61510beb90efa OP_EQUAL", "type": "scripthash"}, "value": 0.01001019, "n": 1}], "hex": "0200000000010236fd1bade1380815b1acd413ce2aceb720b9cc05ba44f0d08e680bb5162eea5508000000171600143414bab0fba0084860bce013cea41b78874bb525feffffffeeac5702fc77c85027d8db93ae3f9615f2537b6fb43e0ad21d28087d9949f0d90000000017160014aa768848e49ffd1e09ebd172227fcdd2cd2963c0feffffff02244a0500000000001976a914f0cbd95646405f72339a71f6cb4454fb5624d06588ac3b460f000000000017a91419ce6175054861d0c7de363753a61510beb90efa8702483045022100ee7c90dcc3ec56f9674e9a1b60140fff85388704c0c30c4f7a0d404511d346b80220199be5c773b750bf8b4bb98de401f00d6f6309a9eb57f9a240ceb5a5ab8d03de0121023b3ba1f86cbff73599511cb9068d86fda1f8420f3b20d85618ac7672dd6336dc024730440220237616bffbd6d526f368462469f51c8797c9125f4cf1b7e10c5d27217603301702205f6b60690fc83a975e01316dbbbb6b8ebe788411075fbdfd65b2cf193ea22afc01210397c4c3a2c1a47c98fa639b6cdc6a728a5c07d192437af0af4f1ba43c3b9f67540d490800", "vin": [{"txinwitness": ["3045022100ee7c90dcc3ec56f9674e9a1b60140fff85388704c0c30c4f7a0d404511d346b80220199be5c773b750bf8b4bb98de401f00d6f6309a9eb57f9a240ceb5a5ab8d03de01", "023b3ba1f86cbff73599511cb9068d86fda1f8420f3b20d85618ac7672dd6336dc"], "sequence": 4294967294, "scriptSig": {"hex": "1600143414bab0fba0084860bce013cea41b78874bb525", "asm": "00143414bab0fba0084860bce013cea41b78874bb525"}, "vout": 8, "txid": "55ea2e16b50b688ed0f044ba05ccb920b7ce2ace13d4acb1150838e1ad1bfd36"}, {"txinwitness": ["30440220237616bffbd6d526f368462469f51c8797c9125f4cf1b7e10c5d27217603301702205f6b60690fc83a975e01316dbbbb6b8ebe788411075fbdfd65b2cf193ea22afc01", "0397c4c3a2c1a47c98fa639b6cdc6a728a5c07d192437af0af4f1ba43c3b9f6754"], "sequence": 4294967294, "scriptSig": {"hex": "160014aa768848e49ffd1e09ebd172227fcdd2cd2963c0", "asm": "0014aa768848e49ffd1e09ebd172227fcdd2cd2963c0"}, "vout": 0, "txid": "d9f049997d08281dd20a3eb46f7b53f215963fae93dbd82750c877fc0257acee"}], "txid": "e564793d5bb1e663230f447f0c436ffb9b76bbe5ff2f1c7081f6e0389dd950ea", "blocktime": 1537870564, "version": 2, "confirmations": 11515, "time": 1537870564, "locktime": 542989, "vsize": 259, "size": 421}