{"hash": "4a23eece6c8c7d2c3237d6b531cae5e69bc35c6bdb71b113f83b702a78332fa4", "blockhash": "0000000000000000000e13cef7c366c0283d82e591d1acd082e914b08063cdf1", "vout": [{"scriptPubKey": {"reqSigs": 1, "hex": "76a914362fccd7a256d26f6313ad6396807376dcc0903088ac", "addresses": ["15wWkaD55RKrjPxQHwrgryoYSYh3Erb3eG"], "asm": "OP_DUP OP_HASH160 362fccd7a256d26f6313ad6396807376dcc09030 OP_EQUALVERIFY OP_CHECKSIG", "type": "pubkeyhash"}, "value": 0.03170899, "n": 0}, {"scriptPubKey": {"reqSigs": 1, "hex": "00147f8fe50c100840d50ca704e1cc5896448db1c737", "addresses": ["bc1q07872rqsppqd2r98qnsuckykgjxmr3eh457pe3"], "asm": "0 7f8fe50c100840d50ca704e1cc5896448db1c737", "type": "witness_v0_keyhash"}, "value": 0.19078513, "n": 1}], "hex": "01000000000101803ceb7b32d7adb3edb3a361d18781f74f9c4b6f507af2af21102d59ed37b9be010000001716001402e20eb89e28b9d7109cad619a9a125ca67aa438ffffffff0253623000000000001976a914362fccd7a256d26f6313ad6396807376dcc0903088ac711d2301000000001600147f8fe50c100840d50ca704e1cc5896448db1c73702473044022059a3572cbb8e86535d7e3d1b0fa4ee13cf363c11406e8ea538906c3253b7439502205f152008fcede8fc2eec83abd3237a464a74088b6827c76e9914f6f0ff979413012102fc83c84e35ae9de174eb69e96c657670382a0716c31e42b57ad16a7c9346dd3200000000", "vin": [{"txinwitness": ["3044022059a3572cbb8e86535d7e3d1b0fa4ee13cf363c11406e8ea538906c3253b7439502205f152008fcede8fc2eec83abd3237a464a74088b6827c76e9914f6f0ff97941301", "02fc83c84e35ae9de174eb69e96c657670382a0716c31e42b57ad16a7c9346dd32"], "sequence": 4294967295, "scriptSig": {"hex": "16001402e20eb89e28b9d7109cad619a9a125ca67aa438", "asm": "001402e20eb89e28b9d7109cad619a9a125ca67aa438"}, "vout": 1, "txid": "beb937ed592d1021aff27a506f4b9c4ff78187d161a3b3edb3add7327beb3c80"}], "txid": "e5673d5ae736d6b7e92810a16c16e5a4eda225ba095bcc0a157fb437698642d9", "blocktime": 1537871767, "version": 1, "confirmations": 11495, "time": 1537871767, "locktime": 0, "vsize": 167, "size": 248}