{"hash": "e56ca3177b184c662d226d1877ebc7043bafd6f8f50b75304532d02f7c129f41", "blockhash": "00000000000000000004ffacab907a6b429b9a5745fa0b75af4234bf69dd7176", "vout": [{"scriptPubKey": {"reqSigs": 1, "hex": "76a914cbd82f5fec220c1aedea422a7d4fc27805f07e8288ac", "addresses": ["1Kaq9k5Ry89JY2NEd2o2BJjE9wdSGtydPy"], "asm": "OP_DUP OP_HASH160 cbd82f5fec220c1aedea422a7d4fc27805f07e82 OP_EQUALVERIFY OP_CHECKSIG", "type": "pubkeyhash"}, "value": 0.0010019, "n": 0}, {"scriptPubKey": {"reqSigs": 1, "hex": "76a914e163d073e054266d0f5e025eebd6100b0c946b5b88ac", "addresses": ["1MYkcNyCtPmxivKoMy5v5VBkv6LuBrgrAy"], "asm": "OP_DUP OP_HASH160 e163d073e054266d0f5e025eebd6100b0c946b5b OP_EQUALVERIFY OP_CHECKSIG", "type": "pubkeyhash"}, "value": 0.0711491, "n": 1}], "hex": "010000000105b8caac0dbd33f50a2b3e9bbde115648402da0798a2a2a38133cc08b9cc8d97010000006a473044022036f7404cb25a78ff87436dbb9c019047f14fdac03ef094cc027ebf5b4e8c5ad70220420116235d241dac3fe4eb5accc991c2e823923c04265b6a6ebb8ed5c52d735a0121033387315522fd785dc6a3184e4f2acbd937f90409a105c06583c94e6554220085ffffffff025e870100000000001976a914cbd82f5fec220c1aedea422a7d4fc27805f07e8288ac9e906c00000000001976a914e163d073e054266d0f5e025eebd6100b0c946b5b88ac00000000", "vin": [{"sequence": 4294967295, "scriptSig": {"hex": "473044022036f7404cb25a78ff87436dbb9c019047f14fdac03ef094cc027ebf5b4e8c5ad70220420116235d241dac3fe4eb5accc991c2e823923c04265b6a6ebb8ed5c52d735a0121033387315522fd785dc6a3184e4f2acbd937f90409a105c06583c94e6554220085", "asm": "3044022036f7404cb25a78ff87436dbb9c019047f14fdac03ef094cc027ebf5b4e8c5ad70220420116235d241dac3fe4eb5accc991c2e823923c04265b6a6ebb8ed5c52d735a[ALL] 033387315522fd785dc6a3184e4f2acbd937f90409a105c06583c94e6554220085"}, "vout": 1, "txid": "978dccb908cc3381a3a2a29807da02846415e1bd9b3e2b0af533bd0daccab805"}], "txid": "e56ca3177b184c662d226d1877ebc7043bafd6f8f50b75304532d02f7c129f41", "blocktime": 1537875543, "version": 1, "confirmations": 11464, "time": 1537875543, "locktime": 0, "vsize": 225, "size": 225}