{"hash": "9284c0815a7313683d964d3af2e7aac0c6b4d3842b5fbe9841640daf8994283a", "blockhash": "0000000000000000000baef3f32e3676a92c3b2e5da21b426e4f302fc371ce76", "vout": [{"scriptPubKey": {"reqSigs": 1, "hex": "76a9145a1508336dbd4aaff5ee825409f1bd3a4ddc5fdc88ac", "addresses": ["19DK1baPBFdBCkaWepFP3XMj6Yg8x8jaHi"], "asm": "OP_DUP OP_HASH160 5a1508336dbd4aaff5ee825409f1bd3a4ddc5fdc OP_EQUALVERIFY OP_CHECKSIG", "type": "pubkeyhash"}, "value": 0.00655943, "n": 0}, {"scriptPubKey": {"reqSigs": 1, "hex": "a914cfaabfe8c271f99a4364b5197ba50c6cddb7adb987", "addresses": ["3Ld4M9RPwEG3VeQbHcC1PsKUndQL7VYLZP"], "asm": "OP_HASH160 cfaabfe8c271f99a4364b5197ba50c6cddb7adb9 OP_EQUAL", "type": "scripthash"}, "value": 0.3427753, "n": 1}], "hex": "01000000000101201b9dbe427ab7ddc79a8fb49edf4b7cd85bae34271af4056ae092cd6f99ab7f01000000232200202f7b4024602241b47d3306a6733d9889e4b6761d9f1cb82a18aa8b9ac4506e51ffffffff0247020a00000000001976a9145a1508336dbd4aaff5ee825409f1bd3a4ddc5fdc88ac9a080b020000000017a914cfaabfe8c271f99a4364b5197ba50c6cddb7adb987040047304402206bd487cf89d3f300961532c70a1029bbc56c82232d22e318ddbcdf956ab35fad02206c58a3f42df9b958b7851a3034fae9caa910bb8111129110e67f9000ac4de87801483045022100c5dad4b801123c92a3bc00acdcd6b566ea18e31b05309d55cbf26a57028bd6ab0220198a2e373c4b395e02652fd090f0c8e14f559e203ca771793052630a018ab1c50147522102973cd851fecff3a20f08377b072729f303801eee1b7678668338adcaec770ec221033e4af03ed09dbd8a417ba042650d5bd1db7f14f271a8f660974e3abf1fdfa4da52ae00000000", "vin": [{"txinwitness": ["", "304402206bd487cf89d3f300961532c70a1029bbc56c82232d22e318ddbcdf956ab35fad02206c58a3f42df9b958b7851a3034fae9caa910bb8111129110e67f9000ac4de87801", "3045022100c5dad4b801123c92a3bc00acdcd6b566ea18e31b05309d55cbf26a57028bd6ab0220198a2e373c4b395e02652fd090f0c8e14f559e203ca771793052630a018ab1c501", "522102973cd851fecff3a20f08377b072729f303801eee1b7678668338adcaec770ec221033e4af03ed09dbd8a417ba042650d5bd1db7f14f271a8f660974e3abf1fdfa4da52ae"], "sequence": 4294967295, "scriptSig": {"hex": "2200202f7b4024602241b47d3306a6733d9889e4b6761d9f1cb82a18aa8b9ac4506e51", "asm": "00202f7b4024602241b47d3306a6733d9889e4b6761d9f1cb82a18aa8b9ac4506e51"}, "vout": 1, "txid": "7fab996fcd92e06a05f41a2734ae5bd87c4bdf9eb48f9ac7ddb77a42be9d1b20"}], "txid": "e57386d0801a479b4a972108333a59653415d301046def424ba3311dddbb7d8a", "blocktime": 1537876114, "version": 1, "confirmations": 11462, "time": 1537876114, "locktime": 0, "vsize": 208, "size": 373}