{"hash": "e583c8d8c1918f3778e3e9acfd0e756587e08f6c0d30c8801dee0a4b543b6d31", "blockhash": "0000000000000000001cda96e906b7601b7a6fb1a3b62bca570a9e5d8f4b3de1", "vout": [{"scriptPubKey": {"type": "nulldata", "hex": "6a4c50000077d000019c73d99efb9d24c1c7b933b95b23cc0f42c2fc38c5e5bf9ae76da98a211ab8cb1b1ba6933e896348f4bc16d7326a5baa144106137d3d3a4ebb521d100759d4ba30d2c37bb011d97e02cf", "asm": "OP_RETURN 000077d000019c73d99efb9d24c1c7b933b95b23cc0f42c2fc38c5e5bf9ae76da98a211ab8cb1b1ba6933e896348f4bc16d7326a5baa144106137d3d3a4ebb521d100759d4ba30d2c37bb011d97e02cf"}, "value": 0.0, "n": 0}, {"scriptPubKey": {"reqSigs": 1, "hex": "76a9144e55500ee915e584657380c39ce447604aba5e5788ac", "addresses": ["189BubWaRtER1Z83P7thaSks9hmVdtacwF"], "asm": "OP_DUP OP_HASH160 4e55500ee915e584657380c39ce447604aba5e57 OP_EQUALVERIFY OP_CHECKSIG", "type": "pubkeyhash"}, "value": 0.00637344, "n": 1}], "hex": "01000000015615feb2034c004b9bcd2e292718b506c30d6725c5ae4490cc73fa0efa0df5f9000000006a4730440220434500844ac29cafa4b69c5a3373235443805d46e34780ddac1e81c19cd3b76602201c1ac6b0ce472e38c5ceeb3931f676c34dd7608ea8825c5e7411cdf7f2c36fd6012102c78a2499df23ee6d25f8bc13f693ac1235f904cf3bb983e758d2127cb6d53af1ffffffff020000000000000000536a4c50000077d000019c73d99efb9d24c1c7b933b95b23cc0f42c2fc38c5e5bf9ae76da98a211ab8cb1b1ba6933e896348f4bc16d7326a5baa144106137d3d3a4ebb521d100759d4ba30d2c37bb011d97e02cfa0b90900000000001976a9144e55500ee915e584657380c39ce447604aba5e5788ac00000000", "vin": [{"sequence": 4294967295, "scriptSig": {"hex": "4730440220434500844ac29cafa4b69c5a3373235443805d46e34780ddac1e81c19cd3b76602201c1ac6b0ce472e38c5ceeb3931f676c34dd7608ea8825c5e7411cdf7f2c36fd6012102c78a2499df23ee6d25f8bc13f693ac1235f904cf3bb983e758d2127cb6d53af1", "asm": "30440220434500844ac29cafa4b69c5a3373235443805d46e34780ddac1e81c19cd3b76602201c1ac6b0ce472e38c5ceeb3931f676c34dd7608ea8825c5e7411cdf7f2c36fd6[ALL] 02c78a2499df23ee6d25f8bc13f693ac1235f904cf3bb983e758d2127cb6d53af1"}, "vout": 0, "txid": "f9f50dfa0efa73cc9044aec525670dc306b51827292ecd9b4b004c03b2fe1556"}], "txid": "e583c8d8c1918f3778e3e9acfd0e756587e08f6c0d30c8801dee0a4b543b6d31", "blocktime": 1537873282, "version": 1, "confirmations": 11484, "time": 1537873282, "locktime": 0, "vsize": 283, "size": 283}