{"hash": "e590f4f9fc0bb20cbe665b8e69c7cbc35bd0677339a786bf6b095a98971f4c14", "blockhash": "00000000000000000017f5eb5941039fbcee6240d03bc1f2f8e35350df66a1d8", "vout": [{"scriptPubKey": {"reqSigs": 1, "hex": "a9142ea9eebad726fb510854f5598f0fe881b029791587", "addresses": ["35wkaVEwHHgRom7nsoY2T5RVcHjawMRomV"], "asm": "OP_HASH160 2ea9eebad726fb510854f5598f0fe881b0297915 OP_EQUAL", "type": "scripthash"}, "value": 0.003765, "n": 0}, {"scriptPubKey": {"reqSigs": 1, "hex": "76a9143f1f99b24ea2b8d435113e949d60bad3c7117e4d88ac", "addresses": ["16kmRieMujjX9xjuZJUXRHr4g2FGAAPEws"], "asm": "OP_DUP OP_HASH160 3f1f99b24ea2b8d435113e949d60bad3c7117e4d OP_EQUALVERIFY OP_CHECKSIG", "type": "pubkeyhash"}, "value": 0.00494144, "n": 1}], "hex": "01000000010ed50001b88945d4b5b2737904509f8ded937a69446da88f08052af19947604a000000006b483045022100b0a92a99fed37f44ed4fc9264be556f7435f1134e36b60d3de8dd882e9ba098502203758ae7e6cc397c5bcfbffe9b09253245fd225ff43e93bb8363ca2ab8c1ae6220121034ca6109ddf9e20e0ca57d230f1521270e6ce701cef738daea56fe953625b651dffffffff02b4be05000000000017a9142ea9eebad726fb510854f5598f0fe881b029791587408a0700000000001976a9143f1f99b24ea2b8d435113e949d60bad3c7117e4d88ac00000000", "vin": [{"sequence": 4294967295, "scriptSig": {"hex": "483045022100b0a92a99fed37f44ed4fc9264be556f7435f1134e36b60d3de8dd882e9ba098502203758ae7e6cc397c5bcfbffe9b09253245fd225ff43e93bb8363ca2ab8c1ae6220121034ca6109ddf9e20e0ca57d230f1521270e6ce701cef738daea56fe953625b651d", "asm": "3045022100b0a92a99fed37f44ed4fc9264be556f7435f1134e36b60d3de8dd882e9ba098502203758ae7e6cc397c5bcfbffe9b09253245fd225ff43e93bb8363ca2ab8c1ae622[ALL] 034ca6109ddf9e20e0ca57d230f1521270e6ce701cef738daea56fe953625b651d"}, "vout": 0, "txid": "4a604799f12a05088fa86d44697a93ed8d9f50047973b2b5d44589b80100d50e"}], "txid": "e590f4f9fc0bb20cbe665b8e69c7cbc35bd0677339a786bf6b095a98971f4c14", "blocktime": 1537874412, "version": 1, "confirmations": 11467, "time": 1537874412, "locktime": 0, "vsize": 224, "size": 224}