{"hash": "0b935d54b4c4fcebcfd791f5fbeaf08b2dab731cd0242b9ff8fa56ebe7ed303a", "blockhash": "0000000000000000001f76057863aec43deb6fa401d9628bb513d65a8098bfab", "vout": [{"scriptPubKey": {"reqSigs": 1, "hex": "a91490e99e8d26d05ead3c05430c292a887bbff695f587", "addresses": ["3EuF6KjJawxTiUsea3Sc8hsLUGmVEf7Xg5"], "asm": "OP_HASH160 90e99e8d26d05ead3c05430c292a887bbff695f5 OP_EQUAL", "type": "scripthash"}, "value": 0.00136203, "n": 0}, {"scriptPubKey": {"type": "nulldata", "hex": "6a146f6d6e69000000000000001f0000000005f5e100", "asm": "OP_RETURN 6f6d6e69000000000000001f0000000005f5e100"}, "value": 0.0, "n": 1}, {"scriptPubKey": {"reqSigs": 1, "hex": "a91490e99e8d26d05ead3c05430c292a887bbff695f587", "addresses": ["3EuF6KjJawxTiUsea3Sc8hsLUGmVEf7Xg5"], "asm": "OP_HASH160 90e99e8d26d05ead3c05430c292a887bbff695f5 OP_EQUAL", "type": "scripthash"}, "value": 5.4e-06, "n": 2}], "hex": "01000000000102a83e744cb0fdcb82d8592d94a97ba6d4f60cdc3426817e2eea74005ff5415cb30000000017160014f6e1792e7852ebd5ae795c2a25d579acdfadec2dffffffffa83e744cb0fdcb82d8592d94a97ba6d4f60cdc3426817e2eea74005ff5415cb30200000017160014f6e1792e7852ebd5ae795c2a25d579acdfadec2dffffffff030b1402000000000017a91490e99e8d26d05ead3c05430c292a887bbff695f5870000000000000000166a146f6d6e69000000000000001f0000000005f5e1001c0200000000000017a91490e99e8d26d05ead3c05430c292a887bbff695f5870247304402201ea1f08d2f8628e49a57698cb979195855446e4d67c13a55327bf5a66d6fc906022036d7a08dc87835cedeed3fa3324aef9c5f71d366b4907dcdf9726d17aac01a31012103f1cf988013a33e053d1e9bd54c4798c1a6dc362a5b2798b5344049fca40e2db002483045022100aeb6abc2016ad2c20340ccd39bc1345c867a6c7f6c29c6dcbdef3dc93850b73f02202ea4a27ad287b67fa55bac1dfc1c46a3f38f531d25a57a78840b0f20fe48b2c4012103f1cf988013a33e053d1e9bd54c4798c1a6dc362a5b2798b5344049fca40e2db000000000", "vin": [{"txinwitness": ["304402201ea1f08d2f8628e49a57698cb979195855446e4d67c13a55327bf5a66d6fc906022036d7a08dc87835cedeed3fa3324aef9c5f71d366b4907dcdf9726d17aac01a3101", "03f1cf988013a33e053d1e9bd54c4798c1a6dc362a5b2798b5344049fca40e2db0"], "sequence": 4294967295, "scriptSig": {"hex": "160014f6e1792e7852ebd5ae795c2a25d579acdfadec2d", "asm": "0014f6e1792e7852ebd5ae795c2a25d579acdfadec2d"}, "vout": 0, "txid": "b35c41f55f0074ea2e7e812634dc0cf6d4a67ba9942d59d882cbfdb04c743ea8"}, {"txinwitness": ["3045022100aeb6abc2016ad2c20340ccd39bc1345c867a6c7f6c29c6dcbdef3dc93850b73f02202ea4a27ad287b67fa55bac1dfc1c46a3f38f531d25a57a78840b0f20fe48b2c401", "03f1cf988013a33e053d1e9bd54c4798c1a6dc362a5b2798b5344049fca40e2db0"], "sequence": 4294967295, "scriptSig": {"hex": "160014f6e1792e7852ebd5ae795c2a25d579acdfadec2d", "asm": "0014f6e1792e7852ebd5ae795c2a25d579acdfadec2d"}, "vout": 2, "txid": "b35c41f55f0074ea2e7e812634dc0cf6d4a67ba9942d59d882cbfdb04c743ea8"}], "txid": "e591ffc324c40e0d4e67436dacd97387e7de1b4804b8ca89fd49c4d5ca3acfd9", "blocktime": 1537873891, "version": 1, "confirmations": 11478, "time": 1537873891, "locktime": 0, "vsize": 288, "size": 450}