{"hash": "e5934f4c9e80bd8de5f3a4ca6cd4d59f3e8d76333884b57c667b5078d5b8178a", "blockhash": "0000000000000000000e13cef7c366c0283d82e591d1acd082e914b08063cdf1", "vout": [{"scriptPubKey": {"reqSigs": 1, "hex": "76a914bd3302b940f9b680d3d8b7697146faefa5528fb488ac", "addresses": ["1JFPpYAUdQuXL3Jr3eoq8AnX9n189zTnSZ"], "asm": "OP_DUP OP_HASH160 bd3302b940f9b680d3d8b7697146faefa5528fb4 OP_EQUALVERIFY OP_CHECKSIG", "type": "pubkeyhash"}, "value": 0.15066846, "n": 0}, {"scriptPubKey": {"reqSigs": 1, "hex": "76a9142c3065e63e54618408d85acb0370a754a1b4c6d388ac", "addresses": ["152eiCM5HgfnebLDJHWs5SiQRGEQLBGh1N"], "asm": "OP_DUP OP_HASH160 2c3065e63e54618408d85acb0370a754a1b4c6d3 OP_EQUALVERIFY OP_CHECKSIG", "type": "pubkeyhash"}, "value": 0.05342658, "n": 1}], "hex": "0100000001eff55b21585f4b95878926fa12bebd8cfbe475c0941b07fd571de6e73aec4292010000006b483045022100c83cfb49384a7f1520fcf006523ea85f1dc19bde4a31f1b8cb25493ee6dcce1d02205aff8b13531d1153c50a68b820f4dce6330817f82050cb47062399e980b19de30121036b0887b26c32464c07f96494f6754b73ec513003107965715b6816f033ffc647ffffffff02dee6e500000000001976a914bd3302b940f9b680d3d8b7697146faefa5528fb488acc2855100000000001976a9142c3065e63e54618408d85acb0370a754a1b4c6d388ac00000000", "vin": [{"sequence": 4294967295, "scriptSig": {"hex": "483045022100c83cfb49384a7f1520fcf006523ea85f1dc19bde4a31f1b8cb25493ee6dcce1d02205aff8b13531d1153c50a68b820f4dce6330817f82050cb47062399e980b19de30121036b0887b26c32464c07f96494f6754b73ec513003107965715b6816f033ffc647", "asm": "3045022100c83cfb49384a7f1520fcf006523ea85f1dc19bde4a31f1b8cb25493ee6dcce1d02205aff8b13531d1153c50a68b820f4dce6330817f82050cb47062399e980b19de3[ALL] 036b0887b26c32464c07f96494f6754b73ec513003107965715b6816f033ffc647"}, "vout": 1, "txid": "9242ec3ae7e61d57fd071b94c075e4fb8cbdbe12fa268987954b5f58215bf5ef"}], "txid": "e5934f4c9e80bd8de5f3a4ca6cd4d59f3e8d76333884b57c667b5078d5b8178a", "blocktime": 1537871767, "version": 1, "confirmations": 11495, "time": 1537871767, "locktime": 0, "vsize": 226, "size": 226}