{"hash": "60b2a0ef83be45d450e76ee96a2f14676a2ced060ffec29cbc43f6360e6cf659", "blockhash": "0000000000000000001f76057863aec43deb6fa401d9628bb513d65a8098bfab", "vout": [{"scriptPubKey": {"reqSigs": 1, "hex": "76a9146c4e13cbe2e330b510190a9735048d76267a129388ac", "addresses": ["1AsfWdHjprDpKJpjKkpJGjAn4v7856BTMq"], "asm": "OP_DUP OP_HASH160 6c4e13cbe2e330b510190a9735048d76267a1293 OP_EQUALVERIFY OP_CHECKSIG", "type": "pubkeyhash"}, "value": 0.03921481, "n": 0}, {"scriptPubKey": {"reqSigs": 1, "hex": "00148884292cbd8baf0cc0cd5937f0dc092d0f5f95f7", "addresses": ["bc1q3zzzjt9a3whsesxdtymlphqf9584l90h8yt2n6"], "asm": "0 8884292cbd8baf0cc0cd5937f0dc092d0f5f95f7", "type": "witness_v0_keyhash"}, "value": 0.00960062, "n": 1}], "hex": "01000000000101d216db14b66adfaeee6d65f1688bc76ed8731d0c4ff79afbba221408988843a602000000171600149c99ebaf385b1eb499803c925c7765b27127b70cffffffff0249d63b00000000001976a9146c4e13cbe2e330b510190a9735048d76267a129388ac3ea60e00000000001600148884292cbd8baf0cc0cd5937f0dc092d0f5f95f702483045022100bf9749c55e4ec9ae23b62503881ef8a43eebf12fd8473af3b758a1f7ab25031a02200a1ef563ad556e9e7fd2549b5db4a22710422c7737303618512920e7fa67f605012102c48cabbf26c084d948e7b4e543e26ab4b318180acbc93eced0b5903db9bd3d4e00000000", "vin": [{"txinwitness": ["3045022100bf9749c55e4ec9ae23b62503881ef8a43eebf12fd8473af3b758a1f7ab25031a02200a1ef563ad556e9e7fd2549b5db4a22710422c7737303618512920e7fa67f60501", "02c48cabbf26c084d948e7b4e543e26ab4b318180acbc93eced0b5903db9bd3d4e"], "sequence": 4294967295, "scriptSig": {"hex": "1600149c99ebaf385b1eb499803c925c7765b27127b70c", "asm": "00149c99ebaf385b1eb499803c925c7765b27127b70c"}, "vout": 2, "txid": "a6438898081422bafb9af74f0c1d73d86ec78b68f1656deeaedf6ab614db16d2"}], "txid": "e59fc2b2c324bf5f5910193b23785d91a4b86ccaef20f089bd99523d465c340c", "blocktime": 1537873891, "version": 1, "confirmations": 11478, "time": 1537873891, "locktime": 0, "vsize": 167, "size": 249}