{"hash": "e5a22edfec46189b643e00d8cc2a5250c7f22d4fdd15840f8435c6d81a071628", "blockhash": "0000000000000000001f76057863aec43deb6fa401d9628bb513d65a8098bfab", "vout": [{"scriptPubKey": {"reqSigs": 1, "hex": "a9148c3a40733aabb6282a3325955cce38174e6d2bc487", "addresses": ["3EUUJoXzMkqnUKQs8CgywUb4T16cnvbzAQ"], "asm": "OP_HASH160 8c3a40733aabb6282a3325955cce38174e6d2bc4 OP_EQUAL", "type": "scripthash"}, "value": 0.02655432, "n": 0}, {"scriptPubKey": {"reqSigs": 1, "hex": "76a914bc0bf62270f5f12f1c3e0928bc682f577319bffa88ac", "addresses": ["1J9JNAM5SGo2fVJd6jmSZPAzGUqH7mVvmP"], "asm": "OP_DUP OP_HASH160 bc0bf62270f5f12f1c3e0928bc682f577319bffa OP_EQUALVERIFY OP_CHECKSIG", "type": "pubkeyhash"}, "value": 0.49429865, "n": 1}], "hex": "010000000156ba813672aa883b8b64251f85754751a2d98afb407c5730a3ed3e1031647ead010000006a47304402203c6afdbd636d6fc25f27a23ce1b661c34a4dccf0bc282b7df0b33c54c2d81c6d02207f9caec707366ca7a6d5f4e8a048da68c9e4df8b4060a086c92ec8223a213b530121036587eb81e26bcf62492f712a670c585fdca0ea08b5533d1d5678ae3397975b10ffffffff02c88428000000000017a9148c3a40733aabb6282a3325955cce38174e6d2bc487693df202000000001976a914bc0bf62270f5f12f1c3e0928bc682f577319bffa88ac00000000", "vin": [{"sequence": 4294967295, "scriptSig": {"hex": "47304402203c6afdbd636d6fc25f27a23ce1b661c34a4dccf0bc282b7df0b33c54c2d81c6d02207f9caec707366ca7a6d5f4e8a048da68c9e4df8b4060a086c92ec8223a213b530121036587eb81e26bcf62492f712a670c585fdca0ea08b5533d1d5678ae3397975b10", "asm": "304402203c6afdbd636d6fc25f27a23ce1b661c34a4dccf0bc282b7df0b33c54c2d81c6d02207f9caec707366ca7a6d5f4e8a048da68c9e4df8b4060a086c92ec8223a213b53[ALL] 036587eb81e26bcf62492f712a670c585fdca0ea08b5533d1d5678ae3397975b10"}, "vout": 1, "txid": "ad7e6431103eeda330577c40fb8ad9a2514775851f25648b3b88aa723681ba56"}], "txid": "e5a22edfec46189b643e00d8cc2a5250c7f22d4fdd15840f8435c6d81a071628", "blocktime": 1537873891, "version": 1, "confirmations": 11477, "time": 1537873891, "locktime": 0, "vsize": 223, "size": 223}