{"hash": "e5a53106de3d125c13adf5862cbe28dec9e4c4c1900311c6a9c8458368458819", "blockhash": "00000000000000000017f5eb5941039fbcee6240d03bc1f2f8e35350df66a1d8", "vout": [{"scriptPubKey": {"type": "nulldata", "hex": "6a4c50000077fc0001024291d4c6f5cc6431af6411d19ed074892d00f8e87af8e8e963c7cfd5b9f682f669bcef1809ebfb471da22bee5d5baa19670613a51606938be4bc9a9526289ac0f6612cd74e33776ee4", "asm": "OP_RETURN 000077fc0001024291d4c6f5cc6431af6411d19ed074892d00f8e87af8e8e963c7cfd5b9f682f669bcef1809ebfb471da22bee5d5baa19670613a51606938be4bc9a9526289ac0f6612cd74e33776ee4"}, "value": 0.0, "n": 0}, {"scriptPubKey": {"reqSigs": 1, "hex": "76a914af5db7a4f93432a643984e5127ecde8d532f327c88ac", "addresses": ["1GzFXAfs1aahSt9z1186pS83gxq8kzU2JB"], "asm": "OP_DUP OP_HASH160 af5db7a4f93432a643984e5127ecde8d532f327c OP_EQUALVERIFY OP_CHECKSIG", "type": "pubkeyhash"}, "value": 0.00101064, "n": 1}], "hex": "0100000001e69566ce2283e92a722fce41b155609a0b6fcad81aaf816bb41669331587d4ac010000006a473044022007b8b9dda8750191f985ccdb0eabec43672454496431b1314a44ccf7c9693b9e02206113745133899b5845c21d2eae72afcd9831f0428f480d292ac116516eeb61f801210284f0ad09f56d9c8263309f1a2cb7c136b4f5f09363db6f2e7d31c7dcc18e9876ffffffff020000000000000000536a4c50000077fc0001024291d4c6f5cc6431af6411d19ed074892d00f8e87af8e8e963c7cfd5b9f682f669bcef1809ebfb471da22bee5d5baa19670613a51606938be4bc9a9526289ac0f6612cd74e33776ee4c88a0100000000001976a914af5db7a4f93432a643984e5127ecde8d532f327c88ac00000000", "vin": [{"sequence": 4294967295, "scriptSig": {"hex": "473044022007b8b9dda8750191f985ccdb0eabec43672454496431b1314a44ccf7c9693b9e02206113745133899b5845c21d2eae72afcd9831f0428f480d292ac116516eeb61f801210284f0ad09f56d9c8263309f1a2cb7c136b4f5f09363db6f2e7d31c7dcc18e9876", "asm": "3044022007b8b9dda8750191f985ccdb0eabec43672454496431b1314a44ccf7c9693b9e02206113745133899b5845c21d2eae72afcd9831f0428f480d292ac116516eeb61f8[ALL] 0284f0ad09f56d9c8263309f1a2cb7c136b4f5f09363db6f2e7d31c7dcc18e9876"}, "vout": 1, "txid": "acd48715336916b46b81af1ad8ca6f0b9a6055b141ce2f722ae98322ce6695e6"}], "txid": "e5a53106de3d125c13adf5862cbe28dec9e4c4c1900311c6a9c8458368458819", "blocktime": 1537874412, "version": 1, "confirmations": 11467, "time": 1537874412, "locktime": 0, "vsize": 283, "size": 283}