{"hash": "37b83393b26d3e811a43d6d6fc11d2bca6e398062067d60274915b15aab8f041", "blockhash": "0000000000000000001f76057863aec43deb6fa401d9628bb513d65a8098bfab", "vout": [{"scriptPubKey": {"reqSigs": 1, "hex": "76a914f97d3a1583b167219f81b9ccf97f10b71520836988ac", "addresses": ["1PkBGgbYjxL27facVgei2xn4Q7EWTDc3za"], "asm": "OP_DUP OP_HASH160 f97d3a1583b167219f81b9ccf97f10b715208369 OP_EQUALVERIFY OP_CHECKSIG", "type": "pubkeyhash"}, "value": 0.0070336, "n": 0}, {"scriptPubKey": {"reqSigs": 1, "hex": "a914f1bb59fac741a9987d5147132f83f95b582f497787", "addresses": ["3PjBDBde5dYJe3kv39G9zvzPAVuDR6jCa2"], "asm": "OP_HASH160 f1bb59fac741a9987d5147132f83f95b582f4977 OP_EQUAL", "type": "scripthash"}, "value": 0.00999724, "n": 1}], "hex": "0200000000010296ef9639db45c1891fa44591efd730c2d5a6a031faaab201637bbdb1f41bb19507000000171600149dc242625296ad5c8ea2546045d179289292ce8ffeffffffaaf48e569296de01b26ad177b7b6840718644d1a5d2101e9026e86496a4bc2f60900000017160014fe96d1f1ea6ed16e8af4e149d14e5d2a20111d35feffffff0280bb0a00000000001976a914f97d3a1583b167219f81b9ccf97f10b71520836988ac2c410f000000000017a914f1bb59fac741a9987d5147132f83f95b582f49778702483045022100aec39e814b81eadd1b6caa5545ac1396f0cff88958bc6d7bf00df7655b24cdf902204b3358786bdef3fea7acb4c84d4d967d64a36089fe837ef791a04f3abb7e2a71012102ab204064f73f4ade2bea5b1d0aa3caf541c906ed9093a8781f5ce11672d537e002483045022100be9d627d09518017d92f1efa870c910ae9d3a830439b350b51703ef08777fb4a022071c90e900d82f793687bb6e176dbf65d9b2d1f105a2f36181b6f2fa9417caaa201210260299f22c23e75ef31c88271e0757a48a3e27e44b7f36af0ab719c13841de5a504490800", "vin": [{"txinwitness": ["3045022100aec39e814b81eadd1b6caa5545ac1396f0cff88958bc6d7bf00df7655b24cdf902204b3358786bdef3fea7acb4c84d4d967d64a36089fe837ef791a04f3abb7e2a7101", "02ab204064f73f4ade2bea5b1d0aa3caf541c906ed9093a8781f5ce11672d537e0"], "sequence": 4294967294, "scriptSig": {"hex": "1600149dc242625296ad5c8ea2546045d179289292ce8f", "asm": "00149dc242625296ad5c8ea2546045d179289292ce8f"}, "vout": 7, "txid": "95b11bf4b1bd7b6301b2aafa31a0a6d5c230d7ef9145a41f89c145db3996ef96"}, {"txinwitness": ["3045022100be9d627d09518017d92f1efa870c910ae9d3a830439b350b51703ef08777fb4a022071c90e900d82f793687bb6e176dbf65d9b2d1f105a2f36181b6f2fa9417caaa201", "0260299f22c23e75ef31c88271e0757a48a3e27e44b7f36af0ab719c13841de5a5"], "sequence": 4294967294, "scriptSig": {"hex": "160014fe96d1f1ea6ed16e8af4e149d14e5d2a20111d35", "asm": "0014fe96d1f1ea6ed16e8af4e149d14e5d2a20111d35"}, "vout": 9, "txid": "f6c24b6a49866e02e901215d1a4d64180784b6b777d16ab201de9692568ef4aa"}], "txid": "e5a67201c747038d664c29d53de901e48d979623e0a2396f142e695895976605", "blocktime": 1537873891, "version": 2, "confirmations": 11478, "time": 1537873891, "locktime": 542980, "vsize": 259, "size": 422}