{"hash": "e5aced32663c15da926ff35e7293ebc34f725db4cb6cb47079bf2d6c925060b4", "blockhash": "00000000000000000017f5eb5941039fbcee6240d03bc1f2f8e35350df66a1d8", "vout": [{"scriptPubKey": {"reqSigs": 1, "hex": "76a9147fc7eff270495bf7ccd832bb0999963d08942b4c88ac", "addresses": ["1CeeLFT4eiTR1t3ZcaZGrKnFccWe5njLCP"], "asm": "OP_DUP OP_HASH160 7fc7eff270495bf7ccd832bb0999963d08942b4c OP_EQUALVERIFY OP_CHECKSIG", "type": "pubkeyhash"}, "value": 4.879e-05, "n": 0}, {"scriptPubKey": {"reqSigs": 1, "hex": "76a914b6db077c6eca746d8fa826c4a16d7aed91b4e84888ac", "addresses": ["1HfrNLEqHkXKf52iH5jGVy7vQcnNZUrer1"], "asm": "OP_DUP OP_HASH160 b6db077c6eca746d8fa826c4a16d7aed91b4e848 OP_EQUALVERIFY OP_CHECKSIG", "type": "pubkeyhash"}, "value": 0.0014067, "n": 1}], "hex": "01000000028a938463a79086a55321b3e5fc567e4c208e07c0c456166545a458aff7bf761a000000006a47304402207fb2c03d469c3e5377e94e17cc6c985aff9b27f95c9629a5810706705be7649e02204fcf19d9566dd1e6b4eacaf479a6d4cf428d07aa11d5a8b6a2ae0fc47d73202d012102dc44dd0090973089a913f8f729ac0d115f45d90ac46f5ff3f848a497aa3ee45bffffffff0fcf8350614a3f12e88f8acf8ca7587d6c2877bd34085110ae3d188c378710be000000006b483045022100d7ce89d5c9132deac19c30f3b320f2cd0e9d46841fd8105c6344051d89fdf65c022065c1942972caa2a84ecbf0eb913ceb504f27949260367513c4afbad6ed27eba2012102eef75d8a2d77baf32ca35f0bef2fe91d2cad9c470e531efefe4c8ca0bdd22977ffffffff020f130000000000001976a9147fc7eff270495bf7ccd832bb0999963d08942b4c88ac7e250200000000001976a914b6db077c6eca746d8fa826c4a16d7aed91b4e84888ac00000000", "vin": [{"sequence": 4294967295, "scriptSig": {"hex": "47304402207fb2c03d469c3e5377e94e17cc6c985aff9b27f95c9629a5810706705be7649e02204fcf19d9566dd1e6b4eacaf479a6d4cf428d07aa11d5a8b6a2ae0fc47d73202d012102dc44dd0090973089a913f8f729ac0d115f45d90ac46f5ff3f848a497aa3ee45b", "asm": "304402207fb2c03d469c3e5377e94e17cc6c985aff9b27f95c9629a5810706705be7649e02204fcf19d9566dd1e6b4eacaf479a6d4cf428d07aa11d5a8b6a2ae0fc47d73202d[ALL] 02dc44dd0090973089a913f8f729ac0d115f45d90ac46f5ff3f848a497aa3ee45b"}, "vout": 0, "txid": "1a76bff7af58a445651656c4c0078e204c7e56fce5b32153a58690a76384938a"}, {"sequence": 4294967295, "scriptSig": {"hex": "483045022100d7ce89d5c9132deac19c30f3b320f2cd0e9d46841fd8105c6344051d89fdf65c022065c1942972caa2a84ecbf0eb913ceb504f27949260367513c4afbad6ed27eba2012102eef75d8a2d77baf32ca35f0bef2fe91d2cad9c470e531efefe4c8ca0bdd22977", "asm": "3045022100d7ce89d5c9132deac19c30f3b320f2cd0e9d46841fd8105c6344051d89fdf65c022065c1942972caa2a84ecbf0eb913ceb504f27949260367513c4afbad6ed27eba2[ALL] 02eef75d8a2d77baf32ca35f0bef2fe91d2cad9c470e531efefe4c8ca0bdd22977"}, "vout": 0, "txid": "be1087378c183dae10510834bd77286c7d58a78ccf8a8fe8123f4a615083cf0f"}], "txid": "e5aced32663c15da926ff35e7293ebc34f725db4cb6cb47079bf2d6c925060b4", "blocktime": 1537874412, "version": 1, "confirmations": 11468, "time": 1537874412, "locktime": 0, "vsize": 373, "size": 373}