{"hash": "e5ac5f0be856abe4d331812dd03e20e1c55d61acb9111fa7b4617ef6238f005f", "blockhash": "0000000000000000001cda96e906b7601b7a6fb1a3b62bca570a9e5d8f4b3de1", "vout": [{"scriptPubKey": {"reqSigs": 1, "hex": "76a9140a3d630d8a3156f90b75d81ea62dbc32c9d65c3b88ac", "addresses": ["1w9JA5yjYAJmjcvphRvW6Lw6cJJ7eqpju"], "asm": "OP_DUP OP_HASH160 0a3d630d8a3156f90b75d81ea62dbc32c9d65c3b OP_EQUALVERIFY OP_CHECKSIG", "type": "pubkeyhash"}, "value": 2.9e-05, "n": 0}, {"scriptPubKey": {"reqSigs": 1, "hex": "76a9140a3993cc891ce4d234586fac6f7fc2991e1aa30388ac", "addresses": ["1w4jToB7MftXzgDGiTsDFjGQSBUVSsjvp"], "asm": "OP_DUP OP_HASH160 0a3993cc891ce4d234586fac6f7fc2991e1aa303 OP_EQUALVERIFY OP_CHECKSIG", "type": "pubkeyhash"}, "value": 0.0315, "n": 1}], "hex": "01000000022d48004d076990fa2f9beebcdb7bbdeff17567ed139ac2a2c9832850f8c16ab7000000006b483045022100d74eb3d6cf22e3a5ed266f291516f5eed0c95c45c231c2405eee318e112c09670220541177e66281ae783aafd30549b2e450d66a82c712bdd6babc1dcb323131e95a0121029afa863215703f3880cafc0f9696884d31277c761a2f3bc4a88133da1d71c912ffffffff2ee85a73d88d3605e6f7402f3f67cc28aa01a1001b532c562d53c60b8e25e0b9000000006b483045022100ff21f52d70c0b4d6762ec8de78fc1132a806109cd6dec8917c4339f4ecd76fc8022001af3d4dfff1cff39620cf5ab9f6a46f48359cbc543665029e2241c0e7738baa012103bba87d3549e51457c47a18b1044f3b25dcabb753a3fbf349ad897b35fdd517c0ffffffff02540b0000000000001976a9140a3d630d8a3156f90b75d81ea62dbc32c9d65c3b88acb0103000000000001976a9140a3993cc891ce4d234586fac6f7fc2991e1aa30388ac00000000", "vin": [{"sequence": 4294967295, "scriptSig": {"hex": "483045022100d74eb3d6cf22e3a5ed266f291516f5eed0c95c45c231c2405eee318e112c09670220541177e66281ae783aafd30549b2e450d66a82c712bdd6babc1dcb323131e95a0121029afa863215703f3880cafc0f9696884d31277c761a2f3bc4a88133da1d71c912", "asm": "3045022100d74eb3d6cf22e3a5ed266f291516f5eed0c95c45c231c2405eee318e112c09670220541177e66281ae783aafd30549b2e450d66a82c712bdd6babc1dcb323131e95a[ALL] 029afa863215703f3880cafc0f9696884d31277c761a2f3bc4a88133da1d71c912"}, "vout": 0, "txid": "b76ac1f8502883c9a2c29a13ed6775f1efbd7bdbbcee9b2ffa9069074d00482d"}, {"sequence": 4294967295, "scriptSig": {"hex": "483045022100ff21f52d70c0b4d6762ec8de78fc1132a806109cd6dec8917c4339f4ecd76fc8022001af3d4dfff1cff39620cf5ab9f6a46f48359cbc543665029e2241c0e7738baa012103bba87d3549e51457c47a18b1044f3b25dcabb753a3fbf349ad897b35fdd517c0", "asm": "3045022100ff21f52d70c0b4d6762ec8de78fc1132a806109cd6dec8917c4339f4ecd76fc8022001af3d4dfff1cff39620cf5ab9f6a46f48359cbc543665029e2241c0e7738baa[ALL] 03bba87d3549e51457c47a18b1044f3b25dcabb753a3fbf349ad897b35fdd517c0"}, "vout": 0, "txid": "b9e0258e0bc6532d562c531b00a101aa28cc673f2f40f7e605368dd8735ae82e"}], "txid": "e5ac5f0be856abe4d331812dd03e20e1c55d61acb9111fa7b4617ef6238f005f", "blocktime": 1537873282, "version": 1, "confirmations": 11484, "time": 1537873282, "locktime": 0, "vsize": 374, "size": 374}