{"hash": "2dc7256ffab9aee7e1ccf26c89824b0d0a795096c243c5f0d455b5e04f4136dc", "blockhash": "0000000000000000000e13cef7c366c0283d82e591d1acd082e914b08063cdf1", "vout": [{"scriptPubKey": {"reqSigs": 1, "hex": "76a914f65dfc6ce1970ddcee12c8ca3c2d41382b33689888ac", "addresses": ["1PTfpTNC5XdYyp5Ti5desaWpWidygPQug2"], "asm": "OP_DUP OP_HASH160 f65dfc6ce1970ddcee12c8ca3c2d41382b336898 OP_EQUALVERIFY OP_CHECKSIG", "type": "pubkeyhash"}, "value": 0.002542, "n": 0}, {"scriptPubKey": {"reqSigs": 1, "hex": "001437d921ae509ec63424278c4cdc42044ef91f7ff2", "addresses": ["bc1qxlvjrtjsnmrrgfp833xdcssyfmu37lljp7kt5s"], "asm": "0 37d921ae509ec63424278c4cdc42044ef91f7ff2", "type": "witness_v0_keyhash"}, "value": 1.275e-05, "n": 1}], "hex": "01000000000101632fee70835bb59627520c03cd528901e9db63ecb06c16383585d56d55250dea0100000000ffffffff02f8e00300000000001976a914f65dfc6ce1970ddcee12c8ca3c2d41382b33689888acfb0400000000000016001437d921ae509ec63424278c4cdc42044ef91f7ff202483045022100ab3e95d234d6c10c7cdc98df1a609cf710fe9f3efd84a83cb411677e090cdfd30220097b5552574c6042f880588ff77c92bfaa20e62ee4f12f9494b34bfdd8c4b69301210302ff74c0be102664a28b25b1a474453c9d95fc61dbee4c51592b76d001e2bfa800000000", "vin": [{"txinwitness": ["3045022100ab3e95d234d6c10c7cdc98df1a609cf710fe9f3efd84a83cb411677e090cdfd30220097b5552574c6042f880588ff77c92bfaa20e62ee4f12f9494b34bfdd8c4b69301", "0302ff74c0be102664a28b25b1a474453c9d95fc61dbee4c51592b76d001e2bfa8"], "sequence": 4294967295, "scriptSig": {"hex": "", "asm": ""}, "vout": 1, "txid": "ea0d25556dd5853538166cb0ec63dbe9018952cd030c522796b55b8370ee2f63"}], "txid": "e5ae9c1ae9d9746d39640d845a8838a78682fbe57e89fcd425f0c39042685271", "blocktime": 1537871767, "version": 1, "confirmations": 11495, "time": 1537871767, "locktime": 0, "vsize": 144, "size": 226}