{"hash": "e5ae0043b8cac0bf75690bc0071c3cb18c33e1ba6dbc6e54ea8064e120f94a2e", "blockhash": "0000000000000000001f76057863aec43deb6fa401d9628bb513d65a8098bfab", "vout": [{"scriptPubKey": {"reqSigs": 1, "hex": "76a914248436fd1cf67aa942e9c6f0c1de7a8151c5024688ac", "addresses": ["14L5iMNXhCPcRs82maevgzTyswFZALdAUd"], "asm": "OP_DUP OP_HASH160 248436fd1cf67aa942e9c6f0c1de7a8151c50246 OP_EQUALVERIFY OP_CHECKSIG", "type": "pubkeyhash"}, "value": 0.00997457, "n": 0}, {"scriptPubKey": {"reqSigs": 1, "hex": "76a914305360a4da327229ba58a782730e8022cdc9b9b288ac", "addresses": ["15QXKNzcQCDEvu3LdP8aNe45fhE6ULGxFk"], "asm": "OP_DUP OP_HASH160 305360a4da327229ba58a782730e8022cdc9b9b2 OP_EQUALVERIFY OP_CHECKSIG", "type": "pubkeyhash"}, "value": 0.48245714, "n": 1}], "hex": "020000000537bcbc8edf782fbff13823b5717b08f5c9b3581f6ed3bb16af3fbe0a67a3bb36000000006b483045022100fdcacff0378542796e1ae99c4d32cb69b4fe2391e311c3a0af4be12fa0e0deda022048a2e41e953e7b16e52e24eaca77ad23ed78c490a3f6b4efeb91e0e99486007f012102ce3b4438bf9965fa5d33e4121ee121dfdeb296a0c9ee6839dbf876a169a473b0feffffffd3d7399ad9a2540ed5cd4d2b70107ed84eb30a7dceb807425e5d914be5f7f955000000006a47304402202b9690e0bd293ee26d3446ff098607cf77a5d4616869461b2c0e4e0f7fa2395802205eaa7abdcebc396ac7d3c4a07d5149d1547c6dd09bb378010cdf14e16dc5847f01210321de74890bd1fa2d49ee0b5515b320eb2b654ceac8c1bd86725c3fb9064722e2feffffff222e0f87f11a21135dc769a30ccd2e2437ecb839711bbaf72c41b10b268183fb010000006b483045022100927e36b29ed4b548948f66d8b095b8c293eb2daf4c7359cb6ef1082d9146a8e40220692b57ba86c8ce577daf5211b6a6c288cff33288528150917d1f167a05461ace01210282290138ed0c47cb59bf40e8e0628ef82c32bf231fb1526284b603673a13bdbbfeffffff786bcc0a0819f06cb2d0d6d5f5a38e20416eb87b4ec80b08830e2a3e4870610d050000006a47304402204e4023f9d823aa07b3f27ef5e83dd3a4dd6b6f5e3af568ea5f5d89718f57509502202cea0c659405c0b355d4cd6e6c7710d15207b498f426425bc8911b030f11220f0121038a79dd4a290be24145eea9f8365acfbabbd0757b0b5233049a012281417f7588feffffffc885216c04a050c329ff6a5b905c9d52e4b131292c06aa23a275afb33a64d17e000000006b483045022100c3fed80cf7f86892f10798d659ecfcf182cde8fc783e62d2914d4b2aefb4159902207c6d6fa7436b231e071f55f551e49b6078870e6f54575f945b7a635e23168f52012103840f672174c19fb0a4ae6cfa7dc41d7e8106181b329cb8ee482b6daf9aa645d2feffffff0251380f00000000001976a914248436fd1cf67aa942e9c6f0c1de7a8151c5024688acd22be002000000001976a914305360a4da327229ba58a782730e8022cdc9b9b288ac13490800", "vin": [{"sequence": 4294967294, "scriptSig": {"hex": "483045022100fdcacff0378542796e1ae99c4d32cb69b4fe2391e311c3a0af4be12fa0e0deda022048a2e41e953e7b16e52e24eaca77ad23ed78c490a3f6b4efeb91e0e99486007f012102ce3b4438bf9965fa5d33e4121ee121dfdeb296a0c9ee6839dbf876a169a473b0", "asm": "3045022100fdcacff0378542796e1ae99c4d32cb69b4fe2391e311c3a0af4be12fa0e0deda022048a2e41e953e7b16e52e24eaca77ad23ed78c490a3f6b4efeb91e0e99486007f[ALL] 02ce3b4438bf9965fa5d33e4121ee121dfdeb296a0c9ee6839dbf876a169a473b0"}, "vout": 0, "txid": "36bba3670abe3faf16bbd36e1f58b3c9f5087b71b52338f1bf2f78df8ebcbc37"}, {"sequence": 4294967294, "scriptSig": {"hex": "47304402202b9690e0bd293ee26d3446ff098607cf77a5d4616869461b2c0e4e0f7fa2395802205eaa7abdcebc396ac7d3c4a07d5149d1547c6dd09bb378010cdf14e16dc5847f01210321de74890bd1fa2d49ee0b5515b320eb2b654ceac8c1bd86725c3fb9064722e2", "asm": "304402202b9690e0bd293ee26d3446ff098607cf77a5d4616869461b2c0e4e0f7fa2395802205eaa7abdcebc396ac7d3c4a07d5149d1547c6dd09bb378010cdf14e16dc5847f[ALL] 0321de74890bd1fa2d49ee0b5515b320eb2b654ceac8c1bd86725c3fb9064722e2"}, "vout": 0, "txid": "55f9f7e54b915d5e4207b8ce7d0ab34ed87e10702b4dcdd50e54a2d99a39d7d3"}, {"sequence": 4294967294, "scriptSig": {"hex": "483045022100927e36b29ed4b548948f66d8b095b8c293eb2daf4c7359cb6ef1082d9146a8e40220692b57ba86c8ce577daf5211b6a6c288cff33288528150917d1f167a05461ace01210282290138ed0c47cb59bf40e8e0628ef82c32bf231fb1526284b603673a13bdbb", "asm": "3045022100927e36b29ed4b548948f66d8b095b8c293eb2daf4c7359cb6ef1082d9146a8e40220692b57ba86c8ce577daf5211b6a6c288cff33288528150917d1f167a05461ace[ALL] 0282290138ed0c47cb59bf40e8e0628ef82c32bf231fb1526284b603673a13bdbb"}, "vout": 1, "txid": "fb8381260bb1412cf7ba1b7139b8ec37242ecd0ca369c75d13211af1870f2e22"}, {"sequence": 4294967294, "scriptSig": {"hex": "47304402204e4023f9d823aa07b3f27ef5e83dd3a4dd6b6f5e3af568ea5f5d89718f57509502202cea0c659405c0b355d4cd6e6c7710d15207b498f426425bc8911b030f11220f0121038a79dd4a290be24145eea9f8365acfbabbd0757b0b5233049a012281417f7588", "asm": "304402204e4023f9d823aa07b3f27ef5e83dd3a4dd6b6f5e3af568ea5f5d89718f57509502202cea0c659405c0b355d4cd6e6c7710d15207b498f426425bc8911b030f11220f[ALL] 038a79dd4a290be24145eea9f8365acfbabbd0757b0b5233049a012281417f7588"}, "vout": 5, "txid": "0d6170483e2a0e83080bc84e7bb86e41208ea3f5d5d6d0b26cf019080acc6b78"}, {"sequence": 4294967294, "scriptSig": {"hex": "483045022100c3fed80cf7f86892f10798d659ecfcf182cde8fc783e62d2914d4b2aefb4159902207c6d6fa7436b231e071f55f551e49b6078870e6f54575f945b7a635e23168f52012103840f672174c19fb0a4ae6cfa7dc41d7e8106181b329cb8ee482b6daf9aa645d2", "asm": "3045022100c3fed80cf7f86892f10798d659ecfcf182cde8fc783e62d2914d4b2aefb4159902207c6d6fa7436b231e071f55f551e49b6078870e6f54575f945b7a635e23168f52[ALL] 03840f672174c19fb0a4ae6cfa7dc41d7e8106181b329cb8ee482b6daf9aa645d2"}, "vout": 0, "txid": "7ed1643ab3af75a223aa062c2931b1e4529d5c905b6aff29c350a0046c2185c8"}], "txid": "e5ae0043b8cac0bf75690bc0071c3cb18c33e1ba6dbc6e54ea8064e120f94a2e", "blocktime": 1537873891, "version": 2, "confirmations": 11478, "time": 1537873891, "locktime": 542995, "vsize": 816, "size": 816}