{"hash": "e5b34a5d9a6f0f0b455de8ee81994f9f59653e6f624f2efb80dadc07e0a919df", "blockhash": "000000000000000000022b45ed06c6f4ccd3cf7fb5ba4856ebd2e58215665228", "vout": [{"scriptPubKey": {"reqSigs": 1, "hex": "a914669568ab5c9d73c62d3713f1c1505586b178840487", "addresses": ["3B3RqDjbJ8wu2jc2NwiuwsfWQ9EWWiS18i"], "asm": "OP_HASH160 669568ab5c9d73c62d3713f1c1505586b1788404 OP_EQUAL", "type": "scripthash"}, "value": 0.013279, "n": 0}, {"scriptPubKey": {"reqSigs": 1, "hex": "76a9149aa5c1e8c2586caeb11647ce88ee6a53468408ba88ac", "addresses": ["1F6hdaB6Bf2VhHnqSRDGx7MpGXyXAUj9ik"], "asm": "OP_DUP OP_HASH160 9aa5c1e8c2586caeb11647ce88ee6a53468408ba OP_EQUALVERIFY OP_CHECKSIG", "type": "pubkeyhash"}, "value": 0.02687198, "n": 1}], "hex": "010000000285ec2d6bf21f334de1e87a984e6c7487e8bfa29acda38a50e02751e809247883010000006b483045022100f7f7f5e48f2dcea6dbc07c342239119f2ddc7602ed267cfd7229151ec92d33be02206efc1212a62d1f706a01608a808c73d774169258822b9094e050f1fa7baf899a0121034e89910266f783cacabb6ddac2b44bcceaa203016c16f2919155ffab80be446cffffffff087ce8fcad6cf10a315dbb6b22d9a47076c25b81a20080d46a633676607ff567010000006b483045022100919197a17a97065d6a589562eb30af41afe35f38dece1080f32a5dd817326c3d0220456616263d58b576cb59209982da9fc7cb4a99c6f3d7558ab0e26776e7d0561a01210338327e7daa4dc6143929191149bb635f0d21ff65ae71262dcb12899bc7678ad6ffffffff021c4314000000000017a914669568ab5c9d73c62d3713f1c1505586b178840487de002900000000001976a9149aa5c1e8c2586caeb11647ce88ee6a53468408ba88ac00000000", "vin": [{"sequence": 4294967295, "scriptSig": {"hex": "483045022100f7f7f5e48f2dcea6dbc07c342239119f2ddc7602ed267cfd7229151ec92d33be02206efc1212a62d1f706a01608a808c73d774169258822b9094e050f1fa7baf899a0121034e89910266f783cacabb6ddac2b44bcceaa203016c16f2919155ffab80be446c", "asm": "3045022100f7f7f5e48f2dcea6dbc07c342239119f2ddc7602ed267cfd7229151ec92d33be02206efc1212a62d1f706a01608a808c73d774169258822b9094e050f1fa7baf899a[ALL] 034e89910266f783cacabb6ddac2b44bcceaa203016c16f2919155ffab80be446c"}, "vout": 1, "txid": "83782409e85127e0508aa3cd9aa2bfe887746c4e987ae8e14d331ff26b2dec85"}, {"sequence": 4294967295, "scriptSig": {"hex": "483045022100919197a17a97065d6a589562eb30af41afe35f38dece1080f32a5dd817326c3d0220456616263d58b576cb59209982da9fc7cb4a99c6f3d7558ab0e26776e7d0561a01210338327e7daa4dc6143929191149bb635f0d21ff65ae71262dcb12899bc7678ad6", "asm": "3045022100919197a17a97065d6a589562eb30af41afe35f38dece1080f32a5dd817326c3d0220456616263d58b576cb59209982da9fc7cb4a99c6f3d7558ab0e26776e7d0561a[ALL] 0338327e7daa4dc6143929191149bb635f0d21ff65ae71262dcb12899bc7678ad6"}, "vout": 1, "txid": "67f57f607636636ad48000a2815bc27670a4d9226bbb5d310af16cadfce87c08"}], "txid": "e5b34a5d9a6f0f0b455de8ee81994f9f59653e6f624f2efb80dadc07e0a919df", "blocktime": 1537869901, "version": 1, "confirmations": 11522, "time": 1537869901, "locktime": 0, "vsize": 372, "size": 372}