{"hash": "e5b467f2116e5d45c0923243e781c536df5258182e6f7dc0d026270d444f08bd", "blockhash": "0000000000000000001cda96e906b7601b7a6fb1a3b62bca570a9e5d8f4b3de1", "vout": [{"scriptPubKey": {"reqSigs": 1, "hex": "76a9141a54e632a39a522ac41bf4a7a7fa1d54281079f688ac", "addresses": ["13QEGtWfkdqi77Za9U6EycSXUUVJBng8Cm"], "asm": "OP_DUP OP_HASH160 1a54e632a39a522ac41bf4a7a7fa1d54281079f6 OP_EQUALVERIFY OP_CHECKSIG", "type": "pubkeyhash"}, "value": 0.08581017, "n": 0}, {"scriptPubKey": {"reqSigs": 1, "hex": "a914c738d4ebd711f5a4e499dba0f36401dc4e886c3487", "addresses": ["3KrQUTNBzoGgLoPXotxkykKnpPcku6p3ih"], "asm": "OP_HASH160 c738d4ebd711f5a4e499dba0f36401dc4e886c34 OP_EQUAL", "type": "scripthash"}, "value": 0.01908024, "n": 1}], "hex": "0200000001d4d6bc0d3b8cb2b7a31f888ad78d6ff2b695dcb47bf81149397f0d6befa109da000000006b483045022100866f112b1b42c1aeb2d1cb73c41afb4acd61d2e7ec739d789af6ce548be0628f02205380b9b40143d9d60df5c7b69aa705e1f29bc957810df19405184cb793d7d34a01210209a25f160c4d3790be8d396ee7ab48161864dfb5db7395679d58f9c12f3d12a5feffffff0299ef8200000000001976a9141a54e632a39a522ac41bf4a7a7fa1d54281079f688ac381d1d000000000017a914c738d4ebd711f5a4e499dba0f36401dc4e886c348713490800", "vin": [{"sequence": 4294967294, "scriptSig": {"hex": "483045022100866f112b1b42c1aeb2d1cb73c41afb4acd61d2e7ec739d789af6ce548be0628f02205380b9b40143d9d60df5c7b69aa705e1f29bc957810df19405184cb793d7d34a01210209a25f160c4d3790be8d396ee7ab48161864dfb5db7395679d58f9c12f3d12a5", "asm": "3045022100866f112b1b42c1aeb2d1cb73c41afb4acd61d2e7ec739d789af6ce548be0628f02205380b9b40143d9d60df5c7b69aa705e1f29bc957810df19405184cb793d7d34a[ALL] 0209a25f160c4d3790be8d396ee7ab48161864dfb5db7395679d58f9c12f3d12a5"}, "vout": 0, "txid": "da09a1ef6b0d7f394911f87bb4dc95b6f26f8dd78a881fa3b7b28c3b0dbcd6d4"}], "txid": "e5b467f2116e5d45c0923243e781c536df5258182e6f7dc0d026270d444f08bd", "blocktime": 1537873282, "version": 2, "confirmations": 11480, "time": 1537873282, "locktime": 542995, "vsize": 224, "size": 224}