{"hash": "e5b5fd72bee09b454e12d131ff3263f13062d1392fadd35b7787c7d6f53dd301", "blockhash": "0000000000000000001e0dab787dd257d1dbfcb92a98c2207d5e1078be1f4165", "vout": [{"scriptPubKey": {"reqSigs": 1, "hex": "76a91421a299332596457ea5bf68f244329be7d3f9cd8f88ac", "addresses": ["144r5sLRoNhJomGUUBRpYyrUdJDNutqbKs"], "asm": "OP_DUP OP_HASH160 21a299332596457ea5bf68f244329be7d3f9cd8f OP_EQUALVERIFY OP_CHECKSIG", "type": "pubkeyhash"}, "value": 1.836e-05, "n": 0}], "hex": "01000000014beb64f6dcafc783248d2ab0bcc247a2f061fc98dcfd6f6af348e31db1ee428a000000006a473044022024fbffdc5d31129e1e907b62d2a2f6406be31b6ee17673452e93ef2eaaba7fcd022005f9b8d6b306eb311e7ba5d1fc934019a58e992eb7ae6219d5c770ff65470e1b012102542055a7c7767a6eac7bc935d40ebee890557965768006b80ee2adedacb08ad4ffffffff012c070000000000001976a91421a299332596457ea5bf68f244329be7d3f9cd8f88ac00000000", "vin": [{"sequence": 4294967295, "scriptSig": {"hex": "473044022024fbffdc5d31129e1e907b62d2a2f6406be31b6ee17673452e93ef2eaaba7fcd022005f9b8d6b306eb311e7ba5d1fc934019a58e992eb7ae6219d5c770ff65470e1b012102542055a7c7767a6eac7bc935d40ebee890557965768006b80ee2adedacb08ad4", "asm": "3044022024fbffdc5d31129e1e907b62d2a2f6406be31b6ee17673452e93ef2eaaba7fcd022005f9b8d6b306eb311e7ba5d1fc934019a58e992eb7ae6219d5c770ff65470e1b[ALL] 02542055a7c7767a6eac7bc935d40ebee890557965768006b80ee2adedacb08ad4"}, "vout": 0, "txid": "8a42eeb11de348f36a6ffddc98fc61f0a247c2bcb02a8d2483c7afdcf664eb4b"}], "txid": "e5b5fd72bee09b454e12d131ff3263f13062d1392fadd35b7787c7d6f53dd301", "blocktime": 1537872475, "version": 1, "confirmations": 11486, "time": 1537872475, "locktime": 0, "vsize": 191, "size": 191}