{"hash": "f8d6d2d8b4e5839f1c15fdc0d1751a33ea3ae38b6ea96d81c70b9d882e9b23d3", "blockhash": "00000000000000000017f5eb5941039fbcee6240d03bc1f2f8e35350df66a1d8", "vout": [{"scriptPubKey": {"type": "nulldata", "hex": "6a1b476f6f64206d6f726e696e6720626974636f696e20776f726c6421", "asm": "OP_RETURN 476f6f64206d6f726e696e6720626974636f696e20776f726c6421"}, "value": 0.0, "n": 0}, {"scriptPubKey": {"reqSigs": 1, "hex": "a914f8a257d0751504afdeb86a3ded4efd95257fa26d87", "addresses": ["3QMfyufRuJjYemijgvEpsFeFnWFPcsugSU"], "asm": "OP_HASH160 f8a257d0751504afdeb86a3ded4efd95257fa26d OP_EQUAL", "type": "scripthash"}, "value": 6.5e-05, "n": 1}], "hex": "020000000001016a07a9be2ab07a879959826f2b116474aedf9fc9d68395e5fbe177243950306c010000001716001439a00708ee5a3009c0041d30884abf9412df2ef3ffffffff0200000000000000001d6a1b476f6f64206d6f726e696e6720626974636f696e20776f726c6421641900000000000017a914f8a257d0751504afdeb86a3ded4efd95257fa26d870247304402200d7f92257ee4b7c0ad589e6d5cc1d4e54e0522eebdd827885151f51651e2adb30220362866ac53f347a4af3e7bd589fa1531958fb6c6b2b49287d0da000c7e844cb7012102c6fa1d9797da80695855004a8116d8ae8c7dad57194814027c34cda611b768c800000000", "vin": [{"txinwitness": ["304402200d7f92257ee4b7c0ad589e6d5cc1d4e54e0522eebdd827885151f51651e2adb30220362866ac53f347a4af3e7bd589fa1531958fb6c6b2b49287d0da000c7e844cb701", "02c6fa1d9797da80695855004a8116d8ae8c7dad57194814027c34cda611b768c8"], "sequence": 4294967295, "scriptSig": {"hex": "16001439a00708ee5a3009c0041d30884abf9412df2ef3", "asm": "001439a00708ee5a3009c0041d30884abf9412df2ef3"}, "vout": 1, "txid": "6c3050392477e1fbe59583d6c99fdfae7464112b6f825999877ab02abea9076a"}], "txid": "e5bbec04c1633b40b0a5920bcfe9c82c142ddcbd87db949f6304d974567e84e0", "blocktime": 1537874412, "version": 2, "confirmations": 11468, "time": 1537874412, "locktime": 0, "vsize": 172, "size": 253}