{"hash": "e5bd1883872bf42be864e2b3ea6830a71005e010f2787a3002b4d502f1a0ddc5", "blockhash": "0000000000000000001f76057863aec43deb6fa401d9628bb513d65a8098bfab", "vout": [{"scriptPubKey": {"reqSigs": 1, "hex": "a914187c3a2d406791fee0babdda6f1ed44a10b5478787", "addresses": ["33vUxcFPHooskDbgjz9kbyHFxfUutWMAEo"], "asm": "OP_HASH160 187c3a2d406791fee0babdda6f1ed44a10b54787 OP_EQUAL", "type": "scripthash"}, "value": 0.01549031, "n": 0}], "hex": "0100000001e57c8525c0bdad972daa7679c8753cc00fe5caf1d56851e9aab31f170dac27e7000000006b483045022100b780d4801d7fbac91c5f007d9955667864ce35415e1a4240f5c77de667961ca602204a706455e4cd603c7b4012bb7b0eca6209aa3cba2aed57d5ae5c528e09b871fc012102f9650d544520ac15fb594b245275cac82109df394c99d173e11682ec74a7a8e1ffffffff01e7a217000000000017a914187c3a2d406791fee0babdda6f1ed44a10b547878700000000", "vin": [{"sequence": 4294967295, "scriptSig": {"hex": "483045022100b780d4801d7fbac91c5f007d9955667864ce35415e1a4240f5c77de667961ca602204a706455e4cd603c7b4012bb7b0eca6209aa3cba2aed57d5ae5c528e09b871fc012102f9650d544520ac15fb594b245275cac82109df394c99d173e11682ec74a7a8e1", "asm": "3045022100b780d4801d7fbac91c5f007d9955667864ce35415e1a4240f5c77de667961ca602204a706455e4cd603c7b4012bb7b0eca6209aa3cba2aed57d5ae5c528e09b871fc[ALL] 02f9650d544520ac15fb594b245275cac82109df394c99d173e11682ec74a7a8e1"}, "vout": 0, "txid": "e727ac0d171fb3aae95168d5f1cae50fc03c75c87976aa2d97adbdc025857ce5"}], "txid": "e5bd1883872bf42be864e2b3ea6830a71005e010f2787a3002b4d502f1a0ddc5", "blocktime": 1537873891, "version": 1, "confirmations": 11477, "time": 1537873891, "locktime": 0, "vsize": 190, "size": 190}