{"hash": "e5c2e78790340e13ac1f1134772f6c2b010e14ddfbf958462af6a279bb7a5999", "blockhash": "00000000000000000024a2167bbff67b0be802c0b01cdd79e6331c2be6459f87", "vout": [{"scriptPubKey": {"reqSigs": 1, "hex": "76a9149dbad5b326d62599dcb6c8724d054d8110286c3e88ac", "addresses": ["1FNzudDZ7RC4MhwNXW1jFimEgPp5JgzrYp"], "asm": "OP_DUP OP_HASH160 9dbad5b326d62599dcb6c8724d054d8110286c3e OP_EQUALVERIFY OP_CHECKSIG", "type": "pubkeyhash"}, "value": 0.00077458, "n": 0}, {"scriptPubKey": {"reqSigs": 1, "hex": "76a91407cf863c279fc44ed6319245c294734c34f35dd388ac", "addresses": ["1iJLPVb36ETvWVhngi55bHAaeg5qWcXvh"], "asm": "OP_DUP OP_HASH160 07cf863c279fc44ed6319245c294734c34f35dd3 OP_EQUALVERIFY OP_CHECKSIG", "type": "pubkeyhash"}, "value": 0.001567, "n": 1}], "hex": "0100000001736b0671a39473d54f1d3a5fbd6b9848576916bad9e1441191907aad5abd308b000000006a47304402202cf201e055ed10c8ebb7c7989a11068711fd3269583fae9e5fe7b3ff5679d72d022038ecc78a7696aff7b3b1ccb17b3910aa1ad02c3623f0316114722dde28f0b2110121030ea284914df92f028a6d214d896425522b529f8e4822f8d4b7a7638f59566b44ffffffff02922e0100000000001976a9149dbad5b326d62599dcb6c8724d054d8110286c3e88ac1c640200000000001976a91407cf863c279fc44ed6319245c294734c34f35dd388ac00000000", "vin": [{"sequence": 4294967295, "scriptSig": {"hex": "47304402202cf201e055ed10c8ebb7c7989a11068711fd3269583fae9e5fe7b3ff5679d72d022038ecc78a7696aff7b3b1ccb17b3910aa1ad02c3623f0316114722dde28f0b2110121030ea284914df92f028a6d214d896425522b529f8e4822f8d4b7a7638f59566b44", "asm": "304402202cf201e055ed10c8ebb7c7989a11068711fd3269583fae9e5fe7b3ff5679d72d022038ecc78a7696aff7b3b1ccb17b3910aa1ad02c3623f0316114722dde28f0b211[ALL] 030ea284914df92f028a6d214d896425522b529f8e4822f8d4b7a7638f59566b44"}, "vout": 0, "txid": "8b30bd5aad7a90911144e1d9ba16695748986bbd5f3a1d4fd57394a371066b73"}], "txid": "e5c2e78790340e13ac1f1134772f6c2b010e14ddfbf958462af6a279bb7a5999", "blocktime": 1537870564, "version": 1, "confirmations": 11515, "time": 1537870564, "locktime": 0, "vsize": 225, "size": 225}