{"hash": "e5c8f17ca9a5ee5136e04b6b5da5d211658a6ea1007b4332dfc6b84f1f8ca154", "blockhash": "0000000000000000001f76057863aec43deb6fa401d9628bb513d65a8098bfab", "vout": [{"scriptPubKey": {"reqSigs": 1, "hex": "76a914bb1a0430f1c6c5addf90aa81a8dcd3a518f7831188ac", "addresses": ["1J4JXXFJfgeL4j74K5dmf2wasfvYorSDrP"], "asm": "OP_DUP OP_HASH160 bb1a0430f1c6c5addf90aa81a8dcd3a518f78311 OP_EQUALVERIFY OP_CHECKSIG", "type": "pubkeyhash"}, "value": 0.01563, "n": 0}, {"scriptPubKey": {"reqSigs": 1, "hex": "76a91455c6e545fb9ef6d804704eb41618e77cdb44220588ac", "addresses": ["18pYhpDaVoqyDo8h9Mr9V4gMkQG27knfMd"], "asm": "OP_DUP OP_HASH160 55c6e545fb9ef6d804704eb41618e77cdb442205 OP_EQUALVERIFY OP_CHECKSIG", "type": "pubkeyhash"}, "value": 0.07412075, "n": 1}], "hex": "01000000015764bc40b6e71c1e8f5464005f545181b76b5346212cc1ff234346c1e7d40ee5010000006b483045022100e770dfbcd7db495c63e5b17a7c8120b66c9a4bd84dc1c56a1884f8288cfa132802207659b62bee671a8308c0b2834af75959069658430859a57c180d0b464cefd2c3012102811bd7340829c3541d85ae95306733d926467a3f59d8682b8d00353996fccd28fdffffff0278d91700000000001976a914bb1a0430f1c6c5addf90aa81a8dcd3a518f7831188ac6b197100000000001976a91455c6e545fb9ef6d804704eb41618e77cdb44220588ac14490800", "vin": [{"sequence": 4294967293, "scriptSig": {"hex": "483045022100e770dfbcd7db495c63e5b17a7c8120b66c9a4bd84dc1c56a1884f8288cfa132802207659b62bee671a8308c0b2834af75959069658430859a57c180d0b464cefd2c3012102811bd7340829c3541d85ae95306733d926467a3f59d8682b8d00353996fccd28", "asm": "3045022100e770dfbcd7db495c63e5b17a7c8120b66c9a4bd84dc1c56a1884f8288cfa132802207659b62bee671a8308c0b2834af75959069658430859a57c180d0b464cefd2c3[ALL] 02811bd7340829c3541d85ae95306733d926467a3f59d8682b8d00353996fccd28"}, "vout": 1, "txid": "e50ed4e7c1464323ffc12c2146536bb78151545f0064548f1e1ce7b640bc6457"}], "txid": "e5c8f17ca9a5ee5136e04b6b5da5d211658a6ea1007b4332dfc6b84f1f8ca154", "blocktime": 1537873891, "version": 1, "confirmations": 11474, "time": 1537873891, "locktime": 542996, "vsize": 226, "size": 226}