{"hash": "e5c8517bdfc3756a8ee8c782bb9d09a4418b1e5abb71ed79fb2f8c0e065019d3", "blockhash": "00000000000000000018f53835495a110e01622372bf6ae95dc86f2b0ab887b0", "vout": [{"scriptPubKey": {"type": "nulldata", "hex": "6a146f6d6e69000000000000001f000000093c842980", "asm": "OP_RETURN 6f6d6e69000000000000001f000000093c842980"}, "value": 0.0, "n": 0}, {"scriptPubKey": {"reqSigs": 1, "hex": "76a914a25dec4d0011064ef106a983c39c7a540699f22088ac", "addresses": ["1FoWyxwPXuj4C6abqwhjDWdz6D4PZgYRjA"], "asm": "OP_DUP OP_HASH160 a25dec4d0011064ef106a983c39c7a540699f220 OP_EQUALVERIFY OP_CHECKSIG", "type": "pubkeyhash"}, "value": 5.46e-06, "n": 1}, {"scriptPubKey": {"reqSigs": 1, "hex": "76a914ecce07f586afc0406fa16c3ab2a962a3e9282d6988ac", "addresses": ["1Nb7HZfENUBdFVZF7Xd1LuSqUiMgEiD8cw"], "asm": "OP_DUP OP_HASH160 ecce07f586afc0406fa16c3ab2a962a3e9282d69 OP_EQUALVERIFY OP_CHECKSIG", "type": "pubkeyhash"}, "value": 0.00492949, "n": 2}], "hex": "01000000016ef8b2f7e72fc75bbee5d5a3e5c973d1110ae8b9a0819031fa79e1a472319c77000000006a47304402204106e2dda9e70f898322f05dfd2b76db1f8ac3dbb90cb141e6a2a2136013f6c3022059a28336855739220747937cbb47078b7d0db7b120164fc8cc18f1dc4441942f012103bc01f8446ab989965ea91dc0695600dd2c7598605c3eae3cc44ec700cf859052feffffff030000000000000000166a146f6d6e69000000000000001f000000093c84298022020000000000001976a914a25dec4d0011064ef106a983c39c7a540699f22088ac95850700000000001976a914ecce07f586afc0406fa16c3ab2a962a3e9282d6988ac0e490800", "vin": [{"sequence": 4294967294, "scriptSig": {"hex": "47304402204106e2dda9e70f898322f05dfd2b76db1f8ac3dbb90cb141e6a2a2136013f6c3022059a28336855739220747937cbb47078b7d0db7b120164fc8cc18f1dc4441942f012103bc01f8446ab989965ea91dc0695600dd2c7598605c3eae3cc44ec700cf859052", "asm": "304402204106e2dda9e70f898322f05dfd2b76db1f8ac3dbb90cb141e6a2a2136013f6c3022059a28336855739220747937cbb47078b7d0db7b120164fc8cc18f1dc4441942f[ALL] 03bc01f8446ab989965ea91dc0695600dd2c7598605c3eae3cc44ec700cf859052"}, "vout": 0, "txid": "779c3172a4e179fa319081a0b9e80a11d173c9e5a3d5e5be5bc72fe7f7b2f86e"}], "txid": "e5c8517bdfc3756a8ee8c782bb9d09a4418b1e5abb71ed79fb2f8c0e065019d3", "blocktime": 1537870928, "version": 1, "confirmations": 11514, "time": 1537870928, "locktime": 542990, "vsize": 256, "size": 256}