{"hash": "e5ce9cd3051838881f84eba6fc436fd13689d7b97ef71aaedea2dda4d183b999", "blockhash": "0000000000000000000e13cef7c366c0283d82e591d1acd082e914b08063cdf1", "vout": [{"scriptPubKey": {"reqSigs": 1, "hex": "a914ed09a981db53e047b7234f8784085c66191b359187", "addresses": ["3PJMeLwh3mxifAExqZoYEsr21JtxEp5GNX"], "asm": "OP_HASH160 ed09a981db53e047b7234f8784085c66191b3591 OP_EQUAL", "type": "scripthash"}, "value": 0.075432, "n": 0}, {"scriptPubKey": {"type": "nulldata", "hex": "6a20307db6cdfee4b465860d96936859f8e0a6450971f08aad194e611fd0dc26885f", "asm": "OP_RETURN 307db6cdfee4b465860d96936859f8e0a6450971f08aad194e611fd0dc26885f"}, "value": 0.0, "n": 1}], "hex": "0100000002fd128bc90e5e9969a7c12b24476afc519840d2c15054d7ece645ea310b60a7c0010000006a47304402203a6cb19a94acd524e050281d8db20b0015a0015dcffa57a61ac0fd1c36071981022014e5f6744aca3644776cb24ad56b947dfe5c6d2254b69995463ab6067e7d39a6012103ef25a884dc4173d63fd56004a1c76858c85ca4b5e6fc76f7b21c5c2033310a0affffffffb687406b762f5be1da6d04ccb9ea92b7ca3cdf5382dbc1866a59541a8b23cdfb010000006b483045022100fdad5e8496655dc23a37b18cc56f7e362586ea46e4223e12321b74fcec5ac179022032de11e0470abf5b4c04c52724103e60dcf5cb74f009baa462f6115904eda22a0121036f38295545ba639157400d8f16dd8ecf803c3ecfe27a2592ae39a6a0b3c9e437ffffffff02a01973000000000017a914ed09a981db53e047b7234f8784085c66191b3591870000000000000000226a20307db6cdfee4b465860d96936859f8e0a6450971f08aad194e611fd0dc26885f00000000", "vin": [{"sequence": 4294967295, "scriptSig": {"hex": "47304402203a6cb19a94acd524e050281d8db20b0015a0015dcffa57a61ac0fd1c36071981022014e5f6744aca3644776cb24ad56b947dfe5c6d2254b69995463ab6067e7d39a6012103ef25a884dc4173d63fd56004a1c76858c85ca4b5e6fc76f7b21c5c2033310a0a", "asm": "304402203a6cb19a94acd524e050281d8db20b0015a0015dcffa57a61ac0fd1c36071981022014e5f6744aca3644776cb24ad56b947dfe5c6d2254b69995463ab6067e7d39a6[ALL] 03ef25a884dc4173d63fd56004a1c76858c85ca4b5e6fc76f7b21c5c2033310a0a"}, "vout": 1, "txid": "c0a7600b31ea45e6ecd75450c1d2409851fc6a47242bc1a769995e0ec98b12fd"}, {"sequence": 4294967295, "scriptSig": {"hex": "483045022100fdad5e8496655dc23a37b18cc56f7e362586ea46e4223e12321b74fcec5ac179022032de11e0470abf5b4c04c52724103e60dcf5cb74f009baa462f6115904eda22a0121036f38295545ba639157400d8f16dd8ecf803c3ecfe27a2592ae39a6a0b3c9e437", "asm": "3045022100fdad5e8496655dc23a37b18cc56f7e362586ea46e4223e12321b74fcec5ac179022032de11e0470abf5b4c04c52724103e60dcf5cb74f009baa462f6115904eda22a[ALL] 036f38295545ba639157400d8f16dd8ecf803c3ecfe27a2592ae39a6a0b3c9e437"}, "vout": 1, "txid": "fbcd238b1a54596a86c1db8253df3ccab792eab9cc046ddae15b2f766b4087b6"}], "txid": "e5ce9cd3051838881f84eba6fc436fd13689d7b97ef71aaedea2dda4d183b999", "blocktime": 1537871767, "version": 1, "confirmations": 11491, "time": 1537871767, "locktime": 0, "vsize": 380, "size": 380}