{"hash": "4a5bccaf8ea846f7dbebecb07036a1b4f5b9992641f2a7dd17682dbeb7f16088", "blockhash": "0000000000000000000baef3f32e3676a92c3b2e5da21b426e4f302fc371ce76", "vout": [{"scriptPubKey": {"reqSigs": 1, "hex": "a9148504d19aa00175ac7528074b8c785f7d76f5918387", "addresses": ["3DpMZsTysTEeChuPi5UYWi32dLLkijKEQE"], "asm": "OP_HASH160 8504d19aa00175ac7528074b8c785f7d76f59183 OP_EQUAL", "type": "scripthash"}, "value": 0.01002288, "n": 0}, {"scriptPubKey": {"reqSigs": 1, "hex": "a9140cc48cbff5ee620eac03601dd11c376286e5013687", "addresses": ["32rXVN9sL3otLhLMAC1QFV8Bcy8xKjCEjP"], "asm": "OP_HASH160 0cc48cbff5ee620eac03601dd11c376286e50136 OP_EQUAL", "type": "scripthash"}, "value": 0.17415253, "n": 1}], "hex": "01000000000101b4a3056cc38743ae7f9a38c58040b514a8e689fb7db7c73f9b888958d0ef27440100000023220020f33b102f4c41be41857bb8a68dd58495516dd99bd977968df14370fd2cce3e7dffffffff02304b0f000000000017a9148504d19aa00175ac7528074b8c785f7d76f591838755bc09010000000017a9140cc48cbff5ee620eac03601dd11c376286e5013687040047304402204d25e84cd178d6b84a7c55ac707436eb364a96a119210f34327969ce4ac970ae0220300d74c7307d83ee3f4600f0009c2c70391bb9887993f2a93d2aeb6480c6aef701483045022100e3bfcfc541185a1d62e98503bb4a440d9ed5044d0f6110422f92d0449b59acf802207ba32c39a8542f44772331d3c696c7a13ebb20c2c7e9163b961280074f4f184901475221020317b3881331ddbf65ba5447815f37e20d60672a2ed00b658dd144daf82641b821038f2c7ecee34c843be9d886e50ce79e5dc40a1694c0417d60b35340f292ff73fc52ae00000000", "vin": [{"txinwitness": ["", "304402204d25e84cd178d6b84a7c55ac707436eb364a96a119210f34327969ce4ac970ae0220300d74c7307d83ee3f4600f0009c2c70391bb9887993f2a93d2aeb6480c6aef701", "3045022100e3bfcfc541185a1d62e98503bb4a440d9ed5044d0f6110422f92d0449b59acf802207ba32c39a8542f44772331d3c696c7a13ebb20c2c7e9163b961280074f4f184901", "5221020317b3881331ddbf65ba5447815f37e20d60672a2ed00b658dd144daf82641b821038f2c7ecee34c843be9d886e50ce79e5dc40a1694c0417d60b35340f292ff73fc52ae"], "sequence": 4294967295, "scriptSig": {"hex": "220020f33b102f4c41be41857bb8a68dd58495516dd99bd977968df14370fd2cce3e7d", "asm": "0020f33b102f4c41be41857bb8a68dd58495516dd99bd977968df14370fd2cce3e7d"}, "vout": 1, "txid": "4427efd05889889b3fc7b77dfb89e6a814b54080c5389a7fae4387c36c05a3b4"}], "txid": "e5d0dfbdb7d7f1e7e80c97b4e05b1bf1e519ed8484acb0f084a7c80c1ae0ce49", "blocktime": 1537876114, "version": 1, "confirmations": 11462, "time": 1537876114, "locktime": 0, "vsize": 206, "size": 371}