{"hash": "e5d319907ae30eda3324a4bc83ac28da16a326803cf0805cdc4aead1d210b27b", "blockhash": "00000000000000000024a2167bbff67b0be802c0b01cdd79e6331c2be6459f87", "vout": [{"scriptPubKey": {"reqSigs": 1, "hex": "76a91436dad844e7250e9d693f7e056320108de3d35d3288ac", "addresses": ["1613exotZaE9Wip8ExAHJ9vWgNyZc8ubvJ"], "asm": "OP_DUP OP_HASH160 36dad844e7250e9d693f7e056320108de3d35d32 OP_EQUALVERIFY OP_CHECKSIG", "type": "pubkeyhash"}, "value": 0.00593381, "n": 0}, {"scriptPubKey": {"reqSigs": 1, "hex": "76a914eaf678c3e5b07971cb8f84a35dcabdec242ec9ce88ac", "addresses": ["1NRNP3cJuVayRopjf7BCV2ZgURSn2cKCBa"], "asm": "OP_DUP OP_HASH160 eaf678c3e5b07971cb8f84a35dcabdec242ec9ce OP_EQUALVERIFY OP_CHECKSIG", "type": "pubkeyhash"}, "value": 0.607, "n": 1}], "hex": "01000000020adc99a59727c63a1842633e4b7802fe8cfd5d9502bf49e8f4bfe92a46e8df2e000000006a47304402205a5609efebb16541f0bca176fb35d5149ebd206cfd5bbdeb1f958443baf4320c02200a66713eb6e1afd331deeea03e090eb1441ee7177b92c947009b315d97a360c20121023a1085854a74d7634a67b7f18801bc180b3b49f8111743d5fb5094e0536a8758ffffffff8c6de49e0463be84cfc7e60be23658ad5c7f4b2c7c92e7b39d43977158ba7e57010000006a47304402202a19a298e8721e58cfdc6d29f0d86761bddab1cb58dd2d681208f038636f67140220360b80eeb7247fd64e941edc616913ef9b22b2e0b3e6da5e98f00af54e655b2d01210346c27d1258544a970134b5f8de80a35138bfa951d17aef9aaedde338c42aff91ffffffff02e50d0900000000001976a91436dad844e7250e9d693f7e056320108de3d35d3288ac60359e03000000001976a914eaf678c3e5b07971cb8f84a35dcabdec242ec9ce88ac00000000", "vin": [{"sequence": 4294967295, "scriptSig": {"hex": "47304402205a5609efebb16541f0bca176fb35d5149ebd206cfd5bbdeb1f958443baf4320c02200a66713eb6e1afd331deeea03e090eb1441ee7177b92c947009b315d97a360c20121023a1085854a74d7634a67b7f18801bc180b3b49f8111743d5fb5094e0536a8758", "asm": "304402205a5609efebb16541f0bca176fb35d5149ebd206cfd5bbdeb1f958443baf4320c02200a66713eb6e1afd331deeea03e090eb1441ee7177b92c947009b315d97a360c2[ALL] 023a1085854a74d7634a67b7f18801bc180b3b49f8111743d5fb5094e0536a8758"}, "vout": 0, "txid": "2edfe8462ae9bff4e849bf02955dfd8cfe02784b3e6342183ac62797a599dc0a"}, {"sequence": 4294967295, "scriptSig": {"hex": "47304402202a19a298e8721e58cfdc6d29f0d86761bddab1cb58dd2d681208f038636f67140220360b80eeb7247fd64e941edc616913ef9b22b2e0b3e6da5e98f00af54e655b2d01210346c27d1258544a970134b5f8de80a35138bfa951d17aef9aaedde338c42aff91", "asm": "304402202a19a298e8721e58cfdc6d29f0d86761bddab1cb58dd2d681208f038636f67140220360b80eeb7247fd64e941edc616913ef9b22b2e0b3e6da5e98f00af54e655b2d[ALL] 0346c27d1258544a970134b5f8de80a35138bfa951d17aef9aaedde338c42aff91"}, "vout": 1, "txid": "577eba587197439db3e7927c2c4b7f5cad5836e20be6c7cf84be63049ee46d8c"}], "txid": "e5d319907ae30eda3324a4bc83ac28da16a326803cf0805cdc4aead1d210b27b", "blocktime": 1537870564, "version": 1, "confirmations": 11515, "time": 1537870564, "locktime": 0, "vsize": 372, "size": 372}