{"hash": "e5e2f5a39b5adbd08bc788482092c7c20876efb4c497cd255bc3d29cd2e8300e", "blockhash": "00000000000000000024a2167bbff67b0be802c0b01cdd79e6331c2be6459f87", "vout": [{"scriptPubKey": {"reqSigs": 1, "hex": "76a914eb3e324f3f43f7bc4243db76787c6078969591d588ac", "addresses": ["1NSrJa5HKKMRYnkSrdHu2E8x9JvXc1FzAS"], "asm": "OP_DUP OP_HASH160 eb3e324f3f43f7bc4243db76787c6078969591d5 OP_EQUALVERIFY OP_CHECKSIG", "type": "pubkeyhash"}, "value": 0.00191727, "n": 0}, {"scriptPubKey": {"reqSigs": 1, "hex": "76a9146b5567560c0315eb20e2a7c11472d693caac408288ac", "addresses": ["1AnXcUc79yxS8HvUiQDHrVMiLsEtd7WZPd"], "asm": "OP_DUP OP_HASH160 6b5567560c0315eb20e2a7c11472d693caac4082 OP_EQUALVERIFY OP_CHECKSIG", "type": "pubkeyhash"}, "value": 0.00199275, "n": 1}], "hex": "01000000018645f78696f951e46403324d1907ded2d141e3c57befd54a9dc5943b1e61d950010000006a47304402207b551118d3bc41fc6ca76785bf0b9ca1fe3cf2f366dd0f99ef3ffce91c569d0802201353ece679d9fd4bc38dd275c9cd1f463033779145636f30486f57c466fca6a601210283d6dcf9242b69051c8ff0efa7c44348aa1790625976600379e20d9e5fca34a7fdffffff02efec0200000000001976a914eb3e324f3f43f7bc4243db76787c6078969591d588ac6b0a0300000000001976a9146b5567560c0315eb20e2a7c11472d693caac408288ac0d490800", "vin": [{"sequence": 4294967293, "scriptSig": {"hex": "47304402207b551118d3bc41fc6ca76785bf0b9ca1fe3cf2f366dd0f99ef3ffce91c569d0802201353ece679d9fd4bc38dd275c9cd1f463033779145636f30486f57c466fca6a601210283d6dcf9242b69051c8ff0efa7c44348aa1790625976600379e20d9e5fca34a7", "asm": "304402207b551118d3bc41fc6ca76785bf0b9ca1fe3cf2f366dd0f99ef3ffce91c569d0802201353ece679d9fd4bc38dd275c9cd1f463033779145636f30486f57c466fca6a6[ALL] 0283d6dcf9242b69051c8ff0efa7c44348aa1790625976600379e20d9e5fca34a7"}, "vout": 1, "txid": "50d9611e3b94c59d4ad5ef7bc5e341d1d2de07194d320364e451f99686f74586"}], "txid": "e5e2f5a39b5adbd08bc788482092c7c20876efb4c497cd255bc3d29cd2e8300e", "blocktime": 1537870564, "version": 1, "confirmations": 11515, "time": 1537870564, "locktime": 542989, "vsize": 225, "size": 225}