{"hash": "a182d509d83068b3a9e52b502e45059f6069789e766a7e36f3a9571ba760b37f", "blockhash": "0000000000000000001cda96e906b7601b7a6fb1a3b62bca570a9e5d8f4b3de1", "vout": [{"scriptPubKey": {"reqSigs": 1, "hex": "76a9142447e379c4657782cd7a77dcad7e08d19577981688ac", "addresses": ["14JqSp5pAoa3wT4QcD8hQiz1GYTaZsnJxH"], "asm": "OP_DUP OP_HASH160 2447e379c4657782cd7a77dcad7e08d195779816 OP_EQUALVERIFY OP_CHECKSIG", "type": "pubkeyhash"}, "value": 0.0020884, "n": 0}, {"scriptPubKey": {"reqSigs": 1, "hex": "a9141988a27e3c2df4ddee7fad5a2303d086179b2a3087", "addresses": ["3422VtS7UtCvXYxoXMVp6eZupR252z85oC"], "asm": "OP_HASH160 1988a27e3c2df4ddee7fad5a2303d086179b2a30 OP_EQUAL", "type": "scripthash"}, "value": 1.10486821, "n": 1}], "hex": "0100000000010108b3278dc50bae52fc21c74b87edd5ab267af9f538189b4db754a9142f6b8020030000002322002065d416c48a8072e0ac51c2d111eb194f009caef0332446c1bf2097316cf07fa9ffffffff02c82f0300000000001976a9142447e379c4657782cd7a77dcad7e08d19577981688ac25e595060000000017a9141988a27e3c2df4ddee7fad5a2303d086179b2a3087040047304402207c6bfcfac05226c114ae6e8fc53996dbfa5b1726b082a80c65cbb18237b96a83022042b64c8ea4a449c64e424bf448167f5750d360d6550c14ca140046e9a9a0ff3f014730440220285d3eb7dcc6827cdb5714ac3134dc502099e08be804baec6678c80e311b6e890220581d13c3757cca7ae51521a6ad6a577e681e37b1d841e5dffae4ea0f6cfb317f0169522102f44abcf9e23c9a460da309ccca56c619c04eed3bde2c2cff5e7d78fbcd980b9c2103c9443cf3047bb6c2c82f1b0c44c36109cdc3d0d601d16d1189a1602bf8d1a0a02103bfe867059274412412e088af5572b92168c2ef495cfe6c9b7a753a009eb37c4853ae00000000", "vin": [{"txinwitness": ["", "304402207c6bfcfac05226c114ae6e8fc53996dbfa5b1726b082a80c65cbb18237b96a83022042b64c8ea4a449c64e424bf448167f5750d360d6550c14ca140046e9a9a0ff3f01", "30440220285d3eb7dcc6827cdb5714ac3134dc502099e08be804baec6678c80e311b6e890220581d13c3757cca7ae51521a6ad6a577e681e37b1d841e5dffae4ea0f6cfb317f01", "522102f44abcf9e23c9a460da309ccca56c619c04eed3bde2c2cff5e7d78fbcd980b9c2103c9443cf3047bb6c2c82f1b0c44c36109cdc3d0d601d16d1189a1602bf8d1a0a02103bfe867059274412412e088af5572b92168c2ef495cfe6c9b7a753a009eb37c4853ae"], "sequence": 4294967295, "scriptSig": {"hex": "22002065d416c48a8072e0ac51c2d111eb194f009caef0332446c1bf2097316cf07fa9", "asm": "002065d416c48a8072e0ac51c2d111eb194f009caef0332446c1bf2097316cf07fa9"}, "vout": 3, "txid": "20806b2f14a954b74d9b1838f5f97a26abd5ed874bc721fc52ae0bc58d27b308"}], "txid": "e5f8caa885489a34022ae4d8d3a1f8c99aa6cfd6b7d4f49b47fa21ba838d289e", "blocktime": 1537873282, "version": 1, "confirmations": 11483, "time": 1537873282, "locktime": 0, "vsize": 216, "size": 406}