{"hash": "85fb18d9106c89d24c05d4d6ad5cac7f0cd5e320e26b77e798fece442a28f6d4", "blockhash": "0000000000000000000baef3f32e3676a92c3b2e5da21b426e4f302fc371ce76", "vout": [{"scriptPubKey": {"reqSigs": 1, "hex": "a9143ffff819a3205f6a69aae4675f98d2afc902f8b687", "addresses": ["37XR8gCz87va6kG4Q6v8V4FQ65vxhWCUry"], "asm": "OP_HASH160 3ffff819a3205f6a69aae4675f98d2afc902f8b6 OP_EQUAL", "type": "scripthash"}, "value": 0.06410567, "n": 0}, {"scriptPubKey": {"reqSigs": 1, "hex": "a914197c33145c935dce785ec172c2d35e40ceee553787", "addresses": ["341mbsekDd81Th93oeUhV8Spku2dA4ponQ"], "asm": "OP_HASH160 197c33145c935dce785ec172c2d35e40ceee5537 OP_EQUAL", "type": "scripthash"}, "value": 1.30146056, "n": 1}], "hex": "01000000000101452c2be8ea960657e5e5d31d3207d5fd0a6cdd618da92f7968f497eaa4aa160301000000171600145dc01cd04f4f00ee147b8bbdb9642fc94e2075e2ffffffff0247d161000000000017a9143ffff819a3205f6a69aae4675f98d2afc902f8b68708dfc1070000000017a914197c33145c935dce785ec172c2d35e40ceee55378702473044022004564eb9bd04be899dccef354553820c4984e51c39f31ac08d767e7eb7821b03022077f0f6783cfd10fdaa17e51e68abf507e89b9a749b307a06b4388aecd4f05e2a012103115c93c92416f2cce5741a62e3cdec4c3dc17f74b1f676ebd5c0b6a7eb2a9ec500000000", "vin": [{"txinwitness": ["3044022004564eb9bd04be899dccef354553820c4984e51c39f31ac08d767e7eb7821b03022077f0f6783cfd10fdaa17e51e68abf507e89b9a749b307a06b4388aecd4f05e2a01", "03115c93c92416f2cce5741a62e3cdec4c3dc17f74b1f676ebd5c0b6a7eb2a9ec5"], "sequence": 4294967295, "scriptSig": {"hex": "1600145dc01cd04f4f00ee147b8bbdb9642fc94e2075e2", "asm": "00145dc01cd04f4f00ee147b8bbdb9642fc94e2075e2"}, "vout": 1, "txid": "0316aaa4ea97f468792fa98d61dd6c0afdd507321dd3e5e5570696eae82b2c45"}], "txid": "e5fbd3f5246ad69066ae24d3c9c9ef85f2a3ce8bd8a6f21d377fc2c8b2221c01", "blocktime": 1537876114, "version": 1, "confirmations": 11460, "time": 1537876114, "locktime": 0, "vsize": 166, "size": 247}