{"hash": "19707c5d191992d7bc301a2af8a00e5fbd588c446b9d0256f924b3307024835f", "blockhash": "0000000000000000001e0dab787dd257d1dbfcb92a98c2207d5e1078be1f4165", "vout": [{"scriptPubKey": {"reqSigs": 1, "hex": "a91449d7e96499e76d96ef877a2fcb98823c8bccba2187", "addresses": ["38RTuMXR3rjgmqC2TwiJHrCLzc9nbGoNw7"], "asm": "OP_HASH160 49d7e96499e76d96ef877a2fcb98823c8bccba21 OP_EQUAL", "type": "scripthash"}, "value": 0.00053574, "n": 0}], "hex": "010000000001015fd7561a948d5c443c8a3b72fafe22bb6ced827e3f4cbe56f05e616896f78c0600000000171600148d45fd12b5ace60332e0a8bbb8f65774920d74a4ffffffff0146d100000000000017a91449d7e96499e76d96ef877a2fcb98823c8bccba218702473044022018568ac0258866b54c7afe89bc1c190b7f80167cc18d21eb090542d29806768c022066fde07ca43fd2d53336b03bf8e91d68d7c4743e635cba305fbf020556fad9eb0121026ae879952fc807872839e24bd461abd95c9eec6263a49ea38d04d9a957db2f3f00000000", "vin": [{"txinwitness": ["3044022018568ac0258866b54c7afe89bc1c190b7f80167cc18d21eb090542d29806768c022066fde07ca43fd2d53336b03bf8e91d68d7c4743e635cba305fbf020556fad9eb01", "026ae879952fc807872839e24bd461abd95c9eec6263a49ea38d04d9a957db2f3f"], "sequence": 4294967295, "scriptSig": {"hex": "1600148d45fd12b5ace60332e0a8bbb8f65774920d74a4", "asm": "00148d45fd12b5ace60332e0a8bbb8f65774920d74a4"}, "vout": 0, "txid": "068cf79668615ef056be4c3f7e82ed6cbb22fefa723b8a3c445c8d941a56d75f"}], "txid": "e5fb618f4a25865dd1b9d5baa4bdab9e52555e6a06501b8ff8c0622eb9be714a", "blocktime": 1537872475, "version": 1, "confirmations": 11487, "time": 1537872475, "locktime": 0, "vsize": 134, "size": 215}