{"hash": "e5fe1020779e7bf60c93d8107c7b8e16646e9285f15d19957af07a1f472e3de1", "blockhash": "00000000000000000018f53835495a110e01622372bf6ae95dc86f2b0ab887b0", "vout": [{"scriptPubKey": {"reqSigs": 1, "hex": "76a914369ab6c43f08231a6485e723ab516759e9b30ea088ac", "addresses": ["15yiq58psWqjFMRNaSVBR9YpsnniXWzCqi"], "asm": "OP_DUP OP_HASH160 369ab6c43f08231a6485e723ab516759e9b30ea0 OP_EQUALVERIFY OP_CHECKSIG", "type": "pubkeyhash"}, "value": 4.158e-05, "n": 0}, {"scriptPubKey": {"reqSigs": 1, "hex": "76a9142d76c52cd7bd4b48f52b092215cb438bf2f0466188ac", "addresses": ["159Pgw2x5jFWh4wYDW2xhnC125CZo6mAmx"], "asm": "OP_DUP OP_HASH160 2d76c52cd7bd4b48f52b092215cb438bf2f04661 OP_EQUALVERIFY OP_CHECKSIG", "type": "pubkeyhash"}, "value": 0.00812037, "n": 1}], "hex": "01000000032e36c4cfc1e818b7cf8ee2770663253a44f07cc7027ac9b0223f1d6b9e4f5003000000006a4730440220157a512ab5df3ba301906868798875d2c1f16a96bff289cd1ef8882f1fc0f2730220022c84c52902762cf404243a4991b19dcddf090c21aa4f81489a7c94a55943b5012102cae52273cba12a086aa24b3212f10c15316b082b2154eac7d565755fe5af898fffffffff8fb2ecb424157b423316d3be516cd66e74dd3f08529cac7ed01e0ad1ffc31890000000006a473044022010853df9f15ac0a87ce831d9b0c5475755bbda662d77da4e0bad3a12ad012b1f022003f6b2fb3b1e1260f027ddc50106429d2843d32c59d9e4502de41520d0cc48250121022ae53bdb89550c4d1a27bb17039029f4b9448654ddc11b1de94c0212b0605619ffffffffdcc5414307ef8c55e7602f0046f7b718f71c97599275eeae4167cde278f0eda2000000006a473044022009019156da55ca6418a4194e8ff02830a08929937e1fc3eb83d0ef3b4a142499022047d8e2086b5a6e043534989afdcf85fd825340a8c6a7d13f05cdbd96a524a9270121029c3707ae9efc5d7f218816530dacade4bd323207946f40c84355023c475f2b05ffffffff023e100000000000001976a914369ab6c43f08231a6485e723ab516759e9b30ea088ac05640c00000000001976a9142d76c52cd7bd4b48f52b092215cb438bf2f0466188ac00000000", "vin": [{"sequence": 4294967295, "scriptSig": {"hex": "4730440220157a512ab5df3ba301906868798875d2c1f16a96bff289cd1ef8882f1fc0f2730220022c84c52902762cf404243a4991b19dcddf090c21aa4f81489a7c94a55943b5012102cae52273cba12a086aa24b3212f10c15316b082b2154eac7d565755fe5af898f", "asm": "30440220157a512ab5df3ba301906868798875d2c1f16a96bff289cd1ef8882f1fc0f2730220022c84c52902762cf404243a4991b19dcddf090c21aa4f81489a7c94a55943b5[ALL] 02cae52273cba12a086aa24b3212f10c15316b082b2154eac7d565755fe5af898f"}, "vout": 0, "txid": "03504f9e6b1d3f22b0c97a02c77cf0443a25630677e28ecfb718e8c1cfc4362e"}, {"sequence": 4294967295, "scriptSig": {"hex": "473044022010853df9f15ac0a87ce831d9b0c5475755bbda662d77da4e0bad3a12ad012b1f022003f6b2fb3b1e1260f027ddc50106429d2843d32c59d9e4502de41520d0cc48250121022ae53bdb89550c4d1a27bb17039029f4b9448654ddc11b1de94c0212b0605619", "asm": "3044022010853df9f15ac0a87ce831d9b0c5475755bbda662d77da4e0bad3a12ad012b1f022003f6b2fb3b1e1260f027ddc50106429d2843d32c59d9e4502de41520d0cc4825[ALL] 022ae53bdb89550c4d1a27bb17039029f4b9448654ddc11b1de94c0212b0605619"}, "vout": 0, "txid": "9018c3ffd10a1ed07eac9c52083fdd746ed66c51bed31633427b1524b4ecb28f"}, {"sequence": 4294967295, "scriptSig": {"hex": "473044022009019156da55ca6418a4194e8ff02830a08929937e1fc3eb83d0ef3b4a142499022047d8e2086b5a6e043534989afdcf85fd825340a8c6a7d13f05cdbd96a524a9270121029c3707ae9efc5d7f218816530dacade4bd323207946f40c84355023c475f2b05", "asm": "3044022009019156da55ca6418a4194e8ff02830a08929937e1fc3eb83d0ef3b4a142499022047d8e2086b5a6e043534989afdcf85fd825340a8c6a7d13f05cdbd96a524a927[ALL] 029c3707ae9efc5d7f218816530dacade4bd323207946f40c84355023c475f2b05"}, "vout": 0, "txid": "a2edf078e2cd6741aeee759259971cf718b7f746002f60e7558cef074341c5dc"}], "txid": "e5fe1020779e7bf60c93d8107c7b8e16646e9285f15d19957af07a1f472e3de1", "blocktime": 1537870928, "version": 1, "confirmations": 11514, "time": 1537870928, "locktime": 0, "vsize": 519, "size": 519}