{"hash": "e601e79d88bce243008095b0b23d03bbac74d2622ec97fc2085e2bd42a610cbb", "blockhash": "0000000000000000000dcc0f55137456b1a82d3642486a52398922ac4d620174", "vout": [{"scriptPubKey": {"reqSigs": 1, "hex": "76a91415319be60a04b4141e88666c94be729eb499ae8f88ac", "addresses": ["12w4cvQJGKYRns3YrQaRNFrSx47N3EGfGe"], "asm": "OP_DUP OP_HASH160 15319be60a04b4141e88666c94be729eb499ae8f OP_EQUALVERIFY OP_CHECKSIG", "type": "pubkeyhash"}, "value": 0.0660972, "n": 0}, {"scriptPubKey": {"reqSigs": 1, "hex": "76a9146ef979c38ae01aab49f86a05b7efdf18ec28cd9c88ac", "addresses": ["1B7nByR9enUgYTACbSTUoJNgfDYFpQSpPY"], "asm": "OP_DUP OP_HASH160 6ef979c38ae01aab49f86a05b7efdf18ec28cd9c OP_EQUALVERIFY OP_CHECKSIG", "type": "pubkeyhash"}, "value": 10.9771978, "n": 1}], "hex": "020000000190725ba6ca25dbe9363823c00c4f4890a8a606aeee550c01570cfc3aca60c15d010000006b483045022100b669f39b5382630898f2e1f4e74319ee4dc4d6b0f2a7eda97161ef38130acd380220196d3624b58c10229bd1f72538f04cd959e72099b0f2fdc97b0e6e8b831cff1501210284bf2b955428cb0e3727f2b23e974789e5d89242650cbe0dcc9fbd8d4bb9cc1cffffffff0238db6400000000001976a91415319be60a04b4141e88666c94be729eb499ae8f88ace4df6d41000000001976a9146ef979c38ae01aab49f86a05b7efdf18ec28cd9c88ac00000000", "vin": [{"sequence": 4294967295, "scriptSig": {"hex": "483045022100b669f39b5382630898f2e1f4e74319ee4dc4d6b0f2a7eda97161ef38130acd380220196d3624b58c10229bd1f72538f04cd959e72099b0f2fdc97b0e6e8b831cff1501210284bf2b955428cb0e3727f2b23e974789e5d89242650cbe0dcc9fbd8d4bb9cc1c", "asm": "3045022100b669f39b5382630898f2e1f4e74319ee4dc4d6b0f2a7eda97161ef38130acd380220196d3624b58c10229bd1f72538f04cd959e72099b0f2fdc97b0e6e8b831cff15[ALL] 0284bf2b955428cb0e3727f2b23e974789e5d89242650cbe0dcc9fbd8d4bb9cc1c"}, "vout": 1, "txid": "5dc160ca3afc0c57010c55eeae06a6a890484f0cc0233836e9db25caa65b7290"}], "txid": "e601e79d88bce243008095b0b23d03bbac74d2622ec97fc2085e2bd42a610cbb", "blocktime": 1537870268, "version": 2, "confirmations": 11518, "time": 1537870268, "locktime": 0, "vsize": 226, "size": 226}