{"hash": "e6040480b953c4d357588920bbc254b523dcdf0847c192b7137c717b5127d191", "blockhash": "00000000000000000004ffacab907a6b429b9a5745fa0b75af4234bf69dd7176", "vout": [{"scriptPubKey": {"reqSigs": 1, "hex": "76a914efe05e29295316abe8740589823e4affdb4ab43a88ac", "addresses": ["1NsMHCQMEi2tbjFpJKdke8wroCejnecXi5"], "asm": "OP_DUP OP_HASH160 efe05e29295316abe8740589823e4affdb4ab43a OP_EQUALVERIFY OP_CHECKSIG", "type": "pubkeyhash"}, "value": 0.00318668, "n": 0}, {"scriptPubKey": {"reqSigs": 1, "hex": "76a914be0c55d768c1e611a3305a7759dfdf2873c0587b88ac", "addresses": ["1JKtAXCfc5zS7MT92ssiunZqQ9Y8ZtKkzd"], "asm": "OP_DUP OP_HASH160 be0c55d768c1e611a3305a7759dfdf2873c0587b OP_EQUALVERIFY OP_CHECKSIG", "type": "pubkeyhash"}, "value": 0.0132804, "n": 1}], "hex": "0100000002cff257f735c673fe8117af30bd5b718f2084eace5839d3ebf2d52feeadbcb93f000000006b483045022100d618dc59423f7babece0d50a70462b178bf0550bee2c0674c96f9d6eef76e25a02201cbbfc071ba988f21ca3450cac9a4be8af88cae38e9607581aa03b71c277cafd0121026da5814f44ae37fe362200e5ba05394a9781c164f1b9fefd5e91f544c4f3d831fffffffff615b6d7ebdd0bc544edbd198205164c5850026a07dedda7161cfac7c08f126e010000006a47304402206488a1b1b1dbf755547b093f794f9365e1648acaf64b45c1926bf0baf6f6d6e6022007a2d2e5a5de6d3506c0e1ea09a2dfd1fc50bec627fc36fe2c5ef8ca327f4c920121031c1ef461bfacc727f94369289bd044e554bdd93737e792d68c0adae1db17f3d6ffffffff02ccdc0400000000001976a914efe05e29295316abe8740589823e4affdb4ab43a88aca8431400000000001976a914be0c55d768c1e611a3305a7759dfdf2873c0587b88ac00000000", "vin": [{"sequence": 4294967295, "scriptSig": {"hex": "483045022100d618dc59423f7babece0d50a70462b178bf0550bee2c0674c96f9d6eef76e25a02201cbbfc071ba988f21ca3450cac9a4be8af88cae38e9607581aa03b71c277cafd0121026da5814f44ae37fe362200e5ba05394a9781c164f1b9fefd5e91f544c4f3d831", "asm": "3045022100d618dc59423f7babece0d50a70462b178bf0550bee2c0674c96f9d6eef76e25a02201cbbfc071ba988f21ca3450cac9a4be8af88cae38e9607581aa03b71c277cafd[ALL] 026da5814f44ae37fe362200e5ba05394a9781c164f1b9fefd5e91f544c4f3d831"}, "vout": 0, "txid": "3fb9bcadee2fd5f2ebd33958ceea84208f715bbd30af1781fe73c635f757f2cf"}, {"sequence": 4294967295, "scriptSig": {"hex": "47304402206488a1b1b1dbf755547b093f794f9365e1648acaf64b45c1926bf0baf6f6d6e6022007a2d2e5a5de6d3506c0e1ea09a2dfd1fc50bec627fc36fe2c5ef8ca327f4c920121031c1ef461bfacc727f94369289bd044e554bdd93737e792d68c0adae1db17f3d6", "asm": "304402206488a1b1b1dbf755547b093f794f9365e1648acaf64b45c1926bf0baf6f6d6e6022007a2d2e5a5de6d3506c0e1ea09a2dfd1fc50bec627fc36fe2c5ef8ca327f4c92[ALL] 031c1ef461bfacc727f94369289bd044e554bdd93737e792d68c0adae1db17f3d6"}, "vout": 1, "txid": "6e128fc0c7fa1c16a7ddde076a0250584c16058219bded44c50bddebd7b615f6"}], "txid": "e6040480b953c4d357588920bbc254b523dcdf0847c192b7137c717b5127d191", "blocktime": 1537875543, "version": 1, "confirmations": 11464, "time": 1537875543, "locktime": 0, "vsize": 373, "size": 373}