{"hash": "ba826ae52d55fdd24b92aef4d27541ae7523588894ddf6916c971622fded1a63", "blockhash": "0000000000000000001e0dab787dd257d1dbfcb92a98c2207d5e1078be1f4165", "vout": [{"scriptPubKey": {"reqSigs": 1, "hex": "a91470799e091052712cbb9765fb76a5d8b33d8591f087", "addresses": ["3BwjJ9aUSMhND7RwZPNhnqkGf42FwYH8FQ"], "asm": "OP_HASH160 70799e091052712cbb9765fb76a5d8b33d8591f0 OP_EQUAL", "type": "scripthash"}, "value": 0.01000645, "n": 0}, {"scriptPubKey": {"reqSigs": 1, "hex": "76a9144b412e370d53c51863c8b60db7afc244e6181d9588ac", "addresses": ["17rumDAXnE7JDX6zZyY1Q8Vo6YKochYcTz"], "asm": "OP_DUP OP_HASH160 4b412e370d53c51863c8b60db7afc244e6181d95 OP_EQUALVERIFY OP_CHECKSIG", "type": "pubkeyhash"}, "value": 0.6366412, "n": 1}], "hex": "020000000001061c7b777a16392150bfcd6d9919e1696432c3bd19a94e6aa19ff24114233ff38700000000171600141f900f305e1c92b04ae00bc4aa5f51982f051a44feffffff23be2af3a869c68510f50f66f6bcd73e1715d5631bc7213d2e8ca1736aab393702000000171600144ea1127fa8a81fdc991cca7db27be1a261984618feffffff36be3757a1bac38d121a25c1425a2bf23b242cb35b631ad2cc4643c4cddeaa70010000001716001474829c2825878fbcf9f41907535b893c7007b356feffffffa55c8f6daf7f3a200d285097b99ca15672f8229e31801f37fa41e58f0bee538100000000171600147b40ecf31d1b0e8e2d2d03a7996f3644c846383efeffffffaa79ccf7e50a00fd9a8763cf67e5b4502d89ed2f64e4f1b00635aac3c21bcb2d00000000171600144ea1127fa8a81fdc991cca7db27be1a261984618feffffffe183e5d60db68490a8f3158d556a618a9a04e9683e1e21eb564ff327f1b4b64c000000001716001440abe0619e2967ed2e8bf832022763c26aab94c6feffffff02c5440f000000000017a91470799e091052712cbb9765fb76a5d8b33d8591f087f86fcb03000000001976a9144b412e370d53c51863c8b60db7afc244e6181d9588ac024730440220505f48c5450b14e93fe07101b6ed17991b02e32fc6e84b12f21c7692c3adf11b02202336e8270a95fa9e330857f15664b2e75a7aa127d38021cb481ff1cdde588bf30121027bee23bdbe716e3f5bd4cded79ee3035bdbc75297c5b89b25384e5bd150e61fc0247304402205212c2098fb0b48afdc04c7356f37789daa307f4fdef5911a626e0fe21fc120c022038ce5d5983c81d8eeba93d2391c018877c0c35be1aa9c97ff35dcc9d717e6d0a012103bd6366974f89f4f9ed3ecc6332517617d41744a45a3c8587a50c659851c02bf202483045022100a9c003abbf6bf1720d6c4252bb5cce5c8d2716546b5e2b3206000666b406638902204910296cf0f148a4d2431be11e2d6c08d9108070e5f3af4a6b3fdb35c7c5c4a001210241f214c45b8a72c5c84d53c5abe28e8db1b67935d696d6e9875747734c15c95c02483045022100f82161bed85fc717de10efa38fb392b01616a5293971ae119a2cf975fbce952c02205835129af72f201e31ef7e369a10762ccc51a8274439763cb1420309941f69480121034ce41ec6ecde43e08e7403eacff9c638665dd22e82a09e4a9715514031dcaa9a02483045022100f176e7612447d0ed40d2014d0342c30449a37cee58ea27407bac4878906e4ba102202b87f8209afc7f68a9fe742711b8d1ebe750d48f391754bc851b5ebd343894e1012103bd6366974f89f4f9ed3ecc6332517617d41744a45a3c8587a50c659851c02bf202483045022100df46e81d778fd65172bfd01d2d593a80b0bec3ea113c1b7f6aa2ec54ec339e2102200ca452c845fb4e29b0fcf1b53e8fb9e6777846ca93a1c5037e1885b0ada88269012103ce2cae9ec2aad3afe7c46d23c4b49a5d8ea20c55826c37ee5abea1d6decc76bf12490800", "vin": [{"txinwitness": ["30440220505f48c5450b14e93fe07101b6ed17991b02e32fc6e84b12f21c7692c3adf11b02202336e8270a95fa9e330857f15664b2e75a7aa127d38021cb481ff1cdde588bf301", "027bee23bdbe716e3f5bd4cded79ee3035bdbc75297c5b89b25384e5bd150e61fc"], "sequence": 4294967294, "scriptSig": {"hex": "1600141f900f305e1c92b04ae00bc4aa5f51982f051a44", "asm": "00141f900f305e1c92b04ae00bc4aa5f51982f051a44"}, "vout": 0, "txid": "87f33f231441f29fa16a4ea919bdc3326469e119996dcdbf502139167a777b1c"}, {"txinwitness": ["304402205212c2098fb0b48afdc04c7356f37789daa307f4fdef5911a626e0fe21fc120c022038ce5d5983c81d8eeba93d2391c018877c0c35be1aa9c97ff35dcc9d717e6d0a01", "03bd6366974f89f4f9ed3ecc6332517617d41744a45a3c8587a50c659851c02bf2"], "sequence": 4294967294, "scriptSig": {"hex": "1600144ea1127fa8a81fdc991cca7db27be1a261984618", "asm": "00144ea1127fa8a81fdc991cca7db27be1a261984618"}, "vout": 2, "txid": "3739ab6a73a18c2e3d21c71b63d515173ed7bcf6660ff51085c669a8f32abe23"}, {"txinwitness": ["3045022100a9c003abbf6bf1720d6c4252bb5cce5c8d2716546b5e2b3206000666b406638902204910296cf0f148a4d2431be11e2d6c08d9108070e5f3af4a6b3fdb35c7c5c4a001", "0241f214c45b8a72c5c84d53c5abe28e8db1b67935d696d6e9875747734c15c95c"], "sequence": 4294967294, "scriptSig": {"hex": "16001474829c2825878fbcf9f41907535b893c7007b356", "asm": "001474829c2825878fbcf9f41907535b893c7007b356"}, "vout": 1, "txid": "70aadecdc44346ccd21a635bb32c243bf22b5a42c1251a128dc3baa15737be36"}, {"txinwitness": ["3045022100f82161bed85fc717de10efa38fb392b01616a5293971ae119a2cf975fbce952c02205835129af72f201e31ef7e369a10762ccc51a8274439763cb1420309941f694801", "034ce41ec6ecde43e08e7403eacff9c638665dd22e82a09e4a9715514031dcaa9a"], "sequence": 4294967294, "scriptSig": {"hex": "1600147b40ecf31d1b0e8e2d2d03a7996f3644c846383e", "asm": "00147b40ecf31d1b0e8e2d2d03a7996f3644c846383e"}, "vout": 0, "txid": "8153ee0b8fe541fa371f80319e22f87256a19cb99750280d203a7faf6d8f5ca5"}, {"txinwitness": ["3045022100f176e7612447d0ed40d2014d0342c30449a37cee58ea27407bac4878906e4ba102202b87f8209afc7f68a9fe742711b8d1ebe750d48f391754bc851b5ebd343894e101", "03bd6366974f89f4f9ed3ecc6332517617d41744a45a3c8587a50c659851c02bf2"], "sequence": 4294967294, "scriptSig": {"hex": "1600144ea1127fa8a81fdc991cca7db27be1a261984618", "asm": "00144ea1127fa8a81fdc991cca7db27be1a261984618"}, "vout": 0, "txid": "2dcb1bc2c3aa3506b0f1e4642fed892d50b4e567cf63879afd000ae5f7cc79aa"}, {"txinwitness": ["3045022100df46e81d778fd65172bfd01d2d593a80b0bec3ea113c1b7f6aa2ec54ec339e2102200ca452c845fb4e29b0fcf1b53e8fb9e6777846ca93a1c5037e1885b0ada8826901", "03ce2cae9ec2aad3afe7c46d23c4b49a5d8ea20c55826c37ee5abea1d6decc76bf"], "sequence": 4294967294, "scriptSig": {"hex": "16001440abe0619e2967ed2e8bf832022763c26aab94c6", "asm": "001440abe0619e2967ed2e8bf832022763c26aab94c6"}, "vout": 0, "txid": "4cb6b4f127f34f56eb211e3e68e9049a8a616a558d15f3a89084b60dd6e583e1"}], "txid": "e6051f8f3ba4d0573d684eee3c1a9b82797243c9c08599b739f3ce1d6571c74b", "blocktime": 1537872475, "version": 2, "confirmations": 11487, "time": 1537872475, "locktime": 542994, "vsize": 622, "size": 1108}