{"hash": "e6053d35ddfba8b9a0de3fdba8060bc7b9bece82a1f1a014d966224536d832c8", "blockhash": "0000000000000000000e13cef7c366c0283d82e591d1acd082e914b08063cdf1", "vout": [{"scriptPubKey": {"reqSigs": 1, "hex": "76a914f51bdde32d73596af3623809dcdfe1f1909efdc388ac", "addresses": ["1PM1wDQzKdXpTbXQhxu9FMTScAA6zrcYiZ"], "asm": "OP_DUP OP_HASH160 f51bdde32d73596af3623809dcdfe1f1909efdc3 OP_EQUALVERIFY OP_CHECKSIG", "type": "pubkeyhash"}, "value": 0.00025806, "n": 0}, {"scriptPubKey": {"reqSigs": 1, "hex": "76a9142ee499910e91408791780d9ac9b5babe2743f4c888ac", "addresses": ["15GwwDrTBcWxD6xMqEgYsZrurbJpK4cgza"], "asm": "OP_DUP OP_HASH160 2ee499910e91408791780d9ac9b5babe2743f4c8 OP_EQUALVERIFY OP_CHECKSIG", "type": "pubkeyhash"}, "value": 0.00312661, "n": 1}], "hex": "0100000002a058ca911a69f370cd1c6695ef36534e24bbb85e37ca86d984c2321fe8d7ac09000000006b483045022100ddf0bd647c85ebeb9ae36da11ae6d544e060648f4eee8f1f12101fba3c49aed0022047d8fe81b46ed983372b250b164959af5e633df6f7570cd1c39da504742fe04401210298451349b11b2e787503cba3b65a97ff855c1bdb452baa4671ca9cbff7992832fffffffff6af16ea8421927c1415961601e6f1f5df17656be72af197fb7a99dbfa3abe98000000006b483045022100883febc56a8c46f720f09b720a3e1cb55998d5cd2d13ec43117c8f12f9331938022012f82cd891acc4056056002880c8bd532cf97e01dc2da308a6f8355ff8b0cec7012103413182b298ee514c45b259c828a89ae0e2e1f40b4adeba930f50231d1414b6e9ffffffff02ce640000000000001976a914f51bdde32d73596af3623809dcdfe1f1909efdc388ac55c50400000000001976a9142ee499910e91408791780d9ac9b5babe2743f4c888ac00000000", "vin": [{"sequence": 4294967295, "scriptSig": {"hex": "483045022100ddf0bd647c85ebeb9ae36da11ae6d544e060648f4eee8f1f12101fba3c49aed0022047d8fe81b46ed983372b250b164959af5e633df6f7570cd1c39da504742fe04401210298451349b11b2e787503cba3b65a97ff855c1bdb452baa4671ca9cbff7992832", "asm": "3045022100ddf0bd647c85ebeb9ae36da11ae6d544e060648f4eee8f1f12101fba3c49aed0022047d8fe81b46ed983372b250b164959af5e633df6f7570cd1c39da504742fe044[ALL] 0298451349b11b2e787503cba3b65a97ff855c1bdb452baa4671ca9cbff7992832"}, "vout": 0, "txid": "09acd7e81f32c284d986ca375eb8bb244e5336ef95661ccd70f3691a91ca58a0"}, {"sequence": 4294967295, "scriptSig": {"hex": "483045022100883febc56a8c46f720f09b720a3e1cb55998d5cd2d13ec43117c8f12f9331938022012f82cd891acc4056056002880c8bd532cf97e01dc2da308a6f8355ff8b0cec7012103413182b298ee514c45b259c828a89ae0e2e1f40b4adeba930f50231d1414b6e9", "asm": "3045022100883febc56a8c46f720f09b720a3e1cb55998d5cd2d13ec43117c8f12f9331938022012f82cd891acc4056056002880c8bd532cf97e01dc2da308a6f8355ff8b0cec7[ALL] 03413182b298ee514c45b259c828a89ae0e2e1f40b4adeba930f50231d1414b6e9"}, "vout": 0, "txid": "98be3afadb997afb97f12ae76b6517dff5f1e601169615147c922184ea16aff6"}], "txid": "e6053d35ddfba8b9a0de3fdba8060bc7b9bece82a1f1a014d966224536d832c8", "blocktime": 1537871767, "version": 1, "confirmations": 11495, "time": 1537871767, "locktime": 0, "vsize": 374, "size": 374}