{"hash": "e609db3340e793145ef5d06ef5ea281223575053120b09a743df17ba2da115b6", "blockhash": "0000000000000000000dcc0f55137456b1a82d3642486a52398922ac4d620174", "vout": [{"scriptPubKey": {"reqSigs": 1, "hex": "a914e96733f5d8c3e3730b50e2c27211a8486ee9bd3687", "addresses": ["3Ny8zudpLRa8tLfuiYAXYtsrS7WZvxY2tz"], "asm": "OP_HASH160 e96733f5d8c3e3730b50e2c27211a8486ee9bd36 OP_EQUAL", "type": "scripthash"}, "value": 0.001301, "n": 0}, {"scriptPubKey": {"reqSigs": 1, "hex": "76a9140c0021d870bb7723974d24581877018da8c0180088ac", "addresses": ["126TGVJdJphLefScLdeDZYP4v1CvfQy6rw"], "asm": "OP_DUP OP_HASH160 0c0021d870bb7723974d24581877018da8c01800 OP_EQUALVERIFY OP_CHECKSIG", "type": "pubkeyhash"}, "value": 0.0165843, "n": 1}], "hex": "0100000001a091f643b41a31e9f49fde223edecea3195a090d259e2e99ce1ef0f34a5506c9010000006b48304502210080351c0ac17f7387acf3f392df68aa88107924509caf2641f98b58b3e26f6782022063f0d743e72cfd2c666c3f525f45e4185cb4ef062b2744bd44090de606c365d6012102f9e3eac56a366f8945a142a1f91c9d75be97085afe6c85dd00a48aebca1d3bcbfdffffff0234fc01000000000017a914e96733f5d8c3e3730b50e2c27211a8486ee9bd36873e4e1900000000001976a9140c0021d870bb7723974d24581877018da8c0180088ac0c490800", "vin": [{"sequence": 4294967293, "scriptSig": {"hex": "48304502210080351c0ac17f7387acf3f392df68aa88107924509caf2641f98b58b3e26f6782022063f0d743e72cfd2c666c3f525f45e4185cb4ef062b2744bd44090de606c365d6012102f9e3eac56a366f8945a142a1f91c9d75be97085afe6c85dd00a48aebca1d3bcb", "asm": "304502210080351c0ac17f7387acf3f392df68aa88107924509caf2641f98b58b3e26f6782022063f0d743e72cfd2c666c3f525f45e4185cb4ef062b2744bd44090de606c365d6[ALL] 02f9e3eac56a366f8945a142a1f91c9d75be97085afe6c85dd00a48aebca1d3bcb"}, "vout": 1, "txid": "c906554af3f01ece992e9e250d095a19a3cede3e22de9ff4e9311ab443f691a0"}], "txid": "e609db3340e793145ef5d06ef5ea281223575053120b09a743df17ba2da115b6", "blocktime": 1537870268, "version": 1, "confirmations": 11516, "time": 1537870268, "locktime": 542988, "vsize": 224, "size": 224}