{"hash": "e60ce193d970b044e941ab3824247f27a31ac8d156250a7a13c2f0589f2f3a20", "blockhash": "0000000000000000001f76057863aec43deb6fa401d9628bb513d65a8098bfab", "vout": [{"scriptPubKey": {"reqSigs": 1, "hex": "76a914e51cb3b5a57670f4ea82189d5c0fa86c40efd70e88ac", "addresses": ["1MtS8BMDj7Fh9Ud1J9GMMmMsEacTjAnrXx"], "asm": "OP_DUP OP_HASH160 e51cb3b5a57670f4ea82189d5c0fa86c40efd70e OP_EQUALVERIFY OP_CHECKSIG", "type": "pubkeyhash"}, "value": 0.00521228, "n": 0}, {"scriptPubKey": {"reqSigs": 1, "hex": "a91437bb6cf89c2143a9a1876a06838d608e8a492bd187", "addresses": ["36mhcf8MLKardfenKEHmhyafa7EYpYp4n8"], "asm": "OP_HASH160 37bb6cf89c2143a9a1876a06838d608e8a492bd1 OP_EQUAL", "type": "scripthash"}, "value": 0.02139404, "n": 1}], "hex": "01000000028ecf9a6e33555be48faa130018f505d532ac967b19b9f26f69090d2c3124530f010000006a47304402205c3c4213d5452b966aab4f070eb5526370d0d9f77d32b7093c7dd73683ccd48a0220085e721850e7192de7155ab3a54a61c07bb802c90bd454df6d9a7a66f21380a9012102108a2a204f01c7580483ae0cc250520670e9a7d0f0a794fa21c91f4dd210e122ffffffffdc30c5d818d8c9b9291b5a8205f3e0c1b54b79e6afb55a3e7bc77cb302b4c992010000006a4730440220132d0de3be431f6efa61932c6e20e1c8362c99758a0e889f431dcb124a92b29d02203d2cb770c568a4a7f424e065fd4bdc578c10dcf0267eab21ad7ab23070c69a780121026984a42c0749112225a7888d87ac03a980ae038f25ca4eb1849be239e17c1b1bffffffff020cf40700000000001976a914e51cb3b5a57670f4ea82189d5c0fa86c40efd70e88ac0ca520000000000017a91437bb6cf89c2143a9a1876a06838d608e8a492bd18700000000", "vin": [{"sequence": 4294967295, "scriptSig": {"hex": "47304402205c3c4213d5452b966aab4f070eb5526370d0d9f77d32b7093c7dd73683ccd48a0220085e721850e7192de7155ab3a54a61c07bb802c90bd454df6d9a7a66f21380a9012102108a2a204f01c7580483ae0cc250520670e9a7d0f0a794fa21c91f4dd210e122", "asm": "304402205c3c4213d5452b966aab4f070eb5526370d0d9f77d32b7093c7dd73683ccd48a0220085e721850e7192de7155ab3a54a61c07bb802c90bd454df6d9a7a66f21380a9[ALL] 02108a2a204f01c7580483ae0cc250520670e9a7d0f0a794fa21c91f4dd210e122"}, "vout": 1, "txid": "0f5324312c0d09696ff2b9197b96ac32d505f5180013aa8fe45b55336e9acf8e"}, {"sequence": 4294967295, "scriptSig": {"hex": "4730440220132d0de3be431f6efa61932c6e20e1c8362c99758a0e889f431dcb124a92b29d02203d2cb770c568a4a7f424e065fd4bdc578c10dcf0267eab21ad7ab23070c69a780121026984a42c0749112225a7888d87ac03a980ae038f25ca4eb1849be239e17c1b1b", "asm": "30440220132d0de3be431f6efa61932c6e20e1c8362c99758a0e889f431dcb124a92b29d02203d2cb770c568a4a7f424e065fd4bdc578c10dcf0267eab21ad7ab23070c69a78[ALL] 026984a42c0749112225a7888d87ac03a980ae038f25ca4eb1849be239e17c1b1b"}, "vout": 1, "txid": "92c9b402b37cc77b3e5ab5afe6794bb5c1e0f305825a1b29b9c9d818d8c530dc"}], "txid": "e60ce193d970b044e941ab3824247f27a31ac8d156250a7a13c2f0589f2f3a20", "blocktime": 1537873891, "version": 1, "confirmations": 11475, "time": 1537873891, "locktime": 0, "vsize": 370, "size": 370}