{"hash": "27540656a556c243e9387a8e19ed4f9e8d2100c5e0f5ee7e44f69c755c8e5d76", "blockhash": "000000000000000000022b45ed06c6f4ccd3cf7fb5ba4856ebd2e58215665228", "vout": [{"scriptPubKey": {"reqSigs": 1, "hex": "a91446b91047232f57336df2c594a34c6365c2087dab87", "addresses": ["388xvR357RNNVFJS3J4H9C3FKpyAyniYvg"], "asm": "OP_HASH160 46b91047232f57336df2c594a34c6365c2087dab OP_EQUAL", "type": "scripthash"}, "value": 0.03617522, "n": 0}, {"scriptPubKey": {"reqSigs": 1, "hex": "a91425f90964c54cb099a1fd06d610a34e6833d7736287", "addresses": ["359oG1nRWhD6P2HguprBXEVzD7gujDbuWc"], "asm": "OP_HASH160 25f90964c54cb099a1fd06d610a34e6833d77362 OP_EQUAL", "type": "scripthash"}, "value": 0.02360357, "n": 1}], "hex": "01000000000101673a157d458a6939ef9cda03afe7bce24de9625050427ab0fbbde677510ea81d01000000171600144f3cbed35bf433fda783d2bb1b2ca0d1104bee65fdffffff02f23237000000000017a91446b91047232f57336df2c594a34c6365c2087dab87250424000000000017a91425f90964c54cb099a1fd06d610a34e6833d773628702483045022100af4cf689402671b2a4c9fbf52304099d6c46c77b8f60620f2d3ce911ee5fb6470220408d0b881f1faa17653af1574f5c5a0e8f5dd57d185c861a43bc6924890466e2012102eee7b0832ec8aaf32c637ea27984300d233344f5a7cd5085aa69c894fba059e400000000", "vin": [{"txinwitness": ["3045022100af4cf689402671b2a4c9fbf52304099d6c46c77b8f60620f2d3ce911ee5fb6470220408d0b881f1faa17653af1574f5c5a0e8f5dd57d185c861a43bc6924890466e201", "02eee7b0832ec8aaf32c637ea27984300d233344f5a7cd5085aa69c894fba059e4"], "sequence": 4294967293, "scriptSig": {"hex": "1600144f3cbed35bf433fda783d2bb1b2ca0d1104bee65", "asm": "00144f3cbed35bf433fda783d2bb1b2ca0d1104bee65"}, "vout": 1, "txid": "1da80e5177e6bdfbb07a42505062e94de2bce7af03da9cef39698a457d153a67"}], "txid": "e614f88218b416ce403f9195718e28514320972bcf18e99cfaff172e05f314ab", "blocktime": 1537869901, "version": 1, "confirmations": 11522, "time": 1537869901, "locktime": 0, "vsize": 166, "size": 248}