{"hash": "e615e6accec414da36ad8fc6c5a3a11b5bcf505c1532073b8dc4fc6260d3f3ef", "blockhash": "00000000000000000024a2167bbff67b0be802c0b01cdd79e6331c2be6459f87", "vout": [{"scriptPubKey": {"reqSigs": 1, "hex": "76a914eadb075441f89b5ea0acbd624421c2665c8f271c88ac", "addresses": ["1NQoWGL4SmzmbbCfw9usr45Smgb3P9vePE"], "asm": "OP_DUP OP_HASH160 eadb075441f89b5ea0acbd624421c2665c8f271c OP_EQUALVERIFY OP_CHECKSIG", "type": "pubkeyhash"}, "value": 4.2261976, "n": 0}, {"scriptPubKey": {"reqSigs": 1, "hex": "76a9146f85194839d0a99b5bf1bd9f4edcbf1e4f23fc4c88ac", "addresses": ["1BAfTA7Fg6Hqb71Hw4UK7DMLC5ZywYRra8"], "asm": "OP_DUP OP_HASH160 6f85194839d0a99b5bf1bd9f4edcbf1e4f23fc4c OP_EQUALVERIFY OP_CHECKSIG", "type": "pubkeyhash"}, "value": 5.46e-06, "n": 1}, {"scriptPubKey": {"type": "nulldata", "hex": "6a146f6d6e69000000000000001f00000034273e763e", "asm": "OP_RETURN 6f6d6e69000000000000001f00000034273e763e"}, "value": 0.0, "n": 2}], "hex": "0100000002a117483af9a731b43139d0619f724f3e679b6925e93bf379f61e04c081c8478c000000006a47304402201b6d74c5b3c08e2e5e03a8f7e650cd9ab434ae93e58e99fa1c29f91e4dc2808e022069a7331835d8861bc0ce294523d356529baff99c32cde39f2399679212d1938b01210370ac1cd7a45377dffc76487e5b01f67db08c01ec12ad963720154b287b38888cffffffffafa3f1cbbd8121c3a6a20e882ef3041a7fc34d119845dd25e97ffe25ea8e4afc000000006a473044022030b3909c121cea4c7a855a0496009f34a45bc084a7daf3b88bd3aeb74f9a992e02205af6c7753921f603a104989cfc855719c3990656a6b6ea9b78087c48a0b69db901210379f59e95aae2e42172fb2819f25a529b5e2e176b3bfbe7b83ad79187e909e5aeffffffff0370aa3019000000001976a914eadb075441f89b5ea0acbd624421c2665c8f271c88ac22020000000000001976a9146f85194839d0a99b5bf1bd9f4edcbf1e4f23fc4c88ac0000000000000000166a146f6d6e69000000000000001f00000034273e763e00000000", "vin": [{"sequence": 4294967295, "scriptSig": {"hex": "47304402201b6d74c5b3c08e2e5e03a8f7e650cd9ab434ae93e58e99fa1c29f91e4dc2808e022069a7331835d8861bc0ce294523d356529baff99c32cde39f2399679212d1938b01210370ac1cd7a45377dffc76487e5b01f67db08c01ec12ad963720154b287b38888c", "asm": "304402201b6d74c5b3c08e2e5e03a8f7e650cd9ab434ae93e58e99fa1c29f91e4dc2808e022069a7331835d8861bc0ce294523d356529baff99c32cde39f2399679212d1938b[ALL] 0370ac1cd7a45377dffc76487e5b01f67db08c01ec12ad963720154b287b38888c"}, "vout": 0, "txid": "8c47c881c0041ef679f33be925699b673e4f729f61d03931b431a7f93a4817a1"}, {"sequence": 4294967295, "scriptSig": {"hex": "473044022030b3909c121cea4c7a855a0496009f34a45bc084a7daf3b88bd3aeb74f9a992e02205af6c7753921f603a104989cfc855719c3990656a6b6ea9b78087c48a0b69db901210379f59e95aae2e42172fb2819f25a529b5e2e176b3bfbe7b83ad79187e909e5ae", "asm": "3044022030b3909c121cea4c7a855a0496009f34a45bc084a7daf3b88bd3aeb74f9a992e02205af6c7753921f603a104989cfc855719c3990656a6b6ea9b78087c48a0b69db9[ALL] 0379f59e95aae2e42172fb2819f25a529b5e2e176b3bfbe7b83ad79187e909e5ae"}, "vout": 0, "txid": "fc4a8eea25fe7fe925dd4598114dc37f1a04f32e880ea2a6c32181bdcbf1a3af"}], "txid": "e615e6accec414da36ad8fc6c5a3a11b5bcf505c1532073b8dc4fc6260d3f3ef", "blocktime": 1537870564, "version": 1, "confirmations": 11515, "time": 1537870564, "locktime": 0, "vsize": 403, "size": 403}