{"hash": "e61f145708b873c7b1d7a6d528757a1b6fde17c3b716b053991ea53578c284dc", "blockhash": "00000000000000000017f5eb5941039fbcee6240d03bc1f2f8e35350df66a1d8", "vout": [{"scriptPubKey": {"reqSigs": 1, "hex": "76a914e41a8496dc0c3dbce3c452afa3dc4d36351aea5888ac", "addresses": ["1Mo6qEeDPQKFS4qsossdiujKyfdZsNybtH"], "asm": "OP_DUP OP_HASH160 e41a8496dc0c3dbce3c452afa3dc4d36351aea58 OP_EQUALVERIFY OP_CHECKSIG", "type": "pubkeyhash"}, "value": 0.22376095, "n": 0}], "hex": "010000000156f6230fee4b10603b865743a59d6ffb5a7bf42097005a9dce8f04668251559a010000006a47304402201b35cae748a9385df1f2e0144eb8b534aba61caca26bb7bc9c073cf0ab6d40db0220405421dce85589149712aa1efe4e8a518fcd2bfe56672a3f645022c401531d77012103e315a60b31bb9f380ddae2ff87de7a680cf7ffa6a6c7ffd1bfecbe30d1b66944fdffffff019f6e5501000000001976a914e41a8496dc0c3dbce3c452afa3dc4d36351aea5888ac15490800", "vin": [{"sequence": 4294967293, "scriptSig": {"hex": "47304402201b35cae748a9385df1f2e0144eb8b534aba61caca26bb7bc9c073cf0ab6d40db0220405421dce85589149712aa1efe4e8a518fcd2bfe56672a3f645022c401531d77012103e315a60b31bb9f380ddae2ff87de7a680cf7ffa6a6c7ffd1bfecbe30d1b66944", "asm": "304402201b35cae748a9385df1f2e0144eb8b534aba61caca26bb7bc9c073cf0ab6d40db0220405421dce85589149712aa1efe4e8a518fcd2bfe56672a3f645022c401531d77[ALL] 03e315a60b31bb9f380ddae2ff87de7a680cf7ffa6a6c7ffd1bfecbe30d1b66944"}, "vout": 1, "txid": "9a55518266048fce9d5a009720f47b5afb6f9da54357863b60104bee0f23f656"}], "txid": "e61f145708b873c7b1d7a6d528757a1b6fde17c3b716b053991ea53578c284dc", "blocktime": 1537874412, "version": 1, "confirmations": 11468, "time": 1537874412, "locktime": 542997, "vsize": 191, "size": 191}