{"hash": "b78378df58935aa372a599f1e9ead65702528a416135b17fece8fbbd140d7e96", "blockhash": "0000000000000000001cda96e906b7601b7a6fb1a3b62bca570a9e5d8f4b3de1", "vout": [{"scriptPubKey": {"reqSigs": 1, "hex": "a914b413a837403a5ffbb495374d9d78990caeccbae187", "addresses": ["3J7B6sXfC2nyEtWVKgP7ChgRXkcbL4oqD1"], "asm": "OP_HASH160 b413a837403a5ffbb495374d9d78990caeccbae1 OP_EQUAL", "type": "scripthash"}, "value": 0.00959521, "n": 0}, {"scriptPubKey": {"reqSigs": 1, "hex": "a9148c92488f3ec4cac4bded5b42362841289af9449b87", "addresses": ["3EWHmML5JpDWAndf5Jd34rW6M2ZMBZPRx2"], "asm": "OP_HASH160 8c92488f3ec4cac4bded5b42362841289af9449b OP_EQUAL", "type": "scripthash"}, "value": 0.64764192, "n": 1}], "hex": "01000000000101536becd0c7a6ef1627f84992deee2f6625d094ceac0749659adb319ac0f0e42a00000000232200206c05869de4cf7582d65ad1f12a1dc98722540396e82c4b891c43c25ed886a2b6ffffffff0221a40e000000000017a914b413a837403a5ffbb495374d9d78990caeccbae1872039dc030000000017a9148c92488f3ec4cac4bded5b42362841289af9449b8704004730440220500b13cc36280b2183590587e776381f65f37be9fce8efa0c19771dfb33bfba00220105f5253099e60fc71daf575952dc1b2338000729308928ad21fc02442cfee080147304402200463371104a33fe1464e143b3b6f1c54de49d0997d02994eff2bc9d52086585a02206f884a5d0de5dc164280cd9fe7f41cc4b588c23e1385b77b0a666ef12f91ab8101695221025a1839a1a9bd89e087468c185c62ae49c025192a9426bba188ee89ae6948cb0c21029d780abc07cf2bc1aa28a884ba35468d9ad515de2cf6a2f418409779a49b6a342103ff2d8a6d6e6c144dbb2806a8d451a0e3c2975c9cf2d32a183b69bb5665b1657f53ae00000000", "vin": [{"txinwitness": ["", "30440220500b13cc36280b2183590587e776381f65f37be9fce8efa0c19771dfb33bfba00220105f5253099e60fc71daf575952dc1b2338000729308928ad21fc02442cfee0801", "304402200463371104a33fe1464e143b3b6f1c54de49d0997d02994eff2bc9d52086585a02206f884a5d0de5dc164280cd9fe7f41cc4b588c23e1385b77b0a666ef12f91ab8101", "5221025a1839a1a9bd89e087468c185c62ae49c025192a9426bba188ee89ae6948cb0c21029d780abc07cf2bc1aa28a884ba35468d9ad515de2cf6a2f418409779a49b6a342103ff2d8a6d6e6c144dbb2806a8d451a0e3c2975c9cf2d32a183b69bb5665b1657f53ae"], "sequence": 4294967295, "scriptSig": {"hex": "2200206c05869de4cf7582d65ad1f12a1dc98722540396e82c4b891c43c25ed886a2b6", "asm": "00206c05869de4cf7582d65ad1f12a1dc98722540396e82c4b891c43c25ed886a2b6"}, "vout": 0, "txid": "2ae4f0c09a31db9a654907acce94d025662feede9249f82716efa6c7d0ec6b53"}], "txid": "e621bc769d2fd5aa268bdcc63c6a6aae120272fb0de1b3737e7aabee2665174a", "blocktime": 1537873282, "version": 1, "confirmations": 11484, "time": 1537873282, "locktime": 0, "vsize": 214, "size": 404}