{"hash": "e62659d3d8165d8511e906fc0a6cff3fad1dcb078ce0a7b43f012980283cb743", "blockhash": "0000000000000000001cda96e906b7601b7a6fb1a3b62bca570a9e5d8f4b3de1", "vout": [{"scriptPubKey": {"reqSigs": 1, "hex": "a91430ac3869e8c9df4ce559d38a44667ba145d0204087", "addresses": ["368NfqEY3rAmSS5GMCrb33toGcbp4yJiBh"], "asm": "OP_HASH160 30ac3869e8c9df4ce559d38a44667ba145d02040 OP_EQUAL", "type": "scripthash"}, "value": 0.04414152, "n": 0}], "hex": "0100000003c9fd41bb1c044ee3675013a5c0142fb16cf56e3fce267085797fafd9d100ff60000000006b483045022100d6ec4f0bb6c411d189dc5541bb394e19fdfe67493f988e57ac7c587449893f6d02207cd5368e77d48208a5721f16ee95ab1b59635c16b114db0d250cb1c013032024012102d9a0b23e36b3ecde194aa3cb9b445f26c19307307e84009cd0ccf4965ac29bc6fffffffffc77d8a3f78979ab7c7560d5c4256587461bca30e047677e1623feb4075b2c07010000006a4730440220353332371d4489dcb51d5d7d5cb520eb088d66a5192dd3b1758aaf96514cae3202200213d0fa2b5165dc617a2c104d7a818b452cf488d75dc72b5e7781ba3e06d023012102e1c344ba62427062e72fc875313d0eee618bd0cd1b5da2903c8af74bb363c109ffffffffcb15b362ae1e5542b572a5c5c7b936045c775f4c007d594f2ee73829b7be4614000000006b483045022100ba7f92648f16a5971289cd973ab01d2c34842dac0fafa910f81a2b9fc812350d02203684760925059d59efa22d8c440ed8d6decd71e7c10497061494d591a739966a01210338bf63e2702fbd23fd7dc47682c40da18703c3f6b2d2befea30befcca0fd5c52ffffffff01c85a43000000000017a91430ac3869e8c9df4ce559d38a44667ba145d020408700000000", "vin": [{"sequence": 4294967295, "scriptSig": {"hex": "483045022100d6ec4f0bb6c411d189dc5541bb394e19fdfe67493f988e57ac7c587449893f6d02207cd5368e77d48208a5721f16ee95ab1b59635c16b114db0d250cb1c013032024012102d9a0b23e36b3ecde194aa3cb9b445f26c19307307e84009cd0ccf4965ac29bc6", "asm": "3045022100d6ec4f0bb6c411d189dc5541bb394e19fdfe67493f988e57ac7c587449893f6d02207cd5368e77d48208a5721f16ee95ab1b59635c16b114db0d250cb1c013032024[ALL] 02d9a0b23e36b3ecde194aa3cb9b445f26c19307307e84009cd0ccf4965ac29bc6"}, "vout": 0, "txid": "60ff00d1d9af7f79857026ce3f6ef56cb12f14c0a5135067e34e041cbb41fdc9"}, {"sequence": 4294967295, "scriptSig": {"hex": "4730440220353332371d4489dcb51d5d7d5cb520eb088d66a5192dd3b1758aaf96514cae3202200213d0fa2b5165dc617a2c104d7a818b452cf488d75dc72b5e7781ba3e06d023012102e1c344ba62427062e72fc875313d0eee618bd0cd1b5da2903c8af74bb363c109", "asm": "30440220353332371d4489dcb51d5d7d5cb520eb088d66a5192dd3b1758aaf96514cae3202200213d0fa2b5165dc617a2c104d7a818b452cf488d75dc72b5e7781ba3e06d023[ALL] 02e1c344ba62427062e72fc875313d0eee618bd0cd1b5da2903c8af74bb363c109"}, "vout": 1, "txid": "072c5b07b4fe23167e6747e030ca1b46876525c4d560757cab7989f7a3d877fc"}, {"sequence": 4294967295, "scriptSig": {"hex": "483045022100ba7f92648f16a5971289cd973ab01d2c34842dac0fafa910f81a2b9fc812350d02203684760925059d59efa22d8c440ed8d6decd71e7c10497061494d591a739966a01210338bf63e2702fbd23fd7dc47682c40da18703c3f6b2d2befea30befcca0fd5c52", "asm": "3045022100ba7f92648f16a5971289cd973ab01d2c34842dac0fafa910f81a2b9fc812350d02203684760925059d59efa22d8c440ed8d6decd71e7c10497061494d591a739966a[ALL] 0338bf63e2702fbd23fd7dc47682c40da18703c3f6b2d2befea30befcca0fd5c52"}, "vout": 0, "txid": "1446beb72938e72e4f597d004c5f775c0436b9c7c5a572b542551eae62b315cb"}], "txid": "e62659d3d8165d8511e906fc0a6cff3fad1dcb078ce0a7b43f012980283cb743", "blocktime": 1537873282, "version": 1, "confirmations": 11481, "time": 1537873282, "locktime": 0, "vsize": 485, "size": 485}